{
  "_format": "hh-sol-artifact-1",
  "contractName": "VestingFactory",
  "sourceName": "contracts/Factory/VestingFactory.sol",
  "abi": [
    {
      "inputs": [],
      "stateMutability": "nonpayable",
      "type": "constructor"
    },
    {
      "anonymous": false,
      "inputs": [
        {
          "indexed": true,
          "internalType": "address",
          "name": "previousOwner",
          "type": "address"
        },
        {
          "indexed": true,
          "internalType": "address",
          "name": "newOwner",
          "type": "address"
        }
      ],
      "name": "OwnershipTransferred",
      "type": "event"
    },
    {
      "inputs": [
        {
          "internalType": "address",
          "name": "token",
          "type": "address"
        },
        {
          "internalType": "address",
          "name": "beneficiary",
          "type": "address"
        },
        {
          "internalType": "uint64",
          "name": "start",
          "type": "uint64"
        },
        {
          "internalType": "uint64",
          "name": "duration",
          "type": "uint64"
        },
        {
          "internalType": "uint64",
          "name": "cliff",
          "type": "uint64"
        }
      ],
      "name": "createVesting",
      "outputs": [
        {
          "internalType": "address",
          "name": "",
          "type": "address"
        }
      ],
      "stateMutability": "nonpayable",
      "type": "function"
    },
    {
      "inputs": [],
      "name": "getCurrentCounter",
      "outputs": [
        {
          "internalType": "uint256",
          "name": "",
          "type": "uint256"
        }
      ],
      "stateMutability": "view",
      "type": "function"
    },
    {
      "inputs": [
        {
          "internalType": "uint256",
          "name": "counterIdx",
          "type": "uint256"
        }
      ],
      "name": "getVestingWallet",
      "outputs": [
        {
          "internalType": "address",
          "name": "",
          "type": "address"
        }
      ],
      "stateMutability": "view",
      "type": "function"
    },
    {
      "inputs": [],
      "name": "owner",
      "outputs": [
        {
          "internalType": "address",
          "name": "",
          "type": "address"
        }
      ],
      "stateMutability": "view",
      "type": "function"
    },
    {
      "inputs": [],
      "name": "renounceOwnership",
      "outputs": [],
      "stateMutability": "nonpayable",
      "type": "function"
    },
    {
      "inputs": [
        {
          "internalType": "address",
          "name": "newOwner",
          "type": "address"
        }
      ],
      "name": "transferOwnership",
      "outputs": [],
      "stateMutability": "nonpayable",
      "type": "function"
    },
    {
      "inputs": [
        {
          "internalType": "uint256",
          "name": "",
          "type": "uint256"
        }
      ],
      "name": "vestingWallets",
      "outputs": [
        {
          "internalType": "address",
          "name": "",
          "type": "address"
        }
      ],
      "stateMutability": "view",
      "type": "function"
    }
  ],
  "bytecode": "0x60a060405234801561001057600080fd5b5061002d61002261008e60201b60201c565b61009660201b60201c565b6040516100399061015a565b604051809103906000f080158015610055573d6000803e3d6000fd5b5073ffffffffffffffffffffffffffffffffffffffff1660808173ffffffffffffffffffffffffffffffffffffffff1681525050610167565b600033905090565b60008060009054906101000a900473ffffffffffffffffffffffffffffffffffffffff169050816000806101000a81548173ffffffffffffffffffffffffffffffffffffffff021916908373ffffffffffffffffffffffffffffffffffffffff1602179055508173ffffffffffffffffffffffffffffffffffffffff168173ffffffffffffffffffffffffffffffffffffffff167f8be0079c531659141344cd1fd0a4f28419497f9722a3daafe3b4186f6b6457e060405160405180910390a35050565b61133480610b9283390190565b608051610a1061018260003960006101b80152610a106000f3fe608060405234801561001057600080fd5b506004361061007d5760003560e01c806373448c461161005b57806373448c46146100ec5780638da5cb5b1461010a578063d36ebd5f14610128578063f2fde38b146101585761007d565b8063170f37db14610082578063323104ad146100b2578063715018a6146100e2575b600080fd5b61009c60048036038101906100979190610636565b610174565b6040516100a991906106a4565b60405180910390f35b6100cc60048036038101906100c7919061072b565b6101a7565b6040516100d991906106a4565b60405180910390f35b6100ea6102c3565b005b6100f46102d7565b60405161010191906107b5565b60405180910390f35b6101126102e8565b60405161011f91906106a4565b60405180910390f35b610142600480360381019061013d9190610636565b610311565b60405161014f91906106a4565b60405180910390f35b610172600480360381019061016d91906107d0565b61034e565b005b60026020528060005260406000206000915054906101000a900473ffffffffffffffffffffffffffffffffffffffff1681565b60006101b16103d2565b60006101dc7f0000000000000000000000000000000000000000000000000000000000000000610450565b90508073ffffffffffffffffffffffffffffffffffffffff16631ae46f6688888888886040518663ffffffff1660e01b815260040161021f95949392919061080c565b600060405180830381600087803b15801561023957600080fd5b505af115801561024d573d6000803e3d6000fd5b505050508060026000610260600161050b565b815260200190815260200160002060006101000a81548173ffffffffffffffffffffffffffffffffffffffff021916908373ffffffffffffffffffffffffffffffffffffffff1602179055506102b66001610519565b8091505095945050505050565b6102cb6103d2565b6102d5600061052f565b565b60006102e3600161050b565b905090565b60008060009054906101000a900473ffffffffffffffffffffffffffffffffffffffff16905090565b60006002600083815260200190815260200160002060009054906101000a900473ffffffffffffffffffffffffffffffffffffffff169050919050565b6103566103d2565b600073ffffffffffffffffffffffffffffffffffffffff168173ffffffffffffffffffffffffffffffffffffffff1614156103c6576040517f08c379a00000000000000000000000000000000000000000000000000000000081526004016103bd906108e2565b60405180910390fd5b6103cf8161052f565b50565b6103da6105f3565b73ffffffffffffffffffffffffffffffffffffffff166103f86102e8565b73ffffffffffffffffffffffffffffffffffffffff161461044e576040517f08c379a00000000000000000000000000000000000000000000000000000000081526004016104459061094e565b60405180910390fd5b565b6000763d602d80600a3d3981f3363d3d373d3d3d363d730000008260601b60e81c176000526e5af43d82803e903d91602b57fd5bf38260781b17602052603760096000f09050600073ffffffffffffffffffffffffffffffffffffffff168173ffffffffffffffffffffffffffffffffffffffff161415610506576040517f08c379a00000000000000000000000000000000000000000000000000000000081526004016104fd906109ba565b60405180910390fd5b919050565b600081600001549050919050565b6001816000016000828254019250508190555050565b60008060009054906101000a900473ffffffffffffffffffffffffffffffffffffffff169050816000806101000a81548173ffffffffffffffffffffffffffffffffffffffff021916908373ffffffffffffffffffffffffffffffffffffffff1602179055508173ffffffffffffffffffffffffffffffffffffffff168173ffffffffffffffffffffffffffffffffffffffff167f8be0079c531659141344cd1fd0a4f28419497f9722a3daafe3b4186f6b6457e060405160405180910390a35050565b600033905090565b600080fd5b6000819050919050565b61061381610600565b811461061e57600080fd5b50565b6000813590506106308161060a565b92915050565b60006020828403121561064c5761064b6105fb565b5b600061065a84828501610621565b91505092915050565b600073ffffffffffffffffffffffffffffffffffffffff82169050919050565b600061068e82610663565b9050919050565b61069e81610683565b82525050565b60006020820190506106b96000830184610695565b92915050565b6106c881610683565b81146106d357600080fd5b50565b6000813590506106e5816106bf565b92915050565b600067ffffffffffffffff82169050919050565b610708816106eb565b811461071357600080fd5b50565b600081359050610725816106ff565b92915050565b600080600080600060a08688031215610747576107466105fb565b5b6000610755888289016106d6565b9550506020610766888289016106d6565b945050604061077788828901610716565b935050606061078888828901610716565b925050608061079988828901610716565b9150509295509295909350565b6107af81610600565b82525050565b60006020820190506107ca60008301846107a6565b92915050565b6000602082840312156107e6576107e56105fb565b5b60006107f4848285016106d6565b91505092915050565b610806816106eb565b82525050565b600060a0820190506108216000830188610695565b61082e6020830187610695565b61083b60408301866107fd565b61084860608301856107fd565b61085560808301846107fd565b9695505050505050565b600082825260208201905092915050565b7f4f776e61626c653a206e6577206f776e657220697320746865207a65726f206160008201527f6464726573730000000000000000000000000000000000000000000000000000602082015250565b60006108cc60268361085f565b91506108d782610870565b604082019050919050565b600060208201905081810360008301526108fb816108bf565b9050919050565b7f4f776e61626c653a2063616c6c6572206973206e6f7420746865206f776e6572600082015250565b600061093860208361085f565b915061094382610902565b602082019050919050565b600060208201905081810360008301526109678161092b565b9050919050565b7f455243313136373a20637265617465206661696c656400000000000000000000600082015250565b60006109a460168361085f565b91506109af8261096e565b602082019050919050565b600060208201905081810360008301526109d381610997565b905091905056fea26469706673582212209f69a523097580808ffb17517a940cfa63608c0791667cc03cf4a55903b89d7064736f6c634300080b0033608060405234801561001057600080fd5b50611314806100206000396000f3fe608060405234801561001057600080fd5b50600436106100885760003560e01c806386d1a69f1161005b57806386d1a69f14610115578063961325211461011f578063be9a65551461013d578063fbccedae1461015b57610088565b80630a17b06b1461008d5780630fb5a6b4146100bd5780631ae46f66146100db57806338af3eed146100f7575b600080fd5b6100a760048036038101906100a29190610acf565b610179565b6040516100b49190610b15565b60405180910390f35b6100c5610239565b6040516100d29190610b15565b60405180910390f35b6100f560048036038101906100f09190610b8e565b610261565b005b6100ff610422565b60405161010c9190610c18565b60405180910390f35b61011d61044c565b005b610127610597565b6040516101349190610b15565b60405180910390f35b610145610600565b6040516101529190610b15565b60405180910390f35b610163610628565b6040516101709190610b15565b60405180910390f35b6000610232610186610597565b600260009054906101000a900473ffffffffffffffffffffffffffffffffffffffff1673ffffffffffffffffffffffffffffffffffffffff166370a08231306040518263ffffffff1660e01b81526004016101e19190610c18565b602060405180830381865afa1580156101fe573d6000803e3d6000fd5b505050506040513d601f19601f820116820180604052508101906102229190610c5f565b61022c9190610cbb565b8361064a565b9050919050565b6000600460009054906101000a900467ffffffffffffffff1667ffffffffffffffff16905090565b600073ffffffffffffffffffffffffffffffffffffffff168473ffffffffffffffffffffffffffffffffffffffff1614156102d1576040517f08c379a00000000000000000000000000000000000000000000000000000000081526004016102c890610d94565b60405180910390fd5b600660009054906101000a900460ff1615610321576040517f08c379a000000000000000000000000000000000000000000000000000000000815260040161031890610e00565b60405180910390fd5b6001600660006101000a81548160ff02191690831515021790555084600260006101000a81548173ffffffffffffffffffffffffffffffffffffffff021916908373ffffffffffffffffffffffffffffffffffffffff16021790555083600360006101000a81548173ffffffffffffffffffffffffffffffffffffffff021916908373ffffffffffffffffffffffffffffffffffffffff16021790555080836103ca9190610e20565b600360146101000a81548167ffffffffffffffff021916908367ffffffffffffffff16021790555081600460006101000a81548167ffffffffffffffff021916908367ffffffffffffffff1602179055505050505050565b6000600360009054906101000a900473ffffffffffffffffffffffffffffffffffffffff16905090565b6000610456610628565b90506005546104636106ec565b1115610594576104716106ec565b6005819055508060016000600260009054906101000a900473ffffffffffffffffffffffffffffffffffffffff1673ffffffffffffffffffffffffffffffffffffffff1673ffffffffffffffffffffffffffffffffffffffff16815260200190815260200160002060008282546104e89190610cbb565b92505081905550600260009054906101000a900473ffffffffffffffffffffffffffffffffffffffff1673ffffffffffffffffffffffffffffffffffffffff167fc0e523490dd523c33b1878c9eb14ff46991e3f5b2cd33710918618f2a39cba1b826040516105579190610b15565b60405180910390a2610593600260009054906101000a900473ffffffffffffffffffffffffffffffffffffffff1661058d610422565b8361071e565b5b50565b600060016000600260009054906101000a900473ffffffffffffffffffffffffffffffffffffffff1673ffffffffffffffffffffffffffffffffffffffff1673ffffffffffffffffffffffffffffffffffffffff16815260200190815260200160002054905090565b6000600360149054906101000a900467ffffffffffffffff1667ffffffffffffffff16905090565b6000610632610597565b61063b42610179565b6106459190610e5e565b905090565b60006106546107a4565b61065c610600565b8267ffffffffffffffff16101561067657600090506106e6565b61067e610239565b610686610600565b6106909190610cbb565b8267ffffffffffffffff1611156106a9578290506106e6565b6106b1610239565b6106b9610600565b8367ffffffffffffffff166106ce9190610e5e565b846106d99190610e92565b6106e39190610f1b565b90505b92915050565b600062278d006106fa610600565b4267ffffffffffffffff1661070f9190610e5e565b6107199190610f1b565b905090565b61079f8363a9059cbb60e01b848460405160240161073d929190610f4c565b604051602081830303815290604052907bffffffffffffffffffffffffffffffffffffffffffffffffffffffff19166020820180517bffffffffffffffffffffffffffffffffffffffffffffffffffffffff83818316178352505050506107f5565b505050565b600660009054906101000a900460ff166107f3576040517f08c379a00000000000000000000000000000000000000000000000000000000081526004016107ea90610fc1565b60405180910390fd5b565b6000610857826040518060400160405280602081526020017f5361666545524332303a206c6f772d6c6576656c2063616c6c206661696c65648152508573ffffffffffffffffffffffffffffffffffffffff166108bc9092919063ffffffff16565b90506000815111156108b757808060200190518101906108779190611019565b6108b6576040517f08c379a00000000000000000000000000000000000000000000000000000000081526004016108ad906110b8565b60405180910390fd5b5b505050565b60606108cb84846000856108d4565b90509392505050565b606082471015610919576040517f08c379a00000000000000000000000000000000000000000000000000000000081526004016109109061114a565b60405180910390fd5b6000808673ffffffffffffffffffffffffffffffffffffffff16858760405161094291906111e4565b60006040518083038185875af1925050503d806000811461097f576040519150601f19603f3d011682016040523d82523d6000602084013e610984565b606091505b5091509150610995878383876109a1565b92505050949350505050565b60608315610a04576000835114156109fc576109bc85610a17565b6109fb576040517f08c379a00000000000000000000000000000000000000000000000000000000081526004016109f290611247565b60405180910390fd5b5b829050610a0f565b610a0e8383610a3a565b5b949350505050565b6000808273ffffffffffffffffffffffffffffffffffffffff163b119050919050565b600082511115610a4d5781518083602001fd5b806040517f08c379a0000000000000000000000000000000000000000000000000000000008152600401610a8191906112bc565b60405180910390fd5b600080fd5b600067ffffffffffffffff82169050919050565b610aac81610a8f565b8114610ab757600080fd5b50565b600081359050610ac981610aa3565b92915050565b600060208284031215610ae557610ae4610a8a565b5b6000610af384828501610aba565b91505092915050565b6000819050919050565b610b0f81610afc565b82525050565b6000602082019050610b2a6000830184610b06565b92915050565b600073ffffffffffffffffffffffffffffffffffffffff82169050919050565b6000610b5b82610b30565b9050919050565b610b6b81610b50565b8114610b7657600080fd5b50565b600081359050610b8881610b62565b92915050565b600080600080600060a08688031215610baa57610ba9610a8a565b5b6000610bb888828901610b79565b9550506020610bc988828901610b79565b9450506040610bda88828901610aba565b9350506060610beb88828901610aba565b9250506080610bfc88828901610aba565b9150509295509295909350565b610c1281610b50565b82525050565b6000602082019050610c2d6000830184610c09565b92915050565b610c3c81610afc565b8114610c4757600080fd5b50565b600081519050610c5981610c33565b92915050565b600060208284031215610c7557610c74610a8a565b5b6000610c8384828501610c4a565b91505092915050565b7f4e487b7100000000000000000000000000000000000000000000000000000000600052601160045260246000fd5b6000610cc682610afc565b9150610cd183610afc565b9250827fffffffffffffffffffffffffffffffffffffffffffffffffffffffffffffffff03821115610d0657610d05610c8c565b5b828201905092915050565b600082825260208201905092915050565b7f56657374696e6757616c6c65743a2062656e6566696369617279206973207a6560008201527f726f206164647265737300000000000000000000000000000000000000000000602082015250565b6000610d7e602a83610d11565b9150610d8982610d22565b604082019050919050565b60006020820190508181036000830152610dad81610d71565b9050919050565b7f496e697469617465640000000000000000000000000000000000000000000000600082015250565b6000610dea600983610d11565b9150610df582610db4565b602082019050919050565b60006020820190508181036000830152610e1981610ddd565b9050919050565b6000610e2b82610a8f565b9150610e3683610a8f565b92508267ffffffffffffffff03821115610e5357610e52610c8c565b5b828201905092915050565b6000610e6982610afc565b9150610e7483610afc565b925082821015610e8757610e86610c8c565b5b828203905092915050565b6000610e9d82610afc565b9150610ea883610afc565b9250817fffffffffffffffffffffffffffffffffffffffffffffffffffffffffffffffff0483118215151615610ee157610ee0610c8c565b5b828202905092915050565b7f4e487b7100000000000000000000000000000000000000000000000000000000600052601260045260246000fd5b6000610f2682610afc565b9150610f3183610afc565b925082610f4157610f40610eec565b5b828204905092915050565b6000604082019050610f616000830185610c09565b610f6e6020830184610b06565b9392505050565b7f4e6f7420696e6974696174656400000000000000000000000000000000000000600082015250565b6000610fab600d83610d11565b9150610fb682610f75565b602082019050919050565b60006020820190508181036000830152610fda81610f9e565b9050919050565b60008115159050919050565b610ff681610fe1565b811461100157600080fd5b50565b60008151905061101381610fed565b92915050565b60006020828403121561102f5761102e610a8a565b5b600061103d84828501611004565b91505092915050565b7f5361666545524332303a204552433230206f7065726174696f6e20646964206e60008201527f6f74207375636365656400000000000000000000000000000000000000000000602082015250565b60006110a2602a83610d11565b91506110ad82611046565b604082019050919050565b600060208201905081810360008301526110d181611095565b9050919050565b7f416464726573733a20696e73756666696369656e742062616c616e636520666f60008201527f722063616c6c0000000000000000000000000000000000000000000000000000602082015250565b6000611134602683610d11565b915061113f826110d8565b604082019050919050565b6000602082019050818103600083015261116381611127565b9050919050565b600081519050919050565b600081905092915050565b60005b8381101561119e578082015181840152602081019050611183565b838111156111ad576000848401525b50505050565b60006111be8261116a565b6111c88185611175565b93506111d8818560208601611180565b80840191505092915050565b60006111f082846111b3565b915081905092915050565b7f416464726573733a2063616c6c20746f206e6f6e2d636f6e7472616374000000600082015250565b6000611231601d83610d11565b915061123c826111fb565b602082019050919050565b6000602082019050818103600083015261126081611224565b9050919050565b600081519050919050565b6000601f19601f8301169050919050565b600061128e82611267565b6112988185610d11565b93506112a8818560208601611180565b6112b181611272565b840191505092915050565b600060208201905081810360008301526112d68184611283565b90509291505056fea2646970667358221220e0430036933bef76b7bd9ac986cad447782b1fbbfeb98aa8ba660f5f67b1c3df64736f6c634300080b0033",
  "linkReferences": {},
  "deployedLinkReferences": {}
}