{"contracts/TalaxToken.sol":{"TalaxToken":{"abi":[{"inputs":[],"stateMutability":"nonpayable","type":"constructor"},{"anonymous":false,"inputs":[{"indexed":true,"internalType":"address","name":"from","type":"address"},{"components":[{"internalType":"address","name":"user","type":"address"},{"internalType":"uint256","name":"amount","type":"uint256"}],"indexed":false,"internalType":"struct TalaxToken.Beneficiary[]","name":"beneficiary","type":"tuple[]"}],"name":"AddPrivateSale","type":"event"},{"anonymous":false,"inputs":[{"indexed":true,"internalType":"address","name":"owner","type":"address"},{"indexed":true,"internalType":"address","name":"spender","type":"address"},{"indexed":false,"internalType":"uint256","name":"value","type":"uint256"}],"name":"Approval","type":"event"},{"anonymous":false,"inputs":[{"indexed":true,"internalType":"address","name":"from","type":"address"},{"indexed":false,"internalType":"uint256","name":"amount","type":"uint256"}],"name":"ChangePenaltyFee","type":"event"},{"anonymous":false,"inputs":[{"indexed":true,"internalType":"address","name":"to","type":"address"}],"name":"ChangePrivatePlacementAddress","type":"event"},{"anonymous":false,"inputs":[{"indexed":false,"internalType":"address","name":"from","type":"address"},{"indexed":true,"internalType":"address","name":"to1","type":"address"},{"indexed":true,"internalType":"address","name":"to2","type":"address"},{"indexed":true,"internalType":"address","name":"to3","type":"address"}],"name":"ChangeStrategicPartnerAddress","type":"event"},{"anonymous":false,"inputs":[{"indexed":true,"internalType":"address","name":"who","type":"address"},{"indexed":false,"internalType":"uint256","name":"amount","type":"uint256"}],"name":"ChangeTax","type":"event"},{"anonymous":false,"inputs":[{"indexed":true,"internalType":"address","name":"from","type":"address"},{"indexed":false,"internalType":"address[]","name":"beneficiary","type":"address[]"}],"name":"DeletePrivateSale","type":"event"},{"anonymous":false,"inputs":[{"indexed":true,"internalType":"address","name":"from","type":"address"}],"name":"InitiateLockedWallet","type":"event"},{"anonymous":false,"inputs":[{"indexed":true,"internalType":"address","name":"from","type":"address"}],"name":"InitiatePrivateSale","type":"event"},{"anonymous":false,"inputs":[{"indexed":true,"internalType":"address","name":"previousOwner","type":"address"},{"indexed":true,"internalType":"address","name":"newOwner","type":"address"}],"name":"OwnershipTransferred","type":"event"},{"anonymous":false,"inputs":[{"indexed":true,"internalType":"address","name":"from","type":"address"},{"indexed":true,"internalType":"address","name":"to","type":"address"},{"indexed":false,"internalType":"uint256","name":"value","type":"uint256"}],"name":"Transfer","type":"event"},{"anonymous":false,"inputs":[{"indexed":true,"internalType":"address","name":"from","type":"address"},{"indexed":true,"internalType":"address","name":"to","type":"address"},{"indexed":false,"internalType":"uint256","name":"amount","type":"uint256"}],"name":"TransferDAOPool","type":"event"},{"anonymous":false,"inputs":[{"indexed":true,"internalType":"address","name":"from","type":"address"},{"indexed":true,"internalType":"address","name":"to","type":"address"},{"indexed":false,"internalType":"uint256","name":"amount","type":"uint256"}],"name":"TransferStakingReward","type":"event"},{"stateMutability":"payable","type":"fallback"},{"inputs":[{"components":[{"internalType":"address","name":"user","type":"address"},{"internalType":"uint256","name":"amount","type":"uint256"}],"internalType":"struct TalaxToken.Beneficiary[]","name":"benefs","type":"tuple[]"}],"name":"addMultipleBeneficiary","outputs":[],"stateMutability":"nonpayable","type":"function"},{"inputs":[{"internalType":"address","name":"owner","type":"address"},{"internalType":"address","name":"spender","type":"address"}],"name":"allowance","outputs":[{"internalType":"uint256","name":"","type":"uint256"}],"stateMutability":"view","type":"function"},{"inputs":[{"internalType":"address","name":"spender","type":"address"},{"internalType":"uint256","name":"amount","type":"uint256"}],"name":"approve","outputs":[{"internalType":"bool","name":"","type":"bool"}],"stateMutability":"nonpayable","type":"function"},{"inputs":[{"internalType":"address","name":"account","type":"address"}],"name":"balanceOf","outputs":[{"internalType":"uint256","name":"","type":"uint256"}],"stateMutability":"view","type":"function"},{"inputs":[{"internalType":"uint256","name":"amount","type":"uint256"}],"name":"burn","outputs":[],"stateMutability":"nonpayable","type":"function"},{"inputs":[{"internalType":"address","name":"account","type":"address"},{"internalType":"uint256","name":"amount","type":"uint256"}],"name":"burnFrom","outputs":[],"stateMutability":"nonpayable","type":"function"},{"inputs":[{"internalType":"uint256","name":"amount_","type":"uint256"}],"name":"burnLiquidityReserve","outputs":[],"stateMutability":"nonpayable","type":"function"},{"inputs":[{"internalType":"address","name":"_input","type":"address"}],"name":"changePrivatePlacementAddress","outputs":[],"stateMutability":"nonpayable","type":"function"},{"inputs":[{"internalType":"address","name":"address1","type":"address"},{"internalType":"address","name":"address2","type":"address"},{"internalType":"address","name":"address3","type":"address"}],"name":"changeStrategicPartnerAddress","outputs":[],"stateMutability":"nonpayable","type":"function"},{"inputs":[{"internalType":"uint8","name":"taxFee_","type":"uint8"}],"name":"changeTaxFee","outputs":[],"stateMutability":"nonpayable","type":"function"},{"inputs":[],"name":"claimPrivateSale","outputs":[],"stateMutability":"nonpayable","type":"function"},{"inputs":[],"name":"daoProjectPool","outputs":[{"internalType":"uint256","name":"","type":"uint256"}],"stateMutability":"view","type":"function"},{"inputs":[],"name":"decimals","outputs":[{"internalType":"uint8","name":"","type":"uint8"}],"stateMutability":"view","type":"function"},{"inputs":[{"internalType":"address","name":"spender","type":"address"},{"internalType":"uint256","name":"subtractedValue","type":"uint256"}],"name":"decreaseAllowance","outputs":[{"internalType":"bool","name":"","type":"bool"}],"stateMutability":"nonpayable","type":"function"},{"inputs":[{"internalType":"address[]","name":"benefs","type":"address[]"}],"name":"deleteMultipleBeneficiary","outputs":[],"stateMutability":"nonpayable","type":"function"},{"inputs":[],"name":"hasMultilockable","outputs":[{"components":[{"internalType":"uint256","name":"lockedAmount","type":"uint256"},{"internalType":"uint256","name":"amount","type":"uint256"},{"internalType":"bool","name":"isPhase1Claimed","type":"bool"},{"internalType":"uint256","name":"latestClaimDay","type":"uint256"}],"internalType":"struct Whitelist.Multilock","name":"","type":"tuple"}],"stateMutability":"view","type":"function"},{"inputs":[{"internalType":"address","name":"spender","type":"address"},{"internalType":"uint256","name":"addedValue","type":"uint256"}],"name":"increaseAllowance","outputs":[{"internalType":"bool","name":"","type":"bool"}],"stateMutability":"nonpayable","type":"function"},{"inputs":[],"name":"initializationStatus","outputs":[{"internalType":"bool","name":"","type":"bool"}],"stateMutability":"view","type":"function"},{"inputs":[],"name":"initiateLockedWallet_PrivateSale_Airdrop","outputs":[],"stateMutability":"nonpayable","type":"function"},{"inputs":[{"internalType":"address","name":"to","type":"address"},{"internalType":"uint256","name":"amount","type":"uint256"}],"name":"mint","outputs":[],"stateMutability":"nonpayable","type":"function"},{"inputs":[{"internalType":"uint256","name":"amount_","type":"uint256"}],"name":"mintLiquidityReserve","outputs":[],"stateMutability":"nonpayable","type":"function"},{"inputs":[],"name":"name","outputs":[{"internalType":"string","name":"","type":"string"}],"stateMutability":"view","type":"function"},{"inputs":[],"name":"owner","outputs":[{"internalType":"address","name":"","type":"address"}],"stateMutability":"view","type":"function"},{"inputs":[],"name":"privateSaleAmount","outputs":[{"internalType":"uint256","name":"","type":"uint256"}],"stateMutability":"view","type":"function"},{"inputs":[],"name":"privateSaleUsers","outputs":[{"internalType":"uint256","name":"","type":"uint256"}],"stateMutability":"view","type":"function"},{"inputs":[],"name":"private_placement_address","outputs":[{"internalType":"address","name":"","type":"address"}],"stateMutability":"view","type":"function"},{"inputs":[],"name":"renounceOwnership","outputs":[],"stateMutability":"nonpayable","type":"function"},{"inputs":[],"name":"startPrivateSale","outputs":[{"internalType":"uint256","name":"","type":"uint256"}],"stateMutability":"view","type":"function"},{"inputs":[],"name":"strategic_partner_address_1","outputs":[{"internalType":"address","name":"","type":"address"}],"stateMutability":"view","type":"function"},{"inputs":[],"name":"strategic_partner_address_2","outputs":[{"internalType":"address","name":"","type":"address"}],"stateMutability":"view","type":"function"},{"inputs":[],"name":"strategic_partner_address_3","outputs":[{"internalType":"address","name":"","type":"address"}],"stateMutability":"view","type":"function"},{"inputs":[],"name":"symbol","outputs":[{"internalType":"string","name":"","type":"string"}],"stateMutability":"view","type":"function"},{"inputs":[],"name":"taxFee","outputs":[{"internalType":"uint8","name":"","type":"uint8"}],"stateMutability":"view","type":"function"},{"inputs":[],"name":"timelockController","outputs":[{"internalType":"address","name":"","type":"address"}],"stateMutability":"view","type":"function"},{"inputs":[],"name":"totalSupply","outputs":[{"internalType":"uint256","name":"","type":"uint256"}],"stateMutability":"view","type":"function"},{"inputs":[{"internalType":"address","name":"to","type":"address"},{"internalType":"uint256","name":"amount","type":"uint256"}],"name":"transfer","outputs":[{"internalType":"bool","name":"","type":"bool"}],"stateMutability":"nonpayable","type":"function"},{"inputs":[{"internalType":"address","name":"from","type":"address"},{"internalType":"address","name":"to","type":"address"},{"internalType":"uint256","name":"amount","type":"uint256"}],"name":"transferFrom","outputs":[{"internalType":"bool","name":"","type":"bool"}],"stateMutability":"nonpayable","type":"function"},{"inputs":[{"internalType":"address","name":"newOwner","type":"address"}],"name":"transferOwnership","outputs":[],"stateMutability":"nonpayable","type":"function"},{"inputs":[],"name":"unlockMarketingWallet_1","outputs":[],"stateMutability":"nonpayable","type":"function"},{"inputs":[],"name":"unlockMarketingWallet_2","outputs":[],"stateMutability":"nonpayable","type":"function"},{"inputs":[],"name":"unlockMarketingWallet_3","outputs":[],"stateMutability":"nonpayable","type":"function"},{"inputs":[],"name":"unlockPrivatePlacementWallet","outputs":[],"stateMutability":"nonpayable","type":"function"},{"inputs":[],"name":"unlockStrategicPartnerWallet_1","outputs":[],"stateMutability":"nonpayable","type":"function"},{"inputs":[],"name":"unlockStrategicPartnerWallet_2","outputs":[],"stateMutability":"nonpayable","type":"function"},{"inputs":[],"name":"unlockStrategicPartnerWallet_3","outputs":[],"stateMutability":"nonpayable","type":"function"},{"inputs":[],"name":"unlockTeamAndProjectCoordinatorWallet_1","outputs":[],"stateMutability":"nonpayable","type":"function"},{"inputs":[],"name":"unlockTeamAndProjectCoordinatorWallet_2","outputs":[],"stateMutability":"nonpayable","type":"function"},{"inputs":[],"name":"unlockTeamAndProjectCoordinatorWallet_3","outputs":[],"stateMutability":"nonpayable","type":"function"},{"stateMutability":"payable","type":"receive"}],"evm":{"bytecode":{"linkReferences":{},"object":"60806040523480156200001157600080fd5b506040518060400160405280600881526020017f54414c415845554d0000000000000000000000000000000000000000000000008152506040518060400160405280600581526020017f54414c415800000000000000000000000000000000000000000000000000000081525081600390805190602001906200009692919062000c14565b508060049080519060200190620000af92919062000c14565b505050620000d2620000c662000aee60201b60201c565b62000af660201b60201c565b6b04be37ea7317415c458000006007819055506b43dacaf91c1a84ff08000000600c819055506040518060400160405280600881526020017f54414c415845554d000000000000000000000000000000000000000000000000815250600d90805190602001906200014592919062000c14565b506040518060400160405280600581526020017f54414c4158000000000000000000000000000000000000000000000000000000815250600e90805190602001906200019392919062000c14565b506001601060006101000a81548160ff021916908360ff1602179055507307a20dc6722563783e44ba8edca08c774621125e601260006101000a81548173ffffffffffffffffffffffffffffffffffffffff021916908373ffffffffffffffffffffffffffffffffffffffff160217905550732f838cf0df38b2e91e747a01ddae5ebad5558b7a601360006101000a81548173ffffffffffffffffffffffffffffffffffffffff021916908373ffffffffffffffffffffffffffffffffffffffff1602179055507345094071c4daaf6a9a73b0a0f095a2b138bd8a3a601460006101000a81548173ffffffffffffffffffffffffffffffffffffffff021916908373ffffffffffffffffffffffffffffffffffffffff16021790555073aeb26fb84d0e2b3b353cd50f0a29fd40c916d2ab601560006101000a81548173ffffffffffffffffffffffffffffffffffffffff021916908373ffffffffffffffffffffffffffffffffffffffff1602179055506b01484ed81cebeb37b6800000600a6000735470c8ff25ec05980fc7c2967d076b8012298fe773ffffffffffffffffffffffffffffffffffffffff1673ffffffffffffffffffffffffffffffffffffffff168152602001908152602001600020819055506b03648a260e3486a65a000000600a6000601060029054906101000a900473ffffffffffffffffffffffffffffffffffffffff1673ffffffffffffffffffffffffffffffffffffffff1673ffffffffffffffffffffffffffffffffffffffff168152602001908152602001600020819055506b0d92289838d21a9968000000600f819055506b0d92289838d21a9968000000600a60003073ffffffffffffffffffffffffffffffffffffffff1673ffffffffffffffffffffffffffffffffffffffff168152602001908152602001600020819055506b02427288f60130b77e800000601260009054906101000a900473ffffffffffffffffffffffffffffffffffffffff166040516200047b9062000ca5565b6200048892919062000d6e565b604051809103906000f080158015620004a5573d6000803e3d6000fd5b50601660006101000a81548173ffffffffffffffffffffffffffffffffffffffff021916908373ffffffffffffffffffffffffffffffffffffffff1602179055506b024306c4097859c43c00000073f09f65dd4d229e991901669ad7c7549f060e30b9604051620005169062000ca5565b6200052392919062000dde565b604051809103906000f08015801562000540573d6000803e3d6000fd5b50601760006101000a81548173ffffffffffffffffffffffffffffffffffffffff021916908373ffffffffffffffffffffffffffffffffffffffff1602179055506b024306c4097859c43c000000731a2118e056d6af192e233c2c9cfb34e067ded1f8604051620005b19062000ca5565b620005be92919062000dde565b604051809103906000f080158015620005db573d6000803e3d6000fd5b50601860006101000a81548173ffffffffffffffffffffffffffffffffffffffff021916908373ffffffffffffffffffffffffffffffffffffffff1602179055506b024306c4097859c43c00000073126974fa373267d86fab6d6871afe62ccb68e8106040516200064c9062000ca5565b6200065992919062000dde565b604051809103906000f08015801562000676573d6000803e3d6000fd5b50601960006101000a81548173ffffffffffffffffffffffffffffffffffffffff021916908373ffffffffffffffffffffffffffffffffffffffff1602179055506b024306c4097859c43c000000601360009054906101000a900473ffffffffffffffffffffffffffffffffffffffff16604051620006f59062000ca5565b6200070292919062000dde565b604051809103906000f0801580156200071f573d6000803e3d6000fd5b50601a60006101000a81548173ffffffffffffffffffffffffffffffffffffffff021916908373ffffffffffffffffffffffffffffffffffffffff1602179055506b024306c4097859c43c000000601460009054906101000a900473ffffffffffffffffffffffffffffffffffffffff166040516200079e9062000ca5565b620007ab92919062000dde565b604051809103906000f080158015620007c8573d6000803e3d6000fd5b50601b60006101000a81548173ffffffffffffffffffffffffffffffffffffffff021916908373ffffffffffffffffffffffffffffffffffffffff1602179055506b024306c4097859c43c000000601560009054906101000a900473ffffffffffffffffffffffffffffffffffffffff16604051620008479062000ca5565b6200085492919062000dde565b604051809103906000f08015801562000871573d6000803e3d6000fd5b50601c60006101000a81548173ffffffffffffffffffffffffffffffffffffffff021916908373ffffffffffffffffffffffffffffffffffffffff1602179055506b024306c4097859c43c00000073e61e7a7d16db384433e532fb85724e7f3bdaae2f604051620008e29062000ca5565b620008ef92919062000dde565b604051809103906000f0801580156200090c573d6000803e3d6000fd5b50601d60006101000a81548173ffffffffffffffffffffffffffffffffffffffff021916908373ffffffffffffffffffffffffffffffffffffffff1602179055506b024306c4097859c43c00000073406605eb24a97a2d61b516d8d850f2aefa6a731a6040516200097d9062000ca5565b6200098a92919062000dde565b604051809103906000f080158015620009a7573d6000803e3d6000fd5b50601e60006101000a81548173ffffffffffffffffffffffffffffffffffffffff021916908373ffffffffffffffffffffffffffffffffffffffff1602179055506b024306c4097859c43c0000007397620deadc98bc8173303686037ce7b986cf53c360405162000a189062000ca5565b62000a2592919062000dde565b604051809103906000f08015801562000a42573d6000803e3d6000fd5b50601f60006101000a81548173ffffffffffffffffffffffffffffffffffffffff021916908373ffffffffffffffffffffffffffffffffffffffff16021790555062000ae26b2d9ae8ee22462671588000006040518060400160405280601981526020017f496e73756666696369656e7420546f74616c20537570706c7900000000000000815250600c5462000bbc60201b620033a3179092919060201c565b600c8190555062000f38565b600033905090565b6000600560009054906101000a900473ffffffffffffffffffffffffffffffffffffffff16905081600560006101000a81548173ffffffffffffffffffffffffffffffffffffffff021916908373ffffffffffffffffffffffffffffffffffffffff1602179055508173ffffffffffffffffffffffffffffffffffffffff168173ffffffffffffffffffffffffffffffffffffffff167f8be0079c531659141344cd1fd0a4f28419497f9722a3daafe3b4186f6b6457e060405160405180910390a35050565b600083831115829062000c07576040517f08c379a000000000000000000000000000000000000000000000000000000000815260040162000bfe919062000eaf565b60405180910390fd5b5082840390509392505050565b82805462000c229062000f02565b90600052602060002090601f01602090048101928262000c46576000855562000c92565b82601f1062000c6157805160ff191683800117855562000c92565b8280016001018555821562000c92579182015b8281111562000c9157825182559160200191906001019062000c74565b5b50905062000ca1919062000cb3565b5090565b610a29806200815583390190565b5b8082111562000cce57600081600090555060010162000cb4565b5090565b6000819050919050565b6000819050919050565b6000819050919050565b600062000d1162000d0b62000d058462000cd2565b62000ce6565b62000cdc565b9050919050565b62000d238162000cf0565b82525050565b600073ffffffffffffffffffffffffffffffffffffffff82169050919050565b600062000d568262000d29565b9050919050565b62000d688162000d49565b82525050565b600060408201905062000d85600083018562000d18565b62000d94602083018462000d5d565b9392505050565b6000819050919050565b600062000dc662000dc062000dba8462000d9b565b62000ce6565b62000cdc565b9050919050565b62000dd88162000da5565b82525050565b600060408201905062000df5600083018562000dcd565b62000e04602083018462000d5d565b9392505050565b600081519050919050565b600082825260208201905092915050565b60005b8381101562000e4757808201518184015260208101905062000e2a565b8381111562000e57576000848401525b50505050565b6000601f19601f8301169050919050565b600062000e7b8262000e0b565b62000e87818562000e16565b935062000e9981856020860162000e27565b62000ea48162000e5d565b840191505092915050565b6000602082019050818103600083015262000ecb818462000e6e565b905092915050565b7f4e487b7100000000000000000000000000000000000000000000000000000000600052602260045260246000fd5b6000600282049050600182168062000f1b57607f821691505b6020821081141562000f325762000f3162000ed3565b5b50919050565b61720d8062000f486000396000f3fe6080604052600436106102975760003560e01c80638378a8751161015a578063a457c2d7116100c1578063c680111c1161007a578063c680111c14610916578063d94d4ad614610941578063d9dc2d8d1461096a578063dd62ed3e14610995578063f2fde38b146109d2578063f3388e75146109fb576102a7565b8063a457c2d714610804578063a837a65e14610841578063a9059cbb1461086c578063ac67574f146108a9578063b8dd0099146108c0578063bad4346c146108eb576102a7565b8063934851ec11610113578063934851ec1461071a57806395d89b4114610731578063a071dcf41461075c578063a1f780cf14610787578063a25a17a7146107b0578063a3626dbb146107d9576102a7565b80638378a87514610656578063883d99841461066d5780638b2b423a146106845780638b7c64da146106af5780638da5cb5b146106d857806390a4c70914610703576102a7565b806340c10f19116101fe57806370a08231116101b757806370a0823114610594578063715018a6146105d157806378dc9315146105e857806379cc6790146105ff5780637bb4e320146106285780637c2412f91461063f576102a7565b806340c10f19146104ae57806342966c68146104d757806345df023814610500578063471a30a214610529578063549dee0b14610552578063560291371461057d576102a7565b806319ca147d1161025057806319ca147d1461039c57806323b872dd146103c7578063313ce56714610404578063338dbf591461042f578063395093511461045a5780633f3ef2dc14610497576102a7565b806306fdde03146102b2578063078f522f146102dd578063095ea7b3146103065780630ec5aa1a1461034357806315441bb91461035a57806318160ddd14610371576102a7565b366102a7576102a534610a26565b005b6102b034610a26565b005b3480156102be57600080fd5b506102c7610c70565b6040516102d49190615b66565b60405180910390f35b3480156102e957600080fd5b5061030460048036038101906102ff9190615bf7565b610d02565b005b34801561031257600080fd5b5061032d60048036038101906103289190615cd8565b610e40565b60405161033a9190615d33565b60405180910390f35b34801561034f57600080fd5b50610358610e63565b005b34801561036657600080fd5b5061036f611055565b005b34801561037d57600080fd5b50610386611247565b6040516103939190615d5d565b60405180910390f35b3480156103a857600080fd5b506103b1611251565b6040516103be9190615deb565b60405180910390f35b3480156103d357600080fd5b506103ee60048036038101906103e99190615e06565b6112e1565b6040516103fb9190615d33565b60405180910390f35b34801561041057600080fd5b50610419611310565b6040516104269190615e75565b60405180910390f35b34801561043b57600080fd5b50610444611319565b6040516104519190615d5d565b60405180910390f35b34801561046657600080fd5b50610481600480360381019061047c9190615cd8565b61131f565b60405161048e9190615d33565b60405180910390f35b3480156104a357600080fd5b506104ac611356565b005b3480156104ba57600080fd5b506104d560048036038101906104d09190615cd8565b611548565b005b3480156104e357600080fd5b506104fe60048036038101906104f99190615e90565b61155e565b005b34801561050c57600080fd5b5061052760048036038101906105229190615ebd565b611572565b005b34801561053557600080fd5b50610550600480360381019061054b9190615f3c565b6116be565b005b34801561055e57600080fd5b5061056761177f565b6040516105749190615d5d565b60405180910390f35b34801561058957600080fd5b50610592611785565b005b3480156105a057600080fd5b506105bb60048036038101906105b69190615f69565b611977565b6040516105c89190615d5d565b60405180910390f35b3480156105dd57600080fd5b506105e66119c0565b005b3480156105f457600080fd5b506105fd6119d4565b005b34801561060b57600080fd5b5061062660048036038101906106219190615cd8565b611bc6565b005b34801561063457600080fd5b5061063d611be6565b005b34801561064b57600080fd5b50610654611dd8565b005b34801561066257600080fd5b5061066b611e94565b005b34801561067957600080fd5b50610682612086565b005b34801561069057600080fd5b50610699612278565b6040516106a69190615d5d565b60405180910390f35b3480156106bb57600080fd5b506106d660048036038101906106d19190615e90565b61227e565b005b3480156106e457600080fd5b506106ed61239f565b6040516106fa9190615fa5565b60405180910390f35b34801561070f57600080fd5b506107186123c9565b005b34801561072657600080fd5b5061072f6125bb565b005b34801561073d57600080fd5b506107466127ad565b6040516107539190615b66565b60405180910390f35b34801561076857600080fd5b5061077161283f565b60405161077e9190615e75565b60405180910390f35b34801561079357600080fd5b506107ae60048036038101906107a99190616016565b612852565b005b3480156107bc57600080fd5b506107d760048036038101906107d29190615f69565b61294c565b005b3480156107e557600080fd5b506107ee6129db565b6040516107fb9190615fa5565b60405180910390f35b34801561081057600080fd5b5061082b60048036038101906108269190615cd8565b612a01565b6040516108389190615d33565b60405180910390f35b34801561084d57600080fd5b50610856612a78565b6040516108639190615fa5565b60405180910390f35b34801561087857600080fd5b50610893600480360381019061088e9190615cd8565b612a9e565b6040516108a09190615d33565b60405180910390f35b3480156108b557600080fd5b506108be612ac1565b005b3480156108cc57600080fd5b506108d56130ec565b6040516108e29190615d33565b60405180910390f35b3480156108f757600080fd5b506109006130ff565b60405161090d9190615d5d565b60405180910390f35b34801561092257600080fd5b5061092b613105565b6040516109389190615fa5565b60405180910390f35b34801561094d57600080fd5b5061096860048036038101906109639190615e90565b61312b565b005b34801561097657600080fd5b5061097f61324c565b60405161098c9190615fa5565b60405180910390f35b3480156109a157600080fd5b506109bc60048036038101906109b79190616063565b613272565b6040516109c99190615d5d565b60405180910390f35b3480156109de57600080fd5b506109f960048036038101906109f49190615f69565b6132f9565b005b348015610a0757600080fd5b50610a1061337d565b604051610a1d9190615fa5565b60405180910390f35b6000610a338260036133f8565b9050610a9b81600a600073e61e7a7d16db384433e532fb85724e7f3bdaae2f73ffffffffffffffffffffffffffffffffffffffff1673ffffffffffffffffffffffffffffffffffffffff1681526020019081526020016000205461340e90919063ffffffff16565b600a600073e61e7a7d16db384433e532fb85724e7f3bdaae2f73ffffffffffffffffffffffffffffffffffffffff1673ffffffffffffffffffffffffffffffffffffffff16815260200190815260200160002081905550610b5881600a600073406605eb24a97a2d61b516d8d850f2aefa6a731a73ffffffffffffffffffffffffffffffffffffffff1673ffffffffffffffffffffffffffffffffffffffff1681526020019081526020016000205461340e90919063ffffffff16565b600a600073406605eb24a97a2d61b516d8d850f2aefa6a731a73ffffffffffffffffffffffffffffffffffffffff1673ffffffffffffffffffffffffffffffffffffffff16815260200190815260200160002081905550610c1581600a60007397620deadc98bc8173303686037ce7b986cf53c373ffffffffffffffffffffffffffffffffffffffff1673ffffffffffffffffffffffffffffffffffffffff1681526020019081526020016000205461340e90919063ffffffff16565b600a60007397620deadc98bc8173303686037ce7b986cf53c373ffffffffffffffffffffffffffffffffffffffff1673ffffffffffffffffffffffffffffffffffffffff168152602001908152602001600020819055505050565b6060600d8054610c7f906160d2565b80601f0160208091040260200160405190810160405280929190818152602001828054610cab906160d2565b8015610cf85780601f10610ccd57610100808354040283529160200191610cf8565b820191906000526020600020905b815481529060010190602001808311610cdb57829003601f168201915b5050505050905090565b610d0a613424565b610d126134a2565b60008282905011610d58576040517f08c379a0000000000000000000000000000000000000000000000000000000008152600401610d4f90616150565b60405180910390fd5b60005b82829050811015610deb57610d8b838383818110610d7c57610d7b616170565b5b905060400201602001356134fa565b610ddb838383818110610da157610da0616170565b5b9050604002016000016020810190610db99190615f69565b848484818110610dcc57610dcb616170565b5b90506040020160200135613549565b610de48161377b565b9050610d5b565b503373ffffffffffffffffffffffffffffffffffffffff167fa3ac771ef05882e507467c1324069747d28d62938523056fd1bdd1168fe6144a8383604051610e349291906162c3565b60405180910390a25050565b600080610e4b613788565b9050610e58818585613790565b600191505092915050565b610e6b6134a2565b601960009054906101000a900473ffffffffffffffffffffffffffffffffffffffff1673ffffffffffffffffffffffffffffffffffffffff166338af3eed6040518163ffffffff1660e01b8152600401602060405180830381865afa158015610ed8573d6000803e3d6000fd5b505050506040513d601f19601f82011682018060405250810190610efc91906162fc565b610f058161395b565b6000601960009054906101000a900473ffffffffffffffffffffffffffffffffffffffff1673ffffffffffffffffffffffffffffffffffffffff16630a95606e610f4d6139d3565b6040518263ffffffff1660e01b8152600401610f6991906163c5565b6020604051808303816000875af1158015610f88573d6000803e3d6000fd5b505050506040513d601f19601f82011682018060405250810190610fac91906163f6565b905061100781600a6000610fbe613788565b73ffffffffffffffffffffffffffffffffffffffff1673ffffffffffffffffffffffffffffffffffffffff1681526020019081526020016000205461340e90919063ffffffff16565b600a6000611013613788565b73ffffffffffffffffffffffffffffffffffffffff1673ffffffffffffffffffffffffffffffffffffffff168152602001908152602001600020819055505050565b61105d6134a2565b601b60009054906101000a900473ffffffffffffffffffffffffffffffffffffffff1673ffffffffffffffffffffffffffffffffffffffff166338af3eed6040518163ffffffff1660e01b8152600401602060405180830381865afa1580156110ca573d6000803e3d6000fd5b505050506040513d601f19601f820116820180604052508101906110ee91906162fc565b6110f78161395b565b6000601b60009054906101000a900473ffffffffffffffffffffffffffffffffffffffff1673ffffffffffffffffffffffffffffffffffffffff16630a95606e61113f613e1f565b6040518263ffffffff1660e01b815260040161115b91906163c5565b6020604051808303816000875af115801561117a573d6000803e3d6000fd5b505050506040513d601f19601f8201168201806040525081019061119e91906163f6565b90506111f981600a60006111b0613788565b73ffffffffffffffffffffffffffffffffffffffff1673ffffffffffffffffffffffffffffffffffffffff1681526020019081526020016000205461340e90919063ffffffff16565b600a6000611205613788565b73ffffffffffffffffffffffffffffffffffffffff1673ffffffffffffffffffffffffffffffffffffffff168152602001908152602001600020819055505050565b6000600c54905090565b611259615a80565b600960003373ffffffffffffffffffffffffffffffffffffffff1673ffffffffffffffffffffffffffffffffffffffff16815260200190815260200160002060405180608001604052908160008201548152602001600182015481526020016002820160009054906101000a900460ff16151515158152602001600382015481525050905090565b6000806112ec613788565b90506112f985828561427d565b611304858585614309565b60019150509392505050565b60006012905090565b60085481565b60008061132a613788565b905061134b81858561133c8589613272565b6113469190616452565b613790565b600191505092915050565b61135e6134a2565b601f60009054906101000a900473ffffffffffffffffffffffffffffffffffffffff1673ffffffffffffffffffffffffffffffffffffffff166338af3eed6040518163ffffffff1660e01b8152600401602060405180830381865afa1580156113cb573d6000803e3d6000fd5b505050506040513d601f19601f820116820180604052508101906113ef91906162fc565b6113f88161395b565b6000601f60009054906101000a900473ffffffffffffffffffffffffffffffffffffffff1673ffffffffffffffffffffffffffffffffffffffff16630a95606e6114406146cd565b6040518263ffffffff1660e01b815260040161145c91906163c5565b6020604051808303816000875af115801561147b573d6000803e3d6000fd5b505050506040513d601f19601f8201168201806040525081019061149f91906163f6565b90506114fa81600a60006114b1613788565b73ffffffffffffffffffffffffffffffffffffffff1673ffffffffffffffffffffffffffffffffffffffff1681526020019081526020016000205461340e90919063ffffffff16565b600a6000611506613788565b73ffffffffffffffffffffffffffffffffffffffff1673ffffffffffffffffffffffffffffffffffffffff168152602001908152602001600020819055505050565b611550613424565b61155a8282614b2d565b5050565b61156f611569613788565b82614c8d565b50565b61157a613424565b82601360006101000a81548173ffffffffffffffffffffffffffffffffffffffff021916908373ffffffffffffffffffffffffffffffffffffffff16021790555081601460006101000a81548173ffffffffffffffffffffffffffffffffffffffff021916908373ffffffffffffffffffffffffffffffffffffffff16021790555080601560006101000a81548173ffffffffffffffffffffffffffffffffffffffff021916908373ffffffffffffffffffffffffffffffffffffffff1602179055508073ffffffffffffffffffffffffffffffffffffffff168273ffffffffffffffffffffffffffffffffffffffff168473ffffffffffffffffffffffffffffffffffffffff167f1b2f4c5680152b0503b3df404995849c1844abfb6fcf502936b60002fe2f4d9c336040516116b19190615fa5565b60405180910390a4505050565b6116c6613424565b60058160ff161061170c576040517f08c379a0000000000000000000000000000000000000000000000000000000008152600401611703906164f4565b60405180910390fd5b80601060006101000a81548160ff021916908360ff16021790555061172f613788565b73ffffffffffffffffffffffffffffffffffffffff167fdf92943b31fff67e8447ff9fa8b5e226ddcc5fb34d36cfe120c0f2b96eb8d6f782604051611774919061654f565b60405180910390a250565b60065481565b61178d6134a2565b601d60009054906101000a900473ffffffffffffffffffffffffffffffffffffffff1673ffffffffffffffffffffffffffffffffffffffff166338af3eed6040518163ffffffff1660e01b8152600401602060405180830381865afa1580156117fa573d6000803e3d6000fd5b505050506040513d601f19601f8201168201806040525081019061181e91906162fc565b6118278161395b565b6000601d60009054906101000a900473ffffffffffffffffffffffffffffffffffffffff1673ffffffffffffffffffffffffffffffffffffffff16630a95606e61186f6146cd565b6040518263ffffffff1660e01b815260040161188b91906163c5565b6020604051808303816000875af11580156118aa573d6000803e3d6000fd5b505050506040513d601f19601f820116820180604052508101906118ce91906163f6565b905061192981600a60006118e0613788565b73ffffffffffffffffffffffffffffffffffffffff1673ffffffffffffffffffffffffffffffffffffffff1681526020019081526020016000205461340e90919063ffffffff16565b600a6000611935613788565b73ffffffffffffffffffffffffffffffffffffffff1673ffffffffffffffffffffffffffffffffffffffff168152602001908152602001600020819055505050565b6000600a60008373ffffffffffffffffffffffffffffffffffffffff1673ffffffffffffffffffffffffffffffffffffffff168152602001908152602001600020549050919050565b6119c8613424565b6119d26000614e5a565b565b6119dc6134a2565b601760009054906101000a900473ffffffffffffffffffffffffffffffffffffffff1673ffffffffffffffffffffffffffffffffffffffff166338af3eed6040518163ffffffff1660e01b8152600401602060405180830381865afa158015611a49573d6000803e3d6000fd5b505050506040513d601f19601f82011682018060405250810190611a6d91906162fc565b611a768161395b565b6000601760009054906101000a900473ffffffffffffffffffffffffffffffffffffffff1673ffffffffffffffffffffffffffffffffffffffff16630a95606e611abe6139d3565b6040518263ffffffff1660e01b8152600401611ada91906163c5565b6020604051808303816000875af1158015611af9573d6000803e3d6000fd5b505050506040513d601f19601f82011682018060405250810190611b1d91906163f6565b9050611b7881600a6000611b2f613788565b73ffffffffffffffffffffffffffffffffffffffff1673ffffffffffffffffffffffffffffffffffffffff1681526020019081526020016000205461340e90919063ffffffff16565b600a6000611b84613788565b73ffffffffffffffffffffffffffffffffffffffff1673ffffffffffffffffffffffffffffffffffffffff168152602001908152602001600020819055505050565b611bd882611bd2613788565b8361427d565b611be28282614c8d565b5050565b611bee6134a2565b601860009054906101000a900473ffffffffffffffffffffffffffffffffffffffff1673ffffffffffffffffffffffffffffffffffffffff166338af3eed6040518163ffffffff1660e01b8152600401602060405180830381865afa158015611c5b573d6000803e3d6000fd5b505050506040513d601f19601f82011682018060405250810190611c7f91906162fc565b611c888161395b565b6000601860009054906101000a900473ffffffffffffffffffffffffffffffffffffffff1673ffffffffffffffffffffffffffffffffffffffff16630a95606e611cd06139d3565b6040518263ffffffff1660e01b8152600401611cec91906163c5565b6020604051808303816000875af1158015611d0b573d6000803e3d6000fd5b505050506040513d601f19601f82011682018060405250810190611d2f91906163f6565b9050611d8a81600a6000611d41613788565b73ffffffffffffffffffffffffffffffffffffffff1673ffffffffffffffffffffffffffffffffffffffff1681526020019081526020016000205461340e90919063ffffffff16565b600a6000611d96613788565b73ffffffffffffffffffffffffffffffffffffffff1673ffffffffffffffffffffffffffffffffffffffff168152602001908152602001600020819055505050565b611de06134a2565b611e48611df3611dee613788565b614f20565b600a6000611dff613788565b73ffffffffffffffffffffffffffffffffffffffff1673ffffffffffffffffffffffffffffffffffffffff1681526020019081526020016000205461340e90919063ffffffff16565b600a6000611e54613788565b73ffffffffffffffffffffffffffffffffffffffff1673ffffffffffffffffffffffffffffffffffffffff16815260200190815260200160002081905550565b611e9c6134a2565b601a60009054906101000a900473ffffffffffffffffffffffffffffffffffffffff1673ffffffffffffffffffffffffffffffffffffffff166338af3eed6040518163ffffffff1660e01b8152600401602060405180830381865afa158015611f09573d6000803e3d6000fd5b505050506040513d601f19601f82011682018060405250810190611f2d91906162fc565b611f368161395b565b6000601a60009054906101000a900473ffffffffffffffffffffffffffffffffffffffff1673ffffffffffffffffffffffffffffffffffffffff16630a95606e611f7e613e1f565b6040518263ffffffff1660e01b8152600401611f9a91906163c5565b6020604051808303816000875af1158015611fb9573d6000803e3d6000fd5b505050506040513d601f19601f82011682018060405250810190611fdd91906163f6565b905061203881600a6000611fef613788565b73ffffffffffffffffffffffffffffffffffffffff1673ffffffffffffffffffffffffffffffffffffffff1681526020019081526020016000205461340e90919063ffffffff16565b600a6000612044613788565b73ffffffffffffffffffffffffffffffffffffffff1673ffffffffffffffffffffffffffffffffffffffff168152602001908152602001600020819055505050565b61208e6134a2565b601c60009054906101000a900473ffffffffffffffffffffffffffffffffffffffff1673ffffffffffffffffffffffffffffffffffffffff166338af3eed6040518163ffffffff1660e01b8152600401602060405180830381865afa1580156120fb573d6000803e3d6000fd5b505050506040513d601f19601f8201168201806040525081019061211f91906162fc565b6121288161395b565b6000601c60009054906101000a900473ffffffffffffffffffffffffffffffffffffffff1673ffffffffffffffffffffffffffffffffffffffff16630a95606e612170613e1f565b6040518263ffffffff1660e01b815260040161218c91906163c5565b6020604051808303816000875af11580156121ab573d6000803e3d6000fd5b505050506040513d601f19601f820116820180604052508101906121cf91906163f6565b905061222a81600a60006121e1613788565b73ffffffffffffffffffffffffffffffffffffffff1673ffffffffffffffffffffffffffffffffffffffff1681526020019081526020016000205461340e90919063ffffffff16565b600a6000612236613788565b73ffffffffffffffffffffffffffffffffffffffff1673ffffffffffffffffffffffffffffffffffffffff168152602001908152602001600020819055505050565b60075481565b612286613424565b6122d881600a60003073ffffffffffffffffffffffffffffffffffffffff1673ffffffffffffffffffffffffffffffffffffffff1681526020019081526020016000205461509190919063ffffffff16565b600a60003073ffffffffffffffffffffffffffffffffffffffff1673ffffffffffffffffffffffffffffffffffffffff1681526020019081526020016000208190555061233081600c5461509190919063ffffffff16565b600c81905550600073ffffffffffffffffffffffffffffffffffffffff163073ffffffffffffffffffffffffffffffffffffffff167fddf252ad1be2c89b69c2b068fc378daa952ba7f163c4a11628f55a4df523b3ef836040516123949190615d5d565b60405180910390a350565b6000600560009054906101000a900473ffffffffffffffffffffffffffffffffffffffff16905090565b6123d16134a2565b601e60009054906101000a900473ffffffffffffffffffffffffffffffffffffffff1673ffffffffffffffffffffffffffffffffffffffff166338af3eed6040518163ffffffff1660e01b8152600401602060405180830381865afa15801561243e573d6000803e3d6000fd5b505050506040513d601f19601f8201168201806040525081019061246291906162fc565b61246b8161395b565b6000601e60009054906101000a900473ffffffffffffffffffffffffffffffffffffffff1673ffffffffffffffffffffffffffffffffffffffff16630a95606e6124b36146cd565b6040518263ffffffff1660e01b81526004016124cf91906163c5565b6020604051808303816000875af11580156124ee573d6000803e3d6000fd5b505050506040513d601f19601f8201168201806040525081019061251291906163f6565b905061256d81600a6000612524613788565b73ffffffffffffffffffffffffffffffffffffffff1673ffffffffffffffffffffffffffffffffffffffff1681526020019081526020016000205461340e90919063ffffffff16565b600a6000612579613788565b73ffffffffffffffffffffffffffffffffffffffff1673ffffffffffffffffffffffffffffffffffffffff168152602001908152602001600020819055505050565b6125c36134a2565b601660009054906101000a900473ffffffffffffffffffffffffffffffffffffffff1673ffffffffffffffffffffffffffffffffffffffff166338af3eed6040518163ffffffff1660e01b8152600401602060405180830381865afa158015612630573d6000803e3d6000fd5b505050506040513d601f19601f8201168201806040525081019061265491906162fc565b61265d8161395b565b6000601660009054906101000a900473ffffffffffffffffffffffffffffffffffffffff1673ffffffffffffffffffffffffffffffffffffffff16630a95606e6126a56150a7565b6040518263ffffffff1660e01b81526004016126c191906163c5565b6020604051808303816000875af11580156126e0573d6000803e3d6000fd5b505050506040513d601f19601f8201168201806040525081019061270491906163f6565b905061275f81600a6000612716613788565b73ffffffffffffffffffffffffffffffffffffffff1673ffffffffffffffffffffffffffffffffffffffff1681526020019081526020016000205461340e90919063ffffffff16565b600a600061276b613788565b73ffffffffffffffffffffffffffffffffffffffff1673ffffffffffffffffffffffffffffffffffffffff168152602001908152602001600020819055505050565b6060600e80546127bc906160d2565b80601f01602080910402602001604051908101604052809291908181526020018280546127e8906160d2565b80156128355780601f1061280a57610100808354040283529160200191612835565b820191906000526020600020905b81548152906001019060200180831161281857829003601f168201915b5050505050905090565b601060009054906101000a900460ff1681565b61285a613424565b6128626134a2565b600082829050116128a8576040517f08c379a000000000000000000000000000000000000000000000000000000000815260040161289f906165b6565b60405180910390fd5b60005b828290508110156128f7576128e68383838181106128cc576128cb616170565b5b90506020020160208101906128e19190615f69565b615443565b506128f08161377b565b90506128ab565b503373ffffffffffffffffffffffffffffffffffffffff167f11de4c4bbde444dd104485abdcba99b21a09383732955c686c96b9f3ab11407a8383604051612940929190616673565b60405180910390a25050565b612954613424565b80601260006101000a81548173ffffffffffffffffffffffffffffffffffffffff021916908373ffffffffffffffffffffffffffffffffffffffff1602179055508073ffffffffffffffffffffffffffffffffffffffff167fc35cea67bc4caf96cc47a71099d4192a65d36ab490d26ebf55825c0700815f6160405160405180910390a250565b601460009054906101000a900473ffffffffffffffffffffffffffffffffffffffff1681565b600080612a0c613788565b90506000612a1a8286613272565b905083811015612a5f576040517f08c379a0000000000000000000000000000000000000000000000000000000008152600401612a5690616709565b60405180910390fd5b612a6c8286868403613790565b60019250505092915050565b601260009054906101000a900473ffffffffffffffffffffffffffffffffffffffff1681565b600080612aa9613788565b9050612ab6818585614309565b600191505092915050565b612ac9613424565b60001515601060019054906101000a900460ff16151514612b1f576040517f08c379a0000000000000000000000000000000000000000000000000000000008152600401612b1690616775565b60405180910390fd5b6001601060016101000a81548160ff021916908315150217905550601660009054906101000a900473ffffffffffffffffffffffffffffffffffffffff1673ffffffffffffffffffffffffffffffffffffffff1663c8cca41e6040518163ffffffff1660e01b8152600401600060405180830381600087803b158015612ba457600080fd5b505af1158015612bb8573d6000803e3d6000fd5b50505050601760009054906101000a900473ffffffffffffffffffffffffffffffffffffffff1673ffffffffffffffffffffffffffffffffffffffff1663c8cca41e6040518163ffffffff1660e01b8152600401600060405180830381600087803b158015612c2657600080fd5b505af1158015612c3a573d6000803e3d6000fd5b50505050601860009054906101000a900473ffffffffffffffffffffffffffffffffffffffff1673ffffffffffffffffffffffffffffffffffffffff1663c8cca41e6040518163ffffffff1660e01b8152600401600060405180830381600087803b158015612ca857600080fd5b505af1158015612cbc573d6000803e3d6000fd5b50505050601960009054906101000a900473ffffffffffffffffffffffffffffffffffffffff1673ffffffffffffffffffffffffffffffffffffffff1663c8cca41e6040518163ffffffff1660e01b8152600401600060405180830381600087803b158015612d2a57600080fd5b505af1158015612d3e573d6000803e3d6000fd5b50505050601a60009054906101000a900473ffffffffffffffffffffffffffffffffffffffff1673ffffffffffffffffffffffffffffffffffffffff1663c8cca41e6040518163ffffffff1660e01b8152600401600060405180830381600087803b158015612dac57600080fd5b505af1158015612dc0573d6000803e3d6000fd5b50505050601b60009054906101000a900473ffffffffffffffffffffffffffffffffffffffff1673ffffffffffffffffffffffffffffffffffffffff1663c8cca41e6040518163ffffffff1660e01b8152600401600060405180830381600087803b158015612e2e57600080fd5b505af1158015612e42573d6000803e3d6000fd5b50505050601c60009054906101000a900473ffffffffffffffffffffffffffffffffffffffff1673ffffffffffffffffffffffffffffffffffffffff1663c8cca41e6040518163ffffffff1660e01b8152600401600060405180830381600087803b158015612eb057600080fd5b505af1158015612ec4573d6000803e3d6000fd5b50505050601d60009054906101000a900473ffffffffffffffffffffffffffffffffffffffff1673ffffffffffffffffffffffffffffffffffffffff1663c8cca41e6040518163ffffffff1660e01b8152600401600060405180830381600087803b158015612f3257600080fd5b505af1158015612f46573d6000803e3d6000fd5b50505050601e60009054906101000a900473ffffffffffffffffffffffffffffffffffffffff1673ffffffffffffffffffffffffffffffffffffffff1663c8cca41e6040518163ffffffff1660e01b8152600401600060405180830381600087803b158015612fb457600080fd5b505af1158015612fc8573d6000803e3d6000fd5b50505050601f60009054906101000a900473ffffffffffffffffffffffffffffffffffffffff1673ffffffffffffffffffffffffffffffffffffffff1663c8cca41e6040518163ffffffff1660e01b8152600401600060405180830381600087803b15801561303657600080fd5b505af115801561304a573d6000803e3d6000fd5b50505050613056613788565b73ffffffffffffffffffffffffffffffffffffffff167f72e04afc383d9ab428814e808cd65abb27c66b5fa85cc230b4cda3e36b436c9860405160405180910390a26130a06155fd565b6130a8613788565b73ffffffffffffffffffffffffffffffffffffffff167f166f0287f5e28d35ec474da4c920a3e6f47f0d7c8833b963dd8367f68dd377cd60405160405180910390a2565b601060019054906101000a900460ff1681565b600f5481565b601360009054906101000a900473ffffffffffffffffffffffffffffffffffffffff1681565b613133613424565b61318581600a60003073ffffffffffffffffffffffffffffffffffffffff1673ffffffffffffffffffffffffffffffffffffffff1681526020019081526020016000205461340e90919063ffffffff16565b600a60003073ffffffffffffffffffffffffffffffffffffffff1673ffffffffffffffffffffffffffffffffffffffff168152602001908152602001600020819055506131dd81600c5461340e90919063ffffffff16565b600c819055503073ffffffffffffffffffffffffffffffffffffffff16600073ffffffffffffffffffffffffffffffffffffffff167fddf252ad1be2c89b69c2b068fc378daa952ba7f163c4a11628f55a4df523b3ef836040516132419190615d5d565b60405180910390a350565b601560009054906101000a900473ffffffffffffffffffffffffffffffffffffffff1681565b6000600b60008473ffffffffffffffffffffffffffffffffffffffff1673ffffffffffffffffffffffffffffffffffffffff16815260200190815260200160002060008373ffffffffffffffffffffffffffffffffffffffff1673ffffffffffffffffffffffffffffffffffffffff16815260200190815260200160002054905092915050565b613301613424565b600073ffffffffffffffffffffffffffffffffffffffff168173ffffffffffffffffffffffffffffffffffffffff161415613371576040517f08c379a000000000000000000000000000000000000000000000000000000000815260040161336890616807565b60405180910390fd5b61337a81614e5a565b50565b601160009054906101000a900473ffffffffffffffffffffffffffffffffffffffff1681565b60008383111582906133eb576040517f08c379a00000000000000000000000000000000000000000000000000000000081526004016133e29190615b66565b60405180910390fd5b5082840390509392505050565b600081836134069190616856565b905092915050565b6000818361341c9190616452565b905092915050565b61342c613788565b73ffffffffffffffffffffffffffffffffffffffff1661344a61239f565b73ffffffffffffffffffffffffffffffffffffffff16146134a0576040517f08c379a0000000000000000000000000000000000000000000000000000000008152600401613497906168d3565b60405180910390fd5b565b60011515601060019054906101000a900460ff161515146134f8576040517f08c379a00000000000000000000000000000000000000000000000000000000081526004016134ef9061693f565b60405180910390fd5b565b6135026134a2565b6000811415613546576040517f08c379a000000000000000000000000000000000000000000000000000000000815260040161353d906169ab565b60405180910390fd5b50565b60075481111561358e576040517f08c379a000000000000000000000000000000000000000000000000000000000815260040161358590616a17565b60405180910390fd5b6000600960008473ffffffffffffffffffffffffffffffffffffffff1673ffffffffffffffffffffffffffffffffffffffff1681526020019081526020016000206001015414613613576040517f08c379a000000000000000000000000000000000000000000000000000000000815260040161360a90616a83565b60405180910390fd5b80600960008473ffffffffffffffffffffffffffffffffffffffff1673ffffffffffffffffffffffffffffffffffffffff1681526020019081526020016000206000018190555080600960008473ffffffffffffffffffffffffffffffffffffffff1673ffffffffffffffffffffffffffffffffffffffff168152602001908152602001600020600101819055506000600960008473ffffffffffffffffffffffffffffffffffffffff1673ffffffffffffffffffffffffffffffffffffffff16815260200190815260200160002060020160006101000a81548160ff0219169083151502179055506001600960008473ffffffffffffffffffffffffffffffffffffffff1673ffffffffffffffffffffffffffffffffffffffff168152602001908152602001600020600301819055506001600660008282546137579190616452565b9250508190555080600760008282546137709190616aa3565b925050819055505050565b6000600182019050919050565b600033905090565b600073ffffffffffffffffffffffffffffffffffffffff168373ffffffffffffffffffffffffffffffffffffffff161415613800576040517f08c379a00000000000000000000000000000000000000000000000000000000081526004016137f790616b49565b60405180910390fd5b600073ffffffffffffffffffffffffffffffffffffffff168273ffffffffffffffffffffffffffffffffffffffff161415613870576040517f08c379a000000000000000000000000000000000000000000000000000000000815260040161386790616bdb565b60405180910390fd5b80600b60008573ffffffffffffffffffffffffffffffffffffffff1673ffffffffffffffffffffffffffffffffffffffff16815260200190815260200160002060008473ffffffffffffffffffffffffffffffffffffffff1673ffffffffffffffffffffffffffffffffffffffff168152602001908152602001600020819055508173ffffffffffffffffffffffffffffffffffffffff168373ffffffffffffffffffffffffffffffffffffffff167f8c5be1e5ebec7d5bd14f71427d1e84f3dd0314c0f7b2291e5b200ac8c7c3b9258360405161394e9190615d5d565b60405180910390a3505050565b8073ffffffffffffffffffffffffffffffffffffffff1661397a613788565b73ffffffffffffffffffffffffffffffffffffffff16146139d0576040517f08c379a00000000000000000000000000000000000000000000000000000000081526004016139c790616c47565b60405180910390fd5b50565b6139db615aaa565b6040518061066001604052806139fd6301908b10670de0b6b3a7640000615606565b8152602001600081526020016000815260200160008152602001600081526020016000815260200160008152602001600081526020016000815260200160008152602001600081526020016000815260200160008152602001600081526020016000815260200160008152602001613a816301b1ebfc670de0b6b3a7640000615606565b8152602001613a9c6301b1ebfc670de0b6b3a7640000615606565b8152602001613ab76301b1ebfc670de0b6b3a7640000615606565b8152602001613ad26301b1ebfc670de0b6b3a7640000615606565b8152602001613aed6301b1ebfc670de0b6b3a7640000615606565b8152602001613b086301b1ebfc670de0b6b3a7640000615606565b8152602001613b236301b1ebfc670de0b6b3a7640000615606565b8152602001613b3e6301b1ebfc670de0b6b3a7640000615606565b8152602001613b596301b1ebfc670de0b6b3a7640000615606565b8152602001613b746301b1ebfc670de0b6b3a7640000615606565b8152602001613b8f6301b1ebfc670de0b6b3a7640000615606565b8152602001613baa6301b1ebfc670de0b6b3a7640000615606565b8152602001613bc56301b1ebfc670de0b6b3a7640000615606565b8152602001613be06301b1ebfc670de0b6b3a7640000615606565b8152602001613bfb6301b1ebfc670de0b6b3a7640000615606565b8152602001613c166301b1ebfc670de0b6b3a7640000615606565b8152602001613c316301b1ebfc670de0b6b3a7640000615606565b8152602001613c4c6301b1ebfc670de0b6b3a7640000615606565b8152602001613c676301b1ebfc670de0b6b3a7640000615606565b8152602001613c826301b1ebfc670de0b6b3a7640000615606565b8152602001613c9d6301b1ebfc670de0b6b3a7640000615606565b8152602001613cb86301b1ebfc670de0b6b3a7640000615606565b8152602001613cd36301b1ebfc670de0b6b3a7640000615606565b8152602001613cee6301b1ebfc670de0b6b3a7640000615606565b8152602001613d096301b1ebfc670de0b6b3a7640000615606565b8152602001613d246301b1ebfc670de0b6b3a7640000615606565b8152602001613d3f6301b1ebfc670de0b6b3a7640000615606565b8152602001613d5a6301b1ebfc670de0b6b3a7640000615606565b8152602001613d756301b1ebfc670de0b6b3a7640000615606565b8152602001613d906301b1ebfc670de0b6b3a7640000615606565b8152602001613dab6301b1ebfc670de0b6b3a7640000615606565b8152602001613dc66301b1ebfc670de0b6b3a7640000615606565b8152602001613de16301b1ebfc670de0b6b3a7640000615606565b8152602001613dfc6301b1ebfc670de0b6b3a7640000615606565b8152602001613e176301b1ebfc670de0b6b3a7640000615606565b815250905090565b613e27615aaa565b604051806106600160405280613e4862c84588670de0b6b3a7640000615606565b815260200160008152602001600081526020016000815260200160008152602001600081526020016000815260200160008152602001613e9362c84588670de0b6b3a7640000615606565b815260200160008152602001600081526020016000815260200160008152602001600081526020016000815260200160008152602001613edf6301b1ebfc670de0b6b3a7640000615606565b8152602001613efa6301b1ebfc670de0b6b3a7640000615606565b8152602001613f156301b1ebfc670de0b6b3a7640000615606565b8152602001613f306301b1ebfc670de0b6b3a7640000615606565b8152602001613f4b6301b1ebfc670de0b6b3a7640000615606565b8152602001613f666301b1ebfc670de0b6b3a7640000615606565b8152602001613f816301b1ebfc670de0b6b3a7640000615606565b8152602001613f9c6301b1ebfc670de0b6b3a7640000615606565b8152602001613fb76301b1ebfc670de0b6b3a7640000615606565b8152602001613fd26301b1ebfc670de0b6b3a7640000615606565b8152602001613fed6301b1ebfc670de0b6b3a7640000615606565b81526020016140086301b1ebfc670de0b6b3a7640000615606565b81526020016140236301b1ebfc670de0b6b3a7640000615606565b815260200161403e6301b1ebfc670de0b6b3a7640000615606565b81526020016140596301b1ebfc670de0b6b3a7640000615606565b81526020016140746301b1ebfc670de0b6b3a7640000615606565b815260200161408f6301b1ebfc670de0b6b3a7640000615606565b81526020016140aa6301b1ebfc670de0b6b3a7640000615606565b81526020016140c56301b1ebfc670de0b6b3a7640000615606565b81526020016140e06301b1ebfc670de0b6b3a7640000615606565b81526020016140fb6301b1ebfc670de0b6b3a7640000615606565b81526020016141166301b1ebfc670de0b6b3a7640000615606565b81526020016141316301b1ebfc670de0b6b3a7640000615606565b815260200161414c6301b1ebfc670de0b6b3a7640000615606565b81526020016141676301b1ebfc670de0b6b3a7640000615606565b81526020016141826301b1ebfc670de0b6b3a7640000615606565b815260200161419d6301b1ebfc670de0b6b3a7640000615606565b81526020016141b86301b1ebfc670de0b6b3a7640000615606565b81526020016141d36301b1ebfc670de0b6b3a7640000615606565b81526020016141ee6301b1ebfc670de0b6b3a7640000615606565b81526020016142096301b1ebfc670de0b6b3a7640000615606565b81526020016142246301b1ebfc670de0b6b3a7640000615606565b815260200161423f6301b1ebfc670de0b6b3a7640000615606565b815260200161425a6301b1ebfc670de0b6b3a7640000615606565b81526020016142756301b1ebfc670de0b6b3a7640000615606565b815250905090565b60006142898484613272565b90507fffffffffffffffffffffffffffffffffffffffffffffffffffffffffffffffff811461430357818110156142f5576040517f08c379a00000000000000000000000000000000000000000000000000000000081526004016142ec90616cb3565b60405180910390fd5b6143028484848403613790565b5b50505050565b600073ffffffffffffffffffffffffffffffffffffffff168373ffffffffffffffffffffffffffffffffffffffff161415614379576040517f08c379a000000000000000000000000000000000000000000000000000000000815260040161437090616d1f565b60405180910390fd5b600073ffffffffffffffffffffffffffffffffffffffff168273ffffffffffffffffffffffffffffffffffffffff1614156143e9576040517f08c379a00000000000000000000000000000000000000000000000000000000081526004016143e090616d8b565b60405180910390fd5b6143f483838361561c565b6000600a60008573ffffffffffffffffffffffffffffffffffffffff1673ffffffffffffffffffffffffffffffffffffffff1681526020019081526020016000205490508181101561447b576040517f08c379a000000000000000000000000000000000000000000000000000000000815260040161447290616e1d565b60405180910390fd5b818103600a60008673ffffffffffffffffffffffffffffffffffffffff1673ffffffffffffffffffffffffffffffffffffffff1681526020019081526020016000208190555060006144e96144e284601060009054906101000a900460ff1660ff16615606565b60646133f8565b905060006144f78483615091565b90506000614510614509836002615606565b600a6133f8565b90506000614529614522846008615606565b600a6133f8565b905061453482610a26565b61458681600a60003073ffffffffffffffffffffffffffffffffffffffff1673ffffffffffffffffffffffffffffffffffffffff1681526020019081526020016000205461340e90919063ffffffff16565b600a60003073ffffffffffffffffffffffffffffffffffffffff1673ffffffffffffffffffffffffffffffffffffffff1681526020019081526020016000208190555061461b83600a60008a73ffffffffffffffffffffffffffffffffffffffff1673ffffffffffffffffffffffffffffffffffffffff1681526020019081526020016000205461340e90919063ffffffff16565b600a60008973ffffffffffffffffffffffffffffffffffffffff1673ffffffffffffffffffffffffffffffffffffffff168152602001908152602001600020819055508673ffffffffffffffffffffffffffffffffffffffff168873ffffffffffffffffffffffffffffffffffffffff167fddf252ad1be2c89b69c2b068fc378daa952ba7f163c4a11628f55a4df523b3ef856040516146bb9190615d5d565b60405180910390a35050505050505050565b6146d5615aaa565b6040518061066001604052806146f76301406f40670de0b6b3a7640000615606565b8152602001600081526020016000815260200160008152602001600081526020016000815260200160008152602001600081526020016147436301406f40670de0b6b3a7640000615606565b81526020016000815260200160008152602001600081526020016000815260200160008152602001600081526020016000815260200161478f6303684b4b670de0b6b3a7640000615606565b81526020016147aa6303684b4b670de0b6b3a7640000615606565b81526020016147c56303684b4b670de0b6b3a7640000615606565b81526020016147e06303684b4b670de0b6b3a7640000615606565b81526020016147fb6303684b4b670de0b6b3a7640000615606565b81526020016148166303684b4b670de0b6b3a7640000615606565b81526020016148316303684b4b670de0b6b3a7640000615606565b815260200161484c6303684b4b670de0b6b3a7640000615606565b81526020016148676303684b4b670de0b6b3a7640000615606565b81526020016148826303684b4b670de0b6b3a7640000615606565b815260200161489d6303684b4b670de0b6b3a7640000615606565b81526020016148b86303684b4b670de0b6b3a7640000615606565b81526020016148d36303684b4b670de0b6b3a7640000615606565b81526020016148ee6303684b4b670de0b6b3a7640000615606565b81526020016149096303684b4b670de0b6b3a7640000615606565b81526020016149246303684b4b670de0b6b3a7640000615606565b815260200161493f6303684b4b670de0b6b3a7640000615606565b815260200161495a6303684b4b670de0b6b3a7640000615606565b81526020016149756303684b4b670de0b6b3a7640000615606565b81526020016149906303684b4b670de0b6b3a7640000615606565b81526020016149ab6303684b4b670de0b6b3a7640000615606565b81526020016149c66303684b4b670de0b6b3a7640000615606565b81526020016149e16303684b4b670de0b6b3a7640000615606565b81526020016149fc6303684b4b670de0b6b3a7640000615606565b8152602001614a176303684b4b670de0b6b3a7640000615606565b8152602001614a326303684b4b670de0b6b3a7640000615606565b8152602001614a4d6303684b4b670de0b6b3a7640000615606565b8152602001614a686303684b4b670de0b6b3a7640000615606565b8152602001614a836303684b4b670de0b6b3a7640000615606565b8152602001614a9e6303684b4b670de0b6b3a7640000615606565b8152602001614ab96303684b4b670de0b6b3a7640000615606565b8152602001614ad46303684b4b670de0b6b3a7640000615606565b8152602001614aef6303684b4b670de0b6b3a7640000615606565b8152602001614b0a6303684b4b670de0b6b3a7640000615606565b8152602001614b256303684b4b670de0b6b3a7640000615606565b815250905090565b600073ffffffffffffffffffffffffffffffffffffffff168273ffffffffffffffffffffffffffffffffffffffff161415614b9d576040517f08c379a0000000000000000000000000000000000000000000000000000000008152600401614b9490616e89565b60405180910390fd5b614ba96000838361561c565b8060026000828254614bbb9190616452565b92505081905550806000808473ffffffffffffffffffffffffffffffffffffffff1673ffffffffffffffffffffffffffffffffffffffff1681526020019081526020016000206000828254614c109190616452565b925050819055508173ffffffffffffffffffffffffffffffffffffffff16600073ffffffffffffffffffffffffffffffffffffffff167fddf252ad1be2c89b69c2b068fc378daa952ba7f163c4a11628f55a4df523b3ef83604051614c759190615d5d565b60405180910390a3614c8960008383615621565b5050565b600073ffffffffffffffffffffffffffffffffffffffff168273ffffffffffffffffffffffffffffffffffffffff161415614cfd576040517f08c379a0000000000000000000000000000000000000000000000000000000008152600401614cf490616f1b565b60405180910390fd5b614d098260008361561c565b6000600a60008473ffffffffffffffffffffffffffffffffffffffff1673ffffffffffffffffffffffffffffffffffffffff16815260200190815260200160002054905081811015614d90576040517f08c379a0000000000000000000000000000000000000000000000000000000008152600401614d8790616fad565b60405180910390fd5b818103600a60008573ffffffffffffffffffffffffffffffffffffffff1673ffffffffffffffffffffffffffffffffffffffff1681526020019081526020016000208190555081600c6000828254614de89190616aa3565b92505081905550600073ffffffffffffffffffffffffffffffffffffffff168373ffffffffffffffffffffffffffffffffffffffff167fddf252ad1be2c89b69c2b068fc378daa952ba7f163c4a11628f55a4df523b3ef84604051614e4d9190615d5d565b60405180910390a3505050565b6000600560009054906101000a900473ffffffffffffffffffffffffffffffffffffffff16905081600560006101000a81548173ffffffffffffffffffffffffffffffffffffffff021916908373ffffffffffffffffffffffffffffffffffffffff1602179055508173ffffffffffffffffffffffffffffffffffffffff168173ffffffffffffffffffffffffffffffffffffffff167f8be0079c531659141344cd1fd0a4f28419497f9722a3daafe3b4186f6b6457e060405160405180910390a35050565b600080600960008473ffffffffffffffffffffffffffffffffffffffff1673ffffffffffffffffffffffffffffffffffffffff1681526020019081526020016000206001015411614fa6576040517f08c379a0000000000000000000000000000000000000000000000000000000008152600401614f9d90617019565b60405180910390fd5b6000614fb183615626565b905060008111614ff6576040517f08c379a0000000000000000000000000000000000000000000000000000000008152600401614fed90617085565b60405180910390fd5b615042600960008573ffffffffffffffffffffffffffffffffffffffff1673ffffffffffffffffffffffffffffffffffffffff1681526020019081526020016000206001015482615091565b600960008573ffffffffffffffffffffffffffffffffffffffff1673ffffffffffffffffffffffffffffffffffffffff1681526020019081526020016000206001018190555080915050919050565b6000818361509f9190616aa3565b905092915050565b6150af615aaa565b6040518061066001604052806150d06242b0c1670de0b6b3a7640000615606565b81526020016150ea6242b0c1670de0b6b3a7640000615606565b81526020016151046242b0c1670de0b6b3a7640000615606565b815260200161511e6242b0c1670de0b6b3a7640000615606565b81526020016151386242b0c1670de0b6b3a7640000615606565b81526020016151526242b0c1670de0b6b3a7640000615606565b815260200161516c6242b0c1670de0b6b3a7640000615606565b81526020016151866242b0c1670de0b6b3a7640000615606565b81526020016151a06242b0c1670de0b6b3a7640000615606565b81526020016151ba6242b0c1670de0b6b3a7640000615606565b81526020016151d46242b0c1670de0b6b3a7640000615606565b81526020016151ee6242b0c1670de0b6b3a7640000615606565b81526020016152086242b0c1670de0b6b3a7640000615606565b81526020016152226242b0c1670de0b6b3a7640000615606565b815260200161523c6242b0c1670de0b6b3a7640000615606565b81526020016152566242b0c1670de0b6b3a7640000615606565b8152602001615271630320490c670de0b6b3a7640000615606565b815260200161528c630320490c670de0b6b3a7640000615606565b81526020016152a7630320490c670de0b6b3a7640000615606565b81526020016152c2630320490c670de0b6b3a7640000615606565b81526020016152dd630320490c670de0b6b3a7640000615606565b81526020016152f8630320490c670de0b6b3a7640000615606565b8152602001615313630320490c670de0b6b3a7640000615606565b815260200161532e630320490c670de0b6b3a7640000615606565b8152602001615349630320490c670de0b6b3a7640000615606565b8152602001615364630320490c670de0b6b3a7640000615606565b815260200161537f630320490c670de0b6b3a7640000615606565b815260200161539a630320490c670de0b6b3a7640000615606565b8152602001600081526020016000815260200160008152602001600081526020016000815260200160008152602001600081526020016000815260200160008152602001600081526020016000815260200160008152602001600081526020016000815260200160008152602001600081526020016000815260200160008152602001600081526020016000815260200160008152602001600081526020016000815250905090565b600080600960008473ffffffffffffffffffffffffffffffffffffffff1673ffffffffffffffffffffffffffffffffffffffff1681526020019081526020016000206001015414156154ca576040517f08c379a00000000000000000000000000000000000000000000000000000000081526004016154c1906170f1565b60405180910390fd5b6001600660008282546154dd9190616aa3565b92505081905550600960008373ffffffffffffffffffffffffffffffffffffffff1673ffffffffffffffffffffffffffffffffffffffff16815260200190815260200160002060010154600760008282546155389190616452565b925050819055506000600960008473ffffffffffffffffffffffffffffffffffffffff1673ffffffffffffffffffffffffffffffffffffffff168152602001908152602001600020600101549050600960008473ffffffffffffffffffffffffffffffffffffffff1673ffffffffffffffffffffffffffffffffffffffff16815260200190815260200160002060008082016000905560018201600090556002820160006101000a81549060ff02191690556003820160009055505080915050919050565b42600881905550565b600081836156149190617111565b905092915050565b505050565b505050565b6000806000620151806008544261563d9190616aa3565b6156479190616856565b90506101e08110156157cf5760001515600960008673ffffffffffffffffffffffffffffffffffffffff1673ffffffffffffffffffffffffffffffffffffffff16815260200190815260200160002060020160009054906101000a900460ff16151514156157815761572361571461570c6a3cb5feec27901169e00000600960008973ffffffffffffffffffffffffffffffffffffffff1673ffffffffffffffffffffffffffffffffffffffff16815260200190815260200160002060000154615606565b6007546133f8565b8361340e90919063ffffffff16565b91506001600960008673ffffffffffffffffffffffffffffffffffffffff1673ffffffffffffffffffffffffffffffffffffffff16815260200190815260200160002060020160006101000a81548160ff0219169083151502179055505b6101c2600960008673ffffffffffffffffffffffffffffffffffffffff1673ffffffffffffffffffffffffffffffffffffffff16815260200190815260200160002060030181905550615a32565b6101e081101580156157e2575061034881105b15615a315760001515600960008673ffffffffffffffffffffffffffffffffffffffff1673ffffffffffffffffffffffffffffffffffffffff16815260200190815260200160002060020160009054906101000a900460ff1615151415615915576158b76158a86158a06a3cb5feec27901169e00000600960008973ffffffffffffffffffffffffffffffffffffffff1673ffffffffffffffffffffffffffffffffffffffff16815260200190815260200160002060000154615606565b6007546133f8565b8361340e90919063ffffffff16565b91506001600960008673ffffffffffffffffffffffffffffffffffffffff1673ffffffffffffffffffffffffffffffffffffffff16815260200190815260200160002060020160006101000a81548160ff0219169083151502179055505b6000600960008673ffffffffffffffffffffffffffffffffffffffff1673ffffffffffffffffffffffffffffffffffffffff16815260200190815260200160002060030154826159659190616aa3565b90506159db6159cc6159c46a03290914be1afb75080000600960008a73ffffffffffffffffffffffffffffffffffffffff1673ffffffffffffffffffffffffffffffffffffffff16815260200190815260200160002060000154615606565b6007546133f8565b8461340e90919063ffffffff16565b816159e69190617111565b925081600960008773ffffffffffffffffffffffffffffffffffffffff1673ffffffffffffffffffffffffffffffffffffffff16815260200190815260200160002060030181905550505b5b6000821415615a76576040517f08c379a0000000000000000000000000000000000000000000000000000000008152600401615a6d906171b7565b60405180910390fd5b8192505050919050565b60405180608001604052806000815260200160008152602001600015158152602001600081525090565b604051806106600160405280603390602082028036833780820191505090505090565b600081519050919050565b600082825260208201905092915050565b60005b83811015615b07578082015181840152602081019050615aec565b83811115615b16576000848401525b50505050565b6000601f19601f8301169050919050565b6000615b3882615acd565b615b428185615ad8565b9350615b52818560208601615ae9565b615b5b81615b1c565b840191505092915050565b60006020820190508181036000830152615b808184615b2d565b905092915050565b600080fd5b600080fd5b600080fd5b600080fd5b600080fd5b60008083601f840112615bb757615bb6615b92565b5b8235905067ffffffffffffffff811115615bd457615bd3615b97565b5b602083019150836040820283011115615bf057615bef615b9c565b5b9250929050565b60008060208385031215615c0e57615c0d615b88565b5b600083013567ffffffffffffffff811115615c2c57615c2b615b8d565b5b615c3885828601615ba1565b92509250509250929050565b600073ffffffffffffffffffffffffffffffffffffffff82169050919050565b6000615c6f82615c44565b9050919050565b615c7f81615c64565b8114615c8a57600080fd5b50565b600081359050615c9c81615c76565b92915050565b6000819050919050565b615cb581615ca2565b8114615cc057600080fd5b50565b600081359050615cd281615cac565b92915050565b60008060408385031215615cef57615cee615b88565b5b6000615cfd85828601615c8d565b9250506020615d0e85828601615cc3565b9150509250929050565b60008115159050919050565b615d2d81615d18565b82525050565b6000602082019050615d486000830184615d24565b92915050565b615d5781615ca2565b82525050565b6000602082019050615d726000830184615d4e565b92915050565b615d8181615ca2565b82525050565b615d9081615d18565b82525050565b608082016000820151615dac6000850182615d78565b506020820151615dbf6020850182615d78565b506040820151615dd26040850182615d87565b506060820151615de56060850182615d78565b50505050565b6000608082019050615e006000830184615d96565b92915050565b600080600060608486031215615e1f57615e1e615b88565b5b6000615e2d86828701615c8d565b9350506020615e3e86828701615c8d565b9250506040615e4f86828701615cc3565b9150509250925092565b600060ff82169050919050565b615e6f81615e59565b82525050565b6000602082019050615e8a6000830184615e66565b92915050565b600060208284031215615ea657615ea5615b88565b5b6000615eb484828501615cc3565b91505092915050565b600080600060608486031215615ed657615ed5615b88565b5b6000615ee486828701615c8d565b9350506020615ef586828701615c8d565b9250506040615f0686828701615c8d565b9150509250925092565b615f1981615e59565b8114615f2457600080fd5b50565b600081359050615f3681615f10565b92915050565b600060208284031215615f5257615f51615b88565b5b6000615f6084828501615f27565b91505092915050565b600060208284031215615f7f57615f7e615b88565b5b6000615f8d84828501615c8d565b91505092915050565b615f9f81615c64565b82525050565b6000602082019050615fba6000830184615f96565b92915050565b60008083601f840112615fd657615fd5615b92565b5b8235905067ffffffffffffffff811115615ff357615ff2615b97565b5b60208301915083602082028301111561600f5761600e615b9c565b5b9250929050565b6000806020838503121561602d5761602c615b88565b5b600083013567ffffffffffffffff81111561604b5761604a615b8d565b5b61605785828601615fc0565b92509250509250929050565b6000806040838503121561607a57616079615b88565b5b600061608885828601615c8d565b925050602061609985828601615c8d565b9150509250929050565b7f4e487b7100000000000000000000000000000000000000000000000000000000600052602260045260246000fd5b600060028204905060018216806160ea57607f821691505b602082108114156160fe576160fd6160a3565b5b50919050565b7f4e6f7468696e6720746f20616464000000000000000000000000000000000000600082015250565b600061613a600e83615ad8565b915061614582616104565b602082019050919050565b600060208201905081810360008301526161698161612d565b9050919050565b7f4e487b7100000000000000000000000000000000000000000000000000000000600052603260045260246000fd5b600082825260208201905092915050565b6000819050919050565b60006161c96020840184615c8d565b905092915050565b6161da81615c64565b82525050565b60006161ef6020840184615cc3565b905092915050565b6040820161620860008301836161ba565b61621560008501826161d1565b5061622360208301836161e0565b6162306020850182615d78565b50505050565b600061624283836161f7565b60408301905092915050565b600082905092915050565b6000604082019050919050565b6000616272838561619f565b935061627d826161b0565b8060005b858110156162b657616293828461624e565b61629d8882616236565b97506162a883616259565b925050600181019050616281565b5085925050509392505050565b600060208201905081810360008301526162de818486616266565b90509392505050565b6000815190506162f681615c76565b92915050565b60006020828403121561631257616311615b88565b5b6000616320848285016162e7565b91505092915050565b600060339050919050565b600081905092915050565b6000819050919050565b60006163558383615d78565b60208301905092915050565b6000602082019050919050565b61637781616329565b6163818184616334565b925061638c8261633f565b8060005b838110156163bd5781516163a48782616349565b96506163af83616361565b925050600181019050616390565b505050505050565b6000610660820190506163db600083018461636e565b92915050565b6000815190506163f081615cac565b92915050565b60006020828403121561640c5761640b615b88565b5b600061641a848285016163e1565b91505092915050565b7f4e487b7100000000000000000000000000000000000000000000000000000000600052601160045260246000fd5b600061645d82615ca2565b915061646883615ca2565b9250827fffffffffffffffffffffffffffffffffffffffffffffffffffffffffffffffff0382111561649d5761649c616423565b5b828201905092915050565b7f54617820466565206d6178696d756d2069732035250000000000000000000000600082015250565b60006164de601583615ad8565b91506164e9826164a8565b602082019050919050565b6000602082019050818103600083015261650d816164d1565b9050919050565b6000819050919050565b600061653961653461652f84615e59565b616514565b615ca2565b9050919050565b6165498161651e565b82525050565b60006020820190506165646000830184616540565b92915050565b7f4e6f7468696e6720746f2064656c657465000000000000000000000000000000600082015250565b60006165a0601183615ad8565b91506165ab8261656a565b602082019050919050565b600060208201905081810360008301526165cf81616593565b9050919050565b600082825260208201905092915050565b6000819050919050565b60006165fd83836161d1565b60208301905092915050565b6000602082019050919050565b600061662283856165d6565b935061662d826165e7565b8060005b858110156166665761664382846161ba565b61664d88826165f1565b975061665883616609565b925050600181019050616631565b5085925050509392505050565b6000602082019050818103600083015261668e818486616616565b90509392505050565b7f45524332303a2064656372656173656420616c6c6f77616e63652062656c6f7760008201527f207a65726f000000000000000000000000000000000000000000000000000000602082015250565b60006166f3602583615ad8565b91506166fe82616697565b604082019050919050565b60006020820190508181036000830152616722816166e6565b9050919050565b7f4e6f7468696e6720746f20696e697469616c697a650000000000000000000000600082015250565b600061675f601583615ad8565b915061676a82616729565b602082019050919050565b6000602082019050818103600083015261678e81616752565b9050919050565b7f4f776e61626c653a206e6577206f776e657220697320746865207a65726f206160008201527f6464726573730000000000000000000000000000000000000000000000000000602082015250565b60006167f1602683615ad8565b91506167fc82616795565b604082019050919050565b60006020820190508181036000830152616820816167e4565b9050919050565b7f4e487b7100000000000000000000000000000000000000000000000000000000600052601260045260246000fd5b600061686182615ca2565b915061686c83615ca2565b92508261687c5761687b616827565b5b828204905092915050565b7f4f776e61626c653a2063616c6c6572206973206e6f7420746865206f776e6572600082015250565b60006168bd602083615ad8565b91506168c882616887565b602082019050919050565b600060208201905081810360008301526168ec816168b0565b9050919050565b7f4e6f742079657420737461727465640000000000000000000000000000000000600082015250565b6000616929600f83615ad8565b9150616934826168f3565b602082019050919050565b600060208201905081810360008301526169588161691c565b9050919050565b7f416d6f756e742063616e6e6f74206265207a65726f0000000000000000000000600082015250565b6000616995601583615ad8565b91506169a08261695f565b602082019050919050565b600060208201905081810360008301526169c481616988565b9050919050565b7f496e73756666696369656e7420546f74616c2042616c616e6365000000000000600082015250565b6000616a01601a83615ad8565b9150616a0c826169cb565b602082019050919050565b60006020820190508181036000830152616a30816169f4565b9050919050565b7f43616e6e6f742061646420526567697374657265642055736572000000000000600082015250565b6000616a6d601a83615ad8565b9150616a7882616a37565b602082019050919050565b60006020820190508181036000830152616a9c81616a60565b9050919050565b6000616aae82615ca2565b9150616ab983615ca2565b925082821015616acc57616acb616423565b5b828203905092915050565b7f45524332303a20617070726f76652066726f6d20746865207a65726f2061646460008201527f7265737300000000000000000000000000000000000000000000000000000000602082015250565b6000616b33602483615ad8565b9150616b3e82616ad7565b604082019050919050565b60006020820190508181036000830152616b6281616b26565b9050919050565b7f45524332303a20617070726f766520746f20746865207a65726f20616464726560008201527f7373000000000000000000000000000000000000000000000000000000000000602082015250565b6000616bc5602283615ad8565b9150616bd082616b69565b604082019050919050565b60006020820190508181036000830152616bf481616bb8565b9050919050565b7f57616c6c6574206f776e6572206f6e6c79000000000000000000000000000000600082015250565b6000616c31601183615ad8565b9150616c3c82616bfb565b602082019050919050565b60006020820190508181036000830152616c6081616c24565b9050919050565b7f45524332303a20696e73756666696369656e7420616c6c6f77616e6365000000600082015250565b6000616c9d601d83615ad8565b9150616ca882616c67565b602082019050919050565b60006020820190508181036000830152616ccc81616c90565b9050919050565b7f5472616e736665722066726f6d207a65726f2061646472657373000000000000600082015250565b6000616d09601a83615ad8565b9150616d1482616cd3565b602082019050919050565b60006020820190508181036000830152616d3881616cfc565b9050919050565b7f5472616e7366657220746f207a65726f20616464726573730000000000000000600082015250565b6000616d75601883615ad8565b9150616d8082616d3f565b602082019050919050565b60006020820190508181036000830152616da481616d68565b9050919050565b7f45524332303a207472616e7366657220616d6f756e742065786365656473206260008201527f616c616e63650000000000000000000000000000000000000000000000000000602082015250565b6000616e07602683615ad8565b9150616e1282616dab565b604082019050919050565b60006020820190508181036000830152616e3681616dfa565b9050919050565b7f45524332303a206d696e7420746f20746865207a65726f206164647265737300600082015250565b6000616e73601f83615ad8565b9150616e7e82616e3d565b602082019050919050565b60006020820190508181036000830152616ea281616e66565b9050919050565b7f45524332303a206275726e2066726f6d20746865207a65726f2061646472657360008201527f7300000000000000000000000000000000000000000000000000000000000000602082015250565b6000616f05602183615ad8565b9150616f1082616ea9565b604082019050919050565b60006020820190508181036000830152616f3481616ef8565b9050919050565b7f45524332303a206275726e20616d6f756e7420657863656564732062616c616e60008201527f6365000000000000000000000000000000000000000000000000000000000000602082015250565b6000616f97602283615ad8565b9150616fa282616f3b565b604082019050919050565b60006020820190508181036000830152616fc681616f8a565b9050919050565b7f4e6f20546f6b656e73204c656674000000000000000000000000000000000000600082015250565b6000617003600e83615ad8565b915061700e82616fcd565b602082019050919050565b6000602082019050818103600083015261703281616ff6565b9050919050565b7f4e6f20546f6b656e7320746f2052656c6561736520666f72204e6f7700000000600082015250565b600061706f601c83615ad8565b915061707a82617039565b602082019050919050565b6000602082019050818103600083015261709e81617062565b9050919050565b7f55736572206e6f74205265676973746572656400000000000000000000000000600082015250565b60006170db601383615ad8565b91506170e6826170a5565b602082019050919050565b6000602082019050818103600083015261710a816170ce565b9050919050565b600061711c82615ca2565b915061712783615ca2565b9250817fffffffffffffffffffffffffffffffffffffffffffffffffffffffffffffffff04831182151516156171605761715f616423565b5b828202905092915050565b7f4e6f7468696e6720746f20636c61696d20796574000000000000000000000000600082015250565b60006171a1601483615ad8565b91506171ac8261716b565b602082019050919050565b600060208201905081810360008301526171d081617194565b905091905056fea2646970667358221220fd66929fc51a8dfcb50158aded8ccd458072acae57d2fdb41a4180a48605050564736f6c634300080b003360a060405234801561001057600080fd5b50604051610a29380380610a298339818101604052810190610032919061014e565b816000819055508073ffffffffffffffffffffffffffffffffffffffff1660808173ffffffffffffffffffffffffffffffffffffffff168152505033600160006101000a81548173ffffffffffffffffffffffffffffffffffffffff021916908373ffffffffffffffffffffffffffffffffffffffff160217905550505061018e565b600080fd5b6000819050919050565b6100cd816100ba565b81146100d857600080fd5b50565b6000815190506100ea816100c4565b92915050565b600073ffffffffffffffffffffffffffffffffffffffff82169050919050565b600061011b826100f0565b9050919050565b61012b81610110565b811461013657600080fd5b50565b60008151905061014881610122565b92915050565b60008060408385031215610165576101646100b5565b5b6000610173858286016100db565b925050602061018485828601610139565b9150509250929050565b6080516108806101a9600039600061011401526108806000f3fe608060405234801561001057600080fd5b506004361061004c5760003560e01c80630a95606e1461005157806338af3eed14610081578063b580aa9e1461009f578063c8cca41e146100bd575b600080fd5b61006b60048036038101906100669190610496565b6100c7565b60405161007891906104d3565b60405180910390f35b610089610112565b604051610096919061052f565b60405180910390f35b6100a7610136565b6040516100b491906104d3565b60405180910390f35b6100c561013c565b005b60006100d161014d565b60006100dc836101df565b905061010360005482604051806060016040528060368152602001610815603691396102a8565b60008190555080915050919050565b7f000000000000000000000000000000000000000000000000000000000000000081565b60025481565b61014461014d565b42600281905550565b600160009054906101000a900473ffffffffffffffffffffffffffffffffffffffff1673ffffffffffffffffffffffffffffffffffffffff163373ffffffffffffffffffffffffffffffffffffffff16146101dd576040517f08c379a00000000000000000000000000000000000000000000000000000000081526004016101d4906105a7565b60405180910390fd5b565b60008062278d00600254426101f491906105f6565b6101fe9190610659565b905060008060035490505b60338111610246578481603381106102245761022361068a565b5b60200201518261023491906106b9565b915061023f816102fd565b9050610209565b5060018261025491906106b9565b600381905550600081141561029e576040517f08c379a00000000000000000000000000000000000000000000000000000000081526004016102959061075b565b60405180910390fd5b8092505050919050565b60008383111582906102f0576040517f08c379a00000000000000000000000000000000000000000000000000000000081526004016102e791906107f2565b60405180910390fd5b5082840390509392505050565b6000600182019050919050565b6000604051905090565b600080fd5b600080fd5b6000601f19601f8301169050919050565b7f4e487b7100000000000000000000000000000000000000000000000000000000600052604160045260246000fd5b6103678261031e565b810181811067ffffffffffffffff821117156103865761038561032f565b5b80604052505050565b600061039961030a565b90506103a5828261035e565b919050565b600067ffffffffffffffff8211156103c5576103c461032f565b5b602082029050919050565b600080fd5b6000819050919050565b6103e8816103d5565b81146103f357600080fd5b50565b600081359050610405816103df565b92915050565b600061041e610419846103aa565b61038f565b90508060208402830185811115610438576104376103d0565b5b835b81811015610461578061044d88826103f6565b84526020840193505060208101905061043a565b5050509392505050565b600082601f8301126104805761047f610319565b5b603361048d84828561040b565b91505092915050565b600061066082840312156104ad576104ac610314565b5b60006104bb8482850161046b565b91505092915050565b6104cd816103d5565b82525050565b60006020820190506104e860008301846104c4565b92915050565b600073ffffffffffffffffffffffffffffffffffffffff82169050919050565b6000610519826104ee565b9050919050565b6105298161050e565b82525050565b60006020820190506105446000830184610520565b92915050565b600082825260208201905092915050565b7f4e6f74205f6f776e657200000000000000000000000000000000000000000000600082015250565b6000610591600a8361054a565b915061059c8261055b565b602082019050919050565b600060208201905081810360008301526105c081610584565b9050919050565b7f4e487b7100000000000000000000000000000000000000000000000000000000600052601160045260246000fd5b6000610601826103d5565b915061060c836103d5565b92508282101561061f5761061e6105c7565b5b828203905092915050565b7f4e487b7100000000000000000000000000000000000000000000000000000000600052601260045260246000fd5b6000610664826103d5565b915061066f836103d5565b92508261067f5761067e61062a565b5b828204905092915050565b7f4e487b7100000000000000000000000000000000000000000000000000000000600052603260045260246000fd5b60006106c4826103d5565b91506106cf836103d5565b9250827fffffffffffffffffffffffffffffffffffffffffffffffffffffffffffffffff03821115610704576107036105c7565b5b828201905092915050565b7f4e6f7468696e6720746f20636c61696d20796574000000000000000000000000600082015250565b600061074560148361054a565b91506107508261070f565b602082019050919050565b6000602082019050818103600083015261077481610738565b9050919050565b600081519050919050565b60005b838110156107a4578082015181840152602081019050610789565b838111156107b3576000848401525b50505050565b60006107c48261077b565b6107ce818561054a565b93506107de818560208601610786565b6107e78161031e565b840191505092915050565b6000602082019050818103600083015261080c81846107b9565b90509291505056fe4c6f636b61626c653a2043616e6e6f742073756273747261637420746f74616c20616d6f756e74207769746820636c61696d61626c65a264697066735822122099d0947fb3b8bdcc567494fe2a69f56d771ac5de3b15dc263b2bbcfaffe328d664736f6c634300080b0033","opcodes":"PUSH1 0x80 PUSH1 0x40 MSTORE CALLVALUE DUP1 ISZERO PUSH3 0x11 JUMPI PUSH1 0x0 DUP1 REVERT JUMPDEST POP PUSH1 0x40 MLOAD DUP1 PUSH1 0x40 ADD PUSH1 0x40 MSTORE DUP1 PUSH1 0x8 DUP2 MSTORE PUSH1 0x20 ADD PUSH32 0x54414C415845554D000000000000000000000000000000000000000000000000 DUP2 MSTORE POP PUSH1 0x40 MLOAD DUP1 PUSH1 0x40 ADD PUSH1 0x40 MSTORE DUP1 PUSH1 0x5 DUP2 MSTORE PUSH1 0x20 ADD PUSH32 0x54414C4158000000000000000000000000000000000000000000000000000000 DUP2 MSTORE POP DUP2 PUSH1 0x3 SWAP1 DUP1 MLOAD SWAP1 PUSH1 0x20 ADD SWAP1 PUSH3 0x96 SWAP3 SWAP2 SWAP1 PUSH3 0xC14 JUMP JUMPDEST POP DUP1 PUSH1 0x4 SWAP1 DUP1 MLOAD SWAP1 PUSH1 0x20 ADD SWAP1 PUSH3 0xAF SWAP3 SWAP2 SWAP1 PUSH3 0xC14 JUMP JUMPDEST POP POP POP PUSH3 0xD2 PUSH3 0xC6 PUSH3 0xAEE PUSH1 0x20 SHL PUSH1 0x20 SHR JUMP JUMPDEST PUSH3 0xAF6 PUSH1 0x20 SHL PUSH1 0x20 SHR JUMP JUMPDEST PUSH12 0x4BE37EA7317415C45800000 PUSH1 0x7 DUP2 SWAP1 SSTORE POP PUSH12 0x43DACAF91C1A84FF08000000 PUSH1 0xC DUP2 SWAP1 SSTORE POP PUSH1 0x40 MLOAD DUP1 PUSH1 0x40 ADD PUSH1 0x40 MSTORE DUP1 PUSH1 0x8 DUP2 MSTORE PUSH1 0x20 ADD PUSH32 0x54414C415845554D000000000000000000000000000000000000000000000000 DUP2 MSTORE POP PUSH1 0xD SWAP1 DUP1 MLOAD SWAP1 PUSH1 0x20 ADD SWAP1 PUSH3 0x145 SWAP3 SWAP2 SWAP1 PUSH3 0xC14 JUMP JUMPDEST POP PUSH1 0x40 MLOAD DUP1 PUSH1 0x40 ADD PUSH1 0x40 MSTORE DUP1 PUSH1 0x5 DUP2 MSTORE PUSH1 0x20 ADD PUSH32 0x54414C4158000000000000000000000000000000000000000000000000000000 DUP2 MSTORE POP PUSH1 0xE SWAP1 DUP1 MLOAD SWAP1 PUSH1 0x20 ADD SWAP1 PUSH3 0x193 SWAP3 SWAP2 SWAP1 PUSH3 0xC14 JUMP JUMPDEST POP PUSH1 0x1 PUSH1 0x10 PUSH1 0x0 PUSH2 0x100 EXP DUP2 SLOAD DUP2 PUSH1 0xFF MUL NOT AND SWAP1 DUP4 PUSH1 0xFF AND MUL OR SWAP1 SSTORE POP PUSH20 0x7A20DC6722563783E44BA8EDCA08C774621125E PUSH1 0x12 PUSH1 0x0 PUSH2 0x100 EXP DUP2 SLOAD DUP2 PUSH20 0xFFFFFFFFFFFFFFFFFFFFFFFFFFFFFFFFFFFFFFFF MUL NOT AND SWAP1 DUP4 PUSH20 0xFFFFFFFFFFFFFFFFFFFFFFFFFFFFFFFFFFFFFFFF AND MUL OR SWAP1 SSTORE POP PUSH20 0x2F838CF0DF38B2E91E747A01DDAE5EBAD5558B7A PUSH1 0x13 PUSH1 0x0 PUSH2 0x100 EXP DUP2 SLOAD DUP2 PUSH20 0xFFFFFFFFFFFFFFFFFFFFFFFFFFFFFFFFFFFFFFFF MUL NOT AND SWAP1 DUP4 PUSH20 0xFFFFFFFFFFFFFFFFFFFFFFFFFFFFFFFFFFFFFFFF AND MUL OR SWAP1 SSTORE POP PUSH20 0x45094071C4DAAF6A9A73B0A0F095A2B138BD8A3A PUSH1 0x14 PUSH1 0x0 PUSH2 0x100 EXP DUP2 SLOAD DUP2 PUSH20 0xFFFFFFFFFFFFFFFFFFFFFFFFFFFFFFFFFFFFFFFF MUL NOT AND SWAP1 DUP4 PUSH20 0xFFFFFFFFFFFFFFFFFFFFFFFFFFFFFFFFFFFFFFFF AND MUL OR SWAP1 SSTORE POP PUSH20 0xAEB26FB84D0E2B3B353CD50F0A29FD40C916D2AB PUSH1 0x15 PUSH1 0x0 PUSH2 0x100 EXP DUP2 SLOAD DUP2 PUSH20 0xFFFFFFFFFFFFFFFFFFFFFFFFFFFFFFFFFFFFFFFF MUL NOT AND SWAP1 DUP4 PUSH20 0xFFFFFFFFFFFFFFFFFFFFFFFFFFFFFFFFFFFFFFFF AND MUL OR SWAP1 SSTORE POP PUSH12 0x1484ED81CEBEB37B6800000 PUSH1 0xA PUSH1 0x0 PUSH20 0x5470C8FF25EC05980FC7C2967D076B8012298FE7 PUSH20 0xFFFFFFFFFFFFFFFFFFFFFFFFFFFFFFFFFFFFFFFF AND PUSH20 0xFFFFFFFFFFFFFFFFFFFFFFFFFFFFFFFFFFFFFFFF AND DUP2 MSTORE PUSH1 0x20 ADD SWAP1 DUP2 MSTORE PUSH1 0x20 ADD PUSH1 0x0 KECCAK256 DUP2 SWAP1 SSTORE POP PUSH12 0x3648A260E3486A65A000000 PUSH1 0xA PUSH1 0x0 PUSH1 0x10 PUSH1 0x2 SWAP1 SLOAD SWAP1 PUSH2 0x100 EXP SWAP1 DIV PUSH20 0xFFFFFFFFFFFFFFFFFFFFFFFFFFFFFFFFFFFFFFFF AND PUSH20 0xFFFFFFFFFFFFFFFFFFFFFFFFFFFFFFFFFFFFFFFF AND PUSH20 0xFFFFFFFFFFFFFFFFFFFFFFFFFFFFFFFFFFFFFFFF AND DUP2 MSTORE PUSH1 0x20 ADD SWAP1 DUP2 MSTORE PUSH1 0x20 ADD PUSH1 0x0 KECCAK256 DUP2 SWAP1 SSTORE POP PUSH12 0xD92289838D21A9968000000 PUSH1 0xF DUP2 SWAP1 SSTORE POP PUSH12 0xD92289838D21A9968000000 PUSH1 0xA PUSH1 0x0 ADDRESS PUSH20 0xFFFFFFFFFFFFFFFFFFFFFFFFFFFFFFFFFFFFFFFF AND PUSH20 0xFFFFFFFFFFFFFFFFFFFFFFFFFFFFFFFFFFFFFFFF AND DUP2 MSTORE PUSH1 0x20 ADD SWAP1 DUP2 MSTORE PUSH1 0x20 ADD PUSH1 0x0 KECCAK256 DUP2 SWAP1 SSTORE POP PUSH12 0x2427288F60130B77E800000 PUSH1 0x12 PUSH1 0x0 SWAP1 SLOAD SWAP1 PUSH2 0x100 EXP SWAP1 DIV PUSH20 0xFFFFFFFFFFFFFFFFFFFFFFFFFFFFFFFFFFFFFFFF AND PUSH1 0x40 MLOAD PUSH3 0x47B SWAP1 PUSH3 0xCA5 JUMP JUMPDEST PUSH3 0x488 SWAP3 SWAP2 SWAP1 PUSH3 0xD6E JUMP JUMPDEST PUSH1 0x40 MLOAD DUP1 SWAP2 SUB SWAP1 PUSH1 0x0 CREATE DUP1 ISZERO DUP1 ISZERO PUSH3 0x4A5 JUMPI RETURNDATASIZE PUSH1 0x0 DUP1 RETURNDATACOPY RETURNDATASIZE PUSH1 0x0 REVERT JUMPDEST POP PUSH1 0x16 PUSH1 0x0 PUSH2 0x100 EXP DUP2 SLOAD DUP2 PUSH20 0xFFFFFFFFFFFFFFFFFFFFFFFFFFFFFFFFFFFFFFFF MUL NOT AND SWAP1 DUP4 PUSH20 0xFFFFFFFFFFFFFFFFFFFFFFFFFFFFFFFFFFFFFFFF AND MUL OR SWAP1 SSTORE POP PUSH12 0x24306C4097859C43C000000 PUSH20 0xF09F65DD4D229E991901669AD7C7549F060E30B9 PUSH1 0x40 MLOAD PUSH3 0x516 SWAP1 PUSH3 0xCA5 JUMP JUMPDEST PUSH3 0x523 SWAP3 SWAP2 SWAP1 PUSH3 0xDDE JUMP JUMPDEST PUSH1 0x40 MLOAD DUP1 SWAP2 SUB SWAP1 PUSH1 0x0 CREATE DUP1 ISZERO DUP1 ISZERO PUSH3 0x540 JUMPI RETURNDATASIZE PUSH1 0x0 DUP1 RETURNDATACOPY RETURNDATASIZE PUSH1 0x0 REVERT JUMPDEST POP PUSH1 0x17 PUSH1 0x0 PUSH2 0x100 EXP DUP2 SLOAD DUP2 PUSH20 0xFFFFFFFFFFFFFFFFFFFFFFFFFFFFFFFFFFFFFFFF MUL NOT AND SWAP1 DUP4 PUSH20 0xFFFFFFFFFFFFFFFFFFFFFFFFFFFFFFFFFFFFFFFF AND MUL OR SWAP1 SSTORE POP PUSH12 0x24306C4097859C43C000000 PUSH20 0x1A2118E056D6AF192E233C2C9CFB34E067DED1F8 PUSH1 0x40 MLOAD PUSH3 0x5B1 SWAP1 PUSH3 0xCA5 JUMP JUMPDEST PUSH3 0x5BE SWAP3 SWAP2 SWAP1 PUSH3 0xDDE JUMP JUMPDEST PUSH1 0x40 MLOAD DUP1 SWAP2 SUB SWAP1 PUSH1 0x0 CREATE DUP1 ISZERO DUP1 ISZERO PUSH3 0x5DB JUMPI RETURNDATASIZE PUSH1 0x0 DUP1 RETURNDATACOPY RETURNDATASIZE PUSH1 0x0 REVERT JUMPDEST POP PUSH1 0x18 PUSH1 0x0 PUSH2 0x100 EXP DUP2 SLOAD DUP2 PUSH20 0xFFFFFFFFFFFFFFFFFFFFFFFFFFFFFFFFFFFFFFFF MUL NOT AND SWAP1 DUP4 PUSH20 0xFFFFFFFFFFFFFFFFFFFFFFFFFFFFFFFFFFFFFFFF AND MUL OR SWAP1 SSTORE POP PUSH12 0x24306C4097859C43C000000 PUSH20 0x126974FA373267D86FAB6D6871AFE62CCB68E810 PUSH1 0x40 MLOAD PUSH3 0x64C SWAP1 PUSH3 0xCA5 JUMP JUMPDEST PUSH3 0x659 SWAP3 SWAP2 SWAP1 PUSH3 0xDDE JUMP JUMPDEST PUSH1 0x40 MLOAD DUP1 SWAP2 SUB SWAP1 PUSH1 0x0 CREATE DUP1 ISZERO DUP1 ISZERO PUSH3 0x676 JUMPI RETURNDATASIZE PUSH1 0x0 DUP1 RETURNDATACOPY RETURNDATASIZE PUSH1 0x0 REVERT JUMPDEST POP PUSH1 0x19 PUSH1 0x0 PUSH2 0x100 EXP DUP2 SLOAD DUP2 PUSH20 0xFFFFFFFFFFFFFFFFFFFFFFFFFFFFFFFFFFFFFFFF MUL NOT AND SWAP1 DUP4 PUSH20 0xFFFFFFFFFFFFFFFFFFFFFFFFFFFFFFFFFFFFFFFF AND MUL OR SWAP1 SSTORE POP PUSH12 0x24306C4097859C43C000000 PUSH1 0x13 PUSH1 0x0 SWAP1 SLOAD SWAP1 PUSH2 0x100 EXP SWAP1 DIV PUSH20 0xFFFFFFFFFFFFFFFFFFFFFFFFFFFFFFFFFFFFFFFF AND PUSH1 0x40 MLOAD PUSH3 0x6F5 SWAP1 PUSH3 0xCA5 JUMP JUMPDEST PUSH3 0x702 SWAP3 SWAP2 SWAP1 PUSH3 0xDDE JUMP JUMPDEST PUSH1 0x40 MLOAD DUP1 SWAP2 SUB SWAP1 PUSH1 0x0 CREATE DUP1 ISZERO DUP1 ISZERO PUSH3 0x71F JUMPI RETURNDATASIZE PUSH1 0x0 DUP1 RETURNDATACOPY RETURNDATASIZE PUSH1 0x0 REVERT JUMPDEST POP PUSH1 0x1A PUSH1 0x0 PUSH2 0x100 EXP DUP2 SLOAD DUP2 PUSH20 0xFFFFFFFFFFFFFFFFFFFFFFFFFFFFFFFFFFFFFFFF MUL NOT AND SWAP1 DUP4 PUSH20 0xFFFFFFFFFFFFFFFFFFFFFFFFFFFFFFFFFFFFFFFF AND MUL OR SWAP1 SSTORE POP PUSH12 0x24306C4097859C43C000000 PUSH1 0x14 PUSH1 0x0 SWAP1 SLOAD SWAP1 PUSH2 0x100 EXP SWAP1 DIV PUSH20 0xFFFFFFFFFFFFFFFFFFFFFFFFFFFFFFFFFFFFFFFF AND PUSH1 0x40 MLOAD PUSH3 0x79E SWAP1 PUSH3 0xCA5 JUMP JUMPDEST PUSH3 0x7AB SWAP3 SWAP2 SWAP1 PUSH3 0xDDE JUMP JUMPDEST PUSH1 0x40 MLOAD DUP1 SWAP2 SUB SWAP1 PUSH1 0x0 CREATE DUP1 ISZERO DUP1 ISZERO PUSH3 0x7C8 JUMPI RETURNDATASIZE PUSH1 0x0 DUP1 RETURNDATACOPY RETURNDATASIZE PUSH1 0x0 REVERT JUMPDEST POP PUSH1 0x1B PUSH1 0x0 PUSH2 0x100 EXP DUP2 SLOAD DUP2 PUSH20 0xFFFFFFFFFFFFFFFFFFFFFFFFFFFFFFFFFFFFFFFF MUL NOT AND SWAP1 DUP4 PUSH20 0xFFFFFFFFFFFFFFFFFFFFFFFFFFFFFFFFFFFFFFFF AND MUL OR SWAP1 SSTORE POP PUSH12 0x24306C4097859C43C000000 PUSH1 0x15 PUSH1 0x0 SWAP1 SLOAD SWAP1 PUSH2 0x100 EXP SWAP1 DIV PUSH20 0xFFFFFFFFFFFFFFFFFFFFFFFFFFFFFFFFFFFFFFFF AND PUSH1 0x40 MLOAD PUSH3 0x847 SWAP1 PUSH3 0xCA5 JUMP JUMPDEST PUSH3 0x854 SWAP3 SWAP2 SWAP1 PUSH3 0xDDE JUMP JUMPDEST PUSH1 0x40 MLOAD DUP1 SWAP2 SUB SWAP1 PUSH1 0x0 CREATE DUP1 ISZERO DUP1 ISZERO PUSH3 0x871 JUMPI RETURNDATASIZE PUSH1 0x0 DUP1 RETURNDATACOPY RETURNDATASIZE PUSH1 0x0 REVERT JUMPDEST POP PUSH1 0x1C PUSH1 0x0 PUSH2 0x100 EXP DUP2 SLOAD DUP2 PUSH20 0xFFFFFFFFFFFFFFFFFFFFFFFFFFFFFFFFFFFFFFFF MUL NOT AND SWAP1 DUP4 PUSH20 0xFFFFFFFFFFFFFFFFFFFFFFFFFFFFFFFFFFFFFFFF AND MUL OR SWAP1 SSTORE POP PUSH12 0x24306C4097859C43C000000 PUSH20 0xE61E7A7D16DB384433E532FB85724E7F3BDAAE2F PUSH1 0x40 MLOAD PUSH3 0x8E2 SWAP1 PUSH3 0xCA5 JUMP JUMPDEST PUSH3 0x8EF SWAP3 SWAP2 SWAP1 PUSH3 0xDDE JUMP JUMPDEST PUSH1 0x40 MLOAD DUP1 SWAP2 SUB SWAP1 PUSH1 0x0 CREATE DUP1 ISZERO DUP1 ISZERO PUSH3 0x90C JUMPI RETURNDATASIZE PUSH1 0x0 DUP1 RETURNDATACOPY RETURNDATASIZE PUSH1 0x0 REVERT JUMPDEST POP PUSH1 0x1D PUSH1 0x0 PUSH2 0x100 EXP DUP2 SLOAD DUP2 PUSH20 0xFFFFFFFFFFFFFFFFFFFFFFFFFFFFFFFFFFFFFFFF MUL NOT AND SWAP1 DUP4 PUSH20 0xFFFFFFFFFFFFFFFFFFFFFFFFFFFFFFFFFFFFFFFF AND MUL OR SWAP1 SSTORE POP PUSH12 0x24306C4097859C43C000000 PUSH20 0x406605EB24A97A2D61B516D8D850F2AEFA6A731A PUSH1 0x40 MLOAD PUSH3 0x97D SWAP1 PUSH3 0xCA5 JUMP JUMPDEST PUSH3 0x98A SWAP3 SWAP2 SWAP1 PUSH3 0xDDE JUMP JUMPDEST PUSH1 0x40 MLOAD DUP1 SWAP2 SUB SWAP1 PUSH1 0x0 CREATE DUP1 ISZERO DUP1 ISZERO PUSH3 0x9A7 JUMPI RETURNDATASIZE PUSH1 0x0 DUP1 RETURNDATACOPY RETURNDATASIZE PUSH1 0x0 REVERT JUMPDEST POP PUSH1 0x1E PUSH1 0x0 PUSH2 0x100 EXP DUP2 SLOAD DUP2 PUSH20 0xFFFFFFFFFFFFFFFFFFFFFFFFFFFFFFFFFFFFFFFF MUL NOT AND SWAP1 DUP4 PUSH20 0xFFFFFFFFFFFFFFFFFFFFFFFFFFFFFFFFFFFFFFFF AND MUL OR SWAP1 SSTORE POP PUSH12 0x24306C4097859C43C000000 PUSH20 0x97620DEADC98BC8173303686037CE7B986CF53C3 PUSH1 0x40 MLOAD PUSH3 0xA18 SWAP1 PUSH3 0xCA5 JUMP JUMPDEST PUSH3 0xA25 SWAP3 SWAP2 SWAP1 PUSH3 0xDDE JUMP JUMPDEST PUSH1 0x40 MLOAD DUP1 SWAP2 SUB SWAP1 PUSH1 0x0 CREATE DUP1 ISZERO DUP1 ISZERO PUSH3 0xA42 JUMPI RETURNDATASIZE PUSH1 0x0 DUP1 RETURNDATACOPY RETURNDATASIZE PUSH1 0x0 REVERT JUMPDEST POP PUSH1 0x1F PUSH1 0x0 PUSH2 0x100 EXP DUP2 SLOAD DUP2 PUSH20 0xFFFFFFFFFFFFFFFFFFFFFFFFFFFFFFFFFFFFFFFF MUL NOT AND SWAP1 DUP4 PUSH20 0xFFFFFFFFFFFFFFFFFFFFFFFFFFFFFFFFFFFFFFFF AND MUL OR SWAP1 SSTORE POP PUSH3 0xAE2 PUSH12 0x2D9AE8EE2246267158800000 PUSH1 0x40 MLOAD DUP1 PUSH1 0x40 ADD PUSH1 0x40 MSTORE DUP1 PUSH1 0x19 DUP2 MSTORE PUSH1 0x20 ADD PUSH32 0x496E73756666696369656E7420546F74616C20537570706C7900000000000000 DUP2 MSTORE POP PUSH1 0xC SLOAD PUSH3 0xBBC PUSH1 0x20 SHL PUSH3 0x33A3 OR SWAP1 SWAP3 SWAP2 SWAP1 PUSH1 0x20 SHR JUMP JUMPDEST PUSH1 0xC DUP2 SWAP1 SSTORE POP PUSH3 0xF38 JUMP JUMPDEST PUSH1 0x0 CALLER SWAP1 POP SWAP1 JUMP JUMPDEST PUSH1 0x0 PUSH1 0x5 PUSH1 0x0 SWAP1 SLOAD SWAP1 PUSH2 0x100 EXP SWAP1 DIV PUSH20 0xFFFFFFFFFFFFFFFFFFFFFFFFFFFFFFFFFFFFFFFF AND SWAP1 POP DUP2 PUSH1 0x5 PUSH1 0x0 PUSH2 0x100 EXP DUP2 SLOAD DUP2 PUSH20 0xFFFFFFFFFFFFFFFFFFFFFFFFFFFFFFFFFFFFFFFF MUL NOT AND SWAP1 DUP4 PUSH20 0xFFFFFFFFFFFFFFFFFFFFFFFFFFFFFFFFFFFFFFFF AND MUL OR SWAP1 SSTORE POP DUP2 PUSH20 0xFFFFFFFFFFFFFFFFFFFFFFFFFFFFFFFFFFFFFFFF AND DUP2 PUSH20 0xFFFFFFFFFFFFFFFFFFFFFFFFFFFFFFFFFFFFFFFF AND PUSH32 0x8BE0079C531659141344CD1FD0A4F28419497F9722A3DAAFE3B4186F6B6457E0 PUSH1 0x40 MLOAD PUSH1 0x40 MLOAD DUP1 SWAP2 SUB SWAP1 LOG3 POP POP JUMP JUMPDEST PUSH1 0x0 DUP4 DUP4 GT ISZERO DUP3 SWAP1 PUSH3 0xC07 JUMPI PUSH1 0x40 MLOAD PUSH32 0x8C379A000000000000000000000000000000000000000000000000000000000 DUP2 MSTORE PUSH1 0x4 ADD PUSH3 0xBFE SWAP2 SWAP1 PUSH3 0xEAF JUMP JUMPDEST PUSH1 0x40 MLOAD DUP1 SWAP2 SUB SWAP1 REVERT JUMPDEST POP DUP3 DUP5 SUB SWAP1 POP SWAP4 SWAP3 POP POP POP JUMP JUMPDEST DUP3 DUP1 SLOAD PUSH3 0xC22 SWAP1 PUSH3 0xF02 JUMP JUMPDEST SWAP1 PUSH1 0x0 MSTORE PUSH1 0x20 PUSH1 0x0 KECCAK256 SWAP1 PUSH1 0x1F ADD PUSH1 0x20 SWAP1 DIV DUP2 ADD SWAP3 DUP3 PUSH3 0xC46 JUMPI PUSH1 0x0 DUP6 SSTORE PUSH3 0xC92 JUMP JUMPDEST DUP3 PUSH1 0x1F LT PUSH3 0xC61 JUMPI DUP1 MLOAD PUSH1 0xFF NOT AND DUP4 DUP1 ADD OR DUP6 SSTORE PUSH3 0xC92 JUMP JUMPDEST DUP3 DUP1 ADD PUSH1 0x1 ADD DUP6 SSTORE DUP3 ISZERO PUSH3 0xC92 JUMPI SWAP2 DUP3 ADD JUMPDEST DUP3 DUP2 GT ISZERO PUSH3 0xC91 JUMPI DUP3 MLOAD DUP3 SSTORE SWAP2 PUSH1 0x20 ADD SWAP2 SWAP1 PUSH1 0x1 ADD SWAP1 PUSH3 0xC74 JUMP JUMPDEST JUMPDEST POP SWAP1 POP PUSH3 0xCA1 SWAP2 SWAP1 PUSH3 0xCB3 JUMP JUMPDEST POP SWAP1 JUMP JUMPDEST PUSH2 0xA29 DUP1 PUSH3 0x8155 DUP4 CODECOPY ADD SWAP1 JUMP JUMPDEST JUMPDEST DUP1 DUP3 GT ISZERO PUSH3 0xCCE JUMPI PUSH1 0x0 DUP2 PUSH1 0x0 SWAP1 SSTORE POP PUSH1 0x1 ADD PUSH3 0xCB4 JUMP JUMPDEST POP SWAP1 JUMP JUMPDEST PUSH1 0x0 DUP2 SWAP1 POP SWAP2 SWAP1 POP JUMP JUMPDEST PUSH1 0x0 DUP2 SWAP1 POP SWAP2 SWAP1 POP JUMP JUMPDEST PUSH1 0x0 DUP2 SWAP1 POP SWAP2 SWAP1 POP JUMP JUMPDEST PUSH1 0x0 PUSH3 0xD11 PUSH3 0xD0B PUSH3 0xD05 DUP5 PUSH3 0xCD2 JUMP JUMPDEST PUSH3 0xCE6 JUMP JUMPDEST PUSH3 0xCDC JUMP JUMPDEST SWAP1 POP SWAP2 SWAP1 POP JUMP JUMPDEST PUSH3 0xD23 DUP2 PUSH3 0xCF0 JUMP JUMPDEST DUP3 MSTORE POP POP JUMP JUMPDEST PUSH1 0x0 PUSH20 0xFFFFFFFFFFFFFFFFFFFFFFFFFFFFFFFFFFFFFFFF DUP3 AND SWAP1 POP SWAP2 SWAP1 POP JUMP JUMPDEST PUSH1 0x0 PUSH3 0xD56 DUP3 PUSH3 0xD29 JUMP JUMPDEST SWAP1 POP SWAP2 SWAP1 POP JUMP JUMPDEST PUSH3 0xD68 DUP2 PUSH3 0xD49 JUMP JUMPDEST DUP3 MSTORE POP POP JUMP JUMPDEST PUSH1 0x0 PUSH1 0x40 DUP3 ADD SWAP1 POP PUSH3 0xD85 PUSH1 0x0 DUP4 ADD DUP6 PUSH3 0xD18 JUMP JUMPDEST PUSH3 0xD94 PUSH1 0x20 DUP4 ADD DUP5 PUSH3 0xD5D JUMP JUMPDEST SWAP4 SWAP3 POP POP POP JUMP JUMPDEST PUSH1 0x0 DUP2 SWAP1 POP SWAP2 SWAP1 POP JUMP JUMPDEST PUSH1 0x0 PUSH3 0xDC6 PUSH3 0xDC0 PUSH3 0xDBA DUP5 PUSH3 0xD9B JUMP JUMPDEST PUSH3 0xCE6 JUMP JUMPDEST PUSH3 0xCDC JUMP JUMPDEST SWAP1 POP SWAP2 SWAP1 POP JUMP JUMPDEST PUSH3 0xDD8 DUP2 PUSH3 0xDA5 JUMP JUMPDEST DUP3 MSTORE POP POP JUMP JUMPDEST PUSH1 0x0 PUSH1 0x40 DUP3 ADD SWAP1 POP PUSH3 0xDF5 PUSH1 0x0 DUP4 ADD DUP6 PUSH3 0xDCD JUMP JUMPDEST PUSH3 0xE04 PUSH1 0x20 DUP4 ADD DUP5 PUSH3 0xD5D JUMP JUMPDEST SWAP4 SWAP3 POP POP POP JUMP JUMPDEST PUSH1 0x0 DUP2 MLOAD SWAP1 POP SWAP2 SWAP1 POP JUMP JUMPDEST PUSH1 0x0 DUP3 DUP3 MSTORE PUSH1 0x20 DUP3 ADD SWAP1 POP SWAP3 SWAP2 POP POP JUMP JUMPDEST PUSH1 0x0 JUMPDEST DUP4 DUP2 LT ISZERO PUSH3 0xE47 JUMPI DUP1 DUP3 ADD MLOAD DUP2 DUP5 ADD MSTORE PUSH1 0x20 DUP2 ADD SWAP1 POP PUSH3 0xE2A JUMP JUMPDEST DUP4 DUP2 GT ISZERO PUSH3 0xE57 JUMPI PUSH1 0x0 DUP5 DUP5 ADD MSTORE JUMPDEST POP POP POP POP JUMP JUMPDEST PUSH1 0x0 PUSH1 0x1F NOT PUSH1 0x1F DUP4 ADD AND SWAP1 POP SWAP2 SWAP1 POP JUMP JUMPDEST PUSH1 0x0 PUSH3 0xE7B DUP3 PUSH3 0xE0B JUMP JUMPDEST PUSH3 0xE87 DUP2 DUP6 PUSH3 0xE16 JUMP JUMPDEST SWAP4 POP PUSH3 0xE99 DUP2 DUP6 PUSH1 0x20 DUP7 ADD PUSH3 0xE27 JUMP JUMPDEST PUSH3 0xEA4 DUP2 PUSH3 0xE5D JUMP JUMPDEST DUP5 ADD SWAP2 POP POP SWAP3 SWAP2 POP POP JUMP JUMPDEST PUSH1 0x0 PUSH1 0x20 DUP3 ADD SWAP1 POP DUP2 DUP2 SUB PUSH1 0x0 DUP4 ADD MSTORE PUSH3 0xECB DUP2 DUP5 PUSH3 0xE6E JUMP JUMPDEST SWAP1 POP SWAP3 SWAP2 POP POP JUMP JUMPDEST PUSH32 0x4E487B7100000000000000000000000000000000000000000000000000000000 PUSH1 0x0 MSTORE PUSH1 0x22 PUSH1 0x4 MSTORE PUSH1 0x24 PUSH1 0x0 REVERT JUMPDEST PUSH1 0x0 PUSH1 0x2 DUP3 DIV SWAP1 POP PUSH1 0x1 DUP3 AND DUP1 PUSH3 0xF1B JUMPI PUSH1 0x7F DUP3 AND SWAP2 POP JUMPDEST PUSH1 0x20 DUP3 LT DUP2 EQ ISZERO PUSH3 0xF32 JUMPI PUSH3 0xF31 PUSH3 0xED3 JUMP JUMPDEST JUMPDEST POP SWAP2 SWAP1 POP JUMP JUMPDEST PUSH2 0x720D DUP1 PUSH3 0xF48 PUSH1 0x0 CODECOPY PUSH1 0x0 RETURN INVALID PUSH1 0x80 PUSH1 0x40 MSTORE PUSH1 0x4 CALLDATASIZE LT PUSH2 0x297 JUMPI PUSH1 0x0 CALLDATALOAD PUSH1 0xE0 SHR DUP1 PUSH4 0x8378A875 GT PUSH2 0x15A JUMPI DUP1 PUSH4 0xA457C2D7 GT PUSH2 0xC1 JUMPI DUP1 PUSH4 0xC680111C GT PUSH2 0x7A JUMPI DUP1 PUSH4 0xC680111C EQ PUSH2 0x916 JUMPI DUP1 PUSH4 0xD94D4AD6 EQ PUSH2 0x941 JUMPI DUP1 PUSH4 0xD9DC2D8D EQ PUSH2 0x96A JUMPI DUP1 PUSH4 0xDD62ED3E EQ PUSH2 0x995 JUMPI DUP1 PUSH4 0xF2FDE38B EQ PUSH2 0x9D2 JUMPI DUP1 PUSH4 0xF3388E75 EQ PUSH2 0x9FB JUMPI PUSH2 0x2A7 JUMP JUMPDEST DUP1 PUSH4 0xA457C2D7 EQ PUSH2 0x804 JUMPI DUP1 PUSH4 0xA837A65E EQ PUSH2 0x841 JUMPI DUP1 PUSH4 0xA9059CBB EQ PUSH2 0x86C JUMPI DUP1 PUSH4 0xAC67574F EQ PUSH2 0x8A9 JUMPI DUP1 PUSH4 0xB8DD0099 EQ PUSH2 0x8C0 JUMPI DUP1 PUSH4 0xBAD4346C EQ PUSH2 0x8EB JUMPI PUSH2 0x2A7 JUMP JUMPDEST DUP1 PUSH4 0x934851EC GT PUSH2 0x113 JUMPI DUP1 PUSH4 0x934851EC EQ PUSH2 0x71A JUMPI DUP1 PUSH4 0x95D89B41 EQ PUSH2 0x731 JUMPI DUP1 PUSH4 0xA071DCF4 EQ PUSH2 0x75C JUMPI DUP1 PUSH4 0xA1F780CF EQ PUSH2 0x787 JUMPI DUP1 PUSH4 0xA25A17A7 EQ PUSH2 0x7B0 JUMPI DUP1 PUSH4 0xA3626DBB EQ PUSH2 0x7D9 JUMPI PUSH2 0x2A7 JUMP JUMPDEST DUP1 PUSH4 0x8378A875 EQ PUSH2 0x656 JUMPI DUP1 PUSH4 0x883D9984 EQ PUSH2 0x66D JUMPI DUP1 PUSH4 0x8B2B423A EQ PUSH2 0x684 JUMPI DUP1 PUSH4 0x8B7C64DA EQ PUSH2 0x6AF JUMPI DUP1 PUSH4 0x8DA5CB5B EQ PUSH2 0x6D8 JUMPI DUP1 PUSH4 0x90A4C709 EQ PUSH2 0x703 JUMPI PUSH2 0x2A7 JUMP JUMPDEST DUP1 PUSH4 0x40C10F19 GT PUSH2 0x1FE JUMPI DUP1 PUSH4 0x70A08231 GT PUSH2 0x1B7 JUMPI DUP1 PUSH4 0x70A08231 EQ PUSH2 0x594 JUMPI DUP1 PUSH4 0x715018A6 EQ PUSH2 0x5D1 JUMPI DUP1 PUSH4 0x78DC9315 EQ PUSH2 0x5E8 JUMPI DUP1 PUSH4 0x79CC6790 EQ PUSH2 0x5FF JUMPI DUP1 PUSH4 0x7BB4E320 EQ PUSH2 0x628 JUMPI DUP1 PUSH4 0x7C2412F9 EQ PUSH2 0x63F JUMPI PUSH2 0x2A7 JUMP JUMPDEST DUP1 PUSH4 0x40C10F19 EQ PUSH2 0x4AE JUMPI DUP1 PUSH4 0x42966C68 EQ PUSH2 0x4D7 JUMPI DUP1 PUSH4 0x45DF0238 EQ PUSH2 0x500 JUMPI DUP1 PUSH4 0x471A30A2 EQ PUSH2 0x529 JUMPI DUP1 PUSH4 0x549DEE0B EQ PUSH2 0x552 JUMPI DUP1 PUSH4 0x56029137 EQ PUSH2 0x57D JUMPI PUSH2 0x2A7 JUMP JUMPDEST DUP1 PUSH4 0x19CA147D GT PUSH2 0x250 JUMPI DUP1 PUSH4 0x19CA147D EQ PUSH2 0x39C JUMPI DUP1 PUSH4 0x23B872DD EQ PUSH2 0x3C7 JUMPI DUP1 PUSH4 0x313CE567 EQ PUSH2 0x404 JUMPI DUP1 PUSH4 0x338DBF59 EQ PUSH2 0x42F JUMPI DUP1 PUSH4 0x39509351 EQ PUSH2 0x45A JUMPI DUP1 PUSH4 0x3F3EF2DC EQ PUSH2 0x497 JUMPI PUSH2 0x2A7 JUMP JUMPDEST DUP1 PUSH4 0x6FDDE03 EQ PUSH2 0x2B2 JUMPI DUP1 PUSH4 0x78F522F EQ PUSH2 0x2DD JUMPI DUP1 PUSH4 0x95EA7B3 EQ PUSH2 0x306 JUMPI DUP1 PUSH4 0xEC5AA1A EQ PUSH2 0x343 JUMPI DUP1 PUSH4 0x15441BB9 EQ PUSH2 0x35A JUMPI DUP1 PUSH4 0x18160DDD EQ PUSH2 0x371 JUMPI PUSH2 0x2A7 JUMP JUMPDEST CALLDATASIZE PUSH2 0x2A7 JUMPI PUSH2 0x2A5 CALLVALUE PUSH2 0xA26 JUMP JUMPDEST STOP JUMPDEST PUSH2 0x2B0 CALLVALUE PUSH2 0xA26 JUMP JUMPDEST STOP JUMPDEST CALLVALUE DUP1 ISZERO PUSH2 0x2BE JUMPI PUSH1 0x0 DUP1 REVERT JUMPDEST POP PUSH2 0x2C7 PUSH2 0xC70 JUMP JUMPDEST PUSH1 0x40 MLOAD PUSH2 0x2D4 SWAP2 SWAP1 PUSH2 0x5B66 JUMP JUMPDEST PUSH1 0x40 MLOAD DUP1 SWAP2 SUB SWAP1 RETURN JUMPDEST CALLVALUE DUP1 ISZERO PUSH2 0x2E9 JUMPI PUSH1 0x0 DUP1 REVERT JUMPDEST POP PUSH2 0x304 PUSH1 0x4 DUP1 CALLDATASIZE SUB DUP2 ADD SWAP1 PUSH2 0x2FF SWAP2 SWAP1 PUSH2 0x5BF7 JUMP JUMPDEST PUSH2 0xD02 JUMP JUMPDEST STOP JUMPDEST CALLVALUE DUP1 ISZERO PUSH2 0x312 JUMPI PUSH1 0x0 DUP1 REVERT JUMPDEST POP PUSH2 0x32D PUSH1 0x4 DUP1 CALLDATASIZE SUB DUP2 ADD SWAP1 PUSH2 0x328 SWAP2 SWAP1 PUSH2 0x5CD8 JUMP JUMPDEST PUSH2 0xE40 JUMP JUMPDEST PUSH1 0x40 MLOAD PUSH2 0x33A SWAP2 SWAP1 PUSH2 0x5D33 JUMP JUMPDEST PUSH1 0x40 MLOAD DUP1 SWAP2 SUB SWAP1 RETURN JUMPDEST CALLVALUE DUP1 ISZERO PUSH2 0x34F JUMPI PUSH1 0x0 DUP1 REVERT JUMPDEST POP PUSH2 0x358 PUSH2 0xE63 JUMP JUMPDEST STOP JUMPDEST CALLVALUE DUP1 ISZERO PUSH2 0x366 JUMPI PUSH1 0x0 DUP1 REVERT JUMPDEST POP PUSH2 0x36F PUSH2 0x1055 JUMP JUMPDEST STOP JUMPDEST CALLVALUE DUP1 ISZERO PUSH2 0x37D JUMPI PUSH1 0x0 DUP1 REVERT JUMPDEST POP PUSH2 0x386 PUSH2 0x1247 JUMP JUMPDEST PUSH1 0x40 MLOAD PUSH2 0x393 SWAP2 SWAP1 PUSH2 0x5D5D JUMP JUMPDEST PUSH1 0x40 MLOAD DUP1 SWAP2 SUB SWAP1 RETURN JUMPDEST CALLVALUE DUP1 ISZERO PUSH2 0x3A8 JUMPI PUSH1 0x0 DUP1 REVERT JUMPDEST POP PUSH2 0x3B1 PUSH2 0x1251 JUMP JUMPDEST PUSH1 0x40 MLOAD PUSH2 0x3BE SWAP2 SWAP1 PUSH2 0x5DEB JUMP JUMPDEST PUSH1 0x40 MLOAD DUP1 SWAP2 SUB SWAP1 RETURN JUMPDEST CALLVALUE DUP1 ISZERO PUSH2 0x3D3 JUMPI PUSH1 0x0 DUP1 REVERT JUMPDEST POP PUSH2 0x3EE PUSH1 0x4 DUP1 CALLDATASIZE SUB DUP2 ADD SWAP1 PUSH2 0x3E9 SWAP2 SWAP1 PUSH2 0x5E06 JUMP JUMPDEST PUSH2 0x12E1 JUMP JUMPDEST PUSH1 0x40 MLOAD PUSH2 0x3FB SWAP2 SWAP1 PUSH2 0x5D33 JUMP JUMPDEST PUSH1 0x40 MLOAD DUP1 SWAP2 SUB SWAP1 RETURN JUMPDEST CALLVALUE DUP1 ISZERO PUSH2 0x410 JUMPI PUSH1 0x0 DUP1 REVERT JUMPDEST POP PUSH2 0x419 PUSH2 0x1310 JUMP JUMPDEST PUSH1 0x40 MLOAD PUSH2 0x426 SWAP2 SWAP1 PUSH2 0x5E75 JUMP JUMPDEST PUSH1 0x40 MLOAD DUP1 SWAP2 SUB SWAP1 RETURN JUMPDEST CALLVALUE DUP1 ISZERO PUSH2 0x43B JUMPI PUSH1 0x0 DUP1 REVERT JUMPDEST POP PUSH2 0x444 PUSH2 0x1319 JUMP JUMPDEST PUSH1 0x40 MLOAD PUSH2 0x451 SWAP2 SWAP1 PUSH2 0x5D5D JUMP JUMPDEST PUSH1 0x40 MLOAD DUP1 SWAP2 SUB SWAP1 RETURN JUMPDEST CALLVALUE DUP1 ISZERO PUSH2 0x466 JUMPI PUSH1 0x0 DUP1 REVERT JUMPDEST POP PUSH2 0x481 PUSH1 0x4 DUP1 CALLDATASIZE SUB DUP2 ADD SWAP1 PUSH2 0x47C SWAP2 SWAP1 PUSH2 0x5CD8 JUMP JUMPDEST PUSH2 0x131F JUMP JUMPDEST PUSH1 0x40 MLOAD PUSH2 0x48E SWAP2 SWAP1 PUSH2 0x5D33 JUMP JUMPDEST PUSH1 0x40 MLOAD DUP1 SWAP2 SUB SWAP1 RETURN JUMPDEST CALLVALUE DUP1 ISZERO PUSH2 0x4A3 JUMPI PUSH1 0x0 DUP1 REVERT JUMPDEST POP PUSH2 0x4AC PUSH2 0x1356 JUMP JUMPDEST STOP JUMPDEST CALLVALUE DUP1 ISZERO PUSH2 0x4BA JUMPI PUSH1 0x0 DUP1 REVERT JUMPDEST POP PUSH2 0x4D5 PUSH1 0x4 DUP1 CALLDATASIZE SUB DUP2 ADD SWAP1 PUSH2 0x4D0 SWAP2 SWAP1 PUSH2 0x5CD8 JUMP JUMPDEST PUSH2 0x1548 JUMP JUMPDEST STOP JUMPDEST CALLVALUE DUP1 ISZERO PUSH2 0x4E3 JUMPI PUSH1 0x0 DUP1 REVERT JUMPDEST POP PUSH2 0x4FE PUSH1 0x4 DUP1 CALLDATASIZE SUB DUP2 ADD SWAP1 PUSH2 0x4F9 SWAP2 SWAP1 PUSH2 0x5E90 JUMP JUMPDEST PUSH2 0x155E JUMP JUMPDEST STOP JUMPDEST CALLVALUE DUP1 ISZERO PUSH2 0x50C JUMPI PUSH1 0x0 DUP1 REVERT JUMPDEST POP PUSH2 0x527 PUSH1 0x4 DUP1 CALLDATASIZE SUB DUP2 ADD SWAP1 PUSH2 0x522 SWAP2 SWAP1 PUSH2 0x5EBD JUMP JUMPDEST PUSH2 0x1572 JUMP JUMPDEST STOP JUMPDEST CALLVALUE DUP1 ISZERO PUSH2 0x535 JUMPI PUSH1 0x0 DUP1 REVERT JUMPDEST POP PUSH2 0x550 PUSH1 0x4 DUP1 CALLDATASIZE SUB DUP2 ADD SWAP1 PUSH2 0x54B SWAP2 SWAP1 PUSH2 0x5F3C JUMP JUMPDEST PUSH2 0x16BE JUMP JUMPDEST STOP JUMPDEST CALLVALUE DUP1 ISZERO PUSH2 0x55E JUMPI PUSH1 0x0 DUP1 REVERT JUMPDEST POP PUSH2 0x567 PUSH2 0x177F JUMP JUMPDEST PUSH1 0x40 MLOAD PUSH2 0x574 SWAP2 SWAP1 PUSH2 0x5D5D JUMP JUMPDEST PUSH1 0x40 MLOAD DUP1 SWAP2 SUB SWAP1 RETURN JUMPDEST CALLVALUE DUP1 ISZERO PUSH2 0x589 JUMPI PUSH1 0x0 DUP1 REVERT JUMPDEST POP PUSH2 0x592 PUSH2 0x1785 JUMP JUMPDEST STOP JUMPDEST CALLVALUE DUP1 ISZERO PUSH2 0x5A0 JUMPI PUSH1 0x0 DUP1 REVERT JUMPDEST POP PUSH2 0x5BB PUSH1 0x4 DUP1 CALLDATASIZE SUB DUP2 ADD SWAP1 PUSH2 0x5B6 SWAP2 SWAP1 PUSH2 0x5F69 JUMP JUMPDEST PUSH2 0x1977 JUMP JUMPDEST PUSH1 0x40 MLOAD PUSH2 0x5C8 SWAP2 SWAP1 PUSH2 0x5D5D JUMP JUMPDEST PUSH1 0x40 MLOAD DUP1 SWAP2 SUB SWAP1 RETURN JUMPDEST CALLVALUE DUP1 ISZERO PUSH2 0x5DD JUMPI PUSH1 0x0 DUP1 REVERT JUMPDEST POP PUSH2 0x5E6 PUSH2 0x19C0 JUMP JUMPDEST STOP JUMPDEST CALLVALUE DUP1 ISZERO PUSH2 0x5F4 JUMPI PUSH1 0x0 DUP1 REVERT JUMPDEST POP PUSH2 0x5FD PUSH2 0x19D4 JUMP JUMPDEST STOP JUMPDEST CALLVALUE DUP1 ISZERO PUSH2 0x60B JUMPI PUSH1 0x0 DUP1 REVERT JUMPDEST POP PUSH2 0x626 PUSH1 0x4 DUP1 CALLDATASIZE SUB DUP2 ADD SWAP1 PUSH2 0x621 SWAP2 SWAP1 PUSH2 0x5CD8 JUMP JUMPDEST PUSH2 0x1BC6 JUMP JUMPDEST STOP JUMPDEST CALLVALUE DUP1 ISZERO PUSH2 0x634 JUMPI PUSH1 0x0 DUP1 REVERT JUMPDEST POP PUSH2 0x63D PUSH2 0x1BE6 JUMP JUMPDEST STOP JUMPDEST CALLVALUE DUP1 ISZERO PUSH2 0x64B JUMPI PUSH1 0x0 DUP1 REVERT JUMPDEST POP PUSH2 0x654 PUSH2 0x1DD8 JUMP JUMPDEST STOP JUMPDEST CALLVALUE DUP1 ISZERO PUSH2 0x662 JUMPI PUSH1 0x0 DUP1 REVERT JUMPDEST POP PUSH2 0x66B PUSH2 0x1E94 JUMP JUMPDEST STOP JUMPDEST CALLVALUE DUP1 ISZERO PUSH2 0x679 JUMPI PUSH1 0x0 DUP1 REVERT JUMPDEST POP PUSH2 0x682 PUSH2 0x2086 JUMP JUMPDEST STOP JUMPDEST CALLVALUE DUP1 ISZERO PUSH2 0x690 JUMPI PUSH1 0x0 DUP1 REVERT JUMPDEST POP PUSH2 0x699 PUSH2 0x2278 JUMP JUMPDEST PUSH1 0x40 MLOAD PUSH2 0x6A6 SWAP2 SWAP1 PUSH2 0x5D5D JUMP JUMPDEST PUSH1 0x40 MLOAD DUP1 SWAP2 SUB SWAP1 RETURN JUMPDEST CALLVALUE DUP1 ISZERO PUSH2 0x6BB JUMPI PUSH1 0x0 DUP1 REVERT JUMPDEST POP PUSH2 0x6D6 PUSH1 0x4 DUP1 CALLDATASIZE SUB DUP2 ADD SWAP1 PUSH2 0x6D1 SWAP2 SWAP1 PUSH2 0x5E90 JUMP JUMPDEST PUSH2 0x227E JUMP JUMPDEST STOP JUMPDEST CALLVALUE DUP1 ISZERO PUSH2 0x6E4 JUMPI PUSH1 0x0 DUP1 REVERT JUMPDEST POP PUSH2 0x6ED PUSH2 0x239F JUMP JUMPDEST PUSH1 0x40 MLOAD PUSH2 0x6FA SWAP2 SWAP1 PUSH2 0x5FA5 JUMP JUMPDEST PUSH1 0x40 MLOAD DUP1 SWAP2 SUB SWAP1 RETURN JUMPDEST CALLVALUE DUP1 ISZERO PUSH2 0x70F JUMPI PUSH1 0x0 DUP1 REVERT JUMPDEST POP PUSH2 0x718 PUSH2 0x23C9 JUMP JUMPDEST STOP JUMPDEST CALLVALUE DUP1 ISZERO PUSH2 0x726 JUMPI PUSH1 0x0 DUP1 REVERT JUMPDEST POP PUSH2 0x72F PUSH2 0x25BB JUMP JUMPDEST STOP JUMPDEST CALLVALUE DUP1 ISZERO PUSH2 0x73D JUMPI PUSH1 0x0 DUP1 REVERT JUMPDEST POP PUSH2 0x746 PUSH2 0x27AD JUMP JUMPDEST PUSH1 0x40 MLOAD PUSH2 0x753 SWAP2 SWAP1 PUSH2 0x5B66 JUMP JUMPDEST PUSH1 0x40 MLOAD DUP1 SWAP2 SUB SWAP1 RETURN JUMPDEST CALLVALUE DUP1 ISZERO PUSH2 0x768 JUMPI PUSH1 0x0 DUP1 REVERT JUMPDEST POP PUSH2 0x771 PUSH2 0x283F JUMP JUMPDEST PUSH1 0x40 MLOAD PUSH2 0x77E SWAP2 SWAP1 PUSH2 0x5E75 JUMP JUMPDEST PUSH1 0x40 MLOAD DUP1 SWAP2 SUB SWAP1 RETURN JUMPDEST CALLVALUE DUP1 ISZERO PUSH2 0x793 JUMPI PUSH1 0x0 DUP1 REVERT JUMPDEST POP PUSH2 0x7AE PUSH1 0x4 DUP1 CALLDATASIZE SUB DUP2 ADD SWAP1 PUSH2 0x7A9 SWAP2 SWAP1 PUSH2 0x6016 JUMP JUMPDEST PUSH2 0x2852 JUMP JUMPDEST STOP JUMPDEST CALLVALUE DUP1 ISZERO PUSH2 0x7BC JUMPI PUSH1 0x0 DUP1 REVERT JUMPDEST POP PUSH2 0x7D7 PUSH1 0x4 DUP1 CALLDATASIZE SUB DUP2 ADD SWAP1 PUSH2 0x7D2 SWAP2 SWAP1 PUSH2 0x5F69 JUMP JUMPDEST PUSH2 0x294C JUMP JUMPDEST STOP JUMPDEST CALLVALUE DUP1 ISZERO PUSH2 0x7E5 JUMPI PUSH1 0x0 DUP1 REVERT JUMPDEST POP PUSH2 0x7EE PUSH2 0x29DB JUMP JUMPDEST PUSH1 0x40 MLOAD PUSH2 0x7FB SWAP2 SWAP1 PUSH2 0x5FA5 JUMP JUMPDEST PUSH1 0x40 MLOAD DUP1 SWAP2 SUB SWAP1 RETURN JUMPDEST CALLVALUE DUP1 ISZERO PUSH2 0x810 JUMPI PUSH1 0x0 DUP1 REVERT JUMPDEST POP PUSH2 0x82B PUSH1 0x4 DUP1 CALLDATASIZE SUB DUP2 ADD SWAP1 PUSH2 0x826 SWAP2 SWAP1 PUSH2 0x5CD8 JUMP JUMPDEST PUSH2 0x2A01 JUMP JUMPDEST PUSH1 0x40 MLOAD PUSH2 0x838 SWAP2 SWAP1 PUSH2 0x5D33 JUMP JUMPDEST PUSH1 0x40 MLOAD DUP1 SWAP2 SUB SWAP1 RETURN JUMPDEST CALLVALUE DUP1 ISZERO PUSH2 0x84D JUMPI PUSH1 0x0 DUP1 REVERT JUMPDEST POP PUSH2 0x856 PUSH2 0x2A78 JUMP JUMPDEST PUSH1 0x40 MLOAD PUSH2 0x863 SWAP2 SWAP1 PUSH2 0x5FA5 JUMP JUMPDEST PUSH1 0x40 MLOAD DUP1 SWAP2 SUB SWAP1 RETURN JUMPDEST CALLVALUE DUP1 ISZERO PUSH2 0x878 JUMPI PUSH1 0x0 DUP1 REVERT JUMPDEST POP PUSH2 0x893 PUSH1 0x4 DUP1 CALLDATASIZE SUB DUP2 ADD SWAP1 PUSH2 0x88E SWAP2 SWAP1 PUSH2 0x5CD8 JUMP JUMPDEST PUSH2 0x2A9E JUMP JUMPDEST PUSH1 0x40 MLOAD PUSH2 0x8A0 SWAP2 SWAP1 PUSH2 0x5D33 JUMP JUMPDEST PUSH1 0x40 MLOAD DUP1 SWAP2 SUB SWAP1 RETURN JUMPDEST CALLVALUE DUP1 ISZERO PUSH2 0x8B5 JUMPI PUSH1 0x0 DUP1 REVERT JUMPDEST POP PUSH2 0x8BE PUSH2 0x2AC1 JUMP JUMPDEST STOP JUMPDEST CALLVALUE DUP1 ISZERO PUSH2 0x8CC JUMPI PUSH1 0x0 DUP1 REVERT JUMPDEST POP PUSH2 0x8D5 PUSH2 0x30EC JUMP JUMPDEST PUSH1 0x40 MLOAD PUSH2 0x8E2 SWAP2 SWAP1 PUSH2 0x5D33 JUMP JUMPDEST PUSH1 0x40 MLOAD DUP1 SWAP2 SUB SWAP1 RETURN JUMPDEST CALLVALUE DUP1 ISZERO PUSH2 0x8F7 JUMPI PUSH1 0x0 DUP1 REVERT JUMPDEST POP PUSH2 0x900 PUSH2 0x30FF JUMP JUMPDEST PUSH1 0x40 MLOAD PUSH2 0x90D SWAP2 SWAP1 PUSH2 0x5D5D JUMP JUMPDEST PUSH1 0x40 MLOAD DUP1 SWAP2 SUB SWAP1 RETURN JUMPDEST CALLVALUE DUP1 ISZERO PUSH2 0x922 JUMPI PUSH1 0x0 DUP1 REVERT JUMPDEST POP PUSH2 0x92B PUSH2 0x3105 JUMP JUMPDEST PUSH1 0x40 MLOAD PUSH2 0x938 SWAP2 SWAP1 PUSH2 0x5FA5 JUMP JUMPDEST PUSH1 0x40 MLOAD DUP1 SWAP2 SUB SWAP1 RETURN JUMPDEST CALLVALUE DUP1 ISZERO PUSH2 0x94D JUMPI PUSH1 0x0 DUP1 REVERT JUMPDEST POP PUSH2 0x968 PUSH1 0x4 DUP1 CALLDATASIZE SUB DUP2 ADD SWAP1 PUSH2 0x963 SWAP2 SWAP1 PUSH2 0x5E90 JUMP JUMPDEST PUSH2 0x312B JUMP JUMPDEST STOP JUMPDEST CALLVALUE DUP1 ISZERO PUSH2 0x976 JUMPI PUSH1 0x0 DUP1 REVERT JUMPDEST POP PUSH2 0x97F PUSH2 0x324C JUMP JUMPDEST PUSH1 0x40 MLOAD PUSH2 0x98C SWAP2 SWAP1 PUSH2 0x5FA5 JUMP JUMPDEST PUSH1 0x40 MLOAD DUP1 SWAP2 SUB SWAP1 RETURN JUMPDEST CALLVALUE DUP1 ISZERO PUSH2 0x9A1 JUMPI PUSH1 0x0 DUP1 REVERT JUMPDEST POP PUSH2 0x9BC PUSH1 0x4 DUP1 CALLDATASIZE SUB DUP2 ADD SWAP1 PUSH2 0x9B7 SWAP2 SWAP1 PUSH2 0x6063 JUMP JUMPDEST PUSH2 0x3272 JUMP JUMPDEST PUSH1 0x40 MLOAD PUSH2 0x9C9 SWAP2 SWAP1 PUSH2 0x5D5D JUMP JUMPDEST PUSH1 0x40 MLOAD DUP1 SWAP2 SUB SWAP1 RETURN JUMPDEST CALLVALUE DUP1 ISZERO PUSH2 0x9DE JUMPI PUSH1 0x0 DUP1 REVERT JUMPDEST POP PUSH2 0x9F9 PUSH1 0x4 DUP1 CALLDATASIZE SUB DUP2 ADD SWAP1 PUSH2 0x9F4 SWAP2 SWAP1 PUSH2 0x5F69 JUMP JUMPDEST PUSH2 0x32F9 JUMP JUMPDEST STOP JUMPDEST CALLVALUE DUP1 ISZERO PUSH2 0xA07 JUMPI PUSH1 0x0 DUP1 REVERT JUMPDEST POP PUSH2 0xA10 PUSH2 0x337D JUMP JUMPDEST PUSH1 0x40 MLOAD PUSH2 0xA1D SWAP2 SWAP1 PUSH2 0x5FA5 JUMP JUMPDEST PUSH1 0x40 MLOAD DUP1 SWAP2 SUB SWAP1 RETURN JUMPDEST PUSH1 0x0 PUSH2 0xA33 DUP3 PUSH1 0x3 PUSH2 0x33F8 JUMP JUMPDEST SWAP1 POP PUSH2 0xA9B DUP2 PUSH1 0xA PUSH1 0x0 PUSH20 0xE61E7A7D16DB384433E532FB85724E7F3BDAAE2F PUSH20 0xFFFFFFFFFFFFFFFFFFFFFFFFFFFFFFFFFFFFFFFF AND PUSH20 0xFFFFFFFFFFFFFFFFFFFFFFFFFFFFFFFFFFFFFFFF AND DUP2 MSTORE PUSH1 0x20 ADD SWAP1 DUP2 MSTORE PUSH1 0x20 ADD PUSH1 0x0 KECCAK256 SLOAD PUSH2 0x340E SWAP1 SWAP2 SWAP1 PUSH4 0xFFFFFFFF AND JUMP JUMPDEST PUSH1 0xA PUSH1 0x0 PUSH20 0xE61E7A7D16DB384433E532FB85724E7F3BDAAE2F PUSH20 0xFFFFFFFFFFFFFFFFFFFFFFFFFFFFFFFFFFFFFFFF AND PUSH20 0xFFFFFFFFFFFFFFFFFFFFFFFFFFFFFFFFFFFFFFFF AND DUP2 MSTORE PUSH1 0x20 ADD SWAP1 DUP2 MSTORE PUSH1 0x20 ADD PUSH1 0x0 KECCAK256 DUP2 SWAP1 SSTORE POP PUSH2 0xB58 DUP2 PUSH1 0xA PUSH1 0x0 PUSH20 0x406605EB24A97A2D61B516D8D850F2AEFA6A731A PUSH20 0xFFFFFFFFFFFFFFFFFFFFFFFFFFFFFFFFFFFFFFFF AND PUSH20 0xFFFFFFFFFFFFFFFFFFFFFFFFFFFFFFFFFFFFFFFF AND DUP2 MSTORE PUSH1 0x20 ADD SWAP1 DUP2 MSTORE PUSH1 0x20 ADD PUSH1 0x0 KECCAK256 SLOAD PUSH2 0x340E SWAP1 SWAP2 SWAP1 PUSH4 0xFFFFFFFF AND JUMP JUMPDEST PUSH1 0xA PUSH1 0x0 PUSH20 0x406605EB24A97A2D61B516D8D850F2AEFA6A731A PUSH20 0xFFFFFFFFFFFFFFFFFFFFFFFFFFFFFFFFFFFFFFFF AND PUSH20 0xFFFFFFFFFFFFFFFFFFFFFFFFFFFFFFFFFFFFFFFF AND DUP2 MSTORE PUSH1 0x20 ADD SWAP1 DUP2 MSTORE PUSH1 0x20 ADD PUSH1 0x0 KECCAK256 DUP2 SWAP1 SSTORE POP PUSH2 0xC15 DUP2 PUSH1 0xA PUSH1 0x0 PUSH20 0x97620DEADC98BC8173303686037CE7B986CF53C3 PUSH20 0xFFFFFFFFFFFFFFFFFFFFFFFFFFFFFFFFFFFFFFFF AND PUSH20 0xFFFFFFFFFFFFFFFFFFFFFFFFFFFFFFFFFFFFFFFF AND DUP2 MSTORE PUSH1 0x20 ADD SWAP1 DUP2 MSTORE PUSH1 0x20 ADD PUSH1 0x0 KECCAK256 SLOAD PUSH2 0x340E SWAP1 SWAP2 SWAP1 PUSH4 0xFFFFFFFF AND JUMP JUMPDEST PUSH1 0xA PUSH1 0x0 PUSH20 0x97620DEADC98BC8173303686037CE7B986CF53C3 PUSH20 0xFFFFFFFFFFFFFFFFFFFFFFFFFFFFFFFFFFFFFFFF AND PUSH20 0xFFFFFFFFFFFFFFFFFFFFFFFFFFFFFFFFFFFFFFFF AND DUP2 MSTORE PUSH1 0x20 ADD SWAP1 DUP2 MSTORE PUSH1 0x20 ADD PUSH1 0x0 KECCAK256 DUP2 SWAP1 SSTORE POP POP POP JUMP JUMPDEST PUSH1 0x60 PUSH1 0xD DUP1 SLOAD PUSH2 0xC7F SWAP1 PUSH2 0x60D2 JUMP JUMPDEST DUP1 PUSH1 0x1F ADD PUSH1 0x20 DUP1 SWAP2 DIV MUL PUSH1 0x20 ADD PUSH1 0x40 MLOAD SWAP1 DUP2 ADD PUSH1 0x40 MSTORE DUP1 SWAP3 SWAP2 SWAP1 DUP2 DUP2 MSTORE PUSH1 0x20 ADD DUP3 DUP1 SLOAD PUSH2 0xCAB SWAP1 PUSH2 0x60D2 JUMP JUMPDEST DUP1 ISZERO PUSH2 0xCF8 JUMPI DUP1 PUSH1 0x1F LT PUSH2 0xCCD JUMPI PUSH2 0x100 DUP1 DUP4 SLOAD DIV MUL DUP4 MSTORE SWAP2 PUSH1 0x20 ADD SWAP2 PUSH2 0xCF8 JUMP JUMPDEST DUP3 ADD SWAP2 SWAP1 PUSH1 0x0 MSTORE PUSH1 0x20 PUSH1 0x0 KECCAK256 SWAP1 JUMPDEST DUP2 SLOAD DUP2 MSTORE SWAP1 PUSH1 0x1 ADD SWAP1 PUSH1 0x20 ADD DUP1 DUP4 GT PUSH2 0xCDB JUMPI DUP3 SWAP1 SUB PUSH1 0x1F AND DUP3 ADD SWAP2 JUMPDEST POP POP POP POP POP SWAP1 POP SWAP1 JUMP JUMPDEST PUSH2 0xD0A PUSH2 0x3424 JUMP JUMPDEST PUSH2 0xD12 PUSH2 0x34A2 JUMP JUMPDEST PUSH1 0x0 DUP3 DUP3 SWAP1 POP GT PUSH2 0xD58 JUMPI PUSH1 0x40 MLOAD PUSH32 0x8C379A000000000000000000000000000000000000000000000000000000000 DUP2 MSTORE PUSH1 0x4 ADD PUSH2 0xD4F SWAP1 PUSH2 0x6150 JUMP JUMPDEST PUSH1 0x40 MLOAD DUP1 SWAP2 SUB SWAP1 REVERT JUMPDEST PUSH1 0x0 JUMPDEST DUP3 DUP3 SWAP1 POP DUP2 LT ISZERO PUSH2 0xDEB JUMPI PUSH2 0xD8B DUP4 DUP4 DUP4 DUP2 DUP2 LT PUSH2 0xD7C JUMPI PUSH2 0xD7B PUSH2 0x6170 JUMP JUMPDEST JUMPDEST SWAP1 POP PUSH1 0x40 MUL ADD PUSH1 0x20 ADD CALLDATALOAD PUSH2 0x34FA JUMP JUMPDEST PUSH2 0xDDB DUP4 DUP4 DUP4 DUP2 DUP2 LT PUSH2 0xDA1 JUMPI PUSH2 0xDA0 PUSH2 0x6170 JUMP JUMPDEST JUMPDEST SWAP1 POP PUSH1 0x40 MUL ADD PUSH1 0x0 ADD PUSH1 0x20 DUP2 ADD SWAP1 PUSH2 0xDB9 SWAP2 SWAP1 PUSH2 0x5F69 JUMP JUMPDEST DUP5 DUP5 DUP5 DUP2 DUP2 LT PUSH2 0xDCC JUMPI PUSH2 0xDCB PUSH2 0x6170 JUMP JUMPDEST JUMPDEST SWAP1 POP PUSH1 0x40 MUL ADD PUSH1 0x20 ADD CALLDATALOAD PUSH2 0x3549 JUMP JUMPDEST PUSH2 0xDE4 DUP2 PUSH2 0x377B JUMP JUMPDEST SWAP1 POP PUSH2 0xD5B JUMP JUMPDEST POP CALLER PUSH20 0xFFFFFFFFFFFFFFFFFFFFFFFFFFFFFFFFFFFFFFFF AND PUSH32 0xA3AC771EF05882E507467C1324069747D28D62938523056FD1BDD1168FE6144A DUP4 DUP4 PUSH1 0x40 MLOAD PUSH2 0xE34 SWAP3 SWAP2 SWAP1 PUSH2 0x62C3 JUMP JUMPDEST PUSH1 0x40 MLOAD DUP1 SWAP2 SUB SWAP1 LOG2 POP POP JUMP JUMPDEST PUSH1 0x0 DUP1 PUSH2 0xE4B PUSH2 0x3788 JUMP JUMPDEST SWAP1 POP PUSH2 0xE58 DUP2 DUP6 DUP6 PUSH2 0x3790 JUMP JUMPDEST PUSH1 0x1 SWAP2 POP POP SWAP3 SWAP2 POP POP JUMP JUMPDEST PUSH2 0xE6B PUSH2 0x34A2 JUMP JUMPDEST PUSH1 0x19 PUSH1 0x0 SWAP1 SLOAD SWAP1 PUSH2 0x100 EXP SWAP1 DIV PUSH20 0xFFFFFFFFFFFFFFFFFFFFFFFFFFFFFFFFFFFFFFFF AND PUSH20 0xFFFFFFFFFFFFFFFFFFFFFFFFFFFFFFFFFFFFFFFF AND PUSH4 0x38AF3EED PUSH1 0x40 MLOAD DUP2 PUSH4 0xFFFFFFFF AND PUSH1 0xE0 SHL DUP2 MSTORE PUSH1 0x4 ADD PUSH1 0x20 PUSH1 0x40 MLOAD DUP1 DUP4 SUB DUP2 DUP7 GAS STATICCALL ISZERO DUP1 ISZERO PUSH2 0xED8 JUMPI RETURNDATASIZE PUSH1 0x0 DUP1 RETURNDATACOPY RETURNDATASIZE PUSH1 0x0 REVERT JUMPDEST POP POP POP POP PUSH1 0x40 MLOAD RETURNDATASIZE PUSH1 0x1F NOT PUSH1 0x1F DUP3 ADD AND DUP3 ADD DUP1 PUSH1 0x40 MSTORE POP DUP2 ADD SWAP1 PUSH2 0xEFC SWAP2 SWAP1 PUSH2 0x62FC JUMP JUMPDEST PUSH2 0xF05 DUP2 PUSH2 0x395B JUMP JUMPDEST PUSH1 0x0 PUSH1 0x19 PUSH1 0x0 SWAP1 SLOAD SWAP1 PUSH2 0x100 EXP SWAP1 DIV PUSH20 0xFFFFFFFFFFFFFFFFFFFFFFFFFFFFFFFFFFFFFFFF AND PUSH20 0xFFFFFFFFFFFFFFFFFFFFFFFFFFFFFFFFFFFFFFFF AND PUSH4 0xA95606E PUSH2 0xF4D PUSH2 0x39D3 JUMP JUMPDEST PUSH1 0x40 MLOAD DUP3 PUSH4 0xFFFFFFFF AND PUSH1 0xE0 SHL DUP2 MSTORE PUSH1 0x4 ADD PUSH2 0xF69 SWAP2 SWAP1 PUSH2 0x63C5 JUMP JUMPDEST PUSH1 0x20 PUSH1 0x40 MLOAD DUP1 DUP4 SUB DUP2 PUSH1 0x0 DUP8 GAS CALL ISZERO DUP1 ISZERO PUSH2 0xF88 JUMPI RETURNDATASIZE PUSH1 0x0 DUP1 RETURNDATACOPY RETURNDATASIZE PUSH1 0x0 REVERT JUMPDEST POP POP POP POP PUSH1 0x40 MLOAD RETURNDATASIZE PUSH1 0x1F NOT PUSH1 0x1F DUP3 ADD AND DUP3 ADD DUP1 PUSH1 0x40 MSTORE POP DUP2 ADD SWAP1 PUSH2 0xFAC SWAP2 SWAP1 PUSH2 0x63F6 JUMP JUMPDEST SWAP1 POP PUSH2 0x1007 DUP2 PUSH1 0xA PUSH1 0x0 PUSH2 0xFBE PUSH2 0x3788 JUMP JUMPDEST PUSH20 0xFFFFFFFFFFFFFFFFFFFFFFFFFFFFFFFFFFFFFFFF AND PUSH20 0xFFFFFFFFFFFFFFFFFFFFFFFFFFFFFFFFFFFFFFFF AND DUP2 MSTORE PUSH1 0x20 ADD SWAP1 DUP2 MSTORE PUSH1 0x20 ADD PUSH1 0x0 KECCAK256 SLOAD PUSH2 0x340E SWAP1 SWAP2 SWAP1 PUSH4 0xFFFFFFFF AND JUMP JUMPDEST PUSH1 0xA PUSH1 0x0 PUSH2 0x1013 PUSH2 0x3788 JUMP JUMPDEST PUSH20 0xFFFFFFFFFFFFFFFFFFFFFFFFFFFFFFFFFFFFFFFF AND PUSH20 0xFFFFFFFFFFFFFFFFFFFFFFFFFFFFFFFFFFFFFFFF AND DUP2 MSTORE PUSH1 0x20 ADD SWAP1 DUP2 MSTORE PUSH1 0x20 ADD PUSH1 0x0 KECCAK256 DUP2 SWAP1 SSTORE POP POP POP JUMP JUMPDEST PUSH2 0x105D PUSH2 0x34A2 JUMP JUMPDEST PUSH1 0x1B PUSH1 0x0 SWAP1 SLOAD SWAP1 PUSH2 0x100 EXP SWAP1 DIV PUSH20 0xFFFFFFFFFFFFFFFFFFFFFFFFFFFFFFFFFFFFFFFF AND PUSH20 0xFFFFFFFFFFFFFFFFFFFFFFFFFFFFFFFFFFFFFFFF AND PUSH4 0x38AF3EED PUSH1 0x40 MLOAD DUP2 PUSH4 0xFFFFFFFF AND PUSH1 0xE0 SHL DUP2 MSTORE PUSH1 0x4 ADD PUSH1 0x20 PUSH1 0x40 MLOAD DUP1 DUP4 SUB DUP2 DUP7 GAS STATICCALL ISZERO DUP1 ISZERO PUSH2 0x10CA JUMPI RETURNDATASIZE PUSH1 0x0 DUP1 RETURNDATACOPY RETURNDATASIZE PUSH1 0x0 REVERT JUMPDEST POP POP POP POP PUSH1 0x40 MLOAD RETURNDATASIZE PUSH1 0x1F NOT PUSH1 0x1F DUP3 ADD AND DUP3 ADD DUP1 PUSH1 0x40 MSTORE POP DUP2 ADD SWAP1 PUSH2 0x10EE SWAP2 SWAP1 PUSH2 0x62FC JUMP JUMPDEST PUSH2 0x10F7 DUP2 PUSH2 0x395B JUMP JUMPDEST PUSH1 0x0 PUSH1 0x1B PUSH1 0x0 SWAP1 SLOAD SWAP1 PUSH2 0x100 EXP SWAP1 DIV PUSH20 0xFFFFFFFFFFFFFFFFFFFFFFFFFFFFFFFFFFFFFFFF AND PUSH20 0xFFFFFFFFFFFFFFFFFFFFFFFFFFFFFFFFFFFFFFFF AND PUSH4 0xA95606E PUSH2 0x113F PUSH2 0x3E1F JUMP JUMPDEST PUSH1 0x40 MLOAD DUP3 PUSH4 0xFFFFFFFF AND PUSH1 0xE0 SHL DUP2 MSTORE PUSH1 0x4 ADD PUSH2 0x115B SWAP2 SWAP1 PUSH2 0x63C5 JUMP JUMPDEST PUSH1 0x20 PUSH1 0x40 MLOAD DUP1 DUP4 SUB DUP2 PUSH1 0x0 DUP8 GAS CALL ISZERO DUP1 ISZERO PUSH2 0x117A JUMPI RETURNDATASIZE PUSH1 0x0 DUP1 RETURNDATACOPY RETURNDATASIZE PUSH1 0x0 REVERT JUMPDEST POP POP POP POP PUSH1 0x40 MLOAD RETURNDATASIZE PUSH1 0x1F NOT PUSH1 0x1F DUP3 ADD AND DUP3 ADD DUP1 PUSH1 0x40 MSTORE POP DUP2 ADD SWAP1 PUSH2 0x119E SWAP2 SWAP1 PUSH2 0x63F6 JUMP JUMPDEST SWAP1 POP PUSH2 0x11F9 DUP2 PUSH1 0xA PUSH1 0x0 PUSH2 0x11B0 PUSH2 0x3788 JUMP JUMPDEST PUSH20 0xFFFFFFFFFFFFFFFFFFFFFFFFFFFFFFFFFFFFFFFF AND PUSH20 0xFFFFFFFFFFFFFFFFFFFFFFFFFFFFFFFFFFFFFFFF AND DUP2 MSTORE PUSH1 0x20 ADD SWAP1 DUP2 MSTORE PUSH1 0x20 ADD PUSH1 0x0 KECCAK256 SLOAD PUSH2 0x340E SWAP1 SWAP2 SWAP1 PUSH4 0xFFFFFFFF AND JUMP JUMPDEST PUSH1 0xA PUSH1 0x0 PUSH2 0x1205 PUSH2 0x3788 JUMP JUMPDEST PUSH20 0xFFFFFFFFFFFFFFFFFFFFFFFFFFFFFFFFFFFFFFFF AND PUSH20 0xFFFFFFFFFFFFFFFFFFFFFFFFFFFFFFFFFFFFFFFF AND DUP2 MSTORE PUSH1 0x20 ADD SWAP1 DUP2 MSTORE PUSH1 0x20 ADD PUSH1 0x0 KECCAK256 DUP2 SWAP1 SSTORE POP POP POP JUMP JUMPDEST PUSH1 0x0 PUSH1 0xC SLOAD SWAP1 POP SWAP1 JUMP JUMPDEST PUSH2 0x1259 PUSH2 0x5A80 JUMP JUMPDEST PUSH1 0x9 PUSH1 0x0 CALLER PUSH20 0xFFFFFFFFFFFFFFFFFFFFFFFFFFFFFFFFFFFFFFFF AND PUSH20 0xFFFFFFFFFFFFFFFFFFFFFFFFFFFFFFFFFFFFFFFF AND DUP2 MSTORE PUSH1 0x20 ADD SWAP1 DUP2 MSTORE PUSH1 0x20 ADD PUSH1 0x0 KECCAK256 PUSH1 0x40 MLOAD DUP1 PUSH1 0x80 ADD PUSH1 0x40 MSTORE SWAP1 DUP2 PUSH1 0x0 DUP3 ADD SLOAD DUP2 MSTORE PUSH1 0x20 ADD PUSH1 0x1 DUP3 ADD SLOAD DUP2 MSTORE PUSH1 0x20 ADD PUSH1 0x2 DUP3 ADD PUSH1 0x0 SWAP1 SLOAD SWAP1 PUSH2 0x100 EXP SWAP1 DIV PUSH1 0xFF AND ISZERO ISZERO ISZERO ISZERO DUP2 MSTORE PUSH1 0x20 ADD PUSH1 0x3 DUP3 ADD SLOAD DUP2 MSTORE POP POP SWAP1 POP SWAP1 JUMP JUMPDEST PUSH1 0x0 DUP1 PUSH2 0x12EC PUSH2 0x3788 JUMP JUMPDEST SWAP1 POP PUSH2 0x12F9 DUP6 DUP3 DUP6 PUSH2 0x427D JUMP JUMPDEST PUSH2 0x1304 DUP6 DUP6 DUP6 PUSH2 0x4309 JUMP JUMPDEST PUSH1 0x1 SWAP2 POP POP SWAP4 SWAP3 POP POP POP JUMP JUMPDEST PUSH1 0x0 PUSH1 0x12 SWAP1 POP SWAP1 JUMP JUMPDEST PUSH1 0x8 SLOAD DUP2 JUMP JUMPDEST PUSH1 0x0 DUP1 PUSH2 0x132A PUSH2 0x3788 JUMP JUMPDEST SWAP1 POP PUSH2 0x134B DUP2 DUP6 DUP6 PUSH2 0x133C DUP6 DUP10 PUSH2 0x3272 JUMP JUMPDEST PUSH2 0x1346 SWAP2 SWAP1 PUSH2 0x6452 JUMP JUMPDEST PUSH2 0x3790 JUMP JUMPDEST PUSH1 0x1 SWAP2 POP POP SWAP3 SWAP2 POP POP JUMP JUMPDEST PUSH2 0x135E PUSH2 0x34A2 JUMP JUMPDEST PUSH1 0x1F PUSH1 0x0 SWAP1 SLOAD SWAP1 PUSH2 0x100 EXP SWAP1 DIV PUSH20 0xFFFFFFFFFFFFFFFFFFFFFFFFFFFFFFFFFFFFFFFF AND PUSH20 0xFFFFFFFFFFFFFFFFFFFFFFFFFFFFFFFFFFFFFFFF AND PUSH4 0x38AF3EED PUSH1 0x40 MLOAD DUP2 PUSH4 0xFFFFFFFF AND PUSH1 0xE0 SHL DUP2 MSTORE PUSH1 0x4 ADD PUSH1 0x20 PUSH1 0x40 MLOAD DUP1 DUP4 SUB DUP2 DUP7 GAS STATICCALL ISZERO DUP1 ISZERO PUSH2 0x13CB JUMPI RETURNDATASIZE PUSH1 0x0 DUP1 RETURNDATACOPY RETURNDATASIZE PUSH1 0x0 REVERT JUMPDEST POP POP POP POP PUSH1 0x40 MLOAD RETURNDATASIZE PUSH1 0x1F NOT PUSH1 0x1F DUP3 ADD AND DUP3 ADD DUP1 PUSH1 0x40 MSTORE POP DUP2 ADD SWAP1 PUSH2 0x13EF SWAP2 SWAP1 PUSH2 0x62FC JUMP JUMPDEST PUSH2 0x13F8 DUP2 PUSH2 0x395B JUMP JUMPDEST PUSH1 0x0 PUSH1 0x1F PUSH1 0x0 SWAP1 SLOAD SWAP1 PUSH2 0x100 EXP SWAP1 DIV PUSH20 0xFFFFFFFFFFFFFFFFFFFFFFFFFFFFFFFFFFFFFFFF AND PUSH20 0xFFFFFFFFFFFFFFFFFFFFFFFFFFFFFFFFFFFFFFFF AND PUSH4 0xA95606E PUSH2 0x1440 PUSH2 0x46CD JUMP JUMPDEST PUSH1 0x40 MLOAD DUP3 PUSH4 0xFFFFFFFF AND PUSH1 0xE0 SHL DUP2 MSTORE PUSH1 0x4 ADD PUSH2 0x145C SWAP2 SWAP1 PUSH2 0x63C5 JUMP JUMPDEST PUSH1 0x20 PUSH1 0x40 MLOAD DUP1 DUP4 SUB DUP2 PUSH1 0x0 DUP8 GAS CALL ISZERO DUP1 ISZERO PUSH2 0x147B JUMPI RETURNDATASIZE PUSH1 0x0 DUP1 RETURNDATACOPY RETURNDATASIZE PUSH1 0x0 REVERT JUMPDEST POP POP POP POP PUSH1 0x40 MLOAD RETURNDATASIZE PUSH1 0x1F NOT PUSH1 0x1F DUP3 ADD AND DUP3 ADD DUP1 PUSH1 0x40 MSTORE POP DUP2 ADD SWAP1 PUSH2 0x149F SWAP2 SWAP1 PUSH2 0x63F6 JUMP JUMPDEST SWAP1 POP PUSH2 0x14FA DUP2 PUSH1 0xA PUSH1 0x0 PUSH2 0x14B1 PUSH2 0x3788 JUMP JUMPDEST PUSH20 0xFFFFFFFFFFFFFFFFFFFFFFFFFFFFFFFFFFFFFFFF AND PUSH20 0xFFFFFFFFFFFFFFFFFFFFFFFFFFFFFFFFFFFFFFFF AND DUP2 MSTORE PUSH1 0x20 ADD SWAP1 DUP2 MSTORE PUSH1 0x20 ADD PUSH1 0x0 KECCAK256 SLOAD PUSH2 0x340E SWAP1 SWAP2 SWAP1 PUSH4 0xFFFFFFFF AND JUMP JUMPDEST PUSH1 0xA PUSH1 0x0 PUSH2 0x1506 PUSH2 0x3788 JUMP JUMPDEST PUSH20 0xFFFFFFFFFFFFFFFFFFFFFFFFFFFFFFFFFFFFFFFF AND PUSH20 0xFFFFFFFFFFFFFFFFFFFFFFFFFFFFFFFFFFFFFFFF AND DUP2 MSTORE PUSH1 0x20 ADD SWAP1 DUP2 MSTORE PUSH1 0x20 ADD PUSH1 0x0 KECCAK256 DUP2 SWAP1 SSTORE POP POP POP JUMP JUMPDEST PUSH2 0x1550 PUSH2 0x3424 JUMP JUMPDEST PUSH2 0x155A DUP3 DUP3 PUSH2 0x4B2D JUMP JUMPDEST POP POP JUMP JUMPDEST PUSH2 0x156F PUSH2 0x1569 PUSH2 0x3788 JUMP JUMPDEST DUP3 PUSH2 0x4C8D JUMP JUMPDEST POP JUMP JUMPDEST PUSH2 0x157A PUSH2 0x3424 JUMP JUMPDEST DUP3 PUSH1 0x13 PUSH1 0x0 PUSH2 0x100 EXP DUP2 SLOAD DUP2 PUSH20 0xFFFFFFFFFFFFFFFFFFFFFFFFFFFFFFFFFFFFFFFF MUL NOT AND SWAP1 DUP4 PUSH20 0xFFFFFFFFFFFFFFFFFFFFFFFFFFFFFFFFFFFFFFFF AND MUL OR SWAP1 SSTORE POP DUP2 PUSH1 0x14 PUSH1 0x0 PUSH2 0x100 EXP DUP2 SLOAD DUP2 PUSH20 0xFFFFFFFFFFFFFFFFFFFFFFFFFFFFFFFFFFFFFFFF MUL NOT AND SWAP1 DUP4 PUSH20 0xFFFFFFFFFFFFFFFFFFFFFFFFFFFFFFFFFFFFFFFF AND MUL OR SWAP1 SSTORE POP DUP1 PUSH1 0x15 PUSH1 0x0 PUSH2 0x100 EXP DUP2 SLOAD DUP2 PUSH20 0xFFFFFFFFFFFFFFFFFFFFFFFFFFFFFFFFFFFFFFFF MUL NOT AND SWAP1 DUP4 PUSH20 0xFFFFFFFFFFFFFFFFFFFFFFFFFFFFFFFFFFFFFFFF AND MUL OR SWAP1 SSTORE POP DUP1 PUSH20 0xFFFFFFFFFFFFFFFFFFFFFFFFFFFFFFFFFFFFFFFF AND DUP3 PUSH20 0xFFFFFFFFFFFFFFFFFFFFFFFFFFFFFFFFFFFFFFFF AND DUP5 PUSH20 0xFFFFFFFFFFFFFFFFFFFFFFFFFFFFFFFFFFFFFFFF AND PUSH32 0x1B2F4C5680152B0503B3DF404995849C1844ABFB6FCF502936B60002FE2F4D9C CALLER PUSH1 0x40 MLOAD PUSH2 0x16B1 SWAP2 SWAP1 PUSH2 0x5FA5 JUMP JUMPDEST PUSH1 0x40 MLOAD DUP1 SWAP2 SUB SWAP1 LOG4 POP POP POP JUMP JUMPDEST PUSH2 0x16C6 PUSH2 0x3424 JUMP JUMPDEST PUSH1 0x5 DUP2 PUSH1 0xFF AND LT PUSH2 0x170C JUMPI PUSH1 0x40 MLOAD PUSH32 0x8C379A000000000000000000000000000000000000000000000000000000000 DUP2 MSTORE PUSH1 0x4 ADD PUSH2 0x1703 SWAP1 PUSH2 0x64F4 JUMP JUMPDEST PUSH1 0x40 MLOAD DUP1 SWAP2 SUB SWAP1 REVERT JUMPDEST DUP1 PUSH1 0x10 PUSH1 0x0 PUSH2 0x100 EXP DUP2 SLOAD DUP2 PUSH1 0xFF MUL NOT AND SWAP1 DUP4 PUSH1 0xFF AND MUL OR SWAP1 SSTORE POP PUSH2 0x172F PUSH2 0x3788 JUMP JUMPDEST PUSH20 0xFFFFFFFFFFFFFFFFFFFFFFFFFFFFFFFFFFFFFFFF AND PUSH32 0xDF92943B31FFF67E8447FF9FA8B5E226DDCC5FB34D36CFE120C0F2B96EB8D6F7 DUP3 PUSH1 0x40 MLOAD PUSH2 0x1774 SWAP2 SWAP1 PUSH2 0x654F JUMP JUMPDEST PUSH1 0x40 MLOAD DUP1 SWAP2 SUB SWAP1 LOG2 POP JUMP JUMPDEST PUSH1 0x6 SLOAD DUP2 JUMP JUMPDEST PUSH2 0x178D PUSH2 0x34A2 JUMP JUMPDEST PUSH1 0x1D PUSH1 0x0 SWAP1 SLOAD SWAP1 PUSH2 0x100 EXP SWAP1 DIV PUSH20 0xFFFFFFFFFFFFFFFFFFFFFFFFFFFFFFFFFFFFFFFF AND PUSH20 0xFFFFFFFFFFFFFFFFFFFFFFFFFFFFFFFFFFFFFFFF AND PUSH4 0x38AF3EED PUSH1 0x40 MLOAD DUP2 PUSH4 0xFFFFFFFF AND PUSH1 0xE0 SHL DUP2 MSTORE PUSH1 0x4 ADD PUSH1 0x20 PUSH1 0x40 MLOAD DUP1 DUP4 SUB DUP2 DUP7 GAS STATICCALL ISZERO DUP1 ISZERO PUSH2 0x17FA JUMPI RETURNDATASIZE PUSH1 0x0 DUP1 RETURNDATACOPY RETURNDATASIZE PUSH1 0x0 REVERT JUMPDEST POP POP POP POP PUSH1 0x40 MLOAD RETURNDATASIZE PUSH1 0x1F NOT PUSH1 0x1F DUP3 ADD AND DUP3 ADD DUP1 PUSH1 0x40 MSTORE POP DUP2 ADD SWAP1 PUSH2 0x181E SWAP2 SWAP1 PUSH2 0x62FC JUMP JUMPDEST PUSH2 0x1827 DUP2 PUSH2 0x395B JUMP JUMPDEST PUSH1 0x0 PUSH1 0x1D PUSH1 0x0 SWAP1 SLOAD SWAP1 PUSH2 0x100 EXP SWAP1 DIV PUSH20 0xFFFFFFFFFFFFFFFFFFFFFFFFFFFFFFFFFFFFFFFF AND PUSH20 0xFFFFFFFFFFFFFFFFFFFFFFFFFFFFFFFFFFFFFFFF AND PUSH4 0xA95606E PUSH2 0x186F PUSH2 0x46CD JUMP JUMPDEST PUSH1 0x40 MLOAD DUP3 PUSH4 0xFFFFFFFF AND PUSH1 0xE0 SHL DUP2 MSTORE PUSH1 0x4 ADD PUSH2 0x188B SWAP2 SWAP1 PUSH2 0x63C5 JUMP JUMPDEST PUSH1 0x20 PUSH1 0x40 MLOAD DUP1 DUP4 SUB DUP2 PUSH1 0x0 DUP8 GAS CALL ISZERO DUP1 ISZERO PUSH2 0x18AA JUMPI RETURNDATASIZE PUSH1 0x0 DUP1 RETURNDATACOPY RETURNDATASIZE PUSH1 0x0 REVERT JUMPDEST POP POP POP POP PUSH1 0x40 MLOAD RETURNDATASIZE PUSH1 0x1F NOT PUSH1 0x1F DUP3 ADD AND DUP3 ADD DUP1 PUSH1 0x40 MSTORE POP DUP2 ADD SWAP1 PUSH2 0x18CE SWAP2 SWAP1 PUSH2 0x63F6 JUMP JUMPDEST SWAP1 POP PUSH2 0x1929 DUP2 PUSH1 0xA PUSH1 0x0 PUSH2 0x18E0 PUSH2 0x3788 JUMP JUMPDEST PUSH20 0xFFFFFFFFFFFFFFFFFFFFFFFFFFFFFFFFFFFFFFFF AND PUSH20 0xFFFFFFFFFFFFFFFFFFFFFFFFFFFFFFFFFFFFFFFF AND DUP2 MSTORE PUSH1 0x20 ADD SWAP1 DUP2 MSTORE PUSH1 0x20 ADD PUSH1 0x0 KECCAK256 SLOAD PUSH2 0x340E SWAP1 SWAP2 SWAP1 PUSH4 0xFFFFFFFF AND JUMP JUMPDEST PUSH1 0xA PUSH1 0x0 PUSH2 0x1935 PUSH2 0x3788 JUMP JUMPDEST PUSH20 0xFFFFFFFFFFFFFFFFFFFFFFFFFFFFFFFFFFFFFFFF AND PUSH20 0xFFFFFFFFFFFFFFFFFFFFFFFFFFFFFFFFFFFFFFFF AND DUP2 MSTORE PUSH1 0x20 ADD SWAP1 DUP2 MSTORE PUSH1 0x20 ADD PUSH1 0x0 KECCAK256 DUP2 SWAP1 SSTORE POP POP POP JUMP JUMPDEST PUSH1 0x0 PUSH1 0xA PUSH1 0x0 DUP4 PUSH20 0xFFFFFFFFFFFFFFFFFFFFFFFFFFFFFFFFFFFFFFFF AND PUSH20 0xFFFFFFFFFFFFFFFFFFFFFFFFFFFFFFFFFFFFFFFF AND DUP2 MSTORE PUSH1 0x20 ADD SWAP1 DUP2 MSTORE PUSH1 0x20 ADD PUSH1 0x0 KECCAK256 SLOAD SWAP1 POP SWAP2 SWAP1 POP JUMP JUMPDEST PUSH2 0x19C8 PUSH2 0x3424 JUMP JUMPDEST PUSH2 0x19D2 PUSH1 0x0 PUSH2 0x4E5A JUMP JUMPDEST JUMP JUMPDEST PUSH2 0x19DC PUSH2 0x34A2 JUMP JUMPDEST PUSH1 0x17 PUSH1 0x0 SWAP1 SLOAD SWAP1 PUSH2 0x100 EXP SWAP1 DIV PUSH20 0xFFFFFFFFFFFFFFFFFFFFFFFFFFFFFFFFFFFFFFFF AND PUSH20 0xFFFFFFFFFFFFFFFFFFFFFFFFFFFFFFFFFFFFFFFF AND PUSH4 0x38AF3EED PUSH1 0x40 MLOAD DUP2 PUSH4 0xFFFFFFFF AND PUSH1 0xE0 SHL DUP2 MSTORE PUSH1 0x4 ADD PUSH1 0x20 PUSH1 0x40 MLOAD DUP1 DUP4 SUB DUP2 DUP7 GAS STATICCALL ISZERO DUP1 ISZERO PUSH2 0x1A49 JUMPI RETURNDATASIZE PUSH1 0x0 DUP1 RETURNDATACOPY RETURNDATASIZE PUSH1 0x0 REVERT JUMPDEST POP POP POP POP PUSH1 0x40 MLOAD RETURNDATASIZE PUSH1 0x1F NOT PUSH1 0x1F DUP3 ADD AND DUP3 ADD DUP1 PUSH1 0x40 MSTORE POP DUP2 ADD SWAP1 PUSH2 0x1A6D SWAP2 SWAP1 PUSH2 0x62FC JUMP JUMPDEST PUSH2 0x1A76 DUP2 PUSH2 0x395B JUMP JUMPDEST PUSH1 0x0 PUSH1 0x17 PUSH1 0x0 SWAP1 SLOAD SWAP1 PUSH2 0x100 EXP SWAP1 DIV PUSH20 0xFFFFFFFFFFFFFFFFFFFFFFFFFFFFFFFFFFFFFFFF AND PUSH20 0xFFFFFFFFFFFFFFFFFFFFFFFFFFFFFFFFFFFFFFFF AND PUSH4 0xA95606E PUSH2 0x1ABE PUSH2 0x39D3 JUMP JUMPDEST PUSH1 0x40 MLOAD DUP3 PUSH4 0xFFFFFFFF AND PUSH1 0xE0 SHL DUP2 MSTORE PUSH1 0x4 ADD PUSH2 0x1ADA SWAP2 SWAP1 PUSH2 0x63C5 JUMP JUMPDEST PUSH1 0x20 PUSH1 0x40 MLOAD DUP1 DUP4 SUB DUP2 PUSH1 0x0 DUP8 GAS CALL ISZERO DUP1 ISZERO PUSH2 0x1AF9 JUMPI RETURNDATASIZE PUSH1 0x0 DUP1 RETURNDATACOPY RETURNDATASIZE PUSH1 0x0 REVERT JUMPDEST POP POP POP POP PUSH1 0x40 MLOAD RETURNDATASIZE PUSH1 0x1F NOT PUSH1 0x1F DUP3 ADD AND DUP3 ADD DUP1 PUSH1 0x40 MSTORE POP DUP2 ADD SWAP1 PUSH2 0x1B1D SWAP2 SWAP1 PUSH2 0x63F6 JUMP JUMPDEST SWAP1 POP PUSH2 0x1B78 DUP2 PUSH1 0xA PUSH1 0x0 PUSH2 0x1B2F PUSH2 0x3788 JUMP JUMPDEST PUSH20 0xFFFFFFFFFFFFFFFFFFFFFFFFFFFFFFFFFFFFFFFF AND PUSH20 0xFFFFFFFFFFFFFFFFFFFFFFFFFFFFFFFFFFFFFFFF AND DUP2 MSTORE PUSH1 0x20 ADD SWAP1 DUP2 MSTORE PUSH1 0x20 ADD PUSH1 0x0 KECCAK256 SLOAD PUSH2 0x340E SWAP1 SWAP2 SWAP1 PUSH4 0xFFFFFFFF AND JUMP JUMPDEST PUSH1 0xA PUSH1 0x0 PUSH2 0x1B84 PUSH2 0x3788 JUMP JUMPDEST PUSH20 0xFFFFFFFFFFFFFFFFFFFFFFFFFFFFFFFFFFFFFFFF AND PUSH20 0xFFFFFFFFFFFFFFFFFFFFFFFFFFFFFFFFFFFFFFFF AND DUP2 MSTORE PUSH1 0x20 ADD SWAP1 DUP2 MSTORE PUSH1 0x20 ADD PUSH1 0x0 KECCAK256 DUP2 SWAP1 SSTORE POP POP POP JUMP JUMPDEST PUSH2 0x1BD8 DUP3 PUSH2 0x1BD2 PUSH2 0x3788 JUMP JUMPDEST DUP4 PUSH2 0x427D JUMP JUMPDEST PUSH2 0x1BE2 DUP3 DUP3 PUSH2 0x4C8D JUMP JUMPDEST POP POP JUMP JUMPDEST PUSH2 0x1BEE PUSH2 0x34A2 JUMP JUMPDEST PUSH1 0x18 PUSH1 0x0 SWAP1 SLOAD SWAP1 PUSH2 0x100 EXP SWAP1 DIV PUSH20 0xFFFFFFFFFFFFFFFFFFFFFFFFFFFFFFFFFFFFFFFF AND PUSH20 0xFFFFFFFFFFFFFFFFFFFFFFFFFFFFFFFFFFFFFFFF AND PUSH4 0x38AF3EED PUSH1 0x40 MLOAD DUP2 PUSH4 0xFFFFFFFF AND PUSH1 0xE0 SHL DUP2 MSTORE PUSH1 0x4 ADD PUSH1 0x20 PUSH1 0x40 MLOAD DUP1 DUP4 SUB DUP2 DUP7 GAS STATICCALL ISZERO DUP1 ISZERO PUSH2 0x1C5B JUMPI RETURNDATASIZE PUSH1 0x0 DUP1 RETURNDATACOPY RETURNDATASIZE PUSH1 0x0 REVERT JUMPDEST POP POP POP POP PUSH1 0x40 MLOAD RETURNDATASIZE PUSH1 0x1F NOT PUSH1 0x1F DUP3 ADD AND DUP3 ADD DUP1 PUSH1 0x40 MSTORE POP DUP2 ADD SWAP1 PUSH2 0x1C7F SWAP2 SWAP1 PUSH2 0x62FC JUMP JUMPDEST PUSH2 0x1C88 DUP2 PUSH2 0x395B JUMP JUMPDEST PUSH1 0x0 PUSH1 0x18 PUSH1 0x0 SWAP1 SLOAD SWAP1 PUSH2 0x100 EXP SWAP1 DIV PUSH20 0xFFFFFFFFFFFFFFFFFFFFFFFFFFFFFFFFFFFFFFFF AND PUSH20 0xFFFFFFFFFFFFFFFFFFFFFFFFFFFFFFFFFFFFFFFF AND PUSH4 0xA95606E PUSH2 0x1CD0 PUSH2 0x39D3 JUMP JUMPDEST PUSH1 0x40 MLOAD DUP3 PUSH4 0xFFFFFFFF AND PUSH1 0xE0 SHL DUP2 MSTORE PUSH1 0x4 ADD PUSH2 0x1CEC SWAP2 SWAP1 PUSH2 0x63C5 JUMP JUMPDEST PUSH1 0x20 PUSH1 0x40 MLOAD DUP1 DUP4 SUB DUP2 PUSH1 0x0 DUP8 GAS CALL ISZERO DUP1 ISZERO PUSH2 0x1D0B JUMPI RETURNDATASIZE PUSH1 0x0 DUP1 RETURNDATACOPY RETURNDATASIZE PUSH1 0x0 REVERT JUMPDEST POP POP POP POP PUSH1 0x40 MLOAD RETURNDATASIZE PUSH1 0x1F NOT PUSH1 0x1F DUP3 ADD AND DUP3 ADD DUP1 PUSH1 0x40 MSTORE POP DUP2 ADD SWAP1 PUSH2 0x1D2F SWAP2 SWAP1 PUSH2 0x63F6 JUMP JUMPDEST SWAP1 POP PUSH2 0x1D8A DUP2 PUSH1 0xA PUSH1 0x0 PUSH2 0x1D41 PUSH2 0x3788 JUMP JUMPDEST PUSH20 0xFFFFFFFFFFFFFFFFFFFFFFFFFFFFFFFFFFFFFFFF AND PUSH20 0xFFFFFFFFFFFFFFFFFFFFFFFFFFFFFFFFFFFFFFFF AND DUP2 MSTORE PUSH1 0x20 ADD SWAP1 DUP2 MSTORE PUSH1 0x20 ADD PUSH1 0x0 KECCAK256 SLOAD PUSH2 0x340E SWAP1 SWAP2 SWAP1 PUSH4 0xFFFFFFFF AND JUMP JUMPDEST PUSH1 0xA PUSH1 0x0 PUSH2 0x1D96 PUSH2 0x3788 JUMP JUMPDEST PUSH20 0xFFFFFFFFFFFFFFFFFFFFFFFFFFFFFFFFFFFFFFFF AND PUSH20 0xFFFFFFFFFFFFFFFFFFFFFFFFFFFFFFFFFFFFFFFF AND DUP2 MSTORE PUSH1 0x20 ADD SWAP1 DUP2 MSTORE PUSH1 0x20 ADD PUSH1 0x0 KECCAK256 DUP2 SWAP1 SSTORE POP POP POP JUMP JUMPDEST PUSH2 0x1DE0 PUSH2 0x34A2 JUMP JUMPDEST PUSH2 0x1E48 PUSH2 0x1DF3 PUSH2 0x1DEE PUSH2 0x3788 JUMP JUMPDEST PUSH2 0x4F20 JUMP JUMPDEST PUSH1 0xA PUSH1 0x0 PUSH2 0x1DFF PUSH2 0x3788 JUMP JUMPDEST PUSH20 0xFFFFFFFFFFFFFFFFFFFFFFFFFFFFFFFFFFFFFFFF AND PUSH20 0xFFFFFFFFFFFFFFFFFFFFFFFFFFFFFFFFFFFFFFFF AND DUP2 MSTORE PUSH1 0x20 ADD SWAP1 DUP2 MSTORE PUSH1 0x20 ADD PUSH1 0x0 KECCAK256 SLOAD PUSH2 0x340E SWAP1 SWAP2 SWAP1 PUSH4 0xFFFFFFFF AND JUMP JUMPDEST PUSH1 0xA PUSH1 0x0 PUSH2 0x1E54 PUSH2 0x3788 JUMP JUMPDEST PUSH20 0xFFFFFFFFFFFFFFFFFFFFFFFFFFFFFFFFFFFFFFFF AND PUSH20 0xFFFFFFFFFFFFFFFFFFFFFFFFFFFFFFFFFFFFFFFF AND DUP2 MSTORE PUSH1 0x20 ADD SWAP1 DUP2 MSTORE PUSH1 0x20 ADD PUSH1 0x0 KECCAK256 DUP2 SWAP1 SSTORE POP JUMP JUMPDEST PUSH2 0x1E9C PUSH2 0x34A2 JUMP JUMPDEST PUSH1 0x1A PUSH1 0x0 SWAP1 SLOAD SWAP1 PUSH2 0x100 EXP SWAP1 DIV PUSH20 0xFFFFFFFFFFFFFFFFFFFFFFFFFFFFFFFFFFFFFFFF AND PUSH20 0xFFFFFFFFFFFFFFFFFFFFFFFFFFFFFFFFFFFFFFFF AND PUSH4 0x38AF3EED PUSH1 0x40 MLOAD DUP2 PUSH4 0xFFFFFFFF AND PUSH1 0xE0 SHL DUP2 MSTORE PUSH1 0x4 ADD PUSH1 0x20 PUSH1 0x40 MLOAD DUP1 DUP4 SUB DUP2 DUP7 GAS STATICCALL ISZERO DUP1 ISZERO PUSH2 0x1F09 JUMPI RETURNDATASIZE PUSH1 0x0 DUP1 RETURNDATACOPY RETURNDATASIZE PUSH1 0x0 REVERT JUMPDEST POP POP POP POP PUSH1 0x40 MLOAD RETURNDATASIZE PUSH1 0x1F NOT PUSH1 0x1F DUP3 ADD AND DUP3 ADD DUP1 PUSH1 0x40 MSTORE POP DUP2 ADD SWAP1 PUSH2 0x1F2D SWAP2 SWAP1 PUSH2 0x62FC JUMP JUMPDEST PUSH2 0x1F36 DUP2 PUSH2 0x395B JUMP JUMPDEST PUSH1 0x0 PUSH1 0x1A PUSH1 0x0 SWAP1 SLOAD SWAP1 PUSH2 0x100 EXP SWAP1 DIV PUSH20 0xFFFFFFFFFFFFFFFFFFFFFFFFFFFFFFFFFFFFFFFF AND PUSH20 0xFFFFFFFFFFFFFFFFFFFFFFFFFFFFFFFFFFFFFFFF AND PUSH4 0xA95606E PUSH2 0x1F7E PUSH2 0x3E1F JUMP JUMPDEST PUSH1 0x40 MLOAD DUP3 PUSH4 0xFFFFFFFF AND PUSH1 0xE0 SHL DUP2 MSTORE PUSH1 0x4 ADD PUSH2 0x1F9A SWAP2 SWAP1 PUSH2 0x63C5 JUMP JUMPDEST PUSH1 0x20 PUSH1 0x40 MLOAD DUP1 DUP4 SUB DUP2 PUSH1 0x0 DUP8 GAS CALL ISZERO DUP1 ISZERO PUSH2 0x1FB9 JUMPI RETURNDATASIZE PUSH1 0x0 DUP1 RETURNDATACOPY RETURNDATASIZE PUSH1 0x0 REVERT JUMPDEST POP POP POP POP PUSH1 0x40 MLOAD RETURNDATASIZE PUSH1 0x1F NOT PUSH1 0x1F DUP3 ADD AND DUP3 ADD DUP1 PUSH1 0x40 MSTORE POP DUP2 ADD SWAP1 PUSH2 0x1FDD SWAP2 SWAP1 PUSH2 0x63F6 JUMP JUMPDEST SWAP1 POP PUSH2 0x2038 DUP2 PUSH1 0xA PUSH1 0x0 PUSH2 0x1FEF PUSH2 0x3788 JUMP JUMPDEST PUSH20 0xFFFFFFFFFFFFFFFFFFFFFFFFFFFFFFFFFFFFFFFF AND PUSH20 0xFFFFFFFFFFFFFFFFFFFFFFFFFFFFFFFFFFFFFFFF AND DUP2 MSTORE PUSH1 0x20 ADD SWAP1 DUP2 MSTORE PUSH1 0x20 ADD PUSH1 0x0 KECCAK256 SLOAD PUSH2 0x340E SWAP1 SWAP2 SWAP1 PUSH4 0xFFFFFFFF AND JUMP JUMPDEST PUSH1 0xA PUSH1 0x0 PUSH2 0x2044 PUSH2 0x3788 JUMP JUMPDEST PUSH20 0xFFFFFFFFFFFFFFFFFFFFFFFFFFFFFFFFFFFFFFFF AND PUSH20 0xFFFFFFFFFFFFFFFFFFFFFFFFFFFFFFFFFFFFFFFF AND DUP2 MSTORE PUSH1 0x20 ADD SWAP1 DUP2 MSTORE PUSH1 0x20 ADD PUSH1 0x0 KECCAK256 DUP2 SWAP1 SSTORE POP POP POP JUMP JUMPDEST PUSH2 0x208E PUSH2 0x34A2 JUMP JUMPDEST PUSH1 0x1C PUSH1 0x0 SWAP1 SLOAD SWAP1 PUSH2 0x100 EXP SWAP1 DIV PUSH20 0xFFFFFFFFFFFFFFFFFFFFFFFFFFFFFFFFFFFFFFFF AND PUSH20 0xFFFFFFFFFFFFFFFFFFFFFFFFFFFFFFFFFFFFFFFF AND PUSH4 0x38AF3EED PUSH1 0x40 MLOAD DUP2 PUSH4 0xFFFFFFFF AND PUSH1 0xE0 SHL DUP2 MSTORE PUSH1 0x4 ADD PUSH1 0x20 PUSH1 0x40 MLOAD DUP1 DUP4 SUB DUP2 DUP7 GAS STATICCALL ISZERO DUP1 ISZERO PUSH2 0x20FB JUMPI RETURNDATASIZE PUSH1 0x0 DUP1 RETURNDATACOPY RETURNDATASIZE PUSH1 0x0 REVERT JUMPDEST POP POP POP POP PUSH1 0x40 MLOAD RETURNDATASIZE PUSH1 0x1F NOT PUSH1 0x1F DUP3 ADD AND DUP3 ADD DUP1 PUSH1 0x40 MSTORE POP DUP2 ADD SWAP1 PUSH2 0x211F SWAP2 SWAP1 PUSH2 0x62FC JUMP JUMPDEST PUSH2 0x2128 DUP2 PUSH2 0x395B JUMP JUMPDEST PUSH1 0x0 PUSH1 0x1C PUSH1 0x0 SWAP1 SLOAD SWAP1 PUSH2 0x100 EXP SWAP1 DIV PUSH20 0xFFFFFFFFFFFFFFFFFFFFFFFFFFFFFFFFFFFFFFFF AND PUSH20 0xFFFFFFFFFFFFFFFFFFFFFFFFFFFFFFFFFFFFFFFF AND PUSH4 0xA95606E PUSH2 0x2170 PUSH2 0x3E1F JUMP JUMPDEST PUSH1 0x40 MLOAD DUP3 PUSH4 0xFFFFFFFF AND PUSH1 0xE0 SHL DUP2 MSTORE PUSH1 0x4 ADD PUSH2 0x218C SWAP2 SWAP1 PUSH2 0x63C5 JUMP JUMPDEST PUSH1 0x20 PUSH1 0x40 MLOAD DUP1 DUP4 SUB DUP2 PUSH1 0x0 DUP8 GAS CALL ISZERO DUP1 ISZERO PUSH2 0x21AB JUMPI RETURNDATASIZE PUSH1 0x0 DUP1 RETURNDATACOPY RETURNDATASIZE PUSH1 0x0 REVERT JUMPDEST POP POP POP POP PUSH1 0x40 MLOAD RETURNDATASIZE PUSH1 0x1F NOT PUSH1 0x1F DUP3 ADD AND DUP3 ADD DUP1 PUSH1 0x40 MSTORE POP DUP2 ADD SWAP1 PUSH2 0x21CF SWAP2 SWAP1 PUSH2 0x63F6 JUMP JUMPDEST SWAP1 POP PUSH2 0x222A DUP2 PUSH1 0xA PUSH1 0x0 PUSH2 0x21E1 PUSH2 0x3788 JUMP JUMPDEST PUSH20 0xFFFFFFFFFFFFFFFFFFFFFFFFFFFFFFFFFFFFFFFF AND PUSH20 0xFFFFFFFFFFFFFFFFFFFFFFFFFFFFFFFFFFFFFFFF AND DUP2 MSTORE PUSH1 0x20 ADD SWAP1 DUP2 MSTORE PUSH1 0x20 ADD PUSH1 0x0 KECCAK256 SLOAD PUSH2 0x340E SWAP1 SWAP2 SWAP1 PUSH4 0xFFFFFFFF AND JUMP JUMPDEST PUSH1 0xA PUSH1 0x0 PUSH2 0x2236 PUSH2 0x3788 JUMP JUMPDEST PUSH20 0xFFFFFFFFFFFFFFFFFFFFFFFFFFFFFFFFFFFFFFFF AND PUSH20 0xFFFFFFFFFFFFFFFFFFFFFFFFFFFFFFFFFFFFFFFF AND DUP2 MSTORE PUSH1 0x20 ADD SWAP1 DUP2 MSTORE PUSH1 0x20 ADD PUSH1 0x0 KECCAK256 DUP2 SWAP1 SSTORE POP POP POP JUMP JUMPDEST PUSH1 0x7 SLOAD DUP2 JUMP JUMPDEST PUSH2 0x2286 PUSH2 0x3424 JUMP JUMPDEST PUSH2 0x22D8 DUP2 PUSH1 0xA PUSH1 0x0 ADDRESS PUSH20 0xFFFFFFFFFFFFFFFFFFFFFFFFFFFFFFFFFFFFFFFF AND PUSH20 0xFFFFFFFFFFFFFFFFFFFFFFFFFFFFFFFFFFFFFFFF AND DUP2 MSTORE PUSH1 0x20 ADD SWAP1 DUP2 MSTORE PUSH1 0x20 ADD PUSH1 0x0 KECCAK256 SLOAD PUSH2 0x5091 SWAP1 SWAP2 SWAP1 PUSH4 0xFFFFFFFF AND JUMP JUMPDEST PUSH1 0xA PUSH1 0x0 ADDRESS PUSH20 0xFFFFFFFFFFFFFFFFFFFFFFFFFFFFFFFFFFFFFFFF AND PUSH20 0xFFFFFFFFFFFFFFFFFFFFFFFFFFFFFFFFFFFFFFFF AND DUP2 MSTORE PUSH1 0x20 ADD SWAP1 DUP2 MSTORE PUSH1 0x20 ADD PUSH1 0x0 KECCAK256 DUP2 SWAP1 SSTORE POP PUSH2 0x2330 DUP2 PUSH1 0xC SLOAD PUSH2 0x5091 SWAP1 SWAP2 SWAP1 PUSH4 0xFFFFFFFF AND JUMP JUMPDEST PUSH1 0xC DUP2 SWAP1 SSTORE POP PUSH1 0x0 PUSH20 0xFFFFFFFFFFFFFFFFFFFFFFFFFFFFFFFFFFFFFFFF AND ADDRESS PUSH20 0xFFFFFFFFFFFFFFFFFFFFFFFFFFFFFFFFFFFFFFFF AND PUSH32 0xDDF252AD1BE2C89B69C2B068FC378DAA952BA7F163C4A11628F55A4DF523B3EF DUP4 PUSH1 0x40 MLOAD PUSH2 0x2394 SWAP2 SWAP1 PUSH2 0x5D5D JUMP JUMPDEST PUSH1 0x40 MLOAD DUP1 SWAP2 SUB SWAP1 LOG3 POP JUMP JUMPDEST PUSH1 0x0 PUSH1 0x5 PUSH1 0x0 SWAP1 SLOAD SWAP1 PUSH2 0x100 EXP SWAP1 DIV PUSH20 0xFFFFFFFFFFFFFFFFFFFFFFFFFFFFFFFFFFFFFFFF AND SWAP1 POP SWAP1 JUMP JUMPDEST PUSH2 0x23D1 PUSH2 0x34A2 JUMP JUMPDEST PUSH1 0x1E PUSH1 0x0 SWAP1 SLOAD SWAP1 PUSH2 0x100 EXP SWAP1 DIV PUSH20 0xFFFFFFFFFFFFFFFFFFFFFFFFFFFFFFFFFFFFFFFF AND PUSH20 0xFFFFFFFFFFFFFFFFFFFFFFFFFFFFFFFFFFFFFFFF AND PUSH4 0x38AF3EED PUSH1 0x40 MLOAD DUP2 PUSH4 0xFFFFFFFF AND PUSH1 0xE0 SHL DUP2 MSTORE PUSH1 0x4 ADD PUSH1 0x20 PUSH1 0x40 MLOAD DUP1 DUP4 SUB DUP2 DUP7 GAS STATICCALL ISZERO DUP1 ISZERO PUSH2 0x243E JUMPI RETURNDATASIZE PUSH1 0x0 DUP1 RETURNDATACOPY RETURNDATASIZE PUSH1 0x0 REVERT JUMPDEST POP POP POP POP PUSH1 0x40 MLOAD RETURNDATASIZE PUSH1 0x1F NOT PUSH1 0x1F DUP3 ADD AND DUP3 ADD DUP1 PUSH1 0x40 MSTORE POP DUP2 ADD SWAP1 PUSH2 0x2462 SWAP2 SWAP1 PUSH2 0x62FC JUMP JUMPDEST PUSH2 0x246B DUP2 PUSH2 0x395B JUMP JUMPDEST PUSH1 0x0 PUSH1 0x1E PUSH1 0x0 SWAP1 SLOAD SWAP1 PUSH2 0x100 EXP SWAP1 DIV PUSH20 0xFFFFFFFFFFFFFFFFFFFFFFFFFFFFFFFFFFFFFFFF AND PUSH20 0xFFFFFFFFFFFFFFFFFFFFFFFFFFFFFFFFFFFFFFFF AND PUSH4 0xA95606E PUSH2 0x24B3 PUSH2 0x46CD JUMP JUMPDEST PUSH1 0x40 MLOAD DUP3 PUSH4 0xFFFFFFFF AND PUSH1 0xE0 SHL DUP2 MSTORE PUSH1 0x4 ADD PUSH2 0x24CF SWAP2 SWAP1 PUSH2 0x63C5 JUMP JUMPDEST PUSH1 0x20 PUSH1 0x40 MLOAD DUP1 DUP4 SUB DUP2 PUSH1 0x0 DUP8 GAS CALL ISZERO DUP1 ISZERO PUSH2 0x24EE JUMPI RETURNDATASIZE PUSH1 0x0 DUP1 RETURNDATACOPY RETURNDATASIZE PUSH1 0x0 REVERT JUMPDEST POP POP POP POP PUSH1 0x40 MLOAD RETURNDATASIZE PUSH1 0x1F NOT PUSH1 0x1F DUP3 ADD AND DUP3 ADD DUP1 PUSH1 0x40 MSTORE POP DUP2 ADD SWAP1 PUSH2 0x2512 SWAP2 SWAP1 PUSH2 0x63F6 JUMP JUMPDEST SWAP1 POP PUSH2 0x256D DUP2 PUSH1 0xA PUSH1 0x0 PUSH2 0x2524 PUSH2 0x3788 JUMP JUMPDEST PUSH20 0xFFFFFFFFFFFFFFFFFFFFFFFFFFFFFFFFFFFFFFFF AND PUSH20 0xFFFFFFFFFFFFFFFFFFFFFFFFFFFFFFFFFFFFFFFF AND DUP2 MSTORE PUSH1 0x20 ADD SWAP1 DUP2 MSTORE PUSH1 0x20 ADD PUSH1 0x0 KECCAK256 SLOAD PUSH2 0x340E SWAP1 SWAP2 SWAP1 PUSH4 0xFFFFFFFF AND JUMP JUMPDEST PUSH1 0xA PUSH1 0x0 PUSH2 0x2579 PUSH2 0x3788 JUMP JUMPDEST PUSH20 0xFFFFFFFFFFFFFFFFFFFFFFFFFFFFFFFFFFFFFFFF AND PUSH20 0xFFFFFFFFFFFFFFFFFFFFFFFFFFFFFFFFFFFFFFFF AND DUP2 MSTORE PUSH1 0x20 ADD SWAP1 DUP2 MSTORE PUSH1 0x20 ADD PUSH1 0x0 KECCAK256 DUP2 SWAP1 SSTORE POP POP POP JUMP JUMPDEST PUSH2 0x25C3 PUSH2 0x34A2 JUMP JUMPDEST PUSH1 0x16 PUSH1 0x0 SWAP1 SLOAD SWAP1 PUSH2 0x100 EXP SWAP1 DIV PUSH20 0xFFFFFFFFFFFFFFFFFFFFFFFFFFFFFFFFFFFFFFFF AND PUSH20 0xFFFFFFFFFFFFFFFFFFFFFFFFFFFFFFFFFFFFFFFF AND PUSH4 0x38AF3EED PUSH1 0x40 MLOAD DUP2 PUSH4 0xFFFFFFFF AND PUSH1 0xE0 SHL DUP2 MSTORE PUSH1 0x4 ADD PUSH1 0x20 PUSH1 0x40 MLOAD DUP1 DUP4 SUB DUP2 DUP7 GAS STATICCALL ISZERO DUP1 ISZERO PUSH2 0x2630 JUMPI RETURNDATASIZE PUSH1 0x0 DUP1 RETURNDATACOPY RETURNDATASIZE PUSH1 0x0 REVERT JUMPDEST POP POP POP POP PUSH1 0x40 MLOAD RETURNDATASIZE PUSH1 0x1F NOT PUSH1 0x1F DUP3 ADD AND DUP3 ADD DUP1 PUSH1 0x40 MSTORE POP DUP2 ADD SWAP1 PUSH2 0x2654 SWAP2 SWAP1 PUSH2 0x62FC JUMP JUMPDEST PUSH2 0x265D DUP2 PUSH2 0x395B JUMP JUMPDEST PUSH1 0x0 PUSH1 0x16 PUSH1 0x0 SWAP1 SLOAD SWAP1 PUSH2 0x100 EXP SWAP1 DIV PUSH20 0xFFFFFFFFFFFFFFFFFFFFFFFFFFFFFFFFFFFFFFFF AND PUSH20 0xFFFFFFFFFFFFFFFFFFFFFFFFFFFFFFFFFFFFFFFF AND PUSH4 0xA95606E PUSH2 0x26A5 PUSH2 0x50A7 JUMP JUMPDEST PUSH1 0x40 MLOAD DUP3 PUSH4 0xFFFFFFFF AND PUSH1 0xE0 SHL DUP2 MSTORE PUSH1 0x4 ADD PUSH2 0x26C1 SWAP2 SWAP1 PUSH2 0x63C5 JUMP JUMPDEST PUSH1 0x20 PUSH1 0x40 MLOAD DUP1 DUP4 SUB DUP2 PUSH1 0x0 DUP8 GAS CALL ISZERO DUP1 ISZERO PUSH2 0x26E0 JUMPI RETURNDATASIZE PUSH1 0x0 DUP1 RETURNDATACOPY RETURNDATASIZE PUSH1 0x0 REVERT JUMPDEST POP POP POP POP PUSH1 0x40 MLOAD RETURNDATASIZE PUSH1 0x1F NOT PUSH1 0x1F DUP3 ADD AND DUP3 ADD DUP1 PUSH1 0x40 MSTORE POP DUP2 ADD SWAP1 PUSH2 0x2704 SWAP2 SWAP1 PUSH2 0x63F6 JUMP JUMPDEST SWAP1 POP PUSH2 0x275F DUP2 PUSH1 0xA PUSH1 0x0 PUSH2 0x2716 PUSH2 0x3788 JUMP JUMPDEST PUSH20 0xFFFFFFFFFFFFFFFFFFFFFFFFFFFFFFFFFFFFFFFF AND PUSH20 0xFFFFFFFFFFFFFFFFFFFFFFFFFFFFFFFFFFFFFFFF AND DUP2 MSTORE PUSH1 0x20 ADD SWAP1 DUP2 MSTORE PUSH1 0x20 ADD PUSH1 0x0 KECCAK256 SLOAD PUSH2 0x340E SWAP1 SWAP2 SWAP1 PUSH4 0xFFFFFFFF AND JUMP JUMPDEST PUSH1 0xA PUSH1 0x0 PUSH2 0x276B PUSH2 0x3788 JUMP JUMPDEST PUSH20 0xFFFFFFFFFFFFFFFFFFFFFFFFFFFFFFFFFFFFFFFF AND PUSH20 0xFFFFFFFFFFFFFFFFFFFFFFFFFFFFFFFFFFFFFFFF AND DUP2 MSTORE PUSH1 0x20 ADD SWAP1 DUP2 MSTORE PUSH1 0x20 ADD PUSH1 0x0 KECCAK256 DUP2 SWAP1 SSTORE POP POP POP JUMP JUMPDEST PUSH1 0x60 PUSH1 0xE DUP1 SLOAD PUSH2 0x27BC SWAP1 PUSH2 0x60D2 JUMP JUMPDEST DUP1 PUSH1 0x1F ADD PUSH1 0x20 DUP1 SWAP2 DIV MUL PUSH1 0x20 ADD PUSH1 0x40 MLOAD SWAP1 DUP2 ADD PUSH1 0x40 MSTORE DUP1 SWAP3 SWAP2 SWAP1 DUP2 DUP2 MSTORE PUSH1 0x20 ADD DUP3 DUP1 SLOAD PUSH2 0x27E8 SWAP1 PUSH2 0x60D2 JUMP JUMPDEST DUP1 ISZERO PUSH2 0x2835 JUMPI DUP1 PUSH1 0x1F LT PUSH2 0x280A JUMPI PUSH2 0x100 DUP1 DUP4 SLOAD DIV MUL DUP4 MSTORE SWAP2 PUSH1 0x20 ADD SWAP2 PUSH2 0x2835 JUMP JUMPDEST DUP3 ADD SWAP2 SWAP1 PUSH1 0x0 MSTORE PUSH1 0x20 PUSH1 0x0 KECCAK256 SWAP1 JUMPDEST DUP2 SLOAD DUP2 MSTORE SWAP1 PUSH1 0x1 ADD SWAP1 PUSH1 0x20 ADD DUP1 DUP4 GT PUSH2 0x2818 JUMPI DUP3 SWAP1 SUB PUSH1 0x1F AND DUP3 ADD SWAP2 JUMPDEST POP POP POP POP POP SWAP1 POP SWAP1 JUMP JUMPDEST PUSH1 0x10 PUSH1 0x0 SWAP1 SLOAD SWAP1 PUSH2 0x100 EXP SWAP1 DIV PUSH1 0xFF AND DUP2 JUMP JUMPDEST PUSH2 0x285A PUSH2 0x3424 JUMP JUMPDEST PUSH2 0x2862 PUSH2 0x34A2 JUMP JUMPDEST PUSH1 0x0 DUP3 DUP3 SWAP1 POP GT PUSH2 0x28A8 JUMPI PUSH1 0x40 MLOAD PUSH32 0x8C379A000000000000000000000000000000000000000000000000000000000 DUP2 MSTORE PUSH1 0x4 ADD PUSH2 0x289F SWAP1 PUSH2 0x65B6 JUMP JUMPDEST PUSH1 0x40 MLOAD DUP1 SWAP2 SUB SWAP1 REVERT JUMPDEST PUSH1 0x0 JUMPDEST DUP3 DUP3 SWAP1 POP DUP2 LT ISZERO PUSH2 0x28F7 JUMPI PUSH2 0x28E6 DUP4 DUP4 DUP4 DUP2 DUP2 LT PUSH2 0x28CC JUMPI PUSH2 0x28CB PUSH2 0x6170 JUMP JUMPDEST JUMPDEST SWAP1 POP PUSH1 0x20 MUL ADD PUSH1 0x20 DUP2 ADD SWAP1 PUSH2 0x28E1 SWAP2 SWAP1 PUSH2 0x5F69 JUMP JUMPDEST PUSH2 0x5443 JUMP JUMPDEST POP PUSH2 0x28F0 DUP2 PUSH2 0x377B JUMP JUMPDEST SWAP1 POP PUSH2 0x28AB JUMP JUMPDEST POP CALLER PUSH20 0xFFFFFFFFFFFFFFFFFFFFFFFFFFFFFFFFFFFFFFFF AND PUSH32 0x11DE4C4BBDE444DD104485ABDCBA99B21A09383732955C686C96B9F3AB11407A DUP4 DUP4 PUSH1 0x40 MLOAD PUSH2 0x2940 SWAP3 SWAP2 SWAP1 PUSH2 0x6673 JUMP JUMPDEST PUSH1 0x40 MLOAD DUP1 SWAP2 SUB SWAP1 LOG2 POP POP JUMP JUMPDEST PUSH2 0x2954 PUSH2 0x3424 JUMP JUMPDEST DUP1 PUSH1 0x12 PUSH1 0x0 PUSH2 0x100 EXP DUP2 SLOAD DUP2 PUSH20 0xFFFFFFFFFFFFFFFFFFFFFFFFFFFFFFFFFFFFFFFF MUL NOT AND SWAP1 DUP4 PUSH20 0xFFFFFFFFFFFFFFFFFFFFFFFFFFFFFFFFFFFFFFFF AND MUL OR SWAP1 SSTORE POP DUP1 PUSH20 0xFFFFFFFFFFFFFFFFFFFFFFFFFFFFFFFFFFFFFFFF AND PUSH32 0xC35CEA67BC4CAF96CC47A71099D4192A65D36AB490D26EBF55825C0700815F61 PUSH1 0x40 MLOAD PUSH1 0x40 MLOAD DUP1 SWAP2 SUB SWAP1 LOG2 POP JUMP JUMPDEST PUSH1 0x14 PUSH1 0x0 SWAP1 SLOAD SWAP1 PUSH2 0x100 EXP SWAP1 DIV PUSH20 0xFFFFFFFFFFFFFFFFFFFFFFFFFFFFFFFFFFFFFFFF AND DUP2 JUMP JUMPDEST PUSH1 0x0 DUP1 PUSH2 0x2A0C PUSH2 0x3788 JUMP JUMPDEST SWAP1 POP PUSH1 0x0 PUSH2 0x2A1A DUP3 DUP7 PUSH2 0x3272 JUMP JUMPDEST SWAP1 POP DUP4 DUP2 LT ISZERO PUSH2 0x2A5F JUMPI PUSH1 0x40 MLOAD PUSH32 0x8C379A000000000000000000000000000000000000000000000000000000000 DUP2 MSTORE PUSH1 0x4 ADD PUSH2 0x2A56 SWAP1 PUSH2 0x6709 JUMP JUMPDEST PUSH1 0x40 MLOAD DUP1 SWAP2 SUB SWAP1 REVERT JUMPDEST PUSH2 0x2A6C DUP3 DUP7 DUP7 DUP5 SUB PUSH2 0x3790 JUMP JUMPDEST PUSH1 0x1 SWAP3 POP POP POP SWAP3 SWAP2 POP POP JUMP JUMPDEST PUSH1 0x12 PUSH1 0x0 SWAP1 SLOAD SWAP1 PUSH2 0x100 EXP SWAP1 DIV PUSH20 0xFFFFFFFFFFFFFFFFFFFFFFFFFFFFFFFFFFFFFFFF AND DUP2 JUMP JUMPDEST PUSH1 0x0 DUP1 PUSH2 0x2AA9 PUSH2 0x3788 JUMP JUMPDEST SWAP1 POP PUSH2 0x2AB6 DUP2 DUP6 DUP6 PUSH2 0x4309 JUMP JUMPDEST PUSH1 0x1 SWAP2 POP POP SWAP3 SWAP2 POP POP JUMP JUMPDEST PUSH2 0x2AC9 PUSH2 0x3424 JUMP JUMPDEST PUSH1 0x0 ISZERO ISZERO PUSH1 0x10 PUSH1 0x1 SWAP1 SLOAD SWAP1 PUSH2 0x100 EXP SWAP1 DIV PUSH1 0xFF AND ISZERO ISZERO EQ PUSH2 0x2B1F JUMPI PUSH1 0x40 MLOAD PUSH32 0x8C379A000000000000000000000000000000000000000000000000000000000 DUP2 MSTORE PUSH1 0x4 ADD PUSH2 0x2B16 SWAP1 PUSH2 0x6775 JUMP JUMPDEST PUSH1 0x40 MLOAD DUP1 SWAP2 SUB SWAP1 REVERT JUMPDEST PUSH1 0x1 PUSH1 0x10 PUSH1 0x1 PUSH2 0x100 EXP DUP2 SLOAD DUP2 PUSH1 0xFF MUL NOT AND SWAP1 DUP4 ISZERO ISZERO MUL OR SWAP1 SSTORE POP PUSH1 0x16 PUSH1 0x0 SWAP1 SLOAD SWAP1 PUSH2 0x100 EXP SWAP1 DIV PUSH20 0xFFFFFFFFFFFFFFFFFFFFFFFFFFFFFFFFFFFFFFFF AND PUSH20 0xFFFFFFFFFFFFFFFFFFFFFFFFFFFFFFFFFFFFFFFF AND PUSH4 0xC8CCA41E PUSH1 0x40 MLOAD DUP2 PUSH4 0xFFFFFFFF AND PUSH1 0xE0 SHL DUP2 MSTORE PUSH1 0x4 ADD PUSH1 0x0 PUSH1 0x40 MLOAD DUP1 DUP4 SUB DUP2 PUSH1 0x0 DUP8 DUP1 EXTCODESIZE ISZERO DUP1 ISZERO PUSH2 0x2BA4 JUMPI PUSH1 0x0 DUP1 REVERT JUMPDEST POP GAS CALL ISZERO DUP1 ISZERO PUSH2 0x2BB8 JUMPI RETURNDATASIZE PUSH1 0x0 DUP1 RETURNDATACOPY RETURNDATASIZE PUSH1 0x0 REVERT JUMPDEST POP POP POP POP PUSH1 0x17 PUSH1 0x0 SWAP1 SLOAD SWAP1 PUSH2 0x100 EXP SWAP1 DIV PUSH20 0xFFFFFFFFFFFFFFFFFFFFFFFFFFFFFFFFFFFFFFFF AND PUSH20 0xFFFFFFFFFFFFFFFFFFFFFFFFFFFFFFFFFFFFFFFF AND PUSH4 0xC8CCA41E PUSH1 0x40 MLOAD DUP2 PUSH4 0xFFFFFFFF AND PUSH1 0xE0 SHL DUP2 MSTORE PUSH1 0x4 ADD PUSH1 0x0 PUSH1 0x40 MLOAD DUP1 DUP4 SUB DUP2 PUSH1 0x0 DUP8 DUP1 EXTCODESIZE ISZERO DUP1 ISZERO PUSH2 0x2C26 JUMPI PUSH1 0x0 DUP1 REVERT JUMPDEST POP GAS CALL ISZERO DUP1 ISZERO PUSH2 0x2C3A JUMPI RETURNDATASIZE PUSH1 0x0 DUP1 RETURNDATACOPY RETURNDATASIZE PUSH1 0x0 REVERT JUMPDEST POP POP POP POP PUSH1 0x18 PUSH1 0x0 SWAP1 SLOAD SWAP1 PUSH2 0x100 EXP SWAP1 DIV PUSH20 0xFFFFFFFFFFFFFFFFFFFFFFFFFFFFFFFFFFFFFFFF AND PUSH20 0xFFFFFFFFFFFFFFFFFFFFFFFFFFFFFFFFFFFFFFFF AND PUSH4 0xC8CCA41E PUSH1 0x40 MLOAD DUP2 PUSH4 0xFFFFFFFF AND PUSH1 0xE0 SHL DUP2 MSTORE PUSH1 0x4 ADD PUSH1 0x0 PUSH1 0x40 MLOAD DUP1 DUP4 SUB DUP2 PUSH1 0x0 DUP8 DUP1 EXTCODESIZE ISZERO DUP1 ISZERO PUSH2 0x2CA8 JUMPI PUSH1 0x0 DUP1 REVERT JUMPDEST POP GAS CALL ISZERO DUP1 ISZERO PUSH2 0x2CBC JUMPI RETURNDATASIZE PUSH1 0x0 DUP1 RETURNDATACOPY RETURNDATASIZE PUSH1 0x0 REVERT JUMPDEST POP POP POP POP PUSH1 0x19 PUSH1 0x0 SWAP1 SLOAD SWAP1 PUSH2 0x100 EXP SWAP1 DIV PUSH20 0xFFFFFFFFFFFFFFFFFFFFFFFFFFFFFFFFFFFFFFFF AND PUSH20 0xFFFFFFFFFFFFFFFFFFFFFFFFFFFFFFFFFFFFFFFF AND PUSH4 0xC8CCA41E PUSH1 0x40 MLOAD DUP2 PUSH4 0xFFFFFFFF AND PUSH1 0xE0 SHL DUP2 MSTORE PUSH1 0x4 ADD PUSH1 0x0 PUSH1 0x40 MLOAD DUP1 DUP4 SUB DUP2 PUSH1 0x0 DUP8 DUP1 EXTCODESIZE ISZERO DUP1 ISZERO PUSH2 0x2D2A JUMPI PUSH1 0x0 DUP1 REVERT JUMPDEST POP GAS CALL ISZERO DUP1 ISZERO PUSH2 0x2D3E JUMPI RETURNDATASIZE PUSH1 0x0 DUP1 RETURNDATACOPY RETURNDATASIZE PUSH1 0x0 REVERT JUMPDEST POP POP POP POP PUSH1 0x1A PUSH1 0x0 SWAP1 SLOAD SWAP1 PUSH2 0x100 EXP SWAP1 DIV PUSH20 0xFFFFFFFFFFFFFFFFFFFFFFFFFFFFFFFFFFFFFFFF AND PUSH20 0xFFFFFFFFFFFFFFFFFFFFFFFFFFFFFFFFFFFFFFFF AND PUSH4 0xC8CCA41E PUSH1 0x40 MLOAD DUP2 PUSH4 0xFFFFFFFF AND PUSH1 0xE0 SHL DUP2 MSTORE PUSH1 0x4 ADD PUSH1 0x0 PUSH1 0x40 MLOAD DUP1 DUP4 SUB DUP2 PUSH1 0x0 DUP8 DUP1 EXTCODESIZE ISZERO DUP1 ISZERO PUSH2 0x2DAC JUMPI PUSH1 0x0 DUP1 REVERT JUMPDEST POP GAS CALL ISZERO DUP1 ISZERO PUSH2 0x2DC0 JUMPI RETURNDATASIZE PUSH1 0x0 DUP1 RETURNDATACOPY RETURNDATASIZE PUSH1 0x0 REVERT JUMPDEST POP POP POP POP PUSH1 0x1B PUSH1 0x0 SWAP1 SLOAD SWAP1 PUSH2 0x100 EXP SWAP1 DIV PUSH20 0xFFFFFFFFFFFFFFFFFFFFFFFFFFFFFFFFFFFFFFFF AND PUSH20 0xFFFFFFFFFFFFFFFFFFFFFFFFFFFFFFFFFFFFFFFF AND PUSH4 0xC8CCA41E PUSH1 0x40 MLOAD DUP2 PUSH4 0xFFFFFFFF AND PUSH1 0xE0 SHL DUP2 MSTORE PUSH1 0x4 ADD PUSH1 0x0 PUSH1 0x40 MLOAD DUP1 DUP4 SUB DUP2 PUSH1 0x0 DUP8 DUP1 EXTCODESIZE ISZERO DUP1 ISZERO PUSH2 0x2E2E JUMPI PUSH1 0x0 DUP1 REVERT JUMPDEST POP GAS CALL ISZERO DUP1 ISZERO PUSH2 0x2E42 JUMPI RETURNDATASIZE PUSH1 0x0 DUP1 RETURNDATACOPY RETURNDATASIZE PUSH1 0x0 REVERT JUMPDEST POP POP POP POP PUSH1 0x1C PUSH1 0x0 SWAP1 SLOAD SWAP1 PUSH2 0x100 EXP SWAP1 DIV PUSH20 0xFFFFFFFFFFFFFFFFFFFFFFFFFFFFFFFFFFFFFFFF AND PUSH20 0xFFFFFFFFFFFFFFFFFFFFFFFFFFFFFFFFFFFFFFFF AND PUSH4 0xC8CCA41E PUSH1 0x40 MLOAD DUP2 PUSH4 0xFFFFFFFF AND PUSH1 0xE0 SHL DUP2 MSTORE PUSH1 0x4 ADD PUSH1 0x0 PUSH1 0x40 MLOAD DUP1 DUP4 SUB DUP2 PUSH1 0x0 DUP8 DUP1 EXTCODESIZE ISZERO DUP1 ISZERO PUSH2 0x2EB0 JUMPI PUSH1 0x0 DUP1 REVERT JUMPDEST POP GAS CALL ISZERO DUP1 ISZERO PUSH2 0x2EC4 JUMPI RETURNDATASIZE PUSH1 0x0 DUP1 RETURNDATACOPY RETURNDATASIZE PUSH1 0x0 REVERT JUMPDEST POP POP POP POP PUSH1 0x1D PUSH1 0x0 SWAP1 SLOAD SWAP1 PUSH2 0x100 EXP SWAP1 DIV PUSH20 0xFFFFFFFFFFFFFFFFFFFFFFFFFFFFFFFFFFFFFFFF AND PUSH20 0xFFFFFFFFFFFFFFFFFFFFFFFFFFFFFFFFFFFFFFFF AND PUSH4 0xC8CCA41E PUSH1 0x40 MLOAD DUP2 PUSH4 0xFFFFFFFF AND PUSH1 0xE0 SHL DUP2 MSTORE PUSH1 0x4 ADD PUSH1 0x0 PUSH1 0x40 MLOAD DUP1 DUP4 SUB DUP2 PUSH1 0x0 DUP8 DUP1 EXTCODESIZE ISZERO DUP1 ISZERO PUSH2 0x2F32 JUMPI PUSH1 0x0 DUP1 REVERT JUMPDEST POP GAS CALL ISZERO DUP1 ISZERO PUSH2 0x2F46 JUMPI RETURNDATASIZE PUSH1 0x0 DUP1 RETURNDATACOPY RETURNDATASIZE PUSH1 0x0 REVERT JUMPDEST POP POP POP POP PUSH1 0x1E PUSH1 0x0 SWAP1 SLOAD SWAP1 PUSH2 0x100 EXP SWAP1 DIV PUSH20 0xFFFFFFFFFFFFFFFFFFFFFFFFFFFFFFFFFFFFFFFF AND PUSH20 0xFFFFFFFFFFFFFFFFFFFFFFFFFFFFFFFFFFFFFFFF AND PUSH4 0xC8CCA41E PUSH1 0x40 MLOAD DUP2 PUSH4 0xFFFFFFFF AND PUSH1 0xE0 SHL DUP2 MSTORE PUSH1 0x4 ADD PUSH1 0x0 PUSH1 0x40 MLOAD DUP1 DUP4 SUB DUP2 PUSH1 0x0 DUP8 DUP1 EXTCODESIZE ISZERO DUP1 ISZERO PUSH2 0x2FB4 JUMPI PUSH1 0x0 DUP1 REVERT JUMPDEST POP GAS CALL ISZERO DUP1 ISZERO PUSH2 0x2FC8 JUMPI RETURNDATASIZE PUSH1 0x0 DUP1 RETURNDATACOPY RETURNDATASIZE PUSH1 0x0 REVERT JUMPDEST POP POP POP POP PUSH1 0x1F PUSH1 0x0 SWAP1 SLOAD SWAP1 PUSH2 0x100 EXP SWAP1 DIV PUSH20 0xFFFFFFFFFFFFFFFFFFFFFFFFFFFFFFFFFFFFFFFF AND PUSH20 0xFFFFFFFFFFFFFFFFFFFFFFFFFFFFFFFFFFFFFFFF AND PUSH4 0xC8CCA41E PUSH1 0x40 MLOAD DUP2 PUSH4 0xFFFFFFFF AND PUSH1 0xE0 SHL DUP2 MSTORE PUSH1 0x4 ADD PUSH1 0x0 PUSH1 0x40 MLOAD DUP1 DUP4 SUB DUP2 PUSH1 0x0 DUP8 DUP1 EXTCODESIZE ISZERO DUP1 ISZERO PUSH2 0x3036 JUMPI PUSH1 0x0 DUP1 REVERT JUMPDEST POP GAS CALL ISZERO DUP1 ISZERO PUSH2 0x304A JUMPI RETURNDATASIZE PUSH1 0x0 DUP1 RETURNDATACOPY RETURNDATASIZE PUSH1 0x0 REVERT JUMPDEST POP POP POP POP PUSH2 0x3056 PUSH2 0x3788 JUMP JUMPDEST PUSH20 0xFFFFFFFFFFFFFFFFFFFFFFFFFFFFFFFFFFFFFFFF AND PUSH32 0x72E04AFC383D9AB428814E808CD65ABB27C66B5FA85CC230B4CDA3E36B436C98 PUSH1 0x40 MLOAD PUSH1 0x40 MLOAD DUP1 SWAP2 SUB SWAP1 LOG2 PUSH2 0x30A0 PUSH2 0x55FD JUMP JUMPDEST PUSH2 0x30A8 PUSH2 0x3788 JUMP JUMPDEST PUSH20 0xFFFFFFFFFFFFFFFFFFFFFFFFFFFFFFFFFFFFFFFF AND PUSH32 0x166F0287F5E28D35EC474DA4C920A3E6F47F0D7C8833B963DD8367F68DD377CD PUSH1 0x40 MLOAD PUSH1 0x40 MLOAD DUP1 SWAP2 SUB SWAP1 LOG2 JUMP JUMPDEST PUSH1 0x10 PUSH1 0x1 SWAP1 SLOAD SWAP1 PUSH2 0x100 EXP SWAP1 DIV PUSH1 0xFF AND DUP2 JUMP JUMPDEST PUSH1 0xF SLOAD DUP2 JUMP JUMPDEST PUSH1 0x13 PUSH1 0x0 SWAP1 SLOAD SWAP1 PUSH2 0x100 EXP SWAP1 DIV PUSH20 0xFFFFFFFFFFFFFFFFFFFFFFFFFFFFFFFFFFFFFFFF AND DUP2 JUMP JUMPDEST PUSH2 0x3133 PUSH2 0x3424 JUMP JUMPDEST PUSH2 0x3185 DUP2 PUSH1 0xA PUSH1 0x0 ADDRESS PUSH20 0xFFFFFFFFFFFFFFFFFFFFFFFFFFFFFFFFFFFFFFFF AND PUSH20 0xFFFFFFFFFFFFFFFFFFFFFFFFFFFFFFFFFFFFFFFF AND DUP2 MSTORE PUSH1 0x20 ADD SWAP1 DUP2 MSTORE PUSH1 0x20 ADD PUSH1 0x0 KECCAK256 SLOAD PUSH2 0x340E SWAP1 SWAP2 SWAP1 PUSH4 0xFFFFFFFF AND JUMP JUMPDEST PUSH1 0xA PUSH1 0x0 ADDRESS PUSH20 0xFFFFFFFFFFFFFFFFFFFFFFFFFFFFFFFFFFFFFFFF AND PUSH20 0xFFFFFFFFFFFFFFFFFFFFFFFFFFFFFFFFFFFFFFFF AND DUP2 MSTORE PUSH1 0x20 ADD SWAP1 DUP2 MSTORE PUSH1 0x20 ADD PUSH1 0x0 KECCAK256 DUP2 SWAP1 SSTORE POP PUSH2 0x31DD DUP2 PUSH1 0xC SLOAD PUSH2 0x340E SWAP1 SWAP2 SWAP1 PUSH4 0xFFFFFFFF AND JUMP JUMPDEST PUSH1 0xC DUP2 SWAP1 SSTORE POP ADDRESS PUSH20 0xFFFFFFFFFFFFFFFFFFFFFFFFFFFFFFFFFFFFFFFF AND PUSH1 0x0 PUSH20 0xFFFFFFFFFFFFFFFFFFFFFFFFFFFFFFFFFFFFFFFF AND PUSH32 0xDDF252AD1BE2C89B69C2B068FC378DAA952BA7F163C4A11628F55A4DF523B3EF DUP4 PUSH1 0x40 MLOAD PUSH2 0x3241 SWAP2 SWAP1 PUSH2 0x5D5D JUMP JUMPDEST PUSH1 0x40 MLOAD DUP1 SWAP2 SUB SWAP1 LOG3 POP JUMP JUMPDEST PUSH1 0x15 PUSH1 0x0 SWAP1 SLOAD SWAP1 PUSH2 0x100 EXP SWAP1 DIV PUSH20 0xFFFFFFFFFFFFFFFFFFFFFFFFFFFFFFFFFFFFFFFF AND DUP2 JUMP JUMPDEST PUSH1 0x0 PUSH1 0xB PUSH1 0x0 DUP5 PUSH20 0xFFFFFFFFFFFFFFFFFFFFFFFFFFFFFFFFFFFFFFFF AND PUSH20 0xFFFFFFFFFFFFFFFFFFFFFFFFFFFFFFFFFFFFFFFF AND DUP2 MSTORE PUSH1 0x20 ADD SWAP1 DUP2 MSTORE PUSH1 0x20 ADD PUSH1 0x0 KECCAK256 PUSH1 0x0 DUP4 PUSH20 0xFFFFFFFFFFFFFFFFFFFFFFFFFFFFFFFFFFFFFFFF AND PUSH20 0xFFFFFFFFFFFFFFFFFFFFFFFFFFFFFFFFFFFFFFFF AND DUP2 MSTORE PUSH1 0x20 ADD SWAP1 DUP2 MSTORE PUSH1 0x20 ADD PUSH1 0x0 KECCAK256 SLOAD SWAP1 POP SWAP3 SWAP2 POP POP JUMP JUMPDEST PUSH2 0x3301 PUSH2 0x3424 JUMP JUMPDEST PUSH1 0x0 PUSH20 0xFFFFFFFFFFFFFFFFFFFFFFFFFFFFFFFFFFFFFFFF AND DUP2 PUSH20 0xFFFFFFFFFFFFFFFFFFFFFFFFFFFFFFFFFFFFFFFF AND EQ ISZERO PUSH2 0x3371 JUMPI PUSH1 0x40 MLOAD PUSH32 0x8C379A000000000000000000000000000000000000000000000000000000000 DUP2 MSTORE PUSH1 0x4 ADD PUSH2 0x3368 SWAP1 PUSH2 0x6807 JUMP JUMPDEST PUSH1 0x40 MLOAD DUP1 SWAP2 SUB SWAP1 REVERT JUMPDEST PUSH2 0x337A DUP2 PUSH2 0x4E5A JUMP JUMPDEST POP JUMP JUMPDEST PUSH1 0x11 PUSH1 0x0 SWAP1 SLOAD SWAP1 PUSH2 0x100 EXP SWAP1 DIV PUSH20 0xFFFFFFFFFFFFFFFFFFFFFFFFFFFFFFFFFFFFFFFF AND DUP2 JUMP JUMPDEST PUSH1 0x0 DUP4 DUP4 GT ISZERO DUP3 SWAP1 PUSH2 0x33EB JUMPI PUSH1 0x40 MLOAD PUSH32 0x8C379A000000000000000000000000000000000000000000000000000000000 DUP2 MSTORE PUSH1 0x4 ADD PUSH2 0x33E2 SWAP2 SWAP1 PUSH2 0x5B66 JUMP JUMPDEST PUSH1 0x40 MLOAD DUP1 SWAP2 SUB SWAP1 REVERT JUMPDEST POP DUP3 DUP5 SUB SWAP1 POP SWAP4 SWAP3 POP POP POP JUMP JUMPDEST PUSH1 0x0 DUP2 DUP4 PUSH2 0x3406 SWAP2 SWAP1 PUSH2 0x6856 JUMP JUMPDEST SWAP1 POP SWAP3 SWAP2 POP POP JUMP JUMPDEST PUSH1 0x0 DUP2 DUP4 PUSH2 0x341C SWAP2 SWAP1 PUSH2 0x6452 JUMP JUMPDEST SWAP1 POP SWAP3 SWAP2 POP POP JUMP JUMPDEST PUSH2 0x342C PUSH2 0x3788 JUMP JUMPDEST PUSH20 0xFFFFFFFFFFFFFFFFFFFFFFFFFFFFFFFFFFFFFFFF AND PUSH2 0x344A PUSH2 0x239F JUMP JUMPDEST PUSH20 0xFFFFFFFFFFFFFFFFFFFFFFFFFFFFFFFFFFFFFFFF AND EQ PUSH2 0x34A0 JUMPI PUSH1 0x40 MLOAD PUSH32 0x8C379A000000000000000000000000000000000000000000000000000000000 DUP2 MSTORE PUSH1 0x4 ADD PUSH2 0x3497 SWAP1 PUSH2 0x68D3 JUMP JUMPDEST PUSH1 0x40 MLOAD DUP1 SWAP2 SUB SWAP1 REVERT JUMPDEST JUMP JUMPDEST PUSH1 0x1 ISZERO ISZERO PUSH1 0x10 PUSH1 0x1 SWAP1 SLOAD SWAP1 PUSH2 0x100 EXP SWAP1 DIV PUSH1 0xFF AND ISZERO ISZERO EQ PUSH2 0x34F8 JUMPI PUSH1 0x40 MLOAD PUSH32 0x8C379A000000000000000000000000000000000000000000000000000000000 DUP2 MSTORE PUSH1 0x4 ADD PUSH2 0x34EF SWAP1 PUSH2 0x693F JUMP JUMPDEST PUSH1 0x40 MLOAD DUP1 SWAP2 SUB SWAP1 REVERT JUMPDEST JUMP JUMPDEST PUSH2 0x3502 PUSH2 0x34A2 JUMP JUMPDEST PUSH1 0x0 DUP2 EQ ISZERO PUSH2 0x3546 JUMPI PUSH1 0x40 MLOAD PUSH32 0x8C379A000000000000000000000000000000000000000000000000000000000 DUP2 MSTORE PUSH1 0x4 ADD PUSH2 0x353D SWAP1 PUSH2 0x69AB JUMP JUMPDEST PUSH1 0x40 MLOAD DUP1 SWAP2 SUB SWAP1 REVERT JUMPDEST POP JUMP JUMPDEST PUSH1 0x7 SLOAD DUP2 GT ISZERO PUSH2 0x358E JUMPI PUSH1 0x40 MLOAD PUSH32 0x8C379A000000000000000000000000000000000000000000000000000000000 DUP2 MSTORE PUSH1 0x4 ADD PUSH2 0x3585 SWAP1 PUSH2 0x6A17 JUMP JUMPDEST PUSH1 0x40 MLOAD DUP1 SWAP2 SUB SWAP1 REVERT JUMPDEST PUSH1 0x0 PUSH1 0x9 PUSH1 0x0 DUP5 PUSH20 0xFFFFFFFFFFFFFFFFFFFFFFFFFFFFFFFFFFFFFFFF AND PUSH20 0xFFFFFFFFFFFFFFFFFFFFFFFFFFFFFFFFFFFFFFFF AND DUP2 MSTORE PUSH1 0x20 ADD SWAP1 DUP2 MSTORE PUSH1 0x20 ADD PUSH1 0x0 KECCAK256 PUSH1 0x1 ADD SLOAD EQ PUSH2 0x3613 JUMPI PUSH1 0x40 MLOAD PUSH32 0x8C379A000000000000000000000000000000000000000000000000000000000 DUP2 MSTORE PUSH1 0x4 ADD PUSH2 0x360A SWAP1 PUSH2 0x6A83 JUMP JUMPDEST PUSH1 0x40 MLOAD DUP1 SWAP2 SUB SWAP1 REVERT JUMPDEST DUP1 PUSH1 0x9 PUSH1 0x0 DUP5 PUSH20 0xFFFFFFFFFFFFFFFFFFFFFFFFFFFFFFFFFFFFFFFF AND PUSH20 0xFFFFFFFFFFFFFFFFFFFFFFFFFFFFFFFFFFFFFFFF AND DUP2 MSTORE PUSH1 0x20 ADD SWAP1 DUP2 MSTORE PUSH1 0x20 ADD PUSH1 0x0 KECCAK256 PUSH1 0x0 ADD DUP2 SWAP1 SSTORE POP DUP1 PUSH1 0x9 PUSH1 0x0 DUP5 PUSH20 0xFFFFFFFFFFFFFFFFFFFFFFFFFFFFFFFFFFFFFFFF AND PUSH20 0xFFFFFFFFFFFFFFFFFFFFFFFFFFFFFFFFFFFFFFFF AND DUP2 MSTORE PUSH1 0x20 ADD SWAP1 DUP2 MSTORE PUSH1 0x20 ADD PUSH1 0x0 KECCAK256 PUSH1 0x1 ADD DUP2 SWAP1 SSTORE POP PUSH1 0x0 PUSH1 0x9 PUSH1 0x0 DUP5 PUSH20 0xFFFFFFFFFFFFFFFFFFFFFFFFFFFFFFFFFFFFFFFF AND PUSH20 0xFFFFFFFFFFFFFFFFFFFFFFFFFFFFFFFFFFFFFFFF AND DUP2 MSTORE PUSH1 0x20 ADD SWAP1 DUP2 MSTORE PUSH1 0x20 ADD PUSH1 0x0 KECCAK256 PUSH1 0x2 ADD PUSH1 0x0 PUSH2 0x100 EXP DUP2 SLOAD DUP2 PUSH1 0xFF MUL NOT AND SWAP1 DUP4 ISZERO ISZERO MUL OR SWAP1 SSTORE POP PUSH1 0x1 PUSH1 0x9 PUSH1 0x0 DUP5 PUSH20 0xFFFFFFFFFFFFFFFFFFFFFFFFFFFFFFFFFFFFFFFF AND PUSH20 0xFFFFFFFFFFFFFFFFFFFFFFFFFFFFFFFFFFFFFFFF AND DUP2 MSTORE PUSH1 0x20 ADD SWAP1 DUP2 MSTORE PUSH1 0x20 ADD PUSH1 0x0 KECCAK256 PUSH1 0x3 ADD DUP2 SWAP1 SSTORE POP PUSH1 0x1 PUSH1 0x6 PUSH1 0x0 DUP3 DUP3 SLOAD PUSH2 0x3757 SWAP2 SWAP1 PUSH2 0x6452 JUMP JUMPDEST SWAP3 POP POP DUP2 SWAP1 SSTORE POP DUP1 PUSH1 0x7 PUSH1 0x0 DUP3 DUP3 SLOAD PUSH2 0x3770 SWAP2 SWAP1 PUSH2 0x6AA3 JUMP JUMPDEST SWAP3 POP POP DUP2 SWAP1 SSTORE POP POP POP JUMP JUMPDEST PUSH1 0x0 PUSH1 0x1 DUP3 ADD SWAP1 POP SWAP2 SWAP1 POP JUMP JUMPDEST PUSH1 0x0 CALLER SWAP1 POP SWAP1 JUMP JUMPDEST PUSH1 0x0 PUSH20 0xFFFFFFFFFFFFFFFFFFFFFFFFFFFFFFFFFFFFFFFF AND DUP4 PUSH20 0xFFFFFFFFFFFFFFFFFFFFFFFFFFFFFFFFFFFFFFFF AND EQ ISZERO PUSH2 0x3800 JUMPI PUSH1 0x40 MLOAD PUSH32 0x8C379A000000000000000000000000000000000000000000000000000000000 DUP2 MSTORE PUSH1 0x4 ADD PUSH2 0x37F7 SWAP1 PUSH2 0x6B49 JUMP JUMPDEST PUSH1 0x40 MLOAD DUP1 SWAP2 SUB SWAP1 REVERT JUMPDEST PUSH1 0x0 PUSH20 0xFFFFFFFFFFFFFFFFFFFFFFFFFFFFFFFFFFFFFFFF AND DUP3 PUSH20 0xFFFFFFFFFFFFFFFFFFFFFFFFFFFFFFFFFFFFFFFF AND EQ ISZERO PUSH2 0x3870 JUMPI PUSH1 0x40 MLOAD PUSH32 0x8C379A000000000000000000000000000000000000000000000000000000000 DUP2 MSTORE PUSH1 0x4 ADD PUSH2 0x3867 SWAP1 PUSH2 0x6BDB JUMP JUMPDEST PUSH1 0x40 MLOAD DUP1 SWAP2 SUB SWAP1 REVERT JUMPDEST DUP1 PUSH1 0xB PUSH1 0x0 DUP6 PUSH20 0xFFFFFFFFFFFFFFFFFFFFFFFFFFFFFFFFFFFFFFFF AND PUSH20 0xFFFFFFFFFFFFFFFFFFFFFFFFFFFFFFFFFFFFFFFF AND DUP2 MSTORE PUSH1 0x20 ADD SWAP1 DUP2 MSTORE PUSH1 0x20 ADD PUSH1 0x0 KECCAK256 PUSH1 0x0 DUP5 PUSH20 0xFFFFFFFFFFFFFFFFFFFFFFFFFFFFFFFFFFFFFFFF AND PUSH20 0xFFFFFFFFFFFFFFFFFFFFFFFFFFFFFFFFFFFFFFFF AND DUP2 MSTORE PUSH1 0x20 ADD SWAP1 DUP2 MSTORE PUSH1 0x20 ADD PUSH1 0x0 KECCAK256 DUP2 SWAP1 SSTORE POP DUP2 PUSH20 0xFFFFFFFFFFFFFFFFFFFFFFFFFFFFFFFFFFFFFFFF AND DUP4 PUSH20 0xFFFFFFFFFFFFFFFFFFFFFFFFFFFFFFFFFFFFFFFF AND PUSH32 0x8C5BE1E5EBEC7D5BD14F71427D1E84F3DD0314C0F7B2291E5B200AC8C7C3B925 DUP4 PUSH1 0x40 MLOAD PUSH2 0x394E SWAP2 SWAP1 PUSH2 0x5D5D JUMP JUMPDEST PUSH1 0x40 MLOAD DUP1 SWAP2 SUB SWAP1 LOG3 POP POP POP JUMP JUMPDEST DUP1 PUSH20 0xFFFFFFFFFFFFFFFFFFFFFFFFFFFFFFFFFFFFFFFF AND PUSH2 0x397A PUSH2 0x3788 JUMP JUMPDEST PUSH20 0xFFFFFFFFFFFFFFFFFFFFFFFFFFFFFFFFFFFFFFFF AND EQ PUSH2 0x39D0 JUMPI PUSH1 0x40 MLOAD PUSH32 0x8C379A000000000000000000000000000000000000000000000000000000000 DUP2 MSTORE PUSH1 0x4 ADD PUSH2 0x39C7 SWAP1 PUSH2 0x6C47 JUMP JUMPDEST PUSH1 0x40 MLOAD DUP1 SWAP2 SUB SWAP1 REVERT JUMPDEST POP JUMP JUMPDEST PUSH2 0x39DB PUSH2 0x5AAA JUMP JUMPDEST PUSH1 0x40 MLOAD DUP1 PUSH2 0x660 ADD PUSH1 0x40 MSTORE DUP1 PUSH2 0x39FD PUSH4 0x1908B10 PUSH8 0xDE0B6B3A7640000 PUSH2 0x5606 JUMP JUMPDEST DUP2 MSTORE PUSH1 0x20 ADD PUSH1 0x0 DUP2 MSTORE PUSH1 0x20 ADD PUSH1 0x0 DUP2 MSTORE PUSH1 0x20 ADD PUSH1 0x0 DUP2 MSTORE PUSH1 0x20 ADD PUSH1 0x0 DUP2 MSTORE PUSH1 0x20 ADD PUSH1 0x0 DUP2 MSTORE PUSH1 0x20 ADD PUSH1 0x0 DUP2 MSTORE PUSH1 0x20 ADD PUSH1 0x0 DUP2 MSTORE PUSH1 0x20 ADD PUSH1 0x0 DUP2 MSTORE PUSH1 0x20 ADD PUSH1 0x0 DUP2 MSTORE PUSH1 0x20 ADD PUSH1 0x0 DUP2 MSTORE PUSH1 0x20 ADD PUSH1 0x0 DUP2 MSTORE PUSH1 0x20 ADD PUSH1 0x0 DUP2 MSTORE PUSH1 0x20 ADD PUSH1 0x0 DUP2 MSTORE PUSH1 0x20 ADD PUSH1 0x0 DUP2 MSTORE PUSH1 0x20 ADD PUSH1 0x0 DUP2 MSTORE PUSH1 0x20 ADD PUSH2 0x3A81 PUSH4 0x1B1EBFC PUSH8 0xDE0B6B3A7640000 PUSH2 0x5606 JUMP JUMPDEST DUP2 MSTORE PUSH1 0x20 ADD PUSH2 0x3A9C PUSH4 0x1B1EBFC PUSH8 0xDE0B6B3A7640000 PUSH2 0x5606 JUMP JUMPDEST DUP2 MSTORE PUSH1 0x20 ADD PUSH2 0x3AB7 PUSH4 0x1B1EBFC PUSH8 0xDE0B6B3A7640000 PUSH2 0x5606 JUMP JUMPDEST DUP2 MSTORE PUSH1 0x20 ADD PUSH2 0x3AD2 PUSH4 0x1B1EBFC PUSH8 0xDE0B6B3A7640000 PUSH2 0x5606 JUMP JUMPDEST DUP2 MSTORE PUSH1 0x20 ADD PUSH2 0x3AED PUSH4 0x1B1EBFC PUSH8 0xDE0B6B3A7640000 PUSH2 0x5606 JUMP JUMPDEST DUP2 MSTORE PUSH1 0x20 ADD PUSH2 0x3B08 PUSH4 0x1B1EBFC PUSH8 0xDE0B6B3A7640000 PUSH2 0x5606 JUMP JUMPDEST DUP2 MSTORE PUSH1 0x20 ADD PUSH2 0x3B23 PUSH4 0x1B1EBFC PUSH8 0xDE0B6B3A7640000 PUSH2 0x5606 JUMP JUMPDEST DUP2 MSTORE PUSH1 0x20 ADD PUSH2 0x3B3E PUSH4 0x1B1EBFC PUSH8 0xDE0B6B3A7640000 PUSH2 0x5606 JUMP JUMPDEST DUP2 MSTORE PUSH1 0x20 ADD PUSH2 0x3B59 PUSH4 0x1B1EBFC PUSH8 0xDE0B6B3A7640000 PUSH2 0x5606 JUMP JUMPDEST DUP2 MSTORE PUSH1 0x20 ADD PUSH2 0x3B74 PUSH4 0x1B1EBFC PUSH8 0xDE0B6B3A7640000 PUSH2 0x5606 JUMP JUMPDEST DUP2 MSTORE PUSH1 0x20 ADD PUSH2 0x3B8F PUSH4 0x1B1EBFC PUSH8 0xDE0B6B3A7640000 PUSH2 0x5606 JUMP JUMPDEST DUP2 MSTORE PUSH1 0x20 ADD PUSH2 0x3BAA PUSH4 0x1B1EBFC PUSH8 0xDE0B6B3A7640000 PUSH2 0x5606 JUMP JUMPDEST DUP2 MSTORE PUSH1 0x20 ADD PUSH2 0x3BC5 PUSH4 0x1B1EBFC PUSH8 0xDE0B6B3A7640000 PUSH2 0x5606 JUMP JUMPDEST DUP2 MSTORE PUSH1 0x20 ADD PUSH2 0x3BE0 PUSH4 0x1B1EBFC PUSH8 0xDE0B6B3A7640000 PUSH2 0x5606 JUMP JUMPDEST DUP2 MSTORE PUSH1 0x20 ADD PUSH2 0x3BFB PUSH4 0x1B1EBFC PUSH8 0xDE0B6B3A7640000 PUSH2 0x5606 JUMP JUMPDEST DUP2 MSTORE PUSH1 0x20 ADD PUSH2 0x3C16 PUSH4 0x1B1EBFC PUSH8 0xDE0B6B3A7640000 PUSH2 0x5606 JUMP JUMPDEST DUP2 MSTORE PUSH1 0x20 ADD PUSH2 0x3C31 PUSH4 0x1B1EBFC PUSH8 0xDE0B6B3A7640000 PUSH2 0x5606 JUMP JUMPDEST DUP2 MSTORE PUSH1 0x20 ADD PUSH2 0x3C4C PUSH4 0x1B1EBFC PUSH8 0xDE0B6B3A7640000 PUSH2 0x5606 JUMP JUMPDEST DUP2 MSTORE PUSH1 0x20 ADD PUSH2 0x3C67 PUSH4 0x1B1EBFC PUSH8 0xDE0B6B3A7640000 PUSH2 0x5606 JUMP JUMPDEST DUP2 MSTORE PUSH1 0x20 ADD PUSH2 0x3C82 PUSH4 0x1B1EBFC PUSH8 0xDE0B6B3A7640000 PUSH2 0x5606 JUMP JUMPDEST DUP2 MSTORE PUSH1 0x20 ADD PUSH2 0x3C9D PUSH4 0x1B1EBFC PUSH8 0xDE0B6B3A7640000 PUSH2 0x5606 JUMP JUMPDEST DUP2 MSTORE PUSH1 0x20 ADD PUSH2 0x3CB8 PUSH4 0x1B1EBFC PUSH8 0xDE0B6B3A7640000 PUSH2 0x5606 JUMP JUMPDEST DUP2 MSTORE PUSH1 0x20 ADD PUSH2 0x3CD3 PUSH4 0x1B1EBFC PUSH8 0xDE0B6B3A7640000 PUSH2 0x5606 JUMP JUMPDEST DUP2 MSTORE PUSH1 0x20 ADD PUSH2 0x3CEE PUSH4 0x1B1EBFC PUSH8 0xDE0B6B3A7640000 PUSH2 0x5606 JUMP JUMPDEST DUP2 MSTORE PUSH1 0x20 ADD PUSH2 0x3D09 PUSH4 0x1B1EBFC PUSH8 0xDE0B6B3A7640000 PUSH2 0x5606 JUMP JUMPDEST DUP2 MSTORE PUSH1 0x20 ADD PUSH2 0x3D24 PUSH4 0x1B1EBFC PUSH8 0xDE0B6B3A7640000 PUSH2 0x5606 JUMP JUMPDEST DUP2 MSTORE PUSH1 0x20 ADD PUSH2 0x3D3F PUSH4 0x1B1EBFC PUSH8 0xDE0B6B3A7640000 PUSH2 0x5606 JUMP JUMPDEST DUP2 MSTORE PUSH1 0x20 ADD PUSH2 0x3D5A PUSH4 0x1B1EBFC PUSH8 0xDE0B6B3A7640000 PUSH2 0x5606 JUMP JUMPDEST DUP2 MSTORE PUSH1 0x20 ADD PUSH2 0x3D75 PUSH4 0x1B1EBFC PUSH8 0xDE0B6B3A7640000 PUSH2 0x5606 JUMP JUMPDEST DUP2 MSTORE PUSH1 0x20 ADD PUSH2 0x3D90 PUSH4 0x1B1EBFC PUSH8 0xDE0B6B3A7640000 PUSH2 0x5606 JUMP JUMPDEST DUP2 MSTORE PUSH1 0x20 ADD PUSH2 0x3DAB PUSH4 0x1B1EBFC PUSH8 0xDE0B6B3A7640000 PUSH2 0x5606 JUMP JUMPDEST DUP2 MSTORE PUSH1 0x20 ADD PUSH2 0x3DC6 PUSH4 0x1B1EBFC PUSH8 0xDE0B6B3A7640000 PUSH2 0x5606 JUMP JUMPDEST DUP2 MSTORE PUSH1 0x20 ADD PUSH2 0x3DE1 PUSH4 0x1B1EBFC PUSH8 0xDE0B6B3A7640000 PUSH2 0x5606 JUMP JUMPDEST DUP2 MSTORE PUSH1 0x20 ADD PUSH2 0x3DFC PUSH4 0x1B1EBFC PUSH8 0xDE0B6B3A7640000 PUSH2 0x5606 JUMP JUMPDEST DUP2 MSTORE PUSH1 0x20 ADD PUSH2 0x3E17 PUSH4 0x1B1EBFC PUSH8 0xDE0B6B3A7640000 PUSH2 0x5606 JUMP JUMPDEST DUP2 MSTORE POP SWAP1 POP SWAP1 JUMP JUMPDEST PUSH2 0x3E27 PUSH2 0x5AAA JUMP JUMPDEST PUSH1 0x40 MLOAD DUP1 PUSH2 0x660 ADD PUSH1 0x40 MSTORE DUP1 PUSH2 0x3E48 PUSH3 0xC84588 PUSH8 0xDE0B6B3A7640000 PUSH2 0x5606 JUMP JUMPDEST DUP2 MSTORE PUSH1 0x20 ADD PUSH1 0x0 DUP2 MSTORE PUSH1 0x20 ADD PUSH1 0x0 DUP2 MSTORE PUSH1 0x20 ADD PUSH1 0x0 DUP2 MSTORE PUSH1 0x20 ADD PUSH1 0x0 DUP2 MSTORE PUSH1 0x20 ADD PUSH1 0x0 DUP2 MSTORE PUSH1 0x20 ADD PUSH1 0x0 DUP2 MSTORE PUSH1 0x20 ADD PUSH1 0x0 DUP2 MSTORE PUSH1 0x20 ADD PUSH2 0x3E93 PUSH3 0xC84588 PUSH8 0xDE0B6B3A7640000 PUSH2 0x5606 JUMP JUMPDEST DUP2 MSTORE PUSH1 0x20 ADD PUSH1 0x0 DUP2 MSTORE PUSH1 0x20 ADD PUSH1 0x0 DUP2 MSTORE PUSH1 0x20 ADD PUSH1 0x0 DUP2 MSTORE PUSH1 0x20 ADD PUSH1 0x0 DUP2 MSTORE PUSH1 0x20 ADD PUSH1 0x0 DUP2 MSTORE PUSH1 0x20 ADD PUSH1 0x0 DUP2 MSTORE PUSH1 0x20 ADD PUSH1 0x0 DUP2 MSTORE PUSH1 0x20 ADD PUSH2 0x3EDF PUSH4 0x1B1EBFC PUSH8 0xDE0B6B3A7640000 PUSH2 0x5606 JUMP JUMPDEST DUP2 MSTORE PUSH1 0x20 ADD PUSH2 0x3EFA PUSH4 0x1B1EBFC PUSH8 0xDE0B6B3A7640000 PUSH2 0x5606 JUMP JUMPDEST DUP2 MSTORE PUSH1 0x20 ADD PUSH2 0x3F15 PUSH4 0x1B1EBFC PUSH8 0xDE0B6B3A7640000 PUSH2 0x5606 JUMP JUMPDEST DUP2 MSTORE PUSH1 0x20 ADD PUSH2 0x3F30 PUSH4 0x1B1EBFC PUSH8 0xDE0B6B3A7640000 PUSH2 0x5606 JUMP JUMPDEST DUP2 MSTORE PUSH1 0x20 ADD PUSH2 0x3F4B PUSH4 0x1B1EBFC PUSH8 0xDE0B6B3A7640000 PUSH2 0x5606 JUMP JUMPDEST DUP2 MSTORE PUSH1 0x20 ADD PUSH2 0x3F66 PUSH4 0x1B1EBFC PUSH8 0xDE0B6B3A7640000 PUSH2 0x5606 JUMP JUMPDEST DUP2 MSTORE PUSH1 0x20 ADD PUSH2 0x3F81 PUSH4 0x1B1EBFC PUSH8 0xDE0B6B3A7640000 PUSH2 0x5606 JUMP JUMPDEST DUP2 MSTORE PUSH1 0x20 ADD PUSH2 0x3F9C PUSH4 0x1B1EBFC PUSH8 0xDE0B6B3A7640000 PUSH2 0x5606 JUMP JUMPDEST DUP2 MSTORE PUSH1 0x20 ADD PUSH2 0x3FB7 PUSH4 0x1B1EBFC PUSH8 0xDE0B6B3A7640000 PUSH2 0x5606 JUMP JUMPDEST DUP2 MSTORE PUSH1 0x20 ADD PUSH2 0x3FD2 PUSH4 0x1B1EBFC PUSH8 0xDE0B6B3A7640000 PUSH2 0x5606 JUMP JUMPDEST DUP2 MSTORE PUSH1 0x20 ADD PUSH2 0x3FED PUSH4 0x1B1EBFC PUSH8 0xDE0B6B3A7640000 PUSH2 0x5606 JUMP JUMPDEST DUP2 MSTORE PUSH1 0x20 ADD PUSH2 0x4008 PUSH4 0x1B1EBFC PUSH8 0xDE0B6B3A7640000 PUSH2 0x5606 JUMP JUMPDEST DUP2 MSTORE PUSH1 0x20 ADD PUSH2 0x4023 PUSH4 0x1B1EBFC PUSH8 0xDE0B6B3A7640000 PUSH2 0x5606 JUMP JUMPDEST DUP2 MSTORE PUSH1 0x20 ADD PUSH2 0x403E PUSH4 0x1B1EBFC PUSH8 0xDE0B6B3A7640000 PUSH2 0x5606 JUMP JUMPDEST DUP2 MSTORE PUSH1 0x20 ADD PUSH2 0x4059 PUSH4 0x1B1EBFC PUSH8 0xDE0B6B3A7640000 PUSH2 0x5606 JUMP JUMPDEST DUP2 MSTORE PUSH1 0x20 ADD PUSH2 0x4074 PUSH4 0x1B1EBFC PUSH8 0xDE0B6B3A7640000 PUSH2 0x5606 JUMP JUMPDEST DUP2 MSTORE PUSH1 0x20 ADD PUSH2 0x408F PUSH4 0x1B1EBFC PUSH8 0xDE0B6B3A7640000 PUSH2 0x5606 JUMP JUMPDEST DUP2 MSTORE PUSH1 0x20 ADD PUSH2 0x40AA PUSH4 0x1B1EBFC PUSH8 0xDE0B6B3A7640000 PUSH2 0x5606 JUMP JUMPDEST DUP2 MSTORE PUSH1 0x20 ADD PUSH2 0x40C5 PUSH4 0x1B1EBFC PUSH8 0xDE0B6B3A7640000 PUSH2 0x5606 JUMP JUMPDEST DUP2 MSTORE PUSH1 0x20 ADD PUSH2 0x40E0 PUSH4 0x1B1EBFC PUSH8 0xDE0B6B3A7640000 PUSH2 0x5606 JUMP JUMPDEST DUP2 MSTORE PUSH1 0x20 ADD PUSH2 0x40FB PUSH4 0x1B1EBFC PUSH8 0xDE0B6B3A7640000 PUSH2 0x5606 JUMP JUMPDEST DUP2 MSTORE PUSH1 0x20 ADD PUSH2 0x4116 PUSH4 0x1B1EBFC PUSH8 0xDE0B6B3A7640000 PUSH2 0x5606 JUMP JUMPDEST DUP2 MSTORE PUSH1 0x20 ADD PUSH2 0x4131 PUSH4 0x1B1EBFC PUSH8 0xDE0B6B3A7640000 PUSH2 0x5606 JUMP JUMPDEST DUP2 MSTORE PUSH1 0x20 ADD PUSH2 0x414C PUSH4 0x1B1EBFC PUSH8 0xDE0B6B3A7640000 PUSH2 0x5606 JUMP JUMPDEST DUP2 MSTORE PUSH1 0x20 ADD PUSH2 0x4167 PUSH4 0x1B1EBFC PUSH8 0xDE0B6B3A7640000 PUSH2 0x5606 JUMP JUMPDEST DUP2 MSTORE PUSH1 0x20 ADD PUSH2 0x4182 PUSH4 0x1B1EBFC PUSH8 0xDE0B6B3A7640000 PUSH2 0x5606 JUMP JUMPDEST DUP2 MSTORE PUSH1 0x20 ADD PUSH2 0x419D PUSH4 0x1B1EBFC PUSH8 0xDE0B6B3A7640000 PUSH2 0x5606 JUMP JUMPDEST DUP2 MSTORE PUSH1 0x20 ADD PUSH2 0x41B8 PUSH4 0x1B1EBFC PUSH8 0xDE0B6B3A7640000 PUSH2 0x5606 JUMP JUMPDEST DUP2 MSTORE PUSH1 0x20 ADD PUSH2 0x41D3 PUSH4 0x1B1EBFC PUSH8 0xDE0B6B3A7640000 PUSH2 0x5606 JUMP JUMPDEST DUP2 MSTORE PUSH1 0x20 ADD PUSH2 0x41EE PUSH4 0x1B1EBFC PUSH8 0xDE0B6B3A7640000 PUSH2 0x5606 JUMP JUMPDEST DUP2 MSTORE PUSH1 0x20 ADD PUSH2 0x4209 PUSH4 0x1B1EBFC PUSH8 0xDE0B6B3A7640000 PUSH2 0x5606 JUMP JUMPDEST DUP2 MSTORE PUSH1 0x20 ADD PUSH2 0x4224 PUSH4 0x1B1EBFC PUSH8 0xDE0B6B3A7640000 PUSH2 0x5606 JUMP JUMPDEST DUP2 MSTORE PUSH1 0x20 ADD PUSH2 0x423F PUSH4 0x1B1EBFC PUSH8 0xDE0B6B3A7640000 PUSH2 0x5606 JUMP JUMPDEST DUP2 MSTORE PUSH1 0x20 ADD PUSH2 0x425A PUSH4 0x1B1EBFC PUSH8 0xDE0B6B3A7640000 PUSH2 0x5606 JUMP JUMPDEST DUP2 MSTORE PUSH1 0x20 ADD PUSH2 0x4275 PUSH4 0x1B1EBFC PUSH8 0xDE0B6B3A7640000 PUSH2 0x5606 JUMP JUMPDEST DUP2 MSTORE POP SWAP1 POP SWAP1 JUMP JUMPDEST PUSH1 0x0 PUSH2 0x4289 DUP5 DUP5 PUSH2 0x3272 JUMP JUMPDEST SWAP1 POP PUSH32 0xFFFFFFFFFFFFFFFFFFFFFFFFFFFFFFFFFFFFFFFFFFFFFFFFFFFFFFFFFFFFFFFF DUP2 EQ PUSH2 0x4303 JUMPI DUP2 DUP2 LT ISZERO PUSH2 0x42F5 JUMPI PUSH1 0x40 MLOAD PUSH32 0x8C379A000000000000000000000000000000000000000000000000000000000 DUP2 MSTORE PUSH1 0x4 ADD PUSH2 0x42EC SWAP1 PUSH2 0x6CB3 JUMP JUMPDEST PUSH1 0x40 MLOAD DUP1 SWAP2 SUB SWAP1 REVERT JUMPDEST PUSH2 0x4302 DUP5 DUP5 DUP5 DUP5 SUB PUSH2 0x3790 JUMP JUMPDEST JUMPDEST POP POP POP POP JUMP JUMPDEST PUSH1 0x0 PUSH20 0xFFFFFFFFFFFFFFFFFFFFFFFFFFFFFFFFFFFFFFFF AND DUP4 PUSH20 0xFFFFFFFFFFFFFFFFFFFFFFFFFFFFFFFFFFFFFFFF AND EQ ISZERO PUSH2 0x4379 JUMPI PUSH1 0x40 MLOAD PUSH32 0x8C379A000000000000000000000000000000000000000000000000000000000 DUP2 MSTORE PUSH1 0x4 ADD PUSH2 0x4370 SWAP1 PUSH2 0x6D1F JUMP JUMPDEST PUSH1 0x40 MLOAD DUP1 SWAP2 SUB SWAP1 REVERT JUMPDEST PUSH1 0x0 PUSH20 0xFFFFFFFFFFFFFFFFFFFFFFFFFFFFFFFFFFFFFFFF AND DUP3 PUSH20 0xFFFFFFFFFFFFFFFFFFFFFFFFFFFFFFFFFFFFFFFF AND EQ ISZERO PUSH2 0x43E9 JUMPI PUSH1 0x40 MLOAD PUSH32 0x8C379A000000000000000000000000000000000000000000000000000000000 DUP2 MSTORE PUSH1 0x4 ADD PUSH2 0x43E0 SWAP1 PUSH2 0x6D8B JUMP JUMPDEST PUSH1 0x40 MLOAD DUP1 SWAP2 SUB SWAP1 REVERT JUMPDEST PUSH2 0x43F4 DUP4 DUP4 DUP4 PUSH2 0x561C JUMP JUMPDEST PUSH1 0x0 PUSH1 0xA PUSH1 0x0 DUP6 PUSH20 0xFFFFFFFFFFFFFFFFFFFFFFFFFFFFFFFFFFFFFFFF AND PUSH20 0xFFFFFFFFFFFFFFFFFFFFFFFFFFFFFFFFFFFFFFFF AND DUP2 MSTORE PUSH1 0x20 ADD SWAP1 DUP2 MSTORE PUSH1 0x20 ADD PUSH1 0x0 KECCAK256 SLOAD SWAP1 POP DUP2 DUP2 LT ISZERO PUSH2 0x447B JUMPI PUSH1 0x40 MLOAD PUSH32 0x8C379A000000000000000000000000000000000000000000000000000000000 DUP2 MSTORE PUSH1 0x4 ADD PUSH2 0x4472 SWAP1 PUSH2 0x6E1D JUMP JUMPDEST PUSH1 0x40 MLOAD DUP1 SWAP2 SUB SWAP1 REVERT JUMPDEST DUP2 DUP2 SUB PUSH1 0xA PUSH1 0x0 DUP7 PUSH20 0xFFFFFFFFFFFFFFFFFFFFFFFFFFFFFFFFFFFFFFFF AND PUSH20 0xFFFFFFFFFFFFFFFFFFFFFFFFFFFFFFFFFFFFFFFF AND DUP2 MSTORE PUSH1 0x20 ADD SWAP1 DUP2 MSTORE PUSH1 0x20 ADD PUSH1 0x0 KECCAK256 DUP2 SWAP1 SSTORE POP PUSH1 0x0 PUSH2 0x44E9 PUSH2 0x44E2 DUP5 PUSH1 0x10 PUSH1 0x0 SWAP1 SLOAD SWAP1 PUSH2 0x100 EXP SWAP1 DIV PUSH1 0xFF AND PUSH1 0xFF AND PUSH2 0x5606 JUMP JUMPDEST PUSH1 0x64 PUSH2 0x33F8 JUMP JUMPDEST SWAP1 POP PUSH1 0x0 PUSH2 0x44F7 DUP5 DUP4 PUSH2 0x5091 JUMP JUMPDEST SWAP1 POP PUSH1 0x0 PUSH2 0x4510 PUSH2 0x4509 DUP4 PUSH1 0x2 PUSH2 0x5606 JUMP JUMPDEST PUSH1 0xA PUSH2 0x33F8 JUMP JUMPDEST SWAP1 POP PUSH1 0x0 PUSH2 0x4529 PUSH2 0x4522 DUP5 PUSH1 0x8 PUSH2 0x5606 JUMP JUMPDEST PUSH1 0xA PUSH2 0x33F8 JUMP JUMPDEST SWAP1 POP PUSH2 0x4534 DUP3 PUSH2 0xA26 JUMP JUMPDEST PUSH2 0x4586 DUP2 PUSH1 0xA PUSH1 0x0 ADDRESS PUSH20 0xFFFFFFFFFFFFFFFFFFFFFFFFFFFFFFFFFFFFFFFF AND PUSH20 0xFFFFFFFFFFFFFFFFFFFFFFFFFFFFFFFFFFFFFFFF AND DUP2 MSTORE PUSH1 0x20 ADD SWAP1 DUP2 MSTORE PUSH1 0x20 ADD PUSH1 0x0 KECCAK256 SLOAD PUSH2 0x340E SWAP1 SWAP2 SWAP1 PUSH4 0xFFFFFFFF AND JUMP JUMPDEST PUSH1 0xA PUSH1 0x0 ADDRESS PUSH20 0xFFFFFFFFFFFFFFFFFFFFFFFFFFFFFFFFFFFFFFFF AND PUSH20 0xFFFFFFFFFFFFFFFFFFFFFFFFFFFFFFFFFFFFFFFF AND DUP2 MSTORE PUSH1 0x20 ADD SWAP1 DUP2 MSTORE PUSH1 0x20 ADD PUSH1 0x0 KECCAK256 DUP2 SWAP1 SSTORE POP PUSH2 0x461B DUP4 PUSH1 0xA PUSH1 0x0 DUP11 PUSH20 0xFFFFFFFFFFFFFFFFFFFFFFFFFFFFFFFFFFFFFFFF AND PUSH20 0xFFFFFFFFFFFFFFFFFFFFFFFFFFFFFFFFFFFFFFFF AND DUP2 MSTORE PUSH1 0x20 ADD SWAP1 DUP2 MSTORE PUSH1 0x20 ADD PUSH1 0x0 KECCAK256 SLOAD PUSH2 0x340E SWAP1 SWAP2 SWAP1 PUSH4 0xFFFFFFFF AND JUMP JUMPDEST PUSH1 0xA PUSH1 0x0 DUP10 PUSH20 0xFFFFFFFFFFFFFFFFFFFFFFFFFFFFFFFFFFFFFFFF AND PUSH20 0xFFFFFFFFFFFFFFFFFFFFFFFFFFFFFFFFFFFFFFFF AND DUP2 MSTORE PUSH1 0x20 ADD SWAP1 DUP2 MSTORE PUSH1 0x20 ADD PUSH1 0x0 KECCAK256 DUP2 SWAP1 SSTORE POP DUP7 PUSH20 0xFFFFFFFFFFFFFFFFFFFFFFFFFFFFFFFFFFFFFFFF AND DUP9 PUSH20 0xFFFFFFFFFFFFFFFFFFFFFFFFFFFFFFFFFFFFFFFF AND PUSH32 0xDDF252AD1BE2C89B69C2B068FC378DAA952BA7F163C4A11628F55A4DF523B3EF DUP6 PUSH1 0x40 MLOAD PUSH2 0x46BB SWAP2 SWAP1 PUSH2 0x5D5D JUMP JUMPDEST PUSH1 0x40 MLOAD DUP1 SWAP2 SUB SWAP1 LOG3 POP POP POP POP POP POP POP POP JUMP JUMPDEST PUSH2 0x46D5 PUSH2 0x5AAA JUMP JUMPDEST PUSH1 0x40 MLOAD DUP1 PUSH2 0x660 ADD PUSH1 0x40 MSTORE DUP1 PUSH2 0x46F7 PUSH4 0x1406F40 PUSH8 0xDE0B6B3A7640000 PUSH2 0x5606 JUMP JUMPDEST DUP2 MSTORE PUSH1 0x20 ADD PUSH1 0x0 DUP2 MSTORE PUSH1 0x20 ADD PUSH1 0x0 DUP2 MSTORE PUSH1 0x20 ADD PUSH1 0x0 DUP2 MSTORE PUSH1 0x20 ADD PUSH1 0x0 DUP2 MSTORE PUSH1 0x20 ADD PUSH1 0x0 DUP2 MSTORE PUSH1 0x20 ADD PUSH1 0x0 DUP2 MSTORE PUSH1 0x20 ADD PUSH1 0x0 DUP2 MSTORE PUSH1 0x20 ADD PUSH2 0x4743 PUSH4 0x1406F40 PUSH8 0xDE0B6B3A7640000 PUSH2 0x5606 JUMP JUMPDEST DUP2 MSTORE PUSH1 0x20 ADD PUSH1 0x0 DUP2 MSTORE PUSH1 0x20 ADD PUSH1 0x0 DUP2 MSTORE PUSH1 0x20 ADD PUSH1 0x0 DUP2 MSTORE PUSH1 0x20 ADD PUSH1 0x0 DUP2 MSTORE PUSH1 0x20 ADD PUSH1 0x0 DUP2 MSTORE PUSH1 0x20 ADD PUSH1 0x0 DUP2 MSTORE PUSH1 0x20 ADD PUSH1 0x0 DUP2 MSTORE PUSH1 0x20 ADD PUSH2 0x478F PUSH4 0x3684B4B PUSH8 0xDE0B6B3A7640000 PUSH2 0x5606 JUMP JUMPDEST DUP2 MSTORE PUSH1 0x20 ADD PUSH2 0x47AA PUSH4 0x3684B4B PUSH8 0xDE0B6B3A7640000 PUSH2 0x5606 JUMP JUMPDEST DUP2 MSTORE PUSH1 0x20 ADD PUSH2 0x47C5 PUSH4 0x3684B4B PUSH8 0xDE0B6B3A7640000 PUSH2 0x5606 JUMP JUMPDEST DUP2 MSTORE PUSH1 0x20 ADD PUSH2 0x47E0 PUSH4 0x3684B4B PUSH8 0xDE0B6B3A7640000 PUSH2 0x5606 JUMP JUMPDEST DUP2 MSTORE PUSH1 0x20 ADD PUSH2 0x47FB PUSH4 0x3684B4B PUSH8 0xDE0B6B3A7640000 PUSH2 0x5606 JUMP JUMPDEST DUP2 MSTORE PUSH1 0x20 ADD PUSH2 0x4816 PUSH4 0x3684B4B PUSH8 0xDE0B6B3A7640000 PUSH2 0x5606 JUMP JUMPDEST DUP2 MSTORE PUSH1 0x20 ADD PUSH2 0x4831 PUSH4 0x3684B4B PUSH8 0xDE0B6B3A7640000 PUSH2 0x5606 JUMP JUMPDEST DUP2 MSTORE PUSH1 0x20 ADD PUSH2 0x484C PUSH4 0x3684B4B PUSH8 0xDE0B6B3A7640000 PUSH2 0x5606 JUMP JUMPDEST DUP2 MSTORE PUSH1 0x20 ADD PUSH2 0x4867 PUSH4 0x3684B4B PUSH8 0xDE0B6B3A7640000 PUSH2 0x5606 JUMP JUMPDEST DUP2 MSTORE PUSH1 0x20 ADD PUSH2 0x4882 PUSH4 0x3684B4B PUSH8 0xDE0B6B3A7640000 PUSH2 0x5606 JUMP JUMPDEST DUP2 MSTORE PUSH1 0x20 ADD PUSH2 0x489D PUSH4 0x3684B4B PUSH8 0xDE0B6B3A7640000 PUSH2 0x5606 JUMP JUMPDEST DUP2 MSTORE PUSH1 0x20 ADD PUSH2 0x48B8 PUSH4 0x3684B4B PUSH8 0xDE0B6B3A7640000 PUSH2 0x5606 JUMP JUMPDEST DUP2 MSTORE PUSH1 0x20 ADD PUSH2 0x48D3 PUSH4 0x3684B4B PUSH8 0xDE0B6B3A7640000 PUSH2 0x5606 JUMP JUMPDEST DUP2 MSTORE PUSH1 0x20 ADD PUSH2 0x48EE PUSH4 0x3684B4B PUSH8 0xDE0B6B3A7640000 PUSH2 0x5606 JUMP JUMPDEST DUP2 MSTORE PUSH1 0x20 ADD PUSH2 0x4909 PUSH4 0x3684B4B PUSH8 0xDE0B6B3A7640000 PUSH2 0x5606 JUMP JUMPDEST DUP2 MSTORE PUSH1 0x20 ADD PUSH2 0x4924 PUSH4 0x3684B4B PUSH8 0xDE0B6B3A7640000 PUSH2 0x5606 JUMP JUMPDEST DUP2 MSTORE PUSH1 0x20 ADD PUSH2 0x493F PUSH4 0x3684B4B PUSH8 0xDE0B6B3A7640000 PUSH2 0x5606 JUMP JUMPDEST DUP2 MSTORE PUSH1 0x20 ADD PUSH2 0x495A PUSH4 0x3684B4B PUSH8 0xDE0B6B3A7640000 PUSH2 0x5606 JUMP JUMPDEST DUP2 MSTORE PUSH1 0x20 ADD PUSH2 0x4975 PUSH4 0x3684B4B PUSH8 0xDE0B6B3A7640000 PUSH2 0x5606 JUMP JUMPDEST DUP2 MSTORE PUSH1 0x20 ADD PUSH2 0x4990 PUSH4 0x3684B4B PUSH8 0xDE0B6B3A7640000 PUSH2 0x5606 JUMP JUMPDEST DUP2 MSTORE PUSH1 0x20 ADD PUSH2 0x49AB PUSH4 0x3684B4B PUSH8 0xDE0B6B3A7640000 PUSH2 0x5606 JUMP JUMPDEST DUP2 MSTORE PUSH1 0x20 ADD PUSH2 0x49C6 PUSH4 0x3684B4B PUSH8 0xDE0B6B3A7640000 PUSH2 0x5606 JUMP JUMPDEST DUP2 MSTORE PUSH1 0x20 ADD PUSH2 0x49E1 PUSH4 0x3684B4B PUSH8 0xDE0B6B3A7640000 PUSH2 0x5606 JUMP JUMPDEST DUP2 MSTORE PUSH1 0x20 ADD PUSH2 0x49FC PUSH4 0x3684B4B PUSH8 0xDE0B6B3A7640000 PUSH2 0x5606 JUMP JUMPDEST DUP2 MSTORE PUSH1 0x20 ADD PUSH2 0x4A17 PUSH4 0x3684B4B PUSH8 0xDE0B6B3A7640000 PUSH2 0x5606 JUMP JUMPDEST DUP2 MSTORE PUSH1 0x20 ADD PUSH2 0x4A32 PUSH4 0x3684B4B PUSH8 0xDE0B6B3A7640000 PUSH2 0x5606 JUMP JUMPDEST DUP2 MSTORE PUSH1 0x20 ADD PUSH2 0x4A4D PUSH4 0x3684B4B PUSH8 0xDE0B6B3A7640000 PUSH2 0x5606 JUMP JUMPDEST DUP2 MSTORE PUSH1 0x20 ADD PUSH2 0x4A68 PUSH4 0x3684B4B PUSH8 0xDE0B6B3A7640000 PUSH2 0x5606 JUMP JUMPDEST DUP2 MSTORE PUSH1 0x20 ADD PUSH2 0x4A83 PUSH4 0x3684B4B PUSH8 0xDE0B6B3A7640000 PUSH2 0x5606 JUMP JUMPDEST DUP2 MSTORE PUSH1 0x20 ADD PUSH2 0x4A9E PUSH4 0x3684B4B PUSH8 0xDE0B6B3A7640000 PUSH2 0x5606 JUMP JUMPDEST DUP2 MSTORE PUSH1 0x20 ADD PUSH2 0x4AB9 PUSH4 0x3684B4B PUSH8 0xDE0B6B3A7640000 PUSH2 0x5606 JUMP JUMPDEST DUP2 MSTORE PUSH1 0x20 ADD PUSH2 0x4AD4 PUSH4 0x3684B4B PUSH8 0xDE0B6B3A7640000 PUSH2 0x5606 JUMP JUMPDEST DUP2 MSTORE PUSH1 0x20 ADD PUSH2 0x4AEF PUSH4 0x3684B4B PUSH8 0xDE0B6B3A7640000 PUSH2 0x5606 JUMP JUMPDEST DUP2 MSTORE PUSH1 0x20 ADD PUSH2 0x4B0A PUSH4 0x3684B4B PUSH8 0xDE0B6B3A7640000 PUSH2 0x5606 JUMP JUMPDEST DUP2 MSTORE PUSH1 0x20 ADD PUSH2 0x4B25 PUSH4 0x3684B4B PUSH8 0xDE0B6B3A7640000 PUSH2 0x5606 JUMP JUMPDEST DUP2 MSTORE POP SWAP1 POP SWAP1 JUMP JUMPDEST PUSH1 0x0 PUSH20 0xFFFFFFFFFFFFFFFFFFFFFFFFFFFFFFFFFFFFFFFF AND DUP3 PUSH20 0xFFFFFFFFFFFFFFFFFFFFFFFFFFFFFFFFFFFFFFFF AND EQ ISZERO PUSH2 0x4B9D JUMPI PUSH1 0x40 MLOAD PUSH32 0x8C379A000000000000000000000000000000000000000000000000000000000 DUP2 MSTORE PUSH1 0x4 ADD PUSH2 0x4B94 SWAP1 PUSH2 0x6E89 JUMP JUMPDEST PUSH1 0x40 MLOAD DUP1 SWAP2 SUB SWAP1 REVERT JUMPDEST PUSH2 0x4BA9 PUSH1 0x0 DUP4 DUP4 PUSH2 0x561C JUMP JUMPDEST DUP1 PUSH1 0x2 PUSH1 0x0 DUP3 DUP3 SLOAD PUSH2 0x4BBB SWAP2 SWAP1 PUSH2 0x6452 JUMP JUMPDEST SWAP3 POP POP DUP2 SWAP1 SSTORE POP DUP1 PUSH1 0x0 DUP1 DUP5 PUSH20 0xFFFFFFFFFFFFFFFFFFFFFFFFFFFFFFFFFFFFFFFF AND PUSH20 0xFFFFFFFFFFFFFFFFFFFFFFFFFFFFFFFFFFFFFFFF AND DUP2 MSTORE PUSH1 0x20 ADD SWAP1 DUP2 MSTORE PUSH1 0x20 ADD PUSH1 0x0 KECCAK256 PUSH1 0x0 DUP3 DUP3 SLOAD PUSH2 0x4C10 SWAP2 SWAP1 PUSH2 0x6452 JUMP JUMPDEST SWAP3 POP POP DUP2 SWAP1 SSTORE POP DUP2 PUSH20 0xFFFFFFFFFFFFFFFFFFFFFFFFFFFFFFFFFFFFFFFF AND PUSH1 0x0 PUSH20 0xFFFFFFFFFFFFFFFFFFFFFFFFFFFFFFFFFFFFFFFF AND PUSH32 0xDDF252AD1BE2C89B69C2B068FC378DAA952BA7F163C4A11628F55A4DF523B3EF DUP4 PUSH1 0x40 MLOAD PUSH2 0x4C75 SWAP2 SWAP1 PUSH2 0x5D5D JUMP JUMPDEST PUSH1 0x40 MLOAD DUP1 SWAP2 SUB SWAP1 LOG3 PUSH2 0x4C89 PUSH1 0x0 DUP4 DUP4 PUSH2 0x5621 JUMP JUMPDEST POP POP JUMP JUMPDEST PUSH1 0x0 PUSH20 0xFFFFFFFFFFFFFFFFFFFFFFFFFFFFFFFFFFFFFFFF AND DUP3 PUSH20 0xFFFFFFFFFFFFFFFFFFFFFFFFFFFFFFFFFFFFFFFF AND EQ ISZERO PUSH2 0x4CFD JUMPI PUSH1 0x40 MLOAD PUSH32 0x8C379A000000000000000000000000000000000000000000000000000000000 DUP2 MSTORE PUSH1 0x4 ADD PUSH2 0x4CF4 SWAP1 PUSH2 0x6F1B JUMP JUMPDEST PUSH1 0x40 MLOAD DUP1 SWAP2 SUB SWAP1 REVERT JUMPDEST PUSH2 0x4D09 DUP3 PUSH1 0x0 DUP4 PUSH2 0x561C JUMP JUMPDEST PUSH1 0x0 PUSH1 0xA PUSH1 0x0 DUP5 PUSH20 0xFFFFFFFFFFFFFFFFFFFFFFFFFFFFFFFFFFFFFFFF AND PUSH20 0xFFFFFFFFFFFFFFFFFFFFFFFFFFFFFFFFFFFFFFFF AND DUP2 MSTORE PUSH1 0x20 ADD SWAP1 DUP2 MSTORE PUSH1 0x20 ADD PUSH1 0x0 KECCAK256 SLOAD SWAP1 POP DUP2 DUP2 LT ISZERO PUSH2 0x4D90 JUMPI PUSH1 0x40 MLOAD PUSH32 0x8C379A000000000000000000000000000000000000000000000000000000000 DUP2 MSTORE PUSH1 0x4 ADD PUSH2 0x4D87 SWAP1 PUSH2 0x6FAD JUMP JUMPDEST PUSH1 0x40 MLOAD DUP1 SWAP2 SUB SWAP1 REVERT JUMPDEST DUP2 DUP2 SUB PUSH1 0xA PUSH1 0x0 DUP6 PUSH20 0xFFFFFFFFFFFFFFFFFFFFFFFFFFFFFFFFFFFFFFFF AND PUSH20 0xFFFFFFFFFFFFFFFFFFFFFFFFFFFFFFFFFFFFFFFF AND DUP2 MSTORE PUSH1 0x20 ADD SWAP1 DUP2 MSTORE PUSH1 0x20 ADD PUSH1 0x0 KECCAK256 DUP2 SWAP1 SSTORE POP DUP2 PUSH1 0xC PUSH1 0x0 DUP3 DUP3 SLOAD PUSH2 0x4DE8 SWAP2 SWAP1 PUSH2 0x6AA3 JUMP JUMPDEST SWAP3 POP POP DUP2 SWAP1 SSTORE POP PUSH1 0x0 PUSH20 0xFFFFFFFFFFFFFFFFFFFFFFFFFFFFFFFFFFFFFFFF AND DUP4 PUSH20 0xFFFFFFFFFFFFFFFFFFFFFFFFFFFFFFFFFFFFFFFF AND PUSH32 0xDDF252AD1BE2C89B69C2B068FC378DAA952BA7F163C4A11628F55A4DF523B3EF DUP5 PUSH1 0x40 MLOAD PUSH2 0x4E4D SWAP2 SWAP1 PUSH2 0x5D5D JUMP JUMPDEST PUSH1 0x40 MLOAD DUP1 SWAP2 SUB SWAP1 LOG3 POP POP POP JUMP JUMPDEST PUSH1 0x0 PUSH1 0x5 PUSH1 0x0 SWAP1 SLOAD SWAP1 PUSH2 0x100 EXP SWAP1 DIV PUSH20 0xFFFFFFFFFFFFFFFFFFFFFFFFFFFFFFFFFFFFFFFF AND SWAP1 POP DUP2 PUSH1 0x5 PUSH1 0x0 PUSH2 0x100 EXP DUP2 SLOAD DUP2 PUSH20 0xFFFFFFFFFFFFFFFFFFFFFFFFFFFFFFFFFFFFFFFF MUL NOT AND SWAP1 DUP4 PUSH20 0xFFFFFFFFFFFFFFFFFFFFFFFFFFFFFFFFFFFFFFFF AND MUL OR SWAP1 SSTORE POP DUP2 PUSH20 0xFFFFFFFFFFFFFFFFFFFFFFFFFFFFFFFFFFFFFFFF AND DUP2 PUSH20 0xFFFFFFFFFFFFFFFFFFFFFFFFFFFFFFFFFFFFFFFF AND PUSH32 0x8BE0079C531659141344CD1FD0A4F28419497F9722A3DAAFE3B4186F6B6457E0 PUSH1 0x40 MLOAD PUSH1 0x40 MLOAD DUP1 SWAP2 SUB SWAP1 LOG3 POP POP JUMP JUMPDEST PUSH1 0x0 DUP1 PUSH1 0x9 PUSH1 0x0 DUP5 PUSH20 0xFFFFFFFFFFFFFFFFFFFFFFFFFFFFFFFFFFFFFFFF AND PUSH20 0xFFFFFFFFFFFFFFFFFFFFFFFFFFFFFFFFFFFFFFFF AND DUP2 MSTORE PUSH1 0x20 ADD SWAP1 DUP2 MSTORE PUSH1 0x20 ADD PUSH1 0x0 KECCAK256 PUSH1 0x1 ADD SLOAD GT PUSH2 0x4FA6 JUMPI PUSH1 0x40 MLOAD PUSH32 0x8C379A000000000000000000000000000000000000000000000000000000000 DUP2 MSTORE PUSH1 0x4 ADD PUSH2 0x4F9D SWAP1 PUSH2 0x7019 JUMP JUMPDEST PUSH1 0x40 MLOAD DUP1 SWAP2 SUB SWAP1 REVERT JUMPDEST PUSH1 0x0 PUSH2 0x4FB1 DUP4 PUSH2 0x5626 JUMP JUMPDEST SWAP1 POP PUSH1 0x0 DUP2 GT PUSH2 0x4FF6 JUMPI PUSH1 0x40 MLOAD PUSH32 0x8C379A000000000000000000000000000000000000000000000000000000000 DUP2 MSTORE PUSH1 0x4 ADD PUSH2 0x4FED SWAP1 PUSH2 0x7085 JUMP JUMPDEST PUSH1 0x40 MLOAD DUP1 SWAP2 SUB SWAP1 REVERT JUMPDEST PUSH2 0x5042 PUSH1 0x9 PUSH1 0x0 DUP6 PUSH20 0xFFFFFFFFFFFFFFFFFFFFFFFFFFFFFFFFFFFFFFFF AND PUSH20 0xFFFFFFFFFFFFFFFFFFFFFFFFFFFFFFFFFFFFFFFF AND DUP2 MSTORE PUSH1 0x20 ADD SWAP1 DUP2 MSTORE PUSH1 0x20 ADD PUSH1 0x0 KECCAK256 PUSH1 0x1 ADD SLOAD DUP3 PUSH2 0x5091 JUMP JUMPDEST PUSH1 0x9 PUSH1 0x0 DUP6 PUSH20 0xFFFFFFFFFFFFFFFFFFFFFFFFFFFFFFFFFFFFFFFF AND PUSH20 0xFFFFFFFFFFFFFFFFFFFFFFFFFFFFFFFFFFFFFFFF AND DUP2 MSTORE PUSH1 0x20 ADD SWAP1 DUP2 MSTORE PUSH1 0x20 ADD PUSH1 0x0 KECCAK256 PUSH1 0x1 ADD DUP2 SWAP1 SSTORE POP DUP1 SWAP2 POP POP SWAP2 SWAP1 POP JUMP JUMPDEST PUSH1 0x0 DUP2 DUP4 PUSH2 0x509F SWAP2 SWAP1 PUSH2 0x6AA3 JUMP JUMPDEST SWAP1 POP SWAP3 SWAP2 POP POP JUMP JUMPDEST PUSH2 0x50AF PUSH2 0x5AAA JUMP JUMPDEST PUSH1 0x40 MLOAD DUP1 PUSH2 0x660 ADD PUSH1 0x40 MSTORE DUP1 PUSH2 0x50D0 PUSH3 0x42B0C1 PUSH8 0xDE0B6B3A7640000 PUSH2 0x5606 JUMP JUMPDEST DUP2 MSTORE PUSH1 0x20 ADD PUSH2 0x50EA PUSH3 0x42B0C1 PUSH8 0xDE0B6B3A7640000 PUSH2 0x5606 JUMP JUMPDEST DUP2 MSTORE PUSH1 0x20 ADD PUSH2 0x5104 PUSH3 0x42B0C1 PUSH8 0xDE0B6B3A7640000 PUSH2 0x5606 JUMP JUMPDEST DUP2 MSTORE PUSH1 0x20 ADD PUSH2 0x511E PUSH3 0x42B0C1 PUSH8 0xDE0B6B3A7640000 PUSH2 0x5606 JUMP JUMPDEST DUP2 MSTORE PUSH1 0x20 ADD PUSH2 0x5138 PUSH3 0x42B0C1 PUSH8 0xDE0B6B3A7640000 PUSH2 0x5606 JUMP JUMPDEST DUP2 MSTORE PUSH1 0x20 ADD PUSH2 0x5152 PUSH3 0x42B0C1 PUSH8 0xDE0B6B3A7640000 PUSH2 0x5606 JUMP JUMPDEST DUP2 MSTORE PUSH1 0x20 ADD PUSH2 0x516C PUSH3 0x42B0C1 PUSH8 0xDE0B6B3A7640000 PUSH2 0x5606 JUMP JUMPDEST DUP2 MSTORE PUSH1 0x20 ADD PUSH2 0x5186 PUSH3 0x42B0C1 PUSH8 0xDE0B6B3A7640000 PUSH2 0x5606 JUMP JUMPDEST DUP2 MSTORE PUSH1 0x20 ADD PUSH2 0x51A0 PUSH3 0x42B0C1 PUSH8 0xDE0B6B3A7640000 PUSH2 0x5606 JUMP JUMPDEST DUP2 MSTORE PUSH1 0x20 ADD PUSH2 0x51BA PUSH3 0x42B0C1 PUSH8 0xDE0B6B3A7640000 PUSH2 0x5606 JUMP JUMPDEST DUP2 MSTORE PUSH1 0x20 ADD PUSH2 0x51D4 PUSH3 0x42B0C1 PUSH8 0xDE0B6B3A7640000 PUSH2 0x5606 JUMP JUMPDEST DUP2 MSTORE PUSH1 0x20 ADD PUSH2 0x51EE PUSH3 0x42B0C1 PUSH8 0xDE0B6B3A7640000 PUSH2 0x5606 JUMP JUMPDEST DUP2 MSTORE PUSH1 0x20 ADD PUSH2 0x5208 PUSH3 0x42B0C1 PUSH8 0xDE0B6B3A7640000 PUSH2 0x5606 JUMP JUMPDEST DUP2 MSTORE PUSH1 0x20 ADD PUSH2 0x5222 PUSH3 0x42B0C1 PUSH8 0xDE0B6B3A7640000 PUSH2 0x5606 JUMP JUMPDEST DUP2 MSTORE PUSH1 0x20 ADD PUSH2 0x523C PUSH3 0x42B0C1 PUSH8 0xDE0B6B3A7640000 PUSH2 0x5606 JUMP JUMPDEST DUP2 MSTORE PUSH1 0x20 ADD PUSH2 0x5256 PUSH3 0x42B0C1 PUSH8 0xDE0B6B3A7640000 PUSH2 0x5606 JUMP JUMPDEST DUP2 MSTORE PUSH1 0x20 ADD PUSH2 0x5271 PUSH4 0x320490C PUSH8 0xDE0B6B3A7640000 PUSH2 0x5606 JUMP JUMPDEST DUP2 MSTORE PUSH1 0x20 ADD PUSH2 0x528C PUSH4 0x320490C PUSH8 0xDE0B6B3A7640000 PUSH2 0x5606 JUMP JUMPDEST DUP2 MSTORE PUSH1 0x20 ADD PUSH2 0x52A7 PUSH4 0x320490C PUSH8 0xDE0B6B3A7640000 PUSH2 0x5606 JUMP JUMPDEST DUP2 MSTORE PUSH1 0x20 ADD PUSH2 0x52C2 PUSH4 0x320490C PUSH8 0xDE0B6B3A7640000 PUSH2 0x5606 JUMP JUMPDEST DUP2 MSTORE PUSH1 0x20 ADD PUSH2 0x52DD PUSH4 0x320490C PUSH8 0xDE0B6B3A7640000 PUSH2 0x5606 JUMP JUMPDEST DUP2 MSTORE PUSH1 0x20 ADD PUSH2 0x52F8 PUSH4 0x320490C PUSH8 0xDE0B6B3A7640000 PUSH2 0x5606 JUMP JUMPDEST DUP2 MSTORE PUSH1 0x20 ADD PUSH2 0x5313 PUSH4 0x320490C PUSH8 0xDE0B6B3A7640000 PUSH2 0x5606 JUMP JUMPDEST DUP2 MSTORE PUSH1 0x20 ADD PUSH2 0x532E PUSH4 0x320490C PUSH8 0xDE0B6B3A7640000 PUSH2 0x5606 JUMP JUMPDEST DUP2 MSTORE PUSH1 0x20 ADD PUSH2 0x5349 PUSH4 0x320490C PUSH8 0xDE0B6B3A7640000 PUSH2 0x5606 JUMP JUMPDEST DUP2 MSTORE PUSH1 0x20 ADD PUSH2 0x5364 PUSH4 0x320490C PUSH8 0xDE0B6B3A7640000 PUSH2 0x5606 JUMP JUMPDEST DUP2 MSTORE PUSH1 0x20 ADD PUSH2 0x537F PUSH4 0x320490C PUSH8 0xDE0B6B3A7640000 PUSH2 0x5606 JUMP JUMPDEST DUP2 MSTORE PUSH1 0x20 ADD PUSH2 0x539A PUSH4 0x320490C PUSH8 0xDE0B6B3A7640000 PUSH2 0x5606 JUMP JUMPDEST DUP2 MSTORE PUSH1 0x20 ADD PUSH1 0x0 DUP2 MSTORE PUSH1 0x20 ADD PUSH1 0x0 DUP2 MSTORE PUSH1 0x20 ADD PUSH1 0x0 DUP2 MSTORE PUSH1 0x20 ADD PUSH1 0x0 DUP2 MSTORE PUSH1 0x20 ADD PUSH1 0x0 DUP2 MSTORE PUSH1 0x20 ADD PUSH1 0x0 DUP2 MSTORE PUSH1 0x20 ADD PUSH1 0x0 DUP2 MSTORE PUSH1 0x20 ADD PUSH1 0x0 DUP2 MSTORE PUSH1 0x20 ADD PUSH1 0x0 DUP2 MSTORE PUSH1 0x20 ADD PUSH1 0x0 DUP2 MSTORE PUSH1 0x20 ADD PUSH1 0x0 DUP2 MSTORE PUSH1 0x20 ADD PUSH1 0x0 DUP2 MSTORE PUSH1 0x20 ADD PUSH1 0x0 DUP2 MSTORE PUSH1 0x20 ADD PUSH1 0x0 DUP2 MSTORE PUSH1 0x20 ADD PUSH1 0x0 DUP2 MSTORE PUSH1 0x20 ADD PUSH1 0x0 DUP2 MSTORE PUSH1 0x20 ADD PUSH1 0x0 DUP2 MSTORE PUSH1 0x20 ADD PUSH1 0x0 DUP2 MSTORE PUSH1 0x20 ADD PUSH1 0x0 DUP2 MSTORE PUSH1 0x20 ADD PUSH1 0x0 DUP2 MSTORE PUSH1 0x20 ADD PUSH1 0x0 DUP2 MSTORE PUSH1 0x20 ADD PUSH1 0x0 DUP2 MSTORE PUSH1 0x20 ADD PUSH1 0x0 DUP2 MSTORE POP SWAP1 POP SWAP1 JUMP JUMPDEST PUSH1 0x0 DUP1 PUSH1 0x9 PUSH1 0x0 DUP5 PUSH20 0xFFFFFFFFFFFFFFFFFFFFFFFFFFFFFFFFFFFFFFFF AND PUSH20 0xFFFFFFFFFFFFFFFFFFFFFFFFFFFFFFFFFFFFFFFF AND DUP2 MSTORE PUSH1 0x20 ADD SWAP1 DUP2 MSTORE PUSH1 0x20 ADD PUSH1 0x0 KECCAK256 PUSH1 0x1 ADD SLOAD EQ ISZERO PUSH2 0x54CA JUMPI PUSH1 0x40 MLOAD PUSH32 0x8C379A000000000000000000000000000000000000000000000000000000000 DUP2 MSTORE PUSH1 0x4 ADD PUSH2 0x54C1 SWAP1 PUSH2 0x70F1 JUMP JUMPDEST PUSH1 0x40 MLOAD DUP1 SWAP2 SUB SWAP1 REVERT JUMPDEST PUSH1 0x1 PUSH1 0x6 PUSH1 0x0 DUP3 DUP3 SLOAD PUSH2 0x54DD SWAP2 SWAP1 PUSH2 0x6AA3 JUMP JUMPDEST SWAP3 POP POP DUP2 SWAP1 SSTORE POP PUSH1 0x9 PUSH1 0x0 DUP4 PUSH20 0xFFFFFFFFFFFFFFFFFFFFFFFFFFFFFFFFFFFFFFFF AND PUSH20 0xFFFFFFFFFFFFFFFFFFFFFFFFFFFFFFFFFFFFFFFF AND DUP2 MSTORE PUSH1 0x20 ADD SWAP1 DUP2 MSTORE PUSH1 0x20 ADD PUSH1 0x0 KECCAK256 PUSH1 0x1 ADD SLOAD PUSH1 0x7 PUSH1 0x0 DUP3 DUP3 SLOAD PUSH2 0x5538 SWAP2 SWAP1 PUSH2 0x6452 JUMP JUMPDEST SWAP3 POP POP DUP2 SWAP1 SSTORE POP PUSH1 0x0 PUSH1 0x9 PUSH1 0x0 DUP5 PUSH20 0xFFFFFFFFFFFFFFFFFFFFFFFFFFFFFFFFFFFFFFFF AND PUSH20 0xFFFFFFFFFFFFFFFFFFFFFFFFFFFFFFFFFFFFFFFF AND DUP2 MSTORE PUSH1 0x20 ADD SWAP1 DUP2 MSTORE PUSH1 0x20 ADD PUSH1 0x0 KECCAK256 PUSH1 0x1 ADD SLOAD SWAP1 POP PUSH1 0x9 PUSH1 0x0 DUP5 PUSH20 0xFFFFFFFFFFFFFFFFFFFFFFFFFFFFFFFFFFFFFFFF AND PUSH20 0xFFFFFFFFFFFFFFFFFFFFFFFFFFFFFFFFFFFFFFFF AND DUP2 MSTORE PUSH1 0x20 ADD SWAP1 DUP2 MSTORE PUSH1 0x20 ADD PUSH1 0x0 KECCAK256 PUSH1 0x0 DUP1 DUP3 ADD PUSH1 0x0 SWAP1 SSTORE PUSH1 0x1 DUP3 ADD PUSH1 0x0 SWAP1 SSTORE PUSH1 0x2 DUP3 ADD PUSH1 0x0 PUSH2 0x100 EXP DUP2 SLOAD SWAP1 PUSH1 0xFF MUL NOT AND SWAP1 SSTORE PUSH1 0x3 DUP3 ADD PUSH1 0x0 SWAP1 SSTORE POP POP DUP1 SWAP2 POP POP SWAP2 SWAP1 POP JUMP JUMPDEST TIMESTAMP PUSH1 0x8 DUP2 SWAP1 SSTORE POP JUMP JUMPDEST PUSH1 0x0 DUP2 DUP4 PUSH2 0x5614 SWAP2 SWAP1 PUSH2 0x7111 JUMP JUMPDEST SWAP1 POP SWAP3 SWAP2 POP POP JUMP JUMPDEST POP POP POP JUMP JUMPDEST POP POP POP JUMP JUMPDEST PUSH1 0x0 DUP1 PUSH1 0x0 PUSH3 0x15180 PUSH1 0x8 SLOAD TIMESTAMP PUSH2 0x563D SWAP2 SWAP1 PUSH2 0x6AA3 JUMP JUMPDEST PUSH2 0x5647 SWAP2 SWAP1 PUSH2 0x6856 JUMP JUMPDEST SWAP1 POP PUSH2 0x1E0 DUP2 LT ISZERO PUSH2 0x57CF JUMPI PUSH1 0x0 ISZERO ISZERO PUSH1 0x9 PUSH1 0x0 DUP7 PUSH20 0xFFFFFFFFFFFFFFFFFFFFFFFFFFFFFFFFFFFFFFFF AND PUSH20 0xFFFFFFFFFFFFFFFFFFFFFFFFFFFFFFFFFFFFFFFF AND DUP2 MSTORE PUSH1 0x20 ADD SWAP1 DUP2 MSTORE PUSH1 0x20 ADD PUSH1 0x0 KECCAK256 PUSH1 0x2 ADD PUSH1 0x0 SWAP1 SLOAD SWAP1 PUSH2 0x100 EXP SWAP1 DIV PUSH1 0xFF AND ISZERO ISZERO EQ ISZERO PUSH2 0x5781 JUMPI PUSH2 0x5723 PUSH2 0x5714 PUSH2 0x570C PUSH11 0x3CB5FEEC27901169E00000 PUSH1 0x9 PUSH1 0x0 DUP10 PUSH20 0xFFFFFFFFFFFFFFFFFFFFFFFFFFFFFFFFFFFFFFFF AND PUSH20 0xFFFFFFFFFFFFFFFFFFFFFFFFFFFFFFFFFFFFFFFF AND DUP2 MSTORE PUSH1 0x20 ADD SWAP1 DUP2 MSTORE PUSH1 0x20 ADD PUSH1 0x0 KECCAK256 PUSH1 0x0 ADD SLOAD PUSH2 0x5606 JUMP JUMPDEST PUSH1 0x7 SLOAD PUSH2 0x33F8 JUMP JUMPDEST DUP4 PUSH2 0x340E SWAP1 SWAP2 SWAP1 PUSH4 0xFFFFFFFF AND JUMP JUMPDEST SWAP2 POP PUSH1 0x1 PUSH1 0x9 PUSH1 0x0 DUP7 PUSH20 0xFFFFFFFFFFFFFFFFFFFFFFFFFFFFFFFFFFFFFFFF AND PUSH20 0xFFFFFFFFFFFFFFFFFFFFFFFFFFFFFFFFFFFFFFFF AND DUP2 MSTORE PUSH1 0x20 ADD SWAP1 DUP2 MSTORE PUSH1 0x20 ADD PUSH1 0x0 KECCAK256 PUSH1 0x2 ADD PUSH1 0x0 PUSH2 0x100 EXP DUP2 SLOAD DUP2 PUSH1 0xFF MUL NOT AND SWAP1 DUP4 ISZERO ISZERO MUL OR SWAP1 SSTORE POP JUMPDEST PUSH2 0x1C2 PUSH1 0x9 PUSH1 0x0 DUP7 PUSH20 0xFFFFFFFFFFFFFFFFFFFFFFFFFFFFFFFFFFFFFFFF AND PUSH20 0xFFFFFFFFFFFFFFFFFFFFFFFFFFFFFFFFFFFFFFFF AND DUP2 MSTORE PUSH1 0x20 ADD SWAP1 DUP2 MSTORE PUSH1 0x20 ADD PUSH1 0x0 KECCAK256 PUSH1 0x3 ADD DUP2 SWAP1 SSTORE POP PUSH2 0x5A32 JUMP JUMPDEST PUSH2 0x1E0 DUP2 LT ISZERO DUP1 ISZERO PUSH2 0x57E2 JUMPI POP PUSH2 0x348 DUP2 LT JUMPDEST ISZERO PUSH2 0x5A31 JUMPI PUSH1 0x0 ISZERO ISZERO PUSH1 0x9 PUSH1 0x0 DUP7 PUSH20 0xFFFFFFFFFFFFFFFFFFFFFFFFFFFFFFFFFFFFFFFF AND PUSH20 0xFFFFFFFFFFFFFFFFFFFFFFFFFFFFFFFFFFFFFFFF AND DUP2 MSTORE PUSH1 0x20 ADD SWAP1 DUP2 MSTORE PUSH1 0x20 ADD PUSH1 0x0 KECCAK256 PUSH1 0x2 ADD PUSH1 0x0 SWAP1 SLOAD SWAP1 PUSH2 0x100 EXP SWAP1 DIV PUSH1 0xFF AND ISZERO ISZERO EQ ISZERO PUSH2 0x5915 JUMPI PUSH2 0x58B7 PUSH2 0x58A8 PUSH2 0x58A0 PUSH11 0x3CB5FEEC27901169E00000 PUSH1 0x9 PUSH1 0x0 DUP10 PUSH20 0xFFFFFFFFFFFFFFFFFFFFFFFFFFFFFFFFFFFFFFFF AND PUSH20 0xFFFFFFFFFFFFFFFFFFFFFFFFFFFFFFFFFFFFFFFF AND DUP2 MSTORE PUSH1 0x20 ADD SWAP1 DUP2 MSTORE PUSH1 0x20 ADD PUSH1 0x0 KECCAK256 PUSH1 0x0 ADD SLOAD PUSH2 0x5606 JUMP JUMPDEST PUSH1 0x7 SLOAD PUSH2 0x33F8 JUMP JUMPDEST DUP4 PUSH2 0x340E SWAP1 SWAP2 SWAP1 PUSH4 0xFFFFFFFF AND JUMP JUMPDEST SWAP2 POP PUSH1 0x1 PUSH1 0x9 PUSH1 0x0 DUP7 PUSH20 0xFFFFFFFFFFFFFFFFFFFFFFFFFFFFFFFFFFFFFFFF AND PUSH20 0xFFFFFFFFFFFFFFFFFFFFFFFFFFFFFFFFFFFFFFFF AND DUP2 MSTORE PUSH1 0x20 ADD SWAP1 DUP2 MSTORE PUSH1 0x20 ADD PUSH1 0x0 KECCAK256 PUSH1 0x2 ADD PUSH1 0x0 PUSH2 0x100 EXP DUP2 SLOAD DUP2 PUSH1 0xFF MUL NOT AND SWAP1 DUP4 ISZERO ISZERO MUL OR SWAP1 SSTORE POP JUMPDEST PUSH1 0x0 PUSH1 0x9 PUSH1 0x0 DUP7 PUSH20 0xFFFFFFFFFFFFFFFFFFFFFFFFFFFFFFFFFFFFFFFF AND PUSH20 0xFFFFFFFFFFFFFFFFFFFFFFFFFFFFFFFFFFFFFFFF AND DUP2 MSTORE PUSH1 0x20 ADD SWAP1 DUP2 MSTORE PUSH1 0x20 ADD PUSH1 0x0 KECCAK256 PUSH1 0x3 ADD SLOAD DUP3 PUSH2 0x5965 SWAP2 SWAP1 PUSH2 0x6AA3 JUMP JUMPDEST SWAP1 POP PUSH2 0x59DB PUSH2 0x59CC PUSH2 0x59C4 PUSH11 0x3290914BE1AFB75080000 PUSH1 0x9 PUSH1 0x0 DUP11 PUSH20 0xFFFFFFFFFFFFFFFFFFFFFFFFFFFFFFFFFFFFFFFF AND PUSH20 0xFFFFFFFFFFFFFFFFFFFFFFFFFFFFFFFFFFFFFFFF AND DUP2 MSTORE PUSH1 0x20 ADD SWAP1 DUP2 MSTORE PUSH1 0x20 ADD PUSH1 0x0 KECCAK256 PUSH1 0x0 ADD SLOAD PUSH2 0x5606 JUMP JUMPDEST PUSH1 0x7 SLOAD PUSH2 0x33F8 JUMP JUMPDEST DUP5 PUSH2 0x340E SWAP1 SWAP2 SWAP1 PUSH4 0xFFFFFFFF AND JUMP JUMPDEST DUP2 PUSH2 0x59E6 SWAP2 SWAP1 PUSH2 0x7111 JUMP JUMPDEST SWAP3 POP DUP2 PUSH1 0x9 PUSH1 0x0 DUP8 PUSH20 0xFFFFFFFFFFFFFFFFFFFFFFFFFFFFFFFFFFFFFFFF AND PUSH20 0xFFFFFFFFFFFFFFFFFFFFFFFFFFFFFFFFFFFFFFFF AND DUP2 MSTORE PUSH1 0x20 ADD SWAP1 DUP2 MSTORE PUSH1 0x20 ADD PUSH1 0x0 KECCAK256 PUSH1 0x3 ADD DUP2 SWAP1 SSTORE POP POP JUMPDEST JUMPDEST PUSH1 0x0 DUP3 EQ ISZERO PUSH2 0x5A76 JUMPI PUSH1 0x40 MLOAD PUSH32 0x8C379A000000000000000000000000000000000000000000000000000000000 DUP2 MSTORE PUSH1 0x4 ADD PUSH2 0x5A6D SWAP1 PUSH2 0x71B7 JUMP JUMPDEST PUSH1 0x40 MLOAD DUP1 SWAP2 SUB SWAP1 REVERT JUMPDEST DUP2 SWAP3 POP POP POP SWAP2 SWAP1 POP JUMP JUMPDEST PUSH1 0x40 MLOAD DUP1 PUSH1 0x80 ADD PUSH1 0x40 MSTORE DUP1 PUSH1 0x0 DUP2 MSTORE PUSH1 0x20 ADD PUSH1 0x0 DUP2 MSTORE PUSH1 0x20 ADD PUSH1 0x0 ISZERO ISZERO DUP2 MSTORE PUSH1 0x20 ADD PUSH1 0x0 DUP2 MSTORE POP SWAP1 JUMP JUMPDEST PUSH1 0x40 MLOAD DUP1 PUSH2 0x660 ADD PUSH1 0x40 MSTORE DUP1 PUSH1 0x33 SWAP1 PUSH1 0x20 DUP3 MUL DUP1 CALLDATASIZE DUP4 CALLDATACOPY DUP1 DUP3 ADD SWAP2 POP POP SWAP1 POP POP SWAP1 JUMP JUMPDEST PUSH1 0x0 DUP2 MLOAD SWAP1 POP SWAP2 SWAP1 POP JUMP JUMPDEST PUSH1 0x0 DUP3 DUP3 MSTORE PUSH1 0x20 DUP3 ADD SWAP1 POP SWAP3 SWAP2 POP POP JUMP JUMPDEST PUSH1 0x0 JUMPDEST DUP4 DUP2 LT ISZERO PUSH2 0x5B07 JUMPI DUP1 DUP3 ADD MLOAD DUP2 DUP5 ADD MSTORE PUSH1 0x20 DUP2 ADD SWAP1 POP PUSH2 0x5AEC JUMP JUMPDEST DUP4 DUP2 GT ISZERO PUSH2 0x5B16 JUMPI PUSH1 0x0 DUP5 DUP5 ADD MSTORE JUMPDEST POP POP POP POP JUMP JUMPDEST PUSH1 0x0 PUSH1 0x1F NOT PUSH1 0x1F DUP4 ADD AND SWAP1 POP SWAP2 SWAP1 POP JUMP JUMPDEST PUSH1 0x0 PUSH2 0x5B38 DUP3 PUSH2 0x5ACD JUMP JUMPDEST PUSH2 0x5B42 DUP2 DUP6 PUSH2 0x5AD8 JUMP JUMPDEST SWAP4 POP PUSH2 0x5B52 DUP2 DUP6 PUSH1 0x20 DUP7 ADD PUSH2 0x5AE9 JUMP JUMPDEST PUSH2 0x5B5B DUP2 PUSH2 0x5B1C JUMP JUMPDEST DUP5 ADD SWAP2 POP POP SWAP3 SWAP2 POP POP JUMP JUMPDEST PUSH1 0x0 PUSH1 0x20 DUP3 ADD SWAP1 POP DUP2 DUP2 SUB PUSH1 0x0 DUP4 ADD MSTORE PUSH2 0x5B80 DUP2 DUP5 PUSH2 0x5B2D JUMP JUMPDEST SWAP1 POP SWAP3 SWAP2 POP POP JUMP JUMPDEST PUSH1 0x0 DUP1 REVERT JUMPDEST PUSH1 0x0 DUP1 REVERT JUMPDEST PUSH1 0x0 DUP1 REVERT JUMPDEST PUSH1 0x0 DUP1 REVERT JUMPDEST PUSH1 0x0 DUP1 REVERT JUMPDEST PUSH1 0x0 DUP1 DUP4 PUSH1 0x1F DUP5 ADD SLT PUSH2 0x5BB7 JUMPI PUSH2 0x5BB6 PUSH2 0x5B92 JUMP JUMPDEST JUMPDEST DUP3 CALLDATALOAD SWAP1 POP PUSH8 0xFFFFFFFFFFFFFFFF DUP2 GT ISZERO PUSH2 0x5BD4 JUMPI PUSH2 0x5BD3 PUSH2 0x5B97 JUMP JUMPDEST JUMPDEST PUSH1 0x20 DUP4 ADD SWAP2 POP DUP4 PUSH1 0x40 DUP3 MUL DUP4 ADD GT ISZERO PUSH2 0x5BF0 JUMPI PUSH2 0x5BEF PUSH2 0x5B9C JUMP JUMPDEST JUMPDEST SWAP3 POP SWAP3 SWAP1 POP JUMP JUMPDEST PUSH1 0x0 DUP1 PUSH1 0x20 DUP4 DUP6 SUB SLT ISZERO PUSH2 0x5C0E JUMPI PUSH2 0x5C0D PUSH2 0x5B88 JUMP JUMPDEST JUMPDEST PUSH1 0x0 DUP4 ADD CALLDATALOAD PUSH8 0xFFFFFFFFFFFFFFFF DUP2 GT ISZERO PUSH2 0x5C2C JUMPI PUSH2 0x5C2B PUSH2 0x5B8D JUMP JUMPDEST JUMPDEST PUSH2 0x5C38 DUP6 DUP3 DUP7 ADD PUSH2 0x5BA1 JUMP JUMPDEST SWAP3 POP SWAP3 POP POP SWAP3 POP SWAP3 SWAP1 POP JUMP JUMPDEST PUSH1 0x0 PUSH20 0xFFFFFFFFFFFFFFFFFFFFFFFFFFFFFFFFFFFFFFFF DUP3 AND SWAP1 POP SWAP2 SWAP1 POP JUMP JUMPDEST PUSH1 0x0 PUSH2 0x5C6F DUP3 PUSH2 0x5C44 JUMP JUMPDEST SWAP1 POP SWAP2 SWAP1 POP JUMP JUMPDEST PUSH2 0x5C7F DUP2 PUSH2 0x5C64 JUMP JUMPDEST DUP2 EQ PUSH2 0x5C8A JUMPI PUSH1 0x0 DUP1 REVERT JUMPDEST POP JUMP JUMPDEST PUSH1 0x0 DUP2 CALLDATALOAD SWAP1 POP PUSH2 0x5C9C DUP2 PUSH2 0x5C76 JUMP JUMPDEST SWAP3 SWAP2 POP POP JUMP JUMPDEST PUSH1 0x0 DUP2 SWAP1 POP SWAP2 SWAP1 POP JUMP JUMPDEST PUSH2 0x5CB5 DUP2 PUSH2 0x5CA2 JUMP JUMPDEST DUP2 EQ PUSH2 0x5CC0 JUMPI PUSH1 0x0 DUP1 REVERT JUMPDEST POP JUMP JUMPDEST PUSH1 0x0 DUP2 CALLDATALOAD SWAP1 POP PUSH2 0x5CD2 DUP2 PUSH2 0x5CAC JUMP JUMPDEST SWAP3 SWAP2 POP POP JUMP JUMPDEST PUSH1 0x0 DUP1 PUSH1 0x40 DUP4 DUP6 SUB SLT ISZERO PUSH2 0x5CEF JUMPI PUSH2 0x5CEE PUSH2 0x5B88 JUMP JUMPDEST JUMPDEST PUSH1 0x0 PUSH2 0x5CFD DUP6 DUP3 DUP7 ADD PUSH2 0x5C8D JUMP JUMPDEST SWAP3 POP POP PUSH1 0x20 PUSH2 0x5D0E DUP6 DUP3 DUP7 ADD PUSH2 0x5CC3 JUMP JUMPDEST SWAP2 POP POP SWAP3 POP SWAP3 SWAP1 POP JUMP JUMPDEST PUSH1 0x0 DUP2 ISZERO ISZERO SWAP1 POP SWAP2 SWAP1 POP JUMP JUMPDEST PUSH2 0x5D2D DUP2 PUSH2 0x5D18 JUMP JUMPDEST DUP3 MSTORE POP POP JUMP JUMPDEST PUSH1 0x0 PUSH1 0x20 DUP3 ADD SWAP1 POP PUSH2 0x5D48 PUSH1 0x0 DUP4 ADD DUP5 PUSH2 0x5D24 JUMP JUMPDEST SWAP3 SWAP2 POP POP JUMP JUMPDEST PUSH2 0x5D57 DUP2 PUSH2 0x5CA2 JUMP JUMPDEST DUP3 MSTORE POP POP JUMP JUMPDEST PUSH1 0x0 PUSH1 0x20 DUP3 ADD SWAP1 POP PUSH2 0x5D72 PUSH1 0x0 DUP4 ADD DUP5 PUSH2 0x5D4E JUMP JUMPDEST SWAP3 SWAP2 POP POP JUMP JUMPDEST PUSH2 0x5D81 DUP2 PUSH2 0x5CA2 JUMP JUMPDEST DUP3 MSTORE POP POP JUMP JUMPDEST PUSH2 0x5D90 DUP2 PUSH2 0x5D18 JUMP JUMPDEST DUP3 MSTORE POP POP JUMP JUMPDEST PUSH1 0x80 DUP3 ADD PUSH1 0x0 DUP3 ADD MLOAD PUSH2 0x5DAC PUSH1 0x0 DUP6 ADD DUP3 PUSH2 0x5D78 JUMP JUMPDEST POP PUSH1 0x20 DUP3 ADD MLOAD PUSH2 0x5DBF PUSH1 0x20 DUP6 ADD DUP3 PUSH2 0x5D78 JUMP JUMPDEST POP PUSH1 0x40 DUP3 ADD MLOAD PUSH2 0x5DD2 PUSH1 0x40 DUP6 ADD DUP3 PUSH2 0x5D87 JUMP JUMPDEST POP PUSH1 0x60 DUP3 ADD MLOAD PUSH2 0x5DE5 PUSH1 0x60 DUP6 ADD DUP3 PUSH2 0x5D78 JUMP JUMPDEST POP POP POP POP JUMP JUMPDEST PUSH1 0x0 PUSH1 0x80 DUP3 ADD SWAP1 POP PUSH2 0x5E00 PUSH1 0x0 DUP4 ADD DUP5 PUSH2 0x5D96 JUMP JUMPDEST SWAP3 SWAP2 POP POP JUMP JUMPDEST PUSH1 0x0 DUP1 PUSH1 0x0 PUSH1 0x60 DUP5 DUP7 SUB SLT ISZERO PUSH2 0x5E1F JUMPI PUSH2 0x5E1E PUSH2 0x5B88 JUMP JUMPDEST JUMPDEST PUSH1 0x0 PUSH2 0x5E2D DUP7 DUP3 DUP8 ADD PUSH2 0x5C8D JUMP JUMPDEST SWAP4 POP POP PUSH1 0x20 PUSH2 0x5E3E DUP7 DUP3 DUP8 ADD PUSH2 0x5C8D JUMP JUMPDEST SWAP3 POP POP PUSH1 0x40 PUSH2 0x5E4F DUP7 DUP3 DUP8 ADD PUSH2 0x5CC3 JUMP JUMPDEST SWAP2 POP POP SWAP3 POP SWAP3 POP SWAP3 JUMP JUMPDEST PUSH1 0x0 PUSH1 0xFF DUP3 AND SWAP1 POP SWAP2 SWAP1 POP JUMP JUMPDEST PUSH2 0x5E6F DUP2 PUSH2 0x5E59 JUMP JUMPDEST DUP3 MSTORE POP POP JUMP JUMPDEST PUSH1 0x0 PUSH1 0x20 DUP3 ADD SWAP1 POP PUSH2 0x5E8A PUSH1 0x0 DUP4 ADD DUP5 PUSH2 0x5E66 JUMP JUMPDEST SWAP3 SWAP2 POP POP JUMP JUMPDEST PUSH1 0x0 PUSH1 0x20 DUP3 DUP5 SUB SLT ISZERO PUSH2 0x5EA6 JUMPI PUSH2 0x5EA5 PUSH2 0x5B88 JUMP JUMPDEST JUMPDEST PUSH1 0x0 PUSH2 0x5EB4 DUP5 DUP3 DUP6 ADD PUSH2 0x5CC3 JUMP JUMPDEST SWAP2 POP POP SWAP3 SWAP2 POP POP JUMP JUMPDEST PUSH1 0x0 DUP1 PUSH1 0x0 PUSH1 0x60 DUP5 DUP7 SUB SLT ISZERO PUSH2 0x5ED6 JUMPI PUSH2 0x5ED5 PUSH2 0x5B88 JUMP JUMPDEST JUMPDEST PUSH1 0x0 PUSH2 0x5EE4 DUP7 DUP3 DUP8 ADD PUSH2 0x5C8D JUMP JUMPDEST SWAP4 POP POP PUSH1 0x20 PUSH2 0x5EF5 DUP7 DUP3 DUP8 ADD PUSH2 0x5C8D JUMP JUMPDEST SWAP3 POP POP PUSH1 0x40 PUSH2 0x5F06 DUP7 DUP3 DUP8 ADD PUSH2 0x5C8D JUMP JUMPDEST SWAP2 POP POP SWAP3 POP SWAP3 POP SWAP3 JUMP JUMPDEST PUSH2 0x5F19 DUP2 PUSH2 0x5E59 JUMP JUMPDEST DUP2 EQ PUSH2 0x5F24 JUMPI PUSH1 0x0 DUP1 REVERT JUMPDEST POP JUMP JUMPDEST PUSH1 0x0 DUP2 CALLDATALOAD SWAP1 POP PUSH2 0x5F36 DUP2 PUSH2 0x5F10 JUMP JUMPDEST SWAP3 SWAP2 POP POP JUMP JUMPDEST PUSH1 0x0 PUSH1 0x20 DUP3 DUP5 SUB SLT ISZERO PUSH2 0x5F52 JUMPI PUSH2 0x5F51 PUSH2 0x5B88 JUMP JUMPDEST JUMPDEST PUSH1 0x0 PUSH2 0x5F60 DUP5 DUP3 DUP6 ADD PUSH2 0x5F27 JUMP JUMPDEST SWAP2 POP POP SWAP3 SWAP2 POP POP JUMP JUMPDEST PUSH1 0x0 PUSH1 0x20 DUP3 DUP5 SUB SLT ISZERO PUSH2 0x5F7F JUMPI PUSH2 0x5F7E PUSH2 0x5B88 JUMP JUMPDEST JUMPDEST PUSH1 0x0 PUSH2 0x5F8D DUP5 DUP3 DUP6 ADD PUSH2 0x5C8D JUMP JUMPDEST SWAP2 POP POP SWAP3 SWAP2 POP POP JUMP JUMPDEST PUSH2 0x5F9F DUP2 PUSH2 0x5C64 JUMP JUMPDEST DUP3 MSTORE POP POP JUMP JUMPDEST PUSH1 0x0 PUSH1 0x20 DUP3 ADD SWAP1 POP PUSH2 0x5FBA PUSH1 0x0 DUP4 ADD DUP5 PUSH2 0x5F96 JUMP JUMPDEST SWAP3 SWAP2 POP POP JUMP JUMPDEST PUSH1 0x0 DUP1 DUP4 PUSH1 0x1F DUP5 ADD SLT PUSH2 0x5FD6 JUMPI PUSH2 0x5FD5 PUSH2 0x5B92 JUMP JUMPDEST JUMPDEST DUP3 CALLDATALOAD SWAP1 POP PUSH8 0xFFFFFFFFFFFFFFFF DUP2 GT ISZERO PUSH2 0x5FF3 JUMPI PUSH2 0x5FF2 PUSH2 0x5B97 JUMP JUMPDEST JUMPDEST PUSH1 0x20 DUP4 ADD SWAP2 POP DUP4 PUSH1 0x20 DUP3 MUL DUP4 ADD GT ISZERO PUSH2 0x600F JUMPI PUSH2 0x600E PUSH2 0x5B9C JUMP JUMPDEST JUMPDEST SWAP3 POP SWAP3 SWAP1 POP JUMP JUMPDEST PUSH1 0x0 DUP1 PUSH1 0x20 DUP4 DUP6 SUB SLT ISZERO PUSH2 0x602D JUMPI PUSH2 0x602C PUSH2 0x5B88 JUMP JUMPDEST JUMPDEST PUSH1 0x0 DUP4 ADD CALLDATALOAD PUSH8 0xFFFFFFFFFFFFFFFF DUP2 GT ISZERO PUSH2 0x604B JUMPI PUSH2 0x604A PUSH2 0x5B8D JUMP JUMPDEST JUMPDEST PUSH2 0x6057 DUP6 DUP3 DUP7 ADD PUSH2 0x5FC0 JUMP JUMPDEST SWAP3 POP SWAP3 POP POP SWAP3 POP SWAP3 SWAP1 POP JUMP JUMPDEST PUSH1 0x0 DUP1 PUSH1 0x40 DUP4 DUP6 SUB SLT ISZERO PUSH2 0x607A JUMPI PUSH2 0x6079 PUSH2 0x5B88 JUMP JUMPDEST JUMPDEST PUSH1 0x0 PUSH2 0x6088 DUP6 DUP3 DUP7 ADD PUSH2 0x5C8D JUMP JUMPDEST SWAP3 POP POP PUSH1 0x20 PUSH2 0x6099 DUP6 DUP3 DUP7 ADD PUSH2 0x5C8D JUMP JUMPDEST SWAP2 POP POP SWAP3 POP SWAP3 SWAP1 POP JUMP JUMPDEST PUSH32 0x4E487B7100000000000000000000000000000000000000000000000000000000 PUSH1 0x0 MSTORE PUSH1 0x22 PUSH1 0x4 MSTORE PUSH1 0x24 PUSH1 0x0 REVERT JUMPDEST PUSH1 0x0 PUSH1 0x2 DUP3 DIV SWAP1 POP PUSH1 0x1 DUP3 AND DUP1 PUSH2 0x60EA JUMPI PUSH1 0x7F DUP3 AND SWAP2 POP JUMPDEST PUSH1 0x20 DUP3 LT DUP2 EQ ISZERO PUSH2 0x60FE JUMPI PUSH2 0x60FD PUSH2 0x60A3 JUMP JUMPDEST JUMPDEST POP SWAP2 SWAP1 POP JUMP JUMPDEST PUSH32 0x4E6F7468696E6720746F20616464000000000000000000000000000000000000 PUSH1 0x0 DUP3 ADD MSTORE POP JUMP JUMPDEST PUSH1 0x0 PUSH2 0x613A PUSH1 0xE DUP4 PUSH2 0x5AD8 JUMP JUMPDEST SWAP2 POP PUSH2 0x6145 DUP3 PUSH2 0x6104 JUMP JUMPDEST PUSH1 0x20 DUP3 ADD SWAP1 POP SWAP2 SWAP1 POP JUMP JUMPDEST PUSH1 0x0 PUSH1 0x20 DUP3 ADD SWAP1 POP DUP2 DUP2 SUB PUSH1 0x0 DUP4 ADD MSTORE PUSH2 0x6169 DUP2 PUSH2 0x612D JUMP JUMPDEST SWAP1 POP SWAP2 SWAP1 POP JUMP JUMPDEST PUSH32 0x4E487B7100000000000000000000000000000000000000000000000000000000 PUSH1 0x0 MSTORE PUSH1 0x32 PUSH1 0x4 MSTORE PUSH1 0x24 PUSH1 0x0 REVERT JUMPDEST PUSH1 0x0 DUP3 DUP3 MSTORE PUSH1 0x20 DUP3 ADD SWAP1 POP SWAP3 SWAP2 POP POP JUMP JUMPDEST PUSH1 0x0 DUP2 SWAP1 POP SWAP2 SWAP1 POP JUMP JUMPDEST PUSH1 0x0 PUSH2 0x61C9 PUSH1 0x20 DUP5 ADD DUP5 PUSH2 0x5C8D JUMP JUMPDEST SWAP1 POP SWAP3 SWAP2 POP POP JUMP JUMPDEST PUSH2 0x61DA DUP2 PUSH2 0x5C64 JUMP JUMPDEST DUP3 MSTORE POP POP JUMP JUMPDEST PUSH1 0x0 PUSH2 0x61EF PUSH1 0x20 DUP5 ADD DUP5 PUSH2 0x5CC3 JUMP JUMPDEST SWAP1 POP SWAP3 SWAP2 POP POP JUMP JUMPDEST PUSH1 0x40 DUP3 ADD PUSH2 0x6208 PUSH1 0x0 DUP4 ADD DUP4 PUSH2 0x61BA JUMP JUMPDEST PUSH2 0x6215 PUSH1 0x0 DUP6 ADD DUP3 PUSH2 0x61D1 JUMP JUMPDEST POP PUSH2 0x6223 PUSH1 0x20 DUP4 ADD DUP4 PUSH2 0x61E0 JUMP JUMPDEST PUSH2 0x6230 PUSH1 0x20 DUP6 ADD DUP3 PUSH2 0x5D78 JUMP JUMPDEST POP POP POP POP JUMP JUMPDEST PUSH1 0x0 PUSH2 0x6242 DUP4 DUP4 PUSH2 0x61F7 JUMP JUMPDEST PUSH1 0x40 DUP4 ADD SWAP1 POP SWAP3 SWAP2 POP POP JUMP JUMPDEST PUSH1 0x0 DUP3 SWAP1 POP SWAP3 SWAP2 POP POP JUMP JUMPDEST PUSH1 0x0 PUSH1 0x40 DUP3 ADD SWAP1 POP SWAP2 SWAP1 POP JUMP JUMPDEST PUSH1 0x0 PUSH2 0x6272 DUP4 DUP6 PUSH2 0x619F JUMP JUMPDEST SWAP4 POP PUSH2 0x627D DUP3 PUSH2 0x61B0 JUMP JUMPDEST DUP1 PUSH1 0x0 JUMPDEST DUP6 DUP2 LT ISZERO PUSH2 0x62B6 JUMPI PUSH2 0x6293 DUP3 DUP5 PUSH2 0x624E JUMP JUMPDEST PUSH2 0x629D DUP9 DUP3 PUSH2 0x6236 JUMP JUMPDEST SWAP8 POP PUSH2 0x62A8 DUP4 PUSH2 0x6259 JUMP JUMPDEST SWAP3 POP POP PUSH1 0x1 DUP2 ADD SWAP1 POP PUSH2 0x6281 JUMP JUMPDEST POP DUP6 SWAP3 POP POP POP SWAP4 SWAP3 POP POP POP JUMP JUMPDEST PUSH1 0x0 PUSH1 0x20 DUP3 ADD SWAP1 POP DUP2 DUP2 SUB PUSH1 0x0 DUP4 ADD MSTORE PUSH2 0x62DE DUP2 DUP5 DUP7 PUSH2 0x6266 JUMP JUMPDEST SWAP1 POP SWAP4 SWAP3 POP POP POP JUMP JUMPDEST PUSH1 0x0 DUP2 MLOAD SWAP1 POP PUSH2 0x62F6 DUP2 PUSH2 0x5C76 JUMP JUMPDEST SWAP3 SWAP2 POP POP JUMP JUMPDEST PUSH1 0x0 PUSH1 0x20 DUP3 DUP5 SUB SLT ISZERO PUSH2 0x6312 JUMPI PUSH2 0x6311 PUSH2 0x5B88 JUMP JUMPDEST JUMPDEST PUSH1 0x0 PUSH2 0x6320 DUP5 DUP3 DUP6 ADD PUSH2 0x62E7 JUMP JUMPDEST SWAP2 POP POP SWAP3 SWAP2 POP POP JUMP JUMPDEST PUSH1 0x0 PUSH1 0x33 SWAP1 POP SWAP2 SWAP1 POP JUMP JUMPDEST PUSH1 0x0 DUP2 SWAP1 POP SWAP3 SWAP2 POP POP JUMP JUMPDEST PUSH1 0x0 DUP2 SWAP1 POP SWAP2 SWAP1 POP JUMP JUMPDEST PUSH1 0x0 PUSH2 0x6355 DUP4 DUP4 PUSH2 0x5D78 JUMP JUMPDEST PUSH1 0x20 DUP4 ADD SWAP1 POP SWAP3 SWAP2 POP POP JUMP JUMPDEST PUSH1 0x0 PUSH1 0x20 DUP3 ADD SWAP1 POP SWAP2 SWAP1 POP JUMP JUMPDEST PUSH2 0x6377 DUP2 PUSH2 0x6329 JUMP JUMPDEST PUSH2 0x6381 DUP2 DUP5 PUSH2 0x6334 JUMP JUMPDEST SWAP3 POP PUSH2 0x638C DUP3 PUSH2 0x633F JUMP JUMPDEST DUP1 PUSH1 0x0 JUMPDEST DUP4 DUP2 LT ISZERO PUSH2 0x63BD JUMPI DUP2 MLOAD PUSH2 0x63A4 DUP8 DUP3 PUSH2 0x6349 JUMP JUMPDEST SWAP7 POP PUSH2 0x63AF DUP4 PUSH2 0x6361 JUMP JUMPDEST SWAP3 POP POP PUSH1 0x1 DUP2 ADD SWAP1 POP PUSH2 0x6390 JUMP JUMPDEST POP POP POP POP POP POP JUMP JUMPDEST PUSH1 0x0 PUSH2 0x660 DUP3 ADD SWAP1 POP PUSH2 0x63DB PUSH1 0x0 DUP4 ADD DUP5 PUSH2 0x636E JUMP JUMPDEST SWAP3 SWAP2 POP POP JUMP JUMPDEST PUSH1 0x0 DUP2 MLOAD SWAP1 POP PUSH2 0x63F0 DUP2 PUSH2 0x5CAC JUMP JUMPDEST SWAP3 SWAP2 POP POP JUMP JUMPDEST PUSH1 0x0 PUSH1 0x20 DUP3 DUP5 SUB SLT ISZERO PUSH2 0x640C JUMPI PUSH2 0x640B PUSH2 0x5B88 JUMP JUMPDEST JUMPDEST PUSH1 0x0 PUSH2 0x641A DUP5 DUP3 DUP6 ADD PUSH2 0x63E1 JUMP JUMPDEST SWAP2 POP POP SWAP3 SWAP2 POP POP JUMP JUMPDEST PUSH32 0x4E487B7100000000000000000000000000000000000000000000000000000000 PUSH1 0x0 MSTORE PUSH1 0x11 PUSH1 0x4 MSTORE PUSH1 0x24 PUSH1 0x0 REVERT JUMPDEST PUSH1 0x0 PUSH2 0x645D DUP3 PUSH2 0x5CA2 JUMP JUMPDEST SWAP2 POP PUSH2 0x6468 DUP4 PUSH2 0x5CA2 JUMP JUMPDEST SWAP3 POP DUP3 PUSH32 0xFFFFFFFFFFFFFFFFFFFFFFFFFFFFFFFFFFFFFFFFFFFFFFFFFFFFFFFFFFFFFFFF SUB DUP3 GT ISZERO PUSH2 0x649D JUMPI PUSH2 0x649C PUSH2 0x6423 JUMP JUMPDEST JUMPDEST DUP3 DUP3 ADD SWAP1 POP SWAP3 SWAP2 POP POP JUMP JUMPDEST PUSH32 0x54617820466565206D6178696D756D2069732035250000000000000000000000 PUSH1 0x0 DUP3 ADD MSTORE POP JUMP JUMPDEST PUSH1 0x0 PUSH2 0x64DE PUSH1 0x15 DUP4 PUSH2 0x5AD8 JUMP JUMPDEST SWAP2 POP PUSH2 0x64E9 DUP3 PUSH2 0x64A8 JUMP JUMPDEST PUSH1 0x20 DUP3 ADD SWAP1 POP SWAP2 SWAP1 POP JUMP JUMPDEST PUSH1 0x0 PUSH1 0x20 DUP3 ADD SWAP1 POP DUP2 DUP2 SUB PUSH1 0x0 DUP4 ADD MSTORE PUSH2 0x650D DUP2 PUSH2 0x64D1 JUMP JUMPDEST SWAP1 POP SWAP2 SWAP1 POP JUMP JUMPDEST PUSH1 0x0 DUP2 SWAP1 POP SWAP2 SWAP1 POP JUMP JUMPDEST PUSH1 0x0 PUSH2 0x6539 PUSH2 0x6534 PUSH2 0x652F DUP5 PUSH2 0x5E59 JUMP JUMPDEST PUSH2 0x6514 JUMP JUMPDEST PUSH2 0x5CA2 JUMP JUMPDEST SWAP1 POP SWAP2 SWAP1 POP JUMP JUMPDEST PUSH2 0x6549 DUP2 PUSH2 0x651E JUMP JUMPDEST DUP3 MSTORE POP POP JUMP JUMPDEST PUSH1 0x0 PUSH1 0x20 DUP3 ADD SWAP1 POP PUSH2 0x6564 PUSH1 0x0 DUP4 ADD DUP5 PUSH2 0x6540 JUMP JUMPDEST SWAP3 SWAP2 POP POP JUMP JUMPDEST PUSH32 0x4E6F7468696E6720746F2064656C657465000000000000000000000000000000 PUSH1 0x0 DUP3 ADD MSTORE POP JUMP JUMPDEST PUSH1 0x0 PUSH2 0x65A0 PUSH1 0x11 DUP4 PUSH2 0x5AD8 JUMP JUMPDEST SWAP2 POP PUSH2 0x65AB DUP3 PUSH2 0x656A JUMP JUMPDEST PUSH1 0x20 DUP3 ADD SWAP1 POP SWAP2 SWAP1 POP JUMP JUMPDEST PUSH1 0x0 PUSH1 0x20 DUP3 ADD SWAP1 POP DUP2 DUP2 SUB PUSH1 0x0 DUP4 ADD MSTORE PUSH2 0x65CF DUP2 PUSH2 0x6593 JUMP JUMPDEST SWAP1 POP SWAP2 SWAP1 POP JUMP JUMPDEST PUSH1 0x0 DUP3 DUP3 MSTORE PUSH1 0x20 DUP3 ADD SWAP1 POP SWAP3 SWAP2 POP POP JUMP JUMPDEST PUSH1 0x0 DUP2 SWAP1 POP SWAP2 SWAP1 POP JUMP JUMPDEST PUSH1 0x0 PUSH2 0x65FD DUP4 DUP4 PUSH2 0x61D1 JUMP JUMPDEST PUSH1 0x20 DUP4 ADD SWAP1 POP SWAP3 SWAP2 POP POP JUMP JUMPDEST PUSH1 0x0 PUSH1 0x20 DUP3 ADD SWAP1 POP SWAP2 SWAP1 POP JUMP JUMPDEST PUSH1 0x0 PUSH2 0x6622 DUP4 DUP6 PUSH2 0x65D6 JUMP JUMPDEST SWAP4 POP PUSH2 0x662D DUP3 PUSH2 0x65E7 JUMP JUMPDEST DUP1 PUSH1 0x0 JUMPDEST DUP6 DUP2 LT ISZERO PUSH2 0x6666 JUMPI PUSH2 0x6643 DUP3 DUP5 PUSH2 0x61BA JUMP JUMPDEST PUSH2 0x664D DUP9 DUP3 PUSH2 0x65F1 JUMP JUMPDEST SWAP8 POP PUSH2 0x6658 DUP4 PUSH2 0x6609 JUMP JUMPDEST SWAP3 POP POP PUSH1 0x1 DUP2 ADD SWAP1 POP PUSH2 0x6631 JUMP JUMPDEST POP DUP6 SWAP3 POP POP POP SWAP4 SWAP3 POP POP POP JUMP JUMPDEST PUSH1 0x0 PUSH1 0x20 DUP3 ADD SWAP1 POP DUP2 DUP2 SUB PUSH1 0x0 DUP4 ADD MSTORE PUSH2 0x668E DUP2 DUP5 DUP7 PUSH2 0x6616 JUMP JUMPDEST SWAP1 POP SWAP4 SWAP3 POP POP POP JUMP JUMPDEST PUSH32 0x45524332303A2064656372656173656420616C6C6F77616E63652062656C6F77 PUSH1 0x0 DUP3 ADD MSTORE PUSH32 0x207A65726F000000000000000000000000000000000000000000000000000000 PUSH1 0x20 DUP3 ADD MSTORE POP JUMP JUMPDEST PUSH1 0x0 PUSH2 0x66F3 PUSH1 0x25 DUP4 PUSH2 0x5AD8 JUMP JUMPDEST SWAP2 POP PUSH2 0x66FE DUP3 PUSH2 0x6697 JUMP JUMPDEST PUSH1 0x40 DUP3 ADD SWAP1 POP SWAP2 SWAP1 POP JUMP JUMPDEST PUSH1 0x0 PUSH1 0x20 DUP3 ADD SWAP1 POP DUP2 DUP2 SUB PUSH1 0x0 DUP4 ADD MSTORE PUSH2 0x6722 DUP2 PUSH2 0x66E6 JUMP JUMPDEST SWAP1 POP SWAP2 SWAP1 POP JUMP JUMPDEST PUSH32 0x4E6F7468696E6720746F20696E697469616C697A650000000000000000000000 PUSH1 0x0 DUP3 ADD MSTORE POP JUMP JUMPDEST PUSH1 0x0 PUSH2 0x675F PUSH1 0x15 DUP4 PUSH2 0x5AD8 JUMP JUMPDEST SWAP2 POP PUSH2 0x676A DUP3 PUSH2 0x6729 JUMP JUMPDEST PUSH1 0x20 DUP3 ADD SWAP1 POP SWAP2 SWAP1 POP JUMP JUMPDEST PUSH1 0x0 PUSH1 0x20 DUP3 ADD SWAP1 POP DUP2 DUP2 SUB PUSH1 0x0 DUP4 ADD MSTORE PUSH2 0x678E DUP2 PUSH2 0x6752 JUMP JUMPDEST SWAP1 POP SWAP2 SWAP1 POP JUMP JUMPDEST PUSH32 0x4F776E61626C653A206E6577206F776E657220697320746865207A65726F2061 PUSH1 0x0 DUP3 ADD MSTORE PUSH32 0x6464726573730000000000000000000000000000000000000000000000000000 PUSH1 0x20 DUP3 ADD MSTORE POP JUMP JUMPDEST PUSH1 0x0 PUSH2 0x67F1 PUSH1 0x26 DUP4 PUSH2 0x5AD8 JUMP JUMPDEST SWAP2 POP PUSH2 0x67FC DUP3 PUSH2 0x6795 JUMP JUMPDEST PUSH1 0x40 DUP3 ADD SWAP1 POP SWAP2 SWAP1 POP JUMP JUMPDEST PUSH1 0x0 PUSH1 0x20 DUP3 ADD SWAP1 POP DUP2 DUP2 SUB PUSH1 0x0 DUP4 ADD MSTORE PUSH2 0x6820 DUP2 PUSH2 0x67E4 JUMP JUMPDEST SWAP1 POP SWAP2 SWAP1 POP JUMP JUMPDEST PUSH32 0x4E487B7100000000000000000000000000000000000000000000000000000000 PUSH1 0x0 MSTORE PUSH1 0x12 PUSH1 0x4 MSTORE PUSH1 0x24 PUSH1 0x0 REVERT JUMPDEST PUSH1 0x0 PUSH2 0x6861 DUP3 PUSH2 0x5CA2 JUMP JUMPDEST SWAP2 POP PUSH2 0x686C DUP4 PUSH2 0x5CA2 JUMP JUMPDEST SWAP3 POP DUP3 PUSH2 0x687C JUMPI PUSH2 0x687B PUSH2 0x6827 JUMP JUMPDEST JUMPDEST DUP3 DUP3 DIV SWAP1 POP SWAP3 SWAP2 POP POP JUMP JUMPDEST PUSH32 0x4F776E61626C653A2063616C6C6572206973206E6F7420746865206F776E6572 PUSH1 0x0 DUP3 ADD MSTORE POP JUMP JUMPDEST PUSH1 0x0 PUSH2 0x68BD PUSH1 0x20 DUP4 PUSH2 0x5AD8 JUMP JUMPDEST SWAP2 POP PUSH2 0x68C8 DUP3 PUSH2 0x6887 JUMP JUMPDEST PUSH1 0x20 DUP3 ADD SWAP1 POP SWAP2 SWAP1 POP JUMP JUMPDEST PUSH1 0x0 PUSH1 0x20 DUP3 ADD SWAP1 POP DUP2 DUP2 SUB PUSH1 0x0 DUP4 ADD MSTORE PUSH2 0x68EC DUP2 PUSH2 0x68B0 JUMP JUMPDEST SWAP1 POP SWAP2 SWAP1 POP JUMP JUMPDEST PUSH32 0x4E6F742079657420737461727465640000000000000000000000000000000000 PUSH1 0x0 DUP3 ADD MSTORE POP JUMP JUMPDEST PUSH1 0x0 PUSH2 0x6929 PUSH1 0xF DUP4 PUSH2 0x5AD8 JUMP JUMPDEST SWAP2 POP PUSH2 0x6934 DUP3 PUSH2 0x68F3 JUMP JUMPDEST PUSH1 0x20 DUP3 ADD SWAP1 POP SWAP2 SWAP1 POP JUMP JUMPDEST PUSH1 0x0 PUSH1 0x20 DUP3 ADD SWAP1 POP DUP2 DUP2 SUB PUSH1 0x0 DUP4 ADD MSTORE PUSH2 0x6958 DUP2 PUSH2 0x691C JUMP JUMPDEST SWAP1 POP SWAP2 SWAP1 POP JUMP JUMPDEST PUSH32 0x416D6F756E742063616E6E6F74206265207A65726F0000000000000000000000 PUSH1 0x0 DUP3 ADD MSTORE POP JUMP JUMPDEST PUSH1 0x0 PUSH2 0x6995 PUSH1 0x15 DUP4 PUSH2 0x5AD8 JUMP JUMPDEST SWAP2 POP PUSH2 0x69A0 DUP3 PUSH2 0x695F JUMP JUMPDEST PUSH1 0x20 DUP3 ADD SWAP1 POP SWAP2 SWAP1 POP JUMP JUMPDEST PUSH1 0x0 PUSH1 0x20 DUP3 ADD SWAP1 POP DUP2 DUP2 SUB PUSH1 0x0 DUP4 ADD MSTORE PUSH2 0x69C4 DUP2 PUSH2 0x6988 JUMP JUMPDEST SWAP1 POP SWAP2 SWAP1 POP JUMP JUMPDEST PUSH32 0x496E73756666696369656E7420546F74616C2042616C616E6365000000000000 PUSH1 0x0 DUP3 ADD MSTORE POP JUMP JUMPDEST PUSH1 0x0 PUSH2 0x6A01 PUSH1 0x1A DUP4 PUSH2 0x5AD8 JUMP JUMPDEST SWAP2 POP PUSH2 0x6A0C DUP3 PUSH2 0x69CB JUMP JUMPDEST PUSH1 0x20 DUP3 ADD SWAP1 POP SWAP2 SWAP1 POP JUMP JUMPDEST PUSH1 0x0 PUSH1 0x20 DUP3 ADD SWAP1 POP DUP2 DUP2 SUB PUSH1 0x0 DUP4 ADD MSTORE PUSH2 0x6A30 DUP2 PUSH2 0x69F4 JUMP JUMPDEST SWAP1 POP SWAP2 SWAP1 POP JUMP JUMPDEST PUSH32 0x43616E6E6F742061646420526567697374657265642055736572000000000000 PUSH1 0x0 DUP3 ADD MSTORE POP JUMP JUMPDEST PUSH1 0x0 PUSH2 0x6A6D PUSH1 0x1A DUP4 PUSH2 0x5AD8 JUMP JUMPDEST SWAP2 POP PUSH2 0x6A78 DUP3 PUSH2 0x6A37 JUMP JUMPDEST PUSH1 0x20 DUP3 ADD SWAP1 POP SWAP2 SWAP1 POP JUMP JUMPDEST PUSH1 0x0 PUSH1 0x20 DUP3 ADD SWAP1 POP DUP2 DUP2 SUB PUSH1 0x0 DUP4 ADD MSTORE PUSH2 0x6A9C DUP2 PUSH2 0x6A60 JUMP JUMPDEST SWAP1 POP SWAP2 SWAP1 POP JUMP JUMPDEST PUSH1 0x0 PUSH2 0x6AAE DUP3 PUSH2 0x5CA2 JUMP JUMPDEST SWAP2 POP PUSH2 0x6AB9 DUP4 PUSH2 0x5CA2 JUMP JUMPDEST SWAP3 POP DUP3 DUP3 LT ISZERO PUSH2 0x6ACC JUMPI PUSH2 0x6ACB PUSH2 0x6423 JUMP JUMPDEST JUMPDEST DUP3 DUP3 SUB SWAP1 POP SWAP3 SWAP2 POP POP JUMP JUMPDEST PUSH32 0x45524332303A20617070726F76652066726F6D20746865207A65726F20616464 PUSH1 0x0 DUP3 ADD MSTORE PUSH32 0x7265737300000000000000000000000000000000000000000000000000000000 PUSH1 0x20 DUP3 ADD MSTORE POP JUMP JUMPDEST PUSH1 0x0 PUSH2 0x6B33 PUSH1 0x24 DUP4 PUSH2 0x5AD8 JUMP JUMPDEST SWAP2 POP PUSH2 0x6B3E DUP3 PUSH2 0x6AD7 JUMP JUMPDEST PUSH1 0x40 DUP3 ADD SWAP1 POP SWAP2 SWAP1 POP JUMP JUMPDEST PUSH1 0x0 PUSH1 0x20 DUP3 ADD SWAP1 POP DUP2 DUP2 SUB PUSH1 0x0 DUP4 ADD MSTORE PUSH2 0x6B62 DUP2 PUSH2 0x6B26 JUMP JUMPDEST SWAP1 POP SWAP2 SWAP1 POP JUMP JUMPDEST PUSH32 0x45524332303A20617070726F766520746F20746865207A65726F206164647265 PUSH1 0x0 DUP3 ADD MSTORE PUSH32 0x7373000000000000000000000000000000000000000000000000000000000000 PUSH1 0x20 DUP3 ADD MSTORE POP JUMP JUMPDEST PUSH1 0x0 PUSH2 0x6BC5 PUSH1 0x22 DUP4 PUSH2 0x5AD8 JUMP JUMPDEST SWAP2 POP PUSH2 0x6BD0 DUP3 PUSH2 0x6B69 JUMP JUMPDEST PUSH1 0x40 DUP3 ADD SWAP1 POP SWAP2 SWAP1 POP JUMP JUMPDEST PUSH1 0x0 PUSH1 0x20 DUP3 ADD SWAP1 POP DUP2 DUP2 SUB PUSH1 0x0 DUP4 ADD MSTORE PUSH2 0x6BF4 DUP2 PUSH2 0x6BB8 JUMP JUMPDEST SWAP1 POP SWAP2 SWAP1 POP JUMP JUMPDEST PUSH32 0x57616C6C6574206F776E6572206F6E6C79000000000000000000000000000000 PUSH1 0x0 DUP3 ADD MSTORE POP JUMP JUMPDEST PUSH1 0x0 PUSH2 0x6C31 PUSH1 0x11 DUP4 PUSH2 0x5AD8 JUMP JUMPDEST SWAP2 POP PUSH2 0x6C3C DUP3 PUSH2 0x6BFB JUMP JUMPDEST PUSH1 0x20 DUP3 ADD SWAP1 POP SWAP2 SWAP1 POP JUMP JUMPDEST PUSH1 0x0 PUSH1 0x20 DUP3 ADD SWAP1 POP DUP2 DUP2 SUB PUSH1 0x0 DUP4 ADD MSTORE PUSH2 0x6C60 DUP2 PUSH2 0x6C24 JUMP JUMPDEST SWAP1 POP SWAP2 SWAP1 POP JUMP JUMPDEST PUSH32 0x45524332303A20696E73756666696369656E7420616C6C6F77616E6365000000 PUSH1 0x0 DUP3 ADD MSTORE POP JUMP JUMPDEST PUSH1 0x0 PUSH2 0x6C9D PUSH1 0x1D DUP4 PUSH2 0x5AD8 JUMP JUMPDEST SWAP2 POP PUSH2 0x6CA8 DUP3 PUSH2 0x6C67 JUMP JUMPDEST PUSH1 0x20 DUP3 ADD SWAP1 POP SWAP2 SWAP1 POP JUMP JUMPDEST PUSH1 0x0 PUSH1 0x20 DUP3 ADD SWAP1 POP DUP2 DUP2 SUB PUSH1 0x0 DUP4 ADD MSTORE PUSH2 0x6CCC DUP2 PUSH2 0x6C90 JUMP JUMPDEST SWAP1 POP SWAP2 SWAP1 POP JUMP JUMPDEST PUSH32 0x5472616E736665722066726F6D207A65726F2061646472657373000000000000 PUSH1 0x0 DUP3 ADD MSTORE POP JUMP JUMPDEST PUSH1 0x0 PUSH2 0x6D09 PUSH1 0x1A DUP4 PUSH2 0x5AD8 JUMP JUMPDEST SWAP2 POP PUSH2 0x6D14 DUP3 PUSH2 0x6CD3 JUMP JUMPDEST PUSH1 0x20 DUP3 ADD SWAP1 POP SWAP2 SWAP1 POP JUMP JUMPDEST PUSH1 0x0 PUSH1 0x20 DUP3 ADD SWAP1 POP DUP2 DUP2 SUB PUSH1 0x0 DUP4 ADD MSTORE PUSH2 0x6D38 DUP2 PUSH2 0x6CFC JUMP JUMPDEST SWAP1 POP SWAP2 SWAP1 POP JUMP JUMPDEST PUSH32 0x5472616E7366657220746F207A65726F20616464726573730000000000000000 PUSH1 0x0 DUP3 ADD MSTORE POP JUMP JUMPDEST PUSH1 0x0 PUSH2 0x6D75 PUSH1 0x18 DUP4 PUSH2 0x5AD8 JUMP JUMPDEST SWAP2 POP PUSH2 0x6D80 DUP3 PUSH2 0x6D3F JUMP JUMPDEST PUSH1 0x20 DUP3 ADD SWAP1 POP SWAP2 SWAP1 POP JUMP JUMPDEST PUSH1 0x0 PUSH1 0x20 DUP3 ADD SWAP1 POP DUP2 DUP2 SUB PUSH1 0x0 DUP4 ADD MSTORE PUSH2 0x6DA4 DUP2 PUSH2 0x6D68 JUMP JUMPDEST SWAP1 POP SWAP2 SWAP1 POP JUMP JUMPDEST PUSH32 0x45524332303A207472616E7366657220616D6F756E7420657863656564732062 PUSH1 0x0 DUP3 ADD MSTORE PUSH32 0x616C616E63650000000000000000000000000000000000000000000000000000 PUSH1 0x20 DUP3 ADD MSTORE POP JUMP JUMPDEST PUSH1 0x0 PUSH2 0x6E07 PUSH1 0x26 DUP4 PUSH2 0x5AD8 JUMP JUMPDEST SWAP2 POP PUSH2 0x6E12 DUP3 PUSH2 0x6DAB JUMP JUMPDEST PUSH1 0x40 DUP3 ADD SWAP1 POP SWAP2 SWAP1 POP JUMP JUMPDEST PUSH1 0x0 PUSH1 0x20 DUP3 ADD SWAP1 POP DUP2 DUP2 SUB PUSH1 0x0 DUP4 ADD MSTORE PUSH2 0x6E36 DUP2 PUSH2 0x6DFA JUMP JUMPDEST SWAP1 POP SWAP2 SWAP1 POP JUMP JUMPDEST PUSH32 0x45524332303A206D696E7420746F20746865207A65726F206164647265737300 PUSH1 0x0 DUP3 ADD MSTORE POP JUMP JUMPDEST PUSH1 0x0 PUSH2 0x6E73 PUSH1 0x1F DUP4 PUSH2 0x5AD8 JUMP JUMPDEST SWAP2 POP PUSH2 0x6E7E DUP3 PUSH2 0x6E3D JUMP JUMPDEST PUSH1 0x20 DUP3 ADD SWAP1 POP SWAP2 SWAP1 POP JUMP JUMPDEST PUSH1 0x0 PUSH1 0x20 DUP3 ADD SWAP1 POP DUP2 DUP2 SUB PUSH1 0x0 DUP4 ADD MSTORE PUSH2 0x6EA2 DUP2 PUSH2 0x6E66 JUMP JUMPDEST SWAP1 POP SWAP2 SWAP1 POP JUMP JUMPDEST PUSH32 0x45524332303A206275726E2066726F6D20746865207A65726F20616464726573 PUSH1 0x0 DUP3 ADD MSTORE PUSH32 0x7300000000000000000000000000000000000000000000000000000000000000 PUSH1 0x20 DUP3 ADD MSTORE POP JUMP JUMPDEST PUSH1 0x0 PUSH2 0x6F05 PUSH1 0x21 DUP4 PUSH2 0x5AD8 JUMP JUMPDEST SWAP2 POP PUSH2 0x6F10 DUP3 PUSH2 0x6EA9 JUMP JUMPDEST PUSH1 0x40 DUP3 ADD SWAP1 POP SWAP2 SWAP1 POP JUMP JUMPDEST PUSH1 0x0 PUSH1 0x20 DUP3 ADD SWAP1 POP DUP2 DUP2 SUB PUSH1 0x0 DUP4 ADD MSTORE PUSH2 0x6F34 DUP2 PUSH2 0x6EF8 JUMP JUMPDEST SWAP1 POP SWAP2 SWAP1 POP JUMP JUMPDEST PUSH32 0x45524332303A206275726E20616D6F756E7420657863656564732062616C616E PUSH1 0x0 DUP3 ADD MSTORE PUSH32 0x6365000000000000000000000000000000000000000000000000000000000000 PUSH1 0x20 DUP3 ADD MSTORE POP JUMP JUMPDEST PUSH1 0x0 PUSH2 0x6F97 PUSH1 0x22 DUP4 PUSH2 0x5AD8 JUMP JUMPDEST SWAP2 POP PUSH2 0x6FA2 DUP3 PUSH2 0x6F3B JUMP JUMPDEST PUSH1 0x40 DUP3 ADD SWAP1 POP SWAP2 SWAP1 POP JUMP JUMPDEST PUSH1 0x0 PUSH1 0x20 DUP3 ADD SWAP1 POP DUP2 DUP2 SUB PUSH1 0x0 DUP4 ADD MSTORE PUSH2 0x6FC6 DUP2 PUSH2 0x6F8A JUMP JUMPDEST SWAP1 POP SWAP2 SWAP1 POP JUMP JUMPDEST PUSH32 0x4E6F20546F6B656E73204C656674000000000000000000000000000000000000 PUSH1 0x0 DUP3 ADD MSTORE POP JUMP JUMPDEST PUSH1 0x0 PUSH2 0x7003 PUSH1 0xE DUP4 PUSH2 0x5AD8 JUMP JUMPDEST SWAP2 POP PUSH2 0x700E DUP3 PUSH2 0x6FCD JUMP JUMPDEST PUSH1 0x20 DUP3 ADD SWAP1 POP SWAP2 SWAP1 POP JUMP JUMPDEST PUSH1 0x0 PUSH1 0x20 DUP3 ADD SWAP1 POP DUP2 DUP2 SUB PUSH1 0x0 DUP4 ADD MSTORE PUSH2 0x7032 DUP2 PUSH2 0x6FF6 JUMP JUMPDEST SWAP1 POP SWAP2 SWAP1 POP JUMP JUMPDEST PUSH32 0x4E6F20546F6B656E7320746F2052656C6561736520666F72204E6F7700000000 PUSH1 0x0 DUP3 ADD MSTORE POP JUMP JUMPDEST PUSH1 0x0 PUSH2 0x706F PUSH1 0x1C DUP4 PUSH2 0x5AD8 JUMP JUMPDEST SWAP2 POP PUSH2 0x707A DUP3 PUSH2 0x7039 JUMP JUMPDEST PUSH1 0x20 DUP3 ADD SWAP1 POP SWAP2 SWAP1 POP JUMP JUMPDEST PUSH1 0x0 PUSH1 0x20 DUP3 ADD SWAP1 POP DUP2 DUP2 SUB PUSH1 0x0 DUP4 ADD MSTORE PUSH2 0x709E DUP2 PUSH2 0x7062 JUMP JUMPDEST SWAP1 POP SWAP2 SWAP1 POP JUMP JUMPDEST PUSH32 0x55736572206E6F74205265676973746572656400000000000000000000000000 PUSH1 0x0 DUP3 ADD MSTORE POP JUMP JUMPDEST PUSH1 0x0 PUSH2 0x70DB PUSH1 0x13 DUP4 PUSH2 0x5AD8 JUMP JUMPDEST SWAP2 POP PUSH2 0x70E6 DUP3 PUSH2 0x70A5 JUMP JUMPDEST PUSH1 0x20 DUP3 ADD SWAP1 POP SWAP2 SWAP1 POP JUMP JUMPDEST PUSH1 0x0 PUSH1 0x20 DUP3 ADD SWAP1 POP DUP2 DUP2 SUB PUSH1 0x0 DUP4 ADD MSTORE PUSH2 0x710A DUP2 PUSH2 0x70CE JUMP JUMPDEST SWAP1 POP SWAP2 SWAP1 POP JUMP JUMPDEST PUSH1 0x0 PUSH2 0x711C DUP3 PUSH2 0x5CA2 JUMP JUMPDEST SWAP2 POP PUSH2 0x7127 DUP4 PUSH2 0x5CA2 JUMP JUMPDEST SWAP3 POP DUP2 PUSH32 0xFFFFFFFFFFFFFFFFFFFFFFFFFFFFFFFFFFFFFFFFFFFFFFFFFFFFFFFFFFFFFFFF DIV DUP4 GT DUP3 ISZERO ISZERO AND ISZERO PUSH2 0x7160 JUMPI PUSH2 0x715F PUSH2 0x6423 JUMP JUMPDEST JUMPDEST DUP3 DUP3 MUL SWAP1 POP SWAP3 SWAP2 POP POP JUMP JUMPDEST PUSH32 0x4E6F7468696E6720746F20636C61696D20796574000000000000000000000000 PUSH1 0x0 DUP3 ADD MSTORE POP JUMP JUMPDEST PUSH1 0x0 PUSH2 0x71A1 PUSH1 0x14 DUP4 PUSH2 0x5AD8 JUMP JUMPDEST SWAP2 POP PUSH2 0x71AC DUP3 PUSH2 0x716B JUMP JUMPDEST PUSH1 0x20 DUP3 ADD SWAP1 POP SWAP2 SWAP1 POP JUMP JUMPDEST PUSH1 0x0 PUSH1 0x20 DUP3 ADD SWAP1 POP DUP2 DUP2 SUB PUSH1 0x0 DUP4 ADD MSTORE PUSH2 0x71D0 DUP2 PUSH2 0x7194 JUMP JUMPDEST SWAP1 POP SWAP2 SWAP1 POP JUMP INVALID LOG2 PUSH5 0x6970667358 0x22 SLT KECCAK256 REVERT PUSH7 0x929FC51A8DFCB5 ADD PC 0xAD 0xED DUP13 0xCD GASLIMIT DUP1 PUSH19 0xACAE57D2FDB41A4180A48605050564736F6C63 NUMBER STOP ADDMOD SIGNEXTEND STOP CALLER PUSH1 0xA0 PUSH1 0x40 MSTORE CALLVALUE DUP1 ISZERO PUSH2 0x10 JUMPI PUSH1 0x0 DUP1 REVERT JUMPDEST POP PUSH1 0x40 MLOAD PUSH2 0xA29 CODESIZE SUB DUP1 PUSH2 0xA29 DUP4 CODECOPY DUP2 DUP2 ADD PUSH1 0x40 MSTORE DUP2 ADD SWAP1 PUSH2 0x32 SWAP2 SWAP1 PUSH2 0x14E JUMP JUMPDEST DUP2 PUSH1 0x0 DUP2 SWAP1 SSTORE POP DUP1 PUSH20 0xFFFFFFFFFFFFFFFFFFFFFFFFFFFFFFFFFFFFFFFF AND PUSH1 0x80 DUP2 PUSH20 0xFFFFFFFFFFFFFFFFFFFFFFFFFFFFFFFFFFFFFFFF AND DUP2 MSTORE POP POP CALLER PUSH1 0x1 PUSH1 0x0 PUSH2 0x100 EXP DUP2 SLOAD DUP2 PUSH20 0xFFFFFFFFFFFFFFFFFFFFFFFFFFFFFFFFFFFFFFFF MUL NOT AND SWAP1 DUP4 PUSH20 0xFFFFFFFFFFFFFFFFFFFFFFFFFFFFFFFFFFFFFFFF AND MUL OR SWAP1 SSTORE POP POP POP PUSH2 0x18E JUMP JUMPDEST PUSH1 0x0 DUP1 REVERT JUMPDEST PUSH1 0x0 DUP2 SWAP1 POP SWAP2 SWAP1 POP JUMP JUMPDEST PUSH2 0xCD DUP2 PUSH2 0xBA JUMP JUMPDEST DUP2 EQ PUSH2 0xD8 JUMPI PUSH1 0x0 DUP1 REVERT JUMPDEST POP JUMP JUMPDEST PUSH1 0x0 DUP2 MLOAD SWAP1 POP PUSH2 0xEA DUP2 PUSH2 0xC4 JUMP JUMPDEST SWAP3 SWAP2 POP POP JUMP JUMPDEST PUSH1 0x0 PUSH20 0xFFFFFFFFFFFFFFFFFFFFFFFFFFFFFFFFFFFFFFFF DUP3 AND SWAP1 POP SWAP2 SWAP1 POP JUMP JUMPDEST PUSH1 0x0 PUSH2 0x11B DUP3 PUSH2 0xF0 JUMP JUMPDEST SWAP1 POP SWAP2 SWAP1 POP JUMP JUMPDEST PUSH2 0x12B DUP2 PUSH2 0x110 JUMP JUMPDEST DUP2 EQ PUSH2 0x136 JUMPI PUSH1 0x0 DUP1 REVERT JUMPDEST POP JUMP JUMPDEST PUSH1 0x0 DUP2 MLOAD SWAP1 POP PUSH2 0x148 DUP2 PUSH2 0x122 JUMP JUMPDEST SWAP3 SWAP2 POP POP JUMP JUMPDEST PUSH1 0x0 DUP1 PUSH1 0x40 DUP4 DUP6 SUB SLT ISZERO PUSH2 0x165 JUMPI PUSH2 0x164 PUSH2 0xB5 JUMP JUMPDEST JUMPDEST PUSH1 0x0 PUSH2 0x173 DUP6 DUP3 DUP7 ADD PUSH2 0xDB JUMP JUMPDEST SWAP3 POP POP PUSH1 0x20 PUSH2 0x184 DUP6 DUP3 DUP7 ADD PUSH2 0x139 JUMP JUMPDEST SWAP2 POP POP SWAP3 POP SWAP3 SWAP1 POP JUMP JUMPDEST PUSH1 0x80 MLOAD PUSH2 0x880 PUSH2 0x1A9 PUSH1 0x0 CODECOPY PUSH1 0x0 PUSH2 0x114 ADD MSTORE PUSH2 0x880 PUSH1 0x0 RETURN INVALID PUSH1 0x80 PUSH1 0x40 MSTORE CALLVALUE DUP1 ISZERO PUSH2 0x10 JUMPI PUSH1 0x0 DUP1 REVERT JUMPDEST POP PUSH1 0x4 CALLDATASIZE LT PUSH2 0x4C JUMPI PUSH1 0x0 CALLDATALOAD PUSH1 0xE0 SHR DUP1 PUSH4 0xA95606E EQ PUSH2 0x51 JUMPI DUP1 PUSH4 0x38AF3EED EQ PUSH2 0x81 JUMPI DUP1 PUSH4 0xB580AA9E EQ PUSH2 0x9F JUMPI DUP1 PUSH4 0xC8CCA41E EQ PUSH2 0xBD JUMPI JUMPDEST PUSH1 0x0 DUP1 REVERT JUMPDEST PUSH2 0x6B PUSH1 0x4 DUP1 CALLDATASIZE SUB DUP2 ADD SWAP1 PUSH2 0x66 SWAP2 SWAP1 PUSH2 0x496 JUMP JUMPDEST PUSH2 0xC7 JUMP JUMPDEST PUSH1 0x40 MLOAD PUSH2 0x78 SWAP2 SWAP1 PUSH2 0x4D3 JUMP JUMPDEST PUSH1 0x40 MLOAD DUP1 SWAP2 SUB SWAP1 RETURN JUMPDEST PUSH2 0x89 PUSH2 0x112 JUMP JUMPDEST PUSH1 0x40 MLOAD PUSH2 0x96 SWAP2 SWAP1 PUSH2 0x52F JUMP JUMPDEST PUSH1 0x40 MLOAD DUP1 SWAP2 SUB SWAP1 RETURN JUMPDEST PUSH2 0xA7 PUSH2 0x136 JUMP JUMPDEST PUSH1 0x40 MLOAD PUSH2 0xB4 SWAP2 SWAP1 PUSH2 0x4D3 JUMP JUMPDEST PUSH1 0x40 MLOAD DUP1 SWAP2 SUB SWAP1 RETURN JUMPDEST PUSH2 0xC5 PUSH2 0x13C JUMP JUMPDEST STOP JUMPDEST PUSH1 0x0 PUSH2 0xD1 PUSH2 0x14D JUMP JUMPDEST PUSH1 0x0 PUSH2 0xDC DUP4 PUSH2 0x1DF JUMP JUMPDEST SWAP1 POP PUSH2 0x103 PUSH1 0x0 SLOAD DUP3 PUSH1 0x40 MLOAD DUP1 PUSH1 0x60 ADD PUSH1 0x40 MSTORE DUP1 PUSH1 0x36 DUP2 MSTORE PUSH1 0x20 ADD PUSH2 0x815 PUSH1 0x36 SWAP2 CODECOPY PUSH2 0x2A8 JUMP JUMPDEST PUSH1 0x0 DUP2 SWAP1 SSTORE POP DUP1 SWAP2 POP POP SWAP2 SWAP1 POP JUMP JUMPDEST PUSH32 0x0 DUP2 JUMP JUMPDEST PUSH1 0x2 SLOAD DUP2 JUMP JUMPDEST PUSH2 0x144 PUSH2 0x14D JUMP JUMPDEST TIMESTAMP PUSH1 0x2 DUP2 SWAP1 SSTORE POP JUMP JUMPDEST PUSH1 0x1 PUSH1 0x0 SWAP1 SLOAD SWAP1 PUSH2 0x100 EXP SWAP1 DIV PUSH20 0xFFFFFFFFFFFFFFFFFFFFFFFFFFFFFFFFFFFFFFFF AND PUSH20 0xFFFFFFFFFFFFFFFFFFFFFFFFFFFFFFFFFFFFFFFF AND CALLER PUSH20 0xFFFFFFFFFFFFFFFFFFFFFFFFFFFFFFFFFFFFFFFF AND EQ PUSH2 0x1DD JUMPI PUSH1 0x40 MLOAD PUSH32 0x8C379A000000000000000000000000000000000000000000000000000000000 DUP2 MSTORE PUSH1 0x4 ADD PUSH2 0x1D4 SWAP1 PUSH2 0x5A7 JUMP JUMPDEST PUSH1 0x40 MLOAD DUP1 SWAP2 SUB SWAP1 REVERT JUMPDEST JUMP JUMPDEST PUSH1 0x0 DUP1 PUSH3 0x278D00 PUSH1 0x2 SLOAD TIMESTAMP PUSH2 0x1F4 SWAP2 SWAP1 PUSH2 0x5F6 JUMP JUMPDEST PUSH2 0x1FE SWAP2 SWAP1 PUSH2 0x659 JUMP JUMPDEST SWAP1 POP PUSH1 0x0 DUP1 PUSH1 0x3 SLOAD SWAP1 POP JUMPDEST PUSH1 0x33 DUP2 GT PUSH2 0x246 JUMPI DUP5 DUP2 PUSH1 0x33 DUP2 LT PUSH2 0x224 JUMPI PUSH2 0x223 PUSH2 0x68A JUMP JUMPDEST JUMPDEST PUSH1 0x20 MUL ADD MLOAD DUP3 PUSH2 0x234 SWAP2 SWAP1 PUSH2 0x6B9 JUMP JUMPDEST SWAP2 POP PUSH2 0x23F DUP2 PUSH2 0x2FD JUMP JUMPDEST SWAP1 POP PUSH2 0x209 JUMP JUMPDEST POP PUSH1 0x1 DUP3 PUSH2 0x254 SWAP2 SWAP1 PUSH2 0x6B9 JUMP JUMPDEST PUSH1 0x3 DUP2 SWAP1 SSTORE POP PUSH1 0x0 DUP2 EQ ISZERO PUSH2 0x29E JUMPI PUSH1 0x40 MLOAD PUSH32 0x8C379A000000000000000000000000000000000000000000000000000000000 DUP2 MSTORE PUSH1 0x4 ADD PUSH2 0x295 SWAP1 PUSH2 0x75B JUMP JUMPDEST PUSH1 0x40 MLOAD DUP1 SWAP2 SUB SWAP1 REVERT JUMPDEST DUP1 SWAP3 POP POP POP SWAP2 SWAP1 POP JUMP JUMPDEST PUSH1 0x0 DUP4 DUP4 GT ISZERO DUP3 SWAP1 PUSH2 0x2F0 JUMPI PUSH1 0x40 MLOAD PUSH32 0x8C379A000000000000000000000000000000000000000000000000000000000 DUP2 MSTORE PUSH1 0x4 ADD PUSH2 0x2E7 SWAP2 SWAP1 PUSH2 0x7F2 JUMP JUMPDEST PUSH1 0x40 MLOAD DUP1 SWAP2 SUB SWAP1 REVERT JUMPDEST POP DUP3 DUP5 SUB SWAP1 POP SWAP4 SWAP3 POP POP POP JUMP JUMPDEST PUSH1 0x0 PUSH1 0x1 DUP3 ADD SWAP1 POP SWAP2 SWAP1 POP JUMP JUMPDEST PUSH1 0x0 PUSH1 0x40 MLOAD SWAP1 POP SWAP1 JUMP JUMPDEST PUSH1 0x0 DUP1 REVERT JUMPDEST PUSH1 0x0 DUP1 REVERT JUMPDEST PUSH1 0x0 PUSH1 0x1F NOT PUSH1 0x1F DUP4 ADD AND SWAP1 POP SWAP2 SWAP1 POP JUMP JUMPDEST PUSH32 0x4E487B7100000000000000000000000000000000000000000000000000000000 PUSH1 0x0 MSTORE PUSH1 0x41 PUSH1 0x4 MSTORE PUSH1 0x24 PUSH1 0x0 REVERT JUMPDEST PUSH2 0x367 DUP3 PUSH2 0x31E JUMP JUMPDEST DUP2 ADD DUP2 DUP2 LT PUSH8 0xFFFFFFFFFFFFFFFF DUP3 GT OR ISZERO PUSH2 0x386 JUMPI PUSH2 0x385 PUSH2 0x32F JUMP JUMPDEST JUMPDEST DUP1 PUSH1 0x40 MSTORE POP POP POP JUMP JUMPDEST PUSH1 0x0 PUSH2 0x399 PUSH2 0x30A JUMP JUMPDEST SWAP1 POP PUSH2 0x3A5 DUP3 DUP3 PUSH2 0x35E JUMP JUMPDEST SWAP2 SWAP1 POP JUMP JUMPDEST PUSH1 0x0 PUSH8 0xFFFFFFFFFFFFFFFF DUP3 GT ISZERO PUSH2 0x3C5 JUMPI PUSH2 0x3C4 PUSH2 0x32F JUMP JUMPDEST JUMPDEST PUSH1 0x20 DUP3 MUL SWAP1 POP SWAP2 SWAP1 POP JUMP JUMPDEST PUSH1 0x0 DUP1 REVERT JUMPDEST PUSH1 0x0 DUP2 SWAP1 POP SWAP2 SWAP1 POP JUMP JUMPDEST PUSH2 0x3E8 DUP2 PUSH2 0x3D5 JUMP JUMPDEST DUP2 EQ PUSH2 0x3F3 JUMPI PUSH1 0x0 DUP1 REVERT JUMPDEST POP JUMP JUMPDEST PUSH1 0x0 DUP2 CALLDATALOAD SWAP1 POP PUSH2 0x405 DUP2 PUSH2 0x3DF JUMP JUMPDEST SWAP3 SWAP2 POP POP JUMP JUMPDEST PUSH1 0x0 PUSH2 0x41E PUSH2 0x419 DUP5 PUSH2 0x3AA JUMP JUMPDEST PUSH2 0x38F JUMP JUMPDEST SWAP1 POP DUP1 PUSH1 0x20 DUP5 MUL DUP4 ADD DUP6 DUP2 GT ISZERO PUSH2 0x438 JUMPI PUSH2 0x437 PUSH2 0x3D0 JUMP JUMPDEST JUMPDEST DUP4 JUMPDEST DUP2 DUP2 LT ISZERO PUSH2 0x461 JUMPI DUP1 PUSH2 0x44D DUP9 DUP3 PUSH2 0x3F6 JUMP JUMPDEST DUP5 MSTORE PUSH1 0x20 DUP5 ADD SWAP4 POP POP PUSH1 0x20 DUP2 ADD SWAP1 POP PUSH2 0x43A JUMP JUMPDEST POP POP POP SWAP4 SWAP3 POP POP POP JUMP JUMPDEST PUSH1 0x0 DUP3 PUSH1 0x1F DUP4 ADD SLT PUSH2 0x480 JUMPI PUSH2 0x47F PUSH2 0x319 JUMP JUMPDEST JUMPDEST PUSH1 0x33 PUSH2 0x48D DUP5 DUP3 DUP6 PUSH2 0x40B JUMP JUMPDEST SWAP2 POP POP SWAP3 SWAP2 POP POP JUMP JUMPDEST PUSH1 0x0 PUSH2 0x660 DUP3 DUP5 SUB SLT ISZERO PUSH2 0x4AD JUMPI PUSH2 0x4AC PUSH2 0x314 JUMP JUMPDEST JUMPDEST PUSH1 0x0 PUSH2 0x4BB DUP5 DUP3 DUP6 ADD PUSH2 0x46B JUMP JUMPDEST SWAP2 POP POP SWAP3 SWAP2 POP POP JUMP JUMPDEST PUSH2 0x4CD DUP2 PUSH2 0x3D5 JUMP JUMPDEST DUP3 MSTORE POP POP JUMP JUMPDEST PUSH1 0x0 PUSH1 0x20 DUP3 ADD SWAP1 POP PUSH2 0x4E8 PUSH1 0x0 DUP4 ADD DUP5 PUSH2 0x4C4 JUMP JUMPDEST SWAP3 SWAP2 POP POP JUMP JUMPDEST PUSH1 0x0 PUSH20 0xFFFFFFFFFFFFFFFFFFFFFFFFFFFFFFFFFFFFFFFF DUP3 AND SWAP1 POP SWAP2 SWAP1 POP JUMP JUMPDEST PUSH1 0x0 PUSH2 0x519 DUP3 PUSH2 0x4EE JUMP JUMPDEST SWAP1 POP SWAP2 SWAP1 POP JUMP JUMPDEST PUSH2 0x529 DUP2 PUSH2 0x50E JUMP JUMPDEST DUP3 MSTORE POP POP JUMP JUMPDEST PUSH1 0x0 PUSH1 0x20 DUP3 ADD SWAP1 POP PUSH2 0x544 PUSH1 0x0 DUP4 ADD DUP5 PUSH2 0x520 JUMP JUMPDEST SWAP3 SWAP2 POP POP JUMP JUMPDEST PUSH1 0x0 DUP3 DUP3 MSTORE PUSH1 0x20 DUP3 ADD SWAP1 POP SWAP3 SWAP2 POP POP JUMP JUMPDEST PUSH32 0x4E6F74205F6F776E657200000000000000000000000000000000000000000000 PUSH1 0x0 DUP3 ADD MSTORE POP JUMP JUMPDEST PUSH1 0x0 PUSH2 0x591 PUSH1 0xA DUP4 PUSH2 0x54A JUMP JUMPDEST SWAP2 POP PUSH2 0x59C DUP3 PUSH2 0x55B JUMP JUMPDEST PUSH1 0x20 DUP3 ADD SWAP1 POP SWAP2 SWAP1 POP JUMP JUMPDEST PUSH1 0x0 PUSH1 0x20 DUP3 ADD SWAP1 POP DUP2 DUP2 SUB PUSH1 0x0 DUP4 ADD MSTORE PUSH2 0x5C0 DUP2 PUSH2 0x584 JUMP JUMPDEST SWAP1 POP SWAP2 SWAP1 POP JUMP JUMPDEST PUSH32 0x4E487B7100000000000000000000000000000000000000000000000000000000 PUSH1 0x0 MSTORE PUSH1 0x11 PUSH1 0x4 MSTORE PUSH1 0x24 PUSH1 0x0 REVERT JUMPDEST PUSH1 0x0 PUSH2 0x601 DUP3 PUSH2 0x3D5 JUMP JUMPDEST SWAP2 POP PUSH2 0x60C DUP4 PUSH2 0x3D5 JUMP JUMPDEST SWAP3 POP DUP3 DUP3 LT ISZERO PUSH2 0x61F JUMPI PUSH2 0x61E PUSH2 0x5C7 JUMP JUMPDEST JUMPDEST DUP3 DUP3 SUB SWAP1 POP SWAP3 SWAP2 POP POP JUMP JUMPDEST PUSH32 0x4E487B7100000000000000000000000000000000000000000000000000000000 PUSH1 0x0 MSTORE PUSH1 0x12 PUSH1 0x4 MSTORE PUSH1 0x24 PUSH1 0x0 REVERT JUMPDEST PUSH1 0x0 PUSH2 0x664 DUP3 PUSH2 0x3D5 JUMP JUMPDEST SWAP2 POP PUSH2 0x66F DUP4 PUSH2 0x3D5 JUMP JUMPDEST SWAP3 POP DUP3 PUSH2 0x67F JUMPI PUSH2 0x67E PUSH2 0x62A JUMP JUMPDEST JUMPDEST DUP3 DUP3 DIV SWAP1 POP SWAP3 SWAP2 POP POP JUMP JUMPDEST PUSH32 0x4E487B7100000000000000000000000000000000000000000000000000000000 PUSH1 0x0 MSTORE PUSH1 0x32 PUSH1 0x4 MSTORE PUSH1 0x24 PUSH1 0x0 REVERT JUMPDEST PUSH1 0x0 PUSH2 0x6C4 DUP3 PUSH2 0x3D5 JUMP JUMPDEST SWAP2 POP PUSH2 0x6CF DUP4 PUSH2 0x3D5 JUMP JUMPDEST SWAP3 POP DUP3 PUSH32 0xFFFFFFFFFFFFFFFFFFFFFFFFFFFFFFFFFFFFFFFFFFFFFFFFFFFFFFFFFFFFFFFF SUB DUP3 GT ISZERO PUSH2 0x704 JUMPI PUSH2 0x703 PUSH2 0x5C7 JUMP JUMPDEST JUMPDEST DUP3 DUP3 ADD SWAP1 POP SWAP3 SWAP2 POP POP JUMP JUMPDEST PUSH32 0x4E6F7468696E6720746F20636C61696D20796574000000000000000000000000 PUSH1 0x0 DUP3 ADD MSTORE POP JUMP JUMPDEST PUSH1 0x0 PUSH2 0x745 PUSH1 0x14 DUP4 PUSH2 0x54A JUMP JUMPDEST SWAP2 POP PUSH2 0x750 DUP3 PUSH2 0x70F JUMP JUMPDEST PUSH1 0x20 DUP3 ADD SWAP1 POP SWAP2 SWAP1 POP JUMP JUMPDEST PUSH1 0x0 PUSH1 0x20 DUP3 ADD SWAP1 POP DUP2 DUP2 SUB PUSH1 0x0 DUP4 ADD MSTORE PUSH2 0x774 DUP2 PUSH2 0x738 JUMP JUMPDEST SWAP1 POP SWAP2 SWAP1 POP JUMP JUMPDEST PUSH1 0x0 DUP2 MLOAD SWAP1 POP SWAP2 SWAP1 POP JUMP JUMPDEST PUSH1 0x0 JUMPDEST DUP4 DUP2 LT ISZERO PUSH2 0x7A4 JUMPI DUP1 DUP3 ADD MLOAD DUP2 DUP5 ADD MSTORE PUSH1 0x20 DUP2 ADD SWAP1 POP PUSH2 0x789 JUMP JUMPDEST DUP4 DUP2 GT ISZERO PUSH2 0x7B3 JUMPI PUSH1 0x0 DUP5 DUP5 ADD MSTORE JUMPDEST POP POP POP POP JUMP JUMPDEST PUSH1 0x0 PUSH2 0x7C4 DUP3 PUSH2 0x77B JUMP JUMPDEST PUSH2 0x7CE DUP2 DUP6 PUSH2 0x54A JUMP JUMPDEST SWAP4 POP PUSH2 0x7DE DUP2 DUP6 PUSH1 0x20 DUP7 ADD PUSH2 0x786 JUMP JUMPDEST PUSH2 0x7E7 DUP2 PUSH2 0x31E JUMP JUMPDEST DUP5 ADD SWAP2 POP POP SWAP3 SWAP2 POP POP JUMP JUMPDEST PUSH1 0x0 PUSH1 0x20 DUP3 ADD SWAP1 POP DUP2 DUP2 SUB PUSH1 0x0 DUP4 ADD MSTORE PUSH2 0x80C DUP2 DUP5 PUSH2 0x7B9 JUMP JUMPDEST SWAP1 POP SWAP3 SWAP2 POP POP JUMP INVALID 0x4C PUSH16 0x636B61626C653A2043616E6E6F742073 PUSH22 0x6273747261637420746F74616C20616D6F756E742077 PUSH10 0x746820636C61696D6162 PUSH13 0x65A264697066735822122099D0 SWAP5 PUSH32 0xB3B8BDCC567494FE2A69F56D771AC5DE3B15DC263B2BBCFAFFE328D664736F6C PUSH4 0x4300080B STOP CALLER "},"methodIdentifiers":{"addMultipleBeneficiary((address,uint256)[])":"078f522f","allowance(address,address)":"dd62ed3e","approve(address,uint256)":"095ea7b3","balanceOf(address)":"70a08231","burn(uint256)":"42966c68","burnFrom(address,uint256)":"79cc6790","burnLiquidityReserve(uint256)":"8b7c64da","changePrivatePlacementAddress(address)":"a25a17a7","changeStrategicPartnerAddress(address,address,address)":"45df0238","changeTaxFee(uint8)":"471a30a2","claimPrivateSale()":"7c2412f9","daoProjectPool()":"bad4346c","decimals()":"313ce567","decreaseAllowance(address,uint256)":"a457c2d7","deleteMultipleBeneficiary(address[])":"a1f780cf","hasMultilockable()":"19ca147d","increaseAllowance(address,uint256)":"39509351","initializationStatus()":"b8dd0099","initiateLockedWallet_PrivateSale_Airdrop()":"ac67574f","mint(address,uint256)":"40c10f19","mintLiquidityReserve(uint256)":"d94d4ad6","name()":"06fdde03","owner()":"8da5cb5b","privateSaleAmount()":"8b2b423a","privateSaleUsers()":"549dee0b","private_placement_address()":"a837a65e","renounceOwnership()":"715018a6","startPrivateSale()":"338dbf59","strategic_partner_address_1()":"c680111c","strategic_partner_address_2()":"a3626dbb","strategic_partner_address_3()":"d9dc2d8d","symbol()":"95d89b41","taxFee()":"a071dcf4","timelockController()":"f3388e75","totalSupply()":"18160ddd","transfer(address,uint256)":"a9059cbb","transferFrom(address,address,uint256)":"23b872dd","transferOwnership(address)":"f2fde38b","unlockMarketingWallet_1()":"78dc9315","unlockMarketingWallet_2()":"7bb4e320","unlockMarketingWallet_3()":"0ec5aa1a","unlockPrivatePlacementWallet()":"934851ec","unlockStrategicPartnerWallet_1()":"8378a875","unlockStrategicPartnerWallet_2()":"15441bb9","unlockStrategicPartnerWallet_3()":"883d9984","unlockTeamAndProjectCoordinatorWallet_1()":"56029137","unlockTeamAndProjectCoordinatorWallet_2()":"90a4c709","unlockTeamAndProjectCoordinatorWallet_3()":"3f3ef2dc"}}}}}