{
  "_format": "hh-sol-artifact-1",
  "contractName": "NFTMarketplace",
  "sourceName": "contracts/ERC721/Marketplace.sol",
  "abi": [
    {
      "inputs": [
        {
          "internalType": "address",
          "name": "_token",
          "type": "address"
        }
      ],
      "stateMutability": "nonpayable",
      "type": "constructor"
    },
    {
      "inputs": [
        {
          "internalType": "address",
          "name": "nftAddress",
          "type": "address"
        },
        {
          "internalType": "uint256",
          "name": "tokenId",
          "type": "uint256"
        }
      ],
      "name": "AlreadyListed",
      "type": "error"
    },
    {
      "inputs": [
        {
          "internalType": "address",
          "name": "nftAddress",
          "type": "address"
        },
        {
          "internalType": "uint256",
          "name": "tokenId",
          "type": "uint256"
        }
      ],
      "name": "BidAlreadyAccepted",
      "type": "error"
    },
    {
      "inputs": [],
      "name": "IsNotOwner",
      "type": "error"
    },
    {
      "inputs": [],
      "name": "NotApprovedForMarketplace",
      "type": "error"
    },
    {
      "inputs": [
        {
          "internalType": "address",
          "name": "nftAddress",
          "type": "address"
        },
        {
          "internalType": "uint256",
          "name": "tokenId",
          "type": "uint256"
        }
      ],
      "name": "NotListed",
      "type": "error"
    },
    {
      "inputs": [],
      "name": "NotOwner",
      "type": "error"
    },
    {
      "inputs": [],
      "name": "PriceMustBeAboveZero",
      "type": "error"
    },
    {
      "inputs": [],
      "name": "PriceMustBeGreater",
      "type": "error"
    },
    {
      "anonymous": false,
      "inputs": [
        {
          "indexed": false,
          "internalType": "address",
          "name": "seller",
          "type": "address"
        },
        {
          "indexed": true,
          "internalType": "address",
          "name": "buyer",
          "type": "address"
        },
        {
          "indexed": true,
          "internalType": "address",
          "name": "nftAddress",
          "type": "address"
        },
        {
          "indexed": true,
          "internalType": "uint256",
          "name": "tokenId",
          "type": "uint256"
        },
        {
          "indexed": false,
          "internalType": "uint256",
          "name": "price",
          "type": "uint256"
        }
      ],
      "name": "BidAccepted",
      "type": "event"
    },
    {
      "anonymous": false,
      "inputs": [
        {
          "indexed": true,
          "internalType": "address",
          "name": "buyer",
          "type": "address"
        },
        {
          "indexed": true,
          "internalType": "address",
          "name": "nftAddress",
          "type": "address"
        },
        {
          "indexed": true,
          "internalType": "uint256",
          "name": "tokenId",
          "type": "uint256"
        }
      ],
      "name": "BidCancelled",
      "type": "event"
    },
    {
      "anonymous": false,
      "inputs": [
        {
          "indexed": true,
          "internalType": "address",
          "name": "buyer",
          "type": "address"
        },
        {
          "indexed": true,
          "internalType": "address",
          "name": "nftAddress",
          "type": "address"
        },
        {
          "indexed": true,
          "internalType": "uint256",
          "name": "tokenId",
          "type": "uint256"
        },
        {
          "indexed": false,
          "internalType": "uint256",
          "name": "offeringPrice",
          "type": "uint256"
        }
      ],
      "name": "BidCreated",
      "type": "event"
    },
    {
      "anonymous": false,
      "inputs": [
        {
          "indexed": true,
          "internalType": "address",
          "name": "buyer",
          "type": "address"
        },
        {
          "indexed": true,
          "internalType": "address",
          "name": "nftAddress",
          "type": "address"
        },
        {
          "indexed": true,
          "internalType": "uint256",
          "name": "tokenId",
          "type": "uint256"
        },
        {
          "indexed": false,
          "internalType": "uint256",
          "name": "price",
          "type": "uint256"
        }
      ],
      "name": "ItemBought",
      "type": "event"
    },
    {
      "anonymous": false,
      "inputs": [
        {
          "indexed": true,
          "internalType": "address",
          "name": "seller",
          "type": "address"
        },
        {
          "indexed": true,
          "internalType": "address",
          "name": "nftAddress",
          "type": "address"
        },
        {
          "indexed": true,
          "internalType": "uint256",
          "name": "tokenId",
          "type": "uint256"
        }
      ],
      "name": "ItemCanceled",
      "type": "event"
    },
    {
      "anonymous": false,
      "inputs": [
        {
          "indexed": true,
          "internalType": "address",
          "name": "seller",
          "type": "address"
        },
        {
          "indexed": true,
          "internalType": "address",
          "name": "nftAddress",
          "type": "address"
        },
        {
          "indexed": true,
          "internalType": "uint256",
          "name": "tokenId",
          "type": "uint256"
        },
        {
          "indexed": false,
          "internalType": "uint256",
          "name": "price",
          "type": "uint256"
        },
        {
          "indexed": false,
          "internalType": "uint256",
          "name": "endDate",
          "type": "uint256"
        }
      ],
      "name": "ItemListed",
      "type": "event"
    },
    {
      "inputs": [
        {
          "internalType": "address",
          "name": "nftAddress",
          "type": "address"
        },
        {
          "internalType": "uint256",
          "name": "tokenId",
          "type": "uint256"
        }
      ],
      "name": "acceptBid",
      "outputs": [],
      "stateMutability": "nonpayable",
      "type": "function"
    },
    {
      "inputs": [
        {
          "internalType": "address",
          "name": "nftAddress",
          "type": "address"
        },
        {
          "internalType": "uint256",
          "name": "tokenId",
          "type": "uint256"
        }
      ],
      "name": "buyItem",
      "outputs": [],
      "stateMutability": "payable",
      "type": "function"
    },
    {
      "inputs": [
        {
          "internalType": "address",
          "name": "nftAddress",
          "type": "address"
        },
        {
          "internalType": "uint256",
          "name": "tokenId",
          "type": "uint256"
        }
      ],
      "name": "cancelListing",
      "outputs": [],
      "stateMutability": "nonpayable",
      "type": "function"
    },
    {
      "inputs": [
        {
          "internalType": "address",
          "name": "nftAddress",
          "type": "address"
        },
        {
          "internalType": "uint256",
          "name": "tokenId",
          "type": "uint256"
        },
        {
          "internalType": "uint256",
          "name": "price",
          "type": "uint256"
        }
      ],
      "name": "createBid",
      "outputs": [],
      "stateMutability": "payable",
      "type": "function"
    },
    {
      "inputs": [
        {
          "internalType": "address",
          "name": "nftAddress",
          "type": "address"
        },
        {
          "internalType": "uint256",
          "name": "tokenId",
          "type": "uint256"
        }
      ],
      "name": "getListing",
      "outputs": [
        {
          "components": [
            {
              "internalType": "uint256",
              "name": "price",
              "type": "uint256"
            },
            {
              "internalType": "address",
              "name": "seller",
              "type": "address"
            },
            {
              "internalType": "uint256",
              "name": "endDate",
              "type": "uint256"
            },
            {
              "internalType": "bool",
              "name": "bidAccepted",
              "type": "bool"
            },
            {
              "components": [
                {
                  "internalType": "uint256",
                  "name": "price",
                  "type": "uint256"
                },
                {
                  "internalType": "address",
                  "name": "buyer",
                  "type": "address"
                }
              ],
              "internalType": "struct NFTMarketplace.Bid",
              "name": "s_bid",
              "type": "tuple"
            }
          ],
          "internalType": "struct NFTMarketplace.Listing",
          "name": "",
          "type": "tuple"
        }
      ],
      "stateMutability": "view",
      "type": "function"
    },
    {
      "inputs": [
        {
          "internalType": "address",
          "name": "nftAddress",
          "type": "address"
        },
        {
          "internalType": "uint256",
          "name": "tokenId",
          "type": "uint256"
        },
        {
          "internalType": "uint256",
          "name": "price",
          "type": "uint256"
        },
        {
          "internalType": "uint256",
          "name": "duration",
          "type": "uint256"
        }
      ],
      "name": "listItem",
      "outputs": [],
      "stateMutability": "nonpayable",
      "type": "function"
    },
    {
      "inputs": [
        {
          "internalType": "address",
          "name": "nftAddress",
          "type": "address"
        },
        {
          "internalType": "uint256",
          "name": "tokenId",
          "type": "uint256"
        },
        {
          "internalType": "uint256",
          "name": "newPrice",
          "type": "uint256"
        },
        {
          "internalType": "uint256",
          "name": "additionalDuration",
          "type": "uint256"
        }
      ],
      "name": "updateListing",
      "outputs": [],
      "stateMutability": "nonpayable",
      "type": "function"
    }
  ],
  "bytecode": "0x608060405234801561001057600080fd5b50604051611b2c380380611b2c83398101604081905261002f91610059565b6001600081905580546001600160a01b0319166001600160a01b0392909216919091179055610089565b60006020828403121561006b57600080fd5b81516001600160a01b038116811461008257600080fd5b9392505050565b611a94806100986000396000f3fe6080604052600436106100705760003560e01c8063b2ddee061161004e578063b2ddee061461012a578063bcb143ef1461014a578063d99647571461016a578063fba133d91461018a57600080fd5b806388700d1c14610075578063955a5a76146100f55780639f37092a14610117575b600080fd5b34801561008157600080fd5b506100956100903660046118c2565b61019d565b6040516100ec9190815181526020808301516001600160a01b03908116828401526040808501519084015260608085015115159084015260809384015180519484019490945292015190911660a082015260c00190565b60405180910390f35b34801561010157600080fd5b506101156101103660046118c2565b610252565b005b6101156101253660046118c2565b6105ab565b34801561013657600080fd5b506101156101453660046118c2565b6109c4565b34801561015657600080fd5b506101156101653660046118ee565b610bfb565b34801561017657600080fd5b506101156101853660046118ee565b610ffe565b610115610198366004611929565b611290565b6101db6040805160a0810182526000808252602080830182905282840182905260608301829052835180850190945281845283015290608082015290565b506001600160a01b03918216600090815260026020818152604080842094845293815291839020835160a0810185528154815260018201548616818501529181015482850152600381015460ff16151560608301528351808501909452600481015484526005015490931690820152608082015290565b61025a611534565b6040516331a9108f60e11b81526004810182905282908290339083906000906001600160a01b03831690636352211e90602401602060405180830381865afa1580156102aa573d6000803e3d6000fd5b505050506040513d601f19601f820116820180604052508101906102ce919061195e565b9050806001600160a01b0316836001600160a01b031614610302576040516330cd747160e01b815260040160405180910390fd5b600060026000896001600160a01b03166001600160a01b0316815260200190815260200160002060008881526020019081526020016000206040518060a0016040529081600082015481526020016001820160009054906101000a90046001600160a01b03166001600160a01b03166001600160a01b03168152602001600282015481526020016003820160009054906101000a900460ff1615151515815260200160048201604051806040016040529081600082015481526020016001820160009054906101000a90046001600160a01b03166001600160a01b03166001600160a01b0316815250508152505090506000816080015190506001826060019015159081151581525050600260008a6001600160a01b03166001600160a01b0316815260200190815260200160002060008981526020019081526020016000206000808201600090556001820160006101000a8154906001600160a01b03021916905560028201600090556003820160006101000a81549060ff0219169055600482016000808201600090556001820160006101000a8154906001600160a01b030219169055505050506104d5600160009054906101000a90046001600160a01b0316826020015133846000015161158e565b6020820151604051632142170760e11b81526001600160a01b039182166004820152336024820152604481018a9052908a16906342842e0e90606401600060405180830381600087803b15801561052b57600080fd5b505af115801561053f573d6000803e3d6000fd5b5050506020808401518451604080516001600160a01b039384168152938401919091528b9350908c169133917f10cf2353a23abaa7825ad5a4f48f572c50b130143fbd86f6e5f0c46f13dcedb4910160405180910390a4505050505050506105a76001600055565b5050565b6001600160a01b038083166000908152600260208181526040808420868552825292839020835160a0810185528154815260018201548616818401529281015483850152600381015460ff16151560608401528351808501909452600481015484526005015490931692820192909252608082015280518391839161065a57604051631a0c522360e21b81526001600160a01b0384166004820152602481018390526044015b60405180910390fd5b428160400151101561069157604051631a0c522360e21b81526001600160a01b038416600482015260248101839052604401610651565b6040516331a9108f60e11b81526004810185905285908590339083906000906001600160a01b03831690636352211e90602401602060405180830381865afa1580156106e1573d6000803e3d6000fd5b505050506040513d601f19601f82011682018060405250810190610705919061195e565b9050806001600160a01b0316836001600160a01b0316141561073a576040516365b023fd60e01b815260040160405180910390fd5b610742611534565b6000600260008c6001600160a01b03166001600160a01b0316815260200190815260200160002060008b81526020019081526020016000206040518060a0016040529081600082015481526020016001820160009054906101000a90046001600160a01b03166001600160a01b03166001600160a01b03168152602001600282015481526020016003820160009054906101000a900460ff1615151515815260200160048201604051806040016040529081600082015481526020016001820160009054906101000a90046001600160a01b03166001600160a01b03166001600160a01b031681525050815250509050600260008c6001600160a01b03166001600160a01b0316815260200190815260200160002060008b81526020019081526020016000206000808201600090556001820160006101000a8154906001600160a01b03021916905560028201600090556003820160006101000a81549060ff0219169055600482016000808201600090556001820160006101000a8154906001600160a01b030219169055505050506108fb600160009054906101000a90046001600160a01b0316338360200151846000015161158e565b6020810151604051632142170760e11b81526001600160a01b039182166004820152336024820152604481018c9052908c16906342842e0e90606401600060405180830381600087803b15801561095157600080fd5b505af1158015610965573d6000803e3d6000fd5b505082516040519081528c92506001600160a01b038e16915033907f263223b1dd81e51054a4e6f791d45a4a1ddb4aadcd93a2dfd892615c3fdac1879060200160405180910390a4506109b86001600055565b50505050505050505050565b6040516331a9108f60e11b81526004810182905282908290339083906000906001600160a01b03831690636352211e90602401602060405180830381865afa158015610a14573d6000803e3d6000fd5b505050506040513d601f19601f82011682018060405250810190610a38919061195e565b9050806001600160a01b0316836001600160a01b031614610a6c576040516330cd747160e01b815260040160405180910390fd5b6001600160a01b0380881660009081526002602081815260408084208b8552825292839020835160a0810185528154815260018201548616818401529281015483850152600381015460ff161515606084015283518085019094526004810154845260050154909316928201929092526080820152805188918891610b1657604051631a0c522360e21b81526001600160a01b038416600482015260248101839052604401610651565b4281604001511015610b4d57604051631a0c522360e21b81526001600160a01b038416600482015260248101839052604401610651565b6001600160a01b038a1660008181526002602081815260408084208e85529091528083208381556001810180547fffffffffffffffffffffffff000000000000000000000000000000000000000090811690915592810184905560038101805460ff19169055600481018490556005018054909216909155518b929133917f9ba1a3cb55ce8d63d072a886f94d2a744f50cddf82128e897d0661f5ec6231589190a450505050505050505050565b6001600160a01b038085166000908152600260208181526040808420888552825292839020835160a0810185528154815260018201548616818401529281015483850152600381015460ff16151560608401528351808501909452600481015484526005015490931692820192909252608082015280518591859115610ca657604051634a5568d560e01b81526001600160a01b038416600482015260248101839052604401610651565b604081015115610cdb57604051634a5568d560e01b81526001600160a01b038416600482015260248101839052604401610651565b6040516331a9108f60e11b81526004810187905287908790339083906000906001600160a01b03831690636352211e90602401602060405180830381865afa158015610d2b573d6000803e3d6000fd5b505050506040513d601f19601f82011682018060405250810190610d4f919061195e565b9050806001600160a01b0316836001600160a01b031614610d83576040516330cd747160e01b815260040160405180910390fd5b89610da15760405163e1abbfc560e01b815260040160405180910390fd5b6040517f081812fc000000000000000000000000000000000000000000000000000000008152600481018c90528c9030906001600160a01b0383169063081812fc90602401602060405180830381865afa158015610e03573d6000803e3d6000fd5b505050506040513d601f19601f82011682018060405250810190610e27919061195e565b6001600160a01b031614610e67576040517f4be3a2c500000000000000000000000000000000000000000000000000000000815260040160405180910390fd5b6040805160a0810182528c8152336020820152908101610e878c42611982565b815260200160001515815260200160405180604001604052806000815260200160006001600160a01b0316815250815250600260008f6001600160a01b03166001600160a01b0316815260200190815260200160002060008e81526020019081526020016000206000820151816000015560208201518160010160006101000a8154816001600160a01b0302191690836001600160a01b031602179055506040820151816002015560608201518160030160006101000a81548160ff0219169083151502179055506080820151816004016000820151816000015560208201518160010160006101000a8154816001600160a01b0302191690836001600160a01b0316021790555050509050508b8d6001600160a01b0316336001600160a01b03167f91623fbd639d8d503fe2e77aab334b032313685f1b28c84d838c4b647b1f5d9d8e8e42610fd79190611982565b6040805192835260208301919091520160405180910390a450505050505050505050505050565b6001600160a01b038085166000908152600260208181526040808420888552825292839020835160a0810185528154815260018201548616818401529281015483850152600381015460ff1615156060840152835180850190945260048101548452600501549093169282019290925260808201528051859185916110a857604051631a0c522360e21b81526001600160a01b038416600482015260248101839052604401610651565b42816040015110156110df57604051631a0c522360e21b81526001600160a01b038416600482015260248101839052604401610651565b6110e7611534565b6040516331a9108f60e11b81526004810187905287908790339083906000906001600160a01b03831690636352211e90602401602060405180830381865afa158015611137573d6000803e3d6000fd5b505050506040513d601f19601f8201168201806040525081019061115b919061195e565b9050806001600160a01b0316836001600160a01b03161461118f576040516330cd747160e01b815260040160405180910390fd5b896111ad5760405163e1abbfc560e01b815260040160405180910390fd5b6001600160a01b038c1660009081526002602081815260408084208f855290915282208c815501546111e0908b90611982565b905080600260008f6001600160a01b03166001600160a01b0316815260200190815260200160002060008e8152602001908152602001600020600201819055508b8d6001600160a01b0316336001600160a01b03167f91623fbd639d8d503fe2e77aab334b032313685f1b28c84d838c4b647b1f5d9d8e8560405161126f929190918252602082015260400190565b60405180910390a45050505050506112876001600055565b50505050505050565b6001600160a01b038084166000908152600260208181526040808420878552825292839020835160a0810185528154815260018201548616818401529281015483850152600381015460ff1615156060840190815284518086019095526004820154855260059091015490941690830152608081019190915290518491849115611358576040517f0642e4120000000000000000000000000000000000000000000000000000000081526001600160a01b038416600482015260248101839052604401610651565b6040516331a9108f60e11b81526004810186905286908690339083906000906001600160a01b03831690636352211e90602401602060405180830381865afa1580156113a8573d6000803e3d6000fd5b505050506040513d601f19601f820116820180604052508101906113cc919061195e565b9050806001600160a01b0316836001600160a01b03161415611401576040516365b023fd60e01b815260040160405180910390fd5b611409611534565b6001600160a01b03808c1660009081526002602081815260408084208f8552825292839020835160a0810185528154815260018201548616818401529281015483850152600381015460ff1615156060840152835180850190945260048101548452600501549093169282019290925260808201819052518a10156114ba576040517f0ea5d9f800000000000000000000000000000000000000000000000000000000815260040160405180910390fd5b6040805180820182528b81523360208201819052608084019190915290518c916001600160a01b038f16917ff844ec9dabd7bd88d75bc0f6668731f14e03c7263851488fc7884a3bf27899a690611514908f815260200190565b60405180910390a4506115276001600055565b5050505050505050505050565b600260005414156115875760405162461bcd60e51b815260206004820152601f60248201527f5265656e7472616e637947756172643a207265656e7472616e742063616c6c006044820152606401610651565b6002600055565b604080516001600160a01b0385811660248301528416604482015260648082018490528251808303909101815260849091019091526020810180517bffffffffffffffffffffffffffffffffffffffffffffffffffffffff167f23b872dd0000000000000000000000000000000000000000000000000000000017905261161690859061161c565b50505050565b6000611671826040518060400160405280602081526020017f5361666545524332303a206c6f772d6c6576656c2063616c6c206661696c6564815250856001600160a01b03166117069092919063ffffffff16565b805190915015611701578080602001905181019061168f91906119c1565b6117015760405162461bcd60e51b815260206004820152602a60248201527f5361666545524332303a204552433230206f7065726174696f6e20646964206e60448201527f6f742073756363656564000000000000000000000000000000000000000000006064820152608401610651565b505050565b6060611715848460008561171d565b949350505050565b6060824710156117955760405162461bcd60e51b815260206004820152602660248201527f416464726573733a20696e73756666696369656e742062616c616e636520666f60448201527f722063616c6c00000000000000000000000000000000000000000000000000006064820152608401610651565b600080866001600160a01b031685876040516117b19190611a0f565b60006040518083038185875af1925050503d80600081146117ee576040519150601f19603f3d011682016040523d82523d6000602084013e6117f3565b606091505b50915091506118048783838761180f565b979650505050505050565b6060831561187b578251611874576001600160a01b0385163b6118745760405162461bcd60e51b815260206004820152601d60248201527f416464726573733a2063616c6c20746f206e6f6e2d636f6e74726163740000006044820152606401610651565b5081611715565b61171583838151156118905781518083602001fd5b8060405162461bcd60e51b81526004016106519190611a2b565b6001600160a01b03811681146118bf57600080fd5b50565b600080604083850312156118d557600080fd5b82356118e0816118aa565b946020939093013593505050565b6000806000806080858703121561190457600080fd5b843561190f816118aa565b966020860135965060408601359560600135945092505050565b60008060006060848603121561193e57600080fd5b8335611949816118aa565b95602085013595506040909401359392505050565b60006020828403121561197057600080fd5b815161197b816118aa565b9392505050565b600082198211156119bc577f4e487b7100000000000000000000000000000000000000000000000000000000600052601160045260246000fd5b500190565b6000602082840312156119d357600080fd5b8151801515811461197b57600080fd5b60005b838110156119fe5781810151838201526020016119e6565b838111156116165750506000910152565b60008251611a218184602087016119e3565b9190910192915050565b6020815260008251806020840152611a4a8160408501602087016119e3565b601f01601f1916919091016040019291505056fea2646970667358221220dcfdf74b7987708daa9655c8225753d8935aa3b8ff91b2328ed4c8f906f762b464736f6c634300080b0033",
  "linkReferences": {},
  "deployedLinkReferences": {}
}