{
  "_format": "hh-sol-artifact-1",
  "contractName": "NFTMarketplace",
  "sourceName": "contracts/ERC721/Marketplace.sol",
  "abi": [
    {
      "inputs": [
        {
          "internalType": "address",
          "name": "_token",
          "type": "address"
        }
      ],
      "stateMutability": "nonpayable",
      "type": "constructor"
    },
    {
      "inputs": [
        {
          "internalType": "address",
          "name": "nftAddress",
          "type": "address"
        },
        {
          "internalType": "uint256",
          "name": "tokenId",
          "type": "uint256"
        }
      ],
      "name": "AlreadyListed",
      "type": "error"
    },
    {
      "inputs": [
        {
          "internalType": "address",
          "name": "nftAddress",
          "type": "address"
        },
        {
          "internalType": "uint256",
          "name": "tokenId",
          "type": "uint256"
        }
      ],
      "name": "BidAlreadyAccepted",
      "type": "error"
    },
    {
      "inputs": [],
      "name": "IsNotOwner",
      "type": "error"
    },
    {
      "inputs": [],
      "name": "NotApprovedForMarketplace",
      "type": "error"
    },
    {
      "inputs": [
        {
          "internalType": "address",
          "name": "nftAddress",
          "type": "address"
        },
        {
          "internalType": "uint256",
          "name": "tokenId",
          "type": "uint256"
        }
      ],
      "name": "NotListed",
      "type": "error"
    },
    {
      "inputs": [],
      "name": "NotOwner",
      "type": "error"
    },
    {
      "inputs": [],
      "name": "PriceMustBeAboveZero",
      "type": "error"
    },
    {
      "inputs": [],
      "name": "PriceMustBeGreater",
      "type": "error"
    },
    {
      "anonymous": false,
      "inputs": [
        {
          "indexed": false,
          "internalType": "address",
          "name": "seller",
          "type": "address"
        },
        {
          "indexed": true,
          "internalType": "address",
          "name": "buyer",
          "type": "address"
        },
        {
          "indexed": true,
          "internalType": "address",
          "name": "nftAddress",
          "type": "address"
        },
        {
          "indexed": true,
          "internalType": "uint256",
          "name": "tokenId",
          "type": "uint256"
        },
        {
          "indexed": false,
          "internalType": "uint256",
          "name": "price",
          "type": "uint256"
        }
      ],
      "name": "BidAccepted",
      "type": "event"
    },
    {
      "anonymous": false,
      "inputs": [
        {
          "indexed": true,
          "internalType": "address",
          "name": "buyer",
          "type": "address"
        },
        {
          "indexed": true,
          "internalType": "address",
          "name": "nftAddress",
          "type": "address"
        },
        {
          "indexed": true,
          "internalType": "uint256",
          "name": "tokenId",
          "type": "uint256"
        }
      ],
      "name": "BidCancelled",
      "type": "event"
    },
    {
      "anonymous": false,
      "inputs": [
        {
          "indexed": true,
          "internalType": "address",
          "name": "buyer",
          "type": "address"
        },
        {
          "indexed": true,
          "internalType": "address",
          "name": "nftAddress",
          "type": "address"
        },
        {
          "indexed": true,
          "internalType": "uint256",
          "name": "tokenId",
          "type": "uint256"
        },
        {
          "indexed": false,
          "internalType": "uint256",
          "name": "offeringPrice",
          "type": "uint256"
        }
      ],
      "name": "BidCreated",
      "type": "event"
    },
    {
      "anonymous": false,
      "inputs": [
        {
          "indexed": true,
          "internalType": "address",
          "name": "buyer",
          "type": "address"
        },
        {
          "indexed": true,
          "internalType": "address",
          "name": "nftAddress",
          "type": "address"
        },
        {
          "indexed": true,
          "internalType": "uint256",
          "name": "tokenId",
          "type": "uint256"
        },
        {
          "indexed": false,
          "internalType": "uint256",
          "name": "price",
          "type": "uint256"
        }
      ],
      "name": "ItemBought",
      "type": "event"
    },
    {
      "anonymous": false,
      "inputs": [
        {
          "indexed": true,
          "internalType": "address",
          "name": "seller",
          "type": "address"
        },
        {
          "indexed": true,
          "internalType": "address",
          "name": "nftAddress",
          "type": "address"
        },
        {
          "indexed": true,
          "internalType": "uint256",
          "name": "tokenId",
          "type": "uint256"
        }
      ],
      "name": "ItemCanceled",
      "type": "event"
    },
    {
      "anonymous": false,
      "inputs": [
        {
          "indexed": true,
          "internalType": "address",
          "name": "seller",
          "type": "address"
        },
        {
          "indexed": true,
          "internalType": "address",
          "name": "nftAddress",
          "type": "address"
        },
        {
          "indexed": true,
          "internalType": "uint256",
          "name": "tokenId",
          "type": "uint256"
        },
        {
          "indexed": false,
          "internalType": "uint256",
          "name": "price",
          "type": "uint256"
        },
        {
          "indexed": false,
          "internalType": "uint256",
          "name": "endDate",
          "type": "uint256"
        }
      ],
      "name": "ItemListed",
      "type": "event"
    },
    {
      "inputs": [
        {
          "internalType": "address",
          "name": "nftAddress",
          "type": "address"
        },
        {
          "internalType": "uint256",
          "name": "tokenId",
          "type": "uint256"
        }
      ],
      "name": "acceptBid",
      "outputs": [],
      "stateMutability": "nonpayable",
      "type": "function"
    },
    {
      "inputs": [
        {
          "internalType": "address",
          "name": "nftAddress",
          "type": "address"
        },
        {
          "internalType": "uint256",
          "name": "tokenId",
          "type": "uint256"
        }
      ],
      "name": "buyItem",
      "outputs": [],
      "stateMutability": "payable",
      "type": "function"
    },
    {
      "inputs": [
        {
          "internalType": "address",
          "name": "nftAddress",
          "type": "address"
        },
        {
          "internalType": "uint256",
          "name": "tokenId",
          "type": "uint256"
        }
      ],
      "name": "cancelListing",
      "outputs": [],
      "stateMutability": "nonpayable",
      "type": "function"
    },
    {
      "inputs": [
        {
          "internalType": "address",
          "name": "nftAddress",
          "type": "address"
        },
        {
          "internalType": "uint256",
          "name": "tokenId",
          "type": "uint256"
        },
        {
          "internalType": "uint256",
          "name": "price",
          "type": "uint256"
        }
      ],
      "name": "createBid",
      "outputs": [],
      "stateMutability": "payable",
      "type": "function"
    },
    {
      "inputs": [
        {
          "internalType": "address",
          "name": "nftAddress",
          "type": "address"
        },
        {
          "internalType": "uint256",
          "name": "tokenId",
          "type": "uint256"
        }
      ],
      "name": "getListing",
      "outputs": [
        {
          "components": [
            {
              "internalType": "uint256",
              "name": "price",
              "type": "uint256"
            },
            {
              "internalType": "address",
              "name": "seller",
              "type": "address"
            },
            {
              "internalType": "uint256",
              "name": "endDate",
              "type": "uint256"
            },
            {
              "internalType": "bool",
              "name": "bidAccepted",
              "type": "bool"
            },
            {
              "components": [
                {
                  "internalType": "uint256",
                  "name": "price",
                  "type": "uint256"
                },
                {
                  "internalType": "address",
                  "name": "buyer",
                  "type": "address"
                }
              ],
              "internalType": "struct NFTMarketplace.Bid",
              "name": "s_bid",
              "type": "tuple"
            }
          ],
          "internalType": "struct NFTMarketplace.Listing",
          "name": "",
          "type": "tuple"
        }
      ],
      "stateMutability": "view",
      "type": "function"
    },
    {
      "inputs": [
        {
          "internalType": "address",
          "name": "nftAddress",
          "type": "address"
        },
        {
          "internalType": "uint256",
          "name": "tokenId",
          "type": "uint256"
        },
        {
          "internalType": "uint256",
          "name": "price",
          "type": "uint256"
        },
        {
          "internalType": "uint256",
          "name": "duration",
          "type": "uint256"
        }
      ],
      "name": "listItem",
      "outputs": [],
      "stateMutability": "nonpayable",
      "type": "function"
    },
    {
      "inputs": [
        {
          "internalType": "address",
          "name": "nftAddress",
          "type": "address"
        },
        {
          "internalType": "uint256",
          "name": "tokenId",
          "type": "uint256"
        },
        {
          "internalType": "uint256",
          "name": "newPrice",
          "type": "uint256"
        },
        {
          "internalType": "uint256",
          "name": "additionalDuration",
          "type": "uint256"
        }
      ],
      "name": "updateListing",
      "outputs": [],
      "stateMutability": "nonpayable",
      "type": "function"
    }
  ],
  "bytecode": "0x608060405234801561001057600080fd5b506040516119e13803806119e183398101604081905261002f91610059565b6001600081905580546001600160a01b0319166001600160a01b0392909216919091179055610089565b60006020828403121561006b57600080fd5b81516001600160a01b038116811461008257600080fd5b9392505050565b611949806100986000396000f3fe6080604052600436106100705760003560e01c8063b2ddee061161004e578063b2ddee061461012a578063bcb143ef1461014a578063d99647571461016a578063fba133d91461018a57600080fd5b806388700d1c14610075578063955a5a76146100f55780639f37092a14610117575b600080fd5b34801561008157600080fd5b50610095610090366004611777565b61019d565b6040516100ec9190815181526020808301516001600160a01b03908116828401526040808501519084015260608085015115159084015260809384015180519484019490945292015190911660a082015260c00190565b60405180910390f35b34801561010157600080fd5b50610115610110366004611777565b610252565b005b610115610125366004611777565b6105ae565b34801561013657600080fd5b50610115610145366004611777565b6109af565b34801561015657600080fd5b506101156101653660046117a3565b610bb2565b34801561017657600080fd5b506101156101853660046117a3565b610f67565b6101156101983660046117de565b6111dd565b6101db6040805160a0810182526000808252602080830182905282840182905260608301829052835180850190945281845283015290608082015290565b506001600160a01b03918216600090815260026020818152604080842094845293815291839020835160a0810185528154815260018201548616818501529181015482850152600381015460ff16151560608301528351808501909452600481015484526005015490931690820152608082015290565b61025a611441565b6040516331a9108f60e11b81526004810182905282908290339083906000906001600160a01b03831690636352211e90602401602060405180830381865afa1580156102aa573d6000803e3d6000fd5b505050506040513d601f19601f820116820180604052508101906102ce9190611813565b9050806001600160a01b0316836001600160a01b031614610302576040516330cd747160e01b815260040160405180910390fd5b600060026000896001600160a01b03166001600160a01b0316815260200190815260200160002060008881526020019081526020016000206040518060a0016040529081600082015481526020016001820160009054906101000a90046001600160a01b03166001600160a01b03166001600160a01b03168152602001600282015481526020016003820160009054906101000a900460ff1615151515815260200160048201604051806040016040529081600082015481526020016001820160009054906101000a90046001600160a01b03166001600160a01b03166001600160a01b0316815250508152505090506000816080015190506001826060019015159081151581525050600260008a6001600160a01b03166001600160a01b0316815260200190815260200160002060008981526020019081526020016000206000808201600090556001820160006101000a8154906001600160a01b03021916905560028201600090556003820160006101000a81549060ff0219169055600482016000808201600090556001820160006101000a8154906001600160a01b030219169055505050506104d5600160009054906101000a90046001600160a01b0316826020015133846000015161149b565b6020820151604051632142170760e11b81526001600160a01b039182166004820152336024820152604481018a9052908a16906342842e0e90606401600060405180830381600087803b15801561052b57600080fd5b505af115801561053f573d6000803e3d6000fd5b5050505087896001600160a01b0316336001600160a01b03167f10cf2353a23abaa7825ad5a4f48f572c50b130143fbd86f6e5f0c46f13dcedb485602001518660000151604051610591929190611837565b60405180910390a4505050505050506105aa6001600055565b5050565b6001600160a01b038083166000908152600260208181526040808420868552825292839020835160a0810185528154815260018201548616818401529281015483850152600381015460ff161515606084015283518085019094526004810154845260050154909316928201929092526080820152805183918391610653578282604051631a0c522360e21b815260040161064a929190611837565b60405180910390fd5b428160400151101561067c578282604051631a0c522360e21b815260040161064a929190611837565b6040516331a9108f60e11b81526004810185905285908590339083906000906001600160a01b03831690636352211e90602401602060405180830381865afa1580156106cc573d6000803e3d6000fd5b505050506040513d601f19601f820116820180604052508101906106f09190611813565b9050806001600160a01b0316836001600160a01b03161415610725576040516365b023fd60e01b815260040160405180910390fd5b61072d611441565b6000600260008c6001600160a01b03166001600160a01b0316815260200190815260200160002060008b81526020019081526020016000206040518060a0016040529081600082015481526020016001820160009054906101000a90046001600160a01b03166001600160a01b03166001600160a01b03168152602001600282015481526020016003820160009054906101000a900460ff1615151515815260200160048201604051806040016040529081600082015481526020016001820160009054906101000a90046001600160a01b03166001600160a01b03166001600160a01b031681525050815250509050600260008c6001600160a01b03166001600160a01b0316815260200190815260200160002060008b81526020019081526020016000206000808201600090556001820160006101000a8154906001600160a01b03021916905560028201600090556003820160006101000a81549060ff0219169055600482016000808201600090556001820160006101000a8154906001600160a01b030219169055505050506108e6600160009054906101000a90046001600160a01b0316338360200151846000015161149b565b6020810151604051632142170760e11b81526001600160a01b039182166004820152336024820152604481018c9052908c16906342842e0e90606401600060405180830381600087803b15801561093c57600080fd5b505af1158015610950573d6000803e3d6000fd5b505082516040519081528c92506001600160a01b038e16915033907f263223b1dd81e51054a4e6f791d45a4a1ddb4aadcd93a2dfd892615c3fdac1879060200160405180910390a4506109a36001600055565b50505050505050505050565b6040516331a9108f60e11b81526004810182905282908290339083906000906001600160a01b03831690636352211e90602401602060405180830381865afa1580156109ff573d6000803e3d6000fd5b505050506040513d601f19601f82011682018060405250810190610a239190611813565b9050806001600160a01b0316836001600160a01b031614610a57576040516330cd747160e01b815260040160405180910390fd5b6001600160a01b0380881660009081526002602081815260408084208b8552825292839020835160a0810185528154815260018201548616818401529281015483850152600381015460ff161515606084015283518085019094526004810154845260050154909316928201929092526080820152805188918891610af3578282604051631a0c522360e21b815260040161064a929190611837565b4281604001511015610b1c578282604051631a0c522360e21b815260040161064a929190611837565b6001600160a01b038a1660008181526002602081815260408084208e85529091528083208381556001810180546001600160a01b031990811690915592810184905560038101805460ff19169055600481018490556005018054909216909155518b929133917f9ba1a3cb55ce8d63d072a886f94d2a744f50cddf82128e897d0661f5ec6231589190a450505050505050505050565b6001600160a01b038085166000908152600260208181526040808420888552825292839020835160a0810185528154815260018201548616818401529281015483850152600381015460ff16151560608401528351808501909452600481015484526005015490931692820192909252608082015280518591859115610c4f578282604051634a5568d560e01b815260040161064a929190611837565b604081015115610c76578282604051634a5568d560e01b815260040161064a929190611837565b6040516331a9108f60e11b81526004810187905287908790339083906000906001600160a01b03831690636352211e90602401602060405180830381865afa158015610cc6573d6000803e3d6000fd5b505050506040513d601f19601f82011682018060405250810190610cea9190611813565b9050806001600160a01b0316836001600160a01b031614610d1e576040516330cd747160e01b815260040160405180910390fd5b89610d3c5760405163e1abbfc560e01b815260040160405180910390fd5b60405163020604bf60e21b8152600481018c90528c9030906001600160a01b0383169063081812fc90602401602060405180830381865afa158015610d85573d6000803e3d6000fd5b505050506040513d601f19601f82011682018060405250810190610da99190611813565b6001600160a01b031614610dd057604051634be3a2c560e01b815260040160405180910390fd5b6040805160a0810182528c8152336020820152908101610df08c42611850565b815260200160001515815260200160405180604001604052806000815260200160006001600160a01b0316815250815250600260008f6001600160a01b03166001600160a01b0316815260200190815260200160002060008e81526020019081526020016000206000820151816000015560208201518160010160006101000a8154816001600160a01b0302191690836001600160a01b031602179055506040820151816002015560608201518160030160006101000a81548160ff0219169083151502179055506080820151816004016000820151816000015560208201518160010160006101000a8154816001600160a01b0302191690836001600160a01b0316021790555050509050508b8d6001600160a01b0316336001600160a01b03167f91623fbd639d8d503fe2e77aab334b032313685f1b28c84d838c4b647b1f5d9d8e8e42610f409190611850565b6040805192835260208301919091520160405180910390a450505050505050505050505050565b6001600160a01b038085166000908152600260208181526040808420888552825292839020835160a0810185528154815260018201548616818401529281015483850152600381015460ff161515606084015283518085019094526004810154845260050154909316928201929092526080820152805185918591611003578282604051631a0c522360e21b815260040161064a929190611837565b428160400151101561102c578282604051631a0c522360e21b815260040161064a929190611837565b611034611441565b6040516331a9108f60e11b81526004810187905287908790339083906000906001600160a01b03831690636352211e90602401602060405180830381865afa158015611084573d6000803e3d6000fd5b505050506040513d601f19601f820116820180604052508101906110a89190611813565b9050806001600160a01b0316836001600160a01b0316146110dc576040516330cd747160e01b815260040160405180910390fd5b896110fa5760405163e1abbfc560e01b815260040160405180910390fd5b6001600160a01b038c1660009081526002602081815260408084208f855290915282208c8155015461112d908b90611850565b905080600260008f6001600160a01b03166001600160a01b0316815260200190815260200160002060008e8152602001908152602001600020600201819055508b8d6001600160a01b0316336001600160a01b03167f91623fbd639d8d503fe2e77aab334b032313685f1b28c84d838c4b647b1f5d9d8e856040516111bc929190918252602082015260400190565b60405180910390a45050505050506111d46001600055565b50505050505050565b6001600160a01b038084166000908152600260208181526040808420878552825292839020835160a0810185528154815260018201548616818401529281015483850152600381015460ff161515606084019081528451808601909552600482015485526005909101549094169083015260808101919091529051849184911561127e578282604051630321720960e11b815260040161064a929190611837565b6040516331a9108f60e11b81526004810186905286908690339083906000906001600160a01b03831690636352211e90602401602060405180830381865afa1580156112ce573d6000803e3d6000fd5b505050506040513d601f19601f820116820180604052508101906112f29190611813565b9050806001600160a01b0316836001600160a01b03161415611327576040516365b023fd60e01b815260040160405180910390fd5b61132f611441565b6001600160a01b03808c1660009081526002602081815260408084208f8552825292839020835160a0810185528154815260018201548616818401529281015483850152600381015460ff1615156060840152835180850190945260048101548452600501549093169282019290925260808201819052518a10156113c7576040516301d4bb3f60e31b815260040160405180910390fd5b6040805180820182528b81523360208201819052608084019190915290518c916001600160a01b038f16917ff844ec9dabd7bd88d75bc0f6668731f14e03c7263851488fc7884a3bf27899a690611421908f815260200190565b60405180910390a4506114346001600055565b5050505050505050505050565b600260005414156114945760405162461bcd60e51b815260206004820152601f60248201527f5265656e7472616e637947756172643a207265656e7472616e742063616c6c00604482015260640161064a565b6002600055565b604080516001600160a01b0385811660248301528416604482015260648082018490528251808303909101815260849091019091526020810180516001600160e01b03166323b872dd60e01b1790526114f59085906114fb565b50505050565b6000611550826040518060400160405280602081526020017f5361666545524332303a206c6f772d6c6576656c2063616c6c206661696c6564815250856001600160a01b03166115d29092919063ffffffff16565b8051909150156115cd578080602001905181019061156e9190611876565b6115cd5760405162461bcd60e51b815260206004820152602a60248201527f5361666545524332303a204552433230206f7065726174696f6e20646964206e6044820152691bdd081cdd58d8d9595960b21b606482015260840161064a565b505050565b60606115e184846000856115e9565b949350505050565b60608247101561164a5760405162461bcd60e51b815260206004820152602660248201527f416464726573733a20696e73756666696369656e742062616c616e636520666f6044820152651c8818d85b1b60d21b606482015260840161064a565b600080866001600160a01b0316858760405161166691906118c4565b60006040518083038185875af1925050503d80600081146116a3576040519150601f19603f3d011682016040523d82523d6000602084013e6116a8565b606091505b50915091506116b9878383876116c4565b979650505050505050565b60608315611730578251611729576001600160a01b0385163b6117295760405162461bcd60e51b815260206004820152601d60248201527f416464726573733a2063616c6c20746f206e6f6e2d636f6e7472616374000000604482015260640161064a565b50816115e1565b6115e183838151156117455781518083602001fd5b8060405162461bcd60e51b815260040161064a91906118e0565b6001600160a01b038116811461177457600080fd5b50565b6000806040838503121561178a57600080fd5b82356117958161175f565b946020939093013593505050565b600080600080608085870312156117b957600080fd5b84356117c48161175f565b966020860135965060408601359560600135945092505050565b6000806000606084860312156117f357600080fd5b83356117fe8161175f565b95602085013595506040909401359392505050565b60006020828403121561182557600080fd5b81516118308161175f565b9392505050565b6001600160a01b03929092168252602082015260400190565b6000821982111561187157634e487b7160e01b600052601160045260246000fd5b500190565b60006020828403121561188857600080fd5b8151801515811461183057600080fd5b60005b838110156118b357818101518382015260200161189b565b838111156114f55750506000910152565b600082516118d6818460208701611898565b9190910192915050565b60208152600082518060208401526118ff816040850160208701611898565b601f01601f1916919091016040019291505056fea26469706673582212207ab7305c2254c0af131b3b6594b02c22350c49950ab9ef3bc6beee27bf7760b664736f6c634300080b0033",
  "linkReferences": {},
  "deployedLinkReferences": {}
}