{
  "_format": "hh-sol-artifact-1",
  "contractName": "Talaxlockable",
  "sourceName": "contracts/Talaxlockable.sol",
  "abi": [
    {
      "inputs": [],
      "stateMutability": "nonpayable",
      "type": "constructor"
    },
    {
      "inputs": [],
      "name": "devPoolLockedWallet_1",
      "outputs": [
        {
          "internalType": "contract Lockable",
          "name": "",
          "type": "address"
        }
      ],
      "stateMutability": "view",
      "type": "function"
    },
    {
      "inputs": [],
      "name": "devPoolLockedWallet_2",
      "outputs": [
        {
          "internalType": "contract Lockable",
          "name": "",
          "type": "address"
        }
      ],
      "stateMutability": "view",
      "type": "function"
    },
    {
      "inputs": [],
      "name": "devPoolLockedWallet_3",
      "outputs": [
        {
          "internalType": "contract Lockable",
          "name": "",
          "type": "address"
        }
      ],
      "stateMutability": "view",
      "type": "function"
    },
    {
      "inputs": [],
      "name": "privatePlacementLockedWallet",
      "outputs": [
        {
          "internalType": "contract Lockable",
          "name": "",
          "type": "address"
        }
      ],
      "stateMutability": "view",
      "type": "function"
    },
    {
      "inputs": [],
      "name": "strategicPartnerLockedWallet_1",
      "outputs": [
        {
          "internalType": "contract Lockable",
          "name": "",
          "type": "address"
        }
      ],
      "stateMutability": "view",
      "type": "function"
    },
    {
      "inputs": [],
      "name": "strategicPartnerLockedWallet_2",
      "outputs": [
        {
          "internalType": "contract Lockable",
          "name": "",
          "type": "address"
        }
      ],
      "stateMutability": "view",
      "type": "function"
    },
    {
      "inputs": [],
      "name": "strategicPartnerLockedWallet_3",
      "outputs": [
        {
          "internalType": "contract Lockable",
          "name": "",
          "type": "address"
        }
      ],
      "stateMutability": "view",
      "type": "function"
    },
    {
      "inputs": [],
      "name": "teamAndProjectCoordinatorLockedWallet_1",
      "outputs": [
        {
          "internalType": "contract Lockable",
          "name": "",
          "type": "address"
        }
      ],
      "stateMutability": "view",
      "type": "function"
    },
    {
      "inputs": [],
      "name": "teamAndProjectCoordinatorLockedWallet_2",
      "outputs": [
        {
          "internalType": "contract Lockable",
          "name": "",
          "type": "address"
        }
      ],
      "stateMutability": "view",
      "type": "function"
    },
    {
      "inputs": [],
      "name": "teamAndProjectCoordinatorLockedWallet_3",
      "outputs": [
        {
          "internalType": "contract Lockable",
          "name": "",
          "type": "address"
        }
      ],
      "stateMutability": "view",
      "type": "function"
    }
  ],
  "bytecode": "0x6080604052604051806106e001604052806200003161aaba670de0b6b3a764000062001af160201b6200034b1760201c565b81526020016200005761aaba670de0b6b3a764000062001af160201b6200034b1760201c565b81526020016200007d61aaba670de0b6b3a764000062001af160201b6200034b1760201c565b8152602001620000a361aaba670de0b6b3a764000062001af160201b6200034b1760201c565b8152602001620000c961aaba670de0b6b3a764000062001af160201b6200034b1760201c565b8152602001620000ef61aaba670de0b6b3a764000062001af160201b6200034b1760201c565b81526020016200011561aaba670de0b6b3a764000062001af160201b6200034b1760201c565b81526020016200013b61aaba670de0b6b3a764000062001af160201b6200034b1760201c565b81526020016200016161aaba670de0b6b3a764000062001af160201b6200034b1760201c565b81526020016200018761aaba670de0b6b3a764000062001af160201b6200034b1760201c565b8152602001620001ad61aaba670de0b6b3a764000062001af160201b6200034b1760201c565b8152602001620001d361aaba670de0b6b3a764000062001af160201b6200034b1760201c565b8152602001620001f961aaba670de0b6b3a764000062001af160201b6200034b1760201c565b81526020016200021f61aaba670de0b6b3a764000062001af160201b6200034b1760201c565b81526020016200024561aaba670de0b6b3a764000062001af160201b6200034b1760201c565b81526020016200026b61aaba670de0b6b3a764000062001af160201b6200034b1760201c565b815260200162000292620800bb670de0b6b3a764000062001af160201b6200034b1760201c565b8152602001620002b9620800bb670de0b6b3a764000062001af160201b6200034b1760201c565b8152602001620002e0620800bb670de0b6b3a764000062001af160201b6200034b1760201c565b815260200162000307620800bb670de0b6b3a764000062001af160201b6200034b1760201c565b81526020016200032e620800bb670de0b6b3a764000062001af160201b6200034b1760201c565b815260200162000355620800bb670de0b6b3a764000062001af160201b6200034b1760201c565b81526020016200037c620800bb670de0b6b3a764000062001af160201b6200034b1760201c565b8152602001620003a3620800bb670de0b6b3a764000062001af160201b6200034b1760201c565b8152602001620003ca620800bb670de0b6b3a764000062001af160201b6200034b1760201c565b8152602001620003f1620800bb670de0b6b3a764000062001af160201b6200034b1760201c565b815260200162000418620800bb670de0b6b3a764000062001af160201b6200034b1760201c565b81526020016200043f620800bb670de0b6b3a764000062001af160201b6200034b1760201c565b815260200160008152602001600081526020016000815260200160008152602001600081526020016000815260200160008152602001600081526020016000815260200160008152602001600081526020016000815260200160008152602001600081526020016000815260200160008152602001600081526020016000815260200160008152602001600081526020016000815260200160008152602001600081526020016000815260200160008152602001600081526020016000815250600c9060376200051192919062001b75565b50604051806106e0016040528060008152602001600081526020016000815260200160008152602001600081526020016000815260200160008152602001600081526020016200057862025a3f670de0b6b3a764000062001af160201b6200034b1760201c565b81526020016200059f62025a3f670de0b6b3a764000062001af160201b6200034b1760201c565b8152602001620005c662025a3f670de0b6b3a764000062001af160201b6200034b1760201c565b8152602001620005ed62025a3f670de0b6b3a764000062001af160201b6200034b1760201c565b81526020016200061462025a3f670de0b6b3a764000062001af160201b6200034b1760201c565b81526020016200063b62025a3f670de0b6b3a764000062001af160201b6200034b1760201c565b81526020016200066262025a3f670de0b6b3a764000062001af160201b6200034b1760201c565b81526020016200068962025a3f670de0b6b3a764000062001af160201b6200034b1760201c565b8152602001620006b06209eed1670de0b6b3a764000062001af160201b6200034b1760201c565b8152602001620006d76209eed1670de0b6b3a764000062001af160201b6200034b1760201c565b8152602001620006fe6209eed1670de0b6b3a764000062001af160201b6200034b1760201c565b8152602001620007256209eed1670de0b6b3a764000062001af160201b6200034b1760201c565b81526020016200074c6209eed1670de0b6b3a764000062001af160201b6200034b1760201c565b8152602001620007736209eed1670de0b6b3a764000062001af160201b6200034b1760201c565b81526020016200079a6209eed1670de0b6b3a764000062001af160201b6200034b1760201c565b8152602001620007c16209eed1670de0b6b3a764000062001af160201b6200034b1760201c565b8152602001620007e86209eed1670de0b6b3a764000062001af160201b6200034b1760201c565b81526020016200080f6209eed1670de0b6b3a764000062001af160201b6200034b1760201c565b8152602001620008366209eed1670de0b6b3a764000062001af160201b6200034b1760201c565b81526020016200085d6209eed1670de0b6b3a764000062001af160201b6200034b1760201c565b8152602001620008846209eed1670de0b6b3a764000062001af160201b6200034b1760201c565b8152602001620008ab6209eed1670de0b6b3a764000062001af160201b6200034b1760201c565b8152602001620008d26209eed1670de0b6b3a764000062001af160201b6200034b1760201c565b8152602001620008f96209eed1670de0b6b3a764000062001af160201b6200034b1760201c565b8152602001620009206209eed1670de0b6b3a764000062001af160201b6200034b1760201c565b8152602001620009476209eed1670de0b6b3a764000062001af160201b6200034b1760201c565b81526020016200096e6209eed1670de0b6b3a764000062001af160201b6200034b1760201c565b8152602001620009956209eed1670de0b6b3a764000062001af160201b6200034b1760201c565b8152602001620009bc6209eed1670de0b6b3a764000062001af160201b6200034b1760201c565b8152602001620009e36209eed1670de0b6b3a764000062001af160201b6200034b1760201c565b815260200162000a0a6209eed1670de0b6b3a764000062001af160201b6200034b1760201c565b815260200162000a316209eed1670de0b6b3a764000062001af160201b6200034b1760201c565b815260200162000a586209eed1670de0b6b3a764000062001af160201b6200034b1760201c565b815260200162000a7f6209eed1670de0b6b3a764000062001af160201b6200034b1760201c565b815260200162000aa66209eed1670de0b6b3a764000062001af160201b6200034b1760201c565b815260200162000acd6209eed1670de0b6b3a764000062001af160201b6200034b1760201c565b815260200162000af46209eed1670de0b6b3a764000062001af160201b6200034b1760201c565b815260200162000b1b6209eed1670de0b6b3a764000062001af160201b6200034b1760201c565b815260200162000b426209eed1670de0b6b3a764000062001af160201b6200034b1760201c565b815260200162000b696209eed1670de0b6b3a764000062001af160201b6200034b1760201c565b815260200162000b906209eed1670de0b6b3a764000062001af160201b6200034b1760201c565b815260200162000bb76209eed1670de0b6b3a764000062001af160201b6200034b1760201c565b815260200162000bde6209eed1670de0b6b3a764000062001af160201b6200034b1760201c565b81526020016000815260200160008152602001600081526020016000815250604390603762000c0f92919062001b75565b50604051806106e0016040528062000c3d615573670de0b6b3a764000062001af160201b6200034b1760201c565b815260200162000c63615573670de0b6b3a764000062001af160201b6200034b1760201c565b815260200162000c89615573670de0b6b3a764000062001af160201b6200034b1760201c565b815260200162000caf615573670de0b6b3a764000062001af160201b6200034b1760201c565b815260200162000cd5615573670de0b6b3a764000062001af160201b6200034b1760201c565b815260200162000cfb615573670de0b6b3a764000062001af160201b6200034b1760201c565b815260200162000d21615573670de0b6b3a764000062001af160201b6200034b1760201c565b815260200162000d47615573670de0b6b3a764000062001af160201b6200034b1760201c565b815260200162000d6d615573670de0b6b3a764000062001af160201b6200034b1760201c565b815260200162000d93615573670de0b6b3a764000062001af160201b6200034b1760201c565b815260200162000db9615573670de0b6b3a764000062001af160201b6200034b1760201c565b815260200162000ddf615573670de0b6b3a764000062001af160201b6200034b1760201c565b815260200162000e05615573670de0b6b3a764000062001af160201b6200034b1760201c565b815260200162000e2b615573670de0b6b3a764000062001af160201b6200034b1760201c565b815260200162000e51615573670de0b6b3a764000062001af160201b6200034b1760201c565b815260200162000e77615573670de0b6b3a764000062001af160201b6200034b1760201c565b815260200162000e9e620155cc670de0b6b3a764000062001af160201b6200034b1760201c565b815260200162000ec5620155cc670de0b6b3a764000062001af160201b6200034b1760201c565b815260200162000eec620155cc670de0b6b3a764000062001af160201b6200034b1760201c565b815260200162000f13620155cc670de0b6b3a764000062001af160201b6200034b1760201c565b815260200162000f3a620155cc670de0b6b3a764000062001af160201b6200034b1760201c565b815260200162000f61620155cc670de0b6b3a764000062001af160201b6200034b1760201c565b815260200162000f88620155cc670de0b6b3a764000062001af160201b6200034b1760201c565b815260200162000faf620155cc670de0b6b3a764000062001af160201b6200034b1760201c565b815260200162000fd6620155cc670de0b6b3a764000062001af160201b6200034b1760201c565b815260200162000ffd620155cc670de0b6b3a764000062001af160201b6200034b1760201c565b815260200162001024620155cc670de0b6b3a764000062001af160201b6200034b1760201c565b81526020016200104b620155cc670de0b6b3a764000062001af160201b6200034b1760201c565b815260200162001072620155cc670de0b6b3a764000062001af160201b6200034b1760201c565b815260200162001099620155cc670de0b6b3a764000062001af160201b6200034b1760201c565b8152602001620010c0620155cc670de0b6b3a764000062001af160201b6200034b1760201c565b8152602001620010e7620155cc670de0b6b3a764000062001af160201b6200034b1760201c565b81526020016200110e620155cc670de0b6b3a764000062001af160201b6200034b1760201c565b815260200162001135620155cc670de0b6b3a764000062001af160201b6200034b1760201c565b81526020016200115c620155cc670de0b6b3a764000062001af160201b6200034b1760201c565b815260200162001183620155cc670de0b6b3a764000062001af160201b6200034b1760201c565b8152602001620011aa620155cc670de0b6b3a764000062001af160201b6200034b1760201c565b8152602001620011d1620155cc670de0b6b3a764000062001af160201b6200034b1760201c565b8152602001620011f8620155cc670de0b6b3a764000062001af160201b6200034b1760201c565b81526020016200121f620155cc670de0b6b3a764000062001af160201b6200034b1760201c565b815260200162001246620155cc670de0b6b3a764000062001af160201b6200034b1760201c565b81526020016200126d620155cc670de0b6b3a764000062001af160201b6200034b1760201c565b815260200162001294620155cc670de0b6b3a764000062001af160201b6200034b1760201c565b8152602001620012bb620155cc670de0b6b3a764000062001af160201b6200034b1760201c565b8152602001620012e2620155cc670de0b6b3a764000062001af160201b6200034b1760201c565b815260200162001309620155cc670de0b6b3a764000062001af160201b6200034b1760201c565b815260200162001330620155cc670de0b6b3a764000062001af160201b6200034b1760201c565b815260200162001357620155cc670de0b6b3a764000062001af160201b6200034b1760201c565b81526020016200137e620155cc670de0b6b3a764000062001af160201b6200034b1760201c565b8152602001620013a5620155cc670de0b6b3a764000062001af160201b6200034b1760201c565b8152602001620013cc620155cc670de0b6b3a764000062001af160201b6200034b1760201c565b81526020016000815260200160008152602001600081526020016000815250607a906037620013fd92919062001b75565b50604051806106e001604052806200142c62019a28670de0b6b3a764000062001af160201b6200034b1760201c565b8152602001600081526020016000815260200160008152602001620014686204ce78670de0b6b3a764000062001af160201b6200034b1760201c565b8152602001600081526020016000815260200160008152602001620014a46204ce78670de0b6b3a764000062001af160201b6200034b1760201c565b8152602001600081526020016000815260200160008152602001620014e06204ce78670de0b6b3a764000062001af160201b6200034b1760201c565b81526020016000815260200160008152602001600081526020016200151c62040164670de0b6b3a764000062001af160201b6200034b1760201c565b81526020016200154362040164670de0b6b3a764000062001af160201b6200034b1760201c565b81526020016200156a62040164670de0b6b3a764000062001af160201b6200034b1760201c565b81526020016200159162040164670de0b6b3a764000062001af160201b6200034b1760201c565b8152602001620015b862040164670de0b6b3a764000062001af160201b6200034b1760201c565b8152602001620015df62040164670de0b6b3a764000062001af160201b6200034b1760201c565b81526020016200160662040164670de0b6b3a764000062001af160201b6200034b1760201c565b81526020016200162d62040164670de0b6b3a764000062001af160201b6200034b1760201c565b81526020016200165462040164670de0b6b3a764000062001af160201b6200034b1760201c565b81526020016200167b62040164670de0b6b3a764000062001af160201b6200034b1760201c565b8152602001620016a262040164670de0b6b3a764000062001af160201b6200034b1760201c565b8152602001620016c962040164670de0b6b3a764000062001af160201b6200034b1760201c565b8152602001620016f062040164670de0b6b3a764000062001af160201b6200034b1760201c565b81526020016200171762040164670de0b6b3a764000062001af160201b6200034b1760201c565b81526020016200173e62040164670de0b6b3a764000062001af160201b6200034b1760201c565b81526020016200176562040164670de0b6b3a764000062001af160201b6200034b1760201c565b81526020016200178c62040164670de0b6b3a764000062001af160201b6200034b1760201c565b8152602001620017b362040164670de0b6b3a764000062001af160201b6200034b1760201c565b8152602001620017da62040164670de0b6b3a764000062001af160201b6200034b1760201c565b81526020016200180162040164670de0b6b3a764000062001af160201b6200034b1760201c565b81526020016200182862040164670de0b6b3a764000062001af160201b6200034b1760201c565b81526020016200184f62040164670de0b6b3a764000062001af160201b6200034b1760201c565b81526020016200187662040164670de0b6b3a764000062001af160201b6200034b1760201c565b81526020016200189d62040164670de0b6b3a764000062001af160201b6200034b1760201c565b8152602001620018c462040164670de0b6b3a764000062001af160201b6200034b1760201c565b8152602001620018eb62040164670de0b6b3a764000062001af160201b6200034b1760201c565b81526020016200191262040164670de0b6b3a764000062001af160201b6200034b1760201c565b81526020016200193962040164670de0b6b3a764000062001af160201b6200034b1760201c565b81526020016200196062040164670de0b6b3a764000062001af160201b6200034b1760201c565b81526020016200198762040164670de0b6b3a764000062001af160201b6200034b1760201c565b8152602001620019ae62040164670de0b6b3a764000062001af160201b6200034b1760201c565b8152602001620019d562040164670de0b6b3a764000062001af160201b6200034b1760201c565b8152602001620019fc62040164670de0b6b3a764000062001af160201b6200034b1760201c565b815260200162001a2362040164670de0b6b3a764000062001af160201b6200034b1760201c565b815260200162001a4a62040164670de0b6b3a764000062001af160201b6200034b1760201c565b8152602001600081526020016000815260200160008152602001600081525060b190603762001a7b92919062001b75565b5034801562001a8957600080fd5b5060008054906101000a900473ffffffffffffffffffffffffffffffffffffffff16600160006101000a81548173ffffffffffffffffffffffffffffffffffffffff021916908373ffffffffffffffffffffffffffffffffffffffff16021790555062001d83565b60008083141562001b06576000905062001b6f565b6000828462001b16919062001c6b565b905082848262001b27919062001c33565b1462001b6a576040517f08c379a000000000000000000000000000000000000000000000000000000000815260040162001b619062001c00565b60405180910390fd5b809150505b92915050565b826037810192821562001ba7579160200282015b8281111562001ba657825182559160200191906001019062001b89565b5b50905062001bb6919062001bba565b5090565b5b8082111562001bd557600081600090555060010162001bbb565b5090565b600062001be860218362001c22565b915062001bf58262001d34565b604082019050919050565b6000602082019050818103600083015262001c1b8162001bd9565b9050919050565b600082825260208201905092915050565b600062001c408262001ccc565b915062001c4d8362001ccc565b92508262001c605762001c5f62001d05565b5b828204905092915050565b600062001c788262001ccc565b915062001c858362001ccc565b9250817fffffffffffffffffffffffffffffffffffffffffffffffffffffffffffffffff048311821515161562001cc15762001cc062001cd6565b5b828202905092915050565b6000819050919050565b7f4e487b7100000000000000000000000000000000000000000000000000000000600052601160045260246000fd5b7f4e487b7100000000000000000000000000000000000000000000000000000000600052601260045260246000fd5b7f536166654d6174683a206d756c7469706c69636174696f6e206f766572666c6f60008201527f7700000000000000000000000000000000000000000000000000000000000000602082015250565b6106008062001d936000396000f3fe608060405234801561001057600080fd5b506004361061009e5760003560e01c806397a08e711161006657806397a08e7114610139578063ab2e81d614610157578063e39ca65814610175578063eef756fc14610193578063f6ddddf2146101b15761009e565b806336a5a493146100a357806341b2974a146100c1578063534c96c7146100df57806385ba7c02146100fd57806387e25b791461011b575b600080fd5b6100ab6101cf565b6040516100b891906103f8565b60405180910390f35b6100c96101f5565b6040516100d691906103f8565b60405180910390f35b6100e761021b565b6040516100f491906103f8565b60405180910390f35b610105610241565b60405161011291906103f8565b60405180910390f35b610123610267565b60405161013091906103f8565b60405180910390f35b61014161028d565b60405161014e91906103f8565b60405180910390f35b61015f6102b3565b60405161016c91906103f8565b60405180910390f35b61017d6102d9565b60405161018a91906103f8565b60405180910390f35b61019b6102ff565b6040516101a891906103f8565b60405180910390f35b6101b9610325565b6040516101c691906103f8565b60405180910390f35b600560009054906101000a900473ffffffffffffffffffffffffffffffffffffffff1681565b600460009054906101000a900473ffffffffffffffffffffffffffffffffffffffff1681565b600660009054906101000a900473ffffffffffffffffffffffffffffffffffffffff1681565b600a60009054906101000a900473ffffffffffffffffffffffffffffffffffffffff1681565b600b60009054906101000a900473ffffffffffffffffffffffffffffffffffffffff1681565b600860009054906101000a900473ffffffffffffffffffffffffffffffffffffffff1681565b600360009054906101000a900473ffffffffffffffffffffffffffffffffffffffff1681565b600260009054906101000a900473ffffffffffffffffffffffffffffffffffffffff1681565b600760009054906101000a900473ffffffffffffffffffffffffffffffffffffffff1681565b600960009054906101000a900473ffffffffffffffffffffffffffffffffffffffff1681565b60008083141561035e57600090506103c0565b6000828461036c9190610475565b905082848261037b9190610444565b146103bb576040517f08c379a00000000000000000000000000000000000000000000000000000000081526004016103b290610413565b60405180910390fd5b809150505b92915050565b6103cf816104f9565b82525050565b60006103e2602183610433565b91506103ed8261057b565b604082019050919050565b600060208201905061040d60008301846103c6565b92915050565b6000602082019050818103600083015261042c816103d5565b9050919050565b600082825260208201905092915050565b600061044f826104ef565b915061045a836104ef565b92508261046a5761046961054c565b5b828204905092915050565b6000610480826104ef565b915061048b836104ef565b9250817fffffffffffffffffffffffffffffffffffffffffffffffffffffffffffffffff04831182151516156104c4576104c361051d565b5b828202905092915050565b600073ffffffffffffffffffffffffffffffffffffffff82169050919050565b6000819050919050565b60006105048261050b565b9050919050565b6000610516826104cf565b9050919050565b7f4e487b7100000000000000000000000000000000000000000000000000000000600052601160045260246000fd5b7f4e487b7100000000000000000000000000000000000000000000000000000000600052601260045260246000fd5b7f536166654d6174683a206d756c7469706c69636174696f6e206f766572666c6f60008201527f770000000000000000000000000000000000000000000000000000000000000060208201525056fea2646970667358221220fcf146e7b6d552d21e77cd1f188028877922ca72327756f3c6a6e0c528a9471d64736f6c63430008040033",
  "linkReferences": {},
  "deployedLinkReferences": {}
}