{
  "_format": "hh-sol-artifact-1",
  "contractName": "MyGovernor",
  "sourceName": "contracts/Governance/Governance.sol",
  "abi": [
    {
      "inputs": [
        {
          "internalType": "contract IVotes",
          "name": "_token",
          "type": "address"
        },
        {
          "internalType": "contract TimelockController",
          "name": "_timelock",
          "type": "address"
        }
      ],
      "stateMutability": "nonpayable",
      "type": "constructor"
    },
    {
      "inputs": [],
      "name": "Empty",
      "type": "error"
    },
    {
      "anonymous": false,
      "inputs": [
        {
          "indexed": true,
          "internalType": "address",
          "name": "previousOwner",
          "type": "address"
        },
        {
          "indexed": true,
          "internalType": "address",
          "name": "newOwner",
          "type": "address"
        }
      ],
      "name": "OwnershipTransferred",
      "type": "event"
    },
    {
      "anonymous": false,
      "inputs": [
        {
          "indexed": false,
          "internalType": "uint256",
          "name": "proposalId",
          "type": "uint256"
        }
      ],
      "name": "ProposalCanceled",
      "type": "event"
    },
    {
      "anonymous": false,
      "inputs": [
        {
          "indexed": false,
          "internalType": "uint256",
          "name": "proposalId",
          "type": "uint256"
        },
        {
          "indexed": false,
          "internalType": "address",
          "name": "proposer",
          "type": "address"
        },
        {
          "indexed": false,
          "internalType": "address[]",
          "name": "targets",
          "type": "address[]"
        },
        {
          "indexed": false,
          "internalType": "uint256[]",
          "name": "values",
          "type": "uint256[]"
        },
        {
          "indexed": false,
          "internalType": "string[]",
          "name": "signatures",
          "type": "string[]"
        },
        {
          "indexed": false,
          "internalType": "bytes[]",
          "name": "calldatas",
          "type": "bytes[]"
        },
        {
          "indexed": false,
          "internalType": "uint256",
          "name": "startBlock",
          "type": "uint256"
        },
        {
          "indexed": false,
          "internalType": "uint256",
          "name": "endBlock",
          "type": "uint256"
        },
        {
          "indexed": false,
          "internalType": "string",
          "name": "description",
          "type": "string"
        }
      ],
      "name": "ProposalCreated",
      "type": "event"
    },
    {
      "anonymous": false,
      "inputs": [
        {
          "indexed": false,
          "internalType": "uint256",
          "name": "proposalId",
          "type": "uint256"
        }
      ],
      "name": "ProposalExecuted",
      "type": "event"
    },
    {
      "anonymous": false,
      "inputs": [
        {
          "indexed": false,
          "internalType": "uint256",
          "name": "proposalId",
          "type": "uint256"
        },
        {
          "indexed": false,
          "internalType": "uint256",
          "name": "eta",
          "type": "uint256"
        }
      ],
      "name": "ProposalQueued",
      "type": "event"
    },
    {
      "anonymous": false,
      "inputs": [
        {
          "indexed": false,
          "internalType": "uint256",
          "name": "oldProposalThreshold",
          "type": "uint256"
        },
        {
          "indexed": false,
          "internalType": "uint256",
          "name": "newProposalThreshold",
          "type": "uint256"
        }
      ],
      "name": "ProposalThresholdSet",
      "type": "event"
    },
    {
      "anonymous": false,
      "inputs": [
        {
          "indexed": false,
          "internalType": "uint256",
          "name": "oldQuorumNumerator",
          "type": "uint256"
        },
        {
          "indexed": false,
          "internalType": "uint256",
          "name": "newQuorumNumerator",
          "type": "uint256"
        }
      ],
      "name": "QuorumNumeratorUpdated",
      "type": "event"
    },
    {
      "anonymous": false,
      "inputs": [
        {
          "indexed": false,
          "internalType": "address",
          "name": "oldTimelock",
          "type": "address"
        },
        {
          "indexed": false,
          "internalType": "address",
          "name": "newTimelock",
          "type": "address"
        }
      ],
      "name": "TimelockChange",
      "type": "event"
    },
    {
      "anonymous": false,
      "inputs": [
        {
          "indexed": true,
          "internalType": "address",
          "name": "voter",
          "type": "address"
        },
        {
          "indexed": false,
          "internalType": "uint256",
          "name": "proposalId",
          "type": "uint256"
        },
        {
          "indexed": false,
          "internalType": "uint8",
          "name": "support",
          "type": "uint8"
        },
        {
          "indexed": false,
          "internalType": "uint256",
          "name": "weight",
          "type": "uint256"
        },
        {
          "indexed": false,
          "internalType": "string",
          "name": "reason",
          "type": "string"
        }
      ],
      "name": "VoteCast",
      "type": "event"
    },
    {
      "anonymous": false,
      "inputs": [
        {
          "indexed": true,
          "internalType": "address",
          "name": "voter",
          "type": "address"
        },
        {
          "indexed": false,
          "internalType": "uint256",
          "name": "proposalId",
          "type": "uint256"
        },
        {
          "indexed": false,
          "internalType": "uint8",
          "name": "support",
          "type": "uint8"
        },
        {
          "indexed": false,
          "internalType": "uint256",
          "name": "weight",
          "type": "uint256"
        },
        {
          "indexed": false,
          "internalType": "string",
          "name": "reason",
          "type": "string"
        },
        {
          "indexed": false,
          "internalType": "bytes",
          "name": "params",
          "type": "bytes"
        }
      ],
      "name": "VoteCastWithParams",
      "type": "event"
    },
    {
      "anonymous": false,
      "inputs": [
        {
          "indexed": false,
          "internalType": "uint256",
          "name": "oldVotingDelay",
          "type": "uint256"
        },
        {
          "indexed": false,
          "internalType": "uint256",
          "name": "newVotingDelay",
          "type": "uint256"
        }
      ],
      "name": "VotingDelaySet",
      "type": "event"
    },
    {
      "anonymous": false,
      "inputs": [
        {
          "indexed": false,
          "internalType": "uint256",
          "name": "oldVotingPeriod",
          "type": "uint256"
        },
        {
          "indexed": false,
          "internalType": "uint256",
          "name": "newVotingPeriod",
          "type": "uint256"
        }
      ],
      "name": "VotingPeriodSet",
      "type": "event"
    },
    {
      "inputs": [],
      "name": "BALLOT_TYPEHASH",
      "outputs": [
        {
          "internalType": "bytes32",
          "name": "",
          "type": "bytes32"
        }
      ],
      "stateMutability": "view",
      "type": "function"
    },
    {
      "inputs": [],
      "name": "COUNTING_MODE",
      "outputs": [
        {
          "internalType": "string",
          "name": "",
          "type": "string"
        }
      ],
      "stateMutability": "pure",
      "type": "function"
    },
    {
      "inputs": [],
      "name": "EXTENDED_BALLOT_TYPEHASH",
      "outputs": [
        {
          "internalType": "bytes32",
          "name": "",
          "type": "bytes32"
        }
      ],
      "stateMutability": "view",
      "type": "function"
    },
    {
      "inputs": [
        {
          "internalType": "uint256",
          "name": "proposalId",
          "type": "uint256"
        },
        {
          "internalType": "uint8",
          "name": "support",
          "type": "uint8"
        }
      ],
      "name": "castVote",
      "outputs": [
        {
          "internalType": "uint256",
          "name": "",
          "type": "uint256"
        }
      ],
      "stateMutability": "nonpayable",
      "type": "function"
    },
    {
      "inputs": [
        {
          "internalType": "uint256",
          "name": "proposalId",
          "type": "uint256"
        },
        {
          "internalType": "uint8",
          "name": "support",
          "type": "uint8"
        },
        {
          "internalType": "uint8",
          "name": "v",
          "type": "uint8"
        },
        {
          "internalType": "bytes32",
          "name": "r",
          "type": "bytes32"
        },
        {
          "internalType": "bytes32",
          "name": "s",
          "type": "bytes32"
        }
      ],
      "name": "castVoteBySig",
      "outputs": [
        {
          "internalType": "uint256",
          "name": "",
          "type": "uint256"
        }
      ],
      "stateMutability": "nonpayable",
      "type": "function"
    },
    {
      "inputs": [
        {
          "internalType": "uint256",
          "name": "proposalId",
          "type": "uint256"
        },
        {
          "internalType": "uint8",
          "name": "support",
          "type": "uint8"
        },
        {
          "internalType": "string",
          "name": "reason",
          "type": "string"
        }
      ],
      "name": "castVoteWithReason",
      "outputs": [
        {
          "internalType": "uint256",
          "name": "",
          "type": "uint256"
        }
      ],
      "stateMutability": "nonpayable",
      "type": "function"
    },
    {
      "inputs": [
        {
          "internalType": "uint256",
          "name": "proposalId",
          "type": "uint256"
        },
        {
          "internalType": "uint8",
          "name": "support",
          "type": "uint8"
        },
        {
          "internalType": "string",
          "name": "reason",
          "type": "string"
        },
        {
          "internalType": "bytes",
          "name": "params",
          "type": "bytes"
        }
      ],
      "name": "castVoteWithReasonAndParams",
      "outputs": [
        {
          "internalType": "uint256",
          "name": "",
          "type": "uint256"
        }
      ],
      "stateMutability": "nonpayable",
      "type": "function"
    },
    {
      "inputs": [
        {
          "internalType": "uint256",
          "name": "proposalId",
          "type": "uint256"
        },
        {
          "internalType": "uint8",
          "name": "support",
          "type": "uint8"
        },
        {
          "internalType": "string",
          "name": "reason",
          "type": "string"
        },
        {
          "internalType": "bytes",
          "name": "params",
          "type": "bytes"
        },
        {
          "internalType": "uint8",
          "name": "v",
          "type": "uint8"
        },
        {
          "internalType": "bytes32",
          "name": "r",
          "type": "bytes32"
        },
        {
          "internalType": "bytes32",
          "name": "s",
          "type": "bytes32"
        }
      ],
      "name": "castVoteWithReasonAndParamsBySig",
      "outputs": [
        {
          "internalType": "uint256",
          "name": "",
          "type": "uint256"
        }
      ],
      "stateMutability": "nonpayable",
      "type": "function"
    },
    {
      "inputs": [
        {
          "internalType": "address[]",
          "name": "targets",
          "type": "address[]"
        },
        {
          "internalType": "uint256[]",
          "name": "values",
          "type": "uint256[]"
        },
        {
          "internalType": "bytes[]",
          "name": "calldatas",
          "type": "bytes[]"
        },
        {
          "internalType": "bytes32",
          "name": "descriptionHash",
          "type": "bytes32"
        }
      ],
      "name": "execute",
      "outputs": [
        {
          "internalType": "uint256",
          "name": "",
          "type": "uint256"
        }
      ],
      "stateMutability": "payable",
      "type": "function"
    },
    {
      "inputs": [
        {
          "internalType": "address",
          "name": "account",
          "type": "address"
        },
        {
          "internalType": "uint256",
          "name": "blockNumber",
          "type": "uint256"
        }
      ],
      "name": "getVotes",
      "outputs": [
        {
          "internalType": "uint256",
          "name": "",
          "type": "uint256"
        }
      ],
      "stateMutability": "view",
      "type": "function"
    },
    {
      "inputs": [
        {
          "internalType": "address",
          "name": "account",
          "type": "address"
        },
        {
          "internalType": "uint256",
          "name": "blockNumber",
          "type": "uint256"
        },
        {
          "internalType": "bytes",
          "name": "params",
          "type": "bytes"
        }
      ],
      "name": "getVotesWithParams",
      "outputs": [
        {
          "internalType": "uint256",
          "name": "",
          "type": "uint256"
        }
      ],
      "stateMutability": "view",
      "type": "function"
    },
    {
      "inputs": [
        {
          "internalType": "uint256",
          "name": "proposalId",
          "type": "uint256"
        },
        {
          "internalType": "address",
          "name": "account",
          "type": "address"
        }
      ],
      "name": "hasVoted",
      "outputs": [
        {
          "internalType": "bool",
          "name": "",
          "type": "bool"
        }
      ],
      "stateMutability": "view",
      "type": "function"
    },
    {
      "inputs": [
        {
          "internalType": "address[]",
          "name": "targets",
          "type": "address[]"
        },
        {
          "internalType": "uint256[]",
          "name": "values",
          "type": "uint256[]"
        },
        {
          "internalType": "bytes[]",
          "name": "calldatas",
          "type": "bytes[]"
        },
        {
          "internalType": "bytes32",
          "name": "descriptionHash",
          "type": "bytes32"
        }
      ],
      "name": "hashProposal",
      "outputs": [
        {
          "internalType": "uint256",
          "name": "",
          "type": "uint256"
        }
      ],
      "stateMutability": "pure",
      "type": "function"
    },
    {
      "inputs": [],
      "name": "name",
      "outputs": [
        {
          "internalType": "string",
          "name": "",
          "type": "string"
        }
      ],
      "stateMutability": "view",
      "type": "function"
    },
    {
      "inputs": [
        {
          "internalType": "address",
          "name": "",
          "type": "address"
        },
        {
          "internalType": "address",
          "name": "",
          "type": "address"
        },
        {
          "internalType": "uint256[]",
          "name": "",
          "type": "uint256[]"
        },
        {
          "internalType": "uint256[]",
          "name": "",
          "type": "uint256[]"
        },
        {
          "internalType": "bytes",
          "name": "",
          "type": "bytes"
        }
      ],
      "name": "onERC1155BatchReceived",
      "outputs": [
        {
          "internalType": "bytes4",
          "name": "",
          "type": "bytes4"
        }
      ],
      "stateMutability": "nonpayable",
      "type": "function"
    },
    {
      "inputs": [
        {
          "internalType": "address",
          "name": "",
          "type": "address"
        },
        {
          "internalType": "address",
          "name": "",
          "type": "address"
        },
        {
          "internalType": "uint256",
          "name": "",
          "type": "uint256"
        },
        {
          "internalType": "uint256",
          "name": "",
          "type": "uint256"
        },
        {
          "internalType": "bytes",
          "name": "",
          "type": "bytes"
        }
      ],
      "name": "onERC1155Received",
      "outputs": [
        {
          "internalType": "bytes4",
          "name": "",
          "type": "bytes4"
        }
      ],
      "stateMutability": "nonpayable",
      "type": "function"
    },
    {
      "inputs": [
        {
          "internalType": "address",
          "name": "",
          "type": "address"
        },
        {
          "internalType": "address",
          "name": "",
          "type": "address"
        },
        {
          "internalType": "uint256",
          "name": "",
          "type": "uint256"
        },
        {
          "internalType": "bytes",
          "name": "",
          "type": "bytes"
        }
      ],
      "name": "onERC721Received",
      "outputs": [
        {
          "internalType": "bytes4",
          "name": "",
          "type": "bytes4"
        }
      ],
      "stateMutability": "nonpayable",
      "type": "function"
    },
    {
      "inputs": [],
      "name": "owner",
      "outputs": [
        {
          "internalType": "address",
          "name": "",
          "type": "address"
        }
      ],
      "stateMutability": "view",
      "type": "function"
    },
    {
      "inputs": [
        {
          "internalType": "uint256",
          "name": "proposalId",
          "type": "uint256"
        }
      ],
      "name": "proposalDeadline",
      "outputs": [
        {
          "internalType": "uint256",
          "name": "",
          "type": "uint256"
        }
      ],
      "stateMutability": "view",
      "type": "function"
    },
    {
      "inputs": [
        {
          "internalType": "uint256",
          "name": "proposalId",
          "type": "uint256"
        }
      ],
      "name": "proposalEta",
      "outputs": [
        {
          "internalType": "uint256",
          "name": "",
          "type": "uint256"
        }
      ],
      "stateMutability": "view",
      "type": "function"
    },
    {
      "inputs": [
        {
          "internalType": "uint256",
          "name": "proposalId",
          "type": "uint256"
        }
      ],
      "name": "proposalSnapshot",
      "outputs": [
        {
          "internalType": "uint256",
          "name": "",
          "type": "uint256"
        }
      ],
      "stateMutability": "view",
      "type": "function"
    },
    {
      "inputs": [],
      "name": "proposalThreshold",
      "outputs": [
        {
          "internalType": "uint256",
          "name": "",
          "type": "uint256"
        }
      ],
      "stateMutability": "view",
      "type": "function"
    },
    {
      "inputs": [
        {
          "internalType": "uint256",
          "name": "proposalId",
          "type": "uint256"
        }
      ],
      "name": "proposalVotes",
      "outputs": [
        {
          "internalType": "uint256",
          "name": "againstVotes",
          "type": "uint256"
        },
        {
          "internalType": "uint256",
          "name": "forVotes",
          "type": "uint256"
        },
        {
          "internalType": "uint256",
          "name": "abstainVotes",
          "type": "uint256"
        }
      ],
      "stateMutability": "view",
      "type": "function"
    },
    {
      "inputs": [
        {
          "internalType": "address[]",
          "name": "targets",
          "type": "address[]"
        },
        {
          "internalType": "uint256[]",
          "name": "values",
          "type": "uint256[]"
        },
        {
          "internalType": "bytes[]",
          "name": "calldatas",
          "type": "bytes[]"
        },
        {
          "internalType": "string",
          "name": "description",
          "type": "string"
        }
      ],
      "name": "propose",
      "outputs": [
        {
          "internalType": "uint256",
          "name": "",
          "type": "uint256"
        }
      ],
      "stateMutability": "nonpayable",
      "type": "function"
    },
    {
      "inputs": [
        {
          "internalType": "address[]",
          "name": "targets",
          "type": "address[]"
        },
        {
          "internalType": "uint256[]",
          "name": "values",
          "type": "uint256[]"
        },
        {
          "internalType": "bytes[]",
          "name": "calldatas",
          "type": "bytes[]"
        },
        {
          "internalType": "bytes32",
          "name": "descriptionHash",
          "type": "bytes32"
        }
      ],
      "name": "queue",
      "outputs": [
        {
          "internalType": "uint256",
          "name": "",
          "type": "uint256"
        }
      ],
      "stateMutability": "nonpayable",
      "type": "function"
    },
    {
      "inputs": [
        {
          "internalType": "uint256",
          "name": "blockNumber",
          "type": "uint256"
        }
      ],
      "name": "quorum",
      "outputs": [
        {
          "internalType": "uint256",
          "name": "",
          "type": "uint256"
        }
      ],
      "stateMutability": "view",
      "type": "function"
    },
    {
      "inputs": [],
      "name": "quorumDenominator",
      "outputs": [
        {
          "internalType": "uint256",
          "name": "",
          "type": "uint256"
        }
      ],
      "stateMutability": "view",
      "type": "function"
    },
    {
      "inputs": [
        {
          "internalType": "uint256",
          "name": "blockNumber",
          "type": "uint256"
        }
      ],
      "name": "quorumNumerator",
      "outputs": [
        {
          "internalType": "uint256",
          "name": "",
          "type": "uint256"
        }
      ],
      "stateMutability": "view",
      "type": "function"
    },
    {
      "inputs": [],
      "name": "quorumNumerator",
      "outputs": [
        {
          "internalType": "uint256",
          "name": "",
          "type": "uint256"
        }
      ],
      "stateMutability": "view",
      "type": "function"
    },
    {
      "inputs": [
        {
          "internalType": "address",
          "name": "target",
          "type": "address"
        },
        {
          "internalType": "uint256",
          "name": "value",
          "type": "uint256"
        },
        {
          "internalType": "bytes",
          "name": "data",
          "type": "bytes"
        }
      ],
      "name": "relay",
      "outputs": [],
      "stateMutability": "payable",
      "type": "function"
    },
    {
      "inputs": [],
      "name": "renounceOwnership",
      "outputs": [],
      "stateMutability": "nonpayable",
      "type": "function"
    },
    {
      "inputs": [
        {
          "internalType": "uint256",
          "name": "newProposalThreshold",
          "type": "uint256"
        }
      ],
      "name": "setProposalThreshold",
      "outputs": [],
      "stateMutability": "nonpayable",
      "type": "function"
    },
    {
      "inputs": [
        {
          "internalType": "uint256",
          "name": "newVotingDelay",
          "type": "uint256"
        }
      ],
      "name": "setVotingDelay",
      "outputs": [],
      "stateMutability": "nonpayable",
      "type": "function"
    },
    {
      "inputs": [
        {
          "internalType": "uint256",
          "name": "newVotingPeriod",
          "type": "uint256"
        }
      ],
      "name": "setVotingPeriod",
      "outputs": [],
      "stateMutability": "nonpayable",
      "type": "function"
    },
    {
      "inputs": [
        {
          "internalType": "uint256",
          "name": "proposalId",
          "type": "uint256"
        }
      ],
      "name": "state",
      "outputs": [
        {
          "internalType": "enum IGovernor.ProposalState",
          "name": "",
          "type": "uint8"
        }
      ],
      "stateMutability": "view",
      "type": "function"
    },
    {
      "inputs": [
        {
          "internalType": "bytes4",
          "name": "interfaceId",
          "type": "bytes4"
        }
      ],
      "name": "supportsInterface",
      "outputs": [
        {
          "internalType": "bool",
          "name": "",
          "type": "bool"
        }
      ],
      "stateMutability": "view",
      "type": "function"
    },
    {
      "inputs": [],
      "name": "timelock",
      "outputs": [
        {
          "internalType": "address",
          "name": "",
          "type": "address"
        }
      ],
      "stateMutability": "view",
      "type": "function"
    },
    {
      "inputs": [],
      "name": "token",
      "outputs": [
        {
          "internalType": "contract IVotes",
          "name": "",
          "type": "address"
        }
      ],
      "stateMutability": "view",
      "type": "function"
    },
    {
      "inputs": [
        {
          "internalType": "address",
          "name": "newOwner",
          "type": "address"
        }
      ],
      "name": "transferOwnership",
      "outputs": [],
      "stateMutability": "nonpayable",
      "type": "function"
    },
    {
      "inputs": [
        {
          "internalType": "uint256",
          "name": "newQuorumNumerator",
          "type": "uint256"
        }
      ],
      "name": "updateQuorumNumerator",
      "outputs": [],
      "stateMutability": "nonpayable",
      "type": "function"
    },
    {
      "inputs": [
        {
          "internalType": "contract TimelockController",
          "name": "newTimelock",
          "type": "address"
        }
      ],
      "name": "updateTimelock",
      "outputs": [],
      "stateMutability": "nonpayable",
      "type": "function"
    },
    {
      "inputs": [],
      "name": "version",
      "outputs": [
        {
          "internalType": "string",
          "name": "",
          "type": "string"
        }
      ],
      "stateMutability": "view",
      "type": "function"
    },
    {
      "inputs": [],
      "name": "votingDelay",
      "outputs": [
        {
          "internalType": "uint256",
          "name": "",
          "type": "uint256"
        }
      ],
      "stateMutability": "view",
      "type": "function"
    },
    {
      "inputs": [],
      "name": "votingPeriod",
      "outputs": [
        {
          "internalType": "uint256",
          "name": "",
          "type": "uint256"
        }
      ],
      "stateMutability": "view",
      "type": "function"
    },
    {
      "stateMutability": "payable",
      "type": "receive"
    }
  ],
  "bytecode": "0x6101606040523480156200001257600080fd5b50604051620081b1380380620081b1833981810160405281019062000038919062000e57565b806033836002610b4060006040518060400160405280600a81526020017f4d79476f7665726e6f7200000000000000000000000000000000000000000000815250806200008a6200020e60201b60201c565b60008280519060200120905060008280519060200120905060007f8b73c3c69bb8fe3d512ecc4cf759cc79239f7b179b0ffacaa9a75d522b39400f90508260e081815250508161010081815250504660a08181525050620000f38184846200024b60201b60201c565b608081815250503073ffffffffffffffffffffffffffffffffffffffff1660c08173ffffffffffffffffffffffffffffffffffffffff1681525050806101208181525050505050505080600090805190602001906200015492919062000cd0565b505062000167836200028760201b60201c565b6200017882620002ce60201b60201c565b62000189816200035b60201b60201c565b5050508073ffffffffffffffffffffffffffffffffffffffff166101408173ffffffffffffffffffffffffffffffffffffffff168152505050620001d381620003a260201b60201c565b50620001e5816200058160201b60201c565b5062000206620001fa6200062260201b60201c565b6200062a60201b60201c565b505062001374565b60606040518060400160405280600181526020017f3100000000000000000000000000000000000000000000000000000000000000815250905090565b600083838346306040516020016200026895949392919062000ee5565b6040516020818303038152906040528051906020012090509392505050565b7fc565b045403dc03c2eea82b81a0465edad9e2e7fc4d97e11421c209da93d7a9360045482604051620002bc92919062000f42565b60405180910390a18060048190555050565b6000811162000314576040517f08c379a00000000000000000000000000000000000000000000000000000000081526004016200030b9062000ff6565b60405180910390fd5b7f7e3f7f0708a84de9203036abaa450dccc85ad5ff52f78c170f3edb55cf5e8828600554826040516200034992919062000f42565b60405180910390a18060058190555050565b7fccb45da8d5717e6c4544694297c4ba5cf151d455c9bb0ed4fc7a38411bc05461600654826040516200039092919062000f42565b60405180910390a18060068190555050565b620003b2620006f060201b60201c565b811115620003f7576040517f08c379a0000000000000000000000000000000000000000000000000000000008152600401620003ee90620010b4565b60405180910390fd5b600062000409620006f960201b60201c565b9050600081141580156200042557506000600960000180549050145b15620005255760096000016040518060400160405280600063ffffffff1681526020016200045e846200074f60201b62001ffc1760201c565b7bffffffffffffffffffffffffffffffffffffffffffffffffffffffff168152509080600181540180825580915050600190039060005260206000200160009091909190915060008201518160000160006101000a81548163ffffffff021916908363ffffffff16021790555060208201518160000160046101000a8154817bffffffffffffffffffffffffffffffffffffffffffffffffffffffff02191690837bffffffffffffffffffffffffffffffffffffffffffffffffffffffff16021790555050505b62000540826009620007bd60201b620020671790919060201c565b50507f0553476bf02ef2726e8ce5ced78d63e26e602e4a2257b1f559418e24b463399781836040516200057592919062000f42565b60405180910390a15050565b7f08f74ea46ef7894f65eabfb5e6e695de773a000b47c529ab559178069b226401600a60009054906101000a900473ffffffffffffffffffffffffffffffffffffffff1682604051620005d6929190620010d6565b60405180910390a180600a60006101000a81548173ffffffffffffffffffffffffffffffffffffffff021916908373ffffffffffffffffffffffffffffffffffffffff16021790555050565b600033905090565b6000600c60009054906101000a900473ffffffffffffffffffffffffffffffffffffffff16905081600c60006101000a81548173ffffffffffffffffffffffffffffffffffffffff021916908373ffffffffffffffffffffffffffffffffffffffff1602179055508173ffffffffffffffffffffffffffffffffffffffff168173ffffffffffffffffffffffffffffffffffffffff167f8be0079c531659141344cd1fd0a4f28419497f9722a3daafe3b4186f6b6457e060405160405180910390a35050565b60006064905090565b6000806009600001805490501462000746576200072260096200084d60201b620020d51760201c565b7bffffffffffffffffffffffffffffffffffffffffffffffffffffffff166200074a565b6008545b905090565b60007bffffffffffffffffffffffffffffffffffffffffffffffffffffffff8016821115620007b5576040517f08c379a0000000000000000000000000000000000000000000000000000000008152600401620007ac9062001179565b60405180910390fd5b819050919050565b6000806200080084600001620007de43620008c360201b6200213f1760201c565b620007f4866200074f60201b62001ffc1760201c565b6200091960201b60201c565b817bffffffffffffffffffffffffffffffffffffffffffffffffffffffff169150807bffffffffffffffffffffffffffffffffffffffffffffffffffffffff169050915091509250929050565b6000808260000180549050905060008114620008b85762000886836000016001836200087a9190620011ca565b62000cbb60201b60201c565b60000160049054906101000a90047bffffffffffffffffffffffffffffffffffffffffffffffffffffffff16620008bb565b60005b915050919050565b600063ffffffff801682111562000911576040517f08c379a000000000000000000000000000000000000000000000000000000000815260040162000908906200127b565b60405180910390fd5b819050919050565b600080600085805490509050600081111562000bcb5760006200095187600184620009459190620011ca565b62000cbb60201b60201c565b6040518060400160405290816000820160009054906101000a900463ffffffff1663ffffffff1663ffffffff1681526020016000820160049054906101000a90047bffffffffffffffffffffffffffffffffffffffffffffffffffffffff167bffffffffffffffffffffffffffffffffffffffffffffffffffffffff167bffffffffffffffffffffffffffffffffffffffffffffffffffffffff168152505090508563ffffffff16816000015163ffffffff16111562000a48576040517f08c379a000000000000000000000000000000000000000000000000000000000815260040162000a3f90620012ed565b60405180910390fd5b8563ffffffff16816000015163ffffffff16141562000ad9578462000a828860018562000a769190620011ca565b62000cbb60201b60201c565b60000160046101000a8154817bffffffffffffffffffffffffffffffffffffffffffffffffffffffff02191690837bffffffffffffffffffffffffffffffffffffffffffffffffffffffff16021790555062000bb9565b8660405180604001604052808863ffffffff168152602001877bffffffffffffffffffffffffffffffffffffffffffffffffffffffff168152509080600181540180825580915050600190039060005260206000200160009091909190915060008201518160000160006101000a81548163ffffffff021916908363ffffffff16021790555060208201518160000160046101000a8154817bffffffffffffffffffffffffffffffffffffffffffffffffffffffff02191690837bffffffffffffffffffffffffffffffffffffffffffffffffffffffff16021790555050505b80602001518593509350505062000cb3565b8560405180604001604052808763ffffffff168152602001867bffffffffffffffffffffffffffffffffffffffffffffffffffffffff168152509080600181540180825580915050600190039060005260206000200160009091909190915060008201518160000160006101000a81548163ffffffff021916908363ffffffff16021790555060208201518160000160046101000a8154817bffffffffffffffffffffffffffffffffffffffffffffffffffffffff02191690837bffffffffffffffffffffffffffffffffffffffffffffffffffffffff160217905550505060008492509250505b935093915050565b60008260005281602060002001905092915050565b82805462000cde906200133e565b90600052602060002090601f01602090048101928262000d02576000855562000d4e565b82601f1062000d1d57805160ff191683800117855562000d4e565b8280016001018555821562000d4e579182015b8281111562000d4d57825182559160200191906001019062000d30565b5b50905062000d5d919062000d61565b5090565b5b8082111562000d7c57600081600090555060010162000d62565b5090565b600080fd5b600073ffffffffffffffffffffffffffffffffffffffff82169050919050565b600062000db28262000d85565b9050919050565b600062000dc68262000da5565b9050919050565b62000dd88162000db9565b811462000de457600080fd5b50565b60008151905062000df88162000dcd565b92915050565b600062000e0b8262000d85565b9050919050565b600062000e1f8262000dfe565b9050919050565b62000e318162000e12565b811462000e3d57600080fd5b50565b60008151905062000e518162000e26565b92915050565b6000806040838503121562000e715762000e7062000d80565b5b600062000e818582860162000de7565b925050602062000e948582860162000e40565b9150509250929050565b6000819050919050565b62000eb38162000e9e565b82525050565b6000819050919050565b62000ece8162000eb9565b82525050565b62000edf8162000da5565b82525050565b600060a08201905062000efc600083018862000ea8565b62000f0b602083018762000ea8565b62000f1a604083018662000ea8565b62000f29606083018562000ec3565b62000f38608083018462000ed4565b9695505050505050565b600060408201905062000f59600083018562000ec3565b62000f68602083018462000ec3565b9392505050565b600082825260208201905092915050565b7f476f7665726e6f7253657474696e67733a20766f74696e6720706572696f642060008201527f746f6f206c6f7700000000000000000000000000000000000000000000000000602082015250565b600062000fde60278362000f6f565b915062000feb8262000f80565b604082019050919050565b60006020820190508181036000830152620010118162000fcf565b9050919050565b7f476f7665726e6f72566f74657351756f72756d4672616374696f6e3a2071756f60008201527f72756d4e756d657261746f72206f7665722071756f72756d44656e6f6d696e6160208201527f746f720000000000000000000000000000000000000000000000000000000000604082015250565b60006200109c60438362000f6f565b9150620010a98262001018565b606082019050919050565b60006020820190508181036000830152620010cf816200108d565b9050919050565b6000604082019050620010ed600083018562000ed4565b620010fc602083018462000ed4565b9392505050565b7f53616665436173743a2076616c756520646f65736e27742066697420696e203260008201527f3234206269747300000000000000000000000000000000000000000000000000602082015250565b60006200116160278362000f6f565b91506200116e8262001103565b604082019050919050565b60006020820190508181036000830152620011948162001152565b9050919050565b7f4e487b7100000000000000000000000000000000000000000000000000000000600052601160045260246000fd5b6000620011d78262000eb9565b9150620011e48362000eb9565b925082821015620011fa57620011f96200119b565b5b828203905092915050565b7f53616665436173743a2076616c756520646f65736e27742066697420696e203360008201527f3220626974730000000000000000000000000000000000000000000000000000602082015250565b60006200126360268362000f6f565b9150620012708262001205565b604082019050919050565b60006020820190508181036000830152620012968162001254565b9050919050565b7f436865636b706f696e743a20696e76616c6964206b6579000000000000000000600082015250565b6000620012d560178362000f6f565b9150620012e2826200129d565b602082019050919050565b600060208201905081810360008301526200130881620012c6565b9050919050565b7f4e487b7100000000000000000000000000000000000000000000000000000000600052602260045260246000fd5b600060028204905060018216806200135757607f821691505b602082108114156200136e576200136d6200130f565b5b50919050565b60805160a05160c05160e051610100516101205161014051616dd4620013dd60003960008181611fda01528181612fc9015261323001526000613892015260006138d4015260006138b3015260006137e80152600061383e015260006138670152616dd46000f3fe60806040526004361061026b5760003560e01c80637d5e81e211610144578063c59057e4116100b6578063eb9019d41161007a578063eb9019d414610a4a578063ece40cc114610a87578063f23a6e6114610ab0578063f2fde38b14610aed578063f8ce560a14610b16578063fc0c546a14610b53576102b1565b8063c59057e414610963578063d33219b4146109a0578063dd4e2ba5146109cb578063deaaa7cc146109f6578063ea0217cf14610a21576102b1565b8063a890c91011610108578063a890c9101461083c578063ab58fb8e14610865578063b58131b0146108a2578063bc197c81146108cd578063c01f9e371461090a578063c28bc2fa14610947576102b1565b80637d5e81e2146107415780638da5cb5b1461077e57806397c3d334146107a95780639a802a6d146107d4578063a7713a7014610811576102b1565b80633bccf4fd116101dd57806356781388116101a1578063567813881461060d5780635f398a141461064a57806360c4247f1461068757806370b0f660146106c4578063715018a6146106ed5780637b3c71d314610704576102b1565b80633bccf4fd146104ec5780633e4f49e6146105295780634385963214610566578063544ffc9c146105a357806354fd4d50146105e2576102b1565b8063150b7a021161022f578063150b7a02146103af578063160cbed7146103ec5780632656227d146104295780632d63f693146104595780632fe3e261146104965780633932abb1146104c1576102b1565b806301ffc9a7146102b657806302a251a3146102f3578063034201811461031e57806306f3f9e61461035b57806306fdde0314610384576102b1565b366102b1573073ffffffffffffffffffffffffffffffffffffffff1661028f610b7e565b73ffffffffffffffffffffffffffffffffffffffff16146102af57600080fd5b005b600080fd5b3480156102c257600080fd5b506102dd60048036038101906102d89190614379565b610b8d565b6040516102ea91906143c1565b60405180910390f35b3480156102ff57600080fd5b50610308610b9f565b60405161031591906143f5565b60405180910390f35b34801561032a57600080fd5b5061034560048036038101906103409190614651565b610bae565b60405161035291906143f5565b60405180910390f35b34801561036757600080fd5b50610382600480360381019061037d919061472f565b610c93565b005b34801561039057600080fd5b50610399610d8f565b6040516103a691906147e4565b60405180910390f35b3480156103bb57600080fd5b506103d660048036038101906103d19190614864565b610e21565b6040516103e391906148f6565b60405180910390f35b3480156103f857600080fd5b50610413600480360381019061040e9190614b78565b610e35565b60405161042091906143f5565b60405180910390f35b610443600480360381019061043e9190614b78565b6110ef565b60405161045091906143f5565b60405180910390f35b34801561046557600080fd5b50610480600480360381019061047b919061472f565b61123c565b60405161048d91906143f5565b60405180910390f35b3480156104a257600080fd5b506104ab6112aa565b6040516104b89190614c42565b60405180910390f35b3480156104cd57600080fd5b506104d66112ce565b6040516104e391906143f5565b60405180910390f35b3480156104f857600080fd5b50610513600480360381019061050e9190614c5d565b6112dd565b60405161052091906143f5565b60405180910390f35b34801561053557600080fd5b50610550600480360381019061054b919061472f565b611367565b60405161055d9190614d4f565b60405180910390f35b34801561057257600080fd5b5061058d60048036038101906105889190614d6a565b611379565b60405161059a91906143c1565b60405180910390f35b3480156105af57600080fd5b506105ca60048036038101906105c5919061472f565b6113e4565b6040516105d993929190614daa565b60405180910390f35b3480156105ee57600080fd5b506105f761141c565b60405161060491906147e4565b60405180910390f35b34801561061957600080fd5b50610634600480360381019061062f9190614de1565b611459565b60405161064191906143f5565b60405180910390f35b34801561065657600080fd5b50610671600480360381019061066c9190614e21565b61148a565b60405161067e91906143f5565b60405180910390f35b34801561069357600080fd5b506106ae60048036038101906106a9919061472f565b6114f4565b6040516106bb91906143f5565b60405180910390f35b3480156106d057600080fd5b506106eb60048036038101906106e6919061472f565b611641565b005b3480156106f957600080fd5b5061070261173d565b005b34801561071057600080fd5b5061072b60048036038101906107269190614ec5565b611751565b60405161073891906143f5565b60405180910390f35b34801561074d57600080fd5b5061076860048036038101906107639190614fda565b6117b9565b60405161077591906143f5565b60405180910390f35b34801561078a57600080fd5b506107936117d9565b6040516107a091906150c0565b60405180910390f35b3480156107b557600080fd5b506107be611803565b6040516107cb91906143f5565b60405180910390f35b3480156107e057600080fd5b506107fb60048036038101906107f691906150db565b61180c565b60405161080891906143f5565b60405180910390f35b34801561081d57600080fd5b50610826611822565b60405161083391906143f5565b60405180910390f35b34801561084857600080fd5b50610863600480360381019061085e919061519a565b611869565b005b34801561087157600080fd5b5061088c6004803603810190610887919061472f565b611965565b60405161089991906143f5565b60405180910390f35b3480156108ae57600080fd5b506108b7611a32565b6040516108c491906143f5565b60405180910390f35b3480156108d957600080fd5b506108f460048036038101906108ef91906151c7565b611a41565b60405161090191906148f6565b60405180910390f35b34801561091657600080fd5b50610931600480360381019061092c919061472f565b611a56565b60405161093e91906143f5565b60405180910390f35b610961600480360381019061095c91906152ec565b611ac4565b005b34801561096f57600080fd5b5061098a60048036038101906109859190614b78565b611c52565b60405161099791906143f5565b60405180910390f35b3480156109ac57600080fd5b506109b5611c8e565b6040516109c291906150c0565b60405180910390f35b3480156109d757600080fd5b506109e0611cb8565b6040516109ed91906147e4565b60405180910390f35b348015610a0257600080fd5b50610a0b611cf5565b604051610a189190614c42565b60405180910390f35b348015610a2d57600080fd5b50610a486004803603810190610a43919061472f565b611d19565b005b348015610a5657600080fd5b50610a716004803603810190610a6c9190615360565b611e15565b604051610a7e91906143f5565b60405180910390f35b348015610a9357600080fd5b50610aae6004803603810190610aa9919061472f565b611e31565b005b348015610abc57600080fd5b50610ad76004803603810190610ad291906153a0565b611f2d565b604051610ae491906148f6565b60405180910390f35b348015610af957600080fd5b50610b146004803603810190610b0f9190615437565b611f42565b005b348015610b2257600080fd5b50610b3d6004803603810190610b38919061472f565b611fc6565b604051610b4a91906143f5565b60405180910390f35b348015610b5f57600080fd5b50610b68611fd8565b604051610b7591906154c3565b60405180910390f35b6000610b88612192565b905090565b6000610b98826121bc565b9050919050565b6000610ba9612236565b905090565b600080610c31610c297fb3b3f3b703cd84ce352197dcff232b1b5d3cfb2025ce47cf04742d0651f1af888c8c8c8c604051610bea92919061550e565b60405180910390208b80519060200120604051602001610c0e959493929190615536565b60405160208183030381529060405280519060200120612240565b86868661225a565b9050610c848a828b8b8b8080601f016020809104026020016040519081016040528093929190818152602001838380828437600081840152601f19601f820116905080830192505050505050508a612285565b91505098975050505050505050565b610c9b610b7e565b73ffffffffffffffffffffffffffffffffffffffff16610cb9612442565b73ffffffffffffffffffffffffffffffffffffffff1614610d0f576040517f08c379a0000000000000000000000000000000000000000000000000000000008152600401610d06906155d5565b60405180910390fd5b3073ffffffffffffffffffffffffffffffffffffffff16610d2e610b7e565b73ffffffffffffffffffffffffffffffffffffffff1614610d83576000610d5361244a565b604051610d6192919061550e565b604051809103902090505b80610d776002612457565b14610d8157610d6c565b505b610d8c81612533565b50565b606060008054610d9e90615624565b80601f0160208091040260200160405190810160405280929190818152602001828054610dca90615624565b8015610e175780601f10610dec57610100808354040283529160200191610e17565b820191906000526020600020905b815481529060010190602001808311610dfa57829003601f168201915b5050505050905090565b600063150b7a0260e01b9050949350505050565b600080610e4486868686611c52565b905060046007811115610e5a57610e59614cd8565b5b610e6382611367565b6007811115610e7557610e74614cd8565b5b14610eb5576040517f08c379a0000000000000000000000000000000000000000000000000000000008152600401610eac906156c8565b60405180910390fd5b6000600a60009054906101000a900473ffffffffffffffffffffffffffffffffffffffff1673ffffffffffffffffffffffffffffffffffffffff1663f27a0c926040518163ffffffff1660e01b8152600401602060405180830381865afa158015610f24573d6000803e3d6000fd5b505050506040513d601f19601f82011682018060405250810190610f4891906156fd565b9050600a60009054906101000a900473ffffffffffffffffffffffffffffffffffffffff1673ffffffffffffffffffffffffffffffffffffffff1663b1c5f4278888886000896040518663ffffffff1660e01b8152600401610fae959493929190615a05565b602060405180830381865afa158015610fcb573d6000803e3d6000fd5b505050506040513d601f19601f82011682018060405250810190610fef9190615a82565b600b600084815260200190815260200160002081905550600a60009054906101000a900473ffffffffffffffffffffffffffffffffffffffff1673ffffffffffffffffffffffffffffffffffffffff16638f2a0bb0888888600089876040518763ffffffff1660e01b815260040161106c96959493929190615aaf565b600060405180830381600087803b15801561108657600080fd5b505af115801561109a573d6000803e3d6000fd5b505050507f9a2e42fd6722813d69113e7d0079d3d940171428df7373df9c7f7617cfda28928282426110cc9190615b54565b6040516110da929190615baa565b60405180910390a18192505050949350505050565b6000806110fe86868686611c52565b9050600061110b82611367565b90506004600781111561112157611120614cd8565b5b81600781111561113457611133614cd8565b5b148061116457506005600781111561114f5761114e614cd8565b5b81600781111561116257611161614cd8565b5b145b6111a3576040517f08c379a000000000000000000000000000000000000000000000000000000000815260040161119a906156c8565b60405180910390fd5b600180600084815260200190815260200160002060020160006101000a81548160ff0219169083151502179055507f712ae1383f79ac853f8d882153778e0260ef8f03b504e2866e0593e04d2b291f8260405161120091906143f5565b60405180910390a161121582888888886126e7565b61122282888888886127cb565b61122f82888888886127df565b8192505050949350505050565b6000611299600160008481526020019081526020016000206000016040518060200160405290816000820160009054906101000a900467ffffffffffffffff1667ffffffffffffffff1667ffffffffffffffff168152505061283a565b67ffffffffffffffff169050919050565b7fb3b3f3b703cd84ce352197dcff232b1b5d3cfb2025ce47cf04742d0651f1af8881565b60006112d8612848565b905090565b60008061133e6113367f150214d74d59b7d1e90c73fc22ef3d991dd0a76b046543d4d80ab92d2a50328f898960405160200161131b93929190615bd3565b60405160208183030381529060405280519060200120612240565b86868661225a565b905061135b87828860405180602001604052806000815250612852565b91505095945050505050565b600061137282612872565b9050919050565b60006007600084815260200190815260200160002060030160008373ffffffffffffffffffffffffffffffffffffffff1673ffffffffffffffffffffffffffffffffffffffff16815260200190815260200160002060009054906101000a900460ff16905092915050565b600080600080600760008681526020019081526020016000209050806000015481600101548260020154935093509350509193909250565b60606040518060400160405280600181526020017f3100000000000000000000000000000000000000000000000000000000000000815250905090565b600080611464612442565b905061148184828560405180602001604052806000815250612852565b91505092915050565b600080611495612442565b90506114e887828888888080601f016020809104026020016040519081016040528093929190818152602001838380828437600081840152601f19601f8201169050808301925050505050505087612285565b91505095945050505050565b600080600960000180549050905060008114156115165760085491505061163c565b6000600960000160018361152a9190615c0a565b8154811061153b5761153a615c3e565b5b906000526020600020016040518060400160405290816000820160009054906101000a900463ffffffff1663ffffffff1663ffffffff1681526020016000820160049054906101000a90047bffffffffffffffffffffffffffffffffffffffffffffffffffffffff167bffffffffffffffffffffffffffffffffffffffffffffffffffffffff167bffffffffffffffffffffffffffffffffffffffffffffffffffffffff1681525050905083816000015163ffffffff16116116235780602001517bffffffffffffffffffffffffffffffffffffffffffffffffffffffff169250505061163c565b611637846009612a4690919063ffffffff16565b925050505b919050565b611649610b7e565b73ffffffffffffffffffffffffffffffffffffffff16611667612442565b73ffffffffffffffffffffffffffffffffffffffff16146116bd576040517f08c379a00000000000000000000000000000000000000000000000000000000081526004016116b4906155d5565b60405180910390fd5b3073ffffffffffffffffffffffffffffffffffffffff166116dc610b7e565b73ffffffffffffffffffffffffffffffffffffffff161461173157600061170161244a565b60405161170f92919061550e565b604051809103902090505b806117256002612457565b1461172f5761171a565b505b61173a81612b35565b50565b611745612b7a565b61174f6000612bf8565b565b60008061175c612442565b90506117ae86828787878080601f016020809104026020016040519081016040528093929190818152602001838380828437600081840152601f19601f82011690508083019250505050505050612852565b915050949350505050565b60006117c3612b7a565b6117cf85858585612cbe565b9050949350505050565b6000600c60009054906101000a900473ffffffffffffffffffffffffffffffffffffffff16905090565b60006064905090565b6000611819848484612fc5565b90509392505050565b600080600960000180549050146118605761183d60096120d5565b7bffffffffffffffffffffffffffffffffffffffffffffffffffffffff16611864565b6008545b905090565b611871610b7e565b73ffffffffffffffffffffffffffffffffffffffff1661188f612442565b73ffffffffffffffffffffffffffffffffffffffff16146118e5576040517f08c379a00000000000000000000000000000000000000000000000000000000081526004016118dc906155d5565b60405180910390fd5b3073ffffffffffffffffffffffffffffffffffffffff16611904610b7e565b73ffffffffffffffffffffffffffffffffffffffff161461195957600061192961244a565b60405161193792919061550e565b604051809103902090505b8061194d6002612457565b1461195757611942565b505b6119628161306c565b50565b600080600a60009054906101000a900473ffffffffffffffffffffffffffffffffffffffff1673ffffffffffffffffffffffffffffffffffffffff1663d45c4435600b6000868152602001908152602001600020546040518263ffffffff1660e01b81526004016119d69190614c42565b602060405180830381865afa1580156119f3573d6000803e3d6000fd5b505050506040513d601f19601f82011682018060405250810190611a1791906156fd565b905060018114611a275780611a2a565b60005b915050919050565b6000611a3c61310b565b905090565b600063bc197c8160e01b905095945050505050565b6000611ab3600160008481526020019081526020016000206001016040518060200160405290816000820160009054906101000a900467ffffffffffffffff1667ffffffffffffffff1667ffffffffffffffff168152505061283a565b67ffffffffffffffff169050919050565b611acc610b7e565b73ffffffffffffffffffffffffffffffffffffffff16611aea612442565b73ffffffffffffffffffffffffffffffffffffffff1614611b40576040517f08c379a0000000000000000000000000000000000000000000000000000000008152600401611b37906155d5565b60405180910390fd5b3073ffffffffffffffffffffffffffffffffffffffff16611b5f610b7e565b73ffffffffffffffffffffffffffffffffffffffff1614611bb4576000611b8461244a565b604051611b9292919061550e565b604051809103902090505b80611ba86002612457565b14611bb257611b9d565b505b6000808573ffffffffffffffffffffffffffffffffffffffff16858585604051611bdf92919061550e565b60006040518083038185875af1925050503d8060008114611c1c576040519150601f19603f3d011682016040523d82523d6000602084013e611c21565b606091505b5091509150611c498282604051806060016040528060288152602001616d7760289139613115565b50505050505050565b600084848484604051602001611c6b9493929190615c6d565b6040516020818303038152906040528051906020012060001c9050949350505050565b6000600a60009054906101000a900473ffffffffffffffffffffffffffffffffffffffff16905090565b60606040518060400160405280602081526020017f737570706f72743d627261766f2671756f72756d3d666f722c6162737461696e815250905090565b7f150214d74d59b7d1e90c73fc22ef3d991dd0a76b046543d4d80ab92d2a50328f81565b611d21610b7e565b73ffffffffffffffffffffffffffffffffffffffff16611d3f612442565b73ffffffffffffffffffffffffffffffffffffffff1614611d95576040517f08c379a0000000000000000000000000000000000000000000000000000000008152600401611d8c906155d5565b60405180910390fd5b3073ffffffffffffffffffffffffffffffffffffffff16611db4610b7e565b73ffffffffffffffffffffffffffffffffffffffff1614611e09576000611dd961244a565b604051611de792919061550e565b604051809103902090505b80611dfd6002612457565b14611e0757611df2565b505b611e1281613137565b50565b6000611e298383611e246131bf565b612fc5565b905092915050565b611e39610b7e565b73ffffffffffffffffffffffffffffffffffffffff16611e57612442565b73ffffffffffffffffffffffffffffffffffffffff1614611ead576040517f08c379a0000000000000000000000000000000000000000000000000000000008152600401611ea4906155d5565b60405180910390fd5b3073ffffffffffffffffffffffffffffffffffffffff16611ecc610b7e565b73ffffffffffffffffffffffffffffffffffffffff1614611f21576000611ef161244a565b604051611eff92919061550e565b604051809103902090505b80611f156002612457565b14611f1f57611f0a565b505b611f2a816131d6565b50565b600063f23a6e6160e01b905095945050505050565b611f4a612b7a565b600073ffffffffffffffffffffffffffffffffffffffff168173ffffffffffffffffffffffffffffffffffffffff161415611fba576040517f08c379a0000000000000000000000000000000000000000000000000000000008152600401611fb190615d39565b60405180910390fd5b611fc381612bf8565b50565b6000611fd18261321b565b9050919050565b7f000000000000000000000000000000000000000000000000000000000000000081565b60007bffffffffffffffffffffffffffffffffffffffffffffffffffffffff801682111561205f576040517f08c379a000000000000000000000000000000000000000000000000000000000815260040161205690615dcb565b60405180910390fd5b819050919050565b6000806120888460000161207a4361213f565b61208386611ffc565b6132e3565b817bffffffffffffffffffffffffffffffffffffffffffffffffffffffff169150807bffffffffffffffffffffffffffffffffffffffffffffffffffffffff169050915091509250929050565b600080826000018054905090506000811461213457612103836000016001836120fe9190615c0a565b61366a565b60000160049054906101000a90047bffffffffffffffffffffffffffffffffffffffffffffffffffffffff16612137565b60005b915050919050565b600063ffffffff801682111561218a576040517f08c379a000000000000000000000000000000000000000000000000000000000815260040161218190615e5d565b60405180910390fd5b819050919050565b6000600a60009054906101000a900473ffffffffffffffffffffffffffffffffffffffff16905090565b60007f6e665ced000000000000000000000000000000000000000000000000000000007bffffffffffffffffffffffffffffffffffffffffffffffffffffffff1916827bffffffffffffffffffffffffffffffffffffffffffffffffffffffff1916148061222f575061222e8261367f565b5b9050919050565b6000600554905090565b600061225361224d6137e4565b836138fe565b9050919050565b600080600061226b87878787613931565b9150915061227881613a14565b8192505050949350505050565b600080600160008881526020019081526020016000209050600160078111156122b1576122b0614cd8565b5b6122ba88611367565b60078111156122cc576122cb614cd8565b5b1461230c576040517f08c379a000000000000000000000000000000000000000000000000000000000815260040161230390615eef565b60405180910390fd5b600061236b8761235b846000016040518060200160405290816000820160009054906101000a900467ffffffffffffffff1667ffffffffffffffff1667ffffffffffffffff168152505061283a565b67ffffffffffffffff1686612fc5565b905061237a8888888488613b82565b6000845114156123dd578673ffffffffffffffffffffffffffffffffffffffff167fb8e138887d0aa13bab447e82de9d5c1777041ecd21ca36ba824ff1e6c07ddda4898884896040516123d09493929190615f0f565b60405180910390a2612434565b8673ffffffffffffffffffffffffffffffffffffffff167fe2babfbac5889a709b63bb7f598b324e08bc5a4fb9ec647fb3cbc9ec07eb8712898884898960405161242b959493929190615fa5565b60405180910390a25b809250505095945050505050565b600033905090565b3660008036915091509091565b600061246282613d89565b15612499576040517f3db2a12a00000000000000000000000000000000000000000000000000000000815260040160405180910390fd5b60008260000160009054906101000a9004600f0b905082600101600082600f0b600f0b815260200190815260200160002054915082600101600082600f0b600f0b815260200190815260200160002060009055600181018360000160006101000a8154816fffffffffffffffffffffffffffffffff0219169083600f0b6fffffffffffffffffffffffffffffffff16021790555050919050565b61253b611803565b81111561257d576040517f08c379a00000000000000000000000000000000000000000000000000000000081526004016125749061609e565b60405180910390fd5b6000612587611822565b9050600081141580156125a257506000600960000180549050145b156126945760096000016040518060400160405280600063ffffffff1681526020016125cd84611ffc565b7bffffffffffffffffffffffffffffffffffffffffffffffffffffffff168152509080600181540180825580915050600190039060005260206000200160009091909190915060008201518160000160006101000a81548163ffffffff021916908363ffffffff16021790555060208201518160000160046101000a8154817bffffffffffffffffffffffffffffffffffffffffffffffffffffffff02191690837bffffffffffffffffffffffffffffffffffffffffffffffffffffffff16021790555050505b6126a882600961206790919063ffffffff16565b50507f0553476bf02ef2726e8ce5ced78d63e26e602e4a2257b1f559418e24b463399781836040516126db929190615baa565b60405180910390a15050565b3073ffffffffffffffffffffffffffffffffffffffff16612706610b7e565b73ffffffffffffffffffffffffffffffffffffffff16146127c45760005b84518110156127c2573073ffffffffffffffffffffffffffffffffffffffff1685828151811061275757612756615c3e565b5b602002602001015173ffffffffffffffffffffffffffffffffffffffff1614156127b1576127b083828151811061279157612790615c3e565b5b6020026020010151805190602001206002613dbe90919063ffffffff16565b5b806127bb906160be565b9050612724565b505b5050505050565b6127d88585858585613e3a565b5050505050565b3073ffffffffffffffffffffffffffffffffffffffff166127fe610b7e565b73ffffffffffffffffffffffffffffffffffffffff1614612833576128236002613d89565b612832576128316002613ed8565b5b5b5050505050565b600081600001519050919050565b6000600454905090565b6000612868858585856128636131bf565b612285565b9050949350505050565b60008061287e83613f59565b90506004600781111561289457612893614cd8565b5b8160078111156128a7576128a6614cd8565b5b146128b55780915050612a41565b6000600b60008581526020019081526020016000205490506000801b8114156128e2578192505050612a41565b600a60009054906101000a900473ffffffffffffffffffffffffffffffffffffffff1673ffffffffffffffffffffffffffffffffffffffff16632ab0f529826040518263ffffffff1660e01b815260040161293d9190614c42565b602060405180830381865afa15801561295a573d6000803e3d6000fd5b505050506040513d601f19601f8201168201806040525081019061297e9190616133565b1561298e57600792505050612a41565b600a60009054906101000a900473ffffffffffffffffffffffffffffffffffffffff1673ffffffffffffffffffffffffffffffffffffffff1663584b153e826040518263ffffffff1660e01b81526004016129e99190614c42565b602060405180830381865afa158015612a06573d6000803e3d6000fd5b505050506040513d601f19601f82011682018060405250810190612a2a9190616133565b15612a3a57600592505050612a41565b6002925050505b919050565b6000438210612a8a576040517f08c379a0000000000000000000000000000000000000000000000000000000008152600401612a81906161ac565b60405180910390fd5b6000612a958361213f565b90506000846000018054905090506000612ab5866000018460008561406e565b905060008114612b0957612ad886600001600183612ad39190615c0a565b61366a565b60000160049054906101000a90047bffffffffffffffffffffffffffffffffffffffffffffffffffffffff16612b0c565b60005b7bffffffffffffffffffffffffffffffffffffffffffffffffffffffff16935050505092915050565b7fc565b045403dc03c2eea82b81a0465edad9e2e7fc4d97e11421c209da93d7a9360045482604051612b68929190615baa565b60405180910390a18060048190555050565b612b82612442565b73ffffffffffffffffffffffffffffffffffffffff16612ba06117d9565b73ffffffffffffffffffffffffffffffffffffffff1614612bf6576040517f08c379a0000000000000000000000000000000000000000000000000000000008152600401612bed90616218565b60405180910390fd5b565b6000600c60009054906101000a900473ffffffffffffffffffffffffffffffffffffffff16905081600c60006101000a81548173ffffffffffffffffffffffffffffffffffffffff021916908373ffffffffffffffffffffffffffffffffffffffff1602179055508173ffffffffffffffffffffffffffffffffffffffff168173ffffffffffffffffffffffffffffffffffffffff167f8be0079c531659141344cd1fd0a4f28419497f9722a3daafe3b4186f6b6457e060405160405180910390a35050565b6000612cc8611a32565b612ce5612cd3612442565b600143612ce09190615c0a565b611e15565b1015612d26576040517f08c379a0000000000000000000000000000000000000000000000000000000008152600401612d1d906162aa565b60405180910390fd5b6000612d3b8686868680519060200120611c52565b90508451865114612d81576040517f08c379a0000000000000000000000000000000000000000000000000000000008152600401612d789061633c565b60405180910390fd5b8351865114612dc5576040517f08c379a0000000000000000000000000000000000000000000000000000000008152600401612dbc9061633c565b60405180910390fd5b6000865111612e09576040517f08c379a0000000000000000000000000000000000000000000000000000000008152600401612e00906163a8565b60405180910390fd5b6000600160008381526020019081526020016000209050612e69816000016040518060200160405290816000820160009054906101000a900467ffffffffffffffff1667ffffffffffffffff1667ffffffffffffffff16815250506140e1565b612ea8576040517f08c379a0000000000000000000000000000000000000000000000000000000008152600401612e9f9061643a565b60405180910390fd5b6000612eba612eb56112ce565b6140fb565b612ec3436140fb565b612ecd919061646e565b90506000612ee1612edc610b9f565b6140fb565b82612eec919061646e565b9050612f04828460000161415290919063ffffffff16565b612f1a818460010161415290919063ffffffff16565b7f7d84a6263ae0d98d3329bd7b46bb4e8d6f98cd35a7adb45c274c8b7fd5ebd5e084612f44612442565b8b8b8d5167ffffffffffffffff811115612f6157612f606144f0565b5b604051908082528060200260200182016040528015612f9457816020015b6060815260200190600190039081612f7f5790505b508c88888e604051612fae999897969594939291906165e9565b60405180910390a183945050505050949350505050565b60007f000000000000000000000000000000000000000000000000000000000000000073ffffffffffffffffffffffffffffffffffffffff16633a46b1a885856040518363ffffffff1660e01b8152600401613022929190616699565b602060405180830381865afa15801561303f573d6000803e3d6000fd5b505050506040513d601f19601f8201168201806040525081019061306391906156fd565b90509392505050565b7f08f74ea46ef7894f65eabfb5e6e695de773a000b47c529ab559178069b226401600a60009054906101000a900473ffffffffffffffffffffffffffffffffffffffff16826040516130bf9291906166c2565b60405180910390a180600a60006101000a81548173ffffffffffffffffffffffffffffffffffffffff021916908373ffffffffffffffffffffffffffffffffffffffff16021790555050565b6000600654905090565b6060831561312557829050613130565b61312f8383614181565b5b9392505050565b6000811161317a576040517f08c379a00000000000000000000000000000000000000000000000000000000081526004016131719061675d565b60405180910390fd5b7f7e3f7f0708a84de9203036abaa450dccc85ad5ff52f78c170f3edb55cf5e8828600554826040516131ad929190615baa565b60405180910390a18060058190555050565b606060405180602001604052806000815250905090565b7fccb45da8d5717e6c4544694297c4ba5cf151d455c9bb0ed4fc7a38411bc0546160065482604051613209929190615baa565b60405180910390a18060068190555050565b6000613225611803565b61322e836114f4565b7f000000000000000000000000000000000000000000000000000000000000000073ffffffffffffffffffffffffffffffffffffffff16638e539e8c856040518263ffffffff1660e01b815260040161328791906143f5565b602060405180830381865afa1580156132a4573d6000803e3d6000fd5b505050506040513d601f19601f820116820180604052508101906132c891906156fd565b6132d2919061677d565b6132dc9190616806565b9050919050565b600080600085805490509050600081111561357a5760006133108760018461330b9190615c0a565b61366a565b6040518060400160405290816000820160009054906101000a900463ffffffff1663ffffffff1663ffffffff1681526020016000820160049054906101000a90047bffffffffffffffffffffffffffffffffffffffffffffffffffffffff167bffffffffffffffffffffffffffffffffffffffffffffffffffffffff167bffffffffffffffffffffffffffffffffffffffffffffffffffffffff168152505090508563ffffffff16816000015163ffffffff161115613404576040517f08c379a00000000000000000000000000000000000000000000000000000000081526004016133fb90616883565b60405180910390fd5b8563ffffffff16816000015163ffffffff16141561348957846134338860018561342e9190615c0a565b61366a565b60000160046101000a8154817bffffffffffffffffffffffffffffffffffffffffffffffffffffffff02191690837bffffffffffffffffffffffffffffffffffffffffffffffffffffffff160217905550613569565b8660405180604001604052808863ffffffff168152602001877bffffffffffffffffffffffffffffffffffffffffffffffffffffffff168152509080600181540180825580915050600190039060005260206000200160009091909190915060008201518160000160006101000a81548163ffffffff021916908363ffffffff16021790555060208201518160000160046101000a8154817bffffffffffffffffffffffffffffffffffffffffffffffffffffffff02191690837bffffffffffffffffffffffffffffffffffffffffffffffffffffffff16021790555050505b806020015185935093505050613662565b8560405180604001604052808763ffffffff168152602001867bffffffffffffffffffffffffffffffffffffffffffffffffffffffff168152509080600181540180825580915050600190039060005260206000200160009091909190915060008201518160000160006101000a81548163ffffffff021916908363ffffffff16021790555060208201518160000160046101000a8154817bffffffffffffffffffffffffffffffffffffffffffffffffffffffff02191690837bffffffffffffffffffffffffffffffffffffffffffffffffffffffff160217905550505060008492509250505b935093915050565b60008260005281602060002001905092915050565b6000639a802a6d60e01b630342018160e01b635f398a1460e01b7f79dd796f000000000000000000000000000000000000000000000000000000001818187bffffffffffffffffffffffffffffffffffffffffffffffffffffffff1916827bffffffffffffffffffffffffffffffffffffffffffffffffffffffff1916148061376557507f79dd796f000000000000000000000000000000000000000000000000000000007bffffffffffffffffffffffffffffffffffffffffffffffffffffffff1916827bffffffffffffffffffffffffffffffffffffffffffffffffffffffff1916145b806137cd57507f4e2312e0000000000000000000000000000000000000000000000000000000007bffffffffffffffffffffffffffffffffffffffffffffffffffffffff1916827bffffffffffffffffffffffffffffffffffffffffffffffffffffffff1916145b806137dd57506137dc826141d1565b5b9050919050565b60007f000000000000000000000000000000000000000000000000000000000000000073ffffffffffffffffffffffffffffffffffffffff163073ffffffffffffffffffffffffffffffffffffffff1614801561386057507f000000000000000000000000000000000000000000000000000000000000000046145b1561388d577f000000000000000000000000000000000000000000000000000000000000000090506138fb565b6138f87f00000000000000000000000000000000000000000000000000000000000000007f00000000000000000000000000000000000000000000000000000000000000007f000000000000000000000000000000000000000000000000000000000000000061423b565b90505b90565b6000828260405160200161391392919061691b565b60405160208183030381529060405280519060200120905092915050565b6000807f7fffffffffffffffffffffffffffffff5d576e7357a4501ddfe92f46681b20a08360001c111561396c576000600391509150613a0b565b6000600187878787604051600081526020016040526040516139919493929190616952565b6020604051602081039080840390855afa1580156139b3573d6000803e3d6000fd5b505050602060405103519050600073ffffffffffffffffffffffffffffffffffffffff168173ffffffffffffffffffffffffffffffffffffffff161415613a0257600060019250925050613a0b565b80600092509250505b94509492505050565b60006004811115613a2857613a27614cd8565b5b816004811115613a3b57613a3a614cd8565b5b1415613a4657613b7f565b60016004811115613a5a57613a59614cd8565b5b816004811115613a6d57613a6c614cd8565b5b1415613aae576040517f08c379a0000000000000000000000000000000000000000000000000000000008152600401613aa5906169e3565b60405180910390fd5b60026004811115613ac257613ac1614cd8565b5b816004811115613ad557613ad4614cd8565b5b1415613b16576040517f08c379a0000000000000000000000000000000000000000000000000000000008152600401613b0d90616a4f565b60405180910390fd5b60036004811115613b2a57613b29614cd8565b5b816004811115613b3d57613b3c614cd8565b5b1415613b7e576040517f08c379a0000000000000000000000000000000000000000000000000000000008152600401613b7590616ae1565b60405180910390fd5b5b50565b60006007600087815260200190815260200160002090508060030160008673ffffffffffffffffffffffffffffffffffffffff1673ffffffffffffffffffffffffffffffffffffffff16815260200190815260200160002060009054906101000a900460ff1615613c28576040517f08c379a0000000000000000000000000000000000000000000000000000000008152600401613c1f90616b73565b60405180910390fd5b60018160030160008773ffffffffffffffffffffffffffffffffffffffff1673ffffffffffffffffffffffffffffffffffffffff16815260200190815260200160002060006101000a81548160ff02191690831515021790555060006002811115613c9657613c95614cd8565b5b60ff168460ff161415613cc35782816000016000828254613cb79190615b54565b92505081905550613d81565b60016002811115613cd757613cd6614cd8565b5b60ff168460ff161415613d045782816001016000828254613cf89190615b54565b92505081905550613d80565b600280811115613d1757613d16614cd8565b5b60ff168460ff161415613d445782816002016000828254613d389190615b54565b92505081905550613d7f565b6040517f08c379a0000000000000000000000000000000000000000000000000000000008152600401613d7690616c05565b60405180910390fd5b5b5b505050505050565b60008160000160009054906101000a9004600f0b600f0b8260000160109054906101000a9004600f0b600f0b13159050919050565b60008260000160109054906101000a9004600f0b90508183600101600083600f0b600f0b815260200190815260200160002081905550600181018360000160106101000a8154816fffffffffffffffffffffffffffffffff0219169083600f0b6fffffffffffffffffffffffffffffffff160217905550505050565b600a60009054906101000a900473ffffffffffffffffffffffffffffffffffffffff1673ffffffffffffffffffffffffffffffffffffffff1663e38335e5348686866000876040518763ffffffff1660e01b8152600401613e9f959493929190615a05565b6000604051808303818588803b158015613eb857600080fd5b505af1158015613ecc573d6000803e3d6000fd5b50505050505050505050565b60008160000160006101000a8154816fffffffffffffffffffffffffffffffff0219169083600f0b6fffffffffffffffffffffffffffffffff16021790555060008160000160106101000a8154816fffffffffffffffffffffffffffffffff0219169083600f0b6fffffffffffffffffffffffffffffffff16021790555050565b6000806001600084815260200190815260200160002090508060020160009054906101000a900460ff1615613f92576007915050614069565b8060020160019054906101000a900460ff1615613fb3576002915050614069565b6000613fbe8461123c565b90506000811415614004576040517f08c379a0000000000000000000000000000000000000000000000000000000008152600401613ffb90616c71565b60405180910390fd5b43811061401657600092505050614069565b600061402185611a56565b90504381106140365760019350505050614069565b61403f85614275565b8015614050575061404f856142bc565b5b156140615760049350505050614069565b600393505050505b919050565b60005b818310156140d657600061408584846142e7565b90508463ffffffff16614098878361366a565b60000160009054906101000a900463ffffffff1663ffffffff1611156140c0578092506140d0565b6001816140cd9190615b54565b93505b50614071565b819050949350505050565b600080826000015167ffffffffffffffff16149050919050565b600067ffffffffffffffff801682111561414a576040517f08c379a000000000000000000000000000000000000000000000000000000000815260040161414190616d03565b60405180910390fd5b819050919050565b808260000160006101000a81548167ffffffffffffffff021916908367ffffffffffffffff1602179055505050565b6000825111156141945781518083602001fd5b806040517f08c379a00000000000000000000000000000000000000000000000000000000081526004016141c891906147e4565b60405180910390fd5b60007f01ffc9a7000000000000000000000000000000000000000000000000000000007bffffffffffffffffffffffffffffffffffffffffffffffffffffffff1916827bffffffffffffffffffffffffffffffffffffffffffffffffffffffff1916149050919050565b60008383834630604051602001614256959493929190616d23565b6040516020818303038152906040528051906020012090509392505050565b600080600760008481526020019081526020016000209050806002015481600101546142a19190615b54565b6142b26142ad8561123c565b611fc6565b1115915050919050565b6000806007600084815260200190815260200160002090508060000154816001015411915050919050565b600060028284186142f89190616806565b8284166143059190615b54565b905092915050565b6000604051905090565b600080fd5b600080fd5b60007fffffffff0000000000000000000000000000000000000000000000000000000082169050919050565b61435681614321565b811461436157600080fd5b50565b6000813590506143738161434d565b92915050565b60006020828403121561438f5761438e614317565b5b600061439d84828501614364565b91505092915050565b60008115159050919050565b6143bb816143a6565b82525050565b60006020820190506143d660008301846143b2565b92915050565b6000819050919050565b6143ef816143dc565b82525050565b600060208201905061440a60008301846143e6565b92915050565b614419816143dc565b811461442457600080fd5b50565b60008135905061443681614410565b92915050565b600060ff82169050919050565b6144528161443c565b811461445d57600080fd5b50565b60008135905061446f81614449565b92915050565b600080fd5b600080fd5b600080fd5b60008083601f84011261449a57614499614475565b5b8235905067ffffffffffffffff8111156144b7576144b661447a565b5b6020830191508360018202830111156144d3576144d261447f565b5b9250929050565b600080fd5b6000601f19601f8301169050919050565b7f4e487b7100000000000000000000000000000000000000000000000000000000600052604160045260246000fd5b614528826144df565b810181811067ffffffffffffffff82111715614547576145466144f0565b5b80604052505050565b600061455a61430d565b9050614566828261451f565b919050565b600067ffffffffffffffff821115614586576145856144f0565b5b61458f826144df565b9050602081019050919050565b82818337600083830152505050565b60006145be6145b98461456b565b614550565b9050828152602081018484840111156145da576145d96144da565b5b6145e584828561459c565b509392505050565b600082601f83011261460257614601614475565b5b81356146128482602086016145ab565b91505092915050565b6000819050919050565b61462e8161461b565b811461463957600080fd5b50565b60008135905061464b81614625565b92915050565b60008060008060008060008060e0898b03121561467157614670614317565b5b600061467f8b828c01614427565b98505060206146908b828c01614460565b975050604089013567ffffffffffffffff8111156146b1576146b061431c565b5b6146bd8b828c01614484565b9650965050606089013567ffffffffffffffff8111156146e0576146df61431c565b5b6146ec8b828c016145ed565b94505060806146fd8b828c01614460565b93505060a061470e8b828c0161463c565b92505060c061471f8b828c0161463c565b9150509295985092959890939650565b60006020828403121561474557614744614317565b5b600061475384828501614427565b91505092915050565b600081519050919050565b600082825260208201905092915050565b60005b8381101561479657808201518184015260208101905061477b565b838111156147a5576000848401525b50505050565b60006147b68261475c565b6147c08185614767565b93506147d0818560208601614778565b6147d9816144df565b840191505092915050565b600060208201905081810360008301526147fe81846147ab565b905092915050565b600073ffffffffffffffffffffffffffffffffffffffff82169050919050565b600061483182614806565b9050919050565b61484181614826565b811461484c57600080fd5b50565b60008135905061485e81614838565b92915050565b6000806000806080858703121561487e5761487d614317565b5b600061488c8782880161484f565b945050602061489d8782880161484f565b93505060406148ae87828801614427565b925050606085013567ffffffffffffffff8111156148cf576148ce61431c565b5b6148db878288016145ed565b91505092959194509250565b6148f081614321565b82525050565b600060208201905061490b60008301846148e7565b92915050565b600067ffffffffffffffff82111561492c5761492b6144f0565b5b602082029050602081019050919050565b600061495061494b84614911565b614550565b905080838252602082019050602084028301858111156149735761497261447f565b5b835b8181101561499c5780614988888261484f565b845260208401935050602081019050614975565b5050509392505050565b600082601f8301126149bb576149ba614475565b5b81356149cb84826020860161493d565b91505092915050565b600067ffffffffffffffff8211156149ef576149ee6144f0565b5b602082029050602081019050919050565b6000614a13614a0e846149d4565b614550565b90508083825260208201905060208402830185811115614a3657614a3561447f565b5b835b81811015614a5f5780614a4b8882614427565b845260208401935050602081019050614a38565b5050509392505050565b600082601f830112614a7e57614a7d614475565b5b8135614a8e848260208601614a00565b91505092915050565b600067ffffffffffffffff821115614ab257614ab16144f0565b5b602082029050602081019050919050565b6000614ad6614ad184614a97565b614550565b90508083825260208201905060208402830185811115614af957614af861447f565b5b835b81811015614b4057803567ffffffffffffffff811115614b1e57614b1d614475565b5b808601614b2b89826145ed565b85526020850194505050602081019050614afb565b5050509392505050565b600082601f830112614b5f57614b5e614475565b5b8135614b6f848260208601614ac3565b91505092915050565b60008060008060808587031215614b9257614b91614317565b5b600085013567ffffffffffffffff811115614bb057614baf61431c565b5b614bbc878288016149a6565b945050602085013567ffffffffffffffff811115614bdd57614bdc61431c565b5b614be987828801614a69565b935050604085013567ffffffffffffffff811115614c0a57614c0961431c565b5b614c1687828801614b4a565b9250506060614c278782880161463c565b91505092959194509250565b614c3c8161461b565b82525050565b6000602082019050614c576000830184614c33565b92915050565b600080600080600060a08688031215614c7957614c78614317565b5b6000614c8788828901614427565b9550506020614c9888828901614460565b9450506040614ca988828901614460565b9350506060614cba8882890161463c565b9250506080614ccb8882890161463c565b9150509295509295909350565b7f4e487b7100000000000000000000000000000000000000000000000000000000600052602160045260246000fd5b60088110614d1857614d17614cd8565b5b50565b6000819050614d2982614d07565b919050565b6000614d3982614d1b565b9050919050565b614d4981614d2e565b82525050565b6000602082019050614d646000830184614d40565b92915050565b60008060408385031215614d8157614d80614317565b5b6000614d8f85828601614427565b9250506020614da08582860161484f565b9150509250929050565b6000606082019050614dbf60008301866143e6565b614dcc60208301856143e6565b614dd960408301846143e6565b949350505050565b60008060408385031215614df857614df7614317565b5b6000614e0685828601614427565b9250506020614e1785828601614460565b9150509250929050565b600080600080600060808688031215614e3d57614e3c614317565b5b6000614e4b88828901614427565b9550506020614e5c88828901614460565b945050604086013567ffffffffffffffff811115614e7d57614e7c61431c565b5b614e8988828901614484565b9350935050606086013567ffffffffffffffff811115614eac57614eab61431c565b5b614eb8888289016145ed565b9150509295509295909350565b60008060008060608587031215614edf57614ede614317565b5b6000614eed87828801614427565b9450506020614efe87828801614460565b935050604085013567ffffffffffffffff811115614f1f57614f1e61431c565b5b614f2b87828801614484565b925092505092959194509250565b600067ffffffffffffffff821115614f5457614f536144f0565b5b614f5d826144df565b9050602081019050919050565b6000614f7d614f7884614f39565b614550565b905082815260208101848484011115614f9957614f986144da565b5b614fa484828561459c565b509392505050565b600082601f830112614fc157614fc0614475565b5b8135614fd1848260208601614f6a565b91505092915050565b60008060008060808587031215614ff457614ff3614317565b5b600085013567ffffffffffffffff8111156150125761501161431c565b5b61501e878288016149a6565b945050602085013567ffffffffffffffff81111561503f5761503e61431c565b5b61504b87828801614a69565b935050604085013567ffffffffffffffff81111561506c5761506b61431c565b5b61507887828801614b4a565b925050606085013567ffffffffffffffff8111156150995761509861431c565b5b6150a587828801614fac565b91505092959194509250565b6150ba81614826565b82525050565b60006020820190506150d560008301846150b1565b92915050565b6000806000606084860312156150f4576150f3614317565b5b60006151028682870161484f565b935050602061511386828701614427565b925050604084013567ffffffffffffffff8111156151345761513361431c565b5b615140868287016145ed565b9150509250925092565b600061515582614806565b9050919050565b60006151678261514a565b9050919050565b6151778161515c565b811461518257600080fd5b50565b6000813590506151948161516e565b92915050565b6000602082840312156151b0576151af614317565b5b60006151be84828501615185565b91505092915050565b600080600080600060a086880312156151e3576151e2614317565b5b60006151f18882890161484f565b95505060206152028882890161484f565b945050604086013567ffffffffffffffff8111156152235761522261431c565b5b61522f88828901614a69565b935050606086013567ffffffffffffffff8111156152505761524f61431c565b5b61525c88828901614a69565b925050608086013567ffffffffffffffff81111561527d5761527c61431c565b5b615289888289016145ed565b9150509295509295909350565b60008083601f8401126152ac576152ab614475565b5b8235905067ffffffffffffffff8111156152c9576152c861447a565b5b6020830191508360018202830111156152e5576152e461447f565b5b9250929050565b6000806000806060858703121561530657615305614317565b5b60006153148782880161484f565b945050602061532587828801614427565b935050604085013567ffffffffffffffff8111156153465761534561431c565b5b61535287828801615296565b925092505092959194509250565b6000806040838503121561537757615376614317565b5b60006153858582860161484f565b925050602061539685828601614427565b9150509250929050565b600080600080600060a086880312156153bc576153bb614317565b5b60006153ca8882890161484f565b95505060206153db8882890161484f565b94505060406153ec88828901614427565b93505060606153fd88828901614427565b925050608086013567ffffffffffffffff81111561541e5761541d61431c565b5b61542a888289016145ed565b9150509295509295909350565b60006020828403121561544d5761544c614317565b5b600061545b8482850161484f565b91505092915050565b6000819050919050565b600061548961548461547f84614806565b615464565b614806565b9050919050565b600061549b8261546e565b9050919050565b60006154ad82615490565b9050919050565b6154bd816154a2565b82525050565b60006020820190506154d860008301846154b4565b92915050565b600081905092915050565b60006154f583856154de565b935061550283858461459c565b82840190509392505050565b600061551b8284866154e9565b91508190509392505050565b6155308161443c565b82525050565b600060a08201905061554b6000830188614c33565b61555860208301876143e6565b6155656040830186615527565b6155726060830185614c33565b61557f6080830184614c33565b9695505050505050565b7f476f7665726e6f723a206f6e6c79476f7665726e616e63650000000000000000600082015250565b60006155bf601883614767565b91506155ca82615589565b602082019050919050565b600060208201905081810360008301526155ee816155b2565b9050919050565b7f4e487b7100000000000000000000000000000000000000000000000000000000600052602260045260246000fd5b6000600282049050600182168061563c57607f821691505b602082108114156156505761564f6155f5565b5b50919050565b7f476f7665726e6f723a2070726f706f73616c206e6f742073756363657373667560008201527f6c00000000000000000000000000000000000000000000000000000000000000602082015250565b60006156b2602183614767565b91506156bd82615656565b604082019050919050565b600060208201905081810360008301526156e1816156a5565b9050919050565b6000815190506156f781614410565b92915050565b60006020828403121561571357615712614317565b5b6000615721848285016156e8565b91505092915050565b600081519050919050565b600082825260208201905092915050565b6000819050602082019050919050565b61575f81614826565b82525050565b60006157718383615756565b60208301905092915050565b6000602082019050919050565b60006157958261572a565b61579f8185615735565b93506157aa83615746565b8060005b838110156157db5781516157c28882615765565b97506157cd8361577d565b9250506001810190506157ae565b5085935050505092915050565b600081519050919050565b600082825260208201905092915050565b6000819050602082019050919050565b61581d816143dc565b82525050565b600061582f8383615814565b60208301905092915050565b6000602082019050919050565b6000615853826157e8565b61585d81856157f3565b935061586883615804565b8060005b838110156158995781516158808882615823565b975061588b8361583b565b92505060018101905061586c565b5085935050505092915050565b600081519050919050565b600082825260208201905092915050565b6000819050602082019050919050565b600081519050919050565b600082825260208201905092915050565b60006158f9826158d2565b61590381856158dd565b9350615913818560208601614778565b61591c816144df565b840191505092915050565b600061593383836158ee565b905092915050565b6000602082019050919050565b6000615953826158a6565b61595d81856158b1565b93508360208202850161596f856158c2565b8060005b858110156159ab578484038952815161598c8582615927565b94506159978361593b565b925060208a01995050600181019050615973565b50829750879550505050505092915050565b6000819050919050565b60008160001b9050919050565b60006159ef6159ea6159e5846159bd565b6159c7565b61461b565b9050919050565b6159ff816159d4565b82525050565b600060a0820190508181036000830152615a1f818861578a565b90508181036020830152615a338187615848565b90508181036040830152615a478186615948565b9050615a5660608301856159f6565b615a636080830184614c33565b9695505050505050565b600081519050615a7c81614625565b92915050565b600060208284031215615a9857615a97614317565b5b6000615aa684828501615a6d565b91505092915050565b600060c0820190508181036000830152615ac9818961578a565b90508181036020830152615add8188615848565b90508181036040830152615af18187615948565b9050615b0060608301866159f6565b615b0d6080830185614c33565b615b1a60a08301846143e6565b979650505050505050565b7f4e487b7100000000000000000000000000000000000000000000000000000000600052601160045260246000fd5b6000615b5f826143dc565b9150615b6a836143dc565b9250827fffffffffffffffffffffffffffffffffffffffffffffffffffffffffffffffff03821115615b9f57615b9e615b25565b5b828201905092915050565b6000604082019050615bbf60008301856143e6565b615bcc60208301846143e6565b9392505050565b6000606082019050615be86000830186614c33565b615bf560208301856143e6565b615c026040830184615527565b949350505050565b6000615c15826143dc565b9150615c20836143dc565b925082821015615c3357615c32615b25565b5b828203905092915050565b7f4e487b7100000000000000000000000000000000000000000000000000000000600052603260045260246000fd5b60006080820190508181036000830152615c87818761578a565b90508181036020830152615c9b8186615848565b90508181036040830152615caf8185615948565b9050615cbe6060830184614c33565b95945050505050565b7f4f776e61626c653a206e6577206f776e657220697320746865207a65726f206160008201527f6464726573730000000000000000000000000000000000000000000000000000602082015250565b6000615d23602683614767565b9150615d2e82615cc7565b604082019050919050565b60006020820190508181036000830152615d5281615d16565b9050919050565b7f53616665436173743a2076616c756520646f65736e27742066697420696e203260008201527f3234206269747300000000000000000000000000000000000000000000000000602082015250565b6000615db5602783614767565b9150615dc082615d59565b604082019050919050565b60006020820190508181036000830152615de481615da8565b9050919050565b7f53616665436173743a2076616c756520646f65736e27742066697420696e203360008201527f3220626974730000000000000000000000000000000000000000000000000000602082015250565b6000615e47602683614767565b9150615e5282615deb565b604082019050919050565b60006020820190508181036000830152615e7681615e3a565b9050919050565b7f476f7665726e6f723a20766f7465206e6f742063757272656e746c792061637460008201527f6976650000000000000000000000000000000000000000000000000000000000602082015250565b6000615ed9602383614767565b9150615ee482615e7d565b604082019050919050565b60006020820190508181036000830152615f0881615ecc565b9050919050565b6000608082019050615f2460008301876143e6565b615f316020830186615527565b615f3e60408301856143e6565b8181036060830152615f5081846147ab565b905095945050505050565b600082825260208201905092915050565b6000615f77826158d2565b615f818185615f5b565b9350615f91818560208601614778565b615f9a816144df565b840191505092915050565b600060a082019050615fba60008301886143e6565b615fc76020830187615527565b615fd460408301866143e6565b8181036060830152615fe681856147ab565b90508181036080830152615ffa8184615f6c565b90509695505050505050565b7f476f7665726e6f72566f74657351756f72756d4672616374696f6e3a2071756f60008201527f72756d4e756d657261746f72206f7665722071756f72756d44656e6f6d696e6160208201527f746f720000000000000000000000000000000000000000000000000000000000604082015250565b6000616088604383614767565b915061609382616006565b606082019050919050565b600060208201905081810360008301526160b78161607b565b9050919050565b60006160c9826143dc565b91507fffffffffffffffffffffffffffffffffffffffffffffffffffffffffffffffff8214156160fc576160fb615b25565b5b600182019050919050565b616110816143a6565b811461611b57600080fd5b50565b60008151905061612d81616107565b92915050565b60006020828403121561614957616148614317565b5b60006161578482850161611e565b91505092915050565b7f436865636b706f696e74733a20626c6f636b206e6f7420796574206d696e6564600082015250565b6000616196602083614767565b91506161a182616160565b602082019050919050565b600060208201905081810360008301526161c581616189565b9050919050565b7f4f776e61626c653a2063616c6c6572206973206e6f7420746865206f776e6572600082015250565b6000616202602083614767565b915061620d826161cc565b602082019050919050565b60006020820190508181036000830152616231816161f5565b9050919050565b7f476f7665726e6f723a2070726f706f73657220766f7465732062656c6f77207060008201527f726f706f73616c207468726573686f6c64000000000000000000000000000000602082015250565b6000616294603183614767565b915061629f82616238565b604082019050919050565b600060208201905081810360008301526162c381616287565b9050919050565b7f476f7665726e6f723a20696e76616c69642070726f706f73616c206c656e677460008201527f6800000000000000000000000000000000000000000000000000000000000000602082015250565b6000616326602183614767565b9150616331826162ca565b604082019050919050565b6000602082019050818103600083015261635581616319565b9050919050565b7f476f7665726e6f723a20656d7074792070726f706f73616c0000000000000000600082015250565b6000616392601883614767565b915061639d8261635c565b602082019050919050565b600060208201905081810360008301526163c181616385565b9050919050565b7f476f7665726e6f723a2070726f706f73616c20616c726561647920657869737460008201527f7300000000000000000000000000000000000000000000000000000000000000602082015250565b6000616424602183614767565b915061642f826163c8565b604082019050919050565b6000602082019050818103600083015261645381616417565b9050919050565b600067ffffffffffffffff82169050919050565b60006164798261645a565b91506164848361645a565b92508267ffffffffffffffff038211156164a1576164a0615b25565b5b828201905092915050565b600081519050919050565b600082825260208201905092915050565b6000819050602082019050919050565b600082825260208201905092915050565b60006164f48261475c565b6164fe81856164d8565b935061650e818560208601614778565b616517816144df565b840191505092915050565b600061652e83836164e9565b905092915050565b6000602082019050919050565b600061654e826164ac565b61655881856164b7565b93508360208202850161656a856164c8565b8060005b858110156165a657848403895281516165878582616522565b945061659283616536565b925060208a0199505060018101905061656e565b50829750879550505050505092915050565b60006165d36165ce6165c98461645a565b615464565b6143dc565b9050919050565b6165e3816165b8565b82525050565b6000610120820190506165ff600083018c6143e6565b61660c602083018b6150b1565b818103604083015261661e818a61578a565b905081810360608301526166328189615848565b905081810360808301526166468188616543565b905081810360a083015261665a8187615948565b905061666960c08301866165da565b61667660e08301856165da565b81810361010083015261668981846147ab565b90509a9950505050505050505050565b60006040820190506166ae60008301856150b1565b6166bb60208301846143e6565b9392505050565b60006040820190506166d760008301856150b1565b6166e460208301846150b1565b9392505050565b7f476f7665726e6f7253657474696e67733a20766f74696e6720706572696f642060008201527f746f6f206c6f7700000000000000000000000000000000000000000000000000602082015250565b6000616747602783614767565b9150616752826166eb565b604082019050919050565b600060208201905081810360008301526167768161673a565b9050919050565b6000616788826143dc565b9150616793836143dc565b9250817fffffffffffffffffffffffffffffffffffffffffffffffffffffffffffffffff04831182151516156167cc576167cb615b25565b5b828202905092915050565b7f4e487b7100000000000000000000000000000000000000000000000000000000600052601260045260246000fd5b6000616811826143dc565b915061681c836143dc565b92508261682c5761682b6167d7565b5b828204905092915050565b7f436865636b706f696e743a20696e76616c6964206b6579000000000000000000600082015250565b600061686d601783614767565b915061687882616837565b602082019050919050565b6000602082019050818103600083015261689c81616860565b9050919050565b600081905092915050565b7f1901000000000000000000000000000000000000000000000000000000000000600082015250565b60006168e46002836168a3565b91506168ef826168ae565b600282019050919050565b6000819050919050565b6169156169108261461b565b6168fa565b82525050565b6000616926826168d7565b91506169328285616904565b6020820191506169428284616904565b6020820191508190509392505050565b60006080820190506169676000830187614c33565b6169746020830186615527565b6169816040830185614c33565b61698e6060830184614c33565b95945050505050565b7f45434453413a20696e76616c6964207369676e61747572650000000000000000600082015250565b60006169cd601883614767565b91506169d882616997565b602082019050919050565b600060208201905081810360008301526169fc816169c0565b9050919050565b7f45434453413a20696e76616c6964207369676e6174757265206c656e67746800600082015250565b6000616a39601f83614767565b9150616a4482616a03565b602082019050919050565b60006020820190508181036000830152616a6881616a2c565b9050919050565b7f45434453413a20696e76616c6964207369676e6174757265202773272076616c60008201527f7565000000000000000000000000000000000000000000000000000000000000602082015250565b6000616acb602283614767565b9150616ad682616a6f565b604082019050919050565b60006020820190508181036000830152616afa81616abe565b9050919050565b7f476f7665726e6f72566f74696e6753696d706c653a20766f746520616c72656160008201527f6479206361737400000000000000000000000000000000000000000000000000602082015250565b6000616b5d602783614767565b9150616b6882616b01565b604082019050919050565b60006020820190508181036000830152616b8c81616b50565b9050919050565b7f476f7665726e6f72566f74696e6753696d706c653a20696e76616c696420766160008201527f6c756520666f7220656e756d20566f7465547970650000000000000000000000602082015250565b6000616bef603583614767565b9150616bfa82616b93565b604082019050919050565b60006020820190508181036000830152616c1e81616be2565b9050919050565b7f476f7665726e6f723a20756e6b6e6f776e2070726f706f73616c206964000000600082015250565b6000616c5b601d83614767565b9150616c6682616c25565b602082019050919050565b60006020820190508181036000830152616c8a81616c4e565b9050919050565b7f53616665436173743a2076616c756520646f65736e27742066697420696e203660008201527f3420626974730000000000000000000000000000000000000000000000000000602082015250565b6000616ced602683614767565b9150616cf882616c91565b604082019050919050565b60006020820190508181036000830152616d1c81616ce0565b9050919050565b600060a082019050616d386000830188614c33565b616d456020830187614c33565b616d526040830186614c33565b616d5f60608301856143e6565b616d6c60808301846150b1565b969550505050505056fe476f7665726e6f723a2072656c617920726576657274656420776974686f7574206d657373616765a26469706673582212207c539562a2cc8fd30960a8d5f9183716484640699ac9030cdbded08e84790e4964736f6c634300080b0033",
  "linkReferences": {},
  "deployedLinkReferences": {}
}