{
  "_format": "hh-sol-artifact-1",
  "contractName": "MyGovernor",
  "sourceName": "contracts/governance/Governance.sol",
  "abi": [
    {
      "inputs": [
        {
          "internalType": "contract IVotes",
          "name": "_token",
          "type": "address"
        },
        {
          "internalType": "contract TimelockController",
          "name": "_timelock",
          "type": "address"
        }
      ],
      "stateMutability": "nonpayable",
      "type": "constructor"
    },
    {
      "inputs": [],
      "name": "Empty",
      "type": "error"
    },
    {
      "anonymous": false,
      "inputs": [
        {
          "indexed": true,
          "internalType": "address",
          "name": "previousOwner",
          "type": "address"
        },
        {
          "indexed": true,
          "internalType": "address",
          "name": "newOwner",
          "type": "address"
        }
      ],
      "name": "OwnershipTransferred",
      "type": "event"
    },
    {
      "anonymous": false,
      "inputs": [
        {
          "indexed": false,
          "internalType": "uint256",
          "name": "proposalId",
          "type": "uint256"
        }
      ],
      "name": "ProposalCanceled",
      "type": "event"
    },
    {
      "anonymous": false,
      "inputs": [
        {
          "indexed": false,
          "internalType": "uint256",
          "name": "proposalId",
          "type": "uint256"
        },
        {
          "indexed": false,
          "internalType": "address",
          "name": "proposer",
          "type": "address"
        },
        {
          "indexed": false,
          "internalType": "address[]",
          "name": "targets",
          "type": "address[]"
        },
        {
          "indexed": false,
          "internalType": "uint256[]",
          "name": "values",
          "type": "uint256[]"
        },
        {
          "indexed": false,
          "internalType": "string[]",
          "name": "signatures",
          "type": "string[]"
        },
        {
          "indexed": false,
          "internalType": "bytes[]",
          "name": "calldatas",
          "type": "bytes[]"
        },
        {
          "indexed": false,
          "internalType": "uint256",
          "name": "startBlock",
          "type": "uint256"
        },
        {
          "indexed": false,
          "internalType": "uint256",
          "name": "endBlock",
          "type": "uint256"
        },
        {
          "indexed": false,
          "internalType": "string",
          "name": "description",
          "type": "string"
        }
      ],
      "name": "ProposalCreated",
      "type": "event"
    },
    {
      "anonymous": false,
      "inputs": [
        {
          "indexed": false,
          "internalType": "uint256",
          "name": "proposalId",
          "type": "uint256"
        }
      ],
      "name": "ProposalExecuted",
      "type": "event"
    },
    {
      "anonymous": false,
      "inputs": [
        {
          "indexed": false,
          "internalType": "uint256",
          "name": "proposalId",
          "type": "uint256"
        },
        {
          "indexed": false,
          "internalType": "uint256",
          "name": "eta",
          "type": "uint256"
        }
      ],
      "name": "ProposalQueued",
      "type": "event"
    },
    {
      "anonymous": false,
      "inputs": [
        {
          "indexed": false,
          "internalType": "uint256",
          "name": "oldProposalThreshold",
          "type": "uint256"
        },
        {
          "indexed": false,
          "internalType": "uint256",
          "name": "newProposalThreshold",
          "type": "uint256"
        }
      ],
      "name": "ProposalThresholdSet",
      "type": "event"
    },
    {
      "anonymous": false,
      "inputs": [
        {
          "indexed": false,
          "internalType": "uint256",
          "name": "oldQuorumNumerator",
          "type": "uint256"
        },
        {
          "indexed": false,
          "internalType": "uint256",
          "name": "newQuorumNumerator",
          "type": "uint256"
        }
      ],
      "name": "QuorumNumeratorUpdated",
      "type": "event"
    },
    {
      "anonymous": false,
      "inputs": [
        {
          "indexed": false,
          "internalType": "address",
          "name": "oldTimelock",
          "type": "address"
        },
        {
          "indexed": false,
          "internalType": "address",
          "name": "newTimelock",
          "type": "address"
        }
      ],
      "name": "TimelockChange",
      "type": "event"
    },
    {
      "anonymous": false,
      "inputs": [
        {
          "indexed": true,
          "internalType": "address",
          "name": "voter",
          "type": "address"
        },
        {
          "indexed": false,
          "internalType": "uint256",
          "name": "proposalId",
          "type": "uint256"
        },
        {
          "indexed": false,
          "internalType": "uint8",
          "name": "support",
          "type": "uint8"
        },
        {
          "indexed": false,
          "internalType": "uint256",
          "name": "weight",
          "type": "uint256"
        },
        {
          "indexed": false,
          "internalType": "string",
          "name": "reason",
          "type": "string"
        }
      ],
      "name": "VoteCast",
      "type": "event"
    },
    {
      "anonymous": false,
      "inputs": [
        {
          "indexed": true,
          "internalType": "address",
          "name": "voter",
          "type": "address"
        },
        {
          "indexed": false,
          "internalType": "uint256",
          "name": "proposalId",
          "type": "uint256"
        },
        {
          "indexed": false,
          "internalType": "uint8",
          "name": "support",
          "type": "uint8"
        },
        {
          "indexed": false,
          "internalType": "uint256",
          "name": "weight",
          "type": "uint256"
        },
        {
          "indexed": false,
          "internalType": "string",
          "name": "reason",
          "type": "string"
        },
        {
          "indexed": false,
          "internalType": "bytes",
          "name": "params",
          "type": "bytes"
        }
      ],
      "name": "VoteCastWithParams",
      "type": "event"
    },
    {
      "anonymous": false,
      "inputs": [
        {
          "indexed": false,
          "internalType": "uint256",
          "name": "oldVotingDelay",
          "type": "uint256"
        },
        {
          "indexed": false,
          "internalType": "uint256",
          "name": "newVotingDelay",
          "type": "uint256"
        }
      ],
      "name": "VotingDelaySet",
      "type": "event"
    },
    {
      "anonymous": false,
      "inputs": [
        {
          "indexed": false,
          "internalType": "uint256",
          "name": "oldVotingPeriod",
          "type": "uint256"
        },
        {
          "indexed": false,
          "internalType": "uint256",
          "name": "newVotingPeriod",
          "type": "uint256"
        }
      ],
      "name": "VotingPeriodSet",
      "type": "event"
    },
    {
      "inputs": [],
      "name": "BALLOT_TYPEHASH",
      "outputs": [
        {
          "internalType": "bytes32",
          "name": "",
          "type": "bytes32"
        }
      ],
      "stateMutability": "view",
      "type": "function"
    },
    {
      "inputs": [],
      "name": "COUNTING_MODE",
      "outputs": [
        {
          "internalType": "string",
          "name": "",
          "type": "string"
        }
      ],
      "stateMutability": "pure",
      "type": "function"
    },
    {
      "inputs": [],
      "name": "EXTENDED_BALLOT_TYPEHASH",
      "outputs": [
        {
          "internalType": "bytes32",
          "name": "",
          "type": "bytes32"
        }
      ],
      "stateMutability": "view",
      "type": "function"
    },
    {
      "inputs": [
        {
          "internalType": "uint256",
          "name": "proposalId",
          "type": "uint256"
        },
        {
          "internalType": "uint8",
          "name": "support",
          "type": "uint8"
        }
      ],
      "name": "castVote",
      "outputs": [
        {
          "internalType": "uint256",
          "name": "",
          "type": "uint256"
        }
      ],
      "stateMutability": "nonpayable",
      "type": "function"
    },
    {
      "inputs": [
        {
          "internalType": "uint256",
          "name": "proposalId",
          "type": "uint256"
        },
        {
          "internalType": "uint8",
          "name": "support",
          "type": "uint8"
        },
        {
          "internalType": "uint8",
          "name": "v",
          "type": "uint8"
        },
        {
          "internalType": "bytes32",
          "name": "r",
          "type": "bytes32"
        },
        {
          "internalType": "bytes32",
          "name": "s",
          "type": "bytes32"
        }
      ],
      "name": "castVoteBySig",
      "outputs": [
        {
          "internalType": "uint256",
          "name": "",
          "type": "uint256"
        }
      ],
      "stateMutability": "nonpayable",
      "type": "function"
    },
    {
      "inputs": [
        {
          "internalType": "uint256",
          "name": "proposalId",
          "type": "uint256"
        },
        {
          "internalType": "uint8",
          "name": "support",
          "type": "uint8"
        },
        {
          "internalType": "string",
          "name": "reason",
          "type": "string"
        }
      ],
      "name": "castVoteWithReason",
      "outputs": [
        {
          "internalType": "uint256",
          "name": "",
          "type": "uint256"
        }
      ],
      "stateMutability": "nonpayable",
      "type": "function"
    },
    {
      "inputs": [
        {
          "internalType": "uint256",
          "name": "proposalId",
          "type": "uint256"
        },
        {
          "internalType": "uint8",
          "name": "support",
          "type": "uint8"
        },
        {
          "internalType": "string",
          "name": "reason",
          "type": "string"
        },
        {
          "internalType": "bytes",
          "name": "params",
          "type": "bytes"
        }
      ],
      "name": "castVoteWithReasonAndParams",
      "outputs": [
        {
          "internalType": "uint256",
          "name": "",
          "type": "uint256"
        }
      ],
      "stateMutability": "nonpayable",
      "type": "function"
    },
    {
      "inputs": [
        {
          "internalType": "uint256",
          "name": "proposalId",
          "type": "uint256"
        },
        {
          "internalType": "uint8",
          "name": "support",
          "type": "uint8"
        },
        {
          "internalType": "string",
          "name": "reason",
          "type": "string"
        },
        {
          "internalType": "bytes",
          "name": "params",
          "type": "bytes"
        },
        {
          "internalType": "uint8",
          "name": "v",
          "type": "uint8"
        },
        {
          "internalType": "bytes32",
          "name": "r",
          "type": "bytes32"
        },
        {
          "internalType": "bytes32",
          "name": "s",
          "type": "bytes32"
        }
      ],
      "name": "castVoteWithReasonAndParamsBySig",
      "outputs": [
        {
          "internalType": "uint256",
          "name": "",
          "type": "uint256"
        }
      ],
      "stateMutability": "nonpayable",
      "type": "function"
    },
    {
      "inputs": [
        {
          "internalType": "address[]",
          "name": "targets",
          "type": "address[]"
        },
        {
          "internalType": "uint256[]",
          "name": "values",
          "type": "uint256[]"
        },
        {
          "internalType": "bytes[]",
          "name": "calldatas",
          "type": "bytes[]"
        },
        {
          "internalType": "bytes32",
          "name": "descriptionHash",
          "type": "bytes32"
        }
      ],
      "name": "execute",
      "outputs": [
        {
          "internalType": "uint256",
          "name": "",
          "type": "uint256"
        }
      ],
      "stateMutability": "payable",
      "type": "function"
    },
    {
      "inputs": [
        {
          "internalType": "address",
          "name": "account",
          "type": "address"
        },
        {
          "internalType": "uint256",
          "name": "blockNumber",
          "type": "uint256"
        }
      ],
      "name": "getVotes",
      "outputs": [
        {
          "internalType": "uint256",
          "name": "",
          "type": "uint256"
        }
      ],
      "stateMutability": "view",
      "type": "function"
    },
    {
      "inputs": [
        {
          "internalType": "address",
          "name": "account",
          "type": "address"
        },
        {
          "internalType": "uint256",
          "name": "blockNumber",
          "type": "uint256"
        },
        {
          "internalType": "bytes",
          "name": "params",
          "type": "bytes"
        }
      ],
      "name": "getVotesWithParams",
      "outputs": [
        {
          "internalType": "uint256",
          "name": "",
          "type": "uint256"
        }
      ],
      "stateMutability": "view",
      "type": "function"
    },
    {
      "inputs": [
        {
          "internalType": "uint256",
          "name": "proposalId",
          "type": "uint256"
        },
        {
          "internalType": "address",
          "name": "account",
          "type": "address"
        }
      ],
      "name": "hasVoted",
      "outputs": [
        {
          "internalType": "bool",
          "name": "",
          "type": "bool"
        }
      ],
      "stateMutability": "view",
      "type": "function"
    },
    {
      "inputs": [
        {
          "internalType": "address[]",
          "name": "targets",
          "type": "address[]"
        },
        {
          "internalType": "uint256[]",
          "name": "values",
          "type": "uint256[]"
        },
        {
          "internalType": "bytes[]",
          "name": "calldatas",
          "type": "bytes[]"
        },
        {
          "internalType": "bytes32",
          "name": "descriptionHash",
          "type": "bytes32"
        }
      ],
      "name": "hashProposal",
      "outputs": [
        {
          "internalType": "uint256",
          "name": "",
          "type": "uint256"
        }
      ],
      "stateMutability": "pure",
      "type": "function"
    },
    {
      "inputs": [],
      "name": "name",
      "outputs": [
        {
          "internalType": "string",
          "name": "",
          "type": "string"
        }
      ],
      "stateMutability": "view",
      "type": "function"
    },
    {
      "inputs": [
        {
          "internalType": "address",
          "name": "",
          "type": "address"
        },
        {
          "internalType": "address",
          "name": "",
          "type": "address"
        },
        {
          "internalType": "uint256[]",
          "name": "",
          "type": "uint256[]"
        },
        {
          "internalType": "uint256[]",
          "name": "",
          "type": "uint256[]"
        },
        {
          "internalType": "bytes",
          "name": "",
          "type": "bytes"
        }
      ],
      "name": "onERC1155BatchReceived",
      "outputs": [
        {
          "internalType": "bytes4",
          "name": "",
          "type": "bytes4"
        }
      ],
      "stateMutability": "nonpayable",
      "type": "function"
    },
    {
      "inputs": [
        {
          "internalType": "address",
          "name": "",
          "type": "address"
        },
        {
          "internalType": "address",
          "name": "",
          "type": "address"
        },
        {
          "internalType": "uint256",
          "name": "",
          "type": "uint256"
        },
        {
          "internalType": "uint256",
          "name": "",
          "type": "uint256"
        },
        {
          "internalType": "bytes",
          "name": "",
          "type": "bytes"
        }
      ],
      "name": "onERC1155Received",
      "outputs": [
        {
          "internalType": "bytes4",
          "name": "",
          "type": "bytes4"
        }
      ],
      "stateMutability": "nonpayable",
      "type": "function"
    },
    {
      "inputs": [
        {
          "internalType": "address",
          "name": "",
          "type": "address"
        },
        {
          "internalType": "address",
          "name": "",
          "type": "address"
        },
        {
          "internalType": "uint256",
          "name": "",
          "type": "uint256"
        },
        {
          "internalType": "bytes",
          "name": "",
          "type": "bytes"
        }
      ],
      "name": "onERC721Received",
      "outputs": [
        {
          "internalType": "bytes4",
          "name": "",
          "type": "bytes4"
        }
      ],
      "stateMutability": "nonpayable",
      "type": "function"
    },
    {
      "inputs": [],
      "name": "owner",
      "outputs": [
        {
          "internalType": "address",
          "name": "",
          "type": "address"
        }
      ],
      "stateMutability": "view",
      "type": "function"
    },
    {
      "inputs": [
        {
          "internalType": "uint256",
          "name": "proposalId",
          "type": "uint256"
        }
      ],
      "name": "proposalDeadline",
      "outputs": [
        {
          "internalType": "uint256",
          "name": "",
          "type": "uint256"
        }
      ],
      "stateMutability": "view",
      "type": "function"
    },
    {
      "inputs": [
        {
          "internalType": "uint256",
          "name": "proposalId",
          "type": "uint256"
        }
      ],
      "name": "proposalEta",
      "outputs": [
        {
          "internalType": "uint256",
          "name": "",
          "type": "uint256"
        }
      ],
      "stateMutability": "view",
      "type": "function"
    },
    {
      "inputs": [
        {
          "internalType": "uint256",
          "name": "proposalId",
          "type": "uint256"
        }
      ],
      "name": "proposalSnapshot",
      "outputs": [
        {
          "internalType": "uint256",
          "name": "",
          "type": "uint256"
        }
      ],
      "stateMutability": "view",
      "type": "function"
    },
    {
      "inputs": [],
      "name": "proposalThreshold",
      "outputs": [
        {
          "internalType": "uint256",
          "name": "",
          "type": "uint256"
        }
      ],
      "stateMutability": "view",
      "type": "function"
    },
    {
      "inputs": [
        {
          "internalType": "uint256",
          "name": "proposalId",
          "type": "uint256"
        }
      ],
      "name": "proposalVotes",
      "outputs": [
        {
          "internalType": "uint256",
          "name": "againstVotes",
          "type": "uint256"
        },
        {
          "internalType": "uint256",
          "name": "forVotes",
          "type": "uint256"
        },
        {
          "internalType": "uint256",
          "name": "abstainVotes",
          "type": "uint256"
        }
      ],
      "stateMutability": "view",
      "type": "function"
    },
    {
      "inputs": [
        {
          "internalType": "address[]",
          "name": "targets",
          "type": "address[]"
        },
        {
          "internalType": "uint256[]",
          "name": "values",
          "type": "uint256[]"
        },
        {
          "internalType": "bytes[]",
          "name": "calldatas",
          "type": "bytes[]"
        },
        {
          "internalType": "string",
          "name": "description",
          "type": "string"
        }
      ],
      "name": "propose",
      "outputs": [
        {
          "internalType": "uint256",
          "name": "",
          "type": "uint256"
        }
      ],
      "stateMutability": "nonpayable",
      "type": "function"
    },
    {
      "inputs": [
        {
          "internalType": "address[]",
          "name": "targets",
          "type": "address[]"
        },
        {
          "internalType": "uint256[]",
          "name": "values",
          "type": "uint256[]"
        },
        {
          "internalType": "bytes[]",
          "name": "calldatas",
          "type": "bytes[]"
        },
        {
          "internalType": "bytes32",
          "name": "descriptionHash",
          "type": "bytes32"
        }
      ],
      "name": "queue",
      "outputs": [
        {
          "internalType": "uint256",
          "name": "",
          "type": "uint256"
        }
      ],
      "stateMutability": "nonpayable",
      "type": "function"
    },
    {
      "inputs": [
        {
          "internalType": "uint256",
          "name": "blockNumber",
          "type": "uint256"
        }
      ],
      "name": "quorum",
      "outputs": [
        {
          "internalType": "uint256",
          "name": "",
          "type": "uint256"
        }
      ],
      "stateMutability": "view",
      "type": "function"
    },
    {
      "inputs": [],
      "name": "quorumDenominator",
      "outputs": [
        {
          "internalType": "uint256",
          "name": "",
          "type": "uint256"
        }
      ],
      "stateMutability": "view",
      "type": "function"
    },
    {
      "inputs": [
        {
          "internalType": "uint256",
          "name": "blockNumber",
          "type": "uint256"
        }
      ],
      "name": "quorumNumerator",
      "outputs": [
        {
          "internalType": "uint256",
          "name": "",
          "type": "uint256"
        }
      ],
      "stateMutability": "view",
      "type": "function"
    },
    {
      "inputs": [],
      "name": "quorumNumerator",
      "outputs": [
        {
          "internalType": "uint256",
          "name": "",
          "type": "uint256"
        }
      ],
      "stateMutability": "view",
      "type": "function"
    },
    {
      "inputs": [
        {
          "internalType": "address",
          "name": "target",
          "type": "address"
        },
        {
          "internalType": "uint256",
          "name": "value",
          "type": "uint256"
        },
        {
          "internalType": "bytes",
          "name": "data",
          "type": "bytes"
        }
      ],
      "name": "relay",
      "outputs": [],
      "stateMutability": "payable",
      "type": "function"
    },
    {
      "inputs": [
        {
          "internalType": "uint256",
          "name": "newProposalThreshold",
          "type": "uint256"
        }
      ],
      "name": "setProposalThreshold",
      "outputs": [],
      "stateMutability": "nonpayable",
      "type": "function"
    },
    {
      "inputs": [
        {
          "internalType": "uint256",
          "name": "newVotingDelay",
          "type": "uint256"
        }
      ],
      "name": "setVotingDelay",
      "outputs": [],
      "stateMutability": "nonpayable",
      "type": "function"
    },
    {
      "inputs": [
        {
          "internalType": "uint256",
          "name": "newVotingPeriod",
          "type": "uint256"
        }
      ],
      "name": "setVotingPeriod",
      "outputs": [],
      "stateMutability": "nonpayable",
      "type": "function"
    },
    {
      "inputs": [
        {
          "internalType": "uint256",
          "name": "proposalId",
          "type": "uint256"
        }
      ],
      "name": "state",
      "outputs": [
        {
          "internalType": "enum IGovernor.ProposalState",
          "name": "",
          "type": "uint8"
        }
      ],
      "stateMutability": "view",
      "type": "function"
    },
    {
      "inputs": [
        {
          "internalType": "bytes4",
          "name": "interfaceId",
          "type": "bytes4"
        }
      ],
      "name": "supportsInterface",
      "outputs": [
        {
          "internalType": "bool",
          "name": "",
          "type": "bool"
        }
      ],
      "stateMutability": "view",
      "type": "function"
    },
    {
      "inputs": [],
      "name": "timelock",
      "outputs": [
        {
          "internalType": "address",
          "name": "",
          "type": "address"
        }
      ],
      "stateMutability": "view",
      "type": "function"
    },
    {
      "inputs": [],
      "name": "token",
      "outputs": [
        {
          "internalType": "contract IVotes",
          "name": "",
          "type": "address"
        }
      ],
      "stateMutability": "view",
      "type": "function"
    },
    {
      "inputs": [
        {
          "internalType": "address",
          "name": "newOwner",
          "type": "address"
        }
      ],
      "name": "transferOwnership",
      "outputs": [],
      "stateMutability": "nonpayable",
      "type": "function"
    },
    {
      "inputs": [
        {
          "internalType": "uint256",
          "name": "newQuorumNumerator",
          "type": "uint256"
        }
      ],
      "name": "updateQuorumNumerator",
      "outputs": [],
      "stateMutability": "nonpayable",
      "type": "function"
    },
    {
      "inputs": [
        {
          "internalType": "contract TimelockController",
          "name": "newTimelock",
          "type": "address"
        }
      ],
      "name": "updateTimelock",
      "outputs": [],
      "stateMutability": "nonpayable",
      "type": "function"
    },
    {
      "inputs": [],
      "name": "version",
      "outputs": [
        {
          "internalType": "string",
          "name": "",
          "type": "string"
        }
      ],
      "stateMutability": "view",
      "type": "function"
    },
    {
      "inputs": [],
      "name": "votingDelay",
      "outputs": [
        {
          "internalType": "uint256",
          "name": "",
          "type": "uint256"
        }
      ],
      "stateMutability": "view",
      "type": "function"
    },
    {
      "inputs": [],
      "name": "votingPeriod",
      "outputs": [
        {
          "internalType": "uint256",
          "name": "",
          "type": "uint256"
        }
      ],
      "stateMutability": "view",
      "type": "function"
    },
    {
      "stateMutability": "payable",
      "type": "receive"
    }
  ],
  "bytecode": "0x6101606040523480156200001257600080fd5b5060405162004bcd38038062004bcd83398101604081905262000035916200090e565b806033836002610b4060006040518060400160405280600a81526020016926bca3b7bb32b93737b960b11b81525080620000746200017960201b60201c565b815160208084019190912082518383012060e08290526101008190524660a0818152604080517f8b73c3c69bb8fe3d512ecc4cf759cc79239f7b179b0ffacaa9a75d522b39400f81880181905281830187905260608201869052608082019490945230818401528151808203909301835260c00190528051940193909320919290916080523060c05261012052505082516200011a925060009150602084019062000859565b506200012890508362000194565b6200013382620001d5565b6200013e816200027c565b5050506001600160a01b0316610140526200015981620002bd565b50620001658162000435565b5062000171336200049e565b5050620009b0565b6040805180820190915260018152603160f81b602082015290565b60045460408051918252602082018390527fc565b045403dc03c2eea82b81a0465edad9e2e7fc4d97e11421c209da93d7a93910160405180910390a1600455565b600081116200023b5760405162461bcd60e51b815260206004820152602760248201527f476f7665726e6f7253657474696e67733a20766f74696e6720706572696f6420604482015266746f6f206c6f7760c81b60648201526084015b60405180910390fd5b60055460408051918252602082018390527f7e3f7f0708a84de9203036abaa450dccc85ad5ff52f78c170f3edb55cf5e8828910160405180910390a1600555565b60065460408051918252602082018390527fccb45da8d5717e6c4544694297c4ba5cf151d455c9bb0ed4fc7a38411bc05461910160405180910390a1600655565b6064811115620003425760405162461bcd60e51b815260206004820152604360248201527f476f7665726e6f72566f74657351756f72756d4672616374696f6e3a2071756f60448201527f72756d4e756d657261746f72206f7665722071756f72756d44656e6f6d696e616064820152623a37b960e91b608482015260a40162000232565b60006200034e620004f0565b90508015801590620003605750600954155b15620003db5760096000016040518060400160405280600063ffffffff16815260200162000399846200052860201b6200188a1760201c565b6001600160e01b0390811690915282546001810184556000938452602093849020835194909301519091166401000000000263ffffffff909316929092179101555b620003f68260096200059760201b6200190d1790919060201c565b505060408051828152602081018490527f0553476bf02ef2726e8ce5ced78d63e26e602e4a2257b1f559418e24b4633997910160405180910390a15050565b600a54604080516001600160a01b03928316815291831660208301527f08f74ea46ef7894f65eabfb5e6e695de773a000b47c529ab559178069b226401910160405180910390a1600a80546001600160a01b0319166001600160a01b0392909216919091179055565b600c80546001600160a01b038381166001600160a01b0319831681179093556040519116919082907f8be0079c531659141344cd1fd0a4f28419497f9722a3daafe3b4186f6b6457e090600090a35050565b600954600090156200052157620005136009620005ea60201b620019431760201c565b6001600160e01b0316905090565b5060085490565b60006001600160e01b03821115620005935760405162461bcd60e51b815260206004820152602760248201527f53616665436173743a2076616c756520646f65736e27742066697420696e20326044820152663234206269747360c81b606482015260840162000232565b5090565b600080620005d484600001620005b8436200063860201b620019821760201c565b620005ce866200052860201b6200188a1760201c565b6200069f565b6001600160e01b03918216969116945092505050565b805460009080156200062e576200061683620006086001846200094d565b600091825260209091200190565b5464010000000090046001600160e01b031662000631565b60005b9392505050565b600063ffffffff821115620005935760405162461bcd60e51b815260206004820152602660248201527f53616665436173743a2076616c756520646f65736e27742066697420696e203360448201526532206269747360d01b606482015260840162000232565b825460009081908015620007fb576000620006c187620006086001856200094d565b60408051808201909152905463ffffffff8082168084526401000000009092046001600160e01b031660208401529192509087161015620007455760405162461bcd60e51b815260206004820152601760248201527f436865636b706f696e743a20696e76616c6964206b6579000000000000000000604482015260640162000232565b8563ffffffff16816000015163ffffffff1614156200079a57846200077188620006086001866200094d565b80546001600160e01b03929092166401000000000263ffffffff909216919091179055620007ea565b6040805180820190915263ffffffff80881682526001600160e01b0380881660208085019182528b54600181018d5560008d81529190912094519151909216640100000000029216919091179101555b602001519250839150620008519050565b50506040805180820190915263ffffffff80851682526001600160e01b0380851660208085019182528854600181018a5560008a8152918220955192519093166401000000000291909316179201919091559050815b935093915050565b828054620008679062000973565b90600052602060002090601f0160209004810192826200088b5760008555620008d6565b82601f10620008a657805160ff1916838001178555620008d6565b82800160010185558215620008d6579182015b82811115620008d6578251825591602001919060010190620008b9565b50620005939291505b80821115620005935760008155600101620008df565b6001600160a01b03811681146200090b57600080fd5b50565b600080604083850312156200092257600080fd5b82516200092f81620008f5565b60208401519092506200094281620008f5565b809150509250929050565b6000828210156200096e57634e487b7160e01b600052601160045260246000fd5b500390565b600181811c908216806200098857607f821691505b60208210811415620009aa57634e487b7160e01b600052602260045260246000fd5b50919050565b60805160a05160c05160e0516101005161012051610140516141b462000a19600039600081816109a4015281816125d4015261286301526000612bf101526000612c4001526000612c1b01526000612b7401526000612b9e01526000612bc801526141b46000f3fe6080604052600436106102e05760003560e01c80637d5e81e211610184578063c59057e4116100d6578063eb9019d41161008a578063f2fde38b11610064578063f2fde38b14610952578063f8ce560a14610972578063fc0c546a1461099257600080fd5b8063eb9019d4146108cd578063ece40cc1146108ed578063f23a6e611461090d57600080fd5b8063dd4e2ba5116100bb578063dd4e2ba514610833578063deaaa7cc14610879578063ea0217cf146108ad57600080fd5b8063c59057e4146107f5578063d33219b41461081557600080fd5b8063a890c91011610138578063bc197c8111610112578063bc197c811461077d578063c01f9e37146107c2578063c28bc2fa146107e257600080fd5b8063a890c91014610728578063ab58fb8e14610748578063b58131b01461076857600080fd5b806397c3d3341161016957806397c3d334146106df5780639a802a6d146106f3578063a7713a701461071357600080fd5b80637d5e81e21461068d5780638da5cb5b146106ad57600080fd5b80633932abb11161023d57806354fd4d50116101f157806360c4247f116101cb57806360c4247f1461062d57806370b0f6601461064d5780637b3c71d31461066d57600080fd5b806354fd4d50146105a757806356781388146105ed5780635f398a141461060d57600080fd5b80633e4f49e6116102225780633e4f49e6146104db5780634385963214610508578063544ffc9c1461055257600080fd5b80633932abb1146104a65780633bccf4fd146104bb57600080fd5b8063150b7a02116102945780632656227d116102795780632656227d1461043f5780632d63f693146104525780632fe3e2611461047257600080fd5b8063150b7a02146103c2578063160cbed71461041f57600080fd5b806303420181116102c5578063034201811461036057806306f3f9e61461038057806306fdde03146103a057600080fd5b806301ffc9a71461030857806302a251a31461033d57600080fd5b3661030357306102ee6109c6565b6001600160a01b03161461030157600080fd5b005b600080fd5b34801561031457600080fd5b50610328610323366004613390565b6109df565b60405190151581526020015b60405180910390f35b34801561034957600080fd5b506103526109f0565b604051908152602001610334565b34801561036c57600080fd5b5061035261037b3660046134d1565b6109fb565b34801561038c57600080fd5b5061030161039b366004613578565b610af3565b3480156103ac57600080fd5b506103b5610bb7565b60405161033491906135de565b3480156103ce57600080fd5b506104066103dd366004613606565b7f150b7a0200000000000000000000000000000000000000000000000000000000949350505050565b6040516001600160e01b03199091168152602001610334565b34801561042b57600080fd5b5061035261043a3660046137e5565b610c49565b61035261044d3660046137e5565b610ece565b34801561045e57600080fd5b5061035261046d366004613578565b610ff5565b34801561047e57600080fd5b506103527fb3b3f3b703cd84ce352197dcff232b1b5d3cfb2025ce47cf04742d0651f1af8881565b3480156104b257600080fd5b5061035261102e565b3480156104c757600080fd5b506103526104d6366004613875565b611039565b3480156104e757600080fd5b506104fb6104f6366004613578565b6110af565b60405161033491906138d9565b34801561051457600080fd5b50610328610523366004613901565b60008281526007602090815260408083206001600160a01b038516845260030190915290205460ff1692915050565b34801561055e57600080fd5b5061058c61056d366004613578565b6000908152600760205260409020805460018201546002909201549092565b60408051938452602084019290925290820152606001610334565b3480156105b357600080fd5b5060408051808201909152600181527f310000000000000000000000000000000000000000000000000000000000000060208201526103b5565b3480156105f957600080fd5b50610352610608366004613931565b6110ba565b34801561061957600080fd5b5061035261062836600461395d565b6110e3565b34801561063957600080fd5b50610352610648366004613578565b61112d565b34801561065957600080fd5b50610301610668366004613578565b6111c3565b34801561067957600080fd5b506103526106883660046139e1565b61127f565b34801561069957600080fd5b506103526106a8366004613a3b565b6112d1565b3480156106b957600080fd5b50600c546001600160a01b03165b6040516001600160a01b039091168152602001610334565b3480156106eb57600080fd5b506064610352565b3480156106ff57600080fd5b5061035261070e366004613af0565b6112f0565b34801561071f57600080fd5b50610352611307565b34801561073457600080fd5b50610301610743366004613b49565b611331565b34801561075457600080fd5b50610352610763366004613578565b6113ed565b34801561077457600080fd5b506103526114a0565b34801561078957600080fd5b50610406610798366004613b66565b7fbc197c810000000000000000000000000000000000000000000000000000000095945050505050565b3480156107ce57600080fd5b506103526107dd366004613578565b6114ab565b6103016107f0366004613bfa565b6114db565b34801561080157600080fd5b506103526108103660046137e5565b61161f565b34801561082157600080fd5b50600a546001600160a01b03166106c7565b34801561083f57600080fd5b506040805180820190915260208082527f737570706f72743d627261766f2671756f72756d3d666f722c6162737461696e908201526103b5565b34801561088557600080fd5b506103527f150214d74d59b7d1e90c73fc22ef3d991dd0a76b046543d4d80ab92d2a50328f81565b3480156108b957600080fd5b506103016108c8366004613578565b611659565b3480156108d957600080fd5b506103526108e8366004613c3e565b611715565b3480156108f957600080fd5b50610301610908366004613578565b611736565b34801561091957600080fd5b50610406610928366004613c6a565b7ff23a6e610000000000000000000000000000000000000000000000000000000095945050505050565b34801561095e57600080fd5b5061030161096d366004613b49565b6117f2565b34801561097e57600080fd5b5061035261098d366004613578565b61187f565b34801561099e57600080fd5b506106c77f000000000000000000000000000000000000000000000000000000000000000081565b60006109da600a546001600160a01b031690565b905090565b60006109ea826119fe565b92915050565b60006109da60055490565b600080610a9f610a977fb3b3f3b703cd84ce352197dcff232b1b5d3cfb2025ce47cf04742d0651f1af888c8c8c8c604051610a37929190613cd3565b60405180910390208b80519060200120604051602001610a7c959493929190948552602085019390935260ff9190911660408401526060830152608082015260a00190565b60405160208183030381529060405280519060200120611a3c565b868686611aa5565b9050610ae58a828b8b8b8080601f0160208091040260200160405190810160405280939291908181526020018383808284376000920191909152508d9250611ac3915050565b9a9950505050505050505050565b610afb6109c6565b6001600160a01b0316336001600160a01b031614610b605760405162461bcd60e51b815260206004820152601860248201527f476f7665726e6f723a206f6e6c79476f7665726e616e6365000000000000000060448201526064015b60405180910390fd5b30610b696109c6565b6001600160a01b031614610bab5760008036604051610b89929190613cd3565b604051809103902090505b80610b9f6002611c40565b14610ba957610b94565b505b610bb481611cf0565b50565b606060008054610bc690613ce3565b80601f0160208091040260200160405190810160405280929190818152602001828054610bf290613ce3565b8015610c3f5780601f10610c1457610100808354040283529160200191610c3f565b820191906000526020600020905b815481529060010190602001808311610c2257829003601f168201915b5050505050905090565b600080610c588686868661161f565b90506004610c65826110af565b6007811115610c7657610c766138c3565b14610ccd5760405162461bcd60e51b815260206004820152602160248201527f476f7665726e6f723a2070726f706f73616c206e6f74207375636365737366756044820152601b60fa1b6064820152608401610b57565b600a54604080517ff27a0c9200000000000000000000000000000000000000000000000000000000815290516000926001600160a01b03169163f27a0c929160048083019260209291908290030181865afa158015610d30573d6000803e3d6000fd5b505050506040513d601f19601f82011682018060405250810190610d549190613d1e565b600a546040517fb1c5f4270000000000000000000000000000000000000000000000000000000081529192506001600160a01b03169063b1c5f42790610da7908a908a908a906000908b90600401613e00565b602060405180830381865afa158015610dc4573d6000803e3d6000fd5b505050506040513d601f19601f82011682018060405250810190610de89190613d1e565b6000838152600b602052604080822092909255600a5491517f8f2a0bb00000000000000000000000000000000000000000000000000000000081526001600160a01b0390921691638f2a0bb091610e4c918b918b918b91908b908990600401613e4e565b600060405180830381600087803b158015610e6657600080fd5b505af1158015610e7a573d6000803e3d6000fd5b505050507f9a2e42fd6722813d69113e7d0079d3d940171428df7373df9c7f7617cfda2892828242610eac9190613ebc565b6040805192835260208301919091520160405180910390a15095945050505050565b600080610edd8686868661161f565b90506000610eea826110af565b90506004816007811115610f0057610f006138c3565b1480610f1d57506005816007811115610f1b57610f1b6138c3565b145b610f735760405162461bcd60e51b815260206004820152602160248201527f476f7665726e6f723a2070726f706f73616c206e6f74207375636365737366756044820152601b60fa1b6064820152608401610b57565b600082815260016020818152604092839020600201805460ff191690921790915590518381527f712ae1383f79ac853f8d882153778e0260ef8f03b504e2866e0593e04d2b291f910160405180910390a1610fd18288888888611e57565b610fde8288888888611efa565b610feb8288888888611f07565b5095945050505050565b600081815260016020908152604080832081519283019091525467ffffffffffffffff16908190525b67ffffffffffffffff1692915050565b60006109da60045490565b604080517f150214d74d59b7d1e90c73fc22ef3d991dd0a76b046543d4d80ab92d2a50328f602082015290810186905260ff85166060820152600090819061108790610a9790608001610a7c565b90506110a487828860405180602001604052806000815250611f40565b979650505050505050565b60006109ea82611f63565b6000803390506110db84828560405180602001604052806000815250611f40565b949350505050565b6000803390506110a487828888888080601f0160208091040260200160405190810160405280939291908181526020018383808284376000920191909152508a9250611ac3915050565b60095460009080611142575050600854919050565b60006009611151600184613ed4565b8154811061116157611161613eeb565b60009182526020918290206040805180820190915291015463ffffffff81168083526401000000009091046001600160e01b031692820192909252915084106111b857602001516001600160e01b03169392505050565b6110db6009856120df565b6111cb6109c6565b6001600160a01b0316336001600160a01b03161461122b5760405162461bcd60e51b815260206004820152601860248201527f476f7665726e6f723a206f6e6c79476f7665726e616e636500000000000000006044820152606401610b57565b306112346109c6565b6001600160a01b0316146112765760008036604051611254929190613cd3565b604051809103902090505b8061126a6002611c40565b146112745761125f565b505b610bb481612192565b6000803390506112c786828787878080601f016020809104026020016040519081016040528093929190818152602001838380828437600092019190915250611f4092505050565b9695505050505050565b60006112db6121d3565b6112e78585858561222f565b95945050505050565b60006112fd848484612592565b90505b9392505050565b6009546000901561132a5761131c6009611943565b6001600160e01b0316905090565b5060085490565b6113396109c6565b6001600160a01b0316336001600160a01b0316146113995760405162461bcd60e51b815260206004820152601860248201527f476f7665726e6f723a206f6e6c79476f7665726e616e636500000000000000006044820152606401610b57565b306113a26109c6565b6001600160a01b0316146113e457600080366040516113c2929190613cd3565b604051809103902090505b806113d86002611c40565b146113e2576113cd565b505b610bb481612641565b600a546000828152600b60205260408082205490517fd45c44350000000000000000000000000000000000000000000000000000000081526004810191909152909182916001600160a01b039091169063d45c443590602401602060405180830381865afa158015611463573d6000803e3d6000fd5b505050506040513d601f19601f820116820180604052508101906114879190613d1e565b9050806001146114975780611300565b60009392505050565b60006109da60065490565b600081815260016020818152604080842081519283019091529091015467ffffffffffffffff169081905261101e565b6114e36109c6565b6001600160a01b0316336001600160a01b0316146115435760405162461bcd60e51b815260206004820152601860248201527f476f7665726e6f723a206f6e6c79476f7665726e616e636500000000000000006044820152606401610b57565b3061154c6109c6565b6001600160a01b03161461158e576000803660405161156c929190613cd3565b604051809103902090505b806115826002611c40565b1461158c57611577565b505b600080856001600160a01b03168585856040516115ac929190613cd3565b60006040518083038185875af1925050503d80600081146115e9576040519150601f19603f3d011682016040523d82523d6000602084013e6115ee565b606091505b50915091506116168282604051806060016040528060288152602001614157602891396126b7565b50505050505050565b6000848484846040516020016116389493929190613f01565b60408051601f19818403018152919052805160209091012095945050505050565b6116616109c6565b6001600160a01b0316336001600160a01b0316146116c15760405162461bcd60e51b815260206004820152601860248201527f476f7665726e6f723a206f6e6c79476f7665726e616e636500000000000000006044820152606401610b57565b306116ca6109c6565b6001600160a01b03161461170c57600080366040516116ea929190613cd3565b604051809103902090505b806117006002611c40565b1461170a576116f5565b505b610bb4816126d0565b6000611300838361173160408051602081019091526000815290565b612592565b61173e6109c6565b6001600160a01b0316336001600160a01b03161461179e5760405162461bcd60e51b815260206004820152601860248201527f476f7665726e6f723a206f6e6c79476f7665726e616e636500000000000000006044820152606401610b57565b306117a76109c6565b6001600160a01b0316146117e957600080366040516117c7929190613cd3565b604051809103902090505b806117dd6002611c40565b146117e7576117d2565b505b610bb481612787565b6117fa6121d3565b6001600160a01b0381166118765760405162461bcd60e51b815260206004820152602660248201527f4f776e61626c653a206e6577206f776e657220697320746865207a65726f206160448201527f64647265737300000000000000000000000000000000000000000000000000006064820152608401610b57565b610bb4816127c8565b60006109ea82612827565b60006001600160e01b038211156119095760405162461bcd60e51b815260206004820152602760248201527f53616665436173743a2076616c756520646f65736e27742066697420696e203260448201527f32342062697473000000000000000000000000000000000000000000000000006064820152608401610b57565b5090565b60008061192b8461191d43611982565b6119268661188a565b6128ea565b6001600160e01b0391821693501690505b9250929050565b805460009080156114975761196b8361195d600184613ed4565b600091825260209091200190565b5464010000000090046001600160e01b0316611300565b600063ffffffff8211156119095760405162461bcd60e51b815260206004820152602660248201527f53616665436173743a2076616c756520646f65736e27742066697420696e203360448201527f32206269747300000000000000000000000000000000000000000000000000006064820152608401610b57565b60006001600160e01b031982167f6e665ced0000000000000000000000000000000000000000000000000000000014806109ea57506109ea82612a98565b60006109ea611a49612b67565b836040517f19010000000000000000000000000000000000000000000000000000000000006020820152602281018390526042810182905260009060620160405160208183030381529060405280519060200120905092915050565b6000806000611ab687878787612c8e565b91509150610feb81612d52565b6000858152600160208190526040822090611add886110af565b6007811115611aee57611aee6138c3565b14611b615760405162461bcd60e51b815260206004820152602360248201527f476f7665726e6f723a20766f7465206e6f742063757272656e746c792061637460448201527f69766500000000000000000000000000000000000000000000000000000000006064820152608401610b57565b6040805160208101909152815467ffffffffffffffff1690819052600090611b8b90889086612592565b9050611b9a8888888488612ebb565b8351611bec57866001600160a01b03167fb8e138887d0aa13bab447e82de9d5c1777041ecd21ca36ba824ff1e6c07ddda489888489604051611bdf9493929190613f4c565b60405180910390a26110a4565b866001600160a01b03167fe2babfbac5889a709b63bb7f598b324e08bc5a4fb9ec647fb3cbc9ec07eb87128988848989604051611c2d959493929190613f74565b60405180910390a2979650505050505050565b6000611c5b8254600f81810b600160801b909204900b131590565b15611c92576040517f3db2a12a00000000000000000000000000000000000000000000000000000000815260040160405180910390fd5b508054600f0b6000818152600180840160205260408220805492905583547fffffffffffffffffffffffffffffffff000000000000000000000000000000001692016fffffffffffffffffffffffffffffffff169190911790915590565b6064811115611d8d5760405162461bcd60e51b815260206004820152604360248201527f476f7665726e6f72566f74657351756f72756d4672616374696f6e3a2071756f60448201527f72756d4e756d657261746f72206f7665722071756f72756d44656e6f6d696e6160648201527f746f720000000000000000000000000000000000000000000000000000000000608482015260a401610b57565b6000611d97611307565b90508015801590611da85750600954155b15611e0d57604080518082019091526000815260099060208101611dcb8461188a565b6001600160e01b0390811690915282546001810184556000938452602093849020835194909301519091166401000000000263ffffffff909316929092179101555b611e1860098361190d565b505060408051828152602081018490527f0553476bf02ef2726e8ce5ced78d63e26e602e4a2257b1f559418e24b4633997910160405180910390a15050565b30611e606109c6565b6001600160a01b031614611ef35760005b8451811015611ef157306001600160a01b0316858281518110611e9657611e96613eeb565b60200260200101516001600160a01b03161415611ee157611ee1838281518110611ec257611ec2613eeb565b602002602001015180519060200120600261305890919063ffffffff16565b611eea81613fba565b9050611e71565b505b5050505050565b611ef3858585858561309d565b30611f106109c6565b6001600160a01b031614611ef357600254600f81810b600160801b909204900b1315611ef3576000600255611ef3565b60006112e785858585611f5e60408051602081019091526000815290565b611ac3565b600080611f6f8361312a565b90506004816007811115611f8557611f856138c3565b14611f905792915050565b6000838152600b602052604090205480611fab575092915050565b600a546040517f2ab0f529000000000000000000000000000000000000000000000000000000008152600481018390526001600160a01b0390911690632ab0f52990602401602060405180830381865afa15801561200d573d6000803e3d6000fd5b505050506040513d601f19601f820116820180604052508101906120319190613fd5565b15612040575060079392505050565b600a546040517f584b153e000000000000000000000000000000000000000000000000000000008152600481018390526001600160a01b039091169063584b153e90602401602060405180830381865afa1580156120a2573d6000803e3d6000fd5b505050506040513d601f19601f820116820180604052508101906120c69190613fd5565b156120d5575060059392505050565b5060029392505050565b60004382106121305760405162461bcd60e51b815260206004820181905260248201527f436865636b706f696e74733a20626c6f636b206e6f7420796574206d696e65646044820152606401610b57565b600061213b83611982565b8454909150600061214e86848385613236565b9050801561217c576121658661195d600184613ed4565b5464010000000090046001600160e01b031661217f565b60005b6001600160e01b03169695505050505050565b60045460408051918252602082018390527fc565b045403dc03c2eea82b81a0465edad9e2e7fc4d97e11421c209da93d7a93910160405180910390a1600455565b600c546001600160a01b0316331461222d5760405162461bcd60e51b815260206004820181905260248201527f4f776e61626c653a2063616c6c6572206973206e6f7420746865206f776e65726044820152606401610b57565b565b60006122396114a0565b612248336108e8600143613ed4565b10156122bc5760405162461bcd60e51b815260206004820152603160248201527f476f7665726e6f723a2070726f706f73657220766f7465732062656c6f77207060448201527f726f706f73616c207468726573686f6c640000000000000000000000000000006064820152608401610b57565b60006122d1868686868051906020012061161f565b9050845186511461232e5760405162461bcd60e51b815260206004820152602160248201527f476f7665726e6f723a20696e76616c69642070726f706f73616c206c656e67746044820152600d60fb1b6064820152608401610b57565b83518651146123895760405162461bcd60e51b815260206004820152602160248201527f476f7665726e6f723a20696e76616c69642070726f706f73616c206c656e67746044820152600d60fb1b6064820152608401610b57565b60008651116123da5760405162461bcd60e51b815260206004820152601860248201527f476f7665726e6f723a20656d7074792070726f706f73616c00000000000000006044820152606401610b57565b6000818152600160209081526040918290208251918201909252815467ffffffffffffffff1690819052156124775760405162461bcd60e51b815260206004820152602160248201527f476f7665726e6f723a2070726f706f73616c20616c726561647920657869737460448201527f73000000000000000000000000000000000000000000000000000000000000006064820152608401610b57565b600061248961248461102e565b613294565b61249243613294565b61249c9190613ff7565b905060006124ab6124846109f0565b6124b59083613ff7565b835467ffffffffffffffff191667ffffffffffffffff8416178455905060018301805467ffffffffffffffff191667ffffffffffffffff83161790557f7d84a6263ae0d98d3329bd7b46bb4e8d6f98cd35a7adb45c274c8b7fd5ebd5e084338b8b8d5167ffffffffffffffff81111561253057612530613412565b60405190808252806020026020018201604052801561256357816020015b606081526020019060019003908161254e5790505b508c88888e60405161257d99989796959493929190614023565b60405180910390a15091979650505050505050565b6040517f3a46b1a80000000000000000000000000000000000000000000000000000000081526001600160a01b038481166004830152602482018490526000917f000000000000000000000000000000000000000000000000000000000000000090911690633a46b1a890604401602060405180830381865afa15801561261d573d6000803e3d6000fd5b505050506040513d601f19601f820116820180604052508101906112fd9190613d1e565b600a54604080516001600160a01b03928316815291831660208301527f08f74ea46ef7894f65eabfb5e6e695de773a000b47c529ab559178069b226401910160405180910390a1600a805473ffffffffffffffffffffffffffffffffffffffff19166001600160a01b0392909216919091179055565b606083156126c6575081611300565b6113008383613314565b600081116127465760405162461bcd60e51b815260206004820152602760248201527f476f7665726e6f7253657474696e67733a20766f74696e6720706572696f642060448201527f746f6f206c6f77000000000000000000000000000000000000000000000000006064820152608401610b57565b60055460408051918252602082018390527f7e3f7f0708a84de9203036abaa450dccc85ad5ff52f78c170f3edb55cf5e8828910160405180910390a1600555565b60065460408051918252602082018390527fccb45da8d5717e6c4544694297c4ba5cf151d455c9bb0ed4fc7a38411bc05461910160405180910390a1600655565b600c80546001600160a01b0383811673ffffffffffffffffffffffffffffffffffffffff19831681179093556040519116919082907f8be0079c531659141344cd1fd0a4f28419497f9722a3daafe3b4186f6b6457e090600090a35050565b600060646128348361112d565b6040517f8e539e8c000000000000000000000000000000000000000000000000000000008152600481018590527f00000000000000000000000000000000000000000000000000000000000000006001600160a01b031690638e539e8c90602401602060405180830381865afa1580156128b2573d6000803e3d6000fd5b505050506040513d601f19601f820116820180604052508101906128d69190613d1e565b6128e09190614115565b6109ea9190614134565b825460009081908015612a3a5760006129088761195d600185613ed4565b60408051808201909152905463ffffffff8082168084526401000000009092046001600160e01b03166020840152919250908716101561298a5760405162461bcd60e51b815260206004820152601760248201527f436865636b706f696e743a20696e76616c6964206b65790000000000000000006044820152606401610b57565b8563ffffffff16816000015163ffffffff1614156129da57846129b28861195d600186613ed4565b80546001600160e01b03929092166401000000000263ffffffff909216919091179055612a2a565b6040805180820190915263ffffffff80881682526001600160e01b0380881660208085019182528b54600181018d5560008d81529190912094519151909216640100000000029216919091179101555b602001519250839150612a909050565b50506040805180820190915263ffffffff80851682526001600160e01b0380851660208085019182528854600181018a5560008a8152918220955192519093166401000000000291909316179201919091559050815b935093915050565b60006001600160e01b031982167fbf26d897000000000000000000000000000000000000000000000000000000001480612afb57506001600160e01b031982167f79dd796f00000000000000000000000000000000000000000000000000000000145b80612b2f57506001600160e01b031982167f4e2312e000000000000000000000000000000000000000000000000000000000145b806109ea57507f01ffc9a7000000000000000000000000000000000000000000000000000000006001600160e01b03198316146109ea565b6000306001600160a01b037f000000000000000000000000000000000000000000000000000000000000000016148015612bc057507f000000000000000000000000000000000000000000000000000000000000000046145b15612bea57507f000000000000000000000000000000000000000000000000000000000000000090565b50604080517f00000000000000000000000000000000000000000000000000000000000000006020808301919091527f0000000000000000000000000000000000000000000000000000000000000000828401527f000000000000000000000000000000000000000000000000000000000000000060608301524660808301523060a0808401919091528351808403909101815260c0909201909252805191012090565b6000807f7fffffffffffffffffffffffffffffff5d576e7357a4501ddfe92f46681b20a0831115612cc55750600090506003612d49565b6040805160008082526020820180845289905260ff881692820192909252606081018690526080810185905260019060a0016020604051602081039080840390855afa158015612d19573d6000803e3d6000fd5b5050604051601f1901519150506001600160a01b038116612d4257600060019250925050612d49565b9150600090505b94509492505050565b6000816004811115612d6657612d666138c3565b1415612d6f5750565b6001816004811115612d8357612d836138c3565b1415612dd15760405162461bcd60e51b815260206004820152601860248201527f45434453413a20696e76616c6964207369676e617475726500000000000000006044820152606401610b57565b6002816004811115612de557612de56138c3565b1415612e335760405162461bcd60e51b815260206004820152601f60248201527f45434453413a20696e76616c6964207369676e6174757265206c656e677468006044820152606401610b57565b6003816004811115612e4757612e476138c3565b1415610bb45760405162461bcd60e51b815260206004820152602260248201527f45434453413a20696e76616c6964207369676e6174757265202773272076616c60448201527f75650000000000000000000000000000000000000000000000000000000000006064820152608401610b57565b60008581526007602090815260408083206001600160a01b0388168452600381019092529091205460ff1615612f595760405162461bcd60e51b815260206004820152602760248201527f476f7665726e6f72566f74696e6753696d706c653a20766f746520616c72656160448201527f64792063617374000000000000000000000000000000000000000000000000006064820152608401610b57565b6001600160a01b03851660009081526003820160205260408120805460ff1916600117905560ff168460ff161415612faa5782816000016000828254612f9f9190613ebc565b90915550611ef19050565b60ff841660011415612fca5782816001016000828254612f9f9190613ebc565b60ff841660021415612fea5782816002016000828254612f9f9190613ebc565b60405162461bcd60e51b815260206004820152603560248201527f476f7665726e6f72566f74696e6753696d706c653a20696e76616c696420766160448201527f6c756520666f7220656e756d20566f74655479706500000000000000000000006064820152608401610b57565b8154600160801b90819004600f0b6000818152600180860160205260409091209390935583546fffffffffffffffffffffffffffffffff908116939091011602179055565b600a546040517fe38335e50000000000000000000000000000000000000000000000000000000081526001600160a01b039091169063e38335e59034906130f1908890889088906000908990600401613e00565b6000604051808303818588803b15801561310a57600080fd5b505af115801561311e573d6000803e3d6000fd5b50505050505050505050565b6000818152600160205260408120600281015460ff161561314e5750600792915050565b6002810154610100900460ff16156131695750600292915050565b600061317484610ff5565b9050806131c35760405162461bcd60e51b815260206004820152601d60248201527f476f7665726e6f723a20756e6b6e6f776e2070726f706f73616c2069640000006044820152606401610b57565b4381106131d4575060009392505050565b60006131df856114ab565b90504381106131f357506001949350505050565b6131fc8561333e565b801561321b575060008581526007602052604090208054600190910154115b1561322b57506004949350505050565b506003949350505050565b60005b8183101561328c57600061324d8484613375565b60008781526020902090915063ffffffff86169082015463ffffffff16111561327857809250613286565b613283816001613ebc565b93505b50613239565b509392505050565b600067ffffffffffffffff8211156119095760405162461bcd60e51b815260206004820152602660248201527f53616665436173743a2076616c756520646f65736e27742066697420696e203660448201527f34206269747300000000000000000000000000000000000000000000000000006064820152608401610b57565b8151156133245781518083602001fd5b8060405162461bcd60e51b8152600401610b5791906135de565b6000818152600760205260408120600281015460018201546133609190613ebc565b61336c61098d85610ff5565b11159392505050565b60006133846002848418614134565b61130090848416613ebc565b6000602082840312156133a257600080fd5b81356001600160e01b03198116811461130057600080fd5b803560ff811681146133cb57600080fd5b919050565b60008083601f8401126133e257600080fd5b50813567ffffffffffffffff8111156133fa57600080fd5b60208301915083602082850101111561193c57600080fd5b634e487b7160e01b600052604160045260246000fd5b604051601f8201601f1916810167ffffffffffffffff8111828210171561345157613451613412565b604052919050565b600067ffffffffffffffff83111561347357613473613412565b613486601f8401601f1916602001613428565b905082815283838301111561349a57600080fd5b828260208301376000602084830101529392505050565b600082601f8301126134c257600080fd5b61130083833560208501613459565b60008060008060008060008060e0898b0312156134ed57600080fd5b883597506134fd60208a016133ba565b9650604089013567ffffffffffffffff8082111561351a57600080fd5b6135268c838d016133d0565b909850965060608b013591508082111561353f57600080fd5b5061354c8b828c016134b1565b94505061355b60808a016133ba565b925060a0890135915060c089013590509295985092959890939650565b60006020828403121561358a57600080fd5b5035919050565b6000815180845260005b818110156135b75760208185018101518683018201520161359b565b818111156135c9576000602083870101525b50601f01601f19169290920160200192915050565b6020815260006113006020830184613591565b6001600160a01b0381168114610bb457600080fd5b6000806000806080858703121561361c57600080fd5b8435613627816135f1565b93506020850135613637816135f1565b925060408501359150606085013567ffffffffffffffff81111561365a57600080fd5b613666878288016134b1565b91505092959194509250565b600067ffffffffffffffff82111561368c5761368c613412565b5060051b60200190565b600082601f8301126136a757600080fd5b813560206136bc6136b783613672565b613428565b82815260059290921b840181019181810190868411156136db57600080fd5b8286015b848110156136ff5780356136f2816135f1565b83529183019183016136df565b509695505050505050565b600082601f83011261371b57600080fd5b8135602061372b6136b783613672565b82815260059290921b8401810191818101908684111561374a57600080fd5b8286015b848110156136ff578035835291830191830161374e565b600082601f83011261377657600080fd5b813560206137866136b783613672565b82815260059290921b840181019181810190868411156137a557600080fd5b8286015b848110156136ff57803567ffffffffffffffff8111156137c95760008081fd5b6137d78986838b01016134b1565b8452509183019183016137a9565b600080600080608085870312156137fb57600080fd5b843567ffffffffffffffff8082111561381357600080fd5b61381f88838901613696565b9550602087013591508082111561383557600080fd5b6138418883890161370a565b9450604087013591508082111561385757600080fd5b5061386487828801613765565b949793965093946060013593505050565b600080600080600060a0868803121561388d57600080fd5b8535945061389d602087016133ba565b93506138ab604087016133ba565b94979396509394606081013594506080013592915050565b634e487b7160e01b600052602160045260246000fd5b60208101600883106138fb57634e487b7160e01b600052602160045260246000fd5b91905290565b6000806040838503121561391457600080fd5b823591506020830135613926816135f1565b809150509250929050565b6000806040838503121561394457600080fd5b82359150613954602084016133ba565b90509250929050565b60008060008060006080868803121561397557600080fd5b85359450613985602087016133ba565b9350604086013567ffffffffffffffff808211156139a257600080fd5b6139ae89838a016133d0565b909550935060608801359150808211156139c757600080fd5b506139d4888289016134b1565b9150509295509295909350565b600080600080606085870312156139f757600080fd5b84359350613a07602086016133ba565b9250604085013567ffffffffffffffff811115613a2357600080fd5b613a2f878288016133d0565b95989497509550505050565b60008060008060808587031215613a5157600080fd5b843567ffffffffffffffff80821115613a6957600080fd5b613a7588838901613696565b95506020870135915080821115613a8b57600080fd5b613a978883890161370a565b94506040870135915080821115613aad57600080fd5b613ab988838901613765565b93506060870135915080821115613acf57600080fd5b508501601f81018713613ae157600080fd5b61366687823560208401613459565b600080600060608486031215613b0557600080fd5b8335613b10816135f1565b925060208401359150604084013567ffffffffffffffff811115613b3357600080fd5b613b3f868287016134b1565b9150509250925092565b600060208284031215613b5b57600080fd5b8135611300816135f1565b600080600080600060a08688031215613b7e57600080fd5b8535613b89816135f1565b94506020860135613b99816135f1565b9350604086013567ffffffffffffffff80821115613bb657600080fd5b613bc289838a0161370a565b94506060880135915080821115613bd857600080fd5b613be489838a0161370a565b935060808801359150808211156139c757600080fd5b60008060008060608587031215613c1057600080fd5b8435613c1b816135f1565b935060208501359250604085013567ffffffffffffffff811115613a2357600080fd5b60008060408385031215613c5157600080fd5b8235613c5c816135f1565b946020939093013593505050565b600080600080600060a08688031215613c8257600080fd5b8535613c8d816135f1565b94506020860135613c9d816135f1565b93506040860135925060608601359150608086013567ffffffffffffffff811115613cc757600080fd5b6139d4888289016134b1565b8183823760009101908152919050565b600181811c90821680613cf757607f821691505b60208210811415613d1857634e487b7160e01b600052602260045260246000fd5b50919050565b600060208284031215613d3057600080fd5b5051919050565b600081518084526020808501945080840160005b83811015613d705781516001600160a01b031687529582019590820190600101613d4b565b509495945050505050565b600081518084526020808501945080840160005b83811015613d7057815187529582019590820190600101613d8f565b600081518084526020808501808196508360051b8101915082860160005b85811015613df3578284038952613de1848351613591565b98850198935090840190600101613dc9565b5091979650505050505050565b60a081526000613e1360a0830188613d37565b8281036020840152613e258188613d7b565b90508281036040840152613e398187613dab565b60608401959095525050608001529392505050565b60c081526000613e6160c0830189613d37565b8281036020840152613e738189613d7b565b90508281036040840152613e878188613dab565b60608401969096525050608081019290925260a0909101529392505050565b634e487b7160e01b600052601160045260246000fd5b60008219821115613ecf57613ecf613ea6565b500190565b600082821015613ee657613ee6613ea6565b500390565b634e487b7160e01b600052603260045260246000fd5b608081526000613f146080830187613d37565b8281036020840152613f268187613d7b565b90508281036040840152613f3a8186613dab565b91505082606083015295945050505050565b84815260ff841660208201528260408201526080606082015260006112c76080830184613591565b85815260ff8516602082015283604082015260a060608201526000613f9c60a0830185613591565b8281036080840152613fae8185613591565b98975050505050505050565b6000600019821415613fce57613fce613ea6565b5060010190565b600060208284031215613fe757600080fd5b8151801515811461130057600080fd5b600067ffffffffffffffff80831681851680830382111561401a5761401a613ea6565b01949350505050565b60006101208b835260206001600160a01b038c168185015281604085015261404d8285018c613d37565b91508382036060850152614061828b613d7b565b915083820360808501528189518084528284019150828160051b850101838c0160005b838110156140b257601f198784030185526140a0838351613591565b94860194925090850190600101614084565b505086810360a08801526140c6818c613dab565b9450505050506140e260c084018767ffffffffffffffff169052565b67ffffffffffffffff851660e08401528281036101008401526141058185613591565b9c9b505050505050505050505050565b600081600019048311821515161561412f5761412f613ea6565b500290565b60008261415157634e487b7160e01b600052601260045260246000fd5b50049056fe476f7665726e6f723a2072656c617920726576657274656420776974686f7574206d657373616765a2646970667358221220b60432d322e64e5b11a864252e9b58522af65eb0c0b00be9466b87736984774464736f6c634300080b0033",
  "linkReferences": {},
  "deployedLinkReferences": {}
}