{
  "_format": "hh-sol-artifact-1",
  "contractName": "MyGovernor",
  "sourceName": "contracts/governance/Governance.sol",
  "abi": [
    {
      "inputs": [
        {
          "internalType": "contract IVotes",
          "name": "_token",
          "type": "address"
        },
        {
          "internalType": "contract TimelockController",
          "name": "_timelock",
          "type": "address"
        }
      ],
      "stateMutability": "nonpayable",
      "type": "constructor"
    },
    {
      "inputs": [],
      "name": "Empty",
      "type": "error"
    },
    {
      "anonymous": false,
      "inputs": [
        {
          "indexed": true,
          "internalType": "address",
          "name": "previousOwner",
          "type": "address"
        },
        {
          "indexed": true,
          "internalType": "address",
          "name": "newOwner",
          "type": "address"
        }
      ],
      "name": "OwnershipTransferred",
      "type": "event"
    },
    {
      "anonymous": false,
      "inputs": [
        {
          "indexed": false,
          "internalType": "uint256",
          "name": "proposalId",
          "type": "uint256"
        }
      ],
      "name": "ProposalCanceled",
      "type": "event"
    },
    {
      "anonymous": false,
      "inputs": [
        {
          "indexed": false,
          "internalType": "uint256",
          "name": "proposalId",
          "type": "uint256"
        },
        {
          "indexed": false,
          "internalType": "address",
          "name": "proposer",
          "type": "address"
        },
        {
          "indexed": false,
          "internalType": "address[]",
          "name": "targets",
          "type": "address[]"
        },
        {
          "indexed": false,
          "internalType": "uint256[]",
          "name": "values",
          "type": "uint256[]"
        },
        {
          "indexed": false,
          "internalType": "string[]",
          "name": "signatures",
          "type": "string[]"
        },
        {
          "indexed": false,
          "internalType": "bytes[]",
          "name": "calldatas",
          "type": "bytes[]"
        },
        {
          "indexed": false,
          "internalType": "uint256",
          "name": "startBlock",
          "type": "uint256"
        },
        {
          "indexed": false,
          "internalType": "uint256",
          "name": "endBlock",
          "type": "uint256"
        },
        {
          "indexed": false,
          "internalType": "string",
          "name": "description",
          "type": "string"
        }
      ],
      "name": "ProposalCreated",
      "type": "event"
    },
    {
      "anonymous": false,
      "inputs": [
        {
          "indexed": false,
          "internalType": "uint256",
          "name": "proposalId",
          "type": "uint256"
        }
      ],
      "name": "ProposalExecuted",
      "type": "event"
    },
    {
      "anonymous": false,
      "inputs": [
        {
          "indexed": false,
          "internalType": "uint256",
          "name": "proposalId",
          "type": "uint256"
        },
        {
          "indexed": false,
          "internalType": "uint256",
          "name": "eta",
          "type": "uint256"
        }
      ],
      "name": "ProposalQueued",
      "type": "event"
    },
    {
      "anonymous": false,
      "inputs": [
        {
          "indexed": false,
          "internalType": "uint256",
          "name": "oldProposalThreshold",
          "type": "uint256"
        },
        {
          "indexed": false,
          "internalType": "uint256",
          "name": "newProposalThreshold",
          "type": "uint256"
        }
      ],
      "name": "ProposalThresholdSet",
      "type": "event"
    },
    {
      "anonymous": false,
      "inputs": [
        {
          "indexed": false,
          "internalType": "uint256",
          "name": "oldQuorumNumerator",
          "type": "uint256"
        },
        {
          "indexed": false,
          "internalType": "uint256",
          "name": "newQuorumNumerator",
          "type": "uint256"
        }
      ],
      "name": "QuorumNumeratorUpdated",
      "type": "event"
    },
    {
      "anonymous": false,
      "inputs": [
        {
          "indexed": false,
          "internalType": "address",
          "name": "oldTimelock",
          "type": "address"
        },
        {
          "indexed": false,
          "internalType": "address",
          "name": "newTimelock",
          "type": "address"
        }
      ],
      "name": "TimelockChange",
      "type": "event"
    },
    {
      "anonymous": false,
      "inputs": [
        {
          "indexed": true,
          "internalType": "address",
          "name": "voter",
          "type": "address"
        },
        {
          "indexed": false,
          "internalType": "uint256",
          "name": "proposalId",
          "type": "uint256"
        },
        {
          "indexed": false,
          "internalType": "uint8",
          "name": "support",
          "type": "uint8"
        },
        {
          "indexed": false,
          "internalType": "uint256",
          "name": "weight",
          "type": "uint256"
        },
        {
          "indexed": false,
          "internalType": "string",
          "name": "reason",
          "type": "string"
        }
      ],
      "name": "VoteCast",
      "type": "event"
    },
    {
      "anonymous": false,
      "inputs": [
        {
          "indexed": true,
          "internalType": "address",
          "name": "voter",
          "type": "address"
        },
        {
          "indexed": false,
          "internalType": "uint256",
          "name": "proposalId",
          "type": "uint256"
        },
        {
          "indexed": false,
          "internalType": "uint8",
          "name": "support",
          "type": "uint8"
        },
        {
          "indexed": false,
          "internalType": "uint256",
          "name": "weight",
          "type": "uint256"
        },
        {
          "indexed": false,
          "internalType": "string",
          "name": "reason",
          "type": "string"
        },
        {
          "indexed": false,
          "internalType": "bytes",
          "name": "params",
          "type": "bytes"
        }
      ],
      "name": "VoteCastWithParams",
      "type": "event"
    },
    {
      "anonymous": false,
      "inputs": [
        {
          "indexed": false,
          "internalType": "uint256",
          "name": "oldVotingDelay",
          "type": "uint256"
        },
        {
          "indexed": false,
          "internalType": "uint256",
          "name": "newVotingDelay",
          "type": "uint256"
        }
      ],
      "name": "VotingDelaySet",
      "type": "event"
    },
    {
      "anonymous": false,
      "inputs": [
        {
          "indexed": false,
          "internalType": "uint256",
          "name": "oldVotingPeriod",
          "type": "uint256"
        },
        {
          "indexed": false,
          "internalType": "uint256",
          "name": "newVotingPeriod",
          "type": "uint256"
        }
      ],
      "name": "VotingPeriodSet",
      "type": "event"
    },
    {
      "inputs": [],
      "name": "BALLOT_TYPEHASH",
      "outputs": [
        {
          "internalType": "bytes32",
          "name": "",
          "type": "bytes32"
        }
      ],
      "stateMutability": "view",
      "type": "function"
    },
    {
      "inputs": [],
      "name": "COUNTING_MODE",
      "outputs": [
        {
          "internalType": "string",
          "name": "",
          "type": "string"
        }
      ],
      "stateMutability": "pure",
      "type": "function"
    },
    {
      "inputs": [],
      "name": "EXTENDED_BALLOT_TYPEHASH",
      "outputs": [
        {
          "internalType": "bytes32",
          "name": "",
          "type": "bytes32"
        }
      ],
      "stateMutability": "view",
      "type": "function"
    },
    {
      "inputs": [
        {
          "internalType": "uint256",
          "name": "proposalId",
          "type": "uint256"
        },
        {
          "internalType": "uint8",
          "name": "support",
          "type": "uint8"
        }
      ],
      "name": "castVote",
      "outputs": [
        {
          "internalType": "uint256",
          "name": "",
          "type": "uint256"
        }
      ],
      "stateMutability": "nonpayable",
      "type": "function"
    },
    {
      "inputs": [
        {
          "internalType": "uint256",
          "name": "proposalId",
          "type": "uint256"
        },
        {
          "internalType": "uint8",
          "name": "support",
          "type": "uint8"
        },
        {
          "internalType": "uint8",
          "name": "v",
          "type": "uint8"
        },
        {
          "internalType": "bytes32",
          "name": "r",
          "type": "bytes32"
        },
        {
          "internalType": "bytes32",
          "name": "s",
          "type": "bytes32"
        }
      ],
      "name": "castVoteBySig",
      "outputs": [
        {
          "internalType": "uint256",
          "name": "",
          "type": "uint256"
        }
      ],
      "stateMutability": "nonpayable",
      "type": "function"
    },
    {
      "inputs": [
        {
          "internalType": "uint256",
          "name": "proposalId",
          "type": "uint256"
        },
        {
          "internalType": "uint8",
          "name": "support",
          "type": "uint8"
        },
        {
          "internalType": "string",
          "name": "reason",
          "type": "string"
        }
      ],
      "name": "castVoteWithReason",
      "outputs": [
        {
          "internalType": "uint256",
          "name": "",
          "type": "uint256"
        }
      ],
      "stateMutability": "nonpayable",
      "type": "function"
    },
    {
      "inputs": [
        {
          "internalType": "uint256",
          "name": "proposalId",
          "type": "uint256"
        },
        {
          "internalType": "uint8",
          "name": "support",
          "type": "uint8"
        },
        {
          "internalType": "string",
          "name": "reason",
          "type": "string"
        },
        {
          "internalType": "bytes",
          "name": "params",
          "type": "bytes"
        }
      ],
      "name": "castVoteWithReasonAndParams",
      "outputs": [
        {
          "internalType": "uint256",
          "name": "",
          "type": "uint256"
        }
      ],
      "stateMutability": "nonpayable",
      "type": "function"
    },
    {
      "inputs": [
        {
          "internalType": "uint256",
          "name": "proposalId",
          "type": "uint256"
        },
        {
          "internalType": "uint8",
          "name": "support",
          "type": "uint8"
        },
        {
          "internalType": "string",
          "name": "reason",
          "type": "string"
        },
        {
          "internalType": "bytes",
          "name": "params",
          "type": "bytes"
        },
        {
          "internalType": "uint8",
          "name": "v",
          "type": "uint8"
        },
        {
          "internalType": "bytes32",
          "name": "r",
          "type": "bytes32"
        },
        {
          "internalType": "bytes32",
          "name": "s",
          "type": "bytes32"
        }
      ],
      "name": "castVoteWithReasonAndParamsBySig",
      "outputs": [
        {
          "internalType": "uint256",
          "name": "",
          "type": "uint256"
        }
      ],
      "stateMutability": "nonpayable",
      "type": "function"
    },
    {
      "inputs": [
        {
          "internalType": "address[]",
          "name": "targets",
          "type": "address[]"
        },
        {
          "internalType": "uint256[]",
          "name": "values",
          "type": "uint256[]"
        },
        {
          "internalType": "bytes[]",
          "name": "calldatas",
          "type": "bytes[]"
        },
        {
          "internalType": "bytes32",
          "name": "descriptionHash",
          "type": "bytes32"
        }
      ],
      "name": "execute",
      "outputs": [
        {
          "internalType": "uint256",
          "name": "",
          "type": "uint256"
        }
      ],
      "stateMutability": "payable",
      "type": "function"
    },
    {
      "inputs": [
        {
          "internalType": "address",
          "name": "account",
          "type": "address"
        },
        {
          "internalType": "uint256",
          "name": "blockNumber",
          "type": "uint256"
        }
      ],
      "name": "getVotes",
      "outputs": [
        {
          "internalType": "uint256",
          "name": "",
          "type": "uint256"
        }
      ],
      "stateMutability": "view",
      "type": "function"
    },
    {
      "inputs": [
        {
          "internalType": "address",
          "name": "account",
          "type": "address"
        },
        {
          "internalType": "uint256",
          "name": "blockNumber",
          "type": "uint256"
        },
        {
          "internalType": "bytes",
          "name": "params",
          "type": "bytes"
        }
      ],
      "name": "getVotesWithParams",
      "outputs": [
        {
          "internalType": "uint256",
          "name": "",
          "type": "uint256"
        }
      ],
      "stateMutability": "view",
      "type": "function"
    },
    {
      "inputs": [
        {
          "internalType": "uint256",
          "name": "proposalId",
          "type": "uint256"
        },
        {
          "internalType": "address",
          "name": "account",
          "type": "address"
        }
      ],
      "name": "hasVoted",
      "outputs": [
        {
          "internalType": "bool",
          "name": "",
          "type": "bool"
        }
      ],
      "stateMutability": "view",
      "type": "function"
    },
    {
      "inputs": [
        {
          "internalType": "address[]",
          "name": "targets",
          "type": "address[]"
        },
        {
          "internalType": "uint256[]",
          "name": "values",
          "type": "uint256[]"
        },
        {
          "internalType": "bytes[]",
          "name": "calldatas",
          "type": "bytes[]"
        },
        {
          "internalType": "bytes32",
          "name": "descriptionHash",
          "type": "bytes32"
        }
      ],
      "name": "hashProposal",
      "outputs": [
        {
          "internalType": "uint256",
          "name": "",
          "type": "uint256"
        }
      ],
      "stateMutability": "pure",
      "type": "function"
    },
    {
      "inputs": [],
      "name": "name",
      "outputs": [
        {
          "internalType": "string",
          "name": "",
          "type": "string"
        }
      ],
      "stateMutability": "view",
      "type": "function"
    },
    {
      "inputs": [
        {
          "internalType": "address",
          "name": "",
          "type": "address"
        },
        {
          "internalType": "address",
          "name": "",
          "type": "address"
        },
        {
          "internalType": "uint256[]",
          "name": "",
          "type": "uint256[]"
        },
        {
          "internalType": "uint256[]",
          "name": "",
          "type": "uint256[]"
        },
        {
          "internalType": "bytes",
          "name": "",
          "type": "bytes"
        }
      ],
      "name": "onERC1155BatchReceived",
      "outputs": [
        {
          "internalType": "bytes4",
          "name": "",
          "type": "bytes4"
        }
      ],
      "stateMutability": "nonpayable",
      "type": "function"
    },
    {
      "inputs": [
        {
          "internalType": "address",
          "name": "",
          "type": "address"
        },
        {
          "internalType": "address",
          "name": "",
          "type": "address"
        },
        {
          "internalType": "uint256",
          "name": "",
          "type": "uint256"
        },
        {
          "internalType": "uint256",
          "name": "",
          "type": "uint256"
        },
        {
          "internalType": "bytes",
          "name": "",
          "type": "bytes"
        }
      ],
      "name": "onERC1155Received",
      "outputs": [
        {
          "internalType": "bytes4",
          "name": "",
          "type": "bytes4"
        }
      ],
      "stateMutability": "nonpayable",
      "type": "function"
    },
    {
      "inputs": [
        {
          "internalType": "address",
          "name": "",
          "type": "address"
        },
        {
          "internalType": "address",
          "name": "",
          "type": "address"
        },
        {
          "internalType": "uint256",
          "name": "",
          "type": "uint256"
        },
        {
          "internalType": "bytes",
          "name": "",
          "type": "bytes"
        }
      ],
      "name": "onERC721Received",
      "outputs": [
        {
          "internalType": "bytes4",
          "name": "",
          "type": "bytes4"
        }
      ],
      "stateMutability": "nonpayable",
      "type": "function"
    },
    {
      "inputs": [],
      "name": "owner",
      "outputs": [
        {
          "internalType": "address",
          "name": "",
          "type": "address"
        }
      ],
      "stateMutability": "view",
      "type": "function"
    },
    {
      "inputs": [
        {
          "internalType": "uint256",
          "name": "proposalId",
          "type": "uint256"
        }
      ],
      "name": "proposalDeadline",
      "outputs": [
        {
          "internalType": "uint256",
          "name": "",
          "type": "uint256"
        }
      ],
      "stateMutability": "view",
      "type": "function"
    },
    {
      "inputs": [
        {
          "internalType": "uint256",
          "name": "proposalId",
          "type": "uint256"
        }
      ],
      "name": "proposalEta",
      "outputs": [
        {
          "internalType": "uint256",
          "name": "",
          "type": "uint256"
        }
      ],
      "stateMutability": "view",
      "type": "function"
    },
    {
      "inputs": [
        {
          "internalType": "uint256",
          "name": "proposalId",
          "type": "uint256"
        }
      ],
      "name": "proposalSnapshot",
      "outputs": [
        {
          "internalType": "uint256",
          "name": "",
          "type": "uint256"
        }
      ],
      "stateMutability": "view",
      "type": "function"
    },
    {
      "inputs": [],
      "name": "proposalThreshold",
      "outputs": [
        {
          "internalType": "uint256",
          "name": "",
          "type": "uint256"
        }
      ],
      "stateMutability": "view",
      "type": "function"
    },
    {
      "inputs": [
        {
          "internalType": "uint256",
          "name": "proposalId",
          "type": "uint256"
        }
      ],
      "name": "proposalVotes",
      "outputs": [
        {
          "internalType": "uint256",
          "name": "againstVotes",
          "type": "uint256"
        },
        {
          "internalType": "uint256",
          "name": "forVotes",
          "type": "uint256"
        },
        {
          "internalType": "uint256",
          "name": "abstainVotes",
          "type": "uint256"
        }
      ],
      "stateMutability": "view",
      "type": "function"
    },
    {
      "inputs": [
        {
          "internalType": "address[]",
          "name": "targets",
          "type": "address[]"
        },
        {
          "internalType": "uint256[]",
          "name": "values",
          "type": "uint256[]"
        },
        {
          "internalType": "bytes[]",
          "name": "calldatas",
          "type": "bytes[]"
        },
        {
          "internalType": "string",
          "name": "description",
          "type": "string"
        }
      ],
      "name": "propose",
      "outputs": [
        {
          "internalType": "uint256",
          "name": "",
          "type": "uint256"
        }
      ],
      "stateMutability": "nonpayable",
      "type": "function"
    },
    {
      "inputs": [
        {
          "internalType": "address[]",
          "name": "targets",
          "type": "address[]"
        },
        {
          "internalType": "uint256[]",
          "name": "values",
          "type": "uint256[]"
        },
        {
          "internalType": "bytes[]",
          "name": "calldatas",
          "type": "bytes[]"
        },
        {
          "internalType": "bytes32",
          "name": "descriptionHash",
          "type": "bytes32"
        }
      ],
      "name": "queue",
      "outputs": [
        {
          "internalType": "uint256",
          "name": "",
          "type": "uint256"
        }
      ],
      "stateMutability": "nonpayable",
      "type": "function"
    },
    {
      "inputs": [
        {
          "internalType": "uint256",
          "name": "blockNumber",
          "type": "uint256"
        }
      ],
      "name": "quorum",
      "outputs": [
        {
          "internalType": "uint256",
          "name": "",
          "type": "uint256"
        }
      ],
      "stateMutability": "view",
      "type": "function"
    },
    {
      "inputs": [],
      "name": "quorumDenominator",
      "outputs": [
        {
          "internalType": "uint256",
          "name": "",
          "type": "uint256"
        }
      ],
      "stateMutability": "view",
      "type": "function"
    },
    {
      "inputs": [
        {
          "internalType": "uint256",
          "name": "blockNumber",
          "type": "uint256"
        }
      ],
      "name": "quorumNumerator",
      "outputs": [
        {
          "internalType": "uint256",
          "name": "",
          "type": "uint256"
        }
      ],
      "stateMutability": "view",
      "type": "function"
    },
    {
      "inputs": [],
      "name": "quorumNumerator",
      "outputs": [
        {
          "internalType": "uint256",
          "name": "",
          "type": "uint256"
        }
      ],
      "stateMutability": "view",
      "type": "function"
    },
    {
      "inputs": [
        {
          "internalType": "address",
          "name": "target",
          "type": "address"
        },
        {
          "internalType": "uint256",
          "name": "value",
          "type": "uint256"
        },
        {
          "internalType": "bytes",
          "name": "data",
          "type": "bytes"
        }
      ],
      "name": "relay",
      "outputs": [],
      "stateMutability": "payable",
      "type": "function"
    },
    {
      "inputs": [],
      "name": "renounceOwnership",
      "outputs": [],
      "stateMutability": "nonpayable",
      "type": "function"
    },
    {
      "inputs": [
        {
          "internalType": "uint256",
          "name": "newProposalThreshold",
          "type": "uint256"
        }
      ],
      "name": "setProposalThreshold",
      "outputs": [],
      "stateMutability": "nonpayable",
      "type": "function"
    },
    {
      "inputs": [
        {
          "internalType": "uint256",
          "name": "newVotingDelay",
          "type": "uint256"
        }
      ],
      "name": "setVotingDelay",
      "outputs": [],
      "stateMutability": "nonpayable",
      "type": "function"
    },
    {
      "inputs": [
        {
          "internalType": "uint256",
          "name": "newVotingPeriod",
          "type": "uint256"
        }
      ],
      "name": "setVotingPeriod",
      "outputs": [],
      "stateMutability": "nonpayable",
      "type": "function"
    },
    {
      "inputs": [
        {
          "internalType": "uint256",
          "name": "proposalId",
          "type": "uint256"
        }
      ],
      "name": "state",
      "outputs": [
        {
          "internalType": "enum IGovernor.ProposalState",
          "name": "",
          "type": "uint8"
        }
      ],
      "stateMutability": "view",
      "type": "function"
    },
    {
      "inputs": [
        {
          "internalType": "bytes4",
          "name": "interfaceId",
          "type": "bytes4"
        }
      ],
      "name": "supportsInterface",
      "outputs": [
        {
          "internalType": "bool",
          "name": "",
          "type": "bool"
        }
      ],
      "stateMutability": "view",
      "type": "function"
    },
    {
      "inputs": [],
      "name": "timelock",
      "outputs": [
        {
          "internalType": "address",
          "name": "",
          "type": "address"
        }
      ],
      "stateMutability": "view",
      "type": "function"
    },
    {
      "inputs": [],
      "name": "token",
      "outputs": [
        {
          "internalType": "contract IVotes",
          "name": "",
          "type": "address"
        }
      ],
      "stateMutability": "view",
      "type": "function"
    },
    {
      "inputs": [
        {
          "internalType": "address",
          "name": "newOwner",
          "type": "address"
        }
      ],
      "name": "transferOwnership",
      "outputs": [],
      "stateMutability": "nonpayable",
      "type": "function"
    },
    {
      "inputs": [
        {
          "internalType": "uint256",
          "name": "newQuorumNumerator",
          "type": "uint256"
        }
      ],
      "name": "updateQuorumNumerator",
      "outputs": [],
      "stateMutability": "nonpayable",
      "type": "function"
    },
    {
      "inputs": [
        {
          "internalType": "contract TimelockController",
          "name": "newTimelock",
          "type": "address"
        }
      ],
      "name": "updateTimelock",
      "outputs": [],
      "stateMutability": "nonpayable",
      "type": "function"
    },
    {
      "inputs": [],
      "name": "version",
      "outputs": [
        {
          "internalType": "string",
          "name": "",
          "type": "string"
        }
      ],
      "stateMutability": "view",
      "type": "function"
    },
    {
      "inputs": [],
      "name": "votingDelay",
      "outputs": [
        {
          "internalType": "uint256",
          "name": "",
          "type": "uint256"
        }
      ],
      "stateMutability": "view",
      "type": "function"
    },
    {
      "inputs": [],
      "name": "votingPeriod",
      "outputs": [
        {
          "internalType": "uint256",
          "name": "",
          "type": "uint256"
        }
      ],
      "stateMutability": "view",
      "type": "function"
    },
    {
      "stateMutability": "payable",
      "type": "receive"
    }
  ],
  "bytecode": "0x6101606040523480156200001257600080fd5b50604051620046d6380380620046d683398101604081905262000035916200090e565b806033836002610b4060006040518060400160405280600a81526020016926bca3b7bb32b93737b960b11b81525080620000746200017960201b60201c565b815160208084019190912082518383012060e08290526101008190524660a0818152604080517f8b73c3c69bb8fe3d512ecc4cf759cc79239f7b179b0ffacaa9a75d522b39400f81880181905281830187905260608201869052608082019490945230818401528151808203909301835260c00190528051940193909320919290916080523060c05261012052505082516200011a925060009150602084019062000859565b506200012890508362000194565b6200013382620001d5565b6200013e816200027c565b5050506001600160a01b0316610140526200015981620002bd565b50620001658162000435565b5062000171336200049e565b5050620009b0565b6040805180820190915260018152603160f81b602082015290565b60045460408051918252602082018390527fc565b045403dc03c2eea82b81a0465edad9e2e7fc4d97e11421c209da93d7a93910160405180910390a1600455565b600081116200023b5760405162461bcd60e51b815260206004820152602760248201527f476f7665726e6f7253657474696e67733a20766f74696e6720706572696f6420604482015266746f6f206c6f7760c81b60648201526084015b60405180910390fd5b60055460408051918252602082018390527f7e3f7f0708a84de9203036abaa450dccc85ad5ff52f78c170f3edb55cf5e8828910160405180910390a1600555565b60065460408051918252602082018390527fccb45da8d5717e6c4544694297c4ba5cf151d455c9bb0ed4fc7a38411bc05461910160405180910390a1600655565b6064811115620003425760405162461bcd60e51b815260206004820152604360248201527f476f7665726e6f72566f74657351756f72756d4672616374696f6e3a2071756f60448201527f72756d4e756d657261746f72206f7665722071756f72756d44656e6f6d696e616064820152623a37b960e91b608482015260a40162000232565b60006200034e620004f0565b90508015801590620003605750600954155b15620003db5760096000016040518060400160405280600063ffffffff16815260200162000399846200052860201b620015c81760201c565b6001600160e01b0390811690915282546001810184556000938452602093849020835194909301519091166401000000000263ffffffff909316929092179101555b620003f68260096200059760201b620016351790919060201c565b505060408051828152602081018490527f0553476bf02ef2726e8ce5ced78d63e26e602e4a2257b1f559418e24b4633997910160405180910390a15050565b600a54604080516001600160a01b03928316815291831660208301527f08f74ea46ef7894f65eabfb5e6e695de773a000b47c529ab559178069b226401910160405180910390a1600a80546001600160a01b0319166001600160a01b0392909216919091179055565b600c80546001600160a01b038381166001600160a01b0319831681179093556040519116919082907f8be0079c531659141344cd1fd0a4f28419497f9722a3daafe3b4186f6b6457e090600090a35050565b600954600090156200052157620005136009620005ea60201b6200166b1760201c565b6001600160e01b0316905090565b5060085490565b60006001600160e01b03821115620005935760405162461bcd60e51b815260206004820152602760248201527f53616665436173743a2076616c756520646f65736e27742066697420696e20326044820152663234206269747360c81b606482015260840162000232565b5090565b600080620005d484600001620005b8436200063860201b620016a91760201c565b620005ce866200052860201b620015c81760201c565b6200069f565b6001600160e01b03918216969116945092505050565b805460009080156200062e576200061683620006086001846200094d565b600091825260209091200190565b5464010000000090046001600160e01b031662000631565b60005b9392505050565b600063ffffffff821115620005935760405162461bcd60e51b815260206004820152602660248201527f53616665436173743a2076616c756520646f65736e27742066697420696e203360448201526532206269747360d01b606482015260840162000232565b825460009081908015620007fb576000620006c187620006086001856200094d565b60408051808201909152905463ffffffff8082168084526401000000009092046001600160e01b031660208401529192509087161015620007455760405162461bcd60e51b815260206004820152601760248201527f436865636b706f696e743a20696e76616c6964206b6579000000000000000000604482015260640162000232565b8563ffffffff16816000015163ffffffff1614156200079a57846200077188620006086001866200094d565b80546001600160e01b03929092166401000000000263ffffffff909216919091179055620007ea565b6040805180820190915263ffffffff80881682526001600160e01b0380881660208085019182528b54600181018d5560008d81529190912094519151909216640100000000029216919091179101555b602001519250839150620008519050565b50506040805180820190915263ffffffff80851682526001600160e01b0380851660208085019182528854600181018a5560008a8152918220955192519093166401000000000291909316179201919091559050815b935093915050565b828054620008679062000973565b90600052602060002090601f0160209004810192826200088b5760008555620008d6565b82601f10620008a657805160ff1916838001178555620008d6565b82800160010185558215620008d6579182015b82811115620008d6578251825591602001919060010190620008b9565b50620005939291505b80821115620005935760008155600101620008df565b6001600160a01b03811681146200090b57600080fd5b50565b600080604083850312156200092257600080fd5b82516200092f81620008f5565b60208401519092506200094281620008f5565b809150509250929050565b6000828210156200096e57634e487b7160e01b600052601160045260246000fd5b500390565b600181811c908216806200098857607f821691505b60208210811415620009aa57634e487b7160e01b600052602260045260246000fd5b50919050565b60805160a05160c05160e051610100516101205161014051613cbd62000a19600039600081816108dd015281816121ad01526123a1015260006126c701526000612716015260006126f10152600061264a015260006126740152600061269e0152613cbd6000f3fe60806040526004361061026b5760003560e01c80637d5e81e211610144578063c59057e4116100b6578063eb9019d41161007a578063eb9019d41461081f578063ece40cc11461083f578063f23a6e611461085f578063f2fde38b1461088b578063f8ce560a146108ab578063fc0c546a146108cb57600080fd5b8063c59057e414610747578063d33219b414610767578063dd4e2ba514610785578063deaaa7cc146107cb578063ea0217cf146107ff57600080fd5b8063a890c91011610108578063a890c91014610693578063ab58fb8e146106b3578063b58131b0146106d3578063bc197c81146106e8578063c01f9e3714610714578063c28bc2fa1461073457600080fd5b80637d5e81e2146105f85780638da5cb5b1461061857806397c3d3341461064a5780639a802a6d1461065e578063a7713a701461067e57600080fd5b80633bccf4fd116101dd57806356781388116101a157806356781388146105435780635f398a141461056357806360c4247f1461058357806370b0f660146105a3578063715018a6146105c35780637b3c71d3146105d857600080fd5b80633bccf4fd1461042d5780633e4f49e61461044d578063438596321461047a578063544ffc9c146104c457806354fd4d501461051957600080fd5b8063150b7a021161022f578063150b7a021461034d578063160cbed7146103915780632656227d146103b15780632d63f693146103c45780632fe3e261146103e45780633932abb11461041857600080fd5b806301ffc9a71461029357806302a251a3146102c857806303420181146102eb57806306f3f9e61461030b57806306fdde031461032b57600080fd5b3661028e57306102796108ff565b6001600160a01b03161461028c57600080fd5b005b600080fd5b34801561029f57600080fd5b506102b36102ae366004612df3565b610918565b60405190151581526020015b60405180910390f35b3480156102d457600080fd5b506102dd610929565b6040519081526020016102bf565b3480156102f757600080fd5b506102dd610306366004612f31565b610934565b34801561031757600080fd5b5061028c610326366004612fd7565b610a2c565b34801561033757600080fd5b50610340610ac4565b6040516102bf919061303d565b34801561035957600080fd5b50610378610368366004613065565b630a85bd0160e11b949350505050565b6040516001600160e01b031990911681526020016102bf565b34801561039d57600080fd5b506102dd6103ac366004613241565b610b56565b6102dd6103bf366004613241565b610d56565b3480156103d057600080fd5b506102dd6103df366004612fd7565b610e43565b3480156103f057600080fd5b506102dd7fb3b3f3b703cd84ce352197dcff232b1b5d3cfb2025ce47cf04742d0651f1af8881565b34801561042457600080fd5b506102dd610e7a565b34801561043957600080fd5b506102dd6104483660046132d0565b610e85565b34801561045957600080fd5b5061046d610468366004612fd7565b610efb565b6040516102bf9190613334565b34801561048657600080fd5b506102b361049536600461335c565b60008281526007602090815260408083206001600160a01b038516845260030190915290205460ff1692915050565b3480156104d057600080fd5b506104fe6104df366004612fd7565b6000908152600760205260409020805460018201546002909201549092565b604080519384526020840192909252908201526060016102bf565b34801561052557600080fd5b506040805180820190915260018152603160f81b6020820152610340565b34801561054f57600080fd5b506102dd61055e36600461338c565b610f06565b34801561056f57600080fd5b506102dd61057e3660046133b8565b610f2f565b34801561058f57600080fd5b506102dd61059e366004612fd7565b610f79565b3480156105af57600080fd5b5061028c6105be366004612fd7565b61100e565b3480156105cf57600080fd5b5061028c61109a565b3480156105e457600080fd5b506102dd6105f336600461343b565b6110ae565b34801561060457600080fd5b506102dd610613366004613494565b611100565b34801561062457600080fd5b50600c546001600160a01b03165b6040516001600160a01b0390911681526020016102bf565b34801561065657600080fd5b5060646102dd565b34801561066a57600080fd5b506102dd610679366004613548565b61111f565b34801561068a57600080fd5b506102dd611136565b34801561069f57600080fd5b5061028c6106ae3660046135a0565b611160565b3480156106bf57600080fd5b506102dd6106ce366004612fd7565b6111ec565b3480156106df57600080fd5b506102dd611286565b3480156106f457600080fd5b506103786107033660046135bd565b63bc197c8160e01b95945050505050565b34801561072057600080fd5b506102dd61072f366004612fd7565b611291565b61028c610742366004613650565b6112c0565b34801561075357600080fd5b506102dd610762366004613241565b6113d4565b34801561077357600080fd5b50600a546001600160a01b0316610632565b34801561079157600080fd5b506040805180820190915260208082527f737570706f72743d627261766f2671756f72756d3d666f722c6162737461696e90820152610340565b3480156107d757600080fd5b506102dd7f150214d74d59b7d1e90c73fc22ef3d991dd0a76b046543d4d80ab92d2a50328f81565b34801561080b57600080fd5b5061028c61081a366004612fd7565b61140e565b34801561082b57600080fd5b506102dd61083a366004613693565b61149a565b34801561084b57600080fd5b5061028c61085a366004612fd7565b6114bb565b34801561086b57600080fd5b5061037861087a3660046136bf565b63f23a6e6160e01b95945050505050565b34801561089757600080fd5b5061028c6108a63660046135a0565b611547565b3480156108b757600080fd5b506102dd6108c6366004612fd7565b6115bd565b3480156108d757600080fd5b506106327f000000000000000000000000000000000000000000000000000000000000000081565b6000610913600a546001600160a01b031690565b905090565b60006109238261170e565b92915050565b600061091360055490565b6000806109d86109d07fb3b3f3b703cd84ce352197dcff232b1b5d3cfb2025ce47cf04742d0651f1af888c8c8c8c604051610970929190613727565b60405180910390208b805190602001206040516020016109b5959493929190948552602085019390935260ff9190911660408401526060830152608082015260a00190565b60405160208183030381529060405280519060200120611733565b868686611781565b9050610a1e8a828b8b8b8080601f0160208091040260200160405190810160405280939291908181526020018383808284376000920191909152508d925061179f915050565b9a9950505050505050505050565b610a346108ff565b6001600160a01b0316336001600160a01b031614610a6d5760405162461bcd60e51b8152600401610a6490613737565b60405180910390fd5b30610a766108ff565b6001600160a01b031614610ab85760008036604051610a96929190613727565b604051809103902090505b80610aac6002611901565b14610ab657610aa1565b505b610ac181611980565b50565b606060008054610ad39061376e565b80601f0160208091040260200160405190810160405280929190818152602001828054610aff9061376e565b8015610b4c5780601f10610b2157610100808354040283529160200191610b4c565b820191906000526020600020905b815481529060010190602001808311610b2f57829003601f168201915b5050505050905090565b600080610b65868686866113d4565b90506004610b7282610efb565b6007811115610b8357610b8361331e565b14610ba05760405162461bcd60e51b8152600401610a64906137a9565b600a546040805163793d064960e11b815290516000926001600160a01b03169163f27a0c929160048083019260209291908290030181865afa158015610bea573d6000803e3d6000fd5b505050506040513d601f19601f82011682018060405250810190610c0e91906137ea565b600a5460405163b1c5f42760e01b81529192506001600160a01b03169063b1c5f42790610c48908a908a908a906000908b906004016138cc565b602060405180830381865afa158015610c65573d6000803e3d6000fd5b505050506040513d601f19601f82011682018060405250810190610c8991906137ea565b6000838152600b602052604080822092909255600a5491516308f2a0bb60e41b81526001600160a01b0390921691638f2a0bb091610cd4918b918b918b91908b90899060040161391a565b600060405180830381600087803b158015610cee57600080fd5b505af1158015610d02573d6000803e3d6000fd5b505050507f9a2e42fd6722813d69113e7d0079d3d940171428df7373df9c7f7617cfda2892828242610d349190613988565b6040805192835260208301919091520160405180910390a15095945050505050565b600080610d65868686866113d4565b90506000610d7282610efb565b90506004816007811115610d8857610d8861331e565b1480610da557506005816007811115610da357610da361331e565b145b610dc15760405162461bcd60e51b8152600401610a64906137a9565b600082815260016020818152604092839020600201805460ff191690921790915590518381527f712ae1383f79ac853f8d882153778e0260ef8f03b504e2866e0593e04d2b291f910160405180910390a1610e1f8288888888611acc565b610e2c8288888888611b6f565b610e398288888888611b7c565b5095945050505050565b60008181526001602090815260408083208151928301909152546001600160401b0316908190525b6001600160401b031692915050565b600061091360045490565b604080517f150214d74d59b7d1e90c73fc22ef3d991dd0a76b046543d4d80ab92d2a50328f602082015290810186905260ff851660608201526000908190610ed3906109d0906080016109b5565b9050610ef087828860405180602001604052806000815250611bb5565b979650505050505050565b600061092382611bd8565b600080339050610f2784828560405180602001604052806000815250611bb5565b949350505050565b600080339050610ef087828888888080601f0160208091040260200160405190810160405280939291908181526020018383808284376000920191909152508a925061179f915050565b60095460009080610f8e575050600854919050565b60006009610f9d6001846139a0565b81548110610fad57610fad6139b7565b60009182526020918290206040805180820190915291015463ffffffff8116808352600160201b9091046001600160e01b0316928201929092529150841061100357602001516001600160e01b03169392505050565b610f27600985611d22565b6110166108ff565b6001600160a01b0316336001600160a01b0316146110465760405162461bcd60e51b8152600401610a6490613737565b3061104f6108ff565b6001600160a01b031614611091576000803660405161106f929190613727565b604051809103902090505b806110856002611901565b1461108f5761107a565b505b610ac181611dd4565b6110a2611e15565b6110ac6000611e6f565b565b6000803390506110f686828787878080601f016020809104026020016040519081016040528093929190818152602001838380828437600092019190915250611bb592505050565b9695505050505050565b600061110a611e15565b61111685858585611ec1565b95945050505050565b600061112c848484612184565b90505b9392505050565b600954600090156111595761114b600961166b565b6001600160e01b0316905090565b5060085490565b6111686108ff565b6001600160a01b0316336001600160a01b0316146111985760405162461bcd60e51b8152600401610a6490613737565b306111a16108ff565b6001600160a01b0316146111e357600080366040516111c1929190613727565b604051809103902090505b806111d76002611901565b146111e1576111cc565b505b610ac18161221a565b600a546000828152600b602052604080822054905163d45c443560e01b81526004810191909152909182916001600160a01b039091169063d45c443590602401602060405180830381865afa158015611249573d6000803e3d6000fd5b505050506040513d601f19601f8201168201806040525081019061126d91906137ea565b90508060011461127d578061112f565b60009392505050565b600061091360065490565b60008181526001602081815260408084208151928301909152909101546001600160401b031690819052610e6b565b6112c86108ff565b6001600160a01b0316336001600160a01b0316146112f85760405162461bcd60e51b8152600401610a6490613737565b306113016108ff565b6001600160a01b0316146113435760008036604051611321929190613727565b604051809103902090505b806113376002611901565b146113415761132c565b505b600080856001600160a01b0316858585604051611361929190613727565b60006040518083038185875af1925050503d806000811461139e576040519150601f19603f3d011682016040523d82523d6000602084013e6113a3565b606091505b50915091506113cb8282604051806060016040528060288152602001613c6060289139612283565b50505050505050565b6000848484846040516020016113ed94939291906139cd565b60408051601f19818403018152919052805160209091012095945050505050565b6114166108ff565b6001600160a01b0316336001600160a01b0316146114465760405162461bcd60e51b8152600401610a6490613737565b3061144f6108ff565b6001600160a01b031614611491576000803660405161146f929190613727565b604051809103902090505b806114856002611901565b1461148f5761147a565b505b610ac18161229c565b600061112f83836114b660408051602081019091526000815290565b612184565b6114c36108ff565b6001600160a01b0316336001600160a01b0316146114f35760405162461bcd60e51b8152600401610a6490613737565b306114fc6108ff565b6001600160a01b03161461153e576000803660405161151c929190613727565b604051809103902090505b806115326002611901565b1461153c57611527565b505b610ac18161233d565b61154f611e15565b6001600160a01b0381166115b45760405162461bcd60e51b815260206004820152602660248201527f4f776e61626c653a206e6577206f776e657220697320746865207a65726f206160448201526564647265737360d01b6064820152608401610a64565b610ac181611e6f565b60006109238261237e565b60006001600160e01b038211156116315760405162461bcd60e51b815260206004820152602760248201527f53616665436173743a2076616c756520646f65736e27742066697420696e20326044820152663234206269747360c81b6064820152608401610a64565b5090565b60008061165384611645436116a9565b61164e866115c8565b612428565b6001600160e01b0391821693501690505b9250929050565b8054600090801561127d57611693836116856001846139a0565b600091825260209091200190565b54600160201b90046001600160e01b031661112f565b600063ffffffff8211156116315760405162461bcd60e51b815260206004820152602660248201527f53616665436173743a2076616c756520646f65736e27742066697420696e203360448201526532206269747360d01b6064820152608401610a64565b60006001600160e01b03198216636e665ced60e01b14806109235750610923826125d2565b600061092361174061263d565b8360405161190160f01b6020820152602281018390526042810182905260009060620160405160208183030381529060405280519060200120905092915050565b600080600061179287878787612764565b91509150610e3981612828565b60008581526001602081905260408220906117b988610efb565b60078111156117ca576117ca61331e565b146118235760405162461bcd60e51b815260206004820152602360248201527f476f7665726e6f723a20766f7465206e6f742063757272656e746c792061637460448201526269766560e81b6064820152608401610a64565b604080516020810190915281546001600160401b03169081905260009061184c90889086612184565b905061185b8888888488612976565b83516118ad57866001600160a01b03167fb8e138887d0aa13bab447e82de9d5c1777041ecd21ca36ba824ff1e6c07ddda4898884896040516118a09493929190613a18565b60405180910390a2610ef0565b866001600160a01b03167fe2babfbac5889a709b63bb7f598b324e08bc5a4fb9ec647fb3cbc9ec07eb871289888489896040516118ee959493929190613a40565b60405180910390a2979650505050505050565b600061191c8254600f81810b600160801b909204900b131590565b1561193a57604051631ed9509560e11b815260040160405180910390fd5b508054600f0b6000818152600180840160205260408220805492905583546fffffffffffffffffffffffffffffffff191692016001600160801b03169190911790915590565b6064811115611a035760405162461bcd60e51b815260206004820152604360248201527f476f7665726e6f72566f74657351756f72756d4672616374696f6e3a2071756f60448201527f72756d4e756d657261746f72206f7665722071756f72756d44656e6f6d696e616064820152623a37b960e91b608482015260a401610a64565b6000611a0d611136565b90508015801590611a1e5750600954155b15611a8257604080518082019091526000815260099060208101611a41846115c8565b6001600160e01b039081169091528254600181018455600093845260209384902083519490930151909116600160201b0263ffffffff909316929092179101555b611a8d600983611635565b505060408051828152602081018490527f0553476bf02ef2726e8ce5ced78d63e26e602e4a2257b1f559418e24b4633997910160405180910390a15050565b30611ad56108ff565b6001600160a01b031614611b685760005b8451811015611b6657306001600160a01b0316858281518110611b0b57611b0b6139b7565b60200260200101516001600160a01b03161415611b5657611b56838281518110611b3757611b376139b7565b6020026020010151805190602001206002612af590919063ffffffff16565b611b5f81613a86565b9050611ae6565b505b5050505050565b611b688585858585612b31565b30611b856108ff565b6001600160a01b031614611b6857600254600f81810b600160801b909204900b1315611b68576000600255611b68565b600061111685858585611bd360408051602081019091526000815290565b61179f565b600080611be483612ba5565b90506004816007811115611bfa57611bfa61331e565b14611c055792915050565b6000838152600b602052604090205480611c20575092915050565b600a54604051632ab0f52960e01b8152600481018390526001600160a01b0390911690632ab0f52990602401602060405180830381865afa158015611c69573d6000803e3d6000fd5b505050506040513d601f19601f82011682018060405250810190611c8d9190613aa1565b15611c9c575060079392505050565b600a54604051632c258a9f60e11b8152600481018390526001600160a01b039091169063584b153e90602401602060405180830381865afa158015611ce5573d6000803e3d6000fd5b505050506040513d601f19601f82011682018060405250810190611d099190613aa1565b15611d18575060059392505050565b5060029392505050565b6000438210611d735760405162461bcd60e51b815260206004820181905260248201527f436865636b706f696e74733a20626c6f636b206e6f7420796574206d696e65646044820152606401610a64565b6000611d7e836116a9565b84549091506000611d9186848385612cb1565b90508015611dbe57611da8866116856001846139a0565b54600160201b90046001600160e01b0316611dc1565b60005b6001600160e01b03169695505050505050565b60045460408051918252602082018390527fc565b045403dc03c2eea82b81a0465edad9e2e7fc4d97e11421c209da93d7a93910160405180910390a1600455565b600c546001600160a01b031633146110ac5760405162461bcd60e51b815260206004820181905260248201527f4f776e61626c653a2063616c6c6572206973206e6f7420746865206f776e65726044820152606401610a64565b600c80546001600160a01b038381166001600160a01b0319831681179093556040519116919082907f8be0079c531659141344cd1fd0a4f28419497f9722a3daafe3b4186f6b6457e090600090a35050565b6000611ecb611286565b611eda3361083a6001436139a0565b1015611f425760405162461bcd60e51b815260206004820152603160248201527f476f7665726e6f723a2070726f706f73657220766f7465732062656c6f7720706044820152701c9bdc1bdcd85b081d1a1c995cda1bdb19607a1b6064820152608401610a64565b6000611f5786868686805190602001206113d4565b90508451865114611f7a5760405162461bcd60e51b8152600401610a6490613ac3565b8351865114611f9b5760405162461bcd60e51b8152600401610a6490613ac3565b6000865111611fec5760405162461bcd60e51b815260206004820152601860248201527f476f7665726e6f723a20656d7074792070726f706f73616c00000000000000006044820152606401610a64565b600081815260016020908152604091829020825191820190925281546001600160401b0316908190521561206c5760405162461bcd60e51b815260206004820152602160248201527f476f7665726e6f723a2070726f706f73616c20616c72656164792065786973746044820152607360f81b6064820152608401610a64565b600061207e612079610e7a565b612d0f565b61208743612d0f565b6120919190613b04565b905060006120a0612079610929565b6120aa9083613b04565b835467ffffffffffffffff19166001600160401b038416178455905060018301805467ffffffffffffffff19166001600160401b0383161790557f7d84a6263ae0d98d3329bd7b46bb4e8d6f98cd35a7adb45c274c8b7fd5ebd5e084338b8b8d516001600160401b0381111561212257612122612e74565b60405190808252806020026020018201604052801561215557816020015b60608152602001906001900390816121405790505b508c88888e60405161216f99989796959493929190613b2f565b60405180910390a15091979650505050505050565b604051630748d63560e31b81526001600160a01b038481166004830152602482018490526000917f000000000000000000000000000000000000000000000000000000000000000090911690633a46b1a890604401602060405180830381865afa1580156121f6573d6000803e3d6000fd5b505050506040513d601f19601f8201168201806040525081019061112c91906137ea565b600a54604080516001600160a01b03928316815291831660208301527f08f74ea46ef7894f65eabfb5e6e695de773a000b47c529ab559178069b226401910160405180910390a1600a80546001600160a01b0319166001600160a01b0392909216919091179055565b6060831561229257508161112f565b61112f8383612d77565b600081116122fc5760405162461bcd60e51b815260206004820152602760248201527f476f7665726e6f7253657474696e67733a20766f74696e6720706572696f6420604482015266746f6f206c6f7760c81b6064820152608401610a64565b60055460408051918252602082018390527f7e3f7f0708a84de9203036abaa450dccc85ad5ff52f78c170f3edb55cf5e8828910160405180910390a1600555565b60065460408051918252602082018390527fccb45da8d5717e6c4544694297c4ba5cf151d455c9bb0ed4fc7a38411bc05461910160405180910390a1600655565b6000606461238b83610f79565b604051632394e7a360e21b8152600481018590527f00000000000000000000000000000000000000000000000000000000000000006001600160a01b031690638e539e8c90602401602060405180830381865afa1580156123f0573d6000803e3d6000fd5b505050506040513d601f19601f8201168201806040525081019061241491906137ea565b61241e9190613c1e565b6109239190613c3d565b825460009081908015612575576000612446876116856001856139a0565b60408051808201909152905463ffffffff808216808452600160201b9092046001600160e01b0316602084015291925090871610156124c75760405162461bcd60e51b815260206004820152601760248201527f436865636b706f696e743a20696e76616c6964206b65790000000000000000006044820152606401610a64565b8563ffffffff16816000015163ffffffff16141561251657846124ef886116856001866139a0565b80546001600160e01b0392909216600160201b0263ffffffff909216919091179055612565565b6040805180820190915263ffffffff80881682526001600160e01b0380881660208085019182528b54600181018d5560008d81529190912094519151909216600160201b029216919091179101555b6020015192508391506125ca9050565b50506040805180820190915263ffffffff80851682526001600160e01b0380851660208085019182528854600181018a5560008a815291822095519251909316600160201b0291909316179201919091559050815b935093915050565b60006001600160e01b0319821663bf26d89760e01b148061260357506001600160e01b031982166379dd796f60e01b145b8061261e57506001600160e01b03198216630271189760e51b145b8061092357506301ffc9a760e01b6001600160e01b0319831614610923565b6000306001600160a01b037f00000000000000000000000000000000000000000000000000000000000000001614801561269657507f000000000000000000000000000000000000000000000000000000000000000046145b156126c057507f000000000000000000000000000000000000000000000000000000000000000090565b50604080517f00000000000000000000000000000000000000000000000000000000000000006020808301919091527f0000000000000000000000000000000000000000000000000000000000000000828401527f000000000000000000000000000000000000000000000000000000000000000060608301524660808301523060a0808401919091528351808403909101815260c0909201909252805191012090565b6000807f7fffffffffffffffffffffffffffffff5d576e7357a4501ddfe92f46681b20a083111561279b575060009050600361281f565b6040805160008082526020820180845289905260ff881692820192909252606081018690526080810185905260019060a0016020604051602081039080840390855afa1580156127ef573d6000803e3d6000fd5b5050604051601f1901519150506001600160a01b0381166128185760006001925092505061281f565b9150600090505b94509492505050565b600081600481111561283c5761283c61331e565b14156128455750565b60018160048111156128595761285961331e565b14156128a75760405162461bcd60e51b815260206004820152601860248201527f45434453413a20696e76616c6964207369676e617475726500000000000000006044820152606401610a64565b60028160048111156128bb576128bb61331e565b14156129095760405162461bcd60e51b815260206004820152601f60248201527f45434453413a20696e76616c6964207369676e6174757265206c656e677468006044820152606401610a64565b600381600481111561291d5761291d61331e565b1415610ac15760405162461bcd60e51b815260206004820152602260248201527f45434453413a20696e76616c6964207369676e6174757265202773272076616c604482015261756560f01b6064820152608401610a64565b60008581526007602090815260408083206001600160a01b0388168452600381019092529091205460ff16156129fe5760405162461bcd60e51b815260206004820152602760248201527f476f7665726e6f72566f74696e6753696d706c653a20766f746520616c726561604482015266191e4818d85cdd60ca1b6064820152608401610a64565b6001600160a01b03851660009081526003820160205260408120805460ff1916600117905560ff168460ff161415612a4f5782816000016000828254612a449190613988565b90915550611b669050565b60ff841660011415612a6f5782816001016000828254612a449190613988565b60ff841660021415612a8f5782816002016000828254612a449190613988565b60405162461bcd60e51b815260206004820152603560248201527f476f7665726e6f72566f74696e6753696d706c653a20696e76616c69642076616044820152746c756520666f7220656e756d20566f74655479706560581b6064820152608401610a64565b8154600160801b90819004600f0b6000818152600180860160205260409091209390935583546001600160801b03908116939091011602179055565b600a5460405163e38335e560e01b81526001600160a01b039091169063e38335e5903490612b6c9088908890889060009089906004016138cc565b6000604051808303818588803b158015612b8557600080fd5b505af1158015612b99573d6000803e3d6000fd5b50505050505050505050565b6000818152600160205260408120600281015460ff1615612bc95750600792915050565b6002810154610100900460ff1615612be45750600292915050565b6000612bef84610e43565b905080612c3e5760405162461bcd60e51b815260206004820152601d60248201527f476f7665726e6f723a20756e6b6e6f776e2070726f706f73616c2069640000006044820152606401610a64565b438110612c4f575060009392505050565b6000612c5a85611291565b9050438110612c6e57506001949350505050565b612c7785612da1565b8015612c96575060008581526007602052604090208054600190910154115b15612ca657506004949350505050565b506003949350505050565b60005b81831015612d07576000612cc88484612dd8565b60008781526020902090915063ffffffff86169082015463ffffffff161115612cf357809250612d01565b612cfe816001613988565b93505b50612cb4565b509392505050565b60006001600160401b038211156116315760405162461bcd60e51b815260206004820152602660248201527f53616665436173743a2076616c756520646f65736e27742066697420696e203660448201526534206269747360d01b6064820152608401610a64565b815115612d875781518083602001fd5b8060405162461bcd60e51b8152600401610a64919061303d565b600081815260076020526040812060028101546001820154612dc39190613988565b612dcf6108c685610e43565b11159392505050565b6000612de76002848418613c3d565b61112f90848416613988565b600060208284031215612e0557600080fd5b81356001600160e01b03198116811461112f57600080fd5b803560ff81168114612e2e57600080fd5b919050565b60008083601f840112612e4557600080fd5b5081356001600160401b03811115612e5c57600080fd5b60208301915083602082850101111561166457600080fd5b634e487b7160e01b600052604160045260246000fd5b604051601f8201601f191681016001600160401b0381118282101715612eb257612eb2612e74565b604052919050565b60006001600160401b03831115612ed357612ed3612e74565b612ee6601f8401601f1916602001612e8a565b9050828152838383011115612efa57600080fd5b828260208301376000602084830101529392505050565b600082601f830112612f2257600080fd5b61112f83833560208501612eba565b60008060008060008060008060e0898b031215612f4d57600080fd5b88359750612f5d60208a01612e1d565b965060408901356001600160401b0380821115612f7957600080fd5b612f858c838d01612e33565b909850965060608b0135915080821115612f9e57600080fd5b50612fab8b828c01612f11565b945050612fba60808a01612e1d565b925060a0890135915060c089013590509295985092959890939650565b600060208284031215612fe957600080fd5b5035919050565b6000815180845260005b8181101561301657602081850181015186830182015201612ffa565b81811115613028576000602083870101525b50601f01601f19169290920160200192915050565b60208152600061112f6020830184612ff0565b6001600160a01b0381168114610ac157600080fd5b6000806000806080858703121561307b57600080fd5b843561308681613050565b9350602085013561309681613050565b92506040850135915060608501356001600160401b038111156130b857600080fd5b6130c487828801612f11565b91505092959194509250565b60006001600160401b038211156130e9576130e9612e74565b5060051b60200190565b600082601f83011261310457600080fd5b81356020613119613114836130d0565b612e8a565b82815260059290921b8401810191818101908684111561313857600080fd5b8286015b8481101561315c57803561314f81613050565b835291830191830161313c565b509695505050505050565b600082601f83011261317857600080fd5b81356020613188613114836130d0565b82815260059290921b840181019181810190868411156131a757600080fd5b8286015b8481101561315c57803583529183019183016131ab565b600082601f8301126131d357600080fd5b813560206131e3613114836130d0565b82815260059290921b8401810191818101908684111561320257600080fd5b8286015b8481101561315c5780356001600160401b038111156132255760008081fd5b6132338986838b0101612f11565b845250918301918301613206565b6000806000806080858703121561325757600080fd5b84356001600160401b038082111561326e57600080fd5b61327a888389016130f3565b9550602087013591508082111561329057600080fd5b61329c88838901613167565b945060408701359150808211156132b257600080fd5b506132bf878288016131c2565b949793965093946060013593505050565b600080600080600060a086880312156132e857600080fd5b853594506132f860208701612e1d565b935061330660408701612e1d565b94979396509394606081013594506080013592915050565b634e487b7160e01b600052602160045260246000fd5b602081016008831061335657634e487b7160e01b600052602160045260246000fd5b91905290565b6000806040838503121561336f57600080fd5b82359150602083013561338181613050565b809150509250929050565b6000806040838503121561339f57600080fd5b823591506133af60208401612e1d565b90509250929050565b6000806000806000608086880312156133d057600080fd5b853594506133e060208701612e1d565b935060408601356001600160401b03808211156133fc57600080fd5b61340889838a01612e33565b9095509350606088013591508082111561342157600080fd5b5061342e88828901612f11565b9150509295509295909350565b6000806000806060858703121561345157600080fd5b8435935061346160208601612e1d565b925060408501356001600160401b0381111561347c57600080fd5b61348887828801612e33565b95989497509550505050565b600080600080608085870312156134aa57600080fd5b84356001600160401b03808211156134c157600080fd5b6134cd888389016130f3565b955060208701359150808211156134e357600080fd5b6134ef88838901613167565b9450604087013591508082111561350557600080fd5b613511888389016131c2565b9350606087013591508082111561352757600080fd5b508501601f8101871361353957600080fd5b6130c487823560208401612eba565b60008060006060848603121561355d57600080fd5b833561356881613050565b92506020840135915060408401356001600160401b0381111561358a57600080fd5b61359686828701612f11565b9150509250925092565b6000602082840312156135b257600080fd5b813561112f81613050565b600080600080600060a086880312156135d557600080fd5b85356135e081613050565b945060208601356135f081613050565b935060408601356001600160401b038082111561360c57600080fd5b61361889838a01613167565b9450606088013591508082111561362e57600080fd5b61363a89838a01613167565b9350608088013591508082111561342157600080fd5b6000806000806060858703121561366657600080fd5b843561367181613050565b93506020850135925060408501356001600160401b0381111561347c57600080fd5b600080604083850312156136a657600080fd5b82356136b181613050565b946020939093013593505050565b600080600080600060a086880312156136d757600080fd5b85356136e281613050565b945060208601356136f281613050565b9350604086013592506060860135915060808601356001600160401b0381111561371b57600080fd5b61342e88828901612f11565b8183823760009101908152919050565b60208082526018908201527f476f7665726e6f723a206f6e6c79476f7665726e616e63650000000000000000604082015260600190565b600181811c9082168061378257607f821691505b602082108114156137a357634e487b7160e01b600052602260045260246000fd5b50919050565b60208082526021908201527f476f7665726e6f723a2070726f706f73616c206e6f74207375636365737366756040820152601b60fa1b606082015260800190565b6000602082840312156137fc57600080fd5b5051919050565b600081518084526020808501945080840160005b8381101561383c5781516001600160a01b031687529582019590820190600101613817565b509495945050505050565b600081518084526020808501945080840160005b8381101561383c5781518752958201959082019060010161385b565b600081518084526020808501808196508360051b8101915082860160005b858110156138bf5782840389526138ad848351612ff0565b98850198935090840190600101613895565b5091979650505050505050565b60a0815260006138df60a0830188613803565b82810360208401526138f18188613847565b905082810360408401526139058187613877565b60608401959095525050608001529392505050565b60c08152600061392d60c0830189613803565b828103602084015261393f8189613847565b905082810360408401526139538188613877565b60608401969096525050608081019290925260a0909101529392505050565b634e487b7160e01b600052601160045260246000fd5b6000821982111561399b5761399b613972565b500190565b6000828210156139b2576139b2613972565b500390565b634e487b7160e01b600052603260045260246000fd5b6080815260006139e06080830187613803565b82810360208401526139f28187613847565b90508281036040840152613a068186613877565b91505082606083015295945050505050565b84815260ff841660208201528260408201526080606082015260006110f66080830184612ff0565b85815260ff8516602082015283604082015260a060608201526000613a6860a0830185612ff0565b8281036080840152613a7a8185612ff0565b98975050505050505050565b6000600019821415613a9a57613a9a613972565b5060010190565b600060208284031215613ab357600080fd5b8151801515811461112f57600080fd5b60208082526021908201527f476f7665726e6f723a20696e76616c69642070726f706f73616c206c656e67746040820152600d60fb1b606082015260800190565b60006001600160401b03808316818516808303821115613b2657613b26613972565b01949350505050565b60006101208b8352602060018060a01b038c1681850152816040850152613b588285018c613803565b91508382036060850152613b6c828b613847565b915083820360808501528189518084528284019150828160051b850101838c0160005b83811015613bbd57601f19878403018552613bab838351612ff0565b94860194925090850190600101613b8f565b505086810360a0880152613bd1818c613877565b945050505050613bec60c08401876001600160401b03169052565b6001600160401b03851660e0840152828103610100840152613c0e8185612ff0565b9c9b505050505050505050505050565b6000816000190483118215151615613c3857613c38613972565b500290565b600082613c5a57634e487b7160e01b600052601260045260246000fd5b50049056fe476f7665726e6f723a2072656c617920726576657274656420776974686f7574206d657373616765a2646970667358221220a676a6f9d35e710b49e30f84ad80aa452e63125f5fd024f8634a90b50c533e4464736f6c634300080b0033",
  "linkReferences": {},
  "deployedLinkReferences": {}
}