{
  "_format": "hh-sol-artifact-1",
  "contractName": "Talaxeum",
  "sourceName": "contracts/ERC20/Talaxeum.sol",
  "abi": [
    {
      "inputs": [],
      "stateMutability": "nonpayable",
      "type": "constructor"
    },
    {
      "anonymous": false,
      "inputs": [
        {
          "indexed": true,
          "internalType": "address",
          "name": "owner",
          "type": "address"
        },
        {
          "indexed": true,
          "internalType": "address",
          "name": "spender",
          "type": "address"
        },
        {
          "indexed": false,
          "internalType": "uint256",
          "name": "value",
          "type": "uint256"
        }
      ],
      "name": "Approval",
      "type": "event"
    },
    {
      "anonymous": false,
      "inputs": [
        {
          "indexed": true,
          "internalType": "address",
          "name": "advisor",
          "type": "address"
        }
      ],
      "name": "ChangeAdvisorAddress",
      "type": "event"
    },
    {
      "anonymous": false,
      "inputs": [
        {
          "indexed": true,
          "internalType": "address",
          "name": "platform",
          "type": "address"
        }
      ],
      "name": "ChangePlatformAddress",
      "type": "event"
    },
    {
      "anonymous": false,
      "inputs": [
        {
          "indexed": false,
          "internalType": "uint256",
          "name": "tax",
          "type": "uint256"
        }
      ],
      "name": "ChangeTaxPercentage",
      "type": "event"
    },
    {
      "anonymous": false,
      "inputs": [
        {
          "indexed": true,
          "internalType": "address",
          "name": "delegator",
          "type": "address"
        },
        {
          "indexed": true,
          "internalType": "address",
          "name": "fromDelegate",
          "type": "address"
        },
        {
          "indexed": true,
          "internalType": "address",
          "name": "toDelegate",
          "type": "address"
        }
      ],
      "name": "DelegateChanged",
      "type": "event"
    },
    {
      "anonymous": false,
      "inputs": [
        {
          "indexed": true,
          "internalType": "address",
          "name": "delegate",
          "type": "address"
        },
        {
          "indexed": false,
          "internalType": "uint256",
          "name": "previousBalance",
          "type": "uint256"
        },
        {
          "indexed": false,
          "internalType": "uint256",
          "name": "newBalance",
          "type": "uint256"
        }
      ],
      "name": "DelegateVotesChanged",
      "type": "event"
    },
    {
      "anonymous": false,
      "inputs": [
        {
          "indexed": true,
          "internalType": "address",
          "name": "previousOwner",
          "type": "address"
        },
        {
          "indexed": true,
          "internalType": "address",
          "name": "newOwner",
          "type": "address"
        }
      ],
      "name": "OwnershipTransferred",
      "type": "event"
    },
    {
      "anonymous": false,
      "inputs": [
        {
          "indexed": true,
          "internalType": "address",
          "name": "from",
          "type": "address"
        },
        {
          "indexed": true,
          "internalType": "address",
          "name": "to",
          "type": "address"
        },
        {
          "indexed": false,
          "internalType": "uint256",
          "name": "value",
          "type": "uint256"
        }
      ],
      "name": "Transfer",
      "type": "event"
    },
    {
      "stateMutability": "payable",
      "type": "fallback"
    },
    {
      "inputs": [],
      "name": "DOMAIN_SEPARATOR",
      "outputs": [
        {
          "internalType": "bytes32",
          "name": "",
          "type": "bytes32"
        }
      ],
      "stateMutability": "view",
      "type": "function"
    },
    {
      "inputs": [],
      "name": "advisor",
      "outputs": [
        {
          "internalType": "address",
          "name": "",
          "type": "address"
        }
      ],
      "stateMutability": "view",
      "type": "function"
    },
    {
      "inputs": [
        {
          "internalType": "address",
          "name": "owner",
          "type": "address"
        },
        {
          "internalType": "address",
          "name": "spender",
          "type": "address"
        }
      ],
      "name": "allowance",
      "outputs": [
        {
          "internalType": "uint256",
          "name": "",
          "type": "uint256"
        }
      ],
      "stateMutability": "view",
      "type": "function"
    },
    {
      "inputs": [
        {
          "internalType": "address",
          "name": "spender",
          "type": "address"
        },
        {
          "internalType": "uint256",
          "name": "amount",
          "type": "uint256"
        }
      ],
      "name": "approve",
      "outputs": [
        {
          "internalType": "bool",
          "name": "",
          "type": "bool"
        }
      ],
      "stateMutability": "nonpayable",
      "type": "function"
    },
    {
      "inputs": [
        {
          "internalType": "address",
          "name": "account",
          "type": "address"
        }
      ],
      "name": "balanceOf",
      "outputs": [
        {
          "internalType": "uint256",
          "name": "",
          "type": "uint256"
        }
      ],
      "stateMutability": "view",
      "type": "function"
    },
    {
      "inputs": [
        {
          "internalType": "uint256",
          "name": "amount",
          "type": "uint256"
        }
      ],
      "name": "burn",
      "outputs": [],
      "stateMutability": "nonpayable",
      "type": "function"
    },
    {
      "inputs": [
        {
          "internalType": "address",
          "name": "account",
          "type": "address"
        },
        {
          "internalType": "uint256",
          "name": "amount",
          "type": "uint256"
        }
      ],
      "name": "burnFrom",
      "outputs": [],
      "stateMutability": "nonpayable",
      "type": "function"
    },
    {
      "inputs": [
        {
          "internalType": "address",
          "name": "newAddress",
          "type": "address"
        }
      ],
      "name": "changeAdvisor",
      "outputs": [],
      "stateMutability": "nonpayable",
      "type": "function"
    },
    {
      "inputs": [
        {
          "internalType": "address",
          "name": "newAddress",
          "type": "address"
        }
      ],
      "name": "changePlatform",
      "outputs": [],
      "stateMutability": "nonpayable",
      "type": "function"
    },
    {
      "inputs": [
        {
          "internalType": "uint256",
          "name": "tax",
          "type": "uint256"
        }
      ],
      "name": "changeTax",
      "outputs": [],
      "stateMutability": "nonpayable",
      "type": "function"
    },
    {
      "inputs": [
        {
          "internalType": "address",
          "name": "account",
          "type": "address"
        },
        {
          "internalType": "uint32",
          "name": "pos",
          "type": "uint32"
        }
      ],
      "name": "checkpoints",
      "outputs": [
        {
          "components": [
            {
              "internalType": "uint32",
              "name": "fromBlock",
              "type": "uint32"
            },
            {
              "internalType": "uint224",
              "name": "votes",
              "type": "uint224"
            }
          ],
          "internalType": "struct ERC20Votes.Checkpoint",
          "name": "",
          "type": "tuple"
        }
      ],
      "stateMutability": "view",
      "type": "function"
    },
    {
      "inputs": [],
      "name": "daoPool",
      "outputs": [
        {
          "internalType": "address",
          "name": "",
          "type": "address"
        }
      ],
      "stateMutability": "pure",
      "type": "function"
    },
    {
      "inputs": [],
      "name": "decimals",
      "outputs": [
        {
          "internalType": "uint8",
          "name": "",
          "type": "uint8"
        }
      ],
      "stateMutability": "view",
      "type": "function"
    },
    {
      "inputs": [
        {
          "internalType": "address",
          "name": "spender",
          "type": "address"
        },
        {
          "internalType": "uint256",
          "name": "subtractedValue",
          "type": "uint256"
        }
      ],
      "name": "decreaseAllowance",
      "outputs": [
        {
          "internalType": "bool",
          "name": "",
          "type": "bool"
        }
      ],
      "stateMutability": "nonpayable",
      "type": "function"
    },
    {
      "inputs": [
        {
          "internalType": "address",
          "name": "delegatee",
          "type": "address"
        }
      ],
      "name": "delegate",
      "outputs": [],
      "stateMutability": "nonpayable",
      "type": "function"
    },
    {
      "inputs": [
        {
          "internalType": "address",
          "name": "delegatee",
          "type": "address"
        },
        {
          "internalType": "uint256",
          "name": "nonce",
          "type": "uint256"
        },
        {
          "internalType": "uint256",
          "name": "expiry",
          "type": "uint256"
        },
        {
          "internalType": "uint8",
          "name": "v",
          "type": "uint8"
        },
        {
          "internalType": "bytes32",
          "name": "r",
          "type": "bytes32"
        },
        {
          "internalType": "bytes32",
          "name": "s",
          "type": "bytes32"
        }
      ],
      "name": "delegateBySig",
      "outputs": [],
      "stateMutability": "nonpayable",
      "type": "function"
    },
    {
      "inputs": [
        {
          "internalType": "address",
          "name": "account",
          "type": "address"
        }
      ],
      "name": "delegates",
      "outputs": [
        {
          "internalType": "address",
          "name": "",
          "type": "address"
        }
      ],
      "stateMutability": "view",
      "type": "function"
    },
    {
      "inputs": [],
      "name": "getBalance",
      "outputs": [
        {
          "internalType": "uint256",
          "name": "",
          "type": "uint256"
        }
      ],
      "stateMutability": "view",
      "type": "function"
    },
    {
      "inputs": [
        {
          "internalType": "uint256",
          "name": "blockNumber",
          "type": "uint256"
        }
      ],
      "name": "getPastTotalSupply",
      "outputs": [
        {
          "internalType": "uint256",
          "name": "",
          "type": "uint256"
        }
      ],
      "stateMutability": "view",
      "type": "function"
    },
    {
      "inputs": [
        {
          "internalType": "address",
          "name": "account",
          "type": "address"
        },
        {
          "internalType": "uint256",
          "name": "blockNumber",
          "type": "uint256"
        }
      ],
      "name": "getPastVotes",
      "outputs": [
        {
          "internalType": "uint256",
          "name": "",
          "type": "uint256"
        }
      ],
      "stateMutability": "view",
      "type": "function"
    },
    {
      "inputs": [
        {
          "internalType": "address",
          "name": "account",
          "type": "address"
        }
      ],
      "name": "getVotes",
      "outputs": [
        {
          "internalType": "uint256",
          "name": "",
          "type": "uint256"
        }
      ],
      "stateMutability": "view",
      "type": "function"
    },
    {
      "inputs": [
        {
          "internalType": "address",
          "name": "spender",
          "type": "address"
        },
        {
          "internalType": "uint256",
          "name": "addedValue",
          "type": "uint256"
        }
      ],
      "name": "increaseAllowance",
      "outputs": [
        {
          "internalType": "bool",
          "name": "",
          "type": "bool"
        }
      ],
      "stateMutability": "nonpayable",
      "type": "function"
    },
    {
      "inputs": [],
      "name": "marketing",
      "outputs": [
        {
          "internalType": "address",
          "name": "",
          "type": "address"
        }
      ],
      "stateMutability": "pure",
      "type": "function"
    },
    {
      "inputs": [
        {
          "internalType": "address",
          "name": "to",
          "type": "address"
        },
        {
          "internalType": "uint256",
          "name": "amount",
          "type": "uint256"
        }
      ],
      "name": "mint",
      "outputs": [],
      "stateMutability": "nonpayable",
      "type": "function"
    },
    {
      "inputs": [],
      "name": "name",
      "outputs": [
        {
          "internalType": "string",
          "name": "",
          "type": "string"
        }
      ],
      "stateMutability": "view",
      "type": "function"
    },
    {
      "inputs": [
        {
          "internalType": "address",
          "name": "owner",
          "type": "address"
        }
      ],
      "name": "nonces",
      "outputs": [
        {
          "internalType": "uint256",
          "name": "",
          "type": "uint256"
        }
      ],
      "stateMutability": "view",
      "type": "function"
    },
    {
      "inputs": [
        {
          "internalType": "address",
          "name": "account",
          "type": "address"
        }
      ],
      "name": "numCheckpoints",
      "outputs": [
        {
          "internalType": "uint32",
          "name": "",
          "type": "uint32"
        }
      ],
      "stateMutability": "view",
      "type": "function"
    },
    {
      "inputs": [],
      "name": "owner",
      "outputs": [
        {
          "internalType": "address",
          "name": "",
          "type": "address"
        }
      ],
      "stateMutability": "view",
      "type": "function"
    },
    {
      "inputs": [
        {
          "internalType": "address",
          "name": "owner",
          "type": "address"
        },
        {
          "internalType": "address",
          "name": "spender",
          "type": "address"
        },
        {
          "internalType": "uint256",
          "name": "value",
          "type": "uint256"
        },
        {
          "internalType": "uint256",
          "name": "deadline",
          "type": "uint256"
        },
        {
          "internalType": "uint8",
          "name": "v",
          "type": "uint8"
        },
        {
          "internalType": "bytes32",
          "name": "r",
          "type": "bytes32"
        },
        {
          "internalType": "bytes32",
          "name": "s",
          "type": "bytes32"
        }
      ],
      "name": "permit",
      "outputs": [],
      "stateMutability": "nonpayable",
      "type": "function"
    },
    {
      "inputs": [],
      "name": "platform",
      "outputs": [
        {
          "internalType": "address",
          "name": "",
          "type": "address"
        }
      ],
      "stateMutability": "view",
      "type": "function"
    },
    {
      "inputs": [],
      "name": "publicSale",
      "outputs": [
        {
          "internalType": "address",
          "name": "",
          "type": "address"
        }
      ],
      "stateMutability": "pure",
      "type": "function"
    },
    {
      "inputs": [],
      "name": "stakingReward",
      "outputs": [
        {
          "internalType": "address",
          "name": "",
          "type": "address"
        }
      ],
      "stateMutability": "pure",
      "type": "function"
    },
    {
      "inputs": [],
      "name": "symbol",
      "outputs": [
        {
          "internalType": "string",
          "name": "",
          "type": "string"
        }
      ],
      "stateMutability": "view",
      "type": "function"
    },
    {
      "inputs": [],
      "name": "taxRate",
      "outputs": [
        {
          "internalType": "uint256",
          "name": "",
          "type": "uint256"
        }
      ],
      "stateMutability": "view",
      "type": "function"
    },
    {
      "inputs": [],
      "name": "teamAndProjectCoordinator",
      "outputs": [
        {
          "internalType": "address",
          "name": "",
          "type": "address"
        }
      ],
      "stateMutability": "pure",
      "type": "function"
    },
    {
      "inputs": [],
      "name": "totalSupply",
      "outputs": [
        {
          "internalType": "uint256",
          "name": "",
          "type": "uint256"
        }
      ],
      "stateMutability": "view",
      "type": "function"
    },
    {
      "inputs": [
        {
          "internalType": "address",
          "name": "to",
          "type": "address"
        },
        {
          "internalType": "uint256",
          "name": "amount",
          "type": "uint256"
        }
      ],
      "name": "transfer",
      "outputs": [
        {
          "internalType": "bool",
          "name": "",
          "type": "bool"
        }
      ],
      "stateMutability": "nonpayable",
      "type": "function"
    },
    {
      "inputs": [
        {
          "internalType": "address",
          "name": "from",
          "type": "address"
        },
        {
          "internalType": "address",
          "name": "to",
          "type": "address"
        },
        {
          "internalType": "uint256",
          "name": "amount",
          "type": "uint256"
        }
      ],
      "name": "transferFrom",
      "outputs": [
        {
          "internalType": "bool",
          "name": "",
          "type": "bool"
        }
      ],
      "stateMutability": "nonpayable",
      "type": "function"
    },
    {
      "inputs": [
        {
          "internalType": "address",
          "name": "newOwner",
          "type": "address"
        }
      ],
      "name": "transferOwnership",
      "outputs": [],
      "stateMutability": "nonpayable",
      "type": "function"
    },
    {
      "inputs": [],
      "name": "withdrawFunds",
      "outputs": [],
      "stateMutability": "nonpayable",
      "type": "function"
    },
    {
      "inputs": [
        {
          "internalType": "address",
          "name": "token",
          "type": "address"
        }
      ],
      "name": "withdrawFunds",
      "outputs": [],
      "stateMutability": "nonpayable",
      "type": "function"
    },
    {
      "stateMutability": "payable",
      "type": "receive"
    }
  ],
  "bytecode": "0x6101406040526064600b55600c80546001600160a01b0319908116909155600d805490911690553480156200003357600080fd5b506040518060400160405280600881526020016754616c617865756d60c01b81525080604051806040016040528060018152602001603160f81b8152506040518060400160405280600881526020016754616c617865756d60c01b815250604051806040016040528060058152602001640a8829882b60db1b8152508160039080519060200190620000c7929190620007ee565b508051620000dd906004906020840190620007ee565b505050620000fa620000f4620001ba60201b60201c565b620001be565b815160209283012081519183019190912060e08290526101008190524660a0818152604080517f8b73c3c69bb8fe3d512ecc4cf759cc79239f7b179b0ffacaa9a75d522b39400f818801819052818301969096526060810194909452608080850193909352308483018190528151808603909301835260c0948501909152815191909501209052919091526101205250620001b4336200019d6012600a6200099d565b620001ae906404e3b29200620009ae565b62000210565b62000a58565b3390565b600580546001600160a01b038381166001600160a01b0319831681179093556040519116919082907f8be0079c531659141344cd1fd0a4f28419497f9722a3daafe3b4186f6b6457e090600090a35050565b6200022782826200022b60201b620012141760201c565b5050565b620002428282620002e260201b620012a41760201c565b6001600160e01b0362000256620003af8216565b1115620002c35760405162461bcd60e51b815260206004820152603060248201527f4552433230566f7465733a20746f74616c20737570706c79207269736b73206f60448201526f766572666c6f77696e6720766f74657360801b60648201526084015b60405180910390fd5b620002dc600a6200136b620003b560201b1783620003cc565b50505050565b6001600160a01b0382166200033a5760405162461bcd60e51b815260206004820152601f60248201527f45524332303a206d696e7420746f20746865207a65726f2061646472657373006044820152606401620002ba565b80600260008282546200034e9190620009d0565b90915550506001600160a01b038216600081815260208181526040808320805486019055518481527fddf252ad1be2c89b69c2b068fc378daa952ba7f163c4a11628f55a4df523b3ef910160405180910390a3620002276000838362000583565b60025490565b6000620003c38284620009d0565b90505b92915050565b8254600090819080156200041e5785620003e8600183620009eb565b81548110620003fb57620003fb62000a05565b60009182526020909120015464010000000090046001600160e01b031662000421565b60005b6001600160e01b031692506200043883858760201c565b91506000811180156200047c5750438662000455600184620009eb565b8154811062000468576200046862000a05565b60009182526020909120015463ffffffff16145b15620004f05762000498826200059b60201b620013771760201c565b86620004a6600184620009eb565b81548110620004b957620004b962000a05565b9060005260206000200160000160046101000a8154816001600160e01b0302191690836001600160e01b0316021790555062000575565b85604051806040016040528062000512436200060a60201b620013e41760201c565b63ffffffff16815260200162000533856200059b60201b620013771760201c565b6001600160e01b0390811690915282546001810184556000938452602093849020835194909301519091166401000000000263ffffffff909316929092179101555b50935093915050565b505050565b6200057e8383836200067160201b620014491760201c565b60006001600160e01b03821115620006065760405162461bcd60e51b815260206004820152602760248201527f53616665436173743a2076616c756520646f65736e27742066697420696e20326044820152663234206269747360c81b6064820152608401620002ba565b5090565b600063ffffffff821115620006065760405162461bcd60e51b815260206004820152602660248201527f53616665436173743a2076616c756520646f65736e27742066697420696e203360448201526532206269747360d01b6064820152608401620002ba565b620006898383836200057e60201b6200147b1760201c565b6001600160a01b038381166000908152600860205260408082205485841683529120546200057e92918216911683818314801590620006c85750600081115b156200057e576001600160a01b0383161562000755576001600160a01b038316600090815260096020908152604082208291620007129190620007e0901b620014801785620003cc565b91509150846001600160a01b0316600080516020620032d283398151915283836040516200074a929190918252602082015260400190565b60405180910390a250505b6001600160a01b038216156200057e576001600160a01b038216600090815260096020908152604082208291620007999190620003b5901b6200136b1785620003cc565b91509150836001600160a01b0316600080516020620032d28339815191528383604051620007d1929190918252602082015260400190565b60405180910390a25050505050565b6000620003c38284620009eb565b828054620007fc9062000a1b565b90600052602060002090601f0160209004810192826200082057600085556200086b565b82601f106200083b57805160ff19168380011785556200086b565b828001600101855582156200086b579182015b828111156200086b5782518255916020019190600101906200084e565b50620006069291505b8082111562000606576000815560010162000874565b634e487b7160e01b600052601160045260246000fd5b600181815b80851115620008e1578160001904821115620008c557620008c56200088a565b80851615620008d357918102915b93841c9390800290620008a5565b509250929050565b600082620008fa57506001620003c6565b816200090957506000620003c6565b81600181146200092257600281146200092d576200094d565b6001915050620003c6565b60ff8411156200094157620009416200088a565b50506001821b620003c6565b5060208310610133831016604e8410600b841016171562000972575081810a620003c6565b6200097e8383620008a0565b80600019048211156200099557620009956200088a565b029392505050565b6000620003c360ff841683620008e9565b6000816000190483118215151615620009cb57620009cb6200088a565b500290565b60008219821115620009e657620009e66200088a565b500190565b60008282101562000a005762000a006200088a565b500390565b634e487b7160e01b600052603260045260246000fd5b600181811c9082168062000a3057607f821691505b6020821081141562000a5257634e487b7160e01b600052602260045260246000fd5b50919050565b60805160a05160c05160e051610100516101205161282a62000aa86000396000611715015260006117640152600061173f01526000611698015260006116c2015260006116ec015261282a6000f3fe6080604052600436106102325760003560e01c8063587cde1e1161012d5780638e539e8c116100b0578063a9059cbb11610077578063a9059cbb146106ee578063c3cda5201461070e578063d505accf1461072e578063dd62ed3e1461074e578063f1127ed81461076e578063f2fde38b146107b857005b80638e539e8c1461065257806395d89b41146106725780639ab24eb014610687578063a457c2d7146106a7578063a542cd84146106c757005b8063753d93e4116100f4578063753d93e4146105be578063771a3a1d146105de57806379cc6790146105f45780637ecebe00146106145780638da5cb5b1461063457005b8063587cde1e146104da5780635c19a95c1461051357806368742da6146105335780636fcfff451461055357806370a082311461058857005b806333bc1c5c116101b55780633b1663be1161017c5780633b1663be1461043a5780633e45c8af1461045a57806340c10f191461047a57806342966c681461049a5780634bde38c8146104ba57005b806333bc1c5c1461039757806333e0ff5d146103be5780633644e515146103e557806339509351146103fa5780633a46b1a81461041a57005b80631936e4be116101f95780631936e4be146102ff57806323b872dd1461031f57806324600fc31461033f5780632d3e474a14610354578063313ce5671461037b57005b8063042249bb1461023b57806306fdde031461027b578063095ea7b31461029d57806312065fe0146102cd57806318160ddd146102ea57005b3661023957005b005b34801561024757600080fd5b50732f838cf0df38b2e91e747a01ddae5ebad5558b7a5b6040516001600160a01b0390911681526020015b60405180910390f35b34801561028757600080fd5b506102906107d8565b6040516102729190612487565b3480156102a957600080fd5b506102bd6102b83660046124d6565b61086a565b6040519015158152602001610272565b3480156102d957600080fd5b50475b604051908152602001610272565b3480156102f657600080fd5b506002546102dc565b34801561030b57600080fd5b50600c5461025e906001600160a01b031681565b34801561032b57600080fd5b506102bd61033a366004612500565b610882565b34801561034b57600080fd5b506102396108a6565b34801561036057600080fd5b5073f09f65dd4d229e991901669ad7c7549f060e30b961025e565b34801561038757600080fd5b5060405160128152602001610272565b3480156103a357600080fd5b50735470c8ff25ec05980fc7c2967d076b8012298fe761025e565b3480156103ca57600080fd5b507375837e79215250c45331b92c35b7be506ed015ac61025e565b3480156103f157600080fd5b506102dc610967565b34801561040657600080fd5b506102bd6104153660046124d6565b610976565b34801561042657600080fd5b506102dc6104353660046124d6565b610998565b34801561044657600080fd5b5061023961045536600461253c565b610a12565b34801561046657600080fd5b50610239610475366004612557565b610a64565b34801561048657600080fd5b506102396104953660046124d6565b610af1565b3480156104a657600080fd5b506102396104b5366004612557565b610b07565b3480156104c657600080fd5b50600d5461025e906001600160a01b031681565b3480156104e657600080fd5b5061025e6104f536600461253c565b6001600160a01b039081166000908152600860205260409020541690565b34801561051f57600080fd5b5061023961052e36600461253c565b610b11565b34801561053f57600080fd5b5061023961054e36600461253c565b610b1b565b34801561055f57600080fd5b5061057361056e36600461253c565b610ba6565b60405163ffffffff9091168152602001610272565b34801561059457600080fd5b506102dc6105a336600461253c565b6001600160a01b031660009081526020819052604090205490565b3480156105ca57600080fd5b506102396105d936600461253c565b610bce565b3480156105ea57600080fd5b506102dc600b5481565b34801561060057600080fd5b5061023961060f3660046124d6565b610c20565b34801561062057600080fd5b506102dc61062f36600461253c565b610c35565b34801561064057600080fd5b506005546001600160a01b031661025e565b34801561065e57600080fd5b506102dc61066d366004612557565b610c53565b34801561067e57600080fd5b50610290610caf565b34801561069357600080fd5b506102dc6106a236600461253c565b610cbe565b3480156106b357600080fd5b506102bd6106c23660046124d6565b610d45565b3480156106d357600080fd5b507345094071c4daaf6a9a73b0a0f095a2b138bd8a3a61025e565b3480156106fa57600080fd5b506102bd6107093660046124d6565b610dc0565b34801561071a57600080fd5b50610239610729366004612581565b610e55565b34801561073a57600080fd5b506102396107493660046125d9565b610f8b565b34801561075a57600080fd5b506102dc610769366004612643565b6110ef565b34801561077a57600080fd5b5061078e610789366004612676565b61111a565b60408051825163ffffffff1681526020928301516001600160e01b03169281019290925201610272565b3480156107c457600080fd5b506102396107d336600461253c565b61119e565b6060600380546107e7906126b6565b80601f0160208091040260200160405190810160405280929190818152602001828054610813906126b6565b80156108605780601f1061083557610100808354040283529160200191610860565b820191906000526020600020905b81548152906001019060200180831161084357829003601f168201915b5050505050905090565b60003361087881858561148c565b5060019392505050565b6000336108908582856115b0565b61089b858585611624565b506001949350505050565b6108ae61162f565b60006108c26005546001600160a01b031690565b6001600160a01b03164760405160006040518083038185875af1925050503d806000811461090c576040519150601f19603f3d011682016040523d82523d6000602084013e610911565b606091505b50909150506001811515146109645760405162461bcd60e51b81526020600482015260146024820152732330b4b632b2103a379039b2b7321022ba3432b960611b60448201526064015b60405180910390fd5b50565b600061097161168b565b905090565b60003361087881858561098983836110ef565b6109939190612701565b61148c565b60004382106109e95760405162461bcd60e51b815260206004820152601f60248201527f4552433230566f7465733a20626c6f636b206e6f7420796574206d696e656400604482015260640161095b565b6001600160a01b0383166000908152600960205260409020610a0b90836117b2565b9392505050565b610a1a61162f565b600c80546001600160a01b0319166001600160a01b0383169081179091556040517fb4e82d199bd528d2eb1ecdb078b8bd4585b584b8ab8f1dbe769a023691dea82690600090a250565b610a6c61162f565b6005600b5410610ab65760405162461bcd60e51b815260206004820152601560248201527454617820466565206d6178696d756d20697320352560581b604482015260640161095b565b600b8190556040518181527fb2442d3ff243b2c486384ca93de99597291265a56cc11d3f99c27ab2a96c1f249060200160405180910390a150565b610af961162f565b610b03828261186f565b5050565b6109643382611879565b6109643382611883565b610b2361162f565b61096481610b396005546001600160a01b031690565b6040516370a0823160e01b81523060048201526001600160a01b038516906370a0823190602401602060405180830381865afa158015610b7d573d6000803e3d6000fd5b505050506040513d601f19601f82011682018060405250810190610ba19190612719565b61193c565b6001600160a01b038116600090815260096020526040812054610bc8906113e4565b92915050565b610bd661162f565b600d80546001600160a01b0319166001600160a01b0383169081179091556040517f0b8fbedc55d781317c5dd28f0420abf9b05f02368d735a3b1383796222cd703190600090a250565b610c2b8233836115b0565b610b038282611879565b6001600160a01b038116600090815260066020526040812054610bc8565b6000438210610ca45760405162461bcd60e51b815260206004820152601f60248201527f4552433230566f7465733a20626c6f636b206e6f7420796574206d696e656400604482015260640161095b565b610bc8600a836117b2565b6060600480546107e7906126b6565b6001600160a01b0381166000908152600960205260408120548015610d32576001600160a01b0383166000908152600960205260409020610d00600183612732565b81548110610d1057610d10612749565b60009182526020909120015464010000000090046001600160e01b0316610d35565b60005b6001600160e01b03169392505050565b60003381610d5382866110ef565b905083811015610db35760405162461bcd60e51b815260206004820152602560248201527f45524332303a2064656372656173656420616c6c6f77616e63652062656c6f77604482015264207a65726f60d81b606482015260840161095b565b61089b828686840361148c565b6000803390506000612710600b5485610dd9919061275f565b610de3919061277e565b90506000610df18286612732565b9050610e2a837345094071c4daaf6a9a73b0a0f095a2b138bd8a3a612710610e1b866107d061275f565b610e25919061277e565b611624565b610e3e8330612710610e1b86611f4061275f565b610e49838783611624565b50600195945050505050565b83421115610ea55760405162461bcd60e51b815260206004820152601d60248201527f4552433230566f7465733a207369676e61747572652065787069726564000000604482015260640161095b565b604080517fe48329057bfd03d55e49b547132e39cffd9c1820ad7b9d4c5307691425d15adf60208201526001600160a01b038816918101919091526060810186905260808101859052600090610f1f90610f179060a0016040516020818303038152906040528051906020012061198e565b8585856119dc565b9050610f2a81611a06565b8614610f785760405162461bcd60e51b815260206004820152601960248201527f4552433230566f7465733a20696e76616c6964206e6f6e636500000000000000604482015260640161095b565b610f828188611883565b50505050505050565b83421115610fdb5760405162461bcd60e51b815260206004820152601d60248201527f45524332305065726d69743a206578706972656420646561646c696e65000000604482015260640161095b565b60007f6e71edae12b1b97f4d1f60370fef10105fa2faae0126114a169c64845d6126c988888861100a8c611a06565b6040805160208101969096526001600160a01b0394851690860152929091166060840152608083015260a082015260c0810186905260e00160405160208183030381529060405280519060200120905060006110658261198e565b90506000611075828787876119dc565b9050896001600160a01b0316816001600160a01b0316146110d85760405162461bcd60e51b815260206004820152601e60248201527f45524332305065726d69743a20696e76616c6964207369676e61747572650000604482015260640161095b565b6110e38a8a8a61148c565b50505050505050505050565b6001600160a01b03918216600090815260016020908152604080832093909416825291909152205490565b60408051808201909152600080825260208201526001600160a01b0383166000908152600960205260409020805463ffffffff841690811061115e5761115e612749565b60009182526020918290206040805180820190915291015463ffffffff8116825264010000000090046001600160e01b0316918101919091529392505050565b6111a661162f565b6001600160a01b03811661120b5760405162461bcd60e51b815260206004820152602660248201527f4f776e61626c653a206e6577206f776e657220697320746865207a65726f206160448201526564647265737360d01b606482015260840161095b565b61096481611a2e565b61121e82826112a4565b6002546001600160e01b0310156112905760405162461bcd60e51b815260206004820152603060248201527f4552433230566f7465733a20746f74616c20737570706c79207269736b73206f60448201526f766572666c6f77696e6720766f74657360801b606482015260840161095b565b61129e600a61136b83611a80565b50505050565b6001600160a01b0382166112fa5760405162461bcd60e51b815260206004820152601f60248201527f45524332303a206d696e7420746f20746865207a65726f206164647265737300604482015260640161095b565b806002600082825461130c9190612701565b90915550506001600160a01b038216600081815260208181526040808320805486019055518481527fddf252ad1be2c89b69c2b068fc378daa952ba7f163c4a11628f55a4df523b3ef910160405180910390a3610b0360008383611bf9565b6000610a0b8284612701565b60006001600160e01b038211156113e05760405162461bcd60e51b815260206004820152602760248201527f53616665436173743a2076616c756520646f65736e27742066697420696e20326044820152663234206269747360c81b606482015260840161095b565b5090565b600063ffffffff8211156113e05760405162461bcd60e51b815260206004820152602660248201527f53616665436173743a2076616c756520646f65736e27742066697420696e203360448201526532206269747360d01b606482015260840161095b565b6001600160a01b0383811660009081526008602052604080822054858416835291205461147b92918216911683611c04565b505050565b6000610a0b8284612732565b6001600160a01b0383166114ee5760405162461bcd60e51b8152602060048201526024808201527f45524332303a20617070726f76652066726f6d20746865207a65726f206164646044820152637265737360e01b606482015260840161095b565b6001600160a01b03821661154f5760405162461bcd60e51b815260206004820152602260248201527f45524332303a20617070726f766520746f20746865207a65726f206164647265604482015261737360f01b606482015260840161095b565b6001600160a01b0383811660008181526001602090815260408083209487168084529482529182902085905590518481527f8c5be1e5ebec7d5bd14f71427d1e84f3dd0314c0f7b2291e5b200ac8c7c3b925910160405180910390a3505050565b60006115bc84846110ef565b9050600019811461129e57818110156116175760405162461bcd60e51b815260206004820152601d60248201527f45524332303a20696e73756666696369656e7420616c6c6f77616e6365000000604482015260640161095b565b61129e848484840361148c565b61147b838383611d41565b6005546001600160a01b031633146116895760405162461bcd60e51b815260206004820181905260248201527f4f776e61626c653a2063616c6c6572206973206e6f7420746865206f776e6572604482015260640161095b565b565b6000306001600160a01b037f0000000000000000000000000000000000000000000000000000000000000000161480156116e457507f000000000000000000000000000000000000000000000000000000000000000046145b1561170e57507f000000000000000000000000000000000000000000000000000000000000000090565b50604080517f00000000000000000000000000000000000000000000000000000000000000006020808301919091527f0000000000000000000000000000000000000000000000000000000000000000828401527f000000000000000000000000000000000000000000000000000000000000000060608301524660808301523060a0808401919091528351808403909101815260c0909201909252805191012090565b8154600090815b818110156118165760006117cd8284611eeb565b9050848682815481106117e2576117e2612749565b60009182526020909120015463ffffffff16111561180257809250611810565b61180d816001612701565b91505b506117b9565b811561185a5784611828600184612732565b8154811061183857611838612749565b60009182526020909120015464010000000090046001600160e01b031661185d565b60005b6001600160e01b031695945050505050565b610b038282611214565b610b038282611f06565b6001600160a01b038281166000908152600860209081526040808320549183905282205492169190816118b75760006118c1565b670de0b6b3a76400005b6001600160a01b0386811660008181526008602052604080822080546001600160a01b0319168a8616908117909155905167ffffffffffffffff95909516955093928716927f3134e8a2e6d97e929a7e54011ea5485d7d196dd5f0ba4d4ef95803e8e3fc257f9190a4611935838583611c04565b5050505050565b604080516001600160a01b038416602482015260448082018490528251808303909101815260649091019091526020810180516001600160e01b031663a9059cbb60e01b17905261147b908490611f1e565b6000610bc861199b61168b565b8360405161190160f01b6020820152602281018390526042810182905260009060620160405160208183030381529060405280519060200120905092915050565b60008060006119ed87878787611ff0565b915091506119fa816120b4565b5090505b949350505050565b6001600160a01b03811660009081526006602052604090208054600181018255905b50919050565b600580546001600160a01b038381166001600160a01b0319831681179093556040519116919082907f8be0079c531659141344cd1fd0a4f28419497f9722a3daafe3b4186f6b6457e090600090a35050565b825460009081908015611acb5785611a99600183612732565b81548110611aa957611aa9612749565b60009182526020909120015464010000000090046001600160e01b0316611ace565b60005b6001600160e01b03169250611ae783858763ffffffff16565b9150600081118015611b2557504386611b01600184612732565b81548110611b1157611b11612749565b60009182526020909120015463ffffffff16145b15611b8557611b3382611377565b86611b3f600184612732565b81548110611b4f57611b4f612749565b9060005260206000200160000160046101000a8154816001600160e01b0302191690836001600160e01b03160217905550611bf0565b856040518060400160405280611b9a436113e4565b63ffffffff168152602001611bae85611377565b6001600160e01b0390811690915282546001810184556000938452602093849020835194909301519091166401000000000263ffffffff909316929092179101555b50935093915050565b61147b838383611449565b816001600160a01b0316836001600160a01b031614158015611c265750600081115b1561147b576001600160a01b03831615611cb4576001600160a01b03831660009081526009602052604081208190611c619061148085611a80565b91509150846001600160a01b03167fdec2bacdd2f05b59de34da9b523dff8be42e5e38e818c82fdb0bae774387a7248383604051611ca9929190918252602082015260400190565b60405180910390a250505b6001600160a01b0382161561147b576001600160a01b03821660009081526009602052604081208190611cea9061136b85611a80565b91509150836001600160a01b03167fdec2bacdd2f05b59de34da9b523dff8be42e5e38e818c82fdb0bae774387a7248383604051611d32929190918252602082015260400190565b60405180910390a25050505050565b6001600160a01b038316611da55760405162461bcd60e51b815260206004820152602560248201527f45524332303a207472616e736665722066726f6d20746865207a65726f206164604482015264647265737360d81b606482015260840161095b565b6001600160a01b038216611e075760405162461bcd60e51b815260206004820152602360248201527f45524332303a207472616e7366657220746f20746865207a65726f206164647260448201526265737360e81b606482015260840161095b565b6001600160a01b03831660009081526020819052604090205481811015611e7f5760405162461bcd60e51b815260206004820152602660248201527f45524332303a207472616e7366657220616d6f756e7420657863656564732062604482015265616c616e636560d01b606482015260840161095b565b6001600160a01b03848116600081815260208181526040808320878703905593871680835291849020805487019055925185815290927fddf252ad1be2c89b69c2b068fc378daa952ba7f163c4a11628f55a4df523b3ef910160405180910390a361129e848484611bf9565b6000611efa600284841861277e565b610a0b90848416612701565b611f108282612202565b61129e600a61148083611a80565b6000611f73826040518060400160405280602081526020017f5361666545524332303a206c6f772d6c6576656c2063616c6c206661696c6564815250856001600160a01b031661233b9092919063ffffffff16565b80519091501561147b5780806020019051810190611f9191906127a0565b61147b5760405162461bcd60e51b815260206004820152602a60248201527f5361666545524332303a204552433230206f7065726174696f6e20646964206e6044820152691bdd081cdd58d8d9595960b21b606482015260840161095b565b6000807f7fffffffffffffffffffffffffffffff5d576e7357a4501ddfe92f46681b20a083111561202757506000905060036120ab565b6040805160008082526020820180845289905260ff881692820192909252606081018690526080810185905260019060a0016020604051602081039080840390855afa15801561207b573d6000803e3d6000fd5b5050604051601f1901519150506001600160a01b0381166120a4576000600192509250506120ab565b9150600090505b94509492505050565b60008160048111156120c8576120c86127c2565b14156120d15750565b60018160048111156120e5576120e56127c2565b14156121335760405162461bcd60e51b815260206004820152601860248201527f45434453413a20696e76616c6964207369676e61747572650000000000000000604482015260640161095b565b6002816004811115612147576121476127c2565b14156121955760405162461bcd60e51b815260206004820152601f60248201527f45434453413a20696e76616c6964207369676e6174757265206c656e67746800604482015260640161095b565b60038160048111156121a9576121a96127c2565b14156109645760405162461bcd60e51b815260206004820152602260248201527f45434453413a20696e76616c6964207369676e6174757265202773272076616c604482015261756560f01b606482015260840161095b565b6001600160a01b0382166122625760405162461bcd60e51b815260206004820152602160248201527f45524332303a206275726e2066726f6d20746865207a65726f206164647265736044820152607360f81b606482015260840161095b565b6001600160a01b038216600090815260208190526040902054818110156122d65760405162461bcd60e51b815260206004820152602260248201527f45524332303a206275726e20616d6f756e7420657863656564732062616c616e604482015261636560f01b606482015260840161095b565b6001600160a01b0383166000818152602081815260408083208686039055600280548790039055518581529192917fddf252ad1be2c89b69c2b068fc378daa952ba7f163c4a11628f55a4df523b3ef910160405180910390a361147b83600084611bf9565b60606119fe848460008585600080866001600160a01b0316858760405161236291906127d8565b60006040518083038185875af1925050503d806000811461239f576040519150601f19603f3d011682016040523d82523d6000602084013e6123a4565b606091505b50915091506123b5878383876123c0565b979650505050505050565b6060831561242c578251612425576001600160a01b0385163b6124255760405162461bcd60e51b815260206004820152601d60248201527f416464726573733a2063616c6c20746f206e6f6e2d636f6e7472616374000000604482015260640161095b565b50816119fe565b6119fe83838151156124415781518083602001fd5b8060405162461bcd60e51b815260040161095b9190612487565b60005b8381101561247657818101518382015260200161245e565b8381111561129e5750506000910152565b60208152600082518060208401526124a681604085016020870161245b565b601f01601f19169190910160400192915050565b80356001600160a01b03811681146124d157600080fd5b919050565b600080604083850312156124e957600080fd5b6124f2836124ba565b946020939093013593505050565b60008060006060848603121561251557600080fd5b61251e846124ba565b925061252c602085016124ba565b9150604084013590509250925092565b60006020828403121561254e57600080fd5b610a0b826124ba565b60006020828403121561256957600080fd5b5035919050565b803560ff811681146124d157600080fd5b60008060008060008060c0878903121561259a57600080fd5b6125a3876124ba565b955060208701359450604087013593506125bf60608801612570565b92506080870135915060a087013590509295509295509295565b600080600080600080600060e0888a0312156125f457600080fd5b6125fd886124ba565b965061260b602089016124ba565b9550604088013594506060880135935061262760808901612570565b925060a0880135915060c0880135905092959891949750929550565b6000806040838503121561265657600080fd5b61265f836124ba565b915061266d602084016124ba565b90509250929050565b6000806040838503121561268957600080fd5b612692836124ba565b9150602083013563ffffffff811681146126ab57600080fd5b809150509250929050565b600181811c908216806126ca57607f821691505b60208210811415611a2857634e487b7160e01b600052602260045260246000fd5b634e487b7160e01b600052601160045260246000fd5b60008219821115612714576127146126eb565b500190565b60006020828403121561272b57600080fd5b5051919050565b600082821015612744576127446126eb565b500390565b634e487b7160e01b600052603260045260246000fd5b6000816000190483118215151615612779576127796126eb565b500290565b60008261279b57634e487b7160e01b600052601260045260246000fd5b500490565b6000602082840312156127b257600080fd5b81518015158114610a0b57600080fd5b634e487b7160e01b600052602160045260246000fd5b600082516127ea81846020870161245b565b919091019291505056fea26469706673582212206d6decb70bf753bfaba3ac7747e3d1242f842cb922e78816f135b8159314097964736f6c634300080b0033dec2bacdd2f05b59de34da9b523dff8be42e5e38e818c82fdb0bae774387a724",
  "linkReferences": {},
  "deployedLinkReferences": {}
}