{
  "_format": "hh-sol-artifact-1",
  "contractName": "Talaxeum",
  "sourceName": "contracts/ERC20/Talaxeum.sol",
  "abi": [
    {
      "inputs": [],
      "stateMutability": "nonpayable",
      "type": "constructor"
    },
    {
      "anonymous": false,
      "inputs": [
        {
          "indexed": true,
          "internalType": "address",
          "name": "owner",
          "type": "address"
        },
        {
          "indexed": true,
          "internalType": "address",
          "name": "spender",
          "type": "address"
        },
        {
          "indexed": false,
          "internalType": "uint256",
          "name": "value",
          "type": "uint256"
        }
      ],
      "name": "Approval",
      "type": "event"
    },
    {
      "anonymous": false,
      "inputs": [
        {
          "indexed": true,
          "internalType": "address",
          "name": "advisor",
          "type": "address"
        }
      ],
      "name": "ChangeAdvisorAddress",
      "type": "event"
    },
    {
      "anonymous": false,
      "inputs": [
        {
          "indexed": true,
          "internalType": "address",
          "name": "platform",
          "type": "address"
        }
      ],
      "name": "ChangePlatformAddress",
      "type": "event"
    },
    {
      "anonymous": false,
      "inputs": [
        {
          "indexed": false,
          "internalType": "uint256",
          "name": "tax",
          "type": "uint256"
        }
      ],
      "name": "ChangeTaxPercentage",
      "type": "event"
    },
    {
      "anonymous": false,
      "inputs": [
        {
          "indexed": true,
          "internalType": "address",
          "name": "delegator",
          "type": "address"
        },
        {
          "indexed": true,
          "internalType": "address",
          "name": "fromDelegate",
          "type": "address"
        },
        {
          "indexed": true,
          "internalType": "address",
          "name": "toDelegate",
          "type": "address"
        }
      ],
      "name": "DelegateChanged",
      "type": "event"
    },
    {
      "anonymous": false,
      "inputs": [
        {
          "indexed": true,
          "internalType": "address",
          "name": "delegate",
          "type": "address"
        },
        {
          "indexed": false,
          "internalType": "uint256",
          "name": "previousBalance",
          "type": "uint256"
        },
        {
          "indexed": false,
          "internalType": "uint256",
          "name": "newBalance",
          "type": "uint256"
        }
      ],
      "name": "DelegateVotesChanged",
      "type": "event"
    },
    {
      "anonymous": false,
      "inputs": [
        {
          "indexed": true,
          "internalType": "address",
          "name": "previousOwner",
          "type": "address"
        },
        {
          "indexed": true,
          "internalType": "address",
          "name": "newOwner",
          "type": "address"
        }
      ],
      "name": "OwnershipTransferred",
      "type": "event"
    },
    {
      "anonymous": false,
      "inputs": [
        {
          "indexed": true,
          "internalType": "address",
          "name": "from",
          "type": "address"
        },
        {
          "indexed": true,
          "internalType": "address",
          "name": "to",
          "type": "address"
        },
        {
          "indexed": false,
          "internalType": "uint256",
          "name": "value",
          "type": "uint256"
        }
      ],
      "name": "Transfer",
      "type": "event"
    },
    {
      "stateMutability": "payable",
      "type": "fallback"
    },
    {
      "inputs": [],
      "name": "DOMAIN_SEPARATOR",
      "outputs": [
        {
          "internalType": "bytes32",
          "name": "",
          "type": "bytes32"
        }
      ],
      "stateMutability": "view",
      "type": "function"
    },
    {
      "inputs": [],
      "name": "advisor",
      "outputs": [
        {
          "internalType": "address",
          "name": "",
          "type": "address"
        }
      ],
      "stateMutability": "view",
      "type": "function"
    },
    {
      "inputs": [
        {
          "internalType": "address",
          "name": "owner",
          "type": "address"
        },
        {
          "internalType": "address",
          "name": "spender",
          "type": "address"
        }
      ],
      "name": "allowance",
      "outputs": [
        {
          "internalType": "uint256",
          "name": "",
          "type": "uint256"
        }
      ],
      "stateMutability": "view",
      "type": "function"
    },
    {
      "inputs": [
        {
          "internalType": "address",
          "name": "spender",
          "type": "address"
        },
        {
          "internalType": "uint256",
          "name": "amount",
          "type": "uint256"
        }
      ],
      "name": "approve",
      "outputs": [
        {
          "internalType": "bool",
          "name": "",
          "type": "bool"
        }
      ],
      "stateMutability": "nonpayable",
      "type": "function"
    },
    {
      "inputs": [
        {
          "internalType": "address",
          "name": "account",
          "type": "address"
        }
      ],
      "name": "balanceOf",
      "outputs": [
        {
          "internalType": "uint256",
          "name": "",
          "type": "uint256"
        }
      ],
      "stateMutability": "view",
      "type": "function"
    },
    {
      "inputs": [
        {
          "internalType": "uint256",
          "name": "amount",
          "type": "uint256"
        }
      ],
      "name": "burn",
      "outputs": [],
      "stateMutability": "nonpayable",
      "type": "function"
    },
    {
      "inputs": [
        {
          "internalType": "address",
          "name": "account",
          "type": "address"
        },
        {
          "internalType": "uint256",
          "name": "amount",
          "type": "uint256"
        }
      ],
      "name": "burnFrom",
      "outputs": [],
      "stateMutability": "nonpayable",
      "type": "function"
    },
    {
      "inputs": [
        {
          "internalType": "address",
          "name": "newAddress",
          "type": "address"
        }
      ],
      "name": "changeAdvisor",
      "outputs": [],
      "stateMutability": "nonpayable",
      "type": "function"
    },
    {
      "inputs": [
        {
          "internalType": "address",
          "name": "newAddress",
          "type": "address"
        }
      ],
      "name": "changePlatform",
      "outputs": [],
      "stateMutability": "nonpayable",
      "type": "function"
    },
    {
      "inputs": [
        {
          "internalType": "uint256",
          "name": "tax",
          "type": "uint256"
        }
      ],
      "name": "changeTax",
      "outputs": [],
      "stateMutability": "nonpayable",
      "type": "function"
    },
    {
      "inputs": [
        {
          "internalType": "address",
          "name": "account",
          "type": "address"
        },
        {
          "internalType": "uint32",
          "name": "pos",
          "type": "uint32"
        }
      ],
      "name": "checkpoints",
      "outputs": [
        {
          "components": [
            {
              "internalType": "uint32",
              "name": "fromBlock",
              "type": "uint32"
            },
            {
              "internalType": "uint224",
              "name": "votes",
              "type": "uint224"
            }
          ],
          "internalType": "struct ERC20Votes.Checkpoint",
          "name": "",
          "type": "tuple"
        }
      ],
      "stateMutability": "view",
      "type": "function"
    },
    {
      "inputs": [],
      "name": "daoPool",
      "outputs": [
        {
          "internalType": "address",
          "name": "",
          "type": "address"
        }
      ],
      "stateMutability": "pure",
      "type": "function"
    },
    {
      "inputs": [],
      "name": "decimals",
      "outputs": [
        {
          "internalType": "uint8",
          "name": "",
          "type": "uint8"
        }
      ],
      "stateMutability": "view",
      "type": "function"
    },
    {
      "inputs": [
        {
          "internalType": "address",
          "name": "spender",
          "type": "address"
        },
        {
          "internalType": "uint256",
          "name": "subtractedValue",
          "type": "uint256"
        }
      ],
      "name": "decreaseAllowance",
      "outputs": [
        {
          "internalType": "bool",
          "name": "",
          "type": "bool"
        }
      ],
      "stateMutability": "nonpayable",
      "type": "function"
    },
    {
      "inputs": [
        {
          "internalType": "address",
          "name": "delegatee",
          "type": "address"
        }
      ],
      "name": "delegate",
      "outputs": [],
      "stateMutability": "nonpayable",
      "type": "function"
    },
    {
      "inputs": [
        {
          "internalType": "address",
          "name": "delegatee",
          "type": "address"
        },
        {
          "internalType": "uint256",
          "name": "nonce",
          "type": "uint256"
        },
        {
          "internalType": "uint256",
          "name": "expiry",
          "type": "uint256"
        },
        {
          "internalType": "uint8",
          "name": "v",
          "type": "uint8"
        },
        {
          "internalType": "bytes32",
          "name": "r",
          "type": "bytes32"
        },
        {
          "internalType": "bytes32",
          "name": "s",
          "type": "bytes32"
        }
      ],
      "name": "delegateBySig",
      "outputs": [],
      "stateMutability": "nonpayable",
      "type": "function"
    },
    {
      "inputs": [
        {
          "internalType": "address",
          "name": "account",
          "type": "address"
        }
      ],
      "name": "delegates",
      "outputs": [
        {
          "internalType": "address",
          "name": "",
          "type": "address"
        }
      ],
      "stateMutability": "view",
      "type": "function"
    },
    {
      "inputs": [],
      "name": "getBalance",
      "outputs": [
        {
          "internalType": "uint256",
          "name": "",
          "type": "uint256"
        }
      ],
      "stateMutability": "view",
      "type": "function"
    },
    {
      "inputs": [
        {
          "internalType": "uint256",
          "name": "blockNumber",
          "type": "uint256"
        }
      ],
      "name": "getPastTotalSupply",
      "outputs": [
        {
          "internalType": "uint256",
          "name": "",
          "type": "uint256"
        }
      ],
      "stateMutability": "view",
      "type": "function"
    },
    {
      "inputs": [
        {
          "internalType": "address",
          "name": "account",
          "type": "address"
        },
        {
          "internalType": "uint256",
          "name": "blockNumber",
          "type": "uint256"
        }
      ],
      "name": "getPastVotes",
      "outputs": [
        {
          "internalType": "uint256",
          "name": "",
          "type": "uint256"
        }
      ],
      "stateMutability": "view",
      "type": "function"
    },
    {
      "inputs": [
        {
          "internalType": "address",
          "name": "account",
          "type": "address"
        }
      ],
      "name": "getVotes",
      "outputs": [
        {
          "internalType": "uint256",
          "name": "",
          "type": "uint256"
        }
      ],
      "stateMutability": "view",
      "type": "function"
    },
    {
      "inputs": [
        {
          "internalType": "address",
          "name": "spender",
          "type": "address"
        },
        {
          "internalType": "uint256",
          "name": "addedValue",
          "type": "uint256"
        }
      ],
      "name": "increaseAllowance",
      "outputs": [
        {
          "internalType": "bool",
          "name": "",
          "type": "bool"
        }
      ],
      "stateMutability": "nonpayable",
      "type": "function"
    },
    {
      "inputs": [],
      "name": "marketing",
      "outputs": [
        {
          "internalType": "address",
          "name": "",
          "type": "address"
        }
      ],
      "stateMutability": "pure",
      "type": "function"
    },
    {
      "inputs": [
        {
          "internalType": "address",
          "name": "to",
          "type": "address"
        },
        {
          "internalType": "uint256",
          "name": "amount",
          "type": "uint256"
        }
      ],
      "name": "mint",
      "outputs": [],
      "stateMutability": "nonpayable",
      "type": "function"
    },
    {
      "inputs": [],
      "name": "name",
      "outputs": [
        {
          "internalType": "string",
          "name": "",
          "type": "string"
        }
      ],
      "stateMutability": "view",
      "type": "function"
    },
    {
      "inputs": [
        {
          "internalType": "address",
          "name": "owner",
          "type": "address"
        }
      ],
      "name": "nonces",
      "outputs": [
        {
          "internalType": "uint256",
          "name": "",
          "type": "uint256"
        }
      ],
      "stateMutability": "view",
      "type": "function"
    },
    {
      "inputs": [
        {
          "internalType": "address",
          "name": "account",
          "type": "address"
        }
      ],
      "name": "numCheckpoints",
      "outputs": [
        {
          "internalType": "uint32",
          "name": "",
          "type": "uint32"
        }
      ],
      "stateMutability": "view",
      "type": "function"
    },
    {
      "inputs": [],
      "name": "owner",
      "outputs": [
        {
          "internalType": "address",
          "name": "",
          "type": "address"
        }
      ],
      "stateMutability": "view",
      "type": "function"
    },
    {
      "inputs": [
        {
          "internalType": "address",
          "name": "owner",
          "type": "address"
        },
        {
          "internalType": "address",
          "name": "spender",
          "type": "address"
        },
        {
          "internalType": "uint256",
          "name": "value",
          "type": "uint256"
        },
        {
          "internalType": "uint256",
          "name": "deadline",
          "type": "uint256"
        },
        {
          "internalType": "uint8",
          "name": "v",
          "type": "uint8"
        },
        {
          "internalType": "bytes32",
          "name": "r",
          "type": "bytes32"
        },
        {
          "internalType": "bytes32",
          "name": "s",
          "type": "bytes32"
        }
      ],
      "name": "permit",
      "outputs": [],
      "stateMutability": "nonpayable",
      "type": "function"
    },
    {
      "inputs": [],
      "name": "platform",
      "outputs": [
        {
          "internalType": "address",
          "name": "",
          "type": "address"
        }
      ],
      "stateMutability": "view",
      "type": "function"
    },
    {
      "inputs": [],
      "name": "publicSale",
      "outputs": [
        {
          "internalType": "address",
          "name": "",
          "type": "address"
        }
      ],
      "stateMutability": "pure",
      "type": "function"
    },
    {
      "inputs": [],
      "name": "stakingReward",
      "outputs": [
        {
          "internalType": "address",
          "name": "",
          "type": "address"
        }
      ],
      "stateMutability": "pure",
      "type": "function"
    },
    {
      "inputs": [],
      "name": "symbol",
      "outputs": [
        {
          "internalType": "string",
          "name": "",
          "type": "string"
        }
      ],
      "stateMutability": "view",
      "type": "function"
    },
    {
      "inputs": [],
      "name": "taxRate",
      "outputs": [
        {
          "internalType": "uint256",
          "name": "",
          "type": "uint256"
        }
      ],
      "stateMutability": "view",
      "type": "function"
    },
    {
      "inputs": [],
      "name": "teamAndProjectCoordinator",
      "outputs": [
        {
          "internalType": "address",
          "name": "",
          "type": "address"
        }
      ],
      "stateMutability": "pure",
      "type": "function"
    },
    {
      "inputs": [],
      "name": "totalSupply",
      "outputs": [
        {
          "internalType": "uint256",
          "name": "",
          "type": "uint256"
        }
      ],
      "stateMutability": "view",
      "type": "function"
    },
    {
      "inputs": [
        {
          "internalType": "address",
          "name": "to",
          "type": "address"
        },
        {
          "internalType": "uint256",
          "name": "amount",
          "type": "uint256"
        }
      ],
      "name": "transfer",
      "outputs": [
        {
          "internalType": "bool",
          "name": "",
          "type": "bool"
        }
      ],
      "stateMutability": "nonpayable",
      "type": "function"
    },
    {
      "inputs": [
        {
          "internalType": "address",
          "name": "from",
          "type": "address"
        },
        {
          "internalType": "address",
          "name": "to",
          "type": "address"
        },
        {
          "internalType": "uint256",
          "name": "amount",
          "type": "uint256"
        }
      ],
      "name": "transferFrom",
      "outputs": [
        {
          "internalType": "bool",
          "name": "",
          "type": "bool"
        }
      ],
      "stateMutability": "nonpayable",
      "type": "function"
    },
    {
      "inputs": [
        {
          "internalType": "address",
          "name": "newOwner",
          "type": "address"
        }
      ],
      "name": "transferOwnership",
      "outputs": [],
      "stateMutability": "nonpayable",
      "type": "function"
    },
    {
      "inputs": [],
      "name": "withdrawFunds",
      "outputs": [],
      "stateMutability": "nonpayable",
      "type": "function"
    },
    {
      "inputs": [],
      "name": "withdrawTalax",
      "outputs": [],
      "stateMutability": "nonpayable",
      "type": "function"
    },
    {
      "stateMutability": "payable",
      "type": "receive"
    }
  ],
  "bytecode": "0x6101406040526064600b55600c80546001600160a01b0319908116909155600d805490911690553480156200003357600080fd5b506040518060400160405280600881526020016754616c617865756d60c01b81525080604051806040016040528060018152602001603160f81b8152506040518060400160405280600881526020016754616c617865756d60c01b815250604051806040016040528060058152602001640a8829882b60db1b8152508160039080519060200190620000c7929190620007ee565b508051620000dd906004906020840190620007ee565b505050620000fa620000f4620001ba60201b60201c565b620001be565b815160209283012081519183019190912060e08290526101008190524660a0818152604080517f8b73c3c69bb8fe3d512ecc4cf759cc79239f7b179b0ffacaa9a75d522b39400f818801819052818301969096526060810194909452608080850193909352308483018190528151808603909301835260c0948501909152815191909501209052919091526101205250620001b4336200019d6012600a6200099d565b620001ae906404e3b29200620009ae565b62000210565b62000a58565b3390565b600580546001600160a01b038381166001600160a01b0319831681179093556040519116919082907f8be0079c531659141344cd1fd0a4f28419497f9722a3daafe3b4186f6b6457e090600090a35050565b6200022782826200022b60201b620012c31760201c565b5050565b620002428282620002e260201b620013601760201c565b6001600160e01b0362000256620003af8216565b1115620002c35760405162461bcd60e51b815260206004820152603060248201527f4552433230566f7465733a20746f74616c20737570706c79207269736b73206f60448201526f766572666c6f77696e6720766f74657360801b60648201526084015b60405180910390fd5b620002dc600a62001427620003b560201b1783620003cc565b50505050565b6001600160a01b0382166200033a5760405162461bcd60e51b815260206004820152601f60248201527f45524332303a206d696e7420746f20746865207a65726f2061646472657373006044820152606401620002ba565b80600260008282546200034e9190620009d0565b90915550506001600160a01b038216600081815260208181526040808320805486019055518481527fddf252ad1be2c89b69c2b068fc378daa952ba7f163c4a11628f55a4df523b3ef910160405180910390a3620002276000838362000583565b60025490565b6000620003c38284620009d0565b90505b92915050565b8254600090819080156200041e5785620003e8600183620009eb565b81548110620003fb57620003fb62000a05565b60009182526020909120015464010000000090046001600160e01b031662000421565b60005b6001600160e01b031692506200043883858760201c565b91506000811180156200047c5750438662000455600184620009eb565b8154811062000468576200046862000a05565b60009182526020909120015463ffffffff16145b15620004f05762000498826200059b60201b620014331760201c565b86620004a6600184620009eb565b81548110620004b957620004b962000a05565b9060005260206000200160000160046101000a8154816001600160e01b0302191690836001600160e01b0316021790555062000575565b85604051806040016040528062000512436200060a60201b620014b61760201c565b63ffffffff16815260200162000533856200059b60201b620014331760201c565b6001600160e01b0390811690915282546001810184556000938452602093849020835194909301519091166401000000000263ffffffff909316929092179101555b50935093915050565b505050565b6200057e8383836200067160201b620015321760201c565b60006001600160e01b03821115620006065760405162461bcd60e51b815260206004820152602760248201527f53616665436173743a2076616c756520646f65736e27742066697420696e20326044820152663234206269747360c81b6064820152608401620002ba565b5090565b600063ffffffff821115620006065760405162461bcd60e51b815260206004820152602660248201527f53616665436173743a2076616c756520646f65736e27742066697420696e203360448201526532206269747360d01b6064820152608401620002ba565b620006898383836200057e60201b620015641760201c565b6001600160a01b038381166000908152600860205260408082205485841683529120546200057e92918216911683818314801590620006c85750600081115b156200057e576001600160a01b0383161562000755576001600160a01b038316600090815260096020908152604082208291620007129190620007e0901b620015691785620003cc565b91509150846001600160a01b03166000805160206200327483398151915283836040516200074a929190918252602082015260400190565b60405180910390a250505b6001600160a01b038216156200057e576001600160a01b038216600090815260096020908152604082208291620007999190620003b5901b620014271785620003cc565b91509150836001600160a01b0316600080516020620032748339815191528383604051620007d1929190918252602082015260400190565b60405180910390a25050505050565b6000620003c38284620009eb565b828054620007fc9062000a1b565b90600052602060002090601f0160209004810192826200082057600085556200086b565b82601f106200083b57805160ff19168380011785556200086b565b828001600101855582156200086b579182015b828111156200086b5782518255916020019190600101906200084e565b50620006069291505b8082111562000606576000815560010162000874565b634e487b7160e01b600052601160045260246000fd5b600181815b80851115620008e1578160001904821115620008c557620008c56200088a565b80851615620008d357918102915b93841c9390800290620008a5565b509250929050565b600082620008fa57506001620003c6565b816200090957506000620003c6565b81600181146200092257600281146200092d576200094d565b6001915050620003c6565b60ff8411156200094157620009416200088a565b50506001821b620003c6565b5060208310610133831016604e8410600b841016171562000972575081810a620003c6565b6200097e8383620008a0565b80600019048211156200099557620009956200088a565b029392505050565b6000620003c360ff841683620008e9565b6000816000190483118215151615620009cb57620009cb6200088a565b500290565b60008219821115620009e657620009e66200088a565b500190565b60008282101562000a005762000a006200088a565b500390565b634e487b7160e01b600052603260045260246000fd5b600181811c9082168062000a3057607f821691505b6020821081141562000a5257634e487b7160e01b600052602260045260246000fd5b50919050565b60805160a05160c05160e05161010051610120516127cc62000aa8600039600061188e015260006118dd015260006118b8015260006118110152600061183b0152600061186501526127cc6000f3fe60806040526004361061029a5760003560e01c8063587cde1e116101615780638e539e8c116100ca578063a9059cbb11610084578063dd62ed3e11610061578063dd62ed3e146107ab578063f1127ed8146107f1578063f2fde38b1461083b57005b8063a9059cbb1461074b578063c3cda5201461076b578063d505accf1461078b57005b80639ab24eb0116100b25780639ab24eb0146106e4578063a457c2d714610704578063a542cd841461072457005b80638e539e8c146106af57806395d89b41146106cf57005b8063771a3a1d1161011b5780637ecebe00116101035780637ecebe001461065c57806388f187731461067c5780638da5cb5b1461069157005b8063771a3a1d1461062657806379cc67901461063c57005b80636fcfff45116101495780636fcfff451461059b57806370a08231146105d0578063753d93e41461060657005b8063587cde1e146105425780635c19a95c1461057b57005b806333bc1c5c116102035780633b1663be116101bd57806340c10f19116101a557806340c10f19146104e257806342966c68146105025780634bde38c81461052257005b80633b1663be146104a25780633e45c8af146104c257005b80633644e515116101eb5780633644e5151461044d57806339509351146104625780633a46b1a81461048257005b806333bc1c5c146103ff57806333e0ff5d1461042657005b80631936e4be1161025457806324600fc31161023c57806324600fc3146103a75780632d3e474a146103bc578063313ce567146103e357005b80631936e4be1461036757806323b872dd1461038757005b8063095ea7b311610282578063095ea7b31461030557806312065fe01461033557806318160ddd1461035257005b8063042249bb146102a357806306fdde03146102e357005b366102a157005b005b3480156102af57600080fd5b50732f838cf0df38b2e91e747a01ddae5ebad5558b7a5b6040516001600160a01b0390911681526020015b60405180910390f35b3480156102ef57600080fd5b506102f861085b565b6040516102da919061245e565b34801561031157600080fd5b506103256103203660046124cf565b6108ed565b60405190151581526020016102da565b34801561034157600080fd5b50475b6040519081526020016102da565b34801561035e57600080fd5b50600254610344565b34801561037357600080fd5b50600c546102c6906001600160a01b031681565b34801561039357600080fd5b506103256103a23660046124f9565b610931565b3480156103b357600080fd5b506102a161098b565b3480156103c857600080fd5b5073f09f65dd4d229e991901669ad7c7549f060e30b96102c6565b3480156103ef57600080fd5b50604051601281526020016102da565b34801561040b57600080fd5b50735470c8ff25ec05980fc7c2967d076b8012298fe76102c6565b34801561043257600080fd5b507375837e79215250c45331b92c35b7be506ed015ac6102c6565b34801561045957600080fd5b50610344610a55565b34801561046e57600080fd5b5061032561047d3660046124cf565b610a64565b34801561048e57600080fd5b5061034461049d3660046124cf565b610aa8565b3480156104ae57600080fd5b506102a16104bd366004612535565b610b22565b3480156104ce57600080fd5b506102a16104dd366004612550565b610b81565b3480156104ee57600080fd5b506102a16104fd3660046124cf565b610c16565b34801561050e57600080fd5b506102a161051d366004612550565b610c2c565b34801561052e57600080fd5b50600d546102c6906001600160a01b031681565b34801561054e57600080fd5b506102c661055d366004612535565b6001600160a01b039081166000908152600860205260409020541690565b34801561058757600080fd5b506102a1610596366004612535565b610c36565b3480156105a757600080fd5b506105bb6105b6366004612535565b610c40565b60405163ffffffff90911681526020016102da565b3480156105dc57600080fd5b506103446105eb366004612535565b6001600160a01b031660009081526020819052604090205490565b34801561061257600080fd5b506102a1610621366004612535565b610c68565b34801561063257600080fd5b50610344600b5481565b34801561064857600080fd5b506102a16106573660046124cf565b610cc7565b34801561066857600080fd5b50610344610677366004612535565b610cdc565b34801561068857600080fd5b506102a1610cfa565b34801561069d57600080fd5b506005546001600160a01b03166102c6565b3480156106bb57600080fd5b506103446106ca366004612550565b610d34565b3480156106db57600080fd5b506102f8610d90565b3480156106f057600080fd5b506103446106ff366004612535565b610d9f565b34801561071057600080fd5b5061032561071f3660046124cf565b610e26565b34801561073057600080fd5b507345094071c4daaf6a9a73b0a0f095a2b138bd8a3a6102c6565b34801561075757600080fd5b506103256107663660046124cf565b610ed0565b34801561077757600080fd5b506102a161078636600461257a565b610f18565b34801561079757600080fd5b506102a16107a63660046125d2565b61104e565b3480156107b757600080fd5b506103446107c636600461263c565b6001600160a01b03918216600090815260016020908152604080832093909416825291909152205490565b3480156107fd57600080fd5b5061081161080c36600461266f565b6111b2565b60408051825163ffffffff1681526020928301516001600160e01b031692810192909252016102da565b34801561084757600080fd5b506102a1610856366004612535565b611236565b60606003805461086a906126af565b80601f0160208091040260200160405190810160405280929190818152602001828054610896906126af565b80156108e35780601f106108b8576101008083540402835291602001916108e3565b820191906000526020600020905b8154815290600101906020018083116108c657829003601f168201915b5050505050905090565b6000803390506000612710600b548561090691906126fa565b6109109190612719565b90506109268286610921848861273b565b611575565b506001949350505050565b6000803390506000612710600b548561094a91906126fa565b6109549190612719565b905061096a8683610965848861273b565b6116cd565b6109748682611759565b61097f86868661179f565b50600195945050505050565b6109936117aa565b60006109a76005546001600160a01b031690565b6001600160a01b03164760405160006040518083038185875af1925050503d80600081146109f1576040519150601f19603f3d011682016040523d82523d6000602084013e6109f6565b606091505b5090915050600181151514610a525760405162461bcd60e51b815260206004820152601460248201527f4661696c656420746f2073656e6420457468657200000000000000000000000060448201526064015b60405180910390fd5b50565b6000610a5f611804565b905090565b3360008181526001602090815260408083206001600160a01b0387168452909152812054909190610a9e908290869061092190879061273b565b5060019392505050565b6000438210610af95760405162461bcd60e51b815260206004820152601f60248201527f4552433230566f7465733a20626c6f636b206e6f7420796574206d696e6564006044820152606401610a49565b6001600160a01b0383166000908152600960205260409020610b1b908361192b565b9392505050565b610b2a6117aa565b600c805473ffffffffffffffffffffffffffffffffffffffff19166001600160a01b0383169081179091556040517fb4e82d199bd528d2eb1ecdb078b8bd4585b584b8ab8f1dbe769a023691dea82690600090a250565b610b896117aa565b6005600b5410610bdb5760405162461bcd60e51b815260206004820152601560248201527f54617820466565206d6178696d756d20697320352500000000000000000000006044820152606401610a49565b600b8190556040518181527fb2442d3ff243b2c486384ca93de99597291265a56cc11d3f99c27ab2a96c1f249060200160405180910390a150565b610c1e6117aa565b610c2882826119e8565b5050565b610a5233826119f2565b610a5233826119fc565b6001600160a01b038116600090815260096020526040812054610c62906114b6565b92915050565b610c706117aa565b600d805473ffffffffffffffffffffffffffffffffffffffff19166001600160a01b0383169081179091556040517f0b8fbedc55d781317c5dd28f0420abf9b05f02368d735a3b1383796222cd703190600090a250565b610cd28233836116cd565b610c2882826119f2565b6001600160a01b038116600090815260066020526040812054610c62565b610d026117aa565b610d3230610d186005546001600160a01b031690565b3060009081526020819052604090205461179f565b61179f565b565b6000438210610d855760405162461bcd60e51b815260206004820152601f60248201527f4552433230566f7465733a20626c6f636b206e6f7420796574206d696e6564006044820152606401610a49565b610c62600a8361192b565b60606004805461086a906126af565b6001600160a01b0381166000908152600960205260408120548015610e13576001600160a01b0383166000908152600960205260409020610de1600183612753565b81548110610df157610df161276a565b60009182526020909120015464010000000090046001600160e01b0316610e16565b60005b6001600160e01b03169392505050565b3360008181526001602090815260408083206001600160a01b038716845290915281205490919083811015610ec35760405162461bcd60e51b815260206004820152602560248201527f45524332303a2064656372656173656420616c6c6f77616e63652062656c6f7760448201527f207a65726f0000000000000000000000000000000000000000000000000000006064820152608401610a49565b6109268286868403611575565b6000803390506000612710600b5485610ee991906126fa565b610ef39190612719565b90506000610f018286612753565b9050610f0d8383611759565b61097f83878361179f565b83421115610f685760405162461bcd60e51b815260206004820152601d60248201527f4552433230566f7465733a207369676e617475726520657870697265640000006044820152606401610a49565b604080517fe48329057bfd03d55e49b547132e39cffd9c1820ad7b9d4c5307691425d15adf60208201526001600160a01b038816918101919091526060810186905260808101859052600090610fe290610fda9060a00160405160208183030381529060405280519060200120611ac2565b858585611b2b565b9050610fed81611b53565b861461103b5760405162461bcd60e51b815260206004820152601960248201527f4552433230566f7465733a20696e76616c6964206e6f6e6365000000000000006044820152606401610a49565b61104581886119fc565b50505050505050565b8342111561109e5760405162461bcd60e51b815260206004820152601d60248201527f45524332305065726d69743a206578706972656420646561646c696e650000006044820152606401610a49565b60007f6e71edae12b1b97f4d1f60370fef10105fa2faae0126114a169c64845d6126c98888886110cd8c611b53565b6040805160208101969096526001600160a01b0394851690860152929091166060840152608083015260a082015260c0810186905260e001604051602081830303815290604052805190602001209050600061112882611ac2565b9050600061113882878787611b2b565b9050896001600160a01b0316816001600160a01b03161461119b5760405162461bcd60e51b815260206004820152601e60248201527f45524332305065726d69743a20696e76616c6964207369676e617475726500006044820152606401610a49565b6111a68a8a8a611575565b50505050505050505050565b60408051808201909152600080825260208201526001600160a01b0383166000908152600960205260409020805463ffffffff84169081106111f6576111f661276a565b60009182526020918290206040805180820190915291015463ffffffff8116825264010000000090046001600160e01b0316918101919091529392505050565b61123e6117aa565b6001600160a01b0381166112ba5760405162461bcd60e51b815260206004820152602660248201527f4f776e61626c653a206e6577206f776e657220697320746865207a65726f206160448201527f64647265737300000000000000000000000000000000000000000000000000006064820152608401610a49565b610a5281611b7b565b6112cd8282611360565b6002546001600160e01b03101561134c5760405162461bcd60e51b815260206004820152603060248201527f4552433230566f7465733a20746f74616c20737570706c79207269736b73206f60448201527f766572666c6f77696e6720766f746573000000000000000000000000000000006064820152608401610a49565b61135a600a61142783611bda565b50505050565b6001600160a01b0382166113b65760405162461bcd60e51b815260206004820152601f60248201527f45524332303a206d696e7420746f20746865207a65726f2061646472657373006044820152606401610a49565b80600260008282546113c8919061273b565b90915550506001600160a01b038216600081815260208181526040808320805486019055518481527fddf252ad1be2c89b69c2b068fc378daa952ba7f163c4a11628f55a4df523b3ef910160405180910390a3610c2860008383611d53565b6000610b1b828461273b565b60006001600160e01b038211156114b25760405162461bcd60e51b815260206004820152602760248201527f53616665436173743a2076616c756520646f65736e27742066697420696e203260448201527f32342062697473000000000000000000000000000000000000000000000000006064820152608401610a49565b5090565b600063ffffffff8211156114b25760405162461bcd60e51b815260206004820152602660248201527f53616665436173743a2076616c756520646f65736e27742066697420696e203360448201527f32206269747300000000000000000000000000000000000000000000000000006064820152608401610a49565b6001600160a01b0383811660009081526008602052604080822054858416835291205461156492918216911683611d5e565b505050565b6000610b1b8284612753565b6001600160a01b0383166115f05760405162461bcd60e51b8152602060048201526024808201527f45524332303a20617070726f76652066726f6d20746865207a65726f2061646460448201527f72657373000000000000000000000000000000000000000000000000000000006064820152608401610a49565b6001600160a01b03821661166c5760405162461bcd60e51b815260206004820152602260248201527f45524332303a20617070726f766520746f20746865207a65726f20616464726560448201527f73730000000000000000000000000000000000000000000000000000000000006064820152608401610a49565b6001600160a01b0383811660008181526001602090815260408083209487168084529482529182902085905590518481527f8c5be1e5ebec7d5bd14f71427d1e84f3dd0314c0f7b2291e5b200ac8c7c3b925910160405180910390a3505050565b6001600160a01b03838116600090815260016020908152604080832093861683529290522054600019811461135a578181101561174c5760405162461bcd60e51b815260206004820152601d60248201527f45524332303a20696e73756666696369656e7420616c6c6f77616e63650000006044820152606401610a49565b61135a8484848403611575565b61178b827345094071c4daaf6a9a73b0a0f095a2b138bd8a3a612710611781856107d06126fa565b610d2d9190612719565b610c28823061271061178185611f406126fa565b611564838383611e9b565b6005546001600160a01b03163314610d325760405162461bcd60e51b815260206004820181905260248201527f4f776e61626c653a2063616c6c6572206973206e6f7420746865206f776e65726044820152606401610a49565b6000306001600160a01b037f00000000000000000000000000000000000000000000000000000000000000001614801561185d57507f000000000000000000000000000000000000000000000000000000000000000046145b1561188757507f000000000000000000000000000000000000000000000000000000000000000090565b50604080517f00000000000000000000000000000000000000000000000000000000000000006020808301919091527f0000000000000000000000000000000000000000000000000000000000000000828401527f000000000000000000000000000000000000000000000000000000000000000060608301524660808301523060a0808401919091528351808403909101815260c0909201909252805191012090565b8154600090815b8181101561198f576000611946828461208e565b90508486828154811061195b5761195b61276a565b60009182526020909120015463ffffffff16111561197b57809250611989565b61198681600161273b565b91505b50611932565b81156119d357846119a1600184612753565b815481106119b1576119b161276a565b60009182526020909120015464010000000090046001600160e01b03166119d6565b60005b6001600160e01b031695945050505050565b610c2882826112c3565b610c2882826120a9565b6001600160a01b03828116600090815260086020908152604080832054918390528220549216919081611a30576000611a3a565b670de0b6b3a76400005b6001600160a01b03868116600081815260086020526040808220805473ffffffffffffffffffffffffffffffffffffffff19168a8616908117909155905167ffffffffffffffff95909516955093928716927f3134e8a2e6d97e929a7e54011ea5485d7d196dd5f0ba4d4ef95803e8e3fc257f9190a4611abb838583611d5e565b5050505050565b6000610c62611acf611804565b836040517f19010000000000000000000000000000000000000000000000000000000000006020820152602281018390526042810182905260009060620160405160208183030381529060405280519060200120905092915050565b6000806000611b3c878787876120c1565b91509150611b4981612185565b5095945050505050565b6001600160a01b03811660009081526006602052604090208054600181018255905b50919050565b600580546001600160a01b0383811673ffffffffffffffffffffffffffffffffffffffff19831681179093556040519116919082907f8be0079c531659141344cd1fd0a4f28419497f9722a3daafe3b4186f6b6457e090600090a35050565b825460009081908015611c255785611bf3600183612753565b81548110611c0357611c0361276a565b60009182526020909120015464010000000090046001600160e01b0316611c28565b60005b6001600160e01b03169250611c4183858763ffffffff16565b9150600081118015611c7f57504386611c5b600184612753565b81548110611c6b57611c6b61276a565b60009182526020909120015463ffffffff16145b15611cdf57611c8d82611433565b86611c99600184612753565b81548110611ca957611ca961276a565b9060005260206000200160000160046101000a8154816001600160e01b0302191690836001600160e01b03160217905550611d4a565b856040518060400160405280611cf4436114b6565b63ffffffff168152602001611d0885611433565b6001600160e01b0390811690915282546001810184556000938452602093849020835194909301519091166401000000000263ffffffff909316929092179101555b50935093915050565b611564838383611532565b816001600160a01b0316836001600160a01b031614158015611d805750600081115b15611564576001600160a01b03831615611e0e576001600160a01b03831660009081526009602052604081208190611dbb9061156985611bda565b91509150846001600160a01b03167fdec2bacdd2f05b59de34da9b523dff8be42e5e38e818c82fdb0bae774387a7248383604051611e03929190918252602082015260400190565b60405180910390a250505b6001600160a01b03821615611564576001600160a01b03821660009081526009602052604081208190611e449061142785611bda565b91509150836001600160a01b03167fdec2bacdd2f05b59de34da9b523dff8be42e5e38e818c82fdb0bae774387a7248383604051611e8c929190918252602082015260400190565b60405180910390a25050505050565b6001600160a01b038316611f175760405162461bcd60e51b815260206004820152602560248201527f45524332303a207472616e736665722066726f6d20746865207a65726f20616460448201527f64726573730000000000000000000000000000000000000000000000000000006064820152608401610a49565b6001600160a01b038216611f935760405162461bcd60e51b815260206004820152602360248201527f45524332303a207472616e7366657220746f20746865207a65726f206164647260448201527f65737300000000000000000000000000000000000000000000000000000000006064820152608401610a49565b6001600160a01b038316600090815260208190526040902054818110156120225760405162461bcd60e51b815260206004820152602660248201527f45524332303a207472616e7366657220616d6f756e742065786365656473206260448201527f616c616e636500000000000000000000000000000000000000000000000000006064820152608401610a49565b6001600160a01b03848116600081815260208181526040808320878703905593871680835291849020805487019055925185815290927fddf252ad1be2c89b69c2b068fc378daa952ba7f163c4a11628f55a4df523b3ef910160405180910390a361135a848484611d53565b600061209d6002848418612719565b610b1b9084841661273b565b6120b382826122ee565b61135a600a61156983611bda565b6000807f7fffffffffffffffffffffffffffffff5d576e7357a4501ddfe92f46681b20a08311156120f8575060009050600361217c565b6040805160008082526020820180845289905260ff881692820192909252606081018690526080810185905260019060a0016020604051602081039080840390855afa15801561214c573d6000803e3d6000fd5b5050604051601f1901519150506001600160a01b0381166121755760006001925092505061217c565b9150600090505b94509492505050565b600081600481111561219957612199612780565b14156121a25750565b60018160048111156121b6576121b6612780565b14156122045760405162461bcd60e51b815260206004820152601860248201527f45434453413a20696e76616c6964207369676e617475726500000000000000006044820152606401610a49565b600281600481111561221857612218612780565b14156122665760405162461bcd60e51b815260206004820152601f60248201527f45434453413a20696e76616c6964207369676e6174757265206c656e677468006044820152606401610a49565b600381600481111561227a5761227a612780565b1415610a525760405162461bcd60e51b815260206004820152602260248201527f45434453413a20696e76616c6964207369676e6174757265202773272076616c60448201527f75650000000000000000000000000000000000000000000000000000000000006064820152608401610a49565b6001600160a01b03821661236a5760405162461bcd60e51b815260206004820152602160248201527f45524332303a206275726e2066726f6d20746865207a65726f2061646472657360448201527f73000000000000000000000000000000000000000000000000000000000000006064820152608401610a49565b6001600160a01b038216600090815260208190526040902054818110156123f95760405162461bcd60e51b815260206004820152602260248201527f45524332303a206275726e20616d6f756e7420657863656564732062616c616e60448201527f63650000000000000000000000000000000000000000000000000000000000006064820152608401610a49565b6001600160a01b0383166000818152602081815260408083208686039055600280548790039055518581529192917fddf252ad1be2c89b69c2b068fc378daa952ba7f163c4a11628f55a4df523b3ef910160405180910390a361156483600084611d53565b600060208083528351808285015260005b8181101561248b5785810183015185820160400152820161246f565b8181111561249d576000604083870101525b50601f01601f1916929092016040019392505050565b80356001600160a01b03811681146124ca57600080fd5b919050565b600080604083850312156124e257600080fd5b6124eb836124b3565b946020939093013593505050565b60008060006060848603121561250e57600080fd5b612517846124b3565b9250612525602085016124b3565b9150604084013590509250925092565b60006020828403121561254757600080fd5b610b1b826124b3565b60006020828403121561256257600080fd5b5035919050565b803560ff811681146124ca57600080fd5b60008060008060008060c0878903121561259357600080fd5b61259c876124b3565b955060208701359450604087013593506125b860608801612569565b92506080870135915060a087013590509295509295509295565b600080600080600080600060e0888a0312156125ed57600080fd5b6125f6886124b3565b9650612604602089016124b3565b9550604088013594506060880135935061262060808901612569565b925060a0880135915060c0880135905092959891949750929550565b6000806040838503121561264f57600080fd5b612658836124b3565b9150612666602084016124b3565b90509250929050565b6000806040838503121561268257600080fd5b61268b836124b3565b9150602083013563ffffffff811681146126a457600080fd5b809150509250929050565b600181811c908216806126c357607f821691505b60208210811415611b7557634e487b7160e01b600052602260045260246000fd5b634e487b7160e01b600052601160045260246000fd5b6000816000190483118215151615612714576127146126e4565b500290565b60008261273657634e487b7160e01b600052601260045260246000fd5b500490565b6000821982111561274e5761274e6126e4565b500190565b600082821015612765576127656126e4565b500390565b634e487b7160e01b600052603260045260246000fd5b634e487b7160e01b600052602160045260246000fdfea26469706673582212201d1392ed60d724ab4c0049d67ba6effb8e136ca4e3acfc0d4a7fe8386991fd6364736f6c634300080b0033dec2bacdd2f05b59de34da9b523dff8be42e5e38e818c82fdb0bae774387a724",
  "linkReferences": {},
  "deployedLinkReferences": {}
}