{
  "_format": "hh-sol-artifact-1",
  "contractName": "Talaxeum",
  "sourceName": "contracts/ERC20/Talaxeum.sol",
  "abi": [
    {
      "inputs": [],
      "stateMutability": "nonpayable",
      "type": "constructor"
    },
    {
      "inputs": [],
      "name": "FailedToSendEther",
      "type": "error"
    },
    {
      "inputs": [
        {
          "internalType": "bytes32",
          "name": "tax",
          "type": "bytes32"
        }
      ],
      "name": "TaxLimitError",
      "type": "error"
    },
    {
      "anonymous": false,
      "inputs": [
        {
          "indexed": true,
          "internalType": "address",
          "name": "owner",
          "type": "address"
        },
        {
          "indexed": true,
          "internalType": "address",
          "name": "spender",
          "type": "address"
        },
        {
          "indexed": false,
          "internalType": "uint256",
          "name": "value",
          "type": "uint256"
        }
      ],
      "name": "Approval",
      "type": "event"
    },
    {
      "anonymous": false,
      "inputs": [
        {
          "indexed": true,
          "internalType": "address",
          "name": "advisor",
          "type": "address"
        }
      ],
      "name": "ChangeAdvisorAddress",
      "type": "event"
    },
    {
      "anonymous": false,
      "inputs": [
        {
          "indexed": true,
          "internalType": "address",
          "name": "platform",
          "type": "address"
        }
      ],
      "name": "ChangePlatformAddress",
      "type": "event"
    },
    {
      "anonymous": false,
      "inputs": [
        {
          "indexed": false,
          "internalType": "uint256",
          "name": "tax",
          "type": "uint256"
        }
      ],
      "name": "ChangeTaxPercentage",
      "type": "event"
    },
    {
      "anonymous": false,
      "inputs": [
        {
          "indexed": true,
          "internalType": "address",
          "name": "previousOwner",
          "type": "address"
        },
        {
          "indexed": true,
          "internalType": "address",
          "name": "newOwner",
          "type": "address"
        }
      ],
      "name": "OwnershipTransferred",
      "type": "event"
    },
    {
      "anonymous": false,
      "inputs": [
        {
          "indexed": true,
          "internalType": "address",
          "name": "from",
          "type": "address"
        },
        {
          "indexed": true,
          "internalType": "address",
          "name": "to",
          "type": "address"
        },
        {
          "indexed": false,
          "internalType": "uint256",
          "name": "value",
          "type": "uint256"
        }
      ],
      "name": "Transfer",
      "type": "event"
    },
    {
      "stateMutability": "payable",
      "type": "fallback"
    },
    {
      "inputs": [],
      "name": "advisor",
      "outputs": [
        {
          "internalType": "address",
          "name": "",
          "type": "address"
        }
      ],
      "stateMutability": "view",
      "type": "function"
    },
    {
      "inputs": [
        {
          "internalType": "address",
          "name": "owner",
          "type": "address"
        },
        {
          "internalType": "address",
          "name": "spender",
          "type": "address"
        }
      ],
      "name": "allowance",
      "outputs": [
        {
          "internalType": "uint256",
          "name": "",
          "type": "uint256"
        }
      ],
      "stateMutability": "view",
      "type": "function"
    },
    {
      "inputs": [
        {
          "internalType": "address",
          "name": "spender",
          "type": "address"
        },
        {
          "internalType": "uint256",
          "name": "amount",
          "type": "uint256"
        }
      ],
      "name": "approve",
      "outputs": [
        {
          "internalType": "bool",
          "name": "",
          "type": "bool"
        }
      ],
      "stateMutability": "nonpayable",
      "type": "function"
    },
    {
      "inputs": [
        {
          "internalType": "address",
          "name": "account",
          "type": "address"
        }
      ],
      "name": "balanceOf",
      "outputs": [
        {
          "internalType": "uint256",
          "name": "",
          "type": "uint256"
        }
      ],
      "stateMutability": "view",
      "type": "function"
    },
    {
      "inputs": [
        {
          "internalType": "uint256",
          "name": "amount",
          "type": "uint256"
        }
      ],
      "name": "burn",
      "outputs": [],
      "stateMutability": "nonpayable",
      "type": "function"
    },
    {
      "inputs": [
        {
          "internalType": "address",
          "name": "account",
          "type": "address"
        },
        {
          "internalType": "uint256",
          "name": "amount",
          "type": "uint256"
        }
      ],
      "name": "burnFrom",
      "outputs": [],
      "stateMutability": "nonpayable",
      "type": "function"
    },
    {
      "inputs": [
        {
          "internalType": "address",
          "name": "newAddress",
          "type": "address"
        }
      ],
      "name": "changeAdvisor",
      "outputs": [],
      "stateMutability": "nonpayable",
      "type": "function"
    },
    {
      "inputs": [
        {
          "internalType": "address",
          "name": "newAddress",
          "type": "address"
        }
      ],
      "name": "changePlatform",
      "outputs": [],
      "stateMutability": "nonpayable",
      "type": "function"
    },
    {
      "inputs": [
        {
          "internalType": "uint256",
          "name": "tax",
          "type": "uint256"
        }
      ],
      "name": "changeTax",
      "outputs": [],
      "stateMutability": "nonpayable",
      "type": "function"
    },
    {
      "inputs": [],
      "name": "daoPool",
      "outputs": [
        {
          "internalType": "address",
          "name": "",
          "type": "address"
        }
      ],
      "stateMutability": "pure",
      "type": "function"
    },
    {
      "inputs": [],
      "name": "decimals",
      "outputs": [
        {
          "internalType": "uint8",
          "name": "",
          "type": "uint8"
        }
      ],
      "stateMutability": "view",
      "type": "function"
    },
    {
      "inputs": [
        {
          "internalType": "address",
          "name": "spender",
          "type": "address"
        },
        {
          "internalType": "uint256",
          "name": "subtractedValue",
          "type": "uint256"
        }
      ],
      "name": "decreaseAllowance",
      "outputs": [
        {
          "internalType": "bool",
          "name": "",
          "type": "bool"
        }
      ],
      "stateMutability": "nonpayable",
      "type": "function"
    },
    {
      "inputs": [],
      "name": "getBalance",
      "outputs": [
        {
          "internalType": "uint256",
          "name": "",
          "type": "uint256"
        }
      ],
      "stateMutability": "view",
      "type": "function"
    },
    {
      "inputs": [
        {
          "internalType": "address",
          "name": "spender",
          "type": "address"
        },
        {
          "internalType": "uint256",
          "name": "addedValue",
          "type": "uint256"
        }
      ],
      "name": "increaseAllowance",
      "outputs": [
        {
          "internalType": "bool",
          "name": "",
          "type": "bool"
        }
      ],
      "stateMutability": "nonpayable",
      "type": "function"
    },
    {
      "inputs": [],
      "name": "marketing",
      "outputs": [
        {
          "internalType": "address",
          "name": "",
          "type": "address"
        }
      ],
      "stateMutability": "pure",
      "type": "function"
    },
    {
      "inputs": [
        {
          "internalType": "address",
          "name": "to",
          "type": "address"
        },
        {
          "internalType": "uint256",
          "name": "amount",
          "type": "uint256"
        }
      ],
      "name": "mint",
      "outputs": [],
      "stateMutability": "nonpayable",
      "type": "function"
    },
    {
      "inputs": [],
      "name": "name",
      "outputs": [
        {
          "internalType": "string",
          "name": "",
          "type": "string"
        }
      ],
      "stateMutability": "view",
      "type": "function"
    },
    {
      "inputs": [],
      "name": "owner",
      "outputs": [
        {
          "internalType": "address",
          "name": "",
          "type": "address"
        }
      ],
      "stateMutability": "view",
      "type": "function"
    },
    {
      "inputs": [],
      "name": "platform",
      "outputs": [
        {
          "internalType": "address",
          "name": "",
          "type": "address"
        }
      ],
      "stateMutability": "view",
      "type": "function"
    },
    {
      "inputs": [],
      "name": "publicSale",
      "outputs": [
        {
          "internalType": "address",
          "name": "",
          "type": "address"
        }
      ],
      "stateMutability": "pure",
      "type": "function"
    },
    {
      "inputs": [],
      "name": "renounceOwnership",
      "outputs": [],
      "stateMutability": "nonpayable",
      "type": "function"
    },
    {
      "inputs": [],
      "name": "stakingReward",
      "outputs": [
        {
          "internalType": "address",
          "name": "",
          "type": "address"
        }
      ],
      "stateMutability": "pure",
      "type": "function"
    },
    {
      "inputs": [],
      "name": "symbol",
      "outputs": [
        {
          "internalType": "string",
          "name": "",
          "type": "string"
        }
      ],
      "stateMutability": "view",
      "type": "function"
    },
    {
      "inputs": [],
      "name": "taxRate",
      "outputs": [
        {
          "internalType": "uint256",
          "name": "",
          "type": "uint256"
        }
      ],
      "stateMutability": "view",
      "type": "function"
    },
    {
      "inputs": [],
      "name": "teamAndProjectCoordinator",
      "outputs": [
        {
          "internalType": "address",
          "name": "",
          "type": "address"
        }
      ],
      "stateMutability": "pure",
      "type": "function"
    },
    {
      "inputs": [],
      "name": "totalSupply",
      "outputs": [
        {
          "internalType": "uint256",
          "name": "",
          "type": "uint256"
        }
      ],
      "stateMutability": "view",
      "type": "function"
    },
    {
      "inputs": [
        {
          "internalType": "address",
          "name": "to",
          "type": "address"
        },
        {
          "internalType": "uint256",
          "name": "amount",
          "type": "uint256"
        }
      ],
      "name": "transfer",
      "outputs": [
        {
          "internalType": "bool",
          "name": "",
          "type": "bool"
        }
      ],
      "stateMutability": "nonpayable",
      "type": "function"
    },
    {
      "inputs": [
        {
          "internalType": "address",
          "name": "from",
          "type": "address"
        },
        {
          "internalType": "address",
          "name": "to",
          "type": "address"
        },
        {
          "internalType": "uint256",
          "name": "amount",
          "type": "uint256"
        }
      ],
      "name": "transferFrom",
      "outputs": [
        {
          "internalType": "bool",
          "name": "",
          "type": "bool"
        }
      ],
      "stateMutability": "nonpayable",
      "type": "function"
    },
    {
      "inputs": [
        {
          "internalType": "address",
          "name": "newOwner",
          "type": "address"
        }
      ],
      "name": "transferOwnership",
      "outputs": [],
      "stateMutability": "nonpayable",
      "type": "function"
    },
    {
      "inputs": [],
      "name": "withdrawFunds",
      "outputs": [],
      "stateMutability": "nonpayable",
      "type": "function"
    },
    {
      "inputs": [],
      "name": "withdrawTalax",
      "outputs": [],
      "stateMutability": "nonpayable",
      "type": "function"
    },
    {
      "stateMutability": "payable",
      "type": "receive"
    }
  ],
  "bytecode": "0x60806040526064600655600780546001600160a01b03199081169091556008805490911690553480156200003257600080fd5b506040518060400160405280600881526020016754616c617865756d60c01b815250604051806040016040528060058152602001640a8829882b60db1b8152508160039081620000839190620002a4565b506004620000928282620002a4565b505050620000af620000a9620000df60201b60201c565b620000e3565b620000d933620000c26012600a62000485565b620000d3906404e3b292006200049d565b62000135565b620004cd565b3390565b600580546001600160a01b038381166001600160a01b0319831681179093556040519116919082907f8be0079c531659141344cd1fd0a4f28419497f9722a3daafe3b4186f6b6457e090600090a35050565b6001600160a01b038216620001905760405162461bcd60e51b815260206004820152601f60248201527f45524332303a206d696e7420746f20746865207a65726f206164647265737300604482015260640160405180910390fd5b8060026000828254620001a49190620004b7565b90915550506001600160a01b038216600081815260208181526040808320805486019055518481527fddf252ad1be2c89b69c2b068fc378daa952ba7f163c4a11628f55a4df523b3ef910160405180910390a35050565b505050565b634e487b7160e01b600052604160045260246000fd5b600181811c908216806200022b57607f821691505b6020821081036200024c57634e487b7160e01b600052602260045260246000fd5b50919050565b601f821115620001fb57600081815260208120601f850160051c810160208610156200027b5750805b601f850160051c820191505b818110156200029c5782815560010162000287565b505050505050565b81516001600160401b03811115620002c057620002c062000200565b620002d881620002d1845462000216565b8462000252565b602080601f831160018114620003105760008415620002f75750858301515b600019600386901b1c1916600185901b1785556200029c565b600085815260208120601f198616915b82811015620003415788860151825594840194600190910190840162000320565b5085821015620003605787850151600019600388901b60f8161c191681555b5050505050600190811b01905550565b634e487b7160e01b600052601160045260246000fd5b600181815b80851115620003c7578160001904821115620003ab57620003ab62000370565b80851615620003b957918102915b93841c93908002906200038b565b509250929050565b600082620003e0575060016200047f565b81620003ef575060006200047f565b8160018114620004085760028114620004135762000433565b60019150506200047f565b60ff84111562000427576200042762000370565b50506001821b6200047f565b5060208310610133831016604e8410600b841016171562000458575081810a6200047f565b62000464838362000386565b80600019048211156200047b576200047b62000370565b0290505b92915050565b60006200049660ff841683620003cf565b9392505050565b80820281158282048414176200047f576200047f62000370565b808201808211156200047f576200047f62000370565b6114b880620004dd6000396000f3fe6080604052600436106101c45760003560e01c806340c10f19116100f657806388f187731161008f578063a542cd8411610061578063a542cd8414610540578063a9059cbb14610567578063dd62ed3e14610587578063f2fde38b146105cd57005b806388f18773146104d85780638da5cb5b146104ed57806395d89b411461050b578063a457c2d71461052057005b8063715018a6116100c8578063715018a61461046d578063753d93e414610482578063771a3a1d146104a257806379cc6790146104b857005b806340c10f19146103d757806342966c68146103f75780634bde38c81461041757806370a082311461043757005b806324600fc31161016857806333e0ff5d1161013a57806333e0ff5d1461035057806339509351146103775780633b1663be146103975780633e45c8af146103b757005b806324600fc3146102d15780632d3e474a146102e6578063313ce5671461030d57806333bc1c5c1461032957005b806312065fe0116101a157806312065fe01461025f57806318160ddd1461027c5780631936e4be1461029157806323b872dd146102b157005b8063042249bb146101cd57806306fdde031461020d578063095ea7b31461022f57005b366101cb57005b005b3480156101d957600080fd5b50732f838cf0df38b2e91e747a01ddae5ebad5558b7a5b6040516001600160a01b0390911681526020015b60405180910390f35b34801561021957600080fd5b506102226105ed565b6040516102049190611295565b34801561023b57600080fd5b5061024f61024a3660046112ff565b61067f565b6040519015158152602001610204565b34801561026b57600080fd5b50475b604051908152602001610204565b34801561028857600080fd5b5060025461026e565b34801561029d57600080fd5b506007546101f0906001600160a01b031681565b3480156102bd57600080fd5b5061024f6102cc366004611329565b6106c5565b3480156102dd57600080fd5b506101cb61071f565b3480156102f257600080fd5b5073f09f65dd4d229e991901669ad7c7549f060e30b96101f0565b34801561031957600080fd5b5060405160128152602001610204565b34801561033557600080fd5b50735470c8ff25ec05980fc7c2967d076b8012298fe76101f0565b34801561035c57600080fd5b507375837e79215250c45331b92c35b7be506ed015ac6101f0565b34801561038357600080fd5b5061024f6103923660046112ff565b6107ce565b3480156103a357600080fd5b506101cb6103b2366004611365565b610812565b3480156103c357600080fd5b506101cb6103d2366004611387565b610871565b3480156103e357600080fd5b506101cb6103f23660046112ff565b610919565b34801561040357600080fd5b506101cb610412366004611387565b61092f565b34801561042357600080fd5b506008546101f0906001600160a01b031681565b34801561044357600080fd5b5061026e610452366004611365565b6001600160a01b031660009081526020819052604090205490565b34801561047957600080fd5b506101cb610939565b34801561048e57600080fd5b506101cb61049d366004611365565b61094d565b3480156104ae57600080fd5b5061026e60065481565b3480156104c457600080fd5b506101cb6104d33660046112ff565b6109ac565b3480156104e457600080fd5b506101cb6109c1565b3480156104f957600080fd5b506005546001600160a01b03166101f0565b34801561051757600080fd5b506102226109f9565b34801561052c57600080fd5b5061024f61053b3660046112ff565b610a08565b34801561054c57600080fd5b507345094071c4daaf6a9a73b0a0f095a2b138bd8a3a6101f0565b34801561057357600080fd5b5061024f6105823660046112ff565b610ab2565b34801561059357600080fd5b5061026e6105a23660046113a0565b6001600160a01b03918216600090815260016020908152604080832093909416825291909152205490565b3480156105d957600080fd5b506101cb6105e8366004611365565b610afa565b6060600380546105fc906113d3565b80601f0160208091040260200160405190810160405280929190818152602001828054610628906113d3565b80156106755780601f1061064a57610100808354040283529160200191610675565b820191906000526020600020905b81548152906001019060200180831161065857829003601f168201915b5050505050905090565b6000803390506000612710600654856106989190611423565b6106a2919061143a565b90506106b882866106b3848861145c565b610b87565b6001925050505b92915050565b6000803390506000612710600654856106de9190611423565b6106e8919061143a565b90506106fe86836106f9848861145c565b610cdf565b6107088682610d71565b610713868686610db7565b50600195945050505050565b610727610dc7565b600061073b6005546001600160a01b031690565b6001600160a01b03164760405160006040518083038185875af1925050503d8060008114610785576040519150601f19603f3d011682016040523d82523d6000602084013e61078a565b606091505b50909150506001811515146107cb576040517fdcf35db000000000000000000000000000000000000000000000000000000000815260040160405180910390fd5b50565b3360008181526001602090815260408083206001600160a01b038716845290915281205490919061080890829086906106b390879061145c565b5060019392505050565b61081a610dc7565b6007805473ffffffffffffffffffffffffffffffffffffffff19166001600160a01b0383169081179091556040517fb4e82d199bd528d2eb1ecdb078b8bd4585b584b8ab8f1dbe769a023691dea82690600090a250565b610879610dc7565b6101f460065411156108de576040517f3a903be70000000000000000000000000000000000000000000000000000000081527f352500000000000000000000000000000000000000000000000000000000000060048201526024015b60405180910390fd5b60068190556040518181527fb2442d3ff243b2c486384ca93de99597291265a56cc11d3f99c27ab2a96c1f249060200160405180910390a150565b610921610dc7565b61092b8282610e21565b5050565b6107cb3382610ee0565b610941610dc7565b61094b6000611049565b565b610955610dc7565b6008805473ffffffffffffffffffffffffffffffffffffffff19166001600160a01b0383169081179091556040517f0b8fbedc55d781317c5dd28f0420abf9b05f02368d735a3b1383796222cd703190600090a250565b6109b7823383610cdf565b61092b8282610ee0565b6109c9610dc7565b61094b306109df6005546001600160a01b031690565b30600090815260208190526040902054610db7565b610db7565b6060600480546105fc906113d3565b3360008181526001602090815260408083206001600160a01b038716845290915281205490919083811015610aa55760405162461bcd60e51b815260206004820152602560248201527f45524332303a2064656372656173656420616c6c6f77616e63652062656c6f7760448201527f207a65726f00000000000000000000000000000000000000000000000000000060648201526084016108d5565b6106b88286868403610b87565b600080339050600061271060065485610acb9190611423565b610ad5919061143a565b90506000610ae3828661146f565b9050610aef8383610d71565b610713838783610db7565b610b02610dc7565b6001600160a01b038116610b7e5760405162461bcd60e51b815260206004820152602660248201527f4f776e61626c653a206e6577206f776e657220697320746865207a65726f206160448201527f646472657373000000000000000000000000000000000000000000000000000060648201526084016108d5565b6107cb81611049565b6001600160a01b038316610c025760405162461bcd60e51b8152602060048201526024808201527f45524332303a20617070726f76652066726f6d20746865207a65726f2061646460448201527f726573730000000000000000000000000000000000000000000000000000000060648201526084016108d5565b6001600160a01b038216610c7e5760405162461bcd60e51b815260206004820152602260248201527f45524332303a20617070726f766520746f20746865207a65726f20616464726560448201527f737300000000000000000000000000000000000000000000000000000000000060648201526084016108d5565b6001600160a01b0383811660008181526001602090815260408083209487168084529482529182902085905590518481527f8c5be1e5ebec7d5bd14f71427d1e84f3dd0314c0f7b2291e5b200ac8c7c3b925910160405180910390a3505050565b6001600160a01b038381166000908152600160209081526040808320938616835292905220546000198114610d6b5781811015610d5e5760405162461bcd60e51b815260206004820152601d60248201527f45524332303a20696e73756666696369656e7420616c6c6f77616e636500000060448201526064016108d5565b610d6b8484848403610b87565b50505050565b610da3827345094071c4daaf6a9a73b0a0f095a2b138bd8a3a612710610d99856107d0611423565b6109f4919061143a565b61092b8230612710610d9985611f40611423565b610dc28383836110a8565b505050565b6005546001600160a01b0316331461094b5760405162461bcd60e51b815260206004820181905260248201527f4f776e61626c653a2063616c6c6572206973206e6f7420746865206f776e657260448201526064016108d5565b6001600160a01b038216610e775760405162461bcd60e51b815260206004820152601f60248201527f45524332303a206d696e7420746f20746865207a65726f20616464726573730060448201526064016108d5565b8060026000828254610e89919061145c565b90915550506001600160a01b038216600081815260208181526040808320805486019055518481527fddf252ad1be2c89b69c2b068fc378daa952ba7f163c4a11628f55a4df523b3ef910160405180910390a35050565b6001600160a01b038216610f5c5760405162461bcd60e51b815260206004820152602160248201527f45524332303a206275726e2066726f6d20746865207a65726f2061646472657360448201527f730000000000000000000000000000000000000000000000000000000000000060648201526084016108d5565b6001600160a01b03821660009081526020819052604090205481811015610feb5760405162461bcd60e51b815260206004820152602260248201527f45524332303a206275726e20616d6f756e7420657863656564732062616c616e60448201527f636500000000000000000000000000000000000000000000000000000000000060648201526084016108d5565b6001600160a01b0383166000818152602081815260408083208686039055600280548790039055518581529192917fddf252ad1be2c89b69c2b068fc378daa952ba7f163c4a11628f55a4df523b3ef910160405180910390a3505050565b600580546001600160a01b0383811673ffffffffffffffffffffffffffffffffffffffff19831681179093556040519116919082907f8be0079c531659141344cd1fd0a4f28419497f9722a3daafe3b4186f6b6457e090600090a35050565b6001600160a01b0383166111245760405162461bcd60e51b815260206004820152602560248201527f45524332303a207472616e736665722066726f6d20746865207a65726f20616460448201527f647265737300000000000000000000000000000000000000000000000000000060648201526084016108d5565b6001600160a01b0382166111a05760405162461bcd60e51b815260206004820152602360248201527f45524332303a207472616e7366657220746f20746865207a65726f206164647260448201527f657373000000000000000000000000000000000000000000000000000000000060648201526084016108d5565b6001600160a01b0383166000908152602081905260409020548181101561122f5760405162461bcd60e51b815260206004820152602660248201527f45524332303a207472616e7366657220616d6f756e742065786365656473206260448201527f616c616e6365000000000000000000000000000000000000000000000000000060648201526084016108d5565b6001600160a01b03848116600081815260208181526040808320878703905593871680835291849020805487019055925185815290927fddf252ad1be2c89b69c2b068fc378daa952ba7f163c4a11628f55a4df523b3ef910160405180910390a3610d6b565b600060208083528351808285015260005b818110156112c2578581018301518582016040015282016112a6565b506000604082860101526040601f19601f8301168501019250505092915050565b80356001600160a01b03811681146112fa57600080fd5b919050565b6000806040838503121561131257600080fd5b61131b836112e3565b946020939093013593505050565b60008060006060848603121561133e57600080fd5b611347846112e3565b9250611355602085016112e3565b9150604084013590509250925092565b60006020828403121561137757600080fd5b611380826112e3565b9392505050565b60006020828403121561139957600080fd5b5035919050565b600080604083850312156113b357600080fd5b6113bc836112e3565b91506113ca602084016112e3565b90509250929050565b600181811c908216806113e757607f821691505b60208210810361140757634e487b7160e01b600052602260045260246000fd5b50919050565b634e487b7160e01b600052601160045260246000fd5b80820281158282048414176106bf576106bf61140d565b60008261145757634e487b7160e01b600052601260045260246000fd5b500490565b808201808211156106bf576106bf61140d565b818103818111156106bf576106bf61140d56fea2646970667358221220d88de371e29dbe3e7a29d60e538f69af33f86150a4beca26c2caa7cbf096231364736f6c63430008110033",
  "linkReferences": {},
  "deployedLinkReferences": {}
}