{
  "_format": "hh-sol-artifact-1",
  "contractName": "Talaxeum",
  "sourceName": "contracts/ERC20/Talaxeum.sol",
  "abi": [
    {
      "inputs": [],
      "stateMutability": "nonpayable",
      "type": "constructor"
    },
    {
      "anonymous": false,
      "inputs": [
        {
          "indexed": true,
          "internalType": "address",
          "name": "owner",
          "type": "address"
        },
        {
          "indexed": true,
          "internalType": "address",
          "name": "spender",
          "type": "address"
        },
        {
          "indexed": false,
          "internalType": "uint256",
          "name": "value",
          "type": "uint256"
        }
      ],
      "name": "Approval",
      "type": "event"
    },
    {
      "anonymous": false,
      "inputs": [
        {
          "indexed": false,
          "internalType": "uint256",
          "name": "tax",
          "type": "uint256"
        }
      ],
      "name": "ChangeTaxPercentage",
      "type": "event"
    },
    {
      "anonymous": false,
      "inputs": [
        {
          "indexed": true,
          "internalType": "address",
          "name": "delegator",
          "type": "address"
        },
        {
          "indexed": true,
          "internalType": "address",
          "name": "fromDelegate",
          "type": "address"
        },
        {
          "indexed": true,
          "internalType": "address",
          "name": "toDelegate",
          "type": "address"
        }
      ],
      "name": "DelegateChanged",
      "type": "event"
    },
    {
      "anonymous": false,
      "inputs": [
        {
          "indexed": true,
          "internalType": "address",
          "name": "delegate",
          "type": "address"
        },
        {
          "indexed": false,
          "internalType": "uint256",
          "name": "previousBalance",
          "type": "uint256"
        },
        {
          "indexed": false,
          "internalType": "uint256",
          "name": "newBalance",
          "type": "uint256"
        }
      ],
      "name": "DelegateVotesChanged",
      "type": "event"
    },
    {
      "anonymous": false,
      "inputs": [
        {
          "indexed": true,
          "internalType": "address",
          "name": "previousOwner",
          "type": "address"
        },
        {
          "indexed": true,
          "internalType": "address",
          "name": "newOwner",
          "type": "address"
        }
      ],
      "name": "OwnershipTransferred",
      "type": "event"
    },
    {
      "anonymous": false,
      "inputs": [
        {
          "indexed": true,
          "internalType": "address",
          "name": "from",
          "type": "address"
        },
        {
          "indexed": true,
          "internalType": "address",
          "name": "to",
          "type": "address"
        },
        {
          "indexed": false,
          "internalType": "uint256",
          "name": "value",
          "type": "uint256"
        }
      ],
      "name": "Transfer",
      "type": "event"
    },
    {
      "stateMutability": "payable",
      "type": "fallback"
    },
    {
      "inputs": [],
      "name": "DOMAIN_SEPARATOR",
      "outputs": [
        {
          "internalType": "bytes32",
          "name": "",
          "type": "bytes32"
        }
      ],
      "stateMutability": "view",
      "type": "function"
    },
    {
      "inputs": [
        {
          "internalType": "address",
          "name": "owner",
          "type": "address"
        },
        {
          "internalType": "address",
          "name": "spender",
          "type": "address"
        }
      ],
      "name": "allowance",
      "outputs": [
        {
          "internalType": "uint256",
          "name": "",
          "type": "uint256"
        }
      ],
      "stateMutability": "view",
      "type": "function"
    },
    {
      "inputs": [
        {
          "internalType": "address",
          "name": "spender",
          "type": "address"
        },
        {
          "internalType": "uint256",
          "name": "amount",
          "type": "uint256"
        }
      ],
      "name": "approve",
      "outputs": [
        {
          "internalType": "bool",
          "name": "",
          "type": "bool"
        }
      ],
      "stateMutability": "nonpayable",
      "type": "function"
    },
    {
      "inputs": [
        {
          "internalType": "address",
          "name": "account",
          "type": "address"
        }
      ],
      "name": "balanceOf",
      "outputs": [
        {
          "internalType": "uint256",
          "name": "",
          "type": "uint256"
        }
      ],
      "stateMutability": "view",
      "type": "function"
    },
    {
      "inputs": [
        {
          "internalType": "uint256",
          "name": "amount",
          "type": "uint256"
        }
      ],
      "name": "burn",
      "outputs": [],
      "stateMutability": "nonpayable",
      "type": "function"
    },
    {
      "inputs": [
        {
          "internalType": "address",
          "name": "account",
          "type": "address"
        },
        {
          "internalType": "uint256",
          "name": "amount",
          "type": "uint256"
        }
      ],
      "name": "burnFrom",
      "outputs": [],
      "stateMutability": "nonpayable",
      "type": "function"
    },
    {
      "inputs": [
        {
          "internalType": "uint256",
          "name": "tax",
          "type": "uint256"
        }
      ],
      "name": "changeTax",
      "outputs": [],
      "stateMutability": "nonpayable",
      "type": "function"
    },
    {
      "inputs": [
        {
          "internalType": "address",
          "name": "account",
          "type": "address"
        },
        {
          "internalType": "uint32",
          "name": "pos",
          "type": "uint32"
        }
      ],
      "name": "checkpoints",
      "outputs": [
        {
          "components": [
            {
              "internalType": "uint32",
              "name": "fromBlock",
              "type": "uint32"
            },
            {
              "internalType": "uint224",
              "name": "votes",
              "type": "uint224"
            }
          ],
          "internalType": "struct ERC20Votes.Checkpoint",
          "name": "",
          "type": "tuple"
        }
      ],
      "stateMutability": "view",
      "type": "function"
    },
    {
      "inputs": [],
      "name": "decimals",
      "outputs": [
        {
          "internalType": "uint8",
          "name": "",
          "type": "uint8"
        }
      ],
      "stateMutability": "view",
      "type": "function"
    },
    {
      "inputs": [
        {
          "internalType": "address",
          "name": "spender",
          "type": "address"
        },
        {
          "internalType": "uint256",
          "name": "subtractedValue",
          "type": "uint256"
        }
      ],
      "name": "decreaseAllowance",
      "outputs": [
        {
          "internalType": "bool",
          "name": "",
          "type": "bool"
        }
      ],
      "stateMutability": "nonpayable",
      "type": "function"
    },
    {
      "inputs": [
        {
          "internalType": "address",
          "name": "delegatee",
          "type": "address"
        }
      ],
      "name": "delegate",
      "outputs": [],
      "stateMutability": "nonpayable",
      "type": "function"
    },
    {
      "inputs": [
        {
          "internalType": "address",
          "name": "delegatee",
          "type": "address"
        },
        {
          "internalType": "uint256",
          "name": "nonce",
          "type": "uint256"
        },
        {
          "internalType": "uint256",
          "name": "expiry",
          "type": "uint256"
        },
        {
          "internalType": "uint8",
          "name": "v",
          "type": "uint8"
        },
        {
          "internalType": "bytes32",
          "name": "r",
          "type": "bytes32"
        },
        {
          "internalType": "bytes32",
          "name": "s",
          "type": "bytes32"
        }
      ],
      "name": "delegateBySig",
      "outputs": [],
      "stateMutability": "nonpayable",
      "type": "function"
    },
    {
      "inputs": [
        {
          "internalType": "address",
          "name": "account",
          "type": "address"
        }
      ],
      "name": "delegates",
      "outputs": [
        {
          "internalType": "address",
          "name": "",
          "type": "address"
        }
      ],
      "stateMutability": "view",
      "type": "function"
    },
    {
      "inputs": [],
      "name": "getBalance",
      "outputs": [
        {
          "internalType": "uint256",
          "name": "",
          "type": "uint256"
        }
      ],
      "stateMutability": "view",
      "type": "function"
    },
    {
      "inputs": [
        {
          "internalType": "uint256",
          "name": "blockNumber",
          "type": "uint256"
        }
      ],
      "name": "getPastTotalSupply",
      "outputs": [
        {
          "internalType": "uint256",
          "name": "",
          "type": "uint256"
        }
      ],
      "stateMutability": "view",
      "type": "function"
    },
    {
      "inputs": [
        {
          "internalType": "address",
          "name": "account",
          "type": "address"
        },
        {
          "internalType": "uint256",
          "name": "blockNumber",
          "type": "uint256"
        }
      ],
      "name": "getPastVotes",
      "outputs": [
        {
          "internalType": "uint256",
          "name": "",
          "type": "uint256"
        }
      ],
      "stateMutability": "view",
      "type": "function"
    },
    {
      "inputs": [
        {
          "internalType": "address",
          "name": "account",
          "type": "address"
        }
      ],
      "name": "getVotes",
      "outputs": [
        {
          "internalType": "uint256",
          "name": "",
          "type": "uint256"
        }
      ],
      "stateMutability": "view",
      "type": "function"
    },
    {
      "inputs": [
        {
          "internalType": "address",
          "name": "spender",
          "type": "address"
        },
        {
          "internalType": "uint256",
          "name": "addedValue",
          "type": "uint256"
        }
      ],
      "name": "increaseAllowance",
      "outputs": [
        {
          "internalType": "bool",
          "name": "",
          "type": "bool"
        }
      ],
      "stateMutability": "nonpayable",
      "type": "function"
    },
    {
      "inputs": [
        {
          "internalType": "address",
          "name": "to",
          "type": "address"
        },
        {
          "internalType": "uint256",
          "name": "amount",
          "type": "uint256"
        }
      ],
      "name": "mint",
      "outputs": [],
      "stateMutability": "nonpayable",
      "type": "function"
    },
    {
      "inputs": [],
      "name": "name",
      "outputs": [
        {
          "internalType": "string",
          "name": "",
          "type": "string"
        }
      ],
      "stateMutability": "view",
      "type": "function"
    },
    {
      "inputs": [
        {
          "internalType": "address",
          "name": "owner",
          "type": "address"
        }
      ],
      "name": "nonces",
      "outputs": [
        {
          "internalType": "uint256",
          "name": "",
          "type": "uint256"
        }
      ],
      "stateMutability": "view",
      "type": "function"
    },
    {
      "inputs": [
        {
          "internalType": "address",
          "name": "account",
          "type": "address"
        }
      ],
      "name": "numCheckpoints",
      "outputs": [
        {
          "internalType": "uint32",
          "name": "",
          "type": "uint32"
        }
      ],
      "stateMutability": "view",
      "type": "function"
    },
    {
      "inputs": [],
      "name": "owner",
      "outputs": [
        {
          "internalType": "address",
          "name": "",
          "type": "address"
        }
      ],
      "stateMutability": "view",
      "type": "function"
    },
    {
      "inputs": [
        {
          "internalType": "address",
          "name": "owner",
          "type": "address"
        },
        {
          "internalType": "address",
          "name": "spender",
          "type": "address"
        },
        {
          "internalType": "uint256",
          "name": "value",
          "type": "uint256"
        },
        {
          "internalType": "uint256",
          "name": "deadline",
          "type": "uint256"
        },
        {
          "internalType": "uint8",
          "name": "v",
          "type": "uint8"
        },
        {
          "internalType": "bytes32",
          "name": "r",
          "type": "bytes32"
        },
        {
          "internalType": "bytes32",
          "name": "s",
          "type": "bytes32"
        }
      ],
      "name": "permit",
      "outputs": [],
      "stateMutability": "nonpayable",
      "type": "function"
    },
    {
      "inputs": [],
      "name": "renounceOwnership",
      "outputs": [],
      "stateMutability": "nonpayable",
      "type": "function"
    },
    {
      "inputs": [],
      "name": "symbol",
      "outputs": [
        {
          "internalType": "string",
          "name": "",
          "type": "string"
        }
      ],
      "stateMutability": "view",
      "type": "function"
    },
    {
      "inputs": [],
      "name": "totalSupply",
      "outputs": [
        {
          "internalType": "uint256",
          "name": "",
          "type": "uint256"
        }
      ],
      "stateMutability": "view",
      "type": "function"
    },
    {
      "inputs": [
        {
          "internalType": "address",
          "name": "to",
          "type": "address"
        },
        {
          "internalType": "uint256",
          "name": "amount",
          "type": "uint256"
        }
      ],
      "name": "transfer",
      "outputs": [
        {
          "internalType": "bool",
          "name": "",
          "type": "bool"
        }
      ],
      "stateMutability": "nonpayable",
      "type": "function"
    },
    {
      "inputs": [
        {
          "internalType": "address",
          "name": "from",
          "type": "address"
        },
        {
          "internalType": "address",
          "name": "to",
          "type": "address"
        },
        {
          "internalType": "uint256",
          "name": "amount",
          "type": "uint256"
        }
      ],
      "name": "transferFrom",
      "outputs": [
        {
          "internalType": "bool",
          "name": "",
          "type": "bool"
        }
      ],
      "stateMutability": "nonpayable",
      "type": "function"
    },
    {
      "inputs": [
        {
          "internalType": "address",
          "name": "newOwner",
          "type": "address"
        }
      ],
      "name": "transferOwnership",
      "outputs": [],
      "stateMutability": "nonpayable",
      "type": "function"
    },
    {
      "inputs": [],
      "name": "withdrawFunds",
      "outputs": [],
      "stateMutability": "nonpayable",
      "type": "function"
    },
    {
      "inputs": [
        {
          "internalType": "address",
          "name": "token",
          "type": "address"
        }
      ],
      "name": "withdrawFunds",
      "outputs": [],
      "stateMutability": "nonpayable",
      "type": "function"
    },
    {
      "stateMutability": "payable",
      "type": "receive"
    }
  ],
  "bytecode": "0x6101406040526001600b553480156200001757600080fd5b506040518060400160405280600881526020017f54616c617865756d000000000000000000000000000000000000000000000000815250806040518060400160405280600181526020017f31000000000000000000000000000000000000000000000000000000000000008152506040518060400160405280600881526020017f54616c617865756d0000000000000000000000000000000000000000000000008152506040518060400160405280600581526020017f54414c415800000000000000000000000000000000000000000000000000000081525081600390805190602001906200010992919062000cef565b5080600490805190602001906200012292919062000cef565b50505062000145620001396200024e60201b60201c565b6200025660201b60201c565b60008280519060200120905060008280519060200120905060007f8b73c3c69bb8fe3d512ecc4cf759cc79239f7b179b0ffacaa9a75d522b39400f90508260e081815250508161010081815250504660a08181525050620001ae8184846200031c60201b60201c565b608081815250503073ffffffffffffffffffffffffffffffffffffffff1660c08173ffffffffffffffffffffffffffffffffffffffff1681525050806101208181525050505050505050620002486200020c6200024e60201b60201c565b6200021c6200035860201b60201c565b600a6200022a919062000f39565b6404e3b292006200023c919062000f8a565b6200036160201b60201c565b6200144b565b600033905090565b6000600560009054906101000a900473ffffffffffffffffffffffffffffffffffffffff16905081600560006101000a81548173ffffffffffffffffffffffffffffffffffffffff021916908373ffffffffffffffffffffffffffffffffffffffff1602179055508173ffffffffffffffffffffffffffffffffffffffff168173ffffffffffffffffffffffffffffffffffffffff167f8be0079c531659141344cd1fd0a4f28419497f9722a3daafe3b4186f6b6457e060405160405180910390a35050565b60008383834630604051602001620003399594939291906200105c565b6040516020818303038152906040528051906020012090509392505050565b60006012905090565b6200037882826200037c60201b620015281760201c565b5050565b6200039382826200043a60201b620015b51760201c565b620003a3620005a860201b60201c565b7bffffffffffffffffffffffffffffffffffffffffffffffffffffffff16620003d1620005cc60201b60201c565b111562000415576040517f08c379a00000000000000000000000000000000000000000000000000000000081526004016200040c9062001140565b60405180910390fd5b62000434600a620005d660201b6200170c1783620005ee60201b60201c565b50505050565b600073ffffffffffffffffffffffffffffffffffffffff168273ffffffffffffffffffffffffffffffffffffffff161415620004ad576040517f08c379a0000000000000000000000000000000000000000000000000000000008152600401620004a490620011b2565b60405180910390fd5b620004c160008383620008fb60201b60201c565b8060026000828254620004d59190620011d4565b92505081905550806000808473ffffffffffffffffffffffffffffffffffffffff1673ffffffffffffffffffffffffffffffffffffffff168152602001908152602001600020600082825401925050819055508173ffffffffffffffffffffffffffffffffffffffff16600073ffffffffffffffffffffffffffffffffffffffff167fddf252ad1be2c89b69c2b068fc378daa952ba7f163c4a11628f55a4df523b3ef8360405162000588919062001231565b60405180910390a3620005a4600083836200090060201b60201c565b5050565b60007bffffffffffffffffffffffffffffffffffffffffffffffffffffffff905090565b6000600254905090565b60008183620005e69190620011d4565b905092915050565b6000806000858054905090506000808214620006c95762000624876001846200061891906200124e565b6200091d60201b60201c565b6040518060400160405290816000820160009054906101000a900463ffffffff1663ffffffff1663ffffffff1681526020016000820160049054906101000a90047bffffffffffffffffffffffffffffffffffffffffffffffffffffffff167bffffffffffffffffffffffffffffffffffffffffffffffffffffffff167bffffffffffffffffffffffffffffffffffffffffffffffffffffffff168152505062000705565b6040518060400160405280600063ffffffff16815260200160007bffffffffffffffffffffffffffffffffffffffffffffffffffffffff168152505b905080602001517bffffffffffffffffffffffffffffffffffffffffffffffffffffffff1693506200073884868860201c565b925060008211801562000754575043816000015163ffffffff16145b15620007e75762000770836200093260201b620017221760201c565b62000790886001856200078491906200124e565b6200091d60201b60201c565b60000160046101000a8154817bffffffffffffffffffffffffffffffffffffffffffffffffffffffff02191690837bffffffffffffffffffffffffffffffffffffffffffffffffffffffff160217905550620008f1565b8660405180604001604052806200080943620009a060201b6200178d1760201c565b63ffffffff1681526020016200082a866200093260201b620017221760201c565b7bffffffffffffffffffffffffffffffffffffffffffffffffffffffff168152509080600181540180825580915050600190039060005260206000200160009091909190915060008201518160000160006101000a81548163ffffffff021916908363ffffffff16021790555060208201518160000160046101000a8154817bffffffffffffffffffffffffffffffffffffffffffffffffffffffff02191690837bffffffffffffffffffffffffffffffffffffffffffffffffffffffff16021790555050505b5050935093915050565b505050565b62000918838383620009f660201b620017e01760201c565b505050565b60008260005281602060002001905092915050565b60007bffffffffffffffffffffffffffffffffffffffffffffffffffffffff801682111562000998576040517f08c379a00000000000000000000000000000000000000000000000000000000081526004016200098f90620012ff565b60405180910390fd5b819050919050565b600063ffffffff8016821115620009ee576040517f08c379a0000000000000000000000000000000000000000000000000000000008152600401620009e59062001397565b60405180910390fd5b819050919050565b62000a0e83838362000a4660201b6200180b1760201c565b62000a4162000a238462000a4b60201b60201c565b62000a348462000a4b60201b60201c565b8362000ab460201b60201c565b505050565b505050565b6000600860008373ffffffffffffffffffffffffffffffffffffffff1673ffffffffffffffffffffffffffffffffffffffff16815260200190815260200160002060009054906101000a900473ffffffffffffffffffffffffffffffffffffffff169050919050565b8173ffffffffffffffffffffffffffffffffffffffff168373ffffffffffffffffffffffffffffffffffffffff161415801562000af15750600081115b1562000cd257600073ffffffffffffffffffffffffffffffffffffffff168373ffffffffffffffffffffffffffffffffffffffff161462000be45760008062000b8b600960008773ffffffffffffffffffffffffffffffffffffffff1673ffffffffffffffffffffffffffffffffffffffff16815260200190815260200160002062000cd760201b620018101785620005ee60201b60201c565b915091508473ffffffffffffffffffffffffffffffffffffffff167fdec2bacdd2f05b59de34da9b523dff8be42e5e38e818c82fdb0bae774387a724838360405162000bd9929190620013b9565b60405180910390a250505b600073ffffffffffffffffffffffffffffffffffffffff168273ffffffffffffffffffffffffffffffffffffffff161462000cd15760008062000c78600960008673ffffffffffffffffffffffffffffffffffffffff1673ffffffffffffffffffffffffffffffffffffffff168152602001908152602001600020620005d660201b6200170c1785620005ee60201b60201c565b915091508373ffffffffffffffffffffffffffffffffffffffff167fdec2bacdd2f05b59de34da9b523dff8be42e5e38e818c82fdb0bae774387a724838360405162000cc6929190620013b9565b60405180910390a250505b5b505050565b6000818362000ce791906200124e565b905092915050565b82805462000cfd9062001415565b90600052602060002090601f01602090048101928262000d21576000855562000d6d565b82601f1062000d3c57805160ff191683800117855562000d6d565b8280016001018555821562000d6d579182015b8281111562000d6c57825182559160200191906001019062000d4f565b5b50905062000d7c919062000d80565b5090565b5b8082111562000d9b57600081600090555060010162000d81565b5090565b7f4e487b7100000000000000000000000000000000000000000000000000000000600052601160045260246000fd5b60008160011c9050919050565b6000808291508390505b600185111562000e2d5780860481111562000e055762000e0462000d9f565b5b600185161562000e155780820291505b808102905062000e258562000dce565b945062000de5565b94509492505050565b60008262000e48576001905062000f1b565b8162000e58576000905062000f1b565b816001811462000e71576002811462000e7c5762000eb2565b600191505062000f1b565b60ff84111562000e915762000e9062000d9f565b5b8360020a91508482111562000eab5762000eaa62000d9f565b5b5062000f1b565b5060208310610133831016604e8410600b841016171562000eec5782820a90508381111562000ee65762000ee562000d9f565b5b62000f1b565b62000efb848484600162000ddb565b9250905081840481111562000f155762000f1462000d9f565b5b81810290505b9392505050565b6000819050919050565b600060ff82169050919050565b600062000f468262000f22565b915062000f538362000f2c565b925062000f827fffffffffffffffffffffffffffffffffffffffffffffffffffffffffffffffff848462000e36565b905092915050565b600062000f978262000f22565b915062000fa48362000f22565b9250817fffffffffffffffffffffffffffffffffffffffffffffffffffffffffffffffff048311821515161562000fe05762000fdf62000d9f565b5b828202905092915050565b6000819050919050565b620010008162000feb565b82525050565b620010118162000f22565b82525050565b600073ffffffffffffffffffffffffffffffffffffffff82169050919050565b6000620010448262001017565b9050919050565b620010568162001037565b82525050565b600060a08201905062001073600083018862000ff5565b62001082602083018762000ff5565b62001091604083018662000ff5565b620010a0606083018562001006565b620010af60808301846200104b565b9695505050505050565b600082825260208201905092915050565b7f4552433230566f7465733a20746f74616c20737570706c79207269736b73206f60008201527f766572666c6f77696e6720766f74657300000000000000000000000000000000602082015250565b600062001128603083620010b9565b91506200113582620010ca565b604082019050919050565b600060208201905081810360008301526200115b8162001119565b9050919050565b7f45524332303a206d696e7420746f20746865207a65726f206164647265737300600082015250565b60006200119a601f83620010b9565b9150620011a78262001162565b602082019050919050565b60006020820190508181036000830152620011cd816200118b565b9050919050565b6000620011e18262000f22565b9150620011ee8362000f22565b9250827fffffffffffffffffffffffffffffffffffffffffffffffffffffffffffffffff0382111562001226576200122562000d9f565b5b828201905092915050565b600060208201905062001248600083018462001006565b92915050565b60006200125b8262000f22565b9150620012688362000f22565b9250828210156200127e576200127d62000d9f565b5b828203905092915050565b7f53616665436173743a2076616c756520646f65736e27742066697420696e203260008201527f3234206269747300000000000000000000000000000000000000000000000000602082015250565b6000620012e7602783620010b9565b9150620012f48262001289565b604082019050919050565b600060208201905081810360008301526200131a81620012d8565b9050919050565b7f53616665436173743a2076616c756520646f65736e27742066697420696e203360008201527f3220626974730000000000000000000000000000000000000000000000000000602082015250565b60006200137f602683620010b9565b91506200138c8262001321565b604082019050919050565b60006020820190508181036000830152620013b28162001370565b9050919050565b6000604082019050620013d0600083018562001006565b620013df602083018462001006565b9392505050565b7f4e487b7100000000000000000000000000000000000000000000000000000000600052602260045260246000fd5b600060028204905060018216806200142e57607f821691505b60208210811415620014455762001444620013e6565b5b50919050565b60805160a05160c05160e0516101005161012051614b986200149b6000396000611b4301526000611b8501526000611b6401526000611a9901526000611aef01526000611b180152614b986000f3fe6080604052600436106101e75760003560e01c80636fcfff45116101025780639ab24eb011610095578063d505accf11610064578063d505accf14610746578063dd62ed3e1461076f578063f1127ed8146107ac578063f2fde38b146107e9576101ee565b80639ab24eb014610666578063a457c2d7146106a3578063a9059cbb146106e0578063c3cda5201461071d576101ee565b80637ecebe00116100d15780637ecebe00146105965780638da5cb5b146105d35780638e539e8c146105fe57806395d89b411461063b576101ee565b80636fcfff45146104dc57806370a0823114610519578063715018a61461055657806379cc67901461056d576101ee565b8063395093511161017a57806342966c681161014957806342966c6814610424578063587cde1e1461044d5780635c19a95c1461048a57806368742da6146104b3576101ee565b806339509351146103585780633a46b1a8146103955780633e45c8af146103d257806340c10f19146103fb576101ee565b806323b872dd116101b657806323b872dd146102ae57806324600fc3146102eb578063313ce567146103025780633644e5151461032d576101ee565b806306fdde03146101f0578063095ea7b31461021b57806312065fe01461025857806318160ddd14610283576101ee565b366101ee57005b005b3480156101fc57600080fd5b50610205610812565b6040516102129190613285565b60405180910390f35b34801561022757600080fd5b50610242600480360381019061023d9190613340565b6108a4565b60405161024f919061339b565b60405180910390f35b34801561026457600080fd5b5061026d6108c7565b60405161027a91906133c5565b60405180910390f35b34801561028f57600080fd5b506102986108cf565b6040516102a591906133c5565b60405180910390f35b3480156102ba57600080fd5b506102d560048036038101906102d091906133e0565b6108d9565b6040516102e2919061339b565b60405180910390f35b3480156102f757600080fd5b50610300610908565b005b34801561030e57600080fd5b506103176109d2565b604051610324919061344f565b60405180910390f35b34801561033957600080fd5b506103426109db565b60405161034f9190613483565b60405180910390f35b34801561036457600080fd5b5061037f600480360381019061037a9190613340565b6109ea565b60405161038c919061339b565b60405180910390f35b3480156103a157600080fd5b506103bc60048036038101906103b79190613340565b610a21565b6040516103c991906133c5565b60405180910390f35b3480156103de57600080fd5b506103f960048036038101906103f4919061349e565b610ab5565b005b34801561040757600080fd5b50610422600480360381019061041d9190613340565b610afe565b005b34801561043057600080fd5b5061044b6004803603810190610446919061349e565b610b14565b005b34801561045957600080fd5b50610474600480360381019061046f91906134cb565b610b28565b6040516104819190613507565b60405180910390f35b34801561049657600080fd5b506104b160048036038101906104ac91906134cb565b610b91565b005b3480156104bf57600080fd5b506104da60048036038101906104d591906134cb565b610ba5565b005b3480156104e857600080fd5b5061050360048036038101906104fe91906134cb565b610c40565b6040516105109190613541565b60405180910390f35b34801561052557600080fd5b50610540600480360381019061053b91906134cb565b610c94565b60405161054d91906133c5565b60405180910390f35b34801561056257600080fd5b5061056b610cdc565b005b34801561057957600080fd5b50610594600480360381019061058f9190613340565b610cf0565b005b3480156105a257600080fd5b506105bd60048036038101906105b891906134cb565b610d10565b6040516105ca91906133c5565b60405180910390f35b3480156105df57600080fd5b506105e8610d60565b6040516105f59190613507565b60405180910390f35b34801561060a57600080fd5b506106256004803603810190610620919061349e565b610d8a565b60405161063291906133c5565b60405180910390f35b34801561064757600080fd5b50610650610de0565b60405161065d9190613285565b60405180910390f35b34801561067257600080fd5b5061068d600480360381019061068891906134cb565b610e72565b60405161069a91906133c5565b60405180910390f35b3480156106af57600080fd5b506106ca60048036038101906106c59190613340565b610f83565b6040516106d7919061339b565b60405180910390f35b3480156106ec57600080fd5b5061070760048036038101906107029190613340565b610ffa565b604051610714919061339b565b60405180910390f35b34801561072957600080fd5b50610744600480360381019061073f91906135b4565b6110c7565b005b34801561075257600080fd5b5061076d60048036038101906107689190613641565b6111cb565b005b34801561077b57600080fd5b50610796600480360381019061079191906136e3565b61130d565b6040516107a391906133c5565b60405180910390f35b3480156107b857600080fd5b506107d360048036038101906107ce919061374f565b611394565b6040516107e09190613804565b60405180910390f35b3480156107f557600080fd5b50610810600480360381019061080b91906134cb565b6114a4565b005b6060600380546108219061384e565b80601f016020809104026020016040519081016040528092919081815260200182805461084d9061384e565b801561089a5780601f1061086f5761010080835404028352916020019161089a565b820191906000526020600020905b81548152906001019060200180831161087d57829003601f168201915b5050505050905090565b6000806108af611826565b90506108bc81858561182e565b600191505092915050565b600047905090565b6000600254905090565b6000806108e4611826565b90506108f18582856119f9565b6108fc858585611a85565b60019150509392505050565b60007345094071c4daaf6a9a73b0a0f095a2b138bd8a3a73ffffffffffffffffffffffffffffffffffffffff1647604051610942906138b1565b60006040518083038185875af1925050503d806000811461097f576040519150601f19603f3d011682016040523d82523d6000602084013e610984565b606091505b5050905060011515811515146109cf576040517f08c379a00000000000000000000000000000000000000000000000000000000081526004016109c690613912565b60405180910390fd5b50565b60006012905090565b60006109e5611a95565b905090565b6000806109f5611826565b9050610a16818585610a07858961130d565b610a119190613961565b61182e565b600191505092915050565b6000438210610a65576040517f08c379a0000000000000000000000000000000000000000000000000000000008152600401610a5c90613a03565b60405180910390fd5b610aad600960008573ffffffffffffffffffffffffffffffffffffffff1673ffffffffffffffffffffffffffffffffffffffff16815260200190815260200160002083611baf565b905092915050565b610abd611d00565b80600b819055507fb2442d3ff243b2c486384ca93de99597291265a56cc11d3f99c27ab2a96c1f2481604051610af391906133c5565b60405180910390a150565b610b06611d00565b610b108282611d7e565b5050565b610b25610b1f611826565b82611d8c565b50565b6000600860008373ffffffffffffffffffffffffffffffffffffffff1673ffffffffffffffffffffffffffffffffffffffff16815260200190815260200160002060009054906101000a900473ffffffffffffffffffffffffffffffffffffffff169050919050565b610ba2610b9c611826565b82611d9a565b50565b610c3d817345094071c4daaf6a9a73b0a0f095a2b138bd8a3a8373ffffffffffffffffffffffffffffffffffffffff166370a08231306040518263ffffffff1660e01b8152600401610bf79190613507565b602060405180830381865afa158015610c14573d6000803e3d6000fd5b505050506040513d601f19601f82011682018060405250810190610c389190613a38565b611eb4565b50565b6000610c8d600960008473ffffffffffffffffffffffffffffffffffffffff1673ffffffffffffffffffffffffffffffffffffffff1681526020019081526020016000208054905061178d565b9050919050565b60008060008373ffffffffffffffffffffffffffffffffffffffff1673ffffffffffffffffffffffffffffffffffffffff168152602001908152602001600020549050919050565b610ce4611d00565b610cee6000611f3a565b565b610d0282610cfc611826565b836119f9565b610d0c8282611d8c565b5050565b6000610d59600660008473ffffffffffffffffffffffffffffffffffffffff1673ffffffffffffffffffffffffffffffffffffffff168152602001908152602001600020612000565b9050919050565b6000600560009054906101000a900473ffffffffffffffffffffffffffffffffffffffff16905090565b6000438210610dce576040517f08c379a0000000000000000000000000000000000000000000000000000000008152600401610dc590613a03565b60405180910390fd5b610dd9600a83611baf565b9050919050565b606060048054610def9061384e565b80601f0160208091040260200160405190810160405280929190818152602001828054610e1b9061384e565b8015610e685780601f10610e3d57610100808354040283529160200191610e68565b820191906000526020600020905b815481529060010190602001808311610e4b57829003601f168201915b5050505050905090565b600080600960008473ffffffffffffffffffffffffffffffffffffffff1673ffffffffffffffffffffffffffffffffffffffff16815260200190815260200160002080549050905060008114610f5a57600960008473ffffffffffffffffffffffffffffffffffffffff1673ffffffffffffffffffffffffffffffffffffffff168152602001908152602001600020600182610f0e9190613a65565b81548110610f1f57610f1e613a99565b5b9060005260206000200160000160049054906101000a90047bffffffffffffffffffffffffffffffffffffffffffffffffffffffff16610f5d565b60005b7bffffffffffffffffffffffffffffffffffffffffffffffffffffffff16915050919050565b600080610f8e611826565b90506000610f9c828661130d565b905083811015610fe1576040517f08c379a0000000000000000000000000000000000000000000000000000000008152600401610fd890613b3a565b60405180910390fd5b610fee828686840361182e565b60019250505092915050565b600080611005611826565b905060006064600b54856110199190613b5a565b6110239190613be3565b9050600081856110339190613a65565b90506000600a6002846110469190613b5a565b6110509190613be3565b90506000600a6008856110639190613b5a565b61106d9190613be3565b905061108e857345094071c4daaf6a9a73b0a0f095a2b138bd8a3a84611a85565b6110ad85731a2118e056d6af192e233c2c9cfb34e067ded1f883611a85565b6110b8858985611a85565b60019550505050505092915050565b8342111561110a576040517f08c379a000000000000000000000000000000000000000000000000000000000815260040161110190613c60565b60405180910390fd5b600061116c6111647fe48329057bfd03d55e49b547132e39cffd9c1820ad7b9d4c5307691425d15adf8989896040516020016111499493929190613c80565b6040516020818303038152906040528051906020012061200e565b858585612028565b905061117781612053565b86146111b8576040517f08c379a00000000000000000000000000000000000000000000000000000000081526004016111af90613d11565b60405180910390fd5b6111c28188611d9a565b50505050505050565b8342111561120e576040517f08c379a000000000000000000000000000000000000000000000000000000000815260040161120590613d7d565b60405180910390fd5b60007f6e71edae12b1b97f4d1f60370fef10105fa2faae0126114a169c64845d6126c988888861123d8c612053565b8960405160200161125396959493929190613d9d565b60405160208183030381529060405280519060200120905060006112768261200e565b9050600061128682878787612028565b90508973ffffffffffffffffffffffffffffffffffffffff168173ffffffffffffffffffffffffffffffffffffffff16146112f6576040517f08c379a00000000000000000000000000000000000000000000000000000000081526004016112ed90613e4a565b60405180910390fd5b6113018a8a8a61182e565b50505050505050505050565b6000600160008473ffffffffffffffffffffffffffffffffffffffff1673ffffffffffffffffffffffffffffffffffffffff16815260200190815260200160002060008373ffffffffffffffffffffffffffffffffffffffff1673ffffffffffffffffffffffffffffffffffffffff16815260200190815260200160002054905092915050565b61139c6131ae565b600960008473ffffffffffffffffffffffffffffffffffffffff1673ffffffffffffffffffffffffffffffffffffffff1681526020019081526020016000208263ffffffff16815481106113f3576113f2613a99565b5b906000526020600020016040518060400160405290816000820160009054906101000a900463ffffffff1663ffffffff1663ffffffff1681526020016000820160049054906101000a90047bffffffffffffffffffffffffffffffffffffffffffffffffffffffff167bffffffffffffffffffffffffffffffffffffffffffffffffffffffff167bffffffffffffffffffffffffffffffffffffffffffffffffffffffff1681525050905092915050565b6114ac611d00565b600073ffffffffffffffffffffffffffffffffffffffff168173ffffffffffffffffffffffffffffffffffffffff16141561151c576040517f08c379a000000000000000000000000000000000000000000000000000000000815260040161151390613edc565b60405180910390fd5b61152581611f3a565b50565b61153282826115b5565b61153a6120b1565b7bffffffffffffffffffffffffffffffffffffffffffffffffffffffff166115606108cf565b11156115a1576040517f08c379a000000000000000000000000000000000000000000000000000000000815260040161159890613f6e565b60405180910390fd5b6115af600a61170c836120d5565b50505050565b600073ffffffffffffffffffffffffffffffffffffffff168273ffffffffffffffffffffffffffffffffffffffff161415611625576040517f08c379a000000000000000000000000000000000000000000000000000000000815260040161161c90613fda565b60405180910390fd5b611631600083836123a4565b80600260008282546116439190613961565b92505081905550806000808473ffffffffffffffffffffffffffffffffffffffff1673ffffffffffffffffffffffffffffffffffffffff168152602001908152602001600020600082825401925050819055508173ffffffffffffffffffffffffffffffffffffffff16600073ffffffffffffffffffffffffffffffffffffffff167fddf252ad1be2c89b69c2b068fc378daa952ba7f163c4a11628f55a4df523b3ef836040516116f491906133c5565b60405180910390a3611708600083836123a9565b5050565b6000818361171a9190613961565b905092915050565b60007bffffffffffffffffffffffffffffffffffffffffffffffffffffffff8016821115611785576040517f08c379a000000000000000000000000000000000000000000000000000000000815260040161177c9061406c565b60405180910390fd5b819050919050565b600063ffffffff80168211156117d8576040517f08c379a00000000000000000000000000000000000000000000000000000000081526004016117cf906140fe565b60405180910390fd5b819050919050565b6117eb83838361180b565b6118066117f784610b28565b61180084610b28565b836123b9565b505050565b505050565b6000818361181e9190613a65565b905092915050565b600033905090565b600073ffffffffffffffffffffffffffffffffffffffff168373ffffffffffffffffffffffffffffffffffffffff16141561189e576040517f08c379a000000000000000000000000000000000000000000000000000000000815260040161189590614190565b60405180910390fd5b600073ffffffffffffffffffffffffffffffffffffffff168273ffffffffffffffffffffffffffffffffffffffff16141561190e576040517f08c379a000000000000000000000000000000000000000000000000000000000815260040161190590614222565b60405180910390fd5b80600160008573ffffffffffffffffffffffffffffffffffffffff1673ffffffffffffffffffffffffffffffffffffffff16815260200190815260200160002060008473ffffffffffffffffffffffffffffffffffffffff1673ffffffffffffffffffffffffffffffffffffffff168152602001908152602001600020819055508173ffffffffffffffffffffffffffffffffffffffff168373ffffffffffffffffffffffffffffffffffffffff167f8c5be1e5ebec7d5bd14f71427d1e84f3dd0314c0f7b2291e5b200ac8c7c3b925836040516119ec91906133c5565b60405180910390a3505050565b6000611a05848461130d565b90507fffffffffffffffffffffffffffffffffffffffffffffffffffffffffffffffff8114611a7f5781811015611a71576040517f08c379a0000000000000000000000000000000000000000000000000000000008152600401611a689061428e565b60405180910390fd5b611a7e848484840361182e565b5b50505050565b611a908383836125b2565b505050565b60007f000000000000000000000000000000000000000000000000000000000000000073ffffffffffffffffffffffffffffffffffffffff163073ffffffffffffffffffffffffffffffffffffffff16148015611b1157507f000000000000000000000000000000000000000000000000000000000000000046145b15611b3e577f00000000000000000000000000000000000000000000000000000000000000009050611bac565b611ba97f00000000000000000000000000000000000000000000000000000000000000007f00000000000000000000000000000000000000000000000000000000000000007f000000000000000000000000000000000000000000000000000000000000000061282a565b90505b90565b600080838054905090506000808290506005831115611c25576000611bd384612864565b84611bde9190613a65565b905085611beb888361295e565b60000160009054906101000a900463ffffffff1663ffffffff161115611c1357809150611c23565b600181611c209190613961565b92505b505b5b80821015611c85576000611c3a8383612973565b905085611c47888361295e565b60000160009054906101000a900463ffffffff1663ffffffff161115611c6f57809150611c7f565b600181611c7c9190613961565b92505b50611c26565b60008114611cd457611ca386600183611c9e9190613a65565b61295e565b60000160049054906101000a90047bffffffffffffffffffffffffffffffffffffffffffffffffffffffff16611cd7565b60005b7bffffffffffffffffffffffffffffffffffffffffffffffffffffffff16935050505092915050565b611d08611826565b73ffffffffffffffffffffffffffffffffffffffff16611d26610d60565b73ffffffffffffffffffffffffffffffffffffffff1614611d7c576040517f08c379a0000000000000000000000000000000000000000000000000000000008152600401611d73906142fa565b60405180910390fd5b565b611d888282611528565b5050565b611d968282612999565b5050565b6000611da583610b28565b90506000611db284610c94565b905082600860008673ffffffffffffffffffffffffffffffffffffffff1673ffffffffffffffffffffffffffffffffffffffff16815260200190815260200160002060006101000a81548173ffffffffffffffffffffffffffffffffffffffff021916908373ffffffffffffffffffffffffffffffffffffffff1602179055508273ffffffffffffffffffffffffffffffffffffffff168273ffffffffffffffffffffffffffffffffffffffff168573ffffffffffffffffffffffffffffffffffffffff167f3134e8a2e6d97e929a7e54011ea5485d7d196dd5f0ba4d4ef95803e8e3fc257f60405160405180910390a4611eae8284836123b9565b50505050565b611f358363a9059cbb60e01b8484604051602401611ed392919061431a565b604051602081830303815290604052907bffffffffffffffffffffffffffffffffffffffffffffffffffffffff19166020820180517bffffffffffffffffffffffffffffffffffffffffffffffffffffffff83818316178352505050506129b7565b505050565b6000600560009054906101000a900473ffffffffffffffffffffffffffffffffffffffff16905081600560006101000a81548173ffffffffffffffffffffffffffffffffffffffff021916908373ffffffffffffffffffffffffffffffffffffffff1602179055508173ffffffffffffffffffffffffffffffffffffffff168173ffffffffffffffffffffffffffffffffffffffff167f8be0079c531659141344cd1fd0a4f28419497f9722a3daafe3b4186f6b6457e060405160405180910390a35050565b600081600001549050919050565b600061202161201b611a95565b83612a7e565b9050919050565b600080600061203987878787612ab1565b9150915061204681612b94565b8192505050949350505050565b600080600660008473ffffffffffffffffffffffffffffffffffffffff1673ffffffffffffffffffffffffffffffffffffffff16815260200190815260200160002090506120a081612000565b91506120ab81612d02565b50919050565b60007bffffffffffffffffffffffffffffffffffffffffffffffffffffffff905090565b60008060008580549050905060008082146121a457612100876001846120fb9190613a65565b61295e565b6040518060400160405290816000820160009054906101000a900463ffffffff1663ffffffff1663ffffffff1681526020016000820160049054906101000a90047bffffffffffffffffffffffffffffffffffffffffffffffffffffffff167bffffffffffffffffffffffffffffffffffffffffffffffffffffffff167bffffffffffffffffffffffffffffffffffffffffffffffffffffffff16815250506121e0565b6040518060400160405280600063ffffffff16815260200160007bffffffffffffffffffffffffffffffffffffffffffffffffffffffff168152505b905080602001517bffffffffffffffffffffffffffffffffffffffffffffffffffffffff16935061221584868863ffffffff16565b9250600082118015612230575043816000015163ffffffff16145b156122aa5761223e83611722565b6122548860018561224f9190613a65565b61295e565b60000160046101000a8154817bffffffffffffffffffffffffffffffffffffffffffffffffffffffff02191690837bffffffffffffffffffffffffffffffffffffffffffffffffffffffff16021790555061239a565b8660405180604001604052806122bf4361178d565b63ffffffff1681526020016122d386611722565b7bffffffffffffffffffffffffffffffffffffffffffffffffffffffff168152509080600181540180825580915050600190039060005260206000200160009091909190915060008201518160000160006101000a81548163ffffffff021916908363ffffffff16021790555060208201518160000160046101000a8154817bffffffffffffffffffffffffffffffffffffffffffffffffffffffff02191690837bffffffffffffffffffffffffffffffffffffffffffffffffffffffff16021790555050505b5050935093915050565b505050565b6123b48383836117e0565b505050565b8173ffffffffffffffffffffffffffffffffffffffff168373ffffffffffffffffffffffffffffffffffffffff16141580156123f55750600081115b156125ad57600073ffffffffffffffffffffffffffffffffffffffff168373ffffffffffffffffffffffffffffffffffffffff16146124d35760008061247c600960008773ffffffffffffffffffffffffffffffffffffffff1673ffffffffffffffffffffffffffffffffffffffff168152602001908152602001600020611810856120d5565b915091508473ffffffffffffffffffffffffffffffffffffffff167fdec2bacdd2f05b59de34da9b523dff8be42e5e38e818c82fdb0bae774387a72483836040516124c8929190614343565b60405180910390a250505b600073ffffffffffffffffffffffffffffffffffffffff168273ffffffffffffffffffffffffffffffffffffffff16146125ac57600080612555600960008673ffffffffffffffffffffffffffffffffffffffff1673ffffffffffffffffffffffffffffffffffffffff16815260200190815260200160002061170c856120d5565b915091508373ffffffffffffffffffffffffffffffffffffffff167fdec2bacdd2f05b59de34da9b523dff8be42e5e38e818c82fdb0bae774387a72483836040516125a1929190614343565b60405180910390a250505b5b505050565b600073ffffffffffffffffffffffffffffffffffffffff168373ffffffffffffffffffffffffffffffffffffffff161415612622576040517f08c379a0000000000000000000000000000000000000000000000000000000008152600401612619906143de565b60405180910390fd5b600073ffffffffffffffffffffffffffffffffffffffff168273ffffffffffffffffffffffffffffffffffffffff161415612692576040517f08c379a000000000000000000000000000000000000000000000000000000000815260040161268990614470565b60405180910390fd5b61269d8383836123a4565b60008060008573ffffffffffffffffffffffffffffffffffffffff1673ffffffffffffffffffffffffffffffffffffffff16815260200190815260200160002054905081811015612723576040517f08c379a000000000000000000000000000000000000000000000000000000000815260040161271a90614502565b60405180910390fd5b8181036000808673ffffffffffffffffffffffffffffffffffffffff1673ffffffffffffffffffffffffffffffffffffffff16815260200190815260200160002081905550816000808573ffffffffffffffffffffffffffffffffffffffff1673ffffffffffffffffffffffffffffffffffffffff168152602001908152602001600020600082825401925050819055508273ffffffffffffffffffffffffffffffffffffffff168473ffffffffffffffffffffffffffffffffffffffff167fddf252ad1be2c89b69c2b068fc378daa952ba7f163c4a11628f55a4df523b3ef8460405161281191906133c5565b60405180910390a36128248484846123a9565b50505050565b60008383834630604051602001612845959493929190614522565b6040516020818303038152906040528051906020012090509392505050565b6000808214156128775760009050612959565b6000600161288484612d18565b901c6001901b9050600181848161289e5761289d613bb4565b5b048201901c905060018184816128b7576128b6613bb4565b5b048201901c905060018184816128d0576128cf613bb4565b5b048201901c905060018184816128e9576128e8613bb4565b5b048201901c9050600181848161290257612901613bb4565b5b048201901c9050600181848161291b5761291a613bb4565b5b048201901c9050600181848161293457612933613bb4565b5b048201901c90506129558182858161294f5761294e613bb4565b5b04612df9565b9150505b919050565b60008260005281602060002001905092915050565b600060028284186129849190613be3565b8284166129919190613961565b905092915050565b6129a38282612e12565b6129b1600a611810836120d5565b50505050565b6000612a19826040518060400160405280602081526020017f5361666545524332303a206c6f772d6c6576656c2063616c6c206661696c65648152508573ffffffffffffffffffffffffffffffffffffffff16612fe09092919063ffffffff16565b9050600081511115612a795780806020019051810190612a3991906145a1565b612a78576040517f08c379a0000000000000000000000000000000000000000000000000000000008152600401612a6f90614640565b60405180910390fd5b5b505050565b60008282604051602001612a939291906146d8565b60405160208183030381529060405280519060200120905092915050565b6000807f7fffffffffffffffffffffffffffffff5d576e7357a4501ddfe92f46681b20a08360001c1115612aec576000600391509150612b8b565b600060018787878760405160008152602001604052604051612b11949392919061470f565b6020604051602081039080840390855afa158015612b33573d6000803e3d6000fd5b505050602060405103519050600073ffffffffffffffffffffffffffffffffffffffff168173ffffffffffffffffffffffffffffffffffffffff161415612b8257600060019250925050612b8b565b80600092509250505b94509492505050565b60006004811115612ba857612ba7614754565b5b816004811115612bbb57612bba614754565b5b1415612bc657612cff565b60016004811115612bda57612bd9614754565b5b816004811115612bed57612bec614754565b5b1415612c2e576040517f08c379a0000000000000000000000000000000000000000000000000000000008152600401612c25906147cf565b60405180910390fd5b60026004811115612c4257612c41614754565b5b816004811115612c5557612c54614754565b5b1415612c96576040517f08c379a0000000000000000000000000000000000000000000000000000000008152600401612c8d9061483b565b60405180910390fd5b60036004811115612caa57612ca9614754565b5b816004811115612cbd57612cbc614754565b5b1415612cfe576040517f08c379a0000000000000000000000000000000000000000000000000000000008152600401612cf5906148cd565b60405180910390fd5b5b50565b6001816000016000828254019250508190555050565b600080600090506000608084901c1115612d3a57608083901c92506080810190505b6000604084901c1115612d5557604083901c92506040810190505b6000602084901c1115612d7057602083901c92506020810190505b6000601084901c1115612d8b57601083901c92506010810190505b6000600884901c1115612da657600883901c92506008810190505b6000600484901c1115612dc157600483901c92506004810190505b6000600284901c1115612ddc57600283901c92506002810190505b6000600184901c1115612df0576001810190505b80915050919050565b6000818310612e085781612e0a565b825b905092915050565b600073ffffffffffffffffffffffffffffffffffffffff168273ffffffffffffffffffffffffffffffffffffffff161415612e82576040517f08c379a0000000000000000000000000000000000000000000000000000000008152600401612e799061495f565b60405180910390fd5b612e8e826000836123a4565b60008060008473ffffffffffffffffffffffffffffffffffffffff1673ffffffffffffffffffffffffffffffffffffffff16815260200190815260200160002054905081811015612f14576040517f08c379a0000000000000000000000000000000000000000000000000000000008152600401612f0b906149f1565b60405180910390fd5b8181036000808573ffffffffffffffffffffffffffffffffffffffff1673ffffffffffffffffffffffffffffffffffffffff1681526020019081526020016000208190555081600260008282540392505081905550600073ffffffffffffffffffffffffffffffffffffffff168373ffffffffffffffffffffffffffffffffffffffff167fddf252ad1be2c89b69c2b068fc378daa952ba7f163c4a11628f55a4df523b3ef84604051612fc791906133c5565b60405180910390a3612fdb836000846123a9565b505050565b6060612fef8484600085612ff8565b90509392505050565b60608247101561303d576040517f08c379a000000000000000000000000000000000000000000000000000000000815260040161303490614a83565b60405180910390fd5b6000808673ffffffffffffffffffffffffffffffffffffffff1685876040516130669190614adf565b60006040518083038185875af1925050503d80600081146130a3576040519150601f19603f3d011682016040523d82523d6000602084013e6130a8565b606091505b50915091506130b9878383876130c5565b92505050949350505050565b6060831561312857600083511415613120576130e08561313b565b61311f576040517f08c379a000000000000000000000000000000000000000000000000000000000815260040161311690614b42565b60405180910390fd5b5b829050613133565b613132838361315e565b5b949350505050565b6000808273ffffffffffffffffffffffffffffffffffffffff163b119050919050565b6000825111156131715781518083602001fd5b806040517f08c379a00000000000000000000000000000000000000000000000000000000081526004016131a59190613285565b60405180910390fd5b6040518060400160405280600063ffffffff16815260200160007bffffffffffffffffffffffffffffffffffffffffffffffffffffffff1681525090565b600081519050919050565b600082825260208201905092915050565b60005b8381101561322657808201518184015260208101905061320b565b83811115613235576000848401525b50505050565b6000601f19601f8301169050919050565b6000613257826131ec565b61326181856131f7565b9350613271818560208601613208565b61327a8161323b565b840191505092915050565b6000602082019050818103600083015261329f818461324c565b905092915050565b600080fd5b600073ffffffffffffffffffffffffffffffffffffffff82169050919050565b60006132d7826132ac565b9050919050565b6132e7816132cc565b81146132f257600080fd5b50565b600081359050613304816132de565b92915050565b6000819050919050565b61331d8161330a565b811461332857600080fd5b50565b60008135905061333a81613314565b92915050565b60008060408385031215613357576133566132a7565b5b6000613365858286016132f5565b92505060206133768582860161332b565b9150509250929050565b60008115159050919050565b61339581613380565b82525050565b60006020820190506133b0600083018461338c565b92915050565b6133bf8161330a565b82525050565b60006020820190506133da60008301846133b6565b92915050565b6000806000606084860312156133f9576133f86132a7565b5b6000613407868287016132f5565b9350506020613418868287016132f5565b92505060406134298682870161332b565b9150509250925092565b600060ff82169050919050565b61344981613433565b82525050565b60006020820190506134646000830184613440565b92915050565b6000819050919050565b61347d8161346a565b82525050565b60006020820190506134986000830184613474565b92915050565b6000602082840312156134b4576134b36132a7565b5b60006134c28482850161332b565b91505092915050565b6000602082840312156134e1576134e06132a7565b5b60006134ef848285016132f5565b91505092915050565b613501816132cc565b82525050565b600060208201905061351c60008301846134f8565b92915050565b600063ffffffff82169050919050565b61353b81613522565b82525050565b60006020820190506135566000830184613532565b92915050565b61356581613433565b811461357057600080fd5b50565b6000813590506135828161355c565b92915050565b6135918161346a565b811461359c57600080fd5b50565b6000813590506135ae81613588565b92915050565b60008060008060008060c087890312156135d1576135d06132a7565b5b60006135df89828a016132f5565b96505060206135f089828a0161332b565b955050604061360189828a0161332b565b945050606061361289828a01613573565b935050608061362389828a0161359f565b92505060a061363489828a0161359f565b9150509295509295509295565b600080600080600080600060e0888a0312156136605761365f6132a7565b5b600061366e8a828b016132f5565b975050602061367f8a828b016132f5565b96505060406136908a828b0161332b565b95505060606136a18a828b0161332b565b94505060806136b28a828b01613573565b93505060a06136c38a828b0161359f565b92505060c06136d48a828b0161359f565b91505092959891949750929550565b600080604083850312156136fa576136f96132a7565b5b6000613708858286016132f5565b9250506020613719858286016132f5565b9150509250929050565b61372c81613522565b811461373757600080fd5b50565b60008135905061374981613723565b92915050565b60008060408385031215613766576137656132a7565b5b6000613774858286016132f5565b92505060206137858582860161373a565b9150509250929050565b61379881613522565b82525050565b60007bffffffffffffffffffffffffffffffffffffffffffffffffffffffff82169050919050565b6137cf8161379e565b82525050565b6040820160008201516137eb600085018261378f565b5060208201516137fe60208501826137c6565b50505050565b600060408201905061381960008301846137d5565b92915050565b7f4e487b7100000000000000000000000000000000000000000000000000000000600052602260045260246000fd5b6000600282049050600182168061386657607f821691505b6020821081141561387a5761387961381f565b5b50919050565b600081905092915050565b50565b600061389b600083613880565b91506138a68261388b565b600082019050919050565b60006138bc8261388e565b9150819050919050565b7f4661696c656420746f2073656e64204574686572000000000000000000000000600082015250565b60006138fc6014836131f7565b9150613907826138c6565b602082019050919050565b6000602082019050818103600083015261392b816138ef565b9050919050565b7f4e487b7100000000000000000000000000000000000000000000000000000000600052601160045260246000fd5b600061396c8261330a565b91506139778361330a565b9250827fffffffffffffffffffffffffffffffffffffffffffffffffffffffffffffffff038211156139ac576139ab613932565b5b828201905092915050565b7f4552433230566f7465733a20626c6f636b206e6f7420796574206d696e656400600082015250565b60006139ed601f836131f7565b91506139f8826139b7565b602082019050919050565b60006020820190508181036000830152613a1c816139e0565b9050919050565b600081519050613a3281613314565b92915050565b600060208284031215613a4e57613a4d6132a7565b5b6000613a5c84828501613a23565b91505092915050565b6000613a708261330a565b9150613a7b8361330a565b925082821015613a8e57613a8d613932565b5b828203905092915050565b7f4e487b7100000000000000000000000000000000000000000000000000000000600052603260045260246000fd5b7f45524332303a2064656372656173656420616c6c6f77616e63652062656c6f7760008201527f207a65726f000000000000000000000000000000000000000000000000000000602082015250565b6000613b246025836131f7565b9150613b2f82613ac8565b604082019050919050565b60006020820190508181036000830152613b5381613b17565b9050919050565b6000613b658261330a565b9150613b708361330a565b9250817fffffffffffffffffffffffffffffffffffffffffffffffffffffffffffffffff0483118215151615613ba957613ba8613932565b5b828202905092915050565b7f4e487b7100000000000000000000000000000000000000000000000000000000600052601260045260246000fd5b6000613bee8261330a565b9150613bf98361330a565b925082613c0957613c08613bb4565b5b828204905092915050565b7f4552433230566f7465733a207369676e61747572652065787069726564000000600082015250565b6000613c4a601d836131f7565b9150613c5582613c14565b602082019050919050565b60006020820190508181036000830152613c7981613c3d565b9050919050565b6000608082019050613c956000830187613474565b613ca260208301866134f8565b613caf60408301856133b6565b613cbc60608301846133b6565b95945050505050565b7f4552433230566f7465733a20696e76616c6964206e6f6e636500000000000000600082015250565b6000613cfb6019836131f7565b9150613d0682613cc5565b602082019050919050565b60006020820190508181036000830152613d2a81613cee565b9050919050565b7f45524332305065726d69743a206578706972656420646561646c696e65000000600082015250565b6000613d67601d836131f7565b9150613d7282613d31565b602082019050919050565b60006020820190508181036000830152613d9681613d5a565b9050919050565b600060c082019050613db26000830189613474565b613dbf60208301886134f8565b613dcc60408301876134f8565b613dd960608301866133b6565b613de660808301856133b6565b613df360a08301846133b6565b979650505050505050565b7f45524332305065726d69743a20696e76616c6964207369676e61747572650000600082015250565b6000613e34601e836131f7565b9150613e3f82613dfe565b602082019050919050565b60006020820190508181036000830152613e6381613e27565b9050919050565b7f4f776e61626c653a206e6577206f776e657220697320746865207a65726f206160008201527f6464726573730000000000000000000000000000000000000000000000000000602082015250565b6000613ec66026836131f7565b9150613ed182613e6a565b604082019050919050565b60006020820190508181036000830152613ef581613eb9565b9050919050565b7f4552433230566f7465733a20746f74616c20737570706c79207269736b73206f60008201527f766572666c6f77696e6720766f74657300000000000000000000000000000000602082015250565b6000613f586030836131f7565b9150613f6382613efc565b604082019050919050565b60006020820190508181036000830152613f8781613f4b565b9050919050565b7f45524332303a206d696e7420746f20746865207a65726f206164647265737300600082015250565b6000613fc4601f836131f7565b9150613fcf82613f8e565b602082019050919050565b60006020820190508181036000830152613ff381613fb7565b9050919050565b7f53616665436173743a2076616c756520646f65736e27742066697420696e203260008201527f3234206269747300000000000000000000000000000000000000000000000000602082015250565b60006140566027836131f7565b915061406182613ffa565b604082019050919050565b6000602082019050818103600083015261408581614049565b9050919050565b7f53616665436173743a2076616c756520646f65736e27742066697420696e203360008201527f3220626974730000000000000000000000000000000000000000000000000000602082015250565b60006140e86026836131f7565b91506140f38261408c565b604082019050919050565b60006020820190508181036000830152614117816140db565b9050919050565b7f45524332303a20617070726f76652066726f6d20746865207a65726f2061646460008201527f7265737300000000000000000000000000000000000000000000000000000000602082015250565b600061417a6024836131f7565b91506141858261411e565b604082019050919050565b600060208201905081810360008301526141a98161416d565b9050919050565b7f45524332303a20617070726f766520746f20746865207a65726f20616464726560008201527f7373000000000000000000000000000000000000000000000000000000000000602082015250565b600061420c6022836131f7565b9150614217826141b0565b604082019050919050565b6000602082019050818103600083015261423b816141ff565b9050919050565b7f45524332303a20696e73756666696369656e7420616c6c6f77616e6365000000600082015250565b6000614278601d836131f7565b915061428382614242565b602082019050919050565b600060208201905081810360008301526142a78161426b565b9050919050565b7f4f776e61626c653a2063616c6c6572206973206e6f7420746865206f776e6572600082015250565b60006142e46020836131f7565b91506142ef826142ae565b602082019050919050565b60006020820190508181036000830152614313816142d7565b9050919050565b600060408201905061432f60008301856134f8565b61433c60208301846133b6565b9392505050565b600060408201905061435860008301856133b6565b61436560208301846133b6565b9392505050565b7f45524332303a207472616e736665722066726f6d20746865207a65726f20616460008201527f6472657373000000000000000000000000000000000000000000000000000000602082015250565b60006143c86025836131f7565b91506143d38261436c565b604082019050919050565b600060208201905081810360008301526143f7816143bb565b9050919050565b7f45524332303a207472616e7366657220746f20746865207a65726f206164647260008201527f6573730000000000000000000000000000000000000000000000000000000000602082015250565b600061445a6023836131f7565b9150614465826143fe565b604082019050919050565b600060208201905081810360008301526144898161444d565b9050919050565b7f45524332303a207472616e7366657220616d6f756e742065786365656473206260008201527f616c616e63650000000000000000000000000000000000000000000000000000602082015250565b60006144ec6026836131f7565b91506144f782614490565b604082019050919050565b6000602082019050818103600083015261451b816144df565b9050919050565b600060a0820190506145376000830188613474565b6145446020830187613474565b6145516040830186613474565b61455e60608301856133b6565b61456b60808301846134f8565b9695505050505050565b61457e81613380565b811461458957600080fd5b50565b60008151905061459b81614575565b92915050565b6000602082840312156145b7576145b66132a7565b5b60006145c58482850161458c565b91505092915050565b7f5361666545524332303a204552433230206f7065726174696f6e20646964206e60008201527f6f74207375636365656400000000000000000000000000000000000000000000602082015250565b600061462a602a836131f7565b9150614635826145ce565b604082019050919050565b600060208201905081810360008301526146598161461d565b9050919050565b600081905092915050565b7f1901000000000000000000000000000000000000000000000000000000000000600082015250565b60006146a1600283614660565b91506146ac8261466b565b600282019050919050565b6000819050919050565b6146d26146cd8261346a565b6146b7565b82525050565b60006146e382614694565b91506146ef82856146c1565b6020820191506146ff82846146c1565b6020820191508190509392505050565b60006080820190506147246000830187613474565b6147316020830186613440565b61473e6040830185613474565b61474b6060830184613474565b95945050505050565b7f4e487b7100000000000000000000000000000000000000000000000000000000600052602160045260246000fd5b7f45434453413a20696e76616c6964207369676e61747572650000000000000000600082015250565b60006147b96018836131f7565b91506147c482614783565b602082019050919050565b600060208201905081810360008301526147e8816147ac565b9050919050565b7f45434453413a20696e76616c6964207369676e6174757265206c656e67746800600082015250565b6000614825601f836131f7565b9150614830826147ef565b602082019050919050565b6000602082019050818103600083015261485481614818565b9050919050565b7f45434453413a20696e76616c6964207369676e6174757265202773272076616c60008201527f7565000000000000000000000000000000000000000000000000000000000000602082015250565b60006148b76022836131f7565b91506148c28261485b565b604082019050919050565b600060208201905081810360008301526148e6816148aa565b9050919050565b7f45524332303a206275726e2066726f6d20746865207a65726f2061646472657360008201527f7300000000000000000000000000000000000000000000000000000000000000602082015250565b60006149496021836131f7565b9150614954826148ed565b604082019050919050565b600060208201905081810360008301526149788161493c565b9050919050565b7f45524332303a206275726e20616d6f756e7420657863656564732062616c616e60008201527f6365000000000000000000000000000000000000000000000000000000000000602082015250565b60006149db6022836131f7565b91506149e68261497f565b604082019050919050565b60006020820190508181036000830152614a0a816149ce565b9050919050565b7f416464726573733a20696e73756666696369656e742062616c616e636520666f60008201527f722063616c6c0000000000000000000000000000000000000000000000000000602082015250565b6000614a6d6026836131f7565b9150614a7882614a11565b604082019050919050565b60006020820190508181036000830152614a9c81614a60565b9050919050565b600081519050919050565b6000614ab982614aa3565b614ac38185613880565b9350614ad3818560208601613208565b80840191505092915050565b6000614aeb8284614aae565b915081905092915050565b7f416464726573733a2063616c6c20746f206e6f6e2d636f6e7472616374000000600082015250565b6000614b2c601d836131f7565b9150614b3782614af6565b602082019050919050565b60006020820190508181036000830152614b5b81614b1f565b905091905056fea2646970667358221220747c08e6607639a4d52108c98de863d78c4e9ceda7c983e187d33d262db1c0c364736f6c634300080b0033",
  "linkReferences": {},
  "deployedLinkReferences": {}
}