{
  "_format": "hh-sol-artifact-1",
  "contractName": "Talaxeum",
  "sourceName": "contracts/ERC20/Talaxeum.sol",
  "abi": [
    {
      "inputs": [],
      "stateMutability": "nonpayable",
      "type": "constructor"
    },
    {
      "anonymous": false,
      "inputs": [
        {
          "indexed": true,
          "internalType": "address",
          "name": "owner",
          "type": "address"
        },
        {
          "indexed": true,
          "internalType": "address",
          "name": "spender",
          "type": "address"
        },
        {
          "indexed": false,
          "internalType": "uint256",
          "name": "value",
          "type": "uint256"
        }
      ],
      "name": "Approval",
      "type": "event"
    },
    {
      "anonymous": false,
      "inputs": [
        {
          "indexed": false,
          "internalType": "uint256",
          "name": "tax",
          "type": "uint256"
        }
      ],
      "name": "ChangeTaxPercentage",
      "type": "event"
    },
    {
      "anonymous": false,
      "inputs": [
        {
          "indexed": true,
          "internalType": "address",
          "name": "delegator",
          "type": "address"
        },
        {
          "indexed": true,
          "internalType": "address",
          "name": "fromDelegate",
          "type": "address"
        },
        {
          "indexed": true,
          "internalType": "address",
          "name": "toDelegate",
          "type": "address"
        }
      ],
      "name": "DelegateChanged",
      "type": "event"
    },
    {
      "anonymous": false,
      "inputs": [
        {
          "indexed": true,
          "internalType": "address",
          "name": "delegate",
          "type": "address"
        },
        {
          "indexed": false,
          "internalType": "uint256",
          "name": "previousBalance",
          "type": "uint256"
        },
        {
          "indexed": false,
          "internalType": "uint256",
          "name": "newBalance",
          "type": "uint256"
        }
      ],
      "name": "DelegateVotesChanged",
      "type": "event"
    },
    {
      "anonymous": false,
      "inputs": [
        {
          "indexed": true,
          "internalType": "address",
          "name": "previousOwner",
          "type": "address"
        },
        {
          "indexed": true,
          "internalType": "address",
          "name": "newOwner",
          "type": "address"
        }
      ],
      "name": "OwnershipTransferred",
      "type": "event"
    },
    {
      "anonymous": false,
      "inputs": [
        {
          "indexed": true,
          "internalType": "address",
          "name": "from",
          "type": "address"
        },
        {
          "indexed": true,
          "internalType": "address",
          "name": "to",
          "type": "address"
        },
        {
          "indexed": false,
          "internalType": "uint256",
          "name": "value",
          "type": "uint256"
        }
      ],
      "name": "Transfer",
      "type": "event"
    },
    {
      "stateMutability": "payable",
      "type": "fallback"
    },
    {
      "inputs": [],
      "name": "DOMAIN_SEPARATOR",
      "outputs": [
        {
          "internalType": "bytes32",
          "name": "",
          "type": "bytes32"
        }
      ],
      "stateMutability": "view",
      "type": "function"
    },
    {
      "inputs": [
        {
          "internalType": "address",
          "name": "owner",
          "type": "address"
        },
        {
          "internalType": "address",
          "name": "spender",
          "type": "address"
        }
      ],
      "name": "allowance",
      "outputs": [
        {
          "internalType": "uint256",
          "name": "",
          "type": "uint256"
        }
      ],
      "stateMutability": "view",
      "type": "function"
    },
    {
      "inputs": [
        {
          "internalType": "address",
          "name": "spender",
          "type": "address"
        },
        {
          "internalType": "uint256",
          "name": "amount",
          "type": "uint256"
        }
      ],
      "name": "approve",
      "outputs": [
        {
          "internalType": "bool",
          "name": "",
          "type": "bool"
        }
      ],
      "stateMutability": "nonpayable",
      "type": "function"
    },
    {
      "inputs": [
        {
          "internalType": "address",
          "name": "account",
          "type": "address"
        }
      ],
      "name": "balanceOf",
      "outputs": [
        {
          "internalType": "uint256",
          "name": "",
          "type": "uint256"
        }
      ],
      "stateMutability": "view",
      "type": "function"
    },
    {
      "inputs": [
        {
          "internalType": "uint256",
          "name": "amount",
          "type": "uint256"
        }
      ],
      "name": "burn",
      "outputs": [],
      "stateMutability": "nonpayable",
      "type": "function"
    },
    {
      "inputs": [
        {
          "internalType": "address",
          "name": "account",
          "type": "address"
        },
        {
          "internalType": "uint256",
          "name": "amount",
          "type": "uint256"
        }
      ],
      "name": "burnFrom",
      "outputs": [],
      "stateMutability": "nonpayable",
      "type": "function"
    },
    {
      "inputs": [
        {
          "internalType": "uint256",
          "name": "tax",
          "type": "uint256"
        }
      ],
      "name": "changeTax",
      "outputs": [],
      "stateMutability": "nonpayable",
      "type": "function"
    },
    {
      "inputs": [
        {
          "internalType": "address",
          "name": "account",
          "type": "address"
        },
        {
          "internalType": "uint32",
          "name": "pos",
          "type": "uint32"
        }
      ],
      "name": "checkpoints",
      "outputs": [
        {
          "components": [
            {
              "internalType": "uint32",
              "name": "fromBlock",
              "type": "uint32"
            },
            {
              "internalType": "uint224",
              "name": "votes",
              "type": "uint224"
            }
          ],
          "internalType": "struct ERC20Votes.Checkpoint",
          "name": "",
          "type": "tuple"
        }
      ],
      "stateMutability": "view",
      "type": "function"
    },
    {
      "inputs": [],
      "name": "decimals",
      "outputs": [
        {
          "internalType": "uint8",
          "name": "",
          "type": "uint8"
        }
      ],
      "stateMutability": "view",
      "type": "function"
    },
    {
      "inputs": [
        {
          "internalType": "address",
          "name": "spender",
          "type": "address"
        },
        {
          "internalType": "uint256",
          "name": "subtractedValue",
          "type": "uint256"
        }
      ],
      "name": "decreaseAllowance",
      "outputs": [
        {
          "internalType": "bool",
          "name": "",
          "type": "bool"
        }
      ],
      "stateMutability": "nonpayable",
      "type": "function"
    },
    {
      "inputs": [
        {
          "internalType": "address",
          "name": "delegatee",
          "type": "address"
        }
      ],
      "name": "delegate",
      "outputs": [],
      "stateMutability": "nonpayable",
      "type": "function"
    },
    {
      "inputs": [
        {
          "internalType": "address",
          "name": "delegatee",
          "type": "address"
        },
        {
          "internalType": "uint256",
          "name": "nonce",
          "type": "uint256"
        },
        {
          "internalType": "uint256",
          "name": "expiry",
          "type": "uint256"
        },
        {
          "internalType": "uint8",
          "name": "v",
          "type": "uint8"
        },
        {
          "internalType": "bytes32",
          "name": "r",
          "type": "bytes32"
        },
        {
          "internalType": "bytes32",
          "name": "s",
          "type": "bytes32"
        }
      ],
      "name": "delegateBySig",
      "outputs": [],
      "stateMutability": "nonpayable",
      "type": "function"
    },
    {
      "inputs": [
        {
          "internalType": "address",
          "name": "account",
          "type": "address"
        }
      ],
      "name": "delegates",
      "outputs": [
        {
          "internalType": "address",
          "name": "",
          "type": "address"
        }
      ],
      "stateMutability": "view",
      "type": "function"
    },
    {
      "inputs": [],
      "name": "getBalance",
      "outputs": [
        {
          "internalType": "uint256",
          "name": "",
          "type": "uint256"
        }
      ],
      "stateMutability": "view",
      "type": "function"
    },
    {
      "inputs": [
        {
          "internalType": "uint256",
          "name": "blockNumber",
          "type": "uint256"
        }
      ],
      "name": "getPastTotalSupply",
      "outputs": [
        {
          "internalType": "uint256",
          "name": "",
          "type": "uint256"
        }
      ],
      "stateMutability": "view",
      "type": "function"
    },
    {
      "inputs": [
        {
          "internalType": "address",
          "name": "account",
          "type": "address"
        },
        {
          "internalType": "uint256",
          "name": "blockNumber",
          "type": "uint256"
        }
      ],
      "name": "getPastVotes",
      "outputs": [
        {
          "internalType": "uint256",
          "name": "",
          "type": "uint256"
        }
      ],
      "stateMutability": "view",
      "type": "function"
    },
    {
      "inputs": [
        {
          "internalType": "address",
          "name": "account",
          "type": "address"
        }
      ],
      "name": "getVotes",
      "outputs": [
        {
          "internalType": "uint256",
          "name": "",
          "type": "uint256"
        }
      ],
      "stateMutability": "view",
      "type": "function"
    },
    {
      "inputs": [
        {
          "internalType": "address",
          "name": "spender",
          "type": "address"
        },
        {
          "internalType": "uint256",
          "name": "addedValue",
          "type": "uint256"
        }
      ],
      "name": "increaseAllowance",
      "outputs": [
        {
          "internalType": "bool",
          "name": "",
          "type": "bool"
        }
      ],
      "stateMutability": "nonpayable",
      "type": "function"
    },
    {
      "inputs": [
        {
          "internalType": "address",
          "name": "to",
          "type": "address"
        },
        {
          "internalType": "uint256",
          "name": "amount",
          "type": "uint256"
        }
      ],
      "name": "mint",
      "outputs": [],
      "stateMutability": "nonpayable",
      "type": "function"
    },
    {
      "inputs": [],
      "name": "name",
      "outputs": [
        {
          "internalType": "string",
          "name": "",
          "type": "string"
        }
      ],
      "stateMutability": "view",
      "type": "function"
    },
    {
      "inputs": [
        {
          "internalType": "address",
          "name": "owner",
          "type": "address"
        }
      ],
      "name": "nonces",
      "outputs": [
        {
          "internalType": "uint256",
          "name": "",
          "type": "uint256"
        }
      ],
      "stateMutability": "view",
      "type": "function"
    },
    {
      "inputs": [
        {
          "internalType": "address",
          "name": "account",
          "type": "address"
        }
      ],
      "name": "numCheckpoints",
      "outputs": [
        {
          "internalType": "uint32",
          "name": "",
          "type": "uint32"
        }
      ],
      "stateMutability": "view",
      "type": "function"
    },
    {
      "inputs": [],
      "name": "owner",
      "outputs": [
        {
          "internalType": "address",
          "name": "",
          "type": "address"
        }
      ],
      "stateMutability": "view",
      "type": "function"
    },
    {
      "inputs": [
        {
          "internalType": "address",
          "name": "owner",
          "type": "address"
        },
        {
          "internalType": "address",
          "name": "spender",
          "type": "address"
        },
        {
          "internalType": "uint256",
          "name": "value",
          "type": "uint256"
        },
        {
          "internalType": "uint256",
          "name": "deadline",
          "type": "uint256"
        },
        {
          "internalType": "uint8",
          "name": "v",
          "type": "uint8"
        },
        {
          "internalType": "bytes32",
          "name": "r",
          "type": "bytes32"
        },
        {
          "internalType": "bytes32",
          "name": "s",
          "type": "bytes32"
        }
      ],
      "name": "permit",
      "outputs": [],
      "stateMutability": "nonpayable",
      "type": "function"
    },
    {
      "inputs": [],
      "name": "renounceOwnership",
      "outputs": [],
      "stateMutability": "nonpayable",
      "type": "function"
    },
    {
      "inputs": [],
      "name": "symbol",
      "outputs": [
        {
          "internalType": "string",
          "name": "",
          "type": "string"
        }
      ],
      "stateMutability": "view",
      "type": "function"
    },
    {
      "inputs": [],
      "name": "taxRate",
      "outputs": [
        {
          "internalType": "uint256",
          "name": "",
          "type": "uint256"
        }
      ],
      "stateMutability": "view",
      "type": "function"
    },
    {
      "inputs": [],
      "name": "totalSupply",
      "outputs": [
        {
          "internalType": "uint256",
          "name": "",
          "type": "uint256"
        }
      ],
      "stateMutability": "view",
      "type": "function"
    },
    {
      "inputs": [
        {
          "internalType": "address",
          "name": "to",
          "type": "address"
        },
        {
          "internalType": "uint256",
          "name": "amount",
          "type": "uint256"
        }
      ],
      "name": "transfer",
      "outputs": [
        {
          "internalType": "bool",
          "name": "",
          "type": "bool"
        }
      ],
      "stateMutability": "nonpayable",
      "type": "function"
    },
    {
      "inputs": [
        {
          "internalType": "address",
          "name": "from",
          "type": "address"
        },
        {
          "internalType": "address",
          "name": "to",
          "type": "address"
        },
        {
          "internalType": "uint256",
          "name": "amount",
          "type": "uint256"
        }
      ],
      "name": "transferFrom",
      "outputs": [
        {
          "internalType": "bool",
          "name": "",
          "type": "bool"
        }
      ],
      "stateMutability": "nonpayable",
      "type": "function"
    },
    {
      "inputs": [
        {
          "internalType": "address",
          "name": "newOwner",
          "type": "address"
        }
      ],
      "name": "transferOwnership",
      "outputs": [],
      "stateMutability": "nonpayable",
      "type": "function"
    },
    {
      "inputs": [],
      "name": "withdrawFunds",
      "outputs": [],
      "stateMutability": "nonpayable",
      "type": "function"
    },
    {
      "inputs": [
        {
          "internalType": "address",
          "name": "token",
          "type": "address"
        }
      ],
      "name": "withdrawFunds",
      "outputs": [],
      "stateMutability": "nonpayable",
      "type": "function"
    },
    {
      "stateMutability": "payable",
      "type": "receive"
    }
  ],
  "bytecode": "0x6101406040526064600b553480156200001757600080fd5b506040518060400160405280600881526020017f54616c617865756d000000000000000000000000000000000000000000000000815250806040518060400160405280600181526020017f31000000000000000000000000000000000000000000000000000000000000008152506040518060400160405280600881526020017f54616c617865756d0000000000000000000000000000000000000000000000008152506040518060400160405280600581526020017f54414c415800000000000000000000000000000000000000000000000000000081525081600390805190602001906200010992919062000cef565b5080600490805190602001906200012292919062000cef565b50505062000145620001396200024e60201b60201c565b6200025660201b60201c565b60008280519060200120905060008280519060200120905060007f8b73c3c69bb8fe3d512ecc4cf759cc79239f7b179b0ffacaa9a75d522b39400f90508260e081815250508161010081815250504660a08181525050620001ae8184846200031c60201b60201c565b608081815250503073ffffffffffffffffffffffffffffffffffffffff1660c08173ffffffffffffffffffffffffffffffffffffffff1681525050806101208181525050505050505050620002486200020c6200024e60201b60201c565b6200021c6200035860201b60201c565b600a6200022a919062000f39565b6404e3b292006200023c919062000f8a565b6200036160201b60201c565b6200144b565b600033905090565b6000600560009054906101000a900473ffffffffffffffffffffffffffffffffffffffff16905081600560006101000a81548173ffffffffffffffffffffffffffffffffffffffff021916908373ffffffffffffffffffffffffffffffffffffffff1602179055508173ffffffffffffffffffffffffffffffffffffffff168173ffffffffffffffffffffffffffffffffffffffff167f8be0079c531659141344cd1fd0a4f28419497f9722a3daafe3b4186f6b6457e060405160405180910390a35050565b60008383834630604051602001620003399594939291906200105c565b6040516020818303038152906040528051906020012090509392505050565b60006012905090565b6200037882826200037c60201b620015311760201c565b5050565b6200039382826200043a60201b620015be1760201c565b620003a3620005a860201b60201c565b7bffffffffffffffffffffffffffffffffffffffffffffffffffffffff16620003d1620005cc60201b60201c565b111562000415576040517f08c379a00000000000000000000000000000000000000000000000000000000081526004016200040c9062001140565b60405180910390fd5b62000434600a620005d660201b620017151783620005ee60201b60201c565b50505050565b600073ffffffffffffffffffffffffffffffffffffffff168273ffffffffffffffffffffffffffffffffffffffff161415620004ad576040517f08c379a0000000000000000000000000000000000000000000000000000000008152600401620004a490620011b2565b60405180910390fd5b620004c160008383620008fb60201b60201c565b8060026000828254620004d59190620011d4565b92505081905550806000808473ffffffffffffffffffffffffffffffffffffffff1673ffffffffffffffffffffffffffffffffffffffff168152602001908152602001600020600082825401925050819055508173ffffffffffffffffffffffffffffffffffffffff16600073ffffffffffffffffffffffffffffffffffffffff167fddf252ad1be2c89b69c2b068fc378daa952ba7f163c4a11628f55a4df523b3ef8360405162000588919062001231565b60405180910390a3620005a4600083836200090060201b60201c565b5050565b60007bffffffffffffffffffffffffffffffffffffffffffffffffffffffff905090565b6000600254905090565b60008183620005e69190620011d4565b905092915050565b6000806000858054905090506000808214620006c95762000624876001846200061891906200124e565b6200091d60201b60201c565b6040518060400160405290816000820160009054906101000a900463ffffffff1663ffffffff1663ffffffff1681526020016000820160049054906101000a90047bffffffffffffffffffffffffffffffffffffffffffffffffffffffff167bffffffffffffffffffffffffffffffffffffffffffffffffffffffff167bffffffffffffffffffffffffffffffffffffffffffffffffffffffff168152505062000705565b6040518060400160405280600063ffffffff16815260200160007bffffffffffffffffffffffffffffffffffffffffffffffffffffffff168152505b905080602001517bffffffffffffffffffffffffffffffffffffffffffffffffffffffff1693506200073884868860201c565b925060008211801562000754575043816000015163ffffffff16145b15620007e75762000770836200093260201b6200172b1760201c565b62000790886001856200078491906200124e565b6200091d60201b60201c565b60000160046101000a8154817bffffffffffffffffffffffffffffffffffffffffffffffffffffffff02191690837bffffffffffffffffffffffffffffffffffffffffffffffffffffffff160217905550620008f1565b8660405180604001604052806200080943620009a060201b620017961760201c565b63ffffffff1681526020016200082a866200093260201b6200172b1760201c565b7bffffffffffffffffffffffffffffffffffffffffffffffffffffffff168152509080600181540180825580915050600190039060005260206000200160009091909190915060008201518160000160006101000a81548163ffffffff021916908363ffffffff16021790555060208201518160000160046101000a8154817bffffffffffffffffffffffffffffffffffffffffffffffffffffffff02191690837bffffffffffffffffffffffffffffffffffffffffffffffffffffffff16021790555050505b5050935093915050565b505050565b62000918838383620009f660201b620017e91760201c565b505050565b60008260005281602060002001905092915050565b60007bffffffffffffffffffffffffffffffffffffffffffffffffffffffff801682111562000998576040517f08c379a00000000000000000000000000000000000000000000000000000000081526004016200098f90620012ff565b60405180910390fd5b819050919050565b600063ffffffff8016821115620009ee576040517f08c379a0000000000000000000000000000000000000000000000000000000008152600401620009e59062001397565b60405180910390fd5b819050919050565b62000a0e83838362000a4660201b620018141760201c565b62000a4162000a238462000a4b60201b60201c565b62000a348462000a4b60201b60201c565b8362000ab460201b60201c565b505050565b505050565b6000600860008373ffffffffffffffffffffffffffffffffffffffff1673ffffffffffffffffffffffffffffffffffffffff16815260200190815260200160002060009054906101000a900473ffffffffffffffffffffffffffffffffffffffff169050919050565b8173ffffffffffffffffffffffffffffffffffffffff168373ffffffffffffffffffffffffffffffffffffffff161415801562000af15750600081115b1562000cd257600073ffffffffffffffffffffffffffffffffffffffff168373ffffffffffffffffffffffffffffffffffffffff161462000be45760008062000b8b600960008773ffffffffffffffffffffffffffffffffffffffff1673ffffffffffffffffffffffffffffffffffffffff16815260200190815260200160002062000cd760201b620018191785620005ee60201b60201c565b915091508473ffffffffffffffffffffffffffffffffffffffff167fdec2bacdd2f05b59de34da9b523dff8be42e5e38e818c82fdb0bae774387a724838360405162000bd9929190620013b9565b60405180910390a250505b600073ffffffffffffffffffffffffffffffffffffffff168273ffffffffffffffffffffffffffffffffffffffff161462000cd15760008062000c78600960008673ffffffffffffffffffffffffffffffffffffffff1673ffffffffffffffffffffffffffffffffffffffff168152602001908152602001600020620005d660201b620017151785620005ee60201b60201c565b915091508373ffffffffffffffffffffffffffffffffffffffff167fdec2bacdd2f05b59de34da9b523dff8be42e5e38e818c82fdb0bae774387a724838360405162000cc6929190620013b9565b60405180910390a250505b5b505050565b6000818362000ce791906200124e565b905092915050565b82805462000cfd9062001415565b90600052602060002090601f01602090048101928262000d21576000855562000d6d565b82601f1062000d3c57805160ff191683800117855562000d6d565b8280016001018555821562000d6d579182015b8281111562000d6c57825182559160200191906001019062000d4f565b5b50905062000d7c919062000d80565b5090565b5b8082111562000d9b57600081600090555060010162000d81565b5090565b7f4e487b7100000000000000000000000000000000000000000000000000000000600052601160045260246000fd5b60008160011c9050919050565b6000808291508390505b600185111562000e2d5780860481111562000e055762000e0462000d9f565b5b600185161562000e155780820291505b808102905062000e258562000dce565b945062000de5565b94509492505050565b60008262000e48576001905062000f1b565b8162000e58576000905062000f1b565b816001811462000e71576002811462000e7c5762000eb2565b600191505062000f1b565b60ff84111562000e915762000e9062000d9f565b5b8360020a91508482111562000eab5762000eaa62000d9f565b5b5062000f1b565b5060208310610133831016604e8410600b841016171562000eec5782820a90508381111562000ee65762000ee562000d9f565b5b62000f1b565b62000efb848484600162000ddb565b9250905081840481111562000f155762000f1462000d9f565b5b81810290505b9392505050565b6000819050919050565b600060ff82169050919050565b600062000f468262000f22565b915062000f538362000f2c565b925062000f827fffffffffffffffffffffffffffffffffffffffffffffffffffffffffffffffff848462000e36565b905092915050565b600062000f978262000f22565b915062000fa48362000f22565b9250817fffffffffffffffffffffffffffffffffffffffffffffffffffffffffffffffff048311821515161562000fe05762000fdf62000d9f565b5b828202905092915050565b6000819050919050565b620010008162000feb565b82525050565b620010118162000f22565b82525050565b600073ffffffffffffffffffffffffffffffffffffffff82169050919050565b6000620010448262001017565b9050919050565b620010568162001037565b82525050565b600060a08201905062001073600083018862000ff5565b62001082602083018762000ff5565b62001091604083018662000ff5565b620010a0606083018562001006565b620010af60808301846200104b565b9695505050505050565b600082825260208201905092915050565b7f4552433230566f7465733a20746f74616c20737570706c79207269736b73206f60008201527f766572666c6f77696e6720766f74657300000000000000000000000000000000602082015250565b600062001128603083620010b9565b91506200113582620010ca565b604082019050919050565b600060208201905081810360008301526200115b8162001119565b9050919050565b7f45524332303a206d696e7420746f20746865207a65726f206164647265737300600082015250565b60006200119a601f83620010b9565b9150620011a78262001162565b602082019050919050565b60006020820190508181036000830152620011cd816200118b565b9050919050565b6000620011e18262000f22565b9150620011ee8362000f22565b9250827fffffffffffffffffffffffffffffffffffffffffffffffffffffffffffffffff0382111562001226576200122562000d9f565b5b828201905092915050565b600060208201905062001248600083018462001006565b92915050565b60006200125b8262000f22565b9150620012688362000f22565b9250828210156200127e576200127d62000d9f565b5b828203905092915050565b7f53616665436173743a2076616c756520646f65736e27742066697420696e203260008201527f3234206269747300000000000000000000000000000000000000000000000000602082015250565b6000620012e7602783620010b9565b9150620012f48262001289565b604082019050919050565b600060208201905081810360008301526200131a81620012d8565b9050919050565b7f53616665436173743a2076616c756520646f65736e27742066697420696e203360008201527f3220626974730000000000000000000000000000000000000000000000000000602082015250565b60006200137f602683620010b9565b91506200138c8262001321565b604082019050919050565b60006020820190508181036000830152620013b28162001370565b9050919050565b6000604082019050620013d0600083018562001006565b620013df602083018462001006565b9392505050565b7f4e487b7100000000000000000000000000000000000000000000000000000000600052602260045260246000fd5b600060028204905060018216806200142e57607f821691505b60208210811415620014455762001444620013e6565b5b50919050565b60805160a05160c05160e0516101005161012051614c0d6200149b6000396000611bca01526000611c0c01526000611beb01526000611b2001526000611b7601526000611b9f0152614c0d6000f3fe6080604052600436106101f25760003560e01c80636fcfff451161010d57806395d89b41116100a0578063c3cda5201161006f578063c3cda52014610753578063d505accf1461077c578063dd62ed3e146107a5578063f1127ed8146107e2578063f2fde38b1461081f576101f9565b806395d89b41146106715780639ab24eb01461069c578063a457c2d7146106d9578063a9059cbb14610716576101f9565b806379cc6790116100dc57806379cc6790146105a35780637ecebe00146105cc5780638da5cb5b146106095780638e539e8c14610634576101f9565b80636fcfff45146104e757806370a0823114610524578063715018a614610561578063771a3a1d14610578576101f9565b8063395093511161018557806342966c681161015457806342966c681461042f578063587cde1e146104585780635c19a95c1461049557806368742da6146104be576101f9565b806339509351146103635780633a46b1a8146103a05780633e45c8af146103dd57806340c10f1914610406576101f9565b806323b872dd116101c157806323b872dd146102b957806324600fc3146102f6578063313ce5671461030d5780633644e51514610338576101f9565b806306fdde03146101fb578063095ea7b31461022657806312065fe01461026357806318160ddd1461028e576101f9565b366101f957005b005b34801561020757600080fd5b50610210610848565b60405161021d919061328e565b60405180910390f35b34801561023257600080fd5b5061024d60048036038101906102489190613349565b6108da565b60405161025a91906133a4565b60405180910390f35b34801561026f57600080fd5b506102786108fd565b60405161028591906133ce565b60405180910390f35b34801561029a57600080fd5b506102a3610905565b6040516102b091906133ce565b60405180910390f35b3480156102c557600080fd5b506102e060048036038101906102db91906133e9565b61090f565b6040516102ed91906133a4565b60405180910390f35b34801561030257600080fd5b5061030b61093e565b005b34801561031957600080fd5b50610322610a03565b60405161032f9190613458565b60405180910390f35b34801561034457600080fd5b5061034d610a0c565b60405161035a919061348c565b60405180910390f35b34801561036f57600080fd5b5061038a60048036038101906103859190613349565b610a1b565b60405161039791906133a4565b60405180910390f35b3480156103ac57600080fd5b506103c760048036038101906103c29190613349565b610a52565b6040516103d491906133ce565b60405180910390f35b3480156103e957600080fd5b5061040460048036038101906103ff91906134a7565b610ae6565b005b34801561041257600080fd5b5061042d60048036038101906104289190613349565b610b74565b005b34801561043b57600080fd5b50610456600480360381019061045191906134a7565b610b8a565b005b34801561046457600080fd5b5061047f600480360381019061047a91906134d4565b610b9e565b60405161048c9190613510565b60405180910390f35b3480156104a157600080fd5b506104bc60048036038101906104b791906134d4565b610c07565b005b3480156104ca57600080fd5b506104e560048036038101906104e091906134d4565b610c1b565b005b3480156104f357600080fd5b5061050e600480360381019061050991906134d4565b610cb1565b60405161051b919061354a565b60405180910390f35b34801561053057600080fd5b5061054b600480360381019061054691906134d4565b610d05565b60405161055891906133ce565b60405180910390f35b34801561056d57600080fd5b50610576610d4d565b005b34801561058457600080fd5b5061058d610d61565b60405161059a91906133ce565b60405180910390f35b3480156105af57600080fd5b506105ca60048036038101906105c59190613349565b610d67565b005b3480156105d857600080fd5b506105f360048036038101906105ee91906134d4565b610d87565b60405161060091906133ce565b60405180910390f35b34801561061557600080fd5b5061061e610dd7565b60405161062b9190613510565b60405180910390f35b34801561064057600080fd5b5061065b600480360381019061065691906134a7565b610e01565b60405161066891906133ce565b60405180910390f35b34801561067d57600080fd5b50610686610e57565b604051610693919061328e565b60405180910390f35b3480156106a857600080fd5b506106c360048036038101906106be91906134d4565b610ee9565b6040516106d091906133ce565b60405180910390f35b3480156106e557600080fd5b5061070060048036038101906106fb9190613349565b610ffa565b60405161070d91906133a4565b60405180910390f35b34801561072257600080fd5b5061073d60048036038101906107389190613349565b611071565b60405161074a91906133a4565b60405180910390f35b34801561075f57600080fd5b5061077a600480360381019061077591906135bd565b6110d0565b005b34801561078857600080fd5b506107a3600480360381019061079e919061364a565b6111d4565b005b3480156107b157600080fd5b506107cc60048036038101906107c791906136ec565b611316565b6040516107d991906133ce565b60405180910390f35b3480156107ee57600080fd5b5061080960048036038101906108049190613758565b61139d565b604051610816919061380d565b60405180910390f35b34801561082b57600080fd5b50610846600480360381019061084191906134d4565b6114ad565b005b60606003805461085790613857565b80601f016020809104026020016040519081016040528092919081815260200182805461088390613857565b80156108d05780601f106108a5576101008083540402835291602001916108d0565b820191906000526020600020905b8154815290600101906020018083116108b357829003601f168201915b5050505050905090565b6000806108e561182f565b90506108f2818585611837565b600191505092915050565b600047905090565b6000600254905090565b60008061091a61182f565b9050610927858285611a02565b610932858585611a8e565b60019150509392505050565b610946611a9e565b6000610950610dd7565b73ffffffffffffffffffffffffffffffffffffffff1647604051610973906138ba565b60006040518083038185875af1925050503d80600081146109b0576040519150601f19603f3d011682016040523d82523d6000602084013e6109b5565b606091505b505090506001151581151514610a00576040517f08c379a00000000000000000000000000000000000000000000000000000000081526004016109f79061391b565b60405180910390fd5b50565b60006012905090565b6000610a16611b1c565b905090565b600080610a2661182f565b9050610a47818585610a388589611316565b610a42919061396a565b611837565b600191505092915050565b6000438210610a96576040517f08c379a0000000000000000000000000000000000000000000000000000000008152600401610a8d90613a0c565b60405180910390fd5b610ade600960008573ffffffffffffffffffffffffffffffffffffffff1673ffffffffffffffffffffffffffffffffffffffff16815260200190815260200160002083611c36565b905092915050565b610aee611a9e565b6005600b5410610b33576040517f08c379a0000000000000000000000000000000000000000000000000000000008152600401610b2a90613a78565b60405180910390fd5b80600b819055507fb2442d3ff243b2c486384ca93de99597291265a56cc11d3f99c27ab2a96c1f2481604051610b6991906133ce565b60405180910390a150565b610b7c611a9e565b610b868282611d87565b5050565b610b9b610b9561182f565b82611d95565b50565b6000600860008373ffffffffffffffffffffffffffffffffffffffff1673ffffffffffffffffffffffffffffffffffffffff16815260200190815260200160002060009054906101000a900473ffffffffffffffffffffffffffffffffffffffff169050919050565b610c18610c1261182f565b82611da3565b50565b610c23611a9e565b610cae81610c2f610dd7565b8373ffffffffffffffffffffffffffffffffffffffff166370a08231306040518263ffffffff1660e01b8152600401610c689190613510565b602060405180830381865afa158015610c85573d6000803e3d6000fd5b505050506040513d601f19601f82011682018060405250810190610ca99190613aad565b611ebd565b50565b6000610cfe600960008473ffffffffffffffffffffffffffffffffffffffff1673ffffffffffffffffffffffffffffffffffffffff16815260200190815260200160002080549050611796565b9050919050565b60008060008373ffffffffffffffffffffffffffffffffffffffff1673ffffffffffffffffffffffffffffffffffffffff168152602001908152602001600020549050919050565b610d55611a9e565b610d5f6000611f43565b565b600b5481565b610d7982610d7361182f565b83611a02565b610d838282611d95565b5050565b6000610dd0600660008473ffffffffffffffffffffffffffffffffffffffff1673ffffffffffffffffffffffffffffffffffffffff168152602001908152602001600020612009565b9050919050565b6000600560009054906101000a900473ffffffffffffffffffffffffffffffffffffffff16905090565b6000438210610e45576040517f08c379a0000000000000000000000000000000000000000000000000000000008152600401610e3c90613a0c565b60405180910390fd5b610e50600a83611c36565b9050919050565b606060048054610e6690613857565b80601f0160208091040260200160405190810160405280929190818152602001828054610e9290613857565b8015610edf5780601f10610eb457610100808354040283529160200191610edf565b820191906000526020600020905b815481529060010190602001808311610ec257829003601f168201915b5050505050905090565b600080600960008473ffffffffffffffffffffffffffffffffffffffff1673ffffffffffffffffffffffffffffffffffffffff16815260200190815260200160002080549050905060008114610fd157600960008473ffffffffffffffffffffffffffffffffffffffff1673ffffffffffffffffffffffffffffffffffffffff168152602001908152602001600020600182610f859190613ada565b81548110610f9657610f95613b0e565b5b9060005260206000200160000160049054906101000a90047bffffffffffffffffffffffffffffffffffffffffffffffffffffffff16610fd4565b60005b7bffffffffffffffffffffffffffffffffffffffffffffffffffffffff16915050919050565b60008061100561182f565b905060006110138286611316565b905083811015611058576040517f08c379a000000000000000000000000000000000000000000000000000000000815260040161104f90613baf565b60405180910390fd5b6110658286868403611837565b60019250505092915050565b60008061107c61182f565b90506000612710600b54856110919190613bcf565b61109b9190613c58565b9050600081856110ab9190613ada565b90506110b8833084611a8e565b6110c3838783611a8e565b6001935050505092915050565b83421115611113576040517f08c379a000000000000000000000000000000000000000000000000000000000815260040161110a90613cd5565b60405180910390fd5b600061117561116d7fe48329057bfd03d55e49b547132e39cffd9c1820ad7b9d4c5307691425d15adf8989896040516020016111529493929190613cf5565b60405160208183030381529060405280519060200120612017565b858585612031565b90506111808161205c565b86146111c1576040517f08c379a00000000000000000000000000000000000000000000000000000000081526004016111b890613d86565b60405180910390fd5b6111cb8188611da3565b50505050505050565b83421115611217576040517f08c379a000000000000000000000000000000000000000000000000000000000815260040161120e90613df2565b60405180910390fd5b60007f6e71edae12b1b97f4d1f60370fef10105fa2faae0126114a169c64845d6126c98888886112468c61205c565b8960405160200161125c96959493929190613e12565b604051602081830303815290604052805190602001209050600061127f82612017565b9050600061128f82878787612031565b90508973ffffffffffffffffffffffffffffffffffffffff168173ffffffffffffffffffffffffffffffffffffffff16146112ff576040517f08c379a00000000000000000000000000000000000000000000000000000000081526004016112f690613ebf565b60405180910390fd5b61130a8a8a8a611837565b50505050505050505050565b6000600160008473ffffffffffffffffffffffffffffffffffffffff1673ffffffffffffffffffffffffffffffffffffffff16815260200190815260200160002060008373ffffffffffffffffffffffffffffffffffffffff1673ffffffffffffffffffffffffffffffffffffffff16815260200190815260200160002054905092915050565b6113a56131b7565b600960008473ffffffffffffffffffffffffffffffffffffffff1673ffffffffffffffffffffffffffffffffffffffff1681526020019081526020016000208263ffffffff16815481106113fc576113fb613b0e565b5b906000526020600020016040518060400160405290816000820160009054906101000a900463ffffffff1663ffffffff1663ffffffff1681526020016000820160049054906101000a90047bffffffffffffffffffffffffffffffffffffffffffffffffffffffff167bffffffffffffffffffffffffffffffffffffffffffffffffffffffff167bffffffffffffffffffffffffffffffffffffffffffffffffffffffff1681525050905092915050565b6114b5611a9e565b600073ffffffffffffffffffffffffffffffffffffffff168173ffffffffffffffffffffffffffffffffffffffff161415611525576040517f08c379a000000000000000000000000000000000000000000000000000000000815260040161151c90613f51565b60405180910390fd5b61152e81611f43565b50565b61153b82826115be565b6115436120ba565b7bffffffffffffffffffffffffffffffffffffffffffffffffffffffff16611569610905565b11156115aa576040517f08c379a00000000000000000000000000000000000000000000000000000000081526004016115a190613fe3565b60405180910390fd5b6115b8600a611715836120de565b50505050565b600073ffffffffffffffffffffffffffffffffffffffff168273ffffffffffffffffffffffffffffffffffffffff16141561162e576040517f08c379a00000000000000000000000000000000000000000000000000000000081526004016116259061404f565b60405180910390fd5b61163a600083836123ad565b806002600082825461164c919061396a565b92505081905550806000808473ffffffffffffffffffffffffffffffffffffffff1673ffffffffffffffffffffffffffffffffffffffff168152602001908152602001600020600082825401925050819055508173ffffffffffffffffffffffffffffffffffffffff16600073ffffffffffffffffffffffffffffffffffffffff167fddf252ad1be2c89b69c2b068fc378daa952ba7f163c4a11628f55a4df523b3ef836040516116fd91906133ce565b60405180910390a3611711600083836123b2565b5050565b60008183611723919061396a565b905092915050565b60007bffffffffffffffffffffffffffffffffffffffffffffffffffffffff801682111561178e576040517f08c379a0000000000000000000000000000000000000000000000000000000008152600401611785906140e1565b60405180910390fd5b819050919050565b600063ffffffff80168211156117e1576040517f08c379a00000000000000000000000000000000000000000000000000000000081526004016117d890614173565b60405180910390fd5b819050919050565b6117f4838383611814565b61180f61180084610b9e565b61180984610b9e565b836123c2565b505050565b505050565b600081836118279190613ada565b905092915050565b600033905090565b600073ffffffffffffffffffffffffffffffffffffffff168373ffffffffffffffffffffffffffffffffffffffff1614156118a7576040517f08c379a000000000000000000000000000000000000000000000000000000000815260040161189e90614205565b60405180910390fd5b600073ffffffffffffffffffffffffffffffffffffffff168273ffffffffffffffffffffffffffffffffffffffff161415611917576040517f08c379a000000000000000000000000000000000000000000000000000000000815260040161190e90614297565b60405180910390fd5b80600160008573ffffffffffffffffffffffffffffffffffffffff1673ffffffffffffffffffffffffffffffffffffffff16815260200190815260200160002060008473ffffffffffffffffffffffffffffffffffffffff1673ffffffffffffffffffffffffffffffffffffffff168152602001908152602001600020819055508173ffffffffffffffffffffffffffffffffffffffff168373ffffffffffffffffffffffffffffffffffffffff167f8c5be1e5ebec7d5bd14f71427d1e84f3dd0314c0f7b2291e5b200ac8c7c3b925836040516119f591906133ce565b60405180910390a3505050565b6000611a0e8484611316565b90507fffffffffffffffffffffffffffffffffffffffffffffffffffffffffffffffff8114611a885781811015611a7a576040517f08c379a0000000000000000000000000000000000000000000000000000000008152600401611a7190614303565b60405180910390fd5b611a878484848403611837565b5b50505050565b611a998383836125bb565b505050565b611aa661182f565b73ffffffffffffffffffffffffffffffffffffffff16611ac4610dd7565b73ffffffffffffffffffffffffffffffffffffffff1614611b1a576040517f08c379a0000000000000000000000000000000000000000000000000000000008152600401611b119061436f565b60405180910390fd5b565b60007f000000000000000000000000000000000000000000000000000000000000000073ffffffffffffffffffffffffffffffffffffffff163073ffffffffffffffffffffffffffffffffffffffff16148015611b9857507f000000000000000000000000000000000000000000000000000000000000000046145b15611bc5577f00000000000000000000000000000000000000000000000000000000000000009050611c33565b611c307f00000000000000000000000000000000000000000000000000000000000000007f00000000000000000000000000000000000000000000000000000000000000007f0000000000000000000000000000000000000000000000000000000000000000612833565b90505b90565b600080838054905090506000808290506005831115611cac576000611c5a8461286d565b84611c659190613ada565b905085611c728883612967565b60000160009054906101000a900463ffffffff1663ffffffff161115611c9a57809150611caa565b600181611ca7919061396a565b92505b505b5b80821015611d0c576000611cc1838361297c565b905085611cce8883612967565b60000160009054906101000a900463ffffffff1663ffffffff161115611cf657809150611d06565b600181611d03919061396a565b92505b50611cad565b60008114611d5b57611d2a86600183611d259190613ada565b612967565b60000160049054906101000a90047bffffffffffffffffffffffffffffffffffffffffffffffffffffffff16611d5e565b60005b7bffffffffffffffffffffffffffffffffffffffffffffffffffffffff16935050505092915050565b611d918282611531565b5050565b611d9f82826129a2565b5050565b6000611dae83610b9e565b90506000611dbb84610d05565b905082600860008673ffffffffffffffffffffffffffffffffffffffff1673ffffffffffffffffffffffffffffffffffffffff16815260200190815260200160002060006101000a81548173ffffffffffffffffffffffffffffffffffffffff021916908373ffffffffffffffffffffffffffffffffffffffff1602179055508273ffffffffffffffffffffffffffffffffffffffff168273ffffffffffffffffffffffffffffffffffffffff168573ffffffffffffffffffffffffffffffffffffffff167f3134e8a2e6d97e929a7e54011ea5485d7d196dd5f0ba4d4ef95803e8e3fc257f60405160405180910390a4611eb78284836123c2565b50505050565b611f3e8363a9059cbb60e01b8484604051602401611edc92919061438f565b604051602081830303815290604052907bffffffffffffffffffffffffffffffffffffffffffffffffffffffff19166020820180517bffffffffffffffffffffffffffffffffffffffffffffffffffffffff83818316178352505050506129c0565b505050565b6000600560009054906101000a900473ffffffffffffffffffffffffffffffffffffffff16905081600560006101000a81548173ffffffffffffffffffffffffffffffffffffffff021916908373ffffffffffffffffffffffffffffffffffffffff1602179055508173ffffffffffffffffffffffffffffffffffffffff168173ffffffffffffffffffffffffffffffffffffffff167f8be0079c531659141344cd1fd0a4f28419497f9722a3daafe3b4186f6b6457e060405160405180910390a35050565b600081600001549050919050565b600061202a612024611b1c565b83612a87565b9050919050565b600080600061204287878787612aba565b9150915061204f81612b9d565b8192505050949350505050565b600080600660008473ffffffffffffffffffffffffffffffffffffffff1673ffffffffffffffffffffffffffffffffffffffff16815260200190815260200160002090506120a981612009565b91506120b481612d0b565b50919050565b60007bffffffffffffffffffffffffffffffffffffffffffffffffffffffff905090565b60008060008580549050905060008082146121ad57612109876001846121049190613ada565b612967565b6040518060400160405290816000820160009054906101000a900463ffffffff1663ffffffff1663ffffffff1681526020016000820160049054906101000a90047bffffffffffffffffffffffffffffffffffffffffffffffffffffffff167bffffffffffffffffffffffffffffffffffffffffffffffffffffffff167bffffffffffffffffffffffffffffffffffffffffffffffffffffffff16815250506121e9565b6040518060400160405280600063ffffffff16815260200160007bffffffffffffffffffffffffffffffffffffffffffffffffffffffff168152505b905080602001517bffffffffffffffffffffffffffffffffffffffffffffffffffffffff16935061221e84868863ffffffff16565b9250600082118015612239575043816000015163ffffffff16145b156122b3576122478361172b565b61225d886001856122589190613ada565b612967565b60000160046101000a8154817bffffffffffffffffffffffffffffffffffffffffffffffffffffffff02191690837bffffffffffffffffffffffffffffffffffffffffffffffffffffffff1602179055506123a3565b8660405180604001604052806122c843611796565b63ffffffff1681526020016122dc8661172b565b7bffffffffffffffffffffffffffffffffffffffffffffffffffffffff168152509080600181540180825580915050600190039060005260206000200160009091909190915060008201518160000160006101000a81548163ffffffff021916908363ffffffff16021790555060208201518160000160046101000a8154817bffffffffffffffffffffffffffffffffffffffffffffffffffffffff02191690837bffffffffffffffffffffffffffffffffffffffffffffffffffffffff16021790555050505b5050935093915050565b505050565b6123bd8383836117e9565b505050565b8173ffffffffffffffffffffffffffffffffffffffff168373ffffffffffffffffffffffffffffffffffffffff16141580156123fe5750600081115b156125b657600073ffffffffffffffffffffffffffffffffffffffff168373ffffffffffffffffffffffffffffffffffffffff16146124dc57600080612485600960008773ffffffffffffffffffffffffffffffffffffffff1673ffffffffffffffffffffffffffffffffffffffff168152602001908152602001600020611819856120de565b915091508473ffffffffffffffffffffffffffffffffffffffff167fdec2bacdd2f05b59de34da9b523dff8be42e5e38e818c82fdb0bae774387a72483836040516124d19291906143b8565b60405180910390a250505b600073ffffffffffffffffffffffffffffffffffffffff168273ffffffffffffffffffffffffffffffffffffffff16146125b55760008061255e600960008673ffffffffffffffffffffffffffffffffffffffff1673ffffffffffffffffffffffffffffffffffffffff168152602001908152602001600020611715856120de565b915091508373ffffffffffffffffffffffffffffffffffffffff167fdec2bacdd2f05b59de34da9b523dff8be42e5e38e818c82fdb0bae774387a72483836040516125aa9291906143b8565b60405180910390a250505b5b505050565b600073ffffffffffffffffffffffffffffffffffffffff168373ffffffffffffffffffffffffffffffffffffffff16141561262b576040517f08c379a000000000000000000000000000000000000000000000000000000000815260040161262290614453565b60405180910390fd5b600073ffffffffffffffffffffffffffffffffffffffff168273ffffffffffffffffffffffffffffffffffffffff16141561269b576040517f08c379a0000000000000000000000000000000000000000000000000000000008152600401612692906144e5565b60405180910390fd5b6126a68383836123ad565b60008060008573ffffffffffffffffffffffffffffffffffffffff1673ffffffffffffffffffffffffffffffffffffffff1681526020019081526020016000205490508181101561272c576040517f08c379a000000000000000000000000000000000000000000000000000000000815260040161272390614577565b60405180910390fd5b8181036000808673ffffffffffffffffffffffffffffffffffffffff1673ffffffffffffffffffffffffffffffffffffffff16815260200190815260200160002081905550816000808573ffffffffffffffffffffffffffffffffffffffff1673ffffffffffffffffffffffffffffffffffffffff168152602001908152602001600020600082825401925050819055508273ffffffffffffffffffffffffffffffffffffffff168473ffffffffffffffffffffffffffffffffffffffff167fddf252ad1be2c89b69c2b068fc378daa952ba7f163c4a11628f55a4df523b3ef8460405161281a91906133ce565b60405180910390a361282d8484846123b2565b50505050565b6000838383463060405160200161284e959493929190614597565b6040516020818303038152906040528051906020012090509392505050565b6000808214156128805760009050612962565b6000600161288d84612d21565b901c6001901b905060018184816128a7576128a6613c29565b5b048201901c905060018184816128c0576128bf613c29565b5b048201901c905060018184816128d9576128d8613c29565b5b048201901c905060018184816128f2576128f1613c29565b5b048201901c9050600181848161290b5761290a613c29565b5b048201901c9050600181848161292457612923613c29565b5b048201901c9050600181848161293d5761293c613c29565b5b048201901c905061295e8182858161295857612957613c29565b5b04612e02565b9150505b919050565b60008260005281602060002001905092915050565b6000600282841861298d9190613c58565b82841661299a919061396a565b905092915050565b6129ac8282612e1b565b6129ba600a611819836120de565b50505050565b6000612a22826040518060400160405280602081526020017f5361666545524332303a206c6f772d6c6576656c2063616c6c206661696c65648152508573ffffffffffffffffffffffffffffffffffffffff16612fe99092919063ffffffff16565b9050600081511115612a825780806020019051810190612a429190614616565b612a81576040517f08c379a0000000000000000000000000000000000000000000000000000000008152600401612a78906146b5565b60405180910390fd5b5b505050565b60008282604051602001612a9c92919061474d565b60405160208183030381529060405280519060200120905092915050565b6000807f7fffffffffffffffffffffffffffffff5d576e7357a4501ddfe92f46681b20a08360001c1115612af5576000600391509150612b94565b600060018787878760405160008152602001604052604051612b1a9493929190614784565b6020604051602081039080840390855afa158015612b3c573d6000803e3d6000fd5b505050602060405103519050600073ffffffffffffffffffffffffffffffffffffffff168173ffffffffffffffffffffffffffffffffffffffff161415612b8b57600060019250925050612b94565b80600092509250505b94509492505050565b60006004811115612bb157612bb06147c9565b5b816004811115612bc457612bc36147c9565b5b1415612bcf57612d08565b60016004811115612be357612be26147c9565b5b816004811115612bf657612bf56147c9565b5b1415612c37576040517f08c379a0000000000000000000000000000000000000000000000000000000008152600401612c2e90614844565b60405180910390fd5b60026004811115612c4b57612c4a6147c9565b5b816004811115612c5e57612c5d6147c9565b5b1415612c9f576040517f08c379a0000000000000000000000000000000000000000000000000000000008152600401612c96906148b0565b60405180910390fd5b60036004811115612cb357612cb26147c9565b5b816004811115612cc657612cc56147c9565b5b1415612d07576040517f08c379a0000000000000000000000000000000000000000000000000000000008152600401612cfe90614942565b60405180910390fd5b5b50565b6001816000016000828254019250508190555050565b600080600090506000608084901c1115612d4357608083901c92506080810190505b6000604084901c1115612d5e57604083901c92506040810190505b6000602084901c1115612d7957602083901c92506020810190505b6000601084901c1115612d9457601083901c92506010810190505b6000600884901c1115612daf57600883901c92506008810190505b6000600484901c1115612dca57600483901c92506004810190505b6000600284901c1115612de557600283901c92506002810190505b6000600184901c1115612df9576001810190505b80915050919050565b6000818310612e115781612e13565b825b905092915050565b600073ffffffffffffffffffffffffffffffffffffffff168273ffffffffffffffffffffffffffffffffffffffff161415612e8b576040517f08c379a0000000000000000000000000000000000000000000000000000000008152600401612e82906149d4565b60405180910390fd5b612e97826000836123ad565b60008060008473ffffffffffffffffffffffffffffffffffffffff1673ffffffffffffffffffffffffffffffffffffffff16815260200190815260200160002054905081811015612f1d576040517f08c379a0000000000000000000000000000000000000000000000000000000008152600401612f1490614a66565b60405180910390fd5b8181036000808573ffffffffffffffffffffffffffffffffffffffff1673ffffffffffffffffffffffffffffffffffffffff1681526020019081526020016000208190555081600260008282540392505081905550600073ffffffffffffffffffffffffffffffffffffffff168373ffffffffffffffffffffffffffffffffffffffff167fddf252ad1be2c89b69c2b068fc378daa952ba7f163c4a11628f55a4df523b3ef84604051612fd091906133ce565b60405180910390a3612fe4836000846123b2565b505050565b6060612ff88484600085613001565b90509392505050565b606082471015613046576040517f08c379a000000000000000000000000000000000000000000000000000000000815260040161303d90614af8565b60405180910390fd5b6000808673ffffffffffffffffffffffffffffffffffffffff16858760405161306f9190614b54565b60006040518083038185875af1925050503d80600081146130ac576040519150601f19603f3d011682016040523d82523d6000602084013e6130b1565b606091505b50915091506130c2878383876130ce565b92505050949350505050565b6060831561313157600083511415613129576130e985613144565b613128576040517f08c379a000000000000000000000000000000000000000000000000000000000815260040161311f90614bb7565b60405180910390fd5b5b82905061313c565b61313b8383613167565b5b949350505050565b6000808273ffffffffffffffffffffffffffffffffffffffff163b119050919050565b60008251111561317a5781518083602001fd5b806040517f08c379a00000000000000000000000000000000000000000000000000000000081526004016131ae919061328e565b60405180910390fd5b6040518060400160405280600063ffffffff16815260200160007bffffffffffffffffffffffffffffffffffffffffffffffffffffffff1681525090565b600081519050919050565b600082825260208201905092915050565b60005b8381101561322f578082015181840152602081019050613214565b8381111561323e576000848401525b50505050565b6000601f19601f8301169050919050565b6000613260826131f5565b61326a8185613200565b935061327a818560208601613211565b61328381613244565b840191505092915050565b600060208201905081810360008301526132a88184613255565b905092915050565b600080fd5b600073ffffffffffffffffffffffffffffffffffffffff82169050919050565b60006132e0826132b5565b9050919050565b6132f0816132d5565b81146132fb57600080fd5b50565b60008135905061330d816132e7565b92915050565b6000819050919050565b61332681613313565b811461333157600080fd5b50565b6000813590506133438161331d565b92915050565b600080604083850312156133605761335f6132b0565b5b600061336e858286016132fe565b925050602061337f85828601613334565b9150509250929050565b60008115159050919050565b61339e81613389565b82525050565b60006020820190506133b96000830184613395565b92915050565b6133c881613313565b82525050565b60006020820190506133e360008301846133bf565b92915050565b600080600060608486031215613402576134016132b0565b5b6000613410868287016132fe565b9350506020613421868287016132fe565b925050604061343286828701613334565b9150509250925092565b600060ff82169050919050565b6134528161343c565b82525050565b600060208201905061346d6000830184613449565b92915050565b6000819050919050565b61348681613473565b82525050565b60006020820190506134a1600083018461347d565b92915050565b6000602082840312156134bd576134bc6132b0565b5b60006134cb84828501613334565b91505092915050565b6000602082840312156134ea576134e96132b0565b5b60006134f8848285016132fe565b91505092915050565b61350a816132d5565b82525050565b60006020820190506135256000830184613501565b92915050565b600063ffffffff82169050919050565b6135448161352b565b82525050565b600060208201905061355f600083018461353b565b92915050565b61356e8161343c565b811461357957600080fd5b50565b60008135905061358b81613565565b92915050565b61359a81613473565b81146135a557600080fd5b50565b6000813590506135b781613591565b92915050565b60008060008060008060c087890312156135da576135d96132b0565b5b60006135e889828a016132fe565b96505060206135f989828a01613334565b955050604061360a89828a01613334565b945050606061361b89828a0161357c565b935050608061362c89828a016135a8565b92505060a061363d89828a016135a8565b9150509295509295509295565b600080600080600080600060e0888a031215613669576136686132b0565b5b60006136778a828b016132fe565b97505060206136888a828b016132fe565b96505060406136998a828b01613334565b95505060606136aa8a828b01613334565b94505060806136bb8a828b0161357c565b93505060a06136cc8a828b016135a8565b92505060c06136dd8a828b016135a8565b91505092959891949750929550565b60008060408385031215613703576137026132b0565b5b6000613711858286016132fe565b9250506020613722858286016132fe565b9150509250929050565b6137358161352b565b811461374057600080fd5b50565b6000813590506137528161372c565b92915050565b6000806040838503121561376f5761376e6132b0565b5b600061377d858286016132fe565b925050602061378e85828601613743565b9150509250929050565b6137a18161352b565b82525050565b60007bffffffffffffffffffffffffffffffffffffffffffffffffffffffff82169050919050565b6137d8816137a7565b82525050565b6040820160008201516137f46000850182613798565b50602082015161380760208501826137cf565b50505050565b600060408201905061382260008301846137de565b92915050565b7f4e487b7100000000000000000000000000000000000000000000000000000000600052602260045260246000fd5b6000600282049050600182168061386f57607f821691505b6020821081141561388357613882613828565b5b50919050565b600081905092915050565b50565b60006138a4600083613889565b91506138af82613894565b600082019050919050565b60006138c582613897565b9150819050919050565b7f4661696c656420746f2073656e64204574686572000000000000000000000000600082015250565b6000613905601483613200565b9150613910826138cf565b602082019050919050565b60006020820190508181036000830152613934816138f8565b9050919050565b7f4e487b7100000000000000000000000000000000000000000000000000000000600052601160045260246000fd5b600061397582613313565b915061398083613313565b9250827fffffffffffffffffffffffffffffffffffffffffffffffffffffffffffffffff038211156139b5576139b461393b565b5b828201905092915050565b7f4552433230566f7465733a20626c6f636b206e6f7420796574206d696e656400600082015250565b60006139f6601f83613200565b9150613a01826139c0565b602082019050919050565b60006020820190508181036000830152613a25816139e9565b9050919050565b7f54617820466565206d6178696d756d2069732035250000000000000000000000600082015250565b6000613a62601583613200565b9150613a6d82613a2c565b602082019050919050565b60006020820190508181036000830152613a9181613a55565b9050919050565b600081519050613aa78161331d565b92915050565b600060208284031215613ac357613ac26132b0565b5b6000613ad184828501613a98565b91505092915050565b6000613ae582613313565b9150613af083613313565b925082821015613b0357613b0261393b565b5b828203905092915050565b7f4e487b7100000000000000000000000000000000000000000000000000000000600052603260045260246000fd5b7f45524332303a2064656372656173656420616c6c6f77616e63652062656c6f7760008201527f207a65726f000000000000000000000000000000000000000000000000000000602082015250565b6000613b99602583613200565b9150613ba482613b3d565b604082019050919050565b60006020820190508181036000830152613bc881613b8c565b9050919050565b6000613bda82613313565b9150613be583613313565b9250817fffffffffffffffffffffffffffffffffffffffffffffffffffffffffffffffff0483118215151615613c1e57613c1d61393b565b5b828202905092915050565b7f4e487b7100000000000000000000000000000000000000000000000000000000600052601260045260246000fd5b6000613c6382613313565b9150613c6e83613313565b925082613c7e57613c7d613c29565b5b828204905092915050565b7f4552433230566f7465733a207369676e61747572652065787069726564000000600082015250565b6000613cbf601d83613200565b9150613cca82613c89565b602082019050919050565b60006020820190508181036000830152613cee81613cb2565b9050919050565b6000608082019050613d0a600083018761347d565b613d176020830186613501565b613d2460408301856133bf565b613d3160608301846133bf565b95945050505050565b7f4552433230566f7465733a20696e76616c6964206e6f6e636500000000000000600082015250565b6000613d70601983613200565b9150613d7b82613d3a565b602082019050919050565b60006020820190508181036000830152613d9f81613d63565b9050919050565b7f45524332305065726d69743a206578706972656420646561646c696e65000000600082015250565b6000613ddc601d83613200565b9150613de782613da6565b602082019050919050565b60006020820190508181036000830152613e0b81613dcf565b9050919050565b600060c082019050613e27600083018961347d565b613e346020830188613501565b613e416040830187613501565b613e4e60608301866133bf565b613e5b60808301856133bf565b613e6860a08301846133bf565b979650505050505050565b7f45524332305065726d69743a20696e76616c6964207369676e61747572650000600082015250565b6000613ea9601e83613200565b9150613eb482613e73565b602082019050919050565b60006020820190508181036000830152613ed881613e9c565b9050919050565b7f4f776e61626c653a206e6577206f776e657220697320746865207a65726f206160008201527f6464726573730000000000000000000000000000000000000000000000000000602082015250565b6000613f3b602683613200565b9150613f4682613edf565b604082019050919050565b60006020820190508181036000830152613f6a81613f2e565b9050919050565b7f4552433230566f7465733a20746f74616c20737570706c79207269736b73206f60008201527f766572666c6f77696e6720766f74657300000000000000000000000000000000602082015250565b6000613fcd603083613200565b9150613fd882613f71565b604082019050919050565b60006020820190508181036000830152613ffc81613fc0565b9050919050565b7f45524332303a206d696e7420746f20746865207a65726f206164647265737300600082015250565b6000614039601f83613200565b915061404482614003565b602082019050919050565b600060208201905081810360008301526140688161402c565b9050919050565b7f53616665436173743a2076616c756520646f65736e27742066697420696e203260008201527f3234206269747300000000000000000000000000000000000000000000000000602082015250565b60006140cb602783613200565b91506140d68261406f565b604082019050919050565b600060208201905081810360008301526140fa816140be565b9050919050565b7f53616665436173743a2076616c756520646f65736e27742066697420696e203360008201527f3220626974730000000000000000000000000000000000000000000000000000602082015250565b600061415d602683613200565b915061416882614101565b604082019050919050565b6000602082019050818103600083015261418c81614150565b9050919050565b7f45524332303a20617070726f76652066726f6d20746865207a65726f2061646460008201527f7265737300000000000000000000000000000000000000000000000000000000602082015250565b60006141ef602483613200565b91506141fa82614193565b604082019050919050565b6000602082019050818103600083015261421e816141e2565b9050919050565b7f45524332303a20617070726f766520746f20746865207a65726f20616464726560008201527f7373000000000000000000000000000000000000000000000000000000000000602082015250565b6000614281602283613200565b915061428c82614225565b604082019050919050565b600060208201905081810360008301526142b081614274565b9050919050565b7f45524332303a20696e73756666696369656e7420616c6c6f77616e6365000000600082015250565b60006142ed601d83613200565b91506142f8826142b7565b602082019050919050565b6000602082019050818103600083015261431c816142e0565b9050919050565b7f4f776e61626c653a2063616c6c6572206973206e6f7420746865206f776e6572600082015250565b6000614359602083613200565b915061436482614323565b602082019050919050565b600060208201905081810360008301526143888161434c565b9050919050565b60006040820190506143a46000830185613501565b6143b160208301846133bf565b9392505050565b60006040820190506143cd60008301856133bf565b6143da60208301846133bf565b9392505050565b7f45524332303a207472616e736665722066726f6d20746865207a65726f20616460008201527f6472657373000000000000000000000000000000000000000000000000000000602082015250565b600061443d602583613200565b9150614448826143e1565b604082019050919050565b6000602082019050818103600083015261446c81614430565b9050919050565b7f45524332303a207472616e7366657220746f20746865207a65726f206164647260008201527f6573730000000000000000000000000000000000000000000000000000000000602082015250565b60006144cf602383613200565b91506144da82614473565b604082019050919050565b600060208201905081810360008301526144fe816144c2565b9050919050565b7f45524332303a207472616e7366657220616d6f756e742065786365656473206260008201527f616c616e63650000000000000000000000000000000000000000000000000000602082015250565b6000614561602683613200565b915061456c82614505565b604082019050919050565b6000602082019050818103600083015261459081614554565b9050919050565b600060a0820190506145ac600083018861347d565b6145b9602083018761347d565b6145c6604083018661347d565b6145d360608301856133bf565b6145e06080830184613501565b9695505050505050565b6145f381613389565b81146145fe57600080fd5b50565b600081519050614610816145ea565b92915050565b60006020828403121561462c5761462b6132b0565b5b600061463a84828501614601565b91505092915050565b7f5361666545524332303a204552433230206f7065726174696f6e20646964206e60008201527f6f74207375636365656400000000000000000000000000000000000000000000602082015250565b600061469f602a83613200565b91506146aa82614643565b604082019050919050565b600060208201905081810360008301526146ce81614692565b9050919050565b600081905092915050565b7f1901000000000000000000000000000000000000000000000000000000000000600082015250565b60006147166002836146d5565b9150614721826146e0565b600282019050919050565b6000819050919050565b61474761474282613473565b61472c565b82525050565b600061475882614709565b91506147648285614736565b6020820191506147748284614736565b6020820191508190509392505050565b6000608082019050614799600083018761347d565b6147a66020830186613449565b6147b3604083018561347d565b6147c0606083018461347d565b95945050505050565b7f4e487b7100000000000000000000000000000000000000000000000000000000600052602160045260246000fd5b7f45434453413a20696e76616c6964207369676e61747572650000000000000000600082015250565b600061482e601883613200565b9150614839826147f8565b602082019050919050565b6000602082019050818103600083015261485d81614821565b9050919050565b7f45434453413a20696e76616c6964207369676e6174757265206c656e67746800600082015250565b600061489a601f83613200565b91506148a582614864565b602082019050919050565b600060208201905081810360008301526148c98161488d565b9050919050565b7f45434453413a20696e76616c6964207369676e6174757265202773272076616c60008201527f7565000000000000000000000000000000000000000000000000000000000000602082015250565b600061492c602283613200565b9150614937826148d0565b604082019050919050565b6000602082019050818103600083015261495b8161491f565b9050919050565b7f45524332303a206275726e2066726f6d20746865207a65726f2061646472657360008201527f7300000000000000000000000000000000000000000000000000000000000000602082015250565b60006149be602183613200565b91506149c982614962565b604082019050919050565b600060208201905081810360008301526149ed816149b1565b9050919050565b7f45524332303a206275726e20616d6f756e7420657863656564732062616c616e60008201527f6365000000000000000000000000000000000000000000000000000000000000602082015250565b6000614a50602283613200565b9150614a5b826149f4565b604082019050919050565b60006020820190508181036000830152614a7f81614a43565b9050919050565b7f416464726573733a20696e73756666696369656e742062616c616e636520666f60008201527f722063616c6c0000000000000000000000000000000000000000000000000000602082015250565b6000614ae2602683613200565b9150614aed82614a86565b604082019050919050565b60006020820190508181036000830152614b1181614ad5565b9050919050565b600081519050919050565b6000614b2e82614b18565b614b388185613889565b9350614b48818560208601613211565b80840191505092915050565b6000614b608284614b23565b915081905092915050565b7f416464726573733a2063616c6c20746f206e6f6e2d636f6e7472616374000000600082015250565b6000614ba1601d83613200565b9150614bac82614b6b565b602082019050919050565b60006020820190508181036000830152614bd081614b94565b905091905056fea2646970667358221220bc8e414c03ef9fb32e17ea64ec0c25fd198d8962b89872ec79c8263af17f6a6a64736f6c634300080b0033",
  "linkReferences": {},
  "deployedLinkReferences": {}
}