{
  "_format": "hh-sol-artifact-1",
  "contractName": "Talaxeum",
  "sourceName": "contracts/ERC20/Talaxeum.sol",
  "abi": [
    {
      "inputs": [],
      "stateMutability": "nonpayable",
      "type": "constructor"
    },
    {
      "anonymous": false,
      "inputs": [
        {
          "indexed": true,
          "internalType": "address",
          "name": "owner",
          "type": "address"
        },
        {
          "indexed": true,
          "internalType": "address",
          "name": "spender",
          "type": "address"
        },
        {
          "indexed": false,
          "internalType": "uint256",
          "name": "value",
          "type": "uint256"
        }
      ],
      "name": "Approval",
      "type": "event"
    },
    {
      "anonymous": false,
      "inputs": [
        {
          "indexed": true,
          "internalType": "address",
          "name": "advisor",
          "type": "address"
        }
      ],
      "name": "ChangeAdvisorAddress",
      "type": "event"
    },
    {
      "anonymous": false,
      "inputs": [
        {
          "indexed": true,
          "internalType": "address",
          "name": "platform",
          "type": "address"
        }
      ],
      "name": "ChangePlatformAddress",
      "type": "event"
    },
    {
      "anonymous": false,
      "inputs": [
        {
          "indexed": false,
          "internalType": "uint256",
          "name": "tax",
          "type": "uint256"
        }
      ],
      "name": "ChangeTaxPercentage",
      "type": "event"
    },
    {
      "anonymous": false,
      "inputs": [
        {
          "indexed": true,
          "internalType": "address",
          "name": "delegator",
          "type": "address"
        },
        {
          "indexed": true,
          "internalType": "address",
          "name": "fromDelegate",
          "type": "address"
        },
        {
          "indexed": true,
          "internalType": "address",
          "name": "toDelegate",
          "type": "address"
        }
      ],
      "name": "DelegateChanged",
      "type": "event"
    },
    {
      "anonymous": false,
      "inputs": [
        {
          "indexed": true,
          "internalType": "address",
          "name": "delegate",
          "type": "address"
        },
        {
          "indexed": false,
          "internalType": "uint256",
          "name": "previousBalance",
          "type": "uint256"
        },
        {
          "indexed": false,
          "internalType": "uint256",
          "name": "newBalance",
          "type": "uint256"
        }
      ],
      "name": "DelegateVotesChanged",
      "type": "event"
    },
    {
      "anonymous": false,
      "inputs": [
        {
          "indexed": true,
          "internalType": "address",
          "name": "previousOwner",
          "type": "address"
        },
        {
          "indexed": true,
          "internalType": "address",
          "name": "newOwner",
          "type": "address"
        }
      ],
      "name": "OwnershipTransferred",
      "type": "event"
    },
    {
      "anonymous": false,
      "inputs": [
        {
          "indexed": true,
          "internalType": "address",
          "name": "from",
          "type": "address"
        },
        {
          "indexed": true,
          "internalType": "address",
          "name": "to",
          "type": "address"
        },
        {
          "indexed": false,
          "internalType": "uint256",
          "name": "value",
          "type": "uint256"
        }
      ],
      "name": "Transfer",
      "type": "event"
    },
    {
      "stateMutability": "payable",
      "type": "fallback"
    },
    {
      "inputs": [],
      "name": "DOMAIN_SEPARATOR",
      "outputs": [
        {
          "internalType": "bytes32",
          "name": "",
          "type": "bytes32"
        }
      ],
      "stateMutability": "view",
      "type": "function"
    },
    {
      "inputs": [],
      "name": "advisor",
      "outputs": [
        {
          "internalType": "address",
          "name": "",
          "type": "address"
        }
      ],
      "stateMutability": "view",
      "type": "function"
    },
    {
      "inputs": [
        {
          "internalType": "address",
          "name": "owner",
          "type": "address"
        },
        {
          "internalType": "address",
          "name": "spender",
          "type": "address"
        }
      ],
      "name": "allowance",
      "outputs": [
        {
          "internalType": "uint256",
          "name": "",
          "type": "uint256"
        }
      ],
      "stateMutability": "view",
      "type": "function"
    },
    {
      "inputs": [
        {
          "internalType": "address",
          "name": "spender",
          "type": "address"
        },
        {
          "internalType": "uint256",
          "name": "amount",
          "type": "uint256"
        }
      ],
      "name": "approve",
      "outputs": [
        {
          "internalType": "bool",
          "name": "",
          "type": "bool"
        }
      ],
      "stateMutability": "nonpayable",
      "type": "function"
    },
    {
      "inputs": [
        {
          "internalType": "address",
          "name": "account",
          "type": "address"
        }
      ],
      "name": "balanceOf",
      "outputs": [
        {
          "internalType": "uint256",
          "name": "",
          "type": "uint256"
        }
      ],
      "stateMutability": "view",
      "type": "function"
    },
    {
      "inputs": [
        {
          "internalType": "uint256",
          "name": "amount",
          "type": "uint256"
        }
      ],
      "name": "burn",
      "outputs": [],
      "stateMutability": "nonpayable",
      "type": "function"
    },
    {
      "inputs": [
        {
          "internalType": "address",
          "name": "account",
          "type": "address"
        },
        {
          "internalType": "uint256",
          "name": "amount",
          "type": "uint256"
        }
      ],
      "name": "burnFrom",
      "outputs": [],
      "stateMutability": "nonpayable",
      "type": "function"
    },
    {
      "inputs": [
        {
          "internalType": "address",
          "name": "newAddress",
          "type": "address"
        }
      ],
      "name": "changeAdvisor",
      "outputs": [],
      "stateMutability": "nonpayable",
      "type": "function"
    },
    {
      "inputs": [
        {
          "internalType": "address",
          "name": "newAddress",
          "type": "address"
        }
      ],
      "name": "changePlatform",
      "outputs": [],
      "stateMutability": "nonpayable",
      "type": "function"
    },
    {
      "inputs": [
        {
          "internalType": "uint256",
          "name": "tax",
          "type": "uint256"
        }
      ],
      "name": "changeTax",
      "outputs": [],
      "stateMutability": "nonpayable",
      "type": "function"
    },
    {
      "inputs": [
        {
          "internalType": "address",
          "name": "account",
          "type": "address"
        },
        {
          "internalType": "uint32",
          "name": "pos",
          "type": "uint32"
        }
      ],
      "name": "checkpoints",
      "outputs": [
        {
          "components": [
            {
              "internalType": "uint32",
              "name": "fromBlock",
              "type": "uint32"
            },
            {
              "internalType": "uint224",
              "name": "votes",
              "type": "uint224"
            }
          ],
          "internalType": "struct ERC20Votes.Checkpoint",
          "name": "",
          "type": "tuple"
        }
      ],
      "stateMutability": "view",
      "type": "function"
    },
    {
      "inputs": [],
      "name": "daoPool",
      "outputs": [
        {
          "internalType": "address",
          "name": "",
          "type": "address"
        }
      ],
      "stateMutability": "pure",
      "type": "function"
    },
    {
      "inputs": [],
      "name": "decimals",
      "outputs": [
        {
          "internalType": "uint8",
          "name": "",
          "type": "uint8"
        }
      ],
      "stateMutability": "view",
      "type": "function"
    },
    {
      "inputs": [
        {
          "internalType": "address",
          "name": "spender",
          "type": "address"
        },
        {
          "internalType": "uint256",
          "name": "subtractedValue",
          "type": "uint256"
        }
      ],
      "name": "decreaseAllowance",
      "outputs": [
        {
          "internalType": "bool",
          "name": "",
          "type": "bool"
        }
      ],
      "stateMutability": "nonpayable",
      "type": "function"
    },
    {
      "inputs": [
        {
          "internalType": "address",
          "name": "delegatee",
          "type": "address"
        }
      ],
      "name": "delegate",
      "outputs": [],
      "stateMutability": "nonpayable",
      "type": "function"
    },
    {
      "inputs": [
        {
          "internalType": "address",
          "name": "delegatee",
          "type": "address"
        },
        {
          "internalType": "uint256",
          "name": "nonce",
          "type": "uint256"
        },
        {
          "internalType": "uint256",
          "name": "expiry",
          "type": "uint256"
        },
        {
          "internalType": "uint8",
          "name": "v",
          "type": "uint8"
        },
        {
          "internalType": "bytes32",
          "name": "r",
          "type": "bytes32"
        },
        {
          "internalType": "bytes32",
          "name": "s",
          "type": "bytes32"
        }
      ],
      "name": "delegateBySig",
      "outputs": [],
      "stateMutability": "nonpayable",
      "type": "function"
    },
    {
      "inputs": [
        {
          "internalType": "address",
          "name": "account",
          "type": "address"
        }
      ],
      "name": "delegates",
      "outputs": [
        {
          "internalType": "address",
          "name": "",
          "type": "address"
        }
      ],
      "stateMutability": "view",
      "type": "function"
    },
    {
      "inputs": [],
      "name": "getBalance",
      "outputs": [
        {
          "internalType": "uint256",
          "name": "",
          "type": "uint256"
        }
      ],
      "stateMutability": "view",
      "type": "function"
    },
    {
      "inputs": [
        {
          "internalType": "uint256",
          "name": "blockNumber",
          "type": "uint256"
        }
      ],
      "name": "getPastTotalSupply",
      "outputs": [
        {
          "internalType": "uint256",
          "name": "",
          "type": "uint256"
        }
      ],
      "stateMutability": "view",
      "type": "function"
    },
    {
      "inputs": [
        {
          "internalType": "address",
          "name": "account",
          "type": "address"
        },
        {
          "internalType": "uint256",
          "name": "blockNumber",
          "type": "uint256"
        }
      ],
      "name": "getPastVotes",
      "outputs": [
        {
          "internalType": "uint256",
          "name": "",
          "type": "uint256"
        }
      ],
      "stateMutability": "view",
      "type": "function"
    },
    {
      "inputs": [
        {
          "internalType": "address",
          "name": "account",
          "type": "address"
        }
      ],
      "name": "getVotes",
      "outputs": [
        {
          "internalType": "uint256",
          "name": "",
          "type": "uint256"
        }
      ],
      "stateMutability": "view",
      "type": "function"
    },
    {
      "inputs": [
        {
          "internalType": "address",
          "name": "spender",
          "type": "address"
        },
        {
          "internalType": "uint256",
          "name": "addedValue",
          "type": "uint256"
        }
      ],
      "name": "increaseAllowance",
      "outputs": [
        {
          "internalType": "bool",
          "name": "",
          "type": "bool"
        }
      ],
      "stateMutability": "nonpayable",
      "type": "function"
    },
    {
      "inputs": [],
      "name": "marketing",
      "outputs": [
        {
          "internalType": "address",
          "name": "",
          "type": "address"
        }
      ],
      "stateMutability": "pure",
      "type": "function"
    },
    {
      "inputs": [
        {
          "internalType": "address",
          "name": "to",
          "type": "address"
        },
        {
          "internalType": "uint256",
          "name": "amount",
          "type": "uint256"
        }
      ],
      "name": "mint",
      "outputs": [],
      "stateMutability": "nonpayable",
      "type": "function"
    },
    {
      "inputs": [],
      "name": "name",
      "outputs": [
        {
          "internalType": "string",
          "name": "",
          "type": "string"
        }
      ],
      "stateMutability": "view",
      "type": "function"
    },
    {
      "inputs": [
        {
          "internalType": "address",
          "name": "owner",
          "type": "address"
        }
      ],
      "name": "nonces",
      "outputs": [
        {
          "internalType": "uint256",
          "name": "",
          "type": "uint256"
        }
      ],
      "stateMutability": "view",
      "type": "function"
    },
    {
      "inputs": [
        {
          "internalType": "address",
          "name": "account",
          "type": "address"
        }
      ],
      "name": "numCheckpoints",
      "outputs": [
        {
          "internalType": "uint32",
          "name": "",
          "type": "uint32"
        }
      ],
      "stateMutability": "view",
      "type": "function"
    },
    {
      "inputs": [],
      "name": "owner",
      "outputs": [
        {
          "internalType": "address",
          "name": "",
          "type": "address"
        }
      ],
      "stateMutability": "view",
      "type": "function"
    },
    {
      "inputs": [
        {
          "internalType": "address",
          "name": "owner",
          "type": "address"
        },
        {
          "internalType": "address",
          "name": "spender",
          "type": "address"
        },
        {
          "internalType": "uint256",
          "name": "value",
          "type": "uint256"
        },
        {
          "internalType": "uint256",
          "name": "deadline",
          "type": "uint256"
        },
        {
          "internalType": "uint8",
          "name": "v",
          "type": "uint8"
        },
        {
          "internalType": "bytes32",
          "name": "r",
          "type": "bytes32"
        },
        {
          "internalType": "bytes32",
          "name": "s",
          "type": "bytes32"
        }
      ],
      "name": "permit",
      "outputs": [],
      "stateMutability": "nonpayable",
      "type": "function"
    },
    {
      "inputs": [],
      "name": "platform",
      "outputs": [
        {
          "internalType": "address",
          "name": "",
          "type": "address"
        }
      ],
      "stateMutability": "view",
      "type": "function"
    },
    {
      "inputs": [],
      "name": "publicSale",
      "outputs": [
        {
          "internalType": "address",
          "name": "",
          "type": "address"
        }
      ],
      "stateMutability": "pure",
      "type": "function"
    },
    {
      "inputs": [],
      "name": "renounceOwnership",
      "outputs": [],
      "stateMutability": "nonpayable",
      "type": "function"
    },
    {
      "inputs": [],
      "name": "stakingReward",
      "outputs": [
        {
          "internalType": "address",
          "name": "",
          "type": "address"
        }
      ],
      "stateMutability": "pure",
      "type": "function"
    },
    {
      "inputs": [],
      "name": "symbol",
      "outputs": [
        {
          "internalType": "string",
          "name": "",
          "type": "string"
        }
      ],
      "stateMutability": "view",
      "type": "function"
    },
    {
      "inputs": [],
      "name": "taxRate",
      "outputs": [
        {
          "internalType": "uint256",
          "name": "",
          "type": "uint256"
        }
      ],
      "stateMutability": "view",
      "type": "function"
    },
    {
      "inputs": [],
      "name": "teamAndProjectCoordinator",
      "outputs": [
        {
          "internalType": "address",
          "name": "",
          "type": "address"
        }
      ],
      "stateMutability": "pure",
      "type": "function"
    },
    {
      "inputs": [],
      "name": "totalSupply",
      "outputs": [
        {
          "internalType": "uint256",
          "name": "",
          "type": "uint256"
        }
      ],
      "stateMutability": "view",
      "type": "function"
    },
    {
      "inputs": [
        {
          "internalType": "address",
          "name": "to",
          "type": "address"
        },
        {
          "internalType": "uint256",
          "name": "amount",
          "type": "uint256"
        }
      ],
      "name": "transfer",
      "outputs": [
        {
          "internalType": "bool",
          "name": "",
          "type": "bool"
        }
      ],
      "stateMutability": "nonpayable",
      "type": "function"
    },
    {
      "inputs": [
        {
          "internalType": "address",
          "name": "from",
          "type": "address"
        },
        {
          "internalType": "address",
          "name": "to",
          "type": "address"
        },
        {
          "internalType": "uint256",
          "name": "amount",
          "type": "uint256"
        }
      ],
      "name": "transferFrom",
      "outputs": [
        {
          "internalType": "bool",
          "name": "",
          "type": "bool"
        }
      ],
      "stateMutability": "nonpayable",
      "type": "function"
    },
    {
      "inputs": [
        {
          "internalType": "address",
          "name": "newOwner",
          "type": "address"
        }
      ],
      "name": "transferOwnership",
      "outputs": [],
      "stateMutability": "nonpayable",
      "type": "function"
    },
    {
      "inputs": [],
      "name": "withdrawFunds",
      "outputs": [],
      "stateMutability": "nonpayable",
      "type": "function"
    },
    {
      "inputs": [
        {
          "internalType": "address",
          "name": "token",
          "type": "address"
        }
      ],
      "name": "withdrawFunds",
      "outputs": [],
      "stateMutability": "nonpayable",
      "type": "function"
    },
    {
      "stateMutability": "payable",
      "type": "receive"
    }
  ],
  "bytecode": "0x6101406040526064600b55600c80546001600160a01b0319908116909155600d805490911690553480156200003357600080fd5b506040518060400160405280600881526020016754616c617865756d60c01b81525080604051806040016040528060018152602001603160f81b8152506040518060400160405280600881526020016754616c617865756d60c01b815250604051806040016040528060058152602001640a8829882b60db1b8152508160039080519060200190620000c7929190620007ee565b508051620000dd906004906020840190620007ee565b505050620000fa620000f4620001ba60201b60201c565b620001be565b815160209283012081519183019190912060e08290526101008190524660a0818152604080517f8b73c3c69bb8fe3d512ecc4cf759cc79239f7b179b0ffacaa9a75d522b39400f818801819052818301969096526060810194909452608080850193909352308483018190528151808603909301835260c0948501909152815191909501209052919091526101205250620001b4336200019d6012600a6200099d565b620001ae906404e3b29200620009ae565b62000210565b62000a58565b3390565b600580546001600160a01b038381166001600160a01b0319831681179093556040519116919082907f8be0079c531659141344cd1fd0a4f28419497f9722a3daafe3b4186f6b6457e090600090a35050565b6200022782826200022b60201b620012481760201c565b5050565b620002428282620002e260201b620012d81760201c565b6001600160e01b0362000256620003af8216565b1115620002c35760405162461bcd60e51b815260206004820152603060248201527f4552433230566f7465733a20746f74616c20737570706c79207269736b73206f60448201526f766572666c6f77696e6720766f74657360801b60648201526084015b60405180910390fd5b620002dc600a6200139f620003b560201b1783620003cc565b50505050565b6001600160a01b0382166200033a5760405162461bcd60e51b815260206004820152601f60248201527f45524332303a206d696e7420746f20746865207a65726f2061646472657373006044820152606401620002ba565b80600260008282546200034e9190620009d0565b90915550506001600160a01b038216600081815260208181526040808320805486019055518481527fddf252ad1be2c89b69c2b068fc378daa952ba7f163c4a11628f55a4df523b3ef910160405180910390a3620002276000838362000583565b60025490565b6000620003c38284620009d0565b90505b92915050565b8254600090819080156200041e5785620003e8600183620009eb565b81548110620003fb57620003fb62000a05565b60009182526020909120015464010000000090046001600160e01b031662000421565b60005b6001600160e01b031692506200043883858760201c565b91506000811180156200047c5750438662000455600184620009eb565b8154811062000468576200046862000a05565b60009182526020909120015463ffffffff16145b15620004f05762000498826200059b60201b620013ab1760201c565b86620004a6600184620009eb565b81548110620004b957620004b962000a05565b9060005260206000200160000160046101000a8154816001600160e01b0302191690836001600160e01b0316021790555062000575565b85604051806040016040528062000512436200060a60201b620014181760201c565b63ffffffff16815260200162000533856200059b60201b620013ab1760201c565b6001600160e01b0390811690915282546001810184556000938452602093849020835194909301519091166401000000000263ffffffff909316929092179101555b50935093915050565b505050565b6200057e8383836200067160201b6200147d1760201c565b60006001600160e01b03821115620006065760405162461bcd60e51b815260206004820152602760248201527f53616665436173743a2076616c756520646f65736e27742066697420696e20326044820152663234206269747360c81b6064820152608401620002ba565b5090565b600063ffffffff821115620006065760405162461bcd60e51b815260206004820152602660248201527f53616665436173743a2076616c756520646f65736e27742066697420696e203360448201526532206269747360d01b6064820152608401620002ba565b620006898383836200057e60201b620014af1760201c565b6001600160a01b038381166000908152600860205260408082205485841683529120546200057e92918216911683818314801590620006c85750600081115b156200057e576001600160a01b0383161562000755576001600160a01b038316600090815260096020908152604082208291620007129190620007e0901b620014b41785620003cc565b91509150846001600160a01b03166000805160206200330483398151915283836040516200074a929190918252602082015260400190565b60405180910390a250505b6001600160a01b038216156200057e576001600160a01b038216600090815260096020908152604082208291620007999190620003b5901b6200139f1785620003cc565b91509150836001600160a01b0316600080516020620033048339815191528383604051620007d1929190918252602082015260400190565b60405180910390a25050505050565b6000620003c38284620009eb565b828054620007fc9062000a1b565b90600052602060002090601f0160209004810192826200082057600085556200086b565b82601f106200083b57805160ff19168380011785556200086b565b828001600101855582156200086b579182015b828111156200086b5782518255916020019190600101906200084e565b50620006069291505b8082111562000606576000815560010162000874565b634e487b7160e01b600052601160045260246000fd5b600181815b80851115620008e1578160001904821115620008c557620008c56200088a565b80851615620008d357918102915b93841c9390800290620008a5565b509250929050565b600082620008fa57506001620003c6565b816200090957506000620003c6565b81600181146200092257600281146200092d576200094d565b6001915050620003c6565b60ff8411156200094157620009416200088a565b50506001821b620003c6565b5060208310610133831016604e8410600b841016171562000972575081810a620003c6565b6200097e8383620008a0565b80600019048211156200099557620009956200088a565b029392505050565b6000620003c360ff841683620008e9565b6000816000190483118215151615620009cb57620009cb6200088a565b500290565b60008219821115620009e657620009e66200088a565b500190565b60008282101562000a005762000a006200088a565b500390565b634e487b7160e01b600052603260045260246000fd5b600181811c9082168062000a3057607f821691505b6020821081141562000a5257634e487b7160e01b600052602260045260246000fd5b50919050565b60805160a05160c05160e051610100516101205161285c62000aa860003960006117470152600061179601526000611771015260006116ca015260006116f40152600061171e015261285c6000f3fe60806040526004361061023d5760003560e01c80635c19a95c1161012d5780638e539e8c116100b0578063a9059cbb11610077578063a9059cbb1461070e578063c3cda5201461072e578063d505accf1461074e578063dd62ed3e1461076e578063f1127ed81461078e578063f2fde38b146107d857005b80638e539e8c1461067257806395d89b41146106925780639ab24eb0146106a7578063a457c2d7146106c7578063a542cd84146106e757005b8063753d93e4116100f4578063753d93e4146105de578063771a3a1d146105fe57806379cc6790146106145780637ecebe00146106345780638da5cb5b1461065457005b80635c19a95c1461051e57806368742da61461053e5780636fcfff451461055e57806370a0823114610593578063715018a6146105c957005b806333bc1c5c116101c05780633b1663be116101875780633b1663be146104455780633e45c8af1461046557806340c10f191461048557806342966c68146104a55780634bde38c8146104c5578063587cde1e146104e557005b806333bc1c5c146103a257806333e0ff5d146103c95780633644e515146103f057806339509351146104055780633a46b1a81461042557005b80631936e4be116102045780631936e4be1461030a57806323b872dd1461032a57806324600fc31461034a5780632d3e474a1461035f578063313ce5671461038657005b8063042249bb1461024657806306fdde0314610286578063095ea7b3146102a857806312065fe0146102d857806318160ddd146102f557005b3661024457005b005b34801561025257600080fd5b50732f838cf0df38b2e91e747a01ddae5ebad5558b7a5b6040516001600160a01b0390911681526020015b60405180910390f35b34801561029257600080fd5b5061029b6107f8565b60405161027d91906124b9565b3480156102b457600080fd5b506102c86102c3366004612508565b61088a565b604051901515815260200161027d565b3480156102e457600080fd5b50475b60405190815260200161027d565b34801561030157600080fd5b506002546102e7565b34801561031657600080fd5b50600c54610269906001600160a01b031681565b34801561033657600080fd5b506102c8610345366004612532565b6108a2565b34801561035657600080fd5b506102446108c6565b34801561036b57600080fd5b5073f09f65dd4d229e991901669ad7c7549f060e30b9610269565b34801561039257600080fd5b506040516012815260200161027d565b3480156103ae57600080fd5b50735470c8ff25ec05980fc7c2967d076b8012298fe7610269565b3480156103d557600080fd5b507375837e79215250c45331b92c35b7be506ed015ac610269565b3480156103fc57600080fd5b506102e7610987565b34801561041157600080fd5b506102c8610420366004612508565b610996565b34801561043157600080fd5b506102e7610440366004612508565b6109b8565b34801561045157600080fd5b5061024461046036600461256e565b610a32565b34801561047157600080fd5b50610244610480366004612589565b610a84565b34801561049157600080fd5b506102446104a0366004612508565b610b11565b3480156104b157600080fd5b506102446104c0366004612589565b610b27565b3480156104d157600080fd5b50600d54610269906001600160a01b031681565b3480156104f157600080fd5b5061026961050036600461256e565b6001600160a01b039081166000908152600860205260409020541690565b34801561052a57600080fd5b5061024461053936600461256e565b610b31565b34801561054a57600080fd5b5061024461055936600461256e565b610b3b565b34801561056a57600080fd5b5061057e61057936600461256e565b610bc6565b60405163ffffffff909116815260200161027d565b34801561059f57600080fd5b506102e76105ae36600461256e565b6001600160a01b031660009081526020819052604090205490565b3480156105d557600080fd5b50610244610bee565b3480156105ea57600080fd5b506102446105f936600461256e565b610c02565b34801561060a57600080fd5b506102e7600b5481565b34801561062057600080fd5b5061024461062f366004612508565b610c54565b34801561064057600080fd5b506102e761064f36600461256e565b610c69565b34801561066057600080fd5b506005546001600160a01b0316610269565b34801561067e57600080fd5b506102e761068d366004612589565b610c87565b34801561069e57600080fd5b5061029b610ce3565b3480156106b357600080fd5b506102e76106c236600461256e565b610cf2565b3480156106d357600080fd5b506102c86106e2366004612508565b610d79565b3480156106f357600080fd5b507345094071c4daaf6a9a73b0a0f095a2b138bd8a3a610269565b34801561071a57600080fd5b506102c8610729366004612508565b610df4565b34801561073a57600080fd5b506102446107493660046125b3565b610e89565b34801561075a57600080fd5b5061024461076936600461260b565b610fbf565b34801561077a57600080fd5b506102e7610789366004612675565b611123565b34801561079a57600080fd5b506107ae6107a93660046126a8565b61114e565b60408051825163ffffffff1681526020928301516001600160e01b0316928101929092520161027d565b3480156107e457600080fd5b506102446107f336600461256e565b6111d2565b606060038054610807906126e8565b80601f0160208091040260200160405190810160405280929190818152602001828054610833906126e8565b80156108805780601f1061085557610100808354040283529160200191610880565b820191906000526020600020905b81548152906001019060200180831161086357829003601f168201915b5050505050905090565b6000336108988185856114c0565b5060019392505050565b6000336108b08582856115e4565b6108bb858585611658565b506001949350505050565b6108ce611663565b60006108e26005546001600160a01b031690565b6001600160a01b03164760405160006040518083038185875af1925050503d806000811461092c576040519150601f19603f3d011682016040523d82523d6000602084013e610931565b606091505b50909150506001811515146109845760405162461bcd60e51b81526020600482015260146024820152732330b4b632b2103a379039b2b7321022ba3432b960611b60448201526064015b60405180910390fd5b50565b60006109916116bd565b905090565b6000336108988185856109a98383611123565b6109b39190612733565b6114c0565b6000438210610a095760405162461bcd60e51b815260206004820152601f60248201527f4552433230566f7465733a20626c6f636b206e6f7420796574206d696e656400604482015260640161097b565b6001600160a01b0383166000908152600960205260409020610a2b90836117e4565b9392505050565b610a3a611663565b600c80546001600160a01b0319166001600160a01b0383169081179091556040517fb4e82d199bd528d2eb1ecdb078b8bd4585b584b8ab8f1dbe769a023691dea82690600090a250565b610a8c611663565b6005600b5410610ad65760405162461bcd60e51b815260206004820152601560248201527454617820466565206d6178696d756d20697320352560581b604482015260640161097b565b600b8190556040518181527fb2442d3ff243b2c486384ca93de99597291265a56cc11d3f99c27ab2a96c1f249060200160405180910390a150565b610b19611663565b610b2382826118a1565b5050565b61098433826118ab565b61098433826118b5565b610b43611663565b61098481610b596005546001600160a01b031690565b6040516370a0823160e01b81523060048201526001600160a01b038516906370a0823190602401602060405180830381865afa158015610b9d573d6000803e3d6000fd5b505050506040513d601f19601f82011682018060405250810190610bc1919061274b565b61196e565b6001600160a01b038116600090815260096020526040812054610be890611418565b92915050565b610bf6611663565b610c0060006119c0565b565b610c0a611663565b600d80546001600160a01b0319166001600160a01b0383169081179091556040517f0b8fbedc55d781317c5dd28f0420abf9b05f02368d735a3b1383796222cd703190600090a250565b610c5f8233836115e4565b610b2382826118ab565b6001600160a01b038116600090815260066020526040812054610be8565b6000438210610cd85760405162461bcd60e51b815260206004820152601f60248201527f4552433230566f7465733a20626c6f636b206e6f7420796574206d696e656400604482015260640161097b565b610be8600a836117e4565b606060048054610807906126e8565b6001600160a01b0381166000908152600960205260408120548015610d66576001600160a01b0383166000908152600960205260409020610d34600183612764565b81548110610d4457610d4461277b565b60009182526020909120015464010000000090046001600160e01b0316610d69565b60005b6001600160e01b03169392505050565b60003381610d878286611123565b905083811015610de75760405162461bcd60e51b815260206004820152602560248201527f45524332303a2064656372656173656420616c6c6f77616e63652062656c6f77604482015264207a65726f60d81b606482015260840161097b565b6108bb82868684036114c0565b6000803390506000612710600b5485610e0d9190612791565b610e1791906127b0565b90506000610e258286612764565b9050610e5e837345094071c4daaf6a9a73b0a0f095a2b138bd8a3a612710610e4f866107d0612791565b610e5991906127b0565b611658565b610e728330612710610e4f86611f40612791565b610e7d838783611658565b50600195945050505050565b83421115610ed95760405162461bcd60e51b815260206004820152601d60248201527f4552433230566f7465733a207369676e61747572652065787069726564000000604482015260640161097b565b604080517fe48329057bfd03d55e49b547132e39cffd9c1820ad7b9d4c5307691425d15adf60208201526001600160a01b038816918101919091526060810186905260808101859052600090610f5390610f4b9060a00160405160208183030381529060405280519060200120611a12565b858585611a60565b9050610f5e81611a8a565b8614610fac5760405162461bcd60e51b815260206004820152601960248201527f4552433230566f7465733a20696e76616c6964206e6f6e636500000000000000604482015260640161097b565b610fb681886118b5565b50505050505050565b8342111561100f5760405162461bcd60e51b815260206004820152601d60248201527f45524332305065726d69743a206578706972656420646561646c696e65000000604482015260640161097b565b60007f6e71edae12b1b97f4d1f60370fef10105fa2faae0126114a169c64845d6126c988888861103e8c611a8a565b6040805160208101969096526001600160a01b0394851690860152929091166060840152608083015260a082015260c0810186905260e001604051602081830303815290604052805190602001209050600061109982611a12565b905060006110a982878787611a60565b9050896001600160a01b0316816001600160a01b03161461110c5760405162461bcd60e51b815260206004820152601e60248201527f45524332305065726d69743a20696e76616c6964207369676e61747572650000604482015260640161097b565b6111178a8a8a6114c0565b50505050505050505050565b6001600160a01b03918216600090815260016020908152604080832093909416825291909152205490565b60408051808201909152600080825260208201526001600160a01b0383166000908152600960205260409020805463ffffffff84169081106111925761119261277b565b60009182526020918290206040805180820190915291015463ffffffff8116825264010000000090046001600160e01b0316918101919091529392505050565b6111da611663565b6001600160a01b03811661123f5760405162461bcd60e51b815260206004820152602660248201527f4f776e61626c653a206e6577206f776e657220697320746865207a65726f206160448201526564647265737360d01b606482015260840161097b565b610984816119c0565b61125282826112d8565b6002546001600160e01b0310156112c45760405162461bcd60e51b815260206004820152603060248201527f4552433230566f7465733a20746f74616c20737570706c79207269736b73206f60448201526f766572666c6f77696e6720766f74657360801b606482015260840161097b565b6112d2600a61139f83611ab2565b50505050565b6001600160a01b03821661132e5760405162461bcd60e51b815260206004820152601f60248201527f45524332303a206d696e7420746f20746865207a65726f206164647265737300604482015260640161097b565b80600260008282546113409190612733565b90915550506001600160a01b038216600081815260208181526040808320805486019055518481527fddf252ad1be2c89b69c2b068fc378daa952ba7f163c4a11628f55a4df523b3ef910160405180910390a3610b2360008383611c2b565b6000610a2b8284612733565b60006001600160e01b038211156114145760405162461bcd60e51b815260206004820152602760248201527f53616665436173743a2076616c756520646f65736e27742066697420696e20326044820152663234206269747360c81b606482015260840161097b565b5090565b600063ffffffff8211156114145760405162461bcd60e51b815260206004820152602660248201527f53616665436173743a2076616c756520646f65736e27742066697420696e203360448201526532206269747360d01b606482015260840161097b565b6001600160a01b038381166000908152600860205260408082205485841683529120546114af92918216911683611c36565b505050565b6000610a2b8284612764565b6001600160a01b0383166115225760405162461bcd60e51b8152602060048201526024808201527f45524332303a20617070726f76652066726f6d20746865207a65726f206164646044820152637265737360e01b606482015260840161097b565b6001600160a01b0382166115835760405162461bcd60e51b815260206004820152602260248201527f45524332303a20617070726f766520746f20746865207a65726f206164647265604482015261737360f01b606482015260840161097b565b6001600160a01b0383811660008181526001602090815260408083209487168084529482529182902085905590518481527f8c5be1e5ebec7d5bd14f71427d1e84f3dd0314c0f7b2291e5b200ac8c7c3b925910160405180910390a3505050565b60006115f08484611123565b905060001981146112d2578181101561164b5760405162461bcd60e51b815260206004820152601d60248201527f45524332303a20696e73756666696369656e7420616c6c6f77616e6365000000604482015260640161097b565b6112d284848484036114c0565b6114af838383611d73565b6005546001600160a01b03163314610c005760405162461bcd60e51b815260206004820181905260248201527f4f776e61626c653a2063616c6c6572206973206e6f7420746865206f776e6572604482015260640161097b565b6000306001600160a01b037f00000000000000000000000000000000000000000000000000000000000000001614801561171657507f000000000000000000000000000000000000000000000000000000000000000046145b1561174057507f000000000000000000000000000000000000000000000000000000000000000090565b50604080517f00000000000000000000000000000000000000000000000000000000000000006020808301919091527f0000000000000000000000000000000000000000000000000000000000000000828401527f000000000000000000000000000000000000000000000000000000000000000060608301524660808301523060a0808401919091528351808403909101815260c0909201909252805191012090565b8154600090815b818110156118485760006117ff8284611f1d565b9050848682815481106118145761181461277b565b60009182526020909120015463ffffffff16111561183457809250611842565b61183f816001612733565b91505b506117eb565b811561188c578461185a600184612764565b8154811061186a5761186a61277b565b60009182526020909120015464010000000090046001600160e01b031661188f565b60005b6001600160e01b031695945050505050565b610b238282611248565b610b238282611f38565b6001600160a01b038281166000908152600860209081526040808320549183905282205492169190816118e95760006118f3565b670de0b6b3a76400005b6001600160a01b0386811660008181526008602052604080822080546001600160a01b0319168a8616908117909155905167ffffffffffffffff95909516955093928716927f3134e8a2e6d97e929a7e54011ea5485d7d196dd5f0ba4d4ef95803e8e3fc257f9190a4611967838583611c36565b5050505050565b604080516001600160a01b038416602482015260448082018490528251808303909101815260649091019091526020810180516001600160e01b031663a9059cbb60e01b1790526114af908490611f50565b600580546001600160a01b038381166001600160a01b0319831681179093556040519116919082907f8be0079c531659141344cd1fd0a4f28419497f9722a3daafe3b4186f6b6457e090600090a35050565b6000610be8611a1f6116bd565b8360405161190160f01b6020820152602281018390526042810182905260009060620160405160208183030381529060405280519060200120905092915050565b6000806000611a7187878787612022565b91509150611a7e816120e6565b5090505b949350505050565b6001600160a01b03811660009081526006602052604090208054600181018255905b50919050565b825460009081908015611afd5785611acb600183612764565b81548110611adb57611adb61277b565b60009182526020909120015464010000000090046001600160e01b0316611b00565b60005b6001600160e01b03169250611b1983858763ffffffff16565b9150600081118015611b5757504386611b33600184612764565b81548110611b4357611b4361277b565b60009182526020909120015463ffffffff16145b15611bb757611b65826113ab565b86611b71600184612764565b81548110611b8157611b8161277b565b9060005260206000200160000160046101000a8154816001600160e01b0302191690836001600160e01b03160217905550611c22565b856040518060400160405280611bcc43611418565b63ffffffff168152602001611be0856113ab565b6001600160e01b0390811690915282546001810184556000938452602093849020835194909301519091166401000000000263ffffffff909316929092179101555b50935093915050565b6114af83838361147d565b816001600160a01b0316836001600160a01b031614158015611c585750600081115b156114af576001600160a01b03831615611ce6576001600160a01b03831660009081526009602052604081208190611c93906114b485611ab2565b91509150846001600160a01b03167fdec2bacdd2f05b59de34da9b523dff8be42e5e38e818c82fdb0bae774387a7248383604051611cdb929190918252602082015260400190565b60405180910390a250505b6001600160a01b038216156114af576001600160a01b03821660009081526009602052604081208190611d1c9061139f85611ab2565b91509150836001600160a01b03167fdec2bacdd2f05b59de34da9b523dff8be42e5e38e818c82fdb0bae774387a7248383604051611d64929190918252602082015260400190565b60405180910390a25050505050565b6001600160a01b038316611dd75760405162461bcd60e51b815260206004820152602560248201527f45524332303a207472616e736665722066726f6d20746865207a65726f206164604482015264647265737360d81b606482015260840161097b565b6001600160a01b038216611e395760405162461bcd60e51b815260206004820152602360248201527f45524332303a207472616e7366657220746f20746865207a65726f206164647260448201526265737360e81b606482015260840161097b565b6001600160a01b03831660009081526020819052604090205481811015611eb15760405162461bcd60e51b815260206004820152602660248201527f45524332303a207472616e7366657220616d6f756e7420657863656564732062604482015265616c616e636560d01b606482015260840161097b565b6001600160a01b03848116600081815260208181526040808320878703905593871680835291849020805487019055925185815290927fddf252ad1be2c89b69c2b068fc378daa952ba7f163c4a11628f55a4df523b3ef910160405180910390a36112d2848484611c2b565b6000611f2c60028484186127b0565b610a2b90848416612733565b611f428282612234565b6112d2600a6114b483611ab2565b6000611fa5826040518060400160405280602081526020017f5361666545524332303a206c6f772d6c6576656c2063616c6c206661696c6564815250856001600160a01b031661236d9092919063ffffffff16565b8051909150156114af5780806020019051810190611fc391906127d2565b6114af5760405162461bcd60e51b815260206004820152602a60248201527f5361666545524332303a204552433230206f7065726174696f6e20646964206e6044820152691bdd081cdd58d8d9595960b21b606482015260840161097b565b6000807f7fffffffffffffffffffffffffffffff5d576e7357a4501ddfe92f46681b20a083111561205957506000905060036120dd565b6040805160008082526020820180845289905260ff881692820192909252606081018690526080810185905260019060a0016020604051602081039080840390855afa1580156120ad573d6000803e3d6000fd5b5050604051601f1901519150506001600160a01b0381166120d6576000600192509250506120dd565b9150600090505b94509492505050565b60008160048111156120fa576120fa6127f4565b14156121035750565b6001816004811115612117576121176127f4565b14156121655760405162461bcd60e51b815260206004820152601860248201527f45434453413a20696e76616c6964207369676e61747572650000000000000000604482015260640161097b565b6002816004811115612179576121796127f4565b14156121c75760405162461bcd60e51b815260206004820152601f60248201527f45434453413a20696e76616c6964207369676e6174757265206c656e67746800604482015260640161097b565b60038160048111156121db576121db6127f4565b14156109845760405162461bcd60e51b815260206004820152602260248201527f45434453413a20696e76616c6964207369676e6174757265202773272076616c604482015261756560f01b606482015260840161097b565b6001600160a01b0382166122945760405162461bcd60e51b815260206004820152602160248201527f45524332303a206275726e2066726f6d20746865207a65726f206164647265736044820152607360f81b606482015260840161097b565b6001600160a01b038216600090815260208190526040902054818110156123085760405162461bcd60e51b815260206004820152602260248201527f45524332303a206275726e20616d6f756e7420657863656564732062616c616e604482015261636560f01b606482015260840161097b565b6001600160a01b0383166000818152602081815260408083208686039055600280548790039055518581529192917fddf252ad1be2c89b69c2b068fc378daa952ba7f163c4a11628f55a4df523b3ef910160405180910390a36114af83600084611c2b565b6060611a82848460008585600080866001600160a01b03168587604051612394919061280a565b60006040518083038185875af1925050503d80600081146123d1576040519150601f19603f3d011682016040523d82523d6000602084013e6123d6565b606091505b50915091506123e7878383876123f2565b979650505050505050565b6060831561245e578251612457576001600160a01b0385163b6124575760405162461bcd60e51b815260206004820152601d60248201527f416464726573733a2063616c6c20746f206e6f6e2d636f6e7472616374000000604482015260640161097b565b5081611a82565b611a8283838151156124735781518083602001fd5b8060405162461bcd60e51b815260040161097b91906124b9565b60005b838110156124a8578181015183820152602001612490565b838111156112d25750506000910152565b60208152600082518060208401526124d881604085016020870161248d565b601f01601f19169190910160400192915050565b80356001600160a01b038116811461250357600080fd5b919050565b6000806040838503121561251b57600080fd5b612524836124ec565b946020939093013593505050565b60008060006060848603121561254757600080fd5b612550846124ec565b925061255e602085016124ec565b9150604084013590509250925092565b60006020828403121561258057600080fd5b610a2b826124ec565b60006020828403121561259b57600080fd5b5035919050565b803560ff8116811461250357600080fd5b60008060008060008060c087890312156125cc57600080fd5b6125d5876124ec565b955060208701359450604087013593506125f1606088016125a2565b92506080870135915060a087013590509295509295509295565b600080600080600080600060e0888a03121561262657600080fd5b61262f886124ec565b965061263d602089016124ec565b95506040880135945060608801359350612659608089016125a2565b925060a0880135915060c0880135905092959891949750929550565b6000806040838503121561268857600080fd5b612691836124ec565b915061269f602084016124ec565b90509250929050565b600080604083850312156126bb57600080fd5b6126c4836124ec565b9150602083013563ffffffff811681146126dd57600080fd5b809150509250929050565b600181811c908216806126fc57607f821691505b60208210811415611aac57634e487b7160e01b600052602260045260246000fd5b634e487b7160e01b600052601160045260246000fd5b600082198211156127465761274661271d565b500190565b60006020828403121561275d57600080fd5b5051919050565b6000828210156127765761277661271d565b500390565b634e487b7160e01b600052603260045260246000fd5b60008160001904831182151516156127ab576127ab61271d565b500290565b6000826127cd57634e487b7160e01b600052601260045260246000fd5b500490565b6000602082840312156127e457600080fd5b81518015158114610a2b57600080fd5b634e487b7160e01b600052602160045260246000fd5b6000825161281c81846020870161248d565b919091019291505056fea26469706673582212202d13b4bd3b2ed7e41a6940b07298517b39809836ffc578ef02a7a118dbec32c564736f6c634300080b0033dec2bacdd2f05b59de34da9b523dff8be42e5e38e818c82fdb0bae774387a724",
  "linkReferences": {},
  "deployedLinkReferences": {}
}