{
  "_format": "hh-sol-artifact-1",
  "contractName": "WhitelistFactory",
  "sourceName": "contracts/Factory/WhitelistFactory.sol",
  "abi": [
    {
      "inputs": [],
      "stateMutability": "nonpayable",
      "type": "constructor"
    },
    {
      "anonymous": false,
      "inputs": [
        {
          "indexed": true,
          "internalType": "address",
          "name": "previousOwner",
          "type": "address"
        },
        {
          "indexed": true,
          "internalType": "address",
          "name": "newOwner",
          "type": "address"
        }
      ],
      "name": "OwnershipTransferred",
      "type": "event"
    },
    {
      "inputs": [
        {
          "internalType": "address",
          "name": "token",
          "type": "address"
        },
        {
          "internalType": "uint64",
          "name": "start",
          "type": "uint64"
        },
        {
          "internalType": "uint64",
          "name": "duration",
          "type": "uint64"
        },
        {
          "internalType": "uint64",
          "name": "cliff",
          "type": "uint64"
        }
      ],
      "name": "createWhitelist",
      "outputs": [
        {
          "internalType": "address",
          "name": "",
          "type": "address"
        }
      ],
      "stateMutability": "nonpayable",
      "type": "function"
    },
    {
      "inputs": [],
      "name": "getCurrentCounter",
      "outputs": [
        {
          "internalType": "uint256",
          "name": "",
          "type": "uint256"
        }
      ],
      "stateMutability": "view",
      "type": "function"
    },
    {
      "inputs": [
        {
          "internalType": "uint256",
          "name": "counterIdx",
          "type": "uint256"
        }
      ],
      "name": "getWhitelist",
      "outputs": [
        {
          "internalType": "address",
          "name": "",
          "type": "address"
        }
      ],
      "stateMutability": "view",
      "type": "function"
    },
    {
      "inputs": [],
      "name": "owner",
      "outputs": [
        {
          "internalType": "address",
          "name": "",
          "type": "address"
        }
      ],
      "stateMutability": "view",
      "type": "function"
    },
    {
      "inputs": [],
      "name": "renounceOwnership",
      "outputs": [],
      "stateMutability": "nonpayable",
      "type": "function"
    },
    {
      "inputs": [
        {
          "internalType": "address",
          "name": "newOwner",
          "type": "address"
        }
      ],
      "name": "transferOwnership",
      "outputs": [],
      "stateMutability": "nonpayable",
      "type": "function"
    },
    {
      "inputs": [
        {
          "internalType": "uint256",
          "name": "",
          "type": "uint256"
        }
      ],
      "name": "whitelists",
      "outputs": [
        {
          "internalType": "address",
          "name": "",
          "type": "address"
        }
      ],
      "stateMutability": "view",
      "type": "function"
    }
  ],
  "bytecode": "0x60a060405234801561001057600080fd5b5061002d61002261008e60201b60201c565b61009660201b60201c565b6040516100399061015a565b604051809103906000f080158015610055573d6000803e3d6000fd5b5073ffffffffffffffffffffffffffffffffffffffff1660808173ffffffffffffffffffffffffffffffffffffffff1681525050610167565b600033905090565b60008060009054906101000a900473ffffffffffffffffffffffffffffffffffffffff169050816000806101000a81548173ffffffffffffffffffffffffffffffffffffffff021916908373ffffffffffffffffffffffffffffffffffffffff1602179055508173ffffffffffffffffffffffffffffffffffffffff168173ffffffffffffffffffffffffffffffffffffffff167f8be0079c531659141344cd1fd0a4f28419497f9722a3daafe3b4186f6b6457e060405160405180910390a35050565b6118b180610b6d83390190565b6080516109eb61018260003960006101aa01526109eb6000f3fe608060405234801561001057600080fd5b506004361061007d5760003560e01c80638da5cb5b1161005b5780638da5cb5b146100da57806396db752a146100f8578063f2fde38b14610128578063fe4d5add146101445761007d565b8063715018a61461008257806373448c461461008c57806388faccf5146100aa575b600080fd5b61008a610174565b005b610094610188565b6040516100a19190610611565b60405180910390f35b6100c460048036038101906100bf91906106cf565b610199565b6040516100d19190610745565b60405180910390f35b6100e26102b2565b6040516100ef9190610745565b60405180910390f35b610112600480360381019061010d919061078c565b6102db565b60405161011f9190610745565b60405180910390f35b610142600480360381019061013d91906107b9565b610318565b005b61015e6004803603810190610159919061078c565b61039c565b60405161016b9190610745565b60405180910390f35b61017c6103cf565b610186600061044d565b565b60006101946001610511565b905090565b60006101a36103cf565b60006101ce7f000000000000000000000000000000000000000000000000000000000000000061051f565b90508073ffffffffffffffffffffffffffffffffffffffff1663231815da878787876040518563ffffffff1660e01b815260040161020f94939291906107f5565b600060405180830381600087803b15801561022957600080fd5b505af115801561023d573d6000803e3d6000fd5b5050505080600260006102506001610511565b815260200190815260200160002060006101000a81548173ffffffffffffffffffffffffffffffffffffffff021916908373ffffffffffffffffffffffffffffffffffffffff1602179055506102a660016105da565b80915050949350505050565b60008060009054906101000a900473ffffffffffffffffffffffffffffffffffffffff16905090565b60006002600083815260200190815260200160002060009054906101000a900473ffffffffffffffffffffffffffffffffffffffff169050919050565b6103206103cf565b600073ffffffffffffffffffffffffffffffffffffffff168173ffffffffffffffffffffffffffffffffffffffff161415610390576040517f08c379a0000000000000000000000000000000000000000000000000000000008152600401610387906108bd565b60405180910390fd5b6103998161044d565b50565b60026020528060005260406000206000915054906101000a900473ffffffffffffffffffffffffffffffffffffffff1681565b6103d76105f0565b73ffffffffffffffffffffffffffffffffffffffff166103f56102b2565b73ffffffffffffffffffffffffffffffffffffffff161461044b576040517f08c379a000000000000000000000000000000000000000000000000000000000815260040161044290610929565b60405180910390fd5b565b60008060009054906101000a900473ffffffffffffffffffffffffffffffffffffffff169050816000806101000a81548173ffffffffffffffffffffffffffffffffffffffff021916908373ffffffffffffffffffffffffffffffffffffffff1602179055508173ffffffffffffffffffffffffffffffffffffffff168173ffffffffffffffffffffffffffffffffffffffff167f8be0079c531659141344cd1fd0a4f28419497f9722a3daafe3b4186f6b6457e060405160405180910390a35050565b600081600001549050919050565b6000763d602d80600a3d3981f3363d3d373d3d3d363d730000008260601b60e81c176000526e5af43d82803e903d91602b57fd5bf38260781b17602052603760096000f09050600073ffffffffffffffffffffffffffffffffffffffff168173ffffffffffffffffffffffffffffffffffffffff1614156105d5576040517f08c379a00000000000000000000000000000000000000000000000000000000081526004016105cc90610995565b60405180910390fd5b919050565b6001816000016000828254019250508190555050565b600033905090565b6000819050919050565b61060b816105f8565b82525050565b60006020820190506106266000830184610602565b92915050565b600080fd5b600073ffffffffffffffffffffffffffffffffffffffff82169050919050565b600061065c82610631565b9050919050565b61066c81610651565b811461067757600080fd5b50565b60008135905061068981610663565b92915050565b600067ffffffffffffffff82169050919050565b6106ac8161068f565b81146106b757600080fd5b50565b6000813590506106c9816106a3565b92915050565b600080600080608085870312156106e9576106e861062c565b5b60006106f78782880161067a565b9450506020610708878288016106ba565b9350506040610719878288016106ba565b925050606061072a878288016106ba565b91505092959194509250565b61073f81610651565b82525050565b600060208201905061075a6000830184610736565b92915050565b610769816105f8565b811461077457600080fd5b50565b60008135905061078681610760565b92915050565b6000602082840312156107a2576107a161062c565b5b60006107b084828501610777565b91505092915050565b6000602082840312156107cf576107ce61062c565b5b60006107dd8482850161067a565b91505092915050565b6107ef8161068f565b82525050565b600060808201905061080a6000830187610736565b61081760208301866107e6565b61082460408301856107e6565b61083160608301846107e6565b95945050505050565b600082825260208201905092915050565b7f4f776e61626c653a206e6577206f776e657220697320746865207a65726f206160008201527f6464726573730000000000000000000000000000000000000000000000000000602082015250565b60006108a760268361083a565b91506108b28261084b565b604082019050919050565b600060208201905081810360008301526108d68161089a565b9050919050565b7f4f776e61626c653a2063616c6c6572206973206e6f7420746865206f776e6572600082015250565b600061091360208361083a565b915061091e826108dd565b602082019050919050565b6000602082019050818103600083015261094281610906565b9050919050565b7f455243313136373a20637265617465206661696c656400000000000000000000600082015250565b600061097f60168361083a565b915061098a82610949565b602082019050919050565b600060208201905081810360008301526109ae81610972565b905091905056fea264697066735822122025efc4d1de70d50e9b3c0e9c9fa8011b9a3ff4f28ad1c047836ce4e242ede6d564736f6c634300080b0033608060405234801561001057600080fd5b5061002d61002261003260201b60201c565b61003a60201b60201c565b6100fe565b600033905090565b60008060009054906101000a900473ffffffffffffffffffffffffffffffffffffffff169050816000806101000a81548173ffffffffffffffffffffffffffffffffffffffff021916908373ffffffffffffffffffffffffffffffffffffffff1602179055508173ffffffffffffffffffffffffffffffffffffffff168173ffffffffffffffffffffffffffffffffffffffff167f8be0079c531659141344cd1fd0a4f28419497f9722a3daafe3b4186f6b6457e060405160405180910390a35050565b6117a48061010d6000396000f3fe608060405234801561001057600080fd5b50600436106100b45760003560e01c80638da5cb5b116100715780638da5cb5b146101535780639613252114610171578063be9a65551461018f578063de809847146101ad578063f2fde38b146101c9578063fbccedae146101e5576100b4565b80630a17b06b146100b95780630fb5a6b4146100e9578063231815da1461010757806327c2e72214610123578063715018a61461013f57806386d1a69f14610149575b600080fd5b6100d360048036038101906100ce9190610ebe565b610203565b6040516100e09190610f04565b60405180910390f35b6100f1610267565b6040516100fe9190610f04565b60405180910390f35b610121600480360381019061011c9190610f7d565b61028f565b005b61013d60048036038101906101389190611049565b6103a4565b005b61014761041f565b005b610151610433565b005b61015b61069b565b60405161016891906110a5565b60405180910390f35b6101796106c4565b6040516101869190610f04565b60405180910390f35b61019761076a565b6040516101a49190610f04565b60405180910390f35b6101c760048036038101906101c29190611049565b610792565b005b6101e360048036038101906101de91906110c0565b6107f0565b005b6101ed610874565b6040516101fa9190610f04565b60405180910390f35b60006102606102106106c4565b600360003373ffffffffffffffffffffffffffffffffffffffff1673ffffffffffffffffffffffffffffffffffffffff1681526020019081526020016000205461025a919061111c565b83610896565b9050919050565b6000600460089054906101000a900467ffffffffffffffff1667ffffffffffffffff16905090565b60001515600660009054906101000a900460ff161515146102e5576040517f08c379a00000000000000000000000000000000000000000000000000000000081526004016102dc906111cf565b60405180910390fd5b6001600660006101000a81548160ff02191690831515021790555083600160006101000a81548173ffffffffffffffffffffffffffffffffffffffff021916908373ffffffffffffffffffffffffffffffffffffffff160217905550808361034d91906111ef565b600460006101000a81548167ffffffffffffffff021916908367ffffffffffffffff16021790555081600460086101000a81548167ffffffffffffffff021916908367ffffffffffffffff16021790555050505050565b6103ac610930565b60005b8282905081101561041a5761040a8383838181106103d0576103cf61122d565b5b90506040020160000160208101906103e891906110c0565b8484848181106103fb576103fa61122d565b5b905060400201602001356109ae565b61041381610a08565b90506103af565b505050565b610427610930565b6104316000610a15565b565b600061043d610874565b9050600560003373ffffffffffffffffffffffffffffffffffffffff1673ffffffffffffffffffffffffffffffffffffffff16815260200190815260200160002054610487610ad9565b111561069857610495610ad9565b600560003373ffffffffffffffffffffffffffffffffffffffff1673ffffffffffffffffffffffffffffffffffffffff1681526020019081526020016000208190555080600360003373ffffffffffffffffffffffffffffffffffffffff1673ffffffffffffffffffffffffffffffffffffffff1681526020019081526020016000206000828254610527919061125c565b925050819055508060026000600160009054906101000a900473ffffffffffffffffffffffffffffffffffffffff1673ffffffffffffffffffffffffffffffffffffffff1673ffffffffffffffffffffffffffffffffffffffff16815260200190815260200160002060003373ffffffffffffffffffffffffffffffffffffffff1673ffffffffffffffffffffffffffffffffffffffff16815260200190815260200160002060008282546105dc919061111c565b925050819055503373ffffffffffffffffffffffffffffffffffffffff16600160009054906101000a900473ffffffffffffffffffffffffffffffffffffffff1673ffffffffffffffffffffffffffffffffffffffff167f1998e30db89daf293a52c4fc4c4470cd506aafc3f9683e8e5daddad80cd6f4a4836040516106629190610f04565b60405180910390a3610697600160009054906101000a900473ffffffffffffffffffffffffffffffffffffffff163383610b0b565b5b50565b60008060009054906101000a900473ffffffffffffffffffffffffffffffffffffffff16905090565b600060026000600160009054906101000a900473ffffffffffffffffffffffffffffffffffffffff1673ffffffffffffffffffffffffffffffffffffffff1673ffffffffffffffffffffffffffffffffffffffff16815260200190815260200160002060003373ffffffffffffffffffffffffffffffffffffffff1673ffffffffffffffffffffffffffffffffffffffff16815260200190815260200160002054905090565b6000600460009054906101000a900467ffffffffffffffff1667ffffffffffffffff16905090565b61079a610930565b60005b828290508110156107eb576107db8383838181106107be576107bd61122d565b5b90506040020160000160208101906107d691906110c0565b610b91565b6107e481610a08565b905061079d565b505050565b6107f8610930565b600073ffffffffffffffffffffffffffffffffffffffff168173ffffffffffffffffffffffffffffffffffffffff161415610868576040517f08c379a000000000000000000000000000000000000000000000000000000000815260040161085f90611302565b60405180910390fd5b61087181610a15565b50565b600061087e6106c4565b61088742610203565b610891919061125c565b905090565b60006108a061076a565b8267ffffffffffffffff1610156108ba576000905061092a565b6108c2610267565b6108ca61076a565b6108d4919061111c565b8267ffffffffffffffff1611156108ed5782905061092a565b6108f5610267565b6108fd61076a565b8367ffffffffffffffff16610912919061125c565b8461091d9190611322565b61092791906113ab565b90505b92915050565b610938610bd7565b73ffffffffffffffffffffffffffffffffffffffff1661095661069b565b73ffffffffffffffffffffffffffffffffffffffff16146109ac576040517f08c379a00000000000000000000000000000000000000000000000000000000081526004016109a390611428565b60405180910390fd5b565b80600360008473ffffffffffffffffffffffffffffffffffffffff1673ffffffffffffffffffffffffffffffffffffffff16815260200190815260200160002060008282546109fd919061111c565b925050819055505050565b6000600182019050919050565b60008060009054906101000a900473ffffffffffffffffffffffffffffffffffffffff169050816000806101000a81548173ffffffffffffffffffffffffffffffffffffffff021916908373ffffffffffffffffffffffffffffffffffffffff1602179055508173ffffffffffffffffffffffffffffffffffffffff168173ffffffffffffffffffffffffffffffffffffffff167f8be0079c531659141344cd1fd0a4f28419497f9722a3daafe3b4186f6b6457e060405160405180910390a35050565b600062278d00610ae761076a565b4267ffffffffffffffff16610afc919061125c565b610b0691906113ab565b905090565b610b8c8363a9059cbb60e01b8484604051602401610b2a929190611448565b604051602081830303815290604052907bffffffffffffffffffffffffffffffffffffffffffffffffffffffff19166020820180517bffffffffffffffffffffffffffffffffffffffffffffffffffffffff8381831617835250505050610bdf565b505050565b600360008273ffffffffffffffffffffffffffffffffffffffff1673ffffffffffffffffffffffffffffffffffffffff1681526020019081526020016000206000905550565b600033905090565b6000610c41826040518060400160405280602081526020017f5361666545524332303a206c6f772d6c6576656c2063616c6c206661696c65648152508573ffffffffffffffffffffffffffffffffffffffff16610ca69092919063ffffffff16565b9050600081511115610ca15780806020019051810190610c6191906114a9565b610ca0576040517f08c379a0000000000000000000000000000000000000000000000000000000008152600401610c9790611548565b60405180910390fd5b5b505050565b6060610cb58484600085610cbe565b90509392505050565b606082471015610d03576040517f08c379a0000000000000000000000000000000000000000000000000000000008152600401610cfa906115da565b60405180910390fd5b6000808673ffffffffffffffffffffffffffffffffffffffff168587604051610d2c9190611674565b60006040518083038185875af1925050503d8060008114610d69576040519150601f19603f3d011682016040523d82523d6000602084013e610d6e565b606091505b5091509150610d7f87838387610d8b565b92505050949350505050565b60608315610dee57600083511415610de657610da685610e01565b610de5576040517f08c379a0000000000000000000000000000000000000000000000000000000008152600401610ddc906116d7565b60405180910390fd5b5b829050610df9565b610df88383610e24565b5b949350505050565b6000808273ffffffffffffffffffffffffffffffffffffffff163b119050919050565b600082511115610e375781518083602001fd5b806040517f08c379a0000000000000000000000000000000000000000000000000000000008152600401610e6b919061174c565b60405180910390fd5b600080fd5b600080fd5b600067ffffffffffffffff82169050919050565b610e9b81610e7e565b8114610ea657600080fd5b50565b600081359050610eb881610e92565b92915050565b600060208284031215610ed457610ed3610e74565b5b6000610ee284828501610ea9565b91505092915050565b6000819050919050565b610efe81610eeb565b82525050565b6000602082019050610f196000830184610ef5565b92915050565b600073ffffffffffffffffffffffffffffffffffffffff82169050919050565b6000610f4a82610f1f565b9050919050565b610f5a81610f3f565b8114610f6557600080fd5b50565b600081359050610f7781610f51565b92915050565b60008060008060808587031215610f9757610f96610e74565b5b6000610fa587828801610f68565b9450506020610fb687828801610ea9565b9350506040610fc787828801610ea9565b9250506060610fd887828801610ea9565b91505092959194509250565b600080fd5b600080fd5b600080fd5b60008083601f84011261100957611008610fe4565b5b8235905067ffffffffffffffff81111561102657611025610fe9565b5b60208301915083604082028301111561104257611041610fee565b5b9250929050565b600080602083850312156110605761105f610e74565b5b600083013567ffffffffffffffff81111561107e5761107d610e79565b5b61108a85828601610ff3565b92509250509250929050565b61109f81610f3f565b82525050565b60006020820190506110ba6000830184611096565b92915050565b6000602082840312156110d6576110d5610e74565b5b60006110e484828501610f68565b91505092915050565b7f4e487b7100000000000000000000000000000000000000000000000000000000600052601160045260246000fd5b600061112782610eeb565b915061113283610eeb565b9250827fffffffffffffffffffffffffffffffffffffffffffffffffffffffffffffffff03821115611167576111666110ed565b5b828201905092915050565b600082825260208201905092915050565b7f496e697469617465640000000000000000000000000000000000000000000000600082015250565b60006111b9600983611172565b91506111c482611183565b602082019050919050565b600060208201905081810360008301526111e8816111ac565b9050919050565b60006111fa82610e7e565b915061120583610e7e565b92508267ffffffffffffffff03821115611222576112216110ed565b5b828201905092915050565b7f4e487b7100000000000000000000000000000000000000000000000000000000600052603260045260246000fd5b600061126782610eeb565b915061127283610eeb565b925082821015611285576112846110ed565b5b828203905092915050565b7f4f776e61626c653a206e6577206f776e657220697320746865207a65726f206160008201527f6464726573730000000000000000000000000000000000000000000000000000602082015250565b60006112ec602683611172565b91506112f782611290565b604082019050919050565b6000602082019050818103600083015261131b816112df565b9050919050565b600061132d82610eeb565b915061133883610eeb565b9250817fffffffffffffffffffffffffffffffffffffffffffffffffffffffffffffffff0483118215151615611371576113706110ed565b5b828202905092915050565b7f4e487b7100000000000000000000000000000000000000000000000000000000600052601260045260246000fd5b60006113b682610eeb565b91506113c183610eeb565b9250826113d1576113d061137c565b5b828204905092915050565b7f4f776e61626c653a2063616c6c6572206973206e6f7420746865206f776e6572600082015250565b6000611412602083611172565b915061141d826113dc565b602082019050919050565b6000602082019050818103600083015261144181611405565b9050919050565b600060408201905061145d6000830185611096565b61146a6020830184610ef5565b9392505050565b60008115159050919050565b61148681611471565b811461149157600080fd5b50565b6000815190506114a38161147d565b92915050565b6000602082840312156114bf576114be610e74565b5b60006114cd84828501611494565b91505092915050565b7f5361666545524332303a204552433230206f7065726174696f6e20646964206e60008201527f6f74207375636365656400000000000000000000000000000000000000000000602082015250565b6000611532602a83611172565b915061153d826114d6565b604082019050919050565b6000602082019050818103600083015261156181611525565b9050919050565b7f416464726573733a20696e73756666696369656e742062616c616e636520666f60008201527f722063616c6c0000000000000000000000000000000000000000000000000000602082015250565b60006115c4602683611172565b91506115cf82611568565b604082019050919050565b600060208201905081810360008301526115f3816115b7565b9050919050565b600081519050919050565b600081905092915050565b60005b8381101561162e578082015181840152602081019050611613565b8381111561163d576000848401525b50505050565b600061164e826115fa565b6116588185611605565b9350611668818560208601611610565b80840191505092915050565b60006116808284611643565b915081905092915050565b7f416464726573733a2063616c6c20746f206e6f6e2d636f6e7472616374000000600082015250565b60006116c1601d83611172565b91506116cc8261168b565b602082019050919050565b600060208201905081810360008301526116f0816116b4565b9050919050565b600081519050919050565b6000601f19601f8301169050919050565b600061171e826116f7565b6117288185611172565b9350611738818560208601611610565b61174181611702565b840191505092915050565b600060208201905081810360008301526117668184611713565b90509291505056fea26469706673582212206a425067717768d217740a9d66a85a808af61419c4a99533275a7db45ff2d7bd64736f6c634300080b0033",
  "linkReferences": {},
  "deployedLinkReferences": {}
}