{
  "_format": "hh-sol-artifact-1",
  "contractName": "WhitelistFactory",
  "sourceName": "contracts/Factory/WhitelistFactory.sol",
  "abi": [
    {
      "inputs": [],
      "stateMutability": "nonpayable",
      "type": "constructor"
    },
    {
      "anonymous": false,
      "inputs": [
        {
          "indexed": true,
          "internalType": "address",
          "name": "previousOwner",
          "type": "address"
        },
        {
          "indexed": true,
          "internalType": "address",
          "name": "newOwner",
          "type": "address"
        }
      ],
      "name": "OwnershipTransferred",
      "type": "event"
    },
    {
      "inputs": [
        {
          "internalType": "address",
          "name": "token",
          "type": "address"
        },
        {
          "internalType": "uint64",
          "name": "start",
          "type": "uint64"
        },
        {
          "internalType": "uint64",
          "name": "duration",
          "type": "uint64"
        },
        {
          "internalType": "uint64",
          "name": "cliff",
          "type": "uint64"
        }
      ],
      "name": "createWhitelist",
      "outputs": [
        {
          "internalType": "address",
          "name": "",
          "type": "address"
        }
      ],
      "stateMutability": "nonpayable",
      "type": "function"
    },
    {
      "inputs": [],
      "name": "getCurrentCounter",
      "outputs": [
        {
          "internalType": "uint256",
          "name": "",
          "type": "uint256"
        }
      ],
      "stateMutability": "view",
      "type": "function"
    },
    {
      "inputs": [
        {
          "internalType": "uint256",
          "name": "counterIdx",
          "type": "uint256"
        }
      ],
      "name": "getWhitelist",
      "outputs": [
        {
          "internalType": "address",
          "name": "",
          "type": "address"
        }
      ],
      "stateMutability": "view",
      "type": "function"
    },
    {
      "inputs": [],
      "name": "owner",
      "outputs": [
        {
          "internalType": "address",
          "name": "",
          "type": "address"
        }
      ],
      "stateMutability": "view",
      "type": "function"
    },
    {
      "inputs": [],
      "name": "renounceOwnership",
      "outputs": [],
      "stateMutability": "nonpayable",
      "type": "function"
    },
    {
      "inputs": [
        {
          "internalType": "address",
          "name": "newOwner",
          "type": "address"
        }
      ],
      "name": "transferOwnership",
      "outputs": [],
      "stateMutability": "nonpayable",
      "type": "function"
    },
    {
      "inputs": [
        {
          "internalType": "uint256",
          "name": "",
          "type": "uint256"
        }
      ],
      "name": "whitelists",
      "outputs": [
        {
          "internalType": "address",
          "name": "",
          "type": "address"
        }
      ],
      "stateMutability": "view",
      "type": "function"
    }
  ],
  "bytecode": "0x60a060405234801561001057600080fd5b5061002d61002261008e60201b60201c565b61009660201b60201c565b6040516100399061015a565b604051809103906000f080158015610055573d6000803e3d6000fd5b5073ffffffffffffffffffffffffffffffffffffffff1660808173ffffffffffffffffffffffffffffffffffffffff1681525050610167565b600033905090565b60008060009054906101000a900473ffffffffffffffffffffffffffffffffffffffff169050816000806101000a81548173ffffffffffffffffffffffffffffffffffffffff021916908373ffffffffffffffffffffffffffffffffffffffff1602179055508173ffffffffffffffffffffffffffffffffffffffff168173ffffffffffffffffffffffffffffffffffffffff167f8be0079c531659141344cd1fd0a4f28419497f9722a3daafe3b4186f6b6457e060405160405180910390a35050565b611a8e80610b6d83390190565b6080516109eb61018260003960006101aa01526109eb6000f3fe608060405234801561001057600080fd5b506004361061007d5760003560e01c80638da5cb5b1161005b5780638da5cb5b146100da57806396db752a146100f8578063f2fde38b14610128578063fe4d5add146101445761007d565b8063715018a61461008257806373448c461461008c57806388faccf5146100aa575b600080fd5b61008a610174565b005b610094610188565b6040516100a19190610611565b60405180910390f35b6100c460048036038101906100bf91906106cf565b610199565b6040516100d19190610745565b60405180910390f35b6100e26102b2565b6040516100ef9190610745565b60405180910390f35b610112600480360381019061010d919061078c565b6102db565b60405161011f9190610745565b60405180910390f35b610142600480360381019061013d91906107b9565b610318565b005b61015e6004803603810190610159919061078c565b61039c565b60405161016b9190610745565b60405180910390f35b61017c6103cf565b610186600061044d565b565b60006101946001610511565b905090565b60006101a36103cf565b60006101ce7f000000000000000000000000000000000000000000000000000000000000000061051f565b90508073ffffffffffffffffffffffffffffffffffffffff1663231815da878787876040518563ffffffff1660e01b815260040161020f94939291906107f5565b600060405180830381600087803b15801561022957600080fd5b505af115801561023d573d6000803e3d6000fd5b5050505080600260006102506001610511565b815260200190815260200160002060006101000a81548173ffffffffffffffffffffffffffffffffffffffff021916908373ffffffffffffffffffffffffffffffffffffffff1602179055506102a660016105da565b80915050949350505050565b60008060009054906101000a900473ffffffffffffffffffffffffffffffffffffffff16905090565b60006002600083815260200190815260200160002060009054906101000a900473ffffffffffffffffffffffffffffffffffffffff169050919050565b6103206103cf565b600073ffffffffffffffffffffffffffffffffffffffff168173ffffffffffffffffffffffffffffffffffffffff161415610390576040517f08c379a0000000000000000000000000000000000000000000000000000000008152600401610387906108bd565b60405180910390fd5b6103998161044d565b50565b60026020528060005260406000206000915054906101000a900473ffffffffffffffffffffffffffffffffffffffff1681565b6103d76105f0565b73ffffffffffffffffffffffffffffffffffffffff166103f56102b2565b73ffffffffffffffffffffffffffffffffffffffff161461044b576040517f08c379a000000000000000000000000000000000000000000000000000000000815260040161044290610929565b60405180910390fd5b565b60008060009054906101000a900473ffffffffffffffffffffffffffffffffffffffff169050816000806101000a81548173ffffffffffffffffffffffffffffffffffffffff021916908373ffffffffffffffffffffffffffffffffffffffff1602179055508173ffffffffffffffffffffffffffffffffffffffff168173ffffffffffffffffffffffffffffffffffffffff167f8be0079c531659141344cd1fd0a4f28419497f9722a3daafe3b4186f6b6457e060405160405180910390a35050565b600081600001549050919050565b6000763d602d80600a3d3981f3363d3d373d3d3d363d730000008260601b60e81c176000526e5af43d82803e903d91602b57fd5bf38260781b17602052603760096000f09050600073ffffffffffffffffffffffffffffffffffffffff168173ffffffffffffffffffffffffffffffffffffffff1614156105d5576040517f08c379a00000000000000000000000000000000000000000000000000000000081526004016105cc90610995565b60405180910390fd5b919050565b6001816000016000828254019250508190555050565b600033905090565b6000819050919050565b61060b816105f8565b82525050565b60006020820190506106266000830184610602565b92915050565b600080fd5b600073ffffffffffffffffffffffffffffffffffffffff82169050919050565b600061065c82610631565b9050919050565b61066c81610651565b811461067757600080fd5b50565b60008135905061068981610663565b92915050565b600067ffffffffffffffff82169050919050565b6106ac8161068f565b81146106b757600080fd5b50565b6000813590506106c9816106a3565b92915050565b600080600080608085870312156106e9576106e861062c565b5b60006106f78782880161067a565b9450506020610708878288016106ba565b9350506040610719878288016106ba565b925050606061072a878288016106ba565b91505092959194509250565b61073f81610651565b82525050565b600060208201905061075a6000830184610736565b92915050565b610769816105f8565b811461077457600080fd5b50565b60008135905061078681610760565b92915050565b6000602082840312156107a2576107a161062c565b5b60006107b084828501610777565b91505092915050565b6000602082840312156107cf576107ce61062c565b5b60006107dd8482850161067a565b91505092915050565b6107ef8161068f565b82525050565b600060808201905061080a6000830187610736565b61081760208301866107e6565b61082460408301856107e6565b61083160608301846107e6565b95945050505050565b600082825260208201905092915050565b7f4f776e61626c653a206e6577206f776e657220697320746865207a65726f206160008201527f6464726573730000000000000000000000000000000000000000000000000000602082015250565b60006108a760268361083a565b91506108b28261084b565b604082019050919050565b600060208201905081810360008301526108d68161089a565b9050919050565b7f4f776e61626c653a2063616c6c6572206973206e6f7420746865206f776e6572600082015250565b600061091360208361083a565b915061091e826108dd565b602082019050919050565b6000602082019050818103600083015261094281610906565b9050919050565b7f455243313136373a20637265617465206661696c656400000000000000000000600082015250565b600061097f60168361083a565b915061098a82610949565b602082019050919050565b600060208201905081810360008301526109ae81610972565b905091905056fea264697066735822122060a60d856b2dceb727fb6c6f7c0b21da89b8b84cc4748ae8aa058a0d6c98e09964736f6c634300080b0033608060405234801561001057600080fd5b5061002d61002261003260201b60201c565b61003a60201b60201c565b6100fe565b600033905090565b60008060009054906101000a900473ffffffffffffffffffffffffffffffffffffffff169050816000806101000a81548173ffffffffffffffffffffffffffffffffffffffff021916908373ffffffffffffffffffffffffffffffffffffffff1602179055508173ffffffffffffffffffffffffffffffffffffffff168173ffffffffffffffffffffffffffffffffffffffff167f8be0079c531659141344cd1fd0a4f28419497f9722a3daafe3b4186f6b6457e060405160405180910390a35050565b6119818061010d6000396000f3fe608060405234801561001057600080fd5b50600436106100b45760003560e01c80638a6af889116100715780638a6af889146101535780638da5cb5b1461016f578063961325211461018d578063be9a6555146101ab578063f2fde38b146101c9578063fbccedae146101e5576100b4565b80630a17b06b146100b95780630fb5a6b4146100e9578063231815da1461010757806351e9091c14610123578063715018a61461013f57806386d1a69f14610149575b600080fd5b6100d360048036038101906100ce9190610fd6565b610203565b6040516100e0919061101c565b60405180910390f35b6100f1610267565b6040516100fe919061101c565b60405180910390f35b610121600480360381019061011c9190611095565b61028f565b005b61013d60048036038101906101389190611161565b61039e565b005b610147610404565b005b610151610418565b005b61016d60048036038101906101689190611161565b610680565b005b6101776107b8565b60405161018491906111bd565b60405180910390f35b6101956107e1565b6040516101a2919061101c565b60405180910390f35b6101b3610887565b6040516101c0919061101c565b60405180910390f35b6101e360048036038101906101de91906111d8565b6108af565b005b6101ed610933565b6040516101fa919061101c565b60405180910390f35b60006102606102106107e1565b600360003373ffffffffffffffffffffffffffffffffffffffff1673ffffffffffffffffffffffffffffffffffffffff1681526020019081526020016000205461025a9190611234565b83610955565b9050919050565b6000600460089054906101000a900467ffffffffffffffff1667ffffffffffffffff16905090565b600660009054906101000a900460ff16156102df576040517f08c379a00000000000000000000000000000000000000000000000000000000081526004016102d6906112e7565b60405180910390fd5b6001600660006101000a81548160ff02191690831515021790555083600160006101000a81548173ffffffffffffffffffffffffffffffffffffffff021916908373ffffffffffffffffffffffffffffffffffffffff16021790555080836103479190611307565b600460006101000a81548167ffffffffffffffff021916908367ffffffffffffffff16021790555081600460086101000a81548167ffffffffffffffff021916908367ffffffffffffffff16021790555050505050565b6103a66109f7565b6103ae610a75565b60005b828290508110156103ff576103ef8383838181106103d2576103d1611345565b5b90506040020160000160208101906103ea91906111d8565b610ac6565b6103f881610b0c565b90506103b1565b505050565b61040c6109f7565b6104166000610b19565b565b6000610422610933565b9050600560003373ffffffffffffffffffffffffffffffffffffffff1673ffffffffffffffffffffffffffffffffffffffff1681526020019081526020016000205461046c610bdd565b111561067d5761047a610bdd565b600560003373ffffffffffffffffffffffffffffffffffffffff1673ffffffffffffffffffffffffffffffffffffffff1681526020019081526020016000208190555080600360003373ffffffffffffffffffffffffffffffffffffffff1673ffffffffffffffffffffffffffffffffffffffff168152602001908152602001600020600082825461050c9190611374565b925050819055508060026000600160009054906101000a900473ffffffffffffffffffffffffffffffffffffffff1673ffffffffffffffffffffffffffffffffffffffff1673ffffffffffffffffffffffffffffffffffffffff16815260200190815260200160002060003373ffffffffffffffffffffffffffffffffffffffff1673ffffffffffffffffffffffffffffffffffffffff16815260200190815260200160002060008282546105c19190611234565b925050819055503373ffffffffffffffffffffffffffffffffffffffff16600160009054906101000a900473ffffffffffffffffffffffffffffffffffffffff1673ffffffffffffffffffffffffffffffffffffffff167f1998e30db89daf293a52c4fc4c4470cd506aafc3f9683e8e5daddad80cd6f4a483604051610647919061101c565b60405180910390a361067c600160009054906101000a900473ffffffffffffffffffffffffffffffffffffffff163383610c0f565b5b50565b6106886109f7565b610690610a75565b60005b828290508110156107b3576107a38383838181106106b4576106b3611345565b5b90506040020160000160208101906106cc91906111d8565b60648585858181106106e1576106e0611345565b5b90506040020160200135600160009054906101000a900473ffffffffffffffffffffffffffffffffffffffff1673ffffffffffffffffffffffffffffffffffffffff1663771a3a1d6040518163ffffffff1660e01b81526004016020604051808303816000875af115801561075a573d6000803e3d6000fd5b505050506040513d601f19601f8201168201806040525081019061077e91906113d4565b606461078a9190611374565b6107949190611401565b61079e919061148a565b610c95565b6107ac81610b0c565b9050610693565b505050565b60008060009054906101000a900473ffffffffffffffffffffffffffffffffffffffff16905090565b600060026000600160009054906101000a900473ffffffffffffffffffffffffffffffffffffffff1673ffffffffffffffffffffffffffffffffffffffff1673ffffffffffffffffffffffffffffffffffffffff16815260200190815260200160002060003373ffffffffffffffffffffffffffffffffffffffff1673ffffffffffffffffffffffffffffffffffffffff16815260200190815260200160002054905090565b6000600460009054906101000a900467ffffffffffffffff1667ffffffffffffffff16905090565b6108b76109f7565b600073ffffffffffffffffffffffffffffffffffffffff168173ffffffffffffffffffffffffffffffffffffffff161415610927576040517f08c379a000000000000000000000000000000000000000000000000000000000815260040161091e9061152d565b60405180910390fd5b61093081610b19565b50565b600061093d6107e1565b61094642610203565b6109509190611374565b905090565b600061095f610a75565b610967610887565b8267ffffffffffffffff16101561098157600090506109f1565b610989610267565b610991610887565b61099b9190611234565b8267ffffffffffffffff1611156109b4578290506109f1565b6109bc610267565b6109c4610887565b8367ffffffffffffffff166109d99190611374565b846109e49190611401565b6109ee919061148a565b90505b92915050565b6109ff610cef565b73ffffffffffffffffffffffffffffffffffffffff16610a1d6107b8565b73ffffffffffffffffffffffffffffffffffffffff1614610a73576040517f08c379a0000000000000000000000000000000000000000000000000000000008152600401610a6a90611599565b60405180910390fd5b565b600660009054906101000a900460ff16610ac4576040517f08c379a0000000000000000000000000000000000000000000000000000000008152600401610abb90611605565b60405180910390fd5b565b600360008273ffffffffffffffffffffffffffffffffffffffff1673ffffffffffffffffffffffffffffffffffffffff1681526020019081526020016000206000905550565b6000600182019050919050565b60008060009054906101000a900473ffffffffffffffffffffffffffffffffffffffff169050816000806101000a81548173ffffffffffffffffffffffffffffffffffffffff021916908373ffffffffffffffffffffffffffffffffffffffff1602179055508173ffffffffffffffffffffffffffffffffffffffff168173ffffffffffffffffffffffffffffffffffffffff167f8be0079c531659141344cd1fd0a4f28419497f9722a3daafe3b4186f6b6457e060405160405180910390a35050565b600062278d00610beb610887565b4267ffffffffffffffff16610c009190611374565b610c0a919061148a565b905090565b610c908363a9059cbb60e01b8484604051602401610c2e929190611625565b604051602081830303815290604052907bffffffffffffffffffffffffffffffffffffffffffffffffffffffff19166020820180517bffffffffffffffffffffffffffffffffffffffffffffffffffffffff8381831617835250505050610cf7565b505050565b80600360008473ffffffffffffffffffffffffffffffffffffffff1673ffffffffffffffffffffffffffffffffffffffff1681526020019081526020016000206000828254610ce49190611234565b925050819055505050565b600033905090565b6000610d59826040518060400160405280602081526020017f5361666545524332303a206c6f772d6c6576656c2063616c6c206661696c65648152508573ffffffffffffffffffffffffffffffffffffffff16610dbe9092919063ffffffff16565b9050600081511115610db95780806020019051810190610d799190611686565b610db8576040517f08c379a0000000000000000000000000000000000000000000000000000000008152600401610daf90611725565b60405180910390fd5b5b505050565b6060610dcd8484600085610dd6565b90509392505050565b606082471015610e1b576040517f08c379a0000000000000000000000000000000000000000000000000000000008152600401610e12906117b7565b60405180910390fd5b6000808673ffffffffffffffffffffffffffffffffffffffff168587604051610e449190611851565b60006040518083038185875af1925050503d8060008114610e81576040519150601f19603f3d011682016040523d82523d6000602084013e610e86565b606091505b5091509150610e9787838387610ea3565b92505050949350505050565b60608315610f0657600083511415610efe57610ebe85610f19565b610efd576040517f08c379a0000000000000000000000000000000000000000000000000000000008152600401610ef4906118b4565b60405180910390fd5b5b829050610f11565b610f108383610f3c565b5b949350505050565b6000808273ffffffffffffffffffffffffffffffffffffffff163b119050919050565b600082511115610f4f5781518083602001fd5b806040517f08c379a0000000000000000000000000000000000000000000000000000000008152600401610f839190611929565b60405180910390fd5b600080fd5b600080fd5b600067ffffffffffffffff82169050919050565b610fb381610f96565b8114610fbe57600080fd5b50565b600081359050610fd081610faa565b92915050565b600060208284031215610fec57610feb610f8c565b5b6000610ffa84828501610fc1565b91505092915050565b6000819050919050565b61101681611003565b82525050565b6000602082019050611031600083018461100d565b92915050565b600073ffffffffffffffffffffffffffffffffffffffff82169050919050565b600061106282611037565b9050919050565b61107281611057565b811461107d57600080fd5b50565b60008135905061108f81611069565b92915050565b600080600080608085870312156110af576110ae610f8c565b5b60006110bd87828801611080565b94505060206110ce87828801610fc1565b93505060406110df87828801610fc1565b92505060606110f087828801610fc1565b91505092959194509250565b600080fd5b600080fd5b600080fd5b60008083601f840112611121576111206110fc565b5b8235905067ffffffffffffffff81111561113e5761113d611101565b5b60208301915083604082028301111561115a57611159611106565b5b9250929050565b6000806020838503121561117857611177610f8c565b5b600083013567ffffffffffffffff81111561119657611195610f91565b5b6111a28582860161110b565b92509250509250929050565b6111b781611057565b82525050565b60006020820190506111d260008301846111ae565b92915050565b6000602082840312156111ee576111ed610f8c565b5b60006111fc84828501611080565b91505092915050565b7f4e487b7100000000000000000000000000000000000000000000000000000000600052601160045260246000fd5b600061123f82611003565b915061124a83611003565b9250827fffffffffffffffffffffffffffffffffffffffffffffffffffffffffffffffff0382111561127f5761127e611205565b5b828201905092915050565b600082825260208201905092915050565b7f496e697469617465640000000000000000000000000000000000000000000000600082015250565b60006112d160098361128a565b91506112dc8261129b565b602082019050919050565b60006020820190508181036000830152611300816112c4565b9050919050565b600061131282610f96565b915061131d83610f96565b92508267ffffffffffffffff0382111561133a57611339611205565b5b828201905092915050565b7f4e487b7100000000000000000000000000000000000000000000000000000000600052603260045260246000fd5b600061137f82611003565b915061138a83611003565b92508282101561139d5761139c611205565b5b828203905092915050565b6113b181611003565b81146113bc57600080fd5b50565b6000815190506113ce816113a8565b92915050565b6000602082840312156113ea576113e9610f8c565b5b60006113f8848285016113bf565b91505092915050565b600061140c82611003565b915061141783611003565b9250817fffffffffffffffffffffffffffffffffffffffffffffffffffffffffffffffff04831182151516156114505761144f611205565b5b828202905092915050565b7f4e487b7100000000000000000000000000000000000000000000000000000000600052601260045260246000fd5b600061149582611003565b91506114a083611003565b9250826114b0576114af61145b565b5b828204905092915050565b7f4f776e61626c653a206e6577206f776e657220697320746865207a65726f206160008201527f6464726573730000000000000000000000000000000000000000000000000000602082015250565b600061151760268361128a565b9150611522826114bb565b604082019050919050565b600060208201905081810360008301526115468161150a565b9050919050565b7f4f776e61626c653a2063616c6c6572206973206e6f7420746865206f776e6572600082015250565b600061158360208361128a565b915061158e8261154d565b602082019050919050565b600060208201905081810360008301526115b281611576565b9050919050565b7f4e6f7420696e6974696174656400000000000000000000000000000000000000600082015250565b60006115ef600d8361128a565b91506115fa826115b9565b602082019050919050565b6000602082019050818103600083015261161e816115e2565b9050919050565b600060408201905061163a60008301856111ae565b611647602083018461100d565b9392505050565b60008115159050919050565b6116638161164e565b811461166e57600080fd5b50565b6000815190506116808161165a565b92915050565b60006020828403121561169c5761169b610f8c565b5b60006116aa84828501611671565b91505092915050565b7f5361666545524332303a204552433230206f7065726174696f6e20646964206e60008201527f6f74207375636365656400000000000000000000000000000000000000000000602082015250565b600061170f602a8361128a565b915061171a826116b3565b604082019050919050565b6000602082019050818103600083015261173e81611702565b9050919050565b7f416464726573733a20696e73756666696369656e742062616c616e636520666f60008201527f722063616c6c0000000000000000000000000000000000000000000000000000602082015250565b60006117a160268361128a565b91506117ac82611745565b604082019050919050565b600060208201905081810360008301526117d081611794565b9050919050565b600081519050919050565b600081905092915050565b60005b8381101561180b5780820151818401526020810190506117f0565b8381111561181a576000848401525b50505050565b600061182b826117d7565b61183581856117e2565b93506118458185602086016117ed565b80840191505092915050565b600061185d8284611820565b915081905092915050565b7f416464726573733a2063616c6c20746f206e6f6e2d636f6e7472616374000000600082015250565b600061189e601d8361128a565b91506118a982611868565b602082019050919050565b600060208201905081810360008301526118cd81611891565b9050919050565b600081519050919050565b6000601f19601f8301169050919050565b60006118fb826118d4565b611905818561128a565b93506119158185602086016117ed565b61191e816118df565b840191505092915050565b6000602082019050818103600083015261194381846118f0565b90509291505056fea2646970667358221220590998dc786fe31866eb2550156ce0d97f5a88d63506b6340764400ff97df32364736f6c634300080b0033",
  "linkReferences": {},
  "deployedLinkReferences": {}
}