{
  "_format": "hh-sol-artifact-1",
  "contractName": "ProjectNameNFT",
  "sourceName": "contracts/ERC721/ProjectNameNFT.sol",
  "abi": [
    {
      "inputs": [],
      "stateMutability": "nonpayable",
      "type": "constructor"
    },
    {
      "anonymous": false,
      "inputs": [
        {
          "indexed": true,
          "internalType": "address",
          "name": "owner",
          "type": "address"
        },
        {
          "indexed": true,
          "internalType": "address",
          "name": "approved",
          "type": "address"
        },
        {
          "indexed": true,
          "internalType": "uint256",
          "name": "tokenId",
          "type": "uint256"
        }
      ],
      "name": "Approval",
      "type": "event"
    },
    {
      "anonymous": false,
      "inputs": [
        {
          "indexed": true,
          "internalType": "address",
          "name": "owner",
          "type": "address"
        },
        {
          "indexed": true,
          "internalType": "address",
          "name": "operator",
          "type": "address"
        },
        {
          "indexed": false,
          "internalType": "bool",
          "name": "approved",
          "type": "bool"
        }
      ],
      "name": "ApprovalForAll",
      "type": "event"
    },
    {
      "anonymous": false,
      "inputs": [
        {
          "indexed": true,
          "internalType": "address",
          "name": "previousOwner",
          "type": "address"
        },
        {
          "indexed": true,
          "internalType": "address",
          "name": "newOwner",
          "type": "address"
        }
      ],
      "name": "OwnershipTransferred",
      "type": "event"
    },
    {
      "anonymous": false,
      "inputs": [
        {
          "indexed": true,
          "internalType": "address",
          "name": "from",
          "type": "address"
        },
        {
          "indexed": true,
          "internalType": "address",
          "name": "to",
          "type": "address"
        },
        {
          "indexed": true,
          "internalType": "uint256",
          "name": "tokenId",
          "type": "uint256"
        }
      ],
      "name": "Transfer",
      "type": "event"
    },
    {
      "inputs": [
        {
          "internalType": "address",
          "name": "to",
          "type": "address"
        },
        {
          "internalType": "uint256",
          "name": "tokenId",
          "type": "uint256"
        }
      ],
      "name": "approve",
      "outputs": [],
      "stateMutability": "nonpayable",
      "type": "function"
    },
    {
      "inputs": [
        {
          "internalType": "address",
          "name": "owner",
          "type": "address"
        }
      ],
      "name": "balanceOf",
      "outputs": [
        {
          "internalType": "uint256",
          "name": "",
          "type": "uint256"
        }
      ],
      "stateMutability": "view",
      "type": "function"
    },
    {
      "inputs": [
        {
          "internalType": "uint256",
          "name": "tokenId",
          "type": "uint256"
        }
      ],
      "name": "burnNFT",
      "outputs": [],
      "stateMutability": "nonpayable",
      "type": "function"
    },
    {
      "inputs": [
        {
          "internalType": "uint256",
          "name": "tokenId",
          "type": "uint256"
        }
      ],
      "name": "claimReward",
      "outputs": [],
      "stateMutability": "nonpayable",
      "type": "function"
    },
    {
      "inputs": [],
      "name": "claimTotalReward",
      "outputs": [],
      "stateMutability": "nonpayable",
      "type": "function"
    },
    {
      "inputs": [
        {
          "internalType": "uint256",
          "name": "tokenId",
          "type": "uint256"
        }
      ],
      "name": "getApproved",
      "outputs": [
        {
          "internalType": "address",
          "name": "",
          "type": "address"
        }
      ],
      "stateMutability": "view",
      "type": "function"
    },
    {
      "inputs": [
        {
          "internalType": "address",
          "name": "_projectOwner",
          "type": "address"
        },
        {
          "internalType": "address",
          "name": "_token",
          "type": "address"
        },
        {
          "internalType": "address",
          "name": "_escrowAddress",
          "type": "address"
        },
        {
          "internalType": "uint96",
          "name": "_royaltyPercentage",
          "type": "uint96"
        },
        {
          "internalType": "uint256",
          "name": "_tokenPrice",
          "type": "uint256"
        }
      ],
      "name": "init",
      "outputs": [],
      "stateMutability": "nonpayable",
      "type": "function"
    },
    {
      "inputs": [
        {
          "internalType": "address",
          "name": "owner",
          "type": "address"
        },
        {
          "internalType": "address",
          "name": "operator",
          "type": "address"
        }
      ],
      "name": "isApprovedForAll",
      "outputs": [
        {
          "internalType": "bool",
          "name": "",
          "type": "bool"
        }
      ],
      "stateMutability": "view",
      "type": "function"
    },
    {
      "inputs": [
        {
          "internalType": "address",
          "name": "recipient",
          "type": "address"
        },
        {
          "internalType": "string",
          "name": "tokenURI",
          "type": "string"
        },
        {
          "internalType": "address",
          "name": "royaltyReceiver",
          "type": "address"
        }
      ],
      "name": "mintNFTWithRoyalty",
      "outputs": [
        {
          "internalType": "uint256",
          "name": "",
          "type": "uint256"
        }
      ],
      "stateMutability": "nonpayable",
      "type": "function"
    },
    {
      "inputs": [],
      "name": "name",
      "outputs": [
        {
          "internalType": "string",
          "name": "",
          "type": "string"
        }
      ],
      "stateMutability": "view",
      "type": "function"
    },
    {
      "inputs": [],
      "name": "owner",
      "outputs": [
        {
          "internalType": "address",
          "name": "",
          "type": "address"
        }
      ],
      "stateMutability": "view",
      "type": "function"
    },
    {
      "inputs": [
        {
          "internalType": "uint256",
          "name": "tokenId",
          "type": "uint256"
        }
      ],
      "name": "ownerOf",
      "outputs": [
        {
          "internalType": "address",
          "name": "",
          "type": "address"
        }
      ],
      "stateMutability": "view",
      "type": "function"
    },
    {
      "inputs": [],
      "name": "renounceOwnership",
      "outputs": [],
      "stateMutability": "nonpayable",
      "type": "function"
    },
    {
      "inputs": [
        {
          "internalType": "uint256",
          "name": "_tokenId",
          "type": "uint256"
        },
        {
          "internalType": "uint256",
          "name": "_salePrice",
          "type": "uint256"
        }
      ],
      "name": "royaltyInfo",
      "outputs": [
        {
          "internalType": "address",
          "name": "",
          "type": "address"
        },
        {
          "internalType": "uint256",
          "name": "",
          "type": "uint256"
        }
      ],
      "stateMutability": "view",
      "type": "function"
    },
    {
      "inputs": [],
      "name": "royaltyPercentage",
      "outputs": [
        {
          "internalType": "uint96",
          "name": "",
          "type": "uint96"
        }
      ],
      "stateMutability": "view",
      "type": "function"
    },
    {
      "inputs": [
        {
          "internalType": "address",
          "name": "from",
          "type": "address"
        },
        {
          "internalType": "address",
          "name": "to",
          "type": "address"
        },
        {
          "internalType": "uint256",
          "name": "tokenId",
          "type": "uint256"
        }
      ],
      "name": "safeTransferFrom",
      "outputs": [],
      "stateMutability": "nonpayable",
      "type": "function"
    },
    {
      "inputs": [
        {
          "internalType": "address",
          "name": "from",
          "type": "address"
        },
        {
          "internalType": "address",
          "name": "to",
          "type": "address"
        },
        {
          "internalType": "uint256",
          "name": "tokenId",
          "type": "uint256"
        },
        {
          "internalType": "bytes",
          "name": "data",
          "type": "bytes"
        }
      ],
      "name": "safeTransferFrom",
      "outputs": [],
      "stateMutability": "nonpayable",
      "type": "function"
    },
    {
      "inputs": [
        {
          "internalType": "address",
          "name": "operator",
          "type": "address"
        },
        {
          "internalType": "bool",
          "name": "approved",
          "type": "bool"
        }
      ],
      "name": "setApprovalForAll",
      "outputs": [],
      "stateMutability": "nonpayable",
      "type": "function"
    },
    {
      "inputs": [
        {
          "internalType": "bytes4",
          "name": "interfaceId",
          "type": "bytes4"
        }
      ],
      "name": "supportsInterface",
      "outputs": [
        {
          "internalType": "bool",
          "name": "",
          "type": "bool"
        }
      ],
      "stateMutability": "view",
      "type": "function"
    },
    {
      "inputs": [],
      "name": "symbol",
      "outputs": [
        {
          "internalType": "string",
          "name": "",
          "type": "string"
        }
      ],
      "stateMutability": "view",
      "type": "function"
    },
    {
      "inputs": [
        {
          "internalType": "uint256",
          "name": "tokenId",
          "type": "uint256"
        }
      ],
      "name": "tokenURI",
      "outputs": [
        {
          "internalType": "string",
          "name": "",
          "type": "string"
        }
      ],
      "stateMutability": "view",
      "type": "function"
    },
    {
      "inputs": [
        {
          "internalType": "address",
          "name": "from",
          "type": "address"
        },
        {
          "internalType": "address",
          "name": "to",
          "type": "address"
        },
        {
          "internalType": "uint256",
          "name": "tokenId",
          "type": "uint256"
        }
      ],
      "name": "transferFrom",
      "outputs": [],
      "stateMutability": "nonpayable",
      "type": "function"
    },
    {
      "inputs": [
        {
          "internalType": "address",
          "name": "newOwner",
          "type": "address"
        }
      ],
      "name": "transferOwnership",
      "outputs": [],
      "stateMutability": "nonpayable",
      "type": "function"
    }
  ],
  "bytecode": "0x60806040523480156200001157600080fd5b506040518060400160405280600481526020017f4e414d45000000000000000000000000000000000000000000000000000000008152506040518060400160405280600681526020017f53594d424f4c0000000000000000000000000000000000000000000000000000815250816000908051906020019062000096929190620001a6565b508060019080519060200190620000af929190620001a6565b505050620000d2620000c6620000d860201b60201c565b620000e060201b60201c565b620002bb565b600033905090565b6000600960009054906101000a900473ffffffffffffffffffffffffffffffffffffffff16905081600960006101000a81548173ffffffffffffffffffffffffffffffffffffffff021916908373ffffffffffffffffffffffffffffffffffffffff1602179055508173ffffffffffffffffffffffffffffffffffffffff168173ffffffffffffffffffffffffffffffffffffffff167f8be0079c531659141344cd1fd0a4f28419497f9722a3daafe3b4186f6b6457e060405160405180910390a35050565b828054620001b49062000285565b90600052602060002090601f016020900481019282620001d8576000855562000224565b82601f10620001f357805160ff191683800117855562000224565b8280016001018555821562000224579182015b828111156200022357825182559160200191906001019062000206565b5b50905062000233919062000237565b5090565b5b808211156200025257600081600090555060010162000238565b5090565b7f4e487b7100000000000000000000000000000000000000000000000000000000600052602260045260246000fd5b600060028204905060018216806200029e57607f821691505b60208210811415620002b557620002b462000256565b5b50919050565b6144ec80620002cb6000396000f3fe608060405234801561001057600080fd5b506004361061014d5760003560e01c806370a08231116100c3578063a9bd9a111161007c578063a9bd9a111461039d578063ae169a50146103a7578063b88d4fde146103c3578063c87b56dd146103df578063e985e9c51461040f578063f2fde38b1461043f5761014d565b806370a08231146102ed578063715018a61461031d5780638a71bb2d146103275780638da5cb5b1461034557806395d89b4114610363578063a22cb465146103815761014d565b80632890e0d7116101155780632890e0d7146102085780632a55205a146102245780633f06c9591461025557806342842e0e146102855780634eeb12ea146102a15780636352211e146102bd5761014d565b806301ffc9a71461015257806306fdde0314610182578063081812fc146101a0578063095ea7b3146101d057806323b872dd146101ec575b600080fd5b61016c60048036038101906101679190612e25565b61045b565b6040516101799190612e6d565b60405180910390f35b61018a61046d565b6040516101979190612f21565b60405180910390f35b6101ba60048036038101906101b59190612f79565b6104ff565b6040516101c79190612fe7565b60405180910390f35b6101ea60048036038101906101e5919061302e565b610545565b005b6102066004803603810190610201919061306e565b61065d565b005b610222600480360381019061021d9190612f79565b6106bd565b005b61023e600480360381019061023991906130c1565b6106d1565b60405161024c929190613110565b60405180910390f35b61026f600480360381019061026a919061326e565b6108bc565b60405161027c91906132dd565b60405180910390f35b61029f600480360381019061029a919061306e565b610904565b005b6102bb60048036038101906102b6919061333c565b610924565b005b6102d760048036038101906102d29190612f79565b610a88565b6040516102e49190612fe7565b60405180910390f35b610307600480360381019061030291906133b7565b610b0f565b60405161031491906132dd565b60405180910390f35b610325610bc7565b005b61032f610bdb565b60405161033c91906133f3565b60405180910390f35b61034d610bf9565b60405161035a9190612fe7565b60405180910390f35b61036b610c23565b6040516103789190612f21565b60405180910390f35b61039b6004803603810190610396919061343a565b610cb5565b005b6103a5610ccb565b005b6103c160048036038101906103bc9190612f79565b610eb4565b005b6103dd60048036038101906103d8919061351b565b6110b6565b005b6103f960048036038101906103f49190612f79565b611118565b6040516104069190612f21565b60405180910390f35b6104296004803603810190610424919061359e565b61122b565b6040516104369190612e6d565b60405180910390f35b610459600480360381019061045491906133b7565b6112bf565b005b600061046682611343565b9050919050565b60606000805461047c9061360d565b80601f01602080910402602001604051908101604052809291908181526020018280546104a89061360d565b80156104f55780601f106104ca576101008083540402835291602001916104f5565b820191906000526020600020905b8154815290600101906020018083116104d857829003601f168201915b5050505050905090565b600061050a826113bd565b6004600083815260200190815260200160002060009054906101000a900473ffffffffffffffffffffffffffffffffffffffff169050919050565b600061055082610a88565b90508073ffffffffffffffffffffffffffffffffffffffff168373ffffffffffffffffffffffffffffffffffffffff1614156105c1576040517f08c379a00000000000000000000000000000000000000000000000000000000081526004016105b8906136b1565b60405180910390fd5b8073ffffffffffffffffffffffffffffffffffffffff166105e0611408565b73ffffffffffffffffffffffffffffffffffffffff16148061060f575061060e81610609611408565b61122b565b5b61064e576040517f08c379a000000000000000000000000000000000000000000000000000000000815260040161064590613743565b60405180910390fd5b6106588383611410565b505050565b61066e610668611408565b826114c9565b6106ad576040517f08c379a00000000000000000000000000000000000000000000000000000000081526004016106a4906137d5565b60405180910390fd5b6106b883838361155e565b505050565b6106c5611858565b6106ce816118d6565b50565b6000806000600860008681526020019081526020016000206040518060400160405290816000820160009054906101000a900473ffffffffffffffffffffffffffffffffffffffff1673ffffffffffffffffffffffffffffffffffffffff1673ffffffffffffffffffffffffffffffffffffffff1681526020016000820160149054906101000a90046bffffffffffffffffffffffff166bffffffffffffffffffffffff166bffffffffffffffffffffffff16815250509050600073ffffffffffffffffffffffffffffffffffffffff16816000015173ffffffffffffffffffffffffffffffffffffffff1614156108675760076040518060400160405290816000820160009054906101000a900473ffffffffffffffffffffffffffffffffffffffff1673ffffffffffffffffffffffffffffffffffffffff1673ffffffffffffffffffffffffffffffffffffffff1681526020016000820160149054906101000a90046bffffffffffffffffffffffff166bffffffffffffffffffffffff166bffffffffffffffffffffffff168152505090505b60006108716118eb565b6bffffffffffffffffffffffff1682602001516bffffffffffffffffffffffff168661089d9190613824565b6108a791906138ad565b90508160000151819350935050509250929050565b60006108c6611858565b60006108d285856118f5565b90506108f98184600c60009054906101000a90046bffffffffffffffffffffffff1661192d565b809150509392505050565b61091f838383604051806020016040528060008152506110b6565b505050565b600073ffffffffffffffffffffffffffffffffffffffff16600c8054906101000a900473ffffffffffffffffffffffffffffffffffffffff1673ffffffffffffffffffffffffffffffffffffffff16146109b3576040517f08c379a00000000000000000000000000000000000000000000000000000000081526004016109aa9061392a565b60405180910390fd5b83600c806101000a81548173ffffffffffffffffffffffffffffffffffffffff021916908373ffffffffffffffffffffffffffffffffffffffff16021790555082600d60006101000a81548173ffffffffffffffffffffffffffffffffffffffff021916908373ffffffffffffffffffffffffffffffffffffffff160217905550606482610a41919061394a565b600c60006101000a8154816bffffffffffffffffffffffff02191690836bffffffffffffffffffffffff16021790555080600b81905550610a81856112bf565b5050505050565b600080610a9483611ad5565b9050600073ffffffffffffffffffffffffffffffffffffffff168173ffffffffffffffffffffffffffffffffffffffff161415610b06576040517f08c379a0000000000000000000000000000000000000000000000000000000008152600401610afd906139dc565b60405180910390fd5b80915050919050565b60008073ffffffffffffffffffffffffffffffffffffffff168273ffffffffffffffffffffffffffffffffffffffff161415610b80576040517f08c379a0000000000000000000000000000000000000000000000000000000008152600401610b7790613a6e565b60405180910390fd5b600360008373ffffffffffffffffffffffffffffffffffffffff1673ffffffffffffffffffffffffffffffffffffffff168152602001908152602001600020549050919050565b610bcf611858565b610bd96000611b12565b565b600c60009054906101000a90046bffffffffffffffffffffffff1681565b6000600960009054906101000a900473ffffffffffffffffffffffffffffffffffffffff16905090565b606060018054610c329061360d565b80601f0160208091040260200160405190810160405280929190818152602001828054610c5e9061360d565b8015610cab5780601f10610c8057610100808354040283529160200191610cab565b820191906000526020600020905b815481529060010190602001808311610c8e57829003601f168201915b5050505050905090565b610cc7610cc0611408565b8383611bd8565b5050565b6000610cd633610b0f565b11610d16576040517f08c379a0000000000000000000000000000000000000000000000000000000008152600401610d0d90613ada565b60405180910390fd5b6000600c8054906101000a900473ffffffffffffffffffffffffffffffffffffffff1673ffffffffffffffffffffffffffffffffffffffff166370a08231306040518263ffffffff1660e01b8152600401610d719190612fe7565b602060405180830381865afa158015610d8e573d6000803e3d6000fd5b505050506040513d601f19601f82011682018060405250810190610db29190613b0f565b90506000600d60009054906101000a900473ffffffffffffffffffffffffffffffffffffffff1673ffffffffffffffffffffffffffffffffffffffff166395adab01306040518263ffffffff1660e01b8152600401610e119190612fe7565b602060405180830381865afa158015610e2e573d6000803e3d6000fd5b505050506040513d601f19601f82011682018060405250810190610e529190613b0f565b905060008183600b54610e6433610b0f565b610e6e9190613824565b610e789190613824565b610e8291906138ad565b9050610eaf600c8054906101000a900473ffffffffffffffffffffffffffffffffffffffff163383611d45565b505050565b3373ffffffffffffffffffffffffffffffffffffffff16610ed482610a88565b73ffffffffffffffffffffffffffffffffffffffff1614610f2a576040517f08c379a0000000000000000000000000000000000000000000000000000000008152600401610f2190613ada565b60405180910390fd5b6000600c8054906101000a900473ffffffffffffffffffffffffffffffffffffffff1673ffffffffffffffffffffffffffffffffffffffff166370a08231306040518263ffffffff1660e01b8152600401610f859190612fe7565b602060405180830381865afa158015610fa2573d6000803e3d6000fd5b505050506040513d601f19601f82011682018060405250810190610fc69190613b0f565b90506000600d60009054906101000a900473ffffffffffffffffffffffffffffffffffffffff1673ffffffffffffffffffffffffffffffffffffffff166395adab01306040518263ffffffff1660e01b81526004016110259190612fe7565b602060405180830381865afa158015611042573d6000803e3d6000fd5b505050506040513d601f19601f820116820180604052508101906110669190613b0f565b905060008183600b546110799190613824565b61108391906138ad565b90506110b0600c8054906101000a900473ffffffffffffffffffffffffffffffffffffffff163383611d45565b50505050565b6110c76110c1611408565b836114c9565b611106576040517f08c379a00000000000000000000000000000000000000000000000000000000081526004016110fd906137d5565b60405180910390fd5b61111284848484611dcb565b50505050565b6060611123826113bd565b60006006600084815260200190815260200160002080546111439061360d565b80601f016020809104026020016040519081016040528092919081815260200182805461116f9061360d565b80156111bc5780601f10611191576101008083540402835291602001916111bc565b820191906000526020600020905b81548152906001019060200180831161119f57829003601f168201915b5050505050905060006111cd611e27565b90506000815114156111e3578192505050611226565b600082511115611218578082604051602001611200929190613b78565b60405160208183030381529060405292505050611226565b61122184611e3e565b925050505b919050565b6000600560008473ffffffffffffffffffffffffffffffffffffffff1673ffffffffffffffffffffffffffffffffffffffff16815260200190815260200160002060008373ffffffffffffffffffffffffffffffffffffffff1673ffffffffffffffffffffffffffffffffffffffff16815260200190815260200160002060009054906101000a900460ff16905092915050565b6112c7611858565b600073ffffffffffffffffffffffffffffffffffffffff168173ffffffffffffffffffffffffffffffffffffffff161415611337576040517f08c379a000000000000000000000000000000000000000000000000000000000815260040161132e90613c0e565b60405180910390fd5b61134081611b12565b50565b60007f2a55205a000000000000000000000000000000000000000000000000000000007bffffffffffffffffffffffffffffffffffffffffffffffffffffffff1916827bffffffffffffffffffffffffffffffffffffffffffffffffffffffff191614806113b657506113b582611ea6565b5b9050919050565b6113c681611f88565b611405576040517f08c379a00000000000000000000000000000000000000000000000000000000081526004016113fc906139dc565b60405180910390fd5b50565b600033905090565b816004600083815260200190815260200160002060006101000a81548173ffffffffffffffffffffffffffffffffffffffff021916908373ffffffffffffffffffffffffffffffffffffffff160217905550808273ffffffffffffffffffffffffffffffffffffffff1661148383610a88565b73ffffffffffffffffffffffffffffffffffffffff167f8c5be1e5ebec7d5bd14f71427d1e84f3dd0314c0f7b2291e5b200ac8c7c3b92560405160405180910390a45050565b6000806114d583610a88565b90508073ffffffffffffffffffffffffffffffffffffffff168473ffffffffffffffffffffffffffffffffffffffff1614806115175750611516818561122b565b5b8061155557508373ffffffffffffffffffffffffffffffffffffffff1661153d846104ff565b73ffffffffffffffffffffffffffffffffffffffff16145b91505092915050565b8273ffffffffffffffffffffffffffffffffffffffff1661157e82610a88565b73ffffffffffffffffffffffffffffffffffffffff16146115d4576040517f08c379a00000000000000000000000000000000000000000000000000000000081526004016115cb90613ca0565b60405180910390fd5b600073ffffffffffffffffffffffffffffffffffffffff168273ffffffffffffffffffffffffffffffffffffffff161415611644576040517f08c379a000000000000000000000000000000000000000000000000000000000815260040161163b90613d32565b60405180910390fd5b6116518383836001611fc9565b8273ffffffffffffffffffffffffffffffffffffffff1661167182610a88565b73ffffffffffffffffffffffffffffffffffffffff16146116c7576040517f08c379a00000000000000000000000000000000000000000000000000000000081526004016116be90613ca0565b60405180910390fd5b6004600082815260200190815260200160002060006101000a81549073ffffffffffffffffffffffffffffffffffffffff02191690556001600360008573ffffffffffffffffffffffffffffffffffffffff1673ffffffffffffffffffffffffffffffffffffffff168152602001908152602001600020600082825403925050819055506001600360008473ffffffffffffffffffffffffffffffffffffffff1673ffffffffffffffffffffffffffffffffffffffff16815260200190815260200160002060008282540192505081905550816002600083815260200190815260200160002060006101000a81548173ffffffffffffffffffffffffffffffffffffffff021916908373ffffffffffffffffffffffffffffffffffffffff160217905550808273ffffffffffffffffffffffffffffffffffffffff168473ffffffffffffffffffffffffffffffffffffffff167fddf252ad1be2c89b69c2b068fc378daa952ba7f163c4a11628f55a4df523b3ef60405160405180910390a461185383838360016120ef565b505050565b611860611408565b73ffffffffffffffffffffffffffffffffffffffff1661187e610bf9565b73ffffffffffffffffffffffffffffffffffffffff16146118d4576040517f08c379a00000000000000000000000000000000000000000000000000000000081526004016118cb90613d9e565b60405180910390fd5b565b6118df816120f5565b6118e881612148565b50565b6000612710905090565b6000611901600a6121a7565b600061190d600a6121bd565b905061191984826121cb565b61192381846121e9565b8091505092915050565b6119356118eb565b6bffffffffffffffffffffffff16816bffffffffffffffffffffffff161115611993576040517f08c379a000000000000000000000000000000000000000000000000000000000815260040161198a90613e30565b60405180910390fd5b600073ffffffffffffffffffffffffffffffffffffffff168273ffffffffffffffffffffffffffffffffffffffff161415611a03576040517f08c379a00000000000000000000000000000000000000000000000000000000081526004016119fa90613e9c565b60405180910390fd5b60405180604001604052808373ffffffffffffffffffffffffffffffffffffffff168152602001826bffffffffffffffffffffffff168152506008600085815260200190815260200160002060008201518160000160006101000a81548173ffffffffffffffffffffffffffffffffffffffff021916908373ffffffffffffffffffffffffffffffffffffffff16021790555060208201518160000160146101000a8154816bffffffffffffffffffffffff02191690836bffffffffffffffffffffffff160217905550905050505050565b60006002600083815260200190815260200160002060009054906101000a900473ffffffffffffffffffffffffffffffffffffffff169050919050565b6000600960009054906101000a900473ffffffffffffffffffffffffffffffffffffffff16905081600960006101000a81548173ffffffffffffffffffffffffffffffffffffffff021916908373ffffffffffffffffffffffffffffffffffffffff1602179055508173ffffffffffffffffffffffffffffffffffffffff168173ffffffffffffffffffffffffffffffffffffffff167f8be0079c531659141344cd1fd0a4f28419497f9722a3daafe3b4186f6b6457e060405160405180910390a35050565b8173ffffffffffffffffffffffffffffffffffffffff168373ffffffffffffffffffffffffffffffffffffffff161415611c47576040517f08c379a0000000000000000000000000000000000000000000000000000000008152600401611c3e90613f08565b60405180910390fd5b80600560008573ffffffffffffffffffffffffffffffffffffffff1673ffffffffffffffffffffffffffffffffffffffff16815260200190815260200160002060008473ffffffffffffffffffffffffffffffffffffffff1673ffffffffffffffffffffffffffffffffffffffff16815260200190815260200160002060006101000a81548160ff0219169083151502179055508173ffffffffffffffffffffffffffffffffffffffff168373ffffffffffffffffffffffffffffffffffffffff167f17307eab39ab6107e8899845ad3d59bd9653f200f220920489ca2b5937696c3183604051611d389190612e6d565b60405180910390a3505050565b611dc68363a9059cbb60e01b8484604051602401611d64929190613110565b604051602081830303815290604052907bffffffffffffffffffffffffffffffffffffffffffffffffffffffff19166020820180517bffffffffffffffffffffffffffffffffffffffffffffffffffffffff838183161783525050505061225d565b505050565b611dd684848461155e565b611de284848484612324565b611e21576040517f08c379a0000000000000000000000000000000000000000000000000000000008152600401611e1890613f9a565b60405180910390fd5b50505050565b606060405180602001604052806000815250905090565b6060611e49826113bd565b6000611e53611e27565b90506000815111611e735760405180602001604052806000815250611e9e565b80611e7d846124ac565b604051602001611e8e929190613b78565b6040516020818303038152906040525b915050919050565b60007f80ac58cd000000000000000000000000000000000000000000000000000000007bffffffffffffffffffffffffffffffffffffffffffffffffffffffff1916827bffffffffffffffffffffffffffffffffffffffffffffffffffffffff19161480611f7157507f5b5e139f000000000000000000000000000000000000000000000000000000007bffffffffffffffffffffffffffffffffffffffffffffffffffffffff1916827bffffffffffffffffffffffffffffffffffffffffffffffffffffffff1916145b80611f815750611f8082612584565b5b9050919050565b60008073ffffffffffffffffffffffffffffffffffffffff16611faa83611ad5565b73ffffffffffffffffffffffffffffffffffffffff1614159050919050565b60018111156120e957600073ffffffffffffffffffffffffffffffffffffffff168473ffffffffffffffffffffffffffffffffffffffff161461205d5780600360008673ffffffffffffffffffffffffffffffffffffffff1673ffffffffffffffffffffffffffffffffffffffff16815260200190815260200160002060008282546120559190613fba565b925050819055505b600073ffffffffffffffffffffffffffffffffffffffff168373ffffffffffffffffffffffffffffffffffffffff16146120e85780600360008573ffffffffffffffffffffffffffffffffffffffff1673ffffffffffffffffffffffffffffffffffffffff16815260200190815260200160002060008282546120e09190613fee565b925050819055505b5b50505050565b50505050565b6120fe816125ee565b600060066000838152602001908152602001600020805461211e9061360d565b905014612145576006600082815260200190815260200160002060006121449190612cd6565b5b50565b60086000828152602001908152602001600020600080820160006101000a81549073ffffffffffffffffffffffffffffffffffffffff02191690556000820160146101000a8154906bffffffffffffffffffffffff0219169055505050565b6001816000016000828254019250508190555050565b600081600001549050919050565b6121e582826040518060200160405280600081525061273c565b5050565b6121f282611f88565b612231576040517f08c379a0000000000000000000000000000000000000000000000000000000008152600401612228906140b6565b60405180910390fd5b80600660008481526020019081526020016000209080519060200190612258929190612d16565b505050565b60006122bf826040518060400160405280602081526020017f5361666545524332303a206c6f772d6c6576656c2063616c6c206661696c65648152508573ffffffffffffffffffffffffffffffffffffffff166127979092919063ffffffff16565b905060008151111561231f57808060200190518101906122df91906140eb565b61231e576040517f08c379a00000000000000000000000000000000000000000000000000000000081526004016123159061418a565b60405180910390fd5b5b505050565b60006123458473ffffffffffffffffffffffffffffffffffffffff166127af565b1561249f578373ffffffffffffffffffffffffffffffffffffffff1663150b7a0261236e611408565b8786866040518563ffffffff1660e01b815260040161239094939291906141ff565b6020604051808303816000875af19250505080156123cc57506040513d601f19601f820116820180604052508101906123c99190614260565b60015b61244f573d80600081146123fc576040519150601f19603f3d011682016040523d82523d6000602084013e612401565b606091505b50600081511415612447576040517f08c379a000000000000000000000000000000000000000000000000000000000815260040161243e90613f9a565b60405180910390fd5b805181602001fd5b63150b7a0260e01b7bffffffffffffffffffffffffffffffffffffffffffffffffffffffff1916817bffffffffffffffffffffffffffffffffffffffffffffffffffffffff1916149150506124a4565b600190505b949350505050565b6060600060016124bb846127d2565b01905060008167ffffffffffffffff8111156124da576124d9613143565b5b6040519080825280601f01601f19166020018201604052801561250c5781602001600182028036833780820191505090505b509050600082602001820190505b600115612579578080600190039150507f3031323334353637383961626364656600000000000000000000000000000000600a86061a8153600a85816125635761256261387e565b5b049450600085141561257457612579565b61251a565b819350505050919050565b60007f01ffc9a7000000000000000000000000000000000000000000000000000000007bffffffffffffffffffffffffffffffffffffffffffffffffffffffff1916827bffffffffffffffffffffffffffffffffffffffffffffffffffffffff1916149050919050565b60006125f982610a88565b9050612609816000846001611fc9565b61261282610a88565b90506004600083815260200190815260200160002060006101000a81549073ffffffffffffffffffffffffffffffffffffffff02191690556001600360008373ffffffffffffffffffffffffffffffffffffffff1673ffffffffffffffffffffffffffffffffffffffff168152602001908152602001600020600082825403925050819055506002600083815260200190815260200160002060006101000a81549073ffffffffffffffffffffffffffffffffffffffff021916905581600073ffffffffffffffffffffffffffffffffffffffff168273ffffffffffffffffffffffffffffffffffffffff167fddf252ad1be2c89b69c2b068fc378daa952ba7f163c4a11628f55a4df523b3ef60405160405180910390a46127388160008460016120ef565b5050565b6127468383612925565b6127536000848484612324565b612792576040517f08c379a000000000000000000000000000000000000000000000000000000000815260040161278990613f9a565b60405180910390fd5b505050565b60606127a68484600085612b43565b90509392505050565b6000808273ffffffffffffffffffffffffffffffffffffffff163b119050919050565b600080600090507a184f03e93ff9f4daa797ed6e38ed64bf6a1f0100000000000000008310612830577a184f03e93ff9f4daa797ed6e38ed64bf6a1f01000000000000000083816128265761282561387e565b5b0492506040810190505b6d04ee2d6d415b85acef8100000000831061286d576d04ee2d6d415b85acef810000000083816128635761286261387e565b5b0492506020810190505b662386f26fc10000831061289c57662386f26fc1000083816128925761289161387e565b5b0492506010810190505b6305f5e10083106128c5576305f5e10083816128bb576128ba61387e565b5b0492506008810190505b61271083106128ea5761271083816128e0576128df61387e565b5b0492506004810190505b6064831061290d57606483816129035761290261387e565b5b0492506002810190505b600a831061291c576001810190505b80915050919050565b600073ffffffffffffffffffffffffffffffffffffffff168273ffffffffffffffffffffffffffffffffffffffff161415612995576040517f08c379a000000000000000000000000000000000000000000000000000000000815260040161298c906142d9565b60405180910390fd5b61299e81611f88565b156129de576040517f08c379a00000000000000000000000000000000000000000000000000000000081526004016129d590614345565b60405180910390fd5b6129ec600083836001611fc9565b6129f581611f88565b15612a35576040517f08c379a0000000000000000000000000000000000000000000000000000000008152600401612a2c90614345565b60405180910390fd5b6001600360008473ffffffffffffffffffffffffffffffffffffffff1673ffffffffffffffffffffffffffffffffffffffff16815260200190815260200160002060008282540192505081905550816002600083815260200190815260200160002060006101000a81548173ffffffffffffffffffffffffffffffffffffffff021916908373ffffffffffffffffffffffffffffffffffffffff160217905550808273ffffffffffffffffffffffffffffffffffffffff16600073ffffffffffffffffffffffffffffffffffffffff167fddf252ad1be2c89b69c2b068fc378daa952ba7f163c4a11628f55a4df523b3ef60405160405180910390a4612b3f6000838360016120ef565b5050565b606082471015612b88576040517f08c379a0000000000000000000000000000000000000000000000000000000008152600401612b7f906143d7565b60405180910390fd5b6000808673ffffffffffffffffffffffffffffffffffffffff168587604051612bb19190614433565b60006040518083038185875af1925050503d8060008114612bee576040519150601f19603f3d011682016040523d82523d6000602084013e612bf3565b606091505b5091509150612c0487838387612c10565b92505050949350505050565b60608315612c7357600083511415612c6b57612c2b856127af565b612c6a576040517f08c379a0000000000000000000000000000000000000000000000000000000008152600401612c6190614496565b60405180910390fd5b5b829050612c7e565b612c7d8383612c86565b5b949350505050565b600082511115612c995781518083602001fd5b806040517f08c379a0000000000000000000000000000000000000000000000000000000008152600401612ccd9190612f21565b60405180910390fd5b508054612ce29061360d565b6000825580601f10612cf45750612d13565b601f016020900490600052602060002090810190612d129190612d9c565b5b50565b828054612d229061360d565b90600052602060002090601f016020900481019282612d445760008555612d8b565b82601f10612d5d57805160ff1916838001178555612d8b565b82800160010185558215612d8b579182015b82811115612d8a578251825591602001919060010190612d6f565b5b509050612d989190612d9c565b5090565b5b80821115612db5576000816000905550600101612d9d565b5090565b6000604051905090565b600080fd5b600080fd5b60007fffffffff0000000000000000000000000000000000000000000000000000000082169050919050565b612e0281612dcd565b8114612e0d57600080fd5b50565b600081359050612e1f81612df9565b92915050565b600060208284031215612e3b57612e3a612dc3565b5b6000612e4984828501612e10565b91505092915050565b60008115159050919050565b612e6781612e52565b82525050565b6000602082019050612e826000830184612e5e565b92915050565b600081519050919050565b600082825260208201905092915050565b60005b83811015612ec2578082015181840152602081019050612ea7565b83811115612ed1576000848401525b50505050565b6000601f19601f8301169050919050565b6000612ef382612e88565b612efd8185612e93565b9350612f0d818560208601612ea4565b612f1681612ed7565b840191505092915050565b60006020820190508181036000830152612f3b8184612ee8565b905092915050565b6000819050919050565b612f5681612f43565b8114612f6157600080fd5b50565b600081359050612f7381612f4d565b92915050565b600060208284031215612f8f57612f8e612dc3565b5b6000612f9d84828501612f64565b91505092915050565b600073ffffffffffffffffffffffffffffffffffffffff82169050919050565b6000612fd182612fa6565b9050919050565b612fe181612fc6565b82525050565b6000602082019050612ffc6000830184612fd8565b92915050565b61300b81612fc6565b811461301657600080fd5b50565b60008135905061302881613002565b92915050565b6000806040838503121561304557613044612dc3565b5b600061305385828601613019565b925050602061306485828601612f64565b9150509250929050565b60008060006060848603121561308757613086612dc3565b5b600061309586828701613019565b93505060206130a686828701613019565b92505060406130b786828701612f64565b9150509250925092565b600080604083850312156130d8576130d7612dc3565b5b60006130e685828601612f64565b92505060206130f785828601612f64565b9150509250929050565b61310a81612f43565b82525050565b60006040820190506131256000830185612fd8565b6131326020830184613101565b9392505050565b600080fd5b600080fd5b7f4e487b7100000000000000000000000000000000000000000000000000000000600052604160045260246000fd5b61317b82612ed7565b810181811067ffffffffffffffff8211171561319a57613199613143565b5b80604052505050565b60006131ad612db9565b90506131b98282613172565b919050565b600067ffffffffffffffff8211156131d9576131d8613143565b5b6131e282612ed7565b9050602081019050919050565b82818337600083830152505050565b600061321161320c846131be565b6131a3565b90508281526020810184848401111561322d5761322c61313e565b5b6132388482856131ef565b509392505050565b600082601f83011261325557613254613139565b5b81356132658482602086016131fe565b91505092915050565b60008060006060848603121561328757613286612dc3565b5b600061329586828701613019565b935050602084013567ffffffffffffffff8111156132b6576132b5612dc8565b5b6132c286828701613240565b92505060406132d386828701613019565b9150509250925092565b60006020820190506132f26000830184613101565b92915050565b60006bffffffffffffffffffffffff82169050919050565b613319816132f8565b811461332457600080fd5b50565b60008135905061333681613310565b92915050565b600080600080600060a0868803121561335857613357612dc3565b5b600061336688828901613019565b955050602061337788828901613019565b945050604061338888828901613019565b935050606061339988828901613327565b92505060806133aa88828901612f64565b9150509295509295909350565b6000602082840312156133cd576133cc612dc3565b5b60006133db84828501613019565b91505092915050565b6133ed816132f8565b82525050565b600060208201905061340860008301846133e4565b92915050565b61341781612e52565b811461342257600080fd5b50565b6000813590506134348161340e565b92915050565b6000806040838503121561345157613450612dc3565b5b600061345f85828601613019565b925050602061347085828601613425565b9150509250929050565b600067ffffffffffffffff82111561349557613494613143565b5b61349e82612ed7565b9050602081019050919050565b60006134be6134b98461347a565b6131a3565b9050828152602081018484840111156134da576134d961313e565b5b6134e58482856131ef565b509392505050565b600082601f83011261350257613501613139565b5b81356135128482602086016134ab565b91505092915050565b6000806000806080858703121561353557613534612dc3565b5b600061354387828801613019565b945050602061355487828801613019565b935050604061356587828801612f64565b925050606085013567ffffffffffffffff81111561358657613585612dc8565b5b613592878288016134ed565b91505092959194509250565b600080604083850312156135b5576135b4612dc3565b5b60006135c385828601613019565b92505060206135d485828601613019565b9150509250929050565b7f4e487b7100000000000000000000000000000000000000000000000000000000600052602260045260246000fd5b6000600282049050600182168061362557607f821691505b60208210811415613639576136386135de565b5b50919050565b7f4552433732313a20617070726f76616c20746f2063757272656e74206f776e6560008201527f7200000000000000000000000000000000000000000000000000000000000000602082015250565b600061369b602183612e93565b91506136a68261363f565b604082019050919050565b600060208201905081810360008301526136ca8161368e565b9050919050565b7f4552433732313a20617070726f76652063616c6c6572206973206e6f7420746f60008201527f6b656e206f776e6572206f7220617070726f76656420666f7220616c6c000000602082015250565b600061372d603d83612e93565b9150613738826136d1565b604082019050919050565b6000602082019050818103600083015261375c81613720565b9050919050565b7f4552433732313a2063616c6c6572206973206e6f7420746f6b656e206f776e6560008201527f72206f7220617070726f76656400000000000000000000000000000000000000602082015250565b60006137bf602d83612e93565b91506137ca82613763565b604082019050919050565b600060208201905081810360008301526137ee816137b2565b9050919050565b7f4e487b7100000000000000000000000000000000000000000000000000000000600052601160045260246000fd5b600061382f82612f43565b915061383a83612f43565b9250817fffffffffffffffffffffffffffffffffffffffffffffffffffffffffffffffff0483118215151615613873576138726137f5565b5b828202905092915050565b7f4e487b7100000000000000000000000000000000000000000000000000000000600052601260045260246000fd5b60006138b882612f43565b91506138c383612f43565b9250826138d3576138d261387e565b5b828204905092915050565b7f496e697469617465640000000000000000000000000000000000000000000000600082015250565b6000613914600983612e93565b915061391f826138de565b602082019050919050565b6000602082019050818103600083015261394381613907565b9050919050565b6000613955826132f8565b9150613960836132f8565b9250816bffffffffffffffffffffffff0483118215151615613985576139846137f5565b5b828202905092915050565b7f4552433732313a20696e76616c696420746f6b656e2049440000000000000000600082015250565b60006139c6601883612e93565b91506139d182613990565b602082019050919050565b600060208201905081810360008301526139f5816139b9565b9050919050565b7f4552433732313a2061646472657373207a65726f206973206e6f74206120766160008201527f6c6964206f776e65720000000000000000000000000000000000000000000000602082015250565b6000613a58602983612e93565b9150613a63826139fc565b604082019050919050565b60006020820190508181036000830152613a8781613a4b565b9050919050565b7f4e6f7420656c696769626c650000000000000000000000000000000000000000600082015250565b6000613ac4600c83612e93565b9150613acf82613a8e565b602082019050919050565b60006020820190508181036000830152613af381613ab7565b9050919050565b600081519050613b0981612f4d565b92915050565b600060208284031215613b2557613b24612dc3565b5b6000613b3384828501613afa565b91505092915050565b600081905092915050565b6000613b5282612e88565b613b5c8185613b3c565b9350613b6c818560208601612ea4565b80840191505092915050565b6000613b848285613b47565b9150613b908284613b47565b91508190509392505050565b7f4f776e61626c653a206e6577206f776e657220697320746865207a65726f206160008201527f6464726573730000000000000000000000000000000000000000000000000000602082015250565b6000613bf8602683612e93565b9150613c0382613b9c565b604082019050919050565b60006020820190508181036000830152613c2781613beb565b9050919050565b7f4552433732313a207472616e736665722066726f6d20696e636f72726563742060008201527f6f776e6572000000000000000000000000000000000000000000000000000000602082015250565b6000613c8a602583612e93565b9150613c9582613c2e565b604082019050919050565b60006020820190508181036000830152613cb981613c7d565b9050919050565b7f4552433732313a207472616e7366657220746f20746865207a65726f2061646460008201527f7265737300000000000000000000000000000000000000000000000000000000602082015250565b6000613d1c602483612e93565b9150613d2782613cc0565b604082019050919050565b60006020820190508181036000830152613d4b81613d0f565b9050919050565b7f4f776e61626c653a2063616c6c6572206973206e6f7420746865206f776e6572600082015250565b6000613d88602083612e93565b9150613d9382613d52565b602082019050919050565b60006020820190508181036000830152613db781613d7b565b9050919050565b7f455243323938313a20726f79616c7479206665652077696c6c2065786365656460008201527f2073616c65507269636500000000000000000000000000000000000000000000602082015250565b6000613e1a602a83612e93565b9150613e2582613dbe565b604082019050919050565b60006020820190508181036000830152613e4981613e0d565b9050919050565b7f455243323938313a20496e76616c696420706172616d65746572730000000000600082015250565b6000613e86601b83612e93565b9150613e9182613e50565b602082019050919050565b60006020820190508181036000830152613eb581613e79565b9050919050565b7f4552433732313a20617070726f766520746f2063616c6c657200000000000000600082015250565b6000613ef2601983612e93565b9150613efd82613ebc565b602082019050919050565b60006020820190508181036000830152613f2181613ee5565b9050919050565b7f4552433732313a207472616e7366657220746f206e6f6e20455243373231526560008201527f63656976657220696d706c656d656e7465720000000000000000000000000000602082015250565b6000613f84603283612e93565b9150613f8f82613f28565b604082019050919050565b60006020820190508181036000830152613fb381613f77565b9050919050565b6000613fc582612f43565b9150613fd083612f43565b925082821015613fe357613fe26137f5565b5b828203905092915050565b6000613ff982612f43565b915061400483612f43565b9250827fffffffffffffffffffffffffffffffffffffffffffffffffffffffffffffffff03821115614039576140386137f5565b5b828201905092915050565b7f45524337323155524953746f726167653a2055524920736574206f66206e6f6e60008201527f6578697374656e7420746f6b656e000000000000000000000000000000000000602082015250565b60006140a0602e83612e93565b91506140ab82614044565b604082019050919050565b600060208201905081810360008301526140cf81614093565b9050919050565b6000815190506140e58161340e565b92915050565b60006020828403121561410157614100612dc3565b5b600061410f848285016140d6565b91505092915050565b7f5361666545524332303a204552433230206f7065726174696f6e20646964206e60008201527f6f74207375636365656400000000000000000000000000000000000000000000602082015250565b6000614174602a83612e93565b915061417f82614118565b604082019050919050565b600060208201905081810360008301526141a381614167565b9050919050565b600081519050919050565b600082825260208201905092915050565b60006141d1826141aa565b6141db81856141b5565b93506141eb818560208601612ea4565b6141f481612ed7565b840191505092915050565b60006080820190506142146000830187612fd8565b6142216020830186612fd8565b61422e6040830185613101565b818103606083015261424081846141c6565b905095945050505050565b60008151905061425a81612df9565b92915050565b60006020828403121561427657614275612dc3565b5b60006142848482850161424b565b91505092915050565b7f4552433732313a206d696e7420746f20746865207a65726f2061646472657373600082015250565b60006142c3602083612e93565b91506142ce8261428d565b602082019050919050565b600060208201905081810360008301526142f2816142b6565b9050919050565b7f4552433732313a20746f6b656e20616c7265616479206d696e74656400000000600082015250565b600061432f601c83612e93565b915061433a826142f9565b602082019050919050565b6000602082019050818103600083015261435e81614322565b9050919050565b7f416464726573733a20696e73756666696369656e742062616c616e636520666f60008201527f722063616c6c0000000000000000000000000000000000000000000000000000602082015250565b60006143c1602683612e93565b91506143cc82614365565b604082019050919050565b600060208201905081810360008301526143f0816143b4565b9050919050565b600081905092915050565b600061440d826141aa565b61441781856143f7565b9350614427818560208601612ea4565b80840191505092915050565b600061443f8284614402565b915081905092915050565b7f416464726573733a2063616c6c20746f206e6f6e2d636f6e7472616374000000600082015250565b6000614480601d83612e93565b915061448b8261444a565b602082019050919050565b600060208201905081810360008301526144af81614473565b905091905056fea2646970667358221220008f6d01bb40bfe4a53bde903eb4f31aeea3dcb0c7d4534c466c9d1fd28caa7964736f6c634300080b0033",
  "linkReferences": {},
  "deployedLinkReferences": {}
}