{
  "_format": "hh-sol-artifact-1",
  "contractName": "Lockable",
  "sourceName": "contracts/Lockable.sol",
  "abi": [
    {
      "inputs": [
        {
          "internalType": "uint256",
          "name": "amount_",
          "type": "uint256"
        },
        {
          "internalType": "address",
          "name": "beneficiary_",
          "type": "address"
        }
      ],
      "stateMutability": "nonpayable",
      "type": "constructor"
    },
    {
      "inputs": [],
      "name": "amount",
      "outputs": [
        {
          "internalType": "uint256",
          "name": "",
          "type": "uint256"
        }
      ],
      "stateMutability": "view",
      "type": "function"
    },
    {
      "inputs": [],
      "name": "beneficiary",
      "outputs": [
        {
          "internalType": "address",
          "name": "",
          "type": "address"
        }
      ],
      "stateMutability": "view",
      "type": "function"
    },
    {
      "inputs": [],
      "name": "initiateLockedWallet",
      "outputs": [],
      "stateMutability": "nonpayable",
      "type": "function"
    },
    {
      "inputs": [],
      "name": "owner",
      "outputs": [
        {
          "internalType": "address",
          "name": "",
          "type": "address"
        }
      ],
      "stateMutability": "view",
      "type": "function"
    },
    {
      "inputs": [
        {
          "internalType": "uint256[55]",
          "name": "amount_",
          "type": "uint256[55]"
        }
      ],
      "name": "releaseClaimable",
      "outputs": [
        {
          "internalType": "uint256",
          "name": "",
          "type": "uint256"
        }
      ],
      "stateMutability": "nonpayable",
      "type": "function"
    },
    {
      "inputs": [],
      "name": "sender",
      "outputs": [
        {
          "internalType": "address",
          "name": "",
          "type": "address"
        }
      ],
      "stateMutability": "view",
      "type": "function"
    }
  ],
  "bytecode": "0x60a06040523480156200001157600080fd5b5060405162000e4d38038062000e4d833981810160405281019062000037919062000139565b600082116200007d576040517f08c379a00000000000000000000000000000000000000000000000000000000081526004016200007490620001a1565b60405180910390fd5b816000819055508073ffffffffffffffffffffffffffffffffffffffff1660808173ffffffffffffffffffffffffffffffffffffffff1660601b815250504260028190555033600160006101000a81548173ffffffffffffffffffffffffffffffffffffffff021916908373ffffffffffffffffffffffffffffffffffffffff160217905550505062000295565b6000815190506200011c8162000261565b92915050565b60008151905062000133816200027b565b92915050565b600080604083850312156200014d57600080fd5b60006200015d8582860162000122565b925050602062000170858286016200010b565b9150509250929050565b600062000189602783620001c3565b9150620001968262000212565b604082019050919050565b60006020820190508181036000830152620001bc816200017a565b9050919050565b600082825260208201905092915050565b6000620001e182620001e8565b9050919050565b600073ffffffffffffffffffffffffffffffffffffffff82169050919050565b6000819050919050565b7f4c6f636b61626c653a20416d6f756e74206d757374206772656174657220746860008201527f616e207a65726f00000000000000000000000000000000000000000000000000602082015250565b6200026c81620001d4565b81146200027857600080fd5b50565b620002868162000208565b81146200029257600080fd5b50565b60805160601c610b99620002b4600039600061011d0152610b996000f3fe608060405234801561001057600080fd5b50600436106100625760003560e01c806338af3eed1461006757806367e404ce146100855780638da5cb5b146100a3578063aa8c217c146100c1578063c8cca41e146100df578063e7d88c42146100e9575b600080fd5b61006f610119565b60405161007c919061065c565b60405180910390f35b61008d610141565b60405161009a919061065c565b60405180910390f35b6100ab610149565b6040516100b8919061065c565b60405180910390f35b6100c961016f565b6040516100d69190610739565b60405180910390f35b6100e7610178565b005b61010360048036038101906100fe919061052c565b610181565b6040516101109190610739565b60405180910390f35b60007f0000000000000000000000000000000000000000000000000000000000000000905090565b600033905090565b600160009054906101000a900473ffffffffffffffffffffffffffffffffffffffff1681565b60008054905090565b42600281905550565b6000600160009054906101000a900473ffffffffffffffffffffffffffffffffffffffff1673ffffffffffffffffffffffffffffffffffffffff163373ffffffffffffffffffffffffffffffffffffffff1614610213576040517f08c379a000000000000000000000000000000000000000000000000000000000815260040161020a906106d9565b60405180910390fd5b6000805411610257576040517f08c379a000000000000000000000000000000000000000000000000000000000815260040161024e906106b9565b60405180910390fd5b6000610262836102db565b9050600081116102a7576040517f08c379a000000000000000000000000000000000000000000000000000000000815260040161029e906106f9565b60405180910390fd5b6102cc60005482604051806060016040528060368152602001610b2e603691396103cb565b60008190555080915050919050565b60008062278d00600254426102f09190610842565b6102fa9190610811565b905060008060035490505b60378111610369576103548286836037811061034a577f4e487b7100000000000000000000000000000000000000000000000000000000600052603260045260246000fd5b602002015161042f565b9150808061036190610916565b915050610305565b5060018261037791906107bb565b60038190555060008114156103c1576040517f08c379a00000000000000000000000000000000000000000000000000000000081526004016103b890610719565b60405180910390fd5b8092505050919050565b6000838311158290610413576040517f08c379a000000000000000000000000000000000000000000000000000000000815260040161040a9190610677565b60405180910390fd5b50600083856104229190610842565b9050809150509392505050565b600080828461043e91906107bb565b905083811015610483576040517f08c379a000000000000000000000000000000000000000000000000000000000815260040161047a90610699565b60405180910390fd5b8091505092915050565b60006104a061049b84610779565b610754565b905080828560208602820111156104b657600080fd5b60005b858110156104e657816104cc8882610517565b8452602084019350602083019250506001810190506104b9565b5050509392505050565b600082601f83011261050157600080fd5b603761050e84828561048d565b91505092915050565b60008135905061052681610b16565b92915050565b60006106e0828403121561053f57600080fd5b600061054d848285016104f0565b91505092915050565b61055f81610876565b82525050565b60006105708261079f565b61057a81856107aa565b935061058a8185602086016108b2565b610593816109ec565b840191505092915050565b60006105ab601b836107aa565b91506105b6826109fd565b602082019050919050565b60006105ce6018836107aa565b91506105d982610a26565b602082019050919050565b60006105f16035836107aa565b91506105fc82610a4f565b604082019050919050565b6000610614601e836107aa565b915061061f82610a9e565b602082019050919050565b60006106376026836107aa565b915061064282610ac7565b604082019050919050565b610656816108a8565b82525050565b60006020820190506106716000830184610556565b92915050565b600060208201905081810360008301526106918184610565565b905092915050565b600060208201905081810360008301526106b28161059e565b9050919050565b600060208201905081810360008301526106d2816105c1565b9050919050565b600060208201905081810360008301526106f2816105e4565b9050919050565b6000602082019050818103600083015261071281610607565b9050919050565b600060208201905081810360008301526107328161062a565b9050919050565b600060208201905061074e600083018461064d565b92915050565b600061075e61076f565b905061076a82826108e5565b919050565b6000604051905090565b600067ffffffffffffffff821115610794576107936109bd565b5b602082029050919050565b600081519050919050565b600082825260208201905092915050565b60006107c6826108a8565b91506107d1836108a8565b9250827fffffffffffffffffffffffffffffffffffffffffffffffffffffffffffffffff038211156108065761080561095f565b5b828201905092915050565b600061081c826108a8565b9150610827836108a8565b9250826108375761083661098e565b5b828204905092915050565b600061084d826108a8565b9150610858836108a8565b92508282101561086b5761086a61095f565b5b828203905092915050565b600061088182610888565b9050919050565b600073ffffffffffffffffffffffffffffffffffffffff82169050919050565b6000819050919050565b60005b838110156108d05780820151818401526020810190506108b5565b838111156108df576000848401525b50505050565b6108ee826109ec565b810181811067ffffffffffffffff8211171561090d5761090c6109bd565b5b80604052505050565b6000610921826108a8565b91507fffffffffffffffffffffffffffffffffffffffffffffffffffffffffffffffff8214156109545761095361095f565b5b600182019050919050565b7f4e487b7100000000000000000000000000000000000000000000000000000000600052601160045260246000fd5b7f4e487b7100000000000000000000000000000000000000000000000000000000600052601260045260246000fd5b7f4e487b7100000000000000000000000000000000000000000000000000000000600052604160045260246000fd5b6000601f19601f8301169050919050565b7f536166654d6174683a206164646974696f6e206f766572666c6f770000000000600082015250565b7f4c6f636b61626c653a206e6f20746f6b656e73206c6566740000000000000000600082015250565b7f4c6f636b61626c653a2063616c6c6572206861766520746f2062652054616c6160008201527f78546f6b656e20536d61727420436f6e74726163740000000000000000000000602082015250565b7f4c6f636b61626c653a206e6f20746f6b656e7320746f2072656c656173650000600082015250565b7f4c6f636b61626c653a2054686572652773206e6f7468696e6720746f20636c6160008201527f696d207965740000000000000000000000000000000000000000000000000000602082015250565b610b1f816108a8565b8114610b2a57600080fd5b5056fe4c6f636b61626c653a2043616e6e6f742073756273747261637420746f74616c20616d6f756e74207769746820636c61696d61626c65a2646970667358221220c0bdc7c7b8c61d37b93cb9907793f564124716c548aeb03f72ab67e4231393f364736f6c63430008040033",
  "linkReferences": {},
  "deployedLinkReferences": {}
}