{
	"contracts/Stakable.sol": {
		"Stakable": {
			"abi": [
				{
					"inputs": [
						{
							"internalType": "uint256",
							"name": "stakingPenalty_",
							"type": "uint256"
						}
					],
					"stateMutability": "nonpayable",
					"type": "constructor"
				},
				{
					"anonymous": false,
					"inputs": [
						{
							"indexed": false,
							"internalType": "uint256",
							"name": "amount",
							"type": "uint256"
						}
					],
					"name": "PenaltyChanged",
					"type": "event"
				},
				{
					"anonymous": false,
					"inputs": [
						{
							"indexed": true,
							"internalType": "address",
							"name": "user",
							"type": "address"
						},
						{
							"indexed": false,
							"internalType": "uint256",
							"name": "amount",
							"type": "uint256"
						},
						{
							"indexed": false,
							"internalType": "uint256",
							"name": "index",
							"type": "uint256"
						},
						{
							"indexed": false,
							"internalType": "uint256",
							"name": "timestamp",
							"type": "uint256"
						},
						{
							"indexed": false,
							"internalType": "uint256",
							"name": "releaseTime",
							"type": "uint256"
						}
					],
					"name": "Staked",
					"type": "event"
				},
				{
					"inputs": [
						{
							"internalType": "address",
							"name": "_staker",
							"type": "address"
						}
					],
					"name": "hasStake",
					"outputs": [
						{
							"components": [
								{
									"internalType": "uint256",
									"name": "total_amount",
									"type": "uint256"
								},
								{
									"components": [
										{
											"internalType": "address",
											"name": "user",
											"type": "address"
										},
										{
											"internalType": "uint256",
											"name": "amount",
											"type": "uint256"
										},
										{
											"internalType": "uint256",
											"name": "since",
											"type": "uint256"
										},
										{
											"internalType": "uint256",
											"name": "claimable",
											"type": "uint256"
										},
										{
											"internalType": "uint256",
											"name": "rewardAPY",
											"type": "uint256"
										},
										{
											"internalType": "uint256",
											"name": "releaseTime",
											"type": "uint256"
										}
									],
									"internalType": "struct Stakable.Stake[]",
									"name": "stakes",
									"type": "tuple[]"
								}
							],
							"internalType": "struct Stakable.StakingSummary",
							"name": "",
							"type": "tuple"
						}
					],
					"stateMutability": "view",
					"type": "function"
				},
				{
					"inputs": [],
					"name": "penaltyFee",
					"outputs": [
						{
							"internalType": "uint256",
							"name": "",
							"type": "uint256"
						}
					],
					"stateMutability": "view",
					"type": "function"
				},
				{
					"inputs": [
						{
							"internalType": "address",
							"name": "user_",
							"type": "address"
						}
					],
					"name": "stakeSummary",
					"outputs": [
						{
							"components": [
								{
									"internalType": "uint256",
									"name": "total_amount",
									"type": "uint256"
								},
								{
									"components": [
										{
											"internalType": "address",
											"name": "user",
											"type": "address"
										},
										{
											"internalType": "uint256",
											"name": "amount",
											"type": "uint256"
										},
										{
											"internalType": "uint256",
											"name": "since",
											"type": "uint256"
										},
										{
											"internalType": "uint256",
											"name": "claimable",
											"type": "uint256"
										},
										{
											"internalType": "uint256",
											"name": "rewardAPY",
											"type": "uint256"
										},
										{
											"internalType": "uint256",
											"name": "releaseTime",
											"type": "uint256"
										}
									],
									"internalType": "struct Stakable.Stake[]",
									"name": "stakes",
									"type": "tuple[]"
								}
							],
							"internalType": "struct Stakable.StakingSummary",
							"name": "",
							"type": "tuple"
						}
					],
					"stateMutability": "view",
					"type": "function"
				}
			],
			"devdoc": {
				"kind": "dev",
				"methods": {},
				"version": 1
			},
			"evm": {
				"assembly": "    /* \"contracts/Stakable.sol\":128:11141  contract Stakable {... */\n  mstore(0x40, 0x80)\n    /* \"contracts/Stakable.sol\":363:600  constructor(uint256 stakingPenalty_) {... */\n  callvalue\n  dup1\n  iszero\n  tag_1\n  jumpi\n  0x00\n  dup1\n  revert\ntag_1:\n  pop\n  mload(0x40)\n  sub(codesize, bytecodeSize)\n  dup1\n  bytecodeSize\n  dup4\n  codecopy\n  dup2\n  dup2\n  add\n  0x40\n  mstore\n  dup2\n  add\n  swap1\n  tag_2\n  swap2\n  swap1\n  tag_3\n  jump\t// in\ntag_2:\n    /* \"contracts/Stakable.sol\":486:498  stakeholders */\n  0x01\n    /* \"contracts/Stakable.sol\":486:505  stakeholders.push() */\n  dup1\n  dup2\n  0x01\n  dup2\n  sload\n  add\n  dup1\n  dup3\n  sstore\n  dup1\n  swap2\n  pop\n  pop\n  sub\n  swap1\n  0x00\n  mstore\n  keccak256(0x00, 0x20)\n  swap1\n  pop\n  pop\n    /* \"contracts/Stakable.sol\":577:592  stakingPenalty_ */\n  dup1\n    /* \"contracts/Stakable.sol\":559:574  _stakingPenalty */\n  0x00\n    /* \"contracts/Stakable.sol\":559:592  _stakingPenalty = stakingPenalty_ */\n  dup2\n  swap1\n  sstore\n  pop\n    /* \"contracts/Stakable.sol\":363:600  constructor(uint256 stakingPenalty_) {... */\n  pop\n    /* \"contracts/Stakable.sol\":128:11141  contract Stakable {... */\n  jump(tag_7)\n    /* \"#utility.yul\":88:205   */\ntag_9:\n    /* \"#utility.yul\":197:198   */\n  0x00\n    /* \"#utility.yul\":194:195   */\n  dup1\n    /* \"#utility.yul\":187:199   */\n  revert\n    /* \"#utility.yul\":334:411   */\ntag_11:\n    /* \"#utility.yul\":371:378   */\n  0x00\n    /* \"#utility.yul\":400:405   */\n  dup2\n    /* \"#utility.yul\":389:405   */\n  swap1\n  pop\n    /* \"#utility.yul\":334:411   */\n  swap2\n  swap1\n  pop\n  jump\t// out\n    /* \"#utility.yul\":417:539   */\ntag_12:\n    /* \"#utility.yul\":490:514   */\n  tag_20\n    /* \"#utility.yul\":508:513   */\n  dup2\n    /* \"#utility.yul\":490:514   */\n  tag_11\n  jump\t// in\ntag_20:\n    /* \"#utility.yul\":483:488   */\n  dup2\n    /* \"#utility.yul\":480:515   */\n  eq\n    /* \"#utility.yul\":470:533   */\n  tag_21\n  jumpi\n    /* \"#utility.yul\":529:530   */\n  0x00\n    /* \"#utility.yul\":526:527   */\n  dup1\n    /* \"#utility.yul\":519:531   */\n  revert\n    /* \"#utility.yul\":470:533   */\ntag_21:\n    /* \"#utility.yul\":417:539   */\n  pop\n  jump\t// out\n    /* \"#utility.yul\":545:688   */\ntag_13:\n    /* \"#utility.yul\":602:607   */\n  0x00\n    /* \"#utility.yul\":633:639   */\n  dup2\n    /* \"#utility.yul\":627:640   */\n  mload\n    /* \"#utility.yul\":618:640   */\n  swap1\n  pop\n    /* \"#utility.yul\":649:682   */\n  tag_23\n    /* \"#utility.yul\":676:681   */\n  dup2\n    /* \"#utility.yul\":649:682   */\n  tag_12\n  jump\t// in\ntag_23:\n    /* \"#utility.yul\":545:688   */\n  swap3\n  swap2\n  pop\n  pop\n  jump\t// out\n    /* \"#utility.yul\":694:1045   */\ntag_3:\n    /* \"#utility.yul\":764:770   */\n  0x00\n    /* \"#utility.yul\":813:815   */\n  0x20\n    /* \"#utility.yul\":801:810   */\n  dup3\n    /* \"#utility.yul\":792:799   */\n  dup5\n    /* \"#utility.yul\":788:811   */\n  sub\n    /* \"#utility.yul\":784:816   */\n  slt\n    /* \"#utility.yul\":781:900   */\n  iszero\n  tag_25\n  jumpi\n    /* \"#utility.yul\":819:898   */\n  tag_26\n  tag_9\n  jump\t// in\ntag_26:\n    /* \"#utility.yul\":781:900   */\ntag_25:\n    /* \"#utility.yul\":939:940   */\n  0x00\n    /* \"#utility.yul\":964:1028   */\n  tag_27\n    /* \"#utility.yul\":1020:1027   */\n  dup5\n    /* \"#utility.yul\":1011:1017   */\n  dup3\n    /* \"#utility.yul\":1000:1009   */\n  dup6\n    /* \"#utility.yul\":996:1018   */\n  add\n    /* \"#utility.yul\":964:1028   */\n  tag_13\n  jump\t// in\ntag_27:\n    /* \"#utility.yul\":954:1028   */\n  swap2\n  pop\n    /* \"#utility.yul\":910:1038   */\n  pop\n    /* \"#utility.yul\":694:1045   */\n  swap3\n  swap2\n  pop\n  pop\n  jump\t// out\n    /* \"contracts/Stakable.sol\":128:11141  contract Stakable {... */\ntag_7:\n  dataSize(sub_0)\n  dup1\n  dataOffset(sub_0)\n  0x00\n  codecopy\n  0x00\n  return\nstop\n\nsub_0: assembly {\n        /* \"contracts/Stakable.sol\":128:11141  contract Stakable {... */\n      mstore(0x40, 0x80)\n      callvalue\n      dup1\n      iszero\n      tag_1\n      jumpi\n      0x00\n      dup1\n      revert\n    tag_1:\n      pop\n      jumpi(tag_2, lt(calldatasize, 0x04))\n      shr(0xe0, calldataload(0x00))\n      dup1\n      0x3dc10ad4\n      eq\n      tag_3\n      jumpi\n      dup1\n      0xb09d4b4e\n      eq\n      tag_4\n      jumpi\n      dup1\n      0xe73e14bf\n      eq\n      tag_5\n      jumpi\n    tag_2:\n      0x00\n      dup1\n      revert\n        /* \"contracts/Stakable.sol\":5030:5121  function penaltyFee() public view returns(uint256){... */\n    tag_3:\n      tag_6\n      tag_7\n      jump\t// in\n    tag_6:\n      mload(0x40)\n      tag_8\n      swap2\n      swap1\n      tag_9\n      jump\t// in\n    tag_8:\n      mload(0x40)\n      dup1\n      swap2\n      sub\n      swap1\n      return\n        /* \"contracts/Stakable.sol\":5909:6198  function stakeSummary(address user_)... */\n    tag_4:\n      tag_10\n      0x04\n      dup1\n      calldatasize\n      sub\n      dup2\n      add\n      swap1\n      tag_11\n      swap2\n      swap1\n      tag_12\n      jump\t// in\n    tag_11:\n      tag_13\n      jump\t// in\n    tag_10:\n      mload(0x40)\n      tag_14\n      swap2\n      swap1\n      tag_15\n      jump\t// in\n    tag_14:\n      mload(0x40)\n      dup1\n      swap2\n      sub\n      swap1\n      return\n        /* \"contracts/Stakable.sol\":10257:11138  function hasStake(address _staker)... */\n    tag_5:\n      tag_16\n      0x04\n      dup1\n      calldatasize\n      sub\n      dup2\n      add\n      swap1\n      tag_17\n      swap2\n      swap1\n      tag_12\n      jump\t// in\n    tag_17:\n      tag_18\n      jump\t// in\n    tag_16:\n      mload(0x40)\n      tag_19\n      swap2\n      swap1\n      tag_15\n      jump\t// in\n    tag_19:\n      mload(0x40)\n      dup1\n      swap2\n      sub\n      swap1\n      return\n        /* \"contracts/Stakable.sol\":5030:5121  function penaltyFee() public view returns(uint256){... */\n    tag_7:\n        /* \"contracts/Stakable.sol\":5072:5079  uint256 */\n      0x00\n        /* \"contracts/Stakable.sol\":5098:5113  _stakingPenalty */\n      dup1\n      sload\n        /* \"contracts/Stakable.sol\":5091:5113  return _stakingPenalty */\n      swap1\n      pop\n        /* \"contracts/Stakable.sol\":5030:5121  function penaltyFee() public view returns(uint256){... */\n      swap1\n      jump\t// out\n        /* \"contracts/Stakable.sol\":5909:6198  function stakeSummary(address user_)... */\n    tag_13:\n        /* \"contracts/Stakable.sol\":5994:6015  StakingSummary memory */\n      tag_21\n      tag_22\n      jump\t// in\n    tag_21:\n        /* \"contracts/Stakable.sol\":6033:6062  StakingSummary memory summary */\n      0x00\n        /* \"contracts/Stakable.sol\":6065:6163  StakingSummary(... */\n      mload(0x40)\n      dup1\n      0x40\n      add\n      0x40\n      mstore\n      dup1\n        /* \"contracts/Stakable.sol\":6094:6095  0 */\n      0x00\n        /* \"contracts/Stakable.sol\":6065:6163  StakingSummary(... */\n      dup2\n      mstore\n      0x20\n      add\n        /* \"contracts/Stakable.sol\":6110:6122  stakeholders */\n      0x01\n        /* \"contracts/Stakable.sol\":6123:6129  stakes */\n      0x02\n        /* \"contracts/Stakable.sol\":6123:6136  stakes[user_] */\n      0x00\n        /* \"contracts/Stakable.sol\":6130:6135  user_ */\n      dup8\n        /* \"contracts/Stakable.sol\":6123:6136  stakes[user_] */\n      0xffffffffffffffffffffffffffffffffffffffff\n      and\n      0xffffffffffffffffffffffffffffffffffffffff\n      and\n      dup2\n      mstore\n      0x20\n      add\n      swap1\n      dup2\n      mstore\n      0x20\n      add\n      0x00\n      keccak256\n      sload\n        /* \"contracts/Stakable.sol\":6110:6137  stakeholders[stakes[user_]] */\n      dup2\n      sload\n      dup2\n      lt\n      tag_24\n      jumpi\n      tag_25\n      tag_26\n      jump\t// in\n    tag_25:\n    tag_24:\n      swap1\n      0x00\n      mstore\n      keccak256(0x00, 0x20)\n      swap1\n      0x02\n      mul\n      add\n        /* \"contracts/Stakable.sol\":6110:6152  stakeholders[stakes[user_]].address_stakes */\n      0x01\n      add\n        /* \"contracts/Stakable.sol\":6065:6163  StakingSummary(... */\n      dup1\n      sload\n      dup1\n      0x20\n      mul\n      0x20\n      add\n      mload(0x40)\n      swap1\n      dup2\n      add\n      0x40\n      mstore\n      dup1\n      swap3\n      swap2\n      swap1\n      dup2\n      dup2\n      mstore\n      0x20\n      add\n      0x00\n      swap1\n    tag_28:\n      dup3\n      dup3\n      lt\n      iszero\n      tag_29\n      jumpi\n      dup4\n      dup3\n      swap1\n      0x00\n      mstore\n      keccak256(0x00, 0x20)\n      swap1\n      0x06\n      mul\n      add\n      mload(0x40)\n      dup1\n      0xc0\n      add\n      0x40\n      mstore\n      swap1\n      dup2\n      0x00\n      dup3\n      add\n      0x00\n      swap1\n      sload\n      swap1\n      0x0100\n      exp\n      swap1\n      div\n      0xffffffffffffffffffffffffffffffffffffffff\n      and\n      0xffffffffffffffffffffffffffffffffffffffff\n      and\n      0xffffffffffffffffffffffffffffffffffffffff\n      and\n      dup2\n      mstore\n      0x20\n      add\n      0x01\n      dup3\n      add\n      sload\n      dup2\n      mstore\n      0x20\n      add\n      0x02\n      dup3\n      add\n      sload\n      dup2\n      mstore\n      0x20\n      add\n      0x03\n      dup3\n      add\n      sload\n      dup2\n      mstore\n      0x20\n      add\n      0x04\n      dup3\n      add\n      sload\n      dup2\n      mstore\n      0x20\n      add\n      0x05\n      dup3\n      add\n      sload\n      dup2\n      mstore\n      pop\n      pop\n      dup2\n      mstore\n      0x20\n      add\n      swap1\n      0x01\n      add\n      swap1\n      jump(tag_28)\n    tag_29:\n      pop\n      pop\n      pop\n      pop\n      dup2\n      mstore\n      pop\n        /* \"contracts/Stakable.sol\":6033:6163  StakingSummary memory summary = StakingSummary(... */\n      swap1\n      pop\n        /* \"contracts/Stakable.sol\":6183:6190  summary */\n      dup1\n        /* \"contracts/Stakable.sol\":6176:6190  return summary */\n      swap2\n      pop\n      pop\n        /* \"contracts/Stakable.sol\":5909:6198  function stakeSummary(address user_)... */\n      swap2\n      swap1\n      pop\n      jump\t// out\n        /* \"contracts/Stakable.sol\":10257:11138  function hasStake(address _staker)... */\n    tag_18:\n        /* \"contracts/Stakable.sol\":10340:10361  StakingSummary memory */\n      tag_31\n      tag_22\n      jump\t// in\n    tag_31:\n        /* \"contracts/Stakable.sol\":10379:10403  uint256 totalStakeAmount */\n      0x00\n        /* \"contracts/Stakable.sol\":10416:10445  StakingSummary memory summary */\n      dup1\n        /* \"contracts/Stakable.sol\":10448:10548  StakingSummary(... */\n      mload(0x40)\n      dup1\n      0x40\n      add\n      0x40\n      mstore\n      dup1\n        /* \"contracts/Stakable.sol\":10477:10478  0 */\n      0x00\n        /* \"contracts/Stakable.sol\":10448:10548  StakingSummary(... */\n      dup2\n      mstore\n      0x20\n      add\n        /* \"contracts/Stakable.sol\":10493:10505  stakeholders */\n      0x01\n        /* \"contracts/Stakable.sol\":10506:10512  stakes */\n      0x02\n        /* \"contracts/Stakable.sol\":10506:10521  stakes[_staker] */\n      0x00\n        /* \"contracts/Stakable.sol\":10513:10520  _staker */\n      dup9\n        /* \"contracts/Stakable.sol\":10506:10521  stakes[_staker] */\n      0xffffffffffffffffffffffffffffffffffffffff\n      and\n      0xffffffffffffffffffffffffffffffffffffffff\n      and\n      dup2\n      mstore\n      0x20\n      add\n      swap1\n      dup2\n      mstore\n      0x20\n      add\n      0x00\n      keccak256\n      sload\n        /* \"contracts/Stakable.sol\":10493:10522  stakeholders[stakes[_staker]] */\n      dup2\n      sload\n      dup2\n      lt\n      tag_33\n      jumpi\n      tag_34\n      tag_26\n      jump\t// in\n    tag_34:\n    tag_33:\n      swap1\n      0x00\n      mstore\n      keccak256(0x00, 0x20)\n      swap1\n      0x02\n      mul\n      add\n        /* \"contracts/Stakable.sol\":10493:10537  stakeholders[stakes[_staker]].address_stakes */\n      0x01\n      add\n        /* \"contracts/Stakable.sol\":10448:10548  StakingSummary(... */\n      dup1\n      sload\n      dup1\n      0x20\n      mul\n      0x20\n      add\n      mload(0x40)\n      swap1\n      dup2\n      add\n      0x40\n      mstore\n      dup1\n      swap3\n      swap2\n      swap1\n      dup2\n      dup2\n      mstore\n      0x20\n      add\n      0x00\n      swap1\n    tag_36:\n      dup3\n      dup3\n      lt\n      iszero\n      tag_37\n      jumpi\n      dup4\n      dup3\n      swap1\n      0x00\n      mstore\n      keccak256(0x00, 0x20)\n      swap1\n      0x06\n      mul\n      add\n      mload(0x40)\n      dup1\n      0xc0\n      add\n      0x40\n      mstore\n      swap1\n      dup2\n      0x00\n      dup3\n      add\n      0x00\n      swap1\n      sload\n      swap1\n      0x0100\n      exp\n      swap1\n      div\n      0xffffffffffffffffffffffffffffffffffffffff\n      and\n      0xffffffffffffffffffffffffffffffffffffffff\n      and\n      0xffffffffffffffffffffffffffffffffffffffff\n      and\n      dup2\n      mstore\n      0x20\n      add\n      0x01\n      dup3\n      add\n      sload\n      dup2\n      mstore\n      0x20\n      add\n      0x02\n      dup3\n      add\n      sload\n      dup2\n      mstore\n      0x20\n      add\n      0x03\n      dup3\n      add\n      sload\n      dup2\n      mstore\n      0x20\n      add\n      0x04\n      dup3\n      add\n      sload\n      dup2\n      mstore\n      0x20\n      add\n      0x05\n      dup3\n      add\n      sload\n      dup2\n      mstore\n      pop\n      pop\n      dup2\n      mstore\n      0x20\n      add\n      swap1\n      0x01\n      add\n      swap1\n      jump(tag_36)\n    tag_37:\n      pop\n      pop\n      pop\n      pop\n      dup2\n      mstore\n      pop\n        /* \"contracts/Stakable.sol\":10416:10548  StakingSummary memory summary = StakingSummary(... */\n      swap1\n      pop\n        /* \"contracts/Stakable.sol\":10606:10607  0 */\n      0x00\n        /* \"contracts/Stakable.sol\":10581:10588  summary */\n      dup2\n        /* \"contracts/Stakable.sol\":10581:10595  summary.stakes */\n      0x20\n      add\n      mload\n        /* \"contracts/Stakable.sol\":10581:10602  summary.stakes.length */\n      mload\n        /* \"contracts/Stakable.sol\":10581:10607  summary.stakes.length != 0 */\n      eq\n      iszero\n        /* \"contracts/Stakable.sol\":10559:10682  require(... */\n      tag_39\n      jumpi\n      mload(0x40)\n      0x08c379a000000000000000000000000000000000000000000000000000000000\n      dup2\n      mstore\n      0x04\n      add\n      tag_40\n      swap1\n      tag_41\n      jump\t// in\n    tag_40:\n      mload(0x40)\n      dup1\n      swap2\n      sub\n      swap1\n      revert\n    tag_39:\n        /* \"contracts/Stakable.sol\":10700:10709  uint256 s */\n      0x00\n        /* \"contracts/Stakable.sol\":10695:11054  for (uint256 s = 0; s < summary.stakes.length; s += 1) {... */\n    tag_42:\n        /* \"contracts/Stakable.sol\":10719:10726  summary */\n      dup2\n        /* \"contracts/Stakable.sol\":10719:10733  summary.stakes */\n      0x20\n      add\n      mload\n        /* \"contracts/Stakable.sol\":10719:10740  summary.stakes.length */\n      mload\n        /* \"contracts/Stakable.sol\":10715:10716  s */\n      dup2\n        /* \"contracts/Stakable.sol\":10715:10740  s < summary.stakes.length */\n      lt\n        /* \"contracts/Stakable.sol\":10695:11054  for (uint256 s = 0; s < summary.stakes.length; s += 1) {... */\n      iszero\n      tag_43\n      jumpi\n        /* \"contracts/Stakable.sol\":10765:10788  uint256 availableReward */\n      0x00\n        /* \"contracts/Stakable.sol\":10791:10905  calculateStakeReward(... */\n      tag_45\n        /* \"contracts/Stakable.sol\":10830:10837  summary */\n      dup4\n        /* \"contracts/Stakable.sol\":10830:10844  summary.stakes */\n      0x20\n      add\n      mload\n        /* \"contracts/Stakable.sol\":10845:10846  s */\n      dup4\n        /* \"contracts/Stakable.sol\":10830:10847  summary.stakes[s] */\n      dup2\n      mload\n      dup2\n      lt\n      tag_46\n      jumpi\n      tag_47\n      tag_26\n      jump\t// in\n    tag_47:\n    tag_46:\n      0x20\n      mul\n      0x20\n      add\n      add\n      mload\n        /* \"contracts/Stakable.sol\":10866:10873  summary */\n      dup5\n        /* \"contracts/Stakable.sol\":10866:10880  summary.stakes */\n      0x20\n      add\n      mload\n        /* \"contracts/Stakable.sol\":10881:10882  s */\n      dup5\n        /* \"contracts/Stakable.sol\":10866:10883  summary.stakes[s] */\n      dup2\n      mload\n      dup2\n      lt\n      tag_48\n      jumpi\n      tag_49\n      tag_26\n      jump\t// in\n    tag_49:\n    tag_48:\n      0x20\n      mul\n      0x20\n      add\n      add\n      mload\n        /* \"contracts/Stakable.sol\":10866:10890  summary.stakes[s].amount */\n      0x20\n      add\n      mload\n        /* \"contracts/Stakable.sol\":10791:10811  calculateStakeReward */\n      tag_50\n        /* \"contracts/Stakable.sol\":10791:10905  calculateStakeReward(... */\n      jump\t// in\n    tag_45:\n        /* \"contracts/Stakable.sol\":10765:10905  uint256 availableReward = calculateStakeReward(... */\n      swap1\n      pop\n        /* \"contracts/Stakable.sol\":10950:10965  availableReward */\n      dup1\n        /* \"contracts/Stakable.sol\":10920:10927  summary */\n      dup4\n        /* \"contracts/Stakable.sol\":10920:10934  summary.stakes */\n      0x20\n      add\n      mload\n        /* \"contracts/Stakable.sol\":10935:10936  s */\n      dup4\n        /* \"contracts/Stakable.sol\":10920:10937  summary.stakes[s] */\n      dup2\n      mload\n      dup2\n      lt\n      tag_51\n      jumpi\n      tag_52\n      tag_26\n      jump\t// in\n    tag_52:\n    tag_51:\n      0x20\n      mul\n      0x20\n      add\n      add\n      mload\n        /* \"contracts/Stakable.sol\":10920:10947  summary.stakes[s].claimable */\n      0x60\n      add\n        /* \"contracts/Stakable.sol\":10920:10965  summary.stakes[s].claimable = availableReward */\n      dup2\n      dup2\n      mstore\n      pop\n      pop\n        /* \"contracts/Stakable.sol\":11018:11025  summary */\n      dup3\n        /* \"contracts/Stakable.sol\":11018:11032  summary.stakes */\n      0x20\n      add\n      mload\n        /* \"contracts/Stakable.sol\":11033:11034  s */\n      dup3\n        /* \"contracts/Stakable.sol\":11018:11035  summary.stakes[s] */\n      dup2\n      mload\n      dup2\n      lt\n      tag_53\n      jumpi\n      tag_54\n      tag_26\n      jump\t// in\n    tag_54:\n    tag_53:\n      0x20\n      mul\n      0x20\n      add\n      add\n      mload\n        /* \"contracts/Stakable.sol\":11018:11042  summary.stakes[s].amount */\n      0x20\n      add\n      mload\n        /* \"contracts/Stakable.sol\":10999:11015  totalStakeAmount */\n      dup5\n        /* \"contracts/Stakable.sol\":10999:11042  totalStakeAmount + summary.stakes[s].amount */\n      tag_55\n      swap2\n      swap1\n      tag_56\n      jump\t// in\n    tag_55:\n        /* \"contracts/Stakable.sol\":10980:11042  totalStakeAmount = totalStakeAmount + summary.stakes[s].amount */\n      swap4\n      pop\n        /* \"contracts/Stakable.sol\":10750:11054  {... */\n      pop\n        /* \"contracts/Stakable.sol\":10747:10748  1 */\n      0x01\n        /* \"contracts/Stakable.sol\":10742:10748  s += 1 */\n      dup2\n      tag_57\n      swap2\n      swap1\n      tag_56\n      jump\t// in\n    tag_57:\n      swap1\n      pop\n        /* \"contracts/Stakable.sol\":10695:11054  for (uint256 s = 0; s < summary.stakes.length; s += 1) {... */\n      jump(tag_42)\n    tag_43:\n      pop\n        /* \"contracts/Stakable.sol\":11089:11105  totalStakeAmount */\n      dup2\n        /* \"contracts/Stakable.sol\":11066:11073  summary */\n      dup2\n        /* \"contracts/Stakable.sol\":11066:11086  summary.total_amount */\n      0x00\n      add\n        /* \"contracts/Stakable.sol\":11066:11105  summary.total_amount = totalStakeAmount */\n      dup2\n      dup2\n      mstore\n      pop\n      pop\n        /* \"contracts/Stakable.sol\":11123:11130  summary */\n      dup1\n        /* \"contracts/Stakable.sol\":11116:11130  return summary */\n      swap3\n      pop\n      pop\n      pop\n        /* \"contracts/Stakable.sol\":10257:11138  function hasStake(address _staker)... */\n      swap2\n      swap1\n      pop\n      jump\t// out\n        /* \"contracts/Stakable.sol\":5517:5901  function calculateStakeReward(Stake memory _current_stake, uint256 _amount)... */\n    tag_50:\n        /* \"contracts/Stakable.sol\":5643:5650  uint256 */\n      0x00\n        /* \"contracts/Stakable.sol\":5697:5698  0 */\n      dup1\n        /* \"contracts/Stakable.sol\":5672:5686  _current_stake */\n      dup4\n        /* \"contracts/Stakable.sol\":5672:5693  _current_stake.amount */\n      0x20\n      add\n      mload\n        /* \"contracts/Stakable.sol\":5672:5698  _current_stake.amount == 0 */\n      eq\n        /* \"contracts/Stakable.sol\":5668:5735  if (_current_stake.amount == 0) {... */\n      iszero\n      tag_59\n      jumpi\n        /* \"contracts/Stakable.sol\":5722:5723  0 */\n      0x00\n        /* \"contracts/Stakable.sol\":5715:5723  return 0 */\n      swap1\n      pop\n      jump(tag_58)\n        /* \"contracts/Stakable.sol\":5668:5735  if (_current_stake.amount == 0) {... */\n    tag_59:\n        /* \"contracts/Stakable.sol\":5889:5893  1e26 */\n      0x52b7d2dcc80cd2e4000000\n        /* \"contracts/Stakable.sol\":5839:5885  calculateStakingDuration(_current_stake.since) */\n      tag_60\n        /* \"contracts/Stakable.sol\":5864:5878  _current_stake */\n      dup5\n        /* \"contracts/Stakable.sol\":5864:5884  _current_stake.since */\n      0x40\n      add\n      mload\n        /* \"contracts/Stakable.sol\":5839:5863  calculateStakingDuration */\n      tag_61\n        /* \"contracts/Stakable.sol\":5839:5885  calculateStakingDuration(_current_stake.since) */\n      jump\t// in\n    tag_60:\n        /* \"contracts/Stakable.sol\":5795:5809  _current_stake */\n      dup5\n        /* \"contracts/Stakable.sol\":5795:5819  _current_stake.rewardAPY */\n      0x80\n      add\n      mload\n        /* \"contracts/Stakable.sol\":5768:5775  _amount */\n      dup5\n        /* \"contracts/Stakable.sol\":5768:5819  _amount *... */\n      tag_62\n      swap2\n      swap1\n      tag_63\n      jump\t// in\n    tag_62:\n        /* \"contracts/Stakable.sol\":5768:5885  _amount *... */\n      tag_64\n      swap2\n      swap1\n      tag_63\n      jump\t// in\n    tag_64:\n        /* \"contracts/Stakable.sol\":5767:5893  (_amount *... */\n      tag_65\n      swap2\n      swap1\n      tag_66\n      jump\t// in\n    tag_65:\n        /* \"contracts/Stakable.sol\":5747:5893  return... */\n      swap1\n      pop\n        /* \"contracts/Stakable.sol\":5517:5901  function calculateStakeReward(Stake memory _current_stake, uint256 _amount)... */\n    tag_58:\n      swap3\n      swap2\n      pop\n      pop\n      jump\t// out\n        /* \"contracts/Stakable.sol\":5129:5509  function calculateStakingDuration(uint256 since_)... */\n    tag_61:\n        /* \"contracts/Stakable.sol\":5229:5236  uint256 */\n      0x00\n        /* \"contracts/Stakable.sol\":5271:5272  0 */\n      dup1\n        /* \"contracts/Stakable.sol\":5262:5268  since_ */\n      dup3\n        /* \"contracts/Stakable.sol\":5262:5272  since_ > 0 */\n      gt\n        /* \"contracts/Stakable.sol\":5254:5304  require(since_ > 0, \"Stakable: Error timestamp 0\") */\n      tag_68\n      jumpi\n      mload(0x40)\n      0x08c379a000000000000000000000000000000000000000000000000000000000\n      dup2\n      mstore\n      0x04\n      add\n      tag_69\n      swap1\n      tag_70\n      jump\t// in\n    tag_69:\n      mload(0x40)\n      dup1\n      swap2\n      sub\n      swap1\n      revert\n    tag_68:\n        /* \"contracts/Stakable.sol\":5335:5501  SafeMath.div(... */\n      tag_71\n        /* \"contracts/Stakable.sol\":5395:5399  1e24 */\n      0xd3c21bcecceda1000000\n        /* \"contracts/Stakable.sol\":5385:5391  since_ */\n      dup4\n        /* \"contracts/Stakable.sol\":5367:5382  block.timestamp */\n      timestamp\n        /* \"contracts/Stakable.sol\":5367:5391  block.timestamp - since_ */\n      tag_72\n      swap2\n      swap1\n      tag_73\n      jump\t// in\n    tag_72:\n        /* \"contracts/Stakable.sol\":5366:5399  (block.timestamp - since_) * 1e24 */\n      tag_74\n      swap2\n      swap1\n      tag_63\n      jump\t// in\n    tag_74:\n        /* \"contracts/Stakable.sol\":5418:5426  365 days */\n      0x01e13380\n        /* \"contracts/Stakable.sol\":5335:5501  SafeMath.div(... */\n      mload(0x40)\n      dup1\n      0x60\n      add\n      0x40\n      mstore\n      dup1\n      0x27\n      dup2\n      mstore\n      0x20\n      add\n      data_10b867070097d898ae15cd1bc384e389b4a7d91f05c0759c198c193c7fd91787\n      0x27\n      swap2\n      codecopy\n        /* \"contracts/Stakable.sol\":5335:5347  SafeMath.div */\n      tag_75\n        /* \"contracts/Stakable.sol\":5335:5501  SafeMath.div(... */\n      jump\t// in\n    tag_71:\n        /* \"contracts/Stakable.sol\":5315:5501  return... */\n      swap1\n      pop\n        /* \"contracts/Stakable.sol\":5129:5509  function calculateStakingDuration(uint256 since_)... */\n      swap2\n      swap1\n      pop\n      jump\t// out\n        /* \"@openzeppelin/contracts/utils/math/SafeMath.sol\":5660:5890  function div(... */\n    tag_75:\n        /* \"@openzeppelin/contracts/utils/math/SafeMath.sol\":5776:5783  uint256 */\n      0x00\n        /* \"@openzeppelin/contracts/utils/math/SafeMath.sol\":5831:5832  0 */\n      dup1\n        /* \"@openzeppelin/contracts/utils/math/SafeMath.sol\":5827:5828  b */\n      dup4\n        /* \"@openzeppelin/contracts/utils/math/SafeMath.sol\":5827:5832  b > 0 */\n      gt\n        /* \"@openzeppelin/contracts/utils/math/SafeMath.sol\":5834:5846  errorMessage */\n      dup3\n        /* \"@openzeppelin/contracts/utils/math/SafeMath.sol\":5819:5847  require(b > 0, errorMessage) */\n      swap1\n      tag_77\n      jumpi\n      mload(0x40)\n      0x08c379a000000000000000000000000000000000000000000000000000000000\n      dup2\n      mstore\n      0x04\n      add\n      tag_78\n      swap2\n      swap1\n      tag_79\n      jump\t// in\n    tag_78:\n      mload(0x40)\n      dup1\n      swap2\n      sub\n      swap1\n      revert\n    tag_77:\n      pop\n        /* \"@openzeppelin/contracts/utils/math/SafeMath.sol\":5872:5873  b */\n      dup3\n        /* \"@openzeppelin/contracts/utils/math/SafeMath.sol\":5868:5869  a */\n      dup5\n        /* \"@openzeppelin/contracts/utils/math/SafeMath.sol\":5868:5873  a / b */\n      dup2\n      tag_80\n      jumpi\n      tag_81\n      tag_82\n      jump\t// in\n    tag_81:\n    tag_80:\n      div\n        /* \"@openzeppelin/contracts/utils/math/SafeMath.sol\":5861:5873  return a / b */\n      swap1\n      pop\n        /* \"@openzeppelin/contracts/utils/math/SafeMath.sol\":5660:5890  function div(... */\n      swap4\n      swap3\n      pop\n      pop\n      pop\n      jump\t// out\n    tag_22:\n      mload(0x40)\n      dup1\n      0x40\n      add\n      0x40\n      mstore\n      dup1\n      0x00\n      dup2\n      mstore\n      0x20\n      add\n      0x60\n      dup2\n      mstore\n      pop\n      swap1\n      jump\t// out\n        /* \"#utility.yul\":7:84   */\n    tag_83:\n        /* \"#utility.yul\":44:51   */\n      0x00\n        /* \"#utility.yul\":73:78   */\n      dup2\n        /* \"#utility.yul\":62:78   */\n      swap1\n      pop\n        /* \"#utility.yul\":7:84   */\n      swap2\n      swap1\n      pop\n      jump\t// out\n        /* \"#utility.yul\":90:208   */\n    tag_84:\n        /* \"#utility.yul\":177:201   */\n      tag_115\n        /* \"#utility.yul\":195:200   */\n      dup2\n        /* \"#utility.yul\":177:201   */\n      tag_83\n      jump\t// in\n    tag_115:\n        /* \"#utility.yul\":172:175   */\n      dup3\n        /* \"#utility.yul\":165:202   */\n      mstore\n        /* \"#utility.yul\":90:208   */\n      pop\n      pop\n      jump\t// out\n        /* \"#utility.yul\":214:436   */\n    tag_9:\n        /* \"#utility.yul\":307:311   */\n      0x00\n        /* \"#utility.yul\":345:347   */\n      0x20\n        /* \"#utility.yul\":334:343   */\n      dup3\n        /* \"#utility.yul\":330:348   */\n      add\n        /* \"#utility.yul\":322:348   */\n      swap1\n      pop\n        /* \"#utility.yul\":358:429   */\n      tag_117\n        /* \"#utility.yul\":426:427   */\n      0x00\n        /* \"#utility.yul\":415:424   */\n      dup4\n        /* \"#utility.yul\":411:428   */\n      add\n        /* \"#utility.yul\":402:408   */\n      dup5\n        /* \"#utility.yul\":358:429   */\n      tag_84\n      jump\t// in\n    tag_117:\n        /* \"#utility.yul\":214:436   */\n      swap3\n      swap2\n      pop\n      pop\n      jump\t// out\n        /* \"#utility.yul\":523:640   */\n    tag_86:\n        /* \"#utility.yul\":632:633   */\n      0x00\n        /* \"#utility.yul\":629:630   */\n      dup1\n        /* \"#utility.yul\":622:634   */\n      revert\n        /* \"#utility.yul\":769:895   */\n    tag_88:\n        /* \"#utility.yul\":806:813   */\n      0x00\n        /* \"#utility.yul\":846:888   */\n      0xffffffffffffffffffffffffffffffffffffffff\n        /* \"#utility.yul\":839:844   */\n      dup3\n        /* \"#utility.yul\":835:889   */\n      and\n        /* \"#utility.yul\":824:889   */\n      swap1\n      pop\n        /* \"#utility.yul\":769:895   */\n      swap2\n      swap1\n      pop\n      jump\t// out\n        /* \"#utility.yul\":901:997   */\n    tag_89:\n        /* \"#utility.yul\":938:945   */\n      0x00\n        /* \"#utility.yul\":967:991   */\n      tag_123\n        /* \"#utility.yul\":985:990   */\n      dup3\n        /* \"#utility.yul\":967:991   */\n      tag_88\n      jump\t// in\n    tag_123:\n        /* \"#utility.yul\":956:991   */\n      swap1\n      pop\n        /* \"#utility.yul\":901:997   */\n      swap2\n      swap1\n      pop\n      jump\t// out\n        /* \"#utility.yul\":1003:1125   */\n    tag_90:\n        /* \"#utility.yul\":1076:1100   */\n      tag_125\n        /* \"#utility.yul\":1094:1099   */\n      dup2\n        /* \"#utility.yul\":1076:1100   */\n      tag_89\n      jump\t// in\n    tag_125:\n        /* \"#utility.yul\":1069:1074   */\n      dup2\n        /* \"#utility.yul\":1066:1101   */\n      eq\n        /* \"#utility.yul\":1056:1119   */\n      tag_126\n      jumpi\n        /* \"#utility.yul\":1115:1116   */\n      0x00\n        /* \"#utility.yul\":1112:1113   */\n      dup1\n        /* \"#utility.yul\":1105:1117   */\n      revert\n        /* \"#utility.yul\":1056:1119   */\n    tag_126:\n        /* \"#utility.yul\":1003:1125   */\n      pop\n      jump\t// out\n        /* \"#utility.yul\":1131:1270   */\n    tag_91:\n        /* \"#utility.yul\":1177:1182   */\n      0x00\n        /* \"#utility.yul\":1215:1221   */\n      dup2\n        /* \"#utility.yul\":1202:1222   */\n      calldataload\n        /* \"#utility.yul\":1193:1222   */\n      swap1\n      pop\n        /* \"#utility.yul\":1231:1264   */\n      tag_128\n        /* \"#utility.yul\":1258:1263   */\n      dup2\n        /* \"#utility.yul\":1231:1264   */\n      tag_90\n      jump\t// in\n    tag_128:\n        /* \"#utility.yul\":1131:1270   */\n      swap3\n      swap2\n      pop\n      pop\n      jump\t// out\n        /* \"#utility.yul\":1276:1605   */\n    tag_12:\n        /* \"#utility.yul\":1335:1341   */\n      0x00\n        /* \"#utility.yul\":1384:1386   */\n      0x20\n        /* \"#utility.yul\":1372:1381   */\n      dup3\n        /* \"#utility.yul\":1363:1370   */\n      dup5\n        /* \"#utility.yul\":1359:1382   */\n      sub\n        /* \"#utility.yul\":1355:1387   */\n      slt\n        /* \"#utility.yul\":1352:1471   */\n      iszero\n      tag_130\n      jumpi\n        /* \"#utility.yul\":1390:1469   */\n      tag_131\n      tag_86\n      jump\t// in\n    tag_131:\n        /* \"#utility.yul\":1352:1471   */\n    tag_130:\n        /* \"#utility.yul\":1510:1511   */\n      0x00\n        /* \"#utility.yul\":1535:1588   */\n      tag_132\n        /* \"#utility.yul\":1580:1587   */\n      dup5\n        /* \"#utility.yul\":1571:1577   */\n      dup3\n        /* \"#utility.yul\":1560:1569   */\n      dup6\n        /* \"#utility.yul\":1556:1578   */\n      add\n        /* \"#utility.yul\":1535:1588   */\n      tag_91\n      jump\t// in\n    tag_132:\n        /* \"#utility.yul\":1525:1588   */\n      swap2\n      pop\n        /* \"#utility.yul\":1481:1598   */\n      pop\n        /* \"#utility.yul\":1276:1605   */\n      swap3\n      swap2\n      pop\n      pop\n      jump\t// out\n        /* \"#utility.yul\":1611:1719   */\n    tag_92:\n        /* \"#utility.yul\":1688:1712   */\n      tag_134\n        /* \"#utility.yul\":1706:1711   */\n      dup2\n        /* \"#utility.yul\":1688:1712   */\n      tag_83\n      jump\t// in\n    tag_134:\n        /* \"#utility.yul\":1683:1686   */\n      dup3\n        /* \"#utility.yul\":1676:1713   */\n      mstore\n        /* \"#utility.yul\":1611:1719   */\n      pop\n      pop\n      jump\t// out\n        /* \"#utility.yul\":1725:1861   */\n    tag_93:\n        /* \"#utility.yul\":1814:1820   */\n      0x00\n        /* \"#utility.yul\":1848:1853   */\n      dup2\n        /* \"#utility.yul\":1842:1854   */\n      mload\n        /* \"#utility.yul\":1832:1854   */\n      swap1\n      pop\n        /* \"#utility.yul\":1725:1861   */\n      swap2\n      swap1\n      pop\n      jump\t// out\n        /* \"#utility.yul\":1867:2063   */\n    tag_94:\n        /* \"#utility.yul\":1978:1989   */\n      0x00\n        /* \"#utility.yul\":2012:2018   */\n      dup3\n        /* \"#utility.yul\":2007:2010   */\n      dup3\n        /* \"#utility.yul\":2000:2019   */\n      mstore\n        /* \"#utility.yul\":2052:2056   */\n      0x20\n        /* \"#utility.yul\":2047:2050   */\n      dup3\n        /* \"#utility.yul\":2043:2057   */\n      add\n        /* \"#utility.yul\":2028:2057   */\n      swap1\n      pop\n        /* \"#utility.yul\":1867:2063   */\n      swap3\n      swap2\n      pop\n      pop\n      jump\t// out\n        /* \"#utility.yul\":2069:2223   */\n    tag_95:\n        /* \"#utility.yul\":2158:2162   */\n      0x00\n        /* \"#utility.yul\":2181:2184   */\n      dup2\n        /* \"#utility.yul\":2173:2184   */\n      swap1\n      pop\n        /* \"#utility.yul\":2211:2215   */\n      0x20\n        /* \"#utility.yul\":2206:2209   */\n      dup3\n        /* \"#utility.yul\":2202:2216   */\n      add\n        /* \"#utility.yul\":2194:2216   */\n      swap1\n      pop\n        /* \"#utility.yul\":2069:2223   */\n      swap2\n      swap1\n      pop\n      jump\t// out\n        /* \"#utility.yul\":2229:2337   */\n    tag_96:\n        /* \"#utility.yul\":2306:2330   */\n      tag_139\n        /* \"#utility.yul\":2324:2329   */\n      dup2\n        /* \"#utility.yul\":2306:2330   */\n      tag_89\n      jump\t// in\n    tag_139:\n        /* \"#utility.yul\":2301:2304   */\n      dup3\n        /* \"#utility.yul\":2294:2331   */\n      mstore\n        /* \"#utility.yul\":2229:2337   */\n      pop\n      pop\n      jump\t// out\n        /* \"#utility.yul\":2397:3604   */\n    tag_97:\n        /* \"#utility.yul\":2528:2532   */\n      0xc0\n        /* \"#utility.yul\":2523:2526   */\n      dup3\n        /* \"#utility.yul\":2519:2533   */\n      add\n        /* \"#utility.yul\":2615:2619   */\n      0x00\n        /* \"#utility.yul\":2608:2613   */\n      dup3\n        /* \"#utility.yul\":2604:2620   */\n      add\n        /* \"#utility.yul\":2598:2621   */\n      mload\n        /* \"#utility.yul\":2634:2697   */\n      tag_141\n        /* \"#utility.yul\":2691:2695   */\n      0x00\n        /* \"#utility.yul\":2686:2689   */\n      dup6\n        /* \"#utility.yul\":2682:2696   */\n      add\n        /* \"#utility.yul\":2668:2680   */\n      dup3\n        /* \"#utility.yul\":2634:2697   */\n      tag_96\n      jump\t// in\n    tag_141:\n        /* \"#utility.yul\":2543:2707   */\n      pop\n        /* \"#utility.yul\":2791:2795   */\n      0x20\n        /* \"#utility.yul\":2784:2789   */\n      dup3\n        /* \"#utility.yul\":2780:2796   */\n      add\n        /* \"#utility.yul\":2774:2797   */\n      mload\n        /* \"#utility.yul\":2810:2873   */\n      tag_142\n        /* \"#utility.yul\":2867:2871   */\n      0x20\n        /* \"#utility.yul\":2862:2865   */\n      dup6\n        /* \"#utility.yul\":2858:2872   */\n      add\n        /* \"#utility.yul\":2844:2856   */\n      dup3\n        /* \"#utility.yul\":2810:2873   */\n      tag_92\n      jump\t// in\n    tag_142:\n        /* \"#utility.yul\":2717:2883   */\n      pop\n        /* \"#utility.yul\":2966:2970   */\n      0x40\n        /* \"#utility.yul\":2959:2964   */\n      dup3\n        /* \"#utility.yul\":2955:2971   */\n      add\n        /* \"#utility.yul\":2949:2972   */\n      mload\n        /* \"#utility.yul\":2985:3048   */\n      tag_143\n        /* \"#utility.yul\":3042:3046   */\n      0x40\n        /* \"#utility.yul\":3037:3040   */\n      dup6\n        /* \"#utility.yul\":3033:3047   */\n      add\n        /* \"#utility.yul\":3019:3031   */\n      dup3\n        /* \"#utility.yul\":2985:3048   */\n      tag_92\n      jump\t// in\n    tag_143:\n        /* \"#utility.yul\":2893:3058   */\n      pop\n        /* \"#utility.yul\":3145:3149   */\n      0x60\n        /* \"#utility.yul\":3138:3143   */\n      dup3\n        /* \"#utility.yul\":3134:3150   */\n      add\n        /* \"#utility.yul\":3128:3151   */\n      mload\n        /* \"#utility.yul\":3164:3227   */\n      tag_144\n        /* \"#utility.yul\":3221:3225   */\n      0x60\n        /* \"#utility.yul\":3216:3219   */\n      dup6\n        /* \"#utility.yul\":3212:3226   */\n      add\n        /* \"#utility.yul\":3198:3210   */\n      dup3\n        /* \"#utility.yul\":3164:3227   */\n      tag_92\n      jump\t// in\n    tag_144:\n        /* \"#utility.yul\":3068:3237   */\n      pop\n        /* \"#utility.yul\":3324:3328   */\n      0x80\n        /* \"#utility.yul\":3317:3322   */\n      dup3\n        /* \"#utility.yul\":3313:3329   */\n      add\n        /* \"#utility.yul\":3307:3330   */\n      mload\n        /* \"#utility.yul\":3343:3406   */\n      tag_145\n        /* \"#utility.yul\":3400:3404   */\n      0x80\n        /* \"#utility.yul\":3395:3398   */\n      dup6\n        /* \"#utility.yul\":3391:3405   */\n      add\n        /* \"#utility.yul\":3377:3389   */\n      dup3\n        /* \"#utility.yul\":3343:3406   */\n      tag_92\n      jump\t// in\n    tag_145:\n        /* \"#utility.yul\":3247:3416   */\n      pop\n        /* \"#utility.yul\":3505:3509   */\n      0xa0\n        /* \"#utility.yul\":3498:3503   */\n      dup3\n        /* \"#utility.yul\":3494:3510   */\n      add\n        /* \"#utility.yul\":3488:3511   */\n      mload\n        /* \"#utility.yul\":3524:3587   */\n      tag_146\n        /* \"#utility.yul\":3581:3585   */\n      0xa0\n        /* \"#utility.yul\":3576:3579   */\n      dup6\n        /* \"#utility.yul\":3572:3586   */\n      add\n        /* \"#utility.yul\":3558:3570   */\n      dup3\n        /* \"#utility.yul\":3524:3587   */\n      tag_92\n      jump\t// in\n    tag_146:\n        /* \"#utility.yul\":3426:3597   */\n      pop\n        /* \"#utility.yul\":2497:3604   */\n      pop\n        /* \"#utility.yul\":2397:3604   */\n      pop\n      pop\n      jump\t// out\n        /* \"#utility.yul\":3610:3877   */\n    tag_98:\n        /* \"#utility.yul\":3723:3733   */\n      0x00\n        /* \"#utility.yul\":3744:3834   */\n      tag_148\n        /* \"#utility.yul\":3830:3833   */\n      dup4\n        /* \"#utility.yul\":3822:3828   */\n      dup4\n        /* \"#utility.yul\":3744:3834   */\n      tag_97\n      jump\t// in\n    tag_148:\n        /* \"#utility.yul\":3866:3870   */\n      0xc0\n        /* \"#utility.yul\":3861:3864   */\n      dup4\n        /* \"#utility.yul\":3857:3871   */\n      add\n        /* \"#utility.yul\":3843:3871   */\n      swap1\n      pop\n        /* \"#utility.yul\":3610:3877   */\n      swap3\n      swap2\n      pop\n      pop\n      jump\t// out\n        /* \"#utility.yul\":3883:4018   */\n    tag_99:\n        /* \"#utility.yul\":3975:3979   */\n      0x00\n        /* \"#utility.yul\":4007:4011   */\n      0x20\n        /* \"#utility.yul\":4002:4005   */\n      dup3\n        /* \"#utility.yul\":3998:4012   */\n      add\n        /* \"#utility.yul\":3990:4012   */\n      swap1\n      pop\n        /* \"#utility.yul\":3883:4018   */\n      swap2\n      swap1\n      pop\n      jump\t// out\n        /* \"#utility.yul\":4082:4970   */\n    tag_100:\n        /* \"#utility.yul\":4235:4238   */\n      0x00\n        /* \"#utility.yul\":4264:4340   */\n      tag_151\n        /* \"#utility.yul\":4334:4339   */\n      dup3\n        /* \"#utility.yul\":4264:4340   */\n      tag_93\n      jump\t// in\n    tag_151:\n        /* \"#utility.yul\":4356:4454   */\n      tag_152\n        /* \"#utility.yul\":4447:4453   */\n      dup2\n        /* \"#utility.yul\":4442:4445   */\n      dup6\n        /* \"#utility.yul\":4356:4454   */\n      tag_94\n      jump\t// in\n    tag_152:\n        /* \"#utility.yul\":4349:4454   */\n      swap4\n      pop\n        /* \"#utility.yul\":4478:4556   */\n      tag_153\n        /* \"#utility.yul\":4550:4555   */\n      dup4\n        /* \"#utility.yul\":4478:4556   */\n      tag_95\n      jump\t// in\n    tag_153:\n        /* \"#utility.yul\":4579:4586   */\n      dup1\n        /* \"#utility.yul\":4610:4611   */\n      0x00\n        /* \"#utility.yul\":4595:4945   */\n    tag_154:\n        /* \"#utility.yul\":4620:4626   */\n      dup4\n        /* \"#utility.yul\":4617:4618   */\n      dup2\n        /* \"#utility.yul\":4614:4627   */\n      lt\n        /* \"#utility.yul\":4595:4945   */\n      iszero\n      tag_156\n      jumpi\n        /* \"#utility.yul\":4696:4702   */\n      dup2\n        /* \"#utility.yul\":4690:4703   */\n      mload\n        /* \"#utility.yul\":4723:4830   */\n      tag_157\n        /* \"#utility.yul\":4826:4829   */\n      dup9\n        /* \"#utility.yul\":4811:4824   */\n      dup3\n        /* \"#utility.yul\":4723:4830   */\n      tag_98\n      jump\t// in\n    tag_157:\n        /* \"#utility.yul\":4716:4830   */\n      swap8\n      pop\n        /* \"#utility.yul\":4853:4935   */\n      tag_158\n        /* \"#utility.yul\":4928:4934   */\n      dup4\n        /* \"#utility.yul\":4853:4935   */\n      tag_99\n      jump\t// in\n    tag_158:\n        /* \"#utility.yul\":4843:4935   */\n      swap3\n      pop\n        /* \"#utility.yul\":4655:4945   */\n      pop\n        /* \"#utility.yul\":4642:4643   */\n      0x01\n        /* \"#utility.yul\":4639:4640   */\n      dup2\n        /* \"#utility.yul\":4635:4644   */\n      add\n        /* \"#utility.yul\":4630:4644   */\n      swap1\n      pop\n        /* \"#utility.yul\":4595:4945   */\n      jump(tag_154)\n    tag_156:\n        /* \"#utility.yul\":4599:4613   */\n      pop\n        /* \"#utility.yul\":4961:4964   */\n      dup6\n        /* \"#utility.yul\":4954:4964   */\n      swap4\n      pop\n        /* \"#utility.yul\":4240:4970   */\n      pop\n      pop\n      pop\n        /* \"#utility.yul\":4082:4970   */\n      swap3\n      swap2\n      pop\n      pop\n      jump\t// out\n        /* \"#utility.yul\":5048:5750   */\n    tag_101:\n        /* \"#utility.yul\":5179:5182   */\n      0x00\n        /* \"#utility.yul\":5215:5219   */\n      0x40\n        /* \"#utility.yul\":5210:5213   */\n      dup4\n        /* \"#utility.yul\":5206:5220   */\n      add\n        /* \"#utility.yul\":5310:5314   */\n      0x00\n        /* \"#utility.yul\":5303:5308   */\n      dup4\n        /* \"#utility.yul\":5299:5315   */\n      add\n        /* \"#utility.yul\":5293:5316   */\n      mload\n        /* \"#utility.yul\":5329:5392   */\n      tag_160\n        /* \"#utility.yul\":5386:5390   */\n      0x00\n        /* \"#utility.yul\":5381:5384   */\n      dup7\n        /* \"#utility.yul\":5377:5391   */\n      add\n        /* \"#utility.yul\":5363:5375   */\n      dup3\n        /* \"#utility.yul\":5329:5392   */\n      tag_92\n      jump\t// in\n    tag_160:\n        /* \"#utility.yul\":5230:5402   */\n      pop\n        /* \"#utility.yul\":5486:5490   */\n      0x20\n        /* \"#utility.yul\":5479:5484   */\n      dup4\n        /* \"#utility.yul\":5475:5491   */\n      add\n        /* \"#utility.yul\":5469:5492   */\n      mload\n        /* \"#utility.yul\":5539:5542   */\n      dup5\n        /* \"#utility.yul\":5533:5537   */\n      dup3\n        /* \"#utility.yul\":5529:5543   */\n      sub\n        /* \"#utility.yul\":5522:5526   */\n      0x20\n        /* \"#utility.yul\":5517:5520   */\n      dup7\n        /* \"#utility.yul\":5513:5527   */\n      add\n        /* \"#utility.yul\":5506:5544   */\n      mstore\n        /* \"#utility.yul\":5565:5712   */\n      tag_161\n        /* \"#utility.yul\":5707:5711   */\n      dup3\n        /* \"#utility.yul\":5693:5705   */\n      dup3\n        /* \"#utility.yul\":5565:5712   */\n      tag_100\n      jump\t// in\n    tag_161:\n        /* \"#utility.yul\":5557:5712   */\n      swap2\n      pop\n        /* \"#utility.yul\":5412:5723   */\n      pop\n        /* \"#utility.yul\":5740:5744   */\n      dup1\n        /* \"#utility.yul\":5733:5744   */\n      swap2\n      pop\n        /* \"#utility.yul\":5184:5750   */\n      pop\n        /* \"#utility.yul\":5048:5750   */\n      swap3\n      swap2\n      pop\n      pop\n      jump\t// out\n        /* \"#utility.yul\":5756:6153   */\n    tag_15:\n        /* \"#utility.yul\":5911:5915   */\n      0x00\n        /* \"#utility.yul\":5949:5951   */\n      0x20\n        /* \"#utility.yul\":5938:5947   */\n      dup3\n        /* \"#utility.yul\":5934:5952   */\n      add\n        /* \"#utility.yul\":5926:5952   */\n      swap1\n      pop\n        /* \"#utility.yul\":5998:6007   */\n      dup2\n        /* \"#utility.yul\":5992:5996   */\n      dup2\n        /* \"#utility.yul\":5988:6008   */\n      sub\n        /* \"#utility.yul\":5984:5985   */\n      0x00\n        /* \"#utility.yul\":5973:5982   */\n      dup4\n        /* \"#utility.yul\":5969:5986   */\n      add\n        /* \"#utility.yul\":5962:6009   */\n      mstore\n        /* \"#utility.yul\":6026:6146   */\n      tag_163\n        /* \"#utility.yul\":6141:6145   */\n      dup2\n        /* \"#utility.yul\":6132:6138   */\n      dup5\n        /* \"#utility.yul\":6026:6146   */\n      tag_101\n      jump\t// in\n    tag_163:\n        /* \"#utility.yul\":6018:6146   */\n      swap1\n      pop\n        /* \"#utility.yul\":5756:6153   */\n      swap3\n      swap2\n      pop\n      pop\n      jump\t// out\n        /* \"#utility.yul\":6159:6339   */\n    tag_26:\n        /* \"#utility.yul\":6207:6284   */\n      0x4e487b7100000000000000000000000000000000000000000000000000000000\n        /* \"#utility.yul\":6204:6205   */\n      0x00\n        /* \"#utility.yul\":6197:6285   */\n      mstore\n        /* \"#utility.yul\":6304:6308   */\n      0x32\n        /* \"#utility.yul\":6301:6302   */\n      0x04\n        /* \"#utility.yul\":6294:6309   */\n      mstore\n        /* \"#utility.yul\":6328:6332   */\n      0x24\n        /* \"#utility.yul\":6325:6326   */\n      0x00\n        /* \"#utility.yul\":6318:6333   */\n      revert\n        /* \"#utility.yul\":6345:6514   */\n    tag_102:\n        /* \"#utility.yul\":6429:6440   */\n      0x00\n        /* \"#utility.yul\":6463:6469   */\n      dup3\n        /* \"#utility.yul\":6458:6461   */\n      dup3\n        /* \"#utility.yul\":6451:6470   */\n      mstore\n        /* \"#utility.yul\":6503:6507   */\n      0x20\n        /* \"#utility.yul\":6498:6501   */\n      dup3\n        /* \"#utility.yul\":6494:6508   */\n      add\n        /* \"#utility.yul\":6479:6508   */\n      swap1\n      pop\n        /* \"#utility.yul\":6345:6514   */\n      swap3\n      swap2\n      pop\n      pop\n      jump\t// out\n        /* \"#utility.yul\":6520:6754   */\n    tag_103:\n        /* \"#utility.yul\":6660:6694   */\n      0x5374616b61626c653a2054686973206164647265737320646f6573206e6f7420\n        /* \"#utility.yul\":6656:6657   */\n      0x00\n        /* \"#utility.yul\":6648:6654   */\n      dup3\n        /* \"#utility.yul\":6644:6658   */\n      add\n        /* \"#utility.yul\":6637:6695   */\n      mstore\n        /* \"#utility.yul\":6729:6746   */\n      0x6861766520616e79207374616b65730000000000000000000000000000000000\n        /* \"#utility.yul\":6724:6726   */\n      0x20\n        /* \"#utility.yul\":6716:6722   */\n      dup3\n        /* \"#utility.yul\":6712:6727   */\n      add\n        /* \"#utility.yul\":6705:6747   */\n      mstore\n        /* \"#utility.yul\":6520:6754   */\n      pop\n      jump\t// out\n        /* \"#utility.yul\":6760:7126   */\n    tag_104:\n        /* \"#utility.yul\":6902:6905   */\n      0x00\n        /* \"#utility.yul\":6923:6990   */\n      tag_168\n        /* \"#utility.yul\":6987:6989   */\n      0x2f\n        /* \"#utility.yul\":6982:6985   */\n      dup4\n        /* \"#utility.yul\":6923:6990   */\n      tag_102\n      jump\t// in\n    tag_168:\n        /* \"#utility.yul\":6916:6990   */\n      swap2\n      pop\n        /* \"#utility.yul\":6999:7092   */\n      tag_169\n        /* \"#utility.yul\":7088:7091   */\n      dup3\n        /* \"#utility.yul\":6999:7092   */\n      tag_103\n      jump\t// in\n    tag_169:\n        /* \"#utility.yul\":7117:7119   */\n      0x40\n        /* \"#utility.yul\":7112:7115   */\n      dup3\n        /* \"#utility.yul\":7108:7120   */\n      add\n        /* \"#utility.yul\":7101:7120   */\n      swap1\n      pop\n        /* \"#utility.yul\":6760:7126   */\n      swap2\n      swap1\n      pop\n      jump\t// out\n        /* \"#utility.yul\":7132:7551   */\n    tag_41:\n        /* \"#utility.yul\":7298:7302   */\n      0x00\n        /* \"#utility.yul\":7336:7338   */\n      0x20\n        /* \"#utility.yul\":7325:7334   */\n      dup3\n        /* \"#utility.yul\":7321:7339   */\n      add\n        /* \"#utility.yul\":7313:7339   */\n      swap1\n      pop\n        /* \"#utility.yul\":7385:7394   */\n      dup2\n        /* \"#utility.yul\":7379:7383   */\n      dup2\n        /* \"#utility.yul\":7375:7395   */\n      sub\n        /* \"#utility.yul\":7371:7372   */\n      0x00\n        /* \"#utility.yul\":7360:7369   */\n      dup4\n        /* \"#utility.yul\":7356:7373   */\n      add\n        /* \"#utility.yul\":7349:7396   */\n      mstore\n        /* \"#utility.yul\":7413:7544   */\n      tag_171\n        /* \"#utility.yul\":7539:7543   */\n      dup2\n        /* \"#utility.yul\":7413:7544   */\n      tag_104\n      jump\t// in\n    tag_171:\n        /* \"#utility.yul\":7405:7544   */\n      swap1\n      pop\n        /* \"#utility.yul\":7132:7551   */\n      swap2\n      swap1\n      pop\n      jump\t// out\n        /* \"#utility.yul\":7557:7737   */\n    tag_105:\n        /* \"#utility.yul\":7605:7682   */\n      0x4e487b7100000000000000000000000000000000000000000000000000000000\n        /* \"#utility.yul\":7602:7603   */\n      0x00\n        /* \"#utility.yul\":7595:7683   */\n      mstore\n        /* \"#utility.yul\":7702:7706   */\n      0x11\n        /* \"#utility.yul\":7699:7700   */\n      0x04\n        /* \"#utility.yul\":7692:7707   */\n      mstore\n        /* \"#utility.yul\":7726:7730   */\n      0x24\n        /* \"#utility.yul\":7723:7724   */\n      0x00\n        /* \"#utility.yul\":7716:7731   */\n      revert\n        /* \"#utility.yul\":7743:8048   */\n    tag_56:\n        /* \"#utility.yul\":7783:7786   */\n      0x00\n        /* \"#utility.yul\":7802:7822   */\n      tag_174\n        /* \"#utility.yul\":7820:7821   */\n      dup3\n        /* \"#utility.yul\":7802:7822   */\n      tag_83\n      jump\t// in\n    tag_174:\n        /* \"#utility.yul\":7797:7822   */\n      swap2\n      pop\n        /* \"#utility.yul\":7836:7856   */\n      tag_175\n        /* \"#utility.yul\":7854:7855   */\n      dup4\n        /* \"#utility.yul\":7836:7856   */\n      tag_83\n      jump\t// in\n    tag_175:\n        /* \"#utility.yul\":7831:7856   */\n      swap3\n      pop\n        /* \"#utility.yul\":7990:7991   */\n      dup3\n        /* \"#utility.yul\":7922:7988   */\n      0xffffffffffffffffffffffffffffffffffffffffffffffffffffffffffffffff\n        /* \"#utility.yul\":7918:7992   */\n      sub\n        /* \"#utility.yul\":7915:7916   */\n      dup3\n        /* \"#utility.yul\":7912:7993   */\n      gt\n        /* \"#utility.yul\":7909:8016   */\n      iszero\n      tag_176\n      jumpi\n        /* \"#utility.yul\":7996:8014   */\n      tag_177\n      tag_105\n      jump\t// in\n    tag_177:\n        /* \"#utility.yul\":7909:8016   */\n    tag_176:\n        /* \"#utility.yul\":8040:8041   */\n      dup3\n        /* \"#utility.yul\":8037:8038   */\n      dup3\n        /* \"#utility.yul\":8033:8042   */\n      add\n        /* \"#utility.yul\":8026:8042   */\n      swap1\n      pop\n        /* \"#utility.yul\":7743:8048   */\n      swap3\n      swap2\n      pop\n      pop\n      jump\t// out\n        /* \"#utility.yul\":8054:8402   */\n    tag_63:\n        /* \"#utility.yul\":8094:8101   */\n      0x00\n        /* \"#utility.yul\":8117:8137   */\n      tag_179\n        /* \"#utility.yul\":8135:8136   */\n      dup3\n        /* \"#utility.yul\":8117:8137   */\n      tag_83\n      jump\t// in\n    tag_179:\n        /* \"#utility.yul\":8112:8137   */\n      swap2\n      pop\n        /* \"#utility.yul\":8151:8171   */\n      tag_180\n        /* \"#utility.yul\":8169:8170   */\n      dup4\n        /* \"#utility.yul\":8151:8171   */\n      tag_83\n      jump\t// in\n    tag_180:\n        /* \"#utility.yul\":8146:8171   */\n      swap3\n      pop\n        /* \"#utility.yul\":8339:8340   */\n      dup2\n        /* \"#utility.yul\":8271:8337   */\n      0xffffffffffffffffffffffffffffffffffffffffffffffffffffffffffffffff\n        /* \"#utility.yul\":8267:8341   */\n      div\n        /* \"#utility.yul\":8264:8265   */\n      dup4\n        /* \"#utility.yul\":8261:8342   */\n      gt\n        /* \"#utility.yul\":8256:8257   */\n      dup3\n        /* \"#utility.yul\":8249:8258   */\n      iszero\n        /* \"#utility.yul\":8242:8259   */\n      iszero\n        /* \"#utility.yul\":8238:8343   */\n      and\n        /* \"#utility.yul\":8235:8366   */\n      iszero\n      tag_181\n      jumpi\n        /* \"#utility.yul\":8346:8364   */\n      tag_182\n      tag_105\n      jump\t// in\n    tag_182:\n        /* \"#utility.yul\":8235:8366   */\n    tag_181:\n        /* \"#utility.yul\":8394:8395   */\n      dup3\n        /* \"#utility.yul\":8391:8392   */\n      dup3\n        /* \"#utility.yul\":8387:8396   */\n      mul\n        /* \"#utility.yul\":8376:8396   */\n      swap1\n      pop\n        /* \"#utility.yul\":8054:8402   */\n      swap3\n      swap2\n      pop\n      pop\n      jump\t// out\n        /* \"#utility.yul\":8408:8588   */\n    tag_82:\n        /* \"#utility.yul\":8456:8533   */\n      0x4e487b7100000000000000000000000000000000000000000000000000000000\n        /* \"#utility.yul\":8453:8454   */\n      0x00\n        /* \"#utility.yul\":8446:8534   */\n      mstore\n        /* \"#utility.yul\":8553:8557   */\n      0x12\n        /* \"#utility.yul\":8550:8551   */\n      0x04\n        /* \"#utility.yul\":8543:8558   */\n      mstore\n        /* \"#utility.yul\":8577:8581   */\n      0x24\n        /* \"#utility.yul\":8574:8575   */\n      0x00\n        /* \"#utility.yul\":8567:8582   */\n      revert\n        /* \"#utility.yul\":8594:8779   */\n    tag_66:\n        /* \"#utility.yul\":8634:8635   */\n      0x00\n        /* \"#utility.yul\":8651:8671   */\n      tag_185\n        /* \"#utility.yul\":8669:8670   */\n      dup3\n        /* \"#utility.yul\":8651:8671   */\n      tag_83\n      jump\t// in\n    tag_185:\n        /* \"#utility.yul\":8646:8671   */\n      swap2\n      pop\n        /* \"#utility.yul\":8685:8705   */\n      tag_186\n        /* \"#utility.yul\":8703:8704   */\n      dup4\n        /* \"#utility.yul\":8685:8705   */\n      tag_83\n      jump\t// in\n    tag_186:\n        /* \"#utility.yul\":8680:8705   */\n      swap3\n      pop\n        /* \"#utility.yul\":8724:8725   */\n      dup3\n        /* \"#utility.yul\":8714:8749   */\n      tag_187\n      jumpi\n        /* \"#utility.yul\":8729:8747   */\n      tag_188\n      tag_82\n      jump\t// in\n    tag_188:\n        /* \"#utility.yul\":8714:8749   */\n    tag_187:\n        /* \"#utility.yul\":8771:8772   */\n      dup3\n        /* \"#utility.yul\":8768:8769   */\n      dup3\n        /* \"#utility.yul\":8764:8773   */\n      div\n        /* \"#utility.yul\":8759:8773   */\n      swap1\n      pop\n        /* \"#utility.yul\":8594:8779   */\n      swap3\n      swap2\n      pop\n      pop\n      jump\t// out\n        /* \"#utility.yul\":8785:8962   */\n    tag_106:\n        /* \"#utility.yul\":8925:8954   */\n      0x5374616b61626c653a204572726f722074696d657374616d7020300000000000\n        /* \"#utility.yul\":8921:8922   */\n      0x00\n        /* \"#utility.yul\":8913:8919   */\n      dup3\n        /* \"#utility.yul\":8909:8923   */\n      add\n        /* \"#utility.yul\":8902:8955   */\n      mstore\n        /* \"#utility.yul\":8785:8962   */\n      pop\n      jump\t// out\n        /* \"#utility.yul\":8968:9334   */\n    tag_107:\n        /* \"#utility.yul\":9110:9113   */\n      0x00\n        /* \"#utility.yul\":9131:9198   */\n      tag_191\n        /* \"#utility.yul\":9195:9197   */\n      0x1b\n        /* \"#utility.yul\":9190:9193   */\n      dup4\n        /* \"#utility.yul\":9131:9198   */\n      tag_102\n      jump\t// in\n    tag_191:\n        /* \"#utility.yul\":9124:9198   */\n      swap2\n      pop\n        /* \"#utility.yul\":9207:9300   */\n      tag_192\n        /* \"#utility.yul\":9296:9299   */\n      dup3\n        /* \"#utility.yul\":9207:9300   */\n      tag_106\n      jump\t// in\n    tag_192:\n        /* \"#utility.yul\":9325:9327   */\n      0x20\n        /* \"#utility.yul\":9320:9323   */\n      dup3\n        /* \"#utility.yul\":9316:9328   */\n      add\n        /* \"#utility.yul\":9309:9328   */\n      swap1\n      pop\n        /* \"#utility.yul\":8968:9334   */\n      swap2\n      swap1\n      pop\n      jump\t// out\n        /* \"#utility.yul\":9340:9759   */\n    tag_70:\n        /* \"#utility.yul\":9506:9510   */\n      0x00\n        /* \"#utility.yul\":9544:9546   */\n      0x20\n        /* \"#utility.yul\":9533:9542   */\n      dup3\n        /* \"#utility.yul\":9529:9547   */\n      add\n        /* \"#utility.yul\":9521:9547   */\n      swap1\n      pop\n        /* \"#utility.yul\":9593:9602   */\n      dup2\n        /* \"#utility.yul\":9587:9591   */\n      dup2\n        /* \"#utility.yul\":9583:9603   */\n      sub\n        /* \"#utility.yul\":9579:9580   */\n      0x00\n        /* \"#utility.yul\":9568:9577   */\n      dup4\n        /* \"#utility.yul\":9564:9581   */\n      add\n        /* \"#utility.yul\":9557:9604   */\n      mstore\n        /* \"#utility.yul\":9621:9752   */\n      tag_194\n        /* \"#utility.yul\":9747:9751   */\n      dup2\n        /* \"#utility.yul\":9621:9752   */\n      tag_107\n      jump\t// in\n    tag_194:\n        /* \"#utility.yul\":9613:9752   */\n      swap1\n      pop\n        /* \"#utility.yul\":9340:9759   */\n      swap2\n      swap1\n      pop\n      jump\t// out\n        /* \"#utility.yul\":9765:9956   */\n    tag_73:\n        /* \"#utility.yul\":9805:9809   */\n      0x00\n        /* \"#utility.yul\":9825:9845   */\n      tag_196\n        /* \"#utility.yul\":9843:9844   */\n      dup3\n        /* \"#utility.yul\":9825:9845   */\n      tag_83\n      jump\t// in\n    tag_196:\n        /* \"#utility.yul\":9820:9845   */\n      swap2\n      pop\n        /* \"#utility.yul\":9859:9879   */\n      tag_197\n        /* \"#utility.yul\":9877:9878   */\n      dup4\n        /* \"#utility.yul\":9859:9879   */\n      tag_83\n      jump\t// in\n    tag_197:\n        /* \"#utility.yul\":9854:9879   */\n      swap3\n      pop\n        /* \"#utility.yul\":9898:9899   */\n      dup3\n        /* \"#utility.yul\":9895:9896   */\n      dup3\n        /* \"#utility.yul\":9892:9900   */\n      lt\n        /* \"#utility.yul\":9889:9923   */\n      iszero\n      tag_198\n      jumpi\n        /* \"#utility.yul\":9903:9921   */\n      tag_199\n      tag_105\n      jump\t// in\n    tag_199:\n        /* \"#utility.yul\":9889:9923   */\n    tag_198:\n        /* \"#utility.yul\":9948:9949   */\n      dup3\n        /* \"#utility.yul\":9945:9946   */\n      dup3\n        /* \"#utility.yul\":9941:9950   */\n      sub\n        /* \"#utility.yul\":9933:9950   */\n      swap1\n      pop\n        /* \"#utility.yul\":9765:9956   */\n      swap3\n      swap2\n      pop\n      pop\n      jump\t// out\n        /* \"#utility.yul\":9962:10061   */\n    tag_108:\n        /* \"#utility.yul\":10014:10020   */\n      0x00\n        /* \"#utility.yul\":10048:10053   */\n      dup2\n        /* \"#utility.yul\":10042:10054   */\n      mload\n        /* \"#utility.yul\":10032:10054   */\n      swap1\n      pop\n        /* \"#utility.yul\":9962:10061   */\n      swap2\n      swap1\n      pop\n      jump\t// out\n        /* \"#utility.yul\":10067:10374   */\n    tag_109:\n        /* \"#utility.yul\":10135:10136   */\n      0x00\n        /* \"#utility.yul\":10145:10258   */\n    tag_202:\n        /* \"#utility.yul\":10159:10165   */\n      dup4\n        /* \"#utility.yul\":10156:10157   */\n      dup2\n        /* \"#utility.yul\":10153:10166   */\n      lt\n        /* \"#utility.yul\":10145:10258   */\n      iszero\n      tag_204\n      jumpi\n        /* \"#utility.yul\":10244:10245   */\n      dup1\n        /* \"#utility.yul\":10239:10242   */\n      dup3\n        /* \"#utility.yul\":10235:10246   */\n      add\n        /* \"#utility.yul\":10229:10247   */\n      mload\n        /* \"#utility.yul\":10225:10226   */\n      dup2\n        /* \"#utility.yul\":10220:10223   */\n      dup5\n        /* \"#utility.yul\":10216:10227   */\n      add\n        /* \"#utility.yul\":10209:10248   */\n      mstore\n        /* \"#utility.yul\":10181:10183   */\n      0x20\n        /* \"#utility.yul\":10178:10179   */\n      dup2\n        /* \"#utility.yul\":10174:10184   */\n      add\n        /* \"#utility.yul\":10169:10184   */\n      swap1\n      pop\n        /* \"#utility.yul\":10145:10258   */\n      jump(tag_202)\n    tag_204:\n        /* \"#utility.yul\":10276:10282   */\n      dup4\n        /* \"#utility.yul\":10273:10274   */\n      dup2\n        /* \"#utility.yul\":10270:10283   */\n      gt\n        /* \"#utility.yul\":10267:10368   */\n      iszero\n      tag_205\n      jumpi\n        /* \"#utility.yul\":10356:10357   */\n      0x00\n        /* \"#utility.yul\":10347:10353   */\n      dup5\n        /* \"#utility.yul\":10342:10345   */\n      dup5\n        /* \"#utility.yul\":10338:10354   */\n      add\n        /* \"#utility.yul\":10331:10358   */\n      mstore\n        /* \"#utility.yul\":10267:10368   */\n    tag_205:\n        /* \"#utility.yul\":10116:10374   */\n      pop\n        /* \"#utility.yul\":10067:10374   */\n      pop\n      pop\n      pop\n      jump\t// out\n        /* \"#utility.yul\":10380:10482   */\n    tag_110:\n        /* \"#utility.yul\":10421:10427   */\n      0x00\n        /* \"#utility.yul\":10472:10474   */\n      0x1f\n        /* \"#utility.yul\":10468:10475   */\n      not\n        /* \"#utility.yul\":10463:10465   */\n      0x1f\n        /* \"#utility.yul\":10456:10461   */\n      dup4\n        /* \"#utility.yul\":10452:10466   */\n      add\n        /* \"#utility.yul\":10448:10476   */\n      and\n        /* \"#utility.yul\":10438:10476   */\n      swap1\n      pop\n        /* \"#utility.yul\":10380:10482   */\n      swap2\n      swap1\n      pop\n      jump\t// out\n        /* \"#utility.yul\":10488:10852   */\n    tag_111:\n        /* \"#utility.yul\":10576:10579   */\n      0x00\n        /* \"#utility.yul\":10604:10643   */\n      tag_208\n        /* \"#utility.yul\":10637:10642   */\n      dup3\n        /* \"#utility.yul\":10604:10643   */\n      tag_108\n      jump\t// in\n    tag_208:\n        /* \"#utility.yul\":10659:10730   */\n      tag_209\n        /* \"#utility.yul\":10723:10729   */\n      dup2\n        /* \"#utility.yul\":10718:10721   */\n      dup6\n        /* \"#utility.yul\":10659:10730   */\n      tag_102\n      jump\t// in\n    tag_209:\n        /* \"#utility.yul\":10652:10730   */\n      swap4\n      pop\n        /* \"#utility.yul\":10739:10791   */\n      tag_210\n        /* \"#utility.yul\":10784:10790   */\n      dup2\n        /* \"#utility.yul\":10779:10782   */\n      dup6\n        /* \"#utility.yul\":10772:10776   */\n      0x20\n        /* \"#utility.yul\":10765:10770   */\n      dup7\n        /* \"#utility.yul\":10761:10777   */\n      add\n        /* \"#utility.yul\":10739:10791   */\n      tag_109\n      jump\t// in\n    tag_210:\n        /* \"#utility.yul\":10816:10845   */\n      tag_211\n        /* \"#utility.yul\":10838:10844   */\n      dup2\n        /* \"#utility.yul\":10816:10845   */\n      tag_110\n      jump\t// in\n    tag_211:\n        /* \"#utility.yul\":10811:10814   */\n      dup5\n        /* \"#utility.yul\":10807:10846   */\n      add\n        /* \"#utility.yul\":10800:10846   */\n      swap2\n      pop\n        /* \"#utility.yul\":10580:10852   */\n      pop\n        /* \"#utility.yul\":10488:10852   */\n      swap3\n      swap2\n      pop\n      pop\n      jump\t// out\n        /* \"#utility.yul\":10858:11171   */\n    tag_79:\n        /* \"#utility.yul\":10971:10975   */\n      0x00\n        /* \"#utility.yul\":11009:11011   */\n      0x20\n        /* \"#utility.yul\":10998:11007   */\n      dup3\n        /* \"#utility.yul\":10994:11012   */\n      add\n        /* \"#utility.yul\":10986:11012   */\n      swap1\n      pop\n        /* \"#utility.yul\":11058:11067   */\n      dup2\n        /* \"#utility.yul\":11052:11056   */\n      dup2\n        /* \"#utility.yul\":11048:11068   */\n      sub\n        /* \"#utility.yul\":11044:11045   */\n      0x00\n        /* \"#utility.yul\":11033:11042   */\n      dup4\n        /* \"#utility.yul\":11029:11046   */\n      add\n        /* \"#utility.yul\":11022:11069   */\n      mstore\n        /* \"#utility.yul\":11086:11164   */\n      tag_213\n        /* \"#utility.yul\":11159:11163   */\n      dup2\n        /* \"#utility.yul\":11150:11156   */\n      dup5\n        /* \"#utility.yul\":11086:11164   */\n      tag_111\n      jump\t// in\n    tag_213:\n        /* \"#utility.yul\":11078:11164   */\n      swap1\n      pop\n        /* \"#utility.yul\":10858:11171   */\n      swap3\n      swap2\n      pop\n      pop\n      jump\t// out\n    stop\n    data_10b867070097d898ae15cd1bc384e389b4a7d91f05c0759c198c193c7fd91787 5374616b61626c653a204572726f722063616e6e6f74206469766964652074696d657374616d70\n\n    auxdata: 0xa2646970667358221220c120de9ce4b7a5af32243aeef2c80a3c46a27649fcc8c2b560e78e6dbd21bc7164736f6c634300080b0033\n}\n",
				"bytecode": {
					"linkReferences": {},
					"object": "608060405234801561001057600080fd5b50604051610d27380380610d2783398181016040528101906100329190610097565b600180816001815401808255809150500390600052602060002090505080600081905550506100c4565b600080fd5b6000819050919050565b61007481610061565b811461007f57600080fd5b50565b6000815190506100918161006b565b92915050565b6000602082840312156100ad576100ac61005c565b5b60006100bb84828501610082565b91505092915050565b610c54806100d36000396000f3fe608060405234801561001057600080fd5b50600436106100415760003560e01c80633dc10ad414610046578063b09d4b4e14610064578063e73e14bf14610094575b600080fd5b61004e6100c4565b60405161005b919061064a565b60405180910390f35b61007e600480360381019061007991906106c8565b6100cd565b60405161008b919061087a565b60405180910390f35b6100ae60048036038101906100a991906106c8565b610239565b6040516100bb919061087a565b60405180910390f35b60008054905090565b6100d5610617565b60006040518060400160405280600081526020016001600260008773ffffffffffffffffffffffffffffffffffffffff1673ffffffffffffffffffffffffffffffffffffffff168152602001908152602001600020548154811061013c5761013b61089c565b5b9060005260206000209060020201600101805480602002602001604051908101604052809291908181526020016000905b8282101561022757838290600052602060002090600602016040518060c00160405290816000820160009054906101000a900473ffffffffffffffffffffffffffffffffffffffff1673ffffffffffffffffffffffffffffffffffffffff1673ffffffffffffffffffffffffffffffffffffffff168152602001600182015481526020016002820154815260200160038201548152602001600482015481526020016005820154815250508152602001906001019061016d565b50505050815250905080915050919050565b610241610617565b6000806040518060400160405280600081526020016001600260008873ffffffffffffffffffffffffffffffffffffffff1673ffffffffffffffffffffffffffffffffffffffff16815260200190815260200160002054815481106102a9576102a861089c565b5b9060005260206000209060020201600101805480602002602001604051908101604052809291908181526020016000905b8282101561039457838290600052602060002090600602016040518060c00160405290816000820160009054906101000a900473ffffffffffffffffffffffffffffffffffffffff1673ffffffffffffffffffffffffffffffffffffffff1673ffffffffffffffffffffffffffffffffffffffff16815260200160018201548152602001600282015481526020016003820154815260200160048201548152602001600582015481525050815260200190600101906102da565b505050508152509050600081602001515114156103e6576040517f08c379a00000000000000000000000000000000000000000000000000000000081526004016103dd9061094e565b60405180910390fd5b60005b8160200151518110156104b1576000610442836020015183815181106104125761041161089c565b5b6020026020010151846020015184815181106104315761043061089c565b5b6020026020010151602001516104c6565b9050808360200151838151811061045c5761045b61089c565b5b60200260200101516060018181525050826020015182815181106104835761048261089c565b5b6020026020010151602001518461049a919061099d565b9350506001816104aa919061099d565b90506103e9565b50818160000181815250508092505050919050565b600080836020015114156104dd576000905061051d565b6a52b7d2dcc80cd2e40000006104f68460400151610523565b84608001518461050691906109f3565b61051091906109f3565b61051a9190610a7c565b90505b92915050565b6000808211610567576040517f08c379a000000000000000000000000000000000000000000000000000000000815260040161055e90610af9565b60405180910390fd5b6105ae69d3c21bcecceda100000083426105819190610b19565b61058b91906109f3565b6301e13380604051806060016040528060278152602001610bf8602791396105b5565b9050919050565b600080831182906105fc576040517f08c379a00000000000000000000000000000000000000000000000000000000081526004016105f39190610bd5565b60405180910390fd5b5082848161060d5761060c610a4d565b5b0490509392505050565b604051806040016040528060008152602001606081525090565b6000819050919050565b61064481610631565b82525050565b600060208201905061065f600083018461063b565b92915050565b600080fd5b600073ffffffffffffffffffffffffffffffffffffffff82169050919050565b60006106958261066a565b9050919050565b6106a58161068a565b81146106b057600080fd5b50565b6000813590506106c28161069c565b92915050565b6000602082840312156106de576106dd610665565b5b60006106ec848285016106b3565b91505092915050565b6106fe81610631565b82525050565b600081519050919050565b600082825260208201905092915050565b6000819050602082019050919050565b6107398161068a565b82525050565b60c0820160008201516107556000850182610730565b50602082015161076860208501826106f5565b50604082015161077b60408501826106f5565b50606082015161078e60608501826106f5565b5060808201516107a160808501826106f5565b5060a08201516107b460a08501826106f5565b50505050565b60006107c6838361073f565b60c08301905092915050565b6000602082019050919050565b60006107ea82610704565b6107f4818561070f565b93506107ff83610720565b8060005b8381101561083057815161081788826107ba565b9750610822836107d2565b925050600181019050610803565b5085935050505092915050565b600060408301600083015161085560008601826106f5565b506020830151848203602086015261086d82826107df565b9150508091505092915050565b60006020820190508181036000830152610894818461083d565b905092915050565b7f4e487b7100000000000000000000000000000000000000000000000000000000600052603260045260246000fd5b600082825260208201905092915050565b7f5374616b61626c653a2054686973206164647265737320646f6573206e6f742060008201527f6861766520616e79207374616b65730000000000000000000000000000000000602082015250565b6000610938602f836108cb565b9150610943826108dc565b604082019050919050565b600060208201905081810360008301526109678161092b565b9050919050565b7f4e487b7100000000000000000000000000000000000000000000000000000000600052601160045260246000fd5b60006109a882610631565b91506109b383610631565b9250827fffffffffffffffffffffffffffffffffffffffffffffffffffffffffffffffff038211156109e8576109e761096e565b5b828201905092915050565b60006109fe82610631565b9150610a0983610631565b9250817fffffffffffffffffffffffffffffffffffffffffffffffffffffffffffffffff0483118215151615610a4257610a4161096e565b5b828202905092915050565b7f4e487b7100000000000000000000000000000000000000000000000000000000600052601260045260246000fd5b6000610a8782610631565b9150610a9283610631565b925082610aa257610aa1610a4d565b5b828204905092915050565b7f5374616b61626c653a204572726f722074696d657374616d7020300000000000600082015250565b6000610ae3601b836108cb565b9150610aee82610aad565b602082019050919050565b60006020820190508181036000830152610b1281610ad6565b9050919050565b6000610b2482610631565b9150610b2f83610631565b925082821015610b4257610b4161096e565b5b828203905092915050565b600081519050919050565b60005b83811015610b76578082015181840152602081019050610b5b565b83811115610b85576000848401525b50505050565b6000601f19601f8301169050919050565b6000610ba782610b4d565b610bb181856108cb565b9350610bc1818560208601610b58565b610bca81610b8b565b840191505092915050565b60006020820190508181036000830152610bef8184610b9c565b90509291505056fe5374616b61626c653a204572726f722063616e6e6f74206469766964652074696d657374616d70a2646970667358221220c120de9ce4b7a5af32243aeef2c80a3c46a27649fcc8c2b560e78e6dbd21bc7164736f6c634300080b0033",
					"opcodes": "PUSH1 0x80 PUSH1 0x40 MSTORE CALLVALUE DUP1 ISZERO PUSH2 0x10 JUMPI PUSH1 0x0 DUP1 REVERT JUMPDEST POP PUSH1 0x40 MLOAD PUSH2 0xD27 CODESIZE SUB DUP1 PUSH2 0xD27 DUP4 CODECOPY DUP2 DUP2 ADD PUSH1 0x40 MSTORE DUP2 ADD SWAP1 PUSH2 0x32 SWAP2 SWAP1 PUSH2 0x97 JUMP JUMPDEST PUSH1 0x1 DUP1 DUP2 PUSH1 0x1 DUP2 SLOAD ADD DUP1 DUP3 SSTORE DUP1 SWAP2 POP POP SUB SWAP1 PUSH1 0x0 MSTORE PUSH1 0x20 PUSH1 0x0 KECCAK256 SWAP1 POP POP DUP1 PUSH1 0x0 DUP2 SWAP1 SSTORE POP POP PUSH2 0xC4 JUMP JUMPDEST PUSH1 0x0 DUP1 REVERT JUMPDEST PUSH1 0x0 DUP2 SWAP1 POP SWAP2 SWAP1 POP JUMP JUMPDEST PUSH2 0x74 DUP2 PUSH2 0x61 JUMP JUMPDEST DUP2 EQ PUSH2 0x7F JUMPI PUSH1 0x0 DUP1 REVERT JUMPDEST POP JUMP JUMPDEST PUSH1 0x0 DUP2 MLOAD SWAP1 POP PUSH2 0x91 DUP2 PUSH2 0x6B JUMP JUMPDEST SWAP3 SWAP2 POP POP JUMP JUMPDEST PUSH1 0x0 PUSH1 0x20 DUP3 DUP5 SUB SLT ISZERO PUSH2 0xAD JUMPI PUSH2 0xAC PUSH2 0x5C JUMP JUMPDEST JUMPDEST PUSH1 0x0 PUSH2 0xBB DUP5 DUP3 DUP6 ADD PUSH2 0x82 JUMP JUMPDEST SWAP2 POP POP SWAP3 SWAP2 POP POP JUMP JUMPDEST PUSH2 0xC54 DUP1 PUSH2 0xD3 PUSH1 0x0 CODECOPY PUSH1 0x0 RETURN INVALID PUSH1 0x80 PUSH1 0x40 MSTORE CALLVALUE DUP1 ISZERO PUSH2 0x10 JUMPI PUSH1 0x0 DUP1 REVERT JUMPDEST POP PUSH1 0x4 CALLDATASIZE LT PUSH2 0x41 JUMPI PUSH1 0x0 CALLDATALOAD PUSH1 0xE0 SHR DUP1 PUSH4 0x3DC10AD4 EQ PUSH2 0x46 JUMPI DUP1 PUSH4 0xB09D4B4E EQ PUSH2 0x64 JUMPI DUP1 PUSH4 0xE73E14BF EQ PUSH2 0x94 JUMPI JUMPDEST PUSH1 0x0 DUP1 REVERT JUMPDEST PUSH2 0x4E PUSH2 0xC4 JUMP JUMPDEST PUSH1 0x40 MLOAD PUSH2 0x5B SWAP2 SWAP1 PUSH2 0x64A JUMP JUMPDEST PUSH1 0x40 MLOAD DUP1 SWAP2 SUB SWAP1 RETURN JUMPDEST PUSH2 0x7E PUSH1 0x4 DUP1 CALLDATASIZE SUB DUP2 ADD SWAP1 PUSH2 0x79 SWAP2 SWAP1 PUSH2 0x6C8 JUMP JUMPDEST PUSH2 0xCD JUMP JUMPDEST PUSH1 0x40 MLOAD PUSH2 0x8B SWAP2 SWAP1 PUSH2 0x87A JUMP JUMPDEST PUSH1 0x40 MLOAD DUP1 SWAP2 SUB SWAP1 RETURN JUMPDEST PUSH2 0xAE PUSH1 0x4 DUP1 CALLDATASIZE SUB DUP2 ADD SWAP1 PUSH2 0xA9 SWAP2 SWAP1 PUSH2 0x6C8 JUMP JUMPDEST PUSH2 0x239 JUMP JUMPDEST PUSH1 0x40 MLOAD PUSH2 0xBB SWAP2 SWAP1 PUSH2 0x87A JUMP JUMPDEST PUSH1 0x40 MLOAD DUP1 SWAP2 SUB SWAP1 RETURN JUMPDEST PUSH1 0x0 DUP1 SLOAD SWAP1 POP SWAP1 JUMP JUMPDEST PUSH2 0xD5 PUSH2 0x617 JUMP JUMPDEST PUSH1 0x0 PUSH1 0x40 MLOAD DUP1 PUSH1 0x40 ADD PUSH1 0x40 MSTORE DUP1 PUSH1 0x0 DUP2 MSTORE PUSH1 0x20 ADD PUSH1 0x1 PUSH1 0x2 PUSH1 0x0 DUP8 PUSH20 0xFFFFFFFFFFFFFFFFFFFFFFFFFFFFFFFFFFFFFFFF AND PUSH20 0xFFFFFFFFFFFFFFFFFFFFFFFFFFFFFFFFFFFFFFFF AND DUP2 MSTORE PUSH1 0x20 ADD SWAP1 DUP2 MSTORE PUSH1 0x20 ADD PUSH1 0x0 KECCAK256 SLOAD DUP2 SLOAD DUP2 LT PUSH2 0x13C JUMPI PUSH2 0x13B PUSH2 0x89C JUMP JUMPDEST JUMPDEST SWAP1 PUSH1 0x0 MSTORE PUSH1 0x20 PUSH1 0x0 KECCAK256 SWAP1 PUSH1 0x2 MUL ADD PUSH1 0x1 ADD DUP1 SLOAD DUP1 PUSH1 0x20 MUL PUSH1 0x20 ADD PUSH1 0x40 MLOAD SWAP1 DUP2 ADD PUSH1 0x40 MSTORE DUP1 SWAP3 SWAP2 SWAP1 DUP2 DUP2 MSTORE PUSH1 0x20 ADD PUSH1 0x0 SWAP1 JUMPDEST DUP3 DUP3 LT ISZERO PUSH2 0x227 JUMPI DUP4 DUP3 SWAP1 PUSH1 0x0 MSTORE PUSH1 0x20 PUSH1 0x0 KECCAK256 SWAP1 PUSH1 0x6 MUL ADD PUSH1 0x40 MLOAD DUP1 PUSH1 0xC0 ADD PUSH1 0x40 MSTORE SWAP1 DUP2 PUSH1 0x0 DUP3 ADD PUSH1 0x0 SWAP1 SLOAD SWAP1 PUSH2 0x100 EXP SWAP1 DIV PUSH20 0xFFFFFFFFFFFFFFFFFFFFFFFFFFFFFFFFFFFFFFFF AND PUSH20 0xFFFFFFFFFFFFFFFFFFFFFFFFFFFFFFFFFFFFFFFF AND PUSH20 0xFFFFFFFFFFFFFFFFFFFFFFFFFFFFFFFFFFFFFFFF AND DUP2 MSTORE PUSH1 0x20 ADD PUSH1 0x1 DUP3 ADD SLOAD DUP2 MSTORE PUSH1 0x20 ADD PUSH1 0x2 DUP3 ADD SLOAD DUP2 MSTORE PUSH1 0x20 ADD PUSH1 0x3 DUP3 ADD SLOAD DUP2 MSTORE PUSH1 0x20 ADD PUSH1 0x4 DUP3 ADD SLOAD DUP2 MSTORE PUSH1 0x20 ADD PUSH1 0x5 DUP3 ADD SLOAD DUP2 MSTORE POP POP DUP2 MSTORE PUSH1 0x20 ADD SWAP1 PUSH1 0x1 ADD SWAP1 PUSH2 0x16D JUMP JUMPDEST POP POP POP POP DUP2 MSTORE POP SWAP1 POP DUP1 SWAP2 POP POP SWAP2 SWAP1 POP JUMP JUMPDEST PUSH2 0x241 PUSH2 0x617 JUMP JUMPDEST PUSH1 0x0 DUP1 PUSH1 0x40 MLOAD DUP1 PUSH1 0x40 ADD PUSH1 0x40 MSTORE DUP1 PUSH1 0x0 DUP2 MSTORE PUSH1 0x20 ADD PUSH1 0x1 PUSH1 0x2 PUSH1 0x0 DUP9 PUSH20 0xFFFFFFFFFFFFFFFFFFFFFFFFFFFFFFFFFFFFFFFF AND PUSH20 0xFFFFFFFFFFFFFFFFFFFFFFFFFFFFFFFFFFFFFFFF AND DUP2 MSTORE PUSH1 0x20 ADD SWAP1 DUP2 MSTORE PUSH1 0x20 ADD PUSH1 0x0 KECCAK256 SLOAD DUP2 SLOAD DUP2 LT PUSH2 0x2A9 JUMPI PUSH2 0x2A8 PUSH2 0x89C JUMP JUMPDEST JUMPDEST SWAP1 PUSH1 0x0 MSTORE PUSH1 0x20 PUSH1 0x0 KECCAK256 SWAP1 PUSH1 0x2 MUL ADD PUSH1 0x1 ADD DUP1 SLOAD DUP1 PUSH1 0x20 MUL PUSH1 0x20 ADD PUSH1 0x40 MLOAD SWAP1 DUP2 ADD PUSH1 0x40 MSTORE DUP1 SWAP3 SWAP2 SWAP1 DUP2 DUP2 MSTORE PUSH1 0x20 ADD PUSH1 0x0 SWAP1 JUMPDEST DUP3 DUP3 LT ISZERO PUSH2 0x394 JUMPI DUP4 DUP3 SWAP1 PUSH1 0x0 MSTORE PUSH1 0x20 PUSH1 0x0 KECCAK256 SWAP1 PUSH1 0x6 MUL ADD PUSH1 0x40 MLOAD DUP1 PUSH1 0xC0 ADD PUSH1 0x40 MSTORE SWAP1 DUP2 PUSH1 0x0 DUP3 ADD PUSH1 0x0 SWAP1 SLOAD SWAP1 PUSH2 0x100 EXP SWAP1 DIV PUSH20 0xFFFFFFFFFFFFFFFFFFFFFFFFFFFFFFFFFFFFFFFF AND PUSH20 0xFFFFFFFFFFFFFFFFFFFFFFFFFFFFFFFFFFFFFFFF AND PUSH20 0xFFFFFFFFFFFFFFFFFFFFFFFFFFFFFFFFFFFFFFFF AND DUP2 MSTORE PUSH1 0x20 ADD PUSH1 0x1 DUP3 ADD SLOAD DUP2 MSTORE PUSH1 0x20 ADD PUSH1 0x2 DUP3 ADD SLOAD DUP2 MSTORE PUSH1 0x20 ADD PUSH1 0x3 DUP3 ADD SLOAD DUP2 MSTORE PUSH1 0x20 ADD PUSH1 0x4 DUP3 ADD SLOAD DUP2 MSTORE PUSH1 0x20 ADD PUSH1 0x5 DUP3 ADD SLOAD DUP2 MSTORE POP POP DUP2 MSTORE PUSH1 0x20 ADD SWAP1 PUSH1 0x1 ADD SWAP1 PUSH2 0x2DA JUMP JUMPDEST POP POP POP POP DUP2 MSTORE POP SWAP1 POP PUSH1 0x0 DUP2 PUSH1 0x20 ADD MLOAD MLOAD EQ ISZERO PUSH2 0x3E6 JUMPI PUSH1 0x40 MLOAD PUSH32 0x8C379A000000000000000000000000000000000000000000000000000000000 DUP2 MSTORE PUSH1 0x4 ADD PUSH2 0x3DD SWAP1 PUSH2 0x94E JUMP JUMPDEST PUSH1 0x40 MLOAD DUP1 SWAP2 SUB SWAP1 REVERT JUMPDEST PUSH1 0x0 JUMPDEST DUP2 PUSH1 0x20 ADD MLOAD MLOAD DUP2 LT ISZERO PUSH2 0x4B1 JUMPI PUSH1 0x0 PUSH2 0x442 DUP4 PUSH1 0x20 ADD MLOAD DUP4 DUP2 MLOAD DUP2 LT PUSH2 0x412 JUMPI PUSH2 0x411 PUSH2 0x89C JUMP JUMPDEST JUMPDEST PUSH1 0x20 MUL PUSH1 0x20 ADD ADD MLOAD DUP5 PUSH1 0x20 ADD MLOAD DUP5 DUP2 MLOAD DUP2 LT PUSH2 0x431 JUMPI PUSH2 0x430 PUSH2 0x89C JUMP JUMPDEST JUMPDEST PUSH1 0x20 MUL PUSH1 0x20 ADD ADD MLOAD PUSH1 0x20 ADD MLOAD PUSH2 0x4C6 JUMP JUMPDEST SWAP1 POP DUP1 DUP4 PUSH1 0x20 ADD MLOAD DUP4 DUP2 MLOAD DUP2 LT PUSH2 0x45C JUMPI PUSH2 0x45B PUSH2 0x89C JUMP JUMPDEST JUMPDEST PUSH1 0x20 MUL PUSH1 0x20 ADD ADD MLOAD PUSH1 0x60 ADD DUP2 DUP2 MSTORE POP POP DUP3 PUSH1 0x20 ADD MLOAD DUP3 DUP2 MLOAD DUP2 LT PUSH2 0x483 JUMPI PUSH2 0x482 PUSH2 0x89C JUMP JUMPDEST JUMPDEST PUSH1 0x20 MUL PUSH1 0x20 ADD ADD MLOAD PUSH1 0x20 ADD MLOAD DUP5 PUSH2 0x49A SWAP2 SWAP1 PUSH2 0x99D JUMP JUMPDEST SWAP4 POP POP PUSH1 0x1 DUP2 PUSH2 0x4AA SWAP2 SWAP1 PUSH2 0x99D JUMP JUMPDEST SWAP1 POP PUSH2 0x3E9 JUMP JUMPDEST POP DUP2 DUP2 PUSH1 0x0 ADD DUP2 DUP2 MSTORE POP POP DUP1 SWAP3 POP POP POP SWAP2 SWAP1 POP JUMP JUMPDEST PUSH1 0x0 DUP1 DUP4 PUSH1 0x20 ADD MLOAD EQ ISZERO PUSH2 0x4DD JUMPI PUSH1 0x0 SWAP1 POP PUSH2 0x51D JUMP JUMPDEST PUSH11 0x52B7D2DCC80CD2E4000000 PUSH2 0x4F6 DUP5 PUSH1 0x40 ADD MLOAD PUSH2 0x523 JUMP JUMPDEST DUP5 PUSH1 0x80 ADD MLOAD DUP5 PUSH2 0x506 SWAP2 SWAP1 PUSH2 0x9F3 JUMP JUMPDEST PUSH2 0x510 SWAP2 SWAP1 PUSH2 0x9F3 JUMP JUMPDEST PUSH2 0x51A SWAP2 SWAP1 PUSH2 0xA7C JUMP JUMPDEST SWAP1 POP JUMPDEST SWAP3 SWAP2 POP POP JUMP JUMPDEST PUSH1 0x0 DUP1 DUP3 GT PUSH2 0x567 JUMPI PUSH1 0x40 MLOAD PUSH32 0x8C379A000000000000000000000000000000000000000000000000000000000 DUP2 MSTORE PUSH1 0x4 ADD PUSH2 0x55E SWAP1 PUSH2 0xAF9 JUMP JUMPDEST PUSH1 0x40 MLOAD DUP1 SWAP2 SUB SWAP1 REVERT JUMPDEST PUSH2 0x5AE PUSH10 0xD3C21BCECCEDA1000000 DUP4 TIMESTAMP PUSH2 0x581 SWAP2 SWAP1 PUSH2 0xB19 JUMP JUMPDEST PUSH2 0x58B SWAP2 SWAP1 PUSH2 0x9F3 JUMP JUMPDEST PUSH4 0x1E13380 PUSH1 0x40 MLOAD DUP1 PUSH1 0x60 ADD PUSH1 0x40 MSTORE DUP1 PUSH1 0x27 DUP2 MSTORE PUSH1 0x20 ADD PUSH2 0xBF8 PUSH1 0x27 SWAP2 CODECOPY PUSH2 0x5B5 JUMP JUMPDEST SWAP1 POP SWAP2 SWAP1 POP JUMP JUMPDEST PUSH1 0x0 DUP1 DUP4 GT DUP3 SWAP1 PUSH2 0x5FC JUMPI PUSH1 0x40 MLOAD PUSH32 0x8C379A000000000000000000000000000000000000000000000000000000000 DUP2 MSTORE PUSH1 0x4 ADD PUSH2 0x5F3 SWAP2 SWAP1 PUSH2 0xBD5 JUMP JUMPDEST PUSH1 0x40 MLOAD DUP1 SWAP2 SUB SWAP1 REVERT JUMPDEST POP DUP3 DUP5 DUP2 PUSH2 0x60D JUMPI PUSH2 0x60C PUSH2 0xA4D JUMP JUMPDEST JUMPDEST DIV SWAP1 POP SWAP4 SWAP3 POP POP POP JUMP JUMPDEST PUSH1 0x40 MLOAD DUP1 PUSH1 0x40 ADD PUSH1 0x40 MSTORE DUP1 PUSH1 0x0 DUP2 MSTORE PUSH1 0x20 ADD PUSH1 0x60 DUP2 MSTORE POP SWAP1 JUMP JUMPDEST PUSH1 0x0 DUP2 SWAP1 POP SWAP2 SWAP1 POP JUMP JUMPDEST PUSH2 0x644 DUP2 PUSH2 0x631 JUMP JUMPDEST DUP3 MSTORE POP POP JUMP JUMPDEST PUSH1 0x0 PUSH1 0x20 DUP3 ADD SWAP1 POP PUSH2 0x65F PUSH1 0x0 DUP4 ADD DUP5 PUSH2 0x63B JUMP JUMPDEST SWAP3 SWAP2 POP POP JUMP JUMPDEST PUSH1 0x0 DUP1 REVERT JUMPDEST PUSH1 0x0 PUSH20 0xFFFFFFFFFFFFFFFFFFFFFFFFFFFFFFFFFFFFFFFF DUP3 AND SWAP1 POP SWAP2 SWAP1 POP JUMP JUMPDEST PUSH1 0x0 PUSH2 0x695 DUP3 PUSH2 0x66A JUMP JUMPDEST SWAP1 POP SWAP2 SWAP1 POP JUMP JUMPDEST PUSH2 0x6A5 DUP2 PUSH2 0x68A JUMP JUMPDEST DUP2 EQ PUSH2 0x6B0 JUMPI PUSH1 0x0 DUP1 REVERT JUMPDEST POP JUMP JUMPDEST PUSH1 0x0 DUP2 CALLDATALOAD SWAP1 POP PUSH2 0x6C2 DUP2 PUSH2 0x69C JUMP JUMPDEST SWAP3 SWAP2 POP POP JUMP JUMPDEST PUSH1 0x0 PUSH1 0x20 DUP3 DUP5 SUB SLT ISZERO PUSH2 0x6DE JUMPI PUSH2 0x6DD PUSH2 0x665 JUMP JUMPDEST JUMPDEST PUSH1 0x0 PUSH2 0x6EC DUP5 DUP3 DUP6 ADD PUSH2 0x6B3 JUMP JUMPDEST SWAP2 POP POP SWAP3 SWAP2 POP POP JUMP JUMPDEST PUSH2 0x6FE DUP2 PUSH2 0x631 JUMP JUMPDEST DUP3 MSTORE POP POP JUMP JUMPDEST PUSH1 0x0 DUP2 MLOAD SWAP1 POP SWAP2 SWAP1 POP JUMP JUMPDEST PUSH1 0x0 DUP3 DUP3 MSTORE PUSH1 0x20 DUP3 ADD SWAP1 POP SWAP3 SWAP2 POP POP JUMP JUMPDEST PUSH1 0x0 DUP2 SWAP1 POP PUSH1 0x20 DUP3 ADD SWAP1 POP SWAP2 SWAP1 POP JUMP JUMPDEST PUSH2 0x739 DUP2 PUSH2 0x68A JUMP JUMPDEST DUP3 MSTORE POP POP JUMP JUMPDEST PUSH1 0xC0 DUP3 ADD PUSH1 0x0 DUP3 ADD MLOAD PUSH2 0x755 PUSH1 0x0 DUP6 ADD DUP3 PUSH2 0x730 JUMP JUMPDEST POP PUSH1 0x20 DUP3 ADD MLOAD PUSH2 0x768 PUSH1 0x20 DUP6 ADD DUP3 PUSH2 0x6F5 JUMP JUMPDEST POP PUSH1 0x40 DUP3 ADD MLOAD PUSH2 0x77B PUSH1 0x40 DUP6 ADD DUP3 PUSH2 0x6F5 JUMP JUMPDEST POP PUSH1 0x60 DUP3 ADD MLOAD PUSH2 0x78E PUSH1 0x60 DUP6 ADD DUP3 PUSH2 0x6F5 JUMP JUMPDEST POP PUSH1 0x80 DUP3 ADD MLOAD PUSH2 0x7A1 PUSH1 0x80 DUP6 ADD DUP3 PUSH2 0x6F5 JUMP JUMPDEST POP PUSH1 0xA0 DUP3 ADD MLOAD PUSH2 0x7B4 PUSH1 0xA0 DUP6 ADD DUP3 PUSH2 0x6F5 JUMP JUMPDEST POP POP POP POP JUMP JUMPDEST PUSH1 0x0 PUSH2 0x7C6 DUP4 DUP4 PUSH2 0x73F JUMP JUMPDEST PUSH1 0xC0 DUP4 ADD SWAP1 POP SWAP3 SWAP2 POP POP JUMP JUMPDEST PUSH1 0x0 PUSH1 0x20 DUP3 ADD SWAP1 POP SWAP2 SWAP1 POP JUMP JUMPDEST PUSH1 0x0 PUSH2 0x7EA DUP3 PUSH2 0x704 JUMP JUMPDEST PUSH2 0x7F4 DUP2 DUP6 PUSH2 0x70F JUMP JUMPDEST SWAP4 POP PUSH2 0x7FF DUP4 PUSH2 0x720 JUMP JUMPDEST DUP1 PUSH1 0x0 JUMPDEST DUP4 DUP2 LT ISZERO PUSH2 0x830 JUMPI DUP2 MLOAD PUSH2 0x817 DUP9 DUP3 PUSH2 0x7BA JUMP JUMPDEST SWAP8 POP PUSH2 0x822 DUP4 PUSH2 0x7D2 JUMP JUMPDEST SWAP3 POP POP PUSH1 0x1 DUP2 ADD SWAP1 POP PUSH2 0x803 JUMP JUMPDEST POP DUP6 SWAP4 POP POP POP POP SWAP3 SWAP2 POP POP JUMP JUMPDEST PUSH1 0x0 PUSH1 0x40 DUP4 ADD PUSH1 0x0 DUP4 ADD MLOAD PUSH2 0x855 PUSH1 0x0 DUP7 ADD DUP3 PUSH2 0x6F5 JUMP JUMPDEST POP PUSH1 0x20 DUP4 ADD MLOAD DUP5 DUP3 SUB PUSH1 0x20 DUP7 ADD MSTORE PUSH2 0x86D DUP3 DUP3 PUSH2 0x7DF JUMP JUMPDEST SWAP2 POP POP DUP1 SWAP2 POP POP SWAP3 SWAP2 POP POP JUMP JUMPDEST PUSH1 0x0 PUSH1 0x20 DUP3 ADD SWAP1 POP DUP2 DUP2 SUB PUSH1 0x0 DUP4 ADD MSTORE PUSH2 0x894 DUP2 DUP5 PUSH2 0x83D JUMP JUMPDEST SWAP1 POP SWAP3 SWAP2 POP POP JUMP JUMPDEST PUSH32 0x4E487B7100000000000000000000000000000000000000000000000000000000 PUSH1 0x0 MSTORE PUSH1 0x32 PUSH1 0x4 MSTORE PUSH1 0x24 PUSH1 0x0 REVERT JUMPDEST PUSH1 0x0 DUP3 DUP3 MSTORE PUSH1 0x20 DUP3 ADD SWAP1 POP SWAP3 SWAP2 POP POP JUMP JUMPDEST PUSH32 0x5374616B61626C653A2054686973206164647265737320646F6573206E6F7420 PUSH1 0x0 DUP3 ADD MSTORE PUSH32 0x6861766520616E79207374616B65730000000000000000000000000000000000 PUSH1 0x20 DUP3 ADD MSTORE POP JUMP JUMPDEST PUSH1 0x0 PUSH2 0x938 PUSH1 0x2F DUP4 PUSH2 0x8CB JUMP JUMPDEST SWAP2 POP PUSH2 0x943 DUP3 PUSH2 0x8DC JUMP JUMPDEST PUSH1 0x40 DUP3 ADD SWAP1 POP SWAP2 SWAP1 POP JUMP JUMPDEST PUSH1 0x0 PUSH1 0x20 DUP3 ADD SWAP1 POP DUP2 DUP2 SUB PUSH1 0x0 DUP4 ADD MSTORE PUSH2 0x967 DUP2 PUSH2 0x92B JUMP JUMPDEST SWAP1 POP SWAP2 SWAP1 POP JUMP JUMPDEST PUSH32 0x4E487B7100000000000000000000000000000000000000000000000000000000 PUSH1 0x0 MSTORE PUSH1 0x11 PUSH1 0x4 MSTORE PUSH1 0x24 PUSH1 0x0 REVERT JUMPDEST PUSH1 0x0 PUSH2 0x9A8 DUP3 PUSH2 0x631 JUMP JUMPDEST SWAP2 POP PUSH2 0x9B3 DUP4 PUSH2 0x631 JUMP JUMPDEST SWAP3 POP DUP3 PUSH32 0xFFFFFFFFFFFFFFFFFFFFFFFFFFFFFFFFFFFFFFFFFFFFFFFFFFFFFFFFFFFFFFFF SUB DUP3 GT ISZERO PUSH2 0x9E8 JUMPI PUSH2 0x9E7 PUSH2 0x96E JUMP JUMPDEST JUMPDEST DUP3 DUP3 ADD SWAP1 POP SWAP3 SWAP2 POP POP JUMP JUMPDEST PUSH1 0x0 PUSH2 0x9FE DUP3 PUSH2 0x631 JUMP JUMPDEST SWAP2 POP PUSH2 0xA09 DUP4 PUSH2 0x631 JUMP JUMPDEST SWAP3 POP DUP2 PUSH32 0xFFFFFFFFFFFFFFFFFFFFFFFFFFFFFFFFFFFFFFFFFFFFFFFFFFFFFFFFFFFFFFFF DIV DUP4 GT DUP3 ISZERO ISZERO AND ISZERO PUSH2 0xA42 JUMPI PUSH2 0xA41 PUSH2 0x96E JUMP JUMPDEST JUMPDEST DUP3 DUP3 MUL SWAP1 POP SWAP3 SWAP2 POP POP JUMP JUMPDEST PUSH32 0x4E487B7100000000000000000000000000000000000000000000000000000000 PUSH1 0x0 MSTORE PUSH1 0x12 PUSH1 0x4 MSTORE PUSH1 0x24 PUSH1 0x0 REVERT JUMPDEST PUSH1 0x0 PUSH2 0xA87 DUP3 PUSH2 0x631 JUMP JUMPDEST SWAP2 POP PUSH2 0xA92 DUP4 PUSH2 0x631 JUMP JUMPDEST SWAP3 POP DUP3 PUSH2 0xAA2 JUMPI PUSH2 0xAA1 PUSH2 0xA4D JUMP JUMPDEST JUMPDEST DUP3 DUP3 DIV SWAP1 POP SWAP3 SWAP2 POP POP JUMP JUMPDEST PUSH32 0x5374616B61626C653A204572726F722074696D657374616D7020300000000000 PUSH1 0x0 DUP3 ADD MSTORE POP JUMP JUMPDEST PUSH1 0x0 PUSH2 0xAE3 PUSH1 0x1B DUP4 PUSH2 0x8CB JUMP JUMPDEST SWAP2 POP PUSH2 0xAEE DUP3 PUSH2 0xAAD JUMP JUMPDEST PUSH1 0x20 DUP3 ADD SWAP1 POP SWAP2 SWAP1 POP JUMP JUMPDEST PUSH1 0x0 PUSH1 0x20 DUP3 ADD SWAP1 POP DUP2 DUP2 SUB PUSH1 0x0 DUP4 ADD MSTORE PUSH2 0xB12 DUP2 PUSH2 0xAD6 JUMP JUMPDEST SWAP1 POP SWAP2 SWAP1 POP JUMP JUMPDEST PUSH1 0x0 PUSH2 0xB24 DUP3 PUSH2 0x631 JUMP JUMPDEST SWAP2 POP PUSH2 0xB2F DUP4 PUSH2 0x631 JUMP JUMPDEST SWAP3 POP DUP3 DUP3 LT ISZERO PUSH2 0xB42 JUMPI PUSH2 0xB41 PUSH2 0x96E JUMP JUMPDEST JUMPDEST DUP3 DUP3 SUB SWAP1 POP SWAP3 SWAP2 POP POP JUMP JUMPDEST PUSH1 0x0 DUP2 MLOAD SWAP1 POP SWAP2 SWAP1 POP JUMP JUMPDEST PUSH1 0x0 JUMPDEST DUP4 DUP2 LT ISZERO PUSH2 0xB76 JUMPI DUP1 DUP3 ADD MLOAD DUP2 DUP5 ADD MSTORE PUSH1 0x20 DUP2 ADD SWAP1 POP PUSH2 0xB5B JUMP JUMPDEST DUP4 DUP2 GT ISZERO PUSH2 0xB85 JUMPI PUSH1 0x0 DUP5 DUP5 ADD MSTORE JUMPDEST POP POP POP POP JUMP JUMPDEST PUSH1 0x0 PUSH1 0x1F NOT PUSH1 0x1F DUP4 ADD AND SWAP1 POP SWAP2 SWAP1 POP JUMP JUMPDEST PUSH1 0x0 PUSH2 0xBA7 DUP3 PUSH2 0xB4D JUMP JUMPDEST PUSH2 0xBB1 DUP2 DUP6 PUSH2 0x8CB JUMP JUMPDEST SWAP4 POP PUSH2 0xBC1 DUP2 DUP6 PUSH1 0x20 DUP7 ADD PUSH2 0xB58 JUMP JUMPDEST PUSH2 0xBCA DUP2 PUSH2 0xB8B JUMP JUMPDEST DUP5 ADD SWAP2 POP POP SWAP3 SWAP2 POP POP JUMP JUMPDEST PUSH1 0x0 PUSH1 0x20 DUP3 ADD SWAP1 POP DUP2 DUP2 SUB PUSH1 0x0 DUP4 ADD MSTORE PUSH2 0xBEF DUP2 DUP5 PUSH2 0xB9C JUMP JUMPDEST SWAP1 POP SWAP3 SWAP2 POP POP JUMP INVALID MSTORE8 PUSH21 0x616B61626C653A204572726F722063616E6E6F7420 PUSH5 0x6976696465 KECCAK256 PUSH21 0x696D657374616D70A2646970667358221220C120DE SWAP13 0xE4 0xB7 0xA5 0xAF ORIGIN 0x24 GASPRICE 0xEE CALLCODE 0xC8 EXP EXTCODECOPY CHAINID LOG2 PUSH23 0x49FCC8C2B560E78E6DBD21BC7164736F6C634300080B00 CALLER "
				},
				"gasEstimates": {
					"creation": {
						"codeDepositCost": "631200",
						"executionCost": "infinite",
						"totalCost": "infinite"
					},
					"external": {
						"hasStake(address)": "infinite",
						"penaltyFee()": "2415",
						"stakeSummary(address)": "infinite"
					},
					"internal": {
						"_addStakeholder(address)": "infinite",
						"_changePenaltyFee(uint256)": "infinite",
						"_stake(uint256,uint256,uint256)": "infinite",
						"_withdrawAllStake(uint256)": "infinite",
						"_withdrawStake(uint256,uint256)": "infinite",
						"calculateStakeReward(struct Stakable.Stake memory,uint256)": "infinite",
						"calculateStakingDuration(uint256)": "infinite",
						"calculateStakingWithPenalty(uint256,uint256)": "infinite"
					}
				},
				"methodIdentifiers": {
					"hasStake(address)": "e73e14bf",
					"penaltyFee()": "3dc10ad4",
					"stakeSummary(address)": "b09d4b4e"
				}
			},
			"userdoc": {
				"events": {
					"Staked(address,uint256,uint256,uint256,uint256)": {
						"notice": "Staked event is triggered whenever a user stakes tokens, address is indexed to make it filterable"
					}
				},
				"kind": "user",
				"methods": {},
				"version": 1
			}
		}
	}
}