{
	"contracts/TeamProject_Whitelist.sol": {
		"TeamWhitelist": {
			"abi": [
				{
					"anonymous": false,
					"inputs": [
						{
							"indexed": true,
							"internalType": "address",
							"name": "token",
							"type": "address"
						},
						{
							"indexed": true,
							"internalType": "address",
							"name": "user",
							"type": "address"
						},
						{
							"indexed": false,
							"internalType": "uint256",
							"name": "amount",
							"type": "uint256"
						}
					],
					"name": "ERC20Released",
					"type": "event"
				},
				{
					"anonymous": false,
					"inputs": [
						{
							"indexed": true,
							"internalType": "address",
							"name": "previousOwner",
							"type": "address"
						},
						{
							"indexed": true,
							"internalType": "address",
							"name": "newOwner",
							"type": "address"
						}
					],
					"name": "OwnershipTransferred",
					"type": "event"
				},
				{
					"inputs": [
						{
							"components": [
								{
									"internalType": "address",
									"name": "user",
									"type": "address"
								},
								{
									"internalType": "uint256",
									"name": "amount",
									"type": "uint256"
								}
							],
							"internalType": "struct TeamWhitelist.Beneficiary[]",
							"name": "users",
							"type": "tuple[]"
						}
					],
					"name": "addMultiVesting",
					"outputs": [],
					"stateMutability": "nonpayable",
					"type": "function"
				},
				{
					"inputs": [],
					"name": "duration",
					"outputs": [
						{
							"internalType": "uint256",
							"name": "",
							"type": "uint256"
						}
					],
					"stateMutability": "view",
					"type": "function"
				},
				{
					"inputs": [
						{
							"internalType": "address",
							"name": "token",
							"type": "address"
						},
						{
							"internalType": "uint64",
							"name": "startTimestamp",
							"type": "uint64"
						},
						{
							"internalType": "uint64",
							"name": "durationSeconds",
							"type": "uint64"
						},
						{
							"internalType": "uint64",
							"name": "cliff",
							"type": "uint64"
						}
					],
					"name": "init",
					"outputs": [],
					"stateMutability": "nonpayable",
					"type": "function"
				},
				{
					"inputs": [],
					"name": "owner",
					"outputs": [
						{
							"internalType": "address",
							"name": "",
							"type": "address"
						}
					],
					"stateMutability": "view",
					"type": "function"
				},
				{
					"inputs": [],
					"name": "releasable",
					"outputs": [
						{
							"internalType": "uint256",
							"name": "",
							"type": "uint256"
						}
					],
					"stateMutability": "view",
					"type": "function"
				},
				{
					"inputs": [],
					"name": "release",
					"outputs": [],
					"stateMutability": "nonpayable",
					"type": "function"
				},
				{
					"inputs": [],
					"name": "released",
					"outputs": [
						{
							"internalType": "uint256",
							"name": "",
							"type": "uint256"
						}
					],
					"stateMutability": "view",
					"type": "function"
				},
				{
					"inputs": [],
					"name": "renounceOwnership",
					"outputs": [],
					"stateMutability": "nonpayable",
					"type": "function"
				},
				{
					"inputs": [],
					"name": "start",
					"outputs": [
						{
							"internalType": "uint256",
							"name": "",
							"type": "uint256"
						}
					],
					"stateMutability": "view",
					"type": "function"
				},
				{
					"inputs": [
						{
							"internalType": "address",
							"name": "newOwner",
							"type": "address"
						}
					],
					"name": "transferOwnership",
					"outputs": [],
					"stateMutability": "nonpayable",
					"type": "function"
				},
				{
					"inputs": [
						{
							"internalType": "uint64",
							"name": "timestamp",
							"type": "uint64"
						}
					],
					"name": "vestedAmount",
					"outputs": [
						{
							"internalType": "uint256",
							"name": "",
							"type": "uint256"
						}
					],
					"stateMutability": "view",
					"type": "function"
				}
			],
			"devdoc": {
				"details": "This contract handles the vesting of Eth and ERC20 tokens for a given beneficiary. Custody of multiple tokens can be given to this contract, which will release the token to the beneficiary following a given vesting schedule. The vesting schedule is customizable through the {vestedAmount} function. Any token transferred to this contract will follow the vesting schedule as if they were locked from the beginning. Consequently, if the vesting has already started, any amount of tokens sent to this contract will (at least partly) be immediately releasable.",
				"kind": "dev",
				"methods": {
					"duration()": {
						"details": "Getter for the vesting duration."
					},
					"init(address,uint64,uint64,uint64)": {
						"details": "Set the beneficiary, start timestamp and vesting duration of the vesting wallet."
					},
					"owner()": {
						"details": "Returns the address of the current owner."
					},
					"releasable()": {
						"details": "Getter for the amount of releasable `token` tokens. `token` should be the address of an IERC20 contract."
					},
					"release()": {
						"details": "Release the tokens that have already vested. Emits a {ERC20Released} event."
					},
					"released()": {
						"details": "Amount of token already released"
					},
					"renounceOwnership()": {
						"details": "Leaves the contract without owner. It will not be possible to call `onlyOwner` functions anymore. Can only be called by the current owner. NOTE: Renouncing ownership will leave the contract without an owner, thereby removing any functionality that is only available to the owner."
					},
					"start()": {
						"details": "Getter for the start timestamp."
					},
					"transferOwnership(address)": {
						"details": "Transfers ownership of the contract to a new account (`newOwner`). Can only be called by the current owner."
					},
					"vestedAmount(uint64)": {
						"details": "Calculates the amount of tokens that has already vested. Default implementation is a linear vesting curve."
					}
				},
				"title": "VestingWallet",
				"version": 1
			},
			"evm": {
				"assembly": "    /* \"contracts/TeamProject_Whitelist.sol\":993:5878  contract TeamWhitelist is Context, Ownable {... */\n  mstore(0x40, 0x80)\n  callvalue\n  dup1\n  iszero\n  tag_1\n  jumpi\n  0x00\n  dup1\n  revert\ntag_1:\n  pop\n    /* \"@openzeppelin/contracts/access/Ownable.sol\":921:953  _transferOwnership(_msgSender()) */\n  tag_4\n    /* \"@openzeppelin/contracts/access/Ownable.sol\":940:952  _msgSender() */\n  tag_5\n    /* \"@openzeppelin/contracts/access/Ownable.sol\":940:950  _msgSender */\n  shl(0x20, tag_6)\n    /* \"@openzeppelin/contracts/access/Ownable.sol\":940:952  _msgSender() */\n  0x20\n  shr\n  jump\t// in\ntag_5:\n    /* \"@openzeppelin/contracts/access/Ownable.sol\":921:939  _transferOwnership */\n  shl(0x20, tag_7)\n    /* \"@openzeppelin/contracts/access/Ownable.sol\":921:953  _transferOwnership(_msgSender()) */\n  0x20\n  shr\n  jump\t// in\ntag_4:\n    /* \"contracts/TeamProject_Whitelist.sol\":993:5878  contract TeamWhitelist is Context, Ownable {... */\n  jump(tag_8)\n    /* \"@openzeppelin/contracts/utils/Context.sol\":640:736  function _msgSender() internal view virtual returns (address) {... */\ntag_6:\n    /* \"@openzeppelin/contracts/utils/Context.sol\":693:700  address */\n  0x00\n    /* \"@openzeppelin/contracts/utils/Context.sol\":719:729  msg.sender */\n  caller\n    /* \"@openzeppelin/contracts/utils/Context.sol\":712:729  return msg.sender */\n  swap1\n  pop\n    /* \"@openzeppelin/contracts/utils/Context.sol\":640:736  function _msgSender() internal view virtual returns (address) {... */\n  swap1\n  jump\t// out\n    /* \"@openzeppelin/contracts/access/Ownable.sol\":2270:2457  function _transferOwnership(address newOwner) internal virtual {... */\ntag_7:\n    /* \"@openzeppelin/contracts/access/Ownable.sol\":2343:2359  address oldOwner */\n  0x00\n    /* \"@openzeppelin/contracts/access/Ownable.sol\":2362:2368  _owner */\n  dup1\n  0x00\n  swap1\n  sload\n  swap1\n  0x0100\n  exp\n  swap1\n  div\n  0xffffffffffffffffffffffffffffffffffffffff\n  and\n    /* \"@openzeppelin/contracts/access/Ownable.sol\":2343:2368  address oldOwner = _owner */\n  swap1\n  pop\n    /* \"@openzeppelin/contracts/access/Ownable.sol\":2387:2395  newOwner */\n  dup2\n    /* \"@openzeppelin/contracts/access/Ownable.sol\":2378:2384  _owner */\n  0x00\n  dup1\n    /* \"@openzeppelin/contracts/access/Ownable.sol\":2378:2395  _owner = newOwner */\n  0x0100\n  exp\n  dup2\n  sload\n  dup2\n  0xffffffffffffffffffffffffffffffffffffffff\n  mul\n  not\n  and\n  swap1\n  dup4\n  0xffffffffffffffffffffffffffffffffffffffff\n  and\n  mul\n  or\n  swap1\n  sstore\n  pop\n    /* \"@openzeppelin/contracts/access/Ownable.sol\":2441:2449  newOwner */\n  dup2\n    /* \"@openzeppelin/contracts/access/Ownable.sol\":2410:2450  OwnershipTransferred(oldOwner, newOwner) */\n  0xffffffffffffffffffffffffffffffffffffffff\n  and\n    /* \"@openzeppelin/contracts/access/Ownable.sol\":2431:2439  oldOwner */\n  dup2\n    /* \"@openzeppelin/contracts/access/Ownable.sol\":2410:2450  OwnershipTransferred(oldOwner, newOwner) */\n  0xffffffffffffffffffffffffffffffffffffffff\n  and\n  0x8be0079c531659141344cd1fd0a4f28419497f9722a3daafe3b4186f6b6457e0\n  mload(0x40)\n  mload(0x40)\n  dup1\n  swap2\n  sub\n  swap1\n  log3\n    /* \"@openzeppelin/contracts/access/Ownable.sol\":2333:2457  {... */\n  pop\n    /* \"@openzeppelin/contracts/access/Ownable.sol\":2270:2457  function _transferOwnership(address newOwner) internal virtual {... */\n  pop\n  jump\t// out\n    /* \"contracts/TeamProject_Whitelist.sol\":993:5878  contract TeamWhitelist is Context, Ownable {... */\ntag_8:\n  dataSize(sub_0)\n  dup1\n  dataOffset(sub_0)\n  0x00\n  codecopy\n  0x00\n  return\nstop\n\nsub_0: assembly {\n        /* \"contracts/TeamProject_Whitelist.sol\":993:5878  contract TeamWhitelist is Context, Ownable {... */\n      mstore(0x40, 0x80)\n      callvalue\n      dup1\n      iszero\n      tag_1\n      jumpi\n      0x00\n      dup1\n      revert\n    tag_1:\n      pop\n      jumpi(tag_2, lt(calldatasize, 0x04))\n      shr(0xe0, calldataload(0x00))\n      dup1\n      0x86d1a69f\n      gt\n      tag_14\n      jumpi\n      dup1\n      0x86d1a69f\n      eq\n      tag_8\n      jumpi\n      dup1\n      0x8da5cb5b\n      eq\n      tag_9\n      jumpi\n      dup1\n      0x96132521\n      eq\n      tag_10\n      jumpi\n      dup1\n      0xbe9a6555\n      eq\n      tag_11\n      jumpi\n      dup1\n      0xf2fde38b\n      eq\n      tag_12\n      jumpi\n      dup1\n      0xfbccedae\n      eq\n      tag_13\n      jumpi\n      jump(tag_2)\n    tag_14:\n      dup1\n      0x0a17b06b\n      eq\n      tag_3\n      jumpi\n      dup1\n      0x0fb5a6b4\n      eq\n      tag_4\n      jumpi\n      dup1\n      0x231815da\n      eq\n      tag_5\n      jumpi\n      dup1\n      0x27c2e722\n      eq\n      tag_6\n      jumpi\n      dup1\n      0x715018a6\n      eq\n      tag_7\n      jumpi\n    tag_2:\n      0x00\n      dup1\n      revert\n        /* \"contracts/TeamProject_Whitelist.sol\":4855:5259  function vestedAmount(uint64 timestamp)... */\n    tag_3:\n      tag_15\n      0x04\n      dup1\n      calldatasize\n      sub\n      dup2\n      add\n      swap1\n      tag_16\n      swap2\n      swap1\n      tag_17\n      jump\t// in\n    tag_16:\n      tag_18\n      jump\t// in\n    tag_15:\n      mload(0x40)\n      tag_19\n      swap2\n      swap1\n      tag_20\n      jump\t// in\n    tag_19:\n      mload(0x40)\n      dup1\n      swap2\n      sub\n      swap1\n      return\n        /* \"contracts/TeamProject_Whitelist.sol\":2426:2519  function duration() public view virtual returns (uint256) {... */\n    tag_4:\n      tag_21\n      tag_22\n      jump\t// in\n    tag_21:\n      mload(0x40)\n      tag_23\n      swap2\n      swap1\n      tag_20\n      jump\t// in\n    tag_23:\n      mload(0x40)\n      dup1\n      swap2\n      sub\n      swap1\n      return\n        /* \"contracts/TeamProject_Whitelist.sol\":1834:2196  function init(... */\n    tag_5:\n      tag_24\n      0x04\n      dup1\n      calldatasize\n      sub\n      dup2\n      add\n      swap1\n      tag_25\n      swap2\n      swap1\n      tag_26\n      jump\t// in\n    tag_25:\n      tag_27\n      jump\t// in\n    tag_24:\n      stop\n        /* \"contracts/TeamProject_Whitelist.sol\":3608:3821  function addMultiVesting(Beneficiary[] calldata users) external onlyOwner {... */\n    tag_6:\n      tag_28\n      0x04\n      dup1\n      calldatasize\n      sub\n      dup2\n      add\n      swap1\n      tag_29\n      swap2\n      swap1\n      tag_30\n      jump\t// in\n    tag_29:\n      tag_31\n      jump\t// in\n    tag_28:\n      stop\n        /* \"@openzeppelin/contracts/access/Ownable.sol\":1668:1769  function renounceOwnership() public virtual onlyOwner {... */\n    tag_7:\n      tag_32\n      tag_33\n      jump\t// in\n    tag_32:\n      stop\n        /* \"contracts/TeamProject_Whitelist.sol\":3952:4399  function release() public virtual {... */\n    tag_8:\n      tag_34\n      tag_35\n      jump\t// in\n    tag_34:\n      stop\n        /* \"@openzeppelin/contracts/access/Ownable.sol\":1036:1121  function owner() public view virtual returns (address) {... */\n    tag_9:\n      tag_36\n      tag_37\n      jump\t// in\n    tag_36:\n      mload(0x40)\n      tag_38\n      swap2\n      swap1\n      tag_39\n      jump\t// in\n    tag_38:\n      mload(0x40)\n      dup1\n      swap2\n      sub\n      swap1\n      return\n        /* \"contracts/TeamProject_Whitelist.sol\":2591:2709  function released() public view virtual returns (uint256) {... */\n    tag_10:\n      tag_40\n      tag_41\n      jump\t// in\n    tag_40:\n      mload(0x40)\n      tag_42\n      swap2\n      swap1\n      tag_20\n      jump\t// in\n    tag_42:\n      mload(0x40)\n      dup1\n      swap2\n      sub\n      swap1\n      return\n        /* \"contracts/TeamProject_Whitelist.sol\":2267:2354  function start() public view virtual returns (uint256) {... */\n    tag_11:\n      tag_43\n      tag_44\n      jump\t// in\n    tag_43:\n      mload(0x40)\n      tag_45\n      swap2\n      swap1\n      tag_20\n      jump\t// in\n    tag_45:\n      mload(0x40)\n      dup1\n      swap2\n      sub\n      swap1\n      return\n        /* \"@openzeppelin/contracts/access/Ownable.sol\":1918:2116  function transferOwnership(address newOwner) public virtual onlyOwner {... */\n    tag_12:\n      tag_46\n      0x04\n      dup1\n      calldatasize\n      sub\n      dup2\n      add\n      swap1\n      tag_47\n      swap2\n      swap1\n      tag_48\n      jump\t// in\n    tag_47:\n      tag_49\n      jump\t// in\n    tag_46:\n      stop\n        /* \"contracts/TeamProject_Whitelist.sol\":2861:2997  function releasable() public view virtual returns (uint256) {... */\n    tag_13:\n      tag_50\n      tag_51\n      jump\t// in\n    tag_50:\n      mload(0x40)\n      tag_52\n      swap2\n      swap1\n      tag_20\n      jump\t// in\n    tag_52:\n      mload(0x40)\n      dup1\n      swap2\n      sub\n      swap1\n      return\n        /* \"contracts/TeamProject_Whitelist.sol\":4855:5259  function vestedAmount(uint64 timestamp)... */\n    tag_18:\n        /* \"contracts/TeamProject_Whitelist.sol\":4960:4967  uint256 */\n      0x00\n        /* \"contracts/TeamProject_Whitelist.sol\":5185:5251  _vestingSchedule(_beneficiary[msg.sender] + released(), timestamp) */\n      tag_54\n        /* \"contracts/TeamProject_Whitelist.sol\":5229:5239  released() */\n      tag_55\n        /* \"contracts/TeamProject_Whitelist.sol\":5229:5237  released */\n      tag_41\n        /* \"contracts/TeamProject_Whitelist.sol\":5229:5239  released() */\n      jump\t// in\n    tag_55:\n        /* \"contracts/TeamProject_Whitelist.sol\":5202:5214  _beneficiary */\n      0x03\n        /* \"contracts/TeamProject_Whitelist.sol\":5202:5226  _beneficiary[msg.sender] */\n      0x00\n        /* \"contracts/TeamProject_Whitelist.sol\":5215:5225  msg.sender */\n      caller\n        /* \"contracts/TeamProject_Whitelist.sol\":5202:5226  _beneficiary[msg.sender] */\n      0xffffffffffffffffffffffffffffffffffffffff\n      and\n      0xffffffffffffffffffffffffffffffffffffffff\n      and\n      dup2\n      mstore\n      0x20\n      add\n      swap1\n      dup2\n      mstore\n      0x20\n      add\n      0x00\n      keccak256\n      sload\n        /* \"contracts/TeamProject_Whitelist.sol\":5202:5239  _beneficiary[msg.sender] + released() */\n      tag_56\n      swap2\n      swap1\n      tag_57\n      jump\t// in\n    tag_56:\n        /* \"contracts/TeamProject_Whitelist.sol\":5241:5250  timestamp */\n      dup4\n        /* \"contracts/TeamProject_Whitelist.sol\":5185:5201  _vestingSchedule */\n      tag_58\n        /* \"contracts/TeamProject_Whitelist.sol\":5185:5251  _vestingSchedule(_beneficiary[msg.sender] + released(), timestamp) */\n      jump\t// in\n    tag_54:\n        /* \"contracts/TeamProject_Whitelist.sol\":5165:5251  return... */\n      swap1\n      pop\n        /* \"contracts/TeamProject_Whitelist.sol\":4855:5259  function vestedAmount(uint64 timestamp)... */\n      swap2\n      swap1\n      pop\n      jump\t// out\n        /* \"contracts/TeamProject_Whitelist.sol\":2426:2519  function duration() public view virtual returns (uint256) {... */\n    tag_22:\n        /* \"contracts/TeamProject_Whitelist.sol\":2475:2482  uint256 */\n      0x00\n        /* \"contracts/TeamProject_Whitelist.sol\":2502:2511  _duration */\n      0x04\n      0x08\n      swap1\n      sload\n      swap1\n      0x0100\n      exp\n      swap1\n      div\n      0xffffffffffffffff\n      and\n        /* \"contracts/TeamProject_Whitelist.sol\":2495:2511  return _duration */\n      0xffffffffffffffff\n      and\n      swap1\n      pop\n        /* \"contracts/TeamProject_Whitelist.sol\":2426:2519  function duration() public view virtual returns (uint256) {... */\n      swap1\n      jump\t// out\n        /* \"contracts/TeamProject_Whitelist.sol\":1834:2196  function init(... */\n    tag_27:\n        /* \"contracts/TeamProject_Whitelist.sol\":2010:2015  false */\n      0x00\n        /* \"contracts/TeamProject_Whitelist.sol\":1995:2015  _initStatus == false */\n      iszero\n      iszero\n        /* \"contracts/TeamProject_Whitelist.sol\":1995:2006  _initStatus */\n      0x06\n      0x00\n      swap1\n      sload\n      swap1\n      0x0100\n      exp\n      swap1\n      div\n      0xff\n      and\n        /* \"contracts/TeamProject_Whitelist.sol\":1995:2015  _initStatus == false */\n      iszero\n      iszero\n      eq\n        /* \"contracts/TeamProject_Whitelist.sol\":1987:2029  require(_initStatus == false, \"Initiated\") */\n      tag_61\n      jumpi\n      mload(0x40)\n      0x08c379a000000000000000000000000000000000000000000000000000000000\n      dup2\n      mstore\n      0x04\n      add\n      tag_62\n      swap1\n      tag_63\n      jump\t// in\n    tag_62:\n      mload(0x40)\n      dup1\n      swap2\n      sub\n      swap1\n      revert\n    tag_61:\n        /* \"contracts/TeamProject_Whitelist.sol\":2054:2058  true */\n      0x01\n        /* \"contracts/TeamProject_Whitelist.sol\":2040:2051  _initStatus */\n      0x06\n      0x00\n        /* \"contracts/TeamProject_Whitelist.sol\":2040:2058  _initStatus = true */\n      0x0100\n      exp\n      dup2\n      sload\n      dup2\n      0xff\n      mul\n      not\n      and\n      swap1\n      dup4\n      iszero\n      iszero\n      mul\n      or\n      swap1\n      sstore\n      pop\n        /* \"contracts/TeamProject_Whitelist.sol\":2078:2083  token */\n      dup4\n        /* \"contracts/TeamProject_Whitelist.sol\":2069:2075  _token */\n      0x01\n      0x00\n        /* \"contracts/TeamProject_Whitelist.sol\":2069:2083  _token = token */\n      0x0100\n      exp\n      dup2\n      sload\n      dup2\n      0xffffffffffffffffffffffffffffffffffffffff\n      mul\n      not\n      and\n      swap1\n      dup4\n      0xffffffffffffffffffffffffffffffffffffffff\n      and\n      mul\n      or\n      swap1\n      sstore\n      pop\n        /* \"contracts/TeamProject_Whitelist.sol\":2120:2125  cliff */\n      dup1\n        /* \"contracts/TeamProject_Whitelist.sol\":2103:2117  startTimestamp */\n      dup4\n        /* \"contracts/TeamProject_Whitelist.sol\":2103:2125  startTimestamp + cliff */\n      tag_64\n      swap2\n      swap1\n      tag_65\n      jump\t// in\n    tag_64:\n        /* \"contracts/TeamProject_Whitelist.sol\":2094:2100  _start */\n      0x04\n      0x00\n        /* \"contracts/TeamProject_Whitelist.sol\":2094:2125  _start = startTimestamp + cliff */\n      0x0100\n      exp\n      dup2\n      sload\n      dup2\n      0xffffffffffffffff\n      mul\n      not\n      and\n      swap1\n      dup4\n      0xffffffffffffffff\n      and\n      mul\n      or\n      swap1\n      sstore\n      pop\n        /* \"contracts/TeamProject_Whitelist.sol\":2148:2163  durationSeconds */\n      dup2\n        /* \"contracts/TeamProject_Whitelist.sol\":2136:2145  _duration */\n      0x04\n      0x08\n        /* \"contracts/TeamProject_Whitelist.sol\":2136:2163  _duration = durationSeconds */\n      0x0100\n      exp\n      dup2\n      sload\n      dup2\n      0xffffffffffffffff\n      mul\n      not\n      and\n      swap1\n      dup4\n      0xffffffffffffffff\n      and\n      mul\n      or\n      swap1\n      sstore\n      pop\n        /* \"contracts/TeamProject_Whitelist.sol\":2183:2188  cliff */\n      dup1\n        /* \"contracts/TeamProject_Whitelist.sol\":2174:2180  _cliff */\n      0x04\n      0x10\n        /* \"contracts/TeamProject_Whitelist.sol\":2174:2188  _cliff = cliff */\n      0x0100\n      exp\n      dup2\n      sload\n      dup2\n      0xffffffffffffffff\n      mul\n      not\n      and\n      swap1\n      dup4\n      0xffffffffffffffff\n      and\n      mul\n      or\n      swap1\n      sstore\n      pop\n        /* \"contracts/TeamProject_Whitelist.sol\":1834:2196  function init(... */\n      pop\n      pop\n      pop\n      pop\n      jump\t// out\n        /* \"contracts/TeamProject_Whitelist.sol\":3608:3821  function addMultiVesting(Beneficiary[] calldata users) external onlyOwner {... */\n    tag_31:\n        /* \"@openzeppelin/contracts/access/Ownable.sol\":1259:1271  _msgSender() */\n      tag_67\n        /* \"@openzeppelin/contracts/access/Ownable.sol\":1259:1269  _msgSender */\n      tag_68\n        /* \"@openzeppelin/contracts/access/Ownable.sol\":1259:1271  _msgSender() */\n      jump\t// in\n    tag_67:\n        /* \"@openzeppelin/contracts/access/Ownable.sol\":1248:1271  owner() == _msgSender() */\n      0xffffffffffffffffffffffffffffffffffffffff\n      and\n        /* \"@openzeppelin/contracts/access/Ownable.sol\":1248:1255  owner() */\n      tag_69\n        /* \"@openzeppelin/contracts/access/Ownable.sol\":1248:1253  owner */\n      tag_37\n        /* \"@openzeppelin/contracts/access/Ownable.sol\":1248:1255  owner() */\n      jump\t// in\n    tag_69:\n        /* \"@openzeppelin/contracts/access/Ownable.sol\":1248:1271  owner() == _msgSender() */\n      0xffffffffffffffffffffffffffffffffffffffff\n      and\n      eq\n        /* \"@openzeppelin/contracts/access/Ownable.sol\":1240:1308  require(owner() == _msgSender(), \"Ownable: caller is not the owner\") */\n      tag_70\n      jumpi\n      mload(0x40)\n      0x08c379a000000000000000000000000000000000000000000000000000000000\n      dup2\n      mstore\n      0x04\n      add\n      tag_71\n      swap1\n      tag_72\n      jump\t// in\n    tag_71:\n      mload(0x40)\n      dup1\n      swap2\n      sub\n      swap1\n      revert\n    tag_70:\n        /* \"contracts/TeamProject_Whitelist.sol\":3698:3707  uint256 i */\n      0x00\n        /* \"contracts/TeamProject_Whitelist.sol\":3693:3814  for (uint256 i = 0; i < users.length; i = _unsafeInc(i)) {... */\n    tag_74:\n        /* \"contracts/TeamProject_Whitelist.sol\":3717:3722  users */\n      dup3\n      dup3\n        /* \"contracts/TeamProject_Whitelist.sol\":3717:3729  users.length */\n      swap1\n      pop\n        /* \"contracts/TeamProject_Whitelist.sol\":3713:3714  i */\n      dup2\n        /* \"contracts/TeamProject_Whitelist.sol\":3713:3729  i < users.length */\n      lt\n        /* \"contracts/TeamProject_Whitelist.sol\":3693:3814  for (uint256 i = 0; i < users.length; i = _unsafeInc(i)) {... */\n      iszero\n      tag_75\n      jumpi\n        /* \"contracts/TeamProject_Whitelist.sol\":3765:3802  _vest(users[i].user, users[i].amount) */\n      tag_77\n        /* \"contracts/TeamProject_Whitelist.sol\":3771:3776  users */\n      dup4\n      dup4\n        /* \"contracts/TeamProject_Whitelist.sol\":3777:3778  i */\n      dup4\n        /* \"contracts/TeamProject_Whitelist.sol\":3771:3779  users[i] */\n      dup2\n      dup2\n      lt\n      tag_78\n      jumpi\n      tag_79\n      tag_80\n      jump\t// in\n    tag_79:\n    tag_78:\n      swap1\n      pop\n      0x40\n      mul\n      add\n        /* \"contracts/TeamProject_Whitelist.sol\":3771:3784  users[i].user */\n      0x00\n      add\n      0x20\n      dup2\n      add\n      swap1\n      tag_81\n      swap2\n      swap1\n      tag_48\n      jump\t// in\n    tag_81:\n        /* \"contracts/TeamProject_Whitelist.sol\":3786:3791  users */\n      dup5\n      dup5\n        /* \"contracts/TeamProject_Whitelist.sol\":3792:3793  i */\n      dup5\n        /* \"contracts/TeamProject_Whitelist.sol\":3786:3794  users[i] */\n      dup2\n      dup2\n      lt\n      tag_82\n      jumpi\n      tag_83\n      tag_80\n      jump\t// in\n    tag_83:\n    tag_82:\n      swap1\n      pop\n      0x40\n      mul\n      add\n        /* \"contracts/TeamProject_Whitelist.sol\":3786:3801  users[i].amount */\n      0x20\n      add\n      calldataload\n        /* \"contracts/TeamProject_Whitelist.sol\":3765:3770  _vest */\n      tag_84\n        /* \"contracts/TeamProject_Whitelist.sol\":3765:3802  _vest(users[i].user, users[i].amount) */\n      jump\t// in\n    tag_77:\n        /* \"contracts/TeamProject_Whitelist.sol\":3735:3748  _unsafeInc(i) */\n      tag_85\n        /* \"contracts/TeamProject_Whitelist.sol\":3746:3747  i */\n      dup2\n        /* \"contracts/TeamProject_Whitelist.sol\":3735:3745  _unsafeInc */\n      tag_86\n        /* \"contracts/TeamProject_Whitelist.sol\":3735:3748  _unsafeInc(i) */\n      jump\t// in\n    tag_85:\n        /* \"contracts/TeamProject_Whitelist.sol\":3731:3748  i = _unsafeInc(i) */\n      swap1\n      pop\n        /* \"contracts/TeamProject_Whitelist.sol\":3693:3814  for (uint256 i = 0; i < users.length; i = _unsafeInc(i)) {... */\n      jump(tag_74)\n    tag_75:\n      pop\n        /* \"contracts/TeamProject_Whitelist.sol\":3608:3821  function addMultiVesting(Beneficiary[] calldata users) external onlyOwner {... */\n      pop\n      pop\n      jump\t// out\n        /* \"@openzeppelin/contracts/access/Ownable.sol\":1668:1769  function renounceOwnership() public virtual onlyOwner {... */\n    tag_33:\n        /* \"@openzeppelin/contracts/access/Ownable.sol\":1259:1271  _msgSender() */\n      tag_88\n        /* \"@openzeppelin/contracts/access/Ownable.sol\":1259:1269  _msgSender */\n      tag_68\n        /* \"@openzeppelin/contracts/access/Ownable.sol\":1259:1271  _msgSender() */\n      jump\t// in\n    tag_88:\n        /* \"@openzeppelin/contracts/access/Ownable.sol\":1248:1271  owner() == _msgSender() */\n      0xffffffffffffffffffffffffffffffffffffffff\n      and\n        /* \"@openzeppelin/contracts/access/Ownable.sol\":1248:1255  owner() */\n      tag_89\n        /* \"@openzeppelin/contracts/access/Ownable.sol\":1248:1253  owner */\n      tag_37\n        /* \"@openzeppelin/contracts/access/Ownable.sol\":1248:1255  owner() */\n      jump\t// in\n    tag_89:\n        /* \"@openzeppelin/contracts/access/Ownable.sol\":1248:1271  owner() == _msgSender() */\n      0xffffffffffffffffffffffffffffffffffffffff\n      and\n      eq\n        /* \"@openzeppelin/contracts/access/Ownable.sol\":1240:1308  require(owner() == _msgSender(), \"Ownable: caller is not the owner\") */\n      tag_90\n      jumpi\n      mload(0x40)\n      0x08c379a000000000000000000000000000000000000000000000000000000000\n      dup2\n      mstore\n      0x04\n      add\n      tag_91\n      swap1\n      tag_72\n      jump\t// in\n    tag_91:\n      mload(0x40)\n      dup1\n      swap2\n      sub\n      swap1\n      revert\n    tag_90:\n        /* \"@openzeppelin/contracts/access/Ownable.sol\":1732:1762  _transferOwnership(address(0)) */\n      tag_93\n        /* \"@openzeppelin/contracts/access/Ownable.sol\":1759:1760  0 */\n      0x00\n        /* \"@openzeppelin/contracts/access/Ownable.sol\":1732:1750  _transferOwnership */\n      tag_94\n        /* \"@openzeppelin/contracts/access/Ownable.sol\":1732:1762  _transferOwnership(address(0)) */\n      jump\t// in\n    tag_93:\n        /* \"@openzeppelin/contracts/access/Ownable.sol\":1668:1769  function renounceOwnership() public virtual onlyOwner {... */\n      jump\t// out\n        /* \"contracts/TeamProject_Whitelist.sol\":3952:4399  function release() public virtual {... */\n    tag_35:\n        /* \"contracts/TeamProject_Whitelist.sol\":3997:4011  uint256 amount */\n      0x00\n        /* \"contracts/TeamProject_Whitelist.sol\":4014:4026  releasable() */\n      tag_96\n        /* \"contracts/TeamProject_Whitelist.sol\":4014:4024  releasable */\n      tag_51\n        /* \"contracts/TeamProject_Whitelist.sol\":4014:4026  releasable() */\n      jump\t// in\n    tag_96:\n        /* \"contracts/TeamProject_Whitelist.sol\":3997:4026  uint256 amount = releasable() */\n      swap1\n      pop\n        /* \"contracts/TeamProject_Whitelist.sol\":4059:4069  _lastMonth */\n      0x05\n        /* \"contracts/TeamProject_Whitelist.sol\":4059:4081  _lastMonth[msg.sender] */\n      0x00\n        /* \"contracts/TeamProject_Whitelist.sol\":4070:4080  msg.sender */\n      caller\n        /* \"contracts/TeamProject_Whitelist.sol\":4059:4081  _lastMonth[msg.sender] */\n      0xffffffffffffffffffffffffffffffffffffffff\n      and\n      0xffffffffffffffffffffffffffffffffffffffff\n      and\n      dup2\n      mstore\n      0x20\n      add\n      swap1\n      dup2\n      mstore\n      0x20\n      add\n      0x00\n      keccak256\n      sload\n        /* \"contracts/TeamProject_Whitelist.sol\":4041:4056  _currentMonth() */\n      tag_97\n        /* \"contracts/TeamProject_Whitelist.sol\":4041:4054  _currentMonth */\n      tag_98\n        /* \"contracts/TeamProject_Whitelist.sol\":4041:4056  _currentMonth() */\n      jump\t// in\n    tag_97:\n        /* \"contracts/TeamProject_Whitelist.sol\":4041:4081  _currentMonth() > _lastMonth[msg.sender] */\n      gt\n        /* \"contracts/TeamProject_Whitelist.sol\":4037:4392  if (_currentMonth() > _lastMonth[msg.sender]) {... */\n      iszero\n      tag_99\n      jumpi\n        /* \"contracts/TeamProject_Whitelist.sol\":4123:4138  _currentMonth() */\n      tag_100\n        /* \"contracts/TeamProject_Whitelist.sol\":4123:4136  _currentMonth */\n      tag_98\n        /* \"contracts/TeamProject_Whitelist.sol\":4123:4138  _currentMonth() */\n      jump\t// in\n    tag_100:\n        /* \"contracts/TeamProject_Whitelist.sol\":4098:4108  _lastMonth */\n      0x05\n        /* \"contracts/TeamProject_Whitelist.sol\":4098:4120  _lastMonth[msg.sender] */\n      0x00\n        /* \"contracts/TeamProject_Whitelist.sol\":4109:4119  msg.sender */\n      caller\n        /* \"contracts/TeamProject_Whitelist.sol\":4098:4120  _lastMonth[msg.sender] */\n      0xffffffffffffffffffffffffffffffffffffffff\n      and\n      0xffffffffffffffffffffffffffffffffffffffff\n      and\n      dup2\n      mstore\n      0x20\n      add\n      swap1\n      dup2\n      mstore\n      0x20\n      add\n      0x00\n      keccak256\n        /* \"contracts/TeamProject_Whitelist.sol\":4098:4138  _lastMonth[msg.sender] = _currentMonth() */\n      dup2\n      swap1\n      sstore\n      pop\n        /* \"contracts/TeamProject_Whitelist.sol\":4181:4187  amount */\n      dup1\n        /* \"contracts/TeamProject_Whitelist.sol\":4153:4165  _beneficiary */\n      0x03\n        /* \"contracts/TeamProject_Whitelist.sol\":4153:4177  _beneficiary[msg.sender] */\n      0x00\n        /* \"contracts/TeamProject_Whitelist.sol\":4166:4176  msg.sender */\n      caller\n        /* \"contracts/TeamProject_Whitelist.sol\":4153:4177  _beneficiary[msg.sender] */\n      0xffffffffffffffffffffffffffffffffffffffff\n      and\n      0xffffffffffffffffffffffffffffffffffffffff\n      and\n      dup2\n      mstore\n      0x20\n      add\n      swap1\n      dup2\n      mstore\n      0x20\n      add\n      0x00\n      keccak256\n      0x00\n        /* \"contracts/TeamProject_Whitelist.sol\":4153:4187  _beneficiary[msg.sender] -= amount */\n      dup3\n      dup3\n      sload\n      tag_101\n      swap2\n      swap1\n      tag_102\n      jump\t// in\n    tag_101:\n      swap3\n      pop\n      pop\n      dup2\n      swap1\n      sstore\n      pop\n        /* \"contracts/TeamProject_Whitelist.sol\":4240:4246  amount */\n      dup1\n        /* \"contracts/TeamProject_Whitelist.sol\":4202:4216  _erc20Released */\n      0x02\n        /* \"contracts/TeamProject_Whitelist.sol\":4202:4224  _erc20Released[_token] */\n      0x00\n        /* \"contracts/TeamProject_Whitelist.sol\":4217:4223  _token */\n      0x01\n      0x00\n      swap1\n      sload\n      swap1\n      0x0100\n      exp\n      swap1\n      div\n      0xffffffffffffffffffffffffffffffffffffffff\n      and\n        /* \"contracts/TeamProject_Whitelist.sol\":4202:4224  _erc20Released[_token] */\n      0xffffffffffffffffffffffffffffffffffffffff\n      and\n      0xffffffffffffffffffffffffffffffffffffffff\n      and\n      dup2\n      mstore\n      0x20\n      add\n      swap1\n      dup2\n      mstore\n      0x20\n      add\n      0x00\n      keccak256\n        /* \"contracts/TeamProject_Whitelist.sol\":4202:4236  _erc20Released[_token][msg.sender] */\n      0x00\n        /* \"contracts/TeamProject_Whitelist.sol\":4225:4235  msg.sender */\n      caller\n        /* \"contracts/TeamProject_Whitelist.sol\":4202:4236  _erc20Released[_token][msg.sender] */\n      0xffffffffffffffffffffffffffffffffffffffff\n      and\n      0xffffffffffffffffffffffffffffffffffffffff\n      and\n      dup2\n      mstore\n      0x20\n      add\n      swap1\n      dup2\n      mstore\n      0x20\n      add\n      0x00\n      keccak256\n      0x00\n        /* \"contracts/TeamProject_Whitelist.sol\":4202:4246  _erc20Released[_token][msg.sender] += amount */\n      dup3\n      dup3\n      sload\n      tag_103\n      swap2\n      swap1\n      tag_57\n      jump\t// in\n    tag_103:\n      swap3\n      pop\n      pop\n      dup2\n      swap1\n      sstore\n      pop\n        /* \"contracts/TeamProject_Whitelist.sol\":4288:4298  msg.sender */\n      caller\n        /* \"contracts/TeamProject_Whitelist.sol\":4266:4307  ERC20Released(_token, msg.sender, amount) */\n      0xffffffffffffffffffffffffffffffffffffffff\n      and\n        /* \"contracts/TeamProject_Whitelist.sol\":4280:4286  _token */\n      0x01\n      0x00\n      swap1\n      sload\n      swap1\n      0x0100\n      exp\n      swap1\n      div\n      0xffffffffffffffffffffffffffffffffffffffff\n      and\n        /* \"contracts/TeamProject_Whitelist.sol\":4266:4307  ERC20Released(_token, msg.sender, amount) */\n      0xffffffffffffffffffffffffffffffffffffffff\n      and\n      0x1998e30db89daf293a52c4fc4c4470cd506aafc3f9683e8e5daddad80cd6f4a4\n        /* \"contracts/TeamProject_Whitelist.sol\":4300:4306  amount */\n      dup4\n        /* \"contracts/TeamProject_Whitelist.sol\":4266:4307  ERC20Released(_token, msg.sender, amount) */\n      mload(0x40)\n      tag_104\n      swap2\n      swap1\n      tag_20\n      jump\t// in\n    tag_104:\n      mload(0x40)\n      dup1\n      swap2\n      sub\n      swap1\n      log3\n        /* \"contracts/TeamProject_Whitelist.sol\":4322:4380  SafeERC20.safeTransfer(IERC20(_token), msg.sender, amount) */\n      tag_105\n        /* \"contracts/TeamProject_Whitelist.sol\":4352:4358  _token */\n      0x01\n      0x00\n      swap1\n      sload\n      swap1\n      0x0100\n      exp\n      swap1\n      div\n      0xffffffffffffffffffffffffffffffffffffffff\n      and\n        /* \"contracts/TeamProject_Whitelist.sol\":4361:4371  msg.sender */\n      caller\n        /* \"contracts/TeamProject_Whitelist.sol\":4373:4379  amount */\n      dup4\n        /* \"contracts/TeamProject_Whitelist.sol\":4322:4344  SafeERC20.safeTransfer */\n      tag_106\n        /* \"contracts/TeamProject_Whitelist.sol\":4322:4380  SafeERC20.safeTransfer(IERC20(_token), msg.sender, amount) */\n      jump\t// in\n    tag_105:\n        /* \"contracts/TeamProject_Whitelist.sol\":4037:4392  if (_currentMonth() > _lastMonth[msg.sender]) {... */\n    tag_99:\n        /* \"contracts/TeamProject_Whitelist.sol\":3986:4399  {... */\n      pop\n        /* \"contracts/TeamProject_Whitelist.sol\":3952:4399  function release() public virtual {... */\n      jump\t// out\n        /* \"@openzeppelin/contracts/access/Ownable.sol\":1036:1121  function owner() public view virtual returns (address) {... */\n    tag_37:\n        /* \"@openzeppelin/contracts/access/Ownable.sol\":1082:1089  address */\n      0x00\n        /* \"@openzeppelin/contracts/access/Ownable.sol\":1108:1114  _owner */\n      dup1\n      0x00\n      swap1\n      sload\n      swap1\n      0x0100\n      exp\n      swap1\n      div\n      0xffffffffffffffffffffffffffffffffffffffff\n      and\n        /* \"@openzeppelin/contracts/access/Ownable.sol\":1101:1114  return _owner */\n      swap1\n      pop\n        /* \"@openzeppelin/contracts/access/Ownable.sol\":1036:1121  function owner() public view virtual returns (address) {... */\n      swap1\n      jump\t// out\n        /* \"contracts/TeamProject_Whitelist.sol\":2591:2709  function released() public view virtual returns (uint256) {... */\n    tag_41:\n        /* \"contracts/TeamProject_Whitelist.sol\":2640:2647  uint256 */\n      0x00\n        /* \"contracts/TeamProject_Whitelist.sol\":2667:2681  _erc20Released */\n      0x02\n        /* \"contracts/TeamProject_Whitelist.sol\":2667:2689  _erc20Released[_token] */\n      0x00\n        /* \"contracts/TeamProject_Whitelist.sol\":2682:2688  _token */\n      0x01\n      0x00\n      swap1\n      sload\n      swap1\n      0x0100\n      exp\n      swap1\n      div\n      0xffffffffffffffffffffffffffffffffffffffff\n      and\n        /* \"contracts/TeamProject_Whitelist.sol\":2667:2689  _erc20Released[_token] */\n      0xffffffffffffffffffffffffffffffffffffffff\n      and\n      0xffffffffffffffffffffffffffffffffffffffff\n      and\n      dup2\n      mstore\n      0x20\n      add\n      swap1\n      dup2\n      mstore\n      0x20\n      add\n      0x00\n      keccak256\n        /* \"contracts/TeamProject_Whitelist.sol\":2667:2701  _erc20Released[_token][msg.sender] */\n      0x00\n        /* \"contracts/TeamProject_Whitelist.sol\":2690:2700  msg.sender */\n      caller\n        /* \"contracts/TeamProject_Whitelist.sol\":2667:2701  _erc20Released[_token][msg.sender] */\n      0xffffffffffffffffffffffffffffffffffffffff\n      and\n      0xffffffffffffffffffffffffffffffffffffffff\n      and\n      dup2\n      mstore\n      0x20\n      add\n      swap1\n      dup2\n      mstore\n      0x20\n      add\n      0x00\n      keccak256\n      sload\n        /* \"contracts/TeamProject_Whitelist.sol\":2660:2701  return _erc20Released[_token][msg.sender] */\n      swap1\n      pop\n        /* \"contracts/TeamProject_Whitelist.sol\":2591:2709  function released() public view virtual returns (uint256) {... */\n      swap1\n      jump\t// out\n        /* \"contracts/TeamProject_Whitelist.sol\":2267:2354  function start() public view virtual returns (uint256) {... */\n    tag_44:\n        /* \"contracts/TeamProject_Whitelist.sol\":2313:2320  uint256 */\n      0x00\n        /* \"contracts/TeamProject_Whitelist.sol\":2340:2346  _start */\n      0x04\n      0x00\n      swap1\n      sload\n      swap1\n      0x0100\n      exp\n      swap1\n      div\n      0xffffffffffffffff\n      and\n        /* \"contracts/TeamProject_Whitelist.sol\":2333:2346  return _start */\n      0xffffffffffffffff\n      and\n      swap1\n      pop\n        /* \"contracts/TeamProject_Whitelist.sol\":2267:2354  function start() public view virtual returns (uint256) {... */\n      swap1\n      jump\t// out\n        /* \"@openzeppelin/contracts/access/Ownable.sol\":1918:2116  function transferOwnership(address newOwner) public virtual onlyOwner {... */\n    tag_49:\n        /* \"@openzeppelin/contracts/access/Ownable.sol\":1259:1271  _msgSender() */\n      tag_111\n        /* \"@openzeppelin/contracts/access/Ownable.sol\":1259:1269  _msgSender */\n      tag_68\n        /* \"@openzeppelin/contracts/access/Ownable.sol\":1259:1271  _msgSender() */\n      jump\t// in\n    tag_111:\n        /* \"@openzeppelin/contracts/access/Ownable.sol\":1248:1271  owner() == _msgSender() */\n      0xffffffffffffffffffffffffffffffffffffffff\n      and\n        /* \"@openzeppelin/contracts/access/Ownable.sol\":1248:1255  owner() */\n      tag_112\n        /* \"@openzeppelin/contracts/access/Ownable.sol\":1248:1253  owner */\n      tag_37\n        /* \"@openzeppelin/contracts/access/Ownable.sol\":1248:1255  owner() */\n      jump\t// in\n    tag_112:\n        /* \"@openzeppelin/contracts/access/Ownable.sol\":1248:1271  owner() == _msgSender() */\n      0xffffffffffffffffffffffffffffffffffffffff\n      and\n      eq\n        /* \"@openzeppelin/contracts/access/Ownable.sol\":1240:1308  require(owner() == _msgSender(), \"Ownable: caller is not the owner\") */\n      tag_113\n      jumpi\n      mload(0x40)\n      0x08c379a000000000000000000000000000000000000000000000000000000000\n      dup2\n      mstore\n      0x04\n      add\n      tag_114\n      swap1\n      tag_72\n      jump\t// in\n    tag_114:\n      mload(0x40)\n      dup1\n      swap2\n      sub\n      swap1\n      revert\n    tag_113:\n        /* \"@openzeppelin/contracts/access/Ownable.sol\":2026:2027  0 */\n      0x00\n        /* \"@openzeppelin/contracts/access/Ownable.sol\":2006:2028  newOwner != address(0) */\n      0xffffffffffffffffffffffffffffffffffffffff\n      and\n        /* \"@openzeppelin/contracts/access/Ownable.sol\":2006:2014  newOwner */\n      dup2\n        /* \"@openzeppelin/contracts/access/Ownable.sol\":2006:2028  newOwner != address(0) */\n      0xffffffffffffffffffffffffffffffffffffffff\n      and\n      eq\n      iszero\n        /* \"@openzeppelin/contracts/access/Ownable.sol\":1998:2071  require(newOwner != address(0), \"Ownable: new owner is the zero address\") */\n      tag_116\n      jumpi\n      mload(0x40)\n      0x08c379a000000000000000000000000000000000000000000000000000000000\n      dup2\n      mstore\n      0x04\n      add\n      tag_117\n      swap1\n      tag_118\n      jump\t// in\n    tag_117:\n      mload(0x40)\n      dup1\n      swap2\n      sub\n      swap1\n      revert\n    tag_116:\n        /* \"@openzeppelin/contracts/access/Ownable.sol\":2081:2109  _transferOwnership(newOwner) */\n      tag_119\n        /* \"@openzeppelin/contracts/access/Ownable.sol\":2100:2108  newOwner */\n      dup2\n        /* \"@openzeppelin/contracts/access/Ownable.sol\":2081:2099  _transferOwnership */\n      tag_94\n        /* \"@openzeppelin/contracts/access/Ownable.sol\":2081:2109  _transferOwnership(newOwner) */\n      jump\t// in\n    tag_119:\n        /* \"@openzeppelin/contracts/access/Ownable.sol\":1918:2116  function transferOwnership(address newOwner) public virtual onlyOwner {... */\n      pop\n      jump\t// out\n        /* \"contracts/TeamProject_Whitelist.sol\":2861:2997  function releasable() public view virtual returns (uint256) {... */\n    tag_51:\n        /* \"contracts/TeamProject_Whitelist.sol\":2912:2919  uint256 */\n      0x00\n        /* \"contracts/TeamProject_Whitelist.sol\":2979:2989  released() */\n      tag_121\n        /* \"contracts/TeamProject_Whitelist.sol\":2979:2987  released */\n      tag_41\n        /* \"contracts/TeamProject_Whitelist.sol\":2979:2989  released() */\n      jump\t// in\n    tag_121:\n        /* \"contracts/TeamProject_Whitelist.sol\":2939:2976  vestedAmount(uint64(block.timestamp)) */\n      tag_122\n        /* \"contracts/TeamProject_Whitelist.sol\":2959:2974  block.timestamp */\n      timestamp\n        /* \"contracts/TeamProject_Whitelist.sol\":2939:2951  vestedAmount */\n      tag_18\n        /* \"contracts/TeamProject_Whitelist.sol\":2939:2976  vestedAmount(uint64(block.timestamp)) */\n      jump\t// in\n    tag_122:\n        /* \"contracts/TeamProject_Whitelist.sol\":2939:2989  vestedAmount(uint64(block.timestamp)) - released() */\n      tag_123\n      swap2\n      swap1\n      tag_102\n      jump\t// in\n    tag_123:\n        /* \"contracts/TeamProject_Whitelist.sol\":2932:2989  return vestedAmount(uint64(block.timestamp)) - released() */\n      swap1\n      pop\n        /* \"contracts/TeamProject_Whitelist.sol\":2861:2997  function releasable() public view virtual returns (uint256) {... */\n      swap1\n      jump\t// out\n        /* \"contracts/TeamProject_Whitelist.sol\":5460:5875  function _vestingSchedule(uint256 totalAllocation, uint64 timestamp)... */\n    tag_58:\n        /* \"contracts/TeamProject_Whitelist.sol\":5596:5603  uint256 */\n      0x00\n        /* \"contracts/TeamProject_Whitelist.sol\":5637:5644  start() */\n      tag_125\n        /* \"contracts/TeamProject_Whitelist.sol\":5637:5642  start */\n      tag_44\n        /* \"contracts/TeamProject_Whitelist.sol\":5637:5644  start() */\n      jump\t// in\n    tag_125:\n        /* \"contracts/TeamProject_Whitelist.sol\":5625:5634  timestamp */\n      dup3\n        /* \"contracts/TeamProject_Whitelist.sol\":5625:5644  timestamp < start() */\n      0xffffffffffffffff\n      and\n      lt\n        /* \"contracts/TeamProject_Whitelist.sol\":5621:5868  if (timestamp < start()) {... */\n      iszero\n      tag_126\n      jumpi\n        /* \"contracts/TeamProject_Whitelist.sol\":5668:5669  0 */\n      0x00\n        /* \"contracts/TeamProject_Whitelist.sol\":5661:5669  return 0 */\n      swap1\n      pop\n      jump(tag_124)\n        /* \"contracts/TeamProject_Whitelist.sol\":5621:5868  if (timestamp < start()) {... */\n    tag_126:\n        /* \"contracts/TeamProject_Whitelist.sol\":5713:5723  duration() */\n      tag_128\n        /* \"contracts/TeamProject_Whitelist.sol\":5713:5721  duration */\n      tag_22\n        /* \"contracts/TeamProject_Whitelist.sol\":5713:5723  duration() */\n      jump\t// in\n    tag_128:\n        /* \"contracts/TeamProject_Whitelist.sol\":5703:5710  start() */\n      tag_129\n        /* \"contracts/TeamProject_Whitelist.sol\":5703:5708  start */\n      tag_44\n        /* \"contracts/TeamProject_Whitelist.sol\":5703:5710  start() */\n      jump\t// in\n    tag_129:\n        /* \"contracts/TeamProject_Whitelist.sol\":5703:5723  start() + duration() */\n      tag_130\n      swap2\n      swap1\n      tag_57\n      jump\t// in\n    tag_130:\n        /* \"contracts/TeamProject_Whitelist.sol\":5691:5700  timestamp */\n      dup3\n        /* \"contracts/TeamProject_Whitelist.sol\":5691:5723  timestamp > start() + duration() */\n      0xffffffffffffffff\n      and\n      gt\n        /* \"contracts/TeamProject_Whitelist.sol\":5687:5868  if (timestamp > start() + duration()) {... */\n      iszero\n      tag_131\n      jumpi\n        /* \"contracts/TeamProject_Whitelist.sol\":5747:5762  totalAllocation */\n      dup3\n        /* \"contracts/TeamProject_Whitelist.sol\":5740:5762  return totalAllocation */\n      swap1\n      pop\n      jump(tag_124)\n        /* \"contracts/TeamProject_Whitelist.sol\":5687:5868  if (timestamp > start() + duration()) {... */\n    tag_131:\n        /* \"contracts/TeamProject_Whitelist.sol\":5846:5856  duration() */\n      tag_133\n        /* \"contracts/TeamProject_Whitelist.sol\":5846:5854  duration */\n      tag_22\n        /* \"contracts/TeamProject_Whitelist.sol\":5846:5856  duration() */\n      jump\t// in\n    tag_133:\n        /* \"contracts/TeamProject_Whitelist.sol\":5834:5841  start() */\n      tag_134\n        /* \"contracts/TeamProject_Whitelist.sol\":5834:5839  start */\n      tag_44\n        /* \"contracts/TeamProject_Whitelist.sol\":5834:5841  start() */\n      jump\t// in\n    tag_134:\n        /* \"contracts/TeamProject_Whitelist.sol\":5822:5831  timestamp */\n      dup4\n        /* \"contracts/TeamProject_Whitelist.sol\":5822:5841  timestamp - start() */\n      0xffffffffffffffff\n      and\n      tag_135\n      swap2\n      swap1\n      tag_102\n      jump\t// in\n    tag_135:\n        /* \"contracts/TeamProject_Whitelist.sol\":5803:5818  totalAllocation */\n      dup5\n        /* \"contracts/TeamProject_Whitelist.sol\":5803:5842  totalAllocation * (timestamp - start()) */\n      tag_136\n      swap2\n      swap1\n      tag_137\n      jump\t// in\n    tag_136:\n        /* \"contracts/TeamProject_Whitelist.sol\":5802:5856  (totalAllocation * (timestamp - start())) / duration() */\n      tag_138\n      swap2\n      swap1\n      tag_139\n      jump\t// in\n    tag_138:\n        /* \"contracts/TeamProject_Whitelist.sol\":5795:5856  return (totalAllocation * (timestamp - start())) / duration() */\n      swap1\n      pop\n        /* \"contracts/TeamProject_Whitelist.sol\":5460:5875  function _vestingSchedule(uint256 totalAllocation, uint64 timestamp)... */\n    tag_124:\n      swap3\n      swap2\n      pop\n      pop\n      jump\t// out\n        /* \"@openzeppelin/contracts/utils/Context.sol\":640:736  function _msgSender() internal view virtual returns (address) {... */\n    tag_68:\n        /* \"@openzeppelin/contracts/utils/Context.sol\":693:700  address */\n      0x00\n        /* \"@openzeppelin/contracts/utils/Context.sol\":719:729  msg.sender */\n      caller\n        /* \"@openzeppelin/contracts/utils/Context.sol\":712:729  return msg.sender */\n      swap1\n      pop\n        /* \"@openzeppelin/contracts/utils/Context.sol\":640:736  function _msgSender() internal view virtual returns (address) {... */\n      swap1\n      jump\t// out\n        /* \"contracts/TeamProject_Whitelist.sol\":3499:3600  function _vest(address user, uint256 amount) internal {... */\n    tag_84:\n        /* \"contracts/TeamProject_Whitelist.sol\":3586:3592  amount */\n      dup1\n        /* \"contracts/TeamProject_Whitelist.sol\":3564:3576  _beneficiary */\n      0x03\n        /* \"contracts/TeamProject_Whitelist.sol\":3564:3582  _beneficiary[user] */\n      0x00\n        /* \"contracts/TeamProject_Whitelist.sol\":3577:3581  user */\n      dup5\n        /* \"contracts/TeamProject_Whitelist.sol\":3564:3582  _beneficiary[user] */\n      0xffffffffffffffffffffffffffffffffffffffff\n      and\n      0xffffffffffffffffffffffffffffffffffffffff\n      and\n      dup2\n      mstore\n      0x20\n      add\n      swap1\n      dup2\n      mstore\n      0x20\n      add\n      0x00\n      keccak256\n      0x00\n        /* \"contracts/TeamProject_Whitelist.sol\":3564:3592  _beneficiary[user] += amount */\n      dup3\n      dup3\n      sload\n      tag_142\n      swap2\n      swap1\n      tag_57\n      jump\t// in\n    tag_142:\n      swap3\n      pop\n      pop\n      dup2\n      swap1\n      sstore\n      pop\n        /* \"contracts/TeamProject_Whitelist.sol\":3499:3600  function _vest(address user, uint256 amount) internal {... */\n      pop\n      pop\n      jump\t// out\n        /* \"contracts/TeamProject_Whitelist.sol\":3300:3430  function _unsafeInc(uint256 x) internal pure returns (uint256) {... */\n    tag_86:\n        /* \"contracts/TeamProject_Whitelist.sol\":3354:3361  uint256 */\n      0x00\n        /* \"contracts/TeamProject_Whitelist.sol\":3410:3411  1 */\n      0x01\n        /* \"contracts/TeamProject_Whitelist.sol\":3406:3407  x */\n      dup3\n        /* \"contracts/TeamProject_Whitelist.sol\":3406:3411  x + 1 */\n      add\n        /* \"contracts/TeamProject_Whitelist.sol\":3399:3411  return x + 1 */\n      swap1\n      pop\n        /* \"contracts/TeamProject_Whitelist.sol\":3300:3430  function _unsafeInc(uint256 x) internal pure returns (uint256) {... */\n      swap2\n      swap1\n      pop\n      jump\t// out\n        /* \"@openzeppelin/contracts/access/Ownable.sol\":2270:2457  function _transferOwnership(address newOwner) internal virtual {... */\n    tag_94:\n        /* \"@openzeppelin/contracts/access/Ownable.sol\":2343:2359  address oldOwner */\n      0x00\n        /* \"@openzeppelin/contracts/access/Ownable.sol\":2362:2368  _owner */\n      dup1\n      0x00\n      swap1\n      sload\n      swap1\n      0x0100\n      exp\n      swap1\n      div\n      0xffffffffffffffffffffffffffffffffffffffff\n      and\n        /* \"@openzeppelin/contracts/access/Ownable.sol\":2343:2368  address oldOwner = _owner */\n      swap1\n      pop\n        /* \"@openzeppelin/contracts/access/Ownable.sol\":2387:2395  newOwner */\n      dup2\n        /* \"@openzeppelin/contracts/access/Ownable.sol\":2378:2384  _owner */\n      0x00\n      dup1\n        /* \"@openzeppelin/contracts/access/Ownable.sol\":2378:2395  _owner = newOwner */\n      0x0100\n      exp\n      dup2\n      sload\n      dup2\n      0xffffffffffffffffffffffffffffffffffffffff\n      mul\n      not\n      and\n      swap1\n      dup4\n      0xffffffffffffffffffffffffffffffffffffffff\n      and\n      mul\n      or\n      swap1\n      sstore\n      pop\n        /* \"@openzeppelin/contracts/access/Ownable.sol\":2441:2449  newOwner */\n      dup2\n        /* \"@openzeppelin/contracts/access/Ownable.sol\":2410:2450  OwnershipTransferred(oldOwner, newOwner) */\n      0xffffffffffffffffffffffffffffffffffffffff\n      and\n        /* \"@openzeppelin/contracts/access/Ownable.sol\":2431:2439  oldOwner */\n      dup2\n        /* \"@openzeppelin/contracts/access/Ownable.sol\":2410:2450  OwnershipTransferred(oldOwner, newOwner) */\n      0xffffffffffffffffffffffffffffffffffffffff\n      and\n      0x8be0079c531659141344cd1fd0a4f28419497f9722a3daafe3b4186f6b6457e0\n      mload(0x40)\n      mload(0x40)\n      dup1\n      swap2\n      sub\n      swap1\n      log3\n        /* \"@openzeppelin/contracts/access/Ownable.sol\":2333:2457  {... */\n      pop\n        /* \"@openzeppelin/contracts/access/Ownable.sol\":2270:2457  function _transferOwnership(address newOwner) internal virtual {... */\n      pop\n      jump\t// out\n        /* \"contracts/TeamProject_Whitelist.sol\":3098:3292  function _currentMonth() internal view returns (uint256) {... */\n    tag_98:\n        /* \"contracts/TeamProject_Whitelist.sol\":3146:3153  uint256 */\n      0x00\n        /* \"contracts/TeamProject_Whitelist.sol\":3277:3284  30 days */\n      0x278d00\n        /* \"contracts/TeamProject_Whitelist.sol\":3266:3273  start() */\n      tag_146\n        /* \"contracts/TeamProject_Whitelist.sol\":3266:3271  start */\n      tag_44\n        /* \"contracts/TeamProject_Whitelist.sol\":3266:3273  start() */\n      jump\t// in\n    tag_146:\n        /* \"contracts/TeamProject_Whitelist.sol\":3247:3262  block.timestamp */\n      timestamp\n        /* \"contracts/TeamProject_Whitelist.sol\":3240:3273  uint64(block.timestamp) - start() */\n      0xffffffffffffffff\n      and\n      tag_147\n      swap2\n      swap1\n      tag_102\n      jump\t// in\n    tag_147:\n        /* \"contracts/TeamProject_Whitelist.sol\":3239:3284  (uint64(block.timestamp) - start()) / 30 days */\n      tag_148\n      swap2\n      swap1\n      tag_139\n      jump\t// in\n    tag_148:\n        /* \"contracts/TeamProject_Whitelist.sol\":3232:3284  return (uint64(block.timestamp) - start()) / 30 days */\n      swap1\n      pop\n        /* \"contracts/TeamProject_Whitelist.sol\":3098:3292  function _currentMonth() internal view returns (uint256) {... */\n      swap1\n      jump\t// out\n        /* \"@openzeppelin/contracts/token/ERC20/utils/SafeERC20.sol\":701:906  function safeTransfer(... */\n    tag_106:\n        /* \"@openzeppelin/contracts/token/ERC20/utils/SafeERC20.sol\":813:899  _callOptionalReturn(token, abi.encodeWithSelector(token.transfer.selector, to, value)) */\n      tag_150\n        /* \"@openzeppelin/contracts/token/ERC20/utils/SafeERC20.sol\":833:838  token */\n      dup4\n        /* \"@openzeppelin/contracts/token/ERC20/utils/SafeERC20.sol\":863:886  token.transfer.selector */\n      shl(0xe0, 0xa9059cbb)\n        /* \"@openzeppelin/contracts/token/ERC20/utils/SafeERC20.sol\":888:890  to */\n      dup5\n        /* \"@openzeppelin/contracts/token/ERC20/utils/SafeERC20.sol\":892:897  value */\n      dup5\n        /* \"@openzeppelin/contracts/token/ERC20/utils/SafeERC20.sol\":840:898  abi.encodeWithSelector(token.transfer.selector, to, value) */\n      add(0x24, mload(0x40))\n      tag_151\n      swap3\n      swap2\n      swap1\n      tag_152\n      jump\t// in\n    tag_151:\n      mload(0x40)\n      0x20\n      dup2\n      dup4\n      sub\n      sub\n      dup2\n      mstore\n      swap1\n      0x40\n      mstore\n      swap1\n      not(0xffffffffffffffffffffffffffffffffffffffffffffffffffffffff)\n      and\n      0x20\n      dup3\n      add\n      dup1\n      mload\n      0xffffffffffffffffffffffffffffffffffffffffffffffffffffffff\n      dup4\n      dup2\n      dup4\n      and\n      or\n      dup4\n      mstore\n      pop\n      pop\n      pop\n      pop\n        /* \"@openzeppelin/contracts/token/ERC20/utils/SafeERC20.sol\":813:832  _callOptionalReturn */\n      tag_153\n        /* \"@openzeppelin/contracts/token/ERC20/utils/SafeERC20.sol\":813:899  _callOptionalReturn(token, abi.encodeWithSelector(token.transfer.selector, to, value)) */\n      jump\t// in\n    tag_150:\n        /* \"@openzeppelin/contracts/token/ERC20/utils/SafeERC20.sol\":701:906  function safeTransfer(... */\n      pop\n      pop\n      pop\n      jump\t// out\n        /* \"@openzeppelin/contracts/token/ERC20/utils/SafeERC20.sol\":3207:3913  function _callOptionalReturn(IERC20 token, bytes memory data) private {... */\n    tag_153:\n        /* \"@openzeppelin/contracts/token/ERC20/utils/SafeERC20.sol\":3626:3649  bytes memory returndata */\n      0x00\n        /* \"@openzeppelin/contracts/token/ERC20/utils/SafeERC20.sol\":3652:3721  address(token).functionCall(data, \"SafeERC20: low-level call failed\") */\n      tag_155\n        /* \"@openzeppelin/contracts/token/ERC20/utils/SafeERC20.sol\":3680:3684  data */\n      dup3\n        /* \"@openzeppelin/contracts/token/ERC20/utils/SafeERC20.sol\":3652:3721  address(token).functionCall(data, \"SafeERC20: low-level call failed\") */\n      mload(0x40)\n      dup1\n      0x40\n      add\n      0x40\n      mstore\n      dup1\n      0x20\n      dup2\n      mstore\n      0x20\n      add\n      0x5361666545524332303a206c6f772d6c6576656c2063616c6c206661696c6564\n      dup2\n      mstore\n      pop\n        /* \"@openzeppelin/contracts/token/ERC20/utils/SafeERC20.sol\":3660:3665  token */\n      dup6\n        /* \"@openzeppelin/contracts/token/ERC20/utils/SafeERC20.sol\":3652:3679  address(token).functionCall */\n      0xffffffffffffffffffffffffffffffffffffffff\n      and\n      tag_156\n      swap1\n        /* \"@openzeppelin/contracts/token/ERC20/utils/SafeERC20.sol\":3652:3721  address(token).functionCall(data, \"SafeERC20: low-level call failed\") */\n      swap3\n      swap2\n      swap1\n      0xffffffff\n      and\n      jump\t// in\n    tag_155:\n        /* \"@openzeppelin/contracts/token/ERC20/utils/SafeERC20.sol\":3626:3721  bytes memory returndata = address(token).functionCall(data, \"SafeERC20: low-level call failed\") */\n      swap1\n      pop\n        /* \"@openzeppelin/contracts/token/ERC20/utils/SafeERC20.sol\":3755:3756  0 */\n      0x00\n        /* \"@openzeppelin/contracts/token/ERC20/utils/SafeERC20.sol\":3735:3745  returndata */\n      dup2\n        /* \"@openzeppelin/contracts/token/ERC20/utils/SafeERC20.sol\":3735:3752  returndata.length */\n      mload\n        /* \"@openzeppelin/contracts/token/ERC20/utils/SafeERC20.sol\":3735:3756  returndata.length > 0 */\n      gt\n        /* \"@openzeppelin/contracts/token/ERC20/utils/SafeERC20.sol\":3731:3907  if (returndata.length > 0) {... */\n      iszero\n      tag_157\n      jumpi\n        /* \"@openzeppelin/contracts/token/ERC20/utils/SafeERC20.sol\":3830:3840  returndata */\n      dup1\n        /* \"@openzeppelin/contracts/token/ERC20/utils/SafeERC20.sol\":3819:3849  abi.decode(returndata, (bool)) */\n      dup1\n      0x20\n      add\n      swap1\n      mload\n      dup2\n      add\n      swap1\n      tag_158\n      swap2\n      swap1\n      tag_159\n      jump\t// in\n    tag_158:\n        /* \"@openzeppelin/contracts/token/ERC20/utils/SafeERC20.sol\":3811:3896  require(abi.decode(returndata, (bool)), \"SafeERC20: ERC20 operation did not succeed\") */\n      tag_160\n      jumpi\n      mload(0x40)\n      0x08c379a000000000000000000000000000000000000000000000000000000000\n      dup2\n      mstore\n      0x04\n      add\n      tag_161\n      swap1\n      tag_162\n      jump\t// in\n    tag_161:\n      mload(0x40)\n      dup1\n      swap2\n      sub\n      swap1\n      revert\n    tag_160:\n        /* \"@openzeppelin/contracts/token/ERC20/utils/SafeERC20.sol\":3731:3907  if (returndata.length > 0) {... */\n    tag_157:\n        /* \"@openzeppelin/contracts/token/ERC20/utils/SafeERC20.sol\":3277:3913  {... */\n      pop\n        /* \"@openzeppelin/contracts/token/ERC20/utils/SafeERC20.sol\":3207:3913  function _callOptionalReturn(IERC20 token, bytes memory data) private {... */\n      pop\n      pop\n      jump\t// out\n        /* \"@openzeppelin/contracts/utils/Address.sol\":3861:4084  function functionCall(... */\n    tag_156:\n        /* \"@openzeppelin/contracts/utils/Address.sol\":3994:4006  bytes memory */\n      0x60\n        /* \"@openzeppelin/contracts/utils/Address.sol\":4025:4077  functionCallWithValue(target, data, 0, errorMessage) */\n      tag_164\n        /* \"@openzeppelin/contracts/utils/Address.sol\":4047:4053  target */\n      dup5\n        /* \"@openzeppelin/contracts/utils/Address.sol\":4055:4059  data */\n      dup5\n        /* \"@openzeppelin/contracts/utils/Address.sol\":4061:4062  0 */\n      0x00\n        /* \"@openzeppelin/contracts/utils/Address.sol\":4064:4076  errorMessage */\n      dup6\n        /* \"@openzeppelin/contracts/utils/Address.sol\":4025:4046  functionCallWithValue */\n      tag_165\n        /* \"@openzeppelin/contracts/utils/Address.sol\":4025:4077  functionCallWithValue(target, data, 0, errorMessage) */\n      jump\t// in\n    tag_164:\n        /* \"@openzeppelin/contracts/utils/Address.sol\":4018:4077  return functionCallWithValue(target, data, 0, errorMessage) */\n      swap1\n      pop\n        /* \"@openzeppelin/contracts/utils/Address.sol\":3861:4084  function functionCall(... */\n      swap4\n      swap3\n      pop\n      pop\n      pop\n      jump\t// out\n        /* \"@openzeppelin/contracts/utils/Address.sol\":4948:5447  function functionCallWithValue(... */\n    tag_165:\n        /* \"@openzeppelin/contracts/utils/Address.sol\":5113:5125  bytes memory */\n      0x60\n        /* \"@openzeppelin/contracts/utils/Address.sol\":5170:5175  value */\n      dup3\n        /* \"@openzeppelin/contracts/utils/Address.sol\":5145:5166  address(this).balance */\n      selfbalance\n        /* \"@openzeppelin/contracts/utils/Address.sol\":5145:5175  address(this).balance >= value */\n      lt\n      iszero\n        /* \"@openzeppelin/contracts/utils/Address.sol\":5137:5218  require(address(this).balance >= value, \"Address: insufficient balance for call\") */\n      tag_167\n      jumpi\n      mload(0x40)\n      0x08c379a000000000000000000000000000000000000000000000000000000000\n      dup2\n      mstore\n      0x04\n      add\n      tag_168\n      swap1\n      tag_169\n      jump\t// in\n    tag_168:\n      mload(0x40)\n      dup1\n      swap2\n      sub\n      swap1\n      revert\n    tag_167:\n        /* \"@openzeppelin/contracts/utils/Address.sol\":5236:5254  isContract(target) */\n      tag_170\n        /* \"@openzeppelin/contracts/utils/Address.sol\":5247:5253  target */\n      dup6\n        /* \"@openzeppelin/contracts/utils/Address.sol\":5236:5246  isContract */\n      tag_171\n        /* \"@openzeppelin/contracts/utils/Address.sol\":5236:5254  isContract(target) */\n      jump\t// in\n    tag_170:\n        /* \"@openzeppelin/contracts/utils/Address.sol\":5228:5288  require(isContract(target), \"Address: call to non-contract\") */\n      tag_172\n      jumpi\n      mload(0x40)\n      0x08c379a000000000000000000000000000000000000000000000000000000000\n      dup2\n      mstore\n      0x04\n      add\n      tag_173\n      swap1\n      tag_174\n      jump\t// in\n    tag_173:\n      mload(0x40)\n      dup1\n      swap2\n      sub\n      swap1\n      revert\n    tag_172:\n        /* \"@openzeppelin/contracts/utils/Address.sol\":5300:5312  bool success */\n      0x00\n        /* \"@openzeppelin/contracts/utils/Address.sol\":5314:5337  bytes memory returndata */\n      dup1\n        /* \"@openzeppelin/contracts/utils/Address.sol\":5341:5347  target */\n      dup7\n        /* \"@openzeppelin/contracts/utils/Address.sol\":5341:5352  target.call */\n      0xffffffffffffffffffffffffffffffffffffffff\n      and\n        /* \"@openzeppelin/contracts/utils/Address.sol\":5360:5365  value */\n      dup6\n        /* \"@openzeppelin/contracts/utils/Address.sol\":5367:5371  data */\n      dup8\n        /* \"@openzeppelin/contracts/utils/Address.sol\":5341:5372  target.call{value: value}(data) */\n      mload(0x40)\n      tag_175\n      swap2\n      swap1\n      tag_176\n      jump\t// in\n    tag_175:\n      0x00\n      mload(0x40)\n      dup1\n      dup4\n      sub\n      dup2\n      dup6\n      dup8\n      gas\n      call\n      swap3\n      pop\n      pop\n      pop\n      returndatasize\n      dup1\n      0x00\n      dup2\n      eq\n      tag_179\n      jumpi\n      mload(0x40)\n      swap2\n      pop\n      and(add(returndatasize, 0x3f), not(0x1f))\n      dup3\n      add\n      0x40\n      mstore\n      returndatasize\n      dup3\n      mstore\n      returndatasize\n      0x00\n      0x20\n      dup5\n      add\n      returndatacopy\n      jump(tag_178)\n    tag_179:\n      0x60\n      swap2\n      pop\n    tag_178:\n      pop\n        /* \"@openzeppelin/contracts/utils/Address.sol\":5299:5372  (bool success, bytes memory returndata) = target.call{value: value}(data) */\n      swap2\n      pop\n      swap2\n      pop\n        /* \"@openzeppelin/contracts/utils/Address.sol\":5389:5440  verifyCallResult(success, returndata, errorMessage) */\n      tag_180\n        /* \"@openzeppelin/contracts/utils/Address.sol\":5406:5413  success */\n      dup3\n        /* \"@openzeppelin/contracts/utils/Address.sol\":5415:5425  returndata */\n      dup3\n        /* \"@openzeppelin/contracts/utils/Address.sol\":5427:5439  errorMessage */\n      dup7\n        /* \"@openzeppelin/contracts/utils/Address.sol\":5389:5405  verifyCallResult */\n      tag_181\n        /* \"@openzeppelin/contracts/utils/Address.sol\":5389:5440  verifyCallResult(success, returndata, errorMessage) */\n      jump\t// in\n    tag_180:\n        /* \"@openzeppelin/contracts/utils/Address.sol\":5382:5440  return verifyCallResult(success, returndata, errorMessage) */\n      swap3\n      pop\n      pop\n      pop\n        /* \"@openzeppelin/contracts/utils/Address.sol\":4948:5447  function functionCallWithValue(... */\n      swap5\n      swap4\n      pop\n      pop\n      pop\n      pop\n      jump\t// out\n        /* \"@openzeppelin/contracts/utils/Address.sol\":1175:1495  function isContract(address account) internal view returns (bool) {... */\n    tag_171:\n        /* \"@openzeppelin/contracts/utils/Address.sol\":1235:1239  bool */\n      0x00\n        /* \"@openzeppelin/contracts/utils/Address.sol\":1487:1488  0 */\n      dup1\n        /* \"@openzeppelin/contracts/utils/Address.sol\":1465:1472  account */\n      dup3\n        /* \"@openzeppelin/contracts/utils/Address.sol\":1465:1484  account.code.length */\n      0xffffffffffffffffffffffffffffffffffffffff\n      and\n      extcodesize\n        /* \"@openzeppelin/contracts/utils/Address.sol\":1465:1488  account.code.length > 0 */\n      gt\n        /* \"@openzeppelin/contracts/utils/Address.sol\":1458:1488  return account.code.length > 0 */\n      swap1\n      pop\n        /* \"@openzeppelin/contracts/utils/Address.sol\":1175:1495  function isContract(address account) internal view returns (bool) {... */\n      swap2\n      swap1\n      pop\n      jump\t// out\n        /* \"@openzeppelin/contracts/utils/Address.sol\":7561:8253  function verifyCallResult(... */\n    tag_181:\n        /* \"@openzeppelin/contracts/utils/Address.sol\":7707:7719  bytes memory */\n      0x60\n        /* \"@openzeppelin/contracts/utils/Address.sol\":7735:7742  success */\n      dup4\n        /* \"@openzeppelin/contracts/utils/Address.sol\":7731:8247  if (success) {... */\n      iszero\n      tag_184\n      jumpi\n        /* \"@openzeppelin/contracts/utils/Address.sol\":7765:7775  returndata */\n      dup3\n        /* \"@openzeppelin/contracts/utils/Address.sol\":7758:7775  return returndata */\n      swap1\n      pop\n      jump(tag_183)\n        /* \"@openzeppelin/contracts/utils/Address.sol\":7731:8247  if (success) {... */\n    tag_184:\n        /* \"@openzeppelin/contracts/utils/Address.sol\":7896:7897  0 */\n      0x00\n        /* \"@openzeppelin/contracts/utils/Address.sol\":7876:7886  returndata */\n      dup4\n        /* \"@openzeppelin/contracts/utils/Address.sol\":7876:7893  returndata.length */\n      mload\n        /* \"@openzeppelin/contracts/utils/Address.sol\":7876:7897  returndata.length > 0 */\n      gt\n        /* \"@openzeppelin/contracts/utils/Address.sol\":7872:8237  if (returndata.length > 0) {... */\n      iszero\n      tag_186\n      jumpi\n        /* \"@openzeppelin/contracts/utils/Address.sol\":8070:8080  returndata */\n      dup3\n        /* \"@openzeppelin/contracts/utils/Address.sol\":8064:8081  mload(returndata) */\n      mload\n        /* \"@openzeppelin/contracts/utils/Address.sol\":8130:8145  returndata_size */\n      dup1\n        /* \"@openzeppelin/contracts/utils/Address.sol\":8117:8127  returndata */\n      dup5\n        /* \"@openzeppelin/contracts/utils/Address.sol\":8113:8115  32 */\n      0x20\n        /* \"@openzeppelin/contracts/utils/Address.sol\":8109:8128  add(32, returndata) */\n      add\n        /* \"@openzeppelin/contracts/utils/Address.sol\":8102:8146  revert(add(32, returndata), returndata_size) */\n      revert\n        /* \"@openzeppelin/contracts/utils/Address.sol\":7872:8237  if (returndata.length > 0) {... */\n    tag_186:\n        /* \"@openzeppelin/contracts/utils/Address.sol\":8209:8221  errorMessage */\n      dup2\n        /* \"@openzeppelin/contracts/utils/Address.sol\":8202:8222  revert(errorMessage) */\n      mload(0x40)\n      0x08c379a000000000000000000000000000000000000000000000000000000000\n      dup2\n      mstore\n      0x04\n      add\n      tag_188\n      swap2\n      swap1\n      tag_189\n      jump\t// in\n    tag_188:\n      mload(0x40)\n      dup1\n      swap2\n      sub\n      swap1\n      revert\n        /* \"@openzeppelin/contracts/utils/Address.sol\":7561:8253  function verifyCallResult(... */\n    tag_183:\n      swap4\n      swap3\n      pop\n      pop\n      pop\n      jump\t// out\n        /* \"#utility.yul\":88:205   */\n    tag_191:\n        /* \"#utility.yul\":197:198   */\n      0x00\n        /* \"#utility.yul\":194:195   */\n      dup1\n        /* \"#utility.yul\":187:199   */\n      revert\n        /* \"#utility.yul\":211:328   */\n    tag_192:\n        /* \"#utility.yul\":320:321   */\n      0x00\n        /* \"#utility.yul\":317:318   */\n      dup1\n        /* \"#utility.yul\":310:322   */\n      revert\n        /* \"#utility.yul\":334:435   */\n    tag_193:\n        /* \"#utility.yul\":370:377   */\n      0x00\n        /* \"#utility.yul\":410:428   */\n      0xffffffffffffffff\n        /* \"#utility.yul\":403:408   */\n      dup3\n        /* \"#utility.yul\":399:429   */\n      and\n        /* \"#utility.yul\":388:429   */\n      swap1\n      pop\n        /* \"#utility.yul\":334:435   */\n      swap2\n      swap1\n      pop\n      jump\t// out\n        /* \"#utility.yul\":441:561   */\n    tag_194:\n        /* \"#utility.yul\":513:536   */\n      tag_238\n        /* \"#utility.yul\":530:535   */\n      dup2\n        /* \"#utility.yul\":513:536   */\n      tag_193\n      jump\t// in\n    tag_238:\n        /* \"#utility.yul\":506:511   */\n      dup2\n        /* \"#utility.yul\":503:537   */\n      eq\n        /* \"#utility.yul\":493:555   */\n      tag_239\n      jumpi\n        /* \"#utility.yul\":551:552   */\n      0x00\n        /* \"#utility.yul\":548:549   */\n      dup1\n        /* \"#utility.yul\":541:553   */\n      revert\n        /* \"#utility.yul\":493:555   */\n    tag_239:\n        /* \"#utility.yul\":441:561   */\n      pop\n      jump\t// out\n        /* \"#utility.yul\":567:704   */\n    tag_195:\n        /* \"#utility.yul\":612:617   */\n      0x00\n        /* \"#utility.yul\":650:656   */\n      dup2\n        /* \"#utility.yul\":637:657   */\n      calldataload\n        /* \"#utility.yul\":628:657   */\n      swap1\n      pop\n        /* \"#utility.yul\":666:698   */\n      tag_241\n        /* \"#utility.yul\":692:697   */\n      dup2\n        /* \"#utility.yul\":666:698   */\n      tag_194\n      jump\t// in\n    tag_241:\n        /* \"#utility.yul\":567:704   */\n      swap3\n      swap2\n      pop\n      pop\n      jump\t// out\n        /* \"#utility.yul\":710:1037   */\n    tag_17:\n        /* \"#utility.yul\":768:774   */\n      0x00\n        /* \"#utility.yul\":817:819   */\n      0x20\n        /* \"#utility.yul\":805:814   */\n      dup3\n        /* \"#utility.yul\":796:803   */\n      dup5\n        /* \"#utility.yul\":792:815   */\n      sub\n        /* \"#utility.yul\":788:820   */\n      slt\n        /* \"#utility.yul\":785:904   */\n      iszero\n      tag_243\n      jumpi\n        /* \"#utility.yul\":823:902   */\n      tag_244\n      tag_191\n      jump\t// in\n    tag_244:\n        /* \"#utility.yul\":785:904   */\n    tag_243:\n        /* \"#utility.yul\":943:944   */\n      0x00\n        /* \"#utility.yul\":968:1020   */\n      tag_245\n        /* \"#utility.yul\":1012:1019   */\n      dup5\n        /* \"#utility.yul\":1003:1009   */\n      dup3\n        /* \"#utility.yul\":992:1001   */\n      dup6\n        /* \"#utility.yul\":988:1010   */\n      add\n        /* \"#utility.yul\":968:1020   */\n      tag_195\n      jump\t// in\n    tag_245:\n        /* \"#utility.yul\":958:1020   */\n      swap2\n      pop\n        /* \"#utility.yul\":914:1030   */\n      pop\n        /* \"#utility.yul\":710:1037   */\n      swap3\n      swap2\n      pop\n      pop\n      jump\t// out\n        /* \"#utility.yul\":1043:1120   */\n    tag_196:\n        /* \"#utility.yul\":1080:1087   */\n      0x00\n        /* \"#utility.yul\":1109:1114   */\n      dup2\n        /* \"#utility.yul\":1098:1114   */\n      swap1\n      pop\n        /* \"#utility.yul\":1043:1120   */\n      swap2\n      swap1\n      pop\n      jump\t// out\n        /* \"#utility.yul\":1126:1244   */\n    tag_197:\n        /* \"#utility.yul\":1213:1237   */\n      tag_248\n        /* \"#utility.yul\":1231:1236   */\n      dup2\n        /* \"#utility.yul\":1213:1237   */\n      tag_196\n      jump\t// in\n    tag_248:\n        /* \"#utility.yul\":1208:1211   */\n      dup3\n        /* \"#utility.yul\":1201:1238   */\n      mstore\n        /* \"#utility.yul\":1126:1244   */\n      pop\n      pop\n      jump\t// out\n        /* \"#utility.yul\":1250:1472   */\n    tag_20:\n        /* \"#utility.yul\":1343:1347   */\n      0x00\n        /* \"#utility.yul\":1381:1383   */\n      0x20\n        /* \"#utility.yul\":1370:1379   */\n      dup3\n        /* \"#utility.yul\":1366:1384   */\n      add\n        /* \"#utility.yul\":1358:1384   */\n      swap1\n      pop\n        /* \"#utility.yul\":1394:1465   */\n      tag_250\n        /* \"#utility.yul\":1462:1463   */\n      0x00\n        /* \"#utility.yul\":1451:1460   */\n      dup4\n        /* \"#utility.yul\":1447:1464   */\n      add\n        /* \"#utility.yul\":1438:1444   */\n      dup5\n        /* \"#utility.yul\":1394:1465   */\n      tag_197\n      jump\t// in\n    tag_250:\n        /* \"#utility.yul\":1250:1472   */\n      swap3\n      swap2\n      pop\n      pop\n      jump\t// out\n        /* \"#utility.yul\":1478:1604   */\n    tag_198:\n        /* \"#utility.yul\":1515:1522   */\n      0x00\n        /* \"#utility.yul\":1555:1597   */\n      0xffffffffffffffffffffffffffffffffffffffff\n        /* \"#utility.yul\":1548:1553   */\n      dup3\n        /* \"#utility.yul\":1544:1598   */\n      and\n        /* \"#utility.yul\":1533:1598   */\n      swap1\n      pop\n        /* \"#utility.yul\":1478:1604   */\n      swap2\n      swap1\n      pop\n      jump\t// out\n        /* \"#utility.yul\":1610:1706   */\n    tag_199:\n        /* \"#utility.yul\":1647:1654   */\n      0x00\n        /* \"#utility.yul\":1676:1700   */\n      tag_253\n        /* \"#utility.yul\":1694:1699   */\n      dup3\n        /* \"#utility.yul\":1676:1700   */\n      tag_198\n      jump\t// in\n    tag_253:\n        /* \"#utility.yul\":1665:1700   */\n      swap1\n      pop\n        /* \"#utility.yul\":1610:1706   */\n      swap2\n      swap1\n      pop\n      jump\t// out\n        /* \"#utility.yul\":1712:1834   */\n    tag_200:\n        /* \"#utility.yul\":1785:1809   */\n      tag_255\n        /* \"#utility.yul\":1803:1808   */\n      dup2\n        /* \"#utility.yul\":1785:1809   */\n      tag_199\n      jump\t// in\n    tag_255:\n        /* \"#utility.yul\":1778:1783   */\n      dup2\n        /* \"#utility.yul\":1775:1810   */\n      eq\n        /* \"#utility.yul\":1765:1828   */\n      tag_256\n      jumpi\n        /* \"#utility.yul\":1824:1825   */\n      0x00\n        /* \"#utility.yul\":1821:1822   */\n      dup1\n        /* \"#utility.yul\":1814:1826   */\n      revert\n        /* \"#utility.yul\":1765:1828   */\n    tag_256:\n        /* \"#utility.yul\":1712:1834   */\n      pop\n      jump\t// out\n        /* \"#utility.yul\":1840:1979   */\n    tag_201:\n        /* \"#utility.yul\":1886:1891   */\n      0x00\n        /* \"#utility.yul\":1924:1930   */\n      dup2\n        /* \"#utility.yul\":1911:1931   */\n      calldataload\n        /* \"#utility.yul\":1902:1931   */\n      swap1\n      pop\n        /* \"#utility.yul\":1940:1973   */\n      tag_258\n        /* \"#utility.yul\":1967:1972   */\n      dup2\n        /* \"#utility.yul\":1940:1973   */\n      tag_200\n      jump\t// in\n    tag_258:\n        /* \"#utility.yul\":1840:1979   */\n      swap3\n      swap2\n      pop\n      pop\n      jump\t// out\n        /* \"#utility.yul\":1985:2744   */\n    tag_26:\n        /* \"#utility.yul\":2068:2074   */\n      0x00\n        /* \"#utility.yul\":2076:2082   */\n      dup1\n        /* \"#utility.yul\":2084:2090   */\n      0x00\n        /* \"#utility.yul\":2092:2098   */\n      dup1\n        /* \"#utility.yul\":2141:2144   */\n      0x80\n        /* \"#utility.yul\":2129:2138   */\n      dup6\n        /* \"#utility.yul\":2120:2127   */\n      dup8\n        /* \"#utility.yul\":2116:2139   */\n      sub\n        /* \"#utility.yul\":2112:2145   */\n      slt\n        /* \"#utility.yul\":2109:2229   */\n      iszero\n      tag_260\n      jumpi\n        /* \"#utility.yul\":2148:2227   */\n      tag_261\n      tag_191\n      jump\t// in\n    tag_261:\n        /* \"#utility.yul\":2109:2229   */\n    tag_260:\n        /* \"#utility.yul\":2268:2269   */\n      0x00\n        /* \"#utility.yul\":2293:2346   */\n      tag_262\n        /* \"#utility.yul\":2338:2345   */\n      dup8\n        /* \"#utility.yul\":2329:2335   */\n      dup3\n        /* \"#utility.yul\":2318:2327   */\n      dup9\n        /* \"#utility.yul\":2314:2336   */\n      add\n        /* \"#utility.yul\":2293:2346   */\n      tag_201\n      jump\t// in\n    tag_262:\n        /* \"#utility.yul\":2283:2346   */\n      swap5\n      pop\n        /* \"#utility.yul\":2239:2356   */\n      pop\n        /* \"#utility.yul\":2395:2397   */\n      0x20\n        /* \"#utility.yul\":2421:2473   */\n      tag_263\n        /* \"#utility.yul\":2465:2472   */\n      dup8\n        /* \"#utility.yul\":2456:2462   */\n      dup3\n        /* \"#utility.yul\":2445:2454   */\n      dup9\n        /* \"#utility.yul\":2441:2463   */\n      add\n        /* \"#utility.yul\":2421:2473   */\n      tag_195\n      jump\t// in\n    tag_263:\n        /* \"#utility.yul\":2411:2473   */\n      swap4\n      pop\n        /* \"#utility.yul\":2366:2483   */\n      pop\n        /* \"#utility.yul\":2522:2524   */\n      0x40\n        /* \"#utility.yul\":2548:2600   */\n      tag_264\n        /* \"#utility.yul\":2592:2599   */\n      dup8\n        /* \"#utility.yul\":2583:2589   */\n      dup3\n        /* \"#utility.yul\":2572:2581   */\n      dup9\n        /* \"#utility.yul\":2568:2590   */\n      add\n        /* \"#utility.yul\":2548:2600   */\n      tag_195\n      jump\t// in\n    tag_264:\n        /* \"#utility.yul\":2538:2600   */\n      swap3\n      pop\n        /* \"#utility.yul\":2493:2610   */\n      pop\n        /* \"#utility.yul\":2649:2651   */\n      0x60\n        /* \"#utility.yul\":2675:2727   */\n      tag_265\n        /* \"#utility.yul\":2719:2726   */\n      dup8\n        /* \"#utility.yul\":2710:2716   */\n      dup3\n        /* \"#utility.yul\":2699:2708   */\n      dup9\n        /* \"#utility.yul\":2695:2717   */\n      add\n        /* \"#utility.yul\":2675:2727   */\n      tag_195\n      jump\t// in\n    tag_265:\n        /* \"#utility.yul\":2665:2727   */\n      swap2\n      pop\n        /* \"#utility.yul\":2620:2737   */\n      pop\n        /* \"#utility.yul\":1985:2744   */\n      swap3\n      swap6\n      swap2\n      swap5\n      pop\n      swap3\n      pop\n      jump\t// out\n        /* \"#utility.yul\":2750:2867   */\n    tag_202:\n        /* \"#utility.yul\":2859:2860   */\n      0x00\n        /* \"#utility.yul\":2856:2857   */\n      dup1\n        /* \"#utility.yul\":2849:2861   */\n      revert\n        /* \"#utility.yul\":2873:2990   */\n    tag_203:\n        /* \"#utility.yul\":2982:2983   */\n      0x00\n        /* \"#utility.yul\":2979:2980   */\n      dup1\n        /* \"#utility.yul\":2972:2984   */\n      revert\n        /* \"#utility.yul\":2996:3113   */\n    tag_204:\n        /* \"#utility.yul\":3105:3106   */\n      0x00\n        /* \"#utility.yul\":3102:3103   */\n      dup1\n        /* \"#utility.yul\":3095:3107   */\n      revert\n        /* \"#utility.yul\":3161:3759   */\n    tag_205:\n        /* \"#utility.yul\":3264:3272   */\n      0x00\n        /* \"#utility.yul\":3274:3280   */\n      dup1\n        /* \"#utility.yul\":3324:3327   */\n      dup4\n        /* \"#utility.yul\":3317:3321   */\n      0x1f\n        /* \"#utility.yul\":3309:3315   */\n      dup5\n        /* \"#utility.yul\":3305:3322   */\n      add\n        /* \"#utility.yul\":3301:3328   */\n      slt\n        /* \"#utility.yul\":3291:3413   */\n      tag_270\n      jumpi\n        /* \"#utility.yul\":3332:3411   */\n      tag_271\n      tag_202\n      jump\t// in\n    tag_271:\n        /* \"#utility.yul\":3291:3413   */\n    tag_270:\n        /* \"#utility.yul\":3445:3451   */\n      dup3\n        /* \"#utility.yul\":3432:3452   */\n      calldataload\n        /* \"#utility.yul\":3422:3452   */\n      swap1\n      pop\n        /* \"#utility.yul\":3475:3493   */\n      0xffffffffffffffff\n        /* \"#utility.yul\":3467:3473   */\n      dup2\n        /* \"#utility.yul\":3464:3494   */\n      gt\n        /* \"#utility.yul\":3461:3578   */\n      iszero\n      tag_272\n      jumpi\n        /* \"#utility.yul\":3497:3576   */\n      tag_273\n      tag_203\n      jump\t// in\n    tag_273:\n        /* \"#utility.yul\":3461:3578   */\n    tag_272:\n        /* \"#utility.yul\":3611:3615   */\n      0x20\n        /* \"#utility.yul\":3603:3609   */\n      dup4\n        /* \"#utility.yul\":3599:3616   */\n      add\n        /* \"#utility.yul\":3587:3616   */\n      swap2\n      pop\n        /* \"#utility.yul\":3665:3668   */\n      dup4\n        /* \"#utility.yul\":3657:3661   */\n      0x40\n        /* \"#utility.yul\":3649:3655   */\n      dup3\n        /* \"#utility.yul\":3645:3662   */\n      mul\n        /* \"#utility.yul\":3635:3643   */\n      dup4\n        /* \"#utility.yul\":3631:3663   */\n      add\n        /* \"#utility.yul\":3628:3669   */\n      gt\n        /* \"#utility.yul\":3625:3753   */\n      iszero\n      tag_274\n      jumpi\n        /* \"#utility.yul\":3672:3751   */\n      tag_275\n      tag_204\n      jump\t// in\n    tag_275:\n        /* \"#utility.yul\":3625:3753   */\n    tag_274:\n        /* \"#utility.yul\":3161:3759   */\n      swap3\n      pop\n      swap3\n      swap1\n      pop\n      jump\t// out\n        /* \"#utility.yul\":3765:4384   */\n    tag_30:\n        /* \"#utility.yul\":3881:3887   */\n      0x00\n        /* \"#utility.yul\":3889:3895   */\n      dup1\n        /* \"#utility.yul\":3938:3940   */\n      0x20\n        /* \"#utility.yul\":3926:3935   */\n      dup4\n        /* \"#utility.yul\":3917:3924   */\n      dup6\n        /* \"#utility.yul\":3913:3936   */\n      sub\n        /* \"#utility.yul\":3909:3941   */\n      slt\n        /* \"#utility.yul\":3906:4025   */\n      iszero\n      tag_277\n      jumpi\n        /* \"#utility.yul\":3944:4023   */\n      tag_278\n      tag_191\n      jump\t// in\n    tag_278:\n        /* \"#utility.yul\":3906:4025   */\n    tag_277:\n        /* \"#utility.yul\":4092:4093   */\n      0x00\n        /* \"#utility.yul\":4081:4090   */\n      dup4\n        /* \"#utility.yul\":4077:4094   */\n      add\n        /* \"#utility.yul\":4064:4095   */\n      calldataload\n        /* \"#utility.yul\":4122:4140   */\n      0xffffffffffffffff\n        /* \"#utility.yul\":4114:4120   */\n      dup2\n        /* \"#utility.yul\":4111:4141   */\n      gt\n        /* \"#utility.yul\":4108:4225   */\n      iszero\n      tag_279\n      jumpi\n        /* \"#utility.yul\":4144:4223   */\n      tag_280\n      tag_192\n      jump\t// in\n    tag_280:\n        /* \"#utility.yul\":4108:4225   */\n    tag_279:\n        /* \"#utility.yul\":4257:4367   */\n      tag_281\n        /* \"#utility.yul\":4359:4366   */\n      dup6\n        /* \"#utility.yul\":4350:4356   */\n      dup3\n        /* \"#utility.yul\":4339:4348   */\n      dup7\n        /* \"#utility.yul\":4335:4357   */\n      add\n        /* \"#utility.yul\":4257:4367   */\n      tag_205\n      jump\t// in\n    tag_281:\n        /* \"#utility.yul\":4239:4367   */\n      swap3\n      pop\n      swap3\n      pop\n        /* \"#utility.yul\":4035:4377   */\n      pop\n        /* \"#utility.yul\":3765:4384   */\n      swap3\n      pop\n      swap3\n      swap1\n      pop\n      jump\t// out\n        /* \"#utility.yul\":4390:4508   */\n    tag_206:\n        /* \"#utility.yul\":4477:4501   */\n      tag_283\n        /* \"#utility.yul\":4495:4500   */\n      dup2\n        /* \"#utility.yul\":4477:4501   */\n      tag_199\n      jump\t// in\n    tag_283:\n        /* \"#utility.yul\":4472:4475   */\n      dup3\n        /* \"#utility.yul\":4465:4502   */\n      mstore\n        /* \"#utility.yul\":4390:4508   */\n      pop\n      pop\n      jump\t// out\n        /* \"#utility.yul\":4514:4736   */\n    tag_39:\n        /* \"#utility.yul\":4607:4611   */\n      0x00\n        /* \"#utility.yul\":4645:4647   */\n      0x20\n        /* \"#utility.yul\":4634:4643   */\n      dup3\n        /* \"#utility.yul\":4630:4648   */\n      add\n        /* \"#utility.yul\":4622:4648   */\n      swap1\n      pop\n        /* \"#utility.yul\":4658:4729   */\n      tag_285\n        /* \"#utility.yul\":4726:4727   */\n      0x00\n        /* \"#utility.yul\":4715:4724   */\n      dup4\n        /* \"#utility.yul\":4711:4728   */\n      add\n        /* \"#utility.yul\":4702:4708   */\n      dup5\n        /* \"#utility.yul\":4658:4729   */\n      tag_206\n      jump\t// in\n    tag_285:\n        /* \"#utility.yul\":4514:4736   */\n      swap3\n      swap2\n      pop\n      pop\n      jump\t// out\n        /* \"#utility.yul\":4742:5071   */\n    tag_48:\n        /* \"#utility.yul\":4801:4807   */\n      0x00\n        /* \"#utility.yul\":4850:4852   */\n      0x20\n        /* \"#utility.yul\":4838:4847   */\n      dup3\n        /* \"#utility.yul\":4829:4836   */\n      dup5\n        /* \"#utility.yul\":4825:4848   */\n      sub\n        /* \"#utility.yul\":4821:4853   */\n      slt\n        /* \"#utility.yul\":4818:4937   */\n      iszero\n      tag_287\n      jumpi\n        /* \"#utility.yul\":4856:4935   */\n      tag_288\n      tag_191\n      jump\t// in\n    tag_288:\n        /* \"#utility.yul\":4818:4937   */\n    tag_287:\n        /* \"#utility.yul\":4976:4977   */\n      0x00\n        /* \"#utility.yul\":5001:5054   */\n      tag_289\n        /* \"#utility.yul\":5046:5053   */\n      dup5\n        /* \"#utility.yul\":5037:5043   */\n      dup3\n        /* \"#utility.yul\":5026:5035   */\n      dup6\n        /* \"#utility.yul\":5022:5044   */\n      add\n        /* \"#utility.yul\":5001:5054   */\n      tag_201\n      jump\t// in\n    tag_289:\n        /* \"#utility.yul\":4991:5054   */\n      swap2\n      pop\n        /* \"#utility.yul\":4947:5064   */\n      pop\n        /* \"#utility.yul\":4742:5071   */\n      swap3\n      swap2\n      pop\n      pop\n      jump\t// out\n        /* \"#utility.yul\":5077:5257   */\n    tag_207:\n        /* \"#utility.yul\":5125:5202   */\n      0x4e487b7100000000000000000000000000000000000000000000000000000000\n        /* \"#utility.yul\":5122:5123   */\n      0x00\n        /* \"#utility.yul\":5115:5203   */\n      mstore\n        /* \"#utility.yul\":5222:5226   */\n      0x11\n        /* \"#utility.yul\":5219:5220   */\n      0x04\n        /* \"#utility.yul\":5212:5227   */\n      mstore\n        /* \"#utility.yul\":5246:5250   */\n      0x24\n        /* \"#utility.yul\":5243:5244   */\n      0x00\n        /* \"#utility.yul\":5236:5251   */\n      revert\n        /* \"#utility.yul\":5263:5568   */\n    tag_57:\n        /* \"#utility.yul\":5303:5306   */\n      0x00\n        /* \"#utility.yul\":5322:5342   */\n      tag_292\n        /* \"#utility.yul\":5340:5341   */\n      dup3\n        /* \"#utility.yul\":5322:5342   */\n      tag_196\n      jump\t// in\n    tag_292:\n        /* \"#utility.yul\":5317:5342   */\n      swap2\n      pop\n        /* \"#utility.yul\":5356:5376   */\n      tag_293\n        /* \"#utility.yul\":5374:5375   */\n      dup4\n        /* \"#utility.yul\":5356:5376   */\n      tag_196\n      jump\t// in\n    tag_293:\n        /* \"#utility.yul\":5351:5376   */\n      swap3\n      pop\n        /* \"#utility.yul\":5510:5511   */\n      dup3\n        /* \"#utility.yul\":5442:5508   */\n      0xffffffffffffffffffffffffffffffffffffffffffffffffffffffffffffffff\n        /* \"#utility.yul\":5438:5512   */\n      sub\n        /* \"#utility.yul\":5435:5436   */\n      dup3\n        /* \"#utility.yul\":5432:5513   */\n      gt\n        /* \"#utility.yul\":5429:5536   */\n      iszero\n      tag_294\n      jumpi\n        /* \"#utility.yul\":5516:5534   */\n      tag_295\n      tag_207\n      jump\t// in\n    tag_295:\n        /* \"#utility.yul\":5429:5536   */\n    tag_294:\n        /* \"#utility.yul\":5560:5561   */\n      dup3\n        /* \"#utility.yul\":5557:5558   */\n      dup3\n        /* \"#utility.yul\":5553:5562   */\n      add\n        /* \"#utility.yul\":5546:5562   */\n      swap1\n      pop\n        /* \"#utility.yul\":5263:5568   */\n      swap3\n      swap2\n      pop\n      pop\n      jump\t// out\n        /* \"#utility.yul\":5574:5743   */\n    tag_208:\n        /* \"#utility.yul\":5658:5669   */\n      0x00\n        /* \"#utility.yul\":5692:5698   */\n      dup3\n        /* \"#utility.yul\":5687:5690   */\n      dup3\n        /* \"#utility.yul\":5680:5699   */\n      mstore\n        /* \"#utility.yul\":5732:5736   */\n      0x20\n        /* \"#utility.yul\":5727:5730   */\n      dup3\n        /* \"#utility.yul\":5723:5737   */\n      add\n        /* \"#utility.yul\":5708:5737   */\n      swap1\n      pop\n        /* \"#utility.yul\":5574:5743   */\n      swap3\n      swap2\n      pop\n      pop\n      jump\t// out\n        /* \"#utility.yul\":5749:5908   */\n    tag_209:\n        /* \"#utility.yul\":5889:5900   */\n      0x496e697469617465640000000000000000000000000000000000000000000000\n        /* \"#utility.yul\":5885:5886   */\n      0x00\n        /* \"#utility.yul\":5877:5883   */\n      dup3\n        /* \"#utility.yul\":5873:5887   */\n      add\n        /* \"#utility.yul\":5866:5901   */\n      mstore\n        /* \"#utility.yul\":5749:5908   */\n      pop\n      jump\t// out\n        /* \"#utility.yul\":5914:6279   */\n    tag_210:\n        /* \"#utility.yul\":6056:6059   */\n      0x00\n        /* \"#utility.yul\":6077:6143   */\n      tag_299\n        /* \"#utility.yul\":6141:6142   */\n      0x09\n        /* \"#utility.yul\":6136:6139   */\n      dup4\n        /* \"#utility.yul\":6077:6143   */\n      tag_208\n      jump\t// in\n    tag_299:\n        /* \"#utility.yul\":6070:6143   */\n      swap2\n      pop\n        /* \"#utility.yul\":6152:6245   */\n      tag_300\n        /* \"#utility.yul\":6241:6244   */\n      dup3\n        /* \"#utility.yul\":6152:6245   */\n      tag_209\n      jump\t// in\n    tag_300:\n        /* \"#utility.yul\":6270:6272   */\n      0x20\n        /* \"#utility.yul\":6265:6268   */\n      dup3\n        /* \"#utility.yul\":6261:6273   */\n      add\n        /* \"#utility.yul\":6254:6273   */\n      swap1\n      pop\n        /* \"#utility.yul\":5914:6279   */\n      swap2\n      swap1\n      pop\n      jump\t// out\n        /* \"#utility.yul\":6285:6704   */\n    tag_63:\n        /* \"#utility.yul\":6451:6455   */\n      0x00\n        /* \"#utility.yul\":6489:6491   */\n      0x20\n        /* \"#utility.yul\":6478:6487   */\n      dup3\n        /* \"#utility.yul\":6474:6492   */\n      add\n        /* \"#utility.yul\":6466:6492   */\n      swap1\n      pop\n        /* \"#utility.yul\":6538:6547   */\n      dup2\n        /* \"#utility.yul\":6532:6536   */\n      dup2\n        /* \"#utility.yul\":6528:6548   */\n      sub\n        /* \"#utility.yul\":6524:6525   */\n      0x00\n        /* \"#utility.yul\":6513:6522   */\n      dup4\n        /* \"#utility.yul\":6509:6526   */\n      add\n        /* \"#utility.yul\":6502:6549   */\n      mstore\n        /* \"#utility.yul\":6566:6697   */\n      tag_302\n        /* \"#utility.yul\":6692:6696   */\n      dup2\n        /* \"#utility.yul\":6566:6697   */\n      tag_210\n      jump\t// in\n    tag_302:\n        /* \"#utility.yul\":6558:6697   */\n      swap1\n      pop\n        /* \"#utility.yul\":6285:6704   */\n      swap2\n      swap1\n      pop\n      jump\t// out\n        /* \"#utility.yul\":6710:6964   */\n    tag_65:\n        /* \"#utility.yul\":6749:6752   */\n      0x00\n        /* \"#utility.yul\":6768:6787   */\n      tag_304\n        /* \"#utility.yul\":6785:6786   */\n      dup3\n        /* \"#utility.yul\":6768:6787   */\n      tag_193\n      jump\t// in\n    tag_304:\n        /* \"#utility.yul\":6763:6787   */\n      swap2\n      pop\n        /* \"#utility.yul\":6801:6820   */\n      tag_305\n        /* \"#utility.yul\":6818:6819   */\n      dup4\n        /* \"#utility.yul\":6801:6820   */\n      tag_193\n      jump\t// in\n    tag_305:\n        /* \"#utility.yul\":6796:6820   */\n      swap3\n      pop\n        /* \"#utility.yul\":6906:6907   */\n      dup3\n        /* \"#utility.yul\":6886:6904   */\n      0xffffffffffffffff\n        /* \"#utility.yul\":6882:6908   */\n      sub\n        /* \"#utility.yul\":6879:6880   */\n      dup3\n        /* \"#utility.yul\":6876:6909   */\n      gt\n        /* \"#utility.yul\":6873:6932   */\n      iszero\n      tag_306\n      jumpi\n        /* \"#utility.yul\":6912:6930   */\n      tag_307\n      tag_207\n      jump\t// in\n    tag_307:\n        /* \"#utility.yul\":6873:6932   */\n    tag_306:\n        /* \"#utility.yul\":6956:6957   */\n      dup3\n        /* \"#utility.yul\":6953:6954   */\n      dup3\n        /* \"#utility.yul\":6949:6958   */\n      add\n        /* \"#utility.yul\":6942:6958   */\n      swap1\n      pop\n        /* \"#utility.yul\":6710:6964   */\n      swap3\n      swap2\n      pop\n      pop\n      jump\t// out\n        /* \"#utility.yul\":6970:7152   */\n    tag_211:\n        /* \"#utility.yul\":7110:7144   */\n      0x4f776e61626c653a2063616c6c6572206973206e6f7420746865206f776e6572\n        /* \"#utility.yul\":7106:7107   */\n      0x00\n        /* \"#utility.yul\":7098:7104   */\n      dup3\n        /* \"#utility.yul\":7094:7108   */\n      add\n        /* \"#utility.yul\":7087:7145   */\n      mstore\n        /* \"#utility.yul\":6970:7152   */\n      pop\n      jump\t// out\n        /* \"#utility.yul\":7158:7524   */\n    tag_212:\n        /* \"#utility.yul\":7300:7303   */\n      0x00\n        /* \"#utility.yul\":7321:7388   */\n      tag_310\n        /* \"#utility.yul\":7385:7387   */\n      0x20\n        /* \"#utility.yul\":7380:7383   */\n      dup4\n        /* \"#utility.yul\":7321:7388   */\n      tag_208\n      jump\t// in\n    tag_310:\n        /* \"#utility.yul\":7314:7388   */\n      swap2\n      pop\n        /* \"#utility.yul\":7397:7490   */\n      tag_311\n        /* \"#utility.yul\":7486:7489   */\n      dup3\n        /* \"#utility.yul\":7397:7490   */\n      tag_211\n      jump\t// in\n    tag_311:\n        /* \"#utility.yul\":7515:7517   */\n      0x20\n        /* \"#utility.yul\":7510:7513   */\n      dup3\n        /* \"#utility.yul\":7506:7518   */\n      add\n        /* \"#utility.yul\":7499:7518   */\n      swap1\n      pop\n        /* \"#utility.yul\":7158:7524   */\n      swap2\n      swap1\n      pop\n      jump\t// out\n        /* \"#utility.yul\":7530:7949   */\n    tag_72:\n        /* \"#utility.yul\":7696:7700   */\n      0x00\n        /* \"#utility.yul\":7734:7736   */\n      0x20\n        /* \"#utility.yul\":7723:7732   */\n      dup3\n        /* \"#utility.yul\":7719:7737   */\n      add\n        /* \"#utility.yul\":7711:7737   */\n      swap1\n      pop\n        /* \"#utility.yul\":7783:7792   */\n      dup2\n        /* \"#utility.yul\":7777:7781   */\n      dup2\n        /* \"#utility.yul\":7773:7793   */\n      sub\n        /* \"#utility.yul\":7769:7770   */\n      0x00\n        /* \"#utility.yul\":7758:7767   */\n      dup4\n        /* \"#utility.yul\":7754:7771   */\n      add\n        /* \"#utility.yul\":7747:7794   */\n      mstore\n        /* \"#utility.yul\":7811:7942   */\n      tag_313\n        /* \"#utility.yul\":7937:7941   */\n      dup2\n        /* \"#utility.yul\":7811:7942   */\n      tag_212\n      jump\t// in\n    tag_313:\n        /* \"#utility.yul\":7803:7942   */\n      swap1\n      pop\n        /* \"#utility.yul\":7530:7949   */\n      swap2\n      swap1\n      pop\n      jump\t// out\n        /* \"#utility.yul\":7955:8135   */\n    tag_80:\n        /* \"#utility.yul\":8003:8080   */\n      0x4e487b7100000000000000000000000000000000000000000000000000000000\n        /* \"#utility.yul\":8000:8001   */\n      0x00\n        /* \"#utility.yul\":7993:8081   */\n      mstore\n        /* \"#utility.yul\":8100:8104   */\n      0x32\n        /* \"#utility.yul\":8097:8098   */\n      0x04\n        /* \"#utility.yul\":8090:8105   */\n      mstore\n        /* \"#utility.yul\":8124:8128   */\n      0x24\n        /* \"#utility.yul\":8121:8122   */\n      0x00\n        /* \"#utility.yul\":8114:8129   */\n      revert\n        /* \"#utility.yul\":8141:8332   */\n    tag_102:\n        /* \"#utility.yul\":8181:8185   */\n      0x00\n        /* \"#utility.yul\":8201:8221   */\n      tag_316\n        /* \"#utility.yul\":8219:8220   */\n      dup3\n        /* \"#utility.yul\":8201:8221   */\n      tag_196\n      jump\t// in\n    tag_316:\n        /* \"#utility.yul\":8196:8221   */\n      swap2\n      pop\n        /* \"#utility.yul\":8235:8255   */\n      tag_317\n        /* \"#utility.yul\":8253:8254   */\n      dup4\n        /* \"#utility.yul\":8235:8255   */\n      tag_196\n      jump\t// in\n    tag_317:\n        /* \"#utility.yul\":8230:8255   */\n      swap3\n      pop\n        /* \"#utility.yul\":8274:8275   */\n      dup3\n        /* \"#utility.yul\":8271:8272   */\n      dup3\n        /* \"#utility.yul\":8268:8276   */\n      lt\n        /* \"#utility.yul\":8265:8299   */\n      iszero\n      tag_318\n      jumpi\n        /* \"#utility.yul\":8279:8297   */\n      tag_319\n      tag_207\n      jump\t// in\n    tag_319:\n        /* \"#utility.yul\":8265:8299   */\n    tag_318:\n        /* \"#utility.yul\":8324:8325   */\n      dup3\n        /* \"#utility.yul\":8321:8322   */\n      dup3\n        /* \"#utility.yul\":8317:8326   */\n      sub\n        /* \"#utility.yul\":8309:8326   */\n      swap1\n      pop\n        /* \"#utility.yul\":8141:8332   */\n      swap3\n      swap2\n      pop\n      pop\n      jump\t// out\n        /* \"#utility.yul\":8338:8563   */\n    tag_213:\n        /* \"#utility.yul\":8478:8512   */\n      0x4f776e61626c653a206e6577206f776e657220697320746865207a65726f2061\n        /* \"#utility.yul\":8474:8475   */\n      0x00\n        /* \"#utility.yul\":8466:8472   */\n      dup3\n        /* \"#utility.yul\":8462:8476   */\n      add\n        /* \"#utility.yul\":8455:8513   */\n      mstore\n        /* \"#utility.yul\":8547:8555   */\n      0x6464726573730000000000000000000000000000000000000000000000000000\n        /* \"#utility.yul\":8542:8544   */\n      0x20\n        /* \"#utility.yul\":8534:8540   */\n      dup3\n        /* \"#utility.yul\":8530:8545   */\n      add\n        /* \"#utility.yul\":8523:8556   */\n      mstore\n        /* \"#utility.yul\":8338:8563   */\n      pop\n      jump\t// out\n        /* \"#utility.yul\":8569:8935   */\n    tag_214:\n        /* \"#utility.yul\":8711:8714   */\n      0x00\n        /* \"#utility.yul\":8732:8799   */\n      tag_322\n        /* \"#utility.yul\":8796:8798   */\n      0x26\n        /* \"#utility.yul\":8791:8794   */\n      dup4\n        /* \"#utility.yul\":8732:8799   */\n      tag_208\n      jump\t// in\n    tag_322:\n        /* \"#utility.yul\":8725:8799   */\n      swap2\n      pop\n        /* \"#utility.yul\":8808:8901   */\n      tag_323\n        /* \"#utility.yul\":8897:8900   */\n      dup3\n        /* \"#utility.yul\":8808:8901   */\n      tag_213\n      jump\t// in\n    tag_323:\n        /* \"#utility.yul\":8926:8928   */\n      0x40\n        /* \"#utility.yul\":8921:8924   */\n      dup3\n        /* \"#utility.yul\":8917:8929   */\n      add\n        /* \"#utility.yul\":8910:8929   */\n      swap1\n      pop\n        /* \"#utility.yul\":8569:8935   */\n      swap2\n      swap1\n      pop\n      jump\t// out\n        /* \"#utility.yul\":8941:9360   */\n    tag_118:\n        /* \"#utility.yul\":9107:9111   */\n      0x00\n        /* \"#utility.yul\":9145:9147   */\n      0x20\n        /* \"#utility.yul\":9134:9143   */\n      dup3\n        /* \"#utility.yul\":9130:9148   */\n      add\n        /* \"#utility.yul\":9122:9148   */\n      swap1\n      pop\n        /* \"#utility.yul\":9194:9203   */\n      dup2\n        /* \"#utility.yul\":9188:9192   */\n      dup2\n        /* \"#utility.yul\":9184:9204   */\n      sub\n        /* \"#utility.yul\":9180:9181   */\n      0x00\n        /* \"#utility.yul\":9169:9178   */\n      dup4\n        /* \"#utility.yul\":9165:9182   */\n      add\n        /* \"#utility.yul\":9158:9205   */\n      mstore\n        /* \"#utility.yul\":9222:9353   */\n      tag_325\n        /* \"#utility.yul\":9348:9352   */\n      dup2\n        /* \"#utility.yul\":9222:9353   */\n      tag_214\n      jump\t// in\n    tag_325:\n        /* \"#utility.yul\":9214:9353   */\n      swap1\n      pop\n        /* \"#utility.yul\":8941:9360   */\n      swap2\n      swap1\n      pop\n      jump\t// out\n        /* \"#utility.yul\":9366:9714   */\n    tag_137:\n        /* \"#utility.yul\":9406:9413   */\n      0x00\n        /* \"#utility.yul\":9429:9449   */\n      tag_327\n        /* \"#utility.yul\":9447:9448   */\n      dup3\n        /* \"#utility.yul\":9429:9449   */\n      tag_196\n      jump\t// in\n    tag_327:\n        /* \"#utility.yul\":9424:9449   */\n      swap2\n      pop\n        /* \"#utility.yul\":9463:9483   */\n      tag_328\n        /* \"#utility.yul\":9481:9482   */\n      dup4\n        /* \"#utility.yul\":9463:9483   */\n      tag_196\n      jump\t// in\n    tag_328:\n        /* \"#utility.yul\":9458:9483   */\n      swap3\n      pop\n        /* \"#utility.yul\":9651:9652   */\n      dup2\n        /* \"#utility.yul\":9583:9649   */\n      0xffffffffffffffffffffffffffffffffffffffffffffffffffffffffffffffff\n        /* \"#utility.yul\":9579:9653   */\n      div\n        /* \"#utility.yul\":9576:9577   */\n      dup4\n        /* \"#utility.yul\":9573:9654   */\n      gt\n        /* \"#utility.yul\":9568:9569   */\n      dup3\n        /* \"#utility.yul\":9561:9570   */\n      iszero\n        /* \"#utility.yul\":9554:9571   */\n      iszero\n        /* \"#utility.yul\":9550:9655   */\n      and\n        /* \"#utility.yul\":9547:9678   */\n      iszero\n      tag_329\n      jumpi\n        /* \"#utility.yul\":9658:9676   */\n      tag_330\n      tag_207\n      jump\t// in\n    tag_330:\n        /* \"#utility.yul\":9547:9678   */\n    tag_329:\n        /* \"#utility.yul\":9706:9707   */\n      dup3\n        /* \"#utility.yul\":9703:9704   */\n      dup3\n        /* \"#utility.yul\":9699:9708   */\n      mul\n        /* \"#utility.yul\":9688:9708   */\n      swap1\n      pop\n        /* \"#utility.yul\":9366:9714   */\n      swap3\n      swap2\n      pop\n      pop\n      jump\t// out\n        /* \"#utility.yul\":9720:9900   */\n    tag_215:\n        /* \"#utility.yul\":9768:9845   */\n      0x4e487b7100000000000000000000000000000000000000000000000000000000\n        /* \"#utility.yul\":9765:9766   */\n      0x00\n        /* \"#utility.yul\":9758:9846   */\n      mstore\n        /* \"#utility.yul\":9865:9869   */\n      0x12\n        /* \"#utility.yul\":9862:9863   */\n      0x04\n        /* \"#utility.yul\":9855:9870   */\n      mstore\n        /* \"#utility.yul\":9889:9893   */\n      0x24\n        /* \"#utility.yul\":9886:9887   */\n      0x00\n        /* \"#utility.yul\":9879:9894   */\n      revert\n        /* \"#utility.yul\":9906:10091   */\n    tag_139:\n        /* \"#utility.yul\":9946:9947   */\n      0x00\n        /* \"#utility.yul\":9963:9983   */\n      tag_333\n        /* \"#utility.yul\":9981:9982   */\n      dup3\n        /* \"#utility.yul\":9963:9983   */\n      tag_196\n      jump\t// in\n    tag_333:\n        /* \"#utility.yul\":9958:9983   */\n      swap2\n      pop\n        /* \"#utility.yul\":9997:10017   */\n      tag_334\n        /* \"#utility.yul\":10015:10016   */\n      dup4\n        /* \"#utility.yul\":9997:10017   */\n      tag_196\n      jump\t// in\n    tag_334:\n        /* \"#utility.yul\":9992:10017   */\n      swap3\n      pop\n        /* \"#utility.yul\":10036:10037   */\n      dup3\n        /* \"#utility.yul\":10026:10061   */\n      tag_335\n      jumpi\n        /* \"#utility.yul\":10041:10059   */\n      tag_336\n      tag_215\n      jump\t// in\n    tag_336:\n        /* \"#utility.yul\":10026:10061   */\n    tag_335:\n        /* \"#utility.yul\":10083:10084   */\n      dup3\n        /* \"#utility.yul\":10080:10081   */\n      dup3\n        /* \"#utility.yul\":10076:10085   */\n      div\n        /* \"#utility.yul\":10071:10085   */\n      swap1\n      pop\n        /* \"#utility.yul\":9906:10091   */\n      swap3\n      swap2\n      pop\n      pop\n      jump\t// out\n        /* \"#utility.yul\":10097:10429   */\n    tag_152:\n        /* \"#utility.yul\":10218:10222   */\n      0x00\n        /* \"#utility.yul\":10256:10258   */\n      0x40\n        /* \"#utility.yul\":10245:10254   */\n      dup3\n        /* \"#utility.yul\":10241:10259   */\n      add\n        /* \"#utility.yul\":10233:10259   */\n      swap1\n      pop\n        /* \"#utility.yul\":10269:10340   */\n      tag_338\n        /* \"#utility.yul\":10337:10338   */\n      0x00\n        /* \"#utility.yul\":10326:10335   */\n      dup4\n        /* \"#utility.yul\":10322:10339   */\n      add\n        /* \"#utility.yul\":10313:10319   */\n      dup6\n        /* \"#utility.yul\":10269:10340   */\n      tag_206\n      jump\t// in\n    tag_338:\n        /* \"#utility.yul\":10350:10422   */\n      tag_339\n        /* \"#utility.yul\":10418:10420   */\n      0x20\n        /* \"#utility.yul\":10407:10416   */\n      dup4\n        /* \"#utility.yul\":10403:10421   */\n      add\n        /* \"#utility.yul\":10394:10400   */\n      dup5\n        /* \"#utility.yul\":10350:10422   */\n      tag_197\n      jump\t// in\n    tag_339:\n        /* \"#utility.yul\":10097:10429   */\n      swap4\n      swap3\n      pop\n      pop\n      pop\n      jump\t// out\n        /* \"#utility.yul\":10435:10525   */\n    tag_216:\n        /* \"#utility.yul\":10469:10476   */\n      0x00\n        /* \"#utility.yul\":10512:10517   */\n      dup2\n        /* \"#utility.yul\":10505:10518   */\n      iszero\n        /* \"#utility.yul\":10498:10519   */\n      iszero\n        /* \"#utility.yul\":10487:10519   */\n      swap1\n      pop\n        /* \"#utility.yul\":10435:10525   */\n      swap2\n      swap1\n      pop\n      jump\t// out\n        /* \"#utility.yul\":10531:10647   */\n    tag_217:\n        /* \"#utility.yul\":10601:10622   */\n      tag_342\n        /* \"#utility.yul\":10616:10621   */\n      dup2\n        /* \"#utility.yul\":10601:10622   */\n      tag_216\n      jump\t// in\n    tag_342:\n        /* \"#utility.yul\":10594:10599   */\n      dup2\n        /* \"#utility.yul\":10591:10623   */\n      eq\n        /* \"#utility.yul\":10581:10641   */\n      tag_343\n      jumpi\n        /* \"#utility.yul\":10637:10638   */\n      0x00\n        /* \"#utility.yul\":10634:10635   */\n      dup1\n        /* \"#utility.yul\":10627:10639   */\n      revert\n        /* \"#utility.yul\":10581:10641   */\n    tag_343:\n        /* \"#utility.yul\":10531:10647   */\n      pop\n      jump\t// out\n        /* \"#utility.yul\":10653:10790   */\n    tag_218:\n        /* \"#utility.yul\":10707:10712   */\n      0x00\n        /* \"#utility.yul\":10738:10744   */\n      dup2\n        /* \"#utility.yul\":10732:10745   */\n      mload\n        /* \"#utility.yul\":10723:10745   */\n      swap1\n      pop\n        /* \"#utility.yul\":10754:10784   */\n      tag_345\n        /* \"#utility.yul\":10778:10783   */\n      dup2\n        /* \"#utility.yul\":10754:10784   */\n      tag_217\n      jump\t// in\n    tag_345:\n        /* \"#utility.yul\":10653:10790   */\n      swap3\n      swap2\n      pop\n      pop\n      jump\t// out\n        /* \"#utility.yul\":10796:11141   */\n    tag_159:\n        /* \"#utility.yul\":10863:10869   */\n      0x00\n        /* \"#utility.yul\":10912:10914   */\n      0x20\n        /* \"#utility.yul\":10900:10909   */\n      dup3\n        /* \"#utility.yul\":10891:10898   */\n      dup5\n        /* \"#utility.yul\":10887:10910   */\n      sub\n        /* \"#utility.yul\":10883:10915   */\n      slt\n        /* \"#utility.yul\":10880:10999   */\n      iszero\n      tag_347\n      jumpi\n        /* \"#utility.yul\":10918:10997   */\n      tag_348\n      tag_191\n      jump\t// in\n    tag_348:\n        /* \"#utility.yul\":10880:10999   */\n    tag_347:\n        /* \"#utility.yul\":11038:11039   */\n      0x00\n        /* \"#utility.yul\":11063:11124   */\n      tag_349\n        /* \"#utility.yul\":11116:11123   */\n      dup5\n        /* \"#utility.yul\":11107:11113   */\n      dup3\n        /* \"#utility.yul\":11096:11105   */\n      dup6\n        /* \"#utility.yul\":11092:11114   */\n      add\n        /* \"#utility.yul\":11063:11124   */\n      tag_218\n      jump\t// in\n    tag_349:\n        /* \"#utility.yul\":11053:11124   */\n      swap2\n      pop\n        /* \"#utility.yul\":11009:11134   */\n      pop\n        /* \"#utility.yul\":10796:11141   */\n      swap3\n      swap2\n      pop\n      pop\n      jump\t// out\n        /* \"#utility.yul\":11147:11376   */\n    tag_219:\n        /* \"#utility.yul\":11287:11321   */\n      0x5361666545524332303a204552433230206f7065726174696f6e20646964206e\n        /* \"#utility.yul\":11283:11284   */\n      0x00\n        /* \"#utility.yul\":11275:11281   */\n      dup3\n        /* \"#utility.yul\":11271:11285   */\n      add\n        /* \"#utility.yul\":11264:11322   */\n      mstore\n        /* \"#utility.yul\":11356:11368   */\n      0x6f74207375636365656400000000000000000000000000000000000000000000\n        /* \"#utility.yul\":11351:11353   */\n      0x20\n        /* \"#utility.yul\":11343:11349   */\n      dup3\n        /* \"#utility.yul\":11339:11354   */\n      add\n        /* \"#utility.yul\":11332:11369   */\n      mstore\n        /* \"#utility.yul\":11147:11376   */\n      pop\n      jump\t// out\n        /* \"#utility.yul\":11382:11748   */\n    tag_220:\n        /* \"#utility.yul\":11524:11527   */\n      0x00\n        /* \"#utility.yul\":11545:11612   */\n      tag_352\n        /* \"#utility.yul\":11609:11611   */\n      0x2a\n        /* \"#utility.yul\":11604:11607   */\n      dup4\n        /* \"#utility.yul\":11545:11612   */\n      tag_208\n      jump\t// in\n    tag_352:\n        /* \"#utility.yul\":11538:11612   */\n      swap2\n      pop\n        /* \"#utility.yul\":11621:11714   */\n      tag_353\n        /* \"#utility.yul\":11710:11713   */\n      dup3\n        /* \"#utility.yul\":11621:11714   */\n      tag_219\n      jump\t// in\n    tag_353:\n        /* \"#utility.yul\":11739:11741   */\n      0x40\n        /* \"#utility.yul\":11734:11737   */\n      dup3\n        /* \"#utility.yul\":11730:11742   */\n      add\n        /* \"#utility.yul\":11723:11742   */\n      swap1\n      pop\n        /* \"#utility.yul\":11382:11748   */\n      swap2\n      swap1\n      pop\n      jump\t// out\n        /* \"#utility.yul\":11754:12173   */\n    tag_162:\n        /* \"#utility.yul\":11920:11924   */\n      0x00\n        /* \"#utility.yul\":11958:11960   */\n      0x20\n        /* \"#utility.yul\":11947:11956   */\n      dup3\n        /* \"#utility.yul\":11943:11961   */\n      add\n        /* \"#utility.yul\":11935:11961   */\n      swap1\n      pop\n        /* \"#utility.yul\":12007:12016   */\n      dup2\n        /* \"#utility.yul\":12001:12005   */\n      dup2\n        /* \"#utility.yul\":11997:12017   */\n      sub\n        /* \"#utility.yul\":11993:11994   */\n      0x00\n        /* \"#utility.yul\":11982:11991   */\n      dup4\n        /* \"#utility.yul\":11978:11995   */\n      add\n        /* \"#utility.yul\":11971:12018   */\n      mstore\n        /* \"#utility.yul\":12035:12166   */\n      tag_355\n        /* \"#utility.yul\":12161:12165   */\n      dup2\n        /* \"#utility.yul\":12035:12166   */\n      tag_220\n      jump\t// in\n    tag_355:\n        /* \"#utility.yul\":12027:12166   */\n      swap1\n      pop\n        /* \"#utility.yul\":11754:12173   */\n      swap2\n      swap1\n      pop\n      jump\t// out\n        /* \"#utility.yul\":12179:12404   */\n    tag_221:\n        /* \"#utility.yul\":12319:12353   */\n      0x416464726573733a20696e73756666696369656e742062616c616e636520666f\n        /* \"#utility.yul\":12315:12316   */\n      0x00\n        /* \"#utility.yul\":12307:12313   */\n      dup3\n        /* \"#utility.yul\":12303:12317   */\n      add\n        /* \"#utility.yul\":12296:12354   */\n      mstore\n        /* \"#utility.yul\":12388:12396   */\n      0x722063616c6c0000000000000000000000000000000000000000000000000000\n        /* \"#utility.yul\":12383:12385   */\n      0x20\n        /* \"#utility.yul\":12375:12381   */\n      dup3\n        /* \"#utility.yul\":12371:12386   */\n      add\n        /* \"#utility.yul\":12364:12397   */\n      mstore\n        /* \"#utility.yul\":12179:12404   */\n      pop\n      jump\t// out\n        /* \"#utility.yul\":12410:12776   */\n    tag_222:\n        /* \"#utility.yul\":12552:12555   */\n      0x00\n        /* \"#utility.yul\":12573:12640   */\n      tag_358\n        /* \"#utility.yul\":12637:12639   */\n      0x26\n        /* \"#utility.yul\":12632:12635   */\n      dup4\n        /* \"#utility.yul\":12573:12640   */\n      tag_208\n      jump\t// in\n    tag_358:\n        /* \"#utility.yul\":12566:12640   */\n      swap2\n      pop\n        /* \"#utility.yul\":12649:12742   */\n      tag_359\n        /* \"#utility.yul\":12738:12741   */\n      dup3\n        /* \"#utility.yul\":12649:12742   */\n      tag_221\n      jump\t// in\n    tag_359:\n        /* \"#utility.yul\":12767:12769   */\n      0x40\n        /* \"#utility.yul\":12762:12765   */\n      dup3\n        /* \"#utility.yul\":12758:12770   */\n      add\n        /* \"#utility.yul\":12751:12770   */\n      swap1\n      pop\n        /* \"#utility.yul\":12410:12776   */\n      swap2\n      swap1\n      pop\n      jump\t// out\n        /* \"#utility.yul\":12782:13201   */\n    tag_169:\n        /* \"#utility.yul\":12948:12952   */\n      0x00\n        /* \"#utility.yul\":12986:12988   */\n      0x20\n        /* \"#utility.yul\":12975:12984   */\n      dup3\n        /* \"#utility.yul\":12971:12989   */\n      add\n        /* \"#utility.yul\":12963:12989   */\n      swap1\n      pop\n        /* \"#utility.yul\":13035:13044   */\n      dup2\n        /* \"#utility.yul\":13029:13033   */\n      dup2\n        /* \"#utility.yul\":13025:13045   */\n      sub\n        /* \"#utility.yul\":13021:13022   */\n      0x00\n        /* \"#utility.yul\":13010:13019   */\n      dup4\n        /* \"#utility.yul\":13006:13023   */\n      add\n        /* \"#utility.yul\":12999:13046   */\n      mstore\n        /* \"#utility.yul\":13063:13194   */\n      tag_361\n        /* \"#utility.yul\":13189:13193   */\n      dup2\n        /* \"#utility.yul\":13063:13194   */\n      tag_222\n      jump\t// in\n    tag_361:\n        /* \"#utility.yul\":13055:13194   */\n      swap1\n      pop\n        /* \"#utility.yul\":12782:13201   */\n      swap2\n      swap1\n      pop\n      jump\t// out\n        /* \"#utility.yul\":13207:13386   */\n    tag_223:\n        /* \"#utility.yul\":13347:13378   */\n      0x416464726573733a2063616c6c20746f206e6f6e2d636f6e7472616374000000\n        /* \"#utility.yul\":13343:13344   */\n      0x00\n        /* \"#utility.yul\":13335:13341   */\n      dup3\n        /* \"#utility.yul\":13331:13345   */\n      add\n        /* \"#utility.yul\":13324:13379   */\n      mstore\n        /* \"#utility.yul\":13207:13386   */\n      pop\n      jump\t// out\n        /* \"#utility.yul\":13392:13758   */\n    tag_224:\n        /* \"#utility.yul\":13534:13537   */\n      0x00\n        /* \"#utility.yul\":13555:13622   */\n      tag_364\n        /* \"#utility.yul\":13619:13621   */\n      0x1d\n        /* \"#utility.yul\":13614:13617   */\n      dup4\n        /* \"#utility.yul\":13555:13622   */\n      tag_208\n      jump\t// in\n    tag_364:\n        /* \"#utility.yul\":13548:13622   */\n      swap2\n      pop\n        /* \"#utility.yul\":13631:13724   */\n      tag_365\n        /* \"#utility.yul\":13720:13723   */\n      dup3\n        /* \"#utility.yul\":13631:13724   */\n      tag_223\n      jump\t// in\n    tag_365:\n        /* \"#utility.yul\":13749:13751   */\n      0x20\n        /* \"#utility.yul\":13744:13747   */\n      dup3\n        /* \"#utility.yul\":13740:13752   */\n      add\n        /* \"#utility.yul\":13733:13752   */\n      swap1\n      pop\n        /* \"#utility.yul\":13392:13758   */\n      swap2\n      swap1\n      pop\n      jump\t// out\n        /* \"#utility.yul\":13764:14183   */\n    tag_174:\n        /* \"#utility.yul\":13930:13934   */\n      0x00\n        /* \"#utility.yul\":13968:13970   */\n      0x20\n        /* \"#utility.yul\":13957:13966   */\n      dup3\n        /* \"#utility.yul\":13953:13971   */\n      add\n        /* \"#utility.yul\":13945:13971   */\n      swap1\n      pop\n        /* \"#utility.yul\":14017:14026   */\n      dup2\n        /* \"#utility.yul\":14011:14015   */\n      dup2\n        /* \"#utility.yul\":14007:14027   */\n      sub\n        /* \"#utility.yul\":14003:14004   */\n      0x00\n        /* \"#utility.yul\":13992:14001   */\n      dup4\n        /* \"#utility.yul\":13988:14005   */\n      add\n        /* \"#utility.yul\":13981:14028   */\n      mstore\n        /* \"#utility.yul\":14045:14176   */\n      tag_367\n        /* \"#utility.yul\":14171:14175   */\n      dup2\n        /* \"#utility.yul\":14045:14176   */\n      tag_224\n      jump\t// in\n    tag_367:\n        /* \"#utility.yul\":14037:14176   */\n      swap1\n      pop\n        /* \"#utility.yul\":13764:14183   */\n      swap2\n      swap1\n      pop\n      jump\t// out\n        /* \"#utility.yul\":14189:14287   */\n    tag_225:\n        /* \"#utility.yul\":14240:14246   */\n      0x00\n        /* \"#utility.yul\":14274:14279   */\n      dup2\n        /* \"#utility.yul\":14268:14280   */\n      mload\n        /* \"#utility.yul\":14258:14280   */\n      swap1\n      pop\n        /* \"#utility.yul\":14189:14287   */\n      swap2\n      swap1\n      pop\n      jump\t// out\n        /* \"#utility.yul\":14293:14440   */\n    tag_226:\n        /* \"#utility.yul\":14394:14405   */\n      0x00\n        /* \"#utility.yul\":14431:14434   */\n      dup2\n        /* \"#utility.yul\":14416:14434   */\n      swap1\n      pop\n        /* \"#utility.yul\":14293:14440   */\n      swap3\n      swap2\n      pop\n      pop\n      jump\t// out\n        /* \"#utility.yul\":14446:14753   */\n    tag_227:\n        /* \"#utility.yul\":14514:14515   */\n      0x00\n        /* \"#utility.yul\":14524:14637   */\n    tag_371:\n        /* \"#utility.yul\":14538:14544   */\n      dup4\n        /* \"#utility.yul\":14535:14536   */\n      dup2\n        /* \"#utility.yul\":14532:14545   */\n      lt\n        /* \"#utility.yul\":14524:14637   */\n      iszero\n      tag_373\n      jumpi\n        /* \"#utility.yul\":14623:14624   */\n      dup1\n        /* \"#utility.yul\":14618:14621   */\n      dup3\n        /* \"#utility.yul\":14614:14625   */\n      add\n        /* \"#utility.yul\":14608:14626   */\n      mload\n        /* \"#utility.yul\":14604:14605   */\n      dup2\n        /* \"#utility.yul\":14599:14602   */\n      dup5\n        /* \"#utility.yul\":14595:14606   */\n      add\n        /* \"#utility.yul\":14588:14627   */\n      mstore\n        /* \"#utility.yul\":14560:14562   */\n      0x20\n        /* \"#utility.yul\":14557:14558   */\n      dup2\n        /* \"#utility.yul\":14553:14563   */\n      add\n        /* \"#utility.yul\":14548:14563   */\n      swap1\n      pop\n        /* \"#utility.yul\":14524:14637   */\n      jump(tag_371)\n    tag_373:\n        /* \"#utility.yul\":14655:14661   */\n      dup4\n        /* \"#utility.yul\":14652:14653   */\n      dup2\n        /* \"#utility.yul\":14649:14662   */\n      gt\n        /* \"#utility.yul\":14646:14747   */\n      iszero\n      tag_374\n      jumpi\n        /* \"#utility.yul\":14735:14736   */\n      0x00\n        /* \"#utility.yul\":14726:14732   */\n      dup5\n        /* \"#utility.yul\":14721:14724   */\n      dup5\n        /* \"#utility.yul\":14717:14733   */\n      add\n        /* \"#utility.yul\":14710:14737   */\n      mstore\n        /* \"#utility.yul\":14646:14747   */\n    tag_374:\n        /* \"#utility.yul\":14495:14753   */\n      pop\n        /* \"#utility.yul\":14446:14753   */\n      pop\n      pop\n      pop\n      jump\t// out\n        /* \"#utility.yul\":14759:15132   */\n    tag_228:\n        /* \"#utility.yul\":14863:14866   */\n      0x00\n        /* \"#utility.yul\":14891:14929   */\n      tag_376\n        /* \"#utility.yul\":14923:14928   */\n      dup3\n        /* \"#utility.yul\":14891:14929   */\n      tag_225\n      jump\t// in\n    tag_376:\n        /* \"#utility.yul\":14945:15033   */\n      tag_377\n        /* \"#utility.yul\":15026:15032   */\n      dup2\n        /* \"#utility.yul\":15021:15024   */\n      dup6\n        /* \"#utility.yul\":14945:15033   */\n      tag_226\n      jump\t// in\n    tag_377:\n        /* \"#utility.yul\":14938:15033   */\n      swap4\n      pop\n        /* \"#utility.yul\":15042:15094   */\n      tag_378\n        /* \"#utility.yul\":15087:15093   */\n      dup2\n        /* \"#utility.yul\":15082:15085   */\n      dup6\n        /* \"#utility.yul\":15075:15079   */\n      0x20\n        /* \"#utility.yul\":15068:15073   */\n      dup7\n        /* \"#utility.yul\":15064:15080   */\n      add\n        /* \"#utility.yul\":15042:15094   */\n      tag_227\n      jump\t// in\n    tag_378:\n        /* \"#utility.yul\":15119:15125   */\n      dup1\n        /* \"#utility.yul\":15114:15117   */\n      dup5\n        /* \"#utility.yul\":15110:15126   */\n      add\n        /* \"#utility.yul\":15103:15126   */\n      swap2\n      pop\n        /* \"#utility.yul\":14867:15132   */\n      pop\n        /* \"#utility.yul\":14759:15132   */\n      swap3\n      swap2\n      pop\n      pop\n      jump\t// out\n        /* \"#utility.yul\":15138:15409   */\n    tag_176:\n        /* \"#utility.yul\":15268:15271   */\n      0x00\n        /* \"#utility.yul\":15290:15383   */\n      tag_380\n        /* \"#utility.yul\":15379:15382   */\n      dup3\n        /* \"#utility.yul\":15370:15376   */\n      dup5\n        /* \"#utility.yul\":15290:15383   */\n      tag_228\n      jump\t// in\n    tag_380:\n        /* \"#utility.yul\":15283:15383   */\n      swap2\n      pop\n        /* \"#utility.yul\":15400:15403   */\n      dup2\n        /* \"#utility.yul\":15393:15403   */\n      swap1\n      pop\n        /* \"#utility.yul\":15138:15409   */\n      swap3\n      swap2\n      pop\n      pop\n      jump\t// out\n        /* \"#utility.yul\":15415:15514   */\n    tag_229:\n        /* \"#utility.yul\":15467:15473   */\n      0x00\n        /* \"#utility.yul\":15501:15506   */\n      dup2\n        /* \"#utility.yul\":15495:15507   */\n      mload\n        /* \"#utility.yul\":15485:15507   */\n      swap1\n      pop\n        /* \"#utility.yul\":15415:15514   */\n      swap2\n      swap1\n      pop\n      jump\t// out\n        /* \"#utility.yul\":15520:15622   */\n    tag_230:\n        /* \"#utility.yul\":15561:15567   */\n      0x00\n        /* \"#utility.yul\":15612:15614   */\n      0x1f\n        /* \"#utility.yul\":15608:15615   */\n      not\n        /* \"#utility.yul\":15603:15605   */\n      0x1f\n        /* \"#utility.yul\":15596:15601   */\n      dup4\n        /* \"#utility.yul\":15592:15606   */\n      add\n        /* \"#utility.yul\":15588:15616   */\n      and\n        /* \"#utility.yul\":15578:15616   */\n      swap1\n      pop\n        /* \"#utility.yul\":15520:15622   */\n      swap2\n      swap1\n      pop\n      jump\t// out\n        /* \"#utility.yul\":15628:15992   */\n    tag_231:\n        /* \"#utility.yul\":15716:15719   */\n      0x00\n        /* \"#utility.yul\":15744:15783   */\n      tag_384\n        /* \"#utility.yul\":15777:15782   */\n      dup3\n        /* \"#utility.yul\":15744:15783   */\n      tag_229\n      jump\t// in\n    tag_384:\n        /* \"#utility.yul\":15799:15870   */\n      tag_385\n        /* \"#utility.yul\":15863:15869   */\n      dup2\n        /* \"#utility.yul\":15858:15861   */\n      dup6\n        /* \"#utility.yul\":15799:15870   */\n      tag_208\n      jump\t// in\n    tag_385:\n        /* \"#utility.yul\":15792:15870   */\n      swap4\n      pop\n        /* \"#utility.yul\":15879:15931   */\n      tag_386\n        /* \"#utility.yul\":15924:15930   */\n      dup2\n        /* \"#utility.yul\":15919:15922   */\n      dup6\n        /* \"#utility.yul\":15912:15916   */\n      0x20\n        /* \"#utility.yul\":15905:15910   */\n      dup7\n        /* \"#utility.yul\":15901:15917   */\n      add\n        /* \"#utility.yul\":15879:15931   */\n      tag_227\n      jump\t// in\n    tag_386:\n        /* \"#utility.yul\":15956:15985   */\n      tag_387\n        /* \"#utility.yul\":15978:15984   */\n      dup2\n        /* \"#utility.yul\":15956:15985   */\n      tag_230\n      jump\t// in\n    tag_387:\n        /* \"#utility.yul\":15951:15954   */\n      dup5\n        /* \"#utility.yul\":15947:15986   */\n      add\n        /* \"#utility.yul\":15940:15986   */\n      swap2\n      pop\n        /* \"#utility.yul\":15720:15992   */\n      pop\n        /* \"#utility.yul\":15628:15992   */\n      swap3\n      swap2\n      pop\n      pop\n      jump\t// out\n        /* \"#utility.yul\":15998:16311   */\n    tag_189:\n        /* \"#utility.yul\":16111:16115   */\n      0x00\n        /* \"#utility.yul\":16149:16151   */\n      0x20\n        /* \"#utility.yul\":16138:16147   */\n      dup3\n        /* \"#utility.yul\":16134:16152   */\n      add\n        /* \"#utility.yul\":16126:16152   */\n      swap1\n      pop\n        /* \"#utility.yul\":16198:16207   */\n      dup2\n        /* \"#utility.yul\":16192:16196   */\n      dup2\n        /* \"#utility.yul\":16188:16208   */\n      sub\n        /* \"#utility.yul\":16184:16185   */\n      0x00\n        /* \"#utility.yul\":16173:16182   */\n      dup4\n        /* \"#utility.yul\":16169:16186   */\n      add\n        /* \"#utility.yul\":16162:16209   */\n      mstore\n        /* \"#utility.yul\":16226:16304   */\n      tag_389\n        /* \"#utility.yul\":16299:16303   */\n      dup2\n        /* \"#utility.yul\":16290:16296   */\n      dup5\n        /* \"#utility.yul\":16226:16304   */\n      tag_231\n      jump\t// in\n    tag_389:\n        /* \"#utility.yul\":16218:16304   */\n      swap1\n      pop\n        /* \"#utility.yul\":15998:16311   */\n      swap3\n      swap2\n      pop\n      pop\n      jump\t// out\n\n    auxdata: 0xa26469706673582212209b6c0c60e2ff688318b023d09b0e3dcba35dc5164928fecd4ff7fdb209d880f464736f6c634300080b0033\n}\n",
				"bytecode": {
					"linkReferences": {},
					"object": "608060405234801561001057600080fd5b5061002d61002261003260201b60201c565b61003a60201b60201c565b6100fe565b600033905090565b60008060009054906101000a900473ffffffffffffffffffffffffffffffffffffffff169050816000806101000a81548173ffffffffffffffffffffffffffffffffffffffff021916908373ffffffffffffffffffffffffffffffffffffffff1602179055508173ffffffffffffffffffffffffffffffffffffffff168173ffffffffffffffffffffffffffffffffffffffff167f8be0079c531659141344cd1fd0a4f28419497f9722a3daafe3b4186f6b6457e060405160405180910390a35050565b6117c88061010d6000396000f3fe608060405234801561001057600080fd5b50600436106100a95760003560e01c806386d1a69f1161007157806386d1a69f1461013e5780638da5cb5b146101485780639613252114610166578063be9a655514610184578063f2fde38b146101a2578063fbccedae146101be576100a9565b80630a17b06b146100ae5780630fb5a6b4146100de578063231815da146100fc57806327c2e72214610118578063715018a614610134575b600080fd5b6100c860048036038101906100c39190610ee2565b6101dc565b6040516100d59190610f28565b60405180910390f35b6100e6610240565b6040516100f39190610f28565b60405180910390f35b61011660048036038101906101119190610fa1565b610268565b005b610132600480360381019061012d919061106d565b6103a6565b005b61013c610495565b005b61014661051d565b005b610150610785565b60405161015d91906110c9565b60405180910390f35b61016e6107ae565b60405161017b9190610f28565b60405180910390f35b61018c610854565b6040516101999190610f28565b60405180910390f35b6101bc60048036038101906101b791906110e4565b61087c565b005b6101c6610974565b6040516101d39190610f28565b60405180910390f35b60006102396101e96107ae565b600360003373ffffffffffffffffffffffffffffffffffffffff1673ffffffffffffffffffffffffffffffffffffffff168152602001908152602001600020546102339190611140565b83610996565b9050919050565b6000600460089054906101000a900467ffffffffffffffff1667ffffffffffffffff16905090565b60001515600660009054906101000a900460ff161515146102be576040517f08c379a00000000000000000000000000000000000000000000000000000000081526004016102b5906111f3565b60405180910390fd5b6001600660006101000a81548160ff02191690831515021790555083600160006101000a81548173ffffffffffffffffffffffffffffffffffffffff021916908373ffffffffffffffffffffffffffffffffffffffff16021790555080836103269190611213565b600460006101000a81548167ffffffffffffffff021916908367ffffffffffffffff16021790555081600460086101000a81548167ffffffffffffffff021916908367ffffffffffffffff16021790555080600460106101000a81548167ffffffffffffffff021916908367ffffffffffffffff16021790555050505050565b6103ae610a30565b73ffffffffffffffffffffffffffffffffffffffff166103cc610785565b73ffffffffffffffffffffffffffffffffffffffff1614610422576040517f08c379a00000000000000000000000000000000000000000000000000000000081526004016104199061129d565b60405180910390fd5b60005b8282905081101561049057610480838383818110610446576104456112bd565b5b905060400201600001602081019061045e91906110e4565b848484818110610471576104706112bd565b5b90506040020160200135610a38565b61048981610a92565b9050610425565b505050565b61049d610a30565b73ffffffffffffffffffffffffffffffffffffffff166104bb610785565b73ffffffffffffffffffffffffffffffffffffffff1614610511576040517f08c379a00000000000000000000000000000000000000000000000000000000081526004016105089061129d565b60405180910390fd5b61051b6000610a9f565b565b6000610527610974565b9050600560003373ffffffffffffffffffffffffffffffffffffffff1673ffffffffffffffffffffffffffffffffffffffff16815260200190815260200160002054610571610b63565b11156107825761057f610b63565b600560003373ffffffffffffffffffffffffffffffffffffffff1673ffffffffffffffffffffffffffffffffffffffff1681526020019081526020016000208190555080600360003373ffffffffffffffffffffffffffffffffffffffff1673ffffffffffffffffffffffffffffffffffffffff168152602001908152602001600020600082825461061191906112ec565b925050819055508060026000600160009054906101000a900473ffffffffffffffffffffffffffffffffffffffff1673ffffffffffffffffffffffffffffffffffffffff1673ffffffffffffffffffffffffffffffffffffffff16815260200190815260200160002060003373ffffffffffffffffffffffffffffffffffffffff1673ffffffffffffffffffffffffffffffffffffffff16815260200190815260200160002060008282546106c69190611140565b925050819055503373ffffffffffffffffffffffffffffffffffffffff16600160009054906101000a900473ffffffffffffffffffffffffffffffffffffffff1673ffffffffffffffffffffffffffffffffffffffff167f1998e30db89daf293a52c4fc4c4470cd506aafc3f9683e8e5daddad80cd6f4a48360405161074c9190610f28565b60405180910390a3610781600160009054906101000a900473ffffffffffffffffffffffffffffffffffffffff163383610b95565b5b50565b60008060009054906101000a900473ffffffffffffffffffffffffffffffffffffffff16905090565b600060026000600160009054906101000a900473ffffffffffffffffffffffffffffffffffffffff1673ffffffffffffffffffffffffffffffffffffffff1673ffffffffffffffffffffffffffffffffffffffff16815260200190815260200160002060003373ffffffffffffffffffffffffffffffffffffffff1673ffffffffffffffffffffffffffffffffffffffff16815260200190815260200160002054905090565b6000600460009054906101000a900467ffffffffffffffff1667ffffffffffffffff16905090565b610884610a30565b73ffffffffffffffffffffffffffffffffffffffff166108a2610785565b73ffffffffffffffffffffffffffffffffffffffff16146108f8576040517f08c379a00000000000000000000000000000000000000000000000000000000081526004016108ef9061129d565b60405180910390fd5b600073ffffffffffffffffffffffffffffffffffffffff168173ffffffffffffffffffffffffffffffffffffffff161415610968576040517f08c379a000000000000000000000000000000000000000000000000000000000815260040161095f90611392565b60405180910390fd5b61097181610a9f565b50565b600061097e6107ae565b610987426101dc565b61099191906112ec565b905090565b60006109a0610854565b8267ffffffffffffffff1610156109ba5760009050610a2a565b6109c2610240565b6109ca610854565b6109d49190611140565b8267ffffffffffffffff1611156109ed57829050610a2a565b6109f5610240565b6109fd610854565b8367ffffffffffffffff16610a1291906112ec565b84610a1d91906113b2565b610a27919061143b565b90505b92915050565b600033905090565b80600360008473ffffffffffffffffffffffffffffffffffffffff1673ffffffffffffffffffffffffffffffffffffffff1681526020019081526020016000206000828254610a879190611140565b925050819055505050565b6000600182019050919050565b60008060009054906101000a900473ffffffffffffffffffffffffffffffffffffffff169050816000806101000a81548173ffffffffffffffffffffffffffffffffffffffff021916908373ffffffffffffffffffffffffffffffffffffffff1602179055508173ffffffffffffffffffffffffffffffffffffffff168173ffffffffffffffffffffffffffffffffffffffff167f8be0079c531659141344cd1fd0a4f28419497f9722a3daafe3b4186f6b6457e060405160405180910390a35050565b600062278d00610b71610854565b4267ffffffffffffffff16610b8691906112ec565b610b90919061143b565b905090565b610c168363a9059cbb60e01b8484604051602401610bb492919061146c565b604051602081830303815290604052907bffffffffffffffffffffffffffffffffffffffffffffffffffffffff19166020820180517bffffffffffffffffffffffffffffffffffffffffffffffffffffffff8381831617835250505050610c1b565b505050565b6000610c7d826040518060400160405280602081526020017f5361666545524332303a206c6f772d6c6576656c2063616c6c206661696c65648152508573ffffffffffffffffffffffffffffffffffffffff16610ce29092919063ffffffff16565b9050600081511115610cdd5780806020019051810190610c9d91906114cd565b610cdc576040517f08c379a0000000000000000000000000000000000000000000000000000000008152600401610cd39061156c565b60405180910390fd5b5b505050565b6060610cf18484600085610cfa565b90509392505050565b606082471015610d3f576040517f08c379a0000000000000000000000000000000000000000000000000000000008152600401610d36906115fe565b60405180910390fd5b610d4885610e0e565b610d87576040517f08c379a0000000000000000000000000000000000000000000000000000000008152600401610d7e9061166a565b60405180910390fd5b6000808673ffffffffffffffffffffffffffffffffffffffff168587604051610db09190611704565b60006040518083038185875af1925050503d8060008114610ded576040519150601f19603f3d011682016040523d82523d6000602084013e610df2565b606091505b5091509150610e02828286610e31565b92505050949350505050565b6000808273ffffffffffffffffffffffffffffffffffffffff163b119050919050565b60608315610e4157829050610e91565b600083511115610e545782518084602001fd5b816040517f08c379a0000000000000000000000000000000000000000000000000000000008152600401610e889190611770565b60405180910390fd5b9392505050565b600080fd5b600080fd5b600067ffffffffffffffff82169050919050565b610ebf81610ea2565b8114610eca57600080fd5b50565b600081359050610edc81610eb6565b92915050565b600060208284031215610ef857610ef7610e98565b5b6000610f0684828501610ecd565b91505092915050565b6000819050919050565b610f2281610f0f565b82525050565b6000602082019050610f3d6000830184610f19565b92915050565b600073ffffffffffffffffffffffffffffffffffffffff82169050919050565b6000610f6e82610f43565b9050919050565b610f7e81610f63565b8114610f8957600080fd5b50565b600081359050610f9b81610f75565b92915050565b60008060008060808587031215610fbb57610fba610e98565b5b6000610fc987828801610f8c565b9450506020610fda87828801610ecd565b9350506040610feb87828801610ecd565b9250506060610ffc87828801610ecd565b91505092959194509250565b600080fd5b600080fd5b600080fd5b60008083601f84011261102d5761102c611008565b5b8235905067ffffffffffffffff81111561104a5761104961100d565b5b60208301915083604082028301111561106657611065611012565b5b9250929050565b6000806020838503121561108457611083610e98565b5b600083013567ffffffffffffffff8111156110a2576110a1610e9d565b5b6110ae85828601611017565b92509250509250929050565b6110c381610f63565b82525050565b60006020820190506110de60008301846110ba565b92915050565b6000602082840312156110fa576110f9610e98565b5b600061110884828501610f8c565b91505092915050565b7f4e487b7100000000000000000000000000000000000000000000000000000000600052601160045260246000fd5b600061114b82610f0f565b915061115683610f0f565b9250827fffffffffffffffffffffffffffffffffffffffffffffffffffffffffffffffff0382111561118b5761118a611111565b5b828201905092915050565b600082825260208201905092915050565b7f496e697469617465640000000000000000000000000000000000000000000000600082015250565b60006111dd600983611196565b91506111e8826111a7565b602082019050919050565b6000602082019050818103600083015261120c816111d0565b9050919050565b600061121e82610ea2565b915061122983610ea2565b92508267ffffffffffffffff0382111561124657611245611111565b5b828201905092915050565b7f4f776e61626c653a2063616c6c6572206973206e6f7420746865206f776e6572600082015250565b6000611287602083611196565b915061129282611251565b602082019050919050565b600060208201905081810360008301526112b68161127a565b9050919050565b7f4e487b7100000000000000000000000000000000000000000000000000000000600052603260045260246000fd5b60006112f782610f0f565b915061130283610f0f565b92508282101561131557611314611111565b5b828203905092915050565b7f4f776e61626c653a206e6577206f776e657220697320746865207a65726f206160008201527f6464726573730000000000000000000000000000000000000000000000000000602082015250565b600061137c602683611196565b915061138782611320565b604082019050919050565b600060208201905081810360008301526113ab8161136f565b9050919050565b60006113bd82610f0f565b91506113c883610f0f565b9250817fffffffffffffffffffffffffffffffffffffffffffffffffffffffffffffffff048311821515161561140157611400611111565b5b828202905092915050565b7f4e487b7100000000000000000000000000000000000000000000000000000000600052601260045260246000fd5b600061144682610f0f565b915061145183610f0f565b9250826114615761146061140c565b5b828204905092915050565b600060408201905061148160008301856110ba565b61148e6020830184610f19565b9392505050565b60008115159050919050565b6114aa81611495565b81146114b557600080fd5b50565b6000815190506114c7816114a1565b92915050565b6000602082840312156114e3576114e2610e98565b5b60006114f1848285016114b8565b91505092915050565b7f5361666545524332303a204552433230206f7065726174696f6e20646964206e60008201527f6f74207375636365656400000000000000000000000000000000000000000000602082015250565b6000611556602a83611196565b9150611561826114fa565b604082019050919050565b6000602082019050818103600083015261158581611549565b9050919050565b7f416464726573733a20696e73756666696369656e742062616c616e636520666f60008201527f722063616c6c0000000000000000000000000000000000000000000000000000602082015250565b60006115e8602683611196565b91506115f38261158c565b604082019050919050565b60006020820190508181036000830152611617816115db565b9050919050565b7f416464726573733a2063616c6c20746f206e6f6e2d636f6e7472616374000000600082015250565b6000611654601d83611196565b915061165f8261161e565b602082019050919050565b6000602082019050818103600083015261168381611647565b9050919050565b600081519050919050565b600081905092915050565b60005b838110156116be5780820151818401526020810190506116a3565b838111156116cd576000848401525b50505050565b60006116de8261168a565b6116e88185611695565b93506116f88185602086016116a0565b80840191505092915050565b600061171082846116d3565b915081905092915050565b600081519050919050565b6000601f19601f8301169050919050565b60006117428261171b565b61174c8185611196565b935061175c8185602086016116a0565b61176581611726565b840191505092915050565b6000602082019050818103600083015261178a8184611737565b90509291505056fea26469706673582212209b6c0c60e2ff688318b023d09b0e3dcba35dc5164928fecd4ff7fdb209d880f464736f6c634300080b0033",
					"opcodes": "PUSH1 0x80 PUSH1 0x40 MSTORE CALLVALUE DUP1 ISZERO PUSH2 0x10 JUMPI PUSH1 0x0 DUP1 REVERT JUMPDEST POP PUSH2 0x2D PUSH2 0x22 PUSH2 0x32 PUSH1 0x20 SHL PUSH1 0x20 SHR JUMP JUMPDEST PUSH2 0x3A PUSH1 0x20 SHL PUSH1 0x20 SHR JUMP JUMPDEST PUSH2 0xFE JUMP JUMPDEST PUSH1 0x0 CALLER SWAP1 POP SWAP1 JUMP JUMPDEST PUSH1 0x0 DUP1 PUSH1 0x0 SWAP1 SLOAD SWAP1 PUSH2 0x100 EXP SWAP1 DIV PUSH20 0xFFFFFFFFFFFFFFFFFFFFFFFFFFFFFFFFFFFFFFFF AND SWAP1 POP DUP2 PUSH1 0x0 DUP1 PUSH2 0x100 EXP DUP2 SLOAD DUP2 PUSH20 0xFFFFFFFFFFFFFFFFFFFFFFFFFFFFFFFFFFFFFFFF MUL NOT AND SWAP1 DUP4 PUSH20 0xFFFFFFFFFFFFFFFFFFFFFFFFFFFFFFFFFFFFFFFF AND MUL OR SWAP1 SSTORE POP DUP2 PUSH20 0xFFFFFFFFFFFFFFFFFFFFFFFFFFFFFFFFFFFFFFFF AND DUP2 PUSH20 0xFFFFFFFFFFFFFFFFFFFFFFFFFFFFFFFFFFFFFFFF AND PUSH32 0x8BE0079C531659141344CD1FD0A4F28419497F9722A3DAAFE3B4186F6B6457E0 PUSH1 0x40 MLOAD PUSH1 0x40 MLOAD DUP1 SWAP2 SUB SWAP1 LOG3 POP POP JUMP JUMPDEST PUSH2 0x17C8 DUP1 PUSH2 0x10D PUSH1 0x0 CODECOPY PUSH1 0x0 RETURN INVALID PUSH1 0x80 PUSH1 0x40 MSTORE CALLVALUE DUP1 ISZERO PUSH2 0x10 JUMPI PUSH1 0x0 DUP1 REVERT JUMPDEST POP PUSH1 0x4 CALLDATASIZE LT PUSH2 0xA9 JUMPI PUSH1 0x0 CALLDATALOAD PUSH1 0xE0 SHR DUP1 PUSH4 0x86D1A69F GT PUSH2 0x71 JUMPI DUP1 PUSH4 0x86D1A69F EQ PUSH2 0x13E JUMPI DUP1 PUSH4 0x8DA5CB5B EQ PUSH2 0x148 JUMPI DUP1 PUSH4 0x96132521 EQ PUSH2 0x166 JUMPI DUP1 PUSH4 0xBE9A6555 EQ PUSH2 0x184 JUMPI DUP1 PUSH4 0xF2FDE38B EQ PUSH2 0x1A2 JUMPI DUP1 PUSH4 0xFBCCEDAE EQ PUSH2 0x1BE JUMPI PUSH2 0xA9 JUMP JUMPDEST DUP1 PUSH4 0xA17B06B EQ PUSH2 0xAE JUMPI DUP1 PUSH4 0xFB5A6B4 EQ PUSH2 0xDE JUMPI DUP1 PUSH4 0x231815DA EQ PUSH2 0xFC JUMPI DUP1 PUSH4 0x27C2E722 EQ PUSH2 0x118 JUMPI DUP1 PUSH4 0x715018A6 EQ PUSH2 0x134 JUMPI JUMPDEST PUSH1 0x0 DUP1 REVERT JUMPDEST PUSH2 0xC8 PUSH1 0x4 DUP1 CALLDATASIZE SUB DUP2 ADD SWAP1 PUSH2 0xC3 SWAP2 SWAP1 PUSH2 0xEE2 JUMP JUMPDEST PUSH2 0x1DC JUMP JUMPDEST PUSH1 0x40 MLOAD PUSH2 0xD5 SWAP2 SWAP1 PUSH2 0xF28 JUMP JUMPDEST PUSH1 0x40 MLOAD DUP1 SWAP2 SUB SWAP1 RETURN JUMPDEST PUSH2 0xE6 PUSH2 0x240 JUMP JUMPDEST PUSH1 0x40 MLOAD PUSH2 0xF3 SWAP2 SWAP1 PUSH2 0xF28 JUMP JUMPDEST PUSH1 0x40 MLOAD DUP1 SWAP2 SUB SWAP1 RETURN JUMPDEST PUSH2 0x116 PUSH1 0x4 DUP1 CALLDATASIZE SUB DUP2 ADD SWAP1 PUSH2 0x111 SWAP2 SWAP1 PUSH2 0xFA1 JUMP JUMPDEST PUSH2 0x268 JUMP JUMPDEST STOP JUMPDEST PUSH2 0x132 PUSH1 0x4 DUP1 CALLDATASIZE SUB DUP2 ADD SWAP1 PUSH2 0x12D SWAP2 SWAP1 PUSH2 0x106D JUMP JUMPDEST PUSH2 0x3A6 JUMP JUMPDEST STOP JUMPDEST PUSH2 0x13C PUSH2 0x495 JUMP JUMPDEST STOP JUMPDEST PUSH2 0x146 PUSH2 0x51D JUMP JUMPDEST STOP JUMPDEST PUSH2 0x150 PUSH2 0x785 JUMP JUMPDEST PUSH1 0x40 MLOAD PUSH2 0x15D SWAP2 SWAP1 PUSH2 0x10C9 JUMP JUMPDEST PUSH1 0x40 MLOAD DUP1 SWAP2 SUB SWAP1 RETURN JUMPDEST PUSH2 0x16E PUSH2 0x7AE JUMP JUMPDEST PUSH1 0x40 MLOAD PUSH2 0x17B SWAP2 SWAP1 PUSH2 0xF28 JUMP JUMPDEST PUSH1 0x40 MLOAD DUP1 SWAP2 SUB SWAP1 RETURN JUMPDEST PUSH2 0x18C PUSH2 0x854 JUMP JUMPDEST PUSH1 0x40 MLOAD PUSH2 0x199 SWAP2 SWAP1 PUSH2 0xF28 JUMP JUMPDEST PUSH1 0x40 MLOAD DUP1 SWAP2 SUB SWAP1 RETURN JUMPDEST PUSH2 0x1BC PUSH1 0x4 DUP1 CALLDATASIZE SUB DUP2 ADD SWAP1 PUSH2 0x1B7 SWAP2 SWAP1 PUSH2 0x10E4 JUMP JUMPDEST PUSH2 0x87C JUMP JUMPDEST STOP JUMPDEST PUSH2 0x1C6 PUSH2 0x974 JUMP JUMPDEST PUSH1 0x40 MLOAD PUSH2 0x1D3 SWAP2 SWAP1 PUSH2 0xF28 JUMP JUMPDEST PUSH1 0x40 MLOAD DUP1 SWAP2 SUB SWAP1 RETURN JUMPDEST PUSH1 0x0 PUSH2 0x239 PUSH2 0x1E9 PUSH2 0x7AE JUMP JUMPDEST PUSH1 0x3 PUSH1 0x0 CALLER PUSH20 0xFFFFFFFFFFFFFFFFFFFFFFFFFFFFFFFFFFFFFFFF AND PUSH20 0xFFFFFFFFFFFFFFFFFFFFFFFFFFFFFFFFFFFFFFFF AND DUP2 MSTORE PUSH1 0x20 ADD SWAP1 DUP2 MSTORE PUSH1 0x20 ADD PUSH1 0x0 KECCAK256 SLOAD PUSH2 0x233 SWAP2 SWAP1 PUSH2 0x1140 JUMP JUMPDEST DUP4 PUSH2 0x996 JUMP JUMPDEST SWAP1 POP SWAP2 SWAP1 POP JUMP JUMPDEST PUSH1 0x0 PUSH1 0x4 PUSH1 0x8 SWAP1 SLOAD SWAP1 PUSH2 0x100 EXP SWAP1 DIV PUSH8 0xFFFFFFFFFFFFFFFF AND PUSH8 0xFFFFFFFFFFFFFFFF AND SWAP1 POP SWAP1 JUMP JUMPDEST PUSH1 0x0 ISZERO ISZERO PUSH1 0x6 PUSH1 0x0 SWAP1 SLOAD SWAP1 PUSH2 0x100 EXP SWAP1 DIV PUSH1 0xFF AND ISZERO ISZERO EQ PUSH2 0x2BE JUMPI PUSH1 0x40 MLOAD PUSH32 0x8C379A000000000000000000000000000000000000000000000000000000000 DUP2 MSTORE PUSH1 0x4 ADD PUSH2 0x2B5 SWAP1 PUSH2 0x11F3 JUMP JUMPDEST PUSH1 0x40 MLOAD DUP1 SWAP2 SUB SWAP1 REVERT JUMPDEST PUSH1 0x1 PUSH1 0x6 PUSH1 0x0 PUSH2 0x100 EXP DUP2 SLOAD DUP2 PUSH1 0xFF MUL NOT AND SWAP1 DUP4 ISZERO ISZERO MUL OR SWAP1 SSTORE POP DUP4 PUSH1 0x1 PUSH1 0x0 PUSH2 0x100 EXP DUP2 SLOAD DUP2 PUSH20 0xFFFFFFFFFFFFFFFFFFFFFFFFFFFFFFFFFFFFFFFF MUL NOT AND SWAP1 DUP4 PUSH20 0xFFFFFFFFFFFFFFFFFFFFFFFFFFFFFFFFFFFFFFFF AND MUL OR SWAP1 SSTORE POP DUP1 DUP4 PUSH2 0x326 SWAP2 SWAP1 PUSH2 0x1213 JUMP JUMPDEST PUSH1 0x4 PUSH1 0x0 PUSH2 0x100 EXP DUP2 SLOAD DUP2 PUSH8 0xFFFFFFFFFFFFFFFF MUL NOT AND SWAP1 DUP4 PUSH8 0xFFFFFFFFFFFFFFFF AND MUL OR SWAP1 SSTORE POP DUP2 PUSH1 0x4 PUSH1 0x8 PUSH2 0x100 EXP DUP2 SLOAD DUP2 PUSH8 0xFFFFFFFFFFFFFFFF MUL NOT AND SWAP1 DUP4 PUSH8 0xFFFFFFFFFFFFFFFF AND MUL OR SWAP1 SSTORE POP DUP1 PUSH1 0x4 PUSH1 0x10 PUSH2 0x100 EXP DUP2 SLOAD DUP2 PUSH8 0xFFFFFFFFFFFFFFFF MUL NOT AND SWAP1 DUP4 PUSH8 0xFFFFFFFFFFFFFFFF AND MUL OR SWAP1 SSTORE POP POP POP POP POP JUMP JUMPDEST PUSH2 0x3AE PUSH2 0xA30 JUMP JUMPDEST PUSH20 0xFFFFFFFFFFFFFFFFFFFFFFFFFFFFFFFFFFFFFFFF AND PUSH2 0x3CC PUSH2 0x785 JUMP JUMPDEST PUSH20 0xFFFFFFFFFFFFFFFFFFFFFFFFFFFFFFFFFFFFFFFF AND EQ PUSH2 0x422 JUMPI PUSH1 0x40 MLOAD PUSH32 0x8C379A000000000000000000000000000000000000000000000000000000000 DUP2 MSTORE PUSH1 0x4 ADD PUSH2 0x419 SWAP1 PUSH2 0x129D JUMP JUMPDEST PUSH1 0x40 MLOAD DUP1 SWAP2 SUB SWAP1 REVERT JUMPDEST PUSH1 0x0 JUMPDEST DUP3 DUP3 SWAP1 POP DUP2 LT ISZERO PUSH2 0x490 JUMPI PUSH2 0x480 DUP4 DUP4 DUP4 DUP2 DUP2 LT PUSH2 0x446 JUMPI PUSH2 0x445 PUSH2 0x12BD JUMP JUMPDEST JUMPDEST SWAP1 POP PUSH1 0x40 MUL ADD PUSH1 0x0 ADD PUSH1 0x20 DUP2 ADD SWAP1 PUSH2 0x45E SWAP2 SWAP1 PUSH2 0x10E4 JUMP JUMPDEST DUP5 DUP5 DUP5 DUP2 DUP2 LT PUSH2 0x471 JUMPI PUSH2 0x470 PUSH2 0x12BD JUMP JUMPDEST JUMPDEST SWAP1 POP PUSH1 0x40 MUL ADD PUSH1 0x20 ADD CALLDATALOAD PUSH2 0xA38 JUMP JUMPDEST PUSH2 0x489 DUP2 PUSH2 0xA92 JUMP JUMPDEST SWAP1 POP PUSH2 0x425 JUMP JUMPDEST POP POP POP JUMP JUMPDEST PUSH2 0x49D PUSH2 0xA30 JUMP JUMPDEST PUSH20 0xFFFFFFFFFFFFFFFFFFFFFFFFFFFFFFFFFFFFFFFF AND PUSH2 0x4BB PUSH2 0x785 JUMP JUMPDEST PUSH20 0xFFFFFFFFFFFFFFFFFFFFFFFFFFFFFFFFFFFFFFFF AND EQ PUSH2 0x511 JUMPI PUSH1 0x40 MLOAD PUSH32 0x8C379A000000000000000000000000000000000000000000000000000000000 DUP2 MSTORE PUSH1 0x4 ADD PUSH2 0x508 SWAP1 PUSH2 0x129D JUMP JUMPDEST PUSH1 0x40 MLOAD DUP1 SWAP2 SUB SWAP1 REVERT JUMPDEST PUSH2 0x51B PUSH1 0x0 PUSH2 0xA9F JUMP JUMPDEST JUMP JUMPDEST PUSH1 0x0 PUSH2 0x527 PUSH2 0x974 JUMP JUMPDEST SWAP1 POP PUSH1 0x5 PUSH1 0x0 CALLER PUSH20 0xFFFFFFFFFFFFFFFFFFFFFFFFFFFFFFFFFFFFFFFF AND PUSH20 0xFFFFFFFFFFFFFFFFFFFFFFFFFFFFFFFFFFFFFFFF AND DUP2 MSTORE PUSH1 0x20 ADD SWAP1 DUP2 MSTORE PUSH1 0x20 ADD PUSH1 0x0 KECCAK256 SLOAD PUSH2 0x571 PUSH2 0xB63 JUMP JUMPDEST GT ISZERO PUSH2 0x782 JUMPI PUSH2 0x57F PUSH2 0xB63 JUMP JUMPDEST PUSH1 0x5 PUSH1 0x0 CALLER PUSH20 0xFFFFFFFFFFFFFFFFFFFFFFFFFFFFFFFFFFFFFFFF AND PUSH20 0xFFFFFFFFFFFFFFFFFFFFFFFFFFFFFFFFFFFFFFFF AND DUP2 MSTORE PUSH1 0x20 ADD SWAP1 DUP2 MSTORE PUSH1 0x20 ADD PUSH1 0x0 KECCAK256 DUP2 SWAP1 SSTORE POP DUP1 PUSH1 0x3 PUSH1 0x0 CALLER PUSH20 0xFFFFFFFFFFFFFFFFFFFFFFFFFFFFFFFFFFFFFFFF AND PUSH20 0xFFFFFFFFFFFFFFFFFFFFFFFFFFFFFFFFFFFFFFFF AND DUP2 MSTORE PUSH1 0x20 ADD SWAP1 DUP2 MSTORE PUSH1 0x20 ADD PUSH1 0x0 KECCAK256 PUSH1 0x0 DUP3 DUP3 SLOAD PUSH2 0x611 SWAP2 SWAP1 PUSH2 0x12EC JUMP JUMPDEST SWAP3 POP POP DUP2 SWAP1 SSTORE POP DUP1 PUSH1 0x2 PUSH1 0x0 PUSH1 0x1 PUSH1 0x0 SWAP1 SLOAD SWAP1 PUSH2 0x100 EXP SWAP1 DIV PUSH20 0xFFFFFFFFFFFFFFFFFFFFFFFFFFFFFFFFFFFFFFFF AND PUSH20 0xFFFFFFFFFFFFFFFFFFFFFFFFFFFFFFFFFFFFFFFF AND PUSH20 0xFFFFFFFFFFFFFFFFFFFFFFFFFFFFFFFFFFFFFFFF AND DUP2 MSTORE PUSH1 0x20 ADD SWAP1 DUP2 MSTORE PUSH1 0x20 ADD PUSH1 0x0 KECCAK256 PUSH1 0x0 CALLER PUSH20 0xFFFFFFFFFFFFFFFFFFFFFFFFFFFFFFFFFFFFFFFF AND PUSH20 0xFFFFFFFFFFFFFFFFFFFFFFFFFFFFFFFFFFFFFFFF AND DUP2 MSTORE PUSH1 0x20 ADD SWAP1 DUP2 MSTORE PUSH1 0x20 ADD PUSH1 0x0 KECCAK256 PUSH1 0x0 DUP3 DUP3 SLOAD PUSH2 0x6C6 SWAP2 SWAP1 PUSH2 0x1140 JUMP JUMPDEST SWAP3 POP POP DUP2 SWAP1 SSTORE POP CALLER PUSH20 0xFFFFFFFFFFFFFFFFFFFFFFFFFFFFFFFFFFFFFFFF AND PUSH1 0x1 PUSH1 0x0 SWAP1 SLOAD SWAP1 PUSH2 0x100 EXP SWAP1 DIV PUSH20 0xFFFFFFFFFFFFFFFFFFFFFFFFFFFFFFFFFFFFFFFF AND PUSH20 0xFFFFFFFFFFFFFFFFFFFFFFFFFFFFFFFFFFFFFFFF AND PUSH32 0x1998E30DB89DAF293A52C4FC4C4470CD506AAFC3F9683E8E5DADDAD80CD6F4A4 DUP4 PUSH1 0x40 MLOAD PUSH2 0x74C SWAP2 SWAP1 PUSH2 0xF28 JUMP JUMPDEST PUSH1 0x40 MLOAD DUP1 SWAP2 SUB SWAP1 LOG3 PUSH2 0x781 PUSH1 0x1 PUSH1 0x0 SWAP1 SLOAD SWAP1 PUSH2 0x100 EXP SWAP1 DIV PUSH20 0xFFFFFFFFFFFFFFFFFFFFFFFFFFFFFFFFFFFFFFFF AND CALLER DUP4 PUSH2 0xB95 JUMP JUMPDEST JUMPDEST POP JUMP JUMPDEST PUSH1 0x0 DUP1 PUSH1 0x0 SWAP1 SLOAD SWAP1 PUSH2 0x100 EXP SWAP1 DIV PUSH20 0xFFFFFFFFFFFFFFFFFFFFFFFFFFFFFFFFFFFFFFFF AND SWAP1 POP SWAP1 JUMP JUMPDEST PUSH1 0x0 PUSH1 0x2 PUSH1 0x0 PUSH1 0x1 PUSH1 0x0 SWAP1 SLOAD SWAP1 PUSH2 0x100 EXP SWAP1 DIV PUSH20 0xFFFFFFFFFFFFFFFFFFFFFFFFFFFFFFFFFFFFFFFF AND PUSH20 0xFFFFFFFFFFFFFFFFFFFFFFFFFFFFFFFFFFFFFFFF AND PUSH20 0xFFFFFFFFFFFFFFFFFFFFFFFFFFFFFFFFFFFFFFFF AND DUP2 MSTORE PUSH1 0x20 ADD SWAP1 DUP2 MSTORE PUSH1 0x20 ADD PUSH1 0x0 KECCAK256 PUSH1 0x0 CALLER PUSH20 0xFFFFFFFFFFFFFFFFFFFFFFFFFFFFFFFFFFFFFFFF AND PUSH20 0xFFFFFFFFFFFFFFFFFFFFFFFFFFFFFFFFFFFFFFFF AND DUP2 MSTORE PUSH1 0x20 ADD SWAP1 DUP2 MSTORE PUSH1 0x20 ADD PUSH1 0x0 KECCAK256 SLOAD SWAP1 POP SWAP1 JUMP JUMPDEST PUSH1 0x0 PUSH1 0x4 PUSH1 0x0 SWAP1 SLOAD SWAP1 PUSH2 0x100 EXP SWAP1 DIV PUSH8 0xFFFFFFFFFFFFFFFF AND PUSH8 0xFFFFFFFFFFFFFFFF AND SWAP1 POP SWAP1 JUMP JUMPDEST PUSH2 0x884 PUSH2 0xA30 JUMP JUMPDEST PUSH20 0xFFFFFFFFFFFFFFFFFFFFFFFFFFFFFFFFFFFFFFFF AND PUSH2 0x8A2 PUSH2 0x785 JUMP JUMPDEST PUSH20 0xFFFFFFFFFFFFFFFFFFFFFFFFFFFFFFFFFFFFFFFF AND EQ PUSH2 0x8F8 JUMPI PUSH1 0x40 MLOAD PUSH32 0x8C379A000000000000000000000000000000000000000000000000000000000 DUP2 MSTORE PUSH1 0x4 ADD PUSH2 0x8EF SWAP1 PUSH2 0x129D JUMP JUMPDEST PUSH1 0x40 MLOAD DUP1 SWAP2 SUB SWAP1 REVERT JUMPDEST PUSH1 0x0 PUSH20 0xFFFFFFFFFFFFFFFFFFFFFFFFFFFFFFFFFFFFFFFF AND DUP2 PUSH20 0xFFFFFFFFFFFFFFFFFFFFFFFFFFFFFFFFFFFFFFFF AND EQ ISZERO PUSH2 0x968 JUMPI PUSH1 0x40 MLOAD PUSH32 0x8C379A000000000000000000000000000000000000000000000000000000000 DUP2 MSTORE PUSH1 0x4 ADD PUSH2 0x95F SWAP1 PUSH2 0x1392 JUMP JUMPDEST PUSH1 0x40 MLOAD DUP1 SWAP2 SUB SWAP1 REVERT JUMPDEST PUSH2 0x971 DUP2 PUSH2 0xA9F JUMP JUMPDEST POP JUMP JUMPDEST PUSH1 0x0 PUSH2 0x97E PUSH2 0x7AE JUMP JUMPDEST PUSH2 0x987 TIMESTAMP PUSH2 0x1DC JUMP JUMPDEST PUSH2 0x991 SWAP2 SWAP1 PUSH2 0x12EC JUMP JUMPDEST SWAP1 POP SWAP1 JUMP JUMPDEST PUSH1 0x0 PUSH2 0x9A0 PUSH2 0x854 JUMP JUMPDEST DUP3 PUSH8 0xFFFFFFFFFFFFFFFF AND LT ISZERO PUSH2 0x9BA JUMPI PUSH1 0x0 SWAP1 POP PUSH2 0xA2A JUMP JUMPDEST PUSH2 0x9C2 PUSH2 0x240 JUMP JUMPDEST PUSH2 0x9CA PUSH2 0x854 JUMP JUMPDEST PUSH2 0x9D4 SWAP2 SWAP1 PUSH2 0x1140 JUMP JUMPDEST DUP3 PUSH8 0xFFFFFFFFFFFFFFFF AND GT ISZERO PUSH2 0x9ED JUMPI DUP3 SWAP1 POP PUSH2 0xA2A JUMP JUMPDEST PUSH2 0x9F5 PUSH2 0x240 JUMP JUMPDEST PUSH2 0x9FD PUSH2 0x854 JUMP JUMPDEST DUP4 PUSH8 0xFFFFFFFFFFFFFFFF AND PUSH2 0xA12 SWAP2 SWAP1 PUSH2 0x12EC JUMP JUMPDEST DUP5 PUSH2 0xA1D SWAP2 SWAP1 PUSH2 0x13B2 JUMP JUMPDEST PUSH2 0xA27 SWAP2 SWAP1 PUSH2 0x143B JUMP JUMPDEST SWAP1 POP JUMPDEST SWAP3 SWAP2 POP POP JUMP JUMPDEST PUSH1 0x0 CALLER SWAP1 POP SWAP1 JUMP JUMPDEST DUP1 PUSH1 0x3 PUSH1 0x0 DUP5 PUSH20 0xFFFFFFFFFFFFFFFFFFFFFFFFFFFFFFFFFFFFFFFF AND PUSH20 0xFFFFFFFFFFFFFFFFFFFFFFFFFFFFFFFFFFFFFFFF AND DUP2 MSTORE PUSH1 0x20 ADD SWAP1 DUP2 MSTORE PUSH1 0x20 ADD PUSH1 0x0 KECCAK256 PUSH1 0x0 DUP3 DUP3 SLOAD PUSH2 0xA87 SWAP2 SWAP1 PUSH2 0x1140 JUMP JUMPDEST SWAP3 POP POP DUP2 SWAP1 SSTORE POP POP POP JUMP JUMPDEST PUSH1 0x0 PUSH1 0x1 DUP3 ADD SWAP1 POP SWAP2 SWAP1 POP JUMP JUMPDEST PUSH1 0x0 DUP1 PUSH1 0x0 SWAP1 SLOAD SWAP1 PUSH2 0x100 EXP SWAP1 DIV PUSH20 0xFFFFFFFFFFFFFFFFFFFFFFFFFFFFFFFFFFFFFFFF AND SWAP1 POP DUP2 PUSH1 0x0 DUP1 PUSH2 0x100 EXP DUP2 SLOAD DUP2 PUSH20 0xFFFFFFFFFFFFFFFFFFFFFFFFFFFFFFFFFFFFFFFF MUL NOT AND SWAP1 DUP4 PUSH20 0xFFFFFFFFFFFFFFFFFFFFFFFFFFFFFFFFFFFFFFFF AND MUL OR SWAP1 SSTORE POP DUP2 PUSH20 0xFFFFFFFFFFFFFFFFFFFFFFFFFFFFFFFFFFFFFFFF AND DUP2 PUSH20 0xFFFFFFFFFFFFFFFFFFFFFFFFFFFFFFFFFFFFFFFF AND PUSH32 0x8BE0079C531659141344CD1FD0A4F28419497F9722A3DAAFE3B4186F6B6457E0 PUSH1 0x40 MLOAD PUSH1 0x40 MLOAD DUP1 SWAP2 SUB SWAP1 LOG3 POP POP JUMP JUMPDEST PUSH1 0x0 PUSH3 0x278D00 PUSH2 0xB71 PUSH2 0x854 JUMP JUMPDEST TIMESTAMP PUSH8 0xFFFFFFFFFFFFFFFF AND PUSH2 0xB86 SWAP2 SWAP1 PUSH2 0x12EC JUMP JUMPDEST PUSH2 0xB90 SWAP2 SWAP1 PUSH2 0x143B JUMP JUMPDEST SWAP1 POP SWAP1 JUMP JUMPDEST PUSH2 0xC16 DUP4 PUSH4 0xA9059CBB PUSH1 0xE0 SHL DUP5 DUP5 PUSH1 0x40 MLOAD PUSH1 0x24 ADD PUSH2 0xBB4 SWAP3 SWAP2 SWAP1 PUSH2 0x146C JUMP JUMPDEST PUSH1 0x40 MLOAD PUSH1 0x20 DUP2 DUP4 SUB SUB DUP2 MSTORE SWAP1 PUSH1 0x40 MSTORE SWAP1 PUSH28 0xFFFFFFFFFFFFFFFFFFFFFFFFFFFFFFFFFFFFFFFFFFFFFFFFFFFFFFFF NOT AND PUSH1 0x20 DUP3 ADD DUP1 MLOAD PUSH28 0xFFFFFFFFFFFFFFFFFFFFFFFFFFFFFFFFFFFFFFFFFFFFFFFFFFFFFFFF DUP4 DUP2 DUP4 AND OR DUP4 MSTORE POP POP POP POP PUSH2 0xC1B JUMP JUMPDEST POP POP POP JUMP JUMPDEST PUSH1 0x0 PUSH2 0xC7D DUP3 PUSH1 0x40 MLOAD DUP1 PUSH1 0x40 ADD PUSH1 0x40 MSTORE DUP1 PUSH1 0x20 DUP2 MSTORE PUSH1 0x20 ADD PUSH32 0x5361666545524332303A206C6F772D6C6576656C2063616C6C206661696C6564 DUP2 MSTORE POP DUP6 PUSH20 0xFFFFFFFFFFFFFFFFFFFFFFFFFFFFFFFFFFFFFFFF AND PUSH2 0xCE2 SWAP1 SWAP3 SWAP2 SWAP1 PUSH4 0xFFFFFFFF AND JUMP JUMPDEST SWAP1 POP PUSH1 0x0 DUP2 MLOAD GT ISZERO PUSH2 0xCDD JUMPI DUP1 DUP1 PUSH1 0x20 ADD SWAP1 MLOAD DUP2 ADD SWAP1 PUSH2 0xC9D SWAP2 SWAP1 PUSH2 0x14CD JUMP JUMPDEST PUSH2 0xCDC JUMPI PUSH1 0x40 MLOAD PUSH32 0x8C379A000000000000000000000000000000000000000000000000000000000 DUP2 MSTORE PUSH1 0x4 ADD PUSH2 0xCD3 SWAP1 PUSH2 0x156C JUMP JUMPDEST PUSH1 0x40 MLOAD DUP1 SWAP2 SUB SWAP1 REVERT JUMPDEST JUMPDEST POP POP POP JUMP JUMPDEST PUSH1 0x60 PUSH2 0xCF1 DUP5 DUP5 PUSH1 0x0 DUP6 PUSH2 0xCFA JUMP JUMPDEST SWAP1 POP SWAP4 SWAP3 POP POP POP JUMP JUMPDEST PUSH1 0x60 DUP3 SELFBALANCE LT ISZERO PUSH2 0xD3F JUMPI PUSH1 0x40 MLOAD PUSH32 0x8C379A000000000000000000000000000000000000000000000000000000000 DUP2 MSTORE PUSH1 0x4 ADD PUSH2 0xD36 SWAP1 PUSH2 0x15FE JUMP JUMPDEST PUSH1 0x40 MLOAD DUP1 SWAP2 SUB SWAP1 REVERT JUMPDEST PUSH2 0xD48 DUP6 PUSH2 0xE0E JUMP JUMPDEST PUSH2 0xD87 JUMPI PUSH1 0x40 MLOAD PUSH32 0x8C379A000000000000000000000000000000000000000000000000000000000 DUP2 MSTORE PUSH1 0x4 ADD PUSH2 0xD7E SWAP1 PUSH2 0x166A JUMP JUMPDEST PUSH1 0x40 MLOAD DUP1 SWAP2 SUB SWAP1 REVERT JUMPDEST PUSH1 0x0 DUP1 DUP7 PUSH20 0xFFFFFFFFFFFFFFFFFFFFFFFFFFFFFFFFFFFFFFFF AND DUP6 DUP8 PUSH1 0x40 MLOAD PUSH2 0xDB0 SWAP2 SWAP1 PUSH2 0x1704 JUMP JUMPDEST PUSH1 0x0 PUSH1 0x40 MLOAD DUP1 DUP4 SUB DUP2 DUP6 DUP8 GAS CALL SWAP3 POP POP POP RETURNDATASIZE DUP1 PUSH1 0x0 DUP2 EQ PUSH2 0xDED JUMPI PUSH1 0x40 MLOAD SWAP2 POP PUSH1 0x1F NOT PUSH1 0x3F RETURNDATASIZE ADD AND DUP3 ADD PUSH1 0x40 MSTORE RETURNDATASIZE DUP3 MSTORE RETURNDATASIZE PUSH1 0x0 PUSH1 0x20 DUP5 ADD RETURNDATACOPY PUSH2 0xDF2 JUMP JUMPDEST PUSH1 0x60 SWAP2 POP JUMPDEST POP SWAP2 POP SWAP2 POP PUSH2 0xE02 DUP3 DUP3 DUP7 PUSH2 0xE31 JUMP JUMPDEST SWAP3 POP POP POP SWAP5 SWAP4 POP POP POP POP JUMP JUMPDEST PUSH1 0x0 DUP1 DUP3 PUSH20 0xFFFFFFFFFFFFFFFFFFFFFFFFFFFFFFFFFFFFFFFF AND EXTCODESIZE GT SWAP1 POP SWAP2 SWAP1 POP JUMP JUMPDEST PUSH1 0x60 DUP4 ISZERO PUSH2 0xE41 JUMPI DUP3 SWAP1 POP PUSH2 0xE91 JUMP JUMPDEST PUSH1 0x0 DUP4 MLOAD GT ISZERO PUSH2 0xE54 JUMPI DUP3 MLOAD DUP1 DUP5 PUSH1 0x20 ADD REVERT JUMPDEST DUP2 PUSH1 0x40 MLOAD PUSH32 0x8C379A000000000000000000000000000000000000000000000000000000000 DUP2 MSTORE PUSH1 0x4 ADD PUSH2 0xE88 SWAP2 SWAP1 PUSH2 0x1770 JUMP JUMPDEST PUSH1 0x40 MLOAD DUP1 SWAP2 SUB SWAP1 REVERT JUMPDEST SWAP4 SWAP3 POP POP POP JUMP JUMPDEST PUSH1 0x0 DUP1 REVERT JUMPDEST PUSH1 0x0 DUP1 REVERT JUMPDEST PUSH1 0x0 PUSH8 0xFFFFFFFFFFFFFFFF DUP3 AND SWAP1 POP SWAP2 SWAP1 POP JUMP JUMPDEST PUSH2 0xEBF DUP2 PUSH2 0xEA2 JUMP JUMPDEST DUP2 EQ PUSH2 0xECA JUMPI PUSH1 0x0 DUP1 REVERT JUMPDEST POP JUMP JUMPDEST PUSH1 0x0 DUP2 CALLDATALOAD SWAP1 POP PUSH2 0xEDC DUP2 PUSH2 0xEB6 JUMP JUMPDEST SWAP3 SWAP2 POP POP JUMP JUMPDEST PUSH1 0x0 PUSH1 0x20 DUP3 DUP5 SUB SLT ISZERO PUSH2 0xEF8 JUMPI PUSH2 0xEF7 PUSH2 0xE98 JUMP JUMPDEST JUMPDEST PUSH1 0x0 PUSH2 0xF06 DUP5 DUP3 DUP6 ADD PUSH2 0xECD JUMP JUMPDEST SWAP2 POP POP SWAP3 SWAP2 POP POP JUMP JUMPDEST PUSH1 0x0 DUP2 SWAP1 POP SWAP2 SWAP1 POP JUMP JUMPDEST PUSH2 0xF22 DUP2 PUSH2 0xF0F JUMP JUMPDEST DUP3 MSTORE POP POP JUMP JUMPDEST PUSH1 0x0 PUSH1 0x20 DUP3 ADD SWAP1 POP PUSH2 0xF3D PUSH1 0x0 DUP4 ADD DUP5 PUSH2 0xF19 JUMP JUMPDEST SWAP3 SWAP2 POP POP JUMP JUMPDEST PUSH1 0x0 PUSH20 0xFFFFFFFFFFFFFFFFFFFFFFFFFFFFFFFFFFFFFFFF DUP3 AND SWAP1 POP SWAP2 SWAP1 POP JUMP JUMPDEST PUSH1 0x0 PUSH2 0xF6E DUP3 PUSH2 0xF43 JUMP JUMPDEST SWAP1 POP SWAP2 SWAP1 POP JUMP JUMPDEST PUSH2 0xF7E DUP2 PUSH2 0xF63 JUMP JUMPDEST DUP2 EQ PUSH2 0xF89 JUMPI PUSH1 0x0 DUP1 REVERT JUMPDEST POP JUMP JUMPDEST PUSH1 0x0 DUP2 CALLDATALOAD SWAP1 POP PUSH2 0xF9B DUP2 PUSH2 0xF75 JUMP JUMPDEST SWAP3 SWAP2 POP POP JUMP JUMPDEST PUSH1 0x0 DUP1 PUSH1 0x0 DUP1 PUSH1 0x80 DUP6 DUP8 SUB SLT ISZERO PUSH2 0xFBB JUMPI PUSH2 0xFBA PUSH2 0xE98 JUMP JUMPDEST JUMPDEST PUSH1 0x0 PUSH2 0xFC9 DUP8 DUP3 DUP9 ADD PUSH2 0xF8C JUMP JUMPDEST SWAP5 POP POP PUSH1 0x20 PUSH2 0xFDA DUP8 DUP3 DUP9 ADD PUSH2 0xECD JUMP JUMPDEST SWAP4 POP POP PUSH1 0x40 PUSH2 0xFEB DUP8 DUP3 DUP9 ADD PUSH2 0xECD JUMP JUMPDEST SWAP3 POP POP PUSH1 0x60 PUSH2 0xFFC DUP8 DUP3 DUP9 ADD PUSH2 0xECD JUMP JUMPDEST SWAP2 POP POP SWAP3 SWAP6 SWAP2 SWAP5 POP SWAP3 POP JUMP JUMPDEST PUSH1 0x0 DUP1 REVERT JUMPDEST PUSH1 0x0 DUP1 REVERT JUMPDEST PUSH1 0x0 DUP1 REVERT JUMPDEST PUSH1 0x0 DUP1 DUP4 PUSH1 0x1F DUP5 ADD SLT PUSH2 0x102D JUMPI PUSH2 0x102C PUSH2 0x1008 JUMP JUMPDEST JUMPDEST DUP3 CALLDATALOAD SWAP1 POP PUSH8 0xFFFFFFFFFFFFFFFF DUP2 GT ISZERO PUSH2 0x104A JUMPI PUSH2 0x1049 PUSH2 0x100D JUMP JUMPDEST JUMPDEST PUSH1 0x20 DUP4 ADD SWAP2 POP DUP4 PUSH1 0x40 DUP3 MUL DUP4 ADD GT ISZERO PUSH2 0x1066 JUMPI PUSH2 0x1065 PUSH2 0x1012 JUMP JUMPDEST JUMPDEST SWAP3 POP SWAP3 SWAP1 POP JUMP JUMPDEST PUSH1 0x0 DUP1 PUSH1 0x20 DUP4 DUP6 SUB SLT ISZERO PUSH2 0x1084 JUMPI PUSH2 0x1083 PUSH2 0xE98 JUMP JUMPDEST JUMPDEST PUSH1 0x0 DUP4 ADD CALLDATALOAD PUSH8 0xFFFFFFFFFFFFFFFF DUP2 GT ISZERO PUSH2 0x10A2 JUMPI PUSH2 0x10A1 PUSH2 0xE9D JUMP JUMPDEST JUMPDEST PUSH2 0x10AE DUP6 DUP3 DUP7 ADD PUSH2 0x1017 JUMP JUMPDEST SWAP3 POP SWAP3 POP POP SWAP3 POP SWAP3 SWAP1 POP JUMP JUMPDEST PUSH2 0x10C3 DUP2 PUSH2 0xF63 JUMP JUMPDEST DUP3 MSTORE POP POP JUMP JUMPDEST PUSH1 0x0 PUSH1 0x20 DUP3 ADD SWAP1 POP PUSH2 0x10DE PUSH1 0x0 DUP4 ADD DUP5 PUSH2 0x10BA JUMP JUMPDEST SWAP3 SWAP2 POP POP JUMP JUMPDEST PUSH1 0x0 PUSH1 0x20 DUP3 DUP5 SUB SLT ISZERO PUSH2 0x10FA JUMPI PUSH2 0x10F9 PUSH2 0xE98 JUMP JUMPDEST JUMPDEST PUSH1 0x0 PUSH2 0x1108 DUP5 DUP3 DUP6 ADD PUSH2 0xF8C JUMP JUMPDEST SWAP2 POP POP SWAP3 SWAP2 POP POP JUMP JUMPDEST PUSH32 0x4E487B7100000000000000000000000000000000000000000000000000000000 PUSH1 0x0 MSTORE PUSH1 0x11 PUSH1 0x4 MSTORE PUSH1 0x24 PUSH1 0x0 REVERT JUMPDEST PUSH1 0x0 PUSH2 0x114B DUP3 PUSH2 0xF0F JUMP JUMPDEST SWAP2 POP PUSH2 0x1156 DUP4 PUSH2 0xF0F JUMP JUMPDEST SWAP3 POP DUP3 PUSH32 0xFFFFFFFFFFFFFFFFFFFFFFFFFFFFFFFFFFFFFFFFFFFFFFFFFFFFFFFFFFFFFFFF SUB DUP3 GT ISZERO PUSH2 0x118B JUMPI PUSH2 0x118A PUSH2 0x1111 JUMP JUMPDEST JUMPDEST DUP3 DUP3 ADD SWAP1 POP SWAP3 SWAP2 POP POP JUMP JUMPDEST PUSH1 0x0 DUP3 DUP3 MSTORE PUSH1 0x20 DUP3 ADD SWAP1 POP SWAP3 SWAP2 POP POP JUMP JUMPDEST PUSH32 0x496E697469617465640000000000000000000000000000000000000000000000 PUSH1 0x0 DUP3 ADD MSTORE POP JUMP JUMPDEST PUSH1 0x0 PUSH2 0x11DD PUSH1 0x9 DUP4 PUSH2 0x1196 JUMP JUMPDEST SWAP2 POP PUSH2 0x11E8 DUP3 PUSH2 0x11A7 JUMP JUMPDEST PUSH1 0x20 DUP3 ADD SWAP1 POP SWAP2 SWAP1 POP JUMP JUMPDEST PUSH1 0x0 PUSH1 0x20 DUP3 ADD SWAP1 POP DUP2 DUP2 SUB PUSH1 0x0 DUP4 ADD MSTORE PUSH2 0x120C DUP2 PUSH2 0x11D0 JUMP JUMPDEST SWAP1 POP SWAP2 SWAP1 POP JUMP JUMPDEST PUSH1 0x0 PUSH2 0x121E DUP3 PUSH2 0xEA2 JUMP JUMPDEST SWAP2 POP PUSH2 0x1229 DUP4 PUSH2 0xEA2 JUMP JUMPDEST SWAP3 POP DUP3 PUSH8 0xFFFFFFFFFFFFFFFF SUB DUP3 GT ISZERO PUSH2 0x1246 JUMPI PUSH2 0x1245 PUSH2 0x1111 JUMP JUMPDEST JUMPDEST DUP3 DUP3 ADD SWAP1 POP SWAP3 SWAP2 POP POP JUMP JUMPDEST PUSH32 0x4F776E61626C653A2063616C6C6572206973206E6F7420746865206F776E6572 PUSH1 0x0 DUP3 ADD MSTORE POP JUMP JUMPDEST PUSH1 0x0 PUSH2 0x1287 PUSH1 0x20 DUP4 PUSH2 0x1196 JUMP JUMPDEST SWAP2 POP PUSH2 0x1292 DUP3 PUSH2 0x1251 JUMP JUMPDEST PUSH1 0x20 DUP3 ADD SWAP1 POP SWAP2 SWAP1 POP JUMP JUMPDEST PUSH1 0x0 PUSH1 0x20 DUP3 ADD SWAP1 POP DUP2 DUP2 SUB PUSH1 0x0 DUP4 ADD MSTORE PUSH2 0x12B6 DUP2 PUSH2 0x127A JUMP JUMPDEST SWAP1 POP SWAP2 SWAP1 POP JUMP JUMPDEST PUSH32 0x4E487B7100000000000000000000000000000000000000000000000000000000 PUSH1 0x0 MSTORE PUSH1 0x32 PUSH1 0x4 MSTORE PUSH1 0x24 PUSH1 0x0 REVERT JUMPDEST PUSH1 0x0 PUSH2 0x12F7 DUP3 PUSH2 0xF0F JUMP JUMPDEST SWAP2 POP PUSH2 0x1302 DUP4 PUSH2 0xF0F JUMP JUMPDEST SWAP3 POP DUP3 DUP3 LT ISZERO PUSH2 0x1315 JUMPI PUSH2 0x1314 PUSH2 0x1111 JUMP JUMPDEST JUMPDEST DUP3 DUP3 SUB SWAP1 POP SWAP3 SWAP2 POP POP JUMP JUMPDEST PUSH32 0x4F776E61626C653A206E6577206F776E657220697320746865207A65726F2061 PUSH1 0x0 DUP3 ADD MSTORE PUSH32 0x6464726573730000000000000000000000000000000000000000000000000000 PUSH1 0x20 DUP3 ADD MSTORE POP JUMP JUMPDEST PUSH1 0x0 PUSH2 0x137C PUSH1 0x26 DUP4 PUSH2 0x1196 JUMP JUMPDEST SWAP2 POP PUSH2 0x1387 DUP3 PUSH2 0x1320 JUMP JUMPDEST PUSH1 0x40 DUP3 ADD SWAP1 POP SWAP2 SWAP1 POP JUMP JUMPDEST PUSH1 0x0 PUSH1 0x20 DUP3 ADD SWAP1 POP DUP2 DUP2 SUB PUSH1 0x0 DUP4 ADD MSTORE PUSH2 0x13AB DUP2 PUSH2 0x136F JUMP JUMPDEST SWAP1 POP SWAP2 SWAP1 POP JUMP JUMPDEST PUSH1 0x0 PUSH2 0x13BD DUP3 PUSH2 0xF0F JUMP JUMPDEST SWAP2 POP PUSH2 0x13C8 DUP4 PUSH2 0xF0F JUMP JUMPDEST SWAP3 POP DUP2 PUSH32 0xFFFFFFFFFFFFFFFFFFFFFFFFFFFFFFFFFFFFFFFFFFFFFFFFFFFFFFFFFFFFFFFF DIV DUP4 GT DUP3 ISZERO ISZERO AND ISZERO PUSH2 0x1401 JUMPI PUSH2 0x1400 PUSH2 0x1111 JUMP JUMPDEST JUMPDEST DUP3 DUP3 MUL SWAP1 POP SWAP3 SWAP2 POP POP JUMP JUMPDEST PUSH32 0x4E487B7100000000000000000000000000000000000000000000000000000000 PUSH1 0x0 MSTORE PUSH1 0x12 PUSH1 0x4 MSTORE PUSH1 0x24 PUSH1 0x0 REVERT JUMPDEST PUSH1 0x0 PUSH2 0x1446 DUP3 PUSH2 0xF0F JUMP JUMPDEST SWAP2 POP PUSH2 0x1451 DUP4 PUSH2 0xF0F JUMP JUMPDEST SWAP3 POP DUP3 PUSH2 0x1461 JUMPI PUSH2 0x1460 PUSH2 0x140C JUMP JUMPDEST JUMPDEST DUP3 DUP3 DIV SWAP1 POP SWAP3 SWAP2 POP POP JUMP JUMPDEST PUSH1 0x0 PUSH1 0x40 DUP3 ADD SWAP1 POP PUSH2 0x1481 PUSH1 0x0 DUP4 ADD DUP6 PUSH2 0x10BA JUMP JUMPDEST PUSH2 0x148E PUSH1 0x20 DUP4 ADD DUP5 PUSH2 0xF19 JUMP JUMPDEST SWAP4 SWAP3 POP POP POP JUMP JUMPDEST PUSH1 0x0 DUP2 ISZERO ISZERO SWAP1 POP SWAP2 SWAP1 POP JUMP JUMPDEST PUSH2 0x14AA DUP2 PUSH2 0x1495 JUMP JUMPDEST DUP2 EQ PUSH2 0x14B5 JUMPI PUSH1 0x0 DUP1 REVERT JUMPDEST POP JUMP JUMPDEST PUSH1 0x0 DUP2 MLOAD SWAP1 POP PUSH2 0x14C7 DUP2 PUSH2 0x14A1 JUMP JUMPDEST SWAP3 SWAP2 POP POP JUMP JUMPDEST PUSH1 0x0 PUSH1 0x20 DUP3 DUP5 SUB SLT ISZERO PUSH2 0x14E3 JUMPI PUSH2 0x14E2 PUSH2 0xE98 JUMP JUMPDEST JUMPDEST PUSH1 0x0 PUSH2 0x14F1 DUP5 DUP3 DUP6 ADD PUSH2 0x14B8 JUMP JUMPDEST SWAP2 POP POP SWAP3 SWAP2 POP POP JUMP JUMPDEST PUSH32 0x5361666545524332303A204552433230206F7065726174696F6E20646964206E PUSH1 0x0 DUP3 ADD MSTORE PUSH32 0x6F74207375636365656400000000000000000000000000000000000000000000 PUSH1 0x20 DUP3 ADD MSTORE POP JUMP JUMPDEST PUSH1 0x0 PUSH2 0x1556 PUSH1 0x2A DUP4 PUSH2 0x1196 JUMP JUMPDEST SWAP2 POP PUSH2 0x1561 DUP3 PUSH2 0x14FA JUMP JUMPDEST PUSH1 0x40 DUP3 ADD SWAP1 POP SWAP2 SWAP1 POP JUMP JUMPDEST PUSH1 0x0 PUSH1 0x20 DUP3 ADD SWAP1 POP DUP2 DUP2 SUB PUSH1 0x0 DUP4 ADD MSTORE PUSH2 0x1585 DUP2 PUSH2 0x1549 JUMP JUMPDEST SWAP1 POP SWAP2 SWAP1 POP JUMP JUMPDEST PUSH32 0x416464726573733A20696E73756666696369656E742062616C616E636520666F PUSH1 0x0 DUP3 ADD MSTORE PUSH32 0x722063616C6C0000000000000000000000000000000000000000000000000000 PUSH1 0x20 DUP3 ADD MSTORE POP JUMP JUMPDEST PUSH1 0x0 PUSH2 0x15E8 PUSH1 0x26 DUP4 PUSH2 0x1196 JUMP JUMPDEST SWAP2 POP PUSH2 0x15F3 DUP3 PUSH2 0x158C JUMP JUMPDEST PUSH1 0x40 DUP3 ADD SWAP1 POP SWAP2 SWAP1 POP JUMP JUMPDEST PUSH1 0x0 PUSH1 0x20 DUP3 ADD SWAP1 POP DUP2 DUP2 SUB PUSH1 0x0 DUP4 ADD MSTORE PUSH2 0x1617 DUP2 PUSH2 0x15DB JUMP JUMPDEST SWAP1 POP SWAP2 SWAP1 POP JUMP JUMPDEST PUSH32 0x416464726573733A2063616C6C20746F206E6F6E2D636F6E7472616374000000 PUSH1 0x0 DUP3 ADD MSTORE POP JUMP JUMPDEST PUSH1 0x0 PUSH2 0x1654 PUSH1 0x1D DUP4 PUSH2 0x1196 JUMP JUMPDEST SWAP2 POP PUSH2 0x165F DUP3 PUSH2 0x161E JUMP JUMPDEST PUSH1 0x20 DUP3 ADD SWAP1 POP SWAP2 SWAP1 POP JUMP JUMPDEST PUSH1 0x0 PUSH1 0x20 DUP3 ADD SWAP1 POP DUP2 DUP2 SUB PUSH1 0x0 DUP4 ADD MSTORE PUSH2 0x1683 DUP2 PUSH2 0x1647 JUMP JUMPDEST SWAP1 POP SWAP2 SWAP1 POP JUMP JUMPDEST PUSH1 0x0 DUP2 MLOAD SWAP1 POP SWAP2 SWAP1 POP JUMP JUMPDEST PUSH1 0x0 DUP2 SWAP1 POP SWAP3 SWAP2 POP POP JUMP JUMPDEST PUSH1 0x0 JUMPDEST DUP4 DUP2 LT ISZERO PUSH2 0x16BE JUMPI DUP1 DUP3 ADD MLOAD DUP2 DUP5 ADD MSTORE PUSH1 0x20 DUP2 ADD SWAP1 POP PUSH2 0x16A3 JUMP JUMPDEST DUP4 DUP2 GT ISZERO PUSH2 0x16CD JUMPI PUSH1 0x0 DUP5 DUP5 ADD MSTORE JUMPDEST POP POP POP POP JUMP JUMPDEST PUSH1 0x0 PUSH2 0x16DE DUP3 PUSH2 0x168A JUMP JUMPDEST PUSH2 0x16E8 DUP2 DUP6 PUSH2 0x1695 JUMP JUMPDEST SWAP4 POP PUSH2 0x16F8 DUP2 DUP6 PUSH1 0x20 DUP7 ADD PUSH2 0x16A0 JUMP JUMPDEST DUP1 DUP5 ADD SWAP2 POP POP SWAP3 SWAP2 POP POP JUMP JUMPDEST PUSH1 0x0 PUSH2 0x1710 DUP3 DUP5 PUSH2 0x16D3 JUMP JUMPDEST SWAP2 POP DUP2 SWAP1 POP SWAP3 SWAP2 POP POP JUMP JUMPDEST PUSH1 0x0 DUP2 MLOAD SWAP1 POP SWAP2 SWAP1 POP JUMP JUMPDEST PUSH1 0x0 PUSH1 0x1F NOT PUSH1 0x1F DUP4 ADD AND SWAP1 POP SWAP2 SWAP1 POP JUMP JUMPDEST PUSH1 0x0 PUSH2 0x1742 DUP3 PUSH2 0x171B JUMP JUMPDEST PUSH2 0x174C DUP2 DUP6 PUSH2 0x1196 JUMP JUMPDEST SWAP4 POP PUSH2 0x175C DUP2 DUP6 PUSH1 0x20 DUP7 ADD PUSH2 0x16A0 JUMP JUMPDEST PUSH2 0x1765 DUP2 PUSH2 0x1726 JUMP JUMPDEST DUP5 ADD SWAP2 POP POP SWAP3 SWAP2 POP POP JUMP JUMPDEST PUSH1 0x0 PUSH1 0x20 DUP3 ADD SWAP1 POP DUP2 DUP2 SUB PUSH1 0x0 DUP4 ADD MSTORE PUSH2 0x178A DUP2 DUP5 PUSH2 0x1737 JUMP JUMPDEST SWAP1 POP SWAP3 SWAP2 POP POP JUMP INVALID LOG2 PUSH5 0x6970667358 0x22 SLT KECCAK256 SWAP12 PUSH13 0xC60E2FF688318B023D09B0E3D 0xCB LOG3 0x5D 0xC5 AND 0x49 0x28 INVALID 0xCD 0x4F 0xF7 REVERT 0xB2 MULMOD 0xD8 DUP1 DELEGATECALL PUSH5 0x736F6C6343 STOP ADDMOD SIGNEXTEND STOP CALLER "
				},
				"gasEstimates": {
					"creation": {
						"codeDepositCost": "1217600",
						"executionCost": "infinite",
						"totalCost": "infinite"
					},
					"external": {
						"addMultiVesting((address,uint256)[])": "infinite",
						"duration()": "2552",
						"init(address,uint64,uint64,uint64)": "infinite",
						"owner()": "2544",
						"releasable()": "infinite",
						"release()": "infinite",
						"released()": "4796",
						"renounceOwnership()": "30463",
						"start()": "2545",
						"transferOwnership(address)": "30811",
						"vestedAmount(uint64)": "infinite"
					},
					"internal": {
						"_currentMonth()": "infinite",
						"_unsafeInc(uint256)": "34",
						"_vest(address,uint256)": "infinite",
						"_vestingSchedule(uint256,uint64)": "infinite"
					}
				},
				"methodIdentifiers": {
					"addMultiVesting((address,uint256)[])": "27c2e722",
					"duration()": "0fb5a6b4",
					"init(address,uint64,uint64,uint64)": "231815da",
					"owner()": "8da5cb5b",
					"releasable()": "fbccedae",
					"release()": "86d1a69f",
					"released()": "96132521",
					"renounceOwnership()": "715018a6",
					"start()": "be9a6555",
					"transferOwnership(address)": "f2fde38b",
					"vestedAmount(uint64)": "0a17b06b"
				}
			},
			"storageLayout": {
				"storage": [
					{
						"astId": 7,
						"contract": "contracts/TeamProject_Whitelist.sol:TeamWhitelist",
						"label": "_owner",
						"offset": 0,
						"slot": "0",
						"type": "t_address"
					},
					{
						"astId": 749,
						"contract": "contracts/TeamProject_Whitelist.sol:TeamWhitelist",
						"label": "_token",
						"offset": 0,
						"slot": "1",
						"type": "t_address"
					},
					{
						"astId": 755,
						"contract": "contracts/TeamProject_Whitelist.sol:TeamWhitelist",
						"label": "_erc20Released",
						"offset": 0,
						"slot": "2",
						"type": "t_mapping(t_address,t_mapping(t_address,t_uint256))"
					},
					{
						"astId": 759,
						"contract": "contracts/TeamProject_Whitelist.sol:TeamWhitelist",
						"label": "_beneficiary",
						"offset": 0,
						"slot": "3",
						"type": "t_mapping(t_address,t_uint256)"
					},
					{
						"astId": 761,
						"contract": "contracts/TeamProject_Whitelist.sol:TeamWhitelist",
						"label": "_start",
						"offset": 0,
						"slot": "4",
						"type": "t_uint64"
					},
					{
						"astId": 763,
						"contract": "contracts/TeamProject_Whitelist.sol:TeamWhitelist",
						"label": "_duration",
						"offset": 8,
						"slot": "4",
						"type": "t_uint64"
					},
					{
						"astId": 765,
						"contract": "contracts/TeamProject_Whitelist.sol:TeamWhitelist",
						"label": "_cliff",
						"offset": 16,
						"slot": "4",
						"type": "t_uint64"
					},
					{
						"astId": 769,
						"contract": "contracts/TeamProject_Whitelist.sol:TeamWhitelist",
						"label": "_lastMonth",
						"offset": 0,
						"slot": "5",
						"type": "t_mapping(t_address,t_uint256)"
					},
					{
						"astId": 771,
						"contract": "contracts/TeamProject_Whitelist.sol:TeamWhitelist",
						"label": "_initStatus",
						"offset": 0,
						"slot": "6",
						"type": "t_bool"
					}
				],
				"types": {
					"t_address": {
						"encoding": "inplace",
						"label": "address",
						"numberOfBytes": "20"
					},
					"t_bool": {
						"encoding": "inplace",
						"label": "bool",
						"numberOfBytes": "1"
					},
					"t_mapping(t_address,t_mapping(t_address,t_uint256))": {
						"encoding": "mapping",
						"key": "t_address",
						"label": "mapping(address => mapping(address => uint256))",
						"numberOfBytes": "32",
						"value": "t_mapping(t_address,t_uint256)"
					},
					"t_mapping(t_address,t_uint256)": {
						"encoding": "mapping",
						"key": "t_address",
						"label": "mapping(address => uint256)",
						"numberOfBytes": "32",
						"value": "t_uint256"
					},
					"t_uint256": {
						"encoding": "inplace",
						"label": "uint256",
						"numberOfBytes": "32"
					},
					"t_uint64": {
						"encoding": "inplace",
						"label": "uint64",
						"numberOfBytes": "8"
					}
				}
			},
			"userdoc": {
				"kind": "user",
				"methods": {},
				"version": 1
			}
		}
	}
}