{
	"contracts/Stakable.sol": {
		"Stakable": {
			"abi": [
				{
					"inputs": [],
					"stateMutability": "nonpayable",
					"type": "constructor"
				},
				{
					"anonymous": false,
					"inputs": [
						{
							"indexed": false,
							"internalType": "uint256",
							"name": "amount",
							"type": "uint256"
						}
					],
					"name": "AirdropChanged",
					"type": "event"
				},
				{
					"anonymous": false,
					"inputs": [
						{
							"indexed": false,
							"internalType": "uint256",
							"name": "amount",
							"type": "uint256"
						}
					],
					"name": "PenaltyChanged",
					"type": "event"
				},
				{
					"anonymous": false,
					"inputs": [
						{
							"indexed": true,
							"internalType": "address",
							"name": "user",
							"type": "address"
						},
						{
							"indexed": false,
							"internalType": "uint256",
							"name": "amount",
							"type": "uint256"
						},
						{
							"indexed": false,
							"internalType": "uint256",
							"name": "timestamp",
							"type": "uint256"
						},
						{
							"indexed": false,
							"internalType": "uint256",
							"name": "releaseTime",
							"type": "uint256"
						}
					],
					"name": "Staked",
					"type": "event"
				},
				{
					"inputs": [],
					"name": "airdropRate",
					"outputs": [
						{
							"internalType": "uint256",
							"name": "",
							"type": "uint256"
						}
					],
					"stateMutability": "view",
					"type": "function"
				},
				{
					"inputs": [],
					"name": "airdropSince",
					"outputs": [
						{
							"internalType": "uint256",
							"name": "",
							"type": "uint256"
						}
					],
					"stateMutability": "view",
					"type": "function"
				},
				{
					"inputs": [],
					"name": "airdropWeek",
					"outputs": [
						{
							"internalType": "uint256",
							"name": "",
							"type": "uint256"
						}
					],
					"stateMutability": "view",
					"type": "function"
				},
				{
					"inputs": [],
					"name": "hasStake",
					"outputs": [
						{
							"components": [
								{
									"internalType": "uint256",
									"name": "total_amount",
									"type": "uint256"
								},
								{
									"internalType": "uint256",
									"name": "penalty",
									"type": "uint256"
								},
								{
									"components": [
										{
											"internalType": "address",
											"name": "user",
											"type": "address"
										},
										{
											"internalType": "uint256",
											"name": "amount",
											"type": "uint256"
										},
										{
											"internalType": "uint256",
											"name": "since",
											"type": "uint256"
										},
										{
											"internalType": "uint256",
											"name": "claimable",
											"type": "uint256"
										},
										{
											"internalType": "uint256",
											"name": "claimable_airdrop",
											"type": "uint256"
										},
										{
											"internalType": "uint256",
											"name": "rewardAPY",
											"type": "uint256"
										},
										{
											"internalType": "uint256",
											"name": "releaseTime",
											"type": "uint256"
										}
									],
									"internalType": "struct Stakable.Stake",
									"name": "stake",
									"type": "tuple"
								}
							],
							"internalType": "struct Stakable.StakingSummary",
							"name": "",
							"type": "tuple"
						}
					],
					"stateMutability": "view",
					"type": "function"
				},
				{
					"inputs": [
						{
							"internalType": "address",
							"name": "_staker",
							"type": "address"
						}
					],
					"name": "isVoter",
					"outputs": [
						{
							"internalType": "bool",
							"name": "",
							"type": "bool"
						}
					],
					"stateMutability": "view",
					"type": "function"
				},
				{
					"inputs": [],
					"name": "retractVote",
					"outputs": [],
					"stateMutability": "nonpayable",
					"type": "function"
				},
				{
					"inputs": [],
					"name": "stakingPenaltyRate",
					"outputs": [
						{
							"internalType": "uint256",
							"name": "",
							"type": "uint256"
						}
					],
					"stateMutability": "view",
					"type": "function"
				},
				{
					"inputs": [],
					"name": "totalVoters",
					"outputs": [
						{
							"internalType": "uint256",
							"name": "",
							"type": "uint256"
						}
					],
					"stateMutability": "view",
					"type": "function"
				},
				{
					"inputs": [],
					"name": "vote",
					"outputs": [],
					"stateMutability": "nonpayable",
					"type": "function"
				},
				{
					"inputs": [
						{
							"internalType": "uint256",
							"name": "",
							"type": "uint256"
						}
					],
					"name": "votedUsers",
					"outputs": [
						{
							"internalType": "uint256",
							"name": "",
							"type": "uint256"
						}
					],
					"stateMutability": "view",
					"type": "function"
				},
				{
					"inputs": [
						{
							"internalType": "address",
							"name": "",
							"type": "address"
						}
					],
					"name": "voters",
					"outputs": [
						{
							"internalType": "bool",
							"name": "votingRight",
							"type": "bool"
						}
					],
					"stateMutability": "view",
					"type": "function"
				}
			],
			"devdoc": {
				"kind": "dev",
				"methods": {},
				"version": 1
			},
			"evm": {
				"assembly": "    /* \"contracts/Stakable.sol\":155:10950  contract Stakable {... */\n  mstore(0x40, 0x80)\n    /* \"contracts/Stakable.sol\":767:909  constructor() {... */\n  callvalue\n  dup1\n  iszero\n  tag_1\n  jumpi\n  0x00\n  dup1\n  revert\ntag_1:\n  pop\n    /* \"contracts/Stakable.sol\":874:876  15 */\n  0x0f\n    /* \"contracts/Stakable.sol\":853:871  stakingPenaltyRate */\n  0x00\n    /* \"contracts/Stakable.sol\":853:876  stakingPenaltyRate = 15 */\n  dup2\n  swap1\n  sstore\n  pop\n    /* \"contracts/Stakable.sol\":900:902  80 */\n  0x50\n    /* \"contracts/Stakable.sol\":886:897  airdropRate */\n  0x01\n    /* \"contracts/Stakable.sol\":886:902  airdropRate = 80 */\n  dup2\n  swap1\n  sstore\n  pop\n    /* \"contracts/Stakable.sol\":155:10950  contract Stakable {... */\n  dataSize(sub_0)\n  dup1\n  dataOffset(sub_0)\n  0x00\n  codecopy\n  0x00\n  return\nstop\n\nsub_0: assembly {\n        /* \"contracts/Stakable.sol\":155:10950  contract Stakable {... */\n      mstore(0x40, 0x80)\n      callvalue\n      dup1\n      iszero\n      tag_1\n      jumpi\n      0x00\n      dup1\n      revert\n    tag_1:\n      pop\n      jumpi(tag_2, lt(calldatasize, 0x04))\n      shr(0xe0, calldataload(0x00))\n      dup1\n      0xa143a5f2\n      gt\n      tag_14\n      jumpi\n      dup1\n      0xa143a5f2\n      eq\n      tag_8\n      jumpi\n      dup1\n      0xa3ec138d\n      eq\n      tag_9\n      jumpi\n      dup1\n      0xa7771ee3\n      eq\n      tag_10\n      jumpi\n      dup1\n      0xb87da76d\n      eq\n      tag_11\n      jumpi\n      dup1\n      0xcb79c2e1\n      eq\n      tag_12\n      jumpi\n      dup1\n      0xcbb3e152\n      eq\n      tag_13\n      jumpi\n      jump(tag_2)\n    tag_14:\n      dup1\n      0x070c8b74\n      eq\n      tag_3\n      jumpi\n      dup1\n      0x10486b6a\n      eq\n      tag_4\n      jumpi\n      dup1\n      0x5f5300ff\n      eq\n      tag_5\n      jumpi\n      dup1\n      0x632a9a52\n      eq\n      tag_6\n      jumpi\n      dup1\n      0x8891cf0d\n      eq\n      tag_7\n      jumpi\n    tag_2:\n      0x00\n      dup1\n      revert\n        /* \"contracts/Stakable.sol\":10158:10505  function retractVote() public votingStatusTrue {... */\n    tag_3:\n      tag_15\n      tag_16\n      jump\t// in\n    tag_15:\n      stop\n        /* \"contracts/Stakable.sol\":7296:8362  function hasStake() external view returns (StakingSummary memory) {... */\n    tag_4:\n      tag_17\n      tag_18\n      jump\t// in\n    tag_17:\n      mload(0x40)\n      tag_19\n      swap2\n      swap1\n      tag_20\n      jump\t// in\n    tag_19:\n      mload(0x40)\n      dup1\n      swap2\n      sub\n      swap1\n      return\n        /* \"contracts/Stakable.sol\":638:664  uint256 public totalVoters */\n    tag_5:\n      tag_21\n      tag_22\n      jump\t// in\n    tag_21:\n      mload(0x40)\n      tag_23\n      swap2\n      swap1\n      tag_24\n      jump\t// in\n    tag_23:\n      mload(0x40)\n      dup1\n      swap2\n      sub\n      swap1\n      return\n        /* \"contracts/Stakable.sol\":9814:10152  function vote() public votingStatusTrue {... */\n    tag_6:\n      tag_25\n      tag_26\n      jump\t// in\n    tag_25:\n      stop\n        /* \"contracts/Stakable.sol\":507:533  uint256 public airdropRate */\n    tag_7:\n      tag_27\n      tag_28\n      jump\t// in\n    tag_27:\n      mload(0x40)\n      tag_29\n      swap2\n      swap1\n      tag_24\n      jump\t// in\n    tag_29:\n      mload(0x40)\n      dup1\n      swap2\n      sub\n      swap1\n      return\n        /* \"contracts/Stakable.sol\":715:760  mapping(uint256 => uint256) public votedUsers */\n    tag_8:\n      tag_30\n      0x04\n      dup1\n      calldatasize\n      sub\n      dup2\n      add\n      swap1\n      tag_31\n      swap2\n      swap1\n      tag_32\n      jump\t// in\n    tag_31:\n      tag_33\n      jump\t// in\n    tag_30:\n      mload(0x40)\n      tag_34\n      swap2\n      swap1\n      tag_24\n      jump\t// in\n    tag_34:\n      mload(0x40)\n      dup1\n      swap2\n      sub\n      swap1\n      return\n        /* \"contracts/Stakable.sol\":670:709  mapping(address => Voter) public voters */\n    tag_9:\n      tag_35\n      0x04\n      dup1\n      calldatasize\n      sub\n      dup2\n      add\n      swap1\n      tag_36\n      swap2\n      swap1\n      tag_37\n      jump\t// in\n    tag_36:\n      tag_38\n      jump\t// in\n    tag_35:\n      mload(0x40)\n      tag_39\n      swap2\n      swap1\n      tag_40\n      jump\t// in\n    tag_39:\n      mload(0x40)\n      dup1\n      swap2\n      sub\n      swap1\n      return\n        /* \"contracts/Stakable.sol\":9636:9808  function isVoter(address _staker) public view returns (bool) {... */\n    tag_10:\n      tag_41\n      0x04\n      dup1\n      calldatasize\n      sub\n      dup2\n      add\n      swap1\n      tag_42\n      swap2\n      swap1\n      tag_37\n      jump\t// in\n    tag_42:\n      tag_43\n      jump\t// in\n    tag_41:\n      mload(0x40)\n      tag_44\n      swap2\n      swap1\n      tag_40\n      jump\t// in\n    tag_44:\n      mload(0x40)\n      dup1\n      swap2\n      sub\n      swap1\n      return\n        /* \"contracts/Stakable.sol\":539:566  uint256 public airdropSince */\n    tag_11:\n      tag_45\n      tag_46\n      jump\t// in\n    tag_45:\n      mload(0x40)\n      tag_47\n      swap2\n      swap1\n      tag_24\n      jump\t// in\n    tag_47:\n      mload(0x40)\n      dup1\n      swap2\n      sub\n      swap1\n      return\n        /* \"contracts/Stakable.sol\":468:501  uint256 public stakingPenaltyRate */\n    tag_12:\n      tag_48\n      tag_49\n      jump\t// in\n    tag_48:\n      mload(0x40)\n      tag_50\n      swap2\n      swap1\n      tag_24\n      jump\t// in\n    tag_50:\n      mload(0x40)\n      dup1\n      swap2\n      sub\n      swap1\n      return\n        /* \"contracts/Stakable.sol\":9151:9355  function airdropWeek() public view returns (uint256) {... */\n    tag_13:\n      tag_51\n      tag_52\n      jump\t// in\n    tag_51:\n      mload(0x40)\n      tag_53\n      swap2\n      swap1\n      tag_24\n      jump\t// in\n    tag_53:\n      mload(0x40)\n      dup1\n      swap2\n      sub\n      swap1\n      return\n        /* \"contracts/Stakable.sol\":10158:10505  function retractVote() public votingStatusTrue {... */\n    tag_16:\n        /* \"contracts/Stakable.sol\":1289:1309  _checkVotingStatus() */\n      tag_55\n        /* \"contracts/Stakable.sol\":1289:1307  _checkVotingStatus */\n      tag_56\n        /* \"contracts/Stakable.sol\":1289:1309  _checkVotingStatus() */\n      jump\t// in\n    tag_55:\n        /* \"contracts/Stakable.sol\":10257:10261  true */\n      0x01\n        /* \"contracts/Stakable.sol\":10223:10261  voters[msg.sender].votingRight == true */\n      iszero\n      iszero\n        /* \"contracts/Stakable.sol\":10223:10229  voters */\n      0x06\n        /* \"contracts/Stakable.sol\":10223:10241  voters[msg.sender] */\n      0x00\n        /* \"contracts/Stakable.sol\":10230:10240  msg.sender */\n      caller\n        /* \"contracts/Stakable.sol\":10223:10241  voters[msg.sender] */\n      0xffffffffffffffffffffffffffffffffffffffff\n      and\n      0xffffffffffffffffffffffffffffffffffffffff\n      and\n      dup2\n      mstore\n      0x20\n      add\n      swap1\n      dup2\n      mstore\n      0x20\n      add\n      0x00\n      keccak256\n        /* \"contracts/Stakable.sol\":10223:10253  voters[msg.sender].votingRight */\n      0x00\n      add\n      0x00\n      swap1\n      sload\n      swap1\n      0x0100\n      exp\n      swap1\n      div\n      0xff\n      and\n        /* \"contracts/Stakable.sol\":10223:10261  voters[msg.sender].votingRight == true */\n      iszero\n      iszero\n      eq\n        /* \"contracts/Stakable.sol\":10215:10285  require(voters[msg.sender].votingRight == true, \"You are not a voter\") */\n      tag_58\n      jumpi\n      mload(0x40)\n      0x08c379a000000000000000000000000000000000000000000000000000000000\n      dup2\n      mstore\n      0x04\n      add\n      tag_59\n      swap1\n      tag_60\n      jump\t// in\n    tag_59:\n      mload(0x40)\n      dup1\n      swap2\n      sub\n      swap1\n      revert\n    tag_58:\n        /* \"contracts/Stakable.sol\":10355:10359  true */\n      0x01\n        /* \"contracts/Stakable.sol\":10316:10359  voters[msg.sender].voted[_votingId] == true */\n      iszero\n      iszero\n        /* \"contracts/Stakable.sol\":10316:10322  voters */\n      0x06\n        /* \"contracts/Stakable.sol\":10316:10334  voters[msg.sender] */\n      0x00\n        /* \"contracts/Stakable.sol\":10323:10333  msg.sender */\n      caller\n        /* \"contracts/Stakable.sol\":10316:10334  voters[msg.sender] */\n      0xffffffffffffffffffffffffffffffffffffffff\n      and\n      0xffffffffffffffffffffffffffffffffffffffff\n      and\n      dup2\n      mstore\n      0x20\n      add\n      swap1\n      dup2\n      mstore\n      0x20\n      add\n      0x00\n      keccak256\n        /* \"contracts/Stakable.sol\":10316:10340  voters[msg.sender].voted */\n      0x01\n      add\n        /* \"contracts/Stakable.sol\":10316:10351  voters[msg.sender].voted[_votingId] */\n      0x00\n        /* \"contracts/Stakable.sol\":10341:10350  _votingId */\n      sload(0x04)\n        /* \"contracts/Stakable.sol\":10316:10351  voters[msg.sender].voted[_votingId] */\n      dup2\n      mstore\n      0x20\n      add\n      swap1\n      dup2\n      mstore\n      0x20\n      add\n      0x00\n      keccak256\n      0x00\n      swap1\n      sload\n      swap1\n      0x0100\n      exp\n      swap1\n      div\n      0xff\n      and\n        /* \"contracts/Stakable.sol\":10316:10359  voters[msg.sender].voted[_votingId] == true */\n      iszero\n      iszero\n      eq\n        /* \"contracts/Stakable.sol\":10295:10407  require(... */\n      tag_61\n      jumpi\n      mload(0x40)\n      0x08c379a000000000000000000000000000000000000000000000000000000000\n      dup2\n      mstore\n      0x04\n      add\n      tag_62\n      swap1\n      tag_63\n      jump\t// in\n    tag_62:\n      mload(0x40)\n      dup1\n      swap2\n      sub\n      swap1\n      revert\n    tag_61:\n        /* \"contracts/Stakable.sol\":10457:10462  false */\n      0x00\n        /* \"contracts/Stakable.sol\":10418:10462  voters[msg.sender].voted[_votingId] == false */\n      iszero\n      iszero\n        /* \"contracts/Stakable.sol\":10418:10424  voters */\n      0x06\n        /* \"contracts/Stakable.sol\":10418:10436  voters[msg.sender] */\n      0x00\n        /* \"contracts/Stakable.sol\":10425:10435  msg.sender */\n      caller\n        /* \"contracts/Stakable.sol\":10418:10436  voters[msg.sender] */\n      0xffffffffffffffffffffffffffffffffffffffff\n      and\n      0xffffffffffffffffffffffffffffffffffffffff\n      and\n      dup2\n      mstore\n      0x20\n      add\n      swap1\n      dup2\n      mstore\n      0x20\n      add\n      0x00\n      keccak256\n        /* \"contracts/Stakable.sol\":10418:10442  voters[msg.sender].voted */\n      0x01\n      add\n        /* \"contracts/Stakable.sol\":10418:10453  voters[msg.sender].voted[_votingId] */\n      0x00\n        /* \"contracts/Stakable.sol\":10443:10452  _votingId */\n      sload(0x04)\n        /* \"contracts/Stakable.sol\":10418:10453  voters[msg.sender].voted[_votingId] */\n      dup2\n      mstore\n      0x20\n      add\n      swap1\n      dup2\n      mstore\n      0x20\n      add\n      0x00\n      keccak256\n      0x00\n      swap1\n      sload\n      swap1\n      0x0100\n      exp\n      swap1\n      pop\n      pop\n        /* \"contracts/Stakable.sol\":10418:10462  voters[msg.sender].voted[_votingId] == false */\n      pop\n        /* \"contracts/Stakable.sol\":10497:10498  1 */\n      0x01\n        /* \"contracts/Stakable.sol\":10472:10482  votedUsers */\n      0x07\n        /* \"contracts/Stakable.sol\":10472:10493  votedUsers[_votingId] */\n      0x00\n        /* \"contracts/Stakable.sol\":10483:10492  _votingId */\n      sload(0x04)\n        /* \"contracts/Stakable.sol\":10472:10493  votedUsers[_votingId] */\n      dup2\n      mstore\n      0x20\n      add\n      swap1\n      dup2\n      mstore\n      0x20\n      add\n      0x00\n      keccak256\n      0x00\n        /* \"contracts/Stakable.sol\":10472:10498  votedUsers[_votingId] -= 1 */\n      dup3\n      dup3\n      sload\n      tag_64\n      swap2\n      swap1\n      tag_65\n      jump\t// in\n    tag_64:\n      swap3\n      pop\n      pop\n      dup2\n      swap1\n      sstore\n      pop\n        /* \"contracts/Stakable.sol\":10158:10505  function retractVote() public votingStatusTrue {... */\n      jump\t// out\n        /* \"contracts/Stakable.sol\":7296:8362  function hasStake() external view returns (StakingSummary memory) {... */\n    tag_18:\n        /* \"contracts/Stakable.sol\":7339:7360  StakingSummary memory */\n      tag_66\n      tag_67\n      jump\t// in\n    tag_66:\n        /* \"contracts/Stakable.sol\":7372:7395  Stakeholder memory data */\n      0x00\n        /* \"contracts/Stakable.sol\":7398:7410  stakeholders */\n      0x08\n        /* \"contracts/Stakable.sol\":7398:7422  stakeholders[msg.sender] */\n      0x00\n        /* \"contracts/Stakable.sol\":7411:7421  msg.sender */\n      caller\n        /* \"contracts/Stakable.sol\":7398:7422  stakeholders[msg.sender] */\n      0xffffffffffffffffffffffffffffffffffffffff\n      and\n      0xffffffffffffffffffffffffffffffffffffffff\n      and\n      dup2\n      mstore\n      0x20\n      add\n      swap1\n      dup2\n      mstore\n      0x20\n      add\n      0x00\n      keccak256\n        /* \"contracts/Stakable.sol\":7372:7422  Stakeholder memory data = stakeholders[msg.sender] */\n      mload(0x40)\n      dup1\n      0x60\n      add\n      0x40\n      mstore\n      swap1\n      dup2\n      0x00\n      dup3\n      add\n      mload(0x40)\n      dup1\n      0xe0\n      add\n      0x40\n      mstore\n      swap1\n      dup2\n      0x00\n      dup3\n      add\n      0x00\n      swap1\n      sload\n      swap1\n      0x0100\n      exp\n      swap1\n      div\n      0xffffffffffffffffffffffffffffffffffffffff\n      and\n      0xffffffffffffffffffffffffffffffffffffffff\n      and\n      0xffffffffffffffffffffffffffffffffffffffff\n      and\n      dup2\n      mstore\n      0x20\n      add\n      0x01\n      dup3\n      add\n      sload\n      dup2\n      mstore\n      0x20\n      add\n      0x02\n      dup3\n      add\n      sload\n      dup2\n      mstore\n      0x20\n      add\n      0x03\n      dup3\n      add\n      sload\n      dup2\n      mstore\n      0x20\n      add\n      0x04\n      dup3\n      add\n      sload\n      dup2\n      mstore\n      0x20\n      add\n      0x05\n      dup3\n      add\n      sload\n      dup2\n      mstore\n      0x20\n      add\n      0x06\n      dup3\n      add\n      sload\n      dup2\n      mstore\n      pop\n      pop\n      dup2\n      mstore\n      0x20\n      add\n      0x07\n      dup3\n      add\n      0x00\n      swap1\n      sload\n      swap1\n      0x0100\n      exp\n      swap1\n      div\n      0xffffffffffffffffffffffffffffffffffffffff\n      and\n      0xffffffffffffffffffffffffffffffffffffffff\n      and\n      0xffffffffffffffffffffffffffffffffffffffff\n      and\n      dup2\n      mstore\n      0x20\n      add\n      0x08\n      dup3\n      add\n      sload\n      dup2\n      mstore\n      pop\n      pop\n      swap1\n      pop\n        /* \"contracts/Stakable.sol\":7432:7461  StakingSummary memory summary */\n      0x00\n        /* \"contracts/Stakable.sol\":7464:7496  StakingSummary(0, 0, data.stake) */\n      mload(0x40)\n      dup1\n      0x60\n      add\n      0x40\n      mstore\n      dup1\n        /* \"contracts/Stakable.sol\":7479:7480  0 */\n      0x00\n        /* \"contracts/Stakable.sol\":7464:7496  StakingSummary(0, 0, data.stake) */\n      dup2\n      mstore\n      0x20\n      add\n        /* \"contracts/Stakable.sol\":7482:7483  0 */\n      0x00\n        /* \"contracts/Stakable.sol\":7464:7496  StakingSummary(0, 0, data.stake) */\n      dup2\n      mstore\n      0x20\n      add\n        /* \"contracts/Stakable.sol\":7485:7489  data */\n      dup4\n        /* \"contracts/Stakable.sol\":7485:7495  data.stake */\n      0x00\n      add\n      mload\n        /* \"contracts/Stakable.sol\":7464:7496  StakingSummary(0, 0, data.stake) */\n      dup2\n      mstore\n      pop\n        /* \"contracts/Stakable.sol\":7432:7496  StakingSummary memory summary = StakingSummary(0, 0, data.stake) */\n      swap1\n      pop\n        /* \"contracts/Stakable.sol\":7506:7543  _checkUserStake(summary.stake.amount) */\n      tag_69\n        /* \"contracts/Stakable.sol\":7522:7529  summary */\n      dup2\n        /* \"contracts/Stakable.sol\":7522:7535  summary.stake */\n      0x40\n      add\n      mload\n        /* \"contracts/Stakable.sol\":7522:7542  summary.stake.amount */\n      0x20\n      add\n      mload\n        /* \"contracts/Stakable.sol\":7506:7521  _checkUserStake */\n      tag_70\n        /* \"contracts/Stakable.sol\":7506:7543  _checkUserStake(summary.stake.amount) */\n      jump\t// in\n    tag_69:\n        /* \"contracts/Stakable.sol\":7554:7577  uint256 availableReward */\n      0x00\n        /* \"contracts/Stakable.sol\":7580:7615  calculateStakeReward(summary.stake) */\n      tag_71\n        /* \"contracts/Stakable.sol\":7601:7608  summary */\n      dup3\n        /* \"contracts/Stakable.sol\":7601:7614  summary.stake */\n      0x40\n      add\n      mload\n        /* \"contracts/Stakable.sol\":7580:7600  calculateStakeReward */\n      tag_72\n        /* \"contracts/Stakable.sol\":7580:7615  calculateStakeReward(summary.stake) */\n      jump\t// in\n    tag_71:\n        /* \"contracts/Stakable.sol\":7554:7615  uint256 availableReward = calculateStakeReward(summary.stake) */\n      swap1\n      pop\n        /* \"contracts/Stakable.sol\":7625:7640  uint256 penalty */\n      0x00\n        /* \"contracts/Stakable.sol\":7683:7698  block.timestamp */\n      timestamp\n        /* \"contracts/Stakable.sol\":7655:7662  summary */\n      dup4\n        /* \"contracts/Stakable.sol\":7655:7668  summary.stake */\n      0x40\n      add\n      mload\n        /* \"contracts/Stakable.sol\":7655:7680  summary.stake.releaseTime */\n      0xc0\n      add\n      mload\n        /* \"contracts/Stakable.sol\":7655:7698  summary.stake.releaseTime > block.timestamp */\n      gt\n        /* \"contracts/Stakable.sol\":7651:7932  if (summary.stake.releaseTime > block.timestamp) {... */\n      iszero\n      tag_73\n      jumpi\n        /* \"contracts/Stakable.sol\":7715:7737  uint256 amount_penalty */\n      0x00\n        /* \"contracts/Stakable.sol\":7739:7761  uint256 reward_penalty */\n      dup1\n        /* \"contracts/Stakable.sol\":7765:7866  calculatePenalty(... */\n      tag_74\n        /* \"contracts/Stakable.sol\":7799:7806  summary */\n      dup6\n        /* \"contracts/Stakable.sol\":7799:7812  summary.stake */\n      0x40\n      add\n      mload\n        /* \"contracts/Stakable.sol\":7799:7819  summary.stake.amount */\n      0x20\n      add\n      mload\n        /* \"contracts/Stakable.sol\":7837:7852  availableReward */\n      dup6\n        /* \"contracts/Stakable.sol\":7765:7781  calculatePenalty */\n      tag_75\n        /* \"contracts/Stakable.sol\":7765:7866  calculatePenalty(... */\n      jump\t// in\n    tag_74:\n        /* \"contracts/Stakable.sol\":7714:7866  (uint256 amount_penalty, uint256 reward_penalty) = calculatePenalty(... */\n      swap2\n      pop\n      swap2\n      pop\n        /* \"contracts/Stakable.sol\":7907:7921  reward_penalty */\n      dup1\n        /* \"contracts/Stakable.sol\":7890:7904  amount_penalty */\n      dup3\n        /* \"contracts/Stakable.sol\":7890:7921  amount_penalty + reward_penalty */\n      tag_76\n      swap2\n      swap1\n      tag_77\n      jump\t// in\n    tag_76:\n        /* \"contracts/Stakable.sol\":7880:7921  penalty = amount_penalty + reward_penalty */\n      swap3\n      pop\n        /* \"contracts/Stakable.sol\":7700:7932  {... */\n      pop\n      pop\n        /* \"contracts/Stakable.sol\":7651:7932  if (summary.stake.releaseTime > block.timestamp) {... */\n    tag_73:\n        /* \"contracts/Stakable.sol\":7985:7986  0 */\n      0x00\n        /* \"contracts/Stakable.sol\":7946:7982  _calculateWeek(data.latestClaimDrop) */\n      tag_78\n        /* \"contracts/Stakable.sol\":7961:7965  data */\n      dup6\n        /* \"contracts/Stakable.sol\":7961:7981  data.latestClaimDrop */\n      0x40\n      add\n      mload\n        /* \"contracts/Stakable.sol\":7946:7960  _calculateWeek */\n      tag_79\n        /* \"contracts/Stakable.sol\":7946:7982  _calculateWeek(data.latestClaimDrop) */\n      jump\t// in\n    tag_78:\n        /* \"contracts/Stakable.sol\":7946:7986  _calculateWeek(data.latestClaimDrop) > 0 */\n      gt\n        /* \"contracts/Stakable.sol\":7942:8191  if (_calculateWeek(data.latestClaimDrop) > 0) {... */\n      iszero\n      tag_80\n      jumpi\n        /* \"contracts/Stakable.sol\":8002:8017  uint256 airdrop */\n      0x00\n        /* \"contracts/Stakable.sol\":8020:8059  _calculateAirdrop(summary.stake.amount) */\n      tag_81\n        /* \"contracts/Stakable.sol\":8038:8045  summary */\n      dup5\n        /* \"contracts/Stakable.sol\":8038:8051  summary.stake */\n      0x40\n      add\n      mload\n        /* \"contracts/Stakable.sol\":8038:8058  summary.stake.amount */\n      0x20\n      add\n      mload\n        /* \"contracts/Stakable.sol\":8020:8037  _calculateAirdrop */\n      tag_82\n        /* \"contracts/Stakable.sol\":8020:8059  _calculateAirdrop(summary.stake.amount) */\n      jump\t// in\n    tag_81:\n        /* \"contracts/Stakable.sol\":8002:8059  uint256 airdrop = _calculateAirdrop(summary.stake.amount) */\n      swap1\n      pop\n        /* \"contracts/Stakable.sol\":8107:8114  airdrop */\n      dup1\n        /* \"contracts/Stakable.sol\":8073:8080  summary */\n      dup5\n        /* \"contracts/Stakable.sol\":8073:8086  summary.stake */\n      0x40\n      add\n      mload\n        /* \"contracts/Stakable.sol\":8073:8104  summary.stake.claimable_airdrop */\n      0x80\n      add\n        /* \"contracts/Stakable.sol\":8073:8114  summary.stake.claimable_airdrop = airdrop */\n      dup2\n      dup2\n      mstore\n      pop\n      pop\n        /* \"contracts/Stakable.sol\":7988:8125  {... */\n      pop\n        /* \"contracts/Stakable.sol\":7942:8191  if (_calculateWeek(data.latestClaimDrop) > 0) {... */\n      jump(tag_83)\n    tag_80:\n        /* \"contracts/Stakable.sol\":8179:8180  0 */\n      0x00\n        /* \"contracts/Stakable.sol\":8145:8152  summary */\n      dup4\n        /* \"contracts/Stakable.sol\":8145:8158  summary.stake */\n      0x40\n      add\n      mload\n        /* \"contracts/Stakable.sol\":8145:8176  summary.stake.claimable_airdrop */\n      0x80\n      add\n        /* \"contracts/Stakable.sol\":8145:8180  summary.stake.claimable_airdrop = 0 */\n      dup2\n      dup2\n      mstore\n      pop\n      pop\n        /* \"contracts/Stakable.sol\":7942:8191  if (_calculateWeek(data.latestClaimDrop) > 0) {... */\n    tag_83:\n        /* \"contracts/Stakable.sol\":8227:8242  availableReward */\n      dup2\n        /* \"contracts/Stakable.sol\":8201:8208  summary */\n      dup4\n        /* \"contracts/Stakable.sol\":8201:8214  summary.stake */\n      0x40\n      add\n      mload\n        /* \"contracts/Stakable.sol\":8201:8224  summary.stake.claimable */\n      0x60\n      add\n        /* \"contracts/Stakable.sol\":8201:8242  summary.stake.claimable = availableReward */\n      dup2\n      dup2\n      mstore\n      pop\n      pop\n        /* \"contracts/Stakable.sol\":8270:8277  penalty */\n      dup1\n        /* \"contracts/Stakable.sol\":8252:8259  summary */\n      dup4\n        /* \"contracts/Stakable.sol\":8252:8267  summary.penalty */\n      0x20\n      add\n        /* \"contracts/Stakable.sol\":8252:8277  summary.penalty = penalty */\n      dup2\n      dup2\n      mstore\n      pop\n      pop\n        /* \"contracts/Stakable.sol\":8310:8317  summary */\n      dup3\n        /* \"contracts/Stakable.sol\":8310:8323  summary.stake */\n      0x40\n      add\n      mload\n        /* \"contracts/Stakable.sol\":8310:8330  summary.stake.amount */\n      0x20\n      add\n      mload\n        /* \"contracts/Stakable.sol\":8287:8294  summary */\n      dup4\n        /* \"contracts/Stakable.sol\":8287:8307  summary.total_amount */\n      0x00\n      add\n        /* \"contracts/Stakable.sol\":8287:8330  summary.total_amount = summary.stake.amount */\n      dup2\n      dup2\n      mstore\n      pop\n      pop\n        /* \"contracts/Stakable.sol\":8348:8355  summary */\n      dup3\n        /* \"contracts/Stakable.sol\":8341:8355  return summary */\n      swap5\n      pop\n      pop\n      pop\n      pop\n      pop\n        /* \"contracts/Stakable.sol\":7296:8362  function hasStake() external view returns (StakingSummary memory) {... */\n      swap1\n      jump\t// out\n        /* \"contracts/Stakable.sol\":638:664  uint256 public totalVoters */\n    tag_22:\n      sload(0x05)\n      dup2\n      jump\t// out\n        /* \"contracts/Stakable.sol\":9814:10152  function vote() public votingStatusTrue {... */\n    tag_26:\n        /* \"contracts/Stakable.sol\":1289:1309  _checkVotingStatus() */\n      tag_85\n        /* \"contracts/Stakable.sol\":1289:1307  _checkVotingStatus */\n      tag_56\n        /* \"contracts/Stakable.sol\":1289:1309  _checkVotingStatus() */\n      jump\t// in\n    tag_85:\n        /* \"contracts/Stakable.sol\":9906:9910  true */\n      0x01\n        /* \"contracts/Stakable.sol\":9872:9910  voters[msg.sender].votingRight == true */\n      iszero\n      iszero\n        /* \"contracts/Stakable.sol\":9872:9878  voters */\n      0x06\n        /* \"contracts/Stakable.sol\":9872:9890  voters[msg.sender] */\n      0x00\n        /* \"contracts/Stakable.sol\":9879:9889  msg.sender */\n      caller\n        /* \"contracts/Stakable.sol\":9872:9890  voters[msg.sender] */\n      0xffffffffffffffffffffffffffffffffffffffff\n      and\n      0xffffffffffffffffffffffffffffffffffffffff\n      and\n      dup2\n      mstore\n      0x20\n      add\n      swap1\n      dup2\n      mstore\n      0x20\n      add\n      0x00\n      keccak256\n        /* \"contracts/Stakable.sol\":9872:9902  voters[msg.sender].votingRight */\n      0x00\n      add\n      0x00\n      swap1\n      sload\n      swap1\n      0x0100\n      exp\n      swap1\n      div\n      0xff\n      and\n        /* \"contracts/Stakable.sol\":9872:9910  voters[msg.sender].votingRight == true */\n      iszero\n      iszero\n      eq\n        /* \"contracts/Stakable.sol\":9864:9934  require(voters[msg.sender].votingRight == true, \"You are not a voter\") */\n      tag_87\n      jumpi\n      mload(0x40)\n      0x08c379a000000000000000000000000000000000000000000000000000000000\n      dup2\n      mstore\n      0x04\n      add\n      tag_88\n      swap1\n      tag_60\n      jump\t// in\n    tag_88:\n      mload(0x40)\n      dup1\n      swap2\n      sub\n      swap1\n      revert\n    tag_87:\n        /* \"contracts/Stakable.sol\":10004:10009  false */\n      0x00\n        /* \"contracts/Stakable.sol\":9965:10009  voters[msg.sender].voted[_votingId] == false */\n      iszero\n      iszero\n        /* \"contracts/Stakable.sol\":9965:9971  voters */\n      0x06\n        /* \"contracts/Stakable.sol\":9965:9983  voters[msg.sender] */\n      0x00\n        /* \"contracts/Stakable.sol\":9972:9982  msg.sender */\n      caller\n        /* \"contracts/Stakable.sol\":9965:9983  voters[msg.sender] */\n      0xffffffffffffffffffffffffffffffffffffffff\n      and\n      0xffffffffffffffffffffffffffffffffffffffff\n      and\n      dup2\n      mstore\n      0x20\n      add\n      swap1\n      dup2\n      mstore\n      0x20\n      add\n      0x00\n      keccak256\n        /* \"contracts/Stakable.sol\":9965:9989  voters[msg.sender].voted */\n      0x01\n      add\n        /* \"contracts/Stakable.sol\":9965:10000  voters[msg.sender].voted[_votingId] */\n      0x00\n        /* \"contracts/Stakable.sol\":9990:9999  _votingId */\n      sload(0x04)\n        /* \"contracts/Stakable.sol\":9965:10000  voters[msg.sender].voted[_votingId] */\n      dup2\n      mstore\n      0x20\n      add\n      swap1\n      dup2\n      mstore\n      0x20\n      add\n      0x00\n      keccak256\n      0x00\n      swap1\n      sload\n      swap1\n      0x0100\n      exp\n      swap1\n      div\n      0xff\n      and\n        /* \"contracts/Stakable.sol\":9965:10009  voters[msg.sender].voted[_votingId] == false */\n      iszero\n      iszero\n      eq\n        /* \"contracts/Stakable.sol\":9944:10056  require(... */\n      tag_89\n      jumpi\n      mload(0x40)\n      0x08c379a000000000000000000000000000000000000000000000000000000000\n      dup2\n      mstore\n      0x04\n      add\n      tag_90\n      swap1\n      tag_91\n      jump\t// in\n    tag_90:\n      mload(0x40)\n      dup1\n      swap2\n      sub\n      swap1\n      revert\n    tag_89:\n        /* \"contracts/Stakable.sol\":10105:10109  true */\n      0x01\n        /* \"contracts/Stakable.sol\":10067:10073  voters */\n      0x06\n        /* \"contracts/Stakable.sol\":10067:10085  voters[msg.sender] */\n      0x00\n        /* \"contracts/Stakable.sol\":10074:10084  msg.sender */\n      caller\n        /* \"contracts/Stakable.sol\":10067:10085  voters[msg.sender] */\n      0xffffffffffffffffffffffffffffffffffffffff\n      and\n      0xffffffffffffffffffffffffffffffffffffffff\n      and\n      dup2\n      mstore\n      0x20\n      add\n      swap1\n      dup2\n      mstore\n      0x20\n      add\n      0x00\n      keccak256\n        /* \"contracts/Stakable.sol\":10067:10091  voters[msg.sender].voted */\n      0x01\n      add\n        /* \"contracts/Stakable.sol\":10067:10102  voters[msg.sender].voted[_votingId] */\n      0x00\n        /* \"contracts/Stakable.sol\":10092:10101  _votingId */\n      sload(0x04)\n        /* \"contracts/Stakable.sol\":10067:10102  voters[msg.sender].voted[_votingId] */\n      dup2\n      mstore\n      0x20\n      add\n      swap1\n      dup2\n      mstore\n      0x20\n      add\n      0x00\n      keccak256\n      0x00\n        /* \"contracts/Stakable.sol\":10067:10109  voters[msg.sender].voted[_votingId] = true */\n      0x0100\n      exp\n      dup2\n      sload\n      dup2\n      0xff\n      mul\n      not\n      and\n      swap1\n      dup4\n      iszero\n      iszero\n      mul\n      or\n      swap1\n      sstore\n      pop\n        /* \"contracts/Stakable.sol\":10144:10145  1 */\n      0x01\n        /* \"contracts/Stakable.sol\":10119:10129  votedUsers */\n      0x07\n        /* \"contracts/Stakable.sol\":10119:10140  votedUsers[_votingId] */\n      0x00\n        /* \"contracts/Stakable.sol\":10130:10139  _votingId */\n      sload(0x04)\n        /* \"contracts/Stakable.sol\":10119:10140  votedUsers[_votingId] */\n      dup2\n      mstore\n      0x20\n      add\n      swap1\n      dup2\n      mstore\n      0x20\n      add\n      0x00\n      keccak256\n      0x00\n        /* \"contracts/Stakable.sol\":10119:10145  votedUsers[_votingId] += 1 */\n      dup3\n      dup3\n      sload\n      tag_92\n      swap2\n      swap1\n      tag_77\n      jump\t// in\n    tag_92:\n      swap3\n      pop\n      pop\n      dup2\n      swap1\n      sstore\n      pop\n        /* \"contracts/Stakable.sol\":9814:10152  function vote() public votingStatusTrue {... */\n      jump\t// out\n        /* \"contracts/Stakable.sol\":507:533  uint256 public airdropRate */\n    tag_28:\n      sload(0x01)\n      dup2\n      jump\t// out\n        /* \"contracts/Stakable.sol\":715:760  mapping(uint256 => uint256) public votedUsers */\n    tag_33:\n      mstore(0x20, 0x07)\n      dup1\n      0x00\n      mstore\n      keccak256(0x00, 0x40)\n      0x00\n      swap2\n      pop\n      swap1\n      pop\n      sload\n      dup2\n      jump\t// out\n        /* \"contracts/Stakable.sol\":670:709  mapping(address => Voter) public voters */\n    tag_38:\n      mstore(0x20, 0x06)\n      dup1\n      0x00\n      mstore\n      keccak256(0x00, 0x40)\n      0x00\n      swap2\n      pop\n      swap1\n      pop\n      dup1\n      0x00\n      add\n      0x00\n      swap1\n      sload\n      swap1\n      0x0100\n      exp\n      swap1\n      div\n      0xff\n      and\n      swap1\n      pop\n      dup2\n      jump\t// out\n        /* \"contracts/Stakable.sol\":9636:9808  function isVoter(address _staker) public view returns (bool) {... */\n    tag_43:\n        /* \"contracts/Stakable.sol\":9691:9695  bool */\n      0x00\n        /* \"contracts/Stakable.sol\":9734:9735  0 */\n      dup1\n        /* \"contracts/Stakable.sol\":9715:9736  _staker != address(0) */\n      0xffffffffffffffffffffffffffffffffffffffff\n      and\n        /* \"contracts/Stakable.sol\":9715:9722  _staker */\n      dup3\n        /* \"contracts/Stakable.sol\":9715:9736  _staker != address(0) */\n      0xffffffffffffffffffffffffffffffffffffffff\n      and\n      eq\n      iszero\n        /* \"contracts/Stakable.sol\":9707:9756  require(_staker != address(0), \"Invalid address\") */\n      tag_94\n      jumpi\n      mload(0x40)\n      0x08c379a000000000000000000000000000000000000000000000000000000000\n      dup2\n      mstore\n      0x04\n      add\n      tag_95\n      swap1\n      tag_96\n      jump\t// in\n    tag_95:\n      mload(0x40)\n      dup1\n      swap2\n      sub\n      swap1\n      revert\n    tag_94:\n        /* \"contracts/Stakable.sol\":9774:9780  voters */\n      0x06\n        /* \"contracts/Stakable.sol\":9774:9789  voters[_staker] */\n      0x00\n        /* \"contracts/Stakable.sol\":9781:9788  _staker */\n      dup4\n        /* \"contracts/Stakable.sol\":9774:9789  voters[_staker] */\n      0xffffffffffffffffffffffffffffffffffffffff\n      and\n      0xffffffffffffffffffffffffffffffffffffffff\n      and\n      dup2\n      mstore\n      0x20\n      add\n      swap1\n      dup2\n      mstore\n      0x20\n      add\n      0x00\n      keccak256\n        /* \"contracts/Stakable.sol\":9774:9801  voters[_staker].votingRight */\n      0x00\n      add\n      0x00\n      swap1\n      sload\n      swap1\n      0x0100\n      exp\n      swap1\n      div\n      0xff\n      and\n        /* \"contracts/Stakable.sol\":9767:9801  return voters[_staker].votingRight */\n      swap1\n      pop\n        /* \"contracts/Stakable.sol\":9636:9808  function isVoter(address _staker) public view returns (bool) {... */\n      swap2\n      swap1\n      pop\n      jump\t// out\n        /* \"contracts/Stakable.sol\":539:566  uint256 public airdropSince */\n    tag_46:\n      sload(0x02)\n      dup2\n      jump\t// out\n        /* \"contracts/Stakable.sol\":468:501  uint256 public stakingPenaltyRate */\n    tag_49:\n      sload(0x00)\n      dup2\n      jump\t// out\n        /* \"contracts/Stakable.sol\":9151:9355  function airdropWeek() public view returns (uint256) {... */\n    tag_52:\n        /* \"contracts/Stakable.sol\":9195:9202  uint256 */\n      0x00\n        /* \"contracts/Stakable.sol\":9234:9235  0 */\n      dup1\n        /* \"contracts/Stakable.sol\":9218:9230  airdropSince */\n      sload(0x02)\n        /* \"contracts/Stakable.sol\":9218:9235  airdropSince != 0 */\n      eq\n        /* \"contracts/Stakable.sol\":9214:9349  if (airdropSince != 0) {... */\n      tag_98\n      jumpi\n        /* \"contracts/Stakable.sol\":9293:9299  7 days */\n      0x093a80\n        /* \"contracts/Stakable.sol\":9277:9289  airdropSince */\n      sload(0x02)\n        /* \"contracts/Stakable.sol\":9259:9274  block.timestamp */\n      timestamp\n        /* \"contracts/Stakable.sol\":9259:9289  block.timestamp - airdropSince */\n      tag_99\n      swap2\n      swap1\n      tag_65\n      jump\t// in\n    tag_99:\n        /* \"contracts/Stakable.sol\":9258:9299  (block.timestamp - airdropSince) / 7 days */\n      tag_100\n      swap2\n      swap1\n      tag_101\n      jump\t// in\n    tag_100:\n        /* \"contracts/Stakable.sol\":9251:9299  return (block.timestamp - airdropSince) / 7 days */\n      swap1\n      pop\n      jump(tag_97)\n        /* \"contracts/Stakable.sol\":9214:9349  if (airdropSince != 0) {... */\n    tag_98:\n        /* \"contracts/Stakable.sol\":9337:9338  0 */\n      0x00\n        /* \"contracts/Stakable.sol\":9330:9338  return 0 */\n      swap1\n      pop\n        /* \"contracts/Stakable.sol\":9151:9355  function airdropWeek() public view returns (uint256) {... */\n    tag_97:\n      swap1\n      jump\t// out\n        /* \"contracts/Stakable.sol\":1135:1245  function _checkVotingStatus() internal view {... */\n    tag_56:\n        /* \"contracts/Stakable.sol\":1197:1210  _votingStatus */\n      0x03\n      0x00\n      swap1\n      sload\n      swap1\n      0x0100\n      exp\n      swap1\n      div\n      0xff\n      and\n        /* \"contracts/Stakable.sol\":1189:1238  require(_votingStatus, \"Voting is not available\") */\n      tag_104\n      jumpi\n      mload(0x40)\n      0x08c379a000000000000000000000000000000000000000000000000000000000\n      dup2\n      mstore\n      0x04\n      add\n      tag_105\n      swap1\n      tag_106\n      jump\t// in\n    tag_105:\n      mload(0x40)\n      dup1\n      swap2\n      sub\n      swap1\n      revert\n    tag_104:\n        /* \"contracts/Stakable.sol\":1135:1245  function _checkVotingStatus() internal view {... */\n      jump\t// out\n        /* \"contracts/Stakable.sol\":1020:1129  function _checkUserStake(uint256 amount) internal pure {... */\n    tag_70:\n        /* \"contracts/Stakable.sol\":1102:1103  0 */\n      0x00\n        /* \"contracts/Stakable.sol\":1093:1099  amount */\n      dup2\n        /* \"contracts/Stakable.sol\":1093:1103  amount > 0 */\n      gt\n        /* \"contracts/Stakable.sol\":1085:1122  require(amount > 0, \"No Stake Found\") */\n      tag_108\n      jumpi\n      mload(0x40)\n      0x08c379a000000000000000000000000000000000000000000000000000000000\n      dup2\n      mstore\n      0x04\n      add\n      tag_109\n      swap1\n      tag_110\n      jump\t// in\n    tag_109:\n      mload(0x40)\n      dup1\n      swap2\n      sub\n      swap1\n      revert\n    tag_108:\n        /* \"contracts/Stakable.sol\":1020:1129  function _checkUserStake(uint256 amount) internal pure {... */\n      pop\n      jump\t// out\n        /* \"contracts/Stakable.sol\":5097:5532  function calculateStakeReward(Stake memory user_stake)... */\n    tag_72:\n        /* \"contracts/Stakable.sol\":5199:5206  uint256 */\n      0x00\n        /* \"contracts/Stakable.sol\":5247:5248  0 */\n      dup1\n        /* \"contracts/Stakable.sol\":5226:5236  user_stake */\n      dup3\n        /* \"contracts/Stakable.sol\":5226:5243  user_stake.amount */\n      0x20\n      add\n      mload\n        /* \"contracts/Stakable.sol\":5226:5248  user_stake.amount == 0 */\n      eq\n        /* \"contracts/Stakable.sol\":5222:5283  if (user_stake.amount == 0) {... */\n      iszero\n      tag_112\n      jumpi\n        /* \"contracts/Stakable.sol\":5271:5272  0 */\n      0x00\n        /* \"contracts/Stakable.sol\":5264:5272  return 0 */\n      swap1\n      pop\n      jump(tag_111)\n        /* \"contracts/Stakable.sol\":5222:5283  if (user_stake.amount == 0) {... */\n    tag_112:\n        /* \"contracts/Stakable.sol\":5521:5525  1e26 */\n      0x52b7d2dcc80cd2e4000000\n        /* \"contracts/Stakable.sol\":5475:5517  calculateStakingDuration(user_stake.since) */\n      tag_113\n        /* \"contracts/Stakable.sol\":5500:5510  user_stake */\n      dup4\n        /* \"contracts/Stakable.sol\":5500:5516  user_stake.since */\n      0x40\n      add\n      mload\n        /* \"contracts/Stakable.sol\":5475:5499  calculateStakingDuration */\n      tag_114\n        /* \"contracts/Stakable.sol\":5475:5517  calculateStakingDuration(user_stake.since) */\n      jump\t// in\n    tag_113:\n        /* \"contracts/Stakable.sol\":5436:5446  user_stake */\n      dup4\n        /* \"contracts/Stakable.sol\":5436:5456  user_stake.rewardAPY */\n      0xa0\n      add\n      mload\n        /* \"contracts/Stakable.sol\":5400:5410  user_stake */\n      dup5\n        /* \"contracts/Stakable.sol\":5400:5417  user_stake.amount */\n      0x20\n      add\n      mload\n        /* \"contracts/Stakable.sol\":5400:5456  user_stake.amount *... */\n      tag_115\n      swap2\n      swap1\n      tag_116\n      jump\t// in\n    tag_115:\n        /* \"contracts/Stakable.sol\":5400:5517  user_stake.amount *... */\n      tag_117\n      swap2\n      swap1\n      tag_116\n      jump\t// in\n    tag_117:\n        /* \"contracts/Stakable.sol\":5399:5525  (user_stake.amount *... */\n      tag_118\n      swap2\n      swap1\n      tag_101\n      jump\t// in\n    tag_118:\n        /* \"contracts/Stakable.sol\":5380:5525  return... */\n      swap1\n      pop\n        /* \"contracts/Stakable.sol\":5097:5532  function calculateStakeReward(Stake memory user_stake)... */\n    tag_111:\n      swap2\n      swap1\n      pop\n      jump\t// out\n        /* \"contracts/Stakable.sol\":5538:5847  function calculatePenalty(uint256 amount, uint256 reward)... */\n    tag_75:\n        /* \"contracts/Stakable.sol\":5643:5650  uint256 */\n      0x00\n        /* \"contracts/Stakable.sol\":5652:5659  uint256 */\n      dup1\n        /* \"contracts/Stakable.sol\":5696:5756  SafeMath.div(SafeMath.mul(amount, stakingPenaltyRate), 1000) */\n      tag_120\n        /* \"contracts/Stakable.sol\":5709:5749  SafeMath.mul(amount, stakingPenaltyRate) */\n      tag_121\n        /* \"contracts/Stakable.sol\":5722:5728  amount */\n      dup6\n        /* \"contracts/Stakable.sol\":5730:5748  stakingPenaltyRate */\n      sload(0x00)\n        /* \"contracts/Stakable.sol\":5709:5721  SafeMath.mul */\n      tag_122\n        /* \"contracts/Stakable.sol\":5709:5749  SafeMath.mul(amount, stakingPenaltyRate) */\n      jump\t// in\n    tag_121:\n        /* \"contracts/Stakable.sol\":5751:5755  1000 */\n      0x03e8\n        /* \"contracts/Stakable.sol\":5696:5708  SafeMath.div */\n      tag_123\n        /* \"contracts/Stakable.sol\":5696:5756  SafeMath.div(SafeMath.mul(amount, stakingPenaltyRate), 1000) */\n      jump\t// in\n    tag_120:\n        /* \"contracts/Stakable.sol\":5770:5830  SafeMath.div(SafeMath.mul(reward, stakingPenaltyRate), 1000) */\n      tag_124\n        /* \"contracts/Stakable.sol\":5783:5823  SafeMath.mul(reward, stakingPenaltyRate) */\n      tag_125\n        /* \"contracts/Stakable.sol\":5796:5802  reward */\n      dup6\n        /* \"contracts/Stakable.sol\":5804:5822  stakingPenaltyRate */\n      sload(0x00)\n        /* \"contracts/Stakable.sol\":5783:5795  SafeMath.mul */\n      tag_122\n        /* \"contracts/Stakable.sol\":5783:5823  SafeMath.mul(reward, stakingPenaltyRate) */\n      jump\t// in\n    tag_125:\n        /* \"contracts/Stakable.sol\":5825:5829  1000 */\n      0x03e8\n        /* \"contracts/Stakable.sol\":5770:5782  SafeMath.div */\n      tag_123\n        /* \"contracts/Stakable.sol\":5770:5830  SafeMath.div(SafeMath.mul(reward, stakingPenaltyRate), 1000) */\n      jump\t// in\n    tag_124:\n        /* \"contracts/Stakable.sol\":5675:5840  return (... */\n      swap2\n      pop\n      swap2\n      pop\n        /* \"contracts/Stakable.sol\":5538:5847  function calculatePenalty(uint256 amount, uint256 reward)... */\n      swap3\n      pop\n      swap3\n      swap1\n      pop\n      jump\t// out\n        /* \"contracts/Stakable.sol\":2916:3048  function _calculateWeek(uint256 input) internal view returns (uint256) {... */\n    tag_79:\n        /* \"contracts/Stakable.sol\":2978:2985  uint256 */\n      0x00\n        /* \"contracts/Stakable.sol\":3004:3041  (block.timestamp - input).div(7 days) */\n      tag_127\n        /* \"contracts/Stakable.sol\":3034:3040  7 days */\n      0x093a80\n        /* \"contracts/Stakable.sol\":3023:3028  input */\n      dup4\n        /* \"contracts/Stakable.sol\":3005:3020  block.timestamp */\n      timestamp\n        /* \"contracts/Stakable.sol\":3005:3028  block.timestamp - input */\n      tag_128\n      swap2\n      swap1\n      tag_65\n      jump\t// in\n    tag_128:\n        /* \"contracts/Stakable.sol\":3004:3033  (block.timestamp - input).div */\n      tag_123\n      swap1\n        /* \"contracts/Stakable.sol\":3004:3041  (block.timestamp - input).div(7 days) */\n      swap2\n      swap1\n      0xffffffff\n      and\n      jump\t// in\n    tag_127:\n        /* \"contracts/Stakable.sol\":2997:3041  return (block.timestamp - input).div(7 days) */\n      swap1\n      pop\n        /* \"contracts/Stakable.sol\":2916:3048  function _calculateWeek(uint256 input) internal view returns (uint256) {... */\n      swap2\n      swap1\n      pop\n      jump\t// out\n        /* \"contracts/Stakable.sol\":8473:8652  function _calculateAirdrop(uint256 stakeAmount)... */\n    tag_82:\n        /* \"contracts/Stakable.sol\":8568:8575  uint256 */\n      0x00\n        /* \"contracts/Stakable.sol\":8637:8645  52 weeks */\n      0x01dfe200\n        /* \"contracts/Stakable.sol\":8629:8633  1000 */\n      0x03e8\n        /* \"contracts/Stakable.sol\":8614:8625  airdropRate */\n      sload(0x01)\n        /* \"contracts/Stakable.sol\":8600:8611  stakeAmount */\n      dup5\n        /* \"contracts/Stakable.sol\":8600:8625  stakeAmount * airdropRate */\n      tag_130\n      swap2\n      swap1\n      tag_116\n      jump\t// in\n    tag_130:\n        /* \"contracts/Stakable.sol\":8599:8633  (stakeAmount * airdropRate) / 1000 */\n      tag_131\n      swap2\n      swap1\n      tag_101\n      jump\t// in\n    tag_131:\n        /* \"contracts/Stakable.sol\":8598:8645  ((stakeAmount * airdropRate) / 1000) / 52 weeks */\n      tag_132\n      swap2\n      swap1\n      tag_101\n      jump\t// in\n    tag_132:\n        /* \"contracts/Stakable.sol\":8591:8645  return ((stakeAmount * airdropRate) / 1000) / 52 weeks */\n      swap1\n      pop\n        /* \"contracts/Stakable.sol\":8473:8652  function _calculateAirdrop(uint256 stakeAmount)... */\n      swap2\n      swap1\n      pop\n      jump\t// out\n        /* \"contracts/Stakable.sol\":4690:5091  function calculateStakingDuration(uint256 since_)... */\n    tag_114:\n        /* \"contracts/Stakable.sol\":4787:4794  uint256 */\n      0x00\n        /* \"contracts/Stakable.sol\":4827:4828  0 */\n      dup1\n        /* \"contracts/Stakable.sol\":4818:4824  since_ */\n      dup3\n        /* \"contracts/Stakable.sol\":4818:4828  since_ > 0 */\n      gt\n        /* \"contracts/Stakable.sol\":4810:4850  require(since_ > 0, \"Error timestamp 0\") */\n      tag_134\n      jumpi\n      mload(0x40)\n      0x08c379a000000000000000000000000000000000000000000000000000000000\n      dup2\n      mstore\n      0x04\n      add\n      tag_135\n      swap1\n      tag_136\n      jump\t// in\n    tag_135:\n      mload(0x40)\n      dup1\n      swap2\n      sub\n      swap1\n      revert\n    tag_134:\n        /* \"contracts/Stakable.sol\":4932:5084  SafeMath.div(... */\n      tag_137\n        /* \"contracts/Stakable.sol\":4991:4995  1e24 */\n      0xd3c21bcecceda1000000\n        /* \"contracts/Stakable.sol\":4981:4987  since_ */\n      dup4\n        /* \"contracts/Stakable.sol\":4963:4978  block.timestamp */\n      timestamp\n        /* \"contracts/Stakable.sol\":4963:4987  block.timestamp - since_ */\n      tag_138\n      swap2\n      swap1\n      tag_65\n      jump\t// in\n    tag_138:\n        /* \"contracts/Stakable.sol\":4962:4995  (block.timestamp - since_) * 1e24 */\n      tag_139\n      swap2\n      swap1\n      tag_116\n      jump\t// in\n    tag_139:\n        /* \"contracts/Stakable.sol\":5013:5021  365 days */\n      0x01e13380\n        /* \"contracts/Stakable.sol\":4932:5084  SafeMath.div(... */\n      mload(0x40)\n      dup1\n      0x40\n      add\n      0x40\n      mstore\n      dup1\n      0x1d\n      dup2\n      mstore\n      0x20\n      add\n      0x4572726f722063616e6e6f74206469766964652074696d657374616d70000000\n      dup2\n      mstore\n      pop\n        /* \"contracts/Stakable.sol\":4932:4944  SafeMath.div */\n      tag_140\n        /* \"contracts/Stakable.sol\":4932:5084  SafeMath.div(... */\n      jump\t// in\n    tag_137:\n        /* \"contracts/Stakable.sol\":4913:5084  return... */\n      swap1\n      pop\n        /* \"contracts/Stakable.sol\":4690:5091  function calculateStakingDuration(uint256 since_)... */\n      swap2\n      swap1\n      pop\n      jump\t// out\n        /* \"@openzeppelin/contracts/utils/math/SafeMath.sol\":3451:3547  function mul(uint256 a, uint256 b) internal pure returns (uint256) {... */\n    tag_122:\n        /* \"@openzeppelin/contracts/utils/math/SafeMath.sol\":3509:3516  uint256 */\n      0x00\n        /* \"@openzeppelin/contracts/utils/math/SafeMath.sol\":3539:3540  b */\n      dup2\n        /* \"@openzeppelin/contracts/utils/math/SafeMath.sol\":3535:3536  a */\n      dup4\n        /* \"@openzeppelin/contracts/utils/math/SafeMath.sol\":3535:3540  a * b */\n      tag_142\n      swap2\n      swap1\n      tag_116\n      jump\t// in\n    tag_142:\n        /* \"@openzeppelin/contracts/utils/math/SafeMath.sol\":3528:3540  return a * b */\n      swap1\n      pop\n        /* \"@openzeppelin/contracts/utils/math/SafeMath.sol\":3451:3547  function mul(uint256 a, uint256 b) internal pure returns (uint256) {... */\n      swap3\n      swap2\n      pop\n      pop\n      jump\t// out\n        /* \"@openzeppelin/contracts/utils/math/SafeMath.sol\":3836:3932  function div(uint256 a, uint256 b) internal pure returns (uint256) {... */\n    tag_123:\n        /* \"@openzeppelin/contracts/utils/math/SafeMath.sol\":3894:3901  uint256 */\n      0x00\n        /* \"@openzeppelin/contracts/utils/math/SafeMath.sol\":3924:3925  b */\n      dup2\n        /* \"@openzeppelin/contracts/utils/math/SafeMath.sol\":3920:3921  a */\n      dup4\n        /* \"@openzeppelin/contracts/utils/math/SafeMath.sol\":3920:3925  a / b */\n      tag_144\n      swap2\n      swap1\n      tag_101\n      jump\t// in\n    tag_144:\n        /* \"@openzeppelin/contracts/utils/math/SafeMath.sol\":3913:3925  return a / b */\n      swap1\n      pop\n        /* \"@openzeppelin/contracts/utils/math/SafeMath.sol\":3836:3932  function div(uint256 a, uint256 b) internal pure returns (uint256) {... */\n      swap3\n      swap2\n      pop\n      pop\n      jump\t// out\n        /* \"@openzeppelin/contracts/utils/math/SafeMath.sol\":5660:5890  function div(... */\n    tag_140:\n        /* \"@openzeppelin/contracts/utils/math/SafeMath.sol\":5776:5783  uint256 */\n      0x00\n        /* \"@openzeppelin/contracts/utils/math/SafeMath.sol\":5831:5832  0 */\n      dup1\n        /* \"@openzeppelin/contracts/utils/math/SafeMath.sol\":5827:5828  b */\n      dup4\n        /* \"@openzeppelin/contracts/utils/math/SafeMath.sol\":5827:5832  b > 0 */\n      gt\n        /* \"@openzeppelin/contracts/utils/math/SafeMath.sol\":5834:5846  errorMessage */\n      dup3\n        /* \"@openzeppelin/contracts/utils/math/SafeMath.sol\":5819:5847  require(b > 0, errorMessage) */\n      swap1\n      tag_146\n      jumpi\n      mload(0x40)\n      0x08c379a000000000000000000000000000000000000000000000000000000000\n      dup2\n      mstore\n      0x04\n      add\n      tag_147\n      swap2\n      swap1\n      tag_148\n      jump\t// in\n    tag_147:\n      mload(0x40)\n      dup1\n      swap2\n      sub\n      swap1\n      revert\n    tag_146:\n      pop\n        /* \"@openzeppelin/contracts/utils/math/SafeMath.sol\":5872:5873  b */\n      dup3\n        /* \"@openzeppelin/contracts/utils/math/SafeMath.sol\":5868:5869  a */\n      dup5\n        /* \"@openzeppelin/contracts/utils/math/SafeMath.sol\":5868:5873  a / b */\n      dup2\n      tag_149\n      jumpi\n      tag_150\n      tag_151\n      jump\t// in\n    tag_150:\n    tag_149:\n      div\n        /* \"@openzeppelin/contracts/utils/math/SafeMath.sol\":5861:5873  return a / b */\n      swap1\n      pop\n        /* \"@openzeppelin/contracts/utils/math/SafeMath.sol\":5660:5890  function div(... */\n      swap4\n      swap3\n      pop\n      pop\n      pop\n      jump\t// out\n    tag_67:\n      mload(0x40)\n      dup1\n      0x60\n      add\n      0x40\n      mstore\n      dup1\n      0x00\n      dup2\n      mstore\n      0x20\n      add\n      0x00\n      dup2\n      mstore\n      0x20\n      add\n      tag_152\n      tag_153\n      jump\t// in\n    tag_152:\n      dup2\n      mstore\n      pop\n      swap1\n      jump\t// out\n    tag_153:\n      mload(0x40)\n      dup1\n      0xe0\n      add\n      0x40\n      mstore\n      dup1\n      and(0xffffffffffffffffffffffffffffffffffffffff, 0x00)\n      dup2\n      mstore\n      0x20\n      add\n      0x00\n      dup2\n      mstore\n      0x20\n      add\n      0x00\n      dup2\n      mstore\n      0x20\n      add\n      0x00\n      dup2\n      mstore\n      0x20\n      add\n      0x00\n      dup2\n      mstore\n      0x20\n      add\n      0x00\n      dup2\n      mstore\n      0x20\n      add\n      0x00\n      dup2\n      mstore\n      pop\n      swap1\n      jump\t// out\n        /* \"#utility.yul\":7:84   */\n    tag_154:\n        /* \"#utility.yul\":44:51   */\n      0x00\n        /* \"#utility.yul\":73:78   */\n      dup2\n        /* \"#utility.yul\":62:78   */\n      swap1\n      pop\n        /* \"#utility.yul\":7:84   */\n      swap2\n      swap1\n      pop\n      jump\t// out\n        /* \"#utility.yul\":90:198   */\n    tag_155:\n        /* \"#utility.yul\":167:191   */\n      tag_194\n        /* \"#utility.yul\":185:190   */\n      dup2\n        /* \"#utility.yul\":167:191   */\n      tag_154\n      jump\t// in\n    tag_194:\n        /* \"#utility.yul\":162:165   */\n      dup3\n        /* \"#utility.yul\":155:192   */\n      mstore\n        /* \"#utility.yul\":90:198   */\n      pop\n      pop\n      jump\t// out\n        /* \"#utility.yul\":204:330   */\n    tag_156:\n        /* \"#utility.yul\":241:248   */\n      0x00\n        /* \"#utility.yul\":281:323   */\n      0xffffffffffffffffffffffffffffffffffffffff\n        /* \"#utility.yul\":274:279   */\n      dup3\n        /* \"#utility.yul\":270:324   */\n      and\n        /* \"#utility.yul\":259:324   */\n      swap1\n      pop\n        /* \"#utility.yul\":204:330   */\n      swap2\n      swap1\n      pop\n      jump\t// out\n        /* \"#utility.yul\":336:432   */\n    tag_157:\n        /* \"#utility.yul\":373:380   */\n      0x00\n        /* \"#utility.yul\":402:426   */\n      tag_197\n        /* \"#utility.yul\":420:425   */\n      dup3\n        /* \"#utility.yul\":402:426   */\n      tag_156\n      jump\t// in\n    tag_197:\n        /* \"#utility.yul\":391:426   */\n      swap1\n      pop\n        /* \"#utility.yul\":336:432   */\n      swap2\n      swap1\n      pop\n      jump\t// out\n        /* \"#utility.yul\":438:546   */\n    tag_158:\n        /* \"#utility.yul\":515:539   */\n      tag_199\n        /* \"#utility.yul\":533:538   */\n      dup2\n        /* \"#utility.yul\":515:539   */\n      tag_157\n      jump\t// in\n    tag_199:\n        /* \"#utility.yul\":510:513   */\n      dup3\n        /* \"#utility.yul\":503:540   */\n      mstore\n        /* \"#utility.yul\":438:546   */\n      pop\n      pop\n      jump\t// out\n        /* \"#utility.yul\":606:2000   */\n    tag_159:\n        /* \"#utility.yul\":737:741   */\n      0xe0\n        /* \"#utility.yul\":732:735   */\n      dup3\n        /* \"#utility.yul\":728:742   */\n      add\n        /* \"#utility.yul\":824:828   */\n      0x00\n        /* \"#utility.yul\":817:822   */\n      dup3\n        /* \"#utility.yul\":813:829   */\n      add\n        /* \"#utility.yul\":807:830   */\n      mload\n        /* \"#utility.yul\":843:906   */\n      tag_201\n        /* \"#utility.yul\":900:904   */\n      0x00\n        /* \"#utility.yul\":895:898   */\n      dup6\n        /* \"#utility.yul\":891:905   */\n      add\n        /* \"#utility.yul\":877:889   */\n      dup3\n        /* \"#utility.yul\":843:906   */\n      tag_158\n      jump\t// in\n    tag_201:\n        /* \"#utility.yul\":752:916   */\n      pop\n        /* \"#utility.yul\":1000:1004   */\n      0x20\n        /* \"#utility.yul\":993:998   */\n      dup3\n        /* \"#utility.yul\":989:1005   */\n      add\n        /* \"#utility.yul\":983:1006   */\n      mload\n        /* \"#utility.yul\":1019:1082   */\n      tag_202\n        /* \"#utility.yul\":1076:1080   */\n      0x20\n        /* \"#utility.yul\":1071:1074   */\n      dup6\n        /* \"#utility.yul\":1067:1081   */\n      add\n        /* \"#utility.yul\":1053:1065   */\n      dup3\n        /* \"#utility.yul\":1019:1082   */\n      tag_155\n      jump\t// in\n    tag_202:\n        /* \"#utility.yul\":926:1092   */\n      pop\n        /* \"#utility.yul\":1175:1179   */\n      0x40\n        /* \"#utility.yul\":1168:1173   */\n      dup3\n        /* \"#utility.yul\":1164:1180   */\n      add\n        /* \"#utility.yul\":1158:1181   */\n      mload\n        /* \"#utility.yul\":1194:1257   */\n      tag_203\n        /* \"#utility.yul\":1251:1255   */\n      0x40\n        /* \"#utility.yul\":1246:1249   */\n      dup6\n        /* \"#utility.yul\":1242:1256   */\n      add\n        /* \"#utility.yul\":1228:1240   */\n      dup3\n        /* \"#utility.yul\":1194:1257   */\n      tag_155\n      jump\t// in\n    tag_203:\n        /* \"#utility.yul\":1102:1267   */\n      pop\n        /* \"#utility.yul\":1354:1358   */\n      0x60\n        /* \"#utility.yul\":1347:1352   */\n      dup3\n        /* \"#utility.yul\":1343:1359   */\n      add\n        /* \"#utility.yul\":1337:1360   */\n      mload\n        /* \"#utility.yul\":1373:1436   */\n      tag_204\n        /* \"#utility.yul\":1430:1434   */\n      0x60\n        /* \"#utility.yul\":1425:1428   */\n      dup6\n        /* \"#utility.yul\":1421:1435   */\n      add\n        /* \"#utility.yul\":1407:1419   */\n      dup3\n        /* \"#utility.yul\":1373:1436   */\n      tag_155\n      jump\t// in\n    tag_204:\n        /* \"#utility.yul\":1277:1446   */\n      pop\n        /* \"#utility.yul\":1541:1545   */\n      0x80\n        /* \"#utility.yul\":1534:1539   */\n      dup3\n        /* \"#utility.yul\":1530:1546   */\n      add\n        /* \"#utility.yul\":1524:1547   */\n      mload\n        /* \"#utility.yul\":1560:1623   */\n      tag_205\n        /* \"#utility.yul\":1617:1621   */\n      0x80\n        /* \"#utility.yul\":1612:1615   */\n      dup6\n        /* \"#utility.yul\":1608:1622   */\n      add\n        /* \"#utility.yul\":1594:1606   */\n      dup3\n        /* \"#utility.yul\":1560:1623   */\n      tag_155\n      jump\t// in\n    tag_205:\n        /* \"#utility.yul\":1456:1633   */\n      pop\n        /* \"#utility.yul\":1720:1724   */\n      0xa0\n        /* \"#utility.yul\":1713:1718   */\n      dup3\n        /* \"#utility.yul\":1709:1725   */\n      add\n        /* \"#utility.yul\":1703:1726   */\n      mload\n        /* \"#utility.yul\":1739:1802   */\n      tag_206\n        /* \"#utility.yul\":1796:1800   */\n      0xa0\n        /* \"#utility.yul\":1791:1794   */\n      dup6\n        /* \"#utility.yul\":1787:1801   */\n      add\n        /* \"#utility.yul\":1773:1785   */\n      dup3\n        /* \"#utility.yul\":1739:1802   */\n      tag_155\n      jump\t// in\n    tag_206:\n        /* \"#utility.yul\":1643:1812   */\n      pop\n        /* \"#utility.yul\":1901:1905   */\n      0xc0\n        /* \"#utility.yul\":1894:1899   */\n      dup3\n        /* \"#utility.yul\":1890:1906   */\n      add\n        /* \"#utility.yul\":1884:1907   */\n      mload\n        /* \"#utility.yul\":1920:1983   */\n      tag_207\n        /* \"#utility.yul\":1977:1981   */\n      0xc0\n        /* \"#utility.yul\":1972:1975   */\n      dup6\n        /* \"#utility.yul\":1968:1982   */\n      add\n        /* \"#utility.yul\":1954:1966   */\n      dup3\n        /* \"#utility.yul\":1920:1983   */\n      tag_155\n      jump\t// in\n    tag_207:\n        /* \"#utility.yul\":1822:1993   */\n      pop\n        /* \"#utility.yul\":706:2000   */\n      pop\n        /* \"#utility.yul\":606:2000   */\n      pop\n      pop\n      jump\t// out\n        /* \"#utility.yul\":2078:2829   */\n    tag_160:\n        /* \"#utility.yul\":2237:2243   */\n      0x0120\n        /* \"#utility.yul\":2232:2235   */\n      dup3\n        /* \"#utility.yul\":2228:2244   */\n      add\n        /* \"#utility.yul\":2334:2338   */\n      0x00\n        /* \"#utility.yul\":2327:2332   */\n      dup3\n        /* \"#utility.yul\":2323:2339   */\n      add\n        /* \"#utility.yul\":2317:2340   */\n      mload\n        /* \"#utility.yul\":2353:2416   */\n      tag_209\n        /* \"#utility.yul\":2410:2414   */\n      0x00\n        /* \"#utility.yul\":2405:2408   */\n      dup6\n        /* \"#utility.yul\":2401:2415   */\n      add\n        /* \"#utility.yul\":2387:2399   */\n      dup3\n        /* \"#utility.yul\":2353:2416   */\n      tag_155\n      jump\t// in\n    tag_209:\n        /* \"#utility.yul\":2254:2426   */\n      pop\n        /* \"#utility.yul\":2511:2515   */\n      0x20\n        /* \"#utility.yul\":2504:2509   */\n      dup3\n        /* \"#utility.yul\":2500:2516   */\n      add\n        /* \"#utility.yul\":2494:2517   */\n      mload\n        /* \"#utility.yul\":2530:2593   */\n      tag_210\n        /* \"#utility.yul\":2587:2591   */\n      0x20\n        /* \"#utility.yul\":2582:2585   */\n      dup6\n        /* \"#utility.yul\":2578:2592   */\n      add\n        /* \"#utility.yul\":2564:2576   */\n      dup3\n        /* \"#utility.yul\":2530:2593   */\n      tag_155\n      jump\t// in\n    tag_210:\n        /* \"#utility.yul\":2436:2603   */\n      pop\n        /* \"#utility.yul\":2686:2690   */\n      0x40\n        /* \"#utility.yul\":2679:2684   */\n      dup3\n        /* \"#utility.yul\":2675:2691   */\n      add\n        /* \"#utility.yul\":2669:2692   */\n      mload\n        /* \"#utility.yul\":2705:2812   */\n      tag_211\n        /* \"#utility.yul\":2806:2810   */\n      0x40\n        /* \"#utility.yul\":2801:2804   */\n      dup6\n        /* \"#utility.yul\":2797:2811   */\n      add\n        /* \"#utility.yul\":2783:2795   */\n      dup3\n        /* \"#utility.yul\":2705:2812   */\n      tag_159\n      jump\t// in\n    tag_211:\n        /* \"#utility.yul\":2613:2822   */\n      pop\n        /* \"#utility.yul\":2206:2829   */\n      pop\n        /* \"#utility.yul\":2078:2829   */\n      pop\n      pop\n      jump\t// out\n        /* \"#utility.yul\":2835:3182   */\n    tag_20:\n        /* \"#utility.yul\":2990:2994   */\n      0x00\n        /* \"#utility.yul\":3028:3031   */\n      0x0120\n        /* \"#utility.yul\":3017:3026   */\n      dup3\n        /* \"#utility.yul\":3013:3032   */\n      add\n        /* \"#utility.yul\":3005:3032   */\n      swap1\n      pop\n        /* \"#utility.yul\":3042:3175   */\n      tag_213\n        /* \"#utility.yul\":3172:3173   */\n      0x00\n        /* \"#utility.yul\":3161:3170   */\n      dup4\n        /* \"#utility.yul\":3157:3174   */\n      add\n        /* \"#utility.yul\":3148:3154   */\n      dup5\n        /* \"#utility.yul\":3042:3175   */\n      tag_160\n      jump\t// in\n    tag_213:\n        /* \"#utility.yul\":2835:3182   */\n      swap3\n      swap2\n      pop\n      pop\n      jump\t// out\n        /* \"#utility.yul\":3188:3306   */\n    tag_161:\n        /* \"#utility.yul\":3275:3299   */\n      tag_215\n        /* \"#utility.yul\":3293:3298   */\n      dup2\n        /* \"#utility.yul\":3275:3299   */\n      tag_154\n      jump\t// in\n    tag_215:\n        /* \"#utility.yul\":3270:3273   */\n      dup3\n        /* \"#utility.yul\":3263:3300   */\n      mstore\n        /* \"#utility.yul\":3188:3306   */\n      pop\n      pop\n      jump\t// out\n        /* \"#utility.yul\":3312:3534   */\n    tag_24:\n        /* \"#utility.yul\":3405:3409   */\n      0x00\n        /* \"#utility.yul\":3443:3445   */\n      0x20\n        /* \"#utility.yul\":3432:3441   */\n      dup3\n        /* \"#utility.yul\":3428:3446   */\n      add\n        /* \"#utility.yul\":3420:3446   */\n      swap1\n      pop\n        /* \"#utility.yul\":3456:3527   */\n      tag_217\n        /* \"#utility.yul\":3524:3525   */\n      0x00\n        /* \"#utility.yul\":3513:3522   */\n      dup4\n        /* \"#utility.yul\":3509:3526   */\n      add\n        /* \"#utility.yul\":3500:3506   */\n      dup5\n        /* \"#utility.yul\":3456:3527   */\n      tag_161\n      jump\t// in\n    tag_217:\n        /* \"#utility.yul\":3312:3534   */\n      swap3\n      swap2\n      pop\n      pop\n      jump\t// out\n        /* \"#utility.yul\":3621:3738   */\n    tag_163:\n        /* \"#utility.yul\":3730:3731   */\n      0x00\n        /* \"#utility.yul\":3727:3728   */\n      dup1\n        /* \"#utility.yul\":3720:3732   */\n      revert\n        /* \"#utility.yul\":3867:3989   */\n    tag_165:\n        /* \"#utility.yul\":3940:3964   */\n      tag_222\n        /* \"#utility.yul\":3958:3963   */\n      dup2\n        /* \"#utility.yul\":3940:3964   */\n      tag_154\n      jump\t// in\n    tag_222:\n        /* \"#utility.yul\":3933:3938   */\n      dup2\n        /* \"#utility.yul\":3930:3965   */\n      eq\n        /* \"#utility.yul\":3920:3983   */\n      tag_223\n      jumpi\n        /* \"#utility.yul\":3979:3980   */\n      0x00\n        /* \"#utility.yul\":3976:3977   */\n      dup1\n        /* \"#utility.yul\":3969:3981   */\n      revert\n        /* \"#utility.yul\":3920:3983   */\n    tag_223:\n        /* \"#utility.yul\":3867:3989   */\n      pop\n      jump\t// out\n        /* \"#utility.yul\":3995:4134   */\n    tag_166:\n        /* \"#utility.yul\":4041:4046   */\n      0x00\n        /* \"#utility.yul\":4079:4085   */\n      dup2\n        /* \"#utility.yul\":4066:4086   */\n      calldataload\n        /* \"#utility.yul\":4057:4086   */\n      swap1\n      pop\n        /* \"#utility.yul\":4095:4128   */\n      tag_225\n        /* \"#utility.yul\":4122:4127   */\n      dup2\n        /* \"#utility.yul\":4095:4128   */\n      tag_165\n      jump\t// in\n    tag_225:\n        /* \"#utility.yul\":3995:4134   */\n      swap3\n      swap2\n      pop\n      pop\n      jump\t// out\n        /* \"#utility.yul\":4140:4469   */\n    tag_32:\n        /* \"#utility.yul\":4199:4205   */\n      0x00\n        /* \"#utility.yul\":4248:4250   */\n      0x20\n        /* \"#utility.yul\":4236:4245   */\n      dup3\n        /* \"#utility.yul\":4227:4234   */\n      dup5\n        /* \"#utility.yul\":4223:4246   */\n      sub\n        /* \"#utility.yul\":4219:4251   */\n      slt\n        /* \"#utility.yul\":4216:4335   */\n      iszero\n      tag_227\n      jumpi\n        /* \"#utility.yul\":4254:4333   */\n      tag_228\n      tag_163\n      jump\t// in\n    tag_228:\n        /* \"#utility.yul\":4216:4335   */\n    tag_227:\n        /* \"#utility.yul\":4374:4375   */\n      0x00\n        /* \"#utility.yul\":4399:4452   */\n      tag_229\n        /* \"#utility.yul\":4444:4451   */\n      dup5\n        /* \"#utility.yul\":4435:4441   */\n      dup3\n        /* \"#utility.yul\":4424:4433   */\n      dup6\n        /* \"#utility.yul\":4420:4442   */\n      add\n        /* \"#utility.yul\":4399:4452   */\n      tag_166\n      jump\t// in\n    tag_229:\n        /* \"#utility.yul\":4389:4452   */\n      swap2\n      pop\n        /* \"#utility.yul\":4345:4462   */\n      pop\n        /* \"#utility.yul\":4140:4469   */\n      swap3\n      swap2\n      pop\n      pop\n      jump\t// out\n        /* \"#utility.yul\":4475:4597   */\n    tag_167:\n        /* \"#utility.yul\":4548:4572   */\n      tag_231\n        /* \"#utility.yul\":4566:4571   */\n      dup2\n        /* \"#utility.yul\":4548:4572   */\n      tag_157\n      jump\t// in\n    tag_231:\n        /* \"#utility.yul\":4541:4546   */\n      dup2\n        /* \"#utility.yul\":4538:4573   */\n      eq\n        /* \"#utility.yul\":4528:4591   */\n      tag_232\n      jumpi\n        /* \"#utility.yul\":4587:4588   */\n      0x00\n        /* \"#utility.yul\":4584:4585   */\n      dup1\n        /* \"#utility.yul\":4577:4589   */\n      revert\n        /* \"#utility.yul\":4528:4591   */\n    tag_232:\n        /* \"#utility.yul\":4475:4597   */\n      pop\n      jump\t// out\n        /* \"#utility.yul\":4603:4742   */\n    tag_168:\n        /* \"#utility.yul\":4649:4654   */\n      0x00\n        /* \"#utility.yul\":4687:4693   */\n      dup2\n        /* \"#utility.yul\":4674:4694   */\n      calldataload\n        /* \"#utility.yul\":4665:4694   */\n      swap1\n      pop\n        /* \"#utility.yul\":4703:4736   */\n      tag_234\n        /* \"#utility.yul\":4730:4735   */\n      dup2\n        /* \"#utility.yul\":4703:4736   */\n      tag_167\n      jump\t// in\n    tag_234:\n        /* \"#utility.yul\":4603:4742   */\n      swap3\n      swap2\n      pop\n      pop\n      jump\t// out\n        /* \"#utility.yul\":4748:5077   */\n    tag_37:\n        /* \"#utility.yul\":4807:4813   */\n      0x00\n        /* \"#utility.yul\":4856:4858   */\n      0x20\n        /* \"#utility.yul\":4844:4853   */\n      dup3\n        /* \"#utility.yul\":4835:4842   */\n      dup5\n        /* \"#utility.yul\":4831:4854   */\n      sub\n        /* \"#utility.yul\":4827:4859   */\n      slt\n        /* \"#utility.yul\":4824:4943   */\n      iszero\n      tag_236\n      jumpi\n        /* \"#utility.yul\":4862:4941   */\n      tag_237\n      tag_163\n      jump\t// in\n    tag_237:\n        /* \"#utility.yul\":4824:4943   */\n    tag_236:\n        /* \"#utility.yul\":4982:4983   */\n      0x00\n        /* \"#utility.yul\":5007:5060   */\n      tag_238\n        /* \"#utility.yul\":5052:5059   */\n      dup5\n        /* \"#utility.yul\":5043:5049   */\n      dup3\n        /* \"#utility.yul\":5032:5041   */\n      dup6\n        /* \"#utility.yul\":5028:5050   */\n      add\n        /* \"#utility.yul\":5007:5060   */\n      tag_168\n      jump\t// in\n    tag_238:\n        /* \"#utility.yul\":4997:5060   */\n      swap2\n      pop\n        /* \"#utility.yul\":4953:5070   */\n      pop\n        /* \"#utility.yul\":4748:5077   */\n      swap3\n      swap2\n      pop\n      pop\n      jump\t// out\n        /* \"#utility.yul\":5083:5173   */\n    tag_169:\n        /* \"#utility.yul\":5117:5124   */\n      0x00\n        /* \"#utility.yul\":5160:5165   */\n      dup2\n        /* \"#utility.yul\":5153:5166   */\n      iszero\n        /* \"#utility.yul\":5146:5167   */\n      iszero\n        /* \"#utility.yul\":5135:5167   */\n      swap1\n      pop\n        /* \"#utility.yul\":5083:5173   */\n      swap2\n      swap1\n      pop\n      jump\t// out\n        /* \"#utility.yul\":5179:5288   */\n    tag_170:\n        /* \"#utility.yul\":5260:5281   */\n      tag_241\n        /* \"#utility.yul\":5275:5280   */\n      dup2\n        /* \"#utility.yul\":5260:5281   */\n      tag_169\n      jump\t// in\n    tag_241:\n        /* \"#utility.yul\":5255:5258   */\n      dup3\n        /* \"#utility.yul\":5248:5282   */\n      mstore\n        /* \"#utility.yul\":5179:5288   */\n      pop\n      pop\n      jump\t// out\n        /* \"#utility.yul\":5294:5504   */\n    tag_40:\n        /* \"#utility.yul\":5381:5385   */\n      0x00\n        /* \"#utility.yul\":5419:5421   */\n      0x20\n        /* \"#utility.yul\":5408:5417   */\n      dup3\n        /* \"#utility.yul\":5404:5422   */\n      add\n        /* \"#utility.yul\":5396:5422   */\n      swap1\n      pop\n        /* \"#utility.yul\":5432:5497   */\n      tag_243\n        /* \"#utility.yul\":5494:5495   */\n      0x00\n        /* \"#utility.yul\":5483:5492   */\n      dup4\n        /* \"#utility.yul\":5479:5496   */\n      add\n        /* \"#utility.yul\":5470:5476   */\n      dup5\n        /* \"#utility.yul\":5432:5497   */\n      tag_170\n      jump\t// in\n    tag_243:\n        /* \"#utility.yul\":5294:5504   */\n      swap3\n      swap2\n      pop\n      pop\n      jump\t// out\n        /* \"#utility.yul\":5510:5679   */\n    tag_171:\n        /* \"#utility.yul\":5594:5605   */\n      0x00\n        /* \"#utility.yul\":5628:5634   */\n      dup3\n        /* \"#utility.yul\":5623:5626   */\n      dup3\n        /* \"#utility.yul\":5616:5635   */\n      mstore\n        /* \"#utility.yul\":5668:5672   */\n      0x20\n        /* \"#utility.yul\":5663:5666   */\n      dup3\n        /* \"#utility.yul\":5659:5673   */\n      add\n        /* \"#utility.yul\":5644:5673   */\n      swap1\n      pop\n        /* \"#utility.yul\":5510:5679   */\n      swap3\n      swap2\n      pop\n      pop\n      jump\t// out\n        /* \"#utility.yul\":5685:5854   */\n    tag_172:\n        /* \"#utility.yul\":5825:5846   */\n      0x596f7520617265206e6f74206120766f74657200000000000000000000000000\n        /* \"#utility.yul\":5821:5822   */\n      0x00\n        /* \"#utility.yul\":5813:5819   */\n      dup3\n        /* \"#utility.yul\":5809:5823   */\n      add\n        /* \"#utility.yul\":5802:5847   */\n      mstore\n        /* \"#utility.yul\":5685:5854   */\n      pop\n      jump\t// out\n        /* \"#utility.yul\":5860:6226   */\n    tag_173:\n        /* \"#utility.yul\":6002:6005   */\n      0x00\n        /* \"#utility.yul\":6023:6090   */\n      tag_247\n        /* \"#utility.yul\":6087:6089   */\n      0x13\n        /* \"#utility.yul\":6082:6085   */\n      dup4\n        /* \"#utility.yul\":6023:6090   */\n      tag_171\n      jump\t// in\n    tag_247:\n        /* \"#utility.yul\":6016:6090   */\n      swap2\n      pop\n        /* \"#utility.yul\":6099:6192   */\n      tag_248\n        /* \"#utility.yul\":6188:6191   */\n      dup3\n        /* \"#utility.yul\":6099:6192   */\n      tag_172\n      jump\t// in\n    tag_248:\n        /* \"#utility.yul\":6217:6219   */\n      0x20\n        /* \"#utility.yul\":6212:6215   */\n      dup3\n        /* \"#utility.yul\":6208:6220   */\n      add\n        /* \"#utility.yul\":6201:6220   */\n      swap1\n      pop\n        /* \"#utility.yul\":5860:6226   */\n      swap2\n      swap1\n      pop\n      jump\t// out\n        /* \"#utility.yul\":6232:6651   */\n    tag_60:\n        /* \"#utility.yul\":6398:6402   */\n      0x00\n        /* \"#utility.yul\":6436:6438   */\n      0x20\n        /* \"#utility.yul\":6425:6434   */\n      dup3\n        /* \"#utility.yul\":6421:6439   */\n      add\n        /* \"#utility.yul\":6413:6439   */\n      swap1\n      pop\n        /* \"#utility.yul\":6485:6494   */\n      dup2\n        /* \"#utility.yul\":6479:6483   */\n      dup2\n        /* \"#utility.yul\":6475:6495   */\n      sub\n        /* \"#utility.yul\":6471:6472   */\n      0x00\n        /* \"#utility.yul\":6460:6469   */\n      dup4\n        /* \"#utility.yul\":6456:6473   */\n      add\n        /* \"#utility.yul\":6449:6496   */\n      mstore\n        /* \"#utility.yul\":6513:6644   */\n      tag_250\n        /* \"#utility.yul\":6639:6643   */\n      dup2\n        /* \"#utility.yul\":6513:6644   */\n      tag_173\n      jump\t// in\n    tag_250:\n        /* \"#utility.yul\":6505:6644   */\n      swap1\n      pop\n        /* \"#utility.yul\":6232:6651   */\n      swap2\n      swap1\n      pop\n      jump\t// out\n        /* \"#utility.yul\":6657:6829   */\n    tag_174:\n        /* \"#utility.yul\":6797:6821   */\n      0x596f752068617665206e6f7420766f7465642079657400000000000000000000\n        /* \"#utility.yul\":6793:6794   */\n      0x00\n        /* \"#utility.yul\":6785:6791   */\n      dup3\n        /* \"#utility.yul\":6781:6795   */\n      add\n        /* \"#utility.yul\":6774:6822   */\n      mstore\n        /* \"#utility.yul\":6657:6829   */\n      pop\n      jump\t// out\n        /* \"#utility.yul\":6835:7201   */\n    tag_175:\n        /* \"#utility.yul\":6977:6980   */\n      0x00\n        /* \"#utility.yul\":6998:7065   */\n      tag_253\n        /* \"#utility.yul\":7062:7064   */\n      0x16\n        /* \"#utility.yul\":7057:7060   */\n      dup4\n        /* \"#utility.yul\":6998:7065   */\n      tag_171\n      jump\t// in\n    tag_253:\n        /* \"#utility.yul\":6991:7065   */\n      swap2\n      pop\n        /* \"#utility.yul\":7074:7167   */\n      tag_254\n        /* \"#utility.yul\":7163:7166   */\n      dup3\n        /* \"#utility.yul\":7074:7167   */\n      tag_174\n      jump\t// in\n    tag_254:\n        /* \"#utility.yul\":7192:7194   */\n      0x20\n        /* \"#utility.yul\":7187:7190   */\n      dup3\n        /* \"#utility.yul\":7183:7195   */\n      add\n        /* \"#utility.yul\":7176:7195   */\n      swap1\n      pop\n        /* \"#utility.yul\":6835:7201   */\n      swap2\n      swap1\n      pop\n      jump\t// out\n        /* \"#utility.yul\":7207:7626   */\n    tag_63:\n        /* \"#utility.yul\":7373:7377   */\n      0x00\n        /* \"#utility.yul\":7411:7413   */\n      0x20\n        /* \"#utility.yul\":7400:7409   */\n      dup3\n        /* \"#utility.yul\":7396:7414   */\n      add\n        /* \"#utility.yul\":7388:7414   */\n      swap1\n      pop\n        /* \"#utility.yul\":7460:7469   */\n      dup2\n        /* \"#utility.yul\":7454:7458   */\n      dup2\n        /* \"#utility.yul\":7450:7470   */\n      sub\n        /* \"#utility.yul\":7446:7447   */\n      0x00\n        /* \"#utility.yul\":7435:7444   */\n      dup4\n        /* \"#utility.yul\":7431:7448   */\n      add\n        /* \"#utility.yul\":7424:7471   */\n      mstore\n        /* \"#utility.yul\":7488:7619   */\n      tag_256\n        /* \"#utility.yul\":7614:7618   */\n      dup2\n        /* \"#utility.yul\":7488:7619   */\n      tag_175\n      jump\t// in\n    tag_256:\n        /* \"#utility.yul\":7480:7619   */\n      swap1\n      pop\n        /* \"#utility.yul\":7207:7626   */\n      swap2\n      swap1\n      pop\n      jump\t// out\n        /* \"#utility.yul\":7632:7812   */\n    tag_176:\n        /* \"#utility.yul\":7680:7757   */\n      0x4e487b7100000000000000000000000000000000000000000000000000000000\n        /* \"#utility.yul\":7677:7678   */\n      0x00\n        /* \"#utility.yul\":7670:7758   */\n      mstore\n        /* \"#utility.yul\":7777:7781   */\n      0x11\n        /* \"#utility.yul\":7774:7775   */\n      0x04\n        /* \"#utility.yul\":7767:7782   */\n      mstore\n        /* \"#utility.yul\":7801:7805   */\n      0x24\n        /* \"#utility.yul\":7798:7799   */\n      0x00\n        /* \"#utility.yul\":7791:7806   */\n      revert\n        /* \"#utility.yul\":7818:8009   */\n    tag_65:\n        /* \"#utility.yul\":7858:7862   */\n      0x00\n        /* \"#utility.yul\":7878:7898   */\n      tag_259\n        /* \"#utility.yul\":7896:7897   */\n      dup3\n        /* \"#utility.yul\":7878:7898   */\n      tag_154\n      jump\t// in\n    tag_259:\n        /* \"#utility.yul\":7873:7898   */\n      swap2\n      pop\n        /* \"#utility.yul\":7912:7932   */\n      tag_260\n        /* \"#utility.yul\":7930:7931   */\n      dup4\n        /* \"#utility.yul\":7912:7932   */\n      tag_154\n      jump\t// in\n    tag_260:\n        /* \"#utility.yul\":7907:7932   */\n      swap3\n      pop\n        /* \"#utility.yul\":7951:7952   */\n      dup3\n        /* \"#utility.yul\":7948:7949   */\n      dup3\n        /* \"#utility.yul\":7945:7953   */\n      lt\n        /* \"#utility.yul\":7942:7976   */\n      iszero\n      tag_261\n      jumpi\n        /* \"#utility.yul\":7956:7974   */\n      tag_262\n      tag_176\n      jump\t// in\n    tag_262:\n        /* \"#utility.yul\":7942:7976   */\n    tag_261:\n        /* \"#utility.yul\":8001:8002   */\n      dup3\n        /* \"#utility.yul\":7998:7999   */\n      dup3\n        /* \"#utility.yul\":7994:8003   */\n      sub\n        /* \"#utility.yul\":7986:8003   */\n      swap1\n      pop\n        /* \"#utility.yul\":7818:8009   */\n      swap3\n      swap2\n      pop\n      pop\n      jump\t// out\n        /* \"#utility.yul\":8015:8320   */\n    tag_77:\n        /* \"#utility.yul\":8055:8058   */\n      0x00\n        /* \"#utility.yul\":8074:8094   */\n      tag_264\n        /* \"#utility.yul\":8092:8093   */\n      dup3\n        /* \"#utility.yul\":8074:8094   */\n      tag_154\n      jump\t// in\n    tag_264:\n        /* \"#utility.yul\":8069:8094   */\n      swap2\n      pop\n        /* \"#utility.yul\":8108:8128   */\n      tag_265\n        /* \"#utility.yul\":8126:8127   */\n      dup4\n        /* \"#utility.yul\":8108:8128   */\n      tag_154\n      jump\t// in\n    tag_265:\n        /* \"#utility.yul\":8103:8128   */\n      swap3\n      pop\n        /* \"#utility.yul\":8262:8263   */\n      dup3\n        /* \"#utility.yul\":8194:8260   */\n      0xffffffffffffffffffffffffffffffffffffffffffffffffffffffffffffffff\n        /* \"#utility.yul\":8190:8264   */\n      sub\n        /* \"#utility.yul\":8187:8188   */\n      dup3\n        /* \"#utility.yul\":8184:8265   */\n      gt\n        /* \"#utility.yul\":8181:8288   */\n      iszero\n      tag_266\n      jumpi\n        /* \"#utility.yul\":8268:8286   */\n      tag_267\n      tag_176\n      jump\t// in\n    tag_267:\n        /* \"#utility.yul\":8181:8288   */\n    tag_266:\n        /* \"#utility.yul\":8312:8313   */\n      dup3\n        /* \"#utility.yul\":8309:8310   */\n      dup3\n        /* \"#utility.yul\":8305:8314   */\n      add\n        /* \"#utility.yul\":8298:8314   */\n      swap1\n      pop\n        /* \"#utility.yul\":8015:8320   */\n      swap3\n      swap2\n      pop\n      pop\n      jump\t// out\n        /* \"#utility.yul\":8326:8497   */\n    tag_177:\n        /* \"#utility.yul\":8466:8489   */\n      0x596f75206861766520766f746564206265666f72650000000000000000000000\n        /* \"#utility.yul\":8462:8463   */\n      0x00\n        /* \"#utility.yul\":8454:8460   */\n      dup3\n        /* \"#utility.yul\":8450:8464   */\n      add\n        /* \"#utility.yul\":8443:8490   */\n      mstore\n        /* \"#utility.yul\":8326:8497   */\n      pop\n      jump\t// out\n        /* \"#utility.yul\":8503:8869   */\n    tag_178:\n        /* \"#utility.yul\":8645:8648   */\n      0x00\n        /* \"#utility.yul\":8666:8733   */\n      tag_270\n        /* \"#utility.yul\":8730:8732   */\n      0x15\n        /* \"#utility.yul\":8725:8728   */\n      dup4\n        /* \"#utility.yul\":8666:8733   */\n      tag_171\n      jump\t// in\n    tag_270:\n        /* \"#utility.yul\":8659:8733   */\n      swap2\n      pop\n        /* \"#utility.yul\":8742:8835   */\n      tag_271\n        /* \"#utility.yul\":8831:8834   */\n      dup3\n        /* \"#utility.yul\":8742:8835   */\n      tag_177\n      jump\t// in\n    tag_271:\n        /* \"#utility.yul\":8860:8862   */\n      0x20\n        /* \"#utility.yul\":8855:8858   */\n      dup3\n        /* \"#utility.yul\":8851:8863   */\n      add\n        /* \"#utility.yul\":8844:8863   */\n      swap1\n      pop\n        /* \"#utility.yul\":8503:8869   */\n      swap2\n      swap1\n      pop\n      jump\t// out\n        /* \"#utility.yul\":8875:9294   */\n    tag_91:\n        /* \"#utility.yul\":9041:9045   */\n      0x00\n        /* \"#utility.yul\":9079:9081   */\n      0x20\n        /* \"#utility.yul\":9068:9077   */\n      dup3\n        /* \"#utility.yul\":9064:9082   */\n      add\n        /* \"#utility.yul\":9056:9082   */\n      swap1\n      pop\n        /* \"#utility.yul\":9128:9137   */\n      dup2\n        /* \"#utility.yul\":9122:9126   */\n      dup2\n        /* \"#utility.yul\":9118:9138   */\n      sub\n        /* \"#utility.yul\":9114:9115   */\n      0x00\n        /* \"#utility.yul\":9103:9112   */\n      dup4\n        /* \"#utility.yul\":9099:9116   */\n      add\n        /* \"#utility.yul\":9092:9139   */\n      mstore\n        /* \"#utility.yul\":9156:9287   */\n      tag_273\n        /* \"#utility.yul\":9282:9286   */\n      dup2\n        /* \"#utility.yul\":9156:9287   */\n      tag_178\n      jump\t// in\n    tag_273:\n        /* \"#utility.yul\":9148:9287   */\n      swap1\n      pop\n        /* \"#utility.yul\":8875:9294   */\n      swap2\n      swap1\n      pop\n      jump\t// out\n        /* \"#utility.yul\":9300:9465   */\n    tag_179:\n        /* \"#utility.yul\":9440:9457   */\n      0x496e76616c696420616464726573730000000000000000000000000000000000\n        /* \"#utility.yul\":9436:9437   */\n      0x00\n        /* \"#utility.yul\":9428:9434   */\n      dup3\n        /* \"#utility.yul\":9424:9438   */\n      add\n        /* \"#utility.yul\":9417:9458   */\n      mstore\n        /* \"#utility.yul\":9300:9465   */\n      pop\n      jump\t// out\n        /* \"#utility.yul\":9471:9837   */\n    tag_180:\n        /* \"#utility.yul\":9613:9616   */\n      0x00\n        /* \"#utility.yul\":9634:9701   */\n      tag_276\n        /* \"#utility.yul\":9698:9700   */\n      0x0f\n        /* \"#utility.yul\":9693:9696   */\n      dup4\n        /* \"#utility.yul\":9634:9701   */\n      tag_171\n      jump\t// in\n    tag_276:\n        /* \"#utility.yul\":9627:9701   */\n      swap2\n      pop\n        /* \"#utility.yul\":9710:9803   */\n      tag_277\n        /* \"#utility.yul\":9799:9802   */\n      dup3\n        /* \"#utility.yul\":9710:9803   */\n      tag_179\n      jump\t// in\n    tag_277:\n        /* \"#utility.yul\":9828:9830   */\n      0x20\n        /* \"#utility.yul\":9823:9826   */\n      dup3\n        /* \"#utility.yul\":9819:9831   */\n      add\n        /* \"#utility.yul\":9812:9831   */\n      swap1\n      pop\n        /* \"#utility.yul\":9471:9837   */\n      swap2\n      swap1\n      pop\n      jump\t// out\n        /* \"#utility.yul\":9843:10262   */\n    tag_96:\n        /* \"#utility.yul\":10009:10013   */\n      0x00\n        /* \"#utility.yul\":10047:10049   */\n      0x20\n        /* \"#utility.yul\":10036:10045   */\n      dup3\n        /* \"#utility.yul\":10032:10050   */\n      add\n        /* \"#utility.yul\":10024:10050   */\n      swap1\n      pop\n        /* \"#utility.yul\":10096:10105   */\n      dup2\n        /* \"#utility.yul\":10090:10094   */\n      dup2\n        /* \"#utility.yul\":10086:10106   */\n      sub\n        /* \"#utility.yul\":10082:10083   */\n      0x00\n        /* \"#utility.yul\":10071:10080   */\n      dup4\n        /* \"#utility.yul\":10067:10084   */\n      add\n        /* \"#utility.yul\":10060:10107   */\n      mstore\n        /* \"#utility.yul\":10124:10255   */\n      tag_279\n        /* \"#utility.yul\":10250:10254   */\n      dup2\n        /* \"#utility.yul\":10124:10255   */\n      tag_180\n      jump\t// in\n    tag_279:\n        /* \"#utility.yul\":10116:10255   */\n      swap1\n      pop\n        /* \"#utility.yul\":9843:10262   */\n      swap2\n      swap1\n      pop\n      jump\t// out\n        /* \"#utility.yul\":10268:10448   */\n    tag_151:\n        /* \"#utility.yul\":10316:10393   */\n      0x4e487b7100000000000000000000000000000000000000000000000000000000\n        /* \"#utility.yul\":10313:10314   */\n      0x00\n        /* \"#utility.yul\":10306:10394   */\n      mstore\n        /* \"#utility.yul\":10413:10417   */\n      0x12\n        /* \"#utility.yul\":10410:10411   */\n      0x04\n        /* \"#utility.yul\":10403:10418   */\n      mstore\n        /* \"#utility.yul\":10437:10441   */\n      0x24\n        /* \"#utility.yul\":10434:10435   */\n      0x00\n        /* \"#utility.yul\":10427:10442   */\n      revert\n        /* \"#utility.yul\":10454:10639   */\n    tag_101:\n        /* \"#utility.yul\":10494:10495   */\n      0x00\n        /* \"#utility.yul\":10511:10531   */\n      tag_282\n        /* \"#utility.yul\":10529:10530   */\n      dup3\n        /* \"#utility.yul\":10511:10531   */\n      tag_154\n      jump\t// in\n    tag_282:\n        /* \"#utility.yul\":10506:10531   */\n      swap2\n      pop\n        /* \"#utility.yul\":10545:10565   */\n      tag_283\n        /* \"#utility.yul\":10563:10564   */\n      dup4\n        /* \"#utility.yul\":10545:10565   */\n      tag_154\n      jump\t// in\n    tag_283:\n        /* \"#utility.yul\":10540:10565   */\n      swap3\n      pop\n        /* \"#utility.yul\":10584:10585   */\n      dup3\n        /* \"#utility.yul\":10574:10609   */\n      tag_284\n      jumpi\n        /* \"#utility.yul\":10589:10607   */\n      tag_285\n      tag_151\n      jump\t// in\n    tag_285:\n        /* \"#utility.yul\":10574:10609   */\n    tag_284:\n        /* \"#utility.yul\":10631:10632   */\n      dup3\n        /* \"#utility.yul\":10628:10629   */\n      dup3\n        /* \"#utility.yul\":10624:10633   */\n      div\n        /* \"#utility.yul\":10619:10633   */\n      swap1\n      pop\n        /* \"#utility.yul\":10454:10639   */\n      swap3\n      swap2\n      pop\n      pop\n      jump\t// out\n        /* \"#utility.yul\":10645:10818   */\n    tag_181:\n        /* \"#utility.yul\":10785:10810   */\n      0x566f74696e67206973206e6f7420617661696c61626c65000000000000000000\n        /* \"#utility.yul\":10781:10782   */\n      0x00\n        /* \"#utility.yul\":10773:10779   */\n      dup3\n        /* \"#utility.yul\":10769:10783   */\n      add\n        /* \"#utility.yul\":10762:10811   */\n      mstore\n        /* \"#utility.yul\":10645:10818   */\n      pop\n      jump\t// out\n        /* \"#utility.yul\":10824:11190   */\n    tag_182:\n        /* \"#utility.yul\":10966:10969   */\n      0x00\n        /* \"#utility.yul\":10987:11054   */\n      tag_288\n        /* \"#utility.yul\":11051:11053   */\n      0x17\n        /* \"#utility.yul\":11046:11049   */\n      dup4\n        /* \"#utility.yul\":10987:11054   */\n      tag_171\n      jump\t// in\n    tag_288:\n        /* \"#utility.yul\":10980:11054   */\n      swap2\n      pop\n        /* \"#utility.yul\":11063:11156   */\n      tag_289\n        /* \"#utility.yul\":11152:11155   */\n      dup3\n        /* \"#utility.yul\":11063:11156   */\n      tag_181\n      jump\t// in\n    tag_289:\n        /* \"#utility.yul\":11181:11183   */\n      0x20\n        /* \"#utility.yul\":11176:11179   */\n      dup3\n        /* \"#utility.yul\":11172:11184   */\n      add\n        /* \"#utility.yul\":11165:11184   */\n      swap1\n      pop\n        /* \"#utility.yul\":10824:11190   */\n      swap2\n      swap1\n      pop\n      jump\t// out\n        /* \"#utility.yul\":11196:11615   */\n    tag_106:\n        /* \"#utility.yul\":11362:11366   */\n      0x00\n        /* \"#utility.yul\":11400:11402   */\n      0x20\n        /* \"#utility.yul\":11389:11398   */\n      dup3\n        /* \"#utility.yul\":11385:11403   */\n      add\n        /* \"#utility.yul\":11377:11403   */\n      swap1\n      pop\n        /* \"#utility.yul\":11449:11458   */\n      dup2\n        /* \"#utility.yul\":11443:11447   */\n      dup2\n        /* \"#utility.yul\":11439:11459   */\n      sub\n        /* \"#utility.yul\":11435:11436   */\n      0x00\n        /* \"#utility.yul\":11424:11433   */\n      dup4\n        /* \"#utility.yul\":11420:11437   */\n      add\n        /* \"#utility.yul\":11413:11460   */\n      mstore\n        /* \"#utility.yul\":11477:11608   */\n      tag_291\n        /* \"#utility.yul\":11603:11607   */\n      dup2\n        /* \"#utility.yul\":11477:11608   */\n      tag_182\n      jump\t// in\n    tag_291:\n        /* \"#utility.yul\":11469:11608   */\n      swap1\n      pop\n        /* \"#utility.yul\":11196:11615   */\n      swap2\n      swap1\n      pop\n      jump\t// out\n        /* \"#utility.yul\":11621:11785   */\n    tag_183:\n        /* \"#utility.yul\":11761:11777   */\n      0x4e6f205374616b6520466f756e64000000000000000000000000000000000000\n        /* \"#utility.yul\":11757:11758   */\n      0x00\n        /* \"#utility.yul\":11749:11755   */\n      dup3\n        /* \"#utility.yul\":11745:11759   */\n      add\n        /* \"#utility.yul\":11738:11778   */\n      mstore\n        /* \"#utility.yul\":11621:11785   */\n      pop\n      jump\t// out\n        /* \"#utility.yul\":11791:12157   */\n    tag_184:\n        /* \"#utility.yul\":11933:11936   */\n      0x00\n        /* \"#utility.yul\":11954:12021   */\n      tag_294\n        /* \"#utility.yul\":12018:12020   */\n      0x0e\n        /* \"#utility.yul\":12013:12016   */\n      dup4\n        /* \"#utility.yul\":11954:12021   */\n      tag_171\n      jump\t// in\n    tag_294:\n        /* \"#utility.yul\":11947:12021   */\n      swap2\n      pop\n        /* \"#utility.yul\":12030:12123   */\n      tag_295\n        /* \"#utility.yul\":12119:12122   */\n      dup3\n        /* \"#utility.yul\":12030:12123   */\n      tag_183\n      jump\t// in\n    tag_295:\n        /* \"#utility.yul\":12148:12150   */\n      0x20\n        /* \"#utility.yul\":12143:12146   */\n      dup3\n        /* \"#utility.yul\":12139:12151   */\n      add\n        /* \"#utility.yul\":12132:12151   */\n      swap1\n      pop\n        /* \"#utility.yul\":11791:12157   */\n      swap2\n      swap1\n      pop\n      jump\t// out\n        /* \"#utility.yul\":12163:12582   */\n    tag_110:\n        /* \"#utility.yul\":12329:12333   */\n      0x00\n        /* \"#utility.yul\":12367:12369   */\n      0x20\n        /* \"#utility.yul\":12356:12365   */\n      dup3\n        /* \"#utility.yul\":12352:12370   */\n      add\n        /* \"#utility.yul\":12344:12370   */\n      swap1\n      pop\n        /* \"#utility.yul\":12416:12425   */\n      dup2\n        /* \"#utility.yul\":12410:12414   */\n      dup2\n        /* \"#utility.yul\":12406:12426   */\n      sub\n        /* \"#utility.yul\":12402:12403   */\n      0x00\n        /* \"#utility.yul\":12391:12400   */\n      dup4\n        /* \"#utility.yul\":12387:12404   */\n      add\n        /* \"#utility.yul\":12380:12427   */\n      mstore\n        /* \"#utility.yul\":12444:12575   */\n      tag_297\n        /* \"#utility.yul\":12570:12574   */\n      dup2\n        /* \"#utility.yul\":12444:12575   */\n      tag_184\n      jump\t// in\n    tag_297:\n        /* \"#utility.yul\":12436:12575   */\n      swap1\n      pop\n        /* \"#utility.yul\":12163:12582   */\n      swap2\n      swap1\n      pop\n      jump\t// out\n        /* \"#utility.yul\":12588:12936   */\n    tag_116:\n        /* \"#utility.yul\":12628:12635   */\n      0x00\n        /* \"#utility.yul\":12651:12671   */\n      tag_299\n        /* \"#utility.yul\":12669:12670   */\n      dup3\n        /* \"#utility.yul\":12651:12671   */\n      tag_154\n      jump\t// in\n    tag_299:\n        /* \"#utility.yul\":12646:12671   */\n      swap2\n      pop\n        /* \"#utility.yul\":12685:12705   */\n      tag_300\n        /* \"#utility.yul\":12703:12704   */\n      dup4\n        /* \"#utility.yul\":12685:12705   */\n      tag_154\n      jump\t// in\n    tag_300:\n        /* \"#utility.yul\":12680:12705   */\n      swap3\n      pop\n        /* \"#utility.yul\":12873:12874   */\n      dup2\n        /* \"#utility.yul\":12805:12871   */\n      0xffffffffffffffffffffffffffffffffffffffffffffffffffffffffffffffff\n        /* \"#utility.yul\":12801:12875   */\n      div\n        /* \"#utility.yul\":12798:12799   */\n      dup4\n        /* \"#utility.yul\":12795:12876   */\n      gt\n        /* \"#utility.yul\":12790:12791   */\n      dup3\n        /* \"#utility.yul\":12783:12792   */\n      iszero\n        /* \"#utility.yul\":12776:12793   */\n      iszero\n        /* \"#utility.yul\":12772:12877   */\n      and\n        /* \"#utility.yul\":12769:12900   */\n      iszero\n      tag_301\n      jumpi\n        /* \"#utility.yul\":12880:12898   */\n      tag_302\n      tag_176\n      jump\t// in\n    tag_302:\n        /* \"#utility.yul\":12769:12900   */\n    tag_301:\n        /* \"#utility.yul\":12928:12929   */\n      dup3\n        /* \"#utility.yul\":12925:12926   */\n      dup3\n        /* \"#utility.yul\":12921:12930   */\n      mul\n        /* \"#utility.yul\":12910:12930   */\n      swap1\n      pop\n        /* \"#utility.yul\":12588:12936   */\n      swap3\n      swap2\n      pop\n      pop\n      jump\t// out\n        /* \"#utility.yul\":12942:13109   */\n    tag_185:\n        /* \"#utility.yul\":13082:13101   */\n      0x4572726f722074696d657374616d702030000000000000000000000000000000\n        /* \"#utility.yul\":13078:13079   */\n      0x00\n        /* \"#utility.yul\":13070:13076   */\n      dup3\n        /* \"#utility.yul\":13066:13080   */\n      add\n        /* \"#utility.yul\":13059:13102   */\n      mstore\n        /* \"#utility.yul\":12942:13109   */\n      pop\n      jump\t// out\n        /* \"#utility.yul\":13115:13481   */\n    tag_186:\n        /* \"#utility.yul\":13257:13260   */\n      0x00\n        /* \"#utility.yul\":13278:13345   */\n      tag_305\n        /* \"#utility.yul\":13342:13344   */\n      0x11\n        /* \"#utility.yul\":13337:13340   */\n      dup4\n        /* \"#utility.yul\":13278:13345   */\n      tag_171\n      jump\t// in\n    tag_305:\n        /* \"#utility.yul\":13271:13345   */\n      swap2\n      pop\n        /* \"#utility.yul\":13354:13447   */\n      tag_306\n        /* \"#utility.yul\":13443:13446   */\n      dup3\n        /* \"#utility.yul\":13354:13447   */\n      tag_185\n      jump\t// in\n    tag_306:\n        /* \"#utility.yul\":13472:13474   */\n      0x20\n        /* \"#utility.yul\":13467:13470   */\n      dup3\n        /* \"#utility.yul\":13463:13475   */\n      add\n        /* \"#utility.yul\":13456:13475   */\n      swap1\n      pop\n        /* \"#utility.yul\":13115:13481   */\n      swap2\n      swap1\n      pop\n      jump\t// out\n        /* \"#utility.yul\":13487:13906   */\n    tag_136:\n        /* \"#utility.yul\":13653:13657   */\n      0x00\n        /* \"#utility.yul\":13691:13693   */\n      0x20\n        /* \"#utility.yul\":13680:13689   */\n      dup3\n        /* \"#utility.yul\":13676:13694   */\n      add\n        /* \"#utility.yul\":13668:13694   */\n      swap1\n      pop\n        /* \"#utility.yul\":13740:13749   */\n      dup2\n        /* \"#utility.yul\":13734:13738   */\n      dup2\n        /* \"#utility.yul\":13730:13750   */\n      sub\n        /* \"#utility.yul\":13726:13727   */\n      0x00\n        /* \"#utility.yul\":13715:13724   */\n      dup4\n        /* \"#utility.yul\":13711:13728   */\n      add\n        /* \"#utility.yul\":13704:13751   */\n      mstore\n        /* \"#utility.yul\":13768:13899   */\n      tag_308\n        /* \"#utility.yul\":13894:13898   */\n      dup2\n        /* \"#utility.yul\":13768:13899   */\n      tag_186\n      jump\t// in\n    tag_308:\n        /* \"#utility.yul\":13760:13899   */\n      swap1\n      pop\n        /* \"#utility.yul\":13487:13906   */\n      swap2\n      swap1\n      pop\n      jump\t// out\n        /* \"#utility.yul\":13912:14011   */\n    tag_187:\n        /* \"#utility.yul\":13964:13970   */\n      0x00\n        /* \"#utility.yul\":13998:14003   */\n      dup2\n        /* \"#utility.yul\":13992:14004   */\n      mload\n        /* \"#utility.yul\":13982:14004   */\n      swap1\n      pop\n        /* \"#utility.yul\":13912:14011   */\n      swap2\n      swap1\n      pop\n      jump\t// out\n        /* \"#utility.yul\":14017:14324   */\n    tag_188:\n        /* \"#utility.yul\":14085:14086   */\n      0x00\n        /* \"#utility.yul\":14095:14208   */\n    tag_311:\n        /* \"#utility.yul\":14109:14115   */\n      dup4\n        /* \"#utility.yul\":14106:14107   */\n      dup2\n        /* \"#utility.yul\":14103:14116   */\n      lt\n        /* \"#utility.yul\":14095:14208   */\n      iszero\n      tag_313\n      jumpi\n        /* \"#utility.yul\":14194:14195   */\n      dup1\n        /* \"#utility.yul\":14189:14192   */\n      dup3\n        /* \"#utility.yul\":14185:14196   */\n      add\n        /* \"#utility.yul\":14179:14197   */\n      mload\n        /* \"#utility.yul\":14175:14176   */\n      dup2\n        /* \"#utility.yul\":14170:14173   */\n      dup5\n        /* \"#utility.yul\":14166:14177   */\n      add\n        /* \"#utility.yul\":14159:14198   */\n      mstore\n        /* \"#utility.yul\":14131:14133   */\n      0x20\n        /* \"#utility.yul\":14128:14129   */\n      dup2\n        /* \"#utility.yul\":14124:14134   */\n      add\n        /* \"#utility.yul\":14119:14134   */\n      swap1\n      pop\n        /* \"#utility.yul\":14095:14208   */\n      jump(tag_311)\n    tag_313:\n        /* \"#utility.yul\":14226:14232   */\n      dup4\n        /* \"#utility.yul\":14223:14224   */\n      dup2\n        /* \"#utility.yul\":14220:14233   */\n      gt\n        /* \"#utility.yul\":14217:14318   */\n      iszero\n      tag_314\n      jumpi\n        /* \"#utility.yul\":14306:14307   */\n      0x00\n        /* \"#utility.yul\":14297:14303   */\n      dup5\n        /* \"#utility.yul\":14292:14295   */\n      dup5\n        /* \"#utility.yul\":14288:14304   */\n      add\n        /* \"#utility.yul\":14281:14308   */\n      mstore\n        /* \"#utility.yul\":14217:14318   */\n    tag_314:\n        /* \"#utility.yul\":14066:14324   */\n      pop\n        /* \"#utility.yul\":14017:14324   */\n      pop\n      pop\n      pop\n      jump\t// out\n        /* \"#utility.yul\":14330:14432   */\n    tag_189:\n        /* \"#utility.yul\":14371:14377   */\n      0x00\n        /* \"#utility.yul\":14422:14424   */\n      0x1f\n        /* \"#utility.yul\":14418:14425   */\n      not\n        /* \"#utility.yul\":14413:14415   */\n      0x1f\n        /* \"#utility.yul\":14406:14411   */\n      dup4\n        /* \"#utility.yul\":14402:14416   */\n      add\n        /* \"#utility.yul\":14398:14426   */\n      and\n        /* \"#utility.yul\":14388:14426   */\n      swap1\n      pop\n        /* \"#utility.yul\":14330:14432   */\n      swap2\n      swap1\n      pop\n      jump\t// out\n        /* \"#utility.yul\":14438:14802   */\n    tag_190:\n        /* \"#utility.yul\":14526:14529   */\n      0x00\n        /* \"#utility.yul\":14554:14593   */\n      tag_317\n        /* \"#utility.yul\":14587:14592   */\n      dup3\n        /* \"#utility.yul\":14554:14593   */\n      tag_187\n      jump\t// in\n    tag_317:\n        /* \"#utility.yul\":14609:14680   */\n      tag_318\n        /* \"#utility.yul\":14673:14679   */\n      dup2\n        /* \"#utility.yul\":14668:14671   */\n      dup6\n        /* \"#utility.yul\":14609:14680   */\n      tag_171\n      jump\t// in\n    tag_318:\n        /* \"#utility.yul\":14602:14680   */\n      swap4\n      pop\n        /* \"#utility.yul\":14689:14741   */\n      tag_319\n        /* \"#utility.yul\":14734:14740   */\n      dup2\n        /* \"#utility.yul\":14729:14732   */\n      dup6\n        /* \"#utility.yul\":14722:14726   */\n      0x20\n        /* \"#utility.yul\":14715:14720   */\n      dup7\n        /* \"#utility.yul\":14711:14727   */\n      add\n        /* \"#utility.yul\":14689:14741   */\n      tag_188\n      jump\t// in\n    tag_319:\n        /* \"#utility.yul\":14766:14795   */\n      tag_320\n        /* \"#utility.yul\":14788:14794   */\n      dup2\n        /* \"#utility.yul\":14766:14795   */\n      tag_189\n      jump\t// in\n    tag_320:\n        /* \"#utility.yul\":14761:14764   */\n      dup5\n        /* \"#utility.yul\":14757:14796   */\n      add\n        /* \"#utility.yul\":14750:14796   */\n      swap2\n      pop\n        /* \"#utility.yul\":14530:14802   */\n      pop\n        /* \"#utility.yul\":14438:14802   */\n      swap3\n      swap2\n      pop\n      pop\n      jump\t// out\n        /* \"#utility.yul\":14808:15121   */\n    tag_148:\n        /* \"#utility.yul\":14921:14925   */\n      0x00\n        /* \"#utility.yul\":14959:14961   */\n      0x20\n        /* \"#utility.yul\":14948:14957   */\n      dup3\n        /* \"#utility.yul\":14944:14962   */\n      add\n        /* \"#utility.yul\":14936:14962   */\n      swap1\n      pop\n        /* \"#utility.yul\":15008:15017   */\n      dup2\n        /* \"#utility.yul\":15002:15006   */\n      dup2\n        /* \"#utility.yul\":14998:15018   */\n      sub\n        /* \"#utility.yul\":14994:14995   */\n      0x00\n        /* \"#utility.yul\":14983:14992   */\n      dup4\n        /* \"#utility.yul\":14979:14996   */\n      add\n        /* \"#utility.yul\":14972:15019   */\n      mstore\n        /* \"#utility.yul\":15036:15114   */\n      tag_322\n        /* \"#utility.yul\":15109:15113   */\n      dup2\n        /* \"#utility.yul\":15100:15106   */\n      dup5\n        /* \"#utility.yul\":15036:15114   */\n      tag_190\n      jump\t// in\n    tag_322:\n        /* \"#utility.yul\":15028:15114   */\n      swap1\n      pop\n        /* \"#utility.yul\":14808:15121   */\n      swap3\n      swap2\n      pop\n      pop\n      jump\t// out\n\n    auxdata: 0xa2646970667358221220e74d71534754eaaf60f723fa85dcbf1721de8782e4f2afb407610a175f12aa6f64736f6c634300080b0033\n}\n",
				"bytecode": {
					"linkReferences": {},
					"object": "608060405234801561001057600080fd5b50600f600081905550605060018190555061147d806100306000396000f3fe608060405234801561001057600080fd5b50600436106100a95760003560e01c8063a143a5f211610071578063a143a5f21461011c578063a3ec138d1461014c578063a7771ee31461017c578063b87da76d146101ac578063cb79c2e1146101ca578063cbb3e152146101e8576100a9565b8063070c8b74146100ae57806310486b6a146100b85780635f5300ff146100d6578063632a9a52146100f45780638891cf0d146100fe575b600080fd5b6100b6610206565b005b6100c06103e2565b6040516100cd9190610df2565b60405180910390f35b6100de610643565b6040516100eb9190610e1d565b60405180910390f35b6100fc610649565b005b61010661082d565b6040516101139190610e1d565b60405180910390f35b61013660048036038101906101319190610e69565b610833565b6040516101439190610e1d565b60405180910390f35b61016660048036038101906101619190610ec2565b61084b565b6040516101739190610f0a565b60405180910390f35b61019660048036038101906101919190610ec2565b610876565b6040516101a39190610f0a565b60405180910390f35b6101b461093e565b6040516101c19190610e1d565b60405180910390f35b6101d2610944565b6040516101df9190610e1d565b60405180910390f35b6101f061094a565b6040516101fd9190610e1d565b60405180910390f35b61020e610980565b60011515600660003373ffffffffffffffffffffffffffffffffffffffff1673ffffffffffffffffffffffffffffffffffffffff16815260200190815260200160002060000160009054906101000a900460ff161515146102a4576040517f08c379a000000000000000000000000000000000000000000000000000000000815260040161029b90610f82565b60405180910390fd5b60011515600660003373ffffffffffffffffffffffffffffffffffffffff1673ffffffffffffffffffffffffffffffffffffffff1681526020019081526020016000206001016000600454815260200190815260200160002060009054906101000a900460ff1615151461034d576040517f08c379a000000000000000000000000000000000000000000000000000000000815260040161034490610fee565b60405180910390fd5b60001515600660003373ffffffffffffffffffffffffffffffffffffffff1673ffffffffffffffffffffffffffffffffffffffff1681526020019081526020016000206001016000600454815260200190815260200160002060009054906101000a90505050600160076000600454815260200190815260200160002060008282546103d9919061103d565b92505081905550565b6103ea610c4d565b6000600860003373ffffffffffffffffffffffffffffffffffffffff1673ffffffffffffffffffffffffffffffffffffffff168152602001908152602001600020604051806060016040529081600082016040518060e00160405290816000820160009054906101000a900473ffffffffffffffffffffffffffffffffffffffff1673ffffffffffffffffffffffffffffffffffffffff1673ffffffffffffffffffffffffffffffffffffffff168152602001600182015481526020016002820154815260200160038201548152602001600482015481526020016005820154815260200160068201548152505081526020016007820160009054906101000a900473ffffffffffffffffffffffffffffffffffffffff1673ffffffffffffffffffffffffffffffffffffffff1673ffffffffffffffffffffffffffffffffffffffff1681526020016008820154815250509050600060405180606001604052806000815260200160008152602001836000015181525090506105748160400151602001516109d1565b60006105838260400151610a17565b9050600042836040015160c0015111156105c1576000806105ac85604001516020015185610a77565b9150915080826105bc9190611071565b925050505b60006105d08560400151610ab3565b11156105ff5760006105e9846040015160200151610add565b905080846040015160800181815250505061060f565b6000836040015160800181815250505b8183604001516060018181525050808360200181815250508260400151602001518360000181815250508294505050505090565b60055481565b610651610980565b60011515600660003373ffffffffffffffffffffffffffffffffffffffff1673ffffffffffffffffffffffffffffffffffffffff16815260200190815260200160002060000160009054906101000a900460ff161515146106e7576040517f08c379a00000000000000000000000000000000000000000000000000000000081526004016106de90610f82565b60405180910390fd5b60001515600660003373ffffffffffffffffffffffffffffffffffffffff1673ffffffffffffffffffffffffffffffffffffffff1681526020019081526020016000206001016000600454815260200190815260200160002060009054906101000a900460ff16151514610790576040517f08c379a000000000000000000000000000000000000000000000000000000000815260040161078790611113565b60405180910390fd5b6001600660003373ffffffffffffffffffffffffffffffffffffffff1673ffffffffffffffffffffffffffffffffffffffff1681526020019081526020016000206001016000600454815260200190815260200160002060006101000a81548160ff021916908315150217905550600160076000600454815260200190815260200160002060008282546108249190611071565b92505081905550565b60015481565b60076020528060005260406000206000915090505481565b60066020528060005260406000206000915090508060000160009054906101000a900460ff16905081565b60008073ffffffffffffffffffffffffffffffffffffffff168273ffffffffffffffffffffffffffffffffffffffff1614156108e7576040517f08c379a00000000000000000000000000000000000000000000000000000000081526004016108de9061117f565b60405180910390fd5b600660008373ffffffffffffffffffffffffffffffffffffffff1673ffffffffffffffffffffffffffffffffffffffff16815260200190815260200160002060000160009054906101000a900460ff169050919050565b60025481565b60005481565b600080600254146109785762093a8060025442610967919061103d565b61097191906111ce565b905061097d565b600090505b90565b600360009054906101000a900460ff166109cf576040517f08c379a00000000000000000000000000000000000000000000000000000000081526004016109c69061124b565b60405180910390fd5b565b60008111610a14576040517f08c379a0000000000000000000000000000000000000000000000000000000008152600401610a0b906112b7565b60405180910390fd5b50565b60008082602001511415610a2e5760009050610a72565b6a52b7d2dcc80cd2e4000000610a478360400151610b10565b8360a001518460200151610a5b91906112d7565b610a6591906112d7565b610a6f91906111ce565b90505b919050565b600080610a91610a8985600054610bbf565b6103e8610bd5565b610aa8610aa085600054610bbf565b6103e8610bd5565b915091509250929050565b6000610ad662093a808342610ac8919061103d565b610bd590919063ffffffff16565b9050919050565b60006301dfe2006103e860015484610af591906112d7565b610aff91906111ce565b610b0991906111ce565b9050919050565b6000808211610b54576040517f08c379a0000000000000000000000000000000000000000000000000000000008152600401610b4b9061137d565b60405180910390fd5b610bb869d3c21bcecceda10000008342610b6e919061103d565b610b7891906112d7565b6301e133806040518060400160405280601d81526020017f4572726f722063616e6e6f74206469766964652074696d657374616d70000000815250610beb565b9050919050565b60008183610bcd91906112d7565b905092915050565b60008183610be391906111ce565b905092915050565b60008083118290610c32576040517f08c379a0000000000000000000000000000000000000000000000000000000008152600401610c299190611425565b60405180910390fd5b50828481610c4357610c4261119f565b5b0490509392505050565b60405180606001604052806000815260200160008152602001610c6e610c74565b81525090565b6040518060e00160405280600073ffffffffffffffffffffffffffffffffffffffff1681526020016000815260200160008152602001600081526020016000815260200160008152602001600081525090565b6000819050919050565b610cda81610cc7565b82525050565b600073ffffffffffffffffffffffffffffffffffffffff82169050919050565b6000610d0b82610ce0565b9050919050565b610d1b81610d00565b82525050565b60e082016000820151610d376000850182610d12565b506020820151610d4a6020850182610cd1565b506040820151610d5d6040850182610cd1565b506060820151610d706060850182610cd1565b506080820151610d836080850182610cd1565b5060a0820151610d9660a0850182610cd1565b5060c0820151610da960c0850182610cd1565b50505050565b61012082016000820151610dc66000850182610cd1565b506020820151610dd96020850182610cd1565b506040820151610dec6040850182610d21565b50505050565b600061012082019050610e086000830184610daf565b92915050565b610e1781610cc7565b82525050565b6000602082019050610e326000830184610e0e565b92915050565b600080fd5b610e4681610cc7565b8114610e5157600080fd5b50565b600081359050610e6381610e3d565b92915050565b600060208284031215610e7f57610e7e610e38565b5b6000610e8d84828501610e54565b91505092915050565b610e9f81610d00565b8114610eaa57600080fd5b50565b600081359050610ebc81610e96565b92915050565b600060208284031215610ed857610ed7610e38565b5b6000610ee684828501610ead565b91505092915050565b60008115159050919050565b610f0481610eef565b82525050565b6000602082019050610f1f6000830184610efb565b92915050565b600082825260208201905092915050565b7f596f7520617265206e6f74206120766f74657200000000000000000000000000600082015250565b6000610f6c601383610f25565b9150610f7782610f36565b602082019050919050565b60006020820190508181036000830152610f9b81610f5f565b9050919050565b7f596f752068617665206e6f7420766f7465642079657400000000000000000000600082015250565b6000610fd8601683610f25565b9150610fe382610fa2565b602082019050919050565b6000602082019050818103600083015261100781610fcb565b9050919050565b7f4e487b7100000000000000000000000000000000000000000000000000000000600052601160045260246000fd5b600061104882610cc7565b915061105383610cc7565b9250828210156110665761106561100e565b5b828203905092915050565b600061107c82610cc7565b915061108783610cc7565b9250827fffffffffffffffffffffffffffffffffffffffffffffffffffffffffffffffff038211156110bc576110bb61100e565b5b828201905092915050565b7f596f75206861766520766f746564206265666f72650000000000000000000000600082015250565b60006110fd601583610f25565b9150611108826110c7565b602082019050919050565b6000602082019050818103600083015261112c816110f0565b9050919050565b7f496e76616c696420616464726573730000000000000000000000000000000000600082015250565b6000611169600f83610f25565b915061117482611133565b602082019050919050565b600060208201905081810360008301526111988161115c565b9050919050565b7f4e487b7100000000000000000000000000000000000000000000000000000000600052601260045260246000fd5b60006111d982610cc7565b91506111e483610cc7565b9250826111f4576111f361119f565b5b828204905092915050565b7f566f74696e67206973206e6f7420617661696c61626c65000000000000000000600082015250565b6000611235601783610f25565b9150611240826111ff565b602082019050919050565b6000602082019050818103600083015261126481611228565b9050919050565b7f4e6f205374616b6520466f756e64000000000000000000000000000000000000600082015250565b60006112a1600e83610f25565b91506112ac8261126b565b602082019050919050565b600060208201905081810360008301526112d081611294565b9050919050565b60006112e282610cc7565b91506112ed83610cc7565b9250817fffffffffffffffffffffffffffffffffffffffffffffffffffffffffffffffff04831182151516156113265761132561100e565b5b828202905092915050565b7f4572726f722074696d657374616d702030000000000000000000000000000000600082015250565b6000611367601183610f25565b915061137282611331565b602082019050919050565b600060208201905081810360008301526113968161135a565b9050919050565b600081519050919050565b60005b838110156113c65780820151818401526020810190506113ab565b838111156113d5576000848401525b50505050565b6000601f19601f8301169050919050565b60006113f78261139d565b6114018185610f25565b93506114118185602086016113a8565b61141a816113db565b840191505092915050565b6000602082019050818103600083015261143f81846113ec565b90509291505056fea2646970667358221220e74d71534754eaaf60f723fa85dcbf1721de8782e4f2afb407610a175f12aa6f64736f6c634300080b0033",
					"opcodes": "PUSH1 0x80 PUSH1 0x40 MSTORE CALLVALUE DUP1 ISZERO PUSH2 0x10 JUMPI PUSH1 0x0 DUP1 REVERT JUMPDEST POP PUSH1 0xF PUSH1 0x0 DUP2 SWAP1 SSTORE POP PUSH1 0x50 PUSH1 0x1 DUP2 SWAP1 SSTORE POP PUSH2 0x147D DUP1 PUSH2 0x30 PUSH1 0x0 CODECOPY PUSH1 0x0 RETURN INVALID PUSH1 0x80 PUSH1 0x40 MSTORE CALLVALUE DUP1 ISZERO PUSH2 0x10 JUMPI PUSH1 0x0 DUP1 REVERT JUMPDEST POP PUSH1 0x4 CALLDATASIZE LT PUSH2 0xA9 JUMPI PUSH1 0x0 CALLDATALOAD PUSH1 0xE0 SHR DUP1 PUSH4 0xA143A5F2 GT PUSH2 0x71 JUMPI DUP1 PUSH4 0xA143A5F2 EQ PUSH2 0x11C JUMPI DUP1 PUSH4 0xA3EC138D EQ PUSH2 0x14C JUMPI DUP1 PUSH4 0xA7771EE3 EQ PUSH2 0x17C JUMPI DUP1 PUSH4 0xB87DA76D EQ PUSH2 0x1AC JUMPI DUP1 PUSH4 0xCB79C2E1 EQ PUSH2 0x1CA JUMPI DUP1 PUSH4 0xCBB3E152 EQ PUSH2 0x1E8 JUMPI PUSH2 0xA9 JUMP JUMPDEST DUP1 PUSH4 0x70C8B74 EQ PUSH2 0xAE JUMPI DUP1 PUSH4 0x10486B6A EQ PUSH2 0xB8 JUMPI DUP1 PUSH4 0x5F5300FF EQ PUSH2 0xD6 JUMPI DUP1 PUSH4 0x632A9A52 EQ PUSH2 0xF4 JUMPI DUP1 PUSH4 0x8891CF0D EQ PUSH2 0xFE JUMPI JUMPDEST PUSH1 0x0 DUP1 REVERT JUMPDEST PUSH2 0xB6 PUSH2 0x206 JUMP JUMPDEST STOP JUMPDEST PUSH2 0xC0 PUSH2 0x3E2 JUMP JUMPDEST PUSH1 0x40 MLOAD PUSH2 0xCD SWAP2 SWAP1 PUSH2 0xDF2 JUMP JUMPDEST PUSH1 0x40 MLOAD DUP1 SWAP2 SUB SWAP1 RETURN JUMPDEST PUSH2 0xDE PUSH2 0x643 JUMP JUMPDEST PUSH1 0x40 MLOAD PUSH2 0xEB SWAP2 SWAP1 PUSH2 0xE1D JUMP JUMPDEST PUSH1 0x40 MLOAD DUP1 SWAP2 SUB SWAP1 RETURN JUMPDEST PUSH2 0xFC PUSH2 0x649 JUMP JUMPDEST STOP JUMPDEST PUSH2 0x106 PUSH2 0x82D JUMP JUMPDEST PUSH1 0x40 MLOAD PUSH2 0x113 SWAP2 SWAP1 PUSH2 0xE1D JUMP JUMPDEST PUSH1 0x40 MLOAD DUP1 SWAP2 SUB SWAP1 RETURN JUMPDEST PUSH2 0x136 PUSH1 0x4 DUP1 CALLDATASIZE SUB DUP2 ADD SWAP1 PUSH2 0x131 SWAP2 SWAP1 PUSH2 0xE69 JUMP JUMPDEST PUSH2 0x833 JUMP JUMPDEST PUSH1 0x40 MLOAD PUSH2 0x143 SWAP2 SWAP1 PUSH2 0xE1D JUMP JUMPDEST PUSH1 0x40 MLOAD DUP1 SWAP2 SUB SWAP1 RETURN JUMPDEST PUSH2 0x166 PUSH1 0x4 DUP1 CALLDATASIZE SUB DUP2 ADD SWAP1 PUSH2 0x161 SWAP2 SWAP1 PUSH2 0xEC2 JUMP JUMPDEST PUSH2 0x84B JUMP JUMPDEST PUSH1 0x40 MLOAD PUSH2 0x173 SWAP2 SWAP1 PUSH2 0xF0A JUMP JUMPDEST PUSH1 0x40 MLOAD DUP1 SWAP2 SUB SWAP1 RETURN JUMPDEST PUSH2 0x196 PUSH1 0x4 DUP1 CALLDATASIZE SUB DUP2 ADD SWAP1 PUSH2 0x191 SWAP2 SWAP1 PUSH2 0xEC2 JUMP JUMPDEST PUSH2 0x876 JUMP JUMPDEST PUSH1 0x40 MLOAD PUSH2 0x1A3 SWAP2 SWAP1 PUSH2 0xF0A JUMP JUMPDEST PUSH1 0x40 MLOAD DUP1 SWAP2 SUB SWAP1 RETURN JUMPDEST PUSH2 0x1B4 PUSH2 0x93E JUMP JUMPDEST PUSH1 0x40 MLOAD PUSH2 0x1C1 SWAP2 SWAP1 PUSH2 0xE1D JUMP JUMPDEST PUSH1 0x40 MLOAD DUP1 SWAP2 SUB SWAP1 RETURN JUMPDEST PUSH2 0x1D2 PUSH2 0x944 JUMP JUMPDEST PUSH1 0x40 MLOAD PUSH2 0x1DF SWAP2 SWAP1 PUSH2 0xE1D JUMP JUMPDEST PUSH1 0x40 MLOAD DUP1 SWAP2 SUB SWAP1 RETURN JUMPDEST PUSH2 0x1F0 PUSH2 0x94A JUMP JUMPDEST PUSH1 0x40 MLOAD PUSH2 0x1FD SWAP2 SWAP1 PUSH2 0xE1D JUMP JUMPDEST PUSH1 0x40 MLOAD DUP1 SWAP2 SUB SWAP1 RETURN JUMPDEST PUSH2 0x20E PUSH2 0x980 JUMP JUMPDEST PUSH1 0x1 ISZERO ISZERO PUSH1 0x6 PUSH1 0x0 CALLER PUSH20 0xFFFFFFFFFFFFFFFFFFFFFFFFFFFFFFFFFFFFFFFF AND PUSH20 0xFFFFFFFFFFFFFFFFFFFFFFFFFFFFFFFFFFFFFFFF AND DUP2 MSTORE PUSH1 0x20 ADD SWAP1 DUP2 MSTORE PUSH1 0x20 ADD PUSH1 0x0 KECCAK256 PUSH1 0x0 ADD PUSH1 0x0 SWAP1 SLOAD SWAP1 PUSH2 0x100 EXP SWAP1 DIV PUSH1 0xFF AND ISZERO ISZERO EQ PUSH2 0x2A4 JUMPI PUSH1 0x40 MLOAD PUSH32 0x8C379A000000000000000000000000000000000000000000000000000000000 DUP2 MSTORE PUSH1 0x4 ADD PUSH2 0x29B SWAP1 PUSH2 0xF82 JUMP JUMPDEST PUSH1 0x40 MLOAD DUP1 SWAP2 SUB SWAP1 REVERT JUMPDEST PUSH1 0x1 ISZERO ISZERO PUSH1 0x6 PUSH1 0x0 CALLER PUSH20 0xFFFFFFFFFFFFFFFFFFFFFFFFFFFFFFFFFFFFFFFF AND PUSH20 0xFFFFFFFFFFFFFFFFFFFFFFFFFFFFFFFFFFFFFFFF AND DUP2 MSTORE PUSH1 0x20 ADD SWAP1 DUP2 MSTORE PUSH1 0x20 ADD PUSH1 0x0 KECCAK256 PUSH1 0x1 ADD PUSH1 0x0 PUSH1 0x4 SLOAD DUP2 MSTORE PUSH1 0x20 ADD SWAP1 DUP2 MSTORE PUSH1 0x20 ADD PUSH1 0x0 KECCAK256 PUSH1 0x0 SWAP1 SLOAD SWAP1 PUSH2 0x100 EXP SWAP1 DIV PUSH1 0xFF AND ISZERO ISZERO EQ PUSH2 0x34D JUMPI PUSH1 0x40 MLOAD PUSH32 0x8C379A000000000000000000000000000000000000000000000000000000000 DUP2 MSTORE PUSH1 0x4 ADD PUSH2 0x344 SWAP1 PUSH2 0xFEE JUMP JUMPDEST PUSH1 0x40 MLOAD DUP1 SWAP2 SUB SWAP1 REVERT JUMPDEST PUSH1 0x0 ISZERO ISZERO PUSH1 0x6 PUSH1 0x0 CALLER PUSH20 0xFFFFFFFFFFFFFFFFFFFFFFFFFFFFFFFFFFFFFFFF AND PUSH20 0xFFFFFFFFFFFFFFFFFFFFFFFFFFFFFFFFFFFFFFFF AND DUP2 MSTORE PUSH1 0x20 ADD SWAP1 DUP2 MSTORE PUSH1 0x20 ADD PUSH1 0x0 KECCAK256 PUSH1 0x1 ADD PUSH1 0x0 PUSH1 0x4 SLOAD DUP2 MSTORE PUSH1 0x20 ADD SWAP1 DUP2 MSTORE PUSH1 0x20 ADD PUSH1 0x0 KECCAK256 PUSH1 0x0 SWAP1 SLOAD SWAP1 PUSH2 0x100 EXP SWAP1 POP POP POP PUSH1 0x1 PUSH1 0x7 PUSH1 0x0 PUSH1 0x4 SLOAD DUP2 MSTORE PUSH1 0x20 ADD SWAP1 DUP2 MSTORE PUSH1 0x20 ADD PUSH1 0x0 KECCAK256 PUSH1 0x0 DUP3 DUP3 SLOAD PUSH2 0x3D9 SWAP2 SWAP1 PUSH2 0x103D JUMP JUMPDEST SWAP3 POP POP DUP2 SWAP1 SSTORE POP JUMP JUMPDEST PUSH2 0x3EA PUSH2 0xC4D JUMP JUMPDEST PUSH1 0x0 PUSH1 0x8 PUSH1 0x0 CALLER PUSH20 0xFFFFFFFFFFFFFFFFFFFFFFFFFFFFFFFFFFFFFFFF AND PUSH20 0xFFFFFFFFFFFFFFFFFFFFFFFFFFFFFFFFFFFFFFFF AND DUP2 MSTORE PUSH1 0x20 ADD SWAP1 DUP2 MSTORE PUSH1 0x20 ADD PUSH1 0x0 KECCAK256 PUSH1 0x40 MLOAD DUP1 PUSH1 0x60 ADD PUSH1 0x40 MSTORE SWAP1 DUP2 PUSH1 0x0 DUP3 ADD PUSH1 0x40 MLOAD DUP1 PUSH1 0xE0 ADD PUSH1 0x40 MSTORE SWAP1 DUP2 PUSH1 0x0 DUP3 ADD PUSH1 0x0 SWAP1 SLOAD SWAP1 PUSH2 0x100 EXP SWAP1 DIV PUSH20 0xFFFFFFFFFFFFFFFFFFFFFFFFFFFFFFFFFFFFFFFF AND PUSH20 0xFFFFFFFFFFFFFFFFFFFFFFFFFFFFFFFFFFFFFFFF AND PUSH20 0xFFFFFFFFFFFFFFFFFFFFFFFFFFFFFFFFFFFFFFFF AND DUP2 MSTORE PUSH1 0x20 ADD PUSH1 0x1 DUP3 ADD SLOAD DUP2 MSTORE PUSH1 0x20 ADD PUSH1 0x2 DUP3 ADD SLOAD DUP2 MSTORE PUSH1 0x20 ADD PUSH1 0x3 DUP3 ADD SLOAD DUP2 MSTORE PUSH1 0x20 ADD PUSH1 0x4 DUP3 ADD SLOAD DUP2 MSTORE PUSH1 0x20 ADD PUSH1 0x5 DUP3 ADD SLOAD DUP2 MSTORE PUSH1 0x20 ADD PUSH1 0x6 DUP3 ADD SLOAD DUP2 MSTORE POP POP DUP2 MSTORE PUSH1 0x20 ADD PUSH1 0x7 DUP3 ADD PUSH1 0x0 SWAP1 SLOAD SWAP1 PUSH2 0x100 EXP SWAP1 DIV PUSH20 0xFFFFFFFFFFFFFFFFFFFFFFFFFFFFFFFFFFFFFFFF AND PUSH20 0xFFFFFFFFFFFFFFFFFFFFFFFFFFFFFFFFFFFFFFFF AND PUSH20 0xFFFFFFFFFFFFFFFFFFFFFFFFFFFFFFFFFFFFFFFF AND DUP2 MSTORE PUSH1 0x20 ADD PUSH1 0x8 DUP3 ADD SLOAD DUP2 MSTORE POP POP SWAP1 POP PUSH1 0x0 PUSH1 0x40 MLOAD DUP1 PUSH1 0x60 ADD PUSH1 0x40 MSTORE DUP1 PUSH1 0x0 DUP2 MSTORE PUSH1 0x20 ADD PUSH1 0x0 DUP2 MSTORE PUSH1 0x20 ADD DUP4 PUSH1 0x0 ADD MLOAD DUP2 MSTORE POP SWAP1 POP PUSH2 0x574 DUP2 PUSH1 0x40 ADD MLOAD PUSH1 0x20 ADD MLOAD PUSH2 0x9D1 JUMP JUMPDEST PUSH1 0x0 PUSH2 0x583 DUP3 PUSH1 0x40 ADD MLOAD PUSH2 0xA17 JUMP JUMPDEST SWAP1 POP PUSH1 0x0 TIMESTAMP DUP4 PUSH1 0x40 ADD MLOAD PUSH1 0xC0 ADD MLOAD GT ISZERO PUSH2 0x5C1 JUMPI PUSH1 0x0 DUP1 PUSH2 0x5AC DUP6 PUSH1 0x40 ADD MLOAD PUSH1 0x20 ADD MLOAD DUP6 PUSH2 0xA77 JUMP JUMPDEST SWAP2 POP SWAP2 POP DUP1 DUP3 PUSH2 0x5BC SWAP2 SWAP1 PUSH2 0x1071 JUMP JUMPDEST SWAP3 POP POP POP JUMPDEST PUSH1 0x0 PUSH2 0x5D0 DUP6 PUSH1 0x40 ADD MLOAD PUSH2 0xAB3 JUMP JUMPDEST GT ISZERO PUSH2 0x5FF JUMPI PUSH1 0x0 PUSH2 0x5E9 DUP5 PUSH1 0x40 ADD MLOAD PUSH1 0x20 ADD MLOAD PUSH2 0xADD JUMP JUMPDEST SWAP1 POP DUP1 DUP5 PUSH1 0x40 ADD MLOAD PUSH1 0x80 ADD DUP2 DUP2 MSTORE POP POP POP PUSH2 0x60F JUMP JUMPDEST PUSH1 0x0 DUP4 PUSH1 0x40 ADD MLOAD PUSH1 0x80 ADD DUP2 DUP2 MSTORE POP POP JUMPDEST DUP2 DUP4 PUSH1 0x40 ADD MLOAD PUSH1 0x60 ADD DUP2 DUP2 MSTORE POP POP DUP1 DUP4 PUSH1 0x20 ADD DUP2 DUP2 MSTORE POP POP DUP3 PUSH1 0x40 ADD MLOAD PUSH1 0x20 ADD MLOAD DUP4 PUSH1 0x0 ADD DUP2 DUP2 MSTORE POP POP DUP3 SWAP5 POP POP POP POP POP SWAP1 JUMP JUMPDEST PUSH1 0x5 SLOAD DUP2 JUMP JUMPDEST PUSH2 0x651 PUSH2 0x980 JUMP JUMPDEST PUSH1 0x1 ISZERO ISZERO PUSH1 0x6 PUSH1 0x0 CALLER PUSH20 0xFFFFFFFFFFFFFFFFFFFFFFFFFFFFFFFFFFFFFFFF AND PUSH20 0xFFFFFFFFFFFFFFFFFFFFFFFFFFFFFFFFFFFFFFFF AND DUP2 MSTORE PUSH1 0x20 ADD SWAP1 DUP2 MSTORE PUSH1 0x20 ADD PUSH1 0x0 KECCAK256 PUSH1 0x0 ADD PUSH1 0x0 SWAP1 SLOAD SWAP1 PUSH2 0x100 EXP SWAP1 DIV PUSH1 0xFF AND ISZERO ISZERO EQ PUSH2 0x6E7 JUMPI PUSH1 0x40 MLOAD PUSH32 0x8C379A000000000000000000000000000000000000000000000000000000000 DUP2 MSTORE PUSH1 0x4 ADD PUSH2 0x6DE SWAP1 PUSH2 0xF82 JUMP JUMPDEST PUSH1 0x40 MLOAD DUP1 SWAP2 SUB SWAP1 REVERT JUMPDEST PUSH1 0x0 ISZERO ISZERO PUSH1 0x6 PUSH1 0x0 CALLER PUSH20 0xFFFFFFFFFFFFFFFFFFFFFFFFFFFFFFFFFFFFFFFF AND PUSH20 0xFFFFFFFFFFFFFFFFFFFFFFFFFFFFFFFFFFFFFFFF AND DUP2 MSTORE PUSH1 0x20 ADD SWAP1 DUP2 MSTORE PUSH1 0x20 ADD PUSH1 0x0 KECCAK256 PUSH1 0x1 ADD PUSH1 0x0 PUSH1 0x4 SLOAD DUP2 MSTORE PUSH1 0x20 ADD SWAP1 DUP2 MSTORE PUSH1 0x20 ADD PUSH1 0x0 KECCAK256 PUSH1 0x0 SWAP1 SLOAD SWAP1 PUSH2 0x100 EXP SWAP1 DIV PUSH1 0xFF AND ISZERO ISZERO EQ PUSH2 0x790 JUMPI PUSH1 0x40 MLOAD PUSH32 0x8C379A000000000000000000000000000000000000000000000000000000000 DUP2 MSTORE PUSH1 0x4 ADD PUSH2 0x787 SWAP1 PUSH2 0x1113 JUMP JUMPDEST PUSH1 0x40 MLOAD DUP1 SWAP2 SUB SWAP1 REVERT JUMPDEST PUSH1 0x1 PUSH1 0x6 PUSH1 0x0 CALLER PUSH20 0xFFFFFFFFFFFFFFFFFFFFFFFFFFFFFFFFFFFFFFFF AND PUSH20 0xFFFFFFFFFFFFFFFFFFFFFFFFFFFFFFFFFFFFFFFF AND DUP2 MSTORE PUSH1 0x20 ADD SWAP1 DUP2 MSTORE PUSH1 0x20 ADD PUSH1 0x0 KECCAK256 PUSH1 0x1 ADD PUSH1 0x0 PUSH1 0x4 SLOAD DUP2 MSTORE PUSH1 0x20 ADD SWAP1 DUP2 MSTORE PUSH1 0x20 ADD PUSH1 0x0 KECCAK256 PUSH1 0x0 PUSH2 0x100 EXP DUP2 SLOAD DUP2 PUSH1 0xFF MUL NOT AND SWAP1 DUP4 ISZERO ISZERO MUL OR SWAP1 SSTORE POP PUSH1 0x1 PUSH1 0x7 PUSH1 0x0 PUSH1 0x4 SLOAD DUP2 MSTORE PUSH1 0x20 ADD SWAP1 DUP2 MSTORE PUSH1 0x20 ADD PUSH1 0x0 KECCAK256 PUSH1 0x0 DUP3 DUP3 SLOAD PUSH2 0x824 SWAP2 SWAP1 PUSH2 0x1071 JUMP JUMPDEST SWAP3 POP POP DUP2 SWAP1 SSTORE POP JUMP JUMPDEST PUSH1 0x1 SLOAD DUP2 JUMP JUMPDEST PUSH1 0x7 PUSH1 0x20 MSTORE DUP1 PUSH1 0x0 MSTORE PUSH1 0x40 PUSH1 0x0 KECCAK256 PUSH1 0x0 SWAP2 POP SWAP1 POP SLOAD DUP2 JUMP JUMPDEST PUSH1 0x6 PUSH1 0x20 MSTORE DUP1 PUSH1 0x0 MSTORE PUSH1 0x40 PUSH1 0x0 KECCAK256 PUSH1 0x0 SWAP2 POP SWAP1 POP DUP1 PUSH1 0x0 ADD PUSH1 0x0 SWAP1 SLOAD SWAP1 PUSH2 0x100 EXP SWAP1 DIV PUSH1 0xFF AND SWAP1 POP DUP2 JUMP JUMPDEST PUSH1 0x0 DUP1 PUSH20 0xFFFFFFFFFFFFFFFFFFFFFFFFFFFFFFFFFFFFFFFF AND DUP3 PUSH20 0xFFFFFFFFFFFFFFFFFFFFFFFFFFFFFFFFFFFFFFFF AND EQ ISZERO PUSH2 0x8E7 JUMPI PUSH1 0x40 MLOAD PUSH32 0x8C379A000000000000000000000000000000000000000000000000000000000 DUP2 MSTORE PUSH1 0x4 ADD PUSH2 0x8DE SWAP1 PUSH2 0x117F JUMP JUMPDEST PUSH1 0x40 MLOAD DUP1 SWAP2 SUB SWAP1 REVERT JUMPDEST PUSH1 0x6 PUSH1 0x0 DUP4 PUSH20 0xFFFFFFFFFFFFFFFFFFFFFFFFFFFFFFFFFFFFFFFF AND PUSH20 0xFFFFFFFFFFFFFFFFFFFFFFFFFFFFFFFFFFFFFFFF AND DUP2 MSTORE PUSH1 0x20 ADD SWAP1 DUP2 MSTORE PUSH1 0x20 ADD PUSH1 0x0 KECCAK256 PUSH1 0x0 ADD PUSH1 0x0 SWAP1 SLOAD SWAP1 PUSH2 0x100 EXP SWAP1 DIV PUSH1 0xFF AND SWAP1 POP SWAP2 SWAP1 POP JUMP JUMPDEST PUSH1 0x2 SLOAD DUP2 JUMP JUMPDEST PUSH1 0x0 SLOAD DUP2 JUMP JUMPDEST PUSH1 0x0 DUP1 PUSH1 0x2 SLOAD EQ PUSH2 0x978 JUMPI PUSH3 0x93A80 PUSH1 0x2 SLOAD TIMESTAMP PUSH2 0x967 SWAP2 SWAP1 PUSH2 0x103D JUMP JUMPDEST PUSH2 0x971 SWAP2 SWAP1 PUSH2 0x11CE JUMP JUMPDEST SWAP1 POP PUSH2 0x97D JUMP JUMPDEST PUSH1 0x0 SWAP1 POP JUMPDEST SWAP1 JUMP JUMPDEST PUSH1 0x3 PUSH1 0x0 SWAP1 SLOAD SWAP1 PUSH2 0x100 EXP SWAP1 DIV PUSH1 0xFF AND PUSH2 0x9CF JUMPI PUSH1 0x40 MLOAD PUSH32 0x8C379A000000000000000000000000000000000000000000000000000000000 DUP2 MSTORE PUSH1 0x4 ADD PUSH2 0x9C6 SWAP1 PUSH2 0x124B JUMP JUMPDEST PUSH1 0x40 MLOAD DUP1 SWAP2 SUB SWAP1 REVERT JUMPDEST JUMP JUMPDEST PUSH1 0x0 DUP2 GT PUSH2 0xA14 JUMPI PUSH1 0x40 MLOAD PUSH32 0x8C379A000000000000000000000000000000000000000000000000000000000 DUP2 MSTORE PUSH1 0x4 ADD PUSH2 0xA0B SWAP1 PUSH2 0x12B7 JUMP JUMPDEST PUSH1 0x40 MLOAD DUP1 SWAP2 SUB SWAP1 REVERT JUMPDEST POP JUMP JUMPDEST PUSH1 0x0 DUP1 DUP3 PUSH1 0x20 ADD MLOAD EQ ISZERO PUSH2 0xA2E JUMPI PUSH1 0x0 SWAP1 POP PUSH2 0xA72 JUMP JUMPDEST PUSH11 0x52B7D2DCC80CD2E4000000 PUSH2 0xA47 DUP4 PUSH1 0x40 ADD MLOAD PUSH2 0xB10 JUMP JUMPDEST DUP4 PUSH1 0xA0 ADD MLOAD DUP5 PUSH1 0x20 ADD MLOAD PUSH2 0xA5B SWAP2 SWAP1 PUSH2 0x12D7 JUMP JUMPDEST PUSH2 0xA65 SWAP2 SWAP1 PUSH2 0x12D7 JUMP JUMPDEST PUSH2 0xA6F SWAP2 SWAP1 PUSH2 0x11CE JUMP JUMPDEST SWAP1 POP JUMPDEST SWAP2 SWAP1 POP JUMP JUMPDEST PUSH1 0x0 DUP1 PUSH2 0xA91 PUSH2 0xA89 DUP6 PUSH1 0x0 SLOAD PUSH2 0xBBF JUMP JUMPDEST PUSH2 0x3E8 PUSH2 0xBD5 JUMP JUMPDEST PUSH2 0xAA8 PUSH2 0xAA0 DUP6 PUSH1 0x0 SLOAD PUSH2 0xBBF JUMP JUMPDEST PUSH2 0x3E8 PUSH2 0xBD5 JUMP JUMPDEST SWAP2 POP SWAP2 POP SWAP3 POP SWAP3 SWAP1 POP JUMP JUMPDEST PUSH1 0x0 PUSH2 0xAD6 PUSH3 0x93A80 DUP4 TIMESTAMP PUSH2 0xAC8 SWAP2 SWAP1 PUSH2 0x103D JUMP JUMPDEST PUSH2 0xBD5 SWAP1 SWAP2 SWAP1 PUSH4 0xFFFFFFFF AND JUMP JUMPDEST SWAP1 POP SWAP2 SWAP1 POP JUMP JUMPDEST PUSH1 0x0 PUSH4 0x1DFE200 PUSH2 0x3E8 PUSH1 0x1 SLOAD DUP5 PUSH2 0xAF5 SWAP2 SWAP1 PUSH2 0x12D7 JUMP JUMPDEST PUSH2 0xAFF SWAP2 SWAP1 PUSH2 0x11CE JUMP JUMPDEST PUSH2 0xB09 SWAP2 SWAP1 PUSH2 0x11CE JUMP JUMPDEST SWAP1 POP SWAP2 SWAP1 POP JUMP JUMPDEST PUSH1 0x0 DUP1 DUP3 GT PUSH2 0xB54 JUMPI PUSH1 0x40 MLOAD PUSH32 0x8C379A000000000000000000000000000000000000000000000000000000000 DUP2 MSTORE PUSH1 0x4 ADD PUSH2 0xB4B SWAP1 PUSH2 0x137D JUMP JUMPDEST PUSH1 0x40 MLOAD DUP1 SWAP2 SUB SWAP1 REVERT JUMPDEST PUSH2 0xBB8 PUSH10 0xD3C21BCECCEDA1000000 DUP4 TIMESTAMP PUSH2 0xB6E SWAP2 SWAP1 PUSH2 0x103D JUMP JUMPDEST PUSH2 0xB78 SWAP2 SWAP1 PUSH2 0x12D7 JUMP JUMPDEST PUSH4 0x1E13380 PUSH1 0x40 MLOAD DUP1 PUSH1 0x40 ADD PUSH1 0x40 MSTORE DUP1 PUSH1 0x1D DUP2 MSTORE PUSH1 0x20 ADD PUSH32 0x4572726F722063616E6E6F74206469766964652074696D657374616D70000000 DUP2 MSTORE POP PUSH2 0xBEB JUMP JUMPDEST SWAP1 POP SWAP2 SWAP1 POP JUMP JUMPDEST PUSH1 0x0 DUP2 DUP4 PUSH2 0xBCD SWAP2 SWAP1 PUSH2 0x12D7 JUMP JUMPDEST SWAP1 POP SWAP3 SWAP2 POP POP JUMP JUMPDEST PUSH1 0x0 DUP2 DUP4 PUSH2 0xBE3 SWAP2 SWAP1 PUSH2 0x11CE JUMP JUMPDEST SWAP1 POP SWAP3 SWAP2 POP POP JUMP JUMPDEST PUSH1 0x0 DUP1 DUP4 GT DUP3 SWAP1 PUSH2 0xC32 JUMPI PUSH1 0x40 MLOAD PUSH32 0x8C379A000000000000000000000000000000000000000000000000000000000 DUP2 MSTORE PUSH1 0x4 ADD PUSH2 0xC29 SWAP2 SWAP1 PUSH2 0x1425 JUMP JUMPDEST PUSH1 0x40 MLOAD DUP1 SWAP2 SUB SWAP1 REVERT JUMPDEST POP DUP3 DUP5 DUP2 PUSH2 0xC43 JUMPI PUSH2 0xC42 PUSH2 0x119F JUMP JUMPDEST JUMPDEST DIV SWAP1 POP SWAP4 SWAP3 POP POP POP JUMP JUMPDEST PUSH1 0x40 MLOAD DUP1 PUSH1 0x60 ADD PUSH1 0x40 MSTORE DUP1 PUSH1 0x0 DUP2 MSTORE PUSH1 0x20 ADD PUSH1 0x0 DUP2 MSTORE PUSH1 0x20 ADD PUSH2 0xC6E PUSH2 0xC74 JUMP JUMPDEST DUP2 MSTORE POP SWAP1 JUMP JUMPDEST PUSH1 0x40 MLOAD DUP1 PUSH1 0xE0 ADD PUSH1 0x40 MSTORE DUP1 PUSH1 0x0 PUSH20 0xFFFFFFFFFFFFFFFFFFFFFFFFFFFFFFFFFFFFFFFF AND DUP2 MSTORE PUSH1 0x20 ADD PUSH1 0x0 DUP2 MSTORE PUSH1 0x20 ADD PUSH1 0x0 DUP2 MSTORE PUSH1 0x20 ADD PUSH1 0x0 DUP2 MSTORE PUSH1 0x20 ADD PUSH1 0x0 DUP2 MSTORE PUSH1 0x20 ADD PUSH1 0x0 DUP2 MSTORE PUSH1 0x20 ADD PUSH1 0x0 DUP2 MSTORE POP SWAP1 JUMP JUMPDEST PUSH1 0x0 DUP2 SWAP1 POP SWAP2 SWAP1 POP JUMP JUMPDEST PUSH2 0xCDA DUP2 PUSH2 0xCC7 JUMP JUMPDEST DUP3 MSTORE POP POP JUMP JUMPDEST PUSH1 0x0 PUSH20 0xFFFFFFFFFFFFFFFFFFFFFFFFFFFFFFFFFFFFFFFF DUP3 AND SWAP1 POP SWAP2 SWAP1 POP JUMP JUMPDEST PUSH1 0x0 PUSH2 0xD0B DUP3 PUSH2 0xCE0 JUMP JUMPDEST SWAP1 POP SWAP2 SWAP1 POP JUMP JUMPDEST PUSH2 0xD1B DUP2 PUSH2 0xD00 JUMP JUMPDEST DUP3 MSTORE POP POP JUMP JUMPDEST PUSH1 0xE0 DUP3 ADD PUSH1 0x0 DUP3 ADD MLOAD PUSH2 0xD37 PUSH1 0x0 DUP6 ADD DUP3 PUSH2 0xD12 JUMP JUMPDEST POP PUSH1 0x20 DUP3 ADD MLOAD PUSH2 0xD4A PUSH1 0x20 DUP6 ADD DUP3 PUSH2 0xCD1 JUMP JUMPDEST POP PUSH1 0x40 DUP3 ADD MLOAD PUSH2 0xD5D PUSH1 0x40 DUP6 ADD DUP3 PUSH2 0xCD1 JUMP JUMPDEST POP PUSH1 0x60 DUP3 ADD MLOAD PUSH2 0xD70 PUSH1 0x60 DUP6 ADD DUP3 PUSH2 0xCD1 JUMP JUMPDEST POP PUSH1 0x80 DUP3 ADD MLOAD PUSH2 0xD83 PUSH1 0x80 DUP6 ADD DUP3 PUSH2 0xCD1 JUMP JUMPDEST POP PUSH1 0xA0 DUP3 ADD MLOAD PUSH2 0xD96 PUSH1 0xA0 DUP6 ADD DUP3 PUSH2 0xCD1 JUMP JUMPDEST POP PUSH1 0xC0 DUP3 ADD MLOAD PUSH2 0xDA9 PUSH1 0xC0 DUP6 ADD DUP3 PUSH2 0xCD1 JUMP JUMPDEST POP POP POP POP JUMP JUMPDEST PUSH2 0x120 DUP3 ADD PUSH1 0x0 DUP3 ADD MLOAD PUSH2 0xDC6 PUSH1 0x0 DUP6 ADD DUP3 PUSH2 0xCD1 JUMP JUMPDEST POP PUSH1 0x20 DUP3 ADD MLOAD PUSH2 0xDD9 PUSH1 0x20 DUP6 ADD DUP3 PUSH2 0xCD1 JUMP JUMPDEST POP PUSH1 0x40 DUP3 ADD MLOAD PUSH2 0xDEC PUSH1 0x40 DUP6 ADD DUP3 PUSH2 0xD21 JUMP JUMPDEST POP POP POP POP JUMP JUMPDEST PUSH1 0x0 PUSH2 0x120 DUP3 ADD SWAP1 POP PUSH2 0xE08 PUSH1 0x0 DUP4 ADD DUP5 PUSH2 0xDAF JUMP JUMPDEST SWAP3 SWAP2 POP POP JUMP JUMPDEST PUSH2 0xE17 DUP2 PUSH2 0xCC7 JUMP JUMPDEST DUP3 MSTORE POP POP JUMP JUMPDEST PUSH1 0x0 PUSH1 0x20 DUP3 ADD SWAP1 POP PUSH2 0xE32 PUSH1 0x0 DUP4 ADD DUP5 PUSH2 0xE0E JUMP JUMPDEST SWAP3 SWAP2 POP POP JUMP JUMPDEST PUSH1 0x0 DUP1 REVERT JUMPDEST PUSH2 0xE46 DUP2 PUSH2 0xCC7 JUMP JUMPDEST DUP2 EQ PUSH2 0xE51 JUMPI PUSH1 0x0 DUP1 REVERT JUMPDEST POP JUMP JUMPDEST PUSH1 0x0 DUP2 CALLDATALOAD SWAP1 POP PUSH2 0xE63 DUP2 PUSH2 0xE3D JUMP JUMPDEST SWAP3 SWAP2 POP POP JUMP JUMPDEST PUSH1 0x0 PUSH1 0x20 DUP3 DUP5 SUB SLT ISZERO PUSH2 0xE7F JUMPI PUSH2 0xE7E PUSH2 0xE38 JUMP JUMPDEST JUMPDEST PUSH1 0x0 PUSH2 0xE8D DUP5 DUP3 DUP6 ADD PUSH2 0xE54 JUMP JUMPDEST SWAP2 POP POP SWAP3 SWAP2 POP POP JUMP JUMPDEST PUSH2 0xE9F DUP2 PUSH2 0xD00 JUMP JUMPDEST DUP2 EQ PUSH2 0xEAA JUMPI PUSH1 0x0 DUP1 REVERT JUMPDEST POP JUMP JUMPDEST PUSH1 0x0 DUP2 CALLDATALOAD SWAP1 POP PUSH2 0xEBC DUP2 PUSH2 0xE96 JUMP JUMPDEST SWAP3 SWAP2 POP POP JUMP JUMPDEST PUSH1 0x0 PUSH1 0x20 DUP3 DUP5 SUB SLT ISZERO PUSH2 0xED8 JUMPI PUSH2 0xED7 PUSH2 0xE38 JUMP JUMPDEST JUMPDEST PUSH1 0x0 PUSH2 0xEE6 DUP5 DUP3 DUP6 ADD PUSH2 0xEAD JUMP JUMPDEST SWAP2 POP POP SWAP3 SWAP2 POP POP JUMP JUMPDEST PUSH1 0x0 DUP2 ISZERO ISZERO SWAP1 POP SWAP2 SWAP1 POP JUMP JUMPDEST PUSH2 0xF04 DUP2 PUSH2 0xEEF JUMP JUMPDEST DUP3 MSTORE POP POP JUMP JUMPDEST PUSH1 0x0 PUSH1 0x20 DUP3 ADD SWAP1 POP PUSH2 0xF1F PUSH1 0x0 DUP4 ADD DUP5 PUSH2 0xEFB JUMP JUMPDEST SWAP3 SWAP2 POP POP JUMP JUMPDEST PUSH1 0x0 DUP3 DUP3 MSTORE PUSH1 0x20 DUP3 ADD SWAP1 POP SWAP3 SWAP2 POP POP JUMP JUMPDEST PUSH32 0x596F7520617265206E6F74206120766F74657200000000000000000000000000 PUSH1 0x0 DUP3 ADD MSTORE POP JUMP JUMPDEST PUSH1 0x0 PUSH2 0xF6C PUSH1 0x13 DUP4 PUSH2 0xF25 JUMP JUMPDEST SWAP2 POP PUSH2 0xF77 DUP3 PUSH2 0xF36 JUMP JUMPDEST PUSH1 0x20 DUP3 ADD SWAP1 POP SWAP2 SWAP1 POP JUMP JUMPDEST PUSH1 0x0 PUSH1 0x20 DUP3 ADD SWAP1 POP DUP2 DUP2 SUB PUSH1 0x0 DUP4 ADD MSTORE PUSH2 0xF9B DUP2 PUSH2 0xF5F JUMP JUMPDEST SWAP1 POP SWAP2 SWAP1 POP JUMP JUMPDEST PUSH32 0x596F752068617665206E6F7420766F7465642079657400000000000000000000 PUSH1 0x0 DUP3 ADD MSTORE POP JUMP JUMPDEST PUSH1 0x0 PUSH2 0xFD8 PUSH1 0x16 DUP4 PUSH2 0xF25 JUMP JUMPDEST SWAP2 POP PUSH2 0xFE3 DUP3 PUSH2 0xFA2 JUMP JUMPDEST PUSH1 0x20 DUP3 ADD SWAP1 POP SWAP2 SWAP1 POP JUMP JUMPDEST PUSH1 0x0 PUSH1 0x20 DUP3 ADD SWAP1 POP DUP2 DUP2 SUB PUSH1 0x0 DUP4 ADD MSTORE PUSH2 0x1007 DUP2 PUSH2 0xFCB JUMP JUMPDEST SWAP1 POP SWAP2 SWAP1 POP JUMP JUMPDEST PUSH32 0x4E487B7100000000000000000000000000000000000000000000000000000000 PUSH1 0x0 MSTORE PUSH1 0x11 PUSH1 0x4 MSTORE PUSH1 0x24 PUSH1 0x0 REVERT JUMPDEST PUSH1 0x0 PUSH2 0x1048 DUP3 PUSH2 0xCC7 JUMP JUMPDEST SWAP2 POP PUSH2 0x1053 DUP4 PUSH2 0xCC7 JUMP JUMPDEST SWAP3 POP DUP3 DUP3 LT ISZERO PUSH2 0x1066 JUMPI PUSH2 0x1065 PUSH2 0x100E JUMP JUMPDEST JUMPDEST DUP3 DUP3 SUB SWAP1 POP SWAP3 SWAP2 POP POP JUMP JUMPDEST PUSH1 0x0 PUSH2 0x107C DUP3 PUSH2 0xCC7 JUMP JUMPDEST SWAP2 POP PUSH2 0x1087 DUP4 PUSH2 0xCC7 JUMP JUMPDEST SWAP3 POP DUP3 PUSH32 0xFFFFFFFFFFFFFFFFFFFFFFFFFFFFFFFFFFFFFFFFFFFFFFFFFFFFFFFFFFFFFFFF SUB DUP3 GT ISZERO PUSH2 0x10BC JUMPI PUSH2 0x10BB PUSH2 0x100E JUMP JUMPDEST JUMPDEST DUP3 DUP3 ADD SWAP1 POP SWAP3 SWAP2 POP POP JUMP JUMPDEST PUSH32 0x596F75206861766520766F746564206265666F72650000000000000000000000 PUSH1 0x0 DUP3 ADD MSTORE POP JUMP JUMPDEST PUSH1 0x0 PUSH2 0x10FD PUSH1 0x15 DUP4 PUSH2 0xF25 JUMP JUMPDEST SWAP2 POP PUSH2 0x1108 DUP3 PUSH2 0x10C7 JUMP JUMPDEST PUSH1 0x20 DUP3 ADD SWAP1 POP SWAP2 SWAP1 POP JUMP JUMPDEST PUSH1 0x0 PUSH1 0x20 DUP3 ADD SWAP1 POP DUP2 DUP2 SUB PUSH1 0x0 DUP4 ADD MSTORE PUSH2 0x112C DUP2 PUSH2 0x10F0 JUMP JUMPDEST SWAP1 POP SWAP2 SWAP1 POP JUMP JUMPDEST PUSH32 0x496E76616C696420616464726573730000000000000000000000000000000000 PUSH1 0x0 DUP3 ADD MSTORE POP JUMP JUMPDEST PUSH1 0x0 PUSH2 0x1169 PUSH1 0xF DUP4 PUSH2 0xF25 JUMP JUMPDEST SWAP2 POP PUSH2 0x1174 DUP3 PUSH2 0x1133 JUMP JUMPDEST PUSH1 0x20 DUP3 ADD SWAP1 POP SWAP2 SWAP1 POP JUMP JUMPDEST PUSH1 0x0 PUSH1 0x20 DUP3 ADD SWAP1 POP DUP2 DUP2 SUB PUSH1 0x0 DUP4 ADD MSTORE PUSH2 0x1198 DUP2 PUSH2 0x115C JUMP JUMPDEST SWAP1 POP SWAP2 SWAP1 POP JUMP JUMPDEST PUSH32 0x4E487B7100000000000000000000000000000000000000000000000000000000 PUSH1 0x0 MSTORE PUSH1 0x12 PUSH1 0x4 MSTORE PUSH1 0x24 PUSH1 0x0 REVERT JUMPDEST PUSH1 0x0 PUSH2 0x11D9 DUP3 PUSH2 0xCC7 JUMP JUMPDEST SWAP2 POP PUSH2 0x11E4 DUP4 PUSH2 0xCC7 JUMP JUMPDEST SWAP3 POP DUP3 PUSH2 0x11F4 JUMPI PUSH2 0x11F3 PUSH2 0x119F JUMP JUMPDEST JUMPDEST DUP3 DUP3 DIV SWAP1 POP SWAP3 SWAP2 POP POP JUMP JUMPDEST PUSH32 0x566F74696E67206973206E6F7420617661696C61626C65000000000000000000 PUSH1 0x0 DUP3 ADD MSTORE POP JUMP JUMPDEST PUSH1 0x0 PUSH2 0x1235 PUSH1 0x17 DUP4 PUSH2 0xF25 JUMP JUMPDEST SWAP2 POP PUSH2 0x1240 DUP3 PUSH2 0x11FF JUMP JUMPDEST PUSH1 0x20 DUP3 ADD SWAP1 POP SWAP2 SWAP1 POP JUMP JUMPDEST PUSH1 0x0 PUSH1 0x20 DUP3 ADD SWAP1 POP DUP2 DUP2 SUB PUSH1 0x0 DUP4 ADD MSTORE PUSH2 0x1264 DUP2 PUSH2 0x1228 JUMP JUMPDEST SWAP1 POP SWAP2 SWAP1 POP JUMP JUMPDEST PUSH32 0x4E6F205374616B6520466F756E64000000000000000000000000000000000000 PUSH1 0x0 DUP3 ADD MSTORE POP JUMP JUMPDEST PUSH1 0x0 PUSH2 0x12A1 PUSH1 0xE DUP4 PUSH2 0xF25 JUMP JUMPDEST SWAP2 POP PUSH2 0x12AC DUP3 PUSH2 0x126B JUMP JUMPDEST PUSH1 0x20 DUP3 ADD SWAP1 POP SWAP2 SWAP1 POP JUMP JUMPDEST PUSH1 0x0 PUSH1 0x20 DUP3 ADD SWAP1 POP DUP2 DUP2 SUB PUSH1 0x0 DUP4 ADD MSTORE PUSH2 0x12D0 DUP2 PUSH2 0x1294 JUMP JUMPDEST SWAP1 POP SWAP2 SWAP1 POP JUMP JUMPDEST PUSH1 0x0 PUSH2 0x12E2 DUP3 PUSH2 0xCC7 JUMP JUMPDEST SWAP2 POP PUSH2 0x12ED DUP4 PUSH2 0xCC7 JUMP JUMPDEST SWAP3 POP DUP2 PUSH32 0xFFFFFFFFFFFFFFFFFFFFFFFFFFFFFFFFFFFFFFFFFFFFFFFFFFFFFFFFFFFFFFFF DIV DUP4 GT DUP3 ISZERO ISZERO AND ISZERO PUSH2 0x1326 JUMPI PUSH2 0x1325 PUSH2 0x100E JUMP JUMPDEST JUMPDEST DUP3 DUP3 MUL SWAP1 POP SWAP3 SWAP2 POP POP JUMP JUMPDEST PUSH32 0x4572726F722074696D657374616D702030000000000000000000000000000000 PUSH1 0x0 DUP3 ADD MSTORE POP JUMP JUMPDEST PUSH1 0x0 PUSH2 0x1367 PUSH1 0x11 DUP4 PUSH2 0xF25 JUMP JUMPDEST SWAP2 POP PUSH2 0x1372 DUP3 PUSH2 0x1331 JUMP JUMPDEST PUSH1 0x20 DUP3 ADD SWAP1 POP SWAP2 SWAP1 POP JUMP JUMPDEST PUSH1 0x0 PUSH1 0x20 DUP3 ADD SWAP1 POP DUP2 DUP2 SUB PUSH1 0x0 DUP4 ADD MSTORE PUSH2 0x1396 DUP2 PUSH2 0x135A JUMP JUMPDEST SWAP1 POP SWAP2 SWAP1 POP JUMP JUMPDEST PUSH1 0x0 DUP2 MLOAD SWAP1 POP SWAP2 SWAP1 POP JUMP JUMPDEST PUSH1 0x0 JUMPDEST DUP4 DUP2 LT ISZERO PUSH2 0x13C6 JUMPI DUP1 DUP3 ADD MLOAD DUP2 DUP5 ADD MSTORE PUSH1 0x20 DUP2 ADD SWAP1 POP PUSH2 0x13AB JUMP JUMPDEST DUP4 DUP2 GT ISZERO PUSH2 0x13D5 JUMPI PUSH1 0x0 DUP5 DUP5 ADD MSTORE JUMPDEST POP POP POP POP JUMP JUMPDEST PUSH1 0x0 PUSH1 0x1F NOT PUSH1 0x1F DUP4 ADD AND SWAP1 POP SWAP2 SWAP1 POP JUMP JUMPDEST PUSH1 0x0 PUSH2 0x13F7 DUP3 PUSH2 0x139D JUMP JUMPDEST PUSH2 0x1401 DUP2 DUP6 PUSH2 0xF25 JUMP JUMPDEST SWAP4 POP PUSH2 0x1411 DUP2 DUP6 PUSH1 0x20 DUP7 ADD PUSH2 0x13A8 JUMP JUMPDEST PUSH2 0x141A DUP2 PUSH2 0x13DB JUMP JUMPDEST DUP5 ADD SWAP2 POP POP SWAP3 SWAP2 POP POP JUMP JUMPDEST PUSH1 0x0 PUSH1 0x20 DUP3 ADD SWAP1 POP DUP2 DUP2 SUB PUSH1 0x0 DUP4 ADD MSTORE PUSH2 0x143F DUP2 DUP5 PUSH2 0x13EC JUMP JUMPDEST SWAP1 POP SWAP3 SWAP2 POP POP JUMP INVALID LOG2 PUSH5 0x6970667358 0x22 SLT KECCAK256 0xE7 0x4D PUSH18 0x534754EAAF60F723FA85DCBF1721DE8782E4 CALLCODE 0xAF 0xB4 SMOD PUSH2 0xA17 0x5F SLT 0xAA PUSH16 0x64736F6C634300080B00330000000000 "
				},
				"gasEstimates": {
					"creation": {
						"codeDepositCost": "1049000",
						"executionCost": "45315",
						"totalCost": "1094315"
					},
					"external": {
						"airdropRate()": "2518",
						"airdropSince()": "2495",
						"airdropWeek()": "infinite",
						"hasStake()": "infinite",
						"isVoter(address)": "2971",
						"retractVote()": "infinite",
						"stakingPenaltyRate()": "2517",
						"totalVoters()": "2474",
						"vote()": "infinite",
						"votedUsers(uint256)": "infinite",
						"voters(address)": "2892"
					},
					"internal": {
						"_calculateAirdrop(uint256)": "infinite",
						"_calculateWeek(uint256)": "infinite",
						"_changeAirdropPercentage(uint256)": "infinite",
						"_changePenaltyFee(uint256)": "infinite",
						"_checkUserStake(uint256)": "infinite",
						"_checkVotingStatus()": "infinite",
						"_claimAirdrop(address)": "infinite",
						"_getVotingResult()": "infinite",
						"_stake(address,uint256,uint256,uint256)": "infinite",
						"_startAirdropSince()": "infinite",
						"_startVoting()": "infinite",
						"_stopVoting()": "infinite",
						"_withdrawStake(address)": "infinite",
						"calculatePenalty(uint256,uint256)": "infinite",
						"calculateStakeReward(struct Stakable.Stake memory)": "infinite",
						"calculateStakingDuration(uint256)": "infinite",
						"calculateStakingWithPenalty(uint256,uint256)": "infinite"
					}
				},
				"methodIdentifiers": {
					"airdropRate()": "8891cf0d",
					"airdropSince()": "b87da76d",
					"airdropWeek()": "cbb3e152",
					"hasStake()": "10486b6a",
					"isVoter(address)": "a7771ee3",
					"retractVote()": "070c8b74",
					"stakingPenaltyRate()": "cb79c2e1",
					"totalVoters()": "5f5300ff",
					"vote()": "632a9a52",
					"votedUsers(uint256)": "a143a5f2",
					"voters(address)": "a3ec138d"
				}
			},
			"storageLayout": {
				"storage": [
					{
						"astId": 328,
						"contract": "contracts/Stakable.sol:Stakable",
						"label": "stakingPenaltyRate",
						"offset": 0,
						"slot": "0",
						"type": "t_uint256"
					},
					{
						"astId": 330,
						"contract": "contracts/Stakable.sol:Stakable",
						"label": "airdropRate",
						"offset": 0,
						"slot": "1",
						"type": "t_uint256"
					},
					{
						"astId": 332,
						"contract": "contracts/Stakable.sol:Stakable",
						"label": "airdropSince",
						"offset": 0,
						"slot": "2",
						"type": "t_uint256"
					},
					{
						"astId": 334,
						"contract": "contracts/Stakable.sol:Stakable",
						"label": "_votingStatus",
						"offset": 0,
						"slot": "3",
						"type": "t_bool"
					},
					{
						"astId": 336,
						"contract": "contracts/Stakable.sol:Stakable",
						"label": "_votingId",
						"offset": 0,
						"slot": "4",
						"type": "t_uint256"
					},
					{
						"astId": 338,
						"contract": "contracts/Stakable.sol:Stakable",
						"label": "totalVoters",
						"offset": 0,
						"slot": "5",
						"type": "t_uint256"
					},
					{
						"astId": 343,
						"contract": "contracts/Stakable.sol:Stakable",
						"label": "voters",
						"offset": 0,
						"slot": "6",
						"type": "t_mapping(t_address,t_struct(Voter)326_storage)"
					},
					{
						"astId": 347,
						"contract": "contracts/Stakable.sol:Stakable",
						"label": "votedUsers",
						"offset": 0,
						"slot": "7",
						"type": "t_mapping(t_uint256,t_uint256)"
					},
					{
						"astId": 425,
						"contract": "contracts/Stakable.sol:Stakable",
						"label": "stakeholders",
						"offset": 0,
						"slot": "8",
						"type": "t_mapping(t_address,t_struct(Stakeholder)411_storage)"
					}
				],
				"types": {
					"t_address": {
						"encoding": "inplace",
						"label": "address",
						"numberOfBytes": "20"
					},
					"t_bool": {
						"encoding": "inplace",
						"label": "bool",
						"numberOfBytes": "1"
					},
					"t_mapping(t_address,t_struct(Stakeholder)411_storage)": {
						"encoding": "mapping",
						"key": "t_address",
						"label": "mapping(address => struct Stakable.Stakeholder)",
						"numberOfBytes": "32",
						"value": "t_struct(Stakeholder)411_storage"
					},
					"t_mapping(t_address,t_struct(Voter)326_storage)": {
						"encoding": "mapping",
						"key": "t_address",
						"label": "mapping(address => struct Stakable.Voter)",
						"numberOfBytes": "32",
						"value": "t_struct(Voter)326_storage"
					},
					"t_mapping(t_uint256,t_bool)": {
						"encoding": "mapping",
						"key": "t_uint256",
						"label": "mapping(uint256 => bool)",
						"numberOfBytes": "32",
						"value": "t_bool"
					},
					"t_mapping(t_uint256,t_uint256)": {
						"encoding": "mapping",
						"key": "t_uint256",
						"label": "mapping(uint256 => uint256)",
						"numberOfBytes": "32",
						"value": "t_uint256"
					},
					"t_struct(Stake)403_storage": {
						"encoding": "inplace",
						"label": "struct Stakable.Stake",
						"members": [
							{
								"astId": 390,
								"contract": "contracts/Stakable.sol:Stakable",
								"label": "user",
								"offset": 0,
								"slot": "0",
								"type": "t_address"
							},
							{
								"astId": 392,
								"contract": "contracts/Stakable.sol:Stakable",
								"label": "amount",
								"offset": 0,
								"slot": "1",
								"type": "t_uint256"
							},
							{
								"astId": 394,
								"contract": "contracts/Stakable.sol:Stakable",
								"label": "since",
								"offset": 0,
								"slot": "2",
								"type": "t_uint256"
							},
							{
								"astId": 396,
								"contract": "contracts/Stakable.sol:Stakable",
								"label": "claimable",
								"offset": 0,
								"slot": "3",
								"type": "t_uint256"
							},
							{
								"astId": 398,
								"contract": "contracts/Stakable.sol:Stakable",
								"label": "claimable_airdrop",
								"offset": 0,
								"slot": "4",
								"type": "t_uint256"
							},
							{
								"astId": 400,
								"contract": "contracts/Stakable.sol:Stakable",
								"label": "rewardAPY",
								"offset": 0,
								"slot": "5",
								"type": "t_uint256"
							},
							{
								"astId": 402,
								"contract": "contracts/Stakable.sol:Stakable",
								"label": "releaseTime",
								"offset": 0,
								"slot": "6",
								"type": "t_uint256"
							}
						],
						"numberOfBytes": "224"
					},
					"t_struct(Stakeholder)411_storage": {
						"encoding": "inplace",
						"label": "struct Stakable.Stakeholder",
						"members": [
							{
								"astId": 406,
								"contract": "contracts/Stakable.sol:Stakable",
								"label": "stake",
								"offset": 0,
								"slot": "0",
								"type": "t_struct(Stake)403_storage"
							},
							{
								"astId": 408,
								"contract": "contracts/Stakable.sol:Stakable",
								"label": "user",
								"offset": 0,
								"slot": "7",
								"type": "t_address"
							},
							{
								"astId": 410,
								"contract": "contracts/Stakable.sol:Stakable",
								"label": "latestClaimDrop",
								"offset": 0,
								"slot": "8",
								"type": "t_uint256"
							}
						],
						"numberOfBytes": "288"
					},
					"t_struct(Voter)326_storage": {
						"encoding": "inplace",
						"label": "struct Stakable.Voter",
						"members": [
							{
								"astId": 321,
								"contract": "contracts/Stakable.sol:Stakable",
								"label": "votingRight",
								"offset": 0,
								"slot": "0",
								"type": "t_bool"
							},
							{
								"astId": 325,
								"contract": "contracts/Stakable.sol:Stakable",
								"label": "voted",
								"offset": 0,
								"slot": "1",
								"type": "t_mapping(t_uint256,t_bool)"
							}
						],
						"numberOfBytes": "64"
					},
					"t_uint256": {
						"encoding": "inplace",
						"label": "uint256",
						"numberOfBytes": "32"
					}
				}
			},
			"userdoc": {
				"events": {
					"Staked(address,uint256,uint256,uint256)": {
						"notice": "Staked event is triggered whenever a user stakes tokens, address is indexed to make it filterable"
					}
				},
				"kind": "user",
				"methods": {},
				"version": 1
			}
		}
	}
}