{
	"contracts/Stakable.sol": {
		"Stakable": {
			"abi": [
				{
					"inputs": [
						{
							"internalType": "uint256",
							"name": "stakingPenalty_",
							"type": "uint256"
						}
					],
					"stateMutability": "nonpayable",
					"type": "constructor"
				},
				{
					"anonymous": false,
					"inputs": [
						{
							"indexed": false,
							"internalType": "uint256",
							"name": "amount",
							"type": "uint256"
						}
					],
					"name": "PenaltyChanged",
					"type": "event"
				},
				{
					"anonymous": false,
					"inputs": [
						{
							"indexed": true,
							"internalType": "address",
							"name": "user",
							"type": "address"
						},
						{
							"indexed": false,
							"internalType": "uint256",
							"name": "amount",
							"type": "uint256"
						},
						{
							"indexed": false,
							"internalType": "uint256",
							"name": "index",
							"type": "uint256"
						},
						{
							"indexed": false,
							"internalType": "uint256",
							"name": "timestamp",
							"type": "uint256"
						},
						{
							"indexed": false,
							"internalType": "uint256",
							"name": "releaseTime",
							"type": "uint256"
						}
					],
					"name": "Staked",
					"type": "event"
				},
				{
					"inputs": [
						{
							"internalType": "address",
							"name": "_staker",
							"type": "address"
						}
					],
					"name": "hasStake",
					"outputs": [
						{
							"components": [
								{
									"internalType": "uint256",
									"name": "total_amount",
									"type": "uint256"
								},
								{
									"components": [
										{
											"internalType": "address",
											"name": "user",
											"type": "address"
										},
										{
											"internalType": "uint256",
											"name": "amount",
											"type": "uint256"
										},
										{
											"internalType": "uint256",
											"name": "since",
											"type": "uint256"
										},
										{
											"internalType": "uint256",
											"name": "claimable",
											"type": "uint256"
										},
										{
											"internalType": "uint256",
											"name": "rewardAPY",
											"type": "uint256"
										},
										{
											"internalType": "uint256",
											"name": "releaseTime",
											"type": "uint256"
										}
									],
									"internalType": "struct Stakable.Stake[]",
									"name": "stakes",
									"type": "tuple[]"
								}
							],
							"internalType": "struct Stakable.StakingSummary",
							"name": "",
							"type": "tuple"
						}
					],
					"stateMutability": "view",
					"type": "function"
				},
				{
					"inputs": [
						{
							"internalType": "address",
							"name": "user_",
							"type": "address"
						}
					],
					"name": "stakeSummary",
					"outputs": [
						{
							"components": [
								{
									"internalType": "uint256",
									"name": "total_amount",
									"type": "uint256"
								},
								{
									"components": [
										{
											"internalType": "address",
											"name": "user",
											"type": "address"
										},
										{
											"internalType": "uint256",
											"name": "amount",
											"type": "uint256"
										},
										{
											"internalType": "uint256",
											"name": "since",
											"type": "uint256"
										},
										{
											"internalType": "uint256",
											"name": "claimable",
											"type": "uint256"
										},
										{
											"internalType": "uint256",
											"name": "rewardAPY",
											"type": "uint256"
										},
										{
											"internalType": "uint256",
											"name": "releaseTime",
											"type": "uint256"
										}
									],
									"internalType": "struct Stakable.Stake[]",
									"name": "stakes",
									"type": "tuple[]"
								}
							],
							"internalType": "struct Stakable.StakingSummary",
							"name": "",
							"type": "tuple"
						}
					],
					"stateMutability": "view",
					"type": "function"
				},
				{
					"inputs": [
						{
							"internalType": "uint256",
							"name": "index_",
							"type": "uint256"
						},
						{
							"internalType": "address",
							"name": "user_",
							"type": "address"
						}
					],
					"name": "testCalculateDuration",
					"outputs": [
						{
							"internalType": "uint256",
							"name": "",
							"type": "uint256"
						}
					],
					"stateMutability": "view",
					"type": "function"
				}
			],
			"devdoc": {
				"kind": "dev",
				"methods": {},
				"version": 1
			},
			"evm": {
				"assembly": "    /* \"contracts/Stakable.sol\":128:11312  contract Stakable {... */\n  mstore(0x40, 0x80)\n    /* \"contracts/Stakable.sol\":363:600  constructor(uint256 stakingPenalty_) {... */\n  callvalue\n  dup1\n  iszero\n  tag_1\n  jumpi\n  0x00\n  dup1\n  revert\ntag_1:\n  pop\n  mload(0x40)\n  sub(codesize, bytecodeSize)\n  dup1\n  bytecodeSize\n  dup4\n  codecopy\n  dup2\n  dup2\n  add\n  0x40\n  mstore\n  dup2\n  add\n  swap1\n  tag_2\n  swap2\n  swap1\n  tag_3\n  jump\t// in\ntag_2:\n    /* \"contracts/Stakable.sol\":486:498  stakeholders */\n  0x01\n    /* \"contracts/Stakable.sol\":486:505  stakeholders.push() */\n  dup1\n  dup2\n  0x01\n  dup2\n  sload\n  add\n  dup1\n  dup3\n  sstore\n  dup1\n  swap2\n  pop\n  pop\n  sub\n  swap1\n  0x00\n  mstore\n  keccak256(0x00, 0x20)\n  swap1\n  pop\n  pop\n    /* \"contracts/Stakable.sol\":577:592  stakingPenalty_ */\n  dup1\n    /* \"contracts/Stakable.sol\":559:574  _stakingPenalty */\n  0x00\n    /* \"contracts/Stakable.sol\":559:592  _stakingPenalty = stakingPenalty_ */\n  dup2\n  swap1\n  sstore\n  pop\n    /* \"contracts/Stakable.sol\":363:600  constructor(uint256 stakingPenalty_) {... */\n  pop\n    /* \"contracts/Stakable.sol\":128:11312  contract Stakable {... */\n  jump(tag_7)\n    /* \"#utility.yul\":88:205   */\ntag_9:\n    /* \"#utility.yul\":197:198   */\n  0x00\n    /* \"#utility.yul\":194:195   */\n  dup1\n    /* \"#utility.yul\":187:199   */\n  revert\n    /* \"#utility.yul\":334:411   */\ntag_11:\n    /* \"#utility.yul\":371:378   */\n  0x00\n    /* \"#utility.yul\":400:405   */\n  dup2\n    /* \"#utility.yul\":389:405   */\n  swap1\n  pop\n    /* \"#utility.yul\":334:411   */\n  swap2\n  swap1\n  pop\n  jump\t// out\n    /* \"#utility.yul\":417:539   */\ntag_12:\n    /* \"#utility.yul\":490:514   */\n  tag_20\n    /* \"#utility.yul\":508:513   */\n  dup2\n    /* \"#utility.yul\":490:514   */\n  tag_11\n  jump\t// in\ntag_20:\n    /* \"#utility.yul\":483:488   */\n  dup2\n    /* \"#utility.yul\":480:515   */\n  eq\n    /* \"#utility.yul\":470:533   */\n  tag_21\n  jumpi\n    /* \"#utility.yul\":529:530   */\n  0x00\n    /* \"#utility.yul\":526:527   */\n  dup1\n    /* \"#utility.yul\":519:531   */\n  revert\n    /* \"#utility.yul\":470:533   */\ntag_21:\n    /* \"#utility.yul\":417:539   */\n  pop\n  jump\t// out\n    /* \"#utility.yul\":545:688   */\ntag_13:\n    /* \"#utility.yul\":602:607   */\n  0x00\n    /* \"#utility.yul\":633:639   */\n  dup2\n    /* \"#utility.yul\":627:640   */\n  mload\n    /* \"#utility.yul\":618:640   */\n  swap1\n  pop\n    /* \"#utility.yul\":649:682   */\n  tag_23\n    /* \"#utility.yul\":676:681   */\n  dup2\n    /* \"#utility.yul\":649:682   */\n  tag_12\n  jump\t// in\ntag_23:\n    /* \"#utility.yul\":545:688   */\n  swap3\n  swap2\n  pop\n  pop\n  jump\t// out\n    /* \"#utility.yul\":694:1045   */\ntag_3:\n    /* \"#utility.yul\":764:770   */\n  0x00\n    /* \"#utility.yul\":813:815   */\n  0x20\n    /* \"#utility.yul\":801:810   */\n  dup3\n    /* \"#utility.yul\":792:799   */\n  dup5\n    /* \"#utility.yul\":788:811   */\n  sub\n    /* \"#utility.yul\":784:816   */\n  slt\n    /* \"#utility.yul\":781:900   */\n  iszero\n  tag_25\n  jumpi\n    /* \"#utility.yul\":819:898   */\n  tag_26\n  tag_9\n  jump\t// in\ntag_26:\n    /* \"#utility.yul\":781:900   */\ntag_25:\n    /* \"#utility.yul\":939:940   */\n  0x00\n    /* \"#utility.yul\":964:1028   */\n  tag_27\n    /* \"#utility.yul\":1020:1027   */\n  dup5\n    /* \"#utility.yul\":1011:1017   */\n  dup3\n    /* \"#utility.yul\":1000:1009   */\n  dup6\n    /* \"#utility.yul\":996:1018   */\n  add\n    /* \"#utility.yul\":964:1028   */\n  tag_13\n  jump\t// in\ntag_27:\n    /* \"#utility.yul\":954:1028   */\n  swap2\n  pop\n    /* \"#utility.yul\":910:1038   */\n  pop\n    /* \"#utility.yul\":694:1045   */\n  swap3\n  swap2\n  pop\n  pop\n  jump\t// out\n    /* \"contracts/Stakable.sol\":128:11312  contract Stakable {... */\ntag_7:\n  dataSize(sub_0)\n  dup1\n  dataOffset(sub_0)\n  0x00\n  codecopy\n  0x00\n  return\nstop\n\nsub_0: assembly {\n        /* \"contracts/Stakable.sol\":128:11312  contract Stakable {... */\n      mstore(0x40, 0x80)\n      callvalue\n      dup1\n      iszero\n      tag_1\n      jumpi\n      0x00\n      dup1\n      revert\n    tag_1:\n      pop\n      jumpi(tag_2, lt(calldatasize, 0x04))\n      shr(0xe0, calldataload(0x00))\n      dup1\n      0x38920102\n      eq\n      tag_3\n      jumpi\n      dup1\n      0xb09d4b4e\n      eq\n      tag_4\n      jumpi\n      dup1\n      0xe73e14bf\n      eq\n      tag_5\n      jumpi\n    tag_2:\n      0x00\n      dup1\n      revert\n        /* \"contracts/Stakable.sol\":5030:5292  function testCalculateDuration(uint256 index_, address user_)... */\n    tag_3:\n      tag_6\n      0x04\n      dup1\n      calldatasize\n      sub\n      dup2\n      add\n      swap1\n      tag_7\n      swap2\n      swap1\n      tag_8\n      jump\t// in\n    tag_7:\n      tag_9\n      jump\t// in\n    tag_6:\n      mload(0x40)\n      tag_10\n      swap2\n      swap1\n      tag_11\n      jump\t// in\n    tag_10:\n      mload(0x40)\n      dup1\n      swap2\n      sub\n      swap1\n      return\n        /* \"contracts/Stakable.sol\":6080:6369  function stakeSummary(address user_)... */\n    tag_4:\n      tag_12\n      0x04\n      dup1\n      calldatasize\n      sub\n      dup2\n      add\n      swap1\n      tag_13\n      swap2\n      swap1\n      tag_14\n      jump\t// in\n    tag_13:\n      tag_15\n      jump\t// in\n    tag_12:\n      mload(0x40)\n      tag_16\n      swap2\n      swap1\n      tag_17\n      jump\t// in\n    tag_16:\n      mload(0x40)\n      dup1\n      swap2\n      sub\n      swap1\n      return\n        /* \"contracts/Stakable.sol\":10428:11309  function hasStake(address _staker)... */\n    tag_5:\n      tag_18\n      0x04\n      dup1\n      calldatasize\n      sub\n      dup2\n      add\n      swap1\n      tag_19\n      swap2\n      swap1\n      tag_14\n      jump\t// in\n    tag_19:\n      tag_20\n      jump\t// in\n    tag_18:\n      mload(0x40)\n      tag_21\n      swap2\n      swap1\n      tag_17\n      jump\t// in\n    tag_21:\n      mload(0x40)\n      dup1\n      swap2\n      sub\n      swap1\n      return\n        /* \"contracts/Stakable.sol\":5030:5292  function testCalculateDuration(uint256 index_, address user_)... */\n    tag_9:\n        /* \"contracts/Stakable.sol\":5140:5147  uint256 */\n      0x00\n        /* \"contracts/Stakable.sol\":5165:5194  StakingSummary memory summary */\n      dup1\n        /* \"contracts/Stakable.sol\":5197:5216  stakeSummary(user_) */\n      tag_23\n        /* \"contracts/Stakable.sol\":5210:5215  user_ */\n      dup4\n        /* \"contracts/Stakable.sol\":5197:5209  stakeSummary */\n      tag_15\n        /* \"contracts/Stakable.sol\":5197:5216  stakeSummary(user_) */\n      jump\t// in\n    tag_23:\n        /* \"contracts/Stakable.sol\":5165:5216  StakingSummary memory summary = stakeSummary(user_) */\n      swap1\n      pop\n        /* \"contracts/Stakable.sol\":5255:5262  summary */\n      dup1\n        /* \"contracts/Stakable.sol\":5255:5269  summary.stakes */\n      0x20\n      add\n      mload\n        /* \"contracts/Stakable.sol\":5270:5276  index_ */\n      dup5\n        /* \"contracts/Stakable.sol\":5255:5277  summary.stakes[index_] */\n      dup2\n      mload\n      dup2\n      lt\n      tag_24\n      jumpi\n      tag_25\n      tag_26\n      jump\t// in\n    tag_25:\n    tag_24:\n      0x20\n      mul\n      0x20\n      add\n      add\n      mload\n        /* \"contracts/Stakable.sol\":5255:5283  summary.stakes[index_].since */\n      0x40\n      add\n      mload\n        /* \"contracts/Stakable.sol\":5237:5252  block.timestamp */\n      timestamp\n        /* \"contracts/Stakable.sol\":5237:5283  block.timestamp - summary.stakes[index_].since */\n      tag_27\n      swap2\n      swap1\n      tag_28\n      jump\t// in\n    tag_27:\n        /* \"contracts/Stakable.sol\":5229:5284  return (block.timestamp - summary.stakes[index_].since) */\n      swap2\n      pop\n      pop\n        /* \"contracts/Stakable.sol\":5030:5292  function testCalculateDuration(uint256 index_, address user_)... */\n      swap3\n      swap2\n      pop\n      pop\n      jump\t// out\n        /* \"contracts/Stakable.sol\":6080:6369  function stakeSummary(address user_)... */\n    tag_15:\n        /* \"contracts/Stakable.sol\":6165:6186  StakingSummary memory */\n      tag_29\n      tag_30\n      jump\t// in\n    tag_29:\n        /* \"contracts/Stakable.sol\":6204:6233  StakingSummary memory summary */\n      0x00\n        /* \"contracts/Stakable.sol\":6236:6334  StakingSummary(... */\n      mload(0x40)\n      dup1\n      0x40\n      add\n      0x40\n      mstore\n      dup1\n        /* \"contracts/Stakable.sol\":6265:6266  0 */\n      0x00\n        /* \"contracts/Stakable.sol\":6236:6334  StakingSummary(... */\n      dup2\n      mstore\n      0x20\n      add\n        /* \"contracts/Stakable.sol\":6281:6293  stakeholders */\n      0x01\n        /* \"contracts/Stakable.sol\":6294:6300  stakes */\n      0x02\n        /* \"contracts/Stakable.sol\":6294:6307  stakes[user_] */\n      0x00\n        /* \"contracts/Stakable.sol\":6301:6306  user_ */\n      dup8\n        /* \"contracts/Stakable.sol\":6294:6307  stakes[user_] */\n      0xffffffffffffffffffffffffffffffffffffffff\n      and\n      0xffffffffffffffffffffffffffffffffffffffff\n      and\n      dup2\n      mstore\n      0x20\n      add\n      swap1\n      dup2\n      mstore\n      0x20\n      add\n      0x00\n      keccak256\n      sload\n        /* \"contracts/Stakable.sol\":6281:6308  stakeholders[stakes[user_]] */\n      dup2\n      sload\n      dup2\n      lt\n      tag_32\n      jumpi\n      tag_33\n      tag_26\n      jump\t// in\n    tag_33:\n    tag_32:\n      swap1\n      0x00\n      mstore\n      keccak256(0x00, 0x20)\n      swap1\n      0x02\n      mul\n      add\n        /* \"contracts/Stakable.sol\":6281:6323  stakeholders[stakes[user_]].address_stakes */\n      0x01\n      add\n        /* \"contracts/Stakable.sol\":6236:6334  StakingSummary(... */\n      dup1\n      sload\n      dup1\n      0x20\n      mul\n      0x20\n      add\n      mload(0x40)\n      swap1\n      dup2\n      add\n      0x40\n      mstore\n      dup1\n      swap3\n      swap2\n      swap1\n      dup2\n      dup2\n      mstore\n      0x20\n      add\n      0x00\n      swap1\n    tag_35:\n      dup3\n      dup3\n      lt\n      iszero\n      tag_36\n      jumpi\n      dup4\n      dup3\n      swap1\n      0x00\n      mstore\n      keccak256(0x00, 0x20)\n      swap1\n      0x06\n      mul\n      add\n      mload(0x40)\n      dup1\n      0xc0\n      add\n      0x40\n      mstore\n      swap1\n      dup2\n      0x00\n      dup3\n      add\n      0x00\n      swap1\n      sload\n      swap1\n      0x0100\n      exp\n      swap1\n      div\n      0xffffffffffffffffffffffffffffffffffffffff\n      and\n      0xffffffffffffffffffffffffffffffffffffffff\n      and\n      0xffffffffffffffffffffffffffffffffffffffff\n      and\n      dup2\n      mstore\n      0x20\n      add\n      0x01\n      dup3\n      add\n      sload\n      dup2\n      mstore\n      0x20\n      add\n      0x02\n      dup3\n      add\n      sload\n      dup2\n      mstore\n      0x20\n      add\n      0x03\n      dup3\n      add\n      sload\n      dup2\n      mstore\n      0x20\n      add\n      0x04\n      dup3\n      add\n      sload\n      dup2\n      mstore\n      0x20\n      add\n      0x05\n      dup3\n      add\n      sload\n      dup2\n      mstore\n      pop\n      pop\n      dup2\n      mstore\n      0x20\n      add\n      swap1\n      0x01\n      add\n      swap1\n      jump(tag_35)\n    tag_36:\n      pop\n      pop\n      pop\n      pop\n      dup2\n      mstore\n      pop\n        /* \"contracts/Stakable.sol\":6204:6334  StakingSummary memory summary = StakingSummary(... */\n      swap1\n      pop\n        /* \"contracts/Stakable.sol\":6354:6361  summary */\n      dup1\n        /* \"contracts/Stakable.sol\":6347:6361  return summary */\n      swap2\n      pop\n      pop\n        /* \"contracts/Stakable.sol\":6080:6369  function stakeSummary(address user_)... */\n      swap2\n      swap1\n      pop\n      jump\t// out\n        /* \"contracts/Stakable.sol\":10428:11309  function hasStake(address _staker)... */\n    tag_20:\n        /* \"contracts/Stakable.sol\":10511:10532  StakingSummary memory */\n      tag_38\n      tag_30\n      jump\t// in\n    tag_38:\n        /* \"contracts/Stakable.sol\":10550:10574  uint256 totalStakeAmount */\n      0x00\n        /* \"contracts/Stakable.sol\":10587:10616  StakingSummary memory summary */\n      dup1\n        /* \"contracts/Stakable.sol\":10619:10719  StakingSummary(... */\n      mload(0x40)\n      dup1\n      0x40\n      add\n      0x40\n      mstore\n      dup1\n        /* \"contracts/Stakable.sol\":10648:10649  0 */\n      0x00\n        /* \"contracts/Stakable.sol\":10619:10719  StakingSummary(... */\n      dup2\n      mstore\n      0x20\n      add\n        /* \"contracts/Stakable.sol\":10664:10676  stakeholders */\n      0x01\n        /* \"contracts/Stakable.sol\":10677:10683  stakes */\n      0x02\n        /* \"contracts/Stakable.sol\":10677:10692  stakes[_staker] */\n      0x00\n        /* \"contracts/Stakable.sol\":10684:10691  _staker */\n      dup9\n        /* \"contracts/Stakable.sol\":10677:10692  stakes[_staker] */\n      0xffffffffffffffffffffffffffffffffffffffff\n      and\n      0xffffffffffffffffffffffffffffffffffffffff\n      and\n      dup2\n      mstore\n      0x20\n      add\n      swap1\n      dup2\n      mstore\n      0x20\n      add\n      0x00\n      keccak256\n      sload\n        /* \"contracts/Stakable.sol\":10664:10693  stakeholders[stakes[_staker]] */\n      dup2\n      sload\n      dup2\n      lt\n      tag_40\n      jumpi\n      tag_41\n      tag_26\n      jump\t// in\n    tag_41:\n    tag_40:\n      swap1\n      0x00\n      mstore\n      keccak256(0x00, 0x20)\n      swap1\n      0x02\n      mul\n      add\n        /* \"contracts/Stakable.sol\":10664:10708  stakeholders[stakes[_staker]].address_stakes */\n      0x01\n      add\n        /* \"contracts/Stakable.sol\":10619:10719  StakingSummary(... */\n      dup1\n      sload\n      dup1\n      0x20\n      mul\n      0x20\n      add\n      mload(0x40)\n      swap1\n      dup2\n      add\n      0x40\n      mstore\n      dup1\n      swap3\n      swap2\n      swap1\n      dup2\n      dup2\n      mstore\n      0x20\n      add\n      0x00\n      swap1\n    tag_43:\n      dup3\n      dup3\n      lt\n      iszero\n      tag_44\n      jumpi\n      dup4\n      dup3\n      swap1\n      0x00\n      mstore\n      keccak256(0x00, 0x20)\n      swap1\n      0x06\n      mul\n      add\n      mload(0x40)\n      dup1\n      0xc0\n      add\n      0x40\n      mstore\n      swap1\n      dup2\n      0x00\n      dup3\n      add\n      0x00\n      swap1\n      sload\n      swap1\n      0x0100\n      exp\n      swap1\n      div\n      0xffffffffffffffffffffffffffffffffffffffff\n      and\n      0xffffffffffffffffffffffffffffffffffffffff\n      and\n      0xffffffffffffffffffffffffffffffffffffffff\n      and\n      dup2\n      mstore\n      0x20\n      add\n      0x01\n      dup3\n      add\n      sload\n      dup2\n      mstore\n      0x20\n      add\n      0x02\n      dup3\n      add\n      sload\n      dup2\n      mstore\n      0x20\n      add\n      0x03\n      dup3\n      add\n      sload\n      dup2\n      mstore\n      0x20\n      add\n      0x04\n      dup3\n      add\n      sload\n      dup2\n      mstore\n      0x20\n      add\n      0x05\n      dup3\n      add\n      sload\n      dup2\n      mstore\n      pop\n      pop\n      dup2\n      mstore\n      0x20\n      add\n      swap1\n      0x01\n      add\n      swap1\n      jump(tag_43)\n    tag_44:\n      pop\n      pop\n      pop\n      pop\n      dup2\n      mstore\n      pop\n        /* \"contracts/Stakable.sol\":10587:10719  StakingSummary memory summary = StakingSummary(... */\n      swap1\n      pop\n        /* \"contracts/Stakable.sol\":10777:10778  0 */\n      0x00\n        /* \"contracts/Stakable.sol\":10752:10759  summary */\n      dup2\n        /* \"contracts/Stakable.sol\":10752:10766  summary.stakes */\n      0x20\n      add\n      mload\n        /* \"contracts/Stakable.sol\":10752:10773  summary.stakes.length */\n      mload\n        /* \"contracts/Stakable.sol\":10752:10778  summary.stakes.length != 0 */\n      eq\n      iszero\n        /* \"contracts/Stakable.sol\":10730:10853  require(... */\n      tag_46\n      jumpi\n      mload(0x40)\n      0x08c379a000000000000000000000000000000000000000000000000000000000\n      dup2\n      mstore\n      0x04\n      add\n      tag_47\n      swap1\n      tag_48\n      jump\t// in\n    tag_47:\n      mload(0x40)\n      dup1\n      swap2\n      sub\n      swap1\n      revert\n    tag_46:\n        /* \"contracts/Stakable.sol\":10871:10880  uint256 s */\n      0x00\n        /* \"contracts/Stakable.sol\":10866:11225  for (uint256 s = 0; s < summary.stakes.length; s += 1) {... */\n    tag_49:\n        /* \"contracts/Stakable.sol\":10890:10897  summary */\n      dup2\n        /* \"contracts/Stakable.sol\":10890:10904  summary.stakes */\n      0x20\n      add\n      mload\n        /* \"contracts/Stakable.sol\":10890:10911  summary.stakes.length */\n      mload\n        /* \"contracts/Stakable.sol\":10886:10887  s */\n      dup2\n        /* \"contracts/Stakable.sol\":10886:10911  s < summary.stakes.length */\n      lt\n        /* \"contracts/Stakable.sol\":10866:11225  for (uint256 s = 0; s < summary.stakes.length; s += 1) {... */\n      iszero\n      tag_50\n      jumpi\n        /* \"contracts/Stakable.sol\":10936:10959  uint256 availableReward */\n      0x00\n        /* \"contracts/Stakable.sol\":10962:11076  calculateStakeReward(... */\n      tag_52\n        /* \"contracts/Stakable.sol\":11001:11008  summary */\n      dup4\n        /* \"contracts/Stakable.sol\":11001:11015  summary.stakes */\n      0x20\n      add\n      mload\n        /* \"contracts/Stakable.sol\":11016:11017  s */\n      dup4\n        /* \"contracts/Stakable.sol\":11001:11018  summary.stakes[s] */\n      dup2\n      mload\n      dup2\n      lt\n      tag_53\n      jumpi\n      tag_54\n      tag_26\n      jump\t// in\n    tag_54:\n    tag_53:\n      0x20\n      mul\n      0x20\n      add\n      add\n      mload\n        /* \"contracts/Stakable.sol\":11037:11044  summary */\n      dup5\n        /* \"contracts/Stakable.sol\":11037:11051  summary.stakes */\n      0x20\n      add\n      mload\n        /* \"contracts/Stakable.sol\":11052:11053  s */\n      dup5\n        /* \"contracts/Stakable.sol\":11037:11054  summary.stakes[s] */\n      dup2\n      mload\n      dup2\n      lt\n      tag_55\n      jumpi\n      tag_56\n      tag_26\n      jump\t// in\n    tag_56:\n    tag_55:\n      0x20\n      mul\n      0x20\n      add\n      add\n      mload\n        /* \"contracts/Stakable.sol\":11037:11061  summary.stakes[s].amount */\n      0x20\n      add\n      mload\n        /* \"contracts/Stakable.sol\":10962:10982  calculateStakeReward */\n      tag_57\n        /* \"contracts/Stakable.sol\":10962:11076  calculateStakeReward(... */\n      jump\t// in\n    tag_52:\n        /* \"contracts/Stakable.sol\":10936:11076  uint256 availableReward = calculateStakeReward(... */\n      swap1\n      pop\n        /* \"contracts/Stakable.sol\":11121:11136  availableReward */\n      dup1\n        /* \"contracts/Stakable.sol\":11091:11098  summary */\n      dup4\n        /* \"contracts/Stakable.sol\":11091:11105  summary.stakes */\n      0x20\n      add\n      mload\n        /* \"contracts/Stakable.sol\":11106:11107  s */\n      dup4\n        /* \"contracts/Stakable.sol\":11091:11108  summary.stakes[s] */\n      dup2\n      mload\n      dup2\n      lt\n      tag_58\n      jumpi\n      tag_59\n      tag_26\n      jump\t// in\n    tag_59:\n    tag_58:\n      0x20\n      mul\n      0x20\n      add\n      add\n      mload\n        /* \"contracts/Stakable.sol\":11091:11118  summary.stakes[s].claimable */\n      0x60\n      add\n        /* \"contracts/Stakable.sol\":11091:11136  summary.stakes[s].claimable = availableReward */\n      dup2\n      dup2\n      mstore\n      pop\n      pop\n        /* \"contracts/Stakable.sol\":11189:11196  summary */\n      dup3\n        /* \"contracts/Stakable.sol\":11189:11203  summary.stakes */\n      0x20\n      add\n      mload\n        /* \"contracts/Stakable.sol\":11204:11205  s */\n      dup3\n        /* \"contracts/Stakable.sol\":11189:11206  summary.stakes[s] */\n      dup2\n      mload\n      dup2\n      lt\n      tag_60\n      jumpi\n      tag_61\n      tag_26\n      jump\t// in\n    tag_61:\n    tag_60:\n      0x20\n      mul\n      0x20\n      add\n      add\n      mload\n        /* \"contracts/Stakable.sol\":11189:11213  summary.stakes[s].amount */\n      0x20\n      add\n      mload\n        /* \"contracts/Stakable.sol\":11170:11186  totalStakeAmount */\n      dup5\n        /* \"contracts/Stakable.sol\":11170:11213  totalStakeAmount + summary.stakes[s].amount */\n      tag_62\n      swap2\n      swap1\n      tag_63\n      jump\t// in\n    tag_62:\n        /* \"contracts/Stakable.sol\":11151:11213  totalStakeAmount = totalStakeAmount + summary.stakes[s].amount */\n      swap4\n      pop\n        /* \"contracts/Stakable.sol\":10921:11225  {... */\n      pop\n        /* \"contracts/Stakable.sol\":10918:10919  1 */\n      0x01\n        /* \"contracts/Stakable.sol\":10913:10919  s += 1 */\n      dup2\n      tag_64\n      swap2\n      swap1\n      tag_63\n      jump\t// in\n    tag_64:\n      swap1\n      pop\n        /* \"contracts/Stakable.sol\":10866:11225  for (uint256 s = 0; s < summary.stakes.length; s += 1) {... */\n      jump(tag_49)\n    tag_50:\n      pop\n        /* \"contracts/Stakable.sol\":11260:11276  totalStakeAmount */\n      dup2\n        /* \"contracts/Stakable.sol\":11237:11244  summary */\n      dup2\n        /* \"contracts/Stakable.sol\":11237:11257  summary.total_amount */\n      0x00\n      add\n        /* \"contracts/Stakable.sol\":11237:11276  summary.total_amount = totalStakeAmount */\n      dup2\n      dup2\n      mstore\n      pop\n      pop\n        /* \"contracts/Stakable.sol\":11294:11301  summary */\n      dup1\n        /* \"contracts/Stakable.sol\":11287:11301  return summary */\n      swap3\n      pop\n      pop\n      pop\n        /* \"contracts/Stakable.sol\":10428:11309  function hasStake(address _staker)... */\n      swap2\n      swap1\n      pop\n      jump\t// out\n        /* \"contracts/Stakable.sol\":5688:6072  function calculateStakeReward(Stake memory _current_stake, uint256 _amount)... */\n    tag_57:\n        /* \"contracts/Stakable.sol\":5814:5821  uint256 */\n      0x00\n        /* \"contracts/Stakable.sol\":5868:5869  0 */\n      dup1\n        /* \"contracts/Stakable.sol\":5843:5857  _current_stake */\n      dup4\n        /* \"contracts/Stakable.sol\":5843:5864  _current_stake.amount */\n      0x20\n      add\n      mload\n        /* \"contracts/Stakable.sol\":5843:5869  _current_stake.amount == 0 */\n      eq\n        /* \"contracts/Stakable.sol\":5839:5906  if (_current_stake.amount == 0) {... */\n      iszero\n      tag_66\n      jumpi\n        /* \"contracts/Stakable.sol\":5893:5894  0 */\n      0x00\n        /* \"contracts/Stakable.sol\":5886:5894  return 0 */\n      swap1\n      pop\n      jump(tag_65)\n        /* \"contracts/Stakable.sol\":5839:5906  if (_current_stake.amount == 0) {... */\n    tag_66:\n        /* \"contracts/Stakable.sol\":6060:6064  1e26 */\n      0x52b7d2dcc80cd2e4000000\n        /* \"contracts/Stakable.sol\":6010:6056  calculateStakingDuration(_current_stake.since) */\n      tag_67\n        /* \"contracts/Stakable.sol\":6035:6049  _current_stake */\n      dup5\n        /* \"contracts/Stakable.sol\":6035:6055  _current_stake.since */\n      0x40\n      add\n      mload\n        /* \"contracts/Stakable.sol\":6010:6034  calculateStakingDuration */\n      tag_68\n        /* \"contracts/Stakable.sol\":6010:6056  calculateStakingDuration(_current_stake.since) */\n      jump\t// in\n    tag_67:\n        /* \"contracts/Stakable.sol\":5966:5980  _current_stake */\n      dup5\n        /* \"contracts/Stakable.sol\":5966:5990  _current_stake.rewardAPY */\n      0x80\n      add\n      mload\n        /* \"contracts/Stakable.sol\":5939:5946  _amount */\n      dup5\n        /* \"contracts/Stakable.sol\":5939:5990  _amount *... */\n      tag_69\n      swap2\n      swap1\n      tag_70\n      jump\t// in\n    tag_69:\n        /* \"contracts/Stakable.sol\":5939:6056  _amount *... */\n      tag_71\n      swap2\n      swap1\n      tag_70\n      jump\t// in\n    tag_71:\n        /* \"contracts/Stakable.sol\":5938:6064  (_amount *... */\n      tag_72\n      swap2\n      swap1\n      tag_73\n      jump\t// in\n    tag_72:\n        /* \"contracts/Stakable.sol\":5918:6064  return... */\n      swap1\n      pop\n        /* \"contracts/Stakable.sol\":5688:6072  function calculateStakeReward(Stake memory _current_stake, uint256 _amount)... */\n    tag_65:\n      swap3\n      swap2\n      pop\n      pop\n      jump\t// out\n        /* \"contracts/Stakable.sol\":5300:5680  function calculateStakingDuration(uint256 since_)... */\n    tag_68:\n        /* \"contracts/Stakable.sol\":5400:5407  uint256 */\n      0x00\n        /* \"contracts/Stakable.sol\":5442:5443  0 */\n      dup1\n        /* \"contracts/Stakable.sol\":5433:5439  since_ */\n      dup3\n        /* \"contracts/Stakable.sol\":5433:5443  since_ > 0 */\n      gt\n        /* \"contracts/Stakable.sol\":5425:5475  require(since_ > 0, \"Stakable: Error timestamp 0\") */\n      tag_75\n      jumpi\n      mload(0x40)\n      0x08c379a000000000000000000000000000000000000000000000000000000000\n      dup2\n      mstore\n      0x04\n      add\n      tag_76\n      swap1\n      tag_77\n      jump\t// in\n    tag_76:\n      mload(0x40)\n      dup1\n      swap2\n      sub\n      swap1\n      revert\n    tag_75:\n        /* \"contracts/Stakable.sol\":5506:5672  SafeMath.div(... */\n      tag_78\n        /* \"contracts/Stakable.sol\":5566:5570  1e24 */\n      0xd3c21bcecceda1000000\n        /* \"contracts/Stakable.sol\":5556:5562  since_ */\n      dup4\n        /* \"contracts/Stakable.sol\":5538:5553  block.timestamp */\n      timestamp\n        /* \"contracts/Stakable.sol\":5538:5562  block.timestamp - since_ */\n      tag_79\n      swap2\n      swap1\n      tag_28\n      jump\t// in\n    tag_79:\n        /* \"contracts/Stakable.sol\":5537:5570  (block.timestamp - since_) * 1e24 */\n      tag_80\n      swap2\n      swap1\n      tag_70\n      jump\t// in\n    tag_80:\n        /* \"contracts/Stakable.sol\":5589:5597  365 days */\n      0x01e13380\n        /* \"contracts/Stakable.sol\":5506:5672  SafeMath.div(... */\n      mload(0x40)\n      dup1\n      0x60\n      add\n      0x40\n      mstore\n      dup1\n      0x27\n      dup2\n      mstore\n      0x20\n      add\n      data_10b867070097d898ae15cd1bc384e389b4a7d91f05c0759c198c193c7fd91787\n      0x27\n      swap2\n      codecopy\n        /* \"contracts/Stakable.sol\":5506:5518  SafeMath.div */\n      tag_81\n        /* \"contracts/Stakable.sol\":5506:5672  SafeMath.div(... */\n      jump\t// in\n    tag_78:\n        /* \"contracts/Stakable.sol\":5486:5672  return... */\n      swap1\n      pop\n        /* \"contracts/Stakable.sol\":5300:5680  function calculateStakingDuration(uint256 since_)... */\n      swap2\n      swap1\n      pop\n      jump\t// out\n        /* \"@openzeppelin/contracts/utils/math/SafeMath.sol\":5660:5890  function div(... */\n    tag_81:\n        /* \"@openzeppelin/contracts/utils/math/SafeMath.sol\":5776:5783  uint256 */\n      0x00\n        /* \"@openzeppelin/contracts/utils/math/SafeMath.sol\":5831:5832  0 */\n      dup1\n        /* \"@openzeppelin/contracts/utils/math/SafeMath.sol\":5827:5828  b */\n      dup4\n        /* \"@openzeppelin/contracts/utils/math/SafeMath.sol\":5827:5832  b > 0 */\n      gt\n        /* \"@openzeppelin/contracts/utils/math/SafeMath.sol\":5834:5846  errorMessage */\n      dup3\n        /* \"@openzeppelin/contracts/utils/math/SafeMath.sol\":5819:5847  require(b > 0, errorMessage) */\n      swap1\n      tag_83\n      jumpi\n      mload(0x40)\n      0x08c379a000000000000000000000000000000000000000000000000000000000\n      dup2\n      mstore\n      0x04\n      add\n      tag_84\n      swap2\n      swap1\n      tag_85\n      jump\t// in\n    tag_84:\n      mload(0x40)\n      dup1\n      swap2\n      sub\n      swap1\n      revert\n    tag_83:\n      pop\n        /* \"@openzeppelin/contracts/utils/math/SafeMath.sol\":5872:5873  b */\n      dup3\n        /* \"@openzeppelin/contracts/utils/math/SafeMath.sol\":5868:5869  a */\n      dup5\n        /* \"@openzeppelin/contracts/utils/math/SafeMath.sol\":5868:5873  a / b */\n      dup2\n      tag_86\n      jumpi\n      tag_87\n      tag_88\n      jump\t// in\n    tag_87:\n    tag_86:\n      div\n        /* \"@openzeppelin/contracts/utils/math/SafeMath.sol\":5861:5873  return a / b */\n      swap1\n      pop\n        /* \"@openzeppelin/contracts/utils/math/SafeMath.sol\":5660:5890  function div(... */\n      swap4\n      swap3\n      pop\n      pop\n      pop\n      jump\t// out\n    tag_30:\n      mload(0x40)\n      dup1\n      0x40\n      add\n      0x40\n      mstore\n      dup1\n      0x00\n      dup2\n      mstore\n      0x20\n      add\n      0x60\n      dup2\n      mstore\n      pop\n      swap1\n      jump\t// out\n        /* \"#utility.yul\":88:205   */\n    tag_90:\n        /* \"#utility.yul\":197:198   */\n      0x00\n        /* \"#utility.yul\":194:195   */\n      dup1\n        /* \"#utility.yul\":187:199   */\n      revert\n        /* \"#utility.yul\":334:411   */\n    tag_92:\n        /* \"#utility.yul\":371:378   */\n      0x00\n        /* \"#utility.yul\":400:405   */\n      dup2\n        /* \"#utility.yul\":389:405   */\n      swap1\n      pop\n        /* \"#utility.yul\":334:411   */\n      swap2\n      swap1\n      pop\n      jump\t// out\n        /* \"#utility.yul\":417:539   */\n    tag_93:\n        /* \"#utility.yul\":490:514   */\n      tag_126\n        /* \"#utility.yul\":508:513   */\n      dup2\n        /* \"#utility.yul\":490:514   */\n      tag_92\n      jump\t// in\n    tag_126:\n        /* \"#utility.yul\":483:488   */\n      dup2\n        /* \"#utility.yul\":480:515   */\n      eq\n        /* \"#utility.yul\":470:533   */\n      tag_127\n      jumpi\n        /* \"#utility.yul\":529:530   */\n      0x00\n        /* \"#utility.yul\":526:527   */\n      dup1\n        /* \"#utility.yul\":519:531   */\n      revert\n        /* \"#utility.yul\":470:533   */\n    tag_127:\n        /* \"#utility.yul\":417:539   */\n      pop\n      jump\t// out\n        /* \"#utility.yul\":545:684   */\n    tag_94:\n        /* \"#utility.yul\":591:596   */\n      0x00\n        /* \"#utility.yul\":629:635   */\n      dup2\n        /* \"#utility.yul\":616:636   */\n      calldataload\n        /* \"#utility.yul\":607:636   */\n      swap1\n      pop\n        /* \"#utility.yul\":645:678   */\n      tag_129\n        /* \"#utility.yul\":672:677   */\n      dup2\n        /* \"#utility.yul\":645:678   */\n      tag_93\n      jump\t// in\n    tag_129:\n        /* \"#utility.yul\":545:684   */\n      swap3\n      swap2\n      pop\n      pop\n      jump\t// out\n        /* \"#utility.yul\":690:816   */\n    tag_95:\n        /* \"#utility.yul\":727:734   */\n      0x00\n        /* \"#utility.yul\":767:809   */\n      0xffffffffffffffffffffffffffffffffffffffff\n        /* \"#utility.yul\":760:765   */\n      dup3\n        /* \"#utility.yul\":756:810   */\n      and\n        /* \"#utility.yul\":745:810   */\n      swap1\n      pop\n        /* \"#utility.yul\":690:816   */\n      swap2\n      swap1\n      pop\n      jump\t// out\n        /* \"#utility.yul\":822:918   */\n    tag_96:\n        /* \"#utility.yul\":859:866   */\n      0x00\n        /* \"#utility.yul\":888:912   */\n      tag_132\n        /* \"#utility.yul\":906:911   */\n      dup3\n        /* \"#utility.yul\":888:912   */\n      tag_95\n      jump\t// in\n    tag_132:\n        /* \"#utility.yul\":877:912   */\n      swap1\n      pop\n        /* \"#utility.yul\":822:918   */\n      swap2\n      swap1\n      pop\n      jump\t// out\n        /* \"#utility.yul\":924:1046   */\n    tag_97:\n        /* \"#utility.yul\":997:1021   */\n      tag_134\n        /* \"#utility.yul\":1015:1020   */\n      dup2\n        /* \"#utility.yul\":997:1021   */\n      tag_96\n      jump\t// in\n    tag_134:\n        /* \"#utility.yul\":990:995   */\n      dup2\n        /* \"#utility.yul\":987:1022   */\n      eq\n        /* \"#utility.yul\":977:1040   */\n      tag_135\n      jumpi\n        /* \"#utility.yul\":1036:1037   */\n      0x00\n        /* \"#utility.yul\":1033:1034   */\n      dup1\n        /* \"#utility.yul\":1026:1038   */\n      revert\n        /* \"#utility.yul\":977:1040   */\n    tag_135:\n        /* \"#utility.yul\":924:1046   */\n      pop\n      jump\t// out\n        /* \"#utility.yul\":1052:1191   */\n    tag_98:\n        /* \"#utility.yul\":1098:1103   */\n      0x00\n        /* \"#utility.yul\":1136:1142   */\n      dup2\n        /* \"#utility.yul\":1123:1143   */\n      calldataload\n        /* \"#utility.yul\":1114:1143   */\n      swap1\n      pop\n        /* \"#utility.yul\":1152:1185   */\n      tag_137\n        /* \"#utility.yul\":1179:1184   */\n      dup2\n        /* \"#utility.yul\":1152:1185   */\n      tag_97\n      jump\t// in\n    tag_137:\n        /* \"#utility.yul\":1052:1191   */\n      swap3\n      swap2\n      pop\n      pop\n      jump\t// out\n        /* \"#utility.yul\":1197:1671   */\n    tag_8:\n        /* \"#utility.yul\":1265:1271   */\n      0x00\n        /* \"#utility.yul\":1273:1279   */\n      dup1\n        /* \"#utility.yul\":1322:1324   */\n      0x40\n        /* \"#utility.yul\":1310:1319   */\n      dup4\n        /* \"#utility.yul\":1301:1308   */\n      dup6\n        /* \"#utility.yul\":1297:1320   */\n      sub\n        /* \"#utility.yul\":1293:1325   */\n      slt\n        /* \"#utility.yul\":1290:1409   */\n      iszero\n      tag_139\n      jumpi\n        /* \"#utility.yul\":1328:1407   */\n      tag_140\n      tag_90\n      jump\t// in\n    tag_140:\n        /* \"#utility.yul\":1290:1409   */\n    tag_139:\n        /* \"#utility.yul\":1448:1449   */\n      0x00\n        /* \"#utility.yul\":1473:1526   */\n      tag_141\n        /* \"#utility.yul\":1518:1525   */\n      dup6\n        /* \"#utility.yul\":1509:1515   */\n      dup3\n        /* \"#utility.yul\":1498:1507   */\n      dup7\n        /* \"#utility.yul\":1494:1516   */\n      add\n        /* \"#utility.yul\":1473:1526   */\n      tag_94\n      jump\t// in\n    tag_141:\n        /* \"#utility.yul\":1463:1526   */\n      swap3\n      pop\n        /* \"#utility.yul\":1419:1536   */\n      pop\n        /* \"#utility.yul\":1575:1577   */\n      0x20\n        /* \"#utility.yul\":1601:1654   */\n      tag_142\n        /* \"#utility.yul\":1646:1653   */\n      dup6\n        /* \"#utility.yul\":1637:1643   */\n      dup3\n        /* \"#utility.yul\":1626:1635   */\n      dup7\n        /* \"#utility.yul\":1622:1644   */\n      add\n        /* \"#utility.yul\":1601:1654   */\n      tag_98\n      jump\t// in\n    tag_142:\n        /* \"#utility.yul\":1591:1654   */\n      swap2\n      pop\n        /* \"#utility.yul\":1546:1664   */\n      pop\n        /* \"#utility.yul\":1197:1671   */\n      swap3\n      pop\n      swap3\n      swap1\n      pop\n      jump\t// out\n        /* \"#utility.yul\":1677:1795   */\n    tag_99:\n        /* \"#utility.yul\":1764:1788   */\n      tag_144\n        /* \"#utility.yul\":1782:1787   */\n      dup2\n        /* \"#utility.yul\":1764:1788   */\n      tag_92\n      jump\t// in\n    tag_144:\n        /* \"#utility.yul\":1759:1762   */\n      dup3\n        /* \"#utility.yul\":1752:1789   */\n      mstore\n        /* \"#utility.yul\":1677:1795   */\n      pop\n      pop\n      jump\t// out\n        /* \"#utility.yul\":1801:2023   */\n    tag_11:\n        /* \"#utility.yul\":1894:1898   */\n      0x00\n        /* \"#utility.yul\":1932:1934   */\n      0x20\n        /* \"#utility.yul\":1921:1930   */\n      dup3\n        /* \"#utility.yul\":1917:1935   */\n      add\n        /* \"#utility.yul\":1909:1935   */\n      swap1\n      pop\n        /* \"#utility.yul\":1945:2016   */\n      tag_146\n        /* \"#utility.yul\":2013:2014   */\n      0x00\n        /* \"#utility.yul\":2002:2011   */\n      dup4\n        /* \"#utility.yul\":1998:2015   */\n      add\n        /* \"#utility.yul\":1989:1995   */\n      dup5\n        /* \"#utility.yul\":1945:2016   */\n      tag_99\n      jump\t// in\n    tag_146:\n        /* \"#utility.yul\":1801:2023   */\n      swap3\n      swap2\n      pop\n      pop\n      jump\t// out\n        /* \"#utility.yul\":2029:2358   */\n    tag_14:\n        /* \"#utility.yul\":2088:2094   */\n      0x00\n        /* \"#utility.yul\":2137:2139   */\n      0x20\n        /* \"#utility.yul\":2125:2134   */\n      dup3\n        /* \"#utility.yul\":2116:2123   */\n      dup5\n        /* \"#utility.yul\":2112:2135   */\n      sub\n        /* \"#utility.yul\":2108:2140   */\n      slt\n        /* \"#utility.yul\":2105:2224   */\n      iszero\n      tag_148\n      jumpi\n        /* \"#utility.yul\":2143:2222   */\n      tag_149\n      tag_90\n      jump\t// in\n    tag_149:\n        /* \"#utility.yul\":2105:2224   */\n    tag_148:\n        /* \"#utility.yul\":2263:2264   */\n      0x00\n        /* \"#utility.yul\":2288:2341   */\n      tag_150\n        /* \"#utility.yul\":2333:2340   */\n      dup5\n        /* \"#utility.yul\":2324:2330   */\n      dup3\n        /* \"#utility.yul\":2313:2322   */\n      dup6\n        /* \"#utility.yul\":2309:2331   */\n      add\n        /* \"#utility.yul\":2288:2341   */\n      tag_98\n      jump\t// in\n    tag_150:\n        /* \"#utility.yul\":2278:2341   */\n      swap2\n      pop\n        /* \"#utility.yul\":2234:2351   */\n      pop\n        /* \"#utility.yul\":2029:2358   */\n      swap3\n      swap2\n      pop\n      pop\n      jump\t// out\n        /* \"#utility.yul\":2364:2472   */\n    tag_100:\n        /* \"#utility.yul\":2441:2465   */\n      tag_152\n        /* \"#utility.yul\":2459:2464   */\n      dup2\n        /* \"#utility.yul\":2441:2465   */\n      tag_92\n      jump\t// in\n    tag_152:\n        /* \"#utility.yul\":2436:2439   */\n      dup3\n        /* \"#utility.yul\":2429:2466   */\n      mstore\n        /* \"#utility.yul\":2364:2472   */\n      pop\n      pop\n      jump\t// out\n        /* \"#utility.yul\":2478:2614   */\n    tag_101:\n        /* \"#utility.yul\":2567:2573   */\n      0x00\n        /* \"#utility.yul\":2601:2606   */\n      dup2\n        /* \"#utility.yul\":2595:2607   */\n      mload\n        /* \"#utility.yul\":2585:2607   */\n      swap1\n      pop\n        /* \"#utility.yul\":2478:2614   */\n      swap2\n      swap1\n      pop\n      jump\t// out\n        /* \"#utility.yul\":2620:2816   */\n    tag_102:\n        /* \"#utility.yul\":2731:2742   */\n      0x00\n        /* \"#utility.yul\":2765:2771   */\n      dup3\n        /* \"#utility.yul\":2760:2763   */\n      dup3\n        /* \"#utility.yul\":2753:2772   */\n      mstore\n        /* \"#utility.yul\":2805:2809   */\n      0x20\n        /* \"#utility.yul\":2800:2803   */\n      dup3\n        /* \"#utility.yul\":2796:2810   */\n      add\n        /* \"#utility.yul\":2781:2810   */\n      swap1\n      pop\n        /* \"#utility.yul\":2620:2816   */\n      swap3\n      swap2\n      pop\n      pop\n      jump\t// out\n        /* \"#utility.yul\":2822:2976   */\n    tag_103:\n        /* \"#utility.yul\":2911:2915   */\n      0x00\n        /* \"#utility.yul\":2934:2937   */\n      dup2\n        /* \"#utility.yul\":2926:2937   */\n      swap1\n      pop\n        /* \"#utility.yul\":2964:2968   */\n      0x20\n        /* \"#utility.yul\":2959:2962   */\n      dup3\n        /* \"#utility.yul\":2955:2969   */\n      add\n        /* \"#utility.yul\":2947:2969   */\n      swap1\n      pop\n        /* \"#utility.yul\":2822:2976   */\n      swap2\n      swap1\n      pop\n      jump\t// out\n        /* \"#utility.yul\":2982:3090   */\n    tag_104:\n        /* \"#utility.yul\":3059:3083   */\n      tag_157\n        /* \"#utility.yul\":3077:3082   */\n      dup2\n        /* \"#utility.yul\":3059:3083   */\n      tag_96\n      jump\t// in\n    tag_157:\n        /* \"#utility.yul\":3054:3057   */\n      dup3\n        /* \"#utility.yul\":3047:3084   */\n      mstore\n        /* \"#utility.yul\":2982:3090   */\n      pop\n      pop\n      jump\t// out\n        /* \"#utility.yul\":3150:4357   */\n    tag_105:\n        /* \"#utility.yul\":3281:3285   */\n      0xc0\n        /* \"#utility.yul\":3276:3279   */\n      dup3\n        /* \"#utility.yul\":3272:3286   */\n      add\n        /* \"#utility.yul\":3368:3372   */\n      0x00\n        /* \"#utility.yul\":3361:3366   */\n      dup3\n        /* \"#utility.yul\":3357:3373   */\n      add\n        /* \"#utility.yul\":3351:3374   */\n      mload\n        /* \"#utility.yul\":3387:3450   */\n      tag_159\n        /* \"#utility.yul\":3444:3448   */\n      0x00\n        /* \"#utility.yul\":3439:3442   */\n      dup6\n        /* \"#utility.yul\":3435:3449   */\n      add\n        /* \"#utility.yul\":3421:3433   */\n      dup3\n        /* \"#utility.yul\":3387:3450   */\n      tag_104\n      jump\t// in\n    tag_159:\n        /* \"#utility.yul\":3296:3460   */\n      pop\n        /* \"#utility.yul\":3544:3548   */\n      0x20\n        /* \"#utility.yul\":3537:3542   */\n      dup3\n        /* \"#utility.yul\":3533:3549   */\n      add\n        /* \"#utility.yul\":3527:3550   */\n      mload\n        /* \"#utility.yul\":3563:3626   */\n      tag_160\n        /* \"#utility.yul\":3620:3624   */\n      0x20\n        /* \"#utility.yul\":3615:3618   */\n      dup6\n        /* \"#utility.yul\":3611:3625   */\n      add\n        /* \"#utility.yul\":3597:3609   */\n      dup3\n        /* \"#utility.yul\":3563:3626   */\n      tag_100\n      jump\t// in\n    tag_160:\n        /* \"#utility.yul\":3470:3636   */\n      pop\n        /* \"#utility.yul\":3719:3723   */\n      0x40\n        /* \"#utility.yul\":3712:3717   */\n      dup3\n        /* \"#utility.yul\":3708:3724   */\n      add\n        /* \"#utility.yul\":3702:3725   */\n      mload\n        /* \"#utility.yul\":3738:3801   */\n      tag_161\n        /* \"#utility.yul\":3795:3799   */\n      0x40\n        /* \"#utility.yul\":3790:3793   */\n      dup6\n        /* \"#utility.yul\":3786:3800   */\n      add\n        /* \"#utility.yul\":3772:3784   */\n      dup3\n        /* \"#utility.yul\":3738:3801   */\n      tag_100\n      jump\t// in\n    tag_161:\n        /* \"#utility.yul\":3646:3811   */\n      pop\n        /* \"#utility.yul\":3898:3902   */\n      0x60\n        /* \"#utility.yul\":3891:3896   */\n      dup3\n        /* \"#utility.yul\":3887:3903   */\n      add\n        /* \"#utility.yul\":3881:3904   */\n      mload\n        /* \"#utility.yul\":3917:3980   */\n      tag_162\n        /* \"#utility.yul\":3974:3978   */\n      0x60\n        /* \"#utility.yul\":3969:3972   */\n      dup6\n        /* \"#utility.yul\":3965:3979   */\n      add\n        /* \"#utility.yul\":3951:3963   */\n      dup3\n        /* \"#utility.yul\":3917:3980   */\n      tag_100\n      jump\t// in\n    tag_162:\n        /* \"#utility.yul\":3821:3990   */\n      pop\n        /* \"#utility.yul\":4077:4081   */\n      0x80\n        /* \"#utility.yul\":4070:4075   */\n      dup3\n        /* \"#utility.yul\":4066:4082   */\n      add\n        /* \"#utility.yul\":4060:4083   */\n      mload\n        /* \"#utility.yul\":4096:4159   */\n      tag_163\n        /* \"#utility.yul\":4153:4157   */\n      0x80\n        /* \"#utility.yul\":4148:4151   */\n      dup6\n        /* \"#utility.yul\":4144:4158   */\n      add\n        /* \"#utility.yul\":4130:4142   */\n      dup3\n        /* \"#utility.yul\":4096:4159   */\n      tag_100\n      jump\t// in\n    tag_163:\n        /* \"#utility.yul\":4000:4169   */\n      pop\n        /* \"#utility.yul\":4258:4262   */\n      0xa0\n        /* \"#utility.yul\":4251:4256   */\n      dup3\n        /* \"#utility.yul\":4247:4263   */\n      add\n        /* \"#utility.yul\":4241:4264   */\n      mload\n        /* \"#utility.yul\":4277:4340   */\n      tag_164\n        /* \"#utility.yul\":4334:4338   */\n      0xa0\n        /* \"#utility.yul\":4329:4332   */\n      dup6\n        /* \"#utility.yul\":4325:4339   */\n      add\n        /* \"#utility.yul\":4311:4323   */\n      dup3\n        /* \"#utility.yul\":4277:4340   */\n      tag_100\n      jump\t// in\n    tag_164:\n        /* \"#utility.yul\":4179:4350   */\n      pop\n        /* \"#utility.yul\":3250:4357   */\n      pop\n        /* \"#utility.yul\":3150:4357   */\n      pop\n      pop\n      jump\t// out\n        /* \"#utility.yul\":4363:4630   */\n    tag_106:\n        /* \"#utility.yul\":4476:4486   */\n      0x00\n        /* \"#utility.yul\":4497:4587   */\n      tag_166\n        /* \"#utility.yul\":4583:4586   */\n      dup4\n        /* \"#utility.yul\":4575:4581   */\n      dup4\n        /* \"#utility.yul\":4497:4587   */\n      tag_105\n      jump\t// in\n    tag_166:\n        /* \"#utility.yul\":4619:4623   */\n      0xc0\n        /* \"#utility.yul\":4614:4617   */\n      dup4\n        /* \"#utility.yul\":4610:4624   */\n      add\n        /* \"#utility.yul\":4596:4624   */\n      swap1\n      pop\n        /* \"#utility.yul\":4363:4630   */\n      swap3\n      swap2\n      pop\n      pop\n      jump\t// out\n        /* \"#utility.yul\":4636:4771   */\n    tag_107:\n        /* \"#utility.yul\":4728:4732   */\n      0x00\n        /* \"#utility.yul\":4760:4764   */\n      0x20\n        /* \"#utility.yul\":4755:4758   */\n      dup3\n        /* \"#utility.yul\":4751:4765   */\n      add\n        /* \"#utility.yul\":4743:4765   */\n      swap1\n      pop\n        /* \"#utility.yul\":4636:4771   */\n      swap2\n      swap1\n      pop\n      jump\t// out\n        /* \"#utility.yul\":4835:5723   */\n    tag_108:\n        /* \"#utility.yul\":4988:4991   */\n      0x00\n        /* \"#utility.yul\":5017:5093   */\n      tag_169\n        /* \"#utility.yul\":5087:5092   */\n      dup3\n        /* \"#utility.yul\":5017:5093   */\n      tag_101\n      jump\t// in\n    tag_169:\n        /* \"#utility.yul\":5109:5207   */\n      tag_170\n        /* \"#utility.yul\":5200:5206   */\n      dup2\n        /* \"#utility.yul\":5195:5198   */\n      dup6\n        /* \"#utility.yul\":5109:5207   */\n      tag_102\n      jump\t// in\n    tag_170:\n        /* \"#utility.yul\":5102:5207   */\n      swap4\n      pop\n        /* \"#utility.yul\":5231:5309   */\n      tag_171\n        /* \"#utility.yul\":5303:5308   */\n      dup4\n        /* \"#utility.yul\":5231:5309   */\n      tag_103\n      jump\t// in\n    tag_171:\n        /* \"#utility.yul\":5332:5339   */\n      dup1\n        /* \"#utility.yul\":5363:5364   */\n      0x00\n        /* \"#utility.yul\":5348:5698   */\n    tag_172:\n        /* \"#utility.yul\":5373:5379   */\n      dup4\n        /* \"#utility.yul\":5370:5371   */\n      dup2\n        /* \"#utility.yul\":5367:5380   */\n      lt\n        /* \"#utility.yul\":5348:5698   */\n      iszero\n      tag_174\n      jumpi\n        /* \"#utility.yul\":5449:5455   */\n      dup2\n        /* \"#utility.yul\":5443:5456   */\n      mload\n        /* \"#utility.yul\":5476:5583   */\n      tag_175\n        /* \"#utility.yul\":5579:5582   */\n      dup9\n        /* \"#utility.yul\":5564:5577   */\n      dup3\n        /* \"#utility.yul\":5476:5583   */\n      tag_106\n      jump\t// in\n    tag_175:\n        /* \"#utility.yul\":5469:5583   */\n      swap8\n      pop\n        /* \"#utility.yul\":5606:5688   */\n      tag_176\n        /* \"#utility.yul\":5681:5687   */\n      dup4\n        /* \"#utility.yul\":5606:5688   */\n      tag_107\n      jump\t// in\n    tag_176:\n        /* \"#utility.yul\":5596:5688   */\n      swap3\n      pop\n        /* \"#utility.yul\":5408:5698   */\n      pop\n        /* \"#utility.yul\":5395:5396   */\n      0x01\n        /* \"#utility.yul\":5392:5393   */\n      dup2\n        /* \"#utility.yul\":5388:5397   */\n      add\n        /* \"#utility.yul\":5383:5397   */\n      swap1\n      pop\n        /* \"#utility.yul\":5348:5698   */\n      jump(tag_172)\n    tag_174:\n        /* \"#utility.yul\":5352:5366   */\n      pop\n        /* \"#utility.yul\":5714:5717   */\n      dup6\n        /* \"#utility.yul\":5707:5717   */\n      swap4\n      pop\n        /* \"#utility.yul\":4993:5723   */\n      pop\n      pop\n      pop\n        /* \"#utility.yul\":4835:5723   */\n      swap3\n      swap2\n      pop\n      pop\n      jump\t// out\n        /* \"#utility.yul\":5801:6503   */\n    tag_109:\n        /* \"#utility.yul\":5932:5935   */\n      0x00\n        /* \"#utility.yul\":5968:5972   */\n      0x40\n        /* \"#utility.yul\":5963:5966   */\n      dup4\n        /* \"#utility.yul\":5959:5973   */\n      add\n        /* \"#utility.yul\":6063:6067   */\n      0x00\n        /* \"#utility.yul\":6056:6061   */\n      dup4\n        /* \"#utility.yul\":6052:6068   */\n      add\n        /* \"#utility.yul\":6046:6069   */\n      mload\n        /* \"#utility.yul\":6082:6145   */\n      tag_178\n        /* \"#utility.yul\":6139:6143   */\n      0x00\n        /* \"#utility.yul\":6134:6137   */\n      dup7\n        /* \"#utility.yul\":6130:6144   */\n      add\n        /* \"#utility.yul\":6116:6128   */\n      dup3\n        /* \"#utility.yul\":6082:6145   */\n      tag_100\n      jump\t// in\n    tag_178:\n        /* \"#utility.yul\":5983:6155   */\n      pop\n        /* \"#utility.yul\":6239:6243   */\n      0x20\n        /* \"#utility.yul\":6232:6237   */\n      dup4\n        /* \"#utility.yul\":6228:6244   */\n      add\n        /* \"#utility.yul\":6222:6245   */\n      mload\n        /* \"#utility.yul\":6292:6295   */\n      dup5\n        /* \"#utility.yul\":6286:6290   */\n      dup3\n        /* \"#utility.yul\":6282:6296   */\n      sub\n        /* \"#utility.yul\":6275:6279   */\n      0x20\n        /* \"#utility.yul\":6270:6273   */\n      dup7\n        /* \"#utility.yul\":6266:6280   */\n      add\n        /* \"#utility.yul\":6259:6297   */\n      mstore\n        /* \"#utility.yul\":6318:6465   */\n      tag_179\n        /* \"#utility.yul\":6460:6464   */\n      dup3\n        /* \"#utility.yul\":6446:6458   */\n      dup3\n        /* \"#utility.yul\":6318:6465   */\n      tag_108\n      jump\t// in\n    tag_179:\n        /* \"#utility.yul\":6310:6465   */\n      swap2\n      pop\n        /* \"#utility.yul\":6165:6476   */\n      pop\n        /* \"#utility.yul\":6493:6497   */\n      dup1\n        /* \"#utility.yul\":6486:6497   */\n      swap2\n      pop\n        /* \"#utility.yul\":5937:6503   */\n      pop\n        /* \"#utility.yul\":5801:6503   */\n      swap3\n      swap2\n      pop\n      pop\n      jump\t// out\n        /* \"#utility.yul\":6509:6906   */\n    tag_17:\n        /* \"#utility.yul\":6664:6668   */\n      0x00\n        /* \"#utility.yul\":6702:6704   */\n      0x20\n        /* \"#utility.yul\":6691:6700   */\n      dup3\n        /* \"#utility.yul\":6687:6705   */\n      add\n        /* \"#utility.yul\":6679:6705   */\n      swap1\n      pop\n        /* \"#utility.yul\":6751:6760   */\n      dup2\n        /* \"#utility.yul\":6745:6749   */\n      dup2\n        /* \"#utility.yul\":6741:6761   */\n      sub\n        /* \"#utility.yul\":6737:6738   */\n      0x00\n        /* \"#utility.yul\":6726:6735   */\n      dup4\n        /* \"#utility.yul\":6722:6739   */\n      add\n        /* \"#utility.yul\":6715:6762   */\n      mstore\n        /* \"#utility.yul\":6779:6899   */\n      tag_181\n        /* \"#utility.yul\":6894:6898   */\n      dup2\n        /* \"#utility.yul\":6885:6891   */\n      dup5\n        /* \"#utility.yul\":6779:6899   */\n      tag_109\n      jump\t// in\n    tag_181:\n        /* \"#utility.yul\":6771:6899   */\n      swap1\n      pop\n        /* \"#utility.yul\":6509:6906   */\n      swap3\n      swap2\n      pop\n      pop\n      jump\t// out\n        /* \"#utility.yul\":6912:7092   */\n    tag_26:\n        /* \"#utility.yul\":6960:7037   */\n      0x4e487b7100000000000000000000000000000000000000000000000000000000\n        /* \"#utility.yul\":6957:6958   */\n      0x00\n        /* \"#utility.yul\":6950:7038   */\n      mstore\n        /* \"#utility.yul\":7057:7061   */\n      0x32\n        /* \"#utility.yul\":7054:7055   */\n      0x04\n        /* \"#utility.yul\":7047:7062   */\n      mstore\n        /* \"#utility.yul\":7081:7085   */\n      0x24\n        /* \"#utility.yul\":7078:7079   */\n      0x00\n        /* \"#utility.yul\":7071:7086   */\n      revert\n        /* \"#utility.yul\":7098:7278   */\n    tag_110:\n        /* \"#utility.yul\":7146:7223   */\n      0x4e487b7100000000000000000000000000000000000000000000000000000000\n        /* \"#utility.yul\":7143:7144   */\n      0x00\n        /* \"#utility.yul\":7136:7224   */\n      mstore\n        /* \"#utility.yul\":7243:7247   */\n      0x11\n        /* \"#utility.yul\":7240:7241   */\n      0x04\n        /* \"#utility.yul\":7233:7248   */\n      mstore\n        /* \"#utility.yul\":7267:7271   */\n      0x24\n        /* \"#utility.yul\":7264:7265   */\n      0x00\n        /* \"#utility.yul\":7257:7272   */\n      revert\n        /* \"#utility.yul\":7284:7475   */\n    tag_28:\n        /* \"#utility.yul\":7324:7328   */\n      0x00\n        /* \"#utility.yul\":7344:7364   */\n      tag_185\n        /* \"#utility.yul\":7362:7363   */\n      dup3\n        /* \"#utility.yul\":7344:7364   */\n      tag_92\n      jump\t// in\n    tag_185:\n        /* \"#utility.yul\":7339:7364   */\n      swap2\n      pop\n        /* \"#utility.yul\":7378:7398   */\n      tag_186\n        /* \"#utility.yul\":7396:7397   */\n      dup4\n        /* \"#utility.yul\":7378:7398   */\n      tag_92\n      jump\t// in\n    tag_186:\n        /* \"#utility.yul\":7373:7398   */\n      swap3\n      pop\n        /* \"#utility.yul\":7417:7418   */\n      dup3\n        /* \"#utility.yul\":7414:7415   */\n      dup3\n        /* \"#utility.yul\":7411:7419   */\n      lt\n        /* \"#utility.yul\":7408:7442   */\n      iszero\n      tag_187\n      jumpi\n        /* \"#utility.yul\":7422:7440   */\n      tag_188\n      tag_110\n      jump\t// in\n    tag_188:\n        /* \"#utility.yul\":7408:7442   */\n    tag_187:\n        /* \"#utility.yul\":7467:7468   */\n      dup3\n        /* \"#utility.yul\":7464:7465   */\n      dup3\n        /* \"#utility.yul\":7460:7469   */\n      sub\n        /* \"#utility.yul\":7452:7469   */\n      swap1\n      pop\n        /* \"#utility.yul\":7284:7475   */\n      swap3\n      swap2\n      pop\n      pop\n      jump\t// out\n        /* \"#utility.yul\":7481:7650   */\n    tag_111:\n        /* \"#utility.yul\":7565:7576   */\n      0x00\n        /* \"#utility.yul\":7599:7605   */\n      dup3\n        /* \"#utility.yul\":7594:7597   */\n      dup3\n        /* \"#utility.yul\":7587:7606   */\n      mstore\n        /* \"#utility.yul\":7639:7643   */\n      0x20\n        /* \"#utility.yul\":7634:7637   */\n      dup3\n        /* \"#utility.yul\":7630:7644   */\n      add\n        /* \"#utility.yul\":7615:7644   */\n      swap1\n      pop\n        /* \"#utility.yul\":7481:7650   */\n      swap3\n      swap2\n      pop\n      pop\n      jump\t// out\n        /* \"#utility.yul\":7656:7890   */\n    tag_112:\n        /* \"#utility.yul\":7796:7830   */\n      0x5374616b61626c653a2054686973206164647265737320646f6573206e6f7420\n        /* \"#utility.yul\":7792:7793   */\n      0x00\n        /* \"#utility.yul\":7784:7790   */\n      dup3\n        /* \"#utility.yul\":7780:7794   */\n      add\n        /* \"#utility.yul\":7773:7831   */\n      mstore\n        /* \"#utility.yul\":7865:7882   */\n      0x6861766520616e79207374616b65730000000000000000000000000000000000\n        /* \"#utility.yul\":7860:7862   */\n      0x20\n        /* \"#utility.yul\":7852:7858   */\n      dup3\n        /* \"#utility.yul\":7848:7863   */\n      add\n        /* \"#utility.yul\":7841:7883   */\n      mstore\n        /* \"#utility.yul\":7656:7890   */\n      pop\n      jump\t// out\n        /* \"#utility.yul\":7896:8262   */\n    tag_113:\n        /* \"#utility.yul\":8038:8041   */\n      0x00\n        /* \"#utility.yul\":8059:8126   */\n      tag_192\n        /* \"#utility.yul\":8123:8125   */\n      0x2f\n        /* \"#utility.yul\":8118:8121   */\n      dup4\n        /* \"#utility.yul\":8059:8126   */\n      tag_111\n      jump\t// in\n    tag_192:\n        /* \"#utility.yul\":8052:8126   */\n      swap2\n      pop\n        /* \"#utility.yul\":8135:8228   */\n      tag_193\n        /* \"#utility.yul\":8224:8227   */\n      dup3\n        /* \"#utility.yul\":8135:8228   */\n      tag_112\n      jump\t// in\n    tag_193:\n        /* \"#utility.yul\":8253:8255   */\n      0x40\n        /* \"#utility.yul\":8248:8251   */\n      dup3\n        /* \"#utility.yul\":8244:8256   */\n      add\n        /* \"#utility.yul\":8237:8256   */\n      swap1\n      pop\n        /* \"#utility.yul\":7896:8262   */\n      swap2\n      swap1\n      pop\n      jump\t// out\n        /* \"#utility.yul\":8268:8687   */\n    tag_48:\n        /* \"#utility.yul\":8434:8438   */\n      0x00\n        /* \"#utility.yul\":8472:8474   */\n      0x20\n        /* \"#utility.yul\":8461:8470   */\n      dup3\n        /* \"#utility.yul\":8457:8475   */\n      add\n        /* \"#utility.yul\":8449:8475   */\n      swap1\n      pop\n        /* \"#utility.yul\":8521:8530   */\n      dup2\n        /* \"#utility.yul\":8515:8519   */\n      dup2\n        /* \"#utility.yul\":8511:8531   */\n      sub\n        /* \"#utility.yul\":8507:8508   */\n      0x00\n        /* \"#utility.yul\":8496:8505   */\n      dup4\n        /* \"#utility.yul\":8492:8509   */\n      add\n        /* \"#utility.yul\":8485:8532   */\n      mstore\n        /* \"#utility.yul\":8549:8680   */\n      tag_195\n        /* \"#utility.yul\":8675:8679   */\n      dup2\n        /* \"#utility.yul\":8549:8680   */\n      tag_113\n      jump\t// in\n    tag_195:\n        /* \"#utility.yul\":8541:8680   */\n      swap1\n      pop\n        /* \"#utility.yul\":8268:8687   */\n      swap2\n      swap1\n      pop\n      jump\t// out\n        /* \"#utility.yul\":8693:8998   */\n    tag_63:\n        /* \"#utility.yul\":8733:8736   */\n      0x00\n        /* \"#utility.yul\":8752:8772   */\n      tag_197\n        /* \"#utility.yul\":8770:8771   */\n      dup3\n        /* \"#utility.yul\":8752:8772   */\n      tag_92\n      jump\t// in\n    tag_197:\n        /* \"#utility.yul\":8747:8772   */\n      swap2\n      pop\n        /* \"#utility.yul\":8786:8806   */\n      tag_198\n        /* \"#utility.yul\":8804:8805   */\n      dup4\n        /* \"#utility.yul\":8786:8806   */\n      tag_92\n      jump\t// in\n    tag_198:\n        /* \"#utility.yul\":8781:8806   */\n      swap3\n      pop\n        /* \"#utility.yul\":8940:8941   */\n      dup3\n        /* \"#utility.yul\":8872:8938   */\n      0xffffffffffffffffffffffffffffffffffffffffffffffffffffffffffffffff\n        /* \"#utility.yul\":8868:8942   */\n      sub\n        /* \"#utility.yul\":8865:8866   */\n      dup3\n        /* \"#utility.yul\":8862:8943   */\n      gt\n        /* \"#utility.yul\":8859:8966   */\n      iszero\n      tag_199\n      jumpi\n        /* \"#utility.yul\":8946:8964   */\n      tag_200\n      tag_110\n      jump\t// in\n    tag_200:\n        /* \"#utility.yul\":8859:8966   */\n    tag_199:\n        /* \"#utility.yul\":8990:8991   */\n      dup3\n        /* \"#utility.yul\":8987:8988   */\n      dup3\n        /* \"#utility.yul\":8983:8992   */\n      add\n        /* \"#utility.yul\":8976:8992   */\n      swap1\n      pop\n        /* \"#utility.yul\":8693:8998   */\n      swap3\n      swap2\n      pop\n      pop\n      jump\t// out\n        /* \"#utility.yul\":9004:9352   */\n    tag_70:\n        /* \"#utility.yul\":9044:9051   */\n      0x00\n        /* \"#utility.yul\":9067:9087   */\n      tag_202\n        /* \"#utility.yul\":9085:9086   */\n      dup3\n        /* \"#utility.yul\":9067:9087   */\n      tag_92\n      jump\t// in\n    tag_202:\n        /* \"#utility.yul\":9062:9087   */\n      swap2\n      pop\n        /* \"#utility.yul\":9101:9121   */\n      tag_203\n        /* \"#utility.yul\":9119:9120   */\n      dup4\n        /* \"#utility.yul\":9101:9121   */\n      tag_92\n      jump\t// in\n    tag_203:\n        /* \"#utility.yul\":9096:9121   */\n      swap3\n      pop\n        /* \"#utility.yul\":9289:9290   */\n      dup2\n        /* \"#utility.yul\":9221:9287   */\n      0xffffffffffffffffffffffffffffffffffffffffffffffffffffffffffffffff\n        /* \"#utility.yul\":9217:9291   */\n      div\n        /* \"#utility.yul\":9214:9215   */\n      dup4\n        /* \"#utility.yul\":9211:9292   */\n      gt\n        /* \"#utility.yul\":9206:9207   */\n      dup3\n        /* \"#utility.yul\":9199:9208   */\n      iszero\n        /* \"#utility.yul\":9192:9209   */\n      iszero\n        /* \"#utility.yul\":9188:9293   */\n      and\n        /* \"#utility.yul\":9185:9316   */\n      iszero\n      tag_204\n      jumpi\n        /* \"#utility.yul\":9296:9314   */\n      tag_205\n      tag_110\n      jump\t// in\n    tag_205:\n        /* \"#utility.yul\":9185:9316   */\n    tag_204:\n        /* \"#utility.yul\":9344:9345   */\n      dup3\n        /* \"#utility.yul\":9341:9342   */\n      dup3\n        /* \"#utility.yul\":9337:9346   */\n      mul\n        /* \"#utility.yul\":9326:9346   */\n      swap1\n      pop\n        /* \"#utility.yul\":9004:9352   */\n      swap3\n      swap2\n      pop\n      pop\n      jump\t// out\n        /* \"#utility.yul\":9358:9538   */\n    tag_88:\n        /* \"#utility.yul\":9406:9483   */\n      0x4e487b7100000000000000000000000000000000000000000000000000000000\n        /* \"#utility.yul\":9403:9404   */\n      0x00\n        /* \"#utility.yul\":9396:9484   */\n      mstore\n        /* \"#utility.yul\":9503:9507   */\n      0x12\n        /* \"#utility.yul\":9500:9501   */\n      0x04\n        /* \"#utility.yul\":9493:9508   */\n      mstore\n        /* \"#utility.yul\":9527:9531   */\n      0x24\n        /* \"#utility.yul\":9524:9525   */\n      0x00\n        /* \"#utility.yul\":9517:9532   */\n      revert\n        /* \"#utility.yul\":9544:9729   */\n    tag_73:\n        /* \"#utility.yul\":9584:9585   */\n      0x00\n        /* \"#utility.yul\":9601:9621   */\n      tag_208\n        /* \"#utility.yul\":9619:9620   */\n      dup3\n        /* \"#utility.yul\":9601:9621   */\n      tag_92\n      jump\t// in\n    tag_208:\n        /* \"#utility.yul\":9596:9621   */\n      swap2\n      pop\n        /* \"#utility.yul\":9635:9655   */\n      tag_209\n        /* \"#utility.yul\":9653:9654   */\n      dup4\n        /* \"#utility.yul\":9635:9655   */\n      tag_92\n      jump\t// in\n    tag_209:\n        /* \"#utility.yul\":9630:9655   */\n      swap3\n      pop\n        /* \"#utility.yul\":9674:9675   */\n      dup3\n        /* \"#utility.yul\":9664:9699   */\n      tag_210\n      jumpi\n        /* \"#utility.yul\":9679:9697   */\n      tag_211\n      tag_88\n      jump\t// in\n    tag_211:\n        /* \"#utility.yul\":9664:9699   */\n    tag_210:\n        /* \"#utility.yul\":9721:9722   */\n      dup3\n        /* \"#utility.yul\":9718:9719   */\n      dup3\n        /* \"#utility.yul\":9714:9723   */\n      div\n        /* \"#utility.yul\":9709:9723   */\n      swap1\n      pop\n        /* \"#utility.yul\":9544:9729   */\n      swap3\n      swap2\n      pop\n      pop\n      jump\t// out\n        /* \"#utility.yul\":9735:9912   */\n    tag_114:\n        /* \"#utility.yul\":9875:9904   */\n      0x5374616b61626c653a204572726f722074696d657374616d7020300000000000\n        /* \"#utility.yul\":9871:9872   */\n      0x00\n        /* \"#utility.yul\":9863:9869   */\n      dup3\n        /* \"#utility.yul\":9859:9873   */\n      add\n        /* \"#utility.yul\":9852:9905   */\n      mstore\n        /* \"#utility.yul\":9735:9912   */\n      pop\n      jump\t// out\n        /* \"#utility.yul\":9918:10284   */\n    tag_115:\n        /* \"#utility.yul\":10060:10063   */\n      0x00\n        /* \"#utility.yul\":10081:10148   */\n      tag_214\n        /* \"#utility.yul\":10145:10147   */\n      0x1b\n        /* \"#utility.yul\":10140:10143   */\n      dup4\n        /* \"#utility.yul\":10081:10148   */\n      tag_111\n      jump\t// in\n    tag_214:\n        /* \"#utility.yul\":10074:10148   */\n      swap2\n      pop\n        /* \"#utility.yul\":10157:10250   */\n      tag_215\n        /* \"#utility.yul\":10246:10249   */\n      dup3\n        /* \"#utility.yul\":10157:10250   */\n      tag_114\n      jump\t// in\n    tag_215:\n        /* \"#utility.yul\":10275:10277   */\n      0x20\n        /* \"#utility.yul\":10270:10273   */\n      dup3\n        /* \"#utility.yul\":10266:10278   */\n      add\n        /* \"#utility.yul\":10259:10278   */\n      swap1\n      pop\n        /* \"#utility.yul\":9918:10284   */\n      swap2\n      swap1\n      pop\n      jump\t// out\n        /* \"#utility.yul\":10290:10709   */\n    tag_77:\n        /* \"#utility.yul\":10456:10460   */\n      0x00\n        /* \"#utility.yul\":10494:10496   */\n      0x20\n        /* \"#utility.yul\":10483:10492   */\n      dup3\n        /* \"#utility.yul\":10479:10497   */\n      add\n        /* \"#utility.yul\":10471:10497   */\n      swap1\n      pop\n        /* \"#utility.yul\":10543:10552   */\n      dup2\n        /* \"#utility.yul\":10537:10541   */\n      dup2\n        /* \"#utility.yul\":10533:10553   */\n      sub\n        /* \"#utility.yul\":10529:10530   */\n      0x00\n        /* \"#utility.yul\":10518:10527   */\n      dup4\n        /* \"#utility.yul\":10514:10531   */\n      add\n        /* \"#utility.yul\":10507:10554   */\n      mstore\n        /* \"#utility.yul\":10571:10702   */\n      tag_217\n        /* \"#utility.yul\":10697:10701   */\n      dup2\n        /* \"#utility.yul\":10571:10702   */\n      tag_115\n      jump\t// in\n    tag_217:\n        /* \"#utility.yul\":10563:10702   */\n      swap1\n      pop\n        /* \"#utility.yul\":10290:10709   */\n      swap2\n      swap1\n      pop\n      jump\t// out\n        /* \"#utility.yul\":10715:10814   */\n    tag_116:\n        /* \"#utility.yul\":10767:10773   */\n      0x00\n        /* \"#utility.yul\":10801:10806   */\n      dup2\n        /* \"#utility.yul\":10795:10807   */\n      mload\n        /* \"#utility.yul\":10785:10807   */\n      swap1\n      pop\n        /* \"#utility.yul\":10715:10814   */\n      swap2\n      swap1\n      pop\n      jump\t// out\n        /* \"#utility.yul\":10820:11127   */\n    tag_117:\n        /* \"#utility.yul\":10888:10889   */\n      0x00\n        /* \"#utility.yul\":10898:11011   */\n    tag_220:\n        /* \"#utility.yul\":10912:10918   */\n      dup4\n        /* \"#utility.yul\":10909:10910   */\n      dup2\n        /* \"#utility.yul\":10906:10919   */\n      lt\n        /* \"#utility.yul\":10898:11011   */\n      iszero\n      tag_222\n      jumpi\n        /* \"#utility.yul\":10997:10998   */\n      dup1\n        /* \"#utility.yul\":10992:10995   */\n      dup3\n        /* \"#utility.yul\":10988:10999   */\n      add\n        /* \"#utility.yul\":10982:11000   */\n      mload\n        /* \"#utility.yul\":10978:10979   */\n      dup2\n        /* \"#utility.yul\":10973:10976   */\n      dup5\n        /* \"#utility.yul\":10969:10980   */\n      add\n        /* \"#utility.yul\":10962:11001   */\n      mstore\n        /* \"#utility.yul\":10934:10936   */\n      0x20\n        /* \"#utility.yul\":10931:10932   */\n      dup2\n        /* \"#utility.yul\":10927:10937   */\n      add\n        /* \"#utility.yul\":10922:10937   */\n      swap1\n      pop\n        /* \"#utility.yul\":10898:11011   */\n      jump(tag_220)\n    tag_222:\n        /* \"#utility.yul\":11029:11035   */\n      dup4\n        /* \"#utility.yul\":11026:11027   */\n      dup2\n        /* \"#utility.yul\":11023:11036   */\n      gt\n        /* \"#utility.yul\":11020:11121   */\n      iszero\n      tag_223\n      jumpi\n        /* \"#utility.yul\":11109:11110   */\n      0x00\n        /* \"#utility.yul\":11100:11106   */\n      dup5\n        /* \"#utility.yul\":11095:11098   */\n      dup5\n        /* \"#utility.yul\":11091:11107   */\n      add\n        /* \"#utility.yul\":11084:11111   */\n      mstore\n        /* \"#utility.yul\":11020:11121   */\n    tag_223:\n        /* \"#utility.yul\":10869:11127   */\n      pop\n        /* \"#utility.yul\":10820:11127   */\n      pop\n      pop\n      pop\n      jump\t// out\n        /* \"#utility.yul\":11133:11235   */\n    tag_118:\n        /* \"#utility.yul\":11174:11180   */\n      0x00\n        /* \"#utility.yul\":11225:11227   */\n      0x1f\n        /* \"#utility.yul\":11221:11228   */\n      not\n        /* \"#utility.yul\":11216:11218   */\n      0x1f\n        /* \"#utility.yul\":11209:11214   */\n      dup4\n        /* \"#utility.yul\":11205:11219   */\n      add\n        /* \"#utility.yul\":11201:11229   */\n      and\n        /* \"#utility.yul\":11191:11229   */\n      swap1\n      pop\n        /* \"#utility.yul\":11133:11235   */\n      swap2\n      swap1\n      pop\n      jump\t// out\n        /* \"#utility.yul\":11241:11605   */\n    tag_119:\n        /* \"#utility.yul\":11329:11332   */\n      0x00\n        /* \"#utility.yul\":11357:11396   */\n      tag_226\n        /* \"#utility.yul\":11390:11395   */\n      dup3\n        /* \"#utility.yul\":11357:11396   */\n      tag_116\n      jump\t// in\n    tag_226:\n        /* \"#utility.yul\":11412:11483   */\n      tag_227\n        /* \"#utility.yul\":11476:11482   */\n      dup2\n        /* \"#utility.yul\":11471:11474   */\n      dup6\n        /* \"#utility.yul\":11412:11483   */\n      tag_111\n      jump\t// in\n    tag_227:\n        /* \"#utility.yul\":11405:11483   */\n      swap4\n      pop\n        /* \"#utility.yul\":11492:11544   */\n      tag_228\n        /* \"#utility.yul\":11537:11543   */\n      dup2\n        /* \"#utility.yul\":11532:11535   */\n      dup6\n        /* \"#utility.yul\":11525:11529   */\n      0x20\n        /* \"#utility.yul\":11518:11523   */\n      dup7\n        /* \"#utility.yul\":11514:11530   */\n      add\n        /* \"#utility.yul\":11492:11544   */\n      tag_117\n      jump\t// in\n    tag_228:\n        /* \"#utility.yul\":11569:11598   */\n      tag_229\n        /* \"#utility.yul\":11591:11597   */\n      dup2\n        /* \"#utility.yul\":11569:11598   */\n      tag_118\n      jump\t// in\n    tag_229:\n        /* \"#utility.yul\":11564:11567   */\n      dup5\n        /* \"#utility.yul\":11560:11599   */\n      add\n        /* \"#utility.yul\":11553:11599   */\n      swap2\n      pop\n        /* \"#utility.yul\":11333:11605   */\n      pop\n        /* \"#utility.yul\":11241:11605   */\n      swap3\n      swap2\n      pop\n      pop\n      jump\t// out\n        /* \"#utility.yul\":11611:11924   */\n    tag_85:\n        /* \"#utility.yul\":11724:11728   */\n      0x00\n        /* \"#utility.yul\":11762:11764   */\n      0x20\n        /* \"#utility.yul\":11751:11760   */\n      dup3\n        /* \"#utility.yul\":11747:11765   */\n      add\n        /* \"#utility.yul\":11739:11765   */\n      swap1\n      pop\n        /* \"#utility.yul\":11811:11820   */\n      dup2\n        /* \"#utility.yul\":11805:11809   */\n      dup2\n        /* \"#utility.yul\":11801:11821   */\n      sub\n        /* \"#utility.yul\":11797:11798   */\n      0x00\n        /* \"#utility.yul\":11786:11795   */\n      dup4\n        /* \"#utility.yul\":11782:11799   */\n      add\n        /* \"#utility.yul\":11775:11822   */\n      mstore\n        /* \"#utility.yul\":11839:11917   */\n      tag_231\n        /* \"#utility.yul\":11912:11916   */\n      dup2\n        /* \"#utility.yul\":11903:11909   */\n      dup5\n        /* \"#utility.yul\":11839:11917   */\n      tag_119\n      jump\t// in\n    tag_231:\n        /* \"#utility.yul\":11831:11917   */\n      swap1\n      pop\n        /* \"#utility.yul\":11611:11924   */\n      swap3\n      swap2\n      pop\n      pop\n      jump\t// out\n    stop\n    data_10b867070097d898ae15cd1bc384e389b4a7d91f05c0759c198c193c7fd91787 5374616b61626c653a204572726f722063616e6e6f74206469766964652074696d657374616d70\n\n    auxdata: 0xa264697066735822122030133e81ad8a9aeb64115a9fd3276d7a3f598f28b40afab9122eb79b8a4d6dcf64736f6c634300080b0033\n}\n",
				"bytecode": {
					"linkReferences": {},
					"object": "608060405234801561001057600080fd5b50604051610de1380380610de183398181016040528101906100329190610097565b600180816001815401808255809150500390600052602060002090505080600081905550506100c4565b600080fd5b6000819050919050565b61007481610061565b811461007f57600080fd5b50565b6000815190506100918161006b565b92915050565b6000602082840312156100ad576100ac61005c565b5b60006100bb84828501610082565b91505092915050565b610d0e806100d36000396000f3fe608060405234801561001057600080fd5b50600436106100415760003560e01c80633892010214610046578063b09d4b4e14610076578063e73e14bf146100a6575b600080fd5b610060600480360381019061005b9190610718565b6100d6565b60405161006d9190610767565b60405180910390f35b610090600480360381019061008b9190610782565b61011b565b60405161009d9190610934565b60405180910390f35b6100c060048036038101906100bb9190610782565b610287565b6040516100cd9190610934565b60405180910390f35b6000806100e28361011b565b9050806020015184815181106100fb576100fa610956565b5b6020026020010151604001514261011291906109b4565b91505092915050565b610123610665565b60006040518060400160405280600081526020016001600260008773ffffffffffffffffffffffffffffffffffffffff1673ffffffffffffffffffffffffffffffffffffffff168152602001908152602001600020548154811061018a57610189610956565b5b9060005260206000209060020201600101805480602002602001604051908101604052809291908181526020016000905b8282101561027557838290600052602060002090600602016040518060c00160405290816000820160009054906101000a900473ffffffffffffffffffffffffffffffffffffffff1673ffffffffffffffffffffffffffffffffffffffff1673ffffffffffffffffffffffffffffffffffffffff16815260200160018201548152602001600282015481526020016003820154815260200160048201548152602001600582015481525050815260200190600101906101bb565b50505050815250905080915050919050565b61028f610665565b6000806040518060400160405280600081526020016001600260008873ffffffffffffffffffffffffffffffffffffffff1673ffffffffffffffffffffffffffffffffffffffff16815260200190815260200160002054815481106102f7576102f6610956565b5b9060005260206000209060020201600101805480602002602001604051908101604052809291908181526020016000905b828210156103e257838290600052602060002090600602016040518060c00160405290816000820160009054906101000a900473ffffffffffffffffffffffffffffffffffffffff1673ffffffffffffffffffffffffffffffffffffffff1673ffffffffffffffffffffffffffffffffffffffff1681526020016001820154815260200160028201548152602001600382015481526020016004820154815260200160058201548152505081526020019060010190610328565b50505050815250905060008160200151511415610434576040517f08c379a000000000000000000000000000000000000000000000000000000000815260040161042b90610a6b565b60405180910390fd5b60005b8160200151518110156104ff576000610490836020015183815181106104605761045f610956565b5b60200260200101518460200151848151811061047f5761047e610956565b5b602002602001015160200151610514565b905080836020015183815181106104aa576104a9610956565b5b60200260200101516060018181525050826020015182815181106104d1576104d0610956565b5b602002602001015160200151846104e89190610a8b565b9350506001816104f89190610a8b565b9050610437565b50818160000181815250508092505050919050565b6000808360200151141561052b576000905061056b565b6a52b7d2dcc80cd2e40000006105448460400151610571565b8460800151846105549190610ae1565b61055e9190610ae1565b6105689190610b6a565b90505b92915050565b60008082116105b5576040517f08c379a00000000000000000000000000000000000000000000000000000000081526004016105ac90610be7565b60405180910390fd5b6105fc69d3c21bcecceda100000083426105cf91906109b4565b6105d99190610ae1565b6301e13380604051806060016040528060278152602001610cb260279139610603565b9050919050565b6000808311829061064a576040517f08c379a00000000000000000000000000000000000000000000000000000000081526004016106419190610c8f565b60405180910390fd5b5082848161065b5761065a610b3b565b5b0490509392505050565b604051806040016040528060008152602001606081525090565b600080fd5b6000819050919050565b61069781610684565b81146106a257600080fd5b50565b6000813590506106b48161068e565b92915050565b600073ffffffffffffffffffffffffffffffffffffffff82169050919050565b60006106e5826106ba565b9050919050565b6106f5816106da565b811461070057600080fd5b50565b600081359050610712816106ec565b92915050565b6000806040838503121561072f5761072e61067f565b5b600061073d858286016106a5565b925050602061074e85828601610703565b9150509250929050565b61076181610684565b82525050565b600060208201905061077c6000830184610758565b92915050565b6000602082840312156107985761079761067f565b5b60006107a684828501610703565b91505092915050565b6107b881610684565b82525050565b600081519050919050565b600082825260208201905092915050565b6000819050602082019050919050565b6107f3816106da565b82525050565b60c08201600082015161080f60008501826107ea565b50602082015161082260208501826107af565b50604082015161083560408501826107af565b50606082015161084860608501826107af565b50608082015161085b60808501826107af565b5060a082015161086e60a08501826107af565b50505050565b600061088083836107f9565b60c08301905092915050565b6000602082019050919050565b60006108a4826107be565b6108ae81856107c9565b93506108b9836107da565b8060005b838110156108ea5781516108d18882610874565b97506108dc8361088c565b9250506001810190506108bd565b5085935050505092915050565b600060408301600083015161090f60008601826107af565b50602083015184820360208601526109278282610899565b9150508091505092915050565b6000602082019050818103600083015261094e81846108f7565b905092915050565b7f4e487b7100000000000000000000000000000000000000000000000000000000600052603260045260246000fd5b7f4e487b7100000000000000000000000000000000000000000000000000000000600052601160045260246000fd5b60006109bf82610684565b91506109ca83610684565b9250828210156109dd576109dc610985565b5b828203905092915050565b600082825260208201905092915050565b7f5374616b61626c653a2054686973206164647265737320646f6573206e6f742060008201527f6861766520616e79207374616b65730000000000000000000000000000000000602082015250565b6000610a55602f836109e8565b9150610a60826109f9565b604082019050919050565b60006020820190508181036000830152610a8481610a48565b9050919050565b6000610a9682610684565b9150610aa183610684565b9250827fffffffffffffffffffffffffffffffffffffffffffffffffffffffffffffffff03821115610ad657610ad5610985565b5b828201905092915050565b6000610aec82610684565b9150610af783610684565b9250817fffffffffffffffffffffffffffffffffffffffffffffffffffffffffffffffff0483118215151615610b3057610b2f610985565b5b828202905092915050565b7f4e487b7100000000000000000000000000000000000000000000000000000000600052601260045260246000fd5b6000610b7582610684565b9150610b8083610684565b925082610b9057610b8f610b3b565b5b828204905092915050565b7f5374616b61626c653a204572726f722074696d657374616d7020300000000000600082015250565b6000610bd1601b836109e8565b9150610bdc82610b9b565b602082019050919050565b60006020820190508181036000830152610c0081610bc4565b9050919050565b600081519050919050565b60005b83811015610c30578082015181840152602081019050610c15565b83811115610c3f576000848401525b50505050565b6000601f19601f8301169050919050565b6000610c6182610c07565b610c6b81856109e8565b9350610c7b818560208601610c12565b610c8481610c45565b840191505092915050565b60006020820190508181036000830152610ca98184610c56565b90509291505056fe5374616b61626c653a204572726f722063616e6e6f74206469766964652074696d657374616d70a264697066735822122030133e81ad8a9aeb64115a9fd3276d7a3f598f28b40afab9122eb79b8a4d6dcf64736f6c634300080b0033",
					"opcodes": "PUSH1 0x80 PUSH1 0x40 MSTORE CALLVALUE DUP1 ISZERO PUSH2 0x10 JUMPI PUSH1 0x0 DUP1 REVERT JUMPDEST POP PUSH1 0x40 MLOAD PUSH2 0xDE1 CODESIZE SUB DUP1 PUSH2 0xDE1 DUP4 CODECOPY DUP2 DUP2 ADD PUSH1 0x40 MSTORE DUP2 ADD SWAP1 PUSH2 0x32 SWAP2 SWAP1 PUSH2 0x97 JUMP JUMPDEST PUSH1 0x1 DUP1 DUP2 PUSH1 0x1 DUP2 SLOAD ADD DUP1 DUP3 SSTORE DUP1 SWAP2 POP POP SUB SWAP1 PUSH1 0x0 MSTORE PUSH1 0x20 PUSH1 0x0 KECCAK256 SWAP1 POP POP DUP1 PUSH1 0x0 DUP2 SWAP1 SSTORE POP POP PUSH2 0xC4 JUMP JUMPDEST PUSH1 0x0 DUP1 REVERT JUMPDEST PUSH1 0x0 DUP2 SWAP1 POP SWAP2 SWAP1 POP JUMP JUMPDEST PUSH2 0x74 DUP2 PUSH2 0x61 JUMP JUMPDEST DUP2 EQ PUSH2 0x7F JUMPI PUSH1 0x0 DUP1 REVERT JUMPDEST POP JUMP JUMPDEST PUSH1 0x0 DUP2 MLOAD SWAP1 POP PUSH2 0x91 DUP2 PUSH2 0x6B JUMP JUMPDEST SWAP3 SWAP2 POP POP JUMP JUMPDEST PUSH1 0x0 PUSH1 0x20 DUP3 DUP5 SUB SLT ISZERO PUSH2 0xAD JUMPI PUSH2 0xAC PUSH2 0x5C JUMP JUMPDEST JUMPDEST PUSH1 0x0 PUSH2 0xBB DUP5 DUP3 DUP6 ADD PUSH2 0x82 JUMP JUMPDEST SWAP2 POP POP SWAP3 SWAP2 POP POP JUMP JUMPDEST PUSH2 0xD0E DUP1 PUSH2 0xD3 PUSH1 0x0 CODECOPY PUSH1 0x0 RETURN INVALID PUSH1 0x80 PUSH1 0x40 MSTORE CALLVALUE DUP1 ISZERO PUSH2 0x10 JUMPI PUSH1 0x0 DUP1 REVERT JUMPDEST POP PUSH1 0x4 CALLDATASIZE LT PUSH2 0x41 JUMPI PUSH1 0x0 CALLDATALOAD PUSH1 0xE0 SHR DUP1 PUSH4 0x38920102 EQ PUSH2 0x46 JUMPI DUP1 PUSH4 0xB09D4B4E EQ PUSH2 0x76 JUMPI DUP1 PUSH4 0xE73E14BF EQ PUSH2 0xA6 JUMPI JUMPDEST PUSH1 0x0 DUP1 REVERT JUMPDEST PUSH2 0x60 PUSH1 0x4 DUP1 CALLDATASIZE SUB DUP2 ADD SWAP1 PUSH2 0x5B SWAP2 SWAP1 PUSH2 0x718 JUMP JUMPDEST PUSH2 0xD6 JUMP JUMPDEST PUSH1 0x40 MLOAD PUSH2 0x6D SWAP2 SWAP1 PUSH2 0x767 JUMP JUMPDEST PUSH1 0x40 MLOAD DUP1 SWAP2 SUB SWAP1 RETURN JUMPDEST PUSH2 0x90 PUSH1 0x4 DUP1 CALLDATASIZE SUB DUP2 ADD SWAP1 PUSH2 0x8B SWAP2 SWAP1 PUSH2 0x782 JUMP JUMPDEST PUSH2 0x11B JUMP JUMPDEST PUSH1 0x40 MLOAD PUSH2 0x9D SWAP2 SWAP1 PUSH2 0x934 JUMP JUMPDEST PUSH1 0x40 MLOAD DUP1 SWAP2 SUB SWAP1 RETURN JUMPDEST PUSH2 0xC0 PUSH1 0x4 DUP1 CALLDATASIZE SUB DUP2 ADD SWAP1 PUSH2 0xBB SWAP2 SWAP1 PUSH2 0x782 JUMP JUMPDEST PUSH2 0x287 JUMP JUMPDEST PUSH1 0x40 MLOAD PUSH2 0xCD SWAP2 SWAP1 PUSH2 0x934 JUMP JUMPDEST PUSH1 0x40 MLOAD DUP1 SWAP2 SUB SWAP1 RETURN JUMPDEST PUSH1 0x0 DUP1 PUSH2 0xE2 DUP4 PUSH2 0x11B JUMP JUMPDEST SWAP1 POP DUP1 PUSH1 0x20 ADD MLOAD DUP5 DUP2 MLOAD DUP2 LT PUSH2 0xFB JUMPI PUSH2 0xFA PUSH2 0x956 JUMP JUMPDEST JUMPDEST PUSH1 0x20 MUL PUSH1 0x20 ADD ADD MLOAD PUSH1 0x40 ADD MLOAD TIMESTAMP PUSH2 0x112 SWAP2 SWAP1 PUSH2 0x9B4 JUMP JUMPDEST SWAP2 POP POP SWAP3 SWAP2 POP POP JUMP JUMPDEST PUSH2 0x123 PUSH2 0x665 JUMP JUMPDEST PUSH1 0x0 PUSH1 0x40 MLOAD DUP1 PUSH1 0x40 ADD PUSH1 0x40 MSTORE DUP1 PUSH1 0x0 DUP2 MSTORE PUSH1 0x20 ADD PUSH1 0x1 PUSH1 0x2 PUSH1 0x0 DUP8 PUSH20 0xFFFFFFFFFFFFFFFFFFFFFFFFFFFFFFFFFFFFFFFF AND PUSH20 0xFFFFFFFFFFFFFFFFFFFFFFFFFFFFFFFFFFFFFFFF AND DUP2 MSTORE PUSH1 0x20 ADD SWAP1 DUP2 MSTORE PUSH1 0x20 ADD PUSH1 0x0 KECCAK256 SLOAD DUP2 SLOAD DUP2 LT PUSH2 0x18A JUMPI PUSH2 0x189 PUSH2 0x956 JUMP JUMPDEST JUMPDEST SWAP1 PUSH1 0x0 MSTORE PUSH1 0x20 PUSH1 0x0 KECCAK256 SWAP1 PUSH1 0x2 MUL ADD PUSH1 0x1 ADD DUP1 SLOAD DUP1 PUSH1 0x20 MUL PUSH1 0x20 ADD PUSH1 0x40 MLOAD SWAP1 DUP2 ADD PUSH1 0x40 MSTORE DUP1 SWAP3 SWAP2 SWAP1 DUP2 DUP2 MSTORE PUSH1 0x20 ADD PUSH1 0x0 SWAP1 JUMPDEST DUP3 DUP3 LT ISZERO PUSH2 0x275 JUMPI DUP4 DUP3 SWAP1 PUSH1 0x0 MSTORE PUSH1 0x20 PUSH1 0x0 KECCAK256 SWAP1 PUSH1 0x6 MUL ADD PUSH1 0x40 MLOAD DUP1 PUSH1 0xC0 ADD PUSH1 0x40 MSTORE SWAP1 DUP2 PUSH1 0x0 DUP3 ADD PUSH1 0x0 SWAP1 SLOAD SWAP1 PUSH2 0x100 EXP SWAP1 DIV PUSH20 0xFFFFFFFFFFFFFFFFFFFFFFFFFFFFFFFFFFFFFFFF AND PUSH20 0xFFFFFFFFFFFFFFFFFFFFFFFFFFFFFFFFFFFFFFFF AND PUSH20 0xFFFFFFFFFFFFFFFFFFFFFFFFFFFFFFFFFFFFFFFF AND DUP2 MSTORE PUSH1 0x20 ADD PUSH1 0x1 DUP3 ADD SLOAD DUP2 MSTORE PUSH1 0x20 ADD PUSH1 0x2 DUP3 ADD SLOAD DUP2 MSTORE PUSH1 0x20 ADD PUSH1 0x3 DUP3 ADD SLOAD DUP2 MSTORE PUSH1 0x20 ADD PUSH1 0x4 DUP3 ADD SLOAD DUP2 MSTORE PUSH1 0x20 ADD PUSH1 0x5 DUP3 ADD SLOAD DUP2 MSTORE POP POP DUP2 MSTORE PUSH1 0x20 ADD SWAP1 PUSH1 0x1 ADD SWAP1 PUSH2 0x1BB JUMP JUMPDEST POP POP POP POP DUP2 MSTORE POP SWAP1 POP DUP1 SWAP2 POP POP SWAP2 SWAP1 POP JUMP JUMPDEST PUSH2 0x28F PUSH2 0x665 JUMP JUMPDEST PUSH1 0x0 DUP1 PUSH1 0x40 MLOAD DUP1 PUSH1 0x40 ADD PUSH1 0x40 MSTORE DUP1 PUSH1 0x0 DUP2 MSTORE PUSH1 0x20 ADD PUSH1 0x1 PUSH1 0x2 PUSH1 0x0 DUP9 PUSH20 0xFFFFFFFFFFFFFFFFFFFFFFFFFFFFFFFFFFFFFFFF AND PUSH20 0xFFFFFFFFFFFFFFFFFFFFFFFFFFFFFFFFFFFFFFFF AND DUP2 MSTORE PUSH1 0x20 ADD SWAP1 DUP2 MSTORE PUSH1 0x20 ADD PUSH1 0x0 KECCAK256 SLOAD DUP2 SLOAD DUP2 LT PUSH2 0x2F7 JUMPI PUSH2 0x2F6 PUSH2 0x956 JUMP JUMPDEST JUMPDEST SWAP1 PUSH1 0x0 MSTORE PUSH1 0x20 PUSH1 0x0 KECCAK256 SWAP1 PUSH1 0x2 MUL ADD PUSH1 0x1 ADD DUP1 SLOAD DUP1 PUSH1 0x20 MUL PUSH1 0x20 ADD PUSH1 0x40 MLOAD SWAP1 DUP2 ADD PUSH1 0x40 MSTORE DUP1 SWAP3 SWAP2 SWAP1 DUP2 DUP2 MSTORE PUSH1 0x20 ADD PUSH1 0x0 SWAP1 JUMPDEST DUP3 DUP3 LT ISZERO PUSH2 0x3E2 JUMPI DUP4 DUP3 SWAP1 PUSH1 0x0 MSTORE PUSH1 0x20 PUSH1 0x0 KECCAK256 SWAP1 PUSH1 0x6 MUL ADD PUSH1 0x40 MLOAD DUP1 PUSH1 0xC0 ADD PUSH1 0x40 MSTORE SWAP1 DUP2 PUSH1 0x0 DUP3 ADD PUSH1 0x0 SWAP1 SLOAD SWAP1 PUSH2 0x100 EXP SWAP1 DIV PUSH20 0xFFFFFFFFFFFFFFFFFFFFFFFFFFFFFFFFFFFFFFFF AND PUSH20 0xFFFFFFFFFFFFFFFFFFFFFFFFFFFFFFFFFFFFFFFF AND PUSH20 0xFFFFFFFFFFFFFFFFFFFFFFFFFFFFFFFFFFFFFFFF AND DUP2 MSTORE PUSH1 0x20 ADD PUSH1 0x1 DUP3 ADD SLOAD DUP2 MSTORE PUSH1 0x20 ADD PUSH1 0x2 DUP3 ADD SLOAD DUP2 MSTORE PUSH1 0x20 ADD PUSH1 0x3 DUP3 ADD SLOAD DUP2 MSTORE PUSH1 0x20 ADD PUSH1 0x4 DUP3 ADD SLOAD DUP2 MSTORE PUSH1 0x20 ADD PUSH1 0x5 DUP3 ADD SLOAD DUP2 MSTORE POP POP DUP2 MSTORE PUSH1 0x20 ADD SWAP1 PUSH1 0x1 ADD SWAP1 PUSH2 0x328 JUMP JUMPDEST POP POP POP POP DUP2 MSTORE POP SWAP1 POP PUSH1 0x0 DUP2 PUSH1 0x20 ADD MLOAD MLOAD EQ ISZERO PUSH2 0x434 JUMPI PUSH1 0x40 MLOAD PUSH32 0x8C379A000000000000000000000000000000000000000000000000000000000 DUP2 MSTORE PUSH1 0x4 ADD PUSH2 0x42B SWAP1 PUSH2 0xA6B JUMP JUMPDEST PUSH1 0x40 MLOAD DUP1 SWAP2 SUB SWAP1 REVERT JUMPDEST PUSH1 0x0 JUMPDEST DUP2 PUSH1 0x20 ADD MLOAD MLOAD DUP2 LT ISZERO PUSH2 0x4FF JUMPI PUSH1 0x0 PUSH2 0x490 DUP4 PUSH1 0x20 ADD MLOAD DUP4 DUP2 MLOAD DUP2 LT PUSH2 0x460 JUMPI PUSH2 0x45F PUSH2 0x956 JUMP JUMPDEST JUMPDEST PUSH1 0x20 MUL PUSH1 0x20 ADD ADD MLOAD DUP5 PUSH1 0x20 ADD MLOAD DUP5 DUP2 MLOAD DUP2 LT PUSH2 0x47F JUMPI PUSH2 0x47E PUSH2 0x956 JUMP JUMPDEST JUMPDEST PUSH1 0x20 MUL PUSH1 0x20 ADD ADD MLOAD PUSH1 0x20 ADD MLOAD PUSH2 0x514 JUMP JUMPDEST SWAP1 POP DUP1 DUP4 PUSH1 0x20 ADD MLOAD DUP4 DUP2 MLOAD DUP2 LT PUSH2 0x4AA JUMPI PUSH2 0x4A9 PUSH2 0x956 JUMP JUMPDEST JUMPDEST PUSH1 0x20 MUL PUSH1 0x20 ADD ADD MLOAD PUSH1 0x60 ADD DUP2 DUP2 MSTORE POP POP DUP3 PUSH1 0x20 ADD MLOAD DUP3 DUP2 MLOAD DUP2 LT PUSH2 0x4D1 JUMPI PUSH2 0x4D0 PUSH2 0x956 JUMP JUMPDEST JUMPDEST PUSH1 0x20 MUL PUSH1 0x20 ADD ADD MLOAD PUSH1 0x20 ADD MLOAD DUP5 PUSH2 0x4E8 SWAP2 SWAP1 PUSH2 0xA8B JUMP JUMPDEST SWAP4 POP POP PUSH1 0x1 DUP2 PUSH2 0x4F8 SWAP2 SWAP1 PUSH2 0xA8B JUMP JUMPDEST SWAP1 POP PUSH2 0x437 JUMP JUMPDEST POP DUP2 DUP2 PUSH1 0x0 ADD DUP2 DUP2 MSTORE POP POP DUP1 SWAP3 POP POP POP SWAP2 SWAP1 POP JUMP JUMPDEST PUSH1 0x0 DUP1 DUP4 PUSH1 0x20 ADD MLOAD EQ ISZERO PUSH2 0x52B JUMPI PUSH1 0x0 SWAP1 POP PUSH2 0x56B JUMP JUMPDEST PUSH11 0x52B7D2DCC80CD2E4000000 PUSH2 0x544 DUP5 PUSH1 0x40 ADD MLOAD PUSH2 0x571 JUMP JUMPDEST DUP5 PUSH1 0x80 ADD MLOAD DUP5 PUSH2 0x554 SWAP2 SWAP1 PUSH2 0xAE1 JUMP JUMPDEST PUSH2 0x55E SWAP2 SWAP1 PUSH2 0xAE1 JUMP JUMPDEST PUSH2 0x568 SWAP2 SWAP1 PUSH2 0xB6A JUMP JUMPDEST SWAP1 POP JUMPDEST SWAP3 SWAP2 POP POP JUMP JUMPDEST PUSH1 0x0 DUP1 DUP3 GT PUSH2 0x5B5 JUMPI PUSH1 0x40 MLOAD PUSH32 0x8C379A000000000000000000000000000000000000000000000000000000000 DUP2 MSTORE PUSH1 0x4 ADD PUSH2 0x5AC SWAP1 PUSH2 0xBE7 JUMP JUMPDEST PUSH1 0x40 MLOAD DUP1 SWAP2 SUB SWAP1 REVERT JUMPDEST PUSH2 0x5FC PUSH10 0xD3C21BCECCEDA1000000 DUP4 TIMESTAMP PUSH2 0x5CF SWAP2 SWAP1 PUSH2 0x9B4 JUMP JUMPDEST PUSH2 0x5D9 SWAP2 SWAP1 PUSH2 0xAE1 JUMP JUMPDEST PUSH4 0x1E13380 PUSH1 0x40 MLOAD DUP1 PUSH1 0x60 ADD PUSH1 0x40 MSTORE DUP1 PUSH1 0x27 DUP2 MSTORE PUSH1 0x20 ADD PUSH2 0xCB2 PUSH1 0x27 SWAP2 CODECOPY PUSH2 0x603 JUMP JUMPDEST SWAP1 POP SWAP2 SWAP1 POP JUMP JUMPDEST PUSH1 0x0 DUP1 DUP4 GT DUP3 SWAP1 PUSH2 0x64A JUMPI PUSH1 0x40 MLOAD PUSH32 0x8C379A000000000000000000000000000000000000000000000000000000000 DUP2 MSTORE PUSH1 0x4 ADD PUSH2 0x641 SWAP2 SWAP1 PUSH2 0xC8F JUMP JUMPDEST PUSH1 0x40 MLOAD DUP1 SWAP2 SUB SWAP1 REVERT JUMPDEST POP DUP3 DUP5 DUP2 PUSH2 0x65B JUMPI PUSH2 0x65A PUSH2 0xB3B JUMP JUMPDEST JUMPDEST DIV SWAP1 POP SWAP4 SWAP3 POP POP POP JUMP JUMPDEST PUSH1 0x40 MLOAD DUP1 PUSH1 0x40 ADD PUSH1 0x40 MSTORE DUP1 PUSH1 0x0 DUP2 MSTORE PUSH1 0x20 ADD PUSH1 0x60 DUP2 MSTORE POP SWAP1 JUMP JUMPDEST PUSH1 0x0 DUP1 REVERT JUMPDEST PUSH1 0x0 DUP2 SWAP1 POP SWAP2 SWAP1 POP JUMP JUMPDEST PUSH2 0x697 DUP2 PUSH2 0x684 JUMP JUMPDEST DUP2 EQ PUSH2 0x6A2 JUMPI PUSH1 0x0 DUP1 REVERT JUMPDEST POP JUMP JUMPDEST PUSH1 0x0 DUP2 CALLDATALOAD SWAP1 POP PUSH2 0x6B4 DUP2 PUSH2 0x68E JUMP JUMPDEST SWAP3 SWAP2 POP POP JUMP JUMPDEST PUSH1 0x0 PUSH20 0xFFFFFFFFFFFFFFFFFFFFFFFFFFFFFFFFFFFFFFFF DUP3 AND SWAP1 POP SWAP2 SWAP1 POP JUMP JUMPDEST PUSH1 0x0 PUSH2 0x6E5 DUP3 PUSH2 0x6BA JUMP JUMPDEST SWAP1 POP SWAP2 SWAP1 POP JUMP JUMPDEST PUSH2 0x6F5 DUP2 PUSH2 0x6DA JUMP JUMPDEST DUP2 EQ PUSH2 0x700 JUMPI PUSH1 0x0 DUP1 REVERT JUMPDEST POP JUMP JUMPDEST PUSH1 0x0 DUP2 CALLDATALOAD SWAP1 POP PUSH2 0x712 DUP2 PUSH2 0x6EC JUMP JUMPDEST SWAP3 SWAP2 POP POP JUMP JUMPDEST PUSH1 0x0 DUP1 PUSH1 0x40 DUP4 DUP6 SUB SLT ISZERO PUSH2 0x72F JUMPI PUSH2 0x72E PUSH2 0x67F JUMP JUMPDEST JUMPDEST PUSH1 0x0 PUSH2 0x73D DUP6 DUP3 DUP7 ADD PUSH2 0x6A5 JUMP JUMPDEST SWAP3 POP POP PUSH1 0x20 PUSH2 0x74E DUP6 DUP3 DUP7 ADD PUSH2 0x703 JUMP JUMPDEST SWAP2 POP POP SWAP3 POP SWAP3 SWAP1 POP JUMP JUMPDEST PUSH2 0x761 DUP2 PUSH2 0x684 JUMP JUMPDEST DUP3 MSTORE POP POP JUMP JUMPDEST PUSH1 0x0 PUSH1 0x20 DUP3 ADD SWAP1 POP PUSH2 0x77C PUSH1 0x0 DUP4 ADD DUP5 PUSH2 0x758 JUMP JUMPDEST SWAP3 SWAP2 POP POP JUMP JUMPDEST PUSH1 0x0 PUSH1 0x20 DUP3 DUP5 SUB SLT ISZERO PUSH2 0x798 JUMPI PUSH2 0x797 PUSH2 0x67F JUMP JUMPDEST JUMPDEST PUSH1 0x0 PUSH2 0x7A6 DUP5 DUP3 DUP6 ADD PUSH2 0x703 JUMP JUMPDEST SWAP2 POP POP SWAP3 SWAP2 POP POP JUMP JUMPDEST PUSH2 0x7B8 DUP2 PUSH2 0x684 JUMP JUMPDEST DUP3 MSTORE POP POP JUMP JUMPDEST PUSH1 0x0 DUP2 MLOAD SWAP1 POP SWAP2 SWAP1 POP JUMP JUMPDEST PUSH1 0x0 DUP3 DUP3 MSTORE PUSH1 0x20 DUP3 ADD SWAP1 POP SWAP3 SWAP2 POP POP JUMP JUMPDEST PUSH1 0x0 DUP2 SWAP1 POP PUSH1 0x20 DUP3 ADD SWAP1 POP SWAP2 SWAP1 POP JUMP JUMPDEST PUSH2 0x7F3 DUP2 PUSH2 0x6DA JUMP JUMPDEST DUP3 MSTORE POP POP JUMP JUMPDEST PUSH1 0xC0 DUP3 ADD PUSH1 0x0 DUP3 ADD MLOAD PUSH2 0x80F PUSH1 0x0 DUP6 ADD DUP3 PUSH2 0x7EA JUMP JUMPDEST POP PUSH1 0x20 DUP3 ADD MLOAD PUSH2 0x822 PUSH1 0x20 DUP6 ADD DUP3 PUSH2 0x7AF JUMP JUMPDEST POP PUSH1 0x40 DUP3 ADD MLOAD PUSH2 0x835 PUSH1 0x40 DUP6 ADD DUP3 PUSH2 0x7AF JUMP JUMPDEST POP PUSH1 0x60 DUP3 ADD MLOAD PUSH2 0x848 PUSH1 0x60 DUP6 ADD DUP3 PUSH2 0x7AF JUMP JUMPDEST POP PUSH1 0x80 DUP3 ADD MLOAD PUSH2 0x85B PUSH1 0x80 DUP6 ADD DUP3 PUSH2 0x7AF JUMP JUMPDEST POP PUSH1 0xA0 DUP3 ADD MLOAD PUSH2 0x86E PUSH1 0xA0 DUP6 ADD DUP3 PUSH2 0x7AF JUMP JUMPDEST POP POP POP POP JUMP JUMPDEST PUSH1 0x0 PUSH2 0x880 DUP4 DUP4 PUSH2 0x7F9 JUMP JUMPDEST PUSH1 0xC0 DUP4 ADD SWAP1 POP SWAP3 SWAP2 POP POP JUMP JUMPDEST PUSH1 0x0 PUSH1 0x20 DUP3 ADD SWAP1 POP SWAP2 SWAP1 POP JUMP JUMPDEST PUSH1 0x0 PUSH2 0x8A4 DUP3 PUSH2 0x7BE JUMP JUMPDEST PUSH2 0x8AE DUP2 DUP6 PUSH2 0x7C9 JUMP JUMPDEST SWAP4 POP PUSH2 0x8B9 DUP4 PUSH2 0x7DA JUMP JUMPDEST DUP1 PUSH1 0x0 JUMPDEST DUP4 DUP2 LT ISZERO PUSH2 0x8EA JUMPI DUP2 MLOAD PUSH2 0x8D1 DUP9 DUP3 PUSH2 0x874 JUMP JUMPDEST SWAP8 POP PUSH2 0x8DC DUP4 PUSH2 0x88C JUMP JUMPDEST SWAP3 POP POP PUSH1 0x1 DUP2 ADD SWAP1 POP PUSH2 0x8BD JUMP JUMPDEST POP DUP6 SWAP4 POP POP POP POP SWAP3 SWAP2 POP POP JUMP JUMPDEST PUSH1 0x0 PUSH1 0x40 DUP4 ADD PUSH1 0x0 DUP4 ADD MLOAD PUSH2 0x90F PUSH1 0x0 DUP7 ADD DUP3 PUSH2 0x7AF JUMP JUMPDEST POP PUSH1 0x20 DUP4 ADD MLOAD DUP5 DUP3 SUB PUSH1 0x20 DUP7 ADD MSTORE PUSH2 0x927 DUP3 DUP3 PUSH2 0x899 JUMP JUMPDEST SWAP2 POP POP DUP1 SWAP2 POP POP SWAP3 SWAP2 POP POP JUMP JUMPDEST PUSH1 0x0 PUSH1 0x20 DUP3 ADD SWAP1 POP DUP2 DUP2 SUB PUSH1 0x0 DUP4 ADD MSTORE PUSH2 0x94E DUP2 DUP5 PUSH2 0x8F7 JUMP JUMPDEST SWAP1 POP SWAP3 SWAP2 POP POP JUMP JUMPDEST PUSH32 0x4E487B7100000000000000000000000000000000000000000000000000000000 PUSH1 0x0 MSTORE PUSH1 0x32 PUSH1 0x4 MSTORE PUSH1 0x24 PUSH1 0x0 REVERT JUMPDEST PUSH32 0x4E487B7100000000000000000000000000000000000000000000000000000000 PUSH1 0x0 MSTORE PUSH1 0x11 PUSH1 0x4 MSTORE PUSH1 0x24 PUSH1 0x0 REVERT JUMPDEST PUSH1 0x0 PUSH2 0x9BF DUP3 PUSH2 0x684 JUMP JUMPDEST SWAP2 POP PUSH2 0x9CA DUP4 PUSH2 0x684 JUMP JUMPDEST SWAP3 POP DUP3 DUP3 LT ISZERO PUSH2 0x9DD JUMPI PUSH2 0x9DC PUSH2 0x985 JUMP JUMPDEST JUMPDEST DUP3 DUP3 SUB SWAP1 POP SWAP3 SWAP2 POP POP JUMP JUMPDEST PUSH1 0x0 DUP3 DUP3 MSTORE PUSH1 0x20 DUP3 ADD SWAP1 POP SWAP3 SWAP2 POP POP JUMP JUMPDEST PUSH32 0x5374616B61626C653A2054686973206164647265737320646F6573206E6F7420 PUSH1 0x0 DUP3 ADD MSTORE PUSH32 0x6861766520616E79207374616B65730000000000000000000000000000000000 PUSH1 0x20 DUP3 ADD MSTORE POP JUMP JUMPDEST PUSH1 0x0 PUSH2 0xA55 PUSH1 0x2F DUP4 PUSH2 0x9E8 JUMP JUMPDEST SWAP2 POP PUSH2 0xA60 DUP3 PUSH2 0x9F9 JUMP JUMPDEST PUSH1 0x40 DUP3 ADD SWAP1 POP SWAP2 SWAP1 POP JUMP JUMPDEST PUSH1 0x0 PUSH1 0x20 DUP3 ADD SWAP1 POP DUP2 DUP2 SUB PUSH1 0x0 DUP4 ADD MSTORE PUSH2 0xA84 DUP2 PUSH2 0xA48 JUMP JUMPDEST SWAP1 POP SWAP2 SWAP1 POP JUMP JUMPDEST PUSH1 0x0 PUSH2 0xA96 DUP3 PUSH2 0x684 JUMP JUMPDEST SWAP2 POP PUSH2 0xAA1 DUP4 PUSH2 0x684 JUMP JUMPDEST SWAP3 POP DUP3 PUSH32 0xFFFFFFFFFFFFFFFFFFFFFFFFFFFFFFFFFFFFFFFFFFFFFFFFFFFFFFFFFFFFFFFF SUB DUP3 GT ISZERO PUSH2 0xAD6 JUMPI PUSH2 0xAD5 PUSH2 0x985 JUMP JUMPDEST JUMPDEST DUP3 DUP3 ADD SWAP1 POP SWAP3 SWAP2 POP POP JUMP JUMPDEST PUSH1 0x0 PUSH2 0xAEC DUP3 PUSH2 0x684 JUMP JUMPDEST SWAP2 POP PUSH2 0xAF7 DUP4 PUSH2 0x684 JUMP JUMPDEST SWAP3 POP DUP2 PUSH32 0xFFFFFFFFFFFFFFFFFFFFFFFFFFFFFFFFFFFFFFFFFFFFFFFFFFFFFFFFFFFFFFFF DIV DUP4 GT DUP3 ISZERO ISZERO AND ISZERO PUSH2 0xB30 JUMPI PUSH2 0xB2F PUSH2 0x985 JUMP JUMPDEST JUMPDEST DUP3 DUP3 MUL SWAP1 POP SWAP3 SWAP2 POP POP JUMP JUMPDEST PUSH32 0x4E487B7100000000000000000000000000000000000000000000000000000000 PUSH1 0x0 MSTORE PUSH1 0x12 PUSH1 0x4 MSTORE PUSH1 0x24 PUSH1 0x0 REVERT JUMPDEST PUSH1 0x0 PUSH2 0xB75 DUP3 PUSH2 0x684 JUMP JUMPDEST SWAP2 POP PUSH2 0xB80 DUP4 PUSH2 0x684 JUMP JUMPDEST SWAP3 POP DUP3 PUSH2 0xB90 JUMPI PUSH2 0xB8F PUSH2 0xB3B JUMP JUMPDEST JUMPDEST DUP3 DUP3 DIV SWAP1 POP SWAP3 SWAP2 POP POP JUMP JUMPDEST PUSH32 0x5374616B61626C653A204572726F722074696D657374616D7020300000000000 PUSH1 0x0 DUP3 ADD MSTORE POP JUMP JUMPDEST PUSH1 0x0 PUSH2 0xBD1 PUSH1 0x1B DUP4 PUSH2 0x9E8 JUMP JUMPDEST SWAP2 POP PUSH2 0xBDC DUP3 PUSH2 0xB9B JUMP JUMPDEST PUSH1 0x20 DUP3 ADD SWAP1 POP SWAP2 SWAP1 POP JUMP JUMPDEST PUSH1 0x0 PUSH1 0x20 DUP3 ADD SWAP1 POP DUP2 DUP2 SUB PUSH1 0x0 DUP4 ADD MSTORE PUSH2 0xC00 DUP2 PUSH2 0xBC4 JUMP JUMPDEST SWAP1 POP SWAP2 SWAP1 POP JUMP JUMPDEST PUSH1 0x0 DUP2 MLOAD SWAP1 POP SWAP2 SWAP1 POP JUMP JUMPDEST PUSH1 0x0 JUMPDEST DUP4 DUP2 LT ISZERO PUSH2 0xC30 JUMPI DUP1 DUP3 ADD MLOAD DUP2 DUP5 ADD MSTORE PUSH1 0x20 DUP2 ADD SWAP1 POP PUSH2 0xC15 JUMP JUMPDEST DUP4 DUP2 GT ISZERO PUSH2 0xC3F JUMPI PUSH1 0x0 DUP5 DUP5 ADD MSTORE JUMPDEST POP POP POP POP JUMP JUMPDEST PUSH1 0x0 PUSH1 0x1F NOT PUSH1 0x1F DUP4 ADD AND SWAP1 POP SWAP2 SWAP1 POP JUMP JUMPDEST PUSH1 0x0 PUSH2 0xC61 DUP3 PUSH2 0xC07 JUMP JUMPDEST PUSH2 0xC6B DUP2 DUP6 PUSH2 0x9E8 JUMP JUMPDEST SWAP4 POP PUSH2 0xC7B DUP2 DUP6 PUSH1 0x20 DUP7 ADD PUSH2 0xC12 JUMP JUMPDEST PUSH2 0xC84 DUP2 PUSH2 0xC45 JUMP JUMPDEST DUP5 ADD SWAP2 POP POP SWAP3 SWAP2 POP POP JUMP JUMPDEST PUSH1 0x0 PUSH1 0x20 DUP3 ADD SWAP1 POP DUP2 DUP2 SUB PUSH1 0x0 DUP4 ADD MSTORE PUSH2 0xCA9 DUP2 DUP5 PUSH2 0xC56 JUMP JUMPDEST SWAP1 POP SWAP3 SWAP2 POP POP JUMP INVALID MSTORE8 PUSH21 0x616B61626C653A204572726F722063616E6E6F7420 PUSH5 0x6976696465 KECCAK256 PUSH21 0x696D657374616D70A264697066735822122030133E DUP2 0xAD DUP11 SWAP11 0xEB PUSH5 0x115A9FD327 PUSH14 0x7A3F598F28B40AFAB9122EB79B8A 0x4D PUSH14 0xCF64736F6C634300080B00330000 "
				},
				"gasEstimates": {
					"creation": {
						"codeDepositCost": "668400",
						"executionCost": "infinite",
						"totalCost": "infinite"
					},
					"external": {
						"hasStake(address)": "infinite",
						"stakeSummary(address)": "infinite",
						"testCalculateDuration(uint256,address)": "infinite"
					},
					"internal": {
						"_addStakeholder(address)": "infinite",
						"_changePenaltyFee(uint256)": "infinite",
						"_stake(uint256,uint256,uint256)": "infinite",
						"_withdrawAllStake(uint256)": "infinite",
						"_withdrawStake(uint256,uint256)": "infinite",
						"calculateStakeReward(struct Stakable.Stake memory,uint256)": "infinite",
						"calculateStakingDuration(uint256)": "infinite",
						"calculateStakingWithPenalty(uint256,uint256)": "infinite"
					}
				},
				"methodIdentifiers": {
					"hasStake(address)": "e73e14bf",
					"stakeSummary(address)": "b09d4b4e",
					"testCalculateDuration(uint256,address)": "38920102"
				}
			},
			"userdoc": {
				"events": {
					"Staked(address,uint256,uint256,uint256,uint256)": {
						"notice": "Staked event is triggered whenever a user stakes tokens, address is indexed to make it filterable"
					}
				},
				"kind": "user",
				"methods": {},
				"version": 1
			}
		}
	}
}