{
	"contracts/Stake-2.0.sol": {
		"Staking": {
			"abi": [
				{
					"inputs": [
						{
							"internalType": "address",
							"name": "token",
							"type": "address"
						}
					],
					"stateMutability": "nonpayable",
					"type": "constructor"
				},
				{
					"inputs": [],
					"name": "Airdrop__claimableOnceAWeek",
					"type": "error"
				},
				{
					"inputs": [],
					"name": "Staking__airdropExceed20Percent",
					"type": "error"
				},
				{
					"inputs": [],
					"name": "Staking__noStakingFound",
					"type": "error"
				},
				{
					"inputs": [],
					"name": "Staking__penaltyExceed3Percent",
					"type": "error"
				},
				{
					"inputs": [],
					"name": "Staking__userIsStaker",
					"type": "error"
				},
				{
					"inputs": [],
					"name": "Staking_noStakingPackageFound",
					"type": "error"
				},
				{
					"anonymous": false,
					"inputs": [
						{
							"indexed": false,
							"internalType": "uint256",
							"name": "amount",
							"type": "uint256"
						}
					],
					"name": "AirdropChanged",
					"type": "event"
				},
				{
					"anonymous": false,
					"inputs": [
						{
							"indexed": true,
							"internalType": "address",
							"name": "previousOwner",
							"type": "address"
						},
						{
							"indexed": true,
							"internalType": "address",
							"name": "newOwner",
							"type": "address"
						}
					],
					"name": "OwnershipTransferred",
					"type": "event"
				},
				{
					"anonymous": false,
					"inputs": [
						{
							"indexed": false,
							"internalType": "uint256",
							"name": "amount",
							"type": "uint256"
						}
					],
					"name": "PenaltyChanged",
					"type": "event"
				},
				{
					"anonymous": false,
					"inputs": [
						{
							"indexed": true,
							"internalType": "address",
							"name": "user",
							"type": "address"
						},
						{
							"indexed": false,
							"internalType": "uint256",
							"name": "amount",
							"type": "uint256"
						},
						{
							"indexed": false,
							"internalType": "uint256",
							"name": "timestamp",
							"type": "uint256"
						},
						{
							"indexed": false,
							"internalType": "uint256",
							"name": "releaseTime",
							"type": "uint256"
						}
					],
					"name": "Staked",
					"type": "event"
				},
				{
					"inputs": [],
					"name": "_blockTimestamp",
					"outputs": [
						{
							"internalType": "uint256",
							"name": "",
							"type": "uint256"
						}
					],
					"stateMutability": "view",
					"type": "function"
				},
				{
					"inputs": [],
					"name": "airdropRate",
					"outputs": [
						{
							"internalType": "uint256",
							"name": "",
							"type": "uint256"
						}
					],
					"stateMutability": "view",
					"type": "function"
				},
				{
					"inputs": [],
					"name": "airdropSince",
					"outputs": [
						{
							"internalType": "uint256",
							"name": "",
							"type": "uint256"
						}
					],
					"stateMutability": "view",
					"type": "function"
				},
				{
					"inputs": [
						{
							"internalType": "uint256",
							"name": "timestamp",
							"type": "uint256"
						}
					],
					"name": "calculateWeek",
					"outputs": [
						{
							"internalType": "uint256",
							"name": "",
							"type": "uint256"
						}
					],
					"stateMutability": "view",
					"type": "function"
				},
				{
					"inputs": [
						{
							"internalType": "uint256",
							"name": "amount",
							"type": "uint256"
						}
					],
					"name": "changeAirdropPercentage",
					"outputs": [],
					"stateMutability": "nonpayable",
					"type": "function"
				},
				{
					"inputs": [
						{
							"internalType": "uint256",
							"name": "amount",
							"type": "uint256"
						}
					],
					"name": "changePenaltyFee",
					"outputs": [],
					"stateMutability": "nonpayable",
					"type": "function"
				},
				{
					"inputs": [],
					"name": "claimAirdrop",
					"outputs": [],
					"stateMutability": "nonpayable",
					"type": "function"
				},
				{
					"inputs": [],
					"name": "hasStake",
					"outputs": [
						{
							"components": [
								{
									"internalType": "uint256",
									"name": "total_amount",
									"type": "uint256"
								},
								{
									"internalType": "uint256",
									"name": "penalty",
									"type": "uint256"
								},
								{
									"components": [
										{
											"internalType": "uint256",
											"name": "amount",
											"type": "uint256"
										},
										{
											"internalType": "uint256",
											"name": "since",
											"type": "uint256"
										},
										{
											"internalType": "uint256",
											"name": "rewardAPY",
											"type": "uint256"
										},
										{
											"internalType": "uint256",
											"name": "releaseTime",
											"type": "uint256"
										},
										{
											"internalType": "uint256",
											"name": "claimable",
											"type": "uint256"
										},
										{
											"internalType": "uint256",
											"name": "claimableAirdrop",
											"type": "uint256"
										},
										{
											"internalType": "uint256",
											"name": "latestClaimDrop",
											"type": "uint256"
										}
									],
									"internalType": "struct Staking.Stake",
									"name": "stake",
									"type": "tuple"
								}
							],
							"internalType": "struct Staking.StakingSummary",
							"name": "",
							"type": "tuple"
						}
					],
					"stateMutability": "view",
					"type": "function"
				},
				{
					"inputs": [],
					"name": "owner",
					"outputs": [
						{
							"internalType": "address",
							"name": "",
							"type": "address"
						}
					],
					"stateMutability": "view",
					"type": "function"
				},
				{
					"inputs": [],
					"name": "renounceOwnership",
					"outputs": [],
					"stateMutability": "nonpayable",
					"type": "function"
				},
				{
					"inputs": [
						{
							"internalType": "uint256",
							"name": "amount",
							"type": "uint256"
						},
						{
							"internalType": "uint256",
							"name": "stakePeriod",
							"type": "uint256"
						}
					],
					"name": "stake",
					"outputs": [],
					"stateMutability": "nonpayable",
					"type": "function"
				},
				{
					"inputs": [],
					"name": "stakingPenaltyRate",
					"outputs": [
						{
							"internalType": "uint256",
							"name": "",
							"type": "uint256"
						}
					],
					"stateMutability": "view",
					"type": "function"
				},
				{
					"inputs": [],
					"name": "startAirdrop",
					"outputs": [],
					"stateMutability": "nonpayable",
					"type": "function"
				},
				{
					"inputs": [],
					"name": "token_address",
					"outputs": [
						{
							"internalType": "address",
							"name": "",
							"type": "address"
						}
					],
					"stateMutability": "view",
					"type": "function"
				},
				{
					"inputs": [],
					"name": "totalVoters",
					"outputs": [
						{
							"internalType": "uint256",
							"name": "",
							"type": "uint256"
						}
					],
					"stateMutability": "view",
					"type": "function"
				},
				{
					"inputs": [
						{
							"internalType": "address",
							"name": "newOwner",
							"type": "address"
						}
					],
					"name": "transferOwnership",
					"outputs": [],
					"stateMutability": "nonpayable",
					"type": "function"
				},
				{
					"inputs": [
						{
							"internalType": "uint256",
							"name": "",
							"type": "uint256"
						}
					],
					"name": "votedUsers",
					"outputs": [
						{
							"internalType": "uint256",
							"name": "",
							"type": "uint256"
						}
					],
					"stateMutability": "view",
					"type": "function"
				},
				{
					"inputs": [
						{
							"internalType": "address",
							"name": "",
							"type": "address"
						}
					],
					"name": "voters",
					"outputs": [
						{
							"internalType": "bool",
							"name": "votingRight",
							"type": "bool"
						}
					],
					"stateMutability": "view",
					"type": "function"
				},
				{
					"inputs": [],
					"name": "withdrawStake",
					"outputs": [],
					"stateMutability": "nonpayable",
					"type": "function"
				}
			],
			"devdoc": {
				"kind": "dev",
				"methods": {
					"owner()": {
						"details": "Returns the address of the current owner."
					},
					"renounceOwnership()": {
						"details": "Leaves the contract without owner. It will not be possible to call `onlyOwner` functions anymore. Can only be called by the current owner. NOTE: Renouncing ownership will leave the contract without an owner, thereby removing any functionality that is only available to the owner."
					},
					"transferOwnership(address)": {
						"details": "Transfers ownership of the contract to a new account (`newOwner`). Can only be called by the current owner."
					}
				},
				"version": 1
			},
			"evm": {
				"assembly": "    /* \"contracts/Stake-2.0.sol\":1017:13009  contract Staking is ReentrancyGuard, Ownable {... */\n  mstore(0x40, 0x80)\n    /* \"contracts/Stake-2.0.sol\":1742:2053  constructor(address token) {... */\n  callvalue\n  dup1\n  iszero\n  tag_1\n  jumpi\n  0x00\n  dup1\n  revert\ntag_1:\n  pop\n  mload(0x40)\n  sub(codesize, bytecodeSize)\n  dup1\n  bytecodeSize\n  dup4\n  codecopy\n  dup2\n  dup2\n  add\n  0x40\n  mstore\n  dup2\n  add\n  swap1\n  tag_2\n  swap2\n  swap1\n  tag_3\n  jump\t// in\ntag_2:\n    /* \"@openzeppelin/contracts/security/ReentrancyGuard.sol\":1701:1702  1 */\n  0x01\n    /* \"@openzeppelin/contracts/security/ReentrancyGuard.sol\":1806:1813  _status */\n  0x00\n    /* \"@openzeppelin/contracts/security/ReentrancyGuard.sol\":1806:1828  _status = _NOT_ENTERED */\n  dup2\n  swap1\n  sstore\n  pop\n    /* \"@openzeppelin/contracts/access/Ownable.sol\":921:953  _transferOwnership(_msgSender()) */\n  tag_9\n    /* \"@openzeppelin/contracts/access/Ownable.sol\":940:952  _msgSender() */\n  tag_10\n    /* \"@openzeppelin/contracts/access/Ownable.sol\":940:950  _msgSender */\n  shl(0x20, tag_11)\n    /* \"@openzeppelin/contracts/access/Ownable.sol\":940:952  _msgSender() */\n  0x20\n  shr\n  jump\t// in\ntag_10:\n    /* \"@openzeppelin/contracts/access/Ownable.sol\":921:939  _transferOwnership */\n  shl(0x20, tag_12)\n    /* \"@openzeppelin/contracts/access/Ownable.sol\":921:953  _transferOwnership(_msgSender()) */\n  0x20\n  shr\n  jump\t// in\ntag_9:\n    /* \"contracts/Stake-2.0.sol\":1864:1866  15 */\n  0x0f\n    /* \"contracts/Stake-2.0.sol\":1843:1861  stakingPenaltyRate */\n  0x03\n    /* \"contracts/Stake-2.0.sol\":1843:1866  stakingPenaltyRate = 15 */\n  dup2\n  swap1\n  sstore\n  pop\n    /* \"contracts/Stake-2.0.sol\":1891:1893  80 */\n  0x50\n    /* \"contracts/Stake-2.0.sol\":1877:1888  airdropRate */\n  0x04\n    /* \"contracts/Stake-2.0.sol\":1877:1893  airdropRate = 80 */\n  dup2\n  swap1\n  sstore\n  pop\n    /* \"contracts/Stake-2.0.sol\":1922:1927  token */\n  dup1\n    /* \"contracts/Stake-2.0.sol\":1906:1919  token_address */\n  0x0b\n  0x00\n    /* \"contracts/Stake-2.0.sol\":1906:1927  token_address = token */\n  0x0100\n  exp\n  dup2\n  sload\n  dup2\n  0xffffffffffffffffffffffffffffffffffffffff\n  mul\n  not\n  and\n  swap1\n  dup4\n  0xffffffffffffffffffffffffffffffffffffffff\n  and\n  mul\n  or\n  swap1\n  sstore\n  pop\n    /* \"contracts/Stake-2.0.sol\":1966:1967  6 */\n  0x06\n    /* \"contracts/Stake-2.0.sol\":1940:1954  stakingPackage */\n  0x02\n    /* \"contracts/Stake-2.0.sol\":1940:1963  stakingPackage[90 days] */\n  0x00\n    /* \"contracts/Stake-2.0.sol\":1955:1962  90 days */\n  0x76a700\n    /* \"contracts/Stake-2.0.sol\":1940:1963  stakingPackage[90 days] */\n  dup2\n  mstore\n  0x20\n  add\n  swap1\n  dup2\n  mstore\n  0x20\n  add\n  0x00\n  keccak256\n    /* \"contracts/Stake-2.0.sol\":1940:1967  stakingPackage[90 days] = 6 */\n  dup2\n  swap1\n  sstore\n  pop\n    /* \"contracts/Stake-2.0.sol\":2005:2006  7 */\n  0x07\n    /* \"contracts/Stake-2.0.sol\":1978:1992  stakingPackage */\n  0x02\n    /* \"contracts/Stake-2.0.sol\":1978:2002  stakingPackage[180 days] */\n  0x00\n    /* \"contracts/Stake-2.0.sol\":1993:2001  180 days */\n  0xed4e00\n    /* \"contracts/Stake-2.0.sol\":1978:2002  stakingPackage[180 days] */\n  dup2\n  mstore\n  0x20\n  add\n  swap1\n  dup2\n  mstore\n  0x20\n  add\n  0x00\n  keccak256\n    /* \"contracts/Stake-2.0.sol\":1978:2006  stakingPackage[180 days] = 7 */\n  dup2\n  swap1\n  sstore\n  pop\n    /* \"contracts/Stake-2.0.sol\":2044:2045  8 */\n  0x08\n    /* \"contracts/Stake-2.0.sol\":2017:2031  stakingPackage */\n  0x02\n    /* \"contracts/Stake-2.0.sol\":2017:2041  stakingPackage[365 days] */\n  0x00\n    /* \"contracts/Stake-2.0.sol\":2032:2040  365 days */\n  0x01e13380\n    /* \"contracts/Stake-2.0.sol\":2017:2041  stakingPackage[365 days] */\n  dup2\n  mstore\n  0x20\n  add\n  swap1\n  dup2\n  mstore\n  0x20\n  add\n  0x00\n  keccak256\n    /* \"contracts/Stake-2.0.sol\":2017:2045  stakingPackage[365 days] = 8 */\n  dup2\n  swap1\n  sstore\n  pop\n    /* \"contracts/Stake-2.0.sol\":1742:2053  constructor(address token) {... */\n  pop\n    /* \"contracts/Stake-2.0.sol\":1017:13009  contract Staking is ReentrancyGuard, Ownable {... */\n  jump(tag_14)\n    /* \"@openzeppelin/contracts/utils/Context.sol\":640:736  function _msgSender() internal view virtual returns (address) {... */\ntag_11:\n    /* \"@openzeppelin/contracts/utils/Context.sol\":693:700  address */\n  0x00\n    /* \"@openzeppelin/contracts/utils/Context.sol\":719:729  msg.sender */\n  caller\n    /* \"@openzeppelin/contracts/utils/Context.sol\":712:729  return msg.sender */\n  swap1\n  pop\n    /* \"@openzeppelin/contracts/utils/Context.sol\":640:736  function _msgSender() internal view virtual returns (address) {... */\n  swap1\n  jump\t// out\n    /* \"@openzeppelin/contracts/access/Ownable.sol\":2270:2457  function _transferOwnership(address newOwner) internal virtual {... */\ntag_12:\n    /* \"@openzeppelin/contracts/access/Ownable.sol\":2343:2359  address oldOwner */\n  0x00\n    /* \"@openzeppelin/contracts/access/Ownable.sol\":2362:2368  _owner */\n  0x01\n  0x00\n  swap1\n  sload\n  swap1\n  0x0100\n  exp\n  swap1\n  div\n  0xffffffffffffffffffffffffffffffffffffffff\n  and\n    /* \"@openzeppelin/contracts/access/Ownable.sol\":2343:2368  address oldOwner = _owner */\n  swap1\n  pop\n    /* \"@openzeppelin/contracts/access/Ownable.sol\":2387:2395  newOwner */\n  dup2\n    /* \"@openzeppelin/contracts/access/Ownable.sol\":2378:2384  _owner */\n  0x01\n  0x00\n    /* \"@openzeppelin/contracts/access/Ownable.sol\":2378:2395  _owner = newOwner */\n  0x0100\n  exp\n  dup2\n  sload\n  dup2\n  0xffffffffffffffffffffffffffffffffffffffff\n  mul\n  not\n  and\n  swap1\n  dup4\n  0xffffffffffffffffffffffffffffffffffffffff\n  and\n  mul\n  or\n  swap1\n  sstore\n  pop\n    /* \"@openzeppelin/contracts/access/Ownable.sol\":2441:2449  newOwner */\n  dup2\n    /* \"@openzeppelin/contracts/access/Ownable.sol\":2410:2450  OwnershipTransferred(oldOwner, newOwner) */\n  0xffffffffffffffffffffffffffffffffffffffff\n  and\n    /* \"@openzeppelin/contracts/access/Ownable.sol\":2431:2439  oldOwner */\n  dup2\n    /* \"@openzeppelin/contracts/access/Ownable.sol\":2410:2450  OwnershipTransferred(oldOwner, newOwner) */\n  0xffffffffffffffffffffffffffffffffffffffff\n  and\n  0x8be0079c531659141344cd1fd0a4f28419497f9722a3daafe3b4186f6b6457e0\n  mload(0x40)\n  mload(0x40)\n  dup1\n  swap2\n  sub\n  swap1\n  log3\n    /* \"@openzeppelin/contracts/access/Ownable.sol\":2333:2457  {... */\n  pop\n    /* \"@openzeppelin/contracts/access/Ownable.sol\":2270:2457  function _transferOwnership(address newOwner) internal virtual {... */\n  pop\n  jump\t// out\n    /* \"#utility.yul\":88:205   */\ntag_18:\n    /* \"#utility.yul\":197:198   */\n  0x00\n    /* \"#utility.yul\":194:195   */\n  dup1\n    /* \"#utility.yul\":187:199   */\n  revert\n    /* \"#utility.yul\":334:460   */\ntag_20:\n    /* \"#utility.yul\":371:378   */\n  0x00\n    /* \"#utility.yul\":411:453   */\n  0xffffffffffffffffffffffffffffffffffffffff\n    /* \"#utility.yul\":404:409   */\n  dup3\n    /* \"#utility.yul\":400:454   */\n  and\n    /* \"#utility.yul\":389:454   */\n  swap1\n  pop\n    /* \"#utility.yul\":334:460   */\n  swap2\n  swap1\n  pop\n  jump\t// out\n    /* \"#utility.yul\":466:562   */\ntag_21:\n    /* \"#utility.yul\":503:510   */\n  0x00\n    /* \"#utility.yul\":532:556   */\n  tag_30\n    /* \"#utility.yul\":550:555   */\n  dup3\n    /* \"#utility.yul\":532:556   */\n  tag_20\n  jump\t// in\ntag_30:\n    /* \"#utility.yul\":521:556   */\n  swap1\n  pop\n    /* \"#utility.yul\":466:562   */\n  swap2\n  swap1\n  pop\n  jump\t// out\n    /* \"#utility.yul\":568:690   */\ntag_22:\n    /* \"#utility.yul\":641:665   */\n  tag_32\n    /* \"#utility.yul\":659:664   */\n  dup2\n    /* \"#utility.yul\":641:665   */\n  tag_21\n  jump\t// in\ntag_32:\n    /* \"#utility.yul\":634:639   */\n  dup2\n    /* \"#utility.yul\":631:666   */\n  eq\n    /* \"#utility.yul\":621:684   */\n  tag_33\n  jumpi\n    /* \"#utility.yul\":680:681   */\n  0x00\n    /* \"#utility.yul\":677:678   */\n  dup1\n    /* \"#utility.yul\":670:682   */\n  revert\n    /* \"#utility.yul\":621:684   */\ntag_33:\n    /* \"#utility.yul\":568:690   */\n  pop\n  jump\t// out\n    /* \"#utility.yul\":696:839   */\ntag_23:\n    /* \"#utility.yul\":753:758   */\n  0x00\n    /* \"#utility.yul\":784:790   */\n  dup2\n    /* \"#utility.yul\":778:791   */\n  mload\n    /* \"#utility.yul\":769:791   */\n  swap1\n  pop\n    /* \"#utility.yul\":800:833   */\n  tag_35\n    /* \"#utility.yul\":827:832   */\n  dup2\n    /* \"#utility.yul\":800:833   */\n  tag_22\n  jump\t// in\ntag_35:\n    /* \"#utility.yul\":696:839   */\n  swap3\n  swap2\n  pop\n  pop\n  jump\t// out\n    /* \"#utility.yul\":845:1196   */\ntag_3:\n    /* \"#utility.yul\":915:921   */\n  0x00\n    /* \"#utility.yul\":964:966   */\n  0x20\n    /* \"#utility.yul\":952:961   */\n  dup3\n    /* \"#utility.yul\":943:950   */\n  dup5\n    /* \"#utility.yul\":939:962   */\n  sub\n    /* \"#utility.yul\":935:967   */\n  slt\n    /* \"#utility.yul\":932:1051   */\n  iszero\n  tag_37\n  jumpi\n    /* \"#utility.yul\":970:1049   */\n  tag_38\n  tag_18\n  jump\t// in\ntag_38:\n    /* \"#utility.yul\":932:1051   */\ntag_37:\n    /* \"#utility.yul\":1090:1091   */\n  0x00\n    /* \"#utility.yul\":1115:1179   */\n  tag_39\n    /* \"#utility.yul\":1171:1178   */\n  dup5\n    /* \"#utility.yul\":1162:1168   */\n  dup3\n    /* \"#utility.yul\":1151:1160   */\n  dup6\n    /* \"#utility.yul\":1147:1169   */\n  add\n    /* \"#utility.yul\":1115:1179   */\n  tag_23\n  jump\t// in\ntag_39:\n    /* \"#utility.yul\":1105:1179   */\n  swap2\n  pop\n    /* \"#utility.yul\":1061:1189   */\n  pop\n    /* \"#utility.yul\":845:1196   */\n  swap3\n  swap2\n  pop\n  pop\n  jump\t// out\n    /* \"contracts/Stake-2.0.sol\":1017:13009  contract Staking is ReentrancyGuard, Ownable {... */\ntag_14:\n  dataSize(sub_0)\n  dup1\n  dataOffset(sub_0)\n  0x00\n  codecopy\n  0x00\n  return\nstop\n\nsub_0: assembly {\n        /* \"contracts/Stake-2.0.sol\":1017:13009  contract Staking is ReentrancyGuard, Ownable {... */\n      mstore(0x40, 0x80)\n      callvalue\n      dup1\n      iszero\n      tag_1\n      jumpi\n      0x00\n      dup1\n      revert\n    tag_1:\n      pop\n      jumpi(tag_2, lt(calldatasize, 0x04))\n      shr(0xe0, calldataload(0x00))\n      dup1\n      0xa143a5f2\n      gt\n      tag_22\n      jumpi\n      dup1\n      0xc63aa3e7\n      gt\n      tag_23\n      jumpi\n      dup1\n      0xc63aa3e7\n      eq\n      tag_17\n      jumpi\n      dup1\n      0xcb79c2e1\n      eq\n      tag_18\n      jumpi\n      dup1\n      0xd2a569c3\n      eq\n      tag_19\n      jumpi\n      dup1\n      0xd5dbdf1b\n      eq\n      tag_20\n      jumpi\n      dup1\n      0xf2fde38b\n      eq\n      tag_21\n      jumpi\n      jump(tag_2)\n    tag_23:\n      dup1\n      0xa143a5f2\n      eq\n      tag_12\n      jumpi\n      dup1\n      0xa3ec138d\n      eq\n      tag_13\n      jumpi\n      dup1\n      0xb5d9df83\n      eq\n      tag_14\n      jumpi\n      dup1\n      0xb87da76d\n      eq\n      tag_15\n      jumpi\n      dup1\n      0xbed9d861\n      eq\n      tag_16\n      jumpi\n      jump(tag_2)\n    tag_22:\n      dup1\n      0x7b0472f0\n      gt\n      tag_24\n      jumpi\n      dup1\n      0x7b0472f0\n      eq\n      tag_7\n      jumpi\n      dup1\n      0x8891cf0d\n      eq\n      tag_8\n      jumpi\n      dup1\n      0x8c63f97f\n      eq\n      tag_9\n      jumpi\n      dup1\n      0x8c8e8fee\n      eq\n      tag_10\n      jumpi\n      dup1\n      0x8da5cb5b\n      eq\n      tag_11\n      jumpi\n      jump(tag_2)\n    tag_24:\n      dup1\n      0x10486b6a\n      eq\n      tag_3\n      jumpi\n      dup1\n      0x5b88349d\n      eq\n      tag_4\n      jumpi\n      dup1\n      0x5f5300ff\n      eq\n      tag_5\n      jumpi\n      dup1\n      0x715018a6\n      eq\n      tag_6\n      jumpi\n    tag_2:\n      0x00\n      dup1\n      revert\n        /* \"contracts/Stake-2.0.sol\":8597:9648  function hasStake() external view returns (StakingSummary memory) {... */\n    tag_3:\n      tag_25\n      tag_26\n      jump\t// in\n    tag_25:\n      mload(0x40)\n      tag_27\n      swap2\n      swap1\n      tag_28\n      jump\t// in\n    tag_27:\n      mload(0x40)\n      dup1\n      swap2\n      sub\n      swap1\n      return\n        /* \"contracts/Stake-2.0.sol\":10555:11160  function claimAirdrop() external {... */\n    tag_4:\n      tag_29\n      tag_30\n      jump\t// in\n    tag_29:\n      stop\n        /* \"contracts/Stake-2.0.sol\":1572:1598  uint256 public totalVoters */\n    tag_5:\n      tag_31\n      tag_32\n      jump\t// in\n    tag_31:\n      mload(0x40)\n      tag_33\n      swap2\n      swap1\n      tag_34\n      jump\t// in\n    tag_33:\n      mload(0x40)\n      dup1\n      swap2\n      sub\n      swap1\n      return\n        /* \"@openzeppelin/contracts/access/Ownable.sol\":1668:1769  function renounceOwnership() public virtual onlyOwner {... */\n    tag_6:\n      tag_35\n      tag_36\n      jump\t// in\n    tag_35:\n      stop\n        /* \"contracts/Stake-2.0.sol\":4459:5808  function stake(uint256 amount, uint256 stakePeriod) external nonReentrant {... */\n    tag_7:\n      tag_37\n      0x04\n      dup1\n      calldatasize\n      sub\n      dup2\n      add\n      swap1\n      tag_38\n      swap2\n      swap1\n      tag_39\n      jump\t// in\n    tag_38:\n      tag_40\n      jump\t// in\n    tag_37:\n      stop\n        /* \"contracts/Stake-2.0.sol\":1436:1462  uint256 public airdropRate */\n    tag_8:\n      tag_41\n      tag_42\n      jump\t// in\n    tag_41:\n      mload(0x40)\n      tag_43\n      swap2\n      swap1\n      tag_34\n      jump\t// in\n    tag_43:\n      mload(0x40)\n      dup1\n      swap2\n      sub\n      swap1\n      return\n        /* \"contracts/Stake-2.0.sol\":5816:6129  function changePenaltyFee(uint256 amount) external onlyOwner {... */\n    tag_9:\n      tag_44\n      0x04\n      dup1\n      calldatasize\n      sub\n      dup2\n      add\n      swap1\n      tag_45\n      swap2\n      swap1\n      tag_46\n      jump\t// in\n    tag_45:\n      tag_47\n      jump\t// in\n    tag_44:\n      stop\n        /* \"contracts/Stake-2.0.sol\":1705:1733  address public token_address */\n    tag_10:\n      tag_48\n      tag_49\n      jump\t// in\n    tag_48:\n      mload(0x40)\n      tag_50\n      swap2\n      swap1\n      tag_51\n      jump\t// in\n    tag_50:\n      mload(0x40)\n      dup1\n      swap2\n      sub\n      swap1\n      return\n        /* \"@openzeppelin/contracts/access/Ownable.sol\":1036:1121  function owner() public view virtual returns (address) {... */\n    tag_11:\n      tag_52\n      tag_53\n      jump\t// in\n    tag_52:\n      mload(0x40)\n      tag_54\n      swap2\n      swap1\n      tag_51\n      jump\t// in\n    tag_54:\n      mload(0x40)\n      dup1\n      swap2\n      sub\n      swap1\n      return\n        /* \"contracts/Stake-2.0.sol\":1651:1696  mapping(uint256 => uint256) public votedUsers */\n    tag_12:\n      tag_55\n      0x04\n      dup1\n      calldatasize\n      sub\n      dup2\n      add\n      swap1\n      tag_56\n      swap2\n      swap1\n      tag_46\n      jump\t// in\n    tag_56:\n      tag_57\n      jump\t// in\n    tag_55:\n      mload(0x40)\n      tag_58\n      swap2\n      swap1\n      tag_34\n      jump\t// in\n    tag_58:\n      mload(0x40)\n      dup1\n      swap2\n      sub\n      swap1\n      return\n        /* \"contracts/Stake-2.0.sol\":1605:1644  mapping(address => Voter) public voters */\n    tag_13:\n      tag_59\n      0x04\n      dup1\n      calldatasize\n      sub\n      dup2\n      add\n      swap1\n      tag_60\n      swap2\n      swap1\n      tag_61\n      jump\t// in\n    tag_60:\n      tag_62\n      jump\t// in\n    tag_59:\n      mload(0x40)\n      tag_63\n      swap2\n      swap1\n      tag_64\n      jump\t// in\n    tag_63:\n      mload(0x40)\n      dup1\n      swap2\n      sub\n      swap1\n      return\n        /* \"contracts/Stake-2.0.sol\":10218:10354  function calculateWeek(uint256 timestamp) public view returns (uint256) {... */\n    tag_14:\n      tag_65\n      0x04\n      dup1\n      calldatasize\n      sub\n      dup2\n      add\n      swap1\n      tag_66\n      swap2\n      swap1\n      tag_46\n      jump\t// in\n    tag_66:\n      tag_67\n      jump\t// in\n    tag_65:\n      mload(0x40)\n      tag_68\n      swap2\n      swap1\n      tag_34\n      jump\t// in\n    tag_68:\n      mload(0x40)\n      dup1\n      swap2\n      sub\n      swap1\n      return\n        /* \"contracts/Stake-2.0.sol\":1469:1496  uint256 public airdropSince */\n    tag_15:\n      tag_69\n      tag_70\n      jump\t// in\n    tag_69:\n      mload(0x40)\n      tag_71\n      swap2\n      swap1\n      tag_34\n      jump\t// in\n    tag_71:\n      mload(0x40)\n      dup1\n      swap2\n      sub\n      swap1\n      return\n        /* \"contracts/Stake-2.0.sol\":7569:8581  function withdrawStake() external nonReentrant {... */\n    tag_16:\n      tag_72\n      tag_73\n      jump\t// in\n    tag_72:\n      stop\n        /* \"contracts/Stake-2.0.sol\":10112:10210  function _blockTimestamp() public view returns (uint256) {... */\n    tag_17:\n      tag_74\n      tag_75\n      jump\t// in\n    tag_74:\n      mload(0x40)\n      tag_76\n      swap2\n      swap1\n      tag_34\n      jump\t// in\n    tag_76:\n      mload(0x40)\n      dup1\n      swap2\n      sub\n      swap1\n      return\n        /* \"contracts/Stake-2.0.sol\":1396:1429  uint256 public stakingPenaltyRate */\n    tag_18:\n      tag_77\n      tag_78\n      jump\t// in\n    tag_77:\n      mload(0x40)\n      tag_79\n      swap2\n      swap1\n      tag_34\n      jump\t// in\n    tag_79:\n      mload(0x40)\n      dup1\n      swap2\n      sub\n      swap1\n      return\n        /* \"contracts/Stake-2.0.sol\":9764:9856  function startAirdrop() external onlyOwner {... */\n    tag_19:\n      tag_80\n      tag_81\n      jump\t// in\n    tag_80:\n      stop\n        /* \"contracts/Stake-2.0.sol\":9864:10104  function changeAirdropPercentage(uint256 amount) external onlyOwner {... */\n    tag_20:\n      tag_82\n      0x04\n      dup1\n      calldatasize\n      sub\n      dup2\n      add\n      swap1\n      tag_83\n      swap2\n      swap1\n      tag_46\n      jump\t// in\n    tag_83:\n      tag_84\n      jump\t// in\n    tag_82:\n      stop\n        /* \"@openzeppelin/contracts/access/Ownable.sol\":1918:2116  function transferOwnership(address newOwner) public virtual onlyOwner {... */\n    tag_21:\n      tag_85\n      0x04\n      dup1\n      calldatasize\n      sub\n      dup2\n      add\n      swap1\n      tag_86\n      swap2\n      swap1\n      tag_61\n      jump\t// in\n    tag_86:\n      tag_87\n      jump\t// in\n    tag_85:\n      stop\n        /* \"contracts/Stake-2.0.sol\":8597:9648  function hasStake() external view returns (StakingSummary memory) {... */\n    tag_26:\n        /* \"contracts/Stake-2.0.sol\":8640:8661  StakingSummary memory */\n      tag_88\n      tag_89\n      jump\t// in\n    tag_88:\n        /* \"contracts/Stake-2.0.sol\":8674:8697  Stake memory user_stake */\n      0x00\n        /* \"contracts/Stake-2.0.sol\":8700:8712  stakeholders */\n      0x0c\n        /* \"contracts/Stake-2.0.sol\":8700:8724  stakeholders[msg.sender] */\n      0x00\n        /* \"contracts/Stake-2.0.sol\":8713:8723  msg.sender */\n      caller\n        /* \"contracts/Stake-2.0.sol\":8700:8724  stakeholders[msg.sender] */\n      0xffffffffffffffffffffffffffffffffffffffff\n      and\n      0xffffffffffffffffffffffffffffffffffffffff\n      and\n      dup2\n      mstore\n      0x20\n      add\n      swap1\n      dup2\n      mstore\n      0x20\n      add\n      0x00\n      keccak256\n        /* \"contracts/Stake-2.0.sol\":8674:8724  Stake memory user_stake = stakeholders[msg.sender] */\n      mload(0x40)\n      dup1\n      0xe0\n      add\n      0x40\n      mstore\n      swap1\n      dup2\n      0x00\n      dup3\n      add\n      sload\n      dup2\n      mstore\n      0x20\n      add\n      0x01\n      dup3\n      add\n      sload\n      dup2\n      mstore\n      0x20\n      add\n      0x02\n      dup3\n      add\n      sload\n      dup2\n      mstore\n      0x20\n      add\n      0x03\n      dup3\n      add\n      sload\n      dup2\n      mstore\n      0x20\n      add\n      0x04\n      dup3\n      add\n      sload\n      dup2\n      mstore\n      0x20\n      add\n      0x05\n      dup3\n      add\n      sload\n      dup2\n      mstore\n      0x20\n      add\n      0x06\n      dup3\n      add\n      sload\n      dup2\n      mstore\n      pop\n      pop\n      swap1\n      pop\n        /* \"contracts/Stake-2.0.sol\":8822:8823  0 */\n      0x00\n        /* \"contracts/Stake-2.0.sol\":8801:8811  user_stake */\n      dup2\n        /* \"contracts/Stake-2.0.sol\":8801:8818  user_stake.amount */\n      0x00\n      add\n      mload\n        /* \"contracts/Stake-2.0.sol\":8801:8823  user_stake.amount <= 0 */\n      gt\n        /* \"contracts/Stake-2.0.sol\":8797:8884  if (user_stake.amount <= 0) {... */\n      tag_91\n      jumpi\n        /* \"contracts/Stake-2.0.sol\":8847:8872  Staking__noStakingFound() */\n      mload(0x40)\n      0xb018f08700000000000000000000000000000000000000000000000000000000\n      dup2\n      mstore\n      0x04\n      add\n      mload(0x40)\n      dup1\n      swap2\n      sub\n      swap1\n      revert\n        /* \"contracts/Stake-2.0.sol\":8797:8884  if (user_stake.amount <= 0) {... */\n    tag_91:\n        /* \"contracts/Stake-2.0.sol\":8894:8923  StakingSummary memory summary */\n      0x00\n        /* \"contracts/Stake-2.0.sol\":8926:8958  StakingSummary(0, 0, user_stake) */\n      mload(0x40)\n      dup1\n      0x60\n      add\n      0x40\n      mstore\n      dup1\n        /* \"contracts/Stake-2.0.sol\":8941:8942  0 */\n      0x00\n        /* \"contracts/Stake-2.0.sol\":8926:8958  StakingSummary(0, 0, user_stake) */\n      dup2\n      mstore\n      0x20\n      add\n        /* \"contracts/Stake-2.0.sol\":8944:8945  0 */\n      0x00\n        /* \"contracts/Stake-2.0.sol\":8926:8958  StakingSummary(0, 0, user_stake) */\n      dup2\n      mstore\n      0x20\n      add\n        /* \"contracts/Stake-2.0.sol\":8947:8957  user_stake */\n      dup4\n        /* \"contracts/Stake-2.0.sol\":8926:8958  StakingSummary(0, 0, user_stake) */\n      dup2\n      mstore\n      pop\n        /* \"contracts/Stake-2.0.sol\":8894:8958  StakingSummary memory summary = StakingSummary(0, 0, user_stake) */\n      swap1\n      pop\n        /* \"contracts/Stake-2.0.sol\":8971:8985  uint256 reward */\n      0x00\n        /* \"contracts/Stake-2.0.sol\":8988:9021  _calculateStakeReward(user_stake) */\n      tag_92\n        /* \"contracts/Stake-2.0.sol\":9010:9020  user_stake */\n      dup4\n        /* \"contracts/Stake-2.0.sol\":8988:9009  _calculateStakeReward */\n      tag_93\n        /* \"contracts/Stake-2.0.sol\":8988:9021  _calculateStakeReward(user_stake) */\n      jump\t// in\n    tag_92:\n        /* \"contracts/Stake-2.0.sol\":8971:9021  uint256 reward = _calculateStakeReward(user_stake) */\n      swap1\n      pop\n        /* \"contracts/Stake-2.0.sol\":9066:9081  block.timestamp */\n      timestamp\n        /* \"contracts/Stake-2.0.sol\":9038:9045  summary */\n      dup3\n        /* \"contracts/Stake-2.0.sol\":9038:9051  summary.stake */\n      0x40\n      add\n      mload\n        /* \"contracts/Stake-2.0.sol\":9038:9063  summary.stake.releaseTime */\n      0x60\n      add\n      mload\n        /* \"contracts/Stake-2.0.sol\":9038:9081  summary.stake.releaseTime > block.timestamp */\n      gt\n        /* \"contracts/Stake-2.0.sol\":9034:9252  if (summary.stake.releaseTime > block.timestamp) {... */\n      iszero\n      tag_94\n      jumpi\n        /* \"contracts/Stake-2.0.sol\":9235:9239  1000 */\n      0x03e8\n        /* \"contracts/Stake-2.0.sol\":9213:9231  stakingPenaltyRate */\n      sload(0x03)\n        /* \"contracts/Stake-2.0.sol\":9204:9210  reward */\n      dup3\n        /* \"contracts/Stake-2.0.sol\":9204:9231  reward * stakingPenaltyRate */\n      tag_95\n      swap2\n      swap1\n      tag_96\n      jump\t// in\n    tag_95:\n        /* \"contracts/Stake-2.0.sol\":9203:9239  (reward * stakingPenaltyRate) / 1000 */\n      tag_97\n      swap2\n      swap1\n      tag_98\n      jump\t// in\n    tag_97:\n        /* \"contracts/Stake-2.0.sol\":9177:9181  1000 */\n      0x03e8\n        /* \"contracts/Stake-2.0.sol\":9155:9173  stakingPenaltyRate */\n      sload(0x03)\n        /* \"contracts/Stake-2.0.sol\":9135:9145  user_stake */\n      dup6\n        /* \"contracts/Stake-2.0.sol\":9135:9152  user_stake.amount */\n      0x00\n      add\n      mload\n        /* \"contracts/Stake-2.0.sol\":9135:9173  user_stake.amount * stakingPenaltyRate */\n      tag_99\n      swap2\n      swap1\n      tag_96\n      jump\t// in\n    tag_99:\n        /* \"contracts/Stake-2.0.sol\":9134:9181  (user_stake.amount * stakingPenaltyRate) / 1000 */\n      tag_100\n      swap2\n      swap1\n      tag_98\n      jump\t// in\n    tag_100:\n        /* \"contracts/Stake-2.0.sol\":9133:9240  ((user_stake.amount * stakingPenaltyRate) / 1000) +... */\n      tag_101\n      swap2\n      swap1\n      tag_102\n      jump\t// in\n    tag_101:\n        /* \"contracts/Stake-2.0.sol\":9098:9105  summary */\n      dup3\n        /* \"contracts/Stake-2.0.sol\":9098:9113  summary.penalty */\n      0x20\n      add\n        /* \"contracts/Stake-2.0.sol\":9098:9240  summary.penalty =... */\n      dup2\n      dup2\n      mstore\n      pop\n      pop\n        /* \"contracts/Stake-2.0.sol\":9034:9252  if (summary.stake.releaseTime > block.timestamp) {... */\n    tag_94:\n        /* \"contracts/Stake-2.0.sol\":9312:9313  0 */\n      0x00\n        /* \"contracts/Stake-2.0.sol\":9268:9309  calculateWeek(user_stake.latestClaimDrop) */\n      tag_103\n        /* \"contracts/Stake-2.0.sol\":9282:9292  user_stake */\n      dup5\n        /* \"contracts/Stake-2.0.sol\":9282:9308  user_stake.latestClaimDrop */\n      0xc0\n      add\n      mload\n        /* \"contracts/Stake-2.0.sol\":9268:9281  calculateWeek */\n      tag_67\n        /* \"contracts/Stake-2.0.sol\":9268:9309  calculateWeek(user_stake.latestClaimDrop) */\n      jump\t// in\n    tag_103:\n        /* \"contracts/Stake-2.0.sol\":9268:9313  calculateWeek(user_stake.latestClaimDrop) > 0 */\n      gt\n        /* \"contracts/Stake-2.0.sol\":9264:9518  if (calculateWeek(user_stake.latestClaimDrop) > 0) {... */\n      iszero\n      tag_104\n      jumpi\n        /* \"contracts/Stake-2.0.sol\":9330:9345  uint256 airdrop */\n      0x00\n        /* \"contracts/Stake-2.0.sol\":9348:9384  _calculateAirdrop(user_stake.amount) */\n      tag_105\n        /* \"contracts/Stake-2.0.sol\":9366:9376  user_stake */\n      dup5\n        /* \"contracts/Stake-2.0.sol\":9366:9383  user_stake.amount */\n      0x00\n      add\n      mload\n        /* \"contracts/Stake-2.0.sol\":9348:9365  _calculateAirdrop */\n      tag_106\n        /* \"contracts/Stake-2.0.sol\":9348:9384  _calculateAirdrop(user_stake.amount) */\n      jump\t// in\n    tag_105:\n        /* \"contracts/Stake-2.0.sol\":9330:9384  uint256 airdrop = _calculateAirdrop(user_stake.amount) */\n      swap1\n      pop\n        /* \"contracts/Stake-2.0.sol\":9432:9439  airdrop */\n      dup1\n        /* \"contracts/Stake-2.0.sol\":9399:9406  summary */\n      dup4\n        /* \"contracts/Stake-2.0.sol\":9399:9412  summary.stake */\n      0x40\n      add\n      mload\n        /* \"contracts/Stake-2.0.sol\":9399:9429  summary.stake.claimableAirdrop */\n      0xa0\n      add\n        /* \"contracts/Stake-2.0.sol\":9399:9439  summary.stake.claimableAirdrop = airdrop */\n      dup2\n      dup2\n      mstore\n      pop\n      pop\n        /* \"contracts/Stake-2.0.sol\":9315:9451  {... */\n      pop\n        /* \"contracts/Stake-2.0.sol\":9264:9518  if (calculateWeek(user_stake.latestClaimDrop) > 0) {... */\n      jump(tag_107)\n    tag_104:\n        /* \"contracts/Stake-2.0.sol\":9505:9506  0 */\n      0x00\n        /* \"contracts/Stake-2.0.sol\":9472:9479  summary */\n      dup3\n        /* \"contracts/Stake-2.0.sol\":9472:9485  summary.stake */\n      0x40\n      add\n      mload\n        /* \"contracts/Stake-2.0.sol\":9472:9502  summary.stake.claimableAirdrop */\n      0xa0\n      add\n        /* \"contracts/Stake-2.0.sol\":9472:9506  summary.stake.claimableAirdrop = 0 */\n      dup2\n      dup2\n      mstore\n      pop\n      pop\n        /* \"contracts/Stake-2.0.sol\":9264:9518  if (calculateWeek(user_stake.latestClaimDrop) > 0) {... */\n    tag_107:\n        /* \"contracts/Stake-2.0.sol\":9556:9562  reward */\n      dup1\n        /* \"contracts/Stake-2.0.sol\":9530:9537  summary */\n      dup3\n        /* \"contracts/Stake-2.0.sol\":9530:9543  summary.stake */\n      0x40\n      add\n      mload\n        /* \"contracts/Stake-2.0.sol\":9530:9553  summary.stake.claimable */\n      0x80\n      add\n        /* \"contracts/Stake-2.0.sol\":9530:9562  summary.stake.claimable = reward */\n      dup2\n      dup2\n      mstore\n      pop\n      pop\n        /* \"contracts/Stake-2.0.sol\":9596:9606  user_stake */\n      dup3\n        /* \"contracts/Stake-2.0.sol\":9596:9613  user_stake.amount */\n      0x00\n      add\n      mload\n        /* \"contracts/Stake-2.0.sol\":9573:9580  summary */\n      dup3\n        /* \"contracts/Stake-2.0.sol\":9573:9593  summary.total_amount */\n      0x00\n      add\n        /* \"contracts/Stake-2.0.sol\":9573:9613  summary.total_amount = user_stake.amount */\n      dup2\n      dup2\n      mstore\n      pop\n      pop\n        /* \"contracts/Stake-2.0.sol\":9633:9640  summary */\n      dup2\n        /* \"contracts/Stake-2.0.sol\":9626:9640  return summary */\n      swap4\n      pop\n      pop\n      pop\n      pop\n        /* \"contracts/Stake-2.0.sol\":8597:9648  function hasStake() external view returns (StakingSummary memory) {... */\n      swap1\n      jump\t// out\n        /* \"contracts/Stake-2.0.sol\":10555:11160  function claimAirdrop() external {... */\n    tag_30:\n        /* \"contracts/Stake-2.0.sol\":10652:10672  Stake storage staker */\n      0x00\n        /* \"contracts/Stake-2.0.sol\":10675:10687  stakeholders */\n      0x0c\n        /* \"contracts/Stake-2.0.sol\":10675:10699  stakeholders[msg.sender] */\n      0x00\n        /* \"contracts/Stake-2.0.sol\":10688:10698  msg.sender */\n      caller\n        /* \"contracts/Stake-2.0.sol\":10675:10699  stakeholders[msg.sender] */\n      0xffffffffffffffffffffffffffffffffffffffff\n      and\n      0xffffffffffffffffffffffffffffffffffffffff\n      and\n      dup2\n      mstore\n      0x20\n      add\n      swap1\n      dup2\n      mstore\n      0x20\n      add\n      0x00\n      keccak256\n        /* \"contracts/Stake-2.0.sol\":10652:10699  Stake storage staker = stakeholders[msg.sender] */\n      swap1\n      pop\n        /* \"contracts/Stake-2.0.sol\":10732:10733  0 */\n      0x00\n        /* \"contracts/Stake-2.0.sol\":10716:10722  staker */\n      dup2\n        /* \"contracts/Stake-2.0.sol\":10716:10729  staker.amount */\n      0x00\n      add\n      sload\n        /* \"contracts/Stake-2.0.sol\":10716:10733  staker.amount > 0 */\n      gt\n        /* \"contracts/Stake-2.0.sol\":10712:11153  if (staker.amount > 0) {... */\n      iszero\n      tag_109\n      jumpi\n        /* \"contracts/Stake-2.0.sol\":10795:10796  0 */\n      0x00\n        /* \"contracts/Stake-2.0.sol\":10754:10791  calculateWeek(staker.latestClaimDrop) */\n      tag_110\n        /* \"contracts/Stake-2.0.sol\":10768:10774  staker */\n      dup3\n        /* \"contracts/Stake-2.0.sol\":10768:10790  staker.latestClaimDrop */\n      0x06\n      add\n      sload\n        /* \"contracts/Stake-2.0.sol\":10754:10767  calculateWeek */\n      tag_67\n        /* \"contracts/Stake-2.0.sol\":10754:10791  calculateWeek(staker.latestClaimDrop) */\n      jump\t// in\n    tag_110:\n        /* \"contracts/Stake-2.0.sol\":10754:10796  calculateWeek(staker.latestClaimDrop) == 0 */\n      eq\n        /* \"contracts/Stake-2.0.sol\":10750:10869  if (calculateWeek(staker.latestClaimDrop) == 0) {... */\n      iszero\n      tag_111\n      jumpi\n        /* \"contracts/Stake-2.0.sol\":10824:10853  Airdrop__claimableOnceAWeek() */\n      mload(0x40)\n      0xdd8456cc00000000000000000000000000000000000000000000000000000000\n      dup2\n      mstore\n      0x04\n      add\n      mload(0x40)\n      dup1\n      swap2\n      sub\n      swap1\n      revert\n        /* \"contracts/Stake-2.0.sol\":10750:10869  if (calculateWeek(staker.latestClaimDrop) == 0) {... */\n    tag_111:\n        /* \"contracts/Stake-2.0.sol\":10911:10912  0 */\n      0x00\n        /* \"contracts/Stake-2.0.sol\":10885:10891  staker */\n      dup2\n        /* \"contracts/Stake-2.0.sol\":10885:10908  staker.claimableAirdrop */\n      0x05\n      add\n        /* \"contracts/Stake-2.0.sol\":10885:10912  staker.claimableAirdrop = 0 */\n      dup2\n      swap1\n      sstore\n      pop\n        /* \"contracts/Stake-2.0.sol\":10952:10967  block.timestamp */\n      timestamp\n        /* \"contracts/Stake-2.0.sol\":10927:10933  staker */\n      dup2\n        /* \"contracts/Stake-2.0.sol\":10927:10949  staker.latestClaimDrop */\n      0x06\n      add\n        /* \"contracts/Stake-2.0.sol\":10927:10967  staker.latestClaimDrop = block.timestamp */\n      dup2\n      swap1\n      sstore\n      pop\n        /* \"contracts/Stake-2.0.sol\":10984:11141  SafeERC20.safeTransfer(... */\n      tag_112\n        /* \"contracts/Stake-2.0.sol\":11032:11045  token_address */\n      0x0b\n      0x00\n      swap1\n      sload\n      swap1\n      0x0100\n      exp\n      swap1\n      div\n      0xffffffffffffffffffffffffffffffffffffffff\n      and\n        /* \"contracts/Stake-2.0.sol\":11065:11075  msg.sender */\n      caller\n        /* \"contracts/Stake-2.0.sol\":11094:11126  _calculateAirdrop(staker.amount) */\n      tag_113\n        /* \"contracts/Stake-2.0.sol\":11112:11118  staker */\n      dup5\n        /* \"contracts/Stake-2.0.sol\":11112:11125  staker.amount */\n      0x00\n      add\n      sload\n        /* \"contracts/Stake-2.0.sol\":11094:11111  _calculateAirdrop */\n      tag_106\n        /* \"contracts/Stake-2.0.sol\":11094:11126  _calculateAirdrop(staker.amount) */\n      jump\t// in\n    tag_113:\n        /* \"contracts/Stake-2.0.sol\":10984:11006  SafeERC20.safeTransfer */\n      tag_114\n        /* \"contracts/Stake-2.0.sol\":10984:11141  SafeERC20.safeTransfer(... */\n      jump\t// in\n    tag_112:\n        /* \"contracts/Stake-2.0.sol\":10712:11153  if (staker.amount > 0) {... */\n    tag_109:\n        /* \"contracts/Stake-2.0.sol\":10588:11160  {... */\n      pop\n        /* \"contracts/Stake-2.0.sol\":10555:11160  function claimAirdrop() external {... */\n      jump\t// out\n        /* \"contracts/Stake-2.0.sol\":1572:1598  uint256 public totalVoters */\n    tag_32:\n      sload(0x08)\n      dup2\n      jump\t// out\n        /* \"@openzeppelin/contracts/access/Ownable.sol\":1668:1769  function renounceOwnership() public virtual onlyOwner {... */\n    tag_36:\n        /* \"@openzeppelin/contracts/access/Ownable.sol\":1259:1271  _msgSender() */\n      tag_116\n        /* \"@openzeppelin/contracts/access/Ownable.sol\":1259:1269  _msgSender */\n      tag_117\n        /* \"@openzeppelin/contracts/access/Ownable.sol\":1259:1271  _msgSender() */\n      jump\t// in\n    tag_116:\n        /* \"@openzeppelin/contracts/access/Ownable.sol\":1248:1271  owner() == _msgSender() */\n      0xffffffffffffffffffffffffffffffffffffffff\n      and\n        /* \"@openzeppelin/contracts/access/Ownable.sol\":1248:1255  owner() */\n      tag_118\n        /* \"@openzeppelin/contracts/access/Ownable.sol\":1248:1253  owner */\n      tag_53\n        /* \"@openzeppelin/contracts/access/Ownable.sol\":1248:1255  owner() */\n      jump\t// in\n    tag_118:\n        /* \"@openzeppelin/contracts/access/Ownable.sol\":1248:1271  owner() == _msgSender() */\n      0xffffffffffffffffffffffffffffffffffffffff\n      and\n      eq\n        /* \"@openzeppelin/contracts/access/Ownable.sol\":1240:1308  require(owner() == _msgSender(), \"Ownable: caller is not the owner\") */\n      tag_119\n      jumpi\n      mload(0x40)\n      0x08c379a000000000000000000000000000000000000000000000000000000000\n      dup2\n      mstore\n      0x04\n      add\n      tag_120\n      swap1\n      tag_121\n      jump\t// in\n    tag_120:\n      mload(0x40)\n      dup1\n      swap2\n      sub\n      swap1\n      revert\n    tag_119:\n        /* \"@openzeppelin/contracts/access/Ownable.sol\":1732:1762  _transferOwnership(address(0)) */\n      tag_123\n        /* \"@openzeppelin/contracts/access/Ownable.sol\":1759:1760  0 */\n      0x00\n        /* \"@openzeppelin/contracts/access/Ownable.sol\":1732:1750  _transferOwnership */\n      tag_124\n        /* \"@openzeppelin/contracts/access/Ownable.sol\":1732:1762  _transferOwnership(address(0)) */\n      jump\t// in\n    tag_123:\n        /* \"@openzeppelin/contracts/access/Ownable.sol\":1668:1769  function renounceOwnership() public virtual onlyOwner {... */\n      jump\t// out\n        /* \"contracts/Stake-2.0.sol\":4459:5808  function stake(uint256 amount, uint256 stakePeriod) external nonReentrant {... */\n    tag_40:\n        /* \"@openzeppelin/contracts/security/ReentrancyGuard.sol\":1744:1745  2 */\n      0x02\n        /* \"@openzeppelin/contracts/security/ReentrancyGuard.sol\":2325:2332  _status */\n      sload(0x00)\n        /* \"@openzeppelin/contracts/security/ReentrancyGuard.sol\":2325:2344  _status != _ENTERED */\n      eq\n      iszero\n        /* \"@openzeppelin/contracts/security/ReentrancyGuard.sol\":2317:2380  require(_status != _ENTERED, \"ReentrancyGuard: reentrant call\") */\n      tag_126\n      jumpi\n      mload(0x40)\n      0x08c379a000000000000000000000000000000000000000000000000000000000\n      dup2\n      mstore\n      0x04\n      add\n      tag_127\n      swap1\n      tag_128\n      jump\t// in\n    tag_127:\n      mload(0x40)\n      dup1\n      swap2\n      sub\n      swap1\n      revert\n    tag_126:\n        /* \"@openzeppelin/contracts/security/ReentrancyGuard.sol\":1744:1745  2 */\n      0x02\n        /* \"@openzeppelin/contracts/security/ReentrancyGuard.sol\":2455:2462  _status */\n      0x00\n        /* \"@openzeppelin/contracts/security/ReentrancyGuard.sol\":2455:2473  _status = _ENTERED */\n      dup2\n      swap1\n      sstore\n      pop\n        /* \"contracts/Stake-2.0.sol\":4768:4769  0 */\n      0x00\n        /* \"contracts/Stake-2.0.sol\":4733:4745  stakeholders */\n      0x0c\n        /* \"contracts/Stake-2.0.sol\":4733:4757  stakeholders[msg.sender] */\n      0x00\n        /* \"contracts/Stake-2.0.sol\":4746:4756  msg.sender */\n      caller\n        /* \"contracts/Stake-2.0.sol\":4733:4757  stakeholders[msg.sender] */\n      0xffffffffffffffffffffffffffffffffffffffff\n      and\n      0xffffffffffffffffffffffffffffffffffffffff\n      and\n      dup2\n      mstore\n      0x20\n      add\n      swap1\n      dup2\n      mstore\n      0x20\n      add\n      0x00\n      keccak256\n        /* \"contracts/Stake-2.0.sol\":4733:4764  stakeholders[msg.sender].amount */\n      0x00\n      add\n      sload\n        /* \"contracts/Stake-2.0.sol\":4733:4769  stakeholders[msg.sender].amount != 0 */\n      eq\n        /* \"contracts/Stake-2.0.sol\":4729:4828  if (stakeholders[msg.sender].amount != 0) {... */\n      tag_130\n      jumpi\n        /* \"contracts/Stake-2.0.sol\":4793:4816  Staking__userIsStaker() */\n      mload(0x40)\n      0x04462d2700000000000000000000000000000000000000000000000000000000\n      dup2\n      mstore\n      0x04\n      add\n      mload(0x40)\n      dup1\n      swap2\n      sub\n      swap1\n      revert\n        /* \"contracts/Stake-2.0.sol\":4729:4828  if (stakeholders[msg.sender].amount != 0) {... */\n    tag_130:\n        /* \"contracts/Stake-2.0.sol\":4875:4876  0 */\n      0x00\n        /* \"contracts/Stake-2.0.sol\":4844:4858  stakingPackage */\n      0x02\n        /* \"contracts/Stake-2.0.sol\":4844:4871  stakingPackage[stakePeriod] */\n      0x00\n        /* \"contracts/Stake-2.0.sol\":4859:4870  stakePeriod */\n      dup4\n        /* \"contracts/Stake-2.0.sol\":4844:4871  stakingPackage[stakePeriod] */\n      dup2\n      mstore\n      0x20\n      add\n      swap1\n      dup2\n      mstore\n      0x20\n      add\n      0x00\n      keccak256\n      sload\n        /* \"contracts/Stake-2.0.sol\":4844:4876  stakingPackage[stakePeriod] == 0 */\n      eq\n        /* \"contracts/Stake-2.0.sol\":4840:4943  if (stakingPackage[stakePeriod] == 0) {... */\n      iszero\n      tag_131\n      jumpi\n        /* \"contracts/Stake-2.0.sol\":4900:4931  Staking_noStakingPackageFound() */\n      mload(0x40)\n      0x95377be400000000000000000000000000000000000000000000000000000000\n      dup2\n      mstore\n      0x04\n      add\n      mload(0x40)\n      dup1\n      swap2\n      sub\n      swap1\n      revert\n        /* \"contracts/Stake-2.0.sol\":4840:4943  if (stakingPackage[stakePeriod] == 0) {... */\n    tag_131:\n        /* \"contracts/Stake-2.0.sol\":4970:4971  1 */\n      0x01\n        /* \"contracts/Stake-2.0.sol\":4955:4966  totalVoters */\n      0x08\n      0x00\n        /* \"contracts/Stake-2.0.sol\":4955:4971  totalVoters += 1 */\n      dup3\n      dup3\n      sload\n      tag_132\n      swap2\n      swap1\n      tag_102\n      jump\t// in\n    tag_132:\n      swap3\n      pop\n      pop\n      dup2\n      swap1\n      sstore\n      pop\n        /* \"contracts/Stake-2.0.sol\":5015:5019  true */\n      0x01\n        /* \"contracts/Stake-2.0.sol\":4982:4988  voters */\n      0x09\n        /* \"contracts/Stake-2.0.sol\":4982:5000  voters[msg.sender] */\n      0x00\n        /* \"contracts/Stake-2.0.sol\":4989:4999  msg.sender */\n      caller\n        /* \"contracts/Stake-2.0.sol\":4982:5000  voters[msg.sender] */\n      0xffffffffffffffffffffffffffffffffffffffff\n      and\n      0xffffffffffffffffffffffffffffffffffffffff\n      and\n      dup2\n      mstore\n      0x20\n      add\n      swap1\n      dup2\n      mstore\n      0x20\n      add\n      0x00\n      keccak256\n        /* \"contracts/Stake-2.0.sol\":4982:5012  voters[msg.sender].votingRight */\n      0x00\n      add\n      0x00\n        /* \"contracts/Stake-2.0.sol\":4982:5019  voters[msg.sender].votingRight = true */\n      0x0100\n      exp\n      dup2\n      sload\n      dup2\n      0xff\n      mul\n      not\n      and\n      swap1\n      dup4\n      iszero\n      iszero\n      mul\n      or\n      swap1\n      sstore\n      pop\n        /* \"contracts/Stake-2.0.sol\":5120:5137  uint256 timestamp */\n      0x00\n        /* \"contracts/Stake-2.0.sol\":5140:5155  block.timestamp */\n      timestamp\n        /* \"contracts/Stake-2.0.sol\":5120:5155  uint256 timestamp = block.timestamp */\n      swap1\n      pop\n        /* \"contracts/Stake-2.0.sol\":5316:5507  Stake(... */\n      mload(0x40)\n      dup1\n      0xe0\n      add\n      0x40\n      mstore\n      dup1\n        /* \"contracts/Stake-2.0.sol\":5336:5342  amount */\n      dup5\n        /* \"contracts/Stake-2.0.sol\":5316:5507  Stake(... */\n      dup2\n      mstore\n      0x20\n      add\n        /* \"contracts/Stake-2.0.sol\":5357:5366  timestamp */\n      dup3\n        /* \"contracts/Stake-2.0.sol\":5316:5507  Stake(... */\n      dup2\n      mstore\n      0x20\n      add\n        /* \"contracts/Stake-2.0.sol\":5381:5395  stakingPackage */\n      0x02\n        /* \"contracts/Stake-2.0.sol\":5381:5408  stakingPackage[stakePeriod] */\n      0x00\n        /* \"contracts/Stake-2.0.sol\":5396:5407  stakePeriod */\n      dup6\n        /* \"contracts/Stake-2.0.sol\":5381:5408  stakingPackage[stakePeriod] */\n      dup2\n      mstore\n      0x20\n      add\n      swap1\n      dup2\n      mstore\n      0x20\n      add\n      0x00\n      keccak256\n      sload\n        /* \"contracts/Stake-2.0.sol\":5316:5507  Stake(... */\n      dup2\n      mstore\n      0x20\n      add\n        /* \"contracts/Stake-2.0.sol\":5438:5447  timestamp */\n      dup3\n        /* \"contracts/Stake-2.0.sol\":5424:5435  stakePeriod */\n      dup5\n        /* \"contracts/Stake-2.0.sol\":5424:5447  stakePeriod + timestamp */\n      tag_133\n      swap2\n      swap1\n      tag_102\n      jump\t// in\n    tag_133:\n        /* \"contracts/Stake-2.0.sol\":5316:5507  Stake(... */\n      dup2\n      mstore\n      0x20\n      add\n        /* \"contracts/Stake-2.0.sol\":5463:5464  0 */\n      0x00\n        /* \"contracts/Stake-2.0.sol\":5316:5507  Stake(... */\n      dup2\n      mstore\n      0x20\n      add\n        /* \"contracts/Stake-2.0.sol\":5479:5480  0 */\n      0x00\n        /* \"contracts/Stake-2.0.sol\":5316:5507  Stake(... */\n      dup2\n      mstore\n      0x20\n      add\n        /* \"contracts/Stake-2.0.sol\":5495:5496  0 */\n      0x00\n        /* \"contracts/Stake-2.0.sol\":5316:5507  Stake(... */\n      dup2\n      mstore\n      pop\n        /* \"contracts/Stake-2.0.sol\":5289:5301  stakeholders */\n      0x0c\n        /* \"contracts/Stake-2.0.sol\":5289:5313  stakeholders[msg.sender] */\n      0x00\n        /* \"contracts/Stake-2.0.sol\":5302:5312  msg.sender */\n      caller\n        /* \"contracts/Stake-2.0.sol\":5289:5313  stakeholders[msg.sender] */\n      0xffffffffffffffffffffffffffffffffffffffff\n      and\n      0xffffffffffffffffffffffffffffffffffffffff\n      and\n      dup2\n      mstore\n      0x20\n      add\n      swap1\n      dup2\n      mstore\n      0x20\n      add\n      0x00\n      keccak256\n        /* \"contracts/Stake-2.0.sol\":5289:5507  stakeholders[msg.sender] = Stake(... */\n      0x00\n      dup3\n      add\n      mload\n      dup2\n      0x00\n      add\n      sstore\n      0x20\n      dup3\n      add\n      mload\n      dup2\n      0x01\n      add\n      sstore\n      0x40\n      dup3\n      add\n      mload\n      dup2\n      0x02\n      add\n      sstore\n      0x60\n      dup3\n      add\n      mload\n      dup2\n      0x03\n      add\n      sstore\n      0x80\n      dup3\n      add\n      mload\n      dup2\n      0x04\n      add\n      sstore\n      0xa0\n      dup3\n      add\n      mload\n      dup2\n      0x05\n      add\n      sstore\n      0xc0\n      dup3\n      add\n      mload\n      dup2\n      0x06\n      add\n      sstore\n      swap1\n      pop\n      pop\n        /* \"contracts/Stake-2.0.sol\":5520:5667  SafeERC20.safeTransferFrom(... */\n      tag_134\n        /* \"contracts/Stake-2.0.sol\":5568:5581  token_address */\n      0x0b\n      0x00\n      swap1\n      sload\n      swap1\n      0x0100\n      exp\n      swap1\n      div\n      0xffffffffffffffffffffffffffffffffffffffff\n      and\n        /* \"contracts/Stake-2.0.sol\":5597:5607  msg.sender */\n      caller\n        /* \"contracts/Stake-2.0.sol\":5630:5634  this */\n      address\n        /* \"contracts/Stake-2.0.sol\":5650:5656  amount */\n      dup7\n        /* \"contracts/Stake-2.0.sol\":5520:5546  SafeERC20.safeTransferFrom */\n      tag_135\n        /* \"contracts/Stake-2.0.sol\":5520:5667  SafeERC20.safeTransferFrom(... */\n      jump\t// in\n    tag_134:\n        /* \"contracts/Stake-2.0.sol\":5743:5753  msg.sender */\n      caller\n        /* \"contracts/Stake-2.0.sol\":5736:5800  Staked(msg.sender, amount, timestamp, (stakePeriod + timestamp)) */\n      0xffffffffffffffffffffffffffffffffffffffff\n      and\n      0xb4caaf29adda3eefee3ad552a8e85058589bf834c7466cae4ee58787f70589ed\n        /* \"contracts/Stake-2.0.sol\":5755:5761  amount */\n      dup5\n        /* \"contracts/Stake-2.0.sol\":5763:5772  timestamp */\n      dup4\n        /* \"contracts/Stake-2.0.sol\":5789:5798  timestamp */\n      dup5\n        /* \"contracts/Stake-2.0.sol\":5775:5786  stakePeriod */\n      dup7\n        /* \"contracts/Stake-2.0.sol\":5775:5798  stakePeriod + timestamp */\n      tag_136\n      swap2\n      swap1\n      tag_102\n      jump\t// in\n    tag_136:\n        /* \"contracts/Stake-2.0.sol\":5736:5800  Staked(msg.sender, amount, timestamp, (stakePeriod + timestamp)) */\n      mload(0x40)\n      tag_137\n      swap4\n      swap3\n      swap2\n      swap1\n      tag_138\n      jump\t// in\n    tag_137:\n      mload(0x40)\n      dup1\n      swap2\n      sub\n      swap1\n      log2\n        /* \"contracts/Stake-2.0.sol\":4533:5808  {... */\n      pop\n        /* \"@openzeppelin/contracts/security/ReentrancyGuard.sol\":1701:1702  1 */\n      0x01\n        /* \"@openzeppelin/contracts/security/ReentrancyGuard.sol\":2628:2635  _status */\n      0x00\n        /* \"@openzeppelin/contracts/security/ReentrancyGuard.sol\":2628:2650  _status = _NOT_ENTERED */\n      dup2\n      swap1\n      sstore\n      pop\n        /* \"contracts/Stake-2.0.sol\":4459:5808  function stake(uint256 amount, uint256 stakePeriod) external nonReentrant {... */\n      pop\n      pop\n      jump\t// out\n        /* \"contracts/Stake-2.0.sol\":1436:1462  uint256 public airdropRate */\n    tag_42:\n      sload(0x04)\n      dup2\n      jump\t// out\n        /* \"contracts/Stake-2.0.sol\":5816:6129  function changePenaltyFee(uint256 amount) external onlyOwner {... */\n    tag_47:\n        /* \"@openzeppelin/contracts/access/Ownable.sol\":1259:1271  _msgSender() */\n      tag_140\n        /* \"@openzeppelin/contracts/access/Ownable.sol\":1259:1269  _msgSender */\n      tag_117\n        /* \"@openzeppelin/contracts/access/Ownable.sol\":1259:1271  _msgSender() */\n      jump\t// in\n    tag_140:\n        /* \"@openzeppelin/contracts/access/Ownable.sol\":1248:1271  owner() == _msgSender() */\n      0xffffffffffffffffffffffffffffffffffffffff\n      and\n        /* \"@openzeppelin/contracts/access/Ownable.sol\":1248:1255  owner() */\n      tag_141\n        /* \"@openzeppelin/contracts/access/Ownable.sol\":1248:1253  owner */\n      tag_53\n        /* \"@openzeppelin/contracts/access/Ownable.sol\":1248:1255  owner() */\n      jump\t// in\n    tag_141:\n        /* \"@openzeppelin/contracts/access/Ownable.sol\":1248:1271  owner() == _msgSender() */\n      0xffffffffffffffffffffffffffffffffffffffff\n      and\n      eq\n        /* \"@openzeppelin/contracts/access/Ownable.sol\":1240:1308  require(owner() == _msgSender(), \"Ownable: caller is not the owner\") */\n      tag_142\n      jumpi\n      mload(0x40)\n      0x08c379a000000000000000000000000000000000000000000000000000000000\n      dup2\n      mstore\n      0x04\n      add\n      tag_143\n      swap1\n      tag_121\n      jump\t// in\n    tag_143:\n      mload(0x40)\n      dup1\n      swap2\n      sub\n      swap1\n      revert\n    tag_142:\n        /* \"contracts/Stake-2.0.sol\":5976:5978  30 */\n      0x1e\n        /* \"contracts/Stake-2.0.sol\":5967:5973  amount */\n      dup2\n        /* \"contracts/Stake-2.0.sol\":5967:5978  amount > 30 */\n      gt\n        /* \"contracts/Stake-2.0.sol\":5963:6046  if (amount > 30) {... */\n      iszero\n      tag_145\n      jumpi\n        /* \"contracts/Stake-2.0.sol\":6002:6034  Staking__penaltyExceed3Percent() */\n      mload(0x40)\n      0xf1a470d700000000000000000000000000000000000000000000000000000000\n      dup2\n      mstore\n      0x04\n      add\n      mload(0x40)\n      dup1\n      swap2\n      sub\n      swap1\n      revert\n        /* \"contracts/Stake-2.0.sol\":5963:6046  if (amount > 30) {... */\n    tag_145:\n        /* \"contracts/Stake-2.0.sol\":6077:6083  amount */\n      dup1\n        /* \"contracts/Stake-2.0.sol\":6056:6074  stakingPenaltyRate */\n      0x03\n        /* \"contracts/Stake-2.0.sol\":6056:6083  stakingPenaltyRate = amount */\n      dup2\n      swap1\n      sstore\n      pop\n        /* \"contracts/Stake-2.0.sol\":6099:6121  PenaltyChanged(amount) */\n      0xcfa4f4cf1cd64d13a167a8e75605e0c0c9d6700e903d17c5dc11f593254a04a9\n        /* \"contracts/Stake-2.0.sol\":6114:6120  amount */\n      dup2\n        /* \"contracts/Stake-2.0.sol\":6099:6121  PenaltyChanged(amount) */\n      mload(0x40)\n      tag_146\n      swap2\n      swap1\n      tag_34\n      jump\t// in\n    tag_146:\n      mload(0x40)\n      dup1\n      swap2\n      sub\n      swap1\n      log1\n        /* \"contracts/Stake-2.0.sol\":5816:6129  function changePenaltyFee(uint256 amount) external onlyOwner {... */\n      pop\n      jump\t// out\n        /* \"contracts/Stake-2.0.sol\":1705:1733  address public token_address */\n    tag_49:\n      0x0b\n      0x00\n      swap1\n      sload\n      swap1\n      0x0100\n      exp\n      swap1\n      div\n      0xffffffffffffffffffffffffffffffffffffffff\n      and\n      dup2\n      jump\t// out\n        /* \"@openzeppelin/contracts/access/Ownable.sol\":1036:1121  function owner() public view virtual returns (address) {... */\n    tag_53:\n        /* \"@openzeppelin/contracts/access/Ownable.sol\":1082:1089  address */\n      0x00\n        /* \"@openzeppelin/contracts/access/Ownable.sol\":1108:1114  _owner */\n      0x01\n      0x00\n      swap1\n      sload\n      swap1\n      0x0100\n      exp\n      swap1\n      div\n      0xffffffffffffffffffffffffffffffffffffffff\n      and\n        /* \"@openzeppelin/contracts/access/Ownable.sol\":1101:1114  return _owner */\n      swap1\n      pop\n        /* \"@openzeppelin/contracts/access/Ownable.sol\":1036:1121  function owner() public view virtual returns (address) {... */\n      swap1\n      jump\t// out\n        /* \"contracts/Stake-2.0.sol\":1651:1696  mapping(uint256 => uint256) public votedUsers */\n    tag_57:\n      mstore(0x20, 0x0a)\n      dup1\n      0x00\n      mstore\n      keccak256(0x00, 0x40)\n      0x00\n      swap2\n      pop\n      swap1\n      pop\n      sload\n      dup2\n      jump\t// out\n        /* \"contracts/Stake-2.0.sol\":1605:1644  mapping(address => Voter) public voters */\n    tag_62:\n      mstore(0x20, 0x09)\n      dup1\n      0x00\n      mstore\n      keccak256(0x00, 0x40)\n      0x00\n      swap2\n      pop\n      swap1\n      pop\n      dup1\n      0x00\n      add\n      0x00\n      swap1\n      sload\n      swap1\n      0x0100\n      exp\n      swap1\n      div\n      0xff\n      and\n      swap1\n      pop\n      dup2\n      jump\t// out\n        /* \"contracts/Stake-2.0.sol\":10218:10354  function calculateWeek(uint256 timestamp) public view returns (uint256) {... */\n    tag_67:\n        /* \"contracts/Stake-2.0.sol\":10281:10288  uint256 */\n      0x00\n        /* \"contracts/Stake-2.0.sol\":10340:10346  7 days */\n      0x093a80\n        /* \"contracts/Stake-2.0.sol\":10327:10336  timestamp */\n      dup3\n        /* \"contracts/Stake-2.0.sol\":10309:10324  block.timestamp */\n      timestamp\n        /* \"contracts/Stake-2.0.sol\":10309:10336  block.timestamp - timestamp */\n      tag_149\n      swap2\n      swap1\n      tag_150\n      jump\t// in\n    tag_149:\n        /* \"contracts/Stake-2.0.sol\":10308:10346  (block.timestamp - timestamp) / 7 days */\n      tag_151\n      swap2\n      swap1\n      tag_98\n      jump\t// in\n    tag_151:\n        /* \"contracts/Stake-2.0.sol\":10301:10346  return (block.timestamp - timestamp) / 7 days */\n      swap1\n      pop\n        /* \"contracts/Stake-2.0.sol\":10218:10354  function calculateWeek(uint256 timestamp) public view returns (uint256) {... */\n      swap2\n      swap1\n      pop\n      jump\t// out\n        /* \"contracts/Stake-2.0.sol\":1469:1496  uint256 public airdropSince */\n    tag_70:\n      sload(0x05)\n      dup2\n      jump\t// out\n        /* \"contracts/Stake-2.0.sol\":7569:8581  function withdrawStake() external nonReentrant {... */\n    tag_73:\n        /* \"@openzeppelin/contracts/security/ReentrancyGuard.sol\":1744:1745  2 */\n      0x02\n        /* \"@openzeppelin/contracts/security/ReentrancyGuard.sol\":2325:2332  _status */\n      sload(0x00)\n        /* \"@openzeppelin/contracts/security/ReentrancyGuard.sol\":2325:2344  _status != _ENTERED */\n      eq\n      iszero\n        /* \"@openzeppelin/contracts/security/ReentrancyGuard.sol\":2317:2380  require(_status != _ENTERED, \"ReentrancyGuard: reentrant call\") */\n      tag_153\n      jumpi\n      mload(0x40)\n      0x08c379a000000000000000000000000000000000000000000000000000000000\n      dup2\n      mstore\n      0x04\n      add\n      tag_154\n      swap1\n      tag_128\n      jump\t// in\n    tag_154:\n      mload(0x40)\n      dup1\n      swap2\n      sub\n      swap1\n      revert\n    tag_153:\n        /* \"@openzeppelin/contracts/security/ReentrancyGuard.sol\":1744:1745  2 */\n      0x02\n        /* \"@openzeppelin/contracts/security/ReentrancyGuard.sol\":2455:2462  _status */\n      0x00\n        /* \"@openzeppelin/contracts/security/ReentrancyGuard.sol\":2455:2473  _status = _ENTERED */\n      dup2\n      swap1\n      sstore\n      pop\n        /* \"contracts/Stake-2.0.sol\":7737:7760  Stake memory user_stake */\n      0x00\n        /* \"contracts/Stake-2.0.sol\":7763:7775  stakeholders */\n      0x0c\n        /* \"contracts/Stake-2.0.sol\":7763:7787  stakeholders[msg.sender] */\n      0x00\n        /* \"contracts/Stake-2.0.sol\":7776:7786  msg.sender */\n      caller\n        /* \"contracts/Stake-2.0.sol\":7763:7787  stakeholders[msg.sender] */\n      0xffffffffffffffffffffffffffffffffffffffff\n      and\n      0xffffffffffffffffffffffffffffffffffffffff\n      and\n      dup2\n      mstore\n      0x20\n      add\n      swap1\n      dup2\n      mstore\n      0x20\n      add\n      0x00\n      keccak256\n        /* \"contracts/Stake-2.0.sol\":7737:7787  Stake memory user_stake = stakeholders[msg.sender] */\n      mload(0x40)\n      dup1\n      0xe0\n      add\n      0x40\n      mstore\n      swap1\n      dup2\n      0x00\n      dup3\n      add\n      sload\n      dup2\n      mstore\n      0x20\n      add\n      0x01\n      dup3\n      add\n      sload\n      dup2\n      mstore\n      0x20\n      add\n      0x02\n      dup3\n      add\n      sload\n      dup2\n      mstore\n      0x20\n      add\n      0x03\n      dup3\n      add\n      sload\n      dup2\n      mstore\n      0x20\n      add\n      0x04\n      dup3\n      add\n      sload\n      dup2\n      mstore\n      0x20\n      add\n      0x05\n      dup3\n      add\n      sload\n      dup2\n      mstore\n      0x20\n      add\n      0x06\n      dup3\n      add\n      sload\n      dup2\n      mstore\n      pop\n      pop\n      swap1\n      pop\n        /* \"contracts/Stake-2.0.sol\":7798:7812  uint256 reward */\n      0x00\n        /* \"contracts/Stake-2.0.sol\":7815:7848  _calculateStakeReward(user_stake) */\n      tag_156\n        /* \"contracts/Stake-2.0.sol\":7837:7847  user_stake */\n      dup3\n        /* \"contracts/Stake-2.0.sol\":7815:7836  _calculateStakeReward */\n      tag_93\n        /* \"contracts/Stake-2.0.sol\":7815:7848  _calculateStakeReward(user_stake) */\n      jump\t// in\n    tag_156:\n        /* \"contracts/Stake-2.0.sol\":7798:7848  uint256 reward = _calculateStakeReward(user_stake) */\n      swap1\n      pop\n        /* \"contracts/Stake-2.0.sol\":7868:7880  stakeholders */\n      0x0c\n        /* \"contracts/Stake-2.0.sol\":7868:7892  stakeholders[msg.sender] */\n      0x00\n        /* \"contracts/Stake-2.0.sol\":7881:7891  msg.sender */\n      caller\n        /* \"contracts/Stake-2.0.sol\":7868:7892  stakeholders[msg.sender] */\n      0xffffffffffffffffffffffffffffffffffffffff\n      and\n      0xffffffffffffffffffffffffffffffffffffffff\n      and\n      dup2\n      mstore\n      0x20\n      add\n      swap1\n      dup2\n      mstore\n      0x20\n      add\n      0x00\n      keccak256\n      0x00\n        /* \"contracts/Stake-2.0.sol\":7861:7892  delete stakeholders[msg.sender] */\n      dup1\n      dup3\n      add\n      0x00\n      swap1\n      sstore\n      0x01\n      dup3\n      add\n      0x00\n      swap1\n      sstore\n      0x02\n      dup3\n      add\n      0x00\n      swap1\n      sstore\n      0x03\n      dup3\n      add\n      0x00\n      swap1\n      sstore\n      0x04\n      dup3\n      add\n      0x00\n      swap1\n      sstore\n      0x05\n      dup3\n      add\n      0x00\n      swap1\n      sstore\n      0x06\n      dup3\n      add\n      0x00\n      swap1\n      sstore\n      pop\n      pop\n        /* \"contracts/Stake-2.0.sol\":7918:7919  1 */\n      0x01\n        /* \"contracts/Stake-2.0.sol\":7903:7914  totalVoters */\n      0x08\n      0x00\n        /* \"contracts/Stake-2.0.sol\":7903:7919  totalVoters -= 1 */\n      dup3\n      dup3\n      sload\n      tag_157\n      swap2\n      swap1\n      tag_150\n      jump\t// in\n    tag_157:\n      swap3\n      pop\n      pop\n      dup2\n      swap1\n      sstore\n      pop\n        /* \"contracts/Stake-2.0.sol\":7937:7943  voters */\n      0x09\n        /* \"contracts/Stake-2.0.sol\":7937:7955  voters[msg.sender] */\n      0x00\n        /* \"contracts/Stake-2.0.sol\":7944:7954  msg.sender */\n      caller\n        /* \"contracts/Stake-2.0.sol\":7937:7955  voters[msg.sender] */\n      0xffffffffffffffffffffffffffffffffffffffff\n      and\n      0xffffffffffffffffffffffffffffffffffffffff\n      and\n      dup2\n      mstore\n      0x20\n      add\n      swap1\n      dup2\n      mstore\n      0x20\n      add\n      0x00\n      keccak256\n        /* \"contracts/Stake-2.0.sol\":7937:7961  voters[msg.sender].voted */\n      0x01\n      add\n        /* \"contracts/Stake-2.0.sol\":7937:7972  voters[msg.sender].voted[_votingId] */\n      0x00\n        /* \"contracts/Stake-2.0.sol\":7962:7971  _votingId */\n      sload(0x07)\n        /* \"contracts/Stake-2.0.sol\":7937:7972  voters[msg.sender].voted[_votingId] */\n      dup2\n      mstore\n      0x20\n      add\n      swap1\n      dup2\n      mstore\n      0x20\n      add\n      0x00\n      keccak256\n      0x00\n        /* \"contracts/Stake-2.0.sol\":7930:7972  delete voters[msg.sender].voted[_votingId] */\n      0x0100\n      exp\n      dup2\n      sload\n      swap1\n      0xff\n      mul\n      not\n      and\n      swap1\n      sstore\n        /* \"contracts/Stake-2.0.sol\":8014:8029  block.timestamp */\n      timestamp\n        /* \"contracts/Stake-2.0.sol\":7989:7999  user_stake */\n      dup3\n        /* \"contracts/Stake-2.0.sol\":7989:8011  user_stake.releaseTime */\n      0x60\n      add\n      mload\n        /* \"contracts/Stake-2.0.sol\":7989:8029  user_stake.releaseTime > block.timestamp */\n      gt\n        /* \"contracts/Stake-2.0.sol\":7985:8574  if (user_stake.releaseTime > block.timestamp) {... */\n      iszero\n      tag_158\n      jumpi\n        /* \"contracts/Stake-2.0.sol\":8065:8087  uint256 amount_reduced */\n      0x00\n        /* \"contracts/Stake-2.0.sol\":8106:8128  uint256 reward_reduced */\n      dup1\n        /* \"contracts/Stake-2.0.sol\":8146:8201  _calculateStakingWithPenalty(user_stake.amount, reward) */\n      tag_159\n        /* \"contracts/Stake-2.0.sol\":8175:8185  user_stake */\n      dup5\n        /* \"contracts/Stake-2.0.sol\":8175:8192  user_stake.amount */\n      0x00\n      add\n      mload\n        /* \"contracts/Stake-2.0.sol\":8194:8200  reward */\n      dup5\n        /* \"contracts/Stake-2.0.sol\":8146:8174  _calculateStakingWithPenalty */\n      tag_160\n        /* \"contracts/Stake-2.0.sol\":8146:8201  _calculateStakingWithPenalty(user_stake.amount, reward) */\n      jump\t// in\n    tag_159:\n        /* \"contracts/Stake-2.0.sol\":8046:8201  (... */\n      swap2\n      pop\n      swap2\n      pop\n        /* \"contracts/Stake-2.0.sol\":8218:8376  SafeERC20.safeTransfer(... */\n      tag_161\n        /* \"contracts/Stake-2.0.sol\":8266:8279  token_address */\n      0x0b\n      0x00\n      swap1\n      sload\n      swap1\n      0x0100\n      exp\n      swap1\n      div\n      0xffffffffffffffffffffffffffffffffffffffff\n      and\n        /* \"contracts/Stake-2.0.sol\":8299:8309  msg.sender */\n      caller\n        /* \"contracts/Stake-2.0.sol\":8346:8360  reward_reduced */\n      dup4\n        /* \"contracts/Stake-2.0.sol\":8329:8343  amount_reduced */\n      dup6\n        /* \"contracts/Stake-2.0.sol\":8329:8360  amount_reduced + reward_reduced */\n      tag_162\n      swap2\n      swap1\n      tag_102\n      jump\t// in\n    tag_162:\n        /* \"contracts/Stake-2.0.sol\":8218:8240  SafeERC20.safeTransfer */\n      tag_114\n        /* \"contracts/Stake-2.0.sol\":8218:8376  SafeERC20.safeTransfer(... */\n      jump\t// in\n    tag_161:\n        /* \"contracts/Stake-2.0.sol\":8031:8388  {... */\n      pop\n      pop\n        /* \"contracts/Stake-2.0.sol\":7985:8574  if (user_stake.releaseTime > block.timestamp) {... */\n      jump(tag_163)\n    tag_158:\n        /* \"contracts/Stake-2.0.sol\":8409:8562  SafeERC20.safeTransfer(... */\n      tag_164\n        /* \"contracts/Stake-2.0.sol\":8457:8470  token_address */\n      0x0b\n      0x00\n      swap1\n      sload\n      swap1\n      0x0100\n      exp\n      swap1\n      div\n      0xffffffffffffffffffffffffffffffffffffffff\n      and\n        /* \"contracts/Stake-2.0.sol\":8490:8500  msg.sender */\n      caller\n        /* \"contracts/Stake-2.0.sol\":8540:8546  reward */\n      dup4\n        /* \"contracts/Stake-2.0.sol\":8520:8530  user_stake */\n      dup6\n        /* \"contracts/Stake-2.0.sol\":8520:8537  user_stake.amount */\n      0x00\n      add\n      mload\n        /* \"contracts/Stake-2.0.sol\":8520:8546  user_stake.amount + reward */\n      tag_165\n      swap2\n      swap1\n      tag_102\n      jump\t// in\n    tag_165:\n        /* \"contracts/Stake-2.0.sol\":8409:8431  SafeERC20.safeTransfer */\n      tag_114\n        /* \"contracts/Stake-2.0.sol\":8409:8562  SafeERC20.safeTransfer(... */\n      jump\t// in\n    tag_164:\n        /* \"contracts/Stake-2.0.sol\":7985:8574  if (user_stake.releaseTime > block.timestamp) {... */\n    tag_163:\n        /* \"contracts/Stake-2.0.sol\":7616:8581  {... */\n      pop\n      pop\n        /* \"@openzeppelin/contracts/security/ReentrancyGuard.sol\":1701:1702  1 */\n      0x01\n        /* \"@openzeppelin/contracts/security/ReentrancyGuard.sol\":2628:2635  _status */\n      0x00\n        /* \"@openzeppelin/contracts/security/ReentrancyGuard.sol\":2628:2650  _status = _NOT_ENTERED */\n      dup2\n      swap1\n      sstore\n      pop\n        /* \"contracts/Stake-2.0.sol\":7569:8581  function withdrawStake() external nonReentrant {... */\n      jump\t// out\n        /* \"contracts/Stake-2.0.sol\":10112:10210  function _blockTimestamp() public view returns (uint256) {... */\n    tag_75:\n        /* \"contracts/Stake-2.0.sol\":10160:10167  uint256 */\n      0x00\n        /* \"contracts/Stake-2.0.sol\":10187:10202  block.timestamp */\n      timestamp\n        /* \"contracts/Stake-2.0.sol\":10180:10202  return block.timestamp */\n      swap1\n      pop\n        /* \"contracts/Stake-2.0.sol\":10112:10210  function _blockTimestamp() public view returns (uint256) {... */\n      swap1\n      jump\t// out\n        /* \"contracts/Stake-2.0.sol\":1396:1429  uint256 public stakingPenaltyRate */\n    tag_78:\n      sload(0x03)\n      dup2\n      jump\t// out\n        /* \"contracts/Stake-2.0.sol\":9764:9856  function startAirdrop() external onlyOwner {... */\n    tag_81:\n        /* \"@openzeppelin/contracts/access/Ownable.sol\":1259:1271  _msgSender() */\n      tag_168\n        /* \"@openzeppelin/contracts/access/Ownable.sol\":1259:1269  _msgSender */\n      tag_117\n        /* \"@openzeppelin/contracts/access/Ownable.sol\":1259:1271  _msgSender() */\n      jump\t// in\n    tag_168:\n        /* \"@openzeppelin/contracts/access/Ownable.sol\":1248:1271  owner() == _msgSender() */\n      0xffffffffffffffffffffffffffffffffffffffff\n      and\n        /* \"@openzeppelin/contracts/access/Ownable.sol\":1248:1255  owner() */\n      tag_169\n        /* \"@openzeppelin/contracts/access/Ownable.sol\":1248:1253  owner */\n      tag_53\n        /* \"@openzeppelin/contracts/access/Ownable.sol\":1248:1255  owner() */\n      jump\t// in\n    tag_169:\n        /* \"@openzeppelin/contracts/access/Ownable.sol\":1248:1271  owner() == _msgSender() */\n      0xffffffffffffffffffffffffffffffffffffffff\n      and\n      eq\n        /* \"@openzeppelin/contracts/access/Ownable.sol\":1240:1308  require(owner() == _msgSender(), \"Ownable: caller is not the owner\") */\n      tag_170\n      jumpi\n      mload(0x40)\n      0x08c379a000000000000000000000000000000000000000000000000000000000\n      dup2\n      mstore\n      0x04\n      add\n      tag_171\n      swap1\n      tag_121\n      jump\t// in\n    tag_171:\n      mload(0x40)\n      dup1\n      swap2\n      sub\n      swap1\n      revert\n    tag_170:\n        /* \"contracts/Stake-2.0.sol\":9833:9848  block.timestamp */\n      timestamp\n        /* \"contracts/Stake-2.0.sol\":9818:9830  airdropSince */\n      0x05\n        /* \"contracts/Stake-2.0.sol\":9818:9848  airdropSince = block.timestamp */\n      dup2\n      swap1\n      sstore\n      pop\n        /* \"contracts/Stake-2.0.sol\":9764:9856  function startAirdrop() external onlyOwner {... */\n      jump\t// out\n        /* \"contracts/Stake-2.0.sol\":9864:10104  function changeAirdropPercentage(uint256 amount) external onlyOwner {... */\n    tag_84:\n        /* \"@openzeppelin/contracts/access/Ownable.sol\":1259:1271  _msgSender() */\n      tag_174\n        /* \"@openzeppelin/contracts/access/Ownable.sol\":1259:1269  _msgSender */\n      tag_117\n        /* \"@openzeppelin/contracts/access/Ownable.sol\":1259:1271  _msgSender() */\n      jump\t// in\n    tag_174:\n        /* \"@openzeppelin/contracts/access/Ownable.sol\":1248:1271  owner() == _msgSender() */\n      0xffffffffffffffffffffffffffffffffffffffff\n      and\n        /* \"@openzeppelin/contracts/access/Ownable.sol\":1248:1255  owner() */\n      tag_175\n        /* \"@openzeppelin/contracts/access/Ownable.sol\":1248:1253  owner */\n      tag_53\n        /* \"@openzeppelin/contracts/access/Ownable.sol\":1248:1255  owner() */\n      jump\t// in\n    tag_175:\n        /* \"@openzeppelin/contracts/access/Ownable.sol\":1248:1271  owner() == _msgSender() */\n      0xffffffffffffffffffffffffffffffffffffffff\n      and\n      eq\n        /* \"@openzeppelin/contracts/access/Ownable.sol\":1240:1308  require(owner() == _msgSender(), \"Ownable: caller is not the owner\") */\n      tag_176\n      jumpi\n      mload(0x40)\n      0x08c379a000000000000000000000000000000000000000000000000000000000\n      dup2\n      mstore\n      0x04\n      add\n      tag_177\n      swap1\n      tag_121\n      jump\t// in\n    tag_177:\n      mload(0x40)\n      dup1\n      swap2\n      sub\n      swap1\n      revert\n    tag_176:\n        /* \"contracts/Stake-2.0.sol\":9956:9959  200 */\n      0xc8\n        /* \"contracts/Stake-2.0.sol\":9947:9953  amount */\n      dup2\n        /* \"contracts/Stake-2.0.sol\":9947:9959  amount > 200 */\n      gt\n        /* \"contracts/Stake-2.0.sol\":9943:10028  if (amount > 200) {... */\n      iszero\n      tag_179\n      jumpi\n        /* \"contracts/Stake-2.0.sol\":9983:10016  Staking__airdropExceed20Percent() */\n      mload(0x40)\n      0xa552cf1000000000000000000000000000000000000000000000000000000000\n      dup2\n      mstore\n      0x04\n      add\n      mload(0x40)\n      dup1\n      swap2\n      sub\n      swap1\n      revert\n        /* \"contracts/Stake-2.0.sol\":9943:10028  if (amount > 200) {... */\n    tag_179:\n        /* \"contracts/Stake-2.0.sol\":10052:10058  amount */\n      dup1\n        /* \"contracts/Stake-2.0.sol\":10038:10049  airdropRate */\n      0x04\n        /* \"contracts/Stake-2.0.sol\":10038:10058  airdropRate = amount */\n      dup2\n      swap1\n      sstore\n      pop\n        /* \"contracts/Stake-2.0.sol\":10074:10096  AirdropChanged(amount) */\n      0xcc672f1026b958c0cfbfdd89ebe8ddcbc127f16ec24da6c2c7a4de26a8b1857e\n        /* \"contracts/Stake-2.0.sol\":10089:10095  amount */\n      dup2\n        /* \"contracts/Stake-2.0.sol\":10074:10096  AirdropChanged(amount) */\n      mload(0x40)\n      tag_180\n      swap2\n      swap1\n      tag_34\n      jump\t// in\n    tag_180:\n      mload(0x40)\n      dup1\n      swap2\n      sub\n      swap1\n      log1\n        /* \"contracts/Stake-2.0.sol\":9864:10104  function changeAirdropPercentage(uint256 amount) external onlyOwner {... */\n      pop\n      jump\t// out\n        /* \"@openzeppelin/contracts/access/Ownable.sol\":1918:2116  function transferOwnership(address newOwner) public virtual onlyOwner {... */\n    tag_87:\n        /* \"@openzeppelin/contracts/access/Ownable.sol\":1259:1271  _msgSender() */\n      tag_182\n        /* \"@openzeppelin/contracts/access/Ownable.sol\":1259:1269  _msgSender */\n      tag_117\n        /* \"@openzeppelin/contracts/access/Ownable.sol\":1259:1271  _msgSender() */\n      jump\t// in\n    tag_182:\n        /* \"@openzeppelin/contracts/access/Ownable.sol\":1248:1271  owner() == _msgSender() */\n      0xffffffffffffffffffffffffffffffffffffffff\n      and\n        /* \"@openzeppelin/contracts/access/Ownable.sol\":1248:1255  owner() */\n      tag_183\n        /* \"@openzeppelin/contracts/access/Ownable.sol\":1248:1253  owner */\n      tag_53\n        /* \"@openzeppelin/contracts/access/Ownable.sol\":1248:1255  owner() */\n      jump\t// in\n    tag_183:\n        /* \"@openzeppelin/contracts/access/Ownable.sol\":1248:1271  owner() == _msgSender() */\n      0xffffffffffffffffffffffffffffffffffffffff\n      and\n      eq\n        /* \"@openzeppelin/contracts/access/Ownable.sol\":1240:1308  require(owner() == _msgSender(), \"Ownable: caller is not the owner\") */\n      tag_184\n      jumpi\n      mload(0x40)\n      0x08c379a000000000000000000000000000000000000000000000000000000000\n      dup2\n      mstore\n      0x04\n      add\n      tag_185\n      swap1\n      tag_121\n      jump\t// in\n    tag_185:\n      mload(0x40)\n      dup1\n      swap2\n      sub\n      swap1\n      revert\n    tag_184:\n        /* \"@openzeppelin/contracts/access/Ownable.sol\":2026:2027  0 */\n      0x00\n        /* \"@openzeppelin/contracts/access/Ownable.sol\":2006:2028  newOwner != address(0) */\n      0xffffffffffffffffffffffffffffffffffffffff\n      and\n        /* \"@openzeppelin/contracts/access/Ownable.sol\":2006:2014  newOwner */\n      dup2\n        /* \"@openzeppelin/contracts/access/Ownable.sol\":2006:2028  newOwner != address(0) */\n      0xffffffffffffffffffffffffffffffffffffffff\n      and\n      eq\n      iszero\n        /* \"@openzeppelin/contracts/access/Ownable.sol\":1998:2071  require(newOwner != address(0), \"Ownable: new owner is the zero address\") */\n      tag_187\n      jumpi\n      mload(0x40)\n      0x08c379a000000000000000000000000000000000000000000000000000000000\n      dup2\n      mstore\n      0x04\n      add\n      tag_188\n      swap1\n      tag_189\n      jump\t// in\n    tag_188:\n      mload(0x40)\n      dup1\n      swap2\n      sub\n      swap1\n      revert\n    tag_187:\n        /* \"@openzeppelin/contracts/access/Ownable.sol\":2081:2109  _transferOwnership(newOwner) */\n      tag_190\n        /* \"@openzeppelin/contracts/access/Ownable.sol\":2100:2108  newOwner */\n      dup2\n        /* \"@openzeppelin/contracts/access/Ownable.sol\":2081:2099  _transferOwnership */\n      tag_124\n        /* \"@openzeppelin/contracts/access/Ownable.sol\":2081:2109  _transferOwnership(newOwner) */\n      jump\t// in\n    tag_190:\n        /* \"@openzeppelin/contracts/access/Ownable.sol\":1918:2116  function transferOwnership(address newOwner) public virtual onlyOwner {... */\n      pop\n      jump\t// out\n        /* \"contracts/Stake-2.0.sol\":6383:6833  function _calculateStakeReward(Stake memory user_stake)... */\n    tag_93:\n        /* \"contracts/Stake-2.0.sol\":6489:6496  uint256 */\n      0x00\n        /* \"contracts/Stake-2.0.sol\":6539:6540  0 */\n      dup1\n        /* \"contracts/Stake-2.0.sol\":6518:6528  user_stake */\n      dup3\n        /* \"contracts/Stake-2.0.sol\":6518:6535  user_stake.amount */\n      0x00\n      add\n      mload\n        /* \"contracts/Stake-2.0.sol\":6518:6540  user_stake.amount == 0 */\n      eq\n        /* \"contracts/Stake-2.0.sol\":6514:6577  if (user_stake.amount == 0) {... */\n      iszero\n      tag_192\n      jumpi\n        /* \"contracts/Stake-2.0.sol\":6564:6565  0 */\n      0x00\n        /* \"contracts/Stake-2.0.sol\":6557:6565  return 0 */\n      swap1\n      pop\n      jump(tag_191)\n        /* \"contracts/Stake-2.0.sol\":6514:6577  if (user_stake.amount == 0) {... */\n    tag_192:\n        /* \"contracts/Stake-2.0.sol\":6821:6825  1e26 */\n      0x52b7d2dcc80cd2e4000000\n        /* \"contracts/Stake-2.0.sol\":6774:6817  _calculateStakingDuration(user_stake.since) */\n      tag_193\n        /* \"contracts/Stake-2.0.sol\":6800:6810  user_stake */\n      dup4\n        /* \"contracts/Stake-2.0.sol\":6800:6816  user_stake.since */\n      0x20\n      add\n      mload\n        /* \"contracts/Stake-2.0.sol\":6774:6799  _calculateStakingDuration */\n      tag_194\n        /* \"contracts/Stake-2.0.sol\":6774:6817  _calculateStakingDuration(user_stake.since) */\n      jump\t// in\n    tag_193:\n        /* \"contracts/Stake-2.0.sol\":6734:6744  user_stake */\n      dup4\n        /* \"contracts/Stake-2.0.sol\":6734:6754  user_stake.rewardAPY */\n      0x40\n      add\n      mload\n        /* \"contracts/Stake-2.0.sol\":6697:6707  user_stake */\n      dup5\n        /* \"contracts/Stake-2.0.sol\":6697:6714  user_stake.amount */\n      0x00\n      add\n      mload\n        /* \"contracts/Stake-2.0.sol\":6697:6754  user_stake.amount *... */\n      tag_195\n      swap2\n      swap1\n      tag_96\n      jump\t// in\n    tag_195:\n        /* \"contracts/Stake-2.0.sol\":6697:6817  user_stake.amount *... */\n      tag_196\n      swap2\n      swap1\n      tag_96\n      jump\t// in\n    tag_196:\n        /* \"contracts/Stake-2.0.sol\":6696:6825  (user_stake.amount *... */\n      tag_197\n      swap2\n      swap1\n      tag_98\n      jump\t// in\n    tag_197:\n        /* \"contracts/Stake-2.0.sol\":6676:6825  return... */\n      swap1\n      pop\n        /* \"contracts/Stake-2.0.sol\":6383:6833  function _calculateStakeReward(Stake memory user_stake)... */\n    tag_191:\n      swap2\n      swap1\n      pop\n      jump\t// out\n        /* \"contracts/Stake-2.0.sol\":10362:10547  function _calculateAirdrop(uint256 stakeAmount)... */\n    tag_106:\n        /* \"contracts/Stake-2.0.sol\":10460:10467  uint256 */\n      0x00\n        /* \"contracts/Stake-2.0.sol\":10531:10539  52 weeks */\n      0x01dfe200\n        /* \"contracts/Stake-2.0.sol\":10523:10527  1000 */\n      0x03e8\n        /* \"contracts/Stake-2.0.sol\":10508:10519  airdropRate */\n      sload(0x04)\n        /* \"contracts/Stake-2.0.sol\":10494:10505  stakeAmount */\n      dup5\n        /* \"contracts/Stake-2.0.sol\":10494:10519  stakeAmount * airdropRate */\n      tag_199\n      swap2\n      swap1\n      tag_96\n      jump\t// in\n    tag_199:\n        /* \"contracts/Stake-2.0.sol\":10493:10527  (stakeAmount * airdropRate) / 1000 */\n      tag_200\n      swap2\n      swap1\n      tag_98\n      jump\t// in\n    tag_200:\n        /* \"contracts/Stake-2.0.sol\":10492:10539  ((stakeAmount * airdropRate) / 1000) / 52 weeks */\n      tag_201\n      swap2\n      swap1\n      tag_98\n      jump\t// in\n    tag_201:\n        /* \"contracts/Stake-2.0.sol\":10485:10539  return ((stakeAmount * airdropRate) / 1000) / 52 weeks */\n      swap1\n      pop\n        /* \"contracts/Stake-2.0.sol\":10362:10547  function _calculateAirdrop(uint256 stakeAmount)... */\n      swap2\n      swap1\n      pop\n      jump\t// out\n        /* \"@openzeppelin/contracts/token/ERC20/utils/SafeERC20.sol\":701:906  function safeTransfer(... */\n    tag_114:\n        /* \"@openzeppelin/contracts/token/ERC20/utils/SafeERC20.sol\":813:899  _callOptionalReturn(token, abi.encodeWithSelector(token.transfer.selector, to, value)) */\n      tag_203\n        /* \"@openzeppelin/contracts/token/ERC20/utils/SafeERC20.sol\":833:838  token */\n      dup4\n        /* \"@openzeppelin/contracts/token/ERC20/utils/SafeERC20.sol\":863:886  token.transfer.selector */\n      shl(0xe0, 0xa9059cbb)\n        /* \"@openzeppelin/contracts/token/ERC20/utils/SafeERC20.sol\":888:890  to */\n      dup5\n        /* \"@openzeppelin/contracts/token/ERC20/utils/SafeERC20.sol\":892:897  value */\n      dup5\n        /* \"@openzeppelin/contracts/token/ERC20/utils/SafeERC20.sol\":840:898  abi.encodeWithSelector(token.transfer.selector, to, value) */\n      add(0x24, mload(0x40))\n      tag_204\n      swap3\n      swap2\n      swap1\n      tag_205\n      jump\t// in\n    tag_204:\n      mload(0x40)\n      0x20\n      dup2\n      dup4\n      sub\n      sub\n      dup2\n      mstore\n      swap1\n      0x40\n      mstore\n      swap1\n      not(0xffffffffffffffffffffffffffffffffffffffffffffffffffffffff)\n      and\n      0x20\n      dup3\n      add\n      dup1\n      mload\n      0xffffffffffffffffffffffffffffffffffffffffffffffffffffffff\n      dup4\n      dup2\n      dup4\n      and\n      or\n      dup4\n      mstore\n      pop\n      pop\n      pop\n      pop\n        /* \"@openzeppelin/contracts/token/ERC20/utils/SafeERC20.sol\":813:832  _callOptionalReturn */\n      tag_206\n        /* \"@openzeppelin/contracts/token/ERC20/utils/SafeERC20.sol\":813:899  _callOptionalReturn(token, abi.encodeWithSelector(token.transfer.selector, to, value)) */\n      jump\t// in\n    tag_203:\n        /* \"@openzeppelin/contracts/token/ERC20/utils/SafeERC20.sol\":701:906  function safeTransfer(... */\n      pop\n      pop\n      pop\n      jump\t// out\n        /* \"@openzeppelin/contracts/utils/Context.sol\":640:736  function _msgSender() internal view virtual returns (address) {... */\n    tag_117:\n        /* \"@openzeppelin/contracts/utils/Context.sol\":693:700  address */\n      0x00\n        /* \"@openzeppelin/contracts/utils/Context.sol\":719:729  msg.sender */\n      caller\n        /* \"@openzeppelin/contracts/utils/Context.sol\":712:729  return msg.sender */\n      swap1\n      pop\n        /* \"@openzeppelin/contracts/utils/Context.sol\":640:736  function _msgSender() internal view virtual returns (address) {... */\n      swap1\n      jump\t// out\n        /* \"@openzeppelin/contracts/access/Ownable.sol\":2270:2457  function _transferOwnership(address newOwner) internal virtual {... */\n    tag_124:\n        /* \"@openzeppelin/contracts/access/Ownable.sol\":2343:2359  address oldOwner */\n      0x00\n        /* \"@openzeppelin/contracts/access/Ownable.sol\":2362:2368  _owner */\n      0x01\n      0x00\n      swap1\n      sload\n      swap1\n      0x0100\n      exp\n      swap1\n      div\n      0xffffffffffffffffffffffffffffffffffffffff\n      and\n        /* \"@openzeppelin/contracts/access/Ownable.sol\":2343:2368  address oldOwner = _owner */\n      swap1\n      pop\n        /* \"@openzeppelin/contracts/access/Ownable.sol\":2387:2395  newOwner */\n      dup2\n        /* \"@openzeppelin/contracts/access/Ownable.sol\":2378:2384  _owner */\n      0x01\n      0x00\n        /* \"@openzeppelin/contracts/access/Ownable.sol\":2378:2395  _owner = newOwner */\n      0x0100\n      exp\n      dup2\n      sload\n      dup2\n      0xffffffffffffffffffffffffffffffffffffffff\n      mul\n      not\n      and\n      swap1\n      dup4\n      0xffffffffffffffffffffffffffffffffffffffff\n      and\n      mul\n      or\n      swap1\n      sstore\n      pop\n        /* \"@openzeppelin/contracts/access/Ownable.sol\":2441:2449  newOwner */\n      dup2\n        /* \"@openzeppelin/contracts/access/Ownable.sol\":2410:2450  OwnershipTransferred(oldOwner, newOwner) */\n      0xffffffffffffffffffffffffffffffffffffffff\n      and\n        /* \"@openzeppelin/contracts/access/Ownable.sol\":2431:2439  oldOwner */\n      dup2\n        /* \"@openzeppelin/contracts/access/Ownable.sol\":2410:2450  OwnershipTransferred(oldOwner, newOwner) */\n      0xffffffffffffffffffffffffffffffffffffffff\n      and\n      0x8be0079c531659141344cd1fd0a4f28419497f9722a3daafe3b4186f6b6457e0\n      mload(0x40)\n      mload(0x40)\n      dup1\n      swap2\n      sub\n      swap1\n      log3\n        /* \"@openzeppelin/contracts/access/Ownable.sol\":2333:2457  {... */\n      pop\n        /* \"@openzeppelin/contracts/access/Ownable.sol\":2270:2457  function _transferOwnership(address newOwner) internal virtual {... */\n      pop\n      jump\t// out\n        /* \"@openzeppelin/contracts/token/ERC20/utils/SafeERC20.sol\":912:1153  function safeTransferFrom(... */\n    tag_135:\n        /* \"@openzeppelin/contracts/token/ERC20/utils/SafeERC20.sol\":1050:1146  _callOptionalReturn(token, abi.encodeWithSelector(token.transferFrom.selector, from, to, value)) */\n      tag_210\n        /* \"@openzeppelin/contracts/token/ERC20/utils/SafeERC20.sol\":1070:1075  token */\n      dup5\n        /* \"@openzeppelin/contracts/token/ERC20/utils/SafeERC20.sol\":1100:1127  token.transferFrom.selector */\n      shl(0xe0, 0x23b872dd)\n        /* \"@openzeppelin/contracts/token/ERC20/utils/SafeERC20.sol\":1129:1133  from */\n      dup6\n        /* \"@openzeppelin/contracts/token/ERC20/utils/SafeERC20.sol\":1135:1137  to */\n      dup6\n        /* \"@openzeppelin/contracts/token/ERC20/utils/SafeERC20.sol\":1139:1144  value */\n      dup6\n        /* \"@openzeppelin/contracts/token/ERC20/utils/SafeERC20.sol\":1077:1145  abi.encodeWithSelector(token.transferFrom.selector, from, to, value) */\n      add(0x24, mload(0x40))\n      tag_211\n      swap4\n      swap3\n      swap2\n      swap1\n      tag_212\n      jump\t// in\n    tag_211:\n      mload(0x40)\n      0x20\n      dup2\n      dup4\n      sub\n      sub\n      dup2\n      mstore\n      swap1\n      0x40\n      mstore\n      swap1\n      not(0xffffffffffffffffffffffffffffffffffffffffffffffffffffffff)\n      and\n      0x20\n      dup3\n      add\n      dup1\n      mload\n      0xffffffffffffffffffffffffffffffffffffffffffffffffffffffff\n      dup4\n      dup2\n      dup4\n      and\n      or\n      dup4\n      mstore\n      pop\n      pop\n      pop\n      pop\n        /* \"@openzeppelin/contracts/token/ERC20/utils/SafeERC20.sol\":1050:1069  _callOptionalReturn */\n      tag_206\n        /* \"@openzeppelin/contracts/token/ERC20/utils/SafeERC20.sol\":1050:1146  _callOptionalReturn(token, abi.encodeWithSelector(token.transferFrom.selector, from, to, value)) */\n      jump\t// in\n    tag_210:\n        /* \"@openzeppelin/contracts/token/ERC20/utils/SafeERC20.sol\":912:1153  function safeTransferFrom(... */\n      pop\n      pop\n      pop\n      pop\n      jump\t// out\n        /* \"contracts/Stake-2.0.sol\":6841:7212  function _calculateStakingWithPenalty(uint256 amount, uint256 reward)... */\n    tag_160:\n        /* \"contracts/Stake-2.0.sol\":6961:6968  uint256 */\n      0x00\n        /* \"contracts/Stake-2.0.sol\":6970:6977  uint256 */\n      dup1\n        /* \"contracts/Stake-2.0.sol\":7009:7010  0 */\n      0x00\n        /* \"contracts/Stake-2.0.sol\":6999:7005  amount */\n      dup5\n        /* \"contracts/Stake-2.0.sol\":6999:7010  amount == 0 */\n      eq\n        /* \"contracts/Stake-2.0.sol\":6995:7052  if (amount == 0) {... */\n      iszero\n      tag_214\n      jumpi\n        /* \"contracts/Stake-2.0.sol\":7035:7036  0 */\n      0x00\n        /* \"contracts/Stake-2.0.sol\":7038:7039  0 */\n      dup1\n        /* \"contracts/Stake-2.0.sol\":7027:7040  return (0, 0) */\n      swap2\n      pop\n      swap2\n      pop\n      jump(tag_213)\n        /* \"contracts/Stake-2.0.sol\":6995:7052  if (amount == 0) {... */\n    tag_214:\n        /* \"contracts/Stake-2.0.sol\":7126:7130  1000 */\n      0x03e8\n        /* \"contracts/Stake-2.0.sol\":7104:7122  stakingPenaltyRate */\n      sload(0x03)\n        /* \"contracts/Stake-2.0.sol\":7095:7101  amount */\n      dup6\n        /* \"contracts/Stake-2.0.sol\":7095:7122  amount * stakingPenaltyRate */\n      tag_215\n      swap2\n      swap1\n      tag_96\n      jump\t// in\n    tag_215:\n        /* \"contracts/Stake-2.0.sol\":7094:7130  (amount * stakingPenaltyRate) / 1000 */\n      tag_216\n      swap2\n      swap1\n      tag_98\n      jump\t// in\n    tag_216:\n        /* \"contracts/Stake-2.0.sol\":7084:7090  amount */\n      dup5\n        /* \"contracts/Stake-2.0.sol\":7084:7131  amount - ((amount * stakingPenaltyRate) / 1000) */\n      tag_217\n      swap2\n      swap1\n      tag_150\n      jump\t// in\n    tag_217:\n        /* \"contracts/Stake-2.0.sol\":7188:7192  1000 */\n      0x03e8\n        /* \"contracts/Stake-2.0.sol\":7166:7184  stakingPenaltyRate */\n      sload(0x03)\n        /* \"contracts/Stake-2.0.sol\":7157:7163  reward */\n      dup6\n        /* \"contracts/Stake-2.0.sol\":7157:7184  reward * stakingPenaltyRate */\n      tag_218\n      swap2\n      swap1\n      tag_96\n      jump\t// in\n    tag_218:\n        /* \"contracts/Stake-2.0.sol\":7156:7192  (reward * stakingPenaltyRate) / 1000 */\n      tag_219\n      swap2\n      swap1\n      tag_98\n      jump\t// in\n    tag_219:\n        /* \"contracts/Stake-2.0.sol\":7146:7152  reward */\n      dup5\n        /* \"contracts/Stake-2.0.sol\":7146:7193  reward - ((reward * stakingPenaltyRate) / 1000) */\n      tag_220\n      swap2\n      swap1\n      tag_150\n      jump\t// in\n    tag_220:\n        /* \"contracts/Stake-2.0.sol\":7062:7204  return (... */\n      swap2\n      pop\n      swap2\n      pop\n        /* \"contracts/Stake-2.0.sol\":6841:7212  function _calculateStakingWithPenalty(uint256 amount, uint256 reward)... */\n    tag_213:\n      swap3\n      pop\n      swap3\n      swap1\n      pop\n      jump\t// out\n        /* \"contracts/Stake-2.0.sol\":6137:6375  function _calculateStakingDuration(uint256 since)... */\n    tag_194:\n        /* \"contracts/Stake-2.0.sol\":6237:6244  uint256 */\n      0x00\n        /* \"contracts/Stake-2.0.sol\":6359:6367  365 days */\n      0x01e13380\n        /* \"contracts/Stake-2.0.sol\":6351:6355  1e24 */\n      0xd3c21bcecceda1000000\n        /* \"contracts/Stake-2.0.sol\":6342:6347  since */\n      dup4\n        /* \"contracts/Stake-2.0.sol\":6324:6339  block.timestamp */\n      timestamp\n        /* \"contracts/Stake-2.0.sol\":6324:6347  block.timestamp - since */\n      tag_222\n      swap2\n      swap1\n      tag_150\n      jump\t// in\n    tag_222:\n        /* \"contracts/Stake-2.0.sol\":6323:6355  (block.timestamp - since) * 1e24 */\n      tag_223\n      swap2\n      swap1\n      tag_96\n      jump\t// in\n    tag_223:\n        /* \"contracts/Stake-2.0.sol\":6322:6367  ((block.timestamp - since) * 1e24) / 365 days */\n      tag_224\n      swap2\n      swap1\n      tag_98\n      jump\t// in\n    tag_224:\n        /* \"contracts/Stake-2.0.sol\":6315:6367  return ((block.timestamp - since) * 1e24) / 365 days */\n      swap1\n      pop\n        /* \"contracts/Stake-2.0.sol\":6137:6375  function _calculateStakingDuration(uint256 since)... */\n      swap2\n      swap1\n      pop\n      jump\t// out\n        /* \"@openzeppelin/contracts/token/ERC20/utils/SafeERC20.sol\":3207:3913  function _callOptionalReturn(IERC20 token, bytes memory data) private {... */\n    tag_206:\n        /* \"@openzeppelin/contracts/token/ERC20/utils/SafeERC20.sol\":3626:3649  bytes memory returndata */\n      0x00\n        /* \"@openzeppelin/contracts/token/ERC20/utils/SafeERC20.sol\":3652:3721  address(token).functionCall(data, \"SafeERC20: low-level call failed\") */\n      tag_226\n        /* \"@openzeppelin/contracts/token/ERC20/utils/SafeERC20.sol\":3680:3684  data */\n      dup3\n        /* \"@openzeppelin/contracts/token/ERC20/utils/SafeERC20.sol\":3652:3721  address(token).functionCall(data, \"SafeERC20: low-level call failed\") */\n      mload(0x40)\n      dup1\n      0x40\n      add\n      0x40\n      mstore\n      dup1\n      0x20\n      dup2\n      mstore\n      0x20\n      add\n      0x5361666545524332303a206c6f772d6c6576656c2063616c6c206661696c6564\n      dup2\n      mstore\n      pop\n        /* \"@openzeppelin/contracts/token/ERC20/utils/SafeERC20.sol\":3660:3665  token */\n      dup6\n        /* \"@openzeppelin/contracts/token/ERC20/utils/SafeERC20.sol\":3652:3679  address(token).functionCall */\n      0xffffffffffffffffffffffffffffffffffffffff\n      and\n      tag_227\n      swap1\n        /* \"@openzeppelin/contracts/token/ERC20/utils/SafeERC20.sol\":3652:3721  address(token).functionCall(data, \"SafeERC20: low-level call failed\") */\n      swap3\n      swap2\n      swap1\n      0xffffffff\n      and\n      jump\t// in\n    tag_226:\n        /* \"@openzeppelin/contracts/token/ERC20/utils/SafeERC20.sol\":3626:3721  bytes memory returndata = address(token).functionCall(data, \"SafeERC20: low-level call failed\") */\n      swap1\n      pop\n        /* \"@openzeppelin/contracts/token/ERC20/utils/SafeERC20.sol\":3755:3756  0 */\n      0x00\n        /* \"@openzeppelin/contracts/token/ERC20/utils/SafeERC20.sol\":3735:3745  returndata */\n      dup2\n        /* \"@openzeppelin/contracts/token/ERC20/utils/SafeERC20.sol\":3735:3752  returndata.length */\n      mload\n        /* \"@openzeppelin/contracts/token/ERC20/utils/SafeERC20.sol\":3735:3756  returndata.length > 0 */\n      gt\n        /* \"@openzeppelin/contracts/token/ERC20/utils/SafeERC20.sol\":3731:3907  if (returndata.length > 0) {... */\n      iszero\n      tag_228\n      jumpi\n        /* \"@openzeppelin/contracts/token/ERC20/utils/SafeERC20.sol\":3830:3840  returndata */\n      dup1\n        /* \"@openzeppelin/contracts/token/ERC20/utils/SafeERC20.sol\":3819:3849  abi.decode(returndata, (bool)) */\n      dup1\n      0x20\n      add\n      swap1\n      mload\n      dup2\n      add\n      swap1\n      tag_229\n      swap2\n      swap1\n      tag_230\n      jump\t// in\n    tag_229:\n        /* \"@openzeppelin/contracts/token/ERC20/utils/SafeERC20.sol\":3811:3896  require(abi.decode(returndata, (bool)), \"SafeERC20: ERC20 operation did not succeed\") */\n      tag_231\n      jumpi\n      mload(0x40)\n      0x08c379a000000000000000000000000000000000000000000000000000000000\n      dup2\n      mstore\n      0x04\n      add\n      tag_232\n      swap1\n      tag_233\n      jump\t// in\n    tag_232:\n      mload(0x40)\n      dup1\n      swap2\n      sub\n      swap1\n      revert\n    tag_231:\n        /* \"@openzeppelin/contracts/token/ERC20/utils/SafeERC20.sol\":3731:3907  if (returndata.length > 0) {... */\n    tag_228:\n        /* \"@openzeppelin/contracts/token/ERC20/utils/SafeERC20.sol\":3277:3913  {... */\n      pop\n        /* \"@openzeppelin/contracts/token/ERC20/utils/SafeERC20.sol\":3207:3913  function _callOptionalReturn(IERC20 token, bytes memory data) private {... */\n      pop\n      pop\n      jump\t// out\n        /* \"@openzeppelin/contracts/utils/Address.sol\":3861:4084  function functionCall(... */\n    tag_227:\n        /* \"@openzeppelin/contracts/utils/Address.sol\":3994:4006  bytes memory */\n      0x60\n        /* \"@openzeppelin/contracts/utils/Address.sol\":4025:4077  functionCallWithValue(target, data, 0, errorMessage) */\n      tag_235\n        /* \"@openzeppelin/contracts/utils/Address.sol\":4047:4053  target */\n      dup5\n        /* \"@openzeppelin/contracts/utils/Address.sol\":4055:4059  data */\n      dup5\n        /* \"@openzeppelin/contracts/utils/Address.sol\":4061:4062  0 */\n      0x00\n        /* \"@openzeppelin/contracts/utils/Address.sol\":4064:4076  errorMessage */\n      dup6\n        /* \"@openzeppelin/contracts/utils/Address.sol\":4025:4046  functionCallWithValue */\n      tag_236\n        /* \"@openzeppelin/contracts/utils/Address.sol\":4025:4077  functionCallWithValue(target, data, 0, errorMessage) */\n      jump\t// in\n    tag_235:\n        /* \"@openzeppelin/contracts/utils/Address.sol\":4018:4077  return functionCallWithValue(target, data, 0, errorMessage) */\n      swap1\n      pop\n        /* \"@openzeppelin/contracts/utils/Address.sol\":3861:4084  function functionCall(... */\n      swap4\n      swap3\n      pop\n      pop\n      pop\n      jump\t// out\n        /* \"@openzeppelin/contracts/utils/Address.sol\":4948:5447  function functionCallWithValue(... */\n    tag_236:\n        /* \"@openzeppelin/contracts/utils/Address.sol\":5113:5125  bytes memory */\n      0x60\n        /* \"@openzeppelin/contracts/utils/Address.sol\":5170:5175  value */\n      dup3\n        /* \"@openzeppelin/contracts/utils/Address.sol\":5145:5166  address(this).balance */\n      selfbalance\n        /* \"@openzeppelin/contracts/utils/Address.sol\":5145:5175  address(this).balance >= value */\n      lt\n      iszero\n        /* \"@openzeppelin/contracts/utils/Address.sol\":5137:5218  require(address(this).balance >= value, \"Address: insufficient balance for call\") */\n      tag_238\n      jumpi\n      mload(0x40)\n      0x08c379a000000000000000000000000000000000000000000000000000000000\n      dup2\n      mstore\n      0x04\n      add\n      tag_239\n      swap1\n      tag_240\n      jump\t// in\n    tag_239:\n      mload(0x40)\n      dup1\n      swap2\n      sub\n      swap1\n      revert\n    tag_238:\n        /* \"@openzeppelin/contracts/utils/Address.sol\":5236:5254  isContract(target) */\n      tag_241\n        /* \"@openzeppelin/contracts/utils/Address.sol\":5247:5253  target */\n      dup6\n        /* \"@openzeppelin/contracts/utils/Address.sol\":5236:5246  isContract */\n      tag_242\n        /* \"@openzeppelin/contracts/utils/Address.sol\":5236:5254  isContract(target) */\n      jump\t// in\n    tag_241:\n        /* \"@openzeppelin/contracts/utils/Address.sol\":5228:5288  require(isContract(target), \"Address: call to non-contract\") */\n      tag_243\n      jumpi\n      mload(0x40)\n      0x08c379a000000000000000000000000000000000000000000000000000000000\n      dup2\n      mstore\n      0x04\n      add\n      tag_244\n      swap1\n      tag_245\n      jump\t// in\n    tag_244:\n      mload(0x40)\n      dup1\n      swap2\n      sub\n      swap1\n      revert\n    tag_243:\n        /* \"@openzeppelin/contracts/utils/Address.sol\":5300:5312  bool success */\n      0x00\n        /* \"@openzeppelin/contracts/utils/Address.sol\":5314:5337  bytes memory returndata */\n      dup1\n        /* \"@openzeppelin/contracts/utils/Address.sol\":5341:5347  target */\n      dup7\n        /* \"@openzeppelin/contracts/utils/Address.sol\":5341:5352  target.call */\n      0xffffffffffffffffffffffffffffffffffffffff\n      and\n        /* \"@openzeppelin/contracts/utils/Address.sol\":5360:5365  value */\n      dup6\n        /* \"@openzeppelin/contracts/utils/Address.sol\":5367:5371  data */\n      dup8\n        /* \"@openzeppelin/contracts/utils/Address.sol\":5341:5372  target.call{value: value}(data) */\n      mload(0x40)\n      tag_246\n      swap2\n      swap1\n      tag_247\n      jump\t// in\n    tag_246:\n      0x00\n      mload(0x40)\n      dup1\n      dup4\n      sub\n      dup2\n      dup6\n      dup8\n      gas\n      call\n      swap3\n      pop\n      pop\n      pop\n      returndatasize\n      dup1\n      0x00\n      dup2\n      eq\n      tag_250\n      jumpi\n      mload(0x40)\n      swap2\n      pop\n      and(add(returndatasize, 0x3f), not(0x1f))\n      dup3\n      add\n      0x40\n      mstore\n      returndatasize\n      dup3\n      mstore\n      returndatasize\n      0x00\n      0x20\n      dup5\n      add\n      returndatacopy\n      jump(tag_249)\n    tag_250:\n      0x60\n      swap2\n      pop\n    tag_249:\n      pop\n        /* \"@openzeppelin/contracts/utils/Address.sol\":5299:5372  (bool success, bytes memory returndata) = target.call{value: value}(data) */\n      swap2\n      pop\n      swap2\n      pop\n        /* \"@openzeppelin/contracts/utils/Address.sol\":5389:5440  verifyCallResult(success, returndata, errorMessage) */\n      tag_251\n        /* \"@openzeppelin/contracts/utils/Address.sol\":5406:5413  success */\n      dup3\n        /* \"@openzeppelin/contracts/utils/Address.sol\":5415:5425  returndata */\n      dup3\n        /* \"@openzeppelin/contracts/utils/Address.sol\":5427:5439  errorMessage */\n      dup7\n        /* \"@openzeppelin/contracts/utils/Address.sol\":5389:5405  verifyCallResult */\n      tag_252\n        /* \"@openzeppelin/contracts/utils/Address.sol\":5389:5440  verifyCallResult(success, returndata, errorMessage) */\n      jump\t// in\n    tag_251:\n        /* \"@openzeppelin/contracts/utils/Address.sol\":5382:5440  return verifyCallResult(success, returndata, errorMessage) */\n      swap3\n      pop\n      pop\n      pop\n        /* \"@openzeppelin/contracts/utils/Address.sol\":4948:5447  function functionCallWithValue(... */\n      swap5\n      swap4\n      pop\n      pop\n      pop\n      pop\n      jump\t// out\n        /* \"@openzeppelin/contracts/utils/Address.sol\":1175:1495  function isContract(address account) internal view returns (bool) {... */\n    tag_242:\n        /* \"@openzeppelin/contracts/utils/Address.sol\":1235:1239  bool */\n      0x00\n        /* \"@openzeppelin/contracts/utils/Address.sol\":1487:1488  0 */\n      dup1\n        /* \"@openzeppelin/contracts/utils/Address.sol\":1465:1472  account */\n      dup3\n        /* \"@openzeppelin/contracts/utils/Address.sol\":1465:1484  account.code.length */\n      0xffffffffffffffffffffffffffffffffffffffff\n      and\n      extcodesize\n        /* \"@openzeppelin/contracts/utils/Address.sol\":1465:1488  account.code.length > 0 */\n      gt\n        /* \"@openzeppelin/contracts/utils/Address.sol\":1458:1488  return account.code.length > 0 */\n      swap1\n      pop\n        /* \"@openzeppelin/contracts/utils/Address.sol\":1175:1495  function isContract(address account) internal view returns (bool) {... */\n      swap2\n      swap1\n      pop\n      jump\t// out\n        /* \"@openzeppelin/contracts/utils/Address.sol\":7561:8253  function verifyCallResult(... */\n    tag_252:\n        /* \"@openzeppelin/contracts/utils/Address.sol\":7707:7719  bytes memory */\n      0x60\n        /* \"@openzeppelin/contracts/utils/Address.sol\":7735:7742  success */\n      dup4\n        /* \"@openzeppelin/contracts/utils/Address.sol\":7731:8247  if (success) {... */\n      iszero\n      tag_255\n      jumpi\n        /* \"@openzeppelin/contracts/utils/Address.sol\":7765:7775  returndata */\n      dup3\n        /* \"@openzeppelin/contracts/utils/Address.sol\":7758:7775  return returndata */\n      swap1\n      pop\n      jump(tag_254)\n        /* \"@openzeppelin/contracts/utils/Address.sol\":7731:8247  if (success) {... */\n    tag_255:\n        /* \"@openzeppelin/contracts/utils/Address.sol\":7896:7897  0 */\n      0x00\n        /* \"@openzeppelin/contracts/utils/Address.sol\":7876:7886  returndata */\n      dup4\n        /* \"@openzeppelin/contracts/utils/Address.sol\":7876:7893  returndata.length */\n      mload\n        /* \"@openzeppelin/contracts/utils/Address.sol\":7876:7897  returndata.length > 0 */\n      gt\n        /* \"@openzeppelin/contracts/utils/Address.sol\":7872:8237  if (returndata.length > 0) {... */\n      iszero\n      tag_257\n      jumpi\n        /* \"@openzeppelin/contracts/utils/Address.sol\":8070:8080  returndata */\n      dup3\n        /* \"@openzeppelin/contracts/utils/Address.sol\":8064:8081  mload(returndata) */\n      mload\n        /* \"@openzeppelin/contracts/utils/Address.sol\":8130:8145  returndata_size */\n      dup1\n        /* \"@openzeppelin/contracts/utils/Address.sol\":8117:8127  returndata */\n      dup5\n        /* \"@openzeppelin/contracts/utils/Address.sol\":8113:8115  32 */\n      0x20\n        /* \"@openzeppelin/contracts/utils/Address.sol\":8109:8128  add(32, returndata) */\n      add\n        /* \"@openzeppelin/contracts/utils/Address.sol\":8102:8146  revert(add(32, returndata), returndata_size) */\n      revert\n        /* \"@openzeppelin/contracts/utils/Address.sol\":7872:8237  if (returndata.length > 0) {... */\n    tag_257:\n        /* \"@openzeppelin/contracts/utils/Address.sol\":8209:8221  errorMessage */\n      dup2\n        /* \"@openzeppelin/contracts/utils/Address.sol\":8202:8222  revert(errorMessage) */\n      mload(0x40)\n      0x08c379a000000000000000000000000000000000000000000000000000000000\n      dup2\n      mstore\n      0x04\n      add\n      tag_259\n      swap2\n      swap1\n      tag_260\n      jump\t// in\n    tag_259:\n      mload(0x40)\n      dup1\n      swap2\n      sub\n      swap1\n      revert\n        /* \"@openzeppelin/contracts/utils/Address.sol\":7561:8253  function verifyCallResult(... */\n    tag_254:\n      swap4\n      swap3\n      pop\n      pop\n      pop\n      jump\t// out\n    tag_89:\n      mload(0x40)\n      dup1\n      0x60\n      add\n      0x40\n      mstore\n      dup1\n      0x00\n      dup2\n      mstore\n      0x20\n      add\n      0x00\n      dup2\n      mstore\n      0x20\n      add\n      tag_261\n      tag_262\n      jump\t// in\n    tag_261:\n      dup2\n      mstore\n      pop\n      swap1\n      jump\t// out\n    tag_262:\n      mload(0x40)\n      dup1\n      0xe0\n      add\n      0x40\n      mstore\n      dup1\n      0x00\n      dup2\n      mstore\n      0x20\n      add\n      0x00\n      dup2\n      mstore\n      0x20\n      add\n      0x00\n      dup2\n      mstore\n      0x20\n      add\n      0x00\n      dup2\n      mstore\n      0x20\n      add\n      0x00\n      dup2\n      mstore\n      0x20\n      add\n      0x00\n      dup2\n      mstore\n      0x20\n      add\n      0x00\n      dup2\n      mstore\n      pop\n      swap1\n      jump\t// out\n        /* \"#utility.yul\":7:84   */\n    tag_263:\n        /* \"#utility.yul\":44:51   */\n      0x00\n        /* \"#utility.yul\":73:78   */\n      dup2\n        /* \"#utility.yul\":62:78   */\n      swap1\n      pop\n        /* \"#utility.yul\":7:84   */\n      swap2\n      swap1\n      pop\n      jump\t// out\n        /* \"#utility.yul\":90:198   */\n    tag_264:\n        /* \"#utility.yul\":167:191   */\n      tag_307\n        /* \"#utility.yul\":185:190   */\n      dup2\n        /* \"#utility.yul\":167:191   */\n      tag_263\n      jump\t// in\n    tag_307:\n        /* \"#utility.yul\":162:165   */\n      dup3\n        /* \"#utility.yul\":155:192   */\n      mstore\n        /* \"#utility.yul\":90:198   */\n      pop\n      pop\n      jump\t// out\n        /* \"#utility.yul\":256:1660   */\n    tag_265:\n        /* \"#utility.yul\":387:391   */\n      0xe0\n        /* \"#utility.yul\":382:385   */\n      dup3\n        /* \"#utility.yul\":378:392   */\n      add\n        /* \"#utility.yul\":476:480   */\n      0x00\n        /* \"#utility.yul\":469:474   */\n      dup3\n        /* \"#utility.yul\":465:481   */\n      add\n        /* \"#utility.yul\":459:482   */\n      mload\n        /* \"#utility.yul\":495:558   */\n      tag_309\n        /* \"#utility.yul\":552:556   */\n      0x00\n        /* \"#utility.yul\":547:550   */\n      dup6\n        /* \"#utility.yul\":543:557   */\n      add\n        /* \"#utility.yul\":529:541   */\n      dup3\n        /* \"#utility.yul\":495:558   */\n      tag_264\n      jump\t// in\n    tag_309:\n        /* \"#utility.yul\":402:568   */\n      pop\n        /* \"#utility.yul\":651:655   */\n      0x20\n        /* \"#utility.yul\":644:649   */\n      dup3\n        /* \"#utility.yul\":640:656   */\n      add\n        /* \"#utility.yul\":634:657   */\n      mload\n        /* \"#utility.yul\":670:733   */\n      tag_310\n        /* \"#utility.yul\":727:731   */\n      0x20\n        /* \"#utility.yul\":722:725   */\n      dup6\n        /* \"#utility.yul\":718:732   */\n      add\n        /* \"#utility.yul\":704:716   */\n      dup3\n        /* \"#utility.yul\":670:733   */\n      tag_264\n      jump\t// in\n    tag_310:\n        /* \"#utility.yul\":578:743   */\n      pop\n        /* \"#utility.yul\":830:834   */\n      0x40\n        /* \"#utility.yul\":823:828   */\n      dup3\n        /* \"#utility.yul\":819:835   */\n      add\n        /* \"#utility.yul\":813:836   */\n      mload\n        /* \"#utility.yul\":849:912   */\n      tag_311\n        /* \"#utility.yul\":906:910   */\n      0x40\n        /* \"#utility.yul\":901:904   */\n      dup6\n        /* \"#utility.yul\":897:911   */\n      add\n        /* \"#utility.yul\":883:895   */\n      dup3\n        /* \"#utility.yul\":849:912   */\n      tag_264\n      jump\t// in\n    tag_311:\n        /* \"#utility.yul\":753:922   */\n      pop\n        /* \"#utility.yul\":1011:1015   */\n      0x60\n        /* \"#utility.yul\":1004:1009   */\n      dup3\n        /* \"#utility.yul\":1000:1016   */\n      add\n        /* \"#utility.yul\":994:1017   */\n      mload\n        /* \"#utility.yul\":1030:1093   */\n      tag_312\n        /* \"#utility.yul\":1087:1091   */\n      0x60\n        /* \"#utility.yul\":1082:1085   */\n      dup6\n        /* \"#utility.yul\":1078:1092   */\n      add\n        /* \"#utility.yul\":1064:1076   */\n      dup3\n        /* \"#utility.yul\":1030:1093   */\n      tag_264\n      jump\t// in\n    tag_312:\n        /* \"#utility.yul\":932:1103   */\n      pop\n        /* \"#utility.yul\":1190:1194   */\n      0x80\n        /* \"#utility.yul\":1183:1188   */\n      dup3\n        /* \"#utility.yul\":1179:1195   */\n      add\n        /* \"#utility.yul\":1173:1196   */\n      mload\n        /* \"#utility.yul\":1209:1272   */\n      tag_313\n        /* \"#utility.yul\":1266:1270   */\n      0x80\n        /* \"#utility.yul\":1261:1264   */\n      dup6\n        /* \"#utility.yul\":1257:1271   */\n      add\n        /* \"#utility.yul\":1243:1255   */\n      dup3\n        /* \"#utility.yul\":1209:1272   */\n      tag_264\n      jump\t// in\n    tag_313:\n        /* \"#utility.yul\":1113:1282   */\n      pop\n        /* \"#utility.yul\":1376:1380   */\n      0xa0\n        /* \"#utility.yul\":1369:1374   */\n      dup3\n        /* \"#utility.yul\":1365:1381   */\n      add\n        /* \"#utility.yul\":1359:1382   */\n      mload\n        /* \"#utility.yul\":1395:1458   */\n      tag_314\n        /* \"#utility.yul\":1452:1456   */\n      0xa0\n        /* \"#utility.yul\":1447:1450   */\n      dup6\n        /* \"#utility.yul\":1443:1457   */\n      add\n        /* \"#utility.yul\":1429:1441   */\n      dup3\n        /* \"#utility.yul\":1395:1458   */\n      tag_264\n      jump\t// in\n    tag_314:\n        /* \"#utility.yul\":1292:1468   */\n      pop\n        /* \"#utility.yul\":1561:1565   */\n      0xc0\n        /* \"#utility.yul\":1554:1559   */\n      dup3\n        /* \"#utility.yul\":1550:1566   */\n      add\n        /* \"#utility.yul\":1544:1567   */\n      mload\n        /* \"#utility.yul\":1580:1643   */\n      tag_315\n        /* \"#utility.yul\":1637:1641   */\n      0xc0\n        /* \"#utility.yul\":1632:1635   */\n      dup6\n        /* \"#utility.yul\":1628:1642   */\n      add\n        /* \"#utility.yul\":1614:1626   */\n      dup3\n        /* \"#utility.yul\":1580:1643   */\n      tag_264\n      jump\t// in\n    tag_315:\n        /* \"#utility.yul\":1478:1653   */\n      pop\n        /* \"#utility.yul\":356:1660   */\n      pop\n        /* \"#utility.yul\":256:1660   */\n      pop\n      pop\n      jump\t// out\n        /* \"#utility.yul\":1736:2487   */\n    tag_266:\n        /* \"#utility.yul\":1895:1901   */\n      0x0120\n        /* \"#utility.yul\":1890:1893   */\n      dup3\n        /* \"#utility.yul\":1886:1902   */\n      add\n        /* \"#utility.yul\":1992:1996   */\n      0x00\n        /* \"#utility.yul\":1985:1990   */\n      dup3\n        /* \"#utility.yul\":1981:1997   */\n      add\n        /* \"#utility.yul\":1975:1998   */\n      mload\n        /* \"#utility.yul\":2011:2074   */\n      tag_317\n        /* \"#utility.yul\":2068:2072   */\n      0x00\n        /* \"#utility.yul\":2063:2066   */\n      dup6\n        /* \"#utility.yul\":2059:2073   */\n      add\n        /* \"#utility.yul\":2045:2057   */\n      dup3\n        /* \"#utility.yul\":2011:2074   */\n      tag_264\n      jump\t// in\n    tag_317:\n        /* \"#utility.yul\":1912:2084   */\n      pop\n        /* \"#utility.yul\":2169:2173   */\n      0x20\n        /* \"#utility.yul\":2162:2167   */\n      dup3\n        /* \"#utility.yul\":2158:2174   */\n      add\n        /* \"#utility.yul\":2152:2175   */\n      mload\n        /* \"#utility.yul\":2188:2251   */\n      tag_318\n        /* \"#utility.yul\":2245:2249   */\n      0x20\n        /* \"#utility.yul\":2240:2243   */\n      dup6\n        /* \"#utility.yul\":2236:2250   */\n      add\n        /* \"#utility.yul\":2222:2234   */\n      dup3\n        /* \"#utility.yul\":2188:2251   */\n      tag_264\n      jump\t// in\n    tag_318:\n        /* \"#utility.yul\":2094:2261   */\n      pop\n        /* \"#utility.yul\":2344:2348   */\n      0x40\n        /* \"#utility.yul\":2337:2342   */\n      dup3\n        /* \"#utility.yul\":2333:2349   */\n      add\n        /* \"#utility.yul\":2327:2350   */\n      mload\n        /* \"#utility.yul\":2363:2470   */\n      tag_319\n        /* \"#utility.yul\":2464:2468   */\n      0x40\n        /* \"#utility.yul\":2459:2462   */\n      dup6\n        /* \"#utility.yul\":2455:2469   */\n      add\n        /* \"#utility.yul\":2441:2453   */\n      dup3\n        /* \"#utility.yul\":2363:2470   */\n      tag_265\n      jump\t// in\n    tag_319:\n        /* \"#utility.yul\":2271:2480   */\n      pop\n        /* \"#utility.yul\":1864:2487   */\n      pop\n        /* \"#utility.yul\":1736:2487   */\n      pop\n      pop\n      jump\t// out\n        /* \"#utility.yul\":2493:2840   */\n    tag_28:\n        /* \"#utility.yul\":2648:2652   */\n      0x00\n        /* \"#utility.yul\":2686:2689   */\n      0x0120\n        /* \"#utility.yul\":2675:2684   */\n      dup3\n        /* \"#utility.yul\":2671:2690   */\n      add\n        /* \"#utility.yul\":2663:2690   */\n      swap1\n      pop\n        /* \"#utility.yul\":2700:2833   */\n      tag_321\n        /* \"#utility.yul\":2830:2831   */\n      0x00\n        /* \"#utility.yul\":2819:2828   */\n      dup4\n        /* \"#utility.yul\":2815:2832   */\n      add\n        /* \"#utility.yul\":2806:2812   */\n      dup5\n        /* \"#utility.yul\":2700:2833   */\n      tag_266\n      jump\t// in\n    tag_321:\n        /* \"#utility.yul\":2493:2840   */\n      swap3\n      swap2\n      pop\n      pop\n      jump\t// out\n        /* \"#utility.yul\":2846:2964   */\n    tag_267:\n        /* \"#utility.yul\":2933:2957   */\n      tag_323\n        /* \"#utility.yul\":2951:2956   */\n      dup2\n        /* \"#utility.yul\":2933:2957   */\n      tag_263\n      jump\t// in\n    tag_323:\n        /* \"#utility.yul\":2928:2931   */\n      dup3\n        /* \"#utility.yul\":2921:2958   */\n      mstore\n        /* \"#utility.yul\":2846:2964   */\n      pop\n      pop\n      jump\t// out\n        /* \"#utility.yul\":2970:3192   */\n    tag_34:\n        /* \"#utility.yul\":3063:3067   */\n      0x00\n        /* \"#utility.yul\":3101:3103   */\n      0x20\n        /* \"#utility.yul\":3090:3099   */\n      dup3\n        /* \"#utility.yul\":3086:3104   */\n      add\n        /* \"#utility.yul\":3078:3104   */\n      swap1\n      pop\n        /* \"#utility.yul\":3114:3185   */\n      tag_325\n        /* \"#utility.yul\":3182:3183   */\n      0x00\n        /* \"#utility.yul\":3171:3180   */\n      dup4\n        /* \"#utility.yul\":3167:3184   */\n      add\n        /* \"#utility.yul\":3158:3164   */\n      dup5\n        /* \"#utility.yul\":3114:3185   */\n      tag_267\n      jump\t// in\n    tag_325:\n        /* \"#utility.yul\":2970:3192   */\n      swap3\n      swap2\n      pop\n      pop\n      jump\t// out\n        /* \"#utility.yul\":3279:3396   */\n    tag_269:\n        /* \"#utility.yul\":3388:3389   */\n      0x00\n        /* \"#utility.yul\":3385:3386   */\n      dup1\n        /* \"#utility.yul\":3378:3390   */\n      revert\n        /* \"#utility.yul\":3525:3647   */\n    tag_271:\n        /* \"#utility.yul\":3598:3622   */\n      tag_330\n        /* \"#utility.yul\":3616:3621   */\n      dup2\n        /* \"#utility.yul\":3598:3622   */\n      tag_263\n      jump\t// in\n    tag_330:\n        /* \"#utility.yul\":3591:3596   */\n      dup2\n        /* \"#utility.yul\":3588:3623   */\n      eq\n        /* \"#utility.yul\":3578:3641   */\n      tag_331\n      jumpi\n        /* \"#utility.yul\":3637:3638   */\n      0x00\n        /* \"#utility.yul\":3634:3635   */\n      dup1\n        /* \"#utility.yul\":3627:3639   */\n      revert\n        /* \"#utility.yul\":3578:3641   */\n    tag_331:\n        /* \"#utility.yul\":3525:3647   */\n      pop\n      jump\t// out\n        /* \"#utility.yul\":3653:3792   */\n    tag_272:\n        /* \"#utility.yul\":3699:3704   */\n      0x00\n        /* \"#utility.yul\":3737:3743   */\n      dup2\n        /* \"#utility.yul\":3724:3744   */\n      calldataload\n        /* \"#utility.yul\":3715:3744   */\n      swap1\n      pop\n        /* \"#utility.yul\":3753:3786   */\n      tag_333\n        /* \"#utility.yul\":3780:3785   */\n      dup2\n        /* \"#utility.yul\":3753:3786   */\n      tag_271\n      jump\t// in\n    tag_333:\n        /* \"#utility.yul\":3653:3792   */\n      swap3\n      swap2\n      pop\n      pop\n      jump\t// out\n        /* \"#utility.yul\":3798:4272   */\n    tag_39:\n        /* \"#utility.yul\":3866:3872   */\n      0x00\n        /* \"#utility.yul\":3874:3880   */\n      dup1\n        /* \"#utility.yul\":3923:3925   */\n      0x40\n        /* \"#utility.yul\":3911:3920   */\n      dup4\n        /* \"#utility.yul\":3902:3909   */\n      dup6\n        /* \"#utility.yul\":3898:3921   */\n      sub\n        /* \"#utility.yul\":3894:3926   */\n      slt\n        /* \"#utility.yul\":3891:4010   */\n      iszero\n      tag_335\n      jumpi\n        /* \"#utility.yul\":3929:4008   */\n      tag_336\n      tag_269\n      jump\t// in\n    tag_336:\n        /* \"#utility.yul\":3891:4010   */\n    tag_335:\n        /* \"#utility.yul\":4049:4050   */\n      0x00\n        /* \"#utility.yul\":4074:4127   */\n      tag_337\n        /* \"#utility.yul\":4119:4126   */\n      dup6\n        /* \"#utility.yul\":4110:4116   */\n      dup3\n        /* \"#utility.yul\":4099:4108   */\n      dup7\n        /* \"#utility.yul\":4095:4117   */\n      add\n        /* \"#utility.yul\":4074:4127   */\n      tag_272\n      jump\t// in\n    tag_337:\n        /* \"#utility.yul\":4064:4127   */\n      swap3\n      pop\n        /* \"#utility.yul\":4020:4137   */\n      pop\n        /* \"#utility.yul\":4176:4178   */\n      0x20\n        /* \"#utility.yul\":4202:4255   */\n      tag_338\n        /* \"#utility.yul\":4247:4254   */\n      dup6\n        /* \"#utility.yul\":4238:4244   */\n      dup3\n        /* \"#utility.yul\":4227:4236   */\n      dup7\n        /* \"#utility.yul\":4223:4245   */\n      add\n        /* \"#utility.yul\":4202:4255   */\n      tag_272\n      jump\t// in\n    tag_338:\n        /* \"#utility.yul\":4192:4255   */\n      swap2\n      pop\n        /* \"#utility.yul\":4147:4265   */\n      pop\n        /* \"#utility.yul\":3798:4272   */\n      swap3\n      pop\n      swap3\n      swap1\n      pop\n      jump\t// out\n        /* \"#utility.yul\":4278:4607   */\n    tag_46:\n        /* \"#utility.yul\":4337:4343   */\n      0x00\n        /* \"#utility.yul\":4386:4388   */\n      0x20\n        /* \"#utility.yul\":4374:4383   */\n      dup3\n        /* \"#utility.yul\":4365:4372   */\n      dup5\n        /* \"#utility.yul\":4361:4384   */\n      sub\n        /* \"#utility.yul\":4357:4389   */\n      slt\n        /* \"#utility.yul\":4354:4473   */\n      iszero\n      tag_340\n      jumpi\n        /* \"#utility.yul\":4392:4471   */\n      tag_341\n      tag_269\n      jump\t// in\n    tag_341:\n        /* \"#utility.yul\":4354:4473   */\n    tag_340:\n        /* \"#utility.yul\":4512:4513   */\n      0x00\n        /* \"#utility.yul\":4537:4590   */\n      tag_342\n        /* \"#utility.yul\":4582:4589   */\n      dup5\n        /* \"#utility.yul\":4573:4579   */\n      dup3\n        /* \"#utility.yul\":4562:4571   */\n      dup6\n        /* \"#utility.yul\":4558:4580   */\n      add\n        /* \"#utility.yul\":4537:4590   */\n      tag_272\n      jump\t// in\n    tag_342:\n        /* \"#utility.yul\":4527:4590   */\n      swap2\n      pop\n        /* \"#utility.yul\":4483:4600   */\n      pop\n        /* \"#utility.yul\":4278:4607   */\n      swap3\n      swap2\n      pop\n      pop\n      jump\t// out\n        /* \"#utility.yul\":4613:4739   */\n    tag_273:\n        /* \"#utility.yul\":4650:4657   */\n      0x00\n        /* \"#utility.yul\":4690:4732   */\n      0xffffffffffffffffffffffffffffffffffffffff\n        /* \"#utility.yul\":4683:4688   */\n      dup3\n        /* \"#utility.yul\":4679:4733   */\n      and\n        /* \"#utility.yul\":4668:4733   */\n      swap1\n      pop\n        /* \"#utility.yul\":4613:4739   */\n      swap2\n      swap1\n      pop\n      jump\t// out\n        /* \"#utility.yul\":4745:4841   */\n    tag_274:\n        /* \"#utility.yul\":4782:4789   */\n      0x00\n        /* \"#utility.yul\":4811:4835   */\n      tag_345\n        /* \"#utility.yul\":4829:4834   */\n      dup3\n        /* \"#utility.yul\":4811:4835   */\n      tag_273\n      jump\t// in\n    tag_345:\n        /* \"#utility.yul\":4800:4835   */\n      swap1\n      pop\n        /* \"#utility.yul\":4745:4841   */\n      swap2\n      swap1\n      pop\n      jump\t// out\n        /* \"#utility.yul\":4847:4965   */\n    tag_275:\n        /* \"#utility.yul\":4934:4958   */\n      tag_347\n        /* \"#utility.yul\":4952:4957   */\n      dup2\n        /* \"#utility.yul\":4934:4958   */\n      tag_274\n      jump\t// in\n    tag_347:\n        /* \"#utility.yul\":4929:4932   */\n      dup3\n        /* \"#utility.yul\":4922:4959   */\n      mstore\n        /* \"#utility.yul\":4847:4965   */\n      pop\n      pop\n      jump\t// out\n        /* \"#utility.yul\":4971:5193   */\n    tag_51:\n        /* \"#utility.yul\":5064:5068   */\n      0x00\n        /* \"#utility.yul\":5102:5104   */\n      0x20\n        /* \"#utility.yul\":5091:5100   */\n      dup3\n        /* \"#utility.yul\":5087:5105   */\n      add\n        /* \"#utility.yul\":5079:5105   */\n      swap1\n      pop\n        /* \"#utility.yul\":5115:5186   */\n      tag_349\n        /* \"#utility.yul\":5183:5184   */\n      0x00\n        /* \"#utility.yul\":5172:5181   */\n      dup4\n        /* \"#utility.yul\":5168:5185   */\n      add\n        /* \"#utility.yul\":5159:5165   */\n      dup5\n        /* \"#utility.yul\":5115:5186   */\n      tag_275\n      jump\t// in\n    tag_349:\n        /* \"#utility.yul\":4971:5193   */\n      swap3\n      swap2\n      pop\n      pop\n      jump\t// out\n        /* \"#utility.yul\":5199:5321   */\n    tag_276:\n        /* \"#utility.yul\":5272:5296   */\n      tag_351\n        /* \"#utility.yul\":5290:5295   */\n      dup2\n        /* \"#utility.yul\":5272:5296   */\n      tag_274\n      jump\t// in\n    tag_351:\n        /* \"#utility.yul\":5265:5270   */\n      dup2\n        /* \"#utility.yul\":5262:5297   */\n      eq\n        /* \"#utility.yul\":5252:5315   */\n      tag_352\n      jumpi\n        /* \"#utility.yul\":5311:5312   */\n      0x00\n        /* \"#utility.yul\":5308:5309   */\n      dup1\n        /* \"#utility.yul\":5301:5313   */\n      revert\n        /* \"#utility.yul\":5252:5315   */\n    tag_352:\n        /* \"#utility.yul\":5199:5321   */\n      pop\n      jump\t// out\n        /* \"#utility.yul\":5327:5466   */\n    tag_277:\n        /* \"#utility.yul\":5373:5378   */\n      0x00\n        /* \"#utility.yul\":5411:5417   */\n      dup2\n        /* \"#utility.yul\":5398:5418   */\n      calldataload\n        /* \"#utility.yul\":5389:5418   */\n      swap1\n      pop\n        /* \"#utility.yul\":5427:5460   */\n      tag_354\n        /* \"#utility.yul\":5454:5459   */\n      dup2\n        /* \"#utility.yul\":5427:5460   */\n      tag_276\n      jump\t// in\n    tag_354:\n        /* \"#utility.yul\":5327:5466   */\n      swap3\n      swap2\n      pop\n      pop\n      jump\t// out\n        /* \"#utility.yul\":5472:5801   */\n    tag_61:\n        /* \"#utility.yul\":5531:5537   */\n      0x00\n        /* \"#utility.yul\":5580:5582   */\n      0x20\n        /* \"#utility.yul\":5568:5577   */\n      dup3\n        /* \"#utility.yul\":5559:5566   */\n      dup5\n        /* \"#utility.yul\":5555:5578   */\n      sub\n        /* \"#utility.yul\":5551:5583   */\n      slt\n        /* \"#utility.yul\":5548:5667   */\n      iszero\n      tag_356\n      jumpi\n        /* \"#utility.yul\":5586:5665   */\n      tag_357\n      tag_269\n      jump\t// in\n    tag_357:\n        /* \"#utility.yul\":5548:5667   */\n    tag_356:\n        /* \"#utility.yul\":5706:5707   */\n      0x00\n        /* \"#utility.yul\":5731:5784   */\n      tag_358\n        /* \"#utility.yul\":5776:5783   */\n      dup5\n        /* \"#utility.yul\":5767:5773   */\n      dup3\n        /* \"#utility.yul\":5756:5765   */\n      dup6\n        /* \"#utility.yul\":5752:5774   */\n      add\n        /* \"#utility.yul\":5731:5784   */\n      tag_277\n      jump\t// in\n    tag_358:\n        /* \"#utility.yul\":5721:5784   */\n      swap2\n      pop\n        /* \"#utility.yul\":5677:5794   */\n      pop\n        /* \"#utility.yul\":5472:5801   */\n      swap3\n      swap2\n      pop\n      pop\n      jump\t// out\n        /* \"#utility.yul\":5807:5897   */\n    tag_278:\n        /* \"#utility.yul\":5841:5848   */\n      0x00\n        /* \"#utility.yul\":5884:5889   */\n      dup2\n        /* \"#utility.yul\":5877:5890   */\n      iszero\n        /* \"#utility.yul\":5870:5891   */\n      iszero\n        /* \"#utility.yul\":5859:5891   */\n      swap1\n      pop\n        /* \"#utility.yul\":5807:5897   */\n      swap2\n      swap1\n      pop\n      jump\t// out\n        /* \"#utility.yul\":5903:6012   */\n    tag_279:\n        /* \"#utility.yul\":5984:6005   */\n      tag_361\n        /* \"#utility.yul\":5999:6004   */\n      dup2\n        /* \"#utility.yul\":5984:6005   */\n      tag_278\n      jump\t// in\n    tag_361:\n        /* \"#utility.yul\":5979:5982   */\n      dup3\n        /* \"#utility.yul\":5972:6006   */\n      mstore\n        /* \"#utility.yul\":5903:6012   */\n      pop\n      pop\n      jump\t// out\n        /* \"#utility.yul\":6018:6228   */\n    tag_64:\n        /* \"#utility.yul\":6105:6109   */\n      0x00\n        /* \"#utility.yul\":6143:6145   */\n      0x20\n        /* \"#utility.yul\":6132:6141   */\n      dup3\n        /* \"#utility.yul\":6128:6146   */\n      add\n        /* \"#utility.yul\":6120:6146   */\n      swap1\n      pop\n        /* \"#utility.yul\":6156:6221   */\n      tag_363\n        /* \"#utility.yul\":6218:6219   */\n      0x00\n        /* \"#utility.yul\":6207:6216   */\n      dup4\n        /* \"#utility.yul\":6203:6220   */\n      add\n        /* \"#utility.yul\":6194:6200   */\n      dup5\n        /* \"#utility.yul\":6156:6221   */\n      tag_279\n      jump\t// in\n    tag_363:\n        /* \"#utility.yul\":6018:6228   */\n      swap3\n      swap2\n      pop\n      pop\n      jump\t// out\n        /* \"#utility.yul\":6234:6414   */\n    tag_280:\n        /* \"#utility.yul\":6282:6359   */\n      0x4e487b7100000000000000000000000000000000000000000000000000000000\n        /* \"#utility.yul\":6279:6280   */\n      0x00\n        /* \"#utility.yul\":6272:6360   */\n      mstore\n        /* \"#utility.yul\":6379:6383   */\n      0x11\n        /* \"#utility.yul\":6376:6377   */\n      0x04\n        /* \"#utility.yul\":6369:6384   */\n      mstore\n        /* \"#utility.yul\":6403:6407   */\n      0x24\n        /* \"#utility.yul\":6400:6401   */\n      0x00\n        /* \"#utility.yul\":6393:6408   */\n      revert\n        /* \"#utility.yul\":6420:6768   */\n    tag_96:\n        /* \"#utility.yul\":6460:6467   */\n      0x00\n        /* \"#utility.yul\":6483:6503   */\n      tag_366\n        /* \"#utility.yul\":6501:6502   */\n      dup3\n        /* \"#utility.yul\":6483:6503   */\n      tag_263\n      jump\t// in\n    tag_366:\n        /* \"#utility.yul\":6478:6503   */\n      swap2\n      pop\n        /* \"#utility.yul\":6517:6537   */\n      tag_367\n        /* \"#utility.yul\":6535:6536   */\n      dup4\n        /* \"#utility.yul\":6517:6537   */\n      tag_263\n      jump\t// in\n    tag_367:\n        /* \"#utility.yul\":6512:6537   */\n      swap3\n      pop\n        /* \"#utility.yul\":6705:6706   */\n      dup2\n        /* \"#utility.yul\":6637:6703   */\n      0xffffffffffffffffffffffffffffffffffffffffffffffffffffffffffffffff\n        /* \"#utility.yul\":6633:6707   */\n      div\n        /* \"#utility.yul\":6630:6631   */\n      dup4\n        /* \"#utility.yul\":6627:6708   */\n      gt\n        /* \"#utility.yul\":6622:6623   */\n      dup3\n        /* \"#utility.yul\":6615:6624   */\n      iszero\n        /* \"#utility.yul\":6608:6625   */\n      iszero\n        /* \"#utility.yul\":6604:6709   */\n      and\n        /* \"#utility.yul\":6601:6732   */\n      iszero\n      tag_368\n      jumpi\n        /* \"#utility.yul\":6712:6730   */\n      tag_369\n      tag_280\n      jump\t// in\n    tag_369:\n        /* \"#utility.yul\":6601:6732   */\n    tag_368:\n        /* \"#utility.yul\":6760:6761   */\n      dup3\n        /* \"#utility.yul\":6757:6758   */\n      dup3\n        /* \"#utility.yul\":6753:6762   */\n      mul\n        /* \"#utility.yul\":6742:6762   */\n      swap1\n      pop\n        /* \"#utility.yul\":6420:6768   */\n      swap3\n      swap2\n      pop\n      pop\n      jump\t// out\n        /* \"#utility.yul\":6774:6954   */\n    tag_281:\n        /* \"#utility.yul\":6822:6899   */\n      0x4e487b7100000000000000000000000000000000000000000000000000000000\n        /* \"#utility.yul\":6819:6820   */\n      0x00\n        /* \"#utility.yul\":6812:6900   */\n      mstore\n        /* \"#utility.yul\":6919:6923   */\n      0x12\n        /* \"#utility.yul\":6916:6917   */\n      0x04\n        /* \"#utility.yul\":6909:6924   */\n      mstore\n        /* \"#utility.yul\":6943:6947   */\n      0x24\n        /* \"#utility.yul\":6940:6941   */\n      0x00\n        /* \"#utility.yul\":6933:6948   */\n      revert\n        /* \"#utility.yul\":6960:7145   */\n    tag_98:\n        /* \"#utility.yul\":7000:7001   */\n      0x00\n        /* \"#utility.yul\":7017:7037   */\n      tag_372\n        /* \"#utility.yul\":7035:7036   */\n      dup3\n        /* \"#utility.yul\":7017:7037   */\n      tag_263\n      jump\t// in\n    tag_372:\n        /* \"#utility.yul\":7012:7037   */\n      swap2\n      pop\n        /* \"#utility.yul\":7051:7071   */\n      tag_373\n        /* \"#utility.yul\":7069:7070   */\n      dup4\n        /* \"#utility.yul\":7051:7071   */\n      tag_263\n      jump\t// in\n    tag_373:\n        /* \"#utility.yul\":7046:7071   */\n      swap3\n      pop\n        /* \"#utility.yul\":7090:7091   */\n      dup3\n        /* \"#utility.yul\":7080:7115   */\n      tag_374\n      jumpi\n        /* \"#utility.yul\":7095:7113   */\n      tag_375\n      tag_281\n      jump\t// in\n    tag_375:\n        /* \"#utility.yul\":7080:7115   */\n    tag_374:\n        /* \"#utility.yul\":7137:7138   */\n      dup3\n        /* \"#utility.yul\":7134:7135   */\n      dup3\n        /* \"#utility.yul\":7130:7139   */\n      div\n        /* \"#utility.yul\":7125:7139   */\n      swap1\n      pop\n        /* \"#utility.yul\":6960:7145   */\n      swap3\n      swap2\n      pop\n      pop\n      jump\t// out\n        /* \"#utility.yul\":7151:7456   */\n    tag_102:\n        /* \"#utility.yul\":7191:7194   */\n      0x00\n        /* \"#utility.yul\":7210:7230   */\n      tag_377\n        /* \"#utility.yul\":7228:7229   */\n      dup3\n        /* \"#utility.yul\":7210:7230   */\n      tag_263\n      jump\t// in\n    tag_377:\n        /* \"#utility.yul\":7205:7230   */\n      swap2\n      pop\n        /* \"#utility.yul\":7244:7264   */\n      tag_378\n        /* \"#utility.yul\":7262:7263   */\n      dup4\n        /* \"#utility.yul\":7244:7264   */\n      tag_263\n      jump\t// in\n    tag_378:\n        /* \"#utility.yul\":7239:7264   */\n      swap3\n      pop\n        /* \"#utility.yul\":7398:7399   */\n      dup3\n        /* \"#utility.yul\":7330:7396   */\n      0xffffffffffffffffffffffffffffffffffffffffffffffffffffffffffffffff\n        /* \"#utility.yul\":7326:7400   */\n      sub\n        /* \"#utility.yul\":7323:7324   */\n      dup3\n        /* \"#utility.yul\":7320:7401   */\n      gt\n        /* \"#utility.yul\":7317:7424   */\n      iszero\n      tag_379\n      jumpi\n        /* \"#utility.yul\":7404:7422   */\n      tag_380\n      tag_280\n      jump\t// in\n    tag_380:\n        /* \"#utility.yul\":7317:7424   */\n    tag_379:\n        /* \"#utility.yul\":7448:7449   */\n      dup3\n        /* \"#utility.yul\":7445:7446   */\n      dup3\n        /* \"#utility.yul\":7441:7450   */\n      add\n        /* \"#utility.yul\":7434:7450   */\n      swap1\n      pop\n        /* \"#utility.yul\":7151:7456   */\n      swap3\n      swap2\n      pop\n      pop\n      jump\t// out\n        /* \"#utility.yul\":7462:7631   */\n    tag_282:\n        /* \"#utility.yul\":7546:7557   */\n      0x00\n        /* \"#utility.yul\":7580:7586   */\n      dup3\n        /* \"#utility.yul\":7575:7578   */\n      dup3\n        /* \"#utility.yul\":7568:7587   */\n      mstore\n        /* \"#utility.yul\":7620:7624   */\n      0x20\n        /* \"#utility.yul\":7615:7618   */\n      dup3\n        /* \"#utility.yul\":7611:7625   */\n      add\n        /* \"#utility.yul\":7596:7625   */\n      swap1\n      pop\n        /* \"#utility.yul\":7462:7631   */\n      swap3\n      swap2\n      pop\n      pop\n      jump\t// out\n        /* \"#utility.yul\":7637:7819   */\n    tag_283:\n        /* \"#utility.yul\":7777:7811   */\n      0x4f776e61626c653a2063616c6c6572206973206e6f7420746865206f776e6572\n        /* \"#utility.yul\":7773:7774   */\n      0x00\n        /* \"#utility.yul\":7765:7771   */\n      dup3\n        /* \"#utility.yul\":7761:7775   */\n      add\n        /* \"#utility.yul\":7754:7812   */\n      mstore\n        /* \"#utility.yul\":7637:7819   */\n      pop\n      jump\t// out\n        /* \"#utility.yul\":7825:8191   */\n    tag_284:\n        /* \"#utility.yul\":7967:7970   */\n      0x00\n        /* \"#utility.yul\":7988:8055   */\n      tag_384\n        /* \"#utility.yul\":8052:8054   */\n      0x20\n        /* \"#utility.yul\":8047:8050   */\n      dup4\n        /* \"#utility.yul\":7988:8055   */\n      tag_282\n      jump\t// in\n    tag_384:\n        /* \"#utility.yul\":7981:8055   */\n      swap2\n      pop\n        /* \"#utility.yul\":8064:8157   */\n      tag_385\n        /* \"#utility.yul\":8153:8156   */\n      dup3\n        /* \"#utility.yul\":8064:8157   */\n      tag_283\n      jump\t// in\n    tag_385:\n        /* \"#utility.yul\":8182:8184   */\n      0x20\n        /* \"#utility.yul\":8177:8180   */\n      dup3\n        /* \"#utility.yul\":8173:8185   */\n      add\n        /* \"#utility.yul\":8166:8185   */\n      swap1\n      pop\n        /* \"#utility.yul\":7825:8191   */\n      swap2\n      swap1\n      pop\n      jump\t// out\n        /* \"#utility.yul\":8197:8616   */\n    tag_121:\n        /* \"#utility.yul\":8363:8367   */\n      0x00\n        /* \"#utility.yul\":8401:8403   */\n      0x20\n        /* \"#utility.yul\":8390:8399   */\n      dup3\n        /* \"#utility.yul\":8386:8404   */\n      add\n        /* \"#utility.yul\":8378:8404   */\n      swap1\n      pop\n        /* \"#utility.yul\":8450:8459   */\n      dup2\n        /* \"#utility.yul\":8444:8448   */\n      dup2\n        /* \"#utility.yul\":8440:8460   */\n      sub\n        /* \"#utility.yul\":8436:8437   */\n      0x00\n        /* \"#utility.yul\":8425:8434   */\n      dup4\n        /* \"#utility.yul\":8421:8438   */\n      add\n        /* \"#utility.yul\":8414:8461   */\n      mstore\n        /* \"#utility.yul\":8478:8609   */\n      tag_387\n        /* \"#utility.yul\":8604:8608   */\n      dup2\n        /* \"#utility.yul\":8478:8609   */\n      tag_284\n      jump\t// in\n    tag_387:\n        /* \"#utility.yul\":8470:8609   */\n      swap1\n      pop\n        /* \"#utility.yul\":8197:8616   */\n      swap2\n      swap1\n      pop\n      jump\t// out\n        /* \"#utility.yul\":8622:8803   */\n    tag_285:\n        /* \"#utility.yul\":8762:8795   */\n      0x5265656e7472616e637947756172643a207265656e7472616e742063616c6c00\n        /* \"#utility.yul\":8758:8759   */\n      0x00\n        /* \"#utility.yul\":8750:8756   */\n      dup3\n        /* \"#utility.yul\":8746:8760   */\n      add\n        /* \"#utility.yul\":8739:8796   */\n      mstore\n        /* \"#utility.yul\":8622:8803   */\n      pop\n      jump\t// out\n        /* \"#utility.yul\":8809:9175   */\n    tag_286:\n        /* \"#utility.yul\":8951:8954   */\n      0x00\n        /* \"#utility.yul\":8972:9039   */\n      tag_390\n        /* \"#utility.yul\":9036:9038   */\n      0x1f\n        /* \"#utility.yul\":9031:9034   */\n      dup4\n        /* \"#utility.yul\":8972:9039   */\n      tag_282\n      jump\t// in\n    tag_390:\n        /* \"#utility.yul\":8965:9039   */\n      swap2\n      pop\n        /* \"#utility.yul\":9048:9141   */\n      tag_391\n        /* \"#utility.yul\":9137:9140   */\n      dup3\n        /* \"#utility.yul\":9048:9141   */\n      tag_285\n      jump\t// in\n    tag_391:\n        /* \"#utility.yul\":9166:9168   */\n      0x20\n        /* \"#utility.yul\":9161:9164   */\n      dup3\n        /* \"#utility.yul\":9157:9169   */\n      add\n        /* \"#utility.yul\":9150:9169   */\n      swap1\n      pop\n        /* \"#utility.yul\":8809:9175   */\n      swap2\n      swap1\n      pop\n      jump\t// out\n        /* \"#utility.yul\":9181:9600   */\n    tag_128:\n        /* \"#utility.yul\":9347:9351   */\n      0x00\n        /* \"#utility.yul\":9385:9387   */\n      0x20\n        /* \"#utility.yul\":9374:9383   */\n      dup3\n        /* \"#utility.yul\":9370:9388   */\n      add\n        /* \"#utility.yul\":9362:9388   */\n      swap1\n      pop\n        /* \"#utility.yul\":9434:9443   */\n      dup2\n        /* \"#utility.yul\":9428:9432   */\n      dup2\n        /* \"#utility.yul\":9424:9444   */\n      sub\n        /* \"#utility.yul\":9420:9421   */\n      0x00\n        /* \"#utility.yul\":9409:9418   */\n      dup4\n        /* \"#utility.yul\":9405:9422   */\n      add\n        /* \"#utility.yul\":9398:9445   */\n      mstore\n        /* \"#utility.yul\":9462:9593   */\n      tag_393\n        /* \"#utility.yul\":9588:9592   */\n      dup2\n        /* \"#utility.yul\":9462:9593   */\n      tag_286\n      jump\t// in\n    tag_393:\n        /* \"#utility.yul\":9454:9593   */\n      swap1\n      pop\n        /* \"#utility.yul\":9181:9600   */\n      swap2\n      swap1\n      pop\n      jump\t// out\n        /* \"#utility.yul\":9606:10048   */\n    tag_138:\n        /* \"#utility.yul\":9755:9759   */\n      0x00\n        /* \"#utility.yul\":9793:9795   */\n      0x60\n        /* \"#utility.yul\":9782:9791   */\n      dup3\n        /* \"#utility.yul\":9778:9796   */\n      add\n        /* \"#utility.yul\":9770:9796   */\n      swap1\n      pop\n        /* \"#utility.yul\":9806:9877   */\n      tag_395\n        /* \"#utility.yul\":9874:9875   */\n      0x00\n        /* \"#utility.yul\":9863:9872   */\n      dup4\n        /* \"#utility.yul\":9859:9876   */\n      add\n        /* \"#utility.yul\":9850:9856   */\n      dup7\n        /* \"#utility.yul\":9806:9877   */\n      tag_267\n      jump\t// in\n    tag_395:\n        /* \"#utility.yul\":9887:9959   */\n      tag_396\n        /* \"#utility.yul\":9955:9957   */\n      0x20\n        /* \"#utility.yul\":9944:9953   */\n      dup4\n        /* \"#utility.yul\":9940:9958   */\n      add\n        /* \"#utility.yul\":9931:9937   */\n      dup6\n        /* \"#utility.yul\":9887:9959   */\n      tag_267\n      jump\t// in\n    tag_396:\n        /* \"#utility.yul\":9969:10041   */\n      tag_397\n        /* \"#utility.yul\":10037:10039   */\n      0x40\n        /* \"#utility.yul\":10026:10035   */\n      dup4\n        /* \"#utility.yul\":10022:10040   */\n      add\n        /* \"#utility.yul\":10013:10019   */\n      dup5\n        /* \"#utility.yul\":9969:10041   */\n      tag_267\n      jump\t// in\n    tag_397:\n        /* \"#utility.yul\":9606:10048   */\n      swap5\n      swap4\n      pop\n      pop\n      pop\n      pop\n      jump\t// out\n        /* \"#utility.yul\":10054:10245   */\n    tag_150:\n        /* \"#utility.yul\":10094:10098   */\n      0x00\n        /* \"#utility.yul\":10114:10134   */\n      tag_399\n        /* \"#utility.yul\":10132:10133   */\n      dup3\n        /* \"#utility.yul\":10114:10134   */\n      tag_263\n      jump\t// in\n    tag_399:\n        /* \"#utility.yul\":10109:10134   */\n      swap2\n      pop\n        /* \"#utility.yul\":10148:10168   */\n      tag_400\n        /* \"#utility.yul\":10166:10167   */\n      dup4\n        /* \"#utility.yul\":10148:10168   */\n      tag_263\n      jump\t// in\n    tag_400:\n        /* \"#utility.yul\":10143:10168   */\n      swap3\n      pop\n        /* \"#utility.yul\":10187:10188   */\n      dup3\n        /* \"#utility.yul\":10184:10185   */\n      dup3\n        /* \"#utility.yul\":10181:10189   */\n      lt\n        /* \"#utility.yul\":10178:10212   */\n      iszero\n      tag_401\n      jumpi\n        /* \"#utility.yul\":10192:10210   */\n      tag_402\n      tag_280\n      jump\t// in\n    tag_402:\n        /* \"#utility.yul\":10178:10212   */\n    tag_401:\n        /* \"#utility.yul\":10237:10238   */\n      dup3\n        /* \"#utility.yul\":10234:10235   */\n      dup3\n        /* \"#utility.yul\":10230:10239   */\n      sub\n        /* \"#utility.yul\":10222:10239   */\n      swap1\n      pop\n        /* \"#utility.yul\":10054:10245   */\n      swap3\n      swap2\n      pop\n      pop\n      jump\t// out\n        /* \"#utility.yul\":10251:10476   */\n    tag_287:\n        /* \"#utility.yul\":10391:10425   */\n      0x4f776e61626c653a206e6577206f776e657220697320746865207a65726f2061\n        /* \"#utility.yul\":10387:10388   */\n      0x00\n        /* \"#utility.yul\":10379:10385   */\n      dup3\n        /* \"#utility.yul\":10375:10389   */\n      add\n        /* \"#utility.yul\":10368:10426   */\n      mstore\n        /* \"#utility.yul\":10460:10468   */\n      0x6464726573730000000000000000000000000000000000000000000000000000\n        /* \"#utility.yul\":10455:10457   */\n      0x20\n        /* \"#utility.yul\":10447:10453   */\n      dup3\n        /* \"#utility.yul\":10443:10458   */\n      add\n        /* \"#utility.yul\":10436:10469   */\n      mstore\n        /* \"#utility.yul\":10251:10476   */\n      pop\n      jump\t// out\n        /* \"#utility.yul\":10482:10848   */\n    tag_288:\n        /* \"#utility.yul\":10624:10627   */\n      0x00\n        /* \"#utility.yul\":10645:10712   */\n      tag_405\n        /* \"#utility.yul\":10709:10711   */\n      0x26\n        /* \"#utility.yul\":10704:10707   */\n      dup4\n        /* \"#utility.yul\":10645:10712   */\n      tag_282\n      jump\t// in\n    tag_405:\n        /* \"#utility.yul\":10638:10712   */\n      swap2\n      pop\n        /* \"#utility.yul\":10721:10814   */\n      tag_406\n        /* \"#utility.yul\":10810:10813   */\n      dup3\n        /* \"#utility.yul\":10721:10814   */\n      tag_287\n      jump\t// in\n    tag_406:\n        /* \"#utility.yul\":10839:10841   */\n      0x40\n        /* \"#utility.yul\":10834:10837   */\n      dup3\n        /* \"#utility.yul\":10830:10842   */\n      add\n        /* \"#utility.yul\":10823:10842   */\n      swap1\n      pop\n        /* \"#utility.yul\":10482:10848   */\n      swap2\n      swap1\n      pop\n      jump\t// out\n        /* \"#utility.yul\":10854:11273   */\n    tag_189:\n        /* \"#utility.yul\":11020:11024   */\n      0x00\n        /* \"#utility.yul\":11058:11060   */\n      0x20\n        /* \"#utility.yul\":11047:11056   */\n      dup3\n        /* \"#utility.yul\":11043:11061   */\n      add\n        /* \"#utility.yul\":11035:11061   */\n      swap1\n      pop\n        /* \"#utility.yul\":11107:11116   */\n      dup2\n        /* \"#utility.yul\":11101:11105   */\n      dup2\n        /* \"#utility.yul\":11097:11117   */\n      sub\n        /* \"#utility.yul\":11093:11094   */\n      0x00\n        /* \"#utility.yul\":11082:11091   */\n      dup4\n        /* \"#utility.yul\":11078:11095   */\n      add\n        /* \"#utility.yul\":11071:11118   */\n      mstore\n        /* \"#utility.yul\":11135:11266   */\n      tag_408\n        /* \"#utility.yul\":11261:11265   */\n      dup2\n        /* \"#utility.yul\":11135:11266   */\n      tag_288\n      jump\t// in\n    tag_408:\n        /* \"#utility.yul\":11127:11266   */\n      swap1\n      pop\n        /* \"#utility.yul\":10854:11273   */\n      swap2\n      swap1\n      pop\n      jump\t// out\n        /* \"#utility.yul\":11279:11611   */\n    tag_205:\n        /* \"#utility.yul\":11400:11404   */\n      0x00\n        /* \"#utility.yul\":11438:11440   */\n      0x40\n        /* \"#utility.yul\":11427:11436   */\n      dup3\n        /* \"#utility.yul\":11423:11441   */\n      add\n        /* \"#utility.yul\":11415:11441   */\n      swap1\n      pop\n        /* \"#utility.yul\":11451:11522   */\n      tag_410\n        /* \"#utility.yul\":11519:11520   */\n      0x00\n        /* \"#utility.yul\":11508:11517   */\n      dup4\n        /* \"#utility.yul\":11504:11521   */\n      add\n        /* \"#utility.yul\":11495:11501   */\n      dup6\n        /* \"#utility.yul\":11451:11522   */\n      tag_275\n      jump\t// in\n    tag_410:\n        /* \"#utility.yul\":11532:11604   */\n      tag_411\n        /* \"#utility.yul\":11600:11602   */\n      0x20\n        /* \"#utility.yul\":11589:11598   */\n      dup4\n        /* \"#utility.yul\":11585:11603   */\n      add\n        /* \"#utility.yul\":11576:11582   */\n      dup5\n        /* \"#utility.yul\":11532:11604   */\n      tag_267\n      jump\t// in\n    tag_411:\n        /* \"#utility.yul\":11279:11611   */\n      swap4\n      swap3\n      pop\n      pop\n      pop\n      jump\t// out\n        /* \"#utility.yul\":11617:12059   */\n    tag_212:\n        /* \"#utility.yul\":11766:11770   */\n      0x00\n        /* \"#utility.yul\":11804:11806   */\n      0x60\n        /* \"#utility.yul\":11793:11802   */\n      dup3\n        /* \"#utility.yul\":11789:11807   */\n      add\n        /* \"#utility.yul\":11781:11807   */\n      swap1\n      pop\n        /* \"#utility.yul\":11817:11888   */\n      tag_413\n        /* \"#utility.yul\":11885:11886   */\n      0x00\n        /* \"#utility.yul\":11874:11883   */\n      dup4\n        /* \"#utility.yul\":11870:11887   */\n      add\n        /* \"#utility.yul\":11861:11867   */\n      dup7\n        /* \"#utility.yul\":11817:11888   */\n      tag_275\n      jump\t// in\n    tag_413:\n        /* \"#utility.yul\":11898:11970   */\n      tag_414\n        /* \"#utility.yul\":11966:11968   */\n      0x20\n        /* \"#utility.yul\":11955:11964   */\n      dup4\n        /* \"#utility.yul\":11951:11969   */\n      add\n        /* \"#utility.yul\":11942:11948   */\n      dup6\n        /* \"#utility.yul\":11898:11970   */\n      tag_275\n      jump\t// in\n    tag_414:\n        /* \"#utility.yul\":11980:12052   */\n      tag_415\n        /* \"#utility.yul\":12048:12050   */\n      0x40\n        /* \"#utility.yul\":12037:12046   */\n      dup4\n        /* \"#utility.yul\":12033:12051   */\n      add\n        /* \"#utility.yul\":12024:12030   */\n      dup5\n        /* \"#utility.yul\":11980:12052   */\n      tag_267\n      jump\t// in\n    tag_415:\n        /* \"#utility.yul\":11617:12059   */\n      swap5\n      swap4\n      pop\n      pop\n      pop\n      pop\n      jump\t// out\n        /* \"#utility.yul\":12065:12181   */\n    tag_289:\n        /* \"#utility.yul\":12135:12156   */\n      tag_417\n        /* \"#utility.yul\":12150:12155   */\n      dup2\n        /* \"#utility.yul\":12135:12156   */\n      tag_278\n      jump\t// in\n    tag_417:\n        /* \"#utility.yul\":12128:12133   */\n      dup2\n        /* \"#utility.yul\":12125:12157   */\n      eq\n        /* \"#utility.yul\":12115:12175   */\n      tag_418\n      jumpi\n        /* \"#utility.yul\":12171:12172   */\n      0x00\n        /* \"#utility.yul\":12168:12169   */\n      dup1\n        /* \"#utility.yul\":12161:12173   */\n      revert\n        /* \"#utility.yul\":12115:12175   */\n    tag_418:\n        /* \"#utility.yul\":12065:12181   */\n      pop\n      jump\t// out\n        /* \"#utility.yul\":12187:12324   */\n    tag_290:\n        /* \"#utility.yul\":12241:12246   */\n      0x00\n        /* \"#utility.yul\":12272:12278   */\n      dup2\n        /* \"#utility.yul\":12266:12279   */\n      mload\n        /* \"#utility.yul\":12257:12279   */\n      swap1\n      pop\n        /* \"#utility.yul\":12288:12318   */\n      tag_420\n        /* \"#utility.yul\":12312:12317   */\n      dup2\n        /* \"#utility.yul\":12288:12318   */\n      tag_289\n      jump\t// in\n    tag_420:\n        /* \"#utility.yul\":12187:12324   */\n      swap3\n      swap2\n      pop\n      pop\n      jump\t// out\n        /* \"#utility.yul\":12330:12675   */\n    tag_230:\n        /* \"#utility.yul\":12397:12403   */\n      0x00\n        /* \"#utility.yul\":12446:12448   */\n      0x20\n        /* \"#utility.yul\":12434:12443   */\n      dup3\n        /* \"#utility.yul\":12425:12432   */\n      dup5\n        /* \"#utility.yul\":12421:12444   */\n      sub\n        /* \"#utility.yul\":12417:12449   */\n      slt\n        /* \"#utility.yul\":12414:12533   */\n      iszero\n      tag_422\n      jumpi\n        /* \"#utility.yul\":12452:12531   */\n      tag_423\n      tag_269\n      jump\t// in\n    tag_423:\n        /* \"#utility.yul\":12414:12533   */\n    tag_422:\n        /* \"#utility.yul\":12572:12573   */\n      0x00\n        /* \"#utility.yul\":12597:12658   */\n      tag_424\n        /* \"#utility.yul\":12650:12657   */\n      dup5\n        /* \"#utility.yul\":12641:12647   */\n      dup3\n        /* \"#utility.yul\":12630:12639   */\n      dup6\n        /* \"#utility.yul\":12626:12648   */\n      add\n        /* \"#utility.yul\":12597:12658   */\n      tag_290\n      jump\t// in\n    tag_424:\n        /* \"#utility.yul\":12587:12658   */\n      swap2\n      pop\n        /* \"#utility.yul\":12543:12668   */\n      pop\n        /* \"#utility.yul\":12330:12675   */\n      swap3\n      swap2\n      pop\n      pop\n      jump\t// out\n        /* \"#utility.yul\":12681:12910   */\n    tag_291:\n        /* \"#utility.yul\":12821:12855   */\n      0x5361666545524332303a204552433230206f7065726174696f6e20646964206e\n        /* \"#utility.yul\":12817:12818   */\n      0x00\n        /* \"#utility.yul\":12809:12815   */\n      dup3\n        /* \"#utility.yul\":12805:12819   */\n      add\n        /* \"#utility.yul\":12798:12856   */\n      mstore\n        /* \"#utility.yul\":12890:12902   */\n      0x6f74207375636365656400000000000000000000000000000000000000000000\n        /* \"#utility.yul\":12885:12887   */\n      0x20\n        /* \"#utility.yul\":12877:12883   */\n      dup3\n        /* \"#utility.yul\":12873:12888   */\n      add\n        /* \"#utility.yul\":12866:12903   */\n      mstore\n        /* \"#utility.yul\":12681:12910   */\n      pop\n      jump\t// out\n        /* \"#utility.yul\":12916:13282   */\n    tag_292:\n        /* \"#utility.yul\":13058:13061   */\n      0x00\n        /* \"#utility.yul\":13079:13146   */\n      tag_427\n        /* \"#utility.yul\":13143:13145   */\n      0x2a\n        /* \"#utility.yul\":13138:13141   */\n      dup4\n        /* \"#utility.yul\":13079:13146   */\n      tag_282\n      jump\t// in\n    tag_427:\n        /* \"#utility.yul\":13072:13146   */\n      swap2\n      pop\n        /* \"#utility.yul\":13155:13248   */\n      tag_428\n        /* \"#utility.yul\":13244:13247   */\n      dup3\n        /* \"#utility.yul\":13155:13248   */\n      tag_291\n      jump\t// in\n    tag_428:\n        /* \"#utility.yul\":13273:13275   */\n      0x40\n        /* \"#utility.yul\":13268:13271   */\n      dup3\n        /* \"#utility.yul\":13264:13276   */\n      add\n        /* \"#utility.yul\":13257:13276   */\n      swap1\n      pop\n        /* \"#utility.yul\":12916:13282   */\n      swap2\n      swap1\n      pop\n      jump\t// out\n        /* \"#utility.yul\":13288:13707   */\n    tag_233:\n        /* \"#utility.yul\":13454:13458   */\n      0x00\n        /* \"#utility.yul\":13492:13494   */\n      0x20\n        /* \"#utility.yul\":13481:13490   */\n      dup3\n        /* \"#utility.yul\":13477:13495   */\n      add\n        /* \"#utility.yul\":13469:13495   */\n      swap1\n      pop\n        /* \"#utility.yul\":13541:13550   */\n      dup2\n        /* \"#utility.yul\":13535:13539   */\n      dup2\n        /* \"#utility.yul\":13531:13551   */\n      sub\n        /* \"#utility.yul\":13527:13528   */\n      0x00\n        /* \"#utility.yul\":13516:13525   */\n      dup4\n        /* \"#utility.yul\":13512:13529   */\n      add\n        /* \"#utility.yul\":13505:13552   */\n      mstore\n        /* \"#utility.yul\":13569:13700   */\n      tag_430\n        /* \"#utility.yul\":13695:13699   */\n      dup2\n        /* \"#utility.yul\":13569:13700   */\n      tag_292\n      jump\t// in\n    tag_430:\n        /* \"#utility.yul\":13561:13700   */\n      swap1\n      pop\n        /* \"#utility.yul\":13288:13707   */\n      swap2\n      swap1\n      pop\n      jump\t// out\n        /* \"#utility.yul\":13713:13938   */\n    tag_293:\n        /* \"#utility.yul\":13853:13887   */\n      0x416464726573733a20696e73756666696369656e742062616c616e636520666f\n        /* \"#utility.yul\":13849:13850   */\n      0x00\n        /* \"#utility.yul\":13841:13847   */\n      dup3\n        /* \"#utility.yul\":13837:13851   */\n      add\n        /* \"#utility.yul\":13830:13888   */\n      mstore\n        /* \"#utility.yul\":13922:13930   */\n      0x722063616c6c0000000000000000000000000000000000000000000000000000\n        /* \"#utility.yul\":13917:13919   */\n      0x20\n        /* \"#utility.yul\":13909:13915   */\n      dup3\n        /* \"#utility.yul\":13905:13920   */\n      add\n        /* \"#utility.yul\":13898:13931   */\n      mstore\n        /* \"#utility.yul\":13713:13938   */\n      pop\n      jump\t// out\n        /* \"#utility.yul\":13944:14310   */\n    tag_294:\n        /* \"#utility.yul\":14086:14089   */\n      0x00\n        /* \"#utility.yul\":14107:14174   */\n      tag_433\n        /* \"#utility.yul\":14171:14173   */\n      0x26\n        /* \"#utility.yul\":14166:14169   */\n      dup4\n        /* \"#utility.yul\":14107:14174   */\n      tag_282\n      jump\t// in\n    tag_433:\n        /* \"#utility.yul\":14100:14174   */\n      swap2\n      pop\n        /* \"#utility.yul\":14183:14276   */\n      tag_434\n        /* \"#utility.yul\":14272:14275   */\n      dup3\n        /* \"#utility.yul\":14183:14276   */\n      tag_293\n      jump\t// in\n    tag_434:\n        /* \"#utility.yul\":14301:14303   */\n      0x40\n        /* \"#utility.yul\":14296:14299   */\n      dup3\n        /* \"#utility.yul\":14292:14304   */\n      add\n        /* \"#utility.yul\":14285:14304   */\n      swap1\n      pop\n        /* \"#utility.yul\":13944:14310   */\n      swap2\n      swap1\n      pop\n      jump\t// out\n        /* \"#utility.yul\":14316:14735   */\n    tag_240:\n        /* \"#utility.yul\":14482:14486   */\n      0x00\n        /* \"#utility.yul\":14520:14522   */\n      0x20\n        /* \"#utility.yul\":14509:14518   */\n      dup3\n        /* \"#utility.yul\":14505:14523   */\n      add\n        /* \"#utility.yul\":14497:14523   */\n      swap1\n      pop\n        /* \"#utility.yul\":14569:14578   */\n      dup2\n        /* \"#utility.yul\":14563:14567   */\n      dup2\n        /* \"#utility.yul\":14559:14579   */\n      sub\n        /* \"#utility.yul\":14555:14556   */\n      0x00\n        /* \"#utility.yul\":14544:14553   */\n      dup4\n        /* \"#utility.yul\":14540:14557   */\n      add\n        /* \"#utility.yul\":14533:14580   */\n      mstore\n        /* \"#utility.yul\":14597:14728   */\n      tag_436\n        /* \"#utility.yul\":14723:14727   */\n      dup2\n        /* \"#utility.yul\":14597:14728   */\n      tag_294\n      jump\t// in\n    tag_436:\n        /* \"#utility.yul\":14589:14728   */\n      swap1\n      pop\n        /* \"#utility.yul\":14316:14735   */\n      swap2\n      swap1\n      pop\n      jump\t// out\n        /* \"#utility.yul\":14741:14920   */\n    tag_295:\n        /* \"#utility.yul\":14881:14912   */\n      0x416464726573733a2063616c6c20746f206e6f6e2d636f6e7472616374000000\n        /* \"#utility.yul\":14877:14878   */\n      0x00\n        /* \"#utility.yul\":14869:14875   */\n      dup3\n        /* \"#utility.yul\":14865:14879   */\n      add\n        /* \"#utility.yul\":14858:14913   */\n      mstore\n        /* \"#utility.yul\":14741:14920   */\n      pop\n      jump\t// out\n        /* \"#utility.yul\":14926:15292   */\n    tag_296:\n        /* \"#utility.yul\":15068:15071   */\n      0x00\n        /* \"#utility.yul\":15089:15156   */\n      tag_439\n        /* \"#utility.yul\":15153:15155   */\n      0x1d\n        /* \"#utility.yul\":15148:15151   */\n      dup4\n        /* \"#utility.yul\":15089:15156   */\n      tag_282\n      jump\t// in\n    tag_439:\n        /* \"#utility.yul\":15082:15156   */\n      swap2\n      pop\n        /* \"#utility.yul\":15165:15258   */\n      tag_440\n        /* \"#utility.yul\":15254:15257   */\n      dup3\n        /* \"#utility.yul\":15165:15258   */\n      tag_295\n      jump\t// in\n    tag_440:\n        /* \"#utility.yul\":15283:15285   */\n      0x20\n        /* \"#utility.yul\":15278:15281   */\n      dup3\n        /* \"#utility.yul\":15274:15286   */\n      add\n        /* \"#utility.yul\":15267:15286   */\n      swap1\n      pop\n        /* \"#utility.yul\":14926:15292   */\n      swap2\n      swap1\n      pop\n      jump\t// out\n        /* \"#utility.yul\":15298:15717   */\n    tag_245:\n        /* \"#utility.yul\":15464:15468   */\n      0x00\n        /* \"#utility.yul\":15502:15504   */\n      0x20\n        /* \"#utility.yul\":15491:15500   */\n      dup3\n        /* \"#utility.yul\":15487:15505   */\n      add\n        /* \"#utility.yul\":15479:15505   */\n      swap1\n      pop\n        /* \"#utility.yul\":15551:15560   */\n      dup2\n        /* \"#utility.yul\":15545:15549   */\n      dup2\n        /* \"#utility.yul\":15541:15561   */\n      sub\n        /* \"#utility.yul\":15537:15538   */\n      0x00\n        /* \"#utility.yul\":15526:15535   */\n      dup4\n        /* \"#utility.yul\":15522:15539   */\n      add\n        /* \"#utility.yul\":15515:15562   */\n      mstore\n        /* \"#utility.yul\":15579:15710   */\n      tag_442\n        /* \"#utility.yul\":15705:15709   */\n      dup2\n        /* \"#utility.yul\":15579:15710   */\n      tag_296\n      jump\t// in\n    tag_442:\n        /* \"#utility.yul\":15571:15710   */\n      swap1\n      pop\n        /* \"#utility.yul\":15298:15717   */\n      swap2\n      swap1\n      pop\n      jump\t// out\n        /* \"#utility.yul\":15723:15821   */\n    tag_297:\n        /* \"#utility.yul\":15774:15780   */\n      0x00\n        /* \"#utility.yul\":15808:15813   */\n      dup2\n        /* \"#utility.yul\":15802:15814   */\n      mload\n        /* \"#utility.yul\":15792:15814   */\n      swap1\n      pop\n        /* \"#utility.yul\":15723:15821   */\n      swap2\n      swap1\n      pop\n      jump\t// out\n        /* \"#utility.yul\":15827:15974   */\n    tag_298:\n        /* \"#utility.yul\":15928:15939   */\n      0x00\n        /* \"#utility.yul\":15965:15968   */\n      dup2\n        /* \"#utility.yul\":15950:15968   */\n      swap1\n      pop\n        /* \"#utility.yul\":15827:15974   */\n      swap3\n      swap2\n      pop\n      pop\n      jump\t// out\n        /* \"#utility.yul\":15980:16287   */\n    tag_299:\n        /* \"#utility.yul\":16048:16049   */\n      0x00\n        /* \"#utility.yul\":16058:16171   */\n    tag_446:\n        /* \"#utility.yul\":16072:16078   */\n      dup4\n        /* \"#utility.yul\":16069:16070   */\n      dup2\n        /* \"#utility.yul\":16066:16079   */\n      lt\n        /* \"#utility.yul\":16058:16171   */\n      iszero\n      tag_448\n      jumpi\n        /* \"#utility.yul\":16157:16158   */\n      dup1\n        /* \"#utility.yul\":16152:16155   */\n      dup3\n        /* \"#utility.yul\":16148:16159   */\n      add\n        /* \"#utility.yul\":16142:16160   */\n      mload\n        /* \"#utility.yul\":16138:16139   */\n      dup2\n        /* \"#utility.yul\":16133:16136   */\n      dup5\n        /* \"#utility.yul\":16129:16140   */\n      add\n        /* \"#utility.yul\":16122:16161   */\n      mstore\n        /* \"#utility.yul\":16094:16096   */\n      0x20\n        /* \"#utility.yul\":16091:16092   */\n      dup2\n        /* \"#utility.yul\":16087:16097   */\n      add\n        /* \"#utility.yul\":16082:16097   */\n      swap1\n      pop\n        /* \"#utility.yul\":16058:16171   */\n      jump(tag_446)\n    tag_448:\n        /* \"#utility.yul\":16189:16195   */\n      dup4\n        /* \"#utility.yul\":16186:16187   */\n      dup2\n        /* \"#utility.yul\":16183:16196   */\n      gt\n        /* \"#utility.yul\":16180:16281   */\n      iszero\n      tag_449\n      jumpi\n        /* \"#utility.yul\":16269:16270   */\n      0x00\n        /* \"#utility.yul\":16260:16266   */\n      dup5\n        /* \"#utility.yul\":16255:16258   */\n      dup5\n        /* \"#utility.yul\":16251:16267   */\n      add\n        /* \"#utility.yul\":16244:16271   */\n      mstore\n        /* \"#utility.yul\":16180:16281   */\n    tag_449:\n        /* \"#utility.yul\":16029:16287   */\n      pop\n        /* \"#utility.yul\":15980:16287   */\n      pop\n      pop\n      pop\n      jump\t// out\n        /* \"#utility.yul\":16293:16666   */\n    tag_300:\n        /* \"#utility.yul\":16397:16400   */\n      0x00\n        /* \"#utility.yul\":16425:16463   */\n      tag_451\n        /* \"#utility.yul\":16457:16462   */\n      dup3\n        /* \"#utility.yul\":16425:16463   */\n      tag_297\n      jump\t// in\n    tag_451:\n        /* \"#utility.yul\":16479:16567   */\n      tag_452\n        /* \"#utility.yul\":16560:16566   */\n      dup2\n        /* \"#utility.yul\":16555:16558   */\n      dup6\n        /* \"#utility.yul\":16479:16567   */\n      tag_298\n      jump\t// in\n    tag_452:\n        /* \"#utility.yul\":16472:16567   */\n      swap4\n      pop\n        /* \"#utility.yul\":16576:16628   */\n      tag_453\n        /* \"#utility.yul\":16621:16627   */\n      dup2\n        /* \"#utility.yul\":16616:16619   */\n      dup6\n        /* \"#utility.yul\":16609:16613   */\n      0x20\n        /* \"#utility.yul\":16602:16607   */\n      dup7\n        /* \"#utility.yul\":16598:16614   */\n      add\n        /* \"#utility.yul\":16576:16628   */\n      tag_299\n      jump\t// in\n    tag_453:\n        /* \"#utility.yul\":16653:16659   */\n      dup1\n        /* \"#utility.yul\":16648:16651   */\n      dup5\n        /* \"#utility.yul\":16644:16660   */\n      add\n        /* \"#utility.yul\":16637:16660   */\n      swap2\n      pop\n        /* \"#utility.yul\":16401:16666   */\n      pop\n        /* \"#utility.yul\":16293:16666   */\n      swap3\n      swap2\n      pop\n      pop\n      jump\t// out\n        /* \"#utility.yul\":16672:16943   */\n    tag_247:\n        /* \"#utility.yul\":16802:16805   */\n      0x00\n        /* \"#utility.yul\":16824:16917   */\n      tag_455\n        /* \"#utility.yul\":16913:16916   */\n      dup3\n        /* \"#utility.yul\":16904:16910   */\n      dup5\n        /* \"#utility.yul\":16824:16917   */\n      tag_300\n      jump\t// in\n    tag_455:\n        /* \"#utility.yul\":16817:16917   */\n      swap2\n      pop\n        /* \"#utility.yul\":16934:16937   */\n      dup2\n        /* \"#utility.yul\":16927:16937   */\n      swap1\n      pop\n        /* \"#utility.yul\":16672:16943   */\n      swap3\n      swap2\n      pop\n      pop\n      jump\t// out\n        /* \"#utility.yul\":16949:17048   */\n    tag_301:\n        /* \"#utility.yul\":17001:17007   */\n      0x00\n        /* \"#utility.yul\":17035:17040   */\n      dup2\n        /* \"#utility.yul\":17029:17041   */\n      mload\n        /* \"#utility.yul\":17019:17041   */\n      swap1\n      pop\n        /* \"#utility.yul\":16949:17048   */\n      swap2\n      swap1\n      pop\n      jump\t// out\n        /* \"#utility.yul\":17054:17156   */\n    tag_302:\n        /* \"#utility.yul\":17095:17101   */\n      0x00\n        /* \"#utility.yul\":17146:17148   */\n      0x1f\n        /* \"#utility.yul\":17142:17149   */\n      not\n        /* \"#utility.yul\":17137:17139   */\n      0x1f\n        /* \"#utility.yul\":17130:17135   */\n      dup4\n        /* \"#utility.yul\":17126:17140   */\n      add\n        /* \"#utility.yul\":17122:17150   */\n      and\n        /* \"#utility.yul\":17112:17150   */\n      swap1\n      pop\n        /* \"#utility.yul\":17054:17156   */\n      swap2\n      swap1\n      pop\n      jump\t// out\n        /* \"#utility.yul\":17162:17526   */\n    tag_303:\n        /* \"#utility.yul\":17250:17253   */\n      0x00\n        /* \"#utility.yul\":17278:17317   */\n      tag_459\n        /* \"#utility.yul\":17311:17316   */\n      dup3\n        /* \"#utility.yul\":17278:17317   */\n      tag_301\n      jump\t// in\n    tag_459:\n        /* \"#utility.yul\":17333:17404   */\n      tag_460\n        /* \"#utility.yul\":17397:17403   */\n      dup2\n        /* \"#utility.yul\":17392:17395   */\n      dup6\n        /* \"#utility.yul\":17333:17404   */\n      tag_282\n      jump\t// in\n    tag_460:\n        /* \"#utility.yul\":17326:17404   */\n      swap4\n      pop\n        /* \"#utility.yul\":17413:17465   */\n      tag_461\n        /* \"#utility.yul\":17458:17464   */\n      dup2\n        /* \"#utility.yul\":17453:17456   */\n      dup6\n        /* \"#utility.yul\":17446:17450   */\n      0x20\n        /* \"#utility.yul\":17439:17444   */\n      dup7\n        /* \"#utility.yul\":17435:17451   */\n      add\n        /* \"#utility.yul\":17413:17465   */\n      tag_299\n      jump\t// in\n    tag_461:\n        /* \"#utility.yul\":17490:17519   */\n      tag_462\n        /* \"#utility.yul\":17512:17518   */\n      dup2\n        /* \"#utility.yul\":17490:17519   */\n      tag_302\n      jump\t// in\n    tag_462:\n        /* \"#utility.yul\":17485:17488   */\n      dup5\n        /* \"#utility.yul\":17481:17520   */\n      add\n        /* \"#utility.yul\":17474:17520   */\n      swap2\n      pop\n        /* \"#utility.yul\":17254:17526   */\n      pop\n        /* \"#utility.yul\":17162:17526   */\n      swap3\n      swap2\n      pop\n      pop\n      jump\t// out\n        /* \"#utility.yul\":17532:17845   */\n    tag_260:\n        /* \"#utility.yul\":17645:17649   */\n      0x00\n        /* \"#utility.yul\":17683:17685   */\n      0x20\n        /* \"#utility.yul\":17672:17681   */\n      dup3\n        /* \"#utility.yul\":17668:17686   */\n      add\n        /* \"#utility.yul\":17660:17686   */\n      swap1\n      pop\n        /* \"#utility.yul\":17732:17741   */\n      dup2\n        /* \"#utility.yul\":17726:17730   */\n      dup2\n        /* \"#utility.yul\":17722:17742   */\n      sub\n        /* \"#utility.yul\":17718:17719   */\n      0x00\n        /* \"#utility.yul\":17707:17716   */\n      dup4\n        /* \"#utility.yul\":17703:17720   */\n      add\n        /* \"#utility.yul\":17696:17743   */\n      mstore\n        /* \"#utility.yul\":17760:17838   */\n      tag_464\n        /* \"#utility.yul\":17833:17837   */\n      dup2\n        /* \"#utility.yul\":17824:17830   */\n      dup5\n        /* \"#utility.yul\":17760:17838   */\n      tag_303\n      jump\t// in\n    tag_464:\n        /* \"#utility.yul\":17752:17838   */\n      swap1\n      pop\n        /* \"#utility.yul\":17532:17845   */\n      swap3\n      swap2\n      pop\n      pop\n      jump\t// out\n\n    auxdata: 0xa2646970667358221220de3326d9b93652fa9e3600c060ec6931baea4ade6088a5316f3fee6a01b3b2ea64736f6c634300080b0033\n}\n",
				"bytecode": {
					"linkReferences": {},
					"object": "60806040523480156200001157600080fd5b506040516200224138038062002241833981810160405281019062000037919062000244565b60016000819055506200005f620000536200010c60201b60201c565b6200011460201b60201c565b600f600381905550605060048190555080600b60006101000a81548173ffffffffffffffffffffffffffffffffffffffff021916908373ffffffffffffffffffffffffffffffffffffffff1602179055506006600260006276a70081526020019081526020016000208190555060076002600062ed4e008152602001908152602001600020819055506008600260006301e133808152602001908152602001600020819055505062000276565b600033905090565b6000600160009054906101000a900473ffffffffffffffffffffffffffffffffffffffff16905081600160006101000a81548173ffffffffffffffffffffffffffffffffffffffff021916908373ffffffffffffffffffffffffffffffffffffffff1602179055508173ffffffffffffffffffffffffffffffffffffffff168173ffffffffffffffffffffffffffffffffffffffff167f8be0079c531659141344cd1fd0a4f28419497f9722a3daafe3b4186f6b6457e060405160405180910390a35050565b600080fd5b600073ffffffffffffffffffffffffffffffffffffffff82169050919050565b60006200020c82620001df565b9050919050565b6200021e81620001ff565b81146200022a57600080fd5b50565b6000815190506200023e8162000213565b92915050565b6000602082840312156200025d576200025c620001da565b5b60006200026d848285016200022d565b91505092915050565b611fbb80620002866000396000f3fe608060405234801561001057600080fd5b50600436106101215760003560e01c8063a143a5f2116100ad578063c63aa3e711610071578063c63aa3e7146102c0578063cb79c2e1146102de578063d2a569c3146102fc578063d5dbdf1b14610306578063f2fde38b1461032257610121565b8063a143a5f214610208578063a3ec138d14610238578063b5d9df8314610268578063b87da76d14610298578063bed9d861146102b657610121565b80637b0472f0116100f45780637b0472f0146101765780638891cf0d146101925780638c63f97f146101b05780638c8e8fee146101cc5780638da5cb5b146101ea57610121565b806310486b6a146101265780635b88349d146101445780635f5300ff1461014e578063715018a61461016c575b600080fd5b61012e61033e565b60405161013b9190611740565b60405180910390f35b61014c610513565b005b6101566105fa565b604051610163919061176b565b60405180910390f35b610174610600565b005b610190600480360381019061018b91906117b7565b610688565b005b61019a61098e565b6040516101a7919061176b565b60405180910390f35b6101ca60048036038101906101c591906117f7565b610994565b005b6101d4610a8c565b6040516101e19190611865565b60405180910390f35b6101f2610ab2565b6040516101ff9190611865565b60405180910390f35b610222600480360381019061021d91906117f7565b610adc565b60405161022f919061176b565b60405180910390f35b610252600480360381019061024d91906118ac565b610af4565b60405161025f91906118f4565b60405180910390f35b610282600480360381019061027d91906117f7565b610b1f565b60405161028f919061176b565b60405180910390f35b6102a0610b42565b6040516102ad919061176b565b60405180910390f35b6102be610b48565b005b6102c8610dd9565b6040516102d5919061176b565b60405180910390f35b6102e6610de1565b6040516102f3919061176b565b60405180910390f35b610304610de7565b005b610320600480360381019061031b91906117f7565b610e6c565b005b61033c600480360381019061033791906118ac565b610f64565b005b6103466115f2565b6000600c60003373ffffffffffffffffffffffffffffffffffffffff1673ffffffffffffffffffffffffffffffffffffffff1681526020019081526020016000206040518060e001604052908160008201548152602001600182015481526020016002820154815260200160038201548152602001600482015481526020016005820154815260200160068201548152505090506000816000015111610418576040517fb018f08700000000000000000000000000000000000000000000000000000000815260040160405180910390fd5b60006040518060600160405280600081526020016000815260200183815250905060006104448361105c565b90504282604001516060015111156104a4576103e860035482610467919061193e565b61047191906119c7565b6103e86003548560000151610486919061193e565b61049091906119c7565b61049a91906119f8565b8260200181815250505b60006104b38460c00151610b1f565b11156104de5760006104c884600001516110bc565b905080836040015160a0018181525050506104ee565b6000826040015160a00181815250505b8082604001516080018181525050826000015182600001818152505081935050505090565b6000600c60003373ffffffffffffffffffffffffffffffffffffffff1673ffffffffffffffffffffffffffffffffffffffff16815260200190815260200160002090506000816000015411156105f75760006105728260060154610b1f565b14156105aa576040517fdd8456cc00000000000000000000000000000000000000000000000000000000815260040160405180910390fd5b600081600501819055504281600601819055506105f6600b60009054906101000a900473ffffffffffffffffffffffffffffffffffffffff16336105f184600001546110bc565b6110ef565b5b50565b60085481565b610608611175565b73ffffffffffffffffffffffffffffffffffffffff16610626610ab2565b73ffffffffffffffffffffffffffffffffffffffff161461067c576040517f08c379a000000000000000000000000000000000000000000000000000000000815260040161067390611aab565b60405180910390fd5b610686600061117d565b565b600260005414156106ce576040517f08c379a00000000000000000000000000000000000000000000000000000000081526004016106c590611b17565b60405180910390fd5b60026000819055506000600c60003373ffffffffffffffffffffffffffffffffffffffff1673ffffffffffffffffffffffffffffffffffffffff1681526020019081526020016000206000015414610752576040517f04462d2700000000000000000000000000000000000000000000000000000000815260040160405180910390fd5b6000600260008381526020019081526020016000205414156107a0576040517f95377be400000000000000000000000000000000000000000000000000000000815260040160405180910390fd5b6001600860008282546107b391906119f8565b925050819055506001600960003373ffffffffffffffffffffffffffffffffffffffff1673ffffffffffffffffffffffffffffffffffffffff16815260200190815260200160002060000160006101000a81548160ff02191690831515021790555060004290506040518060e0016040528084815260200182815260200160026000858152602001908152602001600020548152602001828461085691906119f8565b815260200160008152602001600081526020016000815250600c60003373ffffffffffffffffffffffffffffffffffffffff1673ffffffffffffffffffffffffffffffffffffffff168152602001908152602001600020600082015181600001556020820151816001015560408201518160020155606082015181600301556080820151816004015560a0820151816005015560c08201518160060155905050610924600b60009054906101000a900473ffffffffffffffffffffffffffffffffffffffff16333086611243565b3373ffffffffffffffffffffffffffffffffffffffff167fb4caaf29adda3eefee3ad552a8e85058589bf834c7466cae4ee58787f70589ed8483848661096a91906119f8565b60405161097993929190611b37565b60405180910390a25060016000819055505050565b60045481565b61099c611175565b73ffffffffffffffffffffffffffffffffffffffff166109ba610ab2565b73ffffffffffffffffffffffffffffffffffffffff1614610a10576040517f08c379a0000000000000000000000000000000000000000000000000000000008152600401610a0790611aab565b60405180910390fd5b601e811115610a4b576040517ff1a470d700000000000000000000000000000000000000000000000000000000815260040160405180910390fd5b806003819055507fcfa4f4cf1cd64d13a167a8e75605e0c0c9d6700e903d17c5dc11f593254a04a981604051610a81919061176b565b60405180910390a150565b600b60009054906101000a900473ffffffffffffffffffffffffffffffffffffffff1681565b6000600160009054906101000a900473ffffffffffffffffffffffffffffffffffffffff16905090565b600a6020528060005260406000206000915090505481565b60096020528060005260406000206000915090508060000160009054906101000a900460ff16905081565b600062093a808242610b319190611b6e565b610b3b91906119c7565b9050919050565b60055481565b60026000541415610b8e576040517f08c379a0000000000000000000000000000000000000000000000000000000008152600401610b8590611b17565b60405180910390fd5b60026000819055506000600c60003373ffffffffffffffffffffffffffffffffffffffff1673ffffffffffffffffffffffffffffffffffffffff1681526020019081526020016000206040518060e001604052908160008201548152602001600182015481526020016002820154815260200160038201548152602001600482015481526020016005820154815260200160068201548152505090506000610c358261105c565b9050600c60003373ffffffffffffffffffffffffffffffffffffffff1673ffffffffffffffffffffffffffffffffffffffff1681526020019081526020016000206000808201600090556001820160009055600282016000905560038201600090556004820160009055600582016000905560068201600090555050600160086000828254610cc49190611b6e565b92505081905550600960003373ffffffffffffffffffffffffffffffffffffffff1673ffffffffffffffffffffffffffffffffffffffff1681526020019081526020016000206001016000600754815260200190815260200160002060006101000a81549060ff02191690554282606001511115610d9057600080610d4d8460000151846112cc565b91509150610d89600b60009054906101000a900473ffffffffffffffffffffffffffffffffffffffff16338385610d8491906119f8565b6110ef565b5050610dcd565b610dcc600b60009054906101000a900473ffffffffffffffffffffffffffffffffffffffff1633838560000151610dc791906119f8565b6110ef565b5b50506001600081905550565b600042905090565b60035481565b610def611175565b73ffffffffffffffffffffffffffffffffffffffff16610e0d610ab2565b73ffffffffffffffffffffffffffffffffffffffff1614610e63576040517f08c379a0000000000000000000000000000000000000000000000000000000008152600401610e5a90611aab565b60405180910390fd5b42600581905550565b610e74611175565b73ffffffffffffffffffffffffffffffffffffffff16610e92610ab2565b73ffffffffffffffffffffffffffffffffffffffff1614610ee8576040517f08c379a0000000000000000000000000000000000000000000000000000000008152600401610edf90611aab565b60405180910390fd5b60c8811115610f23576040517fa552cf1000000000000000000000000000000000000000000000000000000000815260040160405180910390fd5b806004819055507fcc672f1026b958c0cfbfdd89ebe8ddcbc127f16ec24da6c2c7a4de26a8b1857e81604051610f59919061176b565b60405180910390a150565b610f6c611175565b73ffffffffffffffffffffffffffffffffffffffff16610f8a610ab2565b73ffffffffffffffffffffffffffffffffffffffff1614610fe0576040517f08c379a0000000000000000000000000000000000000000000000000000000008152600401610fd790611aab565b60405180910390fd5b600073ffffffffffffffffffffffffffffffffffffffff168173ffffffffffffffffffffffffffffffffffffffff161415611050576040517f08c379a000000000000000000000000000000000000000000000000000000000815260040161104790611c14565b60405180910390fd5b6110598161117d565b50565b6000808260000151141561107357600090506110b7565b6a52b7d2dcc80cd2e400000061108c836020015161133c565b836040015184600001516110a0919061193e565b6110aa919061193e565b6110b491906119c7565b90505b919050565b60006301dfe2006103e8600454846110d4919061193e565b6110de91906119c7565b6110e891906119c7565b9050919050565b6111708363a9059cbb60e01b848460405160240161110e929190611c34565b604051602081830303815290604052907bffffffffffffffffffffffffffffffffffffffffffffffffffffffff19166020820180517bffffffffffffffffffffffffffffffffffffffffffffffffffffffff8381831617835250505050611375565b505050565b600033905090565b6000600160009054906101000a900473ffffffffffffffffffffffffffffffffffffffff16905081600160006101000a81548173ffffffffffffffffffffffffffffffffffffffff021916908373ffffffffffffffffffffffffffffffffffffffff1602179055508173ffffffffffffffffffffffffffffffffffffffff168173ffffffffffffffffffffffffffffffffffffffff167f8be0079c531659141344cd1fd0a4f28419497f9722a3daafe3b4186f6b6457e060405160405180910390a35050565b6112c6846323b872dd60e01b85858560405160240161126493929190611c5d565b604051602081830303815290604052907bffffffffffffffffffffffffffffffffffffffffffffffffffffffff19166020820180517bffffffffffffffffffffffffffffffffffffffffffffffffffffffff8381831617835250505050611375565b50505050565b60008060008414156112e45760008091509150611335565b6103e8600354856112f5919061193e565b6112ff91906119c7565b8461130a9190611b6e565b6103e86003548561131b919061193e565b61132591906119c7565b846113309190611b6e565b915091505b9250929050565b60006301e1338069d3c21bcecceda1000000834261135a9190611b6e565b611364919061193e565b61136e91906119c7565b9050919050565b60006113d7826040518060400160405280602081526020017f5361666545524332303a206c6f772d6c6576656c2063616c6c206661696c65648152508573ffffffffffffffffffffffffffffffffffffffff1661143c9092919063ffffffff16565b905060008151111561143757808060200190518101906113f79190611cc0565b611436576040517f08c379a000000000000000000000000000000000000000000000000000000000815260040161142d90611d5f565b60405180910390fd5b5b505050565b606061144b8484600085611454565b90509392505050565b606082471015611499576040517f08c379a000000000000000000000000000000000000000000000000000000000815260040161149090611df1565b60405180910390fd5b6114a285611568565b6114e1576040517f08c379a00000000000000000000000000000000000000000000000000000000081526004016114d890611e5d565b60405180910390fd5b6000808673ffffffffffffffffffffffffffffffffffffffff16858760405161150a9190611ef7565b60006040518083038185875af1925050503d8060008114611547576040519150601f19603f3d011682016040523d82523d6000602084013e61154c565b606091505b509150915061155c82828661158b565b92505050949350505050565b6000808273ffffffffffffffffffffffffffffffffffffffff163b119050919050565b6060831561159b578290506115eb565b6000835111156115ae5782518084602001fd5b816040517f08c379a00000000000000000000000000000000000000000000000000000000081526004016115e29190611f63565b60405180910390fd5b9392505050565b60405180606001604052806000815260200160008152602001611613611619565b81525090565b6040518060e00160405280600081526020016000815260200160008152602001600081526020016000815260200160008152602001600081525090565b6000819050919050565b61166981611656565b82525050565b60e0820160008201516116856000850182611660565b5060208201516116986020850182611660565b5060408201516116ab6040850182611660565b5060608201516116be6060850182611660565b5060808201516116d16080850182611660565b5060a08201516116e460a0850182611660565b5060c08201516116f760c0850182611660565b50505050565b610120820160008201516117146000850182611660565b5060208201516117276020850182611660565b50604082015161173a604085018261166f565b50505050565b60006101208201905061175660008301846116fd565b92915050565b61176581611656565b82525050565b6000602082019050611780600083018461175c565b92915050565b600080fd5b61179481611656565b811461179f57600080fd5b50565b6000813590506117b18161178b565b92915050565b600080604083850312156117ce576117cd611786565b5b60006117dc858286016117a2565b92505060206117ed858286016117a2565b9150509250929050565b60006020828403121561180d5761180c611786565b5b600061181b848285016117a2565b91505092915050565b600073ffffffffffffffffffffffffffffffffffffffff82169050919050565b600061184f82611824565b9050919050565b61185f81611844565b82525050565b600060208201905061187a6000830184611856565b92915050565b61188981611844565b811461189457600080fd5b50565b6000813590506118a681611880565b92915050565b6000602082840312156118c2576118c1611786565b5b60006118d084828501611897565b91505092915050565b60008115159050919050565b6118ee816118d9565b82525050565b600060208201905061190960008301846118e5565b92915050565b7f4e487b7100000000000000000000000000000000000000000000000000000000600052601160045260246000fd5b600061194982611656565b915061195483611656565b9250817fffffffffffffffffffffffffffffffffffffffffffffffffffffffffffffffff048311821515161561198d5761198c61190f565b5b828202905092915050565b7f4e487b7100000000000000000000000000000000000000000000000000000000600052601260045260246000fd5b60006119d282611656565b91506119dd83611656565b9250826119ed576119ec611998565b5b828204905092915050565b6000611a0382611656565b9150611a0e83611656565b9250827fffffffffffffffffffffffffffffffffffffffffffffffffffffffffffffffff03821115611a4357611a4261190f565b5b828201905092915050565b600082825260208201905092915050565b7f4f776e61626c653a2063616c6c6572206973206e6f7420746865206f776e6572600082015250565b6000611a95602083611a4e565b9150611aa082611a5f565b602082019050919050565b60006020820190508181036000830152611ac481611a88565b9050919050565b7f5265656e7472616e637947756172643a207265656e7472616e742063616c6c00600082015250565b6000611b01601f83611a4e565b9150611b0c82611acb565b602082019050919050565b60006020820190508181036000830152611b3081611af4565b9050919050565b6000606082019050611b4c600083018661175c565b611b59602083018561175c565b611b66604083018461175c565b949350505050565b6000611b7982611656565b9150611b8483611656565b925082821015611b9757611b9661190f565b5b828203905092915050565b7f4f776e61626c653a206e6577206f776e657220697320746865207a65726f206160008201527f6464726573730000000000000000000000000000000000000000000000000000602082015250565b6000611bfe602683611a4e565b9150611c0982611ba2565b604082019050919050565b60006020820190508181036000830152611c2d81611bf1565b9050919050565b6000604082019050611c496000830185611856565b611c56602083018461175c565b9392505050565b6000606082019050611c726000830186611856565b611c7f6020830185611856565b611c8c604083018461175c565b949350505050565b611c9d816118d9565b8114611ca857600080fd5b50565b600081519050611cba81611c94565b92915050565b600060208284031215611cd657611cd5611786565b5b6000611ce484828501611cab565b91505092915050565b7f5361666545524332303a204552433230206f7065726174696f6e20646964206e60008201527f6f74207375636365656400000000000000000000000000000000000000000000602082015250565b6000611d49602a83611a4e565b9150611d5482611ced565b604082019050919050565b60006020820190508181036000830152611d7881611d3c565b9050919050565b7f416464726573733a20696e73756666696369656e742062616c616e636520666f60008201527f722063616c6c0000000000000000000000000000000000000000000000000000602082015250565b6000611ddb602683611a4e565b9150611de682611d7f565b604082019050919050565b60006020820190508181036000830152611e0a81611dce565b9050919050565b7f416464726573733a2063616c6c20746f206e6f6e2d636f6e7472616374000000600082015250565b6000611e47601d83611a4e565b9150611e5282611e11565b602082019050919050565b60006020820190508181036000830152611e7681611e3a565b9050919050565b600081519050919050565b600081905092915050565b60005b83811015611eb1578082015181840152602081019050611e96565b83811115611ec0576000848401525b50505050565b6000611ed182611e7d565b611edb8185611e88565b9350611eeb818560208601611e93565b80840191505092915050565b6000611f038284611ec6565b915081905092915050565b600081519050919050565b6000601f19601f8301169050919050565b6000611f3582611f0e565b611f3f8185611a4e565b9350611f4f818560208601611e93565b611f5881611f19565b840191505092915050565b60006020820190508181036000830152611f7d8184611f2a565b90509291505056fea2646970667358221220de3326d9b93652fa9e3600c060ec6931baea4ade6088a5316f3fee6a01b3b2ea64736f6c634300080b0033",
					"opcodes": "PUSH1 0x80 PUSH1 0x40 MSTORE CALLVALUE DUP1 ISZERO PUSH3 0x11 JUMPI PUSH1 0x0 DUP1 REVERT JUMPDEST POP PUSH1 0x40 MLOAD PUSH3 0x2241 CODESIZE SUB DUP1 PUSH3 0x2241 DUP4 CODECOPY DUP2 DUP2 ADD PUSH1 0x40 MSTORE DUP2 ADD SWAP1 PUSH3 0x37 SWAP2 SWAP1 PUSH3 0x244 JUMP JUMPDEST PUSH1 0x1 PUSH1 0x0 DUP2 SWAP1 SSTORE POP PUSH3 0x5F PUSH3 0x53 PUSH3 0x10C PUSH1 0x20 SHL PUSH1 0x20 SHR JUMP JUMPDEST PUSH3 0x114 PUSH1 0x20 SHL PUSH1 0x20 SHR JUMP JUMPDEST PUSH1 0xF PUSH1 0x3 DUP2 SWAP1 SSTORE POP PUSH1 0x50 PUSH1 0x4 DUP2 SWAP1 SSTORE POP DUP1 PUSH1 0xB PUSH1 0x0 PUSH2 0x100 EXP DUP2 SLOAD DUP2 PUSH20 0xFFFFFFFFFFFFFFFFFFFFFFFFFFFFFFFFFFFFFFFF MUL NOT AND SWAP1 DUP4 PUSH20 0xFFFFFFFFFFFFFFFFFFFFFFFFFFFFFFFFFFFFFFFF AND MUL OR SWAP1 SSTORE POP PUSH1 0x6 PUSH1 0x2 PUSH1 0x0 PUSH3 0x76A700 DUP2 MSTORE PUSH1 0x20 ADD SWAP1 DUP2 MSTORE PUSH1 0x20 ADD PUSH1 0x0 KECCAK256 DUP2 SWAP1 SSTORE POP PUSH1 0x7 PUSH1 0x2 PUSH1 0x0 PUSH3 0xED4E00 DUP2 MSTORE PUSH1 0x20 ADD SWAP1 DUP2 MSTORE PUSH1 0x20 ADD PUSH1 0x0 KECCAK256 DUP2 SWAP1 SSTORE POP PUSH1 0x8 PUSH1 0x2 PUSH1 0x0 PUSH4 0x1E13380 DUP2 MSTORE PUSH1 0x20 ADD SWAP1 DUP2 MSTORE PUSH1 0x20 ADD PUSH1 0x0 KECCAK256 DUP2 SWAP1 SSTORE POP POP PUSH3 0x276 JUMP JUMPDEST PUSH1 0x0 CALLER SWAP1 POP SWAP1 JUMP JUMPDEST PUSH1 0x0 PUSH1 0x1 PUSH1 0x0 SWAP1 SLOAD SWAP1 PUSH2 0x100 EXP SWAP1 DIV PUSH20 0xFFFFFFFFFFFFFFFFFFFFFFFFFFFFFFFFFFFFFFFF AND SWAP1 POP DUP2 PUSH1 0x1 PUSH1 0x0 PUSH2 0x100 EXP DUP2 SLOAD DUP2 PUSH20 0xFFFFFFFFFFFFFFFFFFFFFFFFFFFFFFFFFFFFFFFF MUL NOT AND SWAP1 DUP4 PUSH20 0xFFFFFFFFFFFFFFFFFFFFFFFFFFFFFFFFFFFFFFFF AND MUL OR SWAP1 SSTORE POP DUP2 PUSH20 0xFFFFFFFFFFFFFFFFFFFFFFFFFFFFFFFFFFFFFFFF AND DUP2 PUSH20 0xFFFFFFFFFFFFFFFFFFFFFFFFFFFFFFFFFFFFFFFF AND PUSH32 0x8BE0079C531659141344CD1FD0A4F28419497F9722A3DAAFE3B4186F6B6457E0 PUSH1 0x40 MLOAD PUSH1 0x40 MLOAD DUP1 SWAP2 SUB SWAP1 LOG3 POP POP JUMP JUMPDEST PUSH1 0x0 DUP1 REVERT JUMPDEST PUSH1 0x0 PUSH20 0xFFFFFFFFFFFFFFFFFFFFFFFFFFFFFFFFFFFFFFFF DUP3 AND SWAP1 POP SWAP2 SWAP1 POP JUMP JUMPDEST PUSH1 0x0 PUSH3 0x20C DUP3 PUSH3 0x1DF JUMP JUMPDEST SWAP1 POP SWAP2 SWAP1 POP JUMP JUMPDEST PUSH3 0x21E DUP2 PUSH3 0x1FF JUMP JUMPDEST DUP2 EQ PUSH3 0x22A JUMPI PUSH1 0x0 DUP1 REVERT JUMPDEST POP JUMP JUMPDEST PUSH1 0x0 DUP2 MLOAD SWAP1 POP PUSH3 0x23E DUP2 PUSH3 0x213 JUMP JUMPDEST SWAP3 SWAP2 POP POP JUMP JUMPDEST PUSH1 0x0 PUSH1 0x20 DUP3 DUP5 SUB SLT ISZERO PUSH3 0x25D JUMPI PUSH3 0x25C PUSH3 0x1DA JUMP JUMPDEST JUMPDEST PUSH1 0x0 PUSH3 0x26D DUP5 DUP3 DUP6 ADD PUSH3 0x22D JUMP JUMPDEST SWAP2 POP POP SWAP3 SWAP2 POP POP JUMP JUMPDEST PUSH2 0x1FBB DUP1 PUSH3 0x286 PUSH1 0x0 CODECOPY PUSH1 0x0 RETURN INVALID PUSH1 0x80 PUSH1 0x40 MSTORE CALLVALUE DUP1 ISZERO PUSH2 0x10 JUMPI PUSH1 0x0 DUP1 REVERT JUMPDEST POP PUSH1 0x4 CALLDATASIZE LT PUSH2 0x121 JUMPI PUSH1 0x0 CALLDATALOAD PUSH1 0xE0 SHR DUP1 PUSH4 0xA143A5F2 GT PUSH2 0xAD JUMPI DUP1 PUSH4 0xC63AA3E7 GT PUSH2 0x71 JUMPI DUP1 PUSH4 0xC63AA3E7 EQ PUSH2 0x2C0 JUMPI DUP1 PUSH4 0xCB79C2E1 EQ PUSH2 0x2DE JUMPI DUP1 PUSH4 0xD2A569C3 EQ PUSH2 0x2FC JUMPI DUP1 PUSH4 0xD5DBDF1B EQ PUSH2 0x306 JUMPI DUP1 PUSH4 0xF2FDE38B EQ PUSH2 0x322 JUMPI PUSH2 0x121 JUMP JUMPDEST DUP1 PUSH4 0xA143A5F2 EQ PUSH2 0x208 JUMPI DUP1 PUSH4 0xA3EC138D EQ PUSH2 0x238 JUMPI DUP1 PUSH4 0xB5D9DF83 EQ PUSH2 0x268 JUMPI DUP1 PUSH4 0xB87DA76D EQ PUSH2 0x298 JUMPI DUP1 PUSH4 0xBED9D861 EQ PUSH2 0x2B6 JUMPI PUSH2 0x121 JUMP JUMPDEST DUP1 PUSH4 0x7B0472F0 GT PUSH2 0xF4 JUMPI DUP1 PUSH4 0x7B0472F0 EQ PUSH2 0x176 JUMPI DUP1 PUSH4 0x8891CF0D EQ PUSH2 0x192 JUMPI DUP1 PUSH4 0x8C63F97F EQ PUSH2 0x1B0 JUMPI DUP1 PUSH4 0x8C8E8FEE EQ PUSH2 0x1CC JUMPI DUP1 PUSH4 0x8DA5CB5B EQ PUSH2 0x1EA JUMPI PUSH2 0x121 JUMP JUMPDEST DUP1 PUSH4 0x10486B6A EQ PUSH2 0x126 JUMPI DUP1 PUSH4 0x5B88349D EQ PUSH2 0x144 JUMPI DUP1 PUSH4 0x5F5300FF EQ PUSH2 0x14E JUMPI DUP1 PUSH4 0x715018A6 EQ PUSH2 0x16C JUMPI JUMPDEST PUSH1 0x0 DUP1 REVERT JUMPDEST PUSH2 0x12E PUSH2 0x33E JUMP JUMPDEST PUSH1 0x40 MLOAD PUSH2 0x13B SWAP2 SWAP1 PUSH2 0x1740 JUMP JUMPDEST PUSH1 0x40 MLOAD DUP1 SWAP2 SUB SWAP1 RETURN JUMPDEST PUSH2 0x14C PUSH2 0x513 JUMP JUMPDEST STOP JUMPDEST PUSH2 0x156 PUSH2 0x5FA JUMP JUMPDEST PUSH1 0x40 MLOAD PUSH2 0x163 SWAP2 SWAP1 PUSH2 0x176B JUMP JUMPDEST PUSH1 0x40 MLOAD DUP1 SWAP2 SUB SWAP1 RETURN JUMPDEST PUSH2 0x174 PUSH2 0x600 JUMP JUMPDEST STOP JUMPDEST PUSH2 0x190 PUSH1 0x4 DUP1 CALLDATASIZE SUB DUP2 ADD SWAP1 PUSH2 0x18B SWAP2 SWAP1 PUSH2 0x17B7 JUMP JUMPDEST PUSH2 0x688 JUMP JUMPDEST STOP JUMPDEST PUSH2 0x19A PUSH2 0x98E JUMP JUMPDEST PUSH1 0x40 MLOAD PUSH2 0x1A7 SWAP2 SWAP1 PUSH2 0x176B JUMP JUMPDEST PUSH1 0x40 MLOAD DUP1 SWAP2 SUB SWAP1 RETURN JUMPDEST PUSH2 0x1CA PUSH1 0x4 DUP1 CALLDATASIZE SUB DUP2 ADD SWAP1 PUSH2 0x1C5 SWAP2 SWAP1 PUSH2 0x17F7 JUMP JUMPDEST PUSH2 0x994 JUMP JUMPDEST STOP JUMPDEST PUSH2 0x1D4 PUSH2 0xA8C JUMP JUMPDEST PUSH1 0x40 MLOAD PUSH2 0x1E1 SWAP2 SWAP1 PUSH2 0x1865 JUMP JUMPDEST PUSH1 0x40 MLOAD DUP1 SWAP2 SUB SWAP1 RETURN JUMPDEST PUSH2 0x1F2 PUSH2 0xAB2 JUMP JUMPDEST PUSH1 0x40 MLOAD PUSH2 0x1FF SWAP2 SWAP1 PUSH2 0x1865 JUMP JUMPDEST PUSH1 0x40 MLOAD DUP1 SWAP2 SUB SWAP1 RETURN JUMPDEST PUSH2 0x222 PUSH1 0x4 DUP1 CALLDATASIZE SUB DUP2 ADD SWAP1 PUSH2 0x21D SWAP2 SWAP1 PUSH2 0x17F7 JUMP JUMPDEST PUSH2 0xADC JUMP JUMPDEST PUSH1 0x40 MLOAD PUSH2 0x22F SWAP2 SWAP1 PUSH2 0x176B JUMP JUMPDEST PUSH1 0x40 MLOAD DUP1 SWAP2 SUB SWAP1 RETURN JUMPDEST PUSH2 0x252 PUSH1 0x4 DUP1 CALLDATASIZE SUB DUP2 ADD SWAP1 PUSH2 0x24D SWAP2 SWAP1 PUSH2 0x18AC JUMP JUMPDEST PUSH2 0xAF4 JUMP JUMPDEST PUSH1 0x40 MLOAD PUSH2 0x25F SWAP2 SWAP1 PUSH2 0x18F4 JUMP JUMPDEST PUSH1 0x40 MLOAD DUP1 SWAP2 SUB SWAP1 RETURN JUMPDEST PUSH2 0x282 PUSH1 0x4 DUP1 CALLDATASIZE SUB DUP2 ADD SWAP1 PUSH2 0x27D SWAP2 SWAP1 PUSH2 0x17F7 JUMP JUMPDEST PUSH2 0xB1F JUMP JUMPDEST PUSH1 0x40 MLOAD PUSH2 0x28F SWAP2 SWAP1 PUSH2 0x176B JUMP JUMPDEST PUSH1 0x40 MLOAD DUP1 SWAP2 SUB SWAP1 RETURN JUMPDEST PUSH2 0x2A0 PUSH2 0xB42 JUMP JUMPDEST PUSH1 0x40 MLOAD PUSH2 0x2AD SWAP2 SWAP1 PUSH2 0x176B JUMP JUMPDEST PUSH1 0x40 MLOAD DUP1 SWAP2 SUB SWAP1 RETURN JUMPDEST PUSH2 0x2BE PUSH2 0xB48 JUMP JUMPDEST STOP JUMPDEST PUSH2 0x2C8 PUSH2 0xDD9 JUMP JUMPDEST PUSH1 0x40 MLOAD PUSH2 0x2D5 SWAP2 SWAP1 PUSH2 0x176B JUMP JUMPDEST PUSH1 0x40 MLOAD DUP1 SWAP2 SUB SWAP1 RETURN JUMPDEST PUSH2 0x2E6 PUSH2 0xDE1 JUMP JUMPDEST PUSH1 0x40 MLOAD PUSH2 0x2F3 SWAP2 SWAP1 PUSH2 0x176B JUMP JUMPDEST PUSH1 0x40 MLOAD DUP1 SWAP2 SUB SWAP1 RETURN JUMPDEST PUSH2 0x304 PUSH2 0xDE7 JUMP JUMPDEST STOP JUMPDEST PUSH2 0x320 PUSH1 0x4 DUP1 CALLDATASIZE SUB DUP2 ADD SWAP1 PUSH2 0x31B SWAP2 SWAP1 PUSH2 0x17F7 JUMP JUMPDEST PUSH2 0xE6C JUMP JUMPDEST STOP JUMPDEST PUSH2 0x33C PUSH1 0x4 DUP1 CALLDATASIZE SUB DUP2 ADD SWAP1 PUSH2 0x337 SWAP2 SWAP1 PUSH2 0x18AC JUMP JUMPDEST PUSH2 0xF64 JUMP JUMPDEST STOP JUMPDEST PUSH2 0x346 PUSH2 0x15F2 JUMP JUMPDEST PUSH1 0x0 PUSH1 0xC PUSH1 0x0 CALLER PUSH20 0xFFFFFFFFFFFFFFFFFFFFFFFFFFFFFFFFFFFFFFFF AND PUSH20 0xFFFFFFFFFFFFFFFFFFFFFFFFFFFFFFFFFFFFFFFF AND DUP2 MSTORE PUSH1 0x20 ADD SWAP1 DUP2 MSTORE PUSH1 0x20 ADD PUSH1 0x0 KECCAK256 PUSH1 0x40 MLOAD DUP1 PUSH1 0xE0 ADD PUSH1 0x40 MSTORE SWAP1 DUP2 PUSH1 0x0 DUP3 ADD SLOAD DUP2 MSTORE PUSH1 0x20 ADD PUSH1 0x1 DUP3 ADD SLOAD DUP2 MSTORE PUSH1 0x20 ADD PUSH1 0x2 DUP3 ADD SLOAD DUP2 MSTORE PUSH1 0x20 ADD PUSH1 0x3 DUP3 ADD SLOAD DUP2 MSTORE PUSH1 0x20 ADD PUSH1 0x4 DUP3 ADD SLOAD DUP2 MSTORE PUSH1 0x20 ADD PUSH1 0x5 DUP3 ADD SLOAD DUP2 MSTORE PUSH1 0x20 ADD PUSH1 0x6 DUP3 ADD SLOAD DUP2 MSTORE POP POP SWAP1 POP PUSH1 0x0 DUP2 PUSH1 0x0 ADD MLOAD GT PUSH2 0x418 JUMPI PUSH1 0x40 MLOAD PUSH32 0xB018F08700000000000000000000000000000000000000000000000000000000 DUP2 MSTORE PUSH1 0x4 ADD PUSH1 0x40 MLOAD DUP1 SWAP2 SUB SWAP1 REVERT JUMPDEST PUSH1 0x0 PUSH1 0x40 MLOAD DUP1 PUSH1 0x60 ADD PUSH1 0x40 MSTORE DUP1 PUSH1 0x0 DUP2 MSTORE PUSH1 0x20 ADD PUSH1 0x0 DUP2 MSTORE PUSH1 0x20 ADD DUP4 DUP2 MSTORE POP SWAP1 POP PUSH1 0x0 PUSH2 0x444 DUP4 PUSH2 0x105C JUMP JUMPDEST SWAP1 POP TIMESTAMP DUP3 PUSH1 0x40 ADD MLOAD PUSH1 0x60 ADD MLOAD GT ISZERO PUSH2 0x4A4 JUMPI PUSH2 0x3E8 PUSH1 0x3 SLOAD DUP3 PUSH2 0x467 SWAP2 SWAP1 PUSH2 0x193E JUMP JUMPDEST PUSH2 0x471 SWAP2 SWAP1 PUSH2 0x19C7 JUMP JUMPDEST PUSH2 0x3E8 PUSH1 0x3 SLOAD DUP6 PUSH1 0x0 ADD MLOAD PUSH2 0x486 SWAP2 SWAP1 PUSH2 0x193E JUMP JUMPDEST PUSH2 0x490 SWAP2 SWAP1 PUSH2 0x19C7 JUMP JUMPDEST PUSH2 0x49A SWAP2 SWAP1 PUSH2 0x19F8 JUMP JUMPDEST DUP3 PUSH1 0x20 ADD DUP2 DUP2 MSTORE POP POP JUMPDEST PUSH1 0x0 PUSH2 0x4B3 DUP5 PUSH1 0xC0 ADD MLOAD PUSH2 0xB1F JUMP JUMPDEST GT ISZERO PUSH2 0x4DE JUMPI PUSH1 0x0 PUSH2 0x4C8 DUP5 PUSH1 0x0 ADD MLOAD PUSH2 0x10BC JUMP JUMPDEST SWAP1 POP DUP1 DUP4 PUSH1 0x40 ADD MLOAD PUSH1 0xA0 ADD DUP2 DUP2 MSTORE POP POP POP PUSH2 0x4EE JUMP JUMPDEST PUSH1 0x0 DUP3 PUSH1 0x40 ADD MLOAD PUSH1 0xA0 ADD DUP2 DUP2 MSTORE POP POP JUMPDEST DUP1 DUP3 PUSH1 0x40 ADD MLOAD PUSH1 0x80 ADD DUP2 DUP2 MSTORE POP POP DUP3 PUSH1 0x0 ADD MLOAD DUP3 PUSH1 0x0 ADD DUP2 DUP2 MSTORE POP POP DUP2 SWAP4 POP POP POP POP SWAP1 JUMP JUMPDEST PUSH1 0x0 PUSH1 0xC PUSH1 0x0 CALLER PUSH20 0xFFFFFFFFFFFFFFFFFFFFFFFFFFFFFFFFFFFFFFFF AND PUSH20 0xFFFFFFFFFFFFFFFFFFFFFFFFFFFFFFFFFFFFFFFF AND DUP2 MSTORE PUSH1 0x20 ADD SWAP1 DUP2 MSTORE PUSH1 0x20 ADD PUSH1 0x0 KECCAK256 SWAP1 POP PUSH1 0x0 DUP2 PUSH1 0x0 ADD SLOAD GT ISZERO PUSH2 0x5F7 JUMPI PUSH1 0x0 PUSH2 0x572 DUP3 PUSH1 0x6 ADD SLOAD PUSH2 0xB1F JUMP JUMPDEST EQ ISZERO PUSH2 0x5AA JUMPI PUSH1 0x40 MLOAD PUSH32 0xDD8456CC00000000000000000000000000000000000000000000000000000000 DUP2 MSTORE PUSH1 0x4 ADD PUSH1 0x40 MLOAD DUP1 SWAP2 SUB SWAP1 REVERT JUMPDEST PUSH1 0x0 DUP2 PUSH1 0x5 ADD DUP2 SWAP1 SSTORE POP TIMESTAMP DUP2 PUSH1 0x6 ADD DUP2 SWAP1 SSTORE POP PUSH2 0x5F6 PUSH1 0xB PUSH1 0x0 SWAP1 SLOAD SWAP1 PUSH2 0x100 EXP SWAP1 DIV PUSH20 0xFFFFFFFFFFFFFFFFFFFFFFFFFFFFFFFFFFFFFFFF AND CALLER PUSH2 0x5F1 DUP5 PUSH1 0x0 ADD SLOAD PUSH2 0x10BC JUMP JUMPDEST PUSH2 0x10EF JUMP JUMPDEST JUMPDEST POP JUMP JUMPDEST PUSH1 0x8 SLOAD DUP2 JUMP JUMPDEST PUSH2 0x608 PUSH2 0x1175 JUMP JUMPDEST PUSH20 0xFFFFFFFFFFFFFFFFFFFFFFFFFFFFFFFFFFFFFFFF AND PUSH2 0x626 PUSH2 0xAB2 JUMP JUMPDEST PUSH20 0xFFFFFFFFFFFFFFFFFFFFFFFFFFFFFFFFFFFFFFFF AND EQ PUSH2 0x67C JUMPI PUSH1 0x40 MLOAD PUSH32 0x8C379A000000000000000000000000000000000000000000000000000000000 DUP2 MSTORE PUSH1 0x4 ADD PUSH2 0x673 SWAP1 PUSH2 0x1AAB JUMP JUMPDEST PUSH1 0x40 MLOAD DUP1 SWAP2 SUB SWAP1 REVERT JUMPDEST PUSH2 0x686 PUSH1 0x0 PUSH2 0x117D JUMP JUMPDEST JUMP JUMPDEST PUSH1 0x2 PUSH1 0x0 SLOAD EQ ISZERO PUSH2 0x6CE JUMPI PUSH1 0x40 MLOAD PUSH32 0x8C379A000000000000000000000000000000000000000000000000000000000 DUP2 MSTORE PUSH1 0x4 ADD PUSH2 0x6C5 SWAP1 PUSH2 0x1B17 JUMP JUMPDEST PUSH1 0x40 MLOAD DUP1 SWAP2 SUB SWAP1 REVERT JUMPDEST PUSH1 0x2 PUSH1 0x0 DUP2 SWAP1 SSTORE POP PUSH1 0x0 PUSH1 0xC PUSH1 0x0 CALLER PUSH20 0xFFFFFFFFFFFFFFFFFFFFFFFFFFFFFFFFFFFFFFFF AND PUSH20 0xFFFFFFFFFFFFFFFFFFFFFFFFFFFFFFFFFFFFFFFF AND DUP2 MSTORE PUSH1 0x20 ADD SWAP1 DUP2 MSTORE PUSH1 0x20 ADD PUSH1 0x0 KECCAK256 PUSH1 0x0 ADD SLOAD EQ PUSH2 0x752 JUMPI PUSH1 0x40 MLOAD PUSH32 0x4462D2700000000000000000000000000000000000000000000000000000000 DUP2 MSTORE PUSH1 0x4 ADD PUSH1 0x40 MLOAD DUP1 SWAP2 SUB SWAP1 REVERT JUMPDEST PUSH1 0x0 PUSH1 0x2 PUSH1 0x0 DUP4 DUP2 MSTORE PUSH1 0x20 ADD SWAP1 DUP2 MSTORE PUSH1 0x20 ADD PUSH1 0x0 KECCAK256 SLOAD EQ ISZERO PUSH2 0x7A0 JUMPI PUSH1 0x40 MLOAD PUSH32 0x95377BE400000000000000000000000000000000000000000000000000000000 DUP2 MSTORE PUSH1 0x4 ADD PUSH1 0x40 MLOAD DUP1 SWAP2 SUB SWAP1 REVERT JUMPDEST PUSH1 0x1 PUSH1 0x8 PUSH1 0x0 DUP3 DUP3 SLOAD PUSH2 0x7B3 SWAP2 SWAP1 PUSH2 0x19F8 JUMP JUMPDEST SWAP3 POP POP DUP2 SWAP1 SSTORE POP PUSH1 0x1 PUSH1 0x9 PUSH1 0x0 CALLER PUSH20 0xFFFFFFFFFFFFFFFFFFFFFFFFFFFFFFFFFFFFFFFF AND PUSH20 0xFFFFFFFFFFFFFFFFFFFFFFFFFFFFFFFFFFFFFFFF AND DUP2 MSTORE PUSH1 0x20 ADD SWAP1 DUP2 MSTORE PUSH1 0x20 ADD PUSH1 0x0 KECCAK256 PUSH1 0x0 ADD PUSH1 0x0 PUSH2 0x100 EXP DUP2 SLOAD DUP2 PUSH1 0xFF MUL NOT AND SWAP1 DUP4 ISZERO ISZERO MUL OR SWAP1 SSTORE POP PUSH1 0x0 TIMESTAMP SWAP1 POP PUSH1 0x40 MLOAD DUP1 PUSH1 0xE0 ADD PUSH1 0x40 MSTORE DUP1 DUP5 DUP2 MSTORE PUSH1 0x20 ADD DUP3 DUP2 MSTORE PUSH1 0x20 ADD PUSH1 0x2 PUSH1 0x0 DUP6 DUP2 MSTORE PUSH1 0x20 ADD SWAP1 DUP2 MSTORE PUSH1 0x20 ADD PUSH1 0x0 KECCAK256 SLOAD DUP2 MSTORE PUSH1 0x20 ADD DUP3 DUP5 PUSH2 0x856 SWAP2 SWAP1 PUSH2 0x19F8 JUMP JUMPDEST DUP2 MSTORE PUSH1 0x20 ADD PUSH1 0x0 DUP2 MSTORE PUSH1 0x20 ADD PUSH1 0x0 DUP2 MSTORE PUSH1 0x20 ADD PUSH1 0x0 DUP2 MSTORE POP PUSH1 0xC PUSH1 0x0 CALLER PUSH20 0xFFFFFFFFFFFFFFFFFFFFFFFFFFFFFFFFFFFFFFFF AND PUSH20 0xFFFFFFFFFFFFFFFFFFFFFFFFFFFFFFFFFFFFFFFF AND DUP2 MSTORE PUSH1 0x20 ADD SWAP1 DUP2 MSTORE PUSH1 0x20 ADD PUSH1 0x0 KECCAK256 PUSH1 0x0 DUP3 ADD MLOAD DUP2 PUSH1 0x0 ADD SSTORE PUSH1 0x20 DUP3 ADD MLOAD DUP2 PUSH1 0x1 ADD SSTORE PUSH1 0x40 DUP3 ADD MLOAD DUP2 PUSH1 0x2 ADD SSTORE PUSH1 0x60 DUP3 ADD MLOAD DUP2 PUSH1 0x3 ADD SSTORE PUSH1 0x80 DUP3 ADD MLOAD DUP2 PUSH1 0x4 ADD SSTORE PUSH1 0xA0 DUP3 ADD MLOAD DUP2 PUSH1 0x5 ADD SSTORE PUSH1 0xC0 DUP3 ADD MLOAD DUP2 PUSH1 0x6 ADD SSTORE SWAP1 POP POP PUSH2 0x924 PUSH1 0xB PUSH1 0x0 SWAP1 SLOAD SWAP1 PUSH2 0x100 EXP SWAP1 DIV PUSH20 0xFFFFFFFFFFFFFFFFFFFFFFFFFFFFFFFFFFFFFFFF AND CALLER ADDRESS DUP7 PUSH2 0x1243 JUMP JUMPDEST CALLER PUSH20 0xFFFFFFFFFFFFFFFFFFFFFFFFFFFFFFFFFFFFFFFF AND PUSH32 0xB4CAAF29ADDA3EEFEE3AD552A8E85058589BF834C7466CAE4EE58787F70589ED DUP5 DUP4 DUP5 DUP7 PUSH2 0x96A SWAP2 SWAP1 PUSH2 0x19F8 JUMP JUMPDEST PUSH1 0x40 MLOAD PUSH2 0x979 SWAP4 SWAP3 SWAP2 SWAP1 PUSH2 0x1B37 JUMP JUMPDEST PUSH1 0x40 MLOAD DUP1 SWAP2 SUB SWAP1 LOG2 POP PUSH1 0x1 PUSH1 0x0 DUP2 SWAP1 SSTORE POP POP POP JUMP JUMPDEST PUSH1 0x4 SLOAD DUP2 JUMP JUMPDEST PUSH2 0x99C PUSH2 0x1175 JUMP JUMPDEST PUSH20 0xFFFFFFFFFFFFFFFFFFFFFFFFFFFFFFFFFFFFFFFF AND PUSH2 0x9BA PUSH2 0xAB2 JUMP JUMPDEST PUSH20 0xFFFFFFFFFFFFFFFFFFFFFFFFFFFFFFFFFFFFFFFF AND EQ PUSH2 0xA10 JUMPI PUSH1 0x40 MLOAD PUSH32 0x8C379A000000000000000000000000000000000000000000000000000000000 DUP2 MSTORE PUSH1 0x4 ADD PUSH2 0xA07 SWAP1 PUSH2 0x1AAB JUMP JUMPDEST PUSH1 0x40 MLOAD DUP1 SWAP2 SUB SWAP1 REVERT JUMPDEST PUSH1 0x1E DUP2 GT ISZERO PUSH2 0xA4B JUMPI PUSH1 0x40 MLOAD PUSH32 0xF1A470D700000000000000000000000000000000000000000000000000000000 DUP2 MSTORE PUSH1 0x4 ADD PUSH1 0x40 MLOAD DUP1 SWAP2 SUB SWAP1 REVERT JUMPDEST DUP1 PUSH1 0x3 DUP2 SWAP1 SSTORE POP PUSH32 0xCFA4F4CF1CD64D13A167A8E75605E0C0C9D6700E903D17C5DC11F593254A04A9 DUP2 PUSH1 0x40 MLOAD PUSH2 0xA81 SWAP2 SWAP1 PUSH2 0x176B JUMP JUMPDEST PUSH1 0x40 MLOAD DUP1 SWAP2 SUB SWAP1 LOG1 POP JUMP JUMPDEST PUSH1 0xB PUSH1 0x0 SWAP1 SLOAD SWAP1 PUSH2 0x100 EXP SWAP1 DIV PUSH20 0xFFFFFFFFFFFFFFFFFFFFFFFFFFFFFFFFFFFFFFFF AND DUP2 JUMP JUMPDEST PUSH1 0x0 PUSH1 0x1 PUSH1 0x0 SWAP1 SLOAD SWAP1 PUSH2 0x100 EXP SWAP1 DIV PUSH20 0xFFFFFFFFFFFFFFFFFFFFFFFFFFFFFFFFFFFFFFFF AND SWAP1 POP SWAP1 JUMP JUMPDEST PUSH1 0xA PUSH1 0x20 MSTORE DUP1 PUSH1 0x0 MSTORE PUSH1 0x40 PUSH1 0x0 KECCAK256 PUSH1 0x0 SWAP2 POP SWAP1 POP SLOAD DUP2 JUMP JUMPDEST PUSH1 0x9 PUSH1 0x20 MSTORE DUP1 PUSH1 0x0 MSTORE PUSH1 0x40 PUSH1 0x0 KECCAK256 PUSH1 0x0 SWAP2 POP SWAP1 POP DUP1 PUSH1 0x0 ADD PUSH1 0x0 SWAP1 SLOAD SWAP1 PUSH2 0x100 EXP SWAP1 DIV PUSH1 0xFF AND SWAP1 POP DUP2 JUMP JUMPDEST PUSH1 0x0 PUSH3 0x93A80 DUP3 TIMESTAMP PUSH2 0xB31 SWAP2 SWAP1 PUSH2 0x1B6E JUMP JUMPDEST PUSH2 0xB3B SWAP2 SWAP1 PUSH2 0x19C7 JUMP JUMPDEST SWAP1 POP SWAP2 SWAP1 POP JUMP JUMPDEST PUSH1 0x5 SLOAD DUP2 JUMP JUMPDEST PUSH1 0x2 PUSH1 0x0 SLOAD EQ ISZERO PUSH2 0xB8E JUMPI PUSH1 0x40 MLOAD PUSH32 0x8C379A000000000000000000000000000000000000000000000000000000000 DUP2 MSTORE PUSH1 0x4 ADD PUSH2 0xB85 SWAP1 PUSH2 0x1B17 JUMP JUMPDEST PUSH1 0x40 MLOAD DUP1 SWAP2 SUB SWAP1 REVERT JUMPDEST PUSH1 0x2 PUSH1 0x0 DUP2 SWAP1 SSTORE POP PUSH1 0x0 PUSH1 0xC PUSH1 0x0 CALLER PUSH20 0xFFFFFFFFFFFFFFFFFFFFFFFFFFFFFFFFFFFFFFFF AND PUSH20 0xFFFFFFFFFFFFFFFFFFFFFFFFFFFFFFFFFFFFFFFF AND DUP2 MSTORE PUSH1 0x20 ADD SWAP1 DUP2 MSTORE PUSH1 0x20 ADD PUSH1 0x0 KECCAK256 PUSH1 0x40 MLOAD DUP1 PUSH1 0xE0 ADD PUSH1 0x40 MSTORE SWAP1 DUP2 PUSH1 0x0 DUP3 ADD SLOAD DUP2 MSTORE PUSH1 0x20 ADD PUSH1 0x1 DUP3 ADD SLOAD DUP2 MSTORE PUSH1 0x20 ADD PUSH1 0x2 DUP3 ADD SLOAD DUP2 MSTORE PUSH1 0x20 ADD PUSH1 0x3 DUP3 ADD SLOAD DUP2 MSTORE PUSH1 0x20 ADD PUSH1 0x4 DUP3 ADD SLOAD DUP2 MSTORE PUSH1 0x20 ADD PUSH1 0x5 DUP3 ADD SLOAD DUP2 MSTORE PUSH1 0x20 ADD PUSH1 0x6 DUP3 ADD SLOAD DUP2 MSTORE POP POP SWAP1 POP PUSH1 0x0 PUSH2 0xC35 DUP3 PUSH2 0x105C JUMP JUMPDEST SWAP1 POP PUSH1 0xC PUSH1 0x0 CALLER PUSH20 0xFFFFFFFFFFFFFFFFFFFFFFFFFFFFFFFFFFFFFFFF AND PUSH20 0xFFFFFFFFFFFFFFFFFFFFFFFFFFFFFFFFFFFFFFFF AND DUP2 MSTORE PUSH1 0x20 ADD SWAP1 DUP2 MSTORE PUSH1 0x20 ADD PUSH1 0x0 KECCAK256 PUSH1 0x0 DUP1 DUP3 ADD PUSH1 0x0 SWAP1 SSTORE PUSH1 0x1 DUP3 ADD PUSH1 0x0 SWAP1 SSTORE PUSH1 0x2 DUP3 ADD PUSH1 0x0 SWAP1 SSTORE PUSH1 0x3 DUP3 ADD PUSH1 0x0 SWAP1 SSTORE PUSH1 0x4 DUP3 ADD PUSH1 0x0 SWAP1 SSTORE PUSH1 0x5 DUP3 ADD PUSH1 0x0 SWAP1 SSTORE PUSH1 0x6 DUP3 ADD PUSH1 0x0 SWAP1 SSTORE POP POP PUSH1 0x1 PUSH1 0x8 PUSH1 0x0 DUP3 DUP3 SLOAD PUSH2 0xCC4 SWAP2 SWAP1 PUSH2 0x1B6E JUMP JUMPDEST SWAP3 POP POP DUP2 SWAP1 SSTORE POP PUSH1 0x9 PUSH1 0x0 CALLER PUSH20 0xFFFFFFFFFFFFFFFFFFFFFFFFFFFFFFFFFFFFFFFF AND PUSH20 0xFFFFFFFFFFFFFFFFFFFFFFFFFFFFFFFFFFFFFFFF AND DUP2 MSTORE PUSH1 0x20 ADD SWAP1 DUP2 MSTORE PUSH1 0x20 ADD PUSH1 0x0 KECCAK256 PUSH1 0x1 ADD PUSH1 0x0 PUSH1 0x7 SLOAD DUP2 MSTORE PUSH1 0x20 ADD SWAP1 DUP2 MSTORE PUSH1 0x20 ADD PUSH1 0x0 KECCAK256 PUSH1 0x0 PUSH2 0x100 EXP DUP2 SLOAD SWAP1 PUSH1 0xFF MUL NOT AND SWAP1 SSTORE TIMESTAMP DUP3 PUSH1 0x60 ADD MLOAD GT ISZERO PUSH2 0xD90 JUMPI PUSH1 0x0 DUP1 PUSH2 0xD4D DUP5 PUSH1 0x0 ADD MLOAD DUP5 PUSH2 0x12CC JUMP JUMPDEST SWAP2 POP SWAP2 POP PUSH2 0xD89 PUSH1 0xB PUSH1 0x0 SWAP1 SLOAD SWAP1 PUSH2 0x100 EXP SWAP1 DIV PUSH20 0xFFFFFFFFFFFFFFFFFFFFFFFFFFFFFFFFFFFFFFFF AND CALLER DUP4 DUP6 PUSH2 0xD84 SWAP2 SWAP1 PUSH2 0x19F8 JUMP JUMPDEST PUSH2 0x10EF JUMP JUMPDEST POP POP PUSH2 0xDCD JUMP JUMPDEST PUSH2 0xDCC PUSH1 0xB PUSH1 0x0 SWAP1 SLOAD SWAP1 PUSH2 0x100 EXP SWAP1 DIV PUSH20 0xFFFFFFFFFFFFFFFFFFFFFFFFFFFFFFFFFFFFFFFF AND CALLER DUP4 DUP6 PUSH1 0x0 ADD MLOAD PUSH2 0xDC7 SWAP2 SWAP1 PUSH2 0x19F8 JUMP JUMPDEST PUSH2 0x10EF JUMP JUMPDEST JUMPDEST POP POP PUSH1 0x1 PUSH1 0x0 DUP2 SWAP1 SSTORE POP JUMP JUMPDEST PUSH1 0x0 TIMESTAMP SWAP1 POP SWAP1 JUMP JUMPDEST PUSH1 0x3 SLOAD DUP2 JUMP JUMPDEST PUSH2 0xDEF PUSH2 0x1175 JUMP JUMPDEST PUSH20 0xFFFFFFFFFFFFFFFFFFFFFFFFFFFFFFFFFFFFFFFF AND PUSH2 0xE0D PUSH2 0xAB2 JUMP JUMPDEST PUSH20 0xFFFFFFFFFFFFFFFFFFFFFFFFFFFFFFFFFFFFFFFF AND EQ PUSH2 0xE63 JUMPI PUSH1 0x40 MLOAD PUSH32 0x8C379A000000000000000000000000000000000000000000000000000000000 DUP2 MSTORE PUSH1 0x4 ADD PUSH2 0xE5A SWAP1 PUSH2 0x1AAB JUMP JUMPDEST PUSH1 0x40 MLOAD DUP1 SWAP2 SUB SWAP1 REVERT JUMPDEST TIMESTAMP PUSH1 0x5 DUP2 SWAP1 SSTORE POP JUMP JUMPDEST PUSH2 0xE74 PUSH2 0x1175 JUMP JUMPDEST PUSH20 0xFFFFFFFFFFFFFFFFFFFFFFFFFFFFFFFFFFFFFFFF AND PUSH2 0xE92 PUSH2 0xAB2 JUMP JUMPDEST PUSH20 0xFFFFFFFFFFFFFFFFFFFFFFFFFFFFFFFFFFFFFFFF AND EQ PUSH2 0xEE8 JUMPI PUSH1 0x40 MLOAD PUSH32 0x8C379A000000000000000000000000000000000000000000000000000000000 DUP2 MSTORE PUSH1 0x4 ADD PUSH2 0xEDF SWAP1 PUSH2 0x1AAB JUMP JUMPDEST PUSH1 0x40 MLOAD DUP1 SWAP2 SUB SWAP1 REVERT JUMPDEST PUSH1 0xC8 DUP2 GT ISZERO PUSH2 0xF23 JUMPI PUSH1 0x40 MLOAD PUSH32 0xA552CF1000000000000000000000000000000000000000000000000000000000 DUP2 MSTORE PUSH1 0x4 ADD PUSH1 0x40 MLOAD DUP1 SWAP2 SUB SWAP1 REVERT JUMPDEST DUP1 PUSH1 0x4 DUP2 SWAP1 SSTORE POP PUSH32 0xCC672F1026B958C0CFBFDD89EBE8DDCBC127F16EC24DA6C2C7A4DE26A8B1857E DUP2 PUSH1 0x40 MLOAD PUSH2 0xF59 SWAP2 SWAP1 PUSH2 0x176B JUMP JUMPDEST PUSH1 0x40 MLOAD DUP1 SWAP2 SUB SWAP1 LOG1 POP JUMP JUMPDEST PUSH2 0xF6C PUSH2 0x1175 JUMP JUMPDEST PUSH20 0xFFFFFFFFFFFFFFFFFFFFFFFFFFFFFFFFFFFFFFFF AND PUSH2 0xF8A PUSH2 0xAB2 JUMP JUMPDEST PUSH20 0xFFFFFFFFFFFFFFFFFFFFFFFFFFFFFFFFFFFFFFFF AND EQ PUSH2 0xFE0 JUMPI PUSH1 0x40 MLOAD PUSH32 0x8C379A000000000000000000000000000000000000000000000000000000000 DUP2 MSTORE PUSH1 0x4 ADD PUSH2 0xFD7 SWAP1 PUSH2 0x1AAB JUMP JUMPDEST PUSH1 0x40 MLOAD DUP1 SWAP2 SUB SWAP1 REVERT JUMPDEST PUSH1 0x0 PUSH20 0xFFFFFFFFFFFFFFFFFFFFFFFFFFFFFFFFFFFFFFFF AND DUP2 PUSH20 0xFFFFFFFFFFFFFFFFFFFFFFFFFFFFFFFFFFFFFFFF AND EQ ISZERO PUSH2 0x1050 JUMPI PUSH1 0x40 MLOAD PUSH32 0x8C379A000000000000000000000000000000000000000000000000000000000 DUP2 MSTORE PUSH1 0x4 ADD PUSH2 0x1047 SWAP1 PUSH2 0x1C14 JUMP JUMPDEST PUSH1 0x40 MLOAD DUP1 SWAP2 SUB SWAP1 REVERT JUMPDEST PUSH2 0x1059 DUP2 PUSH2 0x117D JUMP JUMPDEST POP JUMP JUMPDEST PUSH1 0x0 DUP1 DUP3 PUSH1 0x0 ADD MLOAD EQ ISZERO PUSH2 0x1073 JUMPI PUSH1 0x0 SWAP1 POP PUSH2 0x10B7 JUMP JUMPDEST PUSH11 0x52B7D2DCC80CD2E4000000 PUSH2 0x108C DUP4 PUSH1 0x20 ADD MLOAD PUSH2 0x133C JUMP JUMPDEST DUP4 PUSH1 0x40 ADD MLOAD DUP5 PUSH1 0x0 ADD MLOAD PUSH2 0x10A0 SWAP2 SWAP1 PUSH2 0x193E JUMP JUMPDEST PUSH2 0x10AA SWAP2 SWAP1 PUSH2 0x193E JUMP JUMPDEST PUSH2 0x10B4 SWAP2 SWAP1 PUSH2 0x19C7 JUMP JUMPDEST SWAP1 POP JUMPDEST SWAP2 SWAP1 POP JUMP JUMPDEST PUSH1 0x0 PUSH4 0x1DFE200 PUSH2 0x3E8 PUSH1 0x4 SLOAD DUP5 PUSH2 0x10D4 SWAP2 SWAP1 PUSH2 0x193E JUMP JUMPDEST PUSH2 0x10DE SWAP2 SWAP1 PUSH2 0x19C7 JUMP JUMPDEST PUSH2 0x10E8 SWAP2 SWAP1 PUSH2 0x19C7 JUMP JUMPDEST SWAP1 POP SWAP2 SWAP1 POP JUMP JUMPDEST PUSH2 0x1170 DUP4 PUSH4 0xA9059CBB PUSH1 0xE0 SHL DUP5 DUP5 PUSH1 0x40 MLOAD PUSH1 0x24 ADD PUSH2 0x110E SWAP3 SWAP2 SWAP1 PUSH2 0x1C34 JUMP JUMPDEST PUSH1 0x40 MLOAD PUSH1 0x20 DUP2 DUP4 SUB SUB DUP2 MSTORE SWAP1 PUSH1 0x40 MSTORE SWAP1 PUSH28 0xFFFFFFFFFFFFFFFFFFFFFFFFFFFFFFFFFFFFFFFFFFFFFFFFFFFFFFFF NOT AND PUSH1 0x20 DUP3 ADD DUP1 MLOAD PUSH28 0xFFFFFFFFFFFFFFFFFFFFFFFFFFFFFFFFFFFFFFFFFFFFFFFFFFFFFFFF DUP4 DUP2 DUP4 AND OR DUP4 MSTORE POP POP POP POP PUSH2 0x1375 JUMP JUMPDEST POP POP POP JUMP JUMPDEST PUSH1 0x0 CALLER SWAP1 POP SWAP1 JUMP JUMPDEST PUSH1 0x0 PUSH1 0x1 PUSH1 0x0 SWAP1 SLOAD SWAP1 PUSH2 0x100 EXP SWAP1 DIV PUSH20 0xFFFFFFFFFFFFFFFFFFFFFFFFFFFFFFFFFFFFFFFF AND SWAP1 POP DUP2 PUSH1 0x1 PUSH1 0x0 PUSH2 0x100 EXP DUP2 SLOAD DUP2 PUSH20 0xFFFFFFFFFFFFFFFFFFFFFFFFFFFFFFFFFFFFFFFF MUL NOT AND SWAP1 DUP4 PUSH20 0xFFFFFFFFFFFFFFFFFFFFFFFFFFFFFFFFFFFFFFFF AND MUL OR SWAP1 SSTORE POP DUP2 PUSH20 0xFFFFFFFFFFFFFFFFFFFFFFFFFFFFFFFFFFFFFFFF AND DUP2 PUSH20 0xFFFFFFFFFFFFFFFFFFFFFFFFFFFFFFFFFFFFFFFF AND PUSH32 0x8BE0079C531659141344CD1FD0A4F28419497F9722A3DAAFE3B4186F6B6457E0 PUSH1 0x40 MLOAD PUSH1 0x40 MLOAD DUP1 SWAP2 SUB SWAP1 LOG3 POP POP JUMP JUMPDEST PUSH2 0x12C6 DUP5 PUSH4 0x23B872DD PUSH1 0xE0 SHL DUP6 DUP6 DUP6 PUSH1 0x40 MLOAD PUSH1 0x24 ADD PUSH2 0x1264 SWAP4 SWAP3 SWAP2 SWAP1 PUSH2 0x1C5D JUMP JUMPDEST PUSH1 0x40 MLOAD PUSH1 0x20 DUP2 DUP4 SUB SUB DUP2 MSTORE SWAP1 PUSH1 0x40 MSTORE SWAP1 PUSH28 0xFFFFFFFFFFFFFFFFFFFFFFFFFFFFFFFFFFFFFFFFFFFFFFFFFFFFFFFF NOT AND PUSH1 0x20 DUP3 ADD DUP1 MLOAD PUSH28 0xFFFFFFFFFFFFFFFFFFFFFFFFFFFFFFFFFFFFFFFFFFFFFFFFFFFFFFFF DUP4 DUP2 DUP4 AND OR DUP4 MSTORE POP POP POP POP PUSH2 0x1375 JUMP JUMPDEST POP POP POP POP JUMP JUMPDEST PUSH1 0x0 DUP1 PUSH1 0x0 DUP5 EQ ISZERO PUSH2 0x12E4 JUMPI PUSH1 0x0 DUP1 SWAP2 POP SWAP2 POP PUSH2 0x1335 JUMP JUMPDEST PUSH2 0x3E8 PUSH1 0x3 SLOAD DUP6 PUSH2 0x12F5 SWAP2 SWAP1 PUSH2 0x193E JUMP JUMPDEST PUSH2 0x12FF SWAP2 SWAP1 PUSH2 0x19C7 JUMP JUMPDEST DUP5 PUSH2 0x130A SWAP2 SWAP1 PUSH2 0x1B6E JUMP JUMPDEST PUSH2 0x3E8 PUSH1 0x3 SLOAD DUP6 PUSH2 0x131B SWAP2 SWAP1 PUSH2 0x193E JUMP JUMPDEST PUSH2 0x1325 SWAP2 SWAP1 PUSH2 0x19C7 JUMP JUMPDEST DUP5 PUSH2 0x1330 SWAP2 SWAP1 PUSH2 0x1B6E JUMP JUMPDEST SWAP2 POP SWAP2 POP JUMPDEST SWAP3 POP SWAP3 SWAP1 POP JUMP JUMPDEST PUSH1 0x0 PUSH4 0x1E13380 PUSH10 0xD3C21BCECCEDA1000000 DUP4 TIMESTAMP PUSH2 0x135A SWAP2 SWAP1 PUSH2 0x1B6E JUMP JUMPDEST PUSH2 0x1364 SWAP2 SWAP1 PUSH2 0x193E JUMP JUMPDEST PUSH2 0x136E SWAP2 SWAP1 PUSH2 0x19C7 JUMP JUMPDEST SWAP1 POP SWAP2 SWAP1 POP JUMP JUMPDEST PUSH1 0x0 PUSH2 0x13D7 DUP3 PUSH1 0x40 MLOAD DUP1 PUSH1 0x40 ADD PUSH1 0x40 MSTORE DUP1 PUSH1 0x20 DUP2 MSTORE PUSH1 0x20 ADD PUSH32 0x5361666545524332303A206C6F772D6C6576656C2063616C6C206661696C6564 DUP2 MSTORE POP DUP6 PUSH20 0xFFFFFFFFFFFFFFFFFFFFFFFFFFFFFFFFFFFFFFFF AND PUSH2 0x143C SWAP1 SWAP3 SWAP2 SWAP1 PUSH4 0xFFFFFFFF AND JUMP JUMPDEST SWAP1 POP PUSH1 0x0 DUP2 MLOAD GT ISZERO PUSH2 0x1437 JUMPI DUP1 DUP1 PUSH1 0x20 ADD SWAP1 MLOAD DUP2 ADD SWAP1 PUSH2 0x13F7 SWAP2 SWAP1 PUSH2 0x1CC0 JUMP JUMPDEST PUSH2 0x1436 JUMPI PUSH1 0x40 MLOAD PUSH32 0x8C379A000000000000000000000000000000000000000000000000000000000 DUP2 MSTORE PUSH1 0x4 ADD PUSH2 0x142D SWAP1 PUSH2 0x1D5F JUMP JUMPDEST PUSH1 0x40 MLOAD DUP1 SWAP2 SUB SWAP1 REVERT JUMPDEST JUMPDEST POP POP POP JUMP JUMPDEST PUSH1 0x60 PUSH2 0x144B DUP5 DUP5 PUSH1 0x0 DUP6 PUSH2 0x1454 JUMP JUMPDEST SWAP1 POP SWAP4 SWAP3 POP POP POP JUMP JUMPDEST PUSH1 0x60 DUP3 SELFBALANCE LT ISZERO PUSH2 0x1499 JUMPI PUSH1 0x40 MLOAD PUSH32 0x8C379A000000000000000000000000000000000000000000000000000000000 DUP2 MSTORE PUSH1 0x4 ADD PUSH2 0x1490 SWAP1 PUSH2 0x1DF1 JUMP JUMPDEST PUSH1 0x40 MLOAD DUP1 SWAP2 SUB SWAP1 REVERT JUMPDEST PUSH2 0x14A2 DUP6 PUSH2 0x1568 JUMP JUMPDEST PUSH2 0x14E1 JUMPI PUSH1 0x40 MLOAD PUSH32 0x8C379A000000000000000000000000000000000000000000000000000000000 DUP2 MSTORE PUSH1 0x4 ADD PUSH2 0x14D8 SWAP1 PUSH2 0x1E5D JUMP JUMPDEST PUSH1 0x40 MLOAD DUP1 SWAP2 SUB SWAP1 REVERT JUMPDEST PUSH1 0x0 DUP1 DUP7 PUSH20 0xFFFFFFFFFFFFFFFFFFFFFFFFFFFFFFFFFFFFFFFF AND DUP6 DUP8 PUSH1 0x40 MLOAD PUSH2 0x150A SWAP2 SWAP1 PUSH2 0x1EF7 JUMP JUMPDEST PUSH1 0x0 PUSH1 0x40 MLOAD DUP1 DUP4 SUB DUP2 DUP6 DUP8 GAS CALL SWAP3 POP POP POP RETURNDATASIZE DUP1 PUSH1 0x0 DUP2 EQ PUSH2 0x1547 JUMPI PUSH1 0x40 MLOAD SWAP2 POP PUSH1 0x1F NOT PUSH1 0x3F RETURNDATASIZE ADD AND DUP3 ADD PUSH1 0x40 MSTORE RETURNDATASIZE DUP3 MSTORE RETURNDATASIZE PUSH1 0x0 PUSH1 0x20 DUP5 ADD RETURNDATACOPY PUSH2 0x154C JUMP JUMPDEST PUSH1 0x60 SWAP2 POP JUMPDEST POP SWAP2 POP SWAP2 POP PUSH2 0x155C DUP3 DUP3 DUP7 PUSH2 0x158B JUMP JUMPDEST SWAP3 POP POP POP SWAP5 SWAP4 POP POP POP POP JUMP JUMPDEST PUSH1 0x0 DUP1 DUP3 PUSH20 0xFFFFFFFFFFFFFFFFFFFFFFFFFFFFFFFFFFFFFFFF AND EXTCODESIZE GT SWAP1 POP SWAP2 SWAP1 POP JUMP JUMPDEST PUSH1 0x60 DUP4 ISZERO PUSH2 0x159B JUMPI DUP3 SWAP1 POP PUSH2 0x15EB JUMP JUMPDEST PUSH1 0x0 DUP4 MLOAD GT ISZERO PUSH2 0x15AE JUMPI DUP3 MLOAD DUP1 DUP5 PUSH1 0x20 ADD REVERT JUMPDEST DUP2 PUSH1 0x40 MLOAD PUSH32 0x8C379A000000000000000000000000000000000000000000000000000000000 DUP2 MSTORE PUSH1 0x4 ADD PUSH2 0x15E2 SWAP2 SWAP1 PUSH2 0x1F63 JUMP JUMPDEST PUSH1 0x40 MLOAD DUP1 SWAP2 SUB SWAP1 REVERT JUMPDEST SWAP4 SWAP3 POP POP POP JUMP JUMPDEST PUSH1 0x40 MLOAD DUP1 PUSH1 0x60 ADD PUSH1 0x40 MSTORE DUP1 PUSH1 0x0 DUP2 MSTORE PUSH1 0x20 ADD PUSH1 0x0 DUP2 MSTORE PUSH1 0x20 ADD PUSH2 0x1613 PUSH2 0x1619 JUMP JUMPDEST DUP2 MSTORE POP SWAP1 JUMP JUMPDEST PUSH1 0x40 MLOAD DUP1 PUSH1 0xE0 ADD PUSH1 0x40 MSTORE DUP1 PUSH1 0x0 DUP2 MSTORE PUSH1 0x20 ADD PUSH1 0x0 DUP2 MSTORE PUSH1 0x20 ADD PUSH1 0x0 DUP2 MSTORE PUSH1 0x20 ADD PUSH1 0x0 DUP2 MSTORE PUSH1 0x20 ADD PUSH1 0x0 DUP2 MSTORE PUSH1 0x20 ADD PUSH1 0x0 DUP2 MSTORE PUSH1 0x20 ADD PUSH1 0x0 DUP2 MSTORE POP SWAP1 JUMP JUMPDEST PUSH1 0x0 DUP2 SWAP1 POP SWAP2 SWAP1 POP JUMP JUMPDEST PUSH2 0x1669 DUP2 PUSH2 0x1656 JUMP JUMPDEST DUP3 MSTORE POP POP JUMP JUMPDEST PUSH1 0xE0 DUP3 ADD PUSH1 0x0 DUP3 ADD MLOAD PUSH2 0x1685 PUSH1 0x0 DUP6 ADD DUP3 PUSH2 0x1660 JUMP JUMPDEST POP PUSH1 0x20 DUP3 ADD MLOAD PUSH2 0x1698 PUSH1 0x20 DUP6 ADD DUP3 PUSH2 0x1660 JUMP JUMPDEST POP PUSH1 0x40 DUP3 ADD MLOAD PUSH2 0x16AB PUSH1 0x40 DUP6 ADD DUP3 PUSH2 0x1660 JUMP JUMPDEST POP PUSH1 0x60 DUP3 ADD MLOAD PUSH2 0x16BE PUSH1 0x60 DUP6 ADD DUP3 PUSH2 0x1660 JUMP JUMPDEST POP PUSH1 0x80 DUP3 ADD MLOAD PUSH2 0x16D1 PUSH1 0x80 DUP6 ADD DUP3 PUSH2 0x1660 JUMP JUMPDEST POP PUSH1 0xA0 DUP3 ADD MLOAD PUSH2 0x16E4 PUSH1 0xA0 DUP6 ADD DUP3 PUSH2 0x1660 JUMP JUMPDEST POP PUSH1 0xC0 DUP3 ADD MLOAD PUSH2 0x16F7 PUSH1 0xC0 DUP6 ADD DUP3 PUSH2 0x1660 JUMP JUMPDEST POP POP POP POP JUMP JUMPDEST PUSH2 0x120 DUP3 ADD PUSH1 0x0 DUP3 ADD MLOAD PUSH2 0x1714 PUSH1 0x0 DUP6 ADD DUP3 PUSH2 0x1660 JUMP JUMPDEST POP PUSH1 0x20 DUP3 ADD MLOAD PUSH2 0x1727 PUSH1 0x20 DUP6 ADD DUP3 PUSH2 0x1660 JUMP JUMPDEST POP PUSH1 0x40 DUP3 ADD MLOAD PUSH2 0x173A PUSH1 0x40 DUP6 ADD DUP3 PUSH2 0x166F JUMP JUMPDEST POP POP POP POP JUMP JUMPDEST PUSH1 0x0 PUSH2 0x120 DUP3 ADD SWAP1 POP PUSH2 0x1756 PUSH1 0x0 DUP4 ADD DUP5 PUSH2 0x16FD JUMP JUMPDEST SWAP3 SWAP2 POP POP JUMP JUMPDEST PUSH2 0x1765 DUP2 PUSH2 0x1656 JUMP JUMPDEST DUP3 MSTORE POP POP JUMP JUMPDEST PUSH1 0x0 PUSH1 0x20 DUP3 ADD SWAP1 POP PUSH2 0x1780 PUSH1 0x0 DUP4 ADD DUP5 PUSH2 0x175C JUMP JUMPDEST SWAP3 SWAP2 POP POP JUMP JUMPDEST PUSH1 0x0 DUP1 REVERT JUMPDEST PUSH2 0x1794 DUP2 PUSH2 0x1656 JUMP JUMPDEST DUP2 EQ PUSH2 0x179F JUMPI PUSH1 0x0 DUP1 REVERT JUMPDEST POP JUMP JUMPDEST PUSH1 0x0 DUP2 CALLDATALOAD SWAP1 POP PUSH2 0x17B1 DUP2 PUSH2 0x178B JUMP JUMPDEST SWAP3 SWAP2 POP POP JUMP JUMPDEST PUSH1 0x0 DUP1 PUSH1 0x40 DUP4 DUP6 SUB SLT ISZERO PUSH2 0x17CE JUMPI PUSH2 0x17CD PUSH2 0x1786 JUMP JUMPDEST JUMPDEST PUSH1 0x0 PUSH2 0x17DC DUP6 DUP3 DUP7 ADD PUSH2 0x17A2 JUMP JUMPDEST SWAP3 POP POP PUSH1 0x20 PUSH2 0x17ED DUP6 DUP3 DUP7 ADD PUSH2 0x17A2 JUMP JUMPDEST SWAP2 POP POP SWAP3 POP SWAP3 SWAP1 POP JUMP JUMPDEST PUSH1 0x0 PUSH1 0x20 DUP3 DUP5 SUB SLT ISZERO PUSH2 0x180D JUMPI PUSH2 0x180C PUSH2 0x1786 JUMP JUMPDEST JUMPDEST PUSH1 0x0 PUSH2 0x181B DUP5 DUP3 DUP6 ADD PUSH2 0x17A2 JUMP JUMPDEST SWAP2 POP POP SWAP3 SWAP2 POP POP JUMP JUMPDEST PUSH1 0x0 PUSH20 0xFFFFFFFFFFFFFFFFFFFFFFFFFFFFFFFFFFFFFFFF DUP3 AND SWAP1 POP SWAP2 SWAP1 POP JUMP JUMPDEST PUSH1 0x0 PUSH2 0x184F DUP3 PUSH2 0x1824 JUMP JUMPDEST SWAP1 POP SWAP2 SWAP1 POP JUMP JUMPDEST PUSH2 0x185F DUP2 PUSH2 0x1844 JUMP JUMPDEST DUP3 MSTORE POP POP JUMP JUMPDEST PUSH1 0x0 PUSH1 0x20 DUP3 ADD SWAP1 POP PUSH2 0x187A PUSH1 0x0 DUP4 ADD DUP5 PUSH2 0x1856 JUMP JUMPDEST SWAP3 SWAP2 POP POP JUMP JUMPDEST PUSH2 0x1889 DUP2 PUSH2 0x1844 JUMP JUMPDEST DUP2 EQ PUSH2 0x1894 JUMPI PUSH1 0x0 DUP1 REVERT JUMPDEST POP JUMP JUMPDEST PUSH1 0x0 DUP2 CALLDATALOAD SWAP1 POP PUSH2 0x18A6 DUP2 PUSH2 0x1880 JUMP JUMPDEST SWAP3 SWAP2 POP POP JUMP JUMPDEST PUSH1 0x0 PUSH1 0x20 DUP3 DUP5 SUB SLT ISZERO PUSH2 0x18C2 JUMPI PUSH2 0x18C1 PUSH2 0x1786 JUMP JUMPDEST JUMPDEST PUSH1 0x0 PUSH2 0x18D0 DUP5 DUP3 DUP6 ADD PUSH2 0x1897 JUMP JUMPDEST SWAP2 POP POP SWAP3 SWAP2 POP POP JUMP JUMPDEST PUSH1 0x0 DUP2 ISZERO ISZERO SWAP1 POP SWAP2 SWAP1 POP JUMP JUMPDEST PUSH2 0x18EE DUP2 PUSH2 0x18D9 JUMP JUMPDEST DUP3 MSTORE POP POP JUMP JUMPDEST PUSH1 0x0 PUSH1 0x20 DUP3 ADD SWAP1 POP PUSH2 0x1909 PUSH1 0x0 DUP4 ADD DUP5 PUSH2 0x18E5 JUMP JUMPDEST SWAP3 SWAP2 POP POP JUMP JUMPDEST PUSH32 0x4E487B7100000000000000000000000000000000000000000000000000000000 PUSH1 0x0 MSTORE PUSH1 0x11 PUSH1 0x4 MSTORE PUSH1 0x24 PUSH1 0x0 REVERT JUMPDEST PUSH1 0x0 PUSH2 0x1949 DUP3 PUSH2 0x1656 JUMP JUMPDEST SWAP2 POP PUSH2 0x1954 DUP4 PUSH2 0x1656 JUMP JUMPDEST SWAP3 POP DUP2 PUSH32 0xFFFFFFFFFFFFFFFFFFFFFFFFFFFFFFFFFFFFFFFFFFFFFFFFFFFFFFFFFFFFFFFF DIV DUP4 GT DUP3 ISZERO ISZERO AND ISZERO PUSH2 0x198D JUMPI PUSH2 0x198C PUSH2 0x190F JUMP JUMPDEST JUMPDEST DUP3 DUP3 MUL SWAP1 POP SWAP3 SWAP2 POP POP JUMP JUMPDEST PUSH32 0x4E487B7100000000000000000000000000000000000000000000000000000000 PUSH1 0x0 MSTORE PUSH1 0x12 PUSH1 0x4 MSTORE PUSH1 0x24 PUSH1 0x0 REVERT JUMPDEST PUSH1 0x0 PUSH2 0x19D2 DUP3 PUSH2 0x1656 JUMP JUMPDEST SWAP2 POP PUSH2 0x19DD DUP4 PUSH2 0x1656 JUMP JUMPDEST SWAP3 POP DUP3 PUSH2 0x19ED JUMPI PUSH2 0x19EC PUSH2 0x1998 JUMP JUMPDEST JUMPDEST DUP3 DUP3 DIV SWAP1 POP SWAP3 SWAP2 POP POP JUMP JUMPDEST PUSH1 0x0 PUSH2 0x1A03 DUP3 PUSH2 0x1656 JUMP JUMPDEST SWAP2 POP PUSH2 0x1A0E DUP4 PUSH2 0x1656 JUMP JUMPDEST SWAP3 POP DUP3 PUSH32 0xFFFFFFFFFFFFFFFFFFFFFFFFFFFFFFFFFFFFFFFFFFFFFFFFFFFFFFFFFFFFFFFF SUB DUP3 GT ISZERO PUSH2 0x1A43 JUMPI PUSH2 0x1A42 PUSH2 0x190F JUMP JUMPDEST JUMPDEST DUP3 DUP3 ADD SWAP1 POP SWAP3 SWAP2 POP POP JUMP JUMPDEST PUSH1 0x0 DUP3 DUP3 MSTORE PUSH1 0x20 DUP3 ADD SWAP1 POP SWAP3 SWAP2 POP POP JUMP JUMPDEST PUSH32 0x4F776E61626C653A2063616C6C6572206973206E6F7420746865206F776E6572 PUSH1 0x0 DUP3 ADD MSTORE POP JUMP JUMPDEST PUSH1 0x0 PUSH2 0x1A95 PUSH1 0x20 DUP4 PUSH2 0x1A4E JUMP JUMPDEST SWAP2 POP PUSH2 0x1AA0 DUP3 PUSH2 0x1A5F JUMP JUMPDEST PUSH1 0x20 DUP3 ADD SWAP1 POP SWAP2 SWAP1 POP JUMP JUMPDEST PUSH1 0x0 PUSH1 0x20 DUP3 ADD SWAP1 POP DUP2 DUP2 SUB PUSH1 0x0 DUP4 ADD MSTORE PUSH2 0x1AC4 DUP2 PUSH2 0x1A88 JUMP JUMPDEST SWAP1 POP SWAP2 SWAP1 POP JUMP JUMPDEST PUSH32 0x5265656E7472616E637947756172643A207265656E7472616E742063616C6C00 PUSH1 0x0 DUP3 ADD MSTORE POP JUMP JUMPDEST PUSH1 0x0 PUSH2 0x1B01 PUSH1 0x1F DUP4 PUSH2 0x1A4E JUMP JUMPDEST SWAP2 POP PUSH2 0x1B0C DUP3 PUSH2 0x1ACB JUMP JUMPDEST PUSH1 0x20 DUP3 ADD SWAP1 POP SWAP2 SWAP1 POP JUMP JUMPDEST PUSH1 0x0 PUSH1 0x20 DUP3 ADD SWAP1 POP DUP2 DUP2 SUB PUSH1 0x0 DUP4 ADD MSTORE PUSH2 0x1B30 DUP2 PUSH2 0x1AF4 JUMP JUMPDEST SWAP1 POP SWAP2 SWAP1 POP JUMP JUMPDEST PUSH1 0x0 PUSH1 0x60 DUP3 ADD SWAP1 POP PUSH2 0x1B4C PUSH1 0x0 DUP4 ADD DUP7 PUSH2 0x175C JUMP JUMPDEST PUSH2 0x1B59 PUSH1 0x20 DUP4 ADD DUP6 PUSH2 0x175C JUMP JUMPDEST PUSH2 0x1B66 PUSH1 0x40 DUP4 ADD DUP5 PUSH2 0x175C JUMP JUMPDEST SWAP5 SWAP4 POP POP POP POP JUMP JUMPDEST PUSH1 0x0 PUSH2 0x1B79 DUP3 PUSH2 0x1656 JUMP JUMPDEST SWAP2 POP PUSH2 0x1B84 DUP4 PUSH2 0x1656 JUMP JUMPDEST SWAP3 POP DUP3 DUP3 LT ISZERO PUSH2 0x1B97 JUMPI PUSH2 0x1B96 PUSH2 0x190F JUMP JUMPDEST JUMPDEST DUP3 DUP3 SUB SWAP1 POP SWAP3 SWAP2 POP POP JUMP JUMPDEST PUSH32 0x4F776E61626C653A206E6577206F776E657220697320746865207A65726F2061 PUSH1 0x0 DUP3 ADD MSTORE PUSH32 0x6464726573730000000000000000000000000000000000000000000000000000 PUSH1 0x20 DUP3 ADD MSTORE POP JUMP JUMPDEST PUSH1 0x0 PUSH2 0x1BFE PUSH1 0x26 DUP4 PUSH2 0x1A4E JUMP JUMPDEST SWAP2 POP PUSH2 0x1C09 DUP3 PUSH2 0x1BA2 JUMP JUMPDEST PUSH1 0x40 DUP3 ADD SWAP1 POP SWAP2 SWAP1 POP JUMP JUMPDEST PUSH1 0x0 PUSH1 0x20 DUP3 ADD SWAP1 POP DUP2 DUP2 SUB PUSH1 0x0 DUP4 ADD MSTORE PUSH2 0x1C2D DUP2 PUSH2 0x1BF1 JUMP JUMPDEST SWAP1 POP SWAP2 SWAP1 POP JUMP JUMPDEST PUSH1 0x0 PUSH1 0x40 DUP3 ADD SWAP1 POP PUSH2 0x1C49 PUSH1 0x0 DUP4 ADD DUP6 PUSH2 0x1856 JUMP JUMPDEST PUSH2 0x1C56 PUSH1 0x20 DUP4 ADD DUP5 PUSH2 0x175C JUMP JUMPDEST SWAP4 SWAP3 POP POP POP JUMP JUMPDEST PUSH1 0x0 PUSH1 0x60 DUP3 ADD SWAP1 POP PUSH2 0x1C72 PUSH1 0x0 DUP4 ADD DUP7 PUSH2 0x1856 JUMP JUMPDEST PUSH2 0x1C7F PUSH1 0x20 DUP4 ADD DUP6 PUSH2 0x1856 JUMP JUMPDEST PUSH2 0x1C8C PUSH1 0x40 DUP4 ADD DUP5 PUSH2 0x175C JUMP JUMPDEST SWAP5 SWAP4 POP POP POP POP JUMP JUMPDEST PUSH2 0x1C9D DUP2 PUSH2 0x18D9 JUMP JUMPDEST DUP2 EQ PUSH2 0x1CA8 JUMPI PUSH1 0x0 DUP1 REVERT JUMPDEST POP JUMP JUMPDEST PUSH1 0x0 DUP2 MLOAD SWAP1 POP PUSH2 0x1CBA DUP2 PUSH2 0x1C94 JUMP JUMPDEST SWAP3 SWAP2 POP POP JUMP JUMPDEST PUSH1 0x0 PUSH1 0x20 DUP3 DUP5 SUB SLT ISZERO PUSH2 0x1CD6 JUMPI PUSH2 0x1CD5 PUSH2 0x1786 JUMP JUMPDEST JUMPDEST PUSH1 0x0 PUSH2 0x1CE4 DUP5 DUP3 DUP6 ADD PUSH2 0x1CAB JUMP JUMPDEST SWAP2 POP POP SWAP3 SWAP2 POP POP JUMP JUMPDEST PUSH32 0x5361666545524332303A204552433230206F7065726174696F6E20646964206E PUSH1 0x0 DUP3 ADD MSTORE PUSH32 0x6F74207375636365656400000000000000000000000000000000000000000000 PUSH1 0x20 DUP3 ADD MSTORE POP JUMP JUMPDEST PUSH1 0x0 PUSH2 0x1D49 PUSH1 0x2A DUP4 PUSH2 0x1A4E JUMP JUMPDEST SWAP2 POP PUSH2 0x1D54 DUP3 PUSH2 0x1CED JUMP JUMPDEST PUSH1 0x40 DUP3 ADD SWAP1 POP SWAP2 SWAP1 POP JUMP JUMPDEST PUSH1 0x0 PUSH1 0x20 DUP3 ADD SWAP1 POP DUP2 DUP2 SUB PUSH1 0x0 DUP4 ADD MSTORE PUSH2 0x1D78 DUP2 PUSH2 0x1D3C JUMP JUMPDEST SWAP1 POP SWAP2 SWAP1 POP JUMP JUMPDEST PUSH32 0x416464726573733A20696E73756666696369656E742062616C616E636520666F PUSH1 0x0 DUP3 ADD MSTORE PUSH32 0x722063616C6C0000000000000000000000000000000000000000000000000000 PUSH1 0x20 DUP3 ADD MSTORE POP JUMP JUMPDEST PUSH1 0x0 PUSH2 0x1DDB PUSH1 0x26 DUP4 PUSH2 0x1A4E JUMP JUMPDEST SWAP2 POP PUSH2 0x1DE6 DUP3 PUSH2 0x1D7F JUMP JUMPDEST PUSH1 0x40 DUP3 ADD SWAP1 POP SWAP2 SWAP1 POP JUMP JUMPDEST PUSH1 0x0 PUSH1 0x20 DUP3 ADD SWAP1 POP DUP2 DUP2 SUB PUSH1 0x0 DUP4 ADD MSTORE PUSH2 0x1E0A DUP2 PUSH2 0x1DCE JUMP JUMPDEST SWAP1 POP SWAP2 SWAP1 POP JUMP JUMPDEST PUSH32 0x416464726573733A2063616C6C20746F206E6F6E2D636F6E7472616374000000 PUSH1 0x0 DUP3 ADD MSTORE POP JUMP JUMPDEST PUSH1 0x0 PUSH2 0x1E47 PUSH1 0x1D DUP4 PUSH2 0x1A4E JUMP JUMPDEST SWAP2 POP PUSH2 0x1E52 DUP3 PUSH2 0x1E11 JUMP JUMPDEST PUSH1 0x20 DUP3 ADD SWAP1 POP SWAP2 SWAP1 POP JUMP JUMPDEST PUSH1 0x0 PUSH1 0x20 DUP3 ADD SWAP1 POP DUP2 DUP2 SUB PUSH1 0x0 DUP4 ADD MSTORE PUSH2 0x1E76 DUP2 PUSH2 0x1E3A JUMP JUMPDEST SWAP1 POP SWAP2 SWAP1 POP JUMP JUMPDEST PUSH1 0x0 DUP2 MLOAD SWAP1 POP SWAP2 SWAP1 POP JUMP JUMPDEST PUSH1 0x0 DUP2 SWAP1 POP SWAP3 SWAP2 POP POP JUMP JUMPDEST PUSH1 0x0 JUMPDEST DUP4 DUP2 LT ISZERO PUSH2 0x1EB1 JUMPI DUP1 DUP3 ADD MLOAD DUP2 DUP5 ADD MSTORE PUSH1 0x20 DUP2 ADD SWAP1 POP PUSH2 0x1E96 JUMP JUMPDEST DUP4 DUP2 GT ISZERO PUSH2 0x1EC0 JUMPI PUSH1 0x0 DUP5 DUP5 ADD MSTORE JUMPDEST POP POP POP POP JUMP JUMPDEST PUSH1 0x0 PUSH2 0x1ED1 DUP3 PUSH2 0x1E7D JUMP JUMPDEST PUSH2 0x1EDB DUP2 DUP6 PUSH2 0x1E88 JUMP JUMPDEST SWAP4 POP PUSH2 0x1EEB DUP2 DUP6 PUSH1 0x20 DUP7 ADD PUSH2 0x1E93 JUMP JUMPDEST DUP1 DUP5 ADD SWAP2 POP POP SWAP3 SWAP2 POP POP JUMP JUMPDEST PUSH1 0x0 PUSH2 0x1F03 DUP3 DUP5 PUSH2 0x1EC6 JUMP JUMPDEST SWAP2 POP DUP2 SWAP1 POP SWAP3 SWAP2 POP POP JUMP JUMPDEST PUSH1 0x0 DUP2 MLOAD SWAP1 POP SWAP2 SWAP1 POP JUMP JUMPDEST PUSH1 0x0 PUSH1 0x1F NOT PUSH1 0x1F DUP4 ADD AND SWAP1 POP SWAP2 SWAP1 POP JUMP JUMPDEST PUSH1 0x0 PUSH2 0x1F35 DUP3 PUSH2 0x1F0E JUMP JUMPDEST PUSH2 0x1F3F DUP2 DUP6 PUSH2 0x1A4E JUMP JUMPDEST SWAP4 POP PUSH2 0x1F4F DUP2 DUP6 PUSH1 0x20 DUP7 ADD PUSH2 0x1E93 JUMP JUMPDEST PUSH2 0x1F58 DUP2 PUSH2 0x1F19 JUMP JUMPDEST DUP5 ADD SWAP2 POP POP SWAP3 SWAP2 POP POP JUMP JUMPDEST PUSH1 0x0 PUSH1 0x20 DUP3 ADD SWAP1 POP DUP2 DUP2 SUB PUSH1 0x0 DUP4 ADD MSTORE PUSH2 0x1F7D DUP2 DUP5 PUSH2 0x1F2A JUMP JUMPDEST SWAP1 POP SWAP3 SWAP2 POP POP JUMP INVALID LOG2 PUSH5 0x6970667358 0x22 SLT KECCAK256 0xDE CALLER 0x26 0xD9 0xB9 CALLDATASIZE MSTORE STATICCALL SWAP15 CALLDATASIZE STOP 0xC0 PUSH1 0xEC PUSH10 0x31BAEA4ADE6088A5316F EXTCODEHASH 0xEE PUSH11 0x1B3B2EA64736F6C634300 ADDMOD SIGNEXTEND STOP CALLER "
				},
				"gasEstimates": {
					"creation": {
						"codeDepositCost": "1624600",
						"executionCost": "infinite",
						"totalCost": "infinite"
					},
					"external": {
						"_blockTimestamp()": "358",
						"airdropRate()": "2474",
						"airdropSince()": "2518",
						"calculateWeek(uint256)": "infinite",
						"changeAirdropPercentage(uint256)": "infinite",
						"changePenaltyFee(uint256)": "infinite",
						"claimAirdrop()": "infinite",
						"hasStake()": "infinite",
						"owner()": "2633",
						"renounceOwnership()": "30464",
						"stake(uint256,uint256)": "infinite",
						"stakingPenaltyRate()": "2473",
						"startAirdrop()": "24563",
						"token_address()": "2603",
						"totalVoters()": "2497",
						"transferOwnership(address)": "30833",
						"votedUsers(uint256)": "infinite",
						"voters(address)": "2915",
						"withdrawStake()": "infinite"
					},
					"internal": {
						"_calculateAirdrop(uint256)": "infinite",
						"_calculateStakeReward(struct Staking.Stake memory)": "infinite",
						"_calculateStakingDuration(uint256)": "infinite",
						"_calculateStakingWithPenalty(uint256,uint256)": "infinite",
						"_checkVotingStatus()": "infinite",
						"_isVoter()": "infinite"
					}
				},
				"methodIdentifiers": {
					"_blockTimestamp()": "c63aa3e7",
					"airdropRate()": "8891cf0d",
					"airdropSince()": "b87da76d",
					"calculateWeek(uint256)": "b5d9df83",
					"changeAirdropPercentage(uint256)": "d5dbdf1b",
					"changePenaltyFee(uint256)": "8c63f97f",
					"claimAirdrop()": "5b88349d",
					"hasStake()": "10486b6a",
					"owner()": "8da5cb5b",
					"renounceOwnership()": "715018a6",
					"stake(uint256,uint256)": "7b0472f0",
					"stakingPenaltyRate()": "cb79c2e1",
					"startAirdrop()": "d2a569c3",
					"token_address()": "8c8e8fee",
					"totalVoters()": "5f5300ff",
					"transferOwnership(address)": "f2fde38b",
					"votedUsers(uint256)": "a143a5f2",
					"voters(address)": "a3ec138d",
					"withdrawStake()": "bed9d861"
				}
			},
			"storageLayout": {
				"storage": [
					{
						"astId": 115,
						"contract": "contracts/Stake-2.0.sol:Staking",
						"label": "_status",
						"offset": 0,
						"slot": "0",
						"type": "t_uint256"
					},
					{
						"astId": 7,
						"contract": "contracts/Stake-2.0.sol:Staking",
						"label": "_owner",
						"offset": 0,
						"slot": "1",
						"type": "t_address"
					},
					{
						"astId": 815,
						"contract": "contracts/Stake-2.0.sol:Staking",
						"label": "stakingPackage",
						"offset": 0,
						"slot": "2",
						"type": "t_mapping(t_uint256,t_uint256)"
					},
					{
						"astId": 817,
						"contract": "contracts/Stake-2.0.sol:Staking",
						"label": "stakingPenaltyRate",
						"offset": 0,
						"slot": "3",
						"type": "t_uint256"
					},
					{
						"astId": 819,
						"contract": "contracts/Stake-2.0.sol:Staking",
						"label": "airdropRate",
						"offset": 0,
						"slot": "4",
						"type": "t_uint256"
					},
					{
						"astId": 821,
						"contract": "contracts/Stake-2.0.sol:Staking",
						"label": "airdropSince",
						"offset": 0,
						"slot": "5",
						"type": "t_uint256"
					},
					{
						"astId": 823,
						"contract": "contracts/Stake-2.0.sol:Staking",
						"label": "_votingStatus",
						"offset": 0,
						"slot": "6",
						"type": "t_bool"
					},
					{
						"astId": 825,
						"contract": "contracts/Stake-2.0.sol:Staking",
						"label": "_votingId",
						"offset": 0,
						"slot": "7",
						"type": "t_uint256"
					},
					{
						"astId": 827,
						"contract": "contracts/Stake-2.0.sol:Staking",
						"label": "totalVoters",
						"offset": 0,
						"slot": "8",
						"type": "t_uint256"
					},
					{
						"astId": 832,
						"contract": "contracts/Stake-2.0.sol:Staking",
						"label": "voters",
						"offset": 0,
						"slot": "9",
						"type": "t_mapping(t_address,t_struct(Voter)811_storage)"
					},
					{
						"astId": 836,
						"contract": "contracts/Stake-2.0.sol:Staking",
						"label": "votedUsers",
						"offset": 0,
						"slot": "10",
						"type": "t_mapping(t_uint256,t_uint256)"
					},
					{
						"astId": 838,
						"contract": "contracts/Stake-2.0.sol:Staking",
						"label": "token_address",
						"offset": 0,
						"slot": "11",
						"type": "t_address"
					},
					{
						"astId": 903,
						"contract": "contracts/Stake-2.0.sol:Staking",
						"label": "stakeholders",
						"offset": 0,
						"slot": "12",
						"type": "t_mapping(t_address,t_struct(Stake)889_storage)"
					}
				],
				"types": {
					"t_address": {
						"encoding": "inplace",
						"label": "address",
						"numberOfBytes": "20"
					},
					"t_bool": {
						"encoding": "inplace",
						"label": "bool",
						"numberOfBytes": "1"
					},
					"t_mapping(t_address,t_struct(Stake)889_storage)": {
						"encoding": "mapping",
						"key": "t_address",
						"label": "mapping(address => struct Staking.Stake)",
						"numberOfBytes": "32",
						"value": "t_struct(Stake)889_storage"
					},
					"t_mapping(t_address,t_struct(Voter)811_storage)": {
						"encoding": "mapping",
						"key": "t_address",
						"label": "mapping(address => struct Staking.Voter)",
						"numberOfBytes": "32",
						"value": "t_struct(Voter)811_storage"
					},
					"t_mapping(t_uint256,t_bool)": {
						"encoding": "mapping",
						"key": "t_uint256",
						"label": "mapping(uint256 => bool)",
						"numberOfBytes": "32",
						"value": "t_bool"
					},
					"t_mapping(t_uint256,t_uint256)": {
						"encoding": "mapping",
						"key": "t_uint256",
						"label": "mapping(uint256 => uint256)",
						"numberOfBytes": "32",
						"value": "t_uint256"
					},
					"t_struct(Stake)889_storage": {
						"encoding": "inplace",
						"label": "struct Staking.Stake",
						"members": [
							{
								"astId": 876,
								"contract": "contracts/Stake-2.0.sol:Staking",
								"label": "amount",
								"offset": 0,
								"slot": "0",
								"type": "t_uint256"
							},
							{
								"astId": 878,
								"contract": "contracts/Stake-2.0.sol:Staking",
								"label": "since",
								"offset": 0,
								"slot": "1",
								"type": "t_uint256"
							},
							{
								"astId": 880,
								"contract": "contracts/Stake-2.0.sol:Staking",
								"label": "rewardAPY",
								"offset": 0,
								"slot": "2",
								"type": "t_uint256"
							},
							{
								"astId": 882,
								"contract": "contracts/Stake-2.0.sol:Staking",
								"label": "releaseTime",
								"offset": 0,
								"slot": "3",
								"type": "t_uint256"
							},
							{
								"astId": 884,
								"contract": "contracts/Stake-2.0.sol:Staking",
								"label": "claimable",
								"offset": 0,
								"slot": "4",
								"type": "t_uint256"
							},
							{
								"astId": 886,
								"contract": "contracts/Stake-2.0.sol:Staking",
								"label": "claimableAirdrop",
								"offset": 0,
								"slot": "5",
								"type": "t_uint256"
							},
							{
								"astId": 888,
								"contract": "contracts/Stake-2.0.sol:Staking",
								"label": "latestClaimDrop",
								"offset": 0,
								"slot": "6",
								"type": "t_uint256"
							}
						],
						"numberOfBytes": "224"
					},
					"t_struct(Voter)811_storage": {
						"encoding": "inplace",
						"label": "struct Staking.Voter",
						"members": [
							{
								"astId": 806,
								"contract": "contracts/Stake-2.0.sol:Staking",
								"label": "votingRight",
								"offset": 0,
								"slot": "0",
								"type": "t_bool"
							},
							{
								"astId": 810,
								"contract": "contracts/Stake-2.0.sol:Staking",
								"label": "voted",
								"offset": 0,
								"slot": "1",
								"type": "t_mapping(t_uint256,t_bool)"
							}
						],
						"numberOfBytes": "64"
					},
					"t_uint256": {
						"encoding": "inplace",
						"label": "uint256",
						"numberOfBytes": "32"
					}
				}
			},
			"userdoc": {
				"errors": {
					"Airdrop__claimableOnceAWeek()": [
						{
							"notice": "Error handling message for Airdrop functions"
						}
					]
				},
				"events": {
					"Staked(address,uint256,uint256,uint256)": {
						"notice": "Staked event is triggered whenever a user stakes tokens, address is indexed to make it filterable"
					}
				},
				"kind": "user",
				"methods": {
					"stake(uint256,uint256)": {
						"notice": "_Stake is used to make a stake for an sender. It will remove the amount staked from the stakers account and place those tokens inside a stake container StakeID"
					},
					"withdrawStake()": {
						"notice": "withdrawStake takes in an amount and a index of the stake and will remove tokens from that stake Notice index of the stake is the users stake counter, starting at 0 for the first stake Will return the amount to MINT onto the account Will also _calculateStakeReward and reset timer"
					}
				},
				"version": 1
			}
		}
	}
}