{
	"contracts/Lockable.sol": {
		"Lockable": {
			"abi": [
				{
					"inputs": [
						{
							"internalType": "uint256",
							"name": "amount_",
							"type": "uint256"
						},
						{
							"internalType": "address",
							"name": "beneficiary_",
							"type": "address"
						}
					],
					"stateMutability": "nonpayable",
					"type": "constructor"
				},
				{
					"inputs": [],
					"name": "beneficiary",
					"outputs": [
						{
							"internalType": "address",
							"name": "",
							"type": "address"
						}
					],
					"stateMutability": "view",
					"type": "function"
				},
				{
					"inputs": [],
					"name": "initiateLockedWallet",
					"outputs": [],
					"stateMutability": "nonpayable",
					"type": "function"
				},
				{
					"inputs": [
						{
							"internalType": "uint256[55]",
							"name": "amount_",
							"type": "uint256[55]"
						}
					],
					"name": "releaseClaimable",
					"outputs": [
						{
							"internalType": "uint256",
							"name": "",
							"type": "uint256"
						}
					],
					"stateMutability": "nonpayable",
					"type": "function"
				}
			],
			"devdoc": {
				"kind": "dev",
				"methods": {},
				"version": 1
			},
			"evm": {
				"assembly": "    /* \"contracts/Lockable.sol\":128:2237  contract Lockable {... */\n  mstore(0x40, 0xa0)\n    /* \"contracts/Lockable.sol\":397:597  constructor(uint256 amount_, address beneficiary_) {... */\n  callvalue\n  dup1\n  iszero\n  tag_1\n  jumpi\n  0x00\n  dup1\n  revert\ntag_1:\n  pop\n  mload(0x40)\n  sub(codesize, bytecodeSize)\n  dup1\n  bytecodeSize\n  dup4\n  codecopy\n  dup2\n  add\n  0x40\n  dup2\n  swap1\n  mstore\n  tag_2\n  swap2\n  tag_3\n  jump\t// in\ntag_2:\n    /* \"contracts/Lockable.sol\":459:466  _amount */\n  0x00\n    /* \"contracts/Lockable.sol\":459:476  _amount = amount_ */\n  swap2\n  swap1\n  swap2\n  sstore\n  sub(shl(0xa0, 0x01), 0x01)\n    /* \"contracts/Lockable.sol\":487:513  beneficiary = beneficiary_ */\n  and\n  0x80\n  mstore\n    /* \"contracts/Lockable.sol\":545:560  block.timestamp */\n  timestamp\n    /* \"contracts/Lockable.sol\":524:542  _startLockedWallet */\n  0x02\n    /* \"contracts/Lockable.sol\":524:560  _startLockedWallet = block.timestamp */\n  sstore\n    /* \"contracts/Lockable.sol\":571:576  owner */\n  0x01\n    /* \"contracts/Lockable.sol\":571:589  owner = msg.sender */\n  dup1\n  sload\n  not(sub(shl(0xa0, 0x01), 0x01))\n  and\n    /* \"contracts/Lockable.sol\":579:589  msg.sender */\n  caller\n    /* \"contracts/Lockable.sol\":571:589  owner = msg.sender */\n  or\n  swap1\n  sstore\n    /* \"contracts/Lockable.sol\":128:2237  contract Lockable {... */\n  jump(tag_7)\n    /* \"#utility.yul\":14:365   */\ntag_3:\n    /* \"#utility.yul\":93:99   */\n  0x00\n    /* \"#utility.yul\":101:107   */\n  dup1\n    /* \"#utility.yul\":154:156   */\n  0x40\n    /* \"#utility.yul\":142:151   */\n  dup4\n    /* \"#utility.yul\":133:140   */\n  dup6\n    /* \"#utility.yul\":129:152   */\n  sub\n    /* \"#utility.yul\":125:157   */\n  slt\n    /* \"#utility.yul\":122:174   */\n  iszero\n  tag_9\n  jumpi\n    /* \"#utility.yul\":170:171   */\n  0x00\n    /* \"#utility.yul\":167:168   */\n  dup1\n    /* \"#utility.yul\":160:172   */\n  revert\n    /* \"#utility.yul\":122:174   */\ntag_9:\n    /* \"#utility.yul\":193:209   */\n  dup3\n  mload\n    /* \"#utility.yul\":252:254   */\n  0x20\n    /* \"#utility.yul\":237:255   */\n  dup5\n  add\n    /* \"#utility.yul\":231:256   */\n  mload\n    /* \"#utility.yul\":193:209   */\n  swap1\n  swap3\n  pop\n  sub(shl(0xa0, 0x01), 0x01)\n    /* \"#utility.yul\":285:316   */\n  dup2\n  and\n    /* \"#utility.yul\":275:317   */\n  dup2\n  eq\n    /* \"#utility.yul\":265:335   */\n  tag_10\n  jumpi\n    /* \"#utility.yul\":331:332   */\n  0x00\n    /* \"#utility.yul\":328:329   */\n  dup1\n    /* \"#utility.yul\":321:333   */\n  revert\n    /* \"#utility.yul\":265:335   */\ntag_10:\n    /* \"#utility.yul\":354:359   */\n  dup1\n    /* \"#utility.yul\":344:359   */\n  swap2\n  pop\n  pop\n    /* \"#utility.yul\":14:365   */\n  swap3\n  pop\n  swap3\n  swap1\n  pop\n  jump\t// out\ntag_7:\n    /* \"contracts/Lockable.sol\":128:2237  contract Lockable {... */\n  mload(0x80)\n  codecopy(0x00, dataOffset(sub_0), dataSize(sub_0))\n  0x00\n  assignImmutable(\"0x813d1b11b8dd1556b28990a7c9be030b5a7cac9bde9a8342a13a89c68a3780b1\")\n  return(0x00, dataSize(sub_0))\nstop\n\nsub_0: assembly {\n        /* \"contracts/Lockable.sol\":128:2237  contract Lockable {... */\n      mstore(0x40, 0x80)\n      callvalue\n      dup1\n      iszero\n      tag_1\n      jumpi\n      0x00\n      dup1\n      revert\n    tag_1:\n      pop\n      jumpi(tag_2, lt(calldatasize, 0x04))\n      shr(0xe0, calldataload(0x00))\n      dup1\n      0x38af3eed\n      eq\n      tag_3\n      jumpi\n      dup1\n      0xc8cca41e\n      eq\n      tag_4\n      jumpi\n      dup1\n      0xe7d88c42\n      eq\n      tag_5\n      jumpi\n    tag_2:\n      0x00\n      dup1\n      revert\n        /* \"contracts/Lockable.sol\":267:303  address public immutable beneficiary */\n    tag_3:\n      tag_6\n      immutable(\"0x813d1b11b8dd1556b28990a7c9be030b5a7cac9bde9a8342a13a89c68a3780b1\")\n      dup2\n      jump\n    tag_6:\n      mload(0x40)\n        /* \"#utility.yul\":190:232   */\n      0xffffffffffffffffffffffffffffffffffffffff\n        /* \"#utility.yul\":178:233   */\n      swap1\n      swap2\n      and\n        /* \"#utility.yul\":160:234   */\n      dup2\n      mstore\n        /* \"#utility.yul\":148:150   */\n      0x20\n        /* \"#utility.yul\":133:151   */\n      add\n        /* \"contracts/Lockable.sol\":267:303  address public immutable beneficiary */\n    tag_8:\n      mload(0x40)\n      dup1\n      swap2\n      sub\n      swap1\n      return\n        /* \"contracts/Lockable.sol\":892:998  function initiateLockedWallet() external onlyTalax {... */\n    tag_4:\n      tag_10\n      tag_11\n      jump\t// in\n    tag_10:\n      stop\n        /* \"contracts/Lockable.sol\":1668:2234  function releaseClaimable(uint256[55] memory amount_)... */\n    tag_5:\n      tag_12\n      tag_13\n      calldatasize\n      0x04\n      tag_14\n      jump\t// in\n    tag_13:\n      tag_15\n      jump\t// in\n    tag_12:\n      mload(0x40)\n        /* \"#utility.yul\":1332:1357   */\n      swap1\n      dup2\n      mstore\n        /* \"#utility.yul\":1320:1322   */\n      0x20\n        /* \"#utility.yul\":1305:1323   */\n      add\n        /* \"contracts/Lockable.sol\":1668:2234  function releaseClaimable(uint256[55] memory amount_)... */\n      tag_8\n        /* \"#utility.yul\":1186:1363   */\n      jump\n        /* \"contracts/Lockable.sol\":892:998  function initiateLockedWallet() external onlyTalax {... */\n    tag_11:\n        /* \"contracts/Lockable.sol\":793:805  _onlyTalax() */\n      tag_19\n        /* \"contracts/Lockable.sol\":793:803  _onlyTalax */\n      tag_20\n        /* \"contracts/Lockable.sol\":793:805  _onlyTalax() */\n      jump\t// in\n    tag_19:\n        /* \"contracts/Lockable.sol\":975:990  block.timestamp */\n      timestamp\n        /* \"contracts/Lockable.sol\":954:972  _startLockedWallet */\n      0x02\n        /* \"contracts/Lockable.sol\":954:990  _startLockedWallet = block.timestamp */\n      sstore\n        /* \"contracts/Lockable.sol\":892:998  function initiateLockedWallet() external onlyTalax {... */\n      jump\t// out\n        /* \"contracts/Lockable.sol\":1668:2234  function releaseClaimable(uint256[55] memory amount_)... */\n    tag_15:\n        /* \"contracts/Lockable.sol\":1777:1784  uint256 */\n      0x00\n        /* \"contracts/Lockable.sol\":793:805  _onlyTalax() */\n      tag_23\n        /* \"contracts/Lockable.sol\":793:803  _onlyTalax */\n      tag_20\n        /* \"contracts/Lockable.sol\":793:805  _onlyTalax() */\n      jump\t// in\n    tag_23:\n        /* \"contracts/Lockable.sol\":1820:1821  0 */\n      0x00\n        /* \"contracts/Lockable.sol\":1810:1817  _amount */\n      dup1\n      sload\n        /* \"contracts/Lockable.sol\":1810:1821  _amount > 0 */\n      gt\n        /* \"contracts/Lockable.sol\":1802:1850  require(_amount > 0, \"Lockable: no tokens left\") */\n      tag_25\n      jumpi\n      mload(0x40)\n      shl(0xe5, 0x461bcd)\n      dup2\n      mstore\n        /* \"#utility.yul\":1570:1572   */\n      0x20\n        /* \"contracts/Lockable.sol\":1802:1850  require(_amount > 0, \"Lockable: no tokens left\") */\n      0x04\n      dup3\n      add\n        /* \"#utility.yul\":1552:1573   */\n      mstore\n        /* \"#utility.yul\":1609:1611   */\n      0x18\n        /* \"#utility.yul\":1589:1607   */\n      0x24\n      dup3\n      add\n        /* \"#utility.yul\":1582:1612   */\n      mstore\n        /* \"#utility.yul\":1648:1674   */\n      0x4c6f636b61626c653a206e6f20746f6b656e73206c6566740000000000000000\n        /* \"#utility.yul\":1628:1646   */\n      0x44\n      dup3\n      add\n        /* \"#utility.yul\":1621:1675   */\n      mstore\n        /* \"#utility.yul\":1692:1710   */\n      0x64\n      add\n        /* \"contracts/Lockable.sol\":1802:1850  require(_amount > 0, \"Lockable: no tokens left\") */\n    tag_26:\n      mload(0x40)\n      dup1\n      swap2\n      sub\n      swap1\n      revert\n    tag_25:\n        /* \"contracts/Lockable.sol\":1863:1892  uint256 claimableLockedAmount */\n      0x00\n        /* \"contracts/Lockable.sol\":1895:1929  _calculateClaimableAmount(amount_) */\n      tag_28\n        /* \"contracts/Lockable.sol\":1921:1928  amount_ */\n      dup4\n        /* \"contracts/Lockable.sol\":1895:1920  _calculateClaimableAmount */\n      tag_29\n        /* \"contracts/Lockable.sol\":1895:1929  _calculateClaimableAmount(amount_) */\n      jump\t// in\n    tag_28:\n        /* \"contracts/Lockable.sol\":1863:1929  uint256 claimableLockedAmount = _calculateClaimableAmount(amount_) */\n      swap1\n      pop\n        /* \"contracts/Lockable.sol\":1974:1975  0 */\n      0x00\n        /* \"contracts/Lockable.sol\":1950:1971  claimableLockedAmount */\n      dup2\n        /* \"contracts/Lockable.sol\":1950:1975  claimableLockedAmount > 0 */\n      gt\n        /* \"contracts/Lockable.sol\":1942:2010  require(claimableLockedAmount > 0, \"Lockable: no tokens to release\") */\n      tag_30\n      jumpi\n      mload(0x40)\n      shl(0xe5, 0x461bcd)\n      dup2\n      mstore\n        /* \"#utility.yul\":1923:1925   */\n      0x20\n        /* \"contracts/Lockable.sol\":1942:2010  require(claimableLockedAmount > 0, \"Lockable: no tokens to release\") */\n      0x04\n      dup3\n      add\n        /* \"#utility.yul\":1905:1926   */\n      mstore\n        /* \"#utility.yul\":1962:1964   */\n      0x1e\n        /* \"#utility.yul\":1942:1960   */\n      0x24\n      dup3\n      add\n        /* \"#utility.yul\":1935:1965   */\n      mstore\n        /* \"#utility.yul\":2001:2033   */\n      0x4c6f636b61626c653a206e6f20746f6b656e7320746f2072656c656173650000\n        /* \"#utility.yul\":1981:1999   */\n      0x44\n      dup3\n      add\n        /* \"#utility.yul\":1974:2034   */\n      mstore\n        /* \"#utility.yul\":2051:2069   */\n      0x64\n      add\n        /* \"contracts/Lockable.sol\":1942:2010  require(claimableLockedAmount > 0, \"Lockable: no tokens to release\") */\n      tag_26\n        /* \"#utility.yul\":1721:2075   */\n      jump\n        /* \"contracts/Lockable.sol\":1942:2010  require(claimableLockedAmount > 0, \"Lockable: no tokens to release\") */\n    tag_30:\n        /* \"contracts/Lockable.sol\":2033:2185  SafeMath.sub(... */\n      tag_33\n        /* \"contracts/Lockable.sol\":2060:2067  _amount */\n      sload(0x00)\n        /* \"contracts/Lockable.sol\":2082:2103  claimableLockedAmount */\n      dup3\n        /* \"contracts/Lockable.sol\":2033:2185  SafeMath.sub(... */\n      mload(0x40)\n      dup1\n      0x60\n      add\n      0x40\n      mstore\n      dup1\n      0x36\n      dup2\n      mstore\n      0x20\n      add\n      data_8c474225a34ee929fd7b1b389d200420d6fdd6f7ab81087d92b8172ed68739cb\n      0x36\n      swap2\n      codecopy\n        /* \"contracts/Lockable.sol\":2033:2045  SafeMath.sub */\n      tag_34\n        /* \"contracts/Lockable.sol\":2033:2185  SafeMath.sub(... */\n      jump\t// in\n    tag_33:\n        /* \"contracts/Lockable.sol\":2023:2030  _amount */\n      0x00\n        /* \"contracts/Lockable.sol\":2023:2185  _amount = SafeMath.sub(... */\n      sstore\n        /* \"contracts/Lockable.sol\":2205:2226  claimableLockedAmount */\n      swap3\n        /* \"contracts/Lockable.sol\":1668:2234  function releaseClaimable(uint256[55] memory amount_)... */\n      swap2\n      pop\n      pop\n      jump\t// out\n        /* \"contracts/Lockable.sol\":657:753  function _onlyTalax() internal view {... */\n    tag_20:\n        /* \"contracts/Lockable.sol\":726:731  owner */\n      and(0xffffffffffffffffffffffffffffffffffffffff, sload(0x01))\n        /* \"contracts/Lockable.sol\":712:722  msg.sender */\n      caller\n        /* \"contracts/Lockable.sol\":712:731  msg.sender == owner */\n      eq\n        /* \"contracts/Lockable.sol\":704:745  require(msg.sender == owner, \"Not owner\") */\n      tag_36\n      jumpi\n      mload(0x40)\n      shl(0xe5, 0x461bcd)\n      dup2\n      mstore\n        /* \"#utility.yul\":2282:2284   */\n      0x20\n        /* \"contracts/Lockable.sol\":704:745  require(msg.sender == owner, \"Not owner\") */\n      0x04\n      dup3\n      add\n        /* \"#utility.yul\":2264:2285   */\n      mstore\n        /* \"#utility.yul\":2321:2322   */\n      0x09\n        /* \"#utility.yul\":2301:2319   */\n      0x24\n      dup3\n      add\n        /* \"#utility.yul\":2294:2323   */\n      mstore\n        /* \"#utility.yul\":2359:2370   */\n      0x4e6f74206f776e65720000000000000000000000000000000000000000000000\n        /* \"#utility.yul\":2339:2357   */\n      0x44\n      dup3\n      add\n        /* \"#utility.yul\":2332:2371   */\n      mstore\n        /* \"#utility.yul\":2388:2406   */\n      0x64\n      add\n        /* \"contracts/Lockable.sol\":704:745  require(msg.sender == owner, \"Not owner\") */\n      tag_26\n        /* \"#utility.yul\":2080:2412   */\n      jump\n        /* \"contracts/Lockable.sol\":704:745  require(msg.sender == owner, \"Not owner\") */\n    tag_36:\n        /* \"contracts/Lockable.sol\":657:753  function _onlyTalax() internal view {... */\n      jump\t// out\n        /* \"contracts/Lockable.sol\":1109:1576  function _calculateClaimableAmount(uint256[55] memory amount_)... */\n    tag_29:\n        /* \"contracts/Lockable.sol\":1208:1215  uint256 */\n      0x00\n        /* \"contracts/Lockable.sol\":1233:1247  uint256 months */\n      dup1\n        /* \"contracts/Lockable.sol\":1291:1298  30 days */\n      0x278d00\n        /* \"contracts/Lockable.sol\":1269:1287  _startLockedWallet */\n      sload(0x02)\n        /* \"contracts/Lockable.sol\":1251:1266  block.timestamp */\n      timestamp\n        /* \"contracts/Lockable.sol\":1251:1287  block.timestamp - _startLockedWallet */\n      tag_40\n      swap2\n      swap1\n      tag_41\n      jump\t// in\n    tag_40:\n        /* \"contracts/Lockable.sol\":1250:1298  (block.timestamp - _startLockedWallet) / 30 days */\n      tag_42\n      swap2\n      swap1\n      tag_43\n      jump\t// in\n    tag_42:\n        /* \"contracts/Lockable.sol\":1356:1373  _latestClaimMonth */\n      sload(0x03)\n        /* \"contracts/Lockable.sol\":1233:1298  uint256 months = (block.timestamp - _startLockedWallet) / 30 days */\n      swap1\n      swap2\n      pop\n        /* \"contracts/Lockable.sol\":1309:1326  uint256 claimable */\n      0x00\n      swap1\n        /* \"contracts/Lockable.sol\":1339:1439  for (uint256 i = _latestClaimMonth; i <= 55; i++) {... */\n    tag_44:\n        /* \"contracts/Lockable.sol\":1380:1382  55 */\n      0x37\n        /* \"contracts/Lockable.sol\":1375:1376  i */\n      dup2\n        /* \"contracts/Lockable.sol\":1375:1382  i <= 55 */\n      gt\n        /* \"contracts/Lockable.sol\":1339:1439  for (uint256 i = _latestClaimMonth; i <= 55; i++) {... */\n      tag_45\n      jumpi\n        /* \"contracts/Lockable.sol\":1417:1424  amount_ */\n      dup5\n        /* \"contracts/Lockable.sol\":1425:1426  i */\n      dup2\n        /* \"contracts/Lockable.sol\":1417:1427  amount_[i] */\n      0x37\n      dup2\n      lt\n      tag_48\n      jumpi\n      tag_48\n      tag_49\n      jump\t// in\n    tag_48:\n      0x20\n      mul\n      add\n      mload\n        /* \"contracts/Lockable.sol\":1404:1427  claimable += amount_[i] */\n      tag_50\n      swap1\n      dup4\n      tag_51\n      jump\t// in\n    tag_50:\n      swap2\n      pop\n        /* \"contracts/Lockable.sol\":1384:1387  i++ */\n      dup1\n      tag_52\n      dup2\n      tag_53\n      jump\t// in\n    tag_52:\n      swap2\n      pop\n      pop\n        /* \"contracts/Lockable.sol\":1339:1439  for (uint256 i = _latestClaimMonth; i <= 55; i++) {... */\n      jump(tag_44)\n    tag_45:\n      pop\n        /* \"contracts/Lockable.sol\":1471:1481  months + 1 */\n      tag_54\n        /* \"contracts/Lockable.sol\":1471:1477  months */\n      dup3\n        /* \"contracts/Lockable.sol\":1480:1481  1 */\n      0x01\n        /* \"contracts/Lockable.sol\":1471:1481  months + 1 */\n      tag_51\n      jump\t// in\n    tag_54:\n        /* \"contracts/Lockable.sol\":1451:1468  _latestClaimMonth */\n      0x03\n        /* \"contracts/Lockable.sol\":1451:1481  _latestClaimMonth = months + 1 */\n      sstore\n        /* \"contracts/Lockable.sol\":1502:1516  claimable != 0 */\n      dup1\n        /* \"contracts/Lockable.sol\":1494:1541  require(claimable != 0, \"Nothing to claim yet\") */\n      tag_55\n      jumpi\n      mload(0x40)\n      shl(0xe5, 0x461bcd)\n      dup2\n      mstore\n        /* \"#utility.yul\":3679:3681   */\n      0x20\n        /* \"contracts/Lockable.sol\":1494:1541  require(claimable != 0, \"Nothing to claim yet\") */\n      0x04\n      dup3\n      add\n        /* \"#utility.yul\":3661:3682   */\n      mstore\n        /* \"#utility.yul\":3718:3720   */\n      0x14\n        /* \"#utility.yul\":3698:3716   */\n      0x24\n      dup3\n      add\n        /* \"#utility.yul\":3691:3721   */\n      mstore\n        /* \"#utility.yul\":3757:3779   */\n      0x4e6f7468696e6720746f20636c61696d20796574000000000000000000000000\n        /* \"#utility.yul\":3737:3755   */\n      0x44\n      dup3\n      add\n        /* \"#utility.yul\":3730:3780   */\n      mstore\n        /* \"#utility.yul\":3797:3815   */\n      0x64\n      add\n        /* \"contracts/Lockable.sol\":1494:1541  require(claimable != 0, \"Nothing to claim yet\") */\n      tag_26\n        /* \"#utility.yul\":3477:3821   */\n      jump\n        /* \"contracts/Lockable.sol\":1494:1541  require(claimable != 0, \"Nothing to claim yet\") */\n    tag_55:\n        /* \"contracts/Lockable.sol\":1559:1568  claimable */\n      swap4\n        /* \"contracts/Lockable.sol\":1109:1576  function _calculateClaimableAmount(uint256[55] memory amount_)... */\n      swap3\n      pop\n      pop\n      pop\n      jump\t// out\n        /* \"@openzeppelin/contracts/utils/math/SafeMath.sol\":4945:5176  function sub(... */\n    tag_34:\n        /* \"@openzeppelin/contracts/utils/math/SafeMath.sol\":5061:5068  uint256 */\n      0x00\n        /* \"@openzeppelin/contracts/utils/math/SafeMath.sol\":5120:5132  errorMessage */\n      dup2\n        /* \"@openzeppelin/contracts/utils/math/SafeMath.sol\":5112:5118  b <= a */\n      dup5\n      dup5\n      gt\n      iszero\n        /* \"@openzeppelin/contracts/utils/math/SafeMath.sol\":5104:5133  require(b <= a, errorMessage) */\n      tag_59\n      jumpi\n      mload(0x40)\n      shl(0xe5, 0x461bcd)\n      dup2\n      mstore\n      0x04\n      add\n      tag_26\n      swap2\n      swap1\n      tag_61\n      jump\t// in\n    tag_59:\n      pop\n      pop\n      pop\n        /* \"@openzeppelin/contracts/utils/math/SafeMath.sol\":5154:5159  a - b */\n      swap1\n      sub\n      swap1\n        /* \"@openzeppelin/contracts/utils/math/SafeMath.sol\":4945:5176  function sub(... */\n      jump\t// out\n        /* \"#utility.yul\":245:1181   */\n    tag_14:\n        /* \"#utility.yul\":328:334   */\n      0x00\n        /* \"#utility.yul\":359:363   */\n      0x06e0\n        /* \"#utility.yul\":404:406   */\n      dup1\n        /* \"#utility.yul\":392:401   */\n      dup4\n        /* \"#utility.yul\":383:390   */\n      dup6\n        /* \"#utility.yul\":379:402   */\n      sub\n        /* \"#utility.yul\":375:407   */\n      slt\n        /* \"#utility.yul\":372:424   */\n      iszero\n      tag_66\n      jumpi\n        /* \"#utility.yul\":420:421   */\n      0x00\n        /* \"#utility.yul\":417:418   */\n      dup1\n        /* \"#utility.yul\":410:422   */\n      revert\n        /* \"#utility.yul\":372:424   */\n    tag_66:\n        /* \"#utility.yul\":469:476   */\n      dup4\n        /* \"#utility.yul\":462:466   */\n      0x1f\n        /* \"#utility.yul\":451:460   */\n      dup5\n        /* \"#utility.yul\":447:467   */\n      add\n        /* \"#utility.yul\":443:477   */\n      slt\n        /* \"#utility.yul\":433:495   */\n      tag_67\n      jumpi\n        /* \"#utility.yul\":491:492   */\n      0x00\n        /* \"#utility.yul\":488:489   */\n      dup1\n        /* \"#utility.yul\":481:493   */\n      revert\n        /* \"#utility.yul\":433:495   */\n    tag_67:\n        /* \"#utility.yul\":524:526   */\n      0x40\n        /* \"#utility.yul\":518:527   */\n      mload\n        /* \"#utility.yul\":566:568   */\n      dup2\n        /* \"#utility.yul\":558:564   */\n      dup2\n        /* \"#utility.yul\":554:569   */\n      add\n        /* \"#utility.yul\":635:641   */\n      dup2\n        /* \"#utility.yul\":623:633   */\n      dup2\n        /* \"#utility.yul\":620:642   */\n      lt\n        /* \"#utility.yul\":599:617   */\n      0xffffffffffffffff\n        /* \"#utility.yul\":587:597   */\n      dup3\n        /* \"#utility.yul\":584:618   */\n      gt\n        /* \"#utility.yul\":581:643   */\n      or\n        /* \"#utility.yul\":578:820   */\n      iszero\n      tag_68\n      jumpi\n      shl(0xe0, 0x4e487b71)\n        /* \"#utility.yul\":673:674   */\n      0x00\n        /* \"#utility.yul\":666:754   */\n      mstore\n        /* \"#utility.yul\":777:781   */\n      0x41\n        /* \"#utility.yul\":774:775   */\n      0x04\n        /* \"#utility.yul\":767:782   */\n      mstore\n        /* \"#utility.yul\":805:809   */\n      0x24\n        /* \"#utility.yul\":802:803   */\n      0x00\n        /* \"#utility.yul\":795:810   */\n      revert\n        /* \"#utility.yul\":578:820   */\n    tag_68:\n        /* \"#utility.yul\":836:838   */\n      0x40\n        /* \"#utility.yul\":829:851   */\n      mstore\n        /* \"#utility.yul\":900:918   */\n      swap1\n      dup4\n      add\n      swap1\n        /* \"#utility.yul\":871:877   */\n      dup1\n        /* \"#utility.yul\":930:949   */\n      dup6\n      dup4\n      gt\n        /* \"#utility.yul\":927:966   */\n      iszero\n      tag_69\n      jumpi\n        /* \"#utility.yul\":962:963   */\n      0x00\n        /* \"#utility.yul\":959:960   */\n      dup1\n        /* \"#utility.yul\":952:964   */\n      revert\n        /* \"#utility.yul\":927:966   */\n    tag_69:\n        /* \"#utility.yul\":986:995   */\n      dup5\n        /* \"#utility.yul\":1004:1150   */\n    tag_70:\n        /* \"#utility.yul\":1020:1026   */\n      dup4\n        /* \"#utility.yul\":1015:1018   */\n      dup2\n        /* \"#utility.yul\":1012:1027   */\n      lt\n        /* \"#utility.yul\":1004:1150   */\n      iszero\n      tag_72\n      jumpi\n        /* \"#utility.yul\":1088:1105   */\n      dup1\n      calldataload\n        /* \"#utility.yul\":1076:1106   */\n      dup3\n      mstore\n        /* \"#utility.yul\":1135:1139   */\n      0x20\n        /* \"#utility.yul\":1126:1140   */\n      swap2\n      dup3\n      add\n      swap2\n        /* \"#utility.yul\":1037:1051   */\n      add\n        /* \"#utility.yul\":1004:1150   */\n      jump(tag_70)\n    tag_72:\n      pop\n        /* \"#utility.yul\":1169:1175   */\n      swap1\n      swap6\n        /* \"#utility.yul\":245:1181   */\n      swap5\n      pop\n      pop\n      pop\n      pop\n      pop\n      jump\t// out\n        /* \"#utility.yul\":2417:2601   */\n    tag_62:\n      shl(0xe0, 0x4e487b71)\n        /* \"#utility.yul\":2466:2467   */\n      0x00\n        /* \"#utility.yul\":2459:2547   */\n      mstore\n        /* \"#utility.yul\":2566:2570   */\n      0x11\n        /* \"#utility.yul\":2563:2564   */\n      0x04\n        /* \"#utility.yul\":2556:2571   */\n      mstore\n        /* \"#utility.yul\":2590:2594   */\n      0x24\n        /* \"#utility.yul\":2587:2588   */\n      0x00\n        /* \"#utility.yul\":2580:2595   */\n      revert\n        /* \"#utility.yul\":2606:2731   */\n    tag_41:\n        /* \"#utility.yul\":2646:2650   */\n      0x00\n        /* \"#utility.yul\":2674:2675   */\n      dup3\n        /* \"#utility.yul\":2671:2672   */\n      dup3\n        /* \"#utility.yul\":2668:2676   */\n      lt\n        /* \"#utility.yul\":2665:2699   */\n      iszero\n      tag_80\n      jumpi\n        /* \"#utility.yul\":2679:2697   */\n      tag_80\n      tag_62\n      jump\t// in\n    tag_80:\n      pop\n        /* \"#utility.yul\":2716:2725   */\n      sub\n      swap1\n        /* \"#utility.yul\":2606:2731   */\n      jump\t// out\n        /* \"#utility.yul\":2736:3010   */\n    tag_43:\n        /* \"#utility.yul\":2776:2777   */\n      0x00\n        /* \"#utility.yul\":2802:2803   */\n      dup3\n        /* \"#utility.yul\":2792:2981   */\n      tag_82\n      jumpi\n      shl(0xe0, 0x4e487b71)\n        /* \"#utility.yul\":2834:2835   */\n      0x00\n        /* \"#utility.yul\":2827:2915   */\n      mstore\n        /* \"#utility.yul\":2938:2942   */\n      0x12\n        /* \"#utility.yul\":2935:2936   */\n      0x04\n        /* \"#utility.yul\":2928:2943   */\n      mstore\n        /* \"#utility.yul\":2966:2970   */\n      0x24\n        /* \"#utility.yul\":2963:2964   */\n      0x00\n        /* \"#utility.yul\":2956:2971   */\n      revert\n        /* \"#utility.yul\":2792:2981   */\n    tag_82:\n      pop\n        /* \"#utility.yul\":2995:3004   */\n      div\n      swap1\n        /* \"#utility.yul\":2736:3010   */\n      jump\t// out\n        /* \"#utility.yul\":3015:3199   */\n    tag_49:\n      shl(0xe0, 0x4e487b71)\n        /* \"#utility.yul\":3064:3065   */\n      0x00\n        /* \"#utility.yul\":3057:3145   */\n      mstore\n        /* \"#utility.yul\":3164:3168   */\n      0x32\n        /* \"#utility.yul\":3161:3162   */\n      0x04\n        /* \"#utility.yul\":3154:3169   */\n      mstore\n        /* \"#utility.yul\":3188:3192   */\n      0x24\n        /* \"#utility.yul\":3185:3186   */\n      0x00\n        /* \"#utility.yul\":3178:3193   */\n      revert\n        /* \"#utility.yul\":3204:3332   */\n    tag_51:\n        /* \"#utility.yul\":3244:3247   */\n      0x00\n        /* \"#utility.yul\":3275:3276   */\n      dup3\n        /* \"#utility.yul\":3271:3277   */\n      not\n        /* \"#utility.yul\":3268:3269   */\n      dup3\n        /* \"#utility.yul\":3265:3278   */\n      gt\n        /* \"#utility.yul\":3262:3301   */\n      iszero\n      tag_86\n      jumpi\n        /* \"#utility.yul\":3281:3299   */\n      tag_86\n      tag_62\n      jump\t// in\n    tag_86:\n      pop\n        /* \"#utility.yul\":3317:3326   */\n      add\n      swap1\n        /* \"#utility.yul\":3204:3332   */\n      jump\t// out\n        /* \"#utility.yul\":3337:3472   */\n    tag_53:\n        /* \"#utility.yul\":3376:3379   */\n      0x00\n      not(0x00)\n        /* \"#utility.yul\":3397:3414   */\n      dup3\n      eq\n        /* \"#utility.yul\":3394:3437   */\n      iszero\n      tag_89\n      jumpi\n        /* \"#utility.yul\":3417:3435   */\n      tag_89\n      tag_62\n      jump\t// in\n    tag_89:\n      pop\n        /* \"#utility.yul\":3464:3465   */\n      0x01\n        /* \"#utility.yul\":3453:3466   */\n      add\n      swap1\n        /* \"#utility.yul\":3337:3472   */\n      jump\t// out\n        /* \"#utility.yul\":3826:4423   */\n    tag_61:\n        /* \"#utility.yul\":3938:3942   */\n      0x00\n        /* \"#utility.yul\":3967:3969   */\n      0x20\n        /* \"#utility.yul\":3996:3998   */\n      dup1\n        /* \"#utility.yul\":3985:3994   */\n      dup4\n        /* \"#utility.yul\":3978:3999   */\n      mstore\n        /* \"#utility.yul\":4028:4034   */\n      dup4\n        /* \"#utility.yul\":4022:4035   */\n      mload\n        /* \"#utility.yul\":4071:4077   */\n      dup1\n        /* \"#utility.yul\":4066:4068   */\n      dup3\n        /* \"#utility.yul\":4055:4064   */\n      dup6\n        /* \"#utility.yul\":4051:4069   */\n      add\n        /* \"#utility.yul\":4044:4078   */\n      mstore\n        /* \"#utility.yul\":4096:4097   */\n      0x00\n        /* \"#utility.yul\":4106:4246   */\n    tag_92:\n        /* \"#utility.yul\":4120:4126   */\n      dup2\n        /* \"#utility.yul\":4117:4118   */\n      dup2\n        /* \"#utility.yul\":4114:4127   */\n      lt\n        /* \"#utility.yul\":4106:4246   */\n      iszero\n      tag_94\n      jumpi\n        /* \"#utility.yul\":4215:4229   */\n      dup6\n      dup2\n      add\n        /* \"#utility.yul\":4211:4234   */\n      dup4\n      add\n        /* \"#utility.yul\":4205:4235   */\n      mload\n        /* \"#utility.yul\":4181:4198   */\n      dup6\n      dup3\n      add\n        /* \"#utility.yul\":4200:4202   */\n      0x40\n        /* \"#utility.yul\":4177:4203   */\n      add\n        /* \"#utility.yul\":4170:4236   */\n      mstore\n        /* \"#utility.yul\":4135:4145   */\n      dup3\n      add\n        /* \"#utility.yul\":4106:4246   */\n      jump(tag_92)\n    tag_94:\n        /* \"#utility.yul\":4264:4270   */\n      dup2\n        /* \"#utility.yul\":4261:4262   */\n      dup2\n        /* \"#utility.yul\":4258:4271   */\n      gt\n        /* \"#utility.yul\":4255:4346   */\n      iszero\n      tag_95\n      jumpi\n        /* \"#utility.yul\":4334:4335   */\n      0x00\n        /* \"#utility.yul\":4329:4331   */\n      0x40\n        /* \"#utility.yul\":4320:4326   */\n      dup4\n        /* \"#utility.yul\":4309:4318   */\n      dup8\n        /* \"#utility.yul\":4305:4327   */\n      add\n        /* \"#utility.yul\":4301:4332   */\n      add\n        /* \"#utility.yul\":4294:4336   */\n      mstore\n        /* \"#utility.yul\":4255:4346   */\n    tag_95:\n      pop\n        /* \"#utility.yul\":4407:4409   */\n      0x1f\n        /* \"#utility.yul\":4386:4401   */\n      add\n      not(0x1f)\n        /* \"#utility.yul\":4382:4411   */\n      and\n        /* \"#utility.yul\":4367:4412   */\n      swap3\n      swap1\n      swap3\n      add\n        /* \"#utility.yul\":4414:4416   */\n      0x40\n        /* \"#utility.yul\":4363:4417   */\n      add\n      swap4\n        /* \"#utility.yul\":3826:4423   */\n      swap3\n      pop\n      pop\n      pop\n      jump\t// out\n    stop\n    data_8c474225a34ee929fd7b1b389d200420d6fdd6f7ab81087d92b8172ed68739cb 4c6f636b61626c653a2043616e6e6f742073756273747261637420746f74616c20616d6f756e74207769746820636c61696d61626c65\n\n    auxdata: 0xa26469706673582212205bdc0a6f18e1b8f5ecbc68b8dd7f09012072097c28733265cd473062012fdb7964736f6c634300080b0033\n}\n",
				"bytecode": {
					"linkReferences": {},
					"object": "60a060405234801561001057600080fd5b506040516105b23803806105b283398101604081905261002f9161005c565b6000919091556001600160a01b031660805242600255600180546001600160a01b03191633179055610099565b6000806040838503121561006f57600080fd5b825160208401519092506001600160a01b038116811461008e57600080fd5b809150509250929050565b6080516104ff6100b36000396000604b01526104ff6000f3fe608060405234801561001057600080fd5b50600436106100415760003560e01c806338af3eed14610046578063c8cca41e14610097578063e7d88c42146100a1575b600080fd5b61006d7f000000000000000000000000000000000000000000000000000000000000000081565b60405173ffffffffffffffffffffffffffffffffffffffff90911681526020015b60405180910390f35b61009f6100c2565b005b6100b46100af366004610319565b6100d0565b60405190815260200161008e565b6100ca6101bb565b42600255565b60006100da6101bb565b60008054116101305760405162461bcd60e51b815260206004820152601860248201527f4c6f636b61626c653a206e6f20746f6b656e73206c656674000000000000000060448201526064015b60405180910390fd5b600061013b83610224565b90506000811161018d5760405162461bcd60e51b815260206004820152601e60248201527f4c6f636b61626c653a206e6f20746f6b656e7320746f2072656c6561736500006044820152606401610127565b6101b260005482604051806060016040528060368152602001610494603691396102ed565b60005592915050565b60015473ffffffffffffffffffffffffffffffffffffffff1633146102225760405162461bcd60e51b815260206004820152600960248201527f4e6f74206f776e657200000000000000000000000000000000000000000000006044820152606401610127565b565b60008062278d006002544261023991906103bc565b61024391906103d3565b6003549091506000905b6037811161028a57848160378110610267576102676103f5565b6020020151610276908361040b565b91508061028281610423565b91505061024d565b5061029682600161040b565b600355806102e65760405162461bcd60e51b815260206004820152601460248201527f4e6f7468696e6720746f20636c61696d207965740000000000000000000000006044820152606401610127565b9392505050565b600081848411156103115760405162461bcd60e51b8152600401610127919061043e565b505050900390565b60006106e080838503121561032d57600080fd5b83601f84011261033c57600080fd5b60405181810181811067ffffffffffffffff8211171561036c57634e487b7160e01b600052604160045260246000fd5b60405290830190808583111561038157600080fd5b845b8381101561039b578035825260209182019101610383565b509095945050505050565b634e487b7160e01b600052601160045260246000fd5b6000828210156103ce576103ce6103a6565b500390565b6000826103f057634e487b7160e01b600052601260045260246000fd5b500490565b634e487b7160e01b600052603260045260246000fd5b6000821982111561041e5761041e6103a6565b500190565b6000600019821415610437576104376103a6565b5060010190565b600060208083528351808285015260005b8181101561046b5785810183015185820160400152820161044f565b8181111561047d576000604083870101525b50601f01601f191692909201604001939250505056fe4c6f636b61626c653a2043616e6e6f742073756273747261637420746f74616c20616d6f756e74207769746820636c61696d61626c65a26469706673582212205bdc0a6f18e1b8f5ecbc68b8dd7f09012072097c28733265cd473062012fdb7964736f6c634300080b0033",
					"opcodes": "PUSH1 0xA0 PUSH1 0x40 MSTORE CALLVALUE DUP1 ISZERO PUSH2 0x10 JUMPI PUSH1 0x0 DUP1 REVERT JUMPDEST POP PUSH1 0x40 MLOAD PUSH2 0x5B2 CODESIZE SUB DUP1 PUSH2 0x5B2 DUP4 CODECOPY DUP2 ADD PUSH1 0x40 DUP2 SWAP1 MSTORE PUSH2 0x2F SWAP2 PUSH2 0x5C JUMP JUMPDEST PUSH1 0x0 SWAP2 SWAP1 SWAP2 SSTORE PUSH1 0x1 PUSH1 0x1 PUSH1 0xA0 SHL SUB AND PUSH1 0x80 MSTORE TIMESTAMP PUSH1 0x2 SSTORE PUSH1 0x1 DUP1 SLOAD PUSH1 0x1 PUSH1 0x1 PUSH1 0xA0 SHL SUB NOT AND CALLER OR SWAP1 SSTORE PUSH2 0x99 JUMP JUMPDEST PUSH1 0x0 DUP1 PUSH1 0x40 DUP4 DUP6 SUB SLT ISZERO PUSH2 0x6F JUMPI PUSH1 0x0 DUP1 REVERT JUMPDEST DUP3 MLOAD PUSH1 0x20 DUP5 ADD MLOAD SWAP1 SWAP3 POP PUSH1 0x1 PUSH1 0x1 PUSH1 0xA0 SHL SUB DUP2 AND DUP2 EQ PUSH2 0x8E JUMPI PUSH1 0x0 DUP1 REVERT JUMPDEST DUP1 SWAP2 POP POP SWAP3 POP SWAP3 SWAP1 POP JUMP JUMPDEST PUSH1 0x80 MLOAD PUSH2 0x4FF PUSH2 0xB3 PUSH1 0x0 CODECOPY PUSH1 0x0 PUSH1 0x4B ADD MSTORE PUSH2 0x4FF PUSH1 0x0 RETURN INVALID PUSH1 0x80 PUSH1 0x40 MSTORE CALLVALUE DUP1 ISZERO PUSH2 0x10 JUMPI PUSH1 0x0 DUP1 REVERT JUMPDEST POP PUSH1 0x4 CALLDATASIZE LT PUSH2 0x41 JUMPI PUSH1 0x0 CALLDATALOAD PUSH1 0xE0 SHR DUP1 PUSH4 0x38AF3EED EQ PUSH2 0x46 JUMPI DUP1 PUSH4 0xC8CCA41E EQ PUSH2 0x97 JUMPI DUP1 PUSH4 0xE7D88C42 EQ PUSH2 0xA1 JUMPI JUMPDEST PUSH1 0x0 DUP1 REVERT JUMPDEST PUSH2 0x6D PUSH32 0x0 DUP2 JUMP JUMPDEST PUSH1 0x40 MLOAD PUSH20 0xFFFFFFFFFFFFFFFFFFFFFFFFFFFFFFFFFFFFFFFF SWAP1 SWAP2 AND DUP2 MSTORE PUSH1 0x20 ADD JUMPDEST PUSH1 0x40 MLOAD DUP1 SWAP2 SUB SWAP1 RETURN JUMPDEST PUSH2 0x9F PUSH2 0xC2 JUMP JUMPDEST STOP JUMPDEST PUSH2 0xB4 PUSH2 0xAF CALLDATASIZE PUSH1 0x4 PUSH2 0x319 JUMP JUMPDEST PUSH2 0xD0 JUMP JUMPDEST PUSH1 0x40 MLOAD SWAP1 DUP2 MSTORE PUSH1 0x20 ADD PUSH2 0x8E JUMP JUMPDEST PUSH2 0xCA PUSH2 0x1BB JUMP JUMPDEST TIMESTAMP PUSH1 0x2 SSTORE JUMP JUMPDEST PUSH1 0x0 PUSH2 0xDA PUSH2 0x1BB JUMP JUMPDEST PUSH1 0x0 DUP1 SLOAD GT PUSH2 0x130 JUMPI PUSH1 0x40 MLOAD PUSH3 0x461BCD PUSH1 0xE5 SHL DUP2 MSTORE PUSH1 0x20 PUSH1 0x4 DUP3 ADD MSTORE PUSH1 0x18 PUSH1 0x24 DUP3 ADD MSTORE PUSH32 0x4C6F636B61626C653A206E6F20746F6B656E73206C6566740000000000000000 PUSH1 0x44 DUP3 ADD MSTORE PUSH1 0x64 ADD JUMPDEST PUSH1 0x40 MLOAD DUP1 SWAP2 SUB SWAP1 REVERT JUMPDEST PUSH1 0x0 PUSH2 0x13B DUP4 PUSH2 0x224 JUMP JUMPDEST SWAP1 POP PUSH1 0x0 DUP2 GT PUSH2 0x18D JUMPI PUSH1 0x40 MLOAD PUSH3 0x461BCD PUSH1 0xE5 SHL DUP2 MSTORE PUSH1 0x20 PUSH1 0x4 DUP3 ADD MSTORE PUSH1 0x1E PUSH1 0x24 DUP3 ADD MSTORE PUSH32 0x4C6F636B61626C653A206E6F20746F6B656E7320746F2072656C656173650000 PUSH1 0x44 DUP3 ADD MSTORE PUSH1 0x64 ADD PUSH2 0x127 JUMP JUMPDEST PUSH2 0x1B2 PUSH1 0x0 SLOAD DUP3 PUSH1 0x40 MLOAD DUP1 PUSH1 0x60 ADD PUSH1 0x40 MSTORE DUP1 PUSH1 0x36 DUP2 MSTORE PUSH1 0x20 ADD PUSH2 0x494 PUSH1 0x36 SWAP2 CODECOPY PUSH2 0x2ED JUMP JUMPDEST PUSH1 0x0 SSTORE SWAP3 SWAP2 POP POP JUMP JUMPDEST PUSH1 0x1 SLOAD PUSH20 0xFFFFFFFFFFFFFFFFFFFFFFFFFFFFFFFFFFFFFFFF AND CALLER EQ PUSH2 0x222 JUMPI PUSH1 0x40 MLOAD PUSH3 0x461BCD PUSH1 0xE5 SHL DUP2 MSTORE PUSH1 0x20 PUSH1 0x4 DUP3 ADD MSTORE PUSH1 0x9 PUSH1 0x24 DUP3 ADD MSTORE PUSH32 0x4E6F74206F776E65720000000000000000000000000000000000000000000000 PUSH1 0x44 DUP3 ADD MSTORE PUSH1 0x64 ADD PUSH2 0x127 JUMP JUMPDEST JUMP JUMPDEST PUSH1 0x0 DUP1 PUSH3 0x278D00 PUSH1 0x2 SLOAD TIMESTAMP PUSH2 0x239 SWAP2 SWAP1 PUSH2 0x3BC JUMP JUMPDEST PUSH2 0x243 SWAP2 SWAP1 PUSH2 0x3D3 JUMP JUMPDEST PUSH1 0x3 SLOAD SWAP1 SWAP2 POP PUSH1 0x0 SWAP1 JUMPDEST PUSH1 0x37 DUP2 GT PUSH2 0x28A JUMPI DUP5 DUP2 PUSH1 0x37 DUP2 LT PUSH2 0x267 JUMPI PUSH2 0x267 PUSH2 0x3F5 JUMP JUMPDEST PUSH1 0x20 MUL ADD MLOAD PUSH2 0x276 SWAP1 DUP4 PUSH2 0x40B JUMP JUMPDEST SWAP2 POP DUP1 PUSH2 0x282 DUP2 PUSH2 0x423 JUMP JUMPDEST SWAP2 POP POP PUSH2 0x24D JUMP JUMPDEST POP PUSH2 0x296 DUP3 PUSH1 0x1 PUSH2 0x40B JUMP JUMPDEST PUSH1 0x3 SSTORE DUP1 PUSH2 0x2E6 JUMPI PUSH1 0x40 MLOAD PUSH3 0x461BCD PUSH1 0xE5 SHL DUP2 MSTORE PUSH1 0x20 PUSH1 0x4 DUP3 ADD MSTORE PUSH1 0x14 PUSH1 0x24 DUP3 ADD MSTORE PUSH32 0x4E6F7468696E6720746F20636C61696D20796574000000000000000000000000 PUSH1 0x44 DUP3 ADD MSTORE PUSH1 0x64 ADD PUSH2 0x127 JUMP JUMPDEST SWAP4 SWAP3 POP POP POP JUMP JUMPDEST PUSH1 0x0 DUP2 DUP5 DUP5 GT ISZERO PUSH2 0x311 JUMPI PUSH1 0x40 MLOAD PUSH3 0x461BCD PUSH1 0xE5 SHL DUP2 MSTORE PUSH1 0x4 ADD PUSH2 0x127 SWAP2 SWAP1 PUSH2 0x43E JUMP JUMPDEST POP POP POP SWAP1 SUB SWAP1 JUMP JUMPDEST PUSH1 0x0 PUSH2 0x6E0 DUP1 DUP4 DUP6 SUB SLT ISZERO PUSH2 0x32D JUMPI PUSH1 0x0 DUP1 REVERT JUMPDEST DUP4 PUSH1 0x1F DUP5 ADD SLT PUSH2 0x33C JUMPI PUSH1 0x0 DUP1 REVERT JUMPDEST PUSH1 0x40 MLOAD DUP2 DUP2 ADD DUP2 DUP2 LT PUSH8 0xFFFFFFFFFFFFFFFF DUP3 GT OR ISZERO PUSH2 0x36C JUMPI PUSH4 0x4E487B71 PUSH1 0xE0 SHL PUSH1 0x0 MSTORE PUSH1 0x41 PUSH1 0x4 MSTORE PUSH1 0x24 PUSH1 0x0 REVERT JUMPDEST PUSH1 0x40 MSTORE SWAP1 DUP4 ADD SWAP1 DUP1 DUP6 DUP4 GT ISZERO PUSH2 0x381 JUMPI PUSH1 0x0 DUP1 REVERT JUMPDEST DUP5 JUMPDEST DUP4 DUP2 LT ISZERO PUSH2 0x39B JUMPI DUP1 CALLDATALOAD DUP3 MSTORE PUSH1 0x20 SWAP2 DUP3 ADD SWAP2 ADD PUSH2 0x383 JUMP JUMPDEST POP SWAP1 SWAP6 SWAP5 POP POP POP POP POP JUMP JUMPDEST PUSH4 0x4E487B71 PUSH1 0xE0 SHL PUSH1 0x0 MSTORE PUSH1 0x11 PUSH1 0x4 MSTORE PUSH1 0x24 PUSH1 0x0 REVERT JUMPDEST PUSH1 0x0 DUP3 DUP3 LT ISZERO PUSH2 0x3CE JUMPI PUSH2 0x3CE PUSH2 0x3A6 JUMP JUMPDEST POP SUB SWAP1 JUMP JUMPDEST PUSH1 0x0 DUP3 PUSH2 0x3F0 JUMPI PUSH4 0x4E487B71 PUSH1 0xE0 SHL PUSH1 0x0 MSTORE PUSH1 0x12 PUSH1 0x4 MSTORE PUSH1 0x24 PUSH1 0x0 REVERT JUMPDEST POP DIV SWAP1 JUMP JUMPDEST PUSH4 0x4E487B71 PUSH1 0xE0 SHL PUSH1 0x0 MSTORE PUSH1 0x32 PUSH1 0x4 MSTORE PUSH1 0x24 PUSH1 0x0 REVERT JUMPDEST PUSH1 0x0 DUP3 NOT DUP3 GT ISZERO PUSH2 0x41E JUMPI PUSH2 0x41E PUSH2 0x3A6 JUMP JUMPDEST POP ADD SWAP1 JUMP JUMPDEST PUSH1 0x0 PUSH1 0x0 NOT DUP3 EQ ISZERO PUSH2 0x437 JUMPI PUSH2 0x437 PUSH2 0x3A6 JUMP JUMPDEST POP PUSH1 0x1 ADD SWAP1 JUMP JUMPDEST PUSH1 0x0 PUSH1 0x20 DUP1 DUP4 MSTORE DUP4 MLOAD DUP1 DUP3 DUP6 ADD MSTORE PUSH1 0x0 JUMPDEST DUP2 DUP2 LT ISZERO PUSH2 0x46B JUMPI DUP6 DUP2 ADD DUP4 ADD MLOAD DUP6 DUP3 ADD PUSH1 0x40 ADD MSTORE DUP3 ADD PUSH2 0x44F JUMP JUMPDEST DUP2 DUP2 GT ISZERO PUSH2 0x47D JUMPI PUSH1 0x0 PUSH1 0x40 DUP4 DUP8 ADD ADD MSTORE JUMPDEST POP PUSH1 0x1F ADD PUSH1 0x1F NOT AND SWAP3 SWAP1 SWAP3 ADD PUSH1 0x40 ADD SWAP4 SWAP3 POP POP POP JUMP INVALID 0x4C PUSH16 0x636B61626C653A2043616E6E6F742073 PUSH22 0x6273747261637420746F74616C20616D6F756E742077 PUSH10 0x746820636C61696D6162 PUSH13 0x65A26469706673582212205BDC EXP PUSH16 0x18E1B8F5ECBC68B8DD7F09012072097C 0x28 PUSH20 0x3265CD473062012FDB7964736F6C634300080B00 CALLER "
				},
				"gasEstimates": {
					"creation": {
						"codeDepositCost": "255800",
						"executionCost": "infinite",
						"totalCost": "infinite"
					},
					"external": {
						"beneficiary()": "infinite",
						"initiateLockedWallet()": "24401",
						"releaseClaimable(uint256[55])": "infinite"
					},
					"internal": {
						"_calculateClaimableAmount(uint256[55] memory)": "infinite",
						"_onlyTalax()": "infinite"
					}
				},
				"methodIdentifiers": {
					"beneficiary()": "38af3eed",
					"initiateLockedWallet()": "c8cca41e",
					"releaseClaimable(uint256[55])": "e7d88c42"
				}
			},
			"storageLayout": {
				"storage": [
					{
						"astId": 316,
						"contract": "contracts/Lockable.sol:Lockable",
						"label": "_amount",
						"offset": 0,
						"slot": "0",
						"type": "t_uint256"
					},
					{
						"astId": 318,
						"contract": "contracts/Lockable.sol:Lockable",
						"label": "owner",
						"offset": 0,
						"slot": "1",
						"type": "t_address"
					},
					{
						"astId": 322,
						"contract": "contracts/Lockable.sol:Lockable",
						"label": "_startLockedWallet",
						"offset": 0,
						"slot": "2",
						"type": "t_uint256"
					},
					{
						"astId": 324,
						"contract": "contracts/Lockable.sol:Lockable",
						"label": "_latestClaimMonth",
						"offset": 0,
						"slot": "3",
						"type": "t_uint256"
					}
				],
				"types": {
					"t_address": {
						"encoding": "inplace",
						"label": "address",
						"numberOfBytes": "20"
					},
					"t_uint256": {
						"encoding": "inplace",
						"label": "uint256",
						"numberOfBytes": "32"
					}
				}
			},
			"userdoc": {
				"kind": "user",
				"methods": {
					"initiateLockedWallet()": {
						"notice": "Initiate Locked Wallet"
					},
					"releaseClaimable(uint256[55])": {
						"notice": "Transfers tokens held by timelock to beneficiary."
					}
				},
				"version": 1
			}
		}
	}
}