{
	"contracts/Whitelist.sol": {
		"Whitelist": {
			"abi": [
				{
					"inputs": [],
					"stateMutability": "nonpayable",
					"type": "constructor"
				},
				{
					"inputs": [
						{
							"internalType": "address",
							"name": "user",
							"type": "address"
						},
						{
							"internalType": "uint256",
							"name": "amount",
							"type": "uint256"
						}
					],
					"name": "addBeneficiary",
					"outputs": [],
					"stateMutability": "nonpayable",
					"type": "function"
				},
				{
					"inputs": [
						{
							"internalType": "address",
							"name": "user",
							"type": "address"
						}
					],
					"name": "beneficiary",
					"outputs": [
						{
							"internalType": "uint256",
							"name": "",
							"type": "uint256"
						},
						{
							"internalType": "uint256",
							"name": "",
							"type": "uint256"
						},
						{
							"internalType": "bool",
							"name": "",
							"type": "bool"
						},
						{
							"internalType": "uint256",
							"name": "",
							"type": "uint256"
						}
					],
					"stateMutability": "view",
					"type": "function"
				},
				{
					"inputs": [
						{
							"internalType": "address",
							"name": "talax",
							"type": "address"
						}
					],
					"name": "changeTalaxAddress",
					"outputs": [],
					"stateMutability": "nonpayable",
					"type": "function"
				},
				{
					"inputs": [
						{
							"internalType": "address",
							"name": "user",
							"type": "address"
						}
					],
					"name": "deleteBeneficiary",
					"outputs": [
						{
							"internalType": "uint256",
							"name": "",
							"type": "uint256"
						}
					],
					"stateMutability": "nonpayable",
					"type": "function"
				},
				{
					"inputs": [
						{
							"internalType": "address",
							"name": "user",
							"type": "address"
						}
					],
					"name": "hasWhitelist",
					"outputs": [
						{
							"components": [
								{
									"internalType": "uint256",
									"name": "lockedAmount",
									"type": "uint256"
								},
								{
									"internalType": "uint256",
									"name": "amount",
									"type": "uint256"
								},
								{
									"internalType": "bool",
									"name": "isPhase1Claimed",
									"type": "bool"
								},
								{
									"internalType": "uint256",
									"name": "latestClaimDay",
									"type": "uint256"
								}
							],
							"internalType": "struct Whitelist.WhitelistStruct",
							"name": "",
							"type": "tuple"
						}
					],
					"stateMutability": "view",
					"type": "function"
				},
				{
					"inputs": [],
					"name": "initiateWhitelist",
					"outputs": [],
					"stateMutability": "nonpayable",
					"type": "function"
				},
				{
					"inputs": [],
					"name": "privateSaleAmount",
					"outputs": [
						{
							"internalType": "uint256",
							"name": "",
							"type": "uint256"
						}
					],
					"stateMutability": "view",
					"type": "function"
				},
				{
					"inputs": [],
					"name": "privateSaleUsers",
					"outputs": [
						{
							"internalType": "uint256",
							"name": "",
							"type": "uint256"
						}
					],
					"stateMutability": "view",
					"type": "function"
				},
				{
					"inputs": [
						{
							"internalType": "address",
							"name": "user",
							"type": "address"
						}
					],
					"name": "releaseClaimable",
					"outputs": [
						{
							"internalType": "uint256",
							"name": "",
							"type": "uint256"
						}
					],
					"stateMutability": "nonpayable",
					"type": "function"
				},
				{
					"inputs": [],
					"name": "startPrivateSale",
					"outputs": [
						{
							"internalType": "uint256",
							"name": "",
							"type": "uint256"
						}
					],
					"stateMutability": "view",
					"type": "function"
				}
			],
			"devdoc": {
				"kind": "dev",
				"methods": {},
				"version": 1
			},
			"evm": {
				"assembly": "    /* \"contracts/Whitelist.sol\":123:5389  contract Whitelist {... */\n  mstore(0x40, 0x80)\n    /* \"contracts/Whitelist.sol\":718:821  constructor() {... */\n  callvalue\n  dup1\n  iszero\n  tag_1\n  jumpi\n  0x00\n  dup1\n  revert\ntag_1:\n  pop\n    /* \"contracts/Whitelist.sol\":762:779  1467900000 * 1e18 */\n  0x04be37ea7317415c45800000\n    /* \"contracts/Whitelist.sol\":742:759  privateSaleAmount */\n  0x01\n    /* \"contracts/Whitelist.sol\":742:779  privateSaleAmount = 1467900000 * 1e18 */\n  sstore\n    /* \"contracts/Whitelist.sol\":789:801  talaxAddress */\n  0x04\n    /* \"contracts/Whitelist.sol\":789:814  talaxAddress = msg.sender */\n  dup1\n  sload\n  not(sub(shl(0xa0, 0x01), 0x01))\n  and\n    /* \"contracts/Whitelist.sol\":804:814  msg.sender */\n  caller\n    /* \"contracts/Whitelist.sol\":789:814  talaxAddress = msg.sender */\n  or\n  swap1\n  sstore\n    /* \"contracts/Whitelist.sol\":123:5389  contract Whitelist {... */\n  dataSize(sub_0)\n  dup1\n  dataOffset(sub_0)\n  0x00\n  codecopy\n  0x00\n  return\nstop\n\nsub_0: assembly {\n        /* \"contracts/Whitelist.sol\":123:5389  contract Whitelist {... */\n      mstore(0x40, 0x80)\n      callvalue\n      dup1\n      iszero\n      tag_1\n      jumpi\n      0x00\n      dup1\n      revert\n    tag_1:\n      pop\n      jumpi(tag_2, lt(calldatasize, 0x04))\n      shr(0xe0, calldataload(0x00))\n      dup1\n      0x81008568\n      gt\n      tag_13\n      jumpi\n      dup1\n      0x8cdb7e8b\n      gt\n      tag_14\n      jumpi\n      dup1\n      0x8cdb7e8b\n      eq\n      tag_10\n      jumpi\n      dup1\n      0x96074e70\n      eq\n      tag_11\n      jumpi\n      dup1\n      0xefdd8796\n      eq\n      tag_12\n      jumpi\n      0x00\n      dup1\n      revert\n    tag_14:\n      dup1\n      0x81008568\n      eq\n      tag_8\n      jumpi\n      dup1\n      0x8b2b423a\n      eq\n      tag_9\n      jumpi\n      0x00\n      dup1\n      revert\n    tag_13:\n      dup1\n      0x338dbf59\n      gt\n      tag_15\n      jumpi\n      dup1\n      0x338dbf59\n      eq\n      tag_5\n      jumpi\n      dup1\n      0x549dee0b\n      eq\n      tag_6\n      jumpi\n      dup1\n      0x7d3bca76\n      eq\n      tag_7\n      jumpi\n      0x00\n      dup1\n      revert\n    tag_15:\n      dup1\n      0x5171f4\n      eq\n      tag_3\n      jumpi\n      dup1\n      0x1d77b00b\n      eq\n      tag_4\n      jumpi\n    tag_2:\n      0x00\n      dup1\n      revert\n        /* \"contracts/Whitelist.sol\":4884:5387  function releaseClaimable(address user)... */\n    tag_3:\n      tag_16\n      tag_17\n      calldatasize\n      0x04\n      tag_18\n      jump\t// in\n    tag_17:\n      tag_19\n      jump\t// in\n    tag_16:\n      mload(0x40)\n        /* \"#utility.yul\":552:577   */\n      swap1\n      dup2\n      mstore\n        /* \"#utility.yul\":540:542   */\n      0x20\n        /* \"#utility.yul\":525:543   */\n      add\n        /* \"contracts/Whitelist.sol\":4884:5387  function releaseClaimable(address user)... */\n    tag_20:\n      mload(0x40)\n      dup1\n      swap2\n      sub\n      swap1\n      return\n        /* \"contracts/Whitelist.sol\":1217:1316  function changeTalaxAddress(address talax) external onlyTalax {... */\n    tag_4:\n      tag_22\n      tag_23\n      calldatasize\n      0x04\n      tag_18\n      jump\t// in\n    tag_23:\n      tag_24\n      jump\t// in\n    tag_22:\n      stop\n        /* \"contracts/Whitelist.sol\":385:416  uint256 public startPrivateSale */\n    tag_5:\n      tag_16\n      sload(0x02)\n      dup2\n      jump\n        /* \"contracts/Whitelist.sol\":180:211  uint256 public privateSaleUsers */\n    tag_6:\n      tag_16\n      sload(0x00)\n      dup2\n      jump\n        /* \"contracts/Whitelist.sol\":4408:4797  function deleteBeneficiary(address user)... */\n    tag_7:\n      tag_16\n      tag_32\n      calldatasize\n      0x04\n      tag_18\n      jump\t// in\n    tag_32:\n      tag_33\n      jump\t// in\n        /* \"contracts/Whitelist.sol\":1322:1719  function beneficiary(address user)... */\n    tag_8:\n      tag_35\n      tag_36\n      calldatasize\n      0x04\n      tag_18\n      jump\t// in\n    tag_36:\n      sub(shl(0xa0, 0x01), 0x01)\n        /* \"contracts/Whitelist.sol\":1540:1558  _beneficiary[user] */\n      and\n        /* \"contracts/Whitelist.sol\":1417:1424  uint256 */\n      0x00\n        /* \"contracts/Whitelist.sol\":1540:1558  _beneficiary[user] */\n      swap1\n      dup2\n      mstore\n        /* \"contracts/Whitelist.sol\":1540:1552  _beneficiary */\n      0x03\n        /* \"contracts/Whitelist.sol\":1540:1558  _beneficiary[user] */\n      0x20\n      dup2\n      dup2\n      mstore\n      0x40\n      swap3\n      dup4\n      swap1\n      keccak256\n        /* \"contracts/Whitelist.sol\":1509:1558  WhitelistStruct memory benef = _beneficiary[user] */\n      dup4\n      mload\n      0x80\n      dup2\n      add\n      dup6\n      mstore\n      dup2\n      sload\n      dup1\n      dup3\n      mstore\n      0x01\n      dup4\n      add\n      sload\n      swap4\n      dup3\n      add\n      dup5\n      swap1\n      mstore\n      0x02\n      dup4\n      add\n      sload\n      0xff\n      and\n      iszero\n      iszero\n      swap6\n      dup3\n      add\n      dup7\n      swap1\n      mstore\n      swap2\n      swap1\n      swap4\n      add\n      sload\n      0x60\n      swap1\n      swap4\n      add\n      dup4\n      swap1\n      mstore\n      swap4\n      swap1\n      swap3\n      swap2\n      swap1\n        /* \"contracts/Whitelist.sol\":1322:1719  function beneficiary(address user)... */\n      jump\n    tag_35:\n      0x40\n      dup1\n      mload\n        /* \"#utility.yul\":813:838   */\n      swap5\n      dup6\n      mstore\n        /* \"#utility.yul\":869:871   */\n      0x20\n        /* \"#utility.yul\":854:872   */\n      dup6\n      add\n        /* \"#utility.yul\":847:881   */\n      swap4\n      swap1\n      swap4\n      mstore\n        /* \"#utility.yul\":924:938   */\n      swap1\n      iszero\n        /* \"#utility.yul\":917:939   */\n      iszero\n        /* \"#utility.yul\":897:915   */\n      swap2\n      dup4\n      add\n        /* \"#utility.yul\":890:940   */\n      swap2\n      swap1\n      swap2\n      mstore\n        /* \"#utility.yul\":971:973   */\n      0x60\n        /* \"#utility.yul\":956:974   */\n      dup3\n      add\n        /* \"#utility.yul\":949:983   */\n      mstore\n        /* \"#utility.yul\":800:803   */\n      0x80\n        /* \"#utility.yul\":785:804   */\n      add\n        /* \"contracts/Whitelist.sol\":1322:1719  function beneficiary(address user)... */\n      tag_20\n        /* \"#utility.yul\":588:989   */\n      jump\n        /* \"contracts/Whitelist.sol\":218:250  uint256 public privateSaleAmount */\n    tag_9:\n      tag_16\n      sload(0x01)\n      dup2\n      jump\n        /* \"contracts/Whitelist.sol\":1830:1983  function hasWhitelist(address user)... */\n    tag_10:\n      tag_43\n      tag_44\n      calldatasize\n      0x04\n      tag_18\n      jump\t// in\n    tag_44:\n      tag_45\n      jump\t// in\n    tag_43:\n      mload(0x40)\n      tag_20\n      swap2\n      swap1\n        /* \"#utility.yul\":1223:1236   */\n      dup2\n      mload\n        /* \"#utility.yul\":1205:1237   */\n      dup2\n      mstore\n        /* \"#utility.yul\":1293:1297   */\n      0x20\n        /* \"#utility.yul\":1281:1298   */\n      dup1\n      dup4\n      add\n        /* \"#utility.yul\":1275:1299   */\n      mload\n        /* \"#utility.yul\":1253:1273   */\n      swap1\n      dup3\n      add\n        /* \"#utility.yul\":1246:1300   */\n      mstore\n        /* \"#utility.yul\":1370:1374   */\n      0x40\n        /* \"#utility.yul\":1358:1375   */\n      dup1\n      dup4\n      add\n        /* \"#utility.yul\":1352:1376   */\n      mload\n        /* \"#utility.yul\":1345:1377   */\n      iszero\n        /* \"#utility.yul\":1338:1378   */\n      iszero\n        /* \"#utility.yul\":1316:1336   */\n      swap1\n      dup3\n      add\n        /* \"#utility.yul\":1309:1379   */\n      mstore\n        /* \"#utility.yul\":1435:1439   */\n      0x60\n        /* \"#utility.yul\":1423:1440   */\n      swap2\n      dup3\n      add\n        /* \"#utility.yul\":1417:1441   */\n      mload\n        /* \"#utility.yul\":1395:1415   */\n      swap2\n      dup2\n      add\n        /* \"#utility.yul\":1388:1442   */\n      swap2\n      swap1\n      swap2\n      mstore\n        /* \"#utility.yul\":1192:1195   */\n      0x80\n        /* \"#utility.yul\":1177:1196   */\n      add\n      swap1\n        /* \"#utility.yul\":994:1448   */\n      jump\n        /* \"contracts/Whitelist.sol\":3884:4402  function addBeneficiary(address user, uint256 amount)... */\n    tag_11:\n      tag_22\n      tag_49\n      calldatasize\n      0x04\n      tag_50\n      jump\t// in\n    tag_49:\n      tag_51\n      jump\t// in\n        /* \"contracts/Whitelist.sol\":1725:1824  function initiateWhitelist() external onlyTalax {... */\n    tag_12:\n      tag_22\n      tag_53\n      jump\t// in\n        /* \"contracts/Whitelist.sol\":4884:5387  function releaseClaimable(address user)... */\n    tag_19:\n        /* \"contracts/Whitelist.sol\":4976:4983  uint256 */\n      0x00\n        /* \"contracts/Whitelist.sol\":1075:1087  _onlyTalax() */\n      tag_55\n        /* \"contracts/Whitelist.sol\":1075:1085  _onlyTalax */\n      tag_56\n        /* \"contracts/Whitelist.sol\":1075:1087  _onlyTalax() */\n      jump\t// in\n    tag_55:\n      sub(shl(0xa0, 0x01), 0x01)\n        /* \"contracts/Whitelist.sol\":5007:5025  _beneficiary[user] */\n      dup3\n      and\n        /* \"contracts/Whitelist.sol\":5035:5036  0 */\n      0x00\n        /* \"contracts/Whitelist.sol\":5007:5025  _beneficiary[user] */\n      swap1\n      dup2\n      mstore\n        /* \"contracts/Whitelist.sol\":5007:5019  _beneficiary */\n      0x03\n        /* \"contracts/Whitelist.sol\":5007:5025  _beneficiary[user] */\n      0x20\n      mstore\n      0x40\n      swap1\n      keccak256\n        /* \"contracts/Whitelist.sol\":5007:5032  _beneficiary[user].amount */\n      0x01\n      add\n      sload\n        /* \"contracts/Whitelist.sol\":4999:5055  require(_beneficiary[user].amount > 0, \"No Tokens Left\") */\n      tag_58\n      jumpi\n      mload(0x40)\n      shl(0xe5, 0x461bcd)\n      dup2\n      mstore\n        /* \"#utility.yul\":1914:1916   */\n      0x20\n        /* \"contracts/Whitelist.sol\":4999:5055  require(_beneficiary[user].amount > 0, \"No Tokens Left\") */\n      0x04\n      dup3\n      add\n        /* \"#utility.yul\":1896:1917   */\n      mstore\n        /* \"#utility.yul\":1953:1955   */\n      0x0e\n        /* \"#utility.yul\":1933:1951   */\n      0x24\n      dup3\n      add\n        /* \"#utility.yul\":1926:1956   */\n      mstore\n        /* \"#utility.yul\":1992:2008   */\n      0x4e6f20546f6b656e73204c656674000000000000000000000000000000000000\n        /* \"#utility.yul\":1972:1990   */\n      0x44\n      dup3\n      add\n        /* \"#utility.yul\":1965:2009   */\n      mstore\n        /* \"#utility.yul\":2026:2044   */\n      0x64\n      add\n        /* \"contracts/Whitelist.sol\":4999:5055  require(_beneficiary[user].amount > 0, \"No Tokens Left\") */\n    tag_59:\n      mload(0x40)\n      dup1\n      swap2\n      sub\n      swap1\n      revert\n    tag_58:\n        /* \"contracts/Whitelist.sol\":5066:5095  uint256 claimableLockedAmount */\n      0x00\n        /* \"contracts/Whitelist.sol\":5098:5129  _calculateClaimableAmount(user) */\n      tag_61\n        /* \"contracts/Whitelist.sol\":5124:5128  user */\n      dup4\n        /* \"contracts/Whitelist.sol\":5098:5123  _calculateClaimableAmount */\n      tag_62\n        /* \"contracts/Whitelist.sol\":5098:5129  _calculateClaimableAmount(user) */\n      jump\t// in\n    tag_61:\n        /* \"contracts/Whitelist.sol\":5066:5129  uint256 claimableLockedAmount = _calculateClaimableAmount(user) */\n      swap1\n      pop\n        /* \"contracts/Whitelist.sol\":5172:5173  0 */\n      0x00\n        /* \"contracts/Whitelist.sol\":5148:5169  claimableLockedAmount */\n      dup2\n        /* \"contracts/Whitelist.sol\":5148:5173  claimableLockedAmount > 0 */\n      gt\n        /* \"contracts/Whitelist.sol\":5140:5206  require(claimableLockedAmount > 0, \"No Tokens to Release for Now\") */\n      tag_63\n      jumpi\n      mload(0x40)\n      shl(0xe5, 0x461bcd)\n      dup2\n      mstore\n        /* \"#utility.yul\":2257:2259   */\n      0x20\n        /* \"contracts/Whitelist.sol\":5140:5206  require(claimableLockedAmount > 0, \"No Tokens to Release for Now\") */\n      0x04\n      dup3\n      add\n        /* \"#utility.yul\":2239:2260   */\n      mstore\n        /* \"#utility.yul\":2296:2298   */\n      0x1c\n        /* \"#utility.yul\":2276:2294   */\n      0x24\n      dup3\n      add\n        /* \"#utility.yul\":2269:2299   */\n      mstore\n        /* \"#utility.yul\":2335:2365   */\n      0x4e6f20546f6b656e7320746f2052656c6561736520666f72204e6f7700000000\n        /* \"#utility.yul\":2315:2333   */\n      0x44\n      dup3\n      add\n        /* \"#utility.yul\":2308:2366   */\n      mstore\n        /* \"#utility.yul\":2383:2401   */\n      0x64\n      add\n        /* \"contracts/Whitelist.sol\":5140:5206  require(claimableLockedAmount > 0, \"No Tokens to Release for Now\") */\n      tag_59\n        /* \"#utility.yul\":2055:2407   */\n      jump\n        /* \"contracts/Whitelist.sol\":5140:5206  require(claimableLockedAmount > 0, \"No Tokens to Release for Now\") */\n    tag_63:\n      sub(shl(0xa0, 0x01), 0x01)\n        /* \"contracts/Whitelist.sol\":5271:5289  _beneficiary[user] */\n      dup4\n      and\n      0x00\n      swap1\n      dup2\n      mstore\n        /* \"contracts/Whitelist.sol\":5271:5283  _beneficiary */\n      0x03\n        /* \"contracts/Whitelist.sol\":5271:5289  _beneficiary[user] */\n      0x20\n      mstore\n      0x40\n      swap1\n      keccak256\n        /* \"contracts/Whitelist.sol\":5271:5296  _beneficiary[user].amount */\n      0x01\n      add\n      sload\n        /* \"contracts/Whitelist.sol\":5245:5341  SafeMath.sub(... */\n      tag_66\n      swap1\n        /* \"contracts/Whitelist.sol\":5310:5331  claimableLockedAmount */\n      dup3\n        /* \"contracts/Whitelist.sol\":5245:5257  SafeMath.sub */\n      tag_67\n        /* \"contracts/Whitelist.sol\":5245:5341  SafeMath.sub(... */\n      jump\t// in\n    tag_66:\n      sub(shl(0xa0, 0x01), 0x01)\n        /* \"contracts/Whitelist.sol\":5217:5235  _beneficiary[user] */\n      dup5\n      and\n      0x00\n      swap1\n      dup2\n      mstore\n        /* \"contracts/Whitelist.sol\":5217:5229  _beneficiary */\n      0x03\n        /* \"contracts/Whitelist.sol\":5217:5235  _beneficiary[user] */\n      0x20\n      mstore\n      0x40\n      swap1\n      keccak256\n        /* \"contracts/Whitelist.sol\":5217:5242  _beneficiary[user].amount */\n      0x01\n      add\n        /* \"contracts/Whitelist.sol\":5217:5341  _beneficiary[user].amount = SafeMath.sub(... */\n      sstore\n        /* \"contracts/Whitelist.sol\":5359:5380  claimableLockedAmount */\n      swap1\n      pop\n        /* \"contracts/Whitelist.sol\":1097:1098  _ */\n    tag_57:\n        /* \"contracts/Whitelist.sol\":4884:5387  function releaseClaimable(address user)... */\n      swap2\n      swap1\n      pop\n      jump\t// out\n        /* \"contracts/Whitelist.sol\":1217:1316  function changeTalaxAddress(address talax) external onlyTalax {... */\n    tag_24:\n        /* \"contracts/Whitelist.sol\":1075:1087  _onlyTalax() */\n      tag_69\n        /* \"contracts/Whitelist.sol\":1075:1085  _onlyTalax */\n      tag_56\n        /* \"contracts/Whitelist.sol\":1075:1087  _onlyTalax() */\n      jump\t// in\n    tag_69:\n        /* \"contracts/Whitelist.sol\":1289:1301  talaxAddress */\n      0x04\n        /* \"contracts/Whitelist.sol\":1289:1309  talaxAddress = talax */\n      dup1\n      sload\n      0xffffffffffffffffffffffff0000000000000000000000000000000000000000\n      and\n      sub(shl(0xa0, 0x01), 0x01)\n      swap3\n      swap1\n      swap3\n      and\n      swap2\n      swap1\n      swap2\n      or\n      swap1\n      sstore\n        /* \"contracts/Whitelist.sol\":1217:1316  function changeTalaxAddress(address talax) external onlyTalax {... */\n      jump\t// out\n        /* \"contracts/Whitelist.sol\":4408:4797  function deleteBeneficiary(address user)... */\n    tag_33:\n        /* \"contracts/Whitelist.sol\":4501:4508  uint256 */\n      0x00\n        /* \"contracts/Whitelist.sol\":1075:1087  _onlyTalax() */\n      tag_72\n        /* \"contracts/Whitelist.sol\":1075:1085  _onlyTalax */\n      tag_56\n        /* \"contracts/Whitelist.sol\":1075:1087  _onlyTalax() */\n      jump\t// in\n    tag_72:\n      sub(shl(0xa0, 0x01), 0x01)\n        /* \"contracts/Whitelist.sol\":4532:4550  _beneficiary[user] */\n      dup3\n      and\n      0x00\n      swap1\n      dup2\n      mstore\n        /* \"contracts/Whitelist.sol\":4532:4544  _beneficiary */\n      0x03\n        /* \"contracts/Whitelist.sol\":4532:4550  _beneficiary[user] */\n      0x20\n      mstore\n      0x40\n      swap1\n      keccak256\n        /* \"contracts/Whitelist.sol\":4532:4557  _beneficiary[user].amount */\n      0x01\n      add\n      sload\n        /* \"contracts/Whitelist.sol\":4524:4586  require(_beneficiary[user].amount != 0, \"User not Registered\") */\n      tag_74\n      jumpi\n      mload(0x40)\n      shl(0xe5, 0x461bcd)\n      dup2\n      mstore\n        /* \"#utility.yul\":2614:2616   */\n      0x20\n        /* \"contracts/Whitelist.sol\":4524:4586  require(_beneficiary[user].amount != 0, \"User not Registered\") */\n      0x04\n      dup3\n      add\n        /* \"#utility.yul\":2596:2617   */\n      mstore\n        /* \"#utility.yul\":2653:2655   */\n      0x13\n        /* \"#utility.yul\":2633:2651   */\n      0x24\n      dup3\n      add\n        /* \"#utility.yul\":2626:2656   */\n      mstore\n        /* \"#utility.yul\":2692:2713   */\n      0x55736572206e6f74205265676973746572656400000000000000000000000000\n        /* \"#utility.yul\":2672:2690   */\n      0x44\n      dup3\n      add\n        /* \"#utility.yul\":2665:2714   */\n      mstore\n        /* \"#utility.yul\":2731:2749   */\n      0x64\n      add\n        /* \"contracts/Whitelist.sol\":4524:4586  require(_beneficiary[user].amount != 0, \"User not Registered\") */\n      tag_59\n        /* \"#utility.yul\":2412:2755   */\n      jump\n        /* \"contracts/Whitelist.sol\":4524:4586  require(_beneficiary[user].amount != 0, \"User not Registered\") */\n    tag_74:\n        /* \"contracts/Whitelist.sol\":4616:4617  1 */\n      0x01\n        /* \"contracts/Whitelist.sol\":4596:4612  privateSaleUsers */\n      0x00\n      dup1\n        /* \"contracts/Whitelist.sol\":4596:4617  privateSaleUsers -= 1 */\n      dup3\n      dup3\n      sload\n      tag_77\n      swap2\n      swap1\n      tag_78\n      jump\t// in\n    tag_77:\n      swap1\n      swap2\n      sstore\n      pop\n      pop\n      sub(shl(0xa0, 0x01), 0x01)\n        /* \"contracts/Whitelist.sol\":4648:4666  _beneficiary[user] */\n      dup3\n      and\n      0x00\n      swap1\n      dup2\n      mstore\n        /* \"contracts/Whitelist.sol\":4648:4660  _beneficiary */\n      0x03\n        /* \"contracts/Whitelist.sol\":4648:4666  _beneficiary[user] */\n      0x20\n      mstore\n      0x40\n      dup2\n      keccak256\n        /* \"contracts/Whitelist.sol\":4648:4673  _beneficiary[user].amount */\n      0x01\n      swap1\n      dup2\n      add\n      sload\n        /* \"contracts/Whitelist.sol\":4627:4673  privateSaleAmount += _beneficiary[user].amount */\n      dup2\n      sload\n        /* \"contracts/Whitelist.sol\":4648:4673  _beneficiary[user].amount */\n      swap1\n      swap3\n        /* \"contracts/Whitelist.sol\":4648:4666  _beneficiary[user] */\n      swap1\n        /* \"contracts/Whitelist.sol\":4627:4673  privateSaleAmount += _beneficiary[user].amount */\n      tag_79\n      swap1\n        /* \"contracts/Whitelist.sol\":4648:4673  _beneficiary[user].amount */\n      dup5\n      swap1\n        /* \"contracts/Whitelist.sol\":4627:4673  privateSaleAmount += _beneficiary[user].amount */\n      tag_80\n      jump\t// in\n    tag_79:\n      swap1\n      swap2\n      sstore\n      pop\n      pop\n      pop\n      sub(shl(0xa0, 0x01), 0x01)\n        /* \"contracts/Whitelist.sol\":4703:4721  _beneficiary[user] */\n      and\n        /* \"contracts/Whitelist.sol\":4683:4700  uint256 ex_amount */\n      0x00\n        /* \"contracts/Whitelist.sol\":4703:4721  _beneficiary[user] */\n      swap1\n      dup2\n      mstore\n        /* \"contracts/Whitelist.sol\":4703:4715  _beneficiary */\n      0x03\n        /* \"contracts/Whitelist.sol\":4703:4721  _beneficiary[user] */\n      0x20\n      dup2\n      swap1\n      mstore\n      0x40\n      dup3\n      keccak256\n        /* \"contracts/Whitelist.sol\":4703:4728  _beneficiary[user].amount */\n      0x01\n      dup2\n      add\n      dup1\n      sload\n        /* \"contracts/Whitelist.sol\":4739:4764  delete _beneficiary[user] */\n      dup5\n      dup4\n      sstore\n      swap1\n      dup5\n      swap1\n      sstore\n      0x02\n      dup3\n      add\n      dup1\n      sload\n      not(0xff)\n      and\n      swap1\n      sstore\n      swap2\n      add\n      swap2\n      swap1\n      swap2\n      sstore\n        /* \"contracts/Whitelist.sol\":4703:4728  _beneficiary[user].amount */\n      swap1\n        /* \"contracts/Whitelist.sol\":4408:4797  function deleteBeneficiary(address user)... */\n      jump\t// out\n        /* \"contracts/Whitelist.sol\":1830:1983  function hasWhitelist(address user)... */\n    tag_45:\n        /* \"contracts/Whitelist.sol\":1913:1935  WhitelistStruct memory */\n      tag_82\n      mload(0x40)\n      dup1\n      0x80\n      add\n      0x40\n      mstore\n      dup1\n      0x00\n      dup2\n      mstore\n      0x20\n      add\n      0x00\n      dup2\n      mstore\n      0x20\n      add\n      iszero(iszero(0x00))\n      dup2\n      mstore\n      0x20\n      add\n      0x00\n      dup2\n      mstore\n      pop\n      swap1\n      jump\n    tag_82:\n      pop\n      sub(shl(0xa0, 0x01), 0x01)\n        /* \"contracts/Whitelist.sol\":1958:1976  _beneficiary[user] */\n      and\n      0x00\n      swap1\n      dup2\n      mstore\n        /* \"contracts/Whitelist.sol\":1958:1970  _beneficiary */\n      0x03\n        /* \"contracts/Whitelist.sol\":1958:1976  _beneficiary[user] */\n      0x20\n      dup2\n      dup2\n      mstore\n      0x40\n      swap3\n      dup4\n      swap1\n      keccak256\n        /* \"contracts/Whitelist.sol\":1951:1976  return _beneficiary[user] */\n      dup4\n      mload\n      0x80\n      dup2\n      add\n      dup6\n      mstore\n      dup2\n      sload\n      dup2\n      mstore\n      0x01\n      dup3\n      add\n      sload\n      swap3\n      dup2\n      add\n      swap3\n      swap1\n      swap3\n      mstore\n      0x02\n      dup2\n      add\n      sload\n      0xff\n      and\n      iszero\n      iszero\n      swap4\n      dup3\n      add\n      swap4\n      swap1\n      swap4\n      mstore\n      swap2\n      add\n      sload\n      0x60\n      dup3\n      add\n      mstore\n      swap1\n        /* \"contracts/Whitelist.sol\":1830:1983  function hasWhitelist(address user)... */\n      jump\t// out\n        /* \"contracts/Whitelist.sol\":3884:4402  function addBeneficiary(address user, uint256 amount)... */\n    tag_51:\n        /* \"contracts/Whitelist.sol\":1075:1087  _onlyTalax() */\n      tag_86\n        /* \"contracts/Whitelist.sol\":1075:1085  _onlyTalax */\n      tag_56\n        /* \"contracts/Whitelist.sol\":1075:1087  _onlyTalax() */\n      jump\t// in\n    tag_86:\n        /* \"contracts/Whitelist.sol\":4005:4022  privateSaleAmount */\n      sload(0x01)\n        /* \"contracts/Whitelist.sol\":3995:4001  amount */\n      dup2\n        /* \"contracts/Whitelist.sol\":3995:4022  amount <= privateSaleAmount */\n      gt\n      iszero\n        /* \"contracts/Whitelist.sol\":3987:4053  require(amount <= privateSaleAmount, \"Insufficient Total Balance\") */\n      tag_88\n      jumpi\n      mload(0x40)\n      shl(0xe5, 0x461bcd)\n      dup2\n      mstore\n        /* \"#utility.yul\":3414:3416   */\n      0x20\n        /* \"contracts/Whitelist.sol\":3987:4053  require(amount <= privateSaleAmount, \"Insufficient Total Balance\") */\n      0x04\n      dup3\n      add\n        /* \"#utility.yul\":3396:3417   */\n      mstore\n        /* \"#utility.yul\":3453:3455   */\n      0x1a\n        /* \"#utility.yul\":3433:3451   */\n      0x24\n      dup3\n      add\n        /* \"#utility.yul\":3426:3456   */\n      mstore\n        /* \"#utility.yul\":3492:3520   */\n      0x496e73756666696369656e7420546f74616c2042616c616e6365000000000000\n        /* \"#utility.yul\":3472:3490   */\n      0x44\n      dup3\n      add\n        /* \"#utility.yul\":3465:3521   */\n      mstore\n        /* \"#utility.yul\":3538:3556   */\n      0x64\n      add\n        /* \"contracts/Whitelist.sol\":3987:4053  require(amount <= privateSaleAmount, \"Insufficient Total Balance\") */\n      tag_59\n        /* \"#utility.yul\":3212:3562   */\n      jump\n        /* \"contracts/Whitelist.sol\":3987:4053  require(amount <= privateSaleAmount, \"Insufficient Total Balance\") */\n    tag_88:\n      sub(shl(0xa0, 0x01), 0x01)\n        /* \"contracts/Whitelist.sol\":4071:4089  _beneficiary[user] */\n      dup3\n      and\n      0x00\n      swap1\n      dup2\n      mstore\n        /* \"contracts/Whitelist.sol\":4071:4083  _beneficiary */\n      0x03\n        /* \"contracts/Whitelist.sol\":4071:4089  _beneficiary[user] */\n      0x20\n      mstore\n      0x40\n      swap1\n      keccak256\n        /* \"contracts/Whitelist.sol\":4071:4096  _beneficiary[user].amount */\n      0x01\n      add\n      sload\n        /* \"contracts/Whitelist.sol\":4071:4101  _beneficiary[user].amount == 0 */\n      iszero\n        /* \"contracts/Whitelist.sol\":4063:4132  require(_beneficiary[user].amount == 0, \"Cannot add Registered User\") */\n      tag_91\n      jumpi\n      mload(0x40)\n      shl(0xe5, 0x461bcd)\n      dup2\n      mstore\n        /* \"#utility.yul\":3769:3771   */\n      0x20\n        /* \"contracts/Whitelist.sol\":4063:4132  require(_beneficiary[user].amount == 0, \"Cannot add Registered User\") */\n      0x04\n      dup3\n      add\n        /* \"#utility.yul\":3751:3772   */\n      mstore\n        /* \"#utility.yul\":3808:3810   */\n      0x1a\n        /* \"#utility.yul\":3788:3806   */\n      0x24\n      dup3\n      add\n        /* \"#utility.yul\":3781:3811   */\n      mstore\n        /* \"#utility.yul\":3847:3875   */\n      0x43616e6e6f742061646420526567697374657265642055736572000000000000\n        /* \"#utility.yul\":3827:3845   */\n      0x44\n      dup3\n      add\n        /* \"#utility.yul\":3820:3876   */\n      mstore\n        /* \"#utility.yul\":3893:3911   */\n      0x64\n      add\n        /* \"contracts/Whitelist.sol\":4063:4132  require(_beneficiary[user].amount == 0, \"Cannot add Registered User\") */\n      tag_59\n        /* \"#utility.yul\":3567:3917   */\n      jump\n        /* \"contracts/Whitelist.sol\":4063:4132  require(_beneficiary[user].amount == 0, \"Cannot add Registered User\") */\n    tag_91:\n      sub(shl(0xa0, 0x01), 0x01)\n        /* \"contracts/Whitelist.sol\":4143:4161  _beneficiary[user] */\n      dup3\n      and\n      0x00\n      swap1\n      dup2\n      mstore\n        /* \"contracts/Whitelist.sol\":4143:4155  _beneficiary */\n      0x03\n        /* \"contracts/Whitelist.sol\":4143:4161  _beneficiary[user] */\n      0x20\n      dup2\n      swap1\n      mstore\n      0x40\n      dup3\n      keccak256\n        /* \"contracts/Whitelist.sol\":4143:4183  _beneficiary[user].lockedAmount = amount */\n      dup4\n      dup2\n      sstore\n        /* \"contracts/Whitelist.sol\":4193:4218  _beneficiary[user].amount */\n      0x01\n      dup1\n      dup3\n      add\n        /* \"contracts/Whitelist.sol\":4193:4227  _beneficiary[user].amount = amount */\n      dup6\n      swap1\n      sstore\n        /* \"contracts/Whitelist.sol\":4237:4271  _beneficiary[user].isPhase1Claimed */\n      0x02\n      dup3\n      add\n        /* \"contracts/Whitelist.sol\":4237:4279  _beneficiary[user].isPhase1Claimed = false */\n      dup1\n      sload\n      not(0xff)\n      and\n      swap1\n      sstore\n        /* \"contracts/Whitelist.sol\":4289:4322  _beneficiary[user].latestClaimDay */\n      swap2\n      add\n        /* \"contracts/Whitelist.sol\":4289:4326  _beneficiary[user].latestClaimDay = 1 */\n      dup2\n      swap1\n      sstore\n        /* \"contracts/Whitelist.sol\":4337:4358  privateSaleUsers += 1 */\n      dup2\n      sload\n        /* \"contracts/Whitelist.sol\":4193:4218  _beneficiary[user].amount */\n      swap1\n      swap2\n        /* \"contracts/Whitelist.sol\":4143:4161  _beneficiary[user] */\n      swap1\n      dup2\n      swap1\n        /* \"contracts/Whitelist.sol\":4337:4358  privateSaleUsers += 1 */\n      tag_94\n      swap1\n        /* \"contracts/Whitelist.sol\":4193:4218  _beneficiary[user].amount */\n      dup5\n      swap1\n        /* \"contracts/Whitelist.sol\":4337:4358  privateSaleUsers += 1 */\n      tag_80\n      jump\t// in\n    tag_94:\n      swap3\n      pop\n      pop\n      dup2\n      swap1\n      sstore\n      pop\n        /* \"contracts/Whitelist.sol\":4389:4395  amount */\n      dup1\n        /* \"contracts/Whitelist.sol\":4368:4385  privateSaleAmount */\n      0x01\n      0x00\n        /* \"contracts/Whitelist.sol\":4368:4395  privateSaleAmount -= amount */\n      dup3\n      dup3\n      sload\n      tag_95\n      swap2\n      swap1\n      tag_78\n      jump\t// in\n    tag_95:\n      swap1\n      swap2\n      sstore\n      pop\n      pop\n      pop\n      pop\n        /* \"contracts/Whitelist.sol\":3884:4402  function addBeneficiary(address user, uint256 amount)... */\n      jump\t// out\n        /* \"contracts/Whitelist.sol\":1725:1824  function initiateWhitelist() external onlyTalax {... */\n    tag_53:\n        /* \"contracts/Whitelist.sol\":1075:1087  _onlyTalax() */\n      tag_97\n        /* \"contracts/Whitelist.sol\":1075:1085  _onlyTalax */\n      tag_56\n        /* \"contracts/Whitelist.sol\":1075:1087  _onlyTalax() */\n      jump\t// in\n    tag_97:\n        /* \"contracts/Whitelist.sol\":1802:1817  block.timestamp */\n      timestamp\n        /* \"contracts/Whitelist.sol\":1783:1799  startPrivateSale */\n      0x02\n        /* \"contracts/Whitelist.sol\":1783:1817  startPrivateSale = block.timestamp */\n      sstore\n        /* \"contracts/Whitelist.sol\":1725:1824  function initiateWhitelist() external onlyTalax {... */\n      jump\t// out\n        /* \"contracts/Whitelist.sol\":932:1038  function _onlyTalax() internal view {... */\n    tag_56:\n        /* \"contracts/Whitelist.sol\":1000:1012  talaxAddress */\n      and(sub(shl(0xa0, 0x01), 0x01), sload(0x04))\n        /* \"contracts/Whitelist.sol\":986:996  msg.sender */\n      caller\n        /* \"contracts/Whitelist.sol\":986:1012  msg.sender == talaxAddress */\n      eq\n        /* \"contracts/Whitelist.sol\":978:1031  require(msg.sender == talaxAddress, \"Not authorized\") */\n      tag_100\n      jumpi\n      mload(0x40)\n      shl(0xe5, 0x461bcd)\n      dup2\n      mstore\n        /* \"#utility.yul\":4124:4126   */\n      0x20\n        /* \"contracts/Whitelist.sol\":978:1031  require(msg.sender == talaxAddress, \"Not authorized\") */\n      0x04\n      dup3\n      add\n        /* \"#utility.yul\":4106:4127   */\n      mstore\n        /* \"#utility.yul\":4163:4165   */\n      0x0e\n        /* \"#utility.yul\":4143:4161   */\n      0x24\n      dup3\n      add\n        /* \"#utility.yul\":4136:4166   */\n      mstore\n        /* \"#utility.yul\":4202:4218   */\n      0x4e6f7420617574686f72697a6564000000000000000000000000000000000000\n        /* \"#utility.yul\":4182:4200   */\n      0x44\n      dup3\n      add\n        /* \"#utility.yul\":4175:4219   */\n      mstore\n        /* \"#utility.yul\":4236:4254   */\n      0x64\n      add\n        /* \"contracts/Whitelist.sol\":978:1031  require(msg.sender == talaxAddress, \"Not authorized\") */\n      tag_59\n        /* \"#utility.yul\":3922:4260   */\n      jump\n        /* \"contracts/Whitelist.sol\":978:1031  require(msg.sender == talaxAddress, \"Not authorized\") */\n    tag_100:\n        /* \"contracts/Whitelist.sol\":932:1038  function _onlyTalax() internal view {... */\n      jump\t// out\n        /* \"contracts/Whitelist.sol\":2088:3878  function _calculateClaimableAmount(address user)... */\n    tag_62:\n        /* \"contracts/Whitelist.sol\":2171:2178  uint256 */\n      0x00\n        /* \"contracts/Whitelist.sol\":2194:2211  uint256 claimable */\n      dup1\n        /* \"contracts/Whitelist.sol\":2222:2242  uint256 lockDuration */\n      0x00\n        /* \"contracts/Whitelist.sol\":2284:2290  1 days */\n      0x015180\n        /* \"contracts/Whitelist.sol\":2264:2280  startPrivateSale */\n      sload(0x02)\n        /* \"contracts/Whitelist.sol\":2246:2261  block.timestamp */\n      timestamp\n        /* \"contracts/Whitelist.sol\":2246:2280  block.timestamp - startPrivateSale */\n      tag_104\n      swap2\n      swap1\n      tag_78\n      jump\t// in\n    tag_104:\n        /* \"contracts/Whitelist.sol\":2245:2290  (block.timestamp - startPrivateSale) / 1 days */\n      tag_105\n      swap2\n      swap1\n      tag_106\n      jump\t// in\n    tag_105:\n        /* \"contracts/Whitelist.sol\":2222:2290  uint256 lockDuration = (block.timestamp - startPrivateSale) / 1 days */\n      swap1\n      pop\n        /* \"contracts/Whitelist.sol\":2373:2380  16 * 30 */\n      0x01e0\n        /* \"contracts/Whitelist.sol\":2358:2370  lockDuration */\n      dup2\n        /* \"contracts/Whitelist.sol\":2358:2380  lockDuration < 16 * 30 */\n      lt\n        /* \"contracts/Whitelist.sol\":2354:3788  if (lockDuration < 16 * 30) {... */\n      iszero\n      tag_107\n      jumpi\n      sub(shl(0xa0, 0x01), 0x01)\n        /* \"contracts/Whitelist.sol\":2400:2418  _beneficiary[user] */\n      dup5\n      and\n      0x00\n      swap1\n      dup2\n      mstore\n        /* \"contracts/Whitelist.sol\":2400:2412  _beneficiary */\n      0x03\n        /* \"contracts/Whitelist.sol\":2400:2418  _beneficiary[user] */\n      0x20\n      mstore\n      0x40\n      swap1\n      keccak256\n        /* \"contracts/Whitelist.sol\":2400:2434  _beneficiary[user].isPhase1Claimed */\n      0x02\n      add\n      sload\n      0xff\n      and\n        /* \"contracts/Whitelist.sol\":2396:2759  if (_beneficiary[user].isPhase1Claimed == false) {... */\n      tag_108\n      jumpi\n      sub(shl(0xa0, 0x01), 0x01)\n        /* \"contracts/Whitelist.sol\":2570:2588  _beneficiary[user] */\n      dup5\n      and\n      0x00\n      swap1\n      dup2\n      mstore\n        /* \"contracts/Whitelist.sol\":2570:2582  _beneficiary */\n      0x03\n        /* \"contracts/Whitelist.sol\":2570:2588  _beneficiary[user] */\n      0x20\n      mstore\n      0x40\n      swap1\n      keccak256\n        /* \"contracts/Whitelist.sol\":2570:2601  _beneficiary[user].lockedAmount */\n      sload\n        /* \"contracts/Whitelist.sol\":2475:2685  claimable.add(... */\n      tag_109\n      swap1\n        /* \"contracts/Whitelist.sol\":2510:2667  SafeMath.div(... */\n      tag_110\n      swap1\n        /* \"contracts/Whitelist.sol\":2548:2602  SafeMath.mul(_phase1, _beneficiary[user].lockedAmount) */\n      tag_111\n      swap1\n        /* \"contracts/Whitelist.sol\":292:307  73395000 * 1e18 */\n      0x3cb5feec27901169e00000\n      swap1\n        /* \"contracts/Whitelist.sol\":2548:2560  SafeMath.mul */\n      tag_112\n        /* \"contracts/Whitelist.sol\":2548:2602  SafeMath.mul(_phase1, _beneficiary[user].lockedAmount) */\n      jump\t// in\n    tag_111:\n        /* \"contracts/Whitelist.sol\":2628:2645  privateSaleAmount */\n      sload(0x01)\n        /* \"contracts/Whitelist.sol\":2510:2522  SafeMath.div */\n      tag_113\n        /* \"contracts/Whitelist.sol\":2510:2667  SafeMath.div(... */\n      jump\t// in\n    tag_110:\n        /* \"contracts/Whitelist.sol\":2475:2484  claimable */\n      dup4\n      swap1\n        /* \"contracts/Whitelist.sol\":2475:2488  claimable.add */\n      tag_114\n        /* \"contracts/Whitelist.sol\":2475:2685  claimable.add(... */\n      jump\t// in\n    tag_109:\n      sub(shl(0xa0, 0x01), 0x01)\n        /* \"contracts/Whitelist.sol\":2703:2721  _beneficiary[user] */\n      dup6\n      and\n      0x00\n      swap1\n      dup2\n      mstore\n        /* \"contracts/Whitelist.sol\":2703:2715  _beneficiary */\n      0x03\n        /* \"contracts/Whitelist.sol\":2703:2721  _beneficiary[user] */\n      0x20\n      mstore\n      0x40\n      swap1\n      keccak256\n        /* \"contracts/Whitelist.sol\":2703:2737  _beneficiary[user].isPhase1Claimed */\n      0x02\n      add\n        /* \"contracts/Whitelist.sol\":2703:2744  _beneficiary[user].isPhase1Claimed = true */\n      dup1\n      sload\n      not(0xff)\n      and\n        /* \"contracts/Whitelist.sol\":2740:2744  true */\n      0x01\n        /* \"contracts/Whitelist.sol\":2703:2744  _beneficiary[user].isPhase1Claimed = true */\n      or\n      swap1\n      sstore\n        /* \"contracts/Whitelist.sol\":2463:2685  claimable = claimable.add(... */\n      swap2\n      pop\n        /* \"contracts/Whitelist.sol\":2396:2759  if (_beneficiary[user].isPhase1Claimed == false) {... */\n    tag_108:\n      sub(shl(0xa0, 0x01), 0x01)\n        /* \"contracts/Whitelist.sol\":2772:2790  _beneficiary[user] */\n      dup5\n      and\n      0x00\n      swap1\n      dup2\n      mstore\n        /* \"contracts/Whitelist.sol\":2772:2784  _beneficiary */\n      0x03\n        /* \"contracts/Whitelist.sol\":2772:2790  _beneficiary[user] */\n      0x20\n      dup2\n      swap1\n      mstore\n      0x40\n      swap1\n      swap2\n      keccak256\n        /* \"contracts/Whitelist.sol\":2808:2815  15 * 30 */\n      0x01c2\n        /* \"contracts/Whitelist.sol\":2772:2805  _beneficiary[user].latestClaimDay */\n      swap2\n      add\n        /* \"contracts/Whitelist.sol\":2772:2815  _beneficiary[user].latestClaimDay = 15 * 30 */\n      sstore\n        /* \"contracts/Whitelist.sol\":2354:3788  if (lockDuration < 16 * 30) {... */\n      jump(tag_117)\n    tag_107:\n        /* \"contracts/Whitelist.sol\":2911:2918  16 * 30 */\n      0x01e0\n        /* \"contracts/Whitelist.sol\":2895:2907  lockDuration */\n      dup2\n        /* \"contracts/Whitelist.sol\":2895:2918  lockDuration >= 16 * 30 */\n      lt\n      iszero\n        /* \"contracts/Whitelist.sol\":2895:2944  lockDuration >= 16 * 30 && lockDuration < 28 * 30 */\n      dup1\n      iszero\n      tag_116\n      jumpi\n      pop\n        /* \"contracts/Whitelist.sol\":2937:2944  28 * 30 */\n      0x0348\n        /* \"contracts/Whitelist.sol\":2922:2934  lockDuration */\n      dup2\n        /* \"contracts/Whitelist.sol\":2922:2944  lockDuration < 28 * 30 */\n      lt\n        /* \"contracts/Whitelist.sol\":2895:2944  lockDuration >= 16 * 30 && lockDuration < 28 * 30 */\n    tag_116:\n        /* \"contracts/Whitelist.sol\":2891:3788  if (lockDuration >= 16 * 30 && lockDuration < 28 * 30) {... */\n      iszero\n      tag_117\n      jumpi\n      sub(shl(0xa0, 0x01), 0x01)\n        /* \"contracts/Whitelist.sol\":2964:2982  _beneficiary[user] */\n      dup5\n      and\n      0x00\n      swap1\n      dup2\n      mstore\n        /* \"contracts/Whitelist.sol\":2964:2976  _beneficiary */\n      0x03\n        /* \"contracts/Whitelist.sol\":2964:2982  _beneficiary[user] */\n      0x20\n      mstore\n      0x40\n      swap1\n      keccak256\n        /* \"contracts/Whitelist.sol\":2964:2998  _beneficiary[user].isPhase1Claimed */\n      0x02\n      add\n      sload\n      0xff\n      and\n        /* \"contracts/Whitelist.sol\":2960:3323  if (_beneficiary[user].isPhase1Claimed == false) {... */\n      tag_118\n      jumpi\n      sub(shl(0xa0, 0x01), 0x01)\n        /* \"contracts/Whitelist.sol\":3134:3152  _beneficiary[user] */\n      dup5\n      and\n      0x00\n      swap1\n      dup2\n      mstore\n        /* \"contracts/Whitelist.sol\":3134:3146  _beneficiary */\n      0x03\n        /* \"contracts/Whitelist.sol\":3134:3152  _beneficiary[user] */\n      0x20\n      mstore\n      0x40\n      swap1\n      keccak256\n        /* \"contracts/Whitelist.sol\":3134:3165  _beneficiary[user].lockedAmount */\n      sload\n        /* \"contracts/Whitelist.sol\":3039:3249  claimable.add(... */\n      tag_119\n      swap1\n        /* \"contracts/Whitelist.sol\":3074:3231  SafeMath.div(... */\n      tag_110\n      swap1\n        /* \"contracts/Whitelist.sol\":3112:3166  SafeMath.mul(_phase1, _beneficiary[user].lockedAmount) */\n      tag_111\n      swap1\n        /* \"contracts/Whitelist.sol\":292:307  73395000 * 1e18 */\n      0x3cb5feec27901169e00000\n      swap1\n        /* \"contracts/Whitelist.sol\":3112:3124  SafeMath.mul */\n      tag_112\n        /* \"contracts/Whitelist.sol\":3112:3166  SafeMath.mul(_phase1, _beneficiary[user].lockedAmount) */\n      jump\t// in\n        /* \"contracts/Whitelist.sol\":3039:3249  claimable.add(... */\n    tag_119:\n      sub(shl(0xa0, 0x01), 0x01)\n        /* \"contracts/Whitelist.sol\":3267:3285  _beneficiary[user] */\n      dup6\n      and\n      0x00\n      swap1\n      dup2\n      mstore\n        /* \"contracts/Whitelist.sol\":3267:3279  _beneficiary */\n      0x03\n        /* \"contracts/Whitelist.sol\":3267:3285  _beneficiary[user] */\n      0x20\n      mstore\n      0x40\n      swap1\n      keccak256\n        /* \"contracts/Whitelist.sol\":3267:3301  _beneficiary[user].isPhase1Claimed */\n      0x02\n      add\n        /* \"contracts/Whitelist.sol\":3267:3308  _beneficiary[user].isPhase1Claimed = true */\n      dup1\n      sload\n      not(0xff)\n      and\n        /* \"contracts/Whitelist.sol\":3304:3308  true */\n      0x01\n        /* \"contracts/Whitelist.sol\":3267:3308  _beneficiary[user].isPhase1Claimed = true */\n      or\n      swap1\n      sstore\n        /* \"contracts/Whitelist.sol\":3027:3249  claimable = claimable.add(... */\n      swap2\n      pop\n        /* \"contracts/Whitelist.sol\":2960:3323  if (_beneficiary[user].isPhase1Claimed == false) {... */\n    tag_118:\n      sub(shl(0xa0, 0x01), 0x01)\n        /* \"contracts/Whitelist.sol\":3395:3413  _beneficiary[user] */\n      dup5\n      and\n        /* \"contracts/Whitelist.sol\":3337:3361  uint256 sinceLatestClaim */\n      0x00\n        /* \"contracts/Whitelist.sol\":3395:3413  _beneficiary[user] */\n      swap1\n      dup2\n      mstore\n        /* \"contracts/Whitelist.sol\":3395:3407  _beneficiary */\n      0x03\n        /* \"contracts/Whitelist.sol\":3395:3413  _beneficiary[user] */\n      0x20\n      dup2\n      swap1\n      mstore\n      0x40\n      dup3\n      keccak256\n        /* \"contracts/Whitelist.sol\":3395:3428  _beneficiary[user].latestClaimDay */\n      add\n      sload\n        /* \"contracts/Whitelist.sol\":3364:3428  lockDuration -... */\n      tag_122\n      swap1\n        /* \"contracts/Whitelist.sol\":3364:3376  lockDuration */\n      dup4\n        /* \"contracts/Whitelist.sol\":3364:3428  lockDuration -... */\n      tag_78\n      jump\t// in\n    tag_122:\n      sub(shl(0xa0, 0x01), 0x01)\n        /* \"contracts/Whitelist.sol\":3600:3618  _beneficiary[user] */\n      dup7\n      and\n      0x00\n      swap1\n      dup2\n      mstore\n        /* \"contracts/Whitelist.sol\":3600:3612  _beneficiary */\n      0x03\n        /* \"contracts/Whitelist.sol\":3600:3618  _beneficiary[user] */\n      0x20\n      mstore\n      0x40\n      swap1\n      keccak256\n        /* \"contracts/Whitelist.sol\":3600:3631  _beneficiary[user].lockedAmount */\n      sload\n        /* \"contracts/Whitelist.sol\":3337:3428  uint256 sinceLatestClaim = lockDuration -... */\n      swap1\n      swap2\n      pop\n        /* \"contracts/Whitelist.sol\":3505:3715  claimable.add(... */\n      tag_123\n      swap1\n        /* \"contracts/Whitelist.sol\":3540:3697  SafeMath.div(... */\n      tag_124\n      swap1\n        /* \"contracts/Whitelist.sol\":3578:3632  SafeMath.mul(_phase2, _beneficiary[user].lockedAmount) */\n      tag_111\n      swap1\n        /* \"contracts/Whitelist.sol\":349:363  3820562 * 1e18 */\n      0x03290914be1afb75080000\n      swap1\n        /* \"contracts/Whitelist.sol\":3578:3590  SafeMath.mul */\n      tag_112\n        /* \"contracts/Whitelist.sol\":3578:3632  SafeMath.mul(_phase2, _beneficiary[user].lockedAmount) */\n      jump\t// in\n        /* \"contracts/Whitelist.sol\":3540:3697  SafeMath.div(... */\n    tag_124:\n        /* \"contracts/Whitelist.sol\":3505:3514  claimable */\n      dup5\n      swap1\n        /* \"contracts/Whitelist.sol\":3505:3518  claimable.add */\n      tag_114\n        /* \"contracts/Whitelist.sol\":3505:3715  claimable.add(... */\n      jump\t// in\n    tag_123:\n        /* \"contracts/Whitelist.sol\":3470:3715  sinceLatestClaim *... */\n      tag_126\n      swap1\n        /* \"contracts/Whitelist.sol\":3470:3486  sinceLatestClaim */\n      dup3\n        /* \"contracts/Whitelist.sol\":3470:3715  sinceLatestClaim *... */\n      tag_127\n      jump\t// in\n    tag_126:\n      sub(shl(0xa0, 0x01), 0x01)\n        /* \"contracts/Whitelist.sol\":3729:3747  _beneficiary[user] */\n      dup7\n      and\n      0x00\n      swap1\n      dup2\n      mstore\n        /* \"contracts/Whitelist.sol\":3729:3741  _beneficiary */\n      0x03\n        /* \"contracts/Whitelist.sol\":3729:3747  _beneficiary[user] */\n      0x20\n      dup2\n      swap1\n      mstore\n      0x40\n      swap1\n      swap2\n      keccak256\n        /* \"contracts/Whitelist.sol\":3729:3762  _beneficiary[user].latestClaimDay */\n      add\n        /* \"contracts/Whitelist.sol\":3729:3777  _beneficiary[user].latestClaimDay = lockDuration */\n      dup4\n      swap1\n      sstore\n        /* \"contracts/Whitelist.sol\":3442:3715  claimable =... */\n      swap3\n      pop\n      pop\n        /* \"contracts/Whitelist.sol\":2891:3788  if (lockDuration >= 16 * 30 && lockDuration < 28 * 30) {... */\n    tag_117:\n        /* \"contracts/Whitelist.sol\":3806:3820  claimable != 0 */\n      dup2\n        /* \"contracts/Whitelist.sol\":3798:3845  require(claimable != 0, \"Nothing to claim yet\") */\n      tag_128\n      jumpi\n      mload(0x40)\n      shl(0xe5, 0x461bcd)\n      dup2\n      mstore\n        /* \"#utility.yul\":4919:4921   */\n      0x20\n        /* \"contracts/Whitelist.sol\":3798:3845  require(claimable != 0, \"Nothing to claim yet\") */\n      0x04\n      dup3\n      add\n        /* \"#utility.yul\":4901:4922   */\n      mstore\n        /* \"#utility.yul\":4958:4960   */\n      0x14\n        /* \"#utility.yul\":4938:4956   */\n      0x24\n      dup3\n      add\n        /* \"#utility.yul\":4931:4961   */\n      mstore\n        /* \"#utility.yul\":4997:5019   */\n      0x4e6f7468696e6720746f20636c61696d20796574000000000000000000000000\n        /* \"#utility.yul\":4977:4995   */\n      0x44\n      dup3\n      add\n        /* \"#utility.yul\":4970:5020   */\n      mstore\n        /* \"#utility.yul\":5037:5055   */\n      0x64\n      add\n        /* \"contracts/Whitelist.sol\":3798:3845  require(claimable != 0, \"Nothing to claim yet\") */\n      tag_59\n        /* \"#utility.yul\":4717:5061   */\n      jump\n        /* \"contracts/Whitelist.sol\":3798:3845  require(claimable != 0, \"Nothing to claim yet\") */\n    tag_128:\n      pop\n        /* \"contracts/Whitelist.sol\":3862:3871  claimable */\n      swap3\n        /* \"contracts/Whitelist.sol\":2088:3878  function _calculateClaimableAmount(address user)... */\n      swap2\n      pop\n      pop\n      jump\t// out\n        /* \"@openzeppelin/contracts/utils/math/SafeMath.sol\":3108:3204  function sub(uint256 a, uint256 b) internal pure returns (uint256) {... */\n    tag_67:\n        /* \"@openzeppelin/contracts/utils/math/SafeMath.sol\":3166:3173  uint256 */\n      0x00\n        /* \"@openzeppelin/contracts/utils/math/SafeMath.sol\":3192:3197  a - b */\n      tag_132\n        /* \"@openzeppelin/contracts/utils/math/SafeMath.sol\":3196:3197  b */\n      dup3\n        /* \"@openzeppelin/contracts/utils/math/SafeMath.sol\":3192:3193  a */\n      dup5\n        /* \"@openzeppelin/contracts/utils/math/SafeMath.sol\":3192:3197  a - b */\n      tag_78\n      jump\t// in\n    tag_132:\n        /* \"@openzeppelin/contracts/utils/math/SafeMath.sol\":3185:3197  return a - b */\n      swap4\n        /* \"@openzeppelin/contracts/utils/math/SafeMath.sol\":3108:3204  function sub(uint256 a, uint256 b) internal pure returns (uint256) {... */\n      swap3\n      pop\n      pop\n      pop\n      jump\t// out\n        /* \"@openzeppelin/contracts/utils/math/SafeMath.sol\":3451:3547  function mul(uint256 a, uint256 b) internal pure returns (uint256) {... */\n    tag_112:\n        /* \"@openzeppelin/contracts/utils/math/SafeMath.sol\":3509:3516  uint256 */\n      0x00\n        /* \"@openzeppelin/contracts/utils/math/SafeMath.sol\":3535:3540  a * b */\n      tag_132\n        /* \"@openzeppelin/contracts/utils/math/SafeMath.sol\":3539:3540  b */\n      dup3\n        /* \"@openzeppelin/contracts/utils/math/SafeMath.sol\":3535:3536  a */\n      dup5\n        /* \"@openzeppelin/contracts/utils/math/SafeMath.sol\":3535:3540  a * b */\n      tag_127\n      jump\t// in\n        /* \"@openzeppelin/contracts/utils/math/SafeMath.sol\":3836:3932  function div(uint256 a, uint256 b) internal pure returns (uint256) {... */\n    tag_113:\n        /* \"@openzeppelin/contracts/utils/math/SafeMath.sol\":3894:3901  uint256 */\n      0x00\n        /* \"@openzeppelin/contracts/utils/math/SafeMath.sol\":3920:3925  a / b */\n      tag_132\n        /* \"@openzeppelin/contracts/utils/math/SafeMath.sol\":3924:3925  b */\n      dup3\n        /* \"@openzeppelin/contracts/utils/math/SafeMath.sol\":3920:3921  a */\n      dup5\n        /* \"@openzeppelin/contracts/utils/math/SafeMath.sol\":3920:3925  a / b */\n      tag_106\n      jump\t// in\n        /* \"@openzeppelin/contracts/utils/math/SafeMath.sol\":2741:2837  function add(uint256 a, uint256 b) internal pure returns (uint256) {... */\n    tag_114:\n        /* \"@openzeppelin/contracts/utils/math/SafeMath.sol\":2799:2806  uint256 */\n      0x00\n        /* \"@openzeppelin/contracts/utils/math/SafeMath.sol\":2825:2830  a + b */\n      tag_132\n        /* \"@openzeppelin/contracts/utils/math/SafeMath.sol\":2829:2830  b */\n      dup3\n        /* \"@openzeppelin/contracts/utils/math/SafeMath.sol\":2825:2826  a */\n      dup5\n        /* \"@openzeppelin/contracts/utils/math/SafeMath.sol\":2825:2830  a + b */\n      tag_80\n      jump\t// in\n        /* \"#utility.yul\":14:210   */\n    tag_139:\n        /* \"#utility.yul\":82:102   */\n      dup1\n      calldataload\n      sub(shl(0xa0, 0x01), 0x01)\n        /* \"#utility.yul\":131:185   */\n      dup2\n      and\n        /* \"#utility.yul\":121:186   */\n      dup2\n      eq\n        /* \"#utility.yul\":111:204   */\n      tag_57\n      jumpi\n        /* \"#utility.yul\":200:201   */\n      0x00\n        /* \"#utility.yul\":197:198   */\n      dup1\n        /* \"#utility.yul\":190:202   */\n      revert\n        /* \"#utility.yul\":215:401   */\n    tag_18:\n        /* \"#utility.yul\":274:280   */\n      0x00\n        /* \"#utility.yul\":327:329   */\n      0x20\n        /* \"#utility.yul\":315:324   */\n      dup3\n        /* \"#utility.yul\":306:313   */\n      dup5\n        /* \"#utility.yul\":302:325   */\n      sub\n        /* \"#utility.yul\":298:330   */\n      slt\n        /* \"#utility.yul\":295:347   */\n      iszero\n      tag_145\n      jumpi\n        /* \"#utility.yul\":343:344   */\n      0x00\n        /* \"#utility.yul\":340:341   */\n      dup1\n        /* \"#utility.yul\":333:345   */\n      revert\n        /* \"#utility.yul\":295:347   */\n    tag_145:\n        /* \"#utility.yul\":366:395   */\n      tag_132\n        /* \"#utility.yul\":385:394   */\n      dup3\n        /* \"#utility.yul\":366:395   */\n      tag_139\n      jump\t// in\n        /* \"#utility.yul\":1453:1707   */\n    tag_50:\n        /* \"#utility.yul\":1521:1527   */\n      0x00\n        /* \"#utility.yul\":1529:1535   */\n      dup1\n        /* \"#utility.yul\":1582:1584   */\n      0x40\n        /* \"#utility.yul\":1570:1579   */\n      dup4\n        /* \"#utility.yul\":1561:1568   */\n      dup6\n        /* \"#utility.yul\":1557:1580   */\n      sub\n        /* \"#utility.yul\":1553:1585   */\n      slt\n        /* \"#utility.yul\":1550:1602   */\n      iszero\n      tag_151\n      jumpi\n        /* \"#utility.yul\":1598:1599   */\n      0x00\n        /* \"#utility.yul\":1595:1596   */\n      dup1\n        /* \"#utility.yul\":1588:1600   */\n      revert\n        /* \"#utility.yul\":1550:1602   */\n    tag_151:\n        /* \"#utility.yul\":1621:1650   */\n      tag_152\n        /* \"#utility.yul\":1640:1649   */\n      dup4\n        /* \"#utility.yul\":1621:1650   */\n      tag_139\n      jump\t// in\n    tag_152:\n        /* \"#utility.yul\":1611:1650   */\n      swap5\n        /* \"#utility.yul\":1697:1699   */\n      0x20\n        /* \"#utility.yul\":1682:1700   */\n      swap4\n      swap1\n      swap4\n      add\n        /* \"#utility.yul\":1669:1701   */\n      calldataload\n      swap4\n      pop\n      pop\n      pop\n        /* \"#utility.yul\":1453:1707   */\n      jump\t// out\n        /* \"#utility.yul\":2760:2944   */\n    tag_140:\n      shl(0xe0, 0x4e487b71)\n        /* \"#utility.yul\":2809:2810   */\n      0x00\n        /* \"#utility.yul\":2802:2890   */\n      mstore\n        /* \"#utility.yul\":2909:2913   */\n      0x11\n        /* \"#utility.yul\":2906:2907   */\n      0x04\n        /* \"#utility.yul\":2899:2914   */\n      mstore\n        /* \"#utility.yul\":2933:2937   */\n      0x24\n        /* \"#utility.yul\":2930:2931   */\n      0x00\n        /* \"#utility.yul\":2923:2938   */\n      revert\n        /* \"#utility.yul\":2949:3074   */\n    tag_78:\n        /* \"#utility.yul\":2989:2993   */\n      0x00\n        /* \"#utility.yul\":3017:3018   */\n      dup3\n        /* \"#utility.yul\":3014:3015   */\n      dup3\n        /* \"#utility.yul\":3011:3019   */\n      lt\n        /* \"#utility.yul\":3008:3042   */\n      iszero\n      tag_159\n      jumpi\n        /* \"#utility.yul\":3022:3040   */\n      tag_159\n      tag_140\n      jump\t// in\n    tag_159:\n      pop\n        /* \"#utility.yul\":3059:3068   */\n      sub\n      swap1\n        /* \"#utility.yul\":2949:3074   */\n      jump\t// out\n        /* \"#utility.yul\":3079:3207   */\n    tag_80:\n        /* \"#utility.yul\":3119:3122   */\n      0x00\n        /* \"#utility.yul\":3150:3151   */\n      dup3\n        /* \"#utility.yul\":3146:3152   */\n      not\n        /* \"#utility.yul\":3143:3144   */\n      dup3\n        /* \"#utility.yul\":3140:3153   */\n      gt\n        /* \"#utility.yul\":3137:3176   */\n      iszero\n      tag_162\n      jumpi\n        /* \"#utility.yul\":3156:3174   */\n      tag_162\n      tag_140\n      jump\t// in\n    tag_162:\n      pop\n        /* \"#utility.yul\":3192:3201   */\n      add\n      swap1\n        /* \"#utility.yul\":3079:3207   */\n      jump\t// out\n        /* \"#utility.yul\":4265:4539   */\n    tag_106:\n        /* \"#utility.yul\":4305:4306   */\n      0x00\n        /* \"#utility.yul\":4331:4332   */\n      dup3\n        /* \"#utility.yul\":4321:4510   */\n      tag_167\n      jumpi\n      shl(0xe0, 0x4e487b71)\n        /* \"#utility.yul\":4363:4364   */\n      0x00\n        /* \"#utility.yul\":4356:4444   */\n      mstore\n        /* \"#utility.yul\":4467:4471   */\n      0x12\n        /* \"#utility.yul\":4464:4465   */\n      0x04\n        /* \"#utility.yul\":4457:4472   */\n      mstore\n        /* \"#utility.yul\":4495:4499   */\n      0x24\n        /* \"#utility.yul\":4492:4493   */\n      0x00\n        /* \"#utility.yul\":4485:4500   */\n      revert\n        /* \"#utility.yul\":4321:4510   */\n    tag_167:\n      pop\n        /* \"#utility.yul\":4524:4533   */\n      div\n      swap1\n        /* \"#utility.yul\":4265:4539   */\n      jump\t// out\n        /* \"#utility.yul\":4544:4712   */\n    tag_127:\n        /* \"#utility.yul\":4584:4591   */\n      0x00\n        /* \"#utility.yul\":4650:4651   */\n      dup2\n        /* \"#utility.yul\":4646:4647   */\n      0x00\n        /* \"#utility.yul\":4642:4648   */\n      not\n        /* \"#utility.yul\":4638:4652   */\n      div\n        /* \"#utility.yul\":4635:4636   */\n      dup4\n        /* \"#utility.yul\":4632:4653   */\n      gt\n        /* \"#utility.yul\":4627:4628   */\n      dup3\n        /* \"#utility.yul\":4620:4629   */\n      iszero\n        /* \"#utility.yul\":4613:4630   */\n      iszero\n        /* \"#utility.yul\":4609:4654   */\n      and\n        /* \"#utility.yul\":4606:4677   */\n      iszero\n      tag_170\n      jumpi\n        /* \"#utility.yul\":4657:4675   */\n      tag_170\n      tag_140\n      jump\t// in\n    tag_170:\n      pop\n        /* \"#utility.yul\":4697:4706   */\n      mul\n      swap1\n        /* \"#utility.yul\":4544:4712   */\n      jump\t// out\n\n    auxdata: 0xa2646970667358221220439cc59a243eb57fda634421fbe6587305244c75abe56e61e2e233453f43da0164736f6c634300080b0033\n}\n",
				"bytecode": {
					"linkReferences": {},
					"object": "608060405234801561001057600080fd5b506b04be37ea7317415c45800000600155600480546001600160a01b03191633179055610a3c806100426000396000f3fe608060405234801561001057600080fd5b50600436106100bd5760003560e01c806381008568116100765780638cdb7e8b1161005b5780638cdb7e8b146101b657806396074e70146101fe578063efdd87961461021157600080fd5b806381008568146101225780638b2b423a146101ad57600080fd5b8063338dbf59116100a7578063338dbf59146100fd578063549dee0b146101065780637d3bca761461010f57600080fd5b80625171f4146100c25780631d77b00b146100e8575b600080fd5b6100d56100d036600461093b565b610219565b6040519081526020015b60405180910390f35b6100fb6100f636600461093b565b610337565b005b6100d560025481565b6100d560005481565b6100d561011d36600461093b565b610379565b61018761013036600461093b565b6001600160a01b0316600090815260036020818152604092839020835160808101855281548082526001830154938201849052600283015460ff161515958201869052919093015460609093018390529390929190565b6040805194855260208501939093529015159183019190915260608201526080016100df565b6100d560015481565b6101c96101c436600461093b565b610471565b6040516100df919081518152602080830151908201526040808301511515908201526060918201519181019190915260800190565b6100fb61020c366004610956565b6104ee565b6100fb61061b565b6000610223610629565b6001600160a01b0382166000908152600360205260409020600101546102905760405162461bcd60e51b815260206004820152600e60248201527f4e6f20546f6b656e73204c65667400000000000000000000000000000000000060448201526064015b60405180910390fd5b600061029b83610685565b9050600081116102ed5760405162461bcd60e51b815260206004820152601c60248201527f4e6f20546f6b656e7320746f2052656c6561736520666f72204e6f77000000006044820152606401610287565b6001600160a01b03831660009081526003602052604090206001015461031390826108ed565b6001600160a01b03841660009081526003602052604090206001015590505b919050565b61033f610629565b600480547fffffffffffffffffffffffff0000000000000000000000000000000000000000166001600160a01b0392909216919091179055565b6000610383610629565b6001600160a01b0382166000908152600360205260409020600101546103eb5760405162461bcd60e51b815260206004820152601360248201527f55736572206e6f742052656769737465726564000000000000000000000000006044820152606401610287565b60016000808282546103fd9190610996565b90915550506001600160a01b038216600090815260036020526040812060019081015481549092906104309084906109ad565b9091555050506001600160a01b0316600090815260036020819052604082206001810180548483559084905560028201805460ff1916905591019190915590565b61049e60405180608001604052806000815260200160008152602001600015158152602001600081525090565b506001600160a01b0316600090815260036020818152604092839020835160808101855281548152600182015492810192909252600281015460ff16151593820193909352910154606082015290565b6104f6610629565b6001548111156105485760405162461bcd60e51b815260206004820152601a60248201527f496e73756666696369656e7420546f74616c2042616c616e63650000000000006044820152606401610287565b6001600160a01b038216600090815260036020526040902060010154156105b15760405162461bcd60e51b815260206004820152601a60248201527f43616e6e6f7420616464205265676973746572656420557365720000000000006044820152606401610287565b6001600160a01b03821660009081526003602081905260408220838155600180820185905560028201805460ff191690559101819055815490919081906105f99084906109ad565b9250508190555080600160008282546106129190610996565b90915550505050565b610623610629565b42600255565b6004546001600160a01b031633146106835760405162461bcd60e51b815260206004820152600e60248201527f4e6f7420617574686f72697a65640000000000000000000000000000000000006044820152606401610287565b565b6000806000620151806002544261069c9190610996565b6106a691906109c5565b90506101e081101561076a576001600160a01b03841660009081526003602052604090206002015460ff16610744576001600160a01b03841660009081526003602052604090205461071b906107149061070c906a3cb5feec27901169e0000090610900565b60015461090c565b8390610918565b6001600160a01b0385166000908152600360205260409020600201805460ff1916600117905591505b6001600160a01b03841660009081526003602081905260409091206101c2910155610899565b6101e0811015801561077d575061034881105b15610899576001600160a01b03841660009081526003602052604090206002015460ff16610805576001600160a01b0384166000908152600360205260409020546107dc906107149061070c906a3cb5feec27901169e0000090610900565b6001600160a01b0385166000908152600360205260409020600201805460ff1916600117905591505b6001600160a01b03841660009081526003602081905260408220015461082b9083610996565b6001600160a01b03861660009081526003602052604090205490915061086c906108659061070c906a03290914be1afb7508000090610900565b8490610918565b61087690826109e7565b6001600160a01b0386166000908152600360208190526040909120018390559250505b816108e65760405162461bcd60e51b815260206004820152601460248201527f4e6f7468696e6720746f20636c61696d207965740000000000000000000000006044820152606401610287565b5092915050565b60006108f98284610996565b9392505050565b60006108f982846109e7565b60006108f982846109c5565b60006108f982846109ad565b80356001600160a01b038116811461033257600080fd5b60006020828403121561094d57600080fd5b6108f982610924565b6000806040838503121561096957600080fd5b61097283610924565b946020939093013593505050565b634e487b7160e01b600052601160045260246000fd5b6000828210156109a8576109a8610980565b500390565b600082198211156109c0576109c0610980565b500190565b6000826109e257634e487b7160e01b600052601260045260246000fd5b500490565b6000816000190483118215151615610a0157610a01610980565b50029056fea2646970667358221220439cc59a243eb57fda634421fbe6587305244c75abe56e61e2e233453f43da0164736f6c634300080b0033",
					"opcodes": "PUSH1 0x80 PUSH1 0x40 MSTORE CALLVALUE DUP1 ISZERO PUSH2 0x10 JUMPI PUSH1 0x0 DUP1 REVERT JUMPDEST POP PUSH12 0x4BE37EA7317415C45800000 PUSH1 0x1 SSTORE PUSH1 0x4 DUP1 SLOAD PUSH1 0x1 PUSH1 0x1 PUSH1 0xA0 SHL SUB NOT AND CALLER OR SWAP1 SSTORE PUSH2 0xA3C DUP1 PUSH2 0x42 PUSH1 0x0 CODECOPY PUSH1 0x0 RETURN INVALID PUSH1 0x80 PUSH1 0x40 MSTORE CALLVALUE DUP1 ISZERO PUSH2 0x10 JUMPI PUSH1 0x0 DUP1 REVERT JUMPDEST POP PUSH1 0x4 CALLDATASIZE LT PUSH2 0xBD JUMPI PUSH1 0x0 CALLDATALOAD PUSH1 0xE0 SHR DUP1 PUSH4 0x81008568 GT PUSH2 0x76 JUMPI DUP1 PUSH4 0x8CDB7E8B GT PUSH2 0x5B JUMPI DUP1 PUSH4 0x8CDB7E8B EQ PUSH2 0x1B6 JUMPI DUP1 PUSH4 0x96074E70 EQ PUSH2 0x1FE JUMPI DUP1 PUSH4 0xEFDD8796 EQ PUSH2 0x211 JUMPI PUSH1 0x0 DUP1 REVERT JUMPDEST DUP1 PUSH4 0x81008568 EQ PUSH2 0x122 JUMPI DUP1 PUSH4 0x8B2B423A EQ PUSH2 0x1AD JUMPI PUSH1 0x0 DUP1 REVERT JUMPDEST DUP1 PUSH4 0x338DBF59 GT PUSH2 0xA7 JUMPI DUP1 PUSH4 0x338DBF59 EQ PUSH2 0xFD JUMPI DUP1 PUSH4 0x549DEE0B EQ PUSH2 0x106 JUMPI DUP1 PUSH4 0x7D3BCA76 EQ PUSH2 0x10F JUMPI PUSH1 0x0 DUP1 REVERT JUMPDEST DUP1 PUSH3 0x5171F4 EQ PUSH2 0xC2 JUMPI DUP1 PUSH4 0x1D77B00B EQ PUSH2 0xE8 JUMPI JUMPDEST PUSH1 0x0 DUP1 REVERT JUMPDEST PUSH2 0xD5 PUSH2 0xD0 CALLDATASIZE PUSH1 0x4 PUSH2 0x93B JUMP JUMPDEST PUSH2 0x219 JUMP JUMPDEST PUSH1 0x40 MLOAD SWAP1 DUP2 MSTORE PUSH1 0x20 ADD JUMPDEST PUSH1 0x40 MLOAD DUP1 SWAP2 SUB SWAP1 RETURN JUMPDEST PUSH2 0xFB PUSH2 0xF6 CALLDATASIZE PUSH1 0x4 PUSH2 0x93B JUMP JUMPDEST PUSH2 0x337 JUMP JUMPDEST STOP JUMPDEST PUSH2 0xD5 PUSH1 0x2 SLOAD DUP2 JUMP JUMPDEST PUSH2 0xD5 PUSH1 0x0 SLOAD DUP2 JUMP JUMPDEST PUSH2 0xD5 PUSH2 0x11D CALLDATASIZE PUSH1 0x4 PUSH2 0x93B JUMP JUMPDEST PUSH2 0x379 JUMP JUMPDEST PUSH2 0x187 PUSH2 0x130 CALLDATASIZE PUSH1 0x4 PUSH2 0x93B JUMP JUMPDEST PUSH1 0x1 PUSH1 0x1 PUSH1 0xA0 SHL SUB AND PUSH1 0x0 SWAP1 DUP2 MSTORE PUSH1 0x3 PUSH1 0x20 DUP2 DUP2 MSTORE PUSH1 0x40 SWAP3 DUP4 SWAP1 KECCAK256 DUP4 MLOAD PUSH1 0x80 DUP2 ADD DUP6 MSTORE DUP2 SLOAD DUP1 DUP3 MSTORE PUSH1 0x1 DUP4 ADD SLOAD SWAP4 DUP3 ADD DUP5 SWAP1 MSTORE PUSH1 0x2 DUP4 ADD SLOAD PUSH1 0xFF AND ISZERO ISZERO SWAP6 DUP3 ADD DUP7 SWAP1 MSTORE SWAP2 SWAP1 SWAP4 ADD SLOAD PUSH1 0x60 SWAP1 SWAP4 ADD DUP4 SWAP1 MSTORE SWAP4 SWAP1 SWAP3 SWAP2 SWAP1 JUMP JUMPDEST PUSH1 0x40 DUP1 MLOAD SWAP5 DUP6 MSTORE PUSH1 0x20 DUP6 ADD SWAP4 SWAP1 SWAP4 MSTORE SWAP1 ISZERO ISZERO SWAP2 DUP4 ADD SWAP2 SWAP1 SWAP2 MSTORE PUSH1 0x60 DUP3 ADD MSTORE PUSH1 0x80 ADD PUSH2 0xDF JUMP JUMPDEST PUSH2 0xD5 PUSH1 0x1 SLOAD DUP2 JUMP JUMPDEST PUSH2 0x1C9 PUSH2 0x1C4 CALLDATASIZE PUSH1 0x4 PUSH2 0x93B JUMP JUMPDEST PUSH2 0x471 JUMP JUMPDEST PUSH1 0x40 MLOAD PUSH2 0xDF SWAP2 SWAP1 DUP2 MLOAD DUP2 MSTORE PUSH1 0x20 DUP1 DUP4 ADD MLOAD SWAP1 DUP3 ADD MSTORE PUSH1 0x40 DUP1 DUP4 ADD MLOAD ISZERO ISZERO SWAP1 DUP3 ADD MSTORE PUSH1 0x60 SWAP2 DUP3 ADD MLOAD SWAP2 DUP2 ADD SWAP2 SWAP1 SWAP2 MSTORE PUSH1 0x80 ADD SWAP1 JUMP JUMPDEST PUSH2 0xFB PUSH2 0x20C CALLDATASIZE PUSH1 0x4 PUSH2 0x956 JUMP JUMPDEST PUSH2 0x4EE JUMP JUMPDEST PUSH2 0xFB PUSH2 0x61B JUMP JUMPDEST PUSH1 0x0 PUSH2 0x223 PUSH2 0x629 JUMP JUMPDEST PUSH1 0x1 PUSH1 0x1 PUSH1 0xA0 SHL SUB DUP3 AND PUSH1 0x0 SWAP1 DUP2 MSTORE PUSH1 0x3 PUSH1 0x20 MSTORE PUSH1 0x40 SWAP1 KECCAK256 PUSH1 0x1 ADD SLOAD PUSH2 0x290 JUMPI PUSH1 0x40 MLOAD PUSH3 0x461BCD PUSH1 0xE5 SHL DUP2 MSTORE PUSH1 0x20 PUSH1 0x4 DUP3 ADD MSTORE PUSH1 0xE PUSH1 0x24 DUP3 ADD MSTORE PUSH32 0x4E6F20546F6B656E73204C656674000000000000000000000000000000000000 PUSH1 0x44 DUP3 ADD MSTORE PUSH1 0x64 ADD JUMPDEST PUSH1 0x40 MLOAD DUP1 SWAP2 SUB SWAP1 REVERT JUMPDEST PUSH1 0x0 PUSH2 0x29B DUP4 PUSH2 0x685 JUMP JUMPDEST SWAP1 POP PUSH1 0x0 DUP2 GT PUSH2 0x2ED JUMPI PUSH1 0x40 MLOAD PUSH3 0x461BCD PUSH1 0xE5 SHL DUP2 MSTORE PUSH1 0x20 PUSH1 0x4 DUP3 ADD MSTORE PUSH1 0x1C PUSH1 0x24 DUP3 ADD MSTORE PUSH32 0x4E6F20546F6B656E7320746F2052656C6561736520666F72204E6F7700000000 PUSH1 0x44 DUP3 ADD MSTORE PUSH1 0x64 ADD PUSH2 0x287 JUMP JUMPDEST PUSH1 0x1 PUSH1 0x1 PUSH1 0xA0 SHL SUB DUP4 AND PUSH1 0x0 SWAP1 DUP2 MSTORE PUSH1 0x3 PUSH1 0x20 MSTORE PUSH1 0x40 SWAP1 KECCAK256 PUSH1 0x1 ADD SLOAD PUSH2 0x313 SWAP1 DUP3 PUSH2 0x8ED JUMP JUMPDEST PUSH1 0x1 PUSH1 0x1 PUSH1 0xA0 SHL SUB DUP5 AND PUSH1 0x0 SWAP1 DUP2 MSTORE PUSH1 0x3 PUSH1 0x20 MSTORE PUSH1 0x40 SWAP1 KECCAK256 PUSH1 0x1 ADD SSTORE SWAP1 POP JUMPDEST SWAP2 SWAP1 POP JUMP JUMPDEST PUSH2 0x33F PUSH2 0x629 JUMP JUMPDEST PUSH1 0x4 DUP1 SLOAD PUSH32 0xFFFFFFFFFFFFFFFFFFFFFFFF0000000000000000000000000000000000000000 AND PUSH1 0x1 PUSH1 0x1 PUSH1 0xA0 SHL SUB SWAP3 SWAP1 SWAP3 AND SWAP2 SWAP1 SWAP2 OR SWAP1 SSTORE JUMP JUMPDEST PUSH1 0x0 PUSH2 0x383 PUSH2 0x629 JUMP JUMPDEST PUSH1 0x1 PUSH1 0x1 PUSH1 0xA0 SHL SUB DUP3 AND PUSH1 0x0 SWAP1 DUP2 MSTORE PUSH1 0x3 PUSH1 0x20 MSTORE PUSH1 0x40 SWAP1 KECCAK256 PUSH1 0x1 ADD SLOAD PUSH2 0x3EB JUMPI PUSH1 0x40 MLOAD PUSH3 0x461BCD PUSH1 0xE5 SHL DUP2 MSTORE PUSH1 0x20 PUSH1 0x4 DUP3 ADD MSTORE PUSH1 0x13 PUSH1 0x24 DUP3 ADD MSTORE PUSH32 0x55736572206E6F74205265676973746572656400000000000000000000000000 PUSH1 0x44 DUP3 ADD MSTORE PUSH1 0x64 ADD PUSH2 0x287 JUMP JUMPDEST PUSH1 0x1 PUSH1 0x0 DUP1 DUP3 DUP3 SLOAD PUSH2 0x3FD SWAP2 SWAP1 PUSH2 0x996 JUMP JUMPDEST SWAP1 SWAP2 SSTORE POP POP PUSH1 0x1 PUSH1 0x1 PUSH1 0xA0 SHL SUB DUP3 AND PUSH1 0x0 SWAP1 DUP2 MSTORE PUSH1 0x3 PUSH1 0x20 MSTORE PUSH1 0x40 DUP2 KECCAK256 PUSH1 0x1 SWAP1 DUP2 ADD SLOAD DUP2 SLOAD SWAP1 SWAP3 SWAP1 PUSH2 0x430 SWAP1 DUP5 SWAP1 PUSH2 0x9AD JUMP JUMPDEST SWAP1 SWAP2 SSTORE POP POP POP PUSH1 0x1 PUSH1 0x1 PUSH1 0xA0 SHL SUB AND PUSH1 0x0 SWAP1 DUP2 MSTORE PUSH1 0x3 PUSH1 0x20 DUP2 SWAP1 MSTORE PUSH1 0x40 DUP3 KECCAK256 PUSH1 0x1 DUP2 ADD DUP1 SLOAD DUP5 DUP4 SSTORE SWAP1 DUP5 SWAP1 SSTORE PUSH1 0x2 DUP3 ADD DUP1 SLOAD PUSH1 0xFF NOT AND SWAP1 SSTORE SWAP2 ADD SWAP2 SWAP1 SWAP2 SSTORE SWAP1 JUMP JUMPDEST PUSH2 0x49E PUSH1 0x40 MLOAD DUP1 PUSH1 0x80 ADD PUSH1 0x40 MSTORE DUP1 PUSH1 0x0 DUP2 MSTORE PUSH1 0x20 ADD PUSH1 0x0 DUP2 MSTORE PUSH1 0x20 ADD PUSH1 0x0 ISZERO ISZERO DUP2 MSTORE PUSH1 0x20 ADD PUSH1 0x0 DUP2 MSTORE POP SWAP1 JUMP JUMPDEST POP PUSH1 0x1 PUSH1 0x1 PUSH1 0xA0 SHL SUB AND PUSH1 0x0 SWAP1 DUP2 MSTORE PUSH1 0x3 PUSH1 0x20 DUP2 DUP2 MSTORE PUSH1 0x40 SWAP3 DUP4 SWAP1 KECCAK256 DUP4 MLOAD PUSH1 0x80 DUP2 ADD DUP6 MSTORE DUP2 SLOAD DUP2 MSTORE PUSH1 0x1 DUP3 ADD SLOAD SWAP3 DUP2 ADD SWAP3 SWAP1 SWAP3 MSTORE PUSH1 0x2 DUP2 ADD SLOAD PUSH1 0xFF AND ISZERO ISZERO SWAP4 DUP3 ADD SWAP4 SWAP1 SWAP4 MSTORE SWAP2 ADD SLOAD PUSH1 0x60 DUP3 ADD MSTORE SWAP1 JUMP JUMPDEST PUSH2 0x4F6 PUSH2 0x629 JUMP JUMPDEST PUSH1 0x1 SLOAD DUP2 GT ISZERO PUSH2 0x548 JUMPI PUSH1 0x40 MLOAD PUSH3 0x461BCD PUSH1 0xE5 SHL DUP2 MSTORE PUSH1 0x20 PUSH1 0x4 DUP3 ADD MSTORE PUSH1 0x1A PUSH1 0x24 DUP3 ADD MSTORE PUSH32 0x496E73756666696369656E7420546F74616C2042616C616E6365000000000000 PUSH1 0x44 DUP3 ADD MSTORE PUSH1 0x64 ADD PUSH2 0x287 JUMP JUMPDEST PUSH1 0x1 PUSH1 0x1 PUSH1 0xA0 SHL SUB DUP3 AND PUSH1 0x0 SWAP1 DUP2 MSTORE PUSH1 0x3 PUSH1 0x20 MSTORE PUSH1 0x40 SWAP1 KECCAK256 PUSH1 0x1 ADD SLOAD ISZERO PUSH2 0x5B1 JUMPI PUSH1 0x40 MLOAD PUSH3 0x461BCD PUSH1 0xE5 SHL DUP2 MSTORE PUSH1 0x20 PUSH1 0x4 DUP3 ADD MSTORE PUSH1 0x1A PUSH1 0x24 DUP3 ADD MSTORE PUSH32 0x43616E6E6F742061646420526567697374657265642055736572000000000000 PUSH1 0x44 DUP3 ADD MSTORE PUSH1 0x64 ADD PUSH2 0x287 JUMP JUMPDEST PUSH1 0x1 PUSH1 0x1 PUSH1 0xA0 SHL SUB DUP3 AND PUSH1 0x0 SWAP1 DUP2 MSTORE PUSH1 0x3 PUSH1 0x20 DUP2 SWAP1 MSTORE PUSH1 0x40 DUP3 KECCAK256 DUP4 DUP2 SSTORE PUSH1 0x1 DUP1 DUP3 ADD DUP6 SWAP1 SSTORE PUSH1 0x2 DUP3 ADD DUP1 SLOAD PUSH1 0xFF NOT AND SWAP1 SSTORE SWAP2 ADD DUP2 SWAP1 SSTORE DUP2 SLOAD SWAP1 SWAP2 SWAP1 DUP2 SWAP1 PUSH2 0x5F9 SWAP1 DUP5 SWAP1 PUSH2 0x9AD JUMP JUMPDEST SWAP3 POP POP DUP2 SWAP1 SSTORE POP DUP1 PUSH1 0x1 PUSH1 0x0 DUP3 DUP3 SLOAD PUSH2 0x612 SWAP2 SWAP1 PUSH2 0x996 JUMP JUMPDEST SWAP1 SWAP2 SSTORE POP POP POP POP JUMP JUMPDEST PUSH2 0x623 PUSH2 0x629 JUMP JUMPDEST TIMESTAMP PUSH1 0x2 SSTORE JUMP JUMPDEST PUSH1 0x4 SLOAD PUSH1 0x1 PUSH1 0x1 PUSH1 0xA0 SHL SUB AND CALLER EQ PUSH2 0x683 JUMPI PUSH1 0x40 MLOAD PUSH3 0x461BCD PUSH1 0xE5 SHL DUP2 MSTORE PUSH1 0x20 PUSH1 0x4 DUP3 ADD MSTORE PUSH1 0xE PUSH1 0x24 DUP3 ADD MSTORE PUSH32 0x4E6F7420617574686F72697A6564000000000000000000000000000000000000 PUSH1 0x44 DUP3 ADD MSTORE PUSH1 0x64 ADD PUSH2 0x287 JUMP JUMPDEST JUMP JUMPDEST PUSH1 0x0 DUP1 PUSH1 0x0 PUSH3 0x15180 PUSH1 0x2 SLOAD TIMESTAMP PUSH2 0x69C SWAP2 SWAP1 PUSH2 0x996 JUMP JUMPDEST PUSH2 0x6A6 SWAP2 SWAP1 PUSH2 0x9C5 JUMP JUMPDEST SWAP1 POP PUSH2 0x1E0 DUP2 LT ISZERO PUSH2 0x76A JUMPI PUSH1 0x1 PUSH1 0x1 PUSH1 0xA0 SHL SUB DUP5 AND PUSH1 0x0 SWAP1 DUP2 MSTORE PUSH1 0x3 PUSH1 0x20 MSTORE PUSH1 0x40 SWAP1 KECCAK256 PUSH1 0x2 ADD SLOAD PUSH1 0xFF AND PUSH2 0x744 JUMPI PUSH1 0x1 PUSH1 0x1 PUSH1 0xA0 SHL SUB DUP5 AND PUSH1 0x0 SWAP1 DUP2 MSTORE PUSH1 0x3 PUSH1 0x20 MSTORE PUSH1 0x40 SWAP1 KECCAK256 SLOAD PUSH2 0x71B SWAP1 PUSH2 0x714 SWAP1 PUSH2 0x70C SWAP1 PUSH11 0x3CB5FEEC27901169E00000 SWAP1 PUSH2 0x900 JUMP JUMPDEST PUSH1 0x1 SLOAD PUSH2 0x90C JUMP JUMPDEST DUP4 SWAP1 PUSH2 0x918 JUMP JUMPDEST PUSH1 0x1 PUSH1 0x1 PUSH1 0xA0 SHL SUB DUP6 AND PUSH1 0x0 SWAP1 DUP2 MSTORE PUSH1 0x3 PUSH1 0x20 MSTORE PUSH1 0x40 SWAP1 KECCAK256 PUSH1 0x2 ADD DUP1 SLOAD PUSH1 0xFF NOT AND PUSH1 0x1 OR SWAP1 SSTORE SWAP2 POP JUMPDEST PUSH1 0x1 PUSH1 0x1 PUSH1 0xA0 SHL SUB DUP5 AND PUSH1 0x0 SWAP1 DUP2 MSTORE PUSH1 0x3 PUSH1 0x20 DUP2 SWAP1 MSTORE PUSH1 0x40 SWAP1 SWAP2 KECCAK256 PUSH2 0x1C2 SWAP2 ADD SSTORE PUSH2 0x899 JUMP JUMPDEST PUSH2 0x1E0 DUP2 LT ISZERO DUP1 ISZERO PUSH2 0x77D JUMPI POP PUSH2 0x348 DUP2 LT JUMPDEST ISZERO PUSH2 0x899 JUMPI PUSH1 0x1 PUSH1 0x1 PUSH1 0xA0 SHL SUB DUP5 AND PUSH1 0x0 SWAP1 DUP2 MSTORE PUSH1 0x3 PUSH1 0x20 MSTORE PUSH1 0x40 SWAP1 KECCAK256 PUSH1 0x2 ADD SLOAD PUSH1 0xFF AND PUSH2 0x805 JUMPI PUSH1 0x1 PUSH1 0x1 PUSH1 0xA0 SHL SUB DUP5 AND PUSH1 0x0 SWAP1 DUP2 MSTORE PUSH1 0x3 PUSH1 0x20 MSTORE PUSH1 0x40 SWAP1 KECCAK256 SLOAD PUSH2 0x7DC SWAP1 PUSH2 0x714 SWAP1 PUSH2 0x70C SWAP1 PUSH11 0x3CB5FEEC27901169E00000 SWAP1 PUSH2 0x900 JUMP JUMPDEST PUSH1 0x1 PUSH1 0x1 PUSH1 0xA0 SHL SUB DUP6 AND PUSH1 0x0 SWAP1 DUP2 MSTORE PUSH1 0x3 PUSH1 0x20 MSTORE PUSH1 0x40 SWAP1 KECCAK256 PUSH1 0x2 ADD DUP1 SLOAD PUSH1 0xFF NOT AND PUSH1 0x1 OR SWAP1 SSTORE SWAP2 POP JUMPDEST PUSH1 0x1 PUSH1 0x1 PUSH1 0xA0 SHL SUB DUP5 AND PUSH1 0x0 SWAP1 DUP2 MSTORE PUSH1 0x3 PUSH1 0x20 DUP2 SWAP1 MSTORE PUSH1 0x40 DUP3 KECCAK256 ADD SLOAD PUSH2 0x82B SWAP1 DUP4 PUSH2 0x996 JUMP JUMPDEST PUSH1 0x1 PUSH1 0x1 PUSH1 0xA0 SHL SUB DUP7 AND PUSH1 0x0 SWAP1 DUP2 MSTORE PUSH1 0x3 PUSH1 0x20 MSTORE PUSH1 0x40 SWAP1 KECCAK256 SLOAD SWAP1 SWAP2 POP PUSH2 0x86C SWAP1 PUSH2 0x865 SWAP1 PUSH2 0x70C SWAP1 PUSH11 0x3290914BE1AFB75080000 SWAP1 PUSH2 0x900 JUMP JUMPDEST DUP5 SWAP1 PUSH2 0x918 JUMP JUMPDEST PUSH2 0x876 SWAP1 DUP3 PUSH2 0x9E7 JUMP JUMPDEST PUSH1 0x1 PUSH1 0x1 PUSH1 0xA0 SHL SUB DUP7 AND PUSH1 0x0 SWAP1 DUP2 MSTORE PUSH1 0x3 PUSH1 0x20 DUP2 SWAP1 MSTORE PUSH1 0x40 SWAP1 SWAP2 KECCAK256 ADD DUP4 SWAP1 SSTORE SWAP3 POP POP JUMPDEST DUP2 PUSH2 0x8E6 JUMPI PUSH1 0x40 MLOAD PUSH3 0x461BCD PUSH1 0xE5 SHL DUP2 MSTORE PUSH1 0x20 PUSH1 0x4 DUP3 ADD MSTORE PUSH1 0x14 PUSH1 0x24 DUP3 ADD MSTORE PUSH32 0x4E6F7468696E6720746F20636C61696D20796574000000000000000000000000 PUSH1 0x44 DUP3 ADD MSTORE PUSH1 0x64 ADD PUSH2 0x287 JUMP JUMPDEST POP SWAP3 SWAP2 POP POP JUMP JUMPDEST PUSH1 0x0 PUSH2 0x8F9 DUP3 DUP5 PUSH2 0x996 JUMP JUMPDEST SWAP4 SWAP3 POP POP POP JUMP JUMPDEST PUSH1 0x0 PUSH2 0x8F9 DUP3 DUP5 PUSH2 0x9E7 JUMP JUMPDEST PUSH1 0x0 PUSH2 0x8F9 DUP3 DUP5 PUSH2 0x9C5 JUMP JUMPDEST PUSH1 0x0 PUSH2 0x8F9 DUP3 DUP5 PUSH2 0x9AD JUMP JUMPDEST DUP1 CALLDATALOAD PUSH1 0x1 PUSH1 0x1 PUSH1 0xA0 SHL SUB DUP2 AND DUP2 EQ PUSH2 0x332 JUMPI PUSH1 0x0 DUP1 REVERT JUMPDEST PUSH1 0x0 PUSH1 0x20 DUP3 DUP5 SUB SLT ISZERO PUSH2 0x94D JUMPI PUSH1 0x0 DUP1 REVERT JUMPDEST PUSH2 0x8F9 DUP3 PUSH2 0x924 JUMP JUMPDEST PUSH1 0x0 DUP1 PUSH1 0x40 DUP4 DUP6 SUB SLT ISZERO PUSH2 0x969 JUMPI PUSH1 0x0 DUP1 REVERT JUMPDEST PUSH2 0x972 DUP4 PUSH2 0x924 JUMP JUMPDEST SWAP5 PUSH1 0x20 SWAP4 SWAP1 SWAP4 ADD CALLDATALOAD SWAP4 POP POP POP JUMP JUMPDEST PUSH4 0x4E487B71 PUSH1 0xE0 SHL PUSH1 0x0 MSTORE PUSH1 0x11 PUSH1 0x4 MSTORE PUSH1 0x24 PUSH1 0x0 REVERT JUMPDEST PUSH1 0x0 DUP3 DUP3 LT ISZERO PUSH2 0x9A8 JUMPI PUSH2 0x9A8 PUSH2 0x980 JUMP JUMPDEST POP SUB SWAP1 JUMP JUMPDEST PUSH1 0x0 DUP3 NOT DUP3 GT ISZERO PUSH2 0x9C0 JUMPI PUSH2 0x9C0 PUSH2 0x980 JUMP JUMPDEST POP ADD SWAP1 JUMP JUMPDEST PUSH1 0x0 DUP3 PUSH2 0x9E2 JUMPI PUSH4 0x4E487B71 PUSH1 0xE0 SHL PUSH1 0x0 MSTORE PUSH1 0x12 PUSH1 0x4 MSTORE PUSH1 0x24 PUSH1 0x0 REVERT JUMPDEST POP DIV SWAP1 JUMP JUMPDEST PUSH1 0x0 DUP2 PUSH1 0x0 NOT DIV DUP4 GT DUP3 ISZERO ISZERO AND ISZERO PUSH2 0xA01 JUMPI PUSH2 0xA01 PUSH2 0x980 JUMP JUMPDEST POP MUL SWAP1 JUMP INVALID LOG2 PUSH5 0x6970667358 0x22 SLT KECCAK256 NUMBER SWAP13 0xC5 SWAP11 0x24 RETURNDATACOPY 0xB5 PUSH32 0xDA634421FBE6587305244C75ABE56E61E2E233453F43DA0164736F6C63430008 SIGNEXTEND STOP CALLER "
				},
				"gasEstimates": {
					"creation": {
						"codeDepositCost": "524000",
						"executionCost": "46897",
						"totalCost": "570897"
					},
					"external": {
						"addBeneficiary(address,uint256)": "146128",
						"beneficiary(address)": "9103",
						"changeTalaxAddress(address)": "26766",
						"deleteBeneficiary(address)": "97045",
						"hasWhitelist(address)": "9247",
						"initiateWhitelist()": "24479",
						"privateSaleAmount()": "2329",
						"privateSaleUsers()": "2329",
						"releaseClaimable(address)": "infinite",
						"startPrivateSale()": "2307"
					},
					"internal": {
						"_calculateClaimableAmount(address)": "infinite",
						"_onlyTalax()": "infinite"
					}
				},
				"methodIdentifiers": {
					"addBeneficiary(address,uint256)": "96074e70",
					"beneficiary(address)": "81008568",
					"changeTalaxAddress(address)": "1d77b00b",
					"deleteBeneficiary(address)": "7d3bca76",
					"hasWhitelist(address)": "8cdb7e8b",
					"initiateWhitelist()": "efdd8796",
					"privateSaleAmount()": "8b2b423a",
					"privateSaleUsers()": "549dee0b",
					"releaseClaimable(address)": "005171f4",
					"startPrivateSale()": "338dbf59"
				}
			},
			"storageLayout": {
				"storage": [
					{
						"astId": 319,
						"contract": "contracts/Whitelist.sol:Whitelist",
						"label": "privateSaleUsers",
						"offset": 0,
						"slot": "0",
						"type": "t_uint256"
					},
					{
						"astId": 321,
						"contract": "contracts/Whitelist.sol:Whitelist",
						"label": "privateSaleAmount",
						"offset": 0,
						"slot": "1",
						"type": "t_uint256"
					},
					{
						"astId": 333,
						"contract": "contracts/Whitelist.sol:Whitelist",
						"label": "startPrivateSale",
						"offset": 0,
						"slot": "2",
						"type": "t_uint256"
					},
					{
						"astId": 347,
						"contract": "contracts/Whitelist.sol:Whitelist",
						"label": "_beneficiary",
						"offset": 0,
						"slot": "3",
						"type": "t_mapping(t_address,t_struct(WhitelistStruct)342_storage)"
					},
					{
						"astId": 349,
						"contract": "contracts/Whitelist.sol:Whitelist",
						"label": "talaxAddress",
						"offset": 0,
						"slot": "4",
						"type": "t_address"
					}
				],
				"types": {
					"t_address": {
						"encoding": "inplace",
						"label": "address",
						"numberOfBytes": "20"
					},
					"t_bool": {
						"encoding": "inplace",
						"label": "bool",
						"numberOfBytes": "1"
					},
					"t_mapping(t_address,t_struct(WhitelistStruct)342_storage)": {
						"encoding": "mapping",
						"key": "t_address",
						"label": "mapping(address => struct Whitelist.WhitelistStruct)",
						"numberOfBytes": "32",
						"value": "t_struct(WhitelistStruct)342_storage"
					},
					"t_struct(WhitelistStruct)342_storage": {
						"encoding": "inplace",
						"label": "struct Whitelist.WhitelistStruct",
						"members": [
							{
								"astId": 335,
								"contract": "contracts/Whitelist.sol:Whitelist",
								"label": "lockedAmount",
								"offset": 0,
								"slot": "0",
								"type": "t_uint256"
							},
							{
								"astId": 337,
								"contract": "contracts/Whitelist.sol:Whitelist",
								"label": "amount",
								"offset": 0,
								"slot": "1",
								"type": "t_uint256"
							},
							{
								"astId": 339,
								"contract": "contracts/Whitelist.sol:Whitelist",
								"label": "isPhase1Claimed",
								"offset": 0,
								"slot": "2",
								"type": "t_bool"
							},
							{
								"astId": 341,
								"contract": "contracts/Whitelist.sol:Whitelist",
								"label": "latestClaimDay",
								"offset": 0,
								"slot": "3",
								"type": "t_uint256"
							}
						],
						"numberOfBytes": "128"
					},
					"t_uint256": {
						"encoding": "inplace",
						"label": "uint256",
						"numberOfBytes": "32"
					}
				}
			},
			"userdoc": {
				"kind": "user",
				"methods": {
					"releaseClaimable(address)": {
						"notice": "Transfers tokens held by timelock to beneficiary."
					}
				},
				"version": 1
			}
		}
	}
}