{
	"contracts/Stakable.sol": {
		"Stakable": {
			"abi": [
				{
					"inputs": [],
					"stateMutability": "nonpayable",
					"type": "constructor"
				},
				{
					"anonymous": false,
					"inputs": [
						{
							"indexed": false,
							"internalType": "uint256",
							"name": "amount",
							"type": "uint256"
						}
					],
					"name": "AirdropChanged",
					"type": "event"
				},
				{
					"anonymous": false,
					"inputs": [
						{
							"indexed": false,
							"internalType": "uint256",
							"name": "amount",
							"type": "uint256"
						}
					],
					"name": "PenaltyChanged",
					"type": "event"
				},
				{
					"anonymous": false,
					"inputs": [
						{
							"indexed": true,
							"internalType": "address",
							"name": "user",
							"type": "address"
						},
						{
							"indexed": false,
							"internalType": "uint256",
							"name": "amount",
							"type": "uint256"
						},
						{
							"indexed": false,
							"internalType": "uint256",
							"name": "timestamp",
							"type": "uint256"
						},
						{
							"indexed": false,
							"internalType": "uint256",
							"name": "releaseTime",
							"type": "uint256"
						}
					],
					"name": "Staked",
					"type": "event"
				},
				{
					"inputs": [],
					"name": "airdropRate",
					"outputs": [
						{
							"internalType": "uint256",
							"name": "",
							"type": "uint256"
						}
					],
					"stateMutability": "view",
					"type": "function"
				},
				{
					"inputs": [],
					"name": "airdropSince",
					"outputs": [
						{
							"internalType": "uint256",
							"name": "",
							"type": "uint256"
						}
					],
					"stateMutability": "view",
					"type": "function"
				},
				{
					"inputs": [],
					"name": "airdropWeek",
					"outputs": [
						{
							"internalType": "uint256",
							"name": "",
							"type": "uint256"
						}
					],
					"stateMutability": "view",
					"type": "function"
				},
				{
					"inputs": [],
					"name": "hasStake",
					"outputs": [
						{
							"components": [
								{
									"internalType": "uint256",
									"name": "total_amount",
									"type": "uint256"
								},
								{
									"internalType": "uint256",
									"name": "penalty",
									"type": "uint256"
								},
								{
									"components": [
										{
											"internalType": "address",
											"name": "user",
											"type": "address"
										},
										{
											"internalType": "uint256",
											"name": "amount",
											"type": "uint256"
										},
										{
											"internalType": "uint256",
											"name": "since",
											"type": "uint256"
										},
										{
											"internalType": "uint256",
											"name": "claimable",
											"type": "uint256"
										},
										{
											"internalType": "uint256",
											"name": "claimable_airdrop",
											"type": "uint256"
										},
										{
											"internalType": "uint256",
											"name": "rewardAPY",
											"type": "uint256"
										},
										{
											"internalType": "uint256",
											"name": "releaseTime",
											"type": "uint256"
										}
									],
									"internalType": "struct Stakable.Stake",
									"name": "stake",
									"type": "tuple"
								}
							],
							"internalType": "struct Stakable.StakingSummary",
							"name": "",
							"type": "tuple"
						}
					],
					"stateMutability": "view",
					"type": "function"
				},
				{
					"inputs": [
						{
							"internalType": "address",
							"name": "_staker",
							"type": "address"
						}
					],
					"name": "isVoter",
					"outputs": [
						{
							"internalType": "bool",
							"name": "",
							"type": "bool"
						}
					],
					"stateMutability": "view",
					"type": "function"
				},
				{
					"inputs": [],
					"name": "retractVote",
					"outputs": [],
					"stateMutability": "nonpayable",
					"type": "function"
				},
				{
					"inputs": [],
					"name": "stakingPenaltyRate",
					"outputs": [
						{
							"internalType": "uint256",
							"name": "",
							"type": "uint256"
						}
					],
					"stateMutability": "view",
					"type": "function"
				},
				{
					"inputs": [],
					"name": "totalVoters",
					"outputs": [
						{
							"internalType": "uint256",
							"name": "",
							"type": "uint256"
						}
					],
					"stateMutability": "view",
					"type": "function"
				},
				{
					"inputs": [],
					"name": "vote",
					"outputs": [],
					"stateMutability": "nonpayable",
					"type": "function"
				},
				{
					"inputs": [
						{
							"internalType": "uint256",
							"name": "",
							"type": "uint256"
						}
					],
					"name": "votedUsers",
					"outputs": [
						{
							"internalType": "uint256",
							"name": "",
							"type": "uint256"
						}
					],
					"stateMutability": "view",
					"type": "function"
				},
				{
					"inputs": [
						{
							"internalType": "address",
							"name": "",
							"type": "address"
						}
					],
					"name": "voters",
					"outputs": [
						{
							"internalType": "bool",
							"name": "votingRight",
							"type": "bool"
						}
					],
					"stateMutability": "view",
					"type": "function"
				}
			],
			"devdoc": {
				"kind": "dev",
				"methods": {},
				"version": 1
			},
			"evm": {
				"assembly": "    /* \"contracts/Stakable.sol\":155:11003  contract Stakable {... */\n  mstore(0x40, 0x80)\n    /* \"contracts/Stakable.sol\":767:909  constructor() {... */\n  callvalue\n  dup1\n  iszero\n  tag_1\n  jumpi\n  0x00\n  dup1\n  revert\ntag_1:\n  pop\n    /* \"contracts/Stakable.sol\":874:876  15 */\n  0x0f\n    /* \"contracts/Stakable.sol\":853:871  stakingPenaltyRate */\n  0x00\n    /* \"contracts/Stakable.sol\":853:876  stakingPenaltyRate = 15 */\n  sstore\n    /* \"contracts/Stakable.sol\":900:902  80 */\n  0x50\n    /* \"contracts/Stakable.sol\":886:897  airdropRate */\n  0x01\n    /* \"contracts/Stakable.sol\":886:902  airdropRate = 80 */\n  sstore\n    /* \"contracts/Stakable.sol\":155:11003  contract Stakable {... */\n  dataSize(sub_0)\n  dup1\n  dataOffset(sub_0)\n  0x00\n  codecopy\n  0x00\n  return\nstop\n\nsub_0: assembly {\n        /* \"contracts/Stakable.sol\":155:11003  contract Stakable {... */\n      mstore(0x40, 0x80)\n      callvalue\n      dup1\n      iszero\n      tag_1\n      jumpi\n      0x00\n      dup1\n      revert\n    tag_1:\n      pop\n      jumpi(tag_2, lt(calldatasize, 0x04))\n      shr(0xe0, calldataload(0x00))\n      dup1\n      0xa143a5f2\n      gt\n      tag_14\n      jumpi\n      dup1\n      0xb87da76d\n      gt\n      tag_15\n      jumpi\n      dup1\n      0xb87da76d\n      eq\n      tag_11\n      jumpi\n      dup1\n      0xcb79c2e1\n      eq\n      tag_12\n      jumpi\n      dup1\n      0xcbb3e152\n      eq\n      tag_13\n      jumpi\n      0x00\n      dup1\n      revert\n    tag_15:\n      dup1\n      0xa143a5f2\n      eq\n      tag_8\n      jumpi\n      dup1\n      0xa3ec138d\n      eq\n      tag_9\n      jumpi\n      dup1\n      0xa7771ee3\n      eq\n      tag_10\n      jumpi\n      0x00\n      dup1\n      revert\n    tag_14:\n      dup1\n      0x5f5300ff\n      gt\n      tag_16\n      jumpi\n      dup1\n      0x5f5300ff\n      eq\n      tag_5\n      jumpi\n      dup1\n      0x632a9a52\n      eq\n      tag_6\n      jumpi\n      dup1\n      0x8891cf0d\n      eq\n      tag_7\n      jumpi\n      0x00\n      dup1\n      revert\n    tag_16:\n      dup1\n      0x070c8b74\n      eq\n      tag_3\n      jumpi\n      dup1\n      0x10486b6a\n      eq\n      tag_4\n      jumpi\n    tag_2:\n      0x00\n      dup1\n      revert\n        /* \"contracts/Stakable.sol\":10211:10558  function retractVote() public votingStatusTrue {... */\n    tag_3:\n      tag_17\n      tag_18\n      jump\t// in\n    tag_17:\n      stop\n        /* \"contracts/Stakable.sol\":7349:8415  function hasStake() external view returns (StakingSummary memory) {... */\n    tag_4:\n      tag_19\n      tag_20\n      jump\t// in\n    tag_19:\n      mload(0x40)\n      tag_21\n      swap2\n      swap1\n        /* \"#utility.yul\":168:172   */\n      0x00\n        /* \"#utility.yul\":210:213   */\n      0x0120\n        /* \"#utility.yul\":199:208   */\n      dup3\n        /* \"#utility.yul\":195:214   */\n      add\n        /* \"#utility.yul\":187:214   */\n      swap1\n      pop\n        /* \"#utility.yul\":247:253   */\n      dup3\n        /* \"#utility.yul\":241:254   */\n      mload\n        /* \"#utility.yul\":230:239   */\n      dup3\n        /* \"#utility.yul\":223:255   */\n      mstore\n        /* \"#utility.yul\":311:315   */\n      0x20\n        /* \"#utility.yul\":303:309   */\n      dup4\n        /* \"#utility.yul\":299:316   */\n      add\n        /* \"#utility.yul\":293:317   */\n      mload\n        /* \"#utility.yul\":286:290   */\n      0x20\n        /* \"#utility.yul\":275:284   */\n      dup4\n        /* \"#utility.yul\":271:291   */\n      add\n        /* \"#utility.yul\":264:318   */\n      mstore\n        /* \"#utility.yul\":365:369   */\n      0x40\n        /* \"#utility.yul\":357:363   */\n      dup4\n        /* \"#utility.yul\":353:370   */\n      add\n        /* \"#utility.yul\":347:371   */\n      mload\n      sub(shl(0xa0, 0x01), 0x01)\n        /* \"#utility.yul\":419:431   */\n      dup2\n        /* \"#utility.yul\":413:432   */\n      mload\n        /* \"#utility.yul\":409:477   */\n      and\n        /* \"#utility.yul\":402:406   */\n      0x40\n        /* \"#utility.yul\":391:400   */\n      dup5\n        /* \"#utility.yul\":387:407   */\n      add\n        /* \"#utility.yul\":380:478   */\n      mstore\n        /* \"#utility.yul\":538:542   */\n      0x20\n        /* \"#utility.yul\":524:536   */\n      dup2\n        /* \"#utility.yul\":520:543   */\n      add\n        /* \"#utility.yul\":514:544   */\n      mload\n        /* \"#utility.yul\":509:511   */\n      0x60\n        /* \"#utility.yul\":498:507   */\n      dup5\n        /* \"#utility.yul\":494:512   */\n      add\n        /* \"#utility.yul\":487:545   */\n      mstore\n        /* \"#utility.yul\":606:610   */\n      0x40\n        /* \"#utility.yul\":592:604   */\n      dup2\n        /* \"#utility.yul\":588:611   */\n      add\n        /* \"#utility.yul\":582:612   */\n      mload\n        /* \"#utility.yul\":576:579   */\n      0x80\n        /* \"#utility.yul\":565:574   */\n      dup5\n        /* \"#utility.yul\":561:580   */\n      add\n        /* \"#utility.yul\":554:613   */\n      mstore\n        /* \"#utility.yul\":674:676   */\n      0x60\n        /* \"#utility.yul\":660:672   */\n      dup2\n        /* \"#utility.yul\":656:677   */\n      add\n        /* \"#utility.yul\":650:678   */\n      mload\n        /* \"#utility.yul\":644:647   */\n      0xa0\n        /* \"#utility.yul\":633:642   */\n      dup5\n        /* \"#utility.yul\":629:648   */\n      add\n        /* \"#utility.yul\":622:679   */\n      mstore\n        /* \"#utility.yul\":740:743   */\n      0x80\n        /* \"#utility.yul\":726:738   */\n      dup2\n        /* \"#utility.yul\":722:744   */\n      add\n        /* \"#utility.yul\":716:745   */\n      mload\n        /* \"#utility.yul\":710:713   */\n      0xc0\n        /* \"#utility.yul\":699:708   */\n      dup5\n        /* \"#utility.yul\":695:714   */\n      add\n        /* \"#utility.yul\":688:746   */\n      mstore\n        /* \"#utility.yul\":807:810   */\n      0xa0\n        /* \"#utility.yul\":793:805   */\n      dup2\n        /* \"#utility.yul\":789:811   */\n      add\n        /* \"#utility.yul\":783:812   */\n      mload\n        /* \"#utility.yul\":777:780   */\n      0xe0\n        /* \"#utility.yul\":766:775   */\n      dup5\n        /* \"#utility.yul\":762:781   */\n      add\n        /* \"#utility.yul\":755:813   */\n      mstore\n        /* \"#utility.yul\":874:877   */\n      0xc0\n        /* \"#utility.yul\":860:872   */\n      dup2\n        /* \"#utility.yul\":856:878   */\n      add\n        /* \"#utility.yul\":850:879   */\n      mload\n        /* \"#utility.yul\":844:847   */\n      0x0100\n        /* \"#utility.yul\":833:842   */\n      dup5\n        /* \"#utility.yul\":829:848   */\n      add\n        /* \"#utility.yul\":822:880   */\n      mstore\n      pop\n        /* \"#utility.yul\":14:886   */\n      swap3\n      swap2\n      pop\n      pop\n      jump\n        /* \"contracts/Stakable.sol\":7349:8415  function hasStake() external view returns (StakingSummary memory) {... */\n    tag_21:\n      mload(0x40)\n      dup1\n      swap2\n      sub\n      swap1\n      return\n        /* \"contracts/Stakable.sol\":638:664  uint256 public totalVoters */\n    tag_5:\n      tag_23\n      sload(0x05)\n      dup2\n      jump\n    tag_23:\n      mload(0x40)\n        /* \"#utility.yul\":1037:1062   */\n      swap1\n      dup2\n      mstore\n        /* \"#utility.yul\":1025:1027   */\n      0x20\n        /* \"#utility.yul\":1010:1028   */\n      add\n        /* \"contracts/Stakable.sol\":638:664  uint256 public totalVoters */\n      tag_21\n        /* \"#utility.yul\":891:1068   */\n      jump\n        /* \"contracts/Stakable.sol\":9867:10205  function vote() public votingStatusTrue {... */\n    tag_6:\n      tag_17\n      tag_28\n      jump\t// in\n        /* \"contracts/Stakable.sol\":507:533  uint256 public airdropRate */\n    tag_7:\n      tag_23\n      sload(0x01)\n      dup2\n      jump\n        /* \"contracts/Stakable.sol\":715:760  mapping(uint256 => uint256) public votedUsers */\n    tag_8:\n      tag_23\n      tag_33\n      calldatasize\n      0x04\n      tag_34\n      jump\t// in\n    tag_33:\n      mstore(0x20, 0x07)\n      0x00\n      swap1\n      dup2\n      mstore\n      0x40\n      swap1\n      keccak256\n      sload\n      dup2\n      jump\n        /* \"contracts/Stakable.sol\":670:709  mapping(address => Voter) public voters */\n    tag_9:\n      tag_37\n      tag_38\n      calldatasize\n      0x04\n      tag_39\n      jump\t// in\n    tag_38:\n      mstore(0x20, 0x06)\n      0x00\n      swap1\n      dup2\n      mstore\n      0x40\n      swap1\n      keccak256\n      sload\n      0xff\n      and\n      dup2\n      jump\n    tag_37:\n      mload(0x40)\n        /* \"#utility.yul\":1737:1751   */\n      swap1\n      iszero\n        /* \"#utility.yul\":1730:1752   */\n      iszero\n        /* \"#utility.yul\":1712:1753   */\n      dup2\n      mstore\n        /* \"#utility.yul\":1700:1702   */\n      0x20\n        /* \"#utility.yul\":1685:1703   */\n      add\n        /* \"contracts/Stakable.sol\":670:709  mapping(address => Voter) public voters */\n      tag_21\n        /* \"#utility.yul\":1572:1759   */\n      jump\n        /* \"contracts/Stakable.sol\":9689:9861  function isVoter(address _staker) public view returns (bool) {... */\n    tag_10:\n      tag_37\n      tag_44\n      calldatasize\n      0x04\n      tag_39\n      jump\t// in\n    tag_44:\n      tag_45\n      jump\t// in\n        /* \"contracts/Stakable.sol\":539:566  uint256 public airdropSince */\n    tag_11:\n      tag_23\n      sload(0x02)\n      dup2\n      jump\n        /* \"contracts/Stakable.sol\":468:501  uint256 public stakingPenaltyRate */\n    tag_12:\n      tag_23\n      sload(0x00)\n      dup2\n      jump\n        /* \"contracts/Stakable.sol\":9204:9408  function airdropWeek() public view returns (uint256) {... */\n    tag_13:\n      tag_23\n      tag_54\n      jump\t// in\n        /* \"contracts/Stakable.sol\":10211:10558  function retractVote() public votingStatusTrue {... */\n    tag_18:\n        /* \"contracts/Stakable.sol\":1289:1309  _checkVotingStatus() */\n      tag_57\n        /* \"contracts/Stakable.sol\":1289:1307  _checkVotingStatus */\n      tag_58\n        /* \"contracts/Stakable.sol\":1289:1309  _checkVotingStatus() */\n      jump\t// in\n    tag_57:\n        /* \"contracts/Stakable.sol\":10283:10293  msg.sender */\n      caller\n        /* \"contracts/Stakable.sol\":10276:10294  voters[msg.sender] */\n      0x00\n      swap1\n      dup2\n      mstore\n        /* \"contracts/Stakable.sol\":10276:10282  voters */\n      0x06\n        /* \"contracts/Stakable.sol\":10276:10294  voters[msg.sender] */\n      0x20\n      mstore\n      0x40\n      swap1\n      keccak256\n        /* \"contracts/Stakable.sol\":10276:10306  voters[msg.sender].votingRight */\n      sload\n      0xff\n      and\n        /* \"contracts/Stakable.sol\":10276:10314  voters[msg.sender].votingRight == true */\n      iszero\n      iszero\n        /* \"contracts/Stakable.sol\":10276:10306  voters[msg.sender].votingRight */\n      0x01\n        /* \"contracts/Stakable.sol\":10276:10314  voters[msg.sender].votingRight == true */\n      eq\n        /* \"contracts/Stakable.sol\":10268:10338  require(voters[msg.sender].votingRight == true, \"You are not a voter\") */\n      tag_60\n      jumpi\n      mload(0x40)\n      shl(0xe5, 0x461bcd)\n      dup2\n      mstore\n        /* \"#utility.yul\":1966:1968   */\n      0x20\n        /* \"contracts/Stakable.sol\":10268:10338  require(voters[msg.sender].votingRight == true, \"You are not a voter\") */\n      0x04\n      dup3\n      add\n        /* \"#utility.yul\":1948:1969   */\n      mstore\n        /* \"#utility.yul\":2005:2007   */\n      0x13\n        /* \"#utility.yul\":1985:2003   */\n      0x24\n      dup3\n      add\n        /* \"#utility.yul\":1978:2008   */\n      mstore\n        /* \"#utility.yul\":2044:2065   */\n      0x596f7520617265206e6f74206120766f74657200000000000000000000000000\n        /* \"#utility.yul\":2024:2042   */\n      0x44\n      dup3\n      add\n        /* \"#utility.yul\":2017:2066   */\n      mstore\n        /* \"#utility.yul\":2083:2101   */\n      0x64\n      add\n        /* \"contracts/Stakable.sol\":10268:10338  require(voters[msg.sender].votingRight == true, \"You are not a voter\") */\n    tag_61:\n      mload(0x40)\n      dup1\n      swap2\n      sub\n      swap1\n      revert\n    tag_60:\n        /* \"contracts/Stakable.sol\":10376:10386  msg.sender */\n      caller\n        /* \"contracts/Stakable.sol\":10369:10387  voters[msg.sender] */\n      0x00\n      swap1\n      dup2\n      mstore\n        /* \"contracts/Stakable.sol\":10369:10375  voters */\n      0x06\n        /* \"contracts/Stakable.sol\":10369:10387  voters[msg.sender] */\n      0x20\n      swap1\n      dup2\n      mstore\n      0x40\n      dup1\n      dup4\n      keccak256\n        /* \"contracts/Stakable.sol\":10394:10403  _votingId */\n      sload(0x04)\n        /* \"contracts/Stakable.sol\":10369:10404  voters[msg.sender].voted[_votingId] */\n      dup5\n      mstore\n        /* \"contracts/Stakable.sol\":10369:10393  voters[msg.sender].voted */\n      0x01\n      swap1\n      dup2\n      add\n        /* \"contracts/Stakable.sol\":10369:10404  voters[msg.sender].voted[_votingId] */\n      swap1\n      swap3\n      mstore\n      swap1\n      swap2\n      keccak256\n      sload\n      0xff\n      and\n        /* \"contracts/Stakable.sol\":10369:10412  voters[msg.sender].voted[_votingId] == true */\n      iszero\n      iszero\n      eq\n        /* \"contracts/Stakable.sol\":10348:10460  require(... */\n      tag_63\n      jumpi\n      mload(0x40)\n      shl(0xe5, 0x461bcd)\n      dup2\n      mstore\n        /* \"#utility.yul\":2314:2316   */\n      0x20\n        /* \"contracts/Stakable.sol\":10348:10460  require(... */\n      0x04\n      dup3\n      add\n        /* \"#utility.yul\":2296:2317   */\n      mstore\n        /* \"#utility.yul\":2353:2355   */\n      0x16\n        /* \"#utility.yul\":2333:2351   */\n      0x24\n      dup3\n      add\n        /* \"#utility.yul\":2326:2356   */\n      mstore\n        /* \"#utility.yul\":2392:2416   */\n      0x596f752068617665206e6f7420766f7465642079657400000000000000000000\n        /* \"#utility.yul\":2372:2390   */\n      0x44\n      dup3\n      add\n        /* \"#utility.yul\":2365:2417   */\n      mstore\n        /* \"#utility.yul\":2434:2452   */\n      0x64\n      add\n        /* \"contracts/Stakable.sol\":10348:10460  require(... */\n      tag_61\n        /* \"#utility.yul\":2112:2458   */\n      jump\n        /* \"contracts/Stakable.sol\":10348:10460  require(... */\n    tag_63:\n        /* \"contracts/Stakable.sol\":10496:10505  _votingId */\n      sload(0x04)\n        /* \"contracts/Stakable.sol\":10471:10489  voters[msg.sender] */\n      0x00\n        /* \"contracts/Stakable.sol\":10471:10506  voters[msg.sender].voted[_votingId] */\n      swap1\n      dup2\n      mstore\n        /* \"contracts/Stakable.sol\":10525:10535  votedUsers */\n      0x07\n        /* \"contracts/Stakable.sol\":10471:10489  voters[msg.sender] */\n      0x20\n        /* \"contracts/Stakable.sol\":10525:10546  votedUsers[_votingId] */\n      mstore\n        /* \"contracts/Stakable.sol\":10471:10489  voters[msg.sender] */\n      0x40\n        /* \"contracts/Stakable.sol\":10525:10546  votedUsers[_votingId] */\n      dup2\n      keccak256\n        /* \"contracts/Stakable.sol\":10525:10551  votedUsers[_votingId] -= 1 */\n      dup1\n      sload\n        /* \"contracts/Stakable.sol\":10471:10495  voters[msg.sender].voted */\n      0x01\n      swap3\n        /* \"contracts/Stakable.sol\":10471:10489  voters[msg.sender] */\n      swap1\n        /* \"contracts/Stakable.sol\":10525:10551  votedUsers[_votingId] -= 1 */\n      tag_66\n      swap1\n        /* \"contracts/Stakable.sol\":10471:10495  voters[msg.sender].voted */\n      dup5\n      swap1\n        /* \"contracts/Stakable.sol\":10525:10551  votedUsers[_votingId] -= 1 */\n      tag_67\n      jump\t// in\n    tag_66:\n      swap1\n      swap2\n      sstore\n      pop\n      pop\n        /* \"contracts/Stakable.sol\":10211:10558  function retractVote() public votingStatusTrue {... */\n      jump\t// out\n        /* \"contracts/Stakable.sol\":7349:8415  function hasStake() external view returns (StakingSummary memory) {... */\n    tag_20:\n        /* \"contracts/Stakable.sol\":7392:7413  StakingSummary memory */\n      tag_68\n      tag_69\n      jump\t// in\n    tag_68:\n        /* \"contracts/Stakable.sol\":7464:7474  msg.sender */\n      caller\n        /* \"contracts/Stakable.sol\":7425:7448  Stakeholder memory data */\n      0x00\n        /* \"contracts/Stakable.sol\":7451:7475  stakeholders[msg.sender] */\n      swap1\n      dup2\n      mstore\n        /* \"contracts/Stakable.sol\":7451:7463  stakeholders */\n      0x08\n        /* \"contracts/Stakable.sol\":7451:7475  stakeholders[msg.sender] */\n      0x20\n      dup2\n      dup2\n      mstore\n      0x40\n      dup1\n      dup5\n      keccak256\n        /* \"contracts/Stakable.sol\":7425:7475  Stakeholder memory data = stakeholders[msg.sender] */\n      dup2\n      mload\n      0x0140\n      dup2\n      add\n      dup4\n      mstore\n      dup2\n      sload\n      sub(shl(0xa0, 0x01), 0x01)\n      swap1\n      dup2\n      and\n      0x60\n      dup1\n      dup5\n      add\n      swap2\n      dup3\n      mstore\n      0x01\n      dup6\n      add\n      sload\n      0x80\n      dup6\n      add\n      mstore\n      0x02\n      dup6\n      add\n      sload\n      0xa0\n      dup6\n      add\n      mstore\n      0x03\n      dup6\n      add\n      sload\n      0xc0\n      dup6\n      add\n      mstore\n      0x04\n      dup6\n      add\n      sload\n      0xe0\n      dup6\n      add\n      mstore\n      0x05\n      dup6\n      add\n      sload\n      0x0100\n      dup6\n      add\n      mstore\n      0x06\n      dup6\n      add\n      sload\n      0x0120\n      dup6\n      add\n      mstore\n      swap1\n      dup4\n      mstore\n      0x07\n      dup5\n      add\n      sload\n      swap1\n      swap2\n      and\n      dup3\n      dup7\n      add\n      mstore\n      swap2\n      swap1\n      swap5\n      add\n      sload\n      dup5\n      dup4\n      add\n      mstore\n        /* \"contracts/Stakable.sol\":7517:7549  StakingSummary(0, 0, data.stake) */\n      dup2\n      mload\n      swap1\n      dup2\n      add\n      dup3\n      mstore\n      dup5\n      dup2\n      mstore\n      dup1\n      dup4\n      add\n      swap5\n      swap1\n      swap5\n      mstore\n        /* \"contracts/Stakable.sol\":7538:7548  data.stake */\n      dup3\n      mload\n        /* \"contracts/Stakable.sol\":7517:7549  StakingSummary(0, 0, data.stake) */\n      swap1\n      dup5\n      add\n      dup2\n      swap1\n      mstore\n        /* \"contracts/Stakable.sol\":7575:7595  summary.stake.amount */\n      add\n      mload\n        /* \"contracts/Stakable.sol\":7425:7475  Stakeholder memory data = stakeholders[msg.sender] */\n      swap1\n      swap2\n        /* \"contracts/Stakable.sol\":7517:7549  StakingSummary(0, 0, data.stake) */\n      swap1\n        /* \"contracts/Stakable.sol\":7559:7596  _checkUserStake(summary.stake.amount) */\n      tag_71\n      swap1\n        /* \"contracts/Stakable.sol\":7559:7574  _checkUserStake */\n      tag_72\n        /* \"contracts/Stakable.sol\":7559:7596  _checkUserStake(summary.stake.amount) */\n      jump\t// in\n    tag_71:\n        /* \"contracts/Stakable.sol\":7607:7630  uint256 availableReward */\n      0x00\n        /* \"contracts/Stakable.sol\":7633:7668  calculateStakeReward(summary.stake) */\n      tag_73\n        /* \"contracts/Stakable.sol\":7654:7661  summary */\n      dup3\n        /* \"contracts/Stakable.sol\":7654:7667  summary.stake */\n      0x40\n      add\n      mload\n        /* \"contracts/Stakable.sol\":7633:7653  calculateStakeReward */\n      tag_74\n        /* \"contracts/Stakable.sol\":7633:7668  calculateStakeReward(summary.stake) */\n      jump\t// in\n    tag_73:\n        /* \"contracts/Stakable.sol\":7607:7668  uint256 availableReward = calculateStakeReward(summary.stake) */\n      swap1\n      pop\n        /* \"contracts/Stakable.sol\":7678:7693  uint256 penalty */\n      0x00\n        /* \"contracts/Stakable.sol\":7736:7751  block.timestamp */\n      timestamp\n        /* \"contracts/Stakable.sol\":7708:7715  summary */\n      dup4\n        /* \"contracts/Stakable.sol\":7708:7721  summary.stake */\n      0x40\n      add\n      mload\n        /* \"contracts/Stakable.sol\":7708:7733  summary.stake.releaseTime */\n      0xc0\n      add\n      mload\n        /* \"contracts/Stakable.sol\":7708:7751  summary.stake.releaseTime > block.timestamp */\n      gt\n        /* \"contracts/Stakable.sol\":7704:7985  if (summary.stake.releaseTime > block.timestamp) {... */\n      iszero\n      tag_75\n      jumpi\n        /* \"contracts/Stakable.sol\":7768:7790  uint256 amount_penalty */\n      0x00\n        /* \"contracts/Stakable.sol\":7792:7814  uint256 reward_penalty */\n      dup1\n        /* \"contracts/Stakable.sol\":7818:7919  calculatePenalty(... */\n      tag_76\n        /* \"contracts/Stakable.sol\":7852:7859  summary */\n      dup6\n        /* \"contracts/Stakable.sol\":7852:7865  summary.stake */\n      0x40\n      add\n      mload\n        /* \"contracts/Stakable.sol\":7852:7872  summary.stake.amount */\n      0x20\n      add\n      mload\n        /* \"contracts/Stakable.sol\":7890:7905  availableReward */\n      dup6\n        /* \"contracts/Stakable.sol\":7818:7834  calculatePenalty */\n      tag_77\n        /* \"contracts/Stakable.sol\":7818:7919  calculatePenalty(... */\n      jump\t// in\n    tag_76:\n        /* \"contracts/Stakable.sol\":7767:7919  (uint256 amount_penalty, uint256 reward_penalty) = calculatePenalty(... */\n      swap1\n      swap3\n      pop\n      swap1\n      pop\n        /* \"contracts/Stakable.sol\":7943:7974  amount_penalty + reward_penalty */\n      tag_78\n        /* \"contracts/Stakable.sol\":7767:7919  (uint256 amount_penalty, uint256 reward_penalty) = calculatePenalty(... */\n      dup2\n      dup4\n        /* \"contracts/Stakable.sol\":7943:7974  amount_penalty + reward_penalty */\n      tag_79\n      jump\t// in\n    tag_78:\n        /* \"contracts/Stakable.sol\":7933:7974  penalty = amount_penalty + reward_penalty */\n      swap3\n      pop\n        /* \"contracts/Stakable.sol\":7753:7985  {... */\n      pop\n      pop\n        /* \"contracts/Stakable.sol\":7704:7985  if (summary.stake.releaseTime > block.timestamp) {... */\n    tag_75:\n        /* \"contracts/Stakable.sol\":8038:8039  0 */\n      0x00\n        /* \"contracts/Stakable.sol\":7999:8035  _calculateWeek(data.latestClaimDrop) */\n      tag_80\n        /* \"contracts/Stakable.sol\":8014:8018  data */\n      dup6\n        /* \"contracts/Stakable.sol\":8014:8034  data.latestClaimDrop */\n      0x40\n      add\n      mload\n        /* \"contracts/Stakable.sol\":7999:8013  _calculateWeek */\n      tag_81\n        /* \"contracts/Stakable.sol\":7999:8035  _calculateWeek(data.latestClaimDrop) */\n      jump\t// in\n    tag_80:\n        /* \"contracts/Stakable.sol\":7999:8039  _calculateWeek(data.latestClaimDrop) > 0 */\n      gt\n        /* \"contracts/Stakable.sol\":7995:8244  if (_calculateWeek(data.latestClaimDrop) > 0) {... */\n      iszero\n      tag_82\n      jumpi\n        /* \"contracts/Stakable.sol\":8055:8070  uint256 airdrop */\n      0x00\n        /* \"contracts/Stakable.sol\":8073:8112  _calculateAirdrop(summary.stake.amount) */\n      tag_83\n        /* \"contracts/Stakable.sol\":8091:8098  summary */\n      dup5\n        /* \"contracts/Stakable.sol\":8091:8104  summary.stake */\n      0x40\n      add\n      mload\n        /* \"contracts/Stakable.sol\":8091:8111  summary.stake.amount */\n      0x20\n      add\n      mload\n        /* \"contracts/Stakable.sol\":8073:8090  _calculateAirdrop */\n      tag_84\n        /* \"contracts/Stakable.sol\":8073:8112  _calculateAirdrop(summary.stake.amount) */\n      jump\t// in\n    tag_83:\n        /* \"contracts/Stakable.sol\":8126:8139  summary.stake */\n      0x40\n      dup6\n      add\n      mload\n        /* \"contracts/Stakable.sol\":8126:8157  summary.stake.claimable_airdrop */\n      0x80\n      add\n        /* \"contracts/Stakable.sol\":8126:8167  summary.stake.claimable_airdrop = airdrop */\n      mstore\n      pop\n        /* \"contracts/Stakable.sol\":7995:8244  if (_calculateWeek(data.latestClaimDrop) > 0) {... */\n      jump(tag_85)\n    tag_82:\n        /* \"contracts/Stakable.sol\":8198:8211  summary.stake */\n      0x40\n      dup4\n      add\n      mload\n        /* \"contracts/Stakable.sol\":8232:8233  0 */\n      0x00\n        /* \"contracts/Stakable.sol\":8198:8229  summary.stake.claimable_airdrop */\n      0x80\n      swap1\n      swap2\n      add\n        /* \"contracts/Stakable.sol\":8198:8233  summary.stake.claimable_airdrop = 0 */\n      mstore\n        /* \"contracts/Stakable.sol\":7995:8244  if (_calculateWeek(data.latestClaimDrop) > 0) {... */\n    tag_85:\n        /* \"contracts/Stakable.sol\":8254:8267  summary.stake */\n      0x40\n      dup4\n      add\n      dup1\n      mload\n        /* \"contracts/Stakable.sol\":8254:8277  summary.stake.claimable */\n      0x60\n      add\n        /* \"contracts/Stakable.sol\":8254:8295  summary.stake.claimable = availableReward */\n      swap3\n      swap1\n      swap3\n      mstore\n        /* \"contracts/Stakable.sol\":8305:8320  summary.penalty */\n      0x20\n      dup1\n      dup5\n      add\n        /* \"contracts/Stakable.sol\":8305:8330  summary.penalty = penalty */\n      swap2\n      swap1\n      swap2\n      mstore\n        /* \"contracts/Stakable.sol\":8363:8376  summary.stake */\n      swap1\n      mload\n        /* \"contracts/Stakable.sol\":8363:8383  summary.stake.amount */\n      add\n      mload\n        /* \"contracts/Stakable.sol\":8340:8383  summary.total_amount = summary.stake.amount */\n      dup2\n      mstore\n        /* \"contracts/Stakable.sol\":8254:8261  summary */\n      swap3\n        /* \"contracts/Stakable.sol\":7349:8415  function hasStake() external view returns (StakingSummary memory) {... */\n      swap2\n      pop\n      pop\n      jump\t// out\n        /* \"contracts/Stakable.sol\":9867:10205  function vote() public votingStatusTrue {... */\n    tag_28:\n        /* \"contracts/Stakable.sol\":1289:1309  _checkVotingStatus() */\n      tag_87\n        /* \"contracts/Stakable.sol\":1289:1307  _checkVotingStatus */\n      tag_58\n        /* \"contracts/Stakable.sol\":1289:1309  _checkVotingStatus() */\n      jump\t// in\n    tag_87:\n        /* \"contracts/Stakable.sol\":9932:9942  msg.sender */\n      caller\n        /* \"contracts/Stakable.sol\":9925:9943  voters[msg.sender] */\n      0x00\n      swap1\n      dup2\n      mstore\n        /* \"contracts/Stakable.sol\":9925:9931  voters */\n      0x06\n        /* \"contracts/Stakable.sol\":9925:9943  voters[msg.sender] */\n      0x20\n      mstore\n      0x40\n      swap1\n      keccak256\n        /* \"contracts/Stakable.sol\":9925:9955  voters[msg.sender].votingRight */\n      sload\n      0xff\n      and\n        /* \"contracts/Stakable.sol\":9925:9963  voters[msg.sender].votingRight == true */\n      iszero\n      iszero\n        /* \"contracts/Stakable.sol\":9925:9955  voters[msg.sender].votingRight */\n      0x01\n        /* \"contracts/Stakable.sol\":9925:9963  voters[msg.sender].votingRight == true */\n      eq\n        /* \"contracts/Stakable.sol\":9917:9987  require(voters[msg.sender].votingRight == true, \"You are not a voter\") */\n      tag_89\n      jumpi\n      mload(0x40)\n      shl(0xe5, 0x461bcd)\n      dup2\n      mstore\n        /* \"#utility.yul\":1966:1968   */\n      0x20\n        /* \"contracts/Stakable.sol\":9917:9987  require(voters[msg.sender].votingRight == true, \"You are not a voter\") */\n      0x04\n      dup3\n      add\n        /* \"#utility.yul\":1948:1969   */\n      mstore\n        /* \"#utility.yul\":2005:2007   */\n      0x13\n        /* \"#utility.yul\":1985:2003   */\n      0x24\n      dup3\n      add\n        /* \"#utility.yul\":1978:2008   */\n      mstore\n        /* \"#utility.yul\":2044:2065   */\n      0x596f7520617265206e6f74206120766f74657200000000000000000000000000\n        /* \"#utility.yul\":2024:2042   */\n      0x44\n      dup3\n      add\n        /* \"#utility.yul\":2017:2066   */\n      mstore\n        /* \"#utility.yul\":2083:2101   */\n      0x64\n      add\n        /* \"contracts/Stakable.sol\":9917:9987  require(voters[msg.sender].votingRight == true, \"You are not a voter\") */\n      tag_61\n        /* \"#utility.yul\":1764:2107   */\n      jump\n        /* \"contracts/Stakable.sol\":9917:9987  require(voters[msg.sender].votingRight == true, \"You are not a voter\") */\n    tag_89:\n        /* \"contracts/Stakable.sol\":10025:10035  msg.sender */\n      caller\n        /* \"contracts/Stakable.sol\":10018:10036  voters[msg.sender] */\n      0x00\n      swap1\n      dup2\n      mstore\n        /* \"contracts/Stakable.sol\":10018:10024  voters */\n      0x06\n        /* \"contracts/Stakable.sol\":10018:10036  voters[msg.sender] */\n      0x20\n      swap1\n      dup2\n      mstore\n      0x40\n      dup1\n      dup4\n      keccak256\n        /* \"contracts/Stakable.sol\":10043:10052  _votingId */\n      sload(0x04)\n        /* \"contracts/Stakable.sol\":10018:10053  voters[msg.sender].voted[_votingId] */\n      dup5\n      mstore\n        /* \"contracts/Stakable.sol\":10018:10042  voters[msg.sender].voted */\n      0x01\n      add\n        /* \"contracts/Stakable.sol\":10018:10053  voters[msg.sender].voted[_votingId] */\n      swap1\n      swap2\n      mstore\n      swap1\n      keccak256\n      sload\n      0xff\n      and\n        /* \"contracts/Stakable.sol\":10018:10062  voters[msg.sender].voted[_votingId] == false */\n      iszero\n        /* \"contracts/Stakable.sol\":9997:10109  require(... */\n      tag_91\n      jumpi\n      mload(0x40)\n      shl(0xe5, 0x461bcd)\n      dup2\n      mstore\n        /* \"#utility.yul\":3117:3119   */\n      0x20\n        /* \"contracts/Stakable.sol\":9997:10109  require(... */\n      0x04\n      dup3\n      add\n        /* \"#utility.yul\":3099:3120   */\n      mstore\n        /* \"#utility.yul\":3156:3158   */\n      0x15\n        /* \"#utility.yul\":3136:3154   */\n      0x24\n      dup3\n      add\n        /* \"#utility.yul\":3129:3159   */\n      mstore\n        /* \"#utility.yul\":3195:3218   */\n      0x596f75206861766520766f746564206265666f72650000000000000000000000\n        /* \"#utility.yul\":3175:3193   */\n      0x44\n      dup3\n      add\n        /* \"#utility.yul\":3168:3219   */\n      mstore\n        /* \"#utility.yul\":3236:3254   */\n      0x64\n      add\n        /* \"contracts/Stakable.sol\":9997:10109  require(... */\n      tag_61\n        /* \"#utility.yul\":2915:3260   */\n      jump\n        /* \"contracts/Stakable.sol\":9997:10109  require(... */\n    tag_91:\n        /* \"contracts/Stakable.sol\":10127:10137  msg.sender */\n      caller\n        /* \"contracts/Stakable.sol\":10120:10138  voters[msg.sender] */\n      0x00\n      swap1\n      dup2\n      mstore\n        /* \"contracts/Stakable.sol\":10120:10126  voters */\n      0x06\n        /* \"contracts/Stakable.sol\":10120:10138  voters[msg.sender] */\n      0x20\n      swap1\n      dup2\n      mstore\n      0x40\n      dup1\n      dup4\n      keccak256\n        /* \"contracts/Stakable.sol\":10145:10154  _votingId */\n      0x04\n      dup1\n      sload\n        /* \"contracts/Stakable.sol\":10120:10155  voters[msg.sender].voted[_votingId] */\n      dup6\n      mstore\n        /* \"contracts/Stakable.sol\":10158:10162  true */\n      0x01\n        /* \"contracts/Stakable.sol\":10120:10144  voters[msg.sender].voted */\n      swap2\n      dup3\n      add\n        /* \"contracts/Stakable.sol\":10120:10155  voters[msg.sender].voted[_votingId] */\n      dup5\n      mstore\n      dup3\n      dup6\n      keccak256\n        /* \"contracts/Stakable.sol\":10120:10162  voters[msg.sender].voted[_votingId] = true */\n      dup1\n      sload\n      not(0xff)\n      and\n      dup4\n      or\n      swap1\n      sstore\n        /* \"contracts/Stakable.sol\":10183:10192  _votingId */\n      sload\n        /* \"contracts/Stakable.sol\":10172:10193  votedUsers[_votingId] */\n      dup5\n      mstore\n        /* \"contracts/Stakable.sol\":10172:10182  votedUsers */\n      0x07\n        /* \"contracts/Stakable.sol\":10172:10193  votedUsers[_votingId] */\n      swap1\n      swap3\n      mstore\n      dup3\n      keccak256\n        /* \"contracts/Stakable.sol\":10172:10198  votedUsers[_votingId] += 1 */\n      dup1\n      sload\n        /* \"contracts/Stakable.sol\":10158:10162  true */\n      swap2\n      swap3\n        /* \"contracts/Stakable.sol\":10172:10193  votedUsers[_votingId] */\n      swap1\n      swap2\n        /* \"contracts/Stakable.sol\":10172:10198  votedUsers[_votingId] += 1 */\n      tag_66\n      swap1\n        /* \"contracts/Stakable.sol\":10158:10162  true */\n      dup5\n      swap1\n        /* \"contracts/Stakable.sol\":10172:10198  votedUsers[_votingId] += 1 */\n      tag_79\n      jump\t// in\n        /* \"contracts/Stakable.sol\":9689:9861  function isVoter(address _staker) public view returns (bool) {... */\n    tag_45:\n        /* \"contracts/Stakable.sol\":9744:9748  bool */\n      0x00\n      sub(shl(0xa0, 0x01), 0x01)\n        /* \"contracts/Stakable.sol\":9768:9789  _staker != address(0) */\n      dup3\n      and\n        /* \"contracts/Stakable.sol\":9760:9809  require(_staker != address(0), \"Invalid address\") */\n      tag_96\n      jumpi\n      mload(0x40)\n      shl(0xe5, 0x461bcd)\n      dup2\n      mstore\n        /* \"#utility.yul\":3467:3469   */\n      0x20\n        /* \"contracts/Stakable.sol\":9760:9809  require(_staker != address(0), \"Invalid address\") */\n      0x04\n      dup3\n      add\n        /* \"#utility.yul\":3449:3470   */\n      mstore\n        /* \"#utility.yul\":3506:3508   */\n      0x0f\n        /* \"#utility.yul\":3486:3504   */\n      0x24\n      dup3\n      add\n        /* \"#utility.yul\":3479:3509   */\n      mstore\n        /* \"#utility.yul\":3545:3562   */\n      0x496e76616c696420616464726573730000000000000000000000000000000000\n        /* \"#utility.yul\":3525:3543   */\n      0x44\n      dup3\n      add\n        /* \"#utility.yul\":3518:3563   */\n      mstore\n        /* \"#utility.yul\":3580:3598   */\n      0x64\n      add\n        /* \"contracts/Stakable.sol\":9760:9809  require(_staker != address(0), \"Invalid address\") */\n      tag_61\n        /* \"#utility.yul\":3265:3604   */\n      jump\n        /* \"contracts/Stakable.sol\":9760:9809  require(_staker != address(0), \"Invalid address\") */\n    tag_96:\n      pop\n      sub(shl(0xa0, 0x01), 0x01)\n        /* \"contracts/Stakable.sol\":9827:9842  voters[_staker] */\n      and\n      0x00\n      swap1\n      dup2\n      mstore\n        /* \"contracts/Stakable.sol\":9827:9833  voters */\n      0x06\n        /* \"contracts/Stakable.sol\":9827:9842  voters[_staker] */\n      0x20\n      mstore\n      0x40\n      swap1\n      keccak256\n        /* \"contracts/Stakable.sol\":9827:9854  voters[_staker].votingRight */\n      sload\n      0xff\n      and\n      swap1\n        /* \"contracts/Stakable.sol\":9689:9861  function isVoter(address _staker) public view returns (bool) {... */\n      jump\t// out\n        /* \"contracts/Stakable.sol\":9204:9408  function airdropWeek() public view returns (uint256) {... */\n    tag_54:\n        /* \"contracts/Stakable.sol\":9248:9255  uint256 */\n      0x00\n        /* \"contracts/Stakable.sol\":9271:9283  airdropSince */\n      sload(0x02)\n        /* \"contracts/Stakable.sol\":9287:9288  0 */\n      0x00\n        /* \"contracts/Stakable.sol\":9271:9288  airdropSince != 0 */\n      eq\n        /* \"contracts/Stakable.sol\":9267:9402  if (airdropSince != 0) {... */\n      tag_100\n      jumpi\n        /* \"contracts/Stakable.sol\":9346:9352  7 days */\n      0x093a80\n        /* \"contracts/Stakable.sol\":9330:9342  airdropSince */\n      sload(0x02)\n        /* \"contracts/Stakable.sol\":9312:9327  block.timestamp */\n      timestamp\n        /* \"contracts/Stakable.sol\":9312:9342  block.timestamp - airdropSince */\n      tag_101\n      swap2\n      swap1\n      tag_67\n      jump\t// in\n    tag_101:\n        /* \"contracts/Stakable.sol\":9311:9352  (block.timestamp - airdropSince) / 7 days */\n      tag_102\n      swap2\n      swap1\n      tag_103\n      jump\t// in\n    tag_102:\n        /* \"contracts/Stakable.sol\":9304:9352  return (block.timestamp - airdropSince) / 7 days */\n      swap1\n      pop\n        /* \"contracts/Stakable.sol\":9204:9408  function airdropWeek() public view returns (uint256) {... */\n      swap1\n      jump\t// out\n        /* \"contracts/Stakable.sol\":9267:9402  if (airdropSince != 0) {... */\n    tag_100:\n      pop\n        /* \"contracts/Stakable.sol\":9390:9391  0 */\n      0x00\n      swap1\n        /* \"contracts/Stakable.sol\":9204:9408  function airdropWeek() public view returns (uint256) {... */\n      jump\t// out\n        /* \"contracts/Stakable.sol\":1135:1245  function _checkVotingStatus() internal view {... */\n    tag_58:\n        /* \"contracts/Stakable.sol\":1197:1210  _votingStatus */\n      and(0xff, sload(0x03))\n        /* \"contracts/Stakable.sol\":1189:1238  require(_votingStatus, \"Voting is not available\") */\n      tag_106\n      jumpi\n      mload(0x40)\n      shl(0xe5, 0x461bcd)\n      dup2\n      mstore\n        /* \"#utility.yul\":4279:4281   */\n      0x20\n        /* \"contracts/Stakable.sol\":1189:1238  require(_votingStatus, \"Voting is not available\") */\n      0x04\n      dup3\n      add\n        /* \"#utility.yul\":4261:4282   */\n      mstore\n        /* \"#utility.yul\":4318:4320   */\n      0x17\n        /* \"#utility.yul\":4298:4316   */\n      0x24\n      dup3\n      add\n        /* \"#utility.yul\":4291:4321   */\n      mstore\n        /* \"#utility.yul\":4357:4382   */\n      0x566f74696e67206973206e6f7420617661696c61626c65000000000000000000\n        /* \"#utility.yul\":4337:4355   */\n      0x44\n      dup3\n      add\n        /* \"#utility.yul\":4330:4383   */\n      mstore\n        /* \"#utility.yul\":4400:4418   */\n      0x64\n      add\n        /* \"contracts/Stakable.sol\":1189:1238  require(_votingStatus, \"Voting is not available\") */\n      tag_61\n        /* \"#utility.yul\":4077:4424   */\n      jump\n        /* \"contracts/Stakable.sol\":1189:1238  require(_votingStatus, \"Voting is not available\") */\n    tag_106:\n        /* \"contracts/Stakable.sol\":1135:1245  function _checkVotingStatus() internal view {... */\n      jump\t// out\n        /* \"contracts/Stakable.sol\":1020:1129  function _checkUserStake(uint256 amount) internal pure {... */\n    tag_72:\n        /* \"contracts/Stakable.sol\":1102:1103  0 */\n      0x00\n        /* \"contracts/Stakable.sol\":1093:1099  amount */\n      dup2\n        /* \"contracts/Stakable.sol\":1093:1103  amount > 0 */\n      gt\n        /* \"contracts/Stakable.sol\":1085:1122  require(amount > 0, \"No Stake Found\") */\n      tag_110\n      jumpi\n      mload(0x40)\n      shl(0xe5, 0x461bcd)\n      dup2\n      mstore\n        /* \"#utility.yul\":4631:4633   */\n      0x20\n        /* \"contracts/Stakable.sol\":1085:1122  require(amount > 0, \"No Stake Found\") */\n      0x04\n      dup3\n      add\n        /* \"#utility.yul\":4613:4634   */\n      mstore\n        /* \"#utility.yul\":4670:4672   */\n      0x0e\n        /* \"#utility.yul\":4650:4668   */\n      0x24\n      dup3\n      add\n        /* \"#utility.yul\":4643:4673   */\n      mstore\n        /* \"#utility.yul\":4709:4725   */\n      0x4e6f205374616b6520466f756e64000000000000000000000000000000000000\n        /* \"#utility.yul\":4689:4707   */\n      0x44\n      dup3\n      add\n        /* \"#utility.yul\":4682:4726   */\n      mstore\n        /* \"#utility.yul\":4743:4761   */\n      0x64\n      add\n        /* \"contracts/Stakable.sol\":1085:1122  require(amount > 0, \"No Stake Found\") */\n      tag_61\n        /* \"#utility.yul\":4429:4767   */\n      jump\n        /* \"contracts/Stakable.sol\":1085:1122  require(amount > 0, \"No Stake Found\") */\n    tag_110:\n        /* \"contracts/Stakable.sol\":1020:1129  function _checkUserStake(uint256 amount) internal pure {... */\n      pop\n      jump\t// out\n        /* \"contracts/Stakable.sol\":5097:5532  function calculateStakeReward(Stake memory user_stake)... */\n    tag_74:\n        /* \"contracts/Stakable.sol\":5199:5206  uint256 */\n      0x00\n        /* \"contracts/Stakable.sol\":5226:5236  user_stake */\n      dup2\n        /* \"contracts/Stakable.sol\":5226:5243  user_stake.amount */\n      0x20\n      add\n      mload\n        /* \"contracts/Stakable.sol\":5247:5248  0 */\n      0x00\n        /* \"contracts/Stakable.sol\":5226:5248  user_stake.amount == 0 */\n      eq\n        /* \"contracts/Stakable.sol\":5222:5283  if (user_stake.amount == 0) {... */\n      iszero\n      tag_114\n      jumpi\n      pop\n        /* \"contracts/Stakable.sol\":5271:5272  0 */\n      0x00\n      swap2\n        /* \"contracts/Stakable.sol\":5097:5532  function calculateStakeReward(Stake memory user_stake)... */\n      swap1\n      pop\n      jump\t// out\n        /* \"contracts/Stakable.sol\":5222:5283  if (user_stake.amount == 0) {... */\n    tag_114:\n        /* \"contracts/Stakable.sol\":5521:5525  1e26 */\n      0x52b7d2dcc80cd2e4000000\n        /* \"contracts/Stakable.sol\":5475:5517  calculateStakingDuration(user_stake.since) */\n      tag_115\n        /* \"contracts/Stakable.sol\":5500:5510  user_stake */\n      dup4\n        /* \"contracts/Stakable.sol\":5500:5516  user_stake.since */\n      0x40\n      add\n      mload\n        /* \"contracts/Stakable.sol\":5475:5499  calculateStakingDuration */\n      tag_116\n        /* \"contracts/Stakable.sol\":5475:5517  calculateStakingDuration(user_stake.since) */\n      jump\t// in\n    tag_115:\n        /* \"contracts/Stakable.sol\":5436:5446  user_stake */\n      dup4\n        /* \"contracts/Stakable.sol\":5436:5456  user_stake.rewardAPY */\n      0xa0\n      add\n      mload\n        /* \"contracts/Stakable.sol\":5400:5410  user_stake */\n      dup5\n        /* \"contracts/Stakable.sol\":5400:5417  user_stake.amount */\n      0x20\n      add\n      mload\n        /* \"contracts/Stakable.sol\":5400:5456  user_stake.amount *... */\n      tag_117\n      swap2\n      swap1\n      tag_118\n      jump\t// in\n    tag_117:\n        /* \"contracts/Stakable.sol\":5400:5517  user_stake.amount *... */\n      tag_119\n      swap2\n      swap1\n      tag_118\n      jump\t// in\n    tag_119:\n        /* \"contracts/Stakable.sol\":5399:5525  (user_stake.amount *... */\n      tag_120\n      swap2\n      swap1\n      tag_103\n      jump\t// in\n    tag_120:\n        /* \"contracts/Stakable.sol\":5380:5525  return... */\n      swap3\n        /* \"contracts/Stakable.sol\":5097:5532  function calculateStakeReward(Stake memory user_stake)... */\n      swap2\n      pop\n      pop\n      jump\t// out\n        /* \"contracts/Stakable.sol\":5538:5847  function calculatePenalty(uint256 amount, uint256 reward)... */\n    tag_77:\n        /* \"contracts/Stakable.sol\":5643:5650  uint256 */\n      0x00\n        /* \"contracts/Stakable.sol\":5652:5659  uint256 */\n      dup1\n        /* \"contracts/Stakable.sol\":5696:5756  SafeMath.div(SafeMath.mul(amount, stakingPenaltyRate), 1000) */\n      tag_122\n        /* \"contracts/Stakable.sol\":5709:5749  SafeMath.mul(amount, stakingPenaltyRate) */\n      tag_123\n        /* \"contracts/Stakable.sol\":5722:5728  amount */\n      dup6\n        /* \"contracts/Stakable.sol\":5730:5748  stakingPenaltyRate */\n      sload(0x00)\n        /* \"contracts/Stakable.sol\":5709:5721  SafeMath.mul */\n      tag_124\n        /* \"contracts/Stakable.sol\":5709:5749  SafeMath.mul(amount, stakingPenaltyRate) */\n      jump\t// in\n    tag_123:\n        /* \"contracts/Stakable.sol\":5751:5755  1000 */\n      0x03e8\n        /* \"contracts/Stakable.sol\":5696:5708  SafeMath.div */\n      tag_125\n        /* \"contracts/Stakable.sol\":5696:5756  SafeMath.div(SafeMath.mul(amount, stakingPenaltyRate), 1000) */\n      jump\t// in\n    tag_122:\n        /* \"contracts/Stakable.sol\":5770:5830  SafeMath.div(SafeMath.mul(reward, stakingPenaltyRate), 1000) */\n      tag_126\n        /* \"contracts/Stakable.sol\":5783:5823  SafeMath.mul(reward, stakingPenaltyRate) */\n      tag_123\n        /* \"contracts/Stakable.sol\":5796:5802  reward */\n      dup6\n        /* \"contracts/Stakable.sol\":5804:5822  stakingPenaltyRate */\n      sload(0x00)\n        /* \"contracts/Stakable.sol\":5783:5795  SafeMath.mul */\n      tag_124\n        /* \"contracts/Stakable.sol\":5783:5823  SafeMath.mul(reward, stakingPenaltyRate) */\n      jump\t// in\n        /* \"contracts/Stakable.sol\":5770:5830  SafeMath.div(SafeMath.mul(reward, stakingPenaltyRate), 1000) */\n    tag_126:\n        /* \"contracts/Stakable.sol\":5675:5840  return (... */\n      swap2\n      pop\n      swap2\n      pop\n        /* \"contracts/Stakable.sol\":5538:5847  function calculatePenalty(uint256 amount, uint256 reward)... */\n      swap3\n      pop\n      swap3\n      swap1\n      pop\n      jump\t// out\n        /* \"contracts/Stakable.sol\":2916:3048  function _calculateWeek(uint256 input) internal view returns (uint256) {... */\n    tag_81:\n        /* \"contracts/Stakable.sol\":2978:2985  uint256 */\n      0x00\n        /* \"contracts/Stakable.sol\":3004:3041  (block.timestamp - input).div(7 days) */\n      tag_120\n        /* \"contracts/Stakable.sol\":3034:3040  7 days */\n      0x093a80\n        /* \"contracts/Stakable.sol\":3005:3028  block.timestamp - input */\n      tag_130\n        /* \"contracts/Stakable.sol\":3023:3028  input */\n      dup5\n        /* \"contracts/Stakable.sol\":3005:3020  block.timestamp */\n      timestamp\n        /* \"contracts/Stakable.sol\":3005:3028  block.timestamp - input */\n      tag_67\n      jump\t// in\n    tag_130:\n        /* \"contracts/Stakable.sol\":3004:3033  (block.timestamp - input).div */\n      swap1\n      tag_125\n        /* \"contracts/Stakable.sol\":3004:3041  (block.timestamp - input).div(7 days) */\n      jump\t// in\n        /* \"contracts/Stakable.sol\":8526:8705  function _calculateAirdrop(uint256 stakeAmount)... */\n    tag_84:\n        /* \"contracts/Stakable.sol\":8621:8628  uint256 */\n      0x00\n        /* \"contracts/Stakable.sol\":8690:8698  52 weeks */\n      0x01dfe200\n        /* \"contracts/Stakable.sol\":8682:8686  1000 */\n      0x03e8\n        /* \"contracts/Stakable.sol\":8667:8678  airdropRate */\n      sload(0x01)\n        /* \"contracts/Stakable.sol\":8653:8664  stakeAmount */\n      dup5\n        /* \"contracts/Stakable.sol\":8653:8678  stakeAmount * airdropRate */\n      tag_132\n      swap2\n      swap1\n      tag_118\n      jump\t// in\n    tag_132:\n        /* \"contracts/Stakable.sol\":8652:8686  (stakeAmount * airdropRate) / 1000 */\n      tag_119\n      swap2\n      swap1\n      tag_103\n      jump\t// in\n        /* \"contracts/Stakable.sol\":4690:5091  function calculateStakingDuration(uint256 since_)... */\n    tag_116:\n        /* \"contracts/Stakable.sol\":4787:4794  uint256 */\n      0x00\n        /* \"contracts/Stakable.sol\":4827:4828  0 */\n      dup1\n        /* \"contracts/Stakable.sol\":4818:4824  since_ */\n      dup3\n        /* \"contracts/Stakable.sol\":4818:4828  since_ > 0 */\n      gt\n        /* \"contracts/Stakable.sol\":4810:4850  require(since_ > 0, \"Error timestamp 0\") */\n      tag_136\n      jumpi\n      mload(0x40)\n      shl(0xe5, 0x461bcd)\n      dup2\n      mstore\n        /* \"#utility.yul\":5147:5149   */\n      0x20\n        /* \"contracts/Stakable.sol\":4810:4850  require(since_ > 0, \"Error timestamp 0\") */\n      0x04\n      dup3\n      add\n        /* \"#utility.yul\":5129:5150   */\n      mstore\n        /* \"#utility.yul\":5186:5188   */\n      0x11\n        /* \"#utility.yul\":5166:5184   */\n      0x24\n      dup3\n      add\n        /* \"#utility.yul\":5159:5189   */\n      mstore\n        /* \"#utility.yul\":5225:5244   */\n      0x4572726f722074696d657374616d702030000000000000000000000000000000\n        /* \"#utility.yul\":5205:5223   */\n      0x44\n      dup3\n      add\n        /* \"#utility.yul\":5198:5245   */\n      mstore\n        /* \"#utility.yul\":5262:5280   */\n      0x64\n      add\n        /* \"contracts/Stakable.sol\":4810:4850  require(since_ > 0, \"Error timestamp 0\") */\n      tag_61\n        /* \"#utility.yul\":4945:5286   */\n      jump\n        /* \"contracts/Stakable.sol\":4810:4850  require(since_ > 0, \"Error timestamp 0\") */\n    tag_136:\n        /* \"contracts/Stakable.sol\":4932:5084  SafeMath.div(... */\n      tag_120\n        /* \"contracts/Stakable.sol\":4963:4987  block.timestamp - since_ */\n      tag_140\n        /* \"contracts/Stakable.sol\":4981:4987  since_ */\n      dup4\n        /* \"contracts/Stakable.sol\":4963:4978  block.timestamp */\n      timestamp\n        /* \"contracts/Stakable.sol\":4963:4987  block.timestamp - since_ */\n      tag_67\n      jump\t// in\n    tag_140:\n        /* \"contracts/Stakable.sol\":4962:4995  (block.timestamp - since_) * 1e24 */\n      tag_141\n      swap1\n        /* \"contracts/Stakable.sol\":4991:4995  1e24 */\n      0xd3c21bcecceda1000000\n        /* \"contracts/Stakable.sol\":4962:4995  (block.timestamp - since_) * 1e24 */\n      tag_118\n      jump\t// in\n    tag_141:\n        /* \"contracts/Stakable.sol\":5013:5021  365 days */\n      0x01e13380\n        /* \"contracts/Stakable.sol\":4932:5084  SafeMath.div(... */\n      mload(0x40)\n      dup1\n      0x40\n      add\n      0x40\n      mstore\n      dup1\n      0x1d\n      dup2\n      mstore\n      0x20\n      add\n      0x4572726f722063616e6e6f74206469766964652074696d657374616d70000000\n      dup2\n      mstore\n      pop\n        /* \"contracts/Stakable.sol\":4932:4944  SafeMath.div */\n      tag_142\n        /* \"contracts/Stakable.sol\":4932:5084  SafeMath.div(... */\n      jump\t// in\n        /* \"@openzeppelin/contracts/utils/math/SafeMath.sol\":3451:3547  function mul(uint256 a, uint256 b) internal pure returns (uint256) {... */\n    tag_124:\n        /* \"@openzeppelin/contracts/utils/math/SafeMath.sol\":3509:3516  uint256 */\n      0x00\n        /* \"@openzeppelin/contracts/utils/math/SafeMath.sol\":3535:3540  a * b */\n      tag_144\n        /* \"@openzeppelin/contracts/utils/math/SafeMath.sol\":3539:3540  b */\n      dup3\n        /* \"@openzeppelin/contracts/utils/math/SafeMath.sol\":3535:3536  a */\n      dup5\n        /* \"@openzeppelin/contracts/utils/math/SafeMath.sol\":3535:3540  a * b */\n      tag_118\n      jump\t// in\n    tag_144:\n        /* \"@openzeppelin/contracts/utils/math/SafeMath.sol\":3528:3540  return a * b */\n      swap4\n        /* \"@openzeppelin/contracts/utils/math/SafeMath.sol\":3451:3547  function mul(uint256 a, uint256 b) internal pure returns (uint256) {... */\n      swap3\n      pop\n      pop\n      pop\n      jump\t// out\n        /* \"@openzeppelin/contracts/utils/math/SafeMath.sol\":3836:3932  function div(uint256 a, uint256 b) internal pure returns (uint256) {... */\n    tag_125:\n        /* \"@openzeppelin/contracts/utils/math/SafeMath.sol\":3894:3901  uint256 */\n      0x00\n        /* \"@openzeppelin/contracts/utils/math/SafeMath.sol\":3920:3925  a / b */\n      tag_144\n        /* \"@openzeppelin/contracts/utils/math/SafeMath.sol\":3924:3925  b */\n      dup3\n        /* \"@openzeppelin/contracts/utils/math/SafeMath.sol\":3920:3921  a */\n      dup5\n        /* \"@openzeppelin/contracts/utils/math/SafeMath.sol\":3920:3925  a / b */\n      tag_103\n      jump\t// in\n        /* \"@openzeppelin/contracts/utils/math/SafeMath.sol\":5660:5890  function div(... */\n    tag_142:\n        /* \"@openzeppelin/contracts/utils/math/SafeMath.sol\":5776:5783  uint256 */\n      0x00\n        /* \"@openzeppelin/contracts/utils/math/SafeMath.sol\":5834:5846  errorMessage */\n      dup2\n        /* \"@openzeppelin/contracts/utils/math/SafeMath.sol\":5827:5832  b > 0 */\n      dup4\n        /* \"@openzeppelin/contracts/utils/math/SafeMath.sol\":5819:5847  require(b > 0, errorMessage) */\n      tag_148\n      jumpi\n      mload(0x40)\n      shl(0xe5, 0x461bcd)\n      dup2\n      mstore\n      0x04\n      add\n      tag_61\n      swap2\n      swap1\n      tag_150\n      jump\t// in\n    tag_148:\n      pop\n        /* \"@openzeppelin/contracts/utils/math/SafeMath.sol\":5872:5873  b */\n      dup3\n        /* \"@openzeppelin/contracts/utils/math/SafeMath.sol\":5868:5869  a */\n      dup5\n        /* \"@openzeppelin/contracts/utils/math/SafeMath.sol\":5868:5873  a / b */\n      dup2\n      tag_152\n      jumpi\n      tag_152\n      tag_153\n      jump\t// in\n    tag_152:\n      div\n      swap5\n        /* \"@openzeppelin/contracts/utils/math/SafeMath.sol\":5660:5890  function div(... */\n      swap4\n      pop\n      pop\n      pop\n      pop\n      jump\t// out\n    tag_69:\n      mload(0x40)\n      dup1\n      0x60\n      add\n      0x40\n      mstore\n      dup1\n      0x00\n      dup2\n      mstore\n      0x20\n      add\n      0x00\n      dup2\n      mstore\n      0x20\n      add\n      tag_154\n      mload(0x40)\n      dup1\n      0xe0\n      add\n      0x40\n      mstore\n      dup1\n      and(sub(shl(0xa0, 0x01), 0x01), 0x00)\n      dup2\n      mstore\n      0x20\n      add\n      0x00\n      dup2\n      mstore\n      0x20\n      add\n      0x00\n      dup2\n      mstore\n      0x20\n      add\n      0x00\n      dup2\n      mstore\n      0x20\n      add\n      0x00\n      dup2\n      mstore\n      0x20\n      add\n      0x00\n      dup2\n      mstore\n      0x20\n      add\n      0x00\n      dup2\n      mstore\n      pop\n      swap1\n      jump\n    tag_154:\n      swap1\n      mstore\n      swap1\n      jump\t// out\n        /* \"#utility.yul\":1073:1253   */\n    tag_34:\n        /* \"#utility.yul\":1132:1138   */\n      0x00\n        /* \"#utility.yul\":1185:1187   */\n      0x20\n        /* \"#utility.yul\":1173:1182   */\n      dup3\n        /* \"#utility.yul\":1164:1171   */\n      dup5\n        /* \"#utility.yul\":1160:1183   */\n      sub\n        /* \"#utility.yul\":1156:1188   */\n      slt\n        /* \"#utility.yul\":1153:1205   */\n      iszero\n      tag_161\n      jumpi\n        /* \"#utility.yul\":1201:1202   */\n      0x00\n        /* \"#utility.yul\":1198:1199   */\n      dup1\n        /* \"#utility.yul\":1191:1203   */\n      revert\n        /* \"#utility.yul\":1153:1205   */\n    tag_161:\n      pop\n        /* \"#utility.yul\":1224:1247   */\n      calldataload\n      swap2\n        /* \"#utility.yul\":1073:1253   */\n      swap1\n      pop\n      jump\t// out\n        /* \"#utility.yul\":1258:1567   */\n    tag_39:\n        /* \"#utility.yul\":1317:1323   */\n      0x00\n        /* \"#utility.yul\":1370:1372   */\n      0x20\n        /* \"#utility.yul\":1358:1367   */\n      dup3\n        /* \"#utility.yul\":1349:1356   */\n      dup5\n        /* \"#utility.yul\":1345:1368   */\n      sub\n        /* \"#utility.yul\":1341:1373   */\n      slt\n        /* \"#utility.yul\":1338:1390   */\n      iszero\n      tag_163\n      jumpi\n        /* \"#utility.yul\":1386:1387   */\n      0x00\n        /* \"#utility.yul\":1383:1384   */\n      dup1\n        /* \"#utility.yul\":1376:1388   */\n      revert\n        /* \"#utility.yul\":1338:1390   */\n    tag_163:\n        /* \"#utility.yul\":1425:1434   */\n      dup2\n        /* \"#utility.yul\":1412:1435   */\n      calldataload\n      sub(shl(0xa0, 0x01), 0x01)\n        /* \"#utility.yul\":1468:1473   */\n      dup2\n        /* \"#utility.yul\":1464:1518   */\n      and\n        /* \"#utility.yul\":1457:1462   */\n      dup2\n        /* \"#utility.yul\":1454:1519   */\n      eq\n        /* \"#utility.yul\":1444:1537   */\n      tag_144\n      jumpi\n        /* \"#utility.yul\":1533:1534   */\n      0x00\n        /* \"#utility.yul\":1530:1531   */\n      dup1\n        /* \"#utility.yul\":1523:1535   */\n      revert\n        /* \"#utility.yul\":2463:2647   */\n    tag_156:\n      shl(0xe0, 0x4e487b71)\n        /* \"#utility.yul\":2512:2513   */\n      0x00\n        /* \"#utility.yul\":2505:2593   */\n      mstore\n        /* \"#utility.yul\":2612:2616   */\n      0x11\n        /* \"#utility.yul\":2609:2610   */\n      0x04\n        /* \"#utility.yul\":2602:2617   */\n      mstore\n        /* \"#utility.yul\":2636:2640   */\n      0x24\n        /* \"#utility.yul\":2633:2634   */\n      0x00\n        /* \"#utility.yul\":2626:2641   */\n      revert\n        /* \"#utility.yul\":2652:2777   */\n    tag_67:\n        /* \"#utility.yul\":2692:2696   */\n      0x00\n        /* \"#utility.yul\":2720:2721   */\n      dup3\n        /* \"#utility.yul\":2717:2718   */\n      dup3\n        /* \"#utility.yul\":2714:2722   */\n      lt\n        /* \"#utility.yul\":2711:2745   */\n      iszero\n      tag_171\n      jumpi\n        /* \"#utility.yul\":2725:2743   */\n      tag_171\n      tag_156\n      jump\t// in\n    tag_171:\n      pop\n        /* \"#utility.yul\":2762:2771   */\n      sub\n      swap1\n        /* \"#utility.yul\":2652:2777   */\n      jump\t// out\n        /* \"#utility.yul\":2782:2910   */\n    tag_79:\n        /* \"#utility.yul\":2822:2825   */\n      0x00\n        /* \"#utility.yul\":2853:2854   */\n      dup3\n        /* \"#utility.yul\":2849:2855   */\n      not\n        /* \"#utility.yul\":2846:2847   */\n      dup3\n        /* \"#utility.yul\":2843:2856   */\n      gt\n        /* \"#utility.yul\":2840:2879   */\n      iszero\n      tag_174\n      jumpi\n        /* \"#utility.yul\":2859:2877   */\n      tag_174\n      tag_156\n      jump\t// in\n    tag_174:\n      pop\n        /* \"#utility.yul\":2895:2904   */\n      add\n      swap1\n        /* \"#utility.yul\":2782:2910   */\n      jump\t// out\n        /* \"#utility.yul\":3609:3793   */\n    tag_153:\n      shl(0xe0, 0x4e487b71)\n        /* \"#utility.yul\":3658:3659   */\n      0x00\n        /* \"#utility.yul\":3651:3739   */\n      mstore\n        /* \"#utility.yul\":3758:3762   */\n      0x12\n        /* \"#utility.yul\":3755:3756   */\n      0x04\n        /* \"#utility.yul\":3748:3763   */\n      mstore\n        /* \"#utility.yul\":3782:3786   */\n      0x24\n        /* \"#utility.yul\":3779:3780   */\n      0x00\n        /* \"#utility.yul\":3772:3787   */\n      revert\n        /* \"#utility.yul\":3798:4072   */\n    tag_103:\n        /* \"#utility.yul\":3838:3839   */\n      0x00\n        /* \"#utility.yul\":3864:3865   */\n      dup3\n        /* \"#utility.yul\":3854:4043   */\n      tag_179\n      jumpi\n      shl(0xe0, 0x4e487b71)\n        /* \"#utility.yul\":3896:3897   */\n      0x00\n        /* \"#utility.yul\":3889:3977   */\n      mstore\n        /* \"#utility.yul\":4000:4004   */\n      0x12\n        /* \"#utility.yul\":3997:3998   */\n      0x04\n        /* \"#utility.yul\":3990:4005   */\n      mstore\n        /* \"#utility.yul\":4028:4032   */\n      0x24\n        /* \"#utility.yul\":4025:4026   */\n      0x00\n        /* \"#utility.yul\":4018:4033   */\n      revert\n        /* \"#utility.yul\":3854:4043   */\n    tag_179:\n      pop\n        /* \"#utility.yul\":4057:4066   */\n      div\n      swap1\n        /* \"#utility.yul\":3798:4072   */\n      jump\t// out\n        /* \"#utility.yul\":4772:4940   */\n    tag_118:\n        /* \"#utility.yul\":4812:4819   */\n      0x00\n        /* \"#utility.yul\":4878:4879   */\n      dup2\n        /* \"#utility.yul\":4874:4875   */\n      0x00\n        /* \"#utility.yul\":4870:4876   */\n      not\n        /* \"#utility.yul\":4866:4880   */\n      div\n        /* \"#utility.yul\":4863:4864   */\n      dup4\n        /* \"#utility.yul\":4860:4881   */\n      gt\n        /* \"#utility.yul\":4855:4856   */\n      dup3\n        /* \"#utility.yul\":4848:4857   */\n      iszero\n        /* \"#utility.yul\":4841:4858   */\n      iszero\n        /* \"#utility.yul\":4837:4882   */\n      and\n        /* \"#utility.yul\":4834:4905   */\n      iszero\n      tag_184\n      jumpi\n        /* \"#utility.yul\":4885:4903   */\n      tag_184\n      tag_156\n      jump\t// in\n    tag_184:\n      pop\n        /* \"#utility.yul\":4925:4934   */\n      mul\n      swap1\n        /* \"#utility.yul\":4772:4940   */\n      jump\t// out\n        /* \"#utility.yul\":5291:5888   */\n    tag_150:\n        /* \"#utility.yul\":5403:5407   */\n      0x00\n        /* \"#utility.yul\":5432:5434   */\n      0x20\n        /* \"#utility.yul\":5461:5463   */\n      dup1\n        /* \"#utility.yul\":5450:5459   */\n      dup4\n        /* \"#utility.yul\":5443:5464   */\n      mstore\n        /* \"#utility.yul\":5493:5499   */\n      dup4\n        /* \"#utility.yul\":5487:5500   */\n      mload\n        /* \"#utility.yul\":5536:5542   */\n      dup1\n        /* \"#utility.yul\":5531:5533   */\n      dup3\n        /* \"#utility.yul\":5520:5529   */\n      dup6\n        /* \"#utility.yul\":5516:5534   */\n      add\n        /* \"#utility.yul\":5509:5543   */\n      mstore\n        /* \"#utility.yul\":5561:5562   */\n      0x00\n        /* \"#utility.yul\":5571:5711   */\n    tag_187:\n        /* \"#utility.yul\":5585:5591   */\n      dup2\n        /* \"#utility.yul\":5582:5583   */\n      dup2\n        /* \"#utility.yul\":5579:5592   */\n      lt\n        /* \"#utility.yul\":5571:5711   */\n      iszero\n      tag_189\n      jumpi\n        /* \"#utility.yul\":5680:5694   */\n      dup6\n      dup2\n      add\n        /* \"#utility.yul\":5676:5699   */\n      dup4\n      add\n        /* \"#utility.yul\":5670:5700   */\n      mload\n        /* \"#utility.yul\":5646:5663   */\n      dup6\n      dup3\n      add\n        /* \"#utility.yul\":5665:5667   */\n      0x40\n        /* \"#utility.yul\":5642:5668   */\n      add\n        /* \"#utility.yul\":5635:5701   */\n      mstore\n        /* \"#utility.yul\":5600:5610   */\n      dup3\n      add\n        /* \"#utility.yul\":5571:5711   */\n      jump(tag_187)\n    tag_189:\n        /* \"#utility.yul\":5729:5735   */\n      dup2\n        /* \"#utility.yul\":5726:5727   */\n      dup2\n        /* \"#utility.yul\":5723:5736   */\n      gt\n        /* \"#utility.yul\":5720:5811   */\n      iszero\n      tag_190\n      jumpi\n        /* \"#utility.yul\":5799:5800   */\n      0x00\n        /* \"#utility.yul\":5794:5796   */\n      0x40\n        /* \"#utility.yul\":5785:5791   */\n      dup4\n        /* \"#utility.yul\":5774:5783   */\n      dup8\n        /* \"#utility.yul\":5770:5792   */\n      add\n        /* \"#utility.yul\":5766:5797   */\n      add\n        /* \"#utility.yul\":5759:5801   */\n      mstore\n        /* \"#utility.yul\":5720:5811   */\n    tag_190:\n      pop\n        /* \"#utility.yul\":5872:5874   */\n      0x1f\n        /* \"#utility.yul\":5851:5866   */\n      add\n      not(0x1f)\n        /* \"#utility.yul\":5847:5876   */\n      and\n        /* \"#utility.yul\":5832:5877   */\n      swap3\n      swap1\n      swap3\n      add\n        /* \"#utility.yul\":5879:5881   */\n      0x40\n        /* \"#utility.yul\":5828:5882   */\n      add\n      swap4\n        /* \"#utility.yul\":5291:5888   */\n      swap3\n      pop\n      pop\n      pop\n      jump\t// out\n\n    auxdata: 0xa26469706673582212209c1dc3a346f833b52af1a3ae22a4c3f27114c66503e1d71bc44f44b757f0aeba64736f6c634300080b0033\n}\n",
				"bytecode": {
					"linkReferences": {},
					"object": "608060405234801561001057600080fd5b50600f6000556050600155610a9c8061002a6000396000f3fe608060405234801561001057600080fd5b50600436106100c95760003560e01c8063a143a5f211610081578063b87da76d1161005b578063b87da76d146101ef578063cb79c2e1146101f8578063cbb3e1521461020157600080fd5b8063a143a5f214610189578063a3ec138d146101a9578063a7771ee3146101dc57600080fd5b80635f5300ff116100b25780635f5300ff14610161578063632a9a52146101785780638891cf0d1461018057600080fd5b8063070c8b74146100ce57806310486b6a146100d8575b600080fd5b6100d6610209565b005b6100e0610318565b6040516101589190600061012082019050825182526020830151602083015260408301516001600160a01b0381511660408401526020810151606084015260408101516080840152606081015160a0840152608081015160c084015260a081015160e084015260c08101516101008401525092915050565b60405180910390f35b61016a60055481565b604051908152602001610158565b6100d6610480565b61016a60015481565b61016a610197366004610933565b60076020526000908152604090205481565b6101cc6101b736600461094c565b60066020526000908152604090205460ff1681565b6040519015158152602001610158565b6101cc6101ea36600461094c565b6105a3565b61016a60025481565b61016a60005481565b61016a61061a565b61021161064d565b3360009081526006602052604090205460ff16151560011461027a5760405162461bcd60e51b815260206004820152601360248201527f596f7520617265206e6f74206120766f7465720000000000000000000000000060448201526064015b60405180910390fd5b336000908152600660209081526040808320600454845260019081019092529091205460ff161515146102ef5760405162461bcd60e51b815260206004820152601660248201527f596f752068617665206e6f7420766f74656420796574000000000000000000006044820152606401610271565b600454600090815260076020526040812080546001929061031190849061098b565b9091555050565b6103206108cc565b33600090815260086020818152604080842081516101408101835281546001600160a01b03908116606080840191825260018501546080850152600285015460a0850152600385015460c0850152600485015460e0850152600585015461010085015260068501546101208501529083526007840154909116828601529190940154848301528151908101825284815280830194909452825190840181905201519091906103cd906106a1565b60006103dc82604001516106f4565b9050600042836040015160c0015111156104195760008061040585604001516020015185610752565b909250905061041481836109a2565b925050505b60006104288560400151610786565b111561045057600061044184604001516020015161079f565b6040850151608001525061045e565b604083015160006080909101525b6040830180516060019290925260208084019190915290510151815292915050565b61048861064d565b3360009081526006602052604090205460ff1615156001146104ec5760405162461bcd60e51b815260206004820152601360248201527f596f7520617265206e6f74206120766f746572000000000000000000000000006044820152606401610271565b336000908152600660209081526040808320600454845260010190915290205460ff161561055c5760405162461bcd60e51b815260206004820152601560248201527f596f75206861766520766f746564206265666f726500000000000000000000006044820152606401610271565b33600090815260066020908152604080832060048054855260019182018452828520805460ff191683179055548452600790925282208054919290916103119084906109a2565b60006001600160a01b0382166105fb5760405162461bcd60e51b815260206004820152600f60248201527f496e76616c6964206164647265737300000000000000000000000000000000006044820152606401610271565b506001600160a01b031660009081526006602052604090205460ff1690565b60006002546000146106475762093a8060025442610638919061098b565b61064291906109d0565b905090565b50600090565b60035460ff1661069f5760405162461bcd60e51b815260206004820152601760248201527f566f74696e67206973206e6f7420617661696c61626c650000000000000000006044820152606401610271565b565b600081116106f15760405162461bcd60e51b815260206004820152600e60248201527f4e6f205374616b6520466f756e640000000000000000000000000000000000006044820152606401610271565b50565b600081602001516000141561070b57506000919050565b6a52b7d2dcc80cd2e400000061072483604001516107c1565b8360a00151846020015161073891906109f2565b61074291906109f2565b61074c91906109d0565b92915050565b60008061076c61076485600054610873565b6103e8610886565b61077b61076485600054610873565b915091509250929050565b600061074c62093a80610799844261098b565b90610886565b60006301dfe2006103e8600154846107b791906109f2565b61074291906109d0565b60008082116108125760405162461bcd60e51b815260206004820152601160248201527f4572726f722074696d657374616d7020300000000000000000000000000000006044820152606401610271565b61074c61081f834261098b565b6108339069d3c21bcecceda10000006109f2565b6301e133806040518060400160405280601d81526020017f4572726f722063616e6e6f74206469766964652074696d657374616d70000000815250610892565b600061087f82846109f2565b9392505050565b600061087f82846109d0565b600081836108b35760405162461bcd60e51b81526004016102719190610a11565b508284816108c3576108c36109ba565b04949350505050565b6040518060600160405280600081526020016000815260200161092e6040518060e0016040528060006001600160a01b031681526020016000815260200160008152602001600081526020016000815260200160008152602001600081525090565b905290565b60006020828403121561094557600080fd5b5035919050565b60006020828403121561095e57600080fd5b81356001600160a01b038116811461087f57600080fd5b634e487b7160e01b600052601160045260246000fd5b60008282101561099d5761099d610975565b500390565b600082198211156109b5576109b5610975565b500190565b634e487b7160e01b600052601260045260246000fd5b6000826109ed57634e487b7160e01b600052601260045260246000fd5b500490565b6000816000190483118215151615610a0c57610a0c610975565b500290565b600060208083528351808285015260005b81811015610a3e57858101830151858201604001528201610a22565b81811115610a50576000604083870101525b50601f01601f191692909201604001939250505056fea26469706673582212209c1dc3a346f833b52af1a3ae22a4c3f27114c66503e1d71bc44f44b757f0aeba64736f6c634300080b0033",
					"opcodes": "PUSH1 0x80 PUSH1 0x40 MSTORE CALLVALUE DUP1 ISZERO PUSH2 0x10 JUMPI PUSH1 0x0 DUP1 REVERT JUMPDEST POP PUSH1 0xF PUSH1 0x0 SSTORE PUSH1 0x50 PUSH1 0x1 SSTORE PUSH2 0xA9C DUP1 PUSH2 0x2A PUSH1 0x0 CODECOPY PUSH1 0x0 RETURN INVALID PUSH1 0x80 PUSH1 0x40 MSTORE CALLVALUE DUP1 ISZERO PUSH2 0x10 JUMPI PUSH1 0x0 DUP1 REVERT JUMPDEST POP PUSH1 0x4 CALLDATASIZE LT PUSH2 0xC9 JUMPI PUSH1 0x0 CALLDATALOAD PUSH1 0xE0 SHR DUP1 PUSH4 0xA143A5F2 GT PUSH2 0x81 JUMPI DUP1 PUSH4 0xB87DA76D GT PUSH2 0x5B JUMPI DUP1 PUSH4 0xB87DA76D EQ PUSH2 0x1EF JUMPI DUP1 PUSH4 0xCB79C2E1 EQ PUSH2 0x1F8 JUMPI DUP1 PUSH4 0xCBB3E152 EQ PUSH2 0x201 JUMPI PUSH1 0x0 DUP1 REVERT JUMPDEST DUP1 PUSH4 0xA143A5F2 EQ PUSH2 0x189 JUMPI DUP1 PUSH4 0xA3EC138D EQ PUSH2 0x1A9 JUMPI DUP1 PUSH4 0xA7771EE3 EQ PUSH2 0x1DC JUMPI PUSH1 0x0 DUP1 REVERT JUMPDEST DUP1 PUSH4 0x5F5300FF GT PUSH2 0xB2 JUMPI DUP1 PUSH4 0x5F5300FF EQ PUSH2 0x161 JUMPI DUP1 PUSH4 0x632A9A52 EQ PUSH2 0x178 JUMPI DUP1 PUSH4 0x8891CF0D EQ PUSH2 0x180 JUMPI PUSH1 0x0 DUP1 REVERT JUMPDEST DUP1 PUSH4 0x70C8B74 EQ PUSH2 0xCE JUMPI DUP1 PUSH4 0x10486B6A EQ PUSH2 0xD8 JUMPI JUMPDEST PUSH1 0x0 DUP1 REVERT JUMPDEST PUSH2 0xD6 PUSH2 0x209 JUMP JUMPDEST STOP JUMPDEST PUSH2 0xE0 PUSH2 0x318 JUMP JUMPDEST PUSH1 0x40 MLOAD PUSH2 0x158 SWAP2 SWAP1 PUSH1 0x0 PUSH2 0x120 DUP3 ADD SWAP1 POP DUP3 MLOAD DUP3 MSTORE PUSH1 0x20 DUP4 ADD MLOAD PUSH1 0x20 DUP4 ADD MSTORE PUSH1 0x40 DUP4 ADD MLOAD PUSH1 0x1 PUSH1 0x1 PUSH1 0xA0 SHL SUB DUP2 MLOAD AND PUSH1 0x40 DUP5 ADD MSTORE PUSH1 0x20 DUP2 ADD MLOAD PUSH1 0x60 DUP5 ADD MSTORE PUSH1 0x40 DUP2 ADD MLOAD PUSH1 0x80 DUP5 ADD MSTORE PUSH1 0x60 DUP2 ADD MLOAD PUSH1 0xA0 DUP5 ADD MSTORE PUSH1 0x80 DUP2 ADD MLOAD PUSH1 0xC0 DUP5 ADD MSTORE PUSH1 0xA0 DUP2 ADD MLOAD PUSH1 0xE0 DUP5 ADD MSTORE PUSH1 0xC0 DUP2 ADD MLOAD PUSH2 0x100 DUP5 ADD MSTORE POP SWAP3 SWAP2 POP POP JUMP JUMPDEST PUSH1 0x40 MLOAD DUP1 SWAP2 SUB SWAP1 RETURN JUMPDEST PUSH2 0x16A PUSH1 0x5 SLOAD DUP2 JUMP JUMPDEST PUSH1 0x40 MLOAD SWAP1 DUP2 MSTORE PUSH1 0x20 ADD PUSH2 0x158 JUMP JUMPDEST PUSH2 0xD6 PUSH2 0x480 JUMP JUMPDEST PUSH2 0x16A PUSH1 0x1 SLOAD DUP2 JUMP JUMPDEST PUSH2 0x16A PUSH2 0x197 CALLDATASIZE PUSH1 0x4 PUSH2 0x933 JUMP JUMPDEST PUSH1 0x7 PUSH1 0x20 MSTORE PUSH1 0x0 SWAP1 DUP2 MSTORE PUSH1 0x40 SWAP1 KECCAK256 SLOAD DUP2 JUMP JUMPDEST PUSH2 0x1CC PUSH2 0x1B7 CALLDATASIZE PUSH1 0x4 PUSH2 0x94C JUMP JUMPDEST PUSH1 0x6 PUSH1 0x20 MSTORE PUSH1 0x0 SWAP1 DUP2 MSTORE PUSH1 0x40 SWAP1 KECCAK256 SLOAD PUSH1 0xFF AND DUP2 JUMP JUMPDEST PUSH1 0x40 MLOAD SWAP1 ISZERO ISZERO DUP2 MSTORE PUSH1 0x20 ADD PUSH2 0x158 JUMP JUMPDEST PUSH2 0x1CC PUSH2 0x1EA CALLDATASIZE PUSH1 0x4 PUSH2 0x94C JUMP JUMPDEST PUSH2 0x5A3 JUMP JUMPDEST PUSH2 0x16A PUSH1 0x2 SLOAD DUP2 JUMP JUMPDEST PUSH2 0x16A PUSH1 0x0 SLOAD DUP2 JUMP JUMPDEST PUSH2 0x16A PUSH2 0x61A JUMP JUMPDEST PUSH2 0x211 PUSH2 0x64D JUMP JUMPDEST CALLER PUSH1 0x0 SWAP1 DUP2 MSTORE PUSH1 0x6 PUSH1 0x20 MSTORE PUSH1 0x40 SWAP1 KECCAK256 SLOAD PUSH1 0xFF AND ISZERO ISZERO PUSH1 0x1 EQ PUSH2 0x27A JUMPI PUSH1 0x40 MLOAD PUSH3 0x461BCD PUSH1 0xE5 SHL DUP2 MSTORE PUSH1 0x20 PUSH1 0x4 DUP3 ADD MSTORE PUSH1 0x13 PUSH1 0x24 DUP3 ADD MSTORE PUSH32 0x596F7520617265206E6F74206120766F74657200000000000000000000000000 PUSH1 0x44 DUP3 ADD MSTORE PUSH1 0x64 ADD JUMPDEST PUSH1 0x40 MLOAD DUP1 SWAP2 SUB SWAP1 REVERT JUMPDEST CALLER PUSH1 0x0 SWAP1 DUP2 MSTORE PUSH1 0x6 PUSH1 0x20 SWAP1 DUP2 MSTORE PUSH1 0x40 DUP1 DUP4 KECCAK256 PUSH1 0x4 SLOAD DUP5 MSTORE PUSH1 0x1 SWAP1 DUP2 ADD SWAP1 SWAP3 MSTORE SWAP1 SWAP2 KECCAK256 SLOAD PUSH1 0xFF AND ISZERO ISZERO EQ PUSH2 0x2EF JUMPI PUSH1 0x40 MLOAD PUSH3 0x461BCD PUSH1 0xE5 SHL DUP2 MSTORE PUSH1 0x20 PUSH1 0x4 DUP3 ADD MSTORE PUSH1 0x16 PUSH1 0x24 DUP3 ADD MSTORE PUSH32 0x596F752068617665206E6F7420766F7465642079657400000000000000000000 PUSH1 0x44 DUP3 ADD MSTORE PUSH1 0x64 ADD PUSH2 0x271 JUMP JUMPDEST PUSH1 0x4 SLOAD PUSH1 0x0 SWAP1 DUP2 MSTORE PUSH1 0x7 PUSH1 0x20 MSTORE PUSH1 0x40 DUP2 KECCAK256 DUP1 SLOAD PUSH1 0x1 SWAP3 SWAP1 PUSH2 0x311 SWAP1 DUP5 SWAP1 PUSH2 0x98B JUMP JUMPDEST SWAP1 SWAP2 SSTORE POP POP JUMP JUMPDEST PUSH2 0x320 PUSH2 0x8CC JUMP JUMPDEST CALLER PUSH1 0x0 SWAP1 DUP2 MSTORE PUSH1 0x8 PUSH1 0x20 DUP2 DUP2 MSTORE PUSH1 0x40 DUP1 DUP5 KECCAK256 DUP2 MLOAD PUSH2 0x140 DUP2 ADD DUP4 MSTORE DUP2 SLOAD PUSH1 0x1 PUSH1 0x1 PUSH1 0xA0 SHL SUB SWAP1 DUP2 AND PUSH1 0x60 DUP1 DUP5 ADD SWAP2 DUP3 MSTORE PUSH1 0x1 DUP6 ADD SLOAD PUSH1 0x80 DUP6 ADD MSTORE PUSH1 0x2 DUP6 ADD SLOAD PUSH1 0xA0 DUP6 ADD MSTORE PUSH1 0x3 DUP6 ADD SLOAD PUSH1 0xC0 DUP6 ADD MSTORE PUSH1 0x4 DUP6 ADD SLOAD PUSH1 0xE0 DUP6 ADD MSTORE PUSH1 0x5 DUP6 ADD SLOAD PUSH2 0x100 DUP6 ADD MSTORE PUSH1 0x6 DUP6 ADD SLOAD PUSH2 0x120 DUP6 ADD MSTORE SWAP1 DUP4 MSTORE PUSH1 0x7 DUP5 ADD SLOAD SWAP1 SWAP2 AND DUP3 DUP7 ADD MSTORE SWAP2 SWAP1 SWAP5 ADD SLOAD DUP5 DUP4 ADD MSTORE DUP2 MLOAD SWAP1 DUP2 ADD DUP3 MSTORE DUP5 DUP2 MSTORE DUP1 DUP4 ADD SWAP5 SWAP1 SWAP5 MSTORE DUP3 MLOAD SWAP1 DUP5 ADD DUP2 SWAP1 MSTORE ADD MLOAD SWAP1 SWAP2 SWAP1 PUSH2 0x3CD SWAP1 PUSH2 0x6A1 JUMP JUMPDEST PUSH1 0x0 PUSH2 0x3DC DUP3 PUSH1 0x40 ADD MLOAD PUSH2 0x6F4 JUMP JUMPDEST SWAP1 POP PUSH1 0x0 TIMESTAMP DUP4 PUSH1 0x40 ADD MLOAD PUSH1 0xC0 ADD MLOAD GT ISZERO PUSH2 0x419 JUMPI PUSH1 0x0 DUP1 PUSH2 0x405 DUP6 PUSH1 0x40 ADD MLOAD PUSH1 0x20 ADD MLOAD DUP6 PUSH2 0x752 JUMP JUMPDEST SWAP1 SWAP3 POP SWAP1 POP PUSH2 0x414 DUP2 DUP4 PUSH2 0x9A2 JUMP JUMPDEST SWAP3 POP POP POP JUMPDEST PUSH1 0x0 PUSH2 0x428 DUP6 PUSH1 0x40 ADD MLOAD PUSH2 0x786 JUMP JUMPDEST GT ISZERO PUSH2 0x450 JUMPI PUSH1 0x0 PUSH2 0x441 DUP5 PUSH1 0x40 ADD MLOAD PUSH1 0x20 ADD MLOAD PUSH2 0x79F JUMP JUMPDEST PUSH1 0x40 DUP6 ADD MLOAD PUSH1 0x80 ADD MSTORE POP PUSH2 0x45E JUMP JUMPDEST PUSH1 0x40 DUP4 ADD MLOAD PUSH1 0x0 PUSH1 0x80 SWAP1 SWAP2 ADD MSTORE JUMPDEST PUSH1 0x40 DUP4 ADD DUP1 MLOAD PUSH1 0x60 ADD SWAP3 SWAP1 SWAP3 MSTORE PUSH1 0x20 DUP1 DUP5 ADD SWAP2 SWAP1 SWAP2 MSTORE SWAP1 MLOAD ADD MLOAD DUP2 MSTORE SWAP3 SWAP2 POP POP JUMP JUMPDEST PUSH2 0x488 PUSH2 0x64D JUMP JUMPDEST CALLER PUSH1 0x0 SWAP1 DUP2 MSTORE PUSH1 0x6 PUSH1 0x20 MSTORE PUSH1 0x40 SWAP1 KECCAK256 SLOAD PUSH1 0xFF AND ISZERO ISZERO PUSH1 0x1 EQ PUSH2 0x4EC JUMPI PUSH1 0x40 MLOAD PUSH3 0x461BCD PUSH1 0xE5 SHL DUP2 MSTORE PUSH1 0x20 PUSH1 0x4 DUP3 ADD MSTORE PUSH1 0x13 PUSH1 0x24 DUP3 ADD MSTORE PUSH32 0x596F7520617265206E6F74206120766F74657200000000000000000000000000 PUSH1 0x44 DUP3 ADD MSTORE PUSH1 0x64 ADD PUSH2 0x271 JUMP JUMPDEST CALLER PUSH1 0x0 SWAP1 DUP2 MSTORE PUSH1 0x6 PUSH1 0x20 SWAP1 DUP2 MSTORE PUSH1 0x40 DUP1 DUP4 KECCAK256 PUSH1 0x4 SLOAD DUP5 MSTORE PUSH1 0x1 ADD SWAP1 SWAP2 MSTORE SWAP1 KECCAK256 SLOAD PUSH1 0xFF AND ISZERO PUSH2 0x55C JUMPI PUSH1 0x40 MLOAD PUSH3 0x461BCD PUSH1 0xE5 SHL DUP2 MSTORE PUSH1 0x20 PUSH1 0x4 DUP3 ADD MSTORE PUSH1 0x15 PUSH1 0x24 DUP3 ADD MSTORE PUSH32 0x596F75206861766520766F746564206265666F72650000000000000000000000 PUSH1 0x44 DUP3 ADD MSTORE PUSH1 0x64 ADD PUSH2 0x271 JUMP JUMPDEST CALLER PUSH1 0x0 SWAP1 DUP2 MSTORE PUSH1 0x6 PUSH1 0x20 SWAP1 DUP2 MSTORE PUSH1 0x40 DUP1 DUP4 KECCAK256 PUSH1 0x4 DUP1 SLOAD DUP6 MSTORE PUSH1 0x1 SWAP2 DUP3 ADD DUP5 MSTORE DUP3 DUP6 KECCAK256 DUP1 SLOAD PUSH1 0xFF NOT AND DUP4 OR SWAP1 SSTORE SLOAD DUP5 MSTORE PUSH1 0x7 SWAP1 SWAP3 MSTORE DUP3 KECCAK256 DUP1 SLOAD SWAP2 SWAP3 SWAP1 SWAP2 PUSH2 0x311 SWAP1 DUP5 SWAP1 PUSH2 0x9A2 JUMP JUMPDEST PUSH1 0x0 PUSH1 0x1 PUSH1 0x1 PUSH1 0xA0 SHL SUB DUP3 AND PUSH2 0x5FB JUMPI PUSH1 0x40 MLOAD PUSH3 0x461BCD PUSH1 0xE5 SHL DUP2 MSTORE PUSH1 0x20 PUSH1 0x4 DUP3 ADD MSTORE PUSH1 0xF PUSH1 0x24 DUP3 ADD MSTORE PUSH32 0x496E76616C696420616464726573730000000000000000000000000000000000 PUSH1 0x44 DUP3 ADD MSTORE PUSH1 0x64 ADD PUSH2 0x271 JUMP JUMPDEST POP PUSH1 0x1 PUSH1 0x1 PUSH1 0xA0 SHL SUB AND PUSH1 0x0 SWAP1 DUP2 MSTORE PUSH1 0x6 PUSH1 0x20 MSTORE PUSH1 0x40 SWAP1 KECCAK256 SLOAD PUSH1 0xFF AND SWAP1 JUMP JUMPDEST PUSH1 0x0 PUSH1 0x2 SLOAD PUSH1 0x0 EQ PUSH2 0x647 JUMPI PUSH3 0x93A80 PUSH1 0x2 SLOAD TIMESTAMP PUSH2 0x638 SWAP2 SWAP1 PUSH2 0x98B JUMP JUMPDEST PUSH2 0x642 SWAP2 SWAP1 PUSH2 0x9D0 JUMP JUMPDEST SWAP1 POP SWAP1 JUMP JUMPDEST POP PUSH1 0x0 SWAP1 JUMP JUMPDEST PUSH1 0x3 SLOAD PUSH1 0xFF AND PUSH2 0x69F JUMPI PUSH1 0x40 MLOAD PUSH3 0x461BCD PUSH1 0xE5 SHL DUP2 MSTORE PUSH1 0x20 PUSH1 0x4 DUP3 ADD MSTORE PUSH1 0x17 PUSH1 0x24 DUP3 ADD MSTORE PUSH32 0x566F74696E67206973206E6F7420617661696C61626C65000000000000000000 PUSH1 0x44 DUP3 ADD MSTORE PUSH1 0x64 ADD PUSH2 0x271 JUMP JUMPDEST JUMP JUMPDEST PUSH1 0x0 DUP2 GT PUSH2 0x6F1 JUMPI PUSH1 0x40 MLOAD PUSH3 0x461BCD PUSH1 0xE5 SHL DUP2 MSTORE PUSH1 0x20 PUSH1 0x4 DUP3 ADD MSTORE PUSH1 0xE PUSH1 0x24 DUP3 ADD MSTORE PUSH32 0x4E6F205374616B6520466F756E64000000000000000000000000000000000000 PUSH1 0x44 DUP3 ADD MSTORE PUSH1 0x64 ADD PUSH2 0x271 JUMP JUMPDEST POP JUMP JUMPDEST PUSH1 0x0 DUP2 PUSH1 0x20 ADD MLOAD PUSH1 0x0 EQ ISZERO PUSH2 0x70B JUMPI POP PUSH1 0x0 SWAP2 SWAP1 POP JUMP JUMPDEST PUSH11 0x52B7D2DCC80CD2E4000000 PUSH2 0x724 DUP4 PUSH1 0x40 ADD MLOAD PUSH2 0x7C1 JUMP JUMPDEST DUP4 PUSH1 0xA0 ADD MLOAD DUP5 PUSH1 0x20 ADD MLOAD PUSH2 0x738 SWAP2 SWAP1 PUSH2 0x9F2 JUMP JUMPDEST PUSH2 0x742 SWAP2 SWAP1 PUSH2 0x9F2 JUMP JUMPDEST PUSH2 0x74C SWAP2 SWAP1 PUSH2 0x9D0 JUMP JUMPDEST SWAP3 SWAP2 POP POP JUMP JUMPDEST PUSH1 0x0 DUP1 PUSH2 0x76C PUSH2 0x764 DUP6 PUSH1 0x0 SLOAD PUSH2 0x873 JUMP JUMPDEST PUSH2 0x3E8 PUSH2 0x886 JUMP JUMPDEST PUSH2 0x77B PUSH2 0x764 DUP6 PUSH1 0x0 SLOAD PUSH2 0x873 JUMP JUMPDEST SWAP2 POP SWAP2 POP SWAP3 POP SWAP3 SWAP1 POP JUMP JUMPDEST PUSH1 0x0 PUSH2 0x74C PUSH3 0x93A80 PUSH2 0x799 DUP5 TIMESTAMP PUSH2 0x98B JUMP JUMPDEST SWAP1 PUSH2 0x886 JUMP JUMPDEST PUSH1 0x0 PUSH4 0x1DFE200 PUSH2 0x3E8 PUSH1 0x1 SLOAD DUP5 PUSH2 0x7B7 SWAP2 SWAP1 PUSH2 0x9F2 JUMP JUMPDEST PUSH2 0x742 SWAP2 SWAP1 PUSH2 0x9D0 JUMP JUMPDEST PUSH1 0x0 DUP1 DUP3 GT PUSH2 0x812 JUMPI PUSH1 0x40 MLOAD PUSH3 0x461BCD PUSH1 0xE5 SHL DUP2 MSTORE PUSH1 0x20 PUSH1 0x4 DUP3 ADD MSTORE PUSH1 0x11 PUSH1 0x24 DUP3 ADD MSTORE PUSH32 0x4572726F722074696D657374616D702030000000000000000000000000000000 PUSH1 0x44 DUP3 ADD MSTORE PUSH1 0x64 ADD PUSH2 0x271 JUMP JUMPDEST PUSH2 0x74C PUSH2 0x81F DUP4 TIMESTAMP PUSH2 0x98B JUMP JUMPDEST PUSH2 0x833 SWAP1 PUSH10 0xD3C21BCECCEDA1000000 PUSH2 0x9F2 JUMP JUMPDEST PUSH4 0x1E13380 PUSH1 0x40 MLOAD DUP1 PUSH1 0x40 ADD PUSH1 0x40 MSTORE DUP1 PUSH1 0x1D DUP2 MSTORE PUSH1 0x20 ADD PUSH32 0x4572726F722063616E6E6F74206469766964652074696D657374616D70000000 DUP2 MSTORE POP PUSH2 0x892 JUMP JUMPDEST PUSH1 0x0 PUSH2 0x87F DUP3 DUP5 PUSH2 0x9F2 JUMP JUMPDEST SWAP4 SWAP3 POP POP POP JUMP JUMPDEST PUSH1 0x0 PUSH2 0x87F DUP3 DUP5 PUSH2 0x9D0 JUMP JUMPDEST PUSH1 0x0 DUP2 DUP4 PUSH2 0x8B3 JUMPI PUSH1 0x40 MLOAD PUSH3 0x461BCD PUSH1 0xE5 SHL DUP2 MSTORE PUSH1 0x4 ADD PUSH2 0x271 SWAP2 SWAP1 PUSH2 0xA11 JUMP JUMPDEST POP DUP3 DUP5 DUP2 PUSH2 0x8C3 JUMPI PUSH2 0x8C3 PUSH2 0x9BA JUMP JUMPDEST DIV SWAP5 SWAP4 POP POP POP POP JUMP JUMPDEST PUSH1 0x40 MLOAD DUP1 PUSH1 0x60 ADD PUSH1 0x40 MSTORE DUP1 PUSH1 0x0 DUP2 MSTORE PUSH1 0x20 ADD PUSH1 0x0 DUP2 MSTORE PUSH1 0x20 ADD PUSH2 0x92E PUSH1 0x40 MLOAD DUP1 PUSH1 0xE0 ADD PUSH1 0x40 MSTORE DUP1 PUSH1 0x0 PUSH1 0x1 PUSH1 0x1 PUSH1 0xA0 SHL SUB AND DUP2 MSTORE PUSH1 0x20 ADD PUSH1 0x0 DUP2 MSTORE PUSH1 0x20 ADD PUSH1 0x0 DUP2 MSTORE PUSH1 0x20 ADD PUSH1 0x0 DUP2 MSTORE PUSH1 0x20 ADD PUSH1 0x0 DUP2 MSTORE PUSH1 0x20 ADD PUSH1 0x0 DUP2 MSTORE PUSH1 0x20 ADD PUSH1 0x0 DUP2 MSTORE POP SWAP1 JUMP JUMPDEST SWAP1 MSTORE SWAP1 JUMP JUMPDEST PUSH1 0x0 PUSH1 0x20 DUP3 DUP5 SUB SLT ISZERO PUSH2 0x945 JUMPI PUSH1 0x0 DUP1 REVERT JUMPDEST POP CALLDATALOAD SWAP2 SWAP1 POP JUMP JUMPDEST PUSH1 0x0 PUSH1 0x20 DUP3 DUP5 SUB SLT ISZERO PUSH2 0x95E JUMPI PUSH1 0x0 DUP1 REVERT JUMPDEST DUP2 CALLDATALOAD PUSH1 0x1 PUSH1 0x1 PUSH1 0xA0 SHL SUB DUP2 AND DUP2 EQ PUSH2 0x87F JUMPI PUSH1 0x0 DUP1 REVERT JUMPDEST PUSH4 0x4E487B71 PUSH1 0xE0 SHL PUSH1 0x0 MSTORE PUSH1 0x11 PUSH1 0x4 MSTORE PUSH1 0x24 PUSH1 0x0 REVERT JUMPDEST PUSH1 0x0 DUP3 DUP3 LT ISZERO PUSH2 0x99D JUMPI PUSH2 0x99D PUSH2 0x975 JUMP JUMPDEST POP SUB SWAP1 JUMP JUMPDEST PUSH1 0x0 DUP3 NOT DUP3 GT ISZERO PUSH2 0x9B5 JUMPI PUSH2 0x9B5 PUSH2 0x975 JUMP JUMPDEST POP ADD SWAP1 JUMP JUMPDEST PUSH4 0x4E487B71 PUSH1 0xE0 SHL PUSH1 0x0 MSTORE PUSH1 0x12 PUSH1 0x4 MSTORE PUSH1 0x24 PUSH1 0x0 REVERT JUMPDEST PUSH1 0x0 DUP3 PUSH2 0x9ED JUMPI PUSH4 0x4E487B71 PUSH1 0xE0 SHL PUSH1 0x0 MSTORE PUSH1 0x12 PUSH1 0x4 MSTORE PUSH1 0x24 PUSH1 0x0 REVERT JUMPDEST POP DIV SWAP1 JUMP JUMPDEST PUSH1 0x0 DUP2 PUSH1 0x0 NOT DIV DUP4 GT DUP3 ISZERO ISZERO AND ISZERO PUSH2 0xA0C JUMPI PUSH2 0xA0C PUSH2 0x975 JUMP JUMPDEST POP MUL SWAP1 JUMP JUMPDEST PUSH1 0x0 PUSH1 0x20 DUP1 DUP4 MSTORE DUP4 MLOAD DUP1 DUP3 DUP6 ADD MSTORE PUSH1 0x0 JUMPDEST DUP2 DUP2 LT ISZERO PUSH2 0xA3E JUMPI DUP6 DUP2 ADD DUP4 ADD MLOAD DUP6 DUP3 ADD PUSH1 0x40 ADD MSTORE DUP3 ADD PUSH2 0xA22 JUMP JUMPDEST DUP2 DUP2 GT ISZERO PUSH2 0xA50 JUMPI PUSH1 0x0 PUSH1 0x40 DUP4 DUP8 ADD ADD MSTORE JUMPDEST POP PUSH1 0x1F ADD PUSH1 0x1F NOT AND SWAP3 SWAP1 SWAP3 ADD PUSH1 0x40 ADD SWAP4 SWAP3 POP POP POP JUMP INVALID LOG2 PUSH5 0x6970667358 0x22 SLT KECCAK256 SWAP13 SAR 0xC3 LOG3 CHAINID 0xF8 CALLER 0xB5 0x2A CALL LOG3 0xAE 0x22 LOG4 0xC3 CALLCODE PUSH18 0x14C66503E1D71BC44F44B757F0AEBA64736F PUSH13 0x634300080B0033000000000000 "
				},
				"gasEstimates": {
					"creation": {
						"codeDepositCost": "543200",
						"executionCost": "44787",
						"totalCost": "587987"
					},
					"external": {
						"airdropRate()": "2362",
						"airdropSince()": "2317",
						"airdropWeek()": "4635",
						"hasStake()": "infinite",
						"isVoter(address)": "2633",
						"retractVote()": "35369",
						"stakingPenaltyRate()": "2339",
						"totalVoters()": "2318",
						"vote()": "61851",
						"votedUsers(uint256)": "2461",
						"voters(address)": "2541"
					},
					"internal": {
						"_calculateAirdrop(uint256)": "infinite",
						"_calculateWeek(uint256)": "193",
						"_changeAirdropPercentage(uint256)": "infinite",
						"_changePenaltyFee(uint256)": "infinite",
						"_checkUserStake(uint256)": "infinite",
						"_checkVotingStatus()": "infinite",
						"_claimAirdrop(address)": "infinite",
						"_getVotingResult()": "infinite",
						"_stake(address,uint256,uint256,uint256)": "infinite",
						"_startAirdropSince()": "infinite",
						"_startVoting()": "infinite",
						"_stopVoting()": "infinite",
						"_withdrawStake(address)": "infinite",
						"calculatePenalty(uint256,uint256)": "infinite",
						"calculateStakeReward(struct Stakable.Stake memory)": "infinite",
						"calculateStakingDuration(uint256)": "infinite",
						"calculateStakingWithPenalty(uint256,uint256)": "infinite"
					}
				},
				"methodIdentifiers": {
					"airdropRate()": "8891cf0d",
					"airdropSince()": "b87da76d",
					"airdropWeek()": "cbb3e152",
					"hasStake()": "10486b6a",
					"isVoter(address)": "a7771ee3",
					"retractVote()": "070c8b74",
					"stakingPenaltyRate()": "cb79c2e1",
					"totalVoters()": "5f5300ff",
					"vote()": "632a9a52",
					"votedUsers(uint256)": "a143a5f2",
					"voters(address)": "a3ec138d"
				}
			},
			"storageLayout": {
				"storage": [
					{
						"astId": 328,
						"contract": "contracts/Stakable.sol:Stakable",
						"label": "stakingPenaltyRate",
						"offset": 0,
						"slot": "0",
						"type": "t_uint256"
					},
					{
						"astId": 330,
						"contract": "contracts/Stakable.sol:Stakable",
						"label": "airdropRate",
						"offset": 0,
						"slot": "1",
						"type": "t_uint256"
					},
					{
						"astId": 332,
						"contract": "contracts/Stakable.sol:Stakable",
						"label": "airdropSince",
						"offset": 0,
						"slot": "2",
						"type": "t_uint256"
					},
					{
						"astId": 334,
						"contract": "contracts/Stakable.sol:Stakable",
						"label": "_votingStatus",
						"offset": 0,
						"slot": "3",
						"type": "t_bool"
					},
					{
						"astId": 336,
						"contract": "contracts/Stakable.sol:Stakable",
						"label": "_votingId",
						"offset": 0,
						"slot": "4",
						"type": "t_uint256"
					},
					{
						"astId": 338,
						"contract": "contracts/Stakable.sol:Stakable",
						"label": "totalVoters",
						"offset": 0,
						"slot": "5",
						"type": "t_uint256"
					},
					{
						"astId": 343,
						"contract": "contracts/Stakable.sol:Stakable",
						"label": "voters",
						"offset": 0,
						"slot": "6",
						"type": "t_mapping(t_address,t_struct(Voter)326_storage)"
					},
					{
						"astId": 347,
						"contract": "contracts/Stakable.sol:Stakable",
						"label": "votedUsers",
						"offset": 0,
						"slot": "7",
						"type": "t_mapping(t_uint256,t_uint256)"
					},
					{
						"astId": 425,
						"contract": "contracts/Stakable.sol:Stakable",
						"label": "stakeholders",
						"offset": 0,
						"slot": "8",
						"type": "t_mapping(t_address,t_struct(Stakeholder)411_storage)"
					}
				],
				"types": {
					"t_address": {
						"encoding": "inplace",
						"label": "address",
						"numberOfBytes": "20"
					},
					"t_bool": {
						"encoding": "inplace",
						"label": "bool",
						"numberOfBytes": "1"
					},
					"t_mapping(t_address,t_struct(Stakeholder)411_storage)": {
						"encoding": "mapping",
						"key": "t_address",
						"label": "mapping(address => struct Stakable.Stakeholder)",
						"numberOfBytes": "32",
						"value": "t_struct(Stakeholder)411_storage"
					},
					"t_mapping(t_address,t_struct(Voter)326_storage)": {
						"encoding": "mapping",
						"key": "t_address",
						"label": "mapping(address => struct Stakable.Voter)",
						"numberOfBytes": "32",
						"value": "t_struct(Voter)326_storage"
					},
					"t_mapping(t_uint256,t_bool)": {
						"encoding": "mapping",
						"key": "t_uint256",
						"label": "mapping(uint256 => bool)",
						"numberOfBytes": "32",
						"value": "t_bool"
					},
					"t_mapping(t_uint256,t_uint256)": {
						"encoding": "mapping",
						"key": "t_uint256",
						"label": "mapping(uint256 => uint256)",
						"numberOfBytes": "32",
						"value": "t_uint256"
					},
					"t_struct(Stake)403_storage": {
						"encoding": "inplace",
						"label": "struct Stakable.Stake",
						"members": [
							{
								"astId": 390,
								"contract": "contracts/Stakable.sol:Stakable",
								"label": "user",
								"offset": 0,
								"slot": "0",
								"type": "t_address"
							},
							{
								"astId": 392,
								"contract": "contracts/Stakable.sol:Stakable",
								"label": "amount",
								"offset": 0,
								"slot": "1",
								"type": "t_uint256"
							},
							{
								"astId": 394,
								"contract": "contracts/Stakable.sol:Stakable",
								"label": "since",
								"offset": 0,
								"slot": "2",
								"type": "t_uint256"
							},
							{
								"astId": 396,
								"contract": "contracts/Stakable.sol:Stakable",
								"label": "claimable",
								"offset": 0,
								"slot": "3",
								"type": "t_uint256"
							},
							{
								"astId": 398,
								"contract": "contracts/Stakable.sol:Stakable",
								"label": "claimable_airdrop",
								"offset": 0,
								"slot": "4",
								"type": "t_uint256"
							},
							{
								"astId": 400,
								"contract": "contracts/Stakable.sol:Stakable",
								"label": "rewardAPY",
								"offset": 0,
								"slot": "5",
								"type": "t_uint256"
							},
							{
								"astId": 402,
								"contract": "contracts/Stakable.sol:Stakable",
								"label": "releaseTime",
								"offset": 0,
								"slot": "6",
								"type": "t_uint256"
							}
						],
						"numberOfBytes": "224"
					},
					"t_struct(Stakeholder)411_storage": {
						"encoding": "inplace",
						"label": "struct Stakable.Stakeholder",
						"members": [
							{
								"astId": 406,
								"contract": "contracts/Stakable.sol:Stakable",
								"label": "stake",
								"offset": 0,
								"slot": "0",
								"type": "t_struct(Stake)403_storage"
							},
							{
								"astId": 408,
								"contract": "contracts/Stakable.sol:Stakable",
								"label": "user",
								"offset": 0,
								"slot": "7",
								"type": "t_address"
							},
							{
								"astId": 410,
								"contract": "contracts/Stakable.sol:Stakable",
								"label": "latestClaimDrop",
								"offset": 0,
								"slot": "8",
								"type": "t_uint256"
							}
						],
						"numberOfBytes": "288"
					},
					"t_struct(Voter)326_storage": {
						"encoding": "inplace",
						"label": "struct Stakable.Voter",
						"members": [
							{
								"astId": 321,
								"contract": "contracts/Stakable.sol:Stakable",
								"label": "votingRight",
								"offset": 0,
								"slot": "0",
								"type": "t_bool"
							},
							{
								"astId": 325,
								"contract": "contracts/Stakable.sol:Stakable",
								"label": "voted",
								"offset": 0,
								"slot": "1",
								"type": "t_mapping(t_uint256,t_bool)"
							}
						],
						"numberOfBytes": "64"
					},
					"t_uint256": {
						"encoding": "inplace",
						"label": "uint256",
						"numberOfBytes": "32"
					}
				}
			},
			"userdoc": {
				"events": {
					"Staked(address,uint256,uint256,uint256)": {
						"notice": "Staked event is triggered whenever a user stakes tokens, address is indexed to make it filterable"
					}
				},
				"kind": "user",
				"methods": {},
				"version": 1
			}
		}
	}
}