{
	"contracts/Stake-2.0.sol": {
		"Staking": {
			"abi": [
				{
					"inputs": [
						{
							"internalType": "address",
							"name": "token",
							"type": "address"
						}
					],
					"stateMutability": "nonpayable",
					"type": "constructor"
				},
				{
					"inputs": [],
					"name": "Airdrop__claimableOnceAWeek",
					"type": "error"
				},
				{
					"inputs": [],
					"name": "Staking__airdropExceed20Percent",
					"type": "error"
				},
				{
					"inputs": [],
					"name": "Staking__noStakingFound",
					"type": "error"
				},
				{
					"inputs": [],
					"name": "Staking__penaltyExceed3Percent",
					"type": "error"
				},
				{
					"inputs": [],
					"name": "Staking__userIsStaker",
					"type": "error"
				},
				{
					"inputs": [],
					"name": "Staking_noStakingPackageFound",
					"type": "error"
				},
				{
					"anonymous": false,
					"inputs": [
						{
							"indexed": false,
							"internalType": "uint256",
							"name": "amount",
							"type": "uint256"
						}
					],
					"name": "AirdropChanged",
					"type": "event"
				},
				{
					"anonymous": false,
					"inputs": [
						{
							"indexed": true,
							"internalType": "address",
							"name": "previousOwner",
							"type": "address"
						},
						{
							"indexed": true,
							"internalType": "address",
							"name": "newOwner",
							"type": "address"
						}
					],
					"name": "OwnershipTransferred",
					"type": "event"
				},
				{
					"anonymous": false,
					"inputs": [
						{
							"indexed": false,
							"internalType": "uint256",
							"name": "amount",
							"type": "uint256"
						}
					],
					"name": "PenaltyChanged",
					"type": "event"
				},
				{
					"anonymous": false,
					"inputs": [
						{
							"indexed": true,
							"internalType": "address",
							"name": "user",
							"type": "address"
						},
						{
							"indexed": false,
							"internalType": "uint256",
							"name": "amount",
							"type": "uint256"
						},
						{
							"indexed": false,
							"internalType": "uint256",
							"name": "timestamp",
							"type": "uint256"
						},
						{
							"indexed": false,
							"internalType": "uint256",
							"name": "releaseTime",
							"type": "uint256"
						}
					],
					"name": "Staked",
					"type": "event"
				},
				{
					"inputs": [],
					"name": "_blockTimestamp",
					"outputs": [
						{
							"internalType": "uint256",
							"name": "",
							"type": "uint256"
						}
					],
					"stateMutability": "view",
					"type": "function"
				},
				{
					"inputs": [],
					"name": "airdropRate",
					"outputs": [
						{
							"internalType": "uint256",
							"name": "",
							"type": "uint256"
						}
					],
					"stateMutability": "view",
					"type": "function"
				},
				{
					"inputs": [],
					"name": "airdropSince",
					"outputs": [
						{
							"internalType": "uint256",
							"name": "",
							"type": "uint256"
						}
					],
					"stateMutability": "view",
					"type": "function"
				},
				{
					"inputs": [
						{
							"internalType": "uint256",
							"name": "timestamp",
							"type": "uint256"
						}
					],
					"name": "calculateWeek",
					"outputs": [
						{
							"internalType": "uint256",
							"name": "",
							"type": "uint256"
						}
					],
					"stateMutability": "view",
					"type": "function"
				},
				{
					"inputs": [
						{
							"internalType": "uint256",
							"name": "amount",
							"type": "uint256"
						}
					],
					"name": "changeAirdropPercentage",
					"outputs": [],
					"stateMutability": "nonpayable",
					"type": "function"
				},
				{
					"inputs": [
						{
							"internalType": "uint256",
							"name": "amount",
							"type": "uint256"
						}
					],
					"name": "changePenaltyFee",
					"outputs": [],
					"stateMutability": "nonpayable",
					"type": "function"
				},
				{
					"inputs": [],
					"name": "claimAirdrop",
					"outputs": [],
					"stateMutability": "nonpayable",
					"type": "function"
				},
				{
					"inputs": [],
					"name": "hasStake",
					"outputs": [
						{
							"components": [
								{
									"internalType": "uint256",
									"name": "total_amount",
									"type": "uint256"
								},
								{
									"internalType": "uint256",
									"name": "penalty",
									"type": "uint256"
								},
								{
									"components": [
										{
											"internalType": "uint256",
											"name": "amount",
											"type": "uint256"
										},
										{
											"internalType": "uint256",
											"name": "since",
											"type": "uint256"
										},
										{
											"internalType": "uint256",
											"name": "rewardAPY",
											"type": "uint256"
										},
										{
											"internalType": "uint256",
											"name": "releaseTime",
											"type": "uint256"
										},
										{
											"internalType": "uint256",
											"name": "claimable",
											"type": "uint256"
										},
										{
											"internalType": "uint256",
											"name": "claimableAirdrop",
											"type": "uint256"
										},
										{
											"internalType": "uint256",
											"name": "latestClaimDrop",
											"type": "uint256"
										}
									],
									"internalType": "struct Staking.Stake",
									"name": "stake",
									"type": "tuple"
								}
							],
							"internalType": "struct Staking.StakingSummary",
							"name": "",
							"type": "tuple"
						}
					],
					"stateMutability": "view",
					"type": "function"
				},
				{
					"inputs": [],
					"name": "owner",
					"outputs": [
						{
							"internalType": "address",
							"name": "",
							"type": "address"
						}
					],
					"stateMutability": "view",
					"type": "function"
				},
				{
					"inputs": [],
					"name": "renounceOwnership",
					"outputs": [],
					"stateMutability": "nonpayable",
					"type": "function"
				},
				{
					"inputs": [
						{
							"internalType": "uint256",
							"name": "amount",
							"type": "uint256"
						},
						{
							"internalType": "uint256",
							"name": "stakePeriod",
							"type": "uint256"
						}
					],
					"name": "stake",
					"outputs": [],
					"stateMutability": "nonpayable",
					"type": "function"
				},
				{
					"inputs": [],
					"name": "stakingPenaltyRate",
					"outputs": [
						{
							"internalType": "uint256",
							"name": "",
							"type": "uint256"
						}
					],
					"stateMutability": "view",
					"type": "function"
				},
				{
					"inputs": [],
					"name": "startAirdrop",
					"outputs": [],
					"stateMutability": "nonpayable",
					"type": "function"
				},
				{
					"inputs": [],
					"name": "token_address",
					"outputs": [
						{
							"internalType": "address",
							"name": "",
							"type": "address"
						}
					],
					"stateMutability": "view",
					"type": "function"
				},
				{
					"inputs": [],
					"name": "totalVoters",
					"outputs": [
						{
							"internalType": "uint256",
							"name": "",
							"type": "uint256"
						}
					],
					"stateMutability": "view",
					"type": "function"
				},
				{
					"inputs": [
						{
							"internalType": "address",
							"name": "newOwner",
							"type": "address"
						}
					],
					"name": "transferOwnership",
					"outputs": [],
					"stateMutability": "nonpayable",
					"type": "function"
				},
				{
					"inputs": [
						{
							"internalType": "uint256",
							"name": "",
							"type": "uint256"
						}
					],
					"name": "votedUsers",
					"outputs": [
						{
							"internalType": "uint256",
							"name": "",
							"type": "uint256"
						}
					],
					"stateMutability": "view",
					"type": "function"
				},
				{
					"inputs": [
						{
							"internalType": "address",
							"name": "",
							"type": "address"
						}
					],
					"name": "voters",
					"outputs": [
						{
							"internalType": "bool",
							"name": "votingRight",
							"type": "bool"
						}
					],
					"stateMutability": "view",
					"type": "function"
				},
				{
					"inputs": [],
					"name": "withdrawStake",
					"outputs": [],
					"stateMutability": "nonpayable",
					"type": "function"
				}
			],
			"devdoc": {
				"kind": "dev",
				"methods": {
					"owner()": {
						"details": "Returns the address of the current owner."
					},
					"renounceOwnership()": {
						"details": "Leaves the contract without owner. It will not be possible to call `onlyOwner` functions anymore. Can only be called by the current owner. NOTE: Renouncing ownership will leave the contract without an owner, thereby removing any functionality that is only available to the owner."
					},
					"transferOwnership(address)": {
						"details": "Transfers ownership of the contract to a new account (`newOwner`). Can only be called by the current owner."
					}
				},
				"version": 1
			},
			"evm": {
				"assembly": "    /* \"contracts/Stake-2.0.sol\":980:12412  contract Staking is ReentrancyGuard, Ownable {... */\n  mstore(0x40, 0x80)\n    /* \"contracts/Stake-2.0.sol\":1680:1981  constructor(address token) {... */\n  callvalue\n  dup1\n  iszero\n  tag_1\n  jumpi\n  0x00\n  dup1\n  revert\ntag_1:\n  pop\n  mload(0x40)\n  sub(codesize, bytecodeSize)\n  dup1\n  bytecodeSize\n  dup4\n  codecopy\n  dup2\n  add\n  0x40\n  dup2\n  swap1\n  mstore\n  tag_2\n  swap2\n  tag_3\n  jump\t// in\ntag_2:\n    /* \"@openzeppelin/contracts/security/ReentrancyGuard.sol\":1701:1702  1 */\n  0x01\n    /* \"@openzeppelin/contracts/security/ReentrancyGuard.sol\":1806:1813  _status */\n  0x00\n    /* \"@openzeppelin/contracts/security/ReentrancyGuard.sol\":1806:1828  _status = _NOT_ENTERED */\n  sstore\n    /* \"@openzeppelin/contracts/access/Ownable.sol\":921:953  _transferOwnership(_msgSender()) */\n  tag_9\n    /* \"@openzeppelin/contracts/utils/Context.sol\":719:729  msg.sender */\n  caller\n    /* \"@openzeppelin/contracts/access/Ownable.sol\":921:939  _transferOwnership */\n  tag_12\n    /* \"@openzeppelin/contracts/access/Ownable.sol\":921:953  _transferOwnership(_msgSender()) */\n  jump\t// in\ntag_9:\n    /* \"contracts/Stake-2.0.sol\":1800:1802  15 */\n  0x0f\n    /* \"contracts/Stake-2.0.sol\":1779:1797  stakingPenaltyRate */\n  0x03\n    /* \"contracts/Stake-2.0.sol\":1779:1802  stakingPenaltyRate = 15 */\n  sstore\n    /* \"contracts/Stake-2.0.sol\":1826:1828  80 */\n  0x50\n    /* \"contracts/Stake-2.0.sol\":1812:1823  airdropRate */\n  0x04\n    /* \"contracts/Stake-2.0.sol\":1812:1828  airdropRate = 80 */\n  sstore\n    /* \"contracts/Stake-2.0.sol\":1839:1852  token_address */\n  0x0b\n    /* \"contracts/Stake-2.0.sol\":1839:1860  token_address = token */\n  dup1\n  sload\n  not(sub(shl(0xa0, 0x01), 0x01))\n  and\n  sub(shl(0xa0, 0x01), 0x01)\n  swap3\n  swap1\n  swap3\n  and\n  swap2\n  swap1\n  swap2\n  or\n  swap1\n  sstore\n    /* \"contracts/Stake-2.0.sol\":1871:1885  stakingPackage */\n  0x02\n    /* \"contracts/Stake-2.0.sol\":1871:1894  stakingPackage[90 days] */\n  0x20\n  mstore\n    /* \"contracts/Stake-2.0.sol\":1897:1898  6 */\n  0x06\n    /* \"contracts/Stake-2.0.sol\":1871:1894  stakingPackage[90 days] */\n  0xa1ef5b42f18533d67a183a193ea6c3fabfaa3bdabc3fc0e3f65b19b517df6e8c\n    /* \"contracts/Stake-2.0.sol\":1871:1898  stakingPackage[90 days] = 6 */\n  sstore\n    /* \"contracts/Stake-2.0.sol\":1935:1936  7 */\n  0x07\n    /* \"contracts/Stake-2.0.sol\":1908:1932  stakingPackage[180 days] */\n  0x089cfcbf844e824feee5f634cbc488382291f3c9e0de5905f3c30812390dd832\n    /* \"contracts/Stake-2.0.sol\":1908:1936  stakingPackage[180 days] = 7 */\n  sstore\n    /* \"contracts/Stake-2.0.sol\":1961:1969  365 days */\n  0x01e13380\n  0x00\n    /* \"contracts/Stake-2.0.sol\":1946:1970  stakingPackage[365 days] */\n  mstore\n    /* \"contracts/Stake-2.0.sol\":1973:1974  8 */\n  0x08\n    /* \"contracts/Stake-2.0.sol\":1946:1970  stakingPackage[365 days] */\n  0xdc083eb4da7563bbd761324b5158d9d40af7c7174afe39b0b31a7577c44fc33b\n    /* \"contracts/Stake-2.0.sol\":1946:1974  stakingPackage[365 days] = 8 */\n  sstore\n    /* \"contracts/Stake-2.0.sol\":980:12412  contract Staking is ReentrancyGuard, Ownable {... */\n  jump(tag_17)\n    /* \"@openzeppelin/contracts/access/Ownable.sol\":2270:2457  function _transferOwnership(address newOwner) internal virtual {... */\ntag_12:\n    /* \"@openzeppelin/contracts/access/Ownable.sol\":2362:2368  _owner */\n  0x01\n  dup1\n  sload\n  sub(shl(0xa0, 0x01), 0x01)\n    /* \"@openzeppelin/contracts/access/Ownable.sol\":2378:2395  _owner = newOwner */\n  dup4\n  dup2\n  and\n  not(sub(shl(0xa0, 0x01), 0x01))\n  dup4\n  and\n  dup2\n  or\n  swap1\n  swap4\n  sstore\n    /* \"@openzeppelin/contracts/access/Ownable.sol\":2410:2450  OwnershipTransferred(oldOwner, newOwner) */\n  mload(0x40)\n    /* \"@openzeppelin/contracts/access/Ownable.sol\":2362:2368  _owner */\n  swap2\n  and\n  swap2\n    /* \"@openzeppelin/contracts/access/Ownable.sol\":2378:2395  _owner = newOwner */\n  swap1\n    /* \"@openzeppelin/contracts/access/Ownable.sol\":2362:2368  _owner */\n  dup3\n  swap1\n    /* \"@openzeppelin/contracts/access/Ownable.sol\":2410:2450  OwnershipTransferred(oldOwner, newOwner) */\n  0x8be0079c531659141344cd1fd0a4f28419497f9722a3daafe3b4186f6b6457e0\n  swap1\n    /* \"@openzeppelin/contracts/access/Ownable.sol\":2343:2359  address oldOwner */\n  0x00\n  swap1\n    /* \"@openzeppelin/contracts/access/Ownable.sol\":2410:2450  OwnershipTransferred(oldOwner, newOwner) */\n  log3\n    /* \"@openzeppelin/contracts/access/Ownable.sol\":2333:2457  {... */\n  pop\n    /* \"@openzeppelin/contracts/access/Ownable.sol\":2270:2457  function _transferOwnership(address newOwner) internal virtual {... */\n  pop\n  jump\t// out\n    /* \"#utility.yul\":14:304   */\ntag_3:\n    /* \"#utility.yul\":84:90   */\n  0x00\n    /* \"#utility.yul\":137:139   */\n  0x20\n    /* \"#utility.yul\":125:134   */\n  dup3\n    /* \"#utility.yul\":116:123   */\n  dup5\n    /* \"#utility.yul\":112:135   */\n  sub\n    /* \"#utility.yul\":108:140   */\n  slt\n    /* \"#utility.yul\":105:157   */\n  iszero\n  tag_19\n  jumpi\n    /* \"#utility.yul\":153:154   */\n  0x00\n    /* \"#utility.yul\":150:151   */\n  dup1\n    /* \"#utility.yul\":143:155   */\n  revert\n    /* \"#utility.yul\":105:157   */\ntag_19:\n    /* \"#utility.yul\":179:195   */\n  dup2\n  mload\n  sub(shl(0xa0, 0x01), 0x01)\n    /* \"#utility.yul\":224:255   */\n  dup2\n  and\n    /* \"#utility.yul\":214:256   */\n  dup2\n  eq\n    /* \"#utility.yul\":204:274   */\n  tag_20\n  jumpi\n    /* \"#utility.yul\":270:271   */\n  0x00\n    /* \"#utility.yul\":267:268   */\n  dup1\n    /* \"#utility.yul\":260:272   */\n  revert\n    /* \"#utility.yul\":204:274   */\ntag_20:\n    /* \"#utility.yul\":293:298   */\n  swap4\n    /* \"#utility.yul\":14:304   */\n  swap3\n  pop\n  pop\n  pop\n  jump\t// out\ntag_17:\n    /* \"contracts/Stake-2.0.sol\":980:12412  contract Staking is ReentrancyGuard, Ownable {... */\n  dataSize(sub_0)\n  dup1\n  dataOffset(sub_0)\n  0x00\n  codecopy\n  0x00\n  return\nstop\n\nsub_0: assembly {\n        /* \"contracts/Stake-2.0.sol\":980:12412  contract Staking is ReentrancyGuard, Ownable {... */\n      mstore(0x40, 0x80)\n      callvalue\n      dup1\n      iszero\n      tag_1\n      jumpi\n      0x00\n      dup1\n      revert\n    tag_1:\n      pop\n      jumpi(tag_2, lt(calldatasize, 0x04))\n      shr(0xe0, calldataload(0x00))\n      dup1\n      0xa143a5f2\n      gt\n      tag_22\n      jumpi\n      dup1\n      0xc63aa3e7\n      gt\n      tag_23\n      jumpi\n      dup1\n      0xc63aa3e7\n      eq\n      tag_17\n      jumpi\n      dup1\n      0xcb79c2e1\n      eq\n      tag_18\n      jumpi\n      dup1\n      0xd2a569c3\n      eq\n      tag_19\n      jumpi\n      dup1\n      0xd5dbdf1b\n      eq\n      tag_20\n      jumpi\n      dup1\n      0xf2fde38b\n      eq\n      tag_21\n      jumpi\n      0x00\n      dup1\n      revert\n    tag_23:\n      dup1\n      0xa143a5f2\n      eq\n      tag_12\n      jumpi\n      dup1\n      0xa3ec138d\n      eq\n      tag_13\n      jumpi\n      dup1\n      0xb5d9df83\n      eq\n      tag_14\n      jumpi\n      dup1\n      0xb87da76d\n      eq\n      tag_15\n      jumpi\n      dup1\n      0xbed9d861\n      eq\n      tag_16\n      jumpi\n      0x00\n      dup1\n      revert\n    tag_22:\n      dup1\n      0x7b0472f0\n      gt\n      tag_24\n      jumpi\n      dup1\n      0x7b0472f0\n      eq\n      tag_7\n      jumpi\n      dup1\n      0x8891cf0d\n      eq\n      tag_8\n      jumpi\n      dup1\n      0x8c63f97f\n      eq\n      tag_9\n      jumpi\n      dup1\n      0x8c8e8fee\n      eq\n      tag_10\n      jumpi\n      dup1\n      0x8da5cb5b\n      eq\n      tag_11\n      jumpi\n      0x00\n      dup1\n      revert\n    tag_24:\n      dup1\n      0x10486b6a\n      eq\n      tag_3\n      jumpi\n      dup1\n      0x5b88349d\n      eq\n      tag_4\n      jumpi\n      dup1\n      0x5f5300ff\n      eq\n      tag_5\n      jumpi\n      dup1\n      0x715018a6\n      eq\n      tag_6\n      jumpi\n    tag_2:\n      0x00\n      dup1\n      revert\n        /* \"contracts/Stake-2.0.sol\":8167:9191  function hasStake() external view returns (StakingSummary memory) {... */\n    tag_3:\n      tag_25\n      tag_26\n      jump\t// in\n    tag_25:\n      mload(0x40)\n      tag_27\n      swap2\n      swap1\n        /* \"#utility.yul\":168:172   */\n      0x00\n        /* \"#utility.yul\":210:213   */\n      0x0120\n        /* \"#utility.yul\":199:208   */\n      dup3\n        /* \"#utility.yul\":195:214   */\n      add\n        /* \"#utility.yul\":187:214   */\n      swap1\n      pop\n        /* \"#utility.yul\":247:253   */\n      dup3\n        /* \"#utility.yul\":241:254   */\n      mload\n        /* \"#utility.yul\":230:239   */\n      dup3\n        /* \"#utility.yul\":223:255   */\n      mstore\n        /* \"#utility.yul\":311:315   */\n      0x20\n        /* \"#utility.yul\":303:309   */\n      dup4\n        /* \"#utility.yul\":299:316   */\n      add\n        /* \"#utility.yul\":293:317   */\n      mload\n        /* \"#utility.yul\":286:290   */\n      0x20\n        /* \"#utility.yul\":275:284   */\n      dup4\n        /* \"#utility.yul\":271:291   */\n      add\n        /* \"#utility.yul\":264:318   */\n      mstore\n        /* \"#utility.yul\":365:369   */\n      0x40\n        /* \"#utility.yul\":357:363   */\n      dup4\n        /* \"#utility.yul\":353:370   */\n      add\n        /* \"#utility.yul\":347:371   */\n      mload\n        /* \"#utility.yul\":415:427   */\n      dup1\n        /* \"#utility.yul\":409:428   */\n      mload\n        /* \"#utility.yul\":402:406   */\n      0x40\n        /* \"#utility.yul\":391:400   */\n      dup5\n        /* \"#utility.yul\":387:407   */\n      add\n        /* \"#utility.yul\":380:429   */\n      mstore\n        /* \"#utility.yul\":489:493   */\n      0x20\n        /* \"#utility.yul\":475:487   */\n      dup2\n        /* \"#utility.yul\":471:494   */\n      add\n        /* \"#utility.yul\":465:495   */\n      mload\n        /* \"#utility.yul\":460:462   */\n      0x60\n        /* \"#utility.yul\":449:458   */\n      dup5\n        /* \"#utility.yul\":445:463   */\n      add\n        /* \"#utility.yul\":438:496   */\n      mstore\n        /* \"#utility.yul\":557:561   */\n      0x40\n        /* \"#utility.yul\":543:555   */\n      dup2\n        /* \"#utility.yul\":539:562   */\n      add\n        /* \"#utility.yul\":533:563   */\n      mload\n        /* \"#utility.yul\":527:530   */\n      0x80\n        /* \"#utility.yul\":516:525   */\n      dup5\n        /* \"#utility.yul\":512:531   */\n      add\n        /* \"#utility.yul\":505:564   */\n      mstore\n        /* \"#utility.yul\":625:627   */\n      0x60\n        /* \"#utility.yul\":611:623   */\n      dup2\n        /* \"#utility.yul\":607:628   */\n      add\n        /* \"#utility.yul\":601:629   */\n      mload\n        /* \"#utility.yul\":595:598   */\n      0xa0\n        /* \"#utility.yul\":584:593   */\n      dup5\n        /* \"#utility.yul\":580:599   */\n      add\n        /* \"#utility.yul\":573:630   */\n      mstore\n        /* \"#utility.yul\":691:694   */\n      0x80\n        /* \"#utility.yul\":677:689   */\n      dup2\n        /* \"#utility.yul\":673:695   */\n      add\n        /* \"#utility.yul\":667:696   */\n      mload\n        /* \"#utility.yul\":661:664   */\n      0xc0\n        /* \"#utility.yul\":650:659   */\n      dup5\n        /* \"#utility.yul\":646:665   */\n      add\n        /* \"#utility.yul\":639:697   */\n      mstore\n        /* \"#utility.yul\":758:761   */\n      0xa0\n        /* \"#utility.yul\":744:756   */\n      dup2\n        /* \"#utility.yul\":740:762   */\n      add\n        /* \"#utility.yul\":734:763   */\n      mload\n        /* \"#utility.yul\":728:731   */\n      0xe0\n        /* \"#utility.yul\":717:726   */\n      dup5\n        /* \"#utility.yul\":713:732   */\n      add\n        /* \"#utility.yul\":706:764   */\n      mstore\n        /* \"#utility.yul\":825:828   */\n      0xc0\n        /* \"#utility.yul\":811:823   */\n      dup2\n        /* \"#utility.yul\":807:829   */\n      add\n        /* \"#utility.yul\":801:830   */\n      mload\n        /* \"#utility.yul\":795:798   */\n      0x0100\n        /* \"#utility.yul\":784:793   */\n      dup5\n        /* \"#utility.yul\":780:799   */\n      add\n        /* \"#utility.yul\":773:831   */\n      mstore\n      pop\n        /* \"#utility.yul\":14:837   */\n      swap3\n      swap2\n      pop\n      pop\n      jump\n        /* \"contracts/Stake-2.0.sol\":8167:9191  function hasStake() external view returns (StakingSummary memory) {... */\n    tag_27:\n      mload(0x40)\n      dup1\n      swap2\n      sub\n      swap1\n      return\n        /* \"contracts/Stake-2.0.sol\":10066:10622  function claimAirdrop() external {... */\n    tag_4:\n      tag_29\n      tag_30\n      jump\t// in\n    tag_29:\n      stop\n        /* \"contracts/Stake-2.0.sol\":1516:1542  uint256 public totalVoters */\n    tag_5:\n      tag_31\n      sload(0x08)\n      dup2\n      jump\n    tag_31:\n      mload(0x40)\n        /* \"#utility.yul\":988:1013   */\n      swap1\n      dup2\n      mstore\n        /* \"#utility.yul\":976:978   */\n      0x20\n        /* \"#utility.yul\":961:979   */\n      add\n        /* \"contracts/Stake-2.0.sol\":1516:1542  uint256 public totalVoters */\n      tag_27\n        /* \"#utility.yul\":842:1019   */\n      jump\n        /* \"@openzeppelin/contracts/access/Ownable.sol\":1668:1769  function renounceOwnership() public virtual onlyOwner {... */\n    tag_6:\n      tag_29\n      tag_36\n      jump\t// in\n        /* \"contracts/Stake-2.0.sol\":4306:5554  function stake(uint256 amount, uint256 stakePeriod) external nonReentrant {... */\n    tag_7:\n      tag_29\n      tag_38\n      calldatasize\n      0x04\n      tag_39\n      jump\t// in\n    tag_38:\n      tag_40\n      jump\t// in\n        /* \"contracts/Stake-2.0.sol\":1385:1411  uint256 public airdropRate */\n    tag_8:\n      tag_31\n      sload(0x04)\n      dup2\n      jump\n        /* \"contracts/Stake-2.0.sol\":5560:5866  function changePenaltyFee(uint256 amount) external onlyOwner {... */\n    tag_9:\n      tag_29\n      tag_45\n      calldatasize\n      0x04\n      tag_46\n      jump\t// in\n    tag_45:\n      tag_47\n      jump\t// in\n        /* \"contracts/Stake-2.0.sol\":1645:1673  address public token_address */\n    tag_10:\n      sload(0x0b)\n      tag_48\n      swap1\n      sub(shl(0xa0, 0x01), 0x01)\n      and\n      dup2\n      jump\n    tag_48:\n      mload(0x40)\n      sub(shl(0xa0, 0x01), 0x01)\n        /* \"#utility.yul\":1626:1658   */\n      swap1\n      swap2\n      and\n        /* \"#utility.yul\":1608:1659   */\n      dup2\n      mstore\n        /* \"#utility.yul\":1596:1598   */\n      0x20\n        /* \"#utility.yul\":1581:1599   */\n      add\n        /* \"contracts/Stake-2.0.sol\":1645:1673  address public token_address */\n      tag_27\n        /* \"#utility.yul\":1462:1665   */\n      jump\n        /* \"@openzeppelin/contracts/access/Ownable.sol\":1036:1121  function owner() public view virtual returns (address) {... */\n    tag_11:\n        /* \"@openzeppelin/contracts/access/Ownable.sol\":1108:1114  _owner */\n      and(sub(shl(0xa0, 0x01), 0x01), sload(0x01))\n        /* \"@openzeppelin/contracts/access/Ownable.sol\":1036:1121  function owner() public view virtual returns (address) {... */\n      jump(tag_48)\n        /* \"contracts/Stake-2.0.sol\":1593:1638  mapping(uint256 => uint256) public votedUsers */\n    tag_12:\n      tag_31\n      tag_56\n      calldatasize\n      0x04\n      tag_46\n      jump\t// in\n    tag_56:\n      mstore(0x20, 0x0a)\n      0x00\n      swap1\n      dup2\n      mstore\n      0x40\n      swap1\n      keccak256\n      sload\n      dup2\n      jump\n        /* \"contracts/Stake-2.0.sol\":1548:1587  mapping(address => Voter) public voters */\n    tag_13:\n      tag_59\n      tag_60\n      calldatasize\n      0x04\n      tag_61\n      jump\t// in\n    tag_60:\n      mstore(0x20, 0x09)\n      0x00\n      swap1\n      dup2\n      mstore\n      0x40\n      swap1\n      keccak256\n      sload\n      0xff\n      and\n      dup2\n      jump\n    tag_59:\n      mload(0x40)\n        /* \"#utility.yul\":2126:2140   */\n      swap1\n      iszero\n        /* \"#utility.yul\":2119:2141   */\n      iszero\n        /* \"#utility.yul\":2101:2142   */\n      dup2\n      mstore\n        /* \"#utility.yul\":2089:2091   */\n      0x20\n        /* \"#utility.yul\":2074:2092   */\n      add\n        /* \"contracts/Stake-2.0.sol\":1548:1587  mapping(address => Voter) public voters */\n      tag_27\n        /* \"#utility.yul\":1961:2148   */\n      jump\n        /* \"contracts/Stake-2.0.sol\":9741:9875  function calculateWeek(uint256 timestamp) public view returns (uint256) {... */\n    tag_14:\n      tag_31\n      tag_66\n      calldatasize\n      0x04\n      tag_46\n      jump\t// in\n    tag_66:\n      tag_67\n      jump\t// in\n        /* \"contracts/Stake-2.0.sol\":1417:1444  uint256 public airdropSince */\n    tag_15:\n      tag_31\n      sload(0x05)\n      dup2\n      jump\n        /* \"contracts/Stake-2.0.sol\":7258:8161  function withdrawStake() external nonReentrant {... */\n    tag_16:\n      tag_29\n      tag_73\n      jump\t// in\n        /* \"contracts/Stake-2.0.sol\":9639:9735  function _blockTimestamp() public view returns (uint256) {... */\n    tag_17:\n        /* \"contracts/Stake-2.0.sol\":9713:9728  block.timestamp */\n      timestamp\n        /* \"contracts/Stake-2.0.sol\":9639:9735  function _blockTimestamp() public view returns (uint256) {... */\n      jump(tag_31)\n        /* \"contracts/Stake-2.0.sol\":1346:1379  uint256 public stakingPenaltyRate */\n    tag_18:\n      tag_31\n      sload(0x03)\n      dup2\n      jump\n        /* \"contracts/Stake-2.0.sol\":9303:9393  function startAirdrop() external onlyOwner {... */\n    tag_19:\n      tag_29\n      tag_81\n      jump\t// in\n        /* \"contracts/Stake-2.0.sol\":9399:9633  function changeAirdropPercentage(uint256 amount) external onlyOwner {... */\n    tag_20:\n      tag_29\n      tag_83\n      calldatasize\n      0x04\n      tag_46\n      jump\t// in\n    tag_83:\n      tag_84\n      jump\t// in\n        /* \"@openzeppelin/contracts/access/Ownable.sol\":1918:2116  function transferOwnership(address newOwner) public virtual onlyOwner {... */\n    tag_21:\n      tag_29\n      tag_86\n      calldatasize\n      0x04\n      tag_61\n      jump\t// in\n    tag_86:\n      tag_87\n      jump\t// in\n        /* \"contracts/Stake-2.0.sol\":8167:9191  function hasStake() external view returns (StakingSummary memory) {... */\n    tag_26:\n        /* \"contracts/Stake-2.0.sol\":8210:8231  StakingSummary memory */\n      tag_88\n      tag_89\n      jump\t// in\n    tag_88:\n        /* \"contracts/Stake-2.0.sol\":8282:8292  msg.sender */\n      caller\n        /* \"contracts/Stake-2.0.sol\":8243:8266  Stake memory user_stake */\n      0x00\n        /* \"contracts/Stake-2.0.sol\":8269:8293  stakeholders[msg.sender] */\n      swap1\n      dup2\n      mstore\n        /* \"contracts/Stake-2.0.sol\":8269:8281  stakeholders */\n      0x0c\n        /* \"contracts/Stake-2.0.sol\":8269:8293  stakeholders[msg.sender] */\n      0x20\n      swap1\n      dup2\n      mstore\n      0x40\n      swap2\n      dup3\n      swap1\n      keccak256\n        /* \"contracts/Stake-2.0.sol\":8243:8293  Stake memory user_stake = stakeholders[msg.sender] */\n      dup3\n      mload\n      0xe0\n      dup2\n      add\n      dup5\n      mstore\n      dup2\n      sload\n      dup1\n      dup3\n      mstore\n      0x01\n      dup4\n      add\n      sload\n      swap4\n      dup3\n      add\n      swap4\n      swap1\n      swap4\n      mstore\n      0x02\n      dup3\n      add\n      sload\n      swap4\n      dup2\n      add\n      swap4\n      swap1\n      swap4\n      mstore\n      0x03\n      dup2\n      add\n      sload\n      0x60\n      dup5\n      add\n      mstore\n      0x04\n      dup2\n      add\n      sload\n      0x80\n      dup5\n      add\n      mstore\n      0x05\n      dup2\n      add\n      sload\n      0xa0\n      dup5\n      add\n      mstore\n      0x06\n      add\n      sload\n      0xc0\n      dup4\n      add\n      mstore\n        /* \"contracts/Stake-2.0.sol\":8364:8449  if (user_stake.amount <= 0) {... */\n      tag_91\n      jumpi\n        /* \"contracts/Stake-2.0.sol\":8413:8438  Staking__noStakingFound() */\n      mload(0x40)\n      shl(0xe0, 0xb018f087)\n      dup2\n      mstore\n      0x04\n      add\n      mload(0x40)\n      dup1\n      swap2\n      sub\n      swap1\n      revert\n        /* \"contracts/Stake-2.0.sol\":8364:8449  if (user_stake.amount <= 0) {... */\n    tag_91:\n        /* \"contracts/Stake-2.0.sol\":8490:8522  StakingSummary(0, 0, user_stake) */\n      0x40\n      dup1\n      mload\n      0x60\n      dup2\n      add\n      dup3\n      mstore\n        /* \"contracts/Stake-2.0.sol\":8458:8487  StakingSummary memory summary */\n      0x00\n        /* \"contracts/Stake-2.0.sol\":8490:8522  StakingSummary(0, 0, user_stake) */\n      dup1\n      dup3\n      mstore\n      0x20\n      dup3\n      add\n      dup2\n      swap1\n      mstore\n      swap2\n      dup2\n      add\n      dup4\n      swap1\n      mstore\n      swap1\n        /* \"contracts/Stake-2.0.sol\":8550:8583  _calculateStakeReward(user_stake) */\n      tag_92\n        /* \"contracts/Stake-2.0.sol\":8511:8521  user_stake */\n      dup4\n        /* \"contracts/Stake-2.0.sol\":8550:8571  _calculateStakeReward */\n      tag_93\n        /* \"contracts/Stake-2.0.sol\":8550:8583  _calculateStakeReward(user_stake) */\n      jump\t// in\n    tag_92:\n        /* \"contracts/Stake-2.0.sol\":8533:8583  uint256 reward = _calculateStakeReward(user_stake) */\n      swap1\n      pop\n        /* \"contracts/Stake-2.0.sol\":8626:8641  block.timestamp */\n      timestamp\n        /* \"contracts/Stake-2.0.sol\":8598:8605  summary */\n      dup3\n        /* \"contracts/Stake-2.0.sol\":8598:8611  summary.stake */\n      0x40\n      add\n      mload\n        /* \"contracts/Stake-2.0.sol\":8598:8623  summary.stake.releaseTime */\n      0x60\n      add\n      mload\n        /* \"contracts/Stake-2.0.sol\":8598:8641  summary.stake.releaseTime > block.timestamp */\n      gt\n        /* \"contracts/Stake-2.0.sol\":8594:8808  if (summary.stake.releaseTime > block.timestamp) {... */\n      iszero\n      tag_94\n      jumpi\n        /* \"contracts/Stake-2.0.sol\":8792:8796  1000 */\n      0x03e8\n        /* \"contracts/Stake-2.0.sol\":8770:8788  stakingPenaltyRate */\n      sload(0x03)\n        /* \"contracts/Stake-2.0.sol\":8761:8767  reward */\n      dup3\n        /* \"contracts/Stake-2.0.sol\":8761:8788  reward * stakingPenaltyRate */\n      tag_95\n      swap2\n      swap1\n      tag_96\n      jump\t// in\n    tag_95:\n        /* \"contracts/Stake-2.0.sol\":8760:8796  (reward * stakingPenaltyRate) / 1000 */\n      tag_97\n      swap2\n      swap1\n      tag_98\n      jump\t// in\n    tag_97:\n        /* \"contracts/Stake-2.0.sol\":8713:8731  stakingPenaltyRate */\n      sload(0x03)\n        /* \"contracts/Stake-2.0.sol\":8693:8710  user_stake.amount */\n      dup5\n      mload\n        /* \"contracts/Stake-2.0.sol\":8735:8739  1000 */\n      0x03e8\n      swap2\n        /* \"contracts/Stake-2.0.sol\":8693:8731  user_stake.amount * stakingPenaltyRate */\n      tag_99\n      swap2\n      tag_96\n      jump\t// in\n    tag_99:\n        /* \"contracts/Stake-2.0.sol\":8692:8739  (user_stake.amount * stakingPenaltyRate) / 1000 */\n      tag_100\n      swap2\n      swap1\n      tag_98\n      jump\t// in\n    tag_100:\n        /* \"contracts/Stake-2.0.sol\":8691:8797  ((user_stake.amount * stakingPenaltyRate) / 1000) +... */\n      tag_101\n      swap2\n      swap1\n      tag_102\n      jump\t// in\n    tag_101:\n        /* \"contracts/Stake-2.0.sol\":8657:8672  summary.penalty */\n      0x20\n      dup4\n      add\n        /* \"contracts/Stake-2.0.sol\":8657:8797  summary.penalty =... */\n      mstore\n        /* \"contracts/Stake-2.0.sol\":8594:8808  if (summary.stake.releaseTime > block.timestamp) {... */\n    tag_94:\n        /* \"contracts/Stake-2.0.sol\":8866:8867  0 */\n      0x00\n        /* \"contracts/Stake-2.0.sol\":8822:8863  calculateWeek(user_stake.latestClaimDrop) */\n      tag_103\n        /* \"contracts/Stake-2.0.sol\":8836:8846  user_stake */\n      dup5\n        /* \"contracts/Stake-2.0.sol\":8836:8862  user_stake.latestClaimDrop */\n      0xc0\n      add\n      mload\n        /* \"contracts/Stake-2.0.sol\":8822:8835  calculateWeek */\n      tag_67\n        /* \"contracts/Stake-2.0.sol\":8822:8863  calculateWeek(user_stake.latestClaimDrop) */\n      jump\t// in\n    tag_103:\n        /* \"contracts/Stake-2.0.sol\":8822:8867  calculateWeek(user_stake.latestClaimDrop) > 0 */\n      gt\n        /* \"contracts/Stake-2.0.sol\":8818:9067  if (calculateWeek(user_stake.latestClaimDrop) > 0) {... */\n      iszero\n      tag_104\n      jumpi\n        /* \"contracts/Stake-2.0.sol\":8883:8898  uint256 airdrop */\n      0x00\n        /* \"contracts/Stake-2.0.sol\":8901:8937  _calculateAirdrop(user_stake.amount) */\n      tag_105\n        /* \"contracts/Stake-2.0.sol\":8919:8929  user_stake */\n      dup5\n        /* \"contracts/Stake-2.0.sol\":8919:8936  user_stake.amount */\n      0x00\n      add\n      mload\n        /* \"contracts/Stake-2.0.sol\":8901:8918  _calculateAirdrop */\n      tag_106\n        /* \"contracts/Stake-2.0.sol\":8901:8937  _calculateAirdrop(user_stake.amount) */\n      jump\t// in\n    tag_105:\n        /* \"contracts/Stake-2.0.sol\":8951:8964  summary.stake */\n      0x40\n      dup5\n      add\n      mload\n        /* \"contracts/Stake-2.0.sol\":8951:8981  summary.stake.claimableAirdrop */\n      0xa0\n      add\n        /* \"contracts/Stake-2.0.sol\":8951:8991  summary.stake.claimableAirdrop = airdrop */\n      mstore\n      pop\n        /* \"contracts/Stake-2.0.sol\":8818:9067  if (calculateWeek(user_stake.latestClaimDrop) > 0) {... */\n      jump(tag_107)\n    tag_104:\n        /* \"contracts/Stake-2.0.sol\":9022:9035  summary.stake */\n      0x40\n      dup3\n      add\n      mload\n        /* \"contracts/Stake-2.0.sol\":9055:9056  0 */\n      0x00\n        /* \"contracts/Stake-2.0.sol\":9022:9052  summary.stake.claimableAirdrop */\n      0xa0\n      swap1\n      swap2\n      add\n        /* \"contracts/Stake-2.0.sol\":9022:9056  summary.stake.claimableAirdrop = 0 */\n      mstore\n        /* \"contracts/Stake-2.0.sol\":8818:9067  if (calculateWeek(user_stake.latestClaimDrop) > 0) {... */\n    tag_107:\n        /* \"contracts/Stake-2.0.sol\":9077:9090  summary.stake */\n      0x40\n      dup3\n      add\n      mload\n        /* \"contracts/Stake-2.0.sol\":9077:9100  summary.stake.claimable */\n      0x80\n      add\n        /* \"contracts/Stake-2.0.sol\":9077:9109  summary.stake.claimable = reward */\n      mstore\n        /* \"contracts/Stake-2.0.sol\":9142:9159  user_stake.amount */\n      swap1\n      mload\n        /* \"contracts/Stake-2.0.sol\":9119:9159  summary.total_amount = user_stake.amount */\n      dup2\n      mstore\n        /* \"contracts/Stake-2.0.sol\":9077:9084  summary */\n      swap2\n        /* \"contracts/Stake-2.0.sol\":8167:9191  function hasStake() external view returns (StakingSummary memory) {... */\n      swap1\n      pop\n      jump\t// out\n        /* \"contracts/Stake-2.0.sol\":10066:10622  function claimAirdrop() external {... */\n    tag_30:\n        /* \"contracts/Stake-2.0.sol\":10197:10207  msg.sender */\n      caller\n        /* \"contracts/Stake-2.0.sol\":10161:10181  Stake storage staker */\n      0x00\n        /* \"contracts/Stake-2.0.sol\":10184:10208  stakeholders[msg.sender] */\n      swap1\n      dup2\n      mstore\n        /* \"contracts/Stake-2.0.sol\":10184:10196  stakeholders */\n      0x0c\n        /* \"contracts/Stake-2.0.sol\":10184:10208  stakeholders[msg.sender] */\n      0x20\n      mstore\n      0x40\n      swap1\n      keccak256\n        /* \"contracts/Stake-2.0.sol\":10223:10236  staker.amount */\n      dup1\n      sload\n        /* \"contracts/Stake-2.0.sol\":10223:10240  staker.amount > 0 */\n      iszero\n        /* \"contracts/Stake-2.0.sol\":10219:10616  if (staker.amount > 0) {... */\n      tag_109\n      jumpi\n        /* \"contracts/Stake-2.0.sol\":10260:10297  calculateWeek(staker.latestClaimDrop) */\n      tag_110\n        /* \"contracts/Stake-2.0.sol\":10274:10280  staker */\n      dup2\n        /* \"contracts/Stake-2.0.sol\":10274:10296  staker.latestClaimDrop */\n      0x06\n      add\n      sload\n        /* \"contracts/Stake-2.0.sol\":10260:10273  calculateWeek */\n      tag_67\n        /* \"contracts/Stake-2.0.sol\":10260:10297  calculateWeek(staker.latestClaimDrop) */\n      jump\t// in\n    tag_110:\n        /* \"contracts/Stake-2.0.sol\":10256:10373  if (calculateWeek(staker.latestClaimDrop) == 0) {... */\n      tag_111\n      jumpi\n        /* \"contracts/Stake-2.0.sol\":10329:10358  Airdrop__claimableOnceAWeek() */\n      mload(0x40)\n      shl(0xe2, 0x376115b3)\n      dup2\n      mstore\n      0x04\n      add\n      mload(0x40)\n      dup1\n      swap2\n      sub\n      swap1\n      revert\n        /* \"contracts/Stake-2.0.sol\":10256:10373  if (calculateWeek(staker.latestClaimDrop) == 0) {... */\n    tag_111:\n        /* \"contracts/Stake-2.0.sol\":10413:10414  0 */\n      0x00\n        /* \"contracts/Stake-2.0.sol\":10387:10410  staker.claimableAirdrop */\n      0x05\n      dup3\n      add\n        /* \"contracts/Stake-2.0.sol\":10387:10414  staker.claimableAirdrop = 0 */\n      sstore\n        /* \"contracts/Stake-2.0.sol\":10453:10468  block.timestamp */\n      timestamp\n        /* \"contracts/Stake-2.0.sol\":10428:10450  staker.latestClaimDrop */\n      0x06\n      dup3\n      add\n        /* \"contracts/Stake-2.0.sol\":10428:10468  staker.latestClaimDrop = block.timestamp */\n      sstore\n        /* \"contracts/Stake-2.0.sol\":10490:10503  token_address */\n      sload(0x0b)\n        /* \"contracts/Stake-2.0.sol\":10577:10590  staker.amount */\n      dup2\n      sload\n      sub(shl(0xa0, 0x01), 0x01)\n        /* \"contracts/Stake-2.0.sol\":10490:10503  token_address */\n      swap1\n      swap2\n      and\n      swap1\n        /* \"contracts/Stake-2.0.sol\":10483:10513  IERC20(token_address).transfer */\n      0xa9059cbb\n      swap1\n        /* \"contracts/Stake-2.0.sol\":10531:10541  msg.sender */\n      caller\n      swap1\n        /* \"contracts/Stake-2.0.sol\":10559:10591  _calculateAirdrop(staker.amount) */\n      tag_112\n      swap1\n        /* \"contracts/Stake-2.0.sol\":10559:10576  _calculateAirdrop */\n      tag_106\n        /* \"contracts/Stake-2.0.sol\":10559:10591  _calculateAirdrop(staker.amount) */\n      jump\t// in\n    tag_112:\n        /* \"contracts/Stake-2.0.sol\":10483:10605  IERC20(token_address).transfer(... */\n      mload(0x40)\n      not(sub(shl(0xe0, 0x01), 0x01))\n      0xe0\n      dup6\n      swap1\n      shl\n      and\n      dup2\n      mstore\n      sub(shl(0xa0, 0x01), 0x01)\n        /* \"#utility.yul\":3005:3037   */\n      swap1\n      swap3\n      and\n        /* \"contracts/Stake-2.0.sol\":10483:10605  IERC20(token_address).transfer(... */\n      0x04\n      dup4\n      add\n        /* \"#utility.yul\":2987:3038   */\n      mstore\n        /* \"#utility.yul\":3054:3072   */\n      0x24\n      dup3\n      add\n        /* \"#utility.yul\":3047:3081   */\n      mstore\n        /* \"#utility.yul\":2960:2978   */\n      0x44\n      add\n        /* \"contracts/Stake-2.0.sol\":10483:10605  IERC20(token_address).transfer(... */\n      0x20\n      mload(0x40)\n      dup1\n      dup4\n      sub\n      dup2\n      0x00\n      dup8\n      gas\n      call\n      iszero\n      dup1\n      iszero\n      tag_116\n      jumpi\n      returndatasize\n      0x00\n      dup1\n      returndatacopy\n      revert(0x00, returndatasize)\n    tag_116:\n      pop\n      pop\n      pop\n      pop\n      mload(0x40)\n      returndatasize\n      not(0x1f)\n      0x1f\n      dup3\n      add\n      and\n      dup3\n      add\n      dup1\n      0x40\n      mstore\n      pop\n      dup2\n      add\n      swap1\n      tag_117\n      swap2\n      swap1\n      tag_118\n      jump\t// in\n    tag_117:\n      pop\n        /* \"contracts/Stake-2.0.sol\":10219:10616  if (staker.amount > 0) {... */\n    tag_109:\n        /* \"contracts/Stake-2.0.sol\":10099:10622  {... */\n      pop\n        /* \"contracts/Stake-2.0.sol\":10066:10622  function claimAirdrop() external {... */\n      jump\t// out\n        /* \"@openzeppelin/contracts/access/Ownable.sol\":1668:1769  function renounceOwnership() public virtual onlyOwner {... */\n    tag_36:\n        /* \"@openzeppelin/contracts/access/Ownable.sol\":1108:1114  _owner */\n      and(sub(shl(0xa0, 0x01), 0x01), sload(0x01))\n        /* \"@openzeppelin/contracts/utils/Context.sol\":719:729  msg.sender */\n      caller\n        /* \"@openzeppelin/contracts/access/Ownable.sol\":1248:1271  owner() == _msgSender() */\n      eq\n        /* \"@openzeppelin/contracts/access/Ownable.sol\":1240:1308  require(owner() == _msgSender(), \"Ownable: caller is not the owner\") */\n      tag_123\n      jumpi\n      mload(0x40)\n      shl(0xe5, 0x461bcd)\n      dup2\n      mstore\n      0x04\n      add\n      tag_124\n      swap1\n      tag_125\n      jump\t// in\n    tag_124:\n      mload(0x40)\n      dup1\n      swap2\n      sub\n      swap1\n      revert\n    tag_123:\n        /* \"@openzeppelin/contracts/access/Ownable.sol\":1732:1762  _transferOwnership(address(0)) */\n      tag_127\n        /* \"@openzeppelin/contracts/access/Ownable.sol\":1759:1760  0 */\n      0x00\n        /* \"@openzeppelin/contracts/access/Ownable.sol\":1732:1750  _transferOwnership */\n      tag_128\n        /* \"@openzeppelin/contracts/access/Ownable.sol\":1732:1762  _transferOwnership(address(0)) */\n      jump\t// in\n    tag_127:\n        /* \"@openzeppelin/contracts/access/Ownable.sol\":1668:1769  function renounceOwnership() public virtual onlyOwner {... */\n      jump\t// out\n        /* \"contracts/Stake-2.0.sol\":4306:5554  function stake(uint256 amount, uint256 stakePeriod) external nonReentrant {... */\n    tag_40:\n        /* \"@openzeppelin/contracts/security/ReentrancyGuard.sol\":1744:1745  2 */\n      0x02\n        /* \"@openzeppelin/contracts/security/ReentrancyGuard.sol\":2325:2332  _status */\n      sload(0x00)\n        /* \"@openzeppelin/contracts/security/ReentrancyGuard.sol\":2325:2344  _status != _ENTERED */\n      eq\n      iszero\n        /* \"@openzeppelin/contracts/security/ReentrancyGuard.sol\":2317:2380  require(_status != _ENTERED, \"ReentrancyGuard: reentrant call\") */\n      tag_130\n      jumpi\n      mload(0x40)\n      shl(0xe5, 0x461bcd)\n      dup2\n      mstore\n        /* \"#utility.yul\":3937:3939   */\n      0x20\n        /* \"@openzeppelin/contracts/security/ReentrancyGuard.sol\":2317:2380  require(_status != _ENTERED, \"ReentrancyGuard: reentrant call\") */\n      0x04\n      dup3\n      add\n        /* \"#utility.yul\":3919:3940   */\n      mstore\n        /* \"#utility.yul\":3976:3978   */\n      0x1f\n        /* \"#utility.yul\":3956:3974   */\n      0x24\n      dup3\n      add\n        /* \"#utility.yul\":3949:3979   */\n      mstore\n        /* \"#utility.yul\":4015:4048   */\n      0x5265656e7472616e637947756172643a207265656e7472616e742063616c6c00\n        /* \"#utility.yul\":3995:4013   */\n      0x44\n      dup3\n      add\n        /* \"#utility.yul\":3988:4049   */\n      mstore\n        /* \"#utility.yul\":4066:4084   */\n      0x64\n      add\n        /* \"@openzeppelin/contracts/security/ReentrancyGuard.sol\":2317:2380  require(_status != _ENTERED, \"ReentrancyGuard: reentrant call\") */\n      tag_124\n        /* \"#utility.yul\":3735:4090   */\n      jump\n        /* \"@openzeppelin/contracts/security/ReentrancyGuard.sol\":2317:2380  require(_status != _ENTERED, \"ReentrancyGuard: reentrant call\") */\n    tag_130:\n        /* \"@openzeppelin/contracts/security/ReentrancyGuard.sol\":1744:1745  2 */\n      0x02\n        /* \"@openzeppelin/contracts/security/ReentrancyGuard.sol\":2455:2462  _status */\n      0x00\n        /* \"@openzeppelin/contracts/security/ReentrancyGuard.sol\":2455:2473  _status = _ENTERED */\n      swap1\n      dup2\n      sstore\n        /* \"contracts/Stake-2.0.sol\":4589:4599  msg.sender */\n      caller\n        /* \"contracts/Stake-2.0.sol\":4576:4600  stakeholders[msg.sender] */\n      dup2\n      mstore\n        /* \"contracts/Stake-2.0.sol\":4576:4588  stakeholders */\n      0x0c\n        /* \"contracts/Stake-2.0.sol\":4576:4600  stakeholders[msg.sender] */\n      0x20\n      mstore\n      0x40\n      swap1\n      keccak256\n        /* \"contracts/Stake-2.0.sol\":4576:4607  stakeholders[msg.sender].amount */\n      sload\n        /* \"contracts/Stake-2.0.sol\":4576:4612  stakeholders[msg.sender].amount != 0 */\n      iszero\n        /* \"contracts/Stake-2.0.sol\":4572:4669  if (stakeholders[msg.sender].amount != 0) {... */\n      tag_134\n      jumpi\n        /* \"contracts/Stake-2.0.sol\":4635:4658  Staking__userIsStaker() */\n      mload(0x40)\n      shl(0xe0, 0x04462d27)\n      dup2\n      mstore\n      0x04\n      add\n      mload(0x40)\n      dup1\n      swap2\n      sub\n      swap1\n      revert\n        /* \"contracts/Stake-2.0.sol\":4572:4669  if (stakeholders[msg.sender].amount != 0) {... */\n    tag_134:\n        /* \"contracts/Stake-2.0.sol\":4683:4710  stakingPackage[stakePeriod] */\n      0x00\n      dup2\n      dup2\n      mstore\n        /* \"contracts/Stake-2.0.sol\":4683:4697  stakingPackage */\n      0x02\n        /* \"contracts/Stake-2.0.sol\":4683:4710  stakingPackage[stakePeriod] */\n      0x20\n      mstore\n      0x40\n      swap1\n      keccak256\n      sload\n        /* \"contracts/Stake-2.0.sol\":4679:4780  if (stakingPackage[stakePeriod] == 0) {... */\n      tag_135\n      jumpi\n        /* \"contracts/Stake-2.0.sol\":4738:4769  Staking_noStakingPackageFound() */\n      mload(0x40)\n      shl(0xe2, 0x254ddef9)\n      dup2\n      mstore\n      0x04\n      add\n      mload(0x40)\n      dup1\n      swap2\n      sub\n      swap1\n      revert\n        /* \"contracts/Stake-2.0.sol\":4679:4780  if (stakingPackage[stakePeriod] == 0) {... */\n    tag_135:\n        /* \"contracts/Stake-2.0.sol\":4805:4806  1 */\n      0x01\n        /* \"contracts/Stake-2.0.sol\":4790:4801  totalVoters */\n      0x08\n      0x00\n        /* \"contracts/Stake-2.0.sol\":4790:4806  totalVoters += 1 */\n      dup3\n      dup3\n      sload\n      tag_136\n      swap2\n      swap1\n      tag_102\n      jump\t// in\n    tag_136:\n      swap1\n      swap2\n      sstore\n      pop\n      pop\n        /* \"contracts/Stake-2.0.sol\":4823:4833  msg.sender */\n      caller\n        /* \"contracts/Stake-2.0.sol\":4816:4834  voters[msg.sender] */\n      0x00\n      swap1\n      dup2\n      mstore\n        /* \"contracts/Stake-2.0.sol\":4816:4822  voters */\n      0x09\n        /* \"contracts/Stake-2.0.sol\":4816:4834  voters[msg.sender] */\n      0x20\n      swap1\n      dup2\n      mstore\n      0x40\n      dup1\n      dup4\n      keccak256\n        /* \"contracts/Stake-2.0.sol\":4816:4853  voters[msg.sender].votingRight = true */\n      dup1\n      sload\n      not(0xff)\n      and\n        /* \"contracts/Stake-2.0.sol\":4849:4853  true */\n      0x01\n        /* \"contracts/Stake-2.0.sol\":4816:4853  voters[msg.sender].votingRight = true */\n      or\n      swap1\n      sstore\n        /* \"contracts/Stake-2.0.sol\":5142:5325  Stake(... */\n      dup1\n      mload\n      0xe0\n      dup2\n      add\n      dup3\n      mstore\n      dup6\n      dup2\n      mstore\n        /* \"contracts/Stake-2.0.sol\":4971:4986  block.timestamp */\n      timestamp\n        /* \"contracts/Stake-2.0.sol\":5142:5325  Stake(... */\n      dup2\n      dup5\n      add\n      dup2\n      swap1\n      mstore\n        /* \"contracts/Stake-2.0.sol\":5204:5231  stakingPackage[stakePeriod] */\n      dup6\n      dup6\n      mstore\n        /* \"contracts/Stake-2.0.sol\":5204:5218  stakingPackage */\n      0x02\n        /* \"contracts/Stake-2.0.sol\":5204:5231  stakingPackage[stakePeriod] */\n      swap1\n      swap4\n      mstore\n      swap3\n      dup2\n      swap1\n      keccak256\n      sload\n        /* \"contracts/Stake-2.0.sol\":5142:5325  Stake(... */\n      swap1\n      dup4\n      add\n      mstore\n        /* \"contracts/Stake-2.0.sol\":4971:4986  block.timestamp */\n      swap1\n        /* \"contracts/Stake-2.0.sol\":5142:5325  Stake(... */\n      0x60\n      dup2\n      add\n        /* \"contracts/Stake-2.0.sol\":5246:5269  stakePeriod + timestamp */\n      tag_137\n        /* \"contracts/Stake-2.0.sol\":4971:4986  block.timestamp */\n      dup4\n        /* \"contracts/Stake-2.0.sol\":5219:5230  stakePeriod */\n      dup6\n        /* \"contracts/Stake-2.0.sol\":5246:5269  stakePeriod + timestamp */\n      tag_102\n      jump\t// in\n    tag_137:\n        /* \"contracts/Stake-2.0.sol\":5142:5325  Stake(... */\n      dup2\n      mstore\n        /* \"contracts/Stake-2.0.sol\":5284:5285  0 */\n      0x00\n        /* \"contracts/Stake-2.0.sol\":5142:5325  Stake(... */\n      0x20\n      dup1\n      dup4\n      add\n      dup3\n      swap1\n      mstore\n      0x40\n      dup1\n      dup5\n      add\n      dup4\n      swap1\n      mstore\n      0x60\n      swap4\n      dup5\n      add\n      dup4\n      swap1\n      mstore\n        /* \"contracts/Stake-2.0.sol\":5128:5138  msg.sender */\n      caller\n        /* \"contracts/Stake-2.0.sol\":5115:5139  stakeholders[msg.sender] */\n      dup1\n      dup5\n      mstore\n        /* \"contracts/Stake-2.0.sol\":5115:5127  stakeholders */\n      0x0c\n        /* \"contracts/Stake-2.0.sol\":5115:5139  stakeholders[msg.sender] */\n      dup4\n      mstore\n      swap3\n      dup2\n      swap1\n      keccak256\n        /* \"contracts/Stake-2.0.sol\":5115:5325  stakeholders[msg.sender] = Stake(... */\n      dup6\n      mload\n      dup2\n      sstore\n      swap2\n      dup6\n      add\n      mload\n      0x01\n      dup4\n      add\n      sstore\n      dup5\n      add\n      mload\n      0x02\n      dup3\n      add\n      sstore\n      swap2\n      dup4\n      add\n      mload\n      0x03\n      dup4\n      add\n      sstore\n      0x80\n      dup4\n      add\n      mload\n      0x04\n      dup4\n      add\n      sstore\n      0xa0\n      dup4\n      add\n      mload\n      0x05\n      dup4\n      add\n      sstore\n      0xc0\n      swap1\n      swap3\n      add\n      mload\n      0x06\n      swap1\n      swap2\n      add\n      sstore\n        /* \"contracts/Stake-2.0.sol\":5369:5382  token_address */\n      sload(0x0b)\n        /* \"contracts/Stake-2.0.sol\":5335:5416  SafeERC20.safeTransferFrom(IERC20(token_address),msg.sender,address(this),amount) */\n      tag_138\n      swap2\n      sub(shl(0xa0, 0x01), 0x01)\n        /* \"contracts/Stake-2.0.sol\":5369:5382  token_address */\n      swap1\n      swap2\n      and\n      swap1\n        /* \"contracts/Stake-2.0.sol\":5403:5407  this */\n      address\n        /* \"contracts/Stake-2.0.sol\":5409:5415  amount */\n      dup7\n        /* \"contracts/Stake-2.0.sol\":5335:5361  SafeERC20.safeTransferFrom */\n      tag_139\n        /* \"contracts/Stake-2.0.sol\":5335:5416  SafeERC20.safeTransferFrom(IERC20(token_address),msg.sender,address(this),amount) */\n      jump\t// in\n    tag_138:\n        /* \"contracts/Stake-2.0.sol\":5490:5500  msg.sender */\n      caller\n        /* \"contracts/Stake-2.0.sol\":5483:5547  Staked(msg.sender, amount, timestamp, (stakePeriod + timestamp)) */\n      0xb4caaf29adda3eefee3ad552a8e85058589bf834c7466cae4ee58787f70589ed\n        /* \"contracts/Stake-2.0.sol\":5502:5508  amount */\n      dup5\n        /* \"contracts/Stake-2.0.sol\":5510:5519  timestamp */\n      dup4\n        /* \"contracts/Stake-2.0.sol\":5522:5545  stakePeriod + timestamp */\n      tag_140\n        /* \"contracts/Stake-2.0.sol\":5510:5519  timestamp */\n      dup2\n        /* \"contracts/Stake-2.0.sol\":5522:5533  stakePeriod */\n      dup8\n        /* \"contracts/Stake-2.0.sol\":5522:5545  stakePeriod + timestamp */\n      tag_102\n      jump\t// in\n    tag_140:\n        /* \"contracts/Stake-2.0.sol\":5483:5547  Staked(msg.sender, amount, timestamp, (stakePeriod + timestamp)) */\n      0x40\n      dup1\n      mload\n        /* \"#utility.yul\":4297:4322   */\n      swap4\n      dup5\n      mstore\n        /* \"#utility.yul\":4353:4355   */\n      0x20\n        /* \"#utility.yul\":4338:4356   */\n      dup5\n      add\n        /* \"#utility.yul\":4331:4365   */\n      swap3\n      swap1\n      swap3\n      mstore\n        /* \"#utility.yul\":4381:4399   */\n      swap1\n      dup3\n      add\n        /* \"#utility.yul\":4374:4408   */\n      mstore\n        /* \"#utility.yul\":4285:4287   */\n      0x60\n        /* \"#utility.yul\":4270:4288   */\n      add\n        /* \"contracts/Stake-2.0.sol\":5483:5547  Staked(msg.sender, amount, timestamp, (stakePeriod + timestamp)) */\n      mload(0x40)\n      dup1\n      swap2\n      sub\n      swap1\n      log2\n      pop\n      pop\n        /* \"@openzeppelin/contracts/security/ReentrancyGuard.sol\":1701:1702  1 */\n      0x01\n        /* \"@openzeppelin/contracts/security/ReentrancyGuard.sol\":2628:2635  _status */\n      0x00\n        /* \"@openzeppelin/contracts/security/ReentrancyGuard.sol\":2628:2650  _status = _NOT_ENTERED */\n      sstore\n      pop\n        /* \"contracts/Stake-2.0.sol\":4306:5554  function stake(uint256 amount, uint256 stakePeriod) external nonReentrant {... */\n      jump\t// out\n        /* \"contracts/Stake-2.0.sol\":5560:5866  function changePenaltyFee(uint256 amount) external onlyOwner {... */\n    tag_47:\n        /* \"@openzeppelin/contracts/access/Ownable.sol\":1108:1114  _owner */\n      and(sub(shl(0xa0, 0x01), 0x01), sload(0x01))\n        /* \"@openzeppelin/contracts/utils/Context.sol\":719:729  msg.sender */\n      caller\n        /* \"@openzeppelin/contracts/access/Ownable.sol\":1248:1271  owner() == _msgSender() */\n      eq\n        /* \"@openzeppelin/contracts/access/Ownable.sol\":1240:1308  require(owner() == _msgSender(), \"Ownable: caller is not the owner\") */\n      tag_146\n      jumpi\n      mload(0x40)\n      shl(0xe5, 0x461bcd)\n      dup2\n      mstore\n      0x04\n      add\n      tag_124\n      swap1\n      tag_125\n      jump\t// in\n    tag_146:\n        /* \"contracts/Stake-2.0.sol\":5718:5720  30 */\n      0x1e\n        /* \"contracts/Stake-2.0.sol\":5709:5715  amount */\n      dup2\n        /* \"contracts/Stake-2.0.sol\":5709:5720  amount > 30 */\n      gt\n        /* \"contracts/Stake-2.0.sol\":5705:5786  if (amount > 30) {... */\n      iszero\n      tag_149\n      jumpi\n        /* \"contracts/Stake-2.0.sol\":5743:5775  Staking__penaltyExceed3Percent() */\n      mload(0x40)\n      shl(0xe0, 0xf1a470d7)\n      dup2\n      mstore\n      0x04\n      add\n      mload(0x40)\n      dup1\n      swap2\n      sub\n      swap1\n      revert\n        /* \"contracts/Stake-2.0.sol\":5705:5786  if (amount > 30) {... */\n    tag_149:\n        /* \"contracts/Stake-2.0.sol\":5795:5813  stakingPenaltyRate */\n      0x03\n        /* \"contracts/Stake-2.0.sol\":5795:5822  stakingPenaltyRate = amount */\n      dup2\n      swap1\n      sstore\n        /* \"contracts/Stake-2.0.sol\":5837:5859  PenaltyChanged(amount) */\n      mload(0x40)\n        /* \"#utility.yul\":988:1013   */\n      dup2\n      dup2\n      mstore\n        /* \"contracts/Stake-2.0.sol\":5837:5859  PenaltyChanged(amount) */\n      0xcfa4f4cf1cd64d13a167a8e75605e0c0c9d6700e903d17c5dc11f593254a04a9\n      swap1\n        /* \"#utility.yul\":976:978   */\n      0x20\n        /* \"#utility.yul\":961:979   */\n      add\n        /* \"contracts/Stake-2.0.sol\":5837:5859  PenaltyChanged(amount) */\n    tag_150:\n      mload(0x40)\n      dup1\n      swap2\n      sub\n      swap1\n      log1\n        /* \"contracts/Stake-2.0.sol\":5560:5866  function changePenaltyFee(uint256 amount) external onlyOwner {... */\n      pop\n      jump\t// out\n        /* \"contracts/Stake-2.0.sol\":9741:9875  function calculateWeek(uint256 timestamp) public view returns (uint256) {... */\n    tag_67:\n        /* \"contracts/Stake-2.0.sol\":9804:9811  uint256 */\n      0x00\n        /* \"contracts/Stake-2.0.sol\":9862:9868  7 days */\n      0x093a80\n        /* \"contracts/Stake-2.0.sol\":9831:9858  block.timestamp - timestamp */\n      tag_153\n        /* \"contracts/Stake-2.0.sol\":9849:9858  timestamp */\n      dup4\n        /* \"contracts/Stake-2.0.sol\":9831:9846  block.timestamp */\n      timestamp\n        /* \"contracts/Stake-2.0.sol\":9831:9858  block.timestamp - timestamp */\n      tag_154\n      jump\t// in\n    tag_153:\n        /* \"contracts/Stake-2.0.sol\":9830:9868  (block.timestamp - timestamp) / 7 days */\n      tag_155\n      swap2\n      swap1\n      tag_98\n      jump\t// in\n    tag_155:\n        /* \"contracts/Stake-2.0.sol\":9823:9868  return (block.timestamp - timestamp) / 7 days */\n      swap3\n        /* \"contracts/Stake-2.0.sol\":9741:9875  function calculateWeek(uint256 timestamp) public view returns (uint256) {... */\n      swap2\n      pop\n      pop\n      jump\t// out\n        /* \"contracts/Stake-2.0.sol\":7258:8161  function withdrawStake() external nonReentrant {... */\n    tag_73:\n        /* \"@openzeppelin/contracts/security/ReentrancyGuard.sol\":1744:1745  2 */\n      0x02\n        /* \"@openzeppelin/contracts/security/ReentrancyGuard.sol\":2325:2332  _status */\n      sload(0x00)\n        /* \"@openzeppelin/contracts/security/ReentrancyGuard.sol\":2325:2344  _status != _ENTERED */\n      eq\n      iszero\n        /* \"@openzeppelin/contracts/security/ReentrancyGuard.sol\":2317:2380  require(_status != _ENTERED, \"ReentrancyGuard: reentrant call\") */\n      tag_157\n      jumpi\n      mload(0x40)\n      shl(0xe5, 0x461bcd)\n      dup2\n      mstore\n        /* \"#utility.yul\":3937:3939   */\n      0x20\n        /* \"@openzeppelin/contracts/security/ReentrancyGuard.sol\":2317:2380  require(_status != _ENTERED, \"ReentrancyGuard: reentrant call\") */\n      0x04\n      dup3\n      add\n        /* \"#utility.yul\":3919:3940   */\n      mstore\n        /* \"#utility.yul\":3976:3978   */\n      0x1f\n        /* \"#utility.yul\":3956:3974   */\n      0x24\n      dup3\n      add\n        /* \"#utility.yul\":3949:3979   */\n      mstore\n        /* \"#utility.yul\":4015:4048   */\n      0x5265656e7472616e637947756172643a207265656e7472616e742063616c6c00\n        /* \"#utility.yul\":3995:4013   */\n      0x44\n      dup3\n      add\n        /* \"#utility.yul\":3988:4049   */\n      mstore\n        /* \"#utility.yul\":4066:4084   */\n      0x64\n      add\n        /* \"@openzeppelin/contracts/security/ReentrancyGuard.sol\":2317:2380  require(_status != _ENTERED, \"ReentrancyGuard: reentrant call\") */\n      tag_124\n        /* \"#utility.yul\":3735:4090   */\n      jump\n        /* \"@openzeppelin/contracts/security/ReentrancyGuard.sol\":2317:2380  require(_status != _ENTERED, \"ReentrancyGuard: reentrant call\") */\n    tag_157:\n        /* \"@openzeppelin/contracts/security/ReentrancyGuard.sol\":1744:1745  2 */\n      0x02\n        /* \"@openzeppelin/contracts/security/ReentrancyGuard.sol\":2455:2462  _status */\n      0x00\n        /* \"@openzeppelin/contracts/security/ReentrancyGuard.sol\":2455:2473  _status = _ENTERED */\n      dup2\n      dup2\n      sstore\n        /* \"contracts/Stake-2.0.sol\":7462:7472  msg.sender */\n      caller\n        /* \"contracts/Stake-2.0.sol\":7449:7473  stakeholders[msg.sender] */\n      dup2\n      mstore\n        /* \"contracts/Stake-2.0.sol\":7449:7461  stakeholders */\n      0x0c\n        /* \"contracts/Stake-2.0.sol\":7449:7473  stakeholders[msg.sender] */\n      0x20\n      swap1\n      dup2\n      mstore\n      0x40\n      dup1\n      dup4\n      keccak256\n        /* \"contracts/Stake-2.0.sol\":7423:7473  Stake memory user_stake = stakeholders[msg.sender] */\n      dup2\n      mload\n      0xe0\n      dup2\n      add\n      dup4\n      mstore\n      dup2\n      sload\n      dup2\n      mstore\n      0x01\n      dup3\n      add\n      sload\n      swap4\n      dup2\n      add\n      swap4\n      swap1\n      swap4\n      mstore\n      swap4\n      dup5\n      add\n      sload\n      swap1\n      dup3\n      add\n      mstore\n      0x03\n      dup4\n      add\n      sload\n      0x60\n      dup3\n      add\n      mstore\n      0x04\n      dup4\n      add\n      sload\n      0x80\n      dup3\n      add\n      mstore\n      0x05\n      dup4\n      add\n      sload\n      0xa0\n      dup3\n      add\n      mstore\n      0x06\n      swap1\n      swap3\n      add\n      sload\n      0xc0\n      dup4\n      add\n      mstore\n        /* \"contracts/Stake-2.0.sol\":7500:7533  _calculateStakeReward(user_stake) */\n      tag_160\n        /* \"contracts/Stake-2.0.sol\":7423:7473  Stake memory user_stake = stakeholders[msg.sender] */\n      dup3\n        /* \"contracts/Stake-2.0.sol\":7500:7521  _calculateStakeReward */\n      tag_93\n        /* \"contracts/Stake-2.0.sol\":7500:7533  _calculateStakeReward(user_stake) */\n      jump\t// in\n    tag_160:\n        /* \"contracts/Stake-2.0.sol\":7564:7574  msg.sender */\n      caller\n        /* \"contracts/Stake-2.0.sol\":7551:7575  stakeholders[msg.sender] */\n      0x00\n      swap1\n      dup2\n      mstore\n        /* \"contracts/Stake-2.0.sol\":7551:7563  stakeholders */\n      0x0c\n        /* \"contracts/Stake-2.0.sol\":7551:7575  stakeholders[msg.sender] */\n      0x20\n      mstore\n      0x40\n      dup2\n      keccak256\n        /* \"contracts/Stake-2.0.sol\":7544:7575  delete stakeholders[msg.sender] */\n      dup2\n      dup2\n      sstore\n      0x01\n      dup1\n      dup3\n      add\n      dup4\n      swap1\n      sstore\n      0x02\n      dup3\n      add\n      dup4\n      swap1\n      sstore\n      0x03\n      dup3\n      add\n      dup4\n      swap1\n      sstore\n      0x04\n      dup3\n      add\n      dup4\n      swap1\n      sstore\n      0x05\n      dup3\n      add\n      dup4\n      swap1\n      sstore\n      0x06\n      swap1\n      swap2\n      add\n      dup3\n      swap1\n      sstore\n        /* \"contracts/Stake-2.0.sol\":7585:7596  totalVoters */\n      0x08\n        /* \"contracts/Stake-2.0.sol\":7585:7601  totalVoters -= 1 */\n      dup1\n      sload\n        /* \"contracts/Stake-2.0.sol\":7483:7533  uint256 reward = _calculateStakeReward(user_stake) */\n      swap4\n      swap5\n      pop\n        /* \"contracts/Stake-2.0.sol\":7544:7575  delete stakeholders[msg.sender] */\n      swap1\n      swap3\n        /* \"contracts/Stake-2.0.sol\":7585:7596  totalVoters */\n      swap1\n      swap2\n        /* \"contracts/Stake-2.0.sol\":7551:7575  stakeholders[msg.sender] */\n      swap1\n        /* \"contracts/Stake-2.0.sol\":7585:7601  totalVoters -= 1 */\n      tag_161\n      swap1\n        /* \"contracts/Stake-2.0.sol\":7544:7575  delete stakeholders[msg.sender] */\n      dup5\n      swap1\n        /* \"contracts/Stake-2.0.sol\":7585:7601  totalVoters -= 1 */\n      tag_154\n      jump\t// in\n    tag_161:\n      swap1\n      swap2\n      sstore\n      pop\n      pop\n        /* \"contracts/Stake-2.0.sol\":7625:7635  msg.sender */\n      caller\n        /* \"contracts/Stake-2.0.sol\":7618:7636  voters[msg.sender] */\n      0x00\n      swap1\n      dup2\n      mstore\n        /* \"contracts/Stake-2.0.sol\":7618:7624  voters */\n      0x09\n        /* \"contracts/Stake-2.0.sol\":7618:7636  voters[msg.sender] */\n      0x20\n      swap1\n      dup2\n      mstore\n      0x40\n      dup1\n      dup4\n      keccak256\n        /* \"contracts/Stake-2.0.sol\":7643:7652  _votingId */\n      sload(0x07)\n        /* \"contracts/Stake-2.0.sol\":7618:7653  voters[msg.sender].voted[_votingId] */\n      dup5\n      mstore\n        /* \"contracts/Stake-2.0.sol\":7618:7642  voters[msg.sender].voted */\n      0x01\n      add\n        /* \"contracts/Stake-2.0.sol\":7618:7653  voters[msg.sender].voted[_votingId] */\n      swap1\n      swap2\n      mstore\n      swap1\n      keccak256\n        /* \"contracts/Stake-2.0.sol\":7611:7653  delete voters[msg.sender].voted[_votingId] */\n      dup1\n      sload\n      not(0xff)\n      and\n      swap1\n      sstore\n        /* \"contracts/Stake-2.0.sol\":7668:7690  user_stake.releaseTime */\n      0x60\n      dup3\n      add\n      mload\n        /* \"contracts/Stake-2.0.sol\":7693:7708  block.timestamp */\n      timestamp\n      lt\n        /* \"contracts/Stake-2.0.sol\":7664:8155  if (user_stake.releaseTime > block.timestamp) {... */\n      iszero\n      tag_162\n      jumpi\n        /* \"contracts/Stake-2.0.sol\":7742:7764  uint256 amount_reduced */\n      0x00\n        /* \"contracts/Stake-2.0.sol\":7782:7804  uint256 reward_reduced */\n      dup1\n        /* \"contracts/Stake-2.0.sol\":7821:7876  _calculateStakingWithPenalty(user_stake.amount, reward) */\n      tag_163\n        /* \"contracts/Stake-2.0.sol\":7850:7860  user_stake */\n      dup5\n        /* \"contracts/Stake-2.0.sol\":7850:7867  user_stake.amount */\n      0x00\n      add\n      mload\n        /* \"contracts/Stake-2.0.sol\":7869:7875  reward */\n      dup5\n        /* \"contracts/Stake-2.0.sol\":7821:7849  _calculateStakingWithPenalty */\n      tag_164\n        /* \"contracts/Stake-2.0.sol\":7821:7876  _calculateStakingWithPenalty(user_stake.amount, reward) */\n      jump\t// in\n    tag_163:\n        /* \"contracts/Stake-2.0.sol\":7921:7934  token_address */\n      sload(0x0b)\n        /* \"contracts/Stake-2.0.sol\":7724:7876  (... */\n      swap2\n      swap4\n      pop\n      swap2\n      pop\n        /* \"contracts/Stake-2.0.sol\":7891:7981  SafeERC20.safeTransfer(IERC20(token_address),msg.sender,(amount_reduced + reward_reduced)) */\n      tag_165\n      swap1\n      sub(shl(0xa0, 0x01), 0x01)\n        /* \"contracts/Stake-2.0.sol\":7921:7934  token_address */\n      and\n        /* \"contracts/Stake-2.0.sol\":7936:7946  msg.sender */\n      caller\n        /* \"contracts/Stake-2.0.sol\":7948:7979  amount_reduced + reward_reduced */\n      tag_166\n        /* \"contracts/Stake-2.0.sol\":7724:7876  (... */\n      dup5\n      dup7\n        /* \"contracts/Stake-2.0.sol\":7948:7979  amount_reduced + reward_reduced */\n      tag_102\n      jump\t// in\n    tag_166:\n        /* \"contracts/Stake-2.0.sol\":7891:7913  SafeERC20.safeTransfer */\n      tag_167\n        /* \"contracts/Stake-2.0.sol\":7891:7981  SafeERC20.safeTransfer(IERC20(token_address),msg.sender,(amount_reduced + reward_reduced)) */\n      jump\t// in\n    tag_165:\n        /* \"contracts/Stake-2.0.sol\":7710:7993  {... */\n      pop\n      pop\n        /* \"contracts/Stake-2.0.sol\":7664:8155  if (user_stake.releaseTime > block.timestamp) {... */\n      jump(tag_168)\n    tag_162:\n        /* \"contracts/Stake-2.0.sol\":8033:8046  token_address */\n      sload(0x0b)\n        /* \"contracts/Stake-2.0.sol\":8103:8120  user_stake.amount */\n      dup3\n      mload\n      sub(shl(0xa0, 0x01), 0x01)\n        /* \"contracts/Stake-2.0.sol\":8033:8046  token_address */\n      swap1\n      swap2\n      and\n      swap1\n        /* \"contracts/Stake-2.0.sol\":8026:8056  IERC20(token_address).transfer */\n      0xa9059cbb\n      swap1\n        /* \"contracts/Stake-2.0.sol\":8074:8084  msg.sender */\n      caller\n      swap1\n        /* \"contracts/Stake-2.0.sol\":8103:8129  user_stake.amount + reward */\n      tag_169\n      swap1\n        /* \"contracts/Stake-2.0.sol\":8123:8129  reward */\n      dup6\n      swap1\n        /* \"contracts/Stake-2.0.sol\":8103:8129  user_stake.amount + reward */\n      tag_102\n      jump\t// in\n    tag_169:\n        /* \"contracts/Stake-2.0.sol\":8026:8144  IERC20(token_address).transfer(... */\n      mload(0x40)\n      not(sub(shl(0xe0, 0x01), 0x01))\n      0xe0\n      dup6\n      swap1\n      shl\n      and\n      dup2\n      mstore\n      sub(shl(0xa0, 0x01), 0x01)\n        /* \"#utility.yul\":3005:3037   */\n      swap1\n      swap3\n      and\n        /* \"contracts/Stake-2.0.sol\":8026:8144  IERC20(token_address).transfer(... */\n      0x04\n      dup4\n      add\n        /* \"#utility.yul\":2987:3038   */\n      mstore\n        /* \"#utility.yul\":3054:3072   */\n      0x24\n      dup3\n      add\n        /* \"#utility.yul\":3047:3081   */\n      mstore\n        /* \"#utility.yul\":2960:2978   */\n      0x44\n      add\n        /* \"contracts/Stake-2.0.sol\":8026:8144  IERC20(token_address).transfer(... */\n      0x20\n      mload(0x40)\n      dup1\n      dup4\n      sub\n      dup2\n      0x00\n      dup8\n      gas\n      call\n      iszero\n      dup1\n      iszero\n      tag_172\n      jumpi\n      returndatasize\n      0x00\n      dup1\n      returndatacopy\n      revert(0x00, returndatasize)\n    tag_172:\n      pop\n      pop\n      pop\n      pop\n      mload(0x40)\n      returndatasize\n      not(0x1f)\n      0x1f\n      dup3\n      add\n      and\n      dup3\n      add\n      dup1\n      0x40\n      mstore\n      pop\n      dup2\n      add\n      swap1\n      tag_173\n      swap2\n      swap1\n      tag_118\n      jump\t// in\n    tag_173:\n      pop\n        /* \"contracts/Stake-2.0.sol\":7664:8155  if (user_stake.releaseTime > block.timestamp) {... */\n    tag_168:\n      pop\n      pop\n        /* \"@openzeppelin/contracts/security/ReentrancyGuard.sol\":1701:1702  1 */\n      0x01\n        /* \"@openzeppelin/contracts/security/ReentrancyGuard.sol\":2628:2635  _status */\n      0x00\n        /* \"@openzeppelin/contracts/security/ReentrancyGuard.sol\":2628:2650  _status = _NOT_ENTERED */\n      sstore\n        /* \"contracts/Stake-2.0.sol\":7258:8161  function withdrawStake() external nonReentrant {... */\n      jump\t// out\n        /* \"contracts/Stake-2.0.sol\":9303:9393  function startAirdrop() external onlyOwner {... */\n    tag_81:\n        /* \"@openzeppelin/contracts/access/Ownable.sol\":1108:1114  _owner */\n      and(sub(shl(0xa0, 0x01), 0x01), sload(0x01))\n        /* \"@openzeppelin/contracts/utils/Context.sol\":719:729  msg.sender */\n      caller\n        /* \"@openzeppelin/contracts/access/Ownable.sol\":1248:1271  owner() == _msgSender() */\n      eq\n        /* \"@openzeppelin/contracts/access/Ownable.sol\":1240:1308  require(owner() == _msgSender(), \"Ownable: caller is not the owner\") */\n      tag_178\n      jumpi\n      mload(0x40)\n      shl(0xe5, 0x461bcd)\n      dup2\n      mstore\n      0x04\n      add\n      tag_124\n      swap1\n      tag_125\n      jump\t// in\n    tag_178:\n        /* \"contracts/Stake-2.0.sol\":9371:9386  block.timestamp */\n      timestamp\n        /* \"contracts/Stake-2.0.sol\":9356:9368  airdropSince */\n      0x05\n        /* \"contracts/Stake-2.0.sol\":9356:9386  airdropSince = block.timestamp */\n      sstore\n        /* \"contracts/Stake-2.0.sol\":9303:9393  function startAirdrop() external onlyOwner {... */\n      jump\t// out\n        /* \"contracts/Stake-2.0.sol\":9399:9633  function changeAirdropPercentage(uint256 amount) external onlyOwner {... */\n    tag_84:\n        /* \"@openzeppelin/contracts/access/Ownable.sol\":1108:1114  _owner */\n      and(sub(shl(0xa0, 0x01), 0x01), sload(0x01))\n        /* \"@openzeppelin/contracts/utils/Context.sol\":719:729  msg.sender */\n      caller\n        /* \"@openzeppelin/contracts/access/Ownable.sol\":1248:1271  owner() == _msgSender() */\n      eq\n        /* \"@openzeppelin/contracts/access/Ownable.sol\":1240:1308  require(owner() == _msgSender(), \"Ownable: caller is not the owner\") */\n      tag_184\n      jumpi\n      mload(0x40)\n      shl(0xe5, 0x461bcd)\n      dup2\n      mstore\n      0x04\n      add\n      tag_124\n      swap1\n      tag_125\n      jump\t// in\n    tag_184:\n        /* \"contracts/Stake-2.0.sol\":9490:9493  200 */\n      0xc8\n        /* \"contracts/Stake-2.0.sol\":9481:9487  amount */\n      dup2\n        /* \"contracts/Stake-2.0.sol\":9481:9493  amount > 200 */\n      gt\n        /* \"contracts/Stake-2.0.sol\":9477:9560  if (amount > 200) {... */\n      iszero\n      tag_187\n      jumpi\n        /* \"contracts/Stake-2.0.sol\":9516:9549  Staking__airdropExceed20Percent() */\n      mload(0x40)\n      shl(0xe4, 0x0a552cf1)\n      dup2\n      mstore\n      0x04\n      add\n      mload(0x40)\n      dup1\n      swap2\n      sub\n      swap1\n      revert\n        /* \"contracts/Stake-2.0.sol\":9477:9560  if (amount > 200) {... */\n    tag_187:\n        /* \"contracts/Stake-2.0.sol\":9569:9580  airdropRate */\n      0x04\n        /* \"contracts/Stake-2.0.sol\":9569:9589  airdropRate = amount */\n      dup2\n      swap1\n      sstore\n        /* \"contracts/Stake-2.0.sol\":9604:9626  AirdropChanged(amount) */\n      mload(0x40)\n        /* \"#utility.yul\":988:1013   */\n      dup2\n      dup2\n      mstore\n        /* \"contracts/Stake-2.0.sol\":9604:9626  AirdropChanged(amount) */\n      0xcc672f1026b958c0cfbfdd89ebe8ddcbc127f16ec24da6c2c7a4de26a8b1857e\n      swap1\n        /* \"#utility.yul\":976:978   */\n      0x20\n        /* \"#utility.yul\":961:979   */\n      add\n        /* \"contracts/Stake-2.0.sol\":9604:9626  AirdropChanged(amount) */\n      tag_150\n        /* \"#utility.yul\":842:1019   */\n      jump\n        /* \"@openzeppelin/contracts/access/Ownable.sol\":1918:2116  function transferOwnership(address newOwner) public virtual onlyOwner {... */\n    tag_87:\n        /* \"@openzeppelin/contracts/access/Ownable.sol\":1108:1114  _owner */\n      and(sub(shl(0xa0, 0x01), 0x01), sload(0x01))\n        /* \"@openzeppelin/contracts/utils/Context.sol\":719:729  msg.sender */\n      caller\n        /* \"@openzeppelin/contracts/access/Ownable.sol\":1248:1271  owner() == _msgSender() */\n      eq\n        /* \"@openzeppelin/contracts/access/Ownable.sol\":1240:1308  require(owner() == _msgSender(), \"Ownable: caller is not the owner\") */\n      tag_192\n      jumpi\n      mload(0x40)\n      shl(0xe5, 0x461bcd)\n      dup2\n      mstore\n      0x04\n      add\n      tag_124\n      swap1\n      tag_125\n      jump\t// in\n    tag_192:\n      sub(shl(0xa0, 0x01), 0x01)\n        /* \"@openzeppelin/contracts/access/Ownable.sol\":2006:2028  newOwner != address(0) */\n      dup2\n      and\n        /* \"@openzeppelin/contracts/access/Ownable.sol\":1998:2071  require(newOwner != address(0), \"Ownable: new owner is the zero address\") */\n      tag_195\n      jumpi\n      mload(0x40)\n      shl(0xe5, 0x461bcd)\n      dup2\n      mstore\n        /* \"#utility.yul\":4751:4753   */\n      0x20\n        /* \"@openzeppelin/contracts/access/Ownable.sol\":1998:2071  require(newOwner != address(0), \"Ownable: new owner is the zero address\") */\n      0x04\n      dup3\n      add\n        /* \"#utility.yul\":4733:4754   */\n      mstore\n        /* \"#utility.yul\":4790:4792   */\n      0x26\n        /* \"#utility.yul\":4770:4788   */\n      0x24\n      dup3\n      add\n        /* \"#utility.yul\":4763:4793   */\n      mstore\n        /* \"#utility.yul\":4829:4863   */\n      0x4f776e61626c653a206e6577206f776e657220697320746865207a65726f2061\n        /* \"#utility.yul\":4809:4827   */\n      0x44\n      dup3\n      add\n        /* \"#utility.yul\":4802:4864   */\n      mstore\n      shl(0xd0, 0x646472657373)\n        /* \"#utility.yul\":4880:4898   */\n      0x64\n      dup3\n      add\n        /* \"#utility.yul\":4873:4909   */\n      mstore\n        /* \"#utility.yul\":4926:4945   */\n      0x84\n      add\n        /* \"@openzeppelin/contracts/access/Ownable.sol\":1998:2071  require(newOwner != address(0), \"Ownable: new owner is the zero address\") */\n      tag_124\n        /* \"#utility.yul\":4549:4951   */\n      jump\n        /* \"@openzeppelin/contracts/access/Ownable.sol\":1998:2071  require(newOwner != address(0), \"Ownable: new owner is the zero address\") */\n    tag_195:\n        /* \"@openzeppelin/contracts/access/Ownable.sol\":2081:2109  _transferOwnership(newOwner) */\n      tag_109\n        /* \"@openzeppelin/contracts/access/Ownable.sol\":2100:2108  newOwner */\n      dup2\n        /* \"@openzeppelin/contracts/access/Ownable.sol\":2081:2099  _transferOwnership */\n      tag_128\n        /* \"@openzeppelin/contracts/access/Ownable.sol\":2081:2109  _transferOwnership(newOwner) */\n      jump\t// in\n        /* \"contracts/Stake-2.0.sol\":6109:6546  function _calculateStakeReward(Stake memory user_stake)... */\n    tag_93:\n        /* \"contracts/Stake-2.0.sol\":6239:6256  user_stake.amount */\n      dup1\n      mload\n        /* \"contracts/Stake-2.0.sol\":6212:6219  uint256 */\n      0x00\n      swap1\n        /* \"contracts/Stake-2.0.sol\":6235:6296  if (user_stake.amount == 0) {... */\n      tag_200\n      jumpi\n      pop\n        /* \"contracts/Stake-2.0.sol\":6284:6285  0 */\n      0x00\n      swap2\n        /* \"contracts/Stake-2.0.sol\":6109:6546  function _calculateStakeReward(Stake memory user_stake)... */\n      swap1\n      pop\n      jump\t// out\n        /* \"contracts/Stake-2.0.sol\":6235:6296  if (user_stake.amount == 0) {... */\n    tag_200:\n        /* \"contracts/Stake-2.0.sol\":6535:6539  1e26 */\n      0x52b7d2dcc80cd2e4000000\n        /* \"contracts/Stake-2.0.sol\":6488:6531  _calculateStakingDuration(user_stake.since) */\n      tag_201\n        /* \"contracts/Stake-2.0.sol\":6514:6524  user_stake */\n      dup4\n        /* \"contracts/Stake-2.0.sol\":6514:6530  user_stake.since */\n      0x20\n      add\n      mload\n        /* \"contracts/Stake-2.0.sol\":6488:6513  _calculateStakingDuration */\n      tag_202\n        /* \"contracts/Stake-2.0.sol\":6488:6531  _calculateStakingDuration(user_stake.since) */\n      jump\t// in\n    tag_201:\n        /* \"contracts/Stake-2.0.sol\":6449:6469  user_stake.rewardAPY */\n      0x40\n      dup5\n      add\n      mload\n        /* \"contracts/Stake-2.0.sol\":6413:6430  user_stake.amount */\n      dup5\n      mload\n        /* \"contracts/Stake-2.0.sol\":6413:6469  user_stake.amount *... */\n      tag_203\n      swap2\n        /* \"contracts/Stake-2.0.sol\":6449:6469  user_stake.rewardAPY */\n      swap1\n        /* \"contracts/Stake-2.0.sol\":6413:6469  user_stake.amount *... */\n      tag_96\n      jump\t// in\n    tag_203:\n        /* \"contracts/Stake-2.0.sol\":6413:6531  user_stake.amount *... */\n      tag_153\n      swap2\n      swap1\n      tag_96\n      jump\t// in\n        /* \"contracts/Stake-2.0.sol\":9881:10060  function _calculateAirdrop(uint256 stakeAmount)... */\n    tag_106:\n        /* \"contracts/Stake-2.0.sol\":9976:9983  uint256 */\n      0x00\n        /* \"contracts/Stake-2.0.sol\":10045:10053  52 weeks */\n      0x01dfe200\n        /* \"contracts/Stake-2.0.sol\":10037:10041  1000 */\n      0x03e8\n        /* \"contracts/Stake-2.0.sol\":10022:10033  airdropRate */\n      sload(0x04)\n        /* \"contracts/Stake-2.0.sol\":10008:10019  stakeAmount */\n      dup5\n        /* \"contracts/Stake-2.0.sol\":10008:10033  stakeAmount * airdropRate */\n      tag_207\n      swap2\n      swap1\n      tag_96\n      jump\t// in\n    tag_207:\n        /* \"contracts/Stake-2.0.sol\":10007:10041  (stakeAmount * airdropRate) / 1000 */\n      tag_153\n      swap2\n      swap1\n      tag_98\n      jump\t// in\n        /* \"@openzeppelin/contracts/access/Ownable.sol\":2270:2457  function _transferOwnership(address newOwner) internal virtual {... */\n    tag_128:\n        /* \"@openzeppelin/contracts/access/Ownable.sol\":2362:2368  _owner */\n      0x01\n      dup1\n      sload\n      sub(shl(0xa0, 0x01), 0x01)\n        /* \"@openzeppelin/contracts/access/Ownable.sol\":2378:2395  _owner = newOwner */\n      dup4\n      dup2\n      and\n      not(sub(shl(0xa0, 0x01), 0x01))\n      dup4\n      and\n      dup2\n      or\n      swap1\n      swap4\n      sstore\n        /* \"@openzeppelin/contracts/access/Ownable.sol\":2410:2450  OwnershipTransferred(oldOwner, newOwner) */\n      mload(0x40)\n        /* \"@openzeppelin/contracts/access/Ownable.sol\":2362:2368  _owner */\n      swap2\n      and\n      swap2\n        /* \"@openzeppelin/contracts/access/Ownable.sol\":2378:2395  _owner = newOwner */\n      swap1\n        /* \"@openzeppelin/contracts/access/Ownable.sol\":2362:2368  _owner */\n      dup3\n      swap1\n        /* \"@openzeppelin/contracts/access/Ownable.sol\":2410:2450  OwnershipTransferred(oldOwner, newOwner) */\n      0x8be0079c531659141344cd1fd0a4f28419497f9722a3daafe3b4186f6b6457e0\n      swap1\n        /* \"@openzeppelin/contracts/access/Ownable.sol\":2343:2359  address oldOwner */\n      0x00\n      swap1\n        /* \"@openzeppelin/contracts/access/Ownable.sol\":2410:2450  OwnershipTransferred(oldOwner, newOwner) */\n      log3\n        /* \"@openzeppelin/contracts/access/Ownable.sol\":2333:2457  {... */\n      pop\n        /* \"@openzeppelin/contracts/access/Ownable.sol\":2270:2457  function _transferOwnership(address newOwner) internal virtual {... */\n      pop\n      jump\t// out\n        /* \"@openzeppelin/contracts/token/ERC20/utils/SafeERC20.sol\":912:1153  function safeTransferFrom(... */\n    tag_139:\n        /* \"@openzeppelin/contracts/token/ERC20/utils/SafeERC20.sol\":1077:1145  abi.encodeWithSelector(token.transferFrom.selector, from, to, value) */\n      mload(0x40)\n      sub(shl(0xa0, 0x01), 0x01)\n        /* \"#utility.yul\":5214:5229   */\n      dup1\n      dup6\n      and\n        /* \"@openzeppelin/contracts/token/ERC20/utils/SafeERC20.sol\":1077:1145  abi.encodeWithSelector(token.transferFrom.selector, from, to, value) */\n      0x24\n      dup4\n      add\n        /* \"#utility.yul\":5196:5230   */\n      mstore\n        /* \"#utility.yul\":5266:5281   */\n      dup4\n      and\n        /* \"#utility.yul\":5246:5264   */\n      0x44\n      dup3\n      add\n        /* \"#utility.yul\":5239:5282   */\n      mstore\n        /* \"#utility.yul\":5298:5316   */\n      0x64\n      dup2\n      add\n        /* \"#utility.yul\":5291:5325   */\n      dup3\n      swap1\n      mstore\n        /* \"@openzeppelin/contracts/token/ERC20/utils/SafeERC20.sol\":1050:1146  _callOptionalReturn(token, abi.encodeWithSelector(token.transferFrom.selector, from, to, value)) */\n      tag_213\n      swap1\n        /* \"@openzeppelin/contracts/token/ERC20/utils/SafeERC20.sol\":1070:1075  token */\n      dup6\n      swap1\n      shl(0xe0, 0x23b872dd)\n        /* \"@openzeppelin/contracts/token/ERC20/utils/SafeERC20.sol\":1100:1127  token.transferFrom.selector */\n      swap1\n        /* \"#utility.yul\":5131:5149   */\n      0x84\n      add\n        /* \"@openzeppelin/contracts/token/ERC20/utils/SafeERC20.sol\":1077:1145  abi.encodeWithSelector(token.transferFrom.selector, from, to, value) */\n    tag_214:\n      0x40\n      dup1\n      mload\n      not(0x1f)\n      dup2\n      dup5\n      sub\n      add\n      dup2\n      mstore\n      swap2\n      swap1\n      mstore\n      0x20\n      dup2\n      add\n      dup1\n      mload\n      sub(shl(0xe0, 0x01), 0x01)\n      and\n      not(sub(shl(0xe0, 0x01), 0x01))\n      swap1\n      swap4\n      and\n      swap3\n      swap1\n      swap3\n      or\n      swap1\n      swap2\n      mstore\n        /* \"@openzeppelin/contracts/token/ERC20/utils/SafeERC20.sol\":1050:1069  _callOptionalReturn */\n      tag_216\n        /* \"@openzeppelin/contracts/token/ERC20/utils/SafeERC20.sol\":1050:1146  _callOptionalReturn(token, abi.encodeWithSelector(token.transferFrom.selector, from, to, value)) */\n      jump\t// in\n    tag_213:\n        /* \"@openzeppelin/contracts/token/ERC20/utils/SafeERC20.sol\":912:1153  function safeTransferFrom(... */\n      pop\n      pop\n      pop\n      pop\n      jump\t// out\n        /* \"contracts/Stake-2.0.sol\":6552:6911  function _calculateStakingWithPenalty(uint256 amount, uint256 reward)... */\n    tag_164:\n        /* \"contracts/Stake-2.0.sol\":6669:6676  uint256 */\n      0x00\n      dup1\n        /* \"contracts/Stake-2.0.sol\":6705:6716  amount == 0 */\n      dup4\n        /* \"contracts/Stake-2.0.sol\":6701:6756  if (amount == 0) {... */\n      tag_218\n      jumpi\n      pop\n        /* \"contracts/Stake-2.0.sol\":6740:6741  0 */\n      0x00\n      swap1\n      pop\n      dup1\n        /* \"contracts/Stake-2.0.sol\":6732:6745  return (0, 0) */\n      jump(tag_217)\n        /* \"contracts/Stake-2.0.sol\":6701:6756  if (amount == 0) {... */\n    tag_218:\n        /* \"contracts/Stake-2.0.sol\":6828:6832  1000 */\n      0x03e8\n        /* \"contracts/Stake-2.0.sol\":6806:6824  stakingPenaltyRate */\n      sload(0x03)\n        /* \"contracts/Stake-2.0.sol\":6797:6803  amount */\n      dup6\n        /* \"contracts/Stake-2.0.sol\":6797:6824  amount * stakingPenaltyRate */\n      tag_219\n      swap2\n      swap1\n      tag_96\n      jump\t// in\n    tag_219:\n        /* \"contracts/Stake-2.0.sol\":6796:6832  (amount * stakingPenaltyRate) / 1000 */\n      tag_220\n      swap2\n      swap1\n      tag_98\n      jump\t// in\n    tag_220:\n        /* \"contracts/Stake-2.0.sol\":6786:6833  amount - ((amount * stakingPenaltyRate) / 1000) */\n      tag_221\n      swap1\n        /* \"contracts/Stake-2.0.sol\":6786:6792  amount */\n      dup6\n        /* \"contracts/Stake-2.0.sol\":6786:6833  amount - ((amount * stakingPenaltyRate) / 1000) */\n      tag_154\n      jump\t// in\n    tag_221:\n        /* \"contracts/Stake-2.0.sol\":6889:6893  1000 */\n      0x03e8\n        /* \"contracts/Stake-2.0.sol\":6867:6885  stakingPenaltyRate */\n      sload(0x03)\n        /* \"contracts/Stake-2.0.sol\":6858:6864  reward */\n      dup6\n        /* \"contracts/Stake-2.0.sol\":6858:6885  reward * stakingPenaltyRate */\n      tag_222\n      swap2\n      swap1\n      tag_96\n      jump\t// in\n    tag_222:\n        /* \"contracts/Stake-2.0.sol\":6857:6893  (reward * stakingPenaltyRate) / 1000 */\n      tag_223\n      swap2\n      swap1\n      tag_98\n      jump\t// in\n    tag_223:\n        /* \"contracts/Stake-2.0.sol\":6847:6894  reward - ((reward * stakingPenaltyRate) / 1000) */\n      tag_224\n      swap1\n        /* \"contracts/Stake-2.0.sol\":6847:6853  reward */\n      dup6\n        /* \"contracts/Stake-2.0.sol\":6847:6894  reward - ((reward * stakingPenaltyRate) / 1000) */\n      tag_154\n      jump\t// in\n    tag_224:\n        /* \"contracts/Stake-2.0.sol\":6765:6904  return (... */\n      swap2\n      pop\n      swap2\n      pop\n        /* \"contracts/Stake-2.0.sol\":6552:6911  function _calculateStakingWithPenalty(uint256 amount, uint256 reward)... */\n    tag_217:\n      swap3\n      pop\n      swap3\n      swap1\n      pop\n      jump\t// out\n        /* \"@openzeppelin/contracts/token/ERC20/utils/SafeERC20.sol\":701:906  function safeTransfer(... */\n    tag_167:\n        /* \"@openzeppelin/contracts/token/ERC20/utils/SafeERC20.sol\":840:898  abi.encodeWithSelector(token.transfer.selector, to, value) */\n      mload(0x40)\n      sub(shl(0xa0, 0x01), 0x01)\n        /* \"#utility.yul\":3005:3037   */\n      dup4\n      and\n        /* \"@openzeppelin/contracts/token/ERC20/utils/SafeERC20.sol\":840:898  abi.encodeWithSelector(token.transfer.selector, to, value) */\n      0x24\n      dup3\n      add\n        /* \"#utility.yul\":2987:3038   */\n      mstore\n        /* \"#utility.yul\":3054:3072   */\n      0x44\n      dup2\n      add\n        /* \"#utility.yul\":3047:3081   */\n      dup3\n      swap1\n      mstore\n        /* \"@openzeppelin/contracts/token/ERC20/utils/SafeERC20.sol\":813:899  _callOptionalReturn(token, abi.encodeWithSelector(token.transfer.selector, to, value)) */\n      tag_226\n      swap1\n        /* \"@openzeppelin/contracts/token/ERC20/utils/SafeERC20.sol\":833:838  token */\n      dup5\n      swap1\n      shl(0xe0, 0xa9059cbb)\n        /* \"@openzeppelin/contracts/token/ERC20/utils/SafeERC20.sol\":863:886  token.transfer.selector */\n      swap1\n        /* \"#utility.yul\":2960:2978   */\n      0x64\n      add\n        /* \"@openzeppelin/contracts/token/ERC20/utils/SafeERC20.sol\":840:898  abi.encodeWithSelector(token.transfer.selector, to, value) */\n      tag_214\n        /* \"#utility.yul\":2813:3087   */\n      jump\n        /* \"@openzeppelin/contracts/token/ERC20/utils/SafeERC20.sol\":813:899  _callOptionalReturn(token, abi.encodeWithSelector(token.transfer.selector, to, value)) */\n    tag_226:\n        /* \"@openzeppelin/contracts/token/ERC20/utils/SafeERC20.sol\":701:906  function safeTransfer(... */\n      pop\n      pop\n      pop\n      jump\t// out\n        /* \"contracts/Stake-2.0.sol\":5872:6103  function _calculateStakingDuration(uint256 since)... */\n    tag_202:\n        /* \"contracts/Stake-2.0.sol\":5969:5976  uint256 */\n      0x00\n        /* \"contracts/Stake-2.0.sol\":6088:6096  365 days */\n      0x01e13380\n        /* \"contracts/Stake-2.0.sol\":6053:6076  block.timestamp - since */\n      tag_229\n        /* \"contracts/Stake-2.0.sol\":6071:6076  since */\n      dup4\n        /* \"contracts/Stake-2.0.sol\":6053:6068  block.timestamp */\n      timestamp\n        /* \"contracts/Stake-2.0.sol\":6053:6076  block.timestamp - since */\n      tag_154\n      jump\t// in\n    tag_229:\n        /* \"contracts/Stake-2.0.sol\":6052:6084  (block.timestamp - since) * 1e24 */\n      tag_153\n      swap1\n        /* \"contracts/Stake-2.0.sol\":6080:6084  1e24 */\n      0xd3c21bcecceda1000000\n        /* \"contracts/Stake-2.0.sol\":6052:6084  (block.timestamp - since) * 1e24 */\n      tag_96\n      jump\t// in\n        /* \"@openzeppelin/contracts/token/ERC20/utils/SafeERC20.sol\":3207:3913  function _callOptionalReturn(IERC20 token, bytes memory data) private {... */\n    tag_216:\n        /* \"@openzeppelin/contracts/token/ERC20/utils/SafeERC20.sol\":3626:3649  bytes memory returndata */\n      0x00\n        /* \"@openzeppelin/contracts/token/ERC20/utils/SafeERC20.sol\":3652:3721  address(token).functionCall(data, \"SafeERC20: low-level call failed\") */\n      tag_233\n        /* \"@openzeppelin/contracts/token/ERC20/utils/SafeERC20.sol\":3680:3684  data */\n      dup3\n        /* \"@openzeppelin/contracts/token/ERC20/utils/SafeERC20.sol\":3652:3721  address(token).functionCall(data, \"SafeERC20: low-level call failed\") */\n      mload(0x40)\n      dup1\n      0x40\n      add\n      0x40\n      mstore\n      dup1\n      0x20\n      dup2\n      mstore\n      0x20\n      add\n      0x5361666545524332303a206c6f772d6c6576656c2063616c6c206661696c6564\n      dup2\n      mstore\n      pop\n        /* \"@openzeppelin/contracts/token/ERC20/utils/SafeERC20.sol\":3660:3665  token */\n      dup6\n      sub(shl(0xa0, 0x01), 0x01)\n        /* \"@openzeppelin/contracts/token/ERC20/utils/SafeERC20.sol\":3652:3679  address(token).functionCall */\n      and\n      tag_234\n      swap1\n        /* \"@openzeppelin/contracts/token/ERC20/utils/SafeERC20.sol\":3652:3721  address(token).functionCall(data, \"SafeERC20: low-level call failed\") */\n      swap3\n      swap2\n      swap1\n      0xffffffff\n      and\n      jump\t// in\n    tag_233:\n        /* \"@openzeppelin/contracts/token/ERC20/utils/SafeERC20.sol\":3735:3752  returndata.length */\n      dup1\n      mload\n        /* \"@openzeppelin/contracts/token/ERC20/utils/SafeERC20.sol\":3626:3721  bytes memory returndata = address(token).functionCall(data, \"SafeERC20: low-level call failed\") */\n      swap1\n      swap2\n      pop\n        /* \"@openzeppelin/contracts/token/ERC20/utils/SafeERC20.sol\":3735:3756  returndata.length > 0 */\n      iszero\n        /* \"@openzeppelin/contracts/token/ERC20/utils/SafeERC20.sol\":3731:3907  if (returndata.length > 0) {... */\n      tag_226\n      jumpi\n        /* \"@openzeppelin/contracts/token/ERC20/utils/SafeERC20.sol\":3830:3840  returndata */\n      dup1\n        /* \"@openzeppelin/contracts/token/ERC20/utils/SafeERC20.sol\":3819:3849  abi.decode(returndata, (bool)) */\n      dup1\n      0x20\n      add\n      swap1\n      mload\n      dup2\n      add\n      swap1\n      tag_236\n      swap2\n      swap1\n      tag_118\n      jump\t// in\n    tag_236:\n        /* \"@openzeppelin/contracts/token/ERC20/utils/SafeERC20.sol\":3811:3896  require(abi.decode(returndata, (bool)), \"SafeERC20: ERC20 operation did not succeed\") */\n      tag_226\n      jumpi\n      mload(0x40)\n      shl(0xe5, 0x461bcd)\n      dup2\n      mstore\n        /* \"#utility.yul\":5538:5540   */\n      0x20\n        /* \"@openzeppelin/contracts/token/ERC20/utils/SafeERC20.sol\":3811:3896  require(abi.decode(returndata, (bool)), \"SafeERC20: ERC20 operation did not succeed\") */\n      0x04\n      dup3\n      add\n        /* \"#utility.yul\":5520:5541   */\n      mstore\n        /* \"#utility.yul\":5577:5579   */\n      0x2a\n        /* \"#utility.yul\":5557:5575   */\n      0x24\n      dup3\n      add\n        /* \"#utility.yul\":5550:5580   */\n      mstore\n        /* \"#utility.yul\":5616:5650   */\n      0x5361666545524332303a204552433230206f7065726174696f6e20646964206e\n        /* \"#utility.yul\":5596:5614   */\n      0x44\n      dup3\n      add\n        /* \"#utility.yul\":5589:5651   */\n      mstore\n      shl(0xb2, 0x1bdd081cdd58d8d95959)\n        /* \"#utility.yul\":5667:5685   */\n      0x64\n      dup3\n      add\n        /* \"#utility.yul\":5660:5700   */\n      mstore\n        /* \"#utility.yul\":5717:5736   */\n      0x84\n      add\n        /* \"@openzeppelin/contracts/token/ERC20/utils/SafeERC20.sol\":3811:3896  require(abi.decode(returndata, (bool)), \"SafeERC20: ERC20 operation did not succeed\") */\n      tag_124\n        /* \"#utility.yul\":5336:5742   */\n      jump\n        /* \"@openzeppelin/contracts/utils/Address.sol\":3861:4084  function functionCall(... */\n    tag_234:\n        /* \"@openzeppelin/contracts/utils/Address.sol\":3994:4006  bytes memory */\n      0x60\n        /* \"@openzeppelin/contracts/utils/Address.sol\":4025:4077  functionCallWithValue(target, data, 0, errorMessage) */\n      tag_241\n        /* \"@openzeppelin/contracts/utils/Address.sol\":4047:4053  target */\n      dup5\n        /* \"@openzeppelin/contracts/utils/Address.sol\":4055:4059  data */\n      dup5\n        /* \"@openzeppelin/contracts/utils/Address.sol\":4061:4062  0 */\n      0x00\n        /* \"@openzeppelin/contracts/utils/Address.sol\":4064:4076  errorMessage */\n      dup6\n        /* \"@openzeppelin/contracts/utils/Address.sol\":4025:4046  functionCallWithValue */\n      tag_242\n        /* \"@openzeppelin/contracts/utils/Address.sol\":4025:4077  functionCallWithValue(target, data, 0, errorMessage) */\n      jump\t// in\n    tag_241:\n        /* \"@openzeppelin/contracts/utils/Address.sol\":4018:4077  return functionCallWithValue(target, data, 0, errorMessage) */\n      swap1\n      pop\n        /* \"@openzeppelin/contracts/utils/Address.sol\":3861:4084  function functionCall(... */\n    tag_240:\n      swap4\n      swap3\n      pop\n      pop\n      pop\n      jump\t// out\n        /* \"@openzeppelin/contracts/utils/Address.sol\":4948:5447  function functionCallWithValue(... */\n    tag_242:\n        /* \"@openzeppelin/contracts/utils/Address.sol\":5113:5125  bytes memory */\n      0x60\n        /* \"@openzeppelin/contracts/utils/Address.sol\":5170:5175  value */\n      dup3\n        /* \"@openzeppelin/contracts/utils/Address.sol\":5145:5166  address(this).balance */\n      selfbalance\n        /* \"@openzeppelin/contracts/utils/Address.sol\":5145:5175  address(this).balance >= value */\n      lt\n      iszero\n        /* \"@openzeppelin/contracts/utils/Address.sol\":5137:5218  require(address(this).balance >= value, \"Address: insufficient balance for call\") */\n      tag_244\n      jumpi\n      mload(0x40)\n      shl(0xe5, 0x461bcd)\n      dup2\n      mstore\n        /* \"#utility.yul\":5949:5951   */\n      0x20\n        /* \"@openzeppelin/contracts/utils/Address.sol\":5137:5218  require(address(this).balance >= value, \"Address: insufficient balance for call\") */\n      0x04\n      dup3\n      add\n        /* \"#utility.yul\":5931:5952   */\n      mstore\n        /* \"#utility.yul\":5988:5990   */\n      0x26\n        /* \"#utility.yul\":5968:5986   */\n      0x24\n      dup3\n      add\n        /* \"#utility.yul\":5961:5991   */\n      mstore\n        /* \"#utility.yul\":6027:6061   */\n      0x416464726573733a20696e73756666696369656e742062616c616e636520666f\n        /* \"#utility.yul\":6007:6025   */\n      0x44\n      dup3\n      add\n        /* \"#utility.yul\":6000:6062   */\n      mstore\n      shl(0xd2, 0x1c8818d85b1b)\n        /* \"#utility.yul\":6078:6096   */\n      0x64\n      dup3\n      add\n        /* \"#utility.yul\":6071:6107   */\n      mstore\n        /* \"#utility.yul\":6124:6143   */\n      0x84\n      add\n        /* \"@openzeppelin/contracts/utils/Address.sol\":5137:5218  require(address(this).balance >= value, \"Address: insufficient balance for call\") */\n      tag_124\n        /* \"#utility.yul\":5747:6149   */\n      jump\n        /* \"@openzeppelin/contracts/utils/Address.sol\":5137:5218  require(address(this).balance >= value, \"Address: insufficient balance for call\") */\n    tag_244:\n      sub(shl(0xa0, 0x01), 0x01)\n        /* \"@openzeppelin/contracts/utils/Address.sol\":1465:1484  account.code.length */\n      dup6\n      and\n      extcodesize\n        /* \"@openzeppelin/contracts/utils/Address.sol\":5228:5288  require(isContract(target), \"Address: call to non-contract\") */\n      tag_249\n      jumpi\n      mload(0x40)\n      shl(0xe5, 0x461bcd)\n      dup2\n      mstore\n        /* \"#utility.yul\":6356:6358   */\n      0x20\n        /* \"@openzeppelin/contracts/utils/Address.sol\":5228:5288  require(isContract(target), \"Address: call to non-contract\") */\n      0x04\n      dup3\n      add\n        /* \"#utility.yul\":6338:6359   */\n      mstore\n        /* \"#utility.yul\":6395:6397   */\n      0x1d\n        /* \"#utility.yul\":6375:6393   */\n      0x24\n      dup3\n      add\n        /* \"#utility.yul\":6368:6398   */\n      mstore\n        /* \"#utility.yul\":6434:6465   */\n      0x416464726573733a2063616c6c20746f206e6f6e2d636f6e7472616374000000\n        /* \"#utility.yul\":6414:6432   */\n      0x44\n      dup3\n      add\n        /* \"#utility.yul\":6407:6466   */\n      mstore\n        /* \"#utility.yul\":6483:6501   */\n      0x64\n      add\n        /* \"@openzeppelin/contracts/utils/Address.sol\":5228:5288  require(isContract(target), \"Address: call to non-contract\") */\n      tag_124\n        /* \"#utility.yul\":6154:6507   */\n      jump\n        /* \"@openzeppelin/contracts/utils/Address.sol\":5228:5288  require(isContract(target), \"Address: call to non-contract\") */\n    tag_249:\n        /* \"@openzeppelin/contracts/utils/Address.sol\":5300:5312  bool success */\n      0x00\n        /* \"@openzeppelin/contracts/utils/Address.sol\":5314:5337  bytes memory returndata */\n      dup1\n        /* \"@openzeppelin/contracts/utils/Address.sol\":5341:5347  target */\n      dup7\n      sub(shl(0xa0, 0x01), 0x01)\n        /* \"@openzeppelin/contracts/utils/Address.sol\":5341:5352  target.call */\n      and\n        /* \"@openzeppelin/contracts/utils/Address.sol\":5360:5365  value */\n      dup6\n        /* \"@openzeppelin/contracts/utils/Address.sol\":5367:5371  data */\n      dup8\n        /* \"@openzeppelin/contracts/utils/Address.sol\":5341:5372  target.call{value: value}(data) */\n      mload(0x40)\n      tag_252\n      swap2\n      swap1\n      tag_253\n      jump\t// in\n    tag_252:\n      0x00\n      mload(0x40)\n      dup1\n      dup4\n      sub\n      dup2\n      dup6\n      dup8\n      gas\n      call\n      swap3\n      pop\n      pop\n      pop\n      returndatasize\n      dup1\n      0x00\n      dup2\n      eq\n      tag_256\n      jumpi\n      mload(0x40)\n      swap2\n      pop\n      and(add(returndatasize, 0x3f), not(0x1f))\n      dup3\n      add\n      0x40\n      mstore\n      returndatasize\n      dup3\n      mstore\n      returndatasize\n      0x00\n      0x20\n      dup5\n      add\n      returndatacopy\n      jump(tag_255)\n    tag_256:\n      0x60\n      swap2\n      pop\n    tag_255:\n      pop\n        /* \"@openzeppelin/contracts/utils/Address.sol\":5299:5372  (bool success, bytes memory returndata) = target.call{value: value}(data) */\n      swap2\n      pop\n      swap2\n      pop\n        /* \"@openzeppelin/contracts/utils/Address.sol\":5389:5440  verifyCallResult(success, returndata, errorMessage) */\n      tag_257\n        /* \"@openzeppelin/contracts/utils/Address.sol\":5406:5413  success */\n      dup3\n        /* \"@openzeppelin/contracts/utils/Address.sol\":5415:5425  returndata */\n      dup3\n        /* \"@openzeppelin/contracts/utils/Address.sol\":5427:5439  errorMessage */\n      dup7\n        /* \"@openzeppelin/contracts/utils/Address.sol\":5389:5405  verifyCallResult */\n      tag_258\n        /* \"@openzeppelin/contracts/utils/Address.sol\":5389:5440  verifyCallResult(success, returndata, errorMessage) */\n      jump\t// in\n    tag_257:\n        /* \"@openzeppelin/contracts/utils/Address.sol\":5382:5440  return verifyCallResult(success, returndata, errorMessage) */\n      swap8\n        /* \"@openzeppelin/contracts/utils/Address.sol\":4948:5447  function functionCallWithValue(... */\n      swap7\n      pop\n      pop\n      pop\n      pop\n      pop\n      pop\n      pop\n      jump\t// out\n        /* \"@openzeppelin/contracts/utils/Address.sol\":7561:8253  function verifyCallResult(... */\n    tag_258:\n        /* \"@openzeppelin/contracts/utils/Address.sol\":7707:7719  bytes memory */\n      0x60\n        /* \"@openzeppelin/contracts/utils/Address.sol\":7735:7742  success */\n      dup4\n        /* \"@openzeppelin/contracts/utils/Address.sol\":7731:8247  if (success) {... */\n      iszero\n      tag_261\n      jumpi\n      pop\n        /* \"@openzeppelin/contracts/utils/Address.sol\":7765:7775  returndata */\n      dup2\n        /* \"@openzeppelin/contracts/utils/Address.sol\":7758:7775  return returndata */\n      jump(tag_240)\n        /* \"@openzeppelin/contracts/utils/Address.sol\":7731:8247  if (success) {... */\n    tag_261:\n        /* \"@openzeppelin/contracts/utils/Address.sol\":7876:7893  returndata.length */\n      dup3\n      mload\n        /* \"@openzeppelin/contracts/utils/Address.sol\":7876:7897  returndata.length > 0 */\n      iszero\n        /* \"@openzeppelin/contracts/utils/Address.sol\":7872:8237  if (returndata.length > 0) {... */\n      tag_263\n      jumpi\n        /* \"@openzeppelin/contracts/utils/Address.sol\":8070:8080  returndata */\n      dup3\n        /* \"@openzeppelin/contracts/utils/Address.sol\":8064:8081  mload(returndata) */\n      mload\n        /* \"@openzeppelin/contracts/utils/Address.sol\":8130:8145  returndata_size */\n      dup1\n        /* \"@openzeppelin/contracts/utils/Address.sol\":8117:8127  returndata */\n      dup5\n        /* \"@openzeppelin/contracts/utils/Address.sol\":8113:8115  32 */\n      0x20\n        /* \"@openzeppelin/contracts/utils/Address.sol\":8109:8128  add(32, returndata) */\n      add\n        /* \"@openzeppelin/contracts/utils/Address.sol\":8102:8146  revert(add(32, returndata), returndata_size) */\n      revert\n        /* \"@openzeppelin/contracts/utils/Address.sol\":7872:8237  if (returndata.length > 0) {... */\n    tag_263:\n        /* \"@openzeppelin/contracts/utils/Address.sol\":8209:8221  errorMessage */\n      dup2\n        /* \"@openzeppelin/contracts/utils/Address.sol\":8202:8222  revert(errorMessage) */\n      mload(0x40)\n      shl(0xe5, 0x461bcd)\n      dup2\n      mstore\n      0x04\n      add\n      tag_124\n      swap2\n      swap1\n      tag_266\n      jump\t// in\n    tag_89:\n      mload(0x40)\n      dup1\n      0x60\n      add\n      0x40\n      mstore\n      dup1\n      0x00\n      dup2\n      mstore\n      0x20\n      add\n      0x00\n      dup2\n      mstore\n      0x20\n      add\n      tag_267\n      mload(0x40)\n      dup1\n      0xe0\n      add\n      0x40\n      mstore\n      dup1\n      0x00\n      dup2\n      mstore\n      0x20\n      add\n      0x00\n      dup2\n      mstore\n      0x20\n      add\n      0x00\n      dup2\n      mstore\n      0x20\n      add\n      0x00\n      dup2\n      mstore\n      0x20\n      add\n      0x00\n      dup2\n      mstore\n      0x20\n      add\n      0x00\n      dup2\n      mstore\n      0x20\n      add\n      0x00\n      dup2\n      mstore\n      pop\n      swap1\n      jump\n    tag_267:\n      swap1\n      mstore\n      swap1\n      jump\t// out\n        /* \"#utility.yul\":1024:1272   */\n    tag_39:\n        /* \"#utility.yul\":1092:1098   */\n      0x00\n        /* \"#utility.yul\":1100:1106   */\n      dup1\n        /* \"#utility.yul\":1153:1155   */\n      0x40\n        /* \"#utility.yul\":1141:1150   */\n      dup4\n        /* \"#utility.yul\":1132:1139   */\n      dup6\n        /* \"#utility.yul\":1128:1151   */\n      sub\n        /* \"#utility.yul\":1124:1156   */\n      slt\n        /* \"#utility.yul\":1121:1173   */\n      iszero\n      tag_275\n      jumpi\n        /* \"#utility.yul\":1169:1170   */\n      0x00\n        /* \"#utility.yul\":1166:1167   */\n      dup1\n        /* \"#utility.yul\":1159:1171   */\n      revert\n        /* \"#utility.yul\":1121:1173   */\n    tag_275:\n      pop\n      pop\n        /* \"#utility.yul\":1192:1215   */\n      dup1\n      calldataload\n      swap3\n        /* \"#utility.yul\":1262:1264   */\n      0x20\n        /* \"#utility.yul\":1247:1265   */\n      swap1\n      swap2\n      add\n        /* \"#utility.yul\":1234:1266   */\n      calldataload\n      swap2\n      pop\n        /* \"#utility.yul\":1024:1272   */\n      jump\t// out\n        /* \"#utility.yul\":1277:1457   */\n    tag_46:\n        /* \"#utility.yul\":1336:1342   */\n      0x00\n        /* \"#utility.yul\":1389:1391   */\n      0x20\n        /* \"#utility.yul\":1377:1386   */\n      dup3\n        /* \"#utility.yul\":1368:1375   */\n      dup5\n        /* \"#utility.yul\":1364:1387   */\n      sub\n        /* \"#utility.yul\":1360:1392   */\n      slt\n        /* \"#utility.yul\":1357:1409   */\n      iszero\n      tag_277\n      jumpi\n        /* \"#utility.yul\":1405:1406   */\n      0x00\n        /* \"#utility.yul\":1402:1403   */\n      dup1\n        /* \"#utility.yul\":1395:1407   */\n      revert\n        /* \"#utility.yul\":1357:1409   */\n    tag_277:\n      pop\n        /* \"#utility.yul\":1428:1451   */\n      calldataload\n      swap2\n        /* \"#utility.yul\":1277:1457   */\n      swap1\n      pop\n      jump\t// out\n        /* \"#utility.yul\":1670:1956   */\n    tag_61:\n        /* \"#utility.yul\":1729:1735   */\n      0x00\n        /* \"#utility.yul\":1782:1784   */\n      0x20\n        /* \"#utility.yul\":1770:1779   */\n      dup3\n        /* \"#utility.yul\":1761:1768   */\n      dup5\n        /* \"#utility.yul\":1757:1780   */\n      sub\n        /* \"#utility.yul\":1753:1785   */\n      slt\n        /* \"#utility.yul\":1750:1802   */\n      iszero\n      tag_280\n      jumpi\n        /* \"#utility.yul\":1798:1799   */\n      0x00\n        /* \"#utility.yul\":1795:1796   */\n      dup1\n        /* \"#utility.yul\":1788:1800   */\n      revert\n        /* \"#utility.yul\":1750:1802   */\n    tag_280:\n        /* \"#utility.yul\":1824:1847   */\n      dup2\n      calldataload\n      sub(shl(0xa0, 0x01), 0x01)\n        /* \"#utility.yul\":1876:1907   */\n      dup2\n      and\n        /* \"#utility.yul\":1866:1908   */\n      dup2\n      eq\n        /* \"#utility.yul\":1856:1926   */\n      tag_240\n      jumpi\n        /* \"#utility.yul\":1922:1923   */\n      0x00\n        /* \"#utility.yul\":1919:1920   */\n      dup1\n        /* \"#utility.yul\":1912:1924   */\n      revert\n        /* \"#utility.yul\":2153:2280   */\n    tag_269:\n        /* \"#utility.yul\":2214:2224   */\n      0x4e487b71\n        /* \"#utility.yul\":2209:2212   */\n      0xe0\n        /* \"#utility.yul\":2205:2225   */\n      shl\n        /* \"#utility.yul\":2202:2203   */\n      0x00\n        /* \"#utility.yul\":2195:2226   */\n      mstore\n        /* \"#utility.yul\":2245:2249   */\n      0x11\n        /* \"#utility.yul\":2242:2243   */\n      0x04\n        /* \"#utility.yul\":2235:2250   */\n      mstore\n        /* \"#utility.yul\":2269:2273   */\n      0x24\n        /* \"#utility.yul\":2266:2267   */\n      0x00\n        /* \"#utility.yul\":2259:2274   */\n      revert\n        /* \"#utility.yul\":2285:2453   */\n    tag_96:\n        /* \"#utility.yul\":2325:2332   */\n      0x00\n        /* \"#utility.yul\":2391:2392   */\n      dup2\n        /* \"#utility.yul\":2387:2388   */\n      0x00\n        /* \"#utility.yul\":2383:2389   */\n      not\n        /* \"#utility.yul\":2379:2393   */\n      div\n        /* \"#utility.yul\":2376:2377   */\n      dup4\n        /* \"#utility.yul\":2373:2394   */\n      gt\n        /* \"#utility.yul\":2368:2369   */\n      dup3\n        /* \"#utility.yul\":2361:2370   */\n      iszero\n        /* \"#utility.yul\":2354:2371   */\n      iszero\n        /* \"#utility.yul\":2350:2395   */\n      and\n        /* \"#utility.yul\":2347:2418   */\n      iszero\n      tag_286\n      jumpi\n        /* \"#utility.yul\":2398:2416   */\n      tag_286\n      tag_269\n      jump\t// in\n    tag_286:\n      pop\n        /* \"#utility.yul\":2438:2447   */\n      mul\n      swap1\n        /* \"#utility.yul\":2285:2453   */\n      jump\t// out\n        /* \"#utility.yul\":2458:2675   */\n    tag_98:\n        /* \"#utility.yul\":2498:2499   */\n      0x00\n        /* \"#utility.yul\":2524:2525   */\n      dup3\n        /* \"#utility.yul\":2514:2646   */\n      tag_288\n      jumpi\n        /* \"#utility.yul\":2568:2578   */\n      0x4e487b71\n        /* \"#utility.yul\":2563:2566   */\n      0xe0\n        /* \"#utility.yul\":2559:2579   */\n      shl\n        /* \"#utility.yul\":2556:2557   */\n      0x00\n        /* \"#utility.yul\":2549:2580   */\n      mstore\n        /* \"#utility.yul\":2603:2607   */\n      0x12\n        /* \"#utility.yul\":2600:2601   */\n      0x04\n        /* \"#utility.yul\":2593:2608   */\n      mstore\n        /* \"#utility.yul\":2631:2635   */\n      0x24\n        /* \"#utility.yul\":2628:2629   */\n      0x00\n        /* \"#utility.yul\":2621:2636   */\n      revert\n        /* \"#utility.yul\":2514:2646   */\n    tag_288:\n      pop\n        /* \"#utility.yul\":2660:2669   */\n      div\n      swap1\n        /* \"#utility.yul\":2458:2675   */\n      jump\t// out\n        /* \"#utility.yul\":2680:2808   */\n    tag_102:\n        /* \"#utility.yul\":2720:2723   */\n      0x00\n        /* \"#utility.yul\":2751:2752   */\n      dup3\n        /* \"#utility.yul\":2747:2753   */\n      not\n        /* \"#utility.yul\":2744:2745   */\n      dup3\n        /* \"#utility.yul\":2741:2754   */\n      gt\n        /* \"#utility.yul\":2738:2777   */\n      iszero\n      tag_291\n      jumpi\n        /* \"#utility.yul\":2757:2775   */\n      tag_291\n      tag_269\n      jump\t// in\n    tag_291:\n      pop\n        /* \"#utility.yul\":2793:2802   */\n      add\n      swap1\n        /* \"#utility.yul\":2680:2808   */\n      jump\t// out\n        /* \"#utility.yul\":3092:3369   */\n    tag_118:\n        /* \"#utility.yul\":3159:3165   */\n      0x00\n        /* \"#utility.yul\":3212:3214   */\n      0x20\n        /* \"#utility.yul\":3200:3209   */\n      dup3\n        /* \"#utility.yul\":3191:3198   */\n      dup5\n        /* \"#utility.yul\":3187:3210   */\n      sub\n        /* \"#utility.yul\":3183:3215   */\n      slt\n        /* \"#utility.yul\":3180:3232   */\n      iszero\n      tag_294\n      jumpi\n        /* \"#utility.yul\":3228:3229   */\n      0x00\n        /* \"#utility.yul\":3225:3226   */\n      dup1\n        /* \"#utility.yul\":3218:3230   */\n      revert\n        /* \"#utility.yul\":3180:3232   */\n    tag_294:\n        /* \"#utility.yul\":3260:3269   */\n      dup2\n        /* \"#utility.yul\":3254:3270   */\n      mload\n        /* \"#utility.yul\":3313:3318   */\n      dup1\n        /* \"#utility.yul\":3306:3319   */\n      iszero\n        /* \"#utility.yul\":3299:3320   */\n      iszero\n        /* \"#utility.yul\":3292:3297   */\n      dup2\n        /* \"#utility.yul\":3289:3321   */\n      eq\n        /* \"#utility.yul\":3279:3339   */\n      tag_240\n      jumpi\n        /* \"#utility.yul\":3335:3336   */\n      0x00\n        /* \"#utility.yul\":3332:3333   */\n      dup1\n        /* \"#utility.yul\":3325:3337   */\n      revert\n        /* \"#utility.yul\":3374:3730   */\n    tag_125:\n        /* \"#utility.yul\":3576:3578   */\n      0x20\n        /* \"#utility.yul\":3558:3579   */\n      dup1\n      dup3\n      mstore\n        /* \"#utility.yul\":3595:3613   */\n      dup2\n      dup2\n      add\n        /* \"#utility.yul\":3588:3618   */\n      mstore\n        /* \"#utility.yul\":3654:3688   */\n      0x4f776e61626c653a2063616c6c6572206973206e6f7420746865206f776e6572\n        /* \"#utility.yul\":3649:3651   */\n      0x40\n        /* \"#utility.yul\":3634:3652   */\n      dup3\n      add\n        /* \"#utility.yul\":3627:3689   */\n      mstore\n        /* \"#utility.yul\":3721:3723   */\n      0x60\n        /* \"#utility.yul\":3706:3724   */\n      add\n      swap1\n        /* \"#utility.yul\":3374:3730   */\n      jump\t// out\n        /* \"#utility.yul\":4419:4544   */\n    tag_154:\n        /* \"#utility.yul\":4459:4463   */\n      0x00\n        /* \"#utility.yul\":4487:4488   */\n      dup3\n        /* \"#utility.yul\":4484:4485   */\n      dup3\n        /* \"#utility.yul\":4481:4489   */\n      lt\n        /* \"#utility.yul\":4478:4512   */\n      iszero\n      tag_301\n      jumpi\n        /* \"#utility.yul\":4492:4510   */\n      tag_301\n      tag_269\n      jump\t// in\n    tag_301:\n      pop\n        /* \"#utility.yul\":4529:4538   */\n      sub\n      swap1\n        /* \"#utility.yul\":4419:4544   */\n      jump\t// out\n        /* \"#utility.yul\":6512:6770   */\n    tag_270:\n        /* \"#utility.yul\":6584:6585   */\n      0x00\n        /* \"#utility.yul\":6594:6707   */\n    tag_308:\n        /* \"#utility.yul\":6608:6614   */\n      dup4\n        /* \"#utility.yul\":6605:6606   */\n      dup2\n        /* \"#utility.yul\":6602:6615   */\n      lt\n        /* \"#utility.yul\":6594:6707   */\n      iszero\n      tag_310\n      jumpi\n        /* \"#utility.yul\":6684:6695   */\n      dup2\n      dup2\n      add\n        /* \"#utility.yul\":6678:6696   */\n      mload\n        /* \"#utility.yul\":6665:6676   */\n      dup4\n      dup3\n      add\n        /* \"#utility.yul\":6658:6697   */\n      mstore\n        /* \"#utility.yul\":6630:6632   */\n      0x20\n        /* \"#utility.yul\":6623:6633   */\n      add\n        /* \"#utility.yul\":6594:6707   */\n      jump(tag_308)\n    tag_310:\n        /* \"#utility.yul\":6725:6731   */\n      dup4\n        /* \"#utility.yul\":6722:6723   */\n      dup2\n        /* \"#utility.yul\":6719:6732   */\n      gt\n        /* \"#utility.yul\":6716:6764   */\n      iszero\n      tag_213\n      jumpi\n      pop\n      pop\n        /* \"#utility.yul\":6760:6761   */\n      0x00\n        /* \"#utility.yul\":6742:6758   */\n      swap2\n      add\n        /* \"#utility.yul\":6735:6762   */\n      mstore\n        /* \"#utility.yul\":6512:6770   */\n      jump\t// out\n        /* \"#utility.yul\":6775:7049   */\n    tag_253:\n        /* \"#utility.yul\":6904:6907   */\n      0x00\n        /* \"#utility.yul\":6942:6948   */\n      dup3\n        /* \"#utility.yul\":6936:6949   */\n      mload\n        /* \"#utility.yul\":6958:7011   */\n      tag_313\n        /* \"#utility.yul\":7004:7010   */\n      dup2\n        /* \"#utility.yul\":6999:7002   */\n      dup5\n        /* \"#utility.yul\":6992:6996   */\n      0x20\n        /* \"#utility.yul\":6984:6990   */\n      dup8\n        /* \"#utility.yul\":6980:6997   */\n      add\n        /* \"#utility.yul\":6958:7011   */\n      tag_270\n      jump\t// in\n    tag_313:\n        /* \"#utility.yul\":7027:7043   */\n      swap2\n      swap1\n      swap2\n      add\n      swap3\n        /* \"#utility.yul\":6775:7049   */\n      swap2\n      pop\n      pop\n      jump\t// out\n        /* \"#utility.yul\":7054:7437   */\n    tag_266:\n        /* \"#utility.yul\":7203:7205   */\n      0x20\n        /* \"#utility.yul\":7192:7201   */\n      dup2\n        /* \"#utility.yul\":7185:7206   */\n      mstore\n        /* \"#utility.yul\":7166:7170   */\n      0x00\n        /* \"#utility.yul\":7235:7241   */\n      dup3\n        /* \"#utility.yul\":7229:7242   */\n      mload\n        /* \"#utility.yul\":7278:7284   */\n      dup1\n        /* \"#utility.yul\":7273:7275   */\n      0x20\n        /* \"#utility.yul\":7262:7271   */\n      dup5\n        /* \"#utility.yul\":7258:7276   */\n      add\n        /* \"#utility.yul\":7251:7285   */\n      mstore\n        /* \"#utility.yul\":7294:7360   */\n      tag_315\n        /* \"#utility.yul\":7353:7359   */\n      dup2\n        /* \"#utility.yul\":7348:7350   */\n      0x40\n        /* \"#utility.yul\":7337:7346   */\n      dup6\n        /* \"#utility.yul\":7333:7351   */\n      add\n        /* \"#utility.yul\":7328:7330   */\n      0x20\n        /* \"#utility.yul\":7320:7326   */\n      dup8\n        /* \"#utility.yul\":7316:7331   */\n      add\n        /* \"#utility.yul\":7294:7360   */\n      tag_270\n      jump\t// in\n    tag_315:\n        /* \"#utility.yul\":7421:7423   */\n      0x1f\n        /* \"#utility.yul\":7400:7415   */\n      add\n      not(0x1f)\n        /* \"#utility.yul\":7396:7425   */\n      and\n        /* \"#utility.yul\":7381:7426   */\n      swap2\n      swap1\n      swap2\n      add\n        /* \"#utility.yul\":7428:7430   */\n      0x40\n        /* \"#utility.yul\":7377:7431   */\n      add\n      swap3\n        /* \"#utility.yul\":7054:7437   */\n      swap2\n      pop\n      pop\n      jump\t// out\n\n    auxdata: 0xa264697066735822122005591cc2eb4d622ad0c2d73de1686f328ad4a8819e9cc6b319d714c75099946164736f6c634300080b0033\n}\n",
				"bytecode": {
					"linkReferences": {},
					"object": "608060405234801561001057600080fd5b5060405161137038038061137083398101604081905261002f91610137565b600160005561003d336100e5565b600f6003556050600455600b80546001600160a01b0319166001600160a01b0392909216919091179055600260205260067fa1ef5b42f18533d67a183a193ea6c3fabfaa3bdabc3fc0e3f65b19b517df6e8c5560077f089cfcbf844e824feee5f634cbc488382291f3c9e0de5905f3c30812390dd832556301e1338060005260087fdc083eb4da7563bbd761324b5158d9d40af7c7174afe39b0b31a7577c44fc33b55610167565b600180546001600160a01b038381166001600160a01b0319831681179093556040519116919082907f8be0079c531659141344cd1fd0a4f28419497f9722a3daafe3b4186f6b6457e090600090a35050565b60006020828403121561014957600080fd5b81516001600160a01b038116811461016057600080fd5b9392505050565b6111fa806101766000396000f3fe608060405234801561001057600080fd5b50600436106101215760003560e01c8063a143a5f2116100ad578063c63aa3e711610071578063c63aa3e7146102b1578063cb79c2e1146102b7578063d2a569c3146102c0578063d5dbdf1b146102c8578063f2fde38b146102db57600080fd5b8063a143a5f21461023a578063a3ec138d1461025a578063b5d9df831461028d578063b87da76d146102a0578063bed9d861146102a957600080fd5b80637b0472f0116100f45780637b0472f0146101cf5780638891cf0d146101e25780638c63f97f146101eb5780638c8e8fee146101fe5780638da5cb5b1461022957600080fd5b806310486b6a146101265780635b88349d146101a65780635f5300ff146101b0578063715018a6146101c7575b600080fd5b61012e6102ee565b60405161019d919060006101208201905082518252602083015160208301526040830151805160408401526020810151606084015260408101516080840152606081015160a0840152608081015160c084015260a081015160e084015260c08101516101008401525092915050565b60405180910390f35b6101ae610444565b005b6101b960085481565b60405190815260200161019d565b6101ae610527565b6101ae6101dd366004611008565b610566565b6101b960045481565b6101ae6101f936600461102a565b610754565b600b54610211906001600160a01b031681565b6040516001600160a01b03909116815260200161019d565b6001546001600160a01b0316610211565b6101b961024836600461102a565b600a6020526000908152604090205481565b61027d610268366004611043565b60096020526000908152604090205460ff1681565b604051901515815260200161019d565b6101b961029b36600461102a565b6107dc565b6101b960055481565b6101ae6107fc565b426101b9565b6101b960035481565b6101ae610a1f565b6101ae6102d636600461102a565b610a4f565b6101ae6102e9366004611043565b610ad0565b6102f6610faa565b336000908152600c6020908152604091829020825160e08101845281548082526001830154938201939093526002820154938101939093526003810154606084015260048101546080840152600581015460a08401526006015460c08301526103725760405163b018f08760e01b815260040160405180910390fd5b604080516060810182526000808252602082018190529181018390529061039883610b68565b90504282604001516060015111156103f1576103e8600354826103bb9190611082565b6103c591906110a1565b60035484516103e8916103d791611082565b6103e191906110a1565b6103eb91906110c3565b60208301525b60006104008460c001516107dc565b11156104245760006104158460000151610bad565b604084015160a0015250610432565b6040820151600060a0909101525b60408201516080015290518152919050565b336000908152600c602052604090208054156105245761046781600601546107dc565b6104845760405163376115b360e21b815260040160405180910390fd5b60006005820155426006820155600b5481546001600160a01b039091169063a9059cbb9033906104b390610bad565b6040516001600160e01b031960e085901b1681526001600160a01b03909216600483015260248201526044016020604051808303816000875af11580156104fe573d6000803e3d6000fd5b505050506040513d601f19601f8201168201806040525081019061052291906110db565b505b50565b6001546001600160a01b0316331461055a5760405162461bcd60e51b8152600401610551906110fd565b60405180910390fd5b6105646000610bcf565b565b600260005414156105b95760405162461bcd60e51b815260206004820152601f60248201527f5265656e7472616e637947756172643a207265656e7472616e742063616c6c006044820152606401610551565b60026000908155338152600c6020526040902054156105eb576040516304462d2760e01b815260040160405180910390fd5b6000818152600260205260409020546106175760405163254ddef960e21b815260040160405180910390fd5b60016008600082825461062a91906110c3565b9091555050336000908152600960209081526040808320805460ff19166001179055805160e081018252858152428184018190528585526002909352928190205490830152906060810161067e83856110c3565b8152600060208083018290526040808401839052606093840183905233808452600c8352928190208551815591850151600183015584015160028201559183015160038301556080830151600483015560a0830151600583015560c090920151600690910155600b546106fe916001600160a01b03909116903086610c21565b337fb4caaf29adda3eefee3ad552a8e85058589bf834c7466cae4ee58787f70589ed848361072c81876110c3565b6040805193845260208401929092529082015260600160405180910390a25050600160005550565b6001546001600160a01b0316331461077e5760405162461bcd60e51b8152600401610551906110fd565b601e8111156107a05760405163f1a470d760e01b815260040160405180910390fd5b60038190556040518181527fcfa4f4cf1cd64d13a167a8e75605e0c0c9d6700e903d17c5dc11f593254a04a9906020015b60405180910390a150565b600062093a806107ec8342611132565b6107f691906110a1565b92915050565b6002600054141561084f5760405162461bcd60e51b815260206004820152601f60248201527f5265656e7472616e637947756172643a207265656e7472616e742063616c6c006044820152606401610551565b60026000818155338152600c60209081526040808320815160e0810183528154815260018201549381019390935293840154908201526003830154606082015260048301546080820152600583015460a082015260069092015460c08301526108b782610b68565b336000908152600c60205260408120818155600180820183905560028201839055600382018390556004820183905560058201839055600690910182905560088054939450909290919061090c908490611132565b909155505033600090815260096020908152604080832060075484526001019091529020805460ff19169055606082015142101561098157600080610955846000015184610c92565b600b54919350915061097a906001600160a01b03163361097584866110c3565b610cfb565b5050610a16565b600b5482516001600160a01b039091169063a9059cbb9033906109a59085906110c3565b6040516001600160e01b031960e085901b1681526001600160a01b03909216600483015260248201526044016020604051808303816000875af11580156109f0573d6000803e3d6000fd5b505050506040513d601f19601f82011682018060405250810190610a1491906110db565b505b50506001600055565b6001546001600160a01b03163314610a495760405162461bcd60e51b8152600401610551906110fd565b42600555565b6001546001600160a01b03163314610a795760405162461bcd60e51b8152600401610551906110fd565b60c8811115610a9b57604051630a552cf160e41b815260040160405180910390fd5b60048190556040518181527fcc672f1026b958c0cfbfdd89ebe8ddcbc127f16ec24da6c2c7a4de26a8b1857e906020016107d1565b6001546001600160a01b03163314610afa5760405162461bcd60e51b8152600401610551906110fd565b6001600160a01b038116610b5f5760405162461bcd60e51b815260206004820152602660248201527f4f776e61626c653a206e6577206f776e657220697320746865207a65726f206160448201526564647265737360d01b6064820152608401610551565b61052481610bcf565b8051600090610b7957506000919050565b6a52b7d2dcc80cd2e4000000610b928360200151610d30565b60408401518451610ba39190611082565b6107ec9190611082565b60006301dfe2006103e860045484610bc59190611082565b6107ec91906110a1565b600180546001600160a01b038381166001600160a01b0319831681179093556040519116919082907f8be0079c531659141344cd1fd0a4f28419497f9722a3daafe3b4186f6b6457e090600090a35050565b6040516001600160a01b0380851660248301528316604482015260648101829052610c8c9085906323b872dd60e01b906084015b60408051601f198184030181529190526020810180516001600160e01b03166001600160e01b031990931692909217909152610d55565b50505050565b60008083610ca557506000905080610cf4565b6103e860035485610cb69190611082565b610cc091906110a1565b610cca9085611132565b6103e860035485610cdb9190611082565b610ce591906110a1565b610cef9085611132565b915091505b9250929050565b6040516001600160a01b038316602482015260448101829052610d2b90849063a9059cbb60e01b90606401610c55565b505050565b60006301e13380610d418342611132565b6107ec9069d3c21bcecceda1000000611082565b6000610daa826040518060400160405280602081526020017f5361666545524332303a206c6f772d6c6576656c2063616c6c206661696c6564815250856001600160a01b0316610e279092919063ffffffff16565b805190915015610d2b5780806020019051810190610dc891906110db565b610d2b5760405162461bcd60e51b815260206004820152602a60248201527f5361666545524332303a204552433230206f7065726174696f6e20646964206e6044820152691bdd081cdd58d8d9595960b21b6064820152608401610551565b6060610e368484600085610e40565b90505b9392505050565b606082471015610ea15760405162461bcd60e51b815260206004820152602660248201527f416464726573733a20696e73756666696369656e742062616c616e636520666f6044820152651c8818d85b1b60d21b6064820152608401610551565b6001600160a01b0385163b610ef85760405162461bcd60e51b815260206004820152601d60248201527f416464726573733a2063616c6c20746f206e6f6e2d636f6e74726163740000006044820152606401610551565b600080866001600160a01b03168587604051610f149190611175565b60006040518083038185875af1925050503d8060008114610f51576040519150601f19603f3d011682016040523d82523d6000602084013e610f56565b606091505b5091509150610f66828286610f71565b979650505050505050565b60608315610f80575081610e39565b825115610f905782518084602001fd5b8160405162461bcd60e51b81526004016105519190611191565b604051806060016040528060008152602001600081526020016110036040518060e00160405280600081526020016000815260200160008152602001600081526020016000815260200160008152602001600081525090565b905290565b6000806040838503121561101b57600080fd5b50508035926020909101359150565b60006020828403121561103c57600080fd5b5035919050565b60006020828403121561105557600080fd5b81356001600160a01b0381168114610e3957600080fd5b634e487b7160e01b600052601160045260246000fd5b600081600019048311821515161561109c5761109c61106c565b500290565b6000826110be57634e487b7160e01b600052601260045260246000fd5b500490565b600082198211156110d6576110d661106c565b500190565b6000602082840312156110ed57600080fd5b81518015158114610e3957600080fd5b6020808252818101527f4f776e61626c653a2063616c6c6572206973206e6f7420746865206f776e6572604082015260600190565b6000828210156111445761114461106c565b500390565b60005b8381101561116457818101518382015260200161114c565b83811115610c8c5750506000910152565b60008251611187818460208701611149565b9190910192915050565b60208152600082518060208401526111b0816040850160208701611149565b601f01601f1916919091016040019291505056fea264697066735822122005591cc2eb4d622ad0c2d73de1686f328ad4a8819e9cc6b319d714c75099946164736f6c634300080b0033",
					"opcodes": "PUSH1 0x80 PUSH1 0x40 MSTORE CALLVALUE DUP1 ISZERO PUSH2 0x10 JUMPI PUSH1 0x0 DUP1 REVERT JUMPDEST POP PUSH1 0x40 MLOAD PUSH2 0x1370 CODESIZE SUB DUP1 PUSH2 0x1370 DUP4 CODECOPY DUP2 ADD PUSH1 0x40 DUP2 SWAP1 MSTORE PUSH2 0x2F SWAP2 PUSH2 0x137 JUMP JUMPDEST PUSH1 0x1 PUSH1 0x0 SSTORE PUSH2 0x3D CALLER PUSH2 0xE5 JUMP JUMPDEST PUSH1 0xF PUSH1 0x3 SSTORE PUSH1 0x50 PUSH1 0x4 SSTORE PUSH1 0xB DUP1 SLOAD PUSH1 0x1 PUSH1 0x1 PUSH1 0xA0 SHL SUB NOT AND PUSH1 0x1 PUSH1 0x1 PUSH1 0xA0 SHL SUB SWAP3 SWAP1 SWAP3 AND SWAP2 SWAP1 SWAP2 OR SWAP1 SSTORE PUSH1 0x2 PUSH1 0x20 MSTORE PUSH1 0x6 PUSH32 0xA1EF5B42F18533D67A183A193EA6C3FABFAA3BDABC3FC0E3F65B19B517DF6E8C SSTORE PUSH1 0x7 PUSH32 0x89CFCBF844E824FEEE5F634CBC488382291F3C9E0DE5905F3C30812390DD832 SSTORE PUSH4 0x1E13380 PUSH1 0x0 MSTORE PUSH1 0x8 PUSH32 0xDC083EB4DA7563BBD761324B5158D9D40AF7C7174AFE39B0B31A7577C44FC33B SSTORE PUSH2 0x167 JUMP JUMPDEST PUSH1 0x1 DUP1 SLOAD PUSH1 0x1 PUSH1 0x1 PUSH1 0xA0 SHL SUB DUP4 DUP2 AND PUSH1 0x1 PUSH1 0x1 PUSH1 0xA0 SHL SUB NOT DUP4 AND DUP2 OR SWAP1 SWAP4 SSTORE PUSH1 0x40 MLOAD SWAP2 AND SWAP2 SWAP1 DUP3 SWAP1 PUSH32 0x8BE0079C531659141344CD1FD0A4F28419497F9722A3DAAFE3B4186F6B6457E0 SWAP1 PUSH1 0x0 SWAP1 LOG3 POP POP JUMP JUMPDEST PUSH1 0x0 PUSH1 0x20 DUP3 DUP5 SUB SLT ISZERO PUSH2 0x149 JUMPI PUSH1 0x0 DUP1 REVERT JUMPDEST DUP2 MLOAD PUSH1 0x1 PUSH1 0x1 PUSH1 0xA0 SHL SUB DUP2 AND DUP2 EQ PUSH2 0x160 JUMPI PUSH1 0x0 DUP1 REVERT JUMPDEST SWAP4 SWAP3 POP POP POP JUMP JUMPDEST PUSH2 0x11FA DUP1 PUSH2 0x176 PUSH1 0x0 CODECOPY PUSH1 0x0 RETURN INVALID PUSH1 0x80 PUSH1 0x40 MSTORE CALLVALUE DUP1 ISZERO PUSH2 0x10 JUMPI PUSH1 0x0 DUP1 REVERT JUMPDEST POP PUSH1 0x4 CALLDATASIZE LT PUSH2 0x121 JUMPI PUSH1 0x0 CALLDATALOAD PUSH1 0xE0 SHR DUP1 PUSH4 0xA143A5F2 GT PUSH2 0xAD JUMPI DUP1 PUSH4 0xC63AA3E7 GT PUSH2 0x71 JUMPI DUP1 PUSH4 0xC63AA3E7 EQ PUSH2 0x2B1 JUMPI DUP1 PUSH4 0xCB79C2E1 EQ PUSH2 0x2B7 JUMPI DUP1 PUSH4 0xD2A569C3 EQ PUSH2 0x2C0 JUMPI DUP1 PUSH4 0xD5DBDF1B EQ PUSH2 0x2C8 JUMPI DUP1 PUSH4 0xF2FDE38B EQ PUSH2 0x2DB JUMPI PUSH1 0x0 DUP1 REVERT JUMPDEST DUP1 PUSH4 0xA143A5F2 EQ PUSH2 0x23A JUMPI DUP1 PUSH4 0xA3EC138D EQ PUSH2 0x25A JUMPI DUP1 PUSH4 0xB5D9DF83 EQ PUSH2 0x28D JUMPI DUP1 PUSH4 0xB87DA76D EQ PUSH2 0x2A0 JUMPI DUP1 PUSH4 0xBED9D861 EQ PUSH2 0x2A9 JUMPI PUSH1 0x0 DUP1 REVERT JUMPDEST DUP1 PUSH4 0x7B0472F0 GT PUSH2 0xF4 JUMPI DUP1 PUSH4 0x7B0472F0 EQ PUSH2 0x1CF JUMPI DUP1 PUSH4 0x8891CF0D EQ PUSH2 0x1E2 JUMPI DUP1 PUSH4 0x8C63F97F EQ PUSH2 0x1EB JUMPI DUP1 PUSH4 0x8C8E8FEE EQ PUSH2 0x1FE JUMPI DUP1 PUSH4 0x8DA5CB5B EQ PUSH2 0x229 JUMPI PUSH1 0x0 DUP1 REVERT JUMPDEST DUP1 PUSH4 0x10486B6A EQ PUSH2 0x126 JUMPI DUP1 PUSH4 0x5B88349D EQ PUSH2 0x1A6 JUMPI DUP1 PUSH4 0x5F5300FF EQ PUSH2 0x1B0 JUMPI DUP1 PUSH4 0x715018A6 EQ PUSH2 0x1C7 JUMPI JUMPDEST PUSH1 0x0 DUP1 REVERT JUMPDEST PUSH2 0x12E PUSH2 0x2EE JUMP JUMPDEST PUSH1 0x40 MLOAD PUSH2 0x19D SWAP2 SWAP1 PUSH1 0x0 PUSH2 0x120 DUP3 ADD SWAP1 POP DUP3 MLOAD DUP3 MSTORE PUSH1 0x20 DUP4 ADD MLOAD PUSH1 0x20 DUP4 ADD MSTORE PUSH1 0x40 DUP4 ADD MLOAD DUP1 MLOAD PUSH1 0x40 DUP5 ADD MSTORE PUSH1 0x20 DUP2 ADD MLOAD PUSH1 0x60 DUP5 ADD MSTORE PUSH1 0x40 DUP2 ADD MLOAD PUSH1 0x80 DUP5 ADD MSTORE PUSH1 0x60 DUP2 ADD MLOAD PUSH1 0xA0 DUP5 ADD MSTORE PUSH1 0x80 DUP2 ADD MLOAD PUSH1 0xC0 DUP5 ADD MSTORE PUSH1 0xA0 DUP2 ADD MLOAD PUSH1 0xE0 DUP5 ADD MSTORE PUSH1 0xC0 DUP2 ADD MLOAD PUSH2 0x100 DUP5 ADD MSTORE POP SWAP3 SWAP2 POP POP JUMP JUMPDEST PUSH1 0x40 MLOAD DUP1 SWAP2 SUB SWAP1 RETURN JUMPDEST PUSH2 0x1AE PUSH2 0x444 JUMP JUMPDEST STOP JUMPDEST PUSH2 0x1B9 PUSH1 0x8 SLOAD DUP2 JUMP JUMPDEST PUSH1 0x40 MLOAD SWAP1 DUP2 MSTORE PUSH1 0x20 ADD PUSH2 0x19D JUMP JUMPDEST PUSH2 0x1AE PUSH2 0x527 JUMP JUMPDEST PUSH2 0x1AE PUSH2 0x1DD CALLDATASIZE PUSH1 0x4 PUSH2 0x1008 JUMP JUMPDEST PUSH2 0x566 JUMP JUMPDEST PUSH2 0x1B9 PUSH1 0x4 SLOAD DUP2 JUMP JUMPDEST PUSH2 0x1AE PUSH2 0x1F9 CALLDATASIZE PUSH1 0x4 PUSH2 0x102A JUMP JUMPDEST PUSH2 0x754 JUMP JUMPDEST PUSH1 0xB SLOAD PUSH2 0x211 SWAP1 PUSH1 0x1 PUSH1 0x1 PUSH1 0xA0 SHL SUB AND DUP2 JUMP JUMPDEST PUSH1 0x40 MLOAD PUSH1 0x1 PUSH1 0x1 PUSH1 0xA0 SHL SUB SWAP1 SWAP2 AND DUP2 MSTORE PUSH1 0x20 ADD PUSH2 0x19D JUMP JUMPDEST PUSH1 0x1 SLOAD PUSH1 0x1 PUSH1 0x1 PUSH1 0xA0 SHL SUB AND PUSH2 0x211 JUMP JUMPDEST PUSH2 0x1B9 PUSH2 0x248 CALLDATASIZE PUSH1 0x4 PUSH2 0x102A JUMP JUMPDEST PUSH1 0xA PUSH1 0x20 MSTORE PUSH1 0x0 SWAP1 DUP2 MSTORE PUSH1 0x40 SWAP1 KECCAK256 SLOAD DUP2 JUMP JUMPDEST PUSH2 0x27D PUSH2 0x268 CALLDATASIZE PUSH1 0x4 PUSH2 0x1043 JUMP JUMPDEST PUSH1 0x9 PUSH1 0x20 MSTORE PUSH1 0x0 SWAP1 DUP2 MSTORE PUSH1 0x40 SWAP1 KECCAK256 SLOAD PUSH1 0xFF AND DUP2 JUMP JUMPDEST PUSH1 0x40 MLOAD SWAP1 ISZERO ISZERO DUP2 MSTORE PUSH1 0x20 ADD PUSH2 0x19D JUMP JUMPDEST PUSH2 0x1B9 PUSH2 0x29B CALLDATASIZE PUSH1 0x4 PUSH2 0x102A JUMP JUMPDEST PUSH2 0x7DC JUMP JUMPDEST PUSH2 0x1B9 PUSH1 0x5 SLOAD DUP2 JUMP JUMPDEST PUSH2 0x1AE PUSH2 0x7FC JUMP JUMPDEST TIMESTAMP PUSH2 0x1B9 JUMP JUMPDEST PUSH2 0x1B9 PUSH1 0x3 SLOAD DUP2 JUMP JUMPDEST PUSH2 0x1AE PUSH2 0xA1F JUMP JUMPDEST PUSH2 0x1AE PUSH2 0x2D6 CALLDATASIZE PUSH1 0x4 PUSH2 0x102A JUMP JUMPDEST PUSH2 0xA4F JUMP JUMPDEST PUSH2 0x1AE PUSH2 0x2E9 CALLDATASIZE PUSH1 0x4 PUSH2 0x1043 JUMP JUMPDEST PUSH2 0xAD0 JUMP JUMPDEST PUSH2 0x2F6 PUSH2 0xFAA JUMP JUMPDEST CALLER PUSH1 0x0 SWAP1 DUP2 MSTORE PUSH1 0xC PUSH1 0x20 SWAP1 DUP2 MSTORE PUSH1 0x40 SWAP2 DUP3 SWAP1 KECCAK256 DUP3 MLOAD PUSH1 0xE0 DUP2 ADD DUP5 MSTORE DUP2 SLOAD DUP1 DUP3 MSTORE PUSH1 0x1 DUP4 ADD SLOAD SWAP4 DUP3 ADD SWAP4 SWAP1 SWAP4 MSTORE PUSH1 0x2 DUP3 ADD SLOAD SWAP4 DUP2 ADD SWAP4 SWAP1 SWAP4 MSTORE PUSH1 0x3 DUP2 ADD SLOAD PUSH1 0x60 DUP5 ADD MSTORE PUSH1 0x4 DUP2 ADD SLOAD PUSH1 0x80 DUP5 ADD MSTORE PUSH1 0x5 DUP2 ADD SLOAD PUSH1 0xA0 DUP5 ADD MSTORE PUSH1 0x6 ADD SLOAD PUSH1 0xC0 DUP4 ADD MSTORE PUSH2 0x372 JUMPI PUSH1 0x40 MLOAD PUSH4 0xB018F087 PUSH1 0xE0 SHL DUP2 MSTORE PUSH1 0x4 ADD PUSH1 0x40 MLOAD DUP1 SWAP2 SUB SWAP1 REVERT JUMPDEST PUSH1 0x40 DUP1 MLOAD PUSH1 0x60 DUP2 ADD DUP3 MSTORE PUSH1 0x0 DUP1 DUP3 MSTORE PUSH1 0x20 DUP3 ADD DUP2 SWAP1 MSTORE SWAP2 DUP2 ADD DUP4 SWAP1 MSTORE SWAP1 PUSH2 0x398 DUP4 PUSH2 0xB68 JUMP JUMPDEST SWAP1 POP TIMESTAMP DUP3 PUSH1 0x40 ADD MLOAD PUSH1 0x60 ADD MLOAD GT ISZERO PUSH2 0x3F1 JUMPI PUSH2 0x3E8 PUSH1 0x3 SLOAD DUP3 PUSH2 0x3BB SWAP2 SWAP1 PUSH2 0x1082 JUMP JUMPDEST PUSH2 0x3C5 SWAP2 SWAP1 PUSH2 0x10A1 JUMP JUMPDEST PUSH1 0x3 SLOAD DUP5 MLOAD PUSH2 0x3E8 SWAP2 PUSH2 0x3D7 SWAP2 PUSH2 0x1082 JUMP JUMPDEST PUSH2 0x3E1 SWAP2 SWAP1 PUSH2 0x10A1 JUMP JUMPDEST PUSH2 0x3EB SWAP2 SWAP1 PUSH2 0x10C3 JUMP JUMPDEST PUSH1 0x20 DUP4 ADD MSTORE JUMPDEST PUSH1 0x0 PUSH2 0x400 DUP5 PUSH1 0xC0 ADD MLOAD PUSH2 0x7DC JUMP JUMPDEST GT ISZERO PUSH2 0x424 JUMPI PUSH1 0x0 PUSH2 0x415 DUP5 PUSH1 0x0 ADD MLOAD PUSH2 0xBAD JUMP JUMPDEST PUSH1 0x40 DUP5 ADD MLOAD PUSH1 0xA0 ADD MSTORE POP PUSH2 0x432 JUMP JUMPDEST PUSH1 0x40 DUP3 ADD MLOAD PUSH1 0x0 PUSH1 0xA0 SWAP1 SWAP2 ADD MSTORE JUMPDEST PUSH1 0x40 DUP3 ADD MLOAD PUSH1 0x80 ADD MSTORE SWAP1 MLOAD DUP2 MSTORE SWAP2 SWAP1 POP JUMP JUMPDEST CALLER PUSH1 0x0 SWAP1 DUP2 MSTORE PUSH1 0xC PUSH1 0x20 MSTORE PUSH1 0x40 SWAP1 KECCAK256 DUP1 SLOAD ISZERO PUSH2 0x524 JUMPI PUSH2 0x467 DUP2 PUSH1 0x6 ADD SLOAD PUSH2 0x7DC JUMP JUMPDEST PUSH2 0x484 JUMPI PUSH1 0x40 MLOAD PUSH4 0x376115B3 PUSH1 0xE2 SHL DUP2 MSTORE PUSH1 0x4 ADD PUSH1 0x40 MLOAD DUP1 SWAP2 SUB SWAP1 REVERT JUMPDEST PUSH1 0x0 PUSH1 0x5 DUP3 ADD SSTORE TIMESTAMP PUSH1 0x6 DUP3 ADD SSTORE PUSH1 0xB SLOAD DUP2 SLOAD PUSH1 0x1 PUSH1 0x1 PUSH1 0xA0 SHL SUB SWAP1 SWAP2 AND SWAP1 PUSH4 0xA9059CBB SWAP1 CALLER SWAP1 PUSH2 0x4B3 SWAP1 PUSH2 0xBAD JUMP JUMPDEST PUSH1 0x40 MLOAD PUSH1 0x1 PUSH1 0x1 PUSH1 0xE0 SHL SUB NOT PUSH1 0xE0 DUP6 SWAP1 SHL AND DUP2 MSTORE PUSH1 0x1 PUSH1 0x1 PUSH1 0xA0 SHL SUB SWAP1 SWAP3 AND PUSH1 0x4 DUP4 ADD MSTORE PUSH1 0x24 DUP3 ADD MSTORE PUSH1 0x44 ADD PUSH1 0x20 PUSH1 0x40 MLOAD DUP1 DUP4 SUB DUP2 PUSH1 0x0 DUP8 GAS CALL ISZERO DUP1 ISZERO PUSH2 0x4FE JUMPI RETURNDATASIZE PUSH1 0x0 DUP1 RETURNDATACOPY RETURNDATASIZE PUSH1 0x0 REVERT JUMPDEST POP POP POP POP PUSH1 0x40 MLOAD RETURNDATASIZE PUSH1 0x1F NOT PUSH1 0x1F DUP3 ADD AND DUP3 ADD DUP1 PUSH1 0x40 MSTORE POP DUP2 ADD SWAP1 PUSH2 0x522 SWAP2 SWAP1 PUSH2 0x10DB JUMP JUMPDEST POP JUMPDEST POP JUMP JUMPDEST PUSH1 0x1 SLOAD PUSH1 0x1 PUSH1 0x1 PUSH1 0xA0 SHL SUB AND CALLER EQ PUSH2 0x55A JUMPI PUSH1 0x40 MLOAD PUSH3 0x461BCD PUSH1 0xE5 SHL DUP2 MSTORE PUSH1 0x4 ADD PUSH2 0x551 SWAP1 PUSH2 0x10FD JUMP JUMPDEST PUSH1 0x40 MLOAD DUP1 SWAP2 SUB SWAP1 REVERT JUMPDEST PUSH2 0x564 PUSH1 0x0 PUSH2 0xBCF JUMP JUMPDEST JUMP JUMPDEST PUSH1 0x2 PUSH1 0x0 SLOAD EQ ISZERO PUSH2 0x5B9 JUMPI PUSH1 0x40 MLOAD PUSH3 0x461BCD PUSH1 0xE5 SHL DUP2 MSTORE PUSH1 0x20 PUSH1 0x4 DUP3 ADD MSTORE PUSH1 0x1F PUSH1 0x24 DUP3 ADD MSTORE PUSH32 0x5265656E7472616E637947756172643A207265656E7472616E742063616C6C00 PUSH1 0x44 DUP3 ADD MSTORE PUSH1 0x64 ADD PUSH2 0x551 JUMP JUMPDEST PUSH1 0x2 PUSH1 0x0 SWAP1 DUP2 SSTORE CALLER DUP2 MSTORE PUSH1 0xC PUSH1 0x20 MSTORE PUSH1 0x40 SWAP1 KECCAK256 SLOAD ISZERO PUSH2 0x5EB JUMPI PUSH1 0x40 MLOAD PUSH4 0x4462D27 PUSH1 0xE0 SHL DUP2 MSTORE PUSH1 0x4 ADD PUSH1 0x40 MLOAD DUP1 SWAP2 SUB SWAP1 REVERT JUMPDEST PUSH1 0x0 DUP2 DUP2 MSTORE PUSH1 0x2 PUSH1 0x20 MSTORE PUSH1 0x40 SWAP1 KECCAK256 SLOAD PUSH2 0x617 JUMPI PUSH1 0x40 MLOAD PUSH4 0x254DDEF9 PUSH1 0xE2 SHL DUP2 MSTORE PUSH1 0x4 ADD PUSH1 0x40 MLOAD DUP1 SWAP2 SUB SWAP1 REVERT JUMPDEST PUSH1 0x1 PUSH1 0x8 PUSH1 0x0 DUP3 DUP3 SLOAD PUSH2 0x62A SWAP2 SWAP1 PUSH2 0x10C3 JUMP JUMPDEST SWAP1 SWAP2 SSTORE POP POP CALLER PUSH1 0x0 SWAP1 DUP2 MSTORE PUSH1 0x9 PUSH1 0x20 SWAP1 DUP2 MSTORE PUSH1 0x40 DUP1 DUP4 KECCAK256 DUP1 SLOAD PUSH1 0xFF NOT AND PUSH1 0x1 OR SWAP1 SSTORE DUP1 MLOAD PUSH1 0xE0 DUP2 ADD DUP3 MSTORE DUP6 DUP2 MSTORE TIMESTAMP DUP2 DUP5 ADD DUP2 SWAP1 MSTORE DUP6 DUP6 MSTORE PUSH1 0x2 SWAP1 SWAP4 MSTORE SWAP3 DUP2 SWAP1 KECCAK256 SLOAD SWAP1 DUP4 ADD MSTORE SWAP1 PUSH1 0x60 DUP2 ADD PUSH2 0x67E DUP4 DUP6 PUSH2 0x10C3 JUMP JUMPDEST DUP2 MSTORE PUSH1 0x0 PUSH1 0x20 DUP1 DUP4 ADD DUP3 SWAP1 MSTORE PUSH1 0x40 DUP1 DUP5 ADD DUP4 SWAP1 MSTORE PUSH1 0x60 SWAP4 DUP5 ADD DUP4 SWAP1 MSTORE CALLER DUP1 DUP5 MSTORE PUSH1 0xC DUP4 MSTORE SWAP3 DUP2 SWAP1 KECCAK256 DUP6 MLOAD DUP2 SSTORE SWAP2 DUP6 ADD MLOAD PUSH1 0x1 DUP4 ADD SSTORE DUP5 ADD MLOAD PUSH1 0x2 DUP3 ADD SSTORE SWAP2 DUP4 ADD MLOAD PUSH1 0x3 DUP4 ADD SSTORE PUSH1 0x80 DUP4 ADD MLOAD PUSH1 0x4 DUP4 ADD SSTORE PUSH1 0xA0 DUP4 ADD MLOAD PUSH1 0x5 DUP4 ADD SSTORE PUSH1 0xC0 SWAP1 SWAP3 ADD MLOAD PUSH1 0x6 SWAP1 SWAP2 ADD SSTORE PUSH1 0xB SLOAD PUSH2 0x6FE SWAP2 PUSH1 0x1 PUSH1 0x1 PUSH1 0xA0 SHL SUB SWAP1 SWAP2 AND SWAP1 ADDRESS DUP7 PUSH2 0xC21 JUMP JUMPDEST CALLER PUSH32 0xB4CAAF29ADDA3EEFEE3AD552A8E85058589BF834C7466CAE4EE58787F70589ED DUP5 DUP4 PUSH2 0x72C DUP2 DUP8 PUSH2 0x10C3 JUMP JUMPDEST PUSH1 0x40 DUP1 MLOAD SWAP4 DUP5 MSTORE PUSH1 0x20 DUP5 ADD SWAP3 SWAP1 SWAP3 MSTORE SWAP1 DUP3 ADD MSTORE PUSH1 0x60 ADD PUSH1 0x40 MLOAD DUP1 SWAP2 SUB SWAP1 LOG2 POP POP PUSH1 0x1 PUSH1 0x0 SSTORE POP JUMP JUMPDEST PUSH1 0x1 SLOAD PUSH1 0x1 PUSH1 0x1 PUSH1 0xA0 SHL SUB AND CALLER EQ PUSH2 0x77E JUMPI PUSH1 0x40 MLOAD PUSH3 0x461BCD PUSH1 0xE5 SHL DUP2 MSTORE PUSH1 0x4 ADD PUSH2 0x551 SWAP1 PUSH2 0x10FD JUMP JUMPDEST PUSH1 0x1E DUP2 GT ISZERO PUSH2 0x7A0 JUMPI PUSH1 0x40 MLOAD PUSH4 0xF1A470D7 PUSH1 0xE0 SHL DUP2 MSTORE PUSH1 0x4 ADD PUSH1 0x40 MLOAD DUP1 SWAP2 SUB SWAP1 REVERT JUMPDEST PUSH1 0x3 DUP2 SWAP1 SSTORE PUSH1 0x40 MLOAD DUP2 DUP2 MSTORE PUSH32 0xCFA4F4CF1CD64D13A167A8E75605E0C0C9D6700E903D17C5DC11F593254A04A9 SWAP1 PUSH1 0x20 ADD JUMPDEST PUSH1 0x40 MLOAD DUP1 SWAP2 SUB SWAP1 LOG1 POP JUMP JUMPDEST PUSH1 0x0 PUSH3 0x93A80 PUSH2 0x7EC DUP4 TIMESTAMP PUSH2 0x1132 JUMP JUMPDEST PUSH2 0x7F6 SWAP2 SWAP1 PUSH2 0x10A1 JUMP JUMPDEST SWAP3 SWAP2 POP POP JUMP JUMPDEST PUSH1 0x2 PUSH1 0x0 SLOAD EQ ISZERO PUSH2 0x84F JUMPI PUSH1 0x40 MLOAD PUSH3 0x461BCD PUSH1 0xE5 SHL DUP2 MSTORE PUSH1 0x20 PUSH1 0x4 DUP3 ADD MSTORE PUSH1 0x1F PUSH1 0x24 DUP3 ADD MSTORE PUSH32 0x5265656E7472616E637947756172643A207265656E7472616E742063616C6C00 PUSH1 0x44 DUP3 ADD MSTORE PUSH1 0x64 ADD PUSH2 0x551 JUMP JUMPDEST PUSH1 0x2 PUSH1 0x0 DUP2 DUP2 SSTORE CALLER DUP2 MSTORE PUSH1 0xC PUSH1 0x20 SWAP1 DUP2 MSTORE PUSH1 0x40 DUP1 DUP4 KECCAK256 DUP2 MLOAD PUSH1 0xE0 DUP2 ADD DUP4 MSTORE DUP2 SLOAD DUP2 MSTORE PUSH1 0x1 DUP3 ADD SLOAD SWAP4 DUP2 ADD SWAP4 SWAP1 SWAP4 MSTORE SWAP4 DUP5 ADD SLOAD SWAP1 DUP3 ADD MSTORE PUSH1 0x3 DUP4 ADD SLOAD PUSH1 0x60 DUP3 ADD MSTORE PUSH1 0x4 DUP4 ADD SLOAD PUSH1 0x80 DUP3 ADD MSTORE PUSH1 0x5 DUP4 ADD SLOAD PUSH1 0xA0 DUP3 ADD MSTORE PUSH1 0x6 SWAP1 SWAP3 ADD SLOAD PUSH1 0xC0 DUP4 ADD MSTORE PUSH2 0x8B7 DUP3 PUSH2 0xB68 JUMP JUMPDEST CALLER PUSH1 0x0 SWAP1 DUP2 MSTORE PUSH1 0xC PUSH1 0x20 MSTORE PUSH1 0x40 DUP2 KECCAK256 DUP2 DUP2 SSTORE PUSH1 0x1 DUP1 DUP3 ADD DUP4 SWAP1 SSTORE PUSH1 0x2 DUP3 ADD DUP4 SWAP1 SSTORE PUSH1 0x3 DUP3 ADD DUP4 SWAP1 SSTORE PUSH1 0x4 DUP3 ADD DUP4 SWAP1 SSTORE PUSH1 0x5 DUP3 ADD DUP4 SWAP1 SSTORE PUSH1 0x6 SWAP1 SWAP2 ADD DUP3 SWAP1 SSTORE PUSH1 0x8 DUP1 SLOAD SWAP4 SWAP5 POP SWAP1 SWAP3 SWAP1 SWAP2 SWAP1 PUSH2 0x90C SWAP1 DUP5 SWAP1 PUSH2 0x1132 JUMP JUMPDEST SWAP1 SWAP2 SSTORE POP POP CALLER PUSH1 0x0 SWAP1 DUP2 MSTORE PUSH1 0x9 PUSH1 0x20 SWAP1 DUP2 MSTORE PUSH1 0x40 DUP1 DUP4 KECCAK256 PUSH1 0x7 SLOAD DUP5 MSTORE PUSH1 0x1 ADD SWAP1 SWAP2 MSTORE SWAP1 KECCAK256 DUP1 SLOAD PUSH1 0xFF NOT AND SWAP1 SSTORE PUSH1 0x60 DUP3 ADD MLOAD TIMESTAMP LT ISZERO PUSH2 0x981 JUMPI PUSH1 0x0 DUP1 PUSH2 0x955 DUP5 PUSH1 0x0 ADD MLOAD DUP5 PUSH2 0xC92 JUMP JUMPDEST PUSH1 0xB SLOAD SWAP2 SWAP4 POP SWAP2 POP PUSH2 0x97A SWAP1 PUSH1 0x1 PUSH1 0x1 PUSH1 0xA0 SHL SUB AND CALLER PUSH2 0x975 DUP5 DUP7 PUSH2 0x10C3 JUMP JUMPDEST PUSH2 0xCFB JUMP JUMPDEST POP POP PUSH2 0xA16 JUMP JUMPDEST PUSH1 0xB SLOAD DUP3 MLOAD PUSH1 0x1 PUSH1 0x1 PUSH1 0xA0 SHL SUB SWAP1 SWAP2 AND SWAP1 PUSH4 0xA9059CBB SWAP1 CALLER SWAP1 PUSH2 0x9A5 SWAP1 DUP6 SWAP1 PUSH2 0x10C3 JUMP JUMPDEST PUSH1 0x40 MLOAD PUSH1 0x1 PUSH1 0x1 PUSH1 0xE0 SHL SUB NOT PUSH1 0xE0 DUP6 SWAP1 SHL AND DUP2 MSTORE PUSH1 0x1 PUSH1 0x1 PUSH1 0xA0 SHL SUB SWAP1 SWAP3 AND PUSH1 0x4 DUP4 ADD MSTORE PUSH1 0x24 DUP3 ADD MSTORE PUSH1 0x44 ADD PUSH1 0x20 PUSH1 0x40 MLOAD DUP1 DUP4 SUB DUP2 PUSH1 0x0 DUP8 GAS CALL ISZERO DUP1 ISZERO PUSH2 0x9F0 JUMPI RETURNDATASIZE PUSH1 0x0 DUP1 RETURNDATACOPY RETURNDATASIZE PUSH1 0x0 REVERT JUMPDEST POP POP POP POP PUSH1 0x40 MLOAD RETURNDATASIZE PUSH1 0x1F NOT PUSH1 0x1F DUP3 ADD AND DUP3 ADD DUP1 PUSH1 0x40 MSTORE POP DUP2 ADD SWAP1 PUSH2 0xA14 SWAP2 SWAP1 PUSH2 0x10DB JUMP JUMPDEST POP JUMPDEST POP POP PUSH1 0x1 PUSH1 0x0 SSTORE JUMP JUMPDEST PUSH1 0x1 SLOAD PUSH1 0x1 PUSH1 0x1 PUSH1 0xA0 SHL SUB AND CALLER EQ PUSH2 0xA49 JUMPI PUSH1 0x40 MLOAD PUSH3 0x461BCD PUSH1 0xE5 SHL DUP2 MSTORE PUSH1 0x4 ADD PUSH2 0x551 SWAP1 PUSH2 0x10FD JUMP JUMPDEST TIMESTAMP PUSH1 0x5 SSTORE JUMP JUMPDEST PUSH1 0x1 SLOAD PUSH1 0x1 PUSH1 0x1 PUSH1 0xA0 SHL SUB AND CALLER EQ PUSH2 0xA79 JUMPI PUSH1 0x40 MLOAD PUSH3 0x461BCD PUSH1 0xE5 SHL DUP2 MSTORE PUSH1 0x4 ADD PUSH2 0x551 SWAP1 PUSH2 0x10FD JUMP JUMPDEST PUSH1 0xC8 DUP2 GT ISZERO PUSH2 0xA9B JUMPI PUSH1 0x40 MLOAD PUSH4 0xA552CF1 PUSH1 0xE4 SHL DUP2 MSTORE PUSH1 0x4 ADD PUSH1 0x40 MLOAD DUP1 SWAP2 SUB SWAP1 REVERT JUMPDEST PUSH1 0x4 DUP2 SWAP1 SSTORE PUSH1 0x40 MLOAD DUP2 DUP2 MSTORE PUSH32 0xCC672F1026B958C0CFBFDD89EBE8DDCBC127F16EC24DA6C2C7A4DE26A8B1857E SWAP1 PUSH1 0x20 ADD PUSH2 0x7D1 JUMP JUMPDEST PUSH1 0x1 SLOAD PUSH1 0x1 PUSH1 0x1 PUSH1 0xA0 SHL SUB AND CALLER EQ PUSH2 0xAFA JUMPI PUSH1 0x40 MLOAD PUSH3 0x461BCD PUSH1 0xE5 SHL DUP2 MSTORE PUSH1 0x4 ADD PUSH2 0x551 SWAP1 PUSH2 0x10FD JUMP JUMPDEST PUSH1 0x1 PUSH1 0x1 PUSH1 0xA0 SHL SUB DUP2 AND PUSH2 0xB5F JUMPI PUSH1 0x40 MLOAD PUSH3 0x461BCD PUSH1 0xE5 SHL DUP2 MSTORE PUSH1 0x20 PUSH1 0x4 DUP3 ADD MSTORE PUSH1 0x26 PUSH1 0x24 DUP3 ADD MSTORE PUSH32 0x4F776E61626C653A206E6577206F776E657220697320746865207A65726F2061 PUSH1 0x44 DUP3 ADD MSTORE PUSH6 0x646472657373 PUSH1 0xD0 SHL PUSH1 0x64 DUP3 ADD MSTORE PUSH1 0x84 ADD PUSH2 0x551 JUMP JUMPDEST PUSH2 0x524 DUP2 PUSH2 0xBCF JUMP JUMPDEST DUP1 MLOAD PUSH1 0x0 SWAP1 PUSH2 0xB79 JUMPI POP PUSH1 0x0 SWAP2 SWAP1 POP JUMP JUMPDEST PUSH11 0x52B7D2DCC80CD2E4000000 PUSH2 0xB92 DUP4 PUSH1 0x20 ADD MLOAD PUSH2 0xD30 JUMP JUMPDEST PUSH1 0x40 DUP5 ADD MLOAD DUP5 MLOAD PUSH2 0xBA3 SWAP2 SWAP1 PUSH2 0x1082 JUMP JUMPDEST PUSH2 0x7EC SWAP2 SWAP1 PUSH2 0x1082 JUMP JUMPDEST PUSH1 0x0 PUSH4 0x1DFE200 PUSH2 0x3E8 PUSH1 0x4 SLOAD DUP5 PUSH2 0xBC5 SWAP2 SWAP1 PUSH2 0x1082 JUMP JUMPDEST PUSH2 0x7EC SWAP2 SWAP1 PUSH2 0x10A1 JUMP JUMPDEST PUSH1 0x1 DUP1 SLOAD PUSH1 0x1 PUSH1 0x1 PUSH1 0xA0 SHL SUB DUP4 DUP2 AND PUSH1 0x1 PUSH1 0x1 PUSH1 0xA0 SHL SUB NOT DUP4 AND DUP2 OR SWAP1 SWAP4 SSTORE PUSH1 0x40 MLOAD SWAP2 AND SWAP2 SWAP1 DUP3 SWAP1 PUSH32 0x8BE0079C531659141344CD1FD0A4F28419497F9722A3DAAFE3B4186F6B6457E0 SWAP1 PUSH1 0x0 SWAP1 LOG3 POP POP JUMP JUMPDEST PUSH1 0x40 MLOAD PUSH1 0x1 PUSH1 0x1 PUSH1 0xA0 SHL SUB DUP1 DUP6 AND PUSH1 0x24 DUP4 ADD MSTORE DUP4 AND PUSH1 0x44 DUP3 ADD MSTORE PUSH1 0x64 DUP2 ADD DUP3 SWAP1 MSTORE PUSH2 0xC8C SWAP1 DUP6 SWAP1 PUSH4 0x23B872DD PUSH1 0xE0 SHL SWAP1 PUSH1 0x84 ADD JUMPDEST PUSH1 0x40 DUP1 MLOAD PUSH1 0x1F NOT DUP2 DUP5 SUB ADD DUP2 MSTORE SWAP2 SWAP1 MSTORE PUSH1 0x20 DUP2 ADD DUP1 MLOAD PUSH1 0x1 PUSH1 0x1 PUSH1 0xE0 SHL SUB AND PUSH1 0x1 PUSH1 0x1 PUSH1 0xE0 SHL SUB NOT SWAP1 SWAP4 AND SWAP3 SWAP1 SWAP3 OR SWAP1 SWAP2 MSTORE PUSH2 0xD55 JUMP JUMPDEST POP POP POP POP JUMP JUMPDEST PUSH1 0x0 DUP1 DUP4 PUSH2 0xCA5 JUMPI POP PUSH1 0x0 SWAP1 POP DUP1 PUSH2 0xCF4 JUMP JUMPDEST PUSH2 0x3E8 PUSH1 0x3 SLOAD DUP6 PUSH2 0xCB6 SWAP2 SWAP1 PUSH2 0x1082 JUMP JUMPDEST PUSH2 0xCC0 SWAP2 SWAP1 PUSH2 0x10A1 JUMP JUMPDEST PUSH2 0xCCA SWAP1 DUP6 PUSH2 0x1132 JUMP JUMPDEST PUSH2 0x3E8 PUSH1 0x3 SLOAD DUP6 PUSH2 0xCDB SWAP2 SWAP1 PUSH2 0x1082 JUMP JUMPDEST PUSH2 0xCE5 SWAP2 SWAP1 PUSH2 0x10A1 JUMP JUMPDEST PUSH2 0xCEF SWAP1 DUP6 PUSH2 0x1132 JUMP JUMPDEST SWAP2 POP SWAP2 POP JUMPDEST SWAP3 POP SWAP3 SWAP1 POP JUMP JUMPDEST PUSH1 0x40 MLOAD PUSH1 0x1 PUSH1 0x1 PUSH1 0xA0 SHL SUB DUP4 AND PUSH1 0x24 DUP3 ADD MSTORE PUSH1 0x44 DUP2 ADD DUP3 SWAP1 MSTORE PUSH2 0xD2B SWAP1 DUP5 SWAP1 PUSH4 0xA9059CBB PUSH1 0xE0 SHL SWAP1 PUSH1 0x64 ADD PUSH2 0xC55 JUMP JUMPDEST POP POP POP JUMP JUMPDEST PUSH1 0x0 PUSH4 0x1E13380 PUSH2 0xD41 DUP4 TIMESTAMP PUSH2 0x1132 JUMP JUMPDEST PUSH2 0x7EC SWAP1 PUSH10 0xD3C21BCECCEDA1000000 PUSH2 0x1082 JUMP JUMPDEST PUSH1 0x0 PUSH2 0xDAA DUP3 PUSH1 0x40 MLOAD DUP1 PUSH1 0x40 ADD PUSH1 0x40 MSTORE DUP1 PUSH1 0x20 DUP2 MSTORE PUSH1 0x20 ADD PUSH32 0x5361666545524332303A206C6F772D6C6576656C2063616C6C206661696C6564 DUP2 MSTORE POP DUP6 PUSH1 0x1 PUSH1 0x1 PUSH1 0xA0 SHL SUB AND PUSH2 0xE27 SWAP1 SWAP3 SWAP2 SWAP1 PUSH4 0xFFFFFFFF AND JUMP JUMPDEST DUP1 MLOAD SWAP1 SWAP2 POP ISZERO PUSH2 0xD2B JUMPI DUP1 DUP1 PUSH1 0x20 ADD SWAP1 MLOAD DUP2 ADD SWAP1 PUSH2 0xDC8 SWAP2 SWAP1 PUSH2 0x10DB JUMP JUMPDEST PUSH2 0xD2B JUMPI PUSH1 0x40 MLOAD PUSH3 0x461BCD PUSH1 0xE5 SHL DUP2 MSTORE PUSH1 0x20 PUSH1 0x4 DUP3 ADD MSTORE PUSH1 0x2A PUSH1 0x24 DUP3 ADD MSTORE PUSH32 0x5361666545524332303A204552433230206F7065726174696F6E20646964206E PUSH1 0x44 DUP3 ADD MSTORE PUSH10 0x1BDD081CDD58D8D95959 PUSH1 0xB2 SHL PUSH1 0x64 DUP3 ADD MSTORE PUSH1 0x84 ADD PUSH2 0x551 JUMP JUMPDEST PUSH1 0x60 PUSH2 0xE36 DUP5 DUP5 PUSH1 0x0 DUP6 PUSH2 0xE40 JUMP JUMPDEST SWAP1 POP JUMPDEST SWAP4 SWAP3 POP POP POP JUMP JUMPDEST PUSH1 0x60 DUP3 SELFBALANCE LT ISZERO PUSH2 0xEA1 JUMPI PUSH1 0x40 MLOAD PUSH3 0x461BCD PUSH1 0xE5 SHL DUP2 MSTORE PUSH1 0x20 PUSH1 0x4 DUP3 ADD MSTORE PUSH1 0x26 PUSH1 0x24 DUP3 ADD MSTORE PUSH32 0x416464726573733A20696E73756666696369656E742062616C616E636520666F PUSH1 0x44 DUP3 ADD MSTORE PUSH6 0x1C8818D85B1B PUSH1 0xD2 SHL PUSH1 0x64 DUP3 ADD MSTORE PUSH1 0x84 ADD PUSH2 0x551 JUMP JUMPDEST PUSH1 0x1 PUSH1 0x1 PUSH1 0xA0 SHL SUB DUP6 AND EXTCODESIZE PUSH2 0xEF8 JUMPI PUSH1 0x40 MLOAD PUSH3 0x461BCD PUSH1 0xE5 SHL DUP2 MSTORE PUSH1 0x20 PUSH1 0x4 DUP3 ADD MSTORE PUSH1 0x1D PUSH1 0x24 DUP3 ADD MSTORE PUSH32 0x416464726573733A2063616C6C20746F206E6F6E2D636F6E7472616374000000 PUSH1 0x44 DUP3 ADD MSTORE PUSH1 0x64 ADD PUSH2 0x551 JUMP JUMPDEST PUSH1 0x0 DUP1 DUP7 PUSH1 0x1 PUSH1 0x1 PUSH1 0xA0 SHL SUB AND DUP6 DUP8 PUSH1 0x40 MLOAD PUSH2 0xF14 SWAP2 SWAP1 PUSH2 0x1175 JUMP JUMPDEST PUSH1 0x0 PUSH1 0x40 MLOAD DUP1 DUP4 SUB DUP2 DUP6 DUP8 GAS CALL SWAP3 POP POP POP RETURNDATASIZE DUP1 PUSH1 0x0 DUP2 EQ PUSH2 0xF51 JUMPI PUSH1 0x40 MLOAD SWAP2 POP PUSH1 0x1F NOT PUSH1 0x3F RETURNDATASIZE ADD AND DUP3 ADD PUSH1 0x40 MSTORE RETURNDATASIZE DUP3 MSTORE RETURNDATASIZE PUSH1 0x0 PUSH1 0x20 DUP5 ADD RETURNDATACOPY PUSH2 0xF56 JUMP JUMPDEST PUSH1 0x60 SWAP2 POP JUMPDEST POP SWAP2 POP SWAP2 POP PUSH2 0xF66 DUP3 DUP3 DUP7 PUSH2 0xF71 JUMP JUMPDEST SWAP8 SWAP7 POP POP POP POP POP POP POP JUMP JUMPDEST PUSH1 0x60 DUP4 ISZERO PUSH2 0xF80 JUMPI POP DUP2 PUSH2 0xE39 JUMP JUMPDEST DUP3 MLOAD ISZERO PUSH2 0xF90 JUMPI DUP3 MLOAD DUP1 DUP5 PUSH1 0x20 ADD REVERT JUMPDEST DUP2 PUSH1 0x40 MLOAD PUSH3 0x461BCD PUSH1 0xE5 SHL DUP2 MSTORE PUSH1 0x4 ADD PUSH2 0x551 SWAP2 SWAP1 PUSH2 0x1191 JUMP JUMPDEST PUSH1 0x40 MLOAD DUP1 PUSH1 0x60 ADD PUSH1 0x40 MSTORE DUP1 PUSH1 0x0 DUP2 MSTORE PUSH1 0x20 ADD PUSH1 0x0 DUP2 MSTORE PUSH1 0x20 ADD PUSH2 0x1003 PUSH1 0x40 MLOAD DUP1 PUSH1 0xE0 ADD PUSH1 0x40 MSTORE DUP1 PUSH1 0x0 DUP2 MSTORE PUSH1 0x20 ADD PUSH1 0x0 DUP2 MSTORE PUSH1 0x20 ADD PUSH1 0x0 DUP2 MSTORE PUSH1 0x20 ADD PUSH1 0x0 DUP2 MSTORE PUSH1 0x20 ADD PUSH1 0x0 DUP2 MSTORE PUSH1 0x20 ADD PUSH1 0x0 DUP2 MSTORE PUSH1 0x20 ADD PUSH1 0x0 DUP2 MSTORE POP SWAP1 JUMP JUMPDEST SWAP1 MSTORE SWAP1 JUMP JUMPDEST PUSH1 0x0 DUP1 PUSH1 0x40 DUP4 DUP6 SUB SLT ISZERO PUSH2 0x101B JUMPI PUSH1 0x0 DUP1 REVERT JUMPDEST POP POP DUP1 CALLDATALOAD SWAP3 PUSH1 0x20 SWAP1 SWAP2 ADD CALLDATALOAD SWAP2 POP JUMP JUMPDEST PUSH1 0x0 PUSH1 0x20 DUP3 DUP5 SUB SLT ISZERO PUSH2 0x103C JUMPI PUSH1 0x0 DUP1 REVERT JUMPDEST POP CALLDATALOAD SWAP2 SWAP1 POP JUMP JUMPDEST PUSH1 0x0 PUSH1 0x20 DUP3 DUP5 SUB SLT ISZERO PUSH2 0x1055 JUMPI PUSH1 0x0 DUP1 REVERT JUMPDEST DUP2 CALLDATALOAD PUSH1 0x1 PUSH1 0x1 PUSH1 0xA0 SHL SUB DUP2 AND DUP2 EQ PUSH2 0xE39 JUMPI PUSH1 0x0 DUP1 REVERT JUMPDEST PUSH4 0x4E487B71 PUSH1 0xE0 SHL PUSH1 0x0 MSTORE PUSH1 0x11 PUSH1 0x4 MSTORE PUSH1 0x24 PUSH1 0x0 REVERT JUMPDEST PUSH1 0x0 DUP2 PUSH1 0x0 NOT DIV DUP4 GT DUP3 ISZERO ISZERO AND ISZERO PUSH2 0x109C JUMPI PUSH2 0x109C PUSH2 0x106C JUMP JUMPDEST POP MUL SWAP1 JUMP JUMPDEST PUSH1 0x0 DUP3 PUSH2 0x10BE JUMPI PUSH4 0x4E487B71 PUSH1 0xE0 SHL PUSH1 0x0 MSTORE PUSH1 0x12 PUSH1 0x4 MSTORE PUSH1 0x24 PUSH1 0x0 REVERT JUMPDEST POP DIV SWAP1 JUMP JUMPDEST PUSH1 0x0 DUP3 NOT DUP3 GT ISZERO PUSH2 0x10D6 JUMPI PUSH2 0x10D6 PUSH2 0x106C JUMP JUMPDEST POP ADD SWAP1 JUMP JUMPDEST PUSH1 0x0 PUSH1 0x20 DUP3 DUP5 SUB SLT ISZERO PUSH2 0x10ED JUMPI PUSH1 0x0 DUP1 REVERT JUMPDEST DUP2 MLOAD DUP1 ISZERO ISZERO DUP2 EQ PUSH2 0xE39 JUMPI PUSH1 0x0 DUP1 REVERT JUMPDEST PUSH1 0x20 DUP1 DUP3 MSTORE DUP2 DUP2 ADD MSTORE PUSH32 0x4F776E61626C653A2063616C6C6572206973206E6F7420746865206F776E6572 PUSH1 0x40 DUP3 ADD MSTORE PUSH1 0x60 ADD SWAP1 JUMP JUMPDEST PUSH1 0x0 DUP3 DUP3 LT ISZERO PUSH2 0x1144 JUMPI PUSH2 0x1144 PUSH2 0x106C JUMP JUMPDEST POP SUB SWAP1 JUMP JUMPDEST PUSH1 0x0 JUMPDEST DUP4 DUP2 LT ISZERO PUSH2 0x1164 JUMPI DUP2 DUP2 ADD MLOAD DUP4 DUP3 ADD MSTORE PUSH1 0x20 ADD PUSH2 0x114C JUMP JUMPDEST DUP4 DUP2 GT ISZERO PUSH2 0xC8C JUMPI POP POP PUSH1 0x0 SWAP2 ADD MSTORE JUMP JUMPDEST PUSH1 0x0 DUP3 MLOAD PUSH2 0x1187 DUP2 DUP5 PUSH1 0x20 DUP8 ADD PUSH2 0x1149 JUMP JUMPDEST SWAP2 SWAP1 SWAP2 ADD SWAP3 SWAP2 POP POP JUMP JUMPDEST PUSH1 0x20 DUP2 MSTORE PUSH1 0x0 DUP3 MLOAD DUP1 PUSH1 0x20 DUP5 ADD MSTORE PUSH2 0x11B0 DUP2 PUSH1 0x40 DUP6 ADD PUSH1 0x20 DUP8 ADD PUSH2 0x1149 JUMP JUMPDEST PUSH1 0x1F ADD PUSH1 0x1F NOT AND SWAP2 SWAP1 SWAP2 ADD PUSH1 0x40 ADD SWAP3 SWAP2 POP POP JUMP INVALID LOG2 PUSH5 0x6970667358 0x22 SLT KECCAK256 SDIV MSIZE SHR 0xC2 0xEB 0x4D PUSH3 0x2AD0C2 0xD7 RETURNDATASIZE 0xE1 PUSH9 0x6F328AD4A8819E9CC6 0xB3 NOT 0xD7 EQ 0xC7 POP SWAP10 SWAP5 PUSH2 0x6473 PUSH16 0x6C634300080B00330000000000000000 "
				},
				"gasEstimates": {
					"creation": {
						"codeDepositCost": "920400",
						"executionCost": "infinite",
						"totalCost": "infinite"
					},
					"external": {
						"_blockTimestamp()": "213",
						"airdropRate()": "2340",
						"airdropSince()": "2384",
						"calculateWeek(uint256)": "487",
						"changeAirdropPercentage(uint256)": "25655",
						"changePenaltyFee(uint256)": "25623",
						"claimAirdrop()": "infinite",
						"hasStake()": "infinite",
						"owner()": "2442",
						"renounceOwnership()": "28207",
						"stake(uint256,uint256)": "infinite",
						"stakingPenaltyRate()": "2339",
						"startAirdrop()": "24455",
						"token_address()": "2426",
						"totalVoters()": "2363",
						"transferOwnership(address)": "28387",
						"votedUsers(uint256)": "2461",
						"voters(address)": "2541",
						"withdrawStake()": "infinite"
					},
					"internal": {
						"_calculateAirdrop(uint256)": "infinite",
						"_calculateStakeReward(struct Staking.Stake memory)": "infinite",
						"_calculateStakingDuration(uint256)": "243",
						"_calculateStakingWithPenalty(uint256,uint256)": "infinite",
						"_checkVotingStatus()": "infinite",
						"_isVoter()": "infinite"
					}
				},
				"methodIdentifiers": {
					"_blockTimestamp()": "c63aa3e7",
					"airdropRate()": "8891cf0d",
					"airdropSince()": "b87da76d",
					"calculateWeek(uint256)": "b5d9df83",
					"changeAirdropPercentage(uint256)": "d5dbdf1b",
					"changePenaltyFee(uint256)": "8c63f97f",
					"claimAirdrop()": "5b88349d",
					"hasStake()": "10486b6a",
					"owner()": "8da5cb5b",
					"renounceOwnership()": "715018a6",
					"stake(uint256,uint256)": "7b0472f0",
					"stakingPenaltyRate()": "cb79c2e1",
					"startAirdrop()": "d2a569c3",
					"token_address()": "8c8e8fee",
					"totalVoters()": "5f5300ff",
					"transferOwnership(address)": "f2fde38b",
					"votedUsers(uint256)": "a143a5f2",
					"voters(address)": "a3ec138d",
					"withdrawStake()": "bed9d861"
				}
			},
			"storageLayout": {
				"storage": [
					{
						"astId": 115,
						"contract": "contracts/Stake-2.0.sol:Staking",
						"label": "_status",
						"offset": 0,
						"slot": "0",
						"type": "t_uint256"
					},
					{
						"astId": 7,
						"contract": "contracts/Stake-2.0.sol:Staking",
						"label": "_owner",
						"offset": 0,
						"slot": "1",
						"type": "t_address"
					},
					{
						"astId": 815,
						"contract": "contracts/Stake-2.0.sol:Staking",
						"label": "stakingPackage",
						"offset": 0,
						"slot": "2",
						"type": "t_mapping(t_uint256,t_uint256)"
					},
					{
						"astId": 817,
						"contract": "contracts/Stake-2.0.sol:Staking",
						"label": "stakingPenaltyRate",
						"offset": 0,
						"slot": "3",
						"type": "t_uint256"
					},
					{
						"astId": 819,
						"contract": "contracts/Stake-2.0.sol:Staking",
						"label": "airdropRate",
						"offset": 0,
						"slot": "4",
						"type": "t_uint256"
					},
					{
						"astId": 821,
						"contract": "contracts/Stake-2.0.sol:Staking",
						"label": "airdropSince",
						"offset": 0,
						"slot": "5",
						"type": "t_uint256"
					},
					{
						"astId": 823,
						"contract": "contracts/Stake-2.0.sol:Staking",
						"label": "_votingStatus",
						"offset": 0,
						"slot": "6",
						"type": "t_bool"
					},
					{
						"astId": 825,
						"contract": "contracts/Stake-2.0.sol:Staking",
						"label": "_votingId",
						"offset": 0,
						"slot": "7",
						"type": "t_uint256"
					},
					{
						"astId": 827,
						"contract": "contracts/Stake-2.0.sol:Staking",
						"label": "totalVoters",
						"offset": 0,
						"slot": "8",
						"type": "t_uint256"
					},
					{
						"astId": 832,
						"contract": "contracts/Stake-2.0.sol:Staking",
						"label": "voters",
						"offset": 0,
						"slot": "9",
						"type": "t_mapping(t_address,t_struct(Voter)811_storage)"
					},
					{
						"astId": 836,
						"contract": "contracts/Stake-2.0.sol:Staking",
						"label": "votedUsers",
						"offset": 0,
						"slot": "10",
						"type": "t_mapping(t_uint256,t_uint256)"
					},
					{
						"astId": 838,
						"contract": "contracts/Stake-2.0.sol:Staking",
						"label": "token_address",
						"offset": 0,
						"slot": "11",
						"type": "t_address"
					},
					{
						"astId": 903,
						"contract": "contracts/Stake-2.0.sol:Staking",
						"label": "stakeholders",
						"offset": 0,
						"slot": "12",
						"type": "t_mapping(t_address,t_struct(Stake)889_storage)"
					}
				],
				"types": {
					"t_address": {
						"encoding": "inplace",
						"label": "address",
						"numberOfBytes": "20"
					},
					"t_bool": {
						"encoding": "inplace",
						"label": "bool",
						"numberOfBytes": "1"
					},
					"t_mapping(t_address,t_struct(Stake)889_storage)": {
						"encoding": "mapping",
						"key": "t_address",
						"label": "mapping(address => struct Staking.Stake)",
						"numberOfBytes": "32",
						"value": "t_struct(Stake)889_storage"
					},
					"t_mapping(t_address,t_struct(Voter)811_storage)": {
						"encoding": "mapping",
						"key": "t_address",
						"label": "mapping(address => struct Staking.Voter)",
						"numberOfBytes": "32",
						"value": "t_struct(Voter)811_storage"
					},
					"t_mapping(t_uint256,t_bool)": {
						"encoding": "mapping",
						"key": "t_uint256",
						"label": "mapping(uint256 => bool)",
						"numberOfBytes": "32",
						"value": "t_bool"
					},
					"t_mapping(t_uint256,t_uint256)": {
						"encoding": "mapping",
						"key": "t_uint256",
						"label": "mapping(uint256 => uint256)",
						"numberOfBytes": "32",
						"value": "t_uint256"
					},
					"t_struct(Stake)889_storage": {
						"encoding": "inplace",
						"label": "struct Staking.Stake",
						"members": [
							{
								"astId": 876,
								"contract": "contracts/Stake-2.0.sol:Staking",
								"label": "amount",
								"offset": 0,
								"slot": "0",
								"type": "t_uint256"
							},
							{
								"astId": 878,
								"contract": "contracts/Stake-2.0.sol:Staking",
								"label": "since",
								"offset": 0,
								"slot": "1",
								"type": "t_uint256"
							},
							{
								"astId": 880,
								"contract": "contracts/Stake-2.0.sol:Staking",
								"label": "rewardAPY",
								"offset": 0,
								"slot": "2",
								"type": "t_uint256"
							},
							{
								"astId": 882,
								"contract": "contracts/Stake-2.0.sol:Staking",
								"label": "releaseTime",
								"offset": 0,
								"slot": "3",
								"type": "t_uint256"
							},
							{
								"astId": 884,
								"contract": "contracts/Stake-2.0.sol:Staking",
								"label": "claimable",
								"offset": 0,
								"slot": "4",
								"type": "t_uint256"
							},
							{
								"astId": 886,
								"contract": "contracts/Stake-2.0.sol:Staking",
								"label": "claimableAirdrop",
								"offset": 0,
								"slot": "5",
								"type": "t_uint256"
							},
							{
								"astId": 888,
								"contract": "contracts/Stake-2.0.sol:Staking",
								"label": "latestClaimDrop",
								"offset": 0,
								"slot": "6",
								"type": "t_uint256"
							}
						],
						"numberOfBytes": "224"
					},
					"t_struct(Voter)811_storage": {
						"encoding": "inplace",
						"label": "struct Staking.Voter",
						"members": [
							{
								"astId": 806,
								"contract": "contracts/Stake-2.0.sol:Staking",
								"label": "votingRight",
								"offset": 0,
								"slot": "0",
								"type": "t_bool"
							},
							{
								"astId": 810,
								"contract": "contracts/Stake-2.0.sol:Staking",
								"label": "voted",
								"offset": 0,
								"slot": "1",
								"type": "t_mapping(t_uint256,t_bool)"
							}
						],
						"numberOfBytes": "64"
					},
					"t_uint256": {
						"encoding": "inplace",
						"label": "uint256",
						"numberOfBytes": "32"
					}
				}
			},
			"userdoc": {
				"errors": {
					"Airdrop__claimableOnceAWeek()": [
						{
							"notice": "Error handling message for Airdrop functions"
						}
					]
				},
				"events": {
					"Staked(address,uint256,uint256,uint256)": {
						"notice": "Staked event is triggered whenever a user stakes tokens, address is indexed to make it filterable"
					}
				},
				"kind": "user",
				"methods": {
					"stake(uint256,uint256)": {
						"notice": "_Stake is used to make a stake for an sender. It will remove the amount staked from the stakers account and place those tokens inside a stake container StakeID"
					},
					"withdrawStake()": {
						"notice": "withdrawStake takes in an amount and a index of the stake and will remove tokens from that stake Notice index of the stake is the users stake counter, starting at 0 for the first stake Will return the amount to MINT onto the account Will also _calculateStakeReward and reset timer"
					}
				},
				"version": 1
			}
		}
	}
}