{
	"contracts/Lockedwallet.sol": {
		"LockedWallet": {
			"abi": [
				{
					"inputs": [
						{
							"internalType": "uint256",
							"name": "amount_",
							"type": "uint256"
						},
						{
							"internalType": "address",
							"name": "beneficiary_",
							"type": "address"
						}
					],
					"stateMutability": "nonpayable",
					"type": "constructor"
				},
				{
					"inputs": [],
					"name": "beneficiary",
					"outputs": [
						{
							"internalType": "address",
							"name": "",
							"type": "address"
						}
					],
					"stateMutability": "view",
					"type": "function"
				},
				{
					"inputs": [
						{
							"internalType": "address",
							"name": "talax",
							"type": "address"
						}
					],
					"name": "changeTalaxAddress",
					"outputs": [],
					"stateMutability": "nonpayable",
					"type": "function"
				},
				{
					"inputs": [],
					"name": "getOwner",
					"outputs": [
						{
							"internalType": "address",
							"name": "",
							"type": "address"
						}
					],
					"stateMutability": "view",
					"type": "function"
				},
				{
					"inputs": [],
					"name": "initiateLockedWallet",
					"outputs": [],
					"stateMutability": "nonpayable",
					"type": "function"
				},
				{
					"inputs": [
						{
							"internalType": "uint256[51]",
							"name": "amount",
							"type": "uint256[51]"
						}
					],
					"name": "releaseClaimable",
					"outputs": [
						{
							"internalType": "uint256",
							"name": "",
							"type": "uint256"
						}
					],
					"stateMutability": "nonpayable",
					"type": "function"
				},
				{
					"inputs": [],
					"name": "startLockedWallet",
					"outputs": [
						{
							"internalType": "uint256",
							"name": "",
							"type": "uint256"
						}
					],
					"stateMutability": "view",
					"type": "function"
				}
			],
			"devdoc": {
				"kind": "dev",
				"methods": {},
				"version": 1
			},
			"evm": {
				"assembly": "    /* \"contracts/Lockedwallet.sol\":182:2715  contract LockedWallet is ILockable {... */\n  mstore(0x40, 0xa0)\n    /* \"contracts/Lockedwallet.sol\":459:609  constructor(uint256 amount_, address beneficiary_) {... */\n  callvalue\n  dup1\n  iszero\n  tag_1\n  jumpi\n  0x00\n  dup1\n  revert\ntag_1:\n  pop\n  mload(0x40)\n  sub(codesize, bytecodeSize)\n  dup1\n  bytecodeSize\n  dup4\n  codecopy\n  dup2\n  add\n  0x40\n  dup2\n  swap1\n  mstore\n  tag_2\n  swap2\n  tag_3\n  jump\t// in\ntag_2:\n    /* \"contracts/Lockedwallet.sol\":520:527  _amount */\n  0x00\n    /* \"contracts/Lockedwallet.sol\":520:537  _amount = amount_ */\n  swap2\n  swap1\n  swap2\n  sstore\n  sub(shl(0xa0, 0x01), 0x01)\n    /* \"contracts/Lockedwallet.sol\":547:573  beneficiary = beneficiary_ */\n  and\n  0x80\n  mstore\n    /* \"contracts/Lockedwallet.sol\":583:589  _owner */\n  0x01\n    /* \"contracts/Lockedwallet.sol\":583:602  _owner = msg.sender */\n  dup1\n  sload\n  not(sub(shl(0xa0, 0x01), 0x01))\n  and\n    /* \"contracts/Lockedwallet.sol\":592:602  msg.sender */\n  caller\n    /* \"contracts/Lockedwallet.sol\":583:602  _owner = msg.sender */\n  or\n  swap1\n  sstore\n    /* \"contracts/Lockedwallet.sol\":182:2715  contract LockedWallet is ILockable {... */\n  jump(tag_7)\n    /* \"#utility.yul\":14:365   */\ntag_3:\n    /* \"#utility.yul\":93:99   */\n  0x00\n    /* \"#utility.yul\":101:107   */\n  dup1\n    /* \"#utility.yul\":154:156   */\n  0x40\n    /* \"#utility.yul\":142:151   */\n  dup4\n    /* \"#utility.yul\":133:140   */\n  dup6\n    /* \"#utility.yul\":129:152   */\n  sub\n    /* \"#utility.yul\":125:157   */\n  slt\n    /* \"#utility.yul\":122:174   */\n  iszero\n  tag_9\n  jumpi\n    /* \"#utility.yul\":170:171   */\n  0x00\n    /* \"#utility.yul\":167:168   */\n  dup1\n    /* \"#utility.yul\":160:172   */\n  revert\n    /* \"#utility.yul\":122:174   */\ntag_9:\n    /* \"#utility.yul\":193:209   */\n  dup3\n  mload\n    /* \"#utility.yul\":252:254   */\n  0x20\n    /* \"#utility.yul\":237:255   */\n  dup5\n  add\n    /* \"#utility.yul\":231:256   */\n  mload\n    /* \"#utility.yul\":193:209   */\n  swap1\n  swap3\n  pop\n  sub(shl(0xa0, 0x01), 0x01)\n    /* \"#utility.yul\":285:316   */\n  dup2\n  and\n    /* \"#utility.yul\":275:317   */\n  dup2\n  eq\n    /* \"#utility.yul\":265:335   */\n  tag_10\n  jumpi\n    /* \"#utility.yul\":331:332   */\n  0x00\n    /* \"#utility.yul\":328:329   */\n  dup1\n    /* \"#utility.yul\":321:333   */\n  revert\n    /* \"#utility.yul\":265:335   */\ntag_10:\n    /* \"#utility.yul\":354:359   */\n  dup1\n    /* \"#utility.yul\":344:359   */\n  swap2\n  pop\n  pop\n    /* \"#utility.yul\":14:365   */\n  swap3\n  pop\n  swap3\n  swap1\n  pop\n  jump\t// out\ntag_7:\n    /* \"contracts/Lockedwallet.sol\":182:2715  contract LockedWallet is ILockable {... */\n  mload(0x80)\n  codecopy(0x00, dataOffset(sub_0), dataSize(sub_0))\n  0x00\n  assignImmutable(\"0x74af0cf009313e3c0d92464af6a8b6afccd4848a55d5ef8dac37109dbdba36ea\")\n  return(0x00, dataSize(sub_0))\nstop\n\nsub_0: assembly {\n        /* \"contracts/Lockedwallet.sol\":182:2715  contract LockedWallet is ILockable {... */\n      mstore(0x40, 0x80)\n      callvalue\n      dup1\n      iszero\n      tag_1\n      jumpi\n      0x00\n      dup1\n      revert\n    tag_1:\n      pop\n      jumpi(tag_2, lt(calldatasize, 0x04))\n      shr(0xe0, calldataload(0x00))\n      dup1\n      0x893d20e8\n      gt\n      tag_9\n      jumpi\n      dup1\n      0x893d20e8\n      eq\n      tag_6\n      jumpi\n      dup1\n      0xb580aa9e\n      eq\n      tag_7\n      jumpi\n      dup1\n      0xc8cca41e\n      eq\n      tag_8\n      jumpi\n      0x00\n      dup1\n      revert\n    tag_9:\n      dup1\n      0x0a95606e\n      eq\n      tag_3\n      jumpi\n      dup1\n      0x1d77b00b\n      eq\n      tag_4\n      jumpi\n      dup1\n      0x38af3eed\n      eq\n      tag_5\n      jumpi\n    tag_2:\n      0x00\n      dup1\n      revert\n        /* \"contracts/Lockedwallet.sol\":2202:2713  function releaseClaimable(uint256[51] memory amount)... */\n    tag_3:\n      tag_10\n      tag_11\n      calldatasize\n      0x04\n      tag_12\n      jump\t// in\n    tag_11:\n      tag_13\n      jump\t// in\n    tag_10:\n      mload(0x40)\n        /* \"#utility.yul\":1101:1126   */\n      swap1\n      dup2\n      mstore\n        /* \"#utility.yul\":1089:1091   */\n      0x20\n        /* \"#utility.yul\":1074:1092   */\n      add\n        /* \"contracts/Lockedwallet.sol\":2202:2713  function releaseClaimable(uint256[51] memory amount)... */\n    tag_14:\n      mload(0x40)\n      dup1\n      swap2\n      sub\n      swap1\n      return\n        /* \"contracts/Lockedwallet.sol\":1082:1175  function changeTalaxAddress(address talax) external onlyTalax {... */\n    tag_4:\n      tag_16\n      tag_17\n      calldatasize\n      0x04\n      tag_18\n      jump\t// in\n    tag_17:\n      tag_19\n      jump\t// in\n    tag_16:\n      stop\n        /* \"contracts/Lockedwallet.sol\":336:372  address public immutable beneficiary */\n    tag_5:\n      tag_20\n      immutable(\"0x74af0cf009313e3c0d92464af6a8b6afccd4848a55d5ef8dac37109dbdba36ea\")\n      dup2\n      jump\n    tag_20:\n      mload(0x40)\n      sub(shl(0xa0, 0x01), 0x01)\n        /* \"#utility.yul\":1615:1670   */\n      swap1\n      swap2\n      and\n        /* \"#utility.yul\":1597:1671   */\n      dup2\n      mstore\n        /* \"#utility.yul\":1585:1587   */\n      0x20\n        /* \"#utility.yul\":1570:1588   */\n      add\n        /* \"contracts/Lockedwallet.sol\":336:372  address public immutable beneficiary */\n      tag_14\n        /* \"#utility.yul\":1451:1677   */\n      jump\n        /* \"contracts/Lockedwallet.sol\":823:903  function getOwner() public view returns (address) {... */\n    tag_6:\n        /* \"contracts/Lockedwallet.sol\":890:896  _owner */\n      and(sub(shl(0xa0, 0x01), 0x01), sload(0x01))\n        /* \"contracts/Lockedwallet.sol\":823:903  function getOwner() public view returns (address) {... */\n      jump(tag_20)\n        /* \"contracts/Lockedwallet.sol\":379:411  uint256 public startLockedWallet */\n    tag_7:\n      tag_10\n      sload(0x02)\n      dup2\n      jump\n        /* \"contracts/Lockedwallet.sol\":1236:1348  function initiateLockedWallet() external override onlyTalax {... */\n    tag_8:\n      tag_16\n      tag_31\n      jump\t// in\n        /* \"contracts/Lockedwallet.sol\":2202:2713  function releaseClaimable(uint256[51] memory amount)... */\n    tag_13:\n        /* \"contracts/Lockedwallet.sol\":2324:2331  uint256 */\n      0x00\n        /* \"contracts/Lockedwallet.sol\":940:952  _onlyTalax() */\n      tag_33\n        /* \"contracts/Lockedwallet.sol\":940:950  _onlyTalax */\n      tag_34\n        /* \"contracts/Lockedwallet.sol\":940:952  _onlyTalax() */\n      jump\t// in\n    tag_33:\n        /* \"contracts/Lockedwallet.sol\":2347:2376  uint256 claimableLockedAmount */\n      0x00\n        /* \"contracts/Lockedwallet.sol\":2379:2412  _calculateClaimableAmount(amount) */\n      tag_36\n        /* \"contracts/Lockedwallet.sol\":2405:2411  amount */\n      dup4\n        /* \"contracts/Lockedwallet.sol\":2379:2404  _calculateClaimableAmount */\n      tag_37\n        /* \"contracts/Lockedwallet.sol\":2379:2412  _calculateClaimableAmount(amount) */\n      jump\t// in\n    tag_36:\n        /* \"contracts/Lockedwallet.sol\":2347:2412  uint256 claimableLockedAmount = _calculateClaimableAmount(amount) */\n      swap1\n      pop\n        /* \"contracts/Lockedwallet.sol\":2515:2667  SafeMath.sub(... */\n      tag_38\n        /* \"contracts/Lockedwallet.sol\":2541:2548  _amount */\n      sload(0x00)\n        /* \"contracts/Lockedwallet.sol\":2562:2583  claimableLockedAmount */\n      dup3\n        /* \"contracts/Lockedwallet.sol\":2515:2667  SafeMath.sub(... */\n      mload(0x40)\n      dup1\n      0x60\n      add\n      0x40\n      mstore\n      dup1\n      0x3a\n      dup2\n      mstore\n      0x20\n      add\n      data_bc7335ef5a2766e252b0d20841b8a31e77013ede9c2a48b3b61a9c597162b79a\n      0x3a\n      swap2\n      codecopy\n        /* \"contracts/Lockedwallet.sol\":2515:2527  SafeMath.sub */\n      tag_39\n        /* \"contracts/Lockedwallet.sol\":2515:2667  SafeMath.sub(... */\n      jump\t// in\n    tag_38:\n        /* \"contracts/Lockedwallet.sol\":2505:2512  _amount */\n      0x00\n        /* \"contracts/Lockedwallet.sol\":2505:2667  _amount = SafeMath.sub(... */\n      sstore\n        /* \"contracts/Lockedwallet.sol\":2685:2706  claimableLockedAmount */\n      swap3\n        /* \"contracts/Lockedwallet.sol\":2202:2713  function releaseClaimable(uint256[51] memory amount)... */\n      swap2\n      pop\n      pop\n      jump\t// out\n        /* \"contracts/Lockedwallet.sol\":1082:1175  function changeTalaxAddress(address talax) external onlyTalax {... */\n    tag_19:\n        /* \"contracts/Lockedwallet.sol\":940:952  _onlyTalax() */\n      tag_41\n        /* \"contracts/Lockedwallet.sol\":940:950  _onlyTalax */\n      tag_34\n        /* \"contracts/Lockedwallet.sol\":940:952  _onlyTalax() */\n      jump\t// in\n    tag_41:\n        /* \"contracts/Lockedwallet.sol\":1154:1160  _owner */\n      0x01\n        /* \"contracts/Lockedwallet.sol\":1154:1168  _owner = talax */\n      dup1\n      sload\n      0xffffffffffffffffffffffff0000000000000000000000000000000000000000\n      and\n      sub(shl(0xa0, 0x01), 0x01)\n      swap3\n      swap1\n      swap3\n      and\n      swap2\n      swap1\n      swap2\n      or\n      swap1\n      sstore\n        /* \"contracts/Lockedwallet.sol\":1082:1175  function changeTalaxAddress(address talax) external onlyTalax {... */\n      jump\t// out\n        /* \"contracts/Lockedwallet.sol\":1236:1348  function initiateLockedWallet() external override onlyTalax {... */\n    tag_31:\n        /* \"contracts/Lockedwallet.sol\":940:952  _onlyTalax() */\n      tag_45\n        /* \"contracts/Lockedwallet.sol\":940:950  _onlyTalax */\n      tag_34\n        /* \"contracts/Lockedwallet.sol\":940:952  _onlyTalax() */\n      jump\t// in\n    tag_45:\n        /* \"contracts/Lockedwallet.sol\":1326:1341  block.timestamp */\n      timestamp\n        /* \"contracts/Lockedwallet.sol\":1306:1323  startLockedWallet */\n      0x02\n        /* \"contracts/Lockedwallet.sol\":1306:1341  startLockedWallet = block.timestamp */\n      sstore\n        /* \"contracts/Lockedwallet.sol\":1236:1348  function initiateLockedWallet() external override onlyTalax {... */\n      jump\t// out\n        /* \"contracts/Lockedwallet.sol\":721:817  function _onlyTalax() internal view {... */\n    tag_34:\n        /* \"contracts/Lockedwallet.sol\":789:795  _owner */\n      and(sub(shl(0xa0, 0x01), 0x01), sload(0x01))\n        /* \"contracts/Lockedwallet.sol\":775:785  msg.sender */\n      caller\n        /* \"contracts/Lockedwallet.sol\":775:795  msg.sender == _owner */\n      eq\n        /* \"contracts/Lockedwallet.sol\":767:810  require(msg.sender == _owner, \"Not _owner\") */\n      tag_48\n      jumpi\n      mload(0x40)\n      shl(0xe5, 0x461bcd)\n      dup2\n      mstore\n        /* \"#utility.yul\":1884:1886   */\n      0x20\n        /* \"contracts/Lockedwallet.sol\":767:810  require(msg.sender == _owner, \"Not _owner\") */\n      0x04\n      dup3\n      add\n        /* \"#utility.yul\":1866:1887   */\n      mstore\n        /* \"#utility.yul\":1923:1925   */\n      0x0a\n        /* \"#utility.yul\":1903:1921   */\n      0x24\n      dup3\n      add\n        /* \"#utility.yul\":1896:1926   */\n      mstore\n        /* \"#utility.yul\":1962:1974   */\n      0x4e6f74205f6f776e657200000000000000000000000000000000000000000000\n        /* \"#utility.yul\":1942:1960   */\n      0x44\n      dup3\n      add\n        /* \"#utility.yul\":1935:1975   */\n      mstore\n        /* \"#utility.yul\":1992:2010   */\n      0x64\n      add\n        /* \"contracts/Lockedwallet.sol\":767:810  require(msg.sender == _owner, \"Not _owner\") */\n    tag_49:\n      mload(0x40)\n      dup1\n      swap2\n      sub\n      swap1\n      revert\n    tag_48:\n        /* \"contracts/Lockedwallet.sol\":721:817  function _onlyTalax() internal view {... */\n      jump\t// out\n        /* \"contracts/Lockedwallet.sol\":1585:2115  function _calculateClaimableAmount(uint256[51] memory amount_)... */\n    tag_37:\n        /* \"contracts/Lockedwallet.sol\":1682:1689  uint256 */\n      0x00\n        /* \"contracts/Lockedwallet.sol\":1705:1719  uint256 months */\n      dup1\n        /* \"contracts/Lockedwallet.sol\":1762:1769  30 days */\n      0x278d00\n        /* \"contracts/Lockedwallet.sol\":1741:1758  startLockedWallet */\n      sload(0x02)\n        /* \"contracts/Lockedwallet.sol\":1723:1738  block.timestamp */\n      timestamp\n        /* \"contracts/Lockedwallet.sol\":1723:1758  block.timestamp - startLockedWallet */\n      tag_52\n      swap2\n      swap1\n      tag_53\n      jump\t// in\n    tag_52:\n        /* \"contracts/Lockedwallet.sol\":1722:1769  (block.timestamp - startLockedWallet) / 30 days */\n      tag_54\n      swap2\n      swap1\n      tag_55\n      jump\t// in\n    tag_54:\n        /* \"contracts/Lockedwallet.sol\":1824:1841  _latestClaimMonth */\n      sload(0x03)\n        /* \"contracts/Lockedwallet.sol\":1705:1769  uint256 months = (block.timestamp - startLockedWallet) / 30 days */\n      swap1\n      swap2\n      pop\n        /* \"contracts/Lockedwallet.sol\":1779:1796  uint256 claimable */\n      0x00\n      swap1\n        /* \"contracts/Lockedwallet.sol\":1807:1984  for (uint256 i = _latestClaimMonth; i <= months; i = _unsafeInc(i)) {... */\n    tag_56:\n        /* \"contracts/Lockedwallet.sol\":1848:1854  months */\n      dup3\n        /* \"contracts/Lockedwallet.sol\":1843:1844  i */\n      dup2\n        /* \"contracts/Lockedwallet.sol\":1843:1854  i <= months */\n      gt\n        /* \"contracts/Lockedwallet.sol\":1807:1984  for (uint256 i = _latestClaimMonth; i <= months; i = _unsafeInc(i)) {... */\n      tag_57\n      jumpi\n        /* \"contracts/Lockedwallet.sol\":1914:1916  51 */\n      0x33\n        /* \"contracts/Lockedwallet.sol\":1893:1910  _latestClaimMonth */\n      sload(0x03)\n        /* \"contracts/Lockedwallet.sol\":1893:1916  _latestClaimMonth <= 51 */\n      gt\n        /* \"contracts/Lockedwallet.sol\":1889:1974  if (_latestClaimMonth <= 51) {... */\n      tag_59\n      jumpi\n        /* \"contracts/Lockedwallet.sol\":1949:1956  amount_ */\n      dup5\n        /* \"contracts/Lockedwallet.sol\":1957:1958  i */\n      dup2\n        /* \"contracts/Lockedwallet.sol\":1949:1959  amount_[i] */\n      0x33\n      dup2\n      lt\n      tag_61\n      jumpi\n      tag_61\n      tag_62\n      jump\t// in\n    tag_61:\n      0x20\n      mul\n      add\n      mload\n        /* \"contracts/Lockedwallet.sol\":1936:1959  claimable += amount_[i] */\n      tag_63\n      swap1\n      dup4\n      tag_64\n      jump\t// in\n    tag_63:\n      swap2\n      pop\n        /* \"contracts/Lockedwallet.sol\":1889:1974  if (_latestClaimMonth <= 51) {... */\n    tag_59:\n        /* \"contracts/Lockedwallet.sol\":1462:1463  1 */\n      0x01\n        /* \"contracts/Lockedwallet.sol\":1458:1463  x + 1 */\n      add\n        /* \"contracts/Lockedwallet.sol\":1807:1984  for (uint256 i = _latestClaimMonth; i <= months; i = _unsafeInc(i)) {... */\n      jump(tag_56)\n    tag_57:\n      pop\n        /* \"contracts/Lockedwallet.sol\":2014:2024  months + 1 */\n      tag_67\n        /* \"contracts/Lockedwallet.sol\":2014:2020  months */\n      dup3\n        /* \"contracts/Lockedwallet.sol\":2023:2024  1 */\n      0x01\n        /* \"contracts/Lockedwallet.sol\":2014:2024  months + 1 */\n      tag_64\n      jump\t// in\n    tag_67:\n        /* \"contracts/Lockedwallet.sol\":1994:2011  _latestClaimMonth */\n      0x03\n        /* \"contracts/Lockedwallet.sol\":1994:2024  _latestClaimMonth = months + 1 */\n      sstore\n        /* \"contracts/Lockedwallet.sol\":2043:2057  claimable != 0 */\n      dup1\n        /* \"contracts/Lockedwallet.sol\":2035:2082  require(claimable != 0, \"Nothing to claim yet\") */\n      tag_68\n      jumpi\n      mload(0x40)\n      shl(0xe5, 0x461bcd)\n      dup2\n      mstore\n        /* \"#utility.yul\":3143:3145   */\n      0x20\n        /* \"contracts/Lockedwallet.sol\":2035:2082  require(claimable != 0, \"Nothing to claim yet\") */\n      0x04\n      dup3\n      add\n        /* \"#utility.yul\":3125:3146   */\n      mstore\n        /* \"#utility.yul\":3182:3184   */\n      0x14\n        /* \"#utility.yul\":3162:3180   */\n      0x24\n      dup3\n      add\n        /* \"#utility.yul\":3155:3185   */\n      mstore\n        /* \"#utility.yul\":3221:3243   */\n      0x4e6f7468696e6720746f20636c61696d20796574000000000000000000000000\n        /* \"#utility.yul\":3201:3219   */\n      0x44\n      dup3\n      add\n        /* \"#utility.yul\":3194:3244   */\n      mstore\n        /* \"#utility.yul\":3261:3279   */\n      0x64\n      add\n        /* \"contracts/Lockedwallet.sol\":2035:2082  require(claimable != 0, \"Nothing to claim yet\") */\n      tag_49\n        /* \"#utility.yul\":2941:3285   */\n      jump\n        /* \"contracts/Lockedwallet.sol\":2035:2082  require(claimable != 0, \"Nothing to claim yet\") */\n    tag_68:\n        /* \"contracts/Lockedwallet.sol\":2099:2108  claimable */\n      swap4\n        /* \"contracts/Lockedwallet.sol\":1585:2115  function _calculateClaimableAmount(uint256[51] memory amount_)... */\n      swap3\n      pop\n      pop\n      pop\n      jump\t// out\n        /* \"@openzeppelin/contracts/utils/math/SafeMath.sol\":4945:5176  function sub(... */\n    tag_39:\n        /* \"@openzeppelin/contracts/utils/math/SafeMath.sol\":5061:5068  uint256 */\n      0x00\n        /* \"@openzeppelin/contracts/utils/math/SafeMath.sol\":5120:5132  errorMessage */\n      dup2\n        /* \"@openzeppelin/contracts/utils/math/SafeMath.sol\":5112:5118  b <= a */\n      dup5\n      dup5\n      gt\n      iszero\n        /* \"@openzeppelin/contracts/utils/math/SafeMath.sol\":5104:5133  require(b <= a, errorMessage) */\n      tag_72\n      jumpi\n      mload(0x40)\n      shl(0xe5, 0x461bcd)\n      dup2\n      mstore\n      0x04\n      add\n      tag_49\n      swap2\n      swap1\n      tag_74\n      jump\t// in\n    tag_72:\n      pop\n      pop\n      pop\n        /* \"@openzeppelin/contracts/utils/math/SafeMath.sol\":5154:5159  a - b */\n      swap1\n      sub\n      swap1\n        /* \"@openzeppelin/contracts/utils/math/SafeMath.sol\":4945:5176  function sub(... */\n      jump\t// out\n        /* \"#utility.yul\":14:950   */\n    tag_12:\n        /* \"#utility.yul\":97:103   */\n      0x00\n        /* \"#utility.yul\":128:132   */\n      0x0660\n        /* \"#utility.yul\":173:175   */\n      dup1\n        /* \"#utility.yul\":161:170   */\n      dup4\n        /* \"#utility.yul\":152:159   */\n      dup6\n        /* \"#utility.yul\":148:171   */\n      sub\n        /* \"#utility.yul\":144:176   */\n      slt\n        /* \"#utility.yul\":141:193   */\n      iszero\n      tag_79\n      jumpi\n        /* \"#utility.yul\":189:190   */\n      0x00\n        /* \"#utility.yul\":186:187   */\n      dup1\n        /* \"#utility.yul\":179:191   */\n      revert\n        /* \"#utility.yul\":141:193   */\n    tag_79:\n        /* \"#utility.yul\":238:245   */\n      dup4\n        /* \"#utility.yul\":231:235   */\n      0x1f\n        /* \"#utility.yul\":220:229   */\n      dup5\n        /* \"#utility.yul\":216:236   */\n      add\n        /* \"#utility.yul\":212:246   */\n      slt\n        /* \"#utility.yul\":202:264   */\n      tag_80\n      jumpi\n        /* \"#utility.yul\":260:261   */\n      0x00\n        /* \"#utility.yul\":257:258   */\n      dup1\n        /* \"#utility.yul\":250:262   */\n      revert\n        /* \"#utility.yul\":202:264   */\n    tag_80:\n        /* \"#utility.yul\":293:295   */\n      0x40\n        /* \"#utility.yul\":287:296   */\n      mload\n        /* \"#utility.yul\":335:337   */\n      dup2\n        /* \"#utility.yul\":327:333   */\n      dup2\n        /* \"#utility.yul\":323:338   */\n      add\n        /* \"#utility.yul\":404:410   */\n      dup2\n        /* \"#utility.yul\":392:402   */\n      dup2\n        /* \"#utility.yul\":389:411   */\n      lt\n        /* \"#utility.yul\":368:386   */\n      0xffffffffffffffff\n        /* \"#utility.yul\":356:366   */\n      dup3\n        /* \"#utility.yul\":353:387   */\n      gt\n        /* \"#utility.yul\":350:412   */\n      or\n        /* \"#utility.yul\":347:589   */\n      iszero\n      tag_81\n      jumpi\n      shl(0xe0, 0x4e487b71)\n        /* \"#utility.yul\":442:443   */\n      0x00\n        /* \"#utility.yul\":435:523   */\n      mstore\n        /* \"#utility.yul\":546:550   */\n      0x41\n        /* \"#utility.yul\":543:544   */\n      0x04\n        /* \"#utility.yul\":536:551   */\n      mstore\n        /* \"#utility.yul\":574:578   */\n      0x24\n        /* \"#utility.yul\":571:572   */\n      0x00\n        /* \"#utility.yul\":564:579   */\n      revert\n        /* \"#utility.yul\":347:589   */\n    tag_81:\n        /* \"#utility.yul\":605:607   */\n      0x40\n        /* \"#utility.yul\":598:620   */\n      mstore\n        /* \"#utility.yul\":669:687   */\n      swap1\n      dup4\n      add\n      swap1\n        /* \"#utility.yul\":640:646   */\n      dup1\n        /* \"#utility.yul\":699:718   */\n      dup6\n      dup4\n      gt\n        /* \"#utility.yul\":696:735   */\n      iszero\n      tag_82\n      jumpi\n        /* \"#utility.yul\":731:732   */\n      0x00\n        /* \"#utility.yul\":728:729   */\n      dup1\n        /* \"#utility.yul\":721:733   */\n      revert\n        /* \"#utility.yul\":696:735   */\n    tag_82:\n        /* \"#utility.yul\":755:764   */\n      dup5\n        /* \"#utility.yul\":773:919   */\n    tag_83:\n        /* \"#utility.yul\":789:795   */\n      dup4\n        /* \"#utility.yul\":784:787   */\n      dup2\n        /* \"#utility.yul\":781:796   */\n      lt\n        /* \"#utility.yul\":773:919   */\n      iszero\n      tag_85\n      jumpi\n        /* \"#utility.yul\":857:874   */\n      dup1\n      calldataload\n        /* \"#utility.yul\":845:875   */\n      dup3\n      mstore\n        /* \"#utility.yul\":904:908   */\n      0x20\n        /* \"#utility.yul\":895:909   */\n      swap2\n      dup3\n      add\n      swap2\n        /* \"#utility.yul\":806:820   */\n      add\n        /* \"#utility.yul\":773:919   */\n      jump(tag_83)\n    tag_85:\n      pop\n        /* \"#utility.yul\":938:944   */\n      swap1\n      swap6\n        /* \"#utility.yul\":14:950   */\n      swap5\n      pop\n      pop\n      pop\n      pop\n      pop\n      jump\t// out\n        /* \"#utility.yul\":1137:1446   */\n    tag_18:\n        /* \"#utility.yul\":1196:1202   */\n      0x00\n        /* \"#utility.yul\":1249:1251   */\n      0x20\n        /* \"#utility.yul\":1237:1246   */\n      dup3\n        /* \"#utility.yul\":1228:1235   */\n      dup5\n        /* \"#utility.yul\":1224:1247   */\n      sub\n        /* \"#utility.yul\":1220:1252   */\n      slt\n        /* \"#utility.yul\":1217:1269   */\n      iszero\n      tag_88\n      jumpi\n        /* \"#utility.yul\":1265:1266   */\n      0x00\n        /* \"#utility.yul\":1262:1263   */\n      dup1\n        /* \"#utility.yul\":1255:1267   */\n      revert\n        /* \"#utility.yul\":1217:1269   */\n    tag_88:\n        /* \"#utility.yul\":1304:1313   */\n      dup2\n        /* \"#utility.yul\":1291:1314   */\n      calldataload\n      sub(shl(0xa0, 0x01), 0x01)\n        /* \"#utility.yul\":1347:1352   */\n      dup2\n        /* \"#utility.yul\":1343:1397   */\n      and\n        /* \"#utility.yul\":1336:1341   */\n      dup2\n        /* \"#utility.yul\":1333:1398   */\n      eq\n        /* \"#utility.yul\":1323:1416   */\n      tag_68\n      jumpi\n        /* \"#utility.yul\":1412:1413   */\n      0x00\n        /* \"#utility.yul\":1409:1410   */\n      dup1\n        /* \"#utility.yul\":1402:1414   */\n      revert\n        /* \"#utility.yul\":2021:2205   */\n    tag_76:\n      shl(0xe0, 0x4e487b71)\n        /* \"#utility.yul\":2070:2071   */\n      0x00\n        /* \"#utility.yul\":2063:2151   */\n      mstore\n        /* \"#utility.yul\":2170:2174   */\n      0x11\n        /* \"#utility.yul\":2167:2168   */\n      0x04\n        /* \"#utility.yul\":2160:2175   */\n      mstore\n        /* \"#utility.yul\":2194:2198   */\n      0x24\n        /* \"#utility.yul\":2191:2192   */\n      0x00\n        /* \"#utility.yul\":2184:2199   */\n      revert\n        /* \"#utility.yul\":2210:2335   */\n    tag_53:\n        /* \"#utility.yul\":2250:2254   */\n      0x00\n        /* \"#utility.yul\":2278:2279   */\n      dup3\n        /* \"#utility.yul\":2275:2276   */\n      dup3\n        /* \"#utility.yul\":2272:2280   */\n      lt\n        /* \"#utility.yul\":2269:2303   */\n      iszero\n      tag_95\n      jumpi\n        /* \"#utility.yul\":2283:2301   */\n      tag_95\n      tag_76\n      jump\t// in\n    tag_95:\n      pop\n        /* \"#utility.yul\":2320:2329   */\n      sub\n      swap1\n        /* \"#utility.yul\":2210:2335   */\n      jump\t// out\n        /* \"#utility.yul\":2340:2614   */\n    tag_55:\n        /* \"#utility.yul\":2380:2381   */\n      0x00\n        /* \"#utility.yul\":2406:2407   */\n      dup3\n        /* \"#utility.yul\":2396:2585   */\n      tag_97\n      jumpi\n      shl(0xe0, 0x4e487b71)\n        /* \"#utility.yul\":2438:2439   */\n      0x00\n        /* \"#utility.yul\":2431:2519   */\n      mstore\n        /* \"#utility.yul\":2542:2546   */\n      0x12\n        /* \"#utility.yul\":2539:2540   */\n      0x04\n        /* \"#utility.yul\":2532:2547   */\n      mstore\n        /* \"#utility.yul\":2570:2574   */\n      0x24\n        /* \"#utility.yul\":2567:2568   */\n      0x00\n        /* \"#utility.yul\":2560:2575   */\n      revert\n        /* \"#utility.yul\":2396:2585   */\n    tag_97:\n      pop\n        /* \"#utility.yul\":2599:2608   */\n      div\n      swap1\n        /* \"#utility.yul\":2340:2614   */\n      jump\t// out\n        /* \"#utility.yul\":2619:2803   */\n    tag_62:\n      shl(0xe0, 0x4e487b71)\n        /* \"#utility.yul\":2668:2669   */\n      0x00\n        /* \"#utility.yul\":2661:2749   */\n      mstore\n        /* \"#utility.yul\":2768:2772   */\n      0x32\n        /* \"#utility.yul\":2765:2766   */\n      0x04\n        /* \"#utility.yul\":2758:2773   */\n      mstore\n        /* \"#utility.yul\":2792:2796   */\n      0x24\n        /* \"#utility.yul\":2789:2790   */\n      0x00\n        /* \"#utility.yul\":2782:2797   */\n      revert\n        /* \"#utility.yul\":2808:2936   */\n    tag_64:\n        /* \"#utility.yul\":2848:2851   */\n      0x00\n        /* \"#utility.yul\":2879:2880   */\n      dup3\n        /* \"#utility.yul\":2875:2881   */\n      not\n        /* \"#utility.yul\":2872:2873   */\n      dup3\n        /* \"#utility.yul\":2869:2882   */\n      gt\n        /* \"#utility.yul\":2866:2905   */\n      iszero\n      tag_101\n      jumpi\n        /* \"#utility.yul\":2885:2903   */\n      tag_101\n      tag_76\n      jump\t// in\n    tag_101:\n      pop\n        /* \"#utility.yul\":2921:2930   */\n      add\n      swap1\n        /* \"#utility.yul\":2808:2936   */\n      jump\t// out\n        /* \"#utility.yul\":3290:3887   */\n    tag_74:\n        /* \"#utility.yul\":3402:3406   */\n      0x00\n        /* \"#utility.yul\":3431:3433   */\n      0x20\n        /* \"#utility.yul\":3460:3462   */\n      dup1\n        /* \"#utility.yul\":3449:3458   */\n      dup4\n        /* \"#utility.yul\":3442:3463   */\n      mstore\n        /* \"#utility.yul\":3492:3498   */\n      dup4\n        /* \"#utility.yul\":3486:3499   */\n      mload\n        /* \"#utility.yul\":3535:3541   */\n      dup1\n        /* \"#utility.yul\":3530:3532   */\n      dup3\n        /* \"#utility.yul\":3519:3528   */\n      dup6\n        /* \"#utility.yul\":3515:3533   */\n      add\n        /* \"#utility.yul\":3508:3542   */\n      mstore\n        /* \"#utility.yul\":3560:3561   */\n      0x00\n        /* \"#utility.yul\":3570:3710   */\n    tag_104:\n        /* \"#utility.yul\":3584:3590   */\n      dup2\n        /* \"#utility.yul\":3581:3582   */\n      dup2\n        /* \"#utility.yul\":3578:3591   */\n      lt\n        /* \"#utility.yul\":3570:3710   */\n      iszero\n      tag_106\n      jumpi\n        /* \"#utility.yul\":3679:3693   */\n      dup6\n      dup2\n      add\n        /* \"#utility.yul\":3675:3698   */\n      dup4\n      add\n        /* \"#utility.yul\":3669:3699   */\n      mload\n        /* \"#utility.yul\":3645:3662   */\n      dup6\n      dup3\n      add\n        /* \"#utility.yul\":3664:3666   */\n      0x40\n        /* \"#utility.yul\":3641:3667   */\n      add\n        /* \"#utility.yul\":3634:3700   */\n      mstore\n        /* \"#utility.yul\":3599:3609   */\n      dup3\n      add\n        /* \"#utility.yul\":3570:3710   */\n      jump(tag_104)\n    tag_106:\n        /* \"#utility.yul\":3728:3734   */\n      dup2\n        /* \"#utility.yul\":3725:3726   */\n      dup2\n        /* \"#utility.yul\":3722:3735   */\n      gt\n        /* \"#utility.yul\":3719:3810   */\n      iszero\n      tag_107\n      jumpi\n        /* \"#utility.yul\":3798:3799   */\n      0x00\n        /* \"#utility.yul\":3793:3795   */\n      0x40\n        /* \"#utility.yul\":3784:3790   */\n      dup4\n        /* \"#utility.yul\":3773:3782   */\n      dup8\n        /* \"#utility.yul\":3769:3791   */\n      add\n        /* \"#utility.yul\":3765:3796   */\n      add\n        /* \"#utility.yul\":3758:3800   */\n      mstore\n        /* \"#utility.yul\":3719:3810   */\n    tag_107:\n      pop\n        /* \"#utility.yul\":3871:3873   */\n      0x1f\n        /* \"#utility.yul\":3850:3865   */\n      add\n      not(0x1f)\n        /* \"#utility.yul\":3846:3875   */\n      and\n        /* \"#utility.yul\":3831:3876   */\n      swap3\n      swap1\n      swap3\n      add\n        /* \"#utility.yul\":3878:3880   */\n      0x40\n        /* \"#utility.yul\":3827:3881   */\n      add\n      swap4\n        /* \"#utility.yul\":3290:3887   */\n      swap3\n      pop\n      pop\n      pop\n      jump\t// out\n    stop\n    data_bc7335ef5a2766e252b0d20841b8a31e77013ede9c2a48b3b61a9c597162b79a 4c6f636b656477616c6c65743a2043616e6e6f742073756273747261637420746f74616c20616d6f756e74207769746820636c61696d61626c65\n\n    auxdata: 0xa2646970667358221220890835b8f70e3ceb20741b3b94d47686be122bc98f4971faa1b0ce0c0e4c134264736f6c634300080b0033\n}\n",
				"bytecode": {
					"linkReferences": {},
					"object": "60a060405234801561001057600080fd5b506040516105a53803806105a583398101604081905261002f91610058565b6000919091556001600160a01b0316608052600180546001600160a01b03191633179055610095565b6000806040838503121561006b57600080fd5b825160208401519092506001600160a01b038116811461008a57600080fd5b809150509250929050565b6080516104f66100af600039600060b701526104f66000f3fe608060405234801561001057600080fd5b50600436106100725760003560e01c8063893d20e811610050578063893d20e8146100f1578063b580aa9e14610102578063c8cca41e1461010b57600080fd5b80630a95606e146100775780631d77b00b1461009d57806338af3eed146100b2575b600080fd5b61008a6100853660046102fe565b610113565b6040519081526020015b60405180910390f35b6100b06100ab36600461038b565b610158565b005b6100d97f000000000000000000000000000000000000000000000000000000000000000081565b6040516001600160a01b039091168152602001610094565b6001546001600160a01b03166100d9565b61008a60025481565b6100b061019a565b600061011d6101a8565b600061012883610209565b905061014f600054826040518060600160405280603a8152602001610487603a91396102d2565b60005592915050565b6101606101a8565b600180547fffffffffffffffffffffffff0000000000000000000000000000000000000000166001600160a01b0392909216919091179055565b6101a26101a8565b42600255565b6001546001600160a01b031633146102075760405162461bcd60e51b815260206004820152600a60248201527f4e6f74205f6f776e65720000000000000000000000000000000000000000000060448201526064015b60405180910390fd5b565b60008062278d006002544261021e91906103ca565b61022891906103e1565b6003549091506000905b82811161026f576033600354116102675784816033811061025557610255610403565b60200201516102649083610419565b91505b600101610232565b5061027b826001610419565b600355806102cb5760405162461bcd60e51b815260206004820152601460248201527f4e6f7468696e6720746f20636c61696d2079657400000000000000000000000060448201526064016101fe565b9392505050565b600081848411156102f65760405162461bcd60e51b81526004016101fe9190610431565b505050900390565b600061066080838503121561031257600080fd5b83601f84011261032157600080fd5b60405181810181811067ffffffffffffffff8211171561035157634e487b7160e01b600052604160045260246000fd5b60405290830190808583111561036657600080fd5b845b83811015610380578035825260209182019101610368565b509095945050505050565b60006020828403121561039d57600080fd5b81356001600160a01b03811681146102cb57600080fd5b634e487b7160e01b600052601160045260246000fd5b6000828210156103dc576103dc6103b4565b500390565b6000826103fe57634e487b7160e01b600052601260045260246000fd5b500490565b634e487b7160e01b600052603260045260246000fd5b6000821982111561042c5761042c6103b4565b500190565b600060208083528351808285015260005b8181101561045e57858101830151858201604001528201610442565b81811115610470576000604083870101525b50601f01601f191692909201604001939250505056fe4c6f636b656477616c6c65743a2043616e6e6f742073756273747261637420746f74616c20616d6f756e74207769746820636c61696d61626c65a2646970667358221220890835b8f70e3ceb20741b3b94d47686be122bc98f4971faa1b0ce0c0e4c134264736f6c634300080b0033",
					"opcodes": "PUSH1 0xA0 PUSH1 0x40 MSTORE CALLVALUE DUP1 ISZERO PUSH2 0x10 JUMPI PUSH1 0x0 DUP1 REVERT JUMPDEST POP PUSH1 0x40 MLOAD PUSH2 0x5A5 CODESIZE SUB DUP1 PUSH2 0x5A5 DUP4 CODECOPY DUP2 ADD PUSH1 0x40 DUP2 SWAP1 MSTORE PUSH2 0x2F SWAP2 PUSH2 0x58 JUMP JUMPDEST PUSH1 0x0 SWAP2 SWAP1 SWAP2 SSTORE PUSH1 0x1 PUSH1 0x1 PUSH1 0xA0 SHL SUB AND PUSH1 0x80 MSTORE PUSH1 0x1 DUP1 SLOAD PUSH1 0x1 PUSH1 0x1 PUSH1 0xA0 SHL SUB NOT AND CALLER OR SWAP1 SSTORE PUSH2 0x95 JUMP JUMPDEST PUSH1 0x0 DUP1 PUSH1 0x40 DUP4 DUP6 SUB SLT ISZERO PUSH2 0x6B JUMPI PUSH1 0x0 DUP1 REVERT JUMPDEST DUP3 MLOAD PUSH1 0x20 DUP5 ADD MLOAD SWAP1 SWAP3 POP PUSH1 0x1 PUSH1 0x1 PUSH1 0xA0 SHL SUB DUP2 AND DUP2 EQ PUSH2 0x8A JUMPI PUSH1 0x0 DUP1 REVERT JUMPDEST DUP1 SWAP2 POP POP SWAP3 POP SWAP3 SWAP1 POP JUMP JUMPDEST PUSH1 0x80 MLOAD PUSH2 0x4F6 PUSH2 0xAF PUSH1 0x0 CODECOPY PUSH1 0x0 PUSH1 0xB7 ADD MSTORE PUSH2 0x4F6 PUSH1 0x0 RETURN INVALID PUSH1 0x80 PUSH1 0x40 MSTORE CALLVALUE DUP1 ISZERO PUSH2 0x10 JUMPI PUSH1 0x0 DUP1 REVERT JUMPDEST POP PUSH1 0x4 CALLDATASIZE LT PUSH2 0x72 JUMPI PUSH1 0x0 CALLDATALOAD PUSH1 0xE0 SHR DUP1 PUSH4 0x893D20E8 GT PUSH2 0x50 JUMPI DUP1 PUSH4 0x893D20E8 EQ PUSH2 0xF1 JUMPI DUP1 PUSH4 0xB580AA9E EQ PUSH2 0x102 JUMPI DUP1 PUSH4 0xC8CCA41E EQ PUSH2 0x10B JUMPI PUSH1 0x0 DUP1 REVERT JUMPDEST DUP1 PUSH4 0xA95606E EQ PUSH2 0x77 JUMPI DUP1 PUSH4 0x1D77B00B EQ PUSH2 0x9D JUMPI DUP1 PUSH4 0x38AF3EED EQ PUSH2 0xB2 JUMPI JUMPDEST PUSH1 0x0 DUP1 REVERT JUMPDEST PUSH2 0x8A PUSH2 0x85 CALLDATASIZE PUSH1 0x4 PUSH2 0x2FE JUMP JUMPDEST PUSH2 0x113 JUMP JUMPDEST PUSH1 0x40 MLOAD SWAP1 DUP2 MSTORE PUSH1 0x20 ADD JUMPDEST PUSH1 0x40 MLOAD DUP1 SWAP2 SUB SWAP1 RETURN JUMPDEST PUSH2 0xB0 PUSH2 0xAB CALLDATASIZE PUSH1 0x4 PUSH2 0x38B JUMP JUMPDEST PUSH2 0x158 JUMP JUMPDEST STOP JUMPDEST PUSH2 0xD9 PUSH32 0x0 DUP2 JUMP JUMPDEST PUSH1 0x40 MLOAD PUSH1 0x1 PUSH1 0x1 PUSH1 0xA0 SHL SUB SWAP1 SWAP2 AND DUP2 MSTORE PUSH1 0x20 ADD PUSH2 0x94 JUMP JUMPDEST PUSH1 0x1 SLOAD PUSH1 0x1 PUSH1 0x1 PUSH1 0xA0 SHL SUB AND PUSH2 0xD9 JUMP JUMPDEST PUSH2 0x8A PUSH1 0x2 SLOAD DUP2 JUMP JUMPDEST PUSH2 0xB0 PUSH2 0x19A JUMP JUMPDEST PUSH1 0x0 PUSH2 0x11D PUSH2 0x1A8 JUMP JUMPDEST PUSH1 0x0 PUSH2 0x128 DUP4 PUSH2 0x209 JUMP JUMPDEST SWAP1 POP PUSH2 0x14F PUSH1 0x0 SLOAD DUP3 PUSH1 0x40 MLOAD DUP1 PUSH1 0x60 ADD PUSH1 0x40 MSTORE DUP1 PUSH1 0x3A DUP2 MSTORE PUSH1 0x20 ADD PUSH2 0x487 PUSH1 0x3A SWAP2 CODECOPY PUSH2 0x2D2 JUMP JUMPDEST PUSH1 0x0 SSTORE SWAP3 SWAP2 POP POP JUMP JUMPDEST PUSH2 0x160 PUSH2 0x1A8 JUMP JUMPDEST PUSH1 0x1 DUP1 SLOAD PUSH32 0xFFFFFFFFFFFFFFFFFFFFFFFF0000000000000000000000000000000000000000 AND PUSH1 0x1 PUSH1 0x1 PUSH1 0xA0 SHL SUB SWAP3 SWAP1 SWAP3 AND SWAP2 SWAP1 SWAP2 OR SWAP1 SSTORE JUMP JUMPDEST PUSH2 0x1A2 PUSH2 0x1A8 JUMP JUMPDEST TIMESTAMP PUSH1 0x2 SSTORE JUMP JUMPDEST PUSH1 0x1 SLOAD PUSH1 0x1 PUSH1 0x1 PUSH1 0xA0 SHL SUB AND CALLER EQ PUSH2 0x207 JUMPI PUSH1 0x40 MLOAD PUSH3 0x461BCD PUSH1 0xE5 SHL DUP2 MSTORE PUSH1 0x20 PUSH1 0x4 DUP3 ADD MSTORE PUSH1 0xA PUSH1 0x24 DUP3 ADD MSTORE PUSH32 0x4E6F74205F6F776E657200000000000000000000000000000000000000000000 PUSH1 0x44 DUP3 ADD MSTORE PUSH1 0x64 ADD JUMPDEST PUSH1 0x40 MLOAD DUP1 SWAP2 SUB SWAP1 REVERT JUMPDEST JUMP JUMPDEST PUSH1 0x0 DUP1 PUSH3 0x278D00 PUSH1 0x2 SLOAD TIMESTAMP PUSH2 0x21E SWAP2 SWAP1 PUSH2 0x3CA JUMP JUMPDEST PUSH2 0x228 SWAP2 SWAP1 PUSH2 0x3E1 JUMP JUMPDEST PUSH1 0x3 SLOAD SWAP1 SWAP2 POP PUSH1 0x0 SWAP1 JUMPDEST DUP3 DUP2 GT PUSH2 0x26F JUMPI PUSH1 0x33 PUSH1 0x3 SLOAD GT PUSH2 0x267 JUMPI DUP5 DUP2 PUSH1 0x33 DUP2 LT PUSH2 0x255 JUMPI PUSH2 0x255 PUSH2 0x403 JUMP JUMPDEST PUSH1 0x20 MUL ADD MLOAD PUSH2 0x264 SWAP1 DUP4 PUSH2 0x419 JUMP JUMPDEST SWAP2 POP JUMPDEST PUSH1 0x1 ADD PUSH2 0x232 JUMP JUMPDEST POP PUSH2 0x27B DUP3 PUSH1 0x1 PUSH2 0x419 JUMP JUMPDEST PUSH1 0x3 SSTORE DUP1 PUSH2 0x2CB JUMPI PUSH1 0x40 MLOAD PUSH3 0x461BCD PUSH1 0xE5 SHL DUP2 MSTORE PUSH1 0x20 PUSH1 0x4 DUP3 ADD MSTORE PUSH1 0x14 PUSH1 0x24 DUP3 ADD MSTORE PUSH32 0x4E6F7468696E6720746F20636C61696D20796574000000000000000000000000 PUSH1 0x44 DUP3 ADD MSTORE PUSH1 0x64 ADD PUSH2 0x1FE JUMP JUMPDEST SWAP4 SWAP3 POP POP POP JUMP JUMPDEST PUSH1 0x0 DUP2 DUP5 DUP5 GT ISZERO PUSH2 0x2F6 JUMPI PUSH1 0x40 MLOAD PUSH3 0x461BCD PUSH1 0xE5 SHL DUP2 MSTORE PUSH1 0x4 ADD PUSH2 0x1FE SWAP2 SWAP1 PUSH2 0x431 JUMP JUMPDEST POP POP POP SWAP1 SUB SWAP1 JUMP JUMPDEST PUSH1 0x0 PUSH2 0x660 DUP1 DUP4 DUP6 SUB SLT ISZERO PUSH2 0x312 JUMPI PUSH1 0x0 DUP1 REVERT JUMPDEST DUP4 PUSH1 0x1F DUP5 ADD SLT PUSH2 0x321 JUMPI PUSH1 0x0 DUP1 REVERT JUMPDEST PUSH1 0x40 MLOAD DUP2 DUP2 ADD DUP2 DUP2 LT PUSH8 0xFFFFFFFFFFFFFFFF DUP3 GT OR ISZERO PUSH2 0x351 JUMPI PUSH4 0x4E487B71 PUSH1 0xE0 SHL PUSH1 0x0 MSTORE PUSH1 0x41 PUSH1 0x4 MSTORE PUSH1 0x24 PUSH1 0x0 REVERT JUMPDEST PUSH1 0x40 MSTORE SWAP1 DUP4 ADD SWAP1 DUP1 DUP6 DUP4 GT ISZERO PUSH2 0x366 JUMPI PUSH1 0x0 DUP1 REVERT JUMPDEST DUP5 JUMPDEST DUP4 DUP2 LT ISZERO PUSH2 0x380 JUMPI DUP1 CALLDATALOAD DUP3 MSTORE PUSH1 0x20 SWAP2 DUP3 ADD SWAP2 ADD PUSH2 0x368 JUMP JUMPDEST POP SWAP1 SWAP6 SWAP5 POP POP POP POP POP JUMP JUMPDEST PUSH1 0x0 PUSH1 0x20 DUP3 DUP5 SUB SLT ISZERO PUSH2 0x39D JUMPI PUSH1 0x0 DUP1 REVERT JUMPDEST DUP2 CALLDATALOAD PUSH1 0x1 PUSH1 0x1 PUSH1 0xA0 SHL SUB DUP2 AND DUP2 EQ PUSH2 0x2CB JUMPI PUSH1 0x0 DUP1 REVERT JUMPDEST PUSH4 0x4E487B71 PUSH1 0xE0 SHL PUSH1 0x0 MSTORE PUSH1 0x11 PUSH1 0x4 MSTORE PUSH1 0x24 PUSH1 0x0 REVERT JUMPDEST PUSH1 0x0 DUP3 DUP3 LT ISZERO PUSH2 0x3DC JUMPI PUSH2 0x3DC PUSH2 0x3B4 JUMP JUMPDEST POP SUB SWAP1 JUMP JUMPDEST PUSH1 0x0 DUP3 PUSH2 0x3FE JUMPI PUSH4 0x4E487B71 PUSH1 0xE0 SHL PUSH1 0x0 MSTORE PUSH1 0x12 PUSH1 0x4 MSTORE PUSH1 0x24 PUSH1 0x0 REVERT JUMPDEST POP DIV SWAP1 JUMP JUMPDEST PUSH4 0x4E487B71 PUSH1 0xE0 SHL PUSH1 0x0 MSTORE PUSH1 0x32 PUSH1 0x4 MSTORE PUSH1 0x24 PUSH1 0x0 REVERT JUMPDEST PUSH1 0x0 DUP3 NOT DUP3 GT ISZERO PUSH2 0x42C JUMPI PUSH2 0x42C PUSH2 0x3B4 JUMP JUMPDEST POP ADD SWAP1 JUMP JUMPDEST PUSH1 0x0 PUSH1 0x20 DUP1 DUP4 MSTORE DUP4 MLOAD DUP1 DUP3 DUP6 ADD MSTORE PUSH1 0x0 JUMPDEST DUP2 DUP2 LT ISZERO PUSH2 0x45E JUMPI DUP6 DUP2 ADD DUP4 ADD MLOAD DUP6 DUP3 ADD PUSH1 0x40 ADD MSTORE DUP3 ADD PUSH2 0x442 JUMP JUMPDEST DUP2 DUP2 GT ISZERO PUSH2 0x470 JUMPI PUSH1 0x0 PUSH1 0x40 DUP4 DUP8 ADD ADD MSTORE JUMPDEST POP PUSH1 0x1F ADD PUSH1 0x1F NOT AND SWAP3 SWAP1 SWAP3 ADD PUSH1 0x40 ADD SWAP4 SWAP3 POP POP POP JUMP INVALID 0x4C PUSH16 0x636B656477616C6C65743A2043616E6E PUSH16 0x742073756273747261637420746F7461 PUSH13 0x20616D6F756E74207769746820 PUSH4 0x6C61696D PUSH2 0x626C PUSH6 0xA26469706673 PC 0x22 SLT KECCAK256 DUP10 ADDMOD CALLDATALOAD 0xB8 0xF7 0xE EXTCODECOPY 0xEB KECCAK256 PUSH21 0x1B3B94D47686BE122BC98F4971FAA1B0CE0C0E4C13 TIMESTAMP PUSH5 0x736F6C6343 STOP ADDMOD SIGNEXTEND STOP CALLER "
				},
				"gasEstimates": {
					"creation": {
						"codeDepositCost": "254000",
						"executionCost": "infinite",
						"totalCost": "infinite"
					},
					"external": {
						"beneficiary()": "infinite",
						"changeTalaxAddress(address)": "26708",
						"getOwner()": "2331",
						"initiateLockedWallet()": "24457",
						"releaseClaimable(uint256[51])": "infinite",
						"startLockedWallet()": "2306"
					},
					"internal": {
						"_calculateClaimableAmount(uint256[51] memory)": "infinite",
						"_onlyTalax()": "infinite",
						"_unsafeInc(uint256)": "infinite"
					}
				},
				"methodIdentifiers": {
					"beneficiary()": "38af3eed",
					"changeTalaxAddress(address)": "1d77b00b",
					"getOwner()": "893d20e8",
					"initiateLockedWallet()": "c8cca41e",
					"releaseClaimable(uint256[51])": "0a95606e",
					"startLockedWallet()": "b580aa9e"
				}
			},
			"storageLayout": {
				"storage": [
					{
						"astId": 500,
						"contract": "contracts/Lockedwallet.sol:LockedWallet",
						"label": "_amount",
						"offset": 0,
						"slot": "0",
						"type": "t_uint256"
					},
					{
						"astId": 502,
						"contract": "contracts/Lockedwallet.sol:LockedWallet",
						"label": "_owner",
						"offset": 0,
						"slot": "1",
						"type": "t_address"
					},
					{
						"astId": 506,
						"contract": "contracts/Lockedwallet.sol:LockedWallet",
						"label": "startLockedWallet",
						"offset": 0,
						"slot": "2",
						"type": "t_uint256"
					},
					{
						"astId": 508,
						"contract": "contracts/Lockedwallet.sol:LockedWallet",
						"label": "_latestClaimMonth",
						"offset": 0,
						"slot": "3",
						"type": "t_uint256"
					}
				],
				"types": {
					"t_address": {
						"encoding": "inplace",
						"label": "address",
						"numberOfBytes": "20"
					},
					"t_uint256": {
						"encoding": "inplace",
						"label": "uint256",
						"numberOfBytes": "32"
					}
				}
			},
			"userdoc": {
				"kind": "user",
				"methods": {
					"initiateLockedWallet()": {
						"notice": "Initiate Locked Wallet"
					},
					"releaseClaimable(uint256[51])": {
						"notice": "Transfers tokens held by timelock to beneficiary."
					}
				},
				"version": 1
			}
		}
	}
}