{
	"contracts/WhiteList.sol": {
		"Whitelist": {
			"abi": [
				{
					"inputs": [],
					"stateMutability": "nonpayable",
					"type": "constructor"
				},
				{
					"inputs": [],
					"name": "Function__notAuthorized",
					"type": "error"
				},
				{
					"inputs": [],
					"name": "MainFunction__insufficientBalance",
					"type": "error"
				},
				{
					"inputs": [],
					"name": "_owner",
					"outputs": [
						{
							"internalType": "address",
							"name": "",
							"type": "address"
						}
					],
					"stateMutability": "view",
					"type": "function"
				},
				{
					"inputs": [],
					"name": "_talax",
					"outputs": [
						{
							"internalType": "address",
							"name": "",
							"type": "address"
						}
					],
					"stateMutability": "view",
					"type": "function"
				},
				{
					"inputs": [
						{
							"internalType": "address",
							"name": "user",
							"type": "address"
						},
						{
							"internalType": "uint256",
							"name": "amount",
							"type": "uint256"
						}
					],
					"name": "addBeneficiary",
					"outputs": [],
					"stateMutability": "nonpayable",
					"type": "function"
				},
				{
					"inputs": [
						{
							"internalType": "address",
							"name": "user",
							"type": "address"
						}
					],
					"name": "beneficiary",
					"outputs": [
						{
							"internalType": "uint256",
							"name": "",
							"type": "uint256"
						},
						{
							"internalType": "uint256",
							"name": "",
							"type": "uint256"
						},
						{
							"internalType": "bool",
							"name": "",
							"type": "bool"
						},
						{
							"internalType": "uint256",
							"name": "",
							"type": "uint256"
						}
					],
					"stateMutability": "view",
					"type": "function"
				},
				{
					"inputs": [
						{
							"internalType": "address",
							"name": "talax",
							"type": "address"
						}
					],
					"name": "changeTalaxAddress",
					"outputs": [],
					"stateMutability": "nonpayable",
					"type": "function"
				},
				{
					"inputs": [
						{
							"internalType": "address",
							"name": "user",
							"type": "address"
						}
					],
					"name": "deleteBeneficiary",
					"outputs": [
						{
							"internalType": "uint256",
							"name": "",
							"type": "uint256"
						}
					],
					"stateMutability": "nonpayable",
					"type": "function"
				},
				{
					"inputs": [
						{
							"internalType": "address",
							"name": "user",
							"type": "address"
						}
					],
					"name": "hasWhitelist",
					"outputs": [
						{
							"components": [
								{
									"internalType": "uint256",
									"name": "lockedAmount",
									"type": "uint256"
								},
								{
									"internalType": "uint256",
									"name": "amount",
									"type": "uint256"
								},
								{
									"internalType": "bool",
									"name": "isPhase1Claimed",
									"type": "bool"
								},
								{
									"internalType": "uint256",
									"name": "latestClaimDay",
									"type": "uint256"
								}
							],
							"internalType": "struct WhitelistStruct",
							"name": "",
							"type": "tuple"
						}
					],
					"stateMutability": "view",
					"type": "function"
				},
				{
					"inputs": [],
					"name": "initiateWhitelist",
					"outputs": [],
					"stateMutability": "nonpayable",
					"type": "function"
				},
				{
					"inputs": [],
					"name": "privateSaleAmount",
					"outputs": [
						{
							"internalType": "uint256",
							"name": "",
							"type": "uint256"
						}
					],
					"stateMutability": "view",
					"type": "function"
				},
				{
					"inputs": [],
					"name": "privateSaleUsers",
					"outputs": [
						{
							"internalType": "uint256",
							"name": "",
							"type": "uint256"
						}
					],
					"stateMutability": "view",
					"type": "function"
				},
				{
					"inputs": [
						{
							"internalType": "address",
							"name": "user",
							"type": "address"
						}
					],
					"name": "releaseClaimable",
					"outputs": [
						{
							"internalType": "uint256",
							"name": "",
							"type": "uint256"
						}
					],
					"stateMutability": "nonpayable",
					"type": "function"
				},
				{
					"inputs": [],
					"name": "startPrivateSale",
					"outputs": [
						{
							"internalType": "uint256",
							"name": "",
							"type": "uint256"
						}
					],
					"stateMutability": "view",
					"type": "function"
				}
			],
			"devdoc": {
				"kind": "dev",
				"methods": {},
				"version": 1
			},
			"evm": {
				"assembly": "    /* \"contracts/WhiteList.sol\":285:5499  contract Whitelist {... */\n  mstore(0x40, 0x80)\n    /* \"contracts/WhiteList.sol\":724:850  constructor() {... */\n  callvalue\n  dup1\n  iszero\n  tag_1\n  jumpi\n  0x00\n  dup1\n  revert\ntag_1:\n  pop\n    /* \"contracts/WhiteList.sol\":768:785  1467900000 * 1e18 */\n  0x04be37ea7317415c45800000\n    /* \"contracts/WhiteList.sol\":748:765  privateSaleAmount */\n  0x01\n    /* \"contracts/WhiteList.sol\":748:785  privateSaleAmount = 1467900000 * 1e18 */\n  sstore\n    /* \"contracts/WhiteList.sol\":795:801  _talax */\n  0x04\n    /* \"contracts/WhiteList.sol\":795:814  _talax = msg.sender */\n  dup1\n  sload\n    /* \"contracts/WhiteList.sol\":804:814  msg.sender */\n  caller\n  not(sub(shl(0xa0, 0x01), 0x01))\n    /* \"contracts/WhiteList.sol\":795:814  _talax = msg.sender */\n  swap2\n  dup3\n  and\n  dup2\n  or\n  swap1\n  swap3\n  sstore\n    /* \"contracts/WhiteList.sol\":824:830  _owner */\n  0x05\n    /* \"contracts/WhiteList.sol\":824:843  _owner = msg.sender */\n  dup1\n  sload\n  swap1\n  swap2\n  and\n  swap1\n  swap2\n  or\n  swap1\n  sstore\n    /* \"contracts/WhiteList.sol\":285:5499  contract Whitelist {... */\n  dataSize(sub_0)\n  dup1\n  dataOffset(sub_0)\n  0x00\n  codecopy\n  0x00\n  return\nstop\n\nsub_0: assembly {\n        /* \"contracts/WhiteList.sol\":285:5499  contract Whitelist {... */\n      mstore(0x40, 0x80)\n      callvalue\n      dup1\n      iszero\n      tag_1\n      jumpi\n      0x00\n      dup1\n      revert\n    tag_1:\n      pop\n      jumpi(tag_2, lt(calldatasize, 0x04))\n      shr(0xe0, calldataload(0x00))\n      dup1\n      0x81008568\n      gt\n      tag_15\n      jumpi\n      dup1\n      0x81008568\n      eq\n      tag_9\n      jumpi\n      dup1\n      0x8b2b423a\n      eq\n      tag_10\n      jumpi\n      dup1\n      0x8cdb7e8b\n      eq\n      tag_11\n      jumpi\n      dup1\n      0x96074e70\n      eq\n      tag_12\n      jumpi\n      dup1\n      0xb2bdfa7b\n      eq\n      tag_13\n      jumpi\n      dup1\n      0xefdd8796\n      eq\n      tag_14\n      jumpi\n      0x00\n      dup1\n      revert\n    tag_15:\n      dup1\n      0x5171f4\n      eq\n      tag_3\n      jumpi\n      dup1\n      0x1d77b00b\n      eq\n      tag_4\n      jumpi\n      dup1\n      0x338dbf59\n      eq\n      tag_5\n      jumpi\n      dup1\n      0x549dee0b\n      eq\n      tag_6\n      jumpi\n      dup1\n      0x5f348b4e\n      eq\n      tag_7\n      jumpi\n      dup1\n      0x7d3bca76\n      eq\n      tag_8\n      jumpi\n    tag_2:\n      0x00\n      dup1\n      revert\n        /* \"contracts/WhiteList.sol\":4925:5497  function releaseClaimable(address user)... */\n    tag_3:\n      tag_16\n      tag_17\n      calldatasize\n      0x04\n      tag_18\n      jump\t// in\n    tag_17:\n      tag_19\n      jump\t// in\n    tag_16:\n      mload(0x40)\n        /* \"#utility.yul\":529:554   */\n      swap1\n      dup2\n      mstore\n        /* \"#utility.yul\":517:519   */\n      0x20\n        /* \"#utility.yul\":502:520   */\n      add\n        /* \"contracts/WhiteList.sol\":4925:5497  function releaseClaimable(address user)... */\n    tag_20:\n      mload(0x40)\n      dup1\n      swap2\n      sub\n      swap1\n      return\n        /* \"contracts/WhiteList.sol\":1335:1428  function changeTalaxAddress(address talax) external onlyTalax {... */\n    tag_4:\n      tag_22\n      tag_23\n      calldatasize\n      0x04\n      tag_18\n      jump\t// in\n    tag_23:\n      tag_24\n      jump\t// in\n    tag_22:\n      stop\n        /* \"contracts/WhiteList.sol\":515:546  uint256 public startPrivateSale */\n    tag_5:\n      tag_16\n      sload(0x02)\n      dup2\n      jump\n        /* \"contracts/WhiteList.sol\":310:341  uint256 public privateSaleUsers */\n    tag_6:\n      tag_16\n      sload(0x00)\n      dup2\n      jump\n        /* \"contracts/WhiteList.sol\":669:690  address public _talax */\n    tag_7:\n      sload(0x04)\n      tag_31\n      swap1\n      sub(shl(0xa0, 0x01), 0x01)\n      and\n      dup2\n      jump\n    tag_31:\n      mload(0x40)\n      sub(shl(0xa0, 0x01), 0x01)\n        /* \"#utility.yul\":729:761   */\n      swap1\n      swap2\n      and\n        /* \"#utility.yul\":711:762   */\n      dup2\n      mstore\n        /* \"#utility.yul\":699:701   */\n      0x20\n        /* \"#utility.yul\":684:702   */\n      add\n        /* \"contracts/WhiteList.sol\":669:690  address public _talax */\n      tag_20\n        /* \"#utility.yul\":565:768   */\n      jump\n        /* \"contracts/WhiteList.sol\":4407:4838  function deleteBeneficiary(address user)... */\n    tag_8:\n      tag_16\n      tag_36\n      calldatasize\n      0x04\n      tag_18\n      jump\t// in\n    tag_36:\n      tag_37\n      jump\t// in\n        /* \"contracts/WhiteList.sol\":1434:1866  function beneficiary(address user)... */\n    tag_9:\n      tag_39\n      tag_40\n      calldatasize\n      0x04\n      tag_18\n      jump\t// in\n    tag_40:\n      sub(shl(0xa0, 0x01), 0x01)\n        /* \"contracts/WhiteList.sol\":1659:1677  _beneficiary[user] */\n      and\n        /* \"contracts/WhiteList.sol\":1529:1536  uint256 */\n      0x00\n        /* \"contracts/WhiteList.sol\":1659:1677  _beneficiary[user] */\n      swap1\n      dup2\n      mstore\n        /* \"contracts/WhiteList.sol\":1659:1671  _beneficiary */\n      0x03\n        /* \"contracts/WhiteList.sol\":1659:1677  _beneficiary[user] */\n      0x20\n      dup2\n      dup2\n      mstore\n      0x40\n      swap3\n      dup4\n      swap1\n      keccak256\n        /* \"contracts/WhiteList.sol\":1621:1677  WhitelistStruct memory beneficiary_ = _beneficiary[user] */\n      dup4\n      mload\n      0x80\n      dup2\n      add\n      dup6\n      mstore\n      dup2\n      sload\n      dup1\n      dup3\n      mstore\n      0x01\n      dup4\n      add\n      sload\n      swap4\n      dup3\n      add\n      dup5\n      swap1\n      mstore\n      0x02\n      dup4\n      add\n      sload\n      0xff\n      and\n      iszero\n      iszero\n      swap6\n      dup3\n      add\n      dup7\n      swap1\n      mstore\n      swap2\n      swap1\n      swap4\n      add\n      sload\n      0x60\n      swap1\n      swap4\n      add\n      dup4\n      swap1\n      mstore\n      swap4\n      swap1\n      swap3\n      swap2\n      swap1\n        /* \"contracts/WhiteList.sol\":1434:1866  function beneficiary(address user)... */\n      jump\n    tag_39:\n      0x40\n      dup1\n      mload\n        /* \"#utility.yul\":998:1023   */\n      swap5\n      dup6\n      mstore\n        /* \"#utility.yul\":1054:1056   */\n      0x20\n        /* \"#utility.yul\":1039:1057   */\n      dup6\n      add\n        /* \"#utility.yul\":1032:1066   */\n      swap4\n      swap1\n      swap4\n      mstore\n        /* \"#utility.yul\":1109:1123   */\n      swap1\n      iszero\n        /* \"#utility.yul\":1102:1124   */\n      iszero\n        /* \"#utility.yul\":1082:1100   */\n      swap2\n      dup4\n      add\n        /* \"#utility.yul\":1075:1125   */\n      swap2\n      swap1\n      swap2\n      mstore\n        /* \"#utility.yul\":1156:1158   */\n      0x60\n        /* \"#utility.yul\":1141:1159   */\n      dup3\n      add\n        /* \"#utility.yul\":1134:1168   */\n      mstore\n        /* \"#utility.yul\":985:988   */\n      0x80\n        /* \"#utility.yul\":970:989   */\n      add\n        /* \"contracts/WhiteList.sol\":1434:1866  function beneficiary(address user)... */\n      tag_20\n        /* \"#utility.yul\":773:1174   */\n      jump\n        /* \"contracts/WhiteList.sol\":348:380  uint256 public privateSaleAmount */\n    tag_10:\n      tag_16\n      sload(0x01)\n      dup2\n      jump\n        /* \"contracts/WhiteList.sol\":1977:2130  function hasWhitelist(address user)... */\n    tag_11:\n      tag_47\n      tag_48\n      calldatasize\n      0x04\n      tag_18\n      jump\t// in\n    tag_48:\n      tag_49\n      jump\t// in\n    tag_47:\n      mload(0x40)\n      tag_20\n      swap2\n      swap1\n        /* \"#utility.yul\":1406:1419   */\n      dup2\n      mload\n        /* \"#utility.yul\":1388:1420   */\n      dup2\n      mstore\n        /* \"#utility.yul\":1476:1480   */\n      0x20\n        /* \"#utility.yul\":1464:1481   */\n      dup1\n      dup4\n      add\n        /* \"#utility.yul\":1458:1482   */\n      mload\n        /* \"#utility.yul\":1436:1456   */\n      swap1\n      dup3\n      add\n        /* \"#utility.yul\":1429:1483   */\n      mstore\n        /* \"#utility.yul\":1553:1557   */\n      0x40\n        /* \"#utility.yul\":1541:1558   */\n      dup1\n      dup4\n      add\n        /* \"#utility.yul\":1535:1559   */\n      mload\n        /* \"#utility.yul\":1528:1560   */\n      iszero\n        /* \"#utility.yul\":1521:1561   */\n      iszero\n        /* \"#utility.yul\":1499:1519   */\n      swap1\n      dup3\n      add\n        /* \"#utility.yul\":1492:1562   */\n      mstore\n        /* \"#utility.yul\":1618:1622   */\n      0x60\n        /* \"#utility.yul\":1606:1623   */\n      swap2\n      dup3\n      add\n        /* \"#utility.yul\":1600:1624   */\n      mload\n        /* \"#utility.yul\":1578:1598   */\n      swap2\n      dup2\n      add\n        /* \"#utility.yul\":1571:1625   */\n      swap2\n      swap1\n      swap2\n      mstore\n        /* \"#utility.yul\":1375:1378   */\n      0x80\n        /* \"#utility.yul\":1360:1379   */\n      add\n      swap1\n        /* \"#utility.yul\":1179:1631   */\n      jump\n        /* \"contracts/WhiteList.sol\":3792:4401  function addBeneficiary(address user, uint256 amount) external onlyTalax {... */\n    tag_12:\n      tag_22\n      tag_53\n      calldatasize\n      0x04\n      tag_54\n      jump\t// in\n    tag_53:\n      tag_55\n      jump\t// in\n        /* \"contracts/WhiteList.sol\":696:717  address public _owner */\n    tag_13:\n      sload(0x05)\n      tag_31\n      swap1\n      sub(shl(0xa0, 0x01), 0x01)\n      and\n      dup2\n      jump\n        /* \"contracts/WhiteList.sol\":1872:1971  function initiateWhitelist() external onlyTalax {... */\n    tag_14:\n      tag_22\n      tag_60\n      jump\t// in\n        /* \"contracts/WhiteList.sol\":4925:5497  function releaseClaimable(address user)... */\n    tag_19:\n        /* \"contracts/WhiteList.sol\":5017:5024  uint256 */\n      0x00\n        /* \"contracts/WhiteList.sol\":1193:1205  _onlyTalax() */\n      tag_62\n        /* \"contracts/WhiteList.sol\":1193:1203  _onlyTalax */\n      tag_63\n        /* \"contracts/WhiteList.sol\":1193:1205  _onlyTalax() */\n      jump\t// in\n    tag_62:\n      sub(shl(0xa0, 0x01), 0x01)\n        /* \"contracts/WhiteList.sol\":5044:5062  _beneficiary[user] */\n      dup3\n      and\n        /* \"contracts/WhiteList.sol\":5072:5073  0 */\n      0x00\n        /* \"contracts/WhiteList.sol\":5044:5062  _beneficiary[user] */\n      swap1\n      dup2\n      mstore\n        /* \"contracts/WhiteList.sol\":5044:5056  _beneficiary */\n      0x03\n        /* \"contracts/WhiteList.sol\":5044:5062  _beneficiary[user] */\n      0x20\n      mstore\n      0x40\n      swap1\n      keccak256\n        /* \"contracts/WhiteList.sol\":5044:5069  _beneficiary[user].amount */\n      0x01\n      add\n      sload\n        /* \"contracts/WhiteList.sol\":5044:5073  _beneficiary[user].amount > 0 */\n      iszero\n        /* \"contracts/WhiteList.sol\":5040:5491  if (_beneficiary[user].amount > 0) {... */\n      tag_65\n      jumpi\n        /* \"contracts/WhiteList.sol\":5089:5118  uint256 claimableLockedAmount */\n      0x00\n        /* \"contracts/WhiteList.sol\":5121:5152  _calculateClaimableAmount(user) */\n      tag_66\n        /* \"contracts/WhiteList.sol\":5147:5151  user */\n      dup4\n        /* \"contracts/WhiteList.sol\":5121:5146  _calculateClaimableAmount */\n      tag_67\n        /* \"contracts/WhiteList.sol\":5121:5152  _calculateClaimableAmount(user) */\n      jump\t// in\n    tag_66:\n        /* \"contracts/WhiteList.sol\":5089:5152  uint256 claimableLockedAmount = _calculateClaimableAmount(user) */\n      swap1\n      pop\n        /* \"contracts/WhiteList.sol\":5171:5196  claimableLockedAmount > 0 */\n      dup1\n      iszero\n        /* \"contracts/WhiteList.sol\":5167:5442  if (claimableLockedAmount > 0) {... */\n      tag_68\n      jumpi\n      sub(shl(0xa0, 0x01), 0x01)\n        /* \"contracts/WhiteList.sol\":5264:5282  _beneficiary[user] */\n      dup4\n      and\n      0x00\n      swap1\n      dup2\n      mstore\n        /* \"contracts/WhiteList.sol\":5264:5276  _beneficiary */\n      0x03\n        /* \"contracts/WhiteList.sol\":5264:5282  _beneficiary[user] */\n      0x20\n      mstore\n      0x40\n      swap1\n      keccak256\n        /* \"contracts/WhiteList.sol\":5264:5289  _beneficiary[user].amount */\n      0x01\n      add\n      sload\n        /* \"contracts/WhiteList.sol\":5264:5333  _beneficiary[user].amount -... */\n      tag_69\n      swap1\n        /* \"contracts/WhiteList.sol\":5312:5333  claimableLockedAmount */\n      dup3\n      swap1\n        /* \"contracts/WhiteList.sol\":5264:5333  _beneficiary[user].amount -... */\n      tag_70\n      jump\t// in\n    tag_69:\n      sub(shl(0xa0, 0x01), 0x01)\n        /* \"contracts/WhiteList.sol\":5216:5234  _beneficiary[user] */\n      dup5\n      and\n      0x00\n      swap1\n      dup2\n      mstore\n        /* \"contracts/WhiteList.sol\":5216:5228  _beneficiary */\n      0x03\n        /* \"contracts/WhiteList.sol\":5216:5234  _beneficiary[user] */\n      0x20\n      mstore\n      0x40\n      swap1\n      keccak256\n        /* \"contracts/WhiteList.sol\":5216:5241  _beneficiary[user].amount */\n      0x01\n      add\n        /* \"contracts/WhiteList.sol\":5216:5333  _beneficiary[user].amount =... */\n      sstore\n        /* \"contracts/WhiteList.sol\":5359:5380  claimableLockedAmount */\n      swap1\n      pop\n        /* \"contracts/WhiteList.sol\":4925:5497  function releaseClaimable(address user)... */\n      swap2\n      swap1\n      pop\n      jump\t// out\n        /* \"contracts/WhiteList.sol\":5167:5442  if (claimableLockedAmount > 0) {... */\n    tag_68:\n      pop\n        /* \"contracts/WhiteList.sol\":5426:5427  0 */\n      0x00\n      swap3\n        /* \"contracts/WhiteList.sol\":4925:5497  function releaseClaimable(address user)... */\n      swap2\n      pop\n      pop\n      jump\t// out\n        /* \"contracts/WhiteList.sol\":5040:5491  if (_beneficiary[user].amount > 0) {... */\n    tag_65:\n      pop\n        /* \"contracts/WhiteList.sol\":5479:5480  0 */\n      0x00\n        /* \"contracts/WhiteList.sol\":5040:5491  if (_beneficiary[user].amount > 0) {... */\n    tag_72:\n        /* \"contracts/WhiteList.sol\":4925:5497  function releaseClaimable(address user)... */\n      swap2\n      swap1\n      pop\n      jump\t// out\n        /* \"contracts/WhiteList.sol\":1335:1428  function changeTalaxAddress(address talax) external onlyTalax {... */\n    tag_24:\n        /* \"contracts/WhiteList.sol\":1193:1205  _onlyTalax() */\n      tag_74\n        /* \"contracts/WhiteList.sol\":1193:1203  _onlyTalax */\n      tag_63\n        /* \"contracts/WhiteList.sol\":1193:1205  _onlyTalax() */\n      jump\t// in\n    tag_74:\n        /* \"contracts/WhiteList.sol\":1407:1413  _talax */\n      0x04\n        /* \"contracts/WhiteList.sol\":1407:1421  _talax = talax */\n      dup1\n      sload\n      not(sub(shl(0xa0, 0x01), 0x01))\n      and\n      sub(shl(0xa0, 0x01), 0x01)\n      swap3\n      swap1\n      swap3\n      and\n      swap2\n      swap1\n      swap2\n      or\n      swap1\n      sstore\n        /* \"contracts/WhiteList.sol\":1335:1428  function changeTalaxAddress(address talax) external onlyTalax {... */\n      jump\t// out\n        /* \"contracts/WhiteList.sol\":4407:4838  function deleteBeneficiary(address user)... */\n    tag_37:\n        /* \"contracts/WhiteList.sol\":4500:4507  uint256 */\n      0x00\n        /* \"contracts/WhiteList.sol\":1193:1205  _onlyTalax() */\n      tag_77\n        /* \"contracts/WhiteList.sol\":1193:1203  _onlyTalax */\n      tag_63\n        /* \"contracts/WhiteList.sol\":1193:1205  _onlyTalax() */\n      jump\t// in\n    tag_77:\n      sub(shl(0xa0, 0x01), 0x01)\n        /* \"contracts/WhiteList.sol\":4527:4545  _beneficiary[user] */\n      dup3\n      and\n        /* \"contracts/WhiteList.sol\":4555:4556  0 */\n      0x00\n        /* \"contracts/WhiteList.sol\":4527:4545  _beneficiary[user] */\n      swap1\n      dup2\n      mstore\n        /* \"contracts/WhiteList.sol\":4527:4539  _beneficiary */\n      0x03\n        /* \"contracts/WhiteList.sol\":4527:4545  _beneficiary[user] */\n      0x20\n      mstore\n      0x40\n      swap1\n      keccak256\n        /* \"contracts/WhiteList.sol\":4527:4552  _beneficiary[user].amount */\n      0x01\n      add\n      sload\n        /* \"contracts/WhiteList.sol\":4527:4556  _beneficiary[user].amount > 0 */\n      iszero\n        /* \"contracts/WhiteList.sol\":4523:4832  if (_beneficiary[user].amount > 0) {... */\n      tag_65\n      jumpi\n        /* \"contracts/WhiteList.sol\":4592:4593  1 */\n      0x01\n        /* \"contracts/WhiteList.sol\":4572:4588  privateSaleUsers */\n      0x00\n      dup1\n        /* \"contracts/WhiteList.sol\":4572:4593  privateSaleUsers -= 1 */\n      dup3\n      dup3\n      sload\n      tag_80\n      swap2\n      swap1\n      tag_70\n      jump\t// in\n    tag_80:\n      swap1\n      swap2\n      sstore\n      pop\n      pop\n      sub(shl(0xa0, 0x01), 0x01)\n        /* \"contracts/WhiteList.sol\":4628:4646  _beneficiary[user] */\n      dup3\n      and\n      0x00\n      swap1\n      dup2\n      mstore\n        /* \"contracts/WhiteList.sol\":4628:4640  _beneficiary */\n      0x03\n        /* \"contracts/WhiteList.sol\":4628:4646  _beneficiary[user] */\n      0x20\n      mstore\n      0x40\n      dup2\n      keccak256\n        /* \"contracts/WhiteList.sol\":4628:4653  _beneficiary[user].amount */\n      0x01\n      swap1\n      dup2\n      add\n      sload\n        /* \"contracts/WhiteList.sol\":4607:4653  privateSaleAmount += _beneficiary[user].amount */\n      dup2\n      sload\n        /* \"contracts/WhiteList.sol\":4628:4653  _beneficiary[user].amount */\n      swap1\n      swap3\n        /* \"contracts/WhiteList.sol\":4628:4646  _beneficiary[user] */\n      swap1\n        /* \"contracts/WhiteList.sol\":4607:4653  privateSaleAmount += _beneficiary[user].amount */\n      tag_81\n      swap1\n        /* \"contracts/WhiteList.sol\":4628:4653  _beneficiary[user].amount */\n      dup5\n      swap1\n        /* \"contracts/WhiteList.sol\":4607:4653  privateSaleAmount += _beneficiary[user].amount */\n      tag_82\n      jump\t// in\n    tag_81:\n      swap1\n      swap2\n      sstore\n      pop\n      pop\n      pop\n      sub(shl(0xa0, 0x01), 0x01)\n        /* \"contracts/WhiteList.sol\":4687:4705  _beneficiary[user] */\n      and\n        /* \"contracts/WhiteList.sol\":4667:4684  uint256 ex_amount */\n      0x00\n        /* \"contracts/WhiteList.sol\":4687:4705  _beneficiary[user] */\n      swap1\n      dup2\n      mstore\n        /* \"contracts/WhiteList.sol\":4687:4699  _beneficiary */\n      0x03\n        /* \"contracts/WhiteList.sol\":4687:4705  _beneficiary[user] */\n      0x20\n      dup2\n      swap1\n      mstore\n      0x40\n      dup3\n      keccak256\n        /* \"contracts/WhiteList.sol\":4687:4712  _beneficiary[user].amount */\n      0x01\n      dup2\n      add\n      dup1\n      sload\n        /* \"contracts/WhiteList.sol\":4727:4752  delete _beneficiary[user] */\n      dup5\n      dup4\n      sstore\n      swap1\n      dup5\n      swap1\n      sstore\n      0x02\n      dup3\n      add\n      dup1\n      sload\n      not(0xff)\n      and\n      swap1\n      sstore\n      swap2\n      add\n      swap2\n      swap1\n      swap2\n      sstore\n        /* \"contracts/WhiteList.sol\":4687:4712  _beneficiary[user].amount */\n      swap1\n        /* \"contracts/WhiteList.sol\":4925:5497  function releaseClaimable(address user)... */\n      jump\t// out\n        /* \"contracts/WhiteList.sol\":1977:2130  function hasWhitelist(address user)... */\n    tag_49:\n        /* \"contracts/WhiteList.sol\":2060:2082  WhitelistStruct memory */\n      tag_85\n      mload(0x40)\n      dup1\n      0x80\n      add\n      0x40\n      mstore\n      dup1\n      0x00\n      dup2\n      mstore\n      0x20\n      add\n      0x00\n      dup2\n      mstore\n      0x20\n      add\n      iszero(iszero(0x00))\n      dup2\n      mstore\n      0x20\n      add\n      0x00\n      dup2\n      mstore\n      pop\n      swap1\n      jump\n    tag_85:\n      pop\n      sub(shl(0xa0, 0x01), 0x01)\n        /* \"contracts/WhiteList.sol\":2105:2123  _beneficiary[user] */\n      and\n      0x00\n      swap1\n      dup2\n      mstore\n        /* \"contracts/WhiteList.sol\":2105:2117  _beneficiary */\n      0x03\n        /* \"contracts/WhiteList.sol\":2105:2123  _beneficiary[user] */\n      0x20\n      dup2\n      dup2\n      mstore\n      0x40\n      swap3\n      dup4\n      swap1\n      keccak256\n        /* \"contracts/WhiteList.sol\":2098:2123  return _beneficiary[user] */\n      dup4\n      mload\n      0x80\n      dup2\n      add\n      dup6\n      mstore\n      dup2\n      sload\n      dup2\n      mstore\n      0x01\n      dup3\n      add\n      sload\n      swap3\n      dup2\n      add\n      swap3\n      swap1\n      swap3\n      mstore\n      0x02\n      dup2\n      add\n      sload\n      0xff\n      and\n      iszero\n      iszero\n      swap4\n      dup3\n      add\n      swap4\n      swap1\n      swap4\n      mstore\n      swap2\n      add\n      sload\n      0x60\n      dup3\n      add\n      mstore\n      swap1\n        /* \"contracts/WhiteList.sol\":1977:2130  function hasWhitelist(address user)... */\n      jump\t// out\n        /* \"contracts/WhiteList.sol\":3792:4401  function addBeneficiary(address user, uint256 amount) external onlyTalax {... */\n    tag_55:\n        /* \"contracts/WhiteList.sol\":1193:1205  _onlyTalax() */\n      tag_89\n        /* \"contracts/WhiteList.sol\":1193:1203  _onlyTalax */\n      tag_63\n        /* \"contracts/WhiteList.sol\":1193:1205  _onlyTalax() */\n      jump\t// in\n    tag_89:\n        /* \"contracts/WhiteList.sol\":3967:3984  privateSaleAmount */\n      sload(0x01)\n        /* \"contracts/WhiteList.sol\":3958:3964  amount */\n      dup2\n        /* \"contracts/WhiteList.sol\":3958:3984  amount > privateSaleAmount */\n      gt\n        /* \"contracts/WhiteList.sol\":3954:4053  if (amount > privateSaleAmount) {... */\n      iszero\n      tag_91\n      jumpi\n        /* \"contracts/WhiteList.sol\":4007:4042  MainFunction__insufficientBalance() */\n      mload(0x40)\n      shl(0xe2, 0x0653d037)\n      dup2\n      mstore\n      0x04\n      add\n      mload(0x40)\n      dup1\n      swap2\n      sub\n      swap1\n      revert\n        /* \"contracts/WhiteList.sol\":3954:4053  if (amount > privateSaleAmount) {... */\n    tag_91:\n      sub(shl(0xa0, 0x01), 0x01)\n        /* \"contracts/WhiteList.sol\":4067:4085  _beneficiary[user] */\n      dup3\n      and\n        /* \"contracts/WhiteList.sol\":4095:4096  0 */\n      0x00\n        /* \"contracts/WhiteList.sol\":4067:4085  _beneficiary[user] */\n      swap1\n      dup2\n      mstore\n        /* \"contracts/WhiteList.sol\":4067:4079  _beneficiary */\n      0x03\n        /* \"contracts/WhiteList.sol\":4067:4085  _beneficiary[user] */\n      0x20\n      mstore\n      0x40\n      swap1\n      keccak256\n        /* \"contracts/WhiteList.sol\":4067:4092  _beneficiary[user].amount */\n      0x01\n      add\n      sload\n        /* \"contracts/WhiteList.sol\":4067:4096  _beneficiary[user].amount > 0 */\n      iszero\n        /* \"contracts/WhiteList.sol\":4063:4395  if (_beneficiary[user].amount > 0) {... */\n      tag_92\n      jumpi\n      sub(shl(0xa0, 0x01), 0x01)\n        /* \"contracts/WhiteList.sol\":4112:4130  _beneficiary[user] */\n      dup3\n      and\n      0x00\n      swap1\n      dup2\n      mstore\n        /* \"contracts/WhiteList.sol\":4112:4124  _beneficiary */\n      0x03\n        /* \"contracts/WhiteList.sol\":4112:4130  _beneficiary[user] */\n      0x20\n      dup2\n      swap1\n      mstore\n      0x40\n      dup3\n      keccak256\n        /* \"contracts/WhiteList.sol\":4112:4152  _beneficiary[user].lockedAmount = amount */\n      dup4\n      dup2\n      sstore\n        /* \"contracts/WhiteList.sol\":4166:4191  _beneficiary[user].amount */\n      0x01\n      dup1\n      dup3\n      add\n        /* \"contracts/WhiteList.sol\":4166:4200  _beneficiary[user].amount = amount */\n      dup6\n      swap1\n      sstore\n        /* \"contracts/WhiteList.sol\":4214:4248  _beneficiary[user].isPhase1Claimed */\n      0x02\n      dup3\n      add\n        /* \"contracts/WhiteList.sol\":4214:4256  _beneficiary[user].isPhase1Claimed = false */\n      dup1\n      sload\n      not(0xff)\n      and\n      swap1\n      sstore\n        /* \"contracts/WhiteList.sol\":4270:4303  _beneficiary[user].latestClaimDay */\n      swap2\n      add\n        /* \"contracts/WhiteList.sol\":4270:4307  _beneficiary[user].latestClaimDay = 1 */\n      dup2\n      swap1\n      sstore\n        /* \"contracts/WhiteList.sol\":4322:4343  privateSaleUsers += 1 */\n      dup2\n      sload\n        /* \"contracts/WhiteList.sol\":4166:4191  _beneficiary[user].amount */\n      swap1\n      swap2\n        /* \"contracts/WhiteList.sol\":4112:4130  _beneficiary[user] */\n      swap1\n      dup2\n      swap1\n        /* \"contracts/WhiteList.sol\":4322:4343  privateSaleUsers += 1 */\n      tag_93\n      swap1\n        /* \"contracts/WhiteList.sol\":4166:4191  _beneficiary[user].amount */\n      dup5\n      swap1\n        /* \"contracts/WhiteList.sol\":4322:4343  privateSaleUsers += 1 */\n      tag_82\n      jump\t// in\n    tag_93:\n      swap3\n      pop\n      pop\n      dup2\n      swap1\n      sstore\n      pop\n        /* \"contracts/WhiteList.sol\":4378:4384  amount */\n      dup1\n        /* \"contracts/WhiteList.sol\":4357:4374  privateSaleAmount */\n      0x01\n      0x00\n        /* \"contracts/WhiteList.sol\":4357:4384  privateSaleAmount -= amount */\n      dup3\n      dup3\n      sload\n      tag_94\n      swap2\n      swap1\n      tag_70\n      jump\t// in\n    tag_94:\n      swap1\n      swap2\n      sstore\n      pop\n      pop\n        /* \"contracts/WhiteList.sol\":4063:4395  if (_beneficiary[user].amount > 0) {... */\n    tag_92:\n        /* \"contracts/WhiteList.sol\":3792:4401  function addBeneficiary(address user, uint256 amount) external onlyTalax {... */\n      pop\n      pop\n      jump\t// out\n        /* \"contracts/WhiteList.sol\":1872:1971  function initiateWhitelist() external onlyTalax {... */\n    tag_60:\n        /* \"contracts/WhiteList.sol\":1193:1205  _onlyTalax() */\n      tag_96\n        /* \"contracts/WhiteList.sol\":1193:1203  _onlyTalax */\n      tag_63\n        /* \"contracts/WhiteList.sol\":1193:1205  _onlyTalax() */\n      jump\t// in\n    tag_96:\n        /* \"contracts/WhiteList.sol\":1949:1964  block.timestamp */\n      timestamp\n        /* \"contracts/WhiteList.sol\":1930:1946  startPrivateSale */\n      0x02\n        /* \"contracts/WhiteList.sol\":1930:1964  startPrivateSale = block.timestamp */\n      sstore\n        /* \"contracts/WhiteList.sol\":1872:1971  function initiateWhitelist() external onlyTalax {... */\n      jump\t// out\n        /* \"contracts/WhiteList.sol\":961:1156  function _onlyTalax() internal view {... */\n    tag_63:\n        /* \"contracts/WhiteList.sol\":1085:1091  _talax */\n      and(sub(shl(0xa0, 0x01), 0x01), sload(0x04))\n        /* \"contracts/WhiteList.sol\":1071:1081  msg.sender */\n      caller\n        /* \"contracts/WhiteList.sol\":1071:1091  msg.sender != _talax */\n      eq\n        /* \"contracts/WhiteList.sol\":1067:1150  if (msg.sender != _talax) {... */\n      tag_99\n      jumpi\n        /* \"contracts/WhiteList.sol\":1114:1139  Function__notAuthorized() */\n      mload(0x40)\n      shl(0xe1, 0x15a678a9)\n      dup2\n      mstore\n      0x04\n      add\n      mload(0x40)\n      dup1\n      swap2\n      sub\n      swap1\n      revert\n        /* \"contracts/WhiteList.sol\":1067:1150  if (msg.sender != _talax) {... */\n    tag_99:\n        /* \"contracts/WhiteList.sol\":961:1156  function _onlyTalax() internal view {... */\n      jump\t// out\n        /* \"contracts/WhiteList.sol\":2235:3786  function _calculateClaimableAmount(address user)... */\n    tag_67:\n        /* \"contracts/WhiteList.sol\":2318:2325  uint256 */\n      0x00\n        /* \"contracts/WhiteList.sol\":2341:2358  uint256 claimable */\n      dup1\n        /* \"contracts/WhiteList.sol\":2369:2389  uint256 lockDuration */\n      0x00\n        /* \"contracts/WhiteList.sol\":2431:2437  1 days */\n      0x015180\n        /* \"contracts/WhiteList.sol\":2411:2427  startPrivateSale */\n      sload(0x02)\n        /* \"contracts/WhiteList.sol\":2393:2408  block.timestamp */\n      timestamp\n        /* \"contracts/WhiteList.sol\":2393:2427  block.timestamp - startPrivateSale */\n      tag_101\n      swap2\n      swap1\n      tag_70\n      jump\t// in\n    tag_101:\n        /* \"contracts/WhiteList.sol\":2392:2437  (block.timestamp - startPrivateSale) / 1 days */\n      tag_102\n      swap2\n      swap1\n      tag_103\n      jump\t// in\n    tag_102:\n        /* \"contracts/WhiteList.sol\":2369:2437  uint256 lockDuration = (block.timestamp - startPrivateSale) / 1 days */\n      swap1\n      pop\n        /* \"contracts/WhiteList.sol\":2520:2527  16 * 30 */\n      0x01e0\n        /* \"contracts/WhiteList.sol\":2505:2517  lockDuration */\n      dup2\n        /* \"contracts/WhiteList.sol\":2505:2527  lockDuration < 16 * 30 */\n      lt\n        /* \"contracts/WhiteList.sol\":2501:3753  if (lockDuration < 16 * 30) {... */\n      iszero\n      tag_104\n      jumpi\n      sub(shl(0xa0, 0x01), 0x01)\n        /* \"contracts/WhiteList.sol\":2547:2565  _beneficiary[user] */\n      dup5\n      and\n      0x00\n      swap1\n      dup2\n      mstore\n        /* \"contracts/WhiteList.sol\":2547:2559  _beneficiary */\n      0x03\n        /* \"contracts/WhiteList.sol\":2547:2565  _beneficiary[user] */\n      0x20\n      mstore\n      0x40\n      swap1\n      keccak256\n        /* \"contracts/WhiteList.sol\":2547:2581  _beneficiary[user].isPhase1Claimed */\n      0x02\n      add\n      sload\n      0xff\n      and\n        /* \"contracts/WhiteList.sol\":2543:2898  if (_beneficiary[user].isPhase1Claimed == false) {... */\n      tag_105\n      jumpi\n      sub(shl(0xa0, 0x01), 0x01)\n        /* \"contracts/WhiteList.sol\":2610:2628  _beneficiary[user] */\n      dup5\n      and\n      0x00\n      swap1\n      dup2\n      mstore\n        /* \"contracts/WhiteList.sol\":2610:2622  _beneficiary */\n      0x03\n        /* \"contracts/WhiteList.sol\":2610:2628  _beneficiary[user] */\n      0x20\n      dup2\n      swap1\n      mstore\n      0x40\n      swap1\n      swap2\n      keccak256\n        /* \"contracts/WhiteList.sol\":2610:2644  _beneficiary[user].isPhase1Claimed */\n      0x02\n      dup2\n      add\n        /* \"contracts/WhiteList.sol\":2610:2651  _beneficiary[user].isPhase1Claimed = true */\n      dup1\n      sload\n      not(0xff)\n      and\n        /* \"contracts/WhiteList.sol\":2647:2651  true */\n      0x01\n        /* \"contracts/WhiteList.sol\":2610:2651  _beneficiary[user].isPhase1Claimed = true */\n      swap1\n      dup2\n      or\n      swap1\n      swap2\n      sstore\n        /* \"contracts/WhiteList.sol\":2705:2712  15 * 30 */\n      0x01c2\n        /* \"contracts/WhiteList.sol\":2669:2702  _beneficiary[user].latestClaimDay */\n      swap3\n      dup3\n      add\n        /* \"contracts/WhiteList.sol\":2669:2712  _beneficiary[user].latestClaimDay = 15 * 30 */\n      swap3\n      swap1\n      swap3\n      sstore\n        /* \"contracts/WhiteList.sol\":2865:2882  privateSaleAmount */\n      swap1\n      sload\n        /* \"contracts/WhiteList.sol\":2806:2837  _beneficiary[user].lockedAmount */\n      swap1\n      sload\n        /* \"contracts/WhiteList.sol\":2796:2837  _phase1 * _beneficiary[user].lockedAmount */\n      tag_106\n      swap1\n        /* \"contracts/WhiteList.sol\":422:437  73395000 * 1e18 */\n      0x3cb5feec27901169e00000\n        /* \"contracts/WhiteList.sol\":2796:2837  _phase1 * _beneficiary[user].lockedAmount */\n      tag_107\n      jump\t// in\n    tag_106:\n        /* \"contracts/WhiteList.sol\":2795:2882  (_phase1 * _beneficiary[user].lockedAmount) /... */\n      tag_108\n      swap2\n      swap1\n      tag_103\n      jump\t// in\n    tag_108:\n        /* \"contracts/WhiteList.sol\":2762:2883  claimable +... */\n      tag_109\n      swap1\n        /* \"contracts/WhiteList.sol\":2762:2771  claimable */\n      dup4\n        /* \"contracts/WhiteList.sol\":2762:2883  claimable +... */\n      tag_82\n      jump\t// in\n    tag_109:\n        /* \"contracts/WhiteList.sol\":2730:2883  claimable =... */\n      swap2\n      pop\n        /* \"contracts/WhiteList.sol\":2543:2898  if (_beneficiary[user].isPhase1Claimed == false) {... */\n    tag_105:\n        /* \"contracts/WhiteList.sol\":2501:3753  if (lockDuration < 16 * 30) {... */\n      jump(tag_122)\n    tag_104:\n        /* \"contracts/WhiteList.sol\":2993:3000  16 * 30 */\n      0x01e0\n        /* \"contracts/WhiteList.sol\":2977:2989  lockDuration */\n      dup2\n        /* \"contracts/WhiteList.sol\":2977:3000  lockDuration >= 16 * 30 */\n      lt\n      iszero\n        /* \"contracts/WhiteList.sol\":2977:3026  lockDuration >= 16 * 30 && lockDuration < 28 * 30 */\n      dup1\n      iszero\n      tag_111\n      jumpi\n      pop\n        /* \"contracts/WhiteList.sol\":3019:3026  28 * 30 */\n      0x0348\n        /* \"contracts/WhiteList.sol\":3004:3016  lockDuration */\n      dup2\n        /* \"contracts/WhiteList.sol\":3004:3026  lockDuration < 28 * 30 */\n      lt\n        /* \"contracts/WhiteList.sol\":2977:3026  lockDuration >= 16 * 30 && lockDuration < 28 * 30 */\n    tag_111:\n        /* \"contracts/WhiteList.sol\":2973:3753  if (lockDuration >= 16 * 30 && lockDuration < 28 * 30) {... */\n      iszero\n      tag_112\n      jumpi\n      sub(shl(0xa0, 0x01), 0x01)\n        /* \"contracts/WhiteList.sol\":3046:3064  _beneficiary[user] */\n      dup5\n      and\n      0x00\n      swap1\n      dup2\n      mstore\n        /* \"contracts/WhiteList.sol\":3046:3058  _beneficiary */\n      0x03\n        /* \"contracts/WhiteList.sol\":3046:3064  _beneficiary[user] */\n      0x20\n      mstore\n      0x40\n      swap1\n      keccak256\n        /* \"contracts/WhiteList.sol\":3046:3080  _beneficiary[user].isPhase1Claimed */\n      0x02\n      add\n      sload\n      0xff\n      and\n        /* \"contracts/WhiteList.sol\":3042:3336  if (_beneficiary[user].isPhase1Claimed == false) {... */\n      tag_113\n      jumpi\n      sub(shl(0xa0, 0x01), 0x01)\n        /* \"contracts/WhiteList.sol\":3109:3127  _beneficiary[user] */\n      dup5\n      and\n      0x00\n      swap1\n      dup2\n      mstore\n        /* \"contracts/WhiteList.sol\":3109:3121  _beneficiary */\n      0x03\n        /* \"contracts/WhiteList.sol\":3109:3127  _beneficiary[user] */\n      0x20\n      mstore\n      0x40\n      swap1\n      keccak256\n        /* \"contracts/WhiteList.sol\":3109:3143  _beneficiary[user].isPhase1Claimed */\n      0x02\n      dup2\n      add\n        /* \"contracts/WhiteList.sol\":3109:3150  _beneficiary[user].isPhase1Claimed = true */\n      dup1\n      sload\n      not(0xff)\n      and\n        /* \"contracts/WhiteList.sol\":3146:3150  true */\n      0x01\n        /* \"contracts/WhiteList.sol\":3109:3150  _beneficiary[user].isPhase1Claimed = true */\n      swap1\n      dup2\n      or\n      swap1\n      swap2\n      sstore\n        /* \"contracts/WhiteList.sol\":3303:3320  privateSaleAmount */\n      sload\n        /* \"contracts/WhiteList.sol\":3244:3275  _beneficiary[user].lockedAmount */\n      swap1\n      sload\n        /* \"contracts/WhiteList.sol\":3234:3275  _phase1 * _beneficiary[user].lockedAmount */\n      tag_114\n      swap1\n        /* \"contracts/WhiteList.sol\":422:437  73395000 * 1e18 */\n      0x3cb5feec27901169e00000\n        /* \"contracts/WhiteList.sol\":3234:3275  _phase1 * _beneficiary[user].lockedAmount */\n      tag_107\n      jump\t// in\n    tag_114:\n        /* \"contracts/WhiteList.sol\":3233:3320  (_phase1 * _beneficiary[user].lockedAmount) /... */\n      tag_115\n      swap2\n      swap1\n      tag_103\n      jump\t// in\n    tag_115:\n        /* \"contracts/WhiteList.sol\":3200:3321  claimable +... */\n      tag_116\n      swap1\n        /* \"contracts/WhiteList.sol\":3200:3209  claimable */\n      dup4\n        /* \"contracts/WhiteList.sol\":3200:3321  claimable +... */\n      tag_82\n      jump\t// in\n    tag_116:\n        /* \"contracts/WhiteList.sol\":3168:3321  claimable =... */\n      swap2\n      pop\n        /* \"contracts/WhiteList.sol\":3042:3336  if (_beneficiary[user].isPhase1Claimed == false) {... */\n    tag_113:\n      sub(shl(0xa0, 0x01), 0x01)\n        /* \"contracts/WhiteList.sol\":3408:3426  _beneficiary[user] */\n      dup5\n      and\n        /* \"contracts/WhiteList.sol\":3350:3374  uint256 sinceLatestClaim */\n      0x00\n        /* \"contracts/WhiteList.sol\":3408:3426  _beneficiary[user] */\n      swap1\n      dup2\n      mstore\n        /* \"contracts/WhiteList.sol\":3408:3420  _beneficiary */\n      0x03\n        /* \"contracts/WhiteList.sol\":3408:3426  _beneficiary[user] */\n      0x20\n      dup2\n      swap1\n      mstore\n      0x40\n      dup3\n      keccak256\n        /* \"contracts/WhiteList.sol\":3408:3441  _beneficiary[user].latestClaimDay */\n      add\n      sload\n        /* \"contracts/WhiteList.sol\":3377:3441  lockDuration -... */\n      tag_117\n      swap1\n        /* \"contracts/WhiteList.sol\":3377:3389  lockDuration */\n      dup4\n        /* \"contracts/WhiteList.sol\":3377:3441  lockDuration -... */\n      tag_70\n      jump\t// in\n    tag_117:\n      sub(shl(0xa0, 0x01), 0x01)\n        /* \"contracts/WhiteList.sol\":3455:3473  _beneficiary[user] */\n      dup7\n      and\n      0x00\n      swap1\n      dup2\n      mstore\n        /* \"contracts/WhiteList.sol\":3455:3467  _beneficiary */\n      0x03\n        /* \"contracts/WhiteList.sol\":3455:3473  _beneficiary[user] */\n      0x20\n      dup2\n      swap1\n      mstore\n      0x40\n      swap1\n      swap2\n      keccak256\n        /* \"contracts/WhiteList.sol\":3455:3488  _beneficiary[user].latestClaimDay */\n      swap1\n      dup2\n      add\n        /* \"contracts/WhiteList.sol\":3455:3503  _beneficiary[user].latestClaimDay = lockDuration */\n      dup5\n      swap1\n      sstore\n        /* \"contracts/WhiteList.sol\":3684:3701  privateSaleAmount */\n      sload(0x01)\n        /* \"contracts/WhiteList.sol\":3625:3656  _beneficiary[user].lockedAmount */\n      swap1\n      sload\n        /* \"contracts/WhiteList.sol\":3350:3441  uint256 sinceLatestClaim = lockDuration -... */\n      swap2\n      swap3\n      pop\n        /* \"contracts/WhiteList.sol\":3684:3701  privateSaleAmount */\n      swap1\n        /* \"contracts/WhiteList.sol\":3615:3656  _phase2 * _beneficiary[user].lockedAmount */\n      tag_118\n      swap1\n        /* \"contracts/WhiteList.sol\":479:493  3820562 * 1e18 */\n      0x03290914be1afb75080000\n        /* \"contracts/WhiteList.sol\":3615:3656  _phase2 * _beneficiary[user].lockedAmount */\n      tag_107\n      jump\t// in\n    tag_118:\n        /* \"contracts/WhiteList.sol\":3614:3701  (_phase2 * _beneficiary[user].lockedAmount) /... */\n      tag_119\n      swap2\n      swap1\n      tag_103\n      jump\t// in\n    tag_119:\n        /* \"contracts/WhiteList.sol\":3581:3702  claimable +... */\n      tag_120\n      swap1\n        /* \"contracts/WhiteList.sol\":3581:3590  claimable */\n      dup5\n        /* \"contracts/WhiteList.sol\":3581:3702  claimable +... */\n      tag_82\n      jump\t// in\n    tag_120:\n        /* \"contracts/WhiteList.sol\":3545:3703  sinceLatestClaim *... */\n      tag_121\n      swap1\n        /* \"contracts/WhiteList.sol\":3545:3561  sinceLatestClaim */\n      dup3\n        /* \"contracts/WhiteList.sol\":3545:3703  sinceLatestClaim *... */\n      tag_107\n      jump\t// in\n    tag_121:\n        /* \"contracts/WhiteList.sol\":3517:3703  claimable =... */\n      swap3\n      pop\n        /* \"contracts/WhiteList.sol\":3028:3714  {... */\n      pop\n        /* \"contracts/WhiteList.sol\":2973:3753  if (lockDuration >= 16 * 30 && lockDuration < 28 * 30) {... */\n      jump(tag_122)\n    tag_112:\n      pop\n        /* \"contracts/WhiteList.sol\":3741:3742  0 */\n      0x00\n      swap4\n        /* \"contracts/WhiteList.sol\":2235:3786  function _calculateClaimableAmount(address user)... */\n      swap3\n      pop\n      pop\n      pop\n      jump\t// out\n        /* \"contracts/WhiteList.sol\":2973:3753  if (lockDuration >= 16 * 30 && lockDuration < 28 * 30) {... */\n    tag_122:\n      pop\n        /* \"contracts/WhiteList.sol\":3770:3779  claimable */\n      swap3\n        /* \"contracts/WhiteList.sol\":2235:3786  function _calculateClaimableAmount(address user)... */\n      swap2\n      pop\n      pop\n      jump\t// out\n        /* \"#utility.yul\":14:187   */\n    tag_123:\n        /* \"#utility.yul\":82:102   */\n      dup1\n      calldataload\n      sub(shl(0xa0, 0x01), 0x01)\n        /* \"#utility.yul\":131:162   */\n      dup2\n      and\n        /* \"#utility.yul\":121:163   */\n      dup2\n      eq\n        /* \"#utility.yul\":111:181   */\n      tag_72\n      jumpi\n        /* \"#utility.yul\":177:178   */\n      0x00\n        /* \"#utility.yul\":174:175   */\n      dup1\n        /* \"#utility.yul\":167:179   */\n      revert\n        /* \"#utility.yul\":192:378   */\n    tag_18:\n        /* \"#utility.yul\":251:257   */\n      0x00\n        /* \"#utility.yul\":304:306   */\n      0x20\n        /* \"#utility.yul\":292:301   */\n      dup3\n        /* \"#utility.yul\":283:290   */\n      dup5\n        /* \"#utility.yul\":279:302   */\n      sub\n        /* \"#utility.yul\":275:307   */\n      slt\n        /* \"#utility.yul\":272:324   */\n      iszero\n      tag_129\n      jumpi\n        /* \"#utility.yul\":320:321   */\n      0x00\n        /* \"#utility.yul\":317:318   */\n      dup1\n        /* \"#utility.yul\":310:322   */\n      revert\n        /* \"#utility.yul\":272:324   */\n    tag_129:\n        /* \"#utility.yul\":343:372   */\n      tag_130\n        /* \"#utility.yul\":362:371   */\n      dup3\n        /* \"#utility.yul\":343:372   */\n      tag_123\n      jump\t// in\n    tag_130:\n        /* \"#utility.yul\":333:372   */\n      swap4\n        /* \"#utility.yul\":192:378   */\n      swap3\n      pop\n      pop\n      pop\n      jump\t// out\n        /* \"#utility.yul\":1636:1890   */\n    tag_54:\n        /* \"#utility.yul\":1704:1710   */\n      0x00\n        /* \"#utility.yul\":1712:1718   */\n      dup1\n        /* \"#utility.yul\":1765:1767   */\n      0x40\n        /* \"#utility.yul\":1753:1762   */\n      dup4\n        /* \"#utility.yul\":1744:1751   */\n      dup6\n        /* \"#utility.yul\":1740:1763   */\n      sub\n        /* \"#utility.yul\":1736:1768   */\n      slt\n        /* \"#utility.yul\":1733:1785   */\n      iszero\n      tag_136\n      jumpi\n        /* \"#utility.yul\":1781:1782   */\n      0x00\n        /* \"#utility.yul\":1778:1779   */\n      dup1\n        /* \"#utility.yul\":1771:1783   */\n      revert\n        /* \"#utility.yul\":1733:1785   */\n    tag_136:\n        /* \"#utility.yul\":1804:1833   */\n      tag_137\n        /* \"#utility.yul\":1823:1832   */\n      dup4\n        /* \"#utility.yul\":1804:1833   */\n      tag_123\n      jump\t// in\n    tag_137:\n        /* \"#utility.yul\":1794:1833   */\n      swap5\n        /* \"#utility.yul\":1880:1882   */\n      0x20\n        /* \"#utility.yul\":1865:1883   */\n      swap4\n      swap1\n      swap4\n      add\n        /* \"#utility.yul\":1852:1884   */\n      calldataload\n      swap4\n      pop\n      pop\n      pop\n        /* \"#utility.yul\":1636:1890   */\n      jump\t// out\n        /* \"#utility.yul\":1895:2022   */\n    tag_124:\n        /* \"#utility.yul\":1956:1966   */\n      0x4e487b71\n        /* \"#utility.yul\":1951:1954   */\n      0xe0\n        /* \"#utility.yul\":1947:1967   */\n      shl\n        /* \"#utility.yul\":1944:1945   */\n      0x00\n        /* \"#utility.yul\":1937:1968   */\n      mstore\n        /* \"#utility.yul\":1987:1991   */\n      0x11\n        /* \"#utility.yul\":1984:1985   */\n      0x04\n        /* \"#utility.yul\":1977:1992   */\n      mstore\n        /* \"#utility.yul\":2011:2015   */\n      0x24\n        /* \"#utility.yul\":2008:2009   */\n      0x00\n        /* \"#utility.yul\":2001:2016   */\n      revert\n        /* \"#utility.yul\":2027:2152   */\n    tag_70:\n        /* \"#utility.yul\":2067:2071   */\n      0x00\n        /* \"#utility.yul\":2095:2096   */\n      dup3\n        /* \"#utility.yul\":2092:2093   */\n      dup3\n        /* \"#utility.yul\":2089:2097   */\n      lt\n        /* \"#utility.yul\":2086:2120   */\n      iszero\n      tag_141\n      jumpi\n        /* \"#utility.yul\":2100:2118   */\n      tag_141\n      tag_124\n      jump\t// in\n    tag_141:\n      pop\n        /* \"#utility.yul\":2137:2146   */\n      sub\n      swap1\n        /* \"#utility.yul\":2027:2152   */\n      jump\t// out\n        /* \"#utility.yul\":2157:2285   */\n    tag_82:\n        /* \"#utility.yul\":2197:2200   */\n      0x00\n        /* \"#utility.yul\":2228:2229   */\n      dup3\n        /* \"#utility.yul\":2224:2230   */\n      not\n        /* \"#utility.yul\":2221:2222   */\n      dup3\n        /* \"#utility.yul\":2218:2231   */\n      gt\n        /* \"#utility.yul\":2215:2254   */\n      iszero\n      tag_144\n      jumpi\n        /* \"#utility.yul\":2234:2252   */\n      tag_144\n      tag_124\n      jump\t// in\n    tag_144:\n      pop\n        /* \"#utility.yul\":2270:2279   */\n      add\n      swap1\n        /* \"#utility.yul\":2157:2285   */\n      jump\t// out\n        /* \"#utility.yul\":2290:2507   */\n    tag_103:\n        /* \"#utility.yul\":2330:2331   */\n      0x00\n        /* \"#utility.yul\":2356:2357   */\n      dup3\n        /* \"#utility.yul\":2346:2478   */\n      tag_146\n      jumpi\n        /* \"#utility.yul\":2400:2410   */\n      0x4e487b71\n        /* \"#utility.yul\":2395:2398   */\n      0xe0\n        /* \"#utility.yul\":2391:2411   */\n      shl\n        /* \"#utility.yul\":2388:2389   */\n      0x00\n        /* \"#utility.yul\":2381:2412   */\n      mstore\n        /* \"#utility.yul\":2435:2439   */\n      0x12\n        /* \"#utility.yul\":2432:2433   */\n      0x04\n        /* \"#utility.yul\":2425:2440   */\n      mstore\n        /* \"#utility.yul\":2463:2467   */\n      0x24\n        /* \"#utility.yul\":2460:2461   */\n      0x00\n        /* \"#utility.yul\":2453:2468   */\n      revert\n        /* \"#utility.yul\":2346:2478   */\n    tag_146:\n      pop\n        /* \"#utility.yul\":2492:2501   */\n      div\n      swap1\n        /* \"#utility.yul\":2290:2507   */\n      jump\t// out\n        /* \"#utility.yul\":2512:2680   */\n    tag_107:\n        /* \"#utility.yul\":2552:2559   */\n      0x00\n        /* \"#utility.yul\":2618:2619   */\n      dup2\n        /* \"#utility.yul\":2614:2615   */\n      0x00\n        /* \"#utility.yul\":2610:2616   */\n      not\n        /* \"#utility.yul\":2606:2620   */\n      div\n        /* \"#utility.yul\":2603:2604   */\n      dup4\n        /* \"#utility.yul\":2600:2621   */\n      gt\n        /* \"#utility.yul\":2595:2596   */\n      dup3\n        /* \"#utility.yul\":2588:2597   */\n      iszero\n        /* \"#utility.yul\":2581:2598   */\n      iszero\n        /* \"#utility.yul\":2577:2622   */\n      and\n        /* \"#utility.yul\":2574:2645   */\n      iszero\n      tag_149\n      jumpi\n        /* \"#utility.yul\":2625:2643   */\n      tag_149\n      tag_124\n      jump\t// in\n    tag_149:\n      pop\n        /* \"#utility.yul\":2665:2674   */\n      mul\n      swap1\n        /* \"#utility.yul\":2512:2680   */\n      jump\t// out\n\n    auxdata: 0xa264697066735822122096fb00cacb88eae54b56484bdf09712d8e22a2802c766b8d4b4fe3604db406c964736f6c634300080b0033\n}\n",
				"bytecode": {
					"linkReferences": {},
					"object": "608060405234801561001057600080fd5b506b04be37ea7317415c4580000060015560048054336001600160a01b0319918216811790925560058054909116909117905561083c806100526000396000f3fe608060405234801561001057600080fd5b50600436106100b35760003560e01c8063810085681161007157806381008568146101435780638b2b423a146101ce5780638cdb7e8b146101d757806396074e701461021f578063b2bdfa7b14610232578063efdd87961461024557600080fd5b80625171f4146100b85780631d77b00b146100de578063338dbf59146100f3578063549dee0b146100fc5780635f348b4e146101055780637d3bca7614610130575b600080fd5b6100cb6100c6366004610734565b61024d565b6040519081526020015b60405180910390f35b6100f16100ec366004610734565b6102e7565b005b6100cb60025481565b6100cb60005481565b600454610118906001600160a01b031681565b6040516001600160a01b0390911681526020016100d5565b6100cb61013e366004610734565b610311565b6101a8610151366004610734565b6001600160a01b0316600090815260036020818152604092839020835160808101855281548082526001830154938201849052600283015460ff161515958201869052919093015460609093018390529390929190565b6040805194855260208501939093529015159183019190915260608201526080016100d5565b6100cb60015481565b6101ea6101e5366004610734565b6103c2565b6040516100d5919081518152602080830151908201526040808301511515908201526060918201519181019190915260800190565b6100f161022d366004610756565b61043f565b600554610118906001600160a01b031681565b6100f16104f6565b6000610257610504565b6001600160a01b038216600090815260036020526040902060010154156102de57600061028383610531565b905080156102d5576001600160a01b0383166000908152600360205260409020600101546102b2908290610796565b6001600160a01b0384166000908152600360205260409020600101559050919050565b50600092915050565b5060005b919050565b6102ef610504565b600480546001600160a01b0319166001600160a01b0392909216919091179055565b600061031b610504565b6001600160a01b038216600090815260036020526040902060010154156102de57600160008082825461034e9190610796565b90915550506001600160a01b038216600090815260036020526040812060019081015481549092906103819084906107ad565b9091555050506001600160a01b0316600090815260036020819052604082206001810180548483559084905560028201805460ff1916905591019190915590565b6103ef60405180608001604052806000815260200160008152602001600015158152602001600081525090565b506001600160a01b0316600090815260036020818152604092839020835160808101855281548152600182015492810192909252600281015460ff16151593820193909352910154606082015290565b610447610504565b60015481111561046a57604051630653d03760e21b815260040160405180910390fd5b6001600160a01b038216600090815260036020526040902060010154156104f2576001600160a01b03821660009081526003602081905260408220838155600180820185905560028201805460ff191690559101819055815490919081906104d39084906107ad565b9250508190555080600160008282546104ec9190610796565b90915550505b5050565b6104fe610504565b42600255565b6004546001600160a01b0316331461052f576040516315a678a960e11b815260040160405180910390fd5b565b600080600062015180600254426105489190610796565b61055291906107c5565b90506101e08110156105ed576001600160a01b03841660009081526003602052604090206002015460ff166105e8576001600160a01b038416600090815260036020819052604090912060028101805460ff191660019081179091556101c292820192909255905490546105d1906a3cb5feec27901169e000006107e7565b6105db91906107c5565b6105e590836107ad565b91505b610716565b6101e08110158015610600575061034881105b1561070c576001600160a01b03841660009081526003602052604090206002015460ff16610681576001600160a01b038416600090815260036020526040902060028101805460ff1916600190811790915554905461066a906a3cb5feec27901169e000006107e7565b61067491906107c5565b61067e90836107ad565b91505b6001600160a01b0384166000908152600360208190526040822001546106a79083610796565b6001600160a01b03861660009081526003602081905260409091209081018490556001549054919250906106e6906a03290914be1afb750800006107e7565b6106f091906107c5565b6106fa90846107ad565b61070490826107e7565b925050610716565b5060009392505050565b5092915050565b80356001600160a01b03811681146102e257600080fd5b60006020828403121561074657600080fd5b61074f8261071d565b9392505050565b6000806040838503121561076957600080fd5b6107728361071d565b946020939093013593505050565b634e487b7160e01b600052601160045260246000fd5b6000828210156107a8576107a8610780565b500390565b600082198211156107c0576107c0610780565b500190565b6000826107e257634e487b7160e01b600052601260045260246000fd5b500490565b600081600019048311821515161561080157610801610780565b50029056fea264697066735822122096fb00cacb88eae54b56484bdf09712d8e22a2802c766b8d4b4fe3604db406c964736f6c634300080b0033",
					"opcodes": "PUSH1 0x80 PUSH1 0x40 MSTORE CALLVALUE DUP1 ISZERO PUSH2 0x10 JUMPI PUSH1 0x0 DUP1 REVERT JUMPDEST POP PUSH12 0x4BE37EA7317415C45800000 PUSH1 0x1 SSTORE PUSH1 0x4 DUP1 SLOAD CALLER PUSH1 0x1 PUSH1 0x1 PUSH1 0xA0 SHL SUB NOT SWAP2 DUP3 AND DUP2 OR SWAP1 SWAP3 SSTORE PUSH1 0x5 DUP1 SLOAD SWAP1 SWAP2 AND SWAP1 SWAP2 OR SWAP1 SSTORE PUSH2 0x83C DUP1 PUSH2 0x52 PUSH1 0x0 CODECOPY PUSH1 0x0 RETURN INVALID PUSH1 0x80 PUSH1 0x40 MSTORE CALLVALUE DUP1 ISZERO PUSH2 0x10 JUMPI PUSH1 0x0 DUP1 REVERT JUMPDEST POP PUSH1 0x4 CALLDATASIZE LT PUSH2 0xB3 JUMPI PUSH1 0x0 CALLDATALOAD PUSH1 0xE0 SHR DUP1 PUSH4 0x81008568 GT PUSH2 0x71 JUMPI DUP1 PUSH4 0x81008568 EQ PUSH2 0x143 JUMPI DUP1 PUSH4 0x8B2B423A EQ PUSH2 0x1CE JUMPI DUP1 PUSH4 0x8CDB7E8B EQ PUSH2 0x1D7 JUMPI DUP1 PUSH4 0x96074E70 EQ PUSH2 0x21F JUMPI DUP1 PUSH4 0xB2BDFA7B EQ PUSH2 0x232 JUMPI DUP1 PUSH4 0xEFDD8796 EQ PUSH2 0x245 JUMPI PUSH1 0x0 DUP1 REVERT JUMPDEST DUP1 PUSH3 0x5171F4 EQ PUSH2 0xB8 JUMPI DUP1 PUSH4 0x1D77B00B EQ PUSH2 0xDE JUMPI DUP1 PUSH4 0x338DBF59 EQ PUSH2 0xF3 JUMPI DUP1 PUSH4 0x549DEE0B EQ PUSH2 0xFC JUMPI DUP1 PUSH4 0x5F348B4E EQ PUSH2 0x105 JUMPI DUP1 PUSH4 0x7D3BCA76 EQ PUSH2 0x130 JUMPI JUMPDEST PUSH1 0x0 DUP1 REVERT JUMPDEST PUSH2 0xCB PUSH2 0xC6 CALLDATASIZE PUSH1 0x4 PUSH2 0x734 JUMP JUMPDEST PUSH2 0x24D JUMP JUMPDEST PUSH1 0x40 MLOAD SWAP1 DUP2 MSTORE PUSH1 0x20 ADD JUMPDEST PUSH1 0x40 MLOAD DUP1 SWAP2 SUB SWAP1 RETURN JUMPDEST PUSH2 0xF1 PUSH2 0xEC CALLDATASIZE PUSH1 0x4 PUSH2 0x734 JUMP JUMPDEST PUSH2 0x2E7 JUMP JUMPDEST STOP JUMPDEST PUSH2 0xCB PUSH1 0x2 SLOAD DUP2 JUMP JUMPDEST PUSH2 0xCB PUSH1 0x0 SLOAD DUP2 JUMP JUMPDEST PUSH1 0x4 SLOAD PUSH2 0x118 SWAP1 PUSH1 0x1 PUSH1 0x1 PUSH1 0xA0 SHL SUB AND DUP2 JUMP JUMPDEST PUSH1 0x40 MLOAD PUSH1 0x1 PUSH1 0x1 PUSH1 0xA0 SHL SUB SWAP1 SWAP2 AND DUP2 MSTORE PUSH1 0x20 ADD PUSH2 0xD5 JUMP JUMPDEST PUSH2 0xCB PUSH2 0x13E CALLDATASIZE PUSH1 0x4 PUSH2 0x734 JUMP JUMPDEST PUSH2 0x311 JUMP JUMPDEST PUSH2 0x1A8 PUSH2 0x151 CALLDATASIZE PUSH1 0x4 PUSH2 0x734 JUMP JUMPDEST PUSH1 0x1 PUSH1 0x1 PUSH1 0xA0 SHL SUB AND PUSH1 0x0 SWAP1 DUP2 MSTORE PUSH1 0x3 PUSH1 0x20 DUP2 DUP2 MSTORE PUSH1 0x40 SWAP3 DUP4 SWAP1 KECCAK256 DUP4 MLOAD PUSH1 0x80 DUP2 ADD DUP6 MSTORE DUP2 SLOAD DUP1 DUP3 MSTORE PUSH1 0x1 DUP4 ADD SLOAD SWAP4 DUP3 ADD DUP5 SWAP1 MSTORE PUSH1 0x2 DUP4 ADD SLOAD PUSH1 0xFF AND ISZERO ISZERO SWAP6 DUP3 ADD DUP7 SWAP1 MSTORE SWAP2 SWAP1 SWAP4 ADD SLOAD PUSH1 0x60 SWAP1 SWAP4 ADD DUP4 SWAP1 MSTORE SWAP4 SWAP1 SWAP3 SWAP2 SWAP1 JUMP JUMPDEST PUSH1 0x40 DUP1 MLOAD SWAP5 DUP6 MSTORE PUSH1 0x20 DUP6 ADD SWAP4 SWAP1 SWAP4 MSTORE SWAP1 ISZERO ISZERO SWAP2 DUP4 ADD SWAP2 SWAP1 SWAP2 MSTORE PUSH1 0x60 DUP3 ADD MSTORE PUSH1 0x80 ADD PUSH2 0xD5 JUMP JUMPDEST PUSH2 0xCB PUSH1 0x1 SLOAD DUP2 JUMP JUMPDEST PUSH2 0x1EA PUSH2 0x1E5 CALLDATASIZE PUSH1 0x4 PUSH2 0x734 JUMP JUMPDEST PUSH2 0x3C2 JUMP JUMPDEST PUSH1 0x40 MLOAD PUSH2 0xD5 SWAP2 SWAP1 DUP2 MLOAD DUP2 MSTORE PUSH1 0x20 DUP1 DUP4 ADD MLOAD SWAP1 DUP3 ADD MSTORE PUSH1 0x40 DUP1 DUP4 ADD MLOAD ISZERO ISZERO SWAP1 DUP3 ADD MSTORE PUSH1 0x60 SWAP2 DUP3 ADD MLOAD SWAP2 DUP2 ADD SWAP2 SWAP1 SWAP2 MSTORE PUSH1 0x80 ADD SWAP1 JUMP JUMPDEST PUSH2 0xF1 PUSH2 0x22D CALLDATASIZE PUSH1 0x4 PUSH2 0x756 JUMP JUMPDEST PUSH2 0x43F JUMP JUMPDEST PUSH1 0x5 SLOAD PUSH2 0x118 SWAP1 PUSH1 0x1 PUSH1 0x1 PUSH1 0xA0 SHL SUB AND DUP2 JUMP JUMPDEST PUSH2 0xF1 PUSH2 0x4F6 JUMP JUMPDEST PUSH1 0x0 PUSH2 0x257 PUSH2 0x504 JUMP JUMPDEST PUSH1 0x1 PUSH1 0x1 PUSH1 0xA0 SHL SUB DUP3 AND PUSH1 0x0 SWAP1 DUP2 MSTORE PUSH1 0x3 PUSH1 0x20 MSTORE PUSH1 0x40 SWAP1 KECCAK256 PUSH1 0x1 ADD SLOAD ISZERO PUSH2 0x2DE JUMPI PUSH1 0x0 PUSH2 0x283 DUP4 PUSH2 0x531 JUMP JUMPDEST SWAP1 POP DUP1 ISZERO PUSH2 0x2D5 JUMPI PUSH1 0x1 PUSH1 0x1 PUSH1 0xA0 SHL SUB DUP4 AND PUSH1 0x0 SWAP1 DUP2 MSTORE PUSH1 0x3 PUSH1 0x20 MSTORE PUSH1 0x40 SWAP1 KECCAK256 PUSH1 0x1 ADD SLOAD PUSH2 0x2B2 SWAP1 DUP3 SWAP1 PUSH2 0x796 JUMP JUMPDEST PUSH1 0x1 PUSH1 0x1 PUSH1 0xA0 SHL SUB DUP5 AND PUSH1 0x0 SWAP1 DUP2 MSTORE PUSH1 0x3 PUSH1 0x20 MSTORE PUSH1 0x40 SWAP1 KECCAK256 PUSH1 0x1 ADD SSTORE SWAP1 POP SWAP2 SWAP1 POP JUMP JUMPDEST POP PUSH1 0x0 SWAP3 SWAP2 POP POP JUMP JUMPDEST POP PUSH1 0x0 JUMPDEST SWAP2 SWAP1 POP JUMP JUMPDEST PUSH2 0x2EF PUSH2 0x504 JUMP JUMPDEST PUSH1 0x4 DUP1 SLOAD PUSH1 0x1 PUSH1 0x1 PUSH1 0xA0 SHL SUB NOT AND PUSH1 0x1 PUSH1 0x1 PUSH1 0xA0 SHL SUB SWAP3 SWAP1 SWAP3 AND SWAP2 SWAP1 SWAP2 OR SWAP1 SSTORE JUMP JUMPDEST PUSH1 0x0 PUSH2 0x31B PUSH2 0x504 JUMP JUMPDEST PUSH1 0x1 PUSH1 0x1 PUSH1 0xA0 SHL SUB DUP3 AND PUSH1 0x0 SWAP1 DUP2 MSTORE PUSH1 0x3 PUSH1 0x20 MSTORE PUSH1 0x40 SWAP1 KECCAK256 PUSH1 0x1 ADD SLOAD ISZERO PUSH2 0x2DE JUMPI PUSH1 0x1 PUSH1 0x0 DUP1 DUP3 DUP3 SLOAD PUSH2 0x34E SWAP2 SWAP1 PUSH2 0x796 JUMP JUMPDEST SWAP1 SWAP2 SSTORE POP POP PUSH1 0x1 PUSH1 0x1 PUSH1 0xA0 SHL SUB DUP3 AND PUSH1 0x0 SWAP1 DUP2 MSTORE PUSH1 0x3 PUSH1 0x20 MSTORE PUSH1 0x40 DUP2 KECCAK256 PUSH1 0x1 SWAP1 DUP2 ADD SLOAD DUP2 SLOAD SWAP1 SWAP3 SWAP1 PUSH2 0x381 SWAP1 DUP5 SWAP1 PUSH2 0x7AD JUMP JUMPDEST SWAP1 SWAP2 SSTORE POP POP POP PUSH1 0x1 PUSH1 0x1 PUSH1 0xA0 SHL SUB AND PUSH1 0x0 SWAP1 DUP2 MSTORE PUSH1 0x3 PUSH1 0x20 DUP2 SWAP1 MSTORE PUSH1 0x40 DUP3 KECCAK256 PUSH1 0x1 DUP2 ADD DUP1 SLOAD DUP5 DUP4 SSTORE SWAP1 DUP5 SWAP1 SSTORE PUSH1 0x2 DUP3 ADD DUP1 SLOAD PUSH1 0xFF NOT AND SWAP1 SSTORE SWAP2 ADD SWAP2 SWAP1 SWAP2 SSTORE SWAP1 JUMP JUMPDEST PUSH2 0x3EF PUSH1 0x40 MLOAD DUP1 PUSH1 0x80 ADD PUSH1 0x40 MSTORE DUP1 PUSH1 0x0 DUP2 MSTORE PUSH1 0x20 ADD PUSH1 0x0 DUP2 MSTORE PUSH1 0x20 ADD PUSH1 0x0 ISZERO ISZERO DUP2 MSTORE PUSH1 0x20 ADD PUSH1 0x0 DUP2 MSTORE POP SWAP1 JUMP JUMPDEST POP PUSH1 0x1 PUSH1 0x1 PUSH1 0xA0 SHL SUB AND PUSH1 0x0 SWAP1 DUP2 MSTORE PUSH1 0x3 PUSH1 0x20 DUP2 DUP2 MSTORE PUSH1 0x40 SWAP3 DUP4 SWAP1 KECCAK256 DUP4 MLOAD PUSH1 0x80 DUP2 ADD DUP6 MSTORE DUP2 SLOAD DUP2 MSTORE PUSH1 0x1 DUP3 ADD SLOAD SWAP3 DUP2 ADD SWAP3 SWAP1 SWAP3 MSTORE PUSH1 0x2 DUP2 ADD SLOAD PUSH1 0xFF AND ISZERO ISZERO SWAP4 DUP3 ADD SWAP4 SWAP1 SWAP4 MSTORE SWAP2 ADD SLOAD PUSH1 0x60 DUP3 ADD MSTORE SWAP1 JUMP JUMPDEST PUSH2 0x447 PUSH2 0x504 JUMP JUMPDEST PUSH1 0x1 SLOAD DUP2 GT ISZERO PUSH2 0x46A JUMPI PUSH1 0x40 MLOAD PUSH4 0x653D037 PUSH1 0xE2 SHL DUP2 MSTORE PUSH1 0x4 ADD PUSH1 0x40 MLOAD DUP1 SWAP2 SUB SWAP1 REVERT JUMPDEST PUSH1 0x1 PUSH1 0x1 PUSH1 0xA0 SHL SUB DUP3 AND PUSH1 0x0 SWAP1 DUP2 MSTORE PUSH1 0x3 PUSH1 0x20 MSTORE PUSH1 0x40 SWAP1 KECCAK256 PUSH1 0x1 ADD SLOAD ISZERO PUSH2 0x4F2 JUMPI PUSH1 0x1 PUSH1 0x1 PUSH1 0xA0 SHL SUB DUP3 AND PUSH1 0x0 SWAP1 DUP2 MSTORE PUSH1 0x3 PUSH1 0x20 DUP2 SWAP1 MSTORE PUSH1 0x40 DUP3 KECCAK256 DUP4 DUP2 SSTORE PUSH1 0x1 DUP1 DUP3 ADD DUP6 SWAP1 SSTORE PUSH1 0x2 DUP3 ADD DUP1 SLOAD PUSH1 0xFF NOT AND SWAP1 SSTORE SWAP2 ADD DUP2 SWAP1 SSTORE DUP2 SLOAD SWAP1 SWAP2 SWAP1 DUP2 SWAP1 PUSH2 0x4D3 SWAP1 DUP5 SWAP1 PUSH2 0x7AD JUMP JUMPDEST SWAP3 POP POP DUP2 SWAP1 SSTORE POP DUP1 PUSH1 0x1 PUSH1 0x0 DUP3 DUP3 SLOAD PUSH2 0x4EC SWAP2 SWAP1 PUSH2 0x796 JUMP JUMPDEST SWAP1 SWAP2 SSTORE POP POP JUMPDEST POP POP JUMP JUMPDEST PUSH2 0x4FE PUSH2 0x504 JUMP JUMPDEST TIMESTAMP PUSH1 0x2 SSTORE JUMP JUMPDEST PUSH1 0x4 SLOAD PUSH1 0x1 PUSH1 0x1 PUSH1 0xA0 SHL SUB AND CALLER EQ PUSH2 0x52F JUMPI PUSH1 0x40 MLOAD PUSH4 0x15A678A9 PUSH1 0xE1 SHL DUP2 MSTORE PUSH1 0x4 ADD PUSH1 0x40 MLOAD DUP1 SWAP2 SUB SWAP1 REVERT JUMPDEST JUMP JUMPDEST PUSH1 0x0 DUP1 PUSH1 0x0 PUSH3 0x15180 PUSH1 0x2 SLOAD TIMESTAMP PUSH2 0x548 SWAP2 SWAP1 PUSH2 0x796 JUMP JUMPDEST PUSH2 0x552 SWAP2 SWAP1 PUSH2 0x7C5 JUMP JUMPDEST SWAP1 POP PUSH2 0x1E0 DUP2 LT ISZERO PUSH2 0x5ED JUMPI PUSH1 0x1 PUSH1 0x1 PUSH1 0xA0 SHL SUB DUP5 AND PUSH1 0x0 SWAP1 DUP2 MSTORE PUSH1 0x3 PUSH1 0x20 MSTORE PUSH1 0x40 SWAP1 KECCAK256 PUSH1 0x2 ADD SLOAD PUSH1 0xFF AND PUSH2 0x5E8 JUMPI PUSH1 0x1 PUSH1 0x1 PUSH1 0xA0 SHL SUB DUP5 AND PUSH1 0x0 SWAP1 DUP2 MSTORE PUSH1 0x3 PUSH1 0x20 DUP2 SWAP1 MSTORE PUSH1 0x40 SWAP1 SWAP2 KECCAK256 PUSH1 0x2 DUP2 ADD DUP1 SLOAD PUSH1 0xFF NOT AND PUSH1 0x1 SWAP1 DUP2 OR SWAP1 SWAP2 SSTORE PUSH2 0x1C2 SWAP3 DUP3 ADD SWAP3 SWAP1 SWAP3 SSTORE SWAP1 SLOAD SWAP1 SLOAD PUSH2 0x5D1 SWAP1 PUSH11 0x3CB5FEEC27901169E00000 PUSH2 0x7E7 JUMP JUMPDEST PUSH2 0x5DB SWAP2 SWAP1 PUSH2 0x7C5 JUMP JUMPDEST PUSH2 0x5E5 SWAP1 DUP4 PUSH2 0x7AD JUMP JUMPDEST SWAP2 POP JUMPDEST PUSH2 0x716 JUMP JUMPDEST PUSH2 0x1E0 DUP2 LT ISZERO DUP1 ISZERO PUSH2 0x600 JUMPI POP PUSH2 0x348 DUP2 LT JUMPDEST ISZERO PUSH2 0x70C JUMPI PUSH1 0x1 PUSH1 0x1 PUSH1 0xA0 SHL SUB DUP5 AND PUSH1 0x0 SWAP1 DUP2 MSTORE PUSH1 0x3 PUSH1 0x20 MSTORE PUSH1 0x40 SWAP1 KECCAK256 PUSH1 0x2 ADD SLOAD PUSH1 0xFF AND PUSH2 0x681 JUMPI PUSH1 0x1 PUSH1 0x1 PUSH1 0xA0 SHL SUB DUP5 AND PUSH1 0x0 SWAP1 DUP2 MSTORE PUSH1 0x3 PUSH1 0x20 MSTORE PUSH1 0x40 SWAP1 KECCAK256 PUSH1 0x2 DUP2 ADD DUP1 SLOAD PUSH1 0xFF NOT AND PUSH1 0x1 SWAP1 DUP2 OR SWAP1 SWAP2 SSTORE SLOAD SWAP1 SLOAD PUSH2 0x66A SWAP1 PUSH11 0x3CB5FEEC27901169E00000 PUSH2 0x7E7 JUMP JUMPDEST PUSH2 0x674 SWAP2 SWAP1 PUSH2 0x7C5 JUMP JUMPDEST PUSH2 0x67E SWAP1 DUP4 PUSH2 0x7AD JUMP JUMPDEST SWAP2 POP JUMPDEST PUSH1 0x1 PUSH1 0x1 PUSH1 0xA0 SHL SUB DUP5 AND PUSH1 0x0 SWAP1 DUP2 MSTORE PUSH1 0x3 PUSH1 0x20 DUP2 SWAP1 MSTORE PUSH1 0x40 DUP3 KECCAK256 ADD SLOAD PUSH2 0x6A7 SWAP1 DUP4 PUSH2 0x796 JUMP JUMPDEST PUSH1 0x1 PUSH1 0x1 PUSH1 0xA0 SHL SUB DUP7 AND PUSH1 0x0 SWAP1 DUP2 MSTORE PUSH1 0x3 PUSH1 0x20 DUP2 SWAP1 MSTORE PUSH1 0x40 SWAP1 SWAP2 KECCAK256 SWAP1 DUP2 ADD DUP5 SWAP1 SSTORE PUSH1 0x1 SLOAD SWAP1 SLOAD SWAP2 SWAP3 POP SWAP1 PUSH2 0x6E6 SWAP1 PUSH11 0x3290914BE1AFB75080000 PUSH2 0x7E7 JUMP JUMPDEST PUSH2 0x6F0 SWAP2 SWAP1 PUSH2 0x7C5 JUMP JUMPDEST PUSH2 0x6FA SWAP1 DUP5 PUSH2 0x7AD JUMP JUMPDEST PUSH2 0x704 SWAP1 DUP3 PUSH2 0x7E7 JUMP JUMPDEST SWAP3 POP POP PUSH2 0x716 JUMP JUMPDEST POP PUSH1 0x0 SWAP4 SWAP3 POP POP POP JUMP JUMPDEST POP SWAP3 SWAP2 POP POP JUMP JUMPDEST DUP1 CALLDATALOAD PUSH1 0x1 PUSH1 0x1 PUSH1 0xA0 SHL SUB DUP2 AND DUP2 EQ PUSH2 0x2E2 JUMPI PUSH1 0x0 DUP1 REVERT JUMPDEST PUSH1 0x0 PUSH1 0x20 DUP3 DUP5 SUB SLT ISZERO PUSH2 0x746 JUMPI PUSH1 0x0 DUP1 REVERT JUMPDEST PUSH2 0x74F DUP3 PUSH2 0x71D JUMP JUMPDEST SWAP4 SWAP3 POP POP POP JUMP JUMPDEST PUSH1 0x0 DUP1 PUSH1 0x40 DUP4 DUP6 SUB SLT ISZERO PUSH2 0x769 JUMPI PUSH1 0x0 DUP1 REVERT JUMPDEST PUSH2 0x772 DUP4 PUSH2 0x71D JUMP JUMPDEST SWAP5 PUSH1 0x20 SWAP4 SWAP1 SWAP4 ADD CALLDATALOAD SWAP4 POP POP POP JUMP JUMPDEST PUSH4 0x4E487B71 PUSH1 0xE0 SHL PUSH1 0x0 MSTORE PUSH1 0x11 PUSH1 0x4 MSTORE PUSH1 0x24 PUSH1 0x0 REVERT JUMPDEST PUSH1 0x0 DUP3 DUP3 LT ISZERO PUSH2 0x7A8 JUMPI PUSH2 0x7A8 PUSH2 0x780 JUMP JUMPDEST POP SUB SWAP1 JUMP JUMPDEST PUSH1 0x0 DUP3 NOT DUP3 GT ISZERO PUSH2 0x7C0 JUMPI PUSH2 0x7C0 PUSH2 0x780 JUMP JUMPDEST POP ADD SWAP1 JUMP JUMPDEST PUSH1 0x0 DUP3 PUSH2 0x7E2 JUMPI PUSH4 0x4E487B71 PUSH1 0xE0 SHL PUSH1 0x0 MSTORE PUSH1 0x12 PUSH1 0x4 MSTORE PUSH1 0x24 PUSH1 0x0 REVERT JUMPDEST POP DIV SWAP1 JUMP JUMPDEST PUSH1 0x0 DUP2 PUSH1 0x0 NOT DIV DUP4 GT DUP3 ISZERO ISZERO AND ISZERO PUSH2 0x801 JUMPI PUSH2 0x801 PUSH2 0x780 JUMP JUMPDEST POP MUL SWAP1 JUMP INVALID LOG2 PUSH5 0x6970667358 0x22 SLT KECCAK256 SWAP7 0xFB STOP 0xCA 0xCB DUP9 0xEA 0xE5 0x4B JUMP BASEFEE 0x4B 0xDF MULMOD PUSH18 0x2D8E22A2802C766B8D4B4FE3604DB406C964 PUSH20 0x6F6C634300080B00330000000000000000000000 "
				},
				"gasEstimates": {
					"creation": {
						"codeDepositCost": "421600",
						"executionCost": "71035",
						"totalCost": "492635"
					},
					"external": {
						"_owner()": "2425",
						"_talax()": "2426",
						"addBeneficiary(address,uint256)": "146150",
						"beneficiary(address)": "9080",
						"changeTalaxAddress(address)": "26758",
						"deleteBeneficiary(address)": "infinite",
						"hasWhitelist(address)": "9269",
						"initiateWhitelist()": "24523",
						"privateSaleAmount()": "2306",
						"privateSaleUsers()": "2351",
						"releaseClaimable(address)": "infinite",
						"startPrivateSale()": "2329"
					},
					"internal": {
						"_calculateClaimableAmount(address)": "infinite",
						"_onlyTalax()": "infinite"
					}
				},
				"methodIdentifiers": {
					"_owner()": "b2bdfa7b",
					"_talax()": "5f348b4e",
					"addBeneficiary(address,uint256)": "96074e70",
					"beneficiary(address)": "81008568",
					"changeTalaxAddress(address)": "1d77b00b",
					"deleteBeneficiary(address)": "7d3bca76",
					"hasWhitelist(address)": "8cdb7e8b",
					"initiateWhitelist()": "efdd8796",
					"privateSaleAmount()": "8b2b423a",
					"privateSaleUsers()": "549dee0b",
					"releaseClaimable(address)": "005171f4",
					"startPrivateSale()": "338dbf59"
				}
			},
			"storageLayout": {
				"storage": [
					{
						"astId": 205,
						"contract": "contracts/WhiteList.sol:Whitelist",
						"label": "privateSaleUsers",
						"offset": 0,
						"slot": "0",
						"type": "t_uint256"
					},
					{
						"astId": 207,
						"contract": "contracts/WhiteList.sol:Whitelist",
						"label": "privateSaleAmount",
						"offset": 0,
						"slot": "1",
						"type": "t_uint256"
					},
					{
						"astId": 219,
						"contract": "contracts/WhiteList.sol:Whitelist",
						"label": "startPrivateSale",
						"offset": 0,
						"slot": "2",
						"type": "t_uint256"
					},
					{
						"astId": 224,
						"contract": "contracts/WhiteList.sol:Whitelist",
						"label": "_beneficiary",
						"offset": 0,
						"slot": "3",
						"type": "t_mapping(t_address,t_struct(WhitelistStruct)10_storage)"
					},
					{
						"astId": 226,
						"contract": "contracts/WhiteList.sol:Whitelist",
						"label": "_talax",
						"offset": 0,
						"slot": "4",
						"type": "t_address"
					},
					{
						"astId": 228,
						"contract": "contracts/WhiteList.sol:Whitelist",
						"label": "_owner",
						"offset": 0,
						"slot": "5",
						"type": "t_address"
					}
				],
				"types": {
					"t_address": {
						"encoding": "inplace",
						"label": "address",
						"numberOfBytes": "20"
					},
					"t_bool": {
						"encoding": "inplace",
						"label": "bool",
						"numberOfBytes": "1"
					},
					"t_mapping(t_address,t_struct(WhitelistStruct)10_storage)": {
						"encoding": "mapping",
						"key": "t_address",
						"label": "mapping(address => struct WhitelistStruct)",
						"numberOfBytes": "32",
						"value": "t_struct(WhitelistStruct)10_storage"
					},
					"t_struct(WhitelistStruct)10_storage": {
						"encoding": "inplace",
						"label": "struct WhitelistStruct",
						"members": [
							{
								"astId": 3,
								"contract": "contracts/WhiteList.sol:Whitelist",
								"label": "lockedAmount",
								"offset": 0,
								"slot": "0",
								"type": "t_uint256"
							},
							{
								"astId": 5,
								"contract": "contracts/WhiteList.sol:Whitelist",
								"label": "amount",
								"offset": 0,
								"slot": "1",
								"type": "t_uint256"
							},
							{
								"astId": 7,
								"contract": "contracts/WhiteList.sol:Whitelist",
								"label": "isPhase1Claimed",
								"offset": 0,
								"slot": "2",
								"type": "t_bool"
							},
							{
								"astId": 9,
								"contract": "contracts/WhiteList.sol:Whitelist",
								"label": "latestClaimDay",
								"offset": 0,
								"slot": "3",
								"type": "t_uint256"
							}
						],
						"numberOfBytes": "128"
					},
					"t_uint256": {
						"encoding": "inplace",
						"label": "uint256",
						"numberOfBytes": "32"
					}
				}
			},
			"userdoc": {
				"errors": {
					"Function__notAuthorized()": [
						{
							"notice": "Error handling message for Modifier"
						}
					],
					"MainFunction__insufficientBalance()": [
						{
							"notice": "Error handling message for Main Function"
						}
					]
				},
				"kind": "user",
				"methods": {
					"releaseClaimable(address)": {
						"notice": "Transfers tokens held by timelock to beneficiary."
					}
				},
				"version": 1
			}
		}
	}
}