{
	"contracts/Lockedwallet.sol": {
		"LockedWallet": {
			"abi": [
				{
					"inputs": [
						{
							"internalType": "uint256",
							"name": "amount_",
							"type": "uint256"
						},
						{
							"internalType": "address",
							"name": "beneficiary_",
							"type": "address"
						}
					],
					"stateMutability": "nonpayable",
					"type": "constructor"
				},
				{
					"inputs": [],
					"name": "beneficiary",
					"outputs": [
						{
							"internalType": "address",
							"name": "",
							"type": "address"
						}
					],
					"stateMutability": "view",
					"type": "function"
				},
				{
					"inputs": [
						{
							"internalType": "address",
							"name": "talax",
							"type": "address"
						}
					],
					"name": "changeTalaxAddress",
					"outputs": [],
					"stateMutability": "nonpayable",
					"type": "function"
				},
				{
					"inputs": [],
					"name": "getOwner",
					"outputs": [
						{
							"internalType": "address",
							"name": "",
							"type": "address"
						}
					],
					"stateMutability": "view",
					"type": "function"
				},
				{
					"inputs": [],
					"name": "initiateLockedWallet",
					"outputs": [],
					"stateMutability": "nonpayable",
					"type": "function"
				},
				{
					"inputs": [
						{
							"internalType": "uint256[51]",
							"name": "amount",
							"type": "uint256[51]"
						}
					],
					"name": "releaseClaimable",
					"outputs": [
						{
							"internalType": "uint256",
							"name": "",
							"type": "uint256"
						}
					],
					"stateMutability": "nonpayable",
					"type": "function"
				},
				{
					"inputs": [],
					"name": "startLockedWallet",
					"outputs": [
						{
							"internalType": "uint256",
							"name": "",
							"type": "uint256"
						}
					],
					"stateMutability": "view",
					"type": "function"
				}
			],
			"devdoc": {
				"kind": "dev",
				"methods": {},
				"version": 1
			},
			"evm": {
				"assembly": "    /* \"contracts/Lockedwallet.sol\":182:2715  contract LockedWallet is ILockable {... */\n  mstore(0x40, 0xa0)\n    /* \"contracts/Lockedwallet.sol\":459:609  constructor(uint256 amount_, address beneficiary_) {... */\n  callvalue\n  dup1\n  iszero\n  tag_1\n  jumpi\n  0x00\n  dup1\n  revert\ntag_1:\n  pop\n  mload(0x40)\n  sub(codesize, bytecodeSize)\n  dup1\n  bytecodeSize\n  dup4\n  codecopy\n  dup2\n  add\n  0x40\n  dup2\n  swap1\n  mstore\n  tag_2\n  swap2\n  tag_3\n  jump\t// in\ntag_2:\n    /* \"contracts/Lockedwallet.sol\":520:527  _amount */\n  0x00\n    /* \"contracts/Lockedwallet.sol\":520:537  _amount = amount_ */\n  swap2\n  swap1\n  swap2\n  sstore\n  sub(shl(0xa0, 0x01), 0x01)\n    /* \"contracts/Lockedwallet.sol\":547:573  beneficiary = beneficiary_ */\n  and\n  0x80\n  mstore\n    /* \"contracts/Lockedwallet.sol\":583:589  _owner */\n  0x01\n    /* \"contracts/Lockedwallet.sol\":583:602  _owner = msg.sender */\n  dup1\n  sload\n  not(sub(shl(0xa0, 0x01), 0x01))\n  and\n    /* \"contracts/Lockedwallet.sol\":592:602  msg.sender */\n  caller\n    /* \"contracts/Lockedwallet.sol\":583:602  _owner = msg.sender */\n  or\n  swap1\n  sstore\n    /* \"contracts/Lockedwallet.sol\":182:2715  contract LockedWallet is ILockable {... */\n  jump(tag_7)\n    /* \"#utility.yul\":14:365   */\ntag_3:\n    /* \"#utility.yul\":93:99   */\n  0x00\n    /* \"#utility.yul\":101:107   */\n  dup1\n    /* \"#utility.yul\":154:156   */\n  0x40\n    /* \"#utility.yul\":142:151   */\n  dup4\n    /* \"#utility.yul\":133:140   */\n  dup6\n    /* \"#utility.yul\":129:152   */\n  sub\n    /* \"#utility.yul\":125:157   */\n  slt\n    /* \"#utility.yul\":122:174   */\n  iszero\n  tag_9\n  jumpi\n    /* \"#utility.yul\":170:171   */\n  0x00\n    /* \"#utility.yul\":167:168   */\n  dup1\n    /* \"#utility.yul\":160:172   */\n  revert\n    /* \"#utility.yul\":122:174   */\ntag_9:\n    /* \"#utility.yul\":193:209   */\n  dup3\n  mload\n    /* \"#utility.yul\":252:254   */\n  0x20\n    /* \"#utility.yul\":237:255   */\n  dup5\n  add\n    /* \"#utility.yul\":231:256   */\n  mload\n    /* \"#utility.yul\":193:209   */\n  swap1\n  swap3\n  pop\n  sub(shl(0xa0, 0x01), 0x01)\n    /* \"#utility.yul\":285:316   */\n  dup2\n  and\n    /* \"#utility.yul\":275:317   */\n  dup2\n  eq\n    /* \"#utility.yul\":265:335   */\n  tag_10\n  jumpi\n    /* \"#utility.yul\":331:332   */\n  0x00\n    /* \"#utility.yul\":328:329   */\n  dup1\n    /* \"#utility.yul\":321:333   */\n  revert\n    /* \"#utility.yul\":265:335   */\ntag_10:\n    /* \"#utility.yul\":354:359   */\n  dup1\n    /* \"#utility.yul\":344:359   */\n  swap2\n  pop\n  pop\n    /* \"#utility.yul\":14:365   */\n  swap3\n  pop\n  swap3\n  swap1\n  pop\n  jump\t// out\ntag_7:\n    /* \"contracts/Lockedwallet.sol\":182:2715  contract LockedWallet is ILockable {... */\n  mload(0x80)\n  codecopy(0x00, dataOffset(sub_0), dataSize(sub_0))\n  0x00\n  assignImmutable(\"0x62d593b3f307276e88778a5c8844a236ff823a094bc36579219d0f8aab42d991\")\n  return(0x00, dataSize(sub_0))\nstop\n\nsub_0: assembly {\n        /* \"contracts/Lockedwallet.sol\":182:2715  contract LockedWallet is ILockable {... */\n      mstore(0x40, 0x80)\n      callvalue\n      dup1\n      iszero\n      tag_1\n      jumpi\n      0x00\n      dup1\n      revert\n    tag_1:\n      pop\n      jumpi(tag_2, lt(calldatasize, 0x04))\n      shr(0xe0, calldataload(0x00))\n      dup1\n      0x0a95606e\n      eq\n      tag_3\n      jumpi\n      dup1\n      0x1d77b00b\n      eq\n      tag_4\n      jumpi\n      dup1\n      0x38af3eed\n      eq\n      tag_5\n      jumpi\n      dup1\n      0x893d20e8\n      eq\n      tag_6\n      jumpi\n      dup1\n      0xb580aa9e\n      eq\n      tag_7\n      jumpi\n      dup1\n      0xc8cca41e\n      eq\n      tag_8\n      jumpi\n    tag_2:\n      0x00\n      dup1\n      revert\n        /* \"contracts/Lockedwallet.sol\":2202:2713  function releaseClaimable(uint256[51] memory amount)... */\n    tag_3:\n      tag_9\n      tag_10\n      calldatasize\n      0x04\n      tag_11\n      jump\t// in\n    tag_10:\n      tag_12\n      jump\t// in\n    tag_9:\n      mload(0x40)\n        /* \"#utility.yul\":1044:1069   */\n      swap1\n      dup2\n      mstore\n        /* \"#utility.yul\":1032:1034   */\n      0x20\n        /* \"#utility.yul\":1017:1035   */\n      add\n        /* \"contracts/Lockedwallet.sol\":2202:2713  function releaseClaimable(uint256[51] memory amount)... */\n    tag_13:\n      mload(0x40)\n      dup1\n      swap2\n      sub\n      swap1\n      return\n        /* \"contracts/Lockedwallet.sol\":1082:1175  function changeTalaxAddress(address talax) external onlyTalax {... */\n    tag_4:\n      tag_15\n      tag_16\n      calldatasize\n      0x04\n      tag_17\n      jump\t// in\n    tag_16:\n      tag_18\n      jump\t// in\n    tag_15:\n      stop\n        /* \"contracts/Lockedwallet.sol\":336:372  address public immutable beneficiary */\n    tag_5:\n      tag_19\n      immutable(\"0x62d593b3f307276e88778a5c8844a236ff823a094bc36579219d0f8aab42d991\")\n      dup2\n      jump\n    tag_19:\n      mload(0x40)\n      sub(shl(0xa0, 0x01), 0x01)\n        /* \"#utility.yul\":1535:1567   */\n      swap1\n      swap2\n      and\n        /* \"#utility.yul\":1517:1568   */\n      dup2\n      mstore\n        /* \"#utility.yul\":1505:1507   */\n      0x20\n        /* \"#utility.yul\":1490:1508   */\n      add\n        /* \"contracts/Lockedwallet.sol\":336:372  address public immutable beneficiary */\n      tag_13\n        /* \"#utility.yul\":1371:1574   */\n      jump\n        /* \"contracts/Lockedwallet.sol\":823:903  function getOwner() public view returns (address) {... */\n    tag_6:\n        /* \"contracts/Lockedwallet.sol\":890:896  _owner */\n      and(sub(shl(0xa0, 0x01), 0x01), sload(0x01))\n        /* \"contracts/Lockedwallet.sol\":823:903  function getOwner() public view returns (address) {... */\n      jump(tag_19)\n        /* \"contracts/Lockedwallet.sol\":379:411  uint256 public startLockedWallet */\n    tag_7:\n      tag_9\n      sload(0x02)\n      dup2\n      jump\n        /* \"contracts/Lockedwallet.sol\":1236:1348  function initiateLockedWallet() external override onlyTalax {... */\n    tag_8:\n      tag_15\n      tag_30\n      jump\t// in\n        /* \"contracts/Lockedwallet.sol\":2202:2713  function releaseClaimable(uint256[51] memory amount)... */\n    tag_12:\n        /* \"contracts/Lockedwallet.sol\":2324:2331  uint256 */\n      0x00\n        /* \"contracts/Lockedwallet.sol\":940:952  _onlyTalax() */\n      tag_32\n        /* \"contracts/Lockedwallet.sol\":940:950  _onlyTalax */\n      tag_33\n        /* \"contracts/Lockedwallet.sol\":940:952  _onlyTalax() */\n      jump\t// in\n    tag_32:\n        /* \"contracts/Lockedwallet.sol\":2347:2376  uint256 claimableLockedAmount */\n      0x00\n        /* \"contracts/Lockedwallet.sol\":2379:2412  _calculateClaimableAmount(amount) */\n      tag_35\n        /* \"contracts/Lockedwallet.sol\":2405:2411  amount */\n      dup4\n        /* \"contracts/Lockedwallet.sol\":2379:2404  _calculateClaimableAmount */\n      tag_36\n        /* \"contracts/Lockedwallet.sol\":2379:2412  _calculateClaimableAmount(amount) */\n      jump\t// in\n    tag_35:\n        /* \"contracts/Lockedwallet.sol\":2347:2412  uint256 claimableLockedAmount = _calculateClaimableAmount(amount) */\n      swap1\n      pop\n        /* \"contracts/Lockedwallet.sol\":2515:2667  SafeMath.sub(... */\n      tag_37\n        /* \"contracts/Lockedwallet.sol\":2541:2548  _amount */\n      sload(0x00)\n        /* \"contracts/Lockedwallet.sol\":2562:2583  claimableLockedAmount */\n      dup3\n        /* \"contracts/Lockedwallet.sol\":2515:2667  SafeMath.sub(... */\n      mload(0x40)\n      dup1\n      0x60\n      add\n      0x40\n      mstore\n      dup1\n      0x3a\n      dup2\n      mstore\n      0x20\n      add\n      data_bc7335ef5a2766e252b0d20841b8a31e77013ede9c2a48b3b61a9c597162b79a\n      0x3a\n      swap2\n      codecopy\n        /* \"contracts/Lockedwallet.sol\":2515:2527  SafeMath.sub */\n      tag_38\n        /* \"contracts/Lockedwallet.sol\":2515:2667  SafeMath.sub(... */\n      jump\t// in\n    tag_37:\n        /* \"contracts/Lockedwallet.sol\":2505:2512  _amount */\n      0x00\n        /* \"contracts/Lockedwallet.sol\":2505:2667  _amount = SafeMath.sub(... */\n      sstore\n        /* \"contracts/Lockedwallet.sol\":2685:2706  claimableLockedAmount */\n      swap3\n        /* \"contracts/Lockedwallet.sol\":2202:2713  function releaseClaimable(uint256[51] memory amount)... */\n      swap2\n      pop\n      pop\n      jump\t// out\n        /* \"contracts/Lockedwallet.sol\":1082:1175  function changeTalaxAddress(address talax) external onlyTalax {... */\n    tag_18:\n        /* \"contracts/Lockedwallet.sol\":940:952  _onlyTalax() */\n      tag_40\n        /* \"contracts/Lockedwallet.sol\":940:950  _onlyTalax */\n      tag_33\n        /* \"contracts/Lockedwallet.sol\":940:952  _onlyTalax() */\n      jump\t// in\n    tag_40:\n        /* \"contracts/Lockedwallet.sol\":1154:1160  _owner */\n      0x01\n        /* \"contracts/Lockedwallet.sol\":1154:1168  _owner = talax */\n      dup1\n      sload\n      not(sub(shl(0xa0, 0x01), 0x01))\n      and\n      sub(shl(0xa0, 0x01), 0x01)\n      swap3\n      swap1\n      swap3\n      and\n      swap2\n      swap1\n      swap2\n      or\n      swap1\n      sstore\n        /* \"contracts/Lockedwallet.sol\":1082:1175  function changeTalaxAddress(address talax) external onlyTalax {... */\n      jump\t// out\n        /* \"contracts/Lockedwallet.sol\":1236:1348  function initiateLockedWallet() external override onlyTalax {... */\n    tag_30:\n        /* \"contracts/Lockedwallet.sol\":940:952  _onlyTalax() */\n      tag_44\n        /* \"contracts/Lockedwallet.sol\":940:950  _onlyTalax */\n      tag_33\n        /* \"contracts/Lockedwallet.sol\":940:952  _onlyTalax() */\n      jump\t// in\n    tag_44:\n        /* \"contracts/Lockedwallet.sol\":1326:1341  block.timestamp */\n      timestamp\n        /* \"contracts/Lockedwallet.sol\":1306:1323  startLockedWallet */\n      0x02\n        /* \"contracts/Lockedwallet.sol\":1306:1341  startLockedWallet = block.timestamp */\n      sstore\n        /* \"contracts/Lockedwallet.sol\":1236:1348  function initiateLockedWallet() external override onlyTalax {... */\n      jump\t// out\n        /* \"contracts/Lockedwallet.sol\":721:817  function _onlyTalax() internal view {... */\n    tag_33:\n        /* \"contracts/Lockedwallet.sol\":789:795  _owner */\n      and(sub(shl(0xa0, 0x01), 0x01), sload(0x01))\n        /* \"contracts/Lockedwallet.sol\":775:785  msg.sender */\n      caller\n        /* \"contracts/Lockedwallet.sol\":775:795  msg.sender == _owner */\n      eq\n        /* \"contracts/Lockedwallet.sol\":767:810  require(msg.sender == _owner, \"Not _owner\") */\n      tag_47\n      jumpi\n      mload(0x40)\n      shl(0xe5, 0x461bcd)\n      dup2\n      mstore\n        /* \"#utility.yul\":1781:1783   */\n      0x20\n        /* \"contracts/Lockedwallet.sol\":767:810  require(msg.sender == _owner, \"Not _owner\") */\n      0x04\n      dup3\n      add\n        /* \"#utility.yul\":1763:1784   */\n      mstore\n        /* \"#utility.yul\":1820:1822   */\n      0x0a\n        /* \"#utility.yul\":1800:1818   */\n      0x24\n      dup3\n      add\n        /* \"#utility.yul\":1793:1823   */\n      mstore\n      shl(0xb1, 0x2737ba102fb7bbb732b9)\n        /* \"#utility.yul\":1839:1857   */\n      0x44\n      dup3\n      add\n        /* \"#utility.yul\":1832:1872   */\n      mstore\n        /* \"#utility.yul\":1889:1907   */\n      0x64\n      add\n        /* \"contracts/Lockedwallet.sol\":767:810  require(msg.sender == _owner, \"Not _owner\") */\n    tag_48:\n      mload(0x40)\n      dup1\n      swap2\n      sub\n      swap1\n      revert\n    tag_47:\n        /* \"contracts/Lockedwallet.sol\":721:817  function _onlyTalax() internal view {... */\n      jump\t// out\n        /* \"contracts/Lockedwallet.sol\":1585:2115  function _calculateClaimableAmount(uint256[51] memory amount_)... */\n    tag_36:\n        /* \"contracts/Lockedwallet.sol\":1682:1689  uint256 */\n      0x00\n        /* \"contracts/Lockedwallet.sol\":1705:1719  uint256 months */\n      dup1\n        /* \"contracts/Lockedwallet.sol\":1762:1769  30 days */\n      0x278d00\n        /* \"contracts/Lockedwallet.sol\":1741:1758  startLockedWallet */\n      sload(0x02)\n        /* \"contracts/Lockedwallet.sol\":1723:1738  block.timestamp */\n      timestamp\n        /* \"contracts/Lockedwallet.sol\":1723:1758  block.timestamp - startLockedWallet */\n      tag_51\n      swap2\n      swap1\n      tag_52\n      jump\t// in\n    tag_51:\n        /* \"contracts/Lockedwallet.sol\":1722:1769  (block.timestamp - startLockedWallet) / 30 days */\n      tag_53\n      swap2\n      swap1\n      tag_54\n      jump\t// in\n    tag_53:\n        /* \"contracts/Lockedwallet.sol\":1824:1841  _latestClaimMonth */\n      sload(0x03)\n        /* \"contracts/Lockedwallet.sol\":1705:1769  uint256 months = (block.timestamp - startLockedWallet) / 30 days */\n      swap1\n      swap2\n      pop\n        /* \"contracts/Lockedwallet.sol\":1779:1796  uint256 claimable */\n      0x00\n      swap1\n        /* \"contracts/Lockedwallet.sol\":1807:1984  for (uint256 i = _latestClaimMonth; i <= months; i = _unsafeInc(i)) {... */\n    tag_55:\n        /* \"contracts/Lockedwallet.sol\":1848:1854  months */\n      dup3\n        /* \"contracts/Lockedwallet.sol\":1843:1844  i */\n      dup2\n        /* \"contracts/Lockedwallet.sol\":1843:1854  i <= months */\n      gt\n        /* \"contracts/Lockedwallet.sol\":1807:1984  for (uint256 i = _latestClaimMonth; i <= months; i = _unsafeInc(i)) {... */\n      tag_56\n      jumpi\n        /* \"contracts/Lockedwallet.sol\":1914:1916  51 */\n      0x33\n        /* \"contracts/Lockedwallet.sol\":1893:1910  _latestClaimMonth */\n      sload(0x03)\n        /* \"contracts/Lockedwallet.sol\":1893:1916  _latestClaimMonth <= 51 */\n      gt\n        /* \"contracts/Lockedwallet.sol\":1889:1974  if (_latestClaimMonth <= 51) {... */\n      tag_58\n      jumpi\n        /* \"contracts/Lockedwallet.sol\":1949:1956  amount_ */\n      dup5\n        /* \"contracts/Lockedwallet.sol\":1957:1958  i */\n      dup2\n        /* \"contracts/Lockedwallet.sol\":1949:1959  amount_[i] */\n      0x33\n      dup2\n      lt\n      tag_60\n      jumpi\n      tag_60\n      tag_61\n      jump\t// in\n    tag_60:\n      0x20\n      mul\n      add\n      mload\n        /* \"contracts/Lockedwallet.sol\":1936:1959  claimable += amount_[i] */\n      tag_62\n      swap1\n      dup4\n      tag_63\n      jump\t// in\n    tag_62:\n      swap2\n      pop\n        /* \"contracts/Lockedwallet.sol\":1889:1974  if (_latestClaimMonth <= 51) {... */\n    tag_58:\n        /* \"contracts/Lockedwallet.sol\":1462:1463  1 */\n      0x01\n        /* \"contracts/Lockedwallet.sol\":1458:1463  x + 1 */\n      add\n        /* \"contracts/Lockedwallet.sol\":1807:1984  for (uint256 i = _latestClaimMonth; i <= months; i = _unsafeInc(i)) {... */\n      jump(tag_55)\n    tag_56:\n      pop\n        /* \"contracts/Lockedwallet.sol\":2014:2024  months + 1 */\n      tag_66\n        /* \"contracts/Lockedwallet.sol\":2014:2020  months */\n      dup3\n        /* \"contracts/Lockedwallet.sol\":2023:2024  1 */\n      0x01\n        /* \"contracts/Lockedwallet.sol\":2014:2024  months + 1 */\n      tag_63\n      jump\t// in\n    tag_66:\n        /* \"contracts/Lockedwallet.sol\":1994:2011  _latestClaimMonth */\n      0x03\n        /* \"contracts/Lockedwallet.sol\":1994:2024  _latestClaimMonth = months + 1 */\n      sstore\n        /* \"contracts/Lockedwallet.sol\":2043:2057  claimable != 0 */\n      dup1\n        /* \"contracts/Lockedwallet.sol\":2035:2082  require(claimable != 0, \"Nothing to claim yet\") */\n      tag_67\n      jumpi\n      mload(0x40)\n      shl(0xe5, 0x461bcd)\n      dup2\n      mstore\n        /* \"#utility.yul\":2869:2871   */\n      0x20\n        /* \"contracts/Lockedwallet.sol\":2035:2082  require(claimable != 0, \"Nothing to claim yet\") */\n      0x04\n      dup3\n      add\n        /* \"#utility.yul\":2851:2872   */\n      mstore\n        /* \"#utility.yul\":2908:2910   */\n      0x14\n        /* \"#utility.yul\":2888:2906   */\n      0x24\n      dup3\n      add\n        /* \"#utility.yul\":2881:2911   */\n      mstore\n      shl(0x62, 0x139bdd1a1a5b99c81d1bc818db185a5b481e595d)\n        /* \"#utility.yul\":2927:2945   */\n      0x44\n      dup3\n      add\n        /* \"#utility.yul\":2920:2970   */\n      mstore\n        /* \"#utility.yul\":2987:3005   */\n      0x64\n      add\n        /* \"contracts/Lockedwallet.sol\":2035:2082  require(claimable != 0, \"Nothing to claim yet\") */\n      tag_48\n        /* \"#utility.yul\":2667:3011   */\n      jump\n        /* \"contracts/Lockedwallet.sol\":2035:2082  require(claimable != 0, \"Nothing to claim yet\") */\n    tag_67:\n        /* \"contracts/Lockedwallet.sol\":2099:2108  claimable */\n      swap4\n        /* \"contracts/Lockedwallet.sol\":1585:2115  function _calculateClaimableAmount(uint256[51] memory amount_)... */\n      swap3\n      pop\n      pop\n      pop\n      jump\t// out\n        /* \"@openzeppelin/contracts/utils/math/SafeMath.sol\":4945:5176  function sub(... */\n    tag_38:\n        /* \"@openzeppelin/contracts/utils/math/SafeMath.sol\":5061:5068  uint256 */\n      0x00\n        /* \"@openzeppelin/contracts/utils/math/SafeMath.sol\":5120:5132  errorMessage */\n      dup2\n        /* \"@openzeppelin/contracts/utils/math/SafeMath.sol\":5112:5118  b <= a */\n      dup5\n      dup5\n      gt\n      iszero\n        /* \"@openzeppelin/contracts/utils/math/SafeMath.sol\":5104:5133  require(b <= a, errorMessage) */\n      tag_71\n      jumpi\n      mload(0x40)\n      shl(0xe5, 0x461bcd)\n      dup2\n      mstore\n      0x04\n      add\n      tag_48\n      swap2\n      swap1\n      tag_73\n      jump\t// in\n    tag_71:\n      pop\n      pop\n      pop\n        /* \"@openzeppelin/contracts/utils/math/SafeMath.sol\":5154:5159  a - b */\n      swap1\n      sub\n      swap1\n        /* \"@openzeppelin/contracts/utils/math/SafeMath.sol\":4945:5176  function sub(... */\n      jump\t// out\n        /* \"#utility.yul\":14:893   */\n    tag_11:\n        /* \"#utility.yul\":97:103   */\n      0x00\n        /* \"#utility.yul\":128:132   */\n      0x0660\n        /* \"#utility.yul\":173:175   */\n      dup1\n        /* \"#utility.yul\":161:170   */\n      dup4\n        /* \"#utility.yul\":152:159   */\n      dup6\n        /* \"#utility.yul\":148:171   */\n      sub\n        /* \"#utility.yul\":144:176   */\n      slt\n        /* \"#utility.yul\":141:193   */\n      iszero\n      tag_78\n      jumpi\n        /* \"#utility.yul\":189:190   */\n      0x00\n        /* \"#utility.yul\":186:187   */\n      dup1\n        /* \"#utility.yul\":179:191   */\n      revert\n        /* \"#utility.yul\":141:193   */\n    tag_78:\n        /* \"#utility.yul\":238:245   */\n      dup4\n        /* \"#utility.yul\":231:235   */\n      0x1f\n        /* \"#utility.yul\":220:229   */\n      dup5\n        /* \"#utility.yul\":216:236   */\n      add\n        /* \"#utility.yul\":212:246   */\n      slt\n        /* \"#utility.yul\":202:264   */\n      tag_79\n      jumpi\n        /* \"#utility.yul\":260:261   */\n      0x00\n        /* \"#utility.yul\":257:258   */\n      dup1\n        /* \"#utility.yul\":250:262   */\n      revert\n        /* \"#utility.yul\":202:264   */\n    tag_79:\n        /* \"#utility.yul\":293:295   */\n      0x40\n        /* \"#utility.yul\":287:296   */\n      mload\n        /* \"#utility.yul\":335:337   */\n      dup2\n        /* \"#utility.yul\":327:333   */\n      dup2\n        /* \"#utility.yul\":323:338   */\n      add\n        /* \"#utility.yul\":404:410   */\n      dup2\n        /* \"#utility.yul\":392:402   */\n      dup2\n        /* \"#utility.yul\":389:411   */\n      lt\n        /* \"#utility.yul\":368:386   */\n      0xffffffffffffffff\n        /* \"#utility.yul\":356:366   */\n      dup3\n        /* \"#utility.yul\":353:387   */\n      gt\n        /* \"#utility.yul\":350:412   */\n      or\n        /* \"#utility.yul\":347:532   */\n      iszero\n      tag_80\n      jumpi\n        /* \"#utility.yul\":454:464   */\n      0x4e487b71\n        /* \"#utility.yul\":449:452   */\n      0xe0\n        /* \"#utility.yul\":445:465   */\n      shl\n        /* \"#utility.yul\":442:443   */\n      0x00\n        /* \"#utility.yul\":435:466   */\n      mstore\n        /* \"#utility.yul\":489:493   */\n      0x41\n        /* \"#utility.yul\":486:487   */\n      0x04\n        /* \"#utility.yul\":479:494   */\n      mstore\n        /* \"#utility.yul\":517:521   */\n      0x24\n        /* \"#utility.yul\":514:515   */\n      0x00\n        /* \"#utility.yul\":507:522   */\n      revert\n        /* \"#utility.yul\":347:532   */\n    tag_80:\n        /* \"#utility.yul\":548:550   */\n      0x40\n        /* \"#utility.yul\":541:563   */\n      mstore\n        /* \"#utility.yul\":612:630   */\n      swap1\n      dup4\n      add\n      swap1\n        /* \"#utility.yul\":583:589   */\n      dup1\n        /* \"#utility.yul\":642:661   */\n      dup6\n      dup4\n      gt\n        /* \"#utility.yul\":639:678   */\n      iszero\n      tag_81\n      jumpi\n        /* \"#utility.yul\":674:675   */\n      0x00\n        /* \"#utility.yul\":671:672   */\n      dup1\n        /* \"#utility.yul\":664:676   */\n      revert\n        /* \"#utility.yul\":639:678   */\n    tag_81:\n        /* \"#utility.yul\":698:707   */\n      dup5\n        /* \"#utility.yul\":716:862   */\n    tag_82:\n        /* \"#utility.yul\":732:738   */\n      dup4\n        /* \"#utility.yul\":727:730   */\n      dup2\n        /* \"#utility.yul\":724:739   */\n      lt\n        /* \"#utility.yul\":716:862   */\n      iszero\n      tag_84\n      jumpi\n        /* \"#utility.yul\":800:817   */\n      dup1\n      calldataload\n        /* \"#utility.yul\":788:818   */\n      dup3\n      mstore\n        /* \"#utility.yul\":847:851   */\n      0x20\n        /* \"#utility.yul\":838:852   */\n      swap2\n      dup3\n      add\n      swap2\n        /* \"#utility.yul\":749:763   */\n      add\n        /* \"#utility.yul\":716:862   */\n      jump(tag_82)\n    tag_84:\n      pop\n        /* \"#utility.yul\":881:887   */\n      swap1\n      swap6\n        /* \"#utility.yul\":14:893   */\n      swap5\n      pop\n      pop\n      pop\n      pop\n      pop\n      jump\t// out\n        /* \"#utility.yul\":1080:1366   */\n    tag_17:\n        /* \"#utility.yul\":1139:1145   */\n      0x00\n        /* \"#utility.yul\":1192:1194   */\n      0x20\n        /* \"#utility.yul\":1180:1189   */\n      dup3\n        /* \"#utility.yul\":1171:1178   */\n      dup5\n        /* \"#utility.yul\":1167:1190   */\n      sub\n        /* \"#utility.yul\":1163:1195   */\n      slt\n        /* \"#utility.yul\":1160:1212   */\n      iszero\n      tag_87\n      jumpi\n        /* \"#utility.yul\":1208:1209   */\n      0x00\n        /* \"#utility.yul\":1205:1206   */\n      dup1\n        /* \"#utility.yul\":1198:1210   */\n      revert\n        /* \"#utility.yul\":1160:1212   */\n    tag_87:\n        /* \"#utility.yul\":1234:1257   */\n      dup2\n      calldataload\n      sub(shl(0xa0, 0x01), 0x01)\n        /* \"#utility.yul\":1286:1317   */\n      dup2\n      and\n        /* \"#utility.yul\":1276:1318   */\n      dup2\n      eq\n        /* \"#utility.yul\":1266:1336   */\n      tag_67\n      jumpi\n        /* \"#utility.yul\":1332:1333   */\n      0x00\n        /* \"#utility.yul\":1329:1330   */\n      dup1\n        /* \"#utility.yul\":1322:1334   */\n      revert\n        /* \"#utility.yul\":1918:2045   */\n    tag_75:\n        /* \"#utility.yul\":1979:1989   */\n      0x4e487b71\n        /* \"#utility.yul\":1974:1977   */\n      0xe0\n        /* \"#utility.yul\":1970:1990   */\n      shl\n        /* \"#utility.yul\":1967:1968   */\n      0x00\n        /* \"#utility.yul\":1960:1991   */\n      mstore\n        /* \"#utility.yul\":2010:2014   */\n      0x11\n        /* \"#utility.yul\":2007:2008   */\n      0x04\n        /* \"#utility.yul\":2000:2015   */\n      mstore\n        /* \"#utility.yul\":2034:2038   */\n      0x24\n        /* \"#utility.yul\":2031:2032   */\n      0x00\n        /* \"#utility.yul\":2024:2039   */\n      revert\n        /* \"#utility.yul\":2050:2175   */\n    tag_52:\n        /* \"#utility.yul\":2090:2094   */\n      0x00\n        /* \"#utility.yul\":2118:2119   */\n      dup3\n        /* \"#utility.yul\":2115:2116   */\n      dup3\n        /* \"#utility.yul\":2112:2120   */\n      lt\n        /* \"#utility.yul\":2109:2143   */\n      iszero\n      tag_94\n      jumpi\n        /* \"#utility.yul\":2123:2141   */\n      tag_94\n      tag_75\n      jump\t// in\n    tag_94:\n      pop\n        /* \"#utility.yul\":2160:2169   */\n      sub\n      swap1\n        /* \"#utility.yul\":2050:2175   */\n      jump\t// out\n        /* \"#utility.yul\":2180:2397   */\n    tag_54:\n        /* \"#utility.yul\":2220:2221   */\n      0x00\n        /* \"#utility.yul\":2246:2247   */\n      dup3\n        /* \"#utility.yul\":2236:2368   */\n      tag_96\n      jumpi\n        /* \"#utility.yul\":2290:2300   */\n      0x4e487b71\n        /* \"#utility.yul\":2285:2288   */\n      0xe0\n        /* \"#utility.yul\":2281:2301   */\n      shl\n        /* \"#utility.yul\":2278:2279   */\n      0x00\n        /* \"#utility.yul\":2271:2302   */\n      mstore\n        /* \"#utility.yul\":2325:2329   */\n      0x12\n        /* \"#utility.yul\":2322:2323   */\n      0x04\n        /* \"#utility.yul\":2315:2330   */\n      mstore\n        /* \"#utility.yul\":2353:2357   */\n      0x24\n        /* \"#utility.yul\":2350:2351   */\n      0x00\n        /* \"#utility.yul\":2343:2358   */\n      revert\n        /* \"#utility.yul\":2236:2368   */\n    tag_96:\n      pop\n        /* \"#utility.yul\":2382:2391   */\n      div\n      swap1\n        /* \"#utility.yul\":2180:2397   */\n      jump\t// out\n        /* \"#utility.yul\":2402:2529   */\n    tag_61:\n        /* \"#utility.yul\":2463:2473   */\n      0x4e487b71\n        /* \"#utility.yul\":2458:2461   */\n      0xe0\n        /* \"#utility.yul\":2454:2474   */\n      shl\n        /* \"#utility.yul\":2451:2452   */\n      0x00\n        /* \"#utility.yul\":2444:2475   */\n      mstore\n        /* \"#utility.yul\":2494:2498   */\n      0x32\n        /* \"#utility.yul\":2491:2492   */\n      0x04\n        /* \"#utility.yul\":2484:2499   */\n      mstore\n        /* \"#utility.yul\":2518:2522   */\n      0x24\n        /* \"#utility.yul\":2515:2516   */\n      0x00\n        /* \"#utility.yul\":2508:2523   */\n      revert\n        /* \"#utility.yul\":2534:2662   */\n    tag_63:\n        /* \"#utility.yul\":2574:2577   */\n      0x00\n        /* \"#utility.yul\":2605:2606   */\n      dup3\n        /* \"#utility.yul\":2601:2607   */\n      not\n        /* \"#utility.yul\":2598:2599   */\n      dup3\n        /* \"#utility.yul\":2595:2608   */\n      gt\n        /* \"#utility.yul\":2592:2631   */\n      iszero\n      tag_100\n      jumpi\n        /* \"#utility.yul\":2611:2629   */\n      tag_100\n      tag_75\n      jump\t// in\n    tag_100:\n      pop\n        /* \"#utility.yul\":2647:2656   */\n      add\n      swap1\n        /* \"#utility.yul\":2534:2662   */\n      jump\t// out\n        /* \"#utility.yul\":3016:3613   */\n    tag_73:\n        /* \"#utility.yul\":3128:3132   */\n      0x00\n        /* \"#utility.yul\":3157:3159   */\n      0x20\n        /* \"#utility.yul\":3186:3188   */\n      dup1\n        /* \"#utility.yul\":3175:3184   */\n      dup4\n        /* \"#utility.yul\":3168:3189   */\n      mstore\n        /* \"#utility.yul\":3218:3224   */\n      dup4\n        /* \"#utility.yul\":3212:3225   */\n      mload\n        /* \"#utility.yul\":3261:3267   */\n      dup1\n        /* \"#utility.yul\":3256:3258   */\n      dup3\n        /* \"#utility.yul\":3245:3254   */\n      dup6\n        /* \"#utility.yul\":3241:3259   */\n      add\n        /* \"#utility.yul\":3234:3268   */\n      mstore\n        /* \"#utility.yul\":3286:3287   */\n      0x00\n        /* \"#utility.yul\":3296:3436   */\n    tag_103:\n        /* \"#utility.yul\":3310:3316   */\n      dup2\n        /* \"#utility.yul\":3307:3308   */\n      dup2\n        /* \"#utility.yul\":3304:3317   */\n      lt\n        /* \"#utility.yul\":3296:3436   */\n      iszero\n      tag_105\n      jumpi\n        /* \"#utility.yul\":3405:3419   */\n      dup6\n      dup2\n      add\n        /* \"#utility.yul\":3401:3424   */\n      dup4\n      add\n        /* \"#utility.yul\":3395:3425   */\n      mload\n        /* \"#utility.yul\":3371:3388   */\n      dup6\n      dup3\n      add\n        /* \"#utility.yul\":3390:3392   */\n      0x40\n        /* \"#utility.yul\":3367:3393   */\n      add\n        /* \"#utility.yul\":3360:3426   */\n      mstore\n        /* \"#utility.yul\":3325:3335   */\n      dup3\n      add\n        /* \"#utility.yul\":3296:3436   */\n      jump(tag_103)\n    tag_105:\n        /* \"#utility.yul\":3454:3460   */\n      dup2\n        /* \"#utility.yul\":3451:3452   */\n      dup2\n        /* \"#utility.yul\":3448:3461   */\n      gt\n        /* \"#utility.yul\":3445:3536   */\n      iszero\n      tag_106\n      jumpi\n        /* \"#utility.yul\":3524:3525   */\n      0x00\n        /* \"#utility.yul\":3519:3521   */\n      0x40\n        /* \"#utility.yul\":3510:3516   */\n      dup4\n        /* \"#utility.yul\":3499:3508   */\n      dup8\n        /* \"#utility.yul\":3495:3517   */\n      add\n        /* \"#utility.yul\":3491:3522   */\n      add\n        /* \"#utility.yul\":3484:3526   */\n      mstore\n        /* \"#utility.yul\":3445:3536   */\n    tag_106:\n      pop\n        /* \"#utility.yul\":3597:3599   */\n      0x1f\n        /* \"#utility.yul\":3576:3591   */\n      add\n      not(0x1f)\n        /* \"#utility.yul\":3572:3601   */\n      and\n        /* \"#utility.yul\":3557:3602   */\n      swap3\n      swap1\n      swap3\n      add\n        /* \"#utility.yul\":3604:3606   */\n      0x40\n        /* \"#utility.yul\":3553:3607   */\n      add\n      swap4\n        /* \"#utility.yul\":3016:3613   */\n      swap3\n      pop\n      pop\n      pop\n      jump\t// out\n    stop\n    data_bc7335ef5a2766e252b0d20841b8a31e77013ede9c2a48b3b61a9c597162b79a 4c6f636b656477616c6c65743a2043616e6e6f742073756273747261637420746f74616c20616d6f756e74207769746820636c61696d61626c65\n\n    auxdata: 0xa2646970667358221220352006458bdb5b5dc9995f6d85dec8d14a35e6c84432105659f7f801813b96dc64736f6c634300080b0033\n}\n",
				"bytecode": {
					"linkReferences": {},
					"object": "60a060405234801561001057600080fd5b5060405161056138038061056183398101604081905261002f91610058565b6000919091556001600160a01b0316608052600180546001600160a01b03191633179055610095565b6000806040838503121561006b57600080fd5b825160208401519092506001600160a01b038116811461008a57600080fd5b809150509250929050565b6080516104b26100af600039600060a701526104b26000f3fe608060405234801561001057600080fd5b50600436106100625760003560e01c80630a95606e146100675780631d77b00b1461008d57806338af3eed146100a2578063893d20e8146100e1578063b580aa9e146100f2578063c8cca41e146100fb575b600080fd5b61007a6100753660046102ba565b610103565b6040519081526020015b60405180910390f35b6100a061009b366004610347565b610148565b005b6100c97f000000000000000000000000000000000000000000000000000000000000000081565b6040516001600160a01b039091168152602001610084565b6001546001600160a01b03166100c9565b61007a60025481565b6100a0610172565b600061010d610180565b6000610118836101ce565b905061013f600054826040518060600160405280603a8152602001610443603a913961028e565b60005592915050565b610150610180565b600180546001600160a01b0319166001600160a01b0392909216919091179055565b61017a610180565b42600255565b6001546001600160a01b031633146101cc5760405162461bcd60e51b815260206004820152600a6024820152692737ba102fb7bbb732b960b11b60448201526064015b60405180910390fd5b565b60008062278d00600254426101e39190610386565b6101ed919061039d565b6003549091506000905b8281116102345760336003541161022c5784816033811061021a5761021a6103bf565b602002015161022990836103d5565b91505b6001016101f7565b506102408260016103d5565b600355806102875760405162461bcd60e51b8152602060048201526014602482015273139bdd1a1a5b99c81d1bc818db185a5b481e595d60621b60448201526064016101c3565b9392505050565b600081848411156102b25760405162461bcd60e51b81526004016101c391906103ed565b505050900390565b60006106608083850312156102ce57600080fd5b83601f8401126102dd57600080fd5b60405181810181811067ffffffffffffffff8211171561030d57634e487b7160e01b600052604160045260246000fd5b60405290830190808583111561032257600080fd5b845b8381101561033c578035825260209182019101610324565b509095945050505050565b60006020828403121561035957600080fd5b81356001600160a01b038116811461028757600080fd5b634e487b7160e01b600052601160045260246000fd5b60008282101561039857610398610370565b500390565b6000826103ba57634e487b7160e01b600052601260045260246000fd5b500490565b634e487b7160e01b600052603260045260246000fd5b600082198211156103e8576103e8610370565b500190565b600060208083528351808285015260005b8181101561041a578581018301518582016040015282016103fe565b8181111561042c576000604083870101525b50601f01601f191692909201604001939250505056fe4c6f636b656477616c6c65743a2043616e6e6f742073756273747261637420746f74616c20616d6f756e74207769746820636c61696d61626c65a2646970667358221220352006458bdb5b5dc9995f6d85dec8d14a35e6c84432105659f7f801813b96dc64736f6c634300080b0033",
					"opcodes": "PUSH1 0xA0 PUSH1 0x40 MSTORE CALLVALUE DUP1 ISZERO PUSH2 0x10 JUMPI PUSH1 0x0 DUP1 REVERT JUMPDEST POP PUSH1 0x40 MLOAD PUSH2 0x561 CODESIZE SUB DUP1 PUSH2 0x561 DUP4 CODECOPY DUP2 ADD PUSH1 0x40 DUP2 SWAP1 MSTORE PUSH2 0x2F SWAP2 PUSH2 0x58 JUMP JUMPDEST PUSH1 0x0 SWAP2 SWAP1 SWAP2 SSTORE PUSH1 0x1 PUSH1 0x1 PUSH1 0xA0 SHL SUB AND PUSH1 0x80 MSTORE PUSH1 0x1 DUP1 SLOAD PUSH1 0x1 PUSH1 0x1 PUSH1 0xA0 SHL SUB NOT AND CALLER OR SWAP1 SSTORE PUSH2 0x95 JUMP JUMPDEST PUSH1 0x0 DUP1 PUSH1 0x40 DUP4 DUP6 SUB SLT ISZERO PUSH2 0x6B JUMPI PUSH1 0x0 DUP1 REVERT JUMPDEST DUP3 MLOAD PUSH1 0x20 DUP5 ADD MLOAD SWAP1 SWAP3 POP PUSH1 0x1 PUSH1 0x1 PUSH1 0xA0 SHL SUB DUP2 AND DUP2 EQ PUSH2 0x8A JUMPI PUSH1 0x0 DUP1 REVERT JUMPDEST DUP1 SWAP2 POP POP SWAP3 POP SWAP3 SWAP1 POP JUMP JUMPDEST PUSH1 0x80 MLOAD PUSH2 0x4B2 PUSH2 0xAF PUSH1 0x0 CODECOPY PUSH1 0x0 PUSH1 0xA7 ADD MSTORE PUSH2 0x4B2 PUSH1 0x0 RETURN INVALID PUSH1 0x80 PUSH1 0x40 MSTORE CALLVALUE DUP1 ISZERO PUSH2 0x10 JUMPI PUSH1 0x0 DUP1 REVERT JUMPDEST POP PUSH1 0x4 CALLDATASIZE LT PUSH2 0x62 JUMPI PUSH1 0x0 CALLDATALOAD PUSH1 0xE0 SHR DUP1 PUSH4 0xA95606E EQ PUSH2 0x67 JUMPI DUP1 PUSH4 0x1D77B00B EQ PUSH2 0x8D JUMPI DUP1 PUSH4 0x38AF3EED EQ PUSH2 0xA2 JUMPI DUP1 PUSH4 0x893D20E8 EQ PUSH2 0xE1 JUMPI DUP1 PUSH4 0xB580AA9E EQ PUSH2 0xF2 JUMPI DUP1 PUSH4 0xC8CCA41E EQ PUSH2 0xFB JUMPI JUMPDEST PUSH1 0x0 DUP1 REVERT JUMPDEST PUSH2 0x7A PUSH2 0x75 CALLDATASIZE PUSH1 0x4 PUSH2 0x2BA JUMP JUMPDEST PUSH2 0x103 JUMP JUMPDEST PUSH1 0x40 MLOAD SWAP1 DUP2 MSTORE PUSH1 0x20 ADD JUMPDEST PUSH1 0x40 MLOAD DUP1 SWAP2 SUB SWAP1 RETURN JUMPDEST PUSH2 0xA0 PUSH2 0x9B CALLDATASIZE PUSH1 0x4 PUSH2 0x347 JUMP JUMPDEST PUSH2 0x148 JUMP JUMPDEST STOP JUMPDEST PUSH2 0xC9 PUSH32 0x0 DUP2 JUMP JUMPDEST PUSH1 0x40 MLOAD PUSH1 0x1 PUSH1 0x1 PUSH1 0xA0 SHL SUB SWAP1 SWAP2 AND DUP2 MSTORE PUSH1 0x20 ADD PUSH2 0x84 JUMP JUMPDEST PUSH1 0x1 SLOAD PUSH1 0x1 PUSH1 0x1 PUSH1 0xA0 SHL SUB AND PUSH2 0xC9 JUMP JUMPDEST PUSH2 0x7A PUSH1 0x2 SLOAD DUP2 JUMP JUMPDEST PUSH2 0xA0 PUSH2 0x172 JUMP JUMPDEST PUSH1 0x0 PUSH2 0x10D PUSH2 0x180 JUMP JUMPDEST PUSH1 0x0 PUSH2 0x118 DUP4 PUSH2 0x1CE JUMP JUMPDEST SWAP1 POP PUSH2 0x13F PUSH1 0x0 SLOAD DUP3 PUSH1 0x40 MLOAD DUP1 PUSH1 0x60 ADD PUSH1 0x40 MSTORE DUP1 PUSH1 0x3A DUP2 MSTORE PUSH1 0x20 ADD PUSH2 0x443 PUSH1 0x3A SWAP2 CODECOPY PUSH2 0x28E JUMP JUMPDEST PUSH1 0x0 SSTORE SWAP3 SWAP2 POP POP JUMP JUMPDEST PUSH2 0x150 PUSH2 0x180 JUMP JUMPDEST PUSH1 0x1 DUP1 SLOAD PUSH1 0x1 PUSH1 0x1 PUSH1 0xA0 SHL SUB NOT AND PUSH1 0x1 PUSH1 0x1 PUSH1 0xA0 SHL SUB SWAP3 SWAP1 SWAP3 AND SWAP2 SWAP1 SWAP2 OR SWAP1 SSTORE JUMP JUMPDEST PUSH2 0x17A PUSH2 0x180 JUMP JUMPDEST TIMESTAMP PUSH1 0x2 SSTORE JUMP JUMPDEST PUSH1 0x1 SLOAD PUSH1 0x1 PUSH1 0x1 PUSH1 0xA0 SHL SUB AND CALLER EQ PUSH2 0x1CC JUMPI PUSH1 0x40 MLOAD PUSH3 0x461BCD PUSH1 0xE5 SHL DUP2 MSTORE PUSH1 0x20 PUSH1 0x4 DUP3 ADD MSTORE PUSH1 0xA PUSH1 0x24 DUP3 ADD MSTORE PUSH10 0x2737BA102FB7BBB732B9 PUSH1 0xB1 SHL PUSH1 0x44 DUP3 ADD MSTORE PUSH1 0x64 ADD JUMPDEST PUSH1 0x40 MLOAD DUP1 SWAP2 SUB SWAP1 REVERT JUMPDEST JUMP JUMPDEST PUSH1 0x0 DUP1 PUSH3 0x278D00 PUSH1 0x2 SLOAD TIMESTAMP PUSH2 0x1E3 SWAP2 SWAP1 PUSH2 0x386 JUMP JUMPDEST PUSH2 0x1ED SWAP2 SWAP1 PUSH2 0x39D JUMP JUMPDEST PUSH1 0x3 SLOAD SWAP1 SWAP2 POP PUSH1 0x0 SWAP1 JUMPDEST DUP3 DUP2 GT PUSH2 0x234 JUMPI PUSH1 0x33 PUSH1 0x3 SLOAD GT PUSH2 0x22C JUMPI DUP5 DUP2 PUSH1 0x33 DUP2 LT PUSH2 0x21A JUMPI PUSH2 0x21A PUSH2 0x3BF JUMP JUMPDEST PUSH1 0x20 MUL ADD MLOAD PUSH2 0x229 SWAP1 DUP4 PUSH2 0x3D5 JUMP JUMPDEST SWAP2 POP JUMPDEST PUSH1 0x1 ADD PUSH2 0x1F7 JUMP JUMPDEST POP PUSH2 0x240 DUP3 PUSH1 0x1 PUSH2 0x3D5 JUMP JUMPDEST PUSH1 0x3 SSTORE DUP1 PUSH2 0x287 JUMPI PUSH1 0x40 MLOAD PUSH3 0x461BCD PUSH1 0xE5 SHL DUP2 MSTORE PUSH1 0x20 PUSH1 0x4 DUP3 ADD MSTORE PUSH1 0x14 PUSH1 0x24 DUP3 ADD MSTORE PUSH20 0x139BDD1A1A5B99C81D1BC818DB185A5B481E595D PUSH1 0x62 SHL PUSH1 0x44 DUP3 ADD MSTORE PUSH1 0x64 ADD PUSH2 0x1C3 JUMP JUMPDEST SWAP4 SWAP3 POP POP POP JUMP JUMPDEST PUSH1 0x0 DUP2 DUP5 DUP5 GT ISZERO PUSH2 0x2B2 JUMPI PUSH1 0x40 MLOAD PUSH3 0x461BCD PUSH1 0xE5 SHL DUP2 MSTORE PUSH1 0x4 ADD PUSH2 0x1C3 SWAP2 SWAP1 PUSH2 0x3ED JUMP JUMPDEST POP POP POP SWAP1 SUB SWAP1 JUMP JUMPDEST PUSH1 0x0 PUSH2 0x660 DUP1 DUP4 DUP6 SUB SLT ISZERO PUSH2 0x2CE JUMPI PUSH1 0x0 DUP1 REVERT JUMPDEST DUP4 PUSH1 0x1F DUP5 ADD SLT PUSH2 0x2DD JUMPI PUSH1 0x0 DUP1 REVERT JUMPDEST PUSH1 0x40 MLOAD DUP2 DUP2 ADD DUP2 DUP2 LT PUSH8 0xFFFFFFFFFFFFFFFF DUP3 GT OR ISZERO PUSH2 0x30D JUMPI PUSH4 0x4E487B71 PUSH1 0xE0 SHL PUSH1 0x0 MSTORE PUSH1 0x41 PUSH1 0x4 MSTORE PUSH1 0x24 PUSH1 0x0 REVERT JUMPDEST PUSH1 0x40 MSTORE SWAP1 DUP4 ADD SWAP1 DUP1 DUP6 DUP4 GT ISZERO PUSH2 0x322 JUMPI PUSH1 0x0 DUP1 REVERT JUMPDEST DUP5 JUMPDEST DUP4 DUP2 LT ISZERO PUSH2 0x33C JUMPI DUP1 CALLDATALOAD DUP3 MSTORE PUSH1 0x20 SWAP2 DUP3 ADD SWAP2 ADD PUSH2 0x324 JUMP JUMPDEST POP SWAP1 SWAP6 SWAP5 POP POP POP POP POP JUMP JUMPDEST PUSH1 0x0 PUSH1 0x20 DUP3 DUP5 SUB SLT ISZERO PUSH2 0x359 JUMPI PUSH1 0x0 DUP1 REVERT JUMPDEST DUP2 CALLDATALOAD PUSH1 0x1 PUSH1 0x1 PUSH1 0xA0 SHL SUB DUP2 AND DUP2 EQ PUSH2 0x287 JUMPI PUSH1 0x0 DUP1 REVERT JUMPDEST PUSH4 0x4E487B71 PUSH1 0xE0 SHL PUSH1 0x0 MSTORE PUSH1 0x11 PUSH1 0x4 MSTORE PUSH1 0x24 PUSH1 0x0 REVERT JUMPDEST PUSH1 0x0 DUP3 DUP3 LT ISZERO PUSH2 0x398 JUMPI PUSH2 0x398 PUSH2 0x370 JUMP JUMPDEST POP SUB SWAP1 JUMP JUMPDEST PUSH1 0x0 DUP3 PUSH2 0x3BA JUMPI PUSH4 0x4E487B71 PUSH1 0xE0 SHL PUSH1 0x0 MSTORE PUSH1 0x12 PUSH1 0x4 MSTORE PUSH1 0x24 PUSH1 0x0 REVERT JUMPDEST POP DIV SWAP1 JUMP JUMPDEST PUSH4 0x4E487B71 PUSH1 0xE0 SHL PUSH1 0x0 MSTORE PUSH1 0x32 PUSH1 0x4 MSTORE PUSH1 0x24 PUSH1 0x0 REVERT JUMPDEST PUSH1 0x0 DUP3 NOT DUP3 GT ISZERO PUSH2 0x3E8 JUMPI PUSH2 0x3E8 PUSH2 0x370 JUMP JUMPDEST POP ADD SWAP1 JUMP JUMPDEST PUSH1 0x0 PUSH1 0x20 DUP1 DUP4 MSTORE DUP4 MLOAD DUP1 DUP3 DUP6 ADD MSTORE PUSH1 0x0 JUMPDEST DUP2 DUP2 LT ISZERO PUSH2 0x41A JUMPI DUP6 DUP2 ADD DUP4 ADD MLOAD DUP6 DUP3 ADD PUSH1 0x40 ADD MSTORE DUP3 ADD PUSH2 0x3FE JUMP JUMPDEST DUP2 DUP2 GT ISZERO PUSH2 0x42C JUMPI PUSH1 0x0 PUSH1 0x40 DUP4 DUP8 ADD ADD MSTORE JUMPDEST POP PUSH1 0x1F ADD PUSH1 0x1F NOT AND SWAP3 SWAP1 SWAP3 ADD PUSH1 0x40 ADD SWAP4 SWAP3 POP POP POP JUMP INVALID 0x4C PUSH16 0x636B656477616C6C65743A2043616E6E PUSH16 0x742073756273747261637420746F7461 PUSH13 0x20616D6F756E74207769746820 PUSH4 0x6C61696D PUSH2 0x626C PUSH6 0xA26469706673 PC 0x22 SLT KECCAK256 CALLDATALOAD KECCAK256 MOD GASLIMIT DUP12 0xDB JUMPDEST 0x5D 0xC9 SWAP10 0x5F PUSH14 0x85DEC8D14A35E6C84432105659F7 0xF8 ADD DUP2 EXTCODESIZE SWAP7 0xDC PUSH5 0x736F6C6343 STOP ADDMOD SIGNEXTEND STOP CALLER "
				},
				"gasEstimates": {
					"creation": {
						"codeDepositCost": "240400",
						"executionCost": "infinite",
						"totalCost": "infinite"
					},
					"external": {
						"beneficiary()": "infinite",
						"changeTalaxAddress(address)": "26700",
						"getOwner()": "2375",
						"initiateLockedWallet()": "24501",
						"releaseClaimable(uint256[51])": "infinite",
						"startLockedWallet()": "2350"
					},
					"internal": {
						"_calculateClaimableAmount(uint256[51] memory)": "infinite",
						"_onlyTalax()": "infinite",
						"_unsafeInc(uint256)": "infinite"
					}
				},
				"methodIdentifiers": {
					"beneficiary()": "38af3eed",
					"changeTalaxAddress(address)": "1d77b00b",
					"getOwner()": "893d20e8",
					"initiateLockedWallet()": "c8cca41e",
					"releaseClaimable(uint256[51])": "0a95606e",
					"startLockedWallet()": "b580aa9e"
				}
			},
			"storageLayout": {
				"storage": [
					{
						"astId": 514,
						"contract": "contracts/Lockedwallet.sol:LockedWallet",
						"label": "_amount",
						"offset": 0,
						"slot": "0",
						"type": "t_uint256"
					},
					{
						"astId": 516,
						"contract": "contracts/Lockedwallet.sol:LockedWallet",
						"label": "_owner",
						"offset": 0,
						"slot": "1",
						"type": "t_address"
					},
					{
						"astId": 520,
						"contract": "contracts/Lockedwallet.sol:LockedWallet",
						"label": "startLockedWallet",
						"offset": 0,
						"slot": "2",
						"type": "t_uint256"
					},
					{
						"astId": 522,
						"contract": "contracts/Lockedwallet.sol:LockedWallet",
						"label": "_latestClaimMonth",
						"offset": 0,
						"slot": "3",
						"type": "t_uint256"
					}
				],
				"types": {
					"t_address": {
						"encoding": "inplace",
						"label": "address",
						"numberOfBytes": "20"
					},
					"t_uint256": {
						"encoding": "inplace",
						"label": "uint256",
						"numberOfBytes": "32"
					}
				}
			},
			"userdoc": {
				"kind": "user",
				"methods": {
					"initiateLockedWallet()": {
						"notice": "Initiate Locked Wallet"
					},
					"releaseClaimable(uint256[51])": {
						"notice": "Transfers tokens held by timelock to beneficiary."
					}
				},
				"version": 1
			}
		}
	}
}