{
	"contracts/Staking.sol": {
		"Staking": {
			"abi": [
				{
					"inputs": [
						{
							"internalType": "address",
							"name": "token",
							"type": "address"
						}
					],
					"stateMutability": "nonpayable",
					"type": "constructor"
				},
				{
					"inputs": [],
					"name": "Airdrop__claimableOnceAWeek",
					"type": "error"
				},
				{
					"inputs": [],
					"name": "Airdrop__notStarted",
					"type": "error"
				},
				{
					"inputs": [],
					"name": "Staking__airdropExceed20Percent",
					"type": "error"
				},
				{
					"inputs": [],
					"name": "Staking__noStakingFound",
					"type": "error"
				},
				{
					"inputs": [],
					"name": "Staking__penaltyExceed3Percent",
					"type": "error"
				},
				{
					"inputs": [],
					"name": "Staking__userIsStaker",
					"type": "error"
				},
				{
					"inputs": [],
					"name": "Staking_noStakingPackageFound",
					"type": "error"
				},
				{
					"anonymous": false,
					"inputs": [
						{
							"indexed": false,
							"internalType": "uint256",
							"name": "amount",
							"type": "uint256"
						}
					],
					"name": "AirdropChanged",
					"type": "event"
				},
				{
					"anonymous": false,
					"inputs": [
						{
							"indexed": true,
							"internalType": "address",
							"name": "previousOwner",
							"type": "address"
						},
						{
							"indexed": true,
							"internalType": "address",
							"name": "newOwner",
							"type": "address"
						}
					],
					"name": "OwnershipTransferred",
					"type": "event"
				},
				{
					"anonymous": false,
					"inputs": [
						{
							"indexed": false,
							"internalType": "uint256",
							"name": "amount",
							"type": "uint256"
						}
					],
					"name": "PenaltyChanged",
					"type": "event"
				},
				{
					"anonymous": false,
					"inputs": [
						{
							"indexed": true,
							"internalType": "address",
							"name": "user",
							"type": "address"
						},
						{
							"indexed": false,
							"internalType": "uint256",
							"name": "amount",
							"type": "uint256"
						},
						{
							"indexed": false,
							"internalType": "uint256",
							"name": "timestamp",
							"type": "uint256"
						},
						{
							"indexed": false,
							"internalType": "uint256",
							"name": "releaseTime",
							"type": "uint256"
						}
					],
					"name": "Staked",
					"type": "event"
				},
				{
					"inputs": [],
					"name": "airdropRate",
					"outputs": [
						{
							"internalType": "uint256",
							"name": "",
							"type": "uint256"
						}
					],
					"stateMutability": "view",
					"type": "function"
				},
				{
					"inputs": [],
					"name": "airdropSince",
					"outputs": [
						{
							"internalType": "uint256",
							"name": "",
							"type": "uint256"
						}
					],
					"stateMutability": "view",
					"type": "function"
				},
				{
					"inputs": [],
					"name": "airdropStatus",
					"outputs": [
						{
							"internalType": "bool",
							"name": "",
							"type": "bool"
						}
					],
					"stateMutability": "view",
					"type": "function"
				},
				{
					"inputs": [],
					"name": "blockTimestamp",
					"outputs": [
						{
							"internalType": "uint256",
							"name": "",
							"type": "uint256"
						}
					],
					"stateMutability": "view",
					"type": "function"
				},
				{
					"inputs": [
						{
							"internalType": "uint256",
							"name": "timestamp",
							"type": "uint256"
						}
					],
					"name": "calculateWeek",
					"outputs": [
						{
							"internalType": "uint256",
							"name": "",
							"type": "uint256"
						}
					],
					"stateMutability": "view",
					"type": "function"
				},
				{
					"inputs": [
						{
							"internalType": "uint256",
							"name": "amount",
							"type": "uint256"
						}
					],
					"name": "changeAirdropPercentage",
					"outputs": [],
					"stateMutability": "nonpayable",
					"type": "function"
				},
				{
					"inputs": [
						{
							"internalType": "uint256",
							"name": "amount",
							"type": "uint256"
						}
					],
					"name": "changePenaltyFee",
					"outputs": [],
					"stateMutability": "nonpayable",
					"type": "function"
				},
				{
					"inputs": [],
					"name": "claimAirdrop",
					"outputs": [],
					"stateMutability": "nonpayable",
					"type": "function"
				},
				{
					"inputs": [],
					"name": "hasStake",
					"outputs": [
						{
							"components": [
								{
									"internalType": "uint256",
									"name": "total_amount",
									"type": "uint256"
								},
								{
									"internalType": "uint256",
									"name": "penalty",
									"type": "uint256"
								},
								{
									"components": [
										{
											"internalType": "uint256",
											"name": "amount",
											"type": "uint256"
										},
										{
											"internalType": "uint256",
											"name": "since",
											"type": "uint256"
										},
										{
											"internalType": "uint256",
											"name": "rewardAPY",
											"type": "uint256"
										},
										{
											"internalType": "uint256",
											"name": "releaseTime",
											"type": "uint256"
										},
										{
											"internalType": "uint256",
											"name": "claimable",
											"type": "uint256"
										},
										{
											"internalType": "uint256",
											"name": "claimableAirdrop",
											"type": "uint256"
										},
										{
											"internalType": "uint256",
											"name": "latestClaimDrop",
											"type": "uint256"
										}
									],
									"internalType": "struct Staking.Stake",
									"name": "stake",
									"type": "tuple"
								}
							],
							"internalType": "struct Staking.StakingSummary",
							"name": "",
							"type": "tuple"
						}
					],
					"stateMutability": "view",
					"type": "function"
				},
				{
					"inputs": [],
					"name": "owner",
					"outputs": [
						{
							"internalType": "address",
							"name": "",
							"type": "address"
						}
					],
					"stateMutability": "view",
					"type": "function"
				},
				{
					"inputs": [],
					"name": "renounceOwnership",
					"outputs": [],
					"stateMutability": "nonpayable",
					"type": "function"
				},
				{
					"inputs": [
						{
							"internalType": "uint256",
							"name": "amount",
							"type": "uint256"
						},
						{
							"internalType": "uint256",
							"name": "stakePeriod",
							"type": "uint256"
						}
					],
					"name": "stake",
					"outputs": [],
					"stateMutability": "nonpayable",
					"type": "function"
				},
				{
					"inputs": [],
					"name": "stakingPenaltyRate",
					"outputs": [
						{
							"internalType": "uint256",
							"name": "",
							"type": "uint256"
						}
					],
					"stateMutability": "view",
					"type": "function"
				},
				{
					"inputs": [],
					"name": "startAirdrop",
					"outputs": [],
					"stateMutability": "nonpayable",
					"type": "function"
				},
				{
					"inputs": [],
					"name": "token_address",
					"outputs": [
						{
							"internalType": "address",
							"name": "",
							"type": "address"
						}
					],
					"stateMutability": "view",
					"type": "function"
				},
				{
					"inputs": [
						{
							"internalType": "address",
							"name": "newOwner",
							"type": "address"
						}
					],
					"name": "transferOwnership",
					"outputs": [],
					"stateMutability": "nonpayable",
					"type": "function"
				},
				{
					"inputs": [],
					"name": "withdrawStake",
					"outputs": [],
					"stateMutability": "nonpayable",
					"type": "function"
				}
			],
			"devdoc": {
				"kind": "dev",
				"methods": {
					"owner()": {
						"details": "Returns the address of the current owner."
					},
					"renounceOwnership()": {
						"details": "Leaves the contract without owner. It will not be possible to call `onlyOwner` functions anymore. Can only be called by the current owner. NOTE: Renouncing ownership will leave the contract without an owner, thereby removing any functionality that is only available to the owner."
					},
					"transferOwnership(address)": {
						"details": "Transfers ownership of the contract to a new account (`newOwner`). Can only be called by the current owner."
					}
				},
				"version": 1
			},
			"evm": {
				"assembly": "    /* \"contracts/Staking.sol\":781:10214  contract Staking is ReentrancyGuard, Ownable {... */\n  mstore(0x40, 0x80)\n    /* \"contracts/Staking.sol\":1241:1552  constructor(address token) {... */\n  callvalue\n  dup1\n  iszero\n  tag_1\n  jumpi\n  0x00\n  dup1\n  revert\ntag_1:\n  pop\n  mload(0x40)\n  sub(codesize, bytecodeSize)\n  dup1\n  bytecodeSize\n  dup4\n  codecopy\n  dup2\n  dup2\n  add\n  0x40\n  mstore\n  dup2\n  add\n  swap1\n  tag_2\n  swap2\n  swap1\n  tag_3\n  jump\t// in\ntag_2:\n    /* \"@openzeppelin/contracts/security/ReentrancyGuard.sol\":1701:1702  1 */\n  0x01\n    /* \"@openzeppelin/contracts/security/ReentrancyGuard.sol\":1806:1813  _status */\n  0x00\n    /* \"@openzeppelin/contracts/security/ReentrancyGuard.sol\":1806:1828  _status = _NOT_ENTERED */\n  dup2\n  swap1\n  sstore\n  pop\n    /* \"@openzeppelin/contracts/access/Ownable.sol\":921:953  _transferOwnership(_msgSender()) */\n  tag_9\n    /* \"@openzeppelin/contracts/access/Ownable.sol\":940:952  _msgSender() */\n  tag_10\n    /* \"@openzeppelin/contracts/access/Ownable.sol\":940:950  _msgSender */\n  shl(0x20, tag_11)\n    /* \"@openzeppelin/contracts/access/Ownable.sol\":940:952  _msgSender() */\n  0x20\n  shr\n  jump\t// in\ntag_10:\n    /* \"@openzeppelin/contracts/access/Ownable.sol\":921:939  _transferOwnership */\n  shl(0x20, tag_12)\n    /* \"@openzeppelin/contracts/access/Ownable.sol\":921:953  _transferOwnership(_msgSender()) */\n  0x20\n  shr\n  jump\t// in\ntag_9:\n    /* \"contracts/Staking.sol\":1363:1365  15 */\n  0x0f\n    /* \"contracts/Staking.sol\":1342:1360  stakingPenaltyRate */\n  0x03\n    /* \"contracts/Staking.sol\":1342:1365  stakingPenaltyRate = 15 */\n  dup2\n  swap1\n  sstore\n  pop\n    /* \"contracts/Staking.sol\":1390:1392  80 */\n  0x50\n    /* \"contracts/Staking.sol\":1376:1387  airdropRate */\n  0x04\n    /* \"contracts/Staking.sol\":1376:1392  airdropRate = 80 */\n  dup2\n  swap1\n  sstore\n  pop\n    /* \"contracts/Staking.sol\":1421:1426  token */\n  dup1\n    /* \"contracts/Staking.sol\":1405:1418  token_address */\n  0x06\n  0x01\n    /* \"contracts/Staking.sol\":1405:1426  token_address = token */\n  0x0100\n  exp\n  dup2\n  sload\n  dup2\n  0xffffffffffffffffffffffffffffffffffffffff\n  mul\n  not\n  and\n  swap1\n  dup4\n  0xffffffffffffffffffffffffffffffffffffffff\n  and\n  mul\n  or\n  swap1\n  sstore\n  pop\n    /* \"contracts/Staking.sol\":1465:1466  6 */\n  0x06\n    /* \"contracts/Staking.sol\":1439:1453  stakingPackage */\n  0x02\n    /* \"contracts/Staking.sol\":1439:1462  stakingPackage[90 days] */\n  0x00\n    /* \"contracts/Staking.sol\":1454:1461  90 days */\n  0x76a700\n    /* \"contracts/Staking.sol\":1439:1462  stakingPackage[90 days] */\n  dup2\n  mstore\n  0x20\n  add\n  swap1\n  dup2\n  mstore\n  0x20\n  add\n  0x00\n  keccak256\n    /* \"contracts/Staking.sol\":1439:1466  stakingPackage[90 days] = 6 */\n  dup2\n  swap1\n  sstore\n  pop\n    /* \"contracts/Staking.sol\":1504:1505  7 */\n  0x07\n    /* \"contracts/Staking.sol\":1477:1491  stakingPackage */\n  0x02\n    /* \"contracts/Staking.sol\":1477:1501  stakingPackage[180 days] */\n  0x00\n    /* \"contracts/Staking.sol\":1492:1500  180 days */\n  0xed4e00\n    /* \"contracts/Staking.sol\":1477:1501  stakingPackage[180 days] */\n  dup2\n  mstore\n  0x20\n  add\n  swap1\n  dup2\n  mstore\n  0x20\n  add\n  0x00\n  keccak256\n    /* \"contracts/Staking.sol\":1477:1505  stakingPackage[180 days] = 7 */\n  dup2\n  swap1\n  sstore\n  pop\n    /* \"contracts/Staking.sol\":1543:1544  8 */\n  0x08\n    /* \"contracts/Staking.sol\":1516:1530  stakingPackage */\n  0x02\n    /* \"contracts/Staking.sol\":1516:1540  stakingPackage[365 days] */\n  0x00\n    /* \"contracts/Staking.sol\":1531:1539  365 days */\n  0x01e13380\n    /* \"contracts/Staking.sol\":1516:1540  stakingPackage[365 days] */\n  dup2\n  mstore\n  0x20\n  add\n  swap1\n  dup2\n  mstore\n  0x20\n  add\n  0x00\n  keccak256\n    /* \"contracts/Staking.sol\":1516:1544  stakingPackage[365 days] = 8 */\n  dup2\n  swap1\n  sstore\n  pop\n    /* \"contracts/Staking.sol\":1241:1552  constructor(address token) {... */\n  pop\n    /* \"contracts/Staking.sol\":781:10214  contract Staking is ReentrancyGuard, Ownable {... */\n  jump(tag_14)\n    /* \"@openzeppelin/contracts/utils/Context.sol\":640:736  function _msgSender() internal view virtual returns (address) {... */\ntag_11:\n    /* \"@openzeppelin/contracts/utils/Context.sol\":693:700  address */\n  0x00\n    /* \"@openzeppelin/contracts/utils/Context.sol\":719:729  msg.sender */\n  caller\n    /* \"@openzeppelin/contracts/utils/Context.sol\":712:729  return msg.sender */\n  swap1\n  pop\n    /* \"@openzeppelin/contracts/utils/Context.sol\":640:736  function _msgSender() internal view virtual returns (address) {... */\n  swap1\n  jump\t// out\n    /* \"@openzeppelin/contracts/access/Ownable.sol\":2270:2457  function _transferOwnership(address newOwner) internal virtual {... */\ntag_12:\n    /* \"@openzeppelin/contracts/access/Ownable.sol\":2343:2359  address oldOwner */\n  0x00\n    /* \"@openzeppelin/contracts/access/Ownable.sol\":2362:2368  _owner */\n  0x01\n  0x00\n  swap1\n  sload\n  swap1\n  0x0100\n  exp\n  swap1\n  div\n  0xffffffffffffffffffffffffffffffffffffffff\n  and\n    /* \"@openzeppelin/contracts/access/Ownable.sol\":2343:2368  address oldOwner = _owner */\n  swap1\n  pop\n    /* \"@openzeppelin/contracts/access/Ownable.sol\":2387:2395  newOwner */\n  dup2\n    /* \"@openzeppelin/contracts/access/Ownable.sol\":2378:2384  _owner */\n  0x01\n  0x00\n    /* \"@openzeppelin/contracts/access/Ownable.sol\":2378:2395  _owner = newOwner */\n  0x0100\n  exp\n  dup2\n  sload\n  dup2\n  0xffffffffffffffffffffffffffffffffffffffff\n  mul\n  not\n  and\n  swap1\n  dup4\n  0xffffffffffffffffffffffffffffffffffffffff\n  and\n  mul\n  or\n  swap1\n  sstore\n  pop\n    /* \"@openzeppelin/contracts/access/Ownable.sol\":2441:2449  newOwner */\n  dup2\n    /* \"@openzeppelin/contracts/access/Ownable.sol\":2410:2450  OwnershipTransferred(oldOwner, newOwner) */\n  0xffffffffffffffffffffffffffffffffffffffff\n  and\n    /* \"@openzeppelin/contracts/access/Ownable.sol\":2431:2439  oldOwner */\n  dup2\n    /* \"@openzeppelin/contracts/access/Ownable.sol\":2410:2450  OwnershipTransferred(oldOwner, newOwner) */\n  0xffffffffffffffffffffffffffffffffffffffff\n  and\n  0x8be0079c531659141344cd1fd0a4f28419497f9722a3daafe3b4186f6b6457e0\n  mload(0x40)\n  mload(0x40)\n  dup1\n  swap2\n  sub\n  swap1\n  log3\n    /* \"@openzeppelin/contracts/access/Ownable.sol\":2333:2457  {... */\n  pop\n    /* \"@openzeppelin/contracts/access/Ownable.sol\":2270:2457  function _transferOwnership(address newOwner) internal virtual {... */\n  pop\n  jump\t// out\n    /* \"#utility.yul\":88:205   */\ntag_18:\n    /* \"#utility.yul\":197:198   */\n  0x00\n    /* \"#utility.yul\":194:195   */\n  dup1\n    /* \"#utility.yul\":187:199   */\n  revert\n    /* \"#utility.yul\":334:460   */\ntag_20:\n    /* \"#utility.yul\":371:378   */\n  0x00\n    /* \"#utility.yul\":411:453   */\n  0xffffffffffffffffffffffffffffffffffffffff\n    /* \"#utility.yul\":404:409   */\n  dup3\n    /* \"#utility.yul\":400:454   */\n  and\n    /* \"#utility.yul\":389:454   */\n  swap1\n  pop\n    /* \"#utility.yul\":334:460   */\n  swap2\n  swap1\n  pop\n  jump\t// out\n    /* \"#utility.yul\":466:562   */\ntag_21:\n    /* \"#utility.yul\":503:510   */\n  0x00\n    /* \"#utility.yul\":532:556   */\n  tag_30\n    /* \"#utility.yul\":550:555   */\n  dup3\n    /* \"#utility.yul\":532:556   */\n  tag_20\n  jump\t// in\ntag_30:\n    /* \"#utility.yul\":521:556   */\n  swap1\n  pop\n    /* \"#utility.yul\":466:562   */\n  swap2\n  swap1\n  pop\n  jump\t// out\n    /* \"#utility.yul\":568:690   */\ntag_22:\n    /* \"#utility.yul\":641:665   */\n  tag_32\n    /* \"#utility.yul\":659:664   */\n  dup2\n    /* \"#utility.yul\":641:665   */\n  tag_21\n  jump\t// in\ntag_32:\n    /* \"#utility.yul\":634:639   */\n  dup2\n    /* \"#utility.yul\":631:666   */\n  eq\n    /* \"#utility.yul\":621:684   */\n  tag_33\n  jumpi\n    /* \"#utility.yul\":680:681   */\n  0x00\n    /* \"#utility.yul\":677:678   */\n  dup1\n    /* \"#utility.yul\":670:682   */\n  revert\n    /* \"#utility.yul\":621:684   */\ntag_33:\n    /* \"#utility.yul\":568:690   */\n  pop\n  jump\t// out\n    /* \"#utility.yul\":696:839   */\ntag_23:\n    /* \"#utility.yul\":753:758   */\n  0x00\n    /* \"#utility.yul\":784:790   */\n  dup2\n    /* \"#utility.yul\":778:791   */\n  mload\n    /* \"#utility.yul\":769:791   */\n  swap1\n  pop\n    /* \"#utility.yul\":800:833   */\n  tag_35\n    /* \"#utility.yul\":827:832   */\n  dup2\n    /* \"#utility.yul\":800:833   */\n  tag_22\n  jump\t// in\ntag_35:\n    /* \"#utility.yul\":696:839   */\n  swap3\n  swap2\n  pop\n  pop\n  jump\t// out\n    /* \"#utility.yul\":845:1196   */\ntag_3:\n    /* \"#utility.yul\":915:921   */\n  0x00\n    /* \"#utility.yul\":964:966   */\n  0x20\n    /* \"#utility.yul\":952:961   */\n  dup3\n    /* \"#utility.yul\":943:950   */\n  dup5\n    /* \"#utility.yul\":939:962   */\n  sub\n    /* \"#utility.yul\":935:967   */\n  slt\n    /* \"#utility.yul\":932:1051   */\n  iszero\n  tag_37\n  jumpi\n    /* \"#utility.yul\":970:1049   */\n  tag_38\n  tag_18\n  jump\t// in\ntag_38:\n    /* \"#utility.yul\":932:1051   */\ntag_37:\n    /* \"#utility.yul\":1090:1091   */\n  0x00\n    /* \"#utility.yul\":1115:1179   */\n  tag_39\n    /* \"#utility.yul\":1171:1178   */\n  dup5\n    /* \"#utility.yul\":1162:1168   */\n  dup3\n    /* \"#utility.yul\":1151:1160   */\n  dup6\n    /* \"#utility.yul\":1147:1169   */\n  add\n    /* \"#utility.yul\":1115:1179   */\n  tag_23\n  jump\t// in\ntag_39:\n    /* \"#utility.yul\":1105:1179   */\n  swap2\n  pop\n    /* \"#utility.yul\":1061:1189   */\n  pop\n    /* \"#utility.yul\":845:1196   */\n  swap3\n  swap2\n  pop\n  pop\n  jump\t// out\n    /* \"contracts/Staking.sol\":781:10214  contract Staking is ReentrancyGuard, Ownable {... */\ntag_14:\n  dataSize(sub_0)\n  dup1\n  dataOffset(sub_0)\n  0x00\n  codecopy\n  0x00\n  return\nstop\n\nsub_0: assembly {\n        /* \"contracts/Staking.sol\":781:10214  contract Staking is ReentrancyGuard, Ownable {... */\n      mstore(0x40, 0x80)\n      callvalue\n      dup1\n      iszero\n      tag_1\n      jumpi\n      0x00\n      dup1\n      revert\n    tag_1:\n      pop\n      jumpi(tag_2, lt(calldatasize, 0x04))\n      shr(0xe0, calldataload(0x00))\n      dup1\n      0x8da5cb5b\n      gt\n      tag_20\n      jumpi\n      dup1\n      0xbed9d861\n      gt\n      tag_21\n      jumpi\n      dup1\n      0xbed9d861\n      eq\n      tag_15\n      jumpi\n      dup1\n      0xcb79c2e1\n      eq\n      tag_16\n      jumpi\n      dup1\n      0xd2a569c3\n      eq\n      tag_17\n      jumpi\n      dup1\n      0xd5dbdf1b\n      eq\n      tag_18\n      jumpi\n      dup1\n      0xf2fde38b\n      eq\n      tag_19\n      jumpi\n      jump(tag_2)\n    tag_21:\n      dup1\n      0x8da5cb5b\n      eq\n      tag_11\n      jumpi\n      dup1\n      0xadb61832\n      eq\n      tag_12\n      jumpi\n      dup1\n      0xb5d9df83\n      eq\n      tag_13\n      jumpi\n      dup1\n      0xb87da76d\n      eq\n      tag_14\n      jumpi\n      jump(tag_2)\n    tag_20:\n      dup1\n      0x7b0472f0\n      gt\n      tag_22\n      jumpi\n      dup1\n      0x7b0472f0\n      eq\n      tag_7\n      jumpi\n      dup1\n      0x8891cf0d\n      eq\n      tag_8\n      jumpi\n      dup1\n      0x8c63f97f\n      eq\n      tag_9\n      jumpi\n      dup1\n      0x8c8e8fee\n      eq\n      tag_10\n      jumpi\n      jump(tag_2)\n    tag_22:\n      dup1\n      0x10486b6a\n      eq\n      tag_3\n      jumpi\n      dup1\n      0x2cf1a5fb\n      eq\n      tag_4\n      jumpi\n      dup1\n      0x5b88349d\n      eq\n      tag_5\n      jumpi\n      dup1\n      0x715018a6\n      eq\n      tag_6\n      jumpi\n    tag_2:\n      0x00\n      dup1\n      revert\n        /* \"contracts/Staking.sol\":7507:8558  function hasStake() external view returns (StakingSummary memory) {... */\n    tag_3:\n      tag_23\n      tag_24\n      jump\t// in\n    tag_23:\n      mload(0x40)\n      tag_25\n      swap2\n      swap1\n      tag_26\n      jump\t// in\n    tag_25:\n      mload(0x40)\n      dup1\n      swap2\n      sub\n      swap1\n      return\n        /* \"contracts/Staking.sol\":1170:1195  bool public airdropStatus */\n    tag_4:\n      tag_27\n      tag_28\n      jump\t// in\n    tag_27:\n      mload(0x40)\n      tag_29\n      swap2\n      swap1\n      tag_30\n      jump\t// in\n    tag_29:\n      mload(0x40)\n      dup1\n      swap2\n      sub\n      swap1\n      return\n        /* \"contracts/Staking.sol\":9495:10211  function claimAirdrop() external airdropStatusTrue {... */\n    tag_5:\n      tag_31\n      tag_32\n      jump\t// in\n    tag_31:\n      stop\n        /* \"@openzeppelin/contracts/access/Ownable.sol\":1668:1769  function renounceOwnership() public virtual onlyOwner {... */\n    tag_6:\n      tag_33\n      tag_34\n      jump\t// in\n    tag_33:\n      stop\n        /* \"contracts/Staking.sol\":3577:4849  function stake(uint256 amount, uint256 stakePeriod) external nonReentrant {... */\n    tag_7:\n      tag_35\n      0x04\n      dup1\n      calldatasize\n      sub\n      dup2\n      add\n      swap1\n      tag_36\n      swap2\n      swap1\n      tag_37\n      jump\t// in\n    tag_36:\n      tag_38\n      jump\t// in\n    tag_35:\n      stop\n        /* \"contracts/Staking.sol\":1103:1129  uint256 public airdropRate */\n    tag_8:\n      tag_39\n      tag_40\n      jump\t// in\n    tag_39:\n      mload(0x40)\n      tag_41\n      swap2\n      swap1\n      tag_42\n      jump\t// in\n    tag_41:\n      mload(0x40)\n      dup1\n      swap2\n      sub\n      swap1\n      return\n        /* \"contracts/Staking.sol\":4857:5170  function changePenaltyFee(uint256 amount) external onlyOwner {... */\n    tag_9:\n      tag_43\n      0x04\n      dup1\n      calldatasize\n      sub\n      dup2\n      add\n      swap1\n      tag_44\n      swap2\n      swap1\n      tag_45\n      jump\t// in\n    tag_44:\n      tag_46\n      jump\t// in\n    tag_43:\n      stop\n        /* \"contracts/Staking.sol\":1204:1232  address public token_address */\n    tag_10:\n      tag_47\n      tag_48\n      jump\t// in\n    tag_47:\n      mload(0x40)\n      tag_49\n      swap2\n      swap1\n      tag_50\n      jump\t// in\n    tag_49:\n      mload(0x40)\n      dup1\n      swap2\n      sub\n      swap1\n      return\n        /* \"@openzeppelin/contracts/access/Ownable.sol\":1036:1121  function owner() public view virtual returns (address) {... */\n    tag_11:\n      tag_51\n      tag_52\n      jump\t// in\n    tag_51:\n      mload(0x40)\n      tag_53\n      swap2\n      swap1\n      tag_50\n      jump\t// in\n    tag_53:\n      mload(0x40)\n      dup1\n      swap2\n      sub\n      swap1\n      return\n        /* \"contracts/Staking.sol\":9053:9150  function blockTimestamp() public view returns (uint256) {... */\n    tag_12:\n      tag_54\n      tag_55\n      jump\t// in\n    tag_54:\n      mload(0x40)\n      tag_56\n      swap2\n      swap1\n      tag_42\n      jump\t// in\n    tag_56:\n      mload(0x40)\n      dup1\n      swap2\n      sub\n      swap1\n      return\n        /* \"contracts/Staking.sol\":9158:9294  function calculateWeek(uint256 timestamp) public view returns (uint256) {... */\n    tag_13:\n      tag_57\n      0x04\n      dup1\n      calldatasize\n      sub\n      dup2\n      add\n      swap1\n      tag_58\n      swap2\n      swap1\n      tag_45\n      jump\t// in\n    tag_58:\n      tag_59\n      jump\t// in\n    tag_57:\n      mload(0x40)\n      tag_60\n      swap2\n      swap1\n      tag_42\n      jump\t// in\n    tag_60:\n      mload(0x40)\n      dup1\n      swap2\n      sub\n      swap1\n      return\n        /* \"contracts/Staking.sol\":1136:1163  uint256 public airdropSince */\n    tag_14:\n      tag_61\n      tag_62\n      jump\t// in\n    tag_61:\n      mload(0x40)\n      tag_63\n      swap2\n      swap1\n      tag_42\n      jump\t// in\n    tag_63:\n      mload(0x40)\n      dup1\n      swap2\n      sub\n      swap1\n      return\n        /* \"contracts/Staking.sol\":6470:7499  function withdrawStake() external nonReentrant {... */\n    tag_15:\n      tag_64\n      tag_65\n      jump\t// in\n    tag_64:\n      stop\n        /* \"contracts/Staking.sol\":1063:1096  uint256 public stakingPenaltyRate */\n    tag_16:\n      tag_66\n      tag_67\n      jump\t// in\n    tag_66:\n      mload(0x40)\n      tag_68\n      swap2\n      swap1\n      tag_42\n      jump\t// in\n    tag_68:\n      mload(0x40)\n      dup1\n      swap2\n      sub\n      swap1\n      return\n        /* \"contracts/Staking.sol\":8674:8797  function startAirdrop() external onlyOwner {... */\n    tag_17:\n      tag_69\n      tag_70\n      jump\t// in\n    tag_69:\n      stop\n        /* \"contracts/Staking.sol\":8805:9045  function changeAirdropPercentage(uint256 amount) external onlyOwner {... */\n    tag_18:\n      tag_71\n      0x04\n      dup1\n      calldatasize\n      sub\n      dup2\n      add\n      swap1\n      tag_72\n      swap2\n      swap1\n      tag_45\n      jump\t// in\n    tag_72:\n      tag_73\n      jump\t// in\n    tag_71:\n      stop\n        /* \"@openzeppelin/contracts/access/Ownable.sol\":1918:2116  function transferOwnership(address newOwner) public virtual onlyOwner {... */\n    tag_19:\n      tag_74\n      0x04\n      dup1\n      calldatasize\n      sub\n      dup2\n      add\n      swap1\n      tag_75\n      swap2\n      swap1\n      tag_76\n      jump\t// in\n    tag_75:\n      tag_77\n      jump\t// in\n    tag_74:\n      stop\n        /* \"contracts/Staking.sol\":7507:8558  function hasStake() external view returns (StakingSummary memory) {... */\n    tag_24:\n        /* \"contracts/Staking.sol\":7550:7571  StakingSummary memory */\n      tag_78\n      tag_79\n      jump\t// in\n    tag_78:\n        /* \"contracts/Staking.sol\":7584:7607  Stake memory user_stake */\n      0x00\n        /* \"contracts/Staking.sol\":7610:7622  stakeholders */\n      0x07\n        /* \"contracts/Staking.sol\":7610:7634  stakeholders[msg.sender] */\n      0x00\n        /* \"contracts/Staking.sol\":7623:7633  msg.sender */\n      caller\n        /* \"contracts/Staking.sol\":7610:7634  stakeholders[msg.sender] */\n      0xffffffffffffffffffffffffffffffffffffffff\n      and\n      0xffffffffffffffffffffffffffffffffffffffff\n      and\n      dup2\n      mstore\n      0x20\n      add\n      swap1\n      dup2\n      mstore\n      0x20\n      add\n      0x00\n      keccak256\n        /* \"contracts/Staking.sol\":7584:7634  Stake memory user_stake = stakeholders[msg.sender] */\n      mload(0x40)\n      dup1\n      0xe0\n      add\n      0x40\n      mstore\n      swap1\n      dup2\n      0x00\n      dup3\n      add\n      sload\n      dup2\n      mstore\n      0x20\n      add\n      0x01\n      dup3\n      add\n      sload\n      dup2\n      mstore\n      0x20\n      add\n      0x02\n      dup3\n      add\n      sload\n      dup2\n      mstore\n      0x20\n      add\n      0x03\n      dup3\n      add\n      sload\n      dup2\n      mstore\n      0x20\n      add\n      0x04\n      dup3\n      add\n      sload\n      dup2\n      mstore\n      0x20\n      add\n      0x05\n      dup3\n      add\n      sload\n      dup2\n      mstore\n      0x20\n      add\n      0x06\n      dup3\n      add\n      sload\n      dup2\n      mstore\n      pop\n      pop\n      swap1\n      pop\n        /* \"contracts/Staking.sol\":7732:7733  0 */\n      0x00\n        /* \"contracts/Staking.sol\":7711:7721  user_stake */\n      dup2\n        /* \"contracts/Staking.sol\":7711:7728  user_stake.amount */\n      0x00\n      add\n      mload\n        /* \"contracts/Staking.sol\":7711:7733  user_stake.amount == 0 */\n      eq\n        /* \"contracts/Staking.sol\":7707:7794  if (user_stake.amount == 0) {... */\n      iszero\n      tag_81\n      jumpi\n        /* \"contracts/Staking.sol\":7757:7782  Staking__noStakingFound() */\n      mload(0x40)\n      0xb018f08700000000000000000000000000000000000000000000000000000000\n      dup2\n      mstore\n      0x04\n      add\n      mload(0x40)\n      dup1\n      swap2\n      sub\n      swap1\n      revert\n        /* \"contracts/Staking.sol\":7707:7794  if (user_stake.amount == 0) {... */\n    tag_81:\n        /* \"contracts/Staking.sol\":7804:7833  StakingSummary memory summary */\n      0x00\n        /* \"contracts/Staking.sol\":7836:7868  StakingSummary(0, 0, user_stake) */\n      mload(0x40)\n      dup1\n      0x60\n      add\n      0x40\n      mstore\n      dup1\n        /* \"contracts/Staking.sol\":7851:7852  0 */\n      0x00\n        /* \"contracts/Staking.sol\":7836:7868  StakingSummary(0, 0, user_stake) */\n      dup2\n      mstore\n      0x20\n      add\n        /* \"contracts/Staking.sol\":7854:7855  0 */\n      0x00\n        /* \"contracts/Staking.sol\":7836:7868  StakingSummary(0, 0, user_stake) */\n      dup2\n      mstore\n      0x20\n      add\n        /* \"contracts/Staking.sol\":7857:7867  user_stake */\n      dup4\n        /* \"contracts/Staking.sol\":7836:7868  StakingSummary(0, 0, user_stake) */\n      dup2\n      mstore\n      pop\n        /* \"contracts/Staking.sol\":7804:7868  StakingSummary memory summary = StakingSummary(0, 0, user_stake) */\n      swap1\n      pop\n        /* \"contracts/Staking.sol\":7881:7895  uint256 reward */\n      0x00\n        /* \"contracts/Staking.sol\":7898:7931  _calculateStakeReward(user_stake) */\n      tag_82\n        /* \"contracts/Staking.sol\":7920:7930  user_stake */\n      dup4\n        /* \"contracts/Staking.sol\":7898:7919  _calculateStakeReward */\n      tag_83\n        /* \"contracts/Staking.sol\":7898:7931  _calculateStakeReward(user_stake) */\n      jump\t// in\n    tag_82:\n        /* \"contracts/Staking.sol\":7881:7931  uint256 reward = _calculateStakeReward(user_stake) */\n      swap1\n      pop\n        /* \"contracts/Staking.sol\":7976:7991  block.timestamp */\n      timestamp\n        /* \"contracts/Staking.sol\":7948:7955  summary */\n      dup3\n        /* \"contracts/Staking.sol\":7948:7961  summary.stake */\n      0x40\n      add\n      mload\n        /* \"contracts/Staking.sol\":7948:7973  summary.stake.releaseTime */\n      0x60\n      add\n      mload\n        /* \"contracts/Staking.sol\":7948:7991  summary.stake.releaseTime > block.timestamp */\n      gt\n        /* \"contracts/Staking.sol\":7944:8162  if (summary.stake.releaseTime > block.timestamp) {... */\n      iszero\n      tag_84\n      jumpi\n        /* \"contracts/Staking.sol\":8145:8149  1000 */\n      0x03e8\n        /* \"contracts/Staking.sol\":8123:8141  stakingPenaltyRate */\n      sload(0x03)\n        /* \"contracts/Staking.sol\":8114:8120  reward */\n      dup3\n        /* \"contracts/Staking.sol\":8114:8141  reward * stakingPenaltyRate */\n      tag_85\n      swap2\n      swap1\n      tag_86\n      jump\t// in\n    tag_85:\n        /* \"contracts/Staking.sol\":8113:8149  (reward * stakingPenaltyRate) / 1000 */\n      tag_87\n      swap2\n      swap1\n      tag_88\n      jump\t// in\n    tag_87:\n        /* \"contracts/Staking.sol\":8087:8091  1000 */\n      0x03e8\n        /* \"contracts/Staking.sol\":8065:8083  stakingPenaltyRate */\n      sload(0x03)\n        /* \"contracts/Staking.sol\":8045:8055  user_stake */\n      dup6\n        /* \"contracts/Staking.sol\":8045:8062  user_stake.amount */\n      0x00\n      add\n      mload\n        /* \"contracts/Staking.sol\":8045:8083  user_stake.amount * stakingPenaltyRate */\n      tag_89\n      swap2\n      swap1\n      tag_86\n      jump\t// in\n    tag_89:\n        /* \"contracts/Staking.sol\":8044:8091  (user_stake.amount * stakingPenaltyRate) / 1000 */\n      tag_90\n      swap2\n      swap1\n      tag_88\n      jump\t// in\n    tag_90:\n        /* \"contracts/Staking.sol\":8043:8150  ((user_stake.amount * stakingPenaltyRate) / 1000) +... */\n      tag_91\n      swap2\n      swap1\n      tag_92\n      jump\t// in\n    tag_91:\n        /* \"contracts/Staking.sol\":8008:8015  summary */\n      dup3\n        /* \"contracts/Staking.sol\":8008:8023  summary.penalty */\n      0x20\n      add\n        /* \"contracts/Staking.sol\":8008:8150  summary.penalty =... */\n      dup2\n      dup2\n      mstore\n      pop\n      pop\n        /* \"contracts/Staking.sol\":7944:8162  if (summary.stake.releaseTime > block.timestamp) {... */\n    tag_84:\n        /* \"contracts/Staking.sol\":8222:8223  0 */\n      0x00\n        /* \"contracts/Staking.sol\":8178:8219  calculateWeek(user_stake.latestClaimDrop) */\n      tag_93\n        /* \"contracts/Staking.sol\":8192:8202  user_stake */\n      dup5\n        /* \"contracts/Staking.sol\":8192:8218  user_stake.latestClaimDrop */\n      0xc0\n      add\n      mload\n        /* \"contracts/Staking.sol\":8178:8191  calculateWeek */\n      tag_59\n        /* \"contracts/Staking.sol\":8178:8219  calculateWeek(user_stake.latestClaimDrop) */\n      jump\t// in\n    tag_93:\n        /* \"contracts/Staking.sol\":8178:8223  calculateWeek(user_stake.latestClaimDrop) > 0 */\n      gt\n        /* \"contracts/Staking.sol\":8174:8428  if (calculateWeek(user_stake.latestClaimDrop) > 0) {... */\n      iszero\n      tag_94\n      jumpi\n        /* \"contracts/Staking.sol\":8240:8255  uint256 airdrop */\n      0x00\n        /* \"contracts/Staking.sol\":8258:8294  _calculateAirdrop(user_stake.amount) */\n      tag_95\n        /* \"contracts/Staking.sol\":8276:8286  user_stake */\n      dup5\n        /* \"contracts/Staking.sol\":8276:8293  user_stake.amount */\n      0x00\n      add\n      mload\n        /* \"contracts/Staking.sol\":8258:8275  _calculateAirdrop */\n      tag_96\n        /* \"contracts/Staking.sol\":8258:8294  _calculateAirdrop(user_stake.amount) */\n      jump\t// in\n    tag_95:\n        /* \"contracts/Staking.sol\":8240:8294  uint256 airdrop = _calculateAirdrop(user_stake.amount) */\n      swap1\n      pop\n        /* \"contracts/Staking.sol\":8342:8349  airdrop */\n      dup1\n        /* \"contracts/Staking.sol\":8309:8316  summary */\n      dup4\n        /* \"contracts/Staking.sol\":8309:8322  summary.stake */\n      0x40\n      add\n      mload\n        /* \"contracts/Staking.sol\":8309:8339  summary.stake.claimableAirdrop */\n      0xa0\n      add\n        /* \"contracts/Staking.sol\":8309:8349  summary.stake.claimableAirdrop = airdrop */\n      dup2\n      dup2\n      mstore\n      pop\n      pop\n        /* \"contracts/Staking.sol\":8225:8361  {... */\n      pop\n        /* \"contracts/Staking.sol\":8174:8428  if (calculateWeek(user_stake.latestClaimDrop) > 0) {... */\n      jump(tag_97)\n    tag_94:\n        /* \"contracts/Staking.sol\":8415:8416  0 */\n      0x00\n        /* \"contracts/Staking.sol\":8382:8389  summary */\n      dup3\n        /* \"contracts/Staking.sol\":8382:8395  summary.stake */\n      0x40\n      add\n      mload\n        /* \"contracts/Staking.sol\":8382:8412  summary.stake.claimableAirdrop */\n      0xa0\n      add\n        /* \"contracts/Staking.sol\":8382:8416  summary.stake.claimableAirdrop = 0 */\n      dup2\n      dup2\n      mstore\n      pop\n      pop\n        /* \"contracts/Staking.sol\":8174:8428  if (calculateWeek(user_stake.latestClaimDrop) > 0) {... */\n    tag_97:\n        /* \"contracts/Staking.sol\":8466:8472  reward */\n      dup1\n        /* \"contracts/Staking.sol\":8440:8447  summary */\n      dup3\n        /* \"contracts/Staking.sol\":8440:8453  summary.stake */\n      0x40\n      add\n      mload\n        /* \"contracts/Staking.sol\":8440:8463  summary.stake.claimable */\n      0x80\n      add\n        /* \"contracts/Staking.sol\":8440:8472  summary.stake.claimable = reward */\n      dup2\n      dup2\n      mstore\n      pop\n      pop\n        /* \"contracts/Staking.sol\":8506:8516  user_stake */\n      dup3\n        /* \"contracts/Staking.sol\":8506:8523  user_stake.amount */\n      0x00\n      add\n      mload\n        /* \"contracts/Staking.sol\":8483:8490  summary */\n      dup3\n        /* \"contracts/Staking.sol\":8483:8503  summary.total_amount */\n      0x00\n      add\n        /* \"contracts/Staking.sol\":8483:8523  summary.total_amount = user_stake.amount */\n      dup2\n      dup2\n      mstore\n      pop\n      pop\n        /* \"contracts/Staking.sol\":8543:8550  summary */\n      dup2\n        /* \"contracts/Staking.sol\":8536:8550  return summary */\n      swap4\n      pop\n      pop\n      pop\n      pop\n        /* \"contracts/Staking.sol\":7507:8558  function hasStake() external view returns (StakingSummary memory) {... */\n      swap1\n      jump\t// out\n        /* \"contracts/Staking.sol\":1170:1195  bool public airdropStatus */\n    tag_28:\n      0x06\n      0x00\n      swap1\n      sload\n      swap1\n      0x0100\n      exp\n      swap1\n      div\n      0xff\n      and\n      dup2\n      jump\t// out\n        /* \"contracts/Staking.sol\":9495:10211  function claimAirdrop() external airdropStatusTrue {... */\n    tag_32:\n        /* \"contracts/Staking.sol\":3210:3231  _checkAirdropStatus() */\n      tag_99\n        /* \"contracts/Staking.sol\":3210:3229  _checkAirdropStatus */\n      tag_100\n        /* \"contracts/Staking.sol\":3210:3231  _checkAirdropStatus() */\n      jump\t// in\n    tag_99:\n        /* \"contracts/Staking.sol\":9610:9630  Stake storage staker */\n      0x00\n        /* \"contracts/Staking.sol\":9633:9645  stakeholders */\n      0x07\n        /* \"contracts/Staking.sol\":9633:9657  stakeholders[msg.sender] */\n      0x00\n        /* \"contracts/Staking.sol\":9646:9656  msg.sender */\n      caller\n        /* \"contracts/Staking.sol\":9633:9657  stakeholders[msg.sender] */\n      0xffffffffffffffffffffffffffffffffffffffff\n      and\n      0xffffffffffffffffffffffffffffffffffffffff\n      and\n      dup2\n      mstore\n      0x20\n      add\n      swap1\n      dup2\n      mstore\n      0x20\n      add\n      0x00\n      keccak256\n        /* \"contracts/Staking.sol\":9610:9657  Stake storage staker = stakeholders[msg.sender] */\n      swap1\n      pop\n        /* \"contracts/Staking.sol\":9689:9690  0 */\n      0x00\n        /* \"contracts/Staking.sol\":9672:9678  staker */\n      dup2\n        /* \"contracts/Staking.sol\":9672:9685  staker.amount */\n      0x00\n      add\n      sload\n        /* \"contracts/Staking.sol\":9672:9690  staker.amount == 0 */\n      eq\n        /* \"contracts/Staking.sol\":9668:9751  if (staker.amount == 0) {... */\n      iszero\n      tag_102\n      jumpi\n        /* \"contracts/Staking.sol\":9714:9739  Staking__noStakingFound() */\n      mload(0x40)\n      0xb018f08700000000000000000000000000000000000000000000000000000000\n      dup2\n      mstore\n      0x04\n      add\n      mload(0x40)\n      dup1\n      swap2\n      sub\n      swap1\n      revert\n        /* \"contracts/Staking.sol\":9668:9751  if (staker.amount == 0) {... */\n    tag_102:\n        /* \"contracts/Staking.sol\":9783:9784  0 */\n      0x00\n        /* \"contracts/Staking.sol\":9767:9773  staker */\n      dup2\n        /* \"contracts/Staking.sol\":9767:9780  staker.amount */\n      0x00\n      add\n      sload\n        /* \"contracts/Staking.sol\":9767:9784  staker.amount > 0 */\n      gt\n        /* \"contracts/Staking.sol\":9763:10204  if (staker.amount > 0) {... */\n      iszero\n      tag_103\n      jumpi\n        /* \"contracts/Staking.sol\":9846:9847  0 */\n      0x00\n        /* \"contracts/Staking.sol\":9805:9842  calculateWeek(staker.latestClaimDrop) */\n      tag_104\n        /* \"contracts/Staking.sol\":9819:9825  staker */\n      dup3\n        /* \"contracts/Staking.sol\":9819:9841  staker.latestClaimDrop */\n      0x06\n      add\n      sload\n        /* \"contracts/Staking.sol\":9805:9818  calculateWeek */\n      tag_59\n        /* \"contracts/Staking.sol\":9805:9842  calculateWeek(staker.latestClaimDrop) */\n      jump\t// in\n    tag_104:\n        /* \"contracts/Staking.sol\":9805:9847  calculateWeek(staker.latestClaimDrop) == 0 */\n      eq\n        /* \"contracts/Staking.sol\":9801:9920  if (calculateWeek(staker.latestClaimDrop) == 0) {... */\n      iszero\n      tag_105\n      jumpi\n        /* \"contracts/Staking.sol\":9875:9904  Airdrop__claimableOnceAWeek() */\n      mload(0x40)\n      0xdd8456cc00000000000000000000000000000000000000000000000000000000\n      dup2\n      mstore\n      0x04\n      add\n      mload(0x40)\n      dup1\n      swap2\n      sub\n      swap1\n      revert\n        /* \"contracts/Staking.sol\":9801:9920  if (calculateWeek(staker.latestClaimDrop) == 0) {... */\n    tag_105:\n        /* \"contracts/Staking.sol\":9962:9963  0 */\n      0x00\n        /* \"contracts/Staking.sol\":9936:9942  staker */\n      dup2\n        /* \"contracts/Staking.sol\":9936:9959  staker.claimableAirdrop */\n      0x05\n      add\n        /* \"contracts/Staking.sol\":9936:9963  staker.claimableAirdrop = 0 */\n      dup2\n      swap1\n      sstore\n      pop\n        /* \"contracts/Staking.sol\":10003:10018  block.timestamp */\n      timestamp\n        /* \"contracts/Staking.sol\":9978:9984  staker */\n      dup2\n        /* \"contracts/Staking.sol\":9978:10000  staker.latestClaimDrop */\n      0x06\n      add\n        /* \"contracts/Staking.sol\":9978:10018  staker.latestClaimDrop = block.timestamp */\n      dup2\n      swap1\n      sstore\n      pop\n        /* \"contracts/Staking.sol\":10035:10192  SafeERC20.safeTransfer(... */\n      tag_106\n        /* \"contracts/Staking.sol\":10083:10096  token_address */\n      0x06\n      0x01\n      swap1\n      sload\n      swap1\n      0x0100\n      exp\n      swap1\n      div\n      0xffffffffffffffffffffffffffffffffffffffff\n      and\n        /* \"contracts/Staking.sol\":10116:10126  msg.sender */\n      caller\n        /* \"contracts/Staking.sol\":10145:10177  _calculateAirdrop(staker.amount) */\n      tag_107\n        /* \"contracts/Staking.sol\":10163:10169  staker */\n      dup5\n        /* \"contracts/Staking.sol\":10163:10176  staker.amount */\n      0x00\n      add\n      sload\n        /* \"contracts/Staking.sol\":10145:10162  _calculateAirdrop */\n      tag_96\n        /* \"contracts/Staking.sol\":10145:10177  _calculateAirdrop(staker.amount) */\n      jump\t// in\n    tag_107:\n        /* \"contracts/Staking.sol\":10035:10057  SafeERC20.safeTransfer */\n      tag_108\n        /* \"contracts/Staking.sol\":10035:10192  SafeERC20.safeTransfer(... */\n      jump\t// in\n    tag_106:\n        /* \"contracts/Staking.sol\":9763:10204  if (staker.amount > 0) {... */\n    tag_103:\n        /* \"contracts/Staking.sol\":9546:10211  {... */\n      pop\n        /* \"contracts/Staking.sol\":9495:10211  function claimAirdrop() external airdropStatusTrue {... */\n      jump\t// out\n        /* \"@openzeppelin/contracts/access/Ownable.sol\":1668:1769  function renounceOwnership() public virtual onlyOwner {... */\n    tag_34:\n        /* \"@openzeppelin/contracts/access/Ownable.sol\":1259:1271  _msgSender() */\n      tag_110\n        /* \"@openzeppelin/contracts/access/Ownable.sol\":1259:1269  _msgSender */\n      tag_111\n        /* \"@openzeppelin/contracts/access/Ownable.sol\":1259:1271  _msgSender() */\n      jump\t// in\n    tag_110:\n        /* \"@openzeppelin/contracts/access/Ownable.sol\":1248:1271  owner() == _msgSender() */\n      0xffffffffffffffffffffffffffffffffffffffff\n      and\n        /* \"@openzeppelin/contracts/access/Ownable.sol\":1248:1255  owner() */\n      tag_112\n        /* \"@openzeppelin/contracts/access/Ownable.sol\":1248:1253  owner */\n      tag_52\n        /* \"@openzeppelin/contracts/access/Ownable.sol\":1248:1255  owner() */\n      jump\t// in\n    tag_112:\n        /* \"@openzeppelin/contracts/access/Ownable.sol\":1248:1271  owner() == _msgSender() */\n      0xffffffffffffffffffffffffffffffffffffffff\n      and\n      eq\n        /* \"@openzeppelin/contracts/access/Ownable.sol\":1240:1308  require(owner() == _msgSender(), \"Ownable: caller is not the owner\") */\n      tag_113\n      jumpi\n      mload(0x40)\n      0x08c379a000000000000000000000000000000000000000000000000000000000\n      dup2\n      mstore\n      0x04\n      add\n      tag_114\n      swap1\n      tag_115\n      jump\t// in\n    tag_114:\n      mload(0x40)\n      dup1\n      swap2\n      sub\n      swap1\n      revert\n    tag_113:\n        /* \"@openzeppelin/contracts/access/Ownable.sol\":1732:1762  _transferOwnership(address(0)) */\n      tag_117\n        /* \"@openzeppelin/contracts/access/Ownable.sol\":1759:1760  0 */\n      0x00\n        /* \"@openzeppelin/contracts/access/Ownable.sol\":1732:1750  _transferOwnership */\n      tag_118\n        /* \"@openzeppelin/contracts/access/Ownable.sol\":1732:1762  _transferOwnership(address(0)) */\n      jump\t// in\n    tag_117:\n        /* \"@openzeppelin/contracts/access/Ownable.sol\":1668:1769  function renounceOwnership() public virtual onlyOwner {... */\n      jump\t// out\n        /* \"contracts/Staking.sol\":3577:4849  function stake(uint256 amount, uint256 stakePeriod) external nonReentrant {... */\n    tag_38:\n        /* \"@openzeppelin/contracts/security/ReentrancyGuard.sol\":1744:1745  2 */\n      0x02\n        /* \"@openzeppelin/contracts/security/ReentrancyGuard.sol\":2325:2332  _status */\n      sload(0x00)\n        /* \"@openzeppelin/contracts/security/ReentrancyGuard.sol\":2325:2344  _status != _ENTERED */\n      eq\n      iszero\n        /* \"@openzeppelin/contracts/security/ReentrancyGuard.sol\":2317:2380  require(_status != _ENTERED, \"ReentrancyGuard: reentrant call\") */\n      tag_120\n      jumpi\n      mload(0x40)\n      0x08c379a000000000000000000000000000000000000000000000000000000000\n      dup2\n      mstore\n      0x04\n      add\n      tag_121\n      swap1\n      tag_122\n      jump\t// in\n    tag_121:\n      mload(0x40)\n      dup1\n      swap2\n      sub\n      swap1\n      revert\n    tag_120:\n        /* \"@openzeppelin/contracts/security/ReentrancyGuard.sol\":1744:1745  2 */\n      0x02\n        /* \"@openzeppelin/contracts/security/ReentrancyGuard.sol\":2455:2462  _status */\n      0x00\n        /* \"@openzeppelin/contracts/security/ReentrancyGuard.sol\":2455:2473  _status = _ENTERED */\n      dup2\n      swap1\n      sstore\n      pop\n        /* \"contracts/Staking.sol\":3886:3887  0 */\n      0x00\n        /* \"contracts/Staking.sol\":3851:3863  stakeholders */\n      0x07\n        /* \"contracts/Staking.sol\":3851:3875  stakeholders[msg.sender] */\n      0x00\n        /* \"contracts/Staking.sol\":3864:3874  msg.sender */\n      caller\n        /* \"contracts/Staking.sol\":3851:3875  stakeholders[msg.sender] */\n      0xffffffffffffffffffffffffffffffffffffffff\n      and\n      0xffffffffffffffffffffffffffffffffffffffff\n      and\n      dup2\n      mstore\n      0x20\n      add\n      swap1\n      dup2\n      mstore\n      0x20\n      add\n      0x00\n      keccak256\n        /* \"contracts/Staking.sol\":3851:3882  stakeholders[msg.sender].amount */\n      0x00\n      add\n      sload\n        /* \"contracts/Staking.sol\":3851:3887  stakeholders[msg.sender].amount != 0 */\n      eq\n        /* \"contracts/Staking.sol\":3847:3946  if (stakeholders[msg.sender].amount != 0) {... */\n      tag_124\n      jumpi\n        /* \"contracts/Staking.sol\":3911:3934  Staking__userIsStaker() */\n      mload(0x40)\n      0x04462d2700000000000000000000000000000000000000000000000000000000\n      dup2\n      mstore\n      0x04\n      add\n      mload(0x40)\n      dup1\n      swap2\n      sub\n      swap1\n      revert\n        /* \"contracts/Staking.sol\":3847:3946  if (stakeholders[msg.sender].amount != 0) {... */\n    tag_124:\n        /* \"contracts/Staking.sol\":3993:3994  0 */\n      0x00\n        /* \"contracts/Staking.sol\":3962:3976  stakingPackage */\n      0x02\n        /* \"contracts/Staking.sol\":3962:3989  stakingPackage[stakePeriod] */\n      0x00\n        /* \"contracts/Staking.sol\":3977:3988  stakePeriod */\n      dup4\n        /* \"contracts/Staking.sol\":3962:3989  stakingPackage[stakePeriod] */\n      dup2\n      mstore\n      0x20\n      add\n      swap1\n      dup2\n      mstore\n      0x20\n      add\n      0x00\n      keccak256\n      sload\n        /* \"contracts/Staking.sol\":3962:3994  stakingPackage[stakePeriod] == 0 */\n      eq\n        /* \"contracts/Staking.sol\":3958:4061  if (stakingPackage[stakePeriod] == 0) {... */\n      iszero\n      tag_125\n      jumpi\n        /* \"contracts/Staking.sol\":4018:4049  Staking_noStakingPackageFound() */\n      mload(0x40)\n      0x95377be400000000000000000000000000000000000000000000000000000000\n      dup2\n      mstore\n      0x04\n      add\n      mload(0x40)\n      dup1\n      swap2\n      sub\n      swap1\n      revert\n        /* \"contracts/Staking.sol\":3958:4061  if (stakingPackage[stakePeriod] == 0) {... */\n    tag_125:\n        /* \"contracts/Staking.sol\":4161:4178  uint256 timestamp */\n      0x00\n        /* \"contracts/Staking.sol\":4181:4196  block.timestamp */\n      timestamp\n        /* \"contracts/Staking.sol\":4161:4196  uint256 timestamp = block.timestamp */\n      swap1\n      pop\n        /* \"contracts/Staking.sol\":4357:4548  Stake(... */\n      mload(0x40)\n      dup1\n      0xe0\n      add\n      0x40\n      mstore\n      dup1\n        /* \"contracts/Staking.sol\":4377:4383  amount */\n      dup5\n        /* \"contracts/Staking.sol\":4357:4548  Stake(... */\n      dup2\n      mstore\n      0x20\n      add\n        /* \"contracts/Staking.sol\":4398:4407  timestamp */\n      dup3\n        /* \"contracts/Staking.sol\":4357:4548  Stake(... */\n      dup2\n      mstore\n      0x20\n      add\n        /* \"contracts/Staking.sol\":4422:4436  stakingPackage */\n      0x02\n        /* \"contracts/Staking.sol\":4422:4449  stakingPackage[stakePeriod] */\n      0x00\n        /* \"contracts/Staking.sol\":4437:4448  stakePeriod */\n      dup6\n        /* \"contracts/Staking.sol\":4422:4449  stakingPackage[stakePeriod] */\n      dup2\n      mstore\n      0x20\n      add\n      swap1\n      dup2\n      mstore\n      0x20\n      add\n      0x00\n      keccak256\n      sload\n        /* \"contracts/Staking.sol\":4357:4548  Stake(... */\n      dup2\n      mstore\n      0x20\n      add\n        /* \"contracts/Staking.sol\":4479:4488  timestamp */\n      dup3\n        /* \"contracts/Staking.sol\":4465:4476  stakePeriod */\n      dup5\n        /* \"contracts/Staking.sol\":4465:4488  stakePeriod + timestamp */\n      tag_126\n      swap2\n      swap1\n      tag_92\n      jump\t// in\n    tag_126:\n        /* \"contracts/Staking.sol\":4357:4548  Stake(... */\n      dup2\n      mstore\n      0x20\n      add\n        /* \"contracts/Staking.sol\":4504:4505  0 */\n      0x00\n        /* \"contracts/Staking.sol\":4357:4548  Stake(... */\n      dup2\n      mstore\n      0x20\n      add\n        /* \"contracts/Staking.sol\":4520:4521  0 */\n      0x00\n        /* \"contracts/Staking.sol\":4357:4548  Stake(... */\n      dup2\n      mstore\n      0x20\n      add\n        /* \"contracts/Staking.sol\":4536:4537  0 */\n      0x00\n        /* \"contracts/Staking.sol\":4357:4548  Stake(... */\n      dup2\n      mstore\n      pop\n        /* \"contracts/Staking.sol\":4330:4342  stakeholders */\n      0x07\n        /* \"contracts/Staking.sol\":4330:4354  stakeholders[msg.sender] */\n      0x00\n        /* \"contracts/Staking.sol\":4343:4353  msg.sender */\n      caller\n        /* \"contracts/Staking.sol\":4330:4354  stakeholders[msg.sender] */\n      0xffffffffffffffffffffffffffffffffffffffff\n      and\n      0xffffffffffffffffffffffffffffffffffffffff\n      and\n      dup2\n      mstore\n      0x20\n      add\n      swap1\n      dup2\n      mstore\n      0x20\n      add\n      0x00\n      keccak256\n        /* \"contracts/Staking.sol\":4330:4548  stakeholders[msg.sender] = Stake(... */\n      0x00\n      dup3\n      add\n      mload\n      dup2\n      0x00\n      add\n      sstore\n      0x20\n      dup3\n      add\n      mload\n      dup2\n      0x01\n      add\n      sstore\n      0x40\n      dup3\n      add\n      mload\n      dup2\n      0x02\n      add\n      sstore\n      0x60\n      dup3\n      add\n      mload\n      dup2\n      0x03\n      add\n      sstore\n      0x80\n      dup3\n      add\n      mload\n      dup2\n      0x04\n      add\n      sstore\n      0xa0\n      dup3\n      add\n      mload\n      dup2\n      0x05\n      add\n      sstore\n      0xc0\n      dup3\n      add\n      mload\n      dup2\n      0x06\n      add\n      sstore\n      swap1\n      pop\n      pop\n        /* \"contracts/Staking.sol\":4561:4708  SafeERC20.safeTransferFrom(... */\n      tag_127\n        /* \"contracts/Staking.sol\":4609:4622  token_address */\n      0x06\n      0x01\n      swap1\n      sload\n      swap1\n      0x0100\n      exp\n      swap1\n      div\n      0xffffffffffffffffffffffffffffffffffffffff\n      and\n        /* \"contracts/Staking.sol\":4638:4648  msg.sender */\n      caller\n        /* \"contracts/Staking.sol\":4671:4675  this */\n      address\n        /* \"contracts/Staking.sol\":4691:4697  amount */\n      dup7\n        /* \"contracts/Staking.sol\":4561:4587  SafeERC20.safeTransferFrom */\n      tag_128\n        /* \"contracts/Staking.sol\":4561:4708  SafeERC20.safeTransferFrom(... */\n      jump\t// in\n    tag_127:\n        /* \"contracts/Staking.sol\":4784:4794  msg.sender */\n      caller\n        /* \"contracts/Staking.sol\":4777:4841  Staked(msg.sender, amount, timestamp, (stakePeriod + timestamp)) */\n      0xffffffffffffffffffffffffffffffffffffffff\n      and\n      0xb4caaf29adda3eefee3ad552a8e85058589bf834c7466cae4ee58787f70589ed\n        /* \"contracts/Staking.sol\":4796:4802  amount */\n      dup5\n        /* \"contracts/Staking.sol\":4804:4813  timestamp */\n      dup4\n        /* \"contracts/Staking.sol\":4830:4839  timestamp */\n      dup5\n        /* \"contracts/Staking.sol\":4816:4827  stakePeriod */\n      dup7\n        /* \"contracts/Staking.sol\":4816:4839  stakePeriod + timestamp */\n      tag_129\n      swap2\n      swap1\n      tag_92\n      jump\t// in\n    tag_129:\n        /* \"contracts/Staking.sol\":4777:4841  Staked(msg.sender, amount, timestamp, (stakePeriod + timestamp)) */\n      mload(0x40)\n      tag_130\n      swap4\n      swap3\n      swap2\n      swap1\n      tag_131\n      jump\t// in\n    tag_130:\n      mload(0x40)\n      dup1\n      swap2\n      sub\n      swap1\n      log2\n        /* \"contracts/Staking.sol\":3651:4849  {... */\n      pop\n        /* \"@openzeppelin/contracts/security/ReentrancyGuard.sol\":1701:1702  1 */\n      0x01\n        /* \"@openzeppelin/contracts/security/ReentrancyGuard.sol\":2628:2635  _status */\n      0x00\n        /* \"@openzeppelin/contracts/security/ReentrancyGuard.sol\":2628:2650  _status = _NOT_ENTERED */\n      dup2\n      swap1\n      sstore\n      pop\n        /* \"contracts/Staking.sol\":3577:4849  function stake(uint256 amount, uint256 stakePeriod) external nonReentrant {... */\n      pop\n      pop\n      jump\t// out\n        /* \"contracts/Staking.sol\":1103:1129  uint256 public airdropRate */\n    tag_40:\n      sload(0x04)\n      dup2\n      jump\t// out\n        /* \"contracts/Staking.sol\":4857:5170  function changePenaltyFee(uint256 amount) external onlyOwner {... */\n    tag_46:\n        /* \"@openzeppelin/contracts/access/Ownable.sol\":1259:1271  _msgSender() */\n      tag_133\n        /* \"@openzeppelin/contracts/access/Ownable.sol\":1259:1269  _msgSender */\n      tag_111\n        /* \"@openzeppelin/contracts/access/Ownable.sol\":1259:1271  _msgSender() */\n      jump\t// in\n    tag_133:\n        /* \"@openzeppelin/contracts/access/Ownable.sol\":1248:1271  owner() == _msgSender() */\n      0xffffffffffffffffffffffffffffffffffffffff\n      and\n        /* \"@openzeppelin/contracts/access/Ownable.sol\":1248:1255  owner() */\n      tag_134\n        /* \"@openzeppelin/contracts/access/Ownable.sol\":1248:1253  owner */\n      tag_52\n        /* \"@openzeppelin/contracts/access/Ownable.sol\":1248:1255  owner() */\n      jump\t// in\n    tag_134:\n        /* \"@openzeppelin/contracts/access/Ownable.sol\":1248:1271  owner() == _msgSender() */\n      0xffffffffffffffffffffffffffffffffffffffff\n      and\n      eq\n        /* \"@openzeppelin/contracts/access/Ownable.sol\":1240:1308  require(owner() == _msgSender(), \"Ownable: caller is not the owner\") */\n      tag_135\n      jumpi\n      mload(0x40)\n      0x08c379a000000000000000000000000000000000000000000000000000000000\n      dup2\n      mstore\n      0x04\n      add\n      tag_136\n      swap1\n      tag_115\n      jump\t// in\n    tag_136:\n      mload(0x40)\n      dup1\n      swap2\n      sub\n      swap1\n      revert\n    tag_135:\n        /* \"contracts/Staking.sol\":5017:5019  30 */\n      0x1e\n        /* \"contracts/Staking.sol\":5008:5014  amount */\n      dup2\n        /* \"contracts/Staking.sol\":5008:5019  amount > 30 */\n      gt\n        /* \"contracts/Staking.sol\":5004:5087  if (amount > 30) {... */\n      iszero\n      tag_138\n      jumpi\n        /* \"contracts/Staking.sol\":5043:5075  Staking__penaltyExceed3Percent() */\n      mload(0x40)\n      0xf1a470d700000000000000000000000000000000000000000000000000000000\n      dup2\n      mstore\n      0x04\n      add\n      mload(0x40)\n      dup1\n      swap2\n      sub\n      swap1\n      revert\n        /* \"contracts/Staking.sol\":5004:5087  if (amount > 30) {... */\n    tag_138:\n        /* \"contracts/Staking.sol\":5118:5124  amount */\n      dup1\n        /* \"contracts/Staking.sol\":5097:5115  stakingPenaltyRate */\n      0x03\n        /* \"contracts/Staking.sol\":5097:5124  stakingPenaltyRate = amount */\n      dup2\n      swap1\n      sstore\n      pop\n        /* \"contracts/Staking.sol\":5140:5162  PenaltyChanged(amount) */\n      0xcfa4f4cf1cd64d13a167a8e75605e0c0c9d6700e903d17c5dc11f593254a04a9\n        /* \"contracts/Staking.sol\":5155:5161  amount */\n      dup2\n        /* \"contracts/Staking.sol\":5140:5162  PenaltyChanged(amount) */\n      mload(0x40)\n      tag_139\n      swap2\n      swap1\n      tag_42\n      jump\t// in\n    tag_139:\n      mload(0x40)\n      dup1\n      swap2\n      sub\n      swap1\n      log1\n        /* \"contracts/Staking.sol\":4857:5170  function changePenaltyFee(uint256 amount) external onlyOwner {... */\n      pop\n      jump\t// out\n        /* \"contracts/Staking.sol\":1204:1232  address public token_address */\n    tag_48:\n      0x06\n      0x01\n      swap1\n      sload\n      swap1\n      0x0100\n      exp\n      swap1\n      div\n      0xffffffffffffffffffffffffffffffffffffffff\n      and\n      dup2\n      jump\t// out\n        /* \"@openzeppelin/contracts/access/Ownable.sol\":1036:1121  function owner() public view virtual returns (address) {... */\n    tag_52:\n        /* \"@openzeppelin/contracts/access/Ownable.sol\":1082:1089  address */\n      0x00\n        /* \"@openzeppelin/contracts/access/Ownable.sol\":1108:1114  _owner */\n      0x01\n      0x00\n      swap1\n      sload\n      swap1\n      0x0100\n      exp\n      swap1\n      div\n      0xffffffffffffffffffffffffffffffffffffffff\n      and\n        /* \"@openzeppelin/contracts/access/Ownable.sol\":1101:1114  return _owner */\n      swap1\n      pop\n        /* \"@openzeppelin/contracts/access/Ownable.sol\":1036:1121  function owner() public view virtual returns (address) {... */\n      swap1\n      jump\t// out\n        /* \"contracts/Staking.sol\":9053:9150  function blockTimestamp() public view returns (uint256) {... */\n    tag_55:\n        /* \"contracts/Staking.sol\":9100:9107  uint256 */\n      0x00\n        /* \"contracts/Staking.sol\":9127:9142  block.timestamp */\n      timestamp\n        /* \"contracts/Staking.sol\":9120:9142  return block.timestamp */\n      swap1\n      pop\n        /* \"contracts/Staking.sol\":9053:9150  function blockTimestamp() public view returns (uint256) {... */\n      swap1\n      jump\t// out\n        /* \"contracts/Staking.sol\":9158:9294  function calculateWeek(uint256 timestamp) public view returns (uint256) {... */\n    tag_59:\n        /* \"contracts/Staking.sol\":9221:9228  uint256 */\n      0x00\n        /* \"contracts/Staking.sol\":9280:9286  7 days */\n      0x093a80\n        /* \"contracts/Staking.sol\":9267:9276  timestamp */\n      dup3\n        /* \"contracts/Staking.sol\":9249:9264  block.timestamp */\n      timestamp\n        /* \"contracts/Staking.sol\":9249:9276  block.timestamp - timestamp */\n      tag_143\n      swap2\n      swap1\n      tag_144\n      jump\t// in\n    tag_143:\n        /* \"contracts/Staking.sol\":9248:9286  (block.timestamp - timestamp) / 7 days */\n      tag_145\n      swap2\n      swap1\n      tag_88\n      jump\t// in\n    tag_145:\n        /* \"contracts/Staking.sol\":9241:9286  return (block.timestamp - timestamp) / 7 days */\n      swap1\n      pop\n        /* \"contracts/Staking.sol\":9158:9294  function calculateWeek(uint256 timestamp) public view returns (uint256) {... */\n      swap2\n      swap1\n      pop\n      jump\t// out\n        /* \"contracts/Staking.sol\":1136:1163  uint256 public airdropSince */\n    tag_62:\n      sload(0x05)\n      dup2\n      jump\t// out\n        /* \"contracts/Staking.sol\":6470:7499  function withdrawStake() external nonReentrant {... */\n    tag_65:\n        /* \"@openzeppelin/contracts/security/ReentrancyGuard.sol\":1744:1745  2 */\n      0x02\n        /* \"@openzeppelin/contracts/security/ReentrancyGuard.sol\":2325:2332  _status */\n      sload(0x00)\n        /* \"@openzeppelin/contracts/security/ReentrancyGuard.sol\":2325:2344  _status != _ENTERED */\n      eq\n      iszero\n        /* \"@openzeppelin/contracts/security/ReentrancyGuard.sol\":2317:2380  require(_status != _ENTERED, \"ReentrancyGuard: reentrant call\") */\n      tag_147\n      jumpi\n      mload(0x40)\n      0x08c379a000000000000000000000000000000000000000000000000000000000\n      dup2\n      mstore\n      0x04\n      add\n      tag_148\n      swap1\n      tag_122\n      jump\t// in\n    tag_148:\n      mload(0x40)\n      dup1\n      swap2\n      sub\n      swap1\n      revert\n    tag_147:\n        /* \"@openzeppelin/contracts/security/ReentrancyGuard.sol\":1744:1745  2 */\n      0x02\n        /* \"@openzeppelin/contracts/security/ReentrancyGuard.sol\":2455:2462  _status */\n      0x00\n        /* \"@openzeppelin/contracts/security/ReentrancyGuard.sol\":2455:2473  _status = _ENTERED */\n      dup2\n      swap1\n      sstore\n      pop\n        /* \"contracts/Staking.sol\":6638:6661  Stake memory user_stake */\n      0x00\n        /* \"contracts/Staking.sol\":6664:6676  stakeholders */\n      0x07\n        /* \"contracts/Staking.sol\":6664:6688  stakeholders[msg.sender] */\n      0x00\n        /* \"contracts/Staking.sol\":6677:6687  msg.sender */\n      caller\n        /* \"contracts/Staking.sol\":6664:6688  stakeholders[msg.sender] */\n      0xffffffffffffffffffffffffffffffffffffffff\n      and\n      0xffffffffffffffffffffffffffffffffffffffff\n      and\n      dup2\n      mstore\n      0x20\n      add\n      swap1\n      dup2\n      mstore\n      0x20\n      add\n      0x00\n      keccak256\n        /* \"contracts/Staking.sol\":6638:6688  Stake memory user_stake = stakeholders[msg.sender] */\n      mload(0x40)\n      dup1\n      0xe0\n      add\n      0x40\n      mstore\n      swap1\n      dup2\n      0x00\n      dup3\n      add\n      sload\n      dup2\n      mstore\n      0x20\n      add\n      0x01\n      dup3\n      add\n      sload\n      dup2\n      mstore\n      0x20\n      add\n      0x02\n      dup3\n      add\n      sload\n      dup2\n      mstore\n      0x20\n      add\n      0x03\n      dup3\n      add\n      sload\n      dup2\n      mstore\n      0x20\n      add\n      0x04\n      dup3\n      add\n      sload\n      dup2\n      mstore\n      0x20\n      add\n      0x05\n      dup3\n      add\n      sload\n      dup2\n      mstore\n      0x20\n      add\n      0x06\n      dup3\n      add\n      sload\n      dup2\n      mstore\n      pop\n      pop\n      swap1\n      pop\n        /* \"contracts/Staking.sol\":6724:6725  0 */\n      0x00\n        /* \"contracts/Staking.sol\":6703:6713  user_stake */\n      dup2\n        /* \"contracts/Staking.sol\":6703:6720  user_stake.amount */\n      0x00\n      add\n      mload\n        /* \"contracts/Staking.sol\":6703:6725  user_stake.amount == 0 */\n      eq\n        /* \"contracts/Staking.sol\":6699:6786  if (user_stake.amount == 0) {... */\n      iszero\n      tag_150\n      jumpi\n        /* \"contracts/Staking.sol\":6749:6774  Staking__noStakingFound() */\n      mload(0x40)\n      0xb018f08700000000000000000000000000000000000000000000000000000000\n      dup2\n      mstore\n      0x04\n      add\n      mload(0x40)\n      dup1\n      swap2\n      sub\n      swap1\n      revert\n        /* \"contracts/Staking.sol\":6699:6786  if (user_stake.amount == 0) {... */\n    tag_150:\n        /* \"contracts/Staking.sol\":6798:6812  uint256 reward */\n      0x00\n        /* \"contracts/Staking.sol\":6815:6848  _calculateStakeReward(user_stake) */\n      tag_151\n        /* \"contracts/Staking.sol\":6837:6847  user_stake */\n      dup3\n        /* \"contracts/Staking.sol\":6815:6836  _calculateStakeReward */\n      tag_83\n        /* \"contracts/Staking.sol\":6815:6848  _calculateStakeReward(user_stake) */\n      jump\t// in\n    tag_151:\n        /* \"contracts/Staking.sol\":6798:6848  uint256 reward = _calculateStakeReward(user_stake) */\n      swap1\n      pop\n        /* \"contracts/Staking.sol\":6866:6878  stakeholders */\n      0x07\n        /* \"contracts/Staking.sol\":6866:6890  stakeholders[msg.sender] */\n      0x00\n        /* \"contracts/Staking.sol\":6879:6889  msg.sender */\n      caller\n        /* \"contracts/Staking.sol\":6866:6890  stakeholders[msg.sender] */\n      0xffffffffffffffffffffffffffffffffffffffff\n      and\n      0xffffffffffffffffffffffffffffffffffffffff\n      and\n      dup2\n      mstore\n      0x20\n      add\n      swap1\n      dup2\n      mstore\n      0x20\n      add\n      0x00\n      keccak256\n      0x00\n        /* \"contracts/Staking.sol\":6859:6890  delete stakeholders[msg.sender] */\n      dup1\n      dup3\n      add\n      0x00\n      swap1\n      sstore\n      0x01\n      dup3\n      add\n      0x00\n      swap1\n      sstore\n      0x02\n      dup3\n      add\n      0x00\n      swap1\n      sstore\n      0x03\n      dup3\n      add\n      0x00\n      swap1\n      sstore\n      0x04\n      dup3\n      add\n      0x00\n      swap1\n      sstore\n      0x05\n      dup3\n      add\n      0x00\n      swap1\n      sstore\n      0x06\n      dup3\n      add\n      0x00\n      swap1\n      sstore\n      pop\n      pop\n        /* \"contracts/Staking.sol\":6932:6947  block.timestamp */\n      timestamp\n        /* \"contracts/Staking.sol\":6907:6917  user_stake */\n      dup3\n        /* \"contracts/Staking.sol\":6907:6929  user_stake.releaseTime */\n      0x60\n      add\n      mload\n        /* \"contracts/Staking.sol\":6907:6947  user_stake.releaseTime > block.timestamp */\n      gt\n        /* \"contracts/Staking.sol\":6903:7492  if (user_stake.releaseTime > block.timestamp) {... */\n      iszero\n      tag_152\n      jumpi\n        /* \"contracts/Staking.sol\":6983:7005  uint256 amount_reduced */\n      0x00\n        /* \"contracts/Staking.sol\":7024:7046  uint256 reward_reduced */\n      dup1\n        /* \"contracts/Staking.sol\":7064:7119  _calculateStakingWithPenalty(user_stake.amount, reward) */\n      tag_153\n        /* \"contracts/Staking.sol\":7093:7103  user_stake */\n      dup5\n        /* \"contracts/Staking.sol\":7093:7110  user_stake.amount */\n      0x00\n      add\n      mload\n        /* \"contracts/Staking.sol\":7112:7118  reward */\n      dup5\n        /* \"contracts/Staking.sol\":7064:7092  _calculateStakingWithPenalty */\n      tag_154\n        /* \"contracts/Staking.sol\":7064:7119  _calculateStakingWithPenalty(user_stake.amount, reward) */\n      jump\t// in\n    tag_153:\n        /* \"contracts/Staking.sol\":6964:7119  (... */\n      swap2\n      pop\n      swap2\n      pop\n        /* \"contracts/Staking.sol\":7136:7294  SafeERC20.safeTransfer(... */\n      tag_155\n        /* \"contracts/Staking.sol\":7184:7197  token_address */\n      0x06\n      0x01\n      swap1\n      sload\n      swap1\n      0x0100\n      exp\n      swap1\n      div\n      0xffffffffffffffffffffffffffffffffffffffff\n      and\n        /* \"contracts/Staking.sol\":7217:7227  msg.sender */\n      caller\n        /* \"contracts/Staking.sol\":7264:7278  reward_reduced */\n      dup4\n        /* \"contracts/Staking.sol\":7247:7261  amount_reduced */\n      dup6\n        /* \"contracts/Staking.sol\":7247:7278  amount_reduced + reward_reduced */\n      tag_156\n      swap2\n      swap1\n      tag_92\n      jump\t// in\n    tag_156:\n        /* \"contracts/Staking.sol\":7136:7158  SafeERC20.safeTransfer */\n      tag_108\n        /* \"contracts/Staking.sol\":7136:7294  SafeERC20.safeTransfer(... */\n      jump\t// in\n    tag_155:\n        /* \"contracts/Staking.sol\":6949:7306  {... */\n      pop\n      pop\n        /* \"contracts/Staking.sol\":6903:7492  if (user_stake.releaseTime > block.timestamp) {... */\n      jump(tag_157)\n    tag_152:\n        /* \"contracts/Staking.sol\":7327:7480  SafeERC20.safeTransfer(... */\n      tag_158\n        /* \"contracts/Staking.sol\":7375:7388  token_address */\n      0x06\n      0x01\n      swap1\n      sload\n      swap1\n      0x0100\n      exp\n      swap1\n      div\n      0xffffffffffffffffffffffffffffffffffffffff\n      and\n        /* \"contracts/Staking.sol\":7408:7418  msg.sender */\n      caller\n        /* \"contracts/Staking.sol\":7458:7464  reward */\n      dup4\n        /* \"contracts/Staking.sol\":7438:7448  user_stake */\n      dup6\n        /* \"contracts/Staking.sol\":7438:7455  user_stake.amount */\n      0x00\n      add\n      mload\n        /* \"contracts/Staking.sol\":7438:7464  user_stake.amount + reward */\n      tag_159\n      swap2\n      swap1\n      tag_92\n      jump\t// in\n    tag_159:\n        /* \"contracts/Staking.sol\":7327:7349  SafeERC20.safeTransfer */\n      tag_108\n        /* \"contracts/Staking.sol\":7327:7480  SafeERC20.safeTransfer(... */\n      jump\t// in\n    tag_158:\n        /* \"contracts/Staking.sol\":6903:7492  if (user_stake.releaseTime > block.timestamp) {... */\n    tag_157:\n        /* \"contracts/Staking.sol\":6517:7499  {... */\n      pop\n      pop\n        /* \"@openzeppelin/contracts/security/ReentrancyGuard.sol\":1701:1702  1 */\n      0x01\n        /* \"@openzeppelin/contracts/security/ReentrancyGuard.sol\":2628:2635  _status */\n      0x00\n        /* \"@openzeppelin/contracts/security/ReentrancyGuard.sol\":2628:2650  _status = _NOT_ENTERED */\n      dup2\n      swap1\n      sstore\n      pop\n        /* \"contracts/Staking.sol\":6470:7499  function withdrawStake() external nonReentrant {... */\n      jump\t// out\n        /* \"contracts/Staking.sol\":1063:1096  uint256 public stakingPenaltyRate */\n    tag_67:\n      sload(0x03)\n      dup2\n      jump\t// out\n        /* \"contracts/Staking.sol\":8674:8797  function startAirdrop() external onlyOwner {... */\n    tag_70:\n        /* \"@openzeppelin/contracts/access/Ownable.sol\":1259:1271  _msgSender() */\n      tag_161\n        /* \"@openzeppelin/contracts/access/Ownable.sol\":1259:1269  _msgSender */\n      tag_111\n        /* \"@openzeppelin/contracts/access/Ownable.sol\":1259:1271  _msgSender() */\n      jump\t// in\n    tag_161:\n        /* \"@openzeppelin/contracts/access/Ownable.sol\":1248:1271  owner() == _msgSender() */\n      0xffffffffffffffffffffffffffffffffffffffff\n      and\n        /* \"@openzeppelin/contracts/access/Ownable.sol\":1248:1255  owner() */\n      tag_162\n        /* \"@openzeppelin/contracts/access/Ownable.sol\":1248:1253  owner */\n      tag_52\n        /* \"@openzeppelin/contracts/access/Ownable.sol\":1248:1255  owner() */\n      jump\t// in\n    tag_162:\n        /* \"@openzeppelin/contracts/access/Ownable.sol\":1248:1271  owner() == _msgSender() */\n      0xffffffffffffffffffffffffffffffffffffffff\n      and\n      eq\n        /* \"@openzeppelin/contracts/access/Ownable.sol\":1240:1308  require(owner() == _msgSender(), \"Ownable: caller is not the owner\") */\n      tag_163\n      jumpi\n      mload(0x40)\n      0x08c379a000000000000000000000000000000000000000000000000000000000\n      dup2\n      mstore\n      0x04\n      add\n      tag_164\n      swap1\n      tag_115\n      jump\t// in\n    tag_164:\n      mload(0x40)\n      dup1\n      swap2\n      sub\n      swap1\n      revert\n    tag_163:\n        /* \"contracts/Staking.sol\":8743:8758  block.timestamp */\n      timestamp\n        /* \"contracts/Staking.sol\":8728:8740  airdropSince */\n      0x05\n        /* \"contracts/Staking.sol\":8728:8758  airdropSince = block.timestamp */\n      dup2\n      swap1\n      sstore\n      pop\n        /* \"contracts/Staking.sol\":8785:8789  true */\n      0x01\n        /* \"contracts/Staking.sol\":8769:8782  airdropStatus */\n      0x06\n      0x00\n        /* \"contracts/Staking.sol\":8769:8789  airdropStatus = true */\n      0x0100\n      exp\n      dup2\n      sload\n      dup2\n      0xff\n      mul\n      not\n      and\n      swap1\n      dup4\n      iszero\n      iszero\n      mul\n      or\n      swap1\n      sstore\n      pop\n        /* \"contracts/Staking.sol\":8674:8797  function startAirdrop() external onlyOwner {... */\n      jump\t// out\n        /* \"contracts/Staking.sol\":8805:9045  function changeAirdropPercentage(uint256 amount) external onlyOwner {... */\n    tag_73:\n        /* \"@openzeppelin/contracts/access/Ownable.sol\":1259:1271  _msgSender() */\n      tag_167\n        /* \"@openzeppelin/contracts/access/Ownable.sol\":1259:1269  _msgSender */\n      tag_111\n        /* \"@openzeppelin/contracts/access/Ownable.sol\":1259:1271  _msgSender() */\n      jump\t// in\n    tag_167:\n        /* \"@openzeppelin/contracts/access/Ownable.sol\":1248:1271  owner() == _msgSender() */\n      0xffffffffffffffffffffffffffffffffffffffff\n      and\n        /* \"@openzeppelin/contracts/access/Ownable.sol\":1248:1255  owner() */\n      tag_168\n        /* \"@openzeppelin/contracts/access/Ownable.sol\":1248:1253  owner */\n      tag_52\n        /* \"@openzeppelin/contracts/access/Ownable.sol\":1248:1255  owner() */\n      jump\t// in\n    tag_168:\n        /* \"@openzeppelin/contracts/access/Ownable.sol\":1248:1271  owner() == _msgSender() */\n      0xffffffffffffffffffffffffffffffffffffffff\n      and\n      eq\n        /* \"@openzeppelin/contracts/access/Ownable.sol\":1240:1308  require(owner() == _msgSender(), \"Ownable: caller is not the owner\") */\n      tag_169\n      jumpi\n      mload(0x40)\n      0x08c379a000000000000000000000000000000000000000000000000000000000\n      dup2\n      mstore\n      0x04\n      add\n      tag_170\n      swap1\n      tag_115\n      jump\t// in\n    tag_170:\n      mload(0x40)\n      dup1\n      swap2\n      sub\n      swap1\n      revert\n    tag_169:\n        /* \"contracts/Staking.sol\":8897:8900  200 */\n      0xc8\n        /* \"contracts/Staking.sol\":8888:8894  amount */\n      dup2\n        /* \"contracts/Staking.sol\":8888:8900  amount > 200 */\n      gt\n        /* \"contracts/Staking.sol\":8884:8969  if (amount > 200) {... */\n      iszero\n      tag_172\n      jumpi\n        /* \"contracts/Staking.sol\":8924:8957  Staking__airdropExceed20Percent() */\n      mload(0x40)\n      0xa552cf1000000000000000000000000000000000000000000000000000000000\n      dup2\n      mstore\n      0x04\n      add\n      mload(0x40)\n      dup1\n      swap2\n      sub\n      swap1\n      revert\n        /* \"contracts/Staking.sol\":8884:8969  if (amount > 200) {... */\n    tag_172:\n        /* \"contracts/Staking.sol\":8993:8999  amount */\n      dup1\n        /* \"contracts/Staking.sol\":8979:8990  airdropRate */\n      0x04\n        /* \"contracts/Staking.sol\":8979:8999  airdropRate = amount */\n      dup2\n      swap1\n      sstore\n      pop\n        /* \"contracts/Staking.sol\":9015:9037  AirdropChanged(amount) */\n      0xcc672f1026b958c0cfbfdd89ebe8ddcbc127f16ec24da6c2c7a4de26a8b1857e\n        /* \"contracts/Staking.sol\":9030:9036  amount */\n      dup2\n        /* \"contracts/Staking.sol\":9015:9037  AirdropChanged(amount) */\n      mload(0x40)\n      tag_173\n      swap2\n      swap1\n      tag_42\n      jump\t// in\n    tag_173:\n      mload(0x40)\n      dup1\n      swap2\n      sub\n      swap1\n      log1\n        /* \"contracts/Staking.sol\":8805:9045  function changeAirdropPercentage(uint256 amount) external onlyOwner {... */\n      pop\n      jump\t// out\n        /* \"@openzeppelin/contracts/access/Ownable.sol\":1918:2116  function transferOwnership(address newOwner) public virtual onlyOwner {... */\n    tag_77:\n        /* \"@openzeppelin/contracts/access/Ownable.sol\":1259:1271  _msgSender() */\n      tag_175\n        /* \"@openzeppelin/contracts/access/Ownable.sol\":1259:1269  _msgSender */\n      tag_111\n        /* \"@openzeppelin/contracts/access/Ownable.sol\":1259:1271  _msgSender() */\n      jump\t// in\n    tag_175:\n        /* \"@openzeppelin/contracts/access/Ownable.sol\":1248:1271  owner() == _msgSender() */\n      0xffffffffffffffffffffffffffffffffffffffff\n      and\n        /* \"@openzeppelin/contracts/access/Ownable.sol\":1248:1255  owner() */\n      tag_176\n        /* \"@openzeppelin/contracts/access/Ownable.sol\":1248:1253  owner */\n      tag_52\n        /* \"@openzeppelin/contracts/access/Ownable.sol\":1248:1255  owner() */\n      jump\t// in\n    tag_176:\n        /* \"@openzeppelin/contracts/access/Ownable.sol\":1248:1271  owner() == _msgSender() */\n      0xffffffffffffffffffffffffffffffffffffffff\n      and\n      eq\n        /* \"@openzeppelin/contracts/access/Ownable.sol\":1240:1308  require(owner() == _msgSender(), \"Ownable: caller is not the owner\") */\n      tag_177\n      jumpi\n      mload(0x40)\n      0x08c379a000000000000000000000000000000000000000000000000000000000\n      dup2\n      mstore\n      0x04\n      add\n      tag_178\n      swap1\n      tag_115\n      jump\t// in\n    tag_178:\n      mload(0x40)\n      dup1\n      swap2\n      sub\n      swap1\n      revert\n    tag_177:\n        /* \"@openzeppelin/contracts/access/Ownable.sol\":2026:2027  0 */\n      0x00\n        /* \"@openzeppelin/contracts/access/Ownable.sol\":2006:2028  newOwner != address(0) */\n      0xffffffffffffffffffffffffffffffffffffffff\n      and\n        /* \"@openzeppelin/contracts/access/Ownable.sol\":2006:2014  newOwner */\n      dup2\n        /* \"@openzeppelin/contracts/access/Ownable.sol\":2006:2028  newOwner != address(0) */\n      0xffffffffffffffffffffffffffffffffffffffff\n      and\n      eq\n      iszero\n        /* \"@openzeppelin/contracts/access/Ownable.sol\":1998:2071  require(newOwner != address(0), \"Ownable: new owner is the zero address\") */\n      tag_180\n      jumpi\n      mload(0x40)\n      0x08c379a000000000000000000000000000000000000000000000000000000000\n      dup2\n      mstore\n      0x04\n      add\n      tag_181\n      swap1\n      tag_182\n      jump\t// in\n    tag_181:\n      mload(0x40)\n      dup1\n      swap2\n      sub\n      swap1\n      revert\n    tag_180:\n        /* \"@openzeppelin/contracts/access/Ownable.sol\":2081:2109  _transferOwnership(newOwner) */\n      tag_183\n        /* \"@openzeppelin/contracts/access/Ownable.sol\":2100:2108  newOwner */\n      dup2\n        /* \"@openzeppelin/contracts/access/Ownable.sol\":2081:2099  _transferOwnership */\n      tag_118\n        /* \"@openzeppelin/contracts/access/Ownable.sol\":2081:2109  _transferOwnership(newOwner) */\n      jump\t// in\n    tag_183:\n        /* \"@openzeppelin/contracts/access/Ownable.sol\":1918:2116  function transferOwnership(address newOwner) public virtual onlyOwner {... */\n      pop\n      jump\t// out\n        /* \"contracts/Staking.sol\":5424:5801  function _calculateStakeReward(Stake memory user_stake)... */\n    tag_83:\n        /* \"contracts/Staking.sol\":5530:5537  uint256 */\n      0x00\n        /* \"contracts/Staking.sol\":5789:5793  1e26 */\n      0x52b7d2dcc80cd2e4000000\n        /* \"contracts/Staking.sol\":5742:5785  _calculateStakingDuration(user_stake.since) */\n      tag_185\n        /* \"contracts/Staking.sol\":5768:5778  user_stake */\n      dup4\n        /* \"contracts/Staking.sol\":5768:5784  user_stake.since */\n      0x20\n      add\n      mload\n        /* \"contracts/Staking.sol\":5742:5767  _calculateStakingDuration */\n      tag_186\n        /* \"contracts/Staking.sol\":5742:5785  _calculateStakingDuration(user_stake.since) */\n      jump\t// in\n    tag_185:\n        /* \"contracts/Staking.sol\":5702:5712  user_stake */\n      dup4\n        /* \"contracts/Staking.sol\":5702:5722  user_stake.rewardAPY */\n      0x40\n      add\n      mload\n        /* \"contracts/Staking.sol\":5665:5675  user_stake */\n      dup5\n        /* \"contracts/Staking.sol\":5665:5682  user_stake.amount */\n      0x00\n      add\n      mload\n        /* \"contracts/Staking.sol\":5665:5722  user_stake.amount *... */\n      tag_187\n      swap2\n      swap1\n      tag_86\n      jump\t// in\n    tag_187:\n        /* \"contracts/Staking.sol\":5665:5785  user_stake.amount *... */\n      tag_188\n      swap2\n      swap1\n      tag_86\n      jump\t// in\n    tag_188:\n        /* \"contracts/Staking.sol\":5664:5793  (user_stake.amount *... */\n      tag_189\n      swap2\n      swap1\n      tag_88\n      jump\t// in\n    tag_189:\n        /* \"contracts/Staking.sol\":5644:5793  return... */\n      swap1\n      pop\n        /* \"contracts/Staking.sol\":5424:5801  function _calculateStakeReward(Stake memory user_stake)... */\n      swap2\n      swap1\n      pop\n      jump\t// out\n        /* \"contracts/Staking.sol\":9302:9487  function _calculateAirdrop(uint256 stakeAmount)... */\n    tag_96:\n        /* \"contracts/Staking.sol\":9400:9407  uint256 */\n      0x00\n        /* \"contracts/Staking.sol\":9471:9479  52 weeks */\n      0x01dfe200\n        /* \"contracts/Staking.sol\":9463:9467  1000 */\n      0x03e8\n        /* \"contracts/Staking.sol\":9448:9459  airdropRate */\n      sload(0x04)\n        /* \"contracts/Staking.sol\":9434:9445  stakeAmount */\n      dup5\n        /* \"contracts/Staking.sol\":9434:9459  stakeAmount * airdropRate */\n      tag_191\n      swap2\n      swap1\n      tag_86\n      jump\t// in\n    tag_191:\n        /* \"contracts/Staking.sol\":9433:9467  (stakeAmount * airdropRate) / 1000 */\n      tag_192\n      swap2\n      swap1\n      tag_88\n      jump\t// in\n    tag_192:\n        /* \"contracts/Staking.sol\":9432:9479  ((stakeAmount * airdropRate) / 1000) / 52 weeks */\n      tag_193\n      swap2\n      swap1\n      tag_88\n      jump\t// in\n    tag_193:\n        /* \"contracts/Staking.sol\":9425:9479  return ((stakeAmount * airdropRate) / 1000) / 52 weeks */\n      swap1\n      pop\n        /* \"contracts/Staking.sol\":9302:9487  function _calculateAirdrop(uint256 stakeAmount)... */\n      swap2\n      swap1\n      pop\n      jump\t// out\n        /* \"contracts/Staking.sol\":3024:3162  function _checkAirdropStatus() internal view {... */\n    tag_100:\n        /* \"contracts/Staking.sol\":3085:3098  airdropStatus */\n      0x06\n      0x00\n      swap1\n      sload\n      swap1\n      0x0100\n      exp\n      swap1\n      div\n      0xff\n      and\n        /* \"contracts/Staking.sol\":3080:3155  if (!airdropStatus) {... */\n      tag_195\n      jumpi\n        /* \"contracts/Staking.sol\":3122:3143  Airdrop__notStarted() */\n      mload(0x40)\n      0xd4a7cb1900000000000000000000000000000000000000000000000000000000\n      dup2\n      mstore\n      0x04\n      add\n      mload(0x40)\n      dup1\n      swap2\n      sub\n      swap1\n      revert\n        /* \"contracts/Staking.sol\":3080:3155  if (!airdropStatus) {... */\n    tag_195:\n        /* \"contracts/Staking.sol\":3024:3162  function _checkAirdropStatus() internal view {... */\n      jump\t// out\n        /* \"@openzeppelin/contracts/token/ERC20/utils/SafeERC20.sol\":701:906  function safeTransfer(... */\n    tag_108:\n        /* \"@openzeppelin/contracts/token/ERC20/utils/SafeERC20.sol\":813:899  _callOptionalReturn(token, abi.encodeWithSelector(token.transfer.selector, to, value)) */\n      tag_197\n        /* \"@openzeppelin/contracts/token/ERC20/utils/SafeERC20.sol\":833:838  token */\n      dup4\n        /* \"@openzeppelin/contracts/token/ERC20/utils/SafeERC20.sol\":863:886  token.transfer.selector */\n      shl(0xe0, 0xa9059cbb)\n        /* \"@openzeppelin/contracts/token/ERC20/utils/SafeERC20.sol\":888:890  to */\n      dup5\n        /* \"@openzeppelin/contracts/token/ERC20/utils/SafeERC20.sol\":892:897  value */\n      dup5\n        /* \"@openzeppelin/contracts/token/ERC20/utils/SafeERC20.sol\":840:898  abi.encodeWithSelector(token.transfer.selector, to, value) */\n      add(0x24, mload(0x40))\n      tag_198\n      swap3\n      swap2\n      swap1\n      tag_199\n      jump\t// in\n    tag_198:\n      mload(0x40)\n      0x20\n      dup2\n      dup4\n      sub\n      sub\n      dup2\n      mstore\n      swap1\n      0x40\n      mstore\n      swap1\n      not(0xffffffffffffffffffffffffffffffffffffffffffffffffffffffff)\n      and\n      0x20\n      dup3\n      add\n      dup1\n      mload\n      0xffffffffffffffffffffffffffffffffffffffffffffffffffffffff\n      dup4\n      dup2\n      dup4\n      and\n      or\n      dup4\n      mstore\n      pop\n      pop\n      pop\n      pop\n        /* \"@openzeppelin/contracts/token/ERC20/utils/SafeERC20.sol\":813:832  _callOptionalReturn */\n      tag_200\n        /* \"@openzeppelin/contracts/token/ERC20/utils/SafeERC20.sol\":813:899  _callOptionalReturn(token, abi.encodeWithSelector(token.transfer.selector, to, value)) */\n      jump\t// in\n    tag_197:\n        /* \"@openzeppelin/contracts/token/ERC20/utils/SafeERC20.sol\":701:906  function safeTransfer(... */\n      pop\n      pop\n      pop\n      jump\t// out\n        /* \"@openzeppelin/contracts/utils/Context.sol\":640:736  function _msgSender() internal view virtual returns (address) {... */\n    tag_111:\n        /* \"@openzeppelin/contracts/utils/Context.sol\":693:700  address */\n      0x00\n        /* \"@openzeppelin/contracts/utils/Context.sol\":719:729  msg.sender */\n      caller\n        /* \"@openzeppelin/contracts/utils/Context.sol\":712:729  return msg.sender */\n      swap1\n      pop\n        /* \"@openzeppelin/contracts/utils/Context.sol\":640:736  function _msgSender() internal view virtual returns (address) {... */\n      swap1\n      jump\t// out\n        /* \"@openzeppelin/contracts/access/Ownable.sol\":2270:2457  function _transferOwnership(address newOwner) internal virtual {... */\n    tag_118:\n        /* \"@openzeppelin/contracts/access/Ownable.sol\":2343:2359  address oldOwner */\n      0x00\n        /* \"@openzeppelin/contracts/access/Ownable.sol\":2362:2368  _owner */\n      0x01\n      0x00\n      swap1\n      sload\n      swap1\n      0x0100\n      exp\n      swap1\n      div\n      0xffffffffffffffffffffffffffffffffffffffff\n      and\n        /* \"@openzeppelin/contracts/access/Ownable.sol\":2343:2368  address oldOwner = _owner */\n      swap1\n      pop\n        /* \"@openzeppelin/contracts/access/Ownable.sol\":2387:2395  newOwner */\n      dup2\n        /* \"@openzeppelin/contracts/access/Ownable.sol\":2378:2384  _owner */\n      0x01\n      0x00\n        /* \"@openzeppelin/contracts/access/Ownable.sol\":2378:2395  _owner = newOwner */\n      0x0100\n      exp\n      dup2\n      sload\n      dup2\n      0xffffffffffffffffffffffffffffffffffffffff\n      mul\n      not\n      and\n      swap1\n      dup4\n      0xffffffffffffffffffffffffffffffffffffffff\n      and\n      mul\n      or\n      swap1\n      sstore\n      pop\n        /* \"@openzeppelin/contracts/access/Ownable.sol\":2441:2449  newOwner */\n      dup2\n        /* \"@openzeppelin/contracts/access/Ownable.sol\":2410:2450  OwnershipTransferred(oldOwner, newOwner) */\n      0xffffffffffffffffffffffffffffffffffffffff\n      and\n        /* \"@openzeppelin/contracts/access/Ownable.sol\":2431:2439  oldOwner */\n      dup2\n        /* \"@openzeppelin/contracts/access/Ownable.sol\":2410:2450  OwnershipTransferred(oldOwner, newOwner) */\n      0xffffffffffffffffffffffffffffffffffffffff\n      and\n      0x8be0079c531659141344cd1fd0a4f28419497f9722a3daafe3b4186f6b6457e0\n      mload(0x40)\n      mload(0x40)\n      dup1\n      swap2\n      sub\n      swap1\n      log3\n        /* \"@openzeppelin/contracts/access/Ownable.sol\":2333:2457  {... */\n      pop\n        /* \"@openzeppelin/contracts/access/Ownable.sol\":2270:2457  function _transferOwnership(address newOwner) internal virtual {... */\n      pop\n      jump\t// out\n        /* \"@openzeppelin/contracts/token/ERC20/utils/SafeERC20.sol\":912:1153  function safeTransferFrom(... */\n    tag_128:\n        /* \"@openzeppelin/contracts/token/ERC20/utils/SafeERC20.sol\":1050:1146  _callOptionalReturn(token, abi.encodeWithSelector(token.transferFrom.selector, from, to, value)) */\n      tag_204\n        /* \"@openzeppelin/contracts/token/ERC20/utils/SafeERC20.sol\":1070:1075  token */\n      dup5\n        /* \"@openzeppelin/contracts/token/ERC20/utils/SafeERC20.sol\":1100:1127  token.transferFrom.selector */\n      shl(0xe0, 0x23b872dd)\n        /* \"@openzeppelin/contracts/token/ERC20/utils/SafeERC20.sol\":1129:1133  from */\n      dup6\n        /* \"@openzeppelin/contracts/token/ERC20/utils/SafeERC20.sol\":1135:1137  to */\n      dup6\n        /* \"@openzeppelin/contracts/token/ERC20/utils/SafeERC20.sol\":1139:1144  value */\n      dup6\n        /* \"@openzeppelin/contracts/token/ERC20/utils/SafeERC20.sol\":1077:1145  abi.encodeWithSelector(token.transferFrom.selector, from, to, value) */\n      add(0x24, mload(0x40))\n      tag_205\n      swap4\n      swap3\n      swap2\n      swap1\n      tag_206\n      jump\t// in\n    tag_205:\n      mload(0x40)\n      0x20\n      dup2\n      dup4\n      sub\n      sub\n      dup2\n      mstore\n      swap1\n      0x40\n      mstore\n      swap1\n      not(0xffffffffffffffffffffffffffffffffffffffffffffffffffffffff)\n      and\n      0x20\n      dup3\n      add\n      dup1\n      mload\n      0xffffffffffffffffffffffffffffffffffffffffffffffffffffffff\n      dup4\n      dup2\n      dup4\n      and\n      or\n      dup4\n      mstore\n      pop\n      pop\n      pop\n      pop\n        /* \"@openzeppelin/contracts/token/ERC20/utils/SafeERC20.sol\":1050:1069  _callOptionalReturn */\n      tag_200\n        /* \"@openzeppelin/contracts/token/ERC20/utils/SafeERC20.sol\":1050:1146  _callOptionalReturn(token, abi.encodeWithSelector(token.transferFrom.selector, from, to, value)) */\n      jump\t// in\n    tag_204:\n        /* \"@openzeppelin/contracts/token/ERC20/utils/SafeERC20.sol\":912:1153  function safeTransferFrom(... */\n      pop\n      pop\n      pop\n      pop\n      jump\t// out\n        /* \"contracts/Staking.sol\":5809:6113  function _calculateStakingWithPenalty(uint256 amount, uint256 reward)... */\n    tag_154:\n        /* \"contracts/Staking.sol\":5929:5936  uint256 */\n      0x00\n        /* \"contracts/Staking.sol\":5938:5945  uint256 */\n      dup1\n        /* \"contracts/Staking.sol\":6027:6031  1000 */\n      0x03e8\n        /* \"contracts/Staking.sol\":6005:6023  stakingPenaltyRate */\n      sload(0x03)\n        /* \"contracts/Staking.sol\":5996:6002  amount */\n      dup6\n        /* \"contracts/Staking.sol\":5996:6023  amount * stakingPenaltyRate */\n      tag_208\n      swap2\n      swap1\n      tag_86\n      jump\t// in\n    tag_208:\n        /* \"contracts/Staking.sol\":5995:6031  (amount * stakingPenaltyRate) / 1000 */\n      tag_209\n      swap2\n      swap1\n      tag_88\n      jump\t// in\n    tag_209:\n        /* \"contracts/Staking.sol\":5985:5991  amount */\n      dup5\n        /* \"contracts/Staking.sol\":5985:6032  amount - ((amount * stakingPenaltyRate) / 1000) */\n      tag_210\n      swap2\n      swap1\n      tag_144\n      jump\t// in\n    tag_210:\n        /* \"contracts/Staking.sol\":6089:6093  1000 */\n      0x03e8\n        /* \"contracts/Staking.sol\":6067:6085  stakingPenaltyRate */\n      sload(0x03)\n        /* \"contracts/Staking.sol\":6058:6064  reward */\n      dup6\n        /* \"contracts/Staking.sol\":6058:6085  reward * stakingPenaltyRate */\n      tag_211\n      swap2\n      swap1\n      tag_86\n      jump\t// in\n    tag_211:\n        /* \"contracts/Staking.sol\":6057:6093  (reward * stakingPenaltyRate) / 1000 */\n      tag_212\n      swap2\n      swap1\n      tag_88\n      jump\t// in\n    tag_212:\n        /* \"contracts/Staking.sol\":6047:6053  reward */\n      dup5\n        /* \"contracts/Staking.sol\":6047:6094  reward - ((reward * stakingPenaltyRate) / 1000) */\n      tag_213\n      swap2\n      swap1\n      tag_144\n      jump\t// in\n    tag_213:\n        /* \"contracts/Staking.sol\":5963:6105  return (... */\n      swap2\n      pop\n      swap2\n      pop\n        /* \"contracts/Staking.sol\":5809:6113  function _calculateStakingWithPenalty(uint256 amount, uint256 reward)... */\n      swap3\n      pop\n      swap3\n      swap1\n      pop\n      jump\t// out\n        /* \"contracts/Staking.sol\":5178:5416  function _calculateStakingDuration(uint256 since)... */\n    tag_186:\n        /* \"contracts/Staking.sol\":5278:5285  uint256 */\n      0x00\n        /* \"contracts/Staking.sol\":5400:5408  365 days */\n      0x01e13380\n        /* \"contracts/Staking.sol\":5392:5396  1e24 */\n      0xd3c21bcecceda1000000\n        /* \"contracts/Staking.sol\":5383:5388  since */\n      dup4\n        /* \"contracts/Staking.sol\":5365:5380  block.timestamp */\n      timestamp\n        /* \"contracts/Staking.sol\":5365:5388  block.timestamp - since */\n      tag_215\n      swap2\n      swap1\n      tag_144\n      jump\t// in\n    tag_215:\n        /* \"contracts/Staking.sol\":5364:5396  (block.timestamp - since) * 1e24 */\n      tag_216\n      swap2\n      swap1\n      tag_86\n      jump\t// in\n    tag_216:\n        /* \"contracts/Staking.sol\":5363:5408  ((block.timestamp - since) * 1e24) / 365 days */\n      tag_217\n      swap2\n      swap1\n      tag_88\n      jump\t// in\n    tag_217:\n        /* \"contracts/Staking.sol\":5356:5408  return ((block.timestamp - since) * 1e24) / 365 days */\n      swap1\n      pop\n        /* \"contracts/Staking.sol\":5178:5416  function _calculateStakingDuration(uint256 since)... */\n      swap2\n      swap1\n      pop\n      jump\t// out\n        /* \"@openzeppelin/contracts/token/ERC20/utils/SafeERC20.sol\":3207:3913  function _callOptionalReturn(IERC20 token, bytes memory data) private {... */\n    tag_200:\n        /* \"@openzeppelin/contracts/token/ERC20/utils/SafeERC20.sol\":3626:3649  bytes memory returndata */\n      0x00\n        /* \"@openzeppelin/contracts/token/ERC20/utils/SafeERC20.sol\":3652:3721  address(token).functionCall(data, \"SafeERC20: low-level call failed\") */\n      tag_219\n        /* \"@openzeppelin/contracts/token/ERC20/utils/SafeERC20.sol\":3680:3684  data */\n      dup3\n        /* \"@openzeppelin/contracts/token/ERC20/utils/SafeERC20.sol\":3652:3721  address(token).functionCall(data, \"SafeERC20: low-level call failed\") */\n      mload(0x40)\n      dup1\n      0x40\n      add\n      0x40\n      mstore\n      dup1\n      0x20\n      dup2\n      mstore\n      0x20\n      add\n      0x5361666545524332303a206c6f772d6c6576656c2063616c6c206661696c6564\n      dup2\n      mstore\n      pop\n        /* \"@openzeppelin/contracts/token/ERC20/utils/SafeERC20.sol\":3660:3665  token */\n      dup6\n        /* \"@openzeppelin/contracts/token/ERC20/utils/SafeERC20.sol\":3652:3679  address(token).functionCall */\n      0xffffffffffffffffffffffffffffffffffffffff\n      and\n      tag_220\n      swap1\n        /* \"@openzeppelin/contracts/token/ERC20/utils/SafeERC20.sol\":3652:3721  address(token).functionCall(data, \"SafeERC20: low-level call failed\") */\n      swap3\n      swap2\n      swap1\n      0xffffffff\n      and\n      jump\t// in\n    tag_219:\n        /* \"@openzeppelin/contracts/token/ERC20/utils/SafeERC20.sol\":3626:3721  bytes memory returndata = address(token).functionCall(data, \"SafeERC20: low-level call failed\") */\n      swap1\n      pop\n        /* \"@openzeppelin/contracts/token/ERC20/utils/SafeERC20.sol\":3755:3756  0 */\n      0x00\n        /* \"@openzeppelin/contracts/token/ERC20/utils/SafeERC20.sol\":3735:3745  returndata */\n      dup2\n        /* \"@openzeppelin/contracts/token/ERC20/utils/SafeERC20.sol\":3735:3752  returndata.length */\n      mload\n        /* \"@openzeppelin/contracts/token/ERC20/utils/SafeERC20.sol\":3735:3756  returndata.length > 0 */\n      gt\n        /* \"@openzeppelin/contracts/token/ERC20/utils/SafeERC20.sol\":3731:3907  if (returndata.length > 0) {... */\n      iszero\n      tag_221\n      jumpi\n        /* \"@openzeppelin/contracts/token/ERC20/utils/SafeERC20.sol\":3830:3840  returndata */\n      dup1\n        /* \"@openzeppelin/contracts/token/ERC20/utils/SafeERC20.sol\":3819:3849  abi.decode(returndata, (bool)) */\n      dup1\n      0x20\n      add\n      swap1\n      mload\n      dup2\n      add\n      swap1\n      tag_222\n      swap2\n      swap1\n      tag_223\n      jump\t// in\n    tag_222:\n        /* \"@openzeppelin/contracts/token/ERC20/utils/SafeERC20.sol\":3811:3896  require(abi.decode(returndata, (bool)), \"SafeERC20: ERC20 operation did not succeed\") */\n      tag_224\n      jumpi\n      mload(0x40)\n      0x08c379a000000000000000000000000000000000000000000000000000000000\n      dup2\n      mstore\n      0x04\n      add\n      tag_225\n      swap1\n      tag_226\n      jump\t// in\n    tag_225:\n      mload(0x40)\n      dup1\n      swap2\n      sub\n      swap1\n      revert\n    tag_224:\n        /* \"@openzeppelin/contracts/token/ERC20/utils/SafeERC20.sol\":3731:3907  if (returndata.length > 0) {... */\n    tag_221:\n        /* \"@openzeppelin/contracts/token/ERC20/utils/SafeERC20.sol\":3277:3913  {... */\n      pop\n        /* \"@openzeppelin/contracts/token/ERC20/utils/SafeERC20.sol\":3207:3913  function _callOptionalReturn(IERC20 token, bytes memory data) private {... */\n      pop\n      pop\n      jump\t// out\n        /* \"@openzeppelin/contracts/utils/Address.sol\":3861:4084  function functionCall(... */\n    tag_220:\n        /* \"@openzeppelin/contracts/utils/Address.sol\":3994:4006  bytes memory */\n      0x60\n        /* \"@openzeppelin/contracts/utils/Address.sol\":4025:4077  functionCallWithValue(target, data, 0, errorMessage) */\n      tag_228\n        /* \"@openzeppelin/contracts/utils/Address.sol\":4047:4053  target */\n      dup5\n        /* \"@openzeppelin/contracts/utils/Address.sol\":4055:4059  data */\n      dup5\n        /* \"@openzeppelin/contracts/utils/Address.sol\":4061:4062  0 */\n      0x00\n        /* \"@openzeppelin/contracts/utils/Address.sol\":4064:4076  errorMessage */\n      dup6\n        /* \"@openzeppelin/contracts/utils/Address.sol\":4025:4046  functionCallWithValue */\n      tag_229\n        /* \"@openzeppelin/contracts/utils/Address.sol\":4025:4077  functionCallWithValue(target, data, 0, errorMessage) */\n      jump\t// in\n    tag_228:\n        /* \"@openzeppelin/contracts/utils/Address.sol\":4018:4077  return functionCallWithValue(target, data, 0, errorMessage) */\n      swap1\n      pop\n        /* \"@openzeppelin/contracts/utils/Address.sol\":3861:4084  function functionCall(... */\n      swap4\n      swap3\n      pop\n      pop\n      pop\n      jump\t// out\n        /* \"@openzeppelin/contracts/utils/Address.sol\":4948:5447  function functionCallWithValue(... */\n    tag_229:\n        /* \"@openzeppelin/contracts/utils/Address.sol\":5113:5125  bytes memory */\n      0x60\n        /* \"@openzeppelin/contracts/utils/Address.sol\":5170:5175  value */\n      dup3\n        /* \"@openzeppelin/contracts/utils/Address.sol\":5145:5166  address(this).balance */\n      selfbalance\n        /* \"@openzeppelin/contracts/utils/Address.sol\":5145:5175  address(this).balance >= value */\n      lt\n      iszero\n        /* \"@openzeppelin/contracts/utils/Address.sol\":5137:5218  require(address(this).balance >= value, \"Address: insufficient balance for call\") */\n      tag_231\n      jumpi\n      mload(0x40)\n      0x08c379a000000000000000000000000000000000000000000000000000000000\n      dup2\n      mstore\n      0x04\n      add\n      tag_232\n      swap1\n      tag_233\n      jump\t// in\n    tag_232:\n      mload(0x40)\n      dup1\n      swap2\n      sub\n      swap1\n      revert\n    tag_231:\n        /* \"@openzeppelin/contracts/utils/Address.sol\":5236:5254  isContract(target) */\n      tag_234\n        /* \"@openzeppelin/contracts/utils/Address.sol\":5247:5253  target */\n      dup6\n        /* \"@openzeppelin/contracts/utils/Address.sol\":5236:5246  isContract */\n      tag_235\n        /* \"@openzeppelin/contracts/utils/Address.sol\":5236:5254  isContract(target) */\n      jump\t// in\n    tag_234:\n        /* \"@openzeppelin/contracts/utils/Address.sol\":5228:5288  require(isContract(target), \"Address: call to non-contract\") */\n      tag_236\n      jumpi\n      mload(0x40)\n      0x08c379a000000000000000000000000000000000000000000000000000000000\n      dup2\n      mstore\n      0x04\n      add\n      tag_237\n      swap1\n      tag_238\n      jump\t// in\n    tag_237:\n      mload(0x40)\n      dup1\n      swap2\n      sub\n      swap1\n      revert\n    tag_236:\n        /* \"@openzeppelin/contracts/utils/Address.sol\":5300:5312  bool success */\n      0x00\n        /* \"@openzeppelin/contracts/utils/Address.sol\":5314:5337  bytes memory returndata */\n      dup1\n        /* \"@openzeppelin/contracts/utils/Address.sol\":5341:5347  target */\n      dup7\n        /* \"@openzeppelin/contracts/utils/Address.sol\":5341:5352  target.call */\n      0xffffffffffffffffffffffffffffffffffffffff\n      and\n        /* \"@openzeppelin/contracts/utils/Address.sol\":5360:5365  value */\n      dup6\n        /* \"@openzeppelin/contracts/utils/Address.sol\":5367:5371  data */\n      dup8\n        /* \"@openzeppelin/contracts/utils/Address.sol\":5341:5372  target.call{value: value}(data) */\n      mload(0x40)\n      tag_239\n      swap2\n      swap1\n      tag_240\n      jump\t// in\n    tag_239:\n      0x00\n      mload(0x40)\n      dup1\n      dup4\n      sub\n      dup2\n      dup6\n      dup8\n      gas\n      call\n      swap3\n      pop\n      pop\n      pop\n      returndatasize\n      dup1\n      0x00\n      dup2\n      eq\n      tag_243\n      jumpi\n      mload(0x40)\n      swap2\n      pop\n      and(add(returndatasize, 0x3f), not(0x1f))\n      dup3\n      add\n      0x40\n      mstore\n      returndatasize\n      dup3\n      mstore\n      returndatasize\n      0x00\n      0x20\n      dup5\n      add\n      returndatacopy\n      jump(tag_242)\n    tag_243:\n      0x60\n      swap2\n      pop\n    tag_242:\n      pop\n        /* \"@openzeppelin/contracts/utils/Address.sol\":5299:5372  (bool success, bytes memory returndata) = target.call{value: value}(data) */\n      swap2\n      pop\n      swap2\n      pop\n        /* \"@openzeppelin/contracts/utils/Address.sol\":5389:5440  verifyCallResult(success, returndata, errorMessage) */\n      tag_244\n        /* \"@openzeppelin/contracts/utils/Address.sol\":5406:5413  success */\n      dup3\n        /* \"@openzeppelin/contracts/utils/Address.sol\":5415:5425  returndata */\n      dup3\n        /* \"@openzeppelin/contracts/utils/Address.sol\":5427:5439  errorMessage */\n      dup7\n        /* \"@openzeppelin/contracts/utils/Address.sol\":5389:5405  verifyCallResult */\n      tag_245\n        /* \"@openzeppelin/contracts/utils/Address.sol\":5389:5440  verifyCallResult(success, returndata, errorMessage) */\n      jump\t// in\n    tag_244:\n        /* \"@openzeppelin/contracts/utils/Address.sol\":5382:5440  return verifyCallResult(success, returndata, errorMessage) */\n      swap3\n      pop\n      pop\n      pop\n        /* \"@openzeppelin/contracts/utils/Address.sol\":4948:5447  function functionCallWithValue(... */\n      swap5\n      swap4\n      pop\n      pop\n      pop\n      pop\n      jump\t// out\n        /* \"@openzeppelin/contracts/utils/Address.sol\":1175:1495  function isContract(address account) internal view returns (bool) {... */\n    tag_235:\n        /* \"@openzeppelin/contracts/utils/Address.sol\":1235:1239  bool */\n      0x00\n        /* \"@openzeppelin/contracts/utils/Address.sol\":1487:1488  0 */\n      dup1\n        /* \"@openzeppelin/contracts/utils/Address.sol\":1465:1472  account */\n      dup3\n        /* \"@openzeppelin/contracts/utils/Address.sol\":1465:1484  account.code.length */\n      0xffffffffffffffffffffffffffffffffffffffff\n      and\n      extcodesize\n        /* \"@openzeppelin/contracts/utils/Address.sol\":1465:1488  account.code.length > 0 */\n      gt\n        /* \"@openzeppelin/contracts/utils/Address.sol\":1458:1488  return account.code.length > 0 */\n      swap1\n      pop\n        /* \"@openzeppelin/contracts/utils/Address.sol\":1175:1495  function isContract(address account) internal view returns (bool) {... */\n      swap2\n      swap1\n      pop\n      jump\t// out\n        /* \"@openzeppelin/contracts/utils/Address.sol\":7561:8253  function verifyCallResult(... */\n    tag_245:\n        /* \"@openzeppelin/contracts/utils/Address.sol\":7707:7719  bytes memory */\n      0x60\n        /* \"@openzeppelin/contracts/utils/Address.sol\":7735:7742  success */\n      dup4\n        /* \"@openzeppelin/contracts/utils/Address.sol\":7731:8247  if (success) {... */\n      iszero\n      tag_248\n      jumpi\n        /* \"@openzeppelin/contracts/utils/Address.sol\":7765:7775  returndata */\n      dup3\n        /* \"@openzeppelin/contracts/utils/Address.sol\":7758:7775  return returndata */\n      swap1\n      pop\n      jump(tag_247)\n        /* \"@openzeppelin/contracts/utils/Address.sol\":7731:8247  if (success) {... */\n    tag_248:\n        /* \"@openzeppelin/contracts/utils/Address.sol\":7896:7897  0 */\n      0x00\n        /* \"@openzeppelin/contracts/utils/Address.sol\":7876:7886  returndata */\n      dup4\n        /* \"@openzeppelin/contracts/utils/Address.sol\":7876:7893  returndata.length */\n      mload\n        /* \"@openzeppelin/contracts/utils/Address.sol\":7876:7897  returndata.length > 0 */\n      gt\n        /* \"@openzeppelin/contracts/utils/Address.sol\":7872:8237  if (returndata.length > 0) {... */\n      iszero\n      tag_250\n      jumpi\n        /* \"@openzeppelin/contracts/utils/Address.sol\":8070:8080  returndata */\n      dup3\n        /* \"@openzeppelin/contracts/utils/Address.sol\":8064:8081  mload(returndata) */\n      mload\n        /* \"@openzeppelin/contracts/utils/Address.sol\":8130:8145  returndata_size */\n      dup1\n        /* \"@openzeppelin/contracts/utils/Address.sol\":8117:8127  returndata */\n      dup5\n        /* \"@openzeppelin/contracts/utils/Address.sol\":8113:8115  32 */\n      0x20\n        /* \"@openzeppelin/contracts/utils/Address.sol\":8109:8128  add(32, returndata) */\n      add\n        /* \"@openzeppelin/contracts/utils/Address.sol\":8102:8146  revert(add(32, returndata), returndata_size) */\n      revert\n        /* \"@openzeppelin/contracts/utils/Address.sol\":7872:8237  if (returndata.length > 0) {... */\n    tag_250:\n        /* \"@openzeppelin/contracts/utils/Address.sol\":8209:8221  errorMessage */\n      dup2\n        /* \"@openzeppelin/contracts/utils/Address.sol\":8202:8222  revert(errorMessage) */\n      mload(0x40)\n      0x08c379a000000000000000000000000000000000000000000000000000000000\n      dup2\n      mstore\n      0x04\n      add\n      tag_252\n      swap2\n      swap1\n      tag_253\n      jump\t// in\n    tag_252:\n      mload(0x40)\n      dup1\n      swap2\n      sub\n      swap1\n      revert\n        /* \"@openzeppelin/contracts/utils/Address.sol\":7561:8253  function verifyCallResult(... */\n    tag_247:\n      swap4\n      swap3\n      pop\n      pop\n      pop\n      jump\t// out\n    tag_79:\n      mload(0x40)\n      dup1\n      0x60\n      add\n      0x40\n      mstore\n      dup1\n      0x00\n      dup2\n      mstore\n      0x20\n      add\n      0x00\n      dup2\n      mstore\n      0x20\n      add\n      tag_254\n      tag_255\n      jump\t// in\n    tag_254:\n      dup2\n      mstore\n      pop\n      swap1\n      jump\t// out\n    tag_255:\n      mload(0x40)\n      dup1\n      0xe0\n      add\n      0x40\n      mstore\n      dup1\n      0x00\n      dup2\n      mstore\n      0x20\n      add\n      0x00\n      dup2\n      mstore\n      0x20\n      add\n      0x00\n      dup2\n      mstore\n      0x20\n      add\n      0x00\n      dup2\n      mstore\n      0x20\n      add\n      0x00\n      dup2\n      mstore\n      0x20\n      add\n      0x00\n      dup2\n      mstore\n      0x20\n      add\n      0x00\n      dup2\n      mstore\n      pop\n      swap1\n      jump\t// out\n        /* \"#utility.yul\":7:84   */\n    tag_256:\n        /* \"#utility.yul\":44:51   */\n      0x00\n        /* \"#utility.yul\":73:78   */\n      dup2\n        /* \"#utility.yul\":62:78   */\n      swap1\n      pop\n        /* \"#utility.yul\":7:84   */\n      swap2\n      swap1\n      pop\n      jump\t// out\n        /* \"#utility.yul\":90:198   */\n    tag_257:\n        /* \"#utility.yul\":167:191   */\n      tag_300\n        /* \"#utility.yul\":185:190   */\n      dup2\n        /* \"#utility.yul\":167:191   */\n      tag_256\n      jump\t// in\n    tag_300:\n        /* \"#utility.yul\":162:165   */\n      dup3\n        /* \"#utility.yul\":155:192   */\n      mstore\n        /* \"#utility.yul\":90:198   */\n      pop\n      pop\n      jump\t// out\n        /* \"#utility.yul\":256:1660   */\n    tag_258:\n        /* \"#utility.yul\":387:391   */\n      0xe0\n        /* \"#utility.yul\":382:385   */\n      dup3\n        /* \"#utility.yul\":378:392   */\n      add\n        /* \"#utility.yul\":476:480   */\n      0x00\n        /* \"#utility.yul\":469:474   */\n      dup3\n        /* \"#utility.yul\":465:481   */\n      add\n        /* \"#utility.yul\":459:482   */\n      mload\n        /* \"#utility.yul\":495:558   */\n      tag_302\n        /* \"#utility.yul\":552:556   */\n      0x00\n        /* \"#utility.yul\":547:550   */\n      dup6\n        /* \"#utility.yul\":543:557   */\n      add\n        /* \"#utility.yul\":529:541   */\n      dup3\n        /* \"#utility.yul\":495:558   */\n      tag_257\n      jump\t// in\n    tag_302:\n        /* \"#utility.yul\":402:568   */\n      pop\n        /* \"#utility.yul\":651:655   */\n      0x20\n        /* \"#utility.yul\":644:649   */\n      dup3\n        /* \"#utility.yul\":640:656   */\n      add\n        /* \"#utility.yul\":634:657   */\n      mload\n        /* \"#utility.yul\":670:733   */\n      tag_303\n        /* \"#utility.yul\":727:731   */\n      0x20\n        /* \"#utility.yul\":722:725   */\n      dup6\n        /* \"#utility.yul\":718:732   */\n      add\n        /* \"#utility.yul\":704:716   */\n      dup3\n        /* \"#utility.yul\":670:733   */\n      tag_257\n      jump\t// in\n    tag_303:\n        /* \"#utility.yul\":578:743   */\n      pop\n        /* \"#utility.yul\":830:834   */\n      0x40\n        /* \"#utility.yul\":823:828   */\n      dup3\n        /* \"#utility.yul\":819:835   */\n      add\n        /* \"#utility.yul\":813:836   */\n      mload\n        /* \"#utility.yul\":849:912   */\n      tag_304\n        /* \"#utility.yul\":906:910   */\n      0x40\n        /* \"#utility.yul\":901:904   */\n      dup6\n        /* \"#utility.yul\":897:911   */\n      add\n        /* \"#utility.yul\":883:895   */\n      dup3\n        /* \"#utility.yul\":849:912   */\n      tag_257\n      jump\t// in\n    tag_304:\n        /* \"#utility.yul\":753:922   */\n      pop\n        /* \"#utility.yul\":1011:1015   */\n      0x60\n        /* \"#utility.yul\":1004:1009   */\n      dup3\n        /* \"#utility.yul\":1000:1016   */\n      add\n        /* \"#utility.yul\":994:1017   */\n      mload\n        /* \"#utility.yul\":1030:1093   */\n      tag_305\n        /* \"#utility.yul\":1087:1091   */\n      0x60\n        /* \"#utility.yul\":1082:1085   */\n      dup6\n        /* \"#utility.yul\":1078:1092   */\n      add\n        /* \"#utility.yul\":1064:1076   */\n      dup3\n        /* \"#utility.yul\":1030:1093   */\n      tag_257\n      jump\t// in\n    tag_305:\n        /* \"#utility.yul\":932:1103   */\n      pop\n        /* \"#utility.yul\":1190:1194   */\n      0x80\n        /* \"#utility.yul\":1183:1188   */\n      dup3\n        /* \"#utility.yul\":1179:1195   */\n      add\n        /* \"#utility.yul\":1173:1196   */\n      mload\n        /* \"#utility.yul\":1209:1272   */\n      tag_306\n        /* \"#utility.yul\":1266:1270   */\n      0x80\n        /* \"#utility.yul\":1261:1264   */\n      dup6\n        /* \"#utility.yul\":1257:1271   */\n      add\n        /* \"#utility.yul\":1243:1255   */\n      dup3\n        /* \"#utility.yul\":1209:1272   */\n      tag_257\n      jump\t// in\n    tag_306:\n        /* \"#utility.yul\":1113:1282   */\n      pop\n        /* \"#utility.yul\":1376:1380   */\n      0xa0\n        /* \"#utility.yul\":1369:1374   */\n      dup3\n        /* \"#utility.yul\":1365:1381   */\n      add\n        /* \"#utility.yul\":1359:1382   */\n      mload\n        /* \"#utility.yul\":1395:1458   */\n      tag_307\n        /* \"#utility.yul\":1452:1456   */\n      0xa0\n        /* \"#utility.yul\":1447:1450   */\n      dup6\n        /* \"#utility.yul\":1443:1457   */\n      add\n        /* \"#utility.yul\":1429:1441   */\n      dup3\n        /* \"#utility.yul\":1395:1458   */\n      tag_257\n      jump\t// in\n    tag_307:\n        /* \"#utility.yul\":1292:1468   */\n      pop\n        /* \"#utility.yul\":1561:1565   */\n      0xc0\n        /* \"#utility.yul\":1554:1559   */\n      dup3\n        /* \"#utility.yul\":1550:1566   */\n      add\n        /* \"#utility.yul\":1544:1567   */\n      mload\n        /* \"#utility.yul\":1580:1643   */\n      tag_308\n        /* \"#utility.yul\":1637:1641   */\n      0xc0\n        /* \"#utility.yul\":1632:1635   */\n      dup6\n        /* \"#utility.yul\":1628:1642   */\n      add\n        /* \"#utility.yul\":1614:1626   */\n      dup3\n        /* \"#utility.yul\":1580:1643   */\n      tag_257\n      jump\t// in\n    tag_308:\n        /* \"#utility.yul\":1478:1653   */\n      pop\n        /* \"#utility.yul\":356:1660   */\n      pop\n        /* \"#utility.yul\":256:1660   */\n      pop\n      pop\n      jump\t// out\n        /* \"#utility.yul\":1736:2487   */\n    tag_259:\n        /* \"#utility.yul\":1895:1901   */\n      0x0120\n        /* \"#utility.yul\":1890:1893   */\n      dup3\n        /* \"#utility.yul\":1886:1902   */\n      add\n        /* \"#utility.yul\":1992:1996   */\n      0x00\n        /* \"#utility.yul\":1985:1990   */\n      dup3\n        /* \"#utility.yul\":1981:1997   */\n      add\n        /* \"#utility.yul\":1975:1998   */\n      mload\n        /* \"#utility.yul\":2011:2074   */\n      tag_310\n        /* \"#utility.yul\":2068:2072   */\n      0x00\n        /* \"#utility.yul\":2063:2066   */\n      dup6\n        /* \"#utility.yul\":2059:2073   */\n      add\n        /* \"#utility.yul\":2045:2057   */\n      dup3\n        /* \"#utility.yul\":2011:2074   */\n      tag_257\n      jump\t// in\n    tag_310:\n        /* \"#utility.yul\":1912:2084   */\n      pop\n        /* \"#utility.yul\":2169:2173   */\n      0x20\n        /* \"#utility.yul\":2162:2167   */\n      dup3\n        /* \"#utility.yul\":2158:2174   */\n      add\n        /* \"#utility.yul\":2152:2175   */\n      mload\n        /* \"#utility.yul\":2188:2251   */\n      tag_311\n        /* \"#utility.yul\":2245:2249   */\n      0x20\n        /* \"#utility.yul\":2240:2243   */\n      dup6\n        /* \"#utility.yul\":2236:2250   */\n      add\n        /* \"#utility.yul\":2222:2234   */\n      dup3\n        /* \"#utility.yul\":2188:2251   */\n      tag_257\n      jump\t// in\n    tag_311:\n        /* \"#utility.yul\":2094:2261   */\n      pop\n        /* \"#utility.yul\":2344:2348   */\n      0x40\n        /* \"#utility.yul\":2337:2342   */\n      dup3\n        /* \"#utility.yul\":2333:2349   */\n      add\n        /* \"#utility.yul\":2327:2350   */\n      mload\n        /* \"#utility.yul\":2363:2470   */\n      tag_312\n        /* \"#utility.yul\":2464:2468   */\n      0x40\n        /* \"#utility.yul\":2459:2462   */\n      dup6\n        /* \"#utility.yul\":2455:2469   */\n      add\n        /* \"#utility.yul\":2441:2453   */\n      dup3\n        /* \"#utility.yul\":2363:2470   */\n      tag_258\n      jump\t// in\n    tag_312:\n        /* \"#utility.yul\":2271:2480   */\n      pop\n        /* \"#utility.yul\":1864:2487   */\n      pop\n        /* \"#utility.yul\":1736:2487   */\n      pop\n      pop\n      jump\t// out\n        /* \"#utility.yul\":2493:2840   */\n    tag_26:\n        /* \"#utility.yul\":2648:2652   */\n      0x00\n        /* \"#utility.yul\":2686:2689   */\n      0x0120\n        /* \"#utility.yul\":2675:2684   */\n      dup3\n        /* \"#utility.yul\":2671:2690   */\n      add\n        /* \"#utility.yul\":2663:2690   */\n      swap1\n      pop\n        /* \"#utility.yul\":2700:2833   */\n      tag_314\n        /* \"#utility.yul\":2830:2831   */\n      0x00\n        /* \"#utility.yul\":2819:2828   */\n      dup4\n        /* \"#utility.yul\":2815:2832   */\n      add\n        /* \"#utility.yul\":2806:2812   */\n      dup5\n        /* \"#utility.yul\":2700:2833   */\n      tag_259\n      jump\t// in\n    tag_314:\n        /* \"#utility.yul\":2493:2840   */\n      swap3\n      swap2\n      pop\n      pop\n      jump\t// out\n        /* \"#utility.yul\":2846:2936   */\n    tag_260:\n        /* \"#utility.yul\":2880:2887   */\n      0x00\n        /* \"#utility.yul\":2923:2928   */\n      dup2\n        /* \"#utility.yul\":2916:2929   */\n      iszero\n        /* \"#utility.yul\":2909:2930   */\n      iszero\n        /* \"#utility.yul\":2898:2930   */\n      swap1\n      pop\n        /* \"#utility.yul\":2846:2936   */\n      swap2\n      swap1\n      pop\n      jump\t// out\n        /* \"#utility.yul\":2942:3051   */\n    tag_261:\n        /* \"#utility.yul\":3023:3044   */\n      tag_317\n        /* \"#utility.yul\":3038:3043   */\n      dup2\n        /* \"#utility.yul\":3023:3044   */\n      tag_260\n      jump\t// in\n    tag_317:\n        /* \"#utility.yul\":3018:3021   */\n      dup3\n        /* \"#utility.yul\":3011:3045   */\n      mstore\n        /* \"#utility.yul\":2942:3051   */\n      pop\n      pop\n      jump\t// out\n        /* \"#utility.yul\":3057:3267   */\n    tag_30:\n        /* \"#utility.yul\":3144:3148   */\n      0x00\n        /* \"#utility.yul\":3182:3184   */\n      0x20\n        /* \"#utility.yul\":3171:3180   */\n      dup3\n        /* \"#utility.yul\":3167:3185   */\n      add\n        /* \"#utility.yul\":3159:3185   */\n      swap1\n      pop\n        /* \"#utility.yul\":3195:3260   */\n      tag_319\n        /* \"#utility.yul\":3257:3258   */\n      0x00\n        /* \"#utility.yul\":3246:3255   */\n      dup4\n        /* \"#utility.yul\":3242:3259   */\n      add\n        /* \"#utility.yul\":3233:3239   */\n      dup5\n        /* \"#utility.yul\":3195:3260   */\n      tag_261\n      jump\t// in\n    tag_319:\n        /* \"#utility.yul\":3057:3267   */\n      swap3\n      swap2\n      pop\n      pop\n      jump\t// out\n        /* \"#utility.yul\":3354:3471   */\n    tag_263:\n        /* \"#utility.yul\":3463:3464   */\n      0x00\n        /* \"#utility.yul\":3460:3461   */\n      dup1\n        /* \"#utility.yul\":3453:3465   */\n      revert\n        /* \"#utility.yul\":3600:3722   */\n    tag_265:\n        /* \"#utility.yul\":3673:3697   */\n      tag_324\n        /* \"#utility.yul\":3691:3696   */\n      dup2\n        /* \"#utility.yul\":3673:3697   */\n      tag_256\n      jump\t// in\n    tag_324:\n        /* \"#utility.yul\":3666:3671   */\n      dup2\n        /* \"#utility.yul\":3663:3698   */\n      eq\n        /* \"#utility.yul\":3653:3716   */\n      tag_325\n      jumpi\n        /* \"#utility.yul\":3712:3713   */\n      0x00\n        /* \"#utility.yul\":3709:3710   */\n      dup1\n        /* \"#utility.yul\":3702:3714   */\n      revert\n        /* \"#utility.yul\":3653:3716   */\n    tag_325:\n        /* \"#utility.yul\":3600:3722   */\n      pop\n      jump\t// out\n        /* \"#utility.yul\":3728:3867   */\n    tag_266:\n        /* \"#utility.yul\":3774:3779   */\n      0x00\n        /* \"#utility.yul\":3812:3818   */\n      dup2\n        /* \"#utility.yul\":3799:3819   */\n      calldataload\n        /* \"#utility.yul\":3790:3819   */\n      swap1\n      pop\n        /* \"#utility.yul\":3828:3861   */\n      tag_327\n        /* \"#utility.yul\":3855:3860   */\n      dup2\n        /* \"#utility.yul\":3828:3861   */\n      tag_265\n      jump\t// in\n    tag_327:\n        /* \"#utility.yul\":3728:3867   */\n      swap3\n      swap2\n      pop\n      pop\n      jump\t// out\n        /* \"#utility.yul\":3873:4347   */\n    tag_37:\n        /* \"#utility.yul\":3941:3947   */\n      0x00\n        /* \"#utility.yul\":3949:3955   */\n      dup1\n        /* \"#utility.yul\":3998:4000   */\n      0x40\n        /* \"#utility.yul\":3986:3995   */\n      dup4\n        /* \"#utility.yul\":3977:3984   */\n      dup6\n        /* \"#utility.yul\":3973:3996   */\n      sub\n        /* \"#utility.yul\":3969:4001   */\n      slt\n        /* \"#utility.yul\":3966:4085   */\n      iszero\n      tag_329\n      jumpi\n        /* \"#utility.yul\":4004:4083   */\n      tag_330\n      tag_263\n      jump\t// in\n    tag_330:\n        /* \"#utility.yul\":3966:4085   */\n    tag_329:\n        /* \"#utility.yul\":4124:4125   */\n      0x00\n        /* \"#utility.yul\":4149:4202   */\n      tag_331\n        /* \"#utility.yul\":4194:4201   */\n      dup6\n        /* \"#utility.yul\":4185:4191   */\n      dup3\n        /* \"#utility.yul\":4174:4183   */\n      dup7\n        /* \"#utility.yul\":4170:4192   */\n      add\n        /* \"#utility.yul\":4149:4202   */\n      tag_266\n      jump\t// in\n    tag_331:\n        /* \"#utility.yul\":4139:4202   */\n      swap3\n      pop\n        /* \"#utility.yul\":4095:4212   */\n      pop\n        /* \"#utility.yul\":4251:4253   */\n      0x20\n        /* \"#utility.yul\":4277:4330   */\n      tag_332\n        /* \"#utility.yul\":4322:4329   */\n      dup6\n        /* \"#utility.yul\":4313:4319   */\n      dup3\n        /* \"#utility.yul\":4302:4311   */\n      dup7\n        /* \"#utility.yul\":4298:4320   */\n      add\n        /* \"#utility.yul\":4277:4330   */\n      tag_266\n      jump\t// in\n    tag_332:\n        /* \"#utility.yul\":4267:4330   */\n      swap2\n      pop\n        /* \"#utility.yul\":4222:4340   */\n      pop\n        /* \"#utility.yul\":3873:4347   */\n      swap3\n      pop\n      swap3\n      swap1\n      pop\n      jump\t// out\n        /* \"#utility.yul\":4353:4471   */\n    tag_267:\n        /* \"#utility.yul\":4440:4464   */\n      tag_334\n        /* \"#utility.yul\":4458:4463   */\n      dup2\n        /* \"#utility.yul\":4440:4464   */\n      tag_256\n      jump\t// in\n    tag_334:\n        /* \"#utility.yul\":4435:4438   */\n      dup3\n        /* \"#utility.yul\":4428:4465   */\n      mstore\n        /* \"#utility.yul\":4353:4471   */\n      pop\n      pop\n      jump\t// out\n        /* \"#utility.yul\":4477:4699   */\n    tag_42:\n        /* \"#utility.yul\":4570:4574   */\n      0x00\n        /* \"#utility.yul\":4608:4610   */\n      0x20\n        /* \"#utility.yul\":4597:4606   */\n      dup3\n        /* \"#utility.yul\":4593:4611   */\n      add\n        /* \"#utility.yul\":4585:4611   */\n      swap1\n      pop\n        /* \"#utility.yul\":4621:4692   */\n      tag_336\n        /* \"#utility.yul\":4689:4690   */\n      0x00\n        /* \"#utility.yul\":4678:4687   */\n      dup4\n        /* \"#utility.yul\":4674:4691   */\n      add\n        /* \"#utility.yul\":4665:4671   */\n      dup5\n        /* \"#utility.yul\":4621:4692   */\n      tag_267\n      jump\t// in\n    tag_336:\n        /* \"#utility.yul\":4477:4699   */\n      swap3\n      swap2\n      pop\n      pop\n      jump\t// out\n        /* \"#utility.yul\":4705:5034   */\n    tag_45:\n        /* \"#utility.yul\":4764:4770   */\n      0x00\n        /* \"#utility.yul\":4813:4815   */\n      0x20\n        /* \"#utility.yul\":4801:4810   */\n      dup3\n        /* \"#utility.yul\":4792:4799   */\n      dup5\n        /* \"#utility.yul\":4788:4811   */\n      sub\n        /* \"#utility.yul\":4784:4816   */\n      slt\n        /* \"#utility.yul\":4781:4900   */\n      iszero\n      tag_338\n      jumpi\n        /* \"#utility.yul\":4819:4898   */\n      tag_339\n      tag_263\n      jump\t// in\n    tag_339:\n        /* \"#utility.yul\":4781:4900   */\n    tag_338:\n        /* \"#utility.yul\":4939:4940   */\n      0x00\n        /* \"#utility.yul\":4964:5017   */\n      tag_340\n        /* \"#utility.yul\":5009:5016   */\n      dup5\n        /* \"#utility.yul\":5000:5006   */\n      dup3\n        /* \"#utility.yul\":4989:4998   */\n      dup6\n        /* \"#utility.yul\":4985:5007   */\n      add\n        /* \"#utility.yul\":4964:5017   */\n      tag_266\n      jump\t// in\n    tag_340:\n        /* \"#utility.yul\":4954:5017   */\n      swap2\n      pop\n        /* \"#utility.yul\":4910:5027   */\n      pop\n        /* \"#utility.yul\":4705:5034   */\n      swap3\n      swap2\n      pop\n      pop\n      jump\t// out\n        /* \"#utility.yul\":5040:5166   */\n    tag_268:\n        /* \"#utility.yul\":5077:5084   */\n      0x00\n        /* \"#utility.yul\":5117:5159   */\n      0xffffffffffffffffffffffffffffffffffffffff\n        /* \"#utility.yul\":5110:5115   */\n      dup3\n        /* \"#utility.yul\":5106:5160   */\n      and\n        /* \"#utility.yul\":5095:5160   */\n      swap1\n      pop\n        /* \"#utility.yul\":5040:5166   */\n      swap2\n      swap1\n      pop\n      jump\t// out\n        /* \"#utility.yul\":5172:5268   */\n    tag_269:\n        /* \"#utility.yul\":5209:5216   */\n      0x00\n        /* \"#utility.yul\":5238:5262   */\n      tag_343\n        /* \"#utility.yul\":5256:5261   */\n      dup3\n        /* \"#utility.yul\":5238:5262   */\n      tag_268\n      jump\t// in\n    tag_343:\n        /* \"#utility.yul\":5227:5262   */\n      swap1\n      pop\n        /* \"#utility.yul\":5172:5268   */\n      swap2\n      swap1\n      pop\n      jump\t// out\n        /* \"#utility.yul\":5274:5392   */\n    tag_270:\n        /* \"#utility.yul\":5361:5385   */\n      tag_345\n        /* \"#utility.yul\":5379:5384   */\n      dup2\n        /* \"#utility.yul\":5361:5385   */\n      tag_269\n      jump\t// in\n    tag_345:\n        /* \"#utility.yul\":5356:5359   */\n      dup3\n        /* \"#utility.yul\":5349:5386   */\n      mstore\n        /* \"#utility.yul\":5274:5392   */\n      pop\n      pop\n      jump\t// out\n        /* \"#utility.yul\":5398:5620   */\n    tag_50:\n        /* \"#utility.yul\":5491:5495   */\n      0x00\n        /* \"#utility.yul\":5529:5531   */\n      0x20\n        /* \"#utility.yul\":5518:5527   */\n      dup3\n        /* \"#utility.yul\":5514:5532   */\n      add\n        /* \"#utility.yul\":5506:5532   */\n      swap1\n      pop\n        /* \"#utility.yul\":5542:5613   */\n      tag_347\n        /* \"#utility.yul\":5610:5611   */\n      0x00\n        /* \"#utility.yul\":5599:5608   */\n      dup4\n        /* \"#utility.yul\":5595:5612   */\n      add\n        /* \"#utility.yul\":5586:5592   */\n      dup5\n        /* \"#utility.yul\":5542:5613   */\n      tag_270\n      jump\t// in\n    tag_347:\n        /* \"#utility.yul\":5398:5620   */\n      swap3\n      swap2\n      pop\n      pop\n      jump\t// out\n        /* \"#utility.yul\":5626:5748   */\n    tag_271:\n        /* \"#utility.yul\":5699:5723   */\n      tag_349\n        /* \"#utility.yul\":5717:5722   */\n      dup2\n        /* \"#utility.yul\":5699:5723   */\n      tag_269\n      jump\t// in\n    tag_349:\n        /* \"#utility.yul\":5692:5697   */\n      dup2\n        /* \"#utility.yul\":5689:5724   */\n      eq\n        /* \"#utility.yul\":5679:5742   */\n      tag_350\n      jumpi\n        /* \"#utility.yul\":5738:5739   */\n      0x00\n        /* \"#utility.yul\":5735:5736   */\n      dup1\n        /* \"#utility.yul\":5728:5740   */\n      revert\n        /* \"#utility.yul\":5679:5742   */\n    tag_350:\n        /* \"#utility.yul\":5626:5748   */\n      pop\n      jump\t// out\n        /* \"#utility.yul\":5754:5893   */\n    tag_272:\n        /* \"#utility.yul\":5800:5805   */\n      0x00\n        /* \"#utility.yul\":5838:5844   */\n      dup2\n        /* \"#utility.yul\":5825:5845   */\n      calldataload\n        /* \"#utility.yul\":5816:5845   */\n      swap1\n      pop\n        /* \"#utility.yul\":5854:5887   */\n      tag_352\n        /* \"#utility.yul\":5881:5886   */\n      dup2\n        /* \"#utility.yul\":5854:5887   */\n      tag_271\n      jump\t// in\n    tag_352:\n        /* \"#utility.yul\":5754:5893   */\n      swap3\n      swap2\n      pop\n      pop\n      jump\t// out\n        /* \"#utility.yul\":5899:6228   */\n    tag_76:\n        /* \"#utility.yul\":5958:5964   */\n      0x00\n        /* \"#utility.yul\":6007:6009   */\n      0x20\n        /* \"#utility.yul\":5995:6004   */\n      dup3\n        /* \"#utility.yul\":5986:5993   */\n      dup5\n        /* \"#utility.yul\":5982:6005   */\n      sub\n        /* \"#utility.yul\":5978:6010   */\n      slt\n        /* \"#utility.yul\":5975:6094   */\n      iszero\n      tag_354\n      jumpi\n        /* \"#utility.yul\":6013:6092   */\n      tag_355\n      tag_263\n      jump\t// in\n    tag_355:\n        /* \"#utility.yul\":5975:6094   */\n    tag_354:\n        /* \"#utility.yul\":6133:6134   */\n      0x00\n        /* \"#utility.yul\":6158:6211   */\n      tag_356\n        /* \"#utility.yul\":6203:6210   */\n      dup5\n        /* \"#utility.yul\":6194:6200   */\n      dup3\n        /* \"#utility.yul\":6183:6192   */\n      dup6\n        /* \"#utility.yul\":6179:6201   */\n      add\n        /* \"#utility.yul\":6158:6211   */\n      tag_272\n      jump\t// in\n    tag_356:\n        /* \"#utility.yul\":6148:6211   */\n      swap2\n      pop\n        /* \"#utility.yul\":6104:6221   */\n      pop\n        /* \"#utility.yul\":5899:6228   */\n      swap3\n      swap2\n      pop\n      pop\n      jump\t// out\n        /* \"#utility.yul\":6234:6414   */\n    tag_273:\n        /* \"#utility.yul\":6282:6359   */\n      0x4e487b7100000000000000000000000000000000000000000000000000000000\n        /* \"#utility.yul\":6279:6280   */\n      0x00\n        /* \"#utility.yul\":6272:6360   */\n      mstore\n        /* \"#utility.yul\":6379:6383   */\n      0x11\n        /* \"#utility.yul\":6376:6377   */\n      0x04\n        /* \"#utility.yul\":6369:6384   */\n      mstore\n        /* \"#utility.yul\":6403:6407   */\n      0x24\n        /* \"#utility.yul\":6400:6401   */\n      0x00\n        /* \"#utility.yul\":6393:6408   */\n      revert\n        /* \"#utility.yul\":6420:6768   */\n    tag_86:\n        /* \"#utility.yul\":6460:6467   */\n      0x00\n        /* \"#utility.yul\":6483:6503   */\n      tag_359\n        /* \"#utility.yul\":6501:6502   */\n      dup3\n        /* \"#utility.yul\":6483:6503   */\n      tag_256\n      jump\t// in\n    tag_359:\n        /* \"#utility.yul\":6478:6503   */\n      swap2\n      pop\n        /* \"#utility.yul\":6517:6537   */\n      tag_360\n        /* \"#utility.yul\":6535:6536   */\n      dup4\n        /* \"#utility.yul\":6517:6537   */\n      tag_256\n      jump\t// in\n    tag_360:\n        /* \"#utility.yul\":6512:6537   */\n      swap3\n      pop\n        /* \"#utility.yul\":6705:6706   */\n      dup2\n        /* \"#utility.yul\":6637:6703   */\n      0xffffffffffffffffffffffffffffffffffffffffffffffffffffffffffffffff\n        /* \"#utility.yul\":6633:6707   */\n      div\n        /* \"#utility.yul\":6630:6631   */\n      dup4\n        /* \"#utility.yul\":6627:6708   */\n      gt\n        /* \"#utility.yul\":6622:6623   */\n      dup3\n        /* \"#utility.yul\":6615:6624   */\n      iszero\n        /* \"#utility.yul\":6608:6625   */\n      iszero\n        /* \"#utility.yul\":6604:6709   */\n      and\n        /* \"#utility.yul\":6601:6732   */\n      iszero\n      tag_361\n      jumpi\n        /* \"#utility.yul\":6712:6730   */\n      tag_362\n      tag_273\n      jump\t// in\n    tag_362:\n        /* \"#utility.yul\":6601:6732   */\n    tag_361:\n        /* \"#utility.yul\":6760:6761   */\n      dup3\n        /* \"#utility.yul\":6757:6758   */\n      dup3\n        /* \"#utility.yul\":6753:6762   */\n      mul\n        /* \"#utility.yul\":6742:6762   */\n      swap1\n      pop\n        /* \"#utility.yul\":6420:6768   */\n      swap3\n      swap2\n      pop\n      pop\n      jump\t// out\n        /* \"#utility.yul\":6774:6954   */\n    tag_274:\n        /* \"#utility.yul\":6822:6899   */\n      0x4e487b7100000000000000000000000000000000000000000000000000000000\n        /* \"#utility.yul\":6819:6820   */\n      0x00\n        /* \"#utility.yul\":6812:6900   */\n      mstore\n        /* \"#utility.yul\":6919:6923   */\n      0x12\n        /* \"#utility.yul\":6916:6917   */\n      0x04\n        /* \"#utility.yul\":6909:6924   */\n      mstore\n        /* \"#utility.yul\":6943:6947   */\n      0x24\n        /* \"#utility.yul\":6940:6941   */\n      0x00\n        /* \"#utility.yul\":6933:6948   */\n      revert\n        /* \"#utility.yul\":6960:7145   */\n    tag_88:\n        /* \"#utility.yul\":7000:7001   */\n      0x00\n        /* \"#utility.yul\":7017:7037   */\n      tag_365\n        /* \"#utility.yul\":7035:7036   */\n      dup3\n        /* \"#utility.yul\":7017:7037   */\n      tag_256\n      jump\t// in\n    tag_365:\n        /* \"#utility.yul\":7012:7037   */\n      swap2\n      pop\n        /* \"#utility.yul\":7051:7071   */\n      tag_366\n        /* \"#utility.yul\":7069:7070   */\n      dup4\n        /* \"#utility.yul\":7051:7071   */\n      tag_256\n      jump\t// in\n    tag_366:\n        /* \"#utility.yul\":7046:7071   */\n      swap3\n      pop\n        /* \"#utility.yul\":7090:7091   */\n      dup3\n        /* \"#utility.yul\":7080:7115   */\n      tag_367\n      jumpi\n        /* \"#utility.yul\":7095:7113   */\n      tag_368\n      tag_274\n      jump\t// in\n    tag_368:\n        /* \"#utility.yul\":7080:7115   */\n    tag_367:\n        /* \"#utility.yul\":7137:7138   */\n      dup3\n        /* \"#utility.yul\":7134:7135   */\n      dup3\n        /* \"#utility.yul\":7130:7139   */\n      div\n        /* \"#utility.yul\":7125:7139   */\n      swap1\n      pop\n        /* \"#utility.yul\":6960:7145   */\n      swap3\n      swap2\n      pop\n      pop\n      jump\t// out\n        /* \"#utility.yul\":7151:7456   */\n    tag_92:\n        /* \"#utility.yul\":7191:7194   */\n      0x00\n        /* \"#utility.yul\":7210:7230   */\n      tag_370\n        /* \"#utility.yul\":7228:7229   */\n      dup3\n        /* \"#utility.yul\":7210:7230   */\n      tag_256\n      jump\t// in\n    tag_370:\n        /* \"#utility.yul\":7205:7230   */\n      swap2\n      pop\n        /* \"#utility.yul\":7244:7264   */\n      tag_371\n        /* \"#utility.yul\":7262:7263   */\n      dup4\n        /* \"#utility.yul\":7244:7264   */\n      tag_256\n      jump\t// in\n    tag_371:\n        /* \"#utility.yul\":7239:7264   */\n      swap3\n      pop\n        /* \"#utility.yul\":7398:7399   */\n      dup3\n        /* \"#utility.yul\":7330:7396   */\n      0xffffffffffffffffffffffffffffffffffffffffffffffffffffffffffffffff\n        /* \"#utility.yul\":7326:7400   */\n      sub\n        /* \"#utility.yul\":7323:7324   */\n      dup3\n        /* \"#utility.yul\":7320:7401   */\n      gt\n        /* \"#utility.yul\":7317:7424   */\n      iszero\n      tag_372\n      jumpi\n        /* \"#utility.yul\":7404:7422   */\n      tag_373\n      tag_273\n      jump\t// in\n    tag_373:\n        /* \"#utility.yul\":7317:7424   */\n    tag_372:\n        /* \"#utility.yul\":7448:7449   */\n      dup3\n        /* \"#utility.yul\":7445:7446   */\n      dup3\n        /* \"#utility.yul\":7441:7450   */\n      add\n        /* \"#utility.yul\":7434:7450   */\n      swap1\n      pop\n        /* \"#utility.yul\":7151:7456   */\n      swap3\n      swap2\n      pop\n      pop\n      jump\t// out\n        /* \"#utility.yul\":7462:7631   */\n    tag_275:\n        /* \"#utility.yul\":7546:7557   */\n      0x00\n        /* \"#utility.yul\":7580:7586   */\n      dup3\n        /* \"#utility.yul\":7575:7578   */\n      dup3\n        /* \"#utility.yul\":7568:7587   */\n      mstore\n        /* \"#utility.yul\":7620:7624   */\n      0x20\n        /* \"#utility.yul\":7615:7618   */\n      dup3\n        /* \"#utility.yul\":7611:7625   */\n      add\n        /* \"#utility.yul\":7596:7625   */\n      swap1\n      pop\n        /* \"#utility.yul\":7462:7631   */\n      swap3\n      swap2\n      pop\n      pop\n      jump\t// out\n        /* \"#utility.yul\":7637:7819   */\n    tag_276:\n        /* \"#utility.yul\":7777:7811   */\n      0x4f776e61626c653a2063616c6c6572206973206e6f7420746865206f776e6572\n        /* \"#utility.yul\":7773:7774   */\n      0x00\n        /* \"#utility.yul\":7765:7771   */\n      dup3\n        /* \"#utility.yul\":7761:7775   */\n      add\n        /* \"#utility.yul\":7754:7812   */\n      mstore\n        /* \"#utility.yul\":7637:7819   */\n      pop\n      jump\t// out\n        /* \"#utility.yul\":7825:8191   */\n    tag_277:\n        /* \"#utility.yul\":7967:7970   */\n      0x00\n        /* \"#utility.yul\":7988:8055   */\n      tag_377\n        /* \"#utility.yul\":8052:8054   */\n      0x20\n        /* \"#utility.yul\":8047:8050   */\n      dup4\n        /* \"#utility.yul\":7988:8055   */\n      tag_275\n      jump\t// in\n    tag_377:\n        /* \"#utility.yul\":7981:8055   */\n      swap2\n      pop\n        /* \"#utility.yul\":8064:8157   */\n      tag_378\n        /* \"#utility.yul\":8153:8156   */\n      dup3\n        /* \"#utility.yul\":8064:8157   */\n      tag_276\n      jump\t// in\n    tag_378:\n        /* \"#utility.yul\":8182:8184   */\n      0x20\n        /* \"#utility.yul\":8177:8180   */\n      dup3\n        /* \"#utility.yul\":8173:8185   */\n      add\n        /* \"#utility.yul\":8166:8185   */\n      swap1\n      pop\n        /* \"#utility.yul\":7825:8191   */\n      swap2\n      swap1\n      pop\n      jump\t// out\n        /* \"#utility.yul\":8197:8616   */\n    tag_115:\n        /* \"#utility.yul\":8363:8367   */\n      0x00\n        /* \"#utility.yul\":8401:8403   */\n      0x20\n        /* \"#utility.yul\":8390:8399   */\n      dup3\n        /* \"#utility.yul\":8386:8404   */\n      add\n        /* \"#utility.yul\":8378:8404   */\n      swap1\n      pop\n        /* \"#utility.yul\":8450:8459   */\n      dup2\n        /* \"#utility.yul\":8444:8448   */\n      dup2\n        /* \"#utility.yul\":8440:8460   */\n      sub\n        /* \"#utility.yul\":8436:8437   */\n      0x00\n        /* \"#utility.yul\":8425:8434   */\n      dup4\n        /* \"#utility.yul\":8421:8438   */\n      add\n        /* \"#utility.yul\":8414:8461   */\n      mstore\n        /* \"#utility.yul\":8478:8609   */\n      tag_380\n        /* \"#utility.yul\":8604:8608   */\n      dup2\n        /* \"#utility.yul\":8478:8609   */\n      tag_277\n      jump\t// in\n    tag_380:\n        /* \"#utility.yul\":8470:8609   */\n      swap1\n      pop\n        /* \"#utility.yul\":8197:8616   */\n      swap2\n      swap1\n      pop\n      jump\t// out\n        /* \"#utility.yul\":8622:8803   */\n    tag_278:\n        /* \"#utility.yul\":8762:8795   */\n      0x5265656e7472616e637947756172643a207265656e7472616e742063616c6c00\n        /* \"#utility.yul\":8758:8759   */\n      0x00\n        /* \"#utility.yul\":8750:8756   */\n      dup3\n        /* \"#utility.yul\":8746:8760   */\n      add\n        /* \"#utility.yul\":8739:8796   */\n      mstore\n        /* \"#utility.yul\":8622:8803   */\n      pop\n      jump\t// out\n        /* \"#utility.yul\":8809:9175   */\n    tag_279:\n        /* \"#utility.yul\":8951:8954   */\n      0x00\n        /* \"#utility.yul\":8972:9039   */\n      tag_383\n        /* \"#utility.yul\":9036:9038   */\n      0x1f\n        /* \"#utility.yul\":9031:9034   */\n      dup4\n        /* \"#utility.yul\":8972:9039   */\n      tag_275\n      jump\t// in\n    tag_383:\n        /* \"#utility.yul\":8965:9039   */\n      swap2\n      pop\n        /* \"#utility.yul\":9048:9141   */\n      tag_384\n        /* \"#utility.yul\":9137:9140   */\n      dup3\n        /* \"#utility.yul\":9048:9141   */\n      tag_278\n      jump\t// in\n    tag_384:\n        /* \"#utility.yul\":9166:9168   */\n      0x20\n        /* \"#utility.yul\":9161:9164   */\n      dup3\n        /* \"#utility.yul\":9157:9169   */\n      add\n        /* \"#utility.yul\":9150:9169   */\n      swap1\n      pop\n        /* \"#utility.yul\":8809:9175   */\n      swap2\n      swap1\n      pop\n      jump\t// out\n        /* \"#utility.yul\":9181:9600   */\n    tag_122:\n        /* \"#utility.yul\":9347:9351   */\n      0x00\n        /* \"#utility.yul\":9385:9387   */\n      0x20\n        /* \"#utility.yul\":9374:9383   */\n      dup3\n        /* \"#utility.yul\":9370:9388   */\n      add\n        /* \"#utility.yul\":9362:9388   */\n      swap1\n      pop\n        /* \"#utility.yul\":9434:9443   */\n      dup2\n        /* \"#utility.yul\":9428:9432   */\n      dup2\n        /* \"#utility.yul\":9424:9444   */\n      sub\n        /* \"#utility.yul\":9420:9421   */\n      0x00\n        /* \"#utility.yul\":9409:9418   */\n      dup4\n        /* \"#utility.yul\":9405:9422   */\n      add\n        /* \"#utility.yul\":9398:9445   */\n      mstore\n        /* \"#utility.yul\":9462:9593   */\n      tag_386\n        /* \"#utility.yul\":9588:9592   */\n      dup2\n        /* \"#utility.yul\":9462:9593   */\n      tag_279\n      jump\t// in\n    tag_386:\n        /* \"#utility.yul\":9454:9593   */\n      swap1\n      pop\n        /* \"#utility.yul\":9181:9600   */\n      swap2\n      swap1\n      pop\n      jump\t// out\n        /* \"#utility.yul\":9606:10048   */\n    tag_131:\n        /* \"#utility.yul\":9755:9759   */\n      0x00\n        /* \"#utility.yul\":9793:9795   */\n      0x60\n        /* \"#utility.yul\":9782:9791   */\n      dup3\n        /* \"#utility.yul\":9778:9796   */\n      add\n        /* \"#utility.yul\":9770:9796   */\n      swap1\n      pop\n        /* \"#utility.yul\":9806:9877   */\n      tag_388\n        /* \"#utility.yul\":9874:9875   */\n      0x00\n        /* \"#utility.yul\":9863:9872   */\n      dup4\n        /* \"#utility.yul\":9859:9876   */\n      add\n        /* \"#utility.yul\":9850:9856   */\n      dup7\n        /* \"#utility.yul\":9806:9877   */\n      tag_267\n      jump\t// in\n    tag_388:\n        /* \"#utility.yul\":9887:9959   */\n      tag_389\n        /* \"#utility.yul\":9955:9957   */\n      0x20\n        /* \"#utility.yul\":9944:9953   */\n      dup4\n        /* \"#utility.yul\":9940:9958   */\n      add\n        /* \"#utility.yul\":9931:9937   */\n      dup6\n        /* \"#utility.yul\":9887:9959   */\n      tag_267\n      jump\t// in\n    tag_389:\n        /* \"#utility.yul\":9969:10041   */\n      tag_390\n        /* \"#utility.yul\":10037:10039   */\n      0x40\n        /* \"#utility.yul\":10026:10035   */\n      dup4\n        /* \"#utility.yul\":10022:10040   */\n      add\n        /* \"#utility.yul\":10013:10019   */\n      dup5\n        /* \"#utility.yul\":9969:10041   */\n      tag_267\n      jump\t// in\n    tag_390:\n        /* \"#utility.yul\":9606:10048   */\n      swap5\n      swap4\n      pop\n      pop\n      pop\n      pop\n      jump\t// out\n        /* \"#utility.yul\":10054:10245   */\n    tag_144:\n        /* \"#utility.yul\":10094:10098   */\n      0x00\n        /* \"#utility.yul\":10114:10134   */\n      tag_392\n        /* \"#utility.yul\":10132:10133   */\n      dup3\n        /* \"#utility.yul\":10114:10134   */\n      tag_256\n      jump\t// in\n    tag_392:\n        /* \"#utility.yul\":10109:10134   */\n      swap2\n      pop\n        /* \"#utility.yul\":10148:10168   */\n      tag_393\n        /* \"#utility.yul\":10166:10167   */\n      dup4\n        /* \"#utility.yul\":10148:10168   */\n      tag_256\n      jump\t// in\n    tag_393:\n        /* \"#utility.yul\":10143:10168   */\n      swap3\n      pop\n        /* \"#utility.yul\":10187:10188   */\n      dup3\n        /* \"#utility.yul\":10184:10185   */\n      dup3\n        /* \"#utility.yul\":10181:10189   */\n      lt\n        /* \"#utility.yul\":10178:10212   */\n      iszero\n      tag_394\n      jumpi\n        /* \"#utility.yul\":10192:10210   */\n      tag_395\n      tag_273\n      jump\t// in\n    tag_395:\n        /* \"#utility.yul\":10178:10212   */\n    tag_394:\n        /* \"#utility.yul\":10237:10238   */\n      dup3\n        /* \"#utility.yul\":10234:10235   */\n      dup3\n        /* \"#utility.yul\":10230:10239   */\n      sub\n        /* \"#utility.yul\":10222:10239   */\n      swap1\n      pop\n        /* \"#utility.yul\":10054:10245   */\n      swap3\n      swap2\n      pop\n      pop\n      jump\t// out\n        /* \"#utility.yul\":10251:10476   */\n    tag_280:\n        /* \"#utility.yul\":10391:10425   */\n      0x4f776e61626c653a206e6577206f776e657220697320746865207a65726f2061\n        /* \"#utility.yul\":10387:10388   */\n      0x00\n        /* \"#utility.yul\":10379:10385   */\n      dup3\n        /* \"#utility.yul\":10375:10389   */\n      add\n        /* \"#utility.yul\":10368:10426   */\n      mstore\n        /* \"#utility.yul\":10460:10468   */\n      0x6464726573730000000000000000000000000000000000000000000000000000\n        /* \"#utility.yul\":10455:10457   */\n      0x20\n        /* \"#utility.yul\":10447:10453   */\n      dup3\n        /* \"#utility.yul\":10443:10458   */\n      add\n        /* \"#utility.yul\":10436:10469   */\n      mstore\n        /* \"#utility.yul\":10251:10476   */\n      pop\n      jump\t// out\n        /* \"#utility.yul\":10482:10848   */\n    tag_281:\n        /* \"#utility.yul\":10624:10627   */\n      0x00\n        /* \"#utility.yul\":10645:10712   */\n      tag_398\n        /* \"#utility.yul\":10709:10711   */\n      0x26\n        /* \"#utility.yul\":10704:10707   */\n      dup4\n        /* \"#utility.yul\":10645:10712   */\n      tag_275\n      jump\t// in\n    tag_398:\n        /* \"#utility.yul\":10638:10712   */\n      swap2\n      pop\n        /* \"#utility.yul\":10721:10814   */\n      tag_399\n        /* \"#utility.yul\":10810:10813   */\n      dup3\n        /* \"#utility.yul\":10721:10814   */\n      tag_280\n      jump\t// in\n    tag_399:\n        /* \"#utility.yul\":10839:10841   */\n      0x40\n        /* \"#utility.yul\":10834:10837   */\n      dup3\n        /* \"#utility.yul\":10830:10842   */\n      add\n        /* \"#utility.yul\":10823:10842   */\n      swap1\n      pop\n        /* \"#utility.yul\":10482:10848   */\n      swap2\n      swap1\n      pop\n      jump\t// out\n        /* \"#utility.yul\":10854:11273   */\n    tag_182:\n        /* \"#utility.yul\":11020:11024   */\n      0x00\n        /* \"#utility.yul\":11058:11060   */\n      0x20\n        /* \"#utility.yul\":11047:11056   */\n      dup3\n        /* \"#utility.yul\":11043:11061   */\n      add\n        /* \"#utility.yul\":11035:11061   */\n      swap1\n      pop\n        /* \"#utility.yul\":11107:11116   */\n      dup2\n        /* \"#utility.yul\":11101:11105   */\n      dup2\n        /* \"#utility.yul\":11097:11117   */\n      sub\n        /* \"#utility.yul\":11093:11094   */\n      0x00\n        /* \"#utility.yul\":11082:11091   */\n      dup4\n        /* \"#utility.yul\":11078:11095   */\n      add\n        /* \"#utility.yul\":11071:11118   */\n      mstore\n        /* \"#utility.yul\":11135:11266   */\n      tag_401\n        /* \"#utility.yul\":11261:11265   */\n      dup2\n        /* \"#utility.yul\":11135:11266   */\n      tag_281\n      jump\t// in\n    tag_401:\n        /* \"#utility.yul\":11127:11266   */\n      swap1\n      pop\n        /* \"#utility.yul\":10854:11273   */\n      swap2\n      swap1\n      pop\n      jump\t// out\n        /* \"#utility.yul\":11279:11611   */\n    tag_199:\n        /* \"#utility.yul\":11400:11404   */\n      0x00\n        /* \"#utility.yul\":11438:11440   */\n      0x40\n        /* \"#utility.yul\":11427:11436   */\n      dup3\n        /* \"#utility.yul\":11423:11441   */\n      add\n        /* \"#utility.yul\":11415:11441   */\n      swap1\n      pop\n        /* \"#utility.yul\":11451:11522   */\n      tag_403\n        /* \"#utility.yul\":11519:11520   */\n      0x00\n        /* \"#utility.yul\":11508:11517   */\n      dup4\n        /* \"#utility.yul\":11504:11521   */\n      add\n        /* \"#utility.yul\":11495:11501   */\n      dup6\n        /* \"#utility.yul\":11451:11522   */\n      tag_270\n      jump\t// in\n    tag_403:\n        /* \"#utility.yul\":11532:11604   */\n      tag_404\n        /* \"#utility.yul\":11600:11602   */\n      0x20\n        /* \"#utility.yul\":11589:11598   */\n      dup4\n        /* \"#utility.yul\":11585:11603   */\n      add\n        /* \"#utility.yul\":11576:11582   */\n      dup5\n        /* \"#utility.yul\":11532:11604   */\n      tag_267\n      jump\t// in\n    tag_404:\n        /* \"#utility.yul\":11279:11611   */\n      swap4\n      swap3\n      pop\n      pop\n      pop\n      jump\t// out\n        /* \"#utility.yul\":11617:12059   */\n    tag_206:\n        /* \"#utility.yul\":11766:11770   */\n      0x00\n        /* \"#utility.yul\":11804:11806   */\n      0x60\n        /* \"#utility.yul\":11793:11802   */\n      dup3\n        /* \"#utility.yul\":11789:11807   */\n      add\n        /* \"#utility.yul\":11781:11807   */\n      swap1\n      pop\n        /* \"#utility.yul\":11817:11888   */\n      tag_406\n        /* \"#utility.yul\":11885:11886   */\n      0x00\n        /* \"#utility.yul\":11874:11883   */\n      dup4\n        /* \"#utility.yul\":11870:11887   */\n      add\n        /* \"#utility.yul\":11861:11867   */\n      dup7\n        /* \"#utility.yul\":11817:11888   */\n      tag_270\n      jump\t// in\n    tag_406:\n        /* \"#utility.yul\":11898:11970   */\n      tag_407\n        /* \"#utility.yul\":11966:11968   */\n      0x20\n        /* \"#utility.yul\":11955:11964   */\n      dup4\n        /* \"#utility.yul\":11951:11969   */\n      add\n        /* \"#utility.yul\":11942:11948   */\n      dup6\n        /* \"#utility.yul\":11898:11970   */\n      tag_270\n      jump\t// in\n    tag_407:\n        /* \"#utility.yul\":11980:12052   */\n      tag_408\n        /* \"#utility.yul\":12048:12050   */\n      0x40\n        /* \"#utility.yul\":12037:12046   */\n      dup4\n        /* \"#utility.yul\":12033:12051   */\n      add\n        /* \"#utility.yul\":12024:12030   */\n      dup5\n        /* \"#utility.yul\":11980:12052   */\n      tag_267\n      jump\t// in\n    tag_408:\n        /* \"#utility.yul\":11617:12059   */\n      swap5\n      swap4\n      pop\n      pop\n      pop\n      pop\n      jump\t// out\n        /* \"#utility.yul\":12065:12181   */\n    tag_282:\n        /* \"#utility.yul\":12135:12156   */\n      tag_410\n        /* \"#utility.yul\":12150:12155   */\n      dup2\n        /* \"#utility.yul\":12135:12156   */\n      tag_260\n      jump\t// in\n    tag_410:\n        /* \"#utility.yul\":12128:12133   */\n      dup2\n        /* \"#utility.yul\":12125:12157   */\n      eq\n        /* \"#utility.yul\":12115:12175   */\n      tag_411\n      jumpi\n        /* \"#utility.yul\":12171:12172   */\n      0x00\n        /* \"#utility.yul\":12168:12169   */\n      dup1\n        /* \"#utility.yul\":12161:12173   */\n      revert\n        /* \"#utility.yul\":12115:12175   */\n    tag_411:\n        /* \"#utility.yul\":12065:12181   */\n      pop\n      jump\t// out\n        /* \"#utility.yul\":12187:12324   */\n    tag_283:\n        /* \"#utility.yul\":12241:12246   */\n      0x00\n        /* \"#utility.yul\":12272:12278   */\n      dup2\n        /* \"#utility.yul\":12266:12279   */\n      mload\n        /* \"#utility.yul\":12257:12279   */\n      swap1\n      pop\n        /* \"#utility.yul\":12288:12318   */\n      tag_413\n        /* \"#utility.yul\":12312:12317   */\n      dup2\n        /* \"#utility.yul\":12288:12318   */\n      tag_282\n      jump\t// in\n    tag_413:\n        /* \"#utility.yul\":12187:12324   */\n      swap3\n      swap2\n      pop\n      pop\n      jump\t// out\n        /* \"#utility.yul\":12330:12675   */\n    tag_223:\n        /* \"#utility.yul\":12397:12403   */\n      0x00\n        /* \"#utility.yul\":12446:12448   */\n      0x20\n        /* \"#utility.yul\":12434:12443   */\n      dup3\n        /* \"#utility.yul\":12425:12432   */\n      dup5\n        /* \"#utility.yul\":12421:12444   */\n      sub\n        /* \"#utility.yul\":12417:12449   */\n      slt\n        /* \"#utility.yul\":12414:12533   */\n      iszero\n      tag_415\n      jumpi\n        /* \"#utility.yul\":12452:12531   */\n      tag_416\n      tag_263\n      jump\t// in\n    tag_416:\n        /* \"#utility.yul\":12414:12533   */\n    tag_415:\n        /* \"#utility.yul\":12572:12573   */\n      0x00\n        /* \"#utility.yul\":12597:12658   */\n      tag_417\n        /* \"#utility.yul\":12650:12657   */\n      dup5\n        /* \"#utility.yul\":12641:12647   */\n      dup3\n        /* \"#utility.yul\":12630:12639   */\n      dup6\n        /* \"#utility.yul\":12626:12648   */\n      add\n        /* \"#utility.yul\":12597:12658   */\n      tag_283\n      jump\t// in\n    tag_417:\n        /* \"#utility.yul\":12587:12658   */\n      swap2\n      pop\n        /* \"#utility.yul\":12543:12668   */\n      pop\n        /* \"#utility.yul\":12330:12675   */\n      swap3\n      swap2\n      pop\n      pop\n      jump\t// out\n        /* \"#utility.yul\":12681:12910   */\n    tag_284:\n        /* \"#utility.yul\":12821:12855   */\n      0x5361666545524332303a204552433230206f7065726174696f6e20646964206e\n        /* \"#utility.yul\":12817:12818   */\n      0x00\n        /* \"#utility.yul\":12809:12815   */\n      dup3\n        /* \"#utility.yul\":12805:12819   */\n      add\n        /* \"#utility.yul\":12798:12856   */\n      mstore\n        /* \"#utility.yul\":12890:12902   */\n      0x6f74207375636365656400000000000000000000000000000000000000000000\n        /* \"#utility.yul\":12885:12887   */\n      0x20\n        /* \"#utility.yul\":12877:12883   */\n      dup3\n        /* \"#utility.yul\":12873:12888   */\n      add\n        /* \"#utility.yul\":12866:12903   */\n      mstore\n        /* \"#utility.yul\":12681:12910   */\n      pop\n      jump\t// out\n        /* \"#utility.yul\":12916:13282   */\n    tag_285:\n        /* \"#utility.yul\":13058:13061   */\n      0x00\n        /* \"#utility.yul\":13079:13146   */\n      tag_420\n        /* \"#utility.yul\":13143:13145   */\n      0x2a\n        /* \"#utility.yul\":13138:13141   */\n      dup4\n        /* \"#utility.yul\":13079:13146   */\n      tag_275\n      jump\t// in\n    tag_420:\n        /* \"#utility.yul\":13072:13146   */\n      swap2\n      pop\n        /* \"#utility.yul\":13155:13248   */\n      tag_421\n        /* \"#utility.yul\":13244:13247   */\n      dup3\n        /* \"#utility.yul\":13155:13248   */\n      tag_284\n      jump\t// in\n    tag_421:\n        /* \"#utility.yul\":13273:13275   */\n      0x40\n        /* \"#utility.yul\":13268:13271   */\n      dup3\n        /* \"#utility.yul\":13264:13276   */\n      add\n        /* \"#utility.yul\":13257:13276   */\n      swap1\n      pop\n        /* \"#utility.yul\":12916:13282   */\n      swap2\n      swap1\n      pop\n      jump\t// out\n        /* \"#utility.yul\":13288:13707   */\n    tag_226:\n        /* \"#utility.yul\":13454:13458   */\n      0x00\n        /* \"#utility.yul\":13492:13494   */\n      0x20\n        /* \"#utility.yul\":13481:13490   */\n      dup3\n        /* \"#utility.yul\":13477:13495   */\n      add\n        /* \"#utility.yul\":13469:13495   */\n      swap1\n      pop\n        /* \"#utility.yul\":13541:13550   */\n      dup2\n        /* \"#utility.yul\":13535:13539   */\n      dup2\n        /* \"#utility.yul\":13531:13551   */\n      sub\n        /* \"#utility.yul\":13527:13528   */\n      0x00\n        /* \"#utility.yul\":13516:13525   */\n      dup4\n        /* \"#utility.yul\":13512:13529   */\n      add\n        /* \"#utility.yul\":13505:13552   */\n      mstore\n        /* \"#utility.yul\":13569:13700   */\n      tag_423\n        /* \"#utility.yul\":13695:13699   */\n      dup2\n        /* \"#utility.yul\":13569:13700   */\n      tag_285\n      jump\t// in\n    tag_423:\n        /* \"#utility.yul\":13561:13700   */\n      swap1\n      pop\n        /* \"#utility.yul\":13288:13707   */\n      swap2\n      swap1\n      pop\n      jump\t// out\n        /* \"#utility.yul\":13713:13938   */\n    tag_286:\n        /* \"#utility.yul\":13853:13887   */\n      0x416464726573733a20696e73756666696369656e742062616c616e636520666f\n        /* \"#utility.yul\":13849:13850   */\n      0x00\n        /* \"#utility.yul\":13841:13847   */\n      dup3\n        /* \"#utility.yul\":13837:13851   */\n      add\n        /* \"#utility.yul\":13830:13888   */\n      mstore\n        /* \"#utility.yul\":13922:13930   */\n      0x722063616c6c0000000000000000000000000000000000000000000000000000\n        /* \"#utility.yul\":13917:13919   */\n      0x20\n        /* \"#utility.yul\":13909:13915   */\n      dup3\n        /* \"#utility.yul\":13905:13920   */\n      add\n        /* \"#utility.yul\":13898:13931   */\n      mstore\n        /* \"#utility.yul\":13713:13938   */\n      pop\n      jump\t// out\n        /* \"#utility.yul\":13944:14310   */\n    tag_287:\n        /* \"#utility.yul\":14086:14089   */\n      0x00\n        /* \"#utility.yul\":14107:14174   */\n      tag_426\n        /* \"#utility.yul\":14171:14173   */\n      0x26\n        /* \"#utility.yul\":14166:14169   */\n      dup4\n        /* \"#utility.yul\":14107:14174   */\n      tag_275\n      jump\t// in\n    tag_426:\n        /* \"#utility.yul\":14100:14174   */\n      swap2\n      pop\n        /* \"#utility.yul\":14183:14276   */\n      tag_427\n        /* \"#utility.yul\":14272:14275   */\n      dup3\n        /* \"#utility.yul\":14183:14276   */\n      tag_286\n      jump\t// in\n    tag_427:\n        /* \"#utility.yul\":14301:14303   */\n      0x40\n        /* \"#utility.yul\":14296:14299   */\n      dup3\n        /* \"#utility.yul\":14292:14304   */\n      add\n        /* \"#utility.yul\":14285:14304   */\n      swap1\n      pop\n        /* \"#utility.yul\":13944:14310   */\n      swap2\n      swap1\n      pop\n      jump\t// out\n        /* \"#utility.yul\":14316:14735   */\n    tag_233:\n        /* \"#utility.yul\":14482:14486   */\n      0x00\n        /* \"#utility.yul\":14520:14522   */\n      0x20\n        /* \"#utility.yul\":14509:14518   */\n      dup3\n        /* \"#utility.yul\":14505:14523   */\n      add\n        /* \"#utility.yul\":14497:14523   */\n      swap1\n      pop\n        /* \"#utility.yul\":14569:14578   */\n      dup2\n        /* \"#utility.yul\":14563:14567   */\n      dup2\n        /* \"#utility.yul\":14559:14579   */\n      sub\n        /* \"#utility.yul\":14555:14556   */\n      0x00\n        /* \"#utility.yul\":14544:14553   */\n      dup4\n        /* \"#utility.yul\":14540:14557   */\n      add\n        /* \"#utility.yul\":14533:14580   */\n      mstore\n        /* \"#utility.yul\":14597:14728   */\n      tag_429\n        /* \"#utility.yul\":14723:14727   */\n      dup2\n        /* \"#utility.yul\":14597:14728   */\n      tag_287\n      jump\t// in\n    tag_429:\n        /* \"#utility.yul\":14589:14728   */\n      swap1\n      pop\n        /* \"#utility.yul\":14316:14735   */\n      swap2\n      swap1\n      pop\n      jump\t// out\n        /* \"#utility.yul\":14741:14920   */\n    tag_288:\n        /* \"#utility.yul\":14881:14912   */\n      0x416464726573733a2063616c6c20746f206e6f6e2d636f6e7472616374000000\n        /* \"#utility.yul\":14877:14878   */\n      0x00\n        /* \"#utility.yul\":14869:14875   */\n      dup3\n        /* \"#utility.yul\":14865:14879   */\n      add\n        /* \"#utility.yul\":14858:14913   */\n      mstore\n        /* \"#utility.yul\":14741:14920   */\n      pop\n      jump\t// out\n        /* \"#utility.yul\":14926:15292   */\n    tag_289:\n        /* \"#utility.yul\":15068:15071   */\n      0x00\n        /* \"#utility.yul\":15089:15156   */\n      tag_432\n        /* \"#utility.yul\":15153:15155   */\n      0x1d\n        /* \"#utility.yul\":15148:15151   */\n      dup4\n        /* \"#utility.yul\":15089:15156   */\n      tag_275\n      jump\t// in\n    tag_432:\n        /* \"#utility.yul\":15082:15156   */\n      swap2\n      pop\n        /* \"#utility.yul\":15165:15258   */\n      tag_433\n        /* \"#utility.yul\":15254:15257   */\n      dup3\n        /* \"#utility.yul\":15165:15258   */\n      tag_288\n      jump\t// in\n    tag_433:\n        /* \"#utility.yul\":15283:15285   */\n      0x20\n        /* \"#utility.yul\":15278:15281   */\n      dup3\n        /* \"#utility.yul\":15274:15286   */\n      add\n        /* \"#utility.yul\":15267:15286   */\n      swap1\n      pop\n        /* \"#utility.yul\":14926:15292   */\n      swap2\n      swap1\n      pop\n      jump\t// out\n        /* \"#utility.yul\":15298:15717   */\n    tag_238:\n        /* \"#utility.yul\":15464:15468   */\n      0x00\n        /* \"#utility.yul\":15502:15504   */\n      0x20\n        /* \"#utility.yul\":15491:15500   */\n      dup3\n        /* \"#utility.yul\":15487:15505   */\n      add\n        /* \"#utility.yul\":15479:15505   */\n      swap1\n      pop\n        /* \"#utility.yul\":15551:15560   */\n      dup2\n        /* \"#utility.yul\":15545:15549   */\n      dup2\n        /* \"#utility.yul\":15541:15561   */\n      sub\n        /* \"#utility.yul\":15537:15538   */\n      0x00\n        /* \"#utility.yul\":15526:15535   */\n      dup4\n        /* \"#utility.yul\":15522:15539   */\n      add\n        /* \"#utility.yul\":15515:15562   */\n      mstore\n        /* \"#utility.yul\":15579:15710   */\n      tag_435\n        /* \"#utility.yul\":15705:15709   */\n      dup2\n        /* \"#utility.yul\":15579:15710   */\n      tag_289\n      jump\t// in\n    tag_435:\n        /* \"#utility.yul\":15571:15710   */\n      swap1\n      pop\n        /* \"#utility.yul\":15298:15717   */\n      swap2\n      swap1\n      pop\n      jump\t// out\n        /* \"#utility.yul\":15723:15821   */\n    tag_290:\n        /* \"#utility.yul\":15774:15780   */\n      0x00\n        /* \"#utility.yul\":15808:15813   */\n      dup2\n        /* \"#utility.yul\":15802:15814   */\n      mload\n        /* \"#utility.yul\":15792:15814   */\n      swap1\n      pop\n        /* \"#utility.yul\":15723:15821   */\n      swap2\n      swap1\n      pop\n      jump\t// out\n        /* \"#utility.yul\":15827:15974   */\n    tag_291:\n        /* \"#utility.yul\":15928:15939   */\n      0x00\n        /* \"#utility.yul\":15965:15968   */\n      dup2\n        /* \"#utility.yul\":15950:15968   */\n      swap1\n      pop\n        /* \"#utility.yul\":15827:15974   */\n      swap3\n      swap2\n      pop\n      pop\n      jump\t// out\n        /* \"#utility.yul\":15980:16287   */\n    tag_292:\n        /* \"#utility.yul\":16048:16049   */\n      0x00\n        /* \"#utility.yul\":16058:16171   */\n    tag_439:\n        /* \"#utility.yul\":16072:16078   */\n      dup4\n        /* \"#utility.yul\":16069:16070   */\n      dup2\n        /* \"#utility.yul\":16066:16079   */\n      lt\n        /* \"#utility.yul\":16058:16171   */\n      iszero\n      tag_441\n      jumpi\n        /* \"#utility.yul\":16157:16158   */\n      dup1\n        /* \"#utility.yul\":16152:16155   */\n      dup3\n        /* \"#utility.yul\":16148:16159   */\n      add\n        /* \"#utility.yul\":16142:16160   */\n      mload\n        /* \"#utility.yul\":16138:16139   */\n      dup2\n        /* \"#utility.yul\":16133:16136   */\n      dup5\n        /* \"#utility.yul\":16129:16140   */\n      add\n        /* \"#utility.yul\":16122:16161   */\n      mstore\n        /* \"#utility.yul\":16094:16096   */\n      0x20\n        /* \"#utility.yul\":16091:16092   */\n      dup2\n        /* \"#utility.yul\":16087:16097   */\n      add\n        /* \"#utility.yul\":16082:16097   */\n      swap1\n      pop\n        /* \"#utility.yul\":16058:16171   */\n      jump(tag_439)\n    tag_441:\n        /* \"#utility.yul\":16189:16195   */\n      dup4\n        /* \"#utility.yul\":16186:16187   */\n      dup2\n        /* \"#utility.yul\":16183:16196   */\n      gt\n        /* \"#utility.yul\":16180:16281   */\n      iszero\n      tag_442\n      jumpi\n        /* \"#utility.yul\":16269:16270   */\n      0x00\n        /* \"#utility.yul\":16260:16266   */\n      dup5\n        /* \"#utility.yul\":16255:16258   */\n      dup5\n        /* \"#utility.yul\":16251:16267   */\n      add\n        /* \"#utility.yul\":16244:16271   */\n      mstore\n        /* \"#utility.yul\":16180:16281   */\n    tag_442:\n        /* \"#utility.yul\":16029:16287   */\n      pop\n        /* \"#utility.yul\":15980:16287   */\n      pop\n      pop\n      pop\n      jump\t// out\n        /* \"#utility.yul\":16293:16666   */\n    tag_293:\n        /* \"#utility.yul\":16397:16400   */\n      0x00\n        /* \"#utility.yul\":16425:16463   */\n      tag_444\n        /* \"#utility.yul\":16457:16462   */\n      dup3\n        /* \"#utility.yul\":16425:16463   */\n      tag_290\n      jump\t// in\n    tag_444:\n        /* \"#utility.yul\":16479:16567   */\n      tag_445\n        /* \"#utility.yul\":16560:16566   */\n      dup2\n        /* \"#utility.yul\":16555:16558   */\n      dup6\n        /* \"#utility.yul\":16479:16567   */\n      tag_291\n      jump\t// in\n    tag_445:\n        /* \"#utility.yul\":16472:16567   */\n      swap4\n      pop\n        /* \"#utility.yul\":16576:16628   */\n      tag_446\n        /* \"#utility.yul\":16621:16627   */\n      dup2\n        /* \"#utility.yul\":16616:16619   */\n      dup6\n        /* \"#utility.yul\":16609:16613   */\n      0x20\n        /* \"#utility.yul\":16602:16607   */\n      dup7\n        /* \"#utility.yul\":16598:16614   */\n      add\n        /* \"#utility.yul\":16576:16628   */\n      tag_292\n      jump\t// in\n    tag_446:\n        /* \"#utility.yul\":16653:16659   */\n      dup1\n        /* \"#utility.yul\":16648:16651   */\n      dup5\n        /* \"#utility.yul\":16644:16660   */\n      add\n        /* \"#utility.yul\":16637:16660   */\n      swap2\n      pop\n        /* \"#utility.yul\":16401:16666   */\n      pop\n        /* \"#utility.yul\":16293:16666   */\n      swap3\n      swap2\n      pop\n      pop\n      jump\t// out\n        /* \"#utility.yul\":16672:16943   */\n    tag_240:\n        /* \"#utility.yul\":16802:16805   */\n      0x00\n        /* \"#utility.yul\":16824:16917   */\n      tag_448\n        /* \"#utility.yul\":16913:16916   */\n      dup3\n        /* \"#utility.yul\":16904:16910   */\n      dup5\n        /* \"#utility.yul\":16824:16917   */\n      tag_293\n      jump\t// in\n    tag_448:\n        /* \"#utility.yul\":16817:16917   */\n      swap2\n      pop\n        /* \"#utility.yul\":16934:16937   */\n      dup2\n        /* \"#utility.yul\":16927:16937   */\n      swap1\n      pop\n        /* \"#utility.yul\":16672:16943   */\n      swap3\n      swap2\n      pop\n      pop\n      jump\t// out\n        /* \"#utility.yul\":16949:17048   */\n    tag_294:\n        /* \"#utility.yul\":17001:17007   */\n      0x00\n        /* \"#utility.yul\":17035:17040   */\n      dup2\n        /* \"#utility.yul\":17029:17041   */\n      mload\n        /* \"#utility.yul\":17019:17041   */\n      swap1\n      pop\n        /* \"#utility.yul\":16949:17048   */\n      swap2\n      swap1\n      pop\n      jump\t// out\n        /* \"#utility.yul\":17054:17156   */\n    tag_295:\n        /* \"#utility.yul\":17095:17101   */\n      0x00\n        /* \"#utility.yul\":17146:17148   */\n      0x1f\n        /* \"#utility.yul\":17142:17149   */\n      not\n        /* \"#utility.yul\":17137:17139   */\n      0x1f\n        /* \"#utility.yul\":17130:17135   */\n      dup4\n        /* \"#utility.yul\":17126:17140   */\n      add\n        /* \"#utility.yul\":17122:17150   */\n      and\n        /* \"#utility.yul\":17112:17150   */\n      swap1\n      pop\n        /* \"#utility.yul\":17054:17156   */\n      swap2\n      swap1\n      pop\n      jump\t// out\n        /* \"#utility.yul\":17162:17526   */\n    tag_296:\n        /* \"#utility.yul\":17250:17253   */\n      0x00\n        /* \"#utility.yul\":17278:17317   */\n      tag_452\n        /* \"#utility.yul\":17311:17316   */\n      dup3\n        /* \"#utility.yul\":17278:17317   */\n      tag_294\n      jump\t// in\n    tag_452:\n        /* \"#utility.yul\":17333:17404   */\n      tag_453\n        /* \"#utility.yul\":17397:17403   */\n      dup2\n        /* \"#utility.yul\":17392:17395   */\n      dup6\n        /* \"#utility.yul\":17333:17404   */\n      tag_275\n      jump\t// in\n    tag_453:\n        /* \"#utility.yul\":17326:17404   */\n      swap4\n      pop\n        /* \"#utility.yul\":17413:17465   */\n      tag_454\n        /* \"#utility.yul\":17458:17464   */\n      dup2\n        /* \"#utility.yul\":17453:17456   */\n      dup6\n        /* \"#utility.yul\":17446:17450   */\n      0x20\n        /* \"#utility.yul\":17439:17444   */\n      dup7\n        /* \"#utility.yul\":17435:17451   */\n      add\n        /* \"#utility.yul\":17413:17465   */\n      tag_292\n      jump\t// in\n    tag_454:\n        /* \"#utility.yul\":17490:17519   */\n      tag_455\n        /* \"#utility.yul\":17512:17518   */\n      dup2\n        /* \"#utility.yul\":17490:17519   */\n      tag_295\n      jump\t// in\n    tag_455:\n        /* \"#utility.yul\":17485:17488   */\n      dup5\n        /* \"#utility.yul\":17481:17520   */\n      add\n        /* \"#utility.yul\":17474:17520   */\n      swap2\n      pop\n        /* \"#utility.yul\":17254:17526   */\n      pop\n        /* \"#utility.yul\":17162:17526   */\n      swap3\n      swap2\n      pop\n      pop\n      jump\t// out\n        /* \"#utility.yul\":17532:17845   */\n    tag_253:\n        /* \"#utility.yul\":17645:17649   */\n      0x00\n        /* \"#utility.yul\":17683:17685   */\n      0x20\n        /* \"#utility.yul\":17672:17681   */\n      dup3\n        /* \"#utility.yul\":17668:17686   */\n      add\n        /* \"#utility.yul\":17660:17686   */\n      swap1\n      pop\n        /* \"#utility.yul\":17732:17741   */\n      dup2\n        /* \"#utility.yul\":17726:17730   */\n      dup2\n        /* \"#utility.yul\":17722:17742   */\n      sub\n        /* \"#utility.yul\":17718:17719   */\n      0x00\n        /* \"#utility.yul\":17707:17716   */\n      dup4\n        /* \"#utility.yul\":17703:17720   */\n      add\n        /* \"#utility.yul\":17696:17743   */\n      mstore\n        /* \"#utility.yul\":17760:17838   */\n      tag_457\n        /* \"#utility.yul\":17833:17837   */\n      dup2\n        /* \"#utility.yul\":17824:17830   */\n      dup5\n        /* \"#utility.yul\":17760:17838   */\n      tag_296\n      jump\t// in\n    tag_457:\n        /* \"#utility.yul\":17752:17838   */\n      swap1\n      pop\n        /* \"#utility.yul\":17532:17845   */\n      swap3\n      swap2\n      pop\n      pop\n      jump\t// out\n\n    auxdata: 0xa264697066735822122051857bb0ce65a0dd215a77aee6572c8f1f14c953ecd7b4396968118e2de6efab64736f6c634300080b0033\n}\n",
				"bytecode": {
					"linkReferences": {},
					"object": "60806040523480156200001157600080fd5b506040516200215f3803806200215f833981810160405281019062000037919062000244565b60016000819055506200005f620000536200010c60201b60201c565b6200011460201b60201c565b600f600381905550605060048190555080600660016101000a81548173ffffffffffffffffffffffffffffffffffffffff021916908373ffffffffffffffffffffffffffffffffffffffff1602179055506006600260006276a70081526020019081526020016000208190555060076002600062ed4e008152602001908152602001600020819055506008600260006301e133808152602001908152602001600020819055505062000276565b600033905090565b6000600160009054906101000a900473ffffffffffffffffffffffffffffffffffffffff16905081600160006101000a81548173ffffffffffffffffffffffffffffffffffffffff021916908373ffffffffffffffffffffffffffffffffffffffff1602179055508173ffffffffffffffffffffffffffffffffffffffff168173ffffffffffffffffffffffffffffffffffffffff167f8be0079c531659141344cd1fd0a4f28419497f9722a3daafe3b4186f6b6457e060405160405180910390a35050565b600080fd5b600073ffffffffffffffffffffffffffffffffffffffff82169050919050565b60006200020c82620001df565b9050919050565b6200021e81620001ff565b81146200022a57600080fd5b50565b6000815190506200023e8162000213565b92915050565b6000602082840312156200025d576200025c620001da565b5b60006200026d848285016200022d565b91505092915050565b611ed980620002866000396000f3fe608060405234801561001057600080fd5b506004361061010b5760003560e01c80638da5cb5b116100a2578063bed9d86111610071578063bed9d8611461025e578063cb79c2e114610268578063d2a569c314610286578063d5dbdf1b14610290578063f2fde38b146102ac5761010b565b80638da5cb5b146101d4578063adb61832146101f2578063b5d9df8314610210578063b87da76d146102405761010b565b80637b0472f0116100de5780637b0472f0146101605780638891cf0d1461017c5780638c63f97f1461019a5780638c8e8fee146101b65761010b565b806310486b6a146101105780632cf1a5fb1461012e5780635b88349d1461014c578063715018a614610156575b600080fd5b6101186102c8565b604051610125919061165e565b60405180910390f35b61013661049e565b6040516101439190611695565b60405180910390f35b6101546104b1565b005b61015e6105df565b005b61017a600480360381019061017591906116e1565b610667565b005b6101846108f8565b6040516101919190611730565b60405180910390f35b6101b460048036038101906101af919061174b565b6108fe565b005b6101be6109f6565b6040516101cb91906117b9565b60405180910390f35b6101dc610a1c565b6040516101e991906117b9565b60405180910390f35b6101fa610a46565b6040516102079190611730565b60405180910390f35b61022a6004803603810190610225919061174b565b610a4e565b6040516102379190611730565b60405180910390f35b610248610a71565b6040516102559190611730565b60405180910390f35b610266610a77565b005b610270610cc8565b60405161027d9190611730565b60405180910390f35b61028e610cce565b005b6102aa60048036038101906102a5919061174b565b610d6e565b005b6102c660048036038101906102c19190611800565b610e66565b005b6102d0611510565b6000600760003373ffffffffffffffffffffffffffffffffffffffff1673ffffffffffffffffffffffffffffffffffffffff1681526020019081526020016000206040518060e001604052908160008201548152602001600182015481526020016002820154815260200160038201548152602001600482015481526020016005820154815260200160068201548152505090506000816000015114156103a3576040517fb018f08700000000000000000000000000000000000000000000000000000000815260040160405180910390fd5b60006040518060600160405280600081526020016000815260200183815250905060006103cf83610f5e565b905042826040015160600151111561042f576103e8600354826103f2919061185c565b6103fc91906118e5565b6103e86003548560000151610411919061185c565b61041b91906118e5565b6104259190611916565b8260200181815250505b600061043e8460c00151610a4e565b11156104695760006104538460000151610fa8565b905080836040015160a001818152505050610479565b6000826040015160a00181815250505b8082604001516080018181525050826000015182600001818152505081935050505090565b600660009054906101000a900460ff1681565b6104b9610fdb565b6000600760003373ffffffffffffffffffffffffffffffffffffffff1673ffffffffffffffffffffffffffffffffffffffff168152602001908152602001600020905060008160000154141561053b576040517fb018f08700000000000000000000000000000000000000000000000000000000815260040160405180910390fd5b6000816000015411156105dc5760006105578260060154610a4e565b141561058f576040517fdd8456cc00000000000000000000000000000000000000000000000000000000815260040160405180910390fd5b600081600501819055504281600601819055506105db600660019054906101000a900473ffffffffffffffffffffffffffffffffffffffff16336105d68460000154610fa8565b611023565b5b50565b6105e76110a9565b73ffffffffffffffffffffffffffffffffffffffff16610605610a1c565b73ffffffffffffffffffffffffffffffffffffffff161461065b576040517f08c379a0000000000000000000000000000000000000000000000000000000008152600401610652906119c9565b60405180910390fd5b61066560006110b1565b565b600260005414156106ad576040517f08c379a00000000000000000000000000000000000000000000000000000000081526004016106a490611a35565b60405180910390fd5b60026000819055506000600760003373ffffffffffffffffffffffffffffffffffffffff1673ffffffffffffffffffffffffffffffffffffffff1681526020019081526020016000206000015414610731576040517f04462d2700000000000000000000000000000000000000000000000000000000815260040160405180910390fd5b60006002600083815260200190815260200160002054141561077f576040517f95377be400000000000000000000000000000000000000000000000000000000815260040160405180910390fd5b60004290506040518060e001604052808481526020018281526020016002600085815260200190815260200160002054815260200182846107c09190611916565b815260200160008152602001600081526020016000815250600760003373ffffffffffffffffffffffffffffffffffffffff1673ffffffffffffffffffffffffffffffffffffffff168152602001908152602001600020600082015181600001556020820151816001015560408201518160020155606082015181600301556080820151816004015560a0820151816005015560c0820151816006015590505061088e600660019054906101000a900473ffffffffffffffffffffffffffffffffffffffff16333086611177565b3373ffffffffffffffffffffffffffffffffffffffff167fb4caaf29adda3eefee3ad552a8e85058589bf834c7466cae4ee58787f70589ed848384866108d49190611916565b6040516108e393929190611a55565b60405180910390a25060016000819055505050565b60045481565b6109066110a9565b73ffffffffffffffffffffffffffffffffffffffff16610924610a1c565b73ffffffffffffffffffffffffffffffffffffffff161461097a576040517f08c379a0000000000000000000000000000000000000000000000000000000008152600401610971906119c9565b60405180910390fd5b601e8111156109b5576040517ff1a470d700000000000000000000000000000000000000000000000000000000815260040160405180910390fd5b806003819055507fcfa4f4cf1cd64d13a167a8e75605e0c0c9d6700e903d17c5dc11f593254a04a9816040516109eb9190611730565b60405180910390a150565b600660019054906101000a900473ffffffffffffffffffffffffffffffffffffffff1681565b6000600160009054906101000a900473ffffffffffffffffffffffffffffffffffffffff16905090565b600042905090565b600062093a808242610a609190611a8c565b610a6a91906118e5565b9050919050565b60055481565b60026000541415610abd576040517f08c379a0000000000000000000000000000000000000000000000000000000008152600401610ab490611a35565b60405180910390fd5b60026000819055506000600760003373ffffffffffffffffffffffffffffffffffffffff1673ffffffffffffffffffffffffffffffffffffffff1681526020019081526020016000206040518060e00160405290816000820154815260200160018201548152602001600282015481526020016003820154815260200160048201548152602001600582015481526020016006820154815250509050600081600001511415610b98576040517fb018f08700000000000000000000000000000000000000000000000000000000815260040160405180910390fd5b6000610ba382610f5e565b9050600760003373ffffffffffffffffffffffffffffffffffffffff1673ffffffffffffffffffffffffffffffffffffffff16815260200190815260200160002060008082016000905560018201600090556002820160009055600382016000905560048201600090556005820160009055600682016000905550504282606001511115610c7f57600080610c3c846000015184611200565b91509150610c78600660019054906101000a900473ffffffffffffffffffffffffffffffffffffffff16338385610c739190611916565b611023565b5050610cbc565b610cbb600660019054906101000a900473ffffffffffffffffffffffffffffffffffffffff1633838560000151610cb69190611916565b611023565b5b50506001600081905550565b60035481565b610cd66110a9565b73ffffffffffffffffffffffffffffffffffffffff16610cf4610a1c565b73ffffffffffffffffffffffffffffffffffffffff1614610d4a576040517f08c379a0000000000000000000000000000000000000000000000000000000008152600401610d41906119c9565b60405180910390fd5b426005819055506001600660006101000a81548160ff021916908315150217905550565b610d766110a9565b73ffffffffffffffffffffffffffffffffffffffff16610d94610a1c565b73ffffffffffffffffffffffffffffffffffffffff1614610dea576040517f08c379a0000000000000000000000000000000000000000000000000000000008152600401610de1906119c9565b60405180910390fd5b60c8811115610e25576040517fa552cf1000000000000000000000000000000000000000000000000000000000815260040160405180910390fd5b806004819055507fcc672f1026b958c0cfbfdd89ebe8ddcbc127f16ec24da6c2c7a4de26a8b1857e81604051610e5b9190611730565b60405180910390a150565b610e6e6110a9565b73ffffffffffffffffffffffffffffffffffffffff16610e8c610a1c565b73ffffffffffffffffffffffffffffffffffffffff1614610ee2576040517f08c379a0000000000000000000000000000000000000000000000000000000008152600401610ed9906119c9565b60405180910390fd5b600073ffffffffffffffffffffffffffffffffffffffff168173ffffffffffffffffffffffffffffffffffffffff161415610f52576040517f08c379a0000000000000000000000000000000000000000000000000000000008152600401610f4990611b32565b60405180910390fd5b610f5b816110b1565b50565b60006a52b7d2dcc80cd2e4000000610f79836020015161125a565b83604001518460000151610f8d919061185c565b610f97919061185c565b610fa191906118e5565b9050919050565b60006301dfe2006103e860045484610fc0919061185c565b610fca91906118e5565b610fd491906118e5565b9050919050565b600660009054906101000a900460ff16611021576040517fd4a7cb1900000000000000000000000000000000000000000000000000000000815260040160405180910390fd5b565b6110a48363a9059cbb60e01b8484604051602401611042929190611b52565b604051602081830303815290604052907bffffffffffffffffffffffffffffffffffffffffffffffffffffffff19166020820180517bffffffffffffffffffffffffffffffffffffffffffffffffffffffff8381831617835250505050611293565b505050565b600033905090565b6000600160009054906101000a900473ffffffffffffffffffffffffffffffffffffffff16905081600160006101000a81548173ffffffffffffffffffffffffffffffffffffffff021916908373ffffffffffffffffffffffffffffffffffffffff1602179055508173ffffffffffffffffffffffffffffffffffffffff168173ffffffffffffffffffffffffffffffffffffffff167f8be0079c531659141344cd1fd0a4f28419497f9722a3daafe3b4186f6b6457e060405160405180910390a35050565b6111fa846323b872dd60e01b85858560405160240161119893929190611b7b565b604051602081830303815290604052907bffffffffffffffffffffffffffffffffffffffffffffffffffffffff19166020820180517bffffffffffffffffffffffffffffffffffffffffffffffffffffffff8381831617835250505050611293565b50505050565b6000806103e860035485611214919061185c565b61121e91906118e5565b846112299190611a8c565b6103e86003548561123a919061185c565b61124491906118e5565b8461124f9190611a8c565b915091509250929050565b60006301e1338069d3c21bcecceda100000083426112789190611a8c565b611282919061185c565b61128c91906118e5565b9050919050565b60006112f5826040518060400160405280602081526020017f5361666545524332303a206c6f772d6c6576656c2063616c6c206661696c65648152508573ffffffffffffffffffffffffffffffffffffffff1661135a9092919063ffffffff16565b905060008151111561135557808060200190518101906113159190611bde565b611354576040517f08c379a000000000000000000000000000000000000000000000000000000000815260040161134b90611c7d565b60405180910390fd5b5b505050565b60606113698484600085611372565b90509392505050565b6060824710156113b7576040517f08c379a00000000000000000000000000000000000000000000000000000000081526004016113ae90611d0f565b60405180910390fd5b6113c085611486565b6113ff576040517f08c379a00000000000000000000000000000000000000000000000000000000081526004016113f690611d7b565b60405180910390fd5b6000808673ffffffffffffffffffffffffffffffffffffffff1685876040516114289190611e15565b60006040518083038185875af1925050503d8060008114611465576040519150601f19603f3d011682016040523d82523d6000602084013e61146a565b606091505b509150915061147a8282866114a9565b92505050949350505050565b6000808273ffffffffffffffffffffffffffffffffffffffff163b119050919050565b606083156114b957829050611509565b6000835111156114cc5782518084602001fd5b816040517f08c379a00000000000000000000000000000000000000000000000000000000081526004016115009190611e81565b60405180910390fd5b9392505050565b60405180606001604052806000815260200160008152602001611531611537565b81525090565b6040518060e00160405280600081526020016000815260200160008152602001600081526020016000815260200160008152602001600081525090565b6000819050919050565b61158781611574565b82525050565b60e0820160008201516115a3600085018261157e565b5060208201516115b6602085018261157e565b5060408201516115c9604085018261157e565b5060608201516115dc606085018261157e565b5060808201516115ef608085018261157e565b5060a082015161160260a085018261157e565b5060c082015161161560c085018261157e565b50505050565b61012082016000820151611632600085018261157e565b506020820151611645602085018261157e565b506040820151611658604085018261158d565b50505050565b600061012082019050611674600083018461161b565b92915050565b60008115159050919050565b61168f8161167a565b82525050565b60006020820190506116aa6000830184611686565b92915050565b600080fd5b6116be81611574565b81146116c957600080fd5b50565b6000813590506116db816116b5565b92915050565b600080604083850312156116f8576116f76116b0565b5b6000611706858286016116cc565b9250506020611717858286016116cc565b9150509250929050565b61172a81611574565b82525050565b60006020820190506117456000830184611721565b92915050565b600060208284031215611761576117606116b0565b5b600061176f848285016116cc565b91505092915050565b600073ffffffffffffffffffffffffffffffffffffffff82169050919050565b60006117a382611778565b9050919050565b6117b381611798565b82525050565b60006020820190506117ce60008301846117aa565b92915050565b6117dd81611798565b81146117e857600080fd5b50565b6000813590506117fa816117d4565b92915050565b600060208284031215611816576118156116b0565b5b6000611824848285016117eb565b91505092915050565b7f4e487b7100000000000000000000000000000000000000000000000000000000600052601160045260246000fd5b600061186782611574565b915061187283611574565b9250817fffffffffffffffffffffffffffffffffffffffffffffffffffffffffffffffff04831182151516156118ab576118aa61182d565b5b828202905092915050565b7f4e487b7100000000000000000000000000000000000000000000000000000000600052601260045260246000fd5b60006118f082611574565b91506118fb83611574565b92508261190b5761190a6118b6565b5b828204905092915050565b600061192182611574565b915061192c83611574565b9250827fffffffffffffffffffffffffffffffffffffffffffffffffffffffffffffffff038211156119615761196061182d565b5b828201905092915050565b600082825260208201905092915050565b7f4f776e61626c653a2063616c6c6572206973206e6f7420746865206f776e6572600082015250565b60006119b360208361196c565b91506119be8261197d565b602082019050919050565b600060208201905081810360008301526119e2816119a6565b9050919050565b7f5265656e7472616e637947756172643a207265656e7472616e742063616c6c00600082015250565b6000611a1f601f8361196c565b9150611a2a826119e9565b602082019050919050565b60006020820190508181036000830152611a4e81611a12565b9050919050565b6000606082019050611a6a6000830186611721565b611a776020830185611721565b611a846040830184611721565b949350505050565b6000611a9782611574565b9150611aa283611574565b925082821015611ab557611ab461182d565b5b828203905092915050565b7f4f776e61626c653a206e6577206f776e657220697320746865207a65726f206160008201527f6464726573730000000000000000000000000000000000000000000000000000602082015250565b6000611b1c60268361196c565b9150611b2782611ac0565b604082019050919050565b60006020820190508181036000830152611b4b81611b0f565b9050919050565b6000604082019050611b6760008301856117aa565b611b746020830184611721565b9392505050565b6000606082019050611b9060008301866117aa565b611b9d60208301856117aa565b611baa6040830184611721565b949350505050565b611bbb8161167a565b8114611bc657600080fd5b50565b600081519050611bd881611bb2565b92915050565b600060208284031215611bf457611bf36116b0565b5b6000611c0284828501611bc9565b91505092915050565b7f5361666545524332303a204552433230206f7065726174696f6e20646964206e60008201527f6f74207375636365656400000000000000000000000000000000000000000000602082015250565b6000611c67602a8361196c565b9150611c7282611c0b565b604082019050919050565b60006020820190508181036000830152611c9681611c5a565b9050919050565b7f416464726573733a20696e73756666696369656e742062616c616e636520666f60008201527f722063616c6c0000000000000000000000000000000000000000000000000000602082015250565b6000611cf960268361196c565b9150611d0482611c9d565b604082019050919050565b60006020820190508181036000830152611d2881611cec565b9050919050565b7f416464726573733a2063616c6c20746f206e6f6e2d636f6e7472616374000000600082015250565b6000611d65601d8361196c565b9150611d7082611d2f565b602082019050919050565b60006020820190508181036000830152611d9481611d58565b9050919050565b600081519050919050565b600081905092915050565b60005b83811015611dcf578082015181840152602081019050611db4565b83811115611dde576000848401525b50505050565b6000611def82611d9b565b611df98185611da6565b9350611e09818560208601611db1565b80840191505092915050565b6000611e218284611de4565b915081905092915050565b600081519050919050565b6000601f19601f8301169050919050565b6000611e5382611e2c565b611e5d818561196c565b9350611e6d818560208601611db1565b611e7681611e37565b840191505092915050565b60006020820190508181036000830152611e9b8184611e48565b90509291505056fea264697066735822122051857bb0ce65a0dd215a77aee6572c8f1f14c953ecd7b4396968118e2de6efab64736f6c634300080b0033",
					"opcodes": "PUSH1 0x80 PUSH1 0x40 MSTORE CALLVALUE DUP1 ISZERO PUSH3 0x11 JUMPI PUSH1 0x0 DUP1 REVERT JUMPDEST POP PUSH1 0x40 MLOAD PUSH3 0x215F CODESIZE SUB DUP1 PUSH3 0x215F DUP4 CODECOPY DUP2 DUP2 ADD PUSH1 0x40 MSTORE DUP2 ADD SWAP1 PUSH3 0x37 SWAP2 SWAP1 PUSH3 0x244 JUMP JUMPDEST PUSH1 0x1 PUSH1 0x0 DUP2 SWAP1 SSTORE POP PUSH3 0x5F PUSH3 0x53 PUSH3 0x10C PUSH1 0x20 SHL PUSH1 0x20 SHR JUMP JUMPDEST PUSH3 0x114 PUSH1 0x20 SHL PUSH1 0x20 SHR JUMP JUMPDEST PUSH1 0xF PUSH1 0x3 DUP2 SWAP1 SSTORE POP PUSH1 0x50 PUSH1 0x4 DUP2 SWAP1 SSTORE POP DUP1 PUSH1 0x6 PUSH1 0x1 PUSH2 0x100 EXP DUP2 SLOAD DUP2 PUSH20 0xFFFFFFFFFFFFFFFFFFFFFFFFFFFFFFFFFFFFFFFF MUL NOT AND SWAP1 DUP4 PUSH20 0xFFFFFFFFFFFFFFFFFFFFFFFFFFFFFFFFFFFFFFFF AND MUL OR SWAP1 SSTORE POP PUSH1 0x6 PUSH1 0x2 PUSH1 0x0 PUSH3 0x76A700 DUP2 MSTORE PUSH1 0x20 ADD SWAP1 DUP2 MSTORE PUSH1 0x20 ADD PUSH1 0x0 KECCAK256 DUP2 SWAP1 SSTORE POP PUSH1 0x7 PUSH1 0x2 PUSH1 0x0 PUSH3 0xED4E00 DUP2 MSTORE PUSH1 0x20 ADD SWAP1 DUP2 MSTORE PUSH1 0x20 ADD PUSH1 0x0 KECCAK256 DUP2 SWAP1 SSTORE POP PUSH1 0x8 PUSH1 0x2 PUSH1 0x0 PUSH4 0x1E13380 DUP2 MSTORE PUSH1 0x20 ADD SWAP1 DUP2 MSTORE PUSH1 0x20 ADD PUSH1 0x0 KECCAK256 DUP2 SWAP1 SSTORE POP POP PUSH3 0x276 JUMP JUMPDEST PUSH1 0x0 CALLER SWAP1 POP SWAP1 JUMP JUMPDEST PUSH1 0x0 PUSH1 0x1 PUSH1 0x0 SWAP1 SLOAD SWAP1 PUSH2 0x100 EXP SWAP1 DIV PUSH20 0xFFFFFFFFFFFFFFFFFFFFFFFFFFFFFFFFFFFFFFFF AND SWAP1 POP DUP2 PUSH1 0x1 PUSH1 0x0 PUSH2 0x100 EXP DUP2 SLOAD DUP2 PUSH20 0xFFFFFFFFFFFFFFFFFFFFFFFFFFFFFFFFFFFFFFFF MUL NOT AND SWAP1 DUP4 PUSH20 0xFFFFFFFFFFFFFFFFFFFFFFFFFFFFFFFFFFFFFFFF AND MUL OR SWAP1 SSTORE POP DUP2 PUSH20 0xFFFFFFFFFFFFFFFFFFFFFFFFFFFFFFFFFFFFFFFF AND DUP2 PUSH20 0xFFFFFFFFFFFFFFFFFFFFFFFFFFFFFFFFFFFFFFFF AND PUSH32 0x8BE0079C531659141344CD1FD0A4F28419497F9722A3DAAFE3B4186F6B6457E0 PUSH1 0x40 MLOAD PUSH1 0x40 MLOAD DUP1 SWAP2 SUB SWAP1 LOG3 POP POP JUMP JUMPDEST PUSH1 0x0 DUP1 REVERT JUMPDEST PUSH1 0x0 PUSH20 0xFFFFFFFFFFFFFFFFFFFFFFFFFFFFFFFFFFFFFFFF DUP3 AND SWAP1 POP SWAP2 SWAP1 POP JUMP JUMPDEST PUSH1 0x0 PUSH3 0x20C DUP3 PUSH3 0x1DF JUMP JUMPDEST SWAP1 POP SWAP2 SWAP1 POP JUMP JUMPDEST PUSH3 0x21E DUP2 PUSH3 0x1FF JUMP JUMPDEST DUP2 EQ PUSH3 0x22A JUMPI PUSH1 0x0 DUP1 REVERT JUMPDEST POP JUMP JUMPDEST PUSH1 0x0 DUP2 MLOAD SWAP1 POP PUSH3 0x23E DUP2 PUSH3 0x213 JUMP JUMPDEST SWAP3 SWAP2 POP POP JUMP JUMPDEST PUSH1 0x0 PUSH1 0x20 DUP3 DUP5 SUB SLT ISZERO PUSH3 0x25D JUMPI PUSH3 0x25C PUSH3 0x1DA JUMP JUMPDEST JUMPDEST PUSH1 0x0 PUSH3 0x26D DUP5 DUP3 DUP6 ADD PUSH3 0x22D JUMP JUMPDEST SWAP2 POP POP SWAP3 SWAP2 POP POP JUMP JUMPDEST PUSH2 0x1ED9 DUP1 PUSH3 0x286 PUSH1 0x0 CODECOPY PUSH1 0x0 RETURN INVALID PUSH1 0x80 PUSH1 0x40 MSTORE CALLVALUE DUP1 ISZERO PUSH2 0x10 JUMPI PUSH1 0x0 DUP1 REVERT JUMPDEST POP PUSH1 0x4 CALLDATASIZE LT PUSH2 0x10B JUMPI PUSH1 0x0 CALLDATALOAD PUSH1 0xE0 SHR DUP1 PUSH4 0x8DA5CB5B GT PUSH2 0xA2 JUMPI DUP1 PUSH4 0xBED9D861 GT PUSH2 0x71 JUMPI DUP1 PUSH4 0xBED9D861 EQ PUSH2 0x25E JUMPI DUP1 PUSH4 0xCB79C2E1 EQ PUSH2 0x268 JUMPI DUP1 PUSH4 0xD2A569C3 EQ PUSH2 0x286 JUMPI DUP1 PUSH4 0xD5DBDF1B EQ PUSH2 0x290 JUMPI DUP1 PUSH4 0xF2FDE38B EQ PUSH2 0x2AC JUMPI PUSH2 0x10B JUMP JUMPDEST DUP1 PUSH4 0x8DA5CB5B EQ PUSH2 0x1D4 JUMPI DUP1 PUSH4 0xADB61832 EQ PUSH2 0x1F2 JUMPI DUP1 PUSH4 0xB5D9DF83 EQ PUSH2 0x210 JUMPI DUP1 PUSH4 0xB87DA76D EQ PUSH2 0x240 JUMPI PUSH2 0x10B JUMP JUMPDEST DUP1 PUSH4 0x7B0472F0 GT PUSH2 0xDE JUMPI DUP1 PUSH4 0x7B0472F0 EQ PUSH2 0x160 JUMPI DUP1 PUSH4 0x8891CF0D EQ PUSH2 0x17C JUMPI DUP1 PUSH4 0x8C63F97F EQ PUSH2 0x19A JUMPI DUP1 PUSH4 0x8C8E8FEE EQ PUSH2 0x1B6 JUMPI PUSH2 0x10B JUMP JUMPDEST DUP1 PUSH4 0x10486B6A EQ PUSH2 0x110 JUMPI DUP1 PUSH4 0x2CF1A5FB EQ PUSH2 0x12E JUMPI DUP1 PUSH4 0x5B88349D EQ PUSH2 0x14C JUMPI DUP1 PUSH4 0x715018A6 EQ PUSH2 0x156 JUMPI JUMPDEST PUSH1 0x0 DUP1 REVERT JUMPDEST PUSH2 0x118 PUSH2 0x2C8 JUMP JUMPDEST PUSH1 0x40 MLOAD PUSH2 0x125 SWAP2 SWAP1 PUSH2 0x165E JUMP JUMPDEST PUSH1 0x40 MLOAD DUP1 SWAP2 SUB SWAP1 RETURN JUMPDEST PUSH2 0x136 PUSH2 0x49E JUMP JUMPDEST PUSH1 0x40 MLOAD PUSH2 0x143 SWAP2 SWAP1 PUSH2 0x1695 JUMP JUMPDEST PUSH1 0x40 MLOAD DUP1 SWAP2 SUB SWAP1 RETURN JUMPDEST PUSH2 0x154 PUSH2 0x4B1 JUMP JUMPDEST STOP JUMPDEST PUSH2 0x15E PUSH2 0x5DF JUMP JUMPDEST STOP JUMPDEST PUSH2 0x17A PUSH1 0x4 DUP1 CALLDATASIZE SUB DUP2 ADD SWAP1 PUSH2 0x175 SWAP2 SWAP1 PUSH2 0x16E1 JUMP JUMPDEST PUSH2 0x667 JUMP JUMPDEST STOP JUMPDEST PUSH2 0x184 PUSH2 0x8F8 JUMP JUMPDEST PUSH1 0x40 MLOAD PUSH2 0x191 SWAP2 SWAP1 PUSH2 0x1730 JUMP JUMPDEST PUSH1 0x40 MLOAD DUP1 SWAP2 SUB SWAP1 RETURN JUMPDEST PUSH2 0x1B4 PUSH1 0x4 DUP1 CALLDATASIZE SUB DUP2 ADD SWAP1 PUSH2 0x1AF SWAP2 SWAP1 PUSH2 0x174B JUMP JUMPDEST PUSH2 0x8FE JUMP JUMPDEST STOP JUMPDEST PUSH2 0x1BE PUSH2 0x9F6 JUMP JUMPDEST PUSH1 0x40 MLOAD PUSH2 0x1CB SWAP2 SWAP1 PUSH2 0x17B9 JUMP JUMPDEST PUSH1 0x40 MLOAD DUP1 SWAP2 SUB SWAP1 RETURN JUMPDEST PUSH2 0x1DC PUSH2 0xA1C JUMP JUMPDEST PUSH1 0x40 MLOAD PUSH2 0x1E9 SWAP2 SWAP1 PUSH2 0x17B9 JUMP JUMPDEST PUSH1 0x40 MLOAD DUP1 SWAP2 SUB SWAP1 RETURN JUMPDEST PUSH2 0x1FA PUSH2 0xA46 JUMP JUMPDEST PUSH1 0x40 MLOAD PUSH2 0x207 SWAP2 SWAP1 PUSH2 0x1730 JUMP JUMPDEST PUSH1 0x40 MLOAD DUP1 SWAP2 SUB SWAP1 RETURN JUMPDEST PUSH2 0x22A PUSH1 0x4 DUP1 CALLDATASIZE SUB DUP2 ADD SWAP1 PUSH2 0x225 SWAP2 SWAP1 PUSH2 0x174B JUMP JUMPDEST PUSH2 0xA4E JUMP JUMPDEST PUSH1 0x40 MLOAD PUSH2 0x237 SWAP2 SWAP1 PUSH2 0x1730 JUMP JUMPDEST PUSH1 0x40 MLOAD DUP1 SWAP2 SUB SWAP1 RETURN JUMPDEST PUSH2 0x248 PUSH2 0xA71 JUMP JUMPDEST PUSH1 0x40 MLOAD PUSH2 0x255 SWAP2 SWAP1 PUSH2 0x1730 JUMP JUMPDEST PUSH1 0x40 MLOAD DUP1 SWAP2 SUB SWAP1 RETURN JUMPDEST PUSH2 0x266 PUSH2 0xA77 JUMP JUMPDEST STOP JUMPDEST PUSH2 0x270 PUSH2 0xCC8 JUMP JUMPDEST PUSH1 0x40 MLOAD PUSH2 0x27D SWAP2 SWAP1 PUSH2 0x1730 JUMP JUMPDEST PUSH1 0x40 MLOAD DUP1 SWAP2 SUB SWAP1 RETURN JUMPDEST PUSH2 0x28E PUSH2 0xCCE JUMP JUMPDEST STOP JUMPDEST PUSH2 0x2AA PUSH1 0x4 DUP1 CALLDATASIZE SUB DUP2 ADD SWAP1 PUSH2 0x2A5 SWAP2 SWAP1 PUSH2 0x174B JUMP JUMPDEST PUSH2 0xD6E JUMP JUMPDEST STOP JUMPDEST PUSH2 0x2C6 PUSH1 0x4 DUP1 CALLDATASIZE SUB DUP2 ADD SWAP1 PUSH2 0x2C1 SWAP2 SWAP1 PUSH2 0x1800 JUMP JUMPDEST PUSH2 0xE66 JUMP JUMPDEST STOP JUMPDEST PUSH2 0x2D0 PUSH2 0x1510 JUMP JUMPDEST PUSH1 0x0 PUSH1 0x7 PUSH1 0x0 CALLER PUSH20 0xFFFFFFFFFFFFFFFFFFFFFFFFFFFFFFFFFFFFFFFF AND PUSH20 0xFFFFFFFFFFFFFFFFFFFFFFFFFFFFFFFFFFFFFFFF AND DUP2 MSTORE PUSH1 0x20 ADD SWAP1 DUP2 MSTORE PUSH1 0x20 ADD PUSH1 0x0 KECCAK256 PUSH1 0x40 MLOAD DUP1 PUSH1 0xE0 ADD PUSH1 0x40 MSTORE SWAP1 DUP2 PUSH1 0x0 DUP3 ADD SLOAD DUP2 MSTORE PUSH1 0x20 ADD PUSH1 0x1 DUP3 ADD SLOAD DUP2 MSTORE PUSH1 0x20 ADD PUSH1 0x2 DUP3 ADD SLOAD DUP2 MSTORE PUSH1 0x20 ADD PUSH1 0x3 DUP3 ADD SLOAD DUP2 MSTORE PUSH1 0x20 ADD PUSH1 0x4 DUP3 ADD SLOAD DUP2 MSTORE PUSH1 0x20 ADD PUSH1 0x5 DUP3 ADD SLOAD DUP2 MSTORE PUSH1 0x20 ADD PUSH1 0x6 DUP3 ADD SLOAD DUP2 MSTORE POP POP SWAP1 POP PUSH1 0x0 DUP2 PUSH1 0x0 ADD MLOAD EQ ISZERO PUSH2 0x3A3 JUMPI PUSH1 0x40 MLOAD PUSH32 0xB018F08700000000000000000000000000000000000000000000000000000000 DUP2 MSTORE PUSH1 0x4 ADD PUSH1 0x40 MLOAD DUP1 SWAP2 SUB SWAP1 REVERT JUMPDEST PUSH1 0x0 PUSH1 0x40 MLOAD DUP1 PUSH1 0x60 ADD PUSH1 0x40 MSTORE DUP1 PUSH1 0x0 DUP2 MSTORE PUSH1 0x20 ADD PUSH1 0x0 DUP2 MSTORE PUSH1 0x20 ADD DUP4 DUP2 MSTORE POP SWAP1 POP PUSH1 0x0 PUSH2 0x3CF DUP4 PUSH2 0xF5E JUMP JUMPDEST SWAP1 POP TIMESTAMP DUP3 PUSH1 0x40 ADD MLOAD PUSH1 0x60 ADD MLOAD GT ISZERO PUSH2 0x42F JUMPI PUSH2 0x3E8 PUSH1 0x3 SLOAD DUP3 PUSH2 0x3F2 SWAP2 SWAP1 PUSH2 0x185C JUMP JUMPDEST PUSH2 0x3FC SWAP2 SWAP1 PUSH2 0x18E5 JUMP JUMPDEST PUSH2 0x3E8 PUSH1 0x3 SLOAD DUP6 PUSH1 0x0 ADD MLOAD PUSH2 0x411 SWAP2 SWAP1 PUSH2 0x185C JUMP JUMPDEST PUSH2 0x41B SWAP2 SWAP1 PUSH2 0x18E5 JUMP JUMPDEST PUSH2 0x425 SWAP2 SWAP1 PUSH2 0x1916 JUMP JUMPDEST DUP3 PUSH1 0x20 ADD DUP2 DUP2 MSTORE POP POP JUMPDEST PUSH1 0x0 PUSH2 0x43E DUP5 PUSH1 0xC0 ADD MLOAD PUSH2 0xA4E JUMP JUMPDEST GT ISZERO PUSH2 0x469 JUMPI PUSH1 0x0 PUSH2 0x453 DUP5 PUSH1 0x0 ADD MLOAD PUSH2 0xFA8 JUMP JUMPDEST SWAP1 POP DUP1 DUP4 PUSH1 0x40 ADD MLOAD PUSH1 0xA0 ADD DUP2 DUP2 MSTORE POP POP POP PUSH2 0x479 JUMP JUMPDEST PUSH1 0x0 DUP3 PUSH1 0x40 ADD MLOAD PUSH1 0xA0 ADD DUP2 DUP2 MSTORE POP POP JUMPDEST DUP1 DUP3 PUSH1 0x40 ADD MLOAD PUSH1 0x80 ADD DUP2 DUP2 MSTORE POP POP DUP3 PUSH1 0x0 ADD MLOAD DUP3 PUSH1 0x0 ADD DUP2 DUP2 MSTORE POP POP DUP2 SWAP4 POP POP POP POP SWAP1 JUMP JUMPDEST PUSH1 0x6 PUSH1 0x0 SWAP1 SLOAD SWAP1 PUSH2 0x100 EXP SWAP1 DIV PUSH1 0xFF AND DUP2 JUMP JUMPDEST PUSH2 0x4B9 PUSH2 0xFDB JUMP JUMPDEST PUSH1 0x0 PUSH1 0x7 PUSH1 0x0 CALLER PUSH20 0xFFFFFFFFFFFFFFFFFFFFFFFFFFFFFFFFFFFFFFFF AND PUSH20 0xFFFFFFFFFFFFFFFFFFFFFFFFFFFFFFFFFFFFFFFF AND DUP2 MSTORE PUSH1 0x20 ADD SWAP1 DUP2 MSTORE PUSH1 0x20 ADD PUSH1 0x0 KECCAK256 SWAP1 POP PUSH1 0x0 DUP2 PUSH1 0x0 ADD SLOAD EQ ISZERO PUSH2 0x53B JUMPI PUSH1 0x40 MLOAD PUSH32 0xB018F08700000000000000000000000000000000000000000000000000000000 DUP2 MSTORE PUSH1 0x4 ADD PUSH1 0x40 MLOAD DUP1 SWAP2 SUB SWAP1 REVERT JUMPDEST PUSH1 0x0 DUP2 PUSH1 0x0 ADD SLOAD GT ISZERO PUSH2 0x5DC JUMPI PUSH1 0x0 PUSH2 0x557 DUP3 PUSH1 0x6 ADD SLOAD PUSH2 0xA4E JUMP JUMPDEST EQ ISZERO PUSH2 0x58F JUMPI PUSH1 0x40 MLOAD PUSH32 0xDD8456CC00000000000000000000000000000000000000000000000000000000 DUP2 MSTORE PUSH1 0x4 ADD PUSH1 0x40 MLOAD DUP1 SWAP2 SUB SWAP1 REVERT JUMPDEST PUSH1 0x0 DUP2 PUSH1 0x5 ADD DUP2 SWAP1 SSTORE POP TIMESTAMP DUP2 PUSH1 0x6 ADD DUP2 SWAP1 SSTORE POP PUSH2 0x5DB PUSH1 0x6 PUSH1 0x1 SWAP1 SLOAD SWAP1 PUSH2 0x100 EXP SWAP1 DIV PUSH20 0xFFFFFFFFFFFFFFFFFFFFFFFFFFFFFFFFFFFFFFFF AND CALLER PUSH2 0x5D6 DUP5 PUSH1 0x0 ADD SLOAD PUSH2 0xFA8 JUMP JUMPDEST PUSH2 0x1023 JUMP JUMPDEST JUMPDEST POP JUMP JUMPDEST PUSH2 0x5E7 PUSH2 0x10A9 JUMP JUMPDEST PUSH20 0xFFFFFFFFFFFFFFFFFFFFFFFFFFFFFFFFFFFFFFFF AND PUSH2 0x605 PUSH2 0xA1C JUMP JUMPDEST PUSH20 0xFFFFFFFFFFFFFFFFFFFFFFFFFFFFFFFFFFFFFFFF AND EQ PUSH2 0x65B JUMPI PUSH1 0x40 MLOAD PUSH32 0x8C379A000000000000000000000000000000000000000000000000000000000 DUP2 MSTORE PUSH1 0x4 ADD PUSH2 0x652 SWAP1 PUSH2 0x19C9 JUMP JUMPDEST PUSH1 0x40 MLOAD DUP1 SWAP2 SUB SWAP1 REVERT JUMPDEST PUSH2 0x665 PUSH1 0x0 PUSH2 0x10B1 JUMP JUMPDEST JUMP JUMPDEST PUSH1 0x2 PUSH1 0x0 SLOAD EQ ISZERO PUSH2 0x6AD JUMPI PUSH1 0x40 MLOAD PUSH32 0x8C379A000000000000000000000000000000000000000000000000000000000 DUP2 MSTORE PUSH1 0x4 ADD PUSH2 0x6A4 SWAP1 PUSH2 0x1A35 JUMP JUMPDEST PUSH1 0x40 MLOAD DUP1 SWAP2 SUB SWAP1 REVERT JUMPDEST PUSH1 0x2 PUSH1 0x0 DUP2 SWAP1 SSTORE POP PUSH1 0x0 PUSH1 0x7 PUSH1 0x0 CALLER PUSH20 0xFFFFFFFFFFFFFFFFFFFFFFFFFFFFFFFFFFFFFFFF AND PUSH20 0xFFFFFFFFFFFFFFFFFFFFFFFFFFFFFFFFFFFFFFFF AND DUP2 MSTORE PUSH1 0x20 ADD SWAP1 DUP2 MSTORE PUSH1 0x20 ADD PUSH1 0x0 KECCAK256 PUSH1 0x0 ADD SLOAD EQ PUSH2 0x731 JUMPI PUSH1 0x40 MLOAD PUSH32 0x4462D2700000000000000000000000000000000000000000000000000000000 DUP2 MSTORE PUSH1 0x4 ADD PUSH1 0x40 MLOAD DUP1 SWAP2 SUB SWAP1 REVERT JUMPDEST PUSH1 0x0 PUSH1 0x2 PUSH1 0x0 DUP4 DUP2 MSTORE PUSH1 0x20 ADD SWAP1 DUP2 MSTORE PUSH1 0x20 ADD PUSH1 0x0 KECCAK256 SLOAD EQ ISZERO PUSH2 0x77F JUMPI PUSH1 0x40 MLOAD PUSH32 0x95377BE400000000000000000000000000000000000000000000000000000000 DUP2 MSTORE PUSH1 0x4 ADD PUSH1 0x40 MLOAD DUP1 SWAP2 SUB SWAP1 REVERT JUMPDEST PUSH1 0x0 TIMESTAMP SWAP1 POP PUSH1 0x40 MLOAD DUP1 PUSH1 0xE0 ADD PUSH1 0x40 MSTORE DUP1 DUP5 DUP2 MSTORE PUSH1 0x20 ADD DUP3 DUP2 MSTORE PUSH1 0x20 ADD PUSH1 0x2 PUSH1 0x0 DUP6 DUP2 MSTORE PUSH1 0x20 ADD SWAP1 DUP2 MSTORE PUSH1 0x20 ADD PUSH1 0x0 KECCAK256 SLOAD DUP2 MSTORE PUSH1 0x20 ADD DUP3 DUP5 PUSH2 0x7C0 SWAP2 SWAP1 PUSH2 0x1916 JUMP JUMPDEST DUP2 MSTORE PUSH1 0x20 ADD PUSH1 0x0 DUP2 MSTORE PUSH1 0x20 ADD PUSH1 0x0 DUP2 MSTORE PUSH1 0x20 ADD PUSH1 0x0 DUP2 MSTORE POP PUSH1 0x7 PUSH1 0x0 CALLER PUSH20 0xFFFFFFFFFFFFFFFFFFFFFFFFFFFFFFFFFFFFFFFF AND PUSH20 0xFFFFFFFFFFFFFFFFFFFFFFFFFFFFFFFFFFFFFFFF AND DUP2 MSTORE PUSH1 0x20 ADD SWAP1 DUP2 MSTORE PUSH1 0x20 ADD PUSH1 0x0 KECCAK256 PUSH1 0x0 DUP3 ADD MLOAD DUP2 PUSH1 0x0 ADD SSTORE PUSH1 0x20 DUP3 ADD MLOAD DUP2 PUSH1 0x1 ADD SSTORE PUSH1 0x40 DUP3 ADD MLOAD DUP2 PUSH1 0x2 ADD SSTORE PUSH1 0x60 DUP3 ADD MLOAD DUP2 PUSH1 0x3 ADD SSTORE PUSH1 0x80 DUP3 ADD MLOAD DUP2 PUSH1 0x4 ADD SSTORE PUSH1 0xA0 DUP3 ADD MLOAD DUP2 PUSH1 0x5 ADD SSTORE PUSH1 0xC0 DUP3 ADD MLOAD DUP2 PUSH1 0x6 ADD SSTORE SWAP1 POP POP PUSH2 0x88E PUSH1 0x6 PUSH1 0x1 SWAP1 SLOAD SWAP1 PUSH2 0x100 EXP SWAP1 DIV PUSH20 0xFFFFFFFFFFFFFFFFFFFFFFFFFFFFFFFFFFFFFFFF AND CALLER ADDRESS DUP7 PUSH2 0x1177 JUMP JUMPDEST CALLER PUSH20 0xFFFFFFFFFFFFFFFFFFFFFFFFFFFFFFFFFFFFFFFF AND PUSH32 0xB4CAAF29ADDA3EEFEE3AD552A8E85058589BF834C7466CAE4EE58787F70589ED DUP5 DUP4 DUP5 DUP7 PUSH2 0x8D4 SWAP2 SWAP1 PUSH2 0x1916 JUMP JUMPDEST PUSH1 0x40 MLOAD PUSH2 0x8E3 SWAP4 SWAP3 SWAP2 SWAP1 PUSH2 0x1A55 JUMP JUMPDEST PUSH1 0x40 MLOAD DUP1 SWAP2 SUB SWAP1 LOG2 POP PUSH1 0x1 PUSH1 0x0 DUP2 SWAP1 SSTORE POP POP POP JUMP JUMPDEST PUSH1 0x4 SLOAD DUP2 JUMP JUMPDEST PUSH2 0x906 PUSH2 0x10A9 JUMP JUMPDEST PUSH20 0xFFFFFFFFFFFFFFFFFFFFFFFFFFFFFFFFFFFFFFFF AND PUSH2 0x924 PUSH2 0xA1C JUMP JUMPDEST PUSH20 0xFFFFFFFFFFFFFFFFFFFFFFFFFFFFFFFFFFFFFFFF AND EQ PUSH2 0x97A JUMPI PUSH1 0x40 MLOAD PUSH32 0x8C379A000000000000000000000000000000000000000000000000000000000 DUP2 MSTORE PUSH1 0x4 ADD PUSH2 0x971 SWAP1 PUSH2 0x19C9 JUMP JUMPDEST PUSH1 0x40 MLOAD DUP1 SWAP2 SUB SWAP1 REVERT JUMPDEST PUSH1 0x1E DUP2 GT ISZERO PUSH2 0x9B5 JUMPI PUSH1 0x40 MLOAD PUSH32 0xF1A470D700000000000000000000000000000000000000000000000000000000 DUP2 MSTORE PUSH1 0x4 ADD PUSH1 0x40 MLOAD DUP1 SWAP2 SUB SWAP1 REVERT JUMPDEST DUP1 PUSH1 0x3 DUP2 SWAP1 SSTORE POP PUSH32 0xCFA4F4CF1CD64D13A167A8E75605E0C0C9D6700E903D17C5DC11F593254A04A9 DUP2 PUSH1 0x40 MLOAD PUSH2 0x9EB SWAP2 SWAP1 PUSH2 0x1730 JUMP JUMPDEST PUSH1 0x40 MLOAD DUP1 SWAP2 SUB SWAP1 LOG1 POP JUMP JUMPDEST PUSH1 0x6 PUSH1 0x1 SWAP1 SLOAD SWAP1 PUSH2 0x100 EXP SWAP1 DIV PUSH20 0xFFFFFFFFFFFFFFFFFFFFFFFFFFFFFFFFFFFFFFFF AND DUP2 JUMP JUMPDEST PUSH1 0x0 PUSH1 0x1 PUSH1 0x0 SWAP1 SLOAD SWAP1 PUSH2 0x100 EXP SWAP1 DIV PUSH20 0xFFFFFFFFFFFFFFFFFFFFFFFFFFFFFFFFFFFFFFFF AND SWAP1 POP SWAP1 JUMP JUMPDEST PUSH1 0x0 TIMESTAMP SWAP1 POP SWAP1 JUMP JUMPDEST PUSH1 0x0 PUSH3 0x93A80 DUP3 TIMESTAMP PUSH2 0xA60 SWAP2 SWAP1 PUSH2 0x1A8C JUMP JUMPDEST PUSH2 0xA6A SWAP2 SWAP1 PUSH2 0x18E5 JUMP JUMPDEST SWAP1 POP SWAP2 SWAP1 POP JUMP JUMPDEST PUSH1 0x5 SLOAD DUP2 JUMP JUMPDEST PUSH1 0x2 PUSH1 0x0 SLOAD EQ ISZERO PUSH2 0xABD JUMPI PUSH1 0x40 MLOAD PUSH32 0x8C379A000000000000000000000000000000000000000000000000000000000 DUP2 MSTORE PUSH1 0x4 ADD PUSH2 0xAB4 SWAP1 PUSH2 0x1A35 JUMP JUMPDEST PUSH1 0x40 MLOAD DUP1 SWAP2 SUB SWAP1 REVERT JUMPDEST PUSH1 0x2 PUSH1 0x0 DUP2 SWAP1 SSTORE POP PUSH1 0x0 PUSH1 0x7 PUSH1 0x0 CALLER PUSH20 0xFFFFFFFFFFFFFFFFFFFFFFFFFFFFFFFFFFFFFFFF AND PUSH20 0xFFFFFFFFFFFFFFFFFFFFFFFFFFFFFFFFFFFFFFFF AND DUP2 MSTORE PUSH1 0x20 ADD SWAP1 DUP2 MSTORE PUSH1 0x20 ADD PUSH1 0x0 KECCAK256 PUSH1 0x40 MLOAD DUP1 PUSH1 0xE0 ADD PUSH1 0x40 MSTORE SWAP1 DUP2 PUSH1 0x0 DUP3 ADD SLOAD DUP2 MSTORE PUSH1 0x20 ADD PUSH1 0x1 DUP3 ADD SLOAD DUP2 MSTORE PUSH1 0x20 ADD PUSH1 0x2 DUP3 ADD SLOAD DUP2 MSTORE PUSH1 0x20 ADD PUSH1 0x3 DUP3 ADD SLOAD DUP2 MSTORE PUSH1 0x20 ADD PUSH1 0x4 DUP3 ADD SLOAD DUP2 MSTORE PUSH1 0x20 ADD PUSH1 0x5 DUP3 ADD SLOAD DUP2 MSTORE PUSH1 0x20 ADD PUSH1 0x6 DUP3 ADD SLOAD DUP2 MSTORE POP POP SWAP1 POP PUSH1 0x0 DUP2 PUSH1 0x0 ADD MLOAD EQ ISZERO PUSH2 0xB98 JUMPI PUSH1 0x40 MLOAD PUSH32 0xB018F08700000000000000000000000000000000000000000000000000000000 DUP2 MSTORE PUSH1 0x4 ADD PUSH1 0x40 MLOAD DUP1 SWAP2 SUB SWAP1 REVERT JUMPDEST PUSH1 0x0 PUSH2 0xBA3 DUP3 PUSH2 0xF5E JUMP JUMPDEST SWAP1 POP PUSH1 0x7 PUSH1 0x0 CALLER PUSH20 0xFFFFFFFFFFFFFFFFFFFFFFFFFFFFFFFFFFFFFFFF AND PUSH20 0xFFFFFFFFFFFFFFFFFFFFFFFFFFFFFFFFFFFFFFFF AND DUP2 MSTORE PUSH1 0x20 ADD SWAP1 DUP2 MSTORE PUSH1 0x20 ADD PUSH1 0x0 KECCAK256 PUSH1 0x0 DUP1 DUP3 ADD PUSH1 0x0 SWAP1 SSTORE PUSH1 0x1 DUP3 ADD PUSH1 0x0 SWAP1 SSTORE PUSH1 0x2 DUP3 ADD PUSH1 0x0 SWAP1 SSTORE PUSH1 0x3 DUP3 ADD PUSH1 0x0 SWAP1 SSTORE PUSH1 0x4 DUP3 ADD PUSH1 0x0 SWAP1 SSTORE PUSH1 0x5 DUP3 ADD PUSH1 0x0 SWAP1 SSTORE PUSH1 0x6 DUP3 ADD PUSH1 0x0 SWAP1 SSTORE POP POP TIMESTAMP DUP3 PUSH1 0x60 ADD MLOAD GT ISZERO PUSH2 0xC7F JUMPI PUSH1 0x0 DUP1 PUSH2 0xC3C DUP5 PUSH1 0x0 ADD MLOAD DUP5 PUSH2 0x1200 JUMP JUMPDEST SWAP2 POP SWAP2 POP PUSH2 0xC78 PUSH1 0x6 PUSH1 0x1 SWAP1 SLOAD SWAP1 PUSH2 0x100 EXP SWAP1 DIV PUSH20 0xFFFFFFFFFFFFFFFFFFFFFFFFFFFFFFFFFFFFFFFF AND CALLER DUP4 DUP6 PUSH2 0xC73 SWAP2 SWAP1 PUSH2 0x1916 JUMP JUMPDEST PUSH2 0x1023 JUMP JUMPDEST POP POP PUSH2 0xCBC JUMP JUMPDEST PUSH2 0xCBB PUSH1 0x6 PUSH1 0x1 SWAP1 SLOAD SWAP1 PUSH2 0x100 EXP SWAP1 DIV PUSH20 0xFFFFFFFFFFFFFFFFFFFFFFFFFFFFFFFFFFFFFFFF AND CALLER DUP4 DUP6 PUSH1 0x0 ADD MLOAD PUSH2 0xCB6 SWAP2 SWAP1 PUSH2 0x1916 JUMP JUMPDEST PUSH2 0x1023 JUMP JUMPDEST JUMPDEST POP POP PUSH1 0x1 PUSH1 0x0 DUP2 SWAP1 SSTORE POP JUMP JUMPDEST PUSH1 0x3 SLOAD DUP2 JUMP JUMPDEST PUSH2 0xCD6 PUSH2 0x10A9 JUMP JUMPDEST PUSH20 0xFFFFFFFFFFFFFFFFFFFFFFFFFFFFFFFFFFFFFFFF AND PUSH2 0xCF4 PUSH2 0xA1C JUMP JUMPDEST PUSH20 0xFFFFFFFFFFFFFFFFFFFFFFFFFFFFFFFFFFFFFFFF AND EQ PUSH2 0xD4A JUMPI PUSH1 0x40 MLOAD PUSH32 0x8C379A000000000000000000000000000000000000000000000000000000000 DUP2 MSTORE PUSH1 0x4 ADD PUSH2 0xD41 SWAP1 PUSH2 0x19C9 JUMP JUMPDEST PUSH1 0x40 MLOAD DUP1 SWAP2 SUB SWAP1 REVERT JUMPDEST TIMESTAMP PUSH1 0x5 DUP2 SWAP1 SSTORE POP PUSH1 0x1 PUSH1 0x6 PUSH1 0x0 PUSH2 0x100 EXP DUP2 SLOAD DUP2 PUSH1 0xFF MUL NOT AND SWAP1 DUP4 ISZERO ISZERO MUL OR SWAP1 SSTORE POP JUMP JUMPDEST PUSH2 0xD76 PUSH2 0x10A9 JUMP JUMPDEST PUSH20 0xFFFFFFFFFFFFFFFFFFFFFFFFFFFFFFFFFFFFFFFF AND PUSH2 0xD94 PUSH2 0xA1C JUMP JUMPDEST PUSH20 0xFFFFFFFFFFFFFFFFFFFFFFFFFFFFFFFFFFFFFFFF AND EQ PUSH2 0xDEA JUMPI PUSH1 0x40 MLOAD PUSH32 0x8C379A000000000000000000000000000000000000000000000000000000000 DUP2 MSTORE PUSH1 0x4 ADD PUSH2 0xDE1 SWAP1 PUSH2 0x19C9 JUMP JUMPDEST PUSH1 0x40 MLOAD DUP1 SWAP2 SUB SWAP1 REVERT JUMPDEST PUSH1 0xC8 DUP2 GT ISZERO PUSH2 0xE25 JUMPI PUSH1 0x40 MLOAD PUSH32 0xA552CF1000000000000000000000000000000000000000000000000000000000 DUP2 MSTORE PUSH1 0x4 ADD PUSH1 0x40 MLOAD DUP1 SWAP2 SUB SWAP1 REVERT JUMPDEST DUP1 PUSH1 0x4 DUP2 SWAP1 SSTORE POP PUSH32 0xCC672F1026B958C0CFBFDD89EBE8DDCBC127F16EC24DA6C2C7A4DE26A8B1857E DUP2 PUSH1 0x40 MLOAD PUSH2 0xE5B SWAP2 SWAP1 PUSH2 0x1730 JUMP JUMPDEST PUSH1 0x40 MLOAD DUP1 SWAP2 SUB SWAP1 LOG1 POP JUMP JUMPDEST PUSH2 0xE6E PUSH2 0x10A9 JUMP JUMPDEST PUSH20 0xFFFFFFFFFFFFFFFFFFFFFFFFFFFFFFFFFFFFFFFF AND PUSH2 0xE8C PUSH2 0xA1C JUMP JUMPDEST PUSH20 0xFFFFFFFFFFFFFFFFFFFFFFFFFFFFFFFFFFFFFFFF AND EQ PUSH2 0xEE2 JUMPI PUSH1 0x40 MLOAD PUSH32 0x8C379A000000000000000000000000000000000000000000000000000000000 DUP2 MSTORE PUSH1 0x4 ADD PUSH2 0xED9 SWAP1 PUSH2 0x19C9 JUMP JUMPDEST PUSH1 0x40 MLOAD DUP1 SWAP2 SUB SWAP1 REVERT JUMPDEST PUSH1 0x0 PUSH20 0xFFFFFFFFFFFFFFFFFFFFFFFFFFFFFFFFFFFFFFFF AND DUP2 PUSH20 0xFFFFFFFFFFFFFFFFFFFFFFFFFFFFFFFFFFFFFFFF AND EQ ISZERO PUSH2 0xF52 JUMPI PUSH1 0x40 MLOAD PUSH32 0x8C379A000000000000000000000000000000000000000000000000000000000 DUP2 MSTORE PUSH1 0x4 ADD PUSH2 0xF49 SWAP1 PUSH2 0x1B32 JUMP JUMPDEST PUSH1 0x40 MLOAD DUP1 SWAP2 SUB SWAP1 REVERT JUMPDEST PUSH2 0xF5B DUP2 PUSH2 0x10B1 JUMP JUMPDEST POP JUMP JUMPDEST PUSH1 0x0 PUSH11 0x52B7D2DCC80CD2E4000000 PUSH2 0xF79 DUP4 PUSH1 0x20 ADD MLOAD PUSH2 0x125A JUMP JUMPDEST DUP4 PUSH1 0x40 ADD MLOAD DUP5 PUSH1 0x0 ADD MLOAD PUSH2 0xF8D SWAP2 SWAP1 PUSH2 0x185C JUMP JUMPDEST PUSH2 0xF97 SWAP2 SWAP1 PUSH2 0x185C JUMP JUMPDEST PUSH2 0xFA1 SWAP2 SWAP1 PUSH2 0x18E5 JUMP JUMPDEST SWAP1 POP SWAP2 SWAP1 POP JUMP JUMPDEST PUSH1 0x0 PUSH4 0x1DFE200 PUSH2 0x3E8 PUSH1 0x4 SLOAD DUP5 PUSH2 0xFC0 SWAP2 SWAP1 PUSH2 0x185C JUMP JUMPDEST PUSH2 0xFCA SWAP2 SWAP1 PUSH2 0x18E5 JUMP JUMPDEST PUSH2 0xFD4 SWAP2 SWAP1 PUSH2 0x18E5 JUMP JUMPDEST SWAP1 POP SWAP2 SWAP1 POP JUMP JUMPDEST PUSH1 0x6 PUSH1 0x0 SWAP1 SLOAD SWAP1 PUSH2 0x100 EXP SWAP1 DIV PUSH1 0xFF AND PUSH2 0x1021 JUMPI PUSH1 0x40 MLOAD PUSH32 0xD4A7CB1900000000000000000000000000000000000000000000000000000000 DUP2 MSTORE PUSH1 0x4 ADD PUSH1 0x40 MLOAD DUP1 SWAP2 SUB SWAP1 REVERT JUMPDEST JUMP JUMPDEST PUSH2 0x10A4 DUP4 PUSH4 0xA9059CBB PUSH1 0xE0 SHL DUP5 DUP5 PUSH1 0x40 MLOAD PUSH1 0x24 ADD PUSH2 0x1042 SWAP3 SWAP2 SWAP1 PUSH2 0x1B52 JUMP JUMPDEST PUSH1 0x40 MLOAD PUSH1 0x20 DUP2 DUP4 SUB SUB DUP2 MSTORE SWAP1 PUSH1 0x40 MSTORE SWAP1 PUSH28 0xFFFFFFFFFFFFFFFFFFFFFFFFFFFFFFFFFFFFFFFFFFFFFFFFFFFFFFFF NOT AND PUSH1 0x20 DUP3 ADD DUP1 MLOAD PUSH28 0xFFFFFFFFFFFFFFFFFFFFFFFFFFFFFFFFFFFFFFFFFFFFFFFFFFFFFFFF DUP4 DUP2 DUP4 AND OR DUP4 MSTORE POP POP POP POP PUSH2 0x1293 JUMP JUMPDEST POP POP POP JUMP JUMPDEST PUSH1 0x0 CALLER SWAP1 POP SWAP1 JUMP JUMPDEST PUSH1 0x0 PUSH1 0x1 PUSH1 0x0 SWAP1 SLOAD SWAP1 PUSH2 0x100 EXP SWAP1 DIV PUSH20 0xFFFFFFFFFFFFFFFFFFFFFFFFFFFFFFFFFFFFFFFF AND SWAP1 POP DUP2 PUSH1 0x1 PUSH1 0x0 PUSH2 0x100 EXP DUP2 SLOAD DUP2 PUSH20 0xFFFFFFFFFFFFFFFFFFFFFFFFFFFFFFFFFFFFFFFF MUL NOT AND SWAP1 DUP4 PUSH20 0xFFFFFFFFFFFFFFFFFFFFFFFFFFFFFFFFFFFFFFFF AND MUL OR SWAP1 SSTORE POP DUP2 PUSH20 0xFFFFFFFFFFFFFFFFFFFFFFFFFFFFFFFFFFFFFFFF AND DUP2 PUSH20 0xFFFFFFFFFFFFFFFFFFFFFFFFFFFFFFFFFFFFFFFF AND PUSH32 0x8BE0079C531659141344CD1FD0A4F28419497F9722A3DAAFE3B4186F6B6457E0 PUSH1 0x40 MLOAD PUSH1 0x40 MLOAD DUP1 SWAP2 SUB SWAP1 LOG3 POP POP JUMP JUMPDEST PUSH2 0x11FA DUP5 PUSH4 0x23B872DD PUSH1 0xE0 SHL DUP6 DUP6 DUP6 PUSH1 0x40 MLOAD PUSH1 0x24 ADD PUSH2 0x1198 SWAP4 SWAP3 SWAP2 SWAP1 PUSH2 0x1B7B JUMP JUMPDEST PUSH1 0x40 MLOAD PUSH1 0x20 DUP2 DUP4 SUB SUB DUP2 MSTORE SWAP1 PUSH1 0x40 MSTORE SWAP1 PUSH28 0xFFFFFFFFFFFFFFFFFFFFFFFFFFFFFFFFFFFFFFFFFFFFFFFFFFFFFFFF NOT AND PUSH1 0x20 DUP3 ADD DUP1 MLOAD PUSH28 0xFFFFFFFFFFFFFFFFFFFFFFFFFFFFFFFFFFFFFFFFFFFFFFFFFFFFFFFF DUP4 DUP2 DUP4 AND OR DUP4 MSTORE POP POP POP POP PUSH2 0x1293 JUMP JUMPDEST POP POP POP POP JUMP JUMPDEST PUSH1 0x0 DUP1 PUSH2 0x3E8 PUSH1 0x3 SLOAD DUP6 PUSH2 0x1214 SWAP2 SWAP1 PUSH2 0x185C JUMP JUMPDEST PUSH2 0x121E SWAP2 SWAP1 PUSH2 0x18E5 JUMP JUMPDEST DUP5 PUSH2 0x1229 SWAP2 SWAP1 PUSH2 0x1A8C JUMP JUMPDEST PUSH2 0x3E8 PUSH1 0x3 SLOAD DUP6 PUSH2 0x123A SWAP2 SWAP1 PUSH2 0x185C JUMP JUMPDEST PUSH2 0x1244 SWAP2 SWAP1 PUSH2 0x18E5 JUMP JUMPDEST DUP5 PUSH2 0x124F SWAP2 SWAP1 PUSH2 0x1A8C JUMP JUMPDEST SWAP2 POP SWAP2 POP SWAP3 POP SWAP3 SWAP1 POP JUMP JUMPDEST PUSH1 0x0 PUSH4 0x1E13380 PUSH10 0xD3C21BCECCEDA1000000 DUP4 TIMESTAMP PUSH2 0x1278 SWAP2 SWAP1 PUSH2 0x1A8C JUMP JUMPDEST PUSH2 0x1282 SWAP2 SWAP1 PUSH2 0x185C JUMP JUMPDEST PUSH2 0x128C SWAP2 SWAP1 PUSH2 0x18E5 JUMP JUMPDEST SWAP1 POP SWAP2 SWAP1 POP JUMP JUMPDEST PUSH1 0x0 PUSH2 0x12F5 DUP3 PUSH1 0x40 MLOAD DUP1 PUSH1 0x40 ADD PUSH1 0x40 MSTORE DUP1 PUSH1 0x20 DUP2 MSTORE PUSH1 0x20 ADD PUSH32 0x5361666545524332303A206C6F772D6C6576656C2063616C6C206661696C6564 DUP2 MSTORE POP DUP6 PUSH20 0xFFFFFFFFFFFFFFFFFFFFFFFFFFFFFFFFFFFFFFFF AND PUSH2 0x135A SWAP1 SWAP3 SWAP2 SWAP1 PUSH4 0xFFFFFFFF AND JUMP JUMPDEST SWAP1 POP PUSH1 0x0 DUP2 MLOAD GT ISZERO PUSH2 0x1355 JUMPI DUP1 DUP1 PUSH1 0x20 ADD SWAP1 MLOAD DUP2 ADD SWAP1 PUSH2 0x1315 SWAP2 SWAP1 PUSH2 0x1BDE JUMP JUMPDEST PUSH2 0x1354 JUMPI PUSH1 0x40 MLOAD PUSH32 0x8C379A000000000000000000000000000000000000000000000000000000000 DUP2 MSTORE PUSH1 0x4 ADD PUSH2 0x134B SWAP1 PUSH2 0x1C7D JUMP JUMPDEST PUSH1 0x40 MLOAD DUP1 SWAP2 SUB SWAP1 REVERT JUMPDEST JUMPDEST POP POP POP JUMP JUMPDEST PUSH1 0x60 PUSH2 0x1369 DUP5 DUP5 PUSH1 0x0 DUP6 PUSH2 0x1372 JUMP JUMPDEST SWAP1 POP SWAP4 SWAP3 POP POP POP JUMP JUMPDEST PUSH1 0x60 DUP3 SELFBALANCE LT ISZERO PUSH2 0x13B7 JUMPI PUSH1 0x40 MLOAD PUSH32 0x8C379A000000000000000000000000000000000000000000000000000000000 DUP2 MSTORE PUSH1 0x4 ADD PUSH2 0x13AE SWAP1 PUSH2 0x1D0F JUMP JUMPDEST PUSH1 0x40 MLOAD DUP1 SWAP2 SUB SWAP1 REVERT JUMPDEST PUSH2 0x13C0 DUP6 PUSH2 0x1486 JUMP JUMPDEST PUSH2 0x13FF JUMPI PUSH1 0x40 MLOAD PUSH32 0x8C379A000000000000000000000000000000000000000000000000000000000 DUP2 MSTORE PUSH1 0x4 ADD PUSH2 0x13F6 SWAP1 PUSH2 0x1D7B JUMP JUMPDEST PUSH1 0x40 MLOAD DUP1 SWAP2 SUB SWAP1 REVERT JUMPDEST PUSH1 0x0 DUP1 DUP7 PUSH20 0xFFFFFFFFFFFFFFFFFFFFFFFFFFFFFFFFFFFFFFFF AND DUP6 DUP8 PUSH1 0x40 MLOAD PUSH2 0x1428 SWAP2 SWAP1 PUSH2 0x1E15 JUMP JUMPDEST PUSH1 0x0 PUSH1 0x40 MLOAD DUP1 DUP4 SUB DUP2 DUP6 DUP8 GAS CALL SWAP3 POP POP POP RETURNDATASIZE DUP1 PUSH1 0x0 DUP2 EQ PUSH2 0x1465 JUMPI PUSH1 0x40 MLOAD SWAP2 POP PUSH1 0x1F NOT PUSH1 0x3F RETURNDATASIZE ADD AND DUP3 ADD PUSH1 0x40 MSTORE RETURNDATASIZE DUP3 MSTORE RETURNDATASIZE PUSH1 0x0 PUSH1 0x20 DUP5 ADD RETURNDATACOPY PUSH2 0x146A JUMP JUMPDEST PUSH1 0x60 SWAP2 POP JUMPDEST POP SWAP2 POP SWAP2 POP PUSH2 0x147A DUP3 DUP3 DUP7 PUSH2 0x14A9 JUMP JUMPDEST SWAP3 POP POP POP SWAP5 SWAP4 POP POP POP POP JUMP JUMPDEST PUSH1 0x0 DUP1 DUP3 PUSH20 0xFFFFFFFFFFFFFFFFFFFFFFFFFFFFFFFFFFFFFFFF AND EXTCODESIZE GT SWAP1 POP SWAP2 SWAP1 POP JUMP JUMPDEST PUSH1 0x60 DUP4 ISZERO PUSH2 0x14B9 JUMPI DUP3 SWAP1 POP PUSH2 0x1509 JUMP JUMPDEST PUSH1 0x0 DUP4 MLOAD GT ISZERO PUSH2 0x14CC JUMPI DUP3 MLOAD DUP1 DUP5 PUSH1 0x20 ADD REVERT JUMPDEST DUP2 PUSH1 0x40 MLOAD PUSH32 0x8C379A000000000000000000000000000000000000000000000000000000000 DUP2 MSTORE PUSH1 0x4 ADD PUSH2 0x1500 SWAP2 SWAP1 PUSH2 0x1E81 JUMP JUMPDEST PUSH1 0x40 MLOAD DUP1 SWAP2 SUB SWAP1 REVERT JUMPDEST SWAP4 SWAP3 POP POP POP JUMP JUMPDEST PUSH1 0x40 MLOAD DUP1 PUSH1 0x60 ADD PUSH1 0x40 MSTORE DUP1 PUSH1 0x0 DUP2 MSTORE PUSH1 0x20 ADD PUSH1 0x0 DUP2 MSTORE PUSH1 0x20 ADD PUSH2 0x1531 PUSH2 0x1537 JUMP JUMPDEST DUP2 MSTORE POP SWAP1 JUMP JUMPDEST PUSH1 0x40 MLOAD DUP1 PUSH1 0xE0 ADD PUSH1 0x40 MSTORE DUP1 PUSH1 0x0 DUP2 MSTORE PUSH1 0x20 ADD PUSH1 0x0 DUP2 MSTORE PUSH1 0x20 ADD PUSH1 0x0 DUP2 MSTORE PUSH1 0x20 ADD PUSH1 0x0 DUP2 MSTORE PUSH1 0x20 ADD PUSH1 0x0 DUP2 MSTORE PUSH1 0x20 ADD PUSH1 0x0 DUP2 MSTORE PUSH1 0x20 ADD PUSH1 0x0 DUP2 MSTORE POP SWAP1 JUMP JUMPDEST PUSH1 0x0 DUP2 SWAP1 POP SWAP2 SWAP1 POP JUMP JUMPDEST PUSH2 0x1587 DUP2 PUSH2 0x1574 JUMP JUMPDEST DUP3 MSTORE POP POP JUMP JUMPDEST PUSH1 0xE0 DUP3 ADD PUSH1 0x0 DUP3 ADD MLOAD PUSH2 0x15A3 PUSH1 0x0 DUP6 ADD DUP3 PUSH2 0x157E JUMP JUMPDEST POP PUSH1 0x20 DUP3 ADD MLOAD PUSH2 0x15B6 PUSH1 0x20 DUP6 ADD DUP3 PUSH2 0x157E JUMP JUMPDEST POP PUSH1 0x40 DUP3 ADD MLOAD PUSH2 0x15C9 PUSH1 0x40 DUP6 ADD DUP3 PUSH2 0x157E JUMP JUMPDEST POP PUSH1 0x60 DUP3 ADD MLOAD PUSH2 0x15DC PUSH1 0x60 DUP6 ADD DUP3 PUSH2 0x157E JUMP JUMPDEST POP PUSH1 0x80 DUP3 ADD MLOAD PUSH2 0x15EF PUSH1 0x80 DUP6 ADD DUP3 PUSH2 0x157E JUMP JUMPDEST POP PUSH1 0xA0 DUP3 ADD MLOAD PUSH2 0x1602 PUSH1 0xA0 DUP6 ADD DUP3 PUSH2 0x157E JUMP JUMPDEST POP PUSH1 0xC0 DUP3 ADD MLOAD PUSH2 0x1615 PUSH1 0xC0 DUP6 ADD DUP3 PUSH2 0x157E JUMP JUMPDEST POP POP POP POP JUMP JUMPDEST PUSH2 0x120 DUP3 ADD PUSH1 0x0 DUP3 ADD MLOAD PUSH2 0x1632 PUSH1 0x0 DUP6 ADD DUP3 PUSH2 0x157E JUMP JUMPDEST POP PUSH1 0x20 DUP3 ADD MLOAD PUSH2 0x1645 PUSH1 0x20 DUP6 ADD DUP3 PUSH2 0x157E JUMP JUMPDEST POP PUSH1 0x40 DUP3 ADD MLOAD PUSH2 0x1658 PUSH1 0x40 DUP6 ADD DUP3 PUSH2 0x158D JUMP JUMPDEST POP POP POP POP JUMP JUMPDEST PUSH1 0x0 PUSH2 0x120 DUP3 ADD SWAP1 POP PUSH2 0x1674 PUSH1 0x0 DUP4 ADD DUP5 PUSH2 0x161B JUMP JUMPDEST SWAP3 SWAP2 POP POP JUMP JUMPDEST PUSH1 0x0 DUP2 ISZERO ISZERO SWAP1 POP SWAP2 SWAP1 POP JUMP JUMPDEST PUSH2 0x168F DUP2 PUSH2 0x167A JUMP JUMPDEST DUP3 MSTORE POP POP JUMP JUMPDEST PUSH1 0x0 PUSH1 0x20 DUP3 ADD SWAP1 POP PUSH2 0x16AA PUSH1 0x0 DUP4 ADD DUP5 PUSH2 0x1686 JUMP JUMPDEST SWAP3 SWAP2 POP POP JUMP JUMPDEST PUSH1 0x0 DUP1 REVERT JUMPDEST PUSH2 0x16BE DUP2 PUSH2 0x1574 JUMP JUMPDEST DUP2 EQ PUSH2 0x16C9 JUMPI PUSH1 0x0 DUP1 REVERT JUMPDEST POP JUMP JUMPDEST PUSH1 0x0 DUP2 CALLDATALOAD SWAP1 POP PUSH2 0x16DB DUP2 PUSH2 0x16B5 JUMP JUMPDEST SWAP3 SWAP2 POP POP JUMP JUMPDEST PUSH1 0x0 DUP1 PUSH1 0x40 DUP4 DUP6 SUB SLT ISZERO PUSH2 0x16F8 JUMPI PUSH2 0x16F7 PUSH2 0x16B0 JUMP JUMPDEST JUMPDEST PUSH1 0x0 PUSH2 0x1706 DUP6 DUP3 DUP7 ADD PUSH2 0x16CC JUMP JUMPDEST SWAP3 POP POP PUSH1 0x20 PUSH2 0x1717 DUP6 DUP3 DUP7 ADD PUSH2 0x16CC JUMP JUMPDEST SWAP2 POP POP SWAP3 POP SWAP3 SWAP1 POP JUMP JUMPDEST PUSH2 0x172A DUP2 PUSH2 0x1574 JUMP JUMPDEST DUP3 MSTORE POP POP JUMP JUMPDEST PUSH1 0x0 PUSH1 0x20 DUP3 ADD SWAP1 POP PUSH2 0x1745 PUSH1 0x0 DUP4 ADD DUP5 PUSH2 0x1721 JUMP JUMPDEST SWAP3 SWAP2 POP POP JUMP JUMPDEST PUSH1 0x0 PUSH1 0x20 DUP3 DUP5 SUB SLT ISZERO PUSH2 0x1761 JUMPI PUSH2 0x1760 PUSH2 0x16B0 JUMP JUMPDEST JUMPDEST PUSH1 0x0 PUSH2 0x176F DUP5 DUP3 DUP6 ADD PUSH2 0x16CC JUMP JUMPDEST SWAP2 POP POP SWAP3 SWAP2 POP POP JUMP JUMPDEST PUSH1 0x0 PUSH20 0xFFFFFFFFFFFFFFFFFFFFFFFFFFFFFFFFFFFFFFFF DUP3 AND SWAP1 POP SWAP2 SWAP1 POP JUMP JUMPDEST PUSH1 0x0 PUSH2 0x17A3 DUP3 PUSH2 0x1778 JUMP JUMPDEST SWAP1 POP SWAP2 SWAP1 POP JUMP JUMPDEST PUSH2 0x17B3 DUP2 PUSH2 0x1798 JUMP JUMPDEST DUP3 MSTORE POP POP JUMP JUMPDEST PUSH1 0x0 PUSH1 0x20 DUP3 ADD SWAP1 POP PUSH2 0x17CE PUSH1 0x0 DUP4 ADD DUP5 PUSH2 0x17AA JUMP JUMPDEST SWAP3 SWAP2 POP POP JUMP JUMPDEST PUSH2 0x17DD DUP2 PUSH2 0x1798 JUMP JUMPDEST DUP2 EQ PUSH2 0x17E8 JUMPI PUSH1 0x0 DUP1 REVERT JUMPDEST POP JUMP JUMPDEST PUSH1 0x0 DUP2 CALLDATALOAD SWAP1 POP PUSH2 0x17FA DUP2 PUSH2 0x17D4 JUMP JUMPDEST SWAP3 SWAP2 POP POP JUMP JUMPDEST PUSH1 0x0 PUSH1 0x20 DUP3 DUP5 SUB SLT ISZERO PUSH2 0x1816 JUMPI PUSH2 0x1815 PUSH2 0x16B0 JUMP JUMPDEST JUMPDEST PUSH1 0x0 PUSH2 0x1824 DUP5 DUP3 DUP6 ADD PUSH2 0x17EB JUMP JUMPDEST SWAP2 POP POP SWAP3 SWAP2 POP POP JUMP JUMPDEST PUSH32 0x4E487B7100000000000000000000000000000000000000000000000000000000 PUSH1 0x0 MSTORE PUSH1 0x11 PUSH1 0x4 MSTORE PUSH1 0x24 PUSH1 0x0 REVERT JUMPDEST PUSH1 0x0 PUSH2 0x1867 DUP3 PUSH2 0x1574 JUMP JUMPDEST SWAP2 POP PUSH2 0x1872 DUP4 PUSH2 0x1574 JUMP JUMPDEST SWAP3 POP DUP2 PUSH32 0xFFFFFFFFFFFFFFFFFFFFFFFFFFFFFFFFFFFFFFFFFFFFFFFFFFFFFFFFFFFFFFFF DIV DUP4 GT DUP3 ISZERO ISZERO AND ISZERO PUSH2 0x18AB JUMPI PUSH2 0x18AA PUSH2 0x182D JUMP JUMPDEST JUMPDEST DUP3 DUP3 MUL SWAP1 POP SWAP3 SWAP2 POP POP JUMP JUMPDEST PUSH32 0x4E487B7100000000000000000000000000000000000000000000000000000000 PUSH1 0x0 MSTORE PUSH1 0x12 PUSH1 0x4 MSTORE PUSH1 0x24 PUSH1 0x0 REVERT JUMPDEST PUSH1 0x0 PUSH2 0x18F0 DUP3 PUSH2 0x1574 JUMP JUMPDEST SWAP2 POP PUSH2 0x18FB DUP4 PUSH2 0x1574 JUMP JUMPDEST SWAP3 POP DUP3 PUSH2 0x190B JUMPI PUSH2 0x190A PUSH2 0x18B6 JUMP JUMPDEST JUMPDEST DUP3 DUP3 DIV SWAP1 POP SWAP3 SWAP2 POP POP JUMP JUMPDEST PUSH1 0x0 PUSH2 0x1921 DUP3 PUSH2 0x1574 JUMP JUMPDEST SWAP2 POP PUSH2 0x192C DUP4 PUSH2 0x1574 JUMP JUMPDEST SWAP3 POP DUP3 PUSH32 0xFFFFFFFFFFFFFFFFFFFFFFFFFFFFFFFFFFFFFFFFFFFFFFFFFFFFFFFFFFFFFFFF SUB DUP3 GT ISZERO PUSH2 0x1961 JUMPI PUSH2 0x1960 PUSH2 0x182D JUMP JUMPDEST JUMPDEST DUP3 DUP3 ADD SWAP1 POP SWAP3 SWAP2 POP POP JUMP JUMPDEST PUSH1 0x0 DUP3 DUP3 MSTORE PUSH1 0x20 DUP3 ADD SWAP1 POP SWAP3 SWAP2 POP POP JUMP JUMPDEST PUSH32 0x4F776E61626C653A2063616C6C6572206973206E6F7420746865206F776E6572 PUSH1 0x0 DUP3 ADD MSTORE POP JUMP JUMPDEST PUSH1 0x0 PUSH2 0x19B3 PUSH1 0x20 DUP4 PUSH2 0x196C JUMP JUMPDEST SWAP2 POP PUSH2 0x19BE DUP3 PUSH2 0x197D JUMP JUMPDEST PUSH1 0x20 DUP3 ADD SWAP1 POP SWAP2 SWAP1 POP JUMP JUMPDEST PUSH1 0x0 PUSH1 0x20 DUP3 ADD SWAP1 POP DUP2 DUP2 SUB PUSH1 0x0 DUP4 ADD MSTORE PUSH2 0x19E2 DUP2 PUSH2 0x19A6 JUMP JUMPDEST SWAP1 POP SWAP2 SWAP1 POP JUMP JUMPDEST PUSH32 0x5265656E7472616E637947756172643A207265656E7472616E742063616C6C00 PUSH1 0x0 DUP3 ADD MSTORE POP JUMP JUMPDEST PUSH1 0x0 PUSH2 0x1A1F PUSH1 0x1F DUP4 PUSH2 0x196C JUMP JUMPDEST SWAP2 POP PUSH2 0x1A2A DUP3 PUSH2 0x19E9 JUMP JUMPDEST PUSH1 0x20 DUP3 ADD SWAP1 POP SWAP2 SWAP1 POP JUMP JUMPDEST PUSH1 0x0 PUSH1 0x20 DUP3 ADD SWAP1 POP DUP2 DUP2 SUB PUSH1 0x0 DUP4 ADD MSTORE PUSH2 0x1A4E DUP2 PUSH2 0x1A12 JUMP JUMPDEST SWAP1 POP SWAP2 SWAP1 POP JUMP JUMPDEST PUSH1 0x0 PUSH1 0x60 DUP3 ADD SWAP1 POP PUSH2 0x1A6A PUSH1 0x0 DUP4 ADD DUP7 PUSH2 0x1721 JUMP JUMPDEST PUSH2 0x1A77 PUSH1 0x20 DUP4 ADD DUP6 PUSH2 0x1721 JUMP JUMPDEST PUSH2 0x1A84 PUSH1 0x40 DUP4 ADD DUP5 PUSH2 0x1721 JUMP JUMPDEST SWAP5 SWAP4 POP POP POP POP JUMP JUMPDEST PUSH1 0x0 PUSH2 0x1A97 DUP3 PUSH2 0x1574 JUMP JUMPDEST SWAP2 POP PUSH2 0x1AA2 DUP4 PUSH2 0x1574 JUMP JUMPDEST SWAP3 POP DUP3 DUP3 LT ISZERO PUSH2 0x1AB5 JUMPI PUSH2 0x1AB4 PUSH2 0x182D JUMP JUMPDEST JUMPDEST DUP3 DUP3 SUB SWAP1 POP SWAP3 SWAP2 POP POP JUMP JUMPDEST PUSH32 0x4F776E61626C653A206E6577206F776E657220697320746865207A65726F2061 PUSH1 0x0 DUP3 ADD MSTORE PUSH32 0x6464726573730000000000000000000000000000000000000000000000000000 PUSH1 0x20 DUP3 ADD MSTORE POP JUMP JUMPDEST PUSH1 0x0 PUSH2 0x1B1C PUSH1 0x26 DUP4 PUSH2 0x196C JUMP JUMPDEST SWAP2 POP PUSH2 0x1B27 DUP3 PUSH2 0x1AC0 JUMP JUMPDEST PUSH1 0x40 DUP3 ADD SWAP1 POP SWAP2 SWAP1 POP JUMP JUMPDEST PUSH1 0x0 PUSH1 0x20 DUP3 ADD SWAP1 POP DUP2 DUP2 SUB PUSH1 0x0 DUP4 ADD MSTORE PUSH2 0x1B4B DUP2 PUSH2 0x1B0F JUMP JUMPDEST SWAP1 POP SWAP2 SWAP1 POP JUMP JUMPDEST PUSH1 0x0 PUSH1 0x40 DUP3 ADD SWAP1 POP PUSH2 0x1B67 PUSH1 0x0 DUP4 ADD DUP6 PUSH2 0x17AA JUMP JUMPDEST PUSH2 0x1B74 PUSH1 0x20 DUP4 ADD DUP5 PUSH2 0x1721 JUMP JUMPDEST SWAP4 SWAP3 POP POP POP JUMP JUMPDEST PUSH1 0x0 PUSH1 0x60 DUP3 ADD SWAP1 POP PUSH2 0x1B90 PUSH1 0x0 DUP4 ADD DUP7 PUSH2 0x17AA JUMP JUMPDEST PUSH2 0x1B9D PUSH1 0x20 DUP4 ADD DUP6 PUSH2 0x17AA JUMP JUMPDEST PUSH2 0x1BAA PUSH1 0x40 DUP4 ADD DUP5 PUSH2 0x1721 JUMP JUMPDEST SWAP5 SWAP4 POP POP POP POP JUMP JUMPDEST PUSH2 0x1BBB DUP2 PUSH2 0x167A JUMP JUMPDEST DUP2 EQ PUSH2 0x1BC6 JUMPI PUSH1 0x0 DUP1 REVERT JUMPDEST POP JUMP JUMPDEST PUSH1 0x0 DUP2 MLOAD SWAP1 POP PUSH2 0x1BD8 DUP2 PUSH2 0x1BB2 JUMP JUMPDEST SWAP3 SWAP2 POP POP JUMP JUMPDEST PUSH1 0x0 PUSH1 0x20 DUP3 DUP5 SUB SLT ISZERO PUSH2 0x1BF4 JUMPI PUSH2 0x1BF3 PUSH2 0x16B0 JUMP JUMPDEST JUMPDEST PUSH1 0x0 PUSH2 0x1C02 DUP5 DUP3 DUP6 ADD PUSH2 0x1BC9 JUMP JUMPDEST SWAP2 POP POP SWAP3 SWAP2 POP POP JUMP JUMPDEST PUSH32 0x5361666545524332303A204552433230206F7065726174696F6E20646964206E PUSH1 0x0 DUP3 ADD MSTORE PUSH32 0x6F74207375636365656400000000000000000000000000000000000000000000 PUSH1 0x20 DUP3 ADD MSTORE POP JUMP JUMPDEST PUSH1 0x0 PUSH2 0x1C67 PUSH1 0x2A DUP4 PUSH2 0x196C JUMP JUMPDEST SWAP2 POP PUSH2 0x1C72 DUP3 PUSH2 0x1C0B JUMP JUMPDEST PUSH1 0x40 DUP3 ADD SWAP1 POP SWAP2 SWAP1 POP JUMP JUMPDEST PUSH1 0x0 PUSH1 0x20 DUP3 ADD SWAP1 POP DUP2 DUP2 SUB PUSH1 0x0 DUP4 ADD MSTORE PUSH2 0x1C96 DUP2 PUSH2 0x1C5A JUMP JUMPDEST SWAP1 POP SWAP2 SWAP1 POP JUMP JUMPDEST PUSH32 0x416464726573733A20696E73756666696369656E742062616C616E636520666F PUSH1 0x0 DUP3 ADD MSTORE PUSH32 0x722063616C6C0000000000000000000000000000000000000000000000000000 PUSH1 0x20 DUP3 ADD MSTORE POP JUMP JUMPDEST PUSH1 0x0 PUSH2 0x1CF9 PUSH1 0x26 DUP4 PUSH2 0x196C JUMP JUMPDEST SWAP2 POP PUSH2 0x1D04 DUP3 PUSH2 0x1C9D JUMP JUMPDEST PUSH1 0x40 DUP3 ADD SWAP1 POP SWAP2 SWAP1 POP JUMP JUMPDEST PUSH1 0x0 PUSH1 0x20 DUP3 ADD SWAP1 POP DUP2 DUP2 SUB PUSH1 0x0 DUP4 ADD MSTORE PUSH2 0x1D28 DUP2 PUSH2 0x1CEC JUMP JUMPDEST SWAP1 POP SWAP2 SWAP1 POP JUMP JUMPDEST PUSH32 0x416464726573733A2063616C6C20746F206E6F6E2D636F6E7472616374000000 PUSH1 0x0 DUP3 ADD MSTORE POP JUMP JUMPDEST PUSH1 0x0 PUSH2 0x1D65 PUSH1 0x1D DUP4 PUSH2 0x196C JUMP JUMPDEST SWAP2 POP PUSH2 0x1D70 DUP3 PUSH2 0x1D2F JUMP JUMPDEST PUSH1 0x20 DUP3 ADD SWAP1 POP SWAP2 SWAP1 POP JUMP JUMPDEST PUSH1 0x0 PUSH1 0x20 DUP3 ADD SWAP1 POP DUP2 DUP2 SUB PUSH1 0x0 DUP4 ADD MSTORE PUSH2 0x1D94 DUP2 PUSH2 0x1D58 JUMP JUMPDEST SWAP1 POP SWAP2 SWAP1 POP JUMP JUMPDEST PUSH1 0x0 DUP2 MLOAD SWAP1 POP SWAP2 SWAP1 POP JUMP JUMPDEST PUSH1 0x0 DUP2 SWAP1 POP SWAP3 SWAP2 POP POP JUMP JUMPDEST PUSH1 0x0 JUMPDEST DUP4 DUP2 LT ISZERO PUSH2 0x1DCF JUMPI DUP1 DUP3 ADD MLOAD DUP2 DUP5 ADD MSTORE PUSH1 0x20 DUP2 ADD SWAP1 POP PUSH2 0x1DB4 JUMP JUMPDEST DUP4 DUP2 GT ISZERO PUSH2 0x1DDE JUMPI PUSH1 0x0 DUP5 DUP5 ADD MSTORE JUMPDEST POP POP POP POP JUMP JUMPDEST PUSH1 0x0 PUSH2 0x1DEF DUP3 PUSH2 0x1D9B JUMP JUMPDEST PUSH2 0x1DF9 DUP2 DUP6 PUSH2 0x1DA6 JUMP JUMPDEST SWAP4 POP PUSH2 0x1E09 DUP2 DUP6 PUSH1 0x20 DUP7 ADD PUSH2 0x1DB1 JUMP JUMPDEST DUP1 DUP5 ADD SWAP2 POP POP SWAP3 SWAP2 POP POP JUMP JUMPDEST PUSH1 0x0 PUSH2 0x1E21 DUP3 DUP5 PUSH2 0x1DE4 JUMP JUMPDEST SWAP2 POP DUP2 SWAP1 POP SWAP3 SWAP2 POP POP JUMP JUMPDEST PUSH1 0x0 DUP2 MLOAD SWAP1 POP SWAP2 SWAP1 POP JUMP JUMPDEST PUSH1 0x0 PUSH1 0x1F NOT PUSH1 0x1F DUP4 ADD AND SWAP1 POP SWAP2 SWAP1 POP JUMP JUMPDEST PUSH1 0x0 PUSH2 0x1E53 DUP3 PUSH2 0x1E2C JUMP JUMPDEST PUSH2 0x1E5D DUP2 DUP6 PUSH2 0x196C JUMP JUMPDEST SWAP4 POP PUSH2 0x1E6D DUP2 DUP6 PUSH1 0x20 DUP7 ADD PUSH2 0x1DB1 JUMP JUMPDEST PUSH2 0x1E76 DUP2 PUSH2 0x1E37 JUMP JUMPDEST DUP5 ADD SWAP2 POP POP SWAP3 SWAP2 POP POP JUMP JUMPDEST PUSH1 0x0 PUSH1 0x20 DUP3 ADD SWAP1 POP DUP2 DUP2 SUB PUSH1 0x0 DUP4 ADD MSTORE PUSH2 0x1E9B DUP2 DUP5 PUSH2 0x1E48 JUMP JUMPDEST SWAP1 POP SWAP3 SWAP2 POP POP JUMP INVALID LOG2 PUSH5 0x6970667358 0x22 SLT KECCAK256 MLOAD DUP6 PUSH28 0xB0CE65A0DD215A77AEE6572C8F1F14C953ECD7B4396968118E2DE6EF 0xAB PUSH5 0x736F6C6343 STOP ADDMOD SIGNEXTEND STOP CALLER "
				},
				"gasEstimates": {
					"creation": {
						"codeDepositCost": "1579400",
						"executionCost": "infinite",
						"totalCost": "infinite"
					},
					"external": {
						"airdropRate()": "2474",
						"airdropSince()": "2518",
						"airdropStatus()": "2517",
						"blockTimestamp()": "381",
						"calculateWeek(uint256)": "infinite",
						"changeAirdropPercentage(uint256)": "infinite",
						"changePenaltyFee(uint256)": "infinite",
						"claimAirdrop()": "infinite",
						"hasStake()": "infinite",
						"owner()": "2545",
						"renounceOwnership()": "30464",
						"stake(uint256,uint256)": "infinite",
						"stakingPenaltyRate()": "2473",
						"startAirdrop()": "48830",
						"token_address()": "2653",
						"transferOwnership(address)": "30833",
						"withdrawStake()": "infinite"
					},
					"internal": {
						"_calculateAirdrop(uint256)": "infinite",
						"_calculateStakeReward(struct Staking.Stake memory)": "infinite",
						"_calculateStakingDuration(uint256)": "infinite",
						"_calculateStakingWithPenalty(uint256,uint256)": "infinite",
						"_checkAirdropStatus()": "infinite"
					}
				},
				"methodIdentifiers": {
					"airdropRate()": "8891cf0d",
					"airdropSince()": "b87da76d",
					"airdropStatus()": "2cf1a5fb",
					"blockTimestamp()": "adb61832",
					"calculateWeek(uint256)": "b5d9df83",
					"changeAirdropPercentage(uint256)": "d5dbdf1b",
					"changePenaltyFee(uint256)": "8c63f97f",
					"claimAirdrop()": "5b88349d",
					"hasStake()": "10486b6a",
					"owner()": "8da5cb5b",
					"renounceOwnership()": "715018a6",
					"stake(uint256,uint256)": "7b0472f0",
					"stakingPenaltyRate()": "cb79c2e1",
					"startAirdrop()": "d2a569c3",
					"token_address()": "8c8e8fee",
					"transferOwnership(address)": "f2fde38b",
					"withdrawStake()": "bed9d861"
				}
			},
			"storageLayout": {
				"storage": [
					{
						"astId": 115,
						"contract": "contracts/Staking.sol:Staking",
						"label": "_status",
						"offset": 0,
						"slot": "0",
						"type": "t_uint256"
					},
					{
						"astId": 7,
						"contract": "contracts/Staking.sol:Staking",
						"label": "_owner",
						"offset": 0,
						"slot": "1",
						"type": "t_address"
					},
					{
						"astId": 798,
						"contract": "contracts/Staking.sol:Staking",
						"label": "stakingPackage",
						"offset": 0,
						"slot": "2",
						"type": "t_mapping(t_uint256,t_uint256)"
					},
					{
						"astId": 800,
						"contract": "contracts/Staking.sol:Staking",
						"label": "stakingPenaltyRate",
						"offset": 0,
						"slot": "3",
						"type": "t_uint256"
					},
					{
						"astId": 802,
						"contract": "contracts/Staking.sol:Staking",
						"label": "airdropRate",
						"offset": 0,
						"slot": "4",
						"type": "t_uint256"
					},
					{
						"astId": 804,
						"contract": "contracts/Staking.sol:Staking",
						"label": "airdropSince",
						"offset": 0,
						"slot": "5",
						"type": "t_uint256"
					},
					{
						"astId": 806,
						"contract": "contracts/Staking.sol:Staking",
						"label": "airdropStatus",
						"offset": 0,
						"slot": "6",
						"type": "t_bool"
					},
					{
						"astId": 808,
						"contract": "contracts/Staking.sol:Staking",
						"label": "token_address",
						"offset": 1,
						"slot": "6",
						"type": "t_address"
					},
					{
						"astId": 873,
						"contract": "contracts/Staking.sol:Staking",
						"label": "stakeholders",
						"offset": 0,
						"slot": "7",
						"type": "t_mapping(t_address,t_struct(Stake)859_storage)"
					}
				],
				"types": {
					"t_address": {
						"encoding": "inplace",
						"label": "address",
						"numberOfBytes": "20"
					},
					"t_bool": {
						"encoding": "inplace",
						"label": "bool",
						"numberOfBytes": "1"
					},
					"t_mapping(t_address,t_struct(Stake)859_storage)": {
						"encoding": "mapping",
						"key": "t_address",
						"label": "mapping(address => struct Staking.Stake)",
						"numberOfBytes": "32",
						"value": "t_struct(Stake)859_storage"
					},
					"t_mapping(t_uint256,t_uint256)": {
						"encoding": "mapping",
						"key": "t_uint256",
						"label": "mapping(uint256 => uint256)",
						"numberOfBytes": "32",
						"value": "t_uint256"
					},
					"t_struct(Stake)859_storage": {
						"encoding": "inplace",
						"label": "struct Staking.Stake",
						"members": [
							{
								"astId": 846,
								"contract": "contracts/Staking.sol:Staking",
								"label": "amount",
								"offset": 0,
								"slot": "0",
								"type": "t_uint256"
							},
							{
								"astId": 848,
								"contract": "contracts/Staking.sol:Staking",
								"label": "since",
								"offset": 0,
								"slot": "1",
								"type": "t_uint256"
							},
							{
								"astId": 850,
								"contract": "contracts/Staking.sol:Staking",
								"label": "rewardAPY",
								"offset": 0,
								"slot": "2",
								"type": "t_uint256"
							},
							{
								"astId": 852,
								"contract": "contracts/Staking.sol:Staking",
								"label": "releaseTime",
								"offset": 0,
								"slot": "3",
								"type": "t_uint256"
							},
							{
								"astId": 854,
								"contract": "contracts/Staking.sol:Staking",
								"label": "claimable",
								"offset": 0,
								"slot": "4",
								"type": "t_uint256"
							},
							{
								"astId": 856,
								"contract": "contracts/Staking.sol:Staking",
								"label": "claimableAirdrop",
								"offset": 0,
								"slot": "5",
								"type": "t_uint256"
							},
							{
								"astId": 858,
								"contract": "contracts/Staking.sol:Staking",
								"label": "latestClaimDrop",
								"offset": 0,
								"slot": "6",
								"type": "t_uint256"
							}
						],
						"numberOfBytes": "224"
					},
					"t_uint256": {
						"encoding": "inplace",
						"label": "uint256",
						"numberOfBytes": "32"
					}
				}
			},
			"userdoc": {
				"errors": {
					"Airdrop__notStarted()": [
						{
							"notice": "Error handling message for Airdrop functions"
						}
					]
				},
				"events": {
					"Staked(address,uint256,uint256,uint256)": {
						"notice": "Staked event is triggered whenever a user stakes tokens, address is indexed to make it filterable"
					}
				},
				"kind": "user",
				"methods": {
					"stake(uint256,uint256)": {
						"notice": "_Stake is used to make a stake for an sender. It will remove the amount staked from the stakers account and place those tokens inside a stake container StakeID"
					},
					"withdrawStake()": {
						"notice": "withdrawStake takes in an amount and a index of the stake and will remove tokens from that stake Notice index of the stake is the users stake counter, starting at 0 for the first stake Will return the amount to MINT onto the account Will also _calculateStakeReward and reset timer"
					}
				},
				"version": 1
			}
		}
	}
}