{
	"contracts/Stakable-2.0.sol": {
		"Staking": {
			"abi": [
				{
					"inputs": [
						{
							"internalType": "address",
							"name": "token",
							"type": "address"
						}
					],
					"stateMutability": "nonpayable",
					"type": "constructor"
				},
				{
					"inputs": [],
					"name": "Airdrop__claimableOnceAWeek",
					"type": "error"
				},
				{
					"inputs": [],
					"name": "Function__notAVoter",
					"type": "error"
				},
				{
					"inputs": [],
					"name": "Function__votingNotAvailable",
					"type": "error"
				},
				{
					"inputs": [],
					"name": "Staking__airdropExceed20Percent",
					"type": "error"
				},
				{
					"inputs": [],
					"name": "Staking__cannotStakeNothing",
					"type": "error"
				},
				{
					"inputs": [],
					"name": "Staking__noStakingFound",
					"type": "error"
				},
				{
					"inputs": [],
					"name": "Staking__penaltyExceed3Percent",
					"type": "error"
				},
				{
					"inputs": [],
					"name": "Staking__userIsStaker",
					"type": "error"
				},
				{
					"inputs": [],
					"name": "Staking_noStakingPackageFound",
					"type": "error"
				},
				{
					"inputs": [],
					"name": "Voting__alreadyVoted",
					"type": "error"
				},
				{
					"inputs": [],
					"name": "Voting__notEnoughVoters",
					"type": "error"
				},
				{
					"inputs": [],
					"name": "Voting__notYetVoted",
					"type": "error"
				},
				{
					"inputs": [],
					"name": "Voting__votingIsRunning",
					"type": "error"
				},
				{
					"anonymous": false,
					"inputs": [
						{
							"indexed": false,
							"internalType": "uint256",
							"name": "amount",
							"type": "uint256"
						}
					],
					"name": "AirdropChanged",
					"type": "event"
				},
				{
					"anonymous": false,
					"inputs": [
						{
							"indexed": true,
							"internalType": "address",
							"name": "previousOwner",
							"type": "address"
						},
						{
							"indexed": true,
							"internalType": "address",
							"name": "newOwner",
							"type": "address"
						}
					],
					"name": "OwnershipTransferred",
					"type": "event"
				},
				{
					"anonymous": false,
					"inputs": [
						{
							"indexed": false,
							"internalType": "uint256",
							"name": "amount",
							"type": "uint256"
						}
					],
					"name": "PenaltyChanged",
					"type": "event"
				},
				{
					"anonymous": false,
					"inputs": [
						{
							"indexed": true,
							"internalType": "address",
							"name": "user",
							"type": "address"
						},
						{
							"indexed": false,
							"internalType": "uint256",
							"name": "amount",
							"type": "uint256"
						},
						{
							"indexed": false,
							"internalType": "uint256",
							"name": "timestamp",
							"type": "uint256"
						},
						{
							"indexed": false,
							"internalType": "uint256",
							"name": "releaseTime",
							"type": "uint256"
						}
					],
					"name": "Staked",
					"type": "event"
				},
				{
					"inputs": [],
					"name": "_blockTimestamp",
					"outputs": [
						{
							"internalType": "uint256",
							"name": "",
							"type": "uint256"
						}
					],
					"stateMutability": "view",
					"type": "function"
				},
				{
					"inputs": [],
					"name": "airdropRate",
					"outputs": [
						{
							"internalType": "uint256",
							"name": "",
							"type": "uint256"
						}
					],
					"stateMutability": "view",
					"type": "function"
				},
				{
					"inputs": [],
					"name": "airdropSince",
					"outputs": [
						{
							"internalType": "uint256",
							"name": "",
							"type": "uint256"
						}
					],
					"stateMutability": "view",
					"type": "function"
				},
				{
					"inputs": [
						{
							"internalType": "uint256",
							"name": "timestamp",
							"type": "uint256"
						}
					],
					"name": "calculateWeek",
					"outputs": [
						{
							"internalType": "uint256",
							"name": "",
							"type": "uint256"
						}
					],
					"stateMutability": "view",
					"type": "function"
				},
				{
					"inputs": [
						{
							"internalType": "uint256",
							"name": "amount",
							"type": "uint256"
						}
					],
					"name": "changeAirdropPercentage",
					"outputs": [],
					"stateMutability": "nonpayable",
					"type": "function"
				},
				{
					"inputs": [
						{
							"internalType": "uint256",
							"name": "amount",
							"type": "uint256"
						}
					],
					"name": "changePenaltyFee",
					"outputs": [],
					"stateMutability": "nonpayable",
					"type": "function"
				},
				{
					"inputs": [
						{
							"internalType": "address",
							"name": "user",
							"type": "address"
						}
					],
					"name": "claimAirdrop",
					"outputs": [],
					"stateMutability": "nonpayable",
					"type": "function"
				},
				{
					"inputs": [
						{
							"internalType": "address",
							"name": "user",
							"type": "address"
						}
					],
					"name": "getVoters",
					"outputs": [
						{
							"internalType": "bool",
							"name": "",
							"type": "bool"
						},
						{
							"internalType": "bool",
							"name": "",
							"type": "bool"
						}
					],
					"stateMutability": "view",
					"type": "function"
				},
				{
					"inputs": [],
					"name": "getVotingResult",
					"outputs": [
						{
							"internalType": "bool",
							"name": "",
							"type": "bool"
						}
					],
					"stateMutability": "view",
					"type": "function"
				},
				{
					"inputs": [],
					"name": "hasStake",
					"outputs": [
						{
							"components": [
								{
									"internalType": "uint256",
									"name": "total_amount",
									"type": "uint256"
								},
								{
									"internalType": "uint256",
									"name": "penalty",
									"type": "uint256"
								},
								{
									"components": [
										{
											"internalType": "uint256",
											"name": "amount",
											"type": "uint256"
										},
										{
											"internalType": "uint256",
											"name": "since",
											"type": "uint256"
										},
										{
											"internalType": "uint256",
											"name": "rewardAPY",
											"type": "uint256"
										},
										{
											"internalType": "uint256",
											"name": "releaseTime",
											"type": "uint256"
										},
										{
											"internalType": "uint256",
											"name": "claimable",
											"type": "uint256"
										},
										{
											"internalType": "uint256",
											"name": "claimableAirdrop",
											"type": "uint256"
										},
										{
											"internalType": "uint256",
											"name": "latestClaimDrop",
											"type": "uint256"
										}
									],
									"internalType": "struct Staking.Stake",
									"name": "stake",
									"type": "tuple"
								}
							],
							"internalType": "struct Staking.StakingSummary",
							"name": "",
							"type": "tuple"
						}
					],
					"stateMutability": "view",
					"type": "function"
				},
				{
					"inputs": [],
					"name": "owner",
					"outputs": [
						{
							"internalType": "address",
							"name": "",
							"type": "address"
						}
					],
					"stateMutability": "view",
					"type": "function"
				},
				{
					"inputs": [],
					"name": "renounceOwnership",
					"outputs": [],
					"stateMutability": "nonpayable",
					"type": "function"
				},
				{
					"inputs": [],
					"name": "retractVote",
					"outputs": [],
					"stateMutability": "nonpayable",
					"type": "function"
				},
				{
					"inputs": [
						{
							"internalType": "address",
							"name": "user",
							"type": "address"
						},
						{
							"internalType": "uint256",
							"name": "amount",
							"type": "uint256"
						},
						{
							"internalType": "uint256",
							"name": "stakePeriod",
							"type": "uint256"
						}
					],
					"name": "stake",
					"outputs": [],
					"stateMutability": "nonpayable",
					"type": "function"
				},
				{
					"inputs": [],
					"name": "stakingPenaltyRate",
					"outputs": [
						{
							"internalType": "uint256",
							"name": "",
							"type": "uint256"
						}
					],
					"stateMutability": "view",
					"type": "function"
				},
				{
					"inputs": [],
					"name": "startAirdrop",
					"outputs": [],
					"stateMutability": "nonpayable",
					"type": "function"
				},
				{
					"inputs": [],
					"name": "startVoting",
					"outputs": [],
					"stateMutability": "nonpayable",
					"type": "function"
				},
				{
					"inputs": [],
					"name": "stopVoting",
					"outputs": [],
					"stateMutability": "nonpayable",
					"type": "function"
				},
				{
					"inputs": [],
					"name": "token_address",
					"outputs": [
						{
							"internalType": "address",
							"name": "",
							"type": "address"
						}
					],
					"stateMutability": "view",
					"type": "function"
				},
				{
					"inputs": [],
					"name": "totalVoters",
					"outputs": [
						{
							"internalType": "uint256",
							"name": "",
							"type": "uint256"
						}
					],
					"stateMutability": "view",
					"type": "function"
				},
				{
					"inputs": [
						{
							"internalType": "address",
							"name": "newOwner",
							"type": "address"
						}
					],
					"name": "transferOwnership",
					"outputs": [],
					"stateMutability": "nonpayable",
					"type": "function"
				},
				{
					"inputs": [],
					"name": "vote",
					"outputs": [],
					"stateMutability": "nonpayable",
					"type": "function"
				},
				{
					"inputs": [
						{
							"internalType": "uint256",
							"name": "",
							"type": "uint256"
						}
					],
					"name": "votedUsers",
					"outputs": [
						{
							"internalType": "uint256",
							"name": "",
							"type": "uint256"
						}
					],
					"stateMutability": "view",
					"type": "function"
				},
				{
					"inputs": [
						{
							"internalType": "address",
							"name": "",
							"type": "address"
						}
					],
					"name": "voters",
					"outputs": [
						{
							"internalType": "bool",
							"name": "votingRight",
							"type": "bool"
						}
					],
					"stateMutability": "view",
					"type": "function"
				},
				{
					"inputs": [],
					"name": "withdrawStake",
					"outputs": [],
					"stateMutability": "nonpayable",
					"type": "function"
				}
			],
			"devdoc": {
				"kind": "dev",
				"methods": {
					"owner()": {
						"details": "Returns the address of the current owner."
					},
					"renounceOwnership()": {
						"details": "Leaves the contract without owner. It will not be possible to call `onlyOwner` functions anymore. Can only be called by the current owner. NOTE: Renouncing ownership will leave the contract without an owner, thereby removing any functionality that is only available to the owner."
					},
					"transferOwnership(address)": {
						"details": "Transfers ownership of the contract to a new account (`newOwner`). Can only be called by the current owner."
					}
				},
				"version": 1
			},
			"evm": {
				"assembly": "    /* \"contracts/Stakable-2.0.sol\":980:12683  contract Staking is ReentrancyGuard, Ownable {... */\n  mstore(0x40, 0x80)\n    /* \"contracts/Stakable-2.0.sol\":1680:1981  constructor(address token) {... */\n  callvalue\n  dup1\n  iszero\n  tag_1\n  jumpi\n  0x00\n  dup1\n  revert\ntag_1:\n  pop\n  mload(0x40)\n  sub(codesize, bytecodeSize)\n  dup1\n  bytecodeSize\n  dup4\n  codecopy\n  dup2\n  add\n  0x40\n  dup2\n  swap1\n  mstore\n  tag_2\n  swap2\n  tag_3\n  jump\t// in\ntag_2:\n    /* \"@openzeppelin/contracts/security/ReentrancyGuard.sol\":1701:1702  1 */\n  0x01\n    /* \"@openzeppelin/contracts/security/ReentrancyGuard.sol\":1806:1813  _status */\n  0x00\n    /* \"@openzeppelin/contracts/security/ReentrancyGuard.sol\":1806:1828  _status = _NOT_ENTERED */\n  sstore\n    /* \"@openzeppelin/contracts/access/Ownable.sol\":921:953  _transferOwnership(_msgSender()) */\n  tag_9\n    /* \"@openzeppelin/contracts/utils/Context.sol\":719:729  msg.sender */\n  caller\n    /* \"@openzeppelin/contracts/access/Ownable.sol\":921:939  _transferOwnership */\n  tag_12\n    /* \"@openzeppelin/contracts/access/Ownable.sol\":921:953  _transferOwnership(_msgSender()) */\n  jump\t// in\ntag_9:\n    /* \"contracts/Stakable-2.0.sol\":1800:1802  15 */\n  0x0f\n    /* \"contracts/Stakable-2.0.sol\":1779:1797  stakingPenaltyRate */\n  0x03\n    /* \"contracts/Stakable-2.0.sol\":1779:1802  stakingPenaltyRate = 15 */\n  sstore\n    /* \"contracts/Stakable-2.0.sol\":1826:1828  80 */\n  0x50\n    /* \"contracts/Stakable-2.0.sol\":1812:1823  airdropRate */\n  0x04\n    /* \"contracts/Stakable-2.0.sol\":1812:1828  airdropRate = 80 */\n  sstore\n    /* \"contracts/Stakable-2.0.sol\":1839:1852  token_address */\n  0x0b\n    /* \"contracts/Stakable-2.0.sol\":1839:1860  token_address = token */\n  dup1\n  sload\n  not(sub(shl(0xa0, 0x01), 0x01))\n  and\n  sub(shl(0xa0, 0x01), 0x01)\n  swap3\n  swap1\n  swap3\n  and\n  swap2\n  swap1\n  swap2\n  or\n  swap1\n  sstore\n    /* \"contracts/Stakable-2.0.sol\":1871:1885  stakingPackage */\n  0x02\n    /* \"contracts/Stakable-2.0.sol\":1871:1894  stakingPackage[90 days] */\n  0x20\n  mstore\n    /* \"contracts/Stakable-2.0.sol\":1897:1898  6 */\n  0x06\n    /* \"contracts/Stakable-2.0.sol\":1871:1894  stakingPackage[90 days] */\n  0xa1ef5b42f18533d67a183a193ea6c3fabfaa3bdabc3fc0e3f65b19b517df6e8c\n    /* \"contracts/Stakable-2.0.sol\":1871:1898  stakingPackage[90 days] = 6 */\n  sstore\n    /* \"contracts/Stakable-2.0.sol\":1935:1936  7 */\n  0x07\n    /* \"contracts/Stakable-2.0.sol\":1908:1932  stakingPackage[180 days] */\n  0x089cfcbf844e824feee5f634cbc488382291f3c9e0de5905f3c30812390dd832\n    /* \"contracts/Stakable-2.0.sol\":1908:1936  stakingPackage[180 days] = 7 */\n  sstore\n    /* \"contracts/Stakable-2.0.sol\":1961:1969  365 days */\n  0x01e13380\n  0x00\n    /* \"contracts/Stakable-2.0.sol\":1946:1970  stakingPackage[365 days] */\n  mstore\n    /* \"contracts/Stakable-2.0.sol\":1973:1974  8 */\n  0x08\n    /* \"contracts/Stakable-2.0.sol\":1946:1970  stakingPackage[365 days] */\n  0xdc083eb4da7563bbd761324b5158d9d40af7c7174afe39b0b31a7577c44fc33b\n    /* \"contracts/Stakable-2.0.sol\":1946:1974  stakingPackage[365 days] = 8 */\n  sstore\n    /* \"contracts/Stakable-2.0.sol\":980:12683  contract Staking is ReentrancyGuard, Ownable {... */\n  jump(tag_17)\n    /* \"@openzeppelin/contracts/access/Ownable.sol\":2270:2457  function _transferOwnership(address newOwner) internal virtual {... */\ntag_12:\n    /* \"@openzeppelin/contracts/access/Ownable.sol\":2362:2368  _owner */\n  0x01\n  dup1\n  sload\n  sub(shl(0xa0, 0x01), 0x01)\n    /* \"@openzeppelin/contracts/access/Ownable.sol\":2378:2395  _owner = newOwner */\n  dup4\n  dup2\n  and\n  not(sub(shl(0xa0, 0x01), 0x01))\n  dup4\n  and\n  dup2\n  or\n  swap1\n  swap4\n  sstore\n    /* \"@openzeppelin/contracts/access/Ownable.sol\":2410:2450  OwnershipTransferred(oldOwner, newOwner) */\n  mload(0x40)\n    /* \"@openzeppelin/contracts/access/Ownable.sol\":2362:2368  _owner */\n  swap2\n  and\n  swap2\n    /* \"@openzeppelin/contracts/access/Ownable.sol\":2378:2395  _owner = newOwner */\n  swap1\n    /* \"@openzeppelin/contracts/access/Ownable.sol\":2362:2368  _owner */\n  dup3\n  swap1\n    /* \"@openzeppelin/contracts/access/Ownable.sol\":2410:2450  OwnershipTransferred(oldOwner, newOwner) */\n  0x8be0079c531659141344cd1fd0a4f28419497f9722a3daafe3b4186f6b6457e0\n  swap1\n    /* \"@openzeppelin/contracts/access/Ownable.sol\":2343:2359  address oldOwner */\n  0x00\n  swap1\n    /* \"@openzeppelin/contracts/access/Ownable.sol\":2410:2450  OwnershipTransferred(oldOwner, newOwner) */\n  log3\n    /* \"@openzeppelin/contracts/access/Ownable.sol\":2333:2457  {... */\n  pop\n    /* \"@openzeppelin/contracts/access/Ownable.sol\":2270:2457  function _transferOwnership(address newOwner) internal virtual {... */\n  pop\n  jump\t// out\n    /* \"#utility.yul\":14:304   */\ntag_3:\n    /* \"#utility.yul\":84:90   */\n  0x00\n    /* \"#utility.yul\":137:139   */\n  0x20\n    /* \"#utility.yul\":125:134   */\n  dup3\n    /* \"#utility.yul\":116:123   */\n  dup5\n    /* \"#utility.yul\":112:135   */\n  sub\n    /* \"#utility.yul\":108:140   */\n  slt\n    /* \"#utility.yul\":105:157   */\n  iszero\n  tag_19\n  jumpi\n    /* \"#utility.yul\":153:154   */\n  0x00\n    /* \"#utility.yul\":150:151   */\n  dup1\n    /* \"#utility.yul\":143:155   */\n  revert\n    /* \"#utility.yul\":105:157   */\ntag_19:\n    /* \"#utility.yul\":179:195   */\n  dup2\n  mload\n  sub(shl(0xa0, 0x01), 0x01)\n    /* \"#utility.yul\":224:255   */\n  dup2\n  and\n    /* \"#utility.yul\":214:256   */\n  dup2\n  eq\n    /* \"#utility.yul\":204:274   */\n  tag_20\n  jumpi\n    /* \"#utility.yul\":270:271   */\n  0x00\n    /* \"#utility.yul\":267:268   */\n  dup1\n    /* \"#utility.yul\":260:272   */\n  revert\n    /* \"#utility.yul\":204:274   */\ntag_20:\n    /* \"#utility.yul\":293:298   */\n  swap4\n    /* \"#utility.yul\":14:304   */\n  swap3\n  pop\n  pop\n  pop\n  jump\t// out\ntag_17:\n    /* \"contracts/Stakable-2.0.sol\":980:12683  contract Staking is ReentrancyGuard, Ownable {... */\n  dataSize(sub_0)\n  dup1\n  dataOffset(sub_0)\n  0x00\n  codecopy\n  0x00\n  return\nstop\n\nsub_0: assembly {\n        /* \"contracts/Stakable-2.0.sol\":980:12683  contract Staking is ReentrancyGuard, Ownable {... */\n      mstore(0x40, 0x80)\n      callvalue\n      dup1\n      iszero\n      tag_1\n      jumpi\n      0x00\n      dup1\n      revert\n    tag_1:\n      pop\n      jumpi(tag_2, lt(calldatasize, 0x04))\n      shr(0xe0, calldataload(0x00))\n      dup1\n      0x8c8e8fee\n      gt\n      tag_28\n      jumpi\n      dup1\n      0xbed9d861\n      gt\n      tag_29\n      jumpi\n      dup1\n      0xd2a569c3\n      gt\n      tag_30\n      jumpi\n      dup1\n      0xd2a569c3\n      eq\n      tag_24\n      jumpi\n      dup1\n      0xd5dbdf1b\n      eq\n      tag_25\n      jumpi\n      dup1\n      0xf2fde38b\n      eq\n      tag_26\n      jumpi\n      dup1\n      0xfab2f86b\n      eq\n      tag_27\n      jumpi\n      0x00\n      dup1\n      revert\n    tag_30:\n      dup1\n      0xbed9d861\n      eq\n      tag_21\n      jumpi\n      dup1\n      0xc63aa3e7\n      eq\n      tag_22\n      jumpi\n      dup1\n      0xcb79c2e1\n      eq\n      tag_23\n      jumpi\n      0x00\n      dup1\n      revert\n    tag_29:\n      dup1\n      0x8c8e8fee\n      eq\n      tag_15\n      jumpi\n      dup1\n      0x8da5cb5b\n      eq\n      tag_16\n      jumpi\n      dup1\n      0xa143a5f2\n      eq\n      tag_17\n      jumpi\n      dup1\n      0xa3ec138d\n      eq\n      tag_18\n      jumpi\n      dup1\n      0xb5d9df83\n      eq\n      tag_19\n      jumpi\n      dup1\n      0xb87da76d\n      eq\n      tag_20\n      jumpi\n      0x00\n      dup1\n      revert\n    tag_28:\n      dup1\n      0x632a9a52\n      gt\n      tag_31\n      jumpi\n      dup1\n      0x632a9a52\n      eq\n      tag_9\n      jumpi\n      dup1\n      0x65f8c6c5\n      eq\n      tag_10\n      jumpi\n      dup1\n      0x671d2b75\n      eq\n      tag_11\n      jumpi\n      dup1\n      0x715018a6\n      eq\n      tag_12\n      jumpi\n      dup1\n      0x8891cf0d\n      eq\n      tag_13\n      jumpi\n      dup1\n      0x8c63f97f\n      eq\n      tag_14\n      jumpi\n      0x00\n      dup1\n      revert\n    tag_31:\n      dup1\n      0x070c8b74\n      eq\n      tag_3\n      jumpi\n      dup1\n      0x0c51b88f\n      eq\n      tag_4\n      jumpi\n      dup1\n      0x10486b6a\n      eq\n      tag_5\n      jumpi\n      dup1\n      0x1ec6b60a\n      eq\n      tag_6\n      jumpi\n      dup1\n      0x2d15cc04\n      eq\n      tag_7\n      jumpi\n      dup1\n      0x5f5300ff\n      eq\n      tag_8\n      jumpi\n    tag_2:\n      0x00\n      dup1\n      revert\n        /* \"contracts/Stakable-2.0.sol\":11889:12167  function retractVote() public nonReentrant votingStatusTrue isVoter {... */\n    tag_3:\n      tag_32\n      tag_33\n      jump\t// in\n    tag_32:\n      stop\n        /* \"contracts/Stakable-2.0.sol\":4306:5733  function stake(... */\n    tag_4:\n      tag_32\n      tag_35\n      calldatasize\n      0x04\n      tag_36\n      jump\t// in\n    tag_35:\n      tag_37\n      jump\t// in\n        /* \"contracts/Stakable-2.0.sol\":8536:9560  function hasStake() external view returns (StakingSummary memory) {... */\n    tag_5:\n      tag_38\n      tag_39\n      jump\t// in\n    tag_38:\n      mload(0x40)\n      tag_40\n      swap2\n      swap1\n        /* \"#utility.yul\":673:677   */\n      0x00\n        /* \"#utility.yul\":715:718   */\n      0x0120\n        /* \"#utility.yul\":704:713   */\n      dup3\n        /* \"#utility.yul\":700:719   */\n      add\n        /* \"#utility.yul\":692:719   */\n      swap1\n      pop\n        /* \"#utility.yul\":752:758   */\n      dup3\n        /* \"#utility.yul\":746:759   */\n      mload\n        /* \"#utility.yul\":735:744   */\n      dup3\n        /* \"#utility.yul\":728:760   */\n      mstore\n        /* \"#utility.yul\":816:820   */\n      0x20\n        /* \"#utility.yul\":808:814   */\n      dup4\n        /* \"#utility.yul\":804:821   */\n      add\n        /* \"#utility.yul\":798:822   */\n      mload\n        /* \"#utility.yul\":791:795   */\n      0x20\n        /* \"#utility.yul\":780:789   */\n      dup4\n        /* \"#utility.yul\":776:796   */\n      add\n        /* \"#utility.yul\":769:823   */\n      mstore\n        /* \"#utility.yul\":870:874   */\n      0x40\n        /* \"#utility.yul\":862:868   */\n      dup4\n        /* \"#utility.yul\":858:875   */\n      add\n        /* \"#utility.yul\":852:876   */\n      mload\n        /* \"#utility.yul\":920:932   */\n      dup1\n        /* \"#utility.yul\":914:933   */\n      mload\n        /* \"#utility.yul\":907:911   */\n      0x40\n        /* \"#utility.yul\":896:905   */\n      dup5\n        /* \"#utility.yul\":892:912   */\n      add\n        /* \"#utility.yul\":885:934   */\n      mstore\n        /* \"#utility.yul\":994:998   */\n      0x20\n        /* \"#utility.yul\":980:992   */\n      dup2\n        /* \"#utility.yul\":976:999   */\n      add\n        /* \"#utility.yul\":970:1000   */\n      mload\n        /* \"#utility.yul\":965:967   */\n      0x60\n        /* \"#utility.yul\":954:963   */\n      dup5\n        /* \"#utility.yul\":950:968   */\n      add\n        /* \"#utility.yul\":943:1001   */\n      mstore\n        /* \"#utility.yul\":1062:1066   */\n      0x40\n        /* \"#utility.yul\":1048:1060   */\n      dup2\n        /* \"#utility.yul\":1044:1067   */\n      add\n        /* \"#utility.yul\":1038:1068   */\n      mload\n        /* \"#utility.yul\":1032:1035   */\n      0x80\n        /* \"#utility.yul\":1021:1030   */\n      dup5\n        /* \"#utility.yul\":1017:1036   */\n      add\n        /* \"#utility.yul\":1010:1069   */\n      mstore\n        /* \"#utility.yul\":1130:1132   */\n      0x60\n        /* \"#utility.yul\":1116:1128   */\n      dup2\n        /* \"#utility.yul\":1112:1133   */\n      add\n        /* \"#utility.yul\":1106:1134   */\n      mload\n        /* \"#utility.yul\":1100:1103   */\n      0xa0\n        /* \"#utility.yul\":1089:1098   */\n      dup5\n        /* \"#utility.yul\":1085:1104   */\n      add\n        /* \"#utility.yul\":1078:1135   */\n      mstore\n        /* \"#utility.yul\":1196:1199   */\n      0x80\n        /* \"#utility.yul\":1182:1194   */\n      dup2\n        /* \"#utility.yul\":1178:1200   */\n      add\n        /* \"#utility.yul\":1172:1201   */\n      mload\n        /* \"#utility.yul\":1166:1169   */\n      0xc0\n        /* \"#utility.yul\":1155:1164   */\n      dup5\n        /* \"#utility.yul\":1151:1170   */\n      add\n        /* \"#utility.yul\":1144:1202   */\n      mstore\n        /* \"#utility.yul\":1263:1266   */\n      0xa0\n        /* \"#utility.yul\":1249:1261   */\n      dup2\n        /* \"#utility.yul\":1245:1267   */\n      add\n        /* \"#utility.yul\":1239:1268   */\n      mload\n        /* \"#utility.yul\":1233:1236   */\n      0xe0\n        /* \"#utility.yul\":1222:1231   */\n      dup5\n        /* \"#utility.yul\":1218:1237   */\n      add\n        /* \"#utility.yul\":1211:1269   */\n      mstore\n        /* \"#utility.yul\":1330:1333   */\n      0xc0\n        /* \"#utility.yul\":1316:1328   */\n      dup2\n        /* \"#utility.yul\":1312:1334   */\n      add\n        /* \"#utility.yul\":1306:1335   */\n      mload\n        /* \"#utility.yul\":1300:1303   */\n      0x0100\n        /* \"#utility.yul\":1289:1298   */\n      dup5\n        /* \"#utility.yul\":1285:1304   */\n      add\n        /* \"#utility.yul\":1278:1336   */\n      mstore\n      pop\n        /* \"#utility.yul\":519:1342   */\n      swap3\n      swap2\n      pop\n      pop\n      jump\n        /* \"contracts/Stakable-2.0.sol\":8536:9560  function hasStake() external view returns (StakingSummary memory) {... */\n    tag_40:\n      mload(0x40)\n      dup1\n      swap2\n      sub\n      swap1\n      return\n        /* \"contracts/Stakable-2.0.sol\":11398:11608  function startVoting() external nonReentrant onlyOwner {... */\n    tag_6:\n      tag_32\n      tag_43\n      jump\t// in\n        /* \"contracts/Stakable-2.0.sol\":11183:11332  function getVoters(address user) external view returns (bool, bool) {... */\n    tag_7:\n      tag_44\n      tag_45\n      calldatasize\n      0x04\n      tag_46\n      jump\t// in\n    tag_45:\n      sub(shl(0xa0, 0x01), 0x01)\n        /* \"contracts/Stakable-2.0.sol\":11269:11281  voters[user] */\n      and\n        /* \"contracts/Stakable-2.0.sol\":11239:11243  bool */\n      0x00\n        /* \"contracts/Stakable-2.0.sol\":11269:11281  voters[user] */\n      swap1\n      dup2\n      mstore\n        /* \"contracts/Stakable-2.0.sol\":11269:11275  voters */\n      0x09\n        /* \"contracts/Stakable-2.0.sol\":11269:11281  voters[user] */\n      0x20\n      swap1\n      dup2\n      mstore\n      0x40\n      dup1\n      dup4\n      keccak256\n        /* \"contracts/Stakable-2.0.sol\":11269:11293  voters[user].votingRight */\n      dup1\n      sload\n        /* \"contracts/Stakable-2.0.sol\":11314:11323  _votingId */\n      sload(0x07)\n        /* \"contracts/Stakable-2.0.sol\":11295:11324  voters[user].voted[_votingId] */\n      dup6\n      mstore\n        /* \"contracts/Stakable-2.0.sol\":11269:11293  voters[user].votingRight */\n      0x01\n        /* \"contracts/Stakable-2.0.sol\":11295:11313  voters[user].voted */\n      swap1\n      swap2\n      add\n        /* \"contracts/Stakable-2.0.sol\":11295:11324  voters[user].voted[_votingId] */\n      swap1\n      swap3\n      mstore\n      swap1\n      swap2\n      keccak256\n      sload\n        /* \"contracts/Stakable-2.0.sol\":11269:11293  voters[user].votingRight */\n      0xff\n      swap2\n      dup3\n      and\n      swap3\n        /* \"contracts/Stakable-2.0.sol\":11295:11324  voters[user].voted[_votingId] */\n      swap2\n      and\n      swap1\n        /* \"contracts/Stakable-2.0.sol\":11183:11332  function getVoters(address user) external view returns (bool, bool) {... */\n      jump\n    tag_44:\n      0x40\n      dup1\n      mload\n        /* \"#utility.yul\":1725:1739   */\n      swap3\n      iszero\n        /* \"#utility.yul\":1718:1740   */\n      iszero\n        /* \"#utility.yul\":1700:1741   */\n      dup4\n      mstore\n        /* \"#utility.yul\":1784:1798   */\n      swap1\n      iszero\n        /* \"#utility.yul\":1777:1799   */\n      iszero\n        /* \"#utility.yul\":1772:1774   */\n      0x20\n        /* \"#utility.yul\":1757:1775   */\n      dup4\n      add\n        /* \"#utility.yul\":1750:1800   */\n      mstore\n        /* \"#utility.yul\":1673:1691   */\n      add\n        /* \"contracts/Stakable-2.0.sol\":11183:11332  function getVoters(address user) external view returns (bool, bool) {... */\n      tag_40\n        /* \"#utility.yul\":1538:1806   */\n      jump\n        /* \"contracts/Stakable-2.0.sol\":1516:1542  uint256 public totalVoters */\n    tag_8:\n      tag_50\n      sload(0x08)\n      dup2\n      jump\n    tag_50:\n      mload(0x40)\n        /* \"#utility.yul\":1957:1982   */\n      swap1\n      dup2\n      mstore\n        /* \"#utility.yul\":1945:1947   */\n      0x20\n        /* \"#utility.yul\":1930:1948   */\n      add\n        /* \"contracts/Stakable-2.0.sol\":1516:1542  uint256 public totalVoters */\n      tag_40\n        /* \"#utility.yul\":1811:1988   */\n      jump\n        /* \"contracts/Stakable-2.0.sol\":11614:11883  function vote() public nonReentrant votingStatusTrue isVoter {... */\n    tag_9:\n      tag_32\n      tag_55\n      jump\t// in\n        /* \"contracts/Stakable-2.0.sol\":10435:11028  function claimAirdrop(address user) external {... */\n    tag_10:\n      tag_32\n      tag_57\n      calldatasize\n      0x04\n      tag_46\n      jump\t// in\n    tag_57:\n      tag_58\n      jump\t// in\n        /* \"contracts/Stakable-2.0.sol\":12173:12579  function getVotingResult()... */\n    tag_11:\n      tag_59\n      tag_60\n      jump\t// in\n    tag_59:\n      mload(0x40)\n        /* \"#utility.yul\":2158:2172   */\n      swap1\n      iszero\n        /* \"#utility.yul\":2151:2173   */\n      iszero\n        /* \"#utility.yul\":2133:2174   */\n      dup2\n      mstore\n        /* \"#utility.yul\":2121:2123   */\n      0x20\n        /* \"#utility.yul\":2106:2124   */\n      add\n        /* \"contracts/Stakable-2.0.sol\":12173:12579  function getVotingResult()... */\n      tag_40\n        /* \"#utility.yul\":1993:2180   */\n      jump\n        /* \"@openzeppelin/contracts/access/Ownable.sol\":1668:1769  function renounceOwnership() public virtual onlyOwner {... */\n    tag_12:\n      tag_32\n      tag_64\n      jump\t// in\n        /* \"contracts/Stakable-2.0.sol\":1385:1411  uint256 public airdropRate */\n    tag_13:\n      tag_50\n      sload(0x04)\n      dup2\n      jump\n        /* \"contracts/Stakable-2.0.sol\":5739:6045  function changePenaltyFee(uint256 amount) external onlyOwner {... */\n    tag_14:\n      tag_32\n      tag_69\n      calldatasize\n      0x04\n      tag_70\n      jump\t// in\n    tag_69:\n      tag_71\n      jump\t// in\n        /* \"contracts/Stakable-2.0.sol\":1645:1673  address public token_address */\n    tag_15:\n      sload(0x0b)\n      tag_72\n      swap1\n      sub(shl(0xa0, 0x01), 0x01)\n      and\n      dup2\n      jump\n    tag_72:\n      mload(0x40)\n      sub(shl(0xa0, 0x01), 0x01)\n        /* \"#utility.yul\":2534:2566   */\n      swap1\n      swap2\n      and\n        /* \"#utility.yul\":2516:2567   */\n      dup2\n      mstore\n        /* \"#utility.yul\":2504:2506   */\n      0x20\n        /* \"#utility.yul\":2489:2507   */\n      add\n        /* \"contracts/Stakable-2.0.sol\":1645:1673  address public token_address */\n      tag_40\n        /* \"#utility.yul\":2370:2573   */\n      jump\n        /* \"@openzeppelin/contracts/access/Ownable.sol\":1036:1121  function owner() public view virtual returns (address) {... */\n    tag_16:\n        /* \"@openzeppelin/contracts/access/Ownable.sol\":1108:1114  _owner */\n      and(sub(shl(0xa0, 0x01), 0x01), sload(0x01))\n        /* \"@openzeppelin/contracts/access/Ownable.sol\":1036:1121  function owner() public view virtual returns (address) {... */\n      jump(tag_72)\n        /* \"contracts/Stakable-2.0.sol\":1593:1638  mapping(uint256 => uint256) public votedUsers */\n    tag_17:\n      tag_50\n      tag_80\n      calldatasize\n      0x04\n      tag_70\n      jump\t// in\n    tag_80:\n      mstore(0x20, 0x0a)\n      0x00\n      swap1\n      dup2\n      mstore\n      0x40\n      swap1\n      keccak256\n      sload\n      dup2\n      jump\n        /* \"contracts/Stakable-2.0.sol\":1548:1587  mapping(address => Voter) public voters */\n    tag_18:\n      tag_59\n      tag_84\n      calldatasize\n      0x04\n      tag_46\n      jump\t// in\n    tag_84:\n      mstore(0x20, 0x09)\n      0x00\n      swap1\n      dup2\n      mstore\n      0x40\n      swap1\n      keccak256\n      sload\n      0xff\n      and\n      dup2\n      jump\n        /* \"contracts/Stakable-2.0.sol\":10110:10244  function calculateWeek(uint256 timestamp) public view returns (uint256) {... */\n    tag_19:\n      tag_50\n      tag_88\n      calldatasize\n      0x04\n      tag_70\n      jump\t// in\n    tag_88:\n      tag_89\n      jump\t// in\n        /* \"contracts/Stakable-2.0.sol\":1417:1444  uint256 public airdropSince */\n    tag_20:\n      tag_50\n      sload(0x05)\n      dup2\n      jump\n        /* \"contracts/Stakable-2.0.sol\":7546:8530  function withdrawStake() external nonReentrant {... */\n    tag_21:\n      tag_32\n      tag_95\n      jump\t// in\n        /* \"contracts/Stakable-2.0.sol\":10008:10104  function _blockTimestamp() public view returns (uint256) {... */\n    tag_22:\n        /* \"contracts/Stakable-2.0.sol\":10082:10097  block.timestamp */\n      timestamp\n        /* \"contracts/Stakable-2.0.sol\":10008:10104  function _blockTimestamp() public view returns (uint256) {... */\n      jump(tag_50)\n        /* \"contracts/Stakable-2.0.sol\":1346:1379  uint256 public stakingPenaltyRate */\n    tag_23:\n      tag_50\n      sload(0x03)\n      dup2\n      jump\n        /* \"contracts/Stakable-2.0.sol\":9672:9762  function startAirdrop() external onlyOwner {... */\n    tag_24:\n      tag_32\n      tag_103\n      jump\t// in\n        /* \"contracts/Stakable-2.0.sol\":9768:10002  function changeAirdropPercentage(uint256 amount) external onlyOwner {... */\n    tag_25:\n      tag_32\n      tag_105\n      calldatasize\n      0x04\n      tag_70\n      jump\t// in\n    tag_105:\n      tag_106\n      jump\t// in\n        /* \"@openzeppelin/contracts/access/Ownable.sol\":1918:2116  function transferOwnership(address newOwner) public virtual onlyOwner {... */\n    tag_26:\n      tag_32\n      tag_108\n      calldatasize\n      0x04\n      tag_46\n      jump\t// in\n    tag_108:\n      tag_109\n      jump\t// in\n        /* \"contracts/Stakable-2.0.sol\":12585:12681  function stopVoting() external onlyOwner votingStatusTrue {... */\n    tag_27:\n      tag_32\n      tag_111\n      jump\t// in\n        /* \"contracts/Stakable-2.0.sol\":11889:12167  function retractVote() public nonReentrant votingStatusTrue isVoter {... */\n    tag_33:\n        /* \"@openzeppelin/contracts/security/ReentrancyGuard.sol\":1744:1745  2 */\n      0x02\n        /* \"@openzeppelin/contracts/security/ReentrancyGuard.sol\":2325:2332  _status */\n      sload(0x00)\n        /* \"@openzeppelin/contracts/security/ReentrancyGuard.sol\":2325:2344  _status != _ENTERED */\n      eq\n      iszero\n        /* \"@openzeppelin/contracts/security/ReentrancyGuard.sol\":2317:2380  require(_status != _ENTERED, \"ReentrancyGuard: reentrant call\") */\n      tag_113\n      jumpi\n      mload(0x40)\n      shl(0xe5, 0x461bcd)\n      dup2\n      mstore\n      0x04\n      add\n      tag_114\n      swap1\n      tag_115\n      jump\t// in\n    tag_114:\n      mload(0x40)\n      dup1\n      swap2\n      sub\n      swap1\n      revert\n    tag_113:\n        /* \"@openzeppelin/contracts/security/ReentrancyGuard.sol\":1744:1745  2 */\n      0x02\n        /* \"@openzeppelin/contracts/security/ReentrancyGuard.sol\":2455:2462  _status */\n      0x00\n        /* \"@openzeppelin/contracts/security/ReentrancyGuard.sol\":2455:2473  _status = _ENTERED */\n      sstore\n        /* \"contracts/Stakable-2.0.sol\":3951:3971  _checkVotingStatus() */\n      tag_117\n        /* \"contracts/Stakable-2.0.sol\":3951:3969  _checkVotingStatus */\n      tag_118\n        /* \"contracts/Stakable-2.0.sol\":3951:3971  _checkVotingStatus() */\n      jump\t// in\n    tag_117:\n        /* \"contracts/Stakable-2.0.sol\":3669:3679  _isVoter() */\n      tag_120\n        /* \"contracts/Stakable-2.0.sol\":3669:3677  _isVoter */\n      tag_121\n        /* \"contracts/Stakable-2.0.sol\":3669:3679  _isVoter() */\n      jump\t// in\n    tag_120:\n        /* \"contracts/Stakable-2.0.sol\":11978:11988  msg.sender */\n      caller\n        /* \"contracts/Stakable-2.0.sol\":11971:11989  voters[msg.sender] */\n      0x00\n      swap1\n      dup2\n      mstore\n        /* \"contracts/Stakable-2.0.sol\":11971:11977  voters */\n      0x09\n        /* \"contracts/Stakable-2.0.sol\":11971:11989  voters[msg.sender] */\n      0x20\n      swap1\n      dup2\n      mstore\n      0x40\n      dup1\n      dup4\n      keccak256\n        /* \"contracts/Stakable-2.0.sol\":11996:12005  _votingId */\n      sload(0x07)\n        /* \"contracts/Stakable-2.0.sol\":11971:12006  voters[msg.sender].voted[_votingId] */\n      dup5\n      mstore\n        /* \"contracts/Stakable-2.0.sol\":11971:11995  voters[msg.sender].voted */\n      0x01\n      add\n        /* \"contracts/Stakable-2.0.sol\":11971:12006  voters[msg.sender].voted[_votingId] */\n      swap1\n      swap2\n      mstore\n      swap1\n      keccak256\n      sload\n      0xff\n      and\n        /* \"contracts/Stakable-2.0.sol\":11967:12070  if (voters[msg.sender].voted[_votingId] == false) {... */\n      tag_123\n      jumpi\n        /* \"contracts/Stakable-2.0.sol\":12038:12059  Voting__notYetVoted() */\n      mload(0x40)\n      shl(0xe9, 0x45ba11)\n      dup2\n      mstore\n      0x04\n      add\n      mload(0x40)\n      dup1\n      swap2\n      sub\n      swap1\n      revert\n        /* \"contracts/Stakable-2.0.sol\":11967:12070  if (voters[msg.sender].voted[_votingId] == false) {... */\n    tag_123:\n        /* \"contracts/Stakable-2.0.sol\":12105:12114  _votingId */\n      sload(0x07)\n        /* \"contracts/Stakable-2.0.sol\":12080:12098  voters[msg.sender] */\n      0x00\n        /* \"contracts/Stakable-2.0.sol\":12080:12115  voters[msg.sender].voted[_votingId] */\n      swap1\n      dup2\n      mstore\n        /* \"contracts/Stakable-2.0.sol\":12134:12144  votedUsers */\n      0x0a\n        /* \"contracts/Stakable-2.0.sol\":12080:12098  voters[msg.sender] */\n      0x20\n        /* \"contracts/Stakable-2.0.sol\":12134:12155  votedUsers[_votingId] */\n      mstore\n        /* \"contracts/Stakable-2.0.sol\":12080:12098  voters[msg.sender] */\n      0x40\n        /* \"contracts/Stakable-2.0.sol\":12134:12155  votedUsers[_votingId] */\n      dup2\n      keccak256\n        /* \"contracts/Stakable-2.0.sol\":12134:12160  votedUsers[_votingId] -= 1 */\n      dup1\n      sload\n        /* \"contracts/Stakable-2.0.sol\":12080:12104  voters[msg.sender].voted */\n      0x01\n      swap3\n        /* \"contracts/Stakable-2.0.sol\":12080:12098  voters[msg.sender] */\n      swap1\n        /* \"contracts/Stakable-2.0.sol\":12134:12160  votedUsers[_votingId] -= 1 */\n      tag_124\n      swap1\n        /* \"contracts/Stakable-2.0.sol\":12080:12104  voters[msg.sender].voted */\n      dup5\n      swap1\n        /* \"contracts/Stakable-2.0.sol\":12134:12160  votedUsers[_votingId] -= 1 */\n      tag_125\n      jump\t// in\n    tag_124:\n      swap1\n      swap2\n      sstore\n      pop\n      pop\n        /* \"@openzeppelin/contracts/security/ReentrancyGuard.sol\":1701:1702  1 */\n      0x01\n        /* \"@openzeppelin/contracts/security/ReentrancyGuard.sol\":2628:2635  _status */\n      0x00\n        /* \"@openzeppelin/contracts/security/ReentrancyGuard.sol\":2628:2650  _status = _NOT_ENTERED */\n      sstore\n        /* \"contracts/Stakable-2.0.sol\":11889:12167  function retractVote() public nonReentrant votingStatusTrue isVoter {... */\n      jump\t// out\n        /* \"contracts/Stakable-2.0.sol\":4306:5733  function stake(... */\n    tag_37:\n        /* \"@openzeppelin/contracts/security/ReentrancyGuard.sol\":1744:1745  2 */\n      0x02\n        /* \"@openzeppelin/contracts/security/ReentrancyGuard.sol\":2325:2332  _status */\n      sload(0x00)\n        /* \"@openzeppelin/contracts/security/ReentrancyGuard.sol\":2325:2344  _status != _ENTERED */\n      eq\n      iszero\n        /* \"@openzeppelin/contracts/security/ReentrancyGuard.sol\":2317:2380  require(_status != _ENTERED, \"ReentrancyGuard: reentrant call\") */\n      tag_127\n      jumpi\n      mload(0x40)\n      shl(0xe5, 0x461bcd)\n      dup2\n      mstore\n      0x04\n      add\n      tag_114\n      swap1\n      tag_115\n      jump\t// in\n    tag_127:\n        /* \"@openzeppelin/contracts/security/ReentrancyGuard.sol\":1744:1745  2 */\n      0x02\n        /* \"@openzeppelin/contracts/security/ReentrancyGuard.sol\":2455:2462  _status */\n      0x00\n        /* \"@openzeppelin/contracts/security/ReentrancyGuard.sol\":2455:2473  _status = _ENTERED */\n      sstore\n        /* \"@openzeppelin/contracts/access/Ownable.sol\":1108:1114  _owner */\n      and(sub(shl(0xa0, 0x01), 0x01), sload(0x01))\n        /* \"@openzeppelin/contracts/utils/Context.sol\":719:729  msg.sender */\n      caller\n        /* \"@openzeppelin/contracts/access/Ownable.sol\":1248:1271  owner() == _msgSender() */\n      eq\n        /* \"@openzeppelin/contracts/access/Ownable.sol\":1240:1308  require(owner() == _msgSender(), \"Ownable: caller is not the owner\") */\n      tag_133\n      jumpi\n      mload(0x40)\n      shl(0xe5, 0x461bcd)\n      dup2\n      mstore\n      0x04\n      add\n      tag_114\n      swap1\n      tag_135\n      jump\t// in\n    tag_133:\n        /* \"contracts/Stakable-2.0.sol\":4568:4569  0 */\n      0x00\n        /* \"contracts/Stakable-2.0.sol\":4558:4564  amount */\n      dup3\n        /* \"contracts/Stakable-2.0.sol\":4558:4569  amount <= 0 */\n      gt\n        /* \"contracts/Stakable-2.0.sol\":4554:4632  if (amount <= 0) {... */\n      tag_137\n      jumpi\n        /* \"contracts/Stakable-2.0.sol\":4592:4621  Staking__cannotStakeNothing() */\n      mload(0x40)\n      shl(0xe1, 0x445a206b)\n      dup2\n      mstore\n      0x04\n      add\n      mload(0x40)\n      dup1\n      swap2\n      sub\n      swap1\n      revert\n        /* \"contracts/Stakable-2.0.sol\":4554:4632  if (amount <= 0) {... */\n    tag_137:\n      sub(shl(0xa0, 0x01), 0x01)\n        /* \"contracts/Stakable-2.0.sol\":4717:4735  stakeholders[user] */\n      dup4\n      and\n      0x00\n      swap1\n      dup2\n      mstore\n        /* \"contracts/Stakable-2.0.sol\":4717:4729  stakeholders */\n      0x0c\n        /* \"contracts/Stakable-2.0.sol\":4717:4735  stakeholders[user] */\n      0x20\n      mstore\n      0x40\n      swap1\n      keccak256\n        /* \"contracts/Stakable-2.0.sol\":4717:4742  stakeholders[user].amount */\n      sload\n        /* \"contracts/Stakable-2.0.sol\":4717:4747  stakeholders[user].amount != 0 */\n      iszero\n        /* \"contracts/Stakable-2.0.sol\":4713:4804  if (stakeholders[user].amount != 0) {... */\n      tag_138\n      jumpi\n        /* \"contracts/Stakable-2.0.sol\":4770:4793  Staking__userIsStaker() */\n      mload(0x40)\n      shl(0xe0, 0x04462d27)\n      dup2\n      mstore\n      0x04\n      add\n      mload(0x40)\n      dup1\n      swap2\n      sub\n      swap1\n      revert\n        /* \"contracts/Stakable-2.0.sol\":4713:4804  if (stakeholders[user].amount != 0) {... */\n    tag_138:\n        /* \"contracts/Stakable-2.0.sol\":4818:4845  stakingPackage[stakePeriod] */\n      0x00\n      dup2\n      dup2\n      mstore\n        /* \"contracts/Stakable-2.0.sol\":4818:4832  stakingPackage */\n      0x02\n        /* \"contracts/Stakable-2.0.sol\":4818:4845  stakingPackage[stakePeriod] */\n      0x20\n      mstore\n      0x40\n      swap1\n      keccak256\n      sload\n        /* \"contracts/Stakable-2.0.sol\":4814:4915  if (stakingPackage[stakePeriod] == 0) {... */\n      tag_139\n      jumpi\n        /* \"contracts/Stakable-2.0.sol\":4873:4904  Staking_noStakingPackageFound() */\n      mload(0x40)\n      shl(0xe2, 0x254ddef9)\n      dup2\n      mstore\n      0x04\n      add\n      mload(0x40)\n      dup1\n      swap2\n      sub\n      swap1\n      revert\n        /* \"contracts/Stakable-2.0.sol\":4814:4915  if (stakingPackage[stakePeriod] == 0) {... */\n    tag_139:\n        /* \"contracts/Stakable-2.0.sol\":4940:4941  1 */\n      0x01\n        /* \"contracts/Stakable-2.0.sol\":4925:4936  totalVoters */\n      0x08\n      0x00\n        /* \"contracts/Stakable-2.0.sol\":4925:4941  totalVoters += 1 */\n      dup3\n      dup3\n      sload\n      tag_140\n      swap2\n      swap1\n      tag_141\n      jump\t// in\n    tag_140:\n      swap1\n      swap2\n      sstore\n      pop\n      pop\n      sub(shl(0xa0, 0x01), 0x01)\n        /* \"contracts/Stakable-2.0.sol\":4951:4963  voters[user] */\n      dup4\n      and\n      0x00\n      swap1\n      dup2\n      mstore\n        /* \"contracts/Stakable-2.0.sol\":4951:4957  voters */\n      0x09\n        /* \"contracts/Stakable-2.0.sol\":4951:4963  voters[user] */\n      0x20\n      swap1\n      dup2\n      mstore\n      0x40\n      dup1\n      dup4\n      keccak256\n        /* \"contracts/Stakable-2.0.sol\":4951:4982  voters[user].votingRight = true */\n      dup1\n      sload\n      not(0xff)\n      and\n        /* \"contracts/Stakable-2.0.sol\":4978:4982  true */\n      0x01\n        /* \"contracts/Stakable-2.0.sol\":4951:4982  voters[user].votingRight = true */\n      or\n      swap1\n      sstore\n        /* \"contracts/Stakable-2.0.sol\":5265:5448  Stake(... */\n      dup1\n      mload\n      0xe0\n      dup2\n      add\n      dup3\n      mstore\n      dup6\n      dup2\n      mstore\n        /* \"contracts/Stakable-2.0.sol\":5100:5115  block.timestamp */\n      timestamp\n        /* \"contracts/Stakable-2.0.sol\":5265:5448  Stake(... */\n      dup2\n      dup5\n      add\n      dup2\n      swap1\n      mstore\n        /* \"contracts/Stakable-2.0.sol\":5327:5354  stakingPackage[stakePeriod] */\n      dup6\n      dup6\n      mstore\n        /* \"contracts/Stakable-2.0.sol\":5327:5341  stakingPackage */\n      0x02\n        /* \"contracts/Stakable-2.0.sol\":5327:5354  stakingPackage[stakePeriod] */\n      swap1\n      swap4\n      mstore\n      swap3\n      dup2\n      swap1\n      keccak256\n      sload\n        /* \"contracts/Stakable-2.0.sol\":5265:5448  Stake(... */\n      swap1\n      dup4\n      add\n      mstore\n        /* \"contracts/Stakable-2.0.sol\":5100:5115  block.timestamp */\n      swap1\n        /* \"contracts/Stakable-2.0.sol\":5265:5448  Stake(... */\n      0x60\n      dup2\n      add\n        /* \"contracts/Stakable-2.0.sol\":5369:5392  stakePeriod + timestamp */\n      tag_142\n        /* \"contracts/Stakable-2.0.sol\":5100:5115  block.timestamp */\n      dup4\n        /* \"contracts/Stakable-2.0.sol\":5342:5353  stakePeriod */\n      dup6\n        /* \"contracts/Stakable-2.0.sol\":5369:5392  stakePeriod + timestamp */\n      tag_141\n      jump\t// in\n    tag_142:\n        /* \"contracts/Stakable-2.0.sol\":5265:5448  Stake(... */\n      dup2\n      mstore\n        /* \"contracts/Stakable-2.0.sol\":5407:5408  0 */\n      0x00\n        /* \"contracts/Stakable-2.0.sol\":5265:5448  Stake(... */\n      0x20\n      dup1\n      dup4\n      add\n      dup3\n      swap1\n      mstore\n      0x40\n      dup1\n      dup5\n      add\n      dup4\n      swap1\n      mstore\n      0x60\n      swap4\n      dup5\n      add\n      dup4\n      swap1\n      mstore\n      sub(shl(0xa0, 0x01), 0x01)\n        /* \"contracts/Stakable-2.0.sol\":5244:5262  stakeholders[user] */\n      dup1\n      dup11\n      and\n      dup5\n      mstore\n        /* \"contracts/Stakable-2.0.sol\":5244:5256  stakeholders */\n      0x0c\n        /* \"contracts/Stakable-2.0.sol\":5244:5262  stakeholders[user] */\n      dup4\n      mstore\n      swap3\n      dup2\n      swap1\n      keccak256\n        /* \"contracts/Stakable-2.0.sol\":5244:5448  stakeholders[user] = Stake(... */\n      dup6\n      mload\n      dup2\n      sstore\n      swap2\n      dup6\n      add\n      mload\n      0x01\n      dup4\n      add\n      sstore\n      dup5\n      add\n      mload\n      0x02\n      dup3\n      add\n      sstore\n      swap2\n      dup4\n      add\n      mload\n      0x03\n      dup4\n      add\n      sstore\n      0x80\n      dup4\n      add\n      mload\n      0x04\n      dup4\n      add\n      sstore\n      0xa0\n      dup4\n      add\n      mload\n      0x05\n      dup4\n      add\n      sstore\n      0xc0\n      swap1\n      swap3\n      add\n      mload\n      0x06\n      swap1\n      swap2\n      add\n      sstore\n        /* \"contracts/Stakable-2.0.sol\":5506:5519  token_address */\n      sload(0x0b)\n        /* \"contracts/Stakable-2.0.sol\":5459:5601  SafeERC20.safeTransferFrom(... */\n      tag_143\n      swap2\n        /* \"contracts/Stakable-2.0.sol\":5506:5519  token_address */\n      and\n        /* \"contracts/Stakable-2.0.sol\":5534:5544  msg.sender */\n      caller\n        /* \"contracts/Stakable-2.0.sol\":5566:5570  this */\n      address\n        /* \"contracts/Stakable-2.0.sol\":5585:5591  amount */\n      dup7\n        /* \"contracts/Stakable-2.0.sol\":5459:5485  SafeERC20.safeTransferFrom */\n      tag_144\n        /* \"contracts/Stakable-2.0.sol\":5459:5601  SafeERC20.safeTransferFrom(... */\n      jump\t// in\n    tag_143:\n      sub(shl(0xa0, 0x01), 0x01)\n        /* \"contracts/Stakable-2.0.sol\":5668:5726  Staked(user, amount, timestamp, (stakePeriod + timestamp)) */\n      dup5\n      and\n      0xb4caaf29adda3eefee3ad552a8e85058589bf834c7466cae4ee58787f70589ed\n        /* \"contracts/Stakable-2.0.sol\":5681:5687  amount */\n      dup5\n        /* \"contracts/Stakable-2.0.sol\":5689:5698  timestamp */\n      dup4\n        /* \"contracts/Stakable-2.0.sol\":5701:5724  stakePeriod + timestamp */\n      tag_145\n        /* \"contracts/Stakable-2.0.sol\":5689:5698  timestamp */\n      dup2\n        /* \"contracts/Stakable-2.0.sol\":5701:5712  stakePeriod */\n      dup8\n        /* \"contracts/Stakable-2.0.sol\":5701:5724  stakePeriod + timestamp */\n      tag_141\n      jump\t// in\n    tag_145:\n        /* \"contracts/Stakable-2.0.sol\":5668:5726  Staked(user, amount, timestamp, (stakePeriod + timestamp)) */\n      0x40\n      dup1\n      mload\n        /* \"#utility.yul\":3896:3921   */\n      swap4\n      dup5\n      mstore\n        /* \"#utility.yul\":3952:3954   */\n      0x20\n        /* \"#utility.yul\":3937:3955   */\n      dup5\n      add\n        /* \"#utility.yul\":3930:3964   */\n      swap3\n      swap1\n      swap3\n      mstore\n        /* \"#utility.yul\":3980:3998   */\n      swap1\n      dup3\n      add\n        /* \"#utility.yul\":3973:4007   */\n      mstore\n        /* \"#utility.yul\":3884:3886   */\n      0x60\n        /* \"#utility.yul\":3869:3887   */\n      add\n        /* \"contracts/Stakable-2.0.sol\":5668:5726  Staked(user, amount, timestamp, (stakePeriod + timestamp)) */\n      mload(0x40)\n      dup1\n      swap2\n      sub\n      swap1\n      log2\n      pop\n      pop\n        /* \"@openzeppelin/contracts/security/ReentrancyGuard.sol\":1701:1702  1 */\n      0x01\n        /* \"@openzeppelin/contracts/security/ReentrancyGuard.sol\":2628:2635  _status */\n      0x00\n        /* \"@openzeppelin/contracts/security/ReentrancyGuard.sol\":2628:2650  _status = _NOT_ENTERED */\n      sstore\n      pop\n      pop\n        /* \"contracts/Stakable-2.0.sol\":4306:5733  function stake(... */\n      jump\t// out\n        /* \"contracts/Stakable-2.0.sol\":8536:9560  function hasStake() external view returns (StakingSummary memory) {... */\n    tag_39:\n        /* \"contracts/Stakable-2.0.sol\":8579:8600  StakingSummary memory */\n      tag_148\n      tag_149\n      jump\t// in\n    tag_148:\n        /* \"contracts/Stakable-2.0.sol\":8651:8661  msg.sender */\n      caller\n        /* \"contracts/Stakable-2.0.sol\":8612:8635  Stake memory user_stake */\n      0x00\n        /* \"contracts/Stakable-2.0.sol\":8638:8662  stakeholders[msg.sender] */\n      swap1\n      dup2\n      mstore\n        /* \"contracts/Stakable-2.0.sol\":8638:8650  stakeholders */\n      0x0c\n        /* \"contracts/Stakable-2.0.sol\":8638:8662  stakeholders[msg.sender] */\n      0x20\n      swap1\n      dup2\n      mstore\n      0x40\n      swap2\n      dup3\n      swap1\n      keccak256\n        /* \"contracts/Stakable-2.0.sol\":8612:8662  Stake memory user_stake = stakeholders[msg.sender] */\n      dup3\n      mload\n      0xe0\n      dup2\n      add\n      dup5\n      mstore\n      dup2\n      sload\n      dup1\n      dup3\n      mstore\n      0x01\n      dup4\n      add\n      sload\n      swap4\n      dup3\n      add\n      swap4\n      swap1\n      swap4\n      mstore\n      0x02\n      dup3\n      add\n      sload\n      swap4\n      dup2\n      add\n      swap4\n      swap1\n      swap4\n      mstore\n      0x03\n      dup2\n      add\n      sload\n      0x60\n      dup5\n      add\n      mstore\n      0x04\n      dup2\n      add\n      sload\n      0x80\n      dup5\n      add\n      mstore\n      0x05\n      dup2\n      add\n      sload\n      0xa0\n      dup5\n      add\n      mstore\n      0x06\n      add\n      sload\n      0xc0\n      dup4\n      add\n      mstore\n        /* \"contracts/Stakable-2.0.sol\":8733:8818  if (user_stake.amount <= 0) {... */\n      tag_151\n      jumpi\n        /* \"contracts/Stakable-2.0.sol\":8782:8807  Staking__noStakingFound() */\n      mload(0x40)\n      shl(0xe0, 0xb018f087)\n      dup2\n      mstore\n      0x04\n      add\n      mload(0x40)\n      dup1\n      swap2\n      sub\n      swap1\n      revert\n        /* \"contracts/Stakable-2.0.sol\":8733:8818  if (user_stake.amount <= 0) {... */\n    tag_151:\n        /* \"contracts/Stakable-2.0.sol\":8859:8891  StakingSummary(0, 0, user_stake) */\n      0x40\n      dup1\n      mload\n      0x60\n      dup2\n      add\n      dup3\n      mstore\n        /* \"contracts/Stakable-2.0.sol\":8827:8856  StakingSummary memory summary */\n      0x00\n        /* \"contracts/Stakable-2.0.sol\":8859:8891  StakingSummary(0, 0, user_stake) */\n      dup1\n      dup3\n      mstore\n      0x20\n      dup3\n      add\n      dup2\n      swap1\n      mstore\n      swap2\n      dup2\n      add\n      dup4\n      swap1\n      mstore\n      swap1\n        /* \"contracts/Stakable-2.0.sol\":8919:8952  _calculateStakeReward(user_stake) */\n      tag_152\n        /* \"contracts/Stakable-2.0.sol\":8880:8890  user_stake */\n      dup4\n        /* \"contracts/Stakable-2.0.sol\":8919:8940  _calculateStakeReward */\n      tag_153\n        /* \"contracts/Stakable-2.0.sol\":8919:8952  _calculateStakeReward(user_stake) */\n      jump\t// in\n    tag_152:\n        /* \"contracts/Stakable-2.0.sol\":8902:8952  uint256 reward = _calculateStakeReward(user_stake) */\n      swap1\n      pop\n        /* \"contracts/Stakable-2.0.sol\":8995:9010  block.timestamp */\n      timestamp\n        /* \"contracts/Stakable-2.0.sol\":8967:8974  summary */\n      dup3\n        /* \"contracts/Stakable-2.0.sol\":8967:8980  summary.stake */\n      0x40\n      add\n      mload\n        /* \"contracts/Stakable-2.0.sol\":8967:8992  summary.stake.releaseTime */\n      0x60\n      add\n      mload\n        /* \"contracts/Stakable-2.0.sol\":8967:9010  summary.stake.releaseTime > block.timestamp */\n      gt\n        /* \"contracts/Stakable-2.0.sol\":8963:9177  if (summary.stake.releaseTime > block.timestamp) {... */\n      iszero\n      tag_154\n      jumpi\n        /* \"contracts/Stakable-2.0.sol\":9161:9165  1000 */\n      0x03e8\n        /* \"contracts/Stakable-2.0.sol\":9139:9157  stakingPenaltyRate */\n      sload(0x03)\n        /* \"contracts/Stakable-2.0.sol\":9130:9136  reward */\n      dup3\n        /* \"contracts/Stakable-2.0.sol\":9130:9157  reward * stakingPenaltyRate */\n      tag_155\n      swap2\n      swap1\n      tag_156\n      jump\t// in\n    tag_155:\n        /* \"contracts/Stakable-2.0.sol\":9129:9165  (reward * stakingPenaltyRate) / 1000 */\n      tag_157\n      swap2\n      swap1\n      tag_158\n      jump\t// in\n    tag_157:\n        /* \"contracts/Stakable-2.0.sol\":9082:9100  stakingPenaltyRate */\n      sload(0x03)\n        /* \"contracts/Stakable-2.0.sol\":9062:9079  user_stake.amount */\n      dup5\n      mload\n        /* \"contracts/Stakable-2.0.sol\":9104:9108  1000 */\n      0x03e8\n      swap2\n        /* \"contracts/Stakable-2.0.sol\":9062:9100  user_stake.amount * stakingPenaltyRate */\n      tag_159\n      swap2\n      tag_156\n      jump\t// in\n    tag_159:\n        /* \"contracts/Stakable-2.0.sol\":9061:9108  (user_stake.amount * stakingPenaltyRate) / 1000 */\n      tag_160\n      swap2\n      swap1\n      tag_158\n      jump\t// in\n    tag_160:\n        /* \"contracts/Stakable-2.0.sol\":9060:9166  ((user_stake.amount * stakingPenaltyRate) / 1000) +... */\n      tag_161\n      swap2\n      swap1\n      tag_141\n      jump\t// in\n    tag_161:\n        /* \"contracts/Stakable-2.0.sol\":9026:9041  summary.penalty */\n      0x20\n      dup4\n      add\n        /* \"contracts/Stakable-2.0.sol\":9026:9166  summary.penalty =... */\n      mstore\n        /* \"contracts/Stakable-2.0.sol\":8963:9177  if (summary.stake.releaseTime > block.timestamp) {... */\n    tag_154:\n        /* \"contracts/Stakable-2.0.sol\":9235:9236  0 */\n      0x00\n        /* \"contracts/Stakable-2.0.sol\":9191:9232  calculateWeek(user_stake.latestClaimDrop) */\n      tag_162\n        /* \"contracts/Stakable-2.0.sol\":9205:9215  user_stake */\n      dup5\n        /* \"contracts/Stakable-2.0.sol\":9205:9231  user_stake.latestClaimDrop */\n      0xc0\n      add\n      mload\n        /* \"contracts/Stakable-2.0.sol\":9191:9204  calculateWeek */\n      tag_89\n        /* \"contracts/Stakable-2.0.sol\":9191:9232  calculateWeek(user_stake.latestClaimDrop) */\n      jump\t// in\n    tag_162:\n        /* \"contracts/Stakable-2.0.sol\":9191:9236  calculateWeek(user_stake.latestClaimDrop) > 0 */\n      gt\n        /* \"contracts/Stakable-2.0.sol\":9187:9436  if (calculateWeek(user_stake.latestClaimDrop) > 0) {... */\n      iszero\n      tag_163\n      jumpi\n        /* \"contracts/Stakable-2.0.sol\":9252:9267  uint256 airdrop */\n      0x00\n        /* \"contracts/Stakable-2.0.sol\":9270:9306  _calculateAirdrop(user_stake.amount) */\n      tag_164\n        /* \"contracts/Stakable-2.0.sol\":9288:9298  user_stake */\n      dup5\n        /* \"contracts/Stakable-2.0.sol\":9288:9305  user_stake.amount */\n      0x00\n      add\n      mload\n        /* \"contracts/Stakable-2.0.sol\":9270:9287  _calculateAirdrop */\n      tag_165\n        /* \"contracts/Stakable-2.0.sol\":9270:9306  _calculateAirdrop(user_stake.amount) */\n      jump\t// in\n    tag_164:\n        /* \"contracts/Stakable-2.0.sol\":9320:9333  summary.stake */\n      0x40\n      dup5\n      add\n      mload\n        /* \"contracts/Stakable-2.0.sol\":9320:9350  summary.stake.claimableAirdrop */\n      0xa0\n      add\n        /* \"contracts/Stakable-2.0.sol\":9320:9360  summary.stake.claimableAirdrop = airdrop */\n      mstore\n      pop\n        /* \"contracts/Stakable-2.0.sol\":9187:9436  if (calculateWeek(user_stake.latestClaimDrop) > 0) {... */\n      jump(tag_166)\n    tag_163:\n        /* \"contracts/Stakable-2.0.sol\":9391:9404  summary.stake */\n      0x40\n      dup3\n      add\n      mload\n        /* \"contracts/Stakable-2.0.sol\":9424:9425  0 */\n      0x00\n        /* \"contracts/Stakable-2.0.sol\":9391:9421  summary.stake.claimableAirdrop */\n      0xa0\n      swap1\n      swap2\n      add\n        /* \"contracts/Stakable-2.0.sol\":9391:9425  summary.stake.claimableAirdrop = 0 */\n      mstore\n        /* \"contracts/Stakable-2.0.sol\":9187:9436  if (calculateWeek(user_stake.latestClaimDrop) > 0) {... */\n    tag_166:\n        /* \"contracts/Stakable-2.0.sol\":9446:9459  summary.stake */\n      0x40\n      dup3\n      add\n      mload\n        /* \"contracts/Stakable-2.0.sol\":9446:9469  summary.stake.claimable */\n      0x80\n      add\n        /* \"contracts/Stakable-2.0.sol\":9446:9478  summary.stake.claimable = reward */\n      mstore\n        /* \"contracts/Stakable-2.0.sol\":9511:9528  user_stake.amount */\n      swap1\n      mload\n        /* \"contracts/Stakable-2.0.sol\":9488:9528  summary.total_amount = user_stake.amount */\n      dup2\n      mstore\n        /* \"contracts/Stakable-2.0.sol\":9446:9453  summary */\n      swap2\n        /* \"contracts/Stakable-2.0.sol\":8536:9560  function hasStake() external view returns (StakingSummary memory) {... */\n      swap1\n      pop\n      jump\t// out\n        /* \"contracts/Stakable-2.0.sol\":11398:11608  function startVoting() external nonReentrant onlyOwner {... */\n    tag_43:\n        /* \"@openzeppelin/contracts/security/ReentrancyGuard.sol\":1744:1745  2 */\n      0x02\n        /* \"@openzeppelin/contracts/security/ReentrancyGuard.sol\":2325:2332  _status */\n      sload(0x00)\n        /* \"@openzeppelin/contracts/security/ReentrancyGuard.sol\":2325:2344  _status != _ENTERED */\n      eq\n      iszero\n        /* \"@openzeppelin/contracts/security/ReentrancyGuard.sol\":2317:2380  require(_status != _ENTERED, \"ReentrancyGuard: reentrant call\") */\n      tag_168\n      jumpi\n      mload(0x40)\n      shl(0xe5, 0x461bcd)\n      dup2\n      mstore\n      0x04\n      add\n      tag_114\n      swap1\n      tag_115\n      jump\t// in\n    tag_168:\n        /* \"@openzeppelin/contracts/security/ReentrancyGuard.sol\":1744:1745  2 */\n      0x02\n        /* \"@openzeppelin/contracts/security/ReentrancyGuard.sol\":2455:2462  _status */\n      0x00\n        /* \"@openzeppelin/contracts/security/ReentrancyGuard.sol\":2455:2473  _status = _ENTERED */\n      sstore\n        /* \"@openzeppelin/contracts/access/Ownable.sol\":1108:1114  _owner */\n      and(sub(shl(0xa0, 0x01), 0x01), sload(0x01))\n        /* \"@openzeppelin/contracts/utils/Context.sol\":719:729  msg.sender */\n      caller\n        /* \"@openzeppelin/contracts/access/Ownable.sol\":1248:1271  owner() == _msgSender() */\n      eq\n        /* \"@openzeppelin/contracts/access/Ownable.sol\":1240:1308  require(owner() == _msgSender(), \"Ownable: caller is not the owner\") */\n      tag_173\n      jumpi\n      mload(0x40)\n      shl(0xe5, 0x461bcd)\n      dup2\n      mstore\n      0x04\n      add\n      tag_114\n      swap1\n      tag_135\n      jump\t// in\n    tag_173:\n        /* \"contracts/Stakable-2.0.sol\":11467:11480  _votingStatus */\n      and(0xff, sload(0x06))\n        /* \"contracts/Stakable-2.0.sol\":11467:11488  _votingStatus == true */\n      iszero\n      iszero\n        /* \"contracts/Stakable-2.0.sol\":11467:11480  _votingStatus */\n      0x01\n        /* \"contracts/Stakable-2.0.sol\":11467:11488  _votingStatus == true */\n      eq\n        /* \"contracts/Stakable-2.0.sol\":11463:11547  if (_votingStatus == true) {... */\n      iszero\n      tag_176\n      jumpi\n        /* \"contracts/Stakable-2.0.sol\":11511:11536  Voting__votingIsRunning() */\n      mload(0x40)\n      shl(0xe1, 0x36d26697)\n      dup2\n      mstore\n      0x04\n      add\n      mload(0x40)\n      dup1\n      swap2\n      sub\n      swap1\n      revert\n        /* \"contracts/Stakable-2.0.sol\":11463:11547  if (_votingStatus == true) {... */\n    tag_176:\n        /* \"contracts/Stakable-2.0.sol\":11557:11570  _votingStatus */\n      0x06\n        /* \"contracts/Stakable-2.0.sol\":11557:11577  _votingStatus = true */\n      dup1\n      sload\n      not(0xff)\n      and\n        /* \"contracts/Stakable-2.0.sol\":11573:11577  true */\n      0x01\n        /* \"contracts/Stakable-2.0.sol\":11557:11577  _votingStatus = true */\n      swap1\n      dup2\n      or\n      swap1\n      swap2\n      sstore\n        /* \"contracts/Stakable-2.0.sol\":11587:11596  _votingId */\n      0x07\n        /* \"contracts/Stakable-2.0.sol\":11587:11601  _votingId += 1 */\n      dup1\n      sload\n        /* \"contracts/Stakable-2.0.sol\":11557:11570  _votingStatus */\n      0x00\n      swap1\n        /* \"contracts/Stakable-2.0.sol\":11587:11601  _votingId += 1 */\n      tag_124\n      swap1\n        /* \"contracts/Stakable-2.0.sol\":11573:11577  true */\n      dup5\n      swap1\n        /* \"contracts/Stakable-2.0.sol\":11587:11601  _votingId += 1 */\n      tag_141\n      jump\t// in\n        /* \"contracts/Stakable-2.0.sol\":11614:11883  function vote() public nonReentrant votingStatusTrue isVoter {... */\n    tag_55:\n        /* \"@openzeppelin/contracts/security/ReentrancyGuard.sol\":1744:1745  2 */\n      0x02\n        /* \"@openzeppelin/contracts/security/ReentrancyGuard.sol\":2325:2332  _status */\n      sload(0x00)\n        /* \"@openzeppelin/contracts/security/ReentrancyGuard.sol\":2325:2344  _status != _ENTERED */\n      eq\n      iszero\n        /* \"@openzeppelin/contracts/security/ReentrancyGuard.sol\":2317:2380  require(_status != _ENTERED, \"ReentrancyGuard: reentrant call\") */\n      tag_180\n      jumpi\n      mload(0x40)\n      shl(0xe5, 0x461bcd)\n      dup2\n      mstore\n      0x04\n      add\n      tag_114\n      swap1\n      tag_115\n      jump\t// in\n    tag_180:\n        /* \"@openzeppelin/contracts/security/ReentrancyGuard.sol\":1744:1745  2 */\n      0x02\n        /* \"@openzeppelin/contracts/security/ReentrancyGuard.sol\":2455:2462  _status */\n      0x00\n        /* \"@openzeppelin/contracts/security/ReentrancyGuard.sol\":2455:2473  _status = _ENTERED */\n      sstore\n        /* \"contracts/Stakable-2.0.sol\":3951:3971  _checkVotingStatus() */\n      tag_183\n        /* \"contracts/Stakable-2.0.sol\":3951:3969  _checkVotingStatus */\n      tag_118\n        /* \"contracts/Stakable-2.0.sol\":3951:3971  _checkVotingStatus() */\n      jump\t// in\n    tag_183:\n        /* \"contracts/Stakable-2.0.sol\":3669:3679  _isVoter() */\n      tag_185\n        /* \"contracts/Stakable-2.0.sol\":3669:3677  _isVoter */\n      tag_121\n        /* \"contracts/Stakable-2.0.sol\":3669:3679  _isVoter() */\n      jump\t// in\n    tag_185:\n        /* \"contracts/Stakable-2.0.sol\":11696:11706  msg.sender */\n      caller\n        /* \"contracts/Stakable-2.0.sol\":11689:11707  voters[msg.sender] */\n      0x00\n      swap1\n      dup2\n      mstore\n        /* \"contracts/Stakable-2.0.sol\":11689:11695  voters */\n      0x09\n        /* \"contracts/Stakable-2.0.sol\":11689:11707  voters[msg.sender] */\n      0x20\n      swap1\n      dup2\n      mstore\n      0x40\n      dup1\n      dup4\n      keccak256\n        /* \"contracts/Stakable-2.0.sol\":11714:11723  _votingId */\n      sload(0x07)\n        /* \"contracts/Stakable-2.0.sol\":11689:11724  voters[msg.sender].voted[_votingId] */\n      dup5\n      mstore\n        /* \"contracts/Stakable-2.0.sol\":11689:11713  voters[msg.sender].voted */\n      0x01\n      swap1\n      dup2\n      add\n        /* \"contracts/Stakable-2.0.sol\":11689:11724  voters[msg.sender].voted[_votingId] */\n      swap1\n      swap3\n      mstore\n      swap1\n      swap2\n      keccak256\n      sload\n      0xff\n      and\n        /* \"contracts/Stakable-2.0.sol\":11689:11732  voters[msg.sender].voted[_votingId] == true */\n      iszero\n      iszero\n      eq\n        /* \"contracts/Stakable-2.0.sol\":11685:11788  if (voters[msg.sender].voted[_votingId] == true) {... */\n      iszero\n      tag_187\n      jumpi\n        /* \"contracts/Stakable-2.0.sol\":11755:11777  Voting__alreadyVoted() */\n      mload(0x40)\n      shl(0xe4, 0x0740e33b)\n      dup2\n      mstore\n      0x04\n      add\n      mload(0x40)\n      dup1\n      swap2\n      sub\n      swap1\n      revert\n        /* \"contracts/Stakable-2.0.sol\":11685:11788  if (voters[msg.sender].voted[_votingId] == true) {... */\n    tag_187:\n        /* \"contracts/Stakable-2.0.sol\":11805:11815  msg.sender */\n      caller\n        /* \"contracts/Stakable-2.0.sol\":11798:11816  voters[msg.sender] */\n      0x00\n      swap1\n      dup2\n      mstore\n        /* \"contracts/Stakable-2.0.sol\":11798:11804  voters */\n      0x09\n        /* \"contracts/Stakable-2.0.sol\":11798:11816  voters[msg.sender] */\n      0x20\n      swap1\n      dup2\n      mstore\n      0x40\n      dup1\n      dup4\n      keccak256\n        /* \"contracts/Stakable-2.0.sol\":11823:11832  _votingId */\n      0x07\n      dup1\n      sload\n        /* \"contracts/Stakable-2.0.sol\":11798:11833  voters[msg.sender].voted[_votingId] */\n      dup6\n      mstore\n        /* \"contracts/Stakable-2.0.sol\":11836:11840  true */\n      0x01\n        /* \"contracts/Stakable-2.0.sol\":11798:11822  voters[msg.sender].voted */\n      swap2\n      dup3\n      add\n        /* \"contracts/Stakable-2.0.sol\":11798:11833  voters[msg.sender].voted[_votingId] */\n      dup5\n      mstore\n      dup3\n      dup6\n      keccak256\n        /* \"contracts/Stakable-2.0.sol\":11798:11840  voters[msg.sender].voted[_votingId] = true */\n      dup1\n      sload\n      not(0xff)\n      and\n      dup4\n      or\n      swap1\n      sstore\n        /* \"contracts/Stakable-2.0.sol\":11861:11870  _votingId */\n      sload\n        /* \"contracts/Stakable-2.0.sol\":11850:11871  votedUsers[_votingId] */\n      dup5\n      mstore\n        /* \"contracts/Stakable-2.0.sol\":11850:11860  votedUsers */\n      0x0a\n        /* \"contracts/Stakable-2.0.sol\":11850:11871  votedUsers[_votingId] */\n      swap1\n      swap3\n      mstore\n      dup3\n      keccak256\n        /* \"contracts/Stakable-2.0.sol\":11850:11876  votedUsers[_votingId] += 1 */\n      dup1\n      sload\n        /* \"contracts/Stakable-2.0.sol\":11836:11840  true */\n      swap2\n      swap3\n        /* \"contracts/Stakable-2.0.sol\":11850:11871  votedUsers[_votingId] */\n      swap1\n      swap2\n        /* \"contracts/Stakable-2.0.sol\":11850:11876  votedUsers[_votingId] += 1 */\n      tag_124\n      swap1\n        /* \"contracts/Stakable-2.0.sol\":11836:11840  true */\n      dup5\n      swap1\n        /* \"contracts/Stakable-2.0.sol\":11850:11876  votedUsers[_votingId] += 1 */\n      tag_141\n      jump\t// in\n        /* \"contracts/Stakable-2.0.sol\":10435:11028  function claimAirdrop(address user) external {... */\n    tag_58:\n      sub(shl(0xa0, 0x01), 0x01)\n        /* \"contracts/Stakable-2.0.sol\":10565:10583  stakeholders[user] */\n      dup2\n      and\n        /* \"contracts/Stakable-2.0.sol\":10542:10562  Stake storage staker */\n      0x00\n        /* \"contracts/Stakable-2.0.sol\":10565:10583  stakeholders[user] */\n      swap1\n      dup2\n      mstore\n        /* \"contracts/Stakable-2.0.sol\":10565:10577  stakeholders */\n      0x0c\n        /* \"contracts/Stakable-2.0.sol\":10565:10583  stakeholders[user] */\n      0x20\n      mstore\n      0x40\n      swap1\n      keccak256\n        /* \"contracts/Stakable-2.0.sol\":10598:10611  staker.amount */\n      dup1\n      sload\n        /* \"contracts/Stakable-2.0.sol\":10598:10615  staker.amount > 0 */\n      iszero\n        /* \"contracts/Stakable-2.0.sol\":10594:11022  if (staker.amount > 0) {... */\n      tag_193\n      jumpi\n        /* \"contracts/Stakable-2.0.sol\":10635:10672  calculateWeek(staker.latestClaimDrop) */\n      tag_191\n        /* \"contracts/Stakable-2.0.sol\":10649:10655  staker */\n      dup2\n        /* \"contracts/Stakable-2.0.sol\":10649:10671  staker.latestClaimDrop */\n      0x06\n      add\n      sload\n        /* \"contracts/Stakable-2.0.sol\":10635:10648  calculateWeek */\n      tag_89\n        /* \"contracts/Stakable-2.0.sol\":10635:10672  calculateWeek(staker.latestClaimDrop) */\n      jump\t// in\n    tag_191:\n        /* \"contracts/Stakable-2.0.sol\":10631:10748  if (calculateWeek(staker.latestClaimDrop) == 0) {... */\n      tag_192\n      jumpi\n        /* \"contracts/Stakable-2.0.sol\":10704:10733  Airdrop__claimableOnceAWeek() */\n      mload(0x40)\n      shl(0xe2, 0x376115b3)\n      dup2\n      mstore\n      0x04\n      add\n      mload(0x40)\n      dup1\n      swap2\n      sub\n      swap1\n      revert\n        /* \"contracts/Stakable-2.0.sol\":10631:10748  if (calculateWeek(staker.latestClaimDrop) == 0) {... */\n    tag_192:\n        /* \"contracts/Stakable-2.0.sol\":10788:10789  0 */\n      0x00\n        /* \"contracts/Stakable-2.0.sol\":10762:10785  staker.claimableAirdrop */\n      0x05\n      dup3\n      add\n        /* \"contracts/Stakable-2.0.sol\":10762:10789  staker.claimableAirdrop = 0 */\n      sstore\n        /* \"contracts/Stakable-2.0.sol\":10828:10843  block.timestamp */\n      timestamp\n        /* \"contracts/Stakable-2.0.sol\":10803:10825  staker.latestClaimDrop */\n      0x06\n      dup3\n      add\n        /* \"contracts/Stakable-2.0.sol\":10803:10843  staker.latestClaimDrop = block.timestamp */\n      sstore\n        /* \"contracts/Stakable-2.0.sol\":10905:10918  token_address */\n      sload(0x0b)\n        /* \"contracts/Stakable-2.0.sol\":10983:10996  staker.amount */\n      dup2\n      sload\n        /* \"contracts/Stakable-2.0.sol\":10858:11011  SafeERC20.safeTransfer(... */\n      tag_193\n      swap2\n      sub(shl(0xa0, 0x01), 0x01)\n        /* \"contracts/Stakable-2.0.sol\":10905:10918  token_address */\n      and\n      swap1\n        /* \"contracts/Stakable-2.0.sol\":10937:10947  msg.sender */\n      caller\n      swap1\n        /* \"contracts/Stakable-2.0.sol\":10965:10997  _calculateAirdrop(staker.amount) */\n      tag_194\n      swap1\n        /* \"contracts/Stakable-2.0.sol\":10965:10982  _calculateAirdrop */\n      tag_165\n        /* \"contracts/Stakable-2.0.sol\":10965:10997  _calculateAirdrop(staker.amount) */\n      jump\t// in\n    tag_194:\n        /* \"contracts/Stakable-2.0.sol\":10858:10880  SafeERC20.safeTransfer */\n      tag_195\n        /* \"contracts/Stakable-2.0.sol\":10858:11011  SafeERC20.safeTransfer(... */\n      jump\t// in\n    tag_193:\n        /* \"contracts/Stakable-2.0.sol\":10480:11028  {... */\n      pop\n        /* \"contracts/Stakable-2.0.sol\":10435:11028  function claimAirdrop(address user) external {... */\n      pop\n      jump\t// out\n        /* \"contracts/Stakable-2.0.sol\":12173:12579  function getVotingResult()... */\n    tag_60:\n        /* \"@openzeppelin/contracts/access/Ownable.sol\":1108:1114  _owner */\n      sload(0x01)\n        /* \"contracts/Stakable-2.0.sol\":12290:12294  bool */\n      0x00\n      swap1\n      sub(shl(0xa0, 0x01), 0x01)\n        /* \"@openzeppelin/contracts/access/Ownable.sol\":1108:1114  _owner */\n      and\n        /* \"@openzeppelin/contracts/utils/Context.sol\":719:729  msg.sender */\n      caller\n        /* \"@openzeppelin/contracts/access/Ownable.sol\":1248:1271  owner() == _msgSender() */\n      eq\n        /* \"@openzeppelin/contracts/access/Ownable.sol\":1240:1308  require(owner() == _msgSender(), \"Ownable: caller is not the owner\") */\n      tag_199\n      jumpi\n      mload(0x40)\n      shl(0xe5, 0x461bcd)\n      dup2\n      mstore\n      0x04\n      add\n      tag_114\n      swap1\n      tag_135\n      jump\t// in\n    tag_199:\n        /* \"contracts/Stakable-2.0.sol\":3951:3971  _checkVotingStatus() */\n      tag_202\n        /* \"contracts/Stakable-2.0.sol\":3951:3969  _checkVotingStatus */\n      tag_118\n        /* \"contracts/Stakable-2.0.sol\":3951:3971  _checkVotingStatus() */\n      jump\t// in\n    tag_202:\n        /* \"contracts/Stakable-2.0.sol\":12329:12330  1 */\n      0x01\n        /* \"contracts/Stakable-2.0.sol\":12314:12325  totalVoters */\n      sload(0x08)\n        /* \"contracts/Stakable-2.0.sol\":12314:12330  totalVoters <= 1 */\n      gt\n        /* \"contracts/Stakable-2.0.sol\":12310:12389  if (totalVoters <= 1) {... */\n      tag_204\n      jumpi\n        /* \"contracts/Stakable-2.0.sol\":12353:12378  Voting__notEnoughVoters() */\n      mload(0x40)\n      shl(0xe1, 0x17cb436f)\n      dup2\n      mstore\n      0x04\n      add\n      mload(0x40)\n      dup1\n      swap2\n      sub\n      swap1\n      revert\n        /* \"contracts/Stakable-2.0.sol\":12310:12389  if (totalVoters <= 1) {... */\n    tag_204:\n        /* \"contracts/Stakable-2.0.sol\":12398:12417  uint256 half_voters */\n      0x00\n        /* \"contracts/Stakable-2.0.sol\":12440:12442  10 */\n      0x0a\n        /* \"contracts/Stakable-2.0.sol\":12421:12432  totalVoters */\n      sload(0x08)\n        /* \"contracts/Stakable-2.0.sol\":12435:12436  5 */\n      0x05\n        /* \"contracts/Stakable-2.0.sol\":12421:12436  totalVoters * 5 */\n      tag_205\n      swap2\n      swap1\n      tag_156\n      jump\t// in\n    tag_205:\n        /* \"contracts/Stakable-2.0.sol\":12420:12442  (totalVoters * 5) / 10 */\n      tag_206\n      swap2\n      swap1\n      tag_158\n      jump\t// in\n    tag_206:\n        /* \"contracts/Stakable-2.0.sol\":12468:12477  _votingId */\n      sload(0x07)\n        /* \"contracts/Stakable-2.0.sol\":12457:12478  votedUsers[_votingId] */\n      0x00\n      swap1\n      dup2\n      mstore\n        /* \"contracts/Stakable-2.0.sol\":12457:12467  votedUsers */\n      0x0a\n        /* \"contracts/Stakable-2.0.sol\":12457:12478  votedUsers[_votingId] */\n      0x20\n      mstore\n      0x40\n      swap1\n      keccak256\n      sload\n        /* \"contracts/Stakable-2.0.sol\":12398:12442  uint256 half_voters = (totalVoters * 5) / 10 */\n      swap1\n      swap2\n      pop\n        /* \"contracts/Stakable-2.0.sol\":12457:12492  votedUsers[_votingId] > half_voters */\n      dup2\n      lt\n        /* \"contracts/Stakable-2.0.sol\":12453:12573  if (votedUsers[_votingId] > half_voters) {... */\n      iszero\n      tag_207\n      jumpi\n        /* \"contracts/Stakable-2.0.sol\":12515:12519  true */\n      0x01\n        /* \"contracts/Stakable-2.0.sol\":12508:12519  return true */\n      swap2\n      pop\n      pop\n        /* \"contracts/Stakable-2.0.sol\":12173:12579  function getVotingResult()... */\n      swap1\n      jump\t// out\n        /* \"contracts/Stakable-2.0.sol\":12453:12573  if (votedUsers[_votingId] > half_voters) {... */\n    tag_207:\n        /* \"contracts/Stakable-2.0.sol\":12557:12562  false */\n      0x00\n        /* \"contracts/Stakable-2.0.sol\":12550:12562  return false */\n      swap2\n      pop\n      pop\n        /* \"contracts/Stakable-2.0.sol\":12173:12579  function getVotingResult()... */\n      swap1\n      jump\t// out\n        /* \"@openzeppelin/contracts/access/Ownable.sol\":1668:1769  function renounceOwnership() public virtual onlyOwner {... */\n    tag_64:\n        /* \"@openzeppelin/contracts/access/Ownable.sol\":1108:1114  _owner */\n      and(sub(shl(0xa0, 0x01), 0x01), sload(0x01))\n        /* \"@openzeppelin/contracts/utils/Context.sol\":719:729  msg.sender */\n      caller\n        /* \"@openzeppelin/contracts/access/Ownable.sol\":1248:1271  owner() == _msgSender() */\n      eq\n        /* \"@openzeppelin/contracts/access/Ownable.sol\":1240:1308  require(owner() == _msgSender(), \"Ownable: caller is not the owner\") */\n      tag_212\n      jumpi\n      mload(0x40)\n      shl(0xe5, 0x461bcd)\n      dup2\n      mstore\n      0x04\n      add\n      tag_114\n      swap1\n      tag_135\n      jump\t// in\n    tag_212:\n        /* \"@openzeppelin/contracts/access/Ownable.sol\":1732:1762  _transferOwnership(address(0)) */\n      tag_215\n        /* \"@openzeppelin/contracts/access/Ownable.sol\":1759:1760  0 */\n      0x00\n        /* \"@openzeppelin/contracts/access/Ownable.sol\":1732:1750  _transferOwnership */\n      tag_216\n        /* \"@openzeppelin/contracts/access/Ownable.sol\":1732:1762  _transferOwnership(address(0)) */\n      jump\t// in\n    tag_215:\n        /* \"@openzeppelin/contracts/access/Ownable.sol\":1668:1769  function renounceOwnership() public virtual onlyOwner {... */\n      jump\t// out\n        /* \"contracts/Stakable-2.0.sol\":5739:6045  function changePenaltyFee(uint256 amount) external onlyOwner {... */\n    tag_71:\n        /* \"@openzeppelin/contracts/access/Ownable.sol\":1108:1114  _owner */\n      and(sub(shl(0xa0, 0x01), 0x01), sload(0x01))\n        /* \"@openzeppelin/contracts/utils/Context.sol\":719:729  msg.sender */\n      caller\n        /* \"@openzeppelin/contracts/access/Ownable.sol\":1248:1271  owner() == _msgSender() */\n      eq\n        /* \"@openzeppelin/contracts/access/Ownable.sol\":1240:1308  require(owner() == _msgSender(), \"Ownable: caller is not the owner\") */\n      tag_220\n      jumpi\n      mload(0x40)\n      shl(0xe5, 0x461bcd)\n      dup2\n      mstore\n      0x04\n      add\n      tag_114\n      swap1\n      tag_135\n      jump\t// in\n    tag_220:\n        /* \"contracts/Stakable-2.0.sol\":5897:5899  30 */\n      0x1e\n        /* \"contracts/Stakable-2.0.sol\":5888:5894  amount */\n      dup2\n        /* \"contracts/Stakable-2.0.sol\":5888:5899  amount > 30 */\n      gt\n        /* \"contracts/Stakable-2.0.sol\":5884:5965  if (amount > 30) {... */\n      iszero\n      tag_223\n      jumpi\n        /* \"contracts/Stakable-2.0.sol\":5922:5954  Staking__penaltyExceed3Percent() */\n      mload(0x40)\n      shl(0xe0, 0xf1a470d7)\n      dup2\n      mstore\n      0x04\n      add\n      mload(0x40)\n      dup1\n      swap2\n      sub\n      swap1\n      revert\n        /* \"contracts/Stakable-2.0.sol\":5884:5965  if (amount > 30) {... */\n    tag_223:\n        /* \"contracts/Stakable-2.0.sol\":5974:5992  stakingPenaltyRate */\n      0x03\n        /* \"contracts/Stakable-2.0.sol\":5974:6001  stakingPenaltyRate = amount */\n      dup2\n      swap1\n      sstore\n        /* \"contracts/Stakable-2.0.sol\":6016:6038  PenaltyChanged(amount) */\n      mload(0x40)\n        /* \"#utility.yul\":1957:1982   */\n      dup2\n      dup2\n      mstore\n        /* \"contracts/Stakable-2.0.sol\":6016:6038  PenaltyChanged(amount) */\n      0xcfa4f4cf1cd64d13a167a8e75605e0c0c9d6700e903d17c5dc11f593254a04a9\n      swap1\n        /* \"#utility.yul\":1945:1947   */\n      0x20\n        /* \"#utility.yul\":1930:1948   */\n      add\n        /* \"contracts/Stakable-2.0.sol\":6016:6038  PenaltyChanged(amount) */\n    tag_224:\n      mload(0x40)\n      dup1\n      swap2\n      sub\n      swap1\n      log1\n        /* \"contracts/Stakable-2.0.sol\":5739:6045  function changePenaltyFee(uint256 amount) external onlyOwner {... */\n      pop\n      jump\t// out\n        /* \"contracts/Stakable-2.0.sol\":10110:10244  function calculateWeek(uint256 timestamp) public view returns (uint256) {... */\n    tag_89:\n        /* \"contracts/Stakable-2.0.sol\":10173:10180  uint256 */\n      0x00\n        /* \"contracts/Stakable-2.0.sol\":10231:10237  7 days */\n      0x093a80\n        /* \"contracts/Stakable-2.0.sol\":10200:10227  block.timestamp - timestamp */\n      tag_227\n        /* \"contracts/Stakable-2.0.sol\":10218:10227  timestamp */\n      dup4\n        /* \"contracts/Stakable-2.0.sol\":10200:10215  block.timestamp */\n      timestamp\n        /* \"contracts/Stakable-2.0.sol\":10200:10227  block.timestamp - timestamp */\n      tag_125\n      jump\t// in\n    tag_227:\n        /* \"contracts/Stakable-2.0.sol\":10199:10237  (block.timestamp - timestamp) / 7 days */\n      tag_228\n      swap2\n      swap1\n      tag_158\n      jump\t// in\n    tag_228:\n        /* \"contracts/Stakable-2.0.sol\":10192:10237  return (block.timestamp - timestamp) / 7 days */\n      swap3\n        /* \"contracts/Stakable-2.0.sol\":10110:10244  function calculateWeek(uint256 timestamp) public view returns (uint256) {... */\n      swap2\n      pop\n      pop\n      jump\t// out\n        /* \"contracts/Stakable-2.0.sol\":7546:8530  function withdrawStake() external nonReentrant {... */\n    tag_95:\n        /* \"@openzeppelin/contracts/security/ReentrancyGuard.sol\":1744:1745  2 */\n      0x02\n        /* \"@openzeppelin/contracts/security/ReentrancyGuard.sol\":2325:2332  _status */\n      sload(0x00)\n        /* \"@openzeppelin/contracts/security/ReentrancyGuard.sol\":2325:2344  _status != _ENTERED */\n      eq\n      iszero\n        /* \"@openzeppelin/contracts/security/ReentrancyGuard.sol\":2317:2380  require(_status != _ENTERED, \"ReentrancyGuard: reentrant call\") */\n      tag_230\n      jumpi\n      mload(0x40)\n      shl(0xe5, 0x461bcd)\n      dup2\n      mstore\n      0x04\n      add\n      tag_114\n      swap1\n      tag_115\n      jump\t// in\n    tag_230:\n        /* \"@openzeppelin/contracts/security/ReentrancyGuard.sol\":1744:1745  2 */\n      0x02\n        /* \"@openzeppelin/contracts/security/ReentrancyGuard.sol\":2455:2462  _status */\n      0x00\n        /* \"@openzeppelin/contracts/security/ReentrancyGuard.sol\":2455:2473  _status = _ENTERED */\n      dup2\n      dup2\n      sstore\n        /* \"contracts/Stakable-2.0.sol\":7750:7760  msg.sender */\n      caller\n        /* \"contracts/Stakable-2.0.sol\":7737:7761  stakeholders[msg.sender] */\n      dup2\n      mstore\n        /* \"contracts/Stakable-2.0.sol\":7737:7749  stakeholders */\n      0x0c\n        /* \"contracts/Stakable-2.0.sol\":7737:7761  stakeholders[msg.sender] */\n      0x20\n      swap1\n      dup2\n      mstore\n      0x40\n      dup1\n      dup4\n      keccak256\n        /* \"contracts/Stakable-2.0.sol\":7711:7761  Stake memory user_stake = stakeholders[msg.sender] */\n      dup2\n      mload\n      0xe0\n      dup2\n      add\n      dup4\n      mstore\n      dup2\n      sload\n      dup2\n      mstore\n      0x01\n      dup3\n      add\n      sload\n      swap4\n      dup2\n      add\n      swap4\n      swap1\n      swap4\n      mstore\n      swap4\n      dup5\n      add\n      sload\n      swap1\n      dup3\n      add\n      mstore\n      0x03\n      dup4\n      add\n      sload\n      0x60\n      dup3\n      add\n      mstore\n      0x04\n      dup4\n      add\n      sload\n      0x80\n      dup3\n      add\n      mstore\n      0x05\n      dup4\n      add\n      sload\n      0xa0\n      dup3\n      add\n      mstore\n      0x06\n      swap1\n      swap3\n      add\n      sload\n      0xc0\n      dup4\n      add\n      mstore\n        /* \"contracts/Stakable-2.0.sol\":7788:7821  _calculateStakeReward(user_stake) */\n      tag_233\n        /* \"contracts/Stakable-2.0.sol\":7711:7761  Stake memory user_stake = stakeholders[msg.sender] */\n      dup3\n        /* \"contracts/Stakable-2.0.sol\":7788:7809  _calculateStakeReward */\n      tag_153\n        /* \"contracts/Stakable-2.0.sol\":7788:7821  _calculateStakeReward(user_stake) */\n      jump\t// in\n    tag_233:\n        /* \"contracts/Stakable-2.0.sol\":7852:7862  msg.sender */\n      caller\n        /* \"contracts/Stakable-2.0.sol\":7839:7863  stakeholders[msg.sender] */\n      0x00\n      swap1\n      dup2\n      mstore\n        /* \"contracts/Stakable-2.0.sol\":7839:7851  stakeholders */\n      0x0c\n        /* \"contracts/Stakable-2.0.sol\":7839:7863  stakeholders[msg.sender] */\n      0x20\n      mstore\n      0x40\n      dup2\n      keccak256\n        /* \"contracts/Stakable-2.0.sol\":7832:7863  delete stakeholders[msg.sender] */\n      dup2\n      dup2\n      sstore\n      0x01\n      dup1\n      dup3\n      add\n      dup4\n      swap1\n      sstore\n      0x02\n      dup3\n      add\n      dup4\n      swap1\n      sstore\n      0x03\n      dup3\n      add\n      dup4\n      swap1\n      sstore\n      0x04\n      dup3\n      add\n      dup4\n      swap1\n      sstore\n      0x05\n      dup3\n      add\n      dup4\n      swap1\n      sstore\n      0x06\n      swap1\n      swap2\n      add\n      dup3\n      swap1\n      sstore\n        /* \"contracts/Stakable-2.0.sol\":7873:7884  totalVoters */\n      0x08\n        /* \"contracts/Stakable-2.0.sol\":7873:7889  totalVoters -= 1 */\n      dup1\n      sload\n        /* \"contracts/Stakable-2.0.sol\":7771:7821  uint256 reward = _calculateStakeReward(user_stake) */\n      swap4\n      swap5\n      pop\n        /* \"contracts/Stakable-2.0.sol\":7832:7863  delete stakeholders[msg.sender] */\n      swap1\n      swap3\n        /* \"contracts/Stakable-2.0.sol\":7873:7884  totalVoters */\n      swap1\n      swap2\n        /* \"contracts/Stakable-2.0.sol\":7839:7863  stakeholders[msg.sender] */\n      swap1\n        /* \"contracts/Stakable-2.0.sol\":7873:7889  totalVoters -= 1 */\n      tag_234\n      swap1\n        /* \"contracts/Stakable-2.0.sol\":7832:7863  delete stakeholders[msg.sender] */\n      dup5\n      swap1\n        /* \"contracts/Stakable-2.0.sol\":7873:7889  totalVoters -= 1 */\n      tag_125\n      jump\t// in\n    tag_234:\n      swap1\n      swap2\n      sstore\n      pop\n      pop\n        /* \"contracts/Stakable-2.0.sol\":7913:7923  msg.sender */\n      caller\n        /* \"contracts/Stakable-2.0.sol\":7906:7924  voters[msg.sender] */\n      0x00\n      swap1\n      dup2\n      mstore\n        /* \"contracts/Stakable-2.0.sol\":7906:7912  voters */\n      0x09\n        /* \"contracts/Stakable-2.0.sol\":7906:7924  voters[msg.sender] */\n      0x20\n      swap1\n      dup2\n      mstore\n      0x40\n      dup1\n      dup4\n      keccak256\n        /* \"contracts/Stakable-2.0.sol\":7931:7940  _votingId */\n      sload(0x07)\n        /* \"contracts/Stakable-2.0.sol\":7906:7941  voters[msg.sender].voted[_votingId] */\n      dup5\n      mstore\n        /* \"contracts/Stakable-2.0.sol\":7906:7930  voters[msg.sender].voted */\n      0x01\n      add\n        /* \"contracts/Stakable-2.0.sol\":7906:7941  voters[msg.sender].voted[_votingId] */\n      swap1\n      swap2\n      mstore\n      swap1\n      keccak256\n        /* \"contracts/Stakable-2.0.sol\":7899:7941  delete voters[msg.sender].voted[_votingId] */\n      dup1\n      sload\n      not(0xff)\n      and\n      swap1\n      sstore\n        /* \"contracts/Stakable-2.0.sol\":7956:7978  user_stake.releaseTime */\n      0x60\n      dup3\n      add\n      mload\n        /* \"contracts/Stakable-2.0.sol\":7981:7996  block.timestamp */\n      timestamp\n      lt\n        /* \"contracts/Stakable-2.0.sol\":7952:8524  if (user_stake.releaseTime > block.timestamp) {... */\n      iszero\n      tag_235\n      jumpi\n        /* \"contracts/Stakable-2.0.sol\":8030:8052  uint256 amount_reduced */\n      0x00\n        /* \"contracts/Stakable-2.0.sol\":8070:8092  uint256 reward_reduced */\n      dup1\n        /* \"contracts/Stakable-2.0.sol\":8109:8164  _calculateStakingWithPenalty(user_stake.amount, reward) */\n      tag_236\n        /* \"contracts/Stakable-2.0.sol\":8138:8148  user_stake */\n      dup5\n        /* \"contracts/Stakable-2.0.sol\":8138:8155  user_stake.amount */\n      0x00\n      add\n      mload\n        /* \"contracts/Stakable-2.0.sol\":8157:8163  reward */\n      dup5\n        /* \"contracts/Stakable-2.0.sol\":8109:8137  _calculateStakingWithPenalty */\n      tag_237\n        /* \"contracts/Stakable-2.0.sol\":8109:8164  _calculateStakingWithPenalty(user_stake.amount, reward) */\n      jump\t// in\n    tag_236:\n        /* \"contracts/Stakable-2.0.sol\":8226:8239  token_address */\n      sload(0x0b)\n        /* \"contracts/Stakable-2.0.sol\":8012:8164  (... */\n      swap2\n      swap4\n      pop\n      swap2\n      pop\n        /* \"contracts/Stakable-2.0.sol\":8179:8333  SafeERC20.safeTransfer(... */\n      tag_238\n      swap1\n      sub(shl(0xa0, 0x01), 0x01)\n        /* \"contracts/Stakable-2.0.sol\":8226:8239  token_address */\n      and\n        /* \"contracts/Stakable-2.0.sol\":8258:8268  msg.sender */\n      caller\n        /* \"contracts/Stakable-2.0.sol\":8287:8318  amount_reduced + reward_reduced */\n      tag_194\n        /* \"contracts/Stakable-2.0.sol\":8012:8164  (... */\n      dup5\n      dup7\n        /* \"contracts/Stakable-2.0.sol\":8287:8318  amount_reduced + reward_reduced */\n      tag_141\n      jump\t// in\n        /* \"contracts/Stakable-2.0.sol\":8179:8333  SafeERC20.safeTransfer(... */\n    tag_238:\n        /* \"contracts/Stakable-2.0.sol\":7998:8344  {... */\n      pop\n      pop\n        /* \"contracts/Stakable-2.0.sol\":7952:8524  if (user_stake.releaseTime > block.timestamp) {... */\n      jump(tag_241)\n    tag_235:\n        /* \"contracts/Stakable-2.0.sol\":8411:8424  token_address */\n      sload(0x0b)\n        /* \"contracts/Stakable-2.0.sol\":8472:8489  user_stake.amount */\n      dup3\n      mload\n        /* \"contracts/Stakable-2.0.sol\":8364:8513  SafeERC20.safeTransfer(... */\n      tag_241\n      swap2\n      sub(shl(0xa0, 0x01), 0x01)\n        /* \"contracts/Stakable-2.0.sol\":8411:8424  token_address */\n      and\n      swap1\n        /* \"contracts/Stakable-2.0.sol\":8443:8453  msg.sender */\n      caller\n      swap1\n        /* \"contracts/Stakable-2.0.sol\":8472:8498  user_stake.amount + reward */\n      tag_194\n      swap1\n        /* \"contracts/Stakable-2.0.sol\":8492:8498  reward */\n      dup6\n      swap1\n        /* \"contracts/Stakable-2.0.sol\":8472:8498  user_stake.amount + reward */\n      tag_141\n      jump\t// in\n        /* \"contracts/Stakable-2.0.sol\":8364:8513  SafeERC20.safeTransfer(... */\n    tag_241:\n      pop\n      pop\n        /* \"@openzeppelin/contracts/security/ReentrancyGuard.sol\":1701:1702  1 */\n      0x01\n        /* \"@openzeppelin/contracts/security/ReentrancyGuard.sol\":2628:2635  _status */\n      0x00\n        /* \"@openzeppelin/contracts/security/ReentrancyGuard.sol\":2628:2650  _status = _NOT_ENTERED */\n      sstore\n        /* \"contracts/Stakable-2.0.sol\":7546:8530  function withdrawStake() external nonReentrant {... */\n      jump\t// out\n        /* \"contracts/Stakable-2.0.sol\":9672:9762  function startAirdrop() external onlyOwner {... */\n    tag_103:\n        /* \"@openzeppelin/contracts/access/Ownable.sol\":1108:1114  _owner */\n      and(sub(shl(0xa0, 0x01), 0x01), sload(0x01))\n        /* \"@openzeppelin/contracts/utils/Context.sol\":719:729  msg.sender */\n      caller\n        /* \"@openzeppelin/contracts/access/Ownable.sol\":1248:1271  owner() == _msgSender() */\n      eq\n        /* \"@openzeppelin/contracts/access/Ownable.sol\":1240:1308  require(owner() == _msgSender(), \"Ownable: caller is not the owner\") */\n      tag_247\n      jumpi\n      mload(0x40)\n      shl(0xe5, 0x461bcd)\n      dup2\n      mstore\n      0x04\n      add\n      tag_114\n      swap1\n      tag_135\n      jump\t// in\n    tag_247:\n        /* \"contracts/Stakable-2.0.sol\":9740:9755  block.timestamp */\n      timestamp\n        /* \"contracts/Stakable-2.0.sol\":9725:9737  airdropSince */\n      0x05\n        /* \"contracts/Stakable-2.0.sol\":9725:9755  airdropSince = block.timestamp */\n      sstore\n        /* \"contracts/Stakable-2.0.sol\":9672:9762  function startAirdrop() external onlyOwner {... */\n      jump\t// out\n        /* \"contracts/Stakable-2.0.sol\":9768:10002  function changeAirdropPercentage(uint256 amount) external onlyOwner {... */\n    tag_106:\n        /* \"@openzeppelin/contracts/access/Ownable.sol\":1108:1114  _owner */\n      and(sub(shl(0xa0, 0x01), 0x01), sload(0x01))\n        /* \"@openzeppelin/contracts/utils/Context.sol\":719:729  msg.sender */\n      caller\n        /* \"@openzeppelin/contracts/access/Ownable.sol\":1248:1271  owner() == _msgSender() */\n      eq\n        /* \"@openzeppelin/contracts/access/Ownable.sol\":1240:1308  require(owner() == _msgSender(), \"Ownable: caller is not the owner\") */\n      tag_253\n      jumpi\n      mload(0x40)\n      shl(0xe5, 0x461bcd)\n      dup2\n      mstore\n      0x04\n      add\n      tag_114\n      swap1\n      tag_135\n      jump\t// in\n    tag_253:\n        /* \"contracts/Stakable-2.0.sol\":9859:9862  200 */\n      0xc8\n        /* \"contracts/Stakable-2.0.sol\":9850:9856  amount */\n      dup2\n        /* \"contracts/Stakable-2.0.sol\":9850:9862  amount > 200 */\n      gt\n        /* \"contracts/Stakable-2.0.sol\":9846:9929  if (amount > 200) {... */\n      iszero\n      tag_256\n      jumpi\n        /* \"contracts/Stakable-2.0.sol\":9885:9918  Staking__airdropExceed20Percent() */\n      mload(0x40)\n      shl(0xe4, 0x0a552cf1)\n      dup2\n      mstore\n      0x04\n      add\n      mload(0x40)\n      dup1\n      swap2\n      sub\n      swap1\n      revert\n        /* \"contracts/Stakable-2.0.sol\":9846:9929  if (amount > 200) {... */\n    tag_256:\n        /* \"contracts/Stakable-2.0.sol\":9938:9949  airdropRate */\n      0x04\n        /* \"contracts/Stakable-2.0.sol\":9938:9958  airdropRate = amount */\n      dup2\n      swap1\n      sstore\n        /* \"contracts/Stakable-2.0.sol\":9973:9995  AirdropChanged(amount) */\n      mload(0x40)\n        /* \"#utility.yul\":1957:1982   */\n      dup2\n      dup2\n      mstore\n        /* \"contracts/Stakable-2.0.sol\":9973:9995  AirdropChanged(amount) */\n      0xcc672f1026b958c0cfbfdd89ebe8ddcbc127f16ec24da6c2c7a4de26a8b1857e\n      swap1\n        /* \"#utility.yul\":1945:1947   */\n      0x20\n        /* \"#utility.yul\":1930:1948   */\n      add\n        /* \"contracts/Stakable-2.0.sol\":9973:9995  AirdropChanged(amount) */\n      tag_224\n        /* \"#utility.yul\":1811:1988   */\n      jump\n        /* \"@openzeppelin/contracts/access/Ownable.sol\":1918:2116  function transferOwnership(address newOwner) public virtual onlyOwner {... */\n    tag_109:\n        /* \"@openzeppelin/contracts/access/Ownable.sol\":1108:1114  _owner */\n      and(sub(shl(0xa0, 0x01), 0x01), sload(0x01))\n        /* \"@openzeppelin/contracts/utils/Context.sol\":719:729  msg.sender */\n      caller\n        /* \"@openzeppelin/contracts/access/Ownable.sol\":1248:1271  owner() == _msgSender() */\n      eq\n        /* \"@openzeppelin/contracts/access/Ownable.sol\":1240:1308  require(owner() == _msgSender(), \"Ownable: caller is not the owner\") */\n      tag_261\n      jumpi\n      mload(0x40)\n      shl(0xe5, 0x461bcd)\n      dup2\n      mstore\n      0x04\n      add\n      tag_114\n      swap1\n      tag_135\n      jump\t// in\n    tag_261:\n      sub(shl(0xa0, 0x01), 0x01)\n        /* \"@openzeppelin/contracts/access/Ownable.sol\":2006:2028  newOwner != address(0) */\n      dup2\n      and\n        /* \"@openzeppelin/contracts/access/Ownable.sol\":1998:2071  require(newOwner != address(0), \"Ownable: new owner is the zero address\") */\n      tag_264\n      jumpi\n      mload(0x40)\n      shl(0xe5, 0x461bcd)\n      dup2\n      mstore\n        /* \"#utility.yul\":4615:4617   */\n      0x20\n        /* \"@openzeppelin/contracts/access/Ownable.sol\":1998:2071  require(newOwner != address(0), \"Ownable: new owner is the zero address\") */\n      0x04\n      dup3\n      add\n        /* \"#utility.yul\":4597:4618   */\n      mstore\n        /* \"#utility.yul\":4654:4656   */\n      0x26\n        /* \"#utility.yul\":4634:4652   */\n      0x24\n      dup3\n      add\n        /* \"#utility.yul\":4627:4657   */\n      mstore\n        /* \"#utility.yul\":4693:4727   */\n      0x4f776e61626c653a206e6577206f776e657220697320746865207a65726f2061\n        /* \"#utility.yul\":4673:4691   */\n      0x44\n      dup3\n      add\n        /* \"#utility.yul\":4666:4728   */\n      mstore\n      shl(0xd0, 0x646472657373)\n        /* \"#utility.yul\":4744:4762   */\n      0x64\n      dup3\n      add\n        /* \"#utility.yul\":4737:4773   */\n      mstore\n        /* \"#utility.yul\":4790:4809   */\n      0x84\n      add\n        /* \"@openzeppelin/contracts/access/Ownable.sol\":1998:2071  require(newOwner != address(0), \"Ownable: new owner is the zero address\") */\n      tag_114\n        /* \"#utility.yul\":4413:4815   */\n      jump\n        /* \"@openzeppelin/contracts/access/Ownable.sol\":1998:2071  require(newOwner != address(0), \"Ownable: new owner is the zero address\") */\n    tag_264:\n        /* \"@openzeppelin/contracts/access/Ownable.sol\":2081:2109  _transferOwnership(newOwner) */\n      tag_267\n        /* \"@openzeppelin/contracts/access/Ownable.sol\":2100:2108  newOwner */\n      dup2\n        /* \"@openzeppelin/contracts/access/Ownable.sol\":2081:2099  _transferOwnership */\n      tag_216\n        /* \"@openzeppelin/contracts/access/Ownable.sol\":2081:2109  _transferOwnership(newOwner) */\n      jump\t// in\n    tag_267:\n        /* \"@openzeppelin/contracts/access/Ownable.sol\":1918:2116  function transferOwnership(address newOwner) public virtual onlyOwner {... */\n      pop\n      jump\t// out\n        /* \"contracts/Stakable-2.0.sol\":12585:12681  function stopVoting() external onlyOwner votingStatusTrue {... */\n    tag_111:\n        /* \"@openzeppelin/contracts/access/Ownable.sol\":1108:1114  _owner */\n      and(sub(shl(0xa0, 0x01), 0x01), sload(0x01))\n        /* \"@openzeppelin/contracts/utils/Context.sol\":719:729  msg.sender */\n      caller\n        /* \"@openzeppelin/contracts/access/Ownable.sol\":1248:1271  owner() == _msgSender() */\n      eq\n        /* \"@openzeppelin/contracts/access/Ownable.sol\":1240:1308  require(owner() == _msgSender(), \"Ownable: caller is not the owner\") */\n      tag_271\n      jumpi\n      mload(0x40)\n      shl(0xe5, 0x461bcd)\n      dup2\n      mstore\n      0x04\n      add\n      tag_114\n      swap1\n      tag_135\n      jump\t// in\n    tag_271:\n        /* \"contracts/Stakable-2.0.sol\":3951:3971  _checkVotingStatus() */\n      tag_274\n        /* \"contracts/Stakable-2.0.sol\":3951:3969  _checkVotingStatus */\n      tag_118\n        /* \"contracts/Stakable-2.0.sol\":3951:3971  _checkVotingStatus() */\n      jump\t// in\n    tag_274:\n        /* \"contracts/Stakable-2.0.sol\":12653:12666  _votingStatus */\n      0x06\n        /* \"contracts/Stakable-2.0.sol\":12653:12674  _votingStatus = false */\n      dup1\n      sload\n      not(0xff)\n      and\n      swap1\n      sstore\n        /* \"contracts/Stakable-2.0.sol\":12585:12681  function stopVoting() external onlyOwner votingStatusTrue {... */\n      jump\t// out\n        /* \"contracts/Stakable-2.0.sol\":3703:3907  function _checkVotingStatus() internal view {... */\n    tag_118:\n        /* \"contracts/Stakable-2.0.sol\":3824:3837  _votingStatus */\n      and(0xff, sload(0x06))\n        /* \"contracts/Stakable-2.0.sol\":3819:3901  if (!_votingStatus) {... */\n      tag_215\n      jumpi\n        /* \"contracts/Stakable-2.0.sol\":3860:3890  Function__votingNotAvailable() */\n      mload(0x40)\n      shl(0xe2, 0x28746245)\n      dup2\n      mstore\n      0x04\n      add\n      mload(0x40)\n      dup1\n      swap2\n      sub\n      swap1\n      revert\n        /* \"contracts/Stakable-2.0.sol\":3403:3634  function _isVoter() internal view {... */\n    tag_121:\n        /* \"contracts/Stakable-2.0.sol\":3541:3551  msg.sender */\n      caller\n        /* \"contracts/Stakable-2.0.sol\":3534:3552  voters[msg.sender] */\n      0x00\n      swap1\n      dup2\n      mstore\n        /* \"contracts/Stakable-2.0.sol\":3534:3540  voters */\n      0x09\n        /* \"contracts/Stakable-2.0.sol\":3534:3552  voters[msg.sender] */\n      0x20\n      mstore\n      0x40\n      swap1\n      keccak256\n        /* \"contracts/Stakable-2.0.sol\":3534:3564  voters[msg.sender].votingRight */\n      sload\n      0xff\n      and\n        /* \"contracts/Stakable-2.0.sol\":3530:3628  if (voters[msg.sender].votingRight == false) {... */\n      tag_215\n      jumpi\n        /* \"contracts/Stakable-2.0.sol\":3596:3617  Function__notAVoter() */\n      mload(0x40)\n      shl(0xe2, 0x07959f75)\n      dup2\n      mstore\n      0x04\n      add\n      mload(0x40)\n      dup1\n      swap2\n      sub\n      swap1\n      revert\n        /* \"@openzeppelin/contracts/token/ERC20/utils/SafeERC20.sol\":912:1153  function safeTransferFrom(... */\n    tag_144:\n        /* \"@openzeppelin/contracts/token/ERC20/utils/SafeERC20.sol\":1077:1145  abi.encodeWithSelector(token.transferFrom.selector, from, to, value) */\n      mload(0x40)\n      sub(shl(0xa0, 0x01), 0x01)\n        /* \"#utility.yul\":5078:5093   */\n      dup1\n      dup6\n      and\n        /* \"@openzeppelin/contracts/token/ERC20/utils/SafeERC20.sol\":1077:1145  abi.encodeWithSelector(token.transferFrom.selector, from, to, value) */\n      0x24\n      dup4\n      add\n        /* \"#utility.yul\":5060:5094   */\n      mstore\n        /* \"#utility.yul\":5130:5145   */\n      dup4\n      and\n        /* \"#utility.yul\":5110:5128   */\n      0x44\n      dup3\n      add\n        /* \"#utility.yul\":5103:5146   */\n      mstore\n        /* \"#utility.yul\":5162:5180   */\n      0x64\n      dup2\n      add\n        /* \"#utility.yul\":5155:5189   */\n      dup3\n      swap1\n      mstore\n        /* \"@openzeppelin/contracts/token/ERC20/utils/SafeERC20.sol\":1050:1146  _callOptionalReturn(token, abi.encodeWithSelector(token.transferFrom.selector, from, to, value)) */\n      tag_282\n      swap1\n        /* \"@openzeppelin/contracts/token/ERC20/utils/SafeERC20.sol\":1070:1075  token */\n      dup6\n      swap1\n      shl(0xe0, 0x23b872dd)\n        /* \"@openzeppelin/contracts/token/ERC20/utils/SafeERC20.sol\":1100:1127  token.transferFrom.selector */\n      swap1\n        /* \"#utility.yul\":4995:5013   */\n      0x84\n      add\n        /* \"@openzeppelin/contracts/token/ERC20/utils/SafeERC20.sol\":1077:1145  abi.encodeWithSelector(token.transferFrom.selector, from, to, value) */\n    tag_283:\n      0x40\n      dup1\n      mload\n      not(0x1f)\n      dup2\n      dup5\n      sub\n      add\n      dup2\n      mstore\n      swap2\n      swap1\n      mstore\n      0x20\n      dup2\n      add\n      dup1\n      mload\n      sub(shl(0xe0, 0x01), 0x01)\n      and\n      not(sub(shl(0xe0, 0x01), 0x01))\n      swap1\n      swap4\n      and\n      swap3\n      swap1\n      swap3\n      or\n      swap1\n      swap2\n      mstore\n        /* \"@openzeppelin/contracts/token/ERC20/utils/SafeERC20.sol\":1050:1069  _callOptionalReturn */\n      tag_285\n        /* \"@openzeppelin/contracts/token/ERC20/utils/SafeERC20.sol\":1050:1146  _callOptionalReturn(token, abi.encodeWithSelector(token.transferFrom.selector, from, to, value)) */\n      jump\t// in\n    tag_282:\n        /* \"@openzeppelin/contracts/token/ERC20/utils/SafeERC20.sol\":912:1153  function safeTransferFrom(... */\n      pop\n      pop\n      pop\n      pop\n      jump\t// out\n        /* \"contracts/Stakable-2.0.sol\":6288:6725  function _calculateStakeReward(Stake memory user_stake)... */\n    tag_153:\n        /* \"contracts/Stakable-2.0.sol\":6418:6435  user_stake.amount */\n      dup1\n      mload\n        /* \"contracts/Stakable-2.0.sol\":6391:6398  uint256 */\n      0x00\n      swap1\n        /* \"contracts/Stakable-2.0.sol\":6414:6475  if (user_stake.amount == 0) {... */\n      tag_287\n      jumpi\n      pop\n        /* \"contracts/Stakable-2.0.sol\":6463:6464  0 */\n      0x00\n      swap2\n        /* \"contracts/Stakable-2.0.sol\":6288:6725  function _calculateStakeReward(Stake memory user_stake)... */\n      swap1\n      pop\n      jump\t// out\n        /* \"contracts/Stakable-2.0.sol\":6414:6475  if (user_stake.amount == 0) {... */\n    tag_287:\n        /* \"contracts/Stakable-2.0.sol\":6714:6718  1e26 */\n      0x52b7d2dcc80cd2e4000000\n        /* \"contracts/Stakable-2.0.sol\":6667:6710  _calculateStakingDuration(user_stake.since) */\n      tag_288\n        /* \"contracts/Stakable-2.0.sol\":6693:6703  user_stake */\n      dup4\n        /* \"contracts/Stakable-2.0.sol\":6693:6709  user_stake.since */\n      0x20\n      add\n      mload\n        /* \"contracts/Stakable-2.0.sol\":6667:6692  _calculateStakingDuration */\n      tag_289\n        /* \"contracts/Stakable-2.0.sol\":6667:6710  _calculateStakingDuration(user_stake.since) */\n      jump\t// in\n    tag_288:\n        /* \"contracts/Stakable-2.0.sol\":6628:6648  user_stake.rewardAPY */\n      0x40\n      dup5\n      add\n      mload\n        /* \"contracts/Stakable-2.0.sol\":6592:6609  user_stake.amount */\n      dup5\n      mload\n        /* \"contracts/Stakable-2.0.sol\":6592:6648  user_stake.amount *... */\n      tag_290\n      swap2\n        /* \"contracts/Stakable-2.0.sol\":6628:6648  user_stake.rewardAPY */\n      swap1\n        /* \"contracts/Stakable-2.0.sol\":6592:6648  user_stake.amount *... */\n      tag_156\n      jump\t// in\n    tag_290:\n        /* \"contracts/Stakable-2.0.sol\":6592:6710  user_stake.amount *... */\n      tag_227\n      swap2\n      swap1\n      tag_156\n      jump\t// in\n        /* \"contracts/Stakable-2.0.sol\":10250:10429  function _calculateAirdrop(uint256 stakeAmount)... */\n    tag_165:\n        /* \"contracts/Stakable-2.0.sol\":10345:10352  uint256 */\n      0x00\n        /* \"contracts/Stakable-2.0.sol\":10414:10422  52 weeks */\n      0x01dfe200\n        /* \"contracts/Stakable-2.0.sol\":10406:10410  1000 */\n      0x03e8\n        /* \"contracts/Stakable-2.0.sol\":10391:10402  airdropRate */\n      sload(0x04)\n        /* \"contracts/Stakable-2.0.sol\":10377:10388  stakeAmount */\n      dup5\n        /* \"contracts/Stakable-2.0.sol\":10377:10402  stakeAmount * airdropRate */\n      tag_294\n      swap2\n      swap1\n      tag_156\n      jump\t// in\n    tag_294:\n        /* \"contracts/Stakable-2.0.sol\":10376:10410  (stakeAmount * airdropRate) / 1000 */\n      tag_227\n      swap2\n      swap1\n      tag_158\n      jump\t// in\n        /* \"@openzeppelin/contracts/token/ERC20/utils/SafeERC20.sol\":701:906  function safeTransfer(... */\n    tag_195:\n        /* \"@openzeppelin/contracts/token/ERC20/utils/SafeERC20.sol\":840:898  abi.encodeWithSelector(token.transfer.selector, to, value) */\n      mload(0x40)\n      sub(shl(0xa0, 0x01), 0x01)\n        /* \"#utility.yul\":5392:5424   */\n      dup4\n      and\n        /* \"@openzeppelin/contracts/token/ERC20/utils/SafeERC20.sol\":840:898  abi.encodeWithSelector(token.transfer.selector, to, value) */\n      0x24\n      dup3\n      add\n        /* \"#utility.yul\":5374:5425   */\n      mstore\n        /* \"#utility.yul\":5441:5459   */\n      0x44\n      dup2\n      add\n        /* \"#utility.yul\":5434:5468   */\n      dup3\n      swap1\n      mstore\n        /* \"@openzeppelin/contracts/token/ERC20/utils/SafeERC20.sol\":813:899  _callOptionalReturn(token, abi.encodeWithSelector(token.transfer.selector, to, value)) */\n      tag_298\n      swap1\n        /* \"@openzeppelin/contracts/token/ERC20/utils/SafeERC20.sol\":833:838  token */\n      dup5\n      swap1\n      shl(0xe0, 0xa9059cbb)\n        /* \"@openzeppelin/contracts/token/ERC20/utils/SafeERC20.sol\":863:886  token.transfer.selector */\n      swap1\n        /* \"#utility.yul\":5347:5365   */\n      0x64\n      add\n        /* \"@openzeppelin/contracts/token/ERC20/utils/SafeERC20.sol\":840:898  abi.encodeWithSelector(token.transfer.selector, to, value) */\n      tag_283\n        /* \"#utility.yul\":5200:5474   */\n      jump\n        /* \"@openzeppelin/contracts/token/ERC20/utils/SafeERC20.sol\":813:899  _callOptionalReturn(token, abi.encodeWithSelector(token.transfer.selector, to, value)) */\n    tag_298:\n        /* \"@openzeppelin/contracts/token/ERC20/utils/SafeERC20.sol\":701:906  function safeTransfer(... */\n      pop\n      pop\n      pop\n      jump\t// out\n        /* \"@openzeppelin/contracts/access/Ownable.sol\":2270:2457  function _transferOwnership(address newOwner) internal virtual {... */\n    tag_216:\n        /* \"@openzeppelin/contracts/access/Ownable.sol\":2362:2368  _owner */\n      0x01\n      dup1\n      sload\n      sub(shl(0xa0, 0x01), 0x01)\n        /* \"@openzeppelin/contracts/access/Ownable.sol\":2378:2395  _owner = newOwner */\n      dup4\n      dup2\n      and\n      not(sub(shl(0xa0, 0x01), 0x01))\n      dup4\n      and\n      dup2\n      or\n      swap1\n      swap4\n      sstore\n        /* \"@openzeppelin/contracts/access/Ownable.sol\":2410:2450  OwnershipTransferred(oldOwner, newOwner) */\n      mload(0x40)\n        /* \"@openzeppelin/contracts/access/Ownable.sol\":2362:2368  _owner */\n      swap2\n      and\n      swap2\n        /* \"@openzeppelin/contracts/access/Ownable.sol\":2378:2395  _owner = newOwner */\n      swap1\n        /* \"@openzeppelin/contracts/access/Ownable.sol\":2362:2368  _owner */\n      dup3\n      swap1\n        /* \"@openzeppelin/contracts/access/Ownable.sol\":2410:2450  OwnershipTransferred(oldOwner, newOwner) */\n      0x8be0079c531659141344cd1fd0a4f28419497f9722a3daafe3b4186f6b6457e0\n      swap1\n        /* \"@openzeppelin/contracts/access/Ownable.sol\":2343:2359  address oldOwner */\n      0x00\n      swap1\n        /* \"@openzeppelin/contracts/access/Ownable.sol\":2410:2450  OwnershipTransferred(oldOwner, newOwner) */\n      log3\n        /* \"@openzeppelin/contracts/access/Ownable.sol\":2333:2457  {... */\n      pop\n        /* \"@openzeppelin/contracts/access/Ownable.sol\":2270:2457  function _transferOwnership(address newOwner) internal virtual {... */\n      pop\n      jump\t// out\n        /* \"contracts/Stakable-2.0.sol\":6731:7090  function _calculateStakingWithPenalty(uint256 amount, uint256 reward)... */\n    tag_237:\n        /* \"contracts/Stakable-2.0.sol\":6848:6855  uint256 */\n      0x00\n      dup1\n        /* \"contracts/Stakable-2.0.sol\":6884:6895  amount == 0 */\n      dup4\n        /* \"contracts/Stakable-2.0.sol\":6880:6935  if (amount == 0) {... */\n      tag_303\n      jumpi\n      pop\n        /* \"contracts/Stakable-2.0.sol\":6919:6920  0 */\n      0x00\n      swap1\n      pop\n      dup1\n        /* \"contracts/Stakable-2.0.sol\":6911:6924  return (0, 0) */\n      jump(tag_302)\n        /* \"contracts/Stakable-2.0.sol\":6880:6935  if (amount == 0) {... */\n    tag_303:\n        /* \"contracts/Stakable-2.0.sol\":7007:7011  1000 */\n      0x03e8\n        /* \"contracts/Stakable-2.0.sol\":6985:7003  stakingPenaltyRate */\n      sload(0x03)\n        /* \"contracts/Stakable-2.0.sol\":6976:6982  amount */\n      dup6\n        /* \"contracts/Stakable-2.0.sol\":6976:7003  amount * stakingPenaltyRate */\n      tag_304\n      swap2\n      swap1\n      tag_156\n      jump\t// in\n    tag_304:\n        /* \"contracts/Stakable-2.0.sol\":6975:7011  (amount * stakingPenaltyRate) / 1000 */\n      tag_305\n      swap2\n      swap1\n      tag_158\n      jump\t// in\n    tag_305:\n        /* \"contracts/Stakable-2.0.sol\":6965:7012  amount - ((amount * stakingPenaltyRate) / 1000) */\n      tag_306\n      swap1\n        /* \"contracts/Stakable-2.0.sol\":6965:6971  amount */\n      dup6\n        /* \"contracts/Stakable-2.0.sol\":6965:7012  amount - ((amount * stakingPenaltyRate) / 1000) */\n      tag_125\n      jump\t// in\n    tag_306:\n        /* \"contracts/Stakable-2.0.sol\":7068:7072  1000 */\n      0x03e8\n        /* \"contracts/Stakable-2.0.sol\":7046:7064  stakingPenaltyRate */\n      sload(0x03)\n        /* \"contracts/Stakable-2.0.sol\":7037:7043  reward */\n      dup6\n        /* \"contracts/Stakable-2.0.sol\":7037:7064  reward * stakingPenaltyRate */\n      tag_307\n      swap2\n      swap1\n      tag_156\n      jump\t// in\n    tag_307:\n        /* \"contracts/Stakable-2.0.sol\":7036:7072  (reward * stakingPenaltyRate) / 1000 */\n      tag_308\n      swap2\n      swap1\n      tag_158\n      jump\t// in\n    tag_308:\n        /* \"contracts/Stakable-2.0.sol\":7026:7073  reward - ((reward * stakingPenaltyRate) / 1000) */\n      tag_309\n      swap1\n        /* \"contracts/Stakable-2.0.sol\":7026:7032  reward */\n      dup6\n        /* \"contracts/Stakable-2.0.sol\":7026:7073  reward - ((reward * stakingPenaltyRate) / 1000) */\n      tag_125\n      jump\t// in\n    tag_309:\n        /* \"contracts/Stakable-2.0.sol\":6944:7083  return (... */\n      swap2\n      pop\n      swap2\n      pop\n        /* \"contracts/Stakable-2.0.sol\":6731:7090  function _calculateStakingWithPenalty(uint256 amount, uint256 reward)... */\n    tag_302:\n      swap3\n      pop\n      swap3\n      swap1\n      pop\n      jump\t// out\n        /* \"@openzeppelin/contracts/token/ERC20/utils/SafeERC20.sol\":3207:3913  function _callOptionalReturn(IERC20 token, bytes memory data) private {... */\n    tag_285:\n        /* \"@openzeppelin/contracts/token/ERC20/utils/SafeERC20.sol\":3626:3649  bytes memory returndata */\n      0x00\n        /* \"@openzeppelin/contracts/token/ERC20/utils/SafeERC20.sol\":3652:3721  address(token).functionCall(data, \"SafeERC20: low-level call failed\") */\n      tag_311\n        /* \"@openzeppelin/contracts/token/ERC20/utils/SafeERC20.sol\":3680:3684  data */\n      dup3\n        /* \"@openzeppelin/contracts/token/ERC20/utils/SafeERC20.sol\":3652:3721  address(token).functionCall(data, \"SafeERC20: low-level call failed\") */\n      mload(0x40)\n      dup1\n      0x40\n      add\n      0x40\n      mstore\n      dup1\n      0x20\n      dup2\n      mstore\n      0x20\n      add\n      0x5361666545524332303a206c6f772d6c6576656c2063616c6c206661696c6564\n      dup2\n      mstore\n      pop\n        /* \"@openzeppelin/contracts/token/ERC20/utils/SafeERC20.sol\":3660:3665  token */\n      dup6\n      sub(shl(0xa0, 0x01), 0x01)\n        /* \"@openzeppelin/contracts/token/ERC20/utils/SafeERC20.sol\":3652:3679  address(token).functionCall */\n      and\n      tag_312\n      swap1\n        /* \"@openzeppelin/contracts/token/ERC20/utils/SafeERC20.sol\":3652:3721  address(token).functionCall(data, \"SafeERC20: low-level call failed\") */\n      swap3\n      swap2\n      swap1\n      0xffffffff\n      and\n      jump\t// in\n    tag_311:\n        /* \"@openzeppelin/contracts/token/ERC20/utils/SafeERC20.sol\":3735:3752  returndata.length */\n      dup1\n      mload\n        /* \"@openzeppelin/contracts/token/ERC20/utils/SafeERC20.sol\":3626:3721  bytes memory returndata = address(token).functionCall(data, \"SafeERC20: low-level call failed\") */\n      swap1\n      swap2\n      pop\n        /* \"@openzeppelin/contracts/token/ERC20/utils/SafeERC20.sol\":3735:3756  returndata.length > 0 */\n      iszero\n        /* \"@openzeppelin/contracts/token/ERC20/utils/SafeERC20.sol\":3731:3907  if (returndata.length > 0) {... */\n      tag_298\n      jumpi\n        /* \"@openzeppelin/contracts/token/ERC20/utils/SafeERC20.sol\":3830:3840  returndata */\n      dup1\n        /* \"@openzeppelin/contracts/token/ERC20/utils/SafeERC20.sol\":3819:3849  abi.decode(returndata, (bool)) */\n      dup1\n      0x20\n      add\n      swap1\n      mload\n      dup2\n      add\n      swap1\n      tag_314\n      swap2\n      swap1\n      tag_315\n      jump\t// in\n    tag_314:\n        /* \"@openzeppelin/contracts/token/ERC20/utils/SafeERC20.sol\":3811:3896  require(abi.decode(returndata, (bool)), \"SafeERC20: ERC20 operation did not succeed\") */\n      tag_298\n      jumpi\n      mload(0x40)\n      shl(0xe5, 0x461bcd)\n      dup2\n      mstore\n        /* \"#utility.yul\":5963:5965   */\n      0x20\n        /* \"@openzeppelin/contracts/token/ERC20/utils/SafeERC20.sol\":3811:3896  require(abi.decode(returndata, (bool)), \"SafeERC20: ERC20 operation did not succeed\") */\n      0x04\n      dup3\n      add\n        /* \"#utility.yul\":5945:5966   */\n      mstore\n        /* \"#utility.yul\":6002:6004   */\n      0x2a\n        /* \"#utility.yul\":5982:6000   */\n      0x24\n      dup3\n      add\n        /* \"#utility.yul\":5975:6005   */\n      mstore\n        /* \"#utility.yul\":6041:6075   */\n      0x5361666545524332303a204552433230206f7065726174696f6e20646964206e\n        /* \"#utility.yul\":6021:6039   */\n      0x44\n      dup3\n      add\n        /* \"#utility.yul\":6014:6076   */\n      mstore\n      shl(0xb2, 0x1bdd081cdd58d8d95959)\n        /* \"#utility.yul\":6092:6110   */\n      0x64\n      dup3\n      add\n        /* \"#utility.yul\":6085:6125   */\n      mstore\n        /* \"#utility.yul\":6142:6161   */\n      0x84\n      add\n        /* \"@openzeppelin/contracts/token/ERC20/utils/SafeERC20.sol\":3811:3896  require(abi.decode(returndata, (bool)), \"SafeERC20: ERC20 operation did not succeed\") */\n      tag_114\n        /* \"#utility.yul\":5761:6167   */\n      jump\n        /* \"contracts/Stakable-2.0.sol\":6051:6282  function _calculateStakingDuration(uint256 since)... */\n    tag_289:\n        /* \"contracts/Stakable-2.0.sol\":6148:6155  uint256 */\n      0x00\n        /* \"contracts/Stakable-2.0.sol\":6267:6275  365 days */\n      0x01e13380\n        /* \"contracts/Stakable-2.0.sol\":6232:6255  block.timestamp - since */\n      tag_320\n        /* \"contracts/Stakable-2.0.sol\":6250:6255  since */\n      dup4\n        /* \"contracts/Stakable-2.0.sol\":6232:6247  block.timestamp */\n      timestamp\n        /* \"contracts/Stakable-2.0.sol\":6232:6255  block.timestamp - since */\n      tag_125\n      jump\t// in\n    tag_320:\n        /* \"contracts/Stakable-2.0.sol\":6231:6263  (block.timestamp - since) * 1e24 */\n      tag_227\n      swap1\n        /* \"contracts/Stakable-2.0.sol\":6259:6263  1e24 */\n      0xd3c21bcecceda1000000\n        /* \"contracts/Stakable-2.0.sol\":6231:6263  (block.timestamp - since) * 1e24 */\n      tag_156\n      jump\t// in\n        /* \"@openzeppelin/contracts/utils/Address.sol\":3861:4084  function functionCall(... */\n    tag_312:\n        /* \"@openzeppelin/contracts/utils/Address.sol\":3994:4006  bytes memory */\n      0x60\n        /* \"@openzeppelin/contracts/utils/Address.sol\":4025:4077  functionCallWithValue(target, data, 0, errorMessage) */\n      tag_324\n        /* \"@openzeppelin/contracts/utils/Address.sol\":4047:4053  target */\n      dup5\n        /* \"@openzeppelin/contracts/utils/Address.sol\":4055:4059  data */\n      dup5\n        /* \"@openzeppelin/contracts/utils/Address.sol\":4061:4062  0 */\n      0x00\n        /* \"@openzeppelin/contracts/utils/Address.sol\":4064:4076  errorMessage */\n      dup6\n        /* \"@openzeppelin/contracts/utils/Address.sol\":4025:4046  functionCallWithValue */\n      tag_325\n        /* \"@openzeppelin/contracts/utils/Address.sol\":4025:4077  functionCallWithValue(target, data, 0, errorMessage) */\n      jump\t// in\n    tag_324:\n        /* \"@openzeppelin/contracts/utils/Address.sol\":4018:4077  return functionCallWithValue(target, data, 0, errorMessage) */\n      swap1\n      pop\n        /* \"@openzeppelin/contracts/utils/Address.sol\":3861:4084  function functionCall(... */\n    tag_323:\n      swap4\n      swap3\n      pop\n      pop\n      pop\n      jump\t// out\n        /* \"@openzeppelin/contracts/utils/Address.sol\":4948:5447  function functionCallWithValue(... */\n    tag_325:\n        /* \"@openzeppelin/contracts/utils/Address.sol\":5113:5125  bytes memory */\n      0x60\n        /* \"@openzeppelin/contracts/utils/Address.sol\":5170:5175  value */\n      dup3\n        /* \"@openzeppelin/contracts/utils/Address.sol\":5145:5166  address(this).balance */\n      selfbalance\n        /* \"@openzeppelin/contracts/utils/Address.sol\":5145:5175  address(this).balance >= value */\n      lt\n      iszero\n        /* \"@openzeppelin/contracts/utils/Address.sol\":5137:5218  require(address(this).balance >= value, \"Address: insufficient balance for call\") */\n      tag_327\n      jumpi\n      mload(0x40)\n      shl(0xe5, 0x461bcd)\n      dup2\n      mstore\n        /* \"#utility.yul\":6374:6376   */\n      0x20\n        /* \"@openzeppelin/contracts/utils/Address.sol\":5137:5218  require(address(this).balance >= value, \"Address: insufficient balance for call\") */\n      0x04\n      dup3\n      add\n        /* \"#utility.yul\":6356:6377   */\n      mstore\n        /* \"#utility.yul\":6413:6415   */\n      0x26\n        /* \"#utility.yul\":6393:6411   */\n      0x24\n      dup3\n      add\n        /* \"#utility.yul\":6386:6416   */\n      mstore\n        /* \"#utility.yul\":6452:6486   */\n      0x416464726573733a20696e73756666696369656e742062616c616e636520666f\n        /* \"#utility.yul\":6432:6450   */\n      0x44\n      dup3\n      add\n        /* \"#utility.yul\":6425:6487   */\n      mstore\n      shl(0xd2, 0x1c8818d85b1b)\n        /* \"#utility.yul\":6503:6521   */\n      0x64\n      dup3\n      add\n        /* \"#utility.yul\":6496:6532   */\n      mstore\n        /* \"#utility.yul\":6549:6568   */\n      0x84\n      add\n        /* \"@openzeppelin/contracts/utils/Address.sol\":5137:5218  require(address(this).balance >= value, \"Address: insufficient balance for call\") */\n      tag_114\n        /* \"#utility.yul\":6172:6574   */\n      jump\n        /* \"@openzeppelin/contracts/utils/Address.sol\":5137:5218  require(address(this).balance >= value, \"Address: insufficient balance for call\") */\n    tag_327:\n      sub(shl(0xa0, 0x01), 0x01)\n        /* \"@openzeppelin/contracts/utils/Address.sol\":1465:1484  account.code.length */\n      dup6\n      and\n      extcodesize\n        /* \"@openzeppelin/contracts/utils/Address.sol\":5228:5288  require(isContract(target), \"Address: call to non-contract\") */\n      tag_332\n      jumpi\n      mload(0x40)\n      shl(0xe5, 0x461bcd)\n      dup2\n      mstore\n        /* \"#utility.yul\":6781:6783   */\n      0x20\n        /* \"@openzeppelin/contracts/utils/Address.sol\":5228:5288  require(isContract(target), \"Address: call to non-contract\") */\n      0x04\n      dup3\n      add\n        /* \"#utility.yul\":6763:6784   */\n      mstore\n        /* \"#utility.yul\":6820:6822   */\n      0x1d\n        /* \"#utility.yul\":6800:6818   */\n      0x24\n      dup3\n      add\n        /* \"#utility.yul\":6793:6823   */\n      mstore\n        /* \"#utility.yul\":6859:6890   */\n      0x416464726573733a2063616c6c20746f206e6f6e2d636f6e7472616374000000\n        /* \"#utility.yul\":6839:6857   */\n      0x44\n      dup3\n      add\n        /* \"#utility.yul\":6832:6891   */\n      mstore\n        /* \"#utility.yul\":6908:6926   */\n      0x64\n      add\n        /* \"@openzeppelin/contracts/utils/Address.sol\":5228:5288  require(isContract(target), \"Address: call to non-contract\") */\n      tag_114\n        /* \"#utility.yul\":6579:6932   */\n      jump\n        /* \"@openzeppelin/contracts/utils/Address.sol\":5228:5288  require(isContract(target), \"Address: call to non-contract\") */\n    tag_332:\n        /* \"@openzeppelin/contracts/utils/Address.sol\":5300:5312  bool success */\n      0x00\n        /* \"@openzeppelin/contracts/utils/Address.sol\":5314:5337  bytes memory returndata */\n      dup1\n        /* \"@openzeppelin/contracts/utils/Address.sol\":5341:5347  target */\n      dup7\n      sub(shl(0xa0, 0x01), 0x01)\n        /* \"@openzeppelin/contracts/utils/Address.sol\":5341:5352  target.call */\n      and\n        /* \"@openzeppelin/contracts/utils/Address.sol\":5360:5365  value */\n      dup6\n        /* \"@openzeppelin/contracts/utils/Address.sol\":5367:5371  data */\n      dup8\n        /* \"@openzeppelin/contracts/utils/Address.sol\":5341:5372  target.call{value: value}(data) */\n      mload(0x40)\n      tag_335\n      swap2\n      swap1\n      tag_336\n      jump\t// in\n    tag_335:\n      0x00\n      mload(0x40)\n      dup1\n      dup4\n      sub\n      dup2\n      dup6\n      dup8\n      gas\n      call\n      swap3\n      pop\n      pop\n      pop\n      returndatasize\n      dup1\n      0x00\n      dup2\n      eq\n      tag_339\n      jumpi\n      mload(0x40)\n      swap2\n      pop\n      and(add(returndatasize, 0x3f), not(0x1f))\n      dup3\n      add\n      0x40\n      mstore\n      returndatasize\n      dup3\n      mstore\n      returndatasize\n      0x00\n      0x20\n      dup5\n      add\n      returndatacopy\n      jump(tag_338)\n    tag_339:\n      0x60\n      swap2\n      pop\n    tag_338:\n      pop\n        /* \"@openzeppelin/contracts/utils/Address.sol\":5299:5372  (bool success, bytes memory returndata) = target.call{value: value}(data) */\n      swap2\n      pop\n      swap2\n      pop\n        /* \"@openzeppelin/contracts/utils/Address.sol\":5389:5440  verifyCallResult(success, returndata, errorMessage) */\n      tag_340\n        /* \"@openzeppelin/contracts/utils/Address.sol\":5406:5413  success */\n      dup3\n        /* \"@openzeppelin/contracts/utils/Address.sol\":5415:5425  returndata */\n      dup3\n        /* \"@openzeppelin/contracts/utils/Address.sol\":5427:5439  errorMessage */\n      dup7\n        /* \"@openzeppelin/contracts/utils/Address.sol\":5389:5405  verifyCallResult */\n      tag_341\n        /* \"@openzeppelin/contracts/utils/Address.sol\":5389:5440  verifyCallResult(success, returndata, errorMessage) */\n      jump\t// in\n    tag_340:\n        /* \"@openzeppelin/contracts/utils/Address.sol\":5382:5440  return verifyCallResult(success, returndata, errorMessage) */\n      swap8\n        /* \"@openzeppelin/contracts/utils/Address.sol\":4948:5447  function functionCallWithValue(... */\n      swap7\n      pop\n      pop\n      pop\n      pop\n      pop\n      pop\n      pop\n      jump\t// out\n        /* \"@openzeppelin/contracts/utils/Address.sol\":7561:8253  function verifyCallResult(... */\n    tag_341:\n        /* \"@openzeppelin/contracts/utils/Address.sol\":7707:7719  bytes memory */\n      0x60\n        /* \"@openzeppelin/contracts/utils/Address.sol\":7735:7742  success */\n      dup4\n        /* \"@openzeppelin/contracts/utils/Address.sol\":7731:8247  if (success) {... */\n      iszero\n      tag_344\n      jumpi\n      pop\n        /* \"@openzeppelin/contracts/utils/Address.sol\":7765:7775  returndata */\n      dup2\n        /* \"@openzeppelin/contracts/utils/Address.sol\":7758:7775  return returndata */\n      jump(tag_323)\n        /* \"@openzeppelin/contracts/utils/Address.sol\":7731:8247  if (success) {... */\n    tag_344:\n        /* \"@openzeppelin/contracts/utils/Address.sol\":7876:7893  returndata.length */\n      dup3\n      mload\n        /* \"@openzeppelin/contracts/utils/Address.sol\":7876:7897  returndata.length > 0 */\n      iszero\n        /* \"@openzeppelin/contracts/utils/Address.sol\":7872:8237  if (returndata.length > 0) {... */\n      tag_346\n      jumpi\n        /* \"@openzeppelin/contracts/utils/Address.sol\":8070:8080  returndata */\n      dup3\n        /* \"@openzeppelin/contracts/utils/Address.sol\":8064:8081  mload(returndata) */\n      mload\n        /* \"@openzeppelin/contracts/utils/Address.sol\":8130:8145  returndata_size */\n      dup1\n        /* \"@openzeppelin/contracts/utils/Address.sol\":8117:8127  returndata */\n      dup5\n        /* \"@openzeppelin/contracts/utils/Address.sol\":8113:8115  32 */\n      0x20\n        /* \"@openzeppelin/contracts/utils/Address.sol\":8109:8128  add(32, returndata) */\n      add\n        /* \"@openzeppelin/contracts/utils/Address.sol\":8102:8146  revert(add(32, returndata), returndata_size) */\n      revert\n        /* \"@openzeppelin/contracts/utils/Address.sol\":7872:8237  if (returndata.length > 0) {... */\n    tag_346:\n        /* \"@openzeppelin/contracts/utils/Address.sol\":8209:8221  errorMessage */\n      dup2\n        /* \"@openzeppelin/contracts/utils/Address.sol\":8202:8222  revert(errorMessage) */\n      mload(0x40)\n      shl(0xe5, 0x461bcd)\n      dup2\n      mstore\n      0x04\n      add\n      tag_114\n      swap2\n      swap1\n      tag_349\n      jump\t// in\n    tag_149:\n      mload(0x40)\n      dup1\n      0x60\n      add\n      0x40\n      mstore\n      dup1\n      0x00\n      dup2\n      mstore\n      0x20\n      add\n      0x00\n      dup2\n      mstore\n      0x20\n      add\n      tag_350\n      mload(0x40)\n      dup1\n      0xe0\n      add\n      0x40\n      mstore\n      dup1\n      0x00\n      dup2\n      mstore\n      0x20\n      add\n      0x00\n      dup2\n      mstore\n      0x20\n      add\n      0x00\n      dup2\n      mstore\n      0x20\n      add\n      0x00\n      dup2\n      mstore\n      0x20\n      add\n      0x00\n      dup2\n      mstore\n      0x20\n      add\n      0x00\n      dup2\n      mstore\n      0x20\n      add\n      0x00\n      dup2\n      mstore\n      pop\n      swap1\n      jump\n    tag_350:\n      swap1\n      mstore\n      swap1\n      jump\t// out\n        /* \"#utility.yul\":14:187   */\n    tag_352:\n        /* \"#utility.yul\":82:102   */\n      dup1\n      calldataload\n      sub(shl(0xa0, 0x01), 0x01)\n        /* \"#utility.yul\":131:162   */\n      dup2\n      and\n        /* \"#utility.yul\":121:163   */\n      dup2\n      eq\n        /* \"#utility.yul\":111:181   */\n      tag_357\n      jumpi\n        /* \"#utility.yul\":177:178   */\n      0x00\n        /* \"#utility.yul\":174:175   */\n      dup1\n        /* \"#utility.yul\":167:179   */\n      revert\n        /* \"#utility.yul\":111:181   */\n    tag_357:\n        /* \"#utility.yul\":14:187   */\n      swap2\n      swap1\n      pop\n      jump\t// out\n        /* \"#utility.yul\":192:514   */\n    tag_36:\n        /* \"#utility.yul\":269:275   */\n      0x00\n        /* \"#utility.yul\":277:283   */\n      dup1\n        /* \"#utility.yul\":285:291   */\n      0x00\n        /* \"#utility.yul\":338:340   */\n      0x60\n        /* \"#utility.yul\":326:335   */\n      dup5\n        /* \"#utility.yul\":317:324   */\n      dup7\n        /* \"#utility.yul\":313:336   */\n      sub\n        /* \"#utility.yul\":309:341   */\n      slt\n        /* \"#utility.yul\":306:358   */\n      iszero\n      tag_359\n      jumpi\n        /* \"#utility.yul\":354:355   */\n      0x00\n        /* \"#utility.yul\":351:352   */\n      dup1\n        /* \"#utility.yul\":344:356   */\n      revert\n        /* \"#utility.yul\":306:358   */\n    tag_359:\n        /* \"#utility.yul\":377:406   */\n      tag_360\n        /* \"#utility.yul\":396:405   */\n      dup5\n        /* \"#utility.yul\":377:406   */\n      tag_352\n      jump\t// in\n    tag_360:\n        /* \"#utility.yul\":367:406   */\n      swap6\n        /* \"#utility.yul\":453:455   */\n      0x20\n        /* \"#utility.yul\":438:456   */\n      dup6\n      add\n        /* \"#utility.yul\":425:457   */\n      calldataload\n      swap6\n      pop\n        /* \"#utility.yul\":504:506   */\n      0x40\n        /* \"#utility.yul\":489:507   */\n      swap1\n      swap5\n      add\n        /* \"#utility.yul\":476:508   */\n      calldataload\n      swap4\n        /* \"#utility.yul\":192:514   */\n      swap3\n      pop\n      pop\n      pop\n      jump\t// out\n        /* \"#utility.yul\":1347:1533   */\n    tag_46:\n        /* \"#utility.yul\":1406:1412   */\n      0x00\n        /* \"#utility.yul\":1459:1461   */\n      0x20\n        /* \"#utility.yul\":1447:1456   */\n      dup3\n        /* \"#utility.yul\":1438:1445   */\n      dup5\n        /* \"#utility.yul\":1434:1457   */\n      sub\n        /* \"#utility.yul\":1430:1462   */\n      slt\n        /* \"#utility.yul\":1427:1479   */\n      iszero\n      tag_363\n      jumpi\n        /* \"#utility.yul\":1475:1476   */\n      0x00\n        /* \"#utility.yul\":1472:1473   */\n      dup1\n        /* \"#utility.yul\":1465:1477   */\n      revert\n        /* \"#utility.yul\":1427:1479   */\n    tag_363:\n        /* \"#utility.yul\":1498:1527   */\n      tag_323\n        /* \"#utility.yul\":1517:1526   */\n      dup3\n        /* \"#utility.yul\":1498:1527   */\n      tag_352\n      jump\t// in\n        /* \"#utility.yul\":2185:2365   */\n    tag_70:\n        /* \"#utility.yul\":2244:2250   */\n      0x00\n        /* \"#utility.yul\":2297:2299   */\n      0x20\n        /* \"#utility.yul\":2285:2294   */\n      dup3\n        /* \"#utility.yul\":2276:2283   */\n      dup5\n        /* \"#utility.yul\":2272:2295   */\n      sub\n        /* \"#utility.yul\":2268:2300   */\n      slt\n        /* \"#utility.yul\":2265:2317   */\n      iszero\n      tag_369\n      jumpi\n        /* \"#utility.yul\":2313:2314   */\n      0x00\n        /* \"#utility.yul\":2310:2311   */\n      dup1\n        /* \"#utility.yul\":2303:2315   */\n      revert\n        /* \"#utility.yul\":2265:2317   */\n    tag_369:\n      pop\n        /* \"#utility.yul\":2336:2359   */\n      calldataload\n      swap2\n        /* \"#utility.yul\":2185:2365   */\n      swap1\n      pop\n      jump\t// out\n        /* \"#utility.yul\":2578:2933   */\n    tag_115:\n        /* \"#utility.yul\":2780:2782   */\n      0x20\n        /* \"#utility.yul\":2762:2783   */\n      dup1\n      dup3\n      mstore\n        /* \"#utility.yul\":2819:2821   */\n      0x1f\n        /* \"#utility.yul\":2799:2817   */\n      swap1\n      dup3\n      add\n        /* \"#utility.yul\":2792:2822   */\n      mstore\n        /* \"#utility.yul\":2858:2891   */\n      0x5265656e7472616e637947756172643a207265656e7472616e742063616c6c00\n        /* \"#utility.yul\":2853:2855   */\n      0x40\n        /* \"#utility.yul\":2838:2856   */\n      dup3\n      add\n        /* \"#utility.yul\":2831:2892   */\n      mstore\n        /* \"#utility.yul\":2924:2926   */\n      0x60\n        /* \"#utility.yul\":2909:2927   */\n      add\n      swap1\n        /* \"#utility.yul\":2578:2933   */\n      jump\t// out\n        /* \"#utility.yul\":2938:3065   */\n    tag_353:\n        /* \"#utility.yul\":2999:3009   */\n      0x4e487b71\n        /* \"#utility.yul\":2994:2997   */\n      0xe0\n        /* \"#utility.yul\":2990:3010   */\n      shl\n        /* \"#utility.yul\":2987:2988   */\n      0x00\n        /* \"#utility.yul\":2980:3011   */\n      mstore\n        /* \"#utility.yul\":3030:3034   */\n      0x11\n        /* \"#utility.yul\":3027:3028   */\n      0x04\n        /* \"#utility.yul\":3020:3035   */\n      mstore\n        /* \"#utility.yul\":3054:3058   */\n      0x24\n        /* \"#utility.yul\":3051:3052   */\n      0x00\n        /* \"#utility.yul\":3044:3059   */\n      revert\n        /* \"#utility.yul\":3070:3195   */\n    tag_125:\n        /* \"#utility.yul\":3110:3114   */\n      0x00\n        /* \"#utility.yul\":3138:3139   */\n      dup3\n        /* \"#utility.yul\":3135:3136   */\n      dup3\n        /* \"#utility.yul\":3132:3140   */\n      lt\n        /* \"#utility.yul\":3129:3163   */\n      iszero\n      tag_375\n      jumpi\n        /* \"#utility.yul\":3143:3161   */\n      tag_375\n      tag_353\n      jump\t// in\n    tag_375:\n      pop\n        /* \"#utility.yul\":3180:3189   */\n      sub\n      swap1\n        /* \"#utility.yul\":3070:3195   */\n      jump\t// out\n        /* \"#utility.yul\":3200:3556   */\n    tag_135:\n        /* \"#utility.yul\":3402:3404   */\n      0x20\n        /* \"#utility.yul\":3384:3405   */\n      dup1\n      dup3\n      mstore\n        /* \"#utility.yul\":3421:3439   */\n      dup2\n      dup2\n      add\n        /* \"#utility.yul\":3414:3444   */\n      mstore\n        /* \"#utility.yul\":3480:3514   */\n      0x4f776e61626c653a2063616c6c6572206973206e6f7420746865206f776e6572\n        /* \"#utility.yul\":3475:3477   */\n      0x40\n        /* \"#utility.yul\":3460:3478   */\n      dup3\n      add\n        /* \"#utility.yul\":3453:3515   */\n      mstore\n        /* \"#utility.yul\":3547:3549   */\n      0x60\n        /* \"#utility.yul\":3532:3550   */\n      add\n      swap1\n        /* \"#utility.yul\":3200:3556   */\n      jump\t// out\n        /* \"#utility.yul\":3561:3689   */\n    tag_141:\n        /* \"#utility.yul\":3601:3604   */\n      0x00\n        /* \"#utility.yul\":3632:3633   */\n      dup3\n        /* \"#utility.yul\":3628:3634   */\n      not\n        /* \"#utility.yul\":3625:3626   */\n      dup3\n        /* \"#utility.yul\":3622:3635   */\n      gt\n        /* \"#utility.yul\":3619:3658   */\n      iszero\n      tag_379\n      jumpi\n        /* \"#utility.yul\":3638:3656   */\n      tag_379\n      tag_353\n      jump\t// in\n    tag_379:\n      pop\n        /* \"#utility.yul\":3674:3683   */\n      add\n      swap1\n        /* \"#utility.yul\":3561:3689   */\n      jump\t// out\n        /* \"#utility.yul\":4018:4186   */\n    tag_156:\n        /* \"#utility.yul\":4058:4065   */\n      0x00\n        /* \"#utility.yul\":4124:4125   */\n      dup2\n        /* \"#utility.yul\":4120:4121   */\n      0x00\n        /* \"#utility.yul\":4116:4122   */\n      not\n        /* \"#utility.yul\":4112:4126   */\n      div\n        /* \"#utility.yul\":4109:4110   */\n      dup4\n        /* \"#utility.yul\":4106:4127   */\n      gt\n        /* \"#utility.yul\":4101:4102   */\n      dup3\n        /* \"#utility.yul\":4094:4103   */\n      iszero\n        /* \"#utility.yul\":4087:4104   */\n      iszero\n        /* \"#utility.yul\":4083:4128   */\n      and\n        /* \"#utility.yul\":4080:4151   */\n      iszero\n      tag_383\n      jumpi\n        /* \"#utility.yul\":4131:4149   */\n      tag_383\n      tag_353\n      jump\t// in\n    tag_383:\n      pop\n        /* \"#utility.yul\":4171:4180   */\n      mul\n      swap1\n        /* \"#utility.yul\":4018:4186   */\n      jump\t// out\n        /* \"#utility.yul\":4191:4408   */\n    tag_158:\n        /* \"#utility.yul\":4231:4232   */\n      0x00\n        /* \"#utility.yul\":4257:4258   */\n      dup3\n        /* \"#utility.yul\":4247:4379   */\n      tag_385\n      jumpi\n        /* \"#utility.yul\":4301:4311   */\n      0x4e487b71\n        /* \"#utility.yul\":4296:4299   */\n      0xe0\n        /* \"#utility.yul\":4292:4312   */\n      shl\n        /* \"#utility.yul\":4289:4290   */\n      0x00\n        /* \"#utility.yul\":4282:4313   */\n      mstore\n        /* \"#utility.yul\":4336:4340   */\n      0x12\n        /* \"#utility.yul\":4333:4334   */\n      0x04\n        /* \"#utility.yul\":4326:4341   */\n      mstore\n        /* \"#utility.yul\":4364:4368   */\n      0x24\n        /* \"#utility.yul\":4361:4362   */\n      0x00\n        /* \"#utility.yul\":4354:4369   */\n      revert\n        /* \"#utility.yul\":4247:4379   */\n    tag_385:\n      pop\n        /* \"#utility.yul\":4393:4402   */\n      div\n      swap1\n        /* \"#utility.yul\":4191:4408   */\n      jump\t// out\n        /* \"#utility.yul\":5479:5756   */\n    tag_315:\n        /* \"#utility.yul\":5546:5552   */\n      0x00\n        /* \"#utility.yul\":5599:5601   */\n      0x20\n        /* \"#utility.yul\":5587:5596   */\n      dup3\n        /* \"#utility.yul\":5578:5585   */\n      dup5\n        /* \"#utility.yul\":5574:5597   */\n      sub\n        /* \"#utility.yul\":5570:5602   */\n      slt\n        /* \"#utility.yul\":5567:5619   */\n      iszero\n      tag_390\n      jumpi\n        /* \"#utility.yul\":5615:5616   */\n      0x00\n        /* \"#utility.yul\":5612:5613   */\n      dup1\n        /* \"#utility.yul\":5605:5617   */\n      revert\n        /* \"#utility.yul\":5567:5619   */\n    tag_390:\n        /* \"#utility.yul\":5647:5656   */\n      dup2\n        /* \"#utility.yul\":5641:5657   */\n      mload\n        /* \"#utility.yul\":5700:5705   */\n      dup1\n        /* \"#utility.yul\":5693:5706   */\n      iszero\n        /* \"#utility.yul\":5686:5707   */\n      iszero\n        /* \"#utility.yul\":5679:5684   */\n      dup2\n        /* \"#utility.yul\":5676:5708   */\n      eq\n        /* \"#utility.yul\":5666:5726   */\n      tag_323\n      jumpi\n        /* \"#utility.yul\":5722:5723   */\n      0x00\n        /* \"#utility.yul\":5719:5720   */\n      dup1\n        /* \"#utility.yul\":5712:5724   */\n      revert\n        /* \"#utility.yul\":6937:7195   */\n    tag_354:\n        /* \"#utility.yul\":7009:7010   */\n      0x00\n        /* \"#utility.yul\":7019:7132   */\n    tag_396:\n        /* \"#utility.yul\":7033:7039   */\n      dup4\n        /* \"#utility.yul\":7030:7031   */\n      dup2\n        /* \"#utility.yul\":7027:7040   */\n      lt\n        /* \"#utility.yul\":7019:7132   */\n      iszero\n      tag_398\n      jumpi\n        /* \"#utility.yul\":7109:7120   */\n      dup2\n      dup2\n      add\n        /* \"#utility.yul\":7103:7121   */\n      mload\n        /* \"#utility.yul\":7090:7101   */\n      dup4\n      dup3\n      add\n        /* \"#utility.yul\":7083:7122   */\n      mstore\n        /* \"#utility.yul\":7055:7057   */\n      0x20\n        /* \"#utility.yul\":7048:7058   */\n      add\n        /* \"#utility.yul\":7019:7132   */\n      jump(tag_396)\n    tag_398:\n        /* \"#utility.yul\":7150:7156   */\n      dup4\n        /* \"#utility.yul\":7147:7148   */\n      dup2\n        /* \"#utility.yul\":7144:7157   */\n      gt\n        /* \"#utility.yul\":7141:7189   */\n      iszero\n      tag_282\n      jumpi\n      pop\n      pop\n        /* \"#utility.yul\":7185:7186   */\n      0x00\n        /* \"#utility.yul\":7167:7183   */\n      swap2\n      add\n        /* \"#utility.yul\":7160:7187   */\n      mstore\n        /* \"#utility.yul\":6937:7195   */\n      jump\t// out\n        /* \"#utility.yul\":7200:7474   */\n    tag_336:\n        /* \"#utility.yul\":7329:7332   */\n      0x00\n        /* \"#utility.yul\":7367:7373   */\n      dup3\n        /* \"#utility.yul\":7361:7374   */\n      mload\n        /* \"#utility.yul\":7383:7436   */\n      tag_401\n        /* \"#utility.yul\":7429:7435   */\n      dup2\n        /* \"#utility.yul\":7424:7427   */\n      dup5\n        /* \"#utility.yul\":7417:7421   */\n      0x20\n        /* \"#utility.yul\":7409:7415   */\n      dup8\n        /* \"#utility.yul\":7405:7422   */\n      add\n        /* \"#utility.yul\":7383:7436   */\n      tag_354\n      jump\t// in\n    tag_401:\n        /* \"#utility.yul\":7452:7468   */\n      swap2\n      swap1\n      swap2\n      add\n      swap3\n        /* \"#utility.yul\":7200:7474   */\n      swap2\n      pop\n      pop\n      jump\t// out\n        /* \"#utility.yul\":7479:7862   */\n    tag_349:\n        /* \"#utility.yul\":7628:7630   */\n      0x20\n        /* \"#utility.yul\":7617:7626   */\n      dup2\n        /* \"#utility.yul\":7610:7631   */\n      mstore\n        /* \"#utility.yul\":7591:7595   */\n      0x00\n        /* \"#utility.yul\":7660:7666   */\n      dup3\n        /* \"#utility.yul\":7654:7667   */\n      mload\n        /* \"#utility.yul\":7703:7709   */\n      dup1\n        /* \"#utility.yul\":7698:7700   */\n      0x20\n        /* \"#utility.yul\":7687:7696   */\n      dup5\n        /* \"#utility.yul\":7683:7701   */\n      add\n        /* \"#utility.yul\":7676:7710   */\n      mstore\n        /* \"#utility.yul\":7719:7785   */\n      tag_403\n        /* \"#utility.yul\":7778:7784   */\n      dup2\n        /* \"#utility.yul\":7773:7775   */\n      0x40\n        /* \"#utility.yul\":7762:7771   */\n      dup6\n        /* \"#utility.yul\":7758:7776   */\n      add\n        /* \"#utility.yul\":7753:7755   */\n      0x20\n        /* \"#utility.yul\":7745:7751   */\n      dup8\n        /* \"#utility.yul\":7741:7756   */\n      add\n        /* \"#utility.yul\":7719:7785   */\n      tag_354\n      jump\t// in\n    tag_403:\n        /* \"#utility.yul\":7846:7848   */\n      0x1f\n        /* \"#utility.yul\":7825:7840   */\n      add\n      not(0x1f)\n        /* \"#utility.yul\":7821:7850   */\n      and\n        /* \"#utility.yul\":7806:7851   */\n      swap2\n      swap1\n      swap2\n      add\n        /* \"#utility.yul\":7853:7855   */\n      0x40\n        /* \"#utility.yul\":7802:7856   */\n      add\n      swap3\n        /* \"#utility.yul\":7479:7862   */\n      swap2\n      pop\n      pop\n      jump\t// out\n\n    auxdata: 0xa264697066735822122070e323b630324233ea1a0e438a5bcdf17f706262d82b9e19729a85e3e15e049b64736f6c634300080b0033\n}\n",
				"bytecode": {
					"linkReferences": {},
					"object": "608060405234801561001057600080fd5b5060405161170c38038061170c83398101604081905261002f91610137565b600160005561003d336100e5565b600f6003556050600455600b80546001600160a01b0319166001600160a01b0392909216919091179055600260205260067fa1ef5b42f18533d67a183a193ea6c3fabfaa3bdabc3fc0e3f65b19b517df6e8c5560077f089cfcbf844e824feee5f634cbc488382291f3c9e0de5905f3c30812390dd832556301e1338060005260087fdc083eb4da7563bbd761324b5158d9d40af7c7174afe39b0b31a7577c44fc33b55610167565b600180546001600160a01b038381166001600160a01b0319831681179093556040519116919082907f8be0079c531659141344cd1fd0a4f28419497f9722a3daafe3b4186f6b6457e090600090a35050565b60006020828403121561014957600080fd5b81516001600160a01b038116811461016057600080fd5b9392505050565b611596806101766000396000f3fe608060405234801561001057600080fd5b50600436106101735760003560e01c80638c8e8fee116100de578063bed9d86111610097578063d2a569c311610071578063d2a569c31461039a578063d5dbdf1b146103a2578063f2fde38b146103b5578063fab2f86b146103c857600080fd5b8063bed9d86114610383578063c63aa3e71461038b578063cb79c2e11461039157600080fd5b80638c8e8fee146102e85780638da5cb5b14610313578063a143a5f214610324578063a3ec138d14610344578063b5d9df8314610367578063b87da76d1461037a57600080fd5b8063632a9a5211610130578063632a9a521461029157806365f8c6c514610299578063671d2b75146102ac578063715018a6146102c45780638891cf0d146102cc5780638c63f97f146102d557600080fd5b8063070c8b74146101785780630c51b88f1461018257806310486b6a146101955780631ec6b60a146102155780632d15cc041461021d5780635f5300ff1461027a575b600080fd5b6101806103d0565b005b61018061019036600461136a565b61047e565b61019d6106a3565b60405161020c919060006101208201905082518252602083015160208301526040830151805160408401526020810151606084015260408101516080840152606081015160a0840152608081015160c084015260a081015160e084015260c08101516101008401525092915050565b60405180910390f35b6101806107f9565b61026361022b36600461139d565b6001600160a01b031660009081526009602090815260408083208054600754855260019091019092529091205460ff91821692911690565b60408051921515835290151560208301520161020c565b61028360085481565b60405190815260200161020c565b610180610896565b6101806102a736600461139d565b61095c565b6102b46109d9565b604051901515815260200161020c565b610180610a7a565b61028360045481565b6101806102e33660046113b8565b610ab0565b600b546102fb906001600160a01b031681565b6040516001600160a01b03909116815260200161020c565b6001546001600160a01b03166102fb565b6102836103323660046113b8565b600a6020526000908152604090205481565b6102b461035236600461139d565b60096020526000908152604090205460ff1681565b6102836103753660046113b8565b610b38565b61028360055481565b610180610b58565b42610283565b61028360035481565b610180610cd1565b6101806103b03660046113b8565b610d01565b6101806103c336600461139d565b610d82565b610180610e1d565b600260005414156103fc5760405162461bcd60e51b81526004016103f3906113d1565b60405180910390fd5b6002600055610409610e5b565b610411610e7e565b336000908152600960209081526040808320600754845260010190915290205460ff16610450576040516245ba1160e91b815260040160405180910390fd5b6007546000908152600a6020526040812080546001929061047290849061141e565b90915550506001600055565b600260005414156104a15760405162461bcd60e51b81526004016103f3906113d1565b60026000556001546001600160a01b031633146104d05760405162461bcd60e51b81526004016103f390611435565b600082116104f15760405163445a206b60e11b815260040160405180910390fd5b6001600160a01b0383166000908152600c602052604090205415610528576040516304462d2760e01b815260040160405180910390fd5b6000818152600260205260409020546105545760405163254ddef960e21b815260040160405180910390fd5b600160086000828254610567919061146a565b90915550506001600160a01b0383166000908152600960209081526040808320805460ff19166001179055805160e08101825285815242818401819052858552600290935292819020549083015290606081016105c4838561146a565b815260006020808301829052604080840183905260609384018390526001600160a01b03808a168452600c8352928190208551815591850151600183015584015160028201559183015160038301556080830151600483015560a0830151600583015560c090920151600690910155600b546106439116333086610eae565b6001600160a01b0384167fb4caaf29adda3eefee3ad552a8e85058589bf834c7466cae4ee58787f70589ed848361067a818761146a565b6040805193845260208401929092529082015260600160405180910390a2505060016000555050565b6106ab6112f0565b336000908152600c6020908152604091829020825160e08101845281548082526001830154938201939093526002820154938101939093526003810154606084015260048101546080840152600581015460a08401526006015460c08301526107275760405163b018f08760e01b815260040160405180910390fd5b604080516060810182526000808252602082018190529181018390529061074d83610f1f565b90504282604001516060015111156107a6576103e8600354826107709190611482565b61077a91906114a1565b60035484516103e89161078c91611482565b61079691906114a1565b6107a0919061146a565b60208301525b60006107b58460c00151610b38565b11156107d95760006107ca8460000151610f64565b604084015160a00152506107e7565b6040820151600060a0909101525b60408201516080015290518152919050565b6002600054141561081c5760405162461bcd60e51b81526004016103f3906113d1565b60026000556001546001600160a01b0316331461084b5760405162461bcd60e51b81526004016103f390611435565b60065460ff16151560011415610874576040516336d2669760e11b815260040160405180910390fd5b6006805460ff191660019081179091556007805460009061047290849061146a565b600260005414156108b95760405162461bcd60e51b81526004016103f3906113d1565b60026000556108c6610e5b565b6108ce610e7e565b336000908152600960209081526040808320600754845260019081019092529091205460ff161515141561091557604051630740e33b60e41b815260040160405180910390fd5b33600090815260096020908152604080832060078054855260019182018452828520805460ff191683179055548452600a909252822080549192909161047290849061146a565b6001600160a01b0381166000908152600c602052604090208054156109d5576109888160060154610b38565b6109a55760405163376115b360e21b815260040160405180910390fd5b60006005820155426006820155600b5481546109d5916001600160a01b03169033906109d090610f64565b610f86565b5050565b6001546000906001600160a01b03163314610a065760405162461bcd60e51b81526004016103f390611435565b610a0e610e5b565b600160085411610a31576040516317cb436f60e11b815260040160405180910390fd5b6000600a6008546005610a449190611482565b610a4e91906114a1565b6007546000908152600a6020526040902054909150811015610a7257600191505090565b600091505090565b6001546001600160a01b03163314610aa45760405162461bcd60e51b81526004016103f390611435565b610aae6000610fbb565b565b6001546001600160a01b03163314610ada5760405162461bcd60e51b81526004016103f390611435565b601e811115610afc5760405163f1a470d760e01b815260040160405180910390fd5b60038190556040518181527fcfa4f4cf1cd64d13a167a8e75605e0c0c9d6700e903d17c5dc11f593254a04a9906020015b60405180910390a150565b600062093a80610b48834261141e565b610b5291906114a1565b92915050565b60026000541415610b7b5760405162461bcd60e51b81526004016103f3906113d1565b60026000818155338152600c60209081526040808320815160e0810183528154815260018201549381019390935293840154908201526003830154606082015260048301546080820152600583015460a082015260069092015460c0830152610be382610f1f565b336000908152600c602052604081208181556001808201839055600282018390556003820183905560048201839055600582018390556006909101829055600880549394509092909190610c3890849061141e565b909155505033600090815260096020908152604080832060075484526001019091529020805460ff191690556060820151421015610ca857600080610c8184600001518461100d565b600b549193509150610ca1906001600160a01b0316336109d0848661146a565b5050610cc8565b600b548251610cc8916001600160a01b03169033906109d090859061146a565b50506001600055565b6001546001600160a01b03163314610cfb5760405162461bcd60e51b81526004016103f390611435565b42600555565b6001546001600160a01b03163314610d2b5760405162461bcd60e51b81526004016103f390611435565b60c8811115610d4d57604051630a552cf160e41b815260040160405180910390fd5b60048190556040518181527fcc672f1026b958c0cfbfdd89ebe8ddcbc127f16ec24da6c2c7a4de26a8b1857e90602001610b2d565b6001546001600160a01b03163314610dac5760405162461bcd60e51b81526004016103f390611435565b6001600160a01b038116610e115760405162461bcd60e51b815260206004820152602660248201527f4f776e61626c653a206e6577206f776e657220697320746865207a65726f206160448201526564647265737360d01b60648201526084016103f3565b610e1a81610fbb565b50565b6001546001600160a01b03163314610e475760405162461bcd60e51b81526004016103f390611435565b610e4f610e5b565b6006805460ff19169055565b60065460ff16610aae57604051632874624560e21b815260040160405180910390fd5b3360009081526009602052604090205460ff16610aae576040516307959f7560e21b815260040160405180910390fd5b6040516001600160a01b0380851660248301528316604482015260648101829052610f199085906323b872dd60e01b906084015b60408051601f198184030181529190526020810180516001600160e01b03166001600160e01b031990931692909217909152611076565b50505050565b8051600090610f3057506000919050565b6a52b7d2dcc80cd2e4000000610f498360200151611148565b60408401518451610f5a9190611482565b610b489190611482565b60006301dfe2006103e860045484610f7c9190611482565b610b4891906114a1565b6040516001600160a01b038316602482015260448101829052610fb690849063a9059cbb60e01b90606401610ee2565b505050565b600180546001600160a01b038381166001600160a01b0319831681179093556040519116919082907f8be0079c531659141344cd1fd0a4f28419497f9722a3daafe3b4186f6b6457e090600090a35050565b600080836110205750600090508061106f565b6103e8600354856110319190611482565b61103b91906114a1565b611045908561141e565b6103e8600354856110569190611482565b61106091906114a1565b61106a908561141e565b915091505b9250929050565b60006110cb826040518060400160405280602081526020017f5361666545524332303a206c6f772d6c6576656c2063616c6c206661696c6564815250856001600160a01b031661116d9092919063ffffffff16565b805190915015610fb657808060200190518101906110e991906114c3565b610fb65760405162461bcd60e51b815260206004820152602a60248201527f5361666545524332303a204552433230206f7065726174696f6e20646964206e6044820152691bdd081cdd58d8d9595960b21b60648201526084016103f3565b60006301e13380611159834261141e565b610b489069d3c21bcecceda1000000611482565b606061117c8484600085611186565b90505b9392505050565b6060824710156111e75760405162461bcd60e51b815260206004820152602660248201527f416464726573733a20696e73756666696369656e742062616c616e636520666f6044820152651c8818d85b1b60d21b60648201526084016103f3565b6001600160a01b0385163b61123e5760405162461bcd60e51b815260206004820152601d60248201527f416464726573733a2063616c6c20746f206e6f6e2d636f6e747261637400000060448201526064016103f3565b600080866001600160a01b0316858760405161125a9190611511565b60006040518083038185875af1925050503d8060008114611297576040519150601f19603f3d011682016040523d82523d6000602084013e61129c565b606091505b50915091506112ac8282866112b7565b979650505050505050565b606083156112c657508161117f565b8251156112d65782518084602001fd5b8160405162461bcd60e51b81526004016103f3919061152d565b604051806060016040528060008152602001600081526020016113496040518060e00160405280600081526020016000815260200160008152602001600081526020016000815260200160008152602001600081525090565b905290565b80356001600160a01b038116811461136557600080fd5b919050565b60008060006060848603121561137f57600080fd5b6113888461134e565b95602085013595506040909401359392505050565b6000602082840312156113af57600080fd5b61117f8261134e565b6000602082840312156113ca57600080fd5b5035919050565b6020808252601f908201527f5265656e7472616e637947756172643a207265656e7472616e742063616c6c00604082015260600190565b634e487b7160e01b600052601160045260246000fd5b60008282101561143057611430611408565b500390565b6020808252818101527f4f776e61626c653a2063616c6c6572206973206e6f7420746865206f776e6572604082015260600190565b6000821982111561147d5761147d611408565b500190565b600081600019048311821515161561149c5761149c611408565b500290565b6000826114be57634e487b7160e01b600052601260045260246000fd5b500490565b6000602082840312156114d557600080fd5b8151801515811461117f57600080fd5b60005b838110156115005781810151838201526020016114e8565b83811115610f195750506000910152565b600082516115238184602087016114e5565b9190910192915050565b602081526000825180602084015261154c8160408501602087016114e5565b601f01601f1916919091016040019291505056fea264697066735822122070e323b630324233ea1a0e438a5bcdf17f706262d82b9e19729a85e3e15e049b64736f6c634300080b0033",
					"opcodes": "PUSH1 0x80 PUSH1 0x40 MSTORE CALLVALUE DUP1 ISZERO PUSH2 0x10 JUMPI PUSH1 0x0 DUP1 REVERT JUMPDEST POP PUSH1 0x40 MLOAD PUSH2 0x170C CODESIZE SUB DUP1 PUSH2 0x170C DUP4 CODECOPY DUP2 ADD PUSH1 0x40 DUP2 SWAP1 MSTORE PUSH2 0x2F SWAP2 PUSH2 0x137 JUMP JUMPDEST PUSH1 0x1 PUSH1 0x0 SSTORE PUSH2 0x3D CALLER PUSH2 0xE5 JUMP JUMPDEST PUSH1 0xF PUSH1 0x3 SSTORE PUSH1 0x50 PUSH1 0x4 SSTORE PUSH1 0xB DUP1 SLOAD PUSH1 0x1 PUSH1 0x1 PUSH1 0xA0 SHL SUB NOT AND PUSH1 0x1 PUSH1 0x1 PUSH1 0xA0 SHL SUB SWAP3 SWAP1 SWAP3 AND SWAP2 SWAP1 SWAP2 OR SWAP1 SSTORE PUSH1 0x2 PUSH1 0x20 MSTORE PUSH1 0x6 PUSH32 0xA1EF5B42F18533D67A183A193EA6C3FABFAA3BDABC3FC0E3F65B19B517DF6E8C SSTORE PUSH1 0x7 PUSH32 0x89CFCBF844E824FEEE5F634CBC488382291F3C9E0DE5905F3C30812390DD832 SSTORE PUSH4 0x1E13380 PUSH1 0x0 MSTORE PUSH1 0x8 PUSH32 0xDC083EB4DA7563BBD761324B5158D9D40AF7C7174AFE39B0B31A7577C44FC33B SSTORE PUSH2 0x167 JUMP JUMPDEST PUSH1 0x1 DUP1 SLOAD PUSH1 0x1 PUSH1 0x1 PUSH1 0xA0 SHL SUB DUP4 DUP2 AND PUSH1 0x1 PUSH1 0x1 PUSH1 0xA0 SHL SUB NOT DUP4 AND DUP2 OR SWAP1 SWAP4 SSTORE PUSH1 0x40 MLOAD SWAP2 AND SWAP2 SWAP1 DUP3 SWAP1 PUSH32 0x8BE0079C531659141344CD1FD0A4F28419497F9722A3DAAFE3B4186F6B6457E0 SWAP1 PUSH1 0x0 SWAP1 LOG3 POP POP JUMP JUMPDEST PUSH1 0x0 PUSH1 0x20 DUP3 DUP5 SUB SLT ISZERO PUSH2 0x149 JUMPI PUSH1 0x0 DUP1 REVERT JUMPDEST DUP2 MLOAD PUSH1 0x1 PUSH1 0x1 PUSH1 0xA0 SHL SUB DUP2 AND DUP2 EQ PUSH2 0x160 JUMPI PUSH1 0x0 DUP1 REVERT JUMPDEST SWAP4 SWAP3 POP POP POP JUMP JUMPDEST PUSH2 0x1596 DUP1 PUSH2 0x176 PUSH1 0x0 CODECOPY PUSH1 0x0 RETURN INVALID PUSH1 0x80 PUSH1 0x40 MSTORE CALLVALUE DUP1 ISZERO PUSH2 0x10 JUMPI PUSH1 0x0 DUP1 REVERT JUMPDEST POP PUSH1 0x4 CALLDATASIZE LT PUSH2 0x173 JUMPI PUSH1 0x0 CALLDATALOAD PUSH1 0xE0 SHR DUP1 PUSH4 0x8C8E8FEE GT PUSH2 0xDE JUMPI DUP1 PUSH4 0xBED9D861 GT PUSH2 0x97 JUMPI DUP1 PUSH4 0xD2A569C3 GT PUSH2 0x71 JUMPI DUP1 PUSH4 0xD2A569C3 EQ PUSH2 0x39A JUMPI DUP1 PUSH4 0xD5DBDF1B EQ PUSH2 0x3A2 JUMPI DUP1 PUSH4 0xF2FDE38B EQ PUSH2 0x3B5 JUMPI DUP1 PUSH4 0xFAB2F86B EQ PUSH2 0x3C8 JUMPI PUSH1 0x0 DUP1 REVERT JUMPDEST DUP1 PUSH4 0xBED9D861 EQ PUSH2 0x383 JUMPI DUP1 PUSH4 0xC63AA3E7 EQ PUSH2 0x38B JUMPI DUP1 PUSH4 0xCB79C2E1 EQ PUSH2 0x391 JUMPI PUSH1 0x0 DUP1 REVERT JUMPDEST DUP1 PUSH4 0x8C8E8FEE EQ PUSH2 0x2E8 JUMPI DUP1 PUSH4 0x8DA5CB5B EQ PUSH2 0x313 JUMPI DUP1 PUSH4 0xA143A5F2 EQ PUSH2 0x324 JUMPI DUP1 PUSH4 0xA3EC138D EQ PUSH2 0x344 JUMPI DUP1 PUSH4 0xB5D9DF83 EQ PUSH2 0x367 JUMPI DUP1 PUSH4 0xB87DA76D EQ PUSH2 0x37A JUMPI PUSH1 0x0 DUP1 REVERT JUMPDEST DUP1 PUSH4 0x632A9A52 GT PUSH2 0x130 JUMPI DUP1 PUSH4 0x632A9A52 EQ PUSH2 0x291 JUMPI DUP1 PUSH4 0x65F8C6C5 EQ PUSH2 0x299 JUMPI DUP1 PUSH4 0x671D2B75 EQ PUSH2 0x2AC JUMPI DUP1 PUSH4 0x715018A6 EQ PUSH2 0x2C4 JUMPI DUP1 PUSH4 0x8891CF0D EQ PUSH2 0x2CC JUMPI DUP1 PUSH4 0x8C63F97F EQ PUSH2 0x2D5 JUMPI PUSH1 0x0 DUP1 REVERT JUMPDEST DUP1 PUSH4 0x70C8B74 EQ PUSH2 0x178 JUMPI DUP1 PUSH4 0xC51B88F EQ PUSH2 0x182 JUMPI DUP1 PUSH4 0x10486B6A EQ PUSH2 0x195 JUMPI DUP1 PUSH4 0x1EC6B60A EQ PUSH2 0x215 JUMPI DUP1 PUSH4 0x2D15CC04 EQ PUSH2 0x21D JUMPI DUP1 PUSH4 0x5F5300FF EQ PUSH2 0x27A JUMPI JUMPDEST PUSH1 0x0 DUP1 REVERT JUMPDEST PUSH2 0x180 PUSH2 0x3D0 JUMP JUMPDEST STOP JUMPDEST PUSH2 0x180 PUSH2 0x190 CALLDATASIZE PUSH1 0x4 PUSH2 0x136A JUMP JUMPDEST PUSH2 0x47E JUMP JUMPDEST PUSH2 0x19D PUSH2 0x6A3 JUMP JUMPDEST PUSH1 0x40 MLOAD PUSH2 0x20C SWAP2 SWAP1 PUSH1 0x0 PUSH2 0x120 DUP3 ADD SWAP1 POP DUP3 MLOAD DUP3 MSTORE PUSH1 0x20 DUP4 ADD MLOAD PUSH1 0x20 DUP4 ADD MSTORE PUSH1 0x40 DUP4 ADD MLOAD DUP1 MLOAD PUSH1 0x40 DUP5 ADD MSTORE PUSH1 0x20 DUP2 ADD MLOAD PUSH1 0x60 DUP5 ADD MSTORE PUSH1 0x40 DUP2 ADD MLOAD PUSH1 0x80 DUP5 ADD MSTORE PUSH1 0x60 DUP2 ADD MLOAD PUSH1 0xA0 DUP5 ADD MSTORE PUSH1 0x80 DUP2 ADD MLOAD PUSH1 0xC0 DUP5 ADD MSTORE PUSH1 0xA0 DUP2 ADD MLOAD PUSH1 0xE0 DUP5 ADD MSTORE PUSH1 0xC0 DUP2 ADD MLOAD PUSH2 0x100 DUP5 ADD MSTORE POP SWAP3 SWAP2 POP POP JUMP JUMPDEST PUSH1 0x40 MLOAD DUP1 SWAP2 SUB SWAP1 RETURN JUMPDEST PUSH2 0x180 PUSH2 0x7F9 JUMP JUMPDEST PUSH2 0x263 PUSH2 0x22B CALLDATASIZE PUSH1 0x4 PUSH2 0x139D JUMP JUMPDEST PUSH1 0x1 PUSH1 0x1 PUSH1 0xA0 SHL SUB AND PUSH1 0x0 SWAP1 DUP2 MSTORE PUSH1 0x9 PUSH1 0x20 SWAP1 DUP2 MSTORE PUSH1 0x40 DUP1 DUP4 KECCAK256 DUP1 SLOAD PUSH1 0x7 SLOAD DUP6 MSTORE PUSH1 0x1 SWAP1 SWAP2 ADD SWAP1 SWAP3 MSTORE SWAP1 SWAP2 KECCAK256 SLOAD PUSH1 0xFF SWAP2 DUP3 AND SWAP3 SWAP2 AND SWAP1 JUMP JUMPDEST PUSH1 0x40 DUP1 MLOAD SWAP3 ISZERO ISZERO DUP4 MSTORE SWAP1 ISZERO ISZERO PUSH1 0x20 DUP4 ADD MSTORE ADD PUSH2 0x20C JUMP JUMPDEST PUSH2 0x283 PUSH1 0x8 SLOAD DUP2 JUMP JUMPDEST PUSH1 0x40 MLOAD SWAP1 DUP2 MSTORE PUSH1 0x20 ADD PUSH2 0x20C JUMP JUMPDEST PUSH2 0x180 PUSH2 0x896 JUMP JUMPDEST PUSH2 0x180 PUSH2 0x2A7 CALLDATASIZE PUSH1 0x4 PUSH2 0x139D JUMP JUMPDEST PUSH2 0x95C JUMP JUMPDEST PUSH2 0x2B4 PUSH2 0x9D9 JUMP JUMPDEST PUSH1 0x40 MLOAD SWAP1 ISZERO ISZERO DUP2 MSTORE PUSH1 0x20 ADD PUSH2 0x20C JUMP JUMPDEST PUSH2 0x180 PUSH2 0xA7A JUMP JUMPDEST PUSH2 0x283 PUSH1 0x4 SLOAD DUP2 JUMP JUMPDEST PUSH2 0x180 PUSH2 0x2E3 CALLDATASIZE PUSH1 0x4 PUSH2 0x13B8 JUMP JUMPDEST PUSH2 0xAB0 JUMP JUMPDEST PUSH1 0xB SLOAD PUSH2 0x2FB SWAP1 PUSH1 0x1 PUSH1 0x1 PUSH1 0xA0 SHL SUB AND DUP2 JUMP JUMPDEST PUSH1 0x40 MLOAD PUSH1 0x1 PUSH1 0x1 PUSH1 0xA0 SHL SUB SWAP1 SWAP2 AND DUP2 MSTORE PUSH1 0x20 ADD PUSH2 0x20C JUMP JUMPDEST PUSH1 0x1 SLOAD PUSH1 0x1 PUSH1 0x1 PUSH1 0xA0 SHL SUB AND PUSH2 0x2FB JUMP JUMPDEST PUSH2 0x283 PUSH2 0x332 CALLDATASIZE PUSH1 0x4 PUSH2 0x13B8 JUMP JUMPDEST PUSH1 0xA PUSH1 0x20 MSTORE PUSH1 0x0 SWAP1 DUP2 MSTORE PUSH1 0x40 SWAP1 KECCAK256 SLOAD DUP2 JUMP JUMPDEST PUSH2 0x2B4 PUSH2 0x352 CALLDATASIZE PUSH1 0x4 PUSH2 0x139D JUMP JUMPDEST PUSH1 0x9 PUSH1 0x20 MSTORE PUSH1 0x0 SWAP1 DUP2 MSTORE PUSH1 0x40 SWAP1 KECCAK256 SLOAD PUSH1 0xFF AND DUP2 JUMP JUMPDEST PUSH2 0x283 PUSH2 0x375 CALLDATASIZE PUSH1 0x4 PUSH2 0x13B8 JUMP JUMPDEST PUSH2 0xB38 JUMP JUMPDEST PUSH2 0x283 PUSH1 0x5 SLOAD DUP2 JUMP JUMPDEST PUSH2 0x180 PUSH2 0xB58 JUMP JUMPDEST TIMESTAMP PUSH2 0x283 JUMP JUMPDEST PUSH2 0x283 PUSH1 0x3 SLOAD DUP2 JUMP JUMPDEST PUSH2 0x180 PUSH2 0xCD1 JUMP JUMPDEST PUSH2 0x180 PUSH2 0x3B0 CALLDATASIZE PUSH1 0x4 PUSH2 0x13B8 JUMP JUMPDEST PUSH2 0xD01 JUMP JUMPDEST PUSH2 0x180 PUSH2 0x3C3 CALLDATASIZE PUSH1 0x4 PUSH2 0x139D JUMP JUMPDEST PUSH2 0xD82 JUMP JUMPDEST PUSH2 0x180 PUSH2 0xE1D JUMP JUMPDEST PUSH1 0x2 PUSH1 0x0 SLOAD EQ ISZERO PUSH2 0x3FC JUMPI PUSH1 0x40 MLOAD PUSH3 0x461BCD PUSH1 0xE5 SHL DUP2 MSTORE PUSH1 0x4 ADD PUSH2 0x3F3 SWAP1 PUSH2 0x13D1 JUMP JUMPDEST PUSH1 0x40 MLOAD DUP1 SWAP2 SUB SWAP1 REVERT JUMPDEST PUSH1 0x2 PUSH1 0x0 SSTORE PUSH2 0x409 PUSH2 0xE5B JUMP JUMPDEST PUSH2 0x411 PUSH2 0xE7E JUMP JUMPDEST CALLER PUSH1 0x0 SWAP1 DUP2 MSTORE PUSH1 0x9 PUSH1 0x20 SWAP1 DUP2 MSTORE PUSH1 0x40 DUP1 DUP4 KECCAK256 PUSH1 0x7 SLOAD DUP5 MSTORE PUSH1 0x1 ADD SWAP1 SWAP2 MSTORE SWAP1 KECCAK256 SLOAD PUSH1 0xFF AND PUSH2 0x450 JUMPI PUSH1 0x40 MLOAD PUSH3 0x45BA11 PUSH1 0xE9 SHL DUP2 MSTORE PUSH1 0x4 ADD PUSH1 0x40 MLOAD DUP1 SWAP2 SUB SWAP1 REVERT JUMPDEST PUSH1 0x7 SLOAD PUSH1 0x0 SWAP1 DUP2 MSTORE PUSH1 0xA PUSH1 0x20 MSTORE PUSH1 0x40 DUP2 KECCAK256 DUP1 SLOAD PUSH1 0x1 SWAP3 SWAP1 PUSH2 0x472 SWAP1 DUP5 SWAP1 PUSH2 0x141E JUMP JUMPDEST SWAP1 SWAP2 SSTORE POP POP PUSH1 0x1 PUSH1 0x0 SSTORE JUMP JUMPDEST PUSH1 0x2 PUSH1 0x0 SLOAD EQ ISZERO PUSH2 0x4A1 JUMPI PUSH1 0x40 MLOAD PUSH3 0x461BCD PUSH1 0xE5 SHL DUP2 MSTORE PUSH1 0x4 ADD PUSH2 0x3F3 SWAP1 PUSH2 0x13D1 JUMP JUMPDEST PUSH1 0x2 PUSH1 0x0 SSTORE PUSH1 0x1 SLOAD PUSH1 0x1 PUSH1 0x1 PUSH1 0xA0 SHL SUB AND CALLER EQ PUSH2 0x4D0 JUMPI PUSH1 0x40 MLOAD PUSH3 0x461BCD PUSH1 0xE5 SHL DUP2 MSTORE PUSH1 0x4 ADD PUSH2 0x3F3 SWAP1 PUSH2 0x1435 JUMP JUMPDEST PUSH1 0x0 DUP3 GT PUSH2 0x4F1 JUMPI PUSH1 0x40 MLOAD PUSH4 0x445A206B PUSH1 0xE1 SHL DUP2 MSTORE PUSH1 0x4 ADD PUSH1 0x40 MLOAD DUP1 SWAP2 SUB SWAP1 REVERT JUMPDEST PUSH1 0x1 PUSH1 0x1 PUSH1 0xA0 SHL SUB DUP4 AND PUSH1 0x0 SWAP1 DUP2 MSTORE PUSH1 0xC PUSH1 0x20 MSTORE PUSH1 0x40 SWAP1 KECCAK256 SLOAD ISZERO PUSH2 0x528 JUMPI PUSH1 0x40 MLOAD PUSH4 0x4462D27 PUSH1 0xE0 SHL DUP2 MSTORE PUSH1 0x4 ADD PUSH1 0x40 MLOAD DUP1 SWAP2 SUB SWAP1 REVERT JUMPDEST PUSH1 0x0 DUP2 DUP2 MSTORE PUSH1 0x2 PUSH1 0x20 MSTORE PUSH1 0x40 SWAP1 KECCAK256 SLOAD PUSH2 0x554 JUMPI PUSH1 0x40 MLOAD PUSH4 0x254DDEF9 PUSH1 0xE2 SHL DUP2 MSTORE PUSH1 0x4 ADD PUSH1 0x40 MLOAD DUP1 SWAP2 SUB SWAP1 REVERT JUMPDEST PUSH1 0x1 PUSH1 0x8 PUSH1 0x0 DUP3 DUP3 SLOAD PUSH2 0x567 SWAP2 SWAP1 PUSH2 0x146A JUMP JUMPDEST SWAP1 SWAP2 SSTORE POP POP PUSH1 0x1 PUSH1 0x1 PUSH1 0xA0 SHL SUB DUP4 AND PUSH1 0x0 SWAP1 DUP2 MSTORE PUSH1 0x9 PUSH1 0x20 SWAP1 DUP2 MSTORE PUSH1 0x40 DUP1 DUP4 KECCAK256 DUP1 SLOAD PUSH1 0xFF NOT AND PUSH1 0x1 OR SWAP1 SSTORE DUP1 MLOAD PUSH1 0xE0 DUP2 ADD DUP3 MSTORE DUP6 DUP2 MSTORE TIMESTAMP DUP2 DUP5 ADD DUP2 SWAP1 MSTORE DUP6 DUP6 MSTORE PUSH1 0x2 SWAP1 SWAP4 MSTORE SWAP3 DUP2 SWAP1 KECCAK256 SLOAD SWAP1 DUP4 ADD MSTORE SWAP1 PUSH1 0x60 DUP2 ADD PUSH2 0x5C4 DUP4 DUP6 PUSH2 0x146A JUMP JUMPDEST DUP2 MSTORE PUSH1 0x0 PUSH1 0x20 DUP1 DUP4 ADD DUP3 SWAP1 MSTORE PUSH1 0x40 DUP1 DUP5 ADD DUP4 SWAP1 MSTORE PUSH1 0x60 SWAP4 DUP5 ADD DUP4 SWAP1 MSTORE PUSH1 0x1 PUSH1 0x1 PUSH1 0xA0 SHL SUB DUP1 DUP11 AND DUP5 MSTORE PUSH1 0xC DUP4 MSTORE SWAP3 DUP2 SWAP1 KECCAK256 DUP6 MLOAD DUP2 SSTORE SWAP2 DUP6 ADD MLOAD PUSH1 0x1 DUP4 ADD SSTORE DUP5 ADD MLOAD PUSH1 0x2 DUP3 ADD SSTORE SWAP2 DUP4 ADD MLOAD PUSH1 0x3 DUP4 ADD SSTORE PUSH1 0x80 DUP4 ADD MLOAD PUSH1 0x4 DUP4 ADD SSTORE PUSH1 0xA0 DUP4 ADD MLOAD PUSH1 0x5 DUP4 ADD SSTORE PUSH1 0xC0 SWAP1 SWAP3 ADD MLOAD PUSH1 0x6 SWAP1 SWAP2 ADD SSTORE PUSH1 0xB SLOAD PUSH2 0x643 SWAP2 AND CALLER ADDRESS DUP7 PUSH2 0xEAE JUMP JUMPDEST PUSH1 0x1 PUSH1 0x1 PUSH1 0xA0 SHL SUB DUP5 AND PUSH32 0xB4CAAF29ADDA3EEFEE3AD552A8E85058589BF834C7466CAE4EE58787F70589ED DUP5 DUP4 PUSH2 0x67A DUP2 DUP8 PUSH2 0x146A JUMP JUMPDEST PUSH1 0x40 DUP1 MLOAD SWAP4 DUP5 MSTORE PUSH1 0x20 DUP5 ADD SWAP3 SWAP1 SWAP3 MSTORE SWAP1 DUP3 ADD MSTORE PUSH1 0x60 ADD PUSH1 0x40 MLOAD DUP1 SWAP2 SUB SWAP1 LOG2 POP POP PUSH1 0x1 PUSH1 0x0 SSTORE POP POP JUMP JUMPDEST PUSH2 0x6AB PUSH2 0x12F0 JUMP JUMPDEST CALLER PUSH1 0x0 SWAP1 DUP2 MSTORE PUSH1 0xC PUSH1 0x20 SWAP1 DUP2 MSTORE PUSH1 0x40 SWAP2 DUP3 SWAP1 KECCAK256 DUP3 MLOAD PUSH1 0xE0 DUP2 ADD DUP5 MSTORE DUP2 SLOAD DUP1 DUP3 MSTORE PUSH1 0x1 DUP4 ADD SLOAD SWAP4 DUP3 ADD SWAP4 SWAP1 SWAP4 MSTORE PUSH1 0x2 DUP3 ADD SLOAD SWAP4 DUP2 ADD SWAP4 SWAP1 SWAP4 MSTORE PUSH1 0x3 DUP2 ADD SLOAD PUSH1 0x60 DUP5 ADD MSTORE PUSH1 0x4 DUP2 ADD SLOAD PUSH1 0x80 DUP5 ADD MSTORE PUSH1 0x5 DUP2 ADD SLOAD PUSH1 0xA0 DUP5 ADD MSTORE PUSH1 0x6 ADD SLOAD PUSH1 0xC0 DUP4 ADD MSTORE PUSH2 0x727 JUMPI PUSH1 0x40 MLOAD PUSH4 0xB018F087 PUSH1 0xE0 SHL DUP2 MSTORE PUSH1 0x4 ADD PUSH1 0x40 MLOAD DUP1 SWAP2 SUB SWAP1 REVERT JUMPDEST PUSH1 0x40 DUP1 MLOAD PUSH1 0x60 DUP2 ADD DUP3 MSTORE PUSH1 0x0 DUP1 DUP3 MSTORE PUSH1 0x20 DUP3 ADD DUP2 SWAP1 MSTORE SWAP2 DUP2 ADD DUP4 SWAP1 MSTORE SWAP1 PUSH2 0x74D DUP4 PUSH2 0xF1F JUMP JUMPDEST SWAP1 POP TIMESTAMP DUP3 PUSH1 0x40 ADD MLOAD PUSH1 0x60 ADD MLOAD GT ISZERO PUSH2 0x7A6 JUMPI PUSH2 0x3E8 PUSH1 0x3 SLOAD DUP3 PUSH2 0x770 SWAP2 SWAP1 PUSH2 0x1482 JUMP JUMPDEST PUSH2 0x77A SWAP2 SWAP1 PUSH2 0x14A1 JUMP JUMPDEST PUSH1 0x3 SLOAD DUP5 MLOAD PUSH2 0x3E8 SWAP2 PUSH2 0x78C SWAP2 PUSH2 0x1482 JUMP JUMPDEST PUSH2 0x796 SWAP2 SWAP1 PUSH2 0x14A1 JUMP JUMPDEST PUSH2 0x7A0 SWAP2 SWAP1 PUSH2 0x146A JUMP JUMPDEST PUSH1 0x20 DUP4 ADD MSTORE JUMPDEST PUSH1 0x0 PUSH2 0x7B5 DUP5 PUSH1 0xC0 ADD MLOAD PUSH2 0xB38 JUMP JUMPDEST GT ISZERO PUSH2 0x7D9 JUMPI PUSH1 0x0 PUSH2 0x7CA DUP5 PUSH1 0x0 ADD MLOAD PUSH2 0xF64 JUMP JUMPDEST PUSH1 0x40 DUP5 ADD MLOAD PUSH1 0xA0 ADD MSTORE POP PUSH2 0x7E7 JUMP JUMPDEST PUSH1 0x40 DUP3 ADD MLOAD PUSH1 0x0 PUSH1 0xA0 SWAP1 SWAP2 ADD MSTORE JUMPDEST PUSH1 0x40 DUP3 ADD MLOAD PUSH1 0x80 ADD MSTORE SWAP1 MLOAD DUP2 MSTORE SWAP2 SWAP1 POP JUMP JUMPDEST PUSH1 0x2 PUSH1 0x0 SLOAD EQ ISZERO PUSH2 0x81C JUMPI PUSH1 0x40 MLOAD PUSH3 0x461BCD PUSH1 0xE5 SHL DUP2 MSTORE PUSH1 0x4 ADD PUSH2 0x3F3 SWAP1 PUSH2 0x13D1 JUMP JUMPDEST PUSH1 0x2 PUSH1 0x0 SSTORE PUSH1 0x1 SLOAD PUSH1 0x1 PUSH1 0x1 PUSH1 0xA0 SHL SUB AND CALLER EQ PUSH2 0x84B JUMPI PUSH1 0x40 MLOAD PUSH3 0x461BCD PUSH1 0xE5 SHL DUP2 MSTORE PUSH1 0x4 ADD PUSH2 0x3F3 SWAP1 PUSH2 0x1435 JUMP JUMPDEST PUSH1 0x6 SLOAD PUSH1 0xFF AND ISZERO ISZERO PUSH1 0x1 EQ ISZERO PUSH2 0x874 JUMPI PUSH1 0x40 MLOAD PUSH4 0x36D26697 PUSH1 0xE1 SHL DUP2 MSTORE PUSH1 0x4 ADD PUSH1 0x40 MLOAD DUP1 SWAP2 SUB SWAP1 REVERT JUMPDEST PUSH1 0x6 DUP1 SLOAD PUSH1 0xFF NOT AND PUSH1 0x1 SWAP1 DUP2 OR SWAP1 SWAP2 SSTORE PUSH1 0x7 DUP1 SLOAD PUSH1 0x0 SWAP1 PUSH2 0x472 SWAP1 DUP5 SWAP1 PUSH2 0x146A JUMP JUMPDEST PUSH1 0x2 PUSH1 0x0 SLOAD EQ ISZERO PUSH2 0x8B9 JUMPI PUSH1 0x40 MLOAD PUSH3 0x461BCD PUSH1 0xE5 SHL DUP2 MSTORE PUSH1 0x4 ADD PUSH2 0x3F3 SWAP1 PUSH2 0x13D1 JUMP JUMPDEST PUSH1 0x2 PUSH1 0x0 SSTORE PUSH2 0x8C6 PUSH2 0xE5B JUMP JUMPDEST PUSH2 0x8CE PUSH2 0xE7E JUMP JUMPDEST CALLER PUSH1 0x0 SWAP1 DUP2 MSTORE PUSH1 0x9 PUSH1 0x20 SWAP1 DUP2 MSTORE PUSH1 0x40 DUP1 DUP4 KECCAK256 PUSH1 0x7 SLOAD DUP5 MSTORE PUSH1 0x1 SWAP1 DUP2 ADD SWAP1 SWAP3 MSTORE SWAP1 SWAP2 KECCAK256 SLOAD PUSH1 0xFF AND ISZERO ISZERO EQ ISZERO PUSH2 0x915 JUMPI PUSH1 0x40 MLOAD PUSH4 0x740E33B PUSH1 0xE4 SHL DUP2 MSTORE PUSH1 0x4 ADD PUSH1 0x40 MLOAD DUP1 SWAP2 SUB SWAP1 REVERT JUMPDEST CALLER PUSH1 0x0 SWAP1 DUP2 MSTORE PUSH1 0x9 PUSH1 0x20 SWAP1 DUP2 MSTORE PUSH1 0x40 DUP1 DUP4 KECCAK256 PUSH1 0x7 DUP1 SLOAD DUP6 MSTORE PUSH1 0x1 SWAP2 DUP3 ADD DUP5 MSTORE DUP3 DUP6 KECCAK256 DUP1 SLOAD PUSH1 0xFF NOT AND DUP4 OR SWAP1 SSTORE SLOAD DUP5 MSTORE PUSH1 0xA SWAP1 SWAP3 MSTORE DUP3 KECCAK256 DUP1 SLOAD SWAP2 SWAP3 SWAP1 SWAP2 PUSH2 0x472 SWAP1 DUP5 SWAP1 PUSH2 0x146A JUMP JUMPDEST PUSH1 0x1 PUSH1 0x1 PUSH1 0xA0 SHL SUB DUP2 AND PUSH1 0x0 SWAP1 DUP2 MSTORE PUSH1 0xC PUSH1 0x20 MSTORE PUSH1 0x40 SWAP1 KECCAK256 DUP1 SLOAD ISZERO PUSH2 0x9D5 JUMPI PUSH2 0x988 DUP2 PUSH1 0x6 ADD SLOAD PUSH2 0xB38 JUMP JUMPDEST PUSH2 0x9A5 JUMPI PUSH1 0x40 MLOAD PUSH4 0x376115B3 PUSH1 0xE2 SHL DUP2 MSTORE PUSH1 0x4 ADD PUSH1 0x40 MLOAD DUP1 SWAP2 SUB SWAP1 REVERT JUMPDEST PUSH1 0x0 PUSH1 0x5 DUP3 ADD SSTORE TIMESTAMP PUSH1 0x6 DUP3 ADD SSTORE PUSH1 0xB SLOAD DUP2 SLOAD PUSH2 0x9D5 SWAP2 PUSH1 0x1 PUSH1 0x1 PUSH1 0xA0 SHL SUB AND SWAP1 CALLER SWAP1 PUSH2 0x9D0 SWAP1 PUSH2 0xF64 JUMP JUMPDEST PUSH2 0xF86 JUMP JUMPDEST POP POP JUMP JUMPDEST PUSH1 0x1 SLOAD PUSH1 0x0 SWAP1 PUSH1 0x1 PUSH1 0x1 PUSH1 0xA0 SHL SUB AND CALLER EQ PUSH2 0xA06 JUMPI PUSH1 0x40 MLOAD PUSH3 0x461BCD PUSH1 0xE5 SHL DUP2 MSTORE PUSH1 0x4 ADD PUSH2 0x3F3 SWAP1 PUSH2 0x1435 JUMP JUMPDEST PUSH2 0xA0E PUSH2 0xE5B JUMP JUMPDEST PUSH1 0x1 PUSH1 0x8 SLOAD GT PUSH2 0xA31 JUMPI PUSH1 0x40 MLOAD PUSH4 0x17CB436F PUSH1 0xE1 SHL DUP2 MSTORE PUSH1 0x4 ADD PUSH1 0x40 MLOAD DUP1 SWAP2 SUB SWAP1 REVERT JUMPDEST PUSH1 0x0 PUSH1 0xA PUSH1 0x8 SLOAD PUSH1 0x5 PUSH2 0xA44 SWAP2 SWAP1 PUSH2 0x1482 JUMP JUMPDEST PUSH2 0xA4E SWAP2 SWAP1 PUSH2 0x14A1 JUMP JUMPDEST PUSH1 0x7 SLOAD PUSH1 0x0 SWAP1 DUP2 MSTORE PUSH1 0xA PUSH1 0x20 MSTORE PUSH1 0x40 SWAP1 KECCAK256 SLOAD SWAP1 SWAP2 POP DUP2 LT ISZERO PUSH2 0xA72 JUMPI PUSH1 0x1 SWAP2 POP POP SWAP1 JUMP JUMPDEST PUSH1 0x0 SWAP2 POP POP SWAP1 JUMP JUMPDEST PUSH1 0x1 SLOAD PUSH1 0x1 PUSH1 0x1 PUSH1 0xA0 SHL SUB AND CALLER EQ PUSH2 0xAA4 JUMPI PUSH1 0x40 MLOAD PUSH3 0x461BCD PUSH1 0xE5 SHL DUP2 MSTORE PUSH1 0x4 ADD PUSH2 0x3F3 SWAP1 PUSH2 0x1435 JUMP JUMPDEST PUSH2 0xAAE PUSH1 0x0 PUSH2 0xFBB JUMP JUMPDEST JUMP JUMPDEST PUSH1 0x1 SLOAD PUSH1 0x1 PUSH1 0x1 PUSH1 0xA0 SHL SUB AND CALLER EQ PUSH2 0xADA JUMPI PUSH1 0x40 MLOAD PUSH3 0x461BCD PUSH1 0xE5 SHL DUP2 MSTORE PUSH1 0x4 ADD PUSH2 0x3F3 SWAP1 PUSH2 0x1435 JUMP JUMPDEST PUSH1 0x1E DUP2 GT ISZERO PUSH2 0xAFC JUMPI PUSH1 0x40 MLOAD PUSH4 0xF1A470D7 PUSH1 0xE0 SHL DUP2 MSTORE PUSH1 0x4 ADD PUSH1 0x40 MLOAD DUP1 SWAP2 SUB SWAP1 REVERT JUMPDEST PUSH1 0x3 DUP2 SWAP1 SSTORE PUSH1 0x40 MLOAD DUP2 DUP2 MSTORE PUSH32 0xCFA4F4CF1CD64D13A167A8E75605E0C0C9D6700E903D17C5DC11F593254A04A9 SWAP1 PUSH1 0x20 ADD JUMPDEST PUSH1 0x40 MLOAD DUP1 SWAP2 SUB SWAP1 LOG1 POP JUMP JUMPDEST PUSH1 0x0 PUSH3 0x93A80 PUSH2 0xB48 DUP4 TIMESTAMP PUSH2 0x141E JUMP JUMPDEST PUSH2 0xB52 SWAP2 SWAP1 PUSH2 0x14A1 JUMP JUMPDEST SWAP3 SWAP2 POP POP JUMP JUMPDEST PUSH1 0x2 PUSH1 0x0 SLOAD EQ ISZERO PUSH2 0xB7B JUMPI PUSH1 0x40 MLOAD PUSH3 0x461BCD PUSH1 0xE5 SHL DUP2 MSTORE PUSH1 0x4 ADD PUSH2 0x3F3 SWAP1 PUSH2 0x13D1 JUMP JUMPDEST PUSH1 0x2 PUSH1 0x0 DUP2 DUP2 SSTORE CALLER DUP2 MSTORE PUSH1 0xC PUSH1 0x20 SWAP1 DUP2 MSTORE PUSH1 0x40 DUP1 DUP4 KECCAK256 DUP2 MLOAD PUSH1 0xE0 DUP2 ADD DUP4 MSTORE DUP2 SLOAD DUP2 MSTORE PUSH1 0x1 DUP3 ADD SLOAD SWAP4 DUP2 ADD SWAP4 SWAP1 SWAP4 MSTORE SWAP4 DUP5 ADD SLOAD SWAP1 DUP3 ADD MSTORE PUSH1 0x3 DUP4 ADD SLOAD PUSH1 0x60 DUP3 ADD MSTORE PUSH1 0x4 DUP4 ADD SLOAD PUSH1 0x80 DUP3 ADD MSTORE PUSH1 0x5 DUP4 ADD SLOAD PUSH1 0xA0 DUP3 ADD MSTORE PUSH1 0x6 SWAP1 SWAP3 ADD SLOAD PUSH1 0xC0 DUP4 ADD MSTORE PUSH2 0xBE3 DUP3 PUSH2 0xF1F JUMP JUMPDEST CALLER PUSH1 0x0 SWAP1 DUP2 MSTORE PUSH1 0xC PUSH1 0x20 MSTORE PUSH1 0x40 DUP2 KECCAK256 DUP2 DUP2 SSTORE PUSH1 0x1 DUP1 DUP3 ADD DUP4 SWAP1 SSTORE PUSH1 0x2 DUP3 ADD DUP4 SWAP1 SSTORE PUSH1 0x3 DUP3 ADD DUP4 SWAP1 SSTORE PUSH1 0x4 DUP3 ADD DUP4 SWAP1 SSTORE PUSH1 0x5 DUP3 ADD DUP4 SWAP1 SSTORE PUSH1 0x6 SWAP1 SWAP2 ADD DUP3 SWAP1 SSTORE PUSH1 0x8 DUP1 SLOAD SWAP4 SWAP5 POP SWAP1 SWAP3 SWAP1 SWAP2 SWAP1 PUSH2 0xC38 SWAP1 DUP5 SWAP1 PUSH2 0x141E JUMP JUMPDEST SWAP1 SWAP2 SSTORE POP POP CALLER PUSH1 0x0 SWAP1 DUP2 MSTORE PUSH1 0x9 PUSH1 0x20 SWAP1 DUP2 MSTORE PUSH1 0x40 DUP1 DUP4 KECCAK256 PUSH1 0x7 SLOAD DUP5 MSTORE PUSH1 0x1 ADD SWAP1 SWAP2 MSTORE SWAP1 KECCAK256 DUP1 SLOAD PUSH1 0xFF NOT AND SWAP1 SSTORE PUSH1 0x60 DUP3 ADD MLOAD TIMESTAMP LT ISZERO PUSH2 0xCA8 JUMPI PUSH1 0x0 DUP1 PUSH2 0xC81 DUP5 PUSH1 0x0 ADD MLOAD DUP5 PUSH2 0x100D JUMP JUMPDEST PUSH1 0xB SLOAD SWAP2 SWAP4 POP SWAP2 POP PUSH2 0xCA1 SWAP1 PUSH1 0x1 PUSH1 0x1 PUSH1 0xA0 SHL SUB AND CALLER PUSH2 0x9D0 DUP5 DUP7 PUSH2 0x146A JUMP JUMPDEST POP POP PUSH2 0xCC8 JUMP JUMPDEST PUSH1 0xB SLOAD DUP3 MLOAD PUSH2 0xCC8 SWAP2 PUSH1 0x1 PUSH1 0x1 PUSH1 0xA0 SHL SUB AND SWAP1 CALLER SWAP1 PUSH2 0x9D0 SWAP1 DUP6 SWAP1 PUSH2 0x146A JUMP JUMPDEST POP POP PUSH1 0x1 PUSH1 0x0 SSTORE JUMP JUMPDEST PUSH1 0x1 SLOAD PUSH1 0x1 PUSH1 0x1 PUSH1 0xA0 SHL SUB AND CALLER EQ PUSH2 0xCFB JUMPI PUSH1 0x40 MLOAD PUSH3 0x461BCD PUSH1 0xE5 SHL DUP2 MSTORE PUSH1 0x4 ADD PUSH2 0x3F3 SWAP1 PUSH2 0x1435 JUMP JUMPDEST TIMESTAMP PUSH1 0x5 SSTORE JUMP JUMPDEST PUSH1 0x1 SLOAD PUSH1 0x1 PUSH1 0x1 PUSH1 0xA0 SHL SUB AND CALLER EQ PUSH2 0xD2B JUMPI PUSH1 0x40 MLOAD PUSH3 0x461BCD PUSH1 0xE5 SHL DUP2 MSTORE PUSH1 0x4 ADD PUSH2 0x3F3 SWAP1 PUSH2 0x1435 JUMP JUMPDEST PUSH1 0xC8 DUP2 GT ISZERO PUSH2 0xD4D JUMPI PUSH1 0x40 MLOAD PUSH4 0xA552CF1 PUSH1 0xE4 SHL DUP2 MSTORE PUSH1 0x4 ADD PUSH1 0x40 MLOAD DUP1 SWAP2 SUB SWAP1 REVERT JUMPDEST PUSH1 0x4 DUP2 SWAP1 SSTORE PUSH1 0x40 MLOAD DUP2 DUP2 MSTORE PUSH32 0xCC672F1026B958C0CFBFDD89EBE8DDCBC127F16EC24DA6C2C7A4DE26A8B1857E SWAP1 PUSH1 0x20 ADD PUSH2 0xB2D JUMP JUMPDEST PUSH1 0x1 SLOAD PUSH1 0x1 PUSH1 0x1 PUSH1 0xA0 SHL SUB AND CALLER EQ PUSH2 0xDAC JUMPI PUSH1 0x40 MLOAD PUSH3 0x461BCD PUSH1 0xE5 SHL DUP2 MSTORE PUSH1 0x4 ADD PUSH2 0x3F3 SWAP1 PUSH2 0x1435 JUMP JUMPDEST PUSH1 0x1 PUSH1 0x1 PUSH1 0xA0 SHL SUB DUP2 AND PUSH2 0xE11 JUMPI PUSH1 0x40 MLOAD PUSH3 0x461BCD PUSH1 0xE5 SHL DUP2 MSTORE PUSH1 0x20 PUSH1 0x4 DUP3 ADD MSTORE PUSH1 0x26 PUSH1 0x24 DUP3 ADD MSTORE PUSH32 0x4F776E61626C653A206E6577206F776E657220697320746865207A65726F2061 PUSH1 0x44 DUP3 ADD MSTORE PUSH6 0x646472657373 PUSH1 0xD0 SHL PUSH1 0x64 DUP3 ADD MSTORE PUSH1 0x84 ADD PUSH2 0x3F3 JUMP JUMPDEST PUSH2 0xE1A DUP2 PUSH2 0xFBB JUMP JUMPDEST POP JUMP JUMPDEST PUSH1 0x1 SLOAD PUSH1 0x1 PUSH1 0x1 PUSH1 0xA0 SHL SUB AND CALLER EQ PUSH2 0xE47 JUMPI PUSH1 0x40 MLOAD PUSH3 0x461BCD PUSH1 0xE5 SHL DUP2 MSTORE PUSH1 0x4 ADD PUSH2 0x3F3 SWAP1 PUSH2 0x1435 JUMP JUMPDEST PUSH2 0xE4F PUSH2 0xE5B JUMP JUMPDEST PUSH1 0x6 DUP1 SLOAD PUSH1 0xFF NOT AND SWAP1 SSTORE JUMP JUMPDEST PUSH1 0x6 SLOAD PUSH1 0xFF AND PUSH2 0xAAE JUMPI PUSH1 0x40 MLOAD PUSH4 0x28746245 PUSH1 0xE2 SHL DUP2 MSTORE PUSH1 0x4 ADD PUSH1 0x40 MLOAD DUP1 SWAP2 SUB SWAP1 REVERT JUMPDEST CALLER PUSH1 0x0 SWAP1 DUP2 MSTORE PUSH1 0x9 PUSH1 0x20 MSTORE PUSH1 0x40 SWAP1 KECCAK256 SLOAD PUSH1 0xFF AND PUSH2 0xAAE JUMPI PUSH1 0x40 MLOAD PUSH4 0x7959F75 PUSH1 0xE2 SHL DUP2 MSTORE PUSH1 0x4 ADD PUSH1 0x40 MLOAD DUP1 SWAP2 SUB SWAP1 REVERT JUMPDEST PUSH1 0x40 MLOAD PUSH1 0x1 PUSH1 0x1 PUSH1 0xA0 SHL SUB DUP1 DUP6 AND PUSH1 0x24 DUP4 ADD MSTORE DUP4 AND PUSH1 0x44 DUP3 ADD MSTORE PUSH1 0x64 DUP2 ADD DUP3 SWAP1 MSTORE PUSH2 0xF19 SWAP1 DUP6 SWAP1 PUSH4 0x23B872DD PUSH1 0xE0 SHL SWAP1 PUSH1 0x84 ADD JUMPDEST PUSH1 0x40 DUP1 MLOAD PUSH1 0x1F NOT DUP2 DUP5 SUB ADD DUP2 MSTORE SWAP2 SWAP1 MSTORE PUSH1 0x20 DUP2 ADD DUP1 MLOAD PUSH1 0x1 PUSH1 0x1 PUSH1 0xE0 SHL SUB AND PUSH1 0x1 PUSH1 0x1 PUSH1 0xE0 SHL SUB NOT SWAP1 SWAP4 AND SWAP3 SWAP1 SWAP3 OR SWAP1 SWAP2 MSTORE PUSH2 0x1076 JUMP JUMPDEST POP POP POP POP JUMP JUMPDEST DUP1 MLOAD PUSH1 0x0 SWAP1 PUSH2 0xF30 JUMPI POP PUSH1 0x0 SWAP2 SWAP1 POP JUMP JUMPDEST PUSH11 0x52B7D2DCC80CD2E4000000 PUSH2 0xF49 DUP4 PUSH1 0x20 ADD MLOAD PUSH2 0x1148 JUMP JUMPDEST PUSH1 0x40 DUP5 ADD MLOAD DUP5 MLOAD PUSH2 0xF5A SWAP2 SWAP1 PUSH2 0x1482 JUMP JUMPDEST PUSH2 0xB48 SWAP2 SWAP1 PUSH2 0x1482 JUMP JUMPDEST PUSH1 0x0 PUSH4 0x1DFE200 PUSH2 0x3E8 PUSH1 0x4 SLOAD DUP5 PUSH2 0xF7C SWAP2 SWAP1 PUSH2 0x1482 JUMP JUMPDEST PUSH2 0xB48 SWAP2 SWAP1 PUSH2 0x14A1 JUMP JUMPDEST PUSH1 0x40 MLOAD PUSH1 0x1 PUSH1 0x1 PUSH1 0xA0 SHL SUB DUP4 AND PUSH1 0x24 DUP3 ADD MSTORE PUSH1 0x44 DUP2 ADD DUP3 SWAP1 MSTORE PUSH2 0xFB6 SWAP1 DUP5 SWAP1 PUSH4 0xA9059CBB PUSH1 0xE0 SHL SWAP1 PUSH1 0x64 ADD PUSH2 0xEE2 JUMP JUMPDEST POP POP POP JUMP JUMPDEST PUSH1 0x1 DUP1 SLOAD PUSH1 0x1 PUSH1 0x1 PUSH1 0xA0 SHL SUB DUP4 DUP2 AND PUSH1 0x1 PUSH1 0x1 PUSH1 0xA0 SHL SUB NOT DUP4 AND DUP2 OR SWAP1 SWAP4 SSTORE PUSH1 0x40 MLOAD SWAP2 AND SWAP2 SWAP1 DUP3 SWAP1 PUSH32 0x8BE0079C531659141344CD1FD0A4F28419497F9722A3DAAFE3B4186F6B6457E0 SWAP1 PUSH1 0x0 SWAP1 LOG3 POP POP JUMP JUMPDEST PUSH1 0x0 DUP1 DUP4 PUSH2 0x1020 JUMPI POP PUSH1 0x0 SWAP1 POP DUP1 PUSH2 0x106F JUMP JUMPDEST PUSH2 0x3E8 PUSH1 0x3 SLOAD DUP6 PUSH2 0x1031 SWAP2 SWAP1 PUSH2 0x1482 JUMP JUMPDEST PUSH2 0x103B SWAP2 SWAP1 PUSH2 0x14A1 JUMP JUMPDEST PUSH2 0x1045 SWAP1 DUP6 PUSH2 0x141E JUMP JUMPDEST PUSH2 0x3E8 PUSH1 0x3 SLOAD DUP6 PUSH2 0x1056 SWAP2 SWAP1 PUSH2 0x1482 JUMP JUMPDEST PUSH2 0x1060 SWAP2 SWAP1 PUSH2 0x14A1 JUMP JUMPDEST PUSH2 0x106A SWAP1 DUP6 PUSH2 0x141E JUMP JUMPDEST SWAP2 POP SWAP2 POP JUMPDEST SWAP3 POP SWAP3 SWAP1 POP JUMP JUMPDEST PUSH1 0x0 PUSH2 0x10CB DUP3 PUSH1 0x40 MLOAD DUP1 PUSH1 0x40 ADD PUSH1 0x40 MSTORE DUP1 PUSH1 0x20 DUP2 MSTORE PUSH1 0x20 ADD PUSH32 0x5361666545524332303A206C6F772D6C6576656C2063616C6C206661696C6564 DUP2 MSTORE POP DUP6 PUSH1 0x1 PUSH1 0x1 PUSH1 0xA0 SHL SUB AND PUSH2 0x116D SWAP1 SWAP3 SWAP2 SWAP1 PUSH4 0xFFFFFFFF AND JUMP JUMPDEST DUP1 MLOAD SWAP1 SWAP2 POP ISZERO PUSH2 0xFB6 JUMPI DUP1 DUP1 PUSH1 0x20 ADD SWAP1 MLOAD DUP2 ADD SWAP1 PUSH2 0x10E9 SWAP2 SWAP1 PUSH2 0x14C3 JUMP JUMPDEST PUSH2 0xFB6 JUMPI PUSH1 0x40 MLOAD PUSH3 0x461BCD PUSH1 0xE5 SHL DUP2 MSTORE PUSH1 0x20 PUSH1 0x4 DUP3 ADD MSTORE PUSH1 0x2A PUSH1 0x24 DUP3 ADD MSTORE PUSH32 0x5361666545524332303A204552433230206F7065726174696F6E20646964206E PUSH1 0x44 DUP3 ADD MSTORE PUSH10 0x1BDD081CDD58D8D95959 PUSH1 0xB2 SHL PUSH1 0x64 DUP3 ADD MSTORE PUSH1 0x84 ADD PUSH2 0x3F3 JUMP JUMPDEST PUSH1 0x0 PUSH4 0x1E13380 PUSH2 0x1159 DUP4 TIMESTAMP PUSH2 0x141E JUMP JUMPDEST PUSH2 0xB48 SWAP1 PUSH10 0xD3C21BCECCEDA1000000 PUSH2 0x1482 JUMP JUMPDEST PUSH1 0x60 PUSH2 0x117C DUP5 DUP5 PUSH1 0x0 DUP6 PUSH2 0x1186 JUMP JUMPDEST SWAP1 POP JUMPDEST SWAP4 SWAP3 POP POP POP JUMP JUMPDEST PUSH1 0x60 DUP3 SELFBALANCE LT ISZERO PUSH2 0x11E7 JUMPI PUSH1 0x40 MLOAD PUSH3 0x461BCD PUSH1 0xE5 SHL DUP2 MSTORE PUSH1 0x20 PUSH1 0x4 DUP3 ADD MSTORE PUSH1 0x26 PUSH1 0x24 DUP3 ADD MSTORE PUSH32 0x416464726573733A20696E73756666696369656E742062616C616E636520666F PUSH1 0x44 DUP3 ADD MSTORE PUSH6 0x1C8818D85B1B PUSH1 0xD2 SHL PUSH1 0x64 DUP3 ADD MSTORE PUSH1 0x84 ADD PUSH2 0x3F3 JUMP JUMPDEST PUSH1 0x1 PUSH1 0x1 PUSH1 0xA0 SHL SUB DUP6 AND EXTCODESIZE PUSH2 0x123E JUMPI PUSH1 0x40 MLOAD PUSH3 0x461BCD PUSH1 0xE5 SHL DUP2 MSTORE PUSH1 0x20 PUSH1 0x4 DUP3 ADD MSTORE PUSH1 0x1D PUSH1 0x24 DUP3 ADD MSTORE PUSH32 0x416464726573733A2063616C6C20746F206E6F6E2D636F6E7472616374000000 PUSH1 0x44 DUP3 ADD MSTORE PUSH1 0x64 ADD PUSH2 0x3F3 JUMP JUMPDEST PUSH1 0x0 DUP1 DUP7 PUSH1 0x1 PUSH1 0x1 PUSH1 0xA0 SHL SUB AND DUP6 DUP8 PUSH1 0x40 MLOAD PUSH2 0x125A SWAP2 SWAP1 PUSH2 0x1511 JUMP JUMPDEST PUSH1 0x0 PUSH1 0x40 MLOAD DUP1 DUP4 SUB DUP2 DUP6 DUP8 GAS CALL SWAP3 POP POP POP RETURNDATASIZE DUP1 PUSH1 0x0 DUP2 EQ PUSH2 0x1297 JUMPI PUSH1 0x40 MLOAD SWAP2 POP PUSH1 0x1F NOT PUSH1 0x3F RETURNDATASIZE ADD AND DUP3 ADD PUSH1 0x40 MSTORE RETURNDATASIZE DUP3 MSTORE RETURNDATASIZE PUSH1 0x0 PUSH1 0x20 DUP5 ADD RETURNDATACOPY PUSH2 0x129C JUMP JUMPDEST PUSH1 0x60 SWAP2 POP JUMPDEST POP SWAP2 POP SWAP2 POP PUSH2 0x12AC DUP3 DUP3 DUP7 PUSH2 0x12B7 JUMP JUMPDEST SWAP8 SWAP7 POP POP POP POP POP POP POP JUMP JUMPDEST PUSH1 0x60 DUP4 ISZERO PUSH2 0x12C6 JUMPI POP DUP2 PUSH2 0x117F JUMP JUMPDEST DUP3 MLOAD ISZERO PUSH2 0x12D6 JUMPI DUP3 MLOAD DUP1 DUP5 PUSH1 0x20 ADD REVERT JUMPDEST DUP2 PUSH1 0x40 MLOAD PUSH3 0x461BCD PUSH1 0xE5 SHL DUP2 MSTORE PUSH1 0x4 ADD PUSH2 0x3F3 SWAP2 SWAP1 PUSH2 0x152D JUMP JUMPDEST PUSH1 0x40 MLOAD DUP1 PUSH1 0x60 ADD PUSH1 0x40 MSTORE DUP1 PUSH1 0x0 DUP2 MSTORE PUSH1 0x20 ADD PUSH1 0x0 DUP2 MSTORE PUSH1 0x20 ADD PUSH2 0x1349 PUSH1 0x40 MLOAD DUP1 PUSH1 0xE0 ADD PUSH1 0x40 MSTORE DUP1 PUSH1 0x0 DUP2 MSTORE PUSH1 0x20 ADD PUSH1 0x0 DUP2 MSTORE PUSH1 0x20 ADD PUSH1 0x0 DUP2 MSTORE PUSH1 0x20 ADD PUSH1 0x0 DUP2 MSTORE PUSH1 0x20 ADD PUSH1 0x0 DUP2 MSTORE PUSH1 0x20 ADD PUSH1 0x0 DUP2 MSTORE PUSH1 0x20 ADD PUSH1 0x0 DUP2 MSTORE POP SWAP1 JUMP JUMPDEST SWAP1 MSTORE SWAP1 JUMP JUMPDEST DUP1 CALLDATALOAD PUSH1 0x1 PUSH1 0x1 PUSH1 0xA0 SHL SUB DUP2 AND DUP2 EQ PUSH2 0x1365 JUMPI PUSH1 0x0 DUP1 REVERT JUMPDEST SWAP2 SWAP1 POP JUMP JUMPDEST PUSH1 0x0 DUP1 PUSH1 0x0 PUSH1 0x60 DUP5 DUP7 SUB SLT ISZERO PUSH2 0x137F JUMPI PUSH1 0x0 DUP1 REVERT JUMPDEST PUSH2 0x1388 DUP5 PUSH2 0x134E JUMP JUMPDEST SWAP6 PUSH1 0x20 DUP6 ADD CALLDATALOAD SWAP6 POP PUSH1 0x40 SWAP1 SWAP5 ADD CALLDATALOAD SWAP4 SWAP3 POP POP POP JUMP JUMPDEST PUSH1 0x0 PUSH1 0x20 DUP3 DUP5 SUB SLT ISZERO PUSH2 0x13AF JUMPI PUSH1 0x0 DUP1 REVERT JUMPDEST PUSH2 0x117F DUP3 PUSH2 0x134E JUMP JUMPDEST PUSH1 0x0 PUSH1 0x20 DUP3 DUP5 SUB SLT ISZERO PUSH2 0x13CA JUMPI PUSH1 0x0 DUP1 REVERT JUMPDEST POP CALLDATALOAD SWAP2 SWAP1 POP JUMP JUMPDEST PUSH1 0x20 DUP1 DUP3 MSTORE PUSH1 0x1F SWAP1 DUP3 ADD MSTORE PUSH32 0x5265656E7472616E637947756172643A207265656E7472616E742063616C6C00 PUSH1 0x40 DUP3 ADD MSTORE PUSH1 0x60 ADD SWAP1 JUMP JUMPDEST PUSH4 0x4E487B71 PUSH1 0xE0 SHL PUSH1 0x0 MSTORE PUSH1 0x11 PUSH1 0x4 MSTORE PUSH1 0x24 PUSH1 0x0 REVERT JUMPDEST PUSH1 0x0 DUP3 DUP3 LT ISZERO PUSH2 0x1430 JUMPI PUSH2 0x1430 PUSH2 0x1408 JUMP JUMPDEST POP SUB SWAP1 JUMP JUMPDEST PUSH1 0x20 DUP1 DUP3 MSTORE DUP2 DUP2 ADD MSTORE PUSH32 0x4F776E61626C653A2063616C6C6572206973206E6F7420746865206F776E6572 PUSH1 0x40 DUP3 ADD MSTORE PUSH1 0x60 ADD SWAP1 JUMP JUMPDEST PUSH1 0x0 DUP3 NOT DUP3 GT ISZERO PUSH2 0x147D JUMPI PUSH2 0x147D PUSH2 0x1408 JUMP JUMPDEST POP ADD SWAP1 JUMP JUMPDEST PUSH1 0x0 DUP2 PUSH1 0x0 NOT DIV DUP4 GT DUP3 ISZERO ISZERO AND ISZERO PUSH2 0x149C JUMPI PUSH2 0x149C PUSH2 0x1408 JUMP JUMPDEST POP MUL SWAP1 JUMP JUMPDEST PUSH1 0x0 DUP3 PUSH2 0x14BE JUMPI PUSH4 0x4E487B71 PUSH1 0xE0 SHL PUSH1 0x0 MSTORE PUSH1 0x12 PUSH1 0x4 MSTORE PUSH1 0x24 PUSH1 0x0 REVERT JUMPDEST POP DIV SWAP1 JUMP JUMPDEST PUSH1 0x0 PUSH1 0x20 DUP3 DUP5 SUB SLT ISZERO PUSH2 0x14D5 JUMPI PUSH1 0x0 DUP1 REVERT JUMPDEST DUP2 MLOAD DUP1 ISZERO ISZERO DUP2 EQ PUSH2 0x117F JUMPI PUSH1 0x0 DUP1 REVERT JUMPDEST PUSH1 0x0 JUMPDEST DUP4 DUP2 LT ISZERO PUSH2 0x1500 JUMPI DUP2 DUP2 ADD MLOAD DUP4 DUP3 ADD MSTORE PUSH1 0x20 ADD PUSH2 0x14E8 JUMP JUMPDEST DUP4 DUP2 GT ISZERO PUSH2 0xF19 JUMPI POP POP PUSH1 0x0 SWAP2 ADD MSTORE JUMP JUMPDEST PUSH1 0x0 DUP3 MLOAD PUSH2 0x1523 DUP2 DUP5 PUSH1 0x20 DUP8 ADD PUSH2 0x14E5 JUMP JUMPDEST SWAP2 SWAP1 SWAP2 ADD SWAP3 SWAP2 POP POP JUMP JUMPDEST PUSH1 0x20 DUP2 MSTORE PUSH1 0x0 DUP3 MLOAD DUP1 PUSH1 0x20 DUP5 ADD MSTORE PUSH2 0x154C DUP2 PUSH1 0x40 DUP6 ADD PUSH1 0x20 DUP8 ADD PUSH2 0x14E5 JUMP JUMPDEST PUSH1 0x1F ADD PUSH1 0x1F NOT AND SWAP2 SWAP1 SWAP2 ADD PUSH1 0x40 ADD SWAP3 SWAP2 POP POP JUMP INVALID LOG2 PUSH5 0x6970667358 0x22 SLT KECCAK256 PUSH17 0xE323B630324233EA1A0E438A5BCDF17F70 PUSH3 0x62D82B SWAP15 NOT PUSH19 0x9A85E3E15E049B64736F6C634300080B003300 "
				},
				"gasEstimates": {
					"creation": {
						"codeDepositCost": "1105200",
						"executionCost": "infinite",
						"totalCost": "infinite"
					},
					"external": {
						"_blockTimestamp()": "258",
						"airdropRate()": "2406",
						"airdropSince()": "2428",
						"calculateWeek(uint256)": "531",
						"changeAirdropPercentage(uint256)": "25633",
						"changePenaltyFee(uint256)": "25689",
						"claimAirdrop(address)": "infinite",
						"getVoters(address)": "6990",
						"getVotingResult()": "13270",
						"hasStake()": "infinite",
						"owner()": "2376",
						"renounceOwnership()": "28206",
						"retractVote()": "infinite",
						"stake(address,uint256,uint256)": "infinite",
						"stakingPenaltyRate()": "2384",
						"startAirdrop()": "24433",
						"startVoting()": "82278",
						"stopVoting()": "28759",
						"token_address()": "2360",
						"totalVoters()": "2429",
						"transferOwnership(address)": "28400",
						"vote()": "infinite",
						"votedUsers(uint256)": "2505",
						"voters(address)": "2620",
						"withdrawStake()": "infinite"
					},
					"internal": {
						"_calculateAirdrop(uint256)": "infinite",
						"_calculateStakeReward(struct Staking.Stake memory)": "infinite",
						"_calculateStakingDuration(uint256)": "243",
						"_calculateStakingWithPenalty(uint256,uint256)": "infinite",
						"_checkVotingStatus()": "infinite",
						"_isVoter()": "infinite"
					}
				},
				"methodIdentifiers": {
					"_blockTimestamp()": "c63aa3e7",
					"airdropRate()": "8891cf0d",
					"airdropSince()": "b87da76d",
					"calculateWeek(uint256)": "b5d9df83",
					"changeAirdropPercentage(uint256)": "d5dbdf1b",
					"changePenaltyFee(uint256)": "8c63f97f",
					"claimAirdrop(address)": "65f8c6c5",
					"getVoters(address)": "2d15cc04",
					"getVotingResult()": "671d2b75",
					"hasStake()": "10486b6a",
					"owner()": "8da5cb5b",
					"renounceOwnership()": "715018a6",
					"retractVote()": "070c8b74",
					"stake(address,uint256,uint256)": "0c51b88f",
					"stakingPenaltyRate()": "cb79c2e1",
					"startAirdrop()": "d2a569c3",
					"startVoting()": "1ec6b60a",
					"stopVoting()": "fab2f86b",
					"token_address()": "8c8e8fee",
					"totalVoters()": "5f5300ff",
					"transferOwnership(address)": "f2fde38b",
					"vote()": "632a9a52",
					"votedUsers(uint256)": "a143a5f2",
					"voters(address)": "a3ec138d",
					"withdrawStake()": "bed9d861"
				}
			},
			"storageLayout": {
				"storage": [
					{
						"astId": 115,
						"contract": "contracts/Stakable-2.0.sol:Staking",
						"label": "_status",
						"offset": 0,
						"slot": "0",
						"type": "t_uint256"
					},
					{
						"astId": 7,
						"contract": "contracts/Stakable-2.0.sol:Staking",
						"label": "_owner",
						"offset": 0,
						"slot": "1",
						"type": "t_address"
					},
					{
						"astId": 815,
						"contract": "contracts/Stakable-2.0.sol:Staking",
						"label": "stakingPackage",
						"offset": 0,
						"slot": "2",
						"type": "t_mapping(t_uint256,t_uint256)"
					},
					{
						"astId": 817,
						"contract": "contracts/Stakable-2.0.sol:Staking",
						"label": "stakingPenaltyRate",
						"offset": 0,
						"slot": "3",
						"type": "t_uint256"
					},
					{
						"astId": 819,
						"contract": "contracts/Stakable-2.0.sol:Staking",
						"label": "airdropRate",
						"offset": 0,
						"slot": "4",
						"type": "t_uint256"
					},
					{
						"astId": 821,
						"contract": "contracts/Stakable-2.0.sol:Staking",
						"label": "airdropSince",
						"offset": 0,
						"slot": "5",
						"type": "t_uint256"
					},
					{
						"astId": 823,
						"contract": "contracts/Stakable-2.0.sol:Staking",
						"label": "_votingStatus",
						"offset": 0,
						"slot": "6",
						"type": "t_bool"
					},
					{
						"astId": 825,
						"contract": "contracts/Stakable-2.0.sol:Staking",
						"label": "_votingId",
						"offset": 0,
						"slot": "7",
						"type": "t_uint256"
					},
					{
						"astId": 827,
						"contract": "contracts/Stakable-2.0.sol:Staking",
						"label": "totalVoters",
						"offset": 0,
						"slot": "8",
						"type": "t_uint256"
					},
					{
						"astId": 832,
						"contract": "contracts/Stakable-2.0.sol:Staking",
						"label": "voters",
						"offset": 0,
						"slot": "9",
						"type": "t_mapping(t_address,t_struct(Voter)811_storage)"
					},
					{
						"astId": 836,
						"contract": "contracts/Stakable-2.0.sol:Staking",
						"label": "votedUsers",
						"offset": 0,
						"slot": "10",
						"type": "t_mapping(t_uint256,t_uint256)"
					},
					{
						"astId": 838,
						"contract": "contracts/Stakable-2.0.sol:Staking",
						"label": "token_address",
						"offset": 0,
						"slot": "11",
						"type": "t_address"
					},
					{
						"astId": 903,
						"contract": "contracts/Stakable-2.0.sol:Staking",
						"label": "stakeholders",
						"offset": 0,
						"slot": "12",
						"type": "t_mapping(t_address,t_struct(Stake)889_storage)"
					}
				],
				"types": {
					"t_address": {
						"encoding": "inplace",
						"label": "address",
						"numberOfBytes": "20"
					},
					"t_bool": {
						"encoding": "inplace",
						"label": "bool",
						"numberOfBytes": "1"
					},
					"t_mapping(t_address,t_struct(Stake)889_storage)": {
						"encoding": "mapping",
						"key": "t_address",
						"label": "mapping(address => struct Staking.Stake)",
						"numberOfBytes": "32",
						"value": "t_struct(Stake)889_storage"
					},
					"t_mapping(t_address,t_struct(Voter)811_storage)": {
						"encoding": "mapping",
						"key": "t_address",
						"label": "mapping(address => struct Staking.Voter)",
						"numberOfBytes": "32",
						"value": "t_struct(Voter)811_storage"
					},
					"t_mapping(t_uint256,t_bool)": {
						"encoding": "mapping",
						"key": "t_uint256",
						"label": "mapping(uint256 => bool)",
						"numberOfBytes": "32",
						"value": "t_bool"
					},
					"t_mapping(t_uint256,t_uint256)": {
						"encoding": "mapping",
						"key": "t_uint256",
						"label": "mapping(uint256 => uint256)",
						"numberOfBytes": "32",
						"value": "t_uint256"
					},
					"t_struct(Stake)889_storage": {
						"encoding": "inplace",
						"label": "struct Staking.Stake",
						"members": [
							{
								"astId": 876,
								"contract": "contracts/Stakable-2.0.sol:Staking",
								"label": "amount",
								"offset": 0,
								"slot": "0",
								"type": "t_uint256"
							},
							{
								"astId": 878,
								"contract": "contracts/Stakable-2.0.sol:Staking",
								"label": "since",
								"offset": 0,
								"slot": "1",
								"type": "t_uint256"
							},
							{
								"astId": 880,
								"contract": "contracts/Stakable-2.0.sol:Staking",
								"label": "rewardAPY",
								"offset": 0,
								"slot": "2",
								"type": "t_uint256"
							},
							{
								"astId": 882,
								"contract": "contracts/Stakable-2.0.sol:Staking",
								"label": "releaseTime",
								"offset": 0,
								"slot": "3",
								"type": "t_uint256"
							},
							{
								"astId": 884,
								"contract": "contracts/Stakable-2.0.sol:Staking",
								"label": "claimable",
								"offset": 0,
								"slot": "4",
								"type": "t_uint256"
							},
							{
								"astId": 886,
								"contract": "contracts/Stakable-2.0.sol:Staking",
								"label": "claimableAirdrop",
								"offset": 0,
								"slot": "5",
								"type": "t_uint256"
							},
							{
								"astId": 888,
								"contract": "contracts/Stakable-2.0.sol:Staking",
								"label": "latestClaimDrop",
								"offset": 0,
								"slot": "6",
								"type": "t_uint256"
							}
						],
						"numberOfBytes": "224"
					},
					"t_struct(Voter)811_storage": {
						"encoding": "inplace",
						"label": "struct Staking.Voter",
						"members": [
							{
								"astId": 806,
								"contract": "contracts/Stakable-2.0.sol:Staking",
								"label": "votingRight",
								"offset": 0,
								"slot": "0",
								"type": "t_bool"
							},
							{
								"astId": 810,
								"contract": "contracts/Stakable-2.0.sol:Staking",
								"label": "voted",
								"offset": 0,
								"slot": "1",
								"type": "t_mapping(t_uint256,t_bool)"
							}
						],
						"numberOfBytes": "64"
					},
					"t_uint256": {
						"encoding": "inplace",
						"label": "uint256",
						"numberOfBytes": "32"
					}
				}
			},
			"userdoc": {
				"errors": {
					"Airdrop__claimableOnceAWeek()": [
						{
							"notice": "Error handling message for Airdrop functions"
						}
					],
					"Staking__cannotStakeNothing()": [
						{
							"notice": "Error handling message for Staking functions"
						}
					],
					"Voting__votingIsRunning()": [
						{
							"notice": "Error handling message for Voting functions"
						}
					]
				},
				"events": {
					"Staked(address,uint256,uint256,uint256)": {
						"notice": "Staked event is triggered whenever a user stakes tokens, address is indexed to make it filterable"
					}
				},
				"kind": "user",
				"methods": {
					"stake(address,uint256,uint256)": {
						"notice": "_Stake is used to make a stake for an sender. It will remove the amount staked from the stakers account and place those tokens inside a stake container StakeID"
					},
					"withdrawStake()": {
						"notice": "withdrawStake takes in an amount and a index of the stake and will remove tokens from that stake Notice index of the stake is the users stake counter, starting at 0 for the first stake Will return the amount to MINT onto the account Will also _calculateStakeReward and reset timer"
					}
				},
				"version": 1
			}
		}
	}
}