{
	"contracts/Whitelist.sol": {
		"Whitelist": {
			"abi": [
				{
					"inputs": [],
					"stateMutability": "nonpayable",
					"type": "constructor"
				},
				{
					"inputs": [
						{
							"internalType": "address",
							"name": "user",
							"type": "address"
						},
						{
							"internalType": "uint256",
							"name": "amount",
							"type": "uint256"
						}
					],
					"name": "addBeneficiary",
					"outputs": [],
					"stateMutability": "nonpayable",
					"type": "function"
				},
				{
					"inputs": [
						{
							"internalType": "address",
							"name": "user",
							"type": "address"
						}
					],
					"name": "beneficiary",
					"outputs": [
						{
							"internalType": "uint256",
							"name": "",
							"type": "uint256"
						},
						{
							"internalType": "uint256",
							"name": "",
							"type": "uint256"
						},
						{
							"internalType": "bool",
							"name": "",
							"type": "bool"
						},
						{
							"internalType": "uint256",
							"name": "",
							"type": "uint256"
						}
					],
					"stateMutability": "view",
					"type": "function"
				},
				{
					"inputs": [
						{
							"internalType": "address",
							"name": "talax",
							"type": "address"
						}
					],
					"name": "changeTalaxAddress",
					"outputs": [],
					"stateMutability": "nonpayable",
					"type": "function"
				},
				{
					"inputs": [
						{
							"internalType": "address",
							"name": "user",
							"type": "address"
						}
					],
					"name": "deleteBeneficiary",
					"outputs": [
						{
							"internalType": "uint256",
							"name": "",
							"type": "uint256"
						}
					],
					"stateMutability": "nonpayable",
					"type": "function"
				},
				{
					"inputs": [],
					"name": "getOwner",
					"outputs": [
						{
							"internalType": "address",
							"name": "",
							"type": "address"
						}
					],
					"stateMutability": "view",
					"type": "function"
				},
				{
					"inputs": [
						{
							"internalType": "address",
							"name": "user",
							"type": "address"
						}
					],
					"name": "hasWhitelist",
					"outputs": [
						{
							"components": [
								{
									"internalType": "uint256",
									"name": "lockedAmount",
									"type": "uint256"
								},
								{
									"internalType": "uint256",
									"name": "amount",
									"type": "uint256"
								},
								{
									"internalType": "bool",
									"name": "isPhase1Claimed",
									"type": "bool"
								},
								{
									"internalType": "uint256",
									"name": "latestClaimDay",
									"type": "uint256"
								}
							],
							"internalType": "struct Whitelist.WhitelistStruct",
							"name": "",
							"type": "tuple"
						}
					],
					"stateMutability": "view",
					"type": "function"
				},
				{
					"inputs": [],
					"name": "initiateWhitelist",
					"outputs": [],
					"stateMutability": "nonpayable",
					"type": "function"
				},
				{
					"inputs": [],
					"name": "privateSaleAmount",
					"outputs": [
						{
							"internalType": "uint256",
							"name": "",
							"type": "uint256"
						}
					],
					"stateMutability": "view",
					"type": "function"
				},
				{
					"inputs": [],
					"name": "privateSaleUsers",
					"outputs": [
						{
							"internalType": "uint256",
							"name": "",
							"type": "uint256"
						}
					],
					"stateMutability": "view",
					"type": "function"
				},
				{
					"inputs": [
						{
							"internalType": "address",
							"name": "user",
							"type": "address"
						}
					],
					"name": "releaseClaimable",
					"outputs": [
						{
							"internalType": "uint256",
							"name": "",
							"type": "uint256"
						}
					],
					"stateMutability": "nonpayable",
					"type": "function"
				},
				{
					"inputs": [],
					"name": "startPrivateSale",
					"outputs": [
						{
							"internalType": "uint256",
							"name": "",
							"type": "uint256"
						}
					],
					"stateMutability": "view",
					"type": "function"
				}
			],
			"devdoc": {
				"kind": "dev",
				"methods": {},
				"version": 1
			},
			"evm": {
				"assembly": "    /* \"contracts/Whitelist.sol\":123:5458  contract Whitelist {... */\n  mstore(0x40, 0x80)\n    /* \"contracts/Whitelist.sol\":721:818  constructor() {... */\n  callvalue\n  dup1\n  iszero\n  tag_1\n  jumpi\n  0x00\n  dup1\n  revert\ntag_1:\n  pop\n    /* \"contracts/Whitelist.sol\":765:782  1467900000 * 1e18 */\n  0x04be37ea7317415c45800000\n    /* \"contracts/Whitelist.sol\":745:762  privateSaleAmount */\n  0x01\n    /* \"contracts/Whitelist.sol\":745:782  privateSaleAmount = 1467900000 * 1e18 */\n  sstore\n    /* \"contracts/Whitelist.sol\":792:798  _owner */\n  0x04\n    /* \"contracts/Whitelist.sol\":792:811  _owner = msg.sender */\n  dup1\n  sload\n  not(sub(shl(0xa0, 0x01), 0x01))\n  and\n    /* \"contracts/Whitelist.sol\":801:811  msg.sender */\n  caller\n    /* \"contracts/Whitelist.sol\":792:811  _owner = msg.sender */\n  or\n  swap1\n  sstore\n    /* \"contracts/Whitelist.sol\":123:5458  contract Whitelist {... */\n  dataSize(sub_0)\n  dup1\n  dataOffset(sub_0)\n  0x00\n  codecopy\n  0x00\n  return\nstop\n\nsub_0: assembly {\n        /* \"contracts/Whitelist.sol\":123:5458  contract Whitelist {... */\n      mstore(0x40, 0x80)\n      callvalue\n      dup1\n      iszero\n      tag_1\n      jumpi\n      0x00\n      dup1\n      revert\n    tag_1:\n      pop\n      jumpi(tag_2, lt(calldatasize, 0x04))\n      shr(0xe0, calldataload(0x00))\n      dup1\n      0x81008568\n      gt\n      tag_14\n      jumpi\n      dup1\n      0x8cdb7e8b\n      gt\n      tag_15\n      jumpi\n      dup1\n      0x8cdb7e8b\n      eq\n      tag_11\n      jumpi\n      dup1\n      0x96074e70\n      eq\n      tag_12\n      jumpi\n      dup1\n      0xefdd8796\n      eq\n      tag_13\n      jumpi\n      0x00\n      dup1\n      revert\n    tag_15:\n      dup1\n      0x81008568\n      eq\n      tag_8\n      jumpi\n      dup1\n      0x893d20e8\n      eq\n      tag_9\n      jumpi\n      dup1\n      0x8b2b423a\n      eq\n      tag_10\n      jumpi\n      0x00\n      dup1\n      revert\n    tag_14:\n      dup1\n      0x338dbf59\n      gt\n      tag_16\n      jumpi\n      dup1\n      0x338dbf59\n      eq\n      tag_5\n      jumpi\n      dup1\n      0x549dee0b\n      eq\n      tag_6\n      jumpi\n      dup1\n      0x7d3bca76\n      eq\n      tag_7\n      jumpi\n      0x00\n      dup1\n      revert\n    tag_16:\n      dup1\n      0x5171f4\n      eq\n      tag_3\n      jumpi\n      dup1\n      0x1d77b00b\n      eq\n      tag_4\n      jumpi\n    tag_2:\n      0x00\n      dup1\n      revert\n        /* \"contracts/Whitelist.sol\":4953:5456  function releaseClaimable(address user)... */\n    tag_3:\n      tag_17\n      tag_18\n      calldatasize\n      0x04\n      tag_19\n      jump\t// in\n    tag_18:\n      tag_20\n      jump\t// in\n    tag_17:\n      mload(0x40)\n        /* \"#utility.yul\":552:577   */\n      swap1\n      dup2\n      mstore\n        /* \"#utility.yul\":540:542   */\n      0x20\n        /* \"#utility.yul\":525:543   */\n      add\n        /* \"contracts/Whitelist.sol\":4953:5456  function releaseClaimable(address user)... */\n    tag_21:\n      mload(0x40)\n      dup1\n      swap2\n      sub\n      swap1\n      return\n        /* \"contracts/Whitelist.sol\":1208:1301  function changeTalaxAddress(address talax) external onlyTalax {... */\n    tag_4:\n      tag_23\n      tag_24\n      calldatasize\n      0x04\n      tag_19\n      jump\t// in\n    tag_24:\n      tag_25\n      jump\t// in\n    tag_23:\n      stop\n        /* \"contracts/Whitelist.sol\":385:416  uint256 public startPrivateSale */\n    tag_5:\n      tag_17\n      sload(0x02)\n      dup2\n      jump\n        /* \"contracts/Whitelist.sol\":180:211  uint256 public privateSaleUsers */\n    tag_6:\n      tag_17\n      sload(0x00)\n      dup2\n      jump\n        /* \"contracts/Whitelist.sol\":4477:4866  function deleteBeneficiary(address user)... */\n    tag_7:\n      tag_17\n      tag_33\n      calldatasize\n      0x04\n      tag_19\n      jump\t// in\n    tag_33:\n      tag_34\n      jump\t// in\n        /* \"contracts/Whitelist.sol\":1391:1788  function beneficiary(address user)... */\n    tag_8:\n      tag_36\n      tag_37\n      calldatasize\n      0x04\n      tag_19\n      jump\t// in\n    tag_37:\n      sub(shl(0xa0, 0x01), 0x01)\n        /* \"contracts/Whitelist.sol\":1609:1627  _beneficiary[user] */\n      and\n        /* \"contracts/Whitelist.sol\":1486:1493  uint256 */\n      0x00\n        /* \"contracts/Whitelist.sol\":1609:1627  _beneficiary[user] */\n      swap1\n      dup2\n      mstore\n        /* \"contracts/Whitelist.sol\":1609:1621  _beneficiary */\n      0x03\n        /* \"contracts/Whitelist.sol\":1609:1627  _beneficiary[user] */\n      0x20\n      dup2\n      dup2\n      mstore\n      0x40\n      swap3\n      dup4\n      swap1\n      keccak256\n        /* \"contracts/Whitelist.sol\":1578:1627  WhitelistStruct memory benef = _beneficiary[user] */\n      dup4\n      mload\n      0x80\n      dup2\n      add\n      dup6\n      mstore\n      dup2\n      sload\n      dup1\n      dup3\n      mstore\n      0x01\n      dup4\n      add\n      sload\n      swap4\n      dup3\n      add\n      dup5\n      swap1\n      mstore\n      0x02\n      dup4\n      add\n      sload\n      0xff\n      and\n      iszero\n      iszero\n      swap6\n      dup3\n      add\n      dup7\n      swap1\n      mstore\n      swap2\n      swap1\n      swap4\n      add\n      sload\n      0x60\n      swap1\n      swap4\n      add\n      dup4\n      swap1\n      mstore\n      swap4\n      swap1\n      swap3\n      swap2\n      swap1\n        /* \"contracts/Whitelist.sol\":1391:1788  function beneficiary(address user)... */\n      jump\n    tag_36:\n      0x40\n      dup1\n      mload\n        /* \"#utility.yul\":813:838   */\n      swap5\n      dup6\n      mstore\n        /* \"#utility.yul\":869:871   */\n      0x20\n        /* \"#utility.yul\":854:872   */\n      dup6\n      add\n        /* \"#utility.yul\":847:881   */\n      swap4\n      swap1\n      swap4\n      mstore\n        /* \"#utility.yul\":924:938   */\n      swap1\n      iszero\n        /* \"#utility.yul\":917:939   */\n      iszero\n        /* \"#utility.yul\":897:915   */\n      swap2\n      dup4\n      add\n        /* \"#utility.yul\":890:940   */\n      swap2\n      swap1\n      swap2\n      mstore\n        /* \"#utility.yul\":971:973   */\n      0x60\n        /* \"#utility.yul\":956:974   */\n      dup3\n      add\n        /* \"#utility.yul\":949:983   */\n      mstore\n        /* \"#utility.yul\":800:803   */\n      0x80\n        /* \"#utility.yul\":785:804   */\n      add\n        /* \"contracts/Whitelist.sol\":1391:1788  function beneficiary(address user)... */\n      tag_21\n        /* \"#utility.yul\":588:989   */\n      jump\n        /* \"contracts/Whitelist.sol\":1307:1385  function getOwner() public view returns(address){... */\n    tag_9:\n        /* \"contracts/Whitelist.sol\":1372:1378  _owner */\n      sload(0x04)\n        /* \"contracts/Whitelist.sol\":1307:1385  function getOwner() public view returns(address){... */\n      mload(0x40)\n      sub(shl(0xa0, 0x01), 0x01)\n        /* \"contracts/Whitelist.sol\":1372:1378  _owner */\n      swap1\n      swap2\n      and\n        /* \"#utility.yul\":1140:1214   */\n      dup2\n      mstore\n        /* \"#utility.yul\":1128:1130   */\n      0x20\n        /* \"#utility.yul\":1113:1131   */\n      add\n        /* \"contracts/Whitelist.sol\":1307:1385  function getOwner() public view returns(address){... */\n      tag_21\n        /* \"#utility.yul\":994:1220   */\n      jump\n        /* \"contracts/Whitelist.sol\":218:250  uint256 public privateSaleAmount */\n    tag_10:\n      tag_17\n      sload(0x01)\n      dup2\n      jump\n        /* \"contracts/Whitelist.sol\":1899:2052  function hasWhitelist(address user)... */\n    tag_11:\n      tag_48\n      tag_49\n      calldatasize\n      0x04\n      tag_19\n      jump\t// in\n    tag_49:\n      tag_50\n      jump\t// in\n    tag_48:\n      mload(0x40)\n      tag_21\n      swap2\n      swap1\n        /* \"#utility.yul\":1454:1467   */\n      dup2\n      mload\n        /* \"#utility.yul\":1436:1468   */\n      dup2\n      mstore\n        /* \"#utility.yul\":1524:1528   */\n      0x20\n        /* \"#utility.yul\":1512:1529   */\n      dup1\n      dup4\n      add\n        /* \"#utility.yul\":1506:1530   */\n      mload\n        /* \"#utility.yul\":1484:1504   */\n      swap1\n      dup3\n      add\n        /* \"#utility.yul\":1477:1531   */\n      mstore\n        /* \"#utility.yul\":1601:1605   */\n      0x40\n        /* \"#utility.yul\":1589:1606   */\n      dup1\n      dup4\n      add\n        /* \"#utility.yul\":1583:1607   */\n      mload\n        /* \"#utility.yul\":1576:1608   */\n      iszero\n        /* \"#utility.yul\":1569:1609   */\n      iszero\n        /* \"#utility.yul\":1547:1567   */\n      swap1\n      dup3\n      add\n        /* \"#utility.yul\":1540:1610   */\n      mstore\n        /* \"#utility.yul\":1666:1670   */\n      0x60\n        /* \"#utility.yul\":1654:1671   */\n      swap2\n      dup3\n      add\n        /* \"#utility.yul\":1648:1672   */\n      mload\n        /* \"#utility.yul\":1626:1646   */\n      swap2\n      dup2\n      add\n        /* \"#utility.yul\":1619:1673   */\n      swap2\n      swap1\n      swap2\n      mstore\n        /* \"#utility.yul\":1423:1426   */\n      0x80\n        /* \"#utility.yul\":1408:1427   */\n      add\n      swap1\n        /* \"#utility.yul\":1225:1679   */\n      jump\n        /* \"contracts/Whitelist.sol\":3953:4471  function addBeneficiary(address user, uint256 amount)... */\n    tag_12:\n      tag_23\n      tag_54\n      calldatasize\n      0x04\n      tag_55\n      jump\t// in\n    tag_54:\n      tag_56\n      jump\t// in\n        /* \"contracts/Whitelist.sol\":1794:1893  function initiateWhitelist() external onlyTalax {... */\n    tag_13:\n      tag_23\n      tag_58\n      jump\t// in\n        /* \"contracts/Whitelist.sol\":4953:5456  function releaseClaimable(address user)... */\n    tag_20:\n        /* \"contracts/Whitelist.sol\":5045:5052  uint256 */\n      0x00\n        /* \"contracts/Whitelist.sol\":1066:1078  _onlyTalax() */\n      tag_60\n        /* \"contracts/Whitelist.sol\":1066:1076  _onlyTalax */\n      tag_61\n        /* \"contracts/Whitelist.sol\":1066:1078  _onlyTalax() */\n      jump\t// in\n    tag_60:\n      sub(shl(0xa0, 0x01), 0x01)\n        /* \"contracts/Whitelist.sol\":5076:5094  _beneficiary[user] */\n      dup3\n      and\n        /* \"contracts/Whitelist.sol\":5104:5105  0 */\n      0x00\n        /* \"contracts/Whitelist.sol\":5076:5094  _beneficiary[user] */\n      swap1\n      dup2\n      mstore\n        /* \"contracts/Whitelist.sol\":5076:5088  _beneficiary */\n      0x03\n        /* \"contracts/Whitelist.sol\":5076:5094  _beneficiary[user] */\n      0x20\n      mstore\n      0x40\n      swap1\n      keccak256\n        /* \"contracts/Whitelist.sol\":5076:5101  _beneficiary[user].amount */\n      0x01\n      add\n      sload\n        /* \"contracts/Whitelist.sol\":5068:5124  require(_beneficiary[user].amount > 0, \"No Tokens Left\") */\n      tag_63\n      jumpi\n      mload(0x40)\n      shl(0xe5, 0x461bcd)\n      dup2\n      mstore\n        /* \"#utility.yul\":2145:2147   */\n      0x20\n        /* \"contracts/Whitelist.sol\":5068:5124  require(_beneficiary[user].amount > 0, \"No Tokens Left\") */\n      0x04\n      dup3\n      add\n        /* \"#utility.yul\":2127:2148   */\n      mstore\n        /* \"#utility.yul\":2184:2186   */\n      0x0e\n        /* \"#utility.yul\":2164:2182   */\n      0x24\n      dup3\n      add\n        /* \"#utility.yul\":2157:2187   */\n      mstore\n        /* \"#utility.yul\":2223:2239   */\n      0x4e6f20546f6b656e73204c656674000000000000000000000000000000000000\n        /* \"#utility.yul\":2203:2221   */\n      0x44\n      dup3\n      add\n        /* \"#utility.yul\":2196:2240   */\n      mstore\n        /* \"#utility.yul\":2257:2275   */\n      0x64\n      add\n        /* \"contracts/Whitelist.sol\":5068:5124  require(_beneficiary[user].amount > 0, \"No Tokens Left\") */\n    tag_64:\n      mload(0x40)\n      dup1\n      swap2\n      sub\n      swap1\n      revert\n    tag_63:\n        /* \"contracts/Whitelist.sol\":5135:5164  uint256 claimableLockedAmount */\n      0x00\n        /* \"contracts/Whitelist.sol\":5167:5198  _calculateClaimableAmount(user) */\n      tag_66\n        /* \"contracts/Whitelist.sol\":5193:5197  user */\n      dup4\n        /* \"contracts/Whitelist.sol\":5167:5192  _calculateClaimableAmount */\n      tag_67\n        /* \"contracts/Whitelist.sol\":5167:5198  _calculateClaimableAmount(user) */\n      jump\t// in\n    tag_66:\n        /* \"contracts/Whitelist.sol\":5135:5198  uint256 claimableLockedAmount = _calculateClaimableAmount(user) */\n      swap1\n      pop\n        /* \"contracts/Whitelist.sol\":5241:5242  0 */\n      0x00\n        /* \"contracts/Whitelist.sol\":5217:5238  claimableLockedAmount */\n      dup2\n        /* \"contracts/Whitelist.sol\":5217:5242  claimableLockedAmount > 0 */\n      gt\n        /* \"contracts/Whitelist.sol\":5209:5275  require(claimableLockedAmount > 0, \"No Tokens to Release for Now\") */\n      tag_68\n      jumpi\n      mload(0x40)\n      shl(0xe5, 0x461bcd)\n      dup2\n      mstore\n        /* \"#utility.yul\":2488:2490   */\n      0x20\n        /* \"contracts/Whitelist.sol\":5209:5275  require(claimableLockedAmount > 0, \"No Tokens to Release for Now\") */\n      0x04\n      dup3\n      add\n        /* \"#utility.yul\":2470:2491   */\n      mstore\n        /* \"#utility.yul\":2527:2529   */\n      0x1c\n        /* \"#utility.yul\":2507:2525   */\n      0x24\n      dup3\n      add\n        /* \"#utility.yul\":2500:2530   */\n      mstore\n        /* \"#utility.yul\":2566:2596   */\n      0x4e6f20546f6b656e7320746f2052656c6561736520666f72204e6f7700000000\n        /* \"#utility.yul\":2546:2564   */\n      0x44\n      dup3\n      add\n        /* \"#utility.yul\":2539:2597   */\n      mstore\n        /* \"#utility.yul\":2614:2632   */\n      0x64\n      add\n        /* \"contracts/Whitelist.sol\":5209:5275  require(claimableLockedAmount > 0, \"No Tokens to Release for Now\") */\n      tag_64\n        /* \"#utility.yul\":2286:2638   */\n      jump\n        /* \"contracts/Whitelist.sol\":5209:5275  require(claimableLockedAmount > 0, \"No Tokens to Release for Now\") */\n    tag_68:\n      sub(shl(0xa0, 0x01), 0x01)\n        /* \"contracts/Whitelist.sol\":5340:5358  _beneficiary[user] */\n      dup4\n      and\n      0x00\n      swap1\n      dup2\n      mstore\n        /* \"contracts/Whitelist.sol\":5340:5352  _beneficiary */\n      0x03\n        /* \"contracts/Whitelist.sol\":5340:5358  _beneficiary[user] */\n      0x20\n      mstore\n      0x40\n      swap1\n      keccak256\n        /* \"contracts/Whitelist.sol\":5340:5365  _beneficiary[user].amount */\n      0x01\n      add\n      sload\n        /* \"contracts/Whitelist.sol\":5314:5410  SafeMath.sub(... */\n      tag_71\n      swap1\n        /* \"contracts/Whitelist.sol\":5379:5400  claimableLockedAmount */\n      dup3\n        /* \"contracts/Whitelist.sol\":5314:5326  SafeMath.sub */\n      tag_72\n        /* \"contracts/Whitelist.sol\":5314:5410  SafeMath.sub(... */\n      jump\t// in\n    tag_71:\n      sub(shl(0xa0, 0x01), 0x01)\n        /* \"contracts/Whitelist.sol\":5286:5304  _beneficiary[user] */\n      dup5\n      and\n      0x00\n      swap1\n      dup2\n      mstore\n        /* \"contracts/Whitelist.sol\":5286:5298  _beneficiary */\n      0x03\n        /* \"contracts/Whitelist.sol\":5286:5304  _beneficiary[user] */\n      0x20\n      mstore\n      0x40\n      swap1\n      keccak256\n        /* \"contracts/Whitelist.sol\":5286:5311  _beneficiary[user].amount */\n      0x01\n      add\n        /* \"contracts/Whitelist.sol\":5286:5410  _beneficiary[user].amount = SafeMath.sub(... */\n      sstore\n        /* \"contracts/Whitelist.sol\":5428:5449  claimableLockedAmount */\n      swap1\n      pop\n        /* \"contracts/Whitelist.sol\":1088:1089  _ */\n    tag_62:\n        /* \"contracts/Whitelist.sol\":4953:5456  function releaseClaimable(address user)... */\n      swap2\n      swap1\n      pop\n      jump\t// out\n        /* \"contracts/Whitelist.sol\":1208:1301  function changeTalaxAddress(address talax) external onlyTalax {... */\n    tag_25:\n        /* \"contracts/Whitelist.sol\":1066:1078  _onlyTalax() */\n      tag_74\n        /* \"contracts/Whitelist.sol\":1066:1076  _onlyTalax */\n      tag_61\n        /* \"contracts/Whitelist.sol\":1066:1078  _onlyTalax() */\n      jump\t// in\n    tag_74:\n        /* \"contracts/Whitelist.sol\":1280:1286  _owner */\n      0x04\n        /* \"contracts/Whitelist.sol\":1280:1294  _owner = talax */\n      dup1\n      sload\n      0xffffffffffffffffffffffff0000000000000000000000000000000000000000\n      and\n      sub(shl(0xa0, 0x01), 0x01)\n      swap3\n      swap1\n      swap3\n      and\n      swap2\n      swap1\n      swap2\n      or\n      swap1\n      sstore\n        /* \"contracts/Whitelist.sol\":1208:1301  function changeTalaxAddress(address talax) external onlyTalax {... */\n      jump\t// out\n        /* \"contracts/Whitelist.sol\":4477:4866  function deleteBeneficiary(address user)... */\n    tag_34:\n        /* \"contracts/Whitelist.sol\":4570:4577  uint256 */\n      0x00\n        /* \"contracts/Whitelist.sol\":1066:1078  _onlyTalax() */\n      tag_77\n        /* \"contracts/Whitelist.sol\":1066:1076  _onlyTalax */\n      tag_61\n        /* \"contracts/Whitelist.sol\":1066:1078  _onlyTalax() */\n      jump\t// in\n    tag_77:\n      sub(shl(0xa0, 0x01), 0x01)\n        /* \"contracts/Whitelist.sol\":4601:4619  _beneficiary[user] */\n      dup3\n      and\n      0x00\n      swap1\n      dup2\n      mstore\n        /* \"contracts/Whitelist.sol\":4601:4613  _beneficiary */\n      0x03\n        /* \"contracts/Whitelist.sol\":4601:4619  _beneficiary[user] */\n      0x20\n      mstore\n      0x40\n      swap1\n      keccak256\n        /* \"contracts/Whitelist.sol\":4601:4626  _beneficiary[user].amount */\n      0x01\n      add\n      sload\n        /* \"contracts/Whitelist.sol\":4593:4655  require(_beneficiary[user].amount != 0, \"User not Registered\") */\n      tag_79\n      jumpi\n      mload(0x40)\n      shl(0xe5, 0x461bcd)\n      dup2\n      mstore\n        /* \"#utility.yul\":2845:2847   */\n      0x20\n        /* \"contracts/Whitelist.sol\":4593:4655  require(_beneficiary[user].amount != 0, \"User not Registered\") */\n      0x04\n      dup3\n      add\n        /* \"#utility.yul\":2827:2848   */\n      mstore\n        /* \"#utility.yul\":2884:2886   */\n      0x13\n        /* \"#utility.yul\":2864:2882   */\n      0x24\n      dup3\n      add\n        /* \"#utility.yul\":2857:2887   */\n      mstore\n        /* \"#utility.yul\":2923:2944   */\n      0x55736572206e6f74205265676973746572656400000000000000000000000000\n        /* \"#utility.yul\":2903:2921   */\n      0x44\n      dup3\n      add\n        /* \"#utility.yul\":2896:2945   */\n      mstore\n        /* \"#utility.yul\":2962:2980   */\n      0x64\n      add\n        /* \"contracts/Whitelist.sol\":4593:4655  require(_beneficiary[user].amount != 0, \"User not Registered\") */\n      tag_64\n        /* \"#utility.yul\":2643:2986   */\n      jump\n        /* \"contracts/Whitelist.sol\":4593:4655  require(_beneficiary[user].amount != 0, \"User not Registered\") */\n    tag_79:\n        /* \"contracts/Whitelist.sol\":4685:4686  1 */\n      0x01\n        /* \"contracts/Whitelist.sol\":4665:4681  privateSaleUsers */\n      0x00\n      dup1\n        /* \"contracts/Whitelist.sol\":4665:4686  privateSaleUsers -= 1 */\n      dup3\n      dup3\n      sload\n      tag_82\n      swap2\n      swap1\n      tag_83\n      jump\t// in\n    tag_82:\n      swap1\n      swap2\n      sstore\n      pop\n      pop\n      sub(shl(0xa0, 0x01), 0x01)\n        /* \"contracts/Whitelist.sol\":4717:4735  _beneficiary[user] */\n      dup3\n      and\n      0x00\n      swap1\n      dup2\n      mstore\n        /* \"contracts/Whitelist.sol\":4717:4729  _beneficiary */\n      0x03\n        /* \"contracts/Whitelist.sol\":4717:4735  _beneficiary[user] */\n      0x20\n      mstore\n      0x40\n      dup2\n      keccak256\n        /* \"contracts/Whitelist.sol\":4717:4742  _beneficiary[user].amount */\n      0x01\n      swap1\n      dup2\n      add\n      sload\n        /* \"contracts/Whitelist.sol\":4696:4742  privateSaleAmount += _beneficiary[user].amount */\n      dup2\n      sload\n        /* \"contracts/Whitelist.sol\":4717:4742  _beneficiary[user].amount */\n      swap1\n      swap3\n        /* \"contracts/Whitelist.sol\":4717:4735  _beneficiary[user] */\n      swap1\n        /* \"contracts/Whitelist.sol\":4696:4742  privateSaleAmount += _beneficiary[user].amount */\n      tag_84\n      swap1\n        /* \"contracts/Whitelist.sol\":4717:4742  _beneficiary[user].amount */\n      dup5\n      swap1\n        /* \"contracts/Whitelist.sol\":4696:4742  privateSaleAmount += _beneficiary[user].amount */\n      tag_85\n      jump\t// in\n    tag_84:\n      swap1\n      swap2\n      sstore\n      pop\n      pop\n      pop\n      sub(shl(0xa0, 0x01), 0x01)\n        /* \"contracts/Whitelist.sol\":4772:4790  _beneficiary[user] */\n      and\n        /* \"contracts/Whitelist.sol\":4752:4769  uint256 ex_amount */\n      0x00\n        /* \"contracts/Whitelist.sol\":4772:4790  _beneficiary[user] */\n      swap1\n      dup2\n      mstore\n        /* \"contracts/Whitelist.sol\":4772:4784  _beneficiary */\n      0x03\n        /* \"contracts/Whitelist.sol\":4772:4790  _beneficiary[user] */\n      0x20\n      dup2\n      swap1\n      mstore\n      0x40\n      dup3\n      keccak256\n        /* \"contracts/Whitelist.sol\":4772:4797  _beneficiary[user].amount */\n      0x01\n      dup2\n      add\n      dup1\n      sload\n        /* \"contracts/Whitelist.sol\":4808:4833  delete _beneficiary[user] */\n      dup5\n      dup4\n      sstore\n      swap1\n      dup5\n      swap1\n      sstore\n      0x02\n      dup3\n      add\n      dup1\n      sload\n      not(0xff)\n      and\n      swap1\n      sstore\n      swap2\n      add\n      swap2\n      swap1\n      swap2\n      sstore\n        /* \"contracts/Whitelist.sol\":4772:4797  _beneficiary[user].amount */\n      swap1\n        /* \"contracts/Whitelist.sol\":4477:4866  function deleteBeneficiary(address user)... */\n      jump\t// out\n        /* \"contracts/Whitelist.sol\":1899:2052  function hasWhitelist(address user)... */\n    tag_50:\n        /* \"contracts/Whitelist.sol\":1982:2004  WhitelistStruct memory */\n      tag_88\n      mload(0x40)\n      dup1\n      0x80\n      add\n      0x40\n      mstore\n      dup1\n      0x00\n      dup2\n      mstore\n      0x20\n      add\n      0x00\n      dup2\n      mstore\n      0x20\n      add\n      iszero(iszero(0x00))\n      dup2\n      mstore\n      0x20\n      add\n      0x00\n      dup2\n      mstore\n      pop\n      swap1\n      jump\n    tag_88:\n      pop\n      sub(shl(0xa0, 0x01), 0x01)\n        /* \"contracts/Whitelist.sol\":2027:2045  _beneficiary[user] */\n      and\n      0x00\n      swap1\n      dup2\n      mstore\n        /* \"contracts/Whitelist.sol\":2027:2039  _beneficiary */\n      0x03\n        /* \"contracts/Whitelist.sol\":2027:2045  _beneficiary[user] */\n      0x20\n      dup2\n      dup2\n      mstore\n      0x40\n      swap3\n      dup4\n      swap1\n      keccak256\n        /* \"contracts/Whitelist.sol\":2020:2045  return _beneficiary[user] */\n      dup4\n      mload\n      0x80\n      dup2\n      add\n      dup6\n      mstore\n      dup2\n      sload\n      dup2\n      mstore\n      0x01\n      dup3\n      add\n      sload\n      swap3\n      dup2\n      add\n      swap3\n      swap1\n      swap3\n      mstore\n      0x02\n      dup2\n      add\n      sload\n      0xff\n      and\n      iszero\n      iszero\n      swap4\n      dup3\n      add\n      swap4\n      swap1\n      swap4\n      mstore\n      swap2\n      add\n      sload\n      0x60\n      dup3\n      add\n      mstore\n      swap1\n        /* \"contracts/Whitelist.sol\":1899:2052  function hasWhitelist(address user)... */\n      jump\t// out\n        /* \"contracts/Whitelist.sol\":3953:4471  function addBeneficiary(address user, uint256 amount)... */\n    tag_56:\n        /* \"contracts/Whitelist.sol\":1066:1078  _onlyTalax() */\n      tag_92\n        /* \"contracts/Whitelist.sol\":1066:1076  _onlyTalax */\n      tag_61\n        /* \"contracts/Whitelist.sol\":1066:1078  _onlyTalax() */\n      jump\t// in\n    tag_92:\n        /* \"contracts/Whitelist.sol\":4074:4091  privateSaleAmount */\n      sload(0x01)\n        /* \"contracts/Whitelist.sol\":4064:4070  amount */\n      dup2\n        /* \"contracts/Whitelist.sol\":4064:4091  amount <= privateSaleAmount */\n      gt\n      iszero\n        /* \"contracts/Whitelist.sol\":4056:4122  require(amount <= privateSaleAmount, \"Insufficient Total Balance\") */\n      tag_94\n      jumpi\n      mload(0x40)\n      shl(0xe5, 0x461bcd)\n      dup2\n      mstore\n        /* \"#utility.yul\":3645:3647   */\n      0x20\n        /* \"contracts/Whitelist.sol\":4056:4122  require(amount <= privateSaleAmount, \"Insufficient Total Balance\") */\n      0x04\n      dup3\n      add\n        /* \"#utility.yul\":3627:3648   */\n      mstore\n        /* \"#utility.yul\":3684:3686   */\n      0x1a\n        /* \"#utility.yul\":3664:3682   */\n      0x24\n      dup3\n      add\n        /* \"#utility.yul\":3657:3687   */\n      mstore\n        /* \"#utility.yul\":3723:3751   */\n      0x496e73756666696369656e7420546f74616c2042616c616e6365000000000000\n        /* \"#utility.yul\":3703:3721   */\n      0x44\n      dup3\n      add\n        /* \"#utility.yul\":3696:3752   */\n      mstore\n        /* \"#utility.yul\":3769:3787   */\n      0x64\n      add\n        /* \"contracts/Whitelist.sol\":4056:4122  require(amount <= privateSaleAmount, \"Insufficient Total Balance\") */\n      tag_64\n        /* \"#utility.yul\":3443:3793   */\n      jump\n        /* \"contracts/Whitelist.sol\":4056:4122  require(amount <= privateSaleAmount, \"Insufficient Total Balance\") */\n    tag_94:\n      sub(shl(0xa0, 0x01), 0x01)\n        /* \"contracts/Whitelist.sol\":4140:4158  _beneficiary[user] */\n      dup3\n      and\n      0x00\n      swap1\n      dup2\n      mstore\n        /* \"contracts/Whitelist.sol\":4140:4152  _beneficiary */\n      0x03\n        /* \"contracts/Whitelist.sol\":4140:4158  _beneficiary[user] */\n      0x20\n      mstore\n      0x40\n      swap1\n      keccak256\n        /* \"contracts/Whitelist.sol\":4140:4165  _beneficiary[user].amount */\n      0x01\n      add\n      sload\n        /* \"contracts/Whitelist.sol\":4140:4170  _beneficiary[user].amount == 0 */\n      iszero\n        /* \"contracts/Whitelist.sol\":4132:4201  require(_beneficiary[user].amount == 0, \"Cannot add Registered User\") */\n      tag_97\n      jumpi\n      mload(0x40)\n      shl(0xe5, 0x461bcd)\n      dup2\n      mstore\n        /* \"#utility.yul\":4000:4002   */\n      0x20\n        /* \"contracts/Whitelist.sol\":4132:4201  require(_beneficiary[user].amount == 0, \"Cannot add Registered User\") */\n      0x04\n      dup3\n      add\n        /* \"#utility.yul\":3982:4003   */\n      mstore\n        /* \"#utility.yul\":4039:4041   */\n      0x1a\n        /* \"#utility.yul\":4019:4037   */\n      0x24\n      dup3\n      add\n        /* \"#utility.yul\":4012:4042   */\n      mstore\n        /* \"#utility.yul\":4078:4106   */\n      0x43616e6e6f742061646420526567697374657265642055736572000000000000\n        /* \"#utility.yul\":4058:4076   */\n      0x44\n      dup3\n      add\n        /* \"#utility.yul\":4051:4107   */\n      mstore\n        /* \"#utility.yul\":4124:4142   */\n      0x64\n      add\n        /* \"contracts/Whitelist.sol\":4132:4201  require(_beneficiary[user].amount == 0, \"Cannot add Registered User\") */\n      tag_64\n        /* \"#utility.yul\":3798:4148   */\n      jump\n        /* \"contracts/Whitelist.sol\":4132:4201  require(_beneficiary[user].amount == 0, \"Cannot add Registered User\") */\n    tag_97:\n      sub(shl(0xa0, 0x01), 0x01)\n        /* \"contracts/Whitelist.sol\":4212:4230  _beneficiary[user] */\n      dup3\n      and\n      0x00\n      swap1\n      dup2\n      mstore\n        /* \"contracts/Whitelist.sol\":4212:4224  _beneficiary */\n      0x03\n        /* \"contracts/Whitelist.sol\":4212:4230  _beneficiary[user] */\n      0x20\n      dup2\n      swap1\n      mstore\n      0x40\n      dup3\n      keccak256\n        /* \"contracts/Whitelist.sol\":4212:4252  _beneficiary[user].lockedAmount = amount */\n      dup4\n      dup2\n      sstore\n        /* \"contracts/Whitelist.sol\":4262:4287  _beneficiary[user].amount */\n      0x01\n      dup1\n      dup3\n      add\n        /* \"contracts/Whitelist.sol\":4262:4296  _beneficiary[user].amount = amount */\n      dup6\n      swap1\n      sstore\n        /* \"contracts/Whitelist.sol\":4306:4340  _beneficiary[user].isPhase1Claimed */\n      0x02\n      dup3\n      add\n        /* \"contracts/Whitelist.sol\":4306:4348  _beneficiary[user].isPhase1Claimed = false */\n      dup1\n      sload\n      not(0xff)\n      and\n      swap1\n      sstore\n        /* \"contracts/Whitelist.sol\":4358:4391  _beneficiary[user].latestClaimDay */\n      swap2\n      add\n        /* \"contracts/Whitelist.sol\":4358:4395  _beneficiary[user].latestClaimDay = 1 */\n      dup2\n      swap1\n      sstore\n        /* \"contracts/Whitelist.sol\":4406:4427  privateSaleUsers += 1 */\n      dup2\n      sload\n        /* \"contracts/Whitelist.sol\":4262:4287  _beneficiary[user].amount */\n      swap1\n      swap2\n        /* \"contracts/Whitelist.sol\":4212:4230  _beneficiary[user] */\n      swap1\n      dup2\n      swap1\n        /* \"contracts/Whitelist.sol\":4406:4427  privateSaleUsers += 1 */\n      tag_100\n      swap1\n        /* \"contracts/Whitelist.sol\":4262:4287  _beneficiary[user].amount */\n      dup5\n      swap1\n        /* \"contracts/Whitelist.sol\":4406:4427  privateSaleUsers += 1 */\n      tag_85\n      jump\t// in\n    tag_100:\n      swap3\n      pop\n      pop\n      dup2\n      swap1\n      sstore\n      pop\n        /* \"contracts/Whitelist.sol\":4458:4464  amount */\n      dup1\n        /* \"contracts/Whitelist.sol\":4437:4454  privateSaleAmount */\n      0x01\n      0x00\n        /* \"contracts/Whitelist.sol\":4437:4464  privateSaleAmount -= amount */\n      dup3\n      dup3\n      sload\n      tag_101\n      swap2\n      swap1\n      tag_83\n      jump\t// in\n    tag_101:\n      swap1\n      swap2\n      sstore\n      pop\n      pop\n      pop\n      pop\n        /* \"contracts/Whitelist.sol\":3953:4471  function addBeneficiary(address user, uint256 amount)... */\n      jump\t// out\n        /* \"contracts/Whitelist.sol\":1794:1893  function initiateWhitelist() external onlyTalax {... */\n    tag_58:\n        /* \"contracts/Whitelist.sol\":1066:1078  _onlyTalax() */\n      tag_103\n        /* \"contracts/Whitelist.sol\":1066:1076  _onlyTalax */\n      tag_61\n        /* \"contracts/Whitelist.sol\":1066:1078  _onlyTalax() */\n      jump\t// in\n    tag_103:\n        /* \"contracts/Whitelist.sol\":1871:1886  block.timestamp */\n      timestamp\n        /* \"contracts/Whitelist.sol\":1852:1868  startPrivateSale */\n      0x02\n        /* \"contracts/Whitelist.sol\":1852:1886  startPrivateSale = block.timestamp */\n      sstore\n        /* \"contracts/Whitelist.sol\":1794:1893  function initiateWhitelist() external onlyTalax {... */\n      jump\t// out\n        /* \"contracts/Whitelist.sol\":929:1029  function _onlyTalax() internal view {... */\n    tag_61:\n        /* \"contracts/Whitelist.sol\":997:1003  _owner */\n      and(sub(shl(0xa0, 0x01), 0x01), sload(0x04))\n        /* \"contracts/Whitelist.sol\":983:993  msg.sender */\n      caller\n        /* \"contracts/Whitelist.sol\":983:1003  msg.sender == _owner */\n      eq\n        /* \"contracts/Whitelist.sol\":975:1022  require(msg.sender == _owner, \"Not authorized\") */\n      tag_106\n      jumpi\n      mload(0x40)\n      shl(0xe5, 0x461bcd)\n      dup2\n      mstore\n        /* \"#utility.yul\":4355:4357   */\n      0x20\n        /* \"contracts/Whitelist.sol\":975:1022  require(msg.sender == _owner, \"Not authorized\") */\n      0x04\n      dup3\n      add\n        /* \"#utility.yul\":4337:4358   */\n      mstore\n        /* \"#utility.yul\":4394:4396   */\n      0x0e\n        /* \"#utility.yul\":4374:4392   */\n      0x24\n      dup3\n      add\n        /* \"#utility.yul\":4367:4397   */\n      mstore\n        /* \"#utility.yul\":4433:4449   */\n      0x4e6f7420617574686f72697a6564000000000000000000000000000000000000\n        /* \"#utility.yul\":4413:4431   */\n      0x44\n      dup3\n      add\n        /* \"#utility.yul\":4406:4450   */\n      mstore\n        /* \"#utility.yul\":4467:4485   */\n      0x64\n      add\n        /* \"contracts/Whitelist.sol\":975:1022  require(msg.sender == _owner, \"Not authorized\") */\n      tag_64\n        /* \"#utility.yul\":4153:4491   */\n      jump\n        /* \"contracts/Whitelist.sol\":975:1022  require(msg.sender == _owner, \"Not authorized\") */\n    tag_106:\n        /* \"contracts/Whitelist.sol\":929:1029  function _onlyTalax() internal view {... */\n      jump\t// out\n        /* \"contracts/Whitelist.sol\":2157:3947  function _calculateClaimableAmount(address user)... */\n    tag_67:\n        /* \"contracts/Whitelist.sol\":2240:2247  uint256 */\n      0x00\n        /* \"contracts/Whitelist.sol\":2263:2280  uint256 claimable */\n      dup1\n        /* \"contracts/Whitelist.sol\":2291:2311  uint256 lockDuration */\n      0x00\n        /* \"contracts/Whitelist.sol\":2353:2359  1 days */\n      0x015180\n        /* \"contracts/Whitelist.sol\":2333:2349  startPrivateSale */\n      sload(0x02)\n        /* \"contracts/Whitelist.sol\":2315:2330  block.timestamp */\n      timestamp\n        /* \"contracts/Whitelist.sol\":2315:2349  block.timestamp - startPrivateSale */\n      tag_110\n      swap2\n      swap1\n      tag_83\n      jump\t// in\n    tag_110:\n        /* \"contracts/Whitelist.sol\":2314:2359  (block.timestamp - startPrivateSale) / 1 days */\n      tag_111\n      swap2\n      swap1\n      tag_112\n      jump\t// in\n    tag_111:\n        /* \"contracts/Whitelist.sol\":2291:2359  uint256 lockDuration = (block.timestamp - startPrivateSale) / 1 days */\n      swap1\n      pop\n        /* \"contracts/Whitelist.sol\":2442:2449  16 * 30 */\n      0x01e0\n        /* \"contracts/Whitelist.sol\":2427:2439  lockDuration */\n      dup2\n        /* \"contracts/Whitelist.sol\":2427:2449  lockDuration < 16 * 30 */\n      lt\n        /* \"contracts/Whitelist.sol\":2423:3857  if (lockDuration < 16 * 30) {... */\n      iszero\n      tag_113\n      jumpi\n      sub(shl(0xa0, 0x01), 0x01)\n        /* \"contracts/Whitelist.sol\":2469:2487  _beneficiary[user] */\n      dup5\n      and\n      0x00\n      swap1\n      dup2\n      mstore\n        /* \"contracts/Whitelist.sol\":2469:2481  _beneficiary */\n      0x03\n        /* \"contracts/Whitelist.sol\":2469:2487  _beneficiary[user] */\n      0x20\n      mstore\n      0x40\n      swap1\n      keccak256\n        /* \"contracts/Whitelist.sol\":2469:2503  _beneficiary[user].isPhase1Claimed */\n      0x02\n      add\n      sload\n      0xff\n      and\n        /* \"contracts/Whitelist.sol\":2465:2828  if (_beneficiary[user].isPhase1Claimed == false) {... */\n      tag_114\n      jumpi\n      sub(shl(0xa0, 0x01), 0x01)\n        /* \"contracts/Whitelist.sol\":2639:2657  _beneficiary[user] */\n      dup5\n      and\n      0x00\n      swap1\n      dup2\n      mstore\n        /* \"contracts/Whitelist.sol\":2639:2651  _beneficiary */\n      0x03\n        /* \"contracts/Whitelist.sol\":2639:2657  _beneficiary[user] */\n      0x20\n      mstore\n      0x40\n      swap1\n      keccak256\n        /* \"contracts/Whitelist.sol\":2639:2670  _beneficiary[user].lockedAmount */\n      sload\n        /* \"contracts/Whitelist.sol\":2544:2754  claimable.add(... */\n      tag_115\n      swap1\n        /* \"contracts/Whitelist.sol\":2579:2736  SafeMath.div(... */\n      tag_116\n      swap1\n        /* \"contracts/Whitelist.sol\":2617:2671  SafeMath.mul(_phase1, _beneficiary[user].lockedAmount) */\n      tag_117\n      swap1\n        /* \"contracts/Whitelist.sol\":292:307  73395000 * 1e18 */\n      0x3cb5feec27901169e00000\n      swap1\n        /* \"contracts/Whitelist.sol\":2617:2629  SafeMath.mul */\n      tag_118\n        /* \"contracts/Whitelist.sol\":2617:2671  SafeMath.mul(_phase1, _beneficiary[user].lockedAmount) */\n      jump\t// in\n    tag_117:\n        /* \"contracts/Whitelist.sol\":2697:2714  privateSaleAmount */\n      sload(0x01)\n        /* \"contracts/Whitelist.sol\":2579:2591  SafeMath.div */\n      tag_119\n        /* \"contracts/Whitelist.sol\":2579:2736  SafeMath.div(... */\n      jump\t// in\n    tag_116:\n        /* \"contracts/Whitelist.sol\":2544:2553  claimable */\n      dup4\n      swap1\n        /* \"contracts/Whitelist.sol\":2544:2557  claimable.add */\n      tag_120\n        /* \"contracts/Whitelist.sol\":2544:2754  claimable.add(... */\n      jump\t// in\n    tag_115:\n      sub(shl(0xa0, 0x01), 0x01)\n        /* \"contracts/Whitelist.sol\":2772:2790  _beneficiary[user] */\n      dup6\n      and\n      0x00\n      swap1\n      dup2\n      mstore\n        /* \"contracts/Whitelist.sol\":2772:2784  _beneficiary */\n      0x03\n        /* \"contracts/Whitelist.sol\":2772:2790  _beneficiary[user] */\n      0x20\n      mstore\n      0x40\n      swap1\n      keccak256\n        /* \"contracts/Whitelist.sol\":2772:2806  _beneficiary[user].isPhase1Claimed */\n      0x02\n      add\n        /* \"contracts/Whitelist.sol\":2772:2813  _beneficiary[user].isPhase1Claimed = true */\n      dup1\n      sload\n      not(0xff)\n      and\n        /* \"contracts/Whitelist.sol\":2809:2813  true */\n      0x01\n        /* \"contracts/Whitelist.sol\":2772:2813  _beneficiary[user].isPhase1Claimed = true */\n      or\n      swap1\n      sstore\n        /* \"contracts/Whitelist.sol\":2532:2754  claimable = claimable.add(... */\n      swap2\n      pop\n        /* \"contracts/Whitelist.sol\":2465:2828  if (_beneficiary[user].isPhase1Claimed == false) {... */\n    tag_114:\n      sub(shl(0xa0, 0x01), 0x01)\n        /* \"contracts/Whitelist.sol\":2841:2859  _beneficiary[user] */\n      dup5\n      and\n      0x00\n      swap1\n      dup2\n      mstore\n        /* \"contracts/Whitelist.sol\":2841:2853  _beneficiary */\n      0x03\n        /* \"contracts/Whitelist.sol\":2841:2859  _beneficiary[user] */\n      0x20\n      dup2\n      swap1\n      mstore\n      0x40\n      swap1\n      swap2\n      keccak256\n        /* \"contracts/Whitelist.sol\":2877:2884  15 * 30 */\n      0x01c2\n        /* \"contracts/Whitelist.sol\":2841:2874  _beneficiary[user].latestClaimDay */\n      swap2\n      add\n        /* \"contracts/Whitelist.sol\":2841:2884  _beneficiary[user].latestClaimDay = 15 * 30 */\n      sstore\n        /* \"contracts/Whitelist.sol\":2423:3857  if (lockDuration < 16 * 30) {... */\n      jump(tag_123)\n    tag_113:\n        /* \"contracts/Whitelist.sol\":2980:2987  16 * 30 */\n      0x01e0\n        /* \"contracts/Whitelist.sol\":2964:2976  lockDuration */\n      dup2\n        /* \"contracts/Whitelist.sol\":2964:2987  lockDuration >= 16 * 30 */\n      lt\n      iszero\n        /* \"contracts/Whitelist.sol\":2964:3013  lockDuration >= 16 * 30 && lockDuration < 28 * 30 */\n      dup1\n      iszero\n      tag_122\n      jumpi\n      pop\n        /* \"contracts/Whitelist.sol\":3006:3013  28 * 30 */\n      0x0348\n        /* \"contracts/Whitelist.sol\":2991:3003  lockDuration */\n      dup2\n        /* \"contracts/Whitelist.sol\":2991:3013  lockDuration < 28 * 30 */\n      lt\n        /* \"contracts/Whitelist.sol\":2964:3013  lockDuration >= 16 * 30 && lockDuration < 28 * 30 */\n    tag_122:\n        /* \"contracts/Whitelist.sol\":2960:3857  if (lockDuration >= 16 * 30 && lockDuration < 28 * 30) {... */\n      iszero\n      tag_123\n      jumpi\n      sub(shl(0xa0, 0x01), 0x01)\n        /* \"contracts/Whitelist.sol\":3033:3051  _beneficiary[user] */\n      dup5\n      and\n      0x00\n      swap1\n      dup2\n      mstore\n        /* \"contracts/Whitelist.sol\":3033:3045  _beneficiary */\n      0x03\n        /* \"contracts/Whitelist.sol\":3033:3051  _beneficiary[user] */\n      0x20\n      mstore\n      0x40\n      swap1\n      keccak256\n        /* \"contracts/Whitelist.sol\":3033:3067  _beneficiary[user].isPhase1Claimed */\n      0x02\n      add\n      sload\n      0xff\n      and\n        /* \"contracts/Whitelist.sol\":3029:3392  if (_beneficiary[user].isPhase1Claimed == false) {... */\n      tag_124\n      jumpi\n      sub(shl(0xa0, 0x01), 0x01)\n        /* \"contracts/Whitelist.sol\":3203:3221  _beneficiary[user] */\n      dup5\n      and\n      0x00\n      swap1\n      dup2\n      mstore\n        /* \"contracts/Whitelist.sol\":3203:3215  _beneficiary */\n      0x03\n        /* \"contracts/Whitelist.sol\":3203:3221  _beneficiary[user] */\n      0x20\n      mstore\n      0x40\n      swap1\n      keccak256\n        /* \"contracts/Whitelist.sol\":3203:3234  _beneficiary[user].lockedAmount */\n      sload\n        /* \"contracts/Whitelist.sol\":3108:3318  claimable.add(... */\n      tag_125\n      swap1\n        /* \"contracts/Whitelist.sol\":3143:3300  SafeMath.div(... */\n      tag_116\n      swap1\n        /* \"contracts/Whitelist.sol\":3181:3235  SafeMath.mul(_phase1, _beneficiary[user].lockedAmount) */\n      tag_117\n      swap1\n        /* \"contracts/Whitelist.sol\":292:307  73395000 * 1e18 */\n      0x3cb5feec27901169e00000\n      swap1\n        /* \"contracts/Whitelist.sol\":3181:3193  SafeMath.mul */\n      tag_118\n        /* \"contracts/Whitelist.sol\":3181:3235  SafeMath.mul(_phase1, _beneficiary[user].lockedAmount) */\n      jump\t// in\n        /* \"contracts/Whitelist.sol\":3108:3318  claimable.add(... */\n    tag_125:\n      sub(shl(0xa0, 0x01), 0x01)\n        /* \"contracts/Whitelist.sol\":3336:3354  _beneficiary[user] */\n      dup6\n      and\n      0x00\n      swap1\n      dup2\n      mstore\n        /* \"contracts/Whitelist.sol\":3336:3348  _beneficiary */\n      0x03\n        /* \"contracts/Whitelist.sol\":3336:3354  _beneficiary[user] */\n      0x20\n      mstore\n      0x40\n      swap1\n      keccak256\n        /* \"contracts/Whitelist.sol\":3336:3370  _beneficiary[user].isPhase1Claimed */\n      0x02\n      add\n        /* \"contracts/Whitelist.sol\":3336:3377  _beneficiary[user].isPhase1Claimed = true */\n      dup1\n      sload\n      not(0xff)\n      and\n        /* \"contracts/Whitelist.sol\":3373:3377  true */\n      0x01\n        /* \"contracts/Whitelist.sol\":3336:3377  _beneficiary[user].isPhase1Claimed = true */\n      or\n      swap1\n      sstore\n        /* \"contracts/Whitelist.sol\":3096:3318  claimable = claimable.add(... */\n      swap2\n      pop\n        /* \"contracts/Whitelist.sol\":3029:3392  if (_beneficiary[user].isPhase1Claimed == false) {... */\n    tag_124:\n      sub(shl(0xa0, 0x01), 0x01)\n        /* \"contracts/Whitelist.sol\":3464:3482  _beneficiary[user] */\n      dup5\n      and\n        /* \"contracts/Whitelist.sol\":3406:3430  uint256 sinceLatestClaim */\n      0x00\n        /* \"contracts/Whitelist.sol\":3464:3482  _beneficiary[user] */\n      swap1\n      dup2\n      mstore\n        /* \"contracts/Whitelist.sol\":3464:3476  _beneficiary */\n      0x03\n        /* \"contracts/Whitelist.sol\":3464:3482  _beneficiary[user] */\n      0x20\n      dup2\n      swap1\n      mstore\n      0x40\n      dup3\n      keccak256\n        /* \"contracts/Whitelist.sol\":3464:3497  _beneficiary[user].latestClaimDay */\n      add\n      sload\n        /* \"contracts/Whitelist.sol\":3433:3497  lockDuration -... */\n      tag_128\n      swap1\n        /* \"contracts/Whitelist.sol\":3433:3445  lockDuration */\n      dup4\n        /* \"contracts/Whitelist.sol\":3433:3497  lockDuration -... */\n      tag_83\n      jump\t// in\n    tag_128:\n      sub(shl(0xa0, 0x01), 0x01)\n        /* \"contracts/Whitelist.sol\":3669:3687  _beneficiary[user] */\n      dup7\n      and\n      0x00\n      swap1\n      dup2\n      mstore\n        /* \"contracts/Whitelist.sol\":3669:3681  _beneficiary */\n      0x03\n        /* \"contracts/Whitelist.sol\":3669:3687  _beneficiary[user] */\n      0x20\n      mstore\n      0x40\n      swap1\n      keccak256\n        /* \"contracts/Whitelist.sol\":3669:3700  _beneficiary[user].lockedAmount */\n      sload\n        /* \"contracts/Whitelist.sol\":3406:3497  uint256 sinceLatestClaim = lockDuration -... */\n      swap1\n      swap2\n      pop\n        /* \"contracts/Whitelist.sol\":3574:3784  claimable.add(... */\n      tag_129\n      swap1\n        /* \"contracts/Whitelist.sol\":3609:3766  SafeMath.div(... */\n      tag_130\n      swap1\n        /* \"contracts/Whitelist.sol\":3647:3701  SafeMath.mul(_phase2, _beneficiary[user].lockedAmount) */\n      tag_117\n      swap1\n        /* \"contracts/Whitelist.sol\":349:363  3820562 * 1e18 */\n      0x03290914be1afb75080000\n      swap1\n        /* \"contracts/Whitelist.sol\":3647:3659  SafeMath.mul */\n      tag_118\n        /* \"contracts/Whitelist.sol\":3647:3701  SafeMath.mul(_phase2, _beneficiary[user].lockedAmount) */\n      jump\t// in\n        /* \"contracts/Whitelist.sol\":3609:3766  SafeMath.div(... */\n    tag_130:\n        /* \"contracts/Whitelist.sol\":3574:3583  claimable */\n      dup5\n      swap1\n        /* \"contracts/Whitelist.sol\":3574:3587  claimable.add */\n      tag_120\n        /* \"contracts/Whitelist.sol\":3574:3784  claimable.add(... */\n      jump\t// in\n    tag_129:\n        /* \"contracts/Whitelist.sol\":3539:3784  sinceLatestClaim *... */\n      tag_132\n      swap1\n        /* \"contracts/Whitelist.sol\":3539:3555  sinceLatestClaim */\n      dup3\n        /* \"contracts/Whitelist.sol\":3539:3784  sinceLatestClaim *... */\n      tag_133\n      jump\t// in\n    tag_132:\n      sub(shl(0xa0, 0x01), 0x01)\n        /* \"contracts/Whitelist.sol\":3798:3816  _beneficiary[user] */\n      dup7\n      and\n      0x00\n      swap1\n      dup2\n      mstore\n        /* \"contracts/Whitelist.sol\":3798:3810  _beneficiary */\n      0x03\n        /* \"contracts/Whitelist.sol\":3798:3816  _beneficiary[user] */\n      0x20\n      dup2\n      swap1\n      mstore\n      0x40\n      swap1\n      swap2\n      keccak256\n        /* \"contracts/Whitelist.sol\":3798:3831  _beneficiary[user].latestClaimDay */\n      add\n        /* \"contracts/Whitelist.sol\":3798:3846  _beneficiary[user].latestClaimDay = lockDuration */\n      dup4\n      swap1\n      sstore\n        /* \"contracts/Whitelist.sol\":3511:3784  claimable =... */\n      swap3\n      pop\n      pop\n        /* \"contracts/Whitelist.sol\":2960:3857  if (lockDuration >= 16 * 30 && lockDuration < 28 * 30) {... */\n    tag_123:\n        /* \"contracts/Whitelist.sol\":3875:3889  claimable != 0 */\n      dup2\n        /* \"contracts/Whitelist.sol\":3867:3914  require(claimable != 0, \"Nothing to claim yet\") */\n      tag_134\n      jumpi\n      mload(0x40)\n      shl(0xe5, 0x461bcd)\n      dup2\n      mstore\n        /* \"#utility.yul\":5150:5152   */\n      0x20\n        /* \"contracts/Whitelist.sol\":3867:3914  require(claimable != 0, \"Nothing to claim yet\") */\n      0x04\n      dup3\n      add\n        /* \"#utility.yul\":5132:5153   */\n      mstore\n        /* \"#utility.yul\":5189:5191   */\n      0x14\n        /* \"#utility.yul\":5169:5187   */\n      0x24\n      dup3\n      add\n        /* \"#utility.yul\":5162:5192   */\n      mstore\n        /* \"#utility.yul\":5228:5250   */\n      0x4e6f7468696e6720746f20636c61696d20796574000000000000000000000000\n        /* \"#utility.yul\":5208:5226   */\n      0x44\n      dup3\n      add\n        /* \"#utility.yul\":5201:5251   */\n      mstore\n        /* \"#utility.yul\":5268:5286   */\n      0x64\n      add\n        /* \"contracts/Whitelist.sol\":3867:3914  require(claimable != 0, \"Nothing to claim yet\") */\n      tag_64\n        /* \"#utility.yul\":4948:5292   */\n      jump\n        /* \"contracts/Whitelist.sol\":3867:3914  require(claimable != 0, \"Nothing to claim yet\") */\n    tag_134:\n      pop\n        /* \"contracts/Whitelist.sol\":3931:3940  claimable */\n      swap3\n        /* \"contracts/Whitelist.sol\":2157:3947  function _calculateClaimableAmount(address user)... */\n      swap2\n      pop\n      pop\n      jump\t// out\n        /* \"@openzeppelin/contracts/utils/math/SafeMath.sol\":3108:3204  function sub(uint256 a, uint256 b) internal pure returns (uint256) {... */\n    tag_72:\n        /* \"@openzeppelin/contracts/utils/math/SafeMath.sol\":3166:3173  uint256 */\n      0x00\n        /* \"@openzeppelin/contracts/utils/math/SafeMath.sol\":3192:3197  a - b */\n      tag_138\n        /* \"@openzeppelin/contracts/utils/math/SafeMath.sol\":3196:3197  b */\n      dup3\n        /* \"@openzeppelin/contracts/utils/math/SafeMath.sol\":3192:3193  a */\n      dup5\n        /* \"@openzeppelin/contracts/utils/math/SafeMath.sol\":3192:3197  a - b */\n      tag_83\n      jump\t// in\n    tag_138:\n        /* \"@openzeppelin/contracts/utils/math/SafeMath.sol\":3185:3197  return a - b */\n      swap4\n        /* \"@openzeppelin/contracts/utils/math/SafeMath.sol\":3108:3204  function sub(uint256 a, uint256 b) internal pure returns (uint256) {... */\n      swap3\n      pop\n      pop\n      pop\n      jump\t// out\n        /* \"@openzeppelin/contracts/utils/math/SafeMath.sol\":3451:3547  function mul(uint256 a, uint256 b) internal pure returns (uint256) {... */\n    tag_118:\n        /* \"@openzeppelin/contracts/utils/math/SafeMath.sol\":3509:3516  uint256 */\n      0x00\n        /* \"@openzeppelin/contracts/utils/math/SafeMath.sol\":3535:3540  a * b */\n      tag_138\n        /* \"@openzeppelin/contracts/utils/math/SafeMath.sol\":3539:3540  b */\n      dup3\n        /* \"@openzeppelin/contracts/utils/math/SafeMath.sol\":3535:3536  a */\n      dup5\n        /* \"@openzeppelin/contracts/utils/math/SafeMath.sol\":3535:3540  a * b */\n      tag_133\n      jump\t// in\n        /* \"@openzeppelin/contracts/utils/math/SafeMath.sol\":3836:3932  function div(uint256 a, uint256 b) internal pure returns (uint256) {... */\n    tag_119:\n        /* \"@openzeppelin/contracts/utils/math/SafeMath.sol\":3894:3901  uint256 */\n      0x00\n        /* \"@openzeppelin/contracts/utils/math/SafeMath.sol\":3920:3925  a / b */\n      tag_138\n        /* \"@openzeppelin/contracts/utils/math/SafeMath.sol\":3924:3925  b */\n      dup3\n        /* \"@openzeppelin/contracts/utils/math/SafeMath.sol\":3920:3921  a */\n      dup5\n        /* \"@openzeppelin/contracts/utils/math/SafeMath.sol\":3920:3925  a / b */\n      tag_112\n      jump\t// in\n        /* \"@openzeppelin/contracts/utils/math/SafeMath.sol\":2741:2837  function add(uint256 a, uint256 b) internal pure returns (uint256) {... */\n    tag_120:\n        /* \"@openzeppelin/contracts/utils/math/SafeMath.sol\":2799:2806  uint256 */\n      0x00\n        /* \"@openzeppelin/contracts/utils/math/SafeMath.sol\":2825:2830  a + b */\n      tag_138\n        /* \"@openzeppelin/contracts/utils/math/SafeMath.sol\":2829:2830  b */\n      dup3\n        /* \"@openzeppelin/contracts/utils/math/SafeMath.sol\":2825:2826  a */\n      dup5\n        /* \"@openzeppelin/contracts/utils/math/SafeMath.sol\":2825:2830  a + b */\n      tag_85\n      jump\t// in\n        /* \"#utility.yul\":14:210   */\n    tag_145:\n        /* \"#utility.yul\":82:102   */\n      dup1\n      calldataload\n      sub(shl(0xa0, 0x01), 0x01)\n        /* \"#utility.yul\":131:185   */\n      dup2\n      and\n        /* \"#utility.yul\":121:186   */\n      dup2\n      eq\n        /* \"#utility.yul\":111:204   */\n      tag_62\n      jumpi\n        /* \"#utility.yul\":200:201   */\n      0x00\n        /* \"#utility.yul\":197:198   */\n      dup1\n        /* \"#utility.yul\":190:202   */\n      revert\n        /* \"#utility.yul\":215:401   */\n    tag_19:\n        /* \"#utility.yul\":274:280   */\n      0x00\n        /* \"#utility.yul\":327:329   */\n      0x20\n        /* \"#utility.yul\":315:324   */\n      dup3\n        /* \"#utility.yul\":306:313   */\n      dup5\n        /* \"#utility.yul\":302:325   */\n      sub\n        /* \"#utility.yul\":298:330   */\n      slt\n        /* \"#utility.yul\":295:347   */\n      iszero\n      tag_151\n      jumpi\n        /* \"#utility.yul\":343:344   */\n      0x00\n        /* \"#utility.yul\":340:341   */\n      dup1\n        /* \"#utility.yul\":333:345   */\n      revert\n        /* \"#utility.yul\":295:347   */\n    tag_151:\n        /* \"#utility.yul\":366:395   */\n      tag_138\n        /* \"#utility.yul\":385:394   */\n      dup3\n        /* \"#utility.yul\":366:395   */\n      tag_145\n      jump\t// in\n        /* \"#utility.yul\":1684:1938   */\n    tag_55:\n        /* \"#utility.yul\":1752:1758   */\n      0x00\n        /* \"#utility.yul\":1760:1766   */\n      dup1\n        /* \"#utility.yul\":1813:1815   */\n      0x40\n        /* \"#utility.yul\":1801:1810   */\n      dup4\n        /* \"#utility.yul\":1792:1799   */\n      dup6\n        /* \"#utility.yul\":1788:1811   */\n      sub\n        /* \"#utility.yul\":1784:1816   */\n      slt\n        /* \"#utility.yul\":1781:1833   */\n      iszero\n      tag_158\n      jumpi\n        /* \"#utility.yul\":1829:1830   */\n      0x00\n        /* \"#utility.yul\":1826:1827   */\n      dup1\n        /* \"#utility.yul\":1819:1831   */\n      revert\n        /* \"#utility.yul\":1781:1833   */\n    tag_158:\n        /* \"#utility.yul\":1852:1881   */\n      tag_159\n        /* \"#utility.yul\":1871:1880   */\n      dup4\n        /* \"#utility.yul\":1852:1881   */\n      tag_145\n      jump\t// in\n    tag_159:\n        /* \"#utility.yul\":1842:1881   */\n      swap5\n        /* \"#utility.yul\":1928:1930   */\n      0x20\n        /* \"#utility.yul\":1913:1931   */\n      swap4\n      swap1\n      swap4\n      add\n        /* \"#utility.yul\":1900:1932   */\n      calldataload\n      swap4\n      pop\n      pop\n      pop\n        /* \"#utility.yul\":1684:1938   */\n      jump\t// out\n        /* \"#utility.yul\":2991:3175   */\n    tag_146:\n      shl(0xe0, 0x4e487b71)\n        /* \"#utility.yul\":3040:3041   */\n      0x00\n        /* \"#utility.yul\":3033:3121   */\n      mstore\n        /* \"#utility.yul\":3140:3144   */\n      0x11\n        /* \"#utility.yul\":3137:3138   */\n      0x04\n        /* \"#utility.yul\":3130:3145   */\n      mstore\n        /* \"#utility.yul\":3164:3168   */\n      0x24\n        /* \"#utility.yul\":3161:3162   */\n      0x00\n        /* \"#utility.yul\":3154:3169   */\n      revert\n        /* \"#utility.yul\":3180:3305   */\n    tag_83:\n        /* \"#utility.yul\":3220:3224   */\n      0x00\n        /* \"#utility.yul\":3248:3249   */\n      dup3\n        /* \"#utility.yul\":3245:3246   */\n      dup3\n        /* \"#utility.yul\":3242:3250   */\n      lt\n        /* \"#utility.yul\":3239:3273   */\n      iszero\n      tag_166\n      jumpi\n        /* \"#utility.yul\":3253:3271   */\n      tag_166\n      tag_146\n      jump\t// in\n    tag_166:\n      pop\n        /* \"#utility.yul\":3290:3299   */\n      sub\n      swap1\n        /* \"#utility.yul\":3180:3305   */\n      jump\t// out\n        /* \"#utility.yul\":3310:3438   */\n    tag_85:\n        /* \"#utility.yul\":3350:3353   */\n      0x00\n        /* \"#utility.yul\":3381:3382   */\n      dup3\n        /* \"#utility.yul\":3377:3383   */\n      not\n        /* \"#utility.yul\":3374:3375   */\n      dup3\n        /* \"#utility.yul\":3371:3384   */\n      gt\n        /* \"#utility.yul\":3368:3407   */\n      iszero\n      tag_169\n      jumpi\n        /* \"#utility.yul\":3387:3405   */\n      tag_169\n      tag_146\n      jump\t// in\n    tag_169:\n      pop\n        /* \"#utility.yul\":3423:3432   */\n      add\n      swap1\n        /* \"#utility.yul\":3310:3438   */\n      jump\t// out\n        /* \"#utility.yul\":4496:4770   */\n    tag_112:\n        /* \"#utility.yul\":4536:4537   */\n      0x00\n        /* \"#utility.yul\":4562:4563   */\n      dup3\n        /* \"#utility.yul\":4552:4741   */\n      tag_174\n      jumpi\n      shl(0xe0, 0x4e487b71)\n        /* \"#utility.yul\":4594:4595   */\n      0x00\n        /* \"#utility.yul\":4587:4675   */\n      mstore\n        /* \"#utility.yul\":4698:4702   */\n      0x12\n        /* \"#utility.yul\":4695:4696   */\n      0x04\n        /* \"#utility.yul\":4688:4703   */\n      mstore\n        /* \"#utility.yul\":4726:4730   */\n      0x24\n        /* \"#utility.yul\":4723:4724   */\n      0x00\n        /* \"#utility.yul\":4716:4731   */\n      revert\n        /* \"#utility.yul\":4552:4741   */\n    tag_174:\n      pop\n        /* \"#utility.yul\":4755:4764   */\n      div\n      swap1\n        /* \"#utility.yul\":4496:4770   */\n      jump\t// out\n        /* \"#utility.yul\":4775:4943   */\n    tag_133:\n        /* \"#utility.yul\":4815:4822   */\n      0x00\n        /* \"#utility.yul\":4881:4882   */\n      dup2\n        /* \"#utility.yul\":4877:4878   */\n      0x00\n        /* \"#utility.yul\":4873:4879   */\n      not\n        /* \"#utility.yul\":4869:4883   */\n      div\n        /* \"#utility.yul\":4866:4867   */\n      dup4\n        /* \"#utility.yul\":4863:4884   */\n      gt\n        /* \"#utility.yul\":4858:4859   */\n      dup3\n        /* \"#utility.yul\":4851:4860   */\n      iszero\n        /* \"#utility.yul\":4844:4861   */\n      iszero\n        /* \"#utility.yul\":4840:4885   */\n      and\n        /* \"#utility.yul\":4837:4908   */\n      iszero\n      tag_177\n      jumpi\n        /* \"#utility.yul\":4888:4906   */\n      tag_177\n      tag_146\n      jump\t// in\n    tag_177:\n      pop\n        /* \"#utility.yul\":4928:4937   */\n      mul\n      swap1\n        /* \"#utility.yul\":4775:4943   */\n      jump\t// out\n\n    auxdata: 0xa2646970667358221220e7197829f3e9b523222b85a478354d38c59ef90ef69f7dc07ba68e902579315864736f6c634300080b0033\n}\n",
				"bytecode": {
					"linkReferences": {},
					"object": "608060405234801561001057600080fd5b506b04be37ea7317415c45800000600155600480546001600160a01b03191633179055610a62806100426000396000f3fe608060405234801561001057600080fd5b50600436106100c85760003560e01c806381008568116100815780638cdb7e8b1161005b5780638cdb7e8b146101dc57806396074e7014610224578063efdd87961461023757600080fd5b8063810085681461012d578063893d20e8146101b85780638b2b423a146101d357600080fd5b8063338dbf59116100b2578063338dbf5914610108578063549dee0b146101115780637d3bca761461011a57600080fd5b80625171f4146100cd5780631d77b00b146100f3575b600080fd5b6100e06100db366004610961565b61023f565b6040519081526020015b60405180910390f35b610106610101366004610961565b61035d565b005b6100e060025481565b6100e060005481565b6100e0610128366004610961565b61039f565b61019261013b366004610961565b6001600160a01b0316600090815260036020818152604092839020835160808101855281548082526001830154938201849052600283015460ff161515958201869052919093015460609093018390529390929190565b6040805194855260208501939093529015159183019190915260608201526080016100ea565b6004546040516001600160a01b0390911681526020016100ea565b6100e060015481565b6101ef6101ea366004610961565b610497565b6040516100ea919081518152602080830151908201526040808301511515908201526060918201519181019190915260800190565b61010661023236600461097c565b610514565b610106610641565b600061024961064f565b6001600160a01b0382166000908152600360205260409020600101546102b65760405162461bcd60e51b815260206004820152600e60248201527f4e6f20546f6b656e73204c65667400000000000000000000000000000000000060448201526064015b60405180910390fd5b60006102c1836106ab565b9050600081116103135760405162461bcd60e51b815260206004820152601c60248201527f4e6f20546f6b656e7320746f2052656c6561736520666f72204e6f770000000060448201526064016102ad565b6001600160a01b0383166000908152600360205260409020600101546103399082610913565b6001600160a01b03841660009081526003602052604090206001015590505b919050565b61036561064f565b600480547fffffffffffffffffffffffff0000000000000000000000000000000000000000166001600160a01b0392909216919091179055565b60006103a961064f565b6001600160a01b0382166000908152600360205260409020600101546104115760405162461bcd60e51b815260206004820152601360248201527f55736572206e6f7420526567697374657265640000000000000000000000000060448201526064016102ad565b600160008082825461042391906109bc565b90915550506001600160a01b038216600090815260036020526040812060019081015481549092906104569084906109d3565b9091555050506001600160a01b0316600090815260036020819052604082206001810180548483559084905560028201805460ff1916905591019190915590565b6104c460405180608001604052806000815260200160008152602001600015158152602001600081525090565b506001600160a01b0316600090815260036020818152604092839020835160808101855281548152600182015492810192909252600281015460ff16151593820193909352910154606082015290565b61051c61064f565b60015481111561056e5760405162461bcd60e51b815260206004820152601a60248201527f496e73756666696369656e7420546f74616c2042616c616e636500000000000060448201526064016102ad565b6001600160a01b038216600090815260036020526040902060010154156105d75760405162461bcd60e51b815260206004820152601a60248201527f43616e6e6f74206164642052656769737465726564205573657200000000000060448201526064016102ad565b6001600160a01b03821660009081526003602081905260408220838155600180820185905560028201805460ff1916905591018190558154909190819061061f9084906109d3565b92505081905550806001600082825461063891906109bc565b90915550505050565b61064961064f565b42600255565b6004546001600160a01b031633146106a95760405162461bcd60e51b815260206004820152600e60248201527f4e6f7420617574686f72697a656400000000000000000000000000000000000060448201526064016102ad565b565b600080600062015180600254426106c291906109bc565b6106cc91906109eb565b90506101e0811015610790576001600160a01b03841660009081526003602052604090206002015460ff1661076a576001600160a01b0384166000908152600360205260409020546107419061073a90610732906a3cb5feec27901169e0000090610926565b600154610932565b839061093e565b6001600160a01b0385166000908152600360205260409020600201805460ff1916600117905591505b6001600160a01b03841660009081526003602081905260409091206101c29101556108bf565b6101e081101580156107a3575061034881105b156108bf576001600160a01b03841660009081526003602052604090206002015460ff1661082b576001600160a01b0384166000908152600360205260409020546108029061073a90610732906a3cb5feec27901169e0000090610926565b6001600160a01b0385166000908152600360205260409020600201805460ff1916600117905591505b6001600160a01b03841660009081526003602081905260408220015461085190836109bc565b6001600160a01b0386166000908152600360205260409020549091506108929061088b90610732906a03290914be1afb7508000090610926565b849061093e565b61089c9082610a0d565b6001600160a01b0386166000908152600360208190526040909120018390559250505b8161090c5760405162461bcd60e51b815260206004820152601460248201527f4e6f7468696e6720746f20636c61696d2079657400000000000000000000000060448201526064016102ad565b5092915050565b600061091f82846109bc565b9392505050565b600061091f8284610a0d565b600061091f82846109eb565b600061091f82846109d3565b80356001600160a01b038116811461035857600080fd5b60006020828403121561097357600080fd5b61091f8261094a565b6000806040838503121561098f57600080fd5b6109988361094a565b946020939093013593505050565b634e487b7160e01b600052601160045260246000fd5b6000828210156109ce576109ce6109a6565b500390565b600082198211156109e6576109e66109a6565b500190565b600082610a0857634e487b7160e01b600052601260045260246000fd5b500490565b6000816000190483118215151615610a2757610a276109a6565b50029056fea2646970667358221220e7197829f3e9b523222b85a478354d38c59ef90ef69f7dc07ba68e902579315864736f6c634300080b0033",
					"opcodes": "PUSH1 0x80 PUSH1 0x40 MSTORE CALLVALUE DUP1 ISZERO PUSH2 0x10 JUMPI PUSH1 0x0 DUP1 REVERT JUMPDEST POP PUSH12 0x4BE37EA7317415C45800000 PUSH1 0x1 SSTORE PUSH1 0x4 DUP1 SLOAD PUSH1 0x1 PUSH1 0x1 PUSH1 0xA0 SHL SUB NOT AND CALLER OR SWAP1 SSTORE PUSH2 0xA62 DUP1 PUSH2 0x42 PUSH1 0x0 CODECOPY PUSH1 0x0 RETURN INVALID PUSH1 0x80 PUSH1 0x40 MSTORE CALLVALUE DUP1 ISZERO PUSH2 0x10 JUMPI PUSH1 0x0 DUP1 REVERT JUMPDEST POP PUSH1 0x4 CALLDATASIZE LT PUSH2 0xC8 JUMPI PUSH1 0x0 CALLDATALOAD PUSH1 0xE0 SHR DUP1 PUSH4 0x81008568 GT PUSH2 0x81 JUMPI DUP1 PUSH4 0x8CDB7E8B GT PUSH2 0x5B JUMPI DUP1 PUSH4 0x8CDB7E8B EQ PUSH2 0x1DC JUMPI DUP1 PUSH4 0x96074E70 EQ PUSH2 0x224 JUMPI DUP1 PUSH4 0xEFDD8796 EQ PUSH2 0x237 JUMPI PUSH1 0x0 DUP1 REVERT JUMPDEST DUP1 PUSH4 0x81008568 EQ PUSH2 0x12D JUMPI DUP1 PUSH4 0x893D20E8 EQ PUSH2 0x1B8 JUMPI DUP1 PUSH4 0x8B2B423A EQ PUSH2 0x1D3 JUMPI PUSH1 0x0 DUP1 REVERT JUMPDEST DUP1 PUSH4 0x338DBF59 GT PUSH2 0xB2 JUMPI DUP1 PUSH4 0x338DBF59 EQ PUSH2 0x108 JUMPI DUP1 PUSH4 0x549DEE0B EQ PUSH2 0x111 JUMPI DUP1 PUSH4 0x7D3BCA76 EQ PUSH2 0x11A JUMPI PUSH1 0x0 DUP1 REVERT JUMPDEST DUP1 PUSH3 0x5171F4 EQ PUSH2 0xCD JUMPI DUP1 PUSH4 0x1D77B00B EQ PUSH2 0xF3 JUMPI JUMPDEST PUSH1 0x0 DUP1 REVERT JUMPDEST PUSH2 0xE0 PUSH2 0xDB CALLDATASIZE PUSH1 0x4 PUSH2 0x961 JUMP JUMPDEST PUSH2 0x23F JUMP JUMPDEST PUSH1 0x40 MLOAD SWAP1 DUP2 MSTORE PUSH1 0x20 ADD JUMPDEST PUSH1 0x40 MLOAD DUP1 SWAP2 SUB SWAP1 RETURN JUMPDEST PUSH2 0x106 PUSH2 0x101 CALLDATASIZE PUSH1 0x4 PUSH2 0x961 JUMP JUMPDEST PUSH2 0x35D JUMP JUMPDEST STOP JUMPDEST PUSH2 0xE0 PUSH1 0x2 SLOAD DUP2 JUMP JUMPDEST PUSH2 0xE0 PUSH1 0x0 SLOAD DUP2 JUMP JUMPDEST PUSH2 0xE0 PUSH2 0x128 CALLDATASIZE PUSH1 0x4 PUSH2 0x961 JUMP JUMPDEST PUSH2 0x39F JUMP JUMPDEST PUSH2 0x192 PUSH2 0x13B CALLDATASIZE PUSH1 0x4 PUSH2 0x961 JUMP JUMPDEST PUSH1 0x1 PUSH1 0x1 PUSH1 0xA0 SHL SUB AND PUSH1 0x0 SWAP1 DUP2 MSTORE PUSH1 0x3 PUSH1 0x20 DUP2 DUP2 MSTORE PUSH1 0x40 SWAP3 DUP4 SWAP1 KECCAK256 DUP4 MLOAD PUSH1 0x80 DUP2 ADD DUP6 MSTORE DUP2 SLOAD DUP1 DUP3 MSTORE PUSH1 0x1 DUP4 ADD SLOAD SWAP4 DUP3 ADD DUP5 SWAP1 MSTORE PUSH1 0x2 DUP4 ADD SLOAD PUSH1 0xFF AND ISZERO ISZERO SWAP6 DUP3 ADD DUP7 SWAP1 MSTORE SWAP2 SWAP1 SWAP4 ADD SLOAD PUSH1 0x60 SWAP1 SWAP4 ADD DUP4 SWAP1 MSTORE SWAP4 SWAP1 SWAP3 SWAP2 SWAP1 JUMP JUMPDEST PUSH1 0x40 DUP1 MLOAD SWAP5 DUP6 MSTORE PUSH1 0x20 DUP6 ADD SWAP4 SWAP1 SWAP4 MSTORE SWAP1 ISZERO ISZERO SWAP2 DUP4 ADD SWAP2 SWAP1 SWAP2 MSTORE PUSH1 0x60 DUP3 ADD MSTORE PUSH1 0x80 ADD PUSH2 0xEA JUMP JUMPDEST PUSH1 0x4 SLOAD PUSH1 0x40 MLOAD PUSH1 0x1 PUSH1 0x1 PUSH1 0xA0 SHL SUB SWAP1 SWAP2 AND DUP2 MSTORE PUSH1 0x20 ADD PUSH2 0xEA JUMP JUMPDEST PUSH2 0xE0 PUSH1 0x1 SLOAD DUP2 JUMP JUMPDEST PUSH2 0x1EF PUSH2 0x1EA CALLDATASIZE PUSH1 0x4 PUSH2 0x961 JUMP JUMPDEST PUSH2 0x497 JUMP JUMPDEST PUSH1 0x40 MLOAD PUSH2 0xEA SWAP2 SWAP1 DUP2 MLOAD DUP2 MSTORE PUSH1 0x20 DUP1 DUP4 ADD MLOAD SWAP1 DUP3 ADD MSTORE PUSH1 0x40 DUP1 DUP4 ADD MLOAD ISZERO ISZERO SWAP1 DUP3 ADD MSTORE PUSH1 0x60 SWAP2 DUP3 ADD MLOAD SWAP2 DUP2 ADD SWAP2 SWAP1 SWAP2 MSTORE PUSH1 0x80 ADD SWAP1 JUMP JUMPDEST PUSH2 0x106 PUSH2 0x232 CALLDATASIZE PUSH1 0x4 PUSH2 0x97C JUMP JUMPDEST PUSH2 0x514 JUMP JUMPDEST PUSH2 0x106 PUSH2 0x641 JUMP JUMPDEST PUSH1 0x0 PUSH2 0x249 PUSH2 0x64F JUMP JUMPDEST PUSH1 0x1 PUSH1 0x1 PUSH1 0xA0 SHL SUB DUP3 AND PUSH1 0x0 SWAP1 DUP2 MSTORE PUSH1 0x3 PUSH1 0x20 MSTORE PUSH1 0x40 SWAP1 KECCAK256 PUSH1 0x1 ADD SLOAD PUSH2 0x2B6 JUMPI PUSH1 0x40 MLOAD PUSH3 0x461BCD PUSH1 0xE5 SHL DUP2 MSTORE PUSH1 0x20 PUSH1 0x4 DUP3 ADD MSTORE PUSH1 0xE PUSH1 0x24 DUP3 ADD MSTORE PUSH32 0x4E6F20546F6B656E73204C656674000000000000000000000000000000000000 PUSH1 0x44 DUP3 ADD MSTORE PUSH1 0x64 ADD JUMPDEST PUSH1 0x40 MLOAD DUP1 SWAP2 SUB SWAP1 REVERT JUMPDEST PUSH1 0x0 PUSH2 0x2C1 DUP4 PUSH2 0x6AB JUMP JUMPDEST SWAP1 POP PUSH1 0x0 DUP2 GT PUSH2 0x313 JUMPI PUSH1 0x40 MLOAD PUSH3 0x461BCD PUSH1 0xE5 SHL DUP2 MSTORE PUSH1 0x20 PUSH1 0x4 DUP3 ADD MSTORE PUSH1 0x1C PUSH1 0x24 DUP3 ADD MSTORE PUSH32 0x4E6F20546F6B656E7320746F2052656C6561736520666F72204E6F7700000000 PUSH1 0x44 DUP3 ADD MSTORE PUSH1 0x64 ADD PUSH2 0x2AD JUMP JUMPDEST PUSH1 0x1 PUSH1 0x1 PUSH1 0xA0 SHL SUB DUP4 AND PUSH1 0x0 SWAP1 DUP2 MSTORE PUSH1 0x3 PUSH1 0x20 MSTORE PUSH1 0x40 SWAP1 KECCAK256 PUSH1 0x1 ADD SLOAD PUSH2 0x339 SWAP1 DUP3 PUSH2 0x913 JUMP JUMPDEST PUSH1 0x1 PUSH1 0x1 PUSH1 0xA0 SHL SUB DUP5 AND PUSH1 0x0 SWAP1 DUP2 MSTORE PUSH1 0x3 PUSH1 0x20 MSTORE PUSH1 0x40 SWAP1 KECCAK256 PUSH1 0x1 ADD SSTORE SWAP1 POP JUMPDEST SWAP2 SWAP1 POP JUMP JUMPDEST PUSH2 0x365 PUSH2 0x64F JUMP JUMPDEST PUSH1 0x4 DUP1 SLOAD PUSH32 0xFFFFFFFFFFFFFFFFFFFFFFFF0000000000000000000000000000000000000000 AND PUSH1 0x1 PUSH1 0x1 PUSH1 0xA0 SHL SUB SWAP3 SWAP1 SWAP3 AND SWAP2 SWAP1 SWAP2 OR SWAP1 SSTORE JUMP JUMPDEST PUSH1 0x0 PUSH2 0x3A9 PUSH2 0x64F JUMP JUMPDEST PUSH1 0x1 PUSH1 0x1 PUSH1 0xA0 SHL SUB DUP3 AND PUSH1 0x0 SWAP1 DUP2 MSTORE PUSH1 0x3 PUSH1 0x20 MSTORE PUSH1 0x40 SWAP1 KECCAK256 PUSH1 0x1 ADD SLOAD PUSH2 0x411 JUMPI PUSH1 0x40 MLOAD PUSH3 0x461BCD PUSH1 0xE5 SHL DUP2 MSTORE PUSH1 0x20 PUSH1 0x4 DUP3 ADD MSTORE PUSH1 0x13 PUSH1 0x24 DUP3 ADD MSTORE PUSH32 0x55736572206E6F74205265676973746572656400000000000000000000000000 PUSH1 0x44 DUP3 ADD MSTORE PUSH1 0x64 ADD PUSH2 0x2AD JUMP JUMPDEST PUSH1 0x1 PUSH1 0x0 DUP1 DUP3 DUP3 SLOAD PUSH2 0x423 SWAP2 SWAP1 PUSH2 0x9BC JUMP JUMPDEST SWAP1 SWAP2 SSTORE POP POP PUSH1 0x1 PUSH1 0x1 PUSH1 0xA0 SHL SUB DUP3 AND PUSH1 0x0 SWAP1 DUP2 MSTORE PUSH1 0x3 PUSH1 0x20 MSTORE PUSH1 0x40 DUP2 KECCAK256 PUSH1 0x1 SWAP1 DUP2 ADD SLOAD DUP2 SLOAD SWAP1 SWAP3 SWAP1 PUSH2 0x456 SWAP1 DUP5 SWAP1 PUSH2 0x9D3 JUMP JUMPDEST SWAP1 SWAP2 SSTORE POP POP POP PUSH1 0x1 PUSH1 0x1 PUSH1 0xA0 SHL SUB AND PUSH1 0x0 SWAP1 DUP2 MSTORE PUSH1 0x3 PUSH1 0x20 DUP2 SWAP1 MSTORE PUSH1 0x40 DUP3 KECCAK256 PUSH1 0x1 DUP2 ADD DUP1 SLOAD DUP5 DUP4 SSTORE SWAP1 DUP5 SWAP1 SSTORE PUSH1 0x2 DUP3 ADD DUP1 SLOAD PUSH1 0xFF NOT AND SWAP1 SSTORE SWAP2 ADD SWAP2 SWAP1 SWAP2 SSTORE SWAP1 JUMP JUMPDEST PUSH2 0x4C4 PUSH1 0x40 MLOAD DUP1 PUSH1 0x80 ADD PUSH1 0x40 MSTORE DUP1 PUSH1 0x0 DUP2 MSTORE PUSH1 0x20 ADD PUSH1 0x0 DUP2 MSTORE PUSH1 0x20 ADD PUSH1 0x0 ISZERO ISZERO DUP2 MSTORE PUSH1 0x20 ADD PUSH1 0x0 DUP2 MSTORE POP SWAP1 JUMP JUMPDEST POP PUSH1 0x1 PUSH1 0x1 PUSH1 0xA0 SHL SUB AND PUSH1 0x0 SWAP1 DUP2 MSTORE PUSH1 0x3 PUSH1 0x20 DUP2 DUP2 MSTORE PUSH1 0x40 SWAP3 DUP4 SWAP1 KECCAK256 DUP4 MLOAD PUSH1 0x80 DUP2 ADD DUP6 MSTORE DUP2 SLOAD DUP2 MSTORE PUSH1 0x1 DUP3 ADD SLOAD SWAP3 DUP2 ADD SWAP3 SWAP1 SWAP3 MSTORE PUSH1 0x2 DUP2 ADD SLOAD PUSH1 0xFF AND ISZERO ISZERO SWAP4 DUP3 ADD SWAP4 SWAP1 SWAP4 MSTORE SWAP2 ADD SLOAD PUSH1 0x60 DUP3 ADD MSTORE SWAP1 JUMP JUMPDEST PUSH2 0x51C PUSH2 0x64F JUMP JUMPDEST PUSH1 0x1 SLOAD DUP2 GT ISZERO PUSH2 0x56E JUMPI PUSH1 0x40 MLOAD PUSH3 0x461BCD PUSH1 0xE5 SHL DUP2 MSTORE PUSH1 0x20 PUSH1 0x4 DUP3 ADD MSTORE PUSH1 0x1A PUSH1 0x24 DUP3 ADD MSTORE PUSH32 0x496E73756666696369656E7420546F74616C2042616C616E6365000000000000 PUSH1 0x44 DUP3 ADD MSTORE PUSH1 0x64 ADD PUSH2 0x2AD JUMP JUMPDEST PUSH1 0x1 PUSH1 0x1 PUSH1 0xA0 SHL SUB DUP3 AND PUSH1 0x0 SWAP1 DUP2 MSTORE PUSH1 0x3 PUSH1 0x20 MSTORE PUSH1 0x40 SWAP1 KECCAK256 PUSH1 0x1 ADD SLOAD ISZERO PUSH2 0x5D7 JUMPI PUSH1 0x40 MLOAD PUSH3 0x461BCD PUSH1 0xE5 SHL DUP2 MSTORE PUSH1 0x20 PUSH1 0x4 DUP3 ADD MSTORE PUSH1 0x1A PUSH1 0x24 DUP3 ADD MSTORE PUSH32 0x43616E6E6F742061646420526567697374657265642055736572000000000000 PUSH1 0x44 DUP3 ADD MSTORE PUSH1 0x64 ADD PUSH2 0x2AD JUMP JUMPDEST PUSH1 0x1 PUSH1 0x1 PUSH1 0xA0 SHL SUB DUP3 AND PUSH1 0x0 SWAP1 DUP2 MSTORE PUSH1 0x3 PUSH1 0x20 DUP2 SWAP1 MSTORE PUSH1 0x40 DUP3 KECCAK256 DUP4 DUP2 SSTORE PUSH1 0x1 DUP1 DUP3 ADD DUP6 SWAP1 SSTORE PUSH1 0x2 DUP3 ADD DUP1 SLOAD PUSH1 0xFF NOT AND SWAP1 SSTORE SWAP2 ADD DUP2 SWAP1 SSTORE DUP2 SLOAD SWAP1 SWAP2 SWAP1 DUP2 SWAP1 PUSH2 0x61F SWAP1 DUP5 SWAP1 PUSH2 0x9D3 JUMP JUMPDEST SWAP3 POP POP DUP2 SWAP1 SSTORE POP DUP1 PUSH1 0x1 PUSH1 0x0 DUP3 DUP3 SLOAD PUSH2 0x638 SWAP2 SWAP1 PUSH2 0x9BC JUMP JUMPDEST SWAP1 SWAP2 SSTORE POP POP POP POP JUMP JUMPDEST PUSH2 0x649 PUSH2 0x64F JUMP JUMPDEST TIMESTAMP PUSH1 0x2 SSTORE JUMP JUMPDEST PUSH1 0x4 SLOAD PUSH1 0x1 PUSH1 0x1 PUSH1 0xA0 SHL SUB AND CALLER EQ PUSH2 0x6A9 JUMPI PUSH1 0x40 MLOAD PUSH3 0x461BCD PUSH1 0xE5 SHL DUP2 MSTORE PUSH1 0x20 PUSH1 0x4 DUP3 ADD MSTORE PUSH1 0xE PUSH1 0x24 DUP3 ADD MSTORE PUSH32 0x4E6F7420617574686F72697A6564000000000000000000000000000000000000 PUSH1 0x44 DUP3 ADD MSTORE PUSH1 0x64 ADD PUSH2 0x2AD JUMP JUMPDEST JUMP JUMPDEST PUSH1 0x0 DUP1 PUSH1 0x0 PUSH3 0x15180 PUSH1 0x2 SLOAD TIMESTAMP PUSH2 0x6C2 SWAP2 SWAP1 PUSH2 0x9BC JUMP JUMPDEST PUSH2 0x6CC SWAP2 SWAP1 PUSH2 0x9EB JUMP JUMPDEST SWAP1 POP PUSH2 0x1E0 DUP2 LT ISZERO PUSH2 0x790 JUMPI PUSH1 0x1 PUSH1 0x1 PUSH1 0xA0 SHL SUB DUP5 AND PUSH1 0x0 SWAP1 DUP2 MSTORE PUSH1 0x3 PUSH1 0x20 MSTORE PUSH1 0x40 SWAP1 KECCAK256 PUSH1 0x2 ADD SLOAD PUSH1 0xFF AND PUSH2 0x76A JUMPI PUSH1 0x1 PUSH1 0x1 PUSH1 0xA0 SHL SUB DUP5 AND PUSH1 0x0 SWAP1 DUP2 MSTORE PUSH1 0x3 PUSH1 0x20 MSTORE PUSH1 0x40 SWAP1 KECCAK256 SLOAD PUSH2 0x741 SWAP1 PUSH2 0x73A SWAP1 PUSH2 0x732 SWAP1 PUSH11 0x3CB5FEEC27901169E00000 SWAP1 PUSH2 0x926 JUMP JUMPDEST PUSH1 0x1 SLOAD PUSH2 0x932 JUMP JUMPDEST DUP4 SWAP1 PUSH2 0x93E JUMP JUMPDEST PUSH1 0x1 PUSH1 0x1 PUSH1 0xA0 SHL SUB DUP6 AND PUSH1 0x0 SWAP1 DUP2 MSTORE PUSH1 0x3 PUSH1 0x20 MSTORE PUSH1 0x40 SWAP1 KECCAK256 PUSH1 0x2 ADD DUP1 SLOAD PUSH1 0xFF NOT AND PUSH1 0x1 OR SWAP1 SSTORE SWAP2 POP JUMPDEST PUSH1 0x1 PUSH1 0x1 PUSH1 0xA0 SHL SUB DUP5 AND PUSH1 0x0 SWAP1 DUP2 MSTORE PUSH1 0x3 PUSH1 0x20 DUP2 SWAP1 MSTORE PUSH1 0x40 SWAP1 SWAP2 KECCAK256 PUSH2 0x1C2 SWAP2 ADD SSTORE PUSH2 0x8BF JUMP JUMPDEST PUSH2 0x1E0 DUP2 LT ISZERO DUP1 ISZERO PUSH2 0x7A3 JUMPI POP PUSH2 0x348 DUP2 LT JUMPDEST ISZERO PUSH2 0x8BF JUMPI PUSH1 0x1 PUSH1 0x1 PUSH1 0xA0 SHL SUB DUP5 AND PUSH1 0x0 SWAP1 DUP2 MSTORE PUSH1 0x3 PUSH1 0x20 MSTORE PUSH1 0x40 SWAP1 KECCAK256 PUSH1 0x2 ADD SLOAD PUSH1 0xFF AND PUSH2 0x82B JUMPI PUSH1 0x1 PUSH1 0x1 PUSH1 0xA0 SHL SUB DUP5 AND PUSH1 0x0 SWAP1 DUP2 MSTORE PUSH1 0x3 PUSH1 0x20 MSTORE PUSH1 0x40 SWAP1 KECCAK256 SLOAD PUSH2 0x802 SWAP1 PUSH2 0x73A SWAP1 PUSH2 0x732 SWAP1 PUSH11 0x3CB5FEEC27901169E00000 SWAP1 PUSH2 0x926 JUMP JUMPDEST PUSH1 0x1 PUSH1 0x1 PUSH1 0xA0 SHL SUB DUP6 AND PUSH1 0x0 SWAP1 DUP2 MSTORE PUSH1 0x3 PUSH1 0x20 MSTORE PUSH1 0x40 SWAP1 KECCAK256 PUSH1 0x2 ADD DUP1 SLOAD PUSH1 0xFF NOT AND PUSH1 0x1 OR SWAP1 SSTORE SWAP2 POP JUMPDEST PUSH1 0x1 PUSH1 0x1 PUSH1 0xA0 SHL SUB DUP5 AND PUSH1 0x0 SWAP1 DUP2 MSTORE PUSH1 0x3 PUSH1 0x20 DUP2 SWAP1 MSTORE PUSH1 0x40 DUP3 KECCAK256 ADD SLOAD PUSH2 0x851 SWAP1 DUP4 PUSH2 0x9BC JUMP JUMPDEST PUSH1 0x1 PUSH1 0x1 PUSH1 0xA0 SHL SUB DUP7 AND PUSH1 0x0 SWAP1 DUP2 MSTORE PUSH1 0x3 PUSH1 0x20 MSTORE PUSH1 0x40 SWAP1 KECCAK256 SLOAD SWAP1 SWAP2 POP PUSH2 0x892 SWAP1 PUSH2 0x88B SWAP1 PUSH2 0x732 SWAP1 PUSH11 0x3290914BE1AFB75080000 SWAP1 PUSH2 0x926 JUMP JUMPDEST DUP5 SWAP1 PUSH2 0x93E JUMP JUMPDEST PUSH2 0x89C SWAP1 DUP3 PUSH2 0xA0D JUMP JUMPDEST PUSH1 0x1 PUSH1 0x1 PUSH1 0xA0 SHL SUB DUP7 AND PUSH1 0x0 SWAP1 DUP2 MSTORE PUSH1 0x3 PUSH1 0x20 DUP2 SWAP1 MSTORE PUSH1 0x40 SWAP1 SWAP2 KECCAK256 ADD DUP4 SWAP1 SSTORE SWAP3 POP POP JUMPDEST DUP2 PUSH2 0x90C JUMPI PUSH1 0x40 MLOAD PUSH3 0x461BCD PUSH1 0xE5 SHL DUP2 MSTORE PUSH1 0x20 PUSH1 0x4 DUP3 ADD MSTORE PUSH1 0x14 PUSH1 0x24 DUP3 ADD MSTORE PUSH32 0x4E6F7468696E6720746F20636C61696D20796574000000000000000000000000 PUSH1 0x44 DUP3 ADD MSTORE PUSH1 0x64 ADD PUSH2 0x2AD JUMP JUMPDEST POP SWAP3 SWAP2 POP POP JUMP JUMPDEST PUSH1 0x0 PUSH2 0x91F DUP3 DUP5 PUSH2 0x9BC JUMP JUMPDEST SWAP4 SWAP3 POP POP POP JUMP JUMPDEST PUSH1 0x0 PUSH2 0x91F DUP3 DUP5 PUSH2 0xA0D JUMP JUMPDEST PUSH1 0x0 PUSH2 0x91F DUP3 DUP5 PUSH2 0x9EB JUMP JUMPDEST PUSH1 0x0 PUSH2 0x91F DUP3 DUP5 PUSH2 0x9D3 JUMP JUMPDEST DUP1 CALLDATALOAD PUSH1 0x1 PUSH1 0x1 PUSH1 0xA0 SHL SUB DUP2 AND DUP2 EQ PUSH2 0x358 JUMPI PUSH1 0x0 DUP1 REVERT JUMPDEST PUSH1 0x0 PUSH1 0x20 DUP3 DUP5 SUB SLT ISZERO PUSH2 0x973 JUMPI PUSH1 0x0 DUP1 REVERT JUMPDEST PUSH2 0x91F DUP3 PUSH2 0x94A JUMP JUMPDEST PUSH1 0x0 DUP1 PUSH1 0x40 DUP4 DUP6 SUB SLT ISZERO PUSH2 0x98F JUMPI PUSH1 0x0 DUP1 REVERT JUMPDEST PUSH2 0x998 DUP4 PUSH2 0x94A JUMP JUMPDEST SWAP5 PUSH1 0x20 SWAP4 SWAP1 SWAP4 ADD CALLDATALOAD SWAP4 POP POP POP JUMP JUMPDEST PUSH4 0x4E487B71 PUSH1 0xE0 SHL PUSH1 0x0 MSTORE PUSH1 0x11 PUSH1 0x4 MSTORE PUSH1 0x24 PUSH1 0x0 REVERT JUMPDEST PUSH1 0x0 DUP3 DUP3 LT ISZERO PUSH2 0x9CE JUMPI PUSH2 0x9CE PUSH2 0x9A6 JUMP JUMPDEST POP SUB SWAP1 JUMP JUMPDEST PUSH1 0x0 DUP3 NOT DUP3 GT ISZERO PUSH2 0x9E6 JUMPI PUSH2 0x9E6 PUSH2 0x9A6 JUMP JUMPDEST POP ADD SWAP1 JUMP JUMPDEST PUSH1 0x0 DUP3 PUSH2 0xA08 JUMPI PUSH4 0x4E487B71 PUSH1 0xE0 SHL PUSH1 0x0 MSTORE PUSH1 0x12 PUSH1 0x4 MSTORE PUSH1 0x24 PUSH1 0x0 REVERT JUMPDEST POP DIV SWAP1 JUMP JUMPDEST PUSH1 0x0 DUP2 PUSH1 0x0 NOT DIV DUP4 GT DUP3 ISZERO ISZERO AND ISZERO PUSH2 0xA27 JUMPI PUSH2 0xA27 PUSH2 0x9A6 JUMP JUMPDEST POP MUL SWAP1 JUMP INVALID LOG2 PUSH5 0x6970667358 0x22 SLT KECCAK256 0xE7 NOT PUSH25 0x29F3E9B523222B85A478354D38C59EF90EF69F7DC07BA68E90 0x25 PUSH26 0x315864736F6C634300080B003300000000000000000000000000 "
				},
				"gasEstimates": {
					"creation": {
						"codeDepositCost": "531600",
						"executionCost": "46909",
						"totalCost": "578509"
					},
					"external": {
						"addBeneficiary(address,uint256)": "146128",
						"beneficiary(address)": "9103",
						"changeTalaxAddress(address)": "26766",
						"deleteBeneficiary(address)": "97045",
						"getOwner()": "2346",
						"hasWhitelist(address)": "9247",
						"initiateWhitelist()": "24479",
						"privateSaleAmount()": "2351",
						"privateSaleUsers()": "2329",
						"releaseClaimable(address)": "infinite",
						"startPrivateSale()": "2307"
					},
					"internal": {
						"_calculateClaimableAmount(address)": "infinite",
						"_onlyTalax()": "infinite"
					}
				},
				"methodIdentifiers": {
					"addBeneficiary(address,uint256)": "96074e70",
					"beneficiary(address)": "81008568",
					"changeTalaxAddress(address)": "1d77b00b",
					"deleteBeneficiary(address)": "7d3bca76",
					"getOwner()": "893d20e8",
					"hasWhitelist(address)": "8cdb7e8b",
					"initiateWhitelist()": "efdd8796",
					"privateSaleAmount()": "8b2b423a",
					"privateSaleUsers()": "549dee0b",
					"releaseClaimable(address)": "005171f4",
					"startPrivateSale()": "338dbf59"
				}
			},
			"storageLayout": {
				"storage": [
					{
						"astId": 319,
						"contract": "contracts/Whitelist.sol:Whitelist",
						"label": "privateSaleUsers",
						"offset": 0,
						"slot": "0",
						"type": "t_uint256"
					},
					{
						"astId": 321,
						"contract": "contracts/Whitelist.sol:Whitelist",
						"label": "privateSaleAmount",
						"offset": 0,
						"slot": "1",
						"type": "t_uint256"
					},
					{
						"astId": 333,
						"contract": "contracts/Whitelist.sol:Whitelist",
						"label": "startPrivateSale",
						"offset": 0,
						"slot": "2",
						"type": "t_uint256"
					},
					{
						"astId": 347,
						"contract": "contracts/Whitelist.sol:Whitelist",
						"label": "_beneficiary",
						"offset": 0,
						"slot": "3",
						"type": "t_mapping(t_address,t_struct(WhitelistStruct)342_storage)"
					},
					{
						"astId": 349,
						"contract": "contracts/Whitelist.sol:Whitelist",
						"label": "_owner",
						"offset": 0,
						"slot": "4",
						"type": "t_address"
					}
				],
				"types": {
					"t_address": {
						"encoding": "inplace",
						"label": "address",
						"numberOfBytes": "20"
					},
					"t_bool": {
						"encoding": "inplace",
						"label": "bool",
						"numberOfBytes": "1"
					},
					"t_mapping(t_address,t_struct(WhitelistStruct)342_storage)": {
						"encoding": "mapping",
						"key": "t_address",
						"label": "mapping(address => struct Whitelist.WhitelistStruct)",
						"numberOfBytes": "32",
						"value": "t_struct(WhitelistStruct)342_storage"
					},
					"t_struct(WhitelistStruct)342_storage": {
						"encoding": "inplace",
						"label": "struct Whitelist.WhitelistStruct",
						"members": [
							{
								"astId": 335,
								"contract": "contracts/Whitelist.sol:Whitelist",
								"label": "lockedAmount",
								"offset": 0,
								"slot": "0",
								"type": "t_uint256"
							},
							{
								"astId": 337,
								"contract": "contracts/Whitelist.sol:Whitelist",
								"label": "amount",
								"offset": 0,
								"slot": "1",
								"type": "t_uint256"
							},
							{
								"astId": 339,
								"contract": "contracts/Whitelist.sol:Whitelist",
								"label": "isPhase1Claimed",
								"offset": 0,
								"slot": "2",
								"type": "t_bool"
							},
							{
								"astId": 341,
								"contract": "contracts/Whitelist.sol:Whitelist",
								"label": "latestClaimDay",
								"offset": 0,
								"slot": "3",
								"type": "t_uint256"
							}
						],
						"numberOfBytes": "128"
					},
					"t_uint256": {
						"encoding": "inplace",
						"label": "uint256",
						"numberOfBytes": "32"
					}
				}
			},
			"userdoc": {
				"kind": "user",
				"methods": {
					"releaseClaimable(address)": {
						"notice": "Transfers tokens held by timelock to beneficiary."
					}
				},
				"version": 1
			}
		}
	}
}