{
	"contracts/Whitelist-2.0.sol": {
		"WhitelistVesting": {
			"abi": [
				{
					"inputs": [
						{
							"internalType": "address",
							"name": "token",
							"type": "address"
						},
						{
							"internalType": "uint64",
							"name": "startTimestamp",
							"type": "uint64"
						},
						{
							"internalType": "uint64",
							"name": "durationSeconds",
							"type": "uint64"
						}
					],
					"stateMutability": "payable",
					"type": "constructor"
				},
				{
					"anonymous": false,
					"inputs": [
						{
							"indexed": true,
							"internalType": "address",
							"name": "token",
							"type": "address"
						},
						{
							"indexed": true,
							"internalType": "address",
							"name": "user",
							"type": "address"
						},
						{
							"indexed": false,
							"internalType": "uint256",
							"name": "amount",
							"type": "uint256"
						}
					],
					"name": "ERC20Released",
					"type": "event"
				},
				{
					"anonymous": false,
					"inputs": [
						{
							"indexed": true,
							"internalType": "address",
							"name": "previousOwner",
							"type": "address"
						},
						{
							"indexed": true,
							"internalType": "address",
							"name": "newOwner",
							"type": "address"
						}
					],
					"name": "OwnershipTransferred",
					"type": "event"
				},
				{
					"inputs": [
						{
							"internalType": "address",
							"name": "",
							"type": "address"
						}
					],
					"name": "_lastMonth",
					"outputs": [
						{
							"internalType": "uint256",
							"name": "",
							"type": "uint256"
						}
					],
					"stateMutability": "view",
					"type": "function"
				},
				{
					"inputs": [
						{
							"components": [
								{
									"internalType": "address",
									"name": "user",
									"type": "address"
								},
								{
									"internalType": "uint256",
									"name": "amount",
									"type": "uint256"
								}
							],
							"internalType": "struct WhitelistVesting.Beneficiary[]",
							"name": "users",
							"type": "tuple[]"
						}
					],
					"name": "addMultiVesting",
					"outputs": [],
					"stateMutability": "nonpayable",
					"type": "function"
				},
				{
					"inputs": [
						{
							"components": [
								{
									"internalType": "address",
									"name": "user",
									"type": "address"
								},
								{
									"internalType": "uint256",
									"name": "amount",
									"type": "uint256"
								}
							],
							"internalType": "struct WhitelistVesting.Beneficiary[]",
							"name": "users",
							"type": "tuple[]"
						}
					],
					"name": "deleteMultiVesting",
					"outputs": [],
					"stateMutability": "nonpayable",
					"type": "function"
				},
				{
					"inputs": [],
					"name": "duration",
					"outputs": [
						{
							"internalType": "uint256",
							"name": "",
							"type": "uint256"
						}
					],
					"stateMutability": "view",
					"type": "function"
				},
				{
					"inputs": [],
					"name": "owner",
					"outputs": [
						{
							"internalType": "address",
							"name": "",
							"type": "address"
						}
					],
					"stateMutability": "view",
					"type": "function"
				},
				{
					"inputs": [],
					"name": "releasable",
					"outputs": [
						{
							"internalType": "uint256",
							"name": "",
							"type": "uint256"
						}
					],
					"stateMutability": "view",
					"type": "function"
				},
				{
					"inputs": [],
					"name": "release",
					"outputs": [],
					"stateMutability": "nonpayable",
					"type": "function"
				},
				{
					"inputs": [],
					"name": "released",
					"outputs": [
						{
							"internalType": "uint256",
							"name": "",
							"type": "uint256"
						}
					],
					"stateMutability": "view",
					"type": "function"
				},
				{
					"inputs": [],
					"name": "renounceOwnership",
					"outputs": [],
					"stateMutability": "nonpayable",
					"type": "function"
				},
				{
					"inputs": [],
					"name": "start",
					"outputs": [
						{
							"internalType": "uint256",
							"name": "",
							"type": "uint256"
						}
					],
					"stateMutability": "view",
					"type": "function"
				},
				{
					"inputs": [
						{
							"internalType": "address",
							"name": "newOwner",
							"type": "address"
						}
					],
					"name": "transferOwnership",
					"outputs": [],
					"stateMutability": "nonpayable",
					"type": "function"
				},
				{
					"inputs": [
						{
							"internalType": "uint64",
							"name": "timestamp",
							"type": "uint64"
						}
					],
					"name": "vestedAmount",
					"outputs": [
						{
							"internalType": "uint256",
							"name": "",
							"type": "uint256"
						}
					],
					"stateMutability": "view",
					"type": "function"
				},
				{
					"stateMutability": "payable",
					"type": "receive"
				}
			],
			"devdoc": {
				"details": "This contract handles the vesting of Eth and ERC20 tokens for a given beneficiary. Custody of multiple tokens can be given to this contract, which will release the token to the beneficiary following a given vesting schedule. The vesting schedule is customizable through the {vestedAmount} function. Any token transferred to this contract will follow the vesting schedule as if they were locked from the beginning. Consequently, if the vesting has already started, any amount of tokens sent to this contract will (at least partly) be immediately releasable.",
				"kind": "dev",
				"methods": {
					"constructor": {
						"details": "Set the beneficiary, start timestamp and vesting duration of the vesting wallet."
					},
					"duration()": {
						"details": "Getter for the vesting duration."
					},
					"owner()": {
						"details": "Returns the address of the current owner."
					},
					"releasable()": {
						"details": "Getter for the amount of releasable `token` tokens. `token` should be the address of an IERC20 contract."
					},
					"release()": {
						"details": "Release the tokens that have already vested. Emits a {ERC20Released} event."
					},
					"released()": {
						"details": "Amount of token already released"
					},
					"renounceOwnership()": {
						"details": "Leaves the contract without owner. It will not be possible to call `onlyOwner` functions anymore. Can only be called by the current owner. NOTE: Renouncing ownership will leave the contract without an owner, thereby removing any functionality that is only available to the owner."
					},
					"start()": {
						"details": "Getter for the start timestamp."
					},
					"transferOwnership(address)": {
						"details": "Transfers ownership of the contract to a new account (`newOwner`). Can only be called by the current owner."
					},
					"vestedAmount(uint64)": {
						"details": "Calculates the amount of tokens that has already vested. Default implementation is a linear vesting curve."
					}
				},
				"title": "VestingWallet",
				"version": 1
			},
			"evm": {
				"assembly": "    /* \"contracts/Whitelist-2.0.sol\":991:6281  contract WhitelistVesting is Context, Ownable {... */\n  mstore(0x40, 0xc0)\n    /* \"contracts/Whitelist-2.0.sol\":1793:2014  constructor(... */\n  mload(0x40)\n  sub(codesize, bytecodeSize)\n  dup1\n  bytecodeSize\n  dup4\n  codecopy\n  dup2\n  add\n  0x40\n  dup2\n  swap1\n  mstore\n  tag_1\n  swap2\n  tag_2\n  jump\t// in\ntag_1:\n    /* \"@openzeppelin/contracts/access/Ownable.sol\":921:953  _transferOwnership(_msgSender()) */\n  tag_6\n    /* \"@openzeppelin/contracts/utils/Context.sol\":719:729  msg.sender */\n  caller\n    /* \"@openzeppelin/contracts/access/Ownable.sol\":921:939  _transferOwnership */\n  tag_9\n    /* \"@openzeppelin/contracts/access/Ownable.sol\":921:953  _transferOwnership(_msgSender()) */\n  jump\t// in\ntag_6:\n    /* \"contracts/Whitelist-2.0.sol\":1920:1926  _token */\n  0x01\n    /* \"contracts/Whitelist-2.0.sol\":1920:1934  _token = token */\n  dup1\n  sload\n  not(sub(shl(0xa0, 0x01), 0x01))\n  and\n  sub(shl(0xa0, 0x01), 0x01)\n  swap5\n  swap1\n  swap5\n  and\n  swap4\n  swap1\n  swap4\n  or\n  swap1\n  swap3\n  sstore\n  sub(shl(0x40, 0x01), 0x01)\n    /* \"contracts/Whitelist-2.0.sol\":1945:1968  _start = startTimestamp */\n  swap1\n  dup2\n  and\n  0x80\n  mstore\n    /* \"contracts/Whitelist-2.0.sol\":1979:2006  _duration = durationSeconds */\n  and\n  0xa0\n  mstore\n    /* \"contracts/Whitelist-2.0.sol\":991:6281  contract WhitelistVesting is Context, Ownable {... */\n  jump(tag_15)\n    /* \"@openzeppelin/contracts/access/Ownable.sol\":2270:2457  function _transferOwnership(address newOwner) internal virtual {... */\ntag_9:\n    /* \"@openzeppelin/contracts/access/Ownable.sol\":2343:2359  address oldOwner */\n  0x00\n    /* \"@openzeppelin/contracts/access/Ownable.sol\":2362:2368  _owner */\n  dup1\n  sload\n  sub(shl(0xa0, 0x01), 0x01)\n    /* \"@openzeppelin/contracts/access/Ownable.sol\":2378:2395  _owner = newOwner */\n  dup4\n  dup2\n  and\n  not(sub(shl(0xa0, 0x01), 0x01))\n  dup4\n  and\n  dup2\n  or\n  dup5\n  sstore\n    /* \"@openzeppelin/contracts/access/Ownable.sol\":2410:2450  OwnershipTransferred(oldOwner, newOwner) */\n  mload(0x40)\n    /* \"@openzeppelin/contracts/access/Ownable.sol\":2362:2368  _owner */\n  swap2\n  swap1\n  swap3\n  and\n  swap3\n  dup4\n  swap2\n    /* \"@openzeppelin/contracts/access/Ownable.sol\":2410:2450  OwnershipTransferred(oldOwner, newOwner) */\n  0x8be0079c531659141344cd1fd0a4f28419497f9722a3daafe3b4186f6b6457e0\n  swap2\n    /* \"@openzeppelin/contracts/access/Ownable.sol\":2343:2359  address oldOwner */\n  swap1\n    /* \"@openzeppelin/contracts/access/Ownable.sol\":2410:2450  OwnershipTransferred(oldOwner, newOwner) */\n  log3\n    /* \"@openzeppelin/contracts/access/Ownable.sol\":2333:2457  {... */\n  pop\n    /* \"@openzeppelin/contracts/access/Ownable.sol\":2270:2457  function _transferOwnership(address newOwner) internal virtual {... */\n  pop\n  jump\t// out\n    /* \"#utility.yul\":14:189   */\ntag_14:\n    /* \"#utility.yul\":92:105   */\n  dup1\n  mload\n  sub(shl(0x40, 0x01), 0x01)\n    /* \"#utility.yul\":134:164   */\n  dup2\n  and\n    /* \"#utility.yul\":124:165   */\n  dup2\n  eq\n    /* \"#utility.yul\":114:183   */\n  tag_17\n  jumpi\n    /* \"#utility.yul\":179:180   */\n  0x00\n    /* \"#utility.yul\":176:177   */\n  dup1\n    /* \"#utility.yul\":169:181   */\n  revert\n    /* \"#utility.yul\":114:183   */\ntag_17:\n    /* \"#utility.yul\":14:189   */\n  swap2\n  swap1\n  pop\n  jump\t// out\n    /* \"#utility.yul\":194:650   */\ntag_2:\n    /* \"#utility.yul\":280:286   */\n  0x00\n    /* \"#utility.yul\":288:294   */\n  dup1\n    /* \"#utility.yul\":296:302   */\n  0x00\n    /* \"#utility.yul\":349:351   */\n  0x60\n    /* \"#utility.yul\":337:346   */\n  dup5\n    /* \"#utility.yul\":328:335   */\n  dup7\n    /* \"#utility.yul\":324:347   */\n  sub\n    /* \"#utility.yul\":320:352   */\n  slt\n    /* \"#utility.yul\":317:369   */\n  iszero\n  tag_19\n  jumpi\n    /* \"#utility.yul\":365:366   */\n  0x00\n    /* \"#utility.yul\":362:363   */\n  dup1\n    /* \"#utility.yul\":355:367   */\n  revert\n    /* \"#utility.yul\":317:369   */\ntag_19:\n    /* \"#utility.yul\":391:407   */\n  dup4\n  mload\n  sub(shl(0xa0, 0x01), 0x01)\n    /* \"#utility.yul\":436:467   */\n  dup2\n  and\n    /* \"#utility.yul\":426:468   */\n  dup2\n  eq\n    /* \"#utility.yul\":416:486   */\n  tag_20\n  jumpi\n    /* \"#utility.yul\":482:483   */\n  0x00\n    /* \"#utility.yul\":479:480   */\n  dup1\n    /* \"#utility.yul\":472:484   */\n  revert\n    /* \"#utility.yul\":416:486   */\ntag_20:\n    /* \"#utility.yul\":505:510   */\n  swap3\n  pop\n    /* \"#utility.yul\":529:577   */\n  tag_21\n    /* \"#utility.yul\":573:575   */\n  0x20\n    /* \"#utility.yul\":558:576   */\n  dup6\n  add\n    /* \"#utility.yul\":529:577   */\n  tag_14\n  jump\t// in\ntag_21:\n    /* \"#utility.yul\":519:577   */\n  swap2\n  pop\n    /* \"#utility.yul\":596:644   */\n  tag_22\n    /* \"#utility.yul\":640:642   */\n  0x40\n    /* \"#utility.yul\":629:638   */\n  dup6\n    /* \"#utility.yul\":625:643   */\n  add\n    /* \"#utility.yul\":596:644   */\n  tag_14\n  jump\t// in\ntag_22:\n    /* \"#utility.yul\":586:644   */\n  swap1\n  pop\n    /* \"#utility.yul\":194:650   */\n  swap3\n  pop\n  swap3\n  pop\n  swap3\n  jump\t// out\ntag_15:\n    /* \"contracts/Whitelist-2.0.sol\":991:6281  contract WhitelistVesting is Context, Ownable {... */\n  mload(0x80)\n  mload(0xa0)\n  codecopy(0x00, dataOffset(sub_0), dataSize(sub_0))\n  0x00\n  assignImmutable(\"0x9b0d5a2681b52b4560ba0a55dc00d44d52ed130b12e9b1ecacbe9f4e75788d40\")\n  0x00\n  assignImmutable(\"0xb0c7bc42bdbc6fc210fecd6a5f5b923061cceb0f8ca5c7d964d5c22fc0e4b0b6\")\n  return(0x00, dataSize(sub_0))\nstop\n\nsub_0: assembly {\n        /* \"contracts/Whitelist-2.0.sol\":991:6281  contract WhitelistVesting is Context, Ownable {... */\n      mstore(0x40, 0x80)\n      jumpi(tag_1, lt(calldatasize, 0x04))\n      shr(0xe0, calldataload(0x00))\n      dup1\n      0x8da5cb5b\n      gt\n      tag_15\n      jumpi\n      dup1\n      0xde809847\n      gt\n      tag_16\n      jumpi\n      dup1\n      0xde809847\n      eq\n      tag_12\n      jumpi\n      dup1\n      0xf2fde38b\n      eq\n      tag_13\n      jumpi\n      dup1\n      0xfbccedae\n      eq\n      tag_14\n      jumpi\n      0x00\n      dup1\n      revert\n    tag_16:\n      dup1\n      0x8da5cb5b\n      eq\n      tag_9\n      jumpi\n      dup1\n      0x96132521\n      eq\n      tag_10\n      jumpi\n      dup1\n      0xbe9a6555\n      eq\n      tag_11\n      jumpi\n      0x00\n      dup1\n      revert\n    tag_15:\n      dup1\n      0x594c733f\n      gt\n      tag_17\n      jumpi\n      dup1\n      0x594c733f\n      eq\n      tag_6\n      jumpi\n      dup1\n      0x715018a6\n      eq\n      tag_7\n      jumpi\n      dup1\n      0x86d1a69f\n      eq\n      tag_8\n      jumpi\n      0x00\n      dup1\n      revert\n    tag_17:\n      dup1\n      0x0a17b06b\n      eq\n      tag_3\n      jumpi\n      dup1\n      0x0fb5a6b4\n      eq\n      tag_4\n      jumpi\n      dup1\n      0x27c2e722\n      eq\n      tag_5\n      jumpi\n      0x00\n      dup1\n      revert\n    tag_1:\n      jumpi(tag_2, calldatasize)\n      stop\n    tag_2:\n      0x00\n      dup1\n      revert\n        /* \"contracts/Whitelist-2.0.sol\":5258:5662  function vestedAmount(uint64 timestamp)... */\n    tag_3:\n      callvalue\n      dup1\n      iszero\n      tag_20\n      jumpi\n      0x00\n      dup1\n      revert\n    tag_20:\n      pop\n      tag_21\n      tag_22\n      calldatasize\n      0x04\n      tag_23\n      jump\t// in\n    tag_22:\n      tag_24\n      jump\t// in\n    tag_21:\n      mload(0x40)\n        /* \"#utility.yul\":449:474   */\n      swap1\n      dup2\n      mstore\n        /* \"#utility.yul\":437:439   */\n      0x20\n        /* \"#utility.yul\":422:440   */\n      add\n        /* \"contracts/Whitelist-2.0.sol\":5258:5662  function vestedAmount(uint64 timestamp)... */\n    tag_25:\n      mload(0x40)\n      dup1\n      swap2\n      sub\n      swap1\n      return\n        /* \"contracts/Whitelist-2.0.sol\":2364:2457  function duration() public view virtual returns (uint256) {... */\n    tag_4:\n      callvalue\n      dup1\n      iszero\n      tag_27\n      jumpi\n      0x00\n      dup1\n      revert\n    tag_27:\n      pop\n        /* \"contracts/Whitelist-2.0.sol\":2440:2449  _duration */\n      immutable(\"0x9b0d5a2681b52b4560ba0a55dc00d44d52ed130b12e9b1ecacbe9f4e75788d40\")\n        /* \"contracts/Whitelist-2.0.sol\":2433:2449  return _duration */\n      0xffffffffffffffff\n      and\n        /* \"contracts/Whitelist-2.0.sol\":2364:2457  function duration() public view virtual returns (uint256) {... */\n      jump(tag_21)\n        /* \"contracts/Whitelist-2.0.sol\":3779:3992  function addMultiVesting(Beneficiary[] calldata users) external onlyOwner {... */\n    tag_5:\n      callvalue\n      dup1\n      iszero\n      tag_31\n      jumpi\n      0x00\n      dup1\n      revert\n    tag_31:\n      pop\n      tag_32\n      tag_33\n      calldatasize\n      0x04\n      tag_34\n      jump\t// in\n    tag_33:\n      tag_35\n      jump\t// in\n    tag_32:\n      stop\n        /* \"contracts/Whitelist-2.0.sol\":1627:1672  mapping(address => uint256) public _lastMonth */\n    tag_6:\n      callvalue\n      dup1\n      iszero\n      tag_36\n      jumpi\n      0x00\n      dup1\n      revert\n    tag_36:\n      pop\n      tag_21\n      tag_38\n      calldatasize\n      0x04\n      tag_39\n      jump\t// in\n    tag_38:\n      mstore(0x20, 0x04)\n      0x00\n      swap1\n      dup2\n      mstore\n      0x40\n      swap1\n      keccak256\n      sload\n      dup2\n      jump\n        /* \"@openzeppelin/contracts/access/Ownable.sol\":1668:1769  function renounceOwnership() public virtual onlyOwner {... */\n    tag_7:\n      callvalue\n      dup1\n      iszero\n      tag_42\n      jumpi\n      0x00\n      dup1\n      revert\n    tag_42:\n      pop\n      tag_32\n      tag_44\n      jump\t// in\n        /* \"contracts/Whitelist-2.0.sol\":4355:4802  function release() public virtual {... */\n    tag_8:\n      callvalue\n      dup1\n      iszero\n      tag_45\n      jumpi\n      0x00\n      dup1\n      revert\n    tag_45:\n      pop\n      tag_32\n      tag_47\n      jump\t// in\n        /* \"@openzeppelin/contracts/access/Ownable.sol\":1036:1121  function owner() public view virtual returns (address) {... */\n    tag_9:\n      callvalue\n      dup1\n      iszero\n      tag_48\n      jumpi\n      0x00\n      dup1\n      revert\n    tag_48:\n      pop\n        /* \"@openzeppelin/contracts/access/Ownable.sol\":1082:1089  address */\n      0x00\n        /* \"@openzeppelin/contracts/access/Ownable.sol\":1108:1114  _owner */\n      sload\n        /* \"@openzeppelin/contracts/access/Ownable.sol\":1036:1121  function owner() public view virtual returns (address) {... */\n      mload(0x40)\n      sub(shl(0xa0, 0x01), 0x01)\n        /* \"@openzeppelin/contracts/access/Ownable.sol\":1108:1114  _owner */\n      swap1\n      swap2\n      and\n        /* \"#utility.yul\":1595:1669   */\n      dup2\n      mstore\n        /* \"#utility.yul\":1583:1585   */\n      0x20\n        /* \"#utility.yul\":1568:1586   */\n      add\n        /* \"@openzeppelin/contracts/access/Ownable.sol\":1036:1121  function owner() public view virtual returns (address) {... */\n      tag_25\n        /* \"#utility.yul\":1449:1675   */\n      jump\n        /* \"contracts/Whitelist-2.0.sol\":2529:2647  function released() public view virtual returns (uint256) {... */\n    tag_10:\n      callvalue\n      dup1\n      iszero\n      tag_53\n      jumpi\n      0x00\n      dup1\n      revert\n    tag_53:\n      pop\n        /* \"contracts/Whitelist-2.0.sol\":2620:2626  _token */\n      and(sub(shl(0xa0, 0x01), 0x01), sload(0x01))\n        /* \"contracts/Whitelist-2.0.sol\":2578:2585  uint256 */\n      0x00\n        /* \"contracts/Whitelist-2.0.sol\":2605:2627  _erc20Released[_token] */\n      swap1\n      dup2\n      mstore\n        /* \"contracts/Whitelist-2.0.sol\":2605:2619  _erc20Released */\n      0x02\n        /* \"contracts/Whitelist-2.0.sol\":2605:2627  _erc20Released[_token] */\n      0x20\n      swap1\n      dup2\n      mstore\n      0x40\n      dup1\n      dup4\n      keccak256\n        /* \"contracts/Whitelist-2.0.sol\":2628:2638  msg.sender */\n      caller\n        /* \"contracts/Whitelist-2.0.sol\":2605:2639  _erc20Released[_token][msg.sender] */\n      dup5\n      mstore\n      swap1\n      swap2\n      mstore\n      swap1\n      keccak256\n      sload\n        /* \"contracts/Whitelist-2.0.sol\":2529:2647  function released() public view virtual returns (uint256) {... */\n      jump(tag_21)\n        /* \"contracts/Whitelist-2.0.sol\":2205:2292  function start() public view virtual returns (uint256) {... */\n    tag_11:\n      callvalue\n      dup1\n      iszero\n      tag_57\n      jumpi\n      0x00\n      dup1\n      revert\n    tag_57:\n      pop\n        /* \"contracts/Whitelist-2.0.sol\":2278:2284  _start */\n      immutable(\"0xb0c7bc42bdbc6fc210fecd6a5f5b923061cceb0f8ca5c7d964d5c22fc0e4b0b6\")\n        /* \"contracts/Whitelist-2.0.sol\":2271:2284  return _start */\n      0xffffffffffffffff\n      and\n        /* \"contracts/Whitelist-2.0.sol\":2205:2292  function start() public view virtual returns (uint256) {... */\n      jump(tag_21)\n        /* \"contracts/Whitelist-2.0.sol\":4000:4224  function deleteMultiVesting(Beneficiary[] calldata users)... */\n    tag_12:\n      callvalue\n      dup1\n      iszero\n      tag_61\n      jumpi\n      0x00\n      dup1\n      revert\n    tag_61:\n      pop\n      tag_32\n      tag_63\n      calldatasize\n      0x04\n      tag_34\n      jump\t// in\n    tag_63:\n      tag_64\n      jump\t// in\n        /* \"@openzeppelin/contracts/access/Ownable.sol\":1918:2116  function transferOwnership(address newOwner) public virtual onlyOwner {... */\n    tag_13:\n      callvalue\n      dup1\n      iszero\n      tag_65\n      jumpi\n      0x00\n      dup1\n      revert\n    tag_65:\n      pop\n      tag_32\n      tag_67\n      calldatasize\n      0x04\n      tag_39\n      jump\t// in\n    tag_67:\n      tag_68\n      jump\t// in\n        /* \"contracts/Whitelist-2.0.sol\":2799:2935  function releasable() public view virtual returns (uint256) {... */\n    tag_14:\n      callvalue\n      dup1\n      iszero\n      tag_69\n      jumpi\n      0x00\n      dup1\n      revert\n    tag_69:\n      pop\n      tag_21\n      tag_71\n      jump\t// in\n        /* \"contracts/Whitelist-2.0.sol\":5258:5662  function vestedAmount(uint64 timestamp)... */\n    tag_24:\n        /* \"contracts/Whitelist-2.0.sol\":2620:2626  _token */\n      and(sub(shl(0xa0, 0x01), 0x01), sload(0x01))\n        /* \"contracts/Whitelist-2.0.sol\":5363:5370  uint256 */\n      0x00\n        /* \"contracts/Whitelist-2.0.sol\":2605:2627  _erc20Released[_token] */\n      swap1\n      dup2\n      mstore\n        /* \"contracts/Whitelist-2.0.sol\":2605:2619  _erc20Released */\n      0x02\n        /* \"contracts/Whitelist-2.0.sol\":2605:2627  _erc20Released[_token] */\n      0x20\n      swap1\n      dup2\n      mstore\n      0x40\n      dup1\n      dup4\n      keccak256\n        /* \"contracts/Whitelist-2.0.sol\":2628:2638  msg.sender */\n      caller\n        /* \"contracts/Whitelist-2.0.sol\":2605:2639  _erc20Released[_token][msg.sender] */\n      dup5\n      mstore\n      dup3\n      mstore\n      dup1\n      dup4\n      keccak256\n      sload\n        /* \"contracts/Whitelist-2.0.sol\":5605:5617  _beneficiary */\n      0x03\n        /* \"contracts/Whitelist-2.0.sol\":5605:5629  _beneficiary[msg.sender] */\n      swap1\n      swap3\n      mstore\n      dup3\n      keccak256\n      sload\n        /* \"contracts/Whitelist-2.0.sol\":5588:5654  _vestingSchedule(_beneficiary[msg.sender] + released(), timestamp) */\n      tag_74\n      swap2\n        /* \"contracts/Whitelist-2.0.sol\":5605:5642  _beneficiary[msg.sender] + released() */\n      tag_76\n      swap2\n      tag_77\n      jump\t// in\n    tag_76:\n        /* \"contracts/Whitelist-2.0.sol\":5644:5653  timestamp */\n      dup4\n        /* \"contracts/Whitelist-2.0.sol\":5588:5604  _vestingSchedule */\n      tag_78\n        /* \"contracts/Whitelist-2.0.sol\":5588:5654  _vestingSchedule(_beneficiary[msg.sender] + released(), timestamp) */\n      jump\t// in\n    tag_74:\n        /* \"contracts/Whitelist-2.0.sol\":5568:5654  return... */\n      swap3\n        /* \"contracts/Whitelist-2.0.sol\":5258:5662  function vestedAmount(uint64 timestamp)... */\n      swap2\n      pop\n      pop\n      jump\t// out\n        /* \"contracts/Whitelist-2.0.sol\":3779:3992  function addMultiVesting(Beneficiary[] calldata users) external onlyOwner {... */\n    tag_35:\n        /* \"@openzeppelin/contracts/access/Ownable.sol\":1082:1089  address */\n      0x00\n        /* \"@openzeppelin/contracts/access/Ownable.sol\":1108:1114  _owner */\n      sload\n      sub(shl(0xa0, 0x01), 0x01)\n      and\n        /* \"@openzeppelin/contracts/utils/Context.sol\":719:729  msg.sender */\n      caller\n        /* \"@openzeppelin/contracts/access/Ownable.sol\":1248:1271  owner() == _msgSender() */\n      eq\n        /* \"@openzeppelin/contracts/access/Ownable.sol\":1240:1308  require(owner() == _msgSender(), \"Ownable: caller is not the owner\") */\n      tag_84\n      jumpi\n      mload(0x40)\n      shl(0xe5, 0x461bcd)\n      dup2\n      mstore\n        /* \"#utility.yul\":2204:2206   */\n      0x20\n        /* \"@openzeppelin/contracts/access/Ownable.sol\":1240:1308  require(owner() == _msgSender(), \"Ownable: caller is not the owner\") */\n      0x04\n      dup3\n      add\n        /* \"#utility.yul\":2186:2207   */\n      dup2\n      swap1\n      mstore\n        /* \"#utility.yul\":2223:2241   */\n      0x24\n      dup3\n      add\n        /* \"#utility.yul\":2216:2246   */\n      mstore\n        /* \"#utility.yul\":2282:2316   */\n      0x4f776e61626c653a2063616c6c6572206973206e6f7420746865206f776e6572\n        /* \"#utility.yul\":2262:2280   */\n      0x44\n      dup3\n      add\n        /* \"#utility.yul\":2255:2317   */\n      mstore\n        /* \"#utility.yul\":2334:2352   */\n      0x64\n      add\n        /* \"@openzeppelin/contracts/access/Ownable.sol\":1240:1308  require(owner() == _msgSender(), \"Ownable: caller is not the owner\") */\n    tag_85:\n      mload(0x40)\n      dup1\n      swap2\n      sub\n      swap1\n      revert\n    tag_84:\n        /* \"contracts/Whitelist-2.0.sol\":3869:3878  uint256 i */\n      0x00\n        /* \"contracts/Whitelist-2.0.sol\":3864:3985  for (uint256 i = 0; i < users.length; i = _unsafeInc(i)) {... */\n    tag_88:\n        /* \"contracts/Whitelist-2.0.sol\":3884:3900  i < users.length */\n      dup2\n      dup2\n      lt\n        /* \"contracts/Whitelist-2.0.sol\":3864:3985  for (uint256 i = 0; i < users.length; i = _unsafeInc(i)) {... */\n      iszero\n      tag_89\n      jumpi\n        /* \"contracts/Whitelist-2.0.sol\":3936:3973  _vest(users[i].user, users[i].amount) */\n      tag_91\n        /* \"contracts/Whitelist-2.0.sol\":3942:3947  users */\n      dup4\n      dup4\n        /* \"contracts/Whitelist-2.0.sol\":3948:3949  i */\n      dup4\n        /* \"contracts/Whitelist-2.0.sol\":3942:3950  users[i] */\n      dup2\n      dup2\n      lt\n      tag_93\n      jumpi\n      tag_93\n      tag_94\n      jump\t// in\n    tag_93:\n        /* \"contracts/Whitelist-2.0.sol\":3942:3955  users[i].user */\n      tag_95\n      swap3\n      0x20\n        /* \"contracts/Whitelist-2.0.sol\":3942:3950  users[i] */\n      0x40\n      swap1\n      swap3\n      mul\n      add\n        /* \"contracts/Whitelist-2.0.sol\":3942:3955  users[i].user */\n      swap1\n      dup2\n      add\n      swap2\n      pop\n      tag_39\n      jump\t// in\n    tag_95:\n        /* \"contracts/Whitelist-2.0.sol\":3957:3962  users */\n      dup5\n      dup5\n        /* \"contracts/Whitelist-2.0.sol\":3963:3964  i */\n      dup5\n        /* \"contracts/Whitelist-2.0.sol\":3957:3965  users[i] */\n      dup2\n      dup2\n      lt\n      tag_97\n      jumpi\n      tag_97\n      tag_94\n      jump\t// in\n    tag_97:\n      swap1\n      pop\n      0x40\n      mul\n      add\n        /* \"contracts/Whitelist-2.0.sol\":3957:3972  users[i].amount */\n      0x20\n      add\n      calldataload\n        /* \"contracts/Whitelist-2.0.sol\":3936:3941  _vest */\n      tag_98\n        /* \"contracts/Whitelist-2.0.sol\":3936:3973  _vest(users[i].user, users[i].amount) */\n      jump\t// in\n    tag_91:\n        /* \"contracts/Whitelist-2.0.sol\":3421:3422  1 */\n      0x01\n        /* \"contracts/Whitelist-2.0.sol\":3417:3422  x + 1 */\n      add\n        /* \"contracts/Whitelist-2.0.sol\":3864:3985  for (uint256 i = 0; i < users.length; i = _unsafeInc(i)) {... */\n      jump(tag_88)\n    tag_89:\n      pop\n        /* \"contracts/Whitelist-2.0.sol\":3779:3992  function addMultiVesting(Beneficiary[] calldata users) external onlyOwner {... */\n      pop\n      pop\n      jump\t// out\n        /* \"@openzeppelin/contracts/access/Ownable.sol\":1668:1769  function renounceOwnership() public virtual onlyOwner {... */\n    tag_44:\n        /* \"@openzeppelin/contracts/access/Ownable.sol\":1082:1089  address */\n      0x00\n        /* \"@openzeppelin/contracts/access/Ownable.sol\":1108:1114  _owner */\n      sload\n      sub(shl(0xa0, 0x01), 0x01)\n      and\n        /* \"@openzeppelin/contracts/utils/Context.sol\":719:729  msg.sender */\n      caller\n        /* \"@openzeppelin/contracts/access/Ownable.sol\":1248:1271  owner() == _msgSender() */\n      eq\n        /* \"@openzeppelin/contracts/access/Ownable.sol\":1240:1308  require(owner() == _msgSender(), \"Ownable: caller is not the owner\") */\n      tag_104\n      jumpi\n      mload(0x40)\n      shl(0xe5, 0x461bcd)\n      dup2\n      mstore\n        /* \"#utility.yul\":2204:2206   */\n      0x20\n        /* \"@openzeppelin/contracts/access/Ownable.sol\":1240:1308  require(owner() == _msgSender(), \"Ownable: caller is not the owner\") */\n      0x04\n      dup3\n      add\n        /* \"#utility.yul\":2186:2207   */\n      dup2\n      swap1\n      mstore\n        /* \"#utility.yul\":2223:2241   */\n      0x24\n      dup3\n      add\n        /* \"#utility.yul\":2216:2246   */\n      mstore\n        /* \"#utility.yul\":2282:2316   */\n      0x4f776e61626c653a2063616c6c6572206973206e6f7420746865206f776e6572\n        /* \"#utility.yul\":2262:2280   */\n      0x44\n      dup3\n      add\n        /* \"#utility.yul\":2255:2317   */\n      mstore\n        /* \"#utility.yul\":2334:2352   */\n      0x64\n      add\n        /* \"@openzeppelin/contracts/access/Ownable.sol\":1240:1308  require(owner() == _msgSender(), \"Ownable: caller is not the owner\") */\n      tag_85\n        /* \"#utility.yul\":2002:2358   */\n      jump\n        /* \"@openzeppelin/contracts/access/Ownable.sol\":1240:1308  require(owner() == _msgSender(), \"Ownable: caller is not the owner\") */\n    tag_104:\n        /* \"@openzeppelin/contracts/access/Ownable.sol\":1732:1762  _transferOwnership(address(0)) */\n      tag_107\n        /* \"@openzeppelin/contracts/access/Ownable.sol\":1759:1760  0 */\n      0x00\n        /* \"@openzeppelin/contracts/access/Ownable.sol\":1732:1750  _transferOwnership */\n      tag_108\n        /* \"@openzeppelin/contracts/access/Ownable.sol\":1732:1762  _transferOwnership(address(0)) */\n      jump\t// in\n    tag_107:\n        /* \"@openzeppelin/contracts/access/Ownable.sol\":1668:1769  function renounceOwnership() public virtual onlyOwner {... */\n      jump\t// out\n        /* \"contracts/Whitelist-2.0.sol\":4355:4802  function release() public virtual {... */\n    tag_47:\n        /* \"contracts/Whitelist-2.0.sol\":4400:4414  uint256 amount */\n      0x00\n        /* \"contracts/Whitelist-2.0.sol\":4417:4429  releasable() */\n      tag_110\n        /* \"contracts/Whitelist-2.0.sol\":4417:4427  releasable */\n      tag_71\n        /* \"contracts/Whitelist-2.0.sol\":4417:4429  releasable() */\n      jump\t// in\n    tag_110:\n        /* \"contracts/Whitelist-2.0.sol\":4473:4483  msg.sender */\n      caller\n        /* \"contracts/Whitelist-2.0.sol\":4462:4484  _lastMonth[msg.sender] */\n      0x00\n      swap1\n      dup2\n      mstore\n        /* \"contracts/Whitelist-2.0.sol\":4462:4472  _lastMonth */\n      0x04\n        /* \"contracts/Whitelist-2.0.sol\":4462:4484  _lastMonth[msg.sender] */\n      0x20\n      mstore\n      0x40\n      swap1\n      keccak256\n      sload\n        /* \"contracts/Whitelist-2.0.sol\":4400:4429  uint256 amount = releasable() */\n      swap1\n      swap2\n      pop\n        /* \"contracts/Whitelist-2.0.sol\":4444:4459  _currentMonth() */\n      tag_111\n        /* \"contracts/Whitelist-2.0.sol\":4444:4457  _currentMonth */\n      tag_112\n        /* \"contracts/Whitelist-2.0.sol\":4444:4459  _currentMonth() */\n      jump\t// in\n    tag_111:\n        /* \"contracts/Whitelist-2.0.sol\":4444:4484  _currentMonth() > _lastMonth[msg.sender] */\n      gt\n        /* \"contracts/Whitelist-2.0.sol\":4440:4795  if (_currentMonth() > _lastMonth[msg.sender]) {... */\n      iszero\n      tag_119\n      jumpi\n        /* \"contracts/Whitelist-2.0.sol\":4526:4541  _currentMonth() */\n      tag_114\n        /* \"contracts/Whitelist-2.0.sol\":4526:4539  _currentMonth */\n      tag_112\n        /* \"contracts/Whitelist-2.0.sol\":4526:4541  _currentMonth() */\n      jump\t// in\n    tag_114:\n        /* \"contracts/Whitelist-2.0.sol\":4512:4522  msg.sender */\n      caller\n        /* \"contracts/Whitelist-2.0.sol\":4501:4523  _lastMonth[msg.sender] */\n      0x00\n      swap1\n      dup2\n      mstore\n        /* \"contracts/Whitelist-2.0.sol\":4501:4511  _lastMonth */\n      0x04\n        /* \"contracts/Whitelist-2.0.sol\":4501:4523  _lastMonth[msg.sender] */\n      0x20\n      swap1\n      dup2\n      mstore\n      0x40\n      dup1\n      dup4\n      keccak256\n        /* \"contracts/Whitelist-2.0.sol\":4501:4541  _lastMonth[msg.sender] = _currentMonth() */\n      swap4\n      swap1\n      swap4\n      sstore\n        /* \"contracts/Whitelist-2.0.sol\":4556:4568  _beneficiary */\n      0x03\n        /* \"contracts/Whitelist-2.0.sol\":4556:4580  _beneficiary[msg.sender] */\n      swap1\n      mstore\n      swap1\n      dup2\n      keccak256\n        /* \"contracts/Whitelist-2.0.sol\":4556:4590  _beneficiary[msg.sender] -= amount */\n      dup1\n      sload\n        /* \"contracts/Whitelist-2.0.sol\":4584:4590  amount */\n      dup4\n      swap3\n        /* \"contracts/Whitelist-2.0.sol\":4501:4523  _lastMonth[msg.sender] */\n      swap1\n        /* \"contracts/Whitelist-2.0.sol\":4556:4590  _beneficiary[msg.sender] -= amount */\n      tag_115\n      swap1\n        /* \"contracts/Whitelist-2.0.sol\":4584:4590  amount */\n      dup5\n      swap1\n        /* \"contracts/Whitelist-2.0.sol\":4556:4590  _beneficiary[msg.sender] -= amount */\n      tag_116\n      jump\t// in\n    tag_115:\n      swap1\n      swap2\n      sstore\n      pop\n      pop\n        /* \"contracts/Whitelist-2.0.sol\":4620:4626  _token */\n      and(sub(shl(0xa0, 0x01), 0x01), sload(0x01))\n        /* \"contracts/Whitelist-2.0.sol\":4605:4627  _erc20Released[_token] */\n      0x00\n      swap1\n      dup2\n      mstore\n        /* \"contracts/Whitelist-2.0.sol\":4605:4619  _erc20Released */\n      0x02\n        /* \"contracts/Whitelist-2.0.sol\":4605:4627  _erc20Released[_token] */\n      0x20\n      swap1\n      dup2\n      mstore\n      0x40\n      dup1\n      dup4\n      keccak256\n        /* \"contracts/Whitelist-2.0.sol\":4628:4638  msg.sender */\n      caller\n        /* \"contracts/Whitelist-2.0.sol\":4605:4639  _erc20Released[_token][msg.sender] */\n      dup5\n      mstore\n      swap1\n      swap2\n      mstore\n      dup2\n      keccak256\n        /* \"contracts/Whitelist-2.0.sol\":4605:4649  _erc20Released[_token][msg.sender] += amount */\n      dup1\n      sload\n        /* \"contracts/Whitelist-2.0.sol\":4643:4649  amount */\n      dup4\n      swap3\n        /* \"contracts/Whitelist-2.0.sol\":4605:4627  _erc20Released[_token] */\n      swap1\n        /* \"contracts/Whitelist-2.0.sol\":4605:4649  _erc20Released[_token][msg.sender] += amount */\n      tag_117\n      swap1\n        /* \"contracts/Whitelist-2.0.sol\":4643:4649  amount */\n      dup5\n      swap1\n        /* \"contracts/Whitelist-2.0.sol\":4605:4649  _erc20Released[_token][msg.sender] += amount */\n      tag_77\n      jump\t// in\n    tag_117:\n      swap1\n      swap2\n      sstore\n      pop\n      pop\n        /* \"contracts/Whitelist-2.0.sol\":4683:4689  _token */\n      sload(0x01)\n        /* \"contracts/Whitelist-2.0.sol\":4669:4710  ERC20Released(_token, msg.sender, amount) */\n      mload(0x40)\n        /* \"#utility.yul\":449:474   */\n      dup3\n      dup2\n      mstore\n        /* \"contracts/Whitelist-2.0.sol\":4691:4701  msg.sender */\n      caller\n      swap2\n      sub(shl(0xa0, 0x01), 0x01)\n        /* \"contracts/Whitelist-2.0.sol\":4683:4689  _token */\n      and\n      swap1\n        /* \"contracts/Whitelist-2.0.sol\":4669:4710  ERC20Released(_token, msg.sender, amount) */\n      0x1998e30db89daf293a52c4fc4c4470cd506aafc3f9683e8e5daddad80cd6f4a4\n      swap1\n        /* \"#utility.yul\":437:439   */\n      0x20\n        /* \"#utility.yul\":422:440   */\n      add\n        /* \"contracts/Whitelist-2.0.sol\":4669:4710  ERC20Released(_token, msg.sender, amount) */\n      mload(0x40)\n      dup1\n      swap2\n      sub\n      swap1\n      log3\n        /* \"contracts/Whitelist-2.0.sol\":4755:4761  _token */\n      sload(0x01)\n        /* \"contracts/Whitelist-2.0.sol\":4725:4783  SafeERC20.safeTransfer(IERC20(_token), msg.sender, amount) */\n      tag_119\n      swap1\n      sub(shl(0xa0, 0x01), 0x01)\n        /* \"contracts/Whitelist-2.0.sol\":4755:4761  _token */\n      and\n        /* \"contracts/Whitelist-2.0.sol\":4764:4774  msg.sender */\n      caller\n        /* \"contracts/Whitelist-2.0.sol\":4776:4782  amount */\n      dup4\n        /* \"contracts/Whitelist-2.0.sol\":4725:4747  SafeERC20.safeTransfer */\n      tag_120\n        /* \"contracts/Whitelist-2.0.sol\":4725:4783  SafeERC20.safeTransfer(IERC20(_token), msg.sender, amount) */\n      jump\t// in\n    tag_119:\n        /* \"contracts/Whitelist-2.0.sol\":4389:4802  {... */\n      pop\n        /* \"contracts/Whitelist-2.0.sol\":4355:4802  function release() public virtual {... */\n      jump\t// out\n        /* \"contracts/Whitelist-2.0.sol\":4000:4224  function deleteMultiVesting(Beneficiary[] calldata users)... */\n    tag_64:\n        /* \"@openzeppelin/contracts/access/Ownable.sol\":1082:1089  address */\n      0x00\n        /* \"@openzeppelin/contracts/access/Ownable.sol\":1108:1114  _owner */\n      sload\n      sub(shl(0xa0, 0x01), 0x01)\n      and\n        /* \"@openzeppelin/contracts/utils/Context.sol\":719:729  msg.sender */\n      caller\n        /* \"@openzeppelin/contracts/access/Ownable.sol\":1248:1271  owner() == _msgSender() */\n      eq\n        /* \"@openzeppelin/contracts/access/Ownable.sol\":1240:1308  require(owner() == _msgSender(), \"Ownable: caller is not the owner\") */\n      tag_127\n      jumpi\n      mload(0x40)\n      shl(0xe5, 0x461bcd)\n      dup2\n      mstore\n        /* \"#utility.yul\":2204:2206   */\n      0x20\n        /* \"@openzeppelin/contracts/access/Ownable.sol\":1240:1308  require(owner() == _msgSender(), \"Ownable: caller is not the owner\") */\n      0x04\n      dup3\n      add\n        /* \"#utility.yul\":2186:2207   */\n      dup2\n      swap1\n      mstore\n        /* \"#utility.yul\":2223:2241   */\n      0x24\n      dup3\n      add\n        /* \"#utility.yul\":2216:2246   */\n      mstore\n        /* \"#utility.yul\":2282:2316   */\n      0x4f776e61626c653a2063616c6c6572206973206e6f7420746865206f776e6572\n        /* \"#utility.yul\":2262:2280   */\n      0x44\n      dup3\n      add\n        /* \"#utility.yul\":2255:2317   */\n      mstore\n        /* \"#utility.yul\":2334:2352   */\n      0x64\n      add\n        /* \"@openzeppelin/contracts/access/Ownable.sol\":1240:1308  require(owner() == _msgSender(), \"Ownable: caller is not the owner\") */\n      tag_85\n        /* \"#utility.yul\":2002:2358   */\n      jump\n        /* \"@openzeppelin/contracts/access/Ownable.sol\":1240:1308  require(owner() == _msgSender(), \"Ownable: caller is not the owner\") */\n    tag_127:\n        /* \"contracts/Whitelist-2.0.sol\":4116:4125  uint256 i */\n      0x00\n        /* \"contracts/Whitelist-2.0.sol\":4111:4217  for (uint256 i = 0; i < users.length; i = _unsafeInc(i)) {... */\n    tag_130:\n        /* \"contracts/Whitelist-2.0.sol\":4131:4147  i < users.length */\n      dup2\n      dup2\n      lt\n        /* \"contracts/Whitelist-2.0.sol\":4111:4217  for (uint256 i = 0; i < users.length; i = _unsafeInc(i)) {... */\n      iszero\n      tag_89\n      jumpi\n        /* \"contracts/Whitelist-2.0.sol\":4183:4205  _delete(users[i].user) */\n      tag_133\n        /* \"contracts/Whitelist-2.0.sol\":4191:4196  users */\n      dup4\n      dup4\n        /* \"contracts/Whitelist-2.0.sol\":4197:4198  i */\n      dup4\n        /* \"contracts/Whitelist-2.0.sol\":4191:4199  users[i] */\n      dup2\n      dup2\n      lt\n      tag_135\n      jumpi\n      tag_135\n      tag_94\n      jump\t// in\n    tag_135:\n        /* \"contracts/Whitelist-2.0.sol\":4191:4204  users[i].user */\n      tag_136\n      swap3\n      0x20\n        /* \"contracts/Whitelist-2.0.sol\":4191:4199  users[i] */\n      0x40\n      swap1\n      swap3\n      mul\n      add\n        /* \"contracts/Whitelist-2.0.sol\":4191:4204  users[i].user */\n      swap1\n      dup2\n      add\n      swap2\n      pop\n      tag_39\n      jump\t// in\n    tag_136:\n      sub(shl(0xa0, 0x01), 0x01)\n        /* \"contracts/Whitelist-2.0.sol\":3745:3763  _beneficiary[user] */\n      and\n      0x00\n      swap1\n      dup2\n      mstore\n        /* \"contracts/Whitelist-2.0.sol\":3745:3757  _beneficiary */\n      0x03\n        /* \"contracts/Whitelist-2.0.sol\":3745:3763  _beneficiary[user] */\n      0x20\n      mstore\n      0x40\n      dup2\n      keccak256\n        /* \"contracts/Whitelist-2.0.sol\":3738:3763  delete _beneficiary[user] */\n      sstore\n        /* \"contracts/Whitelist-2.0.sol\":3687:3771  function _delete(address user) internal {... */\n      jump\n        /* \"contracts/Whitelist-2.0.sol\":4183:4205  _delete(users[i].user) */\n    tag_133:\n        /* \"contracts/Whitelist-2.0.sol\":3421:3422  1 */\n      0x01\n        /* \"contracts/Whitelist-2.0.sol\":3417:3422  x + 1 */\n      add\n        /* \"contracts/Whitelist-2.0.sol\":4111:4217  for (uint256 i = 0; i < users.length; i = _unsafeInc(i)) {... */\n      jump(tag_130)\n        /* \"@openzeppelin/contracts/access/Ownable.sol\":1918:2116  function transferOwnership(address newOwner) public virtual onlyOwner {... */\n    tag_68:\n        /* \"@openzeppelin/contracts/access/Ownable.sol\":1082:1089  address */\n      0x00\n        /* \"@openzeppelin/contracts/access/Ownable.sol\":1108:1114  _owner */\n      sload\n      sub(shl(0xa0, 0x01), 0x01)\n      and\n        /* \"@openzeppelin/contracts/utils/Context.sol\":719:729  msg.sender */\n      caller\n        /* \"@openzeppelin/contracts/access/Ownable.sol\":1248:1271  owner() == _msgSender() */\n      eq\n        /* \"@openzeppelin/contracts/access/Ownable.sol\":1240:1308  require(owner() == _msgSender(), \"Ownable: caller is not the owner\") */\n      tag_142\n      jumpi\n      mload(0x40)\n      shl(0xe5, 0x461bcd)\n      dup2\n      mstore\n        /* \"#utility.yul\":2204:2206   */\n      0x20\n        /* \"@openzeppelin/contracts/access/Ownable.sol\":1240:1308  require(owner() == _msgSender(), \"Ownable: caller is not the owner\") */\n      0x04\n      dup3\n      add\n        /* \"#utility.yul\":2186:2207   */\n      dup2\n      swap1\n      mstore\n        /* \"#utility.yul\":2223:2241   */\n      0x24\n      dup3\n      add\n        /* \"#utility.yul\":2216:2246   */\n      mstore\n        /* \"#utility.yul\":2282:2316   */\n      0x4f776e61626c653a2063616c6c6572206973206e6f7420746865206f776e6572\n        /* \"#utility.yul\":2262:2280   */\n      0x44\n      dup3\n      add\n        /* \"#utility.yul\":2255:2317   */\n      mstore\n        /* \"#utility.yul\":2334:2352   */\n      0x64\n      add\n        /* \"@openzeppelin/contracts/access/Ownable.sol\":1240:1308  require(owner() == _msgSender(), \"Ownable: caller is not the owner\") */\n      tag_85\n        /* \"#utility.yul\":2002:2358   */\n      jump\n        /* \"@openzeppelin/contracts/access/Ownable.sol\":1240:1308  require(owner() == _msgSender(), \"Ownable: caller is not the owner\") */\n    tag_142:\n      sub(shl(0xa0, 0x01), 0x01)\n        /* \"@openzeppelin/contracts/access/Ownable.sol\":2006:2028  newOwner != address(0) */\n      dup2\n      and\n        /* \"@openzeppelin/contracts/access/Ownable.sol\":1998:2071  require(newOwner != address(0), \"Ownable: new owner is the zero address\") */\n      tag_145\n      jumpi\n      mload(0x40)\n      shl(0xe5, 0x461bcd)\n      dup2\n      mstore\n        /* \"#utility.yul\":2884:2886   */\n      0x20\n        /* \"@openzeppelin/contracts/access/Ownable.sol\":1998:2071  require(newOwner != address(0), \"Ownable: new owner is the zero address\") */\n      0x04\n      dup3\n      add\n        /* \"#utility.yul\":2866:2887   */\n      mstore\n        /* \"#utility.yul\":2923:2925   */\n      0x26\n        /* \"#utility.yul\":2903:2921   */\n      0x24\n      dup3\n      add\n        /* \"#utility.yul\":2896:2926   */\n      mstore\n        /* \"#utility.yul\":2962:2996   */\n      0x4f776e61626c653a206e6577206f776e657220697320746865207a65726f2061\n        /* \"#utility.yul\":2942:2960   */\n      0x44\n      dup3\n      add\n        /* \"#utility.yul\":2935:2997   */\n      mstore\n        /* \"#utility.yul\":3033:3041   */\n      0x6464726573730000000000000000000000000000000000000000000000000000\n        /* \"#utility.yul\":3013:3031   */\n      0x64\n      dup3\n      add\n        /* \"#utility.yul\":3006:3042   */\n      mstore\n        /* \"#utility.yul\":3059:3078   */\n      0x84\n      add\n        /* \"@openzeppelin/contracts/access/Ownable.sol\":1998:2071  require(newOwner != address(0), \"Ownable: new owner is the zero address\") */\n      tag_85\n        /* \"#utility.yul\":2682:3084   */\n      jump\n        /* \"@openzeppelin/contracts/access/Ownable.sol\":1998:2071  require(newOwner != address(0), \"Ownable: new owner is the zero address\") */\n    tag_145:\n        /* \"@openzeppelin/contracts/access/Ownable.sol\":2081:2109  _transferOwnership(newOwner) */\n      tag_119\n        /* \"@openzeppelin/contracts/access/Ownable.sol\":2100:2108  newOwner */\n      dup2\n        /* \"@openzeppelin/contracts/access/Ownable.sol\":2081:2099  _transferOwnership */\n      tag_108\n        /* \"@openzeppelin/contracts/access/Ownable.sol\":2081:2109  _transferOwnership(newOwner) */\n      jump\t// in\n        /* \"contracts/Whitelist-2.0.sol\":2799:2935  function releasable() public view virtual returns (uint256) {... */\n    tag_71:\n        /* \"contracts/Whitelist-2.0.sol\":2620:2626  _token */\n      and(sub(shl(0xa0, 0x01), 0x01), sload(0x01))\n        /* \"contracts/Whitelist-2.0.sol\":2850:2857  uint256 */\n      0x00\n        /* \"contracts/Whitelist-2.0.sol\":2605:2627  _erc20Released[_token] */\n      swap1\n      dup2\n      mstore\n        /* \"contracts/Whitelist-2.0.sol\":2605:2619  _erc20Released */\n      0x02\n        /* \"contracts/Whitelist-2.0.sol\":2605:2627  _erc20Released[_token] */\n      0x20\n      swap1\n      dup2\n      mstore\n      0x40\n      dup1\n      dup4\n      keccak256\n        /* \"contracts/Whitelist-2.0.sol\":2628:2638  msg.sender */\n      caller\n        /* \"contracts/Whitelist-2.0.sol\":2605:2639  _erc20Released[_token][msg.sender] */\n      dup5\n      mstore\n      swap1\n      swap2\n      mstore\n      dup2\n      keccak256\n      sload\n        /* \"contracts/Whitelist-2.0.sol\":2877:2914  vestedAmount(uint64(block.timestamp)) */\n      tag_151\n        /* \"contracts/Whitelist-2.0.sol\":2897:2912  block.timestamp */\n      timestamp\n        /* \"contracts/Whitelist-2.0.sol\":2877:2889  vestedAmount */\n      tag_24\n        /* \"contracts/Whitelist-2.0.sol\":2877:2914  vestedAmount(uint64(block.timestamp)) */\n      jump\t// in\n    tag_151:\n        /* \"contracts/Whitelist-2.0.sol\":2877:2927  vestedAmount(uint64(block.timestamp)) - released() */\n      tag_152\n      swap2\n      swap1\n      tag_116\n      jump\t// in\n    tag_152:\n        /* \"contracts/Whitelist-2.0.sol\":2870:2927  return vestedAmount(uint64(block.timestamp)) - released() */\n      swap1\n      pop\n        /* \"contracts/Whitelist-2.0.sol\":2799:2935  function releasable() public view virtual returns (uint256) {... */\n      swap1\n      jump\t// out\n        /* \"contracts/Whitelist-2.0.sol\":5863:6278  function _vestingSchedule(uint256 totalAllocation, uint64 timestamp)... */\n    tag_78:\n        /* \"contracts/Whitelist-2.0.sol\":5999:6006  uint256 */\n      0x00\n        /* \"contracts/Whitelist-2.0.sol\":2278:2284  _start */\n      immutable(\"0xb0c7bc42bdbc6fc210fecd6a5f5b923061cceb0f8ca5c7d964d5c22fc0e4b0b6\")\n        /* \"contracts/Whitelist-2.0.sol\":2271:2284  return _start */\n      0xffffffffffffffff\n      and\n        /* \"contracts/Whitelist-2.0.sol\":6028:6037  timestamp */\n      dup3\n        /* \"contracts/Whitelist-2.0.sol\":6028:6047  timestamp < start() */\n      0xffffffffffffffff\n      and\n      lt\n        /* \"contracts/Whitelist-2.0.sol\":6024:6271  if (timestamp < start()) {... */\n      iszero\n      tag_155\n      jumpi\n      pop\n        /* \"contracts/Whitelist-2.0.sol\":6071:6072  0 */\n      0x00\n        /* \"contracts/Whitelist-2.0.sol\":6064:6072  return 0 */\n      jump(tag_74)\n        /* \"contracts/Whitelist-2.0.sol\":6024:6271  if (timestamp < start()) {... */\n    tag_155:\n        /* \"contracts/Whitelist-2.0.sol\":6106:6126  start() + duration() */\n      tag_159\n        /* \"contracts/Whitelist-2.0.sol\":2433:2449  return _duration */\n      0xffffffffffffffff\n        /* \"contracts/Whitelist-2.0.sol\":2440:2449  _duration */\n      immutable(\"0x9b0d5a2681b52b4560ba0a55dc00d44d52ed130b12e9b1ecacbe9f4e75788d40\")\n        /* \"contracts/Whitelist-2.0.sol\":2433:2449  return _duration */\n      dup2\n      and\n      swap1\n        /* \"contracts/Whitelist-2.0.sol\":2278:2284  _start */\n      immutable(\"0xb0c7bc42bdbc6fc210fecd6a5f5b923061cceb0f8ca5c7d964d5c22fc0e4b0b6\")\n        /* \"contracts/Whitelist-2.0.sol\":2271:2284  return _start */\n      and\n        /* \"contracts/Whitelist-2.0.sol\":6106:6126  start() + duration() */\n      tag_77\n      jump\t// in\n    tag_159:\n        /* \"contracts/Whitelist-2.0.sol\":6094:6103  timestamp */\n      dup3\n        /* \"contracts/Whitelist-2.0.sol\":6094:6126  timestamp > start() + duration() */\n      0xffffffffffffffff\n      and\n      gt\n        /* \"contracts/Whitelist-2.0.sol\":6090:6271  if (timestamp > start() + duration()) {... */\n      iszero\n      tag_160\n      jumpi\n      pop\n        /* \"contracts/Whitelist-2.0.sol\":6150:6165  totalAllocation */\n      dup2\n        /* \"contracts/Whitelist-2.0.sol\":6143:6165  return totalAllocation */\n      jump(tag_74)\n        /* \"contracts/Whitelist-2.0.sol\":6090:6271  if (timestamp > start() + duration()) {... */\n    tag_160:\n        /* \"contracts/Whitelist-2.0.sol\":2440:2449  _duration */\n      immutable(\"0x9b0d5a2681b52b4560ba0a55dc00d44d52ed130b12e9b1ecacbe9f4e75788d40\")\n        /* \"contracts/Whitelist-2.0.sol\":2433:2449  return _duration */\n      0xffffffffffffffff\n      and\n        /* \"contracts/Whitelist-2.0.sol\":2278:2284  _start */\n      immutable(\"0xb0c7bc42bdbc6fc210fecd6a5f5b923061cceb0f8ca5c7d964d5c22fc0e4b0b6\")\n        /* \"contracts/Whitelist-2.0.sol\":2271:2284  return _start */\n      0xffffffffffffffff\n      and\n        /* \"contracts/Whitelist-2.0.sol\":6225:6244  timestamp - start() */\n      tag_164\n      swap1\n      0xffffffffffffffff\n      dup6\n      and\n      tag_116\n      jump\t// in\n    tag_164:\n        /* \"contracts/Whitelist-2.0.sol\":6206:6245  totalAllocation * (timestamp - start()) */\n      tag_165\n      swap1\n        /* \"contracts/Whitelist-2.0.sol\":6206:6221  totalAllocation */\n      dup6\n        /* \"contracts/Whitelist-2.0.sol\":6206:6245  totalAllocation * (timestamp - start()) */\n      tag_166\n      jump\t// in\n    tag_165:\n        /* \"contracts/Whitelist-2.0.sol\":6205:6259  (totalAllocation * (timestamp - start())) / duration() */\n      tag_167\n      swap2\n      swap1\n      tag_168\n      jump\t// in\n    tag_167:\n        /* \"contracts/Whitelist-2.0.sol\":6198:6259  return (totalAllocation * (timestamp - start())) / duration() */\n      swap4\n        /* \"contracts/Whitelist-2.0.sol\":5863:6278  function _vestingSchedule(uint256 totalAllocation, uint64 timestamp)... */\n      swap3\n      pop\n      pop\n      pop\n      jump\t// out\n        /* \"contracts/Whitelist-2.0.sol\":3510:3611  function _vest(address user, uint256 amount) internal {... */\n    tag_98:\n      sub(shl(0xa0, 0x01), 0x01)\n        /* \"contracts/Whitelist-2.0.sol\":3575:3593  _beneficiary[user] */\n      dup3\n      and\n      0x00\n      swap1\n      dup2\n      mstore\n        /* \"contracts/Whitelist-2.0.sol\":3575:3587  _beneficiary */\n      0x03\n        /* \"contracts/Whitelist-2.0.sol\":3575:3593  _beneficiary[user] */\n      0x20\n      mstore\n      0x40\n      dup2\n      keccak256\n        /* \"contracts/Whitelist-2.0.sol\":3575:3603  _beneficiary[user] += amount */\n      dup1\n      sload\n        /* \"contracts/Whitelist-2.0.sol\":3597:3603  amount */\n      dup4\n      swap3\n        /* \"contracts/Whitelist-2.0.sol\":3575:3593  _beneficiary[user] */\n      swap1\n        /* \"contracts/Whitelist-2.0.sol\":3575:3603  _beneficiary[user] += amount */\n      tag_171\n      swap1\n        /* \"contracts/Whitelist-2.0.sol\":3597:3603  amount */\n      dup5\n      swap1\n        /* \"contracts/Whitelist-2.0.sol\":3575:3603  _beneficiary[user] += amount */\n      tag_77\n      jump\t// in\n    tag_171:\n      swap1\n      swap2\n      sstore\n      pop\n      pop\n      pop\n      pop\n        /* \"contracts/Whitelist-2.0.sol\":3510:3611  function _vest(address user, uint256 amount) internal {... */\n      jump\t// out\n        /* \"@openzeppelin/contracts/access/Ownable.sol\":2270:2457  function _transferOwnership(address newOwner) internal virtual {... */\n    tag_108:\n        /* \"@openzeppelin/contracts/access/Ownable.sol\":2343:2359  address oldOwner */\n      0x00\n        /* \"@openzeppelin/contracts/access/Ownable.sol\":2362:2368  _owner */\n      dup1\n      sload\n      sub(shl(0xa0, 0x01), 0x01)\n        /* \"@openzeppelin/contracts/access/Ownable.sol\":2378:2395  _owner = newOwner */\n      dup4\n      dup2\n      and\n      0xffffffffffffffffffffffff0000000000000000000000000000000000000000\n      dup4\n      and\n      dup2\n      or\n      dup5\n      sstore\n        /* \"@openzeppelin/contracts/access/Ownable.sol\":2410:2450  OwnershipTransferred(oldOwner, newOwner) */\n      mload(0x40)\n        /* \"@openzeppelin/contracts/access/Ownable.sol\":2362:2368  _owner */\n      swap2\n      swap1\n      swap3\n      and\n      swap3\n      dup4\n      swap2\n        /* \"@openzeppelin/contracts/access/Ownable.sol\":2410:2450  OwnershipTransferred(oldOwner, newOwner) */\n      0x8be0079c531659141344cd1fd0a4f28419497f9722a3daafe3b4186f6b6457e0\n      swap2\n        /* \"@openzeppelin/contracts/access/Ownable.sol\":2343:2359  address oldOwner */\n      swap1\n        /* \"@openzeppelin/contracts/access/Ownable.sol\":2410:2450  OwnershipTransferred(oldOwner, newOwner) */\n      log3\n        /* \"@openzeppelin/contracts/access/Ownable.sol\":2333:2457  {... */\n      pop\n        /* \"@openzeppelin/contracts/access/Ownable.sol\":2270:2457  function _transferOwnership(address newOwner) internal virtual {... */\n      pop\n      jump\t// out\n        /* \"contracts/Whitelist-2.0.sol\":3036:3166  function _currentMonth() internal view returns (uint256) {... */\n    tag_112:\n        /* \"contracts/Whitelist-2.0.sol\":3084:3091  uint256 */\n      0x00\n        /* \"contracts/Whitelist-2.0.sol\":3149:3158  1 minutes */\n      0x3c\n        /* \"contracts/Whitelist-2.0.sol\":2278:2284  _start */\n      immutable(\"0xb0c7bc42bdbc6fc210fecd6a5f5b923061cceb0f8ca5c7d964d5c22fc0e4b0b6\")\n        /* \"contracts/Whitelist-2.0.sol\":2271:2284  return _start */\n      0xffffffffffffffff\n      and\n        /* \"contracts/Whitelist-2.0.sol\":3112:3145  uint64(block.timestamp) - start() */\n      tag_176\n      swap1\n      0xffffffffffffffff\n        /* \"contracts/Whitelist-2.0.sol\":3119:3134  block.timestamp */\n      timestamp\n        /* \"contracts/Whitelist-2.0.sol\":3112:3145  uint64(block.timestamp) - start() */\n      and\n      tag_116\n      jump\t// in\n    tag_176:\n        /* \"contracts/Whitelist-2.0.sol\":3111:3158  (uint64(block.timestamp) - start()) / 1 minutes */\n      tag_152\n      swap2\n      swap1\n      tag_168\n      jump\t// in\n        /* \"@openzeppelin/contracts/token/ERC20/utils/SafeERC20.sol\":701:906  function safeTransfer(... */\n    tag_120:\n        /* \"@openzeppelin/contracts/token/ERC20/utils/SafeERC20.sol\":840:898  abi.encodeWithSelector(token.transfer.selector, to, value) */\n      0x40\n      dup1\n      mload\n      sub(shl(0xa0, 0x01), 0x01)\n        /* \"#utility.yul\":3733:3788   */\n      dup5\n      dup2\n      and\n        /* \"@openzeppelin/contracts/token/ERC20/utils/SafeERC20.sol\":840:898  abi.encodeWithSelector(token.transfer.selector, to, value) */\n      0x24\n      dup4\n      add\n        /* \"#utility.yul\":3715:3789   */\n      mstore\n        /* \"#utility.yul\":3805:3823   */\n      0x44\n      dup1\n      dup4\n      add\n        /* \"#utility.yul\":3798:3832   */\n      dup6\n      swap1\n      mstore\n        /* \"@openzeppelin/contracts/token/ERC20/utils/SafeERC20.sol\":840:898  abi.encodeWithSelector(token.transfer.selector, to, value) */\n      dup4\n      mload\n      dup1\n      dup5\n      sub\n      swap1\n      swap2\n      add\n      dup2\n      mstore\n        /* \"#utility.yul\":3688:3706   */\n      0x64\n      swap1\n      swap3\n      add\n        /* \"@openzeppelin/contracts/token/ERC20/utils/SafeERC20.sol\":840:898  abi.encodeWithSelector(token.transfer.selector, to, value) */\n      dup4\n      mstore\n      0x20\n      dup1\n      dup4\n      add\n      dup1\n      mload\n      0xffffffffffffffffffffffffffffffffffffffffffffffffffffffff\n      and\n        /* \"@openzeppelin/contracts/token/ERC20/utils/SafeERC20.sol\":863:886  token.transfer.selector */\n      0xa9059cbb00000000000000000000000000000000000000000000000000000000\n        /* \"@openzeppelin/contracts/token/ERC20/utils/SafeERC20.sol\":840:898  abi.encodeWithSelector(token.transfer.selector, to, value) */\n      or\n      swap1\n      mstore\n        /* \"@openzeppelin/contracts/token/ERC20/utils/SafeERC20.sol\":3652:3721  address(token).functionCall(data, \"SafeERC20: low-level call failed\") */\n      dup4\n      mload\n      dup1\n      dup6\n      add\n      swap1\n      swap5\n      mstore\n      dup1\n      dup5\n      mstore\n      0x5361666545524332303a206c6f772d6c6576656c2063616c6c206661696c6564\n      swap1\n      dup5\n      add\n      mstore\n        /* \"@openzeppelin/contracts/token/ERC20/utils/SafeERC20.sol\":813:899  _callOptionalReturn(token, abi.encodeWithSelector(token.transfer.selector, to, value)) */\n      tag_89\n      swap3\n        /* \"@openzeppelin/contracts/token/ERC20/utils/SafeERC20.sol\":833:838  token */\n      dup7\n      swap3\n        /* \"@openzeppelin/contracts/token/ERC20/utils/SafeERC20.sol\":840:898  abi.encodeWithSelector(token.transfer.selector, to, value) */\n      swap2\n      0x00\n      swap2\n        /* \"@openzeppelin/contracts/token/ERC20/utils/SafeERC20.sol\":3652:3721  address(token).functionCall(data, \"SafeERC20: low-level call failed\") */\n      tag_185\n      swap2\n        /* \"@openzeppelin/contracts/token/ERC20/utils/SafeERC20.sol\":3652:3679  address(token).functionCall */\n      dup6\n      and\n      swap1\n        /* \"@openzeppelin/contracts/token/ERC20/utils/SafeERC20.sol\":840:898  abi.encodeWithSelector(token.transfer.selector, to, value) */\n      dup5\n      swap1\n        /* \"@openzeppelin/contracts/token/ERC20/utils/SafeERC20.sol\":3652:3679  address(token).functionCall */\n      tag_186\n        /* \"@openzeppelin/contracts/token/ERC20/utils/SafeERC20.sol\":3652:3721  address(token).functionCall(data, \"SafeERC20: low-level call failed\") */\n      jump\t// in\n    tag_185:\n        /* \"@openzeppelin/contracts/token/ERC20/utils/SafeERC20.sol\":3735:3752  returndata.length */\n      dup1\n      mload\n        /* \"@openzeppelin/contracts/token/ERC20/utils/SafeERC20.sol\":3626:3721  bytes memory returndata = address(token).functionCall(data, \"SafeERC20: low-level call failed\") */\n      swap1\n      swap2\n      pop\n        /* \"@openzeppelin/contracts/token/ERC20/utils/SafeERC20.sol\":3735:3756  returndata.length > 0 */\n      iszero\n        /* \"@openzeppelin/contracts/token/ERC20/utils/SafeERC20.sol\":3731:3907  if (returndata.length > 0) {... */\n      tag_89\n      jumpi\n        /* \"@openzeppelin/contracts/token/ERC20/utils/SafeERC20.sol\":3830:3840  returndata */\n      dup1\n        /* \"@openzeppelin/contracts/token/ERC20/utils/SafeERC20.sol\":3819:3849  abi.decode(returndata, (bool)) */\n      dup1\n      0x20\n      add\n      swap1\n      mload\n      dup2\n      add\n      swap1\n      tag_188\n      swap2\n      swap1\n      tag_189\n      jump\t// in\n    tag_188:\n        /* \"@openzeppelin/contracts/token/ERC20/utils/SafeERC20.sol\":3811:3896  require(abi.decode(returndata, (bool)), \"SafeERC20: ERC20 operation did not succeed\") */\n      tag_89\n      jumpi\n      mload(0x40)\n      shl(0xe5, 0x461bcd)\n      dup2\n      mstore\n        /* \"#utility.yul\":4327:4329   */\n      0x20\n        /* \"@openzeppelin/contracts/token/ERC20/utils/SafeERC20.sol\":3811:3896  require(abi.decode(returndata, (bool)), \"SafeERC20: ERC20 operation did not succeed\") */\n      0x04\n      dup3\n      add\n        /* \"#utility.yul\":4309:4330   */\n      mstore\n        /* \"#utility.yul\":4366:4368   */\n      0x2a\n        /* \"#utility.yul\":4346:4364   */\n      0x24\n      dup3\n      add\n        /* \"#utility.yul\":4339:4369   */\n      mstore\n        /* \"#utility.yul\":4405:4439   */\n      0x5361666545524332303a204552433230206f7065726174696f6e20646964206e\n        /* \"#utility.yul\":4385:4403   */\n      0x44\n      dup3\n      add\n        /* \"#utility.yul\":4378:4440   */\n      mstore\n        /* \"#utility.yul\":4476:4488   */\n      0x6f74207375636365656400000000000000000000000000000000000000000000\n        /* \"#utility.yul\":4456:4474   */\n      0x64\n      dup3\n      add\n        /* \"#utility.yul\":4449:4489   */\n      mstore\n        /* \"#utility.yul\":4506:4525   */\n      0x84\n      add\n        /* \"@openzeppelin/contracts/token/ERC20/utils/SafeERC20.sol\":3811:3896  require(abi.decode(returndata, (bool)), \"SafeERC20: ERC20 operation did not succeed\") */\n      tag_85\n        /* \"#utility.yul\":4125:4531   */\n      jump\n        /* \"@openzeppelin/contracts/utils/Address.sol\":3861:4084  function functionCall(... */\n    tag_186:\n        /* \"@openzeppelin/contracts/utils/Address.sol\":3994:4006  bytes memory */\n      0x60\n        /* \"@openzeppelin/contracts/utils/Address.sol\":4025:4077  functionCallWithValue(target, data, 0, errorMessage) */\n      tag_194\n        /* \"@openzeppelin/contracts/utils/Address.sol\":4047:4053  target */\n      dup5\n        /* \"@openzeppelin/contracts/utils/Address.sol\":4055:4059  data */\n      dup5\n        /* \"@openzeppelin/contracts/utils/Address.sol\":4061:4062  0 */\n      0x00\n        /* \"@openzeppelin/contracts/utils/Address.sol\":4064:4076  errorMessage */\n      dup6\n        /* \"@openzeppelin/contracts/utils/Address.sol\":4025:4046  functionCallWithValue */\n      tag_195\n        /* \"@openzeppelin/contracts/utils/Address.sol\":4025:4077  functionCallWithValue(target, data, 0, errorMessage) */\n      jump\t// in\n    tag_194:\n        /* \"@openzeppelin/contracts/utils/Address.sol\":4018:4077  return functionCallWithValue(target, data, 0, errorMessage) */\n      swap5\n        /* \"@openzeppelin/contracts/utils/Address.sol\":3861:4084  function functionCall(... */\n      swap4\n      pop\n      pop\n      pop\n      pop\n      jump\t// out\n        /* \"@openzeppelin/contracts/utils/Address.sol\":4948:5447  function functionCallWithValue(... */\n    tag_195:\n        /* \"@openzeppelin/contracts/utils/Address.sol\":5113:5125  bytes memory */\n      0x60\n        /* \"@openzeppelin/contracts/utils/Address.sol\":5170:5175  value */\n      dup3\n        /* \"@openzeppelin/contracts/utils/Address.sol\":5145:5166  address(this).balance */\n      selfbalance\n        /* \"@openzeppelin/contracts/utils/Address.sol\":5145:5175  address(this).balance >= value */\n      lt\n      iszero\n        /* \"@openzeppelin/contracts/utils/Address.sol\":5137:5218  require(address(this).balance >= value, \"Address: insufficient balance for call\") */\n      tag_197\n      jumpi\n      mload(0x40)\n      shl(0xe5, 0x461bcd)\n      dup2\n      mstore\n        /* \"#utility.yul\":4738:4740   */\n      0x20\n        /* \"@openzeppelin/contracts/utils/Address.sol\":5137:5218  require(address(this).balance >= value, \"Address: insufficient balance for call\") */\n      0x04\n      dup3\n      add\n        /* \"#utility.yul\":4720:4741   */\n      mstore\n        /* \"#utility.yul\":4777:4779   */\n      0x26\n        /* \"#utility.yul\":4757:4775   */\n      0x24\n      dup3\n      add\n        /* \"#utility.yul\":4750:4780   */\n      mstore\n        /* \"#utility.yul\":4816:4850   */\n      0x416464726573733a20696e73756666696369656e742062616c616e636520666f\n        /* \"#utility.yul\":4796:4814   */\n      0x44\n      dup3\n      add\n        /* \"#utility.yul\":4789:4851   */\n      mstore\n        /* \"#utility.yul\":4887:4895   */\n      0x722063616c6c0000000000000000000000000000000000000000000000000000\n        /* \"#utility.yul\":4867:4885   */\n      0x64\n      dup3\n      add\n        /* \"#utility.yul\":4860:4896   */\n      mstore\n        /* \"#utility.yul\":4913:4932   */\n      0x84\n      add\n        /* \"@openzeppelin/contracts/utils/Address.sol\":5137:5218  require(address(this).balance >= value, \"Address: insufficient balance for call\") */\n      tag_85\n        /* \"#utility.yul\":4536:4938   */\n      jump\n        /* \"@openzeppelin/contracts/utils/Address.sol\":5137:5218  require(address(this).balance >= value, \"Address: insufficient balance for call\") */\n    tag_197:\n      sub(shl(0xa0, 0x01), 0x01)\n        /* \"@openzeppelin/contracts/utils/Address.sol\":1465:1484  account.code.length */\n      dup6\n      and\n      extcodesize\n        /* \"@openzeppelin/contracts/utils/Address.sol\":5228:5288  require(isContract(target), \"Address: call to non-contract\") */\n      tag_202\n      jumpi\n      mload(0x40)\n      shl(0xe5, 0x461bcd)\n      dup2\n      mstore\n        /* \"#utility.yul\":5145:5147   */\n      0x20\n        /* \"@openzeppelin/contracts/utils/Address.sol\":5228:5288  require(isContract(target), \"Address: call to non-contract\") */\n      0x04\n      dup3\n      add\n        /* \"#utility.yul\":5127:5148   */\n      mstore\n        /* \"#utility.yul\":5184:5186   */\n      0x1d\n        /* \"#utility.yul\":5164:5182   */\n      0x24\n      dup3\n      add\n        /* \"#utility.yul\":5157:5187   */\n      mstore\n        /* \"#utility.yul\":5223:5254   */\n      0x416464726573733a2063616c6c20746f206e6f6e2d636f6e7472616374000000\n        /* \"#utility.yul\":5203:5221   */\n      0x44\n      dup3\n      add\n        /* \"#utility.yul\":5196:5255   */\n      mstore\n        /* \"#utility.yul\":5272:5290   */\n      0x64\n      add\n        /* \"@openzeppelin/contracts/utils/Address.sol\":5228:5288  require(isContract(target), \"Address: call to non-contract\") */\n      tag_85\n        /* \"#utility.yul\":4943:5296   */\n      jump\n        /* \"@openzeppelin/contracts/utils/Address.sol\":5228:5288  require(isContract(target), \"Address: call to non-contract\") */\n    tag_202:\n        /* \"@openzeppelin/contracts/utils/Address.sol\":5300:5312  bool success */\n      0x00\n        /* \"@openzeppelin/contracts/utils/Address.sol\":5314:5337  bytes memory returndata */\n      dup1\n        /* \"@openzeppelin/contracts/utils/Address.sol\":5341:5347  target */\n      dup7\n      sub(shl(0xa0, 0x01), 0x01)\n        /* \"@openzeppelin/contracts/utils/Address.sol\":5341:5352  target.call */\n      and\n        /* \"@openzeppelin/contracts/utils/Address.sol\":5360:5365  value */\n      dup6\n        /* \"@openzeppelin/contracts/utils/Address.sol\":5367:5371  data */\n      dup8\n        /* \"@openzeppelin/contracts/utils/Address.sol\":5341:5372  target.call{value: value}(data) */\n      mload(0x40)\n      tag_205\n      swap2\n      swap1\n      tag_206\n      jump\t// in\n    tag_205:\n      0x00\n      mload(0x40)\n      dup1\n      dup4\n      sub\n      dup2\n      dup6\n      dup8\n      gas\n      call\n      swap3\n      pop\n      pop\n      pop\n      returndatasize\n      dup1\n      0x00\n      dup2\n      eq\n      tag_209\n      jumpi\n      mload(0x40)\n      swap2\n      pop\n      and(add(returndatasize, 0x3f), not(0x1f))\n      dup3\n      add\n      0x40\n      mstore\n      returndatasize\n      dup3\n      mstore\n      returndatasize\n      0x00\n      0x20\n      dup5\n      add\n      returndatacopy\n      jump(tag_208)\n    tag_209:\n      0x60\n      swap2\n      pop\n    tag_208:\n      pop\n        /* \"@openzeppelin/contracts/utils/Address.sol\":5299:5372  (bool success, bytes memory returndata) = target.call{value: value}(data) */\n      swap2\n      pop\n      swap2\n      pop\n        /* \"@openzeppelin/contracts/utils/Address.sol\":5389:5440  verifyCallResult(success, returndata, errorMessage) */\n      tag_210\n        /* \"@openzeppelin/contracts/utils/Address.sol\":5406:5413  success */\n      dup3\n        /* \"@openzeppelin/contracts/utils/Address.sol\":5415:5425  returndata */\n      dup3\n        /* \"@openzeppelin/contracts/utils/Address.sol\":5427:5439  errorMessage */\n      dup7\n        /* \"@openzeppelin/contracts/utils/Address.sol\":5389:5405  verifyCallResult */\n      tag_211\n        /* \"@openzeppelin/contracts/utils/Address.sol\":5389:5440  verifyCallResult(success, returndata, errorMessage) */\n      jump\t// in\n    tag_210:\n        /* \"@openzeppelin/contracts/utils/Address.sol\":5382:5440  return verifyCallResult(success, returndata, errorMessage) */\n      swap8\n        /* \"@openzeppelin/contracts/utils/Address.sol\":4948:5447  function functionCallWithValue(... */\n      swap7\n      pop\n      pop\n      pop\n      pop\n      pop\n      pop\n      pop\n      jump\t// out\n        /* \"@openzeppelin/contracts/utils/Address.sol\":7561:8253  function verifyCallResult(... */\n    tag_211:\n        /* \"@openzeppelin/contracts/utils/Address.sol\":7707:7719  bytes memory */\n      0x60\n        /* \"@openzeppelin/contracts/utils/Address.sol\":7735:7742  success */\n      dup4\n        /* \"@openzeppelin/contracts/utils/Address.sol\":7731:8247  if (success) {... */\n      iszero\n      tag_214\n      jumpi\n      pop\n        /* \"@openzeppelin/contracts/utils/Address.sol\":7765:7775  returndata */\n      dup2\n        /* \"@openzeppelin/contracts/utils/Address.sol\":7758:7775  return returndata */\n      jump(tag_167)\n        /* \"@openzeppelin/contracts/utils/Address.sol\":7731:8247  if (success) {... */\n    tag_214:\n        /* \"@openzeppelin/contracts/utils/Address.sol\":7876:7893  returndata.length */\n      dup3\n      mload\n        /* \"@openzeppelin/contracts/utils/Address.sol\":7876:7897  returndata.length > 0 */\n      iszero\n        /* \"@openzeppelin/contracts/utils/Address.sol\":7872:8237  if (returndata.length > 0) {... */\n      tag_216\n      jumpi\n        /* \"@openzeppelin/contracts/utils/Address.sol\":8070:8080  returndata */\n      dup3\n        /* \"@openzeppelin/contracts/utils/Address.sol\":8064:8081  mload(returndata) */\n      mload\n        /* \"@openzeppelin/contracts/utils/Address.sol\":8130:8145  returndata_size */\n      dup1\n        /* \"@openzeppelin/contracts/utils/Address.sol\":8117:8127  returndata */\n      dup5\n        /* \"@openzeppelin/contracts/utils/Address.sol\":8113:8115  32 */\n      0x20\n        /* \"@openzeppelin/contracts/utils/Address.sol\":8109:8128  add(32, returndata) */\n      add\n        /* \"@openzeppelin/contracts/utils/Address.sol\":8102:8146  revert(add(32, returndata), returndata_size) */\n      revert\n        /* \"@openzeppelin/contracts/utils/Address.sol\":7872:8237  if (returndata.length > 0) {... */\n    tag_216:\n        /* \"@openzeppelin/contracts/utils/Address.sol\":8209:8221  errorMessage */\n      dup2\n        /* \"@openzeppelin/contracts/utils/Address.sol\":8202:8222  revert(errorMessage) */\n      mload(0x40)\n      shl(0xe5, 0x461bcd)\n      dup2\n      mstore\n      0x04\n      add\n      tag_85\n      swap2\n      swap1\n      tag_219\n      jump\t// in\n        /* \"#utility.yul\":14:298   */\n    tag_23:\n        /* \"#utility.yul\":72:78   */\n      0x00\n        /* \"#utility.yul\":125:127   */\n      0x20\n        /* \"#utility.yul\":113:122   */\n      dup3\n        /* \"#utility.yul\":104:111   */\n      dup5\n        /* \"#utility.yul\":100:123   */\n      sub\n        /* \"#utility.yul\":96:128   */\n      slt\n        /* \"#utility.yul\":93:145   */\n      iszero\n      tag_224\n      jumpi\n        /* \"#utility.yul\":141:142   */\n      0x00\n        /* \"#utility.yul\":138:139   */\n      dup1\n        /* \"#utility.yul\":131:143   */\n      revert\n        /* \"#utility.yul\":93:145   */\n    tag_224:\n        /* \"#utility.yul\":180:189   */\n      dup2\n        /* \"#utility.yul\":167:190   */\n      calldataload\n        /* \"#utility.yul\":230:248   */\n      0xffffffffffffffff\n        /* \"#utility.yul\":223:228   */\n      dup2\n        /* \"#utility.yul\":219:249   */\n      and\n        /* \"#utility.yul\":212:217   */\n      dup2\n        /* \"#utility.yul\":209:250   */\n      eq\n        /* \"#utility.yul\":199:268   */\n      tag_167\n      jumpi\n        /* \"#utility.yul\":264:265   */\n      0x00\n        /* \"#utility.yul\":261:262   */\n      dup1\n        /* \"#utility.yul\":254:266   */\n      revert\n        /* \"#utility.yul\":485:1130   */\n    tag_34:\n        /* \"#utility.yul\":601:607   */\n      0x00\n        /* \"#utility.yul\":609:615   */\n      dup1\n        /* \"#utility.yul\":662:664   */\n      0x20\n        /* \"#utility.yul\":650:659   */\n      dup4\n        /* \"#utility.yul\":641:648   */\n      dup6\n        /* \"#utility.yul\":637:660   */\n      sub\n        /* \"#utility.yul\":633:665   */\n      slt\n        /* \"#utility.yul\":630:682   */\n      iszero\n      tag_228\n      jumpi\n        /* \"#utility.yul\":678:679   */\n      0x00\n        /* \"#utility.yul\":675:676   */\n      dup1\n        /* \"#utility.yul\":668:680   */\n      revert\n        /* \"#utility.yul\":630:682   */\n    tag_228:\n        /* \"#utility.yul\":718:727   */\n      dup3\n        /* \"#utility.yul\":705:728   */\n      calldataload\n        /* \"#utility.yul\":747:765   */\n      0xffffffffffffffff\n        /* \"#utility.yul\":788:790   */\n      dup1\n        /* \"#utility.yul\":780:786   */\n      dup3\n        /* \"#utility.yul\":777:791   */\n      gt\n        /* \"#utility.yul\":774:808   */\n      iszero\n      tag_229\n      jumpi\n        /* \"#utility.yul\":804:805   */\n      0x00\n        /* \"#utility.yul\":801:802   */\n      dup1\n        /* \"#utility.yul\":794:806   */\n      revert\n        /* \"#utility.yul\":774:808   */\n    tag_229:\n        /* \"#utility.yul\":842:848   */\n      dup2\n        /* \"#utility.yul\":831:840   */\n      dup6\n        /* \"#utility.yul\":827:849   */\n      add\n        /* \"#utility.yul\":817:849   */\n      swap2\n      pop\n        /* \"#utility.yul\":887:894   */\n      dup6\n        /* \"#utility.yul\":880:884   */\n      0x1f\n        /* \"#utility.yul\":876:878   */\n      dup4\n        /* \"#utility.yul\":872:885   */\n      add\n        /* \"#utility.yul\":868:895   */\n      slt\n        /* \"#utility.yul\":858:913   */\n      tag_230\n      jumpi\n        /* \"#utility.yul\":909:910   */\n      0x00\n        /* \"#utility.yul\":906:907   */\n      dup1\n        /* \"#utility.yul\":899:911   */\n      revert\n        /* \"#utility.yul\":858:913   */\n    tag_230:\n        /* \"#utility.yul\":949:951   */\n      dup2\n        /* \"#utility.yul\":936:952   */\n      calldataload\n        /* \"#utility.yul\":975:977   */\n      dup2\n        /* \"#utility.yul\":967:973   */\n      dup2\n        /* \"#utility.yul\":964:978   */\n      gt\n        /* \"#utility.yul\":961:995   */\n      iszero\n      tag_231\n      jumpi\n        /* \"#utility.yul\":991:992   */\n      0x00\n        /* \"#utility.yul\":988:989   */\n      dup1\n        /* \"#utility.yul\":981:993   */\n      revert\n        /* \"#utility.yul\":961:995   */\n    tag_231:\n        /* \"#utility.yul\":1044:1051   */\n      dup7\n        /* \"#utility.yul\":1039:1041   */\n      0x20\n        /* \"#utility.yul\":1029:1035   */\n      dup3\n        /* \"#utility.yul\":1026:1027   */\n      0x06\n        /* \"#utility.yul\":1022:1036   */\n      shl\n        /* \"#utility.yul\":1018:1020   */\n      dup6\n        /* \"#utility.yul\":1014:1037   */\n      add\n        /* \"#utility.yul\":1010:1042   */\n      add\n        /* \"#utility.yul\":1007:1052   */\n      gt\n        /* \"#utility.yul\":1004:1069   */\n      iszero\n      tag_232\n      jumpi\n        /* \"#utility.yul\":1065:1066   */\n      0x00\n        /* \"#utility.yul\":1062:1063   */\n      dup1\n        /* \"#utility.yul\":1055:1067   */\n      revert\n        /* \"#utility.yul\":1004:1069   */\n    tag_232:\n        /* \"#utility.yul\":1096:1098   */\n      0x20\n        /* \"#utility.yul\":1088:1099   */\n      swap3\n      swap1\n      swap3\n      add\n      swap7\n        /* \"#utility.yul\":1118:1124   */\n      swap2\n      swap6\n      pop\n        /* \"#utility.yul\":485:1130   */\n      swap1\n      swap4\n      pop\n      pop\n      pop\n      pop\n      jump\t// out\n        /* \"#utility.yul\":1135:1444   */\n    tag_39:\n        /* \"#utility.yul\":1194:1200   */\n      0x00\n        /* \"#utility.yul\":1247:1249   */\n      0x20\n        /* \"#utility.yul\":1235:1244   */\n      dup3\n        /* \"#utility.yul\":1226:1233   */\n      dup5\n        /* \"#utility.yul\":1222:1245   */\n      sub\n        /* \"#utility.yul\":1218:1250   */\n      slt\n        /* \"#utility.yul\":1215:1267   */\n      iszero\n      tag_234\n      jumpi\n        /* \"#utility.yul\":1263:1264   */\n      0x00\n        /* \"#utility.yul\":1260:1261   */\n      dup1\n        /* \"#utility.yul\":1253:1265   */\n      revert\n        /* \"#utility.yul\":1215:1267   */\n    tag_234:\n        /* \"#utility.yul\":1302:1311   */\n      dup2\n        /* \"#utility.yul\":1289:1312   */\n      calldataload\n      sub(shl(0xa0, 0x01), 0x01)\n        /* \"#utility.yul\":1345:1350   */\n      dup2\n        /* \"#utility.yul\":1341:1395   */\n      and\n        /* \"#utility.yul\":1334:1339   */\n      dup2\n        /* \"#utility.yul\":1331:1396   */\n      eq\n        /* \"#utility.yul\":1321:1414   */\n      tag_167\n      jumpi\n        /* \"#utility.yul\":1410:1411   */\n      0x00\n        /* \"#utility.yul\":1407:1408   */\n      dup1\n        /* \"#utility.yul\":1400:1412   */\n      revert\n        /* \"#utility.yul\":1680:1864   */\n    tag_220:\n      shl(0xe0, 0x4e487b71)\n        /* \"#utility.yul\":1729:1730   */\n      0x00\n        /* \"#utility.yul\":1722:1810   */\n      mstore\n        /* \"#utility.yul\":1829:1833   */\n      0x11\n        /* \"#utility.yul\":1826:1827   */\n      0x04\n        /* \"#utility.yul\":1819:1834   */\n      mstore\n        /* \"#utility.yul\":1853:1857   */\n      0x24\n        /* \"#utility.yul\":1850:1851   */\n      0x00\n        /* \"#utility.yul\":1843:1858   */\n      revert\n        /* \"#utility.yul\":1869:1997   */\n    tag_77:\n        /* \"#utility.yul\":1909:1912   */\n      0x00\n        /* \"#utility.yul\":1940:1941   */\n      dup3\n        /* \"#utility.yul\":1936:1942   */\n      not\n        /* \"#utility.yul\":1933:1934   */\n      dup3\n        /* \"#utility.yul\":1930:1943   */\n      gt\n        /* \"#utility.yul\":1927:1966   */\n      iszero\n      tag_240\n      jumpi\n        /* \"#utility.yul\":1946:1964   */\n      tag_240\n      tag_220\n      jump\t// in\n    tag_240:\n      pop\n        /* \"#utility.yul\":1982:1991   */\n      add\n      swap1\n        /* \"#utility.yul\":1869:1997   */\n      jump\t// out\n        /* \"#utility.yul\":2363:2547   */\n    tag_94:\n      shl(0xe0, 0x4e487b71)\n        /* \"#utility.yul\":2412:2413   */\n      0x00\n        /* \"#utility.yul\":2405:2493   */\n      mstore\n        /* \"#utility.yul\":2512:2516   */\n      0x32\n        /* \"#utility.yul\":2509:2510   */\n      0x04\n        /* \"#utility.yul\":2502:2517   */\n      mstore\n        /* \"#utility.yul\":2536:2540   */\n      0x24\n        /* \"#utility.yul\":2533:2534   */\n      0x00\n        /* \"#utility.yul\":2526:2541   */\n      revert\n        /* \"#utility.yul\":2552:2677   */\n    tag_116:\n        /* \"#utility.yul\":2592:2596   */\n      0x00\n        /* \"#utility.yul\":2620:2621   */\n      dup3\n        /* \"#utility.yul\":2617:2618   */\n      dup3\n        /* \"#utility.yul\":2614:2622   */\n      lt\n        /* \"#utility.yul\":2611:2645   */\n      iszero\n      tag_245\n      jumpi\n        /* \"#utility.yul\":2625:2643   */\n      tag_245\n      tag_220\n      jump\t// in\n    tag_245:\n      pop\n        /* \"#utility.yul\":2662:2671   */\n      sub\n      swap1\n        /* \"#utility.yul\":2552:2677   */\n      jump\t// out\n        /* \"#utility.yul\":3089:3257   */\n    tag_166:\n        /* \"#utility.yul\":3129:3136   */\n      0x00\n        /* \"#utility.yul\":3195:3196   */\n      dup2\n        /* \"#utility.yul\":3191:3192   */\n      0x00\n        /* \"#utility.yul\":3187:3193   */\n      not\n        /* \"#utility.yul\":3183:3197   */\n      div\n        /* \"#utility.yul\":3180:3181   */\n      dup4\n        /* \"#utility.yul\":3177:3198   */\n      gt\n        /* \"#utility.yul\":3172:3173   */\n      dup3\n        /* \"#utility.yul\":3165:3174   */\n      iszero\n        /* \"#utility.yul\":3158:3175   */\n      iszero\n        /* \"#utility.yul\":3154:3199   */\n      and\n        /* \"#utility.yul\":3151:3222   */\n      iszero\n      tag_249\n      jumpi\n        /* \"#utility.yul\":3202:3220   */\n      tag_249\n      tag_220\n      jump\t// in\n    tag_249:\n      pop\n        /* \"#utility.yul\":3242:3251   */\n      mul\n      swap1\n        /* \"#utility.yul\":3089:3257   */\n      jump\t// out\n        /* \"#utility.yul\":3262:3536   */\n    tag_168:\n        /* \"#utility.yul\":3302:3303   */\n      0x00\n        /* \"#utility.yul\":3328:3329   */\n      dup3\n        /* \"#utility.yul\":3318:3507   */\n      tag_251\n      jumpi\n      shl(0xe0, 0x4e487b71)\n        /* \"#utility.yul\":3360:3361   */\n      0x00\n        /* \"#utility.yul\":3353:3441   */\n      mstore\n        /* \"#utility.yul\":3464:3468   */\n      0x12\n        /* \"#utility.yul\":3461:3462   */\n      0x04\n        /* \"#utility.yul\":3454:3469   */\n      mstore\n        /* \"#utility.yul\":3492:3496   */\n      0x24\n        /* \"#utility.yul\":3489:3490   */\n      0x00\n        /* \"#utility.yul\":3482:3497   */\n      revert\n        /* \"#utility.yul\":3318:3507   */\n    tag_251:\n      pop\n        /* \"#utility.yul\":3521:3530   */\n      div\n      swap1\n        /* \"#utility.yul\":3262:3536   */\n      jump\t// out\n        /* \"#utility.yul\":3843:4120   */\n    tag_189:\n        /* \"#utility.yul\":3910:3916   */\n      0x00\n        /* \"#utility.yul\":3963:3965   */\n      0x20\n        /* \"#utility.yul\":3951:3960   */\n      dup3\n        /* \"#utility.yul\":3942:3949   */\n      dup5\n        /* \"#utility.yul\":3938:3961   */\n      sub\n        /* \"#utility.yul\":3934:3966   */\n      slt\n        /* \"#utility.yul\":3931:3983   */\n      iszero\n      tag_254\n      jumpi\n        /* \"#utility.yul\":3979:3980   */\n      0x00\n        /* \"#utility.yul\":3976:3977   */\n      dup1\n        /* \"#utility.yul\":3969:3981   */\n      revert\n        /* \"#utility.yul\":3931:3983   */\n    tag_254:\n        /* \"#utility.yul\":4011:4020   */\n      dup2\n        /* \"#utility.yul\":4005:4021   */\n      mload\n        /* \"#utility.yul\":4064:4069   */\n      dup1\n        /* \"#utility.yul\":4057:4070   */\n      iszero\n        /* \"#utility.yul\":4050:4071   */\n      iszero\n        /* \"#utility.yul\":4043:4048   */\n      dup2\n        /* \"#utility.yul\":4040:4072   */\n      eq\n        /* \"#utility.yul\":4030:4090   */\n      tag_167\n      jumpi\n        /* \"#utility.yul\":4086:4087   */\n      0x00\n        /* \"#utility.yul\":4083:4084   */\n      dup1\n        /* \"#utility.yul\":4076:4088   */\n      revert\n        /* \"#utility.yul\":5301:5559   */\n    tag_221:\n        /* \"#utility.yul\":5373:5374   */\n      0x00\n        /* \"#utility.yul\":5383:5496   */\n    tag_260:\n        /* \"#utility.yul\":5397:5403   */\n      dup4\n        /* \"#utility.yul\":5394:5395   */\n      dup2\n        /* \"#utility.yul\":5391:5404   */\n      lt\n        /* \"#utility.yul\":5383:5496   */\n      iszero\n      tag_262\n      jumpi\n        /* \"#utility.yul\":5473:5484   */\n      dup2\n      dup2\n      add\n        /* \"#utility.yul\":5467:5485   */\n      mload\n        /* \"#utility.yul\":5454:5465   */\n      dup4\n      dup3\n      add\n        /* \"#utility.yul\":5447:5486   */\n      mstore\n        /* \"#utility.yul\":5419:5421   */\n      0x20\n        /* \"#utility.yul\":5412:5422   */\n      add\n        /* \"#utility.yul\":5383:5496   */\n      jump(tag_260)\n    tag_262:\n        /* \"#utility.yul\":5514:5520   */\n      dup4\n        /* \"#utility.yul\":5511:5512   */\n      dup2\n        /* \"#utility.yul\":5508:5521   */\n      gt\n        /* \"#utility.yul\":5505:5553   */\n      iszero\n      tag_263\n      jumpi\n        /* \"#utility.yul\":5549:5550   */\n      0x00\n        /* \"#utility.yul\":5540:5546   */\n      dup5\n        /* \"#utility.yul\":5535:5538   */\n      dup5\n        /* \"#utility.yul\":5531:5547   */\n      add\n        /* \"#utility.yul\":5524:5551   */\n      mstore\n        /* \"#utility.yul\":5505:5553   */\n    tag_263:\n      pop\n        /* \"#utility.yul\":5301:5559   */\n      pop\n      pop\n      pop\n      jump\t// out\n        /* \"#utility.yul\":5564:5838   */\n    tag_206:\n        /* \"#utility.yul\":5693:5696   */\n      0x00\n        /* \"#utility.yul\":5731:5737   */\n      dup3\n        /* \"#utility.yul\":5725:5738   */\n      mload\n        /* \"#utility.yul\":5747:5800   */\n      tag_265\n        /* \"#utility.yul\":5793:5799   */\n      dup2\n        /* \"#utility.yul\":5788:5791   */\n      dup5\n        /* \"#utility.yul\":5781:5785   */\n      0x20\n        /* \"#utility.yul\":5773:5779   */\n      dup8\n        /* \"#utility.yul\":5769:5786   */\n      add\n        /* \"#utility.yul\":5747:5800   */\n      tag_221\n      jump\t// in\n    tag_265:\n        /* \"#utility.yul\":5816:5832   */\n      swap2\n      swap1\n      swap2\n      add\n      swap3\n        /* \"#utility.yul\":5564:5838   */\n      swap2\n      pop\n      pop\n      jump\t// out\n        /* \"#utility.yul\":5843:6226   */\n    tag_219:\n        /* \"#utility.yul\":5992:5994   */\n      0x20\n        /* \"#utility.yul\":5981:5990   */\n      dup2\n        /* \"#utility.yul\":5974:5995   */\n      mstore\n        /* \"#utility.yul\":5955:5959   */\n      0x00\n        /* \"#utility.yul\":6024:6030   */\n      dup3\n        /* \"#utility.yul\":6018:6031   */\n      mload\n        /* \"#utility.yul\":6067:6073   */\n      dup1\n        /* \"#utility.yul\":6062:6064   */\n      0x20\n        /* \"#utility.yul\":6051:6060   */\n      dup5\n        /* \"#utility.yul\":6047:6065   */\n      add\n        /* \"#utility.yul\":6040:6074   */\n      mstore\n        /* \"#utility.yul\":6083:6149   */\n      tag_267\n        /* \"#utility.yul\":6142:6148   */\n      dup2\n        /* \"#utility.yul\":6137:6139   */\n      0x40\n        /* \"#utility.yul\":6126:6135   */\n      dup6\n        /* \"#utility.yul\":6122:6140   */\n      add\n        /* \"#utility.yul\":6117:6119   */\n      0x20\n        /* \"#utility.yul\":6109:6115   */\n      dup8\n        /* \"#utility.yul\":6105:6120   */\n      add\n        /* \"#utility.yul\":6083:6149   */\n      tag_221\n      jump\t// in\n    tag_267:\n        /* \"#utility.yul\":6210:6212   */\n      0x1f\n        /* \"#utility.yul\":6189:6204   */\n      add\n      not(0x1f)\n        /* \"#utility.yul\":6185:6214   */\n      and\n        /* \"#utility.yul\":6170:6215   */\n      swap2\n      swap1\n      swap2\n      add\n        /* \"#utility.yul\":6217:6219   */\n      0x40\n        /* \"#utility.yul\":6166:6220   */\n      add\n      swap3\n        /* \"#utility.yul\":5843:6226   */\n      swap2\n      pop\n      pop\n      jump\t// out\n\n    auxdata: 0xa2646970667358221220970983e0634846cf0f97f630e083f432e8de79b1912f347bb6b3ebc010e575c464736f6c634300080b0033\n}\n",
				"bytecode": {
					"linkReferences": {},
					"object": "60c0604052604051610f9c380380610f9c833981016040819052610022916100cf565b61002b33610063565b600180546001600160a01b0319166001600160a01b0394909416939093179092556001600160401b039081166080521660a052610120565b600080546001600160a01b038381166001600160a01b0319831681178455604051919092169283917f8be0079c531659141344cd1fd0a4f28419497f9722a3daafe3b4186f6b6457e09190a35050565b80516001600160401b03811681146100ca57600080fd5b919050565b6000806000606084860312156100e457600080fd5b83516001600160a01b03811681146100fb57600080fd5b9250610109602085016100b3565b9150610117604085016100b3565b90509250925092565b60805160a051610e2d61016f600039600081816101190152818161074001526107a301526000818161022f015281816106f001528181610764015281816107ce01526108c50152610e2d6000f3fe6080604052600436106100cb5760003560e01c80638da5cb5b11610074578063de8098471161004e578063de8098471461025d578063f2fde38b1461027d578063fbccedae1461029d57600080fd5b80638da5cb5b146101c057806396132521146101e8578063be9a65551461022057600080fd5b8063594c733f116100a5578063594c733f14610169578063715018a61461019657806386d1a69f146101ab57600080fd5b80630a17b06b146100d75780630fb5a6b41461010a57806327c2e7221461014757600080fd5b366100d257005b600080fd5b3480156100e357600080fd5b506100f76100f2366004610bf2565b6102b2565b6040519081526020015b60405180910390f35b34801561011657600080fd5b507f000000000000000000000000000000000000000000000000000000000000000067ffffffffffffffff166100f7565b34801561015357600080fd5b50610167610162366004610c1c565b6102f9565b005b34801561017557600080fd5b506100f7610184366004610c91565b60046020526000908152604090205481565b3480156101a257600080fd5b506101676103bc565b3480156101b757600080fd5b50610167610422565b3480156101cc57600080fd5b506000546040516001600160a01b039091168152602001610101565b3480156101f457600080fd5b506001546001600160a01b031660009081526002602090815260408083203384529091529020546100f7565b34801561022c57600080fd5b507f000000000000000000000000000000000000000000000000000000000000000067ffffffffffffffff166100f7565b34801561026957600080fd5b50610167610278366004610c1c565b61051d565b34801561028957600080fd5b50610167610298366004610c91565b6105cf565b3480156102a957600080fd5b506100f76106ae565b6001546001600160a01b0316600090815260026020908152604080832033845282528083205460039092528220546102f3916102ed91610cd0565b836106ec565b92915050565b6000546001600160a01b031633146103585760405162461bcd60e51b815260206004820181905260248201527f4f776e61626c653a2063616c6c6572206973206e6f7420746865206f776e657260448201526064015b60405180910390fd5b60005b818110156103b7576103af83838381811061037857610378610ce8565b61038e9260206040909202019081019150610c91565b8484848181106103a0576103a0610ce8565b90506040020160200135610826565b60010161035b565b505050565b6000546001600160a01b031633146104165760405162461bcd60e51b815260206004820181905260248201527f4f776e61626c653a2063616c6c6572206973206e6f7420746865206f776e6572604482015260640161034f565b6104206000610857565b565b600061042c6106ae565b336000908152600460205260409020549091506104476108bf565b111561051a576104556108bf565b33600090815260046020908152604080832093909355600390529081208054839290610482908490610cfe565b90915550506001546001600160a01b03166000908152600260209081526040808320338452909152812080548392906104bc908490610cd0565b909155505060015460405182815233916001600160a01b0316907f1998e30db89daf293a52c4fc4c4470cd506aafc3f9683e8e5daddad80cd6f4a49060200160405180910390a360015461051a906001600160a01b0316338361090c565b50565b6000546001600160a01b031633146105775760405162461bcd60e51b815260206004820181905260248201527f4f776e61626c653a2063616c6c6572206973206e6f7420746865206f776e6572604482015260640161034f565b60005b818110156103b7576105c783838381811061059757610597610ce8565b6105ad9260206040909202019081019150610c91565b6001600160a01b0316600090815260036020526040812055565b60010161057a565b6000546001600160a01b031633146106295760405162461bcd60e51b815260206004820181905260248201527f4f776e61626c653a2063616c6c6572206973206e6f7420746865206f776e6572604482015260640161034f565b6001600160a01b0381166106a55760405162461bcd60e51b815260206004820152602660248201527f4f776e61626c653a206e6577206f776e657220697320746865207a65726f206160448201527f6464726573730000000000000000000000000000000000000000000000000000606482015260840161034f565b61051a81610857565b6001546001600160a01b031660009081526002602090815260408083203384529091528120546106dd426102b2565b6106e79190610cfe565b905090565b60007f000000000000000000000000000000000000000000000000000000000000000067ffffffffffffffff168267ffffffffffffffff161015610732575060006102f3565b61078967ffffffffffffffff7f00000000000000000000000000000000000000000000000000000000000000008116907f000000000000000000000000000000000000000000000000000000000000000016610cd0565b8267ffffffffffffffff1611156107a15750816102f3565b7f000000000000000000000000000000000000000000000000000000000000000067ffffffffffffffff167f000000000000000000000000000000000000000000000000000000000000000067ffffffffffffffff1661080b9067ffffffffffffffff8516610cfe565b6108159085610d15565b61081f9190610d34565b9392505050565b6001600160a01b0382166000908152600360205260408120805483929061084e908490610cd0565b90915550505050565b600080546001600160a01b038381167fffffffffffffffffffffffff0000000000000000000000000000000000000000831681178455604051919092169283917f8be0079c531659141344cd1fd0a4f28419497f9722a3daafe3b4186f6b6457e09190a35050565b6000603c7f000000000000000000000000000000000000000000000000000000000000000067ffffffffffffffff166109029067ffffffffffffffff4216610cfe565b6106e79190610d34565b604080516001600160a01b03848116602483015260448083018590528351808403909101815260649092018352602080830180517bffffffffffffffffffffffffffffffffffffffffffffffffffffffff167fa9059cbb0000000000000000000000000000000000000000000000000000000017905283518085019094528084527f5361666545524332303a206c6f772d6c6576656c2063616c6c206661696c6564908401526103b7928692916000916109ca918516908490610a5a565b8051909150156103b757808060200190518101906109e89190610d56565b6103b75760405162461bcd60e51b815260206004820152602a60248201527f5361666545524332303a204552433230206f7065726174696f6e20646964206e60448201527f6f74207375636365656400000000000000000000000000000000000000000000606482015260840161034f565b6060610a698484600085610a71565b949350505050565b606082471015610ae95760405162461bcd60e51b815260206004820152602660248201527f416464726573733a20696e73756666696369656e742062616c616e636520666f60448201527f722063616c6c0000000000000000000000000000000000000000000000000000606482015260840161034f565b6001600160a01b0385163b610b405760405162461bcd60e51b815260206004820152601d60248201527f416464726573733a2063616c6c20746f206e6f6e2d636f6e7472616374000000604482015260640161034f565b600080866001600160a01b03168587604051610b5c9190610da8565b60006040518083038185875af1925050503d8060008114610b99576040519150601f19603f3d011682016040523d82523d6000602084013e610b9e565b606091505b5091509150610bae828286610bb9565b979650505050505050565b60608315610bc857508161081f565b825115610bd85782518084602001fd5b8160405162461bcd60e51b815260040161034f9190610dc4565b600060208284031215610c0457600080fd5b813567ffffffffffffffff8116811461081f57600080fd5b60008060208385031215610c2f57600080fd5b823567ffffffffffffffff80821115610c4757600080fd5b818501915085601f830112610c5b57600080fd5b813581811115610c6a57600080fd5b8660208260061b8501011115610c7f57600080fd5b60209290920196919550909350505050565b600060208284031215610ca357600080fd5b81356001600160a01b038116811461081f57600080fd5b634e487b7160e01b600052601160045260246000fd5b60008219821115610ce357610ce3610cba565b500190565b634e487b7160e01b600052603260045260246000fd5b600082821015610d1057610d10610cba565b500390565b6000816000190483118215151615610d2f57610d2f610cba565b500290565b600082610d5157634e487b7160e01b600052601260045260246000fd5b500490565b600060208284031215610d6857600080fd5b8151801515811461081f57600080fd5b60005b83811015610d93578181015183820152602001610d7b565b83811115610da2576000848401525b50505050565b60008251610dba818460208701610d78565b9190910192915050565b6020815260008251806020840152610de3816040850160208701610d78565b601f01601f1916919091016040019291505056fea2646970667358221220970983e0634846cf0f97f630e083f432e8de79b1912f347bb6b3ebc010e575c464736f6c634300080b0033",
					"opcodes": "PUSH1 0xC0 PUSH1 0x40 MSTORE PUSH1 0x40 MLOAD PUSH2 0xF9C CODESIZE SUB DUP1 PUSH2 0xF9C DUP4 CODECOPY DUP2 ADD PUSH1 0x40 DUP2 SWAP1 MSTORE PUSH2 0x22 SWAP2 PUSH2 0xCF JUMP JUMPDEST PUSH2 0x2B CALLER PUSH2 0x63 JUMP JUMPDEST PUSH1 0x1 DUP1 SLOAD PUSH1 0x1 PUSH1 0x1 PUSH1 0xA0 SHL SUB NOT AND PUSH1 0x1 PUSH1 0x1 PUSH1 0xA0 SHL SUB SWAP5 SWAP1 SWAP5 AND SWAP4 SWAP1 SWAP4 OR SWAP1 SWAP3 SSTORE PUSH1 0x1 PUSH1 0x1 PUSH1 0x40 SHL SUB SWAP1 DUP2 AND PUSH1 0x80 MSTORE AND PUSH1 0xA0 MSTORE PUSH2 0x120 JUMP JUMPDEST PUSH1 0x0 DUP1 SLOAD PUSH1 0x1 PUSH1 0x1 PUSH1 0xA0 SHL SUB DUP4 DUP2 AND PUSH1 0x1 PUSH1 0x1 PUSH1 0xA0 SHL SUB NOT DUP4 AND DUP2 OR DUP5 SSTORE PUSH1 0x40 MLOAD SWAP2 SWAP1 SWAP3 AND SWAP3 DUP4 SWAP2 PUSH32 0x8BE0079C531659141344CD1FD0A4F28419497F9722A3DAAFE3B4186F6B6457E0 SWAP2 SWAP1 LOG3 POP POP JUMP JUMPDEST DUP1 MLOAD PUSH1 0x1 PUSH1 0x1 PUSH1 0x40 SHL SUB DUP2 AND DUP2 EQ PUSH2 0xCA JUMPI PUSH1 0x0 DUP1 REVERT JUMPDEST SWAP2 SWAP1 POP JUMP JUMPDEST PUSH1 0x0 DUP1 PUSH1 0x0 PUSH1 0x60 DUP5 DUP7 SUB SLT ISZERO PUSH2 0xE4 JUMPI PUSH1 0x0 DUP1 REVERT JUMPDEST DUP4 MLOAD PUSH1 0x1 PUSH1 0x1 PUSH1 0xA0 SHL SUB DUP2 AND DUP2 EQ PUSH2 0xFB JUMPI PUSH1 0x0 DUP1 REVERT JUMPDEST SWAP3 POP PUSH2 0x109 PUSH1 0x20 DUP6 ADD PUSH2 0xB3 JUMP JUMPDEST SWAP2 POP PUSH2 0x117 PUSH1 0x40 DUP6 ADD PUSH2 0xB3 JUMP JUMPDEST SWAP1 POP SWAP3 POP SWAP3 POP SWAP3 JUMP JUMPDEST PUSH1 0x80 MLOAD PUSH1 0xA0 MLOAD PUSH2 0xE2D PUSH2 0x16F PUSH1 0x0 CODECOPY PUSH1 0x0 DUP2 DUP2 PUSH2 0x119 ADD MSTORE DUP2 DUP2 PUSH2 0x740 ADD MSTORE PUSH2 0x7A3 ADD MSTORE PUSH1 0x0 DUP2 DUP2 PUSH2 0x22F ADD MSTORE DUP2 DUP2 PUSH2 0x6F0 ADD MSTORE DUP2 DUP2 PUSH2 0x764 ADD MSTORE DUP2 DUP2 PUSH2 0x7CE ADD MSTORE PUSH2 0x8C5 ADD MSTORE PUSH2 0xE2D PUSH1 0x0 RETURN INVALID PUSH1 0x80 PUSH1 0x40 MSTORE PUSH1 0x4 CALLDATASIZE LT PUSH2 0xCB JUMPI PUSH1 0x0 CALLDATALOAD PUSH1 0xE0 SHR DUP1 PUSH4 0x8DA5CB5B GT PUSH2 0x74 JUMPI DUP1 PUSH4 0xDE809847 GT PUSH2 0x4E JUMPI DUP1 PUSH4 0xDE809847 EQ PUSH2 0x25D JUMPI DUP1 PUSH4 0xF2FDE38B EQ PUSH2 0x27D JUMPI DUP1 PUSH4 0xFBCCEDAE EQ PUSH2 0x29D JUMPI PUSH1 0x0 DUP1 REVERT JUMPDEST DUP1 PUSH4 0x8DA5CB5B EQ PUSH2 0x1C0 JUMPI DUP1 PUSH4 0x96132521 EQ PUSH2 0x1E8 JUMPI DUP1 PUSH4 0xBE9A6555 EQ PUSH2 0x220 JUMPI PUSH1 0x0 DUP1 REVERT JUMPDEST DUP1 PUSH4 0x594C733F GT PUSH2 0xA5 JUMPI DUP1 PUSH4 0x594C733F EQ PUSH2 0x169 JUMPI DUP1 PUSH4 0x715018A6 EQ PUSH2 0x196 JUMPI DUP1 PUSH4 0x86D1A69F EQ PUSH2 0x1AB JUMPI PUSH1 0x0 DUP1 REVERT JUMPDEST DUP1 PUSH4 0xA17B06B EQ PUSH2 0xD7 JUMPI DUP1 PUSH4 0xFB5A6B4 EQ PUSH2 0x10A JUMPI DUP1 PUSH4 0x27C2E722 EQ PUSH2 0x147 JUMPI PUSH1 0x0 DUP1 REVERT JUMPDEST CALLDATASIZE PUSH2 0xD2 JUMPI STOP JUMPDEST PUSH1 0x0 DUP1 REVERT JUMPDEST CALLVALUE DUP1 ISZERO PUSH2 0xE3 JUMPI PUSH1 0x0 DUP1 REVERT JUMPDEST POP PUSH2 0xF7 PUSH2 0xF2 CALLDATASIZE PUSH1 0x4 PUSH2 0xBF2 JUMP JUMPDEST PUSH2 0x2B2 JUMP JUMPDEST PUSH1 0x40 MLOAD SWAP1 DUP2 MSTORE PUSH1 0x20 ADD JUMPDEST PUSH1 0x40 MLOAD DUP1 SWAP2 SUB SWAP1 RETURN JUMPDEST CALLVALUE DUP1 ISZERO PUSH2 0x116 JUMPI PUSH1 0x0 DUP1 REVERT JUMPDEST POP PUSH32 0x0 PUSH8 0xFFFFFFFFFFFFFFFF AND PUSH2 0xF7 JUMP JUMPDEST CALLVALUE DUP1 ISZERO PUSH2 0x153 JUMPI PUSH1 0x0 DUP1 REVERT JUMPDEST POP PUSH2 0x167 PUSH2 0x162 CALLDATASIZE PUSH1 0x4 PUSH2 0xC1C JUMP JUMPDEST PUSH2 0x2F9 JUMP JUMPDEST STOP JUMPDEST CALLVALUE DUP1 ISZERO PUSH2 0x175 JUMPI PUSH1 0x0 DUP1 REVERT JUMPDEST POP PUSH2 0xF7 PUSH2 0x184 CALLDATASIZE PUSH1 0x4 PUSH2 0xC91 JUMP JUMPDEST PUSH1 0x4 PUSH1 0x20 MSTORE PUSH1 0x0 SWAP1 DUP2 MSTORE PUSH1 0x40 SWAP1 KECCAK256 SLOAD DUP2 JUMP JUMPDEST CALLVALUE DUP1 ISZERO PUSH2 0x1A2 JUMPI PUSH1 0x0 DUP1 REVERT JUMPDEST POP PUSH2 0x167 PUSH2 0x3BC JUMP JUMPDEST CALLVALUE DUP1 ISZERO PUSH2 0x1B7 JUMPI PUSH1 0x0 DUP1 REVERT JUMPDEST POP PUSH2 0x167 PUSH2 0x422 JUMP JUMPDEST CALLVALUE DUP1 ISZERO PUSH2 0x1CC JUMPI PUSH1 0x0 DUP1 REVERT JUMPDEST POP PUSH1 0x0 SLOAD PUSH1 0x40 MLOAD PUSH1 0x1 PUSH1 0x1 PUSH1 0xA0 SHL SUB SWAP1 SWAP2 AND DUP2 MSTORE PUSH1 0x20 ADD PUSH2 0x101 JUMP JUMPDEST CALLVALUE DUP1 ISZERO PUSH2 0x1F4 JUMPI PUSH1 0x0 DUP1 REVERT JUMPDEST POP PUSH1 0x1 SLOAD PUSH1 0x1 PUSH1 0x1 PUSH1 0xA0 SHL SUB AND PUSH1 0x0 SWAP1 DUP2 MSTORE PUSH1 0x2 PUSH1 0x20 SWAP1 DUP2 MSTORE PUSH1 0x40 DUP1 DUP4 KECCAK256 CALLER DUP5 MSTORE SWAP1 SWAP2 MSTORE SWAP1 KECCAK256 SLOAD PUSH2 0xF7 JUMP JUMPDEST CALLVALUE DUP1 ISZERO PUSH2 0x22C JUMPI PUSH1 0x0 DUP1 REVERT JUMPDEST POP PUSH32 0x0 PUSH8 0xFFFFFFFFFFFFFFFF AND PUSH2 0xF7 JUMP JUMPDEST CALLVALUE DUP1 ISZERO PUSH2 0x269 JUMPI PUSH1 0x0 DUP1 REVERT JUMPDEST POP PUSH2 0x167 PUSH2 0x278 CALLDATASIZE PUSH1 0x4 PUSH2 0xC1C JUMP JUMPDEST PUSH2 0x51D JUMP JUMPDEST CALLVALUE DUP1 ISZERO PUSH2 0x289 JUMPI PUSH1 0x0 DUP1 REVERT JUMPDEST POP PUSH2 0x167 PUSH2 0x298 CALLDATASIZE PUSH1 0x4 PUSH2 0xC91 JUMP JUMPDEST PUSH2 0x5CF JUMP JUMPDEST CALLVALUE DUP1 ISZERO PUSH2 0x2A9 JUMPI PUSH1 0x0 DUP1 REVERT JUMPDEST POP PUSH2 0xF7 PUSH2 0x6AE JUMP JUMPDEST PUSH1 0x1 SLOAD PUSH1 0x1 PUSH1 0x1 PUSH1 0xA0 SHL SUB AND PUSH1 0x0 SWAP1 DUP2 MSTORE PUSH1 0x2 PUSH1 0x20 SWAP1 DUP2 MSTORE PUSH1 0x40 DUP1 DUP4 KECCAK256 CALLER DUP5 MSTORE DUP3 MSTORE DUP1 DUP4 KECCAK256 SLOAD PUSH1 0x3 SWAP1 SWAP3 MSTORE DUP3 KECCAK256 SLOAD PUSH2 0x2F3 SWAP2 PUSH2 0x2ED SWAP2 PUSH2 0xCD0 JUMP JUMPDEST DUP4 PUSH2 0x6EC JUMP JUMPDEST SWAP3 SWAP2 POP POP JUMP JUMPDEST PUSH1 0x0 SLOAD PUSH1 0x1 PUSH1 0x1 PUSH1 0xA0 SHL SUB AND CALLER EQ PUSH2 0x358 JUMPI PUSH1 0x40 MLOAD PUSH3 0x461BCD PUSH1 0xE5 SHL DUP2 MSTORE PUSH1 0x20 PUSH1 0x4 DUP3 ADD DUP2 SWAP1 MSTORE PUSH1 0x24 DUP3 ADD MSTORE PUSH32 0x4F776E61626C653A2063616C6C6572206973206E6F7420746865206F776E6572 PUSH1 0x44 DUP3 ADD MSTORE PUSH1 0x64 ADD JUMPDEST PUSH1 0x40 MLOAD DUP1 SWAP2 SUB SWAP1 REVERT JUMPDEST PUSH1 0x0 JUMPDEST DUP2 DUP2 LT ISZERO PUSH2 0x3B7 JUMPI PUSH2 0x3AF DUP4 DUP4 DUP4 DUP2 DUP2 LT PUSH2 0x378 JUMPI PUSH2 0x378 PUSH2 0xCE8 JUMP JUMPDEST PUSH2 0x38E SWAP3 PUSH1 0x20 PUSH1 0x40 SWAP1 SWAP3 MUL ADD SWAP1 DUP2 ADD SWAP2 POP PUSH2 0xC91 JUMP JUMPDEST DUP5 DUP5 DUP5 DUP2 DUP2 LT PUSH2 0x3A0 JUMPI PUSH2 0x3A0 PUSH2 0xCE8 JUMP JUMPDEST SWAP1 POP PUSH1 0x40 MUL ADD PUSH1 0x20 ADD CALLDATALOAD PUSH2 0x826 JUMP JUMPDEST PUSH1 0x1 ADD PUSH2 0x35B JUMP JUMPDEST POP POP POP JUMP JUMPDEST PUSH1 0x0 SLOAD PUSH1 0x1 PUSH1 0x1 PUSH1 0xA0 SHL SUB AND CALLER EQ PUSH2 0x416 JUMPI PUSH1 0x40 MLOAD PUSH3 0x461BCD PUSH1 0xE5 SHL DUP2 MSTORE PUSH1 0x20 PUSH1 0x4 DUP3 ADD DUP2 SWAP1 MSTORE PUSH1 0x24 DUP3 ADD MSTORE PUSH32 0x4F776E61626C653A2063616C6C6572206973206E6F7420746865206F776E6572 PUSH1 0x44 DUP3 ADD MSTORE PUSH1 0x64 ADD PUSH2 0x34F JUMP JUMPDEST PUSH2 0x420 PUSH1 0x0 PUSH2 0x857 JUMP JUMPDEST JUMP JUMPDEST PUSH1 0x0 PUSH2 0x42C PUSH2 0x6AE JUMP JUMPDEST CALLER PUSH1 0x0 SWAP1 DUP2 MSTORE PUSH1 0x4 PUSH1 0x20 MSTORE PUSH1 0x40 SWAP1 KECCAK256 SLOAD SWAP1 SWAP2 POP PUSH2 0x447 PUSH2 0x8BF JUMP JUMPDEST GT ISZERO PUSH2 0x51A JUMPI PUSH2 0x455 PUSH2 0x8BF JUMP JUMPDEST CALLER PUSH1 0x0 SWAP1 DUP2 MSTORE PUSH1 0x4 PUSH1 0x20 SWAP1 DUP2 MSTORE PUSH1 0x40 DUP1 DUP4 KECCAK256 SWAP4 SWAP1 SWAP4 SSTORE PUSH1 0x3 SWAP1 MSTORE SWAP1 DUP2 KECCAK256 DUP1 SLOAD DUP4 SWAP3 SWAP1 PUSH2 0x482 SWAP1 DUP5 SWAP1 PUSH2 0xCFE JUMP JUMPDEST SWAP1 SWAP2 SSTORE POP POP PUSH1 0x1 SLOAD PUSH1 0x1 PUSH1 0x1 PUSH1 0xA0 SHL SUB AND PUSH1 0x0 SWAP1 DUP2 MSTORE PUSH1 0x2 PUSH1 0x20 SWAP1 DUP2 MSTORE PUSH1 0x40 DUP1 DUP4 KECCAK256 CALLER DUP5 MSTORE SWAP1 SWAP2 MSTORE DUP2 KECCAK256 DUP1 SLOAD DUP4 SWAP3 SWAP1 PUSH2 0x4BC SWAP1 DUP5 SWAP1 PUSH2 0xCD0 JUMP JUMPDEST SWAP1 SWAP2 SSTORE POP POP PUSH1 0x1 SLOAD PUSH1 0x40 MLOAD DUP3 DUP2 MSTORE CALLER SWAP2 PUSH1 0x1 PUSH1 0x1 PUSH1 0xA0 SHL SUB AND SWAP1 PUSH32 0x1998E30DB89DAF293A52C4FC4C4470CD506AAFC3F9683E8E5DADDAD80CD6F4A4 SWAP1 PUSH1 0x20 ADD PUSH1 0x40 MLOAD DUP1 SWAP2 SUB SWAP1 LOG3 PUSH1 0x1 SLOAD PUSH2 0x51A SWAP1 PUSH1 0x1 PUSH1 0x1 PUSH1 0xA0 SHL SUB AND CALLER DUP4 PUSH2 0x90C JUMP JUMPDEST POP JUMP JUMPDEST PUSH1 0x0 SLOAD PUSH1 0x1 PUSH1 0x1 PUSH1 0xA0 SHL SUB AND CALLER EQ PUSH2 0x577 JUMPI PUSH1 0x40 MLOAD PUSH3 0x461BCD PUSH1 0xE5 SHL DUP2 MSTORE PUSH1 0x20 PUSH1 0x4 DUP3 ADD DUP2 SWAP1 MSTORE PUSH1 0x24 DUP3 ADD MSTORE PUSH32 0x4F776E61626C653A2063616C6C6572206973206E6F7420746865206F776E6572 PUSH1 0x44 DUP3 ADD MSTORE PUSH1 0x64 ADD PUSH2 0x34F JUMP JUMPDEST PUSH1 0x0 JUMPDEST DUP2 DUP2 LT ISZERO PUSH2 0x3B7 JUMPI PUSH2 0x5C7 DUP4 DUP4 DUP4 DUP2 DUP2 LT PUSH2 0x597 JUMPI PUSH2 0x597 PUSH2 0xCE8 JUMP JUMPDEST PUSH2 0x5AD SWAP3 PUSH1 0x20 PUSH1 0x40 SWAP1 SWAP3 MUL ADD SWAP1 DUP2 ADD SWAP2 POP PUSH2 0xC91 JUMP JUMPDEST PUSH1 0x1 PUSH1 0x1 PUSH1 0xA0 SHL SUB AND PUSH1 0x0 SWAP1 DUP2 MSTORE PUSH1 0x3 PUSH1 0x20 MSTORE PUSH1 0x40 DUP2 KECCAK256 SSTORE JUMP JUMPDEST PUSH1 0x1 ADD PUSH2 0x57A JUMP JUMPDEST PUSH1 0x0 SLOAD PUSH1 0x1 PUSH1 0x1 PUSH1 0xA0 SHL SUB AND CALLER EQ PUSH2 0x629 JUMPI PUSH1 0x40 MLOAD PUSH3 0x461BCD PUSH1 0xE5 SHL DUP2 MSTORE PUSH1 0x20 PUSH1 0x4 DUP3 ADD DUP2 SWAP1 MSTORE PUSH1 0x24 DUP3 ADD MSTORE PUSH32 0x4F776E61626C653A2063616C6C6572206973206E6F7420746865206F776E6572 PUSH1 0x44 DUP3 ADD MSTORE PUSH1 0x64 ADD PUSH2 0x34F JUMP JUMPDEST PUSH1 0x1 PUSH1 0x1 PUSH1 0xA0 SHL SUB DUP2 AND PUSH2 0x6A5 JUMPI PUSH1 0x40 MLOAD PUSH3 0x461BCD PUSH1 0xE5 SHL DUP2 MSTORE PUSH1 0x20 PUSH1 0x4 DUP3 ADD MSTORE PUSH1 0x26 PUSH1 0x24 DUP3 ADD MSTORE PUSH32 0x4F776E61626C653A206E6577206F776E657220697320746865207A65726F2061 PUSH1 0x44 DUP3 ADD MSTORE PUSH32 0x6464726573730000000000000000000000000000000000000000000000000000 PUSH1 0x64 DUP3 ADD MSTORE PUSH1 0x84 ADD PUSH2 0x34F JUMP JUMPDEST PUSH2 0x51A DUP2 PUSH2 0x857 JUMP JUMPDEST PUSH1 0x1 SLOAD PUSH1 0x1 PUSH1 0x1 PUSH1 0xA0 SHL SUB AND PUSH1 0x0 SWAP1 DUP2 MSTORE PUSH1 0x2 PUSH1 0x20 SWAP1 DUP2 MSTORE PUSH1 0x40 DUP1 DUP4 KECCAK256 CALLER DUP5 MSTORE SWAP1 SWAP2 MSTORE DUP2 KECCAK256 SLOAD PUSH2 0x6DD TIMESTAMP PUSH2 0x2B2 JUMP JUMPDEST PUSH2 0x6E7 SWAP2 SWAP1 PUSH2 0xCFE JUMP JUMPDEST SWAP1 POP SWAP1 JUMP JUMPDEST PUSH1 0x0 PUSH32 0x0 PUSH8 0xFFFFFFFFFFFFFFFF AND DUP3 PUSH8 0xFFFFFFFFFFFFFFFF AND LT ISZERO PUSH2 0x732 JUMPI POP PUSH1 0x0 PUSH2 0x2F3 JUMP JUMPDEST PUSH2 0x789 PUSH8 0xFFFFFFFFFFFFFFFF PUSH32 0x0 DUP2 AND SWAP1 PUSH32 0x0 AND PUSH2 0xCD0 JUMP JUMPDEST DUP3 PUSH8 0xFFFFFFFFFFFFFFFF AND GT ISZERO PUSH2 0x7A1 JUMPI POP DUP2 PUSH2 0x2F3 JUMP JUMPDEST PUSH32 0x0 PUSH8 0xFFFFFFFFFFFFFFFF AND PUSH32 0x0 PUSH8 0xFFFFFFFFFFFFFFFF AND PUSH2 0x80B SWAP1 PUSH8 0xFFFFFFFFFFFFFFFF DUP6 AND PUSH2 0xCFE JUMP JUMPDEST PUSH2 0x815 SWAP1 DUP6 PUSH2 0xD15 JUMP JUMPDEST PUSH2 0x81F SWAP2 SWAP1 PUSH2 0xD34 JUMP JUMPDEST SWAP4 SWAP3 POP POP POP JUMP JUMPDEST PUSH1 0x1 PUSH1 0x1 PUSH1 0xA0 SHL SUB DUP3 AND PUSH1 0x0 SWAP1 DUP2 MSTORE PUSH1 0x3 PUSH1 0x20 MSTORE PUSH1 0x40 DUP2 KECCAK256 DUP1 SLOAD DUP4 SWAP3 SWAP1 PUSH2 0x84E SWAP1 DUP5 SWAP1 PUSH2 0xCD0 JUMP JUMPDEST SWAP1 SWAP2 SSTORE POP POP POP POP JUMP JUMPDEST PUSH1 0x0 DUP1 SLOAD PUSH1 0x1 PUSH1 0x1 PUSH1 0xA0 SHL SUB DUP4 DUP2 AND PUSH32 0xFFFFFFFFFFFFFFFFFFFFFFFF0000000000000000000000000000000000000000 DUP4 AND DUP2 OR DUP5 SSTORE PUSH1 0x40 MLOAD SWAP2 SWAP1 SWAP3 AND SWAP3 DUP4 SWAP2 PUSH32 0x8BE0079C531659141344CD1FD0A4F28419497F9722A3DAAFE3B4186F6B6457E0 SWAP2 SWAP1 LOG3 POP POP JUMP JUMPDEST PUSH1 0x0 PUSH1 0x3C PUSH32 0x0 PUSH8 0xFFFFFFFFFFFFFFFF AND PUSH2 0x902 SWAP1 PUSH8 0xFFFFFFFFFFFFFFFF TIMESTAMP AND PUSH2 0xCFE JUMP JUMPDEST PUSH2 0x6E7 SWAP2 SWAP1 PUSH2 0xD34 JUMP JUMPDEST PUSH1 0x40 DUP1 MLOAD PUSH1 0x1 PUSH1 0x1 PUSH1 0xA0 SHL SUB DUP5 DUP2 AND PUSH1 0x24 DUP4 ADD MSTORE PUSH1 0x44 DUP1 DUP4 ADD DUP6 SWAP1 MSTORE DUP4 MLOAD DUP1 DUP5 SUB SWAP1 SWAP2 ADD DUP2 MSTORE PUSH1 0x64 SWAP1 SWAP3 ADD DUP4 MSTORE PUSH1 0x20 DUP1 DUP4 ADD DUP1 MLOAD PUSH28 0xFFFFFFFFFFFFFFFFFFFFFFFFFFFFFFFFFFFFFFFFFFFFFFFFFFFFFFFF AND PUSH32 0xA9059CBB00000000000000000000000000000000000000000000000000000000 OR SWAP1 MSTORE DUP4 MLOAD DUP1 DUP6 ADD SWAP1 SWAP5 MSTORE DUP1 DUP5 MSTORE PUSH32 0x5361666545524332303A206C6F772D6C6576656C2063616C6C206661696C6564 SWAP1 DUP5 ADD MSTORE PUSH2 0x3B7 SWAP3 DUP7 SWAP3 SWAP2 PUSH1 0x0 SWAP2 PUSH2 0x9CA SWAP2 DUP6 AND SWAP1 DUP5 SWAP1 PUSH2 0xA5A JUMP JUMPDEST DUP1 MLOAD SWAP1 SWAP2 POP ISZERO PUSH2 0x3B7 JUMPI DUP1 DUP1 PUSH1 0x20 ADD SWAP1 MLOAD DUP2 ADD SWAP1 PUSH2 0x9E8 SWAP2 SWAP1 PUSH2 0xD56 JUMP JUMPDEST PUSH2 0x3B7 JUMPI PUSH1 0x40 MLOAD PUSH3 0x461BCD PUSH1 0xE5 SHL DUP2 MSTORE PUSH1 0x20 PUSH1 0x4 DUP3 ADD MSTORE PUSH1 0x2A PUSH1 0x24 DUP3 ADD MSTORE PUSH32 0x5361666545524332303A204552433230206F7065726174696F6E20646964206E PUSH1 0x44 DUP3 ADD MSTORE PUSH32 0x6F74207375636365656400000000000000000000000000000000000000000000 PUSH1 0x64 DUP3 ADD MSTORE PUSH1 0x84 ADD PUSH2 0x34F JUMP JUMPDEST PUSH1 0x60 PUSH2 0xA69 DUP5 DUP5 PUSH1 0x0 DUP6 PUSH2 0xA71 JUMP JUMPDEST SWAP5 SWAP4 POP POP POP POP JUMP JUMPDEST PUSH1 0x60 DUP3 SELFBALANCE LT ISZERO PUSH2 0xAE9 JUMPI PUSH1 0x40 MLOAD PUSH3 0x461BCD PUSH1 0xE5 SHL DUP2 MSTORE PUSH1 0x20 PUSH1 0x4 DUP3 ADD MSTORE PUSH1 0x26 PUSH1 0x24 DUP3 ADD MSTORE PUSH32 0x416464726573733A20696E73756666696369656E742062616C616E636520666F PUSH1 0x44 DUP3 ADD MSTORE PUSH32 0x722063616C6C0000000000000000000000000000000000000000000000000000 PUSH1 0x64 DUP3 ADD MSTORE PUSH1 0x84 ADD PUSH2 0x34F JUMP JUMPDEST PUSH1 0x1 PUSH1 0x1 PUSH1 0xA0 SHL SUB DUP6 AND EXTCODESIZE PUSH2 0xB40 JUMPI PUSH1 0x40 MLOAD PUSH3 0x461BCD PUSH1 0xE5 SHL DUP2 MSTORE PUSH1 0x20 PUSH1 0x4 DUP3 ADD MSTORE PUSH1 0x1D PUSH1 0x24 DUP3 ADD MSTORE PUSH32 0x416464726573733A2063616C6C20746F206E6F6E2D636F6E7472616374000000 PUSH1 0x44 DUP3 ADD MSTORE PUSH1 0x64 ADD PUSH2 0x34F JUMP JUMPDEST PUSH1 0x0 DUP1 DUP7 PUSH1 0x1 PUSH1 0x1 PUSH1 0xA0 SHL SUB AND DUP6 DUP8 PUSH1 0x40 MLOAD PUSH2 0xB5C SWAP2 SWAP1 PUSH2 0xDA8 JUMP JUMPDEST PUSH1 0x0 PUSH1 0x40 MLOAD DUP1 DUP4 SUB DUP2 DUP6 DUP8 GAS CALL SWAP3 POP POP POP RETURNDATASIZE DUP1 PUSH1 0x0 DUP2 EQ PUSH2 0xB99 JUMPI PUSH1 0x40 MLOAD SWAP2 POP PUSH1 0x1F NOT PUSH1 0x3F RETURNDATASIZE ADD AND DUP3 ADD PUSH1 0x40 MSTORE RETURNDATASIZE DUP3 MSTORE RETURNDATASIZE PUSH1 0x0 PUSH1 0x20 DUP5 ADD RETURNDATACOPY PUSH2 0xB9E JUMP JUMPDEST PUSH1 0x60 SWAP2 POP JUMPDEST POP SWAP2 POP SWAP2 POP PUSH2 0xBAE DUP3 DUP3 DUP7 PUSH2 0xBB9 JUMP JUMPDEST SWAP8 SWAP7 POP POP POP POP POP POP POP JUMP JUMPDEST PUSH1 0x60 DUP4 ISZERO PUSH2 0xBC8 JUMPI POP DUP2 PUSH2 0x81F JUMP JUMPDEST DUP3 MLOAD ISZERO PUSH2 0xBD8 JUMPI DUP3 MLOAD DUP1 DUP5 PUSH1 0x20 ADD REVERT JUMPDEST DUP2 PUSH1 0x40 MLOAD PUSH3 0x461BCD PUSH1 0xE5 SHL DUP2 MSTORE PUSH1 0x4 ADD PUSH2 0x34F SWAP2 SWAP1 PUSH2 0xDC4 JUMP JUMPDEST PUSH1 0x0 PUSH1 0x20 DUP3 DUP5 SUB SLT ISZERO PUSH2 0xC04 JUMPI PUSH1 0x0 DUP1 REVERT JUMPDEST DUP2 CALLDATALOAD PUSH8 0xFFFFFFFFFFFFFFFF DUP2 AND DUP2 EQ PUSH2 0x81F JUMPI PUSH1 0x0 DUP1 REVERT JUMPDEST PUSH1 0x0 DUP1 PUSH1 0x20 DUP4 DUP6 SUB SLT ISZERO PUSH2 0xC2F JUMPI PUSH1 0x0 DUP1 REVERT JUMPDEST DUP3 CALLDATALOAD PUSH8 0xFFFFFFFFFFFFFFFF DUP1 DUP3 GT ISZERO PUSH2 0xC47 JUMPI PUSH1 0x0 DUP1 REVERT JUMPDEST DUP2 DUP6 ADD SWAP2 POP DUP6 PUSH1 0x1F DUP4 ADD SLT PUSH2 0xC5B JUMPI PUSH1 0x0 DUP1 REVERT JUMPDEST DUP2 CALLDATALOAD DUP2 DUP2 GT ISZERO PUSH2 0xC6A JUMPI PUSH1 0x0 DUP1 REVERT JUMPDEST DUP7 PUSH1 0x20 DUP3 PUSH1 0x6 SHL DUP6 ADD ADD GT ISZERO PUSH2 0xC7F JUMPI PUSH1 0x0 DUP1 REVERT JUMPDEST PUSH1 0x20 SWAP3 SWAP1 SWAP3 ADD SWAP7 SWAP2 SWAP6 POP SWAP1 SWAP4 POP POP POP POP JUMP JUMPDEST PUSH1 0x0 PUSH1 0x20 DUP3 DUP5 SUB SLT ISZERO PUSH2 0xCA3 JUMPI PUSH1 0x0 DUP1 REVERT JUMPDEST DUP2 CALLDATALOAD PUSH1 0x1 PUSH1 0x1 PUSH1 0xA0 SHL SUB DUP2 AND DUP2 EQ PUSH2 0x81F JUMPI PUSH1 0x0 DUP1 REVERT JUMPDEST PUSH4 0x4E487B71 PUSH1 0xE0 SHL PUSH1 0x0 MSTORE PUSH1 0x11 PUSH1 0x4 MSTORE PUSH1 0x24 PUSH1 0x0 REVERT JUMPDEST PUSH1 0x0 DUP3 NOT DUP3 GT ISZERO PUSH2 0xCE3 JUMPI PUSH2 0xCE3 PUSH2 0xCBA JUMP JUMPDEST POP ADD SWAP1 JUMP JUMPDEST PUSH4 0x4E487B71 PUSH1 0xE0 SHL PUSH1 0x0 MSTORE PUSH1 0x32 PUSH1 0x4 MSTORE PUSH1 0x24 PUSH1 0x0 REVERT JUMPDEST PUSH1 0x0 DUP3 DUP3 LT ISZERO PUSH2 0xD10 JUMPI PUSH2 0xD10 PUSH2 0xCBA JUMP JUMPDEST POP SUB SWAP1 JUMP JUMPDEST PUSH1 0x0 DUP2 PUSH1 0x0 NOT DIV DUP4 GT DUP3 ISZERO ISZERO AND ISZERO PUSH2 0xD2F JUMPI PUSH2 0xD2F PUSH2 0xCBA JUMP JUMPDEST POP MUL SWAP1 JUMP JUMPDEST PUSH1 0x0 DUP3 PUSH2 0xD51 JUMPI PUSH4 0x4E487B71 PUSH1 0xE0 SHL PUSH1 0x0 MSTORE PUSH1 0x12 PUSH1 0x4 MSTORE PUSH1 0x24 PUSH1 0x0 REVERT JUMPDEST POP DIV SWAP1 JUMP JUMPDEST PUSH1 0x0 PUSH1 0x20 DUP3 DUP5 SUB SLT ISZERO PUSH2 0xD68 JUMPI PUSH1 0x0 DUP1 REVERT JUMPDEST DUP2 MLOAD DUP1 ISZERO ISZERO DUP2 EQ PUSH2 0x81F JUMPI PUSH1 0x0 DUP1 REVERT JUMPDEST PUSH1 0x0 JUMPDEST DUP4 DUP2 LT ISZERO PUSH2 0xD93 JUMPI DUP2 DUP2 ADD MLOAD DUP4 DUP3 ADD MSTORE PUSH1 0x20 ADD PUSH2 0xD7B JUMP JUMPDEST DUP4 DUP2 GT ISZERO PUSH2 0xDA2 JUMPI PUSH1 0x0 DUP5 DUP5 ADD MSTORE JUMPDEST POP POP POP POP JUMP JUMPDEST PUSH1 0x0 DUP3 MLOAD PUSH2 0xDBA DUP2 DUP5 PUSH1 0x20 DUP8 ADD PUSH2 0xD78 JUMP JUMPDEST SWAP2 SWAP1 SWAP2 ADD SWAP3 SWAP2 POP POP JUMP JUMPDEST PUSH1 0x20 DUP2 MSTORE PUSH1 0x0 DUP3 MLOAD DUP1 PUSH1 0x20 DUP5 ADD MSTORE PUSH2 0xDE3 DUP2 PUSH1 0x40 DUP6 ADD PUSH1 0x20 DUP8 ADD PUSH2 0xD78 JUMP JUMPDEST PUSH1 0x1F ADD PUSH1 0x1F NOT AND SWAP2 SWAP1 SWAP2 ADD PUSH1 0x40 ADD SWAP3 SWAP2 POP POP JUMP INVALID LOG2 PUSH5 0x6970667358 0x22 SLT KECCAK256 SWAP8 MULMOD DUP4 0xE0 PUSH4 0x4846CF0F SWAP8 0xF6 ADDRESS 0xE0 DUP4 DELEGATECALL ORIGIN 0xE8 0xDE PUSH26 0xB1912F347BB6B3EBC010E575C464736F6C634300080B00330000 "
				},
				"gasEstimates": {
					"creation": {
						"codeDepositCost": "725800",
						"executionCost": "infinite",
						"totalCost": "infinite"
					},
					"external": {
						"_lastMonth(address)": "2496",
						"addMultiVesting((address,uint256)[])": "infinite",
						"deleteMultiVesting((address,uint256)[])": "infinite",
						"duration()": "infinite",
						"owner()": "2324",
						"releasable()": "infinite",
						"release()": "infinite",
						"released()": "4584",
						"renounceOwnership()": "28144",
						"start()": "infinite",
						"transferOwnership(address)": "28303",
						"vestedAmount(uint64)": "infinite"
					},
					"internal": {
						"_currentMonth()": "infinite",
						"_delete(address)": "infinite",
						"_unsafeInc(uint256)": "infinite",
						"_vest(address,uint256)": "24404",
						"_vestingSchedule(uint256,uint64)": "infinite",
						"currentMonth()": "infinite"
					}
				},
				"methodIdentifiers": {
					"_lastMonth(address)": "594c733f",
					"addMultiVesting((address,uint256)[])": "27c2e722",
					"deleteMultiVesting((address,uint256)[])": "de809847",
					"duration()": "0fb5a6b4",
					"owner()": "8da5cb5b",
					"releasable()": "fbccedae",
					"release()": "86d1a69f",
					"released()": "96132521",
					"renounceOwnership()": "715018a6",
					"start()": "be9a6555",
					"transferOwnership(address)": "f2fde38b",
					"vestedAmount(uint64)": "0a17b06b"
				}
			},
			"storageLayout": {
				"storage": [
					{
						"astId": 7,
						"contract": "contracts/Whitelist-2.0.sol:WhitelistVesting",
						"label": "_owner",
						"offset": 0,
						"slot": "0",
						"type": "t_address"
					},
					{
						"astId": 749,
						"contract": "contracts/Whitelist-2.0.sol:WhitelistVesting",
						"label": "_token",
						"offset": 0,
						"slot": "1",
						"type": "t_address"
					},
					{
						"astId": 755,
						"contract": "contracts/Whitelist-2.0.sol:WhitelistVesting",
						"label": "_erc20Released",
						"offset": 0,
						"slot": "2",
						"type": "t_mapping(t_address,t_mapping(t_address,t_uint256))"
					},
					{
						"astId": 759,
						"contract": "contracts/Whitelist-2.0.sol:WhitelistVesting",
						"label": "_beneficiary",
						"offset": 0,
						"slot": "3",
						"type": "t_mapping(t_address,t_uint256)"
					},
					{
						"astId": 767,
						"contract": "contracts/Whitelist-2.0.sol:WhitelistVesting",
						"label": "_lastMonth",
						"offset": 0,
						"slot": "4",
						"type": "t_mapping(t_address,t_uint256)"
					}
				],
				"types": {
					"t_address": {
						"encoding": "inplace",
						"label": "address",
						"numberOfBytes": "20"
					},
					"t_mapping(t_address,t_mapping(t_address,t_uint256))": {
						"encoding": "mapping",
						"key": "t_address",
						"label": "mapping(address => mapping(address => uint256))",
						"numberOfBytes": "32",
						"value": "t_mapping(t_address,t_uint256)"
					},
					"t_mapping(t_address,t_uint256)": {
						"encoding": "mapping",
						"key": "t_address",
						"label": "mapping(address => uint256)",
						"numberOfBytes": "32",
						"value": "t_uint256"
					},
					"t_uint256": {
						"encoding": "inplace",
						"label": "uint256",
						"numberOfBytes": "32"
					}
				}
			},
			"userdoc": {
				"kind": "user",
				"methods": {},
				"version": 1
			}
		}
	}
}