{
	"contracts/Whitelist-2.0.sol": {
		"WhitelistVesting": {
			"abi": [
				{
					"inputs": [
						{
							"internalType": "address",
							"name": "token",
							"type": "address"
						},
						{
							"internalType": "uint64",
							"name": "startTimestamp",
							"type": "uint64"
						},
						{
							"internalType": "uint64",
							"name": "durationSeconds",
							"type": "uint64"
						}
					],
					"stateMutability": "payable",
					"type": "constructor"
				},
				{
					"anonymous": false,
					"inputs": [
						{
							"indexed": true,
							"internalType": "address",
							"name": "token",
							"type": "address"
						},
						{
							"indexed": true,
							"internalType": "address",
							"name": "user",
							"type": "address"
						},
						{
							"indexed": false,
							"internalType": "uint256",
							"name": "amount",
							"type": "uint256"
						}
					],
					"name": "ERC20Released",
					"type": "event"
				},
				{
					"anonymous": false,
					"inputs": [
						{
							"indexed": true,
							"internalType": "address",
							"name": "previousOwner",
							"type": "address"
						},
						{
							"indexed": true,
							"internalType": "address",
							"name": "newOwner",
							"type": "address"
						}
					],
					"name": "OwnershipTransferred",
					"type": "event"
				},
				{
					"inputs": [
						{
							"components": [
								{
									"internalType": "address",
									"name": "user",
									"type": "address"
								},
								{
									"internalType": "uint256",
									"name": "amount",
									"type": "uint256"
								}
							],
							"internalType": "struct WhitelistVesting.Beneficiary[]",
							"name": "users",
							"type": "tuple[]"
						}
					],
					"name": "addMultiVesting",
					"outputs": [],
					"stateMutability": "nonpayable",
					"type": "function"
				},
				{
					"inputs": [
						{
							"components": [
								{
									"internalType": "address",
									"name": "user",
									"type": "address"
								},
								{
									"internalType": "uint256",
									"name": "amount",
									"type": "uint256"
								}
							],
							"internalType": "struct WhitelistVesting.Beneficiary[]",
							"name": "users",
							"type": "tuple[]"
						}
					],
					"name": "deleteMultiVesting",
					"outputs": [],
					"stateMutability": "nonpayable",
					"type": "function"
				},
				{
					"inputs": [],
					"name": "duration",
					"outputs": [
						{
							"internalType": "uint256",
							"name": "",
							"type": "uint256"
						}
					],
					"stateMutability": "view",
					"type": "function"
				},
				{
					"inputs": [],
					"name": "owner",
					"outputs": [
						{
							"internalType": "address",
							"name": "",
							"type": "address"
						}
					],
					"stateMutability": "view",
					"type": "function"
				},
				{
					"inputs": [],
					"name": "releasable",
					"outputs": [
						{
							"internalType": "uint256",
							"name": "",
							"type": "uint256"
						}
					],
					"stateMutability": "view",
					"type": "function"
				},
				{
					"inputs": [],
					"name": "release",
					"outputs": [],
					"stateMutability": "nonpayable",
					"type": "function"
				},
				{
					"inputs": [],
					"name": "released",
					"outputs": [
						{
							"internalType": "uint256",
							"name": "",
							"type": "uint256"
						}
					],
					"stateMutability": "view",
					"type": "function"
				},
				{
					"inputs": [],
					"name": "renounceOwnership",
					"outputs": [],
					"stateMutability": "nonpayable",
					"type": "function"
				},
				{
					"inputs": [],
					"name": "start",
					"outputs": [
						{
							"internalType": "uint256",
							"name": "",
							"type": "uint256"
						}
					],
					"stateMutability": "view",
					"type": "function"
				},
				{
					"inputs": [
						{
							"internalType": "address",
							"name": "newOwner",
							"type": "address"
						}
					],
					"name": "transferOwnership",
					"outputs": [],
					"stateMutability": "nonpayable",
					"type": "function"
				},
				{
					"inputs": [
						{
							"internalType": "uint64",
							"name": "timestamp",
							"type": "uint64"
						}
					],
					"name": "vestedAmount",
					"outputs": [
						{
							"internalType": "uint256",
							"name": "",
							"type": "uint256"
						}
					],
					"stateMutability": "view",
					"type": "function"
				},
				{
					"stateMutability": "payable",
					"type": "receive"
				}
			],
			"devdoc": {
				"details": "This contract handles the vesting of Eth and ERC20 tokens for a given beneficiary. Custody of multiple tokens can be given to this contract, which will release the token to the beneficiary following a given vesting schedule. The vesting schedule is customizable through the {vestedAmount} function. Any token transferred to this contract will follow the vesting schedule as if they were locked from the beginning. Consequently, if the vesting has already started, any amount of tokens sent to this contract will (at least partly) be immediately releasable.",
				"kind": "dev",
				"methods": {
					"constructor": {
						"details": "Set the beneficiary, start timestamp and vesting duration of the vesting wallet."
					},
					"duration()": {
						"details": "Getter for the vesting duration."
					},
					"owner()": {
						"details": "Returns the address of the current owner."
					},
					"releasable()": {
						"details": "Getter for the amount of releasable `token` tokens. `token` should be the address of an IERC20 contract."
					},
					"release()": {
						"details": "Release the tokens that have already vested. Emits a {ERC20Released} event."
					},
					"released()": {
						"details": "Amount of token already released"
					},
					"renounceOwnership()": {
						"details": "Leaves the contract without owner. It will not be possible to call `onlyOwner` functions anymore. Can only be called by the current owner. NOTE: Renouncing ownership will leave the contract without an owner, thereby removing any functionality that is only available to the owner."
					},
					"start()": {
						"details": "Getter for the start timestamp."
					},
					"transferOwnership(address)": {
						"details": "Transfers ownership of the contract to a new account (`newOwner`). Can only be called by the current owner."
					},
					"vestedAmount(uint64)": {
						"details": "Calculates the amount of tokens that has already vested. Default implementation is a linear vesting curve."
					}
				},
				"title": "VestingWallet",
				"version": 1
			},
			"evm": {
				"assembly": "    /* \"contracts/Whitelist-2.0.sol\":991:6142  contract WhitelistVesting is Context, Ownable {... */\n  mstore(0x40, 0xc0)\n    /* \"contracts/Whitelist-2.0.sol\":1794:2015  constructor(... */\n  mload(0x40)\n  sub(codesize, bytecodeSize)\n  dup1\n  bytecodeSize\n  dup4\n  codecopy\n  dup2\n  add\n  0x40\n  dup2\n  swap1\n  mstore\n  tag_1\n  swap2\n  tag_2\n  jump\t// in\ntag_1:\n    /* \"@openzeppelin/contracts/access/Ownable.sol\":921:953  _transferOwnership(_msgSender()) */\n  tag_6\n    /* \"@openzeppelin/contracts/utils/Context.sol\":719:729  msg.sender */\n  caller\n    /* \"@openzeppelin/contracts/access/Ownable.sol\":921:939  _transferOwnership */\n  tag_9\n    /* \"@openzeppelin/contracts/access/Ownable.sol\":921:953  _transferOwnership(_msgSender()) */\n  jump\t// in\ntag_6:\n    /* \"contracts/Whitelist-2.0.sol\":1921:1927  _token */\n  0x01\n    /* \"contracts/Whitelist-2.0.sol\":1921:1935  _token = token */\n  dup1\n  sload\n  not(sub(shl(0xa0, 0x01), 0x01))\n  and\n  sub(shl(0xa0, 0x01), 0x01)\n  swap5\n  swap1\n  swap5\n  and\n  swap4\n  swap1\n  swap4\n  or\n  swap1\n  swap3\n  sstore\n  sub(shl(0x40, 0x01), 0x01)\n    /* \"contracts/Whitelist-2.0.sol\":1946:1969  _start = startTimestamp */\n  swap1\n  dup2\n  and\n  0x80\n  mstore\n    /* \"contracts/Whitelist-2.0.sol\":1980:2007  _duration = durationSeconds */\n  and\n  0xa0\n  mstore\n    /* \"contracts/Whitelist-2.0.sol\":991:6142  contract WhitelistVesting is Context, Ownable {... */\n  jump(tag_15)\n    /* \"@openzeppelin/contracts/access/Ownable.sol\":2270:2457  function _transferOwnership(address newOwner) internal virtual {... */\ntag_9:\n    /* \"@openzeppelin/contracts/access/Ownable.sol\":2343:2359  address oldOwner */\n  0x00\n    /* \"@openzeppelin/contracts/access/Ownable.sol\":2362:2368  _owner */\n  dup1\n  sload\n  sub(shl(0xa0, 0x01), 0x01)\n    /* \"@openzeppelin/contracts/access/Ownable.sol\":2378:2395  _owner = newOwner */\n  dup4\n  dup2\n  and\n  not(sub(shl(0xa0, 0x01), 0x01))\n  dup4\n  and\n  dup2\n  or\n  dup5\n  sstore\n    /* \"@openzeppelin/contracts/access/Ownable.sol\":2410:2450  OwnershipTransferred(oldOwner, newOwner) */\n  mload(0x40)\n    /* \"@openzeppelin/contracts/access/Ownable.sol\":2362:2368  _owner */\n  swap2\n  swap1\n  swap3\n  and\n  swap3\n  dup4\n  swap2\n    /* \"@openzeppelin/contracts/access/Ownable.sol\":2410:2450  OwnershipTransferred(oldOwner, newOwner) */\n  0x8be0079c531659141344cd1fd0a4f28419497f9722a3daafe3b4186f6b6457e0\n  swap2\n    /* \"@openzeppelin/contracts/access/Ownable.sol\":2343:2359  address oldOwner */\n  swap1\n    /* \"@openzeppelin/contracts/access/Ownable.sol\":2410:2450  OwnershipTransferred(oldOwner, newOwner) */\n  log3\n    /* \"@openzeppelin/contracts/access/Ownable.sol\":2333:2457  {... */\n  pop\n    /* \"@openzeppelin/contracts/access/Ownable.sol\":2270:2457  function _transferOwnership(address newOwner) internal virtual {... */\n  pop\n  jump\t// out\n    /* \"#utility.yul\":14:189   */\ntag_14:\n    /* \"#utility.yul\":92:105   */\n  dup1\n  mload\n  sub(shl(0x40, 0x01), 0x01)\n    /* \"#utility.yul\":134:164   */\n  dup2\n  and\n    /* \"#utility.yul\":124:165   */\n  dup2\n  eq\n    /* \"#utility.yul\":114:183   */\n  tag_17\n  jumpi\n    /* \"#utility.yul\":179:180   */\n  0x00\n    /* \"#utility.yul\":176:177   */\n  dup1\n    /* \"#utility.yul\":169:181   */\n  revert\n    /* \"#utility.yul\":114:183   */\ntag_17:\n    /* \"#utility.yul\":14:189   */\n  swap2\n  swap1\n  pop\n  jump\t// out\n    /* \"#utility.yul\":194:650   */\ntag_2:\n    /* \"#utility.yul\":280:286   */\n  0x00\n    /* \"#utility.yul\":288:294   */\n  dup1\n    /* \"#utility.yul\":296:302   */\n  0x00\n    /* \"#utility.yul\":349:351   */\n  0x60\n    /* \"#utility.yul\":337:346   */\n  dup5\n    /* \"#utility.yul\":328:335   */\n  dup7\n    /* \"#utility.yul\":324:347   */\n  sub\n    /* \"#utility.yul\":320:352   */\n  slt\n    /* \"#utility.yul\":317:369   */\n  iszero\n  tag_19\n  jumpi\n    /* \"#utility.yul\":365:366   */\n  0x00\n    /* \"#utility.yul\":362:363   */\n  dup1\n    /* \"#utility.yul\":355:367   */\n  revert\n    /* \"#utility.yul\":317:369   */\ntag_19:\n    /* \"#utility.yul\":391:407   */\n  dup4\n  mload\n  sub(shl(0xa0, 0x01), 0x01)\n    /* \"#utility.yul\":436:467   */\n  dup2\n  and\n    /* \"#utility.yul\":426:468   */\n  dup2\n  eq\n    /* \"#utility.yul\":416:486   */\n  tag_20\n  jumpi\n    /* \"#utility.yul\":482:483   */\n  0x00\n    /* \"#utility.yul\":479:480   */\n  dup1\n    /* \"#utility.yul\":472:484   */\n  revert\n    /* \"#utility.yul\":416:486   */\ntag_20:\n    /* \"#utility.yul\":505:510   */\n  swap3\n  pop\n    /* \"#utility.yul\":529:577   */\n  tag_21\n    /* \"#utility.yul\":573:575   */\n  0x20\n    /* \"#utility.yul\":558:576   */\n  dup6\n  add\n    /* \"#utility.yul\":529:577   */\n  tag_14\n  jump\t// in\ntag_21:\n    /* \"#utility.yul\":519:577   */\n  swap2\n  pop\n    /* \"#utility.yul\":596:644   */\n  tag_22\n    /* \"#utility.yul\":640:642   */\n  0x40\n    /* \"#utility.yul\":629:638   */\n  dup6\n    /* \"#utility.yul\":625:643   */\n  add\n    /* \"#utility.yul\":596:644   */\n  tag_14\n  jump\t// in\ntag_22:\n    /* \"#utility.yul\":586:644   */\n  swap1\n  pop\n    /* \"#utility.yul\":194:650   */\n  swap3\n  pop\n  swap3\n  pop\n  swap3\n  jump\t// out\ntag_15:\n    /* \"contracts/Whitelist-2.0.sol\":991:6142  contract WhitelistVesting is Context, Ownable {... */\n  mload(0x80)\n  mload(0xa0)\n  codecopy(0x00, dataOffset(sub_0), dataSize(sub_0))\n  0x00\n  assignImmutable(\"0x9b0d5a2681b52b4560ba0a55dc00d44d52ed130b12e9b1ecacbe9f4e75788d40\")\n  0x00\n  assignImmutable(\"0xb0c7bc42bdbc6fc210fecd6a5f5b923061cceb0f8ca5c7d964d5c22fc0e4b0b6\")\n  return(0x00, dataSize(sub_0))\nstop\n\nsub_0: assembly {\n        /* \"contracts/Whitelist-2.0.sol\":991:6142  contract WhitelistVesting is Context, Ownable {... */\n      mstore(0x40, 0x80)\n      jumpi(tag_1, lt(calldatasize, 0x04))\n      shr(0xe0, calldataload(0x00))\n      dup1\n      0x8da5cb5b\n      gt\n      tag_14\n      jumpi\n      dup1\n      0xde809847\n      gt\n      tag_15\n      jumpi\n      dup1\n      0xde809847\n      eq\n      tag_11\n      jumpi\n      dup1\n      0xf2fde38b\n      eq\n      tag_12\n      jumpi\n      dup1\n      0xfbccedae\n      eq\n      tag_13\n      jumpi\n      0x00\n      dup1\n      revert\n    tag_15:\n      dup1\n      0x8da5cb5b\n      eq\n      tag_8\n      jumpi\n      dup1\n      0x96132521\n      eq\n      tag_9\n      jumpi\n      dup1\n      0xbe9a6555\n      eq\n      tag_10\n      jumpi\n      0x00\n      dup1\n      revert\n    tag_14:\n      dup1\n      0x27c2e722\n      gt\n      tag_16\n      jumpi\n      dup1\n      0x27c2e722\n      eq\n      tag_5\n      jumpi\n      dup1\n      0x715018a6\n      eq\n      tag_6\n      jumpi\n      dup1\n      0x86d1a69f\n      eq\n      tag_7\n      jumpi\n      0x00\n      dup1\n      revert\n    tag_16:\n      dup1\n      0x0a17b06b\n      eq\n      tag_3\n      jumpi\n      dup1\n      0x0fb5a6b4\n      eq\n      tag_4\n      jumpi\n      0x00\n      dup1\n      revert\n    tag_1:\n      jumpi(tag_2, calldatasize)\n      stop\n    tag_2:\n      0x00\n      dup1\n      revert\n        /* \"contracts/Whitelist-2.0.sol\":5119:5523  function vestedAmount(uint64 timestamp)... */\n    tag_3:\n      callvalue\n      dup1\n      iszero\n      tag_19\n      jumpi\n      0x00\n      dup1\n      revert\n    tag_19:\n      pop\n      tag_20\n      tag_21\n      calldatasize\n      0x04\n      tag_22\n      jump\t// in\n    tag_21:\n      tag_23\n      jump\t// in\n    tag_20:\n      mload(0x40)\n        /* \"#utility.yul\":449:474   */\n      swap1\n      dup2\n      mstore\n        /* \"#utility.yul\":437:439   */\n      0x20\n        /* \"#utility.yul\":422:440   */\n      add\n        /* \"contracts/Whitelist-2.0.sol\":5119:5523  function vestedAmount(uint64 timestamp)... */\n    tag_24:\n      mload(0x40)\n      dup1\n      swap2\n      sub\n      swap1\n      return\n        /* \"contracts/Whitelist-2.0.sol\":2365:2458  function duration() public view virtual returns (uint256) {... */\n    tag_4:\n      callvalue\n      dup1\n      iszero\n      tag_26\n      jumpi\n      0x00\n      dup1\n      revert\n    tag_26:\n      pop\n        /* \"contracts/Whitelist-2.0.sol\":2441:2450  _duration */\n      immutable(\"0x9b0d5a2681b52b4560ba0a55dc00d44d52ed130b12e9b1ecacbe9f4e75788d40\")\n        /* \"contracts/Whitelist-2.0.sol\":2434:2450  return _duration */\n      0xffffffffffffffff\n      and\n        /* \"contracts/Whitelist-2.0.sol\":2365:2458  function duration() public view virtual returns (uint256) {... */\n      jump(tag_20)\n        /* \"contracts/Whitelist-2.0.sol\":3640:3853  function addMultiVesting(Beneficiary[] calldata users) external onlyOwner {... */\n    tag_5:\n      callvalue\n      dup1\n      iszero\n      tag_30\n      jumpi\n      0x00\n      dup1\n      revert\n    tag_30:\n      pop\n      tag_31\n      tag_32\n      calldatasize\n      0x04\n      tag_33\n      jump\t// in\n    tag_32:\n      tag_34\n      jump\t// in\n    tag_31:\n      stop\n        /* \"@openzeppelin/contracts/access/Ownable.sol\":1668:1769  function renounceOwnership() public virtual onlyOwner {... */\n    tag_6:\n      callvalue\n      dup1\n      iszero\n      tag_35\n      jumpi\n      0x00\n      dup1\n      revert\n    tag_35:\n      pop\n      tag_31\n      tag_37\n      jump\t// in\n        /* \"contracts/Whitelist-2.0.sol\":4216:4663  function release() public virtual {... */\n    tag_7:\n      callvalue\n      dup1\n      iszero\n      tag_38\n      jumpi\n      0x00\n      dup1\n      revert\n    tag_38:\n      pop\n      tag_31\n      tag_40\n      jump\t// in\n        /* \"@openzeppelin/contracts/access/Ownable.sol\":1036:1121  function owner() public view virtual returns (address) {... */\n    tag_8:\n      callvalue\n      dup1\n      iszero\n      tag_41\n      jumpi\n      0x00\n      dup1\n      revert\n    tag_41:\n      pop\n        /* \"@openzeppelin/contracts/access/Ownable.sol\":1082:1089  address */\n      0x00\n        /* \"@openzeppelin/contracts/access/Ownable.sol\":1108:1114  _owner */\n      sload\n        /* \"@openzeppelin/contracts/access/Ownable.sol\":1036:1121  function owner() public view virtual returns (address) {... */\n      mload(0x40)\n      sub(shl(0xa0, 0x01), 0x01)\n        /* \"@openzeppelin/contracts/access/Ownable.sol\":1108:1114  _owner */\n      swap1\n      swap2\n      and\n        /* \"#utility.yul\":1281:1355   */\n      dup2\n      mstore\n        /* \"#utility.yul\":1269:1271   */\n      0x20\n        /* \"#utility.yul\":1254:1272   */\n      add\n        /* \"@openzeppelin/contracts/access/Ownable.sol\":1036:1121  function owner() public view virtual returns (address) {... */\n      tag_24\n        /* \"#utility.yul\":1135:1361   */\n      jump\n        /* \"contracts/Whitelist-2.0.sol\":2530:2648  function released() public view virtual returns (uint256) {... */\n    tag_9:\n      callvalue\n      dup1\n      iszero\n      tag_46\n      jumpi\n      0x00\n      dup1\n      revert\n    tag_46:\n      pop\n        /* \"contracts/Whitelist-2.0.sol\":2621:2627  _token */\n      and(sub(shl(0xa0, 0x01), 0x01), sload(0x01))\n        /* \"contracts/Whitelist-2.0.sol\":2579:2586  uint256 */\n      0x00\n        /* \"contracts/Whitelist-2.0.sol\":2606:2628  _erc20Released[_token] */\n      swap1\n      dup2\n      mstore\n        /* \"contracts/Whitelist-2.0.sol\":2606:2620  _erc20Released */\n      0x02\n        /* \"contracts/Whitelist-2.0.sol\":2606:2628  _erc20Released[_token] */\n      0x20\n      swap1\n      dup2\n      mstore\n      0x40\n      dup1\n      dup4\n      keccak256\n        /* \"contracts/Whitelist-2.0.sol\":2629:2639  msg.sender */\n      caller\n        /* \"contracts/Whitelist-2.0.sol\":2606:2640  _erc20Released[_token][msg.sender] */\n      dup5\n      mstore\n      swap1\n      swap2\n      mstore\n      swap1\n      keccak256\n      sload\n        /* \"contracts/Whitelist-2.0.sol\":2530:2648  function released() public view virtual returns (uint256) {... */\n      jump(tag_20)\n        /* \"contracts/Whitelist-2.0.sol\":2206:2293  function start() public view virtual returns (uint256) {... */\n    tag_10:\n      callvalue\n      dup1\n      iszero\n      tag_50\n      jumpi\n      0x00\n      dup1\n      revert\n    tag_50:\n      pop\n        /* \"contracts/Whitelist-2.0.sol\":2279:2285  _start */\n      immutable(\"0xb0c7bc42bdbc6fc210fecd6a5f5b923061cceb0f8ca5c7d964d5c22fc0e4b0b6\")\n        /* \"contracts/Whitelist-2.0.sol\":2272:2285  return _start */\n      0xffffffffffffffff\n      and\n        /* \"contracts/Whitelist-2.0.sol\":2206:2293  function start() public view virtual returns (uint256) {... */\n      jump(tag_20)\n        /* \"contracts/Whitelist-2.0.sol\":3861:4085  function deleteMultiVesting(Beneficiary[] calldata users)... */\n    tag_11:\n      callvalue\n      dup1\n      iszero\n      tag_54\n      jumpi\n      0x00\n      dup1\n      revert\n    tag_54:\n      pop\n      tag_31\n      tag_56\n      calldatasize\n      0x04\n      tag_33\n      jump\t// in\n    tag_56:\n      tag_57\n      jump\t// in\n        /* \"@openzeppelin/contracts/access/Ownable.sol\":1918:2116  function transferOwnership(address newOwner) public virtual onlyOwner {... */\n    tag_12:\n      callvalue\n      dup1\n      iszero\n      tag_58\n      jumpi\n      0x00\n      dup1\n      revert\n    tag_58:\n      pop\n      tag_31\n      tag_60\n      calldatasize\n      0x04\n      tag_61\n      jump\t// in\n    tag_60:\n      tag_62\n      jump\t// in\n        /* \"contracts/Whitelist-2.0.sol\":2800:2936  function releasable() public view virtual returns (uint256) {... */\n    tag_13:\n      callvalue\n      dup1\n      iszero\n      tag_63\n      jumpi\n      0x00\n      dup1\n      revert\n    tag_63:\n      pop\n      tag_20\n      tag_65\n      jump\t// in\n        /* \"contracts/Whitelist-2.0.sol\":5119:5523  function vestedAmount(uint64 timestamp)... */\n    tag_23:\n        /* \"contracts/Whitelist-2.0.sol\":2621:2627  _token */\n      and(sub(shl(0xa0, 0x01), 0x01), sload(0x01))\n        /* \"contracts/Whitelist-2.0.sol\":5224:5231  uint256 */\n      0x00\n        /* \"contracts/Whitelist-2.0.sol\":2606:2628  _erc20Released[_token] */\n      swap1\n      dup2\n      mstore\n        /* \"contracts/Whitelist-2.0.sol\":2606:2620  _erc20Released */\n      0x02\n        /* \"contracts/Whitelist-2.0.sol\":2606:2628  _erc20Released[_token] */\n      0x20\n      swap1\n      dup2\n      mstore\n      0x40\n      dup1\n      dup4\n      keccak256\n        /* \"contracts/Whitelist-2.0.sol\":2629:2639  msg.sender */\n      caller\n        /* \"contracts/Whitelist-2.0.sol\":2606:2640  _erc20Released[_token][msg.sender] */\n      dup5\n      mstore\n      dup3\n      mstore\n      dup1\n      dup4\n      keccak256\n      sload\n        /* \"contracts/Whitelist-2.0.sol\":5466:5478  _beneficiary */\n      0x03\n        /* \"contracts/Whitelist-2.0.sol\":5466:5490  _beneficiary[msg.sender] */\n      swap1\n      swap3\n      mstore\n      dup3\n      keccak256\n      sload\n        /* \"contracts/Whitelist-2.0.sol\":5449:5515  _vestingSchedule(_beneficiary[msg.sender] + released(), timestamp) */\n      tag_68\n      swap2\n        /* \"contracts/Whitelist-2.0.sol\":5466:5503  _beneficiary[msg.sender] + released() */\n      tag_70\n      swap2\n      tag_71\n      jump\t// in\n    tag_70:\n        /* \"contracts/Whitelist-2.0.sol\":5505:5514  timestamp */\n      dup4\n        /* \"contracts/Whitelist-2.0.sol\":5449:5465  _vestingSchedule */\n      tag_72\n        /* \"contracts/Whitelist-2.0.sol\":5449:5515  _vestingSchedule(_beneficiary[msg.sender] + released(), timestamp) */\n      jump\t// in\n    tag_68:\n        /* \"contracts/Whitelist-2.0.sol\":5429:5515  return... */\n      swap3\n        /* \"contracts/Whitelist-2.0.sol\":5119:5523  function vestedAmount(uint64 timestamp)... */\n      swap2\n      pop\n      pop\n      jump\t// out\n        /* \"contracts/Whitelist-2.0.sol\":3640:3853  function addMultiVesting(Beneficiary[] calldata users) external onlyOwner {... */\n    tag_34:\n        /* \"@openzeppelin/contracts/access/Ownable.sol\":1082:1089  address */\n      0x00\n        /* \"@openzeppelin/contracts/access/Ownable.sol\":1108:1114  _owner */\n      sload\n      sub(shl(0xa0, 0x01), 0x01)\n      and\n        /* \"@openzeppelin/contracts/utils/Context.sol\":719:729  msg.sender */\n      caller\n        /* \"@openzeppelin/contracts/access/Ownable.sol\":1248:1271  owner() == _msgSender() */\n      eq\n        /* \"@openzeppelin/contracts/access/Ownable.sol\":1240:1308  require(owner() == _msgSender(), \"Ownable: caller is not the owner\") */\n      tag_78\n      jumpi\n      mload(0x40)\n      shl(0xe5, 0x461bcd)\n      dup2\n      mstore\n        /* \"#utility.yul\":2204:2206   */\n      0x20\n        /* \"@openzeppelin/contracts/access/Ownable.sol\":1240:1308  require(owner() == _msgSender(), \"Ownable: caller is not the owner\") */\n      0x04\n      dup3\n      add\n        /* \"#utility.yul\":2186:2207   */\n      dup2\n      swap1\n      mstore\n        /* \"#utility.yul\":2223:2241   */\n      0x24\n      dup3\n      add\n        /* \"#utility.yul\":2216:2246   */\n      mstore\n        /* \"#utility.yul\":2282:2316   */\n      0x4f776e61626c653a2063616c6c6572206973206e6f7420746865206f776e6572\n        /* \"#utility.yul\":2262:2280   */\n      0x44\n      dup3\n      add\n        /* \"#utility.yul\":2255:2317   */\n      mstore\n        /* \"#utility.yul\":2334:2352   */\n      0x64\n      add\n        /* \"@openzeppelin/contracts/access/Ownable.sol\":1240:1308  require(owner() == _msgSender(), \"Ownable: caller is not the owner\") */\n    tag_79:\n      mload(0x40)\n      dup1\n      swap2\n      sub\n      swap1\n      revert\n    tag_78:\n        /* \"contracts/Whitelist-2.0.sol\":3730:3739  uint256 i */\n      0x00\n        /* \"contracts/Whitelist-2.0.sol\":3725:3846  for (uint256 i = 0; i < users.length; i = _unsafeInc(i)) {... */\n    tag_82:\n        /* \"contracts/Whitelist-2.0.sol\":3745:3761  i < users.length */\n      dup2\n      dup2\n      lt\n        /* \"contracts/Whitelist-2.0.sol\":3725:3846  for (uint256 i = 0; i < users.length; i = _unsafeInc(i)) {... */\n      iszero\n      tag_83\n      jumpi\n        /* \"contracts/Whitelist-2.0.sol\":3797:3834  _vest(users[i].user, users[i].amount) */\n      tag_85\n        /* \"contracts/Whitelist-2.0.sol\":3803:3808  users */\n      dup4\n      dup4\n        /* \"contracts/Whitelist-2.0.sol\":3809:3810  i */\n      dup4\n        /* \"contracts/Whitelist-2.0.sol\":3803:3811  users[i] */\n      dup2\n      dup2\n      lt\n      tag_87\n      jumpi\n      tag_87\n      tag_88\n      jump\t// in\n    tag_87:\n        /* \"contracts/Whitelist-2.0.sol\":3803:3816  users[i].user */\n      tag_89\n      swap3\n      0x20\n        /* \"contracts/Whitelist-2.0.sol\":3803:3811  users[i] */\n      0x40\n      swap1\n      swap3\n      mul\n      add\n        /* \"contracts/Whitelist-2.0.sol\":3803:3816  users[i].user */\n      swap1\n      dup2\n      add\n      swap2\n      pop\n      tag_61\n      jump\t// in\n    tag_89:\n        /* \"contracts/Whitelist-2.0.sol\":3818:3823  users */\n      dup5\n      dup5\n        /* \"contracts/Whitelist-2.0.sol\":3824:3825  i */\n      dup5\n        /* \"contracts/Whitelist-2.0.sol\":3818:3826  users[i] */\n      dup2\n      dup2\n      lt\n      tag_91\n      jumpi\n      tag_91\n      tag_88\n      jump\t// in\n    tag_91:\n      swap1\n      pop\n      0x40\n      mul\n      add\n        /* \"contracts/Whitelist-2.0.sol\":3818:3833  users[i].amount */\n      0x20\n      add\n      calldataload\n        /* \"contracts/Whitelist-2.0.sol\":3797:3802  _vest */\n      tag_92\n        /* \"contracts/Whitelist-2.0.sol\":3797:3834  _vest(users[i].user, users[i].amount) */\n      jump\t// in\n    tag_85:\n        /* \"contracts/Whitelist-2.0.sol\":3282:3283  1 */\n      0x01\n        /* \"contracts/Whitelist-2.0.sol\":3278:3283  x + 1 */\n      add\n        /* \"contracts/Whitelist-2.0.sol\":3725:3846  for (uint256 i = 0; i < users.length; i = _unsafeInc(i)) {... */\n      jump(tag_82)\n    tag_83:\n      pop\n        /* \"contracts/Whitelist-2.0.sol\":3640:3853  function addMultiVesting(Beneficiary[] calldata users) external onlyOwner {... */\n      pop\n      pop\n      jump\t// out\n        /* \"@openzeppelin/contracts/access/Ownable.sol\":1668:1769  function renounceOwnership() public virtual onlyOwner {... */\n    tag_37:\n        /* \"@openzeppelin/contracts/access/Ownable.sol\":1082:1089  address */\n      0x00\n        /* \"@openzeppelin/contracts/access/Ownable.sol\":1108:1114  _owner */\n      sload\n      sub(shl(0xa0, 0x01), 0x01)\n      and\n        /* \"@openzeppelin/contracts/utils/Context.sol\":719:729  msg.sender */\n      caller\n        /* \"@openzeppelin/contracts/access/Ownable.sol\":1248:1271  owner() == _msgSender() */\n      eq\n        /* \"@openzeppelin/contracts/access/Ownable.sol\":1240:1308  require(owner() == _msgSender(), \"Ownable: caller is not the owner\") */\n      tag_98\n      jumpi\n      mload(0x40)\n      shl(0xe5, 0x461bcd)\n      dup2\n      mstore\n        /* \"#utility.yul\":2204:2206   */\n      0x20\n        /* \"@openzeppelin/contracts/access/Ownable.sol\":1240:1308  require(owner() == _msgSender(), \"Ownable: caller is not the owner\") */\n      0x04\n      dup3\n      add\n        /* \"#utility.yul\":2186:2207   */\n      dup2\n      swap1\n      mstore\n        /* \"#utility.yul\":2223:2241   */\n      0x24\n      dup3\n      add\n        /* \"#utility.yul\":2216:2246   */\n      mstore\n        /* \"#utility.yul\":2282:2316   */\n      0x4f776e61626c653a2063616c6c6572206973206e6f7420746865206f776e6572\n        /* \"#utility.yul\":2262:2280   */\n      0x44\n      dup3\n      add\n        /* \"#utility.yul\":2255:2317   */\n      mstore\n        /* \"#utility.yul\":2334:2352   */\n      0x64\n      add\n        /* \"@openzeppelin/contracts/access/Ownable.sol\":1240:1308  require(owner() == _msgSender(), \"Ownable: caller is not the owner\") */\n      tag_79\n        /* \"#utility.yul\":2002:2358   */\n      jump\n        /* \"@openzeppelin/contracts/access/Ownable.sol\":1240:1308  require(owner() == _msgSender(), \"Ownable: caller is not the owner\") */\n    tag_98:\n        /* \"@openzeppelin/contracts/access/Ownable.sol\":1732:1762  _transferOwnership(address(0)) */\n      tag_101\n        /* \"@openzeppelin/contracts/access/Ownable.sol\":1759:1760  0 */\n      0x00\n        /* \"@openzeppelin/contracts/access/Ownable.sol\":1732:1750  _transferOwnership */\n      tag_102\n        /* \"@openzeppelin/contracts/access/Ownable.sol\":1732:1762  _transferOwnership(address(0)) */\n      jump\t// in\n    tag_101:\n        /* \"@openzeppelin/contracts/access/Ownable.sol\":1668:1769  function renounceOwnership() public virtual onlyOwner {... */\n      jump\t// out\n        /* \"contracts/Whitelist-2.0.sol\":4216:4663  function release() public virtual {... */\n    tag_40:\n        /* \"contracts/Whitelist-2.0.sol\":4261:4275  uint256 amount */\n      0x00\n        /* \"contracts/Whitelist-2.0.sol\":4278:4290  releasable() */\n      tag_104\n        /* \"contracts/Whitelist-2.0.sol\":4278:4288  releasable */\n      tag_65\n        /* \"contracts/Whitelist-2.0.sol\":4278:4290  releasable() */\n      jump\t// in\n    tag_104:\n        /* \"contracts/Whitelist-2.0.sol\":4334:4344  msg.sender */\n      caller\n        /* \"contracts/Whitelist-2.0.sol\":4323:4345  _lastMonth[msg.sender] */\n      0x00\n      swap1\n      dup2\n      mstore\n        /* \"contracts/Whitelist-2.0.sol\":4323:4333  _lastMonth */\n      0x04\n        /* \"contracts/Whitelist-2.0.sol\":4323:4345  _lastMonth[msg.sender] */\n      0x20\n      mstore\n      0x40\n      swap1\n      keccak256\n      sload\n        /* \"contracts/Whitelist-2.0.sol\":4261:4290  uint256 amount = releasable() */\n      swap1\n      swap2\n      pop\n        /* \"contracts/Whitelist-2.0.sol\":4305:4320  _currentMonth() */\n      tag_105\n        /* \"contracts/Whitelist-2.0.sol\":4305:4318  _currentMonth */\n      tag_106\n        /* \"contracts/Whitelist-2.0.sol\":4305:4320  _currentMonth() */\n      jump\t// in\n    tag_105:\n        /* \"contracts/Whitelist-2.0.sol\":4305:4345  _currentMonth() > _lastMonth[msg.sender] */\n      gt\n        /* \"contracts/Whitelist-2.0.sol\":4301:4656  if (_currentMonth() > _lastMonth[msg.sender]) {... */\n      iszero\n      tag_113\n      jumpi\n        /* \"contracts/Whitelist-2.0.sol\":4387:4402  _currentMonth() */\n      tag_108\n        /* \"contracts/Whitelist-2.0.sol\":4387:4400  _currentMonth */\n      tag_106\n        /* \"contracts/Whitelist-2.0.sol\":4387:4402  _currentMonth() */\n      jump\t// in\n    tag_108:\n        /* \"contracts/Whitelist-2.0.sol\":4373:4383  msg.sender */\n      caller\n        /* \"contracts/Whitelist-2.0.sol\":4362:4384  _lastMonth[msg.sender] */\n      0x00\n      swap1\n      dup2\n      mstore\n        /* \"contracts/Whitelist-2.0.sol\":4362:4372  _lastMonth */\n      0x04\n        /* \"contracts/Whitelist-2.0.sol\":4362:4384  _lastMonth[msg.sender] */\n      0x20\n      swap1\n      dup2\n      mstore\n      0x40\n      dup1\n      dup4\n      keccak256\n        /* \"contracts/Whitelist-2.0.sol\":4362:4402  _lastMonth[msg.sender] = _currentMonth() */\n      swap4\n      swap1\n      swap4\n      sstore\n        /* \"contracts/Whitelist-2.0.sol\":4417:4429  _beneficiary */\n      0x03\n        /* \"contracts/Whitelist-2.0.sol\":4417:4441  _beneficiary[msg.sender] */\n      swap1\n      mstore\n      swap1\n      dup2\n      keccak256\n        /* \"contracts/Whitelist-2.0.sol\":4417:4451  _beneficiary[msg.sender] -= amount */\n      dup1\n      sload\n        /* \"contracts/Whitelist-2.0.sol\":4445:4451  amount */\n      dup4\n      swap3\n        /* \"contracts/Whitelist-2.0.sol\":4362:4384  _lastMonth[msg.sender] */\n      swap1\n        /* \"contracts/Whitelist-2.0.sol\":4417:4451  _beneficiary[msg.sender] -= amount */\n      tag_109\n      swap1\n        /* \"contracts/Whitelist-2.0.sol\":4445:4451  amount */\n      dup5\n      swap1\n        /* \"contracts/Whitelist-2.0.sol\":4417:4451  _beneficiary[msg.sender] -= amount */\n      tag_110\n      jump\t// in\n    tag_109:\n      swap1\n      swap2\n      sstore\n      pop\n      pop\n        /* \"contracts/Whitelist-2.0.sol\":4481:4487  _token */\n      and(sub(shl(0xa0, 0x01), 0x01), sload(0x01))\n        /* \"contracts/Whitelist-2.0.sol\":4466:4488  _erc20Released[_token] */\n      0x00\n      swap1\n      dup2\n      mstore\n        /* \"contracts/Whitelist-2.0.sol\":4466:4480  _erc20Released */\n      0x02\n        /* \"contracts/Whitelist-2.0.sol\":4466:4488  _erc20Released[_token] */\n      0x20\n      swap1\n      dup2\n      mstore\n      0x40\n      dup1\n      dup4\n      keccak256\n        /* \"contracts/Whitelist-2.0.sol\":4489:4499  msg.sender */\n      caller\n        /* \"contracts/Whitelist-2.0.sol\":4466:4500  _erc20Released[_token][msg.sender] */\n      dup5\n      mstore\n      swap1\n      swap2\n      mstore\n      dup2\n      keccak256\n        /* \"contracts/Whitelist-2.0.sol\":4466:4510  _erc20Released[_token][msg.sender] += amount */\n      dup1\n      sload\n        /* \"contracts/Whitelist-2.0.sol\":4504:4510  amount */\n      dup4\n      swap3\n        /* \"contracts/Whitelist-2.0.sol\":4466:4488  _erc20Released[_token] */\n      swap1\n        /* \"contracts/Whitelist-2.0.sol\":4466:4510  _erc20Released[_token][msg.sender] += amount */\n      tag_111\n      swap1\n        /* \"contracts/Whitelist-2.0.sol\":4504:4510  amount */\n      dup5\n      swap1\n        /* \"contracts/Whitelist-2.0.sol\":4466:4510  _erc20Released[_token][msg.sender] += amount */\n      tag_71\n      jump\t// in\n    tag_111:\n      swap1\n      swap2\n      sstore\n      pop\n      pop\n        /* \"contracts/Whitelist-2.0.sol\":4544:4550  _token */\n      sload(0x01)\n        /* \"contracts/Whitelist-2.0.sol\":4530:4571  ERC20Released(_token, msg.sender, amount) */\n      mload(0x40)\n        /* \"#utility.yul\":449:474   */\n      dup3\n      dup2\n      mstore\n        /* \"contracts/Whitelist-2.0.sol\":4552:4562  msg.sender */\n      caller\n      swap2\n      sub(shl(0xa0, 0x01), 0x01)\n        /* \"contracts/Whitelist-2.0.sol\":4544:4550  _token */\n      and\n      swap1\n        /* \"contracts/Whitelist-2.0.sol\":4530:4571  ERC20Released(_token, msg.sender, amount) */\n      0x1998e30db89daf293a52c4fc4c4470cd506aafc3f9683e8e5daddad80cd6f4a4\n      swap1\n        /* \"#utility.yul\":437:439   */\n      0x20\n        /* \"#utility.yul\":422:440   */\n      add\n        /* \"contracts/Whitelist-2.0.sol\":4530:4571  ERC20Released(_token, msg.sender, amount) */\n      mload(0x40)\n      dup1\n      swap2\n      sub\n      swap1\n      log3\n        /* \"contracts/Whitelist-2.0.sol\":4616:4622  _token */\n      sload(0x01)\n        /* \"contracts/Whitelist-2.0.sol\":4586:4644  SafeERC20.safeTransfer(IERC20(_token), msg.sender, amount) */\n      tag_113\n      swap1\n      sub(shl(0xa0, 0x01), 0x01)\n        /* \"contracts/Whitelist-2.0.sol\":4616:4622  _token */\n      and\n        /* \"contracts/Whitelist-2.0.sol\":4625:4635  msg.sender */\n      caller\n        /* \"contracts/Whitelist-2.0.sol\":4637:4643  amount */\n      dup4\n        /* \"contracts/Whitelist-2.0.sol\":4586:4608  SafeERC20.safeTransfer */\n      tag_114\n        /* \"contracts/Whitelist-2.0.sol\":4586:4644  SafeERC20.safeTransfer(IERC20(_token), msg.sender, amount) */\n      jump\t// in\n    tag_113:\n        /* \"contracts/Whitelist-2.0.sol\":4250:4663  {... */\n      pop\n        /* \"contracts/Whitelist-2.0.sol\":4216:4663  function release() public virtual {... */\n      jump\t// out\n        /* \"contracts/Whitelist-2.0.sol\":3861:4085  function deleteMultiVesting(Beneficiary[] calldata users)... */\n    tag_57:\n        /* \"@openzeppelin/contracts/access/Ownable.sol\":1082:1089  address */\n      0x00\n        /* \"@openzeppelin/contracts/access/Ownable.sol\":1108:1114  _owner */\n      sload\n      sub(shl(0xa0, 0x01), 0x01)\n      and\n        /* \"@openzeppelin/contracts/utils/Context.sol\":719:729  msg.sender */\n      caller\n        /* \"@openzeppelin/contracts/access/Ownable.sol\":1248:1271  owner() == _msgSender() */\n      eq\n        /* \"@openzeppelin/contracts/access/Ownable.sol\":1240:1308  require(owner() == _msgSender(), \"Ownable: caller is not the owner\") */\n      tag_121\n      jumpi\n      mload(0x40)\n      shl(0xe5, 0x461bcd)\n      dup2\n      mstore\n        /* \"#utility.yul\":2204:2206   */\n      0x20\n        /* \"@openzeppelin/contracts/access/Ownable.sol\":1240:1308  require(owner() == _msgSender(), \"Ownable: caller is not the owner\") */\n      0x04\n      dup3\n      add\n        /* \"#utility.yul\":2186:2207   */\n      dup2\n      swap1\n      mstore\n        /* \"#utility.yul\":2223:2241   */\n      0x24\n      dup3\n      add\n        /* \"#utility.yul\":2216:2246   */\n      mstore\n        /* \"#utility.yul\":2282:2316   */\n      0x4f776e61626c653a2063616c6c6572206973206e6f7420746865206f776e6572\n        /* \"#utility.yul\":2262:2280   */\n      0x44\n      dup3\n      add\n        /* \"#utility.yul\":2255:2317   */\n      mstore\n        /* \"#utility.yul\":2334:2352   */\n      0x64\n      add\n        /* \"@openzeppelin/contracts/access/Ownable.sol\":1240:1308  require(owner() == _msgSender(), \"Ownable: caller is not the owner\") */\n      tag_79\n        /* \"#utility.yul\":2002:2358   */\n      jump\n        /* \"@openzeppelin/contracts/access/Ownable.sol\":1240:1308  require(owner() == _msgSender(), \"Ownable: caller is not the owner\") */\n    tag_121:\n        /* \"contracts/Whitelist-2.0.sol\":3977:3986  uint256 i */\n      0x00\n        /* \"contracts/Whitelist-2.0.sol\":3972:4078  for (uint256 i = 0; i < users.length; i = _unsafeInc(i)) {... */\n    tag_124:\n        /* \"contracts/Whitelist-2.0.sol\":3992:4008  i < users.length */\n      dup2\n      dup2\n      lt\n        /* \"contracts/Whitelist-2.0.sol\":3972:4078  for (uint256 i = 0; i < users.length; i = _unsafeInc(i)) {... */\n      iszero\n      tag_83\n      jumpi\n        /* \"contracts/Whitelist-2.0.sol\":4044:4066  _delete(users[i].user) */\n      tag_127\n        /* \"contracts/Whitelist-2.0.sol\":4052:4057  users */\n      dup4\n      dup4\n        /* \"contracts/Whitelist-2.0.sol\":4058:4059  i */\n      dup4\n        /* \"contracts/Whitelist-2.0.sol\":4052:4060  users[i] */\n      dup2\n      dup2\n      lt\n      tag_129\n      jumpi\n      tag_129\n      tag_88\n      jump\t// in\n    tag_129:\n        /* \"contracts/Whitelist-2.0.sol\":4052:4065  users[i].user */\n      tag_130\n      swap3\n      0x20\n        /* \"contracts/Whitelist-2.0.sol\":4052:4060  users[i] */\n      0x40\n      swap1\n      swap3\n      mul\n      add\n        /* \"contracts/Whitelist-2.0.sol\":4052:4065  users[i].user */\n      swap1\n      dup2\n      add\n      swap2\n      pop\n      tag_61\n      jump\t// in\n    tag_130:\n      sub(shl(0xa0, 0x01), 0x01)\n        /* \"contracts/Whitelist-2.0.sol\":3606:3624  _beneficiary[user] */\n      and\n      0x00\n      swap1\n      dup2\n      mstore\n        /* \"contracts/Whitelist-2.0.sol\":3606:3618  _beneficiary */\n      0x03\n        /* \"contracts/Whitelist-2.0.sol\":3606:3624  _beneficiary[user] */\n      0x20\n      mstore\n      0x40\n      dup2\n      keccak256\n        /* \"contracts/Whitelist-2.0.sol\":3599:3624  delete _beneficiary[user] */\n      sstore\n        /* \"contracts/Whitelist-2.0.sol\":3548:3632  function _delete(address user) internal {... */\n      jump\n        /* \"contracts/Whitelist-2.0.sol\":4044:4066  _delete(users[i].user) */\n    tag_127:\n        /* \"contracts/Whitelist-2.0.sol\":3282:3283  1 */\n      0x01\n        /* \"contracts/Whitelist-2.0.sol\":3278:3283  x + 1 */\n      add\n        /* \"contracts/Whitelist-2.0.sol\":3972:4078  for (uint256 i = 0; i < users.length; i = _unsafeInc(i)) {... */\n      jump(tag_124)\n        /* \"@openzeppelin/contracts/access/Ownable.sol\":1918:2116  function transferOwnership(address newOwner) public virtual onlyOwner {... */\n    tag_62:\n        /* \"@openzeppelin/contracts/access/Ownable.sol\":1082:1089  address */\n      0x00\n        /* \"@openzeppelin/contracts/access/Ownable.sol\":1108:1114  _owner */\n      sload\n      sub(shl(0xa0, 0x01), 0x01)\n      and\n        /* \"@openzeppelin/contracts/utils/Context.sol\":719:729  msg.sender */\n      caller\n        /* \"@openzeppelin/contracts/access/Ownable.sol\":1248:1271  owner() == _msgSender() */\n      eq\n        /* \"@openzeppelin/contracts/access/Ownable.sol\":1240:1308  require(owner() == _msgSender(), \"Ownable: caller is not the owner\") */\n      tag_136\n      jumpi\n      mload(0x40)\n      shl(0xe5, 0x461bcd)\n      dup2\n      mstore\n        /* \"#utility.yul\":2204:2206   */\n      0x20\n        /* \"@openzeppelin/contracts/access/Ownable.sol\":1240:1308  require(owner() == _msgSender(), \"Ownable: caller is not the owner\") */\n      0x04\n      dup3\n      add\n        /* \"#utility.yul\":2186:2207   */\n      dup2\n      swap1\n      mstore\n        /* \"#utility.yul\":2223:2241   */\n      0x24\n      dup3\n      add\n        /* \"#utility.yul\":2216:2246   */\n      mstore\n        /* \"#utility.yul\":2282:2316   */\n      0x4f776e61626c653a2063616c6c6572206973206e6f7420746865206f776e6572\n        /* \"#utility.yul\":2262:2280   */\n      0x44\n      dup3\n      add\n        /* \"#utility.yul\":2255:2317   */\n      mstore\n        /* \"#utility.yul\":2334:2352   */\n      0x64\n      add\n        /* \"@openzeppelin/contracts/access/Ownable.sol\":1240:1308  require(owner() == _msgSender(), \"Ownable: caller is not the owner\") */\n      tag_79\n        /* \"#utility.yul\":2002:2358   */\n      jump\n        /* \"@openzeppelin/contracts/access/Ownable.sol\":1240:1308  require(owner() == _msgSender(), \"Ownable: caller is not the owner\") */\n    tag_136:\n      sub(shl(0xa0, 0x01), 0x01)\n        /* \"@openzeppelin/contracts/access/Ownable.sol\":2006:2028  newOwner != address(0) */\n      dup2\n      and\n        /* \"@openzeppelin/contracts/access/Ownable.sol\":1998:2071  require(newOwner != address(0), \"Ownable: new owner is the zero address\") */\n      tag_139\n      jumpi\n      mload(0x40)\n      shl(0xe5, 0x461bcd)\n      dup2\n      mstore\n        /* \"#utility.yul\":2884:2886   */\n      0x20\n        /* \"@openzeppelin/contracts/access/Ownable.sol\":1998:2071  require(newOwner != address(0), \"Ownable: new owner is the zero address\") */\n      0x04\n      dup3\n      add\n        /* \"#utility.yul\":2866:2887   */\n      mstore\n        /* \"#utility.yul\":2923:2925   */\n      0x26\n        /* \"#utility.yul\":2903:2921   */\n      0x24\n      dup3\n      add\n        /* \"#utility.yul\":2896:2926   */\n      mstore\n        /* \"#utility.yul\":2962:2996   */\n      0x4f776e61626c653a206e6577206f776e657220697320746865207a65726f2061\n        /* \"#utility.yul\":2942:2960   */\n      0x44\n      dup3\n      add\n        /* \"#utility.yul\":2935:2997   */\n      mstore\n        /* \"#utility.yul\":3033:3041   */\n      0x6464726573730000000000000000000000000000000000000000000000000000\n        /* \"#utility.yul\":3013:3031   */\n      0x64\n      dup3\n      add\n        /* \"#utility.yul\":3006:3042   */\n      mstore\n        /* \"#utility.yul\":3059:3078   */\n      0x84\n      add\n        /* \"@openzeppelin/contracts/access/Ownable.sol\":1998:2071  require(newOwner != address(0), \"Ownable: new owner is the zero address\") */\n      tag_79\n        /* \"#utility.yul\":2682:3084   */\n      jump\n        /* \"@openzeppelin/contracts/access/Ownable.sol\":1998:2071  require(newOwner != address(0), \"Ownable: new owner is the zero address\") */\n    tag_139:\n        /* \"@openzeppelin/contracts/access/Ownable.sol\":2081:2109  _transferOwnership(newOwner) */\n      tag_113\n        /* \"@openzeppelin/contracts/access/Ownable.sol\":2100:2108  newOwner */\n      dup2\n        /* \"@openzeppelin/contracts/access/Ownable.sol\":2081:2099  _transferOwnership */\n      tag_102\n        /* \"@openzeppelin/contracts/access/Ownable.sol\":2081:2109  _transferOwnership(newOwner) */\n      jump\t// in\n        /* \"contracts/Whitelist-2.0.sol\":2800:2936  function releasable() public view virtual returns (uint256) {... */\n    tag_65:\n        /* \"contracts/Whitelist-2.0.sol\":2621:2627  _token */\n      and(sub(shl(0xa0, 0x01), 0x01), sload(0x01))\n        /* \"contracts/Whitelist-2.0.sol\":2851:2858  uint256 */\n      0x00\n        /* \"contracts/Whitelist-2.0.sol\":2606:2628  _erc20Released[_token] */\n      swap1\n      dup2\n      mstore\n        /* \"contracts/Whitelist-2.0.sol\":2606:2620  _erc20Released */\n      0x02\n        /* \"contracts/Whitelist-2.0.sol\":2606:2628  _erc20Released[_token] */\n      0x20\n      swap1\n      dup2\n      mstore\n      0x40\n      dup1\n      dup4\n      keccak256\n        /* \"contracts/Whitelist-2.0.sol\":2629:2639  msg.sender */\n      caller\n        /* \"contracts/Whitelist-2.0.sol\":2606:2640  _erc20Released[_token][msg.sender] */\n      dup5\n      mstore\n      swap1\n      swap2\n      mstore\n      dup2\n      keccak256\n      sload\n        /* \"contracts/Whitelist-2.0.sol\":2878:2915  vestedAmount(uint64(block.timestamp)) */\n      tag_145\n        /* \"contracts/Whitelist-2.0.sol\":2898:2913  block.timestamp */\n      timestamp\n        /* \"contracts/Whitelist-2.0.sol\":2878:2890  vestedAmount */\n      tag_23\n        /* \"contracts/Whitelist-2.0.sol\":2878:2915  vestedAmount(uint64(block.timestamp)) */\n      jump\t// in\n    tag_145:\n        /* \"contracts/Whitelist-2.0.sol\":2878:2928  vestedAmount(uint64(block.timestamp)) - released() */\n      tag_146\n      swap2\n      swap1\n      tag_110\n      jump\t// in\n    tag_146:\n        /* \"contracts/Whitelist-2.0.sol\":2871:2928  return vestedAmount(uint64(block.timestamp)) - released() */\n      swap1\n      pop\n        /* \"contracts/Whitelist-2.0.sol\":2800:2936  function releasable() public view virtual returns (uint256) {... */\n      swap1\n      jump\t// out\n        /* \"contracts/Whitelist-2.0.sol\":5724:6139  function _vestingSchedule(uint256 totalAllocation, uint64 timestamp)... */\n    tag_72:\n        /* \"contracts/Whitelist-2.0.sol\":5860:5867  uint256 */\n      0x00\n        /* \"contracts/Whitelist-2.0.sol\":2279:2285  _start */\n      immutable(\"0xb0c7bc42bdbc6fc210fecd6a5f5b923061cceb0f8ca5c7d964d5c22fc0e4b0b6\")\n        /* \"contracts/Whitelist-2.0.sol\":2272:2285  return _start */\n      0xffffffffffffffff\n      and\n        /* \"contracts/Whitelist-2.0.sol\":5889:5898  timestamp */\n      dup3\n        /* \"contracts/Whitelist-2.0.sol\":5889:5908  timestamp < start() */\n      0xffffffffffffffff\n      and\n      lt\n        /* \"contracts/Whitelist-2.0.sol\":5885:6132  if (timestamp < start()) {... */\n      iszero\n      tag_149\n      jumpi\n      pop\n        /* \"contracts/Whitelist-2.0.sol\":5932:5933  0 */\n      0x00\n        /* \"contracts/Whitelist-2.0.sol\":5925:5933  return 0 */\n      jump(tag_68)\n        /* \"contracts/Whitelist-2.0.sol\":5885:6132  if (timestamp < start()) {... */\n    tag_149:\n        /* \"contracts/Whitelist-2.0.sol\":5967:5987  start() + duration() */\n      tag_153\n        /* \"contracts/Whitelist-2.0.sol\":2434:2450  return _duration */\n      0xffffffffffffffff\n        /* \"contracts/Whitelist-2.0.sol\":2441:2450  _duration */\n      immutable(\"0x9b0d5a2681b52b4560ba0a55dc00d44d52ed130b12e9b1ecacbe9f4e75788d40\")\n        /* \"contracts/Whitelist-2.0.sol\":2434:2450  return _duration */\n      dup2\n      and\n      swap1\n        /* \"contracts/Whitelist-2.0.sol\":2279:2285  _start */\n      immutable(\"0xb0c7bc42bdbc6fc210fecd6a5f5b923061cceb0f8ca5c7d964d5c22fc0e4b0b6\")\n        /* \"contracts/Whitelist-2.0.sol\":2272:2285  return _start */\n      and\n        /* \"contracts/Whitelist-2.0.sol\":5967:5987  start() + duration() */\n      tag_71\n      jump\t// in\n    tag_153:\n        /* \"contracts/Whitelist-2.0.sol\":5955:5964  timestamp */\n      dup3\n        /* \"contracts/Whitelist-2.0.sol\":5955:5987  timestamp > start() + duration() */\n      0xffffffffffffffff\n      and\n      gt\n        /* \"contracts/Whitelist-2.0.sol\":5951:6132  if (timestamp > start() + duration()) {... */\n      iszero\n      tag_154\n      jumpi\n      pop\n        /* \"contracts/Whitelist-2.0.sol\":6011:6026  totalAllocation */\n      dup2\n        /* \"contracts/Whitelist-2.0.sol\":6004:6026  return totalAllocation */\n      jump(tag_68)\n        /* \"contracts/Whitelist-2.0.sol\":5951:6132  if (timestamp > start() + duration()) {... */\n    tag_154:\n        /* \"contracts/Whitelist-2.0.sol\":2441:2450  _duration */\n      immutable(\"0x9b0d5a2681b52b4560ba0a55dc00d44d52ed130b12e9b1ecacbe9f4e75788d40\")\n        /* \"contracts/Whitelist-2.0.sol\":2434:2450  return _duration */\n      0xffffffffffffffff\n      and\n        /* \"contracts/Whitelist-2.0.sol\":2279:2285  _start */\n      immutable(\"0xb0c7bc42bdbc6fc210fecd6a5f5b923061cceb0f8ca5c7d964d5c22fc0e4b0b6\")\n        /* \"contracts/Whitelist-2.0.sol\":2272:2285  return _start */\n      0xffffffffffffffff\n      and\n        /* \"contracts/Whitelist-2.0.sol\":6086:6105  timestamp - start() */\n      tag_158\n      swap1\n      0xffffffffffffffff\n      dup6\n      and\n      tag_110\n      jump\t// in\n    tag_158:\n        /* \"contracts/Whitelist-2.0.sol\":6067:6106  totalAllocation * (timestamp - start()) */\n      tag_159\n      swap1\n        /* \"contracts/Whitelist-2.0.sol\":6067:6082  totalAllocation */\n      dup6\n        /* \"contracts/Whitelist-2.0.sol\":6067:6106  totalAllocation * (timestamp - start()) */\n      tag_160\n      jump\t// in\n    tag_159:\n        /* \"contracts/Whitelist-2.0.sol\":6066:6120  (totalAllocation * (timestamp - start())) / duration() */\n      tag_161\n      swap2\n      swap1\n      tag_162\n      jump\t// in\n    tag_161:\n        /* \"contracts/Whitelist-2.0.sol\":6059:6120  return (totalAllocation * (timestamp - start())) / duration() */\n      swap4\n        /* \"contracts/Whitelist-2.0.sol\":5724:6139  function _vestingSchedule(uint256 totalAllocation, uint64 timestamp)... */\n      swap3\n      pop\n      pop\n      pop\n      jump\t// out\n        /* \"contracts/Whitelist-2.0.sol\":3371:3472  function _vest(address user, uint256 amount) internal {... */\n    tag_92:\n      sub(shl(0xa0, 0x01), 0x01)\n        /* \"contracts/Whitelist-2.0.sol\":3436:3454  _beneficiary[user] */\n      dup3\n      and\n      0x00\n      swap1\n      dup2\n      mstore\n        /* \"contracts/Whitelist-2.0.sol\":3436:3448  _beneficiary */\n      0x03\n        /* \"contracts/Whitelist-2.0.sol\":3436:3454  _beneficiary[user] */\n      0x20\n      mstore\n      0x40\n      dup2\n      keccak256\n        /* \"contracts/Whitelist-2.0.sol\":3436:3464  _beneficiary[user] += amount */\n      dup1\n      sload\n        /* \"contracts/Whitelist-2.0.sol\":3458:3464  amount */\n      dup4\n      swap3\n        /* \"contracts/Whitelist-2.0.sol\":3436:3454  _beneficiary[user] */\n      swap1\n        /* \"contracts/Whitelist-2.0.sol\":3436:3464  _beneficiary[user] += amount */\n      tag_165\n      swap1\n        /* \"contracts/Whitelist-2.0.sol\":3458:3464  amount */\n      dup5\n      swap1\n        /* \"contracts/Whitelist-2.0.sol\":3436:3464  _beneficiary[user] += amount */\n      tag_71\n      jump\t// in\n    tag_165:\n      swap1\n      swap2\n      sstore\n      pop\n      pop\n      pop\n      pop\n        /* \"contracts/Whitelist-2.0.sol\":3371:3472  function _vest(address user, uint256 amount) internal {... */\n      jump\t// out\n        /* \"@openzeppelin/contracts/access/Ownable.sol\":2270:2457  function _transferOwnership(address newOwner) internal virtual {... */\n    tag_102:\n        /* \"@openzeppelin/contracts/access/Ownable.sol\":2343:2359  address oldOwner */\n      0x00\n        /* \"@openzeppelin/contracts/access/Ownable.sol\":2362:2368  _owner */\n      dup1\n      sload\n      sub(shl(0xa0, 0x01), 0x01)\n        /* \"@openzeppelin/contracts/access/Ownable.sol\":2378:2395  _owner = newOwner */\n      dup4\n      dup2\n      and\n      0xffffffffffffffffffffffff0000000000000000000000000000000000000000\n      dup4\n      and\n      dup2\n      or\n      dup5\n      sstore\n        /* \"@openzeppelin/contracts/access/Ownable.sol\":2410:2450  OwnershipTransferred(oldOwner, newOwner) */\n      mload(0x40)\n        /* \"@openzeppelin/contracts/access/Ownable.sol\":2362:2368  _owner */\n      swap2\n      swap1\n      swap3\n      and\n      swap3\n      dup4\n      swap2\n        /* \"@openzeppelin/contracts/access/Ownable.sol\":2410:2450  OwnershipTransferred(oldOwner, newOwner) */\n      0x8be0079c531659141344cd1fd0a4f28419497f9722a3daafe3b4186f6b6457e0\n      swap2\n        /* \"@openzeppelin/contracts/access/Ownable.sol\":2343:2359  address oldOwner */\n      swap1\n        /* \"@openzeppelin/contracts/access/Ownable.sol\":2410:2450  OwnershipTransferred(oldOwner, newOwner) */\n      log3\n        /* \"@openzeppelin/contracts/access/Ownable.sol\":2333:2457  {... */\n      pop\n        /* \"@openzeppelin/contracts/access/Ownable.sol\":2270:2457  function _transferOwnership(address newOwner) internal virtual {... */\n      pop\n      jump\t// out\n        /* \"contracts/Whitelist-2.0.sol\":3037:3164  function _currentMonth() internal view returns (uint256) {... */\n    tag_106:\n        /* \"contracts/Whitelist-2.0.sol\":3085:3092  uint256 */\n      0x00\n        /* \"contracts/Whitelist-2.0.sol\":3150:3156  1 days */\n      0x015180\n        /* \"contracts/Whitelist-2.0.sol\":2279:2285  _start */\n      immutable(\"0xb0c7bc42bdbc6fc210fecd6a5f5b923061cceb0f8ca5c7d964d5c22fc0e4b0b6\")\n        /* \"contracts/Whitelist-2.0.sol\":2272:2285  return _start */\n      0xffffffffffffffff\n      and\n        /* \"contracts/Whitelist-2.0.sol\":3113:3146  uint64(block.timestamp) - start() */\n      tag_170\n      swap1\n      0xffffffffffffffff\n        /* \"contracts/Whitelist-2.0.sol\":3120:3135  block.timestamp */\n      timestamp\n        /* \"contracts/Whitelist-2.0.sol\":3113:3146  uint64(block.timestamp) - start() */\n      and\n      tag_110\n      jump\t// in\n    tag_170:\n        /* \"contracts/Whitelist-2.0.sol\":3112:3156  (uint64(block.timestamp) - start()) / 1 days */\n      tag_146\n      swap2\n      swap1\n      tag_162\n      jump\t// in\n        /* \"@openzeppelin/contracts/token/ERC20/utils/SafeERC20.sol\":701:906  function safeTransfer(... */\n    tag_114:\n        /* \"@openzeppelin/contracts/token/ERC20/utils/SafeERC20.sol\":840:898  abi.encodeWithSelector(token.transfer.selector, to, value) */\n      0x40\n      dup1\n      mload\n      sub(shl(0xa0, 0x01), 0x01)\n        /* \"#utility.yul\":3733:3788   */\n      dup5\n      dup2\n      and\n        /* \"@openzeppelin/contracts/token/ERC20/utils/SafeERC20.sol\":840:898  abi.encodeWithSelector(token.transfer.selector, to, value) */\n      0x24\n      dup4\n      add\n        /* \"#utility.yul\":3715:3789   */\n      mstore\n        /* \"#utility.yul\":3805:3823   */\n      0x44\n      dup1\n      dup4\n      add\n        /* \"#utility.yul\":3798:3832   */\n      dup6\n      swap1\n      mstore\n        /* \"@openzeppelin/contracts/token/ERC20/utils/SafeERC20.sol\":840:898  abi.encodeWithSelector(token.transfer.selector, to, value) */\n      dup4\n      mload\n      dup1\n      dup5\n      sub\n      swap1\n      swap2\n      add\n      dup2\n      mstore\n        /* \"#utility.yul\":3688:3706   */\n      0x64\n      swap1\n      swap3\n      add\n        /* \"@openzeppelin/contracts/token/ERC20/utils/SafeERC20.sol\":840:898  abi.encodeWithSelector(token.transfer.selector, to, value) */\n      dup4\n      mstore\n      0x20\n      dup1\n      dup4\n      add\n      dup1\n      mload\n      0xffffffffffffffffffffffffffffffffffffffffffffffffffffffff\n      and\n        /* \"@openzeppelin/contracts/token/ERC20/utils/SafeERC20.sol\":863:886  token.transfer.selector */\n      0xa9059cbb00000000000000000000000000000000000000000000000000000000\n        /* \"@openzeppelin/contracts/token/ERC20/utils/SafeERC20.sol\":840:898  abi.encodeWithSelector(token.transfer.selector, to, value) */\n      or\n      swap1\n      mstore\n        /* \"@openzeppelin/contracts/token/ERC20/utils/SafeERC20.sol\":3652:3721  address(token).functionCall(data, \"SafeERC20: low-level call failed\") */\n      dup4\n      mload\n      dup1\n      dup6\n      add\n      swap1\n      swap5\n      mstore\n      dup1\n      dup5\n      mstore\n      0x5361666545524332303a206c6f772d6c6576656c2063616c6c206661696c6564\n      swap1\n      dup5\n      add\n      mstore\n        /* \"@openzeppelin/contracts/token/ERC20/utils/SafeERC20.sol\":813:899  _callOptionalReturn(token, abi.encodeWithSelector(token.transfer.selector, to, value)) */\n      tag_83\n      swap3\n        /* \"@openzeppelin/contracts/token/ERC20/utils/SafeERC20.sol\":833:838  token */\n      dup7\n      swap3\n        /* \"@openzeppelin/contracts/token/ERC20/utils/SafeERC20.sol\":840:898  abi.encodeWithSelector(token.transfer.selector, to, value) */\n      swap2\n      0x00\n      swap2\n        /* \"@openzeppelin/contracts/token/ERC20/utils/SafeERC20.sol\":3652:3721  address(token).functionCall(data, \"SafeERC20: low-level call failed\") */\n      tag_179\n      swap2\n        /* \"@openzeppelin/contracts/token/ERC20/utils/SafeERC20.sol\":3652:3679  address(token).functionCall */\n      dup6\n      and\n      swap1\n        /* \"@openzeppelin/contracts/token/ERC20/utils/SafeERC20.sol\":840:898  abi.encodeWithSelector(token.transfer.selector, to, value) */\n      dup5\n      swap1\n        /* \"@openzeppelin/contracts/token/ERC20/utils/SafeERC20.sol\":3652:3679  address(token).functionCall */\n      tag_180\n        /* \"@openzeppelin/contracts/token/ERC20/utils/SafeERC20.sol\":3652:3721  address(token).functionCall(data, \"SafeERC20: low-level call failed\") */\n      jump\t// in\n    tag_179:\n        /* \"@openzeppelin/contracts/token/ERC20/utils/SafeERC20.sol\":3735:3752  returndata.length */\n      dup1\n      mload\n        /* \"@openzeppelin/contracts/token/ERC20/utils/SafeERC20.sol\":3626:3721  bytes memory returndata = address(token).functionCall(data, \"SafeERC20: low-level call failed\") */\n      swap1\n      swap2\n      pop\n        /* \"@openzeppelin/contracts/token/ERC20/utils/SafeERC20.sol\":3735:3756  returndata.length > 0 */\n      iszero\n        /* \"@openzeppelin/contracts/token/ERC20/utils/SafeERC20.sol\":3731:3907  if (returndata.length > 0) {... */\n      tag_83\n      jumpi\n        /* \"@openzeppelin/contracts/token/ERC20/utils/SafeERC20.sol\":3830:3840  returndata */\n      dup1\n        /* \"@openzeppelin/contracts/token/ERC20/utils/SafeERC20.sol\":3819:3849  abi.decode(returndata, (bool)) */\n      dup1\n      0x20\n      add\n      swap1\n      mload\n      dup2\n      add\n      swap1\n      tag_182\n      swap2\n      swap1\n      tag_183\n      jump\t// in\n    tag_182:\n        /* \"@openzeppelin/contracts/token/ERC20/utils/SafeERC20.sol\":3811:3896  require(abi.decode(returndata, (bool)), \"SafeERC20: ERC20 operation did not succeed\") */\n      tag_83\n      jumpi\n      mload(0x40)\n      shl(0xe5, 0x461bcd)\n      dup2\n      mstore\n        /* \"#utility.yul\":4327:4329   */\n      0x20\n        /* \"@openzeppelin/contracts/token/ERC20/utils/SafeERC20.sol\":3811:3896  require(abi.decode(returndata, (bool)), \"SafeERC20: ERC20 operation did not succeed\") */\n      0x04\n      dup3\n      add\n        /* \"#utility.yul\":4309:4330   */\n      mstore\n        /* \"#utility.yul\":4366:4368   */\n      0x2a\n        /* \"#utility.yul\":4346:4364   */\n      0x24\n      dup3\n      add\n        /* \"#utility.yul\":4339:4369   */\n      mstore\n        /* \"#utility.yul\":4405:4439   */\n      0x5361666545524332303a204552433230206f7065726174696f6e20646964206e\n        /* \"#utility.yul\":4385:4403   */\n      0x44\n      dup3\n      add\n        /* \"#utility.yul\":4378:4440   */\n      mstore\n        /* \"#utility.yul\":4476:4488   */\n      0x6f74207375636365656400000000000000000000000000000000000000000000\n        /* \"#utility.yul\":4456:4474   */\n      0x64\n      dup3\n      add\n        /* \"#utility.yul\":4449:4489   */\n      mstore\n        /* \"#utility.yul\":4506:4525   */\n      0x84\n      add\n        /* \"@openzeppelin/contracts/token/ERC20/utils/SafeERC20.sol\":3811:3896  require(abi.decode(returndata, (bool)), \"SafeERC20: ERC20 operation did not succeed\") */\n      tag_79\n        /* \"#utility.yul\":4125:4531   */\n      jump\n        /* \"@openzeppelin/contracts/utils/Address.sol\":3861:4084  function functionCall(... */\n    tag_180:\n        /* \"@openzeppelin/contracts/utils/Address.sol\":3994:4006  bytes memory */\n      0x60\n        /* \"@openzeppelin/contracts/utils/Address.sol\":4025:4077  functionCallWithValue(target, data, 0, errorMessage) */\n      tag_188\n        /* \"@openzeppelin/contracts/utils/Address.sol\":4047:4053  target */\n      dup5\n        /* \"@openzeppelin/contracts/utils/Address.sol\":4055:4059  data */\n      dup5\n        /* \"@openzeppelin/contracts/utils/Address.sol\":4061:4062  0 */\n      0x00\n        /* \"@openzeppelin/contracts/utils/Address.sol\":4064:4076  errorMessage */\n      dup6\n        /* \"@openzeppelin/contracts/utils/Address.sol\":4025:4046  functionCallWithValue */\n      tag_189\n        /* \"@openzeppelin/contracts/utils/Address.sol\":4025:4077  functionCallWithValue(target, data, 0, errorMessage) */\n      jump\t// in\n    tag_188:\n        /* \"@openzeppelin/contracts/utils/Address.sol\":4018:4077  return functionCallWithValue(target, data, 0, errorMessage) */\n      swap5\n        /* \"@openzeppelin/contracts/utils/Address.sol\":3861:4084  function functionCall(... */\n      swap4\n      pop\n      pop\n      pop\n      pop\n      jump\t// out\n        /* \"@openzeppelin/contracts/utils/Address.sol\":4948:5447  function functionCallWithValue(... */\n    tag_189:\n        /* \"@openzeppelin/contracts/utils/Address.sol\":5113:5125  bytes memory */\n      0x60\n        /* \"@openzeppelin/contracts/utils/Address.sol\":5170:5175  value */\n      dup3\n        /* \"@openzeppelin/contracts/utils/Address.sol\":5145:5166  address(this).balance */\n      selfbalance\n        /* \"@openzeppelin/contracts/utils/Address.sol\":5145:5175  address(this).balance >= value */\n      lt\n      iszero\n        /* \"@openzeppelin/contracts/utils/Address.sol\":5137:5218  require(address(this).balance >= value, \"Address: insufficient balance for call\") */\n      tag_191\n      jumpi\n      mload(0x40)\n      shl(0xe5, 0x461bcd)\n      dup2\n      mstore\n        /* \"#utility.yul\":4738:4740   */\n      0x20\n        /* \"@openzeppelin/contracts/utils/Address.sol\":5137:5218  require(address(this).balance >= value, \"Address: insufficient balance for call\") */\n      0x04\n      dup3\n      add\n        /* \"#utility.yul\":4720:4741   */\n      mstore\n        /* \"#utility.yul\":4777:4779   */\n      0x26\n        /* \"#utility.yul\":4757:4775   */\n      0x24\n      dup3\n      add\n        /* \"#utility.yul\":4750:4780   */\n      mstore\n        /* \"#utility.yul\":4816:4850   */\n      0x416464726573733a20696e73756666696369656e742062616c616e636520666f\n        /* \"#utility.yul\":4796:4814   */\n      0x44\n      dup3\n      add\n        /* \"#utility.yul\":4789:4851   */\n      mstore\n        /* \"#utility.yul\":4887:4895   */\n      0x722063616c6c0000000000000000000000000000000000000000000000000000\n        /* \"#utility.yul\":4867:4885   */\n      0x64\n      dup3\n      add\n        /* \"#utility.yul\":4860:4896   */\n      mstore\n        /* \"#utility.yul\":4913:4932   */\n      0x84\n      add\n        /* \"@openzeppelin/contracts/utils/Address.sol\":5137:5218  require(address(this).balance >= value, \"Address: insufficient balance for call\") */\n      tag_79\n        /* \"#utility.yul\":4536:4938   */\n      jump\n        /* \"@openzeppelin/contracts/utils/Address.sol\":5137:5218  require(address(this).balance >= value, \"Address: insufficient balance for call\") */\n    tag_191:\n      sub(shl(0xa0, 0x01), 0x01)\n        /* \"@openzeppelin/contracts/utils/Address.sol\":1465:1484  account.code.length */\n      dup6\n      and\n      extcodesize\n        /* \"@openzeppelin/contracts/utils/Address.sol\":5228:5288  require(isContract(target), \"Address: call to non-contract\") */\n      tag_196\n      jumpi\n      mload(0x40)\n      shl(0xe5, 0x461bcd)\n      dup2\n      mstore\n        /* \"#utility.yul\":5145:5147   */\n      0x20\n        /* \"@openzeppelin/contracts/utils/Address.sol\":5228:5288  require(isContract(target), \"Address: call to non-contract\") */\n      0x04\n      dup3\n      add\n        /* \"#utility.yul\":5127:5148   */\n      mstore\n        /* \"#utility.yul\":5184:5186   */\n      0x1d\n        /* \"#utility.yul\":5164:5182   */\n      0x24\n      dup3\n      add\n        /* \"#utility.yul\":5157:5187   */\n      mstore\n        /* \"#utility.yul\":5223:5254   */\n      0x416464726573733a2063616c6c20746f206e6f6e2d636f6e7472616374000000\n        /* \"#utility.yul\":5203:5221   */\n      0x44\n      dup3\n      add\n        /* \"#utility.yul\":5196:5255   */\n      mstore\n        /* \"#utility.yul\":5272:5290   */\n      0x64\n      add\n        /* \"@openzeppelin/contracts/utils/Address.sol\":5228:5288  require(isContract(target), \"Address: call to non-contract\") */\n      tag_79\n        /* \"#utility.yul\":4943:5296   */\n      jump\n        /* \"@openzeppelin/contracts/utils/Address.sol\":5228:5288  require(isContract(target), \"Address: call to non-contract\") */\n    tag_196:\n        /* \"@openzeppelin/contracts/utils/Address.sol\":5300:5312  bool success */\n      0x00\n        /* \"@openzeppelin/contracts/utils/Address.sol\":5314:5337  bytes memory returndata */\n      dup1\n        /* \"@openzeppelin/contracts/utils/Address.sol\":5341:5347  target */\n      dup7\n      sub(shl(0xa0, 0x01), 0x01)\n        /* \"@openzeppelin/contracts/utils/Address.sol\":5341:5352  target.call */\n      and\n        /* \"@openzeppelin/contracts/utils/Address.sol\":5360:5365  value */\n      dup6\n        /* \"@openzeppelin/contracts/utils/Address.sol\":5367:5371  data */\n      dup8\n        /* \"@openzeppelin/contracts/utils/Address.sol\":5341:5372  target.call{value: value}(data) */\n      mload(0x40)\n      tag_199\n      swap2\n      swap1\n      tag_200\n      jump\t// in\n    tag_199:\n      0x00\n      mload(0x40)\n      dup1\n      dup4\n      sub\n      dup2\n      dup6\n      dup8\n      gas\n      call\n      swap3\n      pop\n      pop\n      pop\n      returndatasize\n      dup1\n      0x00\n      dup2\n      eq\n      tag_203\n      jumpi\n      mload(0x40)\n      swap2\n      pop\n      and(add(returndatasize, 0x3f), not(0x1f))\n      dup3\n      add\n      0x40\n      mstore\n      returndatasize\n      dup3\n      mstore\n      returndatasize\n      0x00\n      0x20\n      dup5\n      add\n      returndatacopy\n      jump(tag_202)\n    tag_203:\n      0x60\n      swap2\n      pop\n    tag_202:\n      pop\n        /* \"@openzeppelin/contracts/utils/Address.sol\":5299:5372  (bool success, bytes memory returndata) = target.call{value: value}(data) */\n      swap2\n      pop\n      swap2\n      pop\n        /* \"@openzeppelin/contracts/utils/Address.sol\":5389:5440  verifyCallResult(success, returndata, errorMessage) */\n      tag_204\n        /* \"@openzeppelin/contracts/utils/Address.sol\":5406:5413  success */\n      dup3\n        /* \"@openzeppelin/contracts/utils/Address.sol\":5415:5425  returndata */\n      dup3\n        /* \"@openzeppelin/contracts/utils/Address.sol\":5427:5439  errorMessage */\n      dup7\n        /* \"@openzeppelin/contracts/utils/Address.sol\":5389:5405  verifyCallResult */\n      tag_205\n        /* \"@openzeppelin/contracts/utils/Address.sol\":5389:5440  verifyCallResult(success, returndata, errorMessage) */\n      jump\t// in\n    tag_204:\n        /* \"@openzeppelin/contracts/utils/Address.sol\":5382:5440  return verifyCallResult(success, returndata, errorMessage) */\n      swap8\n        /* \"@openzeppelin/contracts/utils/Address.sol\":4948:5447  function functionCallWithValue(... */\n      swap7\n      pop\n      pop\n      pop\n      pop\n      pop\n      pop\n      pop\n      jump\t// out\n        /* \"@openzeppelin/contracts/utils/Address.sol\":7561:8253  function verifyCallResult(... */\n    tag_205:\n        /* \"@openzeppelin/contracts/utils/Address.sol\":7707:7719  bytes memory */\n      0x60\n        /* \"@openzeppelin/contracts/utils/Address.sol\":7735:7742  success */\n      dup4\n        /* \"@openzeppelin/contracts/utils/Address.sol\":7731:8247  if (success) {... */\n      iszero\n      tag_208\n      jumpi\n      pop\n        /* \"@openzeppelin/contracts/utils/Address.sol\":7765:7775  returndata */\n      dup2\n        /* \"@openzeppelin/contracts/utils/Address.sol\":7758:7775  return returndata */\n      jump(tag_161)\n        /* \"@openzeppelin/contracts/utils/Address.sol\":7731:8247  if (success) {... */\n    tag_208:\n        /* \"@openzeppelin/contracts/utils/Address.sol\":7876:7893  returndata.length */\n      dup3\n      mload\n        /* \"@openzeppelin/contracts/utils/Address.sol\":7876:7897  returndata.length > 0 */\n      iszero\n        /* \"@openzeppelin/contracts/utils/Address.sol\":7872:8237  if (returndata.length > 0) {... */\n      tag_210\n      jumpi\n        /* \"@openzeppelin/contracts/utils/Address.sol\":8070:8080  returndata */\n      dup3\n        /* \"@openzeppelin/contracts/utils/Address.sol\":8064:8081  mload(returndata) */\n      mload\n        /* \"@openzeppelin/contracts/utils/Address.sol\":8130:8145  returndata_size */\n      dup1\n        /* \"@openzeppelin/contracts/utils/Address.sol\":8117:8127  returndata */\n      dup5\n        /* \"@openzeppelin/contracts/utils/Address.sol\":8113:8115  32 */\n      0x20\n        /* \"@openzeppelin/contracts/utils/Address.sol\":8109:8128  add(32, returndata) */\n      add\n        /* \"@openzeppelin/contracts/utils/Address.sol\":8102:8146  revert(add(32, returndata), returndata_size) */\n      revert\n        /* \"@openzeppelin/contracts/utils/Address.sol\":7872:8237  if (returndata.length > 0) {... */\n    tag_210:\n        /* \"@openzeppelin/contracts/utils/Address.sol\":8209:8221  errorMessage */\n      dup2\n        /* \"@openzeppelin/contracts/utils/Address.sol\":8202:8222  revert(errorMessage) */\n      mload(0x40)\n      shl(0xe5, 0x461bcd)\n      dup2\n      mstore\n      0x04\n      add\n      tag_79\n      swap2\n      swap1\n      tag_213\n      jump\t// in\n        /* \"#utility.yul\":14:298   */\n    tag_22:\n        /* \"#utility.yul\":72:78   */\n      0x00\n        /* \"#utility.yul\":125:127   */\n      0x20\n        /* \"#utility.yul\":113:122   */\n      dup3\n        /* \"#utility.yul\":104:111   */\n      dup5\n        /* \"#utility.yul\":100:123   */\n      sub\n        /* \"#utility.yul\":96:128   */\n      slt\n        /* \"#utility.yul\":93:145   */\n      iszero\n      tag_218\n      jumpi\n        /* \"#utility.yul\":141:142   */\n      0x00\n        /* \"#utility.yul\":138:139   */\n      dup1\n        /* \"#utility.yul\":131:143   */\n      revert\n        /* \"#utility.yul\":93:145   */\n    tag_218:\n        /* \"#utility.yul\":180:189   */\n      dup2\n        /* \"#utility.yul\":167:190   */\n      calldataload\n        /* \"#utility.yul\":230:248   */\n      0xffffffffffffffff\n        /* \"#utility.yul\":223:228   */\n      dup2\n        /* \"#utility.yul\":219:249   */\n      and\n        /* \"#utility.yul\":212:217   */\n      dup2\n        /* \"#utility.yul\":209:250   */\n      eq\n        /* \"#utility.yul\":199:268   */\n      tag_161\n      jumpi\n        /* \"#utility.yul\":264:265   */\n      0x00\n        /* \"#utility.yul\":261:262   */\n      dup1\n        /* \"#utility.yul\":254:266   */\n      revert\n        /* \"#utility.yul\":485:1130   */\n    tag_33:\n        /* \"#utility.yul\":601:607   */\n      0x00\n        /* \"#utility.yul\":609:615   */\n      dup1\n        /* \"#utility.yul\":662:664   */\n      0x20\n        /* \"#utility.yul\":650:659   */\n      dup4\n        /* \"#utility.yul\":641:648   */\n      dup6\n        /* \"#utility.yul\":637:660   */\n      sub\n        /* \"#utility.yul\":633:665   */\n      slt\n        /* \"#utility.yul\":630:682   */\n      iszero\n      tag_222\n      jumpi\n        /* \"#utility.yul\":678:679   */\n      0x00\n        /* \"#utility.yul\":675:676   */\n      dup1\n        /* \"#utility.yul\":668:680   */\n      revert\n        /* \"#utility.yul\":630:682   */\n    tag_222:\n        /* \"#utility.yul\":718:727   */\n      dup3\n        /* \"#utility.yul\":705:728   */\n      calldataload\n        /* \"#utility.yul\":747:765   */\n      0xffffffffffffffff\n        /* \"#utility.yul\":788:790   */\n      dup1\n        /* \"#utility.yul\":780:786   */\n      dup3\n        /* \"#utility.yul\":777:791   */\n      gt\n        /* \"#utility.yul\":774:808   */\n      iszero\n      tag_223\n      jumpi\n        /* \"#utility.yul\":804:805   */\n      0x00\n        /* \"#utility.yul\":801:802   */\n      dup1\n        /* \"#utility.yul\":794:806   */\n      revert\n        /* \"#utility.yul\":774:808   */\n    tag_223:\n        /* \"#utility.yul\":842:848   */\n      dup2\n        /* \"#utility.yul\":831:840   */\n      dup6\n        /* \"#utility.yul\":827:849   */\n      add\n        /* \"#utility.yul\":817:849   */\n      swap2\n      pop\n        /* \"#utility.yul\":887:894   */\n      dup6\n        /* \"#utility.yul\":880:884   */\n      0x1f\n        /* \"#utility.yul\":876:878   */\n      dup4\n        /* \"#utility.yul\":872:885   */\n      add\n        /* \"#utility.yul\":868:895   */\n      slt\n        /* \"#utility.yul\":858:913   */\n      tag_224\n      jumpi\n        /* \"#utility.yul\":909:910   */\n      0x00\n        /* \"#utility.yul\":906:907   */\n      dup1\n        /* \"#utility.yul\":899:911   */\n      revert\n        /* \"#utility.yul\":858:913   */\n    tag_224:\n        /* \"#utility.yul\":949:951   */\n      dup2\n        /* \"#utility.yul\":936:952   */\n      calldataload\n        /* \"#utility.yul\":975:977   */\n      dup2\n        /* \"#utility.yul\":967:973   */\n      dup2\n        /* \"#utility.yul\":964:978   */\n      gt\n        /* \"#utility.yul\":961:995   */\n      iszero\n      tag_225\n      jumpi\n        /* \"#utility.yul\":991:992   */\n      0x00\n        /* \"#utility.yul\":988:989   */\n      dup1\n        /* \"#utility.yul\":981:993   */\n      revert\n        /* \"#utility.yul\":961:995   */\n    tag_225:\n        /* \"#utility.yul\":1044:1051   */\n      dup7\n        /* \"#utility.yul\":1039:1041   */\n      0x20\n        /* \"#utility.yul\":1029:1035   */\n      dup3\n        /* \"#utility.yul\":1026:1027   */\n      0x06\n        /* \"#utility.yul\":1022:1036   */\n      shl\n        /* \"#utility.yul\":1018:1020   */\n      dup6\n        /* \"#utility.yul\":1014:1037   */\n      add\n        /* \"#utility.yul\":1010:1042   */\n      add\n        /* \"#utility.yul\":1007:1052   */\n      gt\n        /* \"#utility.yul\":1004:1069   */\n      iszero\n      tag_226\n      jumpi\n        /* \"#utility.yul\":1065:1066   */\n      0x00\n        /* \"#utility.yul\":1062:1063   */\n      dup1\n        /* \"#utility.yul\":1055:1067   */\n      revert\n        /* \"#utility.yul\":1004:1069   */\n    tag_226:\n        /* \"#utility.yul\":1096:1098   */\n      0x20\n        /* \"#utility.yul\":1088:1099   */\n      swap3\n      swap1\n      swap3\n      add\n      swap7\n        /* \"#utility.yul\":1118:1124   */\n      swap2\n      swap6\n      pop\n        /* \"#utility.yul\":485:1130   */\n      swap1\n      swap4\n      pop\n      pop\n      pop\n      pop\n      jump\t// out\n        /* \"#utility.yul\":1366:1675   */\n    tag_61:\n        /* \"#utility.yul\":1425:1431   */\n      0x00\n        /* \"#utility.yul\":1478:1480   */\n      0x20\n        /* \"#utility.yul\":1466:1475   */\n      dup3\n        /* \"#utility.yul\":1457:1464   */\n      dup5\n        /* \"#utility.yul\":1453:1476   */\n      sub\n        /* \"#utility.yul\":1449:1481   */\n      slt\n        /* \"#utility.yul\":1446:1498   */\n      iszero\n      tag_229\n      jumpi\n        /* \"#utility.yul\":1494:1495   */\n      0x00\n        /* \"#utility.yul\":1491:1492   */\n      dup1\n        /* \"#utility.yul\":1484:1496   */\n      revert\n        /* \"#utility.yul\":1446:1498   */\n    tag_229:\n        /* \"#utility.yul\":1533:1542   */\n      dup2\n        /* \"#utility.yul\":1520:1543   */\n      calldataload\n      sub(shl(0xa0, 0x01), 0x01)\n        /* \"#utility.yul\":1576:1581   */\n      dup2\n        /* \"#utility.yul\":1572:1626   */\n      and\n        /* \"#utility.yul\":1565:1570   */\n      dup2\n        /* \"#utility.yul\":1562:1627   */\n      eq\n        /* \"#utility.yul\":1552:1645   */\n      tag_161\n      jumpi\n        /* \"#utility.yul\":1641:1642   */\n      0x00\n        /* \"#utility.yul\":1638:1639   */\n      dup1\n        /* \"#utility.yul\":1631:1643   */\n      revert\n        /* \"#utility.yul\":1680:1864   */\n    tag_214:\n      shl(0xe0, 0x4e487b71)\n        /* \"#utility.yul\":1729:1730   */\n      0x00\n        /* \"#utility.yul\":1722:1810   */\n      mstore\n        /* \"#utility.yul\":1829:1833   */\n      0x11\n        /* \"#utility.yul\":1826:1827   */\n      0x04\n        /* \"#utility.yul\":1819:1834   */\n      mstore\n        /* \"#utility.yul\":1853:1857   */\n      0x24\n        /* \"#utility.yul\":1850:1851   */\n      0x00\n        /* \"#utility.yul\":1843:1858   */\n      revert\n        /* \"#utility.yul\":1869:1997   */\n    tag_71:\n        /* \"#utility.yul\":1909:1912   */\n      0x00\n        /* \"#utility.yul\":1940:1941   */\n      dup3\n        /* \"#utility.yul\":1936:1942   */\n      not\n        /* \"#utility.yul\":1933:1934   */\n      dup3\n        /* \"#utility.yul\":1930:1943   */\n      gt\n        /* \"#utility.yul\":1927:1966   */\n      iszero\n      tag_234\n      jumpi\n        /* \"#utility.yul\":1946:1964   */\n      tag_234\n      tag_214\n      jump\t// in\n    tag_234:\n      pop\n        /* \"#utility.yul\":1982:1991   */\n      add\n      swap1\n        /* \"#utility.yul\":1869:1997   */\n      jump\t// out\n        /* \"#utility.yul\":2363:2547   */\n    tag_88:\n      shl(0xe0, 0x4e487b71)\n        /* \"#utility.yul\":2412:2413   */\n      0x00\n        /* \"#utility.yul\":2405:2493   */\n      mstore\n        /* \"#utility.yul\":2512:2516   */\n      0x32\n        /* \"#utility.yul\":2509:2510   */\n      0x04\n        /* \"#utility.yul\":2502:2517   */\n      mstore\n        /* \"#utility.yul\":2536:2540   */\n      0x24\n        /* \"#utility.yul\":2533:2534   */\n      0x00\n        /* \"#utility.yul\":2526:2541   */\n      revert\n        /* \"#utility.yul\":2552:2677   */\n    tag_110:\n        /* \"#utility.yul\":2592:2596   */\n      0x00\n        /* \"#utility.yul\":2620:2621   */\n      dup3\n        /* \"#utility.yul\":2617:2618   */\n      dup3\n        /* \"#utility.yul\":2614:2622   */\n      lt\n        /* \"#utility.yul\":2611:2645   */\n      iszero\n      tag_239\n      jumpi\n        /* \"#utility.yul\":2625:2643   */\n      tag_239\n      tag_214\n      jump\t// in\n    tag_239:\n      pop\n        /* \"#utility.yul\":2662:2671   */\n      sub\n      swap1\n        /* \"#utility.yul\":2552:2677   */\n      jump\t// out\n        /* \"#utility.yul\":3089:3257   */\n    tag_160:\n        /* \"#utility.yul\":3129:3136   */\n      0x00\n        /* \"#utility.yul\":3195:3196   */\n      dup2\n        /* \"#utility.yul\":3191:3192   */\n      0x00\n        /* \"#utility.yul\":3187:3193   */\n      not\n        /* \"#utility.yul\":3183:3197   */\n      div\n        /* \"#utility.yul\":3180:3181   */\n      dup4\n        /* \"#utility.yul\":3177:3198   */\n      gt\n        /* \"#utility.yul\":3172:3173   */\n      dup3\n        /* \"#utility.yul\":3165:3174   */\n      iszero\n        /* \"#utility.yul\":3158:3175   */\n      iszero\n        /* \"#utility.yul\":3154:3199   */\n      and\n        /* \"#utility.yul\":3151:3222   */\n      iszero\n      tag_243\n      jumpi\n        /* \"#utility.yul\":3202:3220   */\n      tag_243\n      tag_214\n      jump\t// in\n    tag_243:\n      pop\n        /* \"#utility.yul\":3242:3251   */\n      mul\n      swap1\n        /* \"#utility.yul\":3089:3257   */\n      jump\t// out\n        /* \"#utility.yul\":3262:3536   */\n    tag_162:\n        /* \"#utility.yul\":3302:3303   */\n      0x00\n        /* \"#utility.yul\":3328:3329   */\n      dup3\n        /* \"#utility.yul\":3318:3507   */\n      tag_245\n      jumpi\n      shl(0xe0, 0x4e487b71)\n        /* \"#utility.yul\":3360:3361   */\n      0x00\n        /* \"#utility.yul\":3353:3441   */\n      mstore\n        /* \"#utility.yul\":3464:3468   */\n      0x12\n        /* \"#utility.yul\":3461:3462   */\n      0x04\n        /* \"#utility.yul\":3454:3469   */\n      mstore\n        /* \"#utility.yul\":3492:3496   */\n      0x24\n        /* \"#utility.yul\":3489:3490   */\n      0x00\n        /* \"#utility.yul\":3482:3497   */\n      revert\n        /* \"#utility.yul\":3318:3507   */\n    tag_245:\n      pop\n        /* \"#utility.yul\":3521:3530   */\n      div\n      swap1\n        /* \"#utility.yul\":3262:3536   */\n      jump\t// out\n        /* \"#utility.yul\":3843:4120   */\n    tag_183:\n        /* \"#utility.yul\":3910:3916   */\n      0x00\n        /* \"#utility.yul\":3963:3965   */\n      0x20\n        /* \"#utility.yul\":3951:3960   */\n      dup3\n        /* \"#utility.yul\":3942:3949   */\n      dup5\n        /* \"#utility.yul\":3938:3961   */\n      sub\n        /* \"#utility.yul\":3934:3966   */\n      slt\n        /* \"#utility.yul\":3931:3983   */\n      iszero\n      tag_248\n      jumpi\n        /* \"#utility.yul\":3979:3980   */\n      0x00\n        /* \"#utility.yul\":3976:3977   */\n      dup1\n        /* \"#utility.yul\":3969:3981   */\n      revert\n        /* \"#utility.yul\":3931:3983   */\n    tag_248:\n        /* \"#utility.yul\":4011:4020   */\n      dup2\n        /* \"#utility.yul\":4005:4021   */\n      mload\n        /* \"#utility.yul\":4064:4069   */\n      dup1\n        /* \"#utility.yul\":4057:4070   */\n      iszero\n        /* \"#utility.yul\":4050:4071   */\n      iszero\n        /* \"#utility.yul\":4043:4048   */\n      dup2\n        /* \"#utility.yul\":4040:4072   */\n      eq\n        /* \"#utility.yul\":4030:4090   */\n      tag_161\n      jumpi\n        /* \"#utility.yul\":4086:4087   */\n      0x00\n        /* \"#utility.yul\":4083:4084   */\n      dup1\n        /* \"#utility.yul\":4076:4088   */\n      revert\n        /* \"#utility.yul\":5301:5559   */\n    tag_215:\n        /* \"#utility.yul\":5373:5374   */\n      0x00\n        /* \"#utility.yul\":5383:5496   */\n    tag_254:\n        /* \"#utility.yul\":5397:5403   */\n      dup4\n        /* \"#utility.yul\":5394:5395   */\n      dup2\n        /* \"#utility.yul\":5391:5404   */\n      lt\n        /* \"#utility.yul\":5383:5496   */\n      iszero\n      tag_256\n      jumpi\n        /* \"#utility.yul\":5473:5484   */\n      dup2\n      dup2\n      add\n        /* \"#utility.yul\":5467:5485   */\n      mload\n        /* \"#utility.yul\":5454:5465   */\n      dup4\n      dup3\n      add\n        /* \"#utility.yul\":5447:5486   */\n      mstore\n        /* \"#utility.yul\":5419:5421   */\n      0x20\n        /* \"#utility.yul\":5412:5422   */\n      add\n        /* \"#utility.yul\":5383:5496   */\n      jump(tag_254)\n    tag_256:\n        /* \"#utility.yul\":5514:5520   */\n      dup4\n        /* \"#utility.yul\":5511:5512   */\n      dup2\n        /* \"#utility.yul\":5508:5521   */\n      gt\n        /* \"#utility.yul\":5505:5553   */\n      iszero\n      tag_257\n      jumpi\n        /* \"#utility.yul\":5549:5550   */\n      0x00\n        /* \"#utility.yul\":5540:5546   */\n      dup5\n        /* \"#utility.yul\":5535:5538   */\n      dup5\n        /* \"#utility.yul\":5531:5547   */\n      add\n        /* \"#utility.yul\":5524:5551   */\n      mstore\n        /* \"#utility.yul\":5505:5553   */\n    tag_257:\n      pop\n        /* \"#utility.yul\":5301:5559   */\n      pop\n      pop\n      pop\n      jump\t// out\n        /* \"#utility.yul\":5564:5838   */\n    tag_200:\n        /* \"#utility.yul\":5693:5696   */\n      0x00\n        /* \"#utility.yul\":5731:5737   */\n      dup3\n        /* \"#utility.yul\":5725:5738   */\n      mload\n        /* \"#utility.yul\":5747:5800   */\n      tag_259\n        /* \"#utility.yul\":5793:5799   */\n      dup2\n        /* \"#utility.yul\":5788:5791   */\n      dup5\n        /* \"#utility.yul\":5781:5785   */\n      0x20\n        /* \"#utility.yul\":5773:5779   */\n      dup8\n        /* \"#utility.yul\":5769:5786   */\n      add\n        /* \"#utility.yul\":5747:5800   */\n      tag_215\n      jump\t// in\n    tag_259:\n        /* \"#utility.yul\":5816:5832   */\n      swap2\n      swap1\n      swap2\n      add\n      swap3\n        /* \"#utility.yul\":5564:5838   */\n      swap2\n      pop\n      pop\n      jump\t// out\n        /* \"#utility.yul\":5843:6226   */\n    tag_213:\n        /* \"#utility.yul\":5992:5994   */\n      0x20\n        /* \"#utility.yul\":5981:5990   */\n      dup2\n        /* \"#utility.yul\":5974:5995   */\n      mstore\n        /* \"#utility.yul\":5955:5959   */\n      0x00\n        /* \"#utility.yul\":6024:6030   */\n      dup3\n        /* \"#utility.yul\":6018:6031   */\n      mload\n        /* \"#utility.yul\":6067:6073   */\n      dup1\n        /* \"#utility.yul\":6062:6064   */\n      0x20\n        /* \"#utility.yul\":6051:6060   */\n      dup5\n        /* \"#utility.yul\":6047:6065   */\n      add\n        /* \"#utility.yul\":6040:6074   */\n      mstore\n        /* \"#utility.yul\":6083:6149   */\n      tag_261\n        /* \"#utility.yul\":6142:6148   */\n      dup2\n        /* \"#utility.yul\":6137:6139   */\n      0x40\n        /* \"#utility.yul\":6126:6135   */\n      dup6\n        /* \"#utility.yul\":6122:6140   */\n      add\n        /* \"#utility.yul\":6117:6119   */\n      0x20\n        /* \"#utility.yul\":6109:6115   */\n      dup8\n        /* \"#utility.yul\":6105:6120   */\n      add\n        /* \"#utility.yul\":6083:6149   */\n      tag_215\n      jump\t// in\n    tag_261:\n        /* \"#utility.yul\":6210:6212   */\n      0x1f\n        /* \"#utility.yul\":6189:6204   */\n      add\n      not(0x1f)\n        /* \"#utility.yul\":6185:6214   */\n      and\n        /* \"#utility.yul\":6170:6215   */\n      swap2\n      swap1\n      swap2\n      add\n        /* \"#utility.yul\":6217:6219   */\n      0x40\n        /* \"#utility.yul\":6166:6220   */\n      add\n      swap3\n        /* \"#utility.yul\":5843:6226   */\n      swap2\n      pop\n      pop\n      jump\t// out\n\n    auxdata: 0xa26469706673582212202eb18808d41a453d22440010348e8b256442c165c5a2f728f144bf8112a15fc964736f6c634300080b0033\n}\n",
				"bytecode": {
					"linkReferences": {},
					"object": "60c0604052604051610f66380380610f66833981016040819052610022916100cf565b61002b33610063565b600180546001600160a01b0319166001600160a01b0394909416939093179092556001600160401b039081166080521660a052610120565b600080546001600160a01b038381166001600160a01b0319831681178455604051919092169283917f8be0079c531659141344cd1fd0a4f28419497f9722a3daafe3b4186f6b6457e09190a35050565b80516001600160401b03811681146100ca57600080fd5b919050565b6000806000606084860312156100e457600080fd5b83516001600160a01b03811681146100fb57600080fd5b9250610109602085016100b3565b9150610117604085016100b3565b90509250925092565b60805160a051610df761016f6000396000818161010e01528181610708015261076b0152600081816101f7015281816106b80152818161072c01528181610796015261088f0152610df76000f3fe6080604052600436106100c05760003560e01c80638da5cb5b11610074578063de8098471161004e578063de80984714610225578063f2fde38b14610245578063fbccedae1461026557600080fd5b80638da5cb5b1461018857806396132521146101b0578063be9a6555146101e857600080fd5b806327c2e722116100a557806327c2e7221461013c578063715018a61461015e57806386d1a69f1461017357600080fd5b80630a17b06b146100cc5780630fb5a6b4146100ff57600080fd5b366100c757005b600080fd5b3480156100d857600080fd5b506100ec6100e7366004610bbc565b61027a565b6040519081526020015b60405180910390f35b34801561010b57600080fd5b507f000000000000000000000000000000000000000000000000000000000000000067ffffffffffffffff166100ec565b34801561014857600080fd5b5061015c610157366004610be6565b6102c1565b005b34801561016a57600080fd5b5061015c610384565b34801561017f57600080fd5b5061015c6103ea565b34801561019457600080fd5b506000546040516001600160a01b0390911681526020016100f6565b3480156101bc57600080fd5b506001546001600160a01b031660009081526002602090815260408083203384529091529020546100ec565b3480156101f457600080fd5b507f000000000000000000000000000000000000000000000000000000000000000067ffffffffffffffff166100ec565b34801561023157600080fd5b5061015c610240366004610be6565b6104e5565b34801561025157600080fd5b5061015c610260366004610c5b565b610597565b34801561027157600080fd5b506100ec610676565b6001546001600160a01b0316600090815260026020908152604080832033845282528083205460039092528220546102bb916102b591610c9a565b836106b4565b92915050565b6000546001600160a01b031633146103205760405162461bcd60e51b815260206004820181905260248201527f4f776e61626c653a2063616c6c6572206973206e6f7420746865206f776e657260448201526064015b60405180910390fd5b60005b8181101561037f5761037783838381811061034057610340610cb2565b6103569260206040909202019081019150610c5b565b84848481811061036857610368610cb2565b905060400201602001356107ee565b600101610323565b505050565b6000546001600160a01b031633146103de5760405162461bcd60e51b815260206004820181905260248201527f4f776e61626c653a2063616c6c6572206973206e6f7420746865206f776e65726044820152606401610317565b6103e8600061081f565b565b60006103f4610676565b3360009081526004602052604090205490915061040f610887565b11156104e25761041d610887565b3360009081526004602090815260408083209390935560039052908120805483929061044a908490610cc8565b90915550506001546001600160a01b0316600090815260026020908152604080832033845290915281208054839290610484908490610c9a565b909155505060015460405182815233916001600160a01b0316907f1998e30db89daf293a52c4fc4c4470cd506aafc3f9683e8e5daddad80cd6f4a49060200160405180910390a36001546104e2906001600160a01b031633836108d6565b50565b6000546001600160a01b0316331461053f5760405162461bcd60e51b815260206004820181905260248201527f4f776e61626c653a2063616c6c6572206973206e6f7420746865206f776e65726044820152606401610317565b60005b8181101561037f5761058f83838381811061055f5761055f610cb2565b6105759260206040909202019081019150610c5b565b6001600160a01b0316600090815260036020526040812055565b600101610542565b6000546001600160a01b031633146105f15760405162461bcd60e51b815260206004820181905260248201527f4f776e61626c653a2063616c6c6572206973206e6f7420746865206f776e65726044820152606401610317565b6001600160a01b03811661066d5760405162461bcd60e51b815260206004820152602660248201527f4f776e61626c653a206e6577206f776e657220697320746865207a65726f206160448201527f64647265737300000000000000000000000000000000000000000000000000006064820152608401610317565b6104e28161081f565b6001546001600160a01b031660009081526002602090815260408083203384529091528120546106a54261027a565b6106af9190610cc8565b905090565b60007f000000000000000000000000000000000000000000000000000000000000000067ffffffffffffffff168267ffffffffffffffff1610156106fa575060006102bb565b61075167ffffffffffffffff7f00000000000000000000000000000000000000000000000000000000000000008116907f000000000000000000000000000000000000000000000000000000000000000016610c9a565b8267ffffffffffffffff1611156107695750816102bb565b7f000000000000000000000000000000000000000000000000000000000000000067ffffffffffffffff167f000000000000000000000000000000000000000000000000000000000000000067ffffffffffffffff166107d39067ffffffffffffffff8516610cc8565b6107dd9085610cdf565b6107e79190610cfe565b9392505050565b6001600160a01b03821660009081526003602052604081208054839290610816908490610c9a565b90915550505050565b600080546001600160a01b038381167fffffffffffffffffffffffff0000000000000000000000000000000000000000831681178455604051919092169283917f8be0079c531659141344cd1fd0a4f28419497f9722a3daafe3b4186f6b6457e09190a35050565b6000620151807f000000000000000000000000000000000000000000000000000000000000000067ffffffffffffffff166108cc9067ffffffffffffffff4216610cc8565b6106af9190610cfe565b604080516001600160a01b03848116602483015260448083018590528351808403909101815260649092018352602080830180517bffffffffffffffffffffffffffffffffffffffffffffffffffffffff167fa9059cbb0000000000000000000000000000000000000000000000000000000017905283518085019094528084527f5361666545524332303a206c6f772d6c6576656c2063616c6c206661696c65649084015261037f92869291600091610994918516908490610a24565b80519091501561037f57808060200190518101906109b29190610d20565b61037f5760405162461bcd60e51b815260206004820152602a60248201527f5361666545524332303a204552433230206f7065726174696f6e20646964206e60448201527f6f742073756363656564000000000000000000000000000000000000000000006064820152608401610317565b6060610a338484600085610a3b565b949350505050565b606082471015610ab35760405162461bcd60e51b815260206004820152602660248201527f416464726573733a20696e73756666696369656e742062616c616e636520666f60448201527f722063616c6c00000000000000000000000000000000000000000000000000006064820152608401610317565b6001600160a01b0385163b610b0a5760405162461bcd60e51b815260206004820152601d60248201527f416464726573733a2063616c6c20746f206e6f6e2d636f6e74726163740000006044820152606401610317565b600080866001600160a01b03168587604051610b269190610d72565b60006040518083038185875af1925050503d8060008114610b63576040519150601f19603f3d011682016040523d82523d6000602084013e610b68565b606091505b5091509150610b78828286610b83565b979650505050505050565b60608315610b925750816107e7565b825115610ba25782518084602001fd5b8160405162461bcd60e51b81526004016103179190610d8e565b600060208284031215610bce57600080fd5b813567ffffffffffffffff811681146107e757600080fd5b60008060208385031215610bf957600080fd5b823567ffffffffffffffff80821115610c1157600080fd5b818501915085601f830112610c2557600080fd5b813581811115610c3457600080fd5b8660208260061b8501011115610c4957600080fd5b60209290920196919550909350505050565b600060208284031215610c6d57600080fd5b81356001600160a01b03811681146107e757600080fd5b634e487b7160e01b600052601160045260246000fd5b60008219821115610cad57610cad610c84565b500190565b634e487b7160e01b600052603260045260246000fd5b600082821015610cda57610cda610c84565b500390565b6000816000190483118215151615610cf957610cf9610c84565b500290565b600082610d1b57634e487b7160e01b600052601260045260246000fd5b500490565b600060208284031215610d3257600080fd5b815180151581146107e757600080fd5b60005b83811015610d5d578181015183820152602001610d45565b83811115610d6c576000848401525b50505050565b60008251610d84818460208701610d42565b9190910192915050565b6020815260008251806020840152610dad816040850160208701610d42565b601f01601f1916919091016040019291505056fea26469706673582212202eb18808d41a453d22440010348e8b256442c165c5a2f728f144bf8112a15fc964736f6c634300080b0033",
					"opcodes": "PUSH1 0xC0 PUSH1 0x40 MSTORE PUSH1 0x40 MLOAD PUSH2 0xF66 CODESIZE SUB DUP1 PUSH2 0xF66 DUP4 CODECOPY DUP2 ADD PUSH1 0x40 DUP2 SWAP1 MSTORE PUSH2 0x22 SWAP2 PUSH2 0xCF JUMP JUMPDEST PUSH2 0x2B CALLER PUSH2 0x63 JUMP JUMPDEST PUSH1 0x1 DUP1 SLOAD PUSH1 0x1 PUSH1 0x1 PUSH1 0xA0 SHL SUB NOT AND PUSH1 0x1 PUSH1 0x1 PUSH1 0xA0 SHL SUB SWAP5 SWAP1 SWAP5 AND SWAP4 SWAP1 SWAP4 OR SWAP1 SWAP3 SSTORE PUSH1 0x1 PUSH1 0x1 PUSH1 0x40 SHL SUB SWAP1 DUP2 AND PUSH1 0x80 MSTORE AND PUSH1 0xA0 MSTORE PUSH2 0x120 JUMP JUMPDEST PUSH1 0x0 DUP1 SLOAD PUSH1 0x1 PUSH1 0x1 PUSH1 0xA0 SHL SUB DUP4 DUP2 AND PUSH1 0x1 PUSH1 0x1 PUSH1 0xA0 SHL SUB NOT DUP4 AND DUP2 OR DUP5 SSTORE PUSH1 0x40 MLOAD SWAP2 SWAP1 SWAP3 AND SWAP3 DUP4 SWAP2 PUSH32 0x8BE0079C531659141344CD1FD0A4F28419497F9722A3DAAFE3B4186F6B6457E0 SWAP2 SWAP1 LOG3 POP POP JUMP JUMPDEST DUP1 MLOAD PUSH1 0x1 PUSH1 0x1 PUSH1 0x40 SHL SUB DUP2 AND DUP2 EQ PUSH2 0xCA JUMPI PUSH1 0x0 DUP1 REVERT JUMPDEST SWAP2 SWAP1 POP JUMP JUMPDEST PUSH1 0x0 DUP1 PUSH1 0x0 PUSH1 0x60 DUP5 DUP7 SUB SLT ISZERO PUSH2 0xE4 JUMPI PUSH1 0x0 DUP1 REVERT JUMPDEST DUP4 MLOAD PUSH1 0x1 PUSH1 0x1 PUSH1 0xA0 SHL SUB DUP2 AND DUP2 EQ PUSH2 0xFB JUMPI PUSH1 0x0 DUP1 REVERT JUMPDEST SWAP3 POP PUSH2 0x109 PUSH1 0x20 DUP6 ADD PUSH2 0xB3 JUMP JUMPDEST SWAP2 POP PUSH2 0x117 PUSH1 0x40 DUP6 ADD PUSH2 0xB3 JUMP JUMPDEST SWAP1 POP SWAP3 POP SWAP3 POP SWAP3 JUMP JUMPDEST PUSH1 0x80 MLOAD PUSH1 0xA0 MLOAD PUSH2 0xDF7 PUSH2 0x16F PUSH1 0x0 CODECOPY PUSH1 0x0 DUP2 DUP2 PUSH2 0x10E ADD MSTORE DUP2 DUP2 PUSH2 0x708 ADD MSTORE PUSH2 0x76B ADD MSTORE PUSH1 0x0 DUP2 DUP2 PUSH2 0x1F7 ADD MSTORE DUP2 DUP2 PUSH2 0x6B8 ADD MSTORE DUP2 DUP2 PUSH2 0x72C ADD MSTORE DUP2 DUP2 PUSH2 0x796 ADD MSTORE PUSH2 0x88F ADD MSTORE PUSH2 0xDF7 PUSH1 0x0 RETURN INVALID PUSH1 0x80 PUSH1 0x40 MSTORE PUSH1 0x4 CALLDATASIZE LT PUSH2 0xC0 JUMPI PUSH1 0x0 CALLDATALOAD PUSH1 0xE0 SHR DUP1 PUSH4 0x8DA5CB5B GT PUSH2 0x74 JUMPI DUP1 PUSH4 0xDE809847 GT PUSH2 0x4E JUMPI DUP1 PUSH4 0xDE809847 EQ PUSH2 0x225 JUMPI DUP1 PUSH4 0xF2FDE38B EQ PUSH2 0x245 JUMPI DUP1 PUSH4 0xFBCCEDAE EQ PUSH2 0x265 JUMPI PUSH1 0x0 DUP1 REVERT JUMPDEST DUP1 PUSH4 0x8DA5CB5B EQ PUSH2 0x188 JUMPI DUP1 PUSH4 0x96132521 EQ PUSH2 0x1B0 JUMPI DUP1 PUSH4 0xBE9A6555 EQ PUSH2 0x1E8 JUMPI PUSH1 0x0 DUP1 REVERT JUMPDEST DUP1 PUSH4 0x27C2E722 GT PUSH2 0xA5 JUMPI DUP1 PUSH4 0x27C2E722 EQ PUSH2 0x13C JUMPI DUP1 PUSH4 0x715018A6 EQ PUSH2 0x15E JUMPI DUP1 PUSH4 0x86D1A69F EQ PUSH2 0x173 JUMPI PUSH1 0x0 DUP1 REVERT JUMPDEST DUP1 PUSH4 0xA17B06B EQ PUSH2 0xCC JUMPI DUP1 PUSH4 0xFB5A6B4 EQ PUSH2 0xFF JUMPI PUSH1 0x0 DUP1 REVERT JUMPDEST CALLDATASIZE PUSH2 0xC7 JUMPI STOP JUMPDEST PUSH1 0x0 DUP1 REVERT JUMPDEST CALLVALUE DUP1 ISZERO PUSH2 0xD8 JUMPI PUSH1 0x0 DUP1 REVERT JUMPDEST POP PUSH2 0xEC PUSH2 0xE7 CALLDATASIZE PUSH1 0x4 PUSH2 0xBBC JUMP JUMPDEST PUSH2 0x27A JUMP JUMPDEST PUSH1 0x40 MLOAD SWAP1 DUP2 MSTORE PUSH1 0x20 ADD JUMPDEST PUSH1 0x40 MLOAD DUP1 SWAP2 SUB SWAP1 RETURN JUMPDEST CALLVALUE DUP1 ISZERO PUSH2 0x10B JUMPI PUSH1 0x0 DUP1 REVERT JUMPDEST POP PUSH32 0x0 PUSH8 0xFFFFFFFFFFFFFFFF AND PUSH2 0xEC JUMP JUMPDEST CALLVALUE DUP1 ISZERO PUSH2 0x148 JUMPI PUSH1 0x0 DUP1 REVERT JUMPDEST POP PUSH2 0x15C PUSH2 0x157 CALLDATASIZE PUSH1 0x4 PUSH2 0xBE6 JUMP JUMPDEST PUSH2 0x2C1 JUMP JUMPDEST STOP JUMPDEST CALLVALUE DUP1 ISZERO PUSH2 0x16A JUMPI PUSH1 0x0 DUP1 REVERT JUMPDEST POP PUSH2 0x15C PUSH2 0x384 JUMP JUMPDEST CALLVALUE DUP1 ISZERO PUSH2 0x17F JUMPI PUSH1 0x0 DUP1 REVERT JUMPDEST POP PUSH2 0x15C PUSH2 0x3EA JUMP JUMPDEST CALLVALUE DUP1 ISZERO PUSH2 0x194 JUMPI PUSH1 0x0 DUP1 REVERT JUMPDEST POP PUSH1 0x0 SLOAD PUSH1 0x40 MLOAD PUSH1 0x1 PUSH1 0x1 PUSH1 0xA0 SHL SUB SWAP1 SWAP2 AND DUP2 MSTORE PUSH1 0x20 ADD PUSH2 0xF6 JUMP JUMPDEST CALLVALUE DUP1 ISZERO PUSH2 0x1BC JUMPI PUSH1 0x0 DUP1 REVERT JUMPDEST POP PUSH1 0x1 SLOAD PUSH1 0x1 PUSH1 0x1 PUSH1 0xA0 SHL SUB AND PUSH1 0x0 SWAP1 DUP2 MSTORE PUSH1 0x2 PUSH1 0x20 SWAP1 DUP2 MSTORE PUSH1 0x40 DUP1 DUP4 KECCAK256 CALLER DUP5 MSTORE SWAP1 SWAP2 MSTORE SWAP1 KECCAK256 SLOAD PUSH2 0xEC JUMP JUMPDEST CALLVALUE DUP1 ISZERO PUSH2 0x1F4 JUMPI PUSH1 0x0 DUP1 REVERT JUMPDEST POP PUSH32 0x0 PUSH8 0xFFFFFFFFFFFFFFFF AND PUSH2 0xEC JUMP JUMPDEST CALLVALUE DUP1 ISZERO PUSH2 0x231 JUMPI PUSH1 0x0 DUP1 REVERT JUMPDEST POP PUSH2 0x15C PUSH2 0x240 CALLDATASIZE PUSH1 0x4 PUSH2 0xBE6 JUMP JUMPDEST PUSH2 0x4E5 JUMP JUMPDEST CALLVALUE DUP1 ISZERO PUSH2 0x251 JUMPI PUSH1 0x0 DUP1 REVERT JUMPDEST POP PUSH2 0x15C PUSH2 0x260 CALLDATASIZE PUSH1 0x4 PUSH2 0xC5B JUMP JUMPDEST PUSH2 0x597 JUMP JUMPDEST CALLVALUE DUP1 ISZERO PUSH2 0x271 JUMPI PUSH1 0x0 DUP1 REVERT JUMPDEST POP PUSH2 0xEC PUSH2 0x676 JUMP JUMPDEST PUSH1 0x1 SLOAD PUSH1 0x1 PUSH1 0x1 PUSH1 0xA0 SHL SUB AND PUSH1 0x0 SWAP1 DUP2 MSTORE PUSH1 0x2 PUSH1 0x20 SWAP1 DUP2 MSTORE PUSH1 0x40 DUP1 DUP4 KECCAK256 CALLER DUP5 MSTORE DUP3 MSTORE DUP1 DUP4 KECCAK256 SLOAD PUSH1 0x3 SWAP1 SWAP3 MSTORE DUP3 KECCAK256 SLOAD PUSH2 0x2BB SWAP2 PUSH2 0x2B5 SWAP2 PUSH2 0xC9A JUMP JUMPDEST DUP4 PUSH2 0x6B4 JUMP JUMPDEST SWAP3 SWAP2 POP POP JUMP JUMPDEST PUSH1 0x0 SLOAD PUSH1 0x1 PUSH1 0x1 PUSH1 0xA0 SHL SUB AND CALLER EQ PUSH2 0x320 JUMPI PUSH1 0x40 MLOAD PUSH3 0x461BCD PUSH1 0xE5 SHL DUP2 MSTORE PUSH1 0x20 PUSH1 0x4 DUP3 ADD DUP2 SWAP1 MSTORE PUSH1 0x24 DUP3 ADD MSTORE PUSH32 0x4F776E61626C653A2063616C6C6572206973206E6F7420746865206F776E6572 PUSH1 0x44 DUP3 ADD MSTORE PUSH1 0x64 ADD JUMPDEST PUSH1 0x40 MLOAD DUP1 SWAP2 SUB SWAP1 REVERT JUMPDEST PUSH1 0x0 JUMPDEST DUP2 DUP2 LT ISZERO PUSH2 0x37F JUMPI PUSH2 0x377 DUP4 DUP4 DUP4 DUP2 DUP2 LT PUSH2 0x340 JUMPI PUSH2 0x340 PUSH2 0xCB2 JUMP JUMPDEST PUSH2 0x356 SWAP3 PUSH1 0x20 PUSH1 0x40 SWAP1 SWAP3 MUL ADD SWAP1 DUP2 ADD SWAP2 POP PUSH2 0xC5B JUMP JUMPDEST DUP5 DUP5 DUP5 DUP2 DUP2 LT PUSH2 0x368 JUMPI PUSH2 0x368 PUSH2 0xCB2 JUMP JUMPDEST SWAP1 POP PUSH1 0x40 MUL ADD PUSH1 0x20 ADD CALLDATALOAD PUSH2 0x7EE JUMP JUMPDEST PUSH1 0x1 ADD PUSH2 0x323 JUMP JUMPDEST POP POP POP JUMP JUMPDEST PUSH1 0x0 SLOAD PUSH1 0x1 PUSH1 0x1 PUSH1 0xA0 SHL SUB AND CALLER EQ PUSH2 0x3DE JUMPI PUSH1 0x40 MLOAD PUSH3 0x461BCD PUSH1 0xE5 SHL DUP2 MSTORE PUSH1 0x20 PUSH1 0x4 DUP3 ADD DUP2 SWAP1 MSTORE PUSH1 0x24 DUP3 ADD MSTORE PUSH32 0x4F776E61626C653A2063616C6C6572206973206E6F7420746865206F776E6572 PUSH1 0x44 DUP3 ADD MSTORE PUSH1 0x64 ADD PUSH2 0x317 JUMP JUMPDEST PUSH2 0x3E8 PUSH1 0x0 PUSH2 0x81F JUMP JUMPDEST JUMP JUMPDEST PUSH1 0x0 PUSH2 0x3F4 PUSH2 0x676 JUMP JUMPDEST CALLER PUSH1 0x0 SWAP1 DUP2 MSTORE PUSH1 0x4 PUSH1 0x20 MSTORE PUSH1 0x40 SWAP1 KECCAK256 SLOAD SWAP1 SWAP2 POP PUSH2 0x40F PUSH2 0x887 JUMP JUMPDEST GT ISZERO PUSH2 0x4E2 JUMPI PUSH2 0x41D PUSH2 0x887 JUMP JUMPDEST CALLER PUSH1 0x0 SWAP1 DUP2 MSTORE PUSH1 0x4 PUSH1 0x20 SWAP1 DUP2 MSTORE PUSH1 0x40 DUP1 DUP4 KECCAK256 SWAP4 SWAP1 SWAP4 SSTORE PUSH1 0x3 SWAP1 MSTORE SWAP1 DUP2 KECCAK256 DUP1 SLOAD DUP4 SWAP3 SWAP1 PUSH2 0x44A SWAP1 DUP5 SWAP1 PUSH2 0xCC8 JUMP JUMPDEST SWAP1 SWAP2 SSTORE POP POP PUSH1 0x1 SLOAD PUSH1 0x1 PUSH1 0x1 PUSH1 0xA0 SHL SUB AND PUSH1 0x0 SWAP1 DUP2 MSTORE PUSH1 0x2 PUSH1 0x20 SWAP1 DUP2 MSTORE PUSH1 0x40 DUP1 DUP4 KECCAK256 CALLER DUP5 MSTORE SWAP1 SWAP2 MSTORE DUP2 KECCAK256 DUP1 SLOAD DUP4 SWAP3 SWAP1 PUSH2 0x484 SWAP1 DUP5 SWAP1 PUSH2 0xC9A JUMP JUMPDEST SWAP1 SWAP2 SSTORE POP POP PUSH1 0x1 SLOAD PUSH1 0x40 MLOAD DUP3 DUP2 MSTORE CALLER SWAP2 PUSH1 0x1 PUSH1 0x1 PUSH1 0xA0 SHL SUB AND SWAP1 PUSH32 0x1998E30DB89DAF293A52C4FC4C4470CD506AAFC3F9683E8E5DADDAD80CD6F4A4 SWAP1 PUSH1 0x20 ADD PUSH1 0x40 MLOAD DUP1 SWAP2 SUB SWAP1 LOG3 PUSH1 0x1 SLOAD PUSH2 0x4E2 SWAP1 PUSH1 0x1 PUSH1 0x1 PUSH1 0xA0 SHL SUB AND CALLER DUP4 PUSH2 0x8D6 JUMP JUMPDEST POP JUMP JUMPDEST PUSH1 0x0 SLOAD PUSH1 0x1 PUSH1 0x1 PUSH1 0xA0 SHL SUB AND CALLER EQ PUSH2 0x53F JUMPI PUSH1 0x40 MLOAD PUSH3 0x461BCD PUSH1 0xE5 SHL DUP2 MSTORE PUSH1 0x20 PUSH1 0x4 DUP3 ADD DUP2 SWAP1 MSTORE PUSH1 0x24 DUP3 ADD MSTORE PUSH32 0x4F776E61626C653A2063616C6C6572206973206E6F7420746865206F776E6572 PUSH1 0x44 DUP3 ADD MSTORE PUSH1 0x64 ADD PUSH2 0x317 JUMP JUMPDEST PUSH1 0x0 JUMPDEST DUP2 DUP2 LT ISZERO PUSH2 0x37F JUMPI PUSH2 0x58F DUP4 DUP4 DUP4 DUP2 DUP2 LT PUSH2 0x55F JUMPI PUSH2 0x55F PUSH2 0xCB2 JUMP JUMPDEST PUSH2 0x575 SWAP3 PUSH1 0x20 PUSH1 0x40 SWAP1 SWAP3 MUL ADD SWAP1 DUP2 ADD SWAP2 POP PUSH2 0xC5B JUMP JUMPDEST PUSH1 0x1 PUSH1 0x1 PUSH1 0xA0 SHL SUB AND PUSH1 0x0 SWAP1 DUP2 MSTORE PUSH1 0x3 PUSH1 0x20 MSTORE PUSH1 0x40 DUP2 KECCAK256 SSTORE JUMP JUMPDEST PUSH1 0x1 ADD PUSH2 0x542 JUMP JUMPDEST PUSH1 0x0 SLOAD PUSH1 0x1 PUSH1 0x1 PUSH1 0xA0 SHL SUB AND CALLER EQ PUSH2 0x5F1 JUMPI PUSH1 0x40 MLOAD PUSH3 0x461BCD PUSH1 0xE5 SHL DUP2 MSTORE PUSH1 0x20 PUSH1 0x4 DUP3 ADD DUP2 SWAP1 MSTORE PUSH1 0x24 DUP3 ADD MSTORE PUSH32 0x4F776E61626C653A2063616C6C6572206973206E6F7420746865206F776E6572 PUSH1 0x44 DUP3 ADD MSTORE PUSH1 0x64 ADD PUSH2 0x317 JUMP JUMPDEST PUSH1 0x1 PUSH1 0x1 PUSH1 0xA0 SHL SUB DUP2 AND PUSH2 0x66D JUMPI PUSH1 0x40 MLOAD PUSH3 0x461BCD PUSH1 0xE5 SHL DUP2 MSTORE PUSH1 0x20 PUSH1 0x4 DUP3 ADD MSTORE PUSH1 0x26 PUSH1 0x24 DUP3 ADD MSTORE PUSH32 0x4F776E61626C653A206E6577206F776E657220697320746865207A65726F2061 PUSH1 0x44 DUP3 ADD MSTORE PUSH32 0x6464726573730000000000000000000000000000000000000000000000000000 PUSH1 0x64 DUP3 ADD MSTORE PUSH1 0x84 ADD PUSH2 0x317 JUMP JUMPDEST PUSH2 0x4E2 DUP2 PUSH2 0x81F JUMP JUMPDEST PUSH1 0x1 SLOAD PUSH1 0x1 PUSH1 0x1 PUSH1 0xA0 SHL SUB AND PUSH1 0x0 SWAP1 DUP2 MSTORE PUSH1 0x2 PUSH1 0x20 SWAP1 DUP2 MSTORE PUSH1 0x40 DUP1 DUP4 KECCAK256 CALLER DUP5 MSTORE SWAP1 SWAP2 MSTORE DUP2 KECCAK256 SLOAD PUSH2 0x6A5 TIMESTAMP PUSH2 0x27A JUMP JUMPDEST PUSH2 0x6AF SWAP2 SWAP1 PUSH2 0xCC8 JUMP JUMPDEST SWAP1 POP SWAP1 JUMP JUMPDEST PUSH1 0x0 PUSH32 0x0 PUSH8 0xFFFFFFFFFFFFFFFF AND DUP3 PUSH8 0xFFFFFFFFFFFFFFFF AND LT ISZERO PUSH2 0x6FA JUMPI POP PUSH1 0x0 PUSH2 0x2BB JUMP JUMPDEST PUSH2 0x751 PUSH8 0xFFFFFFFFFFFFFFFF PUSH32 0x0 DUP2 AND SWAP1 PUSH32 0x0 AND PUSH2 0xC9A JUMP JUMPDEST DUP3 PUSH8 0xFFFFFFFFFFFFFFFF AND GT ISZERO PUSH2 0x769 JUMPI POP DUP2 PUSH2 0x2BB JUMP JUMPDEST PUSH32 0x0 PUSH8 0xFFFFFFFFFFFFFFFF AND PUSH32 0x0 PUSH8 0xFFFFFFFFFFFFFFFF AND PUSH2 0x7D3 SWAP1 PUSH8 0xFFFFFFFFFFFFFFFF DUP6 AND PUSH2 0xCC8 JUMP JUMPDEST PUSH2 0x7DD SWAP1 DUP6 PUSH2 0xCDF JUMP JUMPDEST PUSH2 0x7E7 SWAP2 SWAP1 PUSH2 0xCFE JUMP JUMPDEST SWAP4 SWAP3 POP POP POP JUMP JUMPDEST PUSH1 0x1 PUSH1 0x1 PUSH1 0xA0 SHL SUB DUP3 AND PUSH1 0x0 SWAP1 DUP2 MSTORE PUSH1 0x3 PUSH1 0x20 MSTORE PUSH1 0x40 DUP2 KECCAK256 DUP1 SLOAD DUP4 SWAP3 SWAP1 PUSH2 0x816 SWAP1 DUP5 SWAP1 PUSH2 0xC9A JUMP JUMPDEST SWAP1 SWAP2 SSTORE POP POP POP POP JUMP JUMPDEST PUSH1 0x0 DUP1 SLOAD PUSH1 0x1 PUSH1 0x1 PUSH1 0xA0 SHL SUB DUP4 DUP2 AND PUSH32 0xFFFFFFFFFFFFFFFFFFFFFFFF0000000000000000000000000000000000000000 DUP4 AND DUP2 OR DUP5 SSTORE PUSH1 0x40 MLOAD SWAP2 SWAP1 SWAP3 AND SWAP3 DUP4 SWAP2 PUSH32 0x8BE0079C531659141344CD1FD0A4F28419497F9722A3DAAFE3B4186F6B6457E0 SWAP2 SWAP1 LOG3 POP POP JUMP JUMPDEST PUSH1 0x0 PUSH3 0x15180 PUSH32 0x0 PUSH8 0xFFFFFFFFFFFFFFFF AND PUSH2 0x8CC SWAP1 PUSH8 0xFFFFFFFFFFFFFFFF TIMESTAMP AND PUSH2 0xCC8 JUMP JUMPDEST PUSH2 0x6AF SWAP2 SWAP1 PUSH2 0xCFE JUMP JUMPDEST PUSH1 0x40 DUP1 MLOAD PUSH1 0x1 PUSH1 0x1 PUSH1 0xA0 SHL SUB DUP5 DUP2 AND PUSH1 0x24 DUP4 ADD MSTORE PUSH1 0x44 DUP1 DUP4 ADD DUP6 SWAP1 MSTORE DUP4 MLOAD DUP1 DUP5 SUB SWAP1 SWAP2 ADD DUP2 MSTORE PUSH1 0x64 SWAP1 SWAP3 ADD DUP4 MSTORE PUSH1 0x20 DUP1 DUP4 ADD DUP1 MLOAD PUSH28 0xFFFFFFFFFFFFFFFFFFFFFFFFFFFFFFFFFFFFFFFFFFFFFFFFFFFFFFFF AND PUSH32 0xA9059CBB00000000000000000000000000000000000000000000000000000000 OR SWAP1 MSTORE DUP4 MLOAD DUP1 DUP6 ADD SWAP1 SWAP5 MSTORE DUP1 DUP5 MSTORE PUSH32 0x5361666545524332303A206C6F772D6C6576656C2063616C6C206661696C6564 SWAP1 DUP5 ADD MSTORE PUSH2 0x37F SWAP3 DUP7 SWAP3 SWAP2 PUSH1 0x0 SWAP2 PUSH2 0x994 SWAP2 DUP6 AND SWAP1 DUP5 SWAP1 PUSH2 0xA24 JUMP JUMPDEST DUP1 MLOAD SWAP1 SWAP2 POP ISZERO PUSH2 0x37F JUMPI DUP1 DUP1 PUSH1 0x20 ADD SWAP1 MLOAD DUP2 ADD SWAP1 PUSH2 0x9B2 SWAP2 SWAP1 PUSH2 0xD20 JUMP JUMPDEST PUSH2 0x37F JUMPI PUSH1 0x40 MLOAD PUSH3 0x461BCD PUSH1 0xE5 SHL DUP2 MSTORE PUSH1 0x20 PUSH1 0x4 DUP3 ADD MSTORE PUSH1 0x2A PUSH1 0x24 DUP3 ADD MSTORE PUSH32 0x5361666545524332303A204552433230206F7065726174696F6E20646964206E PUSH1 0x44 DUP3 ADD MSTORE PUSH32 0x6F74207375636365656400000000000000000000000000000000000000000000 PUSH1 0x64 DUP3 ADD MSTORE PUSH1 0x84 ADD PUSH2 0x317 JUMP JUMPDEST PUSH1 0x60 PUSH2 0xA33 DUP5 DUP5 PUSH1 0x0 DUP6 PUSH2 0xA3B JUMP JUMPDEST SWAP5 SWAP4 POP POP POP POP JUMP JUMPDEST PUSH1 0x60 DUP3 SELFBALANCE LT ISZERO PUSH2 0xAB3 JUMPI PUSH1 0x40 MLOAD PUSH3 0x461BCD PUSH1 0xE5 SHL DUP2 MSTORE PUSH1 0x20 PUSH1 0x4 DUP3 ADD MSTORE PUSH1 0x26 PUSH1 0x24 DUP3 ADD MSTORE PUSH32 0x416464726573733A20696E73756666696369656E742062616C616E636520666F PUSH1 0x44 DUP3 ADD MSTORE PUSH32 0x722063616C6C0000000000000000000000000000000000000000000000000000 PUSH1 0x64 DUP3 ADD MSTORE PUSH1 0x84 ADD PUSH2 0x317 JUMP JUMPDEST PUSH1 0x1 PUSH1 0x1 PUSH1 0xA0 SHL SUB DUP6 AND EXTCODESIZE PUSH2 0xB0A JUMPI PUSH1 0x40 MLOAD PUSH3 0x461BCD PUSH1 0xE5 SHL DUP2 MSTORE PUSH1 0x20 PUSH1 0x4 DUP3 ADD MSTORE PUSH1 0x1D PUSH1 0x24 DUP3 ADD MSTORE PUSH32 0x416464726573733A2063616C6C20746F206E6F6E2D636F6E7472616374000000 PUSH1 0x44 DUP3 ADD MSTORE PUSH1 0x64 ADD PUSH2 0x317 JUMP JUMPDEST PUSH1 0x0 DUP1 DUP7 PUSH1 0x1 PUSH1 0x1 PUSH1 0xA0 SHL SUB AND DUP6 DUP8 PUSH1 0x40 MLOAD PUSH2 0xB26 SWAP2 SWAP1 PUSH2 0xD72 JUMP JUMPDEST PUSH1 0x0 PUSH1 0x40 MLOAD DUP1 DUP4 SUB DUP2 DUP6 DUP8 GAS CALL SWAP3 POP POP POP RETURNDATASIZE DUP1 PUSH1 0x0 DUP2 EQ PUSH2 0xB63 JUMPI PUSH1 0x40 MLOAD SWAP2 POP PUSH1 0x1F NOT PUSH1 0x3F RETURNDATASIZE ADD AND DUP3 ADD PUSH1 0x40 MSTORE RETURNDATASIZE DUP3 MSTORE RETURNDATASIZE PUSH1 0x0 PUSH1 0x20 DUP5 ADD RETURNDATACOPY PUSH2 0xB68 JUMP JUMPDEST PUSH1 0x60 SWAP2 POP JUMPDEST POP SWAP2 POP SWAP2 POP PUSH2 0xB78 DUP3 DUP3 DUP7 PUSH2 0xB83 JUMP JUMPDEST SWAP8 SWAP7 POP POP POP POP POP POP POP JUMP JUMPDEST PUSH1 0x60 DUP4 ISZERO PUSH2 0xB92 JUMPI POP DUP2 PUSH2 0x7E7 JUMP JUMPDEST DUP3 MLOAD ISZERO PUSH2 0xBA2 JUMPI DUP3 MLOAD DUP1 DUP5 PUSH1 0x20 ADD REVERT JUMPDEST DUP2 PUSH1 0x40 MLOAD PUSH3 0x461BCD PUSH1 0xE5 SHL DUP2 MSTORE PUSH1 0x4 ADD PUSH2 0x317 SWAP2 SWAP1 PUSH2 0xD8E JUMP JUMPDEST PUSH1 0x0 PUSH1 0x20 DUP3 DUP5 SUB SLT ISZERO PUSH2 0xBCE JUMPI PUSH1 0x0 DUP1 REVERT JUMPDEST DUP2 CALLDATALOAD PUSH8 0xFFFFFFFFFFFFFFFF DUP2 AND DUP2 EQ PUSH2 0x7E7 JUMPI PUSH1 0x0 DUP1 REVERT JUMPDEST PUSH1 0x0 DUP1 PUSH1 0x20 DUP4 DUP6 SUB SLT ISZERO PUSH2 0xBF9 JUMPI PUSH1 0x0 DUP1 REVERT JUMPDEST DUP3 CALLDATALOAD PUSH8 0xFFFFFFFFFFFFFFFF DUP1 DUP3 GT ISZERO PUSH2 0xC11 JUMPI PUSH1 0x0 DUP1 REVERT JUMPDEST DUP2 DUP6 ADD SWAP2 POP DUP6 PUSH1 0x1F DUP4 ADD SLT PUSH2 0xC25 JUMPI PUSH1 0x0 DUP1 REVERT JUMPDEST DUP2 CALLDATALOAD DUP2 DUP2 GT ISZERO PUSH2 0xC34 JUMPI PUSH1 0x0 DUP1 REVERT JUMPDEST DUP7 PUSH1 0x20 DUP3 PUSH1 0x6 SHL DUP6 ADD ADD GT ISZERO PUSH2 0xC49 JUMPI PUSH1 0x0 DUP1 REVERT JUMPDEST PUSH1 0x20 SWAP3 SWAP1 SWAP3 ADD SWAP7 SWAP2 SWAP6 POP SWAP1 SWAP4 POP POP POP POP JUMP JUMPDEST PUSH1 0x0 PUSH1 0x20 DUP3 DUP5 SUB SLT ISZERO PUSH2 0xC6D JUMPI PUSH1 0x0 DUP1 REVERT JUMPDEST DUP2 CALLDATALOAD PUSH1 0x1 PUSH1 0x1 PUSH1 0xA0 SHL SUB DUP2 AND DUP2 EQ PUSH2 0x7E7 JUMPI PUSH1 0x0 DUP1 REVERT JUMPDEST PUSH4 0x4E487B71 PUSH1 0xE0 SHL PUSH1 0x0 MSTORE PUSH1 0x11 PUSH1 0x4 MSTORE PUSH1 0x24 PUSH1 0x0 REVERT JUMPDEST PUSH1 0x0 DUP3 NOT DUP3 GT ISZERO PUSH2 0xCAD JUMPI PUSH2 0xCAD PUSH2 0xC84 JUMP JUMPDEST POP ADD SWAP1 JUMP JUMPDEST PUSH4 0x4E487B71 PUSH1 0xE0 SHL PUSH1 0x0 MSTORE PUSH1 0x32 PUSH1 0x4 MSTORE PUSH1 0x24 PUSH1 0x0 REVERT JUMPDEST PUSH1 0x0 DUP3 DUP3 LT ISZERO PUSH2 0xCDA JUMPI PUSH2 0xCDA PUSH2 0xC84 JUMP JUMPDEST POP SUB SWAP1 JUMP JUMPDEST PUSH1 0x0 DUP2 PUSH1 0x0 NOT DIV DUP4 GT DUP3 ISZERO ISZERO AND ISZERO PUSH2 0xCF9 JUMPI PUSH2 0xCF9 PUSH2 0xC84 JUMP JUMPDEST POP MUL SWAP1 JUMP JUMPDEST PUSH1 0x0 DUP3 PUSH2 0xD1B JUMPI PUSH4 0x4E487B71 PUSH1 0xE0 SHL PUSH1 0x0 MSTORE PUSH1 0x12 PUSH1 0x4 MSTORE PUSH1 0x24 PUSH1 0x0 REVERT JUMPDEST POP DIV SWAP1 JUMP JUMPDEST PUSH1 0x0 PUSH1 0x20 DUP3 DUP5 SUB SLT ISZERO PUSH2 0xD32 JUMPI PUSH1 0x0 DUP1 REVERT JUMPDEST DUP2 MLOAD DUP1 ISZERO ISZERO DUP2 EQ PUSH2 0x7E7 JUMPI PUSH1 0x0 DUP1 REVERT JUMPDEST PUSH1 0x0 JUMPDEST DUP4 DUP2 LT ISZERO PUSH2 0xD5D JUMPI DUP2 DUP2 ADD MLOAD DUP4 DUP3 ADD MSTORE PUSH1 0x20 ADD PUSH2 0xD45 JUMP JUMPDEST DUP4 DUP2 GT ISZERO PUSH2 0xD6C JUMPI PUSH1 0x0 DUP5 DUP5 ADD MSTORE JUMPDEST POP POP POP POP JUMP JUMPDEST PUSH1 0x0 DUP3 MLOAD PUSH2 0xD84 DUP2 DUP5 PUSH1 0x20 DUP8 ADD PUSH2 0xD42 JUMP JUMPDEST SWAP2 SWAP1 SWAP2 ADD SWAP3 SWAP2 POP POP JUMP JUMPDEST PUSH1 0x20 DUP2 MSTORE PUSH1 0x0 DUP3 MLOAD DUP1 PUSH1 0x20 DUP5 ADD MSTORE PUSH2 0xDAD DUP2 PUSH1 0x40 DUP6 ADD PUSH1 0x20 DUP8 ADD PUSH2 0xD42 JUMP JUMPDEST PUSH1 0x1F ADD PUSH1 0x1F NOT AND SWAP2 SWAP1 SWAP2 ADD PUSH1 0x40 ADD SWAP3 SWAP2 POP POP JUMP INVALID LOG2 PUSH5 0x6970667358 0x22 SLT KECCAK256 0x2E 0xB1 DUP9 ADDMOD 0xD4 BYTE GASLIMIT RETURNDATASIZE 0x22 DIFFICULTY STOP LT CALLVALUE DUP15 DUP12 0x25 PUSH5 0x42C165C5A2 0xF7 0x28 CALL DIFFICULTY 0xBF DUP2 SLT LOG1 0x5F 0xC9 PUSH5 0x736F6C6343 STOP ADDMOD SIGNEXTEND STOP CALLER "
				},
				"gasEstimates": {
					"creation": {
						"codeDepositCost": "715000",
						"executionCost": "infinite",
						"totalCost": "infinite"
					},
					"external": {
						"addMultiVesting((address,uint256)[])": "infinite",
						"deleteMultiVesting((address,uint256)[])": "infinite",
						"duration()": "infinite",
						"owner()": "2324",
						"releasable()": "infinite",
						"release()": "infinite",
						"released()": "4584",
						"renounceOwnership()": "28144",
						"start()": "infinite",
						"transferOwnership(address)": "28303",
						"vestedAmount(uint64)": "infinite"
					},
					"internal": {
						"_currentMonth()": "infinite",
						"_delete(address)": "infinite",
						"_unsafeInc(uint256)": "infinite",
						"_vest(address,uint256)": "24404",
						"_vestingSchedule(uint256,uint64)": "infinite"
					}
				},
				"methodIdentifiers": {
					"addMultiVesting((address,uint256)[])": "27c2e722",
					"deleteMultiVesting((address,uint256)[])": "de809847",
					"duration()": "0fb5a6b4",
					"owner()": "8da5cb5b",
					"releasable()": "fbccedae",
					"release()": "86d1a69f",
					"released()": "96132521",
					"renounceOwnership()": "715018a6",
					"start()": "be9a6555",
					"transferOwnership(address)": "f2fde38b",
					"vestedAmount(uint64)": "0a17b06b"
				}
			},
			"storageLayout": {
				"storage": [
					{
						"astId": 7,
						"contract": "contracts/Whitelist-2.0.sol:WhitelistVesting",
						"label": "_owner",
						"offset": 0,
						"slot": "0",
						"type": "t_address"
					},
					{
						"astId": 749,
						"contract": "contracts/Whitelist-2.0.sol:WhitelistVesting",
						"label": "_token",
						"offset": 0,
						"slot": "1",
						"type": "t_address"
					},
					{
						"astId": 755,
						"contract": "contracts/Whitelist-2.0.sol:WhitelistVesting",
						"label": "_erc20Released",
						"offset": 0,
						"slot": "2",
						"type": "t_mapping(t_address,t_mapping(t_address,t_uint256))"
					},
					{
						"astId": 759,
						"contract": "contracts/Whitelist-2.0.sol:WhitelistVesting",
						"label": "_beneficiary",
						"offset": 0,
						"slot": "3",
						"type": "t_mapping(t_address,t_uint256)"
					},
					{
						"astId": 767,
						"contract": "contracts/Whitelist-2.0.sol:WhitelistVesting",
						"label": "_lastMonth",
						"offset": 0,
						"slot": "4",
						"type": "t_mapping(t_address,t_uint256)"
					}
				],
				"types": {
					"t_address": {
						"encoding": "inplace",
						"label": "address",
						"numberOfBytes": "20"
					},
					"t_mapping(t_address,t_mapping(t_address,t_uint256))": {
						"encoding": "mapping",
						"key": "t_address",
						"label": "mapping(address => mapping(address => uint256))",
						"numberOfBytes": "32",
						"value": "t_mapping(t_address,t_uint256)"
					},
					"t_mapping(t_address,t_uint256)": {
						"encoding": "mapping",
						"key": "t_address",
						"label": "mapping(address => uint256)",
						"numberOfBytes": "32",
						"value": "t_uint256"
					},
					"t_uint256": {
						"encoding": "inplace",
						"label": "uint256",
						"numberOfBytes": "32"
					}
				}
			},
			"userdoc": {
				"kind": "user",
				"methods": {},
				"version": 1
			}
		}
	}
}