{
	"contracts/Stakable.sol": {
		"Stakable": {
			"abi": [
				{
					"inputs": [],
					"stateMutability": "nonpayable",
					"type": "constructor"
				},
				{
					"inputs": [],
					"name": "Airdrop__claimableOnceAWeek",
					"type": "error"
				},
				{
					"inputs": [],
					"name": "Function__notAVoter",
					"type": "error"
				},
				{
					"inputs": [],
					"name": "Function__notAuthorized",
					"type": "error"
				},
				{
					"inputs": [],
					"name": "Function__votingNotAvailable",
					"type": "error"
				},
				{
					"inputs": [],
					"name": "Staking__airdropExceed20Percent",
					"type": "error"
				},
				{
					"inputs": [],
					"name": "Staking__cannotStakeNothing",
					"type": "error"
				},
				{
					"inputs": [],
					"name": "Staking__noStakingFound",
					"type": "error"
				},
				{
					"inputs": [],
					"name": "Staking__penaltyExceed3Percent",
					"type": "error"
				},
				{
					"inputs": [],
					"name": "Staking__userIsStaker",
					"type": "error"
				},
				{
					"inputs": [],
					"name": "Voting__alreadyVoted",
					"type": "error"
				},
				{
					"inputs": [],
					"name": "Voting__notEnoughVoters",
					"type": "error"
				},
				{
					"inputs": [],
					"name": "Voting__notYetVoted",
					"type": "error"
				},
				{
					"inputs": [],
					"name": "Voting__votingIsRunning",
					"type": "error"
				},
				{
					"anonymous": false,
					"inputs": [
						{
							"indexed": false,
							"internalType": "uint256",
							"name": "amount",
							"type": "uint256"
						}
					],
					"name": "AirdropChanged",
					"type": "event"
				},
				{
					"anonymous": false,
					"inputs": [
						{
							"indexed": false,
							"internalType": "uint256",
							"name": "amount",
							"type": "uint256"
						}
					],
					"name": "PenaltyChanged",
					"type": "event"
				},
				{
					"anonymous": false,
					"inputs": [
						{
							"indexed": true,
							"internalType": "address",
							"name": "user",
							"type": "address"
						},
						{
							"indexed": false,
							"internalType": "uint256",
							"name": "amount",
							"type": "uint256"
						},
						{
							"indexed": false,
							"internalType": "uint256",
							"name": "timestamp",
							"type": "uint256"
						},
						{
							"indexed": false,
							"internalType": "uint256",
							"name": "releaseTime",
							"type": "uint256"
						}
					],
					"name": "Staked",
					"type": "event"
				},
				{
					"inputs": [],
					"name": "_owner",
					"outputs": [
						{
							"internalType": "address",
							"name": "",
							"type": "address"
						}
					],
					"stateMutability": "view",
					"type": "function"
				},
				{
					"inputs": [],
					"name": "_talax",
					"outputs": [
						{
							"internalType": "address",
							"name": "",
							"type": "address"
						}
					],
					"stateMutability": "view",
					"type": "function"
				},
				{
					"inputs": [],
					"name": "airdropRate",
					"outputs": [
						{
							"internalType": "uint256",
							"name": "",
							"type": "uint256"
						}
					],
					"stateMutability": "view",
					"type": "function"
				},
				{
					"inputs": [],
					"name": "airdropSince",
					"outputs": [
						{
							"internalType": "uint256",
							"name": "",
							"type": "uint256"
						}
					],
					"stateMutability": "view",
					"type": "function"
				},
				{
					"inputs": [],
					"name": "airdropWeek",
					"outputs": [
						{
							"internalType": "uint256",
							"name": "",
							"type": "uint256"
						}
					],
					"stateMutability": "view",
					"type": "function"
				},
				{
					"inputs": [
						{
							"internalType": "uint256",
							"name": "amount",
							"type": "uint256"
						}
					],
					"name": "changeAirdropPercentage",
					"outputs": [],
					"stateMutability": "nonpayable",
					"type": "function"
				},
				{
					"inputs": [
						{
							"internalType": "uint256",
							"name": "amount",
							"type": "uint256"
						}
					],
					"name": "changePenaltyFee",
					"outputs": [],
					"stateMutability": "nonpayable",
					"type": "function"
				},
				{
					"inputs": [
						{
							"internalType": "address",
							"name": "talax",
							"type": "address"
						}
					],
					"name": "changeTalaxAddress",
					"outputs": [],
					"stateMutability": "nonpayable",
					"type": "function"
				},
				{
					"inputs": [
						{
							"internalType": "address",
							"name": "user",
							"type": "address"
						}
					],
					"name": "claimAirdrop",
					"outputs": [
						{
							"internalType": "uint256",
							"name": "",
							"type": "uint256"
						}
					],
					"stateMutability": "view",
					"type": "function"
				},
				{
					"inputs": [
						{
							"internalType": "address",
							"name": "user",
							"type": "address"
						}
					],
					"name": "getVoters",
					"outputs": [
						{
							"internalType": "bool",
							"name": "",
							"type": "bool"
						},
						{
							"internalType": "bool",
							"name": "",
							"type": "bool"
						}
					],
					"stateMutability": "view",
					"type": "function"
				},
				{
					"inputs": [],
					"name": "getVotingResult",
					"outputs": [
						{
							"internalType": "bool",
							"name": "",
							"type": "bool"
						}
					],
					"stateMutability": "view",
					"type": "function"
				},
				{
					"inputs": [],
					"name": "hasStake",
					"outputs": [
						{
							"components": [
								{
									"internalType": "uint256",
									"name": "total_amount",
									"type": "uint256"
								},
								{
									"internalType": "uint256",
									"name": "penalty",
									"type": "uint256"
								},
								{
									"components": [
										{
											"internalType": "uint256",
											"name": "amount",
											"type": "uint256"
										},
										{
											"internalType": "uint256",
											"name": "since",
											"type": "uint256"
										},
										{
											"internalType": "uint256",
											"name": "rewardAPY",
											"type": "uint256"
										},
										{
											"internalType": "uint256",
											"name": "releaseTime",
											"type": "uint256"
										},
										{
											"internalType": "uint256",
											"name": "claimable",
											"type": "uint256"
										},
										{
											"internalType": "uint256",
											"name": "claimableAirdrop",
											"type": "uint256"
										},
										{
											"internalType": "uint256",
											"name": "latestClaimDrop",
											"type": "uint256"
										}
									],
									"internalType": "struct Stakable.Stake",
									"name": "stake",
									"type": "tuple"
								}
							],
							"internalType": "struct Stakable.StakingSummary",
							"name": "",
							"type": "tuple"
						}
					],
					"stateMutability": "view",
					"type": "function"
				},
				{
					"inputs": [],
					"name": "retractVote",
					"outputs": [],
					"stateMutability": "nonpayable",
					"type": "function"
				},
				{
					"inputs": [
						{
							"internalType": "address",
							"name": "user",
							"type": "address"
						},
						{
							"internalType": "uint256",
							"name": "amount",
							"type": "uint256"
						},
						{
							"internalType": "uint256",
							"name": "stakePeriod",
							"type": "uint256"
						},
						{
							"internalType": "uint256",
							"name": "rewardRate",
							"type": "uint256"
						}
					],
					"name": "stake",
					"outputs": [],
					"stateMutability": "nonpayable",
					"type": "function"
				},
				{
					"inputs": [],
					"name": "stakingPenaltyRate",
					"outputs": [
						{
							"internalType": "uint256",
							"name": "",
							"type": "uint256"
						}
					],
					"stateMutability": "view",
					"type": "function"
				},
				{
					"inputs": [],
					"name": "startAirdropSince",
					"outputs": [],
					"stateMutability": "nonpayable",
					"type": "function"
				},
				{
					"inputs": [],
					"name": "startVoting",
					"outputs": [],
					"stateMutability": "nonpayable",
					"type": "function"
				},
				{
					"inputs": [],
					"name": "stopVoting",
					"outputs": [],
					"stateMutability": "nonpayable",
					"type": "function"
				},
				{
					"inputs": [],
					"name": "totalVoters",
					"outputs": [
						{
							"internalType": "uint256",
							"name": "",
							"type": "uint256"
						}
					],
					"stateMutability": "view",
					"type": "function"
				},
				{
					"inputs": [],
					"name": "vote",
					"outputs": [],
					"stateMutability": "nonpayable",
					"type": "function"
				},
				{
					"inputs": [
						{
							"internalType": "uint256",
							"name": "",
							"type": "uint256"
						}
					],
					"name": "votedUsers",
					"outputs": [
						{
							"internalType": "uint256",
							"name": "",
							"type": "uint256"
						}
					],
					"stateMutability": "view",
					"type": "function"
				},
				{
					"inputs": [
						{
							"internalType": "address",
							"name": "",
							"type": "address"
						}
					],
					"name": "voters",
					"outputs": [
						{
							"internalType": "bool",
							"name": "votingRight",
							"type": "bool"
						}
					],
					"stateMutability": "view",
					"type": "function"
				},
				{
					"inputs": [
						{
							"internalType": "address",
							"name": "user",
							"type": "address"
						}
					],
					"name": "withdrawStake",
					"outputs": [
						{
							"internalType": "uint256",
							"name": "",
							"type": "uint256"
						},
						{
							"internalType": "uint256",
							"name": "",
							"type": "uint256"
						}
					],
					"stateMutability": "nonpayable",
					"type": "function"
				}
			],
			"devdoc": {
				"kind": "dev",
				"methods": {},
				"version": 1
			},
			"evm": {
				"assembly": "    /* \"contracts/Stakable.sol\":880:13543  contract Stakable is ReentrancyGuard {... */\n  mstore(0x40, 0x80)\n    /* \"contracts/Stakable.sol\":1566:1766  constructor() {... */\n  callvalue\n  dup1\n  iszero\n  tag_1\n  jumpi\n  0x00\n  dup1\n  revert\ntag_1:\n  pop\n    /* \"@openzeppelin/contracts/security/ReentrancyGuard.sol\":1701:1702  1 */\n  0x01\n    /* \"@openzeppelin/contracts/security/ReentrancyGuard.sol\":1806:1813  _status */\n  0x00\n    /* \"@openzeppelin/contracts/security/ReentrancyGuard.sol\":1806:1828  _status = _NOT_ENTERED */\n  dup2\n  swap1\n  sstore\n  pop\n    /* \"contracts/Stakable.sol\":1673:1675  15 */\n  0x0f\n    /* \"contracts/Stakable.sol\":1652:1670  stakingPenaltyRate */\n  0x01\n    /* \"contracts/Stakable.sol\":1652:1675  stakingPenaltyRate = 15 */\n  dup2\n  swap1\n  sstore\n  pop\n    /* \"contracts/Stakable.sol\":1699:1701  80 */\n  0x50\n    /* \"contracts/Stakable.sol\":1685:1696  airdropRate */\n  0x02\n    /* \"contracts/Stakable.sol\":1685:1701  airdropRate = 80 */\n  dup2\n  swap1\n  sstore\n  pop\n    /* \"contracts/Stakable.sol\":1720:1730  msg.sender */\n  caller\n    /* \"contracts/Stakable.sol\":1711:1717  _talax */\n  0x09\n  0x00\n    /* \"contracts/Stakable.sol\":1711:1730  _talax = msg.sender */\n  0x0100\n  exp\n  dup2\n  sload\n  dup2\n  0xffffffffffffffffffffffffffffffffffffffff\n  mul\n  not\n  and\n  swap1\n  dup4\n  0xffffffffffffffffffffffffffffffffffffffff\n  and\n  mul\n  or\n  swap1\n  sstore\n  pop\n    /* \"contracts/Stakable.sol\":1749:1759  msg.sender */\n  caller\n    /* \"contracts/Stakable.sol\":1740:1746  _owner */\n  0x0a\n  0x00\n    /* \"contracts/Stakable.sol\":1740:1759  _owner = msg.sender */\n  0x0100\n  exp\n  dup2\n  sload\n  dup2\n  0xffffffffffffffffffffffffffffffffffffffff\n  mul\n  not\n  and\n  swap1\n  dup4\n  0xffffffffffffffffffffffffffffffffffffffff\n  and\n  mul\n  or\n  swap1\n  sstore\n  pop\n    /* \"contracts/Stakable.sol\":880:13543  contract Stakable is ReentrancyGuard {... */\n  dataSize(sub_0)\n  dup1\n  dataOffset(sub_0)\n  0x00\n  codecopy\n  0x00\n  return\nstop\n\nsub_0: assembly {\n        /* \"contracts/Stakable.sol\":880:13543  contract Stakable is ReentrancyGuard {... */\n      mstore(0x40, 0x80)\n      callvalue\n      dup1\n      iszero\n      tag_1\n      jumpi\n      0x00\n      dup1\n      revert\n    tag_1:\n      pop\n      jumpi(tag_2, lt(calldatasize, 0x04))\n      shr(0xe0, calldataload(0x00))\n      dup1\n      0x8891cf0d\n      gt\n      tag_26\n      jumpi\n      dup1\n      0xc23a5cea\n      gt\n      tag_27\n      jumpi\n      dup1\n      0xc23a5cea\n      eq\n      tag_20\n      jumpi\n      dup1\n      0xcb79c2e1\n      eq\n      tag_21\n      jumpi\n      dup1\n      0xcbb3e152\n      eq\n      tag_22\n      jumpi\n      dup1\n      0xd5dbdf1b\n      eq\n      tag_23\n      jumpi\n      dup1\n      0xf93d4f8a\n      eq\n      tag_24\n      jumpi\n      dup1\n      0xfab2f86b\n      eq\n      tag_25\n      jumpi\n      jump(tag_2)\n    tag_27:\n      dup1\n      0x8891cf0d\n      eq\n      tag_14\n      jumpi\n      dup1\n      0x8c63f97f\n      eq\n      tag_15\n      jumpi\n      dup1\n      0xa143a5f2\n      eq\n      tag_16\n      jumpi\n      dup1\n      0xa3ec138d\n      eq\n      tag_17\n      jumpi\n      dup1\n      0xb2bdfa7b\n      eq\n      tag_18\n      jumpi\n      dup1\n      0xb87da76d\n      eq\n      tag_19\n      jumpi\n      jump(tag_2)\n    tag_26:\n      dup1\n      0x5f348b4e\n      gt\n      tag_28\n      jumpi\n      dup1\n      0x5f348b4e\n      eq\n      tag_8\n      jumpi\n      dup1\n      0x5f5300ff\n      eq\n      tag_9\n      jumpi\n      dup1\n      0x632a9a52\n      eq\n      tag_10\n      jumpi\n      dup1\n      0x65f8c6c5\n      eq\n      tag_11\n      jumpi\n      dup1\n      0x671d2b75\n      eq\n      tag_12\n      jumpi\n      dup1\n      0x71e3db87\n      eq\n      tag_13\n      jumpi\n      jump(tag_2)\n    tag_28:\n      dup1\n      0x070c8b74\n      eq\n      tag_3\n      jumpi\n      dup1\n      0x10486b6a\n      eq\n      tag_4\n      jumpi\n      dup1\n      0x1d77b00b\n      eq\n      tag_5\n      jumpi\n      dup1\n      0x1ec6b60a\n      eq\n      tag_6\n      jumpi\n      dup1\n      0x2d15cc04\n      eq\n      tag_7\n      jumpi\n    tag_2:\n      0x00\n      dup1\n      revert\n        /* \"contracts/Stakable.sol\":12533:12945  function retractVote() public nonReentrant votingStatusTrue isVoter {... */\n    tag_3:\n      tag_29\n      tag_30\n      jump\t// in\n    tag_29:\n      stop\n        /* \"contracts/Stakable.sol\":8674:9801  function hasStake() external view returns (StakingSummary memory) {... */\n    tag_4:\n      tag_31\n      tag_32\n      jump\t// in\n    tag_31:\n      mload(0x40)\n      tag_33\n      swap2\n      swap1\n      tag_34\n      jump\t// in\n    tag_33:\n      mload(0x40)\n      dup1\n      swap2\n      sub\n      swap1\n      return\n        /* \"contracts/Stakable.sol\":4409:4502  function changeTalaxAddress(address talax) external onlyOwner {... */\n    tag_5:\n      tag_35\n      0x04\n      dup1\n      calldatasize\n      sub\n      dup2\n      add\n      swap1\n      tag_36\n      swap2\n      swap1\n      tag_37\n      jump\t// in\n    tag_36:\n      tag_38\n      jump\t// in\n    tag_35:\n      stop\n        /* \"contracts/Stakable.sol\":11835:12118  function startVoting() external nonReentrant onlyTalax {... */\n    tag_6:\n      tag_39\n      tag_40\n      jump\t// in\n    tag_39:\n      stop\n        /* \"contracts/Stakable.sol\":11627:11776  function getVoters(address user) external view returns (bool, bool) {... */\n    tag_7:\n      tag_41\n      0x04\n      dup1\n      calldatasize\n      sub\n      dup2\n      add\n      swap1\n      tag_42\n      swap2\n      swap1\n      tag_37\n      jump\t// in\n    tag_42:\n      tag_43\n      jump\t// in\n    tag_41:\n      mload(0x40)\n      tag_44\n      swap3\n      swap2\n      swap1\n      tag_45\n      jump\t// in\n    tag_44:\n      mload(0x40)\n      dup1\n      swap2\n      sub\n      swap1\n      return\n        /* \"contracts/Stakable.sol\":1511:1532  address public _talax */\n    tag_8:\n      tag_46\n      tag_47\n      jump\t// in\n    tag_46:\n      mload(0x40)\n      tag_48\n      swap2\n      swap1\n      tag_49\n      jump\t// in\n    tag_48:\n      mload(0x40)\n      dup1\n      swap2\n      sub\n      swap1\n      return\n        /* \"contracts/Stakable.sol\":1382:1408  uint256 public totalVoters */\n    tag_9:\n      tag_50\n      tag_51\n      jump\t// in\n    tag_50:\n      mload(0x40)\n      tag_52\n      swap2\n      swap1\n      tag_53\n      jump\t// in\n    tag_52:\n      mload(0x40)\n      dup1\n      swap2\n      sub\n      swap1\n      return\n        /* \"contracts/Stakable.sol\":12124:12527  function vote() public nonReentrant votingStatusTrue isVoter {... */\n    tag_10:\n      tag_54\n      tag_55\n      jump\t// in\n    tag_54:\n      stop\n        /* \"contracts/Stakable.sol\":10577:11305  function claimAirdrop(address user)... */\n    tag_11:\n      tag_56\n      0x04\n      dup1\n      calldatasize\n      sub\n      dup2\n      add\n      swap1\n      tag_57\n      swap2\n      swap1\n      tag_37\n      jump\t// in\n    tag_57:\n      tag_58\n      jump\t// in\n    tag_56:\n      mload(0x40)\n      tag_59\n      swap2\n      swap1\n      tag_53\n      jump\t// in\n    tag_59:\n      mload(0x40)\n      dup1\n      swap2\n      sub\n      swap1\n      return\n        /* \"contracts/Stakable.sol\":12951:13439  function getVotingResult()... */\n    tag_12:\n      tag_60\n      tag_61\n      jump\t// in\n    tag_60:\n      mload(0x40)\n      tag_62\n      swap2\n      swap1\n      tag_63\n      jump\t// in\n    tag_62:\n      mload(0x40)\n      dup1\n      swap2\n      sub\n      swap1\n      return\n        /* \"contracts/Stakable.sol\":9913:10008  function startAirdropSince() external onlyTalax {... */\n    tag_13:\n      tag_64\n      tag_65\n      jump\t// in\n    tag_64:\n      stop\n        /* \"contracts/Stakable.sol\":1251:1277  uint256 public airdropRate */\n    tag_14:\n      tag_66\n      tag_67\n      jump\t// in\n    tag_66:\n      mload(0x40)\n      tag_68\n      swap2\n      swap1\n      tag_53\n      jump\t// in\n    tag_68:\n      mload(0x40)\n      dup1\n      swap2\n      sub\n      swap1\n      return\n        /* \"contracts/Stakable.sol\":5893:6199  function changePenaltyFee(uint256 amount) external onlyOwner {... */\n    tag_15:\n      tag_69\n      0x04\n      dup1\n      calldatasize\n      sub\n      dup2\n      add\n      swap1\n      tag_70\n      swap2\n      swap1\n      tag_71\n      jump\t// in\n    tag_70:\n      tag_72\n      jump\t// in\n    tag_69:\n      stop\n        /* \"contracts/Stakable.sol\":1459:1504  mapping(uint256 => uint256) public votedUsers */\n    tag_16:\n      tag_73\n      0x04\n      dup1\n      calldatasize\n      sub\n      dup2\n      add\n      swap1\n      tag_74\n      swap2\n      swap1\n      tag_71\n      jump\t// in\n    tag_74:\n      tag_75\n      jump\t// in\n    tag_73:\n      mload(0x40)\n      tag_76\n      swap2\n      swap1\n      tag_53\n      jump\t// in\n    tag_76:\n      mload(0x40)\n      dup1\n      swap2\n      sub\n      swap1\n      return\n        /* \"contracts/Stakable.sol\":1414:1453  mapping(address => Voter) public voters */\n    tag_17:\n      tag_77\n      0x04\n      dup1\n      calldatasize\n      sub\n      dup2\n      add\n      swap1\n      tag_78\n      swap2\n      swap1\n      tag_37\n      jump\t// in\n    tag_78:\n      tag_79\n      jump\t// in\n    tag_77:\n      mload(0x40)\n      tag_80\n      swap2\n      swap1\n      tag_63\n      jump\t// in\n    tag_80:\n      mload(0x40)\n      dup1\n      swap2\n      sub\n      swap1\n      return\n        /* \"contracts/Stakable.sol\":1538:1559  address public _owner */\n    tag_18:\n      tag_81\n      tag_82\n      jump\t// in\n    tag_81:\n      mload(0x40)\n      tag_83\n      swap2\n      swap1\n      tag_49\n      jump\t// in\n    tag_83:\n      mload(0x40)\n      dup1\n      swap2\n      sub\n      swap1\n      return\n        /* \"contracts/Stakable.sol\":1283:1310  uint256 public airdropSince */\n    tag_19:\n      tag_84\n      tag_85\n      jump\t// in\n    tag_84:\n      mload(0x40)\n      tag_86\n      swap2\n      swap1\n      tag_53\n      jump\t// in\n    tag_86:\n      mload(0x40)\n      dup1\n      swap2\n      sub\n      swap1\n      return\n        /* \"contracts/Stakable.sol\":7870:8668  function withdrawStake(address user)... */\n    tag_20:\n      tag_87\n      0x04\n      dup1\n      calldatasize\n      sub\n      dup2\n      add\n      swap1\n      tag_88\n      swap2\n      swap1\n      tag_37\n      jump\t// in\n    tag_88:\n      tag_89\n      jump\t// in\n    tag_87:\n      mload(0x40)\n      tag_90\n      swap3\n      swap2\n      swap1\n      tag_91\n      jump\t// in\n    tag_90:\n      mload(0x40)\n      dup1\n      swap2\n      sub\n      swap1\n      return\n        /* \"contracts/Stakable.sol\":1212:1245  uint256 public stakingPenaltyRate */\n    tag_21:\n      tag_92\n      tag_93\n      jump\t// in\n    tag_92:\n      mload(0x40)\n      tag_94\n      swap2\n      swap1\n      tag_53\n      jump\t// in\n    tag_94:\n      mload(0x40)\n      dup1\n      swap2\n      sub\n      swap1\n      return\n        /* \"contracts/Stakable.sol\":11311:11515  function airdropWeek() public view returns (uint256) {... */\n    tag_22:\n      tag_95\n      tag_96\n      jump\t// in\n    tag_95:\n      mload(0x40)\n      tag_97\n      swap2\n      swap1\n      tag_53\n      jump\t// in\n    tag_97:\n      mload(0x40)\n      dup1\n      swap2\n      sub\n      swap1\n      return\n        /* \"contracts/Stakable.sol\":10014:10248  function changeAirdropPercentage(uint256 amount) external onlyOwner {... */\n    tag_23:\n      tag_98\n      0x04\n      dup1\n      calldatasize\n      sub\n      dup2\n      add\n      swap1\n      tag_99\n      swap2\n      swap1\n      tag_71\n      jump\t// in\n    tag_99:\n      tag_100\n      jump\t// in\n    tag_98:\n      stop\n        /* \"contracts/Stakable.sol\":4713:5887  function stake(... */\n    tag_24:\n      tag_101\n      0x04\n      dup1\n      calldatasize\n      sub\n      dup2\n      add\n      swap1\n      tag_102\n      swap2\n      swap1\n      tag_103\n      jump\t// in\n    tag_102:\n      tag_104\n      jump\t// in\n    tag_101:\n      stop\n        /* \"contracts/Stakable.sol\":13445:13541  function stopVoting() external onlyTalax votingStatusTrue {... */\n    tag_25:\n      tag_105\n      tag_106\n      jump\t// in\n    tag_105:\n      stop\n        /* \"contracts/Stakable.sol\":12533:12945  function retractVote() public nonReentrant votingStatusTrue isVoter {... */\n    tag_30:\n        /* \"@openzeppelin/contracts/security/ReentrancyGuard.sol\":1744:1745  2 */\n      0x02\n        /* \"@openzeppelin/contracts/security/ReentrancyGuard.sol\":2325:2332  _status */\n      sload(0x00)\n        /* \"@openzeppelin/contracts/security/ReentrancyGuard.sol\":2325:2344  _status != _ENTERED */\n      eq\n      iszero\n        /* \"@openzeppelin/contracts/security/ReentrancyGuard.sol\":2317:2380  require(_status != _ENTERED, \"ReentrancyGuard: reentrant call\") */\n      tag_108\n      jumpi\n      mload(0x40)\n      0x08c379a000000000000000000000000000000000000000000000000000000000\n      dup2\n      mstore\n      0x04\n      add\n      tag_109\n      swap1\n      tag_110\n      jump\t// in\n    tag_109:\n      mload(0x40)\n      dup1\n      swap2\n      sub\n      swap1\n      revert\n    tag_108:\n        /* \"@openzeppelin/contracts/security/ReentrancyGuard.sol\":1744:1745  2 */\n      0x02\n        /* \"@openzeppelin/contracts/security/ReentrancyGuard.sol\":2455:2462  _status */\n      0x00\n        /* \"@openzeppelin/contracts/security/ReentrancyGuard.sol\":2455:2473  _status = _ENTERED */\n      dup2\n      swap1\n      sstore\n      pop\n        /* \"contracts/Stakable.sol\":4259:4279  _checkVotingStatus() */\n      tag_112\n        /* \"contracts/Stakable.sol\":4259:4277  _checkVotingStatus */\n      tag_113\n        /* \"contracts/Stakable.sol\":4259:4279  _checkVotingStatus() */\n      jump\t// in\n    tag_112:\n        /* \"contracts/Stakable.sol\":3977:3987  _isVoter() */\n      tag_115\n        /* \"contracts/Stakable.sol\":3977:3985  _isVoter */\n      tag_116\n        /* \"contracts/Stakable.sol\":3977:3987  _isVoter() */\n      jump\t// in\n    tag_115:\n        /* \"contracts/Stakable.sol\":12788:12793  false */\n      0x00\n        /* \"contracts/Stakable.sol\":12749:12793  voters[msg.sender].voted[_votingId] == false */\n      iszero\n      iszero\n        /* \"contracts/Stakable.sol\":12749:12755  voters */\n      0x07\n        /* \"contracts/Stakable.sol\":12749:12767  voters[msg.sender] */\n      0x00\n        /* \"contracts/Stakable.sol\":12756:12766  msg.sender */\n      caller\n        /* \"contracts/Stakable.sol\":12749:12767  voters[msg.sender] */\n      0xffffffffffffffffffffffffffffffffffffffff\n      and\n      0xffffffffffffffffffffffffffffffffffffffff\n      and\n      dup2\n      mstore\n      0x20\n      add\n      swap1\n      dup2\n      mstore\n      0x20\n      add\n      0x00\n      keccak256\n        /* \"contracts/Stakable.sol\":12749:12773  voters[msg.sender].voted */\n      0x01\n      add\n        /* \"contracts/Stakable.sol\":12749:12784  voters[msg.sender].voted[_votingId] */\n      0x00\n        /* \"contracts/Stakable.sol\":12774:12783  _votingId */\n      sload(0x05)\n        /* \"contracts/Stakable.sol\":12749:12784  voters[msg.sender].voted[_votingId] */\n      dup2\n      mstore\n      0x20\n      add\n      swap1\n      dup2\n      mstore\n      0x20\n      add\n      0x00\n      keccak256\n      0x00\n      swap1\n      sload\n      swap1\n      0x0100\n      exp\n      swap1\n      div\n      0xff\n      and\n        /* \"contracts/Stakable.sol\":12749:12793  voters[msg.sender].voted[_votingId] == false */\n      iszero\n      iszero\n      eq\n        /* \"contracts/Stakable.sol\":12745:12848  if (voters[msg.sender].voted[_votingId] == false) {... */\n      iszero\n      tag_118\n      jumpi\n        /* \"contracts/Stakable.sol\":12816:12837  Voting__notYetVoted() */\n      mload(0x40)\n      0x8b74220000000000000000000000000000000000000000000000000000000000\n      dup2\n      mstore\n      0x04\n      add\n      mload(0x40)\n      dup1\n      swap2\n      sub\n      swap1\n      revert\n        /* \"contracts/Stakable.sol\":12745:12848  if (voters[msg.sender].voted[_votingId] == false) {... */\n    tag_118:\n        /* \"contracts/Stakable.sol\":12897:12902  false */\n      0x00\n        /* \"contracts/Stakable.sol\":12858:12902  voters[msg.sender].voted[_votingId] == false */\n      iszero\n      iszero\n        /* \"contracts/Stakable.sol\":12858:12864  voters */\n      0x07\n        /* \"contracts/Stakable.sol\":12858:12876  voters[msg.sender] */\n      0x00\n        /* \"contracts/Stakable.sol\":12865:12875  msg.sender */\n      caller\n        /* \"contracts/Stakable.sol\":12858:12876  voters[msg.sender] */\n      0xffffffffffffffffffffffffffffffffffffffff\n      and\n      0xffffffffffffffffffffffffffffffffffffffff\n      and\n      dup2\n      mstore\n      0x20\n      add\n      swap1\n      dup2\n      mstore\n      0x20\n      add\n      0x00\n      keccak256\n        /* \"contracts/Stakable.sol\":12858:12882  voters[msg.sender].voted */\n      0x01\n      add\n        /* \"contracts/Stakable.sol\":12858:12893  voters[msg.sender].voted[_votingId] */\n      0x00\n        /* \"contracts/Stakable.sol\":12883:12892  _votingId */\n      sload(0x05)\n        /* \"contracts/Stakable.sol\":12858:12893  voters[msg.sender].voted[_votingId] */\n      dup2\n      mstore\n      0x20\n      add\n      swap1\n      dup2\n      mstore\n      0x20\n      add\n      0x00\n      keccak256\n      0x00\n      swap1\n      sload\n      swap1\n      0x0100\n      exp\n      swap1\n      pop\n      pop\n        /* \"contracts/Stakable.sol\":12858:12902  voters[msg.sender].voted[_votingId] == false */\n      pop\n        /* \"contracts/Stakable.sol\":12937:12938  1 */\n      0x01\n        /* \"contracts/Stakable.sol\":12912:12922  votedUsers */\n      0x08\n        /* \"contracts/Stakable.sol\":12912:12933  votedUsers[_votingId] */\n      0x00\n        /* \"contracts/Stakable.sol\":12923:12932  _votingId */\n      sload(0x05)\n        /* \"contracts/Stakable.sol\":12912:12933  votedUsers[_votingId] */\n      dup2\n      mstore\n      0x20\n      add\n      swap1\n      dup2\n      mstore\n      0x20\n      add\n      0x00\n      keccak256\n      0x00\n        /* \"contracts/Stakable.sol\":12912:12938  votedUsers[_votingId] -= 1 */\n      dup3\n      dup3\n      sload\n      tag_119\n      swap2\n      swap1\n      tag_120\n      jump\t// in\n    tag_119:\n      swap3\n      pop\n      pop\n      dup2\n      swap1\n      sstore\n      pop\n        /* \"@openzeppelin/contracts/security/ReentrancyGuard.sol\":1701:1702  1 */\n      0x01\n        /* \"@openzeppelin/contracts/security/ReentrancyGuard.sol\":2628:2635  _status */\n      0x00\n        /* \"@openzeppelin/contracts/security/ReentrancyGuard.sol\":2628:2650  _status = _NOT_ENTERED */\n      dup2\n      swap1\n      sstore\n      pop\n        /* \"contracts/Stakable.sol\":12533:12945  function retractVote() public nonReentrant votingStatusTrue isVoter {... */\n      jump\t// out\n        /* \"contracts/Stakable.sol\":8674:9801  function hasStake() external view returns (StakingSummary memory) {... */\n    tag_32:\n        /* \"contracts/Stakable.sol\":8717:8738  StakingSummary memory */\n      tag_121\n      tag_122\n      jump\t// in\n    tag_121:\n        /* \"contracts/Stakable.sol\":8750:8773  Stake memory user_stake */\n      0x00\n        /* \"contracts/Stakable.sol\":8776:8788  stakeholders */\n      0x0b\n        /* \"contracts/Stakable.sol\":8776:8800  stakeholders[msg.sender] */\n      0x00\n        /* \"contracts/Stakable.sol\":8789:8799  msg.sender */\n      caller\n        /* \"contracts/Stakable.sol\":8776:8800  stakeholders[msg.sender] */\n      0xffffffffffffffffffffffffffffffffffffffff\n      and\n      0xffffffffffffffffffffffffffffffffffffffff\n      and\n      dup2\n      mstore\n      0x20\n      add\n      swap1\n      dup2\n      mstore\n      0x20\n      add\n      0x00\n      keccak256\n        /* \"contracts/Stakable.sol\":8750:8800  Stake memory user_stake = stakeholders[msg.sender] */\n      mload(0x40)\n      dup1\n      0xe0\n      add\n      0x40\n      mstore\n      swap1\n      dup2\n      0x00\n      dup3\n      add\n      sload\n      dup2\n      mstore\n      0x20\n      add\n      0x01\n      dup3\n      add\n      sload\n      dup2\n      mstore\n      0x20\n      add\n      0x02\n      dup3\n      add\n      sload\n      dup2\n      mstore\n      0x20\n      add\n      0x03\n      dup3\n      add\n      sload\n      dup2\n      mstore\n      0x20\n      add\n      0x04\n      dup3\n      add\n      sload\n      dup2\n      mstore\n      0x20\n      add\n      0x05\n      dup3\n      add\n      sload\n      dup2\n      mstore\n      0x20\n      add\n      0x06\n      dup3\n      add\n      sload\n      dup2\n      mstore\n      pop\n      pop\n      swap1\n      pop\n        /* \"contracts/Stakable.sol\":8896:8897  0 */\n      0x00\n        /* \"contracts/Stakable.sol\":8875:8885  user_stake */\n      dup2\n        /* \"contracts/Stakable.sol\":8875:8892  user_stake.amount */\n      0x00\n      add\n      mload\n        /* \"contracts/Stakable.sol\":8875:8897  user_stake.amount <= 0 */\n      gt\n        /* \"contracts/Stakable.sol\":8871:8956  if (user_stake.amount <= 0) {... */\n      tag_124\n      jumpi\n        /* \"contracts/Stakable.sol\":8920:8945  Staking__noStakingFound() */\n      mload(0x40)\n      0xb018f08700000000000000000000000000000000000000000000000000000000\n      dup2\n      mstore\n      0x04\n      add\n      mload(0x40)\n      dup1\n      swap2\n      sub\n      swap1\n      revert\n        /* \"contracts/Stakable.sol\":8871:8956  if (user_stake.amount <= 0) {... */\n    tag_124:\n        /* \"contracts/Stakable.sol\":8965:8994  StakingSummary memory summary */\n      0x00\n        /* \"contracts/Stakable.sol\":8997:9029  StakingSummary(0, 0, user_stake) */\n      mload(0x40)\n      dup1\n      0x60\n      add\n      0x40\n      mstore\n      dup1\n        /* \"contracts/Stakable.sol\":9012:9013  0 */\n      0x00\n        /* \"contracts/Stakable.sol\":8997:9029  StakingSummary(0, 0, user_stake) */\n      dup2\n      mstore\n      0x20\n      add\n        /* \"contracts/Stakable.sol\":9015:9016  0 */\n      0x00\n        /* \"contracts/Stakable.sol\":8997:9029  StakingSummary(0, 0, user_stake) */\n      dup2\n      mstore\n      0x20\n      add\n        /* \"contracts/Stakable.sol\":9018:9028  user_stake */\n      dup4\n        /* \"contracts/Stakable.sol\":8997:9029  StakingSummary(0, 0, user_stake) */\n      dup2\n      mstore\n      pop\n        /* \"contracts/Stakable.sol\":8965:9029  StakingSummary memory summary = StakingSummary(0, 0, user_stake) */\n      swap1\n      pop\n        /* \"contracts/Stakable.sol\":9040:9054  uint256 reward */\n      0x00\n        /* \"contracts/Stakable.sol\":9057:9090  _calculateStakeReward(user_stake) */\n      tag_125\n        /* \"contracts/Stakable.sol\":9079:9089  user_stake */\n      dup4\n        /* \"contracts/Stakable.sol\":9057:9078  _calculateStakeReward */\n      tag_126\n        /* \"contracts/Stakable.sol\":9057:9090  _calculateStakeReward(user_stake) */\n      jump\t// in\n    tag_125:\n        /* \"contracts/Stakable.sol\":9040:9090  uint256 reward = _calculateStakeReward(user_stake) */\n      swap1\n      pop\n        /* \"contracts/Stakable.sol\":9133:9148  block.timestamp */\n      timestamp\n        /* \"contracts/Stakable.sol\":9105:9112  summary */\n      dup3\n        /* \"contracts/Stakable.sol\":9105:9118  summary.stake */\n      0x40\n      add\n      mload\n        /* \"contracts/Stakable.sol\":9105:9130  summary.stake.releaseTime */\n      0x60\n      add\n      mload\n        /* \"contracts/Stakable.sol\":9105:9148  summary.stake.releaseTime > block.timestamp */\n      gt\n        /* \"contracts/Stakable.sol\":9101:9417  if (summary.stake.releaseTime > block.timestamp) {... */\n      iszero\n      tag_127\n      jumpi\n        /* \"contracts/Stakable.sol\":9346:9406  SafeMath.div(SafeMath.mul(reward, stakingPenaltyRate), 1000) */\n      tag_128\n        /* \"contracts/Stakable.sol\":9359:9399  SafeMath.mul(reward, stakingPenaltyRate) */\n      tag_129\n        /* \"contracts/Stakable.sol\":9372:9378  reward */\n      dup3\n        /* \"contracts/Stakable.sol\":9380:9398  stakingPenaltyRate */\n      sload(0x01)\n        /* \"contracts/Stakable.sol\":9359:9371  SafeMath.mul */\n      tag_130\n        /* \"contracts/Stakable.sol\":9359:9399  SafeMath.mul(reward, stakingPenaltyRate) */\n      jump\t// in\n    tag_129:\n        /* \"contracts/Stakable.sol\":9401:9405  1000 */\n      0x03e8\n        /* \"contracts/Stakable.sol\":9346:9358  SafeMath.div */\n      tag_131\n        /* \"contracts/Stakable.sol\":9346:9406  SafeMath.div(SafeMath.mul(reward, stakingPenaltyRate), 1000) */\n      jump\t// in\n    tag_128:\n        /* \"contracts/Stakable.sol\":9198:9327  SafeMath.div(... */\n      tag_132\n        /* \"contracts/Stakable.sol\":9232:9283  SafeMath.mul(user_stake.amount, stakingPenaltyRate) */\n      tag_133\n        /* \"contracts/Stakable.sol\":9245:9255  user_stake */\n      dup6\n        /* \"contracts/Stakable.sol\":9245:9262  user_stake.amount */\n      0x00\n      add\n      mload\n        /* \"contracts/Stakable.sol\":9264:9282  stakingPenaltyRate */\n      sload(0x01)\n        /* \"contracts/Stakable.sol\":9232:9244  SafeMath.mul */\n      tag_130\n        /* \"contracts/Stakable.sol\":9232:9283  SafeMath.mul(user_stake.amount, stakingPenaltyRate) */\n      jump\t// in\n    tag_133:\n        /* \"contracts/Stakable.sol\":9305:9309  1000 */\n      0x03e8\n        /* \"contracts/Stakable.sol\":9198:9210  SafeMath.div */\n      tag_131\n        /* \"contracts/Stakable.sol\":9198:9327  SafeMath.div(... */\n      jump\t// in\n    tag_132:\n        /* \"contracts/Stakable.sol\":9198:9406  SafeMath.div(... */\n      tag_134\n      swap2\n      swap1\n      tag_135\n      jump\t// in\n    tag_134:\n        /* \"contracts/Stakable.sol\":9164:9171  summary */\n      dup3\n        /* \"contracts/Stakable.sol\":9164:9179  summary.penalty */\n      0x20\n      add\n        /* \"contracts/Stakable.sol\":9164:9406  summary.penalty =... */\n      dup2\n      dup2\n      mstore\n      pop\n      pop\n        /* \"contracts/Stakable.sol\":9101:9417  if (summary.stake.releaseTime > block.timestamp) {... */\n    tag_127:\n        /* \"contracts/Stakable.sol\":9476:9477  0 */\n      0x00\n        /* \"contracts/Stakable.sol\":9431:9473  _calculateWeek(user_stake.latestClaimDrop) */\n      tag_136\n        /* \"contracts/Stakable.sol\":9446:9456  user_stake */\n      dup5\n        /* \"contracts/Stakable.sol\":9446:9472  user_stake.latestClaimDrop */\n      0xc0\n      add\n      mload\n        /* \"contracts/Stakable.sol\":9431:9445  _calculateWeek */\n      tag_137\n        /* \"contracts/Stakable.sol\":9431:9473  _calculateWeek(user_stake.latestClaimDrop) */\n      jump\t// in\n    tag_136:\n        /* \"contracts/Stakable.sol\":9431:9477  _calculateWeek(user_stake.latestClaimDrop) > 0 */\n      gt\n        /* \"contracts/Stakable.sol\":9427:9677  if (_calculateWeek(user_stake.latestClaimDrop) > 0) {... */\n      iszero\n      tag_138\n      jumpi\n        /* \"contracts/Stakable.sol\":9493:9508  uint256 airdrop */\n      0x00\n        /* \"contracts/Stakable.sol\":9511:9547  _calculateAirdrop(user_stake.amount) */\n      tag_139\n        /* \"contracts/Stakable.sol\":9529:9539  user_stake */\n      dup5\n        /* \"contracts/Stakable.sol\":9529:9546  user_stake.amount */\n      0x00\n      add\n      mload\n        /* \"contracts/Stakable.sol\":9511:9528  _calculateAirdrop */\n      tag_140\n        /* \"contracts/Stakable.sol\":9511:9547  _calculateAirdrop(user_stake.amount) */\n      jump\t// in\n    tag_139:\n        /* \"contracts/Stakable.sol\":9493:9547  uint256 airdrop = _calculateAirdrop(user_stake.amount) */\n      swap1\n      pop\n        /* \"contracts/Stakable.sol\":9594:9601  airdrop */\n      dup1\n        /* \"contracts/Stakable.sol\":9561:9568  summary */\n      dup4\n        /* \"contracts/Stakable.sol\":9561:9574  summary.stake */\n      0x40\n      add\n      mload\n        /* \"contracts/Stakable.sol\":9561:9591  summary.stake.claimableAirdrop */\n      0xa0\n      add\n        /* \"contracts/Stakable.sol\":9561:9601  summary.stake.claimableAirdrop = airdrop */\n      dup2\n      dup2\n      mstore\n      pop\n      pop\n        /* \"contracts/Stakable.sol\":9479:9612  {... */\n      pop\n        /* \"contracts/Stakable.sol\":9427:9677  if (_calculateWeek(user_stake.latestClaimDrop) > 0) {... */\n      jump(tag_141)\n    tag_138:\n        /* \"contracts/Stakable.sol\":9665:9666  0 */\n      0x00\n        /* \"contracts/Stakable.sol\":9632:9639  summary */\n      dup3\n        /* \"contracts/Stakable.sol\":9632:9645  summary.stake */\n      0x40\n      add\n      mload\n        /* \"contracts/Stakable.sol\":9632:9662  summary.stake.claimableAirdrop */\n      0xa0\n      add\n        /* \"contracts/Stakable.sol\":9632:9666  summary.stake.claimableAirdrop = 0 */\n      dup2\n      dup2\n      mstore\n      pop\n      pop\n        /* \"contracts/Stakable.sol\":9427:9677  if (_calculateWeek(user_stake.latestClaimDrop) > 0) {... */\n    tag_141:\n        /* \"contracts/Stakable.sol\":9713:9719  reward */\n      dup1\n        /* \"contracts/Stakable.sol\":9687:9694  summary */\n      dup3\n        /* \"contracts/Stakable.sol\":9687:9700  summary.stake */\n      0x40\n      add\n      mload\n        /* \"contracts/Stakable.sol\":9687:9710  summary.stake.claimable */\n      0x80\n      add\n        /* \"contracts/Stakable.sol\":9687:9719  summary.stake.claimable = reward */\n      dup2\n      dup2\n      mstore\n      pop\n      pop\n        /* \"contracts/Stakable.sol\":9752:9762  user_stake */\n      dup3\n        /* \"contracts/Stakable.sol\":9752:9769  user_stake.amount */\n      0x00\n      add\n      mload\n        /* \"contracts/Stakable.sol\":9729:9736  summary */\n      dup3\n        /* \"contracts/Stakable.sol\":9729:9749  summary.total_amount */\n      0x00\n      add\n        /* \"contracts/Stakable.sol\":9729:9769  summary.total_amount = user_stake.amount */\n      dup2\n      dup2\n      mstore\n      pop\n      pop\n        /* \"contracts/Stakable.sol\":9787:9794  summary */\n      dup2\n        /* \"contracts/Stakable.sol\":9780:9794  return summary */\n      swap4\n      pop\n      pop\n      pop\n      pop\n        /* \"contracts/Stakable.sol\":8674:9801  function hasStake() external view returns (StakingSummary memory) {... */\n      swap1\n      jump\t// out\n        /* \"contracts/Stakable.sol\":4409:4502  function changeTalaxAddress(address talax) external onlyOwner {... */\n    tag_38:\n        /* \"contracts/Stakable.sol\":3678:3687  isOwner() */\n      tag_143\n        /* \"contracts/Stakable.sol\":3678:3685  isOwner */\n      tag_144\n        /* \"contracts/Stakable.sol\":3678:3687  isOwner() */\n      jump\t// in\n    tag_143:\n        /* \"contracts/Stakable.sol\":4490:4495  talax */\n      dup1\n        /* \"contracts/Stakable.sol\":4481:4487  _talax */\n      0x09\n      0x00\n        /* \"contracts/Stakable.sol\":4481:4495  _talax = talax */\n      0x0100\n      exp\n      dup2\n      sload\n      dup2\n      0xffffffffffffffffffffffffffffffffffffffff\n      mul\n      not\n      and\n      swap1\n      dup4\n      0xffffffffffffffffffffffffffffffffffffffff\n      and\n      mul\n      or\n      swap1\n      sstore\n      pop\n        /* \"contracts/Stakable.sol\":4409:4502  function changeTalaxAddress(address talax) external onlyOwner {... */\n      pop\n      jump\t// out\n        /* \"contracts/Stakable.sol\":11835:12118  function startVoting() external nonReentrant onlyTalax {... */\n    tag_40:\n        /* \"@openzeppelin/contracts/security/ReentrancyGuard.sol\":1744:1745  2 */\n      0x02\n        /* \"@openzeppelin/contracts/security/ReentrancyGuard.sol\":2325:2332  _status */\n      sload(0x00)\n        /* \"@openzeppelin/contracts/security/ReentrancyGuard.sol\":2325:2344  _status != _ENTERED */\n      eq\n      iszero\n        /* \"@openzeppelin/contracts/security/ReentrancyGuard.sol\":2317:2380  require(_status != _ENTERED, \"ReentrancyGuard: reentrant call\") */\n      tag_147\n      jumpi\n      mload(0x40)\n      0x08c379a000000000000000000000000000000000000000000000000000000000\n      dup2\n      mstore\n      0x04\n      add\n      tag_148\n      swap1\n      tag_110\n      jump\t// in\n    tag_148:\n      mload(0x40)\n      dup1\n      swap2\n      sub\n      swap1\n      revert\n    tag_147:\n        /* \"@openzeppelin/contracts/security/ReentrancyGuard.sol\":1744:1745  2 */\n      0x02\n        /* \"@openzeppelin/contracts/security/ReentrancyGuard.sol\":2455:2462  _status */\n      0x00\n        /* \"@openzeppelin/contracts/security/ReentrancyGuard.sol\":2455:2473  _status = _ENTERED */\n      dup2\n      swap1\n      sstore\n      pop\n        /* \"contracts/Stakable.sol\":3416:3425  isTalax() */\n      tag_150\n        /* \"contracts/Stakable.sol\":3416:3423  isTalax */\n      tag_151\n        /* \"contracts/Stakable.sol\":3416:3425  isTalax() */\n      jump\t// in\n    tag_150:\n        /* \"contracts/Stakable.sol\":11994:11998  true */\n      0x01\n        /* \"contracts/Stakable.sol\":11977:11998  _votingStatus == true */\n      iszero\n      iszero\n        /* \"contracts/Stakable.sol\":11977:11990  _votingStatus */\n      0x04\n      0x00\n      swap1\n      sload\n      swap1\n      0x0100\n      exp\n      swap1\n      div\n      0xff\n      and\n        /* \"contracts/Stakable.sol\":11977:11998  _votingStatus == true */\n      iszero\n      iszero\n      eq\n        /* \"contracts/Stakable.sol\":11973:12057  if (_votingStatus == true) {... */\n      iszero\n      tag_153\n      jumpi\n        /* \"contracts/Stakable.sol\":12021:12046  Voting__votingIsRunning() */\n      mload(0x40)\n      0x6da4cd2e00000000000000000000000000000000000000000000000000000000\n      dup2\n      mstore\n      0x04\n      add\n      mload(0x40)\n      dup1\n      swap2\n      sub\n      swap1\n      revert\n        /* \"contracts/Stakable.sol\":11973:12057  if (_votingStatus == true) {... */\n    tag_153:\n        /* \"contracts/Stakable.sol\":12083:12087  true */\n      0x01\n        /* \"contracts/Stakable.sol\":12067:12080  _votingStatus */\n      0x04\n      0x00\n        /* \"contracts/Stakable.sol\":12067:12087  _votingStatus = true */\n      0x0100\n      exp\n      dup2\n      sload\n      dup2\n      0xff\n      mul\n      not\n      and\n      swap1\n      dup4\n      iszero\n      iszero\n      mul\n      or\n      swap1\n      sstore\n      pop\n        /* \"contracts/Stakable.sol\":12110:12111  1 */\n      0x01\n        /* \"contracts/Stakable.sol\":12097:12106  _votingId */\n      0x05\n      0x00\n        /* \"contracts/Stakable.sol\":12097:12111  _votingId += 1 */\n      dup3\n      dup3\n      sload\n      tag_154\n      swap2\n      swap1\n      tag_135\n      jump\t// in\n    tag_154:\n      swap3\n      pop\n      pop\n      dup2\n      swap1\n      sstore\n      pop\n        /* \"@openzeppelin/contracts/security/ReentrancyGuard.sol\":1701:1702  1 */\n      0x01\n        /* \"@openzeppelin/contracts/security/ReentrancyGuard.sol\":2628:2635  _status */\n      0x00\n        /* \"@openzeppelin/contracts/security/ReentrancyGuard.sol\":2628:2650  _status = _NOT_ENTERED */\n      dup2\n      swap1\n      sstore\n      pop\n        /* \"contracts/Stakable.sol\":11835:12118  function startVoting() external nonReentrant onlyTalax {... */\n      jump\t// out\n        /* \"contracts/Stakable.sol\":11627:11776  function getVoters(address user) external view returns (bool, bool) {... */\n    tag_43:\n        /* \"contracts/Stakable.sol\":11683:11687  bool */\n      0x00\n        /* \"contracts/Stakable.sol\":11689:11693  bool */\n      dup1\n        /* \"contracts/Stakable.sol\":11713:11719  voters */\n      0x07\n        /* \"contracts/Stakable.sol\":11713:11725  voters[user] */\n      0x00\n        /* \"contracts/Stakable.sol\":11720:11724  user */\n      dup5\n        /* \"contracts/Stakable.sol\":11713:11725  voters[user] */\n      0xffffffffffffffffffffffffffffffffffffffff\n      and\n      0xffffffffffffffffffffffffffffffffffffffff\n      and\n      dup2\n      mstore\n      0x20\n      add\n      swap1\n      dup2\n      mstore\n      0x20\n      add\n      0x00\n      keccak256\n        /* \"contracts/Stakable.sol\":11713:11737  voters[user].votingRight */\n      0x00\n      add\n      0x00\n      swap1\n      sload\n      swap1\n      0x0100\n      exp\n      swap1\n      div\n      0xff\n      and\n        /* \"contracts/Stakable.sol\":11739:11745  voters */\n      0x07\n        /* \"contracts/Stakable.sol\":11739:11751  voters[user] */\n      0x00\n        /* \"contracts/Stakable.sol\":11746:11750  user */\n      dup6\n        /* \"contracts/Stakable.sol\":11739:11751  voters[user] */\n      0xffffffffffffffffffffffffffffffffffffffff\n      and\n      0xffffffffffffffffffffffffffffffffffffffff\n      and\n      dup2\n      mstore\n      0x20\n      add\n      swap1\n      dup2\n      mstore\n      0x20\n      add\n      0x00\n      keccak256\n        /* \"contracts/Stakable.sol\":11739:11757  voters[user].voted */\n      0x01\n      add\n        /* \"contracts/Stakable.sol\":11739:11768  voters[user].voted[_votingId] */\n      0x00\n        /* \"contracts/Stakable.sol\":11758:11767  _votingId */\n      sload(0x05)\n        /* \"contracts/Stakable.sol\":11739:11768  voters[user].voted[_votingId] */\n      dup2\n      mstore\n      0x20\n      add\n      swap1\n      dup2\n      mstore\n      0x20\n      add\n      0x00\n      keccak256\n      0x00\n      swap1\n      sload\n      swap1\n      0x0100\n      exp\n      swap1\n      div\n      0xff\n      and\n        /* \"contracts/Stakable.sol\":11705:11769  return (voters[user].votingRight, voters[user].voted[_votingId]) */\n      swap2\n      pop\n      swap2\n      pop\n        /* \"contracts/Stakable.sol\":11627:11776  function getVoters(address user) external view returns (bool, bool) {... */\n      swap2\n      pop\n      swap2\n      jump\t// out\n        /* \"contracts/Stakable.sol\":1511:1532  address public _talax */\n    tag_47:\n      0x09\n      0x00\n      swap1\n      sload\n      swap1\n      0x0100\n      exp\n      swap1\n      div\n      0xffffffffffffffffffffffffffffffffffffffff\n      and\n      dup2\n      jump\t// out\n        /* \"contracts/Stakable.sol\":1382:1408  uint256 public totalVoters */\n    tag_51:\n      sload(0x06)\n      dup2\n      jump\t// out\n        /* \"contracts/Stakable.sol\":12124:12527  function vote() public nonReentrant votingStatusTrue isVoter {... */\n    tag_55:\n        /* \"@openzeppelin/contracts/security/ReentrancyGuard.sol\":1744:1745  2 */\n      0x02\n        /* \"@openzeppelin/contracts/security/ReentrancyGuard.sol\":2325:2332  _status */\n      sload(0x00)\n        /* \"@openzeppelin/contracts/security/ReentrancyGuard.sol\":2325:2344  _status != _ENTERED */\n      eq\n      iszero\n        /* \"@openzeppelin/contracts/security/ReentrancyGuard.sol\":2317:2380  require(_status != _ENTERED, \"ReentrancyGuard: reentrant call\") */\n      tag_157\n      jumpi\n      mload(0x40)\n      0x08c379a000000000000000000000000000000000000000000000000000000000\n      dup2\n      mstore\n      0x04\n      add\n      tag_158\n      swap1\n      tag_110\n      jump\t// in\n    tag_158:\n      mload(0x40)\n      dup1\n      swap2\n      sub\n      swap1\n      revert\n    tag_157:\n        /* \"@openzeppelin/contracts/security/ReentrancyGuard.sol\":1744:1745  2 */\n      0x02\n        /* \"@openzeppelin/contracts/security/ReentrancyGuard.sol\":2455:2462  _status */\n      0x00\n        /* \"@openzeppelin/contracts/security/ReentrancyGuard.sol\":2455:2473  _status = _ENTERED */\n      dup2\n      swap1\n      sstore\n      pop\n        /* \"contracts/Stakable.sol\":4259:4279  _checkVotingStatus() */\n      tag_160\n        /* \"contracts/Stakable.sol\":4259:4277  _checkVotingStatus */\n      tag_113\n        /* \"contracts/Stakable.sol\":4259:4279  _checkVotingStatus() */\n      jump\t// in\n    tag_160:\n        /* \"contracts/Stakable.sol\":3977:3987  _isVoter() */\n      tag_162\n        /* \"contracts/Stakable.sol\":3977:3985  _isVoter */\n      tag_116\n        /* \"contracts/Stakable.sol\":3977:3987  _isVoter() */\n      jump\t// in\n    tag_162:\n        /* \"contracts/Stakable.sol\":12372:12376  true */\n      0x01\n        /* \"contracts/Stakable.sol\":12333:12376  voters[msg.sender].voted[_votingId] == true */\n      iszero\n      iszero\n        /* \"contracts/Stakable.sol\":12333:12339  voters */\n      0x07\n        /* \"contracts/Stakable.sol\":12333:12351  voters[msg.sender] */\n      0x00\n        /* \"contracts/Stakable.sol\":12340:12350  msg.sender */\n      caller\n        /* \"contracts/Stakable.sol\":12333:12351  voters[msg.sender] */\n      0xffffffffffffffffffffffffffffffffffffffff\n      and\n      0xffffffffffffffffffffffffffffffffffffffff\n      and\n      dup2\n      mstore\n      0x20\n      add\n      swap1\n      dup2\n      mstore\n      0x20\n      add\n      0x00\n      keccak256\n        /* \"contracts/Stakable.sol\":12333:12357  voters[msg.sender].voted */\n      0x01\n      add\n        /* \"contracts/Stakable.sol\":12333:12368  voters[msg.sender].voted[_votingId] */\n      0x00\n        /* \"contracts/Stakable.sol\":12358:12367  _votingId */\n      sload(0x05)\n        /* \"contracts/Stakable.sol\":12333:12368  voters[msg.sender].voted[_votingId] */\n      dup2\n      mstore\n      0x20\n      add\n      swap1\n      dup2\n      mstore\n      0x20\n      add\n      0x00\n      keccak256\n      0x00\n      swap1\n      sload\n      swap1\n      0x0100\n      exp\n      swap1\n      div\n      0xff\n      and\n        /* \"contracts/Stakable.sol\":12333:12376  voters[msg.sender].voted[_votingId] == true */\n      iszero\n      iszero\n      eq\n        /* \"contracts/Stakable.sol\":12329:12432  if (voters[msg.sender].voted[_votingId] == true) {... */\n      iszero\n      tag_164\n      jumpi\n        /* \"contracts/Stakable.sol\":12399:12421  Voting__alreadyVoted() */\n      mload(0x40)\n      0x740e33b000000000000000000000000000000000000000000000000000000000\n      dup2\n      mstore\n      0x04\n      add\n      mload(0x40)\n      dup1\n      swap2\n      sub\n      swap1\n      revert\n        /* \"contracts/Stakable.sol\":12329:12432  if (voters[msg.sender].voted[_votingId] == true) {... */\n    tag_164:\n        /* \"contracts/Stakable.sol\":12480:12484  true */\n      0x01\n        /* \"contracts/Stakable.sol\":12442:12448  voters */\n      0x07\n        /* \"contracts/Stakable.sol\":12442:12460  voters[msg.sender] */\n      0x00\n        /* \"contracts/Stakable.sol\":12449:12459  msg.sender */\n      caller\n        /* \"contracts/Stakable.sol\":12442:12460  voters[msg.sender] */\n      0xffffffffffffffffffffffffffffffffffffffff\n      and\n      0xffffffffffffffffffffffffffffffffffffffff\n      and\n      dup2\n      mstore\n      0x20\n      add\n      swap1\n      dup2\n      mstore\n      0x20\n      add\n      0x00\n      keccak256\n        /* \"contracts/Stakable.sol\":12442:12466  voters[msg.sender].voted */\n      0x01\n      add\n        /* \"contracts/Stakable.sol\":12442:12477  voters[msg.sender].voted[_votingId] */\n      0x00\n        /* \"contracts/Stakable.sol\":12467:12476  _votingId */\n      sload(0x05)\n        /* \"contracts/Stakable.sol\":12442:12477  voters[msg.sender].voted[_votingId] */\n      dup2\n      mstore\n      0x20\n      add\n      swap1\n      dup2\n      mstore\n      0x20\n      add\n      0x00\n      keccak256\n      0x00\n        /* \"contracts/Stakable.sol\":12442:12484  voters[msg.sender].voted[_votingId] = true */\n      0x0100\n      exp\n      dup2\n      sload\n      dup2\n      0xff\n      mul\n      not\n      and\n      swap1\n      dup4\n      iszero\n      iszero\n      mul\n      or\n      swap1\n      sstore\n      pop\n        /* \"contracts/Stakable.sol\":12519:12520  1 */\n      0x01\n        /* \"contracts/Stakable.sol\":12494:12504  votedUsers */\n      0x08\n        /* \"contracts/Stakable.sol\":12494:12515  votedUsers[_votingId] */\n      0x00\n        /* \"contracts/Stakable.sol\":12505:12514  _votingId */\n      sload(0x05)\n        /* \"contracts/Stakable.sol\":12494:12515  votedUsers[_votingId] */\n      dup2\n      mstore\n      0x20\n      add\n      swap1\n      dup2\n      mstore\n      0x20\n      add\n      0x00\n      keccak256\n      0x00\n        /* \"contracts/Stakable.sol\":12494:12520  votedUsers[_votingId] += 1 */\n      dup3\n      dup3\n      sload\n      tag_165\n      swap2\n      swap1\n      tag_135\n      jump\t// in\n    tag_165:\n      swap3\n      pop\n      pop\n      dup2\n      swap1\n      sstore\n      pop\n        /* \"@openzeppelin/contracts/security/ReentrancyGuard.sol\":1701:1702  1 */\n      0x01\n        /* \"@openzeppelin/contracts/security/ReentrancyGuard.sol\":2628:2635  _status */\n      0x00\n        /* \"@openzeppelin/contracts/security/ReentrancyGuard.sol\":2628:2650  _status = _NOT_ENTERED */\n      dup2\n      swap1\n      sstore\n      pop\n        /* \"contracts/Stakable.sol\":12124:12527  function vote() public nonReentrant votingStatusTrue isVoter {... */\n      jump\t// out\n        /* \"contracts/Stakable.sol\":10577:11305  function claimAirdrop(address user)... */\n    tag_58:\n        /* \"contracts/Stakable.sol\":10678:10685  uint256 */\n      0x00\n        /* \"contracts/Stakable.sol\":3416:3425  isTalax() */\n      tag_167\n        /* \"contracts/Stakable.sol\":3416:3423  isTalax */\n      tag_151\n        /* \"contracts/Stakable.sol\":3416:3425  isTalax() */\n      jump\t// in\n    tag_167:\n        /* \"contracts/Stakable.sol\":10746:10765  Stake memory staker */\n      0x00\n        /* \"contracts/Stakable.sol\":10768:10780  stakeholders */\n      0x0b\n        /* \"contracts/Stakable.sol\":10768:10786  stakeholders[user] */\n      0x00\n        /* \"contracts/Stakable.sol\":10781:10785  user */\n      dup5\n        /* \"contracts/Stakable.sol\":10768:10786  stakeholders[user] */\n      0xffffffffffffffffffffffffffffffffffffffff\n      and\n      0xffffffffffffffffffffffffffffffffffffffff\n      and\n      dup2\n      mstore\n      0x20\n      add\n      swap1\n      dup2\n      mstore\n      0x20\n      add\n      0x00\n      keccak256\n        /* \"contracts/Stakable.sol\":10746:10786  Stake memory staker = stakeholders[user] */\n      mload(0x40)\n      dup1\n      0xe0\n      add\n      0x40\n      mstore\n      swap1\n      dup2\n      0x00\n      dup3\n      add\n      sload\n      dup2\n      mstore\n      0x20\n      add\n      0x01\n      dup3\n      add\n      sload\n      dup2\n      mstore\n      0x20\n      add\n      0x02\n      dup3\n      add\n      sload\n      dup2\n      mstore\n      0x20\n      add\n      0x03\n      dup3\n      add\n      sload\n      dup2\n      mstore\n      0x20\n      add\n      0x04\n      dup3\n      add\n      sload\n      dup2\n      mstore\n      0x20\n      add\n      0x05\n      dup3\n      add\n      sload\n      dup2\n      mstore\n      0x20\n      add\n      0x06\n      dup3\n      add\n      sload\n      dup2\n      mstore\n      pop\n      pop\n      swap1\n      pop\n        /* \"contracts/Stakable.sol\":10817:10818  0 */\n      0x00\n        /* \"contracts/Stakable.sol\":10801:10807  staker */\n      dup2\n        /* \"contracts/Stakable.sol\":10801:10814  staker.amount */\n      0x00\n      add\n      mload\n        /* \"contracts/Stakable.sol\":10801:10818  staker.amount > 0 */\n      gt\n        /* \"contracts/Stakable.sol\":10797:11299  if (staker.amount > 0) {... */\n      iszero\n      tag_169\n      jumpi\n        /* \"contracts/Stakable.sol\":11028:11029  0 */\n      0x00\n        /* \"contracts/Stakable.sol\":10986:11024  _calculateWeek(staker.latestClaimDrop) */\n      tag_170\n        /* \"contracts/Stakable.sol\":11001:11007  staker */\n      dup3\n        /* \"contracts/Stakable.sol\":11001:11023  staker.latestClaimDrop */\n      0xc0\n      add\n      mload\n        /* \"contracts/Stakable.sol\":10986:11000  _calculateWeek */\n      tag_137\n        /* \"contracts/Stakable.sol\":10986:11024  _calculateWeek(staker.latestClaimDrop) */\n      jump\t// in\n    tag_170:\n        /* \"contracts/Stakable.sol\":10986:11029  _calculateWeek(staker.latestClaimDrop) <= 0 */\n      gt\n        /* \"contracts/Stakable.sol\":10982:11100  if (_calculateWeek(staker.latestClaimDrop) <= 0) {... */\n      tag_171\n      jumpi\n        /* \"contracts/Stakable.sol\":11056:11085  Airdrop__claimableOnceAWeek() */\n      mload(0x40)\n      0xdd8456cc00000000000000000000000000000000000000000000000000000000\n      dup2\n      mstore\n      0x04\n      add\n      mload(0x40)\n      dup1\n      swap2\n      sub\n      swap1\n      revert\n        /* \"contracts/Stakable.sol\":10982:11100  if (_calculateWeek(staker.latestClaimDrop) <= 0) {... */\n    tag_171:\n        /* \"contracts/Stakable.sol\":11140:11141  0 */\n      0x00\n        /* \"contracts/Stakable.sol\":11114:11120  staker */\n      dup2\n        /* \"contracts/Stakable.sol\":11114:11137  staker.claimableAirdrop */\n      0xa0\n      add\n        /* \"contracts/Stakable.sol\":11114:11141  staker.claimableAirdrop = 0 */\n      dup2\n      dup2\n      mstore\n      pop\n      pop\n        /* \"contracts/Stakable.sol\":11180:11195  block.timestamp */\n      timestamp\n        /* \"contracts/Stakable.sol\":11155:11161  staker */\n      dup2\n        /* \"contracts/Stakable.sol\":11155:11177  staker.latestClaimDrop */\n      0xc0\n      add\n        /* \"contracts/Stakable.sol\":11155:11195  staker.latestClaimDrop = block.timestamp */\n      dup2\n      dup2\n      mstore\n      pop\n      pop\n        /* \"contracts/Stakable.sol\":11217:11249  _calculateAirdrop(staker.amount) */\n      tag_172\n        /* \"contracts/Stakable.sol\":11235:11241  staker */\n      dup2\n        /* \"contracts/Stakable.sol\":11235:11248  staker.amount */\n      0x00\n      add\n      mload\n        /* \"contracts/Stakable.sol\":11217:11234  _calculateAirdrop */\n      tag_140\n        /* \"contracts/Stakable.sol\":11217:11249  _calculateAirdrop(staker.amount) */\n      jump\t// in\n    tag_172:\n        /* \"contracts/Stakable.sol\":11210:11249  return _calculateAirdrop(staker.amount) */\n      swap2\n      pop\n      pop\n      jump(tag_168)\n        /* \"contracts/Stakable.sol\":10797:11299  if (staker.amount > 0) {... */\n    tag_169:\n        /* \"contracts/Stakable.sol\":11287:11288  0 */\n      0x00\n        /* \"contracts/Stakable.sol\":11280:11288  return 0 */\n      swap2\n      pop\n      pop\n        /* \"contracts/Stakable.sol\":3435:3436  _ */\n    tag_168:\n        /* \"contracts/Stakable.sol\":10577:11305  function claimAirdrop(address user)... */\n      swap2\n      swap1\n      pop\n      jump\t// out\n        /* \"contracts/Stakable.sol\":12951:13439  function getVotingResult()... */\n    tag_61:\n        /* \"contracts/Stakable.sol\":13068:13072  bool */\n      0x00\n        /* \"contracts/Stakable.sol\":3416:3425  isTalax() */\n      tag_175\n        /* \"contracts/Stakable.sol\":3416:3423  isTalax */\n      tag_151\n        /* \"contracts/Stakable.sol\":3416:3425  isTalax() */\n      jump\t// in\n    tag_175:\n        /* \"contracts/Stakable.sol\":4259:4279  _checkVotingStatus() */\n      tag_177\n        /* \"contracts/Stakable.sol\":4259:4277  _checkVotingStatus */\n      tag_113\n        /* \"contracts/Stakable.sol\":4259:4279  _checkVotingStatus() */\n      jump\t// in\n    tag_177:\n        /* \"contracts/Stakable.sol\":13165:13166  1 */\n      0x01\n        /* \"contracts/Stakable.sol\":13150:13161  totalVoters */\n      sload(0x06)\n        /* \"contracts/Stakable.sol\":13150:13166  totalVoters <= 1 */\n      gt\n        /* \"contracts/Stakable.sol\":13146:13225  if (totalVoters <= 1) {... */\n      tag_179\n      jumpi\n        /* \"contracts/Stakable.sol\":13189:13214  Voting__notEnoughVoters() */\n      mload(0x40)\n      0x2f9686de00000000000000000000000000000000000000000000000000000000\n      dup2\n      mstore\n      0x04\n      add\n      mload(0x40)\n      dup1\n      swap2\n      sub\n      swap1\n      revert\n        /* \"contracts/Stakable.sol\":13146:13225  if (totalVoters <= 1) {... */\n    tag_179:\n        /* \"contracts/Stakable.sol\":13234:13253  uint256 half_voters */\n      0x00\n        /* \"contracts/Stakable.sol\":13256:13302  SafeMath.div(SafeMath.mul(totalVoters, 5), 10) */\n      tag_180\n        /* \"contracts/Stakable.sol\":13269:13297  SafeMath.mul(totalVoters, 5) */\n      tag_181\n        /* \"contracts/Stakable.sol\":13282:13293  totalVoters */\n      sload(0x06)\n        /* \"contracts/Stakable.sol\":13295:13296  5 */\n      0x05\n        /* \"contracts/Stakable.sol\":13269:13281  SafeMath.mul */\n      tag_130\n        /* \"contracts/Stakable.sol\":13269:13297  SafeMath.mul(totalVoters, 5) */\n      jump\t// in\n    tag_181:\n        /* \"contracts/Stakable.sol\":13299:13301  10 */\n      0x0a\n        /* \"contracts/Stakable.sol\":13256:13268  SafeMath.div */\n      tag_131\n        /* \"contracts/Stakable.sol\":13256:13302  SafeMath.div(SafeMath.mul(totalVoters, 5), 10) */\n      jump\t// in\n    tag_180:\n        /* \"contracts/Stakable.sol\":13234:13302  uint256 half_voters = SafeMath.div(SafeMath.mul(totalVoters, 5), 10) */\n      swap1\n      pop\n        /* \"contracts/Stakable.sol\":13341:13352  half_voters */\n      dup1\n        /* \"contracts/Stakable.sol\":13317:13327  votedUsers */\n      0x08\n        /* \"contracts/Stakable.sol\":13317:13338  votedUsers[_votingId] */\n      0x00\n        /* \"contracts/Stakable.sol\":13328:13337  _votingId */\n      sload(0x05)\n        /* \"contracts/Stakable.sol\":13317:13338  votedUsers[_votingId] */\n      dup2\n      mstore\n      0x20\n      add\n      swap1\n      dup2\n      mstore\n      0x20\n      add\n      0x00\n      keccak256\n      sload\n        /* \"contracts/Stakable.sol\":13317:13352  votedUsers[_votingId] > half_voters */\n      gt\n        /* \"contracts/Stakable.sol\":13313:13433  if (votedUsers[_votingId] > half_voters) {... */\n      iszero\n      tag_182\n      jumpi\n        /* \"contracts/Stakable.sol\":13375:13379  true */\n      0x01\n        /* \"contracts/Stakable.sol\":13368:13379  return true */\n      swap2\n      pop\n      pop\n      jump(tag_178)\n        /* \"contracts/Stakable.sol\":13313:13433  if (votedUsers[_votingId] > half_voters) {... */\n    tag_182:\n        /* \"contracts/Stakable.sol\":13417:13422  false */\n      0x00\n        /* \"contracts/Stakable.sol\":13410:13422  return false */\n      swap2\n      pop\n      pop\n        /* \"contracts/Stakable.sol\":4289:4290  _ */\n    tag_178:\n        /* \"contracts/Stakable.sol\":12951:13439  function getVotingResult()... */\n      swap1\n      jump\t// out\n        /* \"contracts/Stakable.sol\":9913:10008  function startAirdropSince() external onlyTalax {... */\n    tag_65:\n        /* \"contracts/Stakable.sol\":3416:3425  isTalax() */\n      tag_185\n        /* \"contracts/Stakable.sol\":3416:3423  isTalax */\n      tag_151\n        /* \"contracts/Stakable.sol\":3416:3425  isTalax() */\n      jump\t// in\n    tag_185:\n        /* \"contracts/Stakable.sol\":9986:10001  block.timestamp */\n      timestamp\n        /* \"contracts/Stakable.sol\":9971:9983  airdropSince */\n      0x03\n        /* \"contracts/Stakable.sol\":9971:10001  airdropSince = block.timestamp */\n      dup2\n      swap1\n      sstore\n      pop\n        /* \"contracts/Stakable.sol\":9913:10008  function startAirdropSince() external onlyTalax {... */\n      jump\t// out\n        /* \"contracts/Stakable.sol\":1251:1277  uint256 public airdropRate */\n    tag_67:\n      sload(0x02)\n      dup2\n      jump\t// out\n        /* \"contracts/Stakable.sol\":5893:6199  function changePenaltyFee(uint256 amount) external onlyOwner {... */\n    tag_72:\n        /* \"contracts/Stakable.sol\":3678:3687  isOwner() */\n      tag_188\n        /* \"contracts/Stakable.sol\":3678:3685  isOwner */\n      tag_144\n        /* \"contracts/Stakable.sol\":3678:3687  isOwner() */\n      jump\t// in\n    tag_188:\n        /* \"contracts/Stakable.sol\":6051:6053  30 */\n      0x1e\n        /* \"contracts/Stakable.sol\":6042:6048  amount */\n      dup2\n        /* \"contracts/Stakable.sol\":6042:6053  amount > 30 */\n      gt\n        /* \"contracts/Stakable.sol\":6038:6119  if (amount > 30) {... */\n      iszero\n      tag_190\n      jumpi\n        /* \"contracts/Stakable.sol\":6076:6108  Staking__penaltyExceed3Percent() */\n      mload(0x40)\n      0xf1a470d700000000000000000000000000000000000000000000000000000000\n      dup2\n      mstore\n      0x04\n      add\n      mload(0x40)\n      dup1\n      swap2\n      sub\n      swap1\n      revert\n        /* \"contracts/Stakable.sol\":6038:6119  if (amount > 30) {... */\n    tag_190:\n        /* \"contracts/Stakable.sol\":6149:6155  amount */\n      dup1\n        /* \"contracts/Stakable.sol\":6128:6146  stakingPenaltyRate */\n      0x01\n        /* \"contracts/Stakable.sol\":6128:6155  stakingPenaltyRate = amount */\n      dup2\n      swap1\n      sstore\n      pop\n        /* \"contracts/Stakable.sol\":6170:6192  PenaltyChanged(amount) */\n      0xcfa4f4cf1cd64d13a167a8e75605e0c0c9d6700e903d17c5dc11f593254a04a9\n        /* \"contracts/Stakable.sol\":6185:6191  amount */\n      dup2\n        /* \"contracts/Stakable.sol\":6170:6192  PenaltyChanged(amount) */\n      mload(0x40)\n      tag_191\n      swap2\n      swap1\n      tag_53\n      jump\t// in\n    tag_191:\n      mload(0x40)\n      dup1\n      swap2\n      sub\n      swap1\n      log1\n        /* \"contracts/Stakable.sol\":5893:6199  function changePenaltyFee(uint256 amount) external onlyOwner {... */\n      pop\n      jump\t// out\n        /* \"contracts/Stakable.sol\":1459:1504  mapping(uint256 => uint256) public votedUsers */\n    tag_75:\n      mstore(0x20, 0x08)\n      dup1\n      0x00\n      mstore\n      keccak256(0x00, 0x40)\n      0x00\n      swap2\n      pop\n      swap1\n      pop\n      sload\n      dup2\n      jump\t// out\n        /* \"contracts/Stakable.sol\":1414:1453  mapping(address => Voter) public voters */\n    tag_79:\n      mstore(0x20, 0x07)\n      dup1\n      0x00\n      mstore\n      keccak256(0x00, 0x40)\n      0x00\n      swap2\n      pop\n      swap1\n      pop\n      dup1\n      0x00\n      add\n      0x00\n      swap1\n      sload\n      swap1\n      0x0100\n      exp\n      swap1\n      div\n      0xff\n      and\n      swap1\n      pop\n      dup2\n      jump\t// out\n        /* \"contracts/Stakable.sol\":1538:1559  address public _owner */\n    tag_82:\n      0x0a\n      0x00\n      swap1\n      sload\n      swap1\n      0x0100\n      exp\n      swap1\n      div\n      0xffffffffffffffffffffffffffffffffffffffff\n      and\n      dup2\n      jump\t// out\n        /* \"contracts/Stakable.sol\":1283:1310  uint256 public airdropSince */\n    tag_85:\n      sload(0x03)\n      dup2\n      jump\t// out\n        /* \"contracts/Stakable.sol\":7870:8668  function withdrawStake(address user)... */\n    tag_89:\n        /* \"contracts/Stakable.sol\":7980:7987  uint256 */\n      0x00\n        /* \"contracts/Stakable.sol\":7989:7996  uint256 */\n      dup1\n        /* \"@openzeppelin/contracts/security/ReentrancyGuard.sol\":1744:1745  2 */\n      0x02\n        /* \"@openzeppelin/contracts/security/ReentrancyGuard.sol\":2325:2332  _status */\n      sload(0x00)\n        /* \"@openzeppelin/contracts/security/ReentrancyGuard.sol\":2325:2344  _status != _ENTERED */\n      eq\n      iszero\n        /* \"@openzeppelin/contracts/security/ReentrancyGuard.sol\":2317:2380  require(_status != _ENTERED, \"ReentrancyGuard: reentrant call\") */\n      tag_193\n      jumpi\n      mload(0x40)\n      0x08c379a000000000000000000000000000000000000000000000000000000000\n      dup2\n      mstore\n      0x04\n      add\n      tag_194\n      swap1\n      tag_110\n      jump\t// in\n    tag_194:\n      mload(0x40)\n      dup1\n      swap2\n      sub\n      swap1\n      revert\n    tag_193:\n        /* \"@openzeppelin/contracts/security/ReentrancyGuard.sol\":1744:1745  2 */\n      0x02\n        /* \"@openzeppelin/contracts/security/ReentrancyGuard.sol\":2455:2462  _status */\n      0x00\n        /* \"@openzeppelin/contracts/security/ReentrancyGuard.sol\":2455:2473  _status = _ENTERED */\n      dup2\n      swap1\n      sstore\n      pop\n        /* \"contracts/Stakable.sol\":3416:3425  isTalax() */\n      tag_196\n        /* \"contracts/Stakable.sol\":3416:3423  isTalax */\n      tag_151\n        /* \"contracts/Stakable.sol\":3416:3425  isTalax() */\n      jump\t// in\n    tag_196:\n        /* \"contracts/Stakable.sol\":8113:8136  Stake memory user_stake */\n      0x00\n        /* \"contracts/Stakable.sol\":8139:8151  stakeholders */\n      0x0b\n        /* \"contracts/Stakable.sol\":8139:8157  stakeholders[user] */\n      0x00\n        /* \"contracts/Stakable.sol\":8152:8156  user */\n      dup6\n        /* \"contracts/Stakable.sol\":8139:8157  stakeholders[user] */\n      0xffffffffffffffffffffffffffffffffffffffff\n      and\n      0xffffffffffffffffffffffffffffffffffffffff\n      and\n      dup2\n      mstore\n      0x20\n      add\n      swap1\n      dup2\n      mstore\n      0x20\n      add\n      0x00\n      keccak256\n        /* \"contracts/Stakable.sol\":8113:8157  Stake memory user_stake = stakeholders[user] */\n      mload(0x40)\n      dup1\n      0xe0\n      add\n      0x40\n      mstore\n      swap1\n      dup2\n      0x00\n      dup3\n      add\n      sload\n      dup2\n      mstore\n      0x20\n      add\n      0x01\n      dup3\n      add\n      sload\n      dup2\n      mstore\n      0x20\n      add\n      0x02\n      dup3\n      add\n      sload\n      dup2\n      mstore\n      0x20\n      add\n      0x03\n      dup3\n      add\n      sload\n      dup2\n      mstore\n      0x20\n      add\n      0x04\n      dup3\n      add\n      sload\n      dup2\n      mstore\n      0x20\n      add\n      0x05\n      dup3\n      add\n      sload\n      dup2\n      mstore\n      0x20\n      add\n      0x06\n      dup3\n      add\n      sload\n      dup2\n      mstore\n      pop\n      pop\n      swap1\n      pop\n        /* \"contracts/Stakable.sol\":8175:8187  stakeholders */\n      0x0b\n        /* \"contracts/Stakable.sol\":8175:8193  stakeholders[user] */\n      0x00\n        /* \"contracts/Stakable.sol\":8188:8192  user */\n      dup6\n        /* \"contracts/Stakable.sol\":8175:8193  stakeholders[user] */\n      0xffffffffffffffffffffffffffffffffffffffff\n      and\n      0xffffffffffffffffffffffffffffffffffffffff\n      and\n      dup2\n      mstore\n      0x20\n      add\n      swap1\n      dup2\n      mstore\n      0x20\n      add\n      0x00\n      keccak256\n      0x00\n        /* \"contracts/Stakable.sol\":8168:8193  delete stakeholders[user] */\n      dup1\n      dup3\n      add\n      0x00\n      swap1\n      sstore\n      0x01\n      dup3\n      add\n      0x00\n      swap1\n      sstore\n      0x02\n      dup3\n      add\n      0x00\n      swap1\n      sstore\n      0x03\n      dup3\n      add\n      0x00\n      swap1\n      sstore\n      0x04\n      dup3\n      add\n      0x00\n      swap1\n      sstore\n      0x05\n      dup3\n      add\n      0x00\n      swap1\n      sstore\n      0x06\n      dup3\n      add\n      0x00\n      swap1\n      sstore\n      pop\n      pop\n        /* \"contracts/Stakable.sol\":8233:8248  block.timestamp */\n      timestamp\n        /* \"contracts/Stakable.sol\":8208:8218  user_stake */\n      dup2\n        /* \"contracts/Stakable.sol\":8208:8230  user_stake.releaseTime */\n      0x60\n      add\n      mload\n        /* \"contracts/Stakable.sol\":8208:8248  user_stake.releaseTime > block.timestamp */\n      gt\n        /* \"contracts/Stakable.sol\":8204:8518  if (user_stake.releaseTime > block.timestamp) {... */\n      iszero\n      tag_198\n      jumpi\n        /* \"contracts/Stakable.sol\":8279:8280  1 */\n      0x01\n        /* \"contracts/Stakable.sol\":8264:8275  totalVoters */\n      0x06\n      0x00\n        /* \"contracts/Stakable.sol\":8264:8280  totalVoters -= 1 */\n      dup3\n      dup3\n      sload\n      tag_199\n      swap2\n      swap1\n      tag_120\n      jump\t// in\n    tag_199:\n      swap3\n      pop\n      pop\n      dup2\n      swap1\n      sstore\n      pop\n        /* \"contracts/Stakable.sol\":8301:8307  voters */\n      0x07\n        /* \"contracts/Stakable.sol\":8301:8313  voters[user] */\n      0x00\n        /* \"contracts/Stakable.sol\":8308:8312  user */\n      dup6\n        /* \"contracts/Stakable.sol\":8301:8313  voters[user] */\n      0xffffffffffffffffffffffffffffffffffffffff\n      and\n      0xffffffffffffffffffffffffffffffffffffffff\n      and\n      dup2\n      mstore\n      0x20\n      add\n      swap1\n      dup2\n      mstore\n      0x20\n      add\n      0x00\n      keccak256\n        /* \"contracts/Stakable.sol\":8301:8319  voters[user].voted */\n      0x01\n      add\n        /* \"contracts/Stakable.sol\":8301:8330  voters[user].voted[_votingId] */\n      0x00\n        /* \"contracts/Stakable.sol\":8320:8329  _votingId */\n      sload(0x05)\n        /* \"contracts/Stakable.sol\":8301:8330  voters[user].voted[_votingId] */\n      dup2\n      mstore\n      0x20\n      add\n      swap1\n      dup2\n      mstore\n      0x20\n      add\n      0x00\n      keccak256\n      0x00\n        /* \"contracts/Stakable.sol\":8294:8330  delete voters[user].voted[_votingId] */\n      0x0100\n      exp\n      dup2\n      sload\n      swap1\n      0xff\n      mul\n      not\n      and\n      swap1\n      sstore\n        /* \"contracts/Stakable.sol\":8367:8507  _calculateStakingWithPenalty(... */\n      tag_200\n        /* \"contracts/Stakable.sol\":8417:8427  user_stake */\n      dup2\n        /* \"contracts/Stakable.sol\":8417:8434  user_stake.amount */\n      0x00\n      add\n      mload\n        /* \"contracts/Stakable.sol\":8456:8489  _calculateStakeReward(user_stake) */\n      tag_201\n        /* \"contracts/Stakable.sol\":8478:8488  user_stake */\n      dup4\n        /* \"contracts/Stakable.sol\":8456:8477  _calculateStakeReward */\n      tag_126\n        /* \"contracts/Stakable.sol\":8456:8489  _calculateStakeReward(user_stake) */\n      jump\t// in\n    tag_201:\n        /* \"contracts/Stakable.sol\":8367:8395  _calculateStakingWithPenalty */\n      tag_202\n        /* \"contracts/Stakable.sol\":8367:8507  _calculateStakingWithPenalty(... */\n      jump\t// in\n    tag_200:\n        /* \"contracts/Stakable.sol\":8344:8507  return... */\n      swap3\n      pop\n      swap3\n      pop\n      pop\n      jump(tag_197)\n        /* \"contracts/Stakable.sol\":8204:8518  if (user_stake.releaseTime > block.timestamp) {... */\n    tag_198:\n        /* \"contracts/Stakable.sol\":8543:8544  1 */\n      0x01\n        /* \"contracts/Stakable.sol\":8528:8539  totalVoters */\n      0x06\n      0x00\n        /* \"contracts/Stakable.sol\":8528:8544  totalVoters -= 1 */\n      dup3\n      dup3\n      sload\n      tag_203\n      swap2\n      swap1\n      tag_120\n      jump\t// in\n    tag_203:\n      swap3\n      pop\n      pop\n      dup2\n      swap1\n      sstore\n      pop\n        /* \"contracts/Stakable.sol\":8561:8567  voters */\n      0x07\n        /* \"contracts/Stakable.sol\":8561:8573  voters[user] */\n      0x00\n        /* \"contracts/Stakable.sol\":8568:8572  user */\n      dup6\n        /* \"contracts/Stakable.sol\":8561:8573  voters[user] */\n      0xffffffffffffffffffffffffffffffffffffffff\n      and\n      0xffffffffffffffffffffffffffffffffffffffff\n      and\n      dup2\n      mstore\n      0x20\n      add\n      swap1\n      dup2\n      mstore\n      0x20\n      add\n      0x00\n      keccak256\n        /* \"contracts/Stakable.sol\":8561:8579  voters[user].voted */\n      0x01\n      add\n        /* \"contracts/Stakable.sol\":8561:8590  voters[user].voted[_votingId] */\n      0x00\n        /* \"contracts/Stakable.sol\":8580:8589  _votingId */\n      sload(0x05)\n        /* \"contracts/Stakable.sol\":8561:8590  voters[user].voted[_votingId] */\n      dup2\n      mstore\n      0x20\n      add\n      swap1\n      dup2\n      mstore\n      0x20\n      add\n      0x00\n      keccak256\n      0x00\n        /* \"contracts/Stakable.sol\":8554:8590  delete voters[user].voted[_votingId] */\n      0x0100\n      exp\n      dup2\n      sload\n      swap1\n      0xff\n      mul\n      not\n      and\n      swap1\n      sstore\n        /* \"contracts/Stakable.sol\":8608:8618  user_stake */\n      dup1\n        /* \"contracts/Stakable.sol\":8608:8625  user_stake.amount */\n      0x00\n      add\n      mload\n        /* \"contracts/Stakable.sol\":8627:8660  _calculateStakeReward(user_stake) */\n      tag_204\n        /* \"contracts/Stakable.sol\":8649:8659  user_stake */\n      dup3\n        /* \"contracts/Stakable.sol\":8627:8648  _calculateStakeReward */\n      tag_126\n        /* \"contracts/Stakable.sol\":8627:8660  _calculateStakeReward(user_stake) */\n      jump\t// in\n    tag_204:\n        /* \"contracts/Stakable.sol\":8600:8661  return (user_stake.amount, _calculateStakeReward(user_stake)) */\n      swap3\n      pop\n      swap3\n      pop\n      pop\n        /* \"contracts/Stakable.sol\":3435:3436  _ */\n    tag_197:\n        /* \"@openzeppelin/contracts/security/ReentrancyGuard.sol\":1701:1702  1 */\n      0x01\n        /* \"@openzeppelin/contracts/security/ReentrancyGuard.sol\":2628:2635  _status */\n      0x00\n        /* \"@openzeppelin/contracts/security/ReentrancyGuard.sol\":2628:2650  _status = _NOT_ENTERED */\n      dup2\n      swap1\n      sstore\n      pop\n        /* \"contracts/Stakable.sol\":7870:8668  function withdrawStake(address user)... */\n      swap2\n      pop\n      swap2\n      jump\t// out\n        /* \"contracts/Stakable.sol\":1212:1245  uint256 public stakingPenaltyRate */\n    tag_93:\n      sload(0x01)\n      dup2\n      jump\t// out\n        /* \"contracts/Stakable.sol\":11311:11515  function airdropWeek() public view returns (uint256) {... */\n    tag_96:\n        /* \"contracts/Stakable.sol\":11355:11362  uint256 */\n      0x00\n        /* \"contracts/Stakable.sol\":11394:11395  0 */\n      dup1\n        /* \"contracts/Stakable.sol\":11378:11390  airdropSince */\n      sload(0x03)\n        /* \"contracts/Stakable.sol\":11378:11395  airdropSince != 0 */\n      eq\n        /* \"contracts/Stakable.sol\":11374:11509  if (airdropSince != 0) {... */\n      tag_206\n      jumpi\n        /* \"contracts/Stakable.sol\":11453:11459  7 days */\n      0x093a80\n        /* \"contracts/Stakable.sol\":11437:11449  airdropSince */\n      sload(0x03)\n        /* \"contracts/Stakable.sol\":11419:11434  block.timestamp */\n      timestamp\n        /* \"contracts/Stakable.sol\":11419:11449  block.timestamp - airdropSince */\n      tag_207\n      swap2\n      swap1\n      tag_120\n      jump\t// in\n    tag_207:\n        /* \"contracts/Stakable.sol\":11418:11459  (block.timestamp - airdropSince) / 7 days */\n      tag_208\n      swap2\n      swap1\n      tag_209\n      jump\t// in\n    tag_208:\n        /* \"contracts/Stakable.sol\":11411:11459  return (block.timestamp - airdropSince) / 7 days */\n      swap1\n      pop\n      jump(tag_205)\n        /* \"contracts/Stakable.sol\":11374:11509  if (airdropSince != 0) {... */\n    tag_206:\n        /* \"contracts/Stakable.sol\":11497:11498  0 */\n      0x00\n        /* \"contracts/Stakable.sol\":11490:11498  return 0 */\n      swap1\n      pop\n        /* \"contracts/Stakable.sol\":11311:11515  function airdropWeek() public view returns (uint256) {... */\n    tag_205:\n      swap1\n      jump\t// out\n        /* \"contracts/Stakable.sol\":10014:10248  function changeAirdropPercentage(uint256 amount) external onlyOwner {... */\n    tag_100:\n        /* \"contracts/Stakable.sol\":3678:3687  isOwner() */\n      tag_212\n        /* \"contracts/Stakable.sol\":3678:3685  isOwner */\n      tag_144\n        /* \"contracts/Stakable.sol\":3678:3687  isOwner() */\n      jump\t// in\n    tag_212:\n        /* \"contracts/Stakable.sol\":10105:10108  200 */\n      0xc8\n        /* \"contracts/Stakable.sol\":10096:10102  amount */\n      dup2\n        /* \"contracts/Stakable.sol\":10096:10108  amount > 200 */\n      gt\n        /* \"contracts/Stakable.sol\":10092:10175  if (amount > 200) {... */\n      iszero\n      tag_214\n      jumpi\n        /* \"contracts/Stakable.sol\":10131:10164  Staking__airdropExceed20Percent() */\n      mload(0x40)\n      0xa552cf1000000000000000000000000000000000000000000000000000000000\n      dup2\n      mstore\n      0x04\n      add\n      mload(0x40)\n      dup1\n      swap2\n      sub\n      swap1\n      revert\n        /* \"contracts/Stakable.sol\":10092:10175  if (amount > 200) {... */\n    tag_214:\n        /* \"contracts/Stakable.sol\":10198:10204  amount */\n      dup1\n        /* \"contracts/Stakable.sol\":10184:10195  airdropRate */\n      0x02\n        /* \"contracts/Stakable.sol\":10184:10204  airdropRate = amount */\n      dup2\n      swap1\n      sstore\n      pop\n        /* \"contracts/Stakable.sol\":10219:10241  AirdropChanged(amount) */\n      0xcc672f1026b958c0cfbfdd89ebe8ddcbc127f16ec24da6c2c7a4de26a8b1857e\n        /* \"contracts/Stakable.sol\":10234:10240  amount */\n      dup2\n        /* \"contracts/Stakable.sol\":10219:10241  AirdropChanged(amount) */\n      mload(0x40)\n      tag_215\n      swap2\n      swap1\n      tag_53\n      jump\t// in\n    tag_215:\n      mload(0x40)\n      dup1\n      swap2\n      sub\n      swap1\n      log1\n        /* \"contracts/Stakable.sol\":10014:10248  function changeAirdropPercentage(uint256 amount) external onlyOwner {... */\n      pop\n      jump\t// out\n        /* \"contracts/Stakable.sol\":4713:5887  function stake(... */\n    tag_104:\n        /* \"@openzeppelin/contracts/security/ReentrancyGuard.sol\":1744:1745  2 */\n      0x02\n        /* \"@openzeppelin/contracts/security/ReentrancyGuard.sol\":2325:2332  _status */\n      sload(0x00)\n        /* \"@openzeppelin/contracts/security/ReentrancyGuard.sol\":2325:2344  _status != _ENTERED */\n      eq\n      iszero\n        /* \"@openzeppelin/contracts/security/ReentrancyGuard.sol\":2317:2380  require(_status != _ENTERED, \"ReentrancyGuard: reentrant call\") */\n      tag_217\n      jumpi\n      mload(0x40)\n      0x08c379a000000000000000000000000000000000000000000000000000000000\n      dup2\n      mstore\n      0x04\n      add\n      tag_218\n      swap1\n      tag_110\n      jump\t// in\n    tag_218:\n      mload(0x40)\n      dup1\n      swap2\n      sub\n      swap1\n      revert\n    tag_217:\n        /* \"@openzeppelin/contracts/security/ReentrancyGuard.sol\":1744:1745  2 */\n      0x02\n        /* \"@openzeppelin/contracts/security/ReentrancyGuard.sol\":2455:2462  _status */\n      0x00\n        /* \"@openzeppelin/contracts/security/ReentrancyGuard.sol\":2455:2473  _status = _ENTERED */\n      dup2\n      swap1\n      sstore\n      pop\n        /* \"contracts/Stakable.sol\":3416:3425  isTalax() */\n      tag_220\n        /* \"contracts/Stakable.sol\":3416:3423  isTalax */\n      tag_151\n        /* \"contracts/Stakable.sol\":3416:3425  isTalax() */\n      jump\t// in\n    tag_220:\n        /* \"contracts/Stakable.sol\":5003:5004  0 */\n      0x00\n        /* \"contracts/Stakable.sol\":4993:4999  amount */\n      dup4\n        /* \"contracts/Stakable.sol\":4993:5004  amount <= 0 */\n      gt\n        /* \"contracts/Stakable.sol\":4989:5067  if (amount <= 0) {... */\n      tag_222\n      jumpi\n        /* \"contracts/Stakable.sol\":5027:5056  Staking__cannotStakeNothing() */\n      mload(0x40)\n      0x88b440d600000000000000000000000000000000000000000000000000000000\n      dup2\n      mstore\n      0x04\n      add\n      mload(0x40)\n      dup1\n      swap2\n      sub\n      swap1\n      revert\n        /* \"contracts/Stakable.sol\":4989:5067  if (amount <= 0) {... */\n    tag_222:\n        /* \"contracts/Stakable.sol\":5181:5182  0 */\n      0x00\n        /* \"contracts/Stakable.sol\":5152:5164  stakeholders */\n      0x0b\n        /* \"contracts/Stakable.sol\":5152:5170  stakeholders[user] */\n      0x00\n        /* \"contracts/Stakable.sol\":5165:5169  user */\n      dup7\n        /* \"contracts/Stakable.sol\":5152:5170  stakeholders[user] */\n      0xffffffffffffffffffffffffffffffffffffffff\n      and\n      0xffffffffffffffffffffffffffffffffffffffff\n      and\n      dup2\n      mstore\n      0x20\n      add\n      swap1\n      dup2\n      mstore\n      0x20\n      add\n      0x00\n      keccak256\n        /* \"contracts/Stakable.sol\":5152:5177  stakeholders[user].amount */\n      0x00\n      add\n      sload\n        /* \"contracts/Stakable.sol\":5152:5182  stakeholders[user].amount != 0 */\n      eq\n        /* \"contracts/Stakable.sol\":5148:5239  if (stakeholders[user].amount != 0) {... */\n      tag_223\n      jumpi\n        /* \"contracts/Stakable.sol\":5205:5228  Staking__userIsStaker() */\n      mload(0x40)\n      0x04462d2700000000000000000000000000000000000000000000000000000000\n      dup2\n      mstore\n      0x04\n      add\n      mload(0x40)\n      dup1\n      swap2\n      sub\n      swap1\n      revert\n        /* \"contracts/Stakable.sol\":5148:5239  if (stakeholders[user].amount != 0) {... */\n    tag_223:\n        /* \"contracts/Stakable.sol\":5264:5265  1 */\n      0x01\n        /* \"contracts/Stakable.sol\":5249:5260  totalVoters */\n      0x06\n      0x00\n        /* \"contracts/Stakable.sol\":5249:5265  totalVoters += 1 */\n      dup3\n      dup3\n      sload\n      tag_224\n      swap2\n      swap1\n      tag_135\n      jump\t// in\n    tag_224:\n      swap3\n      pop\n      pop\n      dup2\n      swap1\n      sstore\n      pop\n        /* \"contracts/Stakable.sol\":5302:5306  true */\n      0x01\n        /* \"contracts/Stakable.sol\":5275:5281  voters */\n      0x07\n        /* \"contracts/Stakable.sol\":5275:5287  voters[user] */\n      0x00\n        /* \"contracts/Stakable.sol\":5282:5286  user */\n      dup7\n        /* \"contracts/Stakable.sol\":5275:5287  voters[user] */\n      0xffffffffffffffffffffffffffffffffffffffff\n      and\n      0xffffffffffffffffffffffffffffffffffffffff\n      and\n      dup2\n      mstore\n      0x20\n      add\n      swap1\n      dup2\n      mstore\n      0x20\n      add\n      0x00\n      keccak256\n        /* \"contracts/Stakable.sol\":5275:5299  voters[user].votingRight */\n      0x00\n      add\n      0x00\n        /* \"contracts/Stakable.sol\":5275:5306  voters[user].votingRight = true */\n      0x0100\n      exp\n      dup2\n      sload\n      dup2\n      0xff\n      mul\n      not\n      and\n      swap1\n      dup4\n      iszero\n      iszero\n      mul\n      or\n      swap1\n      sstore\n      pop\n        /* \"contracts/Stakable.sol\":5404:5421  uint256 timestamp */\n      0x00\n        /* \"contracts/Stakable.sol\":5424:5439  block.timestamp */\n      timestamp\n        /* \"contracts/Stakable.sol\":5404:5439  uint256 timestamp = block.timestamp */\n      swap1\n      pop\n        /* \"contracts/Stakable.sol\":5589:5755  Stake(... */\n      mload(0x40)\n      dup1\n      0xe0\n      add\n      0x40\n      mstore\n      dup1\n        /* \"contracts/Stakable.sol\":5608:5614  amount */\n      dup6\n        /* \"contracts/Stakable.sol\":5589:5755  Stake(... */\n      dup2\n      mstore\n      0x20\n      add\n        /* \"contracts/Stakable.sol\":5628:5637  timestamp */\n      dup3\n        /* \"contracts/Stakable.sol\":5589:5755  Stake(... */\n      dup2\n      mstore\n      0x20\n      add\n        /* \"contracts/Stakable.sol\":5651:5661  rewardRate */\n      dup4\n        /* \"contracts/Stakable.sol\":5589:5755  Stake(... */\n      dup2\n      mstore\n      0x20\n      add\n        /* \"contracts/Stakable.sol\":5690:5699  timestamp */\n      dup3\n        /* \"contracts/Stakable.sol\":5676:5687  stakePeriod */\n      dup6\n        /* \"contracts/Stakable.sol\":5676:5699  stakePeriod + timestamp */\n      tag_225\n      swap2\n      swap1\n      tag_135\n      jump\t// in\n    tag_225:\n        /* \"contracts/Stakable.sol\":5589:5755  Stake(... */\n      dup2\n      mstore\n      0x20\n      add\n        /* \"contracts/Stakable.sol\":5714:5715  0 */\n      0x00\n        /* \"contracts/Stakable.sol\":5589:5755  Stake(... */\n      dup2\n      mstore\n      0x20\n      add\n        /* \"contracts/Stakable.sol\":5729:5730  0 */\n      0x00\n        /* \"contracts/Stakable.sol\":5589:5755  Stake(... */\n      dup2\n      mstore\n      0x20\n      add\n        /* \"contracts/Stakable.sol\":5744:5745  0 */\n      0x00\n        /* \"contracts/Stakable.sol\":5589:5755  Stake(... */\n      dup2\n      mstore\n      pop\n        /* \"contracts/Stakable.sol\":5568:5580  stakeholders */\n      0x0b\n        /* \"contracts/Stakable.sol\":5568:5586  stakeholders[user] */\n      0x00\n        /* \"contracts/Stakable.sol\":5581:5585  user */\n      dup8\n        /* \"contracts/Stakable.sol\":5568:5586  stakeholders[user] */\n      0xffffffffffffffffffffffffffffffffffffffff\n      and\n      0xffffffffffffffffffffffffffffffffffffffff\n      and\n      dup2\n      mstore\n      0x20\n      add\n      swap1\n      dup2\n      mstore\n      0x20\n      add\n      0x00\n      keccak256\n        /* \"contracts/Stakable.sol\":5568:5755  stakeholders[user] = Stake(... */\n      0x00\n      dup3\n      add\n      mload\n      dup2\n      0x00\n      add\n      sstore\n      0x20\n      dup3\n      add\n      mload\n      dup2\n      0x01\n      add\n      sstore\n      0x40\n      dup3\n      add\n      mload\n      dup2\n      0x02\n      add\n      sstore\n      0x60\n      dup3\n      add\n      mload\n      dup2\n      0x03\n      add\n      sstore\n      0x80\n      dup3\n      add\n      mload\n      dup2\n      0x04\n      add\n      sstore\n      0xa0\n      dup3\n      add\n      mload\n      dup2\n      0x05\n      add\n      sstore\n      0xc0\n      dup3\n      add\n      mload\n      dup2\n      0x06\n      add\n      sstore\n      swap1\n      pop\n      pop\n        /* \"contracts/Stakable.sol\":5829:5833  user */\n      dup5\n        /* \"contracts/Stakable.sol\":5822:5880  Staked(user, amount, timestamp, (stakePeriod + timestamp)) */\n      0xffffffffffffffffffffffffffffffffffffffff\n      and\n      0xb4caaf29adda3eefee3ad552a8e85058589bf834c7466cae4ee58787f70589ed\n        /* \"contracts/Stakable.sol\":5835:5841  amount */\n      dup6\n        /* \"contracts/Stakable.sol\":5843:5852  timestamp */\n      dup4\n        /* \"contracts/Stakable.sol\":5869:5878  timestamp */\n      dup5\n        /* \"contracts/Stakable.sol\":5855:5866  stakePeriod */\n      dup8\n        /* \"contracts/Stakable.sol\":5855:5878  stakePeriod + timestamp */\n      tag_226\n      swap2\n      swap1\n      tag_135\n      jump\t// in\n    tag_226:\n        /* \"contracts/Stakable.sol\":5822:5880  Staked(user, amount, timestamp, (stakePeriod + timestamp)) */\n      mload(0x40)\n      tag_227\n      swap4\n      swap3\n      swap2\n      swap1\n      tag_228\n      jump\t// in\n    tag_227:\n      mload(0x40)\n      dup1\n      swap2\n      sub\n      swap1\n      log2\n        /* \"contracts/Stakable.sol\":4869:5887  {... */\n      pop\n        /* \"@openzeppelin/contracts/security/ReentrancyGuard.sol\":1701:1702  1 */\n      0x01\n        /* \"@openzeppelin/contracts/security/ReentrancyGuard.sol\":2628:2635  _status */\n      0x00\n        /* \"@openzeppelin/contracts/security/ReentrancyGuard.sol\":2628:2650  _status = _NOT_ENTERED */\n      dup2\n      swap1\n      sstore\n      pop\n        /* \"contracts/Stakable.sol\":4713:5887  function stake(... */\n      pop\n      pop\n      pop\n      pop\n      jump\t// out\n        /* \"contracts/Stakable.sol\":13445:13541  function stopVoting() external onlyTalax votingStatusTrue {... */\n    tag_106:\n        /* \"contracts/Stakable.sol\":3416:3425  isTalax() */\n      tag_230\n        /* \"contracts/Stakable.sol\":3416:3423  isTalax */\n      tag_151\n        /* \"contracts/Stakable.sol\":3416:3425  isTalax() */\n      jump\t// in\n    tag_230:\n        /* \"contracts/Stakable.sol\":4259:4279  _checkVotingStatus() */\n      tag_232\n        /* \"contracts/Stakable.sol\":4259:4277  _checkVotingStatus */\n      tag_113\n        /* \"contracts/Stakable.sol\":4259:4279  _checkVotingStatus() */\n      jump\t// in\n    tag_232:\n        /* \"contracts/Stakable.sol\":13529:13534  false */\n      0x00\n        /* \"contracts/Stakable.sol\":13513:13526  _votingStatus */\n      0x04\n      0x00\n        /* \"contracts/Stakable.sol\":13513:13534  _votingStatus = false */\n      0x0100\n      exp\n      dup2\n      sload\n      dup2\n      0xff\n      mul\n      not\n      and\n      swap1\n      dup4\n      iszero\n      iszero\n      mul\n      or\n      swap1\n      sstore\n      pop\n        /* \"contracts/Stakable.sol\":13445:13541  function stopVoting() external onlyTalax votingStatusTrue {... */\n      jump\t// out\n        /* \"contracts/Stakable.sol\":4011:4215  function _checkVotingStatus() internal view {... */\n    tag_113:\n        /* \"contracts/Stakable.sol\":4132:4145  _votingStatus */\n      0x04\n      0x00\n      swap1\n      sload\n      swap1\n      0x0100\n      exp\n      swap1\n      div\n      0xff\n      and\n        /* \"contracts/Stakable.sol\":4127:4209  if (!_votingStatus) {... */\n      tag_235\n      jumpi\n        /* \"contracts/Stakable.sol\":4168:4198  Function__votingNotAvailable() */\n      mload(0x40)\n      0xa1d1891400000000000000000000000000000000000000000000000000000000\n      dup2\n      mstore\n      0x04\n      add\n      mload(0x40)\n      dup1\n      swap2\n      sub\n      swap1\n      revert\n        /* \"contracts/Stakable.sol\":4127:4209  if (!_votingStatus) {... */\n    tag_235:\n        /* \"contracts/Stakable.sol\":4011:4215  function _checkVotingStatus() internal view {... */\n      jump\t// out\n        /* \"contracts/Stakable.sol\":3711:3942  function _isVoter() internal view {... */\n    tag_116:\n        /* \"contracts/Stakable.sol\":3876:3881  false */\n      0x00\n        /* \"contracts/Stakable.sol\":3842:3881  voters[msg.sender].votingRight == false */\n      iszero\n      iszero\n        /* \"contracts/Stakable.sol\":3842:3848  voters */\n      0x07\n        /* \"contracts/Stakable.sol\":3842:3860  voters[msg.sender] */\n      0x00\n        /* \"contracts/Stakable.sol\":3849:3859  msg.sender */\n      caller\n        /* \"contracts/Stakable.sol\":3842:3860  voters[msg.sender] */\n      0xffffffffffffffffffffffffffffffffffffffff\n      and\n      0xffffffffffffffffffffffffffffffffffffffff\n      and\n      dup2\n      mstore\n      0x20\n      add\n      swap1\n      dup2\n      mstore\n      0x20\n      add\n      0x00\n      keccak256\n        /* \"contracts/Stakable.sol\":3842:3872  voters[msg.sender].votingRight */\n      0x00\n      add\n      0x00\n      swap1\n      sload\n      swap1\n      0x0100\n      exp\n      swap1\n      div\n      0xff\n      and\n        /* \"contracts/Stakable.sol\":3842:3881  voters[msg.sender].votingRight == false */\n      iszero\n      iszero\n      eq\n        /* \"contracts/Stakable.sol\":3838:3936  if (voters[msg.sender].votingRight == false) {... */\n      iszero\n      tag_237\n      jumpi\n        /* \"contracts/Stakable.sol\":3904:3925  Function__notAVoter() */\n      mload(0x40)\n      0x1e567dd400000000000000000000000000000000000000000000000000000000\n      dup2\n      mstore\n      0x04\n      add\n      mload(0x40)\n      dup1\n      swap2\n      sub\n      swap1\n      revert\n        /* \"contracts/Stakable.sol\":3838:3936  if (voters[msg.sender].votingRight == false) {... */\n    tag_237:\n        /* \"contracts/Stakable.sol\":3711:3942  function _isVoter() internal view {... */\n      jump\t// out\n        /* \"contracts/Stakable.sol\":6560:6997  function _calculateStakeReward(Stake memory user_stake)... */\n    tag_126:\n        /* \"contracts/Stakable.sol\":6663:6670  uint256 */\n      0x00\n        /* \"contracts/Stakable.sol\":6711:6712  0 */\n      dup1\n        /* \"contracts/Stakable.sol\":6690:6700  user_stake */\n      dup3\n        /* \"contracts/Stakable.sol\":6690:6707  user_stake.amount */\n      0x00\n      add\n      mload\n        /* \"contracts/Stakable.sol\":6690:6712  user_stake.amount == 0 */\n      eq\n        /* \"contracts/Stakable.sol\":6686:6747  if (user_stake.amount == 0) {... */\n      iszero\n      tag_239\n      jumpi\n        /* \"contracts/Stakable.sol\":6735:6736  0 */\n      0x00\n        /* \"contracts/Stakable.sol\":6728:6736  return 0 */\n      swap1\n      pop\n      jump(tag_238)\n        /* \"contracts/Stakable.sol\":6686:6747  if (user_stake.amount == 0) {... */\n    tag_239:\n        /* \"contracts/Stakable.sol\":6986:6990  1e26 */\n      0x52b7d2dcc80cd2e4000000\n        /* \"contracts/Stakable.sol\":6939:6982  _calculateStakingDuration(user_stake.since) */\n      tag_240\n        /* \"contracts/Stakable.sol\":6965:6975  user_stake */\n      dup4\n        /* \"contracts/Stakable.sol\":6965:6981  user_stake.since */\n      0x20\n      add\n      mload\n        /* \"contracts/Stakable.sol\":6939:6964  _calculateStakingDuration */\n      tag_241\n        /* \"contracts/Stakable.sol\":6939:6982  _calculateStakingDuration(user_stake.since) */\n      jump\t// in\n    tag_240:\n        /* \"contracts/Stakable.sol\":6900:6910  user_stake */\n      dup4\n        /* \"contracts/Stakable.sol\":6900:6920  user_stake.rewardAPY */\n      0x40\n      add\n      mload\n        /* \"contracts/Stakable.sol\":6864:6874  user_stake */\n      dup5\n        /* \"contracts/Stakable.sol\":6864:6881  user_stake.amount */\n      0x00\n      add\n      mload\n        /* \"contracts/Stakable.sol\":6864:6920  user_stake.amount *... */\n      tag_242\n      swap2\n      swap1\n      tag_243\n      jump\t// in\n    tag_242:\n        /* \"contracts/Stakable.sol\":6864:6982  user_stake.amount *... */\n      tag_244\n      swap2\n      swap1\n      tag_243\n      jump\t// in\n    tag_244:\n        /* \"contracts/Stakable.sol\":6863:6990  (user_stake.amount *... */\n      tag_245\n      swap2\n      swap1\n      tag_209\n      jump\t// in\n    tag_245:\n        /* \"contracts/Stakable.sol\":6844:6990  return... */\n      swap1\n      pop\n        /* \"contracts/Stakable.sol\":6560:6997  function _calculateStakeReward(Stake memory user_stake)... */\n    tag_238:\n      swap2\n      swap1\n      pop\n      jump\t// out\n        /* \"@openzeppelin/contracts/utils/math/SafeMath.sol\":3451:3547  function mul(uint256 a, uint256 b) internal pure returns (uint256) {... */\n    tag_130:\n        /* \"@openzeppelin/contracts/utils/math/SafeMath.sol\":3509:3516  uint256 */\n      0x00\n        /* \"@openzeppelin/contracts/utils/math/SafeMath.sol\":3539:3540  b */\n      dup2\n        /* \"@openzeppelin/contracts/utils/math/SafeMath.sol\":3535:3536  a */\n      dup4\n        /* \"@openzeppelin/contracts/utils/math/SafeMath.sol\":3535:3540  a * b */\n      tag_247\n      swap2\n      swap1\n      tag_243\n      jump\t// in\n    tag_247:\n        /* \"@openzeppelin/contracts/utils/math/SafeMath.sol\":3528:3540  return a * b */\n      swap1\n      pop\n        /* \"@openzeppelin/contracts/utils/math/SafeMath.sol\":3451:3547  function mul(uint256 a, uint256 b) internal pure returns (uint256) {... */\n      swap3\n      swap2\n      pop\n      pop\n      jump\t// out\n        /* \"@openzeppelin/contracts/utils/math/SafeMath.sol\":3836:3932  function div(uint256 a, uint256 b) internal pure returns (uint256) {... */\n    tag_131:\n        /* \"@openzeppelin/contracts/utils/math/SafeMath.sol\":3894:3901  uint256 */\n      0x00\n        /* \"@openzeppelin/contracts/utils/math/SafeMath.sol\":3924:3925  b */\n      dup2\n        /* \"@openzeppelin/contracts/utils/math/SafeMath.sol\":3920:3921  a */\n      dup4\n        /* \"@openzeppelin/contracts/utils/math/SafeMath.sol\":3920:3925  a / b */\n      tag_249\n      swap2\n      swap1\n      tag_209\n      jump\t// in\n    tag_249:\n        /* \"@openzeppelin/contracts/utils/math/SafeMath.sol\":3913:3925  return a / b */\n      swap1\n      pop\n        /* \"@openzeppelin/contracts/utils/math/SafeMath.sol\":3836:3932  function div(uint256 a, uint256 b) internal pure returns (uint256) {... */\n      swap3\n      swap2\n      pop\n      pop\n      jump\t// out\n        /* \"contracts/Stakable.sol\":10254:10386  function _calculateWeek(uint256 input) internal view returns (uint256) {... */\n    tag_137:\n        /* \"contracts/Stakable.sol\":10316:10323  uint256 */\n      0x00\n        /* \"contracts/Stakable.sol\":10342:10379  (block.timestamp - input).div(7 days) */\n      tag_251\n        /* \"contracts/Stakable.sol\":10372:10378  7 days */\n      0x093a80\n        /* \"contracts/Stakable.sol\":10361:10366  input */\n      dup4\n        /* \"contracts/Stakable.sol\":10343:10358  block.timestamp */\n      timestamp\n        /* \"contracts/Stakable.sol\":10343:10366  block.timestamp - input */\n      tag_252\n      swap2\n      swap1\n      tag_120\n      jump\t// in\n    tag_252:\n        /* \"contracts/Stakable.sol\":10342:10371  (block.timestamp - input).div */\n      tag_131\n      swap1\n        /* \"contracts/Stakable.sol\":10342:10379  (block.timestamp - input).div(7 days) */\n      swap2\n      swap1\n      0xffffffff\n      and\n      jump\t// in\n    tag_251:\n        /* \"contracts/Stakable.sol\":10335:10379  return (block.timestamp - input).div(7 days) */\n      swap1\n      pop\n        /* \"contracts/Stakable.sol\":10254:10386  function _calculateWeek(uint256 input) internal view returns (uint256) {... */\n      swap2\n      swap1\n      pop\n      jump\t// out\n        /* \"contracts/Stakable.sol\":10392:10571  function _calculateAirdrop(uint256 stakeAmount)... */\n    tag_140:\n        /* \"contracts/Stakable.sol\":10487:10494  uint256 */\n      0x00\n        /* \"contracts/Stakable.sol\":10556:10564  52 weeks */\n      0x01dfe200\n        /* \"contracts/Stakable.sol\":10548:10552  1000 */\n      0x03e8\n        /* \"contracts/Stakable.sol\":10533:10544  airdropRate */\n      sload(0x02)\n        /* \"contracts/Stakable.sol\":10519:10530  stakeAmount */\n      dup5\n        /* \"contracts/Stakable.sol\":10519:10544  stakeAmount * airdropRate */\n      tag_254\n      swap2\n      swap1\n      tag_243\n      jump\t// in\n    tag_254:\n        /* \"contracts/Stakable.sol\":10518:10552  (stakeAmount * airdropRate) / 1000 */\n      tag_255\n      swap2\n      swap1\n      tag_209\n      jump\t// in\n    tag_255:\n        /* \"contracts/Stakable.sol\":10517:10564  ((stakeAmount * airdropRate) / 1000) / 52 weeks */\n      tag_256\n      swap2\n      swap1\n      tag_209\n      jump\t// in\n    tag_256:\n        /* \"contracts/Stakable.sol\":10510:10564  return ((stakeAmount * airdropRate) / 1000) / 52 weeks */\n      swap1\n      pop\n        /* \"contracts/Stakable.sol\":10392:10571  function _calculateAirdrop(uint256 stakeAmount)... */\n      swap2\n      swap1\n      pop\n      jump\t// out\n        /* \"contracts/Stakable.sol\":3449:3641  function isOwner() internal view {... */\n    tag_144:\n        /* \"contracts/Stakable.sol\":3570:3576  _owner */\n      0x0a\n      0x00\n      swap1\n      sload\n      swap1\n      0x0100\n      exp\n      swap1\n      div\n      0xffffffffffffffffffffffffffffffffffffffff\n      and\n        /* \"contracts/Stakable.sol\":3556:3576  msg.sender != _owner */\n      0xffffffffffffffffffffffffffffffffffffffff\n      and\n        /* \"contracts/Stakable.sol\":3556:3566  msg.sender */\n      caller\n        /* \"contracts/Stakable.sol\":3556:3576  msg.sender != _owner */\n      0xffffffffffffffffffffffffffffffffffffffff\n      and\n      eq\n        /* \"contracts/Stakable.sol\":3552:3635  if (msg.sender != _owner) {... */\n      tag_258\n      jumpi\n        /* \"contracts/Stakable.sol\":3599:3624  Function__notAuthorized() */\n      mload(0x40)\n      0x2b4cf15200000000000000000000000000000000000000000000000000000000\n      dup2\n      mstore\n      0x04\n      add\n      mload(0x40)\n      dup1\n      swap2\n      sub\n      swap1\n      revert\n        /* \"contracts/Stakable.sol\":3552:3635  if (msg.sender != _owner) {... */\n    tag_258:\n        /* \"contracts/Stakable.sol\":3449:3641  function isOwner() internal view {... */\n      jump\t// out\n        /* \"contracts/Stakable.sol\":3187:3379  function isTalax() internal view {... */\n    tag_151:\n        /* \"contracts/Stakable.sol\":3308:3314  _talax */\n      0x09\n      0x00\n      swap1\n      sload\n      swap1\n      0x0100\n      exp\n      swap1\n      div\n      0xffffffffffffffffffffffffffffffffffffffff\n      and\n        /* \"contracts/Stakable.sol\":3294:3314  msg.sender != _talax */\n      0xffffffffffffffffffffffffffffffffffffffff\n      and\n        /* \"contracts/Stakable.sol\":3294:3304  msg.sender */\n      caller\n        /* \"contracts/Stakable.sol\":3294:3314  msg.sender != _talax */\n      0xffffffffffffffffffffffffffffffffffffffff\n      and\n      eq\n        /* \"contracts/Stakable.sol\":3290:3373  if (msg.sender != _talax) {... */\n      tag_260\n      jumpi\n        /* \"contracts/Stakable.sol\":3337:3362  Function__notAuthorized() */\n      mload(0x40)\n      0x2b4cf15200000000000000000000000000000000000000000000000000000000\n      dup2\n      mstore\n      0x04\n      add\n      mload(0x40)\n      dup1\n      swap2\n      sub\n      swap1\n      revert\n        /* \"contracts/Stakable.sol\":3290:3373  if (msg.sender != _talax) {... */\n    tag_260:\n        /* \"contracts/Stakable.sol\":3187:3379  function isTalax() internal view {... */\n      jump\t// out\n        /* \"contracts/Stakable.sol\":7003:7524  function _calculateStakingWithPenalty(uint256 amount, uint256 reward)... */\n    tag_202:\n        /* \"contracts/Stakable.sol\":7120:7127  uint256 */\n      0x00\n        /* \"contracts/Stakable.sol\":7129:7136  uint256 */\n      dup1\n        /* \"contracts/Stakable.sol\":7166:7167  0 */\n      0x00\n        /* \"contracts/Stakable.sol\":7156:7162  amount */\n      dup5\n        /* \"contracts/Stakable.sol\":7156:7167  amount == 0 */\n      eq\n        /* \"contracts/Stakable.sol\":7152:7207  if (amount == 0) {... */\n      iszero\n      tag_262\n      jumpi\n        /* \"contracts/Stakable.sol\":7191:7192  0 */\n      0x00\n        /* \"contracts/Stakable.sol\":7194:7195  0 */\n      dup1\n        /* \"contracts/Stakable.sol\":7183:7196  return (0, 0) */\n      swap2\n      pop\n      swap2\n      pop\n      jump(tag_261)\n        /* \"contracts/Stakable.sol\":7152:7207  if (amount == 0) {... */\n    tag_262:\n        /* \"contracts/Stakable.sol\":7237:7365  SafeMath.sub(... */\n      tag_263\n        /* \"contracts/Stakable.sol\":7267:7273  amount */\n      dup5\n        /* \"contracts/Stakable.sol\":7291:7351  SafeMath.div(SafeMath.mul(amount, stakingPenaltyRate), 1000) */\n      tag_264\n        /* \"contracts/Stakable.sol\":7304:7344  SafeMath.mul(amount, stakingPenaltyRate) */\n      tag_265\n        /* \"contracts/Stakable.sol\":7317:7323  amount */\n      dup8\n        /* \"contracts/Stakable.sol\":7325:7343  stakingPenaltyRate */\n      sload(0x01)\n        /* \"contracts/Stakable.sol\":7304:7316  SafeMath.mul */\n      tag_130\n        /* \"contracts/Stakable.sol\":7304:7344  SafeMath.mul(amount, stakingPenaltyRate) */\n      jump\t// in\n    tag_265:\n        /* \"contracts/Stakable.sol\":7346:7350  1000 */\n      0x03e8\n        /* \"contracts/Stakable.sol\":7291:7303  SafeMath.div */\n      tag_131\n        /* \"contracts/Stakable.sol\":7291:7351  SafeMath.div(SafeMath.mul(amount, stakingPenaltyRate), 1000) */\n      jump\t// in\n    tag_264:\n        /* \"contracts/Stakable.sol\":7237:7249  SafeMath.sub */\n      tag_266\n        /* \"contracts/Stakable.sol\":7237:7365  SafeMath.sub(... */\n      jump\t// in\n    tag_263:\n        /* \"contracts/Stakable.sol\":7379:7507  SafeMath.sub(... */\n      tag_267\n        /* \"contracts/Stakable.sol\":7409:7415  reward */\n      dup5\n        /* \"contracts/Stakable.sol\":7433:7493  SafeMath.div(SafeMath.mul(reward, stakingPenaltyRate), 1000) */\n      tag_268\n        /* \"contracts/Stakable.sol\":7446:7486  SafeMath.mul(reward, stakingPenaltyRate) */\n      tag_269\n        /* \"contracts/Stakable.sol\":7459:7465  reward */\n      dup8\n        /* \"contracts/Stakable.sol\":7467:7485  stakingPenaltyRate */\n      sload(0x01)\n        /* \"contracts/Stakable.sol\":7446:7458  SafeMath.mul */\n      tag_130\n        /* \"contracts/Stakable.sol\":7446:7486  SafeMath.mul(reward, stakingPenaltyRate) */\n      jump\t// in\n    tag_269:\n        /* \"contracts/Stakable.sol\":7488:7492  1000 */\n      0x03e8\n        /* \"contracts/Stakable.sol\":7433:7445  SafeMath.div */\n      tag_131\n        /* \"contracts/Stakable.sol\":7433:7493  SafeMath.div(SafeMath.mul(reward, stakingPenaltyRate), 1000) */\n      jump\t// in\n    tag_268:\n        /* \"contracts/Stakable.sol\":7379:7391  SafeMath.sub */\n      tag_266\n        /* \"contracts/Stakable.sol\":7379:7507  SafeMath.sub(... */\n      jump\t// in\n    tag_267:\n        /* \"contracts/Stakable.sol\":7216:7517  return (... */\n      swap2\n      pop\n      swap2\n      pop\n        /* \"contracts/Stakable.sol\":7003:7524  function _calculateStakingWithPenalty(uint256 amount, uint256 reward)... */\n    tag_261:\n      swap3\n      pop\n      swap3\n      swap1\n      pop\n      jump\t// out\n        /* \"contracts/Stakable.sol\":6205:6554  function _calculateStakingDuration(uint256 since)... */\n    tag_241:\n        /* \"contracts/Stakable.sol\":6302:6309  uint256 */\n      0x00\n        /* \"contracts/Stakable.sol\":6396:6547  SafeMath.div(... */\n      tag_271\n        /* \"contracts/Stakable.sol\":6454:6458  1e24 */\n      0xd3c21bcecceda1000000\n        /* \"contracts/Stakable.sol\":6445:6450  since */\n      dup4\n        /* \"contracts/Stakable.sol\":6427:6442  block.timestamp */\n      timestamp\n        /* \"contracts/Stakable.sol\":6427:6450  block.timestamp - since */\n      tag_272\n      swap2\n      swap1\n      tag_120\n      jump\t// in\n    tag_272:\n        /* \"contracts/Stakable.sol\":6426:6458  (block.timestamp - since) * 1e24 */\n      tag_273\n      swap2\n      swap1\n      tag_243\n      jump\t// in\n    tag_273:\n        /* \"contracts/Stakable.sol\":6476:6484  365 days */\n      0x01e13380\n        /* \"contracts/Stakable.sol\":6396:6547  SafeMath.div(... */\n      mload(0x40)\n      dup1\n      0x40\n      add\n      0x40\n      mstore\n      dup1\n      0x1d\n      dup2\n      mstore\n      0x20\n      add\n      0x4572726f722063616e6e6f74206469766964652074696d657374616d70000000\n      dup2\n      mstore\n      pop\n        /* \"contracts/Stakable.sol\":6396:6408  SafeMath.div */\n      tag_274\n        /* \"contracts/Stakable.sol\":6396:6547  SafeMath.div(... */\n      jump\t// in\n    tag_271:\n        /* \"contracts/Stakable.sol\":6377:6547  return... */\n      swap1\n      pop\n        /* \"contracts/Stakable.sol\":6205:6554  function _calculateStakingDuration(uint256 since)... */\n      swap2\n      swap1\n      pop\n      jump\t// out\n        /* \"@openzeppelin/contracts/utils/math/SafeMath.sol\":3108:3204  function sub(uint256 a, uint256 b) internal pure returns (uint256) {... */\n    tag_266:\n        /* \"@openzeppelin/contracts/utils/math/SafeMath.sol\":3166:3173  uint256 */\n      0x00\n        /* \"@openzeppelin/contracts/utils/math/SafeMath.sol\":3196:3197  b */\n      dup2\n        /* \"@openzeppelin/contracts/utils/math/SafeMath.sol\":3192:3193  a */\n      dup4\n        /* \"@openzeppelin/contracts/utils/math/SafeMath.sol\":3192:3197  a - b */\n      tag_276\n      swap2\n      swap1\n      tag_120\n      jump\t// in\n    tag_276:\n        /* \"@openzeppelin/contracts/utils/math/SafeMath.sol\":3185:3197  return a - b */\n      swap1\n      pop\n        /* \"@openzeppelin/contracts/utils/math/SafeMath.sol\":3108:3204  function sub(uint256 a, uint256 b) internal pure returns (uint256) {... */\n      swap3\n      swap2\n      pop\n      pop\n      jump\t// out\n        /* \"@openzeppelin/contracts/utils/math/SafeMath.sol\":5660:5890  function div(... */\n    tag_274:\n        /* \"@openzeppelin/contracts/utils/math/SafeMath.sol\":5776:5783  uint256 */\n      0x00\n        /* \"@openzeppelin/contracts/utils/math/SafeMath.sol\":5831:5832  0 */\n      dup1\n        /* \"@openzeppelin/contracts/utils/math/SafeMath.sol\":5827:5828  b */\n      dup4\n        /* \"@openzeppelin/contracts/utils/math/SafeMath.sol\":5827:5832  b > 0 */\n      gt\n        /* \"@openzeppelin/contracts/utils/math/SafeMath.sol\":5834:5846  errorMessage */\n      dup3\n        /* \"@openzeppelin/contracts/utils/math/SafeMath.sol\":5819:5847  require(b > 0, errorMessage) */\n      swap1\n      tag_278\n      jumpi\n      mload(0x40)\n      0x08c379a000000000000000000000000000000000000000000000000000000000\n      dup2\n      mstore\n      0x04\n      add\n      tag_279\n      swap2\n      swap1\n      tag_280\n      jump\t// in\n    tag_279:\n      mload(0x40)\n      dup1\n      swap2\n      sub\n      swap1\n      revert\n    tag_278:\n      pop\n        /* \"@openzeppelin/contracts/utils/math/SafeMath.sol\":5872:5873  b */\n      dup3\n        /* \"@openzeppelin/contracts/utils/math/SafeMath.sol\":5868:5869  a */\n      dup5\n        /* \"@openzeppelin/contracts/utils/math/SafeMath.sol\":5868:5873  a / b */\n      dup2\n      tag_281\n      jumpi\n      tag_282\n      tag_283\n      jump\t// in\n    tag_282:\n    tag_281:\n      div\n        /* \"@openzeppelin/contracts/utils/math/SafeMath.sol\":5861:5873  return a / b */\n      swap1\n      pop\n        /* \"@openzeppelin/contracts/utils/math/SafeMath.sol\":5660:5890  function div(... */\n      swap4\n      swap3\n      pop\n      pop\n      pop\n      jump\t// out\n    tag_122:\n      mload(0x40)\n      dup1\n      0x60\n      add\n      0x40\n      mstore\n      dup1\n      0x00\n      dup2\n      mstore\n      0x20\n      add\n      0x00\n      dup2\n      mstore\n      0x20\n      add\n      tag_284\n      tag_285\n      jump\t// in\n    tag_284:\n      dup2\n      mstore\n      pop\n      swap1\n      jump\t// out\n    tag_285:\n      mload(0x40)\n      dup1\n      0xe0\n      add\n      0x40\n      mstore\n      dup1\n      0x00\n      dup2\n      mstore\n      0x20\n      add\n      0x00\n      dup2\n      mstore\n      0x20\n      add\n      0x00\n      dup2\n      mstore\n      0x20\n      add\n      0x00\n      dup2\n      mstore\n      0x20\n      add\n      0x00\n      dup2\n      mstore\n      0x20\n      add\n      0x00\n      dup2\n      mstore\n      0x20\n      add\n      0x00\n      dup2\n      mstore\n      pop\n      swap1\n      jump\t// out\n        /* \"#utility.yul\":7:84   */\n    tag_286:\n        /* \"#utility.yul\":44:51   */\n      0x00\n        /* \"#utility.yul\":73:78   */\n      dup2\n        /* \"#utility.yul\":62:78   */\n      swap1\n      pop\n        /* \"#utility.yul\":7:84   */\n      swap2\n      swap1\n      pop\n      jump\t// out\n        /* \"#utility.yul\":90:198   */\n    tag_287:\n        /* \"#utility.yul\":167:191   */\n      tag_314\n        /* \"#utility.yul\":185:190   */\n      dup2\n        /* \"#utility.yul\":167:191   */\n      tag_286\n      jump\t// in\n    tag_314:\n        /* \"#utility.yul\":162:165   */\n      dup3\n        /* \"#utility.yul\":155:192   */\n      mstore\n        /* \"#utility.yul\":90:198   */\n      pop\n      pop\n      jump\t// out\n        /* \"#utility.yul\":258:1662   */\n    tag_288:\n        /* \"#utility.yul\":389:393   */\n      0xe0\n        /* \"#utility.yul\":384:387   */\n      dup3\n        /* \"#utility.yul\":380:394   */\n      add\n        /* \"#utility.yul\":478:482   */\n      0x00\n        /* \"#utility.yul\":471:476   */\n      dup3\n        /* \"#utility.yul\":467:483   */\n      add\n        /* \"#utility.yul\":461:484   */\n      mload\n        /* \"#utility.yul\":497:560   */\n      tag_316\n        /* \"#utility.yul\":554:558   */\n      0x00\n        /* \"#utility.yul\":549:552   */\n      dup6\n        /* \"#utility.yul\":545:559   */\n      add\n        /* \"#utility.yul\":531:543   */\n      dup3\n        /* \"#utility.yul\":497:560   */\n      tag_287\n      jump\t// in\n    tag_316:\n        /* \"#utility.yul\":404:570   */\n      pop\n        /* \"#utility.yul\":653:657   */\n      0x20\n        /* \"#utility.yul\":646:651   */\n      dup3\n        /* \"#utility.yul\":642:658   */\n      add\n        /* \"#utility.yul\":636:659   */\n      mload\n        /* \"#utility.yul\":672:735   */\n      tag_317\n        /* \"#utility.yul\":729:733   */\n      0x20\n        /* \"#utility.yul\":724:727   */\n      dup6\n        /* \"#utility.yul\":720:734   */\n      add\n        /* \"#utility.yul\":706:718   */\n      dup3\n        /* \"#utility.yul\":672:735   */\n      tag_287\n      jump\t// in\n    tag_317:\n        /* \"#utility.yul\":580:745   */\n      pop\n        /* \"#utility.yul\":832:836   */\n      0x40\n        /* \"#utility.yul\":825:830   */\n      dup3\n        /* \"#utility.yul\":821:837   */\n      add\n        /* \"#utility.yul\":815:838   */\n      mload\n        /* \"#utility.yul\":851:914   */\n      tag_318\n        /* \"#utility.yul\":908:912   */\n      0x40\n        /* \"#utility.yul\":903:906   */\n      dup6\n        /* \"#utility.yul\":899:913   */\n      add\n        /* \"#utility.yul\":885:897   */\n      dup3\n        /* \"#utility.yul\":851:914   */\n      tag_287\n      jump\t// in\n    tag_318:\n        /* \"#utility.yul\":755:924   */\n      pop\n        /* \"#utility.yul\":1013:1017   */\n      0x60\n        /* \"#utility.yul\":1006:1011   */\n      dup3\n        /* \"#utility.yul\":1002:1018   */\n      add\n        /* \"#utility.yul\":996:1019   */\n      mload\n        /* \"#utility.yul\":1032:1095   */\n      tag_319\n        /* \"#utility.yul\":1089:1093   */\n      0x60\n        /* \"#utility.yul\":1084:1087   */\n      dup6\n        /* \"#utility.yul\":1080:1094   */\n      add\n        /* \"#utility.yul\":1066:1078   */\n      dup3\n        /* \"#utility.yul\":1032:1095   */\n      tag_287\n      jump\t// in\n    tag_319:\n        /* \"#utility.yul\":934:1105   */\n      pop\n        /* \"#utility.yul\":1192:1196   */\n      0x80\n        /* \"#utility.yul\":1185:1190   */\n      dup3\n        /* \"#utility.yul\":1181:1197   */\n      add\n        /* \"#utility.yul\":1175:1198   */\n      mload\n        /* \"#utility.yul\":1211:1274   */\n      tag_320\n        /* \"#utility.yul\":1268:1272   */\n      0x80\n        /* \"#utility.yul\":1263:1266   */\n      dup6\n        /* \"#utility.yul\":1259:1273   */\n      add\n        /* \"#utility.yul\":1245:1257   */\n      dup3\n        /* \"#utility.yul\":1211:1274   */\n      tag_287\n      jump\t// in\n    tag_320:\n        /* \"#utility.yul\":1115:1284   */\n      pop\n        /* \"#utility.yul\":1378:1382   */\n      0xa0\n        /* \"#utility.yul\":1371:1376   */\n      dup3\n        /* \"#utility.yul\":1367:1383   */\n      add\n        /* \"#utility.yul\":1361:1384   */\n      mload\n        /* \"#utility.yul\":1397:1460   */\n      tag_321\n        /* \"#utility.yul\":1454:1458   */\n      0xa0\n        /* \"#utility.yul\":1449:1452   */\n      dup6\n        /* \"#utility.yul\":1445:1459   */\n      add\n        /* \"#utility.yul\":1431:1443   */\n      dup3\n        /* \"#utility.yul\":1397:1460   */\n      tag_287\n      jump\t// in\n    tag_321:\n        /* \"#utility.yul\":1294:1470   */\n      pop\n        /* \"#utility.yul\":1563:1567   */\n      0xc0\n        /* \"#utility.yul\":1556:1561   */\n      dup3\n        /* \"#utility.yul\":1552:1568   */\n      add\n        /* \"#utility.yul\":1546:1569   */\n      mload\n        /* \"#utility.yul\":1582:1645   */\n      tag_322\n        /* \"#utility.yul\":1639:1643   */\n      0xc0\n        /* \"#utility.yul\":1634:1637   */\n      dup6\n        /* \"#utility.yul\":1630:1644   */\n      add\n        /* \"#utility.yul\":1616:1628   */\n      dup3\n        /* \"#utility.yul\":1582:1645   */\n      tag_287\n      jump\t// in\n    tag_322:\n        /* \"#utility.yul\":1480:1655   */\n      pop\n        /* \"#utility.yul\":358:1662   */\n      pop\n        /* \"#utility.yul\":258:1662   */\n      pop\n      pop\n      jump\t// out\n        /* \"#utility.yul\":1740:2491   */\n    tag_289:\n        /* \"#utility.yul\":1899:1905   */\n      0x0120\n        /* \"#utility.yul\":1894:1897   */\n      dup3\n        /* \"#utility.yul\":1890:1906   */\n      add\n        /* \"#utility.yul\":1996:2000   */\n      0x00\n        /* \"#utility.yul\":1989:1994   */\n      dup3\n        /* \"#utility.yul\":1985:2001   */\n      add\n        /* \"#utility.yul\":1979:2002   */\n      mload\n        /* \"#utility.yul\":2015:2078   */\n      tag_324\n        /* \"#utility.yul\":2072:2076   */\n      0x00\n        /* \"#utility.yul\":2067:2070   */\n      dup6\n        /* \"#utility.yul\":2063:2077   */\n      add\n        /* \"#utility.yul\":2049:2061   */\n      dup3\n        /* \"#utility.yul\":2015:2078   */\n      tag_287\n      jump\t// in\n    tag_324:\n        /* \"#utility.yul\":1916:2088   */\n      pop\n        /* \"#utility.yul\":2173:2177   */\n      0x20\n        /* \"#utility.yul\":2166:2171   */\n      dup3\n        /* \"#utility.yul\":2162:2178   */\n      add\n        /* \"#utility.yul\":2156:2179   */\n      mload\n        /* \"#utility.yul\":2192:2255   */\n      tag_325\n        /* \"#utility.yul\":2249:2253   */\n      0x20\n        /* \"#utility.yul\":2244:2247   */\n      dup6\n        /* \"#utility.yul\":2240:2254   */\n      add\n        /* \"#utility.yul\":2226:2238   */\n      dup3\n        /* \"#utility.yul\":2192:2255   */\n      tag_287\n      jump\t// in\n    tag_325:\n        /* \"#utility.yul\":2098:2265   */\n      pop\n        /* \"#utility.yul\":2348:2352   */\n      0x40\n        /* \"#utility.yul\":2341:2346   */\n      dup3\n        /* \"#utility.yul\":2337:2353   */\n      add\n        /* \"#utility.yul\":2331:2354   */\n      mload\n        /* \"#utility.yul\":2367:2474   */\n      tag_326\n        /* \"#utility.yul\":2468:2472   */\n      0x40\n        /* \"#utility.yul\":2463:2466   */\n      dup6\n        /* \"#utility.yul\":2459:2473   */\n      add\n        /* \"#utility.yul\":2445:2457   */\n      dup3\n        /* \"#utility.yul\":2367:2474   */\n      tag_288\n      jump\t// in\n    tag_326:\n        /* \"#utility.yul\":2275:2484   */\n      pop\n        /* \"#utility.yul\":1868:2491   */\n      pop\n        /* \"#utility.yul\":1740:2491   */\n      pop\n      pop\n      jump\t// out\n        /* \"#utility.yul\":2497:2844   */\n    tag_34:\n        /* \"#utility.yul\":2652:2656   */\n      0x00\n        /* \"#utility.yul\":2690:2693   */\n      0x0120\n        /* \"#utility.yul\":2679:2688   */\n      dup3\n        /* \"#utility.yul\":2675:2694   */\n      add\n        /* \"#utility.yul\":2667:2694   */\n      swap1\n      pop\n        /* \"#utility.yul\":2704:2837   */\n      tag_328\n        /* \"#utility.yul\":2834:2835   */\n      0x00\n        /* \"#utility.yul\":2823:2832   */\n      dup4\n        /* \"#utility.yul\":2819:2836   */\n      add\n        /* \"#utility.yul\":2810:2816   */\n      dup5\n        /* \"#utility.yul\":2704:2837   */\n      tag_289\n      jump\t// in\n    tag_328:\n        /* \"#utility.yul\":2497:2844   */\n      swap3\n      swap2\n      pop\n      pop\n      jump\t// out\n        /* \"#utility.yul\":2931:3048   */\n    tag_291:\n        /* \"#utility.yul\":3040:3041   */\n      0x00\n        /* \"#utility.yul\":3037:3038   */\n      dup1\n        /* \"#utility.yul\":3030:3042   */\n      revert\n        /* \"#utility.yul\":3177:3303   */\n    tag_293:\n        /* \"#utility.yul\":3214:3221   */\n      0x00\n        /* \"#utility.yul\":3254:3296   */\n      0xffffffffffffffffffffffffffffffffffffffff\n        /* \"#utility.yul\":3247:3252   */\n      dup3\n        /* \"#utility.yul\":3243:3297   */\n      and\n        /* \"#utility.yul\":3232:3297   */\n      swap1\n      pop\n        /* \"#utility.yul\":3177:3303   */\n      swap2\n      swap1\n      pop\n      jump\t// out\n        /* \"#utility.yul\":3309:3405   */\n    tag_294:\n        /* \"#utility.yul\":3346:3353   */\n      0x00\n        /* \"#utility.yul\":3375:3399   */\n      tag_334\n        /* \"#utility.yul\":3393:3398   */\n      dup3\n        /* \"#utility.yul\":3375:3399   */\n      tag_293\n      jump\t// in\n    tag_334:\n        /* \"#utility.yul\":3364:3399   */\n      swap1\n      pop\n        /* \"#utility.yul\":3309:3405   */\n      swap2\n      swap1\n      pop\n      jump\t// out\n        /* \"#utility.yul\":3411:3533   */\n    tag_295:\n        /* \"#utility.yul\":3484:3508   */\n      tag_336\n        /* \"#utility.yul\":3502:3507   */\n      dup2\n        /* \"#utility.yul\":3484:3508   */\n      tag_294\n      jump\t// in\n    tag_336:\n        /* \"#utility.yul\":3477:3482   */\n      dup2\n        /* \"#utility.yul\":3474:3509   */\n      eq\n        /* \"#utility.yul\":3464:3527   */\n      tag_337\n      jumpi\n        /* \"#utility.yul\":3523:3524   */\n      0x00\n        /* \"#utility.yul\":3520:3521   */\n      dup1\n        /* \"#utility.yul\":3513:3525   */\n      revert\n        /* \"#utility.yul\":3464:3527   */\n    tag_337:\n        /* \"#utility.yul\":3411:3533   */\n      pop\n      jump\t// out\n        /* \"#utility.yul\":3539:3678   */\n    tag_296:\n        /* \"#utility.yul\":3585:3590   */\n      0x00\n        /* \"#utility.yul\":3623:3629   */\n      dup2\n        /* \"#utility.yul\":3610:3630   */\n      calldataload\n        /* \"#utility.yul\":3601:3630   */\n      swap1\n      pop\n        /* \"#utility.yul\":3639:3672   */\n      tag_339\n        /* \"#utility.yul\":3666:3671   */\n      dup2\n        /* \"#utility.yul\":3639:3672   */\n      tag_295\n      jump\t// in\n    tag_339:\n        /* \"#utility.yul\":3539:3678   */\n      swap3\n      swap2\n      pop\n      pop\n      jump\t// out\n        /* \"#utility.yul\":3684:4013   */\n    tag_37:\n        /* \"#utility.yul\":3743:3749   */\n      0x00\n        /* \"#utility.yul\":3792:3794   */\n      0x20\n        /* \"#utility.yul\":3780:3789   */\n      dup3\n        /* \"#utility.yul\":3771:3778   */\n      dup5\n        /* \"#utility.yul\":3767:3790   */\n      sub\n        /* \"#utility.yul\":3763:3795   */\n      slt\n        /* \"#utility.yul\":3760:3879   */\n      iszero\n      tag_341\n      jumpi\n        /* \"#utility.yul\":3798:3877   */\n      tag_342\n      tag_291\n      jump\t// in\n    tag_342:\n        /* \"#utility.yul\":3760:3879   */\n    tag_341:\n        /* \"#utility.yul\":3918:3919   */\n      0x00\n        /* \"#utility.yul\":3943:3996   */\n      tag_343\n        /* \"#utility.yul\":3988:3995   */\n      dup5\n        /* \"#utility.yul\":3979:3985   */\n      dup3\n        /* \"#utility.yul\":3968:3977   */\n      dup6\n        /* \"#utility.yul\":3964:3986   */\n      add\n        /* \"#utility.yul\":3943:3996   */\n      tag_296\n      jump\t// in\n    tag_343:\n        /* \"#utility.yul\":3933:3996   */\n      swap2\n      pop\n        /* \"#utility.yul\":3889:4006   */\n      pop\n        /* \"#utility.yul\":3684:4013   */\n      swap3\n      swap2\n      pop\n      pop\n      jump\t// out\n        /* \"#utility.yul\":4019:4109   */\n    tag_297:\n        /* \"#utility.yul\":4053:4060   */\n      0x00\n        /* \"#utility.yul\":4096:4101   */\n      dup2\n        /* \"#utility.yul\":4089:4102   */\n      iszero\n        /* \"#utility.yul\":4082:4103   */\n      iszero\n        /* \"#utility.yul\":4071:4103   */\n      swap1\n      pop\n        /* \"#utility.yul\":4019:4109   */\n      swap2\n      swap1\n      pop\n      jump\t// out\n        /* \"#utility.yul\":4115:4224   */\n    tag_298:\n        /* \"#utility.yul\":4196:4217   */\n      tag_346\n        /* \"#utility.yul\":4211:4216   */\n      dup2\n        /* \"#utility.yul\":4196:4217   */\n      tag_297\n      jump\t// in\n    tag_346:\n        /* \"#utility.yul\":4191:4194   */\n      dup3\n        /* \"#utility.yul\":4184:4218   */\n      mstore\n        /* \"#utility.yul\":4115:4224   */\n      pop\n      pop\n      jump\t// out\n        /* \"#utility.yul\":4230:4538   */\n    tag_45:\n        /* \"#utility.yul\":4339:4343   */\n      0x00\n        /* \"#utility.yul\":4377:4379   */\n      0x40\n        /* \"#utility.yul\":4366:4375   */\n      dup3\n        /* \"#utility.yul\":4362:4380   */\n      add\n        /* \"#utility.yul\":4354:4380   */\n      swap1\n      pop\n        /* \"#utility.yul\":4390:4455   */\n      tag_348\n        /* \"#utility.yul\":4452:4453   */\n      0x00\n        /* \"#utility.yul\":4441:4450   */\n      dup4\n        /* \"#utility.yul\":4437:4454   */\n      add\n        /* \"#utility.yul\":4428:4434   */\n      dup6\n        /* \"#utility.yul\":4390:4455   */\n      tag_298\n      jump\t// in\n    tag_348:\n        /* \"#utility.yul\":4465:4531   */\n      tag_349\n        /* \"#utility.yul\":4527:4529   */\n      0x20\n        /* \"#utility.yul\":4516:4525   */\n      dup4\n        /* \"#utility.yul\":4512:4530   */\n      add\n        /* \"#utility.yul\":4503:4509   */\n      dup5\n        /* \"#utility.yul\":4465:4531   */\n      tag_298\n      jump\t// in\n    tag_349:\n        /* \"#utility.yul\":4230:4538   */\n      swap4\n      swap3\n      pop\n      pop\n      pop\n      jump\t// out\n        /* \"#utility.yul\":4544:4662   */\n    tag_299:\n        /* \"#utility.yul\":4631:4655   */\n      tag_351\n        /* \"#utility.yul\":4649:4654   */\n      dup2\n        /* \"#utility.yul\":4631:4655   */\n      tag_294\n      jump\t// in\n    tag_351:\n        /* \"#utility.yul\":4626:4629   */\n      dup3\n        /* \"#utility.yul\":4619:4656   */\n      mstore\n        /* \"#utility.yul\":4544:4662   */\n      pop\n      pop\n      jump\t// out\n        /* \"#utility.yul\":4668:4890   */\n    tag_49:\n        /* \"#utility.yul\":4761:4765   */\n      0x00\n        /* \"#utility.yul\":4799:4801   */\n      0x20\n        /* \"#utility.yul\":4788:4797   */\n      dup3\n        /* \"#utility.yul\":4784:4802   */\n      add\n        /* \"#utility.yul\":4776:4802   */\n      swap1\n      pop\n        /* \"#utility.yul\":4812:4883   */\n      tag_353\n        /* \"#utility.yul\":4880:4881   */\n      0x00\n        /* \"#utility.yul\":4869:4878   */\n      dup4\n        /* \"#utility.yul\":4865:4882   */\n      add\n        /* \"#utility.yul\":4856:4862   */\n      dup5\n        /* \"#utility.yul\":4812:4883   */\n      tag_299\n      jump\t// in\n    tag_353:\n        /* \"#utility.yul\":4668:4890   */\n      swap3\n      swap2\n      pop\n      pop\n      jump\t// out\n        /* \"#utility.yul\":4896:5014   */\n    tag_300:\n        /* \"#utility.yul\":4983:5007   */\n      tag_355\n        /* \"#utility.yul\":5001:5006   */\n      dup2\n        /* \"#utility.yul\":4983:5007   */\n      tag_286\n      jump\t// in\n    tag_355:\n        /* \"#utility.yul\":4978:4981   */\n      dup3\n        /* \"#utility.yul\":4971:5008   */\n      mstore\n        /* \"#utility.yul\":4896:5014   */\n      pop\n      pop\n      jump\t// out\n        /* \"#utility.yul\":5020:5242   */\n    tag_53:\n        /* \"#utility.yul\":5113:5117   */\n      0x00\n        /* \"#utility.yul\":5151:5153   */\n      0x20\n        /* \"#utility.yul\":5140:5149   */\n      dup3\n        /* \"#utility.yul\":5136:5154   */\n      add\n        /* \"#utility.yul\":5128:5154   */\n      swap1\n      pop\n        /* \"#utility.yul\":5164:5235   */\n      tag_357\n        /* \"#utility.yul\":5232:5233   */\n      0x00\n        /* \"#utility.yul\":5221:5230   */\n      dup4\n        /* \"#utility.yul\":5217:5234   */\n      add\n        /* \"#utility.yul\":5208:5214   */\n      dup5\n        /* \"#utility.yul\":5164:5235   */\n      tag_300\n      jump\t// in\n    tag_357:\n        /* \"#utility.yul\":5020:5242   */\n      swap3\n      swap2\n      pop\n      pop\n      jump\t// out\n        /* \"#utility.yul\":5248:5458   */\n    tag_63:\n        /* \"#utility.yul\":5335:5339   */\n      0x00\n        /* \"#utility.yul\":5373:5375   */\n      0x20\n        /* \"#utility.yul\":5362:5371   */\n      dup3\n        /* \"#utility.yul\":5358:5376   */\n      add\n        /* \"#utility.yul\":5350:5376   */\n      swap1\n      pop\n        /* \"#utility.yul\":5386:5451   */\n      tag_359\n        /* \"#utility.yul\":5448:5449   */\n      0x00\n        /* \"#utility.yul\":5437:5446   */\n      dup4\n        /* \"#utility.yul\":5433:5450   */\n      add\n        /* \"#utility.yul\":5424:5430   */\n      dup5\n        /* \"#utility.yul\":5386:5451   */\n      tag_298\n      jump\t// in\n    tag_359:\n        /* \"#utility.yul\":5248:5458   */\n      swap3\n      swap2\n      pop\n      pop\n      jump\t// out\n        /* \"#utility.yul\":5464:5586   */\n    tag_301:\n        /* \"#utility.yul\":5537:5561   */\n      tag_361\n        /* \"#utility.yul\":5555:5560   */\n      dup2\n        /* \"#utility.yul\":5537:5561   */\n      tag_286\n      jump\t// in\n    tag_361:\n        /* \"#utility.yul\":5530:5535   */\n      dup2\n        /* \"#utility.yul\":5527:5562   */\n      eq\n        /* \"#utility.yul\":5517:5580   */\n      tag_362\n      jumpi\n        /* \"#utility.yul\":5576:5577   */\n      0x00\n        /* \"#utility.yul\":5573:5574   */\n      dup1\n        /* \"#utility.yul\":5566:5578   */\n      revert\n        /* \"#utility.yul\":5517:5580   */\n    tag_362:\n        /* \"#utility.yul\":5464:5586   */\n      pop\n      jump\t// out\n        /* \"#utility.yul\":5592:5731   */\n    tag_302:\n        /* \"#utility.yul\":5638:5643   */\n      0x00\n        /* \"#utility.yul\":5676:5682   */\n      dup2\n        /* \"#utility.yul\":5663:5683   */\n      calldataload\n        /* \"#utility.yul\":5654:5683   */\n      swap1\n      pop\n        /* \"#utility.yul\":5692:5725   */\n      tag_364\n        /* \"#utility.yul\":5719:5724   */\n      dup2\n        /* \"#utility.yul\":5692:5725   */\n      tag_301\n      jump\t// in\n    tag_364:\n        /* \"#utility.yul\":5592:5731   */\n      swap3\n      swap2\n      pop\n      pop\n      jump\t// out\n        /* \"#utility.yul\":5737:6066   */\n    tag_71:\n        /* \"#utility.yul\":5796:5802   */\n      0x00\n        /* \"#utility.yul\":5845:5847   */\n      0x20\n        /* \"#utility.yul\":5833:5842   */\n      dup3\n        /* \"#utility.yul\":5824:5831   */\n      dup5\n        /* \"#utility.yul\":5820:5843   */\n      sub\n        /* \"#utility.yul\":5816:5848   */\n      slt\n        /* \"#utility.yul\":5813:5932   */\n      iszero\n      tag_366\n      jumpi\n        /* \"#utility.yul\":5851:5930   */\n      tag_367\n      tag_291\n      jump\t// in\n    tag_367:\n        /* \"#utility.yul\":5813:5932   */\n    tag_366:\n        /* \"#utility.yul\":5971:5972   */\n      0x00\n        /* \"#utility.yul\":5996:6049   */\n      tag_368\n        /* \"#utility.yul\":6041:6048   */\n      dup5\n        /* \"#utility.yul\":6032:6038   */\n      dup3\n        /* \"#utility.yul\":6021:6030   */\n      dup6\n        /* \"#utility.yul\":6017:6039   */\n      add\n        /* \"#utility.yul\":5996:6049   */\n      tag_302\n      jump\t// in\n    tag_368:\n        /* \"#utility.yul\":5986:6049   */\n      swap2\n      pop\n        /* \"#utility.yul\":5942:6059   */\n      pop\n        /* \"#utility.yul\":5737:6066   */\n      swap3\n      swap2\n      pop\n      pop\n      jump\t// out\n        /* \"#utility.yul\":6072:6404   */\n    tag_91:\n        /* \"#utility.yul\":6193:6197   */\n      0x00\n        /* \"#utility.yul\":6231:6233   */\n      0x40\n        /* \"#utility.yul\":6220:6229   */\n      dup3\n        /* \"#utility.yul\":6216:6234   */\n      add\n        /* \"#utility.yul\":6208:6234   */\n      swap1\n      pop\n        /* \"#utility.yul\":6244:6315   */\n      tag_370\n        /* \"#utility.yul\":6312:6313   */\n      0x00\n        /* \"#utility.yul\":6301:6310   */\n      dup4\n        /* \"#utility.yul\":6297:6314   */\n      add\n        /* \"#utility.yul\":6288:6294   */\n      dup6\n        /* \"#utility.yul\":6244:6315   */\n      tag_300\n      jump\t// in\n    tag_370:\n        /* \"#utility.yul\":6325:6397   */\n      tag_371\n        /* \"#utility.yul\":6393:6395   */\n      0x20\n        /* \"#utility.yul\":6382:6391   */\n      dup4\n        /* \"#utility.yul\":6378:6396   */\n      add\n        /* \"#utility.yul\":6369:6375   */\n      dup5\n        /* \"#utility.yul\":6325:6397   */\n      tag_300\n      jump\t// in\n    tag_371:\n        /* \"#utility.yul\":6072:6404   */\n      swap4\n      swap3\n      pop\n      pop\n      pop\n      jump\t// out\n        /* \"#utility.yul\":6410:7175   */\n    tag_103:\n        /* \"#utility.yul\":6496:6502   */\n      0x00\n        /* \"#utility.yul\":6504:6510   */\n      dup1\n        /* \"#utility.yul\":6512:6518   */\n      0x00\n        /* \"#utility.yul\":6520:6526   */\n      dup1\n        /* \"#utility.yul\":6569:6572   */\n      0x80\n        /* \"#utility.yul\":6557:6566   */\n      dup6\n        /* \"#utility.yul\":6548:6555   */\n      dup8\n        /* \"#utility.yul\":6544:6567   */\n      sub\n        /* \"#utility.yul\":6540:6573   */\n      slt\n        /* \"#utility.yul\":6537:6657   */\n      iszero\n      tag_373\n      jumpi\n        /* \"#utility.yul\":6576:6655   */\n      tag_374\n      tag_291\n      jump\t// in\n    tag_374:\n        /* \"#utility.yul\":6537:6657   */\n    tag_373:\n        /* \"#utility.yul\":6696:6697   */\n      0x00\n        /* \"#utility.yul\":6721:6774   */\n      tag_375\n        /* \"#utility.yul\":6766:6773   */\n      dup8\n        /* \"#utility.yul\":6757:6763   */\n      dup3\n        /* \"#utility.yul\":6746:6755   */\n      dup9\n        /* \"#utility.yul\":6742:6764   */\n      add\n        /* \"#utility.yul\":6721:6774   */\n      tag_296\n      jump\t// in\n    tag_375:\n        /* \"#utility.yul\":6711:6774   */\n      swap5\n      pop\n        /* \"#utility.yul\":6667:6784   */\n      pop\n        /* \"#utility.yul\":6823:6825   */\n      0x20\n        /* \"#utility.yul\":6849:6902   */\n      tag_376\n        /* \"#utility.yul\":6894:6901   */\n      dup8\n        /* \"#utility.yul\":6885:6891   */\n      dup3\n        /* \"#utility.yul\":6874:6883   */\n      dup9\n        /* \"#utility.yul\":6870:6892   */\n      add\n        /* \"#utility.yul\":6849:6902   */\n      tag_302\n      jump\t// in\n    tag_376:\n        /* \"#utility.yul\":6839:6902   */\n      swap4\n      pop\n        /* \"#utility.yul\":6794:6912   */\n      pop\n        /* \"#utility.yul\":6951:6953   */\n      0x40\n        /* \"#utility.yul\":6977:7030   */\n      tag_377\n        /* \"#utility.yul\":7022:7029   */\n      dup8\n        /* \"#utility.yul\":7013:7019   */\n      dup3\n        /* \"#utility.yul\":7002:7011   */\n      dup9\n        /* \"#utility.yul\":6998:7020   */\n      add\n        /* \"#utility.yul\":6977:7030   */\n      tag_302\n      jump\t// in\n    tag_377:\n        /* \"#utility.yul\":6967:7030   */\n      swap3\n      pop\n        /* \"#utility.yul\":6922:7040   */\n      pop\n        /* \"#utility.yul\":7079:7081   */\n      0x60\n        /* \"#utility.yul\":7105:7158   */\n      tag_378\n        /* \"#utility.yul\":7150:7157   */\n      dup8\n        /* \"#utility.yul\":7141:7147   */\n      dup3\n        /* \"#utility.yul\":7130:7139   */\n      dup9\n        /* \"#utility.yul\":7126:7148   */\n      add\n        /* \"#utility.yul\":7105:7158   */\n      tag_302\n      jump\t// in\n    tag_378:\n        /* \"#utility.yul\":7095:7158   */\n      swap2\n      pop\n        /* \"#utility.yul\":7050:7168   */\n      pop\n        /* \"#utility.yul\":6410:7175   */\n      swap3\n      swap6\n      swap2\n      swap5\n      pop\n      swap3\n      pop\n      jump\t// out\n        /* \"#utility.yul\":7181:7350   */\n    tag_303:\n        /* \"#utility.yul\":7265:7276   */\n      0x00\n        /* \"#utility.yul\":7299:7305   */\n      dup3\n        /* \"#utility.yul\":7294:7297   */\n      dup3\n        /* \"#utility.yul\":7287:7306   */\n      mstore\n        /* \"#utility.yul\":7339:7343   */\n      0x20\n        /* \"#utility.yul\":7334:7337   */\n      dup3\n        /* \"#utility.yul\":7330:7344   */\n      add\n        /* \"#utility.yul\":7315:7344   */\n      swap1\n      pop\n        /* \"#utility.yul\":7181:7350   */\n      swap3\n      swap2\n      pop\n      pop\n      jump\t// out\n        /* \"#utility.yul\":7356:7537   */\n    tag_304:\n        /* \"#utility.yul\":7496:7529   */\n      0x5265656e7472616e637947756172643a207265656e7472616e742063616c6c00\n        /* \"#utility.yul\":7492:7493   */\n      0x00\n        /* \"#utility.yul\":7484:7490   */\n      dup3\n        /* \"#utility.yul\":7480:7494   */\n      add\n        /* \"#utility.yul\":7473:7530   */\n      mstore\n        /* \"#utility.yul\":7356:7537   */\n      pop\n      jump\t// out\n        /* \"#utility.yul\":7543:7909   */\n    tag_305:\n        /* \"#utility.yul\":7685:7688   */\n      0x00\n        /* \"#utility.yul\":7706:7773   */\n      tag_382\n        /* \"#utility.yul\":7770:7772   */\n      0x1f\n        /* \"#utility.yul\":7765:7768   */\n      dup4\n        /* \"#utility.yul\":7706:7773   */\n      tag_303\n      jump\t// in\n    tag_382:\n        /* \"#utility.yul\":7699:7773   */\n      swap2\n      pop\n        /* \"#utility.yul\":7782:7875   */\n      tag_383\n        /* \"#utility.yul\":7871:7874   */\n      dup3\n        /* \"#utility.yul\":7782:7875   */\n      tag_304\n      jump\t// in\n    tag_383:\n        /* \"#utility.yul\":7900:7902   */\n      0x20\n        /* \"#utility.yul\":7895:7898   */\n      dup3\n        /* \"#utility.yul\":7891:7903   */\n      add\n        /* \"#utility.yul\":7884:7903   */\n      swap1\n      pop\n        /* \"#utility.yul\":7543:7909   */\n      swap2\n      swap1\n      pop\n      jump\t// out\n        /* \"#utility.yul\":7915:8334   */\n    tag_110:\n        /* \"#utility.yul\":8081:8085   */\n      0x00\n        /* \"#utility.yul\":8119:8121   */\n      0x20\n        /* \"#utility.yul\":8108:8117   */\n      dup3\n        /* \"#utility.yul\":8104:8122   */\n      add\n        /* \"#utility.yul\":8096:8122   */\n      swap1\n      pop\n        /* \"#utility.yul\":8168:8177   */\n      dup2\n        /* \"#utility.yul\":8162:8166   */\n      dup2\n        /* \"#utility.yul\":8158:8178   */\n      sub\n        /* \"#utility.yul\":8154:8155   */\n      0x00\n        /* \"#utility.yul\":8143:8152   */\n      dup4\n        /* \"#utility.yul\":8139:8156   */\n      add\n        /* \"#utility.yul\":8132:8179   */\n      mstore\n        /* \"#utility.yul\":8196:8327   */\n      tag_385\n        /* \"#utility.yul\":8322:8326   */\n      dup2\n        /* \"#utility.yul\":8196:8327   */\n      tag_305\n      jump\t// in\n    tag_385:\n        /* \"#utility.yul\":8188:8327   */\n      swap1\n      pop\n        /* \"#utility.yul\":7915:8334   */\n      swap2\n      swap1\n      pop\n      jump\t// out\n        /* \"#utility.yul\":8340:8520   */\n    tag_306:\n        /* \"#utility.yul\":8388:8465   */\n      0x4e487b7100000000000000000000000000000000000000000000000000000000\n        /* \"#utility.yul\":8385:8386   */\n      0x00\n        /* \"#utility.yul\":8378:8466   */\n      mstore\n        /* \"#utility.yul\":8485:8489   */\n      0x11\n        /* \"#utility.yul\":8482:8483   */\n      0x04\n        /* \"#utility.yul\":8475:8490   */\n      mstore\n        /* \"#utility.yul\":8509:8513   */\n      0x24\n        /* \"#utility.yul\":8506:8507   */\n      0x00\n        /* \"#utility.yul\":8499:8514   */\n      revert\n        /* \"#utility.yul\":8526:8717   */\n    tag_120:\n        /* \"#utility.yul\":8566:8570   */\n      0x00\n        /* \"#utility.yul\":8586:8606   */\n      tag_388\n        /* \"#utility.yul\":8604:8605   */\n      dup3\n        /* \"#utility.yul\":8586:8606   */\n      tag_286\n      jump\t// in\n    tag_388:\n        /* \"#utility.yul\":8581:8606   */\n      swap2\n      pop\n        /* \"#utility.yul\":8620:8640   */\n      tag_389\n        /* \"#utility.yul\":8638:8639   */\n      dup4\n        /* \"#utility.yul\":8620:8640   */\n      tag_286\n      jump\t// in\n    tag_389:\n        /* \"#utility.yul\":8615:8640   */\n      swap3\n      pop\n        /* \"#utility.yul\":8659:8660   */\n      dup3\n        /* \"#utility.yul\":8656:8657   */\n      dup3\n        /* \"#utility.yul\":8653:8661   */\n      lt\n        /* \"#utility.yul\":8650:8684   */\n      iszero\n      tag_390\n      jumpi\n        /* \"#utility.yul\":8664:8682   */\n      tag_391\n      tag_306\n      jump\t// in\n    tag_391:\n        /* \"#utility.yul\":8650:8684   */\n    tag_390:\n        /* \"#utility.yul\":8709:8710   */\n      dup3\n        /* \"#utility.yul\":8706:8707   */\n      dup3\n        /* \"#utility.yul\":8702:8711   */\n      sub\n        /* \"#utility.yul\":8694:8711   */\n      swap1\n      pop\n        /* \"#utility.yul\":8526:8717   */\n      swap3\n      swap2\n      pop\n      pop\n      jump\t// out\n        /* \"#utility.yul\":8723:9028   */\n    tag_135:\n        /* \"#utility.yul\":8763:8766   */\n      0x00\n        /* \"#utility.yul\":8782:8802   */\n      tag_393\n        /* \"#utility.yul\":8800:8801   */\n      dup3\n        /* \"#utility.yul\":8782:8802   */\n      tag_286\n      jump\t// in\n    tag_393:\n        /* \"#utility.yul\":8777:8802   */\n      swap2\n      pop\n        /* \"#utility.yul\":8816:8836   */\n      tag_394\n        /* \"#utility.yul\":8834:8835   */\n      dup4\n        /* \"#utility.yul\":8816:8836   */\n      tag_286\n      jump\t// in\n    tag_394:\n        /* \"#utility.yul\":8811:8836   */\n      swap3\n      pop\n        /* \"#utility.yul\":8970:8971   */\n      dup3\n        /* \"#utility.yul\":8902:8968   */\n      0xffffffffffffffffffffffffffffffffffffffffffffffffffffffffffffffff\n        /* \"#utility.yul\":8898:8972   */\n      sub\n        /* \"#utility.yul\":8895:8896   */\n      dup3\n        /* \"#utility.yul\":8892:8973   */\n      gt\n        /* \"#utility.yul\":8889:8996   */\n      iszero\n      tag_395\n      jumpi\n        /* \"#utility.yul\":8976:8994   */\n      tag_396\n      tag_306\n      jump\t// in\n    tag_396:\n        /* \"#utility.yul\":8889:8996   */\n    tag_395:\n        /* \"#utility.yul\":9020:9021   */\n      dup3\n        /* \"#utility.yul\":9017:9018   */\n      dup3\n        /* \"#utility.yul\":9013:9022   */\n      add\n        /* \"#utility.yul\":9006:9022   */\n      swap1\n      pop\n        /* \"#utility.yul\":8723:9028   */\n      swap3\n      swap2\n      pop\n      pop\n      jump\t// out\n        /* \"#utility.yul\":9034:9214   */\n    tag_283:\n        /* \"#utility.yul\":9082:9159   */\n      0x4e487b7100000000000000000000000000000000000000000000000000000000\n        /* \"#utility.yul\":9079:9080   */\n      0x00\n        /* \"#utility.yul\":9072:9160   */\n      mstore\n        /* \"#utility.yul\":9179:9183   */\n      0x12\n        /* \"#utility.yul\":9176:9177   */\n      0x04\n        /* \"#utility.yul\":9169:9184   */\n      mstore\n        /* \"#utility.yul\":9203:9207   */\n      0x24\n        /* \"#utility.yul\":9200:9201   */\n      0x00\n        /* \"#utility.yul\":9193:9208   */\n      revert\n        /* \"#utility.yul\":9220:9405   */\n    tag_209:\n        /* \"#utility.yul\":9260:9261   */\n      0x00\n        /* \"#utility.yul\":9277:9297   */\n      tag_399\n        /* \"#utility.yul\":9295:9296   */\n      dup3\n        /* \"#utility.yul\":9277:9297   */\n      tag_286\n      jump\t// in\n    tag_399:\n        /* \"#utility.yul\":9272:9297   */\n      swap2\n      pop\n        /* \"#utility.yul\":9311:9331   */\n      tag_400\n        /* \"#utility.yul\":9329:9330   */\n      dup4\n        /* \"#utility.yul\":9311:9331   */\n      tag_286\n      jump\t// in\n    tag_400:\n        /* \"#utility.yul\":9306:9331   */\n      swap3\n      pop\n        /* \"#utility.yul\":9350:9351   */\n      dup3\n        /* \"#utility.yul\":9340:9375   */\n      tag_401\n      jumpi\n        /* \"#utility.yul\":9355:9373   */\n      tag_402\n      tag_283\n      jump\t// in\n    tag_402:\n        /* \"#utility.yul\":9340:9375   */\n    tag_401:\n        /* \"#utility.yul\":9397:9398   */\n      dup3\n        /* \"#utility.yul\":9394:9395   */\n      dup3\n        /* \"#utility.yul\":9390:9399   */\n      div\n        /* \"#utility.yul\":9385:9399   */\n      swap1\n      pop\n        /* \"#utility.yul\":9220:9405   */\n      swap3\n      swap2\n      pop\n      pop\n      jump\t// out\n        /* \"#utility.yul\":9411:9853   */\n    tag_228:\n        /* \"#utility.yul\":9560:9564   */\n      0x00\n        /* \"#utility.yul\":9598:9600   */\n      0x60\n        /* \"#utility.yul\":9587:9596   */\n      dup3\n        /* \"#utility.yul\":9583:9601   */\n      add\n        /* \"#utility.yul\":9575:9601   */\n      swap1\n      pop\n        /* \"#utility.yul\":9611:9682   */\n      tag_404\n        /* \"#utility.yul\":9679:9680   */\n      0x00\n        /* \"#utility.yul\":9668:9677   */\n      dup4\n        /* \"#utility.yul\":9664:9681   */\n      add\n        /* \"#utility.yul\":9655:9661   */\n      dup7\n        /* \"#utility.yul\":9611:9682   */\n      tag_300\n      jump\t// in\n    tag_404:\n        /* \"#utility.yul\":9692:9764   */\n      tag_405\n        /* \"#utility.yul\":9760:9762   */\n      0x20\n        /* \"#utility.yul\":9749:9758   */\n      dup4\n        /* \"#utility.yul\":9745:9763   */\n      add\n        /* \"#utility.yul\":9736:9742   */\n      dup6\n        /* \"#utility.yul\":9692:9764   */\n      tag_300\n      jump\t// in\n    tag_405:\n        /* \"#utility.yul\":9774:9846   */\n      tag_406\n        /* \"#utility.yul\":9842:9844   */\n      0x40\n        /* \"#utility.yul\":9831:9840   */\n      dup4\n        /* \"#utility.yul\":9827:9845   */\n      add\n        /* \"#utility.yul\":9818:9824   */\n      dup5\n        /* \"#utility.yul\":9774:9846   */\n      tag_300\n      jump\t// in\n    tag_406:\n        /* \"#utility.yul\":9411:9853   */\n      swap5\n      swap4\n      pop\n      pop\n      pop\n      pop\n      jump\t// out\n        /* \"#utility.yul\":9859:10207   */\n    tag_243:\n        /* \"#utility.yul\":9899:9906   */\n      0x00\n        /* \"#utility.yul\":9922:9942   */\n      tag_408\n        /* \"#utility.yul\":9940:9941   */\n      dup3\n        /* \"#utility.yul\":9922:9942   */\n      tag_286\n      jump\t// in\n    tag_408:\n        /* \"#utility.yul\":9917:9942   */\n      swap2\n      pop\n        /* \"#utility.yul\":9956:9976   */\n      tag_409\n        /* \"#utility.yul\":9974:9975   */\n      dup4\n        /* \"#utility.yul\":9956:9976   */\n      tag_286\n      jump\t// in\n    tag_409:\n        /* \"#utility.yul\":9951:9976   */\n      swap3\n      pop\n        /* \"#utility.yul\":10144:10145   */\n      dup2\n        /* \"#utility.yul\":10076:10142   */\n      0xffffffffffffffffffffffffffffffffffffffffffffffffffffffffffffffff\n        /* \"#utility.yul\":10072:10146   */\n      div\n        /* \"#utility.yul\":10069:10070   */\n      dup4\n        /* \"#utility.yul\":10066:10147   */\n      gt\n        /* \"#utility.yul\":10061:10062   */\n      dup3\n        /* \"#utility.yul\":10054:10063   */\n      iszero\n        /* \"#utility.yul\":10047:10064   */\n      iszero\n        /* \"#utility.yul\":10043:10148   */\n      and\n        /* \"#utility.yul\":10040:10171   */\n      iszero\n      tag_410\n      jumpi\n        /* \"#utility.yul\":10151:10169   */\n      tag_411\n      tag_306\n      jump\t// in\n    tag_411:\n        /* \"#utility.yul\":10040:10171   */\n    tag_410:\n        /* \"#utility.yul\":10199:10200   */\n      dup3\n        /* \"#utility.yul\":10196:10197   */\n      dup3\n        /* \"#utility.yul\":10192:10201   */\n      mul\n        /* \"#utility.yul\":10181:10201   */\n      swap1\n      pop\n        /* \"#utility.yul\":9859:10207   */\n      swap3\n      swap2\n      pop\n      pop\n      jump\t// out\n        /* \"#utility.yul\":10213:10312   */\n    tag_307:\n        /* \"#utility.yul\":10265:10271   */\n      0x00\n        /* \"#utility.yul\":10299:10304   */\n      dup2\n        /* \"#utility.yul\":10293:10305   */\n      mload\n        /* \"#utility.yul\":10283:10305   */\n      swap1\n      pop\n        /* \"#utility.yul\":10213:10312   */\n      swap2\n      swap1\n      pop\n      jump\t// out\n        /* \"#utility.yul\":10318:10625   */\n    tag_308:\n        /* \"#utility.yul\":10386:10387   */\n      0x00\n        /* \"#utility.yul\":10396:10509   */\n    tag_414:\n        /* \"#utility.yul\":10410:10416   */\n      dup4\n        /* \"#utility.yul\":10407:10408   */\n      dup2\n        /* \"#utility.yul\":10404:10417   */\n      lt\n        /* \"#utility.yul\":10396:10509   */\n      iszero\n      tag_416\n      jumpi\n        /* \"#utility.yul\":10495:10496   */\n      dup1\n        /* \"#utility.yul\":10490:10493   */\n      dup3\n        /* \"#utility.yul\":10486:10497   */\n      add\n        /* \"#utility.yul\":10480:10498   */\n      mload\n        /* \"#utility.yul\":10476:10477   */\n      dup2\n        /* \"#utility.yul\":10471:10474   */\n      dup5\n        /* \"#utility.yul\":10467:10478   */\n      add\n        /* \"#utility.yul\":10460:10499   */\n      mstore\n        /* \"#utility.yul\":10432:10434   */\n      0x20\n        /* \"#utility.yul\":10429:10430   */\n      dup2\n        /* \"#utility.yul\":10425:10435   */\n      add\n        /* \"#utility.yul\":10420:10435   */\n      swap1\n      pop\n        /* \"#utility.yul\":10396:10509   */\n      jump(tag_414)\n    tag_416:\n        /* \"#utility.yul\":10527:10533   */\n      dup4\n        /* \"#utility.yul\":10524:10525   */\n      dup2\n        /* \"#utility.yul\":10521:10534   */\n      gt\n        /* \"#utility.yul\":10518:10619   */\n      iszero\n      tag_417\n      jumpi\n        /* \"#utility.yul\":10607:10608   */\n      0x00\n        /* \"#utility.yul\":10598:10604   */\n      dup5\n        /* \"#utility.yul\":10593:10596   */\n      dup5\n        /* \"#utility.yul\":10589:10605   */\n      add\n        /* \"#utility.yul\":10582:10609   */\n      mstore\n        /* \"#utility.yul\":10518:10619   */\n    tag_417:\n        /* \"#utility.yul\":10367:10625   */\n      pop\n        /* \"#utility.yul\":10318:10625   */\n      pop\n      pop\n      pop\n      jump\t// out\n        /* \"#utility.yul\":10631:10733   */\n    tag_309:\n        /* \"#utility.yul\":10672:10678   */\n      0x00\n        /* \"#utility.yul\":10723:10725   */\n      0x1f\n        /* \"#utility.yul\":10719:10726   */\n      not\n        /* \"#utility.yul\":10714:10716   */\n      0x1f\n        /* \"#utility.yul\":10707:10712   */\n      dup4\n        /* \"#utility.yul\":10703:10717   */\n      add\n        /* \"#utility.yul\":10699:10727   */\n      and\n        /* \"#utility.yul\":10689:10727   */\n      swap1\n      pop\n        /* \"#utility.yul\":10631:10733   */\n      swap2\n      swap1\n      pop\n      jump\t// out\n        /* \"#utility.yul\":10739:11103   */\n    tag_310:\n        /* \"#utility.yul\":10827:10830   */\n      0x00\n        /* \"#utility.yul\":10855:10894   */\n      tag_420\n        /* \"#utility.yul\":10888:10893   */\n      dup3\n        /* \"#utility.yul\":10855:10894   */\n      tag_307\n      jump\t// in\n    tag_420:\n        /* \"#utility.yul\":10910:10981   */\n      tag_421\n        /* \"#utility.yul\":10974:10980   */\n      dup2\n        /* \"#utility.yul\":10969:10972   */\n      dup6\n        /* \"#utility.yul\":10910:10981   */\n      tag_303\n      jump\t// in\n    tag_421:\n        /* \"#utility.yul\":10903:10981   */\n      swap4\n      pop\n        /* \"#utility.yul\":10990:11042   */\n      tag_422\n        /* \"#utility.yul\":11035:11041   */\n      dup2\n        /* \"#utility.yul\":11030:11033   */\n      dup6\n        /* \"#utility.yul\":11023:11027   */\n      0x20\n        /* \"#utility.yul\":11016:11021   */\n      dup7\n        /* \"#utility.yul\":11012:11028   */\n      add\n        /* \"#utility.yul\":10990:11042   */\n      tag_308\n      jump\t// in\n    tag_422:\n        /* \"#utility.yul\":11067:11096   */\n      tag_423\n        /* \"#utility.yul\":11089:11095   */\n      dup2\n        /* \"#utility.yul\":11067:11096   */\n      tag_309\n      jump\t// in\n    tag_423:\n        /* \"#utility.yul\":11062:11065   */\n      dup5\n        /* \"#utility.yul\":11058:11097   */\n      add\n        /* \"#utility.yul\":11051:11097   */\n      swap2\n      pop\n        /* \"#utility.yul\":10831:11103   */\n      pop\n        /* \"#utility.yul\":10739:11103   */\n      swap3\n      swap2\n      pop\n      pop\n      jump\t// out\n        /* \"#utility.yul\":11109:11422   */\n    tag_280:\n        /* \"#utility.yul\":11222:11226   */\n      0x00\n        /* \"#utility.yul\":11260:11262   */\n      0x20\n        /* \"#utility.yul\":11249:11258   */\n      dup3\n        /* \"#utility.yul\":11245:11263   */\n      add\n        /* \"#utility.yul\":11237:11263   */\n      swap1\n      pop\n        /* \"#utility.yul\":11309:11318   */\n      dup2\n        /* \"#utility.yul\":11303:11307   */\n      dup2\n        /* \"#utility.yul\":11299:11319   */\n      sub\n        /* \"#utility.yul\":11295:11296   */\n      0x00\n        /* \"#utility.yul\":11284:11293   */\n      dup4\n        /* \"#utility.yul\":11280:11297   */\n      add\n        /* \"#utility.yul\":11273:11320   */\n      mstore\n        /* \"#utility.yul\":11337:11415   */\n      tag_425\n        /* \"#utility.yul\":11410:11414   */\n      dup2\n        /* \"#utility.yul\":11401:11407   */\n      dup5\n        /* \"#utility.yul\":11337:11415   */\n      tag_310\n      jump\t// in\n    tag_425:\n        /* \"#utility.yul\":11329:11415   */\n      swap1\n      pop\n        /* \"#utility.yul\":11109:11422   */\n      swap3\n      swap2\n      pop\n      pop\n      jump\t// out\n\n    auxdata: 0xa2646970667358221220ed49ba54f441f32b75faa77f3af7d3cdbf0397a5ee369570ccb9efe06684340364736f6c634300080b0033\n}\n",
				"bytecode": {
					"linkReferences": {},
					"object": "608060405234801561001057600080fd5b506001600081905550600f600181905550605060028190555033600960006101000a81548173ffffffffffffffffffffffffffffffffffffffff021916908373ffffffffffffffffffffffffffffffffffffffff16021790555033600a60006101000a81548173ffffffffffffffffffffffffffffffffffffffff021916908373ffffffffffffffffffffffffffffffffffffffff160217905550611ef7806100ba6000396000f3fe608060405234801561001057600080fd5b506004361061014d5760003560e01c80638891cf0d116100c3578063c23a5cea1161007c578063c23a5cea14610345578063cb79c2e114610376578063cbb3e15214610394578063d5dbdf1b146103b2578063f93d4f8a146103ce578063fab2f86b146103ea5761014d565b80638891cf0d1461026f5780638c63f97f1461028d578063a143a5f2146102a9578063a3ec138d146102d9578063b2bdfa7b14610309578063b87da76d146103275761014d565b80635f348b4e116101155780635f348b4e146101d15780635f5300ff146101ef578063632a9a521461020d57806365f8c6c514610217578063671d2b751461024757806371e3db87146102655761014d565b8063070c8b741461015257806310486b6a1461015c5780631d77b00b1461017a5780631ec6b60a146101965780632d15cc04146101a0575b600080fd5b61015a6103f4565b005b610164610590565b60405161017191906119a8565b60405180910390f35b610194600480360381019061018f9190611a27565b61075d565b005b61019e6107a9565b005b6101ba60048036038101906101b59190611a27565b61088c565b6040516101c8929190611a6f565b60405180910390f35b6101d961094b565b6040516101e69190611aa7565b60405180910390f35b6101f7610971565b6040516102049190611ad1565b60405180910390f35b610215610977565b005b610231600480360381019061022c9190611a27565b610b1b565b60405161023e9190611ad1565b60405180910390f35b61024f610c41565b60405161025c9190611aec565b60405180910390f35b61026d610cda565b005b610277610ceb565b6040516102849190611ad1565b60405180910390f35b6102a760048036038101906102a29190611b33565b610cf1565b005b6102c360048036038101906102be9190611b33565b610d75565b6040516102d09190611ad1565b60405180910390f35b6102f360048036038101906102ee9190611a27565b610d8d565b6040516103009190611aec565b60405180910390f35b610311610db8565b60405161031e9190611aa7565b60405180910390f35b61032f610dde565b60405161033c9190611ad1565b60405180910390f35b61035f600480360381019061035a9190611a27565b610de4565b60405161036d929190611b60565b60405180910390f35b61037e611096565b60405161038b9190611ad1565b60405180910390f35b61039c61109c565b6040516103a99190611ad1565b60405180910390f35b6103cc60048036038101906103c79190611b33565b6110d2565b005b6103e860048036038101906103e39190611b89565b611156565b005b6103f2611411565b005b6002600054141561043a576040517f08c379a000000000000000000000000000000000000000000000000000000000815260040161043190611c4d565b60405180910390fd5b600260008190555061044a61143e565b610452611486565b60001515600760003373ffffffffffffffffffffffffffffffffffffffff1673ffffffffffffffffffffffffffffffffffffffff1681526020019081526020016000206001016000600554815260200190815260200160002060009054906101000a900460ff16151514156104f3576040517f8b74220000000000000000000000000000000000000000000000000000000000815260040160405180910390fd5b60001515600760003373ffffffffffffffffffffffffffffffffffffffff1673ffffffffffffffffffffffffffffffffffffffff1681526020019081526020016000206001016000600554815260200190815260200160002060009054906101000a905050506001600860006005548152602001908152602001600020600082825461057f9190611c9c565b925050819055506001600081905550565b61059861185a565b6000600b60003373ffffffffffffffffffffffffffffffffffffffff1673ffffffffffffffffffffffffffffffffffffffff1681526020019081526020016000206040518060e00160405290816000820154815260200160018201548152602001600282015481526020016003820154815260200160048201548152602001600582015481526020016006820154815250509050600081600001511161066a576040517fb018f08700000000000000000000000000000000000000000000000000000000815260040160405180910390fd5b600060405180606001604052806000815260200160008152602001838152509050600061069683611516565b90504282604001516060015111156106ee576106bf6106b782600154611576565b6103e861158c565b6106da6106d28560000151600154611576565b6103e861158c565b6106e49190611cd0565b8260200181815250505b60006106fd8460c001516115a2565b111561072857600061071284600001516115cc565b905080836040015160a001818152505050610738565b6000826040015160a00181815250505b8082604001516080018181525050826000015182600001818152505081935050505090565b6107656115ff565b80600960006101000a81548173ffffffffffffffffffffffffffffffffffffffff021916908373ffffffffffffffffffffffffffffffffffffffff16021790555050565b600260005414156107ef576040517f08c379a00000000000000000000000000000000000000000000000000000000081526004016107e690611c4d565b60405180910390fd5b60026000819055506107ff611688565b60011515600460009054906101000a900460ff161515141561084d576040517f6da4cd2e00000000000000000000000000000000000000000000000000000000815260040160405180910390fd5b6001600460006101000a81548160ff02191690831515021790555060016005600082825461087b9190611cd0565b925050819055506001600081905550565b600080600760008473ffffffffffffffffffffffffffffffffffffffff1673ffffffffffffffffffffffffffffffffffffffff16815260200190815260200160002060000160009054906101000a900460ff16600760008573ffffffffffffffffffffffffffffffffffffffff1673ffffffffffffffffffffffffffffffffffffffff1681526020019081526020016000206001016000600554815260200190815260200160002060009054906101000a900460ff1691509150915091565b600960009054906101000a900473ffffffffffffffffffffffffffffffffffffffff1681565b60065481565b600260005414156109bd576040517f08c379a00000000000000000000000000000000000000000000000000000000081526004016109b490611c4d565b60405180910390fd5b60026000819055506109cd61143e565b6109d5611486565b60011515600760003373ffffffffffffffffffffffffffffffffffffffff1673ffffffffffffffffffffffffffffffffffffffff1681526020019081526020016000206001016000600554815260200190815260200160002060009054906101000a900460ff1615151415610a76576040517f740e33b000000000000000000000000000000000000000000000000000000000815260040160405180910390fd5b6001600760003373ffffffffffffffffffffffffffffffffffffffff1673ffffffffffffffffffffffffffffffffffffffff1681526020019081526020016000206001016000600554815260200190815260200160002060006101000a81548160ff02191690831515021790555060016008600060055481526020019081526020016000206000828254610b0a9190611cd0565b925050819055506001600081905550565b6000610b25611688565b6000600b60008473ffffffffffffffffffffffffffffffffffffffff1673ffffffffffffffffffffffffffffffffffffffff1681526020019081526020016000206040518060e00160405290816000820154815260200160018201548152602001600282015481526020016003820154815260200160048201548152602001600582015481526020016006820154815250509050600081600001511115610c36576000610bd58260c001516115a2565b11610c0c576040517fdd8456cc00000000000000000000000000000000000000000000000000000000815260040160405180910390fd5b60008160a0018181525050428160c0018181525050610c2e81600001516115cc565b915050610c3c565b60009150505b919050565b6000610c4b611688565b610c5361143e565b600160065411610c8f576040517f2f9686de00000000000000000000000000000000000000000000000000000000815260040160405180910390fd5b6000610ca8610ca16006546005611576565b600a61158c565b905080600860006005548152602001908152602001600020541115610cd1576001915050610cd7565b60009150505b90565b610ce2611688565b42600381905550565b60025481565b610cf96115ff565b601e811115610d34576040517ff1a470d700000000000000000000000000000000000000000000000000000000815260040160405180910390fd5b806001819055507fcfa4f4cf1cd64d13a167a8e75605e0c0c9d6700e903d17c5dc11f593254a04a981604051610d6a9190611ad1565b60405180910390a150565b60086020528060005260406000206000915090505481565b60076020528060005260406000206000915090508060000160009054906101000a900460ff16905081565b600a60009054906101000a900473ffffffffffffffffffffffffffffffffffffffff1681565b60035481565b60008060026000541415610e2d576040517f08c379a0000000000000000000000000000000000000000000000000000000008152600401610e2490611c4d565b60405180910390fd5b6002600081905550610e3d611688565b6000600b60008573ffffffffffffffffffffffffffffffffffffffff1673ffffffffffffffffffffffffffffffffffffffff1681526020019081526020016000206040518060e00160405290816000820154815260200160018201548152602001600282015481526020016003820154815260200160048201548152602001600582015481526020016006820154815250509050600b60008573ffffffffffffffffffffffffffffffffffffffff1673ffffffffffffffffffffffffffffffffffffffff16815260200190815260200160002060008082016000905560018201600090556002820160009055600382016000905560048201600090556005820160009055600682016000905550504281606001511115610ff657600160066000828254610f6a9190611c9c565b92505081905550600760008573ffffffffffffffffffffffffffffffffffffffff1673ffffffffffffffffffffffffffffffffffffffff1681526020019081526020016000206001016000600554815260200190815260200160002060006101000a81549060ff0219169055610fec8160000151610fe783611516565b611711565b9250925050611089565b6001600660008282546110099190611c9c565b92505081905550600760008573ffffffffffffffffffffffffffffffffffffffff1673ffffffffffffffffffffffffffffffffffffffff1681526020019081526020016000206001016000600554815260200190815260200160002060006101000a81549060ff0219169055806000015161108382611516565b92509250505b6001600081905550915091565b60015481565b600080600354146110ca5762093a80600354426110b99190611c9c565b6110c39190611d55565b90506110cf565b600090505b90565b6110da6115ff565b60c8811115611115576040517fa552cf1000000000000000000000000000000000000000000000000000000000815260040160405180910390fd5b806002819055507fcc672f1026b958c0cfbfdd89ebe8ddcbc127f16ec24da6c2c7a4de26a8b1857e8160405161114b9190611ad1565b60405180910390a150565b6002600054141561119c576040517f08c379a000000000000000000000000000000000000000000000000000000000815260040161119390611c4d565b60405180910390fd5b60026000819055506111ac611688565b600083116111e6576040517f88b440d600000000000000000000000000000000000000000000000000000000815260040160405180910390fd5b6000600b60008673ffffffffffffffffffffffffffffffffffffffff1673ffffffffffffffffffffffffffffffffffffffff1681526020019081526020016000206000015414611262576040517f04462d2700000000000000000000000000000000000000000000000000000000815260040160405180910390fd5b6001600660008282546112759190611cd0565b925050819055506001600760008673ffffffffffffffffffffffffffffffffffffffff1673ffffffffffffffffffffffffffffffffffffffff16815260200190815260200160002060000160006101000a81548160ff02191690831515021790555060004290506040518060e0016040528085815260200182815260200183815260200182856113059190611cd0565b815260200160008152602001600081526020016000815250600b60008773ffffffffffffffffffffffffffffffffffffffff1673ffffffffffffffffffffffffffffffffffffffff168152602001908152602001600020600082015181600001556020820151816001015560408201518160020155606082015181600301556080820151816004015560a0820151816005015560c082015181600601559050508473ffffffffffffffffffffffffffffffffffffffff167fb4caaf29adda3eefee3ad552a8e85058589bf834c7466cae4ee58787f70589ed858384876113eb9190611cd0565b6040516113fa93929190611d86565b60405180910390a250600160008190555050505050565b611419611688565b61142161143e565b6000600460006101000a81548160ff021916908315150217905550565b600460009054906101000a900460ff16611484576040517fa1d1891400000000000000000000000000000000000000000000000000000000815260040160405180910390fd5b565b60001515600760003373ffffffffffffffffffffffffffffffffffffffff1673ffffffffffffffffffffffffffffffffffffffff16815260200190815260200160002060000160009054906101000a900460ff1615151415611514576040517f1e567dd400000000000000000000000000000000000000000000000000000000815260040160405180910390fd5b565b6000808260000151141561152d5760009050611571565b6a52b7d2dcc80cd2e40000006115468360200151611775565b8360400151846000015161155a9190611dbd565b6115649190611dbd565b61156e9190611d55565b90505b919050565b600081836115849190611dbd565b905092915050565b6000818361159a9190611d55565b905092915050565b60006115c562093a8083426115b79190611c9c565b61158c90919063ffffffff16565b9050919050565b60006301dfe2006103e8600254846115e49190611dbd565b6115ee9190611d55565b6115f89190611d55565b9050919050565b600a60009054906101000a900473ffffffffffffffffffffffffffffffffffffffff1673ffffffffffffffffffffffffffffffffffffffff163373ffffffffffffffffffffffffffffffffffffffff1614611686576040517f2b4cf15200000000000000000000000000000000000000000000000000000000815260040160405180910390fd5b565b600960009054906101000a900473ffffffffffffffffffffffffffffffffffffffff1673ffffffffffffffffffffffffffffffffffffffff163373ffffffffffffffffffffffffffffffffffffffff161461170f576040517f2b4cf15200000000000000000000000000000000000000000000000000000000815260040160405180910390fd5b565b6000806000841415611729576000809150915061176e565b6117498461174461173c87600154611576565b6103e861158c565b6117e2565b6117698461176461175c87600154611576565b6103e861158c565b6117e2565b915091505b9250929050565b60006117db69d3c21bcecceda100000083426117919190611c9c565b61179b9190611dbd565b6301e133806040518060400160405280601d81526020017f4572726f722063616e6e6f74206469766964652074696d657374616d700000008152506117f8565b9050919050565b600081836117f09190611c9c565b905092915050565b6000808311829061183f576040517f08c379a00000000000000000000000000000000000000000000000000000000081526004016118369190611e9f565b60405180910390fd5b508284816118505761184f611d26565b5b0490509392505050565b6040518060600160405280600081526020016000815260200161187b611881565b81525090565b6040518060e00160405280600081526020016000815260200160008152602001600081526020016000815260200160008152602001600081525090565b6000819050919050565b6118d1816118be565b82525050565b60e0820160008201516118ed60008501826118c8565b50602082015161190060208501826118c8565b50604082015161191360408501826118c8565b50606082015161192660608501826118c8565b50608082015161193960808501826118c8565b5060a082015161194c60a08501826118c8565b5060c082015161195f60c08501826118c8565b50505050565b6101208201600082015161197c60008501826118c8565b50602082015161198f60208501826118c8565b5060408201516119a260408501826118d7565b50505050565b6000610120820190506119be6000830184611965565b92915050565b600080fd5b600073ffffffffffffffffffffffffffffffffffffffff82169050919050565b60006119f4826119c9565b9050919050565b611a04816119e9565b8114611a0f57600080fd5b50565b600081359050611a21816119fb565b92915050565b600060208284031215611a3d57611a3c6119c4565b5b6000611a4b84828501611a12565b91505092915050565b60008115159050919050565b611a6981611a54565b82525050565b6000604082019050611a846000830185611a60565b611a916020830184611a60565b9392505050565b611aa1816119e9565b82525050565b6000602082019050611abc6000830184611a98565b92915050565b611acb816118be565b82525050565b6000602082019050611ae66000830184611ac2565b92915050565b6000602082019050611b016000830184611a60565b92915050565b611b10816118be565b8114611b1b57600080fd5b50565b600081359050611b2d81611b07565b92915050565b600060208284031215611b4957611b486119c4565b5b6000611b5784828501611b1e565b91505092915050565b6000604082019050611b756000830185611ac2565b611b826020830184611ac2565b9392505050565b60008060008060808587031215611ba357611ba26119c4565b5b6000611bb187828801611a12565b9450506020611bc287828801611b1e565b9350506040611bd387828801611b1e565b9250506060611be487828801611b1e565b91505092959194509250565b600082825260208201905092915050565b7f5265656e7472616e637947756172643a207265656e7472616e742063616c6c00600082015250565b6000611c37601f83611bf0565b9150611c4282611c01565b602082019050919050565b60006020820190508181036000830152611c6681611c2a565b9050919050565b7f4e487b7100000000000000000000000000000000000000000000000000000000600052601160045260246000fd5b6000611ca7826118be565b9150611cb2836118be565b925082821015611cc557611cc4611c6d565b5b828203905092915050565b6000611cdb826118be565b9150611ce6836118be565b9250827fffffffffffffffffffffffffffffffffffffffffffffffffffffffffffffffff03821115611d1b57611d1a611c6d565b5b828201905092915050565b7f4e487b7100000000000000000000000000000000000000000000000000000000600052601260045260246000fd5b6000611d60826118be565b9150611d6b836118be565b925082611d7b57611d7a611d26565b5b828204905092915050565b6000606082019050611d9b6000830186611ac2565b611da86020830185611ac2565b611db56040830184611ac2565b949350505050565b6000611dc8826118be565b9150611dd3836118be565b9250817fffffffffffffffffffffffffffffffffffffffffffffffffffffffffffffffff0483118215151615611e0c57611e0b611c6d565b5b828202905092915050565b600081519050919050565b60005b83811015611e40578082015181840152602081019050611e25565b83811115611e4f576000848401525b50505050565b6000601f19601f8301169050919050565b6000611e7182611e17565b611e7b8185611bf0565b9350611e8b818560208601611e22565b611e9481611e55565b840191505092915050565b60006020820190508181036000830152611eb98184611e66565b90509291505056fea2646970667358221220ed49ba54f441f32b75faa77f3af7d3cdbf0397a5ee369570ccb9efe06684340364736f6c634300080b0033",
					"opcodes": "PUSH1 0x80 PUSH1 0x40 MSTORE CALLVALUE DUP1 ISZERO PUSH2 0x10 JUMPI PUSH1 0x0 DUP1 REVERT JUMPDEST POP PUSH1 0x1 PUSH1 0x0 DUP2 SWAP1 SSTORE POP PUSH1 0xF PUSH1 0x1 DUP2 SWAP1 SSTORE POP PUSH1 0x50 PUSH1 0x2 DUP2 SWAP1 SSTORE POP CALLER PUSH1 0x9 PUSH1 0x0 PUSH2 0x100 EXP DUP2 SLOAD DUP2 PUSH20 0xFFFFFFFFFFFFFFFFFFFFFFFFFFFFFFFFFFFFFFFF MUL NOT AND SWAP1 DUP4 PUSH20 0xFFFFFFFFFFFFFFFFFFFFFFFFFFFFFFFFFFFFFFFF AND MUL OR SWAP1 SSTORE POP CALLER PUSH1 0xA PUSH1 0x0 PUSH2 0x100 EXP DUP2 SLOAD DUP2 PUSH20 0xFFFFFFFFFFFFFFFFFFFFFFFFFFFFFFFFFFFFFFFF MUL NOT AND SWAP1 DUP4 PUSH20 0xFFFFFFFFFFFFFFFFFFFFFFFFFFFFFFFFFFFFFFFF AND MUL OR SWAP1 SSTORE POP PUSH2 0x1EF7 DUP1 PUSH2 0xBA PUSH1 0x0 CODECOPY PUSH1 0x0 RETURN INVALID PUSH1 0x80 PUSH1 0x40 MSTORE CALLVALUE DUP1 ISZERO PUSH2 0x10 JUMPI PUSH1 0x0 DUP1 REVERT JUMPDEST POP PUSH1 0x4 CALLDATASIZE LT PUSH2 0x14D JUMPI PUSH1 0x0 CALLDATALOAD PUSH1 0xE0 SHR DUP1 PUSH4 0x8891CF0D GT PUSH2 0xC3 JUMPI DUP1 PUSH4 0xC23A5CEA GT PUSH2 0x7C JUMPI DUP1 PUSH4 0xC23A5CEA EQ PUSH2 0x345 JUMPI DUP1 PUSH4 0xCB79C2E1 EQ PUSH2 0x376 JUMPI DUP1 PUSH4 0xCBB3E152 EQ PUSH2 0x394 JUMPI DUP1 PUSH4 0xD5DBDF1B EQ PUSH2 0x3B2 JUMPI DUP1 PUSH4 0xF93D4F8A EQ PUSH2 0x3CE JUMPI DUP1 PUSH4 0xFAB2F86B EQ PUSH2 0x3EA JUMPI PUSH2 0x14D JUMP JUMPDEST DUP1 PUSH4 0x8891CF0D EQ PUSH2 0x26F JUMPI DUP1 PUSH4 0x8C63F97F EQ PUSH2 0x28D JUMPI DUP1 PUSH4 0xA143A5F2 EQ PUSH2 0x2A9 JUMPI DUP1 PUSH4 0xA3EC138D EQ PUSH2 0x2D9 JUMPI DUP1 PUSH4 0xB2BDFA7B EQ PUSH2 0x309 JUMPI DUP1 PUSH4 0xB87DA76D EQ PUSH2 0x327 JUMPI PUSH2 0x14D JUMP JUMPDEST DUP1 PUSH4 0x5F348B4E GT PUSH2 0x115 JUMPI DUP1 PUSH4 0x5F348B4E EQ PUSH2 0x1D1 JUMPI DUP1 PUSH4 0x5F5300FF EQ PUSH2 0x1EF JUMPI DUP1 PUSH4 0x632A9A52 EQ PUSH2 0x20D JUMPI DUP1 PUSH4 0x65F8C6C5 EQ PUSH2 0x217 JUMPI DUP1 PUSH4 0x671D2B75 EQ PUSH2 0x247 JUMPI DUP1 PUSH4 0x71E3DB87 EQ PUSH2 0x265 JUMPI PUSH2 0x14D JUMP JUMPDEST DUP1 PUSH4 0x70C8B74 EQ PUSH2 0x152 JUMPI DUP1 PUSH4 0x10486B6A EQ PUSH2 0x15C JUMPI DUP1 PUSH4 0x1D77B00B EQ PUSH2 0x17A JUMPI DUP1 PUSH4 0x1EC6B60A EQ PUSH2 0x196 JUMPI DUP1 PUSH4 0x2D15CC04 EQ PUSH2 0x1A0 JUMPI JUMPDEST PUSH1 0x0 DUP1 REVERT JUMPDEST PUSH2 0x15A PUSH2 0x3F4 JUMP JUMPDEST STOP JUMPDEST PUSH2 0x164 PUSH2 0x590 JUMP JUMPDEST PUSH1 0x40 MLOAD PUSH2 0x171 SWAP2 SWAP1 PUSH2 0x19A8 JUMP JUMPDEST PUSH1 0x40 MLOAD DUP1 SWAP2 SUB SWAP1 RETURN JUMPDEST PUSH2 0x194 PUSH1 0x4 DUP1 CALLDATASIZE SUB DUP2 ADD SWAP1 PUSH2 0x18F SWAP2 SWAP1 PUSH2 0x1A27 JUMP JUMPDEST PUSH2 0x75D JUMP JUMPDEST STOP JUMPDEST PUSH2 0x19E PUSH2 0x7A9 JUMP JUMPDEST STOP JUMPDEST PUSH2 0x1BA PUSH1 0x4 DUP1 CALLDATASIZE SUB DUP2 ADD SWAP1 PUSH2 0x1B5 SWAP2 SWAP1 PUSH2 0x1A27 JUMP JUMPDEST PUSH2 0x88C JUMP JUMPDEST PUSH1 0x40 MLOAD PUSH2 0x1C8 SWAP3 SWAP2 SWAP1 PUSH2 0x1A6F JUMP JUMPDEST PUSH1 0x40 MLOAD DUP1 SWAP2 SUB SWAP1 RETURN JUMPDEST PUSH2 0x1D9 PUSH2 0x94B JUMP JUMPDEST PUSH1 0x40 MLOAD PUSH2 0x1E6 SWAP2 SWAP1 PUSH2 0x1AA7 JUMP JUMPDEST PUSH1 0x40 MLOAD DUP1 SWAP2 SUB SWAP1 RETURN JUMPDEST PUSH2 0x1F7 PUSH2 0x971 JUMP JUMPDEST PUSH1 0x40 MLOAD PUSH2 0x204 SWAP2 SWAP1 PUSH2 0x1AD1 JUMP JUMPDEST PUSH1 0x40 MLOAD DUP1 SWAP2 SUB SWAP1 RETURN JUMPDEST PUSH2 0x215 PUSH2 0x977 JUMP JUMPDEST STOP JUMPDEST PUSH2 0x231 PUSH1 0x4 DUP1 CALLDATASIZE SUB DUP2 ADD SWAP1 PUSH2 0x22C SWAP2 SWAP1 PUSH2 0x1A27 JUMP JUMPDEST PUSH2 0xB1B JUMP JUMPDEST PUSH1 0x40 MLOAD PUSH2 0x23E SWAP2 SWAP1 PUSH2 0x1AD1 JUMP JUMPDEST PUSH1 0x40 MLOAD DUP1 SWAP2 SUB SWAP1 RETURN JUMPDEST PUSH2 0x24F PUSH2 0xC41 JUMP JUMPDEST PUSH1 0x40 MLOAD PUSH2 0x25C SWAP2 SWAP1 PUSH2 0x1AEC JUMP JUMPDEST PUSH1 0x40 MLOAD DUP1 SWAP2 SUB SWAP1 RETURN JUMPDEST PUSH2 0x26D PUSH2 0xCDA JUMP JUMPDEST STOP JUMPDEST PUSH2 0x277 PUSH2 0xCEB JUMP JUMPDEST PUSH1 0x40 MLOAD PUSH2 0x284 SWAP2 SWAP1 PUSH2 0x1AD1 JUMP JUMPDEST PUSH1 0x40 MLOAD DUP1 SWAP2 SUB SWAP1 RETURN JUMPDEST PUSH2 0x2A7 PUSH1 0x4 DUP1 CALLDATASIZE SUB DUP2 ADD SWAP1 PUSH2 0x2A2 SWAP2 SWAP1 PUSH2 0x1B33 JUMP JUMPDEST PUSH2 0xCF1 JUMP JUMPDEST STOP JUMPDEST PUSH2 0x2C3 PUSH1 0x4 DUP1 CALLDATASIZE SUB DUP2 ADD SWAP1 PUSH2 0x2BE SWAP2 SWAP1 PUSH2 0x1B33 JUMP JUMPDEST PUSH2 0xD75 JUMP JUMPDEST PUSH1 0x40 MLOAD PUSH2 0x2D0 SWAP2 SWAP1 PUSH2 0x1AD1 JUMP JUMPDEST PUSH1 0x40 MLOAD DUP1 SWAP2 SUB SWAP1 RETURN JUMPDEST PUSH2 0x2F3 PUSH1 0x4 DUP1 CALLDATASIZE SUB DUP2 ADD SWAP1 PUSH2 0x2EE SWAP2 SWAP1 PUSH2 0x1A27 JUMP JUMPDEST PUSH2 0xD8D JUMP JUMPDEST PUSH1 0x40 MLOAD PUSH2 0x300 SWAP2 SWAP1 PUSH2 0x1AEC JUMP JUMPDEST PUSH1 0x40 MLOAD DUP1 SWAP2 SUB SWAP1 RETURN JUMPDEST PUSH2 0x311 PUSH2 0xDB8 JUMP JUMPDEST PUSH1 0x40 MLOAD PUSH2 0x31E SWAP2 SWAP1 PUSH2 0x1AA7 JUMP JUMPDEST PUSH1 0x40 MLOAD DUP1 SWAP2 SUB SWAP1 RETURN JUMPDEST PUSH2 0x32F PUSH2 0xDDE JUMP JUMPDEST PUSH1 0x40 MLOAD PUSH2 0x33C SWAP2 SWAP1 PUSH2 0x1AD1 JUMP JUMPDEST PUSH1 0x40 MLOAD DUP1 SWAP2 SUB SWAP1 RETURN JUMPDEST PUSH2 0x35F PUSH1 0x4 DUP1 CALLDATASIZE SUB DUP2 ADD SWAP1 PUSH2 0x35A SWAP2 SWAP1 PUSH2 0x1A27 JUMP JUMPDEST PUSH2 0xDE4 JUMP JUMPDEST PUSH1 0x40 MLOAD PUSH2 0x36D SWAP3 SWAP2 SWAP1 PUSH2 0x1B60 JUMP JUMPDEST PUSH1 0x40 MLOAD DUP1 SWAP2 SUB SWAP1 RETURN JUMPDEST PUSH2 0x37E PUSH2 0x1096 JUMP JUMPDEST PUSH1 0x40 MLOAD PUSH2 0x38B SWAP2 SWAP1 PUSH2 0x1AD1 JUMP JUMPDEST PUSH1 0x40 MLOAD DUP1 SWAP2 SUB SWAP1 RETURN JUMPDEST PUSH2 0x39C PUSH2 0x109C JUMP JUMPDEST PUSH1 0x40 MLOAD PUSH2 0x3A9 SWAP2 SWAP1 PUSH2 0x1AD1 JUMP JUMPDEST PUSH1 0x40 MLOAD DUP1 SWAP2 SUB SWAP1 RETURN JUMPDEST PUSH2 0x3CC PUSH1 0x4 DUP1 CALLDATASIZE SUB DUP2 ADD SWAP1 PUSH2 0x3C7 SWAP2 SWAP1 PUSH2 0x1B33 JUMP JUMPDEST PUSH2 0x10D2 JUMP JUMPDEST STOP JUMPDEST PUSH2 0x3E8 PUSH1 0x4 DUP1 CALLDATASIZE SUB DUP2 ADD SWAP1 PUSH2 0x3E3 SWAP2 SWAP1 PUSH2 0x1B89 JUMP JUMPDEST PUSH2 0x1156 JUMP JUMPDEST STOP JUMPDEST PUSH2 0x3F2 PUSH2 0x1411 JUMP JUMPDEST STOP JUMPDEST PUSH1 0x2 PUSH1 0x0 SLOAD EQ ISZERO PUSH2 0x43A JUMPI PUSH1 0x40 MLOAD PUSH32 0x8C379A000000000000000000000000000000000000000000000000000000000 DUP2 MSTORE PUSH1 0x4 ADD PUSH2 0x431 SWAP1 PUSH2 0x1C4D JUMP JUMPDEST PUSH1 0x40 MLOAD DUP1 SWAP2 SUB SWAP1 REVERT JUMPDEST PUSH1 0x2 PUSH1 0x0 DUP2 SWAP1 SSTORE POP PUSH2 0x44A PUSH2 0x143E JUMP JUMPDEST PUSH2 0x452 PUSH2 0x1486 JUMP JUMPDEST PUSH1 0x0 ISZERO ISZERO PUSH1 0x7 PUSH1 0x0 CALLER PUSH20 0xFFFFFFFFFFFFFFFFFFFFFFFFFFFFFFFFFFFFFFFF AND PUSH20 0xFFFFFFFFFFFFFFFFFFFFFFFFFFFFFFFFFFFFFFFF AND DUP2 MSTORE PUSH1 0x20 ADD SWAP1 DUP2 MSTORE PUSH1 0x20 ADD PUSH1 0x0 KECCAK256 PUSH1 0x1 ADD PUSH1 0x0 PUSH1 0x5 SLOAD DUP2 MSTORE PUSH1 0x20 ADD SWAP1 DUP2 MSTORE PUSH1 0x20 ADD PUSH1 0x0 KECCAK256 PUSH1 0x0 SWAP1 SLOAD SWAP1 PUSH2 0x100 EXP SWAP1 DIV PUSH1 0xFF AND ISZERO ISZERO EQ ISZERO PUSH2 0x4F3 JUMPI PUSH1 0x40 MLOAD PUSH32 0x8B74220000000000000000000000000000000000000000000000000000000000 DUP2 MSTORE PUSH1 0x4 ADD PUSH1 0x40 MLOAD DUP1 SWAP2 SUB SWAP1 REVERT JUMPDEST PUSH1 0x0 ISZERO ISZERO PUSH1 0x7 PUSH1 0x0 CALLER PUSH20 0xFFFFFFFFFFFFFFFFFFFFFFFFFFFFFFFFFFFFFFFF AND PUSH20 0xFFFFFFFFFFFFFFFFFFFFFFFFFFFFFFFFFFFFFFFF AND DUP2 MSTORE PUSH1 0x20 ADD SWAP1 DUP2 MSTORE PUSH1 0x20 ADD PUSH1 0x0 KECCAK256 PUSH1 0x1 ADD PUSH1 0x0 PUSH1 0x5 SLOAD DUP2 MSTORE PUSH1 0x20 ADD SWAP1 DUP2 MSTORE PUSH1 0x20 ADD PUSH1 0x0 KECCAK256 PUSH1 0x0 SWAP1 SLOAD SWAP1 PUSH2 0x100 EXP SWAP1 POP POP POP PUSH1 0x1 PUSH1 0x8 PUSH1 0x0 PUSH1 0x5 SLOAD DUP2 MSTORE PUSH1 0x20 ADD SWAP1 DUP2 MSTORE PUSH1 0x20 ADD PUSH1 0x0 KECCAK256 PUSH1 0x0 DUP3 DUP3 SLOAD PUSH2 0x57F SWAP2 SWAP1 PUSH2 0x1C9C JUMP JUMPDEST SWAP3 POP POP DUP2 SWAP1 SSTORE POP PUSH1 0x1 PUSH1 0x0 DUP2 SWAP1 SSTORE POP JUMP JUMPDEST PUSH2 0x598 PUSH2 0x185A JUMP JUMPDEST PUSH1 0x0 PUSH1 0xB PUSH1 0x0 CALLER PUSH20 0xFFFFFFFFFFFFFFFFFFFFFFFFFFFFFFFFFFFFFFFF AND PUSH20 0xFFFFFFFFFFFFFFFFFFFFFFFFFFFFFFFFFFFFFFFF AND DUP2 MSTORE PUSH1 0x20 ADD SWAP1 DUP2 MSTORE PUSH1 0x20 ADD PUSH1 0x0 KECCAK256 PUSH1 0x40 MLOAD DUP1 PUSH1 0xE0 ADD PUSH1 0x40 MSTORE SWAP1 DUP2 PUSH1 0x0 DUP3 ADD SLOAD DUP2 MSTORE PUSH1 0x20 ADD PUSH1 0x1 DUP3 ADD SLOAD DUP2 MSTORE PUSH1 0x20 ADD PUSH1 0x2 DUP3 ADD SLOAD DUP2 MSTORE PUSH1 0x20 ADD PUSH1 0x3 DUP3 ADD SLOAD DUP2 MSTORE PUSH1 0x20 ADD PUSH1 0x4 DUP3 ADD SLOAD DUP2 MSTORE PUSH1 0x20 ADD PUSH1 0x5 DUP3 ADD SLOAD DUP2 MSTORE PUSH1 0x20 ADD PUSH1 0x6 DUP3 ADD SLOAD DUP2 MSTORE POP POP SWAP1 POP PUSH1 0x0 DUP2 PUSH1 0x0 ADD MLOAD GT PUSH2 0x66A JUMPI PUSH1 0x40 MLOAD PUSH32 0xB018F08700000000000000000000000000000000000000000000000000000000 DUP2 MSTORE PUSH1 0x4 ADD PUSH1 0x40 MLOAD DUP1 SWAP2 SUB SWAP1 REVERT JUMPDEST PUSH1 0x0 PUSH1 0x40 MLOAD DUP1 PUSH1 0x60 ADD PUSH1 0x40 MSTORE DUP1 PUSH1 0x0 DUP2 MSTORE PUSH1 0x20 ADD PUSH1 0x0 DUP2 MSTORE PUSH1 0x20 ADD DUP4 DUP2 MSTORE POP SWAP1 POP PUSH1 0x0 PUSH2 0x696 DUP4 PUSH2 0x1516 JUMP JUMPDEST SWAP1 POP TIMESTAMP DUP3 PUSH1 0x40 ADD MLOAD PUSH1 0x60 ADD MLOAD GT ISZERO PUSH2 0x6EE JUMPI PUSH2 0x6BF PUSH2 0x6B7 DUP3 PUSH1 0x1 SLOAD PUSH2 0x1576 JUMP JUMPDEST PUSH2 0x3E8 PUSH2 0x158C JUMP JUMPDEST PUSH2 0x6DA PUSH2 0x6D2 DUP6 PUSH1 0x0 ADD MLOAD PUSH1 0x1 SLOAD PUSH2 0x1576 JUMP JUMPDEST PUSH2 0x3E8 PUSH2 0x158C JUMP JUMPDEST PUSH2 0x6E4 SWAP2 SWAP1 PUSH2 0x1CD0 JUMP JUMPDEST DUP3 PUSH1 0x20 ADD DUP2 DUP2 MSTORE POP POP JUMPDEST PUSH1 0x0 PUSH2 0x6FD DUP5 PUSH1 0xC0 ADD MLOAD PUSH2 0x15A2 JUMP JUMPDEST GT ISZERO PUSH2 0x728 JUMPI PUSH1 0x0 PUSH2 0x712 DUP5 PUSH1 0x0 ADD MLOAD PUSH2 0x15CC JUMP JUMPDEST SWAP1 POP DUP1 DUP4 PUSH1 0x40 ADD MLOAD PUSH1 0xA0 ADD DUP2 DUP2 MSTORE POP POP POP PUSH2 0x738 JUMP JUMPDEST PUSH1 0x0 DUP3 PUSH1 0x40 ADD MLOAD PUSH1 0xA0 ADD DUP2 DUP2 MSTORE POP POP JUMPDEST DUP1 DUP3 PUSH1 0x40 ADD MLOAD PUSH1 0x80 ADD DUP2 DUP2 MSTORE POP POP DUP3 PUSH1 0x0 ADD MLOAD DUP3 PUSH1 0x0 ADD DUP2 DUP2 MSTORE POP POP DUP2 SWAP4 POP POP POP POP SWAP1 JUMP JUMPDEST PUSH2 0x765 PUSH2 0x15FF JUMP JUMPDEST DUP1 PUSH1 0x9 PUSH1 0x0 PUSH2 0x100 EXP DUP2 SLOAD DUP2 PUSH20 0xFFFFFFFFFFFFFFFFFFFFFFFFFFFFFFFFFFFFFFFF MUL NOT AND SWAP1 DUP4 PUSH20 0xFFFFFFFFFFFFFFFFFFFFFFFFFFFFFFFFFFFFFFFF AND MUL OR SWAP1 SSTORE POP POP JUMP JUMPDEST PUSH1 0x2 PUSH1 0x0 SLOAD EQ ISZERO PUSH2 0x7EF JUMPI PUSH1 0x40 MLOAD PUSH32 0x8C379A000000000000000000000000000000000000000000000000000000000 DUP2 MSTORE PUSH1 0x4 ADD PUSH2 0x7E6 SWAP1 PUSH2 0x1C4D JUMP JUMPDEST PUSH1 0x40 MLOAD DUP1 SWAP2 SUB SWAP1 REVERT JUMPDEST PUSH1 0x2 PUSH1 0x0 DUP2 SWAP1 SSTORE POP PUSH2 0x7FF PUSH2 0x1688 JUMP JUMPDEST PUSH1 0x1 ISZERO ISZERO PUSH1 0x4 PUSH1 0x0 SWAP1 SLOAD SWAP1 PUSH2 0x100 EXP SWAP1 DIV PUSH1 0xFF AND ISZERO ISZERO EQ ISZERO PUSH2 0x84D JUMPI PUSH1 0x40 MLOAD PUSH32 0x6DA4CD2E00000000000000000000000000000000000000000000000000000000 DUP2 MSTORE PUSH1 0x4 ADD PUSH1 0x40 MLOAD DUP1 SWAP2 SUB SWAP1 REVERT JUMPDEST PUSH1 0x1 PUSH1 0x4 PUSH1 0x0 PUSH2 0x100 EXP DUP2 SLOAD DUP2 PUSH1 0xFF MUL NOT AND SWAP1 DUP4 ISZERO ISZERO MUL OR SWAP1 SSTORE POP PUSH1 0x1 PUSH1 0x5 PUSH1 0x0 DUP3 DUP3 SLOAD PUSH2 0x87B SWAP2 SWAP1 PUSH2 0x1CD0 JUMP JUMPDEST SWAP3 POP POP DUP2 SWAP1 SSTORE POP PUSH1 0x1 PUSH1 0x0 DUP2 SWAP1 SSTORE POP JUMP JUMPDEST PUSH1 0x0 DUP1 PUSH1 0x7 PUSH1 0x0 DUP5 PUSH20 0xFFFFFFFFFFFFFFFFFFFFFFFFFFFFFFFFFFFFFFFF AND PUSH20 0xFFFFFFFFFFFFFFFFFFFFFFFFFFFFFFFFFFFFFFFF AND DUP2 MSTORE PUSH1 0x20 ADD SWAP1 DUP2 MSTORE PUSH1 0x20 ADD PUSH1 0x0 KECCAK256 PUSH1 0x0 ADD PUSH1 0x0 SWAP1 SLOAD SWAP1 PUSH2 0x100 EXP SWAP1 DIV PUSH1 0xFF AND PUSH1 0x7 PUSH1 0x0 DUP6 PUSH20 0xFFFFFFFFFFFFFFFFFFFFFFFFFFFFFFFFFFFFFFFF AND PUSH20 0xFFFFFFFFFFFFFFFFFFFFFFFFFFFFFFFFFFFFFFFF AND DUP2 MSTORE PUSH1 0x20 ADD SWAP1 DUP2 MSTORE PUSH1 0x20 ADD PUSH1 0x0 KECCAK256 PUSH1 0x1 ADD PUSH1 0x0 PUSH1 0x5 SLOAD DUP2 MSTORE PUSH1 0x20 ADD SWAP1 DUP2 MSTORE PUSH1 0x20 ADD PUSH1 0x0 KECCAK256 PUSH1 0x0 SWAP1 SLOAD SWAP1 PUSH2 0x100 EXP SWAP1 DIV PUSH1 0xFF AND SWAP2 POP SWAP2 POP SWAP2 POP SWAP2 JUMP JUMPDEST PUSH1 0x9 PUSH1 0x0 SWAP1 SLOAD SWAP1 PUSH2 0x100 EXP SWAP1 DIV PUSH20 0xFFFFFFFFFFFFFFFFFFFFFFFFFFFFFFFFFFFFFFFF AND DUP2 JUMP JUMPDEST PUSH1 0x6 SLOAD DUP2 JUMP JUMPDEST PUSH1 0x2 PUSH1 0x0 SLOAD EQ ISZERO PUSH2 0x9BD JUMPI PUSH1 0x40 MLOAD PUSH32 0x8C379A000000000000000000000000000000000000000000000000000000000 DUP2 MSTORE PUSH1 0x4 ADD PUSH2 0x9B4 SWAP1 PUSH2 0x1C4D JUMP JUMPDEST PUSH1 0x40 MLOAD DUP1 SWAP2 SUB SWAP1 REVERT JUMPDEST PUSH1 0x2 PUSH1 0x0 DUP2 SWAP1 SSTORE POP PUSH2 0x9CD PUSH2 0x143E JUMP JUMPDEST PUSH2 0x9D5 PUSH2 0x1486 JUMP JUMPDEST PUSH1 0x1 ISZERO ISZERO PUSH1 0x7 PUSH1 0x0 CALLER PUSH20 0xFFFFFFFFFFFFFFFFFFFFFFFFFFFFFFFFFFFFFFFF AND PUSH20 0xFFFFFFFFFFFFFFFFFFFFFFFFFFFFFFFFFFFFFFFF AND DUP2 MSTORE PUSH1 0x20 ADD SWAP1 DUP2 MSTORE PUSH1 0x20 ADD PUSH1 0x0 KECCAK256 PUSH1 0x1 ADD PUSH1 0x0 PUSH1 0x5 SLOAD DUP2 MSTORE PUSH1 0x20 ADD SWAP1 DUP2 MSTORE PUSH1 0x20 ADD PUSH1 0x0 KECCAK256 PUSH1 0x0 SWAP1 SLOAD SWAP1 PUSH2 0x100 EXP SWAP1 DIV PUSH1 0xFF AND ISZERO ISZERO EQ ISZERO PUSH2 0xA76 JUMPI PUSH1 0x40 MLOAD PUSH32 0x740E33B000000000000000000000000000000000000000000000000000000000 DUP2 MSTORE PUSH1 0x4 ADD PUSH1 0x40 MLOAD DUP1 SWAP2 SUB SWAP1 REVERT JUMPDEST PUSH1 0x1 PUSH1 0x7 PUSH1 0x0 CALLER PUSH20 0xFFFFFFFFFFFFFFFFFFFFFFFFFFFFFFFFFFFFFFFF AND PUSH20 0xFFFFFFFFFFFFFFFFFFFFFFFFFFFFFFFFFFFFFFFF AND DUP2 MSTORE PUSH1 0x20 ADD SWAP1 DUP2 MSTORE PUSH1 0x20 ADD PUSH1 0x0 KECCAK256 PUSH1 0x1 ADD PUSH1 0x0 PUSH1 0x5 SLOAD DUP2 MSTORE PUSH1 0x20 ADD SWAP1 DUP2 MSTORE PUSH1 0x20 ADD PUSH1 0x0 KECCAK256 PUSH1 0x0 PUSH2 0x100 EXP DUP2 SLOAD DUP2 PUSH1 0xFF MUL NOT AND SWAP1 DUP4 ISZERO ISZERO MUL OR SWAP1 SSTORE POP PUSH1 0x1 PUSH1 0x8 PUSH1 0x0 PUSH1 0x5 SLOAD DUP2 MSTORE PUSH1 0x20 ADD SWAP1 DUP2 MSTORE PUSH1 0x20 ADD PUSH1 0x0 KECCAK256 PUSH1 0x0 DUP3 DUP3 SLOAD PUSH2 0xB0A SWAP2 SWAP1 PUSH2 0x1CD0 JUMP JUMPDEST SWAP3 POP POP DUP2 SWAP1 SSTORE POP PUSH1 0x1 PUSH1 0x0 DUP2 SWAP1 SSTORE POP JUMP JUMPDEST PUSH1 0x0 PUSH2 0xB25 PUSH2 0x1688 JUMP JUMPDEST PUSH1 0x0 PUSH1 0xB PUSH1 0x0 DUP5 PUSH20 0xFFFFFFFFFFFFFFFFFFFFFFFFFFFFFFFFFFFFFFFF AND PUSH20 0xFFFFFFFFFFFFFFFFFFFFFFFFFFFFFFFFFFFFFFFF AND DUP2 MSTORE PUSH1 0x20 ADD SWAP1 DUP2 MSTORE PUSH1 0x20 ADD PUSH1 0x0 KECCAK256 PUSH1 0x40 MLOAD DUP1 PUSH1 0xE0 ADD PUSH1 0x40 MSTORE SWAP1 DUP2 PUSH1 0x0 DUP3 ADD SLOAD DUP2 MSTORE PUSH1 0x20 ADD PUSH1 0x1 DUP3 ADD SLOAD DUP2 MSTORE PUSH1 0x20 ADD PUSH1 0x2 DUP3 ADD SLOAD DUP2 MSTORE PUSH1 0x20 ADD PUSH1 0x3 DUP3 ADD SLOAD DUP2 MSTORE PUSH1 0x20 ADD PUSH1 0x4 DUP3 ADD SLOAD DUP2 MSTORE PUSH1 0x20 ADD PUSH1 0x5 DUP3 ADD SLOAD DUP2 MSTORE PUSH1 0x20 ADD PUSH1 0x6 DUP3 ADD SLOAD DUP2 MSTORE POP POP SWAP1 POP PUSH1 0x0 DUP2 PUSH1 0x0 ADD MLOAD GT ISZERO PUSH2 0xC36 JUMPI PUSH1 0x0 PUSH2 0xBD5 DUP3 PUSH1 0xC0 ADD MLOAD PUSH2 0x15A2 JUMP JUMPDEST GT PUSH2 0xC0C JUMPI PUSH1 0x40 MLOAD PUSH32 0xDD8456CC00000000000000000000000000000000000000000000000000000000 DUP2 MSTORE PUSH1 0x4 ADD PUSH1 0x40 MLOAD DUP1 SWAP2 SUB SWAP1 REVERT JUMPDEST PUSH1 0x0 DUP2 PUSH1 0xA0 ADD DUP2 DUP2 MSTORE POP POP TIMESTAMP DUP2 PUSH1 0xC0 ADD DUP2 DUP2 MSTORE POP POP PUSH2 0xC2E DUP2 PUSH1 0x0 ADD MLOAD PUSH2 0x15CC JUMP JUMPDEST SWAP2 POP POP PUSH2 0xC3C JUMP JUMPDEST PUSH1 0x0 SWAP2 POP POP JUMPDEST SWAP2 SWAP1 POP JUMP JUMPDEST PUSH1 0x0 PUSH2 0xC4B PUSH2 0x1688 JUMP JUMPDEST PUSH2 0xC53 PUSH2 0x143E JUMP JUMPDEST PUSH1 0x1 PUSH1 0x6 SLOAD GT PUSH2 0xC8F JUMPI PUSH1 0x40 MLOAD PUSH32 0x2F9686DE00000000000000000000000000000000000000000000000000000000 DUP2 MSTORE PUSH1 0x4 ADD PUSH1 0x40 MLOAD DUP1 SWAP2 SUB SWAP1 REVERT JUMPDEST PUSH1 0x0 PUSH2 0xCA8 PUSH2 0xCA1 PUSH1 0x6 SLOAD PUSH1 0x5 PUSH2 0x1576 JUMP JUMPDEST PUSH1 0xA PUSH2 0x158C JUMP JUMPDEST SWAP1 POP DUP1 PUSH1 0x8 PUSH1 0x0 PUSH1 0x5 SLOAD DUP2 MSTORE PUSH1 0x20 ADD SWAP1 DUP2 MSTORE PUSH1 0x20 ADD PUSH1 0x0 KECCAK256 SLOAD GT ISZERO PUSH2 0xCD1 JUMPI PUSH1 0x1 SWAP2 POP POP PUSH2 0xCD7 JUMP JUMPDEST PUSH1 0x0 SWAP2 POP POP JUMPDEST SWAP1 JUMP JUMPDEST PUSH2 0xCE2 PUSH2 0x1688 JUMP JUMPDEST TIMESTAMP PUSH1 0x3 DUP2 SWAP1 SSTORE POP JUMP JUMPDEST PUSH1 0x2 SLOAD DUP2 JUMP JUMPDEST PUSH2 0xCF9 PUSH2 0x15FF JUMP JUMPDEST PUSH1 0x1E DUP2 GT ISZERO PUSH2 0xD34 JUMPI PUSH1 0x40 MLOAD PUSH32 0xF1A470D700000000000000000000000000000000000000000000000000000000 DUP2 MSTORE PUSH1 0x4 ADD PUSH1 0x40 MLOAD DUP1 SWAP2 SUB SWAP1 REVERT JUMPDEST DUP1 PUSH1 0x1 DUP2 SWAP1 SSTORE POP PUSH32 0xCFA4F4CF1CD64D13A167A8E75605E0C0C9D6700E903D17C5DC11F593254A04A9 DUP2 PUSH1 0x40 MLOAD PUSH2 0xD6A SWAP2 SWAP1 PUSH2 0x1AD1 JUMP JUMPDEST PUSH1 0x40 MLOAD DUP1 SWAP2 SUB SWAP1 LOG1 POP JUMP JUMPDEST PUSH1 0x8 PUSH1 0x20 MSTORE DUP1 PUSH1 0x0 MSTORE PUSH1 0x40 PUSH1 0x0 KECCAK256 PUSH1 0x0 SWAP2 POP SWAP1 POP SLOAD DUP2 JUMP JUMPDEST PUSH1 0x7 PUSH1 0x20 MSTORE DUP1 PUSH1 0x0 MSTORE PUSH1 0x40 PUSH1 0x0 KECCAK256 PUSH1 0x0 SWAP2 POP SWAP1 POP DUP1 PUSH1 0x0 ADD PUSH1 0x0 SWAP1 SLOAD SWAP1 PUSH2 0x100 EXP SWAP1 DIV PUSH1 0xFF AND SWAP1 POP DUP2 JUMP JUMPDEST PUSH1 0xA PUSH1 0x0 SWAP1 SLOAD SWAP1 PUSH2 0x100 EXP SWAP1 DIV PUSH20 0xFFFFFFFFFFFFFFFFFFFFFFFFFFFFFFFFFFFFFFFF AND DUP2 JUMP JUMPDEST PUSH1 0x3 SLOAD DUP2 JUMP JUMPDEST PUSH1 0x0 DUP1 PUSH1 0x2 PUSH1 0x0 SLOAD EQ ISZERO PUSH2 0xE2D JUMPI PUSH1 0x40 MLOAD PUSH32 0x8C379A000000000000000000000000000000000000000000000000000000000 DUP2 MSTORE PUSH1 0x4 ADD PUSH2 0xE24 SWAP1 PUSH2 0x1C4D JUMP JUMPDEST PUSH1 0x40 MLOAD DUP1 SWAP2 SUB SWAP1 REVERT JUMPDEST PUSH1 0x2 PUSH1 0x0 DUP2 SWAP1 SSTORE POP PUSH2 0xE3D PUSH2 0x1688 JUMP JUMPDEST PUSH1 0x0 PUSH1 0xB PUSH1 0x0 DUP6 PUSH20 0xFFFFFFFFFFFFFFFFFFFFFFFFFFFFFFFFFFFFFFFF AND PUSH20 0xFFFFFFFFFFFFFFFFFFFFFFFFFFFFFFFFFFFFFFFF AND DUP2 MSTORE PUSH1 0x20 ADD SWAP1 DUP2 MSTORE PUSH1 0x20 ADD PUSH1 0x0 KECCAK256 PUSH1 0x40 MLOAD DUP1 PUSH1 0xE0 ADD PUSH1 0x40 MSTORE SWAP1 DUP2 PUSH1 0x0 DUP3 ADD SLOAD DUP2 MSTORE PUSH1 0x20 ADD PUSH1 0x1 DUP3 ADD SLOAD DUP2 MSTORE PUSH1 0x20 ADD PUSH1 0x2 DUP3 ADD SLOAD DUP2 MSTORE PUSH1 0x20 ADD PUSH1 0x3 DUP3 ADD SLOAD DUP2 MSTORE PUSH1 0x20 ADD PUSH1 0x4 DUP3 ADD SLOAD DUP2 MSTORE PUSH1 0x20 ADD PUSH1 0x5 DUP3 ADD SLOAD DUP2 MSTORE PUSH1 0x20 ADD PUSH1 0x6 DUP3 ADD SLOAD DUP2 MSTORE POP POP SWAP1 POP PUSH1 0xB PUSH1 0x0 DUP6 PUSH20 0xFFFFFFFFFFFFFFFFFFFFFFFFFFFFFFFFFFFFFFFF AND PUSH20 0xFFFFFFFFFFFFFFFFFFFFFFFFFFFFFFFFFFFFFFFF AND DUP2 MSTORE PUSH1 0x20 ADD SWAP1 DUP2 MSTORE PUSH1 0x20 ADD PUSH1 0x0 KECCAK256 PUSH1 0x0 DUP1 DUP3 ADD PUSH1 0x0 SWAP1 SSTORE PUSH1 0x1 DUP3 ADD PUSH1 0x0 SWAP1 SSTORE PUSH1 0x2 DUP3 ADD PUSH1 0x0 SWAP1 SSTORE PUSH1 0x3 DUP3 ADD PUSH1 0x0 SWAP1 SSTORE PUSH1 0x4 DUP3 ADD PUSH1 0x0 SWAP1 SSTORE PUSH1 0x5 DUP3 ADD PUSH1 0x0 SWAP1 SSTORE PUSH1 0x6 DUP3 ADD PUSH1 0x0 SWAP1 SSTORE POP POP TIMESTAMP DUP2 PUSH1 0x60 ADD MLOAD GT ISZERO PUSH2 0xFF6 JUMPI PUSH1 0x1 PUSH1 0x6 PUSH1 0x0 DUP3 DUP3 SLOAD PUSH2 0xF6A SWAP2 SWAP1 PUSH2 0x1C9C JUMP JUMPDEST SWAP3 POP POP DUP2 SWAP1 SSTORE POP PUSH1 0x7 PUSH1 0x0 DUP6 PUSH20 0xFFFFFFFFFFFFFFFFFFFFFFFFFFFFFFFFFFFFFFFF AND PUSH20 0xFFFFFFFFFFFFFFFFFFFFFFFFFFFFFFFFFFFFFFFF AND DUP2 MSTORE PUSH1 0x20 ADD SWAP1 DUP2 MSTORE PUSH1 0x20 ADD PUSH1 0x0 KECCAK256 PUSH1 0x1 ADD PUSH1 0x0 PUSH1 0x5 SLOAD DUP2 MSTORE PUSH1 0x20 ADD SWAP1 DUP2 MSTORE PUSH1 0x20 ADD PUSH1 0x0 KECCAK256 PUSH1 0x0 PUSH2 0x100 EXP DUP2 SLOAD SWAP1 PUSH1 0xFF MUL NOT AND SWAP1 SSTORE PUSH2 0xFEC DUP2 PUSH1 0x0 ADD MLOAD PUSH2 0xFE7 DUP4 PUSH2 0x1516 JUMP JUMPDEST PUSH2 0x1711 JUMP JUMPDEST SWAP3 POP SWAP3 POP POP PUSH2 0x1089 JUMP JUMPDEST PUSH1 0x1 PUSH1 0x6 PUSH1 0x0 DUP3 DUP3 SLOAD PUSH2 0x1009 SWAP2 SWAP1 PUSH2 0x1C9C JUMP JUMPDEST SWAP3 POP POP DUP2 SWAP1 SSTORE POP PUSH1 0x7 PUSH1 0x0 DUP6 PUSH20 0xFFFFFFFFFFFFFFFFFFFFFFFFFFFFFFFFFFFFFFFF AND PUSH20 0xFFFFFFFFFFFFFFFFFFFFFFFFFFFFFFFFFFFFFFFF AND DUP2 MSTORE PUSH1 0x20 ADD SWAP1 DUP2 MSTORE PUSH1 0x20 ADD PUSH1 0x0 KECCAK256 PUSH1 0x1 ADD PUSH1 0x0 PUSH1 0x5 SLOAD DUP2 MSTORE PUSH1 0x20 ADD SWAP1 DUP2 MSTORE PUSH1 0x20 ADD PUSH1 0x0 KECCAK256 PUSH1 0x0 PUSH2 0x100 EXP DUP2 SLOAD SWAP1 PUSH1 0xFF MUL NOT AND SWAP1 SSTORE DUP1 PUSH1 0x0 ADD MLOAD PUSH2 0x1083 DUP3 PUSH2 0x1516 JUMP JUMPDEST SWAP3 POP SWAP3 POP POP JUMPDEST PUSH1 0x1 PUSH1 0x0 DUP2 SWAP1 SSTORE POP SWAP2 POP SWAP2 JUMP JUMPDEST PUSH1 0x1 SLOAD DUP2 JUMP JUMPDEST PUSH1 0x0 DUP1 PUSH1 0x3 SLOAD EQ PUSH2 0x10CA JUMPI PUSH3 0x93A80 PUSH1 0x3 SLOAD TIMESTAMP PUSH2 0x10B9 SWAP2 SWAP1 PUSH2 0x1C9C JUMP JUMPDEST PUSH2 0x10C3 SWAP2 SWAP1 PUSH2 0x1D55 JUMP JUMPDEST SWAP1 POP PUSH2 0x10CF JUMP JUMPDEST PUSH1 0x0 SWAP1 POP JUMPDEST SWAP1 JUMP JUMPDEST PUSH2 0x10DA PUSH2 0x15FF JUMP JUMPDEST PUSH1 0xC8 DUP2 GT ISZERO PUSH2 0x1115 JUMPI PUSH1 0x40 MLOAD PUSH32 0xA552CF1000000000000000000000000000000000000000000000000000000000 DUP2 MSTORE PUSH1 0x4 ADD PUSH1 0x40 MLOAD DUP1 SWAP2 SUB SWAP1 REVERT JUMPDEST DUP1 PUSH1 0x2 DUP2 SWAP1 SSTORE POP PUSH32 0xCC672F1026B958C0CFBFDD89EBE8DDCBC127F16EC24DA6C2C7A4DE26A8B1857E DUP2 PUSH1 0x40 MLOAD PUSH2 0x114B SWAP2 SWAP1 PUSH2 0x1AD1 JUMP JUMPDEST PUSH1 0x40 MLOAD DUP1 SWAP2 SUB SWAP1 LOG1 POP JUMP JUMPDEST PUSH1 0x2 PUSH1 0x0 SLOAD EQ ISZERO PUSH2 0x119C JUMPI PUSH1 0x40 MLOAD PUSH32 0x8C379A000000000000000000000000000000000000000000000000000000000 DUP2 MSTORE PUSH1 0x4 ADD PUSH2 0x1193 SWAP1 PUSH2 0x1C4D JUMP JUMPDEST PUSH1 0x40 MLOAD DUP1 SWAP2 SUB SWAP1 REVERT JUMPDEST PUSH1 0x2 PUSH1 0x0 DUP2 SWAP1 SSTORE POP PUSH2 0x11AC PUSH2 0x1688 JUMP JUMPDEST PUSH1 0x0 DUP4 GT PUSH2 0x11E6 JUMPI PUSH1 0x40 MLOAD PUSH32 0x88B440D600000000000000000000000000000000000000000000000000000000 DUP2 MSTORE PUSH1 0x4 ADD PUSH1 0x40 MLOAD DUP1 SWAP2 SUB SWAP1 REVERT JUMPDEST PUSH1 0x0 PUSH1 0xB PUSH1 0x0 DUP7 PUSH20 0xFFFFFFFFFFFFFFFFFFFFFFFFFFFFFFFFFFFFFFFF AND PUSH20 0xFFFFFFFFFFFFFFFFFFFFFFFFFFFFFFFFFFFFFFFF AND DUP2 MSTORE PUSH1 0x20 ADD SWAP1 DUP2 MSTORE PUSH1 0x20 ADD PUSH1 0x0 KECCAK256 PUSH1 0x0 ADD SLOAD EQ PUSH2 0x1262 JUMPI PUSH1 0x40 MLOAD PUSH32 0x4462D2700000000000000000000000000000000000000000000000000000000 DUP2 MSTORE PUSH1 0x4 ADD PUSH1 0x40 MLOAD DUP1 SWAP2 SUB SWAP1 REVERT JUMPDEST PUSH1 0x1 PUSH1 0x6 PUSH1 0x0 DUP3 DUP3 SLOAD PUSH2 0x1275 SWAP2 SWAP1 PUSH2 0x1CD0 JUMP JUMPDEST SWAP3 POP POP DUP2 SWAP1 SSTORE POP PUSH1 0x1 PUSH1 0x7 PUSH1 0x0 DUP7 PUSH20 0xFFFFFFFFFFFFFFFFFFFFFFFFFFFFFFFFFFFFFFFF AND PUSH20 0xFFFFFFFFFFFFFFFFFFFFFFFFFFFFFFFFFFFFFFFF AND DUP2 MSTORE PUSH1 0x20 ADD SWAP1 DUP2 MSTORE PUSH1 0x20 ADD PUSH1 0x0 KECCAK256 PUSH1 0x0 ADD PUSH1 0x0 PUSH2 0x100 EXP DUP2 SLOAD DUP2 PUSH1 0xFF MUL NOT AND SWAP1 DUP4 ISZERO ISZERO MUL OR SWAP1 SSTORE POP PUSH1 0x0 TIMESTAMP SWAP1 POP PUSH1 0x40 MLOAD DUP1 PUSH1 0xE0 ADD PUSH1 0x40 MSTORE DUP1 DUP6 DUP2 MSTORE PUSH1 0x20 ADD DUP3 DUP2 MSTORE PUSH1 0x20 ADD DUP4 DUP2 MSTORE PUSH1 0x20 ADD DUP3 DUP6 PUSH2 0x1305 SWAP2 SWAP1 PUSH2 0x1CD0 JUMP JUMPDEST DUP2 MSTORE PUSH1 0x20 ADD PUSH1 0x0 DUP2 MSTORE PUSH1 0x20 ADD PUSH1 0x0 DUP2 MSTORE PUSH1 0x20 ADD PUSH1 0x0 DUP2 MSTORE POP PUSH1 0xB PUSH1 0x0 DUP8 PUSH20 0xFFFFFFFFFFFFFFFFFFFFFFFFFFFFFFFFFFFFFFFF AND PUSH20 0xFFFFFFFFFFFFFFFFFFFFFFFFFFFFFFFFFFFFFFFF AND DUP2 MSTORE PUSH1 0x20 ADD SWAP1 DUP2 MSTORE PUSH1 0x20 ADD PUSH1 0x0 KECCAK256 PUSH1 0x0 DUP3 ADD MLOAD DUP2 PUSH1 0x0 ADD SSTORE PUSH1 0x20 DUP3 ADD MLOAD DUP2 PUSH1 0x1 ADD SSTORE PUSH1 0x40 DUP3 ADD MLOAD DUP2 PUSH1 0x2 ADD SSTORE PUSH1 0x60 DUP3 ADD MLOAD DUP2 PUSH1 0x3 ADD SSTORE PUSH1 0x80 DUP3 ADD MLOAD DUP2 PUSH1 0x4 ADD SSTORE PUSH1 0xA0 DUP3 ADD MLOAD DUP2 PUSH1 0x5 ADD SSTORE PUSH1 0xC0 DUP3 ADD MLOAD DUP2 PUSH1 0x6 ADD SSTORE SWAP1 POP POP DUP5 PUSH20 0xFFFFFFFFFFFFFFFFFFFFFFFFFFFFFFFFFFFFFFFF AND PUSH32 0xB4CAAF29ADDA3EEFEE3AD552A8E85058589BF834C7466CAE4EE58787F70589ED DUP6 DUP4 DUP5 DUP8 PUSH2 0x13EB SWAP2 SWAP1 PUSH2 0x1CD0 JUMP JUMPDEST PUSH1 0x40 MLOAD PUSH2 0x13FA SWAP4 SWAP3 SWAP2 SWAP1 PUSH2 0x1D86 JUMP JUMPDEST PUSH1 0x40 MLOAD DUP1 SWAP2 SUB SWAP1 LOG2 POP PUSH1 0x1 PUSH1 0x0 DUP2 SWAP1 SSTORE POP POP POP POP POP JUMP JUMPDEST PUSH2 0x1419 PUSH2 0x1688 JUMP JUMPDEST PUSH2 0x1421 PUSH2 0x143E JUMP JUMPDEST PUSH1 0x0 PUSH1 0x4 PUSH1 0x0 PUSH2 0x100 EXP DUP2 SLOAD DUP2 PUSH1 0xFF MUL NOT AND SWAP1 DUP4 ISZERO ISZERO MUL OR SWAP1 SSTORE POP JUMP JUMPDEST PUSH1 0x4 PUSH1 0x0 SWAP1 SLOAD SWAP1 PUSH2 0x100 EXP SWAP1 DIV PUSH1 0xFF AND PUSH2 0x1484 JUMPI PUSH1 0x40 MLOAD PUSH32 0xA1D1891400000000000000000000000000000000000000000000000000000000 DUP2 MSTORE PUSH1 0x4 ADD PUSH1 0x40 MLOAD DUP1 SWAP2 SUB SWAP1 REVERT JUMPDEST JUMP JUMPDEST PUSH1 0x0 ISZERO ISZERO PUSH1 0x7 PUSH1 0x0 CALLER PUSH20 0xFFFFFFFFFFFFFFFFFFFFFFFFFFFFFFFFFFFFFFFF AND PUSH20 0xFFFFFFFFFFFFFFFFFFFFFFFFFFFFFFFFFFFFFFFF AND DUP2 MSTORE PUSH1 0x20 ADD SWAP1 DUP2 MSTORE PUSH1 0x20 ADD PUSH1 0x0 KECCAK256 PUSH1 0x0 ADD PUSH1 0x0 SWAP1 SLOAD SWAP1 PUSH2 0x100 EXP SWAP1 DIV PUSH1 0xFF AND ISZERO ISZERO EQ ISZERO PUSH2 0x1514 JUMPI PUSH1 0x40 MLOAD PUSH32 0x1E567DD400000000000000000000000000000000000000000000000000000000 DUP2 MSTORE PUSH1 0x4 ADD PUSH1 0x40 MLOAD DUP1 SWAP2 SUB SWAP1 REVERT JUMPDEST JUMP JUMPDEST PUSH1 0x0 DUP1 DUP3 PUSH1 0x0 ADD MLOAD EQ ISZERO PUSH2 0x152D JUMPI PUSH1 0x0 SWAP1 POP PUSH2 0x1571 JUMP JUMPDEST PUSH11 0x52B7D2DCC80CD2E4000000 PUSH2 0x1546 DUP4 PUSH1 0x20 ADD MLOAD PUSH2 0x1775 JUMP JUMPDEST DUP4 PUSH1 0x40 ADD MLOAD DUP5 PUSH1 0x0 ADD MLOAD PUSH2 0x155A SWAP2 SWAP1 PUSH2 0x1DBD JUMP JUMPDEST PUSH2 0x1564 SWAP2 SWAP1 PUSH2 0x1DBD JUMP JUMPDEST PUSH2 0x156E SWAP2 SWAP1 PUSH2 0x1D55 JUMP JUMPDEST SWAP1 POP JUMPDEST SWAP2 SWAP1 POP JUMP JUMPDEST PUSH1 0x0 DUP2 DUP4 PUSH2 0x1584 SWAP2 SWAP1 PUSH2 0x1DBD JUMP JUMPDEST SWAP1 POP SWAP3 SWAP2 POP POP JUMP JUMPDEST PUSH1 0x0 DUP2 DUP4 PUSH2 0x159A SWAP2 SWAP1 PUSH2 0x1D55 JUMP JUMPDEST SWAP1 POP SWAP3 SWAP2 POP POP JUMP JUMPDEST PUSH1 0x0 PUSH2 0x15C5 PUSH3 0x93A80 DUP4 TIMESTAMP PUSH2 0x15B7 SWAP2 SWAP1 PUSH2 0x1C9C JUMP JUMPDEST PUSH2 0x158C SWAP1 SWAP2 SWAP1 PUSH4 0xFFFFFFFF AND JUMP JUMPDEST SWAP1 POP SWAP2 SWAP1 POP JUMP JUMPDEST PUSH1 0x0 PUSH4 0x1DFE200 PUSH2 0x3E8 PUSH1 0x2 SLOAD DUP5 PUSH2 0x15E4 SWAP2 SWAP1 PUSH2 0x1DBD JUMP JUMPDEST PUSH2 0x15EE SWAP2 SWAP1 PUSH2 0x1D55 JUMP JUMPDEST PUSH2 0x15F8 SWAP2 SWAP1 PUSH2 0x1D55 JUMP JUMPDEST SWAP1 POP SWAP2 SWAP1 POP JUMP JUMPDEST PUSH1 0xA PUSH1 0x0 SWAP1 SLOAD SWAP1 PUSH2 0x100 EXP SWAP1 DIV PUSH20 0xFFFFFFFFFFFFFFFFFFFFFFFFFFFFFFFFFFFFFFFF AND PUSH20 0xFFFFFFFFFFFFFFFFFFFFFFFFFFFFFFFFFFFFFFFF AND CALLER PUSH20 0xFFFFFFFFFFFFFFFFFFFFFFFFFFFFFFFFFFFFFFFF AND EQ PUSH2 0x1686 JUMPI PUSH1 0x40 MLOAD PUSH32 0x2B4CF15200000000000000000000000000000000000000000000000000000000 DUP2 MSTORE PUSH1 0x4 ADD PUSH1 0x40 MLOAD DUP1 SWAP2 SUB SWAP1 REVERT JUMPDEST JUMP JUMPDEST PUSH1 0x9 PUSH1 0x0 SWAP1 SLOAD SWAP1 PUSH2 0x100 EXP SWAP1 DIV PUSH20 0xFFFFFFFFFFFFFFFFFFFFFFFFFFFFFFFFFFFFFFFF AND PUSH20 0xFFFFFFFFFFFFFFFFFFFFFFFFFFFFFFFFFFFFFFFF AND CALLER PUSH20 0xFFFFFFFFFFFFFFFFFFFFFFFFFFFFFFFFFFFFFFFF AND EQ PUSH2 0x170F JUMPI PUSH1 0x40 MLOAD PUSH32 0x2B4CF15200000000000000000000000000000000000000000000000000000000 DUP2 MSTORE PUSH1 0x4 ADD PUSH1 0x40 MLOAD DUP1 SWAP2 SUB SWAP1 REVERT JUMPDEST JUMP JUMPDEST PUSH1 0x0 DUP1 PUSH1 0x0 DUP5 EQ ISZERO PUSH2 0x1729 JUMPI PUSH1 0x0 DUP1 SWAP2 POP SWAP2 POP PUSH2 0x176E JUMP JUMPDEST PUSH2 0x1749 DUP5 PUSH2 0x1744 PUSH2 0x173C DUP8 PUSH1 0x1 SLOAD PUSH2 0x1576 JUMP JUMPDEST PUSH2 0x3E8 PUSH2 0x158C JUMP JUMPDEST PUSH2 0x17E2 JUMP JUMPDEST PUSH2 0x1769 DUP5 PUSH2 0x1764 PUSH2 0x175C DUP8 PUSH1 0x1 SLOAD PUSH2 0x1576 JUMP JUMPDEST PUSH2 0x3E8 PUSH2 0x158C JUMP JUMPDEST PUSH2 0x17E2 JUMP JUMPDEST SWAP2 POP SWAP2 POP JUMPDEST SWAP3 POP SWAP3 SWAP1 POP JUMP JUMPDEST PUSH1 0x0 PUSH2 0x17DB PUSH10 0xD3C21BCECCEDA1000000 DUP4 TIMESTAMP PUSH2 0x1791 SWAP2 SWAP1 PUSH2 0x1C9C JUMP JUMPDEST PUSH2 0x179B SWAP2 SWAP1 PUSH2 0x1DBD JUMP JUMPDEST PUSH4 0x1E13380 PUSH1 0x40 MLOAD DUP1 PUSH1 0x40 ADD PUSH1 0x40 MSTORE DUP1 PUSH1 0x1D DUP2 MSTORE PUSH1 0x20 ADD PUSH32 0x4572726F722063616E6E6F74206469766964652074696D657374616D70000000 DUP2 MSTORE POP PUSH2 0x17F8 JUMP JUMPDEST SWAP1 POP SWAP2 SWAP1 POP JUMP JUMPDEST PUSH1 0x0 DUP2 DUP4 PUSH2 0x17F0 SWAP2 SWAP1 PUSH2 0x1C9C JUMP JUMPDEST SWAP1 POP SWAP3 SWAP2 POP POP JUMP JUMPDEST PUSH1 0x0 DUP1 DUP4 GT DUP3 SWAP1 PUSH2 0x183F JUMPI PUSH1 0x40 MLOAD PUSH32 0x8C379A000000000000000000000000000000000000000000000000000000000 DUP2 MSTORE PUSH1 0x4 ADD PUSH2 0x1836 SWAP2 SWAP1 PUSH2 0x1E9F JUMP JUMPDEST PUSH1 0x40 MLOAD DUP1 SWAP2 SUB SWAP1 REVERT JUMPDEST POP DUP3 DUP5 DUP2 PUSH2 0x1850 JUMPI PUSH2 0x184F PUSH2 0x1D26 JUMP JUMPDEST JUMPDEST DIV SWAP1 POP SWAP4 SWAP3 POP POP POP JUMP JUMPDEST PUSH1 0x40 MLOAD DUP1 PUSH1 0x60 ADD PUSH1 0x40 MSTORE DUP1 PUSH1 0x0 DUP2 MSTORE PUSH1 0x20 ADD PUSH1 0x0 DUP2 MSTORE PUSH1 0x20 ADD PUSH2 0x187B PUSH2 0x1881 JUMP JUMPDEST DUP2 MSTORE POP SWAP1 JUMP JUMPDEST PUSH1 0x40 MLOAD DUP1 PUSH1 0xE0 ADD PUSH1 0x40 MSTORE DUP1 PUSH1 0x0 DUP2 MSTORE PUSH1 0x20 ADD PUSH1 0x0 DUP2 MSTORE PUSH1 0x20 ADD PUSH1 0x0 DUP2 MSTORE PUSH1 0x20 ADD PUSH1 0x0 DUP2 MSTORE PUSH1 0x20 ADD PUSH1 0x0 DUP2 MSTORE PUSH1 0x20 ADD PUSH1 0x0 DUP2 MSTORE PUSH1 0x20 ADD PUSH1 0x0 DUP2 MSTORE POP SWAP1 JUMP JUMPDEST PUSH1 0x0 DUP2 SWAP1 POP SWAP2 SWAP1 POP JUMP JUMPDEST PUSH2 0x18D1 DUP2 PUSH2 0x18BE JUMP JUMPDEST DUP3 MSTORE POP POP JUMP JUMPDEST PUSH1 0xE0 DUP3 ADD PUSH1 0x0 DUP3 ADD MLOAD PUSH2 0x18ED PUSH1 0x0 DUP6 ADD DUP3 PUSH2 0x18C8 JUMP JUMPDEST POP PUSH1 0x20 DUP3 ADD MLOAD PUSH2 0x1900 PUSH1 0x20 DUP6 ADD DUP3 PUSH2 0x18C8 JUMP JUMPDEST POP PUSH1 0x40 DUP3 ADD MLOAD PUSH2 0x1913 PUSH1 0x40 DUP6 ADD DUP3 PUSH2 0x18C8 JUMP JUMPDEST POP PUSH1 0x60 DUP3 ADD MLOAD PUSH2 0x1926 PUSH1 0x60 DUP6 ADD DUP3 PUSH2 0x18C8 JUMP JUMPDEST POP PUSH1 0x80 DUP3 ADD MLOAD PUSH2 0x1939 PUSH1 0x80 DUP6 ADD DUP3 PUSH2 0x18C8 JUMP JUMPDEST POP PUSH1 0xA0 DUP3 ADD MLOAD PUSH2 0x194C PUSH1 0xA0 DUP6 ADD DUP3 PUSH2 0x18C8 JUMP JUMPDEST POP PUSH1 0xC0 DUP3 ADD MLOAD PUSH2 0x195F PUSH1 0xC0 DUP6 ADD DUP3 PUSH2 0x18C8 JUMP JUMPDEST POP POP POP POP JUMP JUMPDEST PUSH2 0x120 DUP3 ADD PUSH1 0x0 DUP3 ADD MLOAD PUSH2 0x197C PUSH1 0x0 DUP6 ADD DUP3 PUSH2 0x18C8 JUMP JUMPDEST POP PUSH1 0x20 DUP3 ADD MLOAD PUSH2 0x198F PUSH1 0x20 DUP6 ADD DUP3 PUSH2 0x18C8 JUMP JUMPDEST POP PUSH1 0x40 DUP3 ADD MLOAD PUSH2 0x19A2 PUSH1 0x40 DUP6 ADD DUP3 PUSH2 0x18D7 JUMP JUMPDEST POP POP POP POP JUMP JUMPDEST PUSH1 0x0 PUSH2 0x120 DUP3 ADD SWAP1 POP PUSH2 0x19BE PUSH1 0x0 DUP4 ADD DUP5 PUSH2 0x1965 JUMP JUMPDEST SWAP3 SWAP2 POP POP JUMP JUMPDEST PUSH1 0x0 DUP1 REVERT JUMPDEST PUSH1 0x0 PUSH20 0xFFFFFFFFFFFFFFFFFFFFFFFFFFFFFFFFFFFFFFFF DUP3 AND SWAP1 POP SWAP2 SWAP1 POP JUMP JUMPDEST PUSH1 0x0 PUSH2 0x19F4 DUP3 PUSH2 0x19C9 JUMP JUMPDEST SWAP1 POP SWAP2 SWAP1 POP JUMP JUMPDEST PUSH2 0x1A04 DUP2 PUSH2 0x19E9 JUMP JUMPDEST DUP2 EQ PUSH2 0x1A0F JUMPI PUSH1 0x0 DUP1 REVERT JUMPDEST POP JUMP JUMPDEST PUSH1 0x0 DUP2 CALLDATALOAD SWAP1 POP PUSH2 0x1A21 DUP2 PUSH2 0x19FB JUMP JUMPDEST SWAP3 SWAP2 POP POP JUMP JUMPDEST PUSH1 0x0 PUSH1 0x20 DUP3 DUP5 SUB SLT ISZERO PUSH2 0x1A3D JUMPI PUSH2 0x1A3C PUSH2 0x19C4 JUMP JUMPDEST JUMPDEST PUSH1 0x0 PUSH2 0x1A4B DUP5 DUP3 DUP6 ADD PUSH2 0x1A12 JUMP JUMPDEST SWAP2 POP POP SWAP3 SWAP2 POP POP JUMP JUMPDEST PUSH1 0x0 DUP2 ISZERO ISZERO SWAP1 POP SWAP2 SWAP1 POP JUMP JUMPDEST PUSH2 0x1A69 DUP2 PUSH2 0x1A54 JUMP JUMPDEST DUP3 MSTORE POP POP JUMP JUMPDEST PUSH1 0x0 PUSH1 0x40 DUP3 ADD SWAP1 POP PUSH2 0x1A84 PUSH1 0x0 DUP4 ADD DUP6 PUSH2 0x1A60 JUMP JUMPDEST PUSH2 0x1A91 PUSH1 0x20 DUP4 ADD DUP5 PUSH2 0x1A60 JUMP JUMPDEST SWAP4 SWAP3 POP POP POP JUMP JUMPDEST PUSH2 0x1AA1 DUP2 PUSH2 0x19E9 JUMP JUMPDEST DUP3 MSTORE POP POP JUMP JUMPDEST PUSH1 0x0 PUSH1 0x20 DUP3 ADD SWAP1 POP PUSH2 0x1ABC PUSH1 0x0 DUP4 ADD DUP5 PUSH2 0x1A98 JUMP JUMPDEST SWAP3 SWAP2 POP POP JUMP JUMPDEST PUSH2 0x1ACB DUP2 PUSH2 0x18BE JUMP JUMPDEST DUP3 MSTORE POP POP JUMP JUMPDEST PUSH1 0x0 PUSH1 0x20 DUP3 ADD SWAP1 POP PUSH2 0x1AE6 PUSH1 0x0 DUP4 ADD DUP5 PUSH2 0x1AC2 JUMP JUMPDEST SWAP3 SWAP2 POP POP JUMP JUMPDEST PUSH1 0x0 PUSH1 0x20 DUP3 ADD SWAP1 POP PUSH2 0x1B01 PUSH1 0x0 DUP4 ADD DUP5 PUSH2 0x1A60 JUMP JUMPDEST SWAP3 SWAP2 POP POP JUMP JUMPDEST PUSH2 0x1B10 DUP2 PUSH2 0x18BE JUMP JUMPDEST DUP2 EQ PUSH2 0x1B1B JUMPI PUSH1 0x0 DUP1 REVERT JUMPDEST POP JUMP JUMPDEST PUSH1 0x0 DUP2 CALLDATALOAD SWAP1 POP PUSH2 0x1B2D DUP2 PUSH2 0x1B07 JUMP JUMPDEST SWAP3 SWAP2 POP POP JUMP JUMPDEST PUSH1 0x0 PUSH1 0x20 DUP3 DUP5 SUB SLT ISZERO PUSH2 0x1B49 JUMPI PUSH2 0x1B48 PUSH2 0x19C4 JUMP JUMPDEST JUMPDEST PUSH1 0x0 PUSH2 0x1B57 DUP5 DUP3 DUP6 ADD PUSH2 0x1B1E JUMP JUMPDEST SWAP2 POP POP SWAP3 SWAP2 POP POP JUMP JUMPDEST PUSH1 0x0 PUSH1 0x40 DUP3 ADD SWAP1 POP PUSH2 0x1B75 PUSH1 0x0 DUP4 ADD DUP6 PUSH2 0x1AC2 JUMP JUMPDEST PUSH2 0x1B82 PUSH1 0x20 DUP4 ADD DUP5 PUSH2 0x1AC2 JUMP JUMPDEST SWAP4 SWAP3 POP POP POP JUMP JUMPDEST PUSH1 0x0 DUP1 PUSH1 0x0 DUP1 PUSH1 0x80 DUP6 DUP8 SUB SLT ISZERO PUSH2 0x1BA3 JUMPI PUSH2 0x1BA2 PUSH2 0x19C4 JUMP JUMPDEST JUMPDEST PUSH1 0x0 PUSH2 0x1BB1 DUP8 DUP3 DUP9 ADD PUSH2 0x1A12 JUMP JUMPDEST SWAP5 POP POP PUSH1 0x20 PUSH2 0x1BC2 DUP8 DUP3 DUP9 ADD PUSH2 0x1B1E JUMP JUMPDEST SWAP4 POP POP PUSH1 0x40 PUSH2 0x1BD3 DUP8 DUP3 DUP9 ADD PUSH2 0x1B1E JUMP JUMPDEST SWAP3 POP POP PUSH1 0x60 PUSH2 0x1BE4 DUP8 DUP3 DUP9 ADD PUSH2 0x1B1E JUMP JUMPDEST SWAP2 POP POP SWAP3 SWAP6 SWAP2 SWAP5 POP SWAP3 POP JUMP JUMPDEST PUSH1 0x0 DUP3 DUP3 MSTORE PUSH1 0x20 DUP3 ADD SWAP1 POP SWAP3 SWAP2 POP POP JUMP JUMPDEST PUSH32 0x5265656E7472616E637947756172643A207265656E7472616E742063616C6C00 PUSH1 0x0 DUP3 ADD MSTORE POP JUMP JUMPDEST PUSH1 0x0 PUSH2 0x1C37 PUSH1 0x1F DUP4 PUSH2 0x1BF0 JUMP JUMPDEST SWAP2 POP PUSH2 0x1C42 DUP3 PUSH2 0x1C01 JUMP JUMPDEST PUSH1 0x20 DUP3 ADD SWAP1 POP SWAP2 SWAP1 POP JUMP JUMPDEST PUSH1 0x0 PUSH1 0x20 DUP3 ADD SWAP1 POP DUP2 DUP2 SUB PUSH1 0x0 DUP4 ADD MSTORE PUSH2 0x1C66 DUP2 PUSH2 0x1C2A JUMP JUMPDEST SWAP1 POP SWAP2 SWAP1 POP JUMP JUMPDEST PUSH32 0x4E487B7100000000000000000000000000000000000000000000000000000000 PUSH1 0x0 MSTORE PUSH1 0x11 PUSH1 0x4 MSTORE PUSH1 0x24 PUSH1 0x0 REVERT JUMPDEST PUSH1 0x0 PUSH2 0x1CA7 DUP3 PUSH2 0x18BE JUMP JUMPDEST SWAP2 POP PUSH2 0x1CB2 DUP4 PUSH2 0x18BE JUMP JUMPDEST SWAP3 POP DUP3 DUP3 LT ISZERO PUSH2 0x1CC5 JUMPI PUSH2 0x1CC4 PUSH2 0x1C6D JUMP JUMPDEST JUMPDEST DUP3 DUP3 SUB SWAP1 POP SWAP3 SWAP2 POP POP JUMP JUMPDEST PUSH1 0x0 PUSH2 0x1CDB DUP3 PUSH2 0x18BE JUMP JUMPDEST SWAP2 POP PUSH2 0x1CE6 DUP4 PUSH2 0x18BE JUMP JUMPDEST SWAP3 POP DUP3 PUSH32 0xFFFFFFFFFFFFFFFFFFFFFFFFFFFFFFFFFFFFFFFFFFFFFFFFFFFFFFFFFFFFFFFF SUB DUP3 GT ISZERO PUSH2 0x1D1B JUMPI PUSH2 0x1D1A PUSH2 0x1C6D JUMP JUMPDEST JUMPDEST DUP3 DUP3 ADD SWAP1 POP SWAP3 SWAP2 POP POP JUMP JUMPDEST PUSH32 0x4E487B7100000000000000000000000000000000000000000000000000000000 PUSH1 0x0 MSTORE PUSH1 0x12 PUSH1 0x4 MSTORE PUSH1 0x24 PUSH1 0x0 REVERT JUMPDEST PUSH1 0x0 PUSH2 0x1D60 DUP3 PUSH2 0x18BE JUMP JUMPDEST SWAP2 POP PUSH2 0x1D6B DUP4 PUSH2 0x18BE JUMP JUMPDEST SWAP3 POP DUP3 PUSH2 0x1D7B JUMPI PUSH2 0x1D7A PUSH2 0x1D26 JUMP JUMPDEST JUMPDEST DUP3 DUP3 DIV SWAP1 POP SWAP3 SWAP2 POP POP JUMP JUMPDEST PUSH1 0x0 PUSH1 0x60 DUP3 ADD SWAP1 POP PUSH2 0x1D9B PUSH1 0x0 DUP4 ADD DUP7 PUSH2 0x1AC2 JUMP JUMPDEST PUSH2 0x1DA8 PUSH1 0x20 DUP4 ADD DUP6 PUSH2 0x1AC2 JUMP JUMPDEST PUSH2 0x1DB5 PUSH1 0x40 DUP4 ADD DUP5 PUSH2 0x1AC2 JUMP JUMPDEST SWAP5 SWAP4 POP POP POP POP JUMP JUMPDEST PUSH1 0x0 PUSH2 0x1DC8 DUP3 PUSH2 0x18BE JUMP JUMPDEST SWAP2 POP PUSH2 0x1DD3 DUP4 PUSH2 0x18BE JUMP JUMPDEST SWAP3 POP DUP2 PUSH32 0xFFFFFFFFFFFFFFFFFFFFFFFFFFFFFFFFFFFFFFFFFFFFFFFFFFFFFFFFFFFFFFFF DIV DUP4 GT DUP3 ISZERO ISZERO AND ISZERO PUSH2 0x1E0C JUMPI PUSH2 0x1E0B PUSH2 0x1C6D JUMP JUMPDEST JUMPDEST DUP3 DUP3 MUL SWAP1 POP SWAP3 SWAP2 POP POP JUMP JUMPDEST PUSH1 0x0 DUP2 MLOAD SWAP1 POP SWAP2 SWAP1 POP JUMP JUMPDEST PUSH1 0x0 JUMPDEST DUP4 DUP2 LT ISZERO PUSH2 0x1E40 JUMPI DUP1 DUP3 ADD MLOAD DUP2 DUP5 ADD MSTORE PUSH1 0x20 DUP2 ADD SWAP1 POP PUSH2 0x1E25 JUMP JUMPDEST DUP4 DUP2 GT ISZERO PUSH2 0x1E4F JUMPI PUSH1 0x0 DUP5 DUP5 ADD MSTORE JUMPDEST POP POP POP POP JUMP JUMPDEST PUSH1 0x0 PUSH1 0x1F NOT PUSH1 0x1F DUP4 ADD AND SWAP1 POP SWAP2 SWAP1 POP JUMP JUMPDEST PUSH1 0x0 PUSH2 0x1E71 DUP3 PUSH2 0x1E17 JUMP JUMPDEST PUSH2 0x1E7B DUP2 DUP6 PUSH2 0x1BF0 JUMP JUMPDEST SWAP4 POP PUSH2 0x1E8B DUP2 DUP6 PUSH1 0x20 DUP7 ADD PUSH2 0x1E22 JUMP JUMPDEST PUSH2 0x1E94 DUP2 PUSH2 0x1E55 JUMP JUMPDEST DUP5 ADD SWAP2 POP POP SWAP3 SWAP2 POP POP JUMP JUMPDEST PUSH1 0x0 PUSH1 0x20 DUP3 ADD SWAP1 POP DUP2 DUP2 SUB PUSH1 0x0 DUP4 ADD MSTORE PUSH2 0x1EB9 DUP2 DUP5 PUSH2 0x1E66 JUMP JUMPDEST SWAP1 POP SWAP3 SWAP2 POP POP JUMP INVALID LOG2 PUSH5 0x6970667358 0x22 SLT KECCAK256 0xED 0x49 0xBA SLOAD DELEGATECALL COINBASE RETURN 0x2B PUSH22 0xFAA77F3AF7D3CDBF0397A5EE369570CCB9EFE0668434 SUB PUSH5 0x736F6C6343 STOP ADDMOD SIGNEXTEND STOP CALLER "
				},
				"gasEstimates": {
					"creation": {
						"codeDepositCost": "1585400",
						"executionCost": "116533",
						"totalCost": "1701933"
					},
					"external": {
						"_owner()": "2625",
						"_talax()": "2537",
						"airdropRate()": "2452",
						"airdropSince()": "2562",
						"airdropWeek()": "infinite",
						"changeAirdropPercentage(uint256)": "infinite",
						"changePenaltyFee(uint256)": "infinite",
						"changeTalaxAddress(address)": "26984",
						"claimAirdrop(address)": "infinite",
						"getVoters(address)": "infinite",
						"getVotingResult()": "infinite",
						"hasStake()": "infinite",
						"retractVote()": "infinite",
						"stake(address,uint256,uint256,uint256)": "infinite",
						"stakingPenaltyRate()": "2473",
						"startAirdropSince()": "24584",
						"startVoting()": "infinite",
						"stopVoting()": "28914",
						"totalVoters()": "2474",
						"vote()": "infinite",
						"votedUsers(uint256)": "infinite",
						"voters(address)": "2959",
						"withdrawStake(address)": "infinite"
					},
					"internal": {
						"_calculateAirdrop(uint256)": "infinite",
						"_calculateStakeReward(struct Stakable.Stake memory)": "infinite",
						"_calculateStakingDuration(uint256)": "infinite",
						"_calculateStakingWithPenalty(uint256,uint256)": "infinite",
						"_calculateWeek(uint256)": "infinite",
						"_checkVotingStatus()": "infinite",
						"_isVoter()": "infinite",
						"isOwner()": "infinite",
						"isTalax()": "infinite"
					}
				},
				"methodIdentifiers": {
					"_owner()": "b2bdfa7b",
					"_talax()": "5f348b4e",
					"airdropRate()": "8891cf0d",
					"airdropSince()": "b87da76d",
					"airdropWeek()": "cbb3e152",
					"changeAirdropPercentage(uint256)": "d5dbdf1b",
					"changePenaltyFee(uint256)": "8c63f97f",
					"changeTalaxAddress(address)": "1d77b00b",
					"claimAirdrop(address)": "65f8c6c5",
					"getVoters(address)": "2d15cc04",
					"getVotingResult()": "671d2b75",
					"hasStake()": "10486b6a",
					"retractVote()": "070c8b74",
					"stake(address,uint256,uint256,uint256)": "f93d4f8a",
					"stakingPenaltyRate()": "cb79c2e1",
					"startAirdropSince()": "71e3db87",
					"startVoting()": "1ec6b60a",
					"stopVoting()": "fab2f86b",
					"totalVoters()": "5f5300ff",
					"vote()": "632a9a52",
					"votedUsers(uint256)": "a143a5f2",
					"voters(address)": "a3ec138d",
					"withdrawStake(address)": "c23a5cea"
				}
			},
			"storageLayout": {
				"storage": [
					{
						"astId": 10,
						"contract": "contracts/Stakable.sol:Stakable",
						"label": "_status",
						"offset": 0,
						"slot": "0",
						"type": "t_uint256"
					},
					{
						"astId": 399,
						"contract": "contracts/Stakable.sol:Stakable",
						"label": "stakingPenaltyRate",
						"offset": 0,
						"slot": "1",
						"type": "t_uint256"
					},
					{
						"astId": 401,
						"contract": "contracts/Stakable.sol:Stakable",
						"label": "airdropRate",
						"offset": 0,
						"slot": "2",
						"type": "t_uint256"
					},
					{
						"astId": 403,
						"contract": "contracts/Stakable.sol:Stakable",
						"label": "airdropSince",
						"offset": 0,
						"slot": "3",
						"type": "t_uint256"
					},
					{
						"astId": 405,
						"contract": "contracts/Stakable.sol:Stakable",
						"label": "_votingStatus",
						"offset": 0,
						"slot": "4",
						"type": "t_bool"
					},
					{
						"astId": 407,
						"contract": "contracts/Stakable.sol:Stakable",
						"label": "_votingId",
						"offset": 0,
						"slot": "5",
						"type": "t_uint256"
					},
					{
						"astId": 409,
						"contract": "contracts/Stakable.sol:Stakable",
						"label": "totalVoters",
						"offset": 0,
						"slot": "6",
						"type": "t_uint256"
					},
					{
						"astId": 414,
						"contract": "contracts/Stakable.sol:Stakable",
						"label": "voters",
						"offset": 0,
						"slot": "7",
						"type": "t_mapping(t_address,t_struct(Voter)397_storage)"
					},
					{
						"astId": 418,
						"contract": "contracts/Stakable.sol:Stakable",
						"label": "votedUsers",
						"offset": 0,
						"slot": "8",
						"type": "t_mapping(t_uint256,t_uint256)"
					},
					{
						"astId": 420,
						"contract": "contracts/Stakable.sol:Stakable",
						"label": "_talax",
						"offset": 0,
						"slot": "9",
						"type": "t_address"
					},
					{
						"astId": 422,
						"contract": "contracts/Stakable.sol:Stakable",
						"label": "_owner",
						"offset": 0,
						"slot": "10",
						"type": "t_address"
					},
					{
						"astId": 473,
						"contract": "contracts/Stakable.sol:Stakable",
						"label": "stakeholders",
						"offset": 0,
						"slot": "11",
						"type": "t_mapping(t_address,t_struct(Stake)459_storage)"
					}
				],
				"types": {
					"t_address": {
						"encoding": "inplace",
						"label": "address",
						"numberOfBytes": "20"
					},
					"t_bool": {
						"encoding": "inplace",
						"label": "bool",
						"numberOfBytes": "1"
					},
					"t_mapping(t_address,t_struct(Stake)459_storage)": {
						"encoding": "mapping",
						"key": "t_address",
						"label": "mapping(address => struct Stakable.Stake)",
						"numberOfBytes": "32",
						"value": "t_struct(Stake)459_storage"
					},
					"t_mapping(t_address,t_struct(Voter)397_storage)": {
						"encoding": "mapping",
						"key": "t_address",
						"label": "mapping(address => struct Stakable.Voter)",
						"numberOfBytes": "32",
						"value": "t_struct(Voter)397_storage"
					},
					"t_mapping(t_uint256,t_bool)": {
						"encoding": "mapping",
						"key": "t_uint256",
						"label": "mapping(uint256 => bool)",
						"numberOfBytes": "32",
						"value": "t_bool"
					},
					"t_mapping(t_uint256,t_uint256)": {
						"encoding": "mapping",
						"key": "t_uint256",
						"label": "mapping(uint256 => uint256)",
						"numberOfBytes": "32",
						"value": "t_uint256"
					},
					"t_struct(Stake)459_storage": {
						"encoding": "inplace",
						"label": "struct Stakable.Stake",
						"members": [
							{
								"astId": 446,
								"contract": "contracts/Stakable.sol:Stakable",
								"label": "amount",
								"offset": 0,
								"slot": "0",
								"type": "t_uint256"
							},
							{
								"astId": 448,
								"contract": "contracts/Stakable.sol:Stakable",
								"label": "since",
								"offset": 0,
								"slot": "1",
								"type": "t_uint256"
							},
							{
								"astId": 450,
								"contract": "contracts/Stakable.sol:Stakable",
								"label": "rewardAPY",
								"offset": 0,
								"slot": "2",
								"type": "t_uint256"
							},
							{
								"astId": 452,
								"contract": "contracts/Stakable.sol:Stakable",
								"label": "releaseTime",
								"offset": 0,
								"slot": "3",
								"type": "t_uint256"
							},
							{
								"astId": 454,
								"contract": "contracts/Stakable.sol:Stakable",
								"label": "claimable",
								"offset": 0,
								"slot": "4",
								"type": "t_uint256"
							},
							{
								"astId": 456,
								"contract": "contracts/Stakable.sol:Stakable",
								"label": "claimableAirdrop",
								"offset": 0,
								"slot": "5",
								"type": "t_uint256"
							},
							{
								"astId": 458,
								"contract": "contracts/Stakable.sol:Stakable",
								"label": "latestClaimDrop",
								"offset": 0,
								"slot": "6",
								"type": "t_uint256"
							}
						],
						"numberOfBytes": "224"
					},
					"t_struct(Voter)397_storage": {
						"encoding": "inplace",
						"label": "struct Stakable.Voter",
						"members": [
							{
								"astId": 392,
								"contract": "contracts/Stakable.sol:Stakable",
								"label": "votingRight",
								"offset": 0,
								"slot": "0",
								"type": "t_bool"
							},
							{
								"astId": 396,
								"contract": "contracts/Stakable.sol:Stakable",
								"label": "voted",
								"offset": 0,
								"slot": "1",
								"type": "t_mapping(t_uint256,t_bool)"
							}
						],
						"numberOfBytes": "64"
					},
					"t_uint256": {
						"encoding": "inplace",
						"label": "uint256",
						"numberOfBytes": "32"
					}
				}
			},
			"userdoc": {
				"errors": {
					"Airdrop__claimableOnceAWeek()": [
						{
							"notice": "Error handling message for Airdrop functions"
						}
					],
					"Function__notAuthorized()": [
						{
							"notice": "Error handling message for Modifier"
						}
					],
					"Staking__cannotStakeNothing()": [
						{
							"notice": "Error handling message for Staking functions"
						}
					],
					"Voting__votingIsRunning()": [
						{
							"notice": "Error handling message for Voting functions"
						}
					]
				},
				"events": {
					"Staked(address,uint256,uint256,uint256)": {
						"notice": "Staked event is triggered whenever a user stakes tokens, address is indexed to make it filterable"
					}
				},
				"kind": "user",
				"methods": {
					"stake(address,uint256,uint256,uint256)": {
						"notice": "_Stake is used to make a stake for an sender. It will remove the amount staked from the stakers account and place those tokens inside a stake container StakeID"
					},
					"withdrawStake(address)": {
						"notice": "withdrawStake takes in an amount and a index of the stake and will remove tokens from that stake Notice index of the stake is the users stake counter, starting at 0 for the first stake Will return the amount to MINT onto the account Will also _calculateStakeReward and reset timer"
					}
				},
				"version": 1
			}
		}
	}
}