{
	"contracts/VestingWallet.sol": {
		"VestingWallet": {
			"abi": [
				{
					"inputs": [
						{
							"internalType": "address",
							"name": "beneficiaryAddress",
							"type": "address"
						},
						{
							"internalType": "uint64",
							"name": "startTimestamp",
							"type": "uint64"
						},
						{
							"internalType": "uint64",
							"name": "durationSeconds",
							"type": "uint64"
						}
					],
					"stateMutability": "payable",
					"type": "constructor"
				},
				{
					"anonymous": false,
					"inputs": [
						{
							"indexed": true,
							"internalType": "address",
							"name": "token",
							"type": "address"
						},
						{
							"indexed": false,
							"internalType": "uint256",
							"name": "amount",
							"type": "uint256"
						}
					],
					"name": "ERC20Released",
					"type": "event"
				},
				{
					"anonymous": false,
					"inputs": [
						{
							"indexed": false,
							"internalType": "uint256",
							"name": "amount",
							"type": "uint256"
						}
					],
					"name": "EtherReleased",
					"type": "event"
				},
				{
					"inputs": [],
					"name": "beneficiary",
					"outputs": [
						{
							"internalType": "address",
							"name": "",
							"type": "address"
						}
					],
					"stateMutability": "view",
					"type": "function"
				},
				{
					"inputs": [],
					"name": "duration",
					"outputs": [
						{
							"internalType": "uint256",
							"name": "",
							"type": "uint256"
						}
					],
					"stateMutability": "view",
					"type": "function"
				},
				{
					"inputs": [
						{
							"internalType": "address",
							"name": "token",
							"type": "address"
						}
					],
					"name": "releasable",
					"outputs": [
						{
							"internalType": "uint256",
							"name": "",
							"type": "uint256"
						}
					],
					"stateMutability": "view",
					"type": "function"
				},
				{
					"inputs": [],
					"name": "releasable",
					"outputs": [
						{
							"internalType": "uint256",
							"name": "",
							"type": "uint256"
						}
					],
					"stateMutability": "view",
					"type": "function"
				},
				{
					"inputs": [
						{
							"internalType": "address",
							"name": "token",
							"type": "address"
						}
					],
					"name": "release",
					"outputs": [],
					"stateMutability": "nonpayable",
					"type": "function"
				},
				{
					"inputs": [],
					"name": "release",
					"outputs": [],
					"stateMutability": "nonpayable",
					"type": "function"
				},
				{
					"inputs": [],
					"name": "released",
					"outputs": [
						{
							"internalType": "uint256",
							"name": "",
							"type": "uint256"
						}
					],
					"stateMutability": "view",
					"type": "function"
				},
				{
					"inputs": [
						{
							"internalType": "address",
							"name": "token",
							"type": "address"
						}
					],
					"name": "released",
					"outputs": [
						{
							"internalType": "uint256",
							"name": "",
							"type": "uint256"
						}
					],
					"stateMutability": "view",
					"type": "function"
				},
				{
					"inputs": [],
					"name": "start",
					"outputs": [
						{
							"internalType": "uint256",
							"name": "",
							"type": "uint256"
						}
					],
					"stateMutability": "view",
					"type": "function"
				},
				{
					"inputs": [
						{
							"internalType": "uint64",
							"name": "timestamp",
							"type": "uint64"
						}
					],
					"name": "vestedAmount",
					"outputs": [
						{
							"internalType": "uint256",
							"name": "",
							"type": "uint256"
						}
					],
					"stateMutability": "view",
					"type": "function"
				},
				{
					"inputs": [
						{
							"internalType": "address",
							"name": "token",
							"type": "address"
						},
						{
							"internalType": "uint64",
							"name": "timestamp",
							"type": "uint64"
						}
					],
					"name": "vestedAmount",
					"outputs": [
						{
							"internalType": "uint256",
							"name": "",
							"type": "uint256"
						}
					],
					"stateMutability": "view",
					"type": "function"
				},
				{
					"stateMutability": "payable",
					"type": "receive"
				}
			],
			"devdoc": {
				"details": "This contract handles the vesting of Eth and ERC20 tokens for a given beneficiary. Custody of multiple tokens can be given to this contract, which will release the token to the beneficiary following a given vesting schedule. The vesting schedule is customizable through the {vestedAmount} function. Any token transferred to this contract will follow the vesting schedule as if they were locked from the beginning. Consequently, if the vesting has already started, any amount of tokens sent to this contract will (at least partly) be immediately releasable.",
				"kind": "dev",
				"methods": {
					"beneficiary()": {
						"details": "Getter for the beneficiary address."
					},
					"constructor": {
						"details": "Set the beneficiary, start timestamp and vesting duration of the vesting wallet."
					},
					"duration()": {
						"details": "Getter for the vesting duration."
					},
					"releasable()": {
						"details": "Getter for the amount of releasable eth."
					},
					"releasable(address)": {
						"details": "Getter for the amount of releasable `token` tokens. `token` should be the address of an IERC20 contract."
					},
					"release()": {
						"details": "Release the native token (ether) that have already vested. Emits a {EtherReleased} event."
					},
					"release(address)": {
						"details": "Release the tokens that have already vested. Emits a {ERC20Released} event."
					},
					"released()": {
						"details": "Amount of eth already released"
					},
					"released(address)": {
						"details": "Amount of token already released"
					},
					"start()": {
						"details": "Getter for the start timestamp."
					},
					"vestedAmount(address,uint64)": {
						"details": "Calculates the amount of tokens that has already vested. Default implementation is a linear vesting curve."
					},
					"vestedAmount(uint64)": {
						"details": "Calculates the amount of ether that has already vested. Default implementation is a linear vesting curve."
					}
				},
				"title": "VestingWallet",
				"version": 1
			},
			"evm": {
				"assembly": "    /* \"contracts/VestingWallet.sol\":937:6151  contract VestingWallet is Context {... */\n  mstore(0x40, 0xe0)\n    /* \"contracts/VestingWallet.sol\":1448:1836  constructor(... */\n  mload(0x40)\n  sub(codesize, bytecodeSize)\n  dup1\n  bytecodeSize\n  dup4\n  codecopy\n  dup2\n  add\n  0x40\n  dup2\n  swap1\n  mstore\n  tag_1\n  swap2\n  tag_2\n  jump\t// in\ntag_1:\n  sub(shl(0xa0, 0x01), 0x01)\n    /* \"contracts/VestingWallet.sol\":1610:1642  beneficiaryAddress != address(0) */\n  dup4\n  and\n    /* \"contracts/VestingWallet.sol\":1588:1712  require(... */\n  tag_5\n  jumpi\n  mload(0x40)\n  shl(0xe5, 0x461bcd)\n  dup2\n  mstore\n    /* \"#utility.yul\":857:859   */\n  0x20\n    /* \"contracts/VestingWallet.sol\":1588:1712  require(... */\n  0x04\n  dup3\n  add\n    /* \"#utility.yul\":839:860   */\n  mstore\n    /* \"#utility.yul\":896:898   */\n  0x2a\n    /* \"#utility.yul\":876:894   */\n  0x24\n  dup3\n  add\n    /* \"#utility.yul\":869:899   */\n  mstore\n    /* \"#utility.yul\":935:969   */\n  0x56657374696e6757616c6c65743a2062656e6566696369617279206973207a65\n    /* \"#utility.yul\":915:933   */\n  0x44\n  dup3\n  add\n    /* \"#utility.yul\":908:970   */\n  mstore\n  shl(0xb0, 0x726f2061646472657373)\n    /* \"#utility.yul\":986:1004   */\n  0x64\n  dup3\n  add\n    /* \"#utility.yul\":979:1019   */\n  mstore\n    /* \"#utility.yul\":1036:1055   */\n  0x84\n  add\n    /* \"contracts/VestingWallet.sol\":1588:1712  require(... */\n  mload(0x40)\n  dup1\n  swap2\n  sub\n  swap1\n  revert\ntag_5:\n  sub(shl(0xa0, 0x01), 0x01)\n    /* \"contracts/VestingWallet.sol\":1723:1756  _beneficiary = beneficiaryAddress */\n  swap1\n  swap3\n  and\n  0x80\n  mstore\n  sub(shl(0x40, 0x01), 0x01)\n    /* \"contracts/VestingWallet.sol\":1767:1790  _start = startTimestamp */\n  swap1\n  dup2\n  and\n  0xa0\n  mstore\n    /* \"contracts/VestingWallet.sol\":1801:1828  _duration = durationSeconds */\n  and\n  0xc0\n  mstore\n    /* \"contracts/VestingWallet.sol\":937:6151  contract VestingWallet is Context {... */\n  jump(tag_10)\n    /* \"#utility.yul\":14:189   */\ntag_9:\n    /* \"#utility.yul\":92:105   */\n  dup1\n  mload\n  sub(shl(0x40, 0x01), 0x01)\n    /* \"#utility.yul\":134:164   */\n  dup2\n  and\n    /* \"#utility.yul\":124:165   */\n  dup2\n  eq\n    /* \"#utility.yul\":114:183   */\n  tag_12\n  jumpi\n    /* \"#utility.yul\":179:180   */\n  0x00\n    /* \"#utility.yul\":176:177   */\n  dup1\n    /* \"#utility.yul\":169:181   */\n  revert\n    /* \"#utility.yul\":114:183   */\ntag_12:\n    /* \"#utility.yul\":14:189   */\n  swap2\n  swap1\n  pop\n  jump\t// out\n    /* \"#utility.yul\":194:650   */\ntag_2:\n    /* \"#utility.yul\":280:286   */\n  0x00\n    /* \"#utility.yul\":288:294   */\n  dup1\n    /* \"#utility.yul\":296:302   */\n  0x00\n    /* \"#utility.yul\":349:351   */\n  0x60\n    /* \"#utility.yul\":337:346   */\n  dup5\n    /* \"#utility.yul\":328:335   */\n  dup7\n    /* \"#utility.yul\":324:347   */\n  sub\n    /* \"#utility.yul\":320:352   */\n  slt\n    /* \"#utility.yul\":317:369   */\n  iszero\n  tag_14\n  jumpi\n    /* \"#utility.yul\":365:366   */\n  0x00\n    /* \"#utility.yul\":362:363   */\n  dup1\n    /* \"#utility.yul\":355:367   */\n  revert\n    /* \"#utility.yul\":317:369   */\ntag_14:\n    /* \"#utility.yul\":391:407   */\n  dup4\n  mload\n  sub(shl(0xa0, 0x01), 0x01)\n    /* \"#utility.yul\":436:467   */\n  dup2\n  and\n    /* \"#utility.yul\":426:468   */\n  dup2\n  eq\n    /* \"#utility.yul\":416:486   */\n  tag_15\n  jumpi\n    /* \"#utility.yul\":482:483   */\n  0x00\n    /* \"#utility.yul\":479:480   */\n  dup1\n    /* \"#utility.yul\":472:484   */\n  revert\n    /* \"#utility.yul\":416:486   */\ntag_15:\n    /* \"#utility.yul\":505:510   */\n  swap3\n  pop\n    /* \"#utility.yul\":529:577   */\n  tag_16\n    /* \"#utility.yul\":573:575   */\n  0x20\n    /* \"#utility.yul\":558:576   */\n  dup6\n  add\n    /* \"#utility.yul\":529:577   */\n  tag_9\n  jump\t// in\ntag_16:\n    /* \"#utility.yul\":519:577   */\n  swap2\n  pop\n    /* \"#utility.yul\":596:644   */\n  tag_17\n    /* \"#utility.yul\":640:642   */\n  0x40\n    /* \"#utility.yul\":629:638   */\n  dup6\n    /* \"#utility.yul\":625:643   */\n  add\n    /* \"#utility.yul\":596:644   */\n  tag_9\n  jump\t// in\ntag_17:\n    /* \"#utility.yul\":586:644   */\n  swap1\n  pop\n    /* \"#utility.yul\":194:650   */\n  swap3\n  pop\n  swap3\n  pop\n  swap3\n  jump\t// out\n    /* \"#utility.yul\":655:1061   */\ntag_10:\n    /* \"contracts/VestingWallet.sol\":937:6151  contract VestingWallet is Context {... */\n  mload(0x80)\n  mload(0xa0)\n  mload(0xc0)\n  codecopy(0x00, dataOffset(sub_0), dataSize(sub_0))\n  0x00\n  assignImmutable(\"0x42fa20e8c2fc174121a60bb5704cfd8579fc4a2698f9ae487d1310659094676e\")\n  0x00\n  assignImmutable(\"0x7017d9c97eaea77d01457db50e6363ce7b077b4a6becffdfbcdd71ef4a35f299\")\n  0x00\n  assignImmutable(\"0x229c1a869fa9219aaf3cffa1029c94731492e7db4f2bafdf90c8213837a49fd5\")\n  return(0x00, dataSize(sub_0))\nstop\n\nsub_0: assembly {\n        /* \"contracts/VestingWallet.sol\":937:6151  contract VestingWallet is Context {... */\n      mstore(0x40, 0x80)\n      jumpi(tag_1, lt(calldatasize, 0x04))\n      shr(0xe0, calldataload(0x00))\n      dup1\n      0x86d1a69f\n      gt\n      tag_14\n      jumpi\n      dup1\n      0xa3f8eace\n      gt\n      tag_15\n      jumpi\n      dup1\n      0xa3f8eace\n      eq\n      tag_11\n      jumpi\n      dup1\n      0xbe9a6555\n      eq\n      tag_12\n      jumpi\n      dup1\n      0xfbccedae\n      eq\n      tag_13\n      jumpi\n      0x00\n      dup1\n      revert\n    tag_15:\n      dup1\n      0x86d1a69f\n      eq\n      tag_8\n      jumpi\n      dup1\n      0x96132521\n      eq\n      tag_9\n      jumpi\n      dup1\n      0x9852595c\n      eq\n      tag_10\n      jumpi\n      0x00\n      dup1\n      revert\n    tag_14:\n      dup1\n      0x19165587\n      gt\n      tag_16\n      jumpi\n      dup1\n      0x19165587\n      eq\n      tag_5\n      jumpi\n      dup1\n      0x38af3eed\n      eq\n      tag_6\n      jumpi\n      dup1\n      0x810ec23b\n      eq\n      tag_7\n      jumpi\n      0x00\n      dup1\n      revert\n    tag_16:\n      dup1\n      0x0a17b06b\n      eq\n      tag_3\n      jumpi\n      dup1\n      0x0fb5a6b4\n      eq\n      tag_4\n      jumpi\n      0x00\n      dup1\n      revert\n    tag_1:\n      jumpi(tag_2, calldatasize)\n      stop\n    tag_2:\n      0x00\n      dup1\n      revert\n        /* \"contracts/VestingWallet.sol\":4871:5079  function vestedAmount(uint64 timestamp)... */\n    tag_3:\n      callvalue\n      dup1\n      iszero\n      tag_19\n      jumpi\n      0x00\n      dup1\n      revert\n    tag_19:\n      pop\n      tag_20\n      tag_21\n      calldatasize\n      0x04\n      tag_22\n      jump\t// in\n    tag_21:\n      tag_23\n      jump\t// in\n    tag_20:\n      mload(0x40)\n        /* \"#utility.yul\":525:550   */\n      swap1\n      dup2\n      mstore\n        /* \"#utility.yul\":513:515   */\n      0x20\n        /* \"#utility.yul\":498:516   */\n      add\n        /* \"contracts/VestingWallet.sol\":4871:5079  function vestedAmount(uint64 timestamp)... */\n    tag_24:\n      mload(0x40)\n      dup1\n      swap2\n      sub\n      swap1\n      return\n        /* \"contracts/VestingWallet.sol\":2360:2453  function duration() public view virtual returns (uint256) {... */\n    tag_4:\n      callvalue\n      dup1\n      iszero\n      tag_26\n      jumpi\n      0x00\n      dup1\n      revert\n    tag_26:\n      pop\n        /* \"contracts/VestingWallet.sol\":2436:2445  _duration */\n      immutable(\"0x42fa20e8c2fc174121a60bb5704cfd8579fc4a2698f9ae487d1310659094676e\")\n        /* \"contracts/VestingWallet.sol\":2429:2445  return _duration */\n      0xffffffffffffffff\n      and\n        /* \"contracts/VestingWallet.sol\":2360:2453  function duration() public view virtual returns (uint256) {... */\n      jump(tag_20)\n        /* \"contracts/VestingWallet.sol\":4050:4416  function release(address token) public virtual {... */\n    tag_5:\n      callvalue\n      dup1\n      iszero\n      tag_30\n      jumpi\n      0x00\n      dup1\n      revert\n    tag_30:\n      pop\n      tag_31\n      tag_32\n      calldatasize\n      0x04\n      tag_33\n      jump\t// in\n    tag_32:\n      tag_34\n      jump\t// in\n    tag_31:\n      stop\n        /* \"contracts/VestingWallet.sol\":2031:2130  function beneficiary() public view virtual returns (address) {... */\n    tag_6:\n      callvalue\n      dup1\n      iszero\n      tag_35\n      jumpi\n      0x00\n      dup1\n      revert\n    tag_35:\n      pop\n      mload(0x40)\n      sub(shl(0xa0, 0x01), 0x01)\n        /* \"contracts/VestingWallet.sol\":2110:2122  _beneficiary */\n      immutable(\"0x229c1a869fa9219aaf3cffa1029c94731492e7db4f2bafdf90c8213837a49fd5\")\n        /* \"#utility.yul\":1117:1172   */\n      and\n        /* \"#utility.yul\":1099:1173   */\n      dup2\n      mstore\n        /* \"#utility.yul\":1087:1089   */\n      0x20\n        /* \"#utility.yul\":1072:1090   */\n      add\n        /* \"contracts/VestingWallet.sol\":2031:2130  function beneficiary() public view virtual returns (address) {... */\n      tag_24\n        /* \"#utility.yul\":953:1179   */\n      jump\n        /* \"contracts/VestingWallet.sol\":5225:5532  function vestedAmount(address token, uint64 timestamp)... */\n    tag_7:\n      callvalue\n      dup1\n      iszero\n      tag_40\n      jumpi\n      0x00\n      dup1\n      revert\n    tag_40:\n      pop\n      tag_20\n      tag_42\n      calldatasize\n      0x04\n      tag_43\n      jump\t// in\n    tag_42:\n      tag_44\n      jump\t// in\n        /* \"contracts/VestingWallet.sol\":3481:3690  function release() public virtual {... */\n    tag_8:\n      callvalue\n      dup1\n      iszero\n      tag_46\n      jumpi\n      0x00\n      dup1\n      revert\n    tag_46:\n      pop\n      tag_31\n      tag_48\n      jump\t// in\n        /* \"contracts/VestingWallet.sol\":2523:2616  function released() public view virtual returns (uint256) {... */\n    tag_9:\n      callvalue\n      dup1\n      iszero\n      tag_49\n      jumpi\n      0x00\n      dup1\n      revert\n    tag_49:\n      pop\n        /* \"contracts/VestingWallet.sol\":2572:2579  uint256 */\n      0x00\n        /* \"contracts/VestingWallet.sol\":2599:2608  _released */\n      sload\n        /* \"contracts/VestingWallet.sol\":2523:2616  function released() public view virtual returns (uint256) {... */\n      jump(tag_20)\n        /* \"contracts/VestingWallet.sol\":2688:2807  function released(address token) public view  virtual returns (uint256) {... */\n    tag_10:\n      callvalue\n      dup1\n      iszero\n      tag_53\n      jumpi\n      0x00\n      dup1\n      revert\n    tag_53:\n      pop\n      tag_20\n      tag_55\n      calldatasize\n      0x04\n      tag_33\n      jump\t// in\n    tag_55:\n      sub(shl(0xa0, 0x01), 0x01)\n        /* \"contracts/VestingWallet.sol\":2778:2799  _erc20Released[token] */\n      and\n        /* \"contracts/VestingWallet.sol\":2751:2758  uint256 */\n      0x00\n        /* \"contracts/VestingWallet.sol\":2778:2799  _erc20Released[token] */\n      swap1\n      dup2\n      mstore\n        /* \"contracts/VestingWallet.sol\":2778:2792  _erc20Released */\n      0x01\n        /* \"contracts/VestingWallet.sol\":2778:2799  _erc20Released[token] */\n      0x20\n      mstore\n      0x40\n      swap1\n      keccak256\n      sload\n      swap1\n        /* \"contracts/VestingWallet.sol\":2688:2807  function released(address token) public view  virtual returns (uint256) {... */\n      jump\n        /* \"contracts/VestingWallet.sol\":3175:3336  function releasable(address token) public view virtual returns (uint256) {... */\n    tag_11:\n      callvalue\n      dup1\n      iszero\n      tag_58\n      jumpi\n      0x00\n      dup1\n      revert\n    tag_58:\n      pop\n      tag_20\n      tag_60\n      calldatasize\n      0x04\n      tag_33\n      jump\t// in\n    tag_60:\n      tag_61\n      jump\t// in\n        /* \"contracts/VestingWallet.sol\":2201:2288  function start() public view virtual returns (uint256) {... */\n    tag_12:\n      callvalue\n      dup1\n      iszero\n      tag_63\n      jumpi\n      0x00\n      dup1\n      revert\n    tag_63:\n      pop\n        /* \"contracts/VestingWallet.sol\":2274:2280  _start */\n      immutable(\"0x7017d9c97eaea77d01457db50e6363ce7b077b4a6becffdfbcdd71ef4a35f299\")\n        /* \"contracts/VestingWallet.sol\":2267:2280  return _start */\n      0xffffffffffffffff\n      and\n        /* \"contracts/VestingWallet.sol\":2201:2288  function start() public view virtual returns (uint256) {... */\n      jump(tag_20)\n        /* \"contracts/VestingWallet.sol\":2887:3023  function releasable() public view virtual returns (uint256) {... */\n    tag_13:\n      callvalue\n      dup1\n      iszero\n      tag_67\n      jumpi\n      0x00\n      dup1\n      revert\n    tag_67:\n      pop\n      tag_20\n      tag_69\n      jump\t// in\n        /* \"contracts/VestingWallet.sol\":4871:5079  function vestedAmount(uint64 timestamp)... */\n    tag_23:\n        /* \"contracts/VestingWallet.sol\":4976:4983  uint256 */\n      0x00\n        /* \"contracts/VestingWallet.sol\":5008:5071  _vestingSchedule(address(this).balance + released(), timestamp) */\n      tag_72\n        /* \"contracts/VestingWallet.sol\":5049:5059  released() */\n      tag_73\n        /* \"contracts/VestingWallet.sol\":2572:2579  uint256 */\n      0x00\n        /* \"contracts/VestingWallet.sol\":2599:2608  _released */\n      sload\n      swap1\n        /* \"contracts/VestingWallet.sol\":2523:2616  function released() public view virtual returns (uint256) {... */\n      jump\n        /* \"contracts/VestingWallet.sol\":5049:5059  released() */\n    tag_73:\n        /* \"contracts/VestingWallet.sol\":5025:5059  address(this).balance + released() */\n      tag_74\n      swap1\n        /* \"contracts/VestingWallet.sol\":5025:5046  address(this).balance */\n      selfbalance\n        /* \"contracts/VestingWallet.sol\":5025:5059  address(this).balance + released() */\n      tag_75\n      jump\t// in\n    tag_74:\n        /* \"contracts/VestingWallet.sol\":5061:5070  timestamp */\n      dup4\n        /* \"contracts/VestingWallet.sol\":5008:5024  _vestingSchedule */\n      tag_76\n        /* \"contracts/VestingWallet.sol\":5008:5071  _vestingSchedule(address(this).balance + released(), timestamp) */\n      jump\t// in\n    tag_72:\n        /* \"contracts/VestingWallet.sol\":5001:5071  return _vestingSchedule(address(this).balance + released(), timestamp) */\n      swap3\n        /* \"contracts/VestingWallet.sol\":4871:5079  function vestedAmount(uint64 timestamp)... */\n      swap2\n      pop\n      pop\n      jump\t// out\n        /* \"contracts/VestingWallet.sol\":4050:4416  function release(address token) public virtual {... */\n    tag_34:\n        /* \"contracts/VestingWallet.sol\":4108:4122  uint256 amount */\n      0x00\n        /* \"contracts/VestingWallet.sol\":4125:4142  releasable(token) */\n      tag_79\n        /* \"contracts/VestingWallet.sol\":4136:4141  token */\n      dup3\n        /* \"contracts/VestingWallet.sol\":4125:4135  releasable */\n      tag_61\n        /* \"contracts/VestingWallet.sol\":4125:4142  releasable(token) */\n      jump\t// in\n    tag_79:\n        /* \"contracts/VestingWallet.sol\":4108:4142  uint256 amount = releasable(token) */\n      swap1\n      pop\n        /* \"contracts/VestingWallet.sol\":4175:4184  lastMonth */\n      sload(0x02)\n        /* \"contracts/VestingWallet.sol\":4157:4172  _currentMonth() */\n      tag_80\n        /* \"contracts/VestingWallet.sol\":4157:4170  _currentMonth */\n      tag_81\n        /* \"contracts/VestingWallet.sol\":4157:4172  _currentMonth() */\n      jump\t// in\n    tag_80:\n        /* \"contracts/VestingWallet.sol\":4157:4184  _currentMonth() > lastMonth */\n      gt\n        /* \"contracts/VestingWallet.sol\":4153:4409  if (_currentMonth() > lastMonth) {... */\n      iszero\n      tag_86\n      jumpi\n        /* \"contracts/VestingWallet.sol\":4213:4228  _currentMonth() */\n      tag_83\n        /* \"contracts/VestingWallet.sol\":4213:4226  _currentMonth */\n      tag_81\n        /* \"contracts/VestingWallet.sol\":4213:4228  _currentMonth() */\n      jump\t// in\n    tag_83:\n        /* \"contracts/VestingWallet.sol\":4201:4210  lastMonth */\n      0x02\n        /* \"contracts/VestingWallet.sol\":4201:4228  lastMonth = _currentMonth() */\n      sstore\n      sub(shl(0xa0, 0x01), 0x01)\n        /* \"contracts/VestingWallet.sol\":4243:4264  _erc20Released[token] */\n      dup3\n      and\n      0x00\n      swap1\n      dup2\n      mstore\n        /* \"contracts/VestingWallet.sol\":4243:4257  _erc20Released */\n      0x01\n        /* \"contracts/VestingWallet.sol\":4243:4264  _erc20Released[token] */\n      0x20\n      mstore\n      0x40\n      dup2\n      keccak256\n        /* \"contracts/VestingWallet.sol\":4243:4274  _erc20Released[token] += amount */\n      dup1\n      sload\n        /* \"contracts/VestingWallet.sol\":4268:4274  amount */\n      dup4\n      swap3\n        /* \"contracts/VestingWallet.sol\":4243:4264  _erc20Released[token] */\n      swap1\n        /* \"contracts/VestingWallet.sol\":4243:4274  _erc20Released[token] += amount */\n      tag_84\n      swap1\n        /* \"contracts/VestingWallet.sol\":4268:4274  amount */\n      dup5\n      swap1\n        /* \"contracts/VestingWallet.sol\":4243:4274  _erc20Released[token] += amount */\n      tag_75\n      jump\t// in\n    tag_84:\n      swap1\n      swap2\n      sstore\n      pop\n      pop\n        /* \"contracts/VestingWallet.sol\":4294:4322  ERC20Released(token, amount) */\n      mload(0x40)\n        /* \"#utility.yul\":525:550   */\n      dup2\n      dup2\n      mstore\n      sub(shl(0xa0, 0x01), 0x01)\n        /* \"contracts/VestingWallet.sol\":4294:4322  ERC20Released(token, amount) */\n      dup4\n      and\n      swap1\n      0xc0e523490dd523c33b1878c9eb14ff46991e3f5b2cd33710918618f2a39cba1b\n      swap1\n        /* \"#utility.yul\":513:515   */\n      0x20\n        /* \"#utility.yul\":498:516   */\n      add\n        /* \"contracts/VestingWallet.sol\":4294:4322  ERC20Released(token, amount) */\n      mload(0x40)\n      dup1\n      swap2\n      sub\n      swap1\n      log2\n        /* \"contracts/VestingWallet.sol\":4337:4397  SafeERC20.safeTransfer(IERC20(token), beneficiary(), amount) */\n      tag_86\n        /* \"contracts/VestingWallet.sol\":4367:4372  token */\n      dup3\n        /* \"contracts/VestingWallet.sol\":2110:2122  _beneficiary */\n      immutable(\"0x229c1a869fa9219aaf3cffa1029c94731492e7db4f2bafdf90c8213837a49fd5\")\n        /* \"contracts/VestingWallet.sol\":4390:4396  amount */\n      dup4\n        /* \"contracts/VestingWallet.sol\":4337:4359  SafeERC20.safeTransfer */\n      tag_88\n        /* \"contracts/VestingWallet.sol\":4337:4397  SafeERC20.safeTransfer(IERC20(token), beneficiary(), amount) */\n      jump\t// in\n    tag_86:\n        /* \"contracts/VestingWallet.sol\":4097:4416  {... */\n      pop\n        /* \"contracts/VestingWallet.sol\":4050:4416  function release(address token) public virtual {... */\n      pop\n      jump\t// out\n        /* \"contracts/VestingWallet.sol\":5225:5532  function vestedAmount(address token, uint64 timestamp)... */\n    tag_44:\n      sub(shl(0xa0, 0x01), 0x01)\n        /* \"contracts/VestingWallet.sol\":2778:2799  _erc20Released[token] */\n      dup3\n      and\n        /* \"contracts/VestingWallet.sol\":5345:5352  uint256 */\n      0x00\n        /* \"contracts/VestingWallet.sol\":2778:2799  _erc20Released[token] */\n      swap1\n      dup2\n      mstore\n        /* \"contracts/VestingWallet.sol\":2778:2792  _erc20Released */\n      0x01\n        /* \"contracts/VestingWallet.sol\":2778:2799  _erc20Released[token] */\n      0x20\n      mstore\n      0x40\n      dup2\n      keccak256\n      sload\n        /* \"contracts/VestingWallet.sol\":5390:5524  _vestingSchedule(... */\n      tag_91\n      swap1\n        /* \"contracts/VestingWallet.sol\":5425:5463  IERC20(token).balanceOf(address(this)) */\n      mload(0x40)\n      0x70a0823100000000000000000000000000000000000000000000000000000000\n      dup2\n      mstore\n        /* \"contracts/VestingWallet.sol\":5457:5461  this */\n      address\n        /* \"contracts/VestingWallet.sol\":5425:5463  IERC20(token).balanceOf(address(this)) */\n      0x04\n      dup3\n      add\n        /* \"#utility.yul\":1099:1173   */\n      mstore\n      sub(shl(0xa0, 0x01), 0x01)\n        /* \"contracts/VestingWallet.sol\":5425:5448  IERC20(token).balanceOf */\n      dup7\n      and\n      swap1\n      0x70a08231\n      swap1\n        /* \"#utility.yul\":1072:1090   */\n      0x24\n      add\n        /* \"contracts/VestingWallet.sol\":5425:5463  IERC20(token).balanceOf(address(this)) */\n      0x20\n      mload(0x40)\n      dup1\n      dup4\n      sub\n      dup2\n      dup7\n      gas\n      staticcall\n      iszero\n      dup1\n      iszero\n      tag_95\n      jumpi\n      returndatasize\n      0x00\n      dup1\n      returndatacopy\n      revert(0x00, returndatasize)\n    tag_95:\n      pop\n      pop\n      pop\n      pop\n      mload(0x40)\n      returndatasize\n      not(0x1f)\n      0x1f\n      dup3\n      add\n      and\n      dup3\n      add\n      dup1\n      0x40\n      mstore\n      pop\n      dup2\n      add\n      swap1\n      tag_96\n      swap2\n      swap1\n      tag_97\n      jump\t// in\n    tag_96:\n        /* \"contracts/VestingWallet.sol\":5425:5481  IERC20(token).balanceOf(address(this)) + released(token) */\n      tag_74\n      swap2\n      swap1\n      tag_75\n      jump\t// in\n        /* \"contracts/VestingWallet.sol\":5390:5524  _vestingSchedule(... */\n    tag_91:\n        /* \"contracts/VestingWallet.sol\":5370:5524  return... */\n      swap4\n        /* \"contracts/VestingWallet.sol\":5225:5532  function vestedAmount(address token, uint64 timestamp)... */\n      swap3\n      pop\n      pop\n      pop\n      jump\t// out\n        /* \"contracts/VestingWallet.sol\":3481:3690  function release() public virtual {... */\n    tag_48:\n        /* \"contracts/VestingWallet.sol\":3526:3540  uint256 amount */\n      0x00\n        /* \"contracts/VestingWallet.sol\":3543:3555  releasable() */\n      tag_100\n        /* \"contracts/VestingWallet.sol\":3543:3553  releasable */\n      tag_69\n        /* \"contracts/VestingWallet.sol\":3543:3555  releasable() */\n      jump\t// in\n    tag_100:\n        /* \"contracts/VestingWallet.sol\":3526:3555  uint256 amount = releasable() */\n      swap1\n      pop\n        /* \"contracts/VestingWallet.sol\":3579:3585  amount */\n      dup1\n        /* \"contracts/VestingWallet.sol\":3566:3575  _released */\n      0x00\n      dup1\n        /* \"contracts/VestingWallet.sol\":3566:3585  _released += amount */\n      dup3\n      dup3\n      sload\n      tag_101\n      swap2\n      swap1\n      tag_75\n      jump\t// in\n    tag_101:\n      swap1\n      swap2\n      sstore\n      pop\n      pop\n        /* \"contracts/VestingWallet.sol\":3601:3622  EtherReleased(amount) */\n      mload(0x40)\n        /* \"#utility.yul\":525:550   */\n      dup2\n      dup2\n      mstore\n        /* \"contracts/VestingWallet.sol\":3601:3622  EtherReleased(amount) */\n      0xda9d4e5f101b8b9b1c5b76d0c5a9f7923571acfc02376aa076b75a8c080c956b\n      swap1\n        /* \"#utility.yul\":513:515   */\n      0x20\n        /* \"#utility.yul\":498:516   */\n      add\n        /* \"contracts/VestingWallet.sol\":3601:3622  EtherReleased(amount) */\n      mload(0x40)\n      dup1\n      swap2\n      sub\n      swap1\n      log1\n        /* \"contracts/VestingWallet.sol\":3633:3682  Address.sendValue(payable(beneficiary()), amount) */\n      tag_103\n        /* \"contracts/VestingWallet.sol\":2110:2122  _beneficiary */\n      immutable(\"0x229c1a869fa9219aaf3cffa1029c94731492e7db4f2bafdf90c8213837a49fd5\")\n        /* \"contracts/VestingWallet.sol\":3675:3681  amount */\n      dup3\n        /* \"contracts/VestingWallet.sol\":3633:3650  Address.sendValue */\n      tag_105\n        /* \"contracts/VestingWallet.sol\":3633:3682  Address.sendValue(payable(beneficiary()), amount) */\n      jump\t// in\n    tag_103:\n        /* \"contracts/VestingWallet.sol\":3515:3690  {... */\n      pop\n        /* \"contracts/VestingWallet.sol\":3481:3690  function release() public virtual {... */\n      jump\t// out\n        /* \"contracts/VestingWallet.sol\":3175:3336  function releasable(address token) public view virtual returns (uint256) {... */\n    tag_61:\n      sub(shl(0xa0, 0x01), 0x01)\n        /* \"contracts/VestingWallet.sol\":2778:2799  _erc20Released[token] */\n      dup2\n      and\n        /* \"contracts/VestingWallet.sol\":3239:3246  uint256 */\n      0x00\n        /* \"contracts/VestingWallet.sol\":2778:2799  _erc20Released[token] */\n      swap1\n      dup2\n      mstore\n        /* \"contracts/VestingWallet.sol\":2778:2792  _erc20Released */\n      0x01\n        /* \"contracts/VestingWallet.sol\":2778:2799  _erc20Released[token] */\n      0x20\n      mstore\n      0x40\n      dup2\n      keccak256\n      sload\n        /* \"contracts/VestingWallet.sol\":3266:3310  vestedAmount(token, uint64(block.timestamp)) */\n      tag_110\n        /* \"contracts/VestingWallet.sol\":3279:3284  token */\n      dup4\n        /* \"contracts/VestingWallet.sol\":3293:3308  block.timestamp */\n      timestamp\n        /* \"contracts/VestingWallet.sol\":3266:3278  vestedAmount */\n      tag_44\n        /* \"contracts/VestingWallet.sol\":3266:3310  vestedAmount(token, uint64(block.timestamp)) */\n      jump\t// in\n    tag_110:\n        /* \"contracts/VestingWallet.sol\":3266:3328  vestedAmount(token, uint64(block.timestamp)) - released(token) */\n      tag_72\n      swap2\n      swap1\n      tag_112\n      jump\t// in\n        /* \"contracts/VestingWallet.sol\":2887:3023  function releasable() public view virtual returns (uint256) {... */\n    tag_69:\n        /* \"contracts/VestingWallet.sol\":2938:2945  uint256 */\n      0x00\n        /* \"contracts/VestingWallet.sol\":2599:2608  _released */\n      dup1\n      sload\n        /* \"contracts/VestingWallet.sol\":2965:3002  vestedAmount(uint64(block.timestamp)) */\n      tag_116\n        /* \"contracts/VestingWallet.sol\":2985:3000  block.timestamp */\n      timestamp\n        /* \"contracts/VestingWallet.sol\":2965:2977  vestedAmount */\n      tag_23\n        /* \"contracts/VestingWallet.sol\":2965:3002  vestedAmount(uint64(block.timestamp)) */\n      jump\t// in\n    tag_116:\n        /* \"contracts/VestingWallet.sol\":2965:3015  vestedAmount(uint64(block.timestamp)) - released() */\n      tag_117\n      swap2\n      swap1\n      tag_112\n      jump\t// in\n    tag_117:\n        /* \"contracts/VestingWallet.sol\":2958:3015  return vestedAmount(uint64(block.timestamp)) - released() */\n      swap1\n      pop\n        /* \"contracts/VestingWallet.sol\":2887:3023  function releasable() public view virtual returns (uint256) {... */\n      swap1\n      jump\t// out\n        /* \"contracts/VestingWallet.sol\":5733:6148  function _vestingSchedule(uint256 totalAllocation, uint64 timestamp)... */\n    tag_76:\n        /* \"contracts/VestingWallet.sol\":5869:5876  uint256 */\n      0x00\n        /* \"contracts/VestingWallet.sol\":2274:2280  _start */\n      immutable(\"0x7017d9c97eaea77d01457db50e6363ce7b077b4a6becffdfbcdd71ef4a35f299\")\n        /* \"contracts/VestingWallet.sol\":2267:2280  return _start */\n      0xffffffffffffffff\n      and\n        /* \"contracts/VestingWallet.sol\":5898:5907  timestamp */\n      dup3\n        /* \"contracts/VestingWallet.sol\":5898:5917  timestamp < start() */\n      0xffffffffffffffff\n      and\n      lt\n        /* \"contracts/VestingWallet.sol\":5894:6141  if (timestamp < start()) {... */\n      iszero\n      tag_120\n      jumpi\n      pop\n        /* \"contracts/VestingWallet.sol\":5941:5942  0 */\n      0x00\n        /* \"contracts/VestingWallet.sol\":5934:5942  return 0 */\n      jump(tag_72)\n        /* \"contracts/VestingWallet.sol\":5894:6141  if (timestamp < start()) {... */\n    tag_120:\n        /* \"contracts/VestingWallet.sol\":5976:5996  start() + duration() */\n      tag_124\n        /* \"contracts/VestingWallet.sol\":2429:2445  return _duration */\n      0xffffffffffffffff\n        /* \"contracts/VestingWallet.sol\":2436:2445  _duration */\n      immutable(\"0x42fa20e8c2fc174121a60bb5704cfd8579fc4a2698f9ae487d1310659094676e\")\n        /* \"contracts/VestingWallet.sol\":2429:2445  return _duration */\n      dup2\n      and\n      swap1\n        /* \"contracts/VestingWallet.sol\":2274:2280  _start */\n      immutable(\"0x7017d9c97eaea77d01457db50e6363ce7b077b4a6becffdfbcdd71ef4a35f299\")\n        /* \"contracts/VestingWallet.sol\":2267:2280  return _start */\n      and\n        /* \"contracts/VestingWallet.sol\":5976:5996  start() + duration() */\n      tag_75\n      jump\t// in\n    tag_124:\n        /* \"contracts/VestingWallet.sol\":5964:5973  timestamp */\n      dup3\n        /* \"contracts/VestingWallet.sol\":5964:5996  timestamp > start() + duration() */\n      0xffffffffffffffff\n      and\n      gt\n        /* \"contracts/VestingWallet.sol\":5960:6141  if (timestamp > start() + duration()) {... */\n      iszero\n      tag_125\n      jumpi\n      pop\n        /* \"contracts/VestingWallet.sol\":6020:6035  totalAllocation */\n      dup2\n        /* \"contracts/VestingWallet.sol\":6013:6035  return totalAllocation */\n      jump(tag_72)\n        /* \"contracts/VestingWallet.sol\":5960:6141  if (timestamp > start() + duration()) {... */\n    tag_125:\n        /* \"contracts/VestingWallet.sol\":2436:2445  _duration */\n      immutable(\"0x42fa20e8c2fc174121a60bb5704cfd8579fc4a2698f9ae487d1310659094676e\")\n        /* \"contracts/VestingWallet.sol\":2429:2445  return _duration */\n      0xffffffffffffffff\n      and\n        /* \"contracts/VestingWallet.sol\":2274:2280  _start */\n      immutable(\"0x7017d9c97eaea77d01457db50e6363ce7b077b4a6becffdfbcdd71ef4a35f299\")\n        /* \"contracts/VestingWallet.sol\":2267:2280  return _start */\n      0xffffffffffffffff\n      and\n        /* \"contracts/VestingWallet.sol\":6095:6114  timestamp - start() */\n      tag_129\n      swap1\n      0xffffffffffffffff\n      dup6\n      and\n      tag_112\n      jump\t// in\n    tag_129:\n        /* \"contracts/VestingWallet.sol\":6076:6115  totalAllocation * (timestamp - start()) */\n      tag_130\n      swap1\n        /* \"contracts/VestingWallet.sol\":6076:6091  totalAllocation */\n      dup6\n        /* \"contracts/VestingWallet.sol\":6076:6115  totalAllocation * (timestamp - start()) */\n      tag_131\n      jump\t// in\n    tag_130:\n        /* \"contracts/VestingWallet.sol\":6075:6129  (totalAllocation * (timestamp - start())) / duration() */\n      tag_132\n      swap2\n      swap1\n      tag_133\n      jump\t// in\n    tag_132:\n        /* \"contracts/VestingWallet.sol\":6068:6129  return (totalAllocation * (timestamp - start())) / duration() */\n      swap1\n      pop\n      jump(tag_72)\n        /* \"contracts/VestingWallet.sol\":3791:3919  function _currentMonth() internal view returns (uint256) {... */\n    tag_81:\n        /* \"contracts/VestingWallet.sol\":3839:3846  uint256 */\n      0x00\n        /* \"contracts/VestingWallet.sol\":3904:3911  30 days */\n      0x278d00\n        /* \"contracts/VestingWallet.sol\":2274:2280  _start */\n      immutable(\"0x7017d9c97eaea77d01457db50e6363ce7b077b4a6becffdfbcdd71ef4a35f299\")\n        /* \"contracts/VestingWallet.sol\":2267:2280  return _start */\n      0xffffffffffffffff\n      and\n        /* \"contracts/VestingWallet.sol\":3867:3900  uint64(block.timestamp) - start() */\n      tag_136\n      swap1\n      0xffffffffffffffff\n        /* \"contracts/VestingWallet.sol\":3874:3889  block.timestamp */\n      timestamp\n        /* \"contracts/VestingWallet.sol\":3867:3900  uint64(block.timestamp) - start() */\n      and\n      tag_112\n      jump\t// in\n    tag_136:\n        /* \"contracts/VestingWallet.sol\":3866:3911  (uint64(block.timestamp) - start()) / 30 days */\n      tag_117\n      swap2\n      swap1\n      tag_133\n      jump\t// in\n        /* \"@openzeppelin/contracts/token/ERC20/utils/SafeERC20.sol\":701:906  function safeTransfer(... */\n    tag_88:\n        /* \"@openzeppelin/contracts/token/ERC20/utils/SafeERC20.sol\":840:898  abi.encodeWithSelector(token.transfer.selector, to, value) */\n      0x40\n      dup1\n      mload\n      sub(shl(0xa0, 0x01), 0x01)\n        /* \"#utility.yul\":2732:2787   */\n      dup5\n      and\n        /* \"@openzeppelin/contracts/token/ERC20/utils/SafeERC20.sol\":840:898  abi.encodeWithSelector(token.transfer.selector, to, value) */\n      0x24\n      dup3\n      add\n        /* \"#utility.yul\":2714:2788   */\n      mstore\n        /* \"#utility.yul\":2804:2822   */\n      0x44\n      dup1\n      dup3\n      add\n        /* \"#utility.yul\":2797:2831   */\n      dup5\n      swap1\n      mstore\n        /* \"@openzeppelin/contracts/token/ERC20/utils/SafeERC20.sol\":840:898  abi.encodeWithSelector(token.transfer.selector, to, value) */\n      dup3\n      mload\n      dup1\n      dup4\n      sub\n      swap1\n      swap2\n      add\n      dup2\n      mstore\n        /* \"#utility.yul\":2687:2705   */\n      0x64\n      swap1\n      swap2\n      add\n        /* \"@openzeppelin/contracts/token/ERC20/utils/SafeERC20.sol\":840:898  abi.encodeWithSelector(token.transfer.selector, to, value) */\n      swap1\n      swap2\n      mstore\n      0x20\n      dup2\n      add\n      dup1\n      mload\n      0xffffffffffffffffffffffffffffffffffffffffffffffffffffffff\n      and\n        /* \"@openzeppelin/contracts/token/ERC20/utils/SafeERC20.sol\":863:886  token.transfer.selector */\n      0xa9059cbb00000000000000000000000000000000000000000000000000000000\n        /* \"@openzeppelin/contracts/token/ERC20/utils/SafeERC20.sol\":840:898  abi.encodeWithSelector(token.transfer.selector, to, value) */\n      or\n      swap1\n      mstore\n        /* \"@openzeppelin/contracts/token/ERC20/utils/SafeERC20.sol\":813:899  _callOptionalReturn(token, abi.encodeWithSelector(token.transfer.selector, to, value)) */\n      tag_139\n      swap1\n        /* \"@openzeppelin/contracts/token/ERC20/utils/SafeERC20.sol\":833:838  token */\n      dup5\n      swap1\n        /* \"@openzeppelin/contracts/token/ERC20/utils/SafeERC20.sol\":813:832  _callOptionalReturn */\n      tag_142\n        /* \"@openzeppelin/contracts/token/ERC20/utils/SafeERC20.sol\":813:899  _callOptionalReturn(token, abi.encodeWithSelector(token.transfer.selector, to, value)) */\n      jump\t// in\n    tag_139:\n        /* \"@openzeppelin/contracts/token/ERC20/utils/SafeERC20.sol\":701:906  function safeTransfer(... */\n      pop\n      pop\n      pop\n      jump\t// out\n        /* \"@openzeppelin/contracts/utils/Address.sol\":2412:2724  function sendValue(address payable recipient, uint256 amount) internal {... */\n    tag_105:\n        /* \"@openzeppelin/contracts/utils/Address.sol\":2526:2532  amount */\n      dup1\n        /* \"@openzeppelin/contracts/utils/Address.sol\":2501:2522  address(this).balance */\n      selfbalance\n        /* \"@openzeppelin/contracts/utils/Address.sol\":2501:2532  address(this).balance >= amount */\n      lt\n      iszero\n        /* \"@openzeppelin/contracts/utils/Address.sol\":2493:2566  require(address(this).balance >= amount, \"Address: insufficient balance\") */\n      tag_144\n      jumpi\n      mload(0x40)\n      shl(0xe5, 0x461bcd)\n      dup2\n      mstore\n        /* \"#utility.yul\":3044:3046   */\n      0x20\n        /* \"@openzeppelin/contracts/utils/Address.sol\":2493:2566  require(address(this).balance >= amount, \"Address: insufficient balance\") */\n      0x04\n      dup3\n      add\n        /* \"#utility.yul\":3026:3047   */\n      mstore\n        /* \"#utility.yul\":3083:3085   */\n      0x1d\n        /* \"#utility.yul\":3063:3081   */\n      0x24\n      dup3\n      add\n        /* \"#utility.yul\":3056:3086   */\n      mstore\n        /* \"#utility.yul\":3122:3153   */\n      0x416464726573733a20696e73756666696369656e742062616c616e6365000000\n        /* \"#utility.yul\":3102:3120   */\n      0x44\n      dup3\n      add\n        /* \"#utility.yul\":3095:3154   */\n      mstore\n        /* \"#utility.yul\":3171:3189   */\n      0x64\n      add\n        /* \"@openzeppelin/contracts/utils/Address.sol\":2493:2566  require(address(this).balance >= amount, \"Address: insufficient balance\") */\n    tag_145:\n      mload(0x40)\n      dup1\n      swap2\n      sub\n      swap1\n      revert\n    tag_144:\n        /* \"@openzeppelin/contracts/utils/Address.sol\":2578:2590  bool success */\n      0x00\n        /* \"@openzeppelin/contracts/utils/Address.sol\":2596:2605  recipient */\n      dup3\n      sub(shl(0xa0, 0x01), 0x01)\n        /* \"@openzeppelin/contracts/utils/Address.sol\":2596:2610  recipient.call */\n      and\n        /* \"@openzeppelin/contracts/utils/Address.sol\":2618:2624  amount */\n      dup3\n        /* \"@openzeppelin/contracts/utils/Address.sol\":2596:2629  recipient.call{value: amount}(\"\") */\n      mload(0x40)\n      0x00\n      mload(0x40)\n      dup1\n      dup4\n      sub\n      dup2\n      dup6\n      dup8\n      gas\n      call\n      swap3\n      pop\n      pop\n      pop\n      returndatasize\n      dup1\n      0x00\n      dup2\n      eq\n      tag_151\n      jumpi\n      mload(0x40)\n      swap2\n      pop\n      and(add(returndatasize, 0x3f), not(0x1f))\n      dup3\n      add\n      0x40\n      mstore\n      returndatasize\n      dup3\n      mstore\n      returndatasize\n      0x00\n      0x20\n      dup5\n      add\n      returndatacopy\n      jump(tag_150)\n    tag_151:\n      0x60\n      swap2\n      pop\n    tag_150:\n      pop\n        /* \"@openzeppelin/contracts/utils/Address.sol\":2577:2629  (bool success, ) = recipient.call{value: amount}(\"\") */\n      pop\n      swap1\n      pop\n        /* \"@openzeppelin/contracts/utils/Address.sol\":2647:2654  success */\n      dup1\n        /* \"@openzeppelin/contracts/utils/Address.sol\":2639:2717  require(success, \"Address: unable to send value, recipient may have reverted\") */\n      tag_139\n      jumpi\n      mload(0x40)\n      shl(0xe5, 0x461bcd)\n      dup2\n      mstore\n        /* \"#utility.yul\":3612:3614   */\n      0x20\n        /* \"@openzeppelin/contracts/utils/Address.sol\":2639:2717  require(success, \"Address: unable to send value, recipient may have reverted\") */\n      0x04\n      dup3\n      add\n        /* \"#utility.yul\":3594:3615   */\n      mstore\n        /* \"#utility.yul\":3651:3653   */\n      0x3a\n        /* \"#utility.yul\":3631:3649   */\n      0x24\n      dup3\n      add\n        /* \"#utility.yul\":3624:3654   */\n      mstore\n        /* \"#utility.yul\":3690:3724   */\n      0x416464726573733a20756e61626c6520746f2073656e642076616c75652c2072\n        /* \"#utility.yul\":3670:3688   */\n      0x44\n      dup3\n      add\n        /* \"#utility.yul\":3663:3725   */\n      mstore\n        /* \"#utility.yul\":3761:3789   */\n      0x6563697069656e74206d61792068617665207265766572746564000000000000\n        /* \"#utility.yul\":3741:3759   */\n      0x64\n      dup3\n      add\n        /* \"#utility.yul\":3734:3790   */\n      mstore\n        /* \"#utility.yul\":3807:3826   */\n      0x84\n      add\n        /* \"@openzeppelin/contracts/utils/Address.sol\":2639:2717  require(success, \"Address: unable to send value, recipient may have reverted\") */\n      tag_145\n        /* \"#utility.yul\":3410:3832   */\n      jump\n        /* \"@openzeppelin/contracts/token/ERC20/utils/SafeERC20.sol\":3207:3913  function _callOptionalReturn(IERC20 token, bytes memory data) private {... */\n    tag_142:\n        /* \"@openzeppelin/contracts/token/ERC20/utils/SafeERC20.sol\":3626:3649  bytes memory returndata */\n      0x00\n        /* \"@openzeppelin/contracts/token/ERC20/utils/SafeERC20.sol\":3652:3721  address(token).functionCall(data, \"SafeERC20: low-level call failed\") */\n      tag_156\n        /* \"@openzeppelin/contracts/token/ERC20/utils/SafeERC20.sol\":3680:3684  data */\n      dup3\n        /* \"@openzeppelin/contracts/token/ERC20/utils/SafeERC20.sol\":3652:3721  address(token).functionCall(data, \"SafeERC20: low-level call failed\") */\n      mload(0x40)\n      dup1\n      0x40\n      add\n      0x40\n      mstore\n      dup1\n      0x20\n      dup2\n      mstore\n      0x20\n      add\n      0x5361666545524332303a206c6f772d6c6576656c2063616c6c206661696c6564\n      dup2\n      mstore\n      pop\n        /* \"@openzeppelin/contracts/token/ERC20/utils/SafeERC20.sol\":3660:3665  token */\n      dup6\n      sub(shl(0xa0, 0x01), 0x01)\n        /* \"@openzeppelin/contracts/token/ERC20/utils/SafeERC20.sol\":3652:3679  address(token).functionCall */\n      and\n      tag_157\n      swap1\n        /* \"@openzeppelin/contracts/token/ERC20/utils/SafeERC20.sol\":3652:3721  address(token).functionCall(data, \"SafeERC20: low-level call failed\") */\n      swap3\n      swap2\n      swap1\n      0xffffffff\n      and\n      jump\t// in\n    tag_156:\n        /* \"@openzeppelin/contracts/token/ERC20/utils/SafeERC20.sol\":3735:3752  returndata.length */\n      dup1\n      mload\n        /* \"@openzeppelin/contracts/token/ERC20/utils/SafeERC20.sol\":3626:3721  bytes memory returndata = address(token).functionCall(data, \"SafeERC20: low-level call failed\") */\n      swap1\n      swap2\n      pop\n        /* \"@openzeppelin/contracts/token/ERC20/utils/SafeERC20.sol\":3735:3756  returndata.length > 0 */\n      iszero\n        /* \"@openzeppelin/contracts/token/ERC20/utils/SafeERC20.sol\":3731:3907  if (returndata.length > 0) {... */\n      tag_139\n      jumpi\n        /* \"@openzeppelin/contracts/token/ERC20/utils/SafeERC20.sol\":3830:3840  returndata */\n      dup1\n        /* \"@openzeppelin/contracts/token/ERC20/utils/SafeERC20.sol\":3819:3849  abi.decode(returndata, (bool)) */\n      dup1\n      0x20\n      add\n      swap1\n      mload\n      dup2\n      add\n      swap1\n      tag_159\n      swap2\n      swap1\n      tag_160\n      jump\t// in\n    tag_159:\n        /* \"@openzeppelin/contracts/token/ERC20/utils/SafeERC20.sol\":3811:3896  require(abi.decode(returndata, (bool)), \"SafeERC20: ERC20 operation did not succeed\") */\n      tag_139\n      jumpi\n      mload(0x40)\n      shl(0xe5, 0x461bcd)\n      dup2\n      mstore\n        /* \"#utility.yul\":4321:4323   */\n      0x20\n        /* \"@openzeppelin/contracts/token/ERC20/utils/SafeERC20.sol\":3811:3896  require(abi.decode(returndata, (bool)), \"SafeERC20: ERC20 operation did not succeed\") */\n      0x04\n      dup3\n      add\n        /* \"#utility.yul\":4303:4324   */\n      mstore\n        /* \"#utility.yul\":4360:4362   */\n      0x2a\n        /* \"#utility.yul\":4340:4358   */\n      0x24\n      dup3\n      add\n        /* \"#utility.yul\":4333:4363   */\n      mstore\n        /* \"#utility.yul\":4399:4433   */\n      0x5361666545524332303a204552433230206f7065726174696f6e20646964206e\n        /* \"#utility.yul\":4379:4397   */\n      0x44\n      dup3\n      add\n        /* \"#utility.yul\":4372:4434   */\n      mstore\n        /* \"#utility.yul\":4470:4482   */\n      0x6f74207375636365656400000000000000000000000000000000000000000000\n        /* \"#utility.yul\":4450:4468   */\n      0x64\n      dup3\n      add\n        /* \"#utility.yul\":4443:4483   */\n      mstore\n        /* \"#utility.yul\":4500:4519   */\n      0x84\n      add\n        /* \"@openzeppelin/contracts/token/ERC20/utils/SafeERC20.sol\":3811:3896  require(abi.decode(returndata, (bool)), \"SafeERC20: ERC20 operation did not succeed\") */\n      tag_145\n        /* \"#utility.yul\":4119:4525   */\n      jump\n        /* \"@openzeppelin/contracts/utils/Address.sol\":3861:4084  function functionCall(... */\n    tag_157:\n        /* \"@openzeppelin/contracts/utils/Address.sol\":3994:4006  bytes memory */\n      0x60\n        /* \"@openzeppelin/contracts/utils/Address.sol\":4025:4077  functionCallWithValue(target, data, 0, errorMessage) */\n      tag_165\n        /* \"@openzeppelin/contracts/utils/Address.sol\":4047:4053  target */\n      dup5\n        /* \"@openzeppelin/contracts/utils/Address.sol\":4055:4059  data */\n      dup5\n        /* \"@openzeppelin/contracts/utils/Address.sol\":4061:4062  0 */\n      0x00\n        /* \"@openzeppelin/contracts/utils/Address.sol\":4064:4076  errorMessage */\n      dup6\n        /* \"@openzeppelin/contracts/utils/Address.sol\":4025:4046  functionCallWithValue */\n      tag_166\n        /* \"@openzeppelin/contracts/utils/Address.sol\":4025:4077  functionCallWithValue(target, data, 0, errorMessage) */\n      jump\t// in\n    tag_165:\n        /* \"@openzeppelin/contracts/utils/Address.sol\":4018:4077  return functionCallWithValue(target, data, 0, errorMessage) */\n      swap5\n        /* \"@openzeppelin/contracts/utils/Address.sol\":3861:4084  function functionCall(... */\n      swap4\n      pop\n      pop\n      pop\n      pop\n      jump\t// out\n        /* \"@openzeppelin/contracts/utils/Address.sol\":4948:5447  function functionCallWithValue(... */\n    tag_166:\n        /* \"@openzeppelin/contracts/utils/Address.sol\":5113:5125  bytes memory */\n      0x60\n        /* \"@openzeppelin/contracts/utils/Address.sol\":5170:5175  value */\n      dup3\n        /* \"@openzeppelin/contracts/utils/Address.sol\":5145:5166  address(this).balance */\n      selfbalance\n        /* \"@openzeppelin/contracts/utils/Address.sol\":5145:5175  address(this).balance >= value */\n      lt\n      iszero\n        /* \"@openzeppelin/contracts/utils/Address.sol\":5137:5218  require(address(this).balance >= value, \"Address: insufficient balance for call\") */\n      tag_168\n      jumpi\n      mload(0x40)\n      shl(0xe5, 0x461bcd)\n      dup2\n      mstore\n        /* \"#utility.yul\":4732:4734   */\n      0x20\n        /* \"@openzeppelin/contracts/utils/Address.sol\":5137:5218  require(address(this).balance >= value, \"Address: insufficient balance for call\") */\n      0x04\n      dup3\n      add\n        /* \"#utility.yul\":4714:4735   */\n      mstore\n        /* \"#utility.yul\":4771:4773   */\n      0x26\n        /* \"#utility.yul\":4751:4769   */\n      0x24\n      dup3\n      add\n        /* \"#utility.yul\":4744:4774   */\n      mstore\n        /* \"#utility.yul\":4810:4844   */\n      0x416464726573733a20696e73756666696369656e742062616c616e636520666f\n        /* \"#utility.yul\":4790:4808   */\n      0x44\n      dup3\n      add\n        /* \"#utility.yul\":4783:4845   */\n      mstore\n        /* \"#utility.yul\":4881:4889   */\n      0x722063616c6c0000000000000000000000000000000000000000000000000000\n        /* \"#utility.yul\":4861:4879   */\n      0x64\n      dup3\n      add\n        /* \"#utility.yul\":4854:4890   */\n      mstore\n        /* \"#utility.yul\":4907:4926   */\n      0x84\n      add\n        /* \"@openzeppelin/contracts/utils/Address.sol\":5137:5218  require(address(this).balance >= value, \"Address: insufficient balance for call\") */\n      tag_145\n        /* \"#utility.yul\":4530:4932   */\n      jump\n        /* \"@openzeppelin/contracts/utils/Address.sol\":5137:5218  require(address(this).balance >= value, \"Address: insufficient balance for call\") */\n    tag_168:\n      sub(shl(0xa0, 0x01), 0x01)\n        /* \"@openzeppelin/contracts/utils/Address.sol\":1465:1484  account.code.length */\n      dup6\n      and\n      extcodesize\n        /* \"@openzeppelin/contracts/utils/Address.sol\":5228:5288  require(isContract(target), \"Address: call to non-contract\") */\n      tag_173\n      jumpi\n      mload(0x40)\n      shl(0xe5, 0x461bcd)\n      dup2\n      mstore\n        /* \"#utility.yul\":5139:5141   */\n      0x20\n        /* \"@openzeppelin/contracts/utils/Address.sol\":5228:5288  require(isContract(target), \"Address: call to non-contract\") */\n      0x04\n      dup3\n      add\n        /* \"#utility.yul\":5121:5142   */\n      mstore\n        /* \"#utility.yul\":5178:5180   */\n      0x1d\n        /* \"#utility.yul\":5158:5176   */\n      0x24\n      dup3\n      add\n        /* \"#utility.yul\":5151:5181   */\n      mstore\n        /* \"#utility.yul\":5217:5248   */\n      0x416464726573733a2063616c6c20746f206e6f6e2d636f6e7472616374000000\n        /* \"#utility.yul\":5197:5215   */\n      0x44\n      dup3\n      add\n        /* \"#utility.yul\":5190:5249   */\n      mstore\n        /* \"#utility.yul\":5266:5284   */\n      0x64\n      add\n        /* \"@openzeppelin/contracts/utils/Address.sol\":5228:5288  require(isContract(target), \"Address: call to non-contract\") */\n      tag_145\n        /* \"#utility.yul\":4937:5290   */\n      jump\n        /* \"@openzeppelin/contracts/utils/Address.sol\":5228:5288  require(isContract(target), \"Address: call to non-contract\") */\n    tag_173:\n        /* \"@openzeppelin/contracts/utils/Address.sol\":5300:5312  bool success */\n      0x00\n        /* \"@openzeppelin/contracts/utils/Address.sol\":5314:5337  bytes memory returndata */\n      dup1\n        /* \"@openzeppelin/contracts/utils/Address.sol\":5341:5347  target */\n      dup7\n      sub(shl(0xa0, 0x01), 0x01)\n        /* \"@openzeppelin/contracts/utils/Address.sol\":5341:5352  target.call */\n      and\n        /* \"@openzeppelin/contracts/utils/Address.sol\":5360:5365  value */\n      dup6\n        /* \"@openzeppelin/contracts/utils/Address.sol\":5367:5371  data */\n      dup8\n        /* \"@openzeppelin/contracts/utils/Address.sol\":5341:5372  target.call{value: value}(data) */\n      mload(0x40)\n      tag_176\n      swap2\n      swap1\n      tag_177\n      jump\t// in\n    tag_176:\n      0x00\n      mload(0x40)\n      dup1\n      dup4\n      sub\n      dup2\n      dup6\n      dup8\n      gas\n      call\n      swap3\n      pop\n      pop\n      pop\n      returndatasize\n      dup1\n      0x00\n      dup2\n      eq\n      tag_180\n      jumpi\n      mload(0x40)\n      swap2\n      pop\n      and(add(returndatasize, 0x3f), not(0x1f))\n      dup3\n      add\n      0x40\n      mstore\n      returndatasize\n      dup3\n      mstore\n      returndatasize\n      0x00\n      0x20\n      dup5\n      add\n      returndatacopy\n      jump(tag_179)\n    tag_180:\n      0x60\n      swap2\n      pop\n    tag_179:\n      pop\n        /* \"@openzeppelin/contracts/utils/Address.sol\":5299:5372  (bool success, bytes memory returndata) = target.call{value: value}(data) */\n      swap2\n      pop\n      swap2\n      pop\n        /* \"@openzeppelin/contracts/utils/Address.sol\":5389:5440  verifyCallResult(success, returndata, errorMessage) */\n      tag_181\n        /* \"@openzeppelin/contracts/utils/Address.sol\":5406:5413  success */\n      dup3\n        /* \"@openzeppelin/contracts/utils/Address.sol\":5415:5425  returndata */\n      dup3\n        /* \"@openzeppelin/contracts/utils/Address.sol\":5427:5439  errorMessage */\n      dup7\n        /* \"@openzeppelin/contracts/utils/Address.sol\":5389:5405  verifyCallResult */\n      tag_182\n        /* \"@openzeppelin/contracts/utils/Address.sol\":5389:5440  verifyCallResult(success, returndata, errorMessage) */\n      jump\t// in\n    tag_181:\n        /* \"@openzeppelin/contracts/utils/Address.sol\":5382:5440  return verifyCallResult(success, returndata, errorMessage) */\n      swap8\n        /* \"@openzeppelin/contracts/utils/Address.sol\":4948:5447  function functionCallWithValue(... */\n      swap7\n      pop\n      pop\n      pop\n      pop\n      pop\n      pop\n      pop\n      jump\t// out\n        /* \"@openzeppelin/contracts/utils/Address.sol\":7561:8253  function verifyCallResult(... */\n    tag_182:\n        /* \"@openzeppelin/contracts/utils/Address.sol\":7707:7719  bytes memory */\n      0x60\n        /* \"@openzeppelin/contracts/utils/Address.sol\":7735:7742  success */\n      dup4\n        /* \"@openzeppelin/contracts/utils/Address.sol\":7731:8247  if (success) {... */\n      iszero\n      tag_185\n      jumpi\n      pop\n        /* \"@openzeppelin/contracts/utils/Address.sol\":7765:7775  returndata */\n      dup2\n        /* \"@openzeppelin/contracts/utils/Address.sol\":7758:7775  return returndata */\n      jump(tag_91)\n        /* \"@openzeppelin/contracts/utils/Address.sol\":7731:8247  if (success) {... */\n    tag_185:\n        /* \"@openzeppelin/contracts/utils/Address.sol\":7876:7893  returndata.length */\n      dup3\n      mload\n        /* \"@openzeppelin/contracts/utils/Address.sol\":7876:7897  returndata.length > 0 */\n      iszero\n        /* \"@openzeppelin/contracts/utils/Address.sol\":7872:8237  if (returndata.length > 0) {... */\n      tag_187\n      jumpi\n        /* \"@openzeppelin/contracts/utils/Address.sol\":8070:8080  returndata */\n      dup3\n        /* \"@openzeppelin/contracts/utils/Address.sol\":8064:8081  mload(returndata) */\n      mload\n        /* \"@openzeppelin/contracts/utils/Address.sol\":8130:8145  returndata_size */\n      dup1\n        /* \"@openzeppelin/contracts/utils/Address.sol\":8117:8127  returndata */\n      dup5\n        /* \"@openzeppelin/contracts/utils/Address.sol\":8113:8115  32 */\n      0x20\n        /* \"@openzeppelin/contracts/utils/Address.sol\":8109:8128  add(32, returndata) */\n      add\n        /* \"@openzeppelin/contracts/utils/Address.sol\":8102:8146  revert(add(32, returndata), returndata_size) */\n      revert\n        /* \"@openzeppelin/contracts/utils/Address.sol\":7872:8237  if (returndata.length > 0) {... */\n    tag_187:\n        /* \"@openzeppelin/contracts/utils/Address.sol\":8209:8221  errorMessage */\n      dup2\n        /* \"@openzeppelin/contracts/utils/Address.sol\":8202:8222  revert(errorMessage) */\n      mload(0x40)\n      shl(0xe5, 0x461bcd)\n      dup2\n      mstore\n      0x04\n      add\n      tag_145\n      swap2\n      swap1\n      tag_190\n      jump\t// in\n        /* \"#utility.yul\":14:185   */\n    tag_191:\n        /* \"#utility.yul\":81:101   */\n      dup1\n      calldataload\n        /* \"#utility.yul\":141:159   */\n      0xffffffffffffffff\n        /* \"#utility.yul\":130:160   */\n      dup2\n      and\n        /* \"#utility.yul\":120:161   */\n      dup2\n      eq\n        /* \"#utility.yul\":110:179   */\n      tag_197\n      jumpi\n        /* \"#utility.yul\":175:176   */\n      0x00\n        /* \"#utility.yul\":172:173   */\n      dup1\n        /* \"#utility.yul\":165:177   */\n      revert\n        /* \"#utility.yul\":110:179   */\n    tag_197:\n        /* \"#utility.yul\":14:185   */\n      swap2\n      swap1\n      pop\n      jump\t// out\n        /* \"#utility.yul\":190:374   */\n    tag_22:\n        /* \"#utility.yul\":248:254   */\n      0x00\n        /* \"#utility.yul\":301:303   */\n      0x20\n        /* \"#utility.yul\":289:298   */\n      dup3\n        /* \"#utility.yul\":280:287   */\n      dup5\n        /* \"#utility.yul\":276:299   */\n      sub\n        /* \"#utility.yul\":272:304   */\n      slt\n        /* \"#utility.yul\":269:321   */\n      iszero\n      tag_199\n      jumpi\n        /* \"#utility.yul\":317:318   */\n      0x00\n        /* \"#utility.yul\":314:315   */\n      dup1\n        /* \"#utility.yul\":307:319   */\n      revert\n        /* \"#utility.yul\":269:321   */\n    tag_199:\n        /* \"#utility.yul\":340:368   */\n      tag_91\n        /* \"#utility.yul\":358:367   */\n      dup3\n        /* \"#utility.yul\":340:368   */\n      tag_191\n      jump\t// in\n        /* \"#utility.yul\":561:757   */\n    tag_192:\n        /* \"#utility.yul\":629:649   */\n      dup1\n      calldataload\n      sub(shl(0xa0, 0x01), 0x01)\n        /* \"#utility.yul\":678:732   */\n      dup2\n      and\n        /* \"#utility.yul\":668:733   */\n      dup2\n      eq\n        /* \"#utility.yul\":658:751   */\n      tag_197\n      jumpi\n        /* \"#utility.yul\":747:748   */\n      0x00\n        /* \"#utility.yul\":744:745   */\n      dup1\n        /* \"#utility.yul\":737:749   */\n      revert\n        /* \"#utility.yul\":762:948   */\n    tag_33:\n        /* \"#utility.yul\":821:827   */\n      0x00\n        /* \"#utility.yul\":874:876   */\n      0x20\n        /* \"#utility.yul\":862:871   */\n      dup3\n        /* \"#utility.yul\":853:860   */\n      dup5\n        /* \"#utility.yul\":849:872   */\n      sub\n        /* \"#utility.yul\":845:877   */\n      slt\n        /* \"#utility.yul\":842:894   */\n      iszero\n      tag_205\n      jumpi\n        /* \"#utility.yul\":890:891   */\n      0x00\n        /* \"#utility.yul\":887:888   */\n      dup1\n        /* \"#utility.yul\":880:892   */\n      revert\n        /* \"#utility.yul\":842:894   */\n    tag_205:\n        /* \"#utility.yul\":913:942   */\n      tag_91\n        /* \"#utility.yul\":932:941   */\n      dup3\n        /* \"#utility.yul\":913:942   */\n      tag_192\n      jump\t// in\n        /* \"#utility.yul\":1184:1442   */\n    tag_43:\n        /* \"#utility.yul\":1251:1257   */\n      0x00\n        /* \"#utility.yul\":1259:1265   */\n      dup1\n        /* \"#utility.yul\":1312:1314   */\n      0x40\n        /* \"#utility.yul\":1300:1309   */\n      dup4\n        /* \"#utility.yul\":1291:1298   */\n      dup6\n        /* \"#utility.yul\":1287:1310   */\n      sub\n        /* \"#utility.yul\":1283:1315   */\n      slt\n        /* \"#utility.yul\":1280:1332   */\n      iszero\n      tag_209\n      jumpi\n        /* \"#utility.yul\":1328:1329   */\n      0x00\n        /* \"#utility.yul\":1325:1326   */\n      dup1\n        /* \"#utility.yul\":1318:1330   */\n      revert\n        /* \"#utility.yul\":1280:1332   */\n    tag_209:\n        /* \"#utility.yul\":1351:1380   */\n      tag_210\n        /* \"#utility.yul\":1370:1379   */\n      dup4\n        /* \"#utility.yul\":1351:1380   */\n      tag_192\n      jump\t// in\n    tag_210:\n        /* \"#utility.yul\":1341:1380   */\n      swap2\n      pop\n        /* \"#utility.yul\":1399:1436   */\n      tag_211\n        /* \"#utility.yul\":1432:1434   */\n      0x20\n        /* \"#utility.yul\":1421:1430   */\n      dup5\n        /* \"#utility.yul\":1417:1435   */\n      add\n        /* \"#utility.yul\":1399:1436   */\n      tag_191\n      jump\t// in\n    tag_211:\n        /* \"#utility.yul\":1389:1436   */\n      swap1\n      pop\n        /* \"#utility.yul\":1184:1442   */\n      swap3\n      pop\n      swap3\n      swap1\n      pop\n      jump\t// out\n        /* \"#utility.yul\":1447:1631   */\n    tag_193:\n      shl(0xe0, 0x4e487b71)\n        /* \"#utility.yul\":1496:1497   */\n      0x00\n        /* \"#utility.yul\":1489:1577   */\n      mstore\n        /* \"#utility.yul\":1596:1600   */\n      0x11\n        /* \"#utility.yul\":1593:1594   */\n      0x04\n        /* \"#utility.yul\":1586:1601   */\n      mstore\n        /* \"#utility.yul\":1620:1624   */\n      0x24\n        /* \"#utility.yul\":1617:1618   */\n      0x00\n        /* \"#utility.yul\":1610:1625   */\n      revert\n        /* \"#utility.yul\":1636:1764   */\n    tag_75:\n        /* \"#utility.yul\":1676:1679   */\n      0x00\n        /* \"#utility.yul\":1707:1708   */\n      dup3\n        /* \"#utility.yul\":1703:1709   */\n      not\n        /* \"#utility.yul\":1700:1701   */\n      dup3\n        /* \"#utility.yul\":1697:1710   */\n      gt\n        /* \"#utility.yul\":1694:1733   */\n      iszero\n      tag_215\n      jumpi\n        /* \"#utility.yul\":1713:1731   */\n      tag_215\n      tag_193\n      jump\t// in\n    tag_215:\n      pop\n        /* \"#utility.yul\":1749:1758   */\n      add\n      swap1\n        /* \"#utility.yul\":1636:1764   */\n      jump\t// out\n        /* \"#utility.yul\":1769:1953   */\n    tag_97:\n        /* \"#utility.yul\":1839:1845   */\n      0x00\n        /* \"#utility.yul\":1892:1894   */\n      0x20\n        /* \"#utility.yul\":1880:1889   */\n      dup3\n        /* \"#utility.yul\":1871:1878   */\n      dup5\n        /* \"#utility.yul\":1867:1890   */\n      sub\n        /* \"#utility.yul\":1863:1895   */\n      slt\n        /* \"#utility.yul\":1860:1912   */\n      iszero\n      tag_217\n      jumpi\n        /* \"#utility.yul\":1908:1909   */\n      0x00\n        /* \"#utility.yul\":1905:1906   */\n      dup1\n        /* \"#utility.yul\":1898:1910   */\n      revert\n        /* \"#utility.yul\":1860:1912   */\n    tag_217:\n      pop\n        /* \"#utility.yul\":1931:1947   */\n      mload\n      swap2\n        /* \"#utility.yul\":1769:1953   */\n      swap1\n      pop\n      jump\t// out\n        /* \"#utility.yul\":1958:2083   */\n    tag_112:\n        /* \"#utility.yul\":1998:2002   */\n      0x00\n        /* \"#utility.yul\":2026:2027   */\n      dup3\n        /* \"#utility.yul\":2023:2024   */\n      dup3\n        /* \"#utility.yul\":2020:2028   */\n      lt\n        /* \"#utility.yul\":2017:2051   */\n      iszero\n      tag_220\n      jumpi\n        /* \"#utility.yul\":2031:2049   */\n      tag_220\n      tag_193\n      jump\t// in\n    tag_220:\n      pop\n        /* \"#utility.yul\":2068:2077   */\n      sub\n      swap1\n        /* \"#utility.yul\":1958:2083   */\n      jump\t// out\n        /* \"#utility.yul\":2088:2256   */\n    tag_131:\n        /* \"#utility.yul\":2128:2135   */\n      0x00\n        /* \"#utility.yul\":2194:2195   */\n      dup2\n        /* \"#utility.yul\":2190:2191   */\n      0x00\n        /* \"#utility.yul\":2186:2192   */\n      not\n        /* \"#utility.yul\":2182:2196   */\n      div\n        /* \"#utility.yul\":2179:2180   */\n      dup4\n        /* \"#utility.yul\":2176:2197   */\n      gt\n        /* \"#utility.yul\":2171:2172   */\n      dup3\n        /* \"#utility.yul\":2164:2173   */\n      iszero\n        /* \"#utility.yul\":2157:2174   */\n      iszero\n        /* \"#utility.yul\":2153:2198   */\n      and\n        /* \"#utility.yul\":2150:2221   */\n      iszero\n      tag_223\n      jumpi\n        /* \"#utility.yul\":2201:2219   */\n      tag_223\n      tag_193\n      jump\t// in\n    tag_223:\n      pop\n        /* \"#utility.yul\":2241:2250   */\n      mul\n      swap1\n        /* \"#utility.yul\":2088:2256   */\n      jump\t// out\n        /* \"#utility.yul\":2261:2535   */\n    tag_133:\n        /* \"#utility.yul\":2301:2302   */\n      0x00\n        /* \"#utility.yul\":2327:2328   */\n      dup3\n        /* \"#utility.yul\":2317:2506   */\n      tag_225\n      jumpi\n      shl(0xe0, 0x4e487b71)\n        /* \"#utility.yul\":2359:2360   */\n      0x00\n        /* \"#utility.yul\":2352:2440   */\n      mstore\n        /* \"#utility.yul\":2463:2467   */\n      0x12\n        /* \"#utility.yul\":2460:2461   */\n      0x04\n        /* \"#utility.yul\":2453:2468   */\n      mstore\n        /* \"#utility.yul\":2491:2495   */\n      0x24\n        /* \"#utility.yul\":2488:2489   */\n      0x00\n        /* \"#utility.yul\":2481:2496   */\n      revert\n        /* \"#utility.yul\":2317:2506   */\n    tag_225:\n      pop\n        /* \"#utility.yul\":2520:2529   */\n      div\n      swap1\n        /* \"#utility.yul\":2261:2535   */\n      jump\t// out\n        /* \"#utility.yul\":3837:4114   */\n    tag_160:\n        /* \"#utility.yul\":3904:3910   */\n      0x00\n        /* \"#utility.yul\":3957:3959   */\n      0x20\n        /* \"#utility.yul\":3945:3954   */\n      dup3\n        /* \"#utility.yul\":3936:3943   */\n      dup5\n        /* \"#utility.yul\":3932:3955   */\n      sub\n        /* \"#utility.yul\":3928:3960   */\n      slt\n        /* \"#utility.yul\":3925:3977   */\n      iszero\n      tag_231\n      jumpi\n        /* \"#utility.yul\":3973:3974   */\n      0x00\n        /* \"#utility.yul\":3970:3971   */\n      dup1\n        /* \"#utility.yul\":3963:3975   */\n      revert\n        /* \"#utility.yul\":3925:3977   */\n    tag_231:\n        /* \"#utility.yul\":4005:4014   */\n      dup2\n        /* \"#utility.yul\":3999:4015   */\n      mload\n        /* \"#utility.yul\":4058:4063   */\n      dup1\n        /* \"#utility.yul\":4051:4064   */\n      iszero\n        /* \"#utility.yul\":4044:4065   */\n      iszero\n        /* \"#utility.yul\":4037:4042   */\n      dup2\n        /* \"#utility.yul\":4034:4066   */\n      eq\n        /* \"#utility.yul\":4024:4084   */\n      tag_91\n      jumpi\n        /* \"#utility.yul\":4080:4081   */\n      0x00\n        /* \"#utility.yul\":4077:4078   */\n      dup1\n        /* \"#utility.yul\":4070:4082   */\n      revert\n        /* \"#utility.yul\":5295:5553   */\n    tag_194:\n        /* \"#utility.yul\":5367:5368   */\n      0x00\n        /* \"#utility.yul\":5377:5490   */\n    tag_237:\n        /* \"#utility.yul\":5391:5397   */\n      dup4\n        /* \"#utility.yul\":5388:5389   */\n      dup2\n        /* \"#utility.yul\":5385:5398   */\n      lt\n        /* \"#utility.yul\":5377:5490   */\n      iszero\n      tag_239\n      jumpi\n        /* \"#utility.yul\":5467:5478   */\n      dup2\n      dup2\n      add\n        /* \"#utility.yul\":5461:5479   */\n      mload\n        /* \"#utility.yul\":5448:5459   */\n      dup4\n      dup3\n      add\n        /* \"#utility.yul\":5441:5480   */\n      mstore\n        /* \"#utility.yul\":5413:5415   */\n      0x20\n        /* \"#utility.yul\":5406:5416   */\n      add\n        /* \"#utility.yul\":5377:5490   */\n      jump(tag_237)\n    tag_239:\n        /* \"#utility.yul\":5508:5514   */\n      dup4\n        /* \"#utility.yul\":5505:5506   */\n      dup2\n        /* \"#utility.yul\":5502:5515   */\n      gt\n        /* \"#utility.yul\":5499:5547   */\n      iszero\n      tag_240\n      jumpi\n        /* \"#utility.yul\":5543:5544   */\n      0x00\n        /* \"#utility.yul\":5534:5540   */\n      dup5\n        /* \"#utility.yul\":5529:5532   */\n      dup5\n        /* \"#utility.yul\":5525:5541   */\n      add\n        /* \"#utility.yul\":5518:5545   */\n      mstore\n        /* \"#utility.yul\":5499:5547   */\n    tag_240:\n      pop\n        /* \"#utility.yul\":5295:5553   */\n      pop\n      pop\n      pop\n      jump\t// out\n        /* \"#utility.yul\":5558:5832   */\n    tag_177:\n        /* \"#utility.yul\":5687:5690   */\n      0x00\n        /* \"#utility.yul\":5725:5731   */\n      dup3\n        /* \"#utility.yul\":5719:5732   */\n      mload\n        /* \"#utility.yul\":5741:5794   */\n      tag_242\n        /* \"#utility.yul\":5787:5793   */\n      dup2\n        /* \"#utility.yul\":5782:5785   */\n      dup5\n        /* \"#utility.yul\":5775:5779   */\n      0x20\n        /* \"#utility.yul\":5767:5773   */\n      dup8\n        /* \"#utility.yul\":5763:5780   */\n      add\n        /* \"#utility.yul\":5741:5794   */\n      tag_194\n      jump\t// in\n    tag_242:\n        /* \"#utility.yul\":5810:5826   */\n      swap2\n      swap1\n      swap2\n      add\n      swap3\n        /* \"#utility.yul\":5558:5832   */\n      swap2\n      pop\n      pop\n      jump\t// out\n        /* \"#utility.yul\":5837:6220   */\n    tag_190:\n        /* \"#utility.yul\":5986:5988   */\n      0x20\n        /* \"#utility.yul\":5975:5984   */\n      dup2\n        /* \"#utility.yul\":5968:5989   */\n      mstore\n        /* \"#utility.yul\":5949:5953   */\n      0x00\n        /* \"#utility.yul\":6018:6024   */\n      dup3\n        /* \"#utility.yul\":6012:6025   */\n      mload\n        /* \"#utility.yul\":6061:6067   */\n      dup1\n        /* \"#utility.yul\":6056:6058   */\n      0x20\n        /* \"#utility.yul\":6045:6054   */\n      dup5\n        /* \"#utility.yul\":6041:6059   */\n      add\n        /* \"#utility.yul\":6034:6068   */\n      mstore\n        /* \"#utility.yul\":6077:6143   */\n      tag_244\n        /* \"#utility.yul\":6136:6142   */\n      dup2\n        /* \"#utility.yul\":6131:6133   */\n      0x40\n        /* \"#utility.yul\":6120:6129   */\n      dup6\n        /* \"#utility.yul\":6116:6134   */\n      add\n        /* \"#utility.yul\":6111:6113   */\n      0x20\n        /* \"#utility.yul\":6103:6109   */\n      dup8\n        /* \"#utility.yul\":6099:6114   */\n      add\n        /* \"#utility.yul\":6077:6143   */\n      tag_194\n      jump\t// in\n    tag_244:\n        /* \"#utility.yul\":6204:6206   */\n      0x1f\n        /* \"#utility.yul\":6183:6198   */\n      add\n      not(0x1f)\n        /* \"#utility.yul\":6179:6208   */\n      and\n        /* \"#utility.yul\":6164:6209   */\n      swap2\n      swap1\n      swap2\n      add\n        /* \"#utility.yul\":6211:6213   */\n      0x40\n        /* \"#utility.yul\":6160:6214   */\n      add\n      swap3\n        /* \"#utility.yul\":5837:6220   */\n      swap2\n      pop\n      pop\n      jump\t// out\n\n    auxdata: 0xa264697066735822122039868e6a418d9d06e380f8131b95bf6be72395171d308c5d2a49cdb0f12829ed64736f6c634300080b0033\n}\n",
				"bytecode": {
					"linkReferences": {},
					"object": "60e0604052604051610e39380380610e39833981016040819052610022916100d0565b6001600160a01b03831661008f5760405162461bcd60e51b815260206004820152602a60248201527f56657374696e6757616c6c65743a2062656e6566696369617279206973207a65604482015269726f206164647265737360b01b606482015260840160405180910390fd5b6001600160a01b039092166080526001600160401b0390811660a0521660c052610121565b80516001600160401b03811681146100cb57600080fd5b919050565b6000806000606084860312156100e557600080fd5b83516001600160a01b03811681146100fc57600080fd5b925061010a602085016100b4565b9150610118604085016100b4565b90509250925092565b60805160a05160c051610cb16101886000396000818161010e0152818161054901526105ac015260008181610251015281816104f90152818161056d015281816105d701526106370152600081816101780152818161035201526104840152610cb16000f3fe6080604052600436106100c05760003560e01c806386d1a69f11610074578063a3f8eace1161004e578063a3f8eace14610222578063be9a655514610242578063fbccedae1461027f57600080fd5b806386d1a69f146101c257806396132521146101d75780639852595c146101ec57600080fd5b806319165587116100a5578063191655871461013c57806338af3eed1461015e578063810ec23b146101a257600080fd5b80630a17b06b146100cc5780630fb5a6b4146100ff57600080fd5b366100c757005b600080fd5b3480156100d857600080fd5b506100ec6100e7366004610abb565b610294565b6040519081526020015b60405180910390f35b34801561010b57600080fd5b507f000000000000000000000000000000000000000000000000000000000000000067ffffffffffffffff166100ec565b34801561014857600080fd5b5061015c610157366004610aed565b6102b8565b005b34801561016a57600080fd5b506040516001600160a01b037f00000000000000000000000000000000000000000000000000000000000000001681526020016100f6565b3480156101ae57600080fd5b506100ec6101bd366004610b08565b61037b565b3480156101ce57600080fd5b5061015c61042a565b3480156101e357600080fd5b506000546100ec565b3480156101f857600080fd5b506100ec610207366004610aed565b6001600160a01b031660009081526001602052604090205490565b34801561022e57600080fd5b506100ec61023d366004610aed565b6104ac565b34801561024e57600080fd5b507f000000000000000000000000000000000000000000000000000000000000000067ffffffffffffffff166100ec565b34801561028b57600080fd5b506100ec6104d9565b60006102b26102a260005490565b6102ac9047610b51565b836104f5565b92915050565b60006102c3826104ac565b90506002546102d061062f565b1115610377576102de61062f565b6002556001600160a01b03821660009081526001602052604081208054839290610309908490610b51565b90915550506040518181526001600160a01b038316907fc0e523490dd523c33b1878c9eb14ff46991e3f5b2cd33710918618f2a39cba1b9060200160405180910390a2610377827f00000000000000000000000000000000000000000000000000000000000000008361067e565b5050565b6001600160a01b038216600090815260016020526040812054610423906040517f70a082310000000000000000000000000000000000000000000000000000000081523060048201526001600160a01b038616906370a0823190602401602060405180830381865afa1580156103f5573d6000803e3d6000fd5b505050506040513d601f19601f820116820180604052508101906104199190610b69565b6102ac9190610b51565b9392505050565b60006104346104d9565b9050806000808282546104479190610b51565b90915550506040518181527fda9d4e5f101b8b9b1c5b76d0c5a9f7923571acfc02376aa076b75a8c080c956b9060200160405180910390a16104a97f000000000000000000000000000000000000000000000000000000000000000082610703565b50565b6001600160a01b0381166000908152600160205260408120546104cf834261037b565b6102b29190610b82565b600080546104e642610294565b6104f09190610b82565b905090565b60007f000000000000000000000000000000000000000000000000000000000000000067ffffffffffffffff168267ffffffffffffffff16101561053b575060006102b2565b61059267ffffffffffffffff7f00000000000000000000000000000000000000000000000000000000000000008116907f000000000000000000000000000000000000000000000000000000000000000016610b51565b8267ffffffffffffffff1611156105aa5750816102b2565b7f000000000000000000000000000000000000000000000000000000000000000067ffffffffffffffff167f000000000000000000000000000000000000000000000000000000000000000067ffffffffffffffff166106149067ffffffffffffffff8516610b82565b61061e9085610b99565b6106289190610bb8565b90506102b2565b600062278d007f000000000000000000000000000000000000000000000000000000000000000067ffffffffffffffff166106749067ffffffffffffffff4216610b82565b6104f09190610bb8565b604080516001600160a01b038416602482015260448082018490528251808303909101815260649091019091526020810180517bffffffffffffffffffffffffffffffffffffffffffffffffffffffff167fa9059cbb000000000000000000000000000000000000000000000000000000001790526106fe908490610821565b505050565b804710156107585760405162461bcd60e51b815260206004820152601d60248201527f416464726573733a20696e73756666696369656e742062616c616e636500000060448201526064015b60405180910390fd5b6000826001600160a01b03168260405160006040518083038185875af1925050503d80600081146107a5576040519150601f19603f3d011682016040523d82523d6000602084013e6107aa565b606091505b50509050806106fe5760405162461bcd60e51b815260206004820152603a60248201527f416464726573733a20756e61626c6520746f2073656e642076616c75652c207260448201527f6563697069656e74206d61792068617665207265766572746564000000000000606482015260840161074f565b6000610876826040518060400160405280602081526020017f5361666545524332303a206c6f772d6c6576656c2063616c6c206661696c6564815250856001600160a01b03166109069092919063ffffffff16565b8051909150156106fe57808060200190518101906108949190610bda565b6106fe5760405162461bcd60e51b815260206004820152602a60248201527f5361666545524332303a204552433230206f7065726174696f6e20646964206e60448201527f6f74207375636365656400000000000000000000000000000000000000000000606482015260840161074f565b6060610915848460008561091d565b949350505050565b6060824710156109955760405162461bcd60e51b815260206004820152602660248201527f416464726573733a20696e73756666696369656e742062616c616e636520666f60448201527f722063616c6c0000000000000000000000000000000000000000000000000000606482015260840161074f565b6001600160a01b0385163b6109ec5760405162461bcd60e51b815260206004820152601d60248201527f416464726573733a2063616c6c20746f206e6f6e2d636f6e7472616374000000604482015260640161074f565b600080866001600160a01b03168587604051610a089190610c2c565b60006040518083038185875af1925050503d8060008114610a45576040519150601f19603f3d011682016040523d82523d6000602084013e610a4a565b606091505b5091509150610a5a828286610a65565b979650505050505050565b60608315610a74575081610423565b825115610a845782518084602001fd5b8160405162461bcd60e51b815260040161074f9190610c48565b803567ffffffffffffffff81168114610ab657600080fd5b919050565b600060208284031215610acd57600080fd5b61042382610a9e565b80356001600160a01b0381168114610ab657600080fd5b600060208284031215610aff57600080fd5b61042382610ad6565b60008060408385031215610b1b57600080fd5b610b2483610ad6565b9150610b3260208401610a9e565b90509250929050565b634e487b7160e01b600052601160045260246000fd5b60008219821115610b6457610b64610b3b565b500190565b600060208284031215610b7b57600080fd5b5051919050565b600082821015610b9457610b94610b3b565b500390565b6000816000190483118215151615610bb357610bb3610b3b565b500290565b600082610bd557634e487b7160e01b600052601260045260246000fd5b500490565b600060208284031215610bec57600080fd5b8151801515811461042357600080fd5b60005b83811015610c17578181015183820152602001610bff565b83811115610c26576000848401525b50505050565b60008251610c3e818460208701610bfc565b9190910192915050565b6020815260008251806020840152610c67816040850160208701610bfc565b601f01601f1916919091016040019291505056fea264697066735822122039868e6a418d9d06e380f8131b95bf6be72395171d308c5d2a49cdb0f12829ed64736f6c634300080b0033",
					"opcodes": "PUSH1 0xE0 PUSH1 0x40 MSTORE PUSH1 0x40 MLOAD PUSH2 0xE39 CODESIZE SUB DUP1 PUSH2 0xE39 DUP4 CODECOPY DUP2 ADD PUSH1 0x40 DUP2 SWAP1 MSTORE PUSH2 0x22 SWAP2 PUSH2 0xD0 JUMP JUMPDEST PUSH1 0x1 PUSH1 0x1 PUSH1 0xA0 SHL SUB DUP4 AND PUSH2 0x8F JUMPI PUSH1 0x40 MLOAD PUSH3 0x461BCD PUSH1 0xE5 SHL DUP2 MSTORE PUSH1 0x20 PUSH1 0x4 DUP3 ADD MSTORE PUSH1 0x2A PUSH1 0x24 DUP3 ADD MSTORE PUSH32 0x56657374696E6757616C6C65743A2062656E6566696369617279206973207A65 PUSH1 0x44 DUP3 ADD MSTORE PUSH10 0x726F2061646472657373 PUSH1 0xB0 SHL PUSH1 0x64 DUP3 ADD MSTORE PUSH1 0x84 ADD PUSH1 0x40 MLOAD DUP1 SWAP2 SUB SWAP1 REVERT JUMPDEST PUSH1 0x1 PUSH1 0x1 PUSH1 0xA0 SHL SUB SWAP1 SWAP3 AND PUSH1 0x80 MSTORE PUSH1 0x1 PUSH1 0x1 PUSH1 0x40 SHL SUB SWAP1 DUP2 AND PUSH1 0xA0 MSTORE AND PUSH1 0xC0 MSTORE PUSH2 0x121 JUMP JUMPDEST DUP1 MLOAD PUSH1 0x1 PUSH1 0x1 PUSH1 0x40 SHL SUB DUP2 AND DUP2 EQ PUSH2 0xCB JUMPI PUSH1 0x0 DUP1 REVERT JUMPDEST SWAP2 SWAP1 POP JUMP JUMPDEST PUSH1 0x0 DUP1 PUSH1 0x0 PUSH1 0x60 DUP5 DUP7 SUB SLT ISZERO PUSH2 0xE5 JUMPI PUSH1 0x0 DUP1 REVERT JUMPDEST DUP4 MLOAD PUSH1 0x1 PUSH1 0x1 PUSH1 0xA0 SHL SUB DUP2 AND DUP2 EQ PUSH2 0xFC JUMPI PUSH1 0x0 DUP1 REVERT JUMPDEST SWAP3 POP PUSH2 0x10A PUSH1 0x20 DUP6 ADD PUSH2 0xB4 JUMP JUMPDEST SWAP2 POP PUSH2 0x118 PUSH1 0x40 DUP6 ADD PUSH2 0xB4 JUMP JUMPDEST SWAP1 POP SWAP3 POP SWAP3 POP SWAP3 JUMP JUMPDEST PUSH1 0x80 MLOAD PUSH1 0xA0 MLOAD PUSH1 0xC0 MLOAD PUSH2 0xCB1 PUSH2 0x188 PUSH1 0x0 CODECOPY PUSH1 0x0 DUP2 DUP2 PUSH2 0x10E ADD MSTORE DUP2 DUP2 PUSH2 0x549 ADD MSTORE PUSH2 0x5AC ADD MSTORE PUSH1 0x0 DUP2 DUP2 PUSH2 0x251 ADD MSTORE DUP2 DUP2 PUSH2 0x4F9 ADD MSTORE DUP2 DUP2 PUSH2 0x56D ADD MSTORE DUP2 DUP2 PUSH2 0x5D7 ADD MSTORE PUSH2 0x637 ADD MSTORE PUSH1 0x0 DUP2 DUP2 PUSH2 0x178 ADD MSTORE DUP2 DUP2 PUSH2 0x352 ADD MSTORE PUSH2 0x484 ADD MSTORE PUSH2 0xCB1 PUSH1 0x0 RETURN INVALID PUSH1 0x80 PUSH1 0x40 MSTORE PUSH1 0x4 CALLDATASIZE LT PUSH2 0xC0 JUMPI PUSH1 0x0 CALLDATALOAD PUSH1 0xE0 SHR DUP1 PUSH4 0x86D1A69F GT PUSH2 0x74 JUMPI DUP1 PUSH4 0xA3F8EACE GT PUSH2 0x4E JUMPI DUP1 PUSH4 0xA3F8EACE EQ PUSH2 0x222 JUMPI DUP1 PUSH4 0xBE9A6555 EQ PUSH2 0x242 JUMPI DUP1 PUSH4 0xFBCCEDAE EQ PUSH2 0x27F JUMPI PUSH1 0x0 DUP1 REVERT JUMPDEST DUP1 PUSH4 0x86D1A69F EQ PUSH2 0x1C2 JUMPI DUP1 PUSH4 0x96132521 EQ PUSH2 0x1D7 JUMPI DUP1 PUSH4 0x9852595C EQ PUSH2 0x1EC JUMPI PUSH1 0x0 DUP1 REVERT JUMPDEST DUP1 PUSH4 0x19165587 GT PUSH2 0xA5 JUMPI DUP1 PUSH4 0x19165587 EQ PUSH2 0x13C JUMPI DUP1 PUSH4 0x38AF3EED EQ PUSH2 0x15E JUMPI DUP1 PUSH4 0x810EC23B EQ PUSH2 0x1A2 JUMPI PUSH1 0x0 DUP1 REVERT JUMPDEST DUP1 PUSH4 0xA17B06B EQ PUSH2 0xCC JUMPI DUP1 PUSH4 0xFB5A6B4 EQ PUSH2 0xFF JUMPI PUSH1 0x0 DUP1 REVERT JUMPDEST CALLDATASIZE PUSH2 0xC7 JUMPI STOP JUMPDEST PUSH1 0x0 DUP1 REVERT JUMPDEST CALLVALUE DUP1 ISZERO PUSH2 0xD8 JUMPI PUSH1 0x0 DUP1 REVERT JUMPDEST POP PUSH2 0xEC PUSH2 0xE7 CALLDATASIZE PUSH1 0x4 PUSH2 0xABB JUMP JUMPDEST PUSH2 0x294 JUMP JUMPDEST PUSH1 0x40 MLOAD SWAP1 DUP2 MSTORE PUSH1 0x20 ADD JUMPDEST PUSH1 0x40 MLOAD DUP1 SWAP2 SUB SWAP1 RETURN JUMPDEST CALLVALUE DUP1 ISZERO PUSH2 0x10B JUMPI PUSH1 0x0 DUP1 REVERT JUMPDEST POP PUSH32 0x0 PUSH8 0xFFFFFFFFFFFFFFFF AND PUSH2 0xEC JUMP JUMPDEST CALLVALUE DUP1 ISZERO PUSH2 0x148 JUMPI PUSH1 0x0 DUP1 REVERT JUMPDEST POP PUSH2 0x15C PUSH2 0x157 CALLDATASIZE PUSH1 0x4 PUSH2 0xAED JUMP JUMPDEST PUSH2 0x2B8 JUMP JUMPDEST STOP JUMPDEST CALLVALUE DUP1 ISZERO PUSH2 0x16A JUMPI PUSH1 0x0 DUP1 REVERT JUMPDEST POP PUSH1 0x40 MLOAD PUSH1 0x1 PUSH1 0x1 PUSH1 0xA0 SHL SUB PUSH32 0x0 AND DUP2 MSTORE PUSH1 0x20 ADD PUSH2 0xF6 JUMP JUMPDEST CALLVALUE DUP1 ISZERO PUSH2 0x1AE JUMPI PUSH1 0x0 DUP1 REVERT JUMPDEST POP PUSH2 0xEC PUSH2 0x1BD CALLDATASIZE PUSH1 0x4 PUSH2 0xB08 JUMP JUMPDEST PUSH2 0x37B JUMP JUMPDEST CALLVALUE DUP1 ISZERO PUSH2 0x1CE JUMPI PUSH1 0x0 DUP1 REVERT JUMPDEST POP PUSH2 0x15C PUSH2 0x42A JUMP JUMPDEST CALLVALUE DUP1 ISZERO PUSH2 0x1E3 JUMPI PUSH1 0x0 DUP1 REVERT JUMPDEST POP PUSH1 0x0 SLOAD PUSH2 0xEC JUMP JUMPDEST CALLVALUE DUP1 ISZERO PUSH2 0x1F8 JUMPI PUSH1 0x0 DUP1 REVERT JUMPDEST POP PUSH2 0xEC PUSH2 0x207 CALLDATASIZE PUSH1 0x4 PUSH2 0xAED JUMP JUMPDEST PUSH1 0x1 PUSH1 0x1 PUSH1 0xA0 SHL SUB AND PUSH1 0x0 SWAP1 DUP2 MSTORE PUSH1 0x1 PUSH1 0x20 MSTORE PUSH1 0x40 SWAP1 KECCAK256 SLOAD SWAP1 JUMP JUMPDEST CALLVALUE DUP1 ISZERO PUSH2 0x22E JUMPI PUSH1 0x0 DUP1 REVERT JUMPDEST POP PUSH2 0xEC PUSH2 0x23D CALLDATASIZE PUSH1 0x4 PUSH2 0xAED JUMP JUMPDEST PUSH2 0x4AC JUMP JUMPDEST CALLVALUE DUP1 ISZERO PUSH2 0x24E JUMPI PUSH1 0x0 DUP1 REVERT JUMPDEST POP PUSH32 0x0 PUSH8 0xFFFFFFFFFFFFFFFF AND PUSH2 0xEC JUMP JUMPDEST CALLVALUE DUP1 ISZERO PUSH2 0x28B JUMPI PUSH1 0x0 DUP1 REVERT JUMPDEST POP PUSH2 0xEC PUSH2 0x4D9 JUMP JUMPDEST PUSH1 0x0 PUSH2 0x2B2 PUSH2 0x2A2 PUSH1 0x0 SLOAD SWAP1 JUMP JUMPDEST PUSH2 0x2AC SWAP1 SELFBALANCE PUSH2 0xB51 JUMP JUMPDEST DUP4 PUSH2 0x4F5 JUMP JUMPDEST SWAP3 SWAP2 POP POP JUMP JUMPDEST PUSH1 0x0 PUSH2 0x2C3 DUP3 PUSH2 0x4AC JUMP JUMPDEST SWAP1 POP PUSH1 0x2 SLOAD PUSH2 0x2D0 PUSH2 0x62F JUMP JUMPDEST GT ISZERO PUSH2 0x377 JUMPI PUSH2 0x2DE PUSH2 0x62F JUMP JUMPDEST PUSH1 0x2 SSTORE PUSH1 0x1 PUSH1 0x1 PUSH1 0xA0 SHL SUB DUP3 AND PUSH1 0x0 SWAP1 DUP2 MSTORE PUSH1 0x1 PUSH1 0x20 MSTORE PUSH1 0x40 DUP2 KECCAK256 DUP1 SLOAD DUP4 SWAP3 SWAP1 PUSH2 0x309 SWAP1 DUP5 SWAP1 PUSH2 0xB51 JUMP JUMPDEST SWAP1 SWAP2 SSTORE POP POP PUSH1 0x40 MLOAD DUP2 DUP2 MSTORE PUSH1 0x1 PUSH1 0x1 PUSH1 0xA0 SHL SUB DUP4 AND SWAP1 PUSH32 0xC0E523490DD523C33B1878C9EB14FF46991E3F5B2CD33710918618F2A39CBA1B SWAP1 PUSH1 0x20 ADD PUSH1 0x40 MLOAD DUP1 SWAP2 SUB SWAP1 LOG2 PUSH2 0x377 DUP3 PUSH32 0x0 DUP4 PUSH2 0x67E JUMP JUMPDEST POP POP JUMP JUMPDEST PUSH1 0x1 PUSH1 0x1 PUSH1 0xA0 SHL SUB DUP3 AND PUSH1 0x0 SWAP1 DUP2 MSTORE PUSH1 0x1 PUSH1 0x20 MSTORE PUSH1 0x40 DUP2 KECCAK256 SLOAD PUSH2 0x423 SWAP1 PUSH1 0x40 MLOAD PUSH32 0x70A0823100000000000000000000000000000000000000000000000000000000 DUP2 MSTORE ADDRESS PUSH1 0x4 DUP3 ADD MSTORE PUSH1 0x1 PUSH1 0x1 PUSH1 0xA0 SHL SUB DUP7 AND SWAP1 PUSH4 0x70A08231 SWAP1 PUSH1 0x24 ADD PUSH1 0x20 PUSH1 0x40 MLOAD DUP1 DUP4 SUB DUP2 DUP7 GAS STATICCALL ISZERO DUP1 ISZERO PUSH2 0x3F5 JUMPI RETURNDATASIZE PUSH1 0x0 DUP1 RETURNDATACOPY RETURNDATASIZE PUSH1 0x0 REVERT JUMPDEST POP POP POP POP PUSH1 0x40 MLOAD RETURNDATASIZE PUSH1 0x1F NOT PUSH1 0x1F DUP3 ADD AND DUP3 ADD DUP1 PUSH1 0x40 MSTORE POP DUP2 ADD SWAP1 PUSH2 0x419 SWAP2 SWAP1 PUSH2 0xB69 JUMP JUMPDEST PUSH2 0x2AC SWAP2 SWAP1 PUSH2 0xB51 JUMP JUMPDEST SWAP4 SWAP3 POP POP POP JUMP JUMPDEST PUSH1 0x0 PUSH2 0x434 PUSH2 0x4D9 JUMP JUMPDEST SWAP1 POP DUP1 PUSH1 0x0 DUP1 DUP3 DUP3 SLOAD PUSH2 0x447 SWAP2 SWAP1 PUSH2 0xB51 JUMP JUMPDEST SWAP1 SWAP2 SSTORE POP POP PUSH1 0x40 MLOAD DUP2 DUP2 MSTORE PUSH32 0xDA9D4E5F101B8B9B1C5B76D0C5A9F7923571ACFC02376AA076B75A8C080C956B SWAP1 PUSH1 0x20 ADD PUSH1 0x40 MLOAD DUP1 SWAP2 SUB SWAP1 LOG1 PUSH2 0x4A9 PUSH32 0x0 DUP3 PUSH2 0x703 JUMP JUMPDEST POP JUMP JUMPDEST PUSH1 0x1 PUSH1 0x1 PUSH1 0xA0 SHL SUB DUP2 AND PUSH1 0x0 SWAP1 DUP2 MSTORE PUSH1 0x1 PUSH1 0x20 MSTORE PUSH1 0x40 DUP2 KECCAK256 SLOAD PUSH2 0x4CF DUP4 TIMESTAMP PUSH2 0x37B JUMP JUMPDEST PUSH2 0x2B2 SWAP2 SWAP1 PUSH2 0xB82 JUMP JUMPDEST PUSH1 0x0 DUP1 SLOAD PUSH2 0x4E6 TIMESTAMP PUSH2 0x294 JUMP JUMPDEST PUSH2 0x4F0 SWAP2 SWAP1 PUSH2 0xB82 JUMP JUMPDEST SWAP1 POP SWAP1 JUMP JUMPDEST PUSH1 0x0 PUSH32 0x0 PUSH8 0xFFFFFFFFFFFFFFFF AND DUP3 PUSH8 0xFFFFFFFFFFFFFFFF AND LT ISZERO PUSH2 0x53B JUMPI POP PUSH1 0x0 PUSH2 0x2B2 JUMP JUMPDEST PUSH2 0x592 PUSH8 0xFFFFFFFFFFFFFFFF PUSH32 0x0 DUP2 AND SWAP1 PUSH32 0x0 AND PUSH2 0xB51 JUMP JUMPDEST DUP3 PUSH8 0xFFFFFFFFFFFFFFFF AND GT ISZERO PUSH2 0x5AA JUMPI POP DUP2 PUSH2 0x2B2 JUMP JUMPDEST PUSH32 0x0 PUSH8 0xFFFFFFFFFFFFFFFF AND PUSH32 0x0 PUSH8 0xFFFFFFFFFFFFFFFF AND PUSH2 0x614 SWAP1 PUSH8 0xFFFFFFFFFFFFFFFF DUP6 AND PUSH2 0xB82 JUMP JUMPDEST PUSH2 0x61E SWAP1 DUP6 PUSH2 0xB99 JUMP JUMPDEST PUSH2 0x628 SWAP2 SWAP1 PUSH2 0xBB8 JUMP JUMPDEST SWAP1 POP PUSH2 0x2B2 JUMP JUMPDEST PUSH1 0x0 PUSH3 0x278D00 PUSH32 0x0 PUSH8 0xFFFFFFFFFFFFFFFF AND PUSH2 0x674 SWAP1 PUSH8 0xFFFFFFFFFFFFFFFF TIMESTAMP AND PUSH2 0xB82 JUMP JUMPDEST PUSH2 0x4F0 SWAP2 SWAP1 PUSH2 0xBB8 JUMP JUMPDEST PUSH1 0x40 DUP1 MLOAD PUSH1 0x1 PUSH1 0x1 PUSH1 0xA0 SHL SUB DUP5 AND PUSH1 0x24 DUP3 ADD MSTORE PUSH1 0x44 DUP1 DUP3 ADD DUP5 SWAP1 MSTORE DUP3 MLOAD DUP1 DUP4 SUB SWAP1 SWAP2 ADD DUP2 MSTORE PUSH1 0x64 SWAP1 SWAP2 ADD SWAP1 SWAP2 MSTORE PUSH1 0x20 DUP2 ADD DUP1 MLOAD PUSH28 0xFFFFFFFFFFFFFFFFFFFFFFFFFFFFFFFFFFFFFFFFFFFFFFFFFFFFFFFF AND PUSH32 0xA9059CBB00000000000000000000000000000000000000000000000000000000 OR SWAP1 MSTORE PUSH2 0x6FE SWAP1 DUP5 SWAP1 PUSH2 0x821 JUMP JUMPDEST POP POP POP JUMP JUMPDEST DUP1 SELFBALANCE LT ISZERO PUSH2 0x758 JUMPI PUSH1 0x40 MLOAD PUSH3 0x461BCD PUSH1 0xE5 SHL DUP2 MSTORE PUSH1 0x20 PUSH1 0x4 DUP3 ADD MSTORE PUSH1 0x1D PUSH1 0x24 DUP3 ADD MSTORE PUSH32 0x416464726573733A20696E73756666696369656E742062616C616E6365000000 PUSH1 0x44 DUP3 ADD MSTORE PUSH1 0x64 ADD JUMPDEST PUSH1 0x40 MLOAD DUP1 SWAP2 SUB SWAP1 REVERT JUMPDEST PUSH1 0x0 DUP3 PUSH1 0x1 PUSH1 0x1 PUSH1 0xA0 SHL SUB AND DUP3 PUSH1 0x40 MLOAD PUSH1 0x0 PUSH1 0x40 MLOAD DUP1 DUP4 SUB DUP2 DUP6 DUP8 GAS CALL SWAP3 POP POP POP RETURNDATASIZE DUP1 PUSH1 0x0 DUP2 EQ PUSH2 0x7A5 JUMPI PUSH1 0x40 MLOAD SWAP2 POP PUSH1 0x1F NOT PUSH1 0x3F RETURNDATASIZE ADD AND DUP3 ADD PUSH1 0x40 MSTORE RETURNDATASIZE DUP3 MSTORE RETURNDATASIZE PUSH1 0x0 PUSH1 0x20 DUP5 ADD RETURNDATACOPY PUSH2 0x7AA JUMP JUMPDEST PUSH1 0x60 SWAP2 POP JUMPDEST POP POP SWAP1 POP DUP1 PUSH2 0x6FE JUMPI PUSH1 0x40 MLOAD PUSH3 0x461BCD PUSH1 0xE5 SHL DUP2 MSTORE PUSH1 0x20 PUSH1 0x4 DUP3 ADD MSTORE PUSH1 0x3A PUSH1 0x24 DUP3 ADD MSTORE PUSH32 0x416464726573733A20756E61626C6520746F2073656E642076616C75652C2072 PUSH1 0x44 DUP3 ADD MSTORE PUSH32 0x6563697069656E74206D61792068617665207265766572746564000000000000 PUSH1 0x64 DUP3 ADD MSTORE PUSH1 0x84 ADD PUSH2 0x74F JUMP JUMPDEST PUSH1 0x0 PUSH2 0x876 DUP3 PUSH1 0x40 MLOAD DUP1 PUSH1 0x40 ADD PUSH1 0x40 MSTORE DUP1 PUSH1 0x20 DUP2 MSTORE PUSH1 0x20 ADD PUSH32 0x5361666545524332303A206C6F772D6C6576656C2063616C6C206661696C6564 DUP2 MSTORE POP DUP6 PUSH1 0x1 PUSH1 0x1 PUSH1 0xA0 SHL SUB AND PUSH2 0x906 SWAP1 SWAP3 SWAP2 SWAP1 PUSH4 0xFFFFFFFF AND JUMP JUMPDEST DUP1 MLOAD SWAP1 SWAP2 POP ISZERO PUSH2 0x6FE JUMPI DUP1 DUP1 PUSH1 0x20 ADD SWAP1 MLOAD DUP2 ADD SWAP1 PUSH2 0x894 SWAP2 SWAP1 PUSH2 0xBDA JUMP JUMPDEST PUSH2 0x6FE JUMPI PUSH1 0x40 MLOAD PUSH3 0x461BCD PUSH1 0xE5 SHL DUP2 MSTORE PUSH1 0x20 PUSH1 0x4 DUP3 ADD MSTORE PUSH1 0x2A PUSH1 0x24 DUP3 ADD MSTORE PUSH32 0x5361666545524332303A204552433230206F7065726174696F6E20646964206E PUSH1 0x44 DUP3 ADD MSTORE PUSH32 0x6F74207375636365656400000000000000000000000000000000000000000000 PUSH1 0x64 DUP3 ADD MSTORE PUSH1 0x84 ADD PUSH2 0x74F JUMP JUMPDEST PUSH1 0x60 PUSH2 0x915 DUP5 DUP5 PUSH1 0x0 DUP6 PUSH2 0x91D JUMP JUMPDEST SWAP5 SWAP4 POP POP POP POP JUMP JUMPDEST PUSH1 0x60 DUP3 SELFBALANCE LT ISZERO PUSH2 0x995 JUMPI PUSH1 0x40 MLOAD PUSH3 0x461BCD PUSH1 0xE5 SHL DUP2 MSTORE PUSH1 0x20 PUSH1 0x4 DUP3 ADD MSTORE PUSH1 0x26 PUSH1 0x24 DUP3 ADD MSTORE PUSH32 0x416464726573733A20696E73756666696369656E742062616C616E636520666F PUSH1 0x44 DUP3 ADD MSTORE PUSH32 0x722063616C6C0000000000000000000000000000000000000000000000000000 PUSH1 0x64 DUP3 ADD MSTORE PUSH1 0x84 ADD PUSH2 0x74F JUMP JUMPDEST PUSH1 0x1 PUSH1 0x1 PUSH1 0xA0 SHL SUB DUP6 AND EXTCODESIZE PUSH2 0x9EC JUMPI PUSH1 0x40 MLOAD PUSH3 0x461BCD PUSH1 0xE5 SHL DUP2 MSTORE PUSH1 0x20 PUSH1 0x4 DUP3 ADD MSTORE PUSH1 0x1D PUSH1 0x24 DUP3 ADD MSTORE PUSH32 0x416464726573733A2063616C6C20746F206E6F6E2D636F6E7472616374000000 PUSH1 0x44 DUP3 ADD MSTORE PUSH1 0x64 ADD PUSH2 0x74F JUMP JUMPDEST PUSH1 0x0 DUP1 DUP7 PUSH1 0x1 PUSH1 0x1 PUSH1 0xA0 SHL SUB AND DUP6 DUP8 PUSH1 0x40 MLOAD PUSH2 0xA08 SWAP2 SWAP1 PUSH2 0xC2C JUMP JUMPDEST PUSH1 0x0 PUSH1 0x40 MLOAD DUP1 DUP4 SUB DUP2 DUP6 DUP8 GAS CALL SWAP3 POP POP POP RETURNDATASIZE DUP1 PUSH1 0x0 DUP2 EQ PUSH2 0xA45 JUMPI PUSH1 0x40 MLOAD SWAP2 POP PUSH1 0x1F NOT PUSH1 0x3F RETURNDATASIZE ADD AND DUP3 ADD PUSH1 0x40 MSTORE RETURNDATASIZE DUP3 MSTORE RETURNDATASIZE PUSH1 0x0 PUSH1 0x20 DUP5 ADD RETURNDATACOPY PUSH2 0xA4A JUMP JUMPDEST PUSH1 0x60 SWAP2 POP JUMPDEST POP SWAP2 POP SWAP2 POP PUSH2 0xA5A DUP3 DUP3 DUP7 PUSH2 0xA65 JUMP JUMPDEST SWAP8 SWAP7 POP POP POP POP POP POP POP JUMP JUMPDEST PUSH1 0x60 DUP4 ISZERO PUSH2 0xA74 JUMPI POP DUP2 PUSH2 0x423 JUMP JUMPDEST DUP3 MLOAD ISZERO PUSH2 0xA84 JUMPI DUP3 MLOAD DUP1 DUP5 PUSH1 0x20 ADD REVERT JUMPDEST DUP2 PUSH1 0x40 MLOAD PUSH3 0x461BCD PUSH1 0xE5 SHL DUP2 MSTORE PUSH1 0x4 ADD PUSH2 0x74F SWAP2 SWAP1 PUSH2 0xC48 JUMP JUMPDEST DUP1 CALLDATALOAD PUSH8 0xFFFFFFFFFFFFFFFF DUP2 AND DUP2 EQ PUSH2 0xAB6 JUMPI PUSH1 0x0 DUP1 REVERT JUMPDEST SWAP2 SWAP1 POP JUMP JUMPDEST PUSH1 0x0 PUSH1 0x20 DUP3 DUP5 SUB SLT ISZERO PUSH2 0xACD JUMPI PUSH1 0x0 DUP1 REVERT JUMPDEST PUSH2 0x423 DUP3 PUSH2 0xA9E JUMP JUMPDEST DUP1 CALLDATALOAD PUSH1 0x1 PUSH1 0x1 PUSH1 0xA0 SHL SUB DUP2 AND DUP2 EQ PUSH2 0xAB6 JUMPI PUSH1 0x0 DUP1 REVERT JUMPDEST PUSH1 0x0 PUSH1 0x20 DUP3 DUP5 SUB SLT ISZERO PUSH2 0xAFF JUMPI PUSH1 0x0 DUP1 REVERT JUMPDEST PUSH2 0x423 DUP3 PUSH2 0xAD6 JUMP JUMPDEST PUSH1 0x0 DUP1 PUSH1 0x40 DUP4 DUP6 SUB SLT ISZERO PUSH2 0xB1B JUMPI PUSH1 0x0 DUP1 REVERT JUMPDEST PUSH2 0xB24 DUP4 PUSH2 0xAD6 JUMP JUMPDEST SWAP2 POP PUSH2 0xB32 PUSH1 0x20 DUP5 ADD PUSH2 0xA9E JUMP JUMPDEST SWAP1 POP SWAP3 POP SWAP3 SWAP1 POP JUMP JUMPDEST PUSH4 0x4E487B71 PUSH1 0xE0 SHL PUSH1 0x0 MSTORE PUSH1 0x11 PUSH1 0x4 MSTORE PUSH1 0x24 PUSH1 0x0 REVERT JUMPDEST PUSH1 0x0 DUP3 NOT DUP3 GT ISZERO PUSH2 0xB64 JUMPI PUSH2 0xB64 PUSH2 0xB3B JUMP JUMPDEST POP ADD SWAP1 JUMP JUMPDEST PUSH1 0x0 PUSH1 0x20 DUP3 DUP5 SUB SLT ISZERO PUSH2 0xB7B JUMPI PUSH1 0x0 DUP1 REVERT JUMPDEST POP MLOAD SWAP2 SWAP1 POP JUMP JUMPDEST PUSH1 0x0 DUP3 DUP3 LT ISZERO PUSH2 0xB94 JUMPI PUSH2 0xB94 PUSH2 0xB3B JUMP JUMPDEST POP SUB SWAP1 JUMP JUMPDEST PUSH1 0x0 DUP2 PUSH1 0x0 NOT DIV DUP4 GT DUP3 ISZERO ISZERO AND ISZERO PUSH2 0xBB3 JUMPI PUSH2 0xBB3 PUSH2 0xB3B JUMP JUMPDEST POP MUL SWAP1 JUMP JUMPDEST PUSH1 0x0 DUP3 PUSH2 0xBD5 JUMPI PUSH4 0x4E487B71 PUSH1 0xE0 SHL PUSH1 0x0 MSTORE PUSH1 0x12 PUSH1 0x4 MSTORE PUSH1 0x24 PUSH1 0x0 REVERT JUMPDEST POP DIV SWAP1 JUMP JUMPDEST PUSH1 0x0 PUSH1 0x20 DUP3 DUP5 SUB SLT ISZERO PUSH2 0xBEC JUMPI PUSH1 0x0 DUP1 REVERT JUMPDEST DUP2 MLOAD DUP1 ISZERO ISZERO DUP2 EQ PUSH2 0x423 JUMPI PUSH1 0x0 DUP1 REVERT JUMPDEST PUSH1 0x0 JUMPDEST DUP4 DUP2 LT ISZERO PUSH2 0xC17 JUMPI DUP2 DUP2 ADD MLOAD DUP4 DUP3 ADD MSTORE PUSH1 0x20 ADD PUSH2 0xBFF JUMP JUMPDEST DUP4 DUP2 GT ISZERO PUSH2 0xC26 JUMPI PUSH1 0x0 DUP5 DUP5 ADD MSTORE JUMPDEST POP POP POP POP JUMP JUMPDEST PUSH1 0x0 DUP3 MLOAD PUSH2 0xC3E DUP2 DUP5 PUSH1 0x20 DUP8 ADD PUSH2 0xBFC JUMP JUMPDEST SWAP2 SWAP1 SWAP2 ADD SWAP3 SWAP2 POP POP JUMP JUMPDEST PUSH1 0x20 DUP2 MSTORE PUSH1 0x0 DUP3 MLOAD DUP1 PUSH1 0x20 DUP5 ADD MSTORE PUSH2 0xC67 DUP2 PUSH1 0x40 DUP6 ADD PUSH1 0x20 DUP8 ADD PUSH2 0xBFC JUMP JUMPDEST PUSH1 0x1F ADD PUSH1 0x1F NOT AND SWAP2 SWAP1 SWAP2 ADD PUSH1 0x40 ADD SWAP3 SWAP2 POP POP JUMP INVALID LOG2 PUSH5 0x6970667358 0x22 SLT KECCAK256 CODECOPY DUP7 DUP15 PUSH11 0x418D9D06E380F8131B95BF PUSH12 0xE72395171D308C5D2A49CDB0 CALL 0x28 0x29 0xED PUSH5 0x736F6C6343 STOP ADDMOD SIGNEXTEND STOP CALLER "
				},
				"gasEstimates": {
					"creation": {
						"codeDepositCost": "649800",
						"executionCost": "infinite",
						"totalCost": "infinite"
					},
					"external": {
						"beneficiary()": "infinite",
						"duration()": "infinite",
						"releasable()": "infinite",
						"releasable(address)": "infinite",
						"release()": "infinite",
						"release(address)": "infinite",
						"released()": "2326",
						"released(address)": "2593",
						"start()": "infinite",
						"vestedAmount(address,uint64)": "infinite",
						"vestedAmount(uint64)": "infinite"
					},
					"internal": {
						"_currentMonth()": "infinite",
						"_vestingSchedule(uint256,uint64)": "infinite"
					}
				},
				"methodIdentifiers": {
					"beneficiary()": "38af3eed",
					"duration()": "0fb5a6b4",
					"releasable()": "fbccedae",
					"releasable(address)": "a3f8eace",
					"release()": "86d1a69f",
					"release(address)": "19165587",
					"released()": "96132521",
					"released(address)": "9852595c",
					"start()": "be9a6555",
					"vestedAmount(address,uint64)": "810ec23b",
					"vestedAmount(uint64)": "0a17b06b"
				}
			},
			"storageLayout": {
				"storage": [
					{
						"astId": 638,
						"contract": "contracts/VestingWallet.sol:VestingWallet",
						"label": "_released",
						"offset": 0,
						"slot": "0",
						"type": "t_uint256"
					},
					{
						"astId": 642,
						"contract": "contracts/VestingWallet.sol:VestingWallet",
						"label": "_erc20Released",
						"offset": 0,
						"slot": "1",
						"type": "t_mapping(t_address,t_uint256)"
					},
					{
						"astId": 650,
						"contract": "contracts/VestingWallet.sol:VestingWallet",
						"label": "lastMonth",
						"offset": 0,
						"slot": "2",
						"type": "t_uint256"
					}
				],
				"types": {
					"t_address": {
						"encoding": "inplace",
						"label": "address",
						"numberOfBytes": "20"
					},
					"t_mapping(t_address,t_uint256)": {
						"encoding": "mapping",
						"key": "t_address",
						"label": "mapping(address => uint256)",
						"numberOfBytes": "32",
						"value": "t_uint256"
					},
					"t_uint256": {
						"encoding": "inplace",
						"label": "uint256",
						"numberOfBytes": "32"
					}
				}
			},
			"userdoc": {
				"kind": "user",
				"methods": {},
				"version": 1
			}
		}
	}
}