{
	"contracts/Stakable-2.0.sol": {
		"Staking": {
			"abi": [
				{
					"inputs": [
						{
							"internalType": "address",
							"name": "token",
							"type": "address"
						}
					],
					"stateMutability": "nonpayable",
					"type": "constructor"
				},
				{
					"inputs": [],
					"name": "Airdrop__claimableOnceAWeek",
					"type": "error"
				},
				{
					"inputs": [],
					"name": "Function__notAVoter",
					"type": "error"
				},
				{
					"inputs": [],
					"name": "Function__votingNotAvailable",
					"type": "error"
				},
				{
					"inputs": [],
					"name": "Staking__airdropExceed20Percent",
					"type": "error"
				},
				{
					"inputs": [],
					"name": "Staking__cannotStakeNothing",
					"type": "error"
				},
				{
					"inputs": [],
					"name": "Staking__noStakingFound",
					"type": "error"
				},
				{
					"inputs": [],
					"name": "Staking__penaltyExceed3Percent",
					"type": "error"
				},
				{
					"inputs": [],
					"name": "Staking__userIsStaker",
					"type": "error"
				},
				{
					"inputs": [],
					"name": "Staking_noStakingPackageFound",
					"type": "error"
				},
				{
					"inputs": [],
					"name": "Voting__alreadyVoted",
					"type": "error"
				},
				{
					"inputs": [],
					"name": "Voting__notEnoughVoters",
					"type": "error"
				},
				{
					"inputs": [],
					"name": "Voting__notYetVoted",
					"type": "error"
				},
				{
					"inputs": [],
					"name": "Voting__votingIsRunning",
					"type": "error"
				},
				{
					"anonymous": false,
					"inputs": [
						{
							"indexed": false,
							"internalType": "uint256",
							"name": "amount",
							"type": "uint256"
						}
					],
					"name": "AirdropChanged",
					"type": "event"
				},
				{
					"anonymous": false,
					"inputs": [
						{
							"indexed": true,
							"internalType": "address",
							"name": "previousOwner",
							"type": "address"
						},
						{
							"indexed": true,
							"internalType": "address",
							"name": "newOwner",
							"type": "address"
						}
					],
					"name": "OwnershipTransferred",
					"type": "event"
				},
				{
					"anonymous": false,
					"inputs": [
						{
							"indexed": false,
							"internalType": "uint256",
							"name": "amount",
							"type": "uint256"
						}
					],
					"name": "PenaltyChanged",
					"type": "event"
				},
				{
					"anonymous": false,
					"inputs": [
						{
							"indexed": true,
							"internalType": "address",
							"name": "user",
							"type": "address"
						},
						{
							"indexed": false,
							"internalType": "uint256",
							"name": "amount",
							"type": "uint256"
						},
						{
							"indexed": false,
							"internalType": "uint256",
							"name": "timestamp",
							"type": "uint256"
						},
						{
							"indexed": false,
							"internalType": "uint256",
							"name": "releaseTime",
							"type": "uint256"
						}
					],
					"name": "Staked",
					"type": "event"
				},
				{
					"inputs": [],
					"name": "_blockTimestamp",
					"outputs": [
						{
							"internalType": "uint256",
							"name": "",
							"type": "uint256"
						}
					],
					"stateMutability": "view",
					"type": "function"
				},
				{
					"inputs": [],
					"name": "airdropRate",
					"outputs": [
						{
							"internalType": "uint256",
							"name": "",
							"type": "uint256"
						}
					],
					"stateMutability": "view",
					"type": "function"
				},
				{
					"inputs": [],
					"name": "airdropSince",
					"outputs": [
						{
							"internalType": "uint256",
							"name": "",
							"type": "uint256"
						}
					],
					"stateMutability": "view",
					"type": "function"
				},
				{
					"inputs": [
						{
							"internalType": "uint256",
							"name": "timestamp",
							"type": "uint256"
						}
					],
					"name": "calculateWeek",
					"outputs": [
						{
							"internalType": "uint256",
							"name": "",
							"type": "uint256"
						}
					],
					"stateMutability": "view",
					"type": "function"
				},
				{
					"inputs": [
						{
							"internalType": "uint256",
							"name": "amount",
							"type": "uint256"
						}
					],
					"name": "changeAirdropPercentage",
					"outputs": [],
					"stateMutability": "nonpayable",
					"type": "function"
				},
				{
					"inputs": [
						{
							"internalType": "uint256",
							"name": "amount",
							"type": "uint256"
						}
					],
					"name": "changePenaltyFee",
					"outputs": [],
					"stateMutability": "nonpayable",
					"type": "function"
				},
				{
					"inputs": [
						{
							"internalType": "address",
							"name": "user",
							"type": "address"
						}
					],
					"name": "claimAirdrop",
					"outputs": [],
					"stateMutability": "nonpayable",
					"type": "function"
				},
				{
					"inputs": [
						{
							"internalType": "address",
							"name": "user",
							"type": "address"
						}
					],
					"name": "getVoters",
					"outputs": [
						{
							"internalType": "bool",
							"name": "",
							"type": "bool"
						},
						{
							"internalType": "bool",
							"name": "",
							"type": "bool"
						}
					],
					"stateMutability": "view",
					"type": "function"
				},
				{
					"inputs": [],
					"name": "getVotingResult",
					"outputs": [
						{
							"internalType": "bool",
							"name": "",
							"type": "bool"
						}
					],
					"stateMutability": "view",
					"type": "function"
				},
				{
					"inputs": [],
					"name": "hasStake",
					"outputs": [
						{
							"components": [
								{
									"internalType": "uint256",
									"name": "total_amount",
									"type": "uint256"
								},
								{
									"internalType": "uint256",
									"name": "penalty",
									"type": "uint256"
								},
								{
									"components": [
										{
											"internalType": "uint256",
											"name": "amount",
											"type": "uint256"
										},
										{
											"internalType": "uint256",
											"name": "since",
											"type": "uint256"
										},
										{
											"internalType": "uint256",
											"name": "rewardAPY",
											"type": "uint256"
										},
										{
											"internalType": "uint256",
											"name": "releaseTime",
											"type": "uint256"
										},
										{
											"internalType": "uint256",
											"name": "claimable",
											"type": "uint256"
										},
										{
											"internalType": "uint256",
											"name": "claimableAirdrop",
											"type": "uint256"
										},
										{
											"internalType": "uint256",
											"name": "latestClaimDrop",
											"type": "uint256"
										}
									],
									"internalType": "struct Staking.Stake",
									"name": "stake",
									"type": "tuple"
								}
							],
							"internalType": "struct Staking.StakingSummary",
							"name": "",
							"type": "tuple"
						}
					],
					"stateMutability": "view",
					"type": "function"
				},
				{
					"inputs": [],
					"name": "owner",
					"outputs": [
						{
							"internalType": "address",
							"name": "",
							"type": "address"
						}
					],
					"stateMutability": "view",
					"type": "function"
				},
				{
					"inputs": [],
					"name": "renounceOwnership",
					"outputs": [],
					"stateMutability": "nonpayable",
					"type": "function"
				},
				{
					"inputs": [],
					"name": "retractVote",
					"outputs": [],
					"stateMutability": "nonpayable",
					"type": "function"
				},
				{
					"inputs": [
						{
							"internalType": "address",
							"name": "user",
							"type": "address"
						},
						{
							"internalType": "uint256",
							"name": "amount",
							"type": "uint256"
						},
						{
							"internalType": "uint256",
							"name": "stakePeriod",
							"type": "uint256"
						}
					],
					"name": "stake",
					"outputs": [],
					"stateMutability": "nonpayable",
					"type": "function"
				},
				{
					"inputs": [],
					"name": "stakingPenaltyRate",
					"outputs": [
						{
							"internalType": "uint256",
							"name": "",
							"type": "uint256"
						}
					],
					"stateMutability": "view",
					"type": "function"
				},
				{
					"inputs": [],
					"name": "startAirdrop",
					"outputs": [],
					"stateMutability": "nonpayable",
					"type": "function"
				},
				{
					"inputs": [],
					"name": "startVoting",
					"outputs": [],
					"stateMutability": "nonpayable",
					"type": "function"
				},
				{
					"inputs": [],
					"name": "stopVoting",
					"outputs": [],
					"stateMutability": "nonpayable",
					"type": "function"
				},
				{
					"inputs": [],
					"name": "token_address",
					"outputs": [
						{
							"internalType": "address",
							"name": "",
							"type": "address"
						}
					],
					"stateMutability": "view",
					"type": "function"
				},
				{
					"inputs": [],
					"name": "totalVoters",
					"outputs": [
						{
							"internalType": "uint256",
							"name": "",
							"type": "uint256"
						}
					],
					"stateMutability": "view",
					"type": "function"
				},
				{
					"inputs": [
						{
							"internalType": "address",
							"name": "newOwner",
							"type": "address"
						}
					],
					"name": "transferOwnership",
					"outputs": [],
					"stateMutability": "nonpayable",
					"type": "function"
				},
				{
					"inputs": [],
					"name": "vote",
					"outputs": [],
					"stateMutability": "nonpayable",
					"type": "function"
				},
				{
					"inputs": [
						{
							"internalType": "uint256",
							"name": "",
							"type": "uint256"
						}
					],
					"name": "votedUsers",
					"outputs": [
						{
							"internalType": "uint256",
							"name": "",
							"type": "uint256"
						}
					],
					"stateMutability": "view",
					"type": "function"
				},
				{
					"inputs": [
						{
							"internalType": "address",
							"name": "",
							"type": "address"
						}
					],
					"name": "voters",
					"outputs": [
						{
							"internalType": "bool",
							"name": "votingRight",
							"type": "bool"
						}
					],
					"stateMutability": "view",
					"type": "function"
				},
				{
					"inputs": [],
					"name": "withdrawStake",
					"outputs": [],
					"stateMutability": "nonpayable",
					"type": "function"
				}
			],
			"devdoc": {
				"kind": "dev",
				"methods": {
					"owner()": {
						"details": "Returns the address of the current owner."
					},
					"renounceOwnership()": {
						"details": "Leaves the contract without owner. It will not be possible to call `onlyOwner` functions anymore. Can only be called by the current owner. NOTE: Renouncing ownership will leave the contract without an owner, thereby removing any functionality that is only available to the owner."
					},
					"transferOwnership(address)": {
						"details": "Transfers ownership of the contract to a new account (`newOwner`). Can only be called by the current owner."
					}
				},
				"version": 1
			},
			"evm": {
				"assembly": "    /* \"contracts/Stakable-2.0.sol\":980:12683  contract Staking is ReentrancyGuard, Ownable {... */\n  mstore(0x40, 0x80)\n    /* \"contracts/Stakable-2.0.sol\":1680:1981  constructor(address token) {... */\n  callvalue\n  dup1\n  iszero\n  tag_1\n  jumpi\n  0x00\n  dup1\n  revert\ntag_1:\n  pop\n  mload(0x40)\n  sub(codesize, bytecodeSize)\n  dup1\n  bytecodeSize\n  dup4\n  codecopy\n  dup2\n  dup2\n  add\n  0x40\n  mstore\n  dup2\n  add\n  swap1\n  tag_2\n  swap2\n  swap1\n  tag_3\n  jump\t// in\ntag_2:\n    /* \"@openzeppelin/contracts/security/ReentrancyGuard.sol\":1701:1702  1 */\n  0x01\n    /* \"@openzeppelin/contracts/security/ReentrancyGuard.sol\":1806:1813  _status */\n  0x00\n    /* \"@openzeppelin/contracts/security/ReentrancyGuard.sol\":1806:1828  _status = _NOT_ENTERED */\n  dup2\n  swap1\n  sstore\n  pop\n    /* \"@openzeppelin/contracts/access/Ownable.sol\":921:953  _transferOwnership(_msgSender()) */\n  tag_9\n    /* \"@openzeppelin/contracts/access/Ownable.sol\":940:952  _msgSender() */\n  tag_10\n    /* \"@openzeppelin/contracts/access/Ownable.sol\":940:950  _msgSender */\n  shl(0x20, tag_11)\n    /* \"@openzeppelin/contracts/access/Ownable.sol\":940:952  _msgSender() */\n  0x20\n  shr\n  jump\t// in\ntag_10:\n    /* \"@openzeppelin/contracts/access/Ownable.sol\":921:939  _transferOwnership */\n  shl(0x20, tag_12)\n    /* \"@openzeppelin/contracts/access/Ownable.sol\":921:953  _transferOwnership(_msgSender()) */\n  0x20\n  shr\n  jump\t// in\ntag_9:\n    /* \"contracts/Stakable-2.0.sol\":1800:1802  15 */\n  0x0f\n    /* \"contracts/Stakable-2.0.sol\":1779:1797  stakingPenaltyRate */\n  0x03\n    /* \"contracts/Stakable-2.0.sol\":1779:1802  stakingPenaltyRate = 15 */\n  dup2\n  swap1\n  sstore\n  pop\n    /* \"contracts/Stakable-2.0.sol\":1826:1828  80 */\n  0x50\n    /* \"contracts/Stakable-2.0.sol\":1812:1823  airdropRate */\n  0x04\n    /* \"contracts/Stakable-2.0.sol\":1812:1828  airdropRate = 80 */\n  dup2\n  swap1\n  sstore\n  pop\n    /* \"contracts/Stakable-2.0.sol\":1855:1860  token */\n  dup1\n    /* \"contracts/Stakable-2.0.sol\":1839:1852  token_address */\n  0x0b\n  0x00\n    /* \"contracts/Stakable-2.0.sol\":1839:1860  token_address = token */\n  0x0100\n  exp\n  dup2\n  sload\n  dup2\n  0xffffffffffffffffffffffffffffffffffffffff\n  mul\n  not\n  and\n  swap1\n  dup4\n  0xffffffffffffffffffffffffffffffffffffffff\n  and\n  mul\n  or\n  swap1\n  sstore\n  pop\n    /* \"contracts/Stakable-2.0.sol\":1897:1898  6 */\n  0x06\n    /* \"contracts/Stakable-2.0.sol\":1871:1885  stakingPackage */\n  0x02\n    /* \"contracts/Stakable-2.0.sol\":1871:1894  stakingPackage[90 days] */\n  0x00\n    /* \"contracts/Stakable-2.0.sol\":1886:1893  90 days */\n  0x76a700\n    /* \"contracts/Stakable-2.0.sol\":1871:1894  stakingPackage[90 days] */\n  dup2\n  mstore\n  0x20\n  add\n  swap1\n  dup2\n  mstore\n  0x20\n  add\n  0x00\n  keccak256\n    /* \"contracts/Stakable-2.0.sol\":1871:1898  stakingPackage[90 days] = 6 */\n  dup2\n  swap1\n  sstore\n  pop\n    /* \"contracts/Stakable-2.0.sol\":1935:1936  7 */\n  0x07\n    /* \"contracts/Stakable-2.0.sol\":1908:1922  stakingPackage */\n  0x02\n    /* \"contracts/Stakable-2.0.sol\":1908:1932  stakingPackage[180 days] */\n  0x00\n    /* \"contracts/Stakable-2.0.sol\":1923:1931  180 days */\n  0xed4e00\n    /* \"contracts/Stakable-2.0.sol\":1908:1932  stakingPackage[180 days] */\n  dup2\n  mstore\n  0x20\n  add\n  swap1\n  dup2\n  mstore\n  0x20\n  add\n  0x00\n  keccak256\n    /* \"contracts/Stakable-2.0.sol\":1908:1936  stakingPackage[180 days] = 7 */\n  dup2\n  swap1\n  sstore\n  pop\n    /* \"contracts/Stakable-2.0.sol\":1973:1974  8 */\n  0x08\n    /* \"contracts/Stakable-2.0.sol\":1946:1960  stakingPackage */\n  0x02\n    /* \"contracts/Stakable-2.0.sol\":1946:1970  stakingPackage[365 days] */\n  0x00\n    /* \"contracts/Stakable-2.0.sol\":1961:1969  365 days */\n  0x01e13380\n    /* \"contracts/Stakable-2.0.sol\":1946:1970  stakingPackage[365 days] */\n  dup2\n  mstore\n  0x20\n  add\n  swap1\n  dup2\n  mstore\n  0x20\n  add\n  0x00\n  keccak256\n    /* \"contracts/Stakable-2.0.sol\":1946:1974  stakingPackage[365 days] = 8 */\n  dup2\n  swap1\n  sstore\n  pop\n    /* \"contracts/Stakable-2.0.sol\":1680:1981  constructor(address token) {... */\n  pop\n    /* \"contracts/Stakable-2.0.sol\":980:12683  contract Staking is ReentrancyGuard, Ownable {... */\n  jump(tag_14)\n    /* \"@openzeppelin/contracts/utils/Context.sol\":640:736  function _msgSender() internal view virtual returns (address) {... */\ntag_11:\n    /* \"@openzeppelin/contracts/utils/Context.sol\":693:700  address */\n  0x00\n    /* \"@openzeppelin/contracts/utils/Context.sol\":719:729  msg.sender */\n  caller\n    /* \"@openzeppelin/contracts/utils/Context.sol\":712:729  return msg.sender */\n  swap1\n  pop\n    /* \"@openzeppelin/contracts/utils/Context.sol\":640:736  function _msgSender() internal view virtual returns (address) {... */\n  swap1\n  jump\t// out\n    /* \"@openzeppelin/contracts/access/Ownable.sol\":2270:2457  function _transferOwnership(address newOwner) internal virtual {... */\ntag_12:\n    /* \"@openzeppelin/contracts/access/Ownable.sol\":2343:2359  address oldOwner */\n  0x00\n    /* \"@openzeppelin/contracts/access/Ownable.sol\":2362:2368  _owner */\n  0x01\n  0x00\n  swap1\n  sload\n  swap1\n  0x0100\n  exp\n  swap1\n  div\n  0xffffffffffffffffffffffffffffffffffffffff\n  and\n    /* \"@openzeppelin/contracts/access/Ownable.sol\":2343:2368  address oldOwner = _owner */\n  swap1\n  pop\n    /* \"@openzeppelin/contracts/access/Ownable.sol\":2387:2395  newOwner */\n  dup2\n    /* \"@openzeppelin/contracts/access/Ownable.sol\":2378:2384  _owner */\n  0x01\n  0x00\n    /* \"@openzeppelin/contracts/access/Ownable.sol\":2378:2395  _owner = newOwner */\n  0x0100\n  exp\n  dup2\n  sload\n  dup2\n  0xffffffffffffffffffffffffffffffffffffffff\n  mul\n  not\n  and\n  swap1\n  dup4\n  0xffffffffffffffffffffffffffffffffffffffff\n  and\n  mul\n  or\n  swap1\n  sstore\n  pop\n    /* \"@openzeppelin/contracts/access/Ownable.sol\":2441:2449  newOwner */\n  dup2\n    /* \"@openzeppelin/contracts/access/Ownable.sol\":2410:2450  OwnershipTransferred(oldOwner, newOwner) */\n  0xffffffffffffffffffffffffffffffffffffffff\n  and\n    /* \"@openzeppelin/contracts/access/Ownable.sol\":2431:2439  oldOwner */\n  dup2\n    /* \"@openzeppelin/contracts/access/Ownable.sol\":2410:2450  OwnershipTransferred(oldOwner, newOwner) */\n  0xffffffffffffffffffffffffffffffffffffffff\n  and\n  0x8be0079c531659141344cd1fd0a4f28419497f9722a3daafe3b4186f6b6457e0\n  mload(0x40)\n  mload(0x40)\n  dup1\n  swap2\n  sub\n  swap1\n  log3\n    /* \"@openzeppelin/contracts/access/Ownable.sol\":2333:2457  {... */\n  pop\n    /* \"@openzeppelin/contracts/access/Ownable.sol\":2270:2457  function _transferOwnership(address newOwner) internal virtual {... */\n  pop\n  jump\t// out\n    /* \"#utility.yul\":88:205   */\ntag_18:\n    /* \"#utility.yul\":197:198   */\n  0x00\n    /* \"#utility.yul\":194:195   */\n  dup1\n    /* \"#utility.yul\":187:199   */\n  revert\n    /* \"#utility.yul\":334:460   */\ntag_20:\n    /* \"#utility.yul\":371:378   */\n  0x00\n    /* \"#utility.yul\":411:453   */\n  0xffffffffffffffffffffffffffffffffffffffff\n    /* \"#utility.yul\":404:409   */\n  dup3\n    /* \"#utility.yul\":400:454   */\n  and\n    /* \"#utility.yul\":389:454   */\n  swap1\n  pop\n    /* \"#utility.yul\":334:460   */\n  swap2\n  swap1\n  pop\n  jump\t// out\n    /* \"#utility.yul\":466:562   */\ntag_21:\n    /* \"#utility.yul\":503:510   */\n  0x00\n    /* \"#utility.yul\":532:556   */\n  tag_30\n    /* \"#utility.yul\":550:555   */\n  dup3\n    /* \"#utility.yul\":532:556   */\n  tag_20\n  jump\t// in\ntag_30:\n    /* \"#utility.yul\":521:556   */\n  swap1\n  pop\n    /* \"#utility.yul\":466:562   */\n  swap2\n  swap1\n  pop\n  jump\t// out\n    /* \"#utility.yul\":568:690   */\ntag_22:\n    /* \"#utility.yul\":641:665   */\n  tag_32\n    /* \"#utility.yul\":659:664   */\n  dup2\n    /* \"#utility.yul\":641:665   */\n  tag_21\n  jump\t// in\ntag_32:\n    /* \"#utility.yul\":634:639   */\n  dup2\n    /* \"#utility.yul\":631:666   */\n  eq\n    /* \"#utility.yul\":621:684   */\n  tag_33\n  jumpi\n    /* \"#utility.yul\":680:681   */\n  0x00\n    /* \"#utility.yul\":677:678   */\n  dup1\n    /* \"#utility.yul\":670:682   */\n  revert\n    /* \"#utility.yul\":621:684   */\ntag_33:\n    /* \"#utility.yul\":568:690   */\n  pop\n  jump\t// out\n    /* \"#utility.yul\":696:839   */\ntag_23:\n    /* \"#utility.yul\":753:758   */\n  0x00\n    /* \"#utility.yul\":784:790   */\n  dup2\n    /* \"#utility.yul\":778:791   */\n  mload\n    /* \"#utility.yul\":769:791   */\n  swap1\n  pop\n    /* \"#utility.yul\":800:833   */\n  tag_35\n    /* \"#utility.yul\":827:832   */\n  dup2\n    /* \"#utility.yul\":800:833   */\n  tag_22\n  jump\t// in\ntag_35:\n    /* \"#utility.yul\":696:839   */\n  swap3\n  swap2\n  pop\n  pop\n  jump\t// out\n    /* \"#utility.yul\":845:1196   */\ntag_3:\n    /* \"#utility.yul\":915:921   */\n  0x00\n    /* \"#utility.yul\":964:966   */\n  0x20\n    /* \"#utility.yul\":952:961   */\n  dup3\n    /* \"#utility.yul\":943:950   */\n  dup5\n    /* \"#utility.yul\":939:962   */\n  sub\n    /* \"#utility.yul\":935:967   */\n  slt\n    /* \"#utility.yul\":932:1051   */\n  iszero\n  tag_37\n  jumpi\n    /* \"#utility.yul\":970:1049   */\n  tag_38\n  tag_18\n  jump\t// in\ntag_38:\n    /* \"#utility.yul\":932:1051   */\ntag_37:\n    /* \"#utility.yul\":1090:1091   */\n  0x00\n    /* \"#utility.yul\":1115:1179   */\n  tag_39\n    /* \"#utility.yul\":1171:1178   */\n  dup5\n    /* \"#utility.yul\":1162:1168   */\n  dup3\n    /* \"#utility.yul\":1151:1160   */\n  dup6\n    /* \"#utility.yul\":1147:1169   */\n  add\n    /* \"#utility.yul\":1115:1179   */\n  tag_23\n  jump\t// in\ntag_39:\n    /* \"#utility.yul\":1105:1179   */\n  swap2\n  pop\n    /* \"#utility.yul\":1061:1189   */\n  pop\n    /* \"#utility.yul\":845:1196   */\n  swap3\n  swap2\n  pop\n  pop\n  jump\t// out\n    /* \"contracts/Stakable-2.0.sol\":980:12683  contract Staking is ReentrancyGuard, Ownable {... */\ntag_14:\n  dataSize(sub_0)\n  dup1\n  dataOffset(sub_0)\n  0x00\n  codecopy\n  0x00\n  return\nstop\n\nsub_0: assembly {\n        /* \"contracts/Stakable-2.0.sol\":980:12683  contract Staking is ReentrancyGuard, Ownable {... */\n      mstore(0x40, 0x80)\n      callvalue\n      dup1\n      iszero\n      tag_1\n      jumpi\n      0x00\n      dup1\n      revert\n    tag_1:\n      pop\n      jumpi(tag_2, lt(calldatasize, 0x04))\n      shr(0xe0, calldataload(0x00))\n      dup1\n      0x8c8e8fee\n      gt\n      tag_28\n      jumpi\n      dup1\n      0xbed9d861\n      gt\n      tag_29\n      jumpi\n      dup1\n      0xd2a569c3\n      gt\n      tag_30\n      jumpi\n      dup1\n      0xd2a569c3\n      eq\n      tag_24\n      jumpi\n      dup1\n      0xd5dbdf1b\n      eq\n      tag_25\n      jumpi\n      dup1\n      0xf2fde38b\n      eq\n      tag_26\n      jumpi\n      dup1\n      0xfab2f86b\n      eq\n      tag_27\n      jumpi\n      jump(tag_2)\n    tag_30:\n      dup1\n      0xbed9d861\n      eq\n      tag_21\n      jumpi\n      dup1\n      0xc63aa3e7\n      eq\n      tag_22\n      jumpi\n      dup1\n      0xcb79c2e1\n      eq\n      tag_23\n      jumpi\n      jump(tag_2)\n    tag_29:\n      dup1\n      0x8c8e8fee\n      eq\n      tag_15\n      jumpi\n      dup1\n      0x8da5cb5b\n      eq\n      tag_16\n      jumpi\n      dup1\n      0xa143a5f2\n      eq\n      tag_17\n      jumpi\n      dup1\n      0xa3ec138d\n      eq\n      tag_18\n      jumpi\n      dup1\n      0xb5d9df83\n      eq\n      tag_19\n      jumpi\n      dup1\n      0xb87da76d\n      eq\n      tag_20\n      jumpi\n      jump(tag_2)\n    tag_28:\n      dup1\n      0x632a9a52\n      gt\n      tag_31\n      jumpi\n      dup1\n      0x632a9a52\n      eq\n      tag_9\n      jumpi\n      dup1\n      0x65f8c6c5\n      eq\n      tag_10\n      jumpi\n      dup1\n      0x671d2b75\n      eq\n      tag_11\n      jumpi\n      dup1\n      0x715018a6\n      eq\n      tag_12\n      jumpi\n      dup1\n      0x8891cf0d\n      eq\n      tag_13\n      jumpi\n      dup1\n      0x8c63f97f\n      eq\n      tag_14\n      jumpi\n      jump(tag_2)\n    tag_31:\n      dup1\n      0x070c8b74\n      eq\n      tag_3\n      jumpi\n      dup1\n      0x0c51b88f\n      eq\n      tag_4\n      jumpi\n      dup1\n      0x10486b6a\n      eq\n      tag_5\n      jumpi\n      dup1\n      0x1ec6b60a\n      eq\n      tag_6\n      jumpi\n      dup1\n      0x2d15cc04\n      eq\n      tag_7\n      jumpi\n      dup1\n      0x5f5300ff\n      eq\n      tag_8\n      jumpi\n    tag_2:\n      0x00\n      dup1\n      revert\n        /* \"contracts/Stakable-2.0.sol\":11889:12167  function retractVote() public nonReentrant votingStatusTrue isVoter {... */\n    tag_3:\n      tag_32\n      tag_33\n      jump\t// in\n    tag_32:\n      stop\n        /* \"contracts/Stakable-2.0.sol\":4306:5733  function stake(... */\n    tag_4:\n      tag_34\n      0x04\n      dup1\n      calldatasize\n      sub\n      dup2\n      add\n      swap1\n      tag_35\n      swap2\n      swap1\n      tag_36\n      jump\t// in\n    tag_35:\n      tag_37\n      jump\t// in\n    tag_34:\n      stop\n        /* \"contracts/Stakable-2.0.sol\":8536:9560  function hasStake() external view returns (StakingSummary memory) {... */\n    tag_5:\n      tag_38\n      tag_39\n      jump\t// in\n    tag_38:\n      mload(0x40)\n      tag_40\n      swap2\n      swap1\n      tag_41\n      jump\t// in\n    tag_40:\n      mload(0x40)\n      dup1\n      swap2\n      sub\n      swap1\n      return\n        /* \"contracts/Stakable-2.0.sol\":11398:11608  function startVoting() external nonReentrant onlyOwner {... */\n    tag_6:\n      tag_42\n      tag_43\n      jump\t// in\n    tag_42:\n      stop\n        /* \"contracts/Stakable-2.0.sol\":11183:11332  function getVoters(address user) external view returns (bool, bool) {... */\n    tag_7:\n      tag_44\n      0x04\n      dup1\n      calldatasize\n      sub\n      dup2\n      add\n      swap1\n      tag_45\n      swap2\n      swap1\n      tag_46\n      jump\t// in\n    tag_45:\n      tag_47\n      jump\t// in\n    tag_44:\n      mload(0x40)\n      tag_48\n      swap3\n      swap2\n      swap1\n      tag_49\n      jump\t// in\n    tag_48:\n      mload(0x40)\n      dup1\n      swap2\n      sub\n      swap1\n      return\n        /* \"contracts/Stakable-2.0.sol\":1516:1542  uint256 public totalVoters */\n    tag_8:\n      tag_50\n      tag_51\n      jump\t// in\n    tag_50:\n      mload(0x40)\n      tag_52\n      swap2\n      swap1\n      tag_53\n      jump\t// in\n    tag_52:\n      mload(0x40)\n      dup1\n      swap2\n      sub\n      swap1\n      return\n        /* \"contracts/Stakable-2.0.sol\":11614:11883  function vote() public nonReentrant votingStatusTrue isVoter {... */\n    tag_9:\n      tag_54\n      tag_55\n      jump\t// in\n    tag_54:\n      stop\n        /* \"contracts/Stakable-2.0.sol\":10435:11028  function claimAirdrop(address user) external {... */\n    tag_10:\n      tag_56\n      0x04\n      dup1\n      calldatasize\n      sub\n      dup2\n      add\n      swap1\n      tag_57\n      swap2\n      swap1\n      tag_46\n      jump\t// in\n    tag_57:\n      tag_58\n      jump\t// in\n    tag_56:\n      stop\n        /* \"contracts/Stakable-2.0.sol\":12173:12579  function getVotingResult()... */\n    tag_11:\n      tag_59\n      tag_60\n      jump\t// in\n    tag_59:\n      mload(0x40)\n      tag_61\n      swap2\n      swap1\n      tag_62\n      jump\t// in\n    tag_61:\n      mload(0x40)\n      dup1\n      swap2\n      sub\n      swap1\n      return\n        /* \"@openzeppelin/contracts/access/Ownable.sol\":1668:1769  function renounceOwnership() public virtual onlyOwner {... */\n    tag_12:\n      tag_63\n      tag_64\n      jump\t// in\n    tag_63:\n      stop\n        /* \"contracts/Stakable-2.0.sol\":1385:1411  uint256 public airdropRate */\n    tag_13:\n      tag_65\n      tag_66\n      jump\t// in\n    tag_65:\n      mload(0x40)\n      tag_67\n      swap2\n      swap1\n      tag_53\n      jump\t// in\n    tag_67:\n      mload(0x40)\n      dup1\n      swap2\n      sub\n      swap1\n      return\n        /* \"contracts/Stakable-2.0.sol\":5739:6045  function changePenaltyFee(uint256 amount) external onlyOwner {... */\n    tag_14:\n      tag_68\n      0x04\n      dup1\n      calldatasize\n      sub\n      dup2\n      add\n      swap1\n      tag_69\n      swap2\n      swap1\n      tag_70\n      jump\t// in\n    tag_69:\n      tag_71\n      jump\t// in\n    tag_68:\n      stop\n        /* \"contracts/Stakable-2.0.sol\":1645:1673  address public token_address */\n    tag_15:\n      tag_72\n      tag_73\n      jump\t// in\n    tag_72:\n      mload(0x40)\n      tag_74\n      swap2\n      swap1\n      tag_75\n      jump\t// in\n    tag_74:\n      mload(0x40)\n      dup1\n      swap2\n      sub\n      swap1\n      return\n        /* \"@openzeppelin/contracts/access/Ownable.sol\":1036:1121  function owner() public view virtual returns (address) {... */\n    tag_16:\n      tag_76\n      tag_77\n      jump\t// in\n    tag_76:\n      mload(0x40)\n      tag_78\n      swap2\n      swap1\n      tag_75\n      jump\t// in\n    tag_78:\n      mload(0x40)\n      dup1\n      swap2\n      sub\n      swap1\n      return\n        /* \"contracts/Stakable-2.0.sol\":1593:1638  mapping(uint256 => uint256) public votedUsers */\n    tag_17:\n      tag_79\n      0x04\n      dup1\n      calldatasize\n      sub\n      dup2\n      add\n      swap1\n      tag_80\n      swap2\n      swap1\n      tag_70\n      jump\t// in\n    tag_80:\n      tag_81\n      jump\t// in\n    tag_79:\n      mload(0x40)\n      tag_82\n      swap2\n      swap1\n      tag_53\n      jump\t// in\n    tag_82:\n      mload(0x40)\n      dup1\n      swap2\n      sub\n      swap1\n      return\n        /* \"contracts/Stakable-2.0.sol\":1548:1587  mapping(address => Voter) public voters */\n    tag_18:\n      tag_83\n      0x04\n      dup1\n      calldatasize\n      sub\n      dup2\n      add\n      swap1\n      tag_84\n      swap2\n      swap1\n      tag_46\n      jump\t// in\n    tag_84:\n      tag_85\n      jump\t// in\n    tag_83:\n      mload(0x40)\n      tag_86\n      swap2\n      swap1\n      tag_62\n      jump\t// in\n    tag_86:\n      mload(0x40)\n      dup1\n      swap2\n      sub\n      swap1\n      return\n        /* \"contracts/Stakable-2.0.sol\":10110:10244  function calculateWeek(uint256 timestamp) public view returns (uint256) {... */\n    tag_19:\n      tag_87\n      0x04\n      dup1\n      calldatasize\n      sub\n      dup2\n      add\n      swap1\n      tag_88\n      swap2\n      swap1\n      tag_70\n      jump\t// in\n    tag_88:\n      tag_89\n      jump\t// in\n    tag_87:\n      mload(0x40)\n      tag_90\n      swap2\n      swap1\n      tag_53\n      jump\t// in\n    tag_90:\n      mload(0x40)\n      dup1\n      swap2\n      sub\n      swap1\n      return\n        /* \"contracts/Stakable-2.0.sol\":1417:1444  uint256 public airdropSince */\n    tag_20:\n      tag_91\n      tag_92\n      jump\t// in\n    tag_91:\n      mload(0x40)\n      tag_93\n      swap2\n      swap1\n      tag_53\n      jump\t// in\n    tag_93:\n      mload(0x40)\n      dup1\n      swap2\n      sub\n      swap1\n      return\n        /* \"contracts/Stakable-2.0.sol\":7546:8530  function withdrawStake() external nonReentrant {... */\n    tag_21:\n      tag_94\n      tag_95\n      jump\t// in\n    tag_94:\n      stop\n        /* \"contracts/Stakable-2.0.sol\":10008:10104  function _blockTimestamp() public view returns (uint256) {... */\n    tag_22:\n      tag_96\n      tag_97\n      jump\t// in\n    tag_96:\n      mload(0x40)\n      tag_98\n      swap2\n      swap1\n      tag_53\n      jump\t// in\n    tag_98:\n      mload(0x40)\n      dup1\n      swap2\n      sub\n      swap1\n      return\n        /* \"contracts/Stakable-2.0.sol\":1346:1379  uint256 public stakingPenaltyRate */\n    tag_23:\n      tag_99\n      tag_100\n      jump\t// in\n    tag_99:\n      mload(0x40)\n      tag_101\n      swap2\n      swap1\n      tag_53\n      jump\t// in\n    tag_101:\n      mload(0x40)\n      dup1\n      swap2\n      sub\n      swap1\n      return\n        /* \"contracts/Stakable-2.0.sol\":9672:9762  function startAirdrop() external onlyOwner {... */\n    tag_24:\n      tag_102\n      tag_103\n      jump\t// in\n    tag_102:\n      stop\n        /* \"contracts/Stakable-2.0.sol\":9768:10002  function changeAirdropPercentage(uint256 amount) external onlyOwner {... */\n    tag_25:\n      tag_104\n      0x04\n      dup1\n      calldatasize\n      sub\n      dup2\n      add\n      swap1\n      tag_105\n      swap2\n      swap1\n      tag_70\n      jump\t// in\n    tag_105:\n      tag_106\n      jump\t// in\n    tag_104:\n      stop\n        /* \"@openzeppelin/contracts/access/Ownable.sol\":1918:2116  function transferOwnership(address newOwner) public virtual onlyOwner {... */\n    tag_26:\n      tag_107\n      0x04\n      dup1\n      calldatasize\n      sub\n      dup2\n      add\n      swap1\n      tag_108\n      swap2\n      swap1\n      tag_46\n      jump\t// in\n    tag_108:\n      tag_109\n      jump\t// in\n    tag_107:\n      stop\n        /* \"contracts/Stakable-2.0.sol\":12585:12681  function stopVoting() external onlyOwner votingStatusTrue {... */\n    tag_27:\n      tag_110\n      tag_111\n      jump\t// in\n    tag_110:\n      stop\n        /* \"contracts/Stakable-2.0.sol\":11889:12167  function retractVote() public nonReentrant votingStatusTrue isVoter {... */\n    tag_33:\n        /* \"@openzeppelin/contracts/security/ReentrancyGuard.sol\":1744:1745  2 */\n      0x02\n        /* \"@openzeppelin/contracts/security/ReentrancyGuard.sol\":2325:2332  _status */\n      sload(0x00)\n        /* \"@openzeppelin/contracts/security/ReentrancyGuard.sol\":2325:2344  _status != _ENTERED */\n      eq\n      iszero\n        /* \"@openzeppelin/contracts/security/ReentrancyGuard.sol\":2317:2380  require(_status != _ENTERED, \"ReentrancyGuard: reentrant call\") */\n      tag_113\n      jumpi\n      mload(0x40)\n      0x08c379a000000000000000000000000000000000000000000000000000000000\n      dup2\n      mstore\n      0x04\n      add\n      tag_114\n      swap1\n      tag_115\n      jump\t// in\n    tag_114:\n      mload(0x40)\n      dup1\n      swap2\n      sub\n      swap1\n      revert\n    tag_113:\n        /* \"@openzeppelin/contracts/security/ReentrancyGuard.sol\":1744:1745  2 */\n      0x02\n        /* \"@openzeppelin/contracts/security/ReentrancyGuard.sol\":2455:2462  _status */\n      0x00\n        /* \"@openzeppelin/contracts/security/ReentrancyGuard.sol\":2455:2473  _status = _ENTERED */\n      dup2\n      swap1\n      sstore\n      pop\n        /* \"contracts/Stakable-2.0.sol\":3951:3971  _checkVotingStatus() */\n      tag_117\n        /* \"contracts/Stakable-2.0.sol\":3951:3969  _checkVotingStatus */\n      tag_118\n        /* \"contracts/Stakable-2.0.sol\":3951:3971  _checkVotingStatus() */\n      jump\t// in\n    tag_117:\n        /* \"contracts/Stakable-2.0.sol\":3669:3679  _isVoter() */\n      tag_120\n        /* \"contracts/Stakable-2.0.sol\":3669:3677  _isVoter */\n      tag_121\n        /* \"contracts/Stakable-2.0.sol\":3669:3679  _isVoter() */\n      jump\t// in\n    tag_120:\n        /* \"contracts/Stakable-2.0.sol\":12010:12015  false */\n      0x00\n        /* \"contracts/Stakable-2.0.sol\":11971:12015  voters[msg.sender].voted[_votingId] == false */\n      iszero\n      iszero\n        /* \"contracts/Stakable-2.0.sol\":11971:11977  voters */\n      0x09\n        /* \"contracts/Stakable-2.0.sol\":11971:11989  voters[msg.sender] */\n      0x00\n        /* \"contracts/Stakable-2.0.sol\":11978:11988  msg.sender */\n      caller\n        /* \"contracts/Stakable-2.0.sol\":11971:11989  voters[msg.sender] */\n      0xffffffffffffffffffffffffffffffffffffffff\n      and\n      0xffffffffffffffffffffffffffffffffffffffff\n      and\n      dup2\n      mstore\n      0x20\n      add\n      swap1\n      dup2\n      mstore\n      0x20\n      add\n      0x00\n      keccak256\n        /* \"contracts/Stakable-2.0.sol\":11971:11995  voters[msg.sender].voted */\n      0x01\n      add\n        /* \"contracts/Stakable-2.0.sol\":11971:12006  voters[msg.sender].voted[_votingId] */\n      0x00\n        /* \"contracts/Stakable-2.0.sol\":11996:12005  _votingId */\n      sload(0x07)\n        /* \"contracts/Stakable-2.0.sol\":11971:12006  voters[msg.sender].voted[_votingId] */\n      dup2\n      mstore\n      0x20\n      add\n      swap1\n      dup2\n      mstore\n      0x20\n      add\n      0x00\n      keccak256\n      0x00\n      swap1\n      sload\n      swap1\n      0x0100\n      exp\n      swap1\n      div\n      0xff\n      and\n        /* \"contracts/Stakable-2.0.sol\":11971:12015  voters[msg.sender].voted[_votingId] == false */\n      iszero\n      iszero\n      eq\n        /* \"contracts/Stakable-2.0.sol\":11967:12070  if (voters[msg.sender].voted[_votingId] == false) {... */\n      iszero\n      tag_123\n      jumpi\n        /* \"contracts/Stakable-2.0.sol\":12038:12059  Voting__notYetVoted() */\n      mload(0x40)\n      0x8b74220000000000000000000000000000000000000000000000000000000000\n      dup2\n      mstore\n      0x04\n      add\n      mload(0x40)\n      dup1\n      swap2\n      sub\n      swap1\n      revert\n        /* \"contracts/Stakable-2.0.sol\":11967:12070  if (voters[msg.sender].voted[_votingId] == false) {... */\n    tag_123:\n        /* \"contracts/Stakable-2.0.sol\":12119:12124  false */\n      0x00\n        /* \"contracts/Stakable-2.0.sol\":12080:12124  voters[msg.sender].voted[_votingId] == false */\n      iszero\n      iszero\n        /* \"contracts/Stakable-2.0.sol\":12080:12086  voters */\n      0x09\n        /* \"contracts/Stakable-2.0.sol\":12080:12098  voters[msg.sender] */\n      0x00\n        /* \"contracts/Stakable-2.0.sol\":12087:12097  msg.sender */\n      caller\n        /* \"contracts/Stakable-2.0.sol\":12080:12098  voters[msg.sender] */\n      0xffffffffffffffffffffffffffffffffffffffff\n      and\n      0xffffffffffffffffffffffffffffffffffffffff\n      and\n      dup2\n      mstore\n      0x20\n      add\n      swap1\n      dup2\n      mstore\n      0x20\n      add\n      0x00\n      keccak256\n        /* \"contracts/Stakable-2.0.sol\":12080:12104  voters[msg.sender].voted */\n      0x01\n      add\n        /* \"contracts/Stakable-2.0.sol\":12080:12115  voters[msg.sender].voted[_votingId] */\n      0x00\n        /* \"contracts/Stakable-2.0.sol\":12105:12114  _votingId */\n      sload(0x07)\n        /* \"contracts/Stakable-2.0.sol\":12080:12115  voters[msg.sender].voted[_votingId] */\n      dup2\n      mstore\n      0x20\n      add\n      swap1\n      dup2\n      mstore\n      0x20\n      add\n      0x00\n      keccak256\n      0x00\n      swap1\n      sload\n      swap1\n      0x0100\n      exp\n      swap1\n      pop\n      pop\n        /* \"contracts/Stakable-2.0.sol\":12080:12124  voters[msg.sender].voted[_votingId] == false */\n      pop\n        /* \"contracts/Stakable-2.0.sol\":12159:12160  1 */\n      0x01\n        /* \"contracts/Stakable-2.0.sol\":12134:12144  votedUsers */\n      0x0a\n        /* \"contracts/Stakable-2.0.sol\":12134:12155  votedUsers[_votingId] */\n      0x00\n        /* \"contracts/Stakable-2.0.sol\":12145:12154  _votingId */\n      sload(0x07)\n        /* \"contracts/Stakable-2.0.sol\":12134:12155  votedUsers[_votingId] */\n      dup2\n      mstore\n      0x20\n      add\n      swap1\n      dup2\n      mstore\n      0x20\n      add\n      0x00\n      keccak256\n      0x00\n        /* \"contracts/Stakable-2.0.sol\":12134:12160  votedUsers[_votingId] -= 1 */\n      dup3\n      dup3\n      sload\n      tag_124\n      swap2\n      swap1\n      tag_125\n      jump\t// in\n    tag_124:\n      swap3\n      pop\n      pop\n      dup2\n      swap1\n      sstore\n      pop\n        /* \"@openzeppelin/contracts/security/ReentrancyGuard.sol\":1701:1702  1 */\n      0x01\n        /* \"@openzeppelin/contracts/security/ReentrancyGuard.sol\":2628:2635  _status */\n      0x00\n        /* \"@openzeppelin/contracts/security/ReentrancyGuard.sol\":2628:2650  _status = _NOT_ENTERED */\n      dup2\n      swap1\n      sstore\n      pop\n        /* \"contracts/Stakable-2.0.sol\":11889:12167  function retractVote() public nonReentrant votingStatusTrue isVoter {... */\n      jump\t// out\n        /* \"contracts/Stakable-2.0.sol\":4306:5733  function stake(... */\n    tag_37:\n        /* \"@openzeppelin/contracts/security/ReentrancyGuard.sol\":1744:1745  2 */\n      0x02\n        /* \"@openzeppelin/contracts/security/ReentrancyGuard.sol\":2325:2332  _status */\n      sload(0x00)\n        /* \"@openzeppelin/contracts/security/ReentrancyGuard.sol\":2325:2344  _status != _ENTERED */\n      eq\n      iszero\n        /* \"@openzeppelin/contracts/security/ReentrancyGuard.sol\":2317:2380  require(_status != _ENTERED, \"ReentrancyGuard: reentrant call\") */\n      tag_127\n      jumpi\n      mload(0x40)\n      0x08c379a000000000000000000000000000000000000000000000000000000000\n      dup2\n      mstore\n      0x04\n      add\n      tag_128\n      swap1\n      tag_115\n      jump\t// in\n    tag_128:\n      mload(0x40)\n      dup1\n      swap2\n      sub\n      swap1\n      revert\n    tag_127:\n        /* \"@openzeppelin/contracts/security/ReentrancyGuard.sol\":1744:1745  2 */\n      0x02\n        /* \"@openzeppelin/contracts/security/ReentrancyGuard.sol\":2455:2462  _status */\n      0x00\n        /* \"@openzeppelin/contracts/security/ReentrancyGuard.sol\":2455:2473  _status = _ENTERED */\n      dup2\n      swap1\n      sstore\n      pop\n        /* \"@openzeppelin/contracts/access/Ownable.sol\":1259:1271  _msgSender() */\n      tag_130\n        /* \"@openzeppelin/contracts/access/Ownable.sol\":1259:1269  _msgSender */\n      tag_131\n        /* \"@openzeppelin/contracts/access/Ownable.sol\":1259:1271  _msgSender() */\n      jump\t// in\n    tag_130:\n        /* \"@openzeppelin/contracts/access/Ownable.sol\":1248:1271  owner() == _msgSender() */\n      0xffffffffffffffffffffffffffffffffffffffff\n      and\n        /* \"@openzeppelin/contracts/access/Ownable.sol\":1248:1255  owner() */\n      tag_132\n        /* \"@openzeppelin/contracts/access/Ownable.sol\":1248:1253  owner */\n      tag_77\n        /* \"@openzeppelin/contracts/access/Ownable.sol\":1248:1255  owner() */\n      jump\t// in\n    tag_132:\n        /* \"@openzeppelin/contracts/access/Ownable.sol\":1248:1271  owner() == _msgSender() */\n      0xffffffffffffffffffffffffffffffffffffffff\n      and\n      eq\n        /* \"@openzeppelin/contracts/access/Ownable.sol\":1240:1308  require(owner() == _msgSender(), \"Ownable: caller is not the owner\") */\n      tag_133\n      jumpi\n      mload(0x40)\n      0x08c379a000000000000000000000000000000000000000000000000000000000\n      dup2\n      mstore\n      0x04\n      add\n      tag_134\n      swap1\n      tag_135\n      jump\t// in\n    tag_134:\n      mload(0x40)\n      dup1\n      swap2\n      sub\n      swap1\n      revert\n    tag_133:\n        /* \"contracts/Stakable-2.0.sol\":4568:4569  0 */\n      0x00\n        /* \"contracts/Stakable-2.0.sol\":4558:4564  amount */\n      dup3\n        /* \"contracts/Stakable-2.0.sol\":4558:4569  amount <= 0 */\n      gt\n        /* \"contracts/Stakable-2.0.sol\":4554:4632  if (amount <= 0) {... */\n      tag_137\n      jumpi\n        /* \"contracts/Stakable-2.0.sol\":4592:4621  Staking__cannotStakeNothing() */\n      mload(0x40)\n      0x88b440d600000000000000000000000000000000000000000000000000000000\n      dup2\n      mstore\n      0x04\n      add\n      mload(0x40)\n      dup1\n      swap2\n      sub\n      swap1\n      revert\n        /* \"contracts/Stakable-2.0.sol\":4554:4632  if (amount <= 0) {... */\n    tag_137:\n        /* \"contracts/Stakable-2.0.sol\":4746:4747  0 */\n      0x00\n        /* \"contracts/Stakable-2.0.sol\":4717:4729  stakeholders */\n      0x0c\n        /* \"contracts/Stakable-2.0.sol\":4717:4735  stakeholders[user] */\n      0x00\n        /* \"contracts/Stakable-2.0.sol\":4730:4734  user */\n      dup6\n        /* \"contracts/Stakable-2.0.sol\":4717:4735  stakeholders[user] */\n      0xffffffffffffffffffffffffffffffffffffffff\n      and\n      0xffffffffffffffffffffffffffffffffffffffff\n      and\n      dup2\n      mstore\n      0x20\n      add\n      swap1\n      dup2\n      mstore\n      0x20\n      add\n      0x00\n      keccak256\n        /* \"contracts/Stakable-2.0.sol\":4717:4742  stakeholders[user].amount */\n      0x00\n      add\n      sload\n        /* \"contracts/Stakable-2.0.sol\":4717:4747  stakeholders[user].amount != 0 */\n      eq\n        /* \"contracts/Stakable-2.0.sol\":4713:4804  if (stakeholders[user].amount != 0) {... */\n      tag_138\n      jumpi\n        /* \"contracts/Stakable-2.0.sol\":4770:4793  Staking__userIsStaker() */\n      mload(0x40)\n      0x04462d2700000000000000000000000000000000000000000000000000000000\n      dup2\n      mstore\n      0x04\n      add\n      mload(0x40)\n      dup1\n      swap2\n      sub\n      swap1\n      revert\n        /* \"contracts/Stakable-2.0.sol\":4713:4804  if (stakeholders[user].amount != 0) {... */\n    tag_138:\n        /* \"contracts/Stakable-2.0.sol\":4849:4850  0 */\n      0x00\n        /* \"contracts/Stakable-2.0.sol\":4818:4832  stakingPackage */\n      0x02\n        /* \"contracts/Stakable-2.0.sol\":4818:4845  stakingPackage[stakePeriod] */\n      0x00\n        /* \"contracts/Stakable-2.0.sol\":4833:4844  stakePeriod */\n      dup4\n        /* \"contracts/Stakable-2.0.sol\":4818:4845  stakingPackage[stakePeriod] */\n      dup2\n      mstore\n      0x20\n      add\n      swap1\n      dup2\n      mstore\n      0x20\n      add\n      0x00\n      keccak256\n      sload\n        /* \"contracts/Stakable-2.0.sol\":4818:4850  stakingPackage[stakePeriod] == 0 */\n      eq\n        /* \"contracts/Stakable-2.0.sol\":4814:4915  if (stakingPackage[stakePeriod] == 0) {... */\n      iszero\n      tag_139\n      jumpi\n        /* \"contracts/Stakable-2.0.sol\":4873:4904  Staking_noStakingPackageFound() */\n      mload(0x40)\n      0x95377be400000000000000000000000000000000000000000000000000000000\n      dup2\n      mstore\n      0x04\n      add\n      mload(0x40)\n      dup1\n      swap2\n      sub\n      swap1\n      revert\n        /* \"contracts/Stakable-2.0.sol\":4814:4915  if (stakingPackage[stakePeriod] == 0) {... */\n    tag_139:\n        /* \"contracts/Stakable-2.0.sol\":4940:4941  1 */\n      0x01\n        /* \"contracts/Stakable-2.0.sol\":4925:4936  totalVoters */\n      0x08\n      0x00\n        /* \"contracts/Stakable-2.0.sol\":4925:4941  totalVoters += 1 */\n      dup3\n      dup3\n      sload\n      tag_140\n      swap2\n      swap1\n      tag_141\n      jump\t// in\n    tag_140:\n      swap3\n      pop\n      pop\n      dup2\n      swap1\n      sstore\n      pop\n        /* \"contracts/Stakable-2.0.sol\":4978:4982  true */\n      0x01\n        /* \"contracts/Stakable-2.0.sol\":4951:4957  voters */\n      0x09\n        /* \"contracts/Stakable-2.0.sol\":4951:4963  voters[user] */\n      0x00\n        /* \"contracts/Stakable-2.0.sol\":4958:4962  user */\n      dup6\n        /* \"contracts/Stakable-2.0.sol\":4951:4963  voters[user] */\n      0xffffffffffffffffffffffffffffffffffffffff\n      and\n      0xffffffffffffffffffffffffffffffffffffffff\n      and\n      dup2\n      mstore\n      0x20\n      add\n      swap1\n      dup2\n      mstore\n      0x20\n      add\n      0x00\n      keccak256\n        /* \"contracts/Stakable-2.0.sol\":4951:4975  voters[user].votingRight */\n      0x00\n      add\n      0x00\n        /* \"contracts/Stakable-2.0.sol\":4951:4982  voters[user].votingRight = true */\n      0x0100\n      exp\n      dup2\n      sload\n      dup2\n      0xff\n      mul\n      not\n      and\n      swap1\n      dup4\n      iszero\n      iszero\n      mul\n      or\n      swap1\n      sstore\n      pop\n        /* \"contracts/Stakable-2.0.sol\":5080:5097  uint256 timestamp */\n      0x00\n        /* \"contracts/Stakable-2.0.sol\":5100:5115  block.timestamp */\n      timestamp\n        /* \"contracts/Stakable-2.0.sol\":5080:5115  uint256 timestamp = block.timestamp */\n      swap1\n      pop\n        /* \"contracts/Stakable-2.0.sol\":5265:5448  Stake(... */\n      mload(0x40)\n      dup1\n      0xe0\n      add\n      0x40\n      mstore\n      dup1\n        /* \"contracts/Stakable-2.0.sol\":5284:5290  amount */\n      dup5\n        /* \"contracts/Stakable-2.0.sol\":5265:5448  Stake(... */\n      dup2\n      mstore\n      0x20\n      add\n        /* \"contracts/Stakable-2.0.sol\":5304:5313  timestamp */\n      dup3\n        /* \"contracts/Stakable-2.0.sol\":5265:5448  Stake(... */\n      dup2\n      mstore\n      0x20\n      add\n        /* \"contracts/Stakable-2.0.sol\":5327:5341  stakingPackage */\n      0x02\n        /* \"contracts/Stakable-2.0.sol\":5327:5354  stakingPackage[stakePeriod] */\n      0x00\n        /* \"contracts/Stakable-2.0.sol\":5342:5353  stakePeriod */\n      dup6\n        /* \"contracts/Stakable-2.0.sol\":5327:5354  stakingPackage[stakePeriod] */\n      dup2\n      mstore\n      0x20\n      add\n      swap1\n      dup2\n      mstore\n      0x20\n      add\n      0x00\n      keccak256\n      sload\n        /* \"contracts/Stakable-2.0.sol\":5265:5448  Stake(... */\n      dup2\n      mstore\n      0x20\n      add\n        /* \"contracts/Stakable-2.0.sol\":5383:5392  timestamp */\n      dup3\n        /* \"contracts/Stakable-2.0.sol\":5369:5380  stakePeriod */\n      dup5\n        /* \"contracts/Stakable-2.0.sol\":5369:5392  stakePeriod + timestamp */\n      tag_142\n      swap2\n      swap1\n      tag_141\n      jump\t// in\n    tag_142:\n        /* \"contracts/Stakable-2.0.sol\":5265:5448  Stake(... */\n      dup2\n      mstore\n      0x20\n      add\n        /* \"contracts/Stakable-2.0.sol\":5407:5408  0 */\n      0x00\n        /* \"contracts/Stakable-2.0.sol\":5265:5448  Stake(... */\n      dup2\n      mstore\n      0x20\n      add\n        /* \"contracts/Stakable-2.0.sol\":5422:5423  0 */\n      0x00\n        /* \"contracts/Stakable-2.0.sol\":5265:5448  Stake(... */\n      dup2\n      mstore\n      0x20\n      add\n        /* \"contracts/Stakable-2.0.sol\":5437:5438  0 */\n      0x00\n        /* \"contracts/Stakable-2.0.sol\":5265:5448  Stake(... */\n      dup2\n      mstore\n      pop\n        /* \"contracts/Stakable-2.0.sol\":5244:5256  stakeholders */\n      0x0c\n        /* \"contracts/Stakable-2.0.sol\":5244:5262  stakeholders[user] */\n      0x00\n        /* \"contracts/Stakable-2.0.sol\":5257:5261  user */\n      dup7\n        /* \"contracts/Stakable-2.0.sol\":5244:5262  stakeholders[user] */\n      0xffffffffffffffffffffffffffffffffffffffff\n      and\n      0xffffffffffffffffffffffffffffffffffffffff\n      and\n      dup2\n      mstore\n      0x20\n      add\n      swap1\n      dup2\n      mstore\n      0x20\n      add\n      0x00\n      keccak256\n        /* \"contracts/Stakable-2.0.sol\":5244:5448  stakeholders[user] = Stake(... */\n      0x00\n      dup3\n      add\n      mload\n      dup2\n      0x00\n      add\n      sstore\n      0x20\n      dup3\n      add\n      mload\n      dup2\n      0x01\n      add\n      sstore\n      0x40\n      dup3\n      add\n      mload\n      dup2\n      0x02\n      add\n      sstore\n      0x60\n      dup3\n      add\n      mload\n      dup2\n      0x03\n      add\n      sstore\n      0x80\n      dup3\n      add\n      mload\n      dup2\n      0x04\n      add\n      sstore\n      0xa0\n      dup3\n      add\n      mload\n      dup2\n      0x05\n      add\n      sstore\n      0xc0\n      dup3\n      add\n      mload\n      dup2\n      0x06\n      add\n      sstore\n      swap1\n      pop\n      pop\n        /* \"contracts/Stakable-2.0.sol\":5459:5601  SafeERC20.safeTransferFrom(... */\n      tag_143\n        /* \"contracts/Stakable-2.0.sol\":5506:5519  token_address */\n      0x0b\n      0x00\n      swap1\n      sload\n      swap1\n      0x0100\n      exp\n      swap1\n      div\n      0xffffffffffffffffffffffffffffffffffffffff\n      and\n        /* \"contracts/Stakable-2.0.sol\":5534:5544  msg.sender */\n      caller\n        /* \"contracts/Stakable-2.0.sol\":5566:5570  this */\n      address\n        /* \"contracts/Stakable-2.0.sol\":5585:5591  amount */\n      dup7\n        /* \"contracts/Stakable-2.0.sol\":5459:5485  SafeERC20.safeTransferFrom */\n      tag_144\n        /* \"contracts/Stakable-2.0.sol\":5459:5601  SafeERC20.safeTransferFrom(... */\n      jump\t// in\n    tag_143:\n        /* \"contracts/Stakable-2.0.sol\":5675:5679  user */\n      dup4\n        /* \"contracts/Stakable-2.0.sol\":5668:5726  Staked(user, amount, timestamp, (stakePeriod + timestamp)) */\n      0xffffffffffffffffffffffffffffffffffffffff\n      and\n      0xb4caaf29adda3eefee3ad552a8e85058589bf834c7466cae4ee58787f70589ed\n        /* \"contracts/Stakable-2.0.sol\":5681:5687  amount */\n      dup5\n        /* \"contracts/Stakable-2.0.sol\":5689:5698  timestamp */\n      dup4\n        /* \"contracts/Stakable-2.0.sol\":5715:5724  timestamp */\n      dup5\n        /* \"contracts/Stakable-2.0.sol\":5701:5712  stakePeriod */\n      dup7\n        /* \"contracts/Stakable-2.0.sol\":5701:5724  stakePeriod + timestamp */\n      tag_145\n      swap2\n      swap1\n      tag_141\n      jump\t// in\n    tag_145:\n        /* \"contracts/Stakable-2.0.sol\":5668:5726  Staked(user, amount, timestamp, (stakePeriod + timestamp)) */\n      mload(0x40)\n      tag_146\n      swap4\n      swap3\n      swap2\n      swap1\n      tag_147\n      jump\t// in\n    tag_146:\n      mload(0x40)\n      dup1\n      swap2\n      sub\n      swap1\n      log2\n        /* \"contracts/Stakable-2.0.sol\":4434:5733  {... */\n      pop\n        /* \"@openzeppelin/contracts/security/ReentrancyGuard.sol\":1701:1702  1 */\n      0x01\n        /* \"@openzeppelin/contracts/security/ReentrancyGuard.sol\":2628:2635  _status */\n      0x00\n        /* \"@openzeppelin/contracts/security/ReentrancyGuard.sol\":2628:2650  _status = _NOT_ENTERED */\n      dup2\n      swap1\n      sstore\n      pop\n        /* \"contracts/Stakable-2.0.sol\":4306:5733  function stake(... */\n      pop\n      pop\n      pop\n      jump\t// out\n        /* \"contracts/Stakable-2.0.sol\":8536:9560  function hasStake() external view returns (StakingSummary memory) {... */\n    tag_39:\n        /* \"contracts/Stakable-2.0.sol\":8579:8600  StakingSummary memory */\n      tag_148\n      tag_149\n      jump\t// in\n    tag_148:\n        /* \"contracts/Stakable-2.0.sol\":8612:8635  Stake memory user_stake */\n      0x00\n        /* \"contracts/Stakable-2.0.sol\":8638:8650  stakeholders */\n      0x0c\n        /* \"contracts/Stakable-2.0.sol\":8638:8662  stakeholders[msg.sender] */\n      0x00\n        /* \"contracts/Stakable-2.0.sol\":8651:8661  msg.sender */\n      caller\n        /* \"contracts/Stakable-2.0.sol\":8638:8662  stakeholders[msg.sender] */\n      0xffffffffffffffffffffffffffffffffffffffff\n      and\n      0xffffffffffffffffffffffffffffffffffffffff\n      and\n      dup2\n      mstore\n      0x20\n      add\n      swap1\n      dup2\n      mstore\n      0x20\n      add\n      0x00\n      keccak256\n        /* \"contracts/Stakable-2.0.sol\":8612:8662  Stake memory user_stake = stakeholders[msg.sender] */\n      mload(0x40)\n      dup1\n      0xe0\n      add\n      0x40\n      mstore\n      swap1\n      dup2\n      0x00\n      dup3\n      add\n      sload\n      dup2\n      mstore\n      0x20\n      add\n      0x01\n      dup3\n      add\n      sload\n      dup2\n      mstore\n      0x20\n      add\n      0x02\n      dup3\n      add\n      sload\n      dup2\n      mstore\n      0x20\n      add\n      0x03\n      dup3\n      add\n      sload\n      dup2\n      mstore\n      0x20\n      add\n      0x04\n      dup3\n      add\n      sload\n      dup2\n      mstore\n      0x20\n      add\n      0x05\n      dup3\n      add\n      sload\n      dup2\n      mstore\n      0x20\n      add\n      0x06\n      dup3\n      add\n      sload\n      dup2\n      mstore\n      pop\n      pop\n      swap1\n      pop\n        /* \"contracts/Stakable-2.0.sol\":8758:8759  0 */\n      0x00\n        /* \"contracts/Stakable-2.0.sol\":8737:8747  user_stake */\n      dup2\n        /* \"contracts/Stakable-2.0.sol\":8737:8754  user_stake.amount */\n      0x00\n      add\n      mload\n        /* \"contracts/Stakable-2.0.sol\":8737:8759  user_stake.amount <= 0 */\n      gt\n        /* \"contracts/Stakable-2.0.sol\":8733:8818  if (user_stake.amount <= 0) {... */\n      tag_151\n      jumpi\n        /* \"contracts/Stakable-2.0.sol\":8782:8807  Staking__noStakingFound() */\n      mload(0x40)\n      0xb018f08700000000000000000000000000000000000000000000000000000000\n      dup2\n      mstore\n      0x04\n      add\n      mload(0x40)\n      dup1\n      swap2\n      sub\n      swap1\n      revert\n        /* \"contracts/Stakable-2.0.sol\":8733:8818  if (user_stake.amount <= 0) {... */\n    tag_151:\n        /* \"contracts/Stakable-2.0.sol\":8827:8856  StakingSummary memory summary */\n      0x00\n        /* \"contracts/Stakable-2.0.sol\":8859:8891  StakingSummary(0, 0, user_stake) */\n      mload(0x40)\n      dup1\n      0x60\n      add\n      0x40\n      mstore\n      dup1\n        /* \"contracts/Stakable-2.0.sol\":8874:8875  0 */\n      0x00\n        /* \"contracts/Stakable-2.0.sol\":8859:8891  StakingSummary(0, 0, user_stake) */\n      dup2\n      mstore\n      0x20\n      add\n        /* \"contracts/Stakable-2.0.sol\":8877:8878  0 */\n      0x00\n        /* \"contracts/Stakable-2.0.sol\":8859:8891  StakingSummary(0, 0, user_stake) */\n      dup2\n      mstore\n      0x20\n      add\n        /* \"contracts/Stakable-2.0.sol\":8880:8890  user_stake */\n      dup4\n        /* \"contracts/Stakable-2.0.sol\":8859:8891  StakingSummary(0, 0, user_stake) */\n      dup2\n      mstore\n      pop\n        /* \"contracts/Stakable-2.0.sol\":8827:8891  StakingSummary memory summary = StakingSummary(0, 0, user_stake) */\n      swap1\n      pop\n        /* \"contracts/Stakable-2.0.sol\":8902:8916  uint256 reward */\n      0x00\n        /* \"contracts/Stakable-2.0.sol\":8919:8952  _calculateStakeReward(user_stake) */\n      tag_152\n        /* \"contracts/Stakable-2.0.sol\":8941:8951  user_stake */\n      dup4\n        /* \"contracts/Stakable-2.0.sol\":8919:8940  _calculateStakeReward */\n      tag_153\n        /* \"contracts/Stakable-2.0.sol\":8919:8952  _calculateStakeReward(user_stake) */\n      jump\t// in\n    tag_152:\n        /* \"contracts/Stakable-2.0.sol\":8902:8952  uint256 reward = _calculateStakeReward(user_stake) */\n      swap1\n      pop\n        /* \"contracts/Stakable-2.0.sol\":8995:9010  block.timestamp */\n      timestamp\n        /* \"contracts/Stakable-2.0.sol\":8967:8974  summary */\n      dup3\n        /* \"contracts/Stakable-2.0.sol\":8967:8980  summary.stake */\n      0x40\n      add\n      mload\n        /* \"contracts/Stakable-2.0.sol\":8967:8992  summary.stake.releaseTime */\n      0x60\n      add\n      mload\n        /* \"contracts/Stakable-2.0.sol\":8967:9010  summary.stake.releaseTime > block.timestamp */\n      gt\n        /* \"contracts/Stakable-2.0.sol\":8963:9177  if (summary.stake.releaseTime > block.timestamp) {... */\n      iszero\n      tag_154\n      jumpi\n        /* \"contracts/Stakable-2.0.sol\":9161:9165  1000 */\n      0x03e8\n        /* \"contracts/Stakable-2.0.sol\":9139:9157  stakingPenaltyRate */\n      sload(0x03)\n        /* \"contracts/Stakable-2.0.sol\":9130:9136  reward */\n      dup3\n        /* \"contracts/Stakable-2.0.sol\":9130:9157  reward * stakingPenaltyRate */\n      tag_155\n      swap2\n      swap1\n      tag_156\n      jump\t// in\n    tag_155:\n        /* \"contracts/Stakable-2.0.sol\":9129:9165  (reward * stakingPenaltyRate) / 1000 */\n      tag_157\n      swap2\n      swap1\n      tag_158\n      jump\t// in\n    tag_157:\n        /* \"contracts/Stakable-2.0.sol\":9104:9108  1000 */\n      0x03e8\n        /* \"contracts/Stakable-2.0.sol\":9082:9100  stakingPenaltyRate */\n      sload(0x03)\n        /* \"contracts/Stakable-2.0.sol\":9062:9072  user_stake */\n      dup6\n        /* \"contracts/Stakable-2.0.sol\":9062:9079  user_stake.amount */\n      0x00\n      add\n      mload\n        /* \"contracts/Stakable-2.0.sol\":9062:9100  user_stake.amount * stakingPenaltyRate */\n      tag_159\n      swap2\n      swap1\n      tag_156\n      jump\t// in\n    tag_159:\n        /* \"contracts/Stakable-2.0.sol\":9061:9108  (user_stake.amount * stakingPenaltyRate) / 1000 */\n      tag_160\n      swap2\n      swap1\n      tag_158\n      jump\t// in\n    tag_160:\n        /* \"contracts/Stakable-2.0.sol\":9060:9166  ((user_stake.amount * stakingPenaltyRate) / 1000) +... */\n      tag_161\n      swap2\n      swap1\n      tag_141\n      jump\t// in\n    tag_161:\n        /* \"contracts/Stakable-2.0.sol\":9026:9033  summary */\n      dup3\n        /* \"contracts/Stakable-2.0.sol\":9026:9041  summary.penalty */\n      0x20\n      add\n        /* \"contracts/Stakable-2.0.sol\":9026:9166  summary.penalty =... */\n      dup2\n      dup2\n      mstore\n      pop\n      pop\n        /* \"contracts/Stakable-2.0.sol\":8963:9177  if (summary.stake.releaseTime > block.timestamp) {... */\n    tag_154:\n        /* \"contracts/Stakable-2.0.sol\":9235:9236  0 */\n      0x00\n        /* \"contracts/Stakable-2.0.sol\":9191:9232  calculateWeek(user_stake.latestClaimDrop) */\n      tag_162\n        /* \"contracts/Stakable-2.0.sol\":9205:9215  user_stake */\n      dup5\n        /* \"contracts/Stakable-2.0.sol\":9205:9231  user_stake.latestClaimDrop */\n      0xc0\n      add\n      mload\n        /* \"contracts/Stakable-2.0.sol\":9191:9204  calculateWeek */\n      tag_89\n        /* \"contracts/Stakable-2.0.sol\":9191:9232  calculateWeek(user_stake.latestClaimDrop) */\n      jump\t// in\n    tag_162:\n        /* \"contracts/Stakable-2.0.sol\":9191:9236  calculateWeek(user_stake.latestClaimDrop) > 0 */\n      gt\n        /* \"contracts/Stakable-2.0.sol\":9187:9436  if (calculateWeek(user_stake.latestClaimDrop) > 0) {... */\n      iszero\n      tag_163\n      jumpi\n        /* \"contracts/Stakable-2.0.sol\":9252:9267  uint256 airdrop */\n      0x00\n        /* \"contracts/Stakable-2.0.sol\":9270:9306  _calculateAirdrop(user_stake.amount) */\n      tag_164\n        /* \"contracts/Stakable-2.0.sol\":9288:9298  user_stake */\n      dup5\n        /* \"contracts/Stakable-2.0.sol\":9288:9305  user_stake.amount */\n      0x00\n      add\n      mload\n        /* \"contracts/Stakable-2.0.sol\":9270:9287  _calculateAirdrop */\n      tag_165\n        /* \"contracts/Stakable-2.0.sol\":9270:9306  _calculateAirdrop(user_stake.amount) */\n      jump\t// in\n    tag_164:\n        /* \"contracts/Stakable-2.0.sol\":9252:9306  uint256 airdrop = _calculateAirdrop(user_stake.amount) */\n      swap1\n      pop\n        /* \"contracts/Stakable-2.0.sol\":9353:9360  airdrop */\n      dup1\n        /* \"contracts/Stakable-2.0.sol\":9320:9327  summary */\n      dup4\n        /* \"contracts/Stakable-2.0.sol\":9320:9333  summary.stake */\n      0x40\n      add\n      mload\n        /* \"contracts/Stakable-2.0.sol\":9320:9350  summary.stake.claimableAirdrop */\n      0xa0\n      add\n        /* \"contracts/Stakable-2.0.sol\":9320:9360  summary.stake.claimableAirdrop = airdrop */\n      dup2\n      dup2\n      mstore\n      pop\n      pop\n        /* \"contracts/Stakable-2.0.sol\":9238:9371  {... */\n      pop\n        /* \"contracts/Stakable-2.0.sol\":9187:9436  if (calculateWeek(user_stake.latestClaimDrop) > 0) {... */\n      jump(tag_166)\n    tag_163:\n        /* \"contracts/Stakable-2.0.sol\":9424:9425  0 */\n      0x00\n        /* \"contracts/Stakable-2.0.sol\":9391:9398  summary */\n      dup3\n        /* \"contracts/Stakable-2.0.sol\":9391:9404  summary.stake */\n      0x40\n      add\n      mload\n        /* \"contracts/Stakable-2.0.sol\":9391:9421  summary.stake.claimableAirdrop */\n      0xa0\n      add\n        /* \"contracts/Stakable-2.0.sol\":9391:9425  summary.stake.claimableAirdrop = 0 */\n      dup2\n      dup2\n      mstore\n      pop\n      pop\n        /* \"contracts/Stakable-2.0.sol\":9187:9436  if (calculateWeek(user_stake.latestClaimDrop) > 0) {... */\n    tag_166:\n        /* \"contracts/Stakable-2.0.sol\":9472:9478  reward */\n      dup1\n        /* \"contracts/Stakable-2.0.sol\":9446:9453  summary */\n      dup3\n        /* \"contracts/Stakable-2.0.sol\":9446:9459  summary.stake */\n      0x40\n      add\n      mload\n        /* \"contracts/Stakable-2.0.sol\":9446:9469  summary.stake.claimable */\n      0x80\n      add\n        /* \"contracts/Stakable-2.0.sol\":9446:9478  summary.stake.claimable = reward */\n      dup2\n      dup2\n      mstore\n      pop\n      pop\n        /* \"contracts/Stakable-2.0.sol\":9511:9521  user_stake */\n      dup3\n        /* \"contracts/Stakable-2.0.sol\":9511:9528  user_stake.amount */\n      0x00\n      add\n      mload\n        /* \"contracts/Stakable-2.0.sol\":9488:9495  summary */\n      dup3\n        /* \"contracts/Stakable-2.0.sol\":9488:9508  summary.total_amount */\n      0x00\n      add\n        /* \"contracts/Stakable-2.0.sol\":9488:9528  summary.total_amount = user_stake.amount */\n      dup2\n      dup2\n      mstore\n      pop\n      pop\n        /* \"contracts/Stakable-2.0.sol\":9546:9553  summary */\n      dup2\n        /* \"contracts/Stakable-2.0.sol\":9539:9553  return summary */\n      swap4\n      pop\n      pop\n      pop\n      pop\n        /* \"contracts/Stakable-2.0.sol\":8536:9560  function hasStake() external view returns (StakingSummary memory) {... */\n      swap1\n      jump\t// out\n        /* \"contracts/Stakable-2.0.sol\":11398:11608  function startVoting() external nonReentrant onlyOwner {... */\n    tag_43:\n        /* \"@openzeppelin/contracts/security/ReentrancyGuard.sol\":1744:1745  2 */\n      0x02\n        /* \"@openzeppelin/contracts/security/ReentrancyGuard.sol\":2325:2332  _status */\n      sload(0x00)\n        /* \"@openzeppelin/contracts/security/ReentrancyGuard.sol\":2325:2344  _status != _ENTERED */\n      eq\n      iszero\n        /* \"@openzeppelin/contracts/security/ReentrancyGuard.sol\":2317:2380  require(_status != _ENTERED, \"ReentrancyGuard: reentrant call\") */\n      tag_168\n      jumpi\n      mload(0x40)\n      0x08c379a000000000000000000000000000000000000000000000000000000000\n      dup2\n      mstore\n      0x04\n      add\n      tag_169\n      swap1\n      tag_115\n      jump\t// in\n    tag_169:\n      mload(0x40)\n      dup1\n      swap2\n      sub\n      swap1\n      revert\n    tag_168:\n        /* \"@openzeppelin/contracts/security/ReentrancyGuard.sol\":1744:1745  2 */\n      0x02\n        /* \"@openzeppelin/contracts/security/ReentrancyGuard.sol\":2455:2462  _status */\n      0x00\n        /* \"@openzeppelin/contracts/security/ReentrancyGuard.sol\":2455:2473  _status = _ENTERED */\n      dup2\n      swap1\n      sstore\n      pop\n        /* \"@openzeppelin/contracts/access/Ownable.sol\":1259:1271  _msgSender() */\n      tag_171\n        /* \"@openzeppelin/contracts/access/Ownable.sol\":1259:1269  _msgSender */\n      tag_131\n        /* \"@openzeppelin/contracts/access/Ownable.sol\":1259:1271  _msgSender() */\n      jump\t// in\n    tag_171:\n        /* \"@openzeppelin/contracts/access/Ownable.sol\":1248:1271  owner() == _msgSender() */\n      0xffffffffffffffffffffffffffffffffffffffff\n      and\n        /* \"@openzeppelin/contracts/access/Ownable.sol\":1248:1255  owner() */\n      tag_172\n        /* \"@openzeppelin/contracts/access/Ownable.sol\":1248:1253  owner */\n      tag_77\n        /* \"@openzeppelin/contracts/access/Ownable.sol\":1248:1255  owner() */\n      jump\t// in\n    tag_172:\n        /* \"@openzeppelin/contracts/access/Ownable.sol\":1248:1271  owner() == _msgSender() */\n      0xffffffffffffffffffffffffffffffffffffffff\n      and\n      eq\n        /* \"@openzeppelin/contracts/access/Ownable.sol\":1240:1308  require(owner() == _msgSender(), \"Ownable: caller is not the owner\") */\n      tag_173\n      jumpi\n      mload(0x40)\n      0x08c379a000000000000000000000000000000000000000000000000000000000\n      dup2\n      mstore\n      0x04\n      add\n      tag_174\n      swap1\n      tag_135\n      jump\t// in\n    tag_174:\n      mload(0x40)\n      dup1\n      swap2\n      sub\n      swap1\n      revert\n    tag_173:\n        /* \"contracts/Stakable-2.0.sol\":11484:11488  true */\n      0x01\n        /* \"contracts/Stakable-2.0.sol\":11467:11488  _votingStatus == true */\n      iszero\n      iszero\n        /* \"contracts/Stakable-2.0.sol\":11467:11480  _votingStatus */\n      0x06\n      0x00\n      swap1\n      sload\n      swap1\n      0x0100\n      exp\n      swap1\n      div\n      0xff\n      and\n        /* \"contracts/Stakable-2.0.sol\":11467:11488  _votingStatus == true */\n      iszero\n      iszero\n      eq\n        /* \"contracts/Stakable-2.0.sol\":11463:11547  if (_votingStatus == true) {... */\n      iszero\n      tag_176\n      jumpi\n        /* \"contracts/Stakable-2.0.sol\":11511:11536  Voting__votingIsRunning() */\n      mload(0x40)\n      0x6da4cd2e00000000000000000000000000000000000000000000000000000000\n      dup2\n      mstore\n      0x04\n      add\n      mload(0x40)\n      dup1\n      swap2\n      sub\n      swap1\n      revert\n        /* \"contracts/Stakable-2.0.sol\":11463:11547  if (_votingStatus == true) {... */\n    tag_176:\n        /* \"contracts/Stakable-2.0.sol\":11573:11577  true */\n      0x01\n        /* \"contracts/Stakable-2.0.sol\":11557:11570  _votingStatus */\n      0x06\n      0x00\n        /* \"contracts/Stakable-2.0.sol\":11557:11577  _votingStatus = true */\n      0x0100\n      exp\n      dup2\n      sload\n      dup2\n      0xff\n      mul\n      not\n      and\n      swap1\n      dup4\n      iszero\n      iszero\n      mul\n      or\n      swap1\n      sstore\n      pop\n        /* \"contracts/Stakable-2.0.sol\":11600:11601  1 */\n      0x01\n        /* \"contracts/Stakable-2.0.sol\":11587:11596  _votingId */\n      0x07\n      0x00\n        /* \"contracts/Stakable-2.0.sol\":11587:11601  _votingId += 1 */\n      dup3\n      dup3\n      sload\n      tag_177\n      swap2\n      swap1\n      tag_141\n      jump\t// in\n    tag_177:\n      swap3\n      pop\n      pop\n      dup2\n      swap1\n      sstore\n      pop\n        /* \"@openzeppelin/contracts/security/ReentrancyGuard.sol\":1701:1702  1 */\n      0x01\n        /* \"@openzeppelin/contracts/security/ReentrancyGuard.sol\":2628:2635  _status */\n      0x00\n        /* \"@openzeppelin/contracts/security/ReentrancyGuard.sol\":2628:2650  _status = _NOT_ENTERED */\n      dup2\n      swap1\n      sstore\n      pop\n        /* \"contracts/Stakable-2.0.sol\":11398:11608  function startVoting() external nonReentrant onlyOwner {... */\n      jump\t// out\n        /* \"contracts/Stakable-2.0.sol\":11183:11332  function getVoters(address user) external view returns (bool, bool) {... */\n    tag_47:\n        /* \"contracts/Stakable-2.0.sol\":11239:11243  bool */\n      0x00\n        /* \"contracts/Stakable-2.0.sol\":11245:11249  bool */\n      dup1\n        /* \"contracts/Stakable-2.0.sol\":11269:11275  voters */\n      0x09\n        /* \"contracts/Stakable-2.0.sol\":11269:11281  voters[user] */\n      0x00\n        /* \"contracts/Stakable-2.0.sol\":11276:11280  user */\n      dup5\n        /* \"contracts/Stakable-2.0.sol\":11269:11281  voters[user] */\n      0xffffffffffffffffffffffffffffffffffffffff\n      and\n      0xffffffffffffffffffffffffffffffffffffffff\n      and\n      dup2\n      mstore\n      0x20\n      add\n      swap1\n      dup2\n      mstore\n      0x20\n      add\n      0x00\n      keccak256\n        /* \"contracts/Stakable-2.0.sol\":11269:11293  voters[user].votingRight */\n      0x00\n      add\n      0x00\n      swap1\n      sload\n      swap1\n      0x0100\n      exp\n      swap1\n      div\n      0xff\n      and\n        /* \"contracts/Stakable-2.0.sol\":11295:11301  voters */\n      0x09\n        /* \"contracts/Stakable-2.0.sol\":11295:11307  voters[user] */\n      0x00\n        /* \"contracts/Stakable-2.0.sol\":11302:11306  user */\n      dup6\n        /* \"contracts/Stakable-2.0.sol\":11295:11307  voters[user] */\n      0xffffffffffffffffffffffffffffffffffffffff\n      and\n      0xffffffffffffffffffffffffffffffffffffffff\n      and\n      dup2\n      mstore\n      0x20\n      add\n      swap1\n      dup2\n      mstore\n      0x20\n      add\n      0x00\n      keccak256\n        /* \"contracts/Stakable-2.0.sol\":11295:11313  voters[user].voted */\n      0x01\n      add\n        /* \"contracts/Stakable-2.0.sol\":11295:11324  voters[user].voted[_votingId] */\n      0x00\n        /* \"contracts/Stakable-2.0.sol\":11314:11323  _votingId */\n      sload(0x07)\n        /* \"contracts/Stakable-2.0.sol\":11295:11324  voters[user].voted[_votingId] */\n      dup2\n      mstore\n      0x20\n      add\n      swap1\n      dup2\n      mstore\n      0x20\n      add\n      0x00\n      keccak256\n      0x00\n      swap1\n      sload\n      swap1\n      0x0100\n      exp\n      swap1\n      div\n      0xff\n      and\n        /* \"contracts/Stakable-2.0.sol\":11261:11325  return (voters[user].votingRight, voters[user].voted[_votingId]) */\n      swap2\n      pop\n      swap2\n      pop\n        /* \"contracts/Stakable-2.0.sol\":11183:11332  function getVoters(address user) external view returns (bool, bool) {... */\n      swap2\n      pop\n      swap2\n      jump\t// out\n        /* \"contracts/Stakable-2.0.sol\":1516:1542  uint256 public totalVoters */\n    tag_51:\n      sload(0x08)\n      dup2\n      jump\t// out\n        /* \"contracts/Stakable-2.0.sol\":11614:11883  function vote() public nonReentrant votingStatusTrue isVoter {... */\n    tag_55:\n        /* \"@openzeppelin/contracts/security/ReentrancyGuard.sol\":1744:1745  2 */\n      0x02\n        /* \"@openzeppelin/contracts/security/ReentrancyGuard.sol\":2325:2332  _status */\n      sload(0x00)\n        /* \"@openzeppelin/contracts/security/ReentrancyGuard.sol\":2325:2344  _status != _ENTERED */\n      eq\n      iszero\n        /* \"@openzeppelin/contracts/security/ReentrancyGuard.sol\":2317:2380  require(_status != _ENTERED, \"ReentrancyGuard: reentrant call\") */\n      tag_180\n      jumpi\n      mload(0x40)\n      0x08c379a000000000000000000000000000000000000000000000000000000000\n      dup2\n      mstore\n      0x04\n      add\n      tag_181\n      swap1\n      tag_115\n      jump\t// in\n    tag_181:\n      mload(0x40)\n      dup1\n      swap2\n      sub\n      swap1\n      revert\n    tag_180:\n        /* \"@openzeppelin/contracts/security/ReentrancyGuard.sol\":1744:1745  2 */\n      0x02\n        /* \"@openzeppelin/contracts/security/ReentrancyGuard.sol\":2455:2462  _status */\n      0x00\n        /* \"@openzeppelin/contracts/security/ReentrancyGuard.sol\":2455:2473  _status = _ENTERED */\n      dup2\n      swap1\n      sstore\n      pop\n        /* \"contracts/Stakable-2.0.sol\":3951:3971  _checkVotingStatus() */\n      tag_183\n        /* \"contracts/Stakable-2.0.sol\":3951:3969  _checkVotingStatus */\n      tag_118\n        /* \"contracts/Stakable-2.0.sol\":3951:3971  _checkVotingStatus() */\n      jump\t// in\n    tag_183:\n        /* \"contracts/Stakable-2.0.sol\":3669:3679  _isVoter() */\n      tag_185\n        /* \"contracts/Stakable-2.0.sol\":3669:3677  _isVoter */\n      tag_121\n        /* \"contracts/Stakable-2.0.sol\":3669:3679  _isVoter() */\n      jump\t// in\n    tag_185:\n        /* \"contracts/Stakable-2.0.sol\":11728:11732  true */\n      0x01\n        /* \"contracts/Stakable-2.0.sol\":11689:11732  voters[msg.sender].voted[_votingId] == true */\n      iszero\n      iszero\n        /* \"contracts/Stakable-2.0.sol\":11689:11695  voters */\n      0x09\n        /* \"contracts/Stakable-2.0.sol\":11689:11707  voters[msg.sender] */\n      0x00\n        /* \"contracts/Stakable-2.0.sol\":11696:11706  msg.sender */\n      caller\n        /* \"contracts/Stakable-2.0.sol\":11689:11707  voters[msg.sender] */\n      0xffffffffffffffffffffffffffffffffffffffff\n      and\n      0xffffffffffffffffffffffffffffffffffffffff\n      and\n      dup2\n      mstore\n      0x20\n      add\n      swap1\n      dup2\n      mstore\n      0x20\n      add\n      0x00\n      keccak256\n        /* \"contracts/Stakable-2.0.sol\":11689:11713  voters[msg.sender].voted */\n      0x01\n      add\n        /* \"contracts/Stakable-2.0.sol\":11689:11724  voters[msg.sender].voted[_votingId] */\n      0x00\n        /* \"contracts/Stakable-2.0.sol\":11714:11723  _votingId */\n      sload(0x07)\n        /* \"contracts/Stakable-2.0.sol\":11689:11724  voters[msg.sender].voted[_votingId] */\n      dup2\n      mstore\n      0x20\n      add\n      swap1\n      dup2\n      mstore\n      0x20\n      add\n      0x00\n      keccak256\n      0x00\n      swap1\n      sload\n      swap1\n      0x0100\n      exp\n      swap1\n      div\n      0xff\n      and\n        /* \"contracts/Stakable-2.0.sol\":11689:11732  voters[msg.sender].voted[_votingId] == true */\n      iszero\n      iszero\n      eq\n        /* \"contracts/Stakable-2.0.sol\":11685:11788  if (voters[msg.sender].voted[_votingId] == true) {... */\n      iszero\n      tag_187\n      jumpi\n        /* \"contracts/Stakable-2.0.sol\":11755:11777  Voting__alreadyVoted() */\n      mload(0x40)\n      0x740e33b000000000000000000000000000000000000000000000000000000000\n      dup2\n      mstore\n      0x04\n      add\n      mload(0x40)\n      dup1\n      swap2\n      sub\n      swap1\n      revert\n        /* \"contracts/Stakable-2.0.sol\":11685:11788  if (voters[msg.sender].voted[_votingId] == true) {... */\n    tag_187:\n        /* \"contracts/Stakable-2.0.sol\":11836:11840  true */\n      0x01\n        /* \"contracts/Stakable-2.0.sol\":11798:11804  voters */\n      0x09\n        /* \"contracts/Stakable-2.0.sol\":11798:11816  voters[msg.sender] */\n      0x00\n        /* \"contracts/Stakable-2.0.sol\":11805:11815  msg.sender */\n      caller\n        /* \"contracts/Stakable-2.0.sol\":11798:11816  voters[msg.sender] */\n      0xffffffffffffffffffffffffffffffffffffffff\n      and\n      0xffffffffffffffffffffffffffffffffffffffff\n      and\n      dup2\n      mstore\n      0x20\n      add\n      swap1\n      dup2\n      mstore\n      0x20\n      add\n      0x00\n      keccak256\n        /* \"contracts/Stakable-2.0.sol\":11798:11822  voters[msg.sender].voted */\n      0x01\n      add\n        /* \"contracts/Stakable-2.0.sol\":11798:11833  voters[msg.sender].voted[_votingId] */\n      0x00\n        /* \"contracts/Stakable-2.0.sol\":11823:11832  _votingId */\n      sload(0x07)\n        /* \"contracts/Stakable-2.0.sol\":11798:11833  voters[msg.sender].voted[_votingId] */\n      dup2\n      mstore\n      0x20\n      add\n      swap1\n      dup2\n      mstore\n      0x20\n      add\n      0x00\n      keccak256\n      0x00\n        /* \"contracts/Stakable-2.0.sol\":11798:11840  voters[msg.sender].voted[_votingId] = true */\n      0x0100\n      exp\n      dup2\n      sload\n      dup2\n      0xff\n      mul\n      not\n      and\n      swap1\n      dup4\n      iszero\n      iszero\n      mul\n      or\n      swap1\n      sstore\n      pop\n        /* \"contracts/Stakable-2.0.sol\":11875:11876  1 */\n      0x01\n        /* \"contracts/Stakable-2.0.sol\":11850:11860  votedUsers */\n      0x0a\n        /* \"contracts/Stakable-2.0.sol\":11850:11871  votedUsers[_votingId] */\n      0x00\n        /* \"contracts/Stakable-2.0.sol\":11861:11870  _votingId */\n      sload(0x07)\n        /* \"contracts/Stakable-2.0.sol\":11850:11871  votedUsers[_votingId] */\n      dup2\n      mstore\n      0x20\n      add\n      swap1\n      dup2\n      mstore\n      0x20\n      add\n      0x00\n      keccak256\n      0x00\n        /* \"contracts/Stakable-2.0.sol\":11850:11876  votedUsers[_votingId] += 1 */\n      dup3\n      dup3\n      sload\n      tag_188\n      swap2\n      swap1\n      tag_141\n      jump\t// in\n    tag_188:\n      swap3\n      pop\n      pop\n      dup2\n      swap1\n      sstore\n      pop\n        /* \"@openzeppelin/contracts/security/ReentrancyGuard.sol\":1701:1702  1 */\n      0x01\n        /* \"@openzeppelin/contracts/security/ReentrancyGuard.sol\":2628:2635  _status */\n      0x00\n        /* \"@openzeppelin/contracts/security/ReentrancyGuard.sol\":2628:2650  _status = _NOT_ENTERED */\n      dup2\n      swap1\n      sstore\n      pop\n        /* \"contracts/Stakable-2.0.sol\":11614:11883  function vote() public nonReentrant votingStatusTrue isVoter {... */\n      jump\t// out\n        /* \"contracts/Stakable-2.0.sol\":10435:11028  function claimAirdrop(address user) external {... */\n    tag_58:\n        /* \"contracts/Stakable-2.0.sol\":10542:10562  Stake storage staker */\n      0x00\n        /* \"contracts/Stakable-2.0.sol\":10565:10577  stakeholders */\n      0x0c\n        /* \"contracts/Stakable-2.0.sol\":10565:10583  stakeholders[user] */\n      0x00\n        /* \"contracts/Stakable-2.0.sol\":10578:10582  user */\n      dup4\n        /* \"contracts/Stakable-2.0.sol\":10565:10583  stakeholders[user] */\n      0xffffffffffffffffffffffffffffffffffffffff\n      and\n      0xffffffffffffffffffffffffffffffffffffffff\n      and\n      dup2\n      mstore\n      0x20\n      add\n      swap1\n      dup2\n      mstore\n      0x20\n      add\n      0x00\n      keccak256\n        /* \"contracts/Stakable-2.0.sol\":10542:10583  Stake storage staker = stakeholders[user] */\n      swap1\n      pop\n        /* \"contracts/Stakable-2.0.sol\":10614:10615  0 */\n      0x00\n        /* \"contracts/Stakable-2.0.sol\":10598:10604  staker */\n      dup2\n        /* \"contracts/Stakable-2.0.sol\":10598:10611  staker.amount */\n      0x00\n      add\n      sload\n        /* \"contracts/Stakable-2.0.sol\":10598:10615  staker.amount > 0 */\n      gt\n        /* \"contracts/Stakable-2.0.sol\":10594:11022  if (staker.amount > 0) {... */\n      iszero\n      tag_190\n      jumpi\n        /* \"contracts/Stakable-2.0.sol\":10676:10677  0 */\n      0x00\n        /* \"contracts/Stakable-2.0.sol\":10635:10672  calculateWeek(staker.latestClaimDrop) */\n      tag_191\n        /* \"contracts/Stakable-2.0.sol\":10649:10655  staker */\n      dup3\n        /* \"contracts/Stakable-2.0.sol\":10649:10671  staker.latestClaimDrop */\n      0x06\n      add\n      sload\n        /* \"contracts/Stakable-2.0.sol\":10635:10648  calculateWeek */\n      tag_89\n        /* \"contracts/Stakable-2.0.sol\":10635:10672  calculateWeek(staker.latestClaimDrop) */\n      jump\t// in\n    tag_191:\n        /* \"contracts/Stakable-2.0.sol\":10635:10677  calculateWeek(staker.latestClaimDrop) == 0 */\n      eq\n        /* \"contracts/Stakable-2.0.sol\":10631:10748  if (calculateWeek(staker.latestClaimDrop) == 0) {... */\n      iszero\n      tag_192\n      jumpi\n        /* \"contracts/Stakable-2.0.sol\":10704:10733  Airdrop__claimableOnceAWeek() */\n      mload(0x40)\n      0xdd8456cc00000000000000000000000000000000000000000000000000000000\n      dup2\n      mstore\n      0x04\n      add\n      mload(0x40)\n      dup1\n      swap2\n      sub\n      swap1\n      revert\n        /* \"contracts/Stakable-2.0.sol\":10631:10748  if (calculateWeek(staker.latestClaimDrop) == 0) {... */\n    tag_192:\n        /* \"contracts/Stakable-2.0.sol\":10788:10789  0 */\n      0x00\n        /* \"contracts/Stakable-2.0.sol\":10762:10768  staker */\n      dup2\n        /* \"contracts/Stakable-2.0.sol\":10762:10785  staker.claimableAirdrop */\n      0x05\n      add\n        /* \"contracts/Stakable-2.0.sol\":10762:10789  staker.claimableAirdrop = 0 */\n      dup2\n      swap1\n      sstore\n      pop\n        /* \"contracts/Stakable-2.0.sol\":10828:10843  block.timestamp */\n      timestamp\n        /* \"contracts/Stakable-2.0.sol\":10803:10809  staker */\n      dup2\n        /* \"contracts/Stakable-2.0.sol\":10803:10825  staker.latestClaimDrop */\n      0x06\n      add\n        /* \"contracts/Stakable-2.0.sol\":10803:10843  staker.latestClaimDrop = block.timestamp */\n      dup2\n      swap1\n      sstore\n      pop\n        /* \"contracts/Stakable-2.0.sol\":10858:11011  SafeERC20.safeTransfer(... */\n      tag_193\n        /* \"contracts/Stakable-2.0.sol\":10905:10918  token_address */\n      0x0b\n      0x00\n      swap1\n      sload\n      swap1\n      0x0100\n      exp\n      swap1\n      div\n      0xffffffffffffffffffffffffffffffffffffffff\n      and\n        /* \"contracts/Stakable-2.0.sol\":10937:10947  msg.sender */\n      caller\n        /* \"contracts/Stakable-2.0.sol\":10965:10997  _calculateAirdrop(staker.amount) */\n      tag_194\n        /* \"contracts/Stakable-2.0.sol\":10983:10989  staker */\n      dup5\n        /* \"contracts/Stakable-2.0.sol\":10983:10996  staker.amount */\n      0x00\n      add\n      sload\n        /* \"contracts/Stakable-2.0.sol\":10965:10982  _calculateAirdrop */\n      tag_165\n        /* \"contracts/Stakable-2.0.sol\":10965:10997  _calculateAirdrop(staker.amount) */\n      jump\t// in\n    tag_194:\n        /* \"contracts/Stakable-2.0.sol\":10858:10880  SafeERC20.safeTransfer */\n      tag_195\n        /* \"contracts/Stakable-2.0.sol\":10858:11011  SafeERC20.safeTransfer(... */\n      jump\t// in\n    tag_193:\n        /* \"contracts/Stakable-2.0.sol\":10594:11022  if (staker.amount > 0) {... */\n    tag_190:\n        /* \"contracts/Stakable-2.0.sol\":10480:11028  {... */\n      pop\n        /* \"contracts/Stakable-2.0.sol\":10435:11028  function claimAirdrop(address user) external {... */\n      pop\n      jump\t// out\n        /* \"contracts/Stakable-2.0.sol\":12173:12579  function getVotingResult()... */\n    tag_60:\n        /* \"contracts/Stakable-2.0.sol\":12290:12294  bool */\n      0x00\n        /* \"@openzeppelin/contracts/access/Ownable.sol\":1259:1271  _msgSender() */\n      tag_197\n        /* \"@openzeppelin/contracts/access/Ownable.sol\":1259:1269  _msgSender */\n      tag_131\n        /* \"@openzeppelin/contracts/access/Ownable.sol\":1259:1271  _msgSender() */\n      jump\t// in\n    tag_197:\n        /* \"@openzeppelin/contracts/access/Ownable.sol\":1248:1271  owner() == _msgSender() */\n      0xffffffffffffffffffffffffffffffffffffffff\n      and\n        /* \"@openzeppelin/contracts/access/Ownable.sol\":1248:1255  owner() */\n      tag_198\n        /* \"@openzeppelin/contracts/access/Ownable.sol\":1248:1253  owner */\n      tag_77\n        /* \"@openzeppelin/contracts/access/Ownable.sol\":1248:1255  owner() */\n      jump\t// in\n    tag_198:\n        /* \"@openzeppelin/contracts/access/Ownable.sol\":1248:1271  owner() == _msgSender() */\n      0xffffffffffffffffffffffffffffffffffffffff\n      and\n      eq\n        /* \"@openzeppelin/contracts/access/Ownable.sol\":1240:1308  require(owner() == _msgSender(), \"Ownable: caller is not the owner\") */\n      tag_199\n      jumpi\n      mload(0x40)\n      0x08c379a000000000000000000000000000000000000000000000000000000000\n      dup2\n      mstore\n      0x04\n      add\n      tag_200\n      swap1\n      tag_135\n      jump\t// in\n    tag_200:\n      mload(0x40)\n      dup1\n      swap2\n      sub\n      swap1\n      revert\n    tag_199:\n        /* \"contracts/Stakable-2.0.sol\":3951:3971  _checkVotingStatus() */\n      tag_202\n        /* \"contracts/Stakable-2.0.sol\":3951:3969  _checkVotingStatus */\n      tag_118\n        /* \"contracts/Stakable-2.0.sol\":3951:3971  _checkVotingStatus() */\n      jump\t// in\n    tag_202:\n        /* \"contracts/Stakable-2.0.sol\":12329:12330  1 */\n      0x01\n        /* \"contracts/Stakable-2.0.sol\":12314:12325  totalVoters */\n      sload(0x08)\n        /* \"contracts/Stakable-2.0.sol\":12314:12330  totalVoters <= 1 */\n      gt\n        /* \"contracts/Stakable-2.0.sol\":12310:12389  if (totalVoters <= 1) {... */\n      tag_204\n      jumpi\n        /* \"contracts/Stakable-2.0.sol\":12353:12378  Voting__notEnoughVoters() */\n      mload(0x40)\n      0x2f9686de00000000000000000000000000000000000000000000000000000000\n      dup2\n      mstore\n      0x04\n      add\n      mload(0x40)\n      dup1\n      swap2\n      sub\n      swap1\n      revert\n        /* \"contracts/Stakable-2.0.sol\":12310:12389  if (totalVoters <= 1) {... */\n    tag_204:\n        /* \"contracts/Stakable-2.0.sol\":12398:12417  uint256 half_voters */\n      0x00\n        /* \"contracts/Stakable-2.0.sol\":12440:12442  10 */\n      0x0a\n        /* \"contracts/Stakable-2.0.sol\":12435:12436  5 */\n      0x05\n        /* \"contracts/Stakable-2.0.sol\":12421:12432  totalVoters */\n      sload(0x08)\n        /* \"contracts/Stakable-2.0.sol\":12421:12436  totalVoters * 5 */\n      tag_205\n      swap2\n      swap1\n      tag_156\n      jump\t// in\n    tag_205:\n        /* \"contracts/Stakable-2.0.sol\":12420:12442  (totalVoters * 5) / 10 */\n      tag_206\n      swap2\n      swap1\n      tag_158\n      jump\t// in\n    tag_206:\n        /* \"contracts/Stakable-2.0.sol\":12398:12442  uint256 half_voters = (totalVoters * 5) / 10 */\n      swap1\n      pop\n        /* \"contracts/Stakable-2.0.sol\":12481:12492  half_voters */\n      dup1\n        /* \"contracts/Stakable-2.0.sol\":12457:12467  votedUsers */\n      0x0a\n        /* \"contracts/Stakable-2.0.sol\":12457:12478  votedUsers[_votingId] */\n      0x00\n        /* \"contracts/Stakable-2.0.sol\":12468:12477  _votingId */\n      sload(0x07)\n        /* \"contracts/Stakable-2.0.sol\":12457:12478  votedUsers[_votingId] */\n      dup2\n      mstore\n      0x20\n      add\n      swap1\n      dup2\n      mstore\n      0x20\n      add\n      0x00\n      keccak256\n      sload\n        /* \"contracts/Stakable-2.0.sol\":12457:12492  votedUsers[_votingId] > half_voters */\n      gt\n        /* \"contracts/Stakable-2.0.sol\":12453:12573  if (votedUsers[_votingId] > half_voters) {... */\n      iszero\n      tag_207\n      jumpi\n        /* \"contracts/Stakable-2.0.sol\":12515:12519  true */\n      0x01\n        /* \"contracts/Stakable-2.0.sol\":12508:12519  return true */\n      swap2\n      pop\n      pop\n      jump(tag_203)\n        /* \"contracts/Stakable-2.0.sol\":12453:12573  if (votedUsers[_votingId] > half_voters) {... */\n    tag_207:\n        /* \"contracts/Stakable-2.0.sol\":12557:12562  false */\n      0x00\n        /* \"contracts/Stakable-2.0.sol\":12550:12562  return false */\n      swap2\n      pop\n      pop\n        /* \"contracts/Stakable-2.0.sol\":3981:3982  _ */\n    tag_203:\n        /* \"contracts/Stakable-2.0.sol\":12173:12579  function getVotingResult()... */\n      swap1\n      jump\t// out\n        /* \"@openzeppelin/contracts/access/Ownable.sol\":1668:1769  function renounceOwnership() public virtual onlyOwner {... */\n    tag_64:\n        /* \"@openzeppelin/contracts/access/Ownable.sol\":1259:1271  _msgSender() */\n      tag_210\n        /* \"@openzeppelin/contracts/access/Ownable.sol\":1259:1269  _msgSender */\n      tag_131\n        /* \"@openzeppelin/contracts/access/Ownable.sol\":1259:1271  _msgSender() */\n      jump\t// in\n    tag_210:\n        /* \"@openzeppelin/contracts/access/Ownable.sol\":1248:1271  owner() == _msgSender() */\n      0xffffffffffffffffffffffffffffffffffffffff\n      and\n        /* \"@openzeppelin/contracts/access/Ownable.sol\":1248:1255  owner() */\n      tag_211\n        /* \"@openzeppelin/contracts/access/Ownable.sol\":1248:1253  owner */\n      tag_77\n        /* \"@openzeppelin/contracts/access/Ownable.sol\":1248:1255  owner() */\n      jump\t// in\n    tag_211:\n        /* \"@openzeppelin/contracts/access/Ownable.sol\":1248:1271  owner() == _msgSender() */\n      0xffffffffffffffffffffffffffffffffffffffff\n      and\n      eq\n        /* \"@openzeppelin/contracts/access/Ownable.sol\":1240:1308  require(owner() == _msgSender(), \"Ownable: caller is not the owner\") */\n      tag_212\n      jumpi\n      mload(0x40)\n      0x08c379a000000000000000000000000000000000000000000000000000000000\n      dup2\n      mstore\n      0x04\n      add\n      tag_213\n      swap1\n      tag_135\n      jump\t// in\n    tag_213:\n      mload(0x40)\n      dup1\n      swap2\n      sub\n      swap1\n      revert\n    tag_212:\n        /* \"@openzeppelin/contracts/access/Ownable.sol\":1732:1762  _transferOwnership(address(0)) */\n      tag_215\n        /* \"@openzeppelin/contracts/access/Ownable.sol\":1759:1760  0 */\n      0x00\n        /* \"@openzeppelin/contracts/access/Ownable.sol\":1732:1750  _transferOwnership */\n      tag_216\n        /* \"@openzeppelin/contracts/access/Ownable.sol\":1732:1762  _transferOwnership(address(0)) */\n      jump\t// in\n    tag_215:\n        /* \"@openzeppelin/contracts/access/Ownable.sol\":1668:1769  function renounceOwnership() public virtual onlyOwner {... */\n      jump\t// out\n        /* \"contracts/Stakable-2.0.sol\":1385:1411  uint256 public airdropRate */\n    tag_66:\n      sload(0x04)\n      dup2\n      jump\t// out\n        /* \"contracts/Stakable-2.0.sol\":5739:6045  function changePenaltyFee(uint256 amount) external onlyOwner {... */\n    tag_71:\n        /* \"@openzeppelin/contracts/access/Ownable.sol\":1259:1271  _msgSender() */\n      tag_218\n        /* \"@openzeppelin/contracts/access/Ownable.sol\":1259:1269  _msgSender */\n      tag_131\n        /* \"@openzeppelin/contracts/access/Ownable.sol\":1259:1271  _msgSender() */\n      jump\t// in\n    tag_218:\n        /* \"@openzeppelin/contracts/access/Ownable.sol\":1248:1271  owner() == _msgSender() */\n      0xffffffffffffffffffffffffffffffffffffffff\n      and\n        /* \"@openzeppelin/contracts/access/Ownable.sol\":1248:1255  owner() */\n      tag_219\n        /* \"@openzeppelin/contracts/access/Ownable.sol\":1248:1253  owner */\n      tag_77\n        /* \"@openzeppelin/contracts/access/Ownable.sol\":1248:1255  owner() */\n      jump\t// in\n    tag_219:\n        /* \"@openzeppelin/contracts/access/Ownable.sol\":1248:1271  owner() == _msgSender() */\n      0xffffffffffffffffffffffffffffffffffffffff\n      and\n      eq\n        /* \"@openzeppelin/contracts/access/Ownable.sol\":1240:1308  require(owner() == _msgSender(), \"Ownable: caller is not the owner\") */\n      tag_220\n      jumpi\n      mload(0x40)\n      0x08c379a000000000000000000000000000000000000000000000000000000000\n      dup2\n      mstore\n      0x04\n      add\n      tag_221\n      swap1\n      tag_135\n      jump\t// in\n    tag_221:\n      mload(0x40)\n      dup1\n      swap2\n      sub\n      swap1\n      revert\n    tag_220:\n        /* \"contracts/Stakable-2.0.sol\":5897:5899  30 */\n      0x1e\n        /* \"contracts/Stakable-2.0.sol\":5888:5894  amount */\n      dup2\n        /* \"contracts/Stakable-2.0.sol\":5888:5899  amount > 30 */\n      gt\n        /* \"contracts/Stakable-2.0.sol\":5884:5965  if (amount > 30) {... */\n      iszero\n      tag_223\n      jumpi\n        /* \"contracts/Stakable-2.0.sol\":5922:5954  Staking__penaltyExceed3Percent() */\n      mload(0x40)\n      0xf1a470d700000000000000000000000000000000000000000000000000000000\n      dup2\n      mstore\n      0x04\n      add\n      mload(0x40)\n      dup1\n      swap2\n      sub\n      swap1\n      revert\n        /* \"contracts/Stakable-2.0.sol\":5884:5965  if (amount > 30) {... */\n    tag_223:\n        /* \"contracts/Stakable-2.0.sol\":5995:6001  amount */\n      dup1\n        /* \"contracts/Stakable-2.0.sol\":5974:5992  stakingPenaltyRate */\n      0x03\n        /* \"contracts/Stakable-2.0.sol\":5974:6001  stakingPenaltyRate = amount */\n      dup2\n      swap1\n      sstore\n      pop\n        /* \"contracts/Stakable-2.0.sol\":6016:6038  PenaltyChanged(amount) */\n      0xcfa4f4cf1cd64d13a167a8e75605e0c0c9d6700e903d17c5dc11f593254a04a9\n        /* \"contracts/Stakable-2.0.sol\":6031:6037  amount */\n      dup2\n        /* \"contracts/Stakable-2.0.sol\":6016:6038  PenaltyChanged(amount) */\n      mload(0x40)\n      tag_224\n      swap2\n      swap1\n      tag_53\n      jump\t// in\n    tag_224:\n      mload(0x40)\n      dup1\n      swap2\n      sub\n      swap1\n      log1\n        /* \"contracts/Stakable-2.0.sol\":5739:6045  function changePenaltyFee(uint256 amount) external onlyOwner {... */\n      pop\n      jump\t// out\n        /* \"contracts/Stakable-2.0.sol\":1645:1673  address public token_address */\n    tag_73:\n      0x0b\n      0x00\n      swap1\n      sload\n      swap1\n      0x0100\n      exp\n      swap1\n      div\n      0xffffffffffffffffffffffffffffffffffffffff\n      and\n      dup2\n      jump\t// out\n        /* \"@openzeppelin/contracts/access/Ownable.sol\":1036:1121  function owner() public view virtual returns (address) {... */\n    tag_77:\n        /* \"@openzeppelin/contracts/access/Ownable.sol\":1082:1089  address */\n      0x00\n        /* \"@openzeppelin/contracts/access/Ownable.sol\":1108:1114  _owner */\n      0x01\n      0x00\n      swap1\n      sload\n      swap1\n      0x0100\n      exp\n      swap1\n      div\n      0xffffffffffffffffffffffffffffffffffffffff\n      and\n        /* \"@openzeppelin/contracts/access/Ownable.sol\":1101:1114  return _owner */\n      swap1\n      pop\n        /* \"@openzeppelin/contracts/access/Ownable.sol\":1036:1121  function owner() public view virtual returns (address) {... */\n      swap1\n      jump\t// out\n        /* \"contracts/Stakable-2.0.sol\":1593:1638  mapping(uint256 => uint256) public votedUsers */\n    tag_81:\n      mstore(0x20, 0x0a)\n      dup1\n      0x00\n      mstore\n      keccak256(0x00, 0x40)\n      0x00\n      swap2\n      pop\n      swap1\n      pop\n      sload\n      dup2\n      jump\t// out\n        /* \"contracts/Stakable-2.0.sol\":1548:1587  mapping(address => Voter) public voters */\n    tag_85:\n      mstore(0x20, 0x09)\n      dup1\n      0x00\n      mstore\n      keccak256(0x00, 0x40)\n      0x00\n      swap2\n      pop\n      swap1\n      pop\n      dup1\n      0x00\n      add\n      0x00\n      swap1\n      sload\n      swap1\n      0x0100\n      exp\n      swap1\n      div\n      0xff\n      and\n      swap1\n      pop\n      dup2\n      jump\t// out\n        /* \"contracts/Stakable-2.0.sol\":10110:10244  function calculateWeek(uint256 timestamp) public view returns (uint256) {... */\n    tag_89:\n        /* \"contracts/Stakable-2.0.sol\":10173:10180  uint256 */\n      0x00\n        /* \"contracts/Stakable-2.0.sol\":10231:10237  7 days */\n      0x093a80\n        /* \"contracts/Stakable-2.0.sol\":10218:10227  timestamp */\n      dup3\n        /* \"contracts/Stakable-2.0.sol\":10200:10215  block.timestamp */\n      timestamp\n        /* \"contracts/Stakable-2.0.sol\":10200:10227  block.timestamp - timestamp */\n      tag_227\n      swap2\n      swap1\n      tag_125\n      jump\t// in\n    tag_227:\n        /* \"contracts/Stakable-2.0.sol\":10199:10237  (block.timestamp - timestamp) / 7 days */\n      tag_228\n      swap2\n      swap1\n      tag_158\n      jump\t// in\n    tag_228:\n        /* \"contracts/Stakable-2.0.sol\":10192:10237  return (block.timestamp - timestamp) / 7 days */\n      swap1\n      pop\n        /* \"contracts/Stakable-2.0.sol\":10110:10244  function calculateWeek(uint256 timestamp) public view returns (uint256) {... */\n      swap2\n      swap1\n      pop\n      jump\t// out\n        /* \"contracts/Stakable-2.0.sol\":1417:1444  uint256 public airdropSince */\n    tag_92:\n      sload(0x05)\n      dup2\n      jump\t// out\n        /* \"contracts/Stakable-2.0.sol\":7546:8530  function withdrawStake() external nonReentrant {... */\n    tag_95:\n        /* \"@openzeppelin/contracts/security/ReentrancyGuard.sol\":1744:1745  2 */\n      0x02\n        /* \"@openzeppelin/contracts/security/ReentrancyGuard.sol\":2325:2332  _status */\n      sload(0x00)\n        /* \"@openzeppelin/contracts/security/ReentrancyGuard.sol\":2325:2344  _status != _ENTERED */\n      eq\n      iszero\n        /* \"@openzeppelin/contracts/security/ReentrancyGuard.sol\":2317:2380  require(_status != _ENTERED, \"ReentrancyGuard: reentrant call\") */\n      tag_230\n      jumpi\n      mload(0x40)\n      0x08c379a000000000000000000000000000000000000000000000000000000000\n      dup2\n      mstore\n      0x04\n      add\n      tag_231\n      swap1\n      tag_115\n      jump\t// in\n    tag_231:\n      mload(0x40)\n      dup1\n      swap2\n      sub\n      swap1\n      revert\n    tag_230:\n        /* \"@openzeppelin/contracts/security/ReentrancyGuard.sol\":1744:1745  2 */\n      0x02\n        /* \"@openzeppelin/contracts/security/ReentrancyGuard.sol\":2455:2462  _status */\n      0x00\n        /* \"@openzeppelin/contracts/security/ReentrancyGuard.sol\":2455:2473  _status = _ENTERED */\n      dup2\n      swap1\n      sstore\n      pop\n        /* \"contracts/Stakable-2.0.sol\":7711:7734  Stake memory user_stake */\n      0x00\n        /* \"contracts/Stakable-2.0.sol\":7737:7749  stakeholders */\n      0x0c\n        /* \"contracts/Stakable-2.0.sol\":7737:7761  stakeholders[msg.sender] */\n      0x00\n        /* \"contracts/Stakable-2.0.sol\":7750:7760  msg.sender */\n      caller\n        /* \"contracts/Stakable-2.0.sol\":7737:7761  stakeholders[msg.sender] */\n      0xffffffffffffffffffffffffffffffffffffffff\n      and\n      0xffffffffffffffffffffffffffffffffffffffff\n      and\n      dup2\n      mstore\n      0x20\n      add\n      swap1\n      dup2\n      mstore\n      0x20\n      add\n      0x00\n      keccak256\n        /* \"contracts/Stakable-2.0.sol\":7711:7761  Stake memory user_stake = stakeholders[msg.sender] */\n      mload(0x40)\n      dup1\n      0xe0\n      add\n      0x40\n      mstore\n      swap1\n      dup2\n      0x00\n      dup3\n      add\n      sload\n      dup2\n      mstore\n      0x20\n      add\n      0x01\n      dup3\n      add\n      sload\n      dup2\n      mstore\n      0x20\n      add\n      0x02\n      dup3\n      add\n      sload\n      dup2\n      mstore\n      0x20\n      add\n      0x03\n      dup3\n      add\n      sload\n      dup2\n      mstore\n      0x20\n      add\n      0x04\n      dup3\n      add\n      sload\n      dup2\n      mstore\n      0x20\n      add\n      0x05\n      dup3\n      add\n      sload\n      dup2\n      mstore\n      0x20\n      add\n      0x06\n      dup3\n      add\n      sload\n      dup2\n      mstore\n      pop\n      pop\n      swap1\n      pop\n        /* \"contracts/Stakable-2.0.sol\":7771:7785  uint256 reward */\n      0x00\n        /* \"contracts/Stakable-2.0.sol\":7788:7821  _calculateStakeReward(user_stake) */\n      tag_233\n        /* \"contracts/Stakable-2.0.sol\":7810:7820  user_stake */\n      dup3\n        /* \"contracts/Stakable-2.0.sol\":7788:7809  _calculateStakeReward */\n      tag_153\n        /* \"contracts/Stakable-2.0.sol\":7788:7821  _calculateStakeReward(user_stake) */\n      jump\t// in\n    tag_233:\n        /* \"contracts/Stakable-2.0.sol\":7771:7821  uint256 reward = _calculateStakeReward(user_stake) */\n      swap1\n      pop\n        /* \"contracts/Stakable-2.0.sol\":7839:7851  stakeholders */\n      0x0c\n        /* \"contracts/Stakable-2.0.sol\":7839:7863  stakeholders[msg.sender] */\n      0x00\n        /* \"contracts/Stakable-2.0.sol\":7852:7862  msg.sender */\n      caller\n        /* \"contracts/Stakable-2.0.sol\":7839:7863  stakeholders[msg.sender] */\n      0xffffffffffffffffffffffffffffffffffffffff\n      and\n      0xffffffffffffffffffffffffffffffffffffffff\n      and\n      dup2\n      mstore\n      0x20\n      add\n      swap1\n      dup2\n      mstore\n      0x20\n      add\n      0x00\n      keccak256\n      0x00\n        /* \"contracts/Stakable-2.0.sol\":7832:7863  delete stakeholders[msg.sender] */\n      dup1\n      dup3\n      add\n      0x00\n      swap1\n      sstore\n      0x01\n      dup3\n      add\n      0x00\n      swap1\n      sstore\n      0x02\n      dup3\n      add\n      0x00\n      swap1\n      sstore\n      0x03\n      dup3\n      add\n      0x00\n      swap1\n      sstore\n      0x04\n      dup3\n      add\n      0x00\n      swap1\n      sstore\n      0x05\n      dup3\n      add\n      0x00\n      swap1\n      sstore\n      0x06\n      dup3\n      add\n      0x00\n      swap1\n      sstore\n      pop\n      pop\n        /* \"contracts/Stakable-2.0.sol\":7888:7889  1 */\n      0x01\n        /* \"contracts/Stakable-2.0.sol\":7873:7884  totalVoters */\n      0x08\n      0x00\n        /* \"contracts/Stakable-2.0.sol\":7873:7889  totalVoters -= 1 */\n      dup3\n      dup3\n      sload\n      tag_234\n      swap2\n      swap1\n      tag_125\n      jump\t// in\n    tag_234:\n      swap3\n      pop\n      pop\n      dup2\n      swap1\n      sstore\n      pop\n        /* \"contracts/Stakable-2.0.sol\":7906:7912  voters */\n      0x09\n        /* \"contracts/Stakable-2.0.sol\":7906:7924  voters[msg.sender] */\n      0x00\n        /* \"contracts/Stakable-2.0.sol\":7913:7923  msg.sender */\n      caller\n        /* \"contracts/Stakable-2.0.sol\":7906:7924  voters[msg.sender] */\n      0xffffffffffffffffffffffffffffffffffffffff\n      and\n      0xffffffffffffffffffffffffffffffffffffffff\n      and\n      dup2\n      mstore\n      0x20\n      add\n      swap1\n      dup2\n      mstore\n      0x20\n      add\n      0x00\n      keccak256\n        /* \"contracts/Stakable-2.0.sol\":7906:7930  voters[msg.sender].voted */\n      0x01\n      add\n        /* \"contracts/Stakable-2.0.sol\":7906:7941  voters[msg.sender].voted[_votingId] */\n      0x00\n        /* \"contracts/Stakable-2.0.sol\":7931:7940  _votingId */\n      sload(0x07)\n        /* \"contracts/Stakable-2.0.sol\":7906:7941  voters[msg.sender].voted[_votingId] */\n      dup2\n      mstore\n      0x20\n      add\n      swap1\n      dup2\n      mstore\n      0x20\n      add\n      0x00\n      keccak256\n      0x00\n        /* \"contracts/Stakable-2.0.sol\":7899:7941  delete voters[msg.sender].voted[_votingId] */\n      0x0100\n      exp\n      dup2\n      sload\n      swap1\n      0xff\n      mul\n      not\n      and\n      swap1\n      sstore\n        /* \"contracts/Stakable-2.0.sol\":7981:7996  block.timestamp */\n      timestamp\n        /* \"contracts/Stakable-2.0.sol\":7956:7966  user_stake */\n      dup3\n        /* \"contracts/Stakable-2.0.sol\":7956:7978  user_stake.releaseTime */\n      0x60\n      add\n      mload\n        /* \"contracts/Stakable-2.0.sol\":7956:7996  user_stake.releaseTime > block.timestamp */\n      gt\n        /* \"contracts/Stakable-2.0.sol\":7952:8524  if (user_stake.releaseTime > block.timestamp) {... */\n      iszero\n      tag_235\n      jumpi\n        /* \"contracts/Stakable-2.0.sol\":8030:8052  uint256 amount_reduced */\n      0x00\n        /* \"contracts/Stakable-2.0.sol\":8070:8092  uint256 reward_reduced */\n      dup1\n        /* \"contracts/Stakable-2.0.sol\":8109:8164  _calculateStakingWithPenalty(user_stake.amount, reward) */\n      tag_236\n        /* \"contracts/Stakable-2.0.sol\":8138:8148  user_stake */\n      dup5\n        /* \"contracts/Stakable-2.0.sol\":8138:8155  user_stake.amount */\n      0x00\n      add\n      mload\n        /* \"contracts/Stakable-2.0.sol\":8157:8163  reward */\n      dup5\n        /* \"contracts/Stakable-2.0.sol\":8109:8137  _calculateStakingWithPenalty */\n      tag_237\n        /* \"contracts/Stakable-2.0.sol\":8109:8164  _calculateStakingWithPenalty(user_stake.amount, reward) */\n      jump\t// in\n    tag_236:\n        /* \"contracts/Stakable-2.0.sol\":8012:8164  (... */\n      swap2\n      pop\n      swap2\n      pop\n        /* \"contracts/Stakable-2.0.sol\":8179:8333  SafeERC20.safeTransfer(... */\n      tag_238\n        /* \"contracts/Stakable-2.0.sol\":8226:8239  token_address */\n      0x0b\n      0x00\n      swap1\n      sload\n      swap1\n      0x0100\n      exp\n      swap1\n      div\n      0xffffffffffffffffffffffffffffffffffffffff\n      and\n        /* \"contracts/Stakable-2.0.sol\":8258:8268  msg.sender */\n      caller\n        /* \"contracts/Stakable-2.0.sol\":8304:8318  reward_reduced */\n      dup4\n        /* \"contracts/Stakable-2.0.sol\":8287:8301  amount_reduced */\n      dup6\n        /* \"contracts/Stakable-2.0.sol\":8287:8318  amount_reduced + reward_reduced */\n      tag_239\n      swap2\n      swap1\n      tag_141\n      jump\t// in\n    tag_239:\n        /* \"contracts/Stakable-2.0.sol\":8179:8201  SafeERC20.safeTransfer */\n      tag_195\n        /* \"contracts/Stakable-2.0.sol\":8179:8333  SafeERC20.safeTransfer(... */\n      jump\t// in\n    tag_238:\n        /* \"contracts/Stakable-2.0.sol\":7998:8344  {... */\n      pop\n      pop\n        /* \"contracts/Stakable-2.0.sol\":7952:8524  if (user_stake.releaseTime > block.timestamp) {... */\n      jump(tag_240)\n    tag_235:\n        /* \"contracts/Stakable-2.0.sol\":8364:8513  SafeERC20.safeTransfer(... */\n      tag_241\n        /* \"contracts/Stakable-2.0.sol\":8411:8424  token_address */\n      0x0b\n      0x00\n      swap1\n      sload\n      swap1\n      0x0100\n      exp\n      swap1\n      div\n      0xffffffffffffffffffffffffffffffffffffffff\n      and\n        /* \"contracts/Stakable-2.0.sol\":8443:8453  msg.sender */\n      caller\n        /* \"contracts/Stakable-2.0.sol\":8492:8498  reward */\n      dup4\n        /* \"contracts/Stakable-2.0.sol\":8472:8482  user_stake */\n      dup6\n        /* \"contracts/Stakable-2.0.sol\":8472:8489  user_stake.amount */\n      0x00\n      add\n      mload\n        /* \"contracts/Stakable-2.0.sol\":8472:8498  user_stake.amount + reward */\n      tag_242\n      swap2\n      swap1\n      tag_141\n      jump\t// in\n    tag_242:\n        /* \"contracts/Stakable-2.0.sol\":8364:8386  SafeERC20.safeTransfer */\n      tag_195\n        /* \"contracts/Stakable-2.0.sol\":8364:8513  SafeERC20.safeTransfer(... */\n      jump\t// in\n    tag_241:\n        /* \"contracts/Stakable-2.0.sol\":7952:8524  if (user_stake.releaseTime > block.timestamp) {... */\n    tag_240:\n        /* \"contracts/Stakable-2.0.sol\":7593:8530  {... */\n      pop\n      pop\n        /* \"@openzeppelin/contracts/security/ReentrancyGuard.sol\":1701:1702  1 */\n      0x01\n        /* \"@openzeppelin/contracts/security/ReentrancyGuard.sol\":2628:2635  _status */\n      0x00\n        /* \"@openzeppelin/contracts/security/ReentrancyGuard.sol\":2628:2650  _status = _NOT_ENTERED */\n      dup2\n      swap1\n      sstore\n      pop\n        /* \"contracts/Stakable-2.0.sol\":7546:8530  function withdrawStake() external nonReentrant {... */\n      jump\t// out\n        /* \"contracts/Stakable-2.0.sol\":10008:10104  function _blockTimestamp() public view returns (uint256) {... */\n    tag_97:\n        /* \"contracts/Stakable-2.0.sol\":10056:10063  uint256 */\n      0x00\n        /* \"contracts/Stakable-2.0.sol\":10082:10097  block.timestamp */\n      timestamp\n        /* \"contracts/Stakable-2.0.sol\":10075:10097  return block.timestamp */\n      swap1\n      pop\n        /* \"contracts/Stakable-2.0.sol\":10008:10104  function _blockTimestamp() public view returns (uint256) {... */\n      swap1\n      jump\t// out\n        /* \"contracts/Stakable-2.0.sol\":1346:1379  uint256 public stakingPenaltyRate */\n    tag_100:\n      sload(0x03)\n      dup2\n      jump\t// out\n        /* \"contracts/Stakable-2.0.sol\":9672:9762  function startAirdrop() external onlyOwner {... */\n    tag_103:\n        /* \"@openzeppelin/contracts/access/Ownable.sol\":1259:1271  _msgSender() */\n      tag_245\n        /* \"@openzeppelin/contracts/access/Ownable.sol\":1259:1269  _msgSender */\n      tag_131\n        /* \"@openzeppelin/contracts/access/Ownable.sol\":1259:1271  _msgSender() */\n      jump\t// in\n    tag_245:\n        /* \"@openzeppelin/contracts/access/Ownable.sol\":1248:1271  owner() == _msgSender() */\n      0xffffffffffffffffffffffffffffffffffffffff\n      and\n        /* \"@openzeppelin/contracts/access/Ownable.sol\":1248:1255  owner() */\n      tag_246\n        /* \"@openzeppelin/contracts/access/Ownable.sol\":1248:1253  owner */\n      tag_77\n        /* \"@openzeppelin/contracts/access/Ownable.sol\":1248:1255  owner() */\n      jump\t// in\n    tag_246:\n        /* \"@openzeppelin/contracts/access/Ownable.sol\":1248:1271  owner() == _msgSender() */\n      0xffffffffffffffffffffffffffffffffffffffff\n      and\n      eq\n        /* \"@openzeppelin/contracts/access/Ownable.sol\":1240:1308  require(owner() == _msgSender(), \"Ownable: caller is not the owner\") */\n      tag_247\n      jumpi\n      mload(0x40)\n      0x08c379a000000000000000000000000000000000000000000000000000000000\n      dup2\n      mstore\n      0x04\n      add\n      tag_248\n      swap1\n      tag_135\n      jump\t// in\n    tag_248:\n      mload(0x40)\n      dup1\n      swap2\n      sub\n      swap1\n      revert\n    tag_247:\n        /* \"contracts/Stakable-2.0.sol\":9740:9755  block.timestamp */\n      timestamp\n        /* \"contracts/Stakable-2.0.sol\":9725:9737  airdropSince */\n      0x05\n        /* \"contracts/Stakable-2.0.sol\":9725:9755  airdropSince = block.timestamp */\n      dup2\n      swap1\n      sstore\n      pop\n        /* \"contracts/Stakable-2.0.sol\":9672:9762  function startAirdrop() external onlyOwner {... */\n      jump\t// out\n        /* \"contracts/Stakable-2.0.sol\":9768:10002  function changeAirdropPercentage(uint256 amount) external onlyOwner {... */\n    tag_106:\n        /* \"@openzeppelin/contracts/access/Ownable.sol\":1259:1271  _msgSender() */\n      tag_251\n        /* \"@openzeppelin/contracts/access/Ownable.sol\":1259:1269  _msgSender */\n      tag_131\n        /* \"@openzeppelin/contracts/access/Ownable.sol\":1259:1271  _msgSender() */\n      jump\t// in\n    tag_251:\n        /* \"@openzeppelin/contracts/access/Ownable.sol\":1248:1271  owner() == _msgSender() */\n      0xffffffffffffffffffffffffffffffffffffffff\n      and\n        /* \"@openzeppelin/contracts/access/Ownable.sol\":1248:1255  owner() */\n      tag_252\n        /* \"@openzeppelin/contracts/access/Ownable.sol\":1248:1253  owner */\n      tag_77\n        /* \"@openzeppelin/contracts/access/Ownable.sol\":1248:1255  owner() */\n      jump\t// in\n    tag_252:\n        /* \"@openzeppelin/contracts/access/Ownable.sol\":1248:1271  owner() == _msgSender() */\n      0xffffffffffffffffffffffffffffffffffffffff\n      and\n      eq\n        /* \"@openzeppelin/contracts/access/Ownable.sol\":1240:1308  require(owner() == _msgSender(), \"Ownable: caller is not the owner\") */\n      tag_253\n      jumpi\n      mload(0x40)\n      0x08c379a000000000000000000000000000000000000000000000000000000000\n      dup2\n      mstore\n      0x04\n      add\n      tag_254\n      swap1\n      tag_135\n      jump\t// in\n    tag_254:\n      mload(0x40)\n      dup1\n      swap2\n      sub\n      swap1\n      revert\n    tag_253:\n        /* \"contracts/Stakable-2.0.sol\":9859:9862  200 */\n      0xc8\n        /* \"contracts/Stakable-2.0.sol\":9850:9856  amount */\n      dup2\n        /* \"contracts/Stakable-2.0.sol\":9850:9862  amount > 200 */\n      gt\n        /* \"contracts/Stakable-2.0.sol\":9846:9929  if (amount > 200) {... */\n      iszero\n      tag_256\n      jumpi\n        /* \"contracts/Stakable-2.0.sol\":9885:9918  Staking__airdropExceed20Percent() */\n      mload(0x40)\n      0xa552cf1000000000000000000000000000000000000000000000000000000000\n      dup2\n      mstore\n      0x04\n      add\n      mload(0x40)\n      dup1\n      swap2\n      sub\n      swap1\n      revert\n        /* \"contracts/Stakable-2.0.sol\":9846:9929  if (amount > 200) {... */\n    tag_256:\n        /* \"contracts/Stakable-2.0.sol\":9952:9958  amount */\n      dup1\n        /* \"contracts/Stakable-2.0.sol\":9938:9949  airdropRate */\n      0x04\n        /* \"contracts/Stakable-2.0.sol\":9938:9958  airdropRate = amount */\n      dup2\n      swap1\n      sstore\n      pop\n        /* \"contracts/Stakable-2.0.sol\":9973:9995  AirdropChanged(amount) */\n      0xcc672f1026b958c0cfbfdd89ebe8ddcbc127f16ec24da6c2c7a4de26a8b1857e\n        /* \"contracts/Stakable-2.0.sol\":9988:9994  amount */\n      dup2\n        /* \"contracts/Stakable-2.0.sol\":9973:9995  AirdropChanged(amount) */\n      mload(0x40)\n      tag_257\n      swap2\n      swap1\n      tag_53\n      jump\t// in\n    tag_257:\n      mload(0x40)\n      dup1\n      swap2\n      sub\n      swap1\n      log1\n        /* \"contracts/Stakable-2.0.sol\":9768:10002  function changeAirdropPercentage(uint256 amount) external onlyOwner {... */\n      pop\n      jump\t// out\n        /* \"@openzeppelin/contracts/access/Ownable.sol\":1918:2116  function transferOwnership(address newOwner) public virtual onlyOwner {... */\n    tag_109:\n        /* \"@openzeppelin/contracts/access/Ownable.sol\":1259:1271  _msgSender() */\n      tag_259\n        /* \"@openzeppelin/contracts/access/Ownable.sol\":1259:1269  _msgSender */\n      tag_131\n        /* \"@openzeppelin/contracts/access/Ownable.sol\":1259:1271  _msgSender() */\n      jump\t// in\n    tag_259:\n        /* \"@openzeppelin/contracts/access/Ownable.sol\":1248:1271  owner() == _msgSender() */\n      0xffffffffffffffffffffffffffffffffffffffff\n      and\n        /* \"@openzeppelin/contracts/access/Ownable.sol\":1248:1255  owner() */\n      tag_260\n        /* \"@openzeppelin/contracts/access/Ownable.sol\":1248:1253  owner */\n      tag_77\n        /* \"@openzeppelin/contracts/access/Ownable.sol\":1248:1255  owner() */\n      jump\t// in\n    tag_260:\n        /* \"@openzeppelin/contracts/access/Ownable.sol\":1248:1271  owner() == _msgSender() */\n      0xffffffffffffffffffffffffffffffffffffffff\n      and\n      eq\n        /* \"@openzeppelin/contracts/access/Ownable.sol\":1240:1308  require(owner() == _msgSender(), \"Ownable: caller is not the owner\") */\n      tag_261\n      jumpi\n      mload(0x40)\n      0x08c379a000000000000000000000000000000000000000000000000000000000\n      dup2\n      mstore\n      0x04\n      add\n      tag_262\n      swap1\n      tag_135\n      jump\t// in\n    tag_262:\n      mload(0x40)\n      dup1\n      swap2\n      sub\n      swap1\n      revert\n    tag_261:\n        /* \"@openzeppelin/contracts/access/Ownable.sol\":2026:2027  0 */\n      0x00\n        /* \"@openzeppelin/contracts/access/Ownable.sol\":2006:2028  newOwner != address(0) */\n      0xffffffffffffffffffffffffffffffffffffffff\n      and\n        /* \"@openzeppelin/contracts/access/Ownable.sol\":2006:2014  newOwner */\n      dup2\n        /* \"@openzeppelin/contracts/access/Ownable.sol\":2006:2028  newOwner != address(0) */\n      0xffffffffffffffffffffffffffffffffffffffff\n      and\n      eq\n      iszero\n        /* \"@openzeppelin/contracts/access/Ownable.sol\":1998:2071  require(newOwner != address(0), \"Ownable: new owner is the zero address\") */\n      tag_264\n      jumpi\n      mload(0x40)\n      0x08c379a000000000000000000000000000000000000000000000000000000000\n      dup2\n      mstore\n      0x04\n      add\n      tag_265\n      swap1\n      tag_266\n      jump\t// in\n    tag_265:\n      mload(0x40)\n      dup1\n      swap2\n      sub\n      swap1\n      revert\n    tag_264:\n        /* \"@openzeppelin/contracts/access/Ownable.sol\":2081:2109  _transferOwnership(newOwner) */\n      tag_267\n        /* \"@openzeppelin/contracts/access/Ownable.sol\":2100:2108  newOwner */\n      dup2\n        /* \"@openzeppelin/contracts/access/Ownable.sol\":2081:2099  _transferOwnership */\n      tag_216\n        /* \"@openzeppelin/contracts/access/Ownable.sol\":2081:2109  _transferOwnership(newOwner) */\n      jump\t// in\n    tag_267:\n        /* \"@openzeppelin/contracts/access/Ownable.sol\":1918:2116  function transferOwnership(address newOwner) public virtual onlyOwner {... */\n      pop\n      jump\t// out\n        /* \"contracts/Stakable-2.0.sol\":12585:12681  function stopVoting() external onlyOwner votingStatusTrue {... */\n    tag_111:\n        /* \"@openzeppelin/contracts/access/Ownable.sol\":1259:1271  _msgSender() */\n      tag_269\n        /* \"@openzeppelin/contracts/access/Ownable.sol\":1259:1269  _msgSender */\n      tag_131\n        /* \"@openzeppelin/contracts/access/Ownable.sol\":1259:1271  _msgSender() */\n      jump\t// in\n    tag_269:\n        /* \"@openzeppelin/contracts/access/Ownable.sol\":1248:1271  owner() == _msgSender() */\n      0xffffffffffffffffffffffffffffffffffffffff\n      and\n        /* \"@openzeppelin/contracts/access/Ownable.sol\":1248:1255  owner() */\n      tag_270\n        /* \"@openzeppelin/contracts/access/Ownable.sol\":1248:1253  owner */\n      tag_77\n        /* \"@openzeppelin/contracts/access/Ownable.sol\":1248:1255  owner() */\n      jump\t// in\n    tag_270:\n        /* \"@openzeppelin/contracts/access/Ownable.sol\":1248:1271  owner() == _msgSender() */\n      0xffffffffffffffffffffffffffffffffffffffff\n      and\n      eq\n        /* \"@openzeppelin/contracts/access/Ownable.sol\":1240:1308  require(owner() == _msgSender(), \"Ownable: caller is not the owner\") */\n      tag_271\n      jumpi\n      mload(0x40)\n      0x08c379a000000000000000000000000000000000000000000000000000000000\n      dup2\n      mstore\n      0x04\n      add\n      tag_272\n      swap1\n      tag_135\n      jump\t// in\n    tag_272:\n      mload(0x40)\n      dup1\n      swap2\n      sub\n      swap1\n      revert\n    tag_271:\n        /* \"contracts/Stakable-2.0.sol\":3951:3971  _checkVotingStatus() */\n      tag_274\n        /* \"contracts/Stakable-2.0.sol\":3951:3969  _checkVotingStatus */\n      tag_118\n        /* \"contracts/Stakable-2.0.sol\":3951:3971  _checkVotingStatus() */\n      jump\t// in\n    tag_274:\n        /* \"contracts/Stakable-2.0.sol\":12669:12674  false */\n      0x00\n        /* \"contracts/Stakable-2.0.sol\":12653:12666  _votingStatus */\n      0x06\n      0x00\n        /* \"contracts/Stakable-2.0.sol\":12653:12674  _votingStatus = false */\n      0x0100\n      exp\n      dup2\n      sload\n      dup2\n      0xff\n      mul\n      not\n      and\n      swap1\n      dup4\n      iszero\n      iszero\n      mul\n      or\n      swap1\n      sstore\n      pop\n        /* \"contracts/Stakable-2.0.sol\":12585:12681  function stopVoting() external onlyOwner votingStatusTrue {... */\n      jump\t// out\n        /* \"contracts/Stakable-2.0.sol\":3703:3907  function _checkVotingStatus() internal view {... */\n    tag_118:\n        /* \"contracts/Stakable-2.0.sol\":3824:3837  _votingStatus */\n      0x06\n      0x00\n      swap1\n      sload\n      swap1\n      0x0100\n      exp\n      swap1\n      div\n      0xff\n      and\n        /* \"contracts/Stakable-2.0.sol\":3819:3901  if (!_votingStatus) {... */\n      tag_277\n      jumpi\n        /* \"contracts/Stakable-2.0.sol\":3860:3890  Function__votingNotAvailable() */\n      mload(0x40)\n      0xa1d1891400000000000000000000000000000000000000000000000000000000\n      dup2\n      mstore\n      0x04\n      add\n      mload(0x40)\n      dup1\n      swap2\n      sub\n      swap1\n      revert\n        /* \"contracts/Stakable-2.0.sol\":3819:3901  if (!_votingStatus) {... */\n    tag_277:\n        /* \"contracts/Stakable-2.0.sol\":3703:3907  function _checkVotingStatus() internal view {... */\n      jump\t// out\n        /* \"contracts/Stakable-2.0.sol\":3403:3634  function _isVoter() internal view {... */\n    tag_121:\n        /* \"contracts/Stakable-2.0.sol\":3568:3573  false */\n      0x00\n        /* \"contracts/Stakable-2.0.sol\":3534:3573  voters[msg.sender].votingRight == false */\n      iszero\n      iszero\n        /* \"contracts/Stakable-2.0.sol\":3534:3540  voters */\n      0x09\n        /* \"contracts/Stakable-2.0.sol\":3534:3552  voters[msg.sender] */\n      0x00\n        /* \"contracts/Stakable-2.0.sol\":3541:3551  msg.sender */\n      caller\n        /* \"contracts/Stakable-2.0.sol\":3534:3552  voters[msg.sender] */\n      0xffffffffffffffffffffffffffffffffffffffff\n      and\n      0xffffffffffffffffffffffffffffffffffffffff\n      and\n      dup2\n      mstore\n      0x20\n      add\n      swap1\n      dup2\n      mstore\n      0x20\n      add\n      0x00\n      keccak256\n        /* \"contracts/Stakable-2.0.sol\":3534:3564  voters[msg.sender].votingRight */\n      0x00\n      add\n      0x00\n      swap1\n      sload\n      swap1\n      0x0100\n      exp\n      swap1\n      div\n      0xff\n      and\n        /* \"contracts/Stakable-2.0.sol\":3534:3573  voters[msg.sender].votingRight == false */\n      iszero\n      iszero\n      eq\n        /* \"contracts/Stakable-2.0.sol\":3530:3628  if (voters[msg.sender].votingRight == false) {... */\n      iszero\n      tag_279\n      jumpi\n        /* \"contracts/Stakable-2.0.sol\":3596:3617  Function__notAVoter() */\n      mload(0x40)\n      0x1e567dd400000000000000000000000000000000000000000000000000000000\n      dup2\n      mstore\n      0x04\n      add\n      mload(0x40)\n      dup1\n      swap2\n      sub\n      swap1\n      revert\n        /* \"contracts/Stakable-2.0.sol\":3530:3628  if (voters[msg.sender].votingRight == false) {... */\n    tag_279:\n        /* \"contracts/Stakable-2.0.sol\":3403:3634  function _isVoter() internal view {... */\n      jump\t// out\n        /* \"@openzeppelin/contracts/utils/Context.sol\":640:736  function _msgSender() internal view virtual returns (address) {... */\n    tag_131:\n        /* \"@openzeppelin/contracts/utils/Context.sol\":693:700  address */\n      0x00\n        /* \"@openzeppelin/contracts/utils/Context.sol\":719:729  msg.sender */\n      caller\n        /* \"@openzeppelin/contracts/utils/Context.sol\":712:729  return msg.sender */\n      swap1\n      pop\n        /* \"@openzeppelin/contracts/utils/Context.sol\":640:736  function _msgSender() internal view virtual returns (address) {... */\n      swap1\n      jump\t// out\n        /* \"@openzeppelin/contracts/token/ERC20/utils/SafeERC20.sol\":912:1153  function safeTransferFrom(... */\n    tag_144:\n        /* \"@openzeppelin/contracts/token/ERC20/utils/SafeERC20.sol\":1050:1146  _callOptionalReturn(token, abi.encodeWithSelector(token.transferFrom.selector, from, to, value)) */\n      tag_282\n        /* \"@openzeppelin/contracts/token/ERC20/utils/SafeERC20.sol\":1070:1075  token */\n      dup5\n        /* \"@openzeppelin/contracts/token/ERC20/utils/SafeERC20.sol\":1100:1127  token.transferFrom.selector */\n      shl(0xe0, 0x23b872dd)\n        /* \"@openzeppelin/contracts/token/ERC20/utils/SafeERC20.sol\":1129:1133  from */\n      dup6\n        /* \"@openzeppelin/contracts/token/ERC20/utils/SafeERC20.sol\":1135:1137  to */\n      dup6\n        /* \"@openzeppelin/contracts/token/ERC20/utils/SafeERC20.sol\":1139:1144  value */\n      dup6\n        /* \"@openzeppelin/contracts/token/ERC20/utils/SafeERC20.sol\":1077:1145  abi.encodeWithSelector(token.transferFrom.selector, from, to, value) */\n      add(0x24, mload(0x40))\n      tag_283\n      swap4\n      swap3\n      swap2\n      swap1\n      tag_284\n      jump\t// in\n    tag_283:\n      mload(0x40)\n      0x20\n      dup2\n      dup4\n      sub\n      sub\n      dup2\n      mstore\n      swap1\n      0x40\n      mstore\n      swap1\n      not(0xffffffffffffffffffffffffffffffffffffffffffffffffffffffff)\n      and\n      0x20\n      dup3\n      add\n      dup1\n      mload\n      0xffffffffffffffffffffffffffffffffffffffffffffffffffffffff\n      dup4\n      dup2\n      dup4\n      and\n      or\n      dup4\n      mstore\n      pop\n      pop\n      pop\n      pop\n        /* \"@openzeppelin/contracts/token/ERC20/utils/SafeERC20.sol\":1050:1069  _callOptionalReturn */\n      tag_285\n        /* \"@openzeppelin/contracts/token/ERC20/utils/SafeERC20.sol\":1050:1146  _callOptionalReturn(token, abi.encodeWithSelector(token.transferFrom.selector, from, to, value)) */\n      jump\t// in\n    tag_282:\n        /* \"@openzeppelin/contracts/token/ERC20/utils/SafeERC20.sol\":912:1153  function safeTransferFrom(... */\n      pop\n      pop\n      pop\n      pop\n      jump\t// out\n        /* \"contracts/Stakable-2.0.sol\":6288:6725  function _calculateStakeReward(Stake memory user_stake)... */\n    tag_153:\n        /* \"contracts/Stakable-2.0.sol\":6391:6398  uint256 */\n      0x00\n        /* \"contracts/Stakable-2.0.sol\":6439:6440  0 */\n      dup1\n        /* \"contracts/Stakable-2.0.sol\":6418:6428  user_stake */\n      dup3\n        /* \"contracts/Stakable-2.0.sol\":6418:6435  user_stake.amount */\n      0x00\n      add\n      mload\n        /* \"contracts/Stakable-2.0.sol\":6418:6440  user_stake.amount == 0 */\n      eq\n        /* \"contracts/Stakable-2.0.sol\":6414:6475  if (user_stake.amount == 0) {... */\n      iszero\n      tag_287\n      jumpi\n        /* \"contracts/Stakable-2.0.sol\":6463:6464  0 */\n      0x00\n        /* \"contracts/Stakable-2.0.sol\":6456:6464  return 0 */\n      swap1\n      pop\n      jump(tag_286)\n        /* \"contracts/Stakable-2.0.sol\":6414:6475  if (user_stake.amount == 0) {... */\n    tag_287:\n        /* \"contracts/Stakable-2.0.sol\":6714:6718  1e26 */\n      0x52b7d2dcc80cd2e4000000\n        /* \"contracts/Stakable-2.0.sol\":6667:6710  _calculateStakingDuration(user_stake.since) */\n      tag_288\n        /* \"contracts/Stakable-2.0.sol\":6693:6703  user_stake */\n      dup4\n        /* \"contracts/Stakable-2.0.sol\":6693:6709  user_stake.since */\n      0x20\n      add\n      mload\n        /* \"contracts/Stakable-2.0.sol\":6667:6692  _calculateStakingDuration */\n      tag_289\n        /* \"contracts/Stakable-2.0.sol\":6667:6710  _calculateStakingDuration(user_stake.since) */\n      jump\t// in\n    tag_288:\n        /* \"contracts/Stakable-2.0.sol\":6628:6638  user_stake */\n      dup4\n        /* \"contracts/Stakable-2.0.sol\":6628:6648  user_stake.rewardAPY */\n      0x40\n      add\n      mload\n        /* \"contracts/Stakable-2.0.sol\":6592:6602  user_stake */\n      dup5\n        /* \"contracts/Stakable-2.0.sol\":6592:6609  user_stake.amount */\n      0x00\n      add\n      mload\n        /* \"contracts/Stakable-2.0.sol\":6592:6648  user_stake.amount *... */\n      tag_290\n      swap2\n      swap1\n      tag_156\n      jump\t// in\n    tag_290:\n        /* \"contracts/Stakable-2.0.sol\":6592:6710  user_stake.amount *... */\n      tag_291\n      swap2\n      swap1\n      tag_156\n      jump\t// in\n    tag_291:\n        /* \"contracts/Stakable-2.0.sol\":6591:6718  (user_stake.amount *... */\n      tag_292\n      swap2\n      swap1\n      tag_158\n      jump\t// in\n    tag_292:\n        /* \"contracts/Stakable-2.0.sol\":6572:6718  return... */\n      swap1\n      pop\n        /* \"contracts/Stakable-2.0.sol\":6288:6725  function _calculateStakeReward(Stake memory user_stake)... */\n    tag_286:\n      swap2\n      swap1\n      pop\n      jump\t// out\n        /* \"contracts/Stakable-2.0.sol\":10250:10429  function _calculateAirdrop(uint256 stakeAmount)... */\n    tag_165:\n        /* \"contracts/Stakable-2.0.sol\":10345:10352  uint256 */\n      0x00\n        /* \"contracts/Stakable-2.0.sol\":10414:10422  52 weeks */\n      0x01dfe200\n        /* \"contracts/Stakable-2.0.sol\":10406:10410  1000 */\n      0x03e8\n        /* \"contracts/Stakable-2.0.sol\":10391:10402  airdropRate */\n      sload(0x04)\n        /* \"contracts/Stakable-2.0.sol\":10377:10388  stakeAmount */\n      dup5\n        /* \"contracts/Stakable-2.0.sol\":10377:10402  stakeAmount * airdropRate */\n      tag_294\n      swap2\n      swap1\n      tag_156\n      jump\t// in\n    tag_294:\n        /* \"contracts/Stakable-2.0.sol\":10376:10410  (stakeAmount * airdropRate) / 1000 */\n      tag_295\n      swap2\n      swap1\n      tag_158\n      jump\t// in\n    tag_295:\n        /* \"contracts/Stakable-2.0.sol\":10375:10422  ((stakeAmount * airdropRate) / 1000) / 52 weeks */\n      tag_296\n      swap2\n      swap1\n      tag_158\n      jump\t// in\n    tag_296:\n        /* \"contracts/Stakable-2.0.sol\":10368:10422  return ((stakeAmount * airdropRate) / 1000) / 52 weeks */\n      swap1\n      pop\n        /* \"contracts/Stakable-2.0.sol\":10250:10429  function _calculateAirdrop(uint256 stakeAmount)... */\n      swap2\n      swap1\n      pop\n      jump\t// out\n        /* \"@openzeppelin/contracts/token/ERC20/utils/SafeERC20.sol\":701:906  function safeTransfer(... */\n    tag_195:\n        /* \"@openzeppelin/contracts/token/ERC20/utils/SafeERC20.sol\":813:899  _callOptionalReturn(token, abi.encodeWithSelector(token.transfer.selector, to, value)) */\n      tag_298\n        /* \"@openzeppelin/contracts/token/ERC20/utils/SafeERC20.sol\":833:838  token */\n      dup4\n        /* \"@openzeppelin/contracts/token/ERC20/utils/SafeERC20.sol\":863:886  token.transfer.selector */\n      shl(0xe0, 0xa9059cbb)\n        /* \"@openzeppelin/contracts/token/ERC20/utils/SafeERC20.sol\":888:890  to */\n      dup5\n        /* \"@openzeppelin/contracts/token/ERC20/utils/SafeERC20.sol\":892:897  value */\n      dup5\n        /* \"@openzeppelin/contracts/token/ERC20/utils/SafeERC20.sol\":840:898  abi.encodeWithSelector(token.transfer.selector, to, value) */\n      add(0x24, mload(0x40))\n      tag_299\n      swap3\n      swap2\n      swap1\n      tag_300\n      jump\t// in\n    tag_299:\n      mload(0x40)\n      0x20\n      dup2\n      dup4\n      sub\n      sub\n      dup2\n      mstore\n      swap1\n      0x40\n      mstore\n      swap1\n      not(0xffffffffffffffffffffffffffffffffffffffffffffffffffffffff)\n      and\n      0x20\n      dup3\n      add\n      dup1\n      mload\n      0xffffffffffffffffffffffffffffffffffffffffffffffffffffffff\n      dup4\n      dup2\n      dup4\n      and\n      or\n      dup4\n      mstore\n      pop\n      pop\n      pop\n      pop\n        /* \"@openzeppelin/contracts/token/ERC20/utils/SafeERC20.sol\":813:832  _callOptionalReturn */\n      tag_285\n        /* \"@openzeppelin/contracts/token/ERC20/utils/SafeERC20.sol\":813:899  _callOptionalReturn(token, abi.encodeWithSelector(token.transfer.selector, to, value)) */\n      jump\t// in\n    tag_298:\n        /* \"@openzeppelin/contracts/token/ERC20/utils/SafeERC20.sol\":701:906  function safeTransfer(... */\n      pop\n      pop\n      pop\n      jump\t// out\n        /* \"@openzeppelin/contracts/access/Ownable.sol\":2270:2457  function _transferOwnership(address newOwner) internal virtual {... */\n    tag_216:\n        /* \"@openzeppelin/contracts/access/Ownable.sol\":2343:2359  address oldOwner */\n      0x00\n        /* \"@openzeppelin/contracts/access/Ownable.sol\":2362:2368  _owner */\n      0x01\n      0x00\n      swap1\n      sload\n      swap1\n      0x0100\n      exp\n      swap1\n      div\n      0xffffffffffffffffffffffffffffffffffffffff\n      and\n        /* \"@openzeppelin/contracts/access/Ownable.sol\":2343:2368  address oldOwner = _owner */\n      swap1\n      pop\n        /* \"@openzeppelin/contracts/access/Ownable.sol\":2387:2395  newOwner */\n      dup2\n        /* \"@openzeppelin/contracts/access/Ownable.sol\":2378:2384  _owner */\n      0x01\n      0x00\n        /* \"@openzeppelin/contracts/access/Ownable.sol\":2378:2395  _owner = newOwner */\n      0x0100\n      exp\n      dup2\n      sload\n      dup2\n      0xffffffffffffffffffffffffffffffffffffffff\n      mul\n      not\n      and\n      swap1\n      dup4\n      0xffffffffffffffffffffffffffffffffffffffff\n      and\n      mul\n      or\n      swap1\n      sstore\n      pop\n        /* \"@openzeppelin/contracts/access/Ownable.sol\":2441:2449  newOwner */\n      dup2\n        /* \"@openzeppelin/contracts/access/Ownable.sol\":2410:2450  OwnershipTransferred(oldOwner, newOwner) */\n      0xffffffffffffffffffffffffffffffffffffffff\n      and\n        /* \"@openzeppelin/contracts/access/Ownable.sol\":2431:2439  oldOwner */\n      dup2\n        /* \"@openzeppelin/contracts/access/Ownable.sol\":2410:2450  OwnershipTransferred(oldOwner, newOwner) */\n      0xffffffffffffffffffffffffffffffffffffffff\n      and\n      0x8be0079c531659141344cd1fd0a4f28419497f9722a3daafe3b4186f6b6457e0\n      mload(0x40)\n      mload(0x40)\n      dup1\n      swap2\n      sub\n      swap1\n      log3\n        /* \"@openzeppelin/contracts/access/Ownable.sol\":2333:2457  {... */\n      pop\n        /* \"@openzeppelin/contracts/access/Ownable.sol\":2270:2457  function _transferOwnership(address newOwner) internal virtual {... */\n      pop\n      jump\t// out\n        /* \"contracts/Stakable-2.0.sol\":6731:7090  function _calculateStakingWithPenalty(uint256 amount, uint256 reward)... */\n    tag_237:\n        /* \"contracts/Stakable-2.0.sol\":6848:6855  uint256 */\n      0x00\n        /* \"contracts/Stakable-2.0.sol\":6857:6864  uint256 */\n      dup1\n        /* \"contracts/Stakable-2.0.sol\":6894:6895  0 */\n      0x00\n        /* \"contracts/Stakable-2.0.sol\":6884:6890  amount */\n      dup5\n        /* \"contracts/Stakable-2.0.sol\":6884:6895  amount == 0 */\n      eq\n        /* \"contracts/Stakable-2.0.sol\":6880:6935  if (amount == 0) {... */\n      iszero\n      tag_303\n      jumpi\n        /* \"contracts/Stakable-2.0.sol\":6919:6920  0 */\n      0x00\n        /* \"contracts/Stakable-2.0.sol\":6922:6923  0 */\n      dup1\n        /* \"contracts/Stakable-2.0.sol\":6911:6924  return (0, 0) */\n      swap2\n      pop\n      swap2\n      pop\n      jump(tag_302)\n        /* \"contracts/Stakable-2.0.sol\":6880:6935  if (amount == 0) {... */\n    tag_303:\n        /* \"contracts/Stakable-2.0.sol\":7007:7011  1000 */\n      0x03e8\n        /* \"contracts/Stakable-2.0.sol\":6985:7003  stakingPenaltyRate */\n      sload(0x03)\n        /* \"contracts/Stakable-2.0.sol\":6976:6982  amount */\n      dup6\n        /* \"contracts/Stakable-2.0.sol\":6976:7003  amount * stakingPenaltyRate */\n      tag_304\n      swap2\n      swap1\n      tag_156\n      jump\t// in\n    tag_304:\n        /* \"contracts/Stakable-2.0.sol\":6975:7011  (amount * stakingPenaltyRate) / 1000 */\n      tag_305\n      swap2\n      swap1\n      tag_158\n      jump\t// in\n    tag_305:\n        /* \"contracts/Stakable-2.0.sol\":6965:6971  amount */\n      dup5\n        /* \"contracts/Stakable-2.0.sol\":6965:7012  amount - ((amount * stakingPenaltyRate) / 1000) */\n      tag_306\n      swap2\n      swap1\n      tag_125\n      jump\t// in\n    tag_306:\n        /* \"contracts/Stakable-2.0.sol\":7068:7072  1000 */\n      0x03e8\n        /* \"contracts/Stakable-2.0.sol\":7046:7064  stakingPenaltyRate */\n      sload(0x03)\n        /* \"contracts/Stakable-2.0.sol\":7037:7043  reward */\n      dup6\n        /* \"contracts/Stakable-2.0.sol\":7037:7064  reward * stakingPenaltyRate */\n      tag_307\n      swap2\n      swap1\n      tag_156\n      jump\t// in\n    tag_307:\n        /* \"contracts/Stakable-2.0.sol\":7036:7072  (reward * stakingPenaltyRate) / 1000 */\n      tag_308\n      swap2\n      swap1\n      tag_158\n      jump\t// in\n    tag_308:\n        /* \"contracts/Stakable-2.0.sol\":7026:7032  reward */\n      dup5\n        /* \"contracts/Stakable-2.0.sol\":7026:7073  reward - ((reward * stakingPenaltyRate) / 1000) */\n      tag_309\n      swap2\n      swap1\n      tag_125\n      jump\t// in\n    tag_309:\n        /* \"contracts/Stakable-2.0.sol\":6944:7083  return (... */\n      swap2\n      pop\n      swap2\n      pop\n        /* \"contracts/Stakable-2.0.sol\":6731:7090  function _calculateStakingWithPenalty(uint256 amount, uint256 reward)... */\n    tag_302:\n      swap3\n      pop\n      swap3\n      swap1\n      pop\n      jump\t// out\n        /* \"@openzeppelin/contracts/token/ERC20/utils/SafeERC20.sol\":3207:3913  function _callOptionalReturn(IERC20 token, bytes memory data) private {... */\n    tag_285:\n        /* \"@openzeppelin/contracts/token/ERC20/utils/SafeERC20.sol\":3626:3649  bytes memory returndata */\n      0x00\n        /* \"@openzeppelin/contracts/token/ERC20/utils/SafeERC20.sol\":3652:3721  address(token).functionCall(data, \"SafeERC20: low-level call failed\") */\n      tag_311\n        /* \"@openzeppelin/contracts/token/ERC20/utils/SafeERC20.sol\":3680:3684  data */\n      dup3\n        /* \"@openzeppelin/contracts/token/ERC20/utils/SafeERC20.sol\":3652:3721  address(token).functionCall(data, \"SafeERC20: low-level call failed\") */\n      mload(0x40)\n      dup1\n      0x40\n      add\n      0x40\n      mstore\n      dup1\n      0x20\n      dup2\n      mstore\n      0x20\n      add\n      0x5361666545524332303a206c6f772d6c6576656c2063616c6c206661696c6564\n      dup2\n      mstore\n      pop\n        /* \"@openzeppelin/contracts/token/ERC20/utils/SafeERC20.sol\":3660:3665  token */\n      dup6\n        /* \"@openzeppelin/contracts/token/ERC20/utils/SafeERC20.sol\":3652:3679  address(token).functionCall */\n      0xffffffffffffffffffffffffffffffffffffffff\n      and\n      tag_312\n      swap1\n        /* \"@openzeppelin/contracts/token/ERC20/utils/SafeERC20.sol\":3652:3721  address(token).functionCall(data, \"SafeERC20: low-level call failed\") */\n      swap3\n      swap2\n      swap1\n      0xffffffff\n      and\n      jump\t// in\n    tag_311:\n        /* \"@openzeppelin/contracts/token/ERC20/utils/SafeERC20.sol\":3626:3721  bytes memory returndata = address(token).functionCall(data, \"SafeERC20: low-level call failed\") */\n      swap1\n      pop\n        /* \"@openzeppelin/contracts/token/ERC20/utils/SafeERC20.sol\":3755:3756  0 */\n      0x00\n        /* \"@openzeppelin/contracts/token/ERC20/utils/SafeERC20.sol\":3735:3745  returndata */\n      dup2\n        /* \"@openzeppelin/contracts/token/ERC20/utils/SafeERC20.sol\":3735:3752  returndata.length */\n      mload\n        /* \"@openzeppelin/contracts/token/ERC20/utils/SafeERC20.sol\":3735:3756  returndata.length > 0 */\n      gt\n        /* \"@openzeppelin/contracts/token/ERC20/utils/SafeERC20.sol\":3731:3907  if (returndata.length > 0) {... */\n      iszero\n      tag_313\n      jumpi\n        /* \"@openzeppelin/contracts/token/ERC20/utils/SafeERC20.sol\":3830:3840  returndata */\n      dup1\n        /* \"@openzeppelin/contracts/token/ERC20/utils/SafeERC20.sol\":3819:3849  abi.decode(returndata, (bool)) */\n      dup1\n      0x20\n      add\n      swap1\n      mload\n      dup2\n      add\n      swap1\n      tag_314\n      swap2\n      swap1\n      tag_315\n      jump\t// in\n    tag_314:\n        /* \"@openzeppelin/contracts/token/ERC20/utils/SafeERC20.sol\":3811:3896  require(abi.decode(returndata, (bool)), \"SafeERC20: ERC20 operation did not succeed\") */\n      tag_316\n      jumpi\n      mload(0x40)\n      0x08c379a000000000000000000000000000000000000000000000000000000000\n      dup2\n      mstore\n      0x04\n      add\n      tag_317\n      swap1\n      tag_318\n      jump\t// in\n    tag_317:\n      mload(0x40)\n      dup1\n      swap2\n      sub\n      swap1\n      revert\n    tag_316:\n        /* \"@openzeppelin/contracts/token/ERC20/utils/SafeERC20.sol\":3731:3907  if (returndata.length > 0) {... */\n    tag_313:\n        /* \"@openzeppelin/contracts/token/ERC20/utils/SafeERC20.sol\":3277:3913  {... */\n      pop\n        /* \"@openzeppelin/contracts/token/ERC20/utils/SafeERC20.sol\":3207:3913  function _callOptionalReturn(IERC20 token, bytes memory data) private {... */\n      pop\n      pop\n      jump\t// out\n        /* \"contracts/Stakable-2.0.sol\":6051:6282  function _calculateStakingDuration(uint256 since)... */\n    tag_289:\n        /* \"contracts/Stakable-2.0.sol\":6148:6155  uint256 */\n      0x00\n        /* \"contracts/Stakable-2.0.sol\":6267:6275  365 days */\n      0x01e13380\n        /* \"contracts/Stakable-2.0.sol\":6259:6263  1e24 */\n      0xd3c21bcecceda1000000\n        /* \"contracts/Stakable-2.0.sol\":6250:6255  since */\n      dup4\n        /* \"contracts/Stakable-2.0.sol\":6232:6247  block.timestamp */\n      timestamp\n        /* \"contracts/Stakable-2.0.sol\":6232:6255  block.timestamp - since */\n      tag_320\n      swap2\n      swap1\n      tag_125\n      jump\t// in\n    tag_320:\n        /* \"contracts/Stakable-2.0.sol\":6231:6263  (block.timestamp - since) * 1e24 */\n      tag_321\n      swap2\n      swap1\n      tag_156\n      jump\t// in\n    tag_321:\n        /* \"contracts/Stakable-2.0.sol\":6230:6275  ((block.timestamp - since) * 1e24) / 365 days */\n      tag_322\n      swap2\n      swap1\n      tag_158\n      jump\t// in\n    tag_322:\n        /* \"contracts/Stakable-2.0.sol\":6223:6275  return ((block.timestamp - since) * 1e24) / 365 days */\n      swap1\n      pop\n        /* \"contracts/Stakable-2.0.sol\":6051:6282  function _calculateStakingDuration(uint256 since)... */\n      swap2\n      swap1\n      pop\n      jump\t// out\n        /* \"@openzeppelin/contracts/utils/Address.sol\":3861:4084  function functionCall(... */\n    tag_312:\n        /* \"@openzeppelin/contracts/utils/Address.sol\":3994:4006  bytes memory */\n      0x60\n        /* \"@openzeppelin/contracts/utils/Address.sol\":4025:4077  functionCallWithValue(target, data, 0, errorMessage) */\n      tag_324\n        /* \"@openzeppelin/contracts/utils/Address.sol\":4047:4053  target */\n      dup5\n        /* \"@openzeppelin/contracts/utils/Address.sol\":4055:4059  data */\n      dup5\n        /* \"@openzeppelin/contracts/utils/Address.sol\":4061:4062  0 */\n      0x00\n        /* \"@openzeppelin/contracts/utils/Address.sol\":4064:4076  errorMessage */\n      dup6\n        /* \"@openzeppelin/contracts/utils/Address.sol\":4025:4046  functionCallWithValue */\n      tag_325\n        /* \"@openzeppelin/contracts/utils/Address.sol\":4025:4077  functionCallWithValue(target, data, 0, errorMessage) */\n      jump\t// in\n    tag_324:\n        /* \"@openzeppelin/contracts/utils/Address.sol\":4018:4077  return functionCallWithValue(target, data, 0, errorMessage) */\n      swap1\n      pop\n        /* \"@openzeppelin/contracts/utils/Address.sol\":3861:4084  function functionCall(... */\n      swap4\n      swap3\n      pop\n      pop\n      pop\n      jump\t// out\n        /* \"@openzeppelin/contracts/utils/Address.sol\":4948:5447  function functionCallWithValue(... */\n    tag_325:\n        /* \"@openzeppelin/contracts/utils/Address.sol\":5113:5125  bytes memory */\n      0x60\n        /* \"@openzeppelin/contracts/utils/Address.sol\":5170:5175  value */\n      dup3\n        /* \"@openzeppelin/contracts/utils/Address.sol\":5145:5166  address(this).balance */\n      selfbalance\n        /* \"@openzeppelin/contracts/utils/Address.sol\":5145:5175  address(this).balance >= value */\n      lt\n      iszero\n        /* \"@openzeppelin/contracts/utils/Address.sol\":5137:5218  require(address(this).balance >= value, \"Address: insufficient balance for call\") */\n      tag_327\n      jumpi\n      mload(0x40)\n      0x08c379a000000000000000000000000000000000000000000000000000000000\n      dup2\n      mstore\n      0x04\n      add\n      tag_328\n      swap1\n      tag_329\n      jump\t// in\n    tag_328:\n      mload(0x40)\n      dup1\n      swap2\n      sub\n      swap1\n      revert\n    tag_327:\n        /* \"@openzeppelin/contracts/utils/Address.sol\":5236:5254  isContract(target) */\n      tag_330\n        /* \"@openzeppelin/contracts/utils/Address.sol\":5247:5253  target */\n      dup6\n        /* \"@openzeppelin/contracts/utils/Address.sol\":5236:5246  isContract */\n      tag_331\n        /* \"@openzeppelin/contracts/utils/Address.sol\":5236:5254  isContract(target) */\n      jump\t// in\n    tag_330:\n        /* \"@openzeppelin/contracts/utils/Address.sol\":5228:5288  require(isContract(target), \"Address: call to non-contract\") */\n      tag_332\n      jumpi\n      mload(0x40)\n      0x08c379a000000000000000000000000000000000000000000000000000000000\n      dup2\n      mstore\n      0x04\n      add\n      tag_333\n      swap1\n      tag_334\n      jump\t// in\n    tag_333:\n      mload(0x40)\n      dup1\n      swap2\n      sub\n      swap1\n      revert\n    tag_332:\n        /* \"@openzeppelin/contracts/utils/Address.sol\":5300:5312  bool success */\n      0x00\n        /* \"@openzeppelin/contracts/utils/Address.sol\":5314:5337  bytes memory returndata */\n      dup1\n        /* \"@openzeppelin/contracts/utils/Address.sol\":5341:5347  target */\n      dup7\n        /* \"@openzeppelin/contracts/utils/Address.sol\":5341:5352  target.call */\n      0xffffffffffffffffffffffffffffffffffffffff\n      and\n        /* \"@openzeppelin/contracts/utils/Address.sol\":5360:5365  value */\n      dup6\n        /* \"@openzeppelin/contracts/utils/Address.sol\":5367:5371  data */\n      dup8\n        /* \"@openzeppelin/contracts/utils/Address.sol\":5341:5372  target.call{value: value}(data) */\n      mload(0x40)\n      tag_335\n      swap2\n      swap1\n      tag_336\n      jump\t// in\n    tag_335:\n      0x00\n      mload(0x40)\n      dup1\n      dup4\n      sub\n      dup2\n      dup6\n      dup8\n      gas\n      call\n      swap3\n      pop\n      pop\n      pop\n      returndatasize\n      dup1\n      0x00\n      dup2\n      eq\n      tag_339\n      jumpi\n      mload(0x40)\n      swap2\n      pop\n      and(add(returndatasize, 0x3f), not(0x1f))\n      dup3\n      add\n      0x40\n      mstore\n      returndatasize\n      dup3\n      mstore\n      returndatasize\n      0x00\n      0x20\n      dup5\n      add\n      returndatacopy\n      jump(tag_338)\n    tag_339:\n      0x60\n      swap2\n      pop\n    tag_338:\n      pop\n        /* \"@openzeppelin/contracts/utils/Address.sol\":5299:5372  (bool success, bytes memory returndata) = target.call{value: value}(data) */\n      swap2\n      pop\n      swap2\n      pop\n        /* \"@openzeppelin/contracts/utils/Address.sol\":5389:5440  verifyCallResult(success, returndata, errorMessage) */\n      tag_340\n        /* \"@openzeppelin/contracts/utils/Address.sol\":5406:5413  success */\n      dup3\n        /* \"@openzeppelin/contracts/utils/Address.sol\":5415:5425  returndata */\n      dup3\n        /* \"@openzeppelin/contracts/utils/Address.sol\":5427:5439  errorMessage */\n      dup7\n        /* \"@openzeppelin/contracts/utils/Address.sol\":5389:5405  verifyCallResult */\n      tag_341\n        /* \"@openzeppelin/contracts/utils/Address.sol\":5389:5440  verifyCallResult(success, returndata, errorMessage) */\n      jump\t// in\n    tag_340:\n        /* \"@openzeppelin/contracts/utils/Address.sol\":5382:5440  return verifyCallResult(success, returndata, errorMessage) */\n      swap3\n      pop\n      pop\n      pop\n        /* \"@openzeppelin/contracts/utils/Address.sol\":4948:5447  function functionCallWithValue(... */\n      swap5\n      swap4\n      pop\n      pop\n      pop\n      pop\n      jump\t// out\n        /* \"@openzeppelin/contracts/utils/Address.sol\":1175:1495  function isContract(address account) internal view returns (bool) {... */\n    tag_331:\n        /* \"@openzeppelin/contracts/utils/Address.sol\":1235:1239  bool */\n      0x00\n        /* \"@openzeppelin/contracts/utils/Address.sol\":1487:1488  0 */\n      dup1\n        /* \"@openzeppelin/contracts/utils/Address.sol\":1465:1472  account */\n      dup3\n        /* \"@openzeppelin/contracts/utils/Address.sol\":1465:1484  account.code.length */\n      0xffffffffffffffffffffffffffffffffffffffff\n      and\n      extcodesize\n        /* \"@openzeppelin/contracts/utils/Address.sol\":1465:1488  account.code.length > 0 */\n      gt\n        /* \"@openzeppelin/contracts/utils/Address.sol\":1458:1488  return account.code.length > 0 */\n      swap1\n      pop\n        /* \"@openzeppelin/contracts/utils/Address.sol\":1175:1495  function isContract(address account) internal view returns (bool) {... */\n      swap2\n      swap1\n      pop\n      jump\t// out\n        /* \"@openzeppelin/contracts/utils/Address.sol\":7561:8253  function verifyCallResult(... */\n    tag_341:\n        /* \"@openzeppelin/contracts/utils/Address.sol\":7707:7719  bytes memory */\n      0x60\n        /* \"@openzeppelin/contracts/utils/Address.sol\":7735:7742  success */\n      dup4\n        /* \"@openzeppelin/contracts/utils/Address.sol\":7731:8247  if (success) {... */\n      iszero\n      tag_344\n      jumpi\n        /* \"@openzeppelin/contracts/utils/Address.sol\":7765:7775  returndata */\n      dup3\n        /* \"@openzeppelin/contracts/utils/Address.sol\":7758:7775  return returndata */\n      swap1\n      pop\n      jump(tag_343)\n        /* \"@openzeppelin/contracts/utils/Address.sol\":7731:8247  if (success) {... */\n    tag_344:\n        /* \"@openzeppelin/contracts/utils/Address.sol\":7896:7897  0 */\n      0x00\n        /* \"@openzeppelin/contracts/utils/Address.sol\":7876:7886  returndata */\n      dup4\n        /* \"@openzeppelin/contracts/utils/Address.sol\":7876:7893  returndata.length */\n      mload\n        /* \"@openzeppelin/contracts/utils/Address.sol\":7876:7897  returndata.length > 0 */\n      gt\n        /* \"@openzeppelin/contracts/utils/Address.sol\":7872:8237  if (returndata.length > 0) {... */\n      iszero\n      tag_346\n      jumpi\n        /* \"@openzeppelin/contracts/utils/Address.sol\":8070:8080  returndata */\n      dup3\n        /* \"@openzeppelin/contracts/utils/Address.sol\":8064:8081  mload(returndata) */\n      mload\n        /* \"@openzeppelin/contracts/utils/Address.sol\":8130:8145  returndata_size */\n      dup1\n        /* \"@openzeppelin/contracts/utils/Address.sol\":8117:8127  returndata */\n      dup5\n        /* \"@openzeppelin/contracts/utils/Address.sol\":8113:8115  32 */\n      0x20\n        /* \"@openzeppelin/contracts/utils/Address.sol\":8109:8128  add(32, returndata) */\n      add\n        /* \"@openzeppelin/contracts/utils/Address.sol\":8102:8146  revert(add(32, returndata), returndata_size) */\n      revert\n        /* \"@openzeppelin/contracts/utils/Address.sol\":7872:8237  if (returndata.length > 0) {... */\n    tag_346:\n        /* \"@openzeppelin/contracts/utils/Address.sol\":8209:8221  errorMessage */\n      dup2\n        /* \"@openzeppelin/contracts/utils/Address.sol\":8202:8222  revert(errorMessage) */\n      mload(0x40)\n      0x08c379a000000000000000000000000000000000000000000000000000000000\n      dup2\n      mstore\n      0x04\n      add\n      tag_348\n      swap2\n      swap1\n      tag_349\n      jump\t// in\n    tag_348:\n      mload(0x40)\n      dup1\n      swap2\n      sub\n      swap1\n      revert\n        /* \"@openzeppelin/contracts/utils/Address.sol\":7561:8253  function verifyCallResult(... */\n    tag_343:\n      swap4\n      swap3\n      pop\n      pop\n      pop\n      jump\t// out\n    tag_149:\n      mload(0x40)\n      dup1\n      0x60\n      add\n      0x40\n      mstore\n      dup1\n      0x00\n      dup2\n      mstore\n      0x20\n      add\n      0x00\n      dup2\n      mstore\n      0x20\n      add\n      tag_350\n      tag_351\n      jump\t// in\n    tag_350:\n      dup2\n      mstore\n      pop\n      swap1\n      jump\t// out\n    tag_351:\n      mload(0x40)\n      dup1\n      0xe0\n      add\n      0x40\n      mstore\n      dup1\n      0x00\n      dup2\n      mstore\n      0x20\n      add\n      0x00\n      dup2\n      mstore\n      0x20\n      add\n      0x00\n      dup2\n      mstore\n      0x20\n      add\n      0x00\n      dup2\n      mstore\n      0x20\n      add\n      0x00\n      dup2\n      mstore\n      0x20\n      add\n      0x00\n      dup2\n      mstore\n      0x20\n      add\n      0x00\n      dup2\n      mstore\n      pop\n      swap1\n      jump\t// out\n        /* \"#utility.yul\":88:205   */\n    tag_353:\n        /* \"#utility.yul\":197:198   */\n      0x00\n        /* \"#utility.yul\":194:195   */\n      dup1\n        /* \"#utility.yul\":187:199   */\n      revert\n        /* \"#utility.yul\":334:460   */\n    tag_355:\n        /* \"#utility.yul\":371:378   */\n      0x00\n        /* \"#utility.yul\":411:453   */\n      0xffffffffffffffffffffffffffffffffffffffff\n        /* \"#utility.yul\":404:409   */\n      dup3\n        /* \"#utility.yul\":400:454   */\n      and\n        /* \"#utility.yul\":389:454   */\n      swap1\n      pop\n        /* \"#utility.yul\":334:460   */\n      swap2\n      swap1\n      pop\n      jump\t// out\n        /* \"#utility.yul\":466:562   */\n    tag_356:\n        /* \"#utility.yul\":503:510   */\n      0x00\n        /* \"#utility.yul\":532:556   */\n      tag_399\n        /* \"#utility.yul\":550:555   */\n      dup3\n        /* \"#utility.yul\":532:556   */\n      tag_355\n      jump\t// in\n    tag_399:\n        /* \"#utility.yul\":521:556   */\n      swap1\n      pop\n        /* \"#utility.yul\":466:562   */\n      swap2\n      swap1\n      pop\n      jump\t// out\n        /* \"#utility.yul\":568:690   */\n    tag_357:\n        /* \"#utility.yul\":641:665   */\n      tag_401\n        /* \"#utility.yul\":659:664   */\n      dup2\n        /* \"#utility.yul\":641:665   */\n      tag_356\n      jump\t// in\n    tag_401:\n        /* \"#utility.yul\":634:639   */\n      dup2\n        /* \"#utility.yul\":631:666   */\n      eq\n        /* \"#utility.yul\":621:684   */\n      tag_402\n      jumpi\n        /* \"#utility.yul\":680:681   */\n      0x00\n        /* \"#utility.yul\":677:678   */\n      dup1\n        /* \"#utility.yul\":670:682   */\n      revert\n        /* \"#utility.yul\":621:684   */\n    tag_402:\n        /* \"#utility.yul\":568:690   */\n      pop\n      jump\t// out\n        /* \"#utility.yul\":696:835   */\n    tag_358:\n        /* \"#utility.yul\":742:747   */\n      0x00\n        /* \"#utility.yul\":780:786   */\n      dup2\n        /* \"#utility.yul\":767:787   */\n      calldataload\n        /* \"#utility.yul\":758:787   */\n      swap1\n      pop\n        /* \"#utility.yul\":796:829   */\n      tag_404\n        /* \"#utility.yul\":823:828   */\n      dup2\n        /* \"#utility.yul\":796:829   */\n      tag_357\n      jump\t// in\n    tag_404:\n        /* \"#utility.yul\":696:835   */\n      swap3\n      swap2\n      pop\n      pop\n      jump\t// out\n        /* \"#utility.yul\":841:918   */\n    tag_359:\n        /* \"#utility.yul\":878:885   */\n      0x00\n        /* \"#utility.yul\":907:912   */\n      dup2\n        /* \"#utility.yul\":896:912   */\n      swap1\n      pop\n        /* \"#utility.yul\":841:918   */\n      swap2\n      swap1\n      pop\n      jump\t// out\n        /* \"#utility.yul\":924:1046   */\n    tag_360:\n        /* \"#utility.yul\":997:1021   */\n      tag_407\n        /* \"#utility.yul\":1015:1020   */\n      dup2\n        /* \"#utility.yul\":997:1021   */\n      tag_359\n      jump\t// in\n    tag_407:\n        /* \"#utility.yul\":990:995   */\n      dup2\n        /* \"#utility.yul\":987:1022   */\n      eq\n        /* \"#utility.yul\":977:1040   */\n      tag_408\n      jumpi\n        /* \"#utility.yul\":1036:1037   */\n      0x00\n        /* \"#utility.yul\":1033:1034   */\n      dup1\n        /* \"#utility.yul\":1026:1038   */\n      revert\n        /* \"#utility.yul\":977:1040   */\n    tag_408:\n        /* \"#utility.yul\":924:1046   */\n      pop\n      jump\t// out\n        /* \"#utility.yul\":1052:1191   */\n    tag_361:\n        /* \"#utility.yul\":1098:1103   */\n      0x00\n        /* \"#utility.yul\":1136:1142   */\n      dup2\n        /* \"#utility.yul\":1123:1143   */\n      calldataload\n        /* \"#utility.yul\":1114:1143   */\n      swap1\n      pop\n        /* \"#utility.yul\":1152:1185   */\n      tag_410\n        /* \"#utility.yul\":1179:1184   */\n      dup2\n        /* \"#utility.yul\":1152:1185   */\n      tag_360\n      jump\t// in\n    tag_410:\n        /* \"#utility.yul\":1052:1191   */\n      swap3\n      swap2\n      pop\n      pop\n      jump\t// out\n        /* \"#utility.yul\":1197:1816   */\n    tag_36:\n        /* \"#utility.yul\":1274:1280   */\n      0x00\n        /* \"#utility.yul\":1282:1288   */\n      dup1\n        /* \"#utility.yul\":1290:1296   */\n      0x00\n        /* \"#utility.yul\":1339:1341   */\n      0x60\n        /* \"#utility.yul\":1327:1336   */\n      dup5\n        /* \"#utility.yul\":1318:1325   */\n      dup7\n        /* \"#utility.yul\":1314:1337   */\n      sub\n        /* \"#utility.yul\":1310:1342   */\n      slt\n        /* \"#utility.yul\":1307:1426   */\n      iszero\n      tag_412\n      jumpi\n        /* \"#utility.yul\":1345:1424   */\n      tag_413\n      tag_353\n      jump\t// in\n    tag_413:\n        /* \"#utility.yul\":1307:1426   */\n    tag_412:\n        /* \"#utility.yul\":1465:1466   */\n      0x00\n        /* \"#utility.yul\":1490:1543   */\n      tag_414\n        /* \"#utility.yul\":1535:1542   */\n      dup7\n        /* \"#utility.yul\":1526:1532   */\n      dup3\n        /* \"#utility.yul\":1515:1524   */\n      dup8\n        /* \"#utility.yul\":1511:1533   */\n      add\n        /* \"#utility.yul\":1490:1543   */\n      tag_358\n      jump\t// in\n    tag_414:\n        /* \"#utility.yul\":1480:1543   */\n      swap4\n      pop\n        /* \"#utility.yul\":1436:1553   */\n      pop\n        /* \"#utility.yul\":1592:1594   */\n      0x20\n        /* \"#utility.yul\":1618:1671   */\n      tag_415\n        /* \"#utility.yul\":1663:1670   */\n      dup7\n        /* \"#utility.yul\":1654:1660   */\n      dup3\n        /* \"#utility.yul\":1643:1652   */\n      dup8\n        /* \"#utility.yul\":1639:1661   */\n      add\n        /* \"#utility.yul\":1618:1671   */\n      tag_361\n      jump\t// in\n    tag_415:\n        /* \"#utility.yul\":1608:1671   */\n      swap3\n      pop\n        /* \"#utility.yul\":1563:1681   */\n      pop\n        /* \"#utility.yul\":1720:1722   */\n      0x40\n        /* \"#utility.yul\":1746:1799   */\n      tag_416\n        /* \"#utility.yul\":1791:1798   */\n      dup7\n        /* \"#utility.yul\":1782:1788   */\n      dup3\n        /* \"#utility.yul\":1771:1780   */\n      dup8\n        /* \"#utility.yul\":1767:1789   */\n      add\n        /* \"#utility.yul\":1746:1799   */\n      tag_361\n      jump\t// in\n    tag_416:\n        /* \"#utility.yul\":1736:1799   */\n      swap2\n      pop\n        /* \"#utility.yul\":1691:1809   */\n      pop\n        /* \"#utility.yul\":1197:1816   */\n      swap3\n      pop\n      swap3\n      pop\n      swap3\n      jump\t// out\n        /* \"#utility.yul\":1822:1930   */\n    tag_362:\n        /* \"#utility.yul\":1899:1923   */\n      tag_418\n        /* \"#utility.yul\":1917:1922   */\n      dup2\n        /* \"#utility.yul\":1899:1923   */\n      tag_359\n      jump\t// in\n    tag_418:\n        /* \"#utility.yul\":1894:1897   */\n      dup3\n        /* \"#utility.yul\":1887:1924   */\n      mstore\n        /* \"#utility.yul\":1822:1930   */\n      pop\n      pop\n      jump\t// out\n        /* \"#utility.yul\":1988:3392   */\n    tag_363:\n        /* \"#utility.yul\":2119:2123   */\n      0xe0\n        /* \"#utility.yul\":2114:2117   */\n      dup3\n        /* \"#utility.yul\":2110:2124   */\n      add\n        /* \"#utility.yul\":2208:2212   */\n      0x00\n        /* \"#utility.yul\":2201:2206   */\n      dup3\n        /* \"#utility.yul\":2197:2213   */\n      add\n        /* \"#utility.yul\":2191:2214   */\n      mload\n        /* \"#utility.yul\":2227:2290   */\n      tag_420\n        /* \"#utility.yul\":2284:2288   */\n      0x00\n        /* \"#utility.yul\":2279:2282   */\n      dup6\n        /* \"#utility.yul\":2275:2289   */\n      add\n        /* \"#utility.yul\":2261:2273   */\n      dup3\n        /* \"#utility.yul\":2227:2290   */\n      tag_362\n      jump\t// in\n    tag_420:\n        /* \"#utility.yul\":2134:2300   */\n      pop\n        /* \"#utility.yul\":2383:2387   */\n      0x20\n        /* \"#utility.yul\":2376:2381   */\n      dup3\n        /* \"#utility.yul\":2372:2388   */\n      add\n        /* \"#utility.yul\":2366:2389   */\n      mload\n        /* \"#utility.yul\":2402:2465   */\n      tag_421\n        /* \"#utility.yul\":2459:2463   */\n      0x20\n        /* \"#utility.yul\":2454:2457   */\n      dup6\n        /* \"#utility.yul\":2450:2464   */\n      add\n        /* \"#utility.yul\":2436:2448   */\n      dup3\n        /* \"#utility.yul\":2402:2465   */\n      tag_362\n      jump\t// in\n    tag_421:\n        /* \"#utility.yul\":2310:2475   */\n      pop\n        /* \"#utility.yul\":2562:2566   */\n      0x40\n        /* \"#utility.yul\":2555:2560   */\n      dup3\n        /* \"#utility.yul\":2551:2567   */\n      add\n        /* \"#utility.yul\":2545:2568   */\n      mload\n        /* \"#utility.yul\":2581:2644   */\n      tag_422\n        /* \"#utility.yul\":2638:2642   */\n      0x40\n        /* \"#utility.yul\":2633:2636   */\n      dup6\n        /* \"#utility.yul\":2629:2643   */\n      add\n        /* \"#utility.yul\":2615:2627   */\n      dup3\n        /* \"#utility.yul\":2581:2644   */\n      tag_362\n      jump\t// in\n    tag_422:\n        /* \"#utility.yul\":2485:2654   */\n      pop\n        /* \"#utility.yul\":2743:2747   */\n      0x60\n        /* \"#utility.yul\":2736:2741   */\n      dup3\n        /* \"#utility.yul\":2732:2748   */\n      add\n        /* \"#utility.yul\":2726:2749   */\n      mload\n        /* \"#utility.yul\":2762:2825   */\n      tag_423\n        /* \"#utility.yul\":2819:2823   */\n      0x60\n        /* \"#utility.yul\":2814:2817   */\n      dup6\n        /* \"#utility.yul\":2810:2824   */\n      add\n        /* \"#utility.yul\":2796:2808   */\n      dup3\n        /* \"#utility.yul\":2762:2825   */\n      tag_362\n      jump\t// in\n    tag_423:\n        /* \"#utility.yul\":2664:2835   */\n      pop\n        /* \"#utility.yul\":2922:2926   */\n      0x80\n        /* \"#utility.yul\":2915:2920   */\n      dup3\n        /* \"#utility.yul\":2911:2927   */\n      add\n        /* \"#utility.yul\":2905:2928   */\n      mload\n        /* \"#utility.yul\":2941:3004   */\n      tag_424\n        /* \"#utility.yul\":2998:3002   */\n      0x80\n        /* \"#utility.yul\":2993:2996   */\n      dup6\n        /* \"#utility.yul\":2989:3003   */\n      add\n        /* \"#utility.yul\":2975:2987   */\n      dup3\n        /* \"#utility.yul\":2941:3004   */\n      tag_362\n      jump\t// in\n    tag_424:\n        /* \"#utility.yul\":2845:3014   */\n      pop\n        /* \"#utility.yul\":3108:3112   */\n      0xa0\n        /* \"#utility.yul\":3101:3106   */\n      dup3\n        /* \"#utility.yul\":3097:3113   */\n      add\n        /* \"#utility.yul\":3091:3114   */\n      mload\n        /* \"#utility.yul\":3127:3190   */\n      tag_425\n        /* \"#utility.yul\":3184:3188   */\n      0xa0\n        /* \"#utility.yul\":3179:3182   */\n      dup6\n        /* \"#utility.yul\":3175:3189   */\n      add\n        /* \"#utility.yul\":3161:3173   */\n      dup3\n        /* \"#utility.yul\":3127:3190   */\n      tag_362\n      jump\t// in\n    tag_425:\n        /* \"#utility.yul\":3024:3200   */\n      pop\n        /* \"#utility.yul\":3293:3297   */\n      0xc0\n        /* \"#utility.yul\":3286:3291   */\n      dup3\n        /* \"#utility.yul\":3282:3298   */\n      add\n        /* \"#utility.yul\":3276:3299   */\n      mload\n        /* \"#utility.yul\":3312:3375   */\n      tag_426\n        /* \"#utility.yul\":3369:3373   */\n      0xc0\n        /* \"#utility.yul\":3364:3367   */\n      dup6\n        /* \"#utility.yul\":3360:3374   */\n      add\n        /* \"#utility.yul\":3346:3358   */\n      dup3\n        /* \"#utility.yul\":3312:3375   */\n      tag_362\n      jump\t// in\n    tag_426:\n        /* \"#utility.yul\":3210:3385   */\n      pop\n        /* \"#utility.yul\":2088:3392   */\n      pop\n        /* \"#utility.yul\":1988:3392   */\n      pop\n      pop\n      jump\t// out\n        /* \"#utility.yul\":3468:4219   */\n    tag_364:\n        /* \"#utility.yul\":3627:3633   */\n      0x0120\n        /* \"#utility.yul\":3622:3625   */\n      dup3\n        /* \"#utility.yul\":3618:3634   */\n      add\n        /* \"#utility.yul\":3724:3728   */\n      0x00\n        /* \"#utility.yul\":3717:3722   */\n      dup3\n        /* \"#utility.yul\":3713:3729   */\n      add\n        /* \"#utility.yul\":3707:3730   */\n      mload\n        /* \"#utility.yul\":3743:3806   */\n      tag_428\n        /* \"#utility.yul\":3800:3804   */\n      0x00\n        /* \"#utility.yul\":3795:3798   */\n      dup6\n        /* \"#utility.yul\":3791:3805   */\n      add\n        /* \"#utility.yul\":3777:3789   */\n      dup3\n        /* \"#utility.yul\":3743:3806   */\n      tag_362\n      jump\t// in\n    tag_428:\n        /* \"#utility.yul\":3644:3816   */\n      pop\n        /* \"#utility.yul\":3901:3905   */\n      0x20\n        /* \"#utility.yul\":3894:3899   */\n      dup3\n        /* \"#utility.yul\":3890:3906   */\n      add\n        /* \"#utility.yul\":3884:3907   */\n      mload\n        /* \"#utility.yul\":3920:3983   */\n      tag_429\n        /* \"#utility.yul\":3977:3981   */\n      0x20\n        /* \"#utility.yul\":3972:3975   */\n      dup6\n        /* \"#utility.yul\":3968:3982   */\n      add\n        /* \"#utility.yul\":3954:3966   */\n      dup3\n        /* \"#utility.yul\":3920:3983   */\n      tag_362\n      jump\t// in\n    tag_429:\n        /* \"#utility.yul\":3826:3993   */\n      pop\n        /* \"#utility.yul\":4076:4080   */\n      0x40\n        /* \"#utility.yul\":4069:4074   */\n      dup3\n        /* \"#utility.yul\":4065:4081   */\n      add\n        /* \"#utility.yul\":4059:4082   */\n      mload\n        /* \"#utility.yul\":4095:4202   */\n      tag_430\n        /* \"#utility.yul\":4196:4200   */\n      0x40\n        /* \"#utility.yul\":4191:4194   */\n      dup6\n        /* \"#utility.yul\":4187:4201   */\n      add\n        /* \"#utility.yul\":4173:4185   */\n      dup3\n        /* \"#utility.yul\":4095:4202   */\n      tag_363\n      jump\t// in\n    tag_430:\n        /* \"#utility.yul\":4003:4212   */\n      pop\n        /* \"#utility.yul\":3596:4219   */\n      pop\n        /* \"#utility.yul\":3468:4219   */\n      pop\n      pop\n      jump\t// out\n        /* \"#utility.yul\":4225:4572   */\n    tag_41:\n        /* \"#utility.yul\":4380:4384   */\n      0x00\n        /* \"#utility.yul\":4418:4421   */\n      0x0120\n        /* \"#utility.yul\":4407:4416   */\n      dup3\n        /* \"#utility.yul\":4403:4422   */\n      add\n        /* \"#utility.yul\":4395:4422   */\n      swap1\n      pop\n        /* \"#utility.yul\":4432:4565   */\n      tag_432\n        /* \"#utility.yul\":4562:4563   */\n      0x00\n        /* \"#utility.yul\":4551:4560   */\n      dup4\n        /* \"#utility.yul\":4547:4564   */\n      add\n        /* \"#utility.yul\":4538:4544   */\n      dup5\n        /* \"#utility.yul\":4432:4565   */\n      tag_364\n      jump\t// in\n    tag_432:\n        /* \"#utility.yul\":4225:4572   */\n      swap3\n      swap2\n      pop\n      pop\n      jump\t// out\n        /* \"#utility.yul\":4578:4907   */\n    tag_46:\n        /* \"#utility.yul\":4637:4643   */\n      0x00\n        /* \"#utility.yul\":4686:4688   */\n      0x20\n        /* \"#utility.yul\":4674:4683   */\n      dup3\n        /* \"#utility.yul\":4665:4672   */\n      dup5\n        /* \"#utility.yul\":4661:4684   */\n      sub\n        /* \"#utility.yul\":4657:4689   */\n      slt\n        /* \"#utility.yul\":4654:4773   */\n      iszero\n      tag_434\n      jumpi\n        /* \"#utility.yul\":4692:4771   */\n      tag_435\n      tag_353\n      jump\t// in\n    tag_435:\n        /* \"#utility.yul\":4654:4773   */\n    tag_434:\n        /* \"#utility.yul\":4812:4813   */\n      0x00\n        /* \"#utility.yul\":4837:4890   */\n      tag_436\n        /* \"#utility.yul\":4882:4889   */\n      dup5\n        /* \"#utility.yul\":4873:4879   */\n      dup3\n        /* \"#utility.yul\":4862:4871   */\n      dup6\n        /* \"#utility.yul\":4858:4880   */\n      add\n        /* \"#utility.yul\":4837:4890   */\n      tag_358\n      jump\t// in\n    tag_436:\n        /* \"#utility.yul\":4827:4890   */\n      swap2\n      pop\n        /* \"#utility.yul\":4783:4900   */\n      pop\n        /* \"#utility.yul\":4578:4907   */\n      swap3\n      swap2\n      pop\n      pop\n      jump\t// out\n        /* \"#utility.yul\":4913:5003   */\n    tag_365:\n        /* \"#utility.yul\":4947:4954   */\n      0x00\n        /* \"#utility.yul\":4990:4995   */\n      dup2\n        /* \"#utility.yul\":4983:4996   */\n      iszero\n        /* \"#utility.yul\":4976:4997   */\n      iszero\n        /* \"#utility.yul\":4965:4997   */\n      swap1\n      pop\n        /* \"#utility.yul\":4913:5003   */\n      swap2\n      swap1\n      pop\n      jump\t// out\n        /* \"#utility.yul\":5009:5118   */\n    tag_366:\n        /* \"#utility.yul\":5090:5111   */\n      tag_439\n        /* \"#utility.yul\":5105:5110   */\n      dup2\n        /* \"#utility.yul\":5090:5111   */\n      tag_365\n      jump\t// in\n    tag_439:\n        /* \"#utility.yul\":5085:5088   */\n      dup3\n        /* \"#utility.yul\":5078:5112   */\n      mstore\n        /* \"#utility.yul\":5009:5118   */\n      pop\n      pop\n      jump\t// out\n        /* \"#utility.yul\":5124:5432   */\n    tag_49:\n        /* \"#utility.yul\":5233:5237   */\n      0x00\n        /* \"#utility.yul\":5271:5273   */\n      0x40\n        /* \"#utility.yul\":5260:5269   */\n      dup3\n        /* \"#utility.yul\":5256:5274   */\n      add\n        /* \"#utility.yul\":5248:5274   */\n      swap1\n      pop\n        /* \"#utility.yul\":5284:5349   */\n      tag_441\n        /* \"#utility.yul\":5346:5347   */\n      0x00\n        /* \"#utility.yul\":5335:5344   */\n      dup4\n        /* \"#utility.yul\":5331:5348   */\n      add\n        /* \"#utility.yul\":5322:5328   */\n      dup6\n        /* \"#utility.yul\":5284:5349   */\n      tag_366\n      jump\t// in\n    tag_441:\n        /* \"#utility.yul\":5359:5425   */\n      tag_442\n        /* \"#utility.yul\":5421:5423   */\n      0x20\n        /* \"#utility.yul\":5410:5419   */\n      dup4\n        /* \"#utility.yul\":5406:5424   */\n      add\n        /* \"#utility.yul\":5397:5403   */\n      dup5\n        /* \"#utility.yul\":5359:5425   */\n      tag_366\n      jump\t// in\n    tag_442:\n        /* \"#utility.yul\":5124:5432   */\n      swap4\n      swap3\n      pop\n      pop\n      pop\n      jump\t// out\n        /* \"#utility.yul\":5438:5556   */\n    tag_367:\n        /* \"#utility.yul\":5525:5549   */\n      tag_444\n        /* \"#utility.yul\":5543:5548   */\n      dup2\n        /* \"#utility.yul\":5525:5549   */\n      tag_359\n      jump\t// in\n    tag_444:\n        /* \"#utility.yul\":5520:5523   */\n      dup3\n        /* \"#utility.yul\":5513:5550   */\n      mstore\n        /* \"#utility.yul\":5438:5556   */\n      pop\n      pop\n      jump\t// out\n        /* \"#utility.yul\":5562:5784   */\n    tag_53:\n        /* \"#utility.yul\":5655:5659   */\n      0x00\n        /* \"#utility.yul\":5693:5695   */\n      0x20\n        /* \"#utility.yul\":5682:5691   */\n      dup3\n        /* \"#utility.yul\":5678:5696   */\n      add\n        /* \"#utility.yul\":5670:5696   */\n      swap1\n      pop\n        /* \"#utility.yul\":5706:5777   */\n      tag_446\n        /* \"#utility.yul\":5774:5775   */\n      0x00\n        /* \"#utility.yul\":5763:5772   */\n      dup4\n        /* \"#utility.yul\":5759:5776   */\n      add\n        /* \"#utility.yul\":5750:5756   */\n      dup5\n        /* \"#utility.yul\":5706:5777   */\n      tag_367\n      jump\t// in\n    tag_446:\n        /* \"#utility.yul\":5562:5784   */\n      swap3\n      swap2\n      pop\n      pop\n      jump\t// out\n        /* \"#utility.yul\":5790:6000   */\n    tag_62:\n        /* \"#utility.yul\":5877:5881   */\n      0x00\n        /* \"#utility.yul\":5915:5917   */\n      0x20\n        /* \"#utility.yul\":5904:5913   */\n      dup3\n        /* \"#utility.yul\":5900:5918   */\n      add\n        /* \"#utility.yul\":5892:5918   */\n      swap1\n      pop\n        /* \"#utility.yul\":5928:5993   */\n      tag_448\n        /* \"#utility.yul\":5990:5991   */\n      0x00\n        /* \"#utility.yul\":5979:5988   */\n      dup4\n        /* \"#utility.yul\":5975:5992   */\n      add\n        /* \"#utility.yul\":5966:5972   */\n      dup5\n        /* \"#utility.yul\":5928:5993   */\n      tag_366\n      jump\t// in\n    tag_448:\n        /* \"#utility.yul\":5790:6000   */\n      swap3\n      swap2\n      pop\n      pop\n      jump\t// out\n        /* \"#utility.yul\":6006:6335   */\n    tag_70:\n        /* \"#utility.yul\":6065:6071   */\n      0x00\n        /* \"#utility.yul\":6114:6116   */\n      0x20\n        /* \"#utility.yul\":6102:6111   */\n      dup3\n        /* \"#utility.yul\":6093:6100   */\n      dup5\n        /* \"#utility.yul\":6089:6112   */\n      sub\n        /* \"#utility.yul\":6085:6117   */\n      slt\n        /* \"#utility.yul\":6082:6201   */\n      iszero\n      tag_450\n      jumpi\n        /* \"#utility.yul\":6120:6199   */\n      tag_451\n      tag_353\n      jump\t// in\n    tag_451:\n        /* \"#utility.yul\":6082:6201   */\n    tag_450:\n        /* \"#utility.yul\":6240:6241   */\n      0x00\n        /* \"#utility.yul\":6265:6318   */\n      tag_452\n        /* \"#utility.yul\":6310:6317   */\n      dup5\n        /* \"#utility.yul\":6301:6307   */\n      dup3\n        /* \"#utility.yul\":6290:6299   */\n      dup6\n        /* \"#utility.yul\":6286:6308   */\n      add\n        /* \"#utility.yul\":6265:6318   */\n      tag_361\n      jump\t// in\n    tag_452:\n        /* \"#utility.yul\":6255:6318   */\n      swap2\n      pop\n        /* \"#utility.yul\":6211:6328   */\n      pop\n        /* \"#utility.yul\":6006:6335   */\n      swap3\n      swap2\n      pop\n      pop\n      jump\t// out\n        /* \"#utility.yul\":6341:6459   */\n    tag_368:\n        /* \"#utility.yul\":6428:6452   */\n      tag_454\n        /* \"#utility.yul\":6446:6451   */\n      dup2\n        /* \"#utility.yul\":6428:6452   */\n      tag_356\n      jump\t// in\n    tag_454:\n        /* \"#utility.yul\":6423:6426   */\n      dup3\n        /* \"#utility.yul\":6416:6453   */\n      mstore\n        /* \"#utility.yul\":6341:6459   */\n      pop\n      pop\n      jump\t// out\n        /* \"#utility.yul\":6465:6687   */\n    tag_75:\n        /* \"#utility.yul\":6558:6562   */\n      0x00\n        /* \"#utility.yul\":6596:6598   */\n      0x20\n        /* \"#utility.yul\":6585:6594   */\n      dup3\n        /* \"#utility.yul\":6581:6599   */\n      add\n        /* \"#utility.yul\":6573:6599   */\n      swap1\n      pop\n        /* \"#utility.yul\":6609:6680   */\n      tag_456\n        /* \"#utility.yul\":6677:6678   */\n      0x00\n        /* \"#utility.yul\":6666:6675   */\n      dup4\n        /* \"#utility.yul\":6662:6679   */\n      add\n        /* \"#utility.yul\":6653:6659   */\n      dup5\n        /* \"#utility.yul\":6609:6680   */\n      tag_368\n      jump\t// in\n    tag_456:\n        /* \"#utility.yul\":6465:6687   */\n      swap3\n      swap2\n      pop\n      pop\n      jump\t// out\n        /* \"#utility.yul\":6693:6862   */\n    tag_369:\n        /* \"#utility.yul\":6777:6788   */\n      0x00\n        /* \"#utility.yul\":6811:6817   */\n      dup3\n        /* \"#utility.yul\":6806:6809   */\n      dup3\n        /* \"#utility.yul\":6799:6818   */\n      mstore\n        /* \"#utility.yul\":6851:6855   */\n      0x20\n        /* \"#utility.yul\":6846:6849   */\n      dup3\n        /* \"#utility.yul\":6842:6856   */\n      add\n        /* \"#utility.yul\":6827:6856   */\n      swap1\n      pop\n        /* \"#utility.yul\":6693:6862   */\n      swap3\n      swap2\n      pop\n      pop\n      jump\t// out\n        /* \"#utility.yul\":6868:7049   */\n    tag_370:\n        /* \"#utility.yul\":7008:7041   */\n      0x5265656e7472616e637947756172643a207265656e7472616e742063616c6c00\n        /* \"#utility.yul\":7004:7005   */\n      0x00\n        /* \"#utility.yul\":6996:7002   */\n      dup3\n        /* \"#utility.yul\":6992:7006   */\n      add\n        /* \"#utility.yul\":6985:7042   */\n      mstore\n        /* \"#utility.yul\":6868:7049   */\n      pop\n      jump\t// out\n        /* \"#utility.yul\":7055:7421   */\n    tag_371:\n        /* \"#utility.yul\":7197:7200   */\n      0x00\n        /* \"#utility.yul\":7218:7285   */\n      tag_460\n        /* \"#utility.yul\":7282:7284   */\n      0x1f\n        /* \"#utility.yul\":7277:7280   */\n      dup4\n        /* \"#utility.yul\":7218:7285   */\n      tag_369\n      jump\t// in\n    tag_460:\n        /* \"#utility.yul\":7211:7285   */\n      swap2\n      pop\n        /* \"#utility.yul\":7294:7387   */\n      tag_461\n        /* \"#utility.yul\":7383:7386   */\n      dup3\n        /* \"#utility.yul\":7294:7387   */\n      tag_370\n      jump\t// in\n    tag_461:\n        /* \"#utility.yul\":7412:7414   */\n      0x20\n        /* \"#utility.yul\":7407:7410   */\n      dup3\n        /* \"#utility.yul\":7403:7415   */\n      add\n        /* \"#utility.yul\":7396:7415   */\n      swap1\n      pop\n        /* \"#utility.yul\":7055:7421   */\n      swap2\n      swap1\n      pop\n      jump\t// out\n        /* \"#utility.yul\":7427:7846   */\n    tag_115:\n        /* \"#utility.yul\":7593:7597   */\n      0x00\n        /* \"#utility.yul\":7631:7633   */\n      0x20\n        /* \"#utility.yul\":7620:7629   */\n      dup3\n        /* \"#utility.yul\":7616:7634   */\n      add\n        /* \"#utility.yul\":7608:7634   */\n      swap1\n      pop\n        /* \"#utility.yul\":7680:7689   */\n      dup2\n        /* \"#utility.yul\":7674:7678   */\n      dup2\n        /* \"#utility.yul\":7670:7690   */\n      sub\n        /* \"#utility.yul\":7666:7667   */\n      0x00\n        /* \"#utility.yul\":7655:7664   */\n      dup4\n        /* \"#utility.yul\":7651:7668   */\n      add\n        /* \"#utility.yul\":7644:7691   */\n      mstore\n        /* \"#utility.yul\":7708:7839   */\n      tag_463\n        /* \"#utility.yul\":7834:7838   */\n      dup2\n        /* \"#utility.yul\":7708:7839   */\n      tag_371\n      jump\t// in\n    tag_463:\n        /* \"#utility.yul\":7700:7839   */\n      swap1\n      pop\n        /* \"#utility.yul\":7427:7846   */\n      swap2\n      swap1\n      pop\n      jump\t// out\n        /* \"#utility.yul\":7852:8032   */\n    tag_372:\n        /* \"#utility.yul\":7900:7977   */\n      0x4e487b7100000000000000000000000000000000000000000000000000000000\n        /* \"#utility.yul\":7897:7898   */\n      0x00\n        /* \"#utility.yul\":7890:7978   */\n      mstore\n        /* \"#utility.yul\":7997:8001   */\n      0x11\n        /* \"#utility.yul\":7994:7995   */\n      0x04\n        /* \"#utility.yul\":7987:8002   */\n      mstore\n        /* \"#utility.yul\":8021:8025   */\n      0x24\n        /* \"#utility.yul\":8018:8019   */\n      0x00\n        /* \"#utility.yul\":8011:8026   */\n      revert\n        /* \"#utility.yul\":8038:8229   */\n    tag_125:\n        /* \"#utility.yul\":8078:8082   */\n      0x00\n        /* \"#utility.yul\":8098:8118   */\n      tag_466\n        /* \"#utility.yul\":8116:8117   */\n      dup3\n        /* \"#utility.yul\":8098:8118   */\n      tag_359\n      jump\t// in\n    tag_466:\n        /* \"#utility.yul\":8093:8118   */\n      swap2\n      pop\n        /* \"#utility.yul\":8132:8152   */\n      tag_467\n        /* \"#utility.yul\":8150:8151   */\n      dup4\n        /* \"#utility.yul\":8132:8152   */\n      tag_359\n      jump\t// in\n    tag_467:\n        /* \"#utility.yul\":8127:8152   */\n      swap3\n      pop\n        /* \"#utility.yul\":8171:8172   */\n      dup3\n        /* \"#utility.yul\":8168:8169   */\n      dup3\n        /* \"#utility.yul\":8165:8173   */\n      lt\n        /* \"#utility.yul\":8162:8196   */\n      iszero\n      tag_468\n      jumpi\n        /* \"#utility.yul\":8176:8194   */\n      tag_469\n      tag_372\n      jump\t// in\n    tag_469:\n        /* \"#utility.yul\":8162:8196   */\n    tag_468:\n        /* \"#utility.yul\":8221:8222   */\n      dup3\n        /* \"#utility.yul\":8218:8219   */\n      dup3\n        /* \"#utility.yul\":8214:8223   */\n      sub\n        /* \"#utility.yul\":8206:8223   */\n      swap1\n      pop\n        /* \"#utility.yul\":8038:8229   */\n      swap3\n      swap2\n      pop\n      pop\n      jump\t// out\n        /* \"#utility.yul\":8235:8417   */\n    tag_373:\n        /* \"#utility.yul\":8375:8409   */\n      0x4f776e61626c653a2063616c6c6572206973206e6f7420746865206f776e6572\n        /* \"#utility.yul\":8371:8372   */\n      0x00\n        /* \"#utility.yul\":8363:8369   */\n      dup3\n        /* \"#utility.yul\":8359:8373   */\n      add\n        /* \"#utility.yul\":8352:8410   */\n      mstore\n        /* \"#utility.yul\":8235:8417   */\n      pop\n      jump\t// out\n        /* \"#utility.yul\":8423:8789   */\n    tag_374:\n        /* \"#utility.yul\":8565:8568   */\n      0x00\n        /* \"#utility.yul\":8586:8653   */\n      tag_472\n        /* \"#utility.yul\":8650:8652   */\n      0x20\n        /* \"#utility.yul\":8645:8648   */\n      dup4\n        /* \"#utility.yul\":8586:8653   */\n      tag_369\n      jump\t// in\n    tag_472:\n        /* \"#utility.yul\":8579:8653   */\n      swap2\n      pop\n        /* \"#utility.yul\":8662:8755   */\n      tag_473\n        /* \"#utility.yul\":8751:8754   */\n      dup3\n        /* \"#utility.yul\":8662:8755   */\n      tag_373\n      jump\t// in\n    tag_473:\n        /* \"#utility.yul\":8780:8782   */\n      0x20\n        /* \"#utility.yul\":8775:8778   */\n      dup3\n        /* \"#utility.yul\":8771:8783   */\n      add\n        /* \"#utility.yul\":8764:8783   */\n      swap1\n      pop\n        /* \"#utility.yul\":8423:8789   */\n      swap2\n      swap1\n      pop\n      jump\t// out\n        /* \"#utility.yul\":8795:9214   */\n    tag_135:\n        /* \"#utility.yul\":8961:8965   */\n      0x00\n        /* \"#utility.yul\":8999:9001   */\n      0x20\n        /* \"#utility.yul\":8988:8997   */\n      dup3\n        /* \"#utility.yul\":8984:9002   */\n      add\n        /* \"#utility.yul\":8976:9002   */\n      swap1\n      pop\n        /* \"#utility.yul\":9048:9057   */\n      dup2\n        /* \"#utility.yul\":9042:9046   */\n      dup2\n        /* \"#utility.yul\":9038:9058   */\n      sub\n        /* \"#utility.yul\":9034:9035   */\n      0x00\n        /* \"#utility.yul\":9023:9032   */\n      dup4\n        /* \"#utility.yul\":9019:9036   */\n      add\n        /* \"#utility.yul\":9012:9059   */\n      mstore\n        /* \"#utility.yul\":9076:9207   */\n      tag_475\n        /* \"#utility.yul\":9202:9206   */\n      dup2\n        /* \"#utility.yul\":9076:9207   */\n      tag_374\n      jump\t// in\n    tag_475:\n        /* \"#utility.yul\":9068:9207   */\n      swap1\n      pop\n        /* \"#utility.yul\":8795:9214   */\n      swap2\n      swap1\n      pop\n      jump\t// out\n        /* \"#utility.yul\":9220:9525   */\n    tag_141:\n        /* \"#utility.yul\":9260:9263   */\n      0x00\n        /* \"#utility.yul\":9279:9299   */\n      tag_477\n        /* \"#utility.yul\":9297:9298   */\n      dup3\n        /* \"#utility.yul\":9279:9299   */\n      tag_359\n      jump\t// in\n    tag_477:\n        /* \"#utility.yul\":9274:9299   */\n      swap2\n      pop\n        /* \"#utility.yul\":9313:9333   */\n      tag_478\n        /* \"#utility.yul\":9331:9332   */\n      dup4\n        /* \"#utility.yul\":9313:9333   */\n      tag_359\n      jump\t// in\n    tag_478:\n        /* \"#utility.yul\":9308:9333   */\n      swap3\n      pop\n        /* \"#utility.yul\":9467:9468   */\n      dup3\n        /* \"#utility.yul\":9399:9465   */\n      0xffffffffffffffffffffffffffffffffffffffffffffffffffffffffffffffff\n        /* \"#utility.yul\":9395:9469   */\n      sub\n        /* \"#utility.yul\":9392:9393   */\n      dup3\n        /* \"#utility.yul\":9389:9470   */\n      gt\n        /* \"#utility.yul\":9386:9493   */\n      iszero\n      tag_479\n      jumpi\n        /* \"#utility.yul\":9473:9491   */\n      tag_480\n      tag_372\n      jump\t// in\n    tag_480:\n        /* \"#utility.yul\":9386:9493   */\n    tag_479:\n        /* \"#utility.yul\":9517:9518   */\n      dup3\n        /* \"#utility.yul\":9514:9515   */\n      dup3\n        /* \"#utility.yul\":9510:9519   */\n      add\n        /* \"#utility.yul\":9503:9519   */\n      swap1\n      pop\n        /* \"#utility.yul\":9220:9525   */\n      swap3\n      swap2\n      pop\n      pop\n      jump\t// out\n        /* \"#utility.yul\":9531:9973   */\n    tag_147:\n        /* \"#utility.yul\":9680:9684   */\n      0x00\n        /* \"#utility.yul\":9718:9720   */\n      0x60\n        /* \"#utility.yul\":9707:9716   */\n      dup3\n        /* \"#utility.yul\":9703:9721   */\n      add\n        /* \"#utility.yul\":9695:9721   */\n      swap1\n      pop\n        /* \"#utility.yul\":9731:9802   */\n      tag_482\n        /* \"#utility.yul\":9799:9800   */\n      0x00\n        /* \"#utility.yul\":9788:9797   */\n      dup4\n        /* \"#utility.yul\":9784:9801   */\n      add\n        /* \"#utility.yul\":9775:9781   */\n      dup7\n        /* \"#utility.yul\":9731:9802   */\n      tag_367\n      jump\t// in\n    tag_482:\n        /* \"#utility.yul\":9812:9884   */\n      tag_483\n        /* \"#utility.yul\":9880:9882   */\n      0x20\n        /* \"#utility.yul\":9869:9878   */\n      dup4\n        /* \"#utility.yul\":9865:9883   */\n      add\n        /* \"#utility.yul\":9856:9862   */\n      dup6\n        /* \"#utility.yul\":9812:9884   */\n      tag_367\n      jump\t// in\n    tag_483:\n        /* \"#utility.yul\":9894:9966   */\n      tag_484\n        /* \"#utility.yul\":9962:9964   */\n      0x40\n        /* \"#utility.yul\":9951:9960   */\n      dup4\n        /* \"#utility.yul\":9947:9965   */\n      add\n        /* \"#utility.yul\":9938:9944   */\n      dup5\n        /* \"#utility.yul\":9894:9966   */\n      tag_367\n      jump\t// in\n    tag_484:\n        /* \"#utility.yul\":9531:9973   */\n      swap5\n      swap4\n      pop\n      pop\n      pop\n      pop\n      jump\t// out\n        /* \"#utility.yul\":9979:10327   */\n    tag_156:\n        /* \"#utility.yul\":10019:10026   */\n      0x00\n        /* \"#utility.yul\":10042:10062   */\n      tag_486\n        /* \"#utility.yul\":10060:10061   */\n      dup3\n        /* \"#utility.yul\":10042:10062   */\n      tag_359\n      jump\t// in\n    tag_486:\n        /* \"#utility.yul\":10037:10062   */\n      swap2\n      pop\n        /* \"#utility.yul\":10076:10096   */\n      tag_487\n        /* \"#utility.yul\":10094:10095   */\n      dup4\n        /* \"#utility.yul\":10076:10096   */\n      tag_359\n      jump\t// in\n    tag_487:\n        /* \"#utility.yul\":10071:10096   */\n      swap3\n      pop\n        /* \"#utility.yul\":10264:10265   */\n      dup2\n        /* \"#utility.yul\":10196:10262   */\n      0xffffffffffffffffffffffffffffffffffffffffffffffffffffffffffffffff\n        /* \"#utility.yul\":10192:10266   */\n      div\n        /* \"#utility.yul\":10189:10190   */\n      dup4\n        /* \"#utility.yul\":10186:10267   */\n      gt\n        /* \"#utility.yul\":10181:10182   */\n      dup3\n        /* \"#utility.yul\":10174:10183   */\n      iszero\n        /* \"#utility.yul\":10167:10184   */\n      iszero\n        /* \"#utility.yul\":10163:10268   */\n      and\n        /* \"#utility.yul\":10160:10291   */\n      iszero\n      tag_488\n      jumpi\n        /* \"#utility.yul\":10271:10289   */\n      tag_489\n      tag_372\n      jump\t// in\n    tag_489:\n        /* \"#utility.yul\":10160:10291   */\n    tag_488:\n        /* \"#utility.yul\":10319:10320   */\n      dup3\n        /* \"#utility.yul\":10316:10317   */\n      dup3\n        /* \"#utility.yul\":10312:10321   */\n      mul\n        /* \"#utility.yul\":10301:10321   */\n      swap1\n      pop\n        /* \"#utility.yul\":9979:10327   */\n      swap3\n      swap2\n      pop\n      pop\n      jump\t// out\n        /* \"#utility.yul\":10333:10513   */\n    tag_375:\n        /* \"#utility.yul\":10381:10458   */\n      0x4e487b7100000000000000000000000000000000000000000000000000000000\n        /* \"#utility.yul\":10378:10379   */\n      0x00\n        /* \"#utility.yul\":10371:10459   */\n      mstore\n        /* \"#utility.yul\":10478:10482   */\n      0x12\n        /* \"#utility.yul\":10475:10476   */\n      0x04\n        /* \"#utility.yul\":10468:10483   */\n      mstore\n        /* \"#utility.yul\":10502:10506   */\n      0x24\n        /* \"#utility.yul\":10499:10500   */\n      0x00\n        /* \"#utility.yul\":10492:10507   */\n      revert\n        /* \"#utility.yul\":10519:10704   */\n    tag_158:\n        /* \"#utility.yul\":10559:10560   */\n      0x00\n        /* \"#utility.yul\":10576:10596   */\n      tag_492\n        /* \"#utility.yul\":10594:10595   */\n      dup3\n        /* \"#utility.yul\":10576:10596   */\n      tag_359\n      jump\t// in\n    tag_492:\n        /* \"#utility.yul\":10571:10596   */\n      swap2\n      pop\n        /* \"#utility.yul\":10610:10630   */\n      tag_493\n        /* \"#utility.yul\":10628:10629   */\n      dup4\n        /* \"#utility.yul\":10610:10630   */\n      tag_359\n      jump\t// in\n    tag_493:\n        /* \"#utility.yul\":10605:10630   */\n      swap3\n      pop\n        /* \"#utility.yul\":10649:10650   */\n      dup3\n        /* \"#utility.yul\":10639:10674   */\n      tag_494\n      jumpi\n        /* \"#utility.yul\":10654:10672   */\n      tag_495\n      tag_375\n      jump\t// in\n    tag_495:\n        /* \"#utility.yul\":10639:10674   */\n    tag_494:\n        /* \"#utility.yul\":10696:10697   */\n      dup3\n        /* \"#utility.yul\":10693:10694   */\n      dup3\n        /* \"#utility.yul\":10689:10698   */\n      div\n        /* \"#utility.yul\":10684:10698   */\n      swap1\n      pop\n        /* \"#utility.yul\":10519:10704   */\n      swap3\n      swap2\n      pop\n      pop\n      jump\t// out\n        /* \"#utility.yul\":10710:10935   */\n    tag_376:\n        /* \"#utility.yul\":10850:10884   */\n      0x4f776e61626c653a206e6577206f776e657220697320746865207a65726f2061\n        /* \"#utility.yul\":10846:10847   */\n      0x00\n        /* \"#utility.yul\":10838:10844   */\n      dup3\n        /* \"#utility.yul\":10834:10848   */\n      add\n        /* \"#utility.yul\":10827:10885   */\n      mstore\n        /* \"#utility.yul\":10919:10927   */\n      0x6464726573730000000000000000000000000000000000000000000000000000\n        /* \"#utility.yul\":10914:10916   */\n      0x20\n        /* \"#utility.yul\":10906:10912   */\n      dup3\n        /* \"#utility.yul\":10902:10917   */\n      add\n        /* \"#utility.yul\":10895:10928   */\n      mstore\n        /* \"#utility.yul\":10710:10935   */\n      pop\n      jump\t// out\n        /* \"#utility.yul\":10941:11307   */\n    tag_377:\n        /* \"#utility.yul\":11083:11086   */\n      0x00\n        /* \"#utility.yul\":11104:11171   */\n      tag_498\n        /* \"#utility.yul\":11168:11170   */\n      0x26\n        /* \"#utility.yul\":11163:11166   */\n      dup4\n        /* \"#utility.yul\":11104:11171   */\n      tag_369\n      jump\t// in\n    tag_498:\n        /* \"#utility.yul\":11097:11171   */\n      swap2\n      pop\n        /* \"#utility.yul\":11180:11273   */\n      tag_499\n        /* \"#utility.yul\":11269:11272   */\n      dup3\n        /* \"#utility.yul\":11180:11273   */\n      tag_376\n      jump\t// in\n    tag_499:\n        /* \"#utility.yul\":11298:11300   */\n      0x40\n        /* \"#utility.yul\":11293:11296   */\n      dup3\n        /* \"#utility.yul\":11289:11301   */\n      add\n        /* \"#utility.yul\":11282:11301   */\n      swap1\n      pop\n        /* \"#utility.yul\":10941:11307   */\n      swap2\n      swap1\n      pop\n      jump\t// out\n        /* \"#utility.yul\":11313:11732   */\n    tag_266:\n        /* \"#utility.yul\":11479:11483   */\n      0x00\n        /* \"#utility.yul\":11517:11519   */\n      0x20\n        /* \"#utility.yul\":11506:11515   */\n      dup3\n        /* \"#utility.yul\":11502:11520   */\n      add\n        /* \"#utility.yul\":11494:11520   */\n      swap1\n      pop\n        /* \"#utility.yul\":11566:11575   */\n      dup2\n        /* \"#utility.yul\":11560:11564   */\n      dup2\n        /* \"#utility.yul\":11556:11576   */\n      sub\n        /* \"#utility.yul\":11552:11553   */\n      0x00\n        /* \"#utility.yul\":11541:11550   */\n      dup4\n        /* \"#utility.yul\":11537:11554   */\n      add\n        /* \"#utility.yul\":11530:11577   */\n      mstore\n        /* \"#utility.yul\":11594:11725   */\n      tag_501\n        /* \"#utility.yul\":11720:11724   */\n      dup2\n        /* \"#utility.yul\":11594:11725   */\n      tag_377\n      jump\t// in\n    tag_501:\n        /* \"#utility.yul\":11586:11725   */\n      swap1\n      pop\n        /* \"#utility.yul\":11313:11732   */\n      swap2\n      swap1\n      pop\n      jump\t// out\n        /* \"#utility.yul\":11738:12180   */\n    tag_284:\n        /* \"#utility.yul\":11887:11891   */\n      0x00\n        /* \"#utility.yul\":11925:11927   */\n      0x60\n        /* \"#utility.yul\":11914:11923   */\n      dup3\n        /* \"#utility.yul\":11910:11928   */\n      add\n        /* \"#utility.yul\":11902:11928   */\n      swap1\n      pop\n        /* \"#utility.yul\":11938:12009   */\n      tag_503\n        /* \"#utility.yul\":12006:12007   */\n      0x00\n        /* \"#utility.yul\":11995:12004   */\n      dup4\n        /* \"#utility.yul\":11991:12008   */\n      add\n        /* \"#utility.yul\":11982:11988   */\n      dup7\n        /* \"#utility.yul\":11938:12009   */\n      tag_368\n      jump\t// in\n    tag_503:\n        /* \"#utility.yul\":12019:12091   */\n      tag_504\n        /* \"#utility.yul\":12087:12089   */\n      0x20\n        /* \"#utility.yul\":12076:12085   */\n      dup4\n        /* \"#utility.yul\":12072:12090   */\n      add\n        /* \"#utility.yul\":12063:12069   */\n      dup6\n        /* \"#utility.yul\":12019:12091   */\n      tag_368\n      jump\t// in\n    tag_504:\n        /* \"#utility.yul\":12101:12173   */\n      tag_505\n        /* \"#utility.yul\":12169:12171   */\n      0x40\n        /* \"#utility.yul\":12158:12167   */\n      dup4\n        /* \"#utility.yul\":12154:12172   */\n      add\n        /* \"#utility.yul\":12145:12151   */\n      dup5\n        /* \"#utility.yul\":12101:12173   */\n      tag_367\n      jump\t// in\n    tag_505:\n        /* \"#utility.yul\":11738:12180   */\n      swap5\n      swap4\n      pop\n      pop\n      pop\n      pop\n      jump\t// out\n        /* \"#utility.yul\":12186:12518   */\n    tag_300:\n        /* \"#utility.yul\":12307:12311   */\n      0x00\n        /* \"#utility.yul\":12345:12347   */\n      0x40\n        /* \"#utility.yul\":12334:12343   */\n      dup3\n        /* \"#utility.yul\":12330:12348   */\n      add\n        /* \"#utility.yul\":12322:12348   */\n      swap1\n      pop\n        /* \"#utility.yul\":12358:12429   */\n      tag_507\n        /* \"#utility.yul\":12426:12427   */\n      0x00\n        /* \"#utility.yul\":12415:12424   */\n      dup4\n        /* \"#utility.yul\":12411:12428   */\n      add\n        /* \"#utility.yul\":12402:12408   */\n      dup6\n        /* \"#utility.yul\":12358:12429   */\n      tag_368\n      jump\t// in\n    tag_507:\n        /* \"#utility.yul\":12439:12511   */\n      tag_508\n        /* \"#utility.yul\":12507:12509   */\n      0x20\n        /* \"#utility.yul\":12496:12505   */\n      dup4\n        /* \"#utility.yul\":12492:12510   */\n      add\n        /* \"#utility.yul\":12483:12489   */\n      dup5\n        /* \"#utility.yul\":12439:12511   */\n      tag_367\n      jump\t// in\n    tag_508:\n        /* \"#utility.yul\":12186:12518   */\n      swap4\n      swap3\n      pop\n      pop\n      pop\n      jump\t// out\n        /* \"#utility.yul\":12524:12640   */\n    tag_378:\n        /* \"#utility.yul\":12594:12615   */\n      tag_510\n        /* \"#utility.yul\":12609:12614   */\n      dup2\n        /* \"#utility.yul\":12594:12615   */\n      tag_365\n      jump\t// in\n    tag_510:\n        /* \"#utility.yul\":12587:12592   */\n      dup2\n        /* \"#utility.yul\":12584:12616   */\n      eq\n        /* \"#utility.yul\":12574:12634   */\n      tag_511\n      jumpi\n        /* \"#utility.yul\":12630:12631   */\n      0x00\n        /* \"#utility.yul\":12627:12628   */\n      dup1\n        /* \"#utility.yul\":12620:12632   */\n      revert\n        /* \"#utility.yul\":12574:12634   */\n    tag_511:\n        /* \"#utility.yul\":12524:12640   */\n      pop\n      jump\t// out\n        /* \"#utility.yul\":12646:12783   */\n    tag_379:\n        /* \"#utility.yul\":12700:12705   */\n      0x00\n        /* \"#utility.yul\":12731:12737   */\n      dup2\n        /* \"#utility.yul\":12725:12738   */\n      mload\n        /* \"#utility.yul\":12716:12738   */\n      swap1\n      pop\n        /* \"#utility.yul\":12747:12777   */\n      tag_513\n        /* \"#utility.yul\":12771:12776   */\n      dup2\n        /* \"#utility.yul\":12747:12777   */\n      tag_378\n      jump\t// in\n    tag_513:\n        /* \"#utility.yul\":12646:12783   */\n      swap3\n      swap2\n      pop\n      pop\n      jump\t// out\n        /* \"#utility.yul\":12789:13134   */\n    tag_315:\n        /* \"#utility.yul\":12856:12862   */\n      0x00\n        /* \"#utility.yul\":12905:12907   */\n      0x20\n        /* \"#utility.yul\":12893:12902   */\n      dup3\n        /* \"#utility.yul\":12884:12891   */\n      dup5\n        /* \"#utility.yul\":12880:12903   */\n      sub\n        /* \"#utility.yul\":12876:12908   */\n      slt\n        /* \"#utility.yul\":12873:12992   */\n      iszero\n      tag_515\n      jumpi\n        /* \"#utility.yul\":12911:12990   */\n      tag_516\n      tag_353\n      jump\t// in\n    tag_516:\n        /* \"#utility.yul\":12873:12992   */\n    tag_515:\n        /* \"#utility.yul\":13031:13032   */\n      0x00\n        /* \"#utility.yul\":13056:13117   */\n      tag_517\n        /* \"#utility.yul\":13109:13116   */\n      dup5\n        /* \"#utility.yul\":13100:13106   */\n      dup3\n        /* \"#utility.yul\":13089:13098   */\n      dup6\n        /* \"#utility.yul\":13085:13107   */\n      add\n        /* \"#utility.yul\":13056:13117   */\n      tag_379\n      jump\t// in\n    tag_517:\n        /* \"#utility.yul\":13046:13117   */\n      swap2\n      pop\n        /* \"#utility.yul\":13002:13127   */\n      pop\n        /* \"#utility.yul\":12789:13134   */\n      swap3\n      swap2\n      pop\n      pop\n      jump\t// out\n        /* \"#utility.yul\":13140:13369   */\n    tag_380:\n        /* \"#utility.yul\":13280:13314   */\n      0x5361666545524332303a204552433230206f7065726174696f6e20646964206e\n        /* \"#utility.yul\":13276:13277   */\n      0x00\n        /* \"#utility.yul\":13268:13274   */\n      dup3\n        /* \"#utility.yul\":13264:13278   */\n      add\n        /* \"#utility.yul\":13257:13315   */\n      mstore\n        /* \"#utility.yul\":13349:13361   */\n      0x6f74207375636365656400000000000000000000000000000000000000000000\n        /* \"#utility.yul\":13344:13346   */\n      0x20\n        /* \"#utility.yul\":13336:13342   */\n      dup3\n        /* \"#utility.yul\":13332:13347   */\n      add\n        /* \"#utility.yul\":13325:13362   */\n      mstore\n        /* \"#utility.yul\":13140:13369   */\n      pop\n      jump\t// out\n        /* \"#utility.yul\":13375:13741   */\n    tag_381:\n        /* \"#utility.yul\":13517:13520   */\n      0x00\n        /* \"#utility.yul\":13538:13605   */\n      tag_520\n        /* \"#utility.yul\":13602:13604   */\n      0x2a\n        /* \"#utility.yul\":13597:13600   */\n      dup4\n        /* \"#utility.yul\":13538:13605   */\n      tag_369\n      jump\t// in\n    tag_520:\n        /* \"#utility.yul\":13531:13605   */\n      swap2\n      pop\n        /* \"#utility.yul\":13614:13707   */\n      tag_521\n        /* \"#utility.yul\":13703:13706   */\n      dup3\n        /* \"#utility.yul\":13614:13707   */\n      tag_380\n      jump\t// in\n    tag_521:\n        /* \"#utility.yul\":13732:13734   */\n      0x40\n        /* \"#utility.yul\":13727:13730   */\n      dup3\n        /* \"#utility.yul\":13723:13735   */\n      add\n        /* \"#utility.yul\":13716:13735   */\n      swap1\n      pop\n        /* \"#utility.yul\":13375:13741   */\n      swap2\n      swap1\n      pop\n      jump\t// out\n        /* \"#utility.yul\":13747:14166   */\n    tag_318:\n        /* \"#utility.yul\":13913:13917   */\n      0x00\n        /* \"#utility.yul\":13951:13953   */\n      0x20\n        /* \"#utility.yul\":13940:13949   */\n      dup3\n        /* \"#utility.yul\":13936:13954   */\n      add\n        /* \"#utility.yul\":13928:13954   */\n      swap1\n      pop\n        /* \"#utility.yul\":14000:14009   */\n      dup2\n        /* \"#utility.yul\":13994:13998   */\n      dup2\n        /* \"#utility.yul\":13990:14010   */\n      sub\n        /* \"#utility.yul\":13986:13987   */\n      0x00\n        /* \"#utility.yul\":13975:13984   */\n      dup4\n        /* \"#utility.yul\":13971:13988   */\n      add\n        /* \"#utility.yul\":13964:14011   */\n      mstore\n        /* \"#utility.yul\":14028:14159   */\n      tag_523\n        /* \"#utility.yul\":14154:14158   */\n      dup2\n        /* \"#utility.yul\":14028:14159   */\n      tag_381\n      jump\t// in\n    tag_523:\n        /* \"#utility.yul\":14020:14159   */\n      swap1\n      pop\n        /* \"#utility.yul\":13747:14166   */\n      swap2\n      swap1\n      pop\n      jump\t// out\n        /* \"#utility.yul\":14172:14397   */\n    tag_382:\n        /* \"#utility.yul\":14312:14346   */\n      0x416464726573733a20696e73756666696369656e742062616c616e636520666f\n        /* \"#utility.yul\":14308:14309   */\n      0x00\n        /* \"#utility.yul\":14300:14306   */\n      dup3\n        /* \"#utility.yul\":14296:14310   */\n      add\n        /* \"#utility.yul\":14289:14347   */\n      mstore\n        /* \"#utility.yul\":14381:14389   */\n      0x722063616c6c0000000000000000000000000000000000000000000000000000\n        /* \"#utility.yul\":14376:14378   */\n      0x20\n        /* \"#utility.yul\":14368:14374   */\n      dup3\n        /* \"#utility.yul\":14364:14379   */\n      add\n        /* \"#utility.yul\":14357:14390   */\n      mstore\n        /* \"#utility.yul\":14172:14397   */\n      pop\n      jump\t// out\n        /* \"#utility.yul\":14403:14769   */\n    tag_383:\n        /* \"#utility.yul\":14545:14548   */\n      0x00\n        /* \"#utility.yul\":14566:14633   */\n      tag_526\n        /* \"#utility.yul\":14630:14632   */\n      0x26\n        /* \"#utility.yul\":14625:14628   */\n      dup4\n        /* \"#utility.yul\":14566:14633   */\n      tag_369\n      jump\t// in\n    tag_526:\n        /* \"#utility.yul\":14559:14633   */\n      swap2\n      pop\n        /* \"#utility.yul\":14642:14735   */\n      tag_527\n        /* \"#utility.yul\":14731:14734   */\n      dup3\n        /* \"#utility.yul\":14642:14735   */\n      tag_382\n      jump\t// in\n    tag_527:\n        /* \"#utility.yul\":14760:14762   */\n      0x40\n        /* \"#utility.yul\":14755:14758   */\n      dup3\n        /* \"#utility.yul\":14751:14763   */\n      add\n        /* \"#utility.yul\":14744:14763   */\n      swap1\n      pop\n        /* \"#utility.yul\":14403:14769   */\n      swap2\n      swap1\n      pop\n      jump\t// out\n        /* \"#utility.yul\":14775:15194   */\n    tag_329:\n        /* \"#utility.yul\":14941:14945   */\n      0x00\n        /* \"#utility.yul\":14979:14981   */\n      0x20\n        /* \"#utility.yul\":14968:14977   */\n      dup3\n        /* \"#utility.yul\":14964:14982   */\n      add\n        /* \"#utility.yul\":14956:14982   */\n      swap1\n      pop\n        /* \"#utility.yul\":15028:15037   */\n      dup2\n        /* \"#utility.yul\":15022:15026   */\n      dup2\n        /* \"#utility.yul\":15018:15038   */\n      sub\n        /* \"#utility.yul\":15014:15015   */\n      0x00\n        /* \"#utility.yul\":15003:15012   */\n      dup4\n        /* \"#utility.yul\":14999:15016   */\n      add\n        /* \"#utility.yul\":14992:15039   */\n      mstore\n        /* \"#utility.yul\":15056:15187   */\n      tag_529\n        /* \"#utility.yul\":15182:15186   */\n      dup2\n        /* \"#utility.yul\":15056:15187   */\n      tag_383\n      jump\t// in\n    tag_529:\n        /* \"#utility.yul\":15048:15187   */\n      swap1\n      pop\n        /* \"#utility.yul\":14775:15194   */\n      swap2\n      swap1\n      pop\n      jump\t// out\n        /* \"#utility.yul\":15200:15379   */\n    tag_384:\n        /* \"#utility.yul\":15340:15371   */\n      0x416464726573733a2063616c6c20746f206e6f6e2d636f6e7472616374000000\n        /* \"#utility.yul\":15336:15337   */\n      0x00\n        /* \"#utility.yul\":15328:15334   */\n      dup3\n        /* \"#utility.yul\":15324:15338   */\n      add\n        /* \"#utility.yul\":15317:15372   */\n      mstore\n        /* \"#utility.yul\":15200:15379   */\n      pop\n      jump\t// out\n        /* \"#utility.yul\":15385:15751   */\n    tag_385:\n        /* \"#utility.yul\":15527:15530   */\n      0x00\n        /* \"#utility.yul\":15548:15615   */\n      tag_532\n        /* \"#utility.yul\":15612:15614   */\n      0x1d\n        /* \"#utility.yul\":15607:15610   */\n      dup4\n        /* \"#utility.yul\":15548:15615   */\n      tag_369\n      jump\t// in\n    tag_532:\n        /* \"#utility.yul\":15541:15615   */\n      swap2\n      pop\n        /* \"#utility.yul\":15624:15717   */\n      tag_533\n        /* \"#utility.yul\":15713:15716   */\n      dup3\n        /* \"#utility.yul\":15624:15717   */\n      tag_384\n      jump\t// in\n    tag_533:\n        /* \"#utility.yul\":15742:15744   */\n      0x20\n        /* \"#utility.yul\":15737:15740   */\n      dup3\n        /* \"#utility.yul\":15733:15745   */\n      add\n        /* \"#utility.yul\":15726:15745   */\n      swap1\n      pop\n        /* \"#utility.yul\":15385:15751   */\n      swap2\n      swap1\n      pop\n      jump\t// out\n        /* \"#utility.yul\":15757:16176   */\n    tag_334:\n        /* \"#utility.yul\":15923:15927   */\n      0x00\n        /* \"#utility.yul\":15961:15963   */\n      0x20\n        /* \"#utility.yul\":15950:15959   */\n      dup3\n        /* \"#utility.yul\":15946:15964   */\n      add\n        /* \"#utility.yul\":15938:15964   */\n      swap1\n      pop\n        /* \"#utility.yul\":16010:16019   */\n      dup2\n        /* \"#utility.yul\":16004:16008   */\n      dup2\n        /* \"#utility.yul\":16000:16020   */\n      sub\n        /* \"#utility.yul\":15996:15997   */\n      0x00\n        /* \"#utility.yul\":15985:15994   */\n      dup4\n        /* \"#utility.yul\":15981:15998   */\n      add\n        /* \"#utility.yul\":15974:16021   */\n      mstore\n        /* \"#utility.yul\":16038:16169   */\n      tag_535\n        /* \"#utility.yul\":16164:16168   */\n      dup2\n        /* \"#utility.yul\":16038:16169   */\n      tag_385\n      jump\t// in\n    tag_535:\n        /* \"#utility.yul\":16030:16169   */\n      swap1\n      pop\n        /* \"#utility.yul\":15757:16176   */\n      swap2\n      swap1\n      pop\n      jump\t// out\n        /* \"#utility.yul\":16182:16280   */\n    tag_386:\n        /* \"#utility.yul\":16233:16239   */\n      0x00\n        /* \"#utility.yul\":16267:16272   */\n      dup2\n        /* \"#utility.yul\":16261:16273   */\n      mload\n        /* \"#utility.yul\":16251:16273   */\n      swap1\n      pop\n        /* \"#utility.yul\":16182:16280   */\n      swap2\n      swap1\n      pop\n      jump\t// out\n        /* \"#utility.yul\":16286:16433   */\n    tag_387:\n        /* \"#utility.yul\":16387:16398   */\n      0x00\n        /* \"#utility.yul\":16424:16427   */\n      dup2\n        /* \"#utility.yul\":16409:16427   */\n      swap1\n      pop\n        /* \"#utility.yul\":16286:16433   */\n      swap3\n      swap2\n      pop\n      pop\n      jump\t// out\n        /* \"#utility.yul\":16439:16746   */\n    tag_388:\n        /* \"#utility.yul\":16507:16508   */\n      0x00\n        /* \"#utility.yul\":16517:16630   */\n    tag_539:\n        /* \"#utility.yul\":16531:16537   */\n      dup4\n        /* \"#utility.yul\":16528:16529   */\n      dup2\n        /* \"#utility.yul\":16525:16538   */\n      lt\n        /* \"#utility.yul\":16517:16630   */\n      iszero\n      tag_541\n      jumpi\n        /* \"#utility.yul\":16616:16617   */\n      dup1\n        /* \"#utility.yul\":16611:16614   */\n      dup3\n        /* \"#utility.yul\":16607:16618   */\n      add\n        /* \"#utility.yul\":16601:16619   */\n      mload\n        /* \"#utility.yul\":16597:16598   */\n      dup2\n        /* \"#utility.yul\":16592:16595   */\n      dup5\n        /* \"#utility.yul\":16588:16599   */\n      add\n        /* \"#utility.yul\":16581:16620   */\n      mstore\n        /* \"#utility.yul\":16553:16555   */\n      0x20\n        /* \"#utility.yul\":16550:16551   */\n      dup2\n        /* \"#utility.yul\":16546:16556   */\n      add\n        /* \"#utility.yul\":16541:16556   */\n      swap1\n      pop\n        /* \"#utility.yul\":16517:16630   */\n      jump(tag_539)\n    tag_541:\n        /* \"#utility.yul\":16648:16654   */\n      dup4\n        /* \"#utility.yul\":16645:16646   */\n      dup2\n        /* \"#utility.yul\":16642:16655   */\n      gt\n        /* \"#utility.yul\":16639:16740   */\n      iszero\n      tag_542\n      jumpi\n        /* \"#utility.yul\":16728:16729   */\n      0x00\n        /* \"#utility.yul\":16719:16725   */\n      dup5\n        /* \"#utility.yul\":16714:16717   */\n      dup5\n        /* \"#utility.yul\":16710:16726   */\n      add\n        /* \"#utility.yul\":16703:16730   */\n      mstore\n        /* \"#utility.yul\":16639:16740   */\n    tag_542:\n        /* \"#utility.yul\":16488:16746   */\n      pop\n        /* \"#utility.yul\":16439:16746   */\n      pop\n      pop\n      pop\n      jump\t// out\n        /* \"#utility.yul\":16752:17125   */\n    tag_389:\n        /* \"#utility.yul\":16856:16859   */\n      0x00\n        /* \"#utility.yul\":16884:16922   */\n      tag_544\n        /* \"#utility.yul\":16916:16921   */\n      dup3\n        /* \"#utility.yul\":16884:16922   */\n      tag_386\n      jump\t// in\n    tag_544:\n        /* \"#utility.yul\":16938:17026   */\n      tag_545\n        /* \"#utility.yul\":17019:17025   */\n      dup2\n        /* \"#utility.yul\":17014:17017   */\n      dup6\n        /* \"#utility.yul\":16938:17026   */\n      tag_387\n      jump\t// in\n    tag_545:\n        /* \"#utility.yul\":16931:17026   */\n      swap4\n      pop\n        /* \"#utility.yul\":17035:17087   */\n      tag_546\n        /* \"#utility.yul\":17080:17086   */\n      dup2\n        /* \"#utility.yul\":17075:17078   */\n      dup6\n        /* \"#utility.yul\":17068:17072   */\n      0x20\n        /* \"#utility.yul\":17061:17066   */\n      dup7\n        /* \"#utility.yul\":17057:17073   */\n      add\n        /* \"#utility.yul\":17035:17087   */\n      tag_388\n      jump\t// in\n    tag_546:\n        /* \"#utility.yul\":17112:17118   */\n      dup1\n        /* \"#utility.yul\":17107:17110   */\n      dup5\n        /* \"#utility.yul\":17103:17119   */\n      add\n        /* \"#utility.yul\":17096:17119   */\n      swap2\n      pop\n        /* \"#utility.yul\":16860:17125   */\n      pop\n        /* \"#utility.yul\":16752:17125   */\n      swap3\n      swap2\n      pop\n      pop\n      jump\t// out\n        /* \"#utility.yul\":17131:17402   */\n    tag_336:\n        /* \"#utility.yul\":17261:17264   */\n      0x00\n        /* \"#utility.yul\":17283:17376   */\n      tag_548\n        /* \"#utility.yul\":17372:17375   */\n      dup3\n        /* \"#utility.yul\":17363:17369   */\n      dup5\n        /* \"#utility.yul\":17283:17376   */\n      tag_389\n      jump\t// in\n    tag_548:\n        /* \"#utility.yul\":17276:17376   */\n      swap2\n      pop\n        /* \"#utility.yul\":17393:17396   */\n      dup2\n        /* \"#utility.yul\":17386:17396   */\n      swap1\n      pop\n        /* \"#utility.yul\":17131:17402   */\n      swap3\n      swap2\n      pop\n      pop\n      jump\t// out\n        /* \"#utility.yul\":17408:17507   */\n    tag_390:\n        /* \"#utility.yul\":17460:17466   */\n      0x00\n        /* \"#utility.yul\":17494:17499   */\n      dup2\n        /* \"#utility.yul\":17488:17500   */\n      mload\n        /* \"#utility.yul\":17478:17500   */\n      swap1\n      pop\n        /* \"#utility.yul\":17408:17507   */\n      swap2\n      swap1\n      pop\n      jump\t// out\n        /* \"#utility.yul\":17513:17615   */\n    tag_391:\n        /* \"#utility.yul\":17554:17560   */\n      0x00\n        /* \"#utility.yul\":17605:17607   */\n      0x1f\n        /* \"#utility.yul\":17601:17608   */\n      not\n        /* \"#utility.yul\":17596:17598   */\n      0x1f\n        /* \"#utility.yul\":17589:17594   */\n      dup4\n        /* \"#utility.yul\":17585:17599   */\n      add\n        /* \"#utility.yul\":17581:17609   */\n      and\n        /* \"#utility.yul\":17571:17609   */\n      swap1\n      pop\n        /* \"#utility.yul\":17513:17615   */\n      swap2\n      swap1\n      pop\n      jump\t// out\n        /* \"#utility.yul\":17621:17985   */\n    tag_392:\n        /* \"#utility.yul\":17709:17712   */\n      0x00\n        /* \"#utility.yul\":17737:17776   */\n      tag_552\n        /* \"#utility.yul\":17770:17775   */\n      dup3\n        /* \"#utility.yul\":17737:17776   */\n      tag_390\n      jump\t// in\n    tag_552:\n        /* \"#utility.yul\":17792:17863   */\n      tag_553\n        /* \"#utility.yul\":17856:17862   */\n      dup2\n        /* \"#utility.yul\":17851:17854   */\n      dup6\n        /* \"#utility.yul\":17792:17863   */\n      tag_369\n      jump\t// in\n    tag_553:\n        /* \"#utility.yul\":17785:17863   */\n      swap4\n      pop\n        /* \"#utility.yul\":17872:17924   */\n      tag_554\n        /* \"#utility.yul\":17917:17923   */\n      dup2\n        /* \"#utility.yul\":17912:17915   */\n      dup6\n        /* \"#utility.yul\":17905:17909   */\n      0x20\n        /* \"#utility.yul\":17898:17903   */\n      dup7\n        /* \"#utility.yul\":17894:17910   */\n      add\n        /* \"#utility.yul\":17872:17924   */\n      tag_388\n      jump\t// in\n    tag_554:\n        /* \"#utility.yul\":17949:17978   */\n      tag_555\n        /* \"#utility.yul\":17971:17977   */\n      dup2\n        /* \"#utility.yul\":17949:17978   */\n      tag_391\n      jump\t// in\n    tag_555:\n        /* \"#utility.yul\":17944:17947   */\n      dup5\n        /* \"#utility.yul\":17940:17979   */\n      add\n        /* \"#utility.yul\":17933:17979   */\n      swap2\n      pop\n        /* \"#utility.yul\":17713:17985   */\n      pop\n        /* \"#utility.yul\":17621:17985   */\n      swap3\n      swap2\n      pop\n      pop\n      jump\t// out\n        /* \"#utility.yul\":17991:18304   */\n    tag_349:\n        /* \"#utility.yul\":18104:18108   */\n      0x00\n        /* \"#utility.yul\":18142:18144   */\n      0x20\n        /* \"#utility.yul\":18131:18140   */\n      dup3\n        /* \"#utility.yul\":18127:18145   */\n      add\n        /* \"#utility.yul\":18119:18145   */\n      swap1\n      pop\n        /* \"#utility.yul\":18191:18200   */\n      dup2\n        /* \"#utility.yul\":18185:18189   */\n      dup2\n        /* \"#utility.yul\":18181:18201   */\n      sub\n        /* \"#utility.yul\":18177:18178   */\n      0x00\n        /* \"#utility.yul\":18166:18175   */\n      dup4\n        /* \"#utility.yul\":18162:18179   */\n      add\n        /* \"#utility.yul\":18155:18202   */\n      mstore\n        /* \"#utility.yul\":18219:18297   */\n      tag_557\n        /* \"#utility.yul\":18292:18296   */\n      dup2\n        /* \"#utility.yul\":18283:18289   */\n      dup5\n        /* \"#utility.yul\":18219:18297   */\n      tag_392\n      jump\t// in\n    tag_557:\n        /* \"#utility.yul\":18211:18297   */\n      swap1\n      pop\n        /* \"#utility.yul\":17991:18304   */\n      swap3\n      swap2\n      pop\n      pop\n      jump\t// out\n\n    auxdata: 0xa26469706673582212206080df30709ffc63f62f5f3d50c085629ce899587f1dda48bb1132431e8b5a6a64736f6c634300080b0033\n}\n",
				"bytecode": {
					"linkReferences": {},
					"object": "60806040523480156200001157600080fd5b5060405162002bf038038062002bf0833981810160405281019062000037919062000244565b60016000819055506200005f620000536200010c60201b60201c565b6200011460201b60201c565b600f600381905550605060048190555080600b60006101000a81548173ffffffffffffffffffffffffffffffffffffffff021916908373ffffffffffffffffffffffffffffffffffffffff1602179055506006600260006276a70081526020019081526020016000208190555060076002600062ed4e008152602001908152602001600020819055506008600260006301e133808152602001908152602001600020819055505062000276565b600033905090565b6000600160009054906101000a900473ffffffffffffffffffffffffffffffffffffffff16905081600160006101000a81548173ffffffffffffffffffffffffffffffffffffffff021916908373ffffffffffffffffffffffffffffffffffffffff1602179055508173ffffffffffffffffffffffffffffffffffffffff168173ffffffffffffffffffffffffffffffffffffffff167f8be0079c531659141344cd1fd0a4f28419497f9722a3daafe3b4186f6b6457e060405160405180910390a35050565b600080fd5b600073ffffffffffffffffffffffffffffffffffffffff82169050919050565b60006200020c82620001df565b9050919050565b6200021e81620001ff565b81146200022a57600080fd5b50565b6000815190506200023e8162000213565b92915050565b6000602082840312156200025d576200025c620001da565b5b60006200026d848285016200022d565b91505092915050565b61296a80620002866000396000f3fe608060405234801561001057600080fd5b50600436106101735760003560e01c80638c8e8fee116100de578063bed9d86111610097578063d2a569c311610071578063d2a569c3146103cd578063d5dbdf1b146103d7578063f2fde38b146103f3578063fab2f86b1461040f57610173565b8063bed9d86114610387578063c63aa3e714610391578063cb79c2e1146103af57610173565b80638c8e8fee1461029d5780638da5cb5b146102bb578063a143a5f2146102d9578063a3ec138d14610309578063b5d9df8314610339578063b87da76d1461036957610173565b8063632a9a5211610130578063632a9a521461021557806365f8c6c51461021f578063671d2b751461023b578063715018a6146102595780638891cf0d146102635780638c63f97f1461028157610173565b8063070c8b74146101785780630c51b88f1461018257806310486b6a1461019e5780631ec6b60a146101bc5780632d15cc04146101c65780635f5300ff146101f7575b600080fd5b610180610419565b005b61019c60048036038101906101979190612062565b6105b5565b005b6101a6610972565b6040516101b39190612195565b60405180910390f35b6101c4610b47565b005b6101e060048036038101906101db91906121b1565b610c9e565b6040516101ee9291906121f9565b60405180910390f35b6101ff610d5d565b60405161020c9190612231565b60405180910390f35b61021d610d63565b005b610239600480360381019061023491906121b1565b610f07565b005b610243610fef565b604051610250919061224c565b60405180910390f35b610261611100565b005b61026b611188565b6040516102789190612231565b60405180910390f35b61029b60048036038101906102969190612267565b61118e565b005b6102a5611286565b6040516102b291906122a3565b60405180910390f35b6102c36112ac565b6040516102d091906122a3565b60405180910390f35b6102f360048036038101906102ee9190612267565b6112d6565b6040516103009190612231565b60405180910390f35b610323600480360381019061031e91906121b1565b6112ee565b604051610330919061224c565b60405180910390f35b610353600480360381019061034e9190612267565b611319565b6040516103609190612231565b60405180910390f35b61037161133c565b60405161037e9190612231565b60405180910390f35b61038f611342565b005b6103996115d3565b6040516103a69190612231565b60405180910390f35b6103b76115db565b6040516103c49190612231565b60405180910390f35b6103d56115e1565b005b6103f160048036038101906103ec9190612267565b611666565b005b61040d600480360381019061040891906121b1565b61175e565b005b610417611856565b005b6002600054141561045f576040517f08c379a00000000000000000000000000000000000000000000000000000000081526004016104569061231b565b60405180910390fd5b600260008190555061046f6118f7565b61047761193f565b60001515600960003373ffffffffffffffffffffffffffffffffffffffff1673ffffffffffffffffffffffffffffffffffffffff1681526020019081526020016000206001016000600754815260200190815260200160002060009054906101000a900460ff1615151415610518576040517f8b74220000000000000000000000000000000000000000000000000000000000815260040160405180910390fd5b60001515600960003373ffffffffffffffffffffffffffffffffffffffff1673ffffffffffffffffffffffffffffffffffffffff1681526020019081526020016000206001016000600754815260200190815260200160002060009054906101000a905050506001600a6000600754815260200190815260200160002060008282546105a4919061236a565b925050819055506001600081905550565b600260005414156105fb576040517f08c379a00000000000000000000000000000000000000000000000000000000081526004016105f29061231b565b60405180910390fd5b600260008190555061060b6119cf565b73ffffffffffffffffffffffffffffffffffffffff166106296112ac565b73ffffffffffffffffffffffffffffffffffffffff161461067f576040517f08c379a0000000000000000000000000000000000000000000000000000000008152600401610676906123ea565b60405180910390fd5b600082116106b9576040517f88b440d600000000000000000000000000000000000000000000000000000000815260040160405180910390fd5b6000600c60008573ffffffffffffffffffffffffffffffffffffffff1673ffffffffffffffffffffffffffffffffffffffff1681526020019081526020016000206000015414610735576040517f04462d2700000000000000000000000000000000000000000000000000000000815260040160405180910390fd5b600060026000838152602001908152602001600020541415610783576040517f95377be400000000000000000000000000000000000000000000000000000000815260040160405180910390fd5b600160086000828254610796919061240a565b925050819055506001600960008573ffffffffffffffffffffffffffffffffffffffff1673ffffffffffffffffffffffffffffffffffffffff16815260200190815260200160002060000160006101000a81548160ff02191690831515021790555060004290506040518060e00160405280848152602001828152602001600260008581526020019081526020016000205481526020018284610839919061240a565b815260200160008152602001600081526020016000815250600c60008673ffffffffffffffffffffffffffffffffffffffff1673ffffffffffffffffffffffffffffffffffffffff168152602001908152602001600020600082015181600001556020820151816001015560408201518160020155606082015181600301556080820151816004015560a0820151816005015560c08201518160060155905050610907600b60009054906101000a900473ffffffffffffffffffffffffffffffffffffffff163330866119d7565b8373ffffffffffffffffffffffffffffffffffffffff167fb4caaf29adda3eefee3ad552a8e85058589bf834c7466cae4ee58787f70589ed8483848661094d919061240a565b60405161095c93929190612460565b60405180910390a2506001600081905550505050565b61097a611f65565b6000600c60003373ffffffffffffffffffffffffffffffffffffffff1673ffffffffffffffffffffffffffffffffffffffff1681526020019081526020016000206040518060e001604052908160008201548152602001600182015481526020016002820154815260200160038201548152602001600482015481526020016005820154815260200160068201548152505090506000816000015111610a4c576040517fb018f08700000000000000000000000000000000000000000000000000000000815260040160405180910390fd5b6000604051806060016040528060008152602001600081526020018381525090506000610a7883611a60565b9050428260400151606001511115610ad8576103e860035482610a9b9190612497565b610aa59190612520565b6103e86003548560000151610aba9190612497565b610ac49190612520565b610ace919061240a565b8260200181815250505b6000610ae78460c00151611319565b1115610b12576000610afc8460000151611ac0565b905080836040015160a001818152505050610b22565b6000826040015160a00181815250505b8082604001516080018181525050826000015182600001818152505081935050505090565b60026000541415610b8d576040517f08c379a0000000000000000000000000000000000000000000000000000000008152600401610b849061231b565b60405180910390fd5b6002600081905550610b9d6119cf565b73ffffffffffffffffffffffffffffffffffffffff16610bbb6112ac565b73ffffffffffffffffffffffffffffffffffffffff1614610c11576040517f08c379a0000000000000000000000000000000000000000000000000000000008152600401610c08906123ea565b60405180910390fd5b60011515600660009054906101000a900460ff1615151415610c5f576040517f6da4cd2e00000000000000000000000000000000000000000000000000000000815260040160405180910390fd5b6001600660006101000a81548160ff021916908315150217905550600160076000828254610c8d919061240a565b925050819055506001600081905550565b600080600960008473ffffffffffffffffffffffffffffffffffffffff1673ffffffffffffffffffffffffffffffffffffffff16815260200190815260200160002060000160009054906101000a900460ff16600960008573ffffffffffffffffffffffffffffffffffffffff1673ffffffffffffffffffffffffffffffffffffffff1681526020019081526020016000206001016000600754815260200190815260200160002060009054906101000a900460ff1691509150915091565b60085481565b60026000541415610da9576040517f08c379a0000000000000000000000000000000000000000000000000000000008152600401610da09061231b565b60405180910390fd5b6002600081905550610db96118f7565b610dc161193f565b60011515600960003373ffffffffffffffffffffffffffffffffffffffff1673ffffffffffffffffffffffffffffffffffffffff1681526020019081526020016000206001016000600754815260200190815260200160002060009054906101000a900460ff1615151415610e62576040517f740e33b000000000000000000000000000000000000000000000000000000000815260040160405180910390fd5b6001600960003373ffffffffffffffffffffffffffffffffffffffff1673ffffffffffffffffffffffffffffffffffffffff1681526020019081526020016000206001016000600754815260200190815260200160002060006101000a81548160ff0219169083151502179055506001600a600060075481526020019081526020016000206000828254610ef6919061240a565b925050819055506001600081905550565b6000600c60008373ffffffffffffffffffffffffffffffffffffffff1673ffffffffffffffffffffffffffffffffffffffff1681526020019081526020016000209050600081600001541115610feb576000610f668260060154611319565b1415610f9e576040517fdd8456cc00000000000000000000000000000000000000000000000000000000815260040160405180910390fd5b60008160050181905550428160060181905550610fea600b60009054906101000a900473ffffffffffffffffffffffffffffffffffffffff1633610fe58460000154611ac0565b611af3565b5b5050565b6000610ff96119cf565b73ffffffffffffffffffffffffffffffffffffffff166110176112ac565b73ffffffffffffffffffffffffffffffffffffffff161461106d576040517f08c379a0000000000000000000000000000000000000000000000000000000008152600401611064906123ea565b60405180910390fd5b6110756118f7565b6001600854116110b1576040517f2f9686de00000000000000000000000000000000000000000000000000000000815260040160405180910390fd5b6000600a60056008546110c49190612497565b6110ce9190612520565b905080600a600060075481526020019081526020016000205411156110f75760019150506110fd565b60009150505b90565b6111086119cf565b73ffffffffffffffffffffffffffffffffffffffff166111266112ac565b73ffffffffffffffffffffffffffffffffffffffff161461117c576040517f08c379a0000000000000000000000000000000000000000000000000000000008152600401611173906123ea565b60405180910390fd5b6111866000611b79565b565b60045481565b6111966119cf565b73ffffffffffffffffffffffffffffffffffffffff166111b46112ac565b73ffffffffffffffffffffffffffffffffffffffff161461120a576040517f08c379a0000000000000000000000000000000000000000000000000000000008152600401611201906123ea565b60405180910390fd5b601e811115611245576040517ff1a470d700000000000000000000000000000000000000000000000000000000815260040160405180910390fd5b806003819055507fcfa4f4cf1cd64d13a167a8e75605e0c0c9d6700e903d17c5dc11f593254a04a98160405161127b9190612231565b60405180910390a150565b600b60009054906101000a900473ffffffffffffffffffffffffffffffffffffffff1681565b6000600160009054906101000a900473ffffffffffffffffffffffffffffffffffffffff16905090565b600a6020528060005260406000206000915090505481565b60096020528060005260406000206000915090508060000160009054906101000a900460ff16905081565b600062093a80824261132b919061236a565b6113359190612520565b9050919050565b60055481565b60026000541415611388576040517f08c379a000000000000000000000000000000000000000000000000000000000815260040161137f9061231b565b60405180910390fd5b60026000819055506000600c60003373ffffffffffffffffffffffffffffffffffffffff1673ffffffffffffffffffffffffffffffffffffffff1681526020019081526020016000206040518060e00160405290816000820154815260200160018201548152602001600282015481526020016003820154815260200160048201548152602001600582015481526020016006820154815250509050600061142f82611a60565b9050600c60003373ffffffffffffffffffffffffffffffffffffffff1673ffffffffffffffffffffffffffffffffffffffff16815260200190815260200160002060008082016000905560018201600090556002820160009055600382016000905560048201600090556005820160009055600682016000905550506001600860008282546114be919061236a565b92505081905550600960003373ffffffffffffffffffffffffffffffffffffffff1673ffffffffffffffffffffffffffffffffffffffff1681526020019081526020016000206001016000600754815260200190815260200160002060006101000a81549060ff0219169055428260600151111561158a57600080611547846000015184611c3f565b91509150611583600b60009054906101000a900473ffffffffffffffffffffffffffffffffffffffff1633838561157e919061240a565b611af3565b50506115c7565b6115c6600b60009054906101000a900473ffffffffffffffffffffffffffffffffffffffff16338385600001516115c1919061240a565b611af3565b5b50506001600081905550565b600042905090565b60035481565b6115e96119cf565b73ffffffffffffffffffffffffffffffffffffffff166116076112ac565b73ffffffffffffffffffffffffffffffffffffffff161461165d576040517f08c379a0000000000000000000000000000000000000000000000000000000008152600401611654906123ea565b60405180910390fd5b42600581905550565b61166e6119cf565b73ffffffffffffffffffffffffffffffffffffffff1661168c6112ac565b73ffffffffffffffffffffffffffffffffffffffff16146116e2576040517f08c379a00000000000000000000000000000000000000000000000000000000081526004016116d9906123ea565b60405180910390fd5b60c881111561171d576040517fa552cf1000000000000000000000000000000000000000000000000000000000815260040160405180910390fd5b806004819055507fcc672f1026b958c0cfbfdd89ebe8ddcbc127f16ec24da6c2c7a4de26a8b1857e816040516117539190612231565b60405180910390a150565b6117666119cf565b73ffffffffffffffffffffffffffffffffffffffff166117846112ac565b73ffffffffffffffffffffffffffffffffffffffff16146117da576040517f08c379a00000000000000000000000000000000000000000000000000000000081526004016117d1906123ea565b60405180910390fd5b600073ffffffffffffffffffffffffffffffffffffffff168173ffffffffffffffffffffffffffffffffffffffff16141561184a576040517f08c379a0000000000000000000000000000000000000000000000000000000008152600401611841906125c3565b60405180910390fd5b61185381611b79565b50565b61185e6119cf565b73ffffffffffffffffffffffffffffffffffffffff1661187c6112ac565b73ffffffffffffffffffffffffffffffffffffffff16146118d2576040517f08c379a00000000000000000000000000000000000000000000000000000000081526004016118c9906123ea565b60405180910390fd5b6118da6118f7565b6000600660006101000a81548160ff021916908315150217905550565b600660009054906101000a900460ff1661193d576040517fa1d1891400000000000000000000000000000000000000000000000000000000815260040160405180910390fd5b565b60001515600960003373ffffffffffffffffffffffffffffffffffffffff1673ffffffffffffffffffffffffffffffffffffffff16815260200190815260200160002060000160009054906101000a900460ff16151514156119cd576040517f1e567dd400000000000000000000000000000000000000000000000000000000815260040160405180910390fd5b565b600033905090565b611a5a846323b872dd60e01b8585856040516024016119f8939291906125e3565b604051602081830303815290604052907bffffffffffffffffffffffffffffffffffffffffffffffffffffffff19166020820180517bffffffffffffffffffffffffffffffffffffffffffffffffffffffff8381831617835250505050611caf565b50505050565b60008082600001511415611a775760009050611abb565b6a52b7d2dcc80cd2e4000000611a908360200151611d76565b83604001518460000151611aa49190612497565b611aae9190612497565b611ab89190612520565b90505b919050565b60006301dfe2006103e860045484611ad89190612497565b611ae29190612520565b611aec9190612520565b9050919050565b611b748363a9059cbb60e01b8484604051602401611b1292919061261a565b604051602081830303815290604052907bffffffffffffffffffffffffffffffffffffffffffffffffffffffff19166020820180517bffffffffffffffffffffffffffffffffffffffffffffffffffffffff8381831617835250505050611caf565b505050565b6000600160009054906101000a900473ffffffffffffffffffffffffffffffffffffffff16905081600160006101000a81548173ffffffffffffffffffffffffffffffffffffffff021916908373ffffffffffffffffffffffffffffffffffffffff1602179055508173ffffffffffffffffffffffffffffffffffffffff168173ffffffffffffffffffffffffffffffffffffffff167f8be0079c531659141344cd1fd0a4f28419497f9722a3daafe3b4186f6b6457e060405160405180910390a35050565b6000806000841415611c575760008091509150611ca8565b6103e860035485611c689190612497565b611c729190612520565b84611c7d919061236a565b6103e860035485611c8e9190612497565b611c989190612520565b84611ca3919061236a565b915091505b9250929050565b6000611d11826040518060400160405280602081526020017f5361666545524332303a206c6f772d6c6576656c2063616c6c206661696c65648152508573ffffffffffffffffffffffffffffffffffffffff16611daf9092919063ffffffff16565b9050600081511115611d715780806020019051810190611d31919061266f565b611d70576040517f08c379a0000000000000000000000000000000000000000000000000000000008152600401611d679061270e565b60405180910390fd5b5b505050565b60006301e1338069d3c21bcecceda10000008342611d94919061236a565b611d9e9190612497565b611da89190612520565b9050919050565b6060611dbe8484600085611dc7565b90509392505050565b606082471015611e0c576040517f08c379a0000000000000000000000000000000000000000000000000000000008152600401611e03906127a0565b60405180910390fd5b611e1585611edb565b611e54576040517f08c379a0000000000000000000000000000000000000000000000000000000008152600401611e4b9061280c565b60405180910390fd5b6000808673ffffffffffffffffffffffffffffffffffffffff168587604051611e7d91906128a6565b60006040518083038185875af1925050503d8060008114611eba576040519150601f19603f3d011682016040523d82523d6000602084013e611ebf565b606091505b5091509150611ecf828286611efe565b92505050949350505050565b6000808273ffffffffffffffffffffffffffffffffffffffff163b119050919050565b60608315611f0e57829050611f5e565b600083511115611f215782518084602001fd5b816040517f08c379a0000000000000000000000000000000000000000000000000000000008152600401611f559190612912565b60405180910390fd5b9392505050565b60405180606001604052806000815260200160008152602001611f86611f8c565b81525090565b6040518060e00160405280600081526020016000815260200160008152602001600081526020016000815260200160008152602001600081525090565b600080fd5b600073ffffffffffffffffffffffffffffffffffffffff82169050919050565b6000611ff982611fce565b9050919050565b61200981611fee565b811461201457600080fd5b50565b60008135905061202681612000565b92915050565b6000819050919050565b61203f8161202c565b811461204a57600080fd5b50565b60008135905061205c81612036565b92915050565b60008060006060848603121561207b5761207a611fc9565b5b600061208986828701612017565b935050602061209a8682870161204d565b92505060406120ab8682870161204d565b9150509250925092565b6120be8161202c565b82525050565b60e0820160008201516120da60008501826120b5565b5060208201516120ed60208501826120b5565b50604082015161210060408501826120b5565b50606082015161211360608501826120b5565b50608082015161212660808501826120b5565b5060a082015161213960a08501826120b5565b5060c082015161214c60c08501826120b5565b50505050565b6101208201600082015161216960008501826120b5565b50602082015161217c60208501826120b5565b50604082015161218f60408501826120c4565b50505050565b6000610120820190506121ab6000830184612152565b92915050565b6000602082840312156121c7576121c6611fc9565b5b60006121d584828501612017565b91505092915050565b60008115159050919050565b6121f3816121de565b82525050565b600060408201905061220e60008301856121ea565b61221b60208301846121ea565b9392505050565b61222b8161202c565b82525050565b60006020820190506122466000830184612222565b92915050565b600060208201905061226160008301846121ea565b92915050565b60006020828403121561227d5761227c611fc9565b5b600061228b8482850161204d565b91505092915050565b61229d81611fee565b82525050565b60006020820190506122b86000830184612294565b92915050565b600082825260208201905092915050565b7f5265656e7472616e637947756172643a207265656e7472616e742063616c6c00600082015250565b6000612305601f836122be565b9150612310826122cf565b602082019050919050565b60006020820190508181036000830152612334816122f8565b9050919050565b7f4e487b7100000000000000000000000000000000000000000000000000000000600052601160045260246000fd5b60006123758261202c565b91506123808361202c565b9250828210156123935761239261233b565b5b828203905092915050565b7f4f776e61626c653a2063616c6c6572206973206e6f7420746865206f776e6572600082015250565b60006123d46020836122be565b91506123df8261239e565b602082019050919050565b60006020820190508181036000830152612403816123c7565b9050919050565b60006124158261202c565b91506124208361202c565b9250827fffffffffffffffffffffffffffffffffffffffffffffffffffffffffffffffff038211156124555761245461233b565b5b828201905092915050565b60006060820190506124756000830186612222565b6124826020830185612222565b61248f6040830184612222565b949350505050565b60006124a28261202c565b91506124ad8361202c565b9250817fffffffffffffffffffffffffffffffffffffffffffffffffffffffffffffffff04831182151516156124e6576124e561233b565b5b828202905092915050565b7f4e487b7100000000000000000000000000000000000000000000000000000000600052601260045260246000fd5b600061252b8261202c565b91506125368361202c565b925082612546576125456124f1565b5b828204905092915050565b7f4f776e61626c653a206e6577206f776e657220697320746865207a65726f206160008201527f6464726573730000000000000000000000000000000000000000000000000000602082015250565b60006125ad6026836122be565b91506125b882612551565b604082019050919050565b600060208201905081810360008301526125dc816125a0565b9050919050565b60006060820190506125f86000830186612294565b6126056020830185612294565b6126126040830184612222565b949350505050565b600060408201905061262f6000830185612294565b61263c6020830184612222565b9392505050565b61264c816121de565b811461265757600080fd5b50565b60008151905061266981612643565b92915050565b60006020828403121561268557612684611fc9565b5b60006126938482850161265a565b91505092915050565b7f5361666545524332303a204552433230206f7065726174696f6e20646964206e60008201527f6f74207375636365656400000000000000000000000000000000000000000000602082015250565b60006126f8602a836122be565b91506127038261269c565b604082019050919050565b60006020820190508181036000830152612727816126eb565b9050919050565b7f416464726573733a20696e73756666696369656e742062616c616e636520666f60008201527f722063616c6c0000000000000000000000000000000000000000000000000000602082015250565b600061278a6026836122be565b91506127958261272e565b604082019050919050565b600060208201905081810360008301526127b98161277d565b9050919050565b7f416464726573733a2063616c6c20746f206e6f6e2d636f6e7472616374000000600082015250565b60006127f6601d836122be565b9150612801826127c0565b602082019050919050565b60006020820190508181036000830152612825816127e9565b9050919050565b600081519050919050565b600081905092915050565b60005b83811015612860578082015181840152602081019050612845565b8381111561286f576000848401525b50505050565b60006128808261282c565b61288a8185612837565b935061289a818560208601612842565b80840191505092915050565b60006128b28284612875565b915081905092915050565b600081519050919050565b6000601f19601f8301169050919050565b60006128e4826128bd565b6128ee81856122be565b93506128fe818560208601612842565b612907816128c8565b840191505092915050565b6000602082019050818103600083015261292c81846128d9565b90509291505056fea26469706673582212206080df30709ffc63f62f5f3d50c085629ce899587f1dda48bb1132431e8b5a6a64736f6c634300080b0033",
					"opcodes": "PUSH1 0x80 PUSH1 0x40 MSTORE CALLVALUE DUP1 ISZERO PUSH3 0x11 JUMPI PUSH1 0x0 DUP1 REVERT JUMPDEST POP PUSH1 0x40 MLOAD PUSH3 0x2BF0 CODESIZE SUB DUP1 PUSH3 0x2BF0 DUP4 CODECOPY DUP2 DUP2 ADD PUSH1 0x40 MSTORE DUP2 ADD SWAP1 PUSH3 0x37 SWAP2 SWAP1 PUSH3 0x244 JUMP JUMPDEST PUSH1 0x1 PUSH1 0x0 DUP2 SWAP1 SSTORE POP PUSH3 0x5F PUSH3 0x53 PUSH3 0x10C PUSH1 0x20 SHL PUSH1 0x20 SHR JUMP JUMPDEST PUSH3 0x114 PUSH1 0x20 SHL PUSH1 0x20 SHR JUMP JUMPDEST PUSH1 0xF PUSH1 0x3 DUP2 SWAP1 SSTORE POP PUSH1 0x50 PUSH1 0x4 DUP2 SWAP1 SSTORE POP DUP1 PUSH1 0xB PUSH1 0x0 PUSH2 0x100 EXP DUP2 SLOAD DUP2 PUSH20 0xFFFFFFFFFFFFFFFFFFFFFFFFFFFFFFFFFFFFFFFF MUL NOT AND SWAP1 DUP4 PUSH20 0xFFFFFFFFFFFFFFFFFFFFFFFFFFFFFFFFFFFFFFFF AND MUL OR SWAP1 SSTORE POP PUSH1 0x6 PUSH1 0x2 PUSH1 0x0 PUSH3 0x76A700 DUP2 MSTORE PUSH1 0x20 ADD SWAP1 DUP2 MSTORE PUSH1 0x20 ADD PUSH1 0x0 KECCAK256 DUP2 SWAP1 SSTORE POP PUSH1 0x7 PUSH1 0x2 PUSH1 0x0 PUSH3 0xED4E00 DUP2 MSTORE PUSH1 0x20 ADD SWAP1 DUP2 MSTORE PUSH1 0x20 ADD PUSH1 0x0 KECCAK256 DUP2 SWAP1 SSTORE POP PUSH1 0x8 PUSH1 0x2 PUSH1 0x0 PUSH4 0x1E13380 DUP2 MSTORE PUSH1 0x20 ADD SWAP1 DUP2 MSTORE PUSH1 0x20 ADD PUSH1 0x0 KECCAK256 DUP2 SWAP1 SSTORE POP POP PUSH3 0x276 JUMP JUMPDEST PUSH1 0x0 CALLER SWAP1 POP SWAP1 JUMP JUMPDEST PUSH1 0x0 PUSH1 0x1 PUSH1 0x0 SWAP1 SLOAD SWAP1 PUSH2 0x100 EXP SWAP1 DIV PUSH20 0xFFFFFFFFFFFFFFFFFFFFFFFFFFFFFFFFFFFFFFFF AND SWAP1 POP DUP2 PUSH1 0x1 PUSH1 0x0 PUSH2 0x100 EXP DUP2 SLOAD DUP2 PUSH20 0xFFFFFFFFFFFFFFFFFFFFFFFFFFFFFFFFFFFFFFFF MUL NOT AND SWAP1 DUP4 PUSH20 0xFFFFFFFFFFFFFFFFFFFFFFFFFFFFFFFFFFFFFFFF AND MUL OR SWAP1 SSTORE POP DUP2 PUSH20 0xFFFFFFFFFFFFFFFFFFFFFFFFFFFFFFFFFFFFFFFF AND DUP2 PUSH20 0xFFFFFFFFFFFFFFFFFFFFFFFFFFFFFFFFFFFFFFFF AND PUSH32 0x8BE0079C531659141344CD1FD0A4F28419497F9722A3DAAFE3B4186F6B6457E0 PUSH1 0x40 MLOAD PUSH1 0x40 MLOAD DUP1 SWAP2 SUB SWAP1 LOG3 POP POP JUMP JUMPDEST PUSH1 0x0 DUP1 REVERT JUMPDEST PUSH1 0x0 PUSH20 0xFFFFFFFFFFFFFFFFFFFFFFFFFFFFFFFFFFFFFFFF DUP3 AND SWAP1 POP SWAP2 SWAP1 POP JUMP JUMPDEST PUSH1 0x0 PUSH3 0x20C DUP3 PUSH3 0x1DF JUMP JUMPDEST SWAP1 POP SWAP2 SWAP1 POP JUMP JUMPDEST PUSH3 0x21E DUP2 PUSH3 0x1FF JUMP JUMPDEST DUP2 EQ PUSH3 0x22A JUMPI PUSH1 0x0 DUP1 REVERT JUMPDEST POP JUMP JUMPDEST PUSH1 0x0 DUP2 MLOAD SWAP1 POP PUSH3 0x23E DUP2 PUSH3 0x213 JUMP JUMPDEST SWAP3 SWAP2 POP POP JUMP JUMPDEST PUSH1 0x0 PUSH1 0x20 DUP3 DUP5 SUB SLT ISZERO PUSH3 0x25D JUMPI PUSH3 0x25C PUSH3 0x1DA JUMP JUMPDEST JUMPDEST PUSH1 0x0 PUSH3 0x26D DUP5 DUP3 DUP6 ADD PUSH3 0x22D JUMP JUMPDEST SWAP2 POP POP SWAP3 SWAP2 POP POP JUMP JUMPDEST PUSH2 0x296A DUP1 PUSH3 0x286 PUSH1 0x0 CODECOPY PUSH1 0x0 RETURN INVALID PUSH1 0x80 PUSH1 0x40 MSTORE CALLVALUE DUP1 ISZERO PUSH2 0x10 JUMPI PUSH1 0x0 DUP1 REVERT JUMPDEST POP PUSH1 0x4 CALLDATASIZE LT PUSH2 0x173 JUMPI PUSH1 0x0 CALLDATALOAD PUSH1 0xE0 SHR DUP1 PUSH4 0x8C8E8FEE GT PUSH2 0xDE JUMPI DUP1 PUSH4 0xBED9D861 GT PUSH2 0x97 JUMPI DUP1 PUSH4 0xD2A569C3 GT PUSH2 0x71 JUMPI DUP1 PUSH4 0xD2A569C3 EQ PUSH2 0x3CD JUMPI DUP1 PUSH4 0xD5DBDF1B EQ PUSH2 0x3D7 JUMPI DUP1 PUSH4 0xF2FDE38B EQ PUSH2 0x3F3 JUMPI DUP1 PUSH4 0xFAB2F86B EQ PUSH2 0x40F JUMPI PUSH2 0x173 JUMP JUMPDEST DUP1 PUSH4 0xBED9D861 EQ PUSH2 0x387 JUMPI DUP1 PUSH4 0xC63AA3E7 EQ PUSH2 0x391 JUMPI DUP1 PUSH4 0xCB79C2E1 EQ PUSH2 0x3AF JUMPI PUSH2 0x173 JUMP JUMPDEST DUP1 PUSH4 0x8C8E8FEE EQ PUSH2 0x29D JUMPI DUP1 PUSH4 0x8DA5CB5B EQ PUSH2 0x2BB JUMPI DUP1 PUSH4 0xA143A5F2 EQ PUSH2 0x2D9 JUMPI DUP1 PUSH4 0xA3EC138D EQ PUSH2 0x309 JUMPI DUP1 PUSH4 0xB5D9DF83 EQ PUSH2 0x339 JUMPI DUP1 PUSH4 0xB87DA76D EQ PUSH2 0x369 JUMPI PUSH2 0x173 JUMP JUMPDEST DUP1 PUSH4 0x632A9A52 GT PUSH2 0x130 JUMPI DUP1 PUSH4 0x632A9A52 EQ PUSH2 0x215 JUMPI DUP1 PUSH4 0x65F8C6C5 EQ PUSH2 0x21F JUMPI DUP1 PUSH4 0x671D2B75 EQ PUSH2 0x23B JUMPI DUP1 PUSH4 0x715018A6 EQ PUSH2 0x259 JUMPI DUP1 PUSH4 0x8891CF0D EQ PUSH2 0x263 JUMPI DUP1 PUSH4 0x8C63F97F EQ PUSH2 0x281 JUMPI PUSH2 0x173 JUMP JUMPDEST DUP1 PUSH4 0x70C8B74 EQ PUSH2 0x178 JUMPI DUP1 PUSH4 0xC51B88F EQ PUSH2 0x182 JUMPI DUP1 PUSH4 0x10486B6A EQ PUSH2 0x19E JUMPI DUP1 PUSH4 0x1EC6B60A EQ PUSH2 0x1BC JUMPI DUP1 PUSH4 0x2D15CC04 EQ PUSH2 0x1C6 JUMPI DUP1 PUSH4 0x5F5300FF EQ PUSH2 0x1F7 JUMPI JUMPDEST PUSH1 0x0 DUP1 REVERT JUMPDEST PUSH2 0x180 PUSH2 0x419 JUMP JUMPDEST STOP JUMPDEST PUSH2 0x19C PUSH1 0x4 DUP1 CALLDATASIZE SUB DUP2 ADD SWAP1 PUSH2 0x197 SWAP2 SWAP1 PUSH2 0x2062 JUMP JUMPDEST PUSH2 0x5B5 JUMP JUMPDEST STOP JUMPDEST PUSH2 0x1A6 PUSH2 0x972 JUMP JUMPDEST PUSH1 0x40 MLOAD PUSH2 0x1B3 SWAP2 SWAP1 PUSH2 0x2195 JUMP JUMPDEST PUSH1 0x40 MLOAD DUP1 SWAP2 SUB SWAP1 RETURN JUMPDEST PUSH2 0x1C4 PUSH2 0xB47 JUMP JUMPDEST STOP JUMPDEST PUSH2 0x1E0 PUSH1 0x4 DUP1 CALLDATASIZE SUB DUP2 ADD SWAP1 PUSH2 0x1DB SWAP2 SWAP1 PUSH2 0x21B1 JUMP JUMPDEST PUSH2 0xC9E JUMP JUMPDEST PUSH1 0x40 MLOAD PUSH2 0x1EE SWAP3 SWAP2 SWAP1 PUSH2 0x21F9 JUMP JUMPDEST PUSH1 0x40 MLOAD DUP1 SWAP2 SUB SWAP1 RETURN JUMPDEST PUSH2 0x1FF PUSH2 0xD5D JUMP JUMPDEST PUSH1 0x40 MLOAD PUSH2 0x20C SWAP2 SWAP1 PUSH2 0x2231 JUMP JUMPDEST PUSH1 0x40 MLOAD DUP1 SWAP2 SUB SWAP1 RETURN JUMPDEST PUSH2 0x21D PUSH2 0xD63 JUMP JUMPDEST STOP JUMPDEST PUSH2 0x239 PUSH1 0x4 DUP1 CALLDATASIZE SUB DUP2 ADD SWAP1 PUSH2 0x234 SWAP2 SWAP1 PUSH2 0x21B1 JUMP JUMPDEST PUSH2 0xF07 JUMP JUMPDEST STOP JUMPDEST PUSH2 0x243 PUSH2 0xFEF JUMP JUMPDEST PUSH1 0x40 MLOAD PUSH2 0x250 SWAP2 SWAP1 PUSH2 0x224C JUMP JUMPDEST PUSH1 0x40 MLOAD DUP1 SWAP2 SUB SWAP1 RETURN JUMPDEST PUSH2 0x261 PUSH2 0x1100 JUMP JUMPDEST STOP JUMPDEST PUSH2 0x26B PUSH2 0x1188 JUMP JUMPDEST PUSH1 0x40 MLOAD PUSH2 0x278 SWAP2 SWAP1 PUSH2 0x2231 JUMP JUMPDEST PUSH1 0x40 MLOAD DUP1 SWAP2 SUB SWAP1 RETURN JUMPDEST PUSH2 0x29B PUSH1 0x4 DUP1 CALLDATASIZE SUB DUP2 ADD SWAP1 PUSH2 0x296 SWAP2 SWAP1 PUSH2 0x2267 JUMP JUMPDEST PUSH2 0x118E JUMP JUMPDEST STOP JUMPDEST PUSH2 0x2A5 PUSH2 0x1286 JUMP JUMPDEST PUSH1 0x40 MLOAD PUSH2 0x2B2 SWAP2 SWAP1 PUSH2 0x22A3 JUMP JUMPDEST PUSH1 0x40 MLOAD DUP1 SWAP2 SUB SWAP1 RETURN JUMPDEST PUSH2 0x2C3 PUSH2 0x12AC JUMP JUMPDEST PUSH1 0x40 MLOAD PUSH2 0x2D0 SWAP2 SWAP1 PUSH2 0x22A3 JUMP JUMPDEST PUSH1 0x40 MLOAD DUP1 SWAP2 SUB SWAP1 RETURN JUMPDEST PUSH2 0x2F3 PUSH1 0x4 DUP1 CALLDATASIZE SUB DUP2 ADD SWAP1 PUSH2 0x2EE SWAP2 SWAP1 PUSH2 0x2267 JUMP JUMPDEST PUSH2 0x12D6 JUMP JUMPDEST PUSH1 0x40 MLOAD PUSH2 0x300 SWAP2 SWAP1 PUSH2 0x2231 JUMP JUMPDEST PUSH1 0x40 MLOAD DUP1 SWAP2 SUB SWAP1 RETURN JUMPDEST PUSH2 0x323 PUSH1 0x4 DUP1 CALLDATASIZE SUB DUP2 ADD SWAP1 PUSH2 0x31E SWAP2 SWAP1 PUSH2 0x21B1 JUMP JUMPDEST PUSH2 0x12EE JUMP JUMPDEST PUSH1 0x40 MLOAD PUSH2 0x330 SWAP2 SWAP1 PUSH2 0x224C JUMP JUMPDEST PUSH1 0x40 MLOAD DUP1 SWAP2 SUB SWAP1 RETURN JUMPDEST PUSH2 0x353 PUSH1 0x4 DUP1 CALLDATASIZE SUB DUP2 ADD SWAP1 PUSH2 0x34E SWAP2 SWAP1 PUSH2 0x2267 JUMP JUMPDEST PUSH2 0x1319 JUMP JUMPDEST PUSH1 0x40 MLOAD PUSH2 0x360 SWAP2 SWAP1 PUSH2 0x2231 JUMP JUMPDEST PUSH1 0x40 MLOAD DUP1 SWAP2 SUB SWAP1 RETURN JUMPDEST PUSH2 0x371 PUSH2 0x133C JUMP JUMPDEST PUSH1 0x40 MLOAD PUSH2 0x37E SWAP2 SWAP1 PUSH2 0x2231 JUMP JUMPDEST PUSH1 0x40 MLOAD DUP1 SWAP2 SUB SWAP1 RETURN JUMPDEST PUSH2 0x38F PUSH2 0x1342 JUMP JUMPDEST STOP JUMPDEST PUSH2 0x399 PUSH2 0x15D3 JUMP JUMPDEST PUSH1 0x40 MLOAD PUSH2 0x3A6 SWAP2 SWAP1 PUSH2 0x2231 JUMP JUMPDEST PUSH1 0x40 MLOAD DUP1 SWAP2 SUB SWAP1 RETURN JUMPDEST PUSH2 0x3B7 PUSH2 0x15DB JUMP JUMPDEST PUSH1 0x40 MLOAD PUSH2 0x3C4 SWAP2 SWAP1 PUSH2 0x2231 JUMP JUMPDEST PUSH1 0x40 MLOAD DUP1 SWAP2 SUB SWAP1 RETURN JUMPDEST PUSH2 0x3D5 PUSH2 0x15E1 JUMP JUMPDEST STOP JUMPDEST PUSH2 0x3F1 PUSH1 0x4 DUP1 CALLDATASIZE SUB DUP2 ADD SWAP1 PUSH2 0x3EC SWAP2 SWAP1 PUSH2 0x2267 JUMP JUMPDEST PUSH2 0x1666 JUMP JUMPDEST STOP JUMPDEST PUSH2 0x40D PUSH1 0x4 DUP1 CALLDATASIZE SUB DUP2 ADD SWAP1 PUSH2 0x408 SWAP2 SWAP1 PUSH2 0x21B1 JUMP JUMPDEST PUSH2 0x175E JUMP JUMPDEST STOP JUMPDEST PUSH2 0x417 PUSH2 0x1856 JUMP JUMPDEST STOP JUMPDEST PUSH1 0x2 PUSH1 0x0 SLOAD EQ ISZERO PUSH2 0x45F JUMPI PUSH1 0x40 MLOAD PUSH32 0x8C379A000000000000000000000000000000000000000000000000000000000 DUP2 MSTORE PUSH1 0x4 ADD PUSH2 0x456 SWAP1 PUSH2 0x231B JUMP JUMPDEST PUSH1 0x40 MLOAD DUP1 SWAP2 SUB SWAP1 REVERT JUMPDEST PUSH1 0x2 PUSH1 0x0 DUP2 SWAP1 SSTORE POP PUSH2 0x46F PUSH2 0x18F7 JUMP JUMPDEST PUSH2 0x477 PUSH2 0x193F JUMP JUMPDEST PUSH1 0x0 ISZERO ISZERO PUSH1 0x9 PUSH1 0x0 CALLER PUSH20 0xFFFFFFFFFFFFFFFFFFFFFFFFFFFFFFFFFFFFFFFF AND PUSH20 0xFFFFFFFFFFFFFFFFFFFFFFFFFFFFFFFFFFFFFFFF AND DUP2 MSTORE PUSH1 0x20 ADD SWAP1 DUP2 MSTORE PUSH1 0x20 ADD PUSH1 0x0 KECCAK256 PUSH1 0x1 ADD PUSH1 0x0 PUSH1 0x7 SLOAD DUP2 MSTORE PUSH1 0x20 ADD SWAP1 DUP2 MSTORE PUSH1 0x20 ADD PUSH1 0x0 KECCAK256 PUSH1 0x0 SWAP1 SLOAD SWAP1 PUSH2 0x100 EXP SWAP1 DIV PUSH1 0xFF AND ISZERO ISZERO EQ ISZERO PUSH2 0x518 JUMPI PUSH1 0x40 MLOAD PUSH32 0x8B74220000000000000000000000000000000000000000000000000000000000 DUP2 MSTORE PUSH1 0x4 ADD PUSH1 0x40 MLOAD DUP1 SWAP2 SUB SWAP1 REVERT JUMPDEST PUSH1 0x0 ISZERO ISZERO PUSH1 0x9 PUSH1 0x0 CALLER PUSH20 0xFFFFFFFFFFFFFFFFFFFFFFFFFFFFFFFFFFFFFFFF AND PUSH20 0xFFFFFFFFFFFFFFFFFFFFFFFFFFFFFFFFFFFFFFFF AND DUP2 MSTORE PUSH1 0x20 ADD SWAP1 DUP2 MSTORE PUSH1 0x20 ADD PUSH1 0x0 KECCAK256 PUSH1 0x1 ADD PUSH1 0x0 PUSH1 0x7 SLOAD DUP2 MSTORE PUSH1 0x20 ADD SWAP1 DUP2 MSTORE PUSH1 0x20 ADD PUSH1 0x0 KECCAK256 PUSH1 0x0 SWAP1 SLOAD SWAP1 PUSH2 0x100 EXP SWAP1 POP POP POP PUSH1 0x1 PUSH1 0xA PUSH1 0x0 PUSH1 0x7 SLOAD DUP2 MSTORE PUSH1 0x20 ADD SWAP1 DUP2 MSTORE PUSH1 0x20 ADD PUSH1 0x0 KECCAK256 PUSH1 0x0 DUP3 DUP3 SLOAD PUSH2 0x5A4 SWAP2 SWAP1 PUSH2 0x236A JUMP JUMPDEST SWAP3 POP POP DUP2 SWAP1 SSTORE POP PUSH1 0x1 PUSH1 0x0 DUP2 SWAP1 SSTORE POP JUMP JUMPDEST PUSH1 0x2 PUSH1 0x0 SLOAD EQ ISZERO PUSH2 0x5FB JUMPI PUSH1 0x40 MLOAD PUSH32 0x8C379A000000000000000000000000000000000000000000000000000000000 DUP2 MSTORE PUSH1 0x4 ADD PUSH2 0x5F2 SWAP1 PUSH2 0x231B JUMP JUMPDEST PUSH1 0x40 MLOAD DUP1 SWAP2 SUB SWAP1 REVERT JUMPDEST PUSH1 0x2 PUSH1 0x0 DUP2 SWAP1 SSTORE POP PUSH2 0x60B PUSH2 0x19CF JUMP JUMPDEST PUSH20 0xFFFFFFFFFFFFFFFFFFFFFFFFFFFFFFFFFFFFFFFF AND PUSH2 0x629 PUSH2 0x12AC JUMP JUMPDEST PUSH20 0xFFFFFFFFFFFFFFFFFFFFFFFFFFFFFFFFFFFFFFFF AND EQ PUSH2 0x67F JUMPI PUSH1 0x40 MLOAD PUSH32 0x8C379A000000000000000000000000000000000000000000000000000000000 DUP2 MSTORE PUSH1 0x4 ADD PUSH2 0x676 SWAP1 PUSH2 0x23EA JUMP JUMPDEST PUSH1 0x40 MLOAD DUP1 SWAP2 SUB SWAP1 REVERT JUMPDEST PUSH1 0x0 DUP3 GT PUSH2 0x6B9 JUMPI PUSH1 0x40 MLOAD PUSH32 0x88B440D600000000000000000000000000000000000000000000000000000000 DUP2 MSTORE PUSH1 0x4 ADD PUSH1 0x40 MLOAD DUP1 SWAP2 SUB SWAP1 REVERT JUMPDEST PUSH1 0x0 PUSH1 0xC PUSH1 0x0 DUP6 PUSH20 0xFFFFFFFFFFFFFFFFFFFFFFFFFFFFFFFFFFFFFFFF AND PUSH20 0xFFFFFFFFFFFFFFFFFFFFFFFFFFFFFFFFFFFFFFFF AND DUP2 MSTORE PUSH1 0x20 ADD SWAP1 DUP2 MSTORE PUSH1 0x20 ADD PUSH1 0x0 KECCAK256 PUSH1 0x0 ADD SLOAD EQ PUSH2 0x735 JUMPI PUSH1 0x40 MLOAD PUSH32 0x4462D2700000000000000000000000000000000000000000000000000000000 DUP2 MSTORE PUSH1 0x4 ADD PUSH1 0x40 MLOAD DUP1 SWAP2 SUB SWAP1 REVERT JUMPDEST PUSH1 0x0 PUSH1 0x2 PUSH1 0x0 DUP4 DUP2 MSTORE PUSH1 0x20 ADD SWAP1 DUP2 MSTORE PUSH1 0x20 ADD PUSH1 0x0 KECCAK256 SLOAD EQ ISZERO PUSH2 0x783 JUMPI PUSH1 0x40 MLOAD PUSH32 0x95377BE400000000000000000000000000000000000000000000000000000000 DUP2 MSTORE PUSH1 0x4 ADD PUSH1 0x40 MLOAD DUP1 SWAP2 SUB SWAP1 REVERT JUMPDEST PUSH1 0x1 PUSH1 0x8 PUSH1 0x0 DUP3 DUP3 SLOAD PUSH2 0x796 SWAP2 SWAP1 PUSH2 0x240A JUMP JUMPDEST SWAP3 POP POP DUP2 SWAP1 SSTORE POP PUSH1 0x1 PUSH1 0x9 PUSH1 0x0 DUP6 PUSH20 0xFFFFFFFFFFFFFFFFFFFFFFFFFFFFFFFFFFFFFFFF AND PUSH20 0xFFFFFFFFFFFFFFFFFFFFFFFFFFFFFFFFFFFFFFFF AND DUP2 MSTORE PUSH1 0x20 ADD SWAP1 DUP2 MSTORE PUSH1 0x20 ADD PUSH1 0x0 KECCAK256 PUSH1 0x0 ADD PUSH1 0x0 PUSH2 0x100 EXP DUP2 SLOAD DUP2 PUSH1 0xFF MUL NOT AND SWAP1 DUP4 ISZERO ISZERO MUL OR SWAP1 SSTORE POP PUSH1 0x0 TIMESTAMP SWAP1 POP PUSH1 0x40 MLOAD DUP1 PUSH1 0xE0 ADD PUSH1 0x40 MSTORE DUP1 DUP5 DUP2 MSTORE PUSH1 0x20 ADD DUP3 DUP2 MSTORE PUSH1 0x20 ADD PUSH1 0x2 PUSH1 0x0 DUP6 DUP2 MSTORE PUSH1 0x20 ADD SWAP1 DUP2 MSTORE PUSH1 0x20 ADD PUSH1 0x0 KECCAK256 SLOAD DUP2 MSTORE PUSH1 0x20 ADD DUP3 DUP5 PUSH2 0x839 SWAP2 SWAP1 PUSH2 0x240A JUMP JUMPDEST DUP2 MSTORE PUSH1 0x20 ADD PUSH1 0x0 DUP2 MSTORE PUSH1 0x20 ADD PUSH1 0x0 DUP2 MSTORE PUSH1 0x20 ADD PUSH1 0x0 DUP2 MSTORE POP PUSH1 0xC PUSH1 0x0 DUP7 PUSH20 0xFFFFFFFFFFFFFFFFFFFFFFFFFFFFFFFFFFFFFFFF AND PUSH20 0xFFFFFFFFFFFFFFFFFFFFFFFFFFFFFFFFFFFFFFFF AND DUP2 MSTORE PUSH1 0x20 ADD SWAP1 DUP2 MSTORE PUSH1 0x20 ADD PUSH1 0x0 KECCAK256 PUSH1 0x0 DUP3 ADD MLOAD DUP2 PUSH1 0x0 ADD SSTORE PUSH1 0x20 DUP3 ADD MLOAD DUP2 PUSH1 0x1 ADD SSTORE PUSH1 0x40 DUP3 ADD MLOAD DUP2 PUSH1 0x2 ADD SSTORE PUSH1 0x60 DUP3 ADD MLOAD DUP2 PUSH1 0x3 ADD SSTORE PUSH1 0x80 DUP3 ADD MLOAD DUP2 PUSH1 0x4 ADD SSTORE PUSH1 0xA0 DUP3 ADD MLOAD DUP2 PUSH1 0x5 ADD SSTORE PUSH1 0xC0 DUP3 ADD MLOAD DUP2 PUSH1 0x6 ADD SSTORE SWAP1 POP POP PUSH2 0x907 PUSH1 0xB PUSH1 0x0 SWAP1 SLOAD SWAP1 PUSH2 0x100 EXP SWAP1 DIV PUSH20 0xFFFFFFFFFFFFFFFFFFFFFFFFFFFFFFFFFFFFFFFF AND CALLER ADDRESS DUP7 PUSH2 0x19D7 JUMP JUMPDEST DUP4 PUSH20 0xFFFFFFFFFFFFFFFFFFFFFFFFFFFFFFFFFFFFFFFF AND PUSH32 0xB4CAAF29ADDA3EEFEE3AD552A8E85058589BF834C7466CAE4EE58787F70589ED DUP5 DUP4 DUP5 DUP7 PUSH2 0x94D SWAP2 SWAP1 PUSH2 0x240A JUMP JUMPDEST PUSH1 0x40 MLOAD PUSH2 0x95C SWAP4 SWAP3 SWAP2 SWAP1 PUSH2 0x2460 JUMP JUMPDEST PUSH1 0x40 MLOAD DUP1 SWAP2 SUB SWAP1 LOG2 POP PUSH1 0x1 PUSH1 0x0 DUP2 SWAP1 SSTORE POP POP POP POP JUMP JUMPDEST PUSH2 0x97A PUSH2 0x1F65 JUMP JUMPDEST PUSH1 0x0 PUSH1 0xC PUSH1 0x0 CALLER PUSH20 0xFFFFFFFFFFFFFFFFFFFFFFFFFFFFFFFFFFFFFFFF AND PUSH20 0xFFFFFFFFFFFFFFFFFFFFFFFFFFFFFFFFFFFFFFFF AND DUP2 MSTORE PUSH1 0x20 ADD SWAP1 DUP2 MSTORE PUSH1 0x20 ADD PUSH1 0x0 KECCAK256 PUSH1 0x40 MLOAD DUP1 PUSH1 0xE0 ADD PUSH1 0x40 MSTORE SWAP1 DUP2 PUSH1 0x0 DUP3 ADD SLOAD DUP2 MSTORE PUSH1 0x20 ADD PUSH1 0x1 DUP3 ADD SLOAD DUP2 MSTORE PUSH1 0x20 ADD PUSH1 0x2 DUP3 ADD SLOAD DUP2 MSTORE PUSH1 0x20 ADD PUSH1 0x3 DUP3 ADD SLOAD DUP2 MSTORE PUSH1 0x20 ADD PUSH1 0x4 DUP3 ADD SLOAD DUP2 MSTORE PUSH1 0x20 ADD PUSH1 0x5 DUP3 ADD SLOAD DUP2 MSTORE PUSH1 0x20 ADD PUSH1 0x6 DUP3 ADD SLOAD DUP2 MSTORE POP POP SWAP1 POP PUSH1 0x0 DUP2 PUSH1 0x0 ADD MLOAD GT PUSH2 0xA4C JUMPI PUSH1 0x40 MLOAD PUSH32 0xB018F08700000000000000000000000000000000000000000000000000000000 DUP2 MSTORE PUSH1 0x4 ADD PUSH1 0x40 MLOAD DUP1 SWAP2 SUB SWAP1 REVERT JUMPDEST PUSH1 0x0 PUSH1 0x40 MLOAD DUP1 PUSH1 0x60 ADD PUSH1 0x40 MSTORE DUP1 PUSH1 0x0 DUP2 MSTORE PUSH1 0x20 ADD PUSH1 0x0 DUP2 MSTORE PUSH1 0x20 ADD DUP4 DUP2 MSTORE POP SWAP1 POP PUSH1 0x0 PUSH2 0xA78 DUP4 PUSH2 0x1A60 JUMP JUMPDEST SWAP1 POP TIMESTAMP DUP3 PUSH1 0x40 ADD MLOAD PUSH1 0x60 ADD MLOAD GT ISZERO PUSH2 0xAD8 JUMPI PUSH2 0x3E8 PUSH1 0x3 SLOAD DUP3 PUSH2 0xA9B SWAP2 SWAP1 PUSH2 0x2497 JUMP JUMPDEST PUSH2 0xAA5 SWAP2 SWAP1 PUSH2 0x2520 JUMP JUMPDEST PUSH2 0x3E8 PUSH1 0x3 SLOAD DUP6 PUSH1 0x0 ADD MLOAD PUSH2 0xABA SWAP2 SWAP1 PUSH2 0x2497 JUMP JUMPDEST PUSH2 0xAC4 SWAP2 SWAP1 PUSH2 0x2520 JUMP JUMPDEST PUSH2 0xACE SWAP2 SWAP1 PUSH2 0x240A JUMP JUMPDEST DUP3 PUSH1 0x20 ADD DUP2 DUP2 MSTORE POP POP JUMPDEST PUSH1 0x0 PUSH2 0xAE7 DUP5 PUSH1 0xC0 ADD MLOAD PUSH2 0x1319 JUMP JUMPDEST GT ISZERO PUSH2 0xB12 JUMPI PUSH1 0x0 PUSH2 0xAFC DUP5 PUSH1 0x0 ADD MLOAD PUSH2 0x1AC0 JUMP JUMPDEST SWAP1 POP DUP1 DUP4 PUSH1 0x40 ADD MLOAD PUSH1 0xA0 ADD DUP2 DUP2 MSTORE POP POP POP PUSH2 0xB22 JUMP JUMPDEST PUSH1 0x0 DUP3 PUSH1 0x40 ADD MLOAD PUSH1 0xA0 ADD DUP2 DUP2 MSTORE POP POP JUMPDEST DUP1 DUP3 PUSH1 0x40 ADD MLOAD PUSH1 0x80 ADD DUP2 DUP2 MSTORE POP POP DUP3 PUSH1 0x0 ADD MLOAD DUP3 PUSH1 0x0 ADD DUP2 DUP2 MSTORE POP POP DUP2 SWAP4 POP POP POP POP SWAP1 JUMP JUMPDEST PUSH1 0x2 PUSH1 0x0 SLOAD EQ ISZERO PUSH2 0xB8D JUMPI PUSH1 0x40 MLOAD PUSH32 0x8C379A000000000000000000000000000000000000000000000000000000000 DUP2 MSTORE PUSH1 0x4 ADD PUSH2 0xB84 SWAP1 PUSH2 0x231B JUMP JUMPDEST PUSH1 0x40 MLOAD DUP1 SWAP2 SUB SWAP1 REVERT JUMPDEST PUSH1 0x2 PUSH1 0x0 DUP2 SWAP1 SSTORE POP PUSH2 0xB9D PUSH2 0x19CF JUMP JUMPDEST PUSH20 0xFFFFFFFFFFFFFFFFFFFFFFFFFFFFFFFFFFFFFFFF AND PUSH2 0xBBB PUSH2 0x12AC JUMP JUMPDEST PUSH20 0xFFFFFFFFFFFFFFFFFFFFFFFFFFFFFFFFFFFFFFFF AND EQ PUSH2 0xC11 JUMPI PUSH1 0x40 MLOAD PUSH32 0x8C379A000000000000000000000000000000000000000000000000000000000 DUP2 MSTORE PUSH1 0x4 ADD PUSH2 0xC08 SWAP1 PUSH2 0x23EA JUMP JUMPDEST PUSH1 0x40 MLOAD DUP1 SWAP2 SUB SWAP1 REVERT JUMPDEST PUSH1 0x1 ISZERO ISZERO PUSH1 0x6 PUSH1 0x0 SWAP1 SLOAD SWAP1 PUSH2 0x100 EXP SWAP1 DIV PUSH1 0xFF AND ISZERO ISZERO EQ ISZERO PUSH2 0xC5F JUMPI PUSH1 0x40 MLOAD PUSH32 0x6DA4CD2E00000000000000000000000000000000000000000000000000000000 DUP2 MSTORE PUSH1 0x4 ADD PUSH1 0x40 MLOAD DUP1 SWAP2 SUB SWAP1 REVERT JUMPDEST PUSH1 0x1 PUSH1 0x6 PUSH1 0x0 PUSH2 0x100 EXP DUP2 SLOAD DUP2 PUSH1 0xFF MUL NOT AND SWAP1 DUP4 ISZERO ISZERO MUL OR SWAP1 SSTORE POP PUSH1 0x1 PUSH1 0x7 PUSH1 0x0 DUP3 DUP3 SLOAD PUSH2 0xC8D SWAP2 SWAP1 PUSH2 0x240A JUMP JUMPDEST SWAP3 POP POP DUP2 SWAP1 SSTORE POP PUSH1 0x1 PUSH1 0x0 DUP2 SWAP1 SSTORE POP JUMP JUMPDEST PUSH1 0x0 DUP1 PUSH1 0x9 PUSH1 0x0 DUP5 PUSH20 0xFFFFFFFFFFFFFFFFFFFFFFFFFFFFFFFFFFFFFFFF AND PUSH20 0xFFFFFFFFFFFFFFFFFFFFFFFFFFFFFFFFFFFFFFFF AND DUP2 MSTORE PUSH1 0x20 ADD SWAP1 DUP2 MSTORE PUSH1 0x20 ADD PUSH1 0x0 KECCAK256 PUSH1 0x0 ADD PUSH1 0x0 SWAP1 SLOAD SWAP1 PUSH2 0x100 EXP SWAP1 DIV PUSH1 0xFF AND PUSH1 0x9 PUSH1 0x0 DUP6 PUSH20 0xFFFFFFFFFFFFFFFFFFFFFFFFFFFFFFFFFFFFFFFF AND PUSH20 0xFFFFFFFFFFFFFFFFFFFFFFFFFFFFFFFFFFFFFFFF AND DUP2 MSTORE PUSH1 0x20 ADD SWAP1 DUP2 MSTORE PUSH1 0x20 ADD PUSH1 0x0 KECCAK256 PUSH1 0x1 ADD PUSH1 0x0 PUSH1 0x7 SLOAD DUP2 MSTORE PUSH1 0x20 ADD SWAP1 DUP2 MSTORE PUSH1 0x20 ADD PUSH1 0x0 KECCAK256 PUSH1 0x0 SWAP1 SLOAD SWAP1 PUSH2 0x100 EXP SWAP1 DIV PUSH1 0xFF AND SWAP2 POP SWAP2 POP SWAP2 POP SWAP2 JUMP JUMPDEST PUSH1 0x8 SLOAD DUP2 JUMP JUMPDEST PUSH1 0x2 PUSH1 0x0 SLOAD EQ ISZERO PUSH2 0xDA9 JUMPI PUSH1 0x40 MLOAD PUSH32 0x8C379A000000000000000000000000000000000000000000000000000000000 DUP2 MSTORE PUSH1 0x4 ADD PUSH2 0xDA0 SWAP1 PUSH2 0x231B JUMP JUMPDEST PUSH1 0x40 MLOAD DUP1 SWAP2 SUB SWAP1 REVERT JUMPDEST PUSH1 0x2 PUSH1 0x0 DUP2 SWAP1 SSTORE POP PUSH2 0xDB9 PUSH2 0x18F7 JUMP JUMPDEST PUSH2 0xDC1 PUSH2 0x193F JUMP JUMPDEST PUSH1 0x1 ISZERO ISZERO PUSH1 0x9 PUSH1 0x0 CALLER PUSH20 0xFFFFFFFFFFFFFFFFFFFFFFFFFFFFFFFFFFFFFFFF AND PUSH20 0xFFFFFFFFFFFFFFFFFFFFFFFFFFFFFFFFFFFFFFFF AND DUP2 MSTORE PUSH1 0x20 ADD SWAP1 DUP2 MSTORE PUSH1 0x20 ADD PUSH1 0x0 KECCAK256 PUSH1 0x1 ADD PUSH1 0x0 PUSH1 0x7 SLOAD DUP2 MSTORE PUSH1 0x20 ADD SWAP1 DUP2 MSTORE PUSH1 0x20 ADD PUSH1 0x0 KECCAK256 PUSH1 0x0 SWAP1 SLOAD SWAP1 PUSH2 0x100 EXP SWAP1 DIV PUSH1 0xFF AND ISZERO ISZERO EQ ISZERO PUSH2 0xE62 JUMPI PUSH1 0x40 MLOAD PUSH32 0x740E33B000000000000000000000000000000000000000000000000000000000 DUP2 MSTORE PUSH1 0x4 ADD PUSH1 0x40 MLOAD DUP1 SWAP2 SUB SWAP1 REVERT JUMPDEST PUSH1 0x1 PUSH1 0x9 PUSH1 0x0 CALLER PUSH20 0xFFFFFFFFFFFFFFFFFFFFFFFFFFFFFFFFFFFFFFFF AND PUSH20 0xFFFFFFFFFFFFFFFFFFFFFFFFFFFFFFFFFFFFFFFF AND DUP2 MSTORE PUSH1 0x20 ADD SWAP1 DUP2 MSTORE PUSH1 0x20 ADD PUSH1 0x0 KECCAK256 PUSH1 0x1 ADD PUSH1 0x0 PUSH1 0x7 SLOAD DUP2 MSTORE PUSH1 0x20 ADD SWAP1 DUP2 MSTORE PUSH1 0x20 ADD PUSH1 0x0 KECCAK256 PUSH1 0x0 PUSH2 0x100 EXP DUP2 SLOAD DUP2 PUSH1 0xFF MUL NOT AND SWAP1 DUP4 ISZERO ISZERO MUL OR SWAP1 SSTORE POP PUSH1 0x1 PUSH1 0xA PUSH1 0x0 PUSH1 0x7 SLOAD DUP2 MSTORE PUSH1 0x20 ADD SWAP1 DUP2 MSTORE PUSH1 0x20 ADD PUSH1 0x0 KECCAK256 PUSH1 0x0 DUP3 DUP3 SLOAD PUSH2 0xEF6 SWAP2 SWAP1 PUSH2 0x240A JUMP JUMPDEST SWAP3 POP POP DUP2 SWAP1 SSTORE POP PUSH1 0x1 PUSH1 0x0 DUP2 SWAP1 SSTORE POP JUMP JUMPDEST PUSH1 0x0 PUSH1 0xC PUSH1 0x0 DUP4 PUSH20 0xFFFFFFFFFFFFFFFFFFFFFFFFFFFFFFFFFFFFFFFF AND PUSH20 0xFFFFFFFFFFFFFFFFFFFFFFFFFFFFFFFFFFFFFFFF AND DUP2 MSTORE PUSH1 0x20 ADD SWAP1 DUP2 MSTORE PUSH1 0x20 ADD PUSH1 0x0 KECCAK256 SWAP1 POP PUSH1 0x0 DUP2 PUSH1 0x0 ADD SLOAD GT ISZERO PUSH2 0xFEB JUMPI PUSH1 0x0 PUSH2 0xF66 DUP3 PUSH1 0x6 ADD SLOAD PUSH2 0x1319 JUMP JUMPDEST EQ ISZERO PUSH2 0xF9E JUMPI PUSH1 0x40 MLOAD PUSH32 0xDD8456CC00000000000000000000000000000000000000000000000000000000 DUP2 MSTORE PUSH1 0x4 ADD PUSH1 0x40 MLOAD DUP1 SWAP2 SUB SWAP1 REVERT JUMPDEST PUSH1 0x0 DUP2 PUSH1 0x5 ADD DUP2 SWAP1 SSTORE POP TIMESTAMP DUP2 PUSH1 0x6 ADD DUP2 SWAP1 SSTORE POP PUSH2 0xFEA PUSH1 0xB PUSH1 0x0 SWAP1 SLOAD SWAP1 PUSH2 0x100 EXP SWAP1 DIV PUSH20 0xFFFFFFFFFFFFFFFFFFFFFFFFFFFFFFFFFFFFFFFF AND CALLER PUSH2 0xFE5 DUP5 PUSH1 0x0 ADD SLOAD PUSH2 0x1AC0 JUMP JUMPDEST PUSH2 0x1AF3 JUMP JUMPDEST JUMPDEST POP POP JUMP JUMPDEST PUSH1 0x0 PUSH2 0xFF9 PUSH2 0x19CF JUMP JUMPDEST PUSH20 0xFFFFFFFFFFFFFFFFFFFFFFFFFFFFFFFFFFFFFFFF AND PUSH2 0x1017 PUSH2 0x12AC JUMP JUMPDEST PUSH20 0xFFFFFFFFFFFFFFFFFFFFFFFFFFFFFFFFFFFFFFFF AND EQ PUSH2 0x106D JUMPI PUSH1 0x40 MLOAD PUSH32 0x8C379A000000000000000000000000000000000000000000000000000000000 DUP2 MSTORE PUSH1 0x4 ADD PUSH2 0x1064 SWAP1 PUSH2 0x23EA JUMP JUMPDEST PUSH1 0x40 MLOAD DUP1 SWAP2 SUB SWAP1 REVERT JUMPDEST PUSH2 0x1075 PUSH2 0x18F7 JUMP JUMPDEST PUSH1 0x1 PUSH1 0x8 SLOAD GT PUSH2 0x10B1 JUMPI PUSH1 0x40 MLOAD PUSH32 0x2F9686DE00000000000000000000000000000000000000000000000000000000 DUP2 MSTORE PUSH1 0x4 ADD PUSH1 0x40 MLOAD DUP1 SWAP2 SUB SWAP1 REVERT JUMPDEST PUSH1 0x0 PUSH1 0xA PUSH1 0x5 PUSH1 0x8 SLOAD PUSH2 0x10C4 SWAP2 SWAP1 PUSH2 0x2497 JUMP JUMPDEST PUSH2 0x10CE SWAP2 SWAP1 PUSH2 0x2520 JUMP JUMPDEST SWAP1 POP DUP1 PUSH1 0xA PUSH1 0x0 PUSH1 0x7 SLOAD DUP2 MSTORE PUSH1 0x20 ADD SWAP1 DUP2 MSTORE PUSH1 0x20 ADD PUSH1 0x0 KECCAK256 SLOAD GT ISZERO PUSH2 0x10F7 JUMPI PUSH1 0x1 SWAP2 POP POP PUSH2 0x10FD JUMP JUMPDEST PUSH1 0x0 SWAP2 POP POP JUMPDEST SWAP1 JUMP JUMPDEST PUSH2 0x1108 PUSH2 0x19CF JUMP JUMPDEST PUSH20 0xFFFFFFFFFFFFFFFFFFFFFFFFFFFFFFFFFFFFFFFF AND PUSH2 0x1126 PUSH2 0x12AC JUMP JUMPDEST PUSH20 0xFFFFFFFFFFFFFFFFFFFFFFFFFFFFFFFFFFFFFFFF AND EQ PUSH2 0x117C JUMPI PUSH1 0x40 MLOAD PUSH32 0x8C379A000000000000000000000000000000000000000000000000000000000 DUP2 MSTORE PUSH1 0x4 ADD PUSH2 0x1173 SWAP1 PUSH2 0x23EA JUMP JUMPDEST PUSH1 0x40 MLOAD DUP1 SWAP2 SUB SWAP1 REVERT JUMPDEST PUSH2 0x1186 PUSH1 0x0 PUSH2 0x1B79 JUMP JUMPDEST JUMP JUMPDEST PUSH1 0x4 SLOAD DUP2 JUMP JUMPDEST PUSH2 0x1196 PUSH2 0x19CF JUMP JUMPDEST PUSH20 0xFFFFFFFFFFFFFFFFFFFFFFFFFFFFFFFFFFFFFFFF AND PUSH2 0x11B4 PUSH2 0x12AC JUMP JUMPDEST PUSH20 0xFFFFFFFFFFFFFFFFFFFFFFFFFFFFFFFFFFFFFFFF AND EQ PUSH2 0x120A JUMPI PUSH1 0x40 MLOAD PUSH32 0x8C379A000000000000000000000000000000000000000000000000000000000 DUP2 MSTORE PUSH1 0x4 ADD PUSH2 0x1201 SWAP1 PUSH2 0x23EA JUMP JUMPDEST PUSH1 0x40 MLOAD DUP1 SWAP2 SUB SWAP1 REVERT JUMPDEST PUSH1 0x1E DUP2 GT ISZERO PUSH2 0x1245 JUMPI PUSH1 0x40 MLOAD PUSH32 0xF1A470D700000000000000000000000000000000000000000000000000000000 DUP2 MSTORE PUSH1 0x4 ADD PUSH1 0x40 MLOAD DUP1 SWAP2 SUB SWAP1 REVERT JUMPDEST DUP1 PUSH1 0x3 DUP2 SWAP1 SSTORE POP PUSH32 0xCFA4F4CF1CD64D13A167A8E75605E0C0C9D6700E903D17C5DC11F593254A04A9 DUP2 PUSH1 0x40 MLOAD PUSH2 0x127B SWAP2 SWAP1 PUSH2 0x2231 JUMP JUMPDEST PUSH1 0x40 MLOAD DUP1 SWAP2 SUB SWAP1 LOG1 POP JUMP JUMPDEST PUSH1 0xB PUSH1 0x0 SWAP1 SLOAD SWAP1 PUSH2 0x100 EXP SWAP1 DIV PUSH20 0xFFFFFFFFFFFFFFFFFFFFFFFFFFFFFFFFFFFFFFFF AND DUP2 JUMP JUMPDEST PUSH1 0x0 PUSH1 0x1 PUSH1 0x0 SWAP1 SLOAD SWAP1 PUSH2 0x100 EXP SWAP1 DIV PUSH20 0xFFFFFFFFFFFFFFFFFFFFFFFFFFFFFFFFFFFFFFFF AND SWAP1 POP SWAP1 JUMP JUMPDEST PUSH1 0xA PUSH1 0x20 MSTORE DUP1 PUSH1 0x0 MSTORE PUSH1 0x40 PUSH1 0x0 KECCAK256 PUSH1 0x0 SWAP2 POP SWAP1 POP SLOAD DUP2 JUMP JUMPDEST PUSH1 0x9 PUSH1 0x20 MSTORE DUP1 PUSH1 0x0 MSTORE PUSH1 0x40 PUSH1 0x0 KECCAK256 PUSH1 0x0 SWAP2 POP SWAP1 POP DUP1 PUSH1 0x0 ADD PUSH1 0x0 SWAP1 SLOAD SWAP1 PUSH2 0x100 EXP SWAP1 DIV PUSH1 0xFF AND SWAP1 POP DUP2 JUMP JUMPDEST PUSH1 0x0 PUSH3 0x93A80 DUP3 TIMESTAMP PUSH2 0x132B SWAP2 SWAP1 PUSH2 0x236A JUMP JUMPDEST PUSH2 0x1335 SWAP2 SWAP1 PUSH2 0x2520 JUMP JUMPDEST SWAP1 POP SWAP2 SWAP1 POP JUMP JUMPDEST PUSH1 0x5 SLOAD DUP2 JUMP JUMPDEST PUSH1 0x2 PUSH1 0x0 SLOAD EQ ISZERO PUSH2 0x1388 JUMPI PUSH1 0x40 MLOAD PUSH32 0x8C379A000000000000000000000000000000000000000000000000000000000 DUP2 MSTORE PUSH1 0x4 ADD PUSH2 0x137F SWAP1 PUSH2 0x231B JUMP JUMPDEST PUSH1 0x40 MLOAD DUP1 SWAP2 SUB SWAP1 REVERT JUMPDEST PUSH1 0x2 PUSH1 0x0 DUP2 SWAP1 SSTORE POP PUSH1 0x0 PUSH1 0xC PUSH1 0x0 CALLER PUSH20 0xFFFFFFFFFFFFFFFFFFFFFFFFFFFFFFFFFFFFFFFF AND PUSH20 0xFFFFFFFFFFFFFFFFFFFFFFFFFFFFFFFFFFFFFFFF AND DUP2 MSTORE PUSH1 0x20 ADD SWAP1 DUP2 MSTORE PUSH1 0x20 ADD PUSH1 0x0 KECCAK256 PUSH1 0x40 MLOAD DUP1 PUSH1 0xE0 ADD PUSH1 0x40 MSTORE SWAP1 DUP2 PUSH1 0x0 DUP3 ADD SLOAD DUP2 MSTORE PUSH1 0x20 ADD PUSH1 0x1 DUP3 ADD SLOAD DUP2 MSTORE PUSH1 0x20 ADD PUSH1 0x2 DUP3 ADD SLOAD DUP2 MSTORE PUSH1 0x20 ADD PUSH1 0x3 DUP3 ADD SLOAD DUP2 MSTORE PUSH1 0x20 ADD PUSH1 0x4 DUP3 ADD SLOAD DUP2 MSTORE PUSH1 0x20 ADD PUSH1 0x5 DUP3 ADD SLOAD DUP2 MSTORE PUSH1 0x20 ADD PUSH1 0x6 DUP3 ADD SLOAD DUP2 MSTORE POP POP SWAP1 POP PUSH1 0x0 PUSH2 0x142F DUP3 PUSH2 0x1A60 JUMP JUMPDEST SWAP1 POP PUSH1 0xC PUSH1 0x0 CALLER PUSH20 0xFFFFFFFFFFFFFFFFFFFFFFFFFFFFFFFFFFFFFFFF AND PUSH20 0xFFFFFFFFFFFFFFFFFFFFFFFFFFFFFFFFFFFFFFFF AND DUP2 MSTORE PUSH1 0x20 ADD SWAP1 DUP2 MSTORE PUSH1 0x20 ADD PUSH1 0x0 KECCAK256 PUSH1 0x0 DUP1 DUP3 ADD PUSH1 0x0 SWAP1 SSTORE PUSH1 0x1 DUP3 ADD PUSH1 0x0 SWAP1 SSTORE PUSH1 0x2 DUP3 ADD PUSH1 0x0 SWAP1 SSTORE PUSH1 0x3 DUP3 ADD PUSH1 0x0 SWAP1 SSTORE PUSH1 0x4 DUP3 ADD PUSH1 0x0 SWAP1 SSTORE PUSH1 0x5 DUP3 ADD PUSH1 0x0 SWAP1 SSTORE PUSH1 0x6 DUP3 ADD PUSH1 0x0 SWAP1 SSTORE POP POP PUSH1 0x1 PUSH1 0x8 PUSH1 0x0 DUP3 DUP3 SLOAD PUSH2 0x14BE SWAP2 SWAP1 PUSH2 0x236A JUMP JUMPDEST SWAP3 POP POP DUP2 SWAP1 SSTORE POP PUSH1 0x9 PUSH1 0x0 CALLER PUSH20 0xFFFFFFFFFFFFFFFFFFFFFFFFFFFFFFFFFFFFFFFF AND PUSH20 0xFFFFFFFFFFFFFFFFFFFFFFFFFFFFFFFFFFFFFFFF AND DUP2 MSTORE PUSH1 0x20 ADD SWAP1 DUP2 MSTORE PUSH1 0x20 ADD PUSH1 0x0 KECCAK256 PUSH1 0x1 ADD PUSH1 0x0 PUSH1 0x7 SLOAD DUP2 MSTORE PUSH1 0x20 ADD SWAP1 DUP2 MSTORE PUSH1 0x20 ADD PUSH1 0x0 KECCAK256 PUSH1 0x0 PUSH2 0x100 EXP DUP2 SLOAD SWAP1 PUSH1 0xFF MUL NOT AND SWAP1 SSTORE TIMESTAMP DUP3 PUSH1 0x60 ADD MLOAD GT ISZERO PUSH2 0x158A JUMPI PUSH1 0x0 DUP1 PUSH2 0x1547 DUP5 PUSH1 0x0 ADD MLOAD DUP5 PUSH2 0x1C3F JUMP JUMPDEST SWAP2 POP SWAP2 POP PUSH2 0x1583 PUSH1 0xB PUSH1 0x0 SWAP1 SLOAD SWAP1 PUSH2 0x100 EXP SWAP1 DIV PUSH20 0xFFFFFFFFFFFFFFFFFFFFFFFFFFFFFFFFFFFFFFFF AND CALLER DUP4 DUP6 PUSH2 0x157E SWAP2 SWAP1 PUSH2 0x240A JUMP JUMPDEST PUSH2 0x1AF3 JUMP JUMPDEST POP POP PUSH2 0x15C7 JUMP JUMPDEST PUSH2 0x15C6 PUSH1 0xB PUSH1 0x0 SWAP1 SLOAD SWAP1 PUSH2 0x100 EXP SWAP1 DIV PUSH20 0xFFFFFFFFFFFFFFFFFFFFFFFFFFFFFFFFFFFFFFFF AND CALLER DUP4 DUP6 PUSH1 0x0 ADD MLOAD PUSH2 0x15C1 SWAP2 SWAP1 PUSH2 0x240A JUMP JUMPDEST PUSH2 0x1AF3 JUMP JUMPDEST JUMPDEST POP POP PUSH1 0x1 PUSH1 0x0 DUP2 SWAP1 SSTORE POP JUMP JUMPDEST PUSH1 0x0 TIMESTAMP SWAP1 POP SWAP1 JUMP JUMPDEST PUSH1 0x3 SLOAD DUP2 JUMP JUMPDEST PUSH2 0x15E9 PUSH2 0x19CF JUMP JUMPDEST PUSH20 0xFFFFFFFFFFFFFFFFFFFFFFFFFFFFFFFFFFFFFFFF AND PUSH2 0x1607 PUSH2 0x12AC JUMP JUMPDEST PUSH20 0xFFFFFFFFFFFFFFFFFFFFFFFFFFFFFFFFFFFFFFFF AND EQ PUSH2 0x165D JUMPI PUSH1 0x40 MLOAD PUSH32 0x8C379A000000000000000000000000000000000000000000000000000000000 DUP2 MSTORE PUSH1 0x4 ADD PUSH2 0x1654 SWAP1 PUSH2 0x23EA JUMP JUMPDEST PUSH1 0x40 MLOAD DUP1 SWAP2 SUB SWAP1 REVERT JUMPDEST TIMESTAMP PUSH1 0x5 DUP2 SWAP1 SSTORE POP JUMP JUMPDEST PUSH2 0x166E PUSH2 0x19CF JUMP JUMPDEST PUSH20 0xFFFFFFFFFFFFFFFFFFFFFFFFFFFFFFFFFFFFFFFF AND PUSH2 0x168C PUSH2 0x12AC JUMP JUMPDEST PUSH20 0xFFFFFFFFFFFFFFFFFFFFFFFFFFFFFFFFFFFFFFFF AND EQ PUSH2 0x16E2 JUMPI PUSH1 0x40 MLOAD PUSH32 0x8C379A000000000000000000000000000000000000000000000000000000000 DUP2 MSTORE PUSH1 0x4 ADD PUSH2 0x16D9 SWAP1 PUSH2 0x23EA JUMP JUMPDEST PUSH1 0x40 MLOAD DUP1 SWAP2 SUB SWAP1 REVERT JUMPDEST PUSH1 0xC8 DUP2 GT ISZERO PUSH2 0x171D JUMPI PUSH1 0x40 MLOAD PUSH32 0xA552CF1000000000000000000000000000000000000000000000000000000000 DUP2 MSTORE PUSH1 0x4 ADD PUSH1 0x40 MLOAD DUP1 SWAP2 SUB SWAP1 REVERT JUMPDEST DUP1 PUSH1 0x4 DUP2 SWAP1 SSTORE POP PUSH32 0xCC672F1026B958C0CFBFDD89EBE8DDCBC127F16EC24DA6C2C7A4DE26A8B1857E DUP2 PUSH1 0x40 MLOAD PUSH2 0x1753 SWAP2 SWAP1 PUSH2 0x2231 JUMP JUMPDEST PUSH1 0x40 MLOAD DUP1 SWAP2 SUB SWAP1 LOG1 POP JUMP JUMPDEST PUSH2 0x1766 PUSH2 0x19CF JUMP JUMPDEST PUSH20 0xFFFFFFFFFFFFFFFFFFFFFFFFFFFFFFFFFFFFFFFF AND PUSH2 0x1784 PUSH2 0x12AC JUMP JUMPDEST PUSH20 0xFFFFFFFFFFFFFFFFFFFFFFFFFFFFFFFFFFFFFFFF AND EQ PUSH2 0x17DA JUMPI PUSH1 0x40 MLOAD PUSH32 0x8C379A000000000000000000000000000000000000000000000000000000000 DUP2 MSTORE PUSH1 0x4 ADD PUSH2 0x17D1 SWAP1 PUSH2 0x23EA JUMP JUMPDEST PUSH1 0x40 MLOAD DUP1 SWAP2 SUB SWAP1 REVERT JUMPDEST PUSH1 0x0 PUSH20 0xFFFFFFFFFFFFFFFFFFFFFFFFFFFFFFFFFFFFFFFF AND DUP2 PUSH20 0xFFFFFFFFFFFFFFFFFFFFFFFFFFFFFFFFFFFFFFFF AND EQ ISZERO PUSH2 0x184A JUMPI PUSH1 0x40 MLOAD PUSH32 0x8C379A000000000000000000000000000000000000000000000000000000000 DUP2 MSTORE PUSH1 0x4 ADD PUSH2 0x1841 SWAP1 PUSH2 0x25C3 JUMP JUMPDEST PUSH1 0x40 MLOAD DUP1 SWAP2 SUB SWAP1 REVERT JUMPDEST PUSH2 0x1853 DUP2 PUSH2 0x1B79 JUMP JUMPDEST POP JUMP JUMPDEST PUSH2 0x185E PUSH2 0x19CF JUMP JUMPDEST PUSH20 0xFFFFFFFFFFFFFFFFFFFFFFFFFFFFFFFFFFFFFFFF AND PUSH2 0x187C PUSH2 0x12AC JUMP JUMPDEST PUSH20 0xFFFFFFFFFFFFFFFFFFFFFFFFFFFFFFFFFFFFFFFF AND EQ PUSH2 0x18D2 JUMPI PUSH1 0x40 MLOAD PUSH32 0x8C379A000000000000000000000000000000000000000000000000000000000 DUP2 MSTORE PUSH1 0x4 ADD PUSH2 0x18C9 SWAP1 PUSH2 0x23EA JUMP JUMPDEST PUSH1 0x40 MLOAD DUP1 SWAP2 SUB SWAP1 REVERT JUMPDEST PUSH2 0x18DA PUSH2 0x18F7 JUMP JUMPDEST PUSH1 0x0 PUSH1 0x6 PUSH1 0x0 PUSH2 0x100 EXP DUP2 SLOAD DUP2 PUSH1 0xFF MUL NOT AND SWAP1 DUP4 ISZERO ISZERO MUL OR SWAP1 SSTORE POP JUMP JUMPDEST PUSH1 0x6 PUSH1 0x0 SWAP1 SLOAD SWAP1 PUSH2 0x100 EXP SWAP1 DIV PUSH1 0xFF AND PUSH2 0x193D JUMPI PUSH1 0x40 MLOAD PUSH32 0xA1D1891400000000000000000000000000000000000000000000000000000000 DUP2 MSTORE PUSH1 0x4 ADD PUSH1 0x40 MLOAD DUP1 SWAP2 SUB SWAP1 REVERT JUMPDEST JUMP JUMPDEST PUSH1 0x0 ISZERO ISZERO PUSH1 0x9 PUSH1 0x0 CALLER PUSH20 0xFFFFFFFFFFFFFFFFFFFFFFFFFFFFFFFFFFFFFFFF AND PUSH20 0xFFFFFFFFFFFFFFFFFFFFFFFFFFFFFFFFFFFFFFFF AND DUP2 MSTORE PUSH1 0x20 ADD SWAP1 DUP2 MSTORE PUSH1 0x20 ADD PUSH1 0x0 KECCAK256 PUSH1 0x0 ADD PUSH1 0x0 SWAP1 SLOAD SWAP1 PUSH2 0x100 EXP SWAP1 DIV PUSH1 0xFF AND ISZERO ISZERO EQ ISZERO PUSH2 0x19CD JUMPI PUSH1 0x40 MLOAD PUSH32 0x1E567DD400000000000000000000000000000000000000000000000000000000 DUP2 MSTORE PUSH1 0x4 ADD PUSH1 0x40 MLOAD DUP1 SWAP2 SUB SWAP1 REVERT JUMPDEST JUMP JUMPDEST PUSH1 0x0 CALLER SWAP1 POP SWAP1 JUMP JUMPDEST PUSH2 0x1A5A DUP5 PUSH4 0x23B872DD PUSH1 0xE0 SHL DUP6 DUP6 DUP6 PUSH1 0x40 MLOAD PUSH1 0x24 ADD PUSH2 0x19F8 SWAP4 SWAP3 SWAP2 SWAP1 PUSH2 0x25E3 JUMP JUMPDEST PUSH1 0x40 MLOAD PUSH1 0x20 DUP2 DUP4 SUB SUB DUP2 MSTORE SWAP1 PUSH1 0x40 MSTORE SWAP1 PUSH28 0xFFFFFFFFFFFFFFFFFFFFFFFFFFFFFFFFFFFFFFFFFFFFFFFFFFFFFFFF NOT AND PUSH1 0x20 DUP3 ADD DUP1 MLOAD PUSH28 0xFFFFFFFFFFFFFFFFFFFFFFFFFFFFFFFFFFFFFFFFFFFFFFFFFFFFFFFF DUP4 DUP2 DUP4 AND OR DUP4 MSTORE POP POP POP POP PUSH2 0x1CAF JUMP JUMPDEST POP POP POP POP JUMP JUMPDEST PUSH1 0x0 DUP1 DUP3 PUSH1 0x0 ADD MLOAD EQ ISZERO PUSH2 0x1A77 JUMPI PUSH1 0x0 SWAP1 POP PUSH2 0x1ABB JUMP JUMPDEST PUSH11 0x52B7D2DCC80CD2E4000000 PUSH2 0x1A90 DUP4 PUSH1 0x20 ADD MLOAD PUSH2 0x1D76 JUMP JUMPDEST DUP4 PUSH1 0x40 ADD MLOAD DUP5 PUSH1 0x0 ADD MLOAD PUSH2 0x1AA4 SWAP2 SWAP1 PUSH2 0x2497 JUMP JUMPDEST PUSH2 0x1AAE SWAP2 SWAP1 PUSH2 0x2497 JUMP JUMPDEST PUSH2 0x1AB8 SWAP2 SWAP1 PUSH2 0x2520 JUMP JUMPDEST SWAP1 POP JUMPDEST SWAP2 SWAP1 POP JUMP JUMPDEST PUSH1 0x0 PUSH4 0x1DFE200 PUSH2 0x3E8 PUSH1 0x4 SLOAD DUP5 PUSH2 0x1AD8 SWAP2 SWAP1 PUSH2 0x2497 JUMP JUMPDEST PUSH2 0x1AE2 SWAP2 SWAP1 PUSH2 0x2520 JUMP JUMPDEST PUSH2 0x1AEC SWAP2 SWAP1 PUSH2 0x2520 JUMP JUMPDEST SWAP1 POP SWAP2 SWAP1 POP JUMP JUMPDEST PUSH2 0x1B74 DUP4 PUSH4 0xA9059CBB PUSH1 0xE0 SHL DUP5 DUP5 PUSH1 0x40 MLOAD PUSH1 0x24 ADD PUSH2 0x1B12 SWAP3 SWAP2 SWAP1 PUSH2 0x261A JUMP JUMPDEST PUSH1 0x40 MLOAD PUSH1 0x20 DUP2 DUP4 SUB SUB DUP2 MSTORE SWAP1 PUSH1 0x40 MSTORE SWAP1 PUSH28 0xFFFFFFFFFFFFFFFFFFFFFFFFFFFFFFFFFFFFFFFFFFFFFFFFFFFFFFFF NOT AND PUSH1 0x20 DUP3 ADD DUP1 MLOAD PUSH28 0xFFFFFFFFFFFFFFFFFFFFFFFFFFFFFFFFFFFFFFFFFFFFFFFFFFFFFFFF DUP4 DUP2 DUP4 AND OR DUP4 MSTORE POP POP POP POP PUSH2 0x1CAF JUMP JUMPDEST POP POP POP JUMP JUMPDEST PUSH1 0x0 PUSH1 0x1 PUSH1 0x0 SWAP1 SLOAD SWAP1 PUSH2 0x100 EXP SWAP1 DIV PUSH20 0xFFFFFFFFFFFFFFFFFFFFFFFFFFFFFFFFFFFFFFFF AND SWAP1 POP DUP2 PUSH1 0x1 PUSH1 0x0 PUSH2 0x100 EXP DUP2 SLOAD DUP2 PUSH20 0xFFFFFFFFFFFFFFFFFFFFFFFFFFFFFFFFFFFFFFFF MUL NOT AND SWAP1 DUP4 PUSH20 0xFFFFFFFFFFFFFFFFFFFFFFFFFFFFFFFFFFFFFFFF AND MUL OR SWAP1 SSTORE POP DUP2 PUSH20 0xFFFFFFFFFFFFFFFFFFFFFFFFFFFFFFFFFFFFFFFF AND DUP2 PUSH20 0xFFFFFFFFFFFFFFFFFFFFFFFFFFFFFFFFFFFFFFFF AND PUSH32 0x8BE0079C531659141344CD1FD0A4F28419497F9722A3DAAFE3B4186F6B6457E0 PUSH1 0x40 MLOAD PUSH1 0x40 MLOAD DUP1 SWAP2 SUB SWAP1 LOG3 POP POP JUMP JUMPDEST PUSH1 0x0 DUP1 PUSH1 0x0 DUP5 EQ ISZERO PUSH2 0x1C57 JUMPI PUSH1 0x0 DUP1 SWAP2 POP SWAP2 POP PUSH2 0x1CA8 JUMP JUMPDEST PUSH2 0x3E8 PUSH1 0x3 SLOAD DUP6 PUSH2 0x1C68 SWAP2 SWAP1 PUSH2 0x2497 JUMP JUMPDEST PUSH2 0x1C72 SWAP2 SWAP1 PUSH2 0x2520 JUMP JUMPDEST DUP5 PUSH2 0x1C7D SWAP2 SWAP1 PUSH2 0x236A JUMP JUMPDEST PUSH2 0x3E8 PUSH1 0x3 SLOAD DUP6 PUSH2 0x1C8E SWAP2 SWAP1 PUSH2 0x2497 JUMP JUMPDEST PUSH2 0x1C98 SWAP2 SWAP1 PUSH2 0x2520 JUMP JUMPDEST DUP5 PUSH2 0x1CA3 SWAP2 SWAP1 PUSH2 0x236A JUMP JUMPDEST SWAP2 POP SWAP2 POP JUMPDEST SWAP3 POP SWAP3 SWAP1 POP JUMP JUMPDEST PUSH1 0x0 PUSH2 0x1D11 DUP3 PUSH1 0x40 MLOAD DUP1 PUSH1 0x40 ADD PUSH1 0x40 MSTORE DUP1 PUSH1 0x20 DUP2 MSTORE PUSH1 0x20 ADD PUSH32 0x5361666545524332303A206C6F772D6C6576656C2063616C6C206661696C6564 DUP2 MSTORE POP DUP6 PUSH20 0xFFFFFFFFFFFFFFFFFFFFFFFFFFFFFFFFFFFFFFFF AND PUSH2 0x1DAF SWAP1 SWAP3 SWAP2 SWAP1 PUSH4 0xFFFFFFFF AND JUMP JUMPDEST SWAP1 POP PUSH1 0x0 DUP2 MLOAD GT ISZERO PUSH2 0x1D71 JUMPI DUP1 DUP1 PUSH1 0x20 ADD SWAP1 MLOAD DUP2 ADD SWAP1 PUSH2 0x1D31 SWAP2 SWAP1 PUSH2 0x266F JUMP JUMPDEST PUSH2 0x1D70 JUMPI PUSH1 0x40 MLOAD PUSH32 0x8C379A000000000000000000000000000000000000000000000000000000000 DUP2 MSTORE PUSH1 0x4 ADD PUSH2 0x1D67 SWAP1 PUSH2 0x270E JUMP JUMPDEST PUSH1 0x40 MLOAD DUP1 SWAP2 SUB SWAP1 REVERT JUMPDEST JUMPDEST POP POP POP JUMP JUMPDEST PUSH1 0x0 PUSH4 0x1E13380 PUSH10 0xD3C21BCECCEDA1000000 DUP4 TIMESTAMP PUSH2 0x1D94 SWAP2 SWAP1 PUSH2 0x236A JUMP JUMPDEST PUSH2 0x1D9E SWAP2 SWAP1 PUSH2 0x2497 JUMP JUMPDEST PUSH2 0x1DA8 SWAP2 SWAP1 PUSH2 0x2520 JUMP JUMPDEST SWAP1 POP SWAP2 SWAP1 POP JUMP JUMPDEST PUSH1 0x60 PUSH2 0x1DBE DUP5 DUP5 PUSH1 0x0 DUP6 PUSH2 0x1DC7 JUMP JUMPDEST SWAP1 POP SWAP4 SWAP3 POP POP POP JUMP JUMPDEST PUSH1 0x60 DUP3 SELFBALANCE LT ISZERO PUSH2 0x1E0C JUMPI PUSH1 0x40 MLOAD PUSH32 0x8C379A000000000000000000000000000000000000000000000000000000000 DUP2 MSTORE PUSH1 0x4 ADD PUSH2 0x1E03 SWAP1 PUSH2 0x27A0 JUMP JUMPDEST PUSH1 0x40 MLOAD DUP1 SWAP2 SUB SWAP1 REVERT JUMPDEST PUSH2 0x1E15 DUP6 PUSH2 0x1EDB JUMP JUMPDEST PUSH2 0x1E54 JUMPI PUSH1 0x40 MLOAD PUSH32 0x8C379A000000000000000000000000000000000000000000000000000000000 DUP2 MSTORE PUSH1 0x4 ADD PUSH2 0x1E4B SWAP1 PUSH2 0x280C JUMP JUMPDEST PUSH1 0x40 MLOAD DUP1 SWAP2 SUB SWAP1 REVERT JUMPDEST PUSH1 0x0 DUP1 DUP7 PUSH20 0xFFFFFFFFFFFFFFFFFFFFFFFFFFFFFFFFFFFFFFFF AND DUP6 DUP8 PUSH1 0x40 MLOAD PUSH2 0x1E7D SWAP2 SWAP1 PUSH2 0x28A6 JUMP JUMPDEST PUSH1 0x0 PUSH1 0x40 MLOAD DUP1 DUP4 SUB DUP2 DUP6 DUP8 GAS CALL SWAP3 POP POP POP RETURNDATASIZE DUP1 PUSH1 0x0 DUP2 EQ PUSH2 0x1EBA JUMPI PUSH1 0x40 MLOAD SWAP2 POP PUSH1 0x1F NOT PUSH1 0x3F RETURNDATASIZE ADD AND DUP3 ADD PUSH1 0x40 MSTORE RETURNDATASIZE DUP3 MSTORE RETURNDATASIZE PUSH1 0x0 PUSH1 0x20 DUP5 ADD RETURNDATACOPY PUSH2 0x1EBF JUMP JUMPDEST PUSH1 0x60 SWAP2 POP JUMPDEST POP SWAP2 POP SWAP2 POP PUSH2 0x1ECF DUP3 DUP3 DUP7 PUSH2 0x1EFE JUMP JUMPDEST SWAP3 POP POP POP SWAP5 SWAP4 POP POP POP POP JUMP JUMPDEST PUSH1 0x0 DUP1 DUP3 PUSH20 0xFFFFFFFFFFFFFFFFFFFFFFFFFFFFFFFFFFFFFFFF AND EXTCODESIZE GT SWAP1 POP SWAP2 SWAP1 POP JUMP JUMPDEST PUSH1 0x60 DUP4 ISZERO PUSH2 0x1F0E JUMPI DUP3 SWAP1 POP PUSH2 0x1F5E JUMP JUMPDEST PUSH1 0x0 DUP4 MLOAD GT ISZERO PUSH2 0x1F21 JUMPI DUP3 MLOAD DUP1 DUP5 PUSH1 0x20 ADD REVERT JUMPDEST DUP2 PUSH1 0x40 MLOAD PUSH32 0x8C379A000000000000000000000000000000000000000000000000000000000 DUP2 MSTORE PUSH1 0x4 ADD PUSH2 0x1F55 SWAP2 SWAP1 PUSH2 0x2912 JUMP JUMPDEST PUSH1 0x40 MLOAD DUP1 SWAP2 SUB SWAP1 REVERT JUMPDEST SWAP4 SWAP3 POP POP POP JUMP JUMPDEST PUSH1 0x40 MLOAD DUP1 PUSH1 0x60 ADD PUSH1 0x40 MSTORE DUP1 PUSH1 0x0 DUP2 MSTORE PUSH1 0x20 ADD PUSH1 0x0 DUP2 MSTORE PUSH1 0x20 ADD PUSH2 0x1F86 PUSH2 0x1F8C JUMP JUMPDEST DUP2 MSTORE POP SWAP1 JUMP JUMPDEST PUSH1 0x40 MLOAD DUP1 PUSH1 0xE0 ADD PUSH1 0x40 MSTORE DUP1 PUSH1 0x0 DUP2 MSTORE PUSH1 0x20 ADD PUSH1 0x0 DUP2 MSTORE PUSH1 0x20 ADD PUSH1 0x0 DUP2 MSTORE PUSH1 0x20 ADD PUSH1 0x0 DUP2 MSTORE PUSH1 0x20 ADD PUSH1 0x0 DUP2 MSTORE PUSH1 0x20 ADD PUSH1 0x0 DUP2 MSTORE PUSH1 0x20 ADD PUSH1 0x0 DUP2 MSTORE POP SWAP1 JUMP JUMPDEST PUSH1 0x0 DUP1 REVERT JUMPDEST PUSH1 0x0 PUSH20 0xFFFFFFFFFFFFFFFFFFFFFFFFFFFFFFFFFFFFFFFF DUP3 AND SWAP1 POP SWAP2 SWAP1 POP JUMP JUMPDEST PUSH1 0x0 PUSH2 0x1FF9 DUP3 PUSH2 0x1FCE JUMP JUMPDEST SWAP1 POP SWAP2 SWAP1 POP JUMP JUMPDEST PUSH2 0x2009 DUP2 PUSH2 0x1FEE JUMP JUMPDEST DUP2 EQ PUSH2 0x2014 JUMPI PUSH1 0x0 DUP1 REVERT JUMPDEST POP JUMP JUMPDEST PUSH1 0x0 DUP2 CALLDATALOAD SWAP1 POP PUSH2 0x2026 DUP2 PUSH2 0x2000 JUMP JUMPDEST SWAP3 SWAP2 POP POP JUMP JUMPDEST PUSH1 0x0 DUP2 SWAP1 POP SWAP2 SWAP1 POP JUMP JUMPDEST PUSH2 0x203F DUP2 PUSH2 0x202C JUMP JUMPDEST DUP2 EQ PUSH2 0x204A JUMPI PUSH1 0x0 DUP1 REVERT JUMPDEST POP JUMP JUMPDEST PUSH1 0x0 DUP2 CALLDATALOAD SWAP1 POP PUSH2 0x205C DUP2 PUSH2 0x2036 JUMP JUMPDEST SWAP3 SWAP2 POP POP JUMP JUMPDEST PUSH1 0x0 DUP1 PUSH1 0x0 PUSH1 0x60 DUP5 DUP7 SUB SLT ISZERO PUSH2 0x207B JUMPI PUSH2 0x207A PUSH2 0x1FC9 JUMP JUMPDEST JUMPDEST PUSH1 0x0 PUSH2 0x2089 DUP7 DUP3 DUP8 ADD PUSH2 0x2017 JUMP JUMPDEST SWAP4 POP POP PUSH1 0x20 PUSH2 0x209A DUP7 DUP3 DUP8 ADD PUSH2 0x204D JUMP JUMPDEST SWAP3 POP POP PUSH1 0x40 PUSH2 0x20AB DUP7 DUP3 DUP8 ADD PUSH2 0x204D JUMP JUMPDEST SWAP2 POP POP SWAP3 POP SWAP3 POP SWAP3 JUMP JUMPDEST PUSH2 0x20BE DUP2 PUSH2 0x202C JUMP JUMPDEST DUP3 MSTORE POP POP JUMP JUMPDEST PUSH1 0xE0 DUP3 ADD PUSH1 0x0 DUP3 ADD MLOAD PUSH2 0x20DA PUSH1 0x0 DUP6 ADD DUP3 PUSH2 0x20B5 JUMP JUMPDEST POP PUSH1 0x20 DUP3 ADD MLOAD PUSH2 0x20ED PUSH1 0x20 DUP6 ADD DUP3 PUSH2 0x20B5 JUMP JUMPDEST POP PUSH1 0x40 DUP3 ADD MLOAD PUSH2 0x2100 PUSH1 0x40 DUP6 ADD DUP3 PUSH2 0x20B5 JUMP JUMPDEST POP PUSH1 0x60 DUP3 ADD MLOAD PUSH2 0x2113 PUSH1 0x60 DUP6 ADD DUP3 PUSH2 0x20B5 JUMP JUMPDEST POP PUSH1 0x80 DUP3 ADD MLOAD PUSH2 0x2126 PUSH1 0x80 DUP6 ADD DUP3 PUSH2 0x20B5 JUMP JUMPDEST POP PUSH1 0xA0 DUP3 ADD MLOAD PUSH2 0x2139 PUSH1 0xA0 DUP6 ADD DUP3 PUSH2 0x20B5 JUMP JUMPDEST POP PUSH1 0xC0 DUP3 ADD MLOAD PUSH2 0x214C PUSH1 0xC0 DUP6 ADD DUP3 PUSH2 0x20B5 JUMP JUMPDEST POP POP POP POP JUMP JUMPDEST PUSH2 0x120 DUP3 ADD PUSH1 0x0 DUP3 ADD MLOAD PUSH2 0x2169 PUSH1 0x0 DUP6 ADD DUP3 PUSH2 0x20B5 JUMP JUMPDEST POP PUSH1 0x20 DUP3 ADD MLOAD PUSH2 0x217C PUSH1 0x20 DUP6 ADD DUP3 PUSH2 0x20B5 JUMP JUMPDEST POP PUSH1 0x40 DUP3 ADD MLOAD PUSH2 0x218F PUSH1 0x40 DUP6 ADD DUP3 PUSH2 0x20C4 JUMP JUMPDEST POP POP POP POP JUMP JUMPDEST PUSH1 0x0 PUSH2 0x120 DUP3 ADD SWAP1 POP PUSH2 0x21AB PUSH1 0x0 DUP4 ADD DUP5 PUSH2 0x2152 JUMP JUMPDEST SWAP3 SWAP2 POP POP JUMP JUMPDEST PUSH1 0x0 PUSH1 0x20 DUP3 DUP5 SUB SLT ISZERO PUSH2 0x21C7 JUMPI PUSH2 0x21C6 PUSH2 0x1FC9 JUMP JUMPDEST JUMPDEST PUSH1 0x0 PUSH2 0x21D5 DUP5 DUP3 DUP6 ADD PUSH2 0x2017 JUMP JUMPDEST SWAP2 POP POP SWAP3 SWAP2 POP POP JUMP JUMPDEST PUSH1 0x0 DUP2 ISZERO ISZERO SWAP1 POP SWAP2 SWAP1 POP JUMP JUMPDEST PUSH2 0x21F3 DUP2 PUSH2 0x21DE JUMP JUMPDEST DUP3 MSTORE POP POP JUMP JUMPDEST PUSH1 0x0 PUSH1 0x40 DUP3 ADD SWAP1 POP PUSH2 0x220E PUSH1 0x0 DUP4 ADD DUP6 PUSH2 0x21EA JUMP JUMPDEST PUSH2 0x221B PUSH1 0x20 DUP4 ADD DUP5 PUSH2 0x21EA JUMP JUMPDEST SWAP4 SWAP3 POP POP POP JUMP JUMPDEST PUSH2 0x222B DUP2 PUSH2 0x202C JUMP JUMPDEST DUP3 MSTORE POP POP JUMP JUMPDEST PUSH1 0x0 PUSH1 0x20 DUP3 ADD SWAP1 POP PUSH2 0x2246 PUSH1 0x0 DUP4 ADD DUP5 PUSH2 0x2222 JUMP JUMPDEST SWAP3 SWAP2 POP POP JUMP JUMPDEST PUSH1 0x0 PUSH1 0x20 DUP3 ADD SWAP1 POP PUSH2 0x2261 PUSH1 0x0 DUP4 ADD DUP5 PUSH2 0x21EA JUMP JUMPDEST SWAP3 SWAP2 POP POP JUMP JUMPDEST PUSH1 0x0 PUSH1 0x20 DUP3 DUP5 SUB SLT ISZERO PUSH2 0x227D JUMPI PUSH2 0x227C PUSH2 0x1FC9 JUMP JUMPDEST JUMPDEST PUSH1 0x0 PUSH2 0x228B DUP5 DUP3 DUP6 ADD PUSH2 0x204D JUMP JUMPDEST SWAP2 POP POP SWAP3 SWAP2 POP POP JUMP JUMPDEST PUSH2 0x229D DUP2 PUSH2 0x1FEE JUMP JUMPDEST DUP3 MSTORE POP POP JUMP JUMPDEST PUSH1 0x0 PUSH1 0x20 DUP3 ADD SWAP1 POP PUSH2 0x22B8 PUSH1 0x0 DUP4 ADD DUP5 PUSH2 0x2294 JUMP JUMPDEST SWAP3 SWAP2 POP POP JUMP JUMPDEST PUSH1 0x0 DUP3 DUP3 MSTORE PUSH1 0x20 DUP3 ADD SWAP1 POP SWAP3 SWAP2 POP POP JUMP JUMPDEST PUSH32 0x5265656E7472616E637947756172643A207265656E7472616E742063616C6C00 PUSH1 0x0 DUP3 ADD MSTORE POP JUMP JUMPDEST PUSH1 0x0 PUSH2 0x2305 PUSH1 0x1F DUP4 PUSH2 0x22BE JUMP JUMPDEST SWAP2 POP PUSH2 0x2310 DUP3 PUSH2 0x22CF JUMP JUMPDEST PUSH1 0x20 DUP3 ADD SWAP1 POP SWAP2 SWAP1 POP JUMP JUMPDEST PUSH1 0x0 PUSH1 0x20 DUP3 ADD SWAP1 POP DUP2 DUP2 SUB PUSH1 0x0 DUP4 ADD MSTORE PUSH2 0x2334 DUP2 PUSH2 0x22F8 JUMP JUMPDEST SWAP1 POP SWAP2 SWAP1 POP JUMP JUMPDEST PUSH32 0x4E487B7100000000000000000000000000000000000000000000000000000000 PUSH1 0x0 MSTORE PUSH1 0x11 PUSH1 0x4 MSTORE PUSH1 0x24 PUSH1 0x0 REVERT JUMPDEST PUSH1 0x0 PUSH2 0x2375 DUP3 PUSH2 0x202C JUMP JUMPDEST SWAP2 POP PUSH2 0x2380 DUP4 PUSH2 0x202C JUMP JUMPDEST SWAP3 POP DUP3 DUP3 LT ISZERO PUSH2 0x2393 JUMPI PUSH2 0x2392 PUSH2 0x233B JUMP JUMPDEST JUMPDEST DUP3 DUP3 SUB SWAP1 POP SWAP3 SWAP2 POP POP JUMP JUMPDEST PUSH32 0x4F776E61626C653A2063616C6C6572206973206E6F7420746865206F776E6572 PUSH1 0x0 DUP3 ADD MSTORE POP JUMP JUMPDEST PUSH1 0x0 PUSH2 0x23D4 PUSH1 0x20 DUP4 PUSH2 0x22BE JUMP JUMPDEST SWAP2 POP PUSH2 0x23DF DUP3 PUSH2 0x239E JUMP JUMPDEST PUSH1 0x20 DUP3 ADD SWAP1 POP SWAP2 SWAP1 POP JUMP JUMPDEST PUSH1 0x0 PUSH1 0x20 DUP3 ADD SWAP1 POP DUP2 DUP2 SUB PUSH1 0x0 DUP4 ADD MSTORE PUSH2 0x2403 DUP2 PUSH2 0x23C7 JUMP JUMPDEST SWAP1 POP SWAP2 SWAP1 POP JUMP JUMPDEST PUSH1 0x0 PUSH2 0x2415 DUP3 PUSH2 0x202C JUMP JUMPDEST SWAP2 POP PUSH2 0x2420 DUP4 PUSH2 0x202C JUMP JUMPDEST SWAP3 POP DUP3 PUSH32 0xFFFFFFFFFFFFFFFFFFFFFFFFFFFFFFFFFFFFFFFFFFFFFFFFFFFFFFFFFFFFFFFF SUB DUP3 GT ISZERO PUSH2 0x2455 JUMPI PUSH2 0x2454 PUSH2 0x233B JUMP JUMPDEST JUMPDEST DUP3 DUP3 ADD SWAP1 POP SWAP3 SWAP2 POP POP JUMP JUMPDEST PUSH1 0x0 PUSH1 0x60 DUP3 ADD SWAP1 POP PUSH2 0x2475 PUSH1 0x0 DUP4 ADD DUP7 PUSH2 0x2222 JUMP JUMPDEST PUSH2 0x2482 PUSH1 0x20 DUP4 ADD DUP6 PUSH2 0x2222 JUMP JUMPDEST PUSH2 0x248F PUSH1 0x40 DUP4 ADD DUP5 PUSH2 0x2222 JUMP JUMPDEST SWAP5 SWAP4 POP POP POP POP JUMP JUMPDEST PUSH1 0x0 PUSH2 0x24A2 DUP3 PUSH2 0x202C JUMP JUMPDEST SWAP2 POP PUSH2 0x24AD DUP4 PUSH2 0x202C JUMP JUMPDEST SWAP3 POP DUP2 PUSH32 0xFFFFFFFFFFFFFFFFFFFFFFFFFFFFFFFFFFFFFFFFFFFFFFFFFFFFFFFFFFFFFFFF DIV DUP4 GT DUP3 ISZERO ISZERO AND ISZERO PUSH2 0x24E6 JUMPI PUSH2 0x24E5 PUSH2 0x233B JUMP JUMPDEST JUMPDEST DUP3 DUP3 MUL SWAP1 POP SWAP3 SWAP2 POP POP JUMP JUMPDEST PUSH32 0x4E487B7100000000000000000000000000000000000000000000000000000000 PUSH1 0x0 MSTORE PUSH1 0x12 PUSH1 0x4 MSTORE PUSH1 0x24 PUSH1 0x0 REVERT JUMPDEST PUSH1 0x0 PUSH2 0x252B DUP3 PUSH2 0x202C JUMP JUMPDEST SWAP2 POP PUSH2 0x2536 DUP4 PUSH2 0x202C JUMP JUMPDEST SWAP3 POP DUP3 PUSH2 0x2546 JUMPI PUSH2 0x2545 PUSH2 0x24F1 JUMP JUMPDEST JUMPDEST DUP3 DUP3 DIV SWAP1 POP SWAP3 SWAP2 POP POP JUMP JUMPDEST PUSH32 0x4F776E61626C653A206E6577206F776E657220697320746865207A65726F2061 PUSH1 0x0 DUP3 ADD MSTORE PUSH32 0x6464726573730000000000000000000000000000000000000000000000000000 PUSH1 0x20 DUP3 ADD MSTORE POP JUMP JUMPDEST PUSH1 0x0 PUSH2 0x25AD PUSH1 0x26 DUP4 PUSH2 0x22BE JUMP JUMPDEST SWAP2 POP PUSH2 0x25B8 DUP3 PUSH2 0x2551 JUMP JUMPDEST PUSH1 0x40 DUP3 ADD SWAP1 POP SWAP2 SWAP1 POP JUMP JUMPDEST PUSH1 0x0 PUSH1 0x20 DUP3 ADD SWAP1 POP DUP2 DUP2 SUB PUSH1 0x0 DUP4 ADD MSTORE PUSH2 0x25DC DUP2 PUSH2 0x25A0 JUMP JUMPDEST SWAP1 POP SWAP2 SWAP1 POP JUMP JUMPDEST PUSH1 0x0 PUSH1 0x60 DUP3 ADD SWAP1 POP PUSH2 0x25F8 PUSH1 0x0 DUP4 ADD DUP7 PUSH2 0x2294 JUMP JUMPDEST PUSH2 0x2605 PUSH1 0x20 DUP4 ADD DUP6 PUSH2 0x2294 JUMP JUMPDEST PUSH2 0x2612 PUSH1 0x40 DUP4 ADD DUP5 PUSH2 0x2222 JUMP JUMPDEST SWAP5 SWAP4 POP POP POP POP JUMP JUMPDEST PUSH1 0x0 PUSH1 0x40 DUP3 ADD SWAP1 POP PUSH2 0x262F PUSH1 0x0 DUP4 ADD DUP6 PUSH2 0x2294 JUMP JUMPDEST PUSH2 0x263C PUSH1 0x20 DUP4 ADD DUP5 PUSH2 0x2222 JUMP JUMPDEST SWAP4 SWAP3 POP POP POP JUMP JUMPDEST PUSH2 0x264C DUP2 PUSH2 0x21DE JUMP JUMPDEST DUP2 EQ PUSH2 0x2657 JUMPI PUSH1 0x0 DUP1 REVERT JUMPDEST POP JUMP JUMPDEST PUSH1 0x0 DUP2 MLOAD SWAP1 POP PUSH2 0x2669 DUP2 PUSH2 0x2643 JUMP JUMPDEST SWAP3 SWAP2 POP POP JUMP JUMPDEST PUSH1 0x0 PUSH1 0x20 DUP3 DUP5 SUB SLT ISZERO PUSH2 0x2685 JUMPI PUSH2 0x2684 PUSH2 0x1FC9 JUMP JUMPDEST JUMPDEST PUSH1 0x0 PUSH2 0x2693 DUP5 DUP3 DUP6 ADD PUSH2 0x265A JUMP JUMPDEST SWAP2 POP POP SWAP3 SWAP2 POP POP JUMP JUMPDEST PUSH32 0x5361666545524332303A204552433230206F7065726174696F6E20646964206E PUSH1 0x0 DUP3 ADD MSTORE PUSH32 0x6F74207375636365656400000000000000000000000000000000000000000000 PUSH1 0x20 DUP3 ADD MSTORE POP JUMP JUMPDEST PUSH1 0x0 PUSH2 0x26F8 PUSH1 0x2A DUP4 PUSH2 0x22BE JUMP JUMPDEST SWAP2 POP PUSH2 0x2703 DUP3 PUSH2 0x269C JUMP JUMPDEST PUSH1 0x40 DUP3 ADD SWAP1 POP SWAP2 SWAP1 POP JUMP JUMPDEST PUSH1 0x0 PUSH1 0x20 DUP3 ADD SWAP1 POP DUP2 DUP2 SUB PUSH1 0x0 DUP4 ADD MSTORE PUSH2 0x2727 DUP2 PUSH2 0x26EB JUMP JUMPDEST SWAP1 POP SWAP2 SWAP1 POP JUMP JUMPDEST PUSH32 0x416464726573733A20696E73756666696369656E742062616C616E636520666F PUSH1 0x0 DUP3 ADD MSTORE PUSH32 0x722063616C6C0000000000000000000000000000000000000000000000000000 PUSH1 0x20 DUP3 ADD MSTORE POP JUMP JUMPDEST PUSH1 0x0 PUSH2 0x278A PUSH1 0x26 DUP4 PUSH2 0x22BE JUMP JUMPDEST SWAP2 POP PUSH2 0x2795 DUP3 PUSH2 0x272E JUMP JUMPDEST PUSH1 0x40 DUP3 ADD SWAP1 POP SWAP2 SWAP1 POP JUMP JUMPDEST PUSH1 0x0 PUSH1 0x20 DUP3 ADD SWAP1 POP DUP2 DUP2 SUB PUSH1 0x0 DUP4 ADD MSTORE PUSH2 0x27B9 DUP2 PUSH2 0x277D JUMP JUMPDEST SWAP1 POP SWAP2 SWAP1 POP JUMP JUMPDEST PUSH32 0x416464726573733A2063616C6C20746F206E6F6E2D636F6E7472616374000000 PUSH1 0x0 DUP3 ADD MSTORE POP JUMP JUMPDEST PUSH1 0x0 PUSH2 0x27F6 PUSH1 0x1D DUP4 PUSH2 0x22BE JUMP JUMPDEST SWAP2 POP PUSH2 0x2801 DUP3 PUSH2 0x27C0 JUMP JUMPDEST PUSH1 0x20 DUP3 ADD SWAP1 POP SWAP2 SWAP1 POP JUMP JUMPDEST PUSH1 0x0 PUSH1 0x20 DUP3 ADD SWAP1 POP DUP2 DUP2 SUB PUSH1 0x0 DUP4 ADD MSTORE PUSH2 0x2825 DUP2 PUSH2 0x27E9 JUMP JUMPDEST SWAP1 POP SWAP2 SWAP1 POP JUMP JUMPDEST PUSH1 0x0 DUP2 MLOAD SWAP1 POP SWAP2 SWAP1 POP JUMP JUMPDEST PUSH1 0x0 DUP2 SWAP1 POP SWAP3 SWAP2 POP POP JUMP JUMPDEST PUSH1 0x0 JUMPDEST DUP4 DUP2 LT ISZERO PUSH2 0x2860 JUMPI DUP1 DUP3 ADD MLOAD DUP2 DUP5 ADD MSTORE PUSH1 0x20 DUP2 ADD SWAP1 POP PUSH2 0x2845 JUMP JUMPDEST DUP4 DUP2 GT ISZERO PUSH2 0x286F JUMPI PUSH1 0x0 DUP5 DUP5 ADD MSTORE JUMPDEST POP POP POP POP JUMP JUMPDEST PUSH1 0x0 PUSH2 0x2880 DUP3 PUSH2 0x282C JUMP JUMPDEST PUSH2 0x288A DUP2 DUP6 PUSH2 0x2837 JUMP JUMPDEST SWAP4 POP PUSH2 0x289A DUP2 DUP6 PUSH1 0x20 DUP7 ADD PUSH2 0x2842 JUMP JUMPDEST DUP1 DUP5 ADD SWAP2 POP POP SWAP3 SWAP2 POP POP JUMP JUMPDEST PUSH1 0x0 PUSH2 0x28B2 DUP3 DUP5 PUSH2 0x2875 JUMP JUMPDEST SWAP2 POP DUP2 SWAP1 POP SWAP3 SWAP2 POP POP JUMP JUMPDEST PUSH1 0x0 DUP2 MLOAD SWAP1 POP SWAP2 SWAP1 POP JUMP JUMPDEST PUSH1 0x0 PUSH1 0x1F NOT PUSH1 0x1F DUP4 ADD AND SWAP1 POP SWAP2 SWAP1 POP JUMP JUMPDEST PUSH1 0x0 PUSH2 0x28E4 DUP3 PUSH2 0x28BD JUMP JUMPDEST PUSH2 0x28EE DUP2 DUP6 PUSH2 0x22BE JUMP JUMPDEST SWAP4 POP PUSH2 0x28FE DUP2 DUP6 PUSH1 0x20 DUP7 ADD PUSH2 0x2842 JUMP JUMPDEST PUSH2 0x2907 DUP2 PUSH2 0x28C8 JUMP JUMPDEST DUP5 ADD SWAP2 POP POP SWAP3 SWAP2 POP POP JUMP JUMPDEST PUSH1 0x0 PUSH1 0x20 DUP3 ADD SWAP1 POP DUP2 DUP2 SUB PUSH1 0x0 DUP4 ADD MSTORE PUSH2 0x292C DUP2 DUP5 PUSH2 0x28D9 JUMP JUMPDEST SWAP1 POP SWAP3 SWAP2 POP POP JUMP INVALID LOG2 PUSH5 0x6970667358 0x22 SLT KECCAK256 PUSH1 0x80 0xDF ADDRESS PUSH17 0x9FFC63F62F5F3D50C085629CE899587F1D 0xDA BASEFEE 0xBB GT ORIGIN NUMBER 0x1E DUP12 GAS PUSH11 0x64736F6C634300080B0033 "
				},
				"gasEstimates": {
					"creation": {
						"codeDepositCost": "2120400",
						"executionCost": "infinite",
						"totalCost": "infinite"
					},
					"external": {
						"_blockTimestamp()": "403",
						"airdropRate()": "2540",
						"airdropSince()": "2562",
						"calculateWeek(uint256)": "infinite",
						"changeAirdropPercentage(uint256)": "infinite",
						"changePenaltyFee(uint256)": "infinite",
						"claimAirdrop(address)": "infinite",
						"getVoters(address)": "infinite",
						"getVotingResult()": "infinite",
						"hasStake()": "infinite",
						"owner()": "2567",
						"renounceOwnership()": "30463",
						"retractVote()": "infinite",
						"stake(address,uint256,uint256)": "infinite",
						"stakingPenaltyRate()": "2518",
						"startAirdrop()": "24541",
						"startVoting()": "infinite",
						"stopVoting()": "28938",
						"token_address()": "2537",
						"totalVoters()": "2563",
						"transferOwnership(address)": "30811",
						"vote()": "infinite",
						"votedUsers(uint256)": "infinite",
						"voters(address)": "2959",
						"withdrawStake()": "infinite"
					},
					"internal": {
						"_calculateAirdrop(uint256)": "infinite",
						"_calculateStakeReward(struct Staking.Stake memory)": "infinite",
						"_calculateStakingDuration(uint256)": "infinite",
						"_calculateStakingWithPenalty(uint256,uint256)": "infinite",
						"_checkVotingStatus()": "infinite",
						"_isVoter()": "infinite"
					}
				},
				"methodIdentifiers": {
					"_blockTimestamp()": "c63aa3e7",
					"airdropRate()": "8891cf0d",
					"airdropSince()": "b87da76d",
					"calculateWeek(uint256)": "b5d9df83",
					"changeAirdropPercentage(uint256)": "d5dbdf1b",
					"changePenaltyFee(uint256)": "8c63f97f",
					"claimAirdrop(address)": "65f8c6c5",
					"getVoters(address)": "2d15cc04",
					"getVotingResult()": "671d2b75",
					"hasStake()": "10486b6a",
					"owner()": "8da5cb5b",
					"renounceOwnership()": "715018a6",
					"retractVote()": "070c8b74",
					"stake(address,uint256,uint256)": "0c51b88f",
					"stakingPenaltyRate()": "cb79c2e1",
					"startAirdrop()": "d2a569c3",
					"startVoting()": "1ec6b60a",
					"stopVoting()": "fab2f86b",
					"token_address()": "8c8e8fee",
					"totalVoters()": "5f5300ff",
					"transferOwnership(address)": "f2fde38b",
					"vote()": "632a9a52",
					"votedUsers(uint256)": "a143a5f2",
					"voters(address)": "a3ec138d",
					"withdrawStake()": "bed9d861"
				}
			},
			"storageLayout": {
				"storage": [
					{
						"astId": 115,
						"contract": "contracts/Stakable-2.0.sol:Staking",
						"label": "_status",
						"offset": 0,
						"slot": "0",
						"type": "t_uint256"
					},
					{
						"astId": 7,
						"contract": "contracts/Stakable-2.0.sol:Staking",
						"label": "_owner",
						"offset": 0,
						"slot": "1",
						"type": "t_address"
					},
					{
						"astId": 815,
						"contract": "contracts/Stakable-2.0.sol:Staking",
						"label": "stakingPackage",
						"offset": 0,
						"slot": "2",
						"type": "t_mapping(t_uint256,t_uint256)"
					},
					{
						"astId": 817,
						"contract": "contracts/Stakable-2.0.sol:Staking",
						"label": "stakingPenaltyRate",
						"offset": 0,
						"slot": "3",
						"type": "t_uint256"
					},
					{
						"astId": 819,
						"contract": "contracts/Stakable-2.0.sol:Staking",
						"label": "airdropRate",
						"offset": 0,
						"slot": "4",
						"type": "t_uint256"
					},
					{
						"astId": 821,
						"contract": "contracts/Stakable-2.0.sol:Staking",
						"label": "airdropSince",
						"offset": 0,
						"slot": "5",
						"type": "t_uint256"
					},
					{
						"astId": 823,
						"contract": "contracts/Stakable-2.0.sol:Staking",
						"label": "_votingStatus",
						"offset": 0,
						"slot": "6",
						"type": "t_bool"
					},
					{
						"astId": 825,
						"contract": "contracts/Stakable-2.0.sol:Staking",
						"label": "_votingId",
						"offset": 0,
						"slot": "7",
						"type": "t_uint256"
					},
					{
						"astId": 827,
						"contract": "contracts/Stakable-2.0.sol:Staking",
						"label": "totalVoters",
						"offset": 0,
						"slot": "8",
						"type": "t_uint256"
					},
					{
						"astId": 832,
						"contract": "contracts/Stakable-2.0.sol:Staking",
						"label": "voters",
						"offset": 0,
						"slot": "9",
						"type": "t_mapping(t_address,t_struct(Voter)811_storage)"
					},
					{
						"astId": 836,
						"contract": "contracts/Stakable-2.0.sol:Staking",
						"label": "votedUsers",
						"offset": 0,
						"slot": "10",
						"type": "t_mapping(t_uint256,t_uint256)"
					},
					{
						"astId": 838,
						"contract": "contracts/Stakable-2.0.sol:Staking",
						"label": "token_address",
						"offset": 0,
						"slot": "11",
						"type": "t_address"
					},
					{
						"astId": 903,
						"contract": "contracts/Stakable-2.0.sol:Staking",
						"label": "stakeholders",
						"offset": 0,
						"slot": "12",
						"type": "t_mapping(t_address,t_struct(Stake)889_storage)"
					}
				],
				"types": {
					"t_address": {
						"encoding": "inplace",
						"label": "address",
						"numberOfBytes": "20"
					},
					"t_bool": {
						"encoding": "inplace",
						"label": "bool",
						"numberOfBytes": "1"
					},
					"t_mapping(t_address,t_struct(Stake)889_storage)": {
						"encoding": "mapping",
						"key": "t_address",
						"label": "mapping(address => struct Staking.Stake)",
						"numberOfBytes": "32",
						"value": "t_struct(Stake)889_storage"
					},
					"t_mapping(t_address,t_struct(Voter)811_storage)": {
						"encoding": "mapping",
						"key": "t_address",
						"label": "mapping(address => struct Staking.Voter)",
						"numberOfBytes": "32",
						"value": "t_struct(Voter)811_storage"
					},
					"t_mapping(t_uint256,t_bool)": {
						"encoding": "mapping",
						"key": "t_uint256",
						"label": "mapping(uint256 => bool)",
						"numberOfBytes": "32",
						"value": "t_bool"
					},
					"t_mapping(t_uint256,t_uint256)": {
						"encoding": "mapping",
						"key": "t_uint256",
						"label": "mapping(uint256 => uint256)",
						"numberOfBytes": "32",
						"value": "t_uint256"
					},
					"t_struct(Stake)889_storage": {
						"encoding": "inplace",
						"label": "struct Staking.Stake",
						"members": [
							{
								"astId": 876,
								"contract": "contracts/Stakable-2.0.sol:Staking",
								"label": "amount",
								"offset": 0,
								"slot": "0",
								"type": "t_uint256"
							},
							{
								"astId": 878,
								"contract": "contracts/Stakable-2.0.sol:Staking",
								"label": "since",
								"offset": 0,
								"slot": "1",
								"type": "t_uint256"
							},
							{
								"astId": 880,
								"contract": "contracts/Stakable-2.0.sol:Staking",
								"label": "rewardAPY",
								"offset": 0,
								"slot": "2",
								"type": "t_uint256"
							},
							{
								"astId": 882,
								"contract": "contracts/Stakable-2.0.sol:Staking",
								"label": "releaseTime",
								"offset": 0,
								"slot": "3",
								"type": "t_uint256"
							},
							{
								"astId": 884,
								"contract": "contracts/Stakable-2.0.sol:Staking",
								"label": "claimable",
								"offset": 0,
								"slot": "4",
								"type": "t_uint256"
							},
							{
								"astId": 886,
								"contract": "contracts/Stakable-2.0.sol:Staking",
								"label": "claimableAirdrop",
								"offset": 0,
								"slot": "5",
								"type": "t_uint256"
							},
							{
								"astId": 888,
								"contract": "contracts/Stakable-2.0.sol:Staking",
								"label": "latestClaimDrop",
								"offset": 0,
								"slot": "6",
								"type": "t_uint256"
							}
						],
						"numberOfBytes": "224"
					},
					"t_struct(Voter)811_storage": {
						"encoding": "inplace",
						"label": "struct Staking.Voter",
						"members": [
							{
								"astId": 806,
								"contract": "contracts/Stakable-2.0.sol:Staking",
								"label": "votingRight",
								"offset": 0,
								"slot": "0",
								"type": "t_bool"
							},
							{
								"astId": 810,
								"contract": "contracts/Stakable-2.0.sol:Staking",
								"label": "voted",
								"offset": 0,
								"slot": "1",
								"type": "t_mapping(t_uint256,t_bool)"
							}
						],
						"numberOfBytes": "64"
					},
					"t_uint256": {
						"encoding": "inplace",
						"label": "uint256",
						"numberOfBytes": "32"
					}
				}
			},
			"userdoc": {
				"errors": {
					"Airdrop__claimableOnceAWeek()": [
						{
							"notice": "Error handling message for Airdrop functions"
						}
					],
					"Staking__cannotStakeNothing()": [
						{
							"notice": "Error handling message for Staking functions"
						}
					],
					"Voting__votingIsRunning()": [
						{
							"notice": "Error handling message for Voting functions"
						}
					]
				},
				"events": {
					"Staked(address,uint256,uint256,uint256)": {
						"notice": "Staked event is triggered whenever a user stakes tokens, address is indexed to make it filterable"
					}
				},
				"kind": "user",
				"methods": {
					"stake(address,uint256,uint256)": {
						"notice": "_Stake is used to make a stake for an sender. It will remove the amount staked from the stakers account and place those tokens inside a stake container StakeID"
					},
					"withdrawStake()": {
						"notice": "withdrawStake takes in an amount and a index of the stake and will remove tokens from that stake Notice index of the stake is the users stake counter, starting at 0 for the first stake Will return the amount to MINT onto the account Will also _calculateStakeReward and reset timer"
					}
				},
				"version": 1
			}
		}
	}
}