{
	"contracts/Stakable.sol": {
		"Stakable": {
			"abi": [
				{
					"inputs": [],
					"stateMutability": "nonpayable",
					"type": "constructor"
				},
				{
					"inputs": [],
					"name": "Airdrop__claimableOnceAWeek",
					"type": "error"
				},
				{
					"inputs": [],
					"name": "Function__notAVoter",
					"type": "error"
				},
				{
					"inputs": [],
					"name": "Function__notAuthorized",
					"type": "error"
				},
				{
					"inputs": [],
					"name": "Function__votingNotAvailable",
					"type": "error"
				},
				{
					"inputs": [],
					"name": "Staking__airdropExceed20Percent",
					"type": "error"
				},
				{
					"inputs": [],
					"name": "Staking__cannotStakeNothing",
					"type": "error"
				},
				{
					"inputs": [],
					"name": "Staking__noStakingFound",
					"type": "error"
				},
				{
					"inputs": [],
					"name": "Staking__penaltyExceed3Percent",
					"type": "error"
				},
				{
					"inputs": [],
					"name": "Staking__userIsStaker",
					"type": "error"
				},
				{
					"inputs": [],
					"name": "Voting__alreadyVoted",
					"type": "error"
				},
				{
					"inputs": [],
					"name": "Voting__notEnoughVoters",
					"type": "error"
				},
				{
					"inputs": [],
					"name": "Voting__notYetVoted",
					"type": "error"
				},
				{
					"inputs": [],
					"name": "Voting__votingIsRunning",
					"type": "error"
				},
				{
					"anonymous": false,
					"inputs": [
						{
							"indexed": false,
							"internalType": "uint256",
							"name": "amount",
							"type": "uint256"
						}
					],
					"name": "AirdropChanged",
					"type": "event"
				},
				{
					"anonymous": false,
					"inputs": [
						{
							"indexed": false,
							"internalType": "uint256",
							"name": "amount",
							"type": "uint256"
						}
					],
					"name": "PenaltyChanged",
					"type": "event"
				},
				{
					"anonymous": false,
					"inputs": [
						{
							"indexed": true,
							"internalType": "address",
							"name": "user",
							"type": "address"
						},
						{
							"indexed": false,
							"internalType": "uint256",
							"name": "amount",
							"type": "uint256"
						},
						{
							"indexed": false,
							"internalType": "uint256",
							"name": "timestamp",
							"type": "uint256"
						},
						{
							"indexed": false,
							"internalType": "uint256",
							"name": "releaseTime",
							"type": "uint256"
						}
					],
					"name": "Staked",
					"type": "event"
				},
				{
					"inputs": [],
					"name": "_owner",
					"outputs": [
						{
							"internalType": "address",
							"name": "",
							"type": "address"
						}
					],
					"stateMutability": "view",
					"type": "function"
				},
				{
					"inputs": [],
					"name": "_talax",
					"outputs": [
						{
							"internalType": "address",
							"name": "",
							"type": "address"
						}
					],
					"stateMutability": "view",
					"type": "function"
				},
				{
					"inputs": [],
					"name": "airdropRate",
					"outputs": [
						{
							"internalType": "uint256",
							"name": "",
							"type": "uint256"
						}
					],
					"stateMutability": "view",
					"type": "function"
				},
				{
					"inputs": [],
					"name": "airdropSince",
					"outputs": [
						{
							"internalType": "uint256",
							"name": "",
							"type": "uint256"
						}
					],
					"stateMutability": "view",
					"type": "function"
				},
				{
					"inputs": [],
					"name": "airdropWeek",
					"outputs": [
						{
							"internalType": "uint256",
							"name": "",
							"type": "uint256"
						}
					],
					"stateMutability": "view",
					"type": "function"
				},
				{
					"inputs": [
						{
							"internalType": "uint256",
							"name": "amount",
							"type": "uint256"
						}
					],
					"name": "changeAirdropPercentage",
					"outputs": [],
					"stateMutability": "nonpayable",
					"type": "function"
				},
				{
					"inputs": [
						{
							"internalType": "uint256",
							"name": "amount",
							"type": "uint256"
						}
					],
					"name": "changePenaltyFee",
					"outputs": [],
					"stateMutability": "nonpayable",
					"type": "function"
				},
				{
					"inputs": [
						{
							"internalType": "address",
							"name": "talax",
							"type": "address"
						}
					],
					"name": "changeTalaxAddress",
					"outputs": [],
					"stateMutability": "nonpayable",
					"type": "function"
				},
				{
					"inputs": [
						{
							"internalType": "address",
							"name": "user",
							"type": "address"
						}
					],
					"name": "claimAirdrop",
					"outputs": [
						{
							"internalType": "uint256",
							"name": "",
							"type": "uint256"
						}
					],
					"stateMutability": "nonpayable",
					"type": "function"
				},
				{
					"inputs": [],
					"name": "getLatestClaimDrop",
					"outputs": [
						{
							"internalType": "uint256",
							"name": "",
							"type": "uint256"
						}
					],
					"stateMutability": "view",
					"type": "function"
				},
				{
					"inputs": [
						{
							"internalType": "address",
							"name": "user",
							"type": "address"
						}
					],
					"name": "getVoters",
					"outputs": [
						{
							"internalType": "bool",
							"name": "",
							"type": "bool"
						},
						{
							"internalType": "bool",
							"name": "",
							"type": "bool"
						}
					],
					"stateMutability": "view",
					"type": "function"
				},
				{
					"inputs": [],
					"name": "getVotingResult",
					"outputs": [
						{
							"internalType": "bool",
							"name": "",
							"type": "bool"
						}
					],
					"stateMutability": "view",
					"type": "function"
				},
				{
					"inputs": [],
					"name": "hasStake",
					"outputs": [
						{
							"components": [
								{
									"internalType": "uint256",
									"name": "total_amount",
									"type": "uint256"
								},
								{
									"internalType": "uint256",
									"name": "penalty",
									"type": "uint256"
								},
								{
									"components": [
										{
											"internalType": "uint256",
											"name": "amount",
											"type": "uint256"
										},
										{
											"internalType": "uint256",
											"name": "since",
											"type": "uint256"
										},
										{
											"internalType": "uint256",
											"name": "rewardAPY",
											"type": "uint256"
										},
										{
											"internalType": "uint256",
											"name": "releaseTime",
											"type": "uint256"
										},
										{
											"internalType": "uint256",
											"name": "claimable",
											"type": "uint256"
										},
										{
											"internalType": "uint256",
											"name": "claimableAirdrop",
											"type": "uint256"
										},
										{
											"internalType": "uint256",
											"name": "latestClaimDrop",
											"type": "uint256"
										}
									],
									"internalType": "struct Stakable.Stake",
									"name": "stake",
									"type": "tuple"
								}
							],
							"internalType": "struct Stakable.StakingSummary",
							"name": "",
							"type": "tuple"
						}
					],
					"stateMutability": "view",
					"type": "function"
				},
				{
					"inputs": [],
					"name": "retractVote",
					"outputs": [],
					"stateMutability": "nonpayable",
					"type": "function"
				},
				{
					"inputs": [
						{
							"internalType": "address",
							"name": "user",
							"type": "address"
						},
						{
							"internalType": "uint256",
							"name": "amount",
							"type": "uint256"
						},
						{
							"internalType": "uint256",
							"name": "stakePeriod",
							"type": "uint256"
						},
						{
							"internalType": "uint256",
							"name": "rewardRate",
							"type": "uint256"
						}
					],
					"name": "stake",
					"outputs": [],
					"stateMutability": "nonpayable",
					"type": "function"
				},
				{
					"inputs": [],
					"name": "stakingPenaltyRate",
					"outputs": [
						{
							"internalType": "uint256",
							"name": "",
							"type": "uint256"
						}
					],
					"stateMutability": "view",
					"type": "function"
				},
				{
					"inputs": [],
					"name": "startAirdropSince",
					"outputs": [],
					"stateMutability": "nonpayable",
					"type": "function"
				},
				{
					"inputs": [],
					"name": "startVoting",
					"outputs": [],
					"stateMutability": "nonpayable",
					"type": "function"
				},
				{
					"inputs": [],
					"name": "stopVoting",
					"outputs": [],
					"stateMutability": "nonpayable",
					"type": "function"
				},
				{
					"inputs": [],
					"name": "totalVoters",
					"outputs": [
						{
							"internalType": "uint256",
							"name": "",
							"type": "uint256"
						}
					],
					"stateMutability": "view",
					"type": "function"
				},
				{
					"inputs": [],
					"name": "vote",
					"outputs": [],
					"stateMutability": "nonpayable",
					"type": "function"
				},
				{
					"inputs": [
						{
							"internalType": "uint256",
							"name": "",
							"type": "uint256"
						}
					],
					"name": "votedUsers",
					"outputs": [
						{
							"internalType": "uint256",
							"name": "",
							"type": "uint256"
						}
					],
					"stateMutability": "view",
					"type": "function"
				},
				{
					"inputs": [
						{
							"internalType": "address",
							"name": "",
							"type": "address"
						}
					],
					"name": "voters",
					"outputs": [
						{
							"internalType": "bool",
							"name": "votingRight",
							"type": "bool"
						}
					],
					"stateMutability": "view",
					"type": "function"
				},
				{
					"inputs": [
						{
							"internalType": "address",
							"name": "user",
							"type": "address"
						}
					],
					"name": "withdrawStake",
					"outputs": [
						{
							"internalType": "uint256",
							"name": "",
							"type": "uint256"
						},
						{
							"internalType": "uint256",
							"name": "",
							"type": "uint256"
						}
					],
					"stateMutability": "nonpayable",
					"type": "function"
				}
			],
			"devdoc": {
				"kind": "dev",
				"methods": {},
				"version": 1
			},
			"evm": {
				"assembly": "    /* \"contracts/Stakable.sol\":880:13459  contract Stakable is ReentrancyGuard {... */\n  mstore(0x40, 0x80)\n    /* \"contracts/Stakable.sol\":1566:1766  constructor() {... */\n  callvalue\n  dup1\n  iszero\n  tag_1\n  jumpi\n  0x00\n  dup1\n  revert\ntag_1:\n  pop\n    /* \"@openzeppelin/contracts/security/ReentrancyGuard.sol\":1701:1702  1 */\n  0x01\n    /* \"@openzeppelin/contracts/security/ReentrancyGuard.sol\":1806:1813  _status */\n  0x00\n    /* \"@openzeppelin/contracts/security/ReentrancyGuard.sol\":1806:1828  _status = _NOT_ENTERED */\n  dup2\n  swap1\n  sstore\n    /* \"contracts/Stakable.sol\":1673:1675  15 */\n  0x0f\n    /* \"contracts/Stakable.sol\":1652:1675  stakingPenaltyRate = 15 */\n  swap1\n  sstore\n    /* \"contracts/Stakable.sol\":1699:1701  80 */\n  0x50\n    /* \"contracts/Stakable.sol\":1685:1696  airdropRate */\n  0x02\n    /* \"contracts/Stakable.sol\":1685:1701  airdropRate = 80 */\n  sstore\n    /* \"contracts/Stakable.sol\":1711:1717  _talax */\n  0x09\n    /* \"contracts/Stakable.sol\":1711:1730  _talax = msg.sender */\n  dup1\n  sload\n  not(sub(shl(0xa0, 0x01), 0x01))\n  swap1\n  dup2\n  and\n    /* \"contracts/Stakable.sol\":1720:1730  msg.sender */\n  caller\n    /* \"contracts/Stakable.sol\":1711:1730  _talax = msg.sender */\n  swap1\n  dup2\n  or\n  swap1\n  swap3\n  sstore\n    /* \"contracts/Stakable.sol\":1740:1746  _owner */\n  0x0a\n    /* \"contracts/Stakable.sol\":1740:1759  _owner = msg.sender */\n  dup1\n  sload\n  swap1\n  swap2\n  and\n  swap1\n  swap2\n  or\n  swap1\n  sstore\n    /* \"contracts/Stakable.sol\":880:13459  contract Stakable is ReentrancyGuard {... */\n  dataSize(sub_0)\n  dup1\n  dataOffset(sub_0)\n  0x00\n  codecopy\n  0x00\n  return\nstop\n\nsub_0: assembly {\n        /* \"contracts/Stakable.sol\":880:13459  contract Stakable is ReentrancyGuard {... */\n      mstore(0x40, 0x80)\n      callvalue\n      dup1\n      iszero\n      tag_1\n      jumpi\n      0x00\n      dup1\n      revert\n    tag_1:\n      pop\n      jumpi(tag_2, lt(calldatasize, 0x04))\n      shr(0xe0, calldataload(0x00))\n      dup1\n      0x8891cf0d\n      gt\n      tag_27\n      jumpi\n      dup1\n      0xc23a5cea\n      gt\n      tag_28\n      jumpi\n      dup1\n      0xd5dbdf1b\n      gt\n      tag_29\n      jumpi\n      dup1\n      0xd5dbdf1b\n      eq\n      tag_24\n      jumpi\n      dup1\n      0xf93d4f8a\n      eq\n      tag_25\n      jumpi\n      dup1\n      0xfab2f86b\n      eq\n      tag_26\n      jumpi\n      0x00\n      dup1\n      revert\n    tag_29:\n      dup1\n      0xc23a5cea\n      eq\n      tag_21\n      jumpi\n      dup1\n      0xcb79c2e1\n      eq\n      tag_22\n      jumpi\n      dup1\n      0xcbb3e152\n      eq\n      tag_23\n      jumpi\n      0x00\n      dup1\n      revert\n    tag_28:\n      dup1\n      0xa3ec138d\n      gt\n      tag_30\n      jumpi\n      dup1\n      0xa3ec138d\n      eq\n      tag_18\n      jumpi\n      dup1\n      0xb2bdfa7b\n      eq\n      tag_19\n      jumpi\n      dup1\n      0xb87da76d\n      eq\n      tag_20\n      jumpi\n      0x00\n      dup1\n      revert\n    tag_30:\n      dup1\n      0x8891cf0d\n      eq\n      tag_15\n      jumpi\n      dup1\n      0x8c63f97f\n      eq\n      tag_16\n      jumpi\n      dup1\n      0xa143a5f2\n      eq\n      tag_17\n      jumpi\n      0x00\n      dup1\n      revert\n    tag_27:\n      dup1\n      0x5f5300ff\n      gt\n      tag_31\n      jumpi\n      dup1\n      0x671d2b75\n      gt\n      tag_32\n      jumpi\n      dup1\n      0x671d2b75\n      eq\n      tag_12\n      jumpi\n      dup1\n      0x69e4591a\n      eq\n      tag_13\n      jumpi\n      dup1\n      0x71e3db87\n      eq\n      tag_14\n      jumpi\n      0x00\n      dup1\n      revert\n    tag_32:\n      dup1\n      0x5f5300ff\n      eq\n      tag_9\n      jumpi\n      dup1\n      0x632a9a52\n      eq\n      tag_10\n      jumpi\n      dup1\n      0x65f8c6c5\n      eq\n      tag_11\n      jumpi\n      0x00\n      dup1\n      revert\n    tag_31:\n      dup1\n      0x1ec6b60a\n      gt\n      tag_33\n      jumpi\n      dup1\n      0x1ec6b60a\n      eq\n      tag_6\n      jumpi\n      dup1\n      0x2d15cc04\n      eq\n      tag_7\n      jumpi\n      dup1\n      0x5f348b4e\n      eq\n      tag_8\n      jumpi\n      0x00\n      dup1\n      revert\n    tag_33:\n      dup1\n      0x070c8b74\n      eq\n      tag_3\n      jumpi\n      dup1\n      0x10486b6a\n      eq\n      tag_4\n      jumpi\n      dup1\n      0x1d77b00b\n      eq\n      tag_5\n      jumpi\n    tag_2:\n      0x00\n      dup1\n      revert\n        /* \"contracts/Stakable.sol\":12449:12861  function retractVote() public nonReentrant votingStatusTrue isVoter {... */\n    tag_3:\n      tag_34\n      tag_35\n      jump\t// in\n    tag_34:\n      stop\n        /* \"contracts/Stakable.sol\":8601:9728  function hasStake() external view returns (StakingSummary memory) {... */\n    tag_4:\n      tag_36\n      tag_37\n      jump\t// in\n    tag_36:\n      mload(0x40)\n      tag_38\n      swap2\n      swap1\n        /* \"#utility.yul\":168:172   */\n      0x00\n        /* \"#utility.yul\":210:213   */\n      0x0120\n        /* \"#utility.yul\":199:208   */\n      dup3\n        /* \"#utility.yul\":195:214   */\n      add\n        /* \"#utility.yul\":187:214   */\n      swap1\n      pop\n        /* \"#utility.yul\":247:253   */\n      dup3\n        /* \"#utility.yul\":241:254   */\n      mload\n        /* \"#utility.yul\":230:239   */\n      dup3\n        /* \"#utility.yul\":223:255   */\n      mstore\n        /* \"#utility.yul\":311:315   */\n      0x20\n        /* \"#utility.yul\":303:309   */\n      dup4\n        /* \"#utility.yul\":299:316   */\n      add\n        /* \"#utility.yul\":293:317   */\n      mload\n        /* \"#utility.yul\":286:290   */\n      0x20\n        /* \"#utility.yul\":275:284   */\n      dup4\n        /* \"#utility.yul\":271:291   */\n      add\n        /* \"#utility.yul\":264:318   */\n      mstore\n        /* \"#utility.yul\":365:369   */\n      0x40\n        /* \"#utility.yul\":357:363   */\n      dup4\n        /* \"#utility.yul\":353:370   */\n      add\n        /* \"#utility.yul\":347:371   */\n      mload\n        /* \"#utility.yul\":415:427   */\n      dup1\n        /* \"#utility.yul\":409:428   */\n      mload\n        /* \"#utility.yul\":402:406   */\n      0x40\n        /* \"#utility.yul\":391:400   */\n      dup5\n        /* \"#utility.yul\":387:407   */\n      add\n        /* \"#utility.yul\":380:429   */\n      mstore\n        /* \"#utility.yul\":489:493   */\n      0x20\n        /* \"#utility.yul\":475:487   */\n      dup2\n        /* \"#utility.yul\":471:494   */\n      add\n        /* \"#utility.yul\":465:495   */\n      mload\n        /* \"#utility.yul\":460:462   */\n      0x60\n        /* \"#utility.yul\":449:458   */\n      dup5\n        /* \"#utility.yul\":445:463   */\n      add\n        /* \"#utility.yul\":438:496   */\n      mstore\n        /* \"#utility.yul\":557:561   */\n      0x40\n        /* \"#utility.yul\":543:555   */\n      dup2\n        /* \"#utility.yul\":539:562   */\n      add\n        /* \"#utility.yul\":533:563   */\n      mload\n        /* \"#utility.yul\":527:530   */\n      0x80\n        /* \"#utility.yul\":516:525   */\n      dup5\n        /* \"#utility.yul\":512:531   */\n      add\n        /* \"#utility.yul\":505:564   */\n      mstore\n        /* \"#utility.yul\":625:627   */\n      0x60\n        /* \"#utility.yul\":611:623   */\n      dup2\n        /* \"#utility.yul\":607:628   */\n      add\n        /* \"#utility.yul\":601:629   */\n      mload\n        /* \"#utility.yul\":595:598   */\n      0xa0\n        /* \"#utility.yul\":584:593   */\n      dup5\n        /* \"#utility.yul\":580:599   */\n      add\n        /* \"#utility.yul\":573:630   */\n      mstore\n        /* \"#utility.yul\":691:694   */\n      0x80\n        /* \"#utility.yul\":677:689   */\n      dup2\n        /* \"#utility.yul\":673:695   */\n      add\n        /* \"#utility.yul\":667:696   */\n      mload\n        /* \"#utility.yul\":661:664   */\n      0xc0\n        /* \"#utility.yul\":650:659   */\n      dup5\n        /* \"#utility.yul\":646:665   */\n      add\n        /* \"#utility.yul\":639:697   */\n      mstore\n        /* \"#utility.yul\":758:761   */\n      0xa0\n        /* \"#utility.yul\":744:756   */\n      dup2\n        /* \"#utility.yul\":740:762   */\n      add\n        /* \"#utility.yul\":734:763   */\n      mload\n        /* \"#utility.yul\":728:731   */\n      0xe0\n        /* \"#utility.yul\":717:726   */\n      dup5\n        /* \"#utility.yul\":713:732   */\n      add\n        /* \"#utility.yul\":706:764   */\n      mstore\n        /* \"#utility.yul\":825:828   */\n      0xc0\n        /* \"#utility.yul\":811:823   */\n      dup2\n        /* \"#utility.yul\":807:829   */\n      add\n        /* \"#utility.yul\":801:830   */\n      mload\n        /* \"#utility.yul\":795:798   */\n      0x0100\n        /* \"#utility.yul\":784:793   */\n      dup5\n        /* \"#utility.yul\":780:799   */\n      add\n        /* \"#utility.yul\":773:831   */\n      mstore\n      pop\n        /* \"#utility.yul\":14:837   */\n      swap3\n      swap2\n      pop\n      pop\n      jump\n        /* \"contracts/Stakable.sol\":8601:9728  function hasStake() external view returns (StakingSummary memory) {... */\n    tag_38:\n      mload(0x40)\n      dup1\n      swap2\n      sub\n      swap1\n      return\n        /* \"contracts/Stakable.sol\":4409:4502  function changeTalaxAddress(address talax) external onlyOwner {... */\n    tag_5:\n      tag_34\n      tag_41\n      calldatasize\n      0x04\n      tag_42\n      jump\t// in\n    tag_41:\n      tag_43\n      jump\t// in\n        /* \"contracts/Stakable.sol\":11751:12034  function startVoting() external nonReentrant onlyTalax {... */\n    tag_6:\n      tag_34\n      tag_45\n      jump\t// in\n        /* \"contracts/Stakable.sol\":11543:11692  function getVoters(address user) external view returns (bool, bool) {... */\n    tag_7:\n      tag_46\n      tag_47\n      calldatasize\n      0x04\n      tag_42\n      jump\t// in\n    tag_47:\n      sub(shl(0xa0, 0x01), 0x01)\n        /* \"contracts/Stakable.sol\":11629:11641  voters[user] */\n      and\n        /* \"contracts/Stakable.sol\":11599:11603  bool */\n      0x00\n        /* \"contracts/Stakable.sol\":11629:11641  voters[user] */\n      swap1\n      dup2\n      mstore\n        /* \"contracts/Stakable.sol\":11629:11635  voters */\n      0x07\n        /* \"contracts/Stakable.sol\":11629:11641  voters[user] */\n      0x20\n      swap1\n      dup2\n      mstore\n      0x40\n      dup1\n      dup4\n      keccak256\n        /* \"contracts/Stakable.sol\":11629:11653  voters[user].votingRight */\n      dup1\n      sload\n        /* \"contracts/Stakable.sol\":11674:11683  _votingId */\n      sload(0x05)\n        /* \"contracts/Stakable.sol\":11655:11684  voters[user].voted[_votingId] */\n      dup6\n      mstore\n        /* \"contracts/Stakable.sol\":11629:11653  voters[user].votingRight */\n      0x01\n        /* \"contracts/Stakable.sol\":11655:11673  voters[user].voted */\n      swap1\n      swap2\n      add\n        /* \"contracts/Stakable.sol\":11655:11684  voters[user].voted[_votingId] */\n      swap1\n      swap3\n      mstore\n      swap1\n      swap2\n      keccak256\n      sload\n        /* \"contracts/Stakable.sol\":11629:11653  voters[user].votingRight */\n      0xff\n      swap2\n      dup3\n      and\n      swap3\n        /* \"contracts/Stakable.sol\":11655:11684  voters[user].voted[_votingId] */\n      swap2\n      and\n      swap1\n        /* \"contracts/Stakable.sol\":11543:11692  function getVoters(address user) external view returns (bool, bool) {... */\n      jump\n    tag_46:\n      0x40\n      dup1\n      mload\n        /* \"#utility.yul\":1421:1435   */\n      swap3\n      iszero\n        /* \"#utility.yul\":1414:1436   */\n      iszero\n        /* \"#utility.yul\":1396:1437   */\n      dup4\n      mstore\n        /* \"#utility.yul\":1480:1494   */\n      swap1\n      iszero\n        /* \"#utility.yul\":1473:1495   */\n      iszero\n        /* \"#utility.yul\":1468:1470   */\n      0x20\n        /* \"#utility.yul\":1453:1471   */\n      dup4\n      add\n        /* \"#utility.yul\":1446:1496   */\n      mstore\n        /* \"#utility.yul\":1369:1387   */\n      add\n        /* \"contracts/Stakable.sol\":11543:11692  function getVoters(address user) external view returns (bool, bool) {... */\n      tag_38\n        /* \"#utility.yul\":1234:1502   */\n      jump\n        /* \"contracts/Stakable.sol\":1511:1532  address public _talax */\n    tag_8:\n      sload(0x09)\n      tag_51\n      swap1\n      sub(shl(0xa0, 0x01), 0x01)\n      and\n      dup2\n      jump\n    tag_51:\n      mload(0x40)\n      sub(shl(0xa0, 0x01), 0x01)\n        /* \"#utility.yul\":1671:1726   */\n      swap1\n      swap2\n      and\n        /* \"#utility.yul\":1653:1727   */\n      dup2\n      mstore\n        /* \"#utility.yul\":1641:1643   */\n      0x20\n        /* \"#utility.yul\":1626:1644   */\n      add\n        /* \"contracts/Stakable.sol\":1511:1532  address public _talax */\n      tag_38\n        /* \"#utility.yul\":1507:1733   */\n      jump\n        /* \"contracts/Stakable.sol\":1382:1408  uint256 public totalVoters */\n    tag_9:\n      tag_55\n      sload(0x06)\n      dup2\n      jump\n    tag_55:\n      mload(0x40)\n        /* \"#utility.yul\":1884:1909   */\n      swap1\n      dup2\n      mstore\n        /* \"#utility.yul\":1872:1874   */\n      0x20\n        /* \"#utility.yul\":1857:1875   */\n      add\n        /* \"contracts/Stakable.sol\":1382:1408  uint256 public totalVoters */\n      tag_38\n        /* \"#utility.yul\":1738:1915   */\n      jump\n        /* \"contracts/Stakable.sol\":12040:12443  function vote() public nonReentrant votingStatusTrue isVoter {... */\n    tag_10:\n      tag_34\n      tag_60\n      jump\t// in\n        /* \"contracts/Stakable.sol\":10504:11051  function claimAirdrop(address user) external onlyTalax returns (uint256) {... */\n    tag_11:\n      tag_55\n      tag_62\n      calldatasize\n      0x04\n      tag_42\n      jump\t// in\n    tag_62:\n      tag_63\n      jump\t// in\n        /* \"contracts/Stakable.sol\":12867:13355  function getVotingResult()... */\n    tag_12:\n      tag_65\n      tag_66\n      jump\t// in\n    tag_65:\n      mload(0x40)\n        /* \"#utility.yul\":2085:2099   */\n      swap1\n      iszero\n        /* \"#utility.yul\":2078:2100   */\n      iszero\n        /* \"#utility.yul\":2060:2101   */\n      dup2\n      mstore\n        /* \"#utility.yul\":2048:2050   */\n      0x20\n        /* \"#utility.yul\":2033:2051   */\n      add\n        /* \"contracts/Stakable.sol\":12867:13355  function getVotingResult()... */\n      tag_38\n        /* \"#utility.yul\":1920:2107   */\n      jump\n        /* \"contracts/Stakable.sol\":11057:11221  function getLatestClaimDrop() external view returns (uint256) {... */\n    tag_13:\n        /* \"contracts/Stakable.sol\":11164:11174  msg.sender */\n      caller\n        /* \"contracts/Stakable.sol\":11110:11117  uint256 */\n      0x00\n        /* \"contracts/Stakable.sol\":11151:11175  stakeholders[msg.sender] */\n      swap1\n      dup2\n      mstore\n        /* \"contracts/Stakable.sol\":11151:11163  stakeholders */\n      0x0b\n        /* \"contracts/Stakable.sol\":11151:11175  stakeholders[msg.sender] */\n      0x20\n      swap1\n      dup2\n      mstore\n      0x40\n      swap2\n      dup3\n      swap1\n      keccak256\n        /* \"contracts/Stakable.sol\":11129:11175  Stake memory staker = stakeholders[msg.sender] */\n      dup3\n      mload\n      0xe0\n      dup2\n      add\n      dup5\n      mstore\n      dup2\n      sload\n      dup2\n      mstore\n      0x01\n      dup3\n      add\n      sload\n      swap3\n      dup2\n      add\n      swap3\n      swap1\n      swap3\n      mstore\n      0x02\n      dup2\n      add\n      sload\n      swap3\n      dup3\n      add\n      swap3\n      swap1\n      swap3\n      mstore\n      0x03\n      dup3\n      add\n      sload\n      0x60\n      dup3\n      add\n      mstore\n      0x04\n      dup3\n      add\n      sload\n      0x80\n      dup3\n      add\n      mstore\n      0x05\n      dup3\n      add\n      sload\n      0xa0\n      dup3\n      add\n      mstore\n      0x06\n      swap1\n      swap2\n      add\n      sload\n      0xc0\n      swap1\n      swap2\n      add\n      dup2\n      swap1\n      mstore\n        /* \"contracts/Stakable.sol\":11057:11221  function getLatestClaimDrop() external view returns (uint256) {... */\n      jump(tag_55)\n        /* \"contracts/Stakable.sol\":9840:9935  function startAirdropSince() external onlyTalax {... */\n    tag_14:\n      tag_34\n      tag_73\n      jump\t// in\n        /* \"contracts/Stakable.sol\":1251:1277  uint256 public airdropRate */\n    tag_15:\n      tag_55\n      sload(0x02)\n      dup2\n      jump\n        /* \"contracts/Stakable.sol\":5893:6199  function changePenaltyFee(uint256 amount) external onlyOwner {... */\n    tag_16:\n      tag_34\n      tag_78\n      calldatasize\n      0x04\n      tag_79\n      jump\t// in\n    tag_78:\n      tag_80\n      jump\t// in\n        /* \"contracts/Stakable.sol\":1459:1504  mapping(uint256 => uint256) public votedUsers */\n    tag_17:\n      tag_55\n      tag_82\n      calldatasize\n      0x04\n      tag_79\n      jump\t// in\n    tag_82:\n      mstore(0x20, 0x08)\n      0x00\n      swap1\n      dup2\n      mstore\n      0x40\n      swap1\n      keccak256\n      sload\n      dup2\n      jump\n        /* \"contracts/Stakable.sol\":1414:1453  mapping(address => Voter) public voters */\n    tag_18:\n      tag_65\n      tag_86\n      calldatasize\n      0x04\n      tag_42\n      jump\t// in\n    tag_86:\n      mstore(0x20, 0x07)\n      0x00\n      swap1\n      dup2\n      mstore\n      0x40\n      swap1\n      keccak256\n      sload\n      0xff\n      and\n      dup2\n      jump\n        /* \"contracts/Stakable.sol\":1538:1559  address public _owner */\n    tag_19:\n      sload(0x0a)\n      tag_51\n      swap1\n      sub(shl(0xa0, 0x01), 0x01)\n      and\n      dup2\n      jump\n        /* \"contracts/Stakable.sol\":1283:1310  uint256 public airdropSince */\n    tag_20:\n      tag_55\n      sload(0x03)\n      dup2\n      jump\n        /* \"contracts/Stakable.sol\":7870:8595  function withdrawStake(address user)... */\n    tag_21:\n      tag_95\n      tag_96\n      calldatasize\n      0x04\n      tag_42\n      jump\t// in\n    tag_96:\n      tag_97\n      jump\t// in\n    tag_95:\n      0x40\n      dup1\n      mload\n        /* \"#utility.yul\":2471:2496   */\n      swap3\n      dup4\n      mstore\n        /* \"#utility.yul\":2527:2529   */\n      0x20\n        /* \"#utility.yul\":2512:2530   */\n      dup4\n      add\n        /* \"#utility.yul\":2505:2539   */\n      swap2\n      swap1\n      swap2\n      mstore\n        /* \"#utility.yul\":2444:2462   */\n      add\n        /* \"contracts/Stakable.sol\":7870:8595  function withdrawStake(address user)... */\n      tag_38\n        /* \"#utility.yul\":2297:2545   */\n      jump\n        /* \"contracts/Stakable.sol\":1212:1245  uint256 public stakingPenaltyRate */\n    tag_22:\n      tag_55\n      sload(0x01)\n      dup2\n      jump\n        /* \"contracts/Stakable.sol\":11227:11431  function airdropWeek() public view returns (uint256) {... */\n    tag_23:\n      tag_55\n      tag_104\n      jump\t// in\n        /* \"contracts/Stakable.sol\":9941:10175  function changeAirdropPercentage(uint256 amount) external onlyOwner {... */\n    tag_24:\n      tag_34\n      tag_107\n      calldatasize\n      0x04\n      tag_79\n      jump\t// in\n    tag_107:\n      tag_108\n      jump\t// in\n        /* \"contracts/Stakable.sol\":4713:5887  function stake(... */\n    tag_25:\n      tag_34\n      tag_110\n      calldatasize\n      0x04\n      tag_111\n      jump\t// in\n    tag_110:\n      tag_112\n      jump\t// in\n        /* \"contracts/Stakable.sol\":13361:13457  function stopVoting() external onlyTalax votingStatusTrue {... */\n    tag_26:\n      tag_34\n      tag_114\n      jump\t// in\n        /* \"contracts/Stakable.sol\":12449:12861  function retractVote() public nonReentrant votingStatusTrue isVoter {... */\n    tag_35:\n        /* \"@openzeppelin/contracts/security/ReentrancyGuard.sol\":1744:1745  2 */\n      0x02\n        /* \"@openzeppelin/contracts/security/ReentrancyGuard.sol\":2325:2332  _status */\n      sload(0x00)\n        /* \"@openzeppelin/contracts/security/ReentrancyGuard.sol\":2325:2344  _status != _ENTERED */\n      eq\n      iszero\n        /* \"@openzeppelin/contracts/security/ReentrancyGuard.sol\":2317:2380  require(_status != _ENTERED, \"ReentrancyGuard: reentrant call\") */\n      tag_116\n      jumpi\n      mload(0x40)\n      shl(0xe5, 0x461bcd)\n      dup2\n      mstore\n        /* \"#utility.yul\":3148:3150   */\n      0x20\n        /* \"@openzeppelin/contracts/security/ReentrancyGuard.sol\":2317:2380  require(_status != _ENTERED, \"ReentrancyGuard: reentrant call\") */\n      0x04\n      dup3\n      add\n        /* \"#utility.yul\":3130:3151   */\n      mstore\n        /* \"#utility.yul\":3187:3189   */\n      0x1f\n        /* \"#utility.yul\":3167:3185   */\n      0x24\n      dup3\n      add\n        /* \"#utility.yul\":3160:3190   */\n      mstore\n        /* \"#utility.yul\":3226:3259   */\n      0x5265656e7472616e637947756172643a207265656e7472616e742063616c6c00\n        /* \"#utility.yul\":3206:3224   */\n      0x44\n      dup3\n      add\n        /* \"#utility.yul\":3199:3260   */\n      mstore\n        /* \"#utility.yul\":3277:3295   */\n      0x64\n      add\n        /* \"@openzeppelin/contracts/security/ReentrancyGuard.sol\":2317:2380  require(_status != _ENTERED, \"ReentrancyGuard: reentrant call\") */\n    tag_117:\n      mload(0x40)\n      dup1\n      swap2\n      sub\n      swap1\n      revert\n    tag_116:\n        /* \"@openzeppelin/contracts/security/ReentrancyGuard.sol\":1744:1745  2 */\n      0x02\n        /* \"@openzeppelin/contracts/security/ReentrancyGuard.sol\":2455:2462  _status */\n      0x00\n        /* \"@openzeppelin/contracts/security/ReentrancyGuard.sol\":2455:2473  _status = _ENTERED */\n      sstore\n        /* \"contracts/Stakable.sol\":4259:4279  _checkVotingStatus() */\n      tag_120\n        /* \"contracts/Stakable.sol\":4259:4277  _checkVotingStatus */\n      tag_121\n        /* \"contracts/Stakable.sol\":4259:4279  _checkVotingStatus() */\n      jump\t// in\n    tag_120:\n        /* \"contracts/Stakable.sol\":3977:3987  _isVoter() */\n      tag_123\n        /* \"contracts/Stakable.sol\":3977:3985  _isVoter */\n      tag_124\n        /* \"contracts/Stakable.sol\":3977:3987  _isVoter() */\n      jump\t// in\n    tag_123:\n        /* \"contracts/Stakable.sol\":12672:12682  msg.sender */\n      caller\n        /* \"contracts/Stakable.sol\":12665:12683  voters[msg.sender] */\n      0x00\n      swap1\n      dup2\n      mstore\n        /* \"contracts/Stakable.sol\":12665:12671  voters */\n      0x07\n        /* \"contracts/Stakable.sol\":12665:12683  voters[msg.sender] */\n      0x20\n      swap1\n      dup2\n      mstore\n      0x40\n      dup1\n      dup4\n      keccak256\n        /* \"contracts/Stakable.sol\":12690:12699  _votingId */\n      sload(0x05)\n        /* \"contracts/Stakable.sol\":12665:12700  voters[msg.sender].voted[_votingId] */\n      dup5\n      mstore\n        /* \"contracts/Stakable.sol\":12665:12689  voters[msg.sender].voted */\n      0x01\n      add\n        /* \"contracts/Stakable.sol\":12665:12700  voters[msg.sender].voted[_votingId] */\n      swap1\n      swap2\n      mstore\n      swap1\n      keccak256\n      sload\n      0xff\n      and\n        /* \"contracts/Stakable.sol\":12661:12764  if (voters[msg.sender].voted[_votingId] == false) {... */\n      tag_126\n      jumpi\n        /* \"contracts/Stakable.sol\":12732:12753  Voting__notYetVoted() */\n      mload(0x40)\n      0x8b74220000000000000000000000000000000000000000000000000000000000\n      dup2\n      mstore\n      0x04\n      add\n      mload(0x40)\n      dup1\n      swap2\n      sub\n      swap1\n      revert\n        /* \"contracts/Stakable.sol\":12661:12764  if (voters[msg.sender].voted[_votingId] == false) {... */\n    tag_126:\n        /* \"contracts/Stakable.sol\":12799:12808  _votingId */\n      sload(0x05)\n        /* \"contracts/Stakable.sol\":12774:12792  voters[msg.sender] */\n      0x00\n        /* \"contracts/Stakable.sol\":12774:12809  voters[msg.sender].voted[_votingId] */\n      swap1\n      dup2\n      mstore\n        /* \"contracts/Stakable.sol\":12828:12838  votedUsers */\n      0x08\n        /* \"contracts/Stakable.sol\":12774:12792  voters[msg.sender] */\n      0x20\n        /* \"contracts/Stakable.sol\":12828:12849  votedUsers[_votingId] */\n      mstore\n        /* \"contracts/Stakable.sol\":12774:12792  voters[msg.sender] */\n      0x40\n        /* \"contracts/Stakable.sol\":12828:12849  votedUsers[_votingId] */\n      dup2\n      keccak256\n        /* \"contracts/Stakable.sol\":12828:12854  votedUsers[_votingId] -= 1 */\n      dup1\n      sload\n        /* \"contracts/Stakable.sol\":12774:12798  voters[msg.sender].voted */\n      0x01\n      swap3\n        /* \"contracts/Stakable.sol\":12774:12792  voters[msg.sender] */\n      swap1\n        /* \"contracts/Stakable.sol\":12828:12854  votedUsers[_votingId] -= 1 */\n      tag_127\n      swap1\n        /* \"contracts/Stakable.sol\":12774:12798  voters[msg.sender].voted */\n      dup5\n      swap1\n        /* \"contracts/Stakable.sol\":12828:12854  votedUsers[_votingId] -= 1 */\n      tag_128\n      jump\t// in\n    tag_127:\n      swap1\n      swap2\n      sstore\n      pop\n      pop\n        /* \"@openzeppelin/contracts/security/ReentrancyGuard.sol\":1701:1702  1 */\n      0x01\n        /* \"@openzeppelin/contracts/security/ReentrancyGuard.sol\":2628:2635  _status */\n      0x00\n        /* \"@openzeppelin/contracts/security/ReentrancyGuard.sol\":2628:2650  _status = _NOT_ENTERED */\n      sstore\n        /* \"contracts/Stakable.sol\":12449:12861  function retractVote() public nonReentrant votingStatusTrue isVoter {... */\n      jump\t// out\n        /* \"contracts/Stakable.sol\":8601:9728  function hasStake() external view returns (StakingSummary memory) {... */\n    tag_37:\n        /* \"contracts/Stakable.sol\":8644:8665  StakingSummary memory */\n      tag_129\n      tag_130\n      jump\t// in\n    tag_129:\n        /* \"contracts/Stakable.sol\":8716:8726  msg.sender */\n      caller\n        /* \"contracts/Stakable.sol\":8677:8700  Stake memory user_stake */\n      0x00\n        /* \"contracts/Stakable.sol\":8703:8727  stakeholders[msg.sender] */\n      swap1\n      dup2\n      mstore\n        /* \"contracts/Stakable.sol\":8703:8715  stakeholders */\n      0x0b\n        /* \"contracts/Stakable.sol\":8703:8727  stakeholders[msg.sender] */\n      0x20\n      swap1\n      dup2\n      mstore\n      0x40\n      swap2\n      dup3\n      swap1\n      keccak256\n        /* \"contracts/Stakable.sol\":8677:8727  Stake memory user_stake = stakeholders[msg.sender] */\n      dup3\n      mload\n      0xe0\n      dup2\n      add\n      dup5\n      mstore\n      dup2\n      sload\n      dup1\n      dup3\n      mstore\n      0x01\n      dup4\n      add\n      sload\n      swap4\n      dup3\n      add\n      swap4\n      swap1\n      swap4\n      mstore\n      0x02\n      dup3\n      add\n      sload\n      swap4\n      dup2\n      add\n      swap4\n      swap1\n      swap4\n      mstore\n      0x03\n      dup2\n      add\n      sload\n      0x60\n      dup5\n      add\n      mstore\n      0x04\n      dup2\n      add\n      sload\n      0x80\n      dup5\n      add\n      mstore\n      0x05\n      dup2\n      add\n      sload\n      0xa0\n      dup5\n      add\n      mstore\n      0x06\n      add\n      sload\n      0xc0\n      dup4\n      add\n      mstore\n        /* \"contracts/Stakable.sol\":8798:8883  if (user_stake.amount <= 0) {... */\n      tag_132\n      jumpi\n        /* \"contracts/Stakable.sol\":8847:8872  Staking__noStakingFound() */\n      mload(0x40)\n      0xb018f08700000000000000000000000000000000000000000000000000000000\n      dup2\n      mstore\n      0x04\n      add\n      mload(0x40)\n      dup1\n      swap2\n      sub\n      swap1\n      revert\n        /* \"contracts/Stakable.sol\":8798:8883  if (user_stake.amount <= 0) {... */\n    tag_132:\n        /* \"contracts/Stakable.sol\":8924:8956  StakingSummary(0, 0, user_stake) */\n      0x40\n      dup1\n      mload\n      0x60\n      dup2\n      add\n      dup3\n      mstore\n        /* \"contracts/Stakable.sol\":8892:8921  StakingSummary memory summary */\n      0x00\n        /* \"contracts/Stakable.sol\":8924:8956  StakingSummary(0, 0, user_stake) */\n      dup1\n      dup3\n      mstore\n      0x20\n      dup3\n      add\n      dup2\n      swap1\n      mstore\n      swap2\n      dup2\n      add\n      dup4\n      swap1\n      mstore\n      swap1\n        /* \"contracts/Stakable.sol\":8984:9017  _calculateStakeReward(user_stake) */\n      tag_133\n        /* \"contracts/Stakable.sol\":8945:8955  user_stake */\n      dup4\n        /* \"contracts/Stakable.sol\":8984:9005  _calculateStakeReward */\n      tag_134\n        /* \"contracts/Stakable.sol\":8984:9017  _calculateStakeReward(user_stake) */\n      jump\t// in\n    tag_133:\n        /* \"contracts/Stakable.sol\":8967:9017  uint256 reward = _calculateStakeReward(user_stake) */\n      swap1\n      pop\n        /* \"contracts/Stakable.sol\":9060:9075  block.timestamp */\n      timestamp\n        /* \"contracts/Stakable.sol\":9032:9039  summary */\n      dup3\n        /* \"contracts/Stakable.sol\":9032:9045  summary.stake */\n      0x40\n      add\n      mload\n        /* \"contracts/Stakable.sol\":9032:9057  summary.stake.releaseTime */\n      0x60\n      add\n      mload\n        /* \"contracts/Stakable.sol\":9032:9075  summary.stake.releaseTime > block.timestamp */\n      gt\n        /* \"contracts/Stakable.sol\":9028:9344  if (summary.stake.releaseTime > block.timestamp) {... */\n      iszero\n      tag_135\n      jumpi\n        /* \"contracts/Stakable.sol\":9273:9333  SafeMath.div(SafeMath.mul(reward, stakingPenaltyRate), 1000) */\n      tag_136\n        /* \"contracts/Stakable.sol\":9286:9326  SafeMath.mul(reward, stakingPenaltyRate) */\n      tag_137\n        /* \"contracts/Stakable.sol\":9299:9305  reward */\n      dup3\n        /* \"contracts/Stakable.sol\":9307:9325  stakingPenaltyRate */\n      sload(0x01)\n        /* \"contracts/Stakable.sol\":9286:9298  SafeMath.mul */\n      tag_138\n        /* \"contracts/Stakable.sol\":9286:9326  SafeMath.mul(reward, stakingPenaltyRate) */\n      jump\t// in\n    tag_137:\n        /* \"contracts/Stakable.sol\":9328:9332  1000 */\n      0x03e8\n        /* \"contracts/Stakable.sol\":9273:9285  SafeMath.div */\n      tag_139\n        /* \"contracts/Stakable.sol\":9273:9333  SafeMath.div(SafeMath.mul(reward, stakingPenaltyRate), 1000) */\n      jump\t// in\n    tag_136:\n        /* \"contracts/Stakable.sol\":9125:9254  SafeMath.div(... */\n      tag_140\n        /* \"contracts/Stakable.sol\":9159:9210  SafeMath.mul(user_stake.amount, stakingPenaltyRate) */\n      tag_137\n        /* \"contracts/Stakable.sol\":9172:9182  user_stake */\n      dup6\n        /* \"contracts/Stakable.sol\":9172:9189  user_stake.amount */\n      0x00\n      add\n      mload\n        /* \"contracts/Stakable.sol\":9191:9209  stakingPenaltyRate */\n      sload(0x01)\n        /* \"contracts/Stakable.sol\":9159:9171  SafeMath.mul */\n      tag_138\n        /* \"contracts/Stakable.sol\":9159:9210  SafeMath.mul(user_stake.amount, stakingPenaltyRate) */\n      jump\t// in\n        /* \"contracts/Stakable.sol\":9125:9254  SafeMath.div(... */\n    tag_140:\n        /* \"contracts/Stakable.sol\":9125:9333  SafeMath.div(... */\n      tag_142\n      swap2\n      swap1\n      tag_143\n      jump\t// in\n    tag_142:\n        /* \"contracts/Stakable.sol\":9091:9106  summary.penalty */\n      0x20\n      dup4\n      add\n        /* \"contracts/Stakable.sol\":9091:9333  summary.penalty =... */\n      mstore\n        /* \"contracts/Stakable.sol\":9028:9344  if (summary.stake.releaseTime > block.timestamp) {... */\n    tag_135:\n        /* \"contracts/Stakable.sol\":9403:9404  0 */\n      0x00\n        /* \"contracts/Stakable.sol\":9358:9400  _calculateWeek(user_stake.latestClaimDrop) */\n      tag_144\n        /* \"contracts/Stakable.sol\":9373:9383  user_stake */\n      dup5\n        /* \"contracts/Stakable.sol\":9373:9399  user_stake.latestClaimDrop */\n      0xc0\n      add\n      mload\n        /* \"contracts/Stakable.sol\":9358:9372  _calculateWeek */\n      tag_145\n        /* \"contracts/Stakable.sol\":9358:9400  _calculateWeek(user_stake.latestClaimDrop) */\n      jump\t// in\n    tag_144:\n        /* \"contracts/Stakable.sol\":9358:9404  _calculateWeek(user_stake.latestClaimDrop) > 0 */\n      gt\n        /* \"contracts/Stakable.sol\":9354:9604  if (_calculateWeek(user_stake.latestClaimDrop) > 0) {... */\n      iszero\n      tag_146\n      jumpi\n        /* \"contracts/Stakable.sol\":9420:9435  uint256 airdrop */\n      0x00\n        /* \"contracts/Stakable.sol\":9438:9474  _calculateAirdrop(user_stake.amount) */\n      tag_147\n        /* \"contracts/Stakable.sol\":9456:9466  user_stake */\n      dup5\n        /* \"contracts/Stakable.sol\":9456:9473  user_stake.amount */\n      0x00\n      add\n      mload\n        /* \"contracts/Stakable.sol\":9438:9455  _calculateAirdrop */\n      tag_148\n        /* \"contracts/Stakable.sol\":9438:9474  _calculateAirdrop(user_stake.amount) */\n      jump\t// in\n    tag_147:\n        /* \"contracts/Stakable.sol\":9488:9501  summary.stake */\n      0x40\n      dup5\n      add\n      mload\n        /* \"contracts/Stakable.sol\":9488:9518  summary.stake.claimableAirdrop */\n      0xa0\n      add\n        /* \"contracts/Stakable.sol\":9488:9528  summary.stake.claimableAirdrop = airdrop */\n      mstore\n      pop\n        /* \"contracts/Stakable.sol\":9354:9604  if (_calculateWeek(user_stake.latestClaimDrop) > 0) {... */\n      jump(tag_149)\n    tag_146:\n        /* \"contracts/Stakable.sol\":9559:9572  summary.stake */\n      0x40\n      dup3\n      add\n      mload\n        /* \"contracts/Stakable.sol\":9592:9593  0 */\n      0x00\n        /* \"contracts/Stakable.sol\":9559:9589  summary.stake.claimableAirdrop */\n      0xa0\n      swap1\n      swap2\n      add\n        /* \"contracts/Stakable.sol\":9559:9593  summary.stake.claimableAirdrop = 0 */\n      mstore\n        /* \"contracts/Stakable.sol\":9354:9604  if (_calculateWeek(user_stake.latestClaimDrop) > 0) {... */\n    tag_149:\n        /* \"contracts/Stakable.sol\":9614:9627  summary.stake */\n      0x40\n      dup3\n      add\n      mload\n        /* \"contracts/Stakable.sol\":9614:9637  summary.stake.claimable */\n      0x80\n      add\n        /* \"contracts/Stakable.sol\":9614:9646  summary.stake.claimable = reward */\n      mstore\n        /* \"contracts/Stakable.sol\":9679:9696  user_stake.amount */\n      swap1\n      mload\n        /* \"contracts/Stakable.sol\":9656:9696  summary.total_amount = user_stake.amount */\n      dup2\n      mstore\n        /* \"contracts/Stakable.sol\":9614:9621  summary */\n      swap2\n        /* \"contracts/Stakable.sol\":8601:9728  function hasStake() external view returns (StakingSummary memory) {... */\n      swap1\n      pop\n      jump\t// out\n        /* \"contracts/Stakable.sol\":4409:4502  function changeTalaxAddress(address talax) external onlyOwner {... */\n    tag_43:\n        /* \"contracts/Stakable.sol\":3678:3687  isOwner() */\n      tag_151\n        /* \"contracts/Stakable.sol\":3678:3685  isOwner */\n      tag_152\n        /* \"contracts/Stakable.sol\":3678:3687  isOwner() */\n      jump\t// in\n    tag_151:\n        /* \"contracts/Stakable.sol\":4481:4487  _talax */\n      0x09\n        /* \"contracts/Stakable.sol\":4481:4495  _talax = talax */\n      dup1\n      sload\n      0xffffffffffffffffffffffff0000000000000000000000000000000000000000\n      and\n      sub(shl(0xa0, 0x01), 0x01)\n      swap3\n      swap1\n      swap3\n      and\n      swap2\n      swap1\n      swap2\n      or\n      swap1\n      sstore\n        /* \"contracts/Stakable.sol\":4409:4502  function changeTalaxAddress(address talax) external onlyOwner {... */\n      jump\t// out\n        /* \"contracts/Stakable.sol\":11751:12034  function startVoting() external nonReentrant onlyTalax {... */\n    tag_45:\n        /* \"@openzeppelin/contracts/security/ReentrancyGuard.sol\":1744:1745  2 */\n      0x02\n        /* \"@openzeppelin/contracts/security/ReentrancyGuard.sol\":2325:2332  _status */\n      sload(0x00)\n        /* \"@openzeppelin/contracts/security/ReentrancyGuard.sol\":2325:2344  _status != _ENTERED */\n      eq\n      iszero\n        /* \"@openzeppelin/contracts/security/ReentrancyGuard.sol\":2317:2380  require(_status != _ENTERED, \"ReentrancyGuard: reentrant call\") */\n      tag_155\n      jumpi\n      mload(0x40)\n      shl(0xe5, 0x461bcd)\n      dup2\n      mstore\n        /* \"#utility.yul\":3148:3150   */\n      0x20\n        /* \"@openzeppelin/contracts/security/ReentrancyGuard.sol\":2317:2380  require(_status != _ENTERED, \"ReentrancyGuard: reentrant call\") */\n      0x04\n      dup3\n      add\n        /* \"#utility.yul\":3130:3151   */\n      mstore\n        /* \"#utility.yul\":3187:3189   */\n      0x1f\n        /* \"#utility.yul\":3167:3185   */\n      0x24\n      dup3\n      add\n        /* \"#utility.yul\":3160:3190   */\n      mstore\n        /* \"#utility.yul\":3226:3259   */\n      0x5265656e7472616e637947756172643a207265656e7472616e742063616c6c00\n        /* \"#utility.yul\":3206:3224   */\n      0x44\n      dup3\n      add\n        /* \"#utility.yul\":3199:3260   */\n      mstore\n        /* \"#utility.yul\":3277:3295   */\n      0x64\n      add\n        /* \"@openzeppelin/contracts/security/ReentrancyGuard.sol\":2317:2380  require(_status != _ENTERED, \"ReentrancyGuard: reentrant call\") */\n      tag_117\n        /* \"#utility.yul\":2946:3301   */\n      jump\n        /* \"@openzeppelin/contracts/security/ReentrancyGuard.sol\":2317:2380  require(_status != _ENTERED, \"ReentrancyGuard: reentrant call\") */\n    tag_155:\n        /* \"@openzeppelin/contracts/security/ReentrancyGuard.sol\":1744:1745  2 */\n      0x02\n        /* \"@openzeppelin/contracts/security/ReentrancyGuard.sol\":2455:2462  _status */\n      0x00\n        /* \"@openzeppelin/contracts/security/ReentrancyGuard.sol\":2455:2473  _status = _ENTERED */\n      sstore\n        /* \"contracts/Stakable.sol\":3416:3425  isTalax() */\n      tag_158\n        /* \"contracts/Stakable.sol\":3416:3423  isTalax */\n      tag_159\n        /* \"contracts/Stakable.sol\":3416:3425  isTalax() */\n      jump\t// in\n    tag_158:\n        /* \"contracts/Stakable.sol\":11893:11906  _votingStatus */\n      and(0xff, sload(0x04))\n        /* \"contracts/Stakable.sol\":11893:11914  _votingStatus == true */\n      iszero\n      iszero\n        /* \"contracts/Stakable.sol\":11893:11906  _votingStatus */\n      0x01\n        /* \"contracts/Stakable.sol\":11893:11914  _votingStatus == true */\n      eq\n        /* \"contracts/Stakable.sol\":11889:11973  if (_votingStatus == true) {... */\n      iszero\n      tag_161\n      jumpi\n        /* \"contracts/Stakable.sol\":11937:11962  Voting__votingIsRunning() */\n      mload(0x40)\n      0x6da4cd2e00000000000000000000000000000000000000000000000000000000\n      dup2\n      mstore\n      0x04\n      add\n      mload(0x40)\n      dup1\n      swap2\n      sub\n      swap1\n      revert\n        /* \"contracts/Stakable.sol\":11889:11973  if (_votingStatus == true) {... */\n    tag_161:\n        /* \"contracts/Stakable.sol\":11983:11996  _votingStatus */\n      0x04\n        /* \"contracts/Stakable.sol\":11983:12003  _votingStatus = true */\n      dup1\n      sload\n      not(0xff)\n      and\n        /* \"contracts/Stakable.sol\":11999:12003  true */\n      0x01\n        /* \"contracts/Stakable.sol\":11983:12003  _votingStatus = true */\n      swap1\n      dup2\n      or\n      swap1\n      swap2\n      sstore\n        /* \"contracts/Stakable.sol\":12013:12022  _votingId */\n      0x05\n        /* \"contracts/Stakable.sol\":12013:12027  _votingId += 1 */\n      dup1\n      sload\n        /* \"contracts/Stakable.sol\":11983:11996  _votingStatus */\n      0x00\n      swap1\n        /* \"contracts/Stakable.sol\":12013:12027  _votingId += 1 */\n      tag_127\n      swap1\n        /* \"contracts/Stakable.sol\":11999:12003  true */\n      dup5\n      swap1\n        /* \"contracts/Stakable.sol\":12013:12027  _votingId += 1 */\n      tag_143\n      jump\t// in\n        /* \"contracts/Stakable.sol\":12040:12443  function vote() public nonReentrant votingStatusTrue isVoter {... */\n    tag_60:\n        /* \"@openzeppelin/contracts/security/ReentrancyGuard.sol\":1744:1745  2 */\n      0x02\n        /* \"@openzeppelin/contracts/security/ReentrancyGuard.sol\":2325:2332  _status */\n      sload(0x00)\n        /* \"@openzeppelin/contracts/security/ReentrancyGuard.sol\":2325:2344  _status != _ENTERED */\n      eq\n      iszero\n        /* \"@openzeppelin/contracts/security/ReentrancyGuard.sol\":2317:2380  require(_status != _ENTERED, \"ReentrancyGuard: reentrant call\") */\n      tag_165\n      jumpi\n      mload(0x40)\n      shl(0xe5, 0x461bcd)\n      dup2\n      mstore\n        /* \"#utility.yul\":3148:3150   */\n      0x20\n        /* \"@openzeppelin/contracts/security/ReentrancyGuard.sol\":2317:2380  require(_status != _ENTERED, \"ReentrancyGuard: reentrant call\") */\n      0x04\n      dup3\n      add\n        /* \"#utility.yul\":3130:3151   */\n      mstore\n        /* \"#utility.yul\":3187:3189   */\n      0x1f\n        /* \"#utility.yul\":3167:3185   */\n      0x24\n      dup3\n      add\n        /* \"#utility.yul\":3160:3190   */\n      mstore\n        /* \"#utility.yul\":3226:3259   */\n      0x5265656e7472616e637947756172643a207265656e7472616e742063616c6c00\n        /* \"#utility.yul\":3206:3224   */\n      0x44\n      dup3\n      add\n        /* \"#utility.yul\":3199:3260   */\n      mstore\n        /* \"#utility.yul\":3277:3295   */\n      0x64\n      add\n        /* \"@openzeppelin/contracts/security/ReentrancyGuard.sol\":2317:2380  require(_status != _ENTERED, \"ReentrancyGuard: reentrant call\") */\n      tag_117\n        /* \"#utility.yul\":2946:3301   */\n      jump\n        /* \"@openzeppelin/contracts/security/ReentrancyGuard.sol\":2317:2380  require(_status != _ENTERED, \"ReentrancyGuard: reentrant call\") */\n    tag_165:\n        /* \"@openzeppelin/contracts/security/ReentrancyGuard.sol\":1744:1745  2 */\n      0x02\n        /* \"@openzeppelin/contracts/security/ReentrancyGuard.sol\":2455:2462  _status */\n      0x00\n        /* \"@openzeppelin/contracts/security/ReentrancyGuard.sol\":2455:2473  _status = _ENTERED */\n      sstore\n        /* \"contracts/Stakable.sol\":4259:4279  _checkVotingStatus() */\n      tag_168\n        /* \"contracts/Stakable.sol\":4259:4277  _checkVotingStatus */\n      tag_121\n        /* \"contracts/Stakable.sol\":4259:4279  _checkVotingStatus() */\n      jump\t// in\n    tag_168:\n        /* \"contracts/Stakable.sol\":3977:3987  _isVoter() */\n      tag_170\n        /* \"contracts/Stakable.sol\":3977:3985  _isVoter */\n      tag_124\n        /* \"contracts/Stakable.sol\":3977:3987  _isVoter() */\n      jump\t// in\n    tag_170:\n        /* \"contracts/Stakable.sol\":12256:12266  msg.sender */\n      caller\n        /* \"contracts/Stakable.sol\":12249:12267  voters[msg.sender] */\n      0x00\n      swap1\n      dup2\n      mstore\n        /* \"contracts/Stakable.sol\":12249:12255  voters */\n      0x07\n        /* \"contracts/Stakable.sol\":12249:12267  voters[msg.sender] */\n      0x20\n      swap1\n      dup2\n      mstore\n      0x40\n      dup1\n      dup4\n      keccak256\n        /* \"contracts/Stakable.sol\":12274:12283  _votingId */\n      sload(0x05)\n        /* \"contracts/Stakable.sol\":12249:12284  voters[msg.sender].voted[_votingId] */\n      dup5\n      mstore\n        /* \"contracts/Stakable.sol\":12249:12273  voters[msg.sender].voted */\n      0x01\n      swap1\n      dup2\n      add\n        /* \"contracts/Stakable.sol\":12249:12284  voters[msg.sender].voted[_votingId] */\n      swap1\n      swap3\n      mstore\n      swap1\n      swap2\n      keccak256\n      sload\n      0xff\n      and\n        /* \"contracts/Stakable.sol\":12249:12292  voters[msg.sender].voted[_votingId] == true */\n      iszero\n      iszero\n      eq\n        /* \"contracts/Stakable.sol\":12245:12348  if (voters[msg.sender].voted[_votingId] == true) {... */\n      iszero\n      tag_172\n      jumpi\n        /* \"contracts/Stakable.sol\":12315:12337  Voting__alreadyVoted() */\n      mload(0x40)\n      0x740e33b000000000000000000000000000000000000000000000000000000000\n      dup2\n      mstore\n      0x04\n      add\n      mload(0x40)\n      dup1\n      swap2\n      sub\n      swap1\n      revert\n        /* \"contracts/Stakable.sol\":12245:12348  if (voters[msg.sender].voted[_votingId] == true) {... */\n    tag_172:\n        /* \"contracts/Stakable.sol\":12365:12375  msg.sender */\n      caller\n        /* \"contracts/Stakable.sol\":12358:12376  voters[msg.sender] */\n      0x00\n      swap1\n      dup2\n      mstore\n        /* \"contracts/Stakable.sol\":12358:12364  voters */\n      0x07\n        /* \"contracts/Stakable.sol\":12358:12376  voters[msg.sender] */\n      0x20\n      swap1\n      dup2\n      mstore\n      0x40\n      dup1\n      dup4\n      keccak256\n        /* \"contracts/Stakable.sol\":12383:12392  _votingId */\n      0x05\n      dup1\n      sload\n        /* \"contracts/Stakable.sol\":12358:12393  voters[msg.sender].voted[_votingId] */\n      dup6\n      mstore\n        /* \"contracts/Stakable.sol\":12396:12400  true */\n      0x01\n        /* \"contracts/Stakable.sol\":12358:12382  voters[msg.sender].voted */\n      swap2\n      dup3\n      add\n        /* \"contracts/Stakable.sol\":12358:12393  voters[msg.sender].voted[_votingId] */\n      dup5\n      mstore\n      dup3\n      dup6\n      keccak256\n        /* \"contracts/Stakable.sol\":12358:12400  voters[msg.sender].voted[_votingId] = true */\n      dup1\n      sload\n      not(0xff)\n      and\n      dup4\n      or\n      swap1\n      sstore\n        /* \"contracts/Stakable.sol\":12421:12430  _votingId */\n      sload\n        /* \"contracts/Stakable.sol\":12410:12431  votedUsers[_votingId] */\n      dup5\n      mstore\n        /* \"contracts/Stakable.sol\":12410:12420  votedUsers */\n      0x08\n        /* \"contracts/Stakable.sol\":12410:12431  votedUsers[_votingId] */\n      swap1\n      swap3\n      mstore\n      dup3\n      keccak256\n        /* \"contracts/Stakable.sol\":12410:12436  votedUsers[_votingId] += 1 */\n      dup1\n      sload\n        /* \"contracts/Stakable.sol\":12396:12400  true */\n      swap2\n      swap3\n        /* \"contracts/Stakable.sol\":12410:12431  votedUsers[_votingId] */\n      swap1\n      swap2\n        /* \"contracts/Stakable.sol\":12410:12436  votedUsers[_votingId] += 1 */\n      tag_127\n      swap1\n        /* \"contracts/Stakable.sol\":12396:12400  true */\n      dup5\n      swap1\n        /* \"contracts/Stakable.sol\":12410:12436  votedUsers[_votingId] += 1 */\n      tag_143\n      jump\t// in\n        /* \"contracts/Stakable.sol\":10504:11051  function claimAirdrop(address user) external onlyTalax returns (uint256) {... */\n    tag_63:\n        /* \"contracts/Stakable.sol\":10568:10575  uint256 */\n      0x00\n        /* \"contracts/Stakable.sol\":3416:3425  isTalax() */\n      tag_175\n        /* \"contracts/Stakable.sol\":3416:3423  isTalax */\n      tag_159\n        /* \"contracts/Stakable.sol\":3416:3425  isTalax() */\n      jump\t// in\n    tag_175:\n      sub(shl(0xa0, 0x01), 0x01)\n        /* \"contracts/Stakable.sol\":10662:10680  stakeholders[user] */\n      dup3\n      and\n        /* \"contracts/Stakable.sol\":10639:10659  Stake storage staker */\n      0x00\n        /* \"contracts/Stakable.sol\":10662:10680  stakeholders[user] */\n      swap1\n      dup2\n      mstore\n        /* \"contracts/Stakable.sol\":10662:10674  stakeholders */\n      0x0b\n        /* \"contracts/Stakable.sol\":10662:10680  stakeholders[user] */\n      0x20\n      mstore\n      0x40\n      swap1\n      keccak256\n        /* \"contracts/Stakable.sol\":10695:10708  staker.amount */\n      dup1\n      sload\n        /* \"contracts/Stakable.sol\":10695:10712  staker.amount > 0 */\n      iszero\n        /* \"contracts/Stakable.sol\":10691:11045  if (staker.amount > 0) {... */\n      tag_177\n      jumpi\n        /* \"contracts/Stakable.sol\":10732:10770  _calculateWeek(staker.latestClaimDrop) */\n      tag_178\n        /* \"contracts/Stakable.sol\":10747:10753  staker */\n      dup2\n        /* \"contracts/Stakable.sol\":10747:10769  staker.latestClaimDrop */\n      0x06\n      add\n      sload\n        /* \"contracts/Stakable.sol\":10732:10746  _calculateWeek */\n      tag_145\n        /* \"contracts/Stakable.sol\":10732:10770  _calculateWeek(staker.latestClaimDrop) */\n      jump\t// in\n    tag_178:\n        /* \"contracts/Stakable.sol\":10728:10846  if (_calculateWeek(staker.latestClaimDrop) == 0) {... */\n      tag_179\n      jumpi\n        /* \"contracts/Stakable.sol\":10802:10831  Airdrop__claimableOnceAWeek() */\n      mload(0x40)\n      0xdd8456cc00000000000000000000000000000000000000000000000000000000\n      dup2\n      mstore\n      0x04\n      add\n      mload(0x40)\n      dup1\n      swap2\n      sub\n      swap1\n      revert\n        /* \"contracts/Stakable.sol\":10728:10846  if (_calculateWeek(staker.latestClaimDrop) == 0) {... */\n    tag_179:\n        /* \"contracts/Stakable.sol\":10886:10887  0 */\n      0x00\n        /* \"contracts/Stakable.sol\":10860:10883  staker.claimableAirdrop */\n      0x05\n      dup3\n      add\n        /* \"contracts/Stakable.sol\":10860:10887  staker.claimableAirdrop = 0 */\n      sstore\n        /* \"contracts/Stakable.sol\":10926:10941  block.timestamp */\n      timestamp\n        /* \"contracts/Stakable.sol\":10901:10923  staker.latestClaimDrop */\n      0x06\n      dup3\n      add\n        /* \"contracts/Stakable.sol\":10901:10941  staker.latestClaimDrop = block.timestamp */\n      sstore\n        /* \"contracts/Stakable.sol\":10981:10994  staker.amount */\n      dup1\n      sload\n        /* \"contracts/Stakable.sol\":10963:10995  _calculateAirdrop(staker.amount) */\n      tag_180\n      swap1\n        /* \"contracts/Stakable.sol\":10963:10980  _calculateAirdrop */\n      tag_148\n        /* \"contracts/Stakable.sol\":10963:10995  _calculateAirdrop(staker.amount) */\n      jump\t// in\n    tag_180:\n        /* \"contracts/Stakable.sol\":10956:10995  return _calculateAirdrop(staker.amount) */\n      swap4\n        /* \"contracts/Stakable.sol\":10504:11051  function claimAirdrop(address user) external onlyTalax returns (uint256) {... */\n      swap3\n      pop\n      pop\n      pop\n      jump\t// out\n        /* \"contracts/Stakable.sol\":10691:11045  if (staker.amount > 0) {... */\n    tag_177:\n      pop\n        /* \"contracts/Stakable.sol\":11033:11034  0 */\n      0x00\n      swap3\n        /* \"contracts/Stakable.sol\":10504:11051  function claimAirdrop(address user) external onlyTalax returns (uint256) {... */\n      swap2\n      pop\n      pop\n      jump\t// out\n        /* \"contracts/Stakable.sol\":3435:3436  _ */\n    tag_176:\n        /* \"contracts/Stakable.sol\":10504:11051  function claimAirdrop(address user) external onlyTalax returns (uint256) {... */\n      swap2\n      swap1\n      pop\n      jump\t// out\n        /* \"contracts/Stakable.sol\":12867:13355  function getVotingResult()... */\n    tag_66:\n        /* \"contracts/Stakable.sol\":12984:12988  bool */\n      0x00\n        /* \"contracts/Stakable.sol\":3416:3425  isTalax() */\n      tag_183\n        /* \"contracts/Stakable.sol\":3416:3423  isTalax */\n      tag_159\n        /* \"contracts/Stakable.sol\":3416:3425  isTalax() */\n      jump\t// in\n    tag_183:\n        /* \"contracts/Stakable.sol\":4259:4279  _checkVotingStatus() */\n      tag_185\n        /* \"contracts/Stakable.sol\":4259:4277  _checkVotingStatus */\n      tag_121\n        /* \"contracts/Stakable.sol\":4259:4279  _checkVotingStatus() */\n      jump\t// in\n    tag_185:\n        /* \"contracts/Stakable.sol\":13081:13082  1 */\n      0x01\n        /* \"contracts/Stakable.sol\":13066:13077  totalVoters */\n      sload(0x06)\n        /* \"contracts/Stakable.sol\":13066:13082  totalVoters <= 1 */\n      gt\n        /* \"contracts/Stakable.sol\":13062:13141  if (totalVoters <= 1) {... */\n      tag_187\n      jumpi\n        /* \"contracts/Stakable.sol\":13105:13130  Voting__notEnoughVoters() */\n      mload(0x40)\n      0x2f9686de00000000000000000000000000000000000000000000000000000000\n      dup2\n      mstore\n      0x04\n      add\n      mload(0x40)\n      dup1\n      swap2\n      sub\n      swap1\n      revert\n        /* \"contracts/Stakable.sol\":13062:13141  if (totalVoters <= 1) {... */\n    tag_187:\n        /* \"contracts/Stakable.sol\":13150:13169  uint256 half_voters */\n      0x00\n        /* \"contracts/Stakable.sol\":13172:13218  SafeMath.div(SafeMath.mul(totalVoters, 5), 10) */\n      tag_188\n        /* \"contracts/Stakable.sol\":13185:13213  SafeMath.mul(totalVoters, 5) */\n      tag_189\n        /* \"contracts/Stakable.sol\":13198:13209  totalVoters */\n      sload(0x06)\n        /* \"contracts/Stakable.sol\":13211:13212  5 */\n      0x05\n        /* \"contracts/Stakable.sol\":13185:13197  SafeMath.mul */\n      tag_138\n        /* \"contracts/Stakable.sol\":13185:13213  SafeMath.mul(totalVoters, 5) */\n      jump\t// in\n    tag_189:\n        /* \"contracts/Stakable.sol\":13215:13217  10 */\n      0x0a\n        /* \"contracts/Stakable.sol\":13172:13184  SafeMath.div */\n      tag_139\n        /* \"contracts/Stakable.sol\":13172:13218  SafeMath.div(SafeMath.mul(totalVoters, 5), 10) */\n      jump\t// in\n    tag_188:\n        /* \"contracts/Stakable.sol\":13244:13253  _votingId */\n      sload(0x05)\n        /* \"contracts/Stakable.sol\":13233:13254  votedUsers[_votingId] */\n      0x00\n      swap1\n      dup2\n      mstore\n        /* \"contracts/Stakable.sol\":13233:13243  votedUsers */\n      0x08\n        /* \"contracts/Stakable.sol\":13233:13254  votedUsers[_votingId] */\n      0x20\n      mstore\n      0x40\n      swap1\n      keccak256\n      sload\n        /* \"contracts/Stakable.sol\":13150:13218  uint256 half_voters = SafeMath.div(SafeMath.mul(totalVoters, 5), 10) */\n      swap1\n      swap2\n      pop\n        /* \"contracts/Stakable.sol\":13233:13268  votedUsers[_votingId] > half_voters */\n      dup2\n      lt\n        /* \"contracts/Stakable.sol\":13229:13349  if (votedUsers[_votingId] > half_voters) {... */\n      iszero\n      tag_190\n      jumpi\n        /* \"contracts/Stakable.sol\":13291:13295  true */\n      0x01\n        /* \"contracts/Stakable.sol\":13284:13295  return true */\n      swap2\n      pop\n      pop\n        /* \"contracts/Stakable.sol\":12867:13355  function getVotingResult()... */\n      swap1\n      jump\t// out\n        /* \"contracts/Stakable.sol\":13229:13349  if (votedUsers[_votingId] > half_voters) {... */\n    tag_190:\n        /* \"contracts/Stakable.sol\":13333:13338  false */\n      0x00\n        /* \"contracts/Stakable.sol\":13326:13338  return false */\n      swap2\n      pop\n      pop\n        /* \"contracts/Stakable.sol\":12867:13355  function getVotingResult()... */\n      swap1\n      jump\t// out\n        /* \"contracts/Stakable.sol\":9840:9935  function startAirdropSince() external onlyTalax {... */\n    tag_73:\n        /* \"contracts/Stakable.sol\":3416:3425  isTalax() */\n      tag_194\n        /* \"contracts/Stakable.sol\":3416:3423  isTalax */\n      tag_159\n        /* \"contracts/Stakable.sol\":3416:3425  isTalax() */\n      jump\t// in\n    tag_194:\n        /* \"contracts/Stakable.sol\":9913:9928  block.timestamp */\n      timestamp\n        /* \"contracts/Stakable.sol\":9898:9910  airdropSince */\n      0x03\n        /* \"contracts/Stakable.sol\":9898:9928  airdropSince = block.timestamp */\n      sstore\n        /* \"contracts/Stakable.sol\":9840:9935  function startAirdropSince() external onlyTalax {... */\n      jump\t// out\n        /* \"contracts/Stakable.sol\":5893:6199  function changePenaltyFee(uint256 amount) external onlyOwner {... */\n    tag_80:\n        /* \"contracts/Stakable.sol\":3678:3687  isOwner() */\n      tag_197\n        /* \"contracts/Stakable.sol\":3678:3685  isOwner */\n      tag_152\n        /* \"contracts/Stakable.sol\":3678:3687  isOwner() */\n      jump\t// in\n    tag_197:\n        /* \"contracts/Stakable.sol\":6051:6053  30 */\n      0x1e\n        /* \"contracts/Stakable.sol\":6042:6048  amount */\n      dup2\n        /* \"contracts/Stakable.sol\":6042:6053  amount > 30 */\n      gt\n        /* \"contracts/Stakable.sol\":6038:6119  if (amount > 30) {... */\n      iszero\n      tag_199\n      jumpi\n        /* \"contracts/Stakable.sol\":6076:6108  Staking__penaltyExceed3Percent() */\n      mload(0x40)\n      0xf1a470d700000000000000000000000000000000000000000000000000000000\n      dup2\n      mstore\n      0x04\n      add\n      mload(0x40)\n      dup1\n      swap2\n      sub\n      swap1\n      revert\n        /* \"contracts/Stakable.sol\":6038:6119  if (amount > 30) {... */\n    tag_199:\n        /* \"contracts/Stakable.sol\":6128:6146  stakingPenaltyRate */\n      0x01\n        /* \"contracts/Stakable.sol\":6128:6155  stakingPenaltyRate = amount */\n      dup2\n      swap1\n      sstore\n        /* \"contracts/Stakable.sol\":6170:6192  PenaltyChanged(amount) */\n      mload(0x40)\n        /* \"#utility.yul\":1884:1909   */\n      dup2\n      dup2\n      mstore\n        /* \"contracts/Stakable.sol\":6170:6192  PenaltyChanged(amount) */\n      0xcfa4f4cf1cd64d13a167a8e75605e0c0c9d6700e903d17c5dc11f593254a04a9\n      swap1\n        /* \"#utility.yul\":1872:1874   */\n      0x20\n        /* \"#utility.yul\":1857:1875   */\n      add\n        /* \"contracts/Stakable.sol\":6170:6192  PenaltyChanged(amount) */\n    tag_200:\n      mload(0x40)\n      dup1\n      swap2\n      sub\n      swap1\n      log1\n        /* \"contracts/Stakable.sol\":5893:6199  function changePenaltyFee(uint256 amount) external onlyOwner {... */\n      pop\n      jump\t// out\n        /* \"contracts/Stakable.sol\":7870:8595  function withdrawStake(address user)... */\n    tag_97:\n        /* \"contracts/Stakable.sol\":7980:7987  uint256 */\n      0x00\n        /* \"contracts/Stakable.sol\":7989:7996  uint256 */\n      dup1\n        /* \"@openzeppelin/contracts/security/ReentrancyGuard.sol\":1744:1745  2 */\n      0x02\n        /* \"@openzeppelin/contracts/security/ReentrancyGuard.sol\":2325:2332  _status */\n      sload(0x00)\n        /* \"@openzeppelin/contracts/security/ReentrancyGuard.sol\":2325:2344  _status != _ENTERED */\n      eq\n      iszero\n        /* \"@openzeppelin/contracts/security/ReentrancyGuard.sol\":2317:2380  require(_status != _ENTERED, \"ReentrancyGuard: reentrant call\") */\n      tag_202\n      jumpi\n      mload(0x40)\n      shl(0xe5, 0x461bcd)\n      dup2\n      mstore\n        /* \"#utility.yul\":3148:3150   */\n      0x20\n        /* \"@openzeppelin/contracts/security/ReentrancyGuard.sol\":2317:2380  require(_status != _ENTERED, \"ReentrancyGuard: reentrant call\") */\n      0x04\n      dup3\n      add\n        /* \"#utility.yul\":3130:3151   */\n      mstore\n        /* \"#utility.yul\":3187:3189   */\n      0x1f\n        /* \"#utility.yul\":3167:3185   */\n      0x24\n      dup3\n      add\n        /* \"#utility.yul\":3160:3190   */\n      mstore\n        /* \"#utility.yul\":3226:3259   */\n      0x5265656e7472616e637947756172643a207265656e7472616e742063616c6c00\n        /* \"#utility.yul\":3206:3224   */\n      0x44\n      dup3\n      add\n        /* \"#utility.yul\":3199:3260   */\n      mstore\n        /* \"#utility.yul\":3277:3295   */\n      0x64\n      add\n        /* \"@openzeppelin/contracts/security/ReentrancyGuard.sol\":2317:2380  require(_status != _ENTERED, \"ReentrancyGuard: reentrant call\") */\n      tag_117\n        /* \"#utility.yul\":2946:3301   */\n      jump\n        /* \"@openzeppelin/contracts/security/ReentrancyGuard.sol\":2317:2380  require(_status != _ENTERED, \"ReentrancyGuard: reentrant call\") */\n    tag_202:\n        /* \"@openzeppelin/contracts/security/ReentrancyGuard.sol\":1744:1745  2 */\n      0x02\n        /* \"@openzeppelin/contracts/security/ReentrancyGuard.sol\":2455:2462  _status */\n      0x00\n        /* \"@openzeppelin/contracts/security/ReentrancyGuard.sol\":2455:2473  _status = _ENTERED */\n      sstore\n        /* \"contracts/Stakable.sol\":3416:3425  isTalax() */\n      tag_205\n        /* \"contracts/Stakable.sol\":3416:3423  isTalax */\n      tag_159\n        /* \"contracts/Stakable.sol\":3416:3425  isTalax() */\n      jump\t// in\n    tag_205:\n      sub(shl(0xa0, 0x01), 0x01)\n        /* \"contracts/Stakable.sol\":8146:8164  stakeholders[user] */\n      dup4\n      and\n        /* \"contracts/Stakable.sol\":8120:8143  Stake memory user_stake */\n      0x00\n        /* \"contracts/Stakable.sol\":8146:8164  stakeholders[user] */\n      dup2\n      dup2\n      mstore\n        /* \"contracts/Stakable.sol\":8146:8158  stakeholders */\n      0x0b\n        /* \"contracts/Stakable.sol\":8146:8164  stakeholders[user] */\n      0x20\n      dup2\n      dup2\n      mstore\n      0x40\n      dup1\n      dup5\n      keccak256\n        /* \"contracts/Stakable.sol\":8120:8164  Stake memory user_stake = stakeholders[user] */\n      dup2\n      mload\n      0xe0\n      dup2\n      add\n      dup4\n      mstore\n      dup2\n      sload\n      dup2\n      mstore\n      0x01\n      dup1\n      dup4\n      add\n      dup1\n      sload\n      dup4\n      dup8\n      add\n      mstore\n      0x02\n      dup5\n      add\n      dup1\n      sload\n      swap6\n      dup5\n      add\n      swap6\n      swap1\n      swap6\n      mstore\n      0x03\n      dup5\n      add\n      dup1\n      sload\n      0x60\n      dup6\n      add\n      mstore\n      0x04\n      dup6\n      add\n      dup1\n      sload\n      0x80\n      dup7\n      add\n      mstore\n      0x05\n      dup7\n      add\n      dup1\n      sload\n      0xa0\n      dup8\n      add\n      mstore\n      0x06\n      dup1\n      dup9\n      add\n      dup1\n      sload\n      0xc0\n      dup10\n      add\n      mstore\n        /* \"contracts/Stakable.sol\":8182:8200  stakeholders[user] */\n      swap13\n      dup13\n      mstore\n      swap10\n      swap1\n      swap9\n      mstore\n        /* \"contracts/Stakable.sol\":8175:8200  delete stakeholders[user] */\n      swap5\n      dup10\n      swap1\n      sstore\n      swap1\n      dup9\n      swap1\n      sstore\n      swap4\n      dup8\n      swap1\n      sstore\n      swap3\n      dup7\n      swap1\n      sstore\n      swap1\n      dup6\n      swap1\n      sstore\n      swap2\n      dup5\n      swap1\n      sstore\n      swap4\n      dup4\n      swap1\n      sstore\n        /* \"contracts/Stakable.sol\":8210:8226  totalVoters -= 1 */\n      dup2\n      sload\n        /* \"contracts/Stakable.sol\":8120:8164  Stake memory user_stake = stakeholders[user] */\n      swap1\n      swap4\n      swap3\n        /* \"contracts/Stakable.sol\":8120:8143  Stake memory user_stake */\n      swap1\n        /* \"contracts/Stakable.sol\":8210:8226  totalVoters -= 1 */\n      tag_207\n      swap1\n        /* \"contracts/Stakable.sol\":8120:8164  Stake memory user_stake = stakeholders[user] */\n      dup5\n      swap1\n        /* \"contracts/Stakable.sol\":8210:8226  totalVoters -= 1 */\n      tag_128\n      jump\t// in\n    tag_207:\n      swap1\n      swap2\n      sstore\n      pop\n      pop\n      sub(shl(0xa0, 0x01), 0x01)\n        /* \"contracts/Stakable.sol\":8243:8255  voters[user] */\n      dup5\n      and\n      0x00\n      swap1\n      dup2\n      mstore\n        /* \"contracts/Stakable.sol\":8243:8249  voters */\n      0x07\n        /* \"contracts/Stakable.sol\":8243:8255  voters[user] */\n      0x20\n      swap1\n      dup2\n      mstore\n      0x40\n      dup1\n      dup4\n      keccak256\n        /* \"contracts/Stakable.sol\":8262:8271  _votingId */\n      sload(0x05)\n        /* \"contracts/Stakable.sol\":8243:8272  voters[user].voted[_votingId] */\n      dup5\n      mstore\n        /* \"contracts/Stakable.sol\":8243:8261  voters[user].voted */\n      0x01\n      add\n        /* \"contracts/Stakable.sol\":8243:8272  voters[user].voted[_votingId] */\n      swap1\n      swap2\n      mstore\n      swap1\n      keccak256\n        /* \"contracts/Stakable.sol\":8236:8272  delete voters[user].voted[_votingId] */\n      dup1\n      sload\n      not(0xff)\n      and\n      swap1\n      sstore\n        /* \"contracts/Stakable.sol\":8287:8309  user_stake.releaseTime */\n      0x60\n      dup2\n      add\n      mload\n        /* \"contracts/Stakable.sol\":8312:8327  block.timestamp */\n      timestamp\n      lt\n        /* \"contracts/Stakable.sol\":8283:8517  if (user_stake.releaseTime > block.timestamp) {... */\n      iszero\n      tag_208\n      jumpi\n        /* \"contracts/Stakable.sol\":8416:8433  user_stake.amount */\n      dup1\n      mload\n        /* \"contracts/Stakable.sol\":8366:8506  _calculateStakingWithPenalty(... */\n      tag_209\n      swap1\n        /* \"contracts/Stakable.sol\":8455:8488  _calculateStakeReward(user_stake) */\n      tag_210\n        /* \"contracts/Stakable.sol\":8416:8426  user_stake */\n      dup4\n        /* \"contracts/Stakable.sol\":8455:8476  _calculateStakeReward */\n      tag_134\n        /* \"contracts/Stakable.sol\":8455:8488  _calculateStakeReward(user_stake) */\n      jump\t// in\n    tag_210:\n        /* \"contracts/Stakable.sol\":8366:8394  _calculateStakingWithPenalty */\n      tag_211\n        /* \"contracts/Stakable.sol\":8366:8506  _calculateStakingWithPenalty(... */\n      jump\t// in\n    tag_209:\n        /* \"contracts/Stakable.sol\":8343:8506  return... */\n      swap3\n      pop\n      swap3\n      pop\n      pop\n      jump(tag_206)\n        /* \"contracts/Stakable.sol\":8283:8517  if (user_stake.releaseTime > block.timestamp) {... */\n    tag_208:\n        /* \"contracts/Stakable.sol\":8535:8552  user_stake.amount */\n      dup1\n      mload\n        /* \"contracts/Stakable.sol\":8554:8587  _calculateStakeReward(user_stake) */\n      tag_212\n        /* \"contracts/Stakable.sol\":8535:8545  user_stake */\n      dup3\n        /* \"contracts/Stakable.sol\":8554:8575  _calculateStakeReward */\n      tag_134\n        /* \"contracts/Stakable.sol\":8554:8587  _calculateStakeReward(user_stake) */\n      jump\t// in\n    tag_212:\n        /* \"contracts/Stakable.sol\":8527:8588  return (user_stake.amount, _calculateStakeReward(user_stake)) */\n      swap3\n      pop\n      swap3\n      pop\n      pop\n        /* \"contracts/Stakable.sol\":3435:3436  _ */\n    tag_206:\n        /* \"@openzeppelin/contracts/security/ReentrancyGuard.sol\":1701:1702  1 */\n      0x01\n        /* \"@openzeppelin/contracts/security/ReentrancyGuard.sol\":2628:2635  _status */\n      0x00\n        /* \"@openzeppelin/contracts/security/ReentrancyGuard.sol\":2628:2650  _status = _NOT_ENTERED */\n      sstore\n        /* \"contracts/Stakable.sol\":7870:8595  function withdrawStake(address user)... */\n      swap1\n      swap3\n      swap1\n      swap2\n      pop\n      jump\t// out\n        /* \"contracts/Stakable.sol\":11227:11431  function airdropWeek() public view returns (uint256) {... */\n    tag_104:\n        /* \"contracts/Stakable.sol\":11271:11278  uint256 */\n      0x00\n        /* \"contracts/Stakable.sol\":11294:11306  airdropSince */\n      sload(0x03)\n        /* \"contracts/Stakable.sol\":11310:11311  0 */\n      0x00\n        /* \"contracts/Stakable.sol\":11294:11311  airdropSince != 0 */\n      eq\n        /* \"contracts/Stakable.sol\":11290:11425  if (airdropSince != 0) {... */\n      tag_214\n      jumpi\n        /* \"contracts/Stakable.sol\":11369:11375  7 days */\n      0x093a80\n        /* \"contracts/Stakable.sol\":11353:11365  airdropSince */\n      sload(0x03)\n        /* \"contracts/Stakable.sol\":11335:11350  block.timestamp */\n      timestamp\n        /* \"contracts/Stakable.sol\":11335:11365  block.timestamp - airdropSince */\n      tag_215\n      swap2\n      swap1\n      tag_128\n      jump\t// in\n    tag_215:\n        /* \"contracts/Stakable.sol\":11334:11375  (block.timestamp - airdropSince) / 7 days */\n      tag_216\n      swap2\n      swap1\n      tag_217\n      jump\t// in\n    tag_216:\n        /* \"contracts/Stakable.sol\":11327:11375  return (block.timestamp - airdropSince) / 7 days */\n      swap1\n      pop\n        /* \"contracts/Stakable.sol\":11227:11431  function airdropWeek() public view returns (uint256) {... */\n      swap1\n      jump\t// out\n        /* \"contracts/Stakable.sol\":11290:11425  if (airdropSince != 0) {... */\n    tag_214:\n      pop\n        /* \"contracts/Stakable.sol\":11413:11414  0 */\n      0x00\n      swap1\n        /* \"contracts/Stakable.sol\":11227:11431  function airdropWeek() public view returns (uint256) {... */\n      jump\t// out\n        /* \"contracts/Stakable.sol\":9941:10175  function changeAirdropPercentage(uint256 amount) external onlyOwner {... */\n    tag_108:\n        /* \"contracts/Stakable.sol\":3678:3687  isOwner() */\n      tag_220\n        /* \"contracts/Stakable.sol\":3678:3685  isOwner */\n      tag_152\n        /* \"contracts/Stakable.sol\":3678:3687  isOwner() */\n      jump\t// in\n    tag_220:\n        /* \"contracts/Stakable.sol\":10032:10035  200 */\n      0xc8\n        /* \"contracts/Stakable.sol\":10023:10029  amount */\n      dup2\n        /* \"contracts/Stakable.sol\":10023:10035  amount > 200 */\n      gt\n        /* \"contracts/Stakable.sol\":10019:10102  if (amount > 200) {... */\n      iszero\n      tag_222\n      jumpi\n        /* \"contracts/Stakable.sol\":10058:10091  Staking__airdropExceed20Percent() */\n      mload(0x40)\n      0xa552cf1000000000000000000000000000000000000000000000000000000000\n      dup2\n      mstore\n      0x04\n      add\n      mload(0x40)\n      dup1\n      swap2\n      sub\n      swap1\n      revert\n        /* \"contracts/Stakable.sol\":10019:10102  if (amount > 200) {... */\n    tag_222:\n        /* \"contracts/Stakable.sol\":10111:10122  airdropRate */\n      0x02\n        /* \"contracts/Stakable.sol\":10111:10131  airdropRate = amount */\n      dup2\n      swap1\n      sstore\n        /* \"contracts/Stakable.sol\":10146:10168  AirdropChanged(amount) */\n      mload(0x40)\n        /* \"#utility.yul\":1884:1909   */\n      dup2\n      dup2\n      mstore\n        /* \"contracts/Stakable.sol\":10146:10168  AirdropChanged(amount) */\n      0xcc672f1026b958c0cfbfdd89ebe8ddcbc127f16ec24da6c2c7a4de26a8b1857e\n      swap1\n        /* \"#utility.yul\":1872:1874   */\n      0x20\n        /* \"#utility.yul\":1857:1875   */\n      add\n        /* \"contracts/Stakable.sol\":10146:10168  AirdropChanged(amount) */\n      tag_200\n        /* \"#utility.yul\":1738:1915   */\n      jump\n        /* \"contracts/Stakable.sol\":4713:5887  function stake(... */\n    tag_112:\n        /* \"@openzeppelin/contracts/security/ReentrancyGuard.sol\":1744:1745  2 */\n      0x02\n        /* \"@openzeppelin/contracts/security/ReentrancyGuard.sol\":2325:2332  _status */\n      sload(0x00)\n        /* \"@openzeppelin/contracts/security/ReentrancyGuard.sol\":2325:2344  _status != _ENTERED */\n      eq\n      iszero\n        /* \"@openzeppelin/contracts/security/ReentrancyGuard.sol\":2317:2380  require(_status != _ENTERED, \"ReentrancyGuard: reentrant call\") */\n      tag_225\n      jumpi\n      mload(0x40)\n      shl(0xe5, 0x461bcd)\n      dup2\n      mstore\n        /* \"#utility.yul\":3148:3150   */\n      0x20\n        /* \"@openzeppelin/contracts/security/ReentrancyGuard.sol\":2317:2380  require(_status != _ENTERED, \"ReentrancyGuard: reentrant call\") */\n      0x04\n      dup3\n      add\n        /* \"#utility.yul\":3130:3151   */\n      mstore\n        /* \"#utility.yul\":3187:3189   */\n      0x1f\n        /* \"#utility.yul\":3167:3185   */\n      0x24\n      dup3\n      add\n        /* \"#utility.yul\":3160:3190   */\n      mstore\n        /* \"#utility.yul\":3226:3259   */\n      0x5265656e7472616e637947756172643a207265656e7472616e742063616c6c00\n        /* \"#utility.yul\":3206:3224   */\n      0x44\n      dup3\n      add\n        /* \"#utility.yul\":3199:3260   */\n      mstore\n        /* \"#utility.yul\":3277:3295   */\n      0x64\n      add\n        /* \"@openzeppelin/contracts/security/ReentrancyGuard.sol\":2317:2380  require(_status != _ENTERED, \"ReentrancyGuard: reentrant call\") */\n      tag_117\n        /* \"#utility.yul\":2946:3301   */\n      jump\n        /* \"@openzeppelin/contracts/security/ReentrancyGuard.sol\":2317:2380  require(_status != _ENTERED, \"ReentrancyGuard: reentrant call\") */\n    tag_225:\n        /* \"@openzeppelin/contracts/security/ReentrancyGuard.sol\":1744:1745  2 */\n      0x02\n        /* \"@openzeppelin/contracts/security/ReentrancyGuard.sol\":2455:2462  _status */\n      0x00\n        /* \"@openzeppelin/contracts/security/ReentrancyGuard.sol\":2455:2473  _status = _ENTERED */\n      sstore\n        /* \"contracts/Stakable.sol\":3416:3425  isTalax() */\n      tag_228\n        /* \"contracts/Stakable.sol\":3416:3423  isTalax */\n      tag_159\n        /* \"contracts/Stakable.sol\":3416:3425  isTalax() */\n      jump\t// in\n    tag_228:\n        /* \"contracts/Stakable.sol\":5003:5004  0 */\n      0x00\n        /* \"contracts/Stakable.sol\":4993:4999  amount */\n      dup4\n        /* \"contracts/Stakable.sol\":4993:5004  amount <= 0 */\n      gt\n        /* \"contracts/Stakable.sol\":4989:5067  if (amount <= 0) {... */\n      tag_230\n      jumpi\n        /* \"contracts/Stakable.sol\":5027:5056  Staking__cannotStakeNothing() */\n      mload(0x40)\n      0x88b440d600000000000000000000000000000000000000000000000000000000\n      dup2\n      mstore\n      0x04\n      add\n      mload(0x40)\n      dup1\n      swap2\n      sub\n      swap1\n      revert\n        /* \"contracts/Stakable.sol\":4989:5067  if (amount <= 0) {... */\n    tag_230:\n      sub(shl(0xa0, 0x01), 0x01)\n        /* \"contracts/Stakable.sol\":5152:5170  stakeholders[user] */\n      dup5\n      and\n      0x00\n      swap1\n      dup2\n      mstore\n        /* \"contracts/Stakable.sol\":5152:5164  stakeholders */\n      0x0b\n        /* \"contracts/Stakable.sol\":5152:5170  stakeholders[user] */\n      0x20\n      mstore\n      0x40\n      swap1\n      keccak256\n        /* \"contracts/Stakable.sol\":5152:5177  stakeholders[user].amount */\n      sload\n        /* \"contracts/Stakable.sol\":5152:5182  stakeholders[user].amount != 0 */\n      iszero\n        /* \"contracts/Stakable.sol\":5148:5239  if (stakeholders[user].amount != 0) {... */\n      tag_231\n      jumpi\n        /* \"contracts/Stakable.sol\":5205:5228  Staking__userIsStaker() */\n      mload(0x40)\n      0x04462d2700000000000000000000000000000000000000000000000000000000\n      dup2\n      mstore\n      0x04\n      add\n      mload(0x40)\n      dup1\n      swap2\n      sub\n      swap1\n      revert\n        /* \"contracts/Stakable.sol\":5148:5239  if (stakeholders[user].amount != 0) {... */\n    tag_231:\n        /* \"contracts/Stakable.sol\":5264:5265  1 */\n      0x01\n        /* \"contracts/Stakable.sol\":5249:5260  totalVoters */\n      0x06\n      0x00\n        /* \"contracts/Stakable.sol\":5249:5265  totalVoters += 1 */\n      dup3\n      dup3\n      sload\n      tag_232\n      swap2\n      swap1\n      tag_143\n      jump\t// in\n    tag_232:\n      swap1\n      swap2\n      sstore\n      pop\n      pop\n      sub(shl(0xa0, 0x01), 0x01)\n        /* \"contracts/Stakable.sol\":5275:5287  voters[user] */\n      dup5\n      and\n      0x00\n      swap1\n      dup2\n      mstore\n        /* \"contracts/Stakable.sol\":5275:5281  voters */\n      0x07\n        /* \"contracts/Stakable.sol\":5275:5287  voters[user] */\n      0x20\n      swap1\n      dup2\n      mstore\n      0x40\n      swap2\n      dup3\n      swap1\n      keccak256\n        /* \"contracts/Stakable.sol\":5275:5306  voters[user].votingRight = true */\n      dup1\n      sload\n      not(0xff)\n      and\n        /* \"contracts/Stakable.sol\":5302:5306  true */\n      0x01\n        /* \"contracts/Stakable.sol\":5275:5306  voters[user].votingRight = true */\n      or\n      swap1\n      sstore\n        /* \"contracts/Stakable.sol\":5589:5755  Stake(... */\n      dup2\n      mload\n      0xe0\n      dup2\n      add\n      dup4\n      mstore\n      dup6\n      dup2\n      mstore\n        /* \"contracts/Stakable.sol\":5424:5439  block.timestamp */\n      timestamp\n        /* \"contracts/Stakable.sol\":5589:5755  Stake(... */\n      swap2\n      dup2\n      add\n      dup3\n      swap1\n      mstore\n      swap2\n      dup3\n      add\n      dup4\n      swap1\n      mstore\n        /* \"contracts/Stakable.sol\":5424:5439  block.timestamp */\n      swap1\n        /* \"contracts/Stakable.sol\":5589:5755  Stake(... */\n      0x60\n      dup2\n      add\n        /* \"contracts/Stakable.sol\":5676:5699  stakePeriod + timestamp */\n      tag_233\n        /* \"contracts/Stakable.sol\":5424:5439  block.timestamp */\n      dup4\n        /* \"contracts/Stakable.sol\":5676:5687  stakePeriod */\n      dup7\n        /* \"contracts/Stakable.sol\":5676:5699  stakePeriod + timestamp */\n      tag_143\n      jump\t// in\n    tag_233:\n        /* \"contracts/Stakable.sol\":5589:5755  Stake(... */\n      dup2\n      mstore\n        /* \"contracts/Stakable.sol\":5714:5715  0 */\n      0x00\n        /* \"contracts/Stakable.sol\":5589:5755  Stake(... */\n      0x20\n      dup1\n      dup4\n      add\n      dup3\n      swap1\n      mstore\n      0x40\n      dup1\n      dup5\n      add\n      dup4\n      swap1\n      mstore\n      0x60\n      swap4\n      dup5\n      add\n      dup4\n      swap1\n      mstore\n      sub(shl(0xa0, 0x01), 0x01)\n        /* \"contracts/Stakable.sol\":5568:5586  stakeholders[user] */\n      dup11\n      and\n      dup1\n      dup5\n      mstore\n        /* \"contracts/Stakable.sol\":5568:5580  stakeholders */\n      0x0b\n        /* \"contracts/Stakable.sol\":5568:5586  stakeholders[user] */\n      dup4\n      mstore\n      swap3\n      dup2\n      swap1\n      keccak256\n        /* \"contracts/Stakable.sol\":5568:5755  stakeholders[user] = Stake(... */\n      dup6\n      mload\n      dup2\n      sstore\n      swap2\n      dup6\n      add\n      mload\n      0x01\n      dup4\n      add\n      sstore\n      dup5\n      add\n      mload\n      0x02\n      dup3\n      add\n      sstore\n      swap2\n      dup4\n      add\n      mload\n      0x03\n      dup4\n      add\n      sstore\n      0x80\n      dup4\n      add\n      mload\n      0x04\n      dup4\n      add\n      sstore\n      0xa0\n      dup4\n      add\n      mload\n      0x05\n      dup4\n      add\n      sstore\n      0xc0\n      swap1\n      swap3\n      add\n      mload\n      0x06\n      swap1\n      swap2\n      add\n      sstore\n        /* \"contracts/Stakable.sol\":5822:5880  Staked(user, amount, timestamp, (stakePeriod + timestamp)) */\n      0xb4caaf29adda3eefee3ad552a8e85058589bf834c7466cae4ee58787f70589ed\n        /* \"contracts/Stakable.sol\":5835:5841  amount */\n      dup6\n        /* \"contracts/Stakable.sol\":5843:5852  timestamp */\n      dup4\n        /* \"contracts/Stakable.sol\":5855:5878  stakePeriod + timestamp */\n      tag_234\n        /* \"contracts/Stakable.sol\":5843:5852  timestamp */\n      dup2\n        /* \"contracts/Stakable.sol\":5855:5866  stakePeriod */\n      dup9\n        /* \"contracts/Stakable.sol\":5855:5878  stakePeriod + timestamp */\n      tag_143\n      jump\t// in\n    tag_234:\n        /* \"contracts/Stakable.sol\":5822:5880  Staked(user, amount, timestamp, (stakePeriod + timestamp)) */\n      0x40\n      dup1\n      mload\n        /* \"#utility.yul\":4428:4453   */\n      swap4\n      dup5\n      mstore\n        /* \"#utility.yul\":4484:4486   */\n      0x20\n        /* \"#utility.yul\":4469:4487   */\n      dup5\n      add\n        /* \"#utility.yul\":4462:4496   */\n      swap3\n      swap1\n      swap3\n      mstore\n        /* \"#utility.yul\":4512:4530   */\n      swap1\n      dup3\n      add\n        /* \"#utility.yul\":4505:4539   */\n      mstore\n        /* \"#utility.yul\":4416:4418   */\n      0x60\n        /* \"#utility.yul\":4401:4419   */\n      add\n        /* \"contracts/Stakable.sol\":5822:5880  Staked(user, amount, timestamp, (stakePeriod + timestamp)) */\n      mload(0x40)\n      dup1\n      swap2\n      sub\n      swap1\n      log2\n      pop\n      pop\n        /* \"@openzeppelin/contracts/security/ReentrancyGuard.sol\":1701:1702  1 */\n      0x01\n        /* \"@openzeppelin/contracts/security/ReentrancyGuard.sol\":2628:2635  _status */\n      0x00\n        /* \"@openzeppelin/contracts/security/ReentrancyGuard.sol\":2628:2650  _status = _NOT_ENTERED */\n      sstore\n      pop\n      pop\n      pop\n        /* \"contracts/Stakable.sol\":4713:5887  function stake(... */\n      jump\t// out\n        /* \"contracts/Stakable.sol\":13361:13457  function stopVoting() external onlyTalax votingStatusTrue {... */\n    tag_114:\n        /* \"contracts/Stakable.sol\":3416:3425  isTalax() */\n      tag_238\n        /* \"contracts/Stakable.sol\":3416:3423  isTalax */\n      tag_159\n        /* \"contracts/Stakable.sol\":3416:3425  isTalax() */\n      jump\t// in\n    tag_238:\n        /* \"contracts/Stakable.sol\":4259:4279  _checkVotingStatus() */\n      tag_240\n        /* \"contracts/Stakable.sol\":4259:4277  _checkVotingStatus */\n      tag_121\n        /* \"contracts/Stakable.sol\":4259:4279  _checkVotingStatus() */\n      jump\t// in\n    tag_240:\n        /* \"contracts/Stakable.sol\":13429:13442  _votingStatus */\n      0x04\n        /* \"contracts/Stakable.sol\":13429:13450  _votingStatus = false */\n      dup1\n      sload\n      not(0xff)\n      and\n      swap1\n      sstore\n        /* \"contracts/Stakable.sol\":13361:13457  function stopVoting() external onlyTalax votingStatusTrue {... */\n      jump\t// out\n        /* \"contracts/Stakable.sol\":4011:4215  function _checkVotingStatus() internal view {... */\n    tag_121:\n        /* \"contracts/Stakable.sol\":4132:4145  _votingStatus */\n      and(0xff, sload(0x04))\n        /* \"contracts/Stakable.sol\":4127:4209  if (!_votingStatus) {... */\n      tag_243\n      jumpi\n        /* \"contracts/Stakable.sol\":4168:4198  Function__votingNotAvailable() */\n      mload(0x40)\n      0xa1d1891400000000000000000000000000000000000000000000000000000000\n      dup2\n      mstore\n      0x04\n      add\n      mload(0x40)\n      dup1\n      swap2\n      sub\n      swap1\n      revert\n        /* \"contracts/Stakable.sol\":4127:4209  if (!_votingStatus) {... */\n    tag_243:\n        /* \"contracts/Stakable.sol\":4011:4215  function _checkVotingStatus() internal view {... */\n      jump\t// out\n        /* \"contracts/Stakable.sol\":3711:3942  function _isVoter() internal view {... */\n    tag_124:\n        /* \"contracts/Stakable.sol\":3849:3859  msg.sender */\n      caller\n        /* \"contracts/Stakable.sol\":3842:3860  voters[msg.sender] */\n      0x00\n      swap1\n      dup2\n      mstore\n        /* \"contracts/Stakable.sol\":3842:3848  voters */\n      0x07\n        /* \"contracts/Stakable.sol\":3842:3860  voters[msg.sender] */\n      0x20\n      mstore\n      0x40\n      swap1\n      keccak256\n        /* \"contracts/Stakable.sol\":3842:3872  voters[msg.sender].votingRight */\n      sload\n      0xff\n      and\n        /* \"contracts/Stakable.sol\":3838:3936  if (voters[msg.sender].votingRight == false) {... */\n      tag_243\n      jumpi\n        /* \"contracts/Stakable.sol\":3904:3925  Function__notAVoter() */\n      mload(0x40)\n      0x1e567dd400000000000000000000000000000000000000000000000000000000\n      dup2\n      mstore\n      0x04\n      add\n      mload(0x40)\n      dup1\n      swap2\n      sub\n      swap1\n      revert\n        /* \"contracts/Stakable.sol\":6560:6997  function _calculateStakeReward(Stake memory user_stake)... */\n    tag_134:\n        /* \"contracts/Stakable.sol\":6690:6707  user_stake.amount */\n      dup1\n      mload\n        /* \"contracts/Stakable.sol\":6663:6670  uint256 */\n      0x00\n      swap1\n        /* \"contracts/Stakable.sol\":6686:6747  if (user_stake.amount == 0) {... */\n      tag_247\n      jumpi\n      pop\n        /* \"contracts/Stakable.sol\":6735:6736  0 */\n      0x00\n      swap2\n        /* \"contracts/Stakable.sol\":6560:6997  function _calculateStakeReward(Stake memory user_stake)... */\n      swap1\n      pop\n      jump\t// out\n        /* \"contracts/Stakable.sol\":6686:6747  if (user_stake.amount == 0) {... */\n    tag_247:\n        /* \"contracts/Stakable.sol\":6986:6990  1e26 */\n      0x52b7d2dcc80cd2e4000000\n        /* \"contracts/Stakable.sol\":6939:6982  _calculateStakingDuration(user_stake.since) */\n      tag_248\n        /* \"contracts/Stakable.sol\":6965:6975  user_stake */\n      dup4\n        /* \"contracts/Stakable.sol\":6965:6981  user_stake.since */\n      0x20\n      add\n      mload\n        /* \"contracts/Stakable.sol\":6939:6964  _calculateStakingDuration */\n      tag_249\n        /* \"contracts/Stakable.sol\":6939:6982  _calculateStakingDuration(user_stake.since) */\n      jump\t// in\n    tag_248:\n        /* \"contracts/Stakable.sol\":6900:6920  user_stake.rewardAPY */\n      0x40\n      dup5\n      add\n      mload\n        /* \"contracts/Stakable.sol\":6864:6881  user_stake.amount */\n      dup5\n      mload\n        /* \"contracts/Stakable.sol\":6864:6920  user_stake.amount *... */\n      tag_250\n      swap2\n        /* \"contracts/Stakable.sol\":6900:6920  user_stake.rewardAPY */\n      swap1\n        /* \"contracts/Stakable.sol\":6864:6920  user_stake.amount *... */\n      tag_251\n      jump\t// in\n    tag_250:\n        /* \"contracts/Stakable.sol\":6864:6982  user_stake.amount *... */\n      tag_252\n      swap2\n      swap1\n      tag_251\n      jump\t// in\n    tag_252:\n        /* \"contracts/Stakable.sol\":6863:6990  (user_stake.amount *... */\n      tag_253\n      swap2\n      swap1\n      tag_217\n      jump\t// in\n    tag_253:\n        /* \"contracts/Stakable.sol\":6844:6990  return... */\n      swap3\n        /* \"contracts/Stakable.sol\":6560:6997  function _calculateStakeReward(Stake memory user_stake)... */\n      swap2\n      pop\n      pop\n      jump\t// out\n        /* \"@openzeppelin/contracts/utils/math/SafeMath.sol\":3451:3547  function mul(uint256 a, uint256 b) internal pure returns (uint256) {... */\n    tag_138:\n        /* \"@openzeppelin/contracts/utils/math/SafeMath.sol\":3509:3516  uint256 */\n      0x00\n        /* \"@openzeppelin/contracts/utils/math/SafeMath.sol\":3535:3540  a * b */\n      tag_180\n        /* \"@openzeppelin/contracts/utils/math/SafeMath.sol\":3539:3540  b */\n      dup3\n        /* \"@openzeppelin/contracts/utils/math/SafeMath.sol\":3535:3536  a */\n      dup5\n        /* \"@openzeppelin/contracts/utils/math/SafeMath.sol\":3535:3540  a * b */\n      tag_251\n      jump\t// in\n        /* \"@openzeppelin/contracts/utils/math/SafeMath.sol\":3836:3932  function div(uint256 a, uint256 b) internal pure returns (uint256) {... */\n    tag_139:\n        /* \"@openzeppelin/contracts/utils/math/SafeMath.sol\":3894:3901  uint256 */\n      0x00\n        /* \"@openzeppelin/contracts/utils/math/SafeMath.sol\":3920:3925  a / b */\n      tag_180\n        /* \"@openzeppelin/contracts/utils/math/SafeMath.sol\":3924:3925  b */\n      dup3\n        /* \"@openzeppelin/contracts/utils/math/SafeMath.sol\":3920:3921  a */\n      dup5\n        /* \"@openzeppelin/contracts/utils/math/SafeMath.sol\":3920:3925  a / b */\n      tag_217\n      jump\t// in\n        /* \"contracts/Stakable.sol\":10181:10313  function _calculateWeek(uint256 input) internal view returns (uint256) {... */\n    tag_145:\n        /* \"contracts/Stakable.sol\":10243:10250  uint256 */\n      0x00\n        /* \"contracts/Stakable.sol\":10269:10306  (block.timestamp - input).div(7 days) */\n      tag_253\n        /* \"contracts/Stakable.sol\":10299:10305  7 days */\n      0x093a80\n        /* \"contracts/Stakable.sol\":10270:10293  block.timestamp - input */\n      tag_260\n        /* \"contracts/Stakable.sol\":10288:10293  input */\n      dup5\n        /* \"contracts/Stakable.sol\":10270:10285  block.timestamp */\n      timestamp\n        /* \"contracts/Stakable.sol\":10270:10293  block.timestamp - input */\n      tag_128\n      jump\t// in\n    tag_260:\n        /* \"contracts/Stakable.sol\":10269:10298  (block.timestamp - input).div */\n      swap1\n      tag_139\n        /* \"contracts/Stakable.sol\":10269:10306  (block.timestamp - input).div(7 days) */\n      jump\t// in\n        /* \"contracts/Stakable.sol\":10319:10498  function _calculateAirdrop(uint256 stakeAmount)... */\n    tag_148:\n        /* \"contracts/Stakable.sol\":10414:10421  uint256 */\n      0x00\n        /* \"contracts/Stakable.sol\":10483:10491  52 weeks */\n      0x01dfe200\n        /* \"contracts/Stakable.sol\":10475:10479  1000 */\n      0x03e8\n        /* \"contracts/Stakable.sol\":10460:10471  airdropRate */\n      sload(0x02)\n        /* \"contracts/Stakable.sol\":10446:10457  stakeAmount */\n      dup5\n        /* \"contracts/Stakable.sol\":10446:10471  stakeAmount * airdropRate */\n      tag_262\n      swap2\n      swap1\n      tag_251\n      jump\t// in\n    tag_262:\n        /* \"contracts/Stakable.sol\":10445:10479  (stakeAmount * airdropRate) / 1000 */\n      tag_252\n      swap2\n      swap1\n      tag_217\n      jump\t// in\n        /* \"contracts/Stakable.sol\":3449:3641  function isOwner() internal view {... */\n    tag_152:\n        /* \"contracts/Stakable.sol\":3570:3576  _owner */\n      and(sub(shl(0xa0, 0x01), 0x01), sload(0x0a))\n        /* \"contracts/Stakable.sol\":3556:3566  msg.sender */\n      caller\n        /* \"contracts/Stakable.sol\":3556:3576  msg.sender != _owner */\n      eq\n        /* \"contracts/Stakable.sol\":3552:3635  if (msg.sender != _owner) {... */\n      tag_243\n      jumpi\n        /* \"contracts/Stakable.sol\":3599:3624  Function__notAuthorized() */\n      mload(0x40)\n      shl(0xe1, 0x15a678a9)\n      dup2\n      mstore\n      0x04\n      add\n      mload(0x40)\n      dup1\n      swap2\n      sub\n      swap1\n      revert\n        /* \"contracts/Stakable.sol\":3187:3379  function isTalax() internal view {... */\n    tag_159:\n        /* \"contracts/Stakable.sol\":3308:3314  _talax */\n      and(sub(shl(0xa0, 0x01), 0x01), sload(0x09))\n        /* \"contracts/Stakable.sol\":3294:3304  msg.sender */\n      caller\n        /* \"contracts/Stakable.sol\":3294:3314  msg.sender != _talax */\n      eq\n        /* \"contracts/Stakable.sol\":3290:3373  if (msg.sender != _talax) {... */\n      tag_243\n      jumpi\n        /* \"contracts/Stakable.sol\":3337:3362  Function__notAuthorized() */\n      mload(0x40)\n      shl(0xe1, 0x15a678a9)\n      dup2\n      mstore\n      0x04\n      add\n      mload(0x40)\n      dup1\n      swap2\n      sub\n      swap1\n      revert\n        /* \"contracts/Stakable.sol\":7003:7524  function _calculateStakingWithPenalty(uint256 amount, uint256 reward)... */\n    tag_211:\n        /* \"contracts/Stakable.sol\":7120:7127  uint256 */\n      0x00\n      dup1\n        /* \"contracts/Stakable.sol\":7156:7167  amount == 0 */\n      dup4\n        /* \"contracts/Stakable.sol\":7152:7207  if (amount == 0) {... */\n      tag_270\n      jumpi\n      pop\n        /* \"contracts/Stakable.sol\":7191:7192  0 */\n      0x00\n      swap1\n      pop\n      dup1\n        /* \"contracts/Stakable.sol\":7183:7196  return (0, 0) */\n      jump(tag_269)\n        /* \"contracts/Stakable.sol\":7152:7207  if (amount == 0) {... */\n    tag_270:\n        /* \"contracts/Stakable.sol\":7237:7365  SafeMath.sub(... */\n      tag_271\n        /* \"contracts/Stakable.sol\":7267:7273  amount */\n      dup5\n        /* \"contracts/Stakable.sol\":7291:7351  SafeMath.div(SafeMath.mul(amount, stakingPenaltyRate), 1000) */\n      tag_272\n        /* \"contracts/Stakable.sol\":7304:7344  SafeMath.mul(amount, stakingPenaltyRate) */\n      tag_137\n        /* \"contracts/Stakable.sol\":7317:7323  amount */\n      dup8\n        /* \"contracts/Stakable.sol\":7325:7343  stakingPenaltyRate */\n      sload(0x01)\n        /* \"contracts/Stakable.sol\":7304:7316  SafeMath.mul */\n      tag_138\n        /* \"contracts/Stakable.sol\":7304:7344  SafeMath.mul(amount, stakingPenaltyRate) */\n      jump\t// in\n        /* \"contracts/Stakable.sol\":7291:7351  SafeMath.div(SafeMath.mul(amount, stakingPenaltyRate), 1000) */\n    tag_272:\n        /* \"contracts/Stakable.sol\":7237:7249  SafeMath.sub */\n      tag_274\n        /* \"contracts/Stakable.sol\":7237:7365  SafeMath.sub(... */\n      jump\t// in\n    tag_271:\n        /* \"contracts/Stakable.sol\":7379:7507  SafeMath.sub(... */\n      tag_275\n        /* \"contracts/Stakable.sol\":7409:7415  reward */\n      dup5\n        /* \"contracts/Stakable.sol\":7433:7493  SafeMath.div(SafeMath.mul(reward, stakingPenaltyRate), 1000) */\n      tag_272\n        /* \"contracts/Stakable.sol\":7446:7486  SafeMath.mul(reward, stakingPenaltyRate) */\n      tag_137\n        /* \"contracts/Stakable.sol\":7459:7465  reward */\n      dup8\n        /* \"contracts/Stakable.sol\":7467:7485  stakingPenaltyRate */\n      sload(0x01)\n        /* \"contracts/Stakable.sol\":7446:7458  SafeMath.mul */\n      tag_138\n        /* \"contracts/Stakable.sol\":7446:7486  SafeMath.mul(reward, stakingPenaltyRate) */\n      jump\t// in\n        /* \"contracts/Stakable.sol\":7379:7507  SafeMath.sub(... */\n    tag_275:\n        /* \"contracts/Stakable.sol\":7216:7517  return (... */\n      swap2\n      pop\n      swap2\n      pop\n        /* \"contracts/Stakable.sol\":7003:7524  function _calculateStakingWithPenalty(uint256 amount, uint256 reward)... */\n    tag_269:\n      swap3\n      pop\n      swap3\n      swap1\n      pop\n      jump\t// out\n        /* \"contracts/Stakable.sol\":6205:6554  function _calculateStakingDuration(uint256 since)... */\n    tag_249:\n        /* \"contracts/Stakable.sol\":6302:6309  uint256 */\n      0x00\n        /* \"contracts/Stakable.sol\":6396:6547  SafeMath.div(... */\n      tag_253\n        /* \"contracts/Stakable.sol\":6427:6450  block.timestamp - since */\n      tag_280\n        /* \"contracts/Stakable.sol\":6445:6450  since */\n      dup4\n        /* \"contracts/Stakable.sol\":6427:6442  block.timestamp */\n      timestamp\n        /* \"contracts/Stakable.sol\":6427:6450  block.timestamp - since */\n      tag_128\n      jump\t// in\n    tag_280:\n        /* \"contracts/Stakable.sol\":6426:6458  (block.timestamp - since) * 1e24 */\n      tag_281\n      swap1\n        /* \"contracts/Stakable.sol\":6454:6458  1e24 */\n      0xd3c21bcecceda1000000\n        /* \"contracts/Stakable.sol\":6426:6458  (block.timestamp - since) * 1e24 */\n      tag_251\n      jump\t// in\n    tag_281:\n        /* \"contracts/Stakable.sol\":6476:6484  365 days */\n      0x01e13380\n        /* \"contracts/Stakable.sol\":6396:6547  SafeMath.div(... */\n      mload(0x40)\n      dup1\n      0x40\n      add\n      0x40\n      mstore\n      dup1\n      0x1d\n      dup2\n      mstore\n      0x20\n      add\n      0x4572726f722063616e6e6f74206469766964652074696d657374616d70000000\n      dup2\n      mstore\n      pop\n        /* \"contracts/Stakable.sol\":6396:6408  SafeMath.div */\n      tag_282\n        /* \"contracts/Stakable.sol\":6396:6547  SafeMath.div(... */\n      jump\t// in\n        /* \"@openzeppelin/contracts/utils/math/SafeMath.sol\":3108:3204  function sub(uint256 a, uint256 b) internal pure returns (uint256) {... */\n    tag_274:\n        /* \"@openzeppelin/contracts/utils/math/SafeMath.sol\":3166:3173  uint256 */\n      0x00\n        /* \"@openzeppelin/contracts/utils/math/SafeMath.sol\":3192:3197  a - b */\n      tag_180\n        /* \"@openzeppelin/contracts/utils/math/SafeMath.sol\":3196:3197  b */\n      dup3\n        /* \"@openzeppelin/contracts/utils/math/SafeMath.sol\":3192:3193  a */\n      dup5\n        /* \"@openzeppelin/contracts/utils/math/SafeMath.sol\":3192:3197  a - b */\n      tag_128\n      jump\t// in\n        /* \"@openzeppelin/contracts/utils/math/SafeMath.sol\":5660:5890  function div(... */\n    tag_282:\n        /* \"@openzeppelin/contracts/utils/math/SafeMath.sol\":5776:5783  uint256 */\n      0x00\n        /* \"@openzeppelin/contracts/utils/math/SafeMath.sol\":5834:5846  errorMessage */\n      dup2\n        /* \"@openzeppelin/contracts/utils/math/SafeMath.sol\":5827:5832  b > 0 */\n      dup4\n        /* \"@openzeppelin/contracts/utils/math/SafeMath.sol\":5819:5847  require(b > 0, errorMessage) */\n      tag_286\n      jumpi\n      mload(0x40)\n      shl(0xe5, 0x461bcd)\n      dup2\n      mstore\n      0x04\n      add\n      tag_117\n      swap2\n      swap1\n      tag_288\n      jump\t// in\n    tag_286:\n      pop\n        /* \"@openzeppelin/contracts/utils/math/SafeMath.sol\":5872:5873  b */\n      dup3\n        /* \"@openzeppelin/contracts/utils/math/SafeMath.sol\":5868:5869  a */\n      dup5\n        /* \"@openzeppelin/contracts/utils/math/SafeMath.sol\":5868:5873  a / b */\n      dup2\n      tag_290\n      jumpi\n      tag_290\n      tag_291\n      jump\t// in\n    tag_290:\n      div\n      swap5\n        /* \"@openzeppelin/contracts/utils/math/SafeMath.sol\":5660:5890  function div(... */\n      swap4\n      pop\n      pop\n      pop\n      pop\n      jump\t// out\n    tag_130:\n      mload(0x40)\n      dup1\n      0x60\n      add\n      0x40\n      mstore\n      dup1\n      0x00\n      dup2\n      mstore\n      0x20\n      add\n      0x00\n      dup2\n      mstore\n      0x20\n      add\n      tag_292\n      mload(0x40)\n      dup1\n      0xe0\n      add\n      0x40\n      mstore\n      dup1\n      0x00\n      dup2\n      mstore\n      0x20\n      add\n      0x00\n      dup2\n      mstore\n      0x20\n      add\n      0x00\n      dup2\n      mstore\n      0x20\n      add\n      0x00\n      dup2\n      mstore\n      0x20\n      add\n      0x00\n      dup2\n      mstore\n      0x20\n      add\n      0x00\n      dup2\n      mstore\n      0x20\n      add\n      0x00\n      dup2\n      mstore\n      pop\n      swap1\n      jump\n    tag_292:\n      swap1\n      mstore\n      swap1\n      jump\t// out\n        /* \"#utility.yul\":842:1038   */\n    tag_294:\n        /* \"#utility.yul\":910:930   */\n      dup1\n      calldataload\n      sub(shl(0xa0, 0x01), 0x01)\n        /* \"#utility.yul\":959:1013   */\n      dup2\n      and\n        /* \"#utility.yul\":949:1014   */\n      dup2\n      eq\n        /* \"#utility.yul\":939:1032   */\n      tag_176\n      jumpi\n        /* \"#utility.yul\":1028:1029   */\n      0x00\n        /* \"#utility.yul\":1025:1026   */\n      dup1\n        /* \"#utility.yul\":1018:1030   */\n      revert\n        /* \"#utility.yul\":1043:1229   */\n    tag_42:\n        /* \"#utility.yul\":1102:1108   */\n      0x00\n        /* \"#utility.yul\":1155:1157   */\n      0x20\n        /* \"#utility.yul\":1143:1152   */\n      dup3\n        /* \"#utility.yul\":1134:1141   */\n      dup5\n        /* \"#utility.yul\":1130:1153   */\n      sub\n        /* \"#utility.yul\":1126:1158   */\n      slt\n        /* \"#utility.yul\":1123:1175   */\n      iszero\n      tag_301\n      jumpi\n        /* \"#utility.yul\":1171:1172   */\n      0x00\n        /* \"#utility.yul\":1168:1169   */\n      dup1\n        /* \"#utility.yul\":1161:1173   */\n      revert\n        /* \"#utility.yul\":1123:1175   */\n    tag_301:\n        /* \"#utility.yul\":1194:1223   */\n      tag_180\n        /* \"#utility.yul\":1213:1222   */\n      dup3\n        /* \"#utility.yul\":1194:1223   */\n      tag_294\n      jump\t// in\n        /* \"#utility.yul\":2112:2292   */\n    tag_79:\n        /* \"#utility.yul\":2171:2177   */\n      0x00\n        /* \"#utility.yul\":2224:2226   */\n      0x20\n        /* \"#utility.yul\":2212:2221   */\n      dup3\n        /* \"#utility.yul\":2203:2210   */\n      dup5\n        /* \"#utility.yul\":2199:2222   */\n      sub\n        /* \"#utility.yul\":2195:2227   */\n      slt\n        /* \"#utility.yul\":2192:2244   */\n      iszero\n      tag_308\n      jumpi\n        /* \"#utility.yul\":2240:2241   */\n      0x00\n        /* \"#utility.yul\":2237:2238   */\n      dup1\n        /* \"#utility.yul\":2230:2242   */\n      revert\n        /* \"#utility.yul\":2192:2244   */\n    tag_308:\n      pop\n        /* \"#utility.yul\":2263:2286   */\n      calldataload\n      swap2\n        /* \"#utility.yul\":2112:2292   */\n      swap1\n      pop\n      jump\t// out\n        /* \"#utility.yul\":2550:2941   */\n    tag_111:\n        /* \"#utility.yul\":2636:2642   */\n      0x00\n        /* \"#utility.yul\":2644:2650   */\n      dup1\n        /* \"#utility.yul\":2652:2658   */\n      0x00\n        /* \"#utility.yul\":2660:2666   */\n      dup1\n        /* \"#utility.yul\":2713:2716   */\n      0x80\n        /* \"#utility.yul\":2701:2710   */\n      dup6\n        /* \"#utility.yul\":2692:2699   */\n      dup8\n        /* \"#utility.yul\":2688:2711   */\n      sub\n        /* \"#utility.yul\":2684:2717   */\n      slt\n        /* \"#utility.yul\":2681:2734   */\n      iszero\n      tag_311\n      jumpi\n        /* \"#utility.yul\":2730:2731   */\n      0x00\n        /* \"#utility.yul\":2727:2728   */\n      dup1\n        /* \"#utility.yul\":2720:2732   */\n      revert\n        /* \"#utility.yul\":2681:2734   */\n    tag_311:\n        /* \"#utility.yul\":2753:2782   */\n      tag_312\n        /* \"#utility.yul\":2772:2781   */\n      dup6\n        /* \"#utility.yul\":2753:2782   */\n      tag_294\n      jump\t// in\n    tag_312:\n        /* \"#utility.yul\":2743:2782   */\n      swap7\n        /* \"#utility.yul\":2829:2831   */\n      0x20\n        /* \"#utility.yul\":2814:2832   */\n      dup7\n      add\n        /* \"#utility.yul\":2801:2833   */\n      calldataload\n      swap7\n      pop\n        /* \"#utility.yul\":2880:2882   */\n      0x40\n        /* \"#utility.yul\":2865:2883   */\n      dup7\n      add\n        /* \"#utility.yul\":2852:2884   */\n      calldataload\n      swap6\n        /* \"#utility.yul\":2931:2933   */\n      0x60\n        /* \"#utility.yul\":2916:2934   */\n      add\n        /* \"#utility.yul\":2903:2935   */\n      calldataload\n      swap5\n      pop\n        /* \"#utility.yul\":2550:2941   */\n      swap3\n      pop\n      pop\n      pop\n      jump\t// out\n        /* \"#utility.yul\":3306:3490   */\n    tag_295:\n      shl(0xe0, 0x4e487b71)\n        /* \"#utility.yul\":3355:3356   */\n      0x00\n        /* \"#utility.yul\":3348:3436   */\n      mstore\n        /* \"#utility.yul\":3455:3459   */\n      0x11\n        /* \"#utility.yul\":3452:3453   */\n      0x04\n        /* \"#utility.yul\":3445:3460   */\n      mstore\n        /* \"#utility.yul\":3479:3483   */\n      0x24\n        /* \"#utility.yul\":3476:3477   */\n      0x00\n        /* \"#utility.yul\":3469:3484   */\n      revert\n        /* \"#utility.yul\":3495:3620   */\n    tag_128:\n        /* \"#utility.yul\":3535:3539   */\n      0x00\n        /* \"#utility.yul\":3563:3564   */\n      dup3\n        /* \"#utility.yul\":3560:3561   */\n      dup3\n        /* \"#utility.yul\":3557:3565   */\n      lt\n        /* \"#utility.yul\":3554:3588   */\n      iszero\n      tag_317\n      jumpi\n        /* \"#utility.yul\":3568:3586   */\n      tag_317\n      tag_295\n      jump\t// in\n    tag_317:\n      pop\n        /* \"#utility.yul\":3605:3614   */\n      sub\n      swap1\n        /* \"#utility.yul\":3495:3620   */\n      jump\t// out\n        /* \"#utility.yul\":3625:3753   */\n    tag_143:\n        /* \"#utility.yul\":3665:3668   */\n      0x00\n        /* \"#utility.yul\":3696:3697   */\n      dup3\n        /* \"#utility.yul\":3692:3698   */\n      not\n        /* \"#utility.yul\":3689:3690   */\n      dup3\n        /* \"#utility.yul\":3686:3699   */\n      gt\n        /* \"#utility.yul\":3683:3722   */\n      iszero\n      tag_320\n      jumpi\n        /* \"#utility.yul\":3702:3720   */\n      tag_320\n      tag_295\n      jump\t// in\n    tag_320:\n      pop\n        /* \"#utility.yul\":3738:3747   */\n      add\n      swap1\n        /* \"#utility.yul\":3625:3753   */\n      jump\t// out\n        /* \"#utility.yul\":3758:3942   */\n    tag_291:\n      shl(0xe0, 0x4e487b71)\n        /* \"#utility.yul\":3807:3808   */\n      0x00\n        /* \"#utility.yul\":3800:3888   */\n      mstore\n        /* \"#utility.yul\":3907:3911   */\n      0x12\n        /* \"#utility.yul\":3904:3905   */\n      0x04\n        /* \"#utility.yul\":3897:3912   */\n      mstore\n        /* \"#utility.yul\":3931:3935   */\n      0x24\n        /* \"#utility.yul\":3928:3929   */\n      0x00\n        /* \"#utility.yul\":3921:3936   */\n      revert\n        /* \"#utility.yul\":3947:4221   */\n    tag_217:\n        /* \"#utility.yul\":3987:3988   */\n      0x00\n        /* \"#utility.yul\":4013:4014   */\n      dup3\n        /* \"#utility.yul\":4003:4192   */\n      tag_323\n      jumpi\n      shl(0xe0, 0x4e487b71)\n        /* \"#utility.yul\":4045:4046   */\n      0x00\n        /* \"#utility.yul\":4038:4126   */\n      mstore\n        /* \"#utility.yul\":4149:4153   */\n      0x12\n        /* \"#utility.yul\":4146:4147   */\n      0x04\n        /* \"#utility.yul\":4139:4154   */\n      mstore\n        /* \"#utility.yul\":4177:4181   */\n      0x24\n        /* \"#utility.yul\":4174:4175   */\n      0x00\n        /* \"#utility.yul\":4167:4182   */\n      revert\n        /* \"#utility.yul\":4003:4192   */\n    tag_323:\n      pop\n        /* \"#utility.yul\":4206:4215   */\n      div\n      swap1\n        /* \"#utility.yul\":3947:4221   */\n      jump\t// out\n        /* \"#utility.yul\":4550:4718   */\n    tag_251:\n        /* \"#utility.yul\":4590:4597   */\n      0x00\n        /* \"#utility.yul\":4656:4657   */\n      dup2\n        /* \"#utility.yul\":4652:4653   */\n      0x00\n        /* \"#utility.yul\":4648:4654   */\n      not\n        /* \"#utility.yul\":4644:4658   */\n      div\n        /* \"#utility.yul\":4641:4642   */\n      dup4\n        /* \"#utility.yul\":4638:4659   */\n      gt\n        /* \"#utility.yul\":4633:4634   */\n      dup3\n        /* \"#utility.yul\":4626:4635   */\n      iszero\n        /* \"#utility.yul\":4619:4636   */\n      iszero\n        /* \"#utility.yul\":4615:4660   */\n      and\n        /* \"#utility.yul\":4612:4683   */\n      iszero\n      tag_327\n      jumpi\n        /* \"#utility.yul\":4663:4681   */\n      tag_327\n      tag_295\n      jump\t// in\n    tag_327:\n      pop\n        /* \"#utility.yul\":4703:4712   */\n      mul\n      swap1\n        /* \"#utility.yul\":4550:4718   */\n      jump\t// out\n        /* \"#utility.yul\":4723:5320   */\n    tag_288:\n        /* \"#utility.yul\":4835:4839   */\n      0x00\n        /* \"#utility.yul\":4864:4866   */\n      0x20\n        /* \"#utility.yul\":4893:4895   */\n      dup1\n        /* \"#utility.yul\":4882:4891   */\n      dup4\n        /* \"#utility.yul\":4875:4896   */\n      mstore\n        /* \"#utility.yul\":4925:4931   */\n      dup4\n        /* \"#utility.yul\":4919:4932   */\n      mload\n        /* \"#utility.yul\":4968:4974   */\n      dup1\n        /* \"#utility.yul\":4963:4965   */\n      dup3\n        /* \"#utility.yul\":4952:4961   */\n      dup6\n        /* \"#utility.yul\":4948:4966   */\n      add\n        /* \"#utility.yul\":4941:4975   */\n      mstore\n        /* \"#utility.yul\":4993:4994   */\n      0x00\n        /* \"#utility.yul\":5003:5143   */\n    tag_329:\n        /* \"#utility.yul\":5017:5023   */\n      dup2\n        /* \"#utility.yul\":5014:5015   */\n      dup2\n        /* \"#utility.yul\":5011:5024   */\n      lt\n        /* \"#utility.yul\":5003:5143   */\n      iszero\n      tag_331\n      jumpi\n        /* \"#utility.yul\":5112:5126   */\n      dup6\n      dup2\n      add\n        /* \"#utility.yul\":5108:5131   */\n      dup4\n      add\n        /* \"#utility.yul\":5102:5132   */\n      mload\n        /* \"#utility.yul\":5078:5095   */\n      dup6\n      dup3\n      add\n        /* \"#utility.yul\":5097:5099   */\n      0x40\n        /* \"#utility.yul\":5074:5100   */\n      add\n        /* \"#utility.yul\":5067:5133   */\n      mstore\n        /* \"#utility.yul\":5032:5042   */\n      dup3\n      add\n        /* \"#utility.yul\":5003:5143   */\n      jump(tag_329)\n    tag_331:\n        /* \"#utility.yul\":5161:5167   */\n      dup2\n        /* \"#utility.yul\":5158:5159   */\n      dup2\n        /* \"#utility.yul\":5155:5168   */\n      gt\n        /* \"#utility.yul\":5152:5243   */\n      iszero\n      tag_332\n      jumpi\n        /* \"#utility.yul\":5231:5232   */\n      0x00\n        /* \"#utility.yul\":5226:5228   */\n      0x40\n        /* \"#utility.yul\":5217:5223   */\n      dup4\n        /* \"#utility.yul\":5206:5215   */\n      dup8\n        /* \"#utility.yul\":5202:5224   */\n      add\n        /* \"#utility.yul\":5198:5229   */\n      add\n        /* \"#utility.yul\":5191:5233   */\n      mstore\n        /* \"#utility.yul\":5152:5243   */\n    tag_332:\n      pop\n        /* \"#utility.yul\":5304:5306   */\n      0x1f\n        /* \"#utility.yul\":5283:5298   */\n      add\n      not(0x1f)\n        /* \"#utility.yul\":5279:5308   */\n      and\n        /* \"#utility.yul\":5264:5309   */\n      swap3\n      swap1\n      swap3\n      add\n        /* \"#utility.yul\":5311:5313   */\n      0x40\n        /* \"#utility.yul\":5260:5314   */\n      add\n      swap4\n        /* \"#utility.yul\":4723:5320   */\n      swap3\n      pop\n      pop\n      pop\n      jump\t// out\n\n    auxdata: 0xa26469706673582212203e85ada853fcf490a3a0a2c7e6fe5ac1bbf3387c67f99b04777880d2a71d7e8064736f6c634300080b0033\n}\n",
				"bytecode": {
					"linkReferences": {},
					"object": "608060405234801561001057600080fd5b5060016000819055600f90556050600255600980546001600160a01b031990811633908117909255600a80549091169091179055611367806100536000396000f3fe608060405234801561001057600080fd5b50600436106101985760003560e01c80638891cf0d116100e3578063c23a5cea1161008c578063d5dbdf1b11610066578063d5dbdf1b14610438578063f93d4f8a1461044b578063fab2f86b1461045e57600080fd5b8063c23a5cea146103ff578063cb79c2e114610427578063cbb3e1521461043057600080fd5b8063a3ec138d116100bd578063a3ec138d146103c0578063b2bdfa7b146103e3578063b87da76d146103f657600080fd5b80638891cf0d146103845780638c63f97f1461038d578063a143a5f2146103a057600080fd5b80635f5300ff11610145578063671d2b751161011f578063671d2b75146102fc57806369e4591a1461031457806371e3db871461037c57600080fd5b80635f5300ff146102ca578063632a9a52146102e157806365f8c6c5146102e957600080fd5b80631ec6b60a116101765780631ec6b60a1461023a5780632d15cc04146102425780635f348b4e1461029f57600080fd5b8063070c8b741461019d57806310486b6a146101a75780631d77b00b14610227575b600080fd5b6101a5610466565b005b6101af61055a565b60405161021e919060006101208201905082518252602083015160208301526040830151805160408401526020810151606084015260408101516080840152606081015160a0840152608081015160c084015260a081015160e084015260c08101516101008401525092915050565b60405180910390f35b6101a56102353660046111d3565b6106bc565b6101a56106fe565b6102886102503660046111d3565b6001600160a01b031660009081526007602090815260408083208054600554855260019091019092529091205460ff91821692911690565b60408051921515835290151560208301520161021e565b6009546102b2906001600160a01b031681565b6040516001600160a01b03909116815260200161021e565b6102d360065481565b60405190815260200161021e565b6101a56107c2565b6102d36102f73660046111d3565b6108d1565b61030461096a565b604051901515815260200161021e565b336000908152600b6020908152604091829020825160e081018452815481526001820154928101929092526002810154928201929092526003820154606082015260048201546080820152600582015460a082015260069091015460c09091018190526102d3565b6101a56109fd565b6102d360025481565b6101a561039b3660046111ee565b610a0b565b6102d36103ae3660046111ee565b60086020526000908152604090205481565b6103046103ce3660046111d3565b60076020526000908152604090205460ff1681565b600a546102b2906001600160a01b031681565b6102d360035481565b61041261040d3660046111d3565b610a8a565b6040805192835260208301919091520161021e565b6102d360015481565b6102d3610c09565b6101a56104463660046111ee565b610c3c565b6101a5610459366004611207565b610cb4565b6101a5610eca565b600260005414156104be5760405162461bcd60e51b815260206004820152601f60248201527f5265656e7472616e637947756172643a207265656e7472616e742063616c6c0060448201526064015b60405180910390fd5b60026000556104cb610ee6565b6104d3610f24565b336000908152600760209081526040808320600554845260010190915290205460ff1661052c576040517f8b74220000000000000000000000000000000000000000000000000000000000815260040160405180910390fd5b600554600090815260086020526040812080546001929061054e908490611256565b90915550506001600055565b61056261115e565b336000908152600b6020908152604091829020825160e08101845281548082526001830154938201939093526002820154938101939093526003810154606084015260048101546080840152600581015460a08401526006015460c08301526105f7576040517fb018f08700000000000000000000000000000000000000000000000000000000815260040160405180910390fd5b604080516060810182526000808252602082018190529181018390529061061d83610f6d565b90504282604001516060015111156106695761064661063e82600154610fc2565b6103e8610fce565b61065961063e8560000151600154610fc2565b610663919061126d565b60208301525b60006106788460c00151610fda565b111561069c57600061068d8460000151610ff3565b604084015160a00152506106aa565b6040820151600060a0909101525b60408201516080015290518152919050565b6106c4611015565b600980547fffffffffffffffffffffffff0000000000000000000000000000000000000000166001600160a01b0392909216919091179055565b600260005414156107515760405162461bcd60e51b815260206004820152601f60248201527f5265656e7472616e637947756172643a207265656e7472616e742063616c6c0060448201526064016104b5565b600260005561075e611040565b60045460ff161515600114156107a0576040517f6da4cd2e00000000000000000000000000000000000000000000000000000000815260040160405180910390fd5b6004805460ff191660019081179091556005805460009061054e90849061126d565b600260005414156108155760405162461bcd60e51b815260206004820152601f60248201527f5265656e7472616e637947756172643a207265656e7472616e742063616c6c0060448201526064016104b5565b6002600055610822610ee6565b61082a610f24565b336000908152600760209081526040808320600554845260019081019092529091205460ff161515141561088a576040517f740e33b000000000000000000000000000000000000000000000000000000000815260040160405180910390fd5b33600090815260076020908152604080832060058054855260019182018452828520805460ff1916831790555484526008909252822080549192909161054e90849061126d565b60006108db611040565b6001600160a01b0382166000908152600b6020526040902080541561095c576109078160060154610fda565b61093d576040517fdd8456cc00000000000000000000000000000000000000000000000000000000815260040160405180910390fd5b60006005820155426006820155805461095590610ff3565b9392505050565b50600092915050565b919050565b6000610974611040565b61097c610ee6565b6001600654116109b8576040517f2f9686de00000000000000000000000000000000000000000000000000000000815260040160405180910390fd5b60006109d16109ca6006546005610fc2565b600a610fce565b6005546000908152600860205260409020549091508110156109f557600191505090565b600091505090565b610a05611040565b42600355565b610a13611015565b601e811115610a4e576040517ff1a470d700000000000000000000000000000000000000000000000000000000815260040160405180910390fd5b60018190556040518181527fcfa4f4cf1cd64d13a167a8e75605e0c0c9d6700e903d17c5dc11f593254a04a9906020015b60405180910390a150565b60008060026000541415610ae05760405162461bcd60e51b815260206004820152601f60248201527f5265656e7472616e637947756172643a207265656e7472616e742063616c6c0060448201526064016104b5565b6002600055610aed611040565b6001600160a01b0383166000818152600b60208181526040808420815160e081018352815481526001808301805483870152600284018054958401959095526003840180546060850152600485018054608086015260058601805460a08701526006808801805460c08901529c8c529990985294899055908890559387905592869055908590559184905593839055815490939290610b8d908490611256565b90915550506001600160a01b038416600090815260076020908152604080832060055484526001019091529020805460ff191690556060810151421015610bec578051610be290610bdd83610f6d565b61106b565b9250925050610bfd565b8051610bf782610f6d565b92509250505b60016000559092909150565b6000600354600014610c365762093a8060035442610c279190611256565b610c31919061129b565b905090565b50600090565b610c44611015565b60c8811115610c7f576040517fa552cf1000000000000000000000000000000000000000000000000000000000815260040160405180910390fd5b60028190556040518181527fcc672f1026b958c0cfbfdd89ebe8ddcbc127f16ec24da6c2c7a4de26a8b1857e90602001610a7f565b60026000541415610d075760405162461bcd60e51b815260206004820152601f60248201527f5265656e7472616e637947756172643a207265656e7472616e742063616c6c0060448201526064016104b5565b6002600055610d14611040565b60008311610d4e576040517f88b440d600000000000000000000000000000000000000000000000000000000815260040160405180910390fd5b6001600160a01b0384166000908152600b602052604090205415610d9e576040517f04462d2700000000000000000000000000000000000000000000000000000000815260040160405180910390fd5b600160066000828254610db1919061126d565b90915550506001600160a01b038416600090815260076020908152604091829020805460ff19166001179055815160e081018352858152429181018290529182018390529060608101610e04838661126d565b815260006020808301829052604080840183905260609384018390526001600160a01b038a16808452600b8352928190208551815591850151600183015584015160028201559183015160038301556080830151600483015560a0830151600583015560c0909201516006909101557fb4caaf29adda3eefee3ad552a8e85058589bf834c7466cae4ee58787f70589ed8583610ea0818861126d565b6040805193845260208401929092529082015260600160405180910390a250506001600055505050565b610ed2611040565b610eda610ee6565b6004805460ff19169055565b60045460ff16610f22576040517fa1d1891400000000000000000000000000000000000000000000000000000000815260040160405180910390fd5b565b3360009081526007602052604090205460ff16610f22576040517f1e567dd400000000000000000000000000000000000000000000000000000000815260040160405180910390fd5b8051600090610f7e57506000919050565b6a52b7d2dcc80cd2e4000000610f9783602001516110b5565b60408401518451610fa891906112bd565b610fb291906112bd565b610fbc919061129b565b92915050565b600061095582846112bd565b6000610955828461129b565b6000610fbc62093a80610fed8442611256565b90610fce565b60006301dfe2006103e86002548461100b91906112bd565b610fb2919061129b565b600a546001600160a01b03163314610f22576040516315a678a960e11b815260040160405180910390fd5b6009546001600160a01b03163314610f22576040516315a678a960e11b815260040160405180910390fd5b6000808361107e575060009050806110ae565b6110968461109161063e87600154610fc2565b611118565b6110a98461109161063e87600154610fc2565b915091505b9250929050565b6000610fbc6110c48342611256565b6110d89069d3c21bcecceda10000006112bd565b6301e133806040518060400160405280601d81526020017f4572726f722063616e6e6f74206469766964652074696d657374616d70000000815250611124565b60006109558284611256565b600081836111455760405162461bcd60e51b81526004016104b591906112dc565b5082848161115557611155611285565b04949350505050565b604051806060016040528060008152602001600081526020016111b76040518060e00160405280600081526020016000815260200160008152602001600081526020016000815260200160008152602001600081525090565b905290565b80356001600160a01b038116811461096557600080fd5b6000602082840312156111e557600080fd5b610955826111bc565b60006020828403121561120057600080fd5b5035919050565b6000806000806080858703121561121d57600080fd5b611226856111bc565b966020860135965060408601359560600135945092505050565b634e487b7160e01b600052601160045260246000fd5b60008282101561126857611268611240565b500390565b6000821982111561128057611280611240565b500190565b634e487b7160e01b600052601260045260246000fd5b6000826112b857634e487b7160e01b600052601260045260246000fd5b500490565b60008160001904831182151516156112d7576112d7611240565b500290565b600060208083528351808285015260005b81811015611309578581018301518582016040015282016112ed565b8181111561131b576000604083870101525b50601f01601f191692909201604001939250505056fea26469706673582212203e85ada853fcf490a3a0a2c7e6fe5ac1bbf3387c67f99b04777880d2a71d7e8064736f6c634300080b0033",
					"opcodes": "PUSH1 0x80 PUSH1 0x40 MSTORE CALLVALUE DUP1 ISZERO PUSH2 0x10 JUMPI PUSH1 0x0 DUP1 REVERT JUMPDEST POP PUSH1 0x1 PUSH1 0x0 DUP2 SWAP1 SSTORE PUSH1 0xF SWAP1 SSTORE PUSH1 0x50 PUSH1 0x2 SSTORE PUSH1 0x9 DUP1 SLOAD PUSH1 0x1 PUSH1 0x1 PUSH1 0xA0 SHL SUB NOT SWAP1 DUP2 AND CALLER SWAP1 DUP2 OR SWAP1 SWAP3 SSTORE PUSH1 0xA DUP1 SLOAD SWAP1 SWAP2 AND SWAP1 SWAP2 OR SWAP1 SSTORE PUSH2 0x1367 DUP1 PUSH2 0x53 PUSH1 0x0 CODECOPY PUSH1 0x0 RETURN INVALID PUSH1 0x80 PUSH1 0x40 MSTORE CALLVALUE DUP1 ISZERO PUSH2 0x10 JUMPI PUSH1 0x0 DUP1 REVERT JUMPDEST POP PUSH1 0x4 CALLDATASIZE LT PUSH2 0x198 JUMPI PUSH1 0x0 CALLDATALOAD PUSH1 0xE0 SHR DUP1 PUSH4 0x8891CF0D GT PUSH2 0xE3 JUMPI DUP1 PUSH4 0xC23A5CEA GT PUSH2 0x8C JUMPI DUP1 PUSH4 0xD5DBDF1B GT PUSH2 0x66 JUMPI DUP1 PUSH4 0xD5DBDF1B EQ PUSH2 0x438 JUMPI DUP1 PUSH4 0xF93D4F8A EQ PUSH2 0x44B JUMPI DUP1 PUSH4 0xFAB2F86B EQ PUSH2 0x45E JUMPI PUSH1 0x0 DUP1 REVERT JUMPDEST DUP1 PUSH4 0xC23A5CEA EQ PUSH2 0x3FF JUMPI DUP1 PUSH4 0xCB79C2E1 EQ PUSH2 0x427 JUMPI DUP1 PUSH4 0xCBB3E152 EQ PUSH2 0x430 JUMPI PUSH1 0x0 DUP1 REVERT JUMPDEST DUP1 PUSH4 0xA3EC138D GT PUSH2 0xBD JUMPI DUP1 PUSH4 0xA3EC138D EQ PUSH2 0x3C0 JUMPI DUP1 PUSH4 0xB2BDFA7B EQ PUSH2 0x3E3 JUMPI DUP1 PUSH4 0xB87DA76D EQ PUSH2 0x3F6 JUMPI PUSH1 0x0 DUP1 REVERT JUMPDEST DUP1 PUSH4 0x8891CF0D EQ PUSH2 0x384 JUMPI DUP1 PUSH4 0x8C63F97F EQ PUSH2 0x38D JUMPI DUP1 PUSH4 0xA143A5F2 EQ PUSH2 0x3A0 JUMPI PUSH1 0x0 DUP1 REVERT JUMPDEST DUP1 PUSH4 0x5F5300FF GT PUSH2 0x145 JUMPI DUP1 PUSH4 0x671D2B75 GT PUSH2 0x11F JUMPI DUP1 PUSH4 0x671D2B75 EQ PUSH2 0x2FC JUMPI DUP1 PUSH4 0x69E4591A EQ PUSH2 0x314 JUMPI DUP1 PUSH4 0x71E3DB87 EQ PUSH2 0x37C JUMPI PUSH1 0x0 DUP1 REVERT JUMPDEST DUP1 PUSH4 0x5F5300FF EQ PUSH2 0x2CA JUMPI DUP1 PUSH4 0x632A9A52 EQ PUSH2 0x2E1 JUMPI DUP1 PUSH4 0x65F8C6C5 EQ PUSH2 0x2E9 JUMPI PUSH1 0x0 DUP1 REVERT JUMPDEST DUP1 PUSH4 0x1EC6B60A GT PUSH2 0x176 JUMPI DUP1 PUSH4 0x1EC6B60A EQ PUSH2 0x23A JUMPI DUP1 PUSH4 0x2D15CC04 EQ PUSH2 0x242 JUMPI DUP1 PUSH4 0x5F348B4E EQ PUSH2 0x29F JUMPI PUSH1 0x0 DUP1 REVERT JUMPDEST DUP1 PUSH4 0x70C8B74 EQ PUSH2 0x19D JUMPI DUP1 PUSH4 0x10486B6A EQ PUSH2 0x1A7 JUMPI DUP1 PUSH4 0x1D77B00B EQ PUSH2 0x227 JUMPI JUMPDEST PUSH1 0x0 DUP1 REVERT JUMPDEST PUSH2 0x1A5 PUSH2 0x466 JUMP JUMPDEST STOP JUMPDEST PUSH2 0x1AF PUSH2 0x55A JUMP JUMPDEST PUSH1 0x40 MLOAD PUSH2 0x21E SWAP2 SWAP1 PUSH1 0x0 PUSH2 0x120 DUP3 ADD SWAP1 POP DUP3 MLOAD DUP3 MSTORE PUSH1 0x20 DUP4 ADD MLOAD PUSH1 0x20 DUP4 ADD MSTORE PUSH1 0x40 DUP4 ADD MLOAD DUP1 MLOAD PUSH1 0x40 DUP5 ADD MSTORE PUSH1 0x20 DUP2 ADD MLOAD PUSH1 0x60 DUP5 ADD MSTORE PUSH1 0x40 DUP2 ADD MLOAD PUSH1 0x80 DUP5 ADD MSTORE PUSH1 0x60 DUP2 ADD MLOAD PUSH1 0xA0 DUP5 ADD MSTORE PUSH1 0x80 DUP2 ADD MLOAD PUSH1 0xC0 DUP5 ADD MSTORE PUSH1 0xA0 DUP2 ADD MLOAD PUSH1 0xE0 DUP5 ADD MSTORE PUSH1 0xC0 DUP2 ADD MLOAD PUSH2 0x100 DUP5 ADD MSTORE POP SWAP3 SWAP2 POP POP JUMP JUMPDEST PUSH1 0x40 MLOAD DUP1 SWAP2 SUB SWAP1 RETURN JUMPDEST PUSH2 0x1A5 PUSH2 0x235 CALLDATASIZE PUSH1 0x4 PUSH2 0x11D3 JUMP JUMPDEST PUSH2 0x6BC JUMP JUMPDEST PUSH2 0x1A5 PUSH2 0x6FE JUMP JUMPDEST PUSH2 0x288 PUSH2 0x250 CALLDATASIZE PUSH1 0x4 PUSH2 0x11D3 JUMP JUMPDEST PUSH1 0x1 PUSH1 0x1 PUSH1 0xA0 SHL SUB AND PUSH1 0x0 SWAP1 DUP2 MSTORE PUSH1 0x7 PUSH1 0x20 SWAP1 DUP2 MSTORE PUSH1 0x40 DUP1 DUP4 KECCAK256 DUP1 SLOAD PUSH1 0x5 SLOAD DUP6 MSTORE PUSH1 0x1 SWAP1 SWAP2 ADD SWAP1 SWAP3 MSTORE SWAP1 SWAP2 KECCAK256 SLOAD PUSH1 0xFF SWAP2 DUP3 AND SWAP3 SWAP2 AND SWAP1 JUMP JUMPDEST PUSH1 0x40 DUP1 MLOAD SWAP3 ISZERO ISZERO DUP4 MSTORE SWAP1 ISZERO ISZERO PUSH1 0x20 DUP4 ADD MSTORE ADD PUSH2 0x21E JUMP JUMPDEST PUSH1 0x9 SLOAD PUSH2 0x2B2 SWAP1 PUSH1 0x1 PUSH1 0x1 PUSH1 0xA0 SHL SUB AND DUP2 JUMP JUMPDEST PUSH1 0x40 MLOAD PUSH1 0x1 PUSH1 0x1 PUSH1 0xA0 SHL SUB SWAP1 SWAP2 AND DUP2 MSTORE PUSH1 0x20 ADD PUSH2 0x21E JUMP JUMPDEST PUSH2 0x2D3 PUSH1 0x6 SLOAD DUP2 JUMP JUMPDEST PUSH1 0x40 MLOAD SWAP1 DUP2 MSTORE PUSH1 0x20 ADD PUSH2 0x21E JUMP JUMPDEST PUSH2 0x1A5 PUSH2 0x7C2 JUMP JUMPDEST PUSH2 0x2D3 PUSH2 0x2F7 CALLDATASIZE PUSH1 0x4 PUSH2 0x11D3 JUMP JUMPDEST PUSH2 0x8D1 JUMP JUMPDEST PUSH2 0x304 PUSH2 0x96A JUMP JUMPDEST PUSH1 0x40 MLOAD SWAP1 ISZERO ISZERO DUP2 MSTORE PUSH1 0x20 ADD PUSH2 0x21E JUMP JUMPDEST CALLER PUSH1 0x0 SWAP1 DUP2 MSTORE PUSH1 0xB PUSH1 0x20 SWAP1 DUP2 MSTORE PUSH1 0x40 SWAP2 DUP3 SWAP1 KECCAK256 DUP3 MLOAD PUSH1 0xE0 DUP2 ADD DUP5 MSTORE DUP2 SLOAD DUP2 MSTORE PUSH1 0x1 DUP3 ADD SLOAD SWAP3 DUP2 ADD SWAP3 SWAP1 SWAP3 MSTORE PUSH1 0x2 DUP2 ADD SLOAD SWAP3 DUP3 ADD SWAP3 SWAP1 SWAP3 MSTORE PUSH1 0x3 DUP3 ADD SLOAD PUSH1 0x60 DUP3 ADD MSTORE PUSH1 0x4 DUP3 ADD SLOAD PUSH1 0x80 DUP3 ADD MSTORE PUSH1 0x5 DUP3 ADD SLOAD PUSH1 0xA0 DUP3 ADD MSTORE PUSH1 0x6 SWAP1 SWAP2 ADD SLOAD PUSH1 0xC0 SWAP1 SWAP2 ADD DUP2 SWAP1 MSTORE PUSH2 0x2D3 JUMP JUMPDEST PUSH2 0x1A5 PUSH2 0x9FD JUMP JUMPDEST PUSH2 0x2D3 PUSH1 0x2 SLOAD DUP2 JUMP JUMPDEST PUSH2 0x1A5 PUSH2 0x39B CALLDATASIZE PUSH1 0x4 PUSH2 0x11EE JUMP JUMPDEST PUSH2 0xA0B JUMP JUMPDEST PUSH2 0x2D3 PUSH2 0x3AE CALLDATASIZE PUSH1 0x4 PUSH2 0x11EE JUMP JUMPDEST PUSH1 0x8 PUSH1 0x20 MSTORE PUSH1 0x0 SWAP1 DUP2 MSTORE PUSH1 0x40 SWAP1 KECCAK256 SLOAD DUP2 JUMP JUMPDEST PUSH2 0x304 PUSH2 0x3CE CALLDATASIZE PUSH1 0x4 PUSH2 0x11D3 JUMP JUMPDEST PUSH1 0x7 PUSH1 0x20 MSTORE PUSH1 0x0 SWAP1 DUP2 MSTORE PUSH1 0x40 SWAP1 KECCAK256 SLOAD PUSH1 0xFF AND DUP2 JUMP JUMPDEST PUSH1 0xA SLOAD PUSH2 0x2B2 SWAP1 PUSH1 0x1 PUSH1 0x1 PUSH1 0xA0 SHL SUB AND DUP2 JUMP JUMPDEST PUSH2 0x2D3 PUSH1 0x3 SLOAD DUP2 JUMP JUMPDEST PUSH2 0x412 PUSH2 0x40D CALLDATASIZE PUSH1 0x4 PUSH2 0x11D3 JUMP JUMPDEST PUSH2 0xA8A JUMP JUMPDEST PUSH1 0x40 DUP1 MLOAD SWAP3 DUP4 MSTORE PUSH1 0x20 DUP4 ADD SWAP2 SWAP1 SWAP2 MSTORE ADD PUSH2 0x21E JUMP JUMPDEST PUSH2 0x2D3 PUSH1 0x1 SLOAD DUP2 JUMP JUMPDEST PUSH2 0x2D3 PUSH2 0xC09 JUMP JUMPDEST PUSH2 0x1A5 PUSH2 0x446 CALLDATASIZE PUSH1 0x4 PUSH2 0x11EE JUMP JUMPDEST PUSH2 0xC3C JUMP JUMPDEST PUSH2 0x1A5 PUSH2 0x459 CALLDATASIZE PUSH1 0x4 PUSH2 0x1207 JUMP JUMPDEST PUSH2 0xCB4 JUMP JUMPDEST PUSH2 0x1A5 PUSH2 0xECA JUMP JUMPDEST PUSH1 0x2 PUSH1 0x0 SLOAD EQ ISZERO PUSH2 0x4BE JUMPI PUSH1 0x40 MLOAD PUSH3 0x461BCD PUSH1 0xE5 SHL DUP2 MSTORE PUSH1 0x20 PUSH1 0x4 DUP3 ADD MSTORE PUSH1 0x1F PUSH1 0x24 DUP3 ADD MSTORE PUSH32 0x5265656E7472616E637947756172643A207265656E7472616E742063616C6C00 PUSH1 0x44 DUP3 ADD MSTORE PUSH1 0x64 ADD JUMPDEST PUSH1 0x40 MLOAD DUP1 SWAP2 SUB SWAP1 REVERT JUMPDEST PUSH1 0x2 PUSH1 0x0 SSTORE PUSH2 0x4CB PUSH2 0xEE6 JUMP JUMPDEST PUSH2 0x4D3 PUSH2 0xF24 JUMP JUMPDEST CALLER PUSH1 0x0 SWAP1 DUP2 MSTORE PUSH1 0x7 PUSH1 0x20 SWAP1 DUP2 MSTORE PUSH1 0x40 DUP1 DUP4 KECCAK256 PUSH1 0x5 SLOAD DUP5 MSTORE PUSH1 0x1 ADD SWAP1 SWAP2 MSTORE SWAP1 KECCAK256 SLOAD PUSH1 0xFF AND PUSH2 0x52C JUMPI PUSH1 0x40 MLOAD PUSH32 0x8B74220000000000000000000000000000000000000000000000000000000000 DUP2 MSTORE PUSH1 0x4 ADD PUSH1 0x40 MLOAD DUP1 SWAP2 SUB SWAP1 REVERT JUMPDEST PUSH1 0x5 SLOAD PUSH1 0x0 SWAP1 DUP2 MSTORE PUSH1 0x8 PUSH1 0x20 MSTORE PUSH1 0x40 DUP2 KECCAK256 DUP1 SLOAD PUSH1 0x1 SWAP3 SWAP1 PUSH2 0x54E SWAP1 DUP5 SWAP1 PUSH2 0x1256 JUMP JUMPDEST SWAP1 SWAP2 SSTORE POP POP PUSH1 0x1 PUSH1 0x0 SSTORE JUMP JUMPDEST PUSH2 0x562 PUSH2 0x115E JUMP JUMPDEST CALLER PUSH1 0x0 SWAP1 DUP2 MSTORE PUSH1 0xB PUSH1 0x20 SWAP1 DUP2 MSTORE PUSH1 0x40 SWAP2 DUP3 SWAP1 KECCAK256 DUP3 MLOAD PUSH1 0xE0 DUP2 ADD DUP5 MSTORE DUP2 SLOAD DUP1 DUP3 MSTORE PUSH1 0x1 DUP4 ADD SLOAD SWAP4 DUP3 ADD SWAP4 SWAP1 SWAP4 MSTORE PUSH1 0x2 DUP3 ADD SLOAD SWAP4 DUP2 ADD SWAP4 SWAP1 SWAP4 MSTORE PUSH1 0x3 DUP2 ADD SLOAD PUSH1 0x60 DUP5 ADD MSTORE PUSH1 0x4 DUP2 ADD SLOAD PUSH1 0x80 DUP5 ADD MSTORE PUSH1 0x5 DUP2 ADD SLOAD PUSH1 0xA0 DUP5 ADD MSTORE PUSH1 0x6 ADD SLOAD PUSH1 0xC0 DUP4 ADD MSTORE PUSH2 0x5F7 JUMPI PUSH1 0x40 MLOAD PUSH32 0xB018F08700000000000000000000000000000000000000000000000000000000 DUP2 MSTORE PUSH1 0x4 ADD PUSH1 0x40 MLOAD DUP1 SWAP2 SUB SWAP1 REVERT JUMPDEST PUSH1 0x40 DUP1 MLOAD PUSH1 0x60 DUP2 ADD DUP3 MSTORE PUSH1 0x0 DUP1 DUP3 MSTORE PUSH1 0x20 DUP3 ADD DUP2 SWAP1 MSTORE SWAP2 DUP2 ADD DUP4 SWAP1 MSTORE SWAP1 PUSH2 0x61D DUP4 PUSH2 0xF6D JUMP JUMPDEST SWAP1 POP TIMESTAMP DUP3 PUSH1 0x40 ADD MLOAD PUSH1 0x60 ADD MLOAD GT ISZERO PUSH2 0x669 JUMPI PUSH2 0x646 PUSH2 0x63E DUP3 PUSH1 0x1 SLOAD PUSH2 0xFC2 JUMP JUMPDEST PUSH2 0x3E8 PUSH2 0xFCE JUMP JUMPDEST PUSH2 0x659 PUSH2 0x63E DUP6 PUSH1 0x0 ADD MLOAD PUSH1 0x1 SLOAD PUSH2 0xFC2 JUMP JUMPDEST PUSH2 0x663 SWAP2 SWAP1 PUSH2 0x126D JUMP JUMPDEST PUSH1 0x20 DUP4 ADD MSTORE JUMPDEST PUSH1 0x0 PUSH2 0x678 DUP5 PUSH1 0xC0 ADD MLOAD PUSH2 0xFDA JUMP JUMPDEST GT ISZERO PUSH2 0x69C JUMPI PUSH1 0x0 PUSH2 0x68D DUP5 PUSH1 0x0 ADD MLOAD PUSH2 0xFF3 JUMP JUMPDEST PUSH1 0x40 DUP5 ADD MLOAD PUSH1 0xA0 ADD MSTORE POP PUSH2 0x6AA JUMP JUMPDEST PUSH1 0x40 DUP3 ADD MLOAD PUSH1 0x0 PUSH1 0xA0 SWAP1 SWAP2 ADD MSTORE JUMPDEST PUSH1 0x40 DUP3 ADD MLOAD PUSH1 0x80 ADD MSTORE SWAP1 MLOAD DUP2 MSTORE SWAP2 SWAP1 POP JUMP JUMPDEST PUSH2 0x6C4 PUSH2 0x1015 JUMP JUMPDEST PUSH1 0x9 DUP1 SLOAD PUSH32 0xFFFFFFFFFFFFFFFFFFFFFFFF0000000000000000000000000000000000000000 AND PUSH1 0x1 PUSH1 0x1 PUSH1 0xA0 SHL SUB SWAP3 SWAP1 SWAP3 AND SWAP2 SWAP1 SWAP2 OR SWAP1 SSTORE JUMP JUMPDEST PUSH1 0x2 PUSH1 0x0 SLOAD EQ ISZERO PUSH2 0x751 JUMPI PUSH1 0x40 MLOAD PUSH3 0x461BCD PUSH1 0xE5 SHL DUP2 MSTORE PUSH1 0x20 PUSH1 0x4 DUP3 ADD MSTORE PUSH1 0x1F PUSH1 0x24 DUP3 ADD MSTORE PUSH32 0x5265656E7472616E637947756172643A207265656E7472616E742063616C6C00 PUSH1 0x44 DUP3 ADD MSTORE PUSH1 0x64 ADD PUSH2 0x4B5 JUMP JUMPDEST PUSH1 0x2 PUSH1 0x0 SSTORE PUSH2 0x75E PUSH2 0x1040 JUMP JUMPDEST PUSH1 0x4 SLOAD PUSH1 0xFF AND ISZERO ISZERO PUSH1 0x1 EQ ISZERO PUSH2 0x7A0 JUMPI PUSH1 0x40 MLOAD PUSH32 0x6DA4CD2E00000000000000000000000000000000000000000000000000000000 DUP2 MSTORE PUSH1 0x4 ADD PUSH1 0x40 MLOAD DUP1 SWAP2 SUB SWAP1 REVERT JUMPDEST PUSH1 0x4 DUP1 SLOAD PUSH1 0xFF NOT AND PUSH1 0x1 SWAP1 DUP2 OR SWAP1 SWAP2 SSTORE PUSH1 0x5 DUP1 SLOAD PUSH1 0x0 SWAP1 PUSH2 0x54E SWAP1 DUP5 SWAP1 PUSH2 0x126D JUMP JUMPDEST PUSH1 0x2 PUSH1 0x0 SLOAD EQ ISZERO PUSH2 0x815 JUMPI PUSH1 0x40 MLOAD PUSH3 0x461BCD PUSH1 0xE5 SHL DUP2 MSTORE PUSH1 0x20 PUSH1 0x4 DUP3 ADD MSTORE PUSH1 0x1F PUSH1 0x24 DUP3 ADD MSTORE PUSH32 0x5265656E7472616E637947756172643A207265656E7472616E742063616C6C00 PUSH1 0x44 DUP3 ADD MSTORE PUSH1 0x64 ADD PUSH2 0x4B5 JUMP JUMPDEST PUSH1 0x2 PUSH1 0x0 SSTORE PUSH2 0x822 PUSH2 0xEE6 JUMP JUMPDEST PUSH2 0x82A PUSH2 0xF24 JUMP JUMPDEST CALLER PUSH1 0x0 SWAP1 DUP2 MSTORE PUSH1 0x7 PUSH1 0x20 SWAP1 DUP2 MSTORE PUSH1 0x40 DUP1 DUP4 KECCAK256 PUSH1 0x5 SLOAD DUP5 MSTORE PUSH1 0x1 SWAP1 DUP2 ADD SWAP1 SWAP3 MSTORE SWAP1 SWAP2 KECCAK256 SLOAD PUSH1 0xFF AND ISZERO ISZERO EQ ISZERO PUSH2 0x88A JUMPI PUSH1 0x40 MLOAD PUSH32 0x740E33B000000000000000000000000000000000000000000000000000000000 DUP2 MSTORE PUSH1 0x4 ADD PUSH1 0x40 MLOAD DUP1 SWAP2 SUB SWAP1 REVERT JUMPDEST CALLER PUSH1 0x0 SWAP1 DUP2 MSTORE PUSH1 0x7 PUSH1 0x20 SWAP1 DUP2 MSTORE PUSH1 0x40 DUP1 DUP4 KECCAK256 PUSH1 0x5 DUP1 SLOAD DUP6 MSTORE PUSH1 0x1 SWAP2 DUP3 ADD DUP5 MSTORE DUP3 DUP6 KECCAK256 DUP1 SLOAD PUSH1 0xFF NOT AND DUP4 OR SWAP1 SSTORE SLOAD DUP5 MSTORE PUSH1 0x8 SWAP1 SWAP3 MSTORE DUP3 KECCAK256 DUP1 SLOAD SWAP2 SWAP3 SWAP1 SWAP2 PUSH2 0x54E SWAP1 DUP5 SWAP1 PUSH2 0x126D JUMP JUMPDEST PUSH1 0x0 PUSH2 0x8DB PUSH2 0x1040 JUMP JUMPDEST PUSH1 0x1 PUSH1 0x1 PUSH1 0xA0 SHL SUB DUP3 AND PUSH1 0x0 SWAP1 DUP2 MSTORE PUSH1 0xB PUSH1 0x20 MSTORE PUSH1 0x40 SWAP1 KECCAK256 DUP1 SLOAD ISZERO PUSH2 0x95C JUMPI PUSH2 0x907 DUP2 PUSH1 0x6 ADD SLOAD PUSH2 0xFDA JUMP JUMPDEST PUSH2 0x93D JUMPI PUSH1 0x40 MLOAD PUSH32 0xDD8456CC00000000000000000000000000000000000000000000000000000000 DUP2 MSTORE PUSH1 0x4 ADD PUSH1 0x40 MLOAD DUP1 SWAP2 SUB SWAP1 REVERT JUMPDEST PUSH1 0x0 PUSH1 0x5 DUP3 ADD SSTORE TIMESTAMP PUSH1 0x6 DUP3 ADD SSTORE DUP1 SLOAD PUSH2 0x955 SWAP1 PUSH2 0xFF3 JUMP JUMPDEST SWAP4 SWAP3 POP POP POP JUMP JUMPDEST POP PUSH1 0x0 SWAP3 SWAP2 POP POP JUMP JUMPDEST SWAP2 SWAP1 POP JUMP JUMPDEST PUSH1 0x0 PUSH2 0x974 PUSH2 0x1040 JUMP JUMPDEST PUSH2 0x97C PUSH2 0xEE6 JUMP JUMPDEST PUSH1 0x1 PUSH1 0x6 SLOAD GT PUSH2 0x9B8 JUMPI PUSH1 0x40 MLOAD PUSH32 0x2F9686DE00000000000000000000000000000000000000000000000000000000 DUP2 MSTORE PUSH1 0x4 ADD PUSH1 0x40 MLOAD DUP1 SWAP2 SUB SWAP1 REVERT JUMPDEST PUSH1 0x0 PUSH2 0x9D1 PUSH2 0x9CA PUSH1 0x6 SLOAD PUSH1 0x5 PUSH2 0xFC2 JUMP JUMPDEST PUSH1 0xA PUSH2 0xFCE JUMP JUMPDEST PUSH1 0x5 SLOAD PUSH1 0x0 SWAP1 DUP2 MSTORE PUSH1 0x8 PUSH1 0x20 MSTORE PUSH1 0x40 SWAP1 KECCAK256 SLOAD SWAP1 SWAP2 POP DUP2 LT ISZERO PUSH2 0x9F5 JUMPI PUSH1 0x1 SWAP2 POP POP SWAP1 JUMP JUMPDEST PUSH1 0x0 SWAP2 POP POP SWAP1 JUMP JUMPDEST PUSH2 0xA05 PUSH2 0x1040 JUMP JUMPDEST TIMESTAMP PUSH1 0x3 SSTORE JUMP JUMPDEST PUSH2 0xA13 PUSH2 0x1015 JUMP JUMPDEST PUSH1 0x1E DUP2 GT ISZERO PUSH2 0xA4E JUMPI PUSH1 0x40 MLOAD PUSH32 0xF1A470D700000000000000000000000000000000000000000000000000000000 DUP2 MSTORE PUSH1 0x4 ADD PUSH1 0x40 MLOAD DUP1 SWAP2 SUB SWAP1 REVERT JUMPDEST PUSH1 0x1 DUP2 SWAP1 SSTORE PUSH1 0x40 MLOAD DUP2 DUP2 MSTORE PUSH32 0xCFA4F4CF1CD64D13A167A8E75605E0C0C9D6700E903D17C5DC11F593254A04A9 SWAP1 PUSH1 0x20 ADD JUMPDEST PUSH1 0x40 MLOAD DUP1 SWAP2 SUB SWAP1 LOG1 POP JUMP JUMPDEST PUSH1 0x0 DUP1 PUSH1 0x2 PUSH1 0x0 SLOAD EQ ISZERO PUSH2 0xAE0 JUMPI PUSH1 0x40 MLOAD PUSH3 0x461BCD PUSH1 0xE5 SHL DUP2 MSTORE PUSH1 0x20 PUSH1 0x4 DUP3 ADD MSTORE PUSH1 0x1F PUSH1 0x24 DUP3 ADD MSTORE PUSH32 0x5265656E7472616E637947756172643A207265656E7472616E742063616C6C00 PUSH1 0x44 DUP3 ADD MSTORE PUSH1 0x64 ADD PUSH2 0x4B5 JUMP JUMPDEST PUSH1 0x2 PUSH1 0x0 SSTORE PUSH2 0xAED PUSH2 0x1040 JUMP JUMPDEST PUSH1 0x1 PUSH1 0x1 PUSH1 0xA0 SHL SUB DUP4 AND PUSH1 0x0 DUP2 DUP2 MSTORE PUSH1 0xB PUSH1 0x20 DUP2 DUP2 MSTORE PUSH1 0x40 DUP1 DUP5 KECCAK256 DUP2 MLOAD PUSH1 0xE0 DUP2 ADD DUP4 MSTORE DUP2 SLOAD DUP2 MSTORE PUSH1 0x1 DUP1 DUP4 ADD DUP1 SLOAD DUP4 DUP8 ADD MSTORE PUSH1 0x2 DUP5 ADD DUP1 SLOAD SWAP6 DUP5 ADD SWAP6 SWAP1 SWAP6 MSTORE PUSH1 0x3 DUP5 ADD DUP1 SLOAD PUSH1 0x60 DUP6 ADD MSTORE PUSH1 0x4 DUP6 ADD DUP1 SLOAD PUSH1 0x80 DUP7 ADD MSTORE PUSH1 0x5 DUP7 ADD DUP1 SLOAD PUSH1 0xA0 DUP8 ADD MSTORE PUSH1 0x6 DUP1 DUP9 ADD DUP1 SLOAD PUSH1 0xC0 DUP10 ADD MSTORE SWAP13 DUP13 MSTORE SWAP10 SWAP1 SWAP9 MSTORE SWAP5 DUP10 SWAP1 SSTORE SWAP1 DUP9 SWAP1 SSTORE SWAP4 DUP8 SWAP1 SSTORE SWAP3 DUP7 SWAP1 SSTORE SWAP1 DUP6 SWAP1 SSTORE SWAP2 DUP5 SWAP1 SSTORE SWAP4 DUP4 SWAP1 SSTORE DUP2 SLOAD SWAP1 SWAP4 SWAP3 SWAP1 PUSH2 0xB8D SWAP1 DUP5 SWAP1 PUSH2 0x1256 JUMP JUMPDEST SWAP1 SWAP2 SSTORE POP POP PUSH1 0x1 PUSH1 0x1 PUSH1 0xA0 SHL SUB DUP5 AND PUSH1 0x0 SWAP1 DUP2 MSTORE PUSH1 0x7 PUSH1 0x20 SWAP1 DUP2 MSTORE PUSH1 0x40 DUP1 DUP4 KECCAK256 PUSH1 0x5 SLOAD DUP5 MSTORE PUSH1 0x1 ADD SWAP1 SWAP2 MSTORE SWAP1 KECCAK256 DUP1 SLOAD PUSH1 0xFF NOT AND SWAP1 SSTORE PUSH1 0x60 DUP2 ADD MLOAD TIMESTAMP LT ISZERO PUSH2 0xBEC JUMPI DUP1 MLOAD PUSH2 0xBE2 SWAP1 PUSH2 0xBDD DUP4 PUSH2 0xF6D JUMP JUMPDEST PUSH2 0x106B JUMP JUMPDEST SWAP3 POP SWAP3 POP POP PUSH2 0xBFD JUMP JUMPDEST DUP1 MLOAD PUSH2 0xBF7 DUP3 PUSH2 0xF6D JUMP JUMPDEST SWAP3 POP SWAP3 POP POP JUMPDEST PUSH1 0x1 PUSH1 0x0 SSTORE SWAP1 SWAP3 SWAP1 SWAP2 POP JUMP JUMPDEST PUSH1 0x0 PUSH1 0x3 SLOAD PUSH1 0x0 EQ PUSH2 0xC36 JUMPI PUSH3 0x93A80 PUSH1 0x3 SLOAD TIMESTAMP PUSH2 0xC27 SWAP2 SWAP1 PUSH2 0x1256 JUMP JUMPDEST PUSH2 0xC31 SWAP2 SWAP1 PUSH2 0x129B JUMP JUMPDEST SWAP1 POP SWAP1 JUMP JUMPDEST POP PUSH1 0x0 SWAP1 JUMP JUMPDEST PUSH2 0xC44 PUSH2 0x1015 JUMP JUMPDEST PUSH1 0xC8 DUP2 GT ISZERO PUSH2 0xC7F JUMPI PUSH1 0x40 MLOAD PUSH32 0xA552CF1000000000000000000000000000000000000000000000000000000000 DUP2 MSTORE PUSH1 0x4 ADD PUSH1 0x40 MLOAD DUP1 SWAP2 SUB SWAP1 REVERT JUMPDEST PUSH1 0x2 DUP2 SWAP1 SSTORE PUSH1 0x40 MLOAD DUP2 DUP2 MSTORE PUSH32 0xCC672F1026B958C0CFBFDD89EBE8DDCBC127F16EC24DA6C2C7A4DE26A8B1857E SWAP1 PUSH1 0x20 ADD PUSH2 0xA7F JUMP JUMPDEST PUSH1 0x2 PUSH1 0x0 SLOAD EQ ISZERO PUSH2 0xD07 JUMPI PUSH1 0x40 MLOAD PUSH3 0x461BCD PUSH1 0xE5 SHL DUP2 MSTORE PUSH1 0x20 PUSH1 0x4 DUP3 ADD MSTORE PUSH1 0x1F PUSH1 0x24 DUP3 ADD MSTORE PUSH32 0x5265656E7472616E637947756172643A207265656E7472616E742063616C6C00 PUSH1 0x44 DUP3 ADD MSTORE PUSH1 0x64 ADD PUSH2 0x4B5 JUMP JUMPDEST PUSH1 0x2 PUSH1 0x0 SSTORE PUSH2 0xD14 PUSH2 0x1040 JUMP JUMPDEST PUSH1 0x0 DUP4 GT PUSH2 0xD4E JUMPI PUSH1 0x40 MLOAD PUSH32 0x88B440D600000000000000000000000000000000000000000000000000000000 DUP2 MSTORE PUSH1 0x4 ADD PUSH1 0x40 MLOAD DUP1 SWAP2 SUB SWAP1 REVERT JUMPDEST PUSH1 0x1 PUSH1 0x1 PUSH1 0xA0 SHL SUB DUP5 AND PUSH1 0x0 SWAP1 DUP2 MSTORE PUSH1 0xB PUSH1 0x20 MSTORE PUSH1 0x40 SWAP1 KECCAK256 SLOAD ISZERO PUSH2 0xD9E JUMPI PUSH1 0x40 MLOAD PUSH32 0x4462D2700000000000000000000000000000000000000000000000000000000 DUP2 MSTORE PUSH1 0x4 ADD PUSH1 0x40 MLOAD DUP1 SWAP2 SUB SWAP1 REVERT JUMPDEST PUSH1 0x1 PUSH1 0x6 PUSH1 0x0 DUP3 DUP3 SLOAD PUSH2 0xDB1 SWAP2 SWAP1 PUSH2 0x126D JUMP JUMPDEST SWAP1 SWAP2 SSTORE POP POP PUSH1 0x1 PUSH1 0x1 PUSH1 0xA0 SHL SUB DUP5 AND PUSH1 0x0 SWAP1 DUP2 MSTORE PUSH1 0x7 PUSH1 0x20 SWAP1 DUP2 MSTORE PUSH1 0x40 SWAP2 DUP3 SWAP1 KECCAK256 DUP1 SLOAD PUSH1 0xFF NOT AND PUSH1 0x1 OR SWAP1 SSTORE DUP2 MLOAD PUSH1 0xE0 DUP2 ADD DUP4 MSTORE DUP6 DUP2 MSTORE TIMESTAMP SWAP2 DUP2 ADD DUP3 SWAP1 MSTORE SWAP2 DUP3 ADD DUP4 SWAP1 MSTORE SWAP1 PUSH1 0x60 DUP2 ADD PUSH2 0xE04 DUP4 DUP7 PUSH2 0x126D JUMP JUMPDEST DUP2 MSTORE PUSH1 0x0 PUSH1 0x20 DUP1 DUP4 ADD DUP3 SWAP1 MSTORE PUSH1 0x40 DUP1 DUP5 ADD DUP4 SWAP1 MSTORE PUSH1 0x60 SWAP4 DUP5 ADD DUP4 SWAP1 MSTORE PUSH1 0x1 PUSH1 0x1 PUSH1 0xA0 SHL SUB DUP11 AND DUP1 DUP5 MSTORE PUSH1 0xB DUP4 MSTORE SWAP3 DUP2 SWAP1 KECCAK256 DUP6 MLOAD DUP2 SSTORE SWAP2 DUP6 ADD MLOAD PUSH1 0x1 DUP4 ADD SSTORE DUP5 ADD MLOAD PUSH1 0x2 DUP3 ADD SSTORE SWAP2 DUP4 ADD MLOAD PUSH1 0x3 DUP4 ADD SSTORE PUSH1 0x80 DUP4 ADD MLOAD PUSH1 0x4 DUP4 ADD SSTORE PUSH1 0xA0 DUP4 ADD MLOAD PUSH1 0x5 DUP4 ADD SSTORE PUSH1 0xC0 SWAP1 SWAP3 ADD MLOAD PUSH1 0x6 SWAP1 SWAP2 ADD SSTORE PUSH32 0xB4CAAF29ADDA3EEFEE3AD552A8E85058589BF834C7466CAE4EE58787F70589ED DUP6 DUP4 PUSH2 0xEA0 DUP2 DUP9 PUSH2 0x126D JUMP JUMPDEST PUSH1 0x40 DUP1 MLOAD SWAP4 DUP5 MSTORE PUSH1 0x20 DUP5 ADD SWAP3 SWAP1 SWAP3 MSTORE SWAP1 DUP3 ADD MSTORE PUSH1 0x60 ADD PUSH1 0x40 MLOAD DUP1 SWAP2 SUB SWAP1 LOG2 POP POP PUSH1 0x1 PUSH1 0x0 SSTORE POP POP POP JUMP JUMPDEST PUSH2 0xED2 PUSH2 0x1040 JUMP JUMPDEST PUSH2 0xEDA PUSH2 0xEE6 JUMP JUMPDEST PUSH1 0x4 DUP1 SLOAD PUSH1 0xFF NOT AND SWAP1 SSTORE JUMP JUMPDEST PUSH1 0x4 SLOAD PUSH1 0xFF AND PUSH2 0xF22 JUMPI PUSH1 0x40 MLOAD PUSH32 0xA1D1891400000000000000000000000000000000000000000000000000000000 DUP2 MSTORE PUSH1 0x4 ADD PUSH1 0x40 MLOAD DUP1 SWAP2 SUB SWAP1 REVERT JUMPDEST JUMP JUMPDEST CALLER PUSH1 0x0 SWAP1 DUP2 MSTORE PUSH1 0x7 PUSH1 0x20 MSTORE PUSH1 0x40 SWAP1 KECCAK256 SLOAD PUSH1 0xFF AND PUSH2 0xF22 JUMPI PUSH1 0x40 MLOAD PUSH32 0x1E567DD400000000000000000000000000000000000000000000000000000000 DUP2 MSTORE PUSH1 0x4 ADD PUSH1 0x40 MLOAD DUP1 SWAP2 SUB SWAP1 REVERT JUMPDEST DUP1 MLOAD PUSH1 0x0 SWAP1 PUSH2 0xF7E JUMPI POP PUSH1 0x0 SWAP2 SWAP1 POP JUMP JUMPDEST PUSH11 0x52B7D2DCC80CD2E4000000 PUSH2 0xF97 DUP4 PUSH1 0x20 ADD MLOAD PUSH2 0x10B5 JUMP JUMPDEST PUSH1 0x40 DUP5 ADD MLOAD DUP5 MLOAD PUSH2 0xFA8 SWAP2 SWAP1 PUSH2 0x12BD JUMP JUMPDEST PUSH2 0xFB2 SWAP2 SWAP1 PUSH2 0x12BD JUMP JUMPDEST PUSH2 0xFBC SWAP2 SWAP1 PUSH2 0x129B JUMP JUMPDEST SWAP3 SWAP2 POP POP JUMP JUMPDEST PUSH1 0x0 PUSH2 0x955 DUP3 DUP5 PUSH2 0x12BD JUMP JUMPDEST PUSH1 0x0 PUSH2 0x955 DUP3 DUP5 PUSH2 0x129B JUMP JUMPDEST PUSH1 0x0 PUSH2 0xFBC PUSH3 0x93A80 PUSH2 0xFED DUP5 TIMESTAMP PUSH2 0x1256 JUMP JUMPDEST SWAP1 PUSH2 0xFCE JUMP JUMPDEST PUSH1 0x0 PUSH4 0x1DFE200 PUSH2 0x3E8 PUSH1 0x2 SLOAD DUP5 PUSH2 0x100B SWAP2 SWAP1 PUSH2 0x12BD JUMP JUMPDEST PUSH2 0xFB2 SWAP2 SWAP1 PUSH2 0x129B JUMP JUMPDEST PUSH1 0xA SLOAD PUSH1 0x1 PUSH1 0x1 PUSH1 0xA0 SHL SUB AND CALLER EQ PUSH2 0xF22 JUMPI PUSH1 0x40 MLOAD PUSH4 0x15A678A9 PUSH1 0xE1 SHL DUP2 MSTORE PUSH1 0x4 ADD PUSH1 0x40 MLOAD DUP1 SWAP2 SUB SWAP1 REVERT JUMPDEST PUSH1 0x9 SLOAD PUSH1 0x1 PUSH1 0x1 PUSH1 0xA0 SHL SUB AND CALLER EQ PUSH2 0xF22 JUMPI PUSH1 0x40 MLOAD PUSH4 0x15A678A9 PUSH1 0xE1 SHL DUP2 MSTORE PUSH1 0x4 ADD PUSH1 0x40 MLOAD DUP1 SWAP2 SUB SWAP1 REVERT JUMPDEST PUSH1 0x0 DUP1 DUP4 PUSH2 0x107E JUMPI POP PUSH1 0x0 SWAP1 POP DUP1 PUSH2 0x10AE JUMP JUMPDEST PUSH2 0x1096 DUP5 PUSH2 0x1091 PUSH2 0x63E DUP8 PUSH1 0x1 SLOAD PUSH2 0xFC2 JUMP JUMPDEST PUSH2 0x1118 JUMP JUMPDEST PUSH2 0x10A9 DUP5 PUSH2 0x1091 PUSH2 0x63E DUP8 PUSH1 0x1 SLOAD PUSH2 0xFC2 JUMP JUMPDEST SWAP2 POP SWAP2 POP JUMPDEST SWAP3 POP SWAP3 SWAP1 POP JUMP JUMPDEST PUSH1 0x0 PUSH2 0xFBC PUSH2 0x10C4 DUP4 TIMESTAMP PUSH2 0x1256 JUMP JUMPDEST PUSH2 0x10D8 SWAP1 PUSH10 0xD3C21BCECCEDA1000000 PUSH2 0x12BD JUMP JUMPDEST PUSH4 0x1E13380 PUSH1 0x40 MLOAD DUP1 PUSH1 0x40 ADD PUSH1 0x40 MSTORE DUP1 PUSH1 0x1D DUP2 MSTORE PUSH1 0x20 ADD PUSH32 0x4572726F722063616E6E6F74206469766964652074696D657374616D70000000 DUP2 MSTORE POP PUSH2 0x1124 JUMP JUMPDEST PUSH1 0x0 PUSH2 0x955 DUP3 DUP5 PUSH2 0x1256 JUMP JUMPDEST PUSH1 0x0 DUP2 DUP4 PUSH2 0x1145 JUMPI PUSH1 0x40 MLOAD PUSH3 0x461BCD PUSH1 0xE5 SHL DUP2 MSTORE PUSH1 0x4 ADD PUSH2 0x4B5 SWAP2 SWAP1 PUSH2 0x12DC JUMP JUMPDEST POP DUP3 DUP5 DUP2 PUSH2 0x1155 JUMPI PUSH2 0x1155 PUSH2 0x1285 JUMP JUMPDEST DIV SWAP5 SWAP4 POP POP POP POP JUMP JUMPDEST PUSH1 0x40 MLOAD DUP1 PUSH1 0x60 ADD PUSH1 0x40 MSTORE DUP1 PUSH1 0x0 DUP2 MSTORE PUSH1 0x20 ADD PUSH1 0x0 DUP2 MSTORE PUSH1 0x20 ADD PUSH2 0x11B7 PUSH1 0x40 MLOAD DUP1 PUSH1 0xE0 ADD PUSH1 0x40 MSTORE DUP1 PUSH1 0x0 DUP2 MSTORE PUSH1 0x20 ADD PUSH1 0x0 DUP2 MSTORE PUSH1 0x20 ADD PUSH1 0x0 DUP2 MSTORE PUSH1 0x20 ADD PUSH1 0x0 DUP2 MSTORE PUSH1 0x20 ADD PUSH1 0x0 DUP2 MSTORE PUSH1 0x20 ADD PUSH1 0x0 DUP2 MSTORE PUSH1 0x20 ADD PUSH1 0x0 DUP2 MSTORE POP SWAP1 JUMP JUMPDEST SWAP1 MSTORE SWAP1 JUMP JUMPDEST DUP1 CALLDATALOAD PUSH1 0x1 PUSH1 0x1 PUSH1 0xA0 SHL SUB DUP2 AND DUP2 EQ PUSH2 0x965 JUMPI PUSH1 0x0 DUP1 REVERT JUMPDEST PUSH1 0x0 PUSH1 0x20 DUP3 DUP5 SUB SLT ISZERO PUSH2 0x11E5 JUMPI PUSH1 0x0 DUP1 REVERT JUMPDEST PUSH2 0x955 DUP3 PUSH2 0x11BC JUMP JUMPDEST PUSH1 0x0 PUSH1 0x20 DUP3 DUP5 SUB SLT ISZERO PUSH2 0x1200 JUMPI PUSH1 0x0 DUP1 REVERT JUMPDEST POP CALLDATALOAD SWAP2 SWAP1 POP JUMP JUMPDEST PUSH1 0x0 DUP1 PUSH1 0x0 DUP1 PUSH1 0x80 DUP6 DUP8 SUB SLT ISZERO PUSH2 0x121D JUMPI PUSH1 0x0 DUP1 REVERT JUMPDEST PUSH2 0x1226 DUP6 PUSH2 0x11BC JUMP JUMPDEST SWAP7 PUSH1 0x20 DUP7 ADD CALLDATALOAD SWAP7 POP PUSH1 0x40 DUP7 ADD CALLDATALOAD SWAP6 PUSH1 0x60 ADD CALLDATALOAD SWAP5 POP SWAP3 POP POP POP JUMP JUMPDEST PUSH4 0x4E487B71 PUSH1 0xE0 SHL PUSH1 0x0 MSTORE PUSH1 0x11 PUSH1 0x4 MSTORE PUSH1 0x24 PUSH1 0x0 REVERT JUMPDEST PUSH1 0x0 DUP3 DUP3 LT ISZERO PUSH2 0x1268 JUMPI PUSH2 0x1268 PUSH2 0x1240 JUMP JUMPDEST POP SUB SWAP1 JUMP JUMPDEST PUSH1 0x0 DUP3 NOT DUP3 GT ISZERO PUSH2 0x1280 JUMPI PUSH2 0x1280 PUSH2 0x1240 JUMP JUMPDEST POP ADD SWAP1 JUMP JUMPDEST PUSH4 0x4E487B71 PUSH1 0xE0 SHL PUSH1 0x0 MSTORE PUSH1 0x12 PUSH1 0x4 MSTORE PUSH1 0x24 PUSH1 0x0 REVERT JUMPDEST PUSH1 0x0 DUP3 PUSH2 0x12B8 JUMPI PUSH4 0x4E487B71 PUSH1 0xE0 SHL PUSH1 0x0 MSTORE PUSH1 0x12 PUSH1 0x4 MSTORE PUSH1 0x24 PUSH1 0x0 REVERT JUMPDEST POP DIV SWAP1 JUMP JUMPDEST PUSH1 0x0 DUP2 PUSH1 0x0 NOT DIV DUP4 GT DUP3 ISZERO ISZERO AND ISZERO PUSH2 0x12D7 JUMPI PUSH2 0x12D7 PUSH2 0x1240 JUMP JUMPDEST POP MUL SWAP1 JUMP JUMPDEST PUSH1 0x0 PUSH1 0x20 DUP1 DUP4 MSTORE DUP4 MLOAD DUP1 DUP3 DUP6 ADD MSTORE PUSH1 0x0 JUMPDEST DUP2 DUP2 LT ISZERO PUSH2 0x1309 JUMPI DUP6 DUP2 ADD DUP4 ADD MLOAD DUP6 DUP3 ADD PUSH1 0x40 ADD MSTORE DUP3 ADD PUSH2 0x12ED JUMP JUMPDEST DUP2 DUP2 GT ISZERO PUSH2 0x131B JUMPI PUSH1 0x0 PUSH1 0x40 DUP4 DUP8 ADD ADD MSTORE JUMPDEST POP PUSH1 0x1F ADD PUSH1 0x1F NOT AND SWAP3 SWAP1 SWAP3 ADD PUSH1 0x40 ADD SWAP4 SWAP3 POP POP POP JUMP INVALID LOG2 PUSH5 0x6970667358 0x22 SLT KECCAK256 RETURNDATACOPY DUP6 0xAD 0xA8 MSTORE8 0xFC DELEGATECALL SWAP1 LOG3 LOG0 LOG2 0xC7 0xE6 INVALID GAS 0xC1 0xBB RETURN CODESIZE PUSH29 0x67F99B04777880D2A71D7E8064736F6C634300080B0033000000000000 "
				},
				"gasEstimates": {
					"creation": {
						"codeDepositCost": "993400",
						"executionCost": "115835",
						"totalCost": "1109235"
					},
					"external": {
						"_owner()": "2404",
						"_talax()": "2427",
						"airdropRate()": "2341",
						"airdropSince()": "2384",
						"airdropWeek()": "4658",
						"changeAirdropPercentage(uint256)": "25635",
						"changePenaltyFee(uint256)": "25648",
						"changeTalaxAddress(address)": "26811",
						"claimAirdrop(address)": "infinite",
						"getLatestClaimDrop()": "15246",
						"getVoters(address)": "6946",
						"getVotingResult()": "infinite",
						"hasStake()": "infinite",
						"retractVote()": "infinite",
						"stake(address,uint256,uint256,uint256)": "infinite",
						"stakingPenaltyRate()": "2362",
						"startAirdropSince()": "24502",
						"startVoting()": "82258",
						"stopVoting()": "infinite",
						"totalVoters()": "2341",
						"vote()": "infinite",
						"votedUsers(uint256)": "2528",
						"voters(address)": "2576",
						"withdrawStake(address)": "infinite"
					},
					"internal": {
						"_calculateAirdrop(uint256)": "infinite",
						"_calculateStakeReward(struct Stakable.Stake memory)": "infinite",
						"_calculateStakingDuration(uint256)": "infinite",
						"_calculateStakingWithPenalty(uint256,uint256)": "infinite",
						"_calculateWeek(uint256)": "193",
						"_checkVotingStatus()": "infinite",
						"_isVoter()": "infinite",
						"isOwner()": "infinite",
						"isTalax()": "infinite"
					}
				},
				"methodIdentifiers": {
					"_owner()": "b2bdfa7b",
					"_talax()": "5f348b4e",
					"airdropRate()": "8891cf0d",
					"airdropSince()": "b87da76d",
					"airdropWeek()": "cbb3e152",
					"changeAirdropPercentage(uint256)": "d5dbdf1b",
					"changePenaltyFee(uint256)": "8c63f97f",
					"changeTalaxAddress(address)": "1d77b00b",
					"claimAirdrop(address)": "65f8c6c5",
					"getLatestClaimDrop()": "69e4591a",
					"getVoters(address)": "2d15cc04",
					"getVotingResult()": "671d2b75",
					"hasStake()": "10486b6a",
					"retractVote()": "070c8b74",
					"stake(address,uint256,uint256,uint256)": "f93d4f8a",
					"stakingPenaltyRate()": "cb79c2e1",
					"startAirdropSince()": "71e3db87",
					"startVoting()": "1ec6b60a",
					"stopVoting()": "fab2f86b",
					"totalVoters()": "5f5300ff",
					"vote()": "632a9a52",
					"votedUsers(uint256)": "a143a5f2",
					"voters(address)": "a3ec138d",
					"withdrawStake(address)": "c23a5cea"
				}
			},
			"storageLayout": {
				"storage": [
					{
						"astId": 10,
						"contract": "contracts/Stakable.sol:Stakable",
						"label": "_status",
						"offset": 0,
						"slot": "0",
						"type": "t_uint256"
					},
					{
						"astId": 399,
						"contract": "contracts/Stakable.sol:Stakable",
						"label": "stakingPenaltyRate",
						"offset": 0,
						"slot": "1",
						"type": "t_uint256"
					},
					{
						"astId": 401,
						"contract": "contracts/Stakable.sol:Stakable",
						"label": "airdropRate",
						"offset": 0,
						"slot": "2",
						"type": "t_uint256"
					},
					{
						"astId": 403,
						"contract": "contracts/Stakable.sol:Stakable",
						"label": "airdropSince",
						"offset": 0,
						"slot": "3",
						"type": "t_uint256"
					},
					{
						"astId": 405,
						"contract": "contracts/Stakable.sol:Stakable",
						"label": "_votingStatus",
						"offset": 0,
						"slot": "4",
						"type": "t_bool"
					},
					{
						"astId": 407,
						"contract": "contracts/Stakable.sol:Stakable",
						"label": "_votingId",
						"offset": 0,
						"slot": "5",
						"type": "t_uint256"
					},
					{
						"astId": 409,
						"contract": "contracts/Stakable.sol:Stakable",
						"label": "totalVoters",
						"offset": 0,
						"slot": "6",
						"type": "t_uint256"
					},
					{
						"astId": 414,
						"contract": "contracts/Stakable.sol:Stakable",
						"label": "voters",
						"offset": 0,
						"slot": "7",
						"type": "t_mapping(t_address,t_struct(Voter)397_storage)"
					},
					{
						"astId": 418,
						"contract": "contracts/Stakable.sol:Stakable",
						"label": "votedUsers",
						"offset": 0,
						"slot": "8",
						"type": "t_mapping(t_uint256,t_uint256)"
					},
					{
						"astId": 420,
						"contract": "contracts/Stakable.sol:Stakable",
						"label": "_talax",
						"offset": 0,
						"slot": "9",
						"type": "t_address"
					},
					{
						"astId": 422,
						"contract": "contracts/Stakable.sol:Stakable",
						"label": "_owner",
						"offset": 0,
						"slot": "10",
						"type": "t_address"
					},
					{
						"astId": 473,
						"contract": "contracts/Stakable.sol:Stakable",
						"label": "stakeholders",
						"offset": 0,
						"slot": "11",
						"type": "t_mapping(t_address,t_struct(Stake)459_storage)"
					}
				],
				"types": {
					"t_address": {
						"encoding": "inplace",
						"label": "address",
						"numberOfBytes": "20"
					},
					"t_bool": {
						"encoding": "inplace",
						"label": "bool",
						"numberOfBytes": "1"
					},
					"t_mapping(t_address,t_struct(Stake)459_storage)": {
						"encoding": "mapping",
						"key": "t_address",
						"label": "mapping(address => struct Stakable.Stake)",
						"numberOfBytes": "32",
						"value": "t_struct(Stake)459_storage"
					},
					"t_mapping(t_address,t_struct(Voter)397_storage)": {
						"encoding": "mapping",
						"key": "t_address",
						"label": "mapping(address => struct Stakable.Voter)",
						"numberOfBytes": "32",
						"value": "t_struct(Voter)397_storage"
					},
					"t_mapping(t_uint256,t_bool)": {
						"encoding": "mapping",
						"key": "t_uint256",
						"label": "mapping(uint256 => bool)",
						"numberOfBytes": "32",
						"value": "t_bool"
					},
					"t_mapping(t_uint256,t_uint256)": {
						"encoding": "mapping",
						"key": "t_uint256",
						"label": "mapping(uint256 => uint256)",
						"numberOfBytes": "32",
						"value": "t_uint256"
					},
					"t_struct(Stake)459_storage": {
						"encoding": "inplace",
						"label": "struct Stakable.Stake",
						"members": [
							{
								"astId": 446,
								"contract": "contracts/Stakable.sol:Stakable",
								"label": "amount",
								"offset": 0,
								"slot": "0",
								"type": "t_uint256"
							},
							{
								"astId": 448,
								"contract": "contracts/Stakable.sol:Stakable",
								"label": "since",
								"offset": 0,
								"slot": "1",
								"type": "t_uint256"
							},
							{
								"astId": 450,
								"contract": "contracts/Stakable.sol:Stakable",
								"label": "rewardAPY",
								"offset": 0,
								"slot": "2",
								"type": "t_uint256"
							},
							{
								"astId": 452,
								"contract": "contracts/Stakable.sol:Stakable",
								"label": "releaseTime",
								"offset": 0,
								"slot": "3",
								"type": "t_uint256"
							},
							{
								"astId": 454,
								"contract": "contracts/Stakable.sol:Stakable",
								"label": "claimable",
								"offset": 0,
								"slot": "4",
								"type": "t_uint256"
							},
							{
								"astId": 456,
								"contract": "contracts/Stakable.sol:Stakable",
								"label": "claimableAirdrop",
								"offset": 0,
								"slot": "5",
								"type": "t_uint256"
							},
							{
								"astId": 458,
								"contract": "contracts/Stakable.sol:Stakable",
								"label": "latestClaimDrop",
								"offset": 0,
								"slot": "6",
								"type": "t_uint256"
							}
						],
						"numberOfBytes": "224"
					},
					"t_struct(Voter)397_storage": {
						"encoding": "inplace",
						"label": "struct Stakable.Voter",
						"members": [
							{
								"astId": 392,
								"contract": "contracts/Stakable.sol:Stakable",
								"label": "votingRight",
								"offset": 0,
								"slot": "0",
								"type": "t_bool"
							},
							{
								"astId": 396,
								"contract": "contracts/Stakable.sol:Stakable",
								"label": "voted",
								"offset": 0,
								"slot": "1",
								"type": "t_mapping(t_uint256,t_bool)"
							}
						],
						"numberOfBytes": "64"
					},
					"t_uint256": {
						"encoding": "inplace",
						"label": "uint256",
						"numberOfBytes": "32"
					}
				}
			},
			"userdoc": {
				"errors": {
					"Airdrop__claimableOnceAWeek()": [
						{
							"notice": "Error handling message for Airdrop functions"
						}
					],
					"Function__notAuthorized()": [
						{
							"notice": "Error handling message for Modifier"
						}
					],
					"Staking__cannotStakeNothing()": [
						{
							"notice": "Error handling message for Staking functions"
						}
					],
					"Voting__votingIsRunning()": [
						{
							"notice": "Error handling message for Voting functions"
						}
					]
				},
				"events": {
					"Staked(address,uint256,uint256,uint256)": {
						"notice": "Staked event is triggered whenever a user stakes tokens, address is indexed to make it filterable"
					}
				},
				"kind": "user",
				"methods": {
					"stake(address,uint256,uint256,uint256)": {
						"notice": "_Stake is used to make a stake for an sender. It will remove the amount staked from the stakers account and place those tokens inside a stake container StakeID"
					},
					"withdrawStake(address)": {
						"notice": "withdrawStake takes in an amount and a index of the stake and will remove tokens from that stake Notice index of the stake is the users stake counter, starting at 0 for the first stake Will return the amount to MINT onto the account Will also _calculateStakeReward and reset timer"
					}
				},
				"version": 1
			}
		}
	}
}