{
	"contracts/Stake-2.0.sol": {
		"Stake": {
			"abi": [
				{
					"inputs": [
						{
							"internalType": "address",
							"name": "token",
							"type": "address"
						}
					],
					"stateMutability": "nonpayable",
					"type": "constructor"
				},
				{
					"inputs": [],
					"name": "Airdrop__claimableOnceAWeek",
					"type": "error"
				},
				{
					"inputs": [],
					"name": "Staking__airdropExceed20Percent",
					"type": "error"
				},
				{
					"inputs": [],
					"name": "Staking__noStakingFound",
					"type": "error"
				},
				{
					"inputs": [],
					"name": "Staking__penaltyExceed3Percent",
					"type": "error"
				},
				{
					"inputs": [],
					"name": "Staking__userIsStaker",
					"type": "error"
				},
				{
					"inputs": [],
					"name": "Staking_noStakingPackageFound",
					"type": "error"
				},
				{
					"anonymous": false,
					"inputs": [
						{
							"indexed": false,
							"internalType": "uint256",
							"name": "amount",
							"type": "uint256"
						}
					],
					"name": "AirdropChanged",
					"type": "event"
				},
				{
					"anonymous": false,
					"inputs": [
						{
							"indexed": true,
							"internalType": "address",
							"name": "previousOwner",
							"type": "address"
						},
						{
							"indexed": true,
							"internalType": "address",
							"name": "newOwner",
							"type": "address"
						}
					],
					"name": "OwnershipTransferred",
					"type": "event"
				},
				{
					"anonymous": false,
					"inputs": [
						{
							"indexed": false,
							"internalType": "uint256",
							"name": "amount",
							"type": "uint256"
						}
					],
					"name": "PenaltyChanged",
					"type": "event"
				},
				{
					"anonymous": false,
					"inputs": [
						{
							"indexed": true,
							"internalType": "address",
							"name": "user",
							"type": "address"
						},
						{
							"indexed": false,
							"internalType": "uint256",
							"name": "amount",
							"type": "uint256"
						},
						{
							"indexed": false,
							"internalType": "uint256",
							"name": "timestamp",
							"type": "uint256"
						},
						{
							"indexed": false,
							"internalType": "uint256",
							"name": "releaseTime",
							"type": "uint256"
						}
					],
					"name": "Staked",
					"type": "event"
				},
				{
					"inputs": [],
					"name": "_blockTimestamp",
					"outputs": [
						{
							"internalType": "uint256",
							"name": "",
							"type": "uint256"
						}
					],
					"stateMutability": "view",
					"type": "function"
				},
				{
					"inputs": [],
					"name": "airdropRate",
					"outputs": [
						{
							"internalType": "uint256",
							"name": "",
							"type": "uint256"
						}
					],
					"stateMutability": "view",
					"type": "function"
				},
				{
					"inputs": [],
					"name": "airdropSince",
					"outputs": [
						{
							"internalType": "uint256",
							"name": "",
							"type": "uint256"
						}
					],
					"stateMutability": "view",
					"type": "function"
				},
				{
					"inputs": [
						{
							"internalType": "uint256",
							"name": "timestamp",
							"type": "uint256"
						}
					],
					"name": "calculateWeek",
					"outputs": [
						{
							"internalType": "uint256",
							"name": "",
							"type": "uint256"
						}
					],
					"stateMutability": "view",
					"type": "function"
				},
				{
					"inputs": [
						{
							"internalType": "uint256",
							"name": "amount",
							"type": "uint256"
						}
					],
					"name": "changeAirdropPercentage",
					"outputs": [],
					"stateMutability": "nonpayable",
					"type": "function"
				},
				{
					"inputs": [
						{
							"internalType": "uint256",
							"name": "amount",
							"type": "uint256"
						}
					],
					"name": "changePenaltyFee",
					"outputs": [],
					"stateMutability": "nonpayable",
					"type": "function"
				},
				{
					"inputs": [],
					"name": "claimAirdrop",
					"outputs": [],
					"stateMutability": "nonpayable",
					"type": "function"
				},
				{
					"inputs": [],
					"name": "hasStake",
					"outputs": [
						{
							"components": [
								{
									"internalType": "uint256",
									"name": "total_amount",
									"type": "uint256"
								},
								{
									"internalType": "uint256",
									"name": "penalty",
									"type": "uint256"
								},
								{
									"components": [
										{
											"internalType": "uint256",
											"name": "amount",
											"type": "uint256"
										},
										{
											"internalType": "uint256",
											"name": "since",
											"type": "uint256"
										},
										{
											"internalType": "uint256",
											"name": "rewardAPY",
											"type": "uint256"
										},
										{
											"internalType": "uint256",
											"name": "releaseTime",
											"type": "uint256"
										},
										{
											"internalType": "uint256",
											"name": "claimable",
											"type": "uint256"
										},
										{
											"internalType": "uint256",
											"name": "claimableAirdrop",
											"type": "uint256"
										},
										{
											"internalType": "uint256",
											"name": "latestClaimDrop",
											"type": "uint256"
										}
									],
									"internalType": "struct Stake.Stake",
									"name": "stake",
									"type": "tuple"
								}
							],
							"internalType": "struct Stake.StakingSummary",
							"name": "",
							"type": "tuple"
						}
					],
					"stateMutability": "view",
					"type": "function"
				},
				{
					"inputs": [],
					"name": "owner",
					"outputs": [
						{
							"internalType": "address",
							"name": "",
							"type": "address"
						}
					],
					"stateMutability": "view",
					"type": "function"
				},
				{
					"inputs": [],
					"name": "renounceOwnership",
					"outputs": [],
					"stateMutability": "nonpayable",
					"type": "function"
				},
				{
					"inputs": [
						{
							"internalType": "uint256",
							"name": "amount",
							"type": "uint256"
						},
						{
							"internalType": "uint256",
							"name": "stakePeriod",
							"type": "uint256"
						}
					],
					"name": "stake",
					"outputs": [],
					"stateMutability": "nonpayable",
					"type": "function"
				},
				{
					"inputs": [],
					"name": "stakingPenaltyRate",
					"outputs": [
						{
							"internalType": "uint256",
							"name": "",
							"type": "uint256"
						}
					],
					"stateMutability": "view",
					"type": "function"
				},
				{
					"inputs": [],
					"name": "startAirdrop",
					"outputs": [],
					"stateMutability": "nonpayable",
					"type": "function"
				},
				{
					"inputs": [],
					"name": "token_address",
					"outputs": [
						{
							"internalType": "address",
							"name": "",
							"type": "address"
						}
					],
					"stateMutability": "view",
					"type": "function"
				},
				{
					"inputs": [],
					"name": "totalVoters",
					"outputs": [
						{
							"internalType": "uint256",
							"name": "",
							"type": "uint256"
						}
					],
					"stateMutability": "view",
					"type": "function"
				},
				{
					"inputs": [
						{
							"internalType": "address",
							"name": "newOwner",
							"type": "address"
						}
					],
					"name": "transferOwnership",
					"outputs": [],
					"stateMutability": "nonpayable",
					"type": "function"
				},
				{
					"inputs": [
						{
							"internalType": "uint256",
							"name": "",
							"type": "uint256"
						}
					],
					"name": "votedUsers",
					"outputs": [
						{
							"internalType": "uint256",
							"name": "",
							"type": "uint256"
						}
					],
					"stateMutability": "view",
					"type": "function"
				},
				{
					"inputs": [
						{
							"internalType": "address",
							"name": "",
							"type": "address"
						}
					],
					"name": "voters",
					"outputs": [
						{
							"internalType": "bool",
							"name": "votingRight",
							"type": "bool"
						}
					],
					"stateMutability": "view",
					"type": "function"
				},
				{
					"inputs": [],
					"name": "withdrawStake",
					"outputs": [],
					"stateMutability": "nonpayable",
					"type": "function"
				}
			],
			"devdoc": {
				"kind": "dev",
				"methods": {
					"owner()": {
						"details": "Returns the address of the current owner."
					},
					"renounceOwnership()": {
						"details": "Leaves the contract without owner. It will not be possible to call `onlyOwner` functions anymore. Can only be called by the current owner. NOTE: Renouncing ownership will leave the contract without an owner, thereby removing any functionality that is only available to the owner."
					},
					"transferOwnership(address)": {
						"details": "Transfers ownership of the contract to a new account (`newOwner`). Can only be called by the current owner."
					}
				},
				"version": 1
			},
			"evm": {
				"assembly": "    /* \"contracts/Stake-2.0.sol\":1017:12999  contract Stake is ReentrancyGuard, Ownable {... */\n  mstore(0x40, 0x80)\n    /* \"contracts/Stake-2.0.sol\":1740:2051  constructor(address token) {... */\n  callvalue\n  dup1\n  iszero\n  tag_1\n  jumpi\n  0x00\n  dup1\n  revert\ntag_1:\n  pop\n  mload(0x40)\n  sub(codesize, bytecodeSize)\n  dup1\n  bytecodeSize\n  dup4\n  codecopy\n  dup2\n  dup2\n  add\n  0x40\n  mstore\n  dup2\n  add\n  swap1\n  tag_2\n  swap2\n  swap1\n  tag_3\n  jump\t// in\ntag_2:\n    /* \"@openzeppelin/contracts/security/ReentrancyGuard.sol\":1701:1702  1 */\n  0x01\n    /* \"@openzeppelin/contracts/security/ReentrancyGuard.sol\":1806:1813  _status */\n  0x00\n    /* \"@openzeppelin/contracts/security/ReentrancyGuard.sol\":1806:1828  _status = _NOT_ENTERED */\n  dup2\n  swap1\n  sstore\n  pop\n    /* \"@openzeppelin/contracts/access/Ownable.sol\":921:953  _transferOwnership(_msgSender()) */\n  tag_9\n    /* \"@openzeppelin/contracts/access/Ownable.sol\":940:952  _msgSender() */\n  tag_10\n    /* \"@openzeppelin/contracts/access/Ownable.sol\":940:950  _msgSender */\n  shl(0x20, tag_11)\n    /* \"@openzeppelin/contracts/access/Ownable.sol\":940:952  _msgSender() */\n  0x20\n  shr\n  jump\t// in\ntag_10:\n    /* \"@openzeppelin/contracts/access/Ownable.sol\":921:939  _transferOwnership */\n  shl(0x20, tag_12)\n    /* \"@openzeppelin/contracts/access/Ownable.sol\":921:953  _transferOwnership(_msgSender()) */\n  0x20\n  shr\n  jump\t// in\ntag_9:\n    /* \"contracts/Stake-2.0.sol\":1862:1864  15 */\n  0x0f\n    /* \"contracts/Stake-2.0.sol\":1841:1859  stakingPenaltyRate */\n  0x03\n    /* \"contracts/Stake-2.0.sol\":1841:1864  stakingPenaltyRate = 15 */\n  dup2\n  swap1\n  sstore\n  pop\n    /* \"contracts/Stake-2.0.sol\":1889:1891  80 */\n  0x50\n    /* \"contracts/Stake-2.0.sol\":1875:1886  airdropRate */\n  0x04\n    /* \"contracts/Stake-2.0.sol\":1875:1891  airdropRate = 80 */\n  dup2\n  swap1\n  sstore\n  pop\n    /* \"contracts/Stake-2.0.sol\":1920:1925  token */\n  dup1\n    /* \"contracts/Stake-2.0.sol\":1904:1917  token_address */\n  0x0b\n  0x00\n    /* \"contracts/Stake-2.0.sol\":1904:1925  token_address = token */\n  0x0100\n  exp\n  dup2\n  sload\n  dup2\n  0xffffffffffffffffffffffffffffffffffffffff\n  mul\n  not\n  and\n  swap1\n  dup4\n  0xffffffffffffffffffffffffffffffffffffffff\n  and\n  mul\n  or\n  swap1\n  sstore\n  pop\n    /* \"contracts/Stake-2.0.sol\":1964:1965  6 */\n  0x06\n    /* \"contracts/Stake-2.0.sol\":1938:1952  stakingPackage */\n  0x02\n    /* \"contracts/Stake-2.0.sol\":1938:1961  stakingPackage[90 days] */\n  0x00\n    /* \"contracts/Stake-2.0.sol\":1953:1960  90 days */\n  0x76a700\n    /* \"contracts/Stake-2.0.sol\":1938:1961  stakingPackage[90 days] */\n  dup2\n  mstore\n  0x20\n  add\n  swap1\n  dup2\n  mstore\n  0x20\n  add\n  0x00\n  keccak256\n    /* \"contracts/Stake-2.0.sol\":1938:1965  stakingPackage[90 days] = 6 */\n  dup2\n  swap1\n  sstore\n  pop\n    /* \"contracts/Stake-2.0.sol\":2003:2004  7 */\n  0x07\n    /* \"contracts/Stake-2.0.sol\":1976:1990  stakingPackage */\n  0x02\n    /* \"contracts/Stake-2.0.sol\":1976:2000  stakingPackage[180 days] */\n  0x00\n    /* \"contracts/Stake-2.0.sol\":1991:1999  180 days */\n  0xed4e00\n    /* \"contracts/Stake-2.0.sol\":1976:2000  stakingPackage[180 days] */\n  dup2\n  mstore\n  0x20\n  add\n  swap1\n  dup2\n  mstore\n  0x20\n  add\n  0x00\n  keccak256\n    /* \"contracts/Stake-2.0.sol\":1976:2004  stakingPackage[180 days] = 7 */\n  dup2\n  swap1\n  sstore\n  pop\n    /* \"contracts/Stake-2.0.sol\":2042:2043  8 */\n  0x08\n    /* \"contracts/Stake-2.0.sol\":2015:2029  stakingPackage */\n  0x02\n    /* \"contracts/Stake-2.0.sol\":2015:2039  stakingPackage[365 days] */\n  0x00\n    /* \"contracts/Stake-2.0.sol\":2030:2038  365 days */\n  0x01e13380\n    /* \"contracts/Stake-2.0.sol\":2015:2039  stakingPackage[365 days] */\n  dup2\n  mstore\n  0x20\n  add\n  swap1\n  dup2\n  mstore\n  0x20\n  add\n  0x00\n  keccak256\n    /* \"contracts/Stake-2.0.sol\":2015:2043  stakingPackage[365 days] = 8 */\n  dup2\n  swap1\n  sstore\n  pop\n    /* \"contracts/Stake-2.0.sol\":1740:2051  constructor(address token) {... */\n  pop\n    /* \"contracts/Stake-2.0.sol\":1017:12999  contract Stake is ReentrancyGuard, Ownable {... */\n  jump(tag_14)\n    /* \"@openzeppelin/contracts/utils/Context.sol\":640:736  function _msgSender() internal view virtual returns (address) {... */\ntag_11:\n    /* \"@openzeppelin/contracts/utils/Context.sol\":693:700  address */\n  0x00\n    /* \"@openzeppelin/contracts/utils/Context.sol\":719:729  msg.sender */\n  caller\n    /* \"@openzeppelin/contracts/utils/Context.sol\":712:729  return msg.sender */\n  swap1\n  pop\n    /* \"@openzeppelin/contracts/utils/Context.sol\":640:736  function _msgSender() internal view virtual returns (address) {... */\n  swap1\n  jump\t// out\n    /* \"@openzeppelin/contracts/access/Ownable.sol\":2270:2457  function _transferOwnership(address newOwner) internal virtual {... */\ntag_12:\n    /* \"@openzeppelin/contracts/access/Ownable.sol\":2343:2359  address oldOwner */\n  0x00\n    /* \"@openzeppelin/contracts/access/Ownable.sol\":2362:2368  _owner */\n  0x01\n  0x00\n  swap1\n  sload\n  swap1\n  0x0100\n  exp\n  swap1\n  div\n  0xffffffffffffffffffffffffffffffffffffffff\n  and\n    /* \"@openzeppelin/contracts/access/Ownable.sol\":2343:2368  address oldOwner = _owner */\n  swap1\n  pop\n    /* \"@openzeppelin/contracts/access/Ownable.sol\":2387:2395  newOwner */\n  dup2\n    /* \"@openzeppelin/contracts/access/Ownable.sol\":2378:2384  _owner */\n  0x01\n  0x00\n    /* \"@openzeppelin/contracts/access/Ownable.sol\":2378:2395  _owner = newOwner */\n  0x0100\n  exp\n  dup2\n  sload\n  dup2\n  0xffffffffffffffffffffffffffffffffffffffff\n  mul\n  not\n  and\n  swap1\n  dup4\n  0xffffffffffffffffffffffffffffffffffffffff\n  and\n  mul\n  or\n  swap1\n  sstore\n  pop\n    /* \"@openzeppelin/contracts/access/Ownable.sol\":2441:2449  newOwner */\n  dup2\n    /* \"@openzeppelin/contracts/access/Ownable.sol\":2410:2450  OwnershipTransferred(oldOwner, newOwner) */\n  0xffffffffffffffffffffffffffffffffffffffff\n  and\n    /* \"@openzeppelin/contracts/access/Ownable.sol\":2431:2439  oldOwner */\n  dup2\n    /* \"@openzeppelin/contracts/access/Ownable.sol\":2410:2450  OwnershipTransferred(oldOwner, newOwner) */\n  0xffffffffffffffffffffffffffffffffffffffff\n  and\n  0x8be0079c531659141344cd1fd0a4f28419497f9722a3daafe3b4186f6b6457e0\n  mload(0x40)\n  mload(0x40)\n  dup1\n  swap2\n  sub\n  swap1\n  log3\n    /* \"@openzeppelin/contracts/access/Ownable.sol\":2333:2457  {... */\n  pop\n    /* \"@openzeppelin/contracts/access/Ownable.sol\":2270:2457  function _transferOwnership(address newOwner) internal virtual {... */\n  pop\n  jump\t// out\n    /* \"#utility.yul\":88:205   */\ntag_18:\n    /* \"#utility.yul\":197:198   */\n  0x00\n    /* \"#utility.yul\":194:195   */\n  dup1\n    /* \"#utility.yul\":187:199   */\n  revert\n    /* \"#utility.yul\":334:460   */\ntag_20:\n    /* \"#utility.yul\":371:378   */\n  0x00\n    /* \"#utility.yul\":411:453   */\n  0xffffffffffffffffffffffffffffffffffffffff\n    /* \"#utility.yul\":404:409   */\n  dup3\n    /* \"#utility.yul\":400:454   */\n  and\n    /* \"#utility.yul\":389:454   */\n  swap1\n  pop\n    /* \"#utility.yul\":334:460   */\n  swap2\n  swap1\n  pop\n  jump\t// out\n    /* \"#utility.yul\":466:562   */\ntag_21:\n    /* \"#utility.yul\":503:510   */\n  0x00\n    /* \"#utility.yul\":532:556   */\n  tag_30\n    /* \"#utility.yul\":550:555   */\n  dup3\n    /* \"#utility.yul\":532:556   */\n  tag_20\n  jump\t// in\ntag_30:\n    /* \"#utility.yul\":521:556   */\n  swap1\n  pop\n    /* \"#utility.yul\":466:562   */\n  swap2\n  swap1\n  pop\n  jump\t// out\n    /* \"#utility.yul\":568:690   */\ntag_22:\n    /* \"#utility.yul\":641:665   */\n  tag_32\n    /* \"#utility.yul\":659:664   */\n  dup2\n    /* \"#utility.yul\":641:665   */\n  tag_21\n  jump\t// in\ntag_32:\n    /* \"#utility.yul\":634:639   */\n  dup2\n    /* \"#utility.yul\":631:666   */\n  eq\n    /* \"#utility.yul\":621:684   */\n  tag_33\n  jumpi\n    /* \"#utility.yul\":680:681   */\n  0x00\n    /* \"#utility.yul\":677:678   */\n  dup1\n    /* \"#utility.yul\":670:682   */\n  revert\n    /* \"#utility.yul\":621:684   */\ntag_33:\n    /* \"#utility.yul\":568:690   */\n  pop\n  jump\t// out\n    /* \"#utility.yul\":696:839   */\ntag_23:\n    /* \"#utility.yul\":753:758   */\n  0x00\n    /* \"#utility.yul\":784:790   */\n  dup2\n    /* \"#utility.yul\":778:791   */\n  mload\n    /* \"#utility.yul\":769:791   */\n  swap1\n  pop\n    /* \"#utility.yul\":800:833   */\n  tag_35\n    /* \"#utility.yul\":827:832   */\n  dup2\n    /* \"#utility.yul\":800:833   */\n  tag_22\n  jump\t// in\ntag_35:\n    /* \"#utility.yul\":696:839   */\n  swap3\n  swap2\n  pop\n  pop\n  jump\t// out\n    /* \"#utility.yul\":845:1196   */\ntag_3:\n    /* \"#utility.yul\":915:921   */\n  0x00\n    /* \"#utility.yul\":964:966   */\n  0x20\n    /* \"#utility.yul\":952:961   */\n  dup3\n    /* \"#utility.yul\":943:950   */\n  dup5\n    /* \"#utility.yul\":939:962   */\n  sub\n    /* \"#utility.yul\":935:967   */\n  slt\n    /* \"#utility.yul\":932:1051   */\n  iszero\n  tag_37\n  jumpi\n    /* \"#utility.yul\":970:1049   */\n  tag_38\n  tag_18\n  jump\t// in\ntag_38:\n    /* \"#utility.yul\":932:1051   */\ntag_37:\n    /* \"#utility.yul\":1090:1091   */\n  0x00\n    /* \"#utility.yul\":1115:1179   */\n  tag_39\n    /* \"#utility.yul\":1171:1178   */\n  dup5\n    /* \"#utility.yul\":1162:1168   */\n  dup3\n    /* \"#utility.yul\":1151:1160   */\n  dup6\n    /* \"#utility.yul\":1147:1169   */\n  add\n    /* \"#utility.yul\":1115:1179   */\n  tag_23\n  jump\t// in\ntag_39:\n    /* \"#utility.yul\":1105:1179   */\n  swap2\n  pop\n    /* \"#utility.yul\":1061:1189   */\n  pop\n    /* \"#utility.yul\":845:1196   */\n  swap3\n  swap2\n  pop\n  pop\n  jump\t// out\n    /* \"contracts/Stake-2.0.sol\":1017:12999  contract Stake is ReentrancyGuard, Ownable {... */\ntag_14:\n  dataSize(sub_0)\n  dup1\n  dataOffset(sub_0)\n  0x00\n  codecopy\n  0x00\n  return\nstop\n\nsub_0: assembly {\n        /* \"contracts/Stake-2.0.sol\":1017:12999  contract Stake is ReentrancyGuard, Ownable {... */\n      mstore(0x40, 0x80)\n      callvalue\n      dup1\n      iszero\n      tag_1\n      jumpi\n      0x00\n      dup1\n      revert\n    tag_1:\n      pop\n      jumpi(tag_2, lt(calldatasize, 0x04))\n      shr(0xe0, calldataload(0x00))\n      dup1\n      0xa143a5f2\n      gt\n      tag_22\n      jumpi\n      dup1\n      0xc63aa3e7\n      gt\n      tag_23\n      jumpi\n      dup1\n      0xc63aa3e7\n      eq\n      tag_17\n      jumpi\n      dup1\n      0xcb79c2e1\n      eq\n      tag_18\n      jumpi\n      dup1\n      0xd2a569c3\n      eq\n      tag_19\n      jumpi\n      dup1\n      0xd5dbdf1b\n      eq\n      tag_20\n      jumpi\n      dup1\n      0xf2fde38b\n      eq\n      tag_21\n      jumpi\n      jump(tag_2)\n    tag_23:\n      dup1\n      0xa143a5f2\n      eq\n      tag_12\n      jumpi\n      dup1\n      0xa3ec138d\n      eq\n      tag_13\n      jumpi\n      dup1\n      0xb5d9df83\n      eq\n      tag_14\n      jumpi\n      dup1\n      0xb87da76d\n      eq\n      tag_15\n      jumpi\n      dup1\n      0xbed9d861\n      eq\n      tag_16\n      jumpi\n      jump(tag_2)\n    tag_22:\n      dup1\n      0x7b0472f0\n      gt\n      tag_24\n      jumpi\n      dup1\n      0x7b0472f0\n      eq\n      tag_7\n      jumpi\n      dup1\n      0x8891cf0d\n      eq\n      tag_8\n      jumpi\n      dup1\n      0x8c63f97f\n      eq\n      tag_9\n      jumpi\n      dup1\n      0x8c8e8fee\n      eq\n      tag_10\n      jumpi\n      dup1\n      0x8da5cb5b\n      eq\n      tag_11\n      jumpi\n      jump(tag_2)\n    tag_24:\n      dup1\n      0x10486b6a\n      eq\n      tag_3\n      jumpi\n      dup1\n      0x5b88349d\n      eq\n      tag_4\n      jumpi\n      dup1\n      0x5f5300ff\n      eq\n      tag_5\n      jumpi\n      dup1\n      0x715018a6\n      eq\n      tag_6\n      jumpi\n    tag_2:\n      0x00\n      dup1\n      revert\n        /* \"contracts/Stake-2.0.sol\":8587:9638  function hasStake() external view returns (StakingSummary memory) {... */\n    tag_3:\n      tag_25\n      tag_26\n      jump\t// in\n    tag_25:\n      mload(0x40)\n      tag_27\n      swap2\n      swap1\n      tag_28\n      jump\t// in\n    tag_27:\n      mload(0x40)\n      dup1\n      swap2\n      sub\n      swap1\n      return\n        /* \"contracts/Stake-2.0.sol\":10545:11150  function claimAirdrop() external {... */\n    tag_4:\n      tag_29\n      tag_30\n      jump\t// in\n    tag_29:\n      stop\n        /* \"contracts/Stake-2.0.sol\":1570:1596  uint256 public totalVoters */\n    tag_5:\n      tag_31\n      tag_32\n      jump\t// in\n    tag_31:\n      mload(0x40)\n      tag_33\n      swap2\n      swap1\n      tag_34\n      jump\t// in\n    tag_33:\n      mload(0x40)\n      dup1\n      swap2\n      sub\n      swap1\n      return\n        /* \"@openzeppelin/contracts/access/Ownable.sol\":1668:1769  function renounceOwnership() public virtual onlyOwner {... */\n    tag_6:\n      tag_35\n      tag_36\n      jump\t// in\n    tag_35:\n      stop\n        /* \"contracts/Stake-2.0.sol\":4457:5806  function stake(uint256 amount, uint256 stakePeriod) external nonReentrant {... */\n    tag_7:\n      tag_37\n      0x04\n      dup1\n      calldatasize\n      sub\n      dup2\n      add\n      swap1\n      tag_38\n      swap2\n      swap1\n      tag_39\n      jump\t// in\n    tag_38:\n      tag_40\n      jump\t// in\n    tag_37:\n      stop\n        /* \"contracts/Stake-2.0.sol\":1434:1460  uint256 public airdropRate */\n    tag_8:\n      tag_41\n      tag_42\n      jump\t// in\n    tag_41:\n      mload(0x40)\n      tag_43\n      swap2\n      swap1\n      tag_34\n      jump\t// in\n    tag_43:\n      mload(0x40)\n      dup1\n      swap2\n      sub\n      swap1\n      return\n        /* \"contracts/Stake-2.0.sol\":5814:6127  function changePenaltyFee(uint256 amount) external onlyOwner {... */\n    tag_9:\n      tag_44\n      0x04\n      dup1\n      calldatasize\n      sub\n      dup2\n      add\n      swap1\n      tag_45\n      swap2\n      swap1\n      tag_46\n      jump\t// in\n    tag_45:\n      tag_47\n      jump\t// in\n    tag_44:\n      stop\n        /* \"contracts/Stake-2.0.sol\":1703:1731  address public token_address */\n    tag_10:\n      tag_48\n      tag_49\n      jump\t// in\n    tag_48:\n      mload(0x40)\n      tag_50\n      swap2\n      swap1\n      tag_51\n      jump\t// in\n    tag_50:\n      mload(0x40)\n      dup1\n      swap2\n      sub\n      swap1\n      return\n        /* \"@openzeppelin/contracts/access/Ownable.sol\":1036:1121  function owner() public view virtual returns (address) {... */\n    tag_11:\n      tag_52\n      tag_53\n      jump\t// in\n    tag_52:\n      mload(0x40)\n      tag_54\n      swap2\n      swap1\n      tag_51\n      jump\t// in\n    tag_54:\n      mload(0x40)\n      dup1\n      swap2\n      sub\n      swap1\n      return\n        /* \"contracts/Stake-2.0.sol\":1649:1694  mapping(uint256 => uint256) public votedUsers */\n    tag_12:\n      tag_55\n      0x04\n      dup1\n      calldatasize\n      sub\n      dup2\n      add\n      swap1\n      tag_56\n      swap2\n      swap1\n      tag_46\n      jump\t// in\n    tag_56:\n      tag_57\n      jump\t// in\n    tag_55:\n      mload(0x40)\n      tag_58\n      swap2\n      swap1\n      tag_34\n      jump\t// in\n    tag_58:\n      mload(0x40)\n      dup1\n      swap2\n      sub\n      swap1\n      return\n        /* \"contracts/Stake-2.0.sol\":1603:1642  mapping(address => Voter) public voters */\n    tag_13:\n      tag_59\n      0x04\n      dup1\n      calldatasize\n      sub\n      dup2\n      add\n      swap1\n      tag_60\n      swap2\n      swap1\n      tag_61\n      jump\t// in\n    tag_60:\n      tag_62\n      jump\t// in\n    tag_59:\n      mload(0x40)\n      tag_63\n      swap2\n      swap1\n      tag_64\n      jump\t// in\n    tag_63:\n      mload(0x40)\n      dup1\n      swap2\n      sub\n      swap1\n      return\n        /* \"contracts/Stake-2.0.sol\":10208:10344  function calculateWeek(uint256 timestamp) public view returns (uint256) {... */\n    tag_14:\n      tag_65\n      0x04\n      dup1\n      calldatasize\n      sub\n      dup2\n      add\n      swap1\n      tag_66\n      swap2\n      swap1\n      tag_46\n      jump\t// in\n    tag_66:\n      tag_67\n      jump\t// in\n    tag_65:\n      mload(0x40)\n      tag_68\n      swap2\n      swap1\n      tag_34\n      jump\t// in\n    tag_68:\n      mload(0x40)\n      dup1\n      swap2\n      sub\n      swap1\n      return\n        /* \"contracts/Stake-2.0.sol\":1467:1494  uint256 public airdropSince */\n    tag_15:\n      tag_69\n      tag_70\n      jump\t// in\n    tag_69:\n      mload(0x40)\n      tag_71\n      swap2\n      swap1\n      tag_34\n      jump\t// in\n    tag_71:\n      mload(0x40)\n      dup1\n      swap2\n      sub\n      swap1\n      return\n        /* \"contracts/Stake-2.0.sol\":7567:8579  function withdrawStake() external nonReentrant {... */\n    tag_16:\n      tag_72\n      tag_73\n      jump\t// in\n    tag_72:\n      stop\n        /* \"contracts/Stake-2.0.sol\":10102:10200  function _blockTimestamp() public view returns (uint256) {... */\n    tag_17:\n      tag_74\n      tag_75\n      jump\t// in\n    tag_74:\n      mload(0x40)\n      tag_76\n      swap2\n      swap1\n      tag_34\n      jump\t// in\n    tag_76:\n      mload(0x40)\n      dup1\n      swap2\n      sub\n      swap1\n      return\n        /* \"contracts/Stake-2.0.sol\":1394:1427  uint256 public stakingPenaltyRate */\n    tag_18:\n      tag_77\n      tag_78\n      jump\t// in\n    tag_77:\n      mload(0x40)\n      tag_79\n      swap2\n      swap1\n      tag_34\n      jump\t// in\n    tag_79:\n      mload(0x40)\n      dup1\n      swap2\n      sub\n      swap1\n      return\n        /* \"contracts/Stake-2.0.sol\":9754:9846  function startAirdrop() external onlyOwner {... */\n    tag_19:\n      tag_80\n      tag_81\n      jump\t// in\n    tag_80:\n      stop\n        /* \"contracts/Stake-2.0.sol\":9854:10094  function changeAirdropPercentage(uint256 amount) external onlyOwner {... */\n    tag_20:\n      tag_82\n      0x04\n      dup1\n      calldatasize\n      sub\n      dup2\n      add\n      swap1\n      tag_83\n      swap2\n      swap1\n      tag_46\n      jump\t// in\n    tag_83:\n      tag_84\n      jump\t// in\n    tag_82:\n      stop\n        /* \"@openzeppelin/contracts/access/Ownable.sol\":1918:2116  function transferOwnership(address newOwner) public virtual onlyOwner {... */\n    tag_21:\n      tag_85\n      0x04\n      dup1\n      calldatasize\n      sub\n      dup2\n      add\n      swap1\n      tag_86\n      swap2\n      swap1\n      tag_61\n      jump\t// in\n    tag_86:\n      tag_87\n      jump\t// in\n    tag_85:\n      stop\n        /* \"contracts/Stake-2.0.sol\":8587:9638  function hasStake() external view returns (StakingSummary memory) {... */\n    tag_26:\n        /* \"contracts/Stake-2.0.sol\":8630:8651  StakingSummary memory */\n      tag_88\n      tag_89\n      jump\t// in\n    tag_88:\n        /* \"contracts/Stake-2.0.sol\":8664:8687  Stake memory user_stake */\n      0x00\n        /* \"contracts/Stake-2.0.sol\":8690:8702  stakeholders */\n      0x0c\n        /* \"contracts/Stake-2.0.sol\":8690:8714  stakeholders[msg.sender] */\n      0x00\n        /* \"contracts/Stake-2.0.sol\":8703:8713  msg.sender */\n      caller\n        /* \"contracts/Stake-2.0.sol\":8690:8714  stakeholders[msg.sender] */\n      0xffffffffffffffffffffffffffffffffffffffff\n      and\n      0xffffffffffffffffffffffffffffffffffffffff\n      and\n      dup2\n      mstore\n      0x20\n      add\n      swap1\n      dup2\n      mstore\n      0x20\n      add\n      0x00\n      keccak256\n        /* \"contracts/Stake-2.0.sol\":8664:8714  Stake memory user_stake = stakeholders[msg.sender] */\n      mload(0x40)\n      dup1\n      0xe0\n      add\n      0x40\n      mstore\n      swap1\n      dup2\n      0x00\n      dup3\n      add\n      sload\n      dup2\n      mstore\n      0x20\n      add\n      0x01\n      dup3\n      add\n      sload\n      dup2\n      mstore\n      0x20\n      add\n      0x02\n      dup3\n      add\n      sload\n      dup2\n      mstore\n      0x20\n      add\n      0x03\n      dup3\n      add\n      sload\n      dup2\n      mstore\n      0x20\n      add\n      0x04\n      dup3\n      add\n      sload\n      dup2\n      mstore\n      0x20\n      add\n      0x05\n      dup3\n      add\n      sload\n      dup2\n      mstore\n      0x20\n      add\n      0x06\n      dup3\n      add\n      sload\n      dup2\n      mstore\n      pop\n      pop\n      swap1\n      pop\n        /* \"contracts/Stake-2.0.sol\":8812:8813  0 */\n      0x00\n        /* \"contracts/Stake-2.0.sol\":8791:8801  user_stake */\n      dup2\n        /* \"contracts/Stake-2.0.sol\":8791:8808  user_stake.amount */\n      0x00\n      add\n      mload\n        /* \"contracts/Stake-2.0.sol\":8791:8813  user_stake.amount <= 0 */\n      gt\n        /* \"contracts/Stake-2.0.sol\":8787:8874  if (user_stake.amount <= 0) {... */\n      tag_91\n      jumpi\n        /* \"contracts/Stake-2.0.sol\":8837:8862  Staking__noStakingFound() */\n      mload(0x40)\n      0xb018f08700000000000000000000000000000000000000000000000000000000\n      dup2\n      mstore\n      0x04\n      add\n      mload(0x40)\n      dup1\n      swap2\n      sub\n      swap1\n      revert\n        /* \"contracts/Stake-2.0.sol\":8787:8874  if (user_stake.amount <= 0) {... */\n    tag_91:\n        /* \"contracts/Stake-2.0.sol\":8884:8913  StakingSummary memory summary */\n      0x00\n        /* \"contracts/Stake-2.0.sol\":8916:8948  StakingSummary(0, 0, user_stake) */\n      mload(0x40)\n      dup1\n      0x60\n      add\n      0x40\n      mstore\n      dup1\n        /* \"contracts/Stake-2.0.sol\":8931:8932  0 */\n      0x00\n        /* \"contracts/Stake-2.0.sol\":8916:8948  StakingSummary(0, 0, user_stake) */\n      dup2\n      mstore\n      0x20\n      add\n        /* \"contracts/Stake-2.0.sol\":8934:8935  0 */\n      0x00\n        /* \"contracts/Stake-2.0.sol\":8916:8948  StakingSummary(0, 0, user_stake) */\n      dup2\n      mstore\n      0x20\n      add\n        /* \"contracts/Stake-2.0.sol\":8937:8947  user_stake */\n      dup4\n        /* \"contracts/Stake-2.0.sol\":8916:8948  StakingSummary(0, 0, user_stake) */\n      dup2\n      mstore\n      pop\n        /* \"contracts/Stake-2.0.sol\":8884:8948  StakingSummary memory summary = StakingSummary(0, 0, user_stake) */\n      swap1\n      pop\n        /* \"contracts/Stake-2.0.sol\":8961:8975  uint256 reward */\n      0x00\n        /* \"contracts/Stake-2.0.sol\":8978:9011  _calculateStakeReward(user_stake) */\n      tag_92\n        /* \"contracts/Stake-2.0.sol\":9000:9010  user_stake */\n      dup4\n        /* \"contracts/Stake-2.0.sol\":8978:8999  _calculateStakeReward */\n      tag_93\n        /* \"contracts/Stake-2.0.sol\":8978:9011  _calculateStakeReward(user_stake) */\n      jump\t// in\n    tag_92:\n        /* \"contracts/Stake-2.0.sol\":8961:9011  uint256 reward = _calculateStakeReward(user_stake) */\n      swap1\n      pop\n        /* \"contracts/Stake-2.0.sol\":9056:9071  block.timestamp */\n      timestamp\n        /* \"contracts/Stake-2.0.sol\":9028:9035  summary */\n      dup3\n        /* \"contracts/Stake-2.0.sol\":9028:9041  summary.stake */\n      0x40\n      add\n      mload\n        /* \"contracts/Stake-2.0.sol\":9028:9053  summary.stake.releaseTime */\n      0x60\n      add\n      mload\n        /* \"contracts/Stake-2.0.sol\":9028:9071  summary.stake.releaseTime > block.timestamp */\n      gt\n        /* \"contracts/Stake-2.0.sol\":9024:9242  if (summary.stake.releaseTime > block.timestamp) {... */\n      iszero\n      tag_94\n      jumpi\n        /* \"contracts/Stake-2.0.sol\":9225:9229  1000 */\n      0x03e8\n        /* \"contracts/Stake-2.0.sol\":9203:9221  stakingPenaltyRate */\n      sload(0x03)\n        /* \"contracts/Stake-2.0.sol\":9194:9200  reward */\n      dup3\n        /* \"contracts/Stake-2.0.sol\":9194:9221  reward * stakingPenaltyRate */\n      tag_95\n      swap2\n      swap1\n      tag_96\n      jump\t// in\n    tag_95:\n        /* \"contracts/Stake-2.0.sol\":9193:9229  (reward * stakingPenaltyRate) / 1000 */\n      tag_97\n      swap2\n      swap1\n      tag_98\n      jump\t// in\n    tag_97:\n        /* \"contracts/Stake-2.0.sol\":9167:9171  1000 */\n      0x03e8\n        /* \"contracts/Stake-2.0.sol\":9145:9163  stakingPenaltyRate */\n      sload(0x03)\n        /* \"contracts/Stake-2.0.sol\":9125:9135  user_stake */\n      dup6\n        /* \"contracts/Stake-2.0.sol\":9125:9142  user_stake.amount */\n      0x00\n      add\n      mload\n        /* \"contracts/Stake-2.0.sol\":9125:9163  user_stake.amount * stakingPenaltyRate */\n      tag_99\n      swap2\n      swap1\n      tag_96\n      jump\t// in\n    tag_99:\n        /* \"contracts/Stake-2.0.sol\":9124:9171  (user_stake.amount * stakingPenaltyRate) / 1000 */\n      tag_100\n      swap2\n      swap1\n      tag_98\n      jump\t// in\n    tag_100:\n        /* \"contracts/Stake-2.0.sol\":9123:9230  ((user_stake.amount * stakingPenaltyRate) / 1000) +... */\n      tag_101\n      swap2\n      swap1\n      tag_102\n      jump\t// in\n    tag_101:\n        /* \"contracts/Stake-2.0.sol\":9088:9095  summary */\n      dup3\n        /* \"contracts/Stake-2.0.sol\":9088:9103  summary.penalty */\n      0x20\n      add\n        /* \"contracts/Stake-2.0.sol\":9088:9230  summary.penalty =... */\n      dup2\n      dup2\n      mstore\n      pop\n      pop\n        /* \"contracts/Stake-2.0.sol\":9024:9242  if (summary.stake.releaseTime > block.timestamp) {... */\n    tag_94:\n        /* \"contracts/Stake-2.0.sol\":9302:9303  0 */\n      0x00\n        /* \"contracts/Stake-2.0.sol\":9258:9299  calculateWeek(user_stake.latestClaimDrop) */\n      tag_103\n        /* \"contracts/Stake-2.0.sol\":9272:9282  user_stake */\n      dup5\n        /* \"contracts/Stake-2.0.sol\":9272:9298  user_stake.latestClaimDrop */\n      0xc0\n      add\n      mload\n        /* \"contracts/Stake-2.0.sol\":9258:9271  calculateWeek */\n      tag_67\n        /* \"contracts/Stake-2.0.sol\":9258:9299  calculateWeek(user_stake.latestClaimDrop) */\n      jump\t// in\n    tag_103:\n        /* \"contracts/Stake-2.0.sol\":9258:9303  calculateWeek(user_stake.latestClaimDrop) > 0 */\n      gt\n        /* \"contracts/Stake-2.0.sol\":9254:9508  if (calculateWeek(user_stake.latestClaimDrop) > 0) {... */\n      iszero\n      tag_104\n      jumpi\n        /* \"contracts/Stake-2.0.sol\":9320:9335  uint256 airdrop */\n      0x00\n        /* \"contracts/Stake-2.0.sol\":9338:9374  _calculateAirdrop(user_stake.amount) */\n      tag_105\n        /* \"contracts/Stake-2.0.sol\":9356:9366  user_stake */\n      dup5\n        /* \"contracts/Stake-2.0.sol\":9356:9373  user_stake.amount */\n      0x00\n      add\n      mload\n        /* \"contracts/Stake-2.0.sol\":9338:9355  _calculateAirdrop */\n      tag_106\n        /* \"contracts/Stake-2.0.sol\":9338:9374  _calculateAirdrop(user_stake.amount) */\n      jump\t// in\n    tag_105:\n        /* \"contracts/Stake-2.0.sol\":9320:9374  uint256 airdrop = _calculateAirdrop(user_stake.amount) */\n      swap1\n      pop\n        /* \"contracts/Stake-2.0.sol\":9422:9429  airdrop */\n      dup1\n        /* \"contracts/Stake-2.0.sol\":9389:9396  summary */\n      dup4\n        /* \"contracts/Stake-2.0.sol\":9389:9402  summary.stake */\n      0x40\n      add\n      mload\n        /* \"contracts/Stake-2.0.sol\":9389:9419  summary.stake.claimableAirdrop */\n      0xa0\n      add\n        /* \"contracts/Stake-2.0.sol\":9389:9429  summary.stake.claimableAirdrop = airdrop */\n      dup2\n      dup2\n      mstore\n      pop\n      pop\n        /* \"contracts/Stake-2.0.sol\":9305:9441  {... */\n      pop\n        /* \"contracts/Stake-2.0.sol\":9254:9508  if (calculateWeek(user_stake.latestClaimDrop) > 0) {... */\n      jump(tag_107)\n    tag_104:\n        /* \"contracts/Stake-2.0.sol\":9495:9496  0 */\n      0x00\n        /* \"contracts/Stake-2.0.sol\":9462:9469  summary */\n      dup3\n        /* \"contracts/Stake-2.0.sol\":9462:9475  summary.stake */\n      0x40\n      add\n      mload\n        /* \"contracts/Stake-2.0.sol\":9462:9492  summary.stake.claimableAirdrop */\n      0xa0\n      add\n        /* \"contracts/Stake-2.0.sol\":9462:9496  summary.stake.claimableAirdrop = 0 */\n      dup2\n      dup2\n      mstore\n      pop\n      pop\n        /* \"contracts/Stake-2.0.sol\":9254:9508  if (calculateWeek(user_stake.latestClaimDrop) > 0) {... */\n    tag_107:\n        /* \"contracts/Stake-2.0.sol\":9546:9552  reward */\n      dup1\n        /* \"contracts/Stake-2.0.sol\":9520:9527  summary */\n      dup3\n        /* \"contracts/Stake-2.0.sol\":9520:9533  summary.stake */\n      0x40\n      add\n      mload\n        /* \"contracts/Stake-2.0.sol\":9520:9543  summary.stake.claimable */\n      0x80\n      add\n        /* \"contracts/Stake-2.0.sol\":9520:9552  summary.stake.claimable = reward */\n      dup2\n      dup2\n      mstore\n      pop\n      pop\n        /* \"contracts/Stake-2.0.sol\":9586:9596  user_stake */\n      dup3\n        /* \"contracts/Stake-2.0.sol\":9586:9603  user_stake.amount */\n      0x00\n      add\n      mload\n        /* \"contracts/Stake-2.0.sol\":9563:9570  summary */\n      dup3\n        /* \"contracts/Stake-2.0.sol\":9563:9583  summary.total_amount */\n      0x00\n      add\n        /* \"contracts/Stake-2.0.sol\":9563:9603  summary.total_amount = user_stake.amount */\n      dup2\n      dup2\n      mstore\n      pop\n      pop\n        /* \"contracts/Stake-2.0.sol\":9623:9630  summary */\n      dup2\n        /* \"contracts/Stake-2.0.sol\":9616:9630  return summary */\n      swap4\n      pop\n      pop\n      pop\n      pop\n        /* \"contracts/Stake-2.0.sol\":8587:9638  function hasStake() external view returns (StakingSummary memory) {... */\n      swap1\n      jump\t// out\n        /* \"contracts/Stake-2.0.sol\":10545:11150  function claimAirdrop() external {... */\n    tag_30:\n        /* \"contracts/Stake-2.0.sol\":10642:10662  Stake storage staker */\n      0x00\n        /* \"contracts/Stake-2.0.sol\":10665:10677  stakeholders */\n      0x0c\n        /* \"contracts/Stake-2.0.sol\":10665:10689  stakeholders[msg.sender] */\n      0x00\n        /* \"contracts/Stake-2.0.sol\":10678:10688  msg.sender */\n      caller\n        /* \"contracts/Stake-2.0.sol\":10665:10689  stakeholders[msg.sender] */\n      0xffffffffffffffffffffffffffffffffffffffff\n      and\n      0xffffffffffffffffffffffffffffffffffffffff\n      and\n      dup2\n      mstore\n      0x20\n      add\n      swap1\n      dup2\n      mstore\n      0x20\n      add\n      0x00\n      keccak256\n        /* \"contracts/Stake-2.0.sol\":10642:10689  Stake storage staker = stakeholders[msg.sender] */\n      swap1\n      pop\n        /* \"contracts/Stake-2.0.sol\":10722:10723  0 */\n      0x00\n        /* \"contracts/Stake-2.0.sol\":10706:10712  staker */\n      dup2\n        /* \"contracts/Stake-2.0.sol\":10706:10719  staker.amount */\n      0x00\n      add\n      sload\n        /* \"contracts/Stake-2.0.sol\":10706:10723  staker.amount > 0 */\n      gt\n        /* \"contracts/Stake-2.0.sol\":10702:11143  if (staker.amount > 0) {... */\n      iszero\n      tag_109\n      jumpi\n        /* \"contracts/Stake-2.0.sol\":10785:10786  0 */\n      0x00\n        /* \"contracts/Stake-2.0.sol\":10744:10781  calculateWeek(staker.latestClaimDrop) */\n      tag_110\n        /* \"contracts/Stake-2.0.sol\":10758:10764  staker */\n      dup3\n        /* \"contracts/Stake-2.0.sol\":10758:10780  staker.latestClaimDrop */\n      0x06\n      add\n      sload\n        /* \"contracts/Stake-2.0.sol\":10744:10757  calculateWeek */\n      tag_67\n        /* \"contracts/Stake-2.0.sol\":10744:10781  calculateWeek(staker.latestClaimDrop) */\n      jump\t// in\n    tag_110:\n        /* \"contracts/Stake-2.0.sol\":10744:10786  calculateWeek(staker.latestClaimDrop) == 0 */\n      eq\n        /* \"contracts/Stake-2.0.sol\":10740:10859  if (calculateWeek(staker.latestClaimDrop) == 0) {... */\n      iszero\n      tag_111\n      jumpi\n        /* \"contracts/Stake-2.0.sol\":10814:10843  Airdrop__claimableOnceAWeek() */\n      mload(0x40)\n      0xdd8456cc00000000000000000000000000000000000000000000000000000000\n      dup2\n      mstore\n      0x04\n      add\n      mload(0x40)\n      dup1\n      swap2\n      sub\n      swap1\n      revert\n        /* \"contracts/Stake-2.0.sol\":10740:10859  if (calculateWeek(staker.latestClaimDrop) == 0) {... */\n    tag_111:\n        /* \"contracts/Stake-2.0.sol\":10901:10902  0 */\n      0x00\n        /* \"contracts/Stake-2.0.sol\":10875:10881  staker */\n      dup2\n        /* \"contracts/Stake-2.0.sol\":10875:10898  staker.claimableAirdrop */\n      0x05\n      add\n        /* \"contracts/Stake-2.0.sol\":10875:10902  staker.claimableAirdrop = 0 */\n      dup2\n      swap1\n      sstore\n      pop\n        /* \"contracts/Stake-2.0.sol\":10942:10957  block.timestamp */\n      timestamp\n        /* \"contracts/Stake-2.0.sol\":10917:10923  staker */\n      dup2\n        /* \"contracts/Stake-2.0.sol\":10917:10939  staker.latestClaimDrop */\n      0x06\n      add\n        /* \"contracts/Stake-2.0.sol\":10917:10957  staker.latestClaimDrop = block.timestamp */\n      dup2\n      swap1\n      sstore\n      pop\n        /* \"contracts/Stake-2.0.sol\":10974:11131  SafeERC20.safeTransfer(... */\n      tag_112\n        /* \"contracts/Stake-2.0.sol\":11022:11035  token_address */\n      0x0b\n      0x00\n      swap1\n      sload\n      swap1\n      0x0100\n      exp\n      swap1\n      div\n      0xffffffffffffffffffffffffffffffffffffffff\n      and\n        /* \"contracts/Stake-2.0.sol\":11055:11065  msg.sender */\n      caller\n        /* \"contracts/Stake-2.0.sol\":11084:11116  _calculateAirdrop(staker.amount) */\n      tag_113\n        /* \"contracts/Stake-2.0.sol\":11102:11108  staker */\n      dup5\n        /* \"contracts/Stake-2.0.sol\":11102:11115  staker.amount */\n      0x00\n      add\n      sload\n        /* \"contracts/Stake-2.0.sol\":11084:11101  _calculateAirdrop */\n      tag_106\n        /* \"contracts/Stake-2.0.sol\":11084:11116  _calculateAirdrop(staker.amount) */\n      jump\t// in\n    tag_113:\n        /* \"contracts/Stake-2.0.sol\":10974:10996  SafeERC20.safeTransfer */\n      tag_114\n        /* \"contracts/Stake-2.0.sol\":10974:11131  SafeERC20.safeTransfer(... */\n      jump\t// in\n    tag_112:\n        /* \"contracts/Stake-2.0.sol\":10702:11143  if (staker.amount > 0) {... */\n    tag_109:\n        /* \"contracts/Stake-2.0.sol\":10578:11150  {... */\n      pop\n        /* \"contracts/Stake-2.0.sol\":10545:11150  function claimAirdrop() external {... */\n      jump\t// out\n        /* \"contracts/Stake-2.0.sol\":1570:1596  uint256 public totalVoters */\n    tag_32:\n      sload(0x08)\n      dup2\n      jump\t// out\n        /* \"@openzeppelin/contracts/access/Ownable.sol\":1668:1769  function renounceOwnership() public virtual onlyOwner {... */\n    tag_36:\n        /* \"@openzeppelin/contracts/access/Ownable.sol\":1259:1271  _msgSender() */\n      tag_116\n        /* \"@openzeppelin/contracts/access/Ownable.sol\":1259:1269  _msgSender */\n      tag_117\n        /* \"@openzeppelin/contracts/access/Ownable.sol\":1259:1271  _msgSender() */\n      jump\t// in\n    tag_116:\n        /* \"@openzeppelin/contracts/access/Ownable.sol\":1248:1271  owner() == _msgSender() */\n      0xffffffffffffffffffffffffffffffffffffffff\n      and\n        /* \"@openzeppelin/contracts/access/Ownable.sol\":1248:1255  owner() */\n      tag_118\n        /* \"@openzeppelin/contracts/access/Ownable.sol\":1248:1253  owner */\n      tag_53\n        /* \"@openzeppelin/contracts/access/Ownable.sol\":1248:1255  owner() */\n      jump\t// in\n    tag_118:\n        /* \"@openzeppelin/contracts/access/Ownable.sol\":1248:1271  owner() == _msgSender() */\n      0xffffffffffffffffffffffffffffffffffffffff\n      and\n      eq\n        /* \"@openzeppelin/contracts/access/Ownable.sol\":1240:1308  require(owner() == _msgSender(), \"Ownable: caller is not the owner\") */\n      tag_119\n      jumpi\n      mload(0x40)\n      0x08c379a000000000000000000000000000000000000000000000000000000000\n      dup2\n      mstore\n      0x04\n      add\n      tag_120\n      swap1\n      tag_121\n      jump\t// in\n    tag_120:\n      mload(0x40)\n      dup1\n      swap2\n      sub\n      swap1\n      revert\n    tag_119:\n        /* \"@openzeppelin/contracts/access/Ownable.sol\":1732:1762  _transferOwnership(address(0)) */\n      tag_123\n        /* \"@openzeppelin/contracts/access/Ownable.sol\":1759:1760  0 */\n      0x00\n        /* \"@openzeppelin/contracts/access/Ownable.sol\":1732:1750  _transferOwnership */\n      tag_124\n        /* \"@openzeppelin/contracts/access/Ownable.sol\":1732:1762  _transferOwnership(address(0)) */\n      jump\t// in\n    tag_123:\n        /* \"@openzeppelin/contracts/access/Ownable.sol\":1668:1769  function renounceOwnership() public virtual onlyOwner {... */\n      jump\t// out\n        /* \"contracts/Stake-2.0.sol\":4457:5806  function stake(uint256 amount, uint256 stakePeriod) external nonReentrant {... */\n    tag_40:\n        /* \"@openzeppelin/contracts/security/ReentrancyGuard.sol\":1744:1745  2 */\n      0x02\n        /* \"@openzeppelin/contracts/security/ReentrancyGuard.sol\":2325:2332  _status */\n      sload(0x00)\n        /* \"@openzeppelin/contracts/security/ReentrancyGuard.sol\":2325:2344  _status != _ENTERED */\n      eq\n      iszero\n        /* \"@openzeppelin/contracts/security/ReentrancyGuard.sol\":2317:2380  require(_status != _ENTERED, \"ReentrancyGuard: reentrant call\") */\n      tag_126\n      jumpi\n      mload(0x40)\n      0x08c379a000000000000000000000000000000000000000000000000000000000\n      dup2\n      mstore\n      0x04\n      add\n      tag_127\n      swap1\n      tag_128\n      jump\t// in\n    tag_127:\n      mload(0x40)\n      dup1\n      swap2\n      sub\n      swap1\n      revert\n    tag_126:\n        /* \"@openzeppelin/contracts/security/ReentrancyGuard.sol\":1744:1745  2 */\n      0x02\n        /* \"@openzeppelin/contracts/security/ReentrancyGuard.sol\":2455:2462  _status */\n      0x00\n        /* \"@openzeppelin/contracts/security/ReentrancyGuard.sol\":2455:2473  _status = _ENTERED */\n      dup2\n      swap1\n      sstore\n      pop\n        /* \"contracts/Stake-2.0.sol\":4766:4767  0 */\n      0x00\n        /* \"contracts/Stake-2.0.sol\":4731:4743  stakeholders */\n      0x0c\n        /* \"contracts/Stake-2.0.sol\":4731:4755  stakeholders[msg.sender] */\n      0x00\n        /* \"contracts/Stake-2.0.sol\":4744:4754  msg.sender */\n      caller\n        /* \"contracts/Stake-2.0.sol\":4731:4755  stakeholders[msg.sender] */\n      0xffffffffffffffffffffffffffffffffffffffff\n      and\n      0xffffffffffffffffffffffffffffffffffffffff\n      and\n      dup2\n      mstore\n      0x20\n      add\n      swap1\n      dup2\n      mstore\n      0x20\n      add\n      0x00\n      keccak256\n        /* \"contracts/Stake-2.0.sol\":4731:4762  stakeholders[msg.sender].amount */\n      0x00\n      add\n      sload\n        /* \"contracts/Stake-2.0.sol\":4731:4767  stakeholders[msg.sender].amount != 0 */\n      eq\n        /* \"contracts/Stake-2.0.sol\":4727:4826  if (stakeholders[msg.sender].amount != 0) {... */\n      tag_130\n      jumpi\n        /* \"contracts/Stake-2.0.sol\":4791:4814  Staking__userIsStaker() */\n      mload(0x40)\n      0x04462d2700000000000000000000000000000000000000000000000000000000\n      dup2\n      mstore\n      0x04\n      add\n      mload(0x40)\n      dup1\n      swap2\n      sub\n      swap1\n      revert\n        /* \"contracts/Stake-2.0.sol\":4727:4826  if (stakeholders[msg.sender].amount != 0) {... */\n    tag_130:\n        /* \"contracts/Stake-2.0.sol\":4873:4874  0 */\n      0x00\n        /* \"contracts/Stake-2.0.sol\":4842:4856  stakingPackage */\n      0x02\n        /* \"contracts/Stake-2.0.sol\":4842:4869  stakingPackage[stakePeriod] */\n      0x00\n        /* \"contracts/Stake-2.0.sol\":4857:4868  stakePeriod */\n      dup4\n        /* \"contracts/Stake-2.0.sol\":4842:4869  stakingPackage[stakePeriod] */\n      dup2\n      mstore\n      0x20\n      add\n      swap1\n      dup2\n      mstore\n      0x20\n      add\n      0x00\n      keccak256\n      sload\n        /* \"contracts/Stake-2.0.sol\":4842:4874  stakingPackage[stakePeriod] == 0 */\n      eq\n        /* \"contracts/Stake-2.0.sol\":4838:4941  if (stakingPackage[stakePeriod] == 0) {... */\n      iszero\n      tag_131\n      jumpi\n        /* \"contracts/Stake-2.0.sol\":4898:4929  Staking_noStakingPackageFound() */\n      mload(0x40)\n      0x95377be400000000000000000000000000000000000000000000000000000000\n      dup2\n      mstore\n      0x04\n      add\n      mload(0x40)\n      dup1\n      swap2\n      sub\n      swap1\n      revert\n        /* \"contracts/Stake-2.0.sol\":4838:4941  if (stakingPackage[stakePeriod] == 0) {... */\n    tag_131:\n        /* \"contracts/Stake-2.0.sol\":4968:4969  1 */\n      0x01\n        /* \"contracts/Stake-2.0.sol\":4953:4964  totalVoters */\n      0x08\n      0x00\n        /* \"contracts/Stake-2.0.sol\":4953:4969  totalVoters += 1 */\n      dup3\n      dup3\n      sload\n      tag_132\n      swap2\n      swap1\n      tag_102\n      jump\t// in\n    tag_132:\n      swap3\n      pop\n      pop\n      dup2\n      swap1\n      sstore\n      pop\n        /* \"contracts/Stake-2.0.sol\":5013:5017  true */\n      0x01\n        /* \"contracts/Stake-2.0.sol\":4980:4986  voters */\n      0x09\n        /* \"contracts/Stake-2.0.sol\":4980:4998  voters[msg.sender] */\n      0x00\n        /* \"contracts/Stake-2.0.sol\":4987:4997  msg.sender */\n      caller\n        /* \"contracts/Stake-2.0.sol\":4980:4998  voters[msg.sender] */\n      0xffffffffffffffffffffffffffffffffffffffff\n      and\n      0xffffffffffffffffffffffffffffffffffffffff\n      and\n      dup2\n      mstore\n      0x20\n      add\n      swap1\n      dup2\n      mstore\n      0x20\n      add\n      0x00\n      keccak256\n        /* \"contracts/Stake-2.0.sol\":4980:5010  voters[msg.sender].votingRight */\n      0x00\n      add\n      0x00\n        /* \"contracts/Stake-2.0.sol\":4980:5017  voters[msg.sender].votingRight = true */\n      0x0100\n      exp\n      dup2\n      sload\n      dup2\n      0xff\n      mul\n      not\n      and\n      swap1\n      dup4\n      iszero\n      iszero\n      mul\n      or\n      swap1\n      sstore\n      pop\n        /* \"contracts/Stake-2.0.sol\":5118:5135  uint256 timestamp */\n      0x00\n        /* \"contracts/Stake-2.0.sol\":5138:5153  block.timestamp */\n      timestamp\n        /* \"contracts/Stake-2.0.sol\":5118:5153  uint256 timestamp = block.timestamp */\n      swap1\n      pop\n        /* \"contracts/Stake-2.0.sol\":5314:5505  Stake(... */\n      mload(0x40)\n      dup1\n      0xe0\n      add\n      0x40\n      mstore\n      dup1\n        /* \"contracts/Stake-2.0.sol\":5334:5340  amount */\n      dup5\n        /* \"contracts/Stake-2.0.sol\":5314:5505  Stake(... */\n      dup2\n      mstore\n      0x20\n      add\n        /* \"contracts/Stake-2.0.sol\":5355:5364  timestamp */\n      dup3\n        /* \"contracts/Stake-2.0.sol\":5314:5505  Stake(... */\n      dup2\n      mstore\n      0x20\n      add\n        /* \"contracts/Stake-2.0.sol\":5379:5393  stakingPackage */\n      0x02\n        /* \"contracts/Stake-2.0.sol\":5379:5406  stakingPackage[stakePeriod] */\n      0x00\n        /* \"contracts/Stake-2.0.sol\":5394:5405  stakePeriod */\n      dup6\n        /* \"contracts/Stake-2.0.sol\":5379:5406  stakingPackage[stakePeriod] */\n      dup2\n      mstore\n      0x20\n      add\n      swap1\n      dup2\n      mstore\n      0x20\n      add\n      0x00\n      keccak256\n      sload\n        /* \"contracts/Stake-2.0.sol\":5314:5505  Stake(... */\n      dup2\n      mstore\n      0x20\n      add\n        /* \"contracts/Stake-2.0.sol\":5436:5445  timestamp */\n      dup3\n        /* \"contracts/Stake-2.0.sol\":5422:5433  stakePeriod */\n      dup5\n        /* \"contracts/Stake-2.0.sol\":5422:5445  stakePeriod + timestamp */\n      tag_133\n      swap2\n      swap1\n      tag_102\n      jump\t// in\n    tag_133:\n        /* \"contracts/Stake-2.0.sol\":5314:5505  Stake(... */\n      dup2\n      mstore\n      0x20\n      add\n        /* \"contracts/Stake-2.0.sol\":5461:5462  0 */\n      0x00\n        /* \"contracts/Stake-2.0.sol\":5314:5505  Stake(... */\n      dup2\n      mstore\n      0x20\n      add\n        /* \"contracts/Stake-2.0.sol\":5477:5478  0 */\n      0x00\n        /* \"contracts/Stake-2.0.sol\":5314:5505  Stake(... */\n      dup2\n      mstore\n      0x20\n      add\n        /* \"contracts/Stake-2.0.sol\":5493:5494  0 */\n      0x00\n        /* \"contracts/Stake-2.0.sol\":5314:5505  Stake(... */\n      dup2\n      mstore\n      pop\n        /* \"contracts/Stake-2.0.sol\":5287:5299  stakeholders */\n      0x0c\n        /* \"contracts/Stake-2.0.sol\":5287:5311  stakeholders[msg.sender] */\n      0x00\n        /* \"contracts/Stake-2.0.sol\":5300:5310  msg.sender */\n      caller\n        /* \"contracts/Stake-2.0.sol\":5287:5311  stakeholders[msg.sender] */\n      0xffffffffffffffffffffffffffffffffffffffff\n      and\n      0xffffffffffffffffffffffffffffffffffffffff\n      and\n      dup2\n      mstore\n      0x20\n      add\n      swap1\n      dup2\n      mstore\n      0x20\n      add\n      0x00\n      keccak256\n        /* \"contracts/Stake-2.0.sol\":5287:5505  stakeholders[msg.sender] = Stake(... */\n      0x00\n      dup3\n      add\n      mload\n      dup2\n      0x00\n      add\n      sstore\n      0x20\n      dup3\n      add\n      mload\n      dup2\n      0x01\n      add\n      sstore\n      0x40\n      dup3\n      add\n      mload\n      dup2\n      0x02\n      add\n      sstore\n      0x60\n      dup3\n      add\n      mload\n      dup2\n      0x03\n      add\n      sstore\n      0x80\n      dup3\n      add\n      mload\n      dup2\n      0x04\n      add\n      sstore\n      0xa0\n      dup3\n      add\n      mload\n      dup2\n      0x05\n      add\n      sstore\n      0xc0\n      dup3\n      add\n      mload\n      dup2\n      0x06\n      add\n      sstore\n      swap1\n      pop\n      pop\n        /* \"contracts/Stake-2.0.sol\":5518:5665  SafeERC20.safeTransferFrom(... */\n      tag_134\n        /* \"contracts/Stake-2.0.sol\":5566:5579  token_address */\n      0x0b\n      0x00\n      swap1\n      sload\n      swap1\n      0x0100\n      exp\n      swap1\n      div\n      0xffffffffffffffffffffffffffffffffffffffff\n      and\n        /* \"contracts/Stake-2.0.sol\":5595:5605  msg.sender */\n      caller\n        /* \"contracts/Stake-2.0.sol\":5628:5632  this */\n      address\n        /* \"contracts/Stake-2.0.sol\":5648:5654  amount */\n      dup7\n        /* \"contracts/Stake-2.0.sol\":5518:5544  SafeERC20.safeTransferFrom */\n      tag_135\n        /* \"contracts/Stake-2.0.sol\":5518:5665  SafeERC20.safeTransferFrom(... */\n      jump\t// in\n    tag_134:\n        /* \"contracts/Stake-2.0.sol\":5741:5751  msg.sender */\n      caller\n        /* \"contracts/Stake-2.0.sol\":5734:5798  Staked(msg.sender, amount, timestamp, (stakePeriod + timestamp)) */\n      0xffffffffffffffffffffffffffffffffffffffff\n      and\n      0xb4caaf29adda3eefee3ad552a8e85058589bf834c7466cae4ee58787f70589ed\n        /* \"contracts/Stake-2.0.sol\":5753:5759  amount */\n      dup5\n        /* \"contracts/Stake-2.0.sol\":5761:5770  timestamp */\n      dup4\n        /* \"contracts/Stake-2.0.sol\":5787:5796  timestamp */\n      dup5\n        /* \"contracts/Stake-2.0.sol\":5773:5784  stakePeriod */\n      dup7\n        /* \"contracts/Stake-2.0.sol\":5773:5796  stakePeriod + timestamp */\n      tag_136\n      swap2\n      swap1\n      tag_102\n      jump\t// in\n    tag_136:\n        /* \"contracts/Stake-2.0.sol\":5734:5798  Staked(msg.sender, amount, timestamp, (stakePeriod + timestamp)) */\n      mload(0x40)\n      tag_137\n      swap4\n      swap3\n      swap2\n      swap1\n      tag_138\n      jump\t// in\n    tag_137:\n      mload(0x40)\n      dup1\n      swap2\n      sub\n      swap1\n      log2\n        /* \"contracts/Stake-2.0.sol\":4531:5806  {... */\n      pop\n        /* \"@openzeppelin/contracts/security/ReentrancyGuard.sol\":1701:1702  1 */\n      0x01\n        /* \"@openzeppelin/contracts/security/ReentrancyGuard.sol\":2628:2635  _status */\n      0x00\n        /* \"@openzeppelin/contracts/security/ReentrancyGuard.sol\":2628:2650  _status = _NOT_ENTERED */\n      dup2\n      swap1\n      sstore\n      pop\n        /* \"contracts/Stake-2.0.sol\":4457:5806  function stake(uint256 amount, uint256 stakePeriod) external nonReentrant {... */\n      pop\n      pop\n      jump\t// out\n        /* \"contracts/Stake-2.0.sol\":1434:1460  uint256 public airdropRate */\n    tag_42:\n      sload(0x04)\n      dup2\n      jump\t// out\n        /* \"contracts/Stake-2.0.sol\":5814:6127  function changePenaltyFee(uint256 amount) external onlyOwner {... */\n    tag_47:\n        /* \"@openzeppelin/contracts/access/Ownable.sol\":1259:1271  _msgSender() */\n      tag_140\n        /* \"@openzeppelin/contracts/access/Ownable.sol\":1259:1269  _msgSender */\n      tag_117\n        /* \"@openzeppelin/contracts/access/Ownable.sol\":1259:1271  _msgSender() */\n      jump\t// in\n    tag_140:\n        /* \"@openzeppelin/contracts/access/Ownable.sol\":1248:1271  owner() == _msgSender() */\n      0xffffffffffffffffffffffffffffffffffffffff\n      and\n        /* \"@openzeppelin/contracts/access/Ownable.sol\":1248:1255  owner() */\n      tag_141\n        /* \"@openzeppelin/contracts/access/Ownable.sol\":1248:1253  owner */\n      tag_53\n        /* \"@openzeppelin/contracts/access/Ownable.sol\":1248:1255  owner() */\n      jump\t// in\n    tag_141:\n        /* \"@openzeppelin/contracts/access/Ownable.sol\":1248:1271  owner() == _msgSender() */\n      0xffffffffffffffffffffffffffffffffffffffff\n      and\n      eq\n        /* \"@openzeppelin/contracts/access/Ownable.sol\":1240:1308  require(owner() == _msgSender(), \"Ownable: caller is not the owner\") */\n      tag_142\n      jumpi\n      mload(0x40)\n      0x08c379a000000000000000000000000000000000000000000000000000000000\n      dup2\n      mstore\n      0x04\n      add\n      tag_143\n      swap1\n      tag_121\n      jump\t// in\n    tag_143:\n      mload(0x40)\n      dup1\n      swap2\n      sub\n      swap1\n      revert\n    tag_142:\n        /* \"contracts/Stake-2.0.sol\":5974:5976  30 */\n      0x1e\n        /* \"contracts/Stake-2.0.sol\":5965:5971  amount */\n      dup2\n        /* \"contracts/Stake-2.0.sol\":5965:5976  amount > 30 */\n      gt\n        /* \"contracts/Stake-2.0.sol\":5961:6044  if (amount > 30) {... */\n      iszero\n      tag_145\n      jumpi\n        /* \"contracts/Stake-2.0.sol\":6000:6032  Staking__penaltyExceed3Percent() */\n      mload(0x40)\n      0xf1a470d700000000000000000000000000000000000000000000000000000000\n      dup2\n      mstore\n      0x04\n      add\n      mload(0x40)\n      dup1\n      swap2\n      sub\n      swap1\n      revert\n        /* \"contracts/Stake-2.0.sol\":5961:6044  if (amount > 30) {... */\n    tag_145:\n        /* \"contracts/Stake-2.0.sol\":6075:6081  amount */\n      dup1\n        /* \"contracts/Stake-2.0.sol\":6054:6072  stakingPenaltyRate */\n      0x03\n        /* \"contracts/Stake-2.0.sol\":6054:6081  stakingPenaltyRate = amount */\n      dup2\n      swap1\n      sstore\n      pop\n        /* \"contracts/Stake-2.0.sol\":6097:6119  PenaltyChanged(amount) */\n      0xcfa4f4cf1cd64d13a167a8e75605e0c0c9d6700e903d17c5dc11f593254a04a9\n        /* \"contracts/Stake-2.0.sol\":6112:6118  amount */\n      dup2\n        /* \"contracts/Stake-2.0.sol\":6097:6119  PenaltyChanged(amount) */\n      mload(0x40)\n      tag_146\n      swap2\n      swap1\n      tag_34\n      jump\t// in\n    tag_146:\n      mload(0x40)\n      dup1\n      swap2\n      sub\n      swap1\n      log1\n        /* \"contracts/Stake-2.0.sol\":5814:6127  function changePenaltyFee(uint256 amount) external onlyOwner {... */\n      pop\n      jump\t// out\n        /* \"contracts/Stake-2.0.sol\":1703:1731  address public token_address */\n    tag_49:\n      0x0b\n      0x00\n      swap1\n      sload\n      swap1\n      0x0100\n      exp\n      swap1\n      div\n      0xffffffffffffffffffffffffffffffffffffffff\n      and\n      dup2\n      jump\t// out\n        /* \"@openzeppelin/contracts/access/Ownable.sol\":1036:1121  function owner() public view virtual returns (address) {... */\n    tag_53:\n        /* \"@openzeppelin/contracts/access/Ownable.sol\":1082:1089  address */\n      0x00\n        /* \"@openzeppelin/contracts/access/Ownable.sol\":1108:1114  _owner */\n      0x01\n      0x00\n      swap1\n      sload\n      swap1\n      0x0100\n      exp\n      swap1\n      div\n      0xffffffffffffffffffffffffffffffffffffffff\n      and\n        /* \"@openzeppelin/contracts/access/Ownable.sol\":1101:1114  return _owner */\n      swap1\n      pop\n        /* \"@openzeppelin/contracts/access/Ownable.sol\":1036:1121  function owner() public view virtual returns (address) {... */\n      swap1\n      jump\t// out\n        /* \"contracts/Stake-2.0.sol\":1649:1694  mapping(uint256 => uint256) public votedUsers */\n    tag_57:\n      mstore(0x20, 0x0a)\n      dup1\n      0x00\n      mstore\n      keccak256(0x00, 0x40)\n      0x00\n      swap2\n      pop\n      swap1\n      pop\n      sload\n      dup2\n      jump\t// out\n        /* \"contracts/Stake-2.0.sol\":1603:1642  mapping(address => Voter) public voters */\n    tag_62:\n      mstore(0x20, 0x09)\n      dup1\n      0x00\n      mstore\n      keccak256(0x00, 0x40)\n      0x00\n      swap2\n      pop\n      swap1\n      pop\n      dup1\n      0x00\n      add\n      0x00\n      swap1\n      sload\n      swap1\n      0x0100\n      exp\n      swap1\n      div\n      0xff\n      and\n      swap1\n      pop\n      dup2\n      jump\t// out\n        /* \"contracts/Stake-2.0.sol\":10208:10344  function calculateWeek(uint256 timestamp) public view returns (uint256) {... */\n    tag_67:\n        /* \"contracts/Stake-2.0.sol\":10271:10278  uint256 */\n      0x00\n        /* \"contracts/Stake-2.0.sol\":10330:10336  7 days */\n      0x093a80\n        /* \"contracts/Stake-2.0.sol\":10317:10326  timestamp */\n      dup3\n        /* \"contracts/Stake-2.0.sol\":10299:10314  block.timestamp */\n      timestamp\n        /* \"contracts/Stake-2.0.sol\":10299:10326  block.timestamp - timestamp */\n      tag_149\n      swap2\n      swap1\n      tag_150\n      jump\t// in\n    tag_149:\n        /* \"contracts/Stake-2.0.sol\":10298:10336  (block.timestamp - timestamp) / 7 days */\n      tag_151\n      swap2\n      swap1\n      tag_98\n      jump\t// in\n    tag_151:\n        /* \"contracts/Stake-2.0.sol\":10291:10336  return (block.timestamp - timestamp) / 7 days */\n      swap1\n      pop\n        /* \"contracts/Stake-2.0.sol\":10208:10344  function calculateWeek(uint256 timestamp) public view returns (uint256) {... */\n      swap2\n      swap1\n      pop\n      jump\t// out\n        /* \"contracts/Stake-2.0.sol\":1467:1494  uint256 public airdropSince */\n    tag_70:\n      sload(0x05)\n      dup2\n      jump\t// out\n        /* \"contracts/Stake-2.0.sol\":7567:8579  function withdrawStake() external nonReentrant {... */\n    tag_73:\n        /* \"@openzeppelin/contracts/security/ReentrancyGuard.sol\":1744:1745  2 */\n      0x02\n        /* \"@openzeppelin/contracts/security/ReentrancyGuard.sol\":2325:2332  _status */\n      sload(0x00)\n        /* \"@openzeppelin/contracts/security/ReentrancyGuard.sol\":2325:2344  _status != _ENTERED */\n      eq\n      iszero\n        /* \"@openzeppelin/contracts/security/ReentrancyGuard.sol\":2317:2380  require(_status != _ENTERED, \"ReentrancyGuard: reentrant call\") */\n      tag_153\n      jumpi\n      mload(0x40)\n      0x08c379a000000000000000000000000000000000000000000000000000000000\n      dup2\n      mstore\n      0x04\n      add\n      tag_154\n      swap1\n      tag_128\n      jump\t// in\n    tag_154:\n      mload(0x40)\n      dup1\n      swap2\n      sub\n      swap1\n      revert\n    tag_153:\n        /* \"@openzeppelin/contracts/security/ReentrancyGuard.sol\":1744:1745  2 */\n      0x02\n        /* \"@openzeppelin/contracts/security/ReentrancyGuard.sol\":2455:2462  _status */\n      0x00\n        /* \"@openzeppelin/contracts/security/ReentrancyGuard.sol\":2455:2473  _status = _ENTERED */\n      dup2\n      swap1\n      sstore\n      pop\n        /* \"contracts/Stake-2.0.sol\":7735:7758  Stake memory user_stake */\n      0x00\n        /* \"contracts/Stake-2.0.sol\":7761:7773  stakeholders */\n      0x0c\n        /* \"contracts/Stake-2.0.sol\":7761:7785  stakeholders[msg.sender] */\n      0x00\n        /* \"contracts/Stake-2.0.sol\":7774:7784  msg.sender */\n      caller\n        /* \"contracts/Stake-2.0.sol\":7761:7785  stakeholders[msg.sender] */\n      0xffffffffffffffffffffffffffffffffffffffff\n      and\n      0xffffffffffffffffffffffffffffffffffffffff\n      and\n      dup2\n      mstore\n      0x20\n      add\n      swap1\n      dup2\n      mstore\n      0x20\n      add\n      0x00\n      keccak256\n        /* \"contracts/Stake-2.0.sol\":7735:7785  Stake memory user_stake = stakeholders[msg.sender] */\n      mload(0x40)\n      dup1\n      0xe0\n      add\n      0x40\n      mstore\n      swap1\n      dup2\n      0x00\n      dup3\n      add\n      sload\n      dup2\n      mstore\n      0x20\n      add\n      0x01\n      dup3\n      add\n      sload\n      dup2\n      mstore\n      0x20\n      add\n      0x02\n      dup3\n      add\n      sload\n      dup2\n      mstore\n      0x20\n      add\n      0x03\n      dup3\n      add\n      sload\n      dup2\n      mstore\n      0x20\n      add\n      0x04\n      dup3\n      add\n      sload\n      dup2\n      mstore\n      0x20\n      add\n      0x05\n      dup3\n      add\n      sload\n      dup2\n      mstore\n      0x20\n      add\n      0x06\n      dup3\n      add\n      sload\n      dup2\n      mstore\n      pop\n      pop\n      swap1\n      pop\n        /* \"contracts/Stake-2.0.sol\":7796:7810  uint256 reward */\n      0x00\n        /* \"contracts/Stake-2.0.sol\":7813:7846  _calculateStakeReward(user_stake) */\n      tag_156\n        /* \"contracts/Stake-2.0.sol\":7835:7845  user_stake */\n      dup3\n        /* \"contracts/Stake-2.0.sol\":7813:7834  _calculateStakeReward */\n      tag_93\n        /* \"contracts/Stake-2.0.sol\":7813:7846  _calculateStakeReward(user_stake) */\n      jump\t// in\n    tag_156:\n        /* \"contracts/Stake-2.0.sol\":7796:7846  uint256 reward = _calculateStakeReward(user_stake) */\n      swap1\n      pop\n        /* \"contracts/Stake-2.0.sol\":7866:7878  stakeholders */\n      0x0c\n        /* \"contracts/Stake-2.0.sol\":7866:7890  stakeholders[msg.sender] */\n      0x00\n        /* \"contracts/Stake-2.0.sol\":7879:7889  msg.sender */\n      caller\n        /* \"contracts/Stake-2.0.sol\":7866:7890  stakeholders[msg.sender] */\n      0xffffffffffffffffffffffffffffffffffffffff\n      and\n      0xffffffffffffffffffffffffffffffffffffffff\n      and\n      dup2\n      mstore\n      0x20\n      add\n      swap1\n      dup2\n      mstore\n      0x20\n      add\n      0x00\n      keccak256\n      0x00\n        /* \"contracts/Stake-2.0.sol\":7859:7890  delete stakeholders[msg.sender] */\n      dup1\n      dup3\n      add\n      0x00\n      swap1\n      sstore\n      0x01\n      dup3\n      add\n      0x00\n      swap1\n      sstore\n      0x02\n      dup3\n      add\n      0x00\n      swap1\n      sstore\n      0x03\n      dup3\n      add\n      0x00\n      swap1\n      sstore\n      0x04\n      dup3\n      add\n      0x00\n      swap1\n      sstore\n      0x05\n      dup3\n      add\n      0x00\n      swap1\n      sstore\n      0x06\n      dup3\n      add\n      0x00\n      swap1\n      sstore\n      pop\n      pop\n        /* \"contracts/Stake-2.0.sol\":7916:7917  1 */\n      0x01\n        /* \"contracts/Stake-2.0.sol\":7901:7912  totalVoters */\n      0x08\n      0x00\n        /* \"contracts/Stake-2.0.sol\":7901:7917  totalVoters -= 1 */\n      dup3\n      dup3\n      sload\n      tag_157\n      swap2\n      swap1\n      tag_150\n      jump\t// in\n    tag_157:\n      swap3\n      pop\n      pop\n      dup2\n      swap1\n      sstore\n      pop\n        /* \"contracts/Stake-2.0.sol\":7935:7941  voters */\n      0x09\n        /* \"contracts/Stake-2.0.sol\":7935:7953  voters[msg.sender] */\n      0x00\n        /* \"contracts/Stake-2.0.sol\":7942:7952  msg.sender */\n      caller\n        /* \"contracts/Stake-2.0.sol\":7935:7953  voters[msg.sender] */\n      0xffffffffffffffffffffffffffffffffffffffff\n      and\n      0xffffffffffffffffffffffffffffffffffffffff\n      and\n      dup2\n      mstore\n      0x20\n      add\n      swap1\n      dup2\n      mstore\n      0x20\n      add\n      0x00\n      keccak256\n        /* \"contracts/Stake-2.0.sol\":7935:7959  voters[msg.sender].voted */\n      0x01\n      add\n        /* \"contracts/Stake-2.0.sol\":7935:7970  voters[msg.sender].voted[_votingId] */\n      0x00\n        /* \"contracts/Stake-2.0.sol\":7960:7969  _votingId */\n      sload(0x07)\n        /* \"contracts/Stake-2.0.sol\":7935:7970  voters[msg.sender].voted[_votingId] */\n      dup2\n      mstore\n      0x20\n      add\n      swap1\n      dup2\n      mstore\n      0x20\n      add\n      0x00\n      keccak256\n      0x00\n        /* \"contracts/Stake-2.0.sol\":7928:7970  delete voters[msg.sender].voted[_votingId] */\n      0x0100\n      exp\n      dup2\n      sload\n      swap1\n      0xff\n      mul\n      not\n      and\n      swap1\n      sstore\n        /* \"contracts/Stake-2.0.sol\":8012:8027  block.timestamp */\n      timestamp\n        /* \"contracts/Stake-2.0.sol\":7987:7997  user_stake */\n      dup3\n        /* \"contracts/Stake-2.0.sol\":7987:8009  user_stake.releaseTime */\n      0x60\n      add\n      mload\n        /* \"contracts/Stake-2.0.sol\":7987:8027  user_stake.releaseTime > block.timestamp */\n      gt\n        /* \"contracts/Stake-2.0.sol\":7983:8572  if (user_stake.releaseTime > block.timestamp) {... */\n      iszero\n      tag_158\n      jumpi\n        /* \"contracts/Stake-2.0.sol\":8063:8085  uint256 amount_reduced */\n      0x00\n        /* \"contracts/Stake-2.0.sol\":8104:8126  uint256 reward_reduced */\n      dup1\n        /* \"contracts/Stake-2.0.sol\":8144:8199  _calculateStakingWithPenalty(user_stake.amount, reward) */\n      tag_159\n        /* \"contracts/Stake-2.0.sol\":8173:8183  user_stake */\n      dup5\n        /* \"contracts/Stake-2.0.sol\":8173:8190  user_stake.amount */\n      0x00\n      add\n      mload\n        /* \"contracts/Stake-2.0.sol\":8192:8198  reward */\n      dup5\n        /* \"contracts/Stake-2.0.sol\":8144:8172  _calculateStakingWithPenalty */\n      tag_160\n        /* \"contracts/Stake-2.0.sol\":8144:8199  _calculateStakingWithPenalty(user_stake.amount, reward) */\n      jump\t// in\n    tag_159:\n        /* \"contracts/Stake-2.0.sol\":8044:8199  (... */\n      swap2\n      pop\n      swap2\n      pop\n        /* \"contracts/Stake-2.0.sol\":8216:8374  SafeERC20.safeTransfer(... */\n      tag_161\n        /* \"contracts/Stake-2.0.sol\":8264:8277  token_address */\n      0x0b\n      0x00\n      swap1\n      sload\n      swap1\n      0x0100\n      exp\n      swap1\n      div\n      0xffffffffffffffffffffffffffffffffffffffff\n      and\n        /* \"contracts/Stake-2.0.sol\":8297:8307  msg.sender */\n      caller\n        /* \"contracts/Stake-2.0.sol\":8344:8358  reward_reduced */\n      dup4\n        /* \"contracts/Stake-2.0.sol\":8327:8341  amount_reduced */\n      dup6\n        /* \"contracts/Stake-2.0.sol\":8327:8358  amount_reduced + reward_reduced */\n      tag_162\n      swap2\n      swap1\n      tag_102\n      jump\t// in\n    tag_162:\n        /* \"contracts/Stake-2.0.sol\":8216:8238  SafeERC20.safeTransfer */\n      tag_114\n        /* \"contracts/Stake-2.0.sol\":8216:8374  SafeERC20.safeTransfer(... */\n      jump\t// in\n    tag_161:\n        /* \"contracts/Stake-2.0.sol\":8029:8386  {... */\n      pop\n      pop\n        /* \"contracts/Stake-2.0.sol\":7983:8572  if (user_stake.releaseTime > block.timestamp) {... */\n      jump(tag_163)\n    tag_158:\n        /* \"contracts/Stake-2.0.sol\":8407:8560  SafeERC20.safeTransfer(... */\n      tag_164\n        /* \"contracts/Stake-2.0.sol\":8455:8468  token_address */\n      0x0b\n      0x00\n      swap1\n      sload\n      swap1\n      0x0100\n      exp\n      swap1\n      div\n      0xffffffffffffffffffffffffffffffffffffffff\n      and\n        /* \"contracts/Stake-2.0.sol\":8488:8498  msg.sender */\n      caller\n        /* \"contracts/Stake-2.0.sol\":8538:8544  reward */\n      dup4\n        /* \"contracts/Stake-2.0.sol\":8518:8528  user_stake */\n      dup6\n        /* \"contracts/Stake-2.0.sol\":8518:8535  user_stake.amount */\n      0x00\n      add\n      mload\n        /* \"contracts/Stake-2.0.sol\":8518:8544  user_stake.amount + reward */\n      tag_165\n      swap2\n      swap1\n      tag_102\n      jump\t// in\n    tag_165:\n        /* \"contracts/Stake-2.0.sol\":8407:8429  SafeERC20.safeTransfer */\n      tag_114\n        /* \"contracts/Stake-2.0.sol\":8407:8560  SafeERC20.safeTransfer(... */\n      jump\t// in\n    tag_164:\n        /* \"contracts/Stake-2.0.sol\":7983:8572  if (user_stake.releaseTime > block.timestamp) {... */\n    tag_163:\n        /* \"contracts/Stake-2.0.sol\":7614:8579  {... */\n      pop\n      pop\n        /* \"@openzeppelin/contracts/security/ReentrancyGuard.sol\":1701:1702  1 */\n      0x01\n        /* \"@openzeppelin/contracts/security/ReentrancyGuard.sol\":2628:2635  _status */\n      0x00\n        /* \"@openzeppelin/contracts/security/ReentrancyGuard.sol\":2628:2650  _status = _NOT_ENTERED */\n      dup2\n      swap1\n      sstore\n      pop\n        /* \"contracts/Stake-2.0.sol\":7567:8579  function withdrawStake() external nonReentrant {... */\n      jump\t// out\n        /* \"contracts/Stake-2.0.sol\":10102:10200  function _blockTimestamp() public view returns (uint256) {... */\n    tag_75:\n        /* \"contracts/Stake-2.0.sol\":10150:10157  uint256 */\n      0x00\n        /* \"contracts/Stake-2.0.sol\":10177:10192  block.timestamp */\n      timestamp\n        /* \"contracts/Stake-2.0.sol\":10170:10192  return block.timestamp */\n      swap1\n      pop\n        /* \"contracts/Stake-2.0.sol\":10102:10200  function _blockTimestamp() public view returns (uint256) {... */\n      swap1\n      jump\t// out\n        /* \"contracts/Stake-2.0.sol\":1394:1427  uint256 public stakingPenaltyRate */\n    tag_78:\n      sload(0x03)\n      dup2\n      jump\t// out\n        /* \"contracts/Stake-2.0.sol\":9754:9846  function startAirdrop() external onlyOwner {... */\n    tag_81:\n        /* \"@openzeppelin/contracts/access/Ownable.sol\":1259:1271  _msgSender() */\n      tag_168\n        /* \"@openzeppelin/contracts/access/Ownable.sol\":1259:1269  _msgSender */\n      tag_117\n        /* \"@openzeppelin/contracts/access/Ownable.sol\":1259:1271  _msgSender() */\n      jump\t// in\n    tag_168:\n        /* \"@openzeppelin/contracts/access/Ownable.sol\":1248:1271  owner() == _msgSender() */\n      0xffffffffffffffffffffffffffffffffffffffff\n      and\n        /* \"@openzeppelin/contracts/access/Ownable.sol\":1248:1255  owner() */\n      tag_169\n        /* \"@openzeppelin/contracts/access/Ownable.sol\":1248:1253  owner */\n      tag_53\n        /* \"@openzeppelin/contracts/access/Ownable.sol\":1248:1255  owner() */\n      jump\t// in\n    tag_169:\n        /* \"@openzeppelin/contracts/access/Ownable.sol\":1248:1271  owner() == _msgSender() */\n      0xffffffffffffffffffffffffffffffffffffffff\n      and\n      eq\n        /* \"@openzeppelin/contracts/access/Ownable.sol\":1240:1308  require(owner() == _msgSender(), \"Ownable: caller is not the owner\") */\n      tag_170\n      jumpi\n      mload(0x40)\n      0x08c379a000000000000000000000000000000000000000000000000000000000\n      dup2\n      mstore\n      0x04\n      add\n      tag_171\n      swap1\n      tag_121\n      jump\t// in\n    tag_171:\n      mload(0x40)\n      dup1\n      swap2\n      sub\n      swap1\n      revert\n    tag_170:\n        /* \"contracts/Stake-2.0.sol\":9823:9838  block.timestamp */\n      timestamp\n        /* \"contracts/Stake-2.0.sol\":9808:9820  airdropSince */\n      0x05\n        /* \"contracts/Stake-2.0.sol\":9808:9838  airdropSince = block.timestamp */\n      dup2\n      swap1\n      sstore\n      pop\n        /* \"contracts/Stake-2.0.sol\":9754:9846  function startAirdrop() external onlyOwner {... */\n      jump\t// out\n        /* \"contracts/Stake-2.0.sol\":9854:10094  function changeAirdropPercentage(uint256 amount) external onlyOwner {... */\n    tag_84:\n        /* \"@openzeppelin/contracts/access/Ownable.sol\":1259:1271  _msgSender() */\n      tag_174\n        /* \"@openzeppelin/contracts/access/Ownable.sol\":1259:1269  _msgSender */\n      tag_117\n        /* \"@openzeppelin/contracts/access/Ownable.sol\":1259:1271  _msgSender() */\n      jump\t// in\n    tag_174:\n        /* \"@openzeppelin/contracts/access/Ownable.sol\":1248:1271  owner() == _msgSender() */\n      0xffffffffffffffffffffffffffffffffffffffff\n      and\n        /* \"@openzeppelin/contracts/access/Ownable.sol\":1248:1255  owner() */\n      tag_175\n        /* \"@openzeppelin/contracts/access/Ownable.sol\":1248:1253  owner */\n      tag_53\n        /* \"@openzeppelin/contracts/access/Ownable.sol\":1248:1255  owner() */\n      jump\t// in\n    tag_175:\n        /* \"@openzeppelin/contracts/access/Ownable.sol\":1248:1271  owner() == _msgSender() */\n      0xffffffffffffffffffffffffffffffffffffffff\n      and\n      eq\n        /* \"@openzeppelin/contracts/access/Ownable.sol\":1240:1308  require(owner() == _msgSender(), \"Ownable: caller is not the owner\") */\n      tag_176\n      jumpi\n      mload(0x40)\n      0x08c379a000000000000000000000000000000000000000000000000000000000\n      dup2\n      mstore\n      0x04\n      add\n      tag_177\n      swap1\n      tag_121\n      jump\t// in\n    tag_177:\n      mload(0x40)\n      dup1\n      swap2\n      sub\n      swap1\n      revert\n    tag_176:\n        /* \"contracts/Stake-2.0.sol\":9946:9949  200 */\n      0xc8\n        /* \"contracts/Stake-2.0.sol\":9937:9943  amount */\n      dup2\n        /* \"contracts/Stake-2.0.sol\":9937:9949  amount > 200 */\n      gt\n        /* \"contracts/Stake-2.0.sol\":9933:10018  if (amount > 200) {... */\n      iszero\n      tag_179\n      jumpi\n        /* \"contracts/Stake-2.0.sol\":9973:10006  Staking__airdropExceed20Percent() */\n      mload(0x40)\n      0xa552cf1000000000000000000000000000000000000000000000000000000000\n      dup2\n      mstore\n      0x04\n      add\n      mload(0x40)\n      dup1\n      swap2\n      sub\n      swap1\n      revert\n        /* \"contracts/Stake-2.0.sol\":9933:10018  if (amount > 200) {... */\n    tag_179:\n        /* \"contracts/Stake-2.0.sol\":10042:10048  amount */\n      dup1\n        /* \"contracts/Stake-2.0.sol\":10028:10039  airdropRate */\n      0x04\n        /* \"contracts/Stake-2.0.sol\":10028:10048  airdropRate = amount */\n      dup2\n      swap1\n      sstore\n      pop\n        /* \"contracts/Stake-2.0.sol\":10064:10086  AirdropChanged(amount) */\n      0xcc672f1026b958c0cfbfdd89ebe8ddcbc127f16ec24da6c2c7a4de26a8b1857e\n        /* \"contracts/Stake-2.0.sol\":10079:10085  amount */\n      dup2\n        /* \"contracts/Stake-2.0.sol\":10064:10086  AirdropChanged(amount) */\n      mload(0x40)\n      tag_180\n      swap2\n      swap1\n      tag_34\n      jump\t// in\n    tag_180:\n      mload(0x40)\n      dup1\n      swap2\n      sub\n      swap1\n      log1\n        /* \"contracts/Stake-2.0.sol\":9854:10094  function changeAirdropPercentage(uint256 amount) external onlyOwner {... */\n      pop\n      jump\t// out\n        /* \"@openzeppelin/contracts/access/Ownable.sol\":1918:2116  function transferOwnership(address newOwner) public virtual onlyOwner {... */\n    tag_87:\n        /* \"@openzeppelin/contracts/access/Ownable.sol\":1259:1271  _msgSender() */\n      tag_182\n        /* \"@openzeppelin/contracts/access/Ownable.sol\":1259:1269  _msgSender */\n      tag_117\n        /* \"@openzeppelin/contracts/access/Ownable.sol\":1259:1271  _msgSender() */\n      jump\t// in\n    tag_182:\n        /* \"@openzeppelin/contracts/access/Ownable.sol\":1248:1271  owner() == _msgSender() */\n      0xffffffffffffffffffffffffffffffffffffffff\n      and\n        /* \"@openzeppelin/contracts/access/Ownable.sol\":1248:1255  owner() */\n      tag_183\n        /* \"@openzeppelin/contracts/access/Ownable.sol\":1248:1253  owner */\n      tag_53\n        /* \"@openzeppelin/contracts/access/Ownable.sol\":1248:1255  owner() */\n      jump\t// in\n    tag_183:\n        /* \"@openzeppelin/contracts/access/Ownable.sol\":1248:1271  owner() == _msgSender() */\n      0xffffffffffffffffffffffffffffffffffffffff\n      and\n      eq\n        /* \"@openzeppelin/contracts/access/Ownable.sol\":1240:1308  require(owner() == _msgSender(), \"Ownable: caller is not the owner\") */\n      tag_184\n      jumpi\n      mload(0x40)\n      0x08c379a000000000000000000000000000000000000000000000000000000000\n      dup2\n      mstore\n      0x04\n      add\n      tag_185\n      swap1\n      tag_121\n      jump\t// in\n    tag_185:\n      mload(0x40)\n      dup1\n      swap2\n      sub\n      swap1\n      revert\n    tag_184:\n        /* \"@openzeppelin/contracts/access/Ownable.sol\":2026:2027  0 */\n      0x00\n        /* \"@openzeppelin/contracts/access/Ownable.sol\":2006:2028  newOwner != address(0) */\n      0xffffffffffffffffffffffffffffffffffffffff\n      and\n        /* \"@openzeppelin/contracts/access/Ownable.sol\":2006:2014  newOwner */\n      dup2\n        /* \"@openzeppelin/contracts/access/Ownable.sol\":2006:2028  newOwner != address(0) */\n      0xffffffffffffffffffffffffffffffffffffffff\n      and\n      eq\n      iszero\n        /* \"@openzeppelin/contracts/access/Ownable.sol\":1998:2071  require(newOwner != address(0), \"Ownable: new owner is the zero address\") */\n      tag_187\n      jumpi\n      mload(0x40)\n      0x08c379a000000000000000000000000000000000000000000000000000000000\n      dup2\n      mstore\n      0x04\n      add\n      tag_188\n      swap1\n      tag_189\n      jump\t// in\n    tag_188:\n      mload(0x40)\n      dup1\n      swap2\n      sub\n      swap1\n      revert\n    tag_187:\n        /* \"@openzeppelin/contracts/access/Ownable.sol\":2081:2109  _transferOwnership(newOwner) */\n      tag_190\n        /* \"@openzeppelin/contracts/access/Ownable.sol\":2100:2108  newOwner */\n      dup2\n        /* \"@openzeppelin/contracts/access/Ownable.sol\":2081:2099  _transferOwnership */\n      tag_124\n        /* \"@openzeppelin/contracts/access/Ownable.sol\":2081:2109  _transferOwnership(newOwner) */\n      jump\t// in\n    tag_190:\n        /* \"@openzeppelin/contracts/access/Ownable.sol\":1918:2116  function transferOwnership(address newOwner) public virtual onlyOwner {... */\n      pop\n      jump\t// out\n        /* \"contracts/Stake-2.0.sol\":6381:6831  function _calculateStakeReward(Stake memory user_stake)... */\n    tag_93:\n        /* \"contracts/Stake-2.0.sol\":6487:6494  uint256 */\n      0x00\n        /* \"contracts/Stake-2.0.sol\":6537:6538  0 */\n      dup1\n        /* \"contracts/Stake-2.0.sol\":6516:6526  user_stake */\n      dup3\n        /* \"contracts/Stake-2.0.sol\":6516:6533  user_stake.amount */\n      0x00\n      add\n      mload\n        /* \"contracts/Stake-2.0.sol\":6516:6538  user_stake.amount == 0 */\n      eq\n        /* \"contracts/Stake-2.0.sol\":6512:6575  if (user_stake.amount == 0) {... */\n      iszero\n      tag_192\n      jumpi\n        /* \"contracts/Stake-2.0.sol\":6562:6563  0 */\n      0x00\n        /* \"contracts/Stake-2.0.sol\":6555:6563  return 0 */\n      swap1\n      pop\n      jump(tag_191)\n        /* \"contracts/Stake-2.0.sol\":6512:6575  if (user_stake.amount == 0) {... */\n    tag_192:\n        /* \"contracts/Stake-2.0.sol\":6819:6823  1e26 */\n      0x52b7d2dcc80cd2e4000000\n        /* \"contracts/Stake-2.0.sol\":6772:6815  _calculateStakingDuration(user_stake.since) */\n      tag_193\n        /* \"contracts/Stake-2.0.sol\":6798:6808  user_stake */\n      dup4\n        /* \"contracts/Stake-2.0.sol\":6798:6814  user_stake.since */\n      0x20\n      add\n      mload\n        /* \"contracts/Stake-2.0.sol\":6772:6797  _calculateStakingDuration */\n      tag_194\n        /* \"contracts/Stake-2.0.sol\":6772:6815  _calculateStakingDuration(user_stake.since) */\n      jump\t// in\n    tag_193:\n        /* \"contracts/Stake-2.0.sol\":6732:6742  user_stake */\n      dup4\n        /* \"contracts/Stake-2.0.sol\":6732:6752  user_stake.rewardAPY */\n      0x40\n      add\n      mload\n        /* \"contracts/Stake-2.0.sol\":6695:6705  user_stake */\n      dup5\n        /* \"contracts/Stake-2.0.sol\":6695:6712  user_stake.amount */\n      0x00\n      add\n      mload\n        /* \"contracts/Stake-2.0.sol\":6695:6752  user_stake.amount *... */\n      tag_195\n      swap2\n      swap1\n      tag_96\n      jump\t// in\n    tag_195:\n        /* \"contracts/Stake-2.0.sol\":6695:6815  user_stake.amount *... */\n      tag_196\n      swap2\n      swap1\n      tag_96\n      jump\t// in\n    tag_196:\n        /* \"contracts/Stake-2.0.sol\":6694:6823  (user_stake.amount *... */\n      tag_197\n      swap2\n      swap1\n      tag_98\n      jump\t// in\n    tag_197:\n        /* \"contracts/Stake-2.0.sol\":6674:6823  return... */\n      swap1\n      pop\n        /* \"contracts/Stake-2.0.sol\":6381:6831  function _calculateStakeReward(Stake memory user_stake)... */\n    tag_191:\n      swap2\n      swap1\n      pop\n      jump\t// out\n        /* \"contracts/Stake-2.0.sol\":10352:10537  function _calculateAirdrop(uint256 stakeAmount)... */\n    tag_106:\n        /* \"contracts/Stake-2.0.sol\":10450:10457  uint256 */\n      0x00\n        /* \"contracts/Stake-2.0.sol\":10521:10529  52 weeks */\n      0x01dfe200\n        /* \"contracts/Stake-2.0.sol\":10513:10517  1000 */\n      0x03e8\n        /* \"contracts/Stake-2.0.sol\":10498:10509  airdropRate */\n      sload(0x04)\n        /* \"contracts/Stake-2.0.sol\":10484:10495  stakeAmount */\n      dup5\n        /* \"contracts/Stake-2.0.sol\":10484:10509  stakeAmount * airdropRate */\n      tag_199\n      swap2\n      swap1\n      tag_96\n      jump\t// in\n    tag_199:\n        /* \"contracts/Stake-2.0.sol\":10483:10517  (stakeAmount * airdropRate) / 1000 */\n      tag_200\n      swap2\n      swap1\n      tag_98\n      jump\t// in\n    tag_200:\n        /* \"contracts/Stake-2.0.sol\":10482:10529  ((stakeAmount * airdropRate) / 1000) / 52 weeks */\n      tag_201\n      swap2\n      swap1\n      tag_98\n      jump\t// in\n    tag_201:\n        /* \"contracts/Stake-2.0.sol\":10475:10529  return ((stakeAmount * airdropRate) / 1000) / 52 weeks */\n      swap1\n      pop\n        /* \"contracts/Stake-2.0.sol\":10352:10537  function _calculateAirdrop(uint256 stakeAmount)... */\n      swap2\n      swap1\n      pop\n      jump\t// out\n        /* \"@openzeppelin/contracts/token/ERC20/utils/SafeERC20.sol\":701:906  function safeTransfer(... */\n    tag_114:\n        /* \"@openzeppelin/contracts/token/ERC20/utils/SafeERC20.sol\":813:899  _callOptionalReturn(token, abi.encodeWithSelector(token.transfer.selector, to, value)) */\n      tag_203\n        /* \"@openzeppelin/contracts/token/ERC20/utils/SafeERC20.sol\":833:838  token */\n      dup4\n        /* \"@openzeppelin/contracts/token/ERC20/utils/SafeERC20.sol\":863:886  token.transfer.selector */\n      shl(0xe0, 0xa9059cbb)\n        /* \"@openzeppelin/contracts/token/ERC20/utils/SafeERC20.sol\":888:890  to */\n      dup5\n        /* \"@openzeppelin/contracts/token/ERC20/utils/SafeERC20.sol\":892:897  value */\n      dup5\n        /* \"@openzeppelin/contracts/token/ERC20/utils/SafeERC20.sol\":840:898  abi.encodeWithSelector(token.transfer.selector, to, value) */\n      add(0x24, mload(0x40))\n      tag_204\n      swap3\n      swap2\n      swap1\n      tag_205\n      jump\t// in\n    tag_204:\n      mload(0x40)\n      0x20\n      dup2\n      dup4\n      sub\n      sub\n      dup2\n      mstore\n      swap1\n      0x40\n      mstore\n      swap1\n      not(0xffffffffffffffffffffffffffffffffffffffffffffffffffffffff)\n      and\n      0x20\n      dup3\n      add\n      dup1\n      mload\n      0xffffffffffffffffffffffffffffffffffffffffffffffffffffffff\n      dup4\n      dup2\n      dup4\n      and\n      or\n      dup4\n      mstore\n      pop\n      pop\n      pop\n      pop\n        /* \"@openzeppelin/contracts/token/ERC20/utils/SafeERC20.sol\":813:832  _callOptionalReturn */\n      tag_206\n        /* \"@openzeppelin/contracts/token/ERC20/utils/SafeERC20.sol\":813:899  _callOptionalReturn(token, abi.encodeWithSelector(token.transfer.selector, to, value)) */\n      jump\t// in\n    tag_203:\n        /* \"@openzeppelin/contracts/token/ERC20/utils/SafeERC20.sol\":701:906  function safeTransfer(... */\n      pop\n      pop\n      pop\n      jump\t// out\n        /* \"@openzeppelin/contracts/utils/Context.sol\":640:736  function _msgSender() internal view virtual returns (address) {... */\n    tag_117:\n        /* \"@openzeppelin/contracts/utils/Context.sol\":693:700  address */\n      0x00\n        /* \"@openzeppelin/contracts/utils/Context.sol\":719:729  msg.sender */\n      caller\n        /* \"@openzeppelin/contracts/utils/Context.sol\":712:729  return msg.sender */\n      swap1\n      pop\n        /* \"@openzeppelin/contracts/utils/Context.sol\":640:736  function _msgSender() internal view virtual returns (address) {... */\n      swap1\n      jump\t// out\n        /* \"@openzeppelin/contracts/access/Ownable.sol\":2270:2457  function _transferOwnership(address newOwner) internal virtual {... */\n    tag_124:\n        /* \"@openzeppelin/contracts/access/Ownable.sol\":2343:2359  address oldOwner */\n      0x00\n        /* \"@openzeppelin/contracts/access/Ownable.sol\":2362:2368  _owner */\n      0x01\n      0x00\n      swap1\n      sload\n      swap1\n      0x0100\n      exp\n      swap1\n      div\n      0xffffffffffffffffffffffffffffffffffffffff\n      and\n        /* \"@openzeppelin/contracts/access/Ownable.sol\":2343:2368  address oldOwner = _owner */\n      swap1\n      pop\n        /* \"@openzeppelin/contracts/access/Ownable.sol\":2387:2395  newOwner */\n      dup2\n        /* \"@openzeppelin/contracts/access/Ownable.sol\":2378:2384  _owner */\n      0x01\n      0x00\n        /* \"@openzeppelin/contracts/access/Ownable.sol\":2378:2395  _owner = newOwner */\n      0x0100\n      exp\n      dup2\n      sload\n      dup2\n      0xffffffffffffffffffffffffffffffffffffffff\n      mul\n      not\n      and\n      swap1\n      dup4\n      0xffffffffffffffffffffffffffffffffffffffff\n      and\n      mul\n      or\n      swap1\n      sstore\n      pop\n        /* \"@openzeppelin/contracts/access/Ownable.sol\":2441:2449  newOwner */\n      dup2\n        /* \"@openzeppelin/contracts/access/Ownable.sol\":2410:2450  OwnershipTransferred(oldOwner, newOwner) */\n      0xffffffffffffffffffffffffffffffffffffffff\n      and\n        /* \"@openzeppelin/contracts/access/Ownable.sol\":2431:2439  oldOwner */\n      dup2\n        /* \"@openzeppelin/contracts/access/Ownable.sol\":2410:2450  OwnershipTransferred(oldOwner, newOwner) */\n      0xffffffffffffffffffffffffffffffffffffffff\n      and\n      0x8be0079c531659141344cd1fd0a4f28419497f9722a3daafe3b4186f6b6457e0\n      mload(0x40)\n      mload(0x40)\n      dup1\n      swap2\n      sub\n      swap1\n      log3\n        /* \"@openzeppelin/contracts/access/Ownable.sol\":2333:2457  {... */\n      pop\n        /* \"@openzeppelin/contracts/access/Ownable.sol\":2270:2457  function _transferOwnership(address newOwner) internal virtual {... */\n      pop\n      jump\t// out\n        /* \"@openzeppelin/contracts/token/ERC20/utils/SafeERC20.sol\":912:1153  function safeTransferFrom(... */\n    tag_135:\n        /* \"@openzeppelin/contracts/token/ERC20/utils/SafeERC20.sol\":1050:1146  _callOptionalReturn(token, abi.encodeWithSelector(token.transferFrom.selector, from, to, value)) */\n      tag_210\n        /* \"@openzeppelin/contracts/token/ERC20/utils/SafeERC20.sol\":1070:1075  token */\n      dup5\n        /* \"@openzeppelin/contracts/token/ERC20/utils/SafeERC20.sol\":1100:1127  token.transferFrom.selector */\n      shl(0xe0, 0x23b872dd)\n        /* \"@openzeppelin/contracts/token/ERC20/utils/SafeERC20.sol\":1129:1133  from */\n      dup6\n        /* \"@openzeppelin/contracts/token/ERC20/utils/SafeERC20.sol\":1135:1137  to */\n      dup6\n        /* \"@openzeppelin/contracts/token/ERC20/utils/SafeERC20.sol\":1139:1144  value */\n      dup6\n        /* \"@openzeppelin/contracts/token/ERC20/utils/SafeERC20.sol\":1077:1145  abi.encodeWithSelector(token.transferFrom.selector, from, to, value) */\n      add(0x24, mload(0x40))\n      tag_211\n      swap4\n      swap3\n      swap2\n      swap1\n      tag_212\n      jump\t// in\n    tag_211:\n      mload(0x40)\n      0x20\n      dup2\n      dup4\n      sub\n      sub\n      dup2\n      mstore\n      swap1\n      0x40\n      mstore\n      swap1\n      not(0xffffffffffffffffffffffffffffffffffffffffffffffffffffffff)\n      and\n      0x20\n      dup3\n      add\n      dup1\n      mload\n      0xffffffffffffffffffffffffffffffffffffffffffffffffffffffff\n      dup4\n      dup2\n      dup4\n      and\n      or\n      dup4\n      mstore\n      pop\n      pop\n      pop\n      pop\n        /* \"@openzeppelin/contracts/token/ERC20/utils/SafeERC20.sol\":1050:1069  _callOptionalReturn */\n      tag_206\n        /* \"@openzeppelin/contracts/token/ERC20/utils/SafeERC20.sol\":1050:1146  _callOptionalReturn(token, abi.encodeWithSelector(token.transferFrom.selector, from, to, value)) */\n      jump\t// in\n    tag_210:\n        /* \"@openzeppelin/contracts/token/ERC20/utils/SafeERC20.sol\":912:1153  function safeTransferFrom(... */\n      pop\n      pop\n      pop\n      pop\n      jump\t// out\n        /* \"contracts/Stake-2.0.sol\":6839:7210  function _calculateStakingWithPenalty(uint256 amount, uint256 reward)... */\n    tag_160:\n        /* \"contracts/Stake-2.0.sol\":6959:6966  uint256 */\n      0x00\n        /* \"contracts/Stake-2.0.sol\":6968:6975  uint256 */\n      dup1\n        /* \"contracts/Stake-2.0.sol\":7007:7008  0 */\n      0x00\n        /* \"contracts/Stake-2.0.sol\":6997:7003  amount */\n      dup5\n        /* \"contracts/Stake-2.0.sol\":6997:7008  amount == 0 */\n      eq\n        /* \"contracts/Stake-2.0.sol\":6993:7050  if (amount == 0) {... */\n      iszero\n      tag_214\n      jumpi\n        /* \"contracts/Stake-2.0.sol\":7033:7034  0 */\n      0x00\n        /* \"contracts/Stake-2.0.sol\":7036:7037  0 */\n      dup1\n        /* \"contracts/Stake-2.0.sol\":7025:7038  return (0, 0) */\n      swap2\n      pop\n      swap2\n      pop\n      jump(tag_213)\n        /* \"contracts/Stake-2.0.sol\":6993:7050  if (amount == 0) {... */\n    tag_214:\n        /* \"contracts/Stake-2.0.sol\":7124:7128  1000 */\n      0x03e8\n        /* \"contracts/Stake-2.0.sol\":7102:7120  stakingPenaltyRate */\n      sload(0x03)\n        /* \"contracts/Stake-2.0.sol\":7093:7099  amount */\n      dup6\n        /* \"contracts/Stake-2.0.sol\":7093:7120  amount * stakingPenaltyRate */\n      tag_215\n      swap2\n      swap1\n      tag_96\n      jump\t// in\n    tag_215:\n        /* \"contracts/Stake-2.0.sol\":7092:7128  (amount * stakingPenaltyRate) / 1000 */\n      tag_216\n      swap2\n      swap1\n      tag_98\n      jump\t// in\n    tag_216:\n        /* \"contracts/Stake-2.0.sol\":7082:7088  amount */\n      dup5\n        /* \"contracts/Stake-2.0.sol\":7082:7129  amount - ((amount * stakingPenaltyRate) / 1000) */\n      tag_217\n      swap2\n      swap1\n      tag_150\n      jump\t// in\n    tag_217:\n        /* \"contracts/Stake-2.0.sol\":7186:7190  1000 */\n      0x03e8\n        /* \"contracts/Stake-2.0.sol\":7164:7182  stakingPenaltyRate */\n      sload(0x03)\n        /* \"contracts/Stake-2.0.sol\":7155:7161  reward */\n      dup6\n        /* \"contracts/Stake-2.0.sol\":7155:7182  reward * stakingPenaltyRate */\n      tag_218\n      swap2\n      swap1\n      tag_96\n      jump\t// in\n    tag_218:\n        /* \"contracts/Stake-2.0.sol\":7154:7190  (reward * stakingPenaltyRate) / 1000 */\n      tag_219\n      swap2\n      swap1\n      tag_98\n      jump\t// in\n    tag_219:\n        /* \"contracts/Stake-2.0.sol\":7144:7150  reward */\n      dup5\n        /* \"contracts/Stake-2.0.sol\":7144:7191  reward - ((reward * stakingPenaltyRate) / 1000) */\n      tag_220\n      swap2\n      swap1\n      tag_150\n      jump\t// in\n    tag_220:\n        /* \"contracts/Stake-2.0.sol\":7060:7202  return (... */\n      swap2\n      pop\n      swap2\n      pop\n        /* \"contracts/Stake-2.0.sol\":6839:7210  function _calculateStakingWithPenalty(uint256 amount, uint256 reward)... */\n    tag_213:\n      swap3\n      pop\n      swap3\n      swap1\n      pop\n      jump\t// out\n        /* \"contracts/Stake-2.0.sol\":6135:6373  function _calculateStakingDuration(uint256 since)... */\n    tag_194:\n        /* \"contracts/Stake-2.0.sol\":6235:6242  uint256 */\n      0x00\n        /* \"contracts/Stake-2.0.sol\":6357:6365  365 days */\n      0x01e13380\n        /* \"contracts/Stake-2.0.sol\":6349:6353  1e24 */\n      0xd3c21bcecceda1000000\n        /* \"contracts/Stake-2.0.sol\":6340:6345  since */\n      dup4\n        /* \"contracts/Stake-2.0.sol\":6322:6337  block.timestamp */\n      timestamp\n        /* \"contracts/Stake-2.0.sol\":6322:6345  block.timestamp - since */\n      tag_222\n      swap2\n      swap1\n      tag_150\n      jump\t// in\n    tag_222:\n        /* \"contracts/Stake-2.0.sol\":6321:6353  (block.timestamp - since) * 1e24 */\n      tag_223\n      swap2\n      swap1\n      tag_96\n      jump\t// in\n    tag_223:\n        /* \"contracts/Stake-2.0.sol\":6320:6365  ((block.timestamp - since) * 1e24) / 365 days */\n      tag_224\n      swap2\n      swap1\n      tag_98\n      jump\t// in\n    tag_224:\n        /* \"contracts/Stake-2.0.sol\":6313:6365  return ((block.timestamp - since) * 1e24) / 365 days */\n      swap1\n      pop\n        /* \"contracts/Stake-2.0.sol\":6135:6373  function _calculateStakingDuration(uint256 since)... */\n      swap2\n      swap1\n      pop\n      jump\t// out\n        /* \"@openzeppelin/contracts/token/ERC20/utils/SafeERC20.sol\":3207:3913  function _callOptionalReturn(IERC20 token, bytes memory data) private {... */\n    tag_206:\n        /* \"@openzeppelin/contracts/token/ERC20/utils/SafeERC20.sol\":3626:3649  bytes memory returndata */\n      0x00\n        /* \"@openzeppelin/contracts/token/ERC20/utils/SafeERC20.sol\":3652:3721  address(token).functionCall(data, \"SafeERC20: low-level call failed\") */\n      tag_226\n        /* \"@openzeppelin/contracts/token/ERC20/utils/SafeERC20.sol\":3680:3684  data */\n      dup3\n        /* \"@openzeppelin/contracts/token/ERC20/utils/SafeERC20.sol\":3652:3721  address(token).functionCall(data, \"SafeERC20: low-level call failed\") */\n      mload(0x40)\n      dup1\n      0x40\n      add\n      0x40\n      mstore\n      dup1\n      0x20\n      dup2\n      mstore\n      0x20\n      add\n      0x5361666545524332303a206c6f772d6c6576656c2063616c6c206661696c6564\n      dup2\n      mstore\n      pop\n        /* \"@openzeppelin/contracts/token/ERC20/utils/SafeERC20.sol\":3660:3665  token */\n      dup6\n        /* \"@openzeppelin/contracts/token/ERC20/utils/SafeERC20.sol\":3652:3679  address(token).functionCall */\n      0xffffffffffffffffffffffffffffffffffffffff\n      and\n      tag_227\n      swap1\n        /* \"@openzeppelin/contracts/token/ERC20/utils/SafeERC20.sol\":3652:3721  address(token).functionCall(data, \"SafeERC20: low-level call failed\") */\n      swap3\n      swap2\n      swap1\n      0xffffffff\n      and\n      jump\t// in\n    tag_226:\n        /* \"@openzeppelin/contracts/token/ERC20/utils/SafeERC20.sol\":3626:3721  bytes memory returndata = address(token).functionCall(data, \"SafeERC20: low-level call failed\") */\n      swap1\n      pop\n        /* \"@openzeppelin/contracts/token/ERC20/utils/SafeERC20.sol\":3755:3756  0 */\n      0x00\n        /* \"@openzeppelin/contracts/token/ERC20/utils/SafeERC20.sol\":3735:3745  returndata */\n      dup2\n        /* \"@openzeppelin/contracts/token/ERC20/utils/SafeERC20.sol\":3735:3752  returndata.length */\n      mload\n        /* \"@openzeppelin/contracts/token/ERC20/utils/SafeERC20.sol\":3735:3756  returndata.length > 0 */\n      gt\n        /* \"@openzeppelin/contracts/token/ERC20/utils/SafeERC20.sol\":3731:3907  if (returndata.length > 0) {... */\n      iszero\n      tag_228\n      jumpi\n        /* \"@openzeppelin/contracts/token/ERC20/utils/SafeERC20.sol\":3830:3840  returndata */\n      dup1\n        /* \"@openzeppelin/contracts/token/ERC20/utils/SafeERC20.sol\":3819:3849  abi.decode(returndata, (bool)) */\n      dup1\n      0x20\n      add\n      swap1\n      mload\n      dup2\n      add\n      swap1\n      tag_229\n      swap2\n      swap1\n      tag_230\n      jump\t// in\n    tag_229:\n        /* \"@openzeppelin/contracts/token/ERC20/utils/SafeERC20.sol\":3811:3896  require(abi.decode(returndata, (bool)), \"SafeERC20: ERC20 operation did not succeed\") */\n      tag_231\n      jumpi\n      mload(0x40)\n      0x08c379a000000000000000000000000000000000000000000000000000000000\n      dup2\n      mstore\n      0x04\n      add\n      tag_232\n      swap1\n      tag_233\n      jump\t// in\n    tag_232:\n      mload(0x40)\n      dup1\n      swap2\n      sub\n      swap1\n      revert\n    tag_231:\n        /* \"@openzeppelin/contracts/token/ERC20/utils/SafeERC20.sol\":3731:3907  if (returndata.length > 0) {... */\n    tag_228:\n        /* \"@openzeppelin/contracts/token/ERC20/utils/SafeERC20.sol\":3277:3913  {... */\n      pop\n        /* \"@openzeppelin/contracts/token/ERC20/utils/SafeERC20.sol\":3207:3913  function _callOptionalReturn(IERC20 token, bytes memory data) private {... */\n      pop\n      pop\n      jump\t// out\n        /* \"@openzeppelin/contracts/utils/Address.sol\":3861:4084  function functionCall(... */\n    tag_227:\n        /* \"@openzeppelin/contracts/utils/Address.sol\":3994:4006  bytes memory */\n      0x60\n        /* \"@openzeppelin/contracts/utils/Address.sol\":4025:4077  functionCallWithValue(target, data, 0, errorMessage) */\n      tag_235\n        /* \"@openzeppelin/contracts/utils/Address.sol\":4047:4053  target */\n      dup5\n        /* \"@openzeppelin/contracts/utils/Address.sol\":4055:4059  data */\n      dup5\n        /* \"@openzeppelin/contracts/utils/Address.sol\":4061:4062  0 */\n      0x00\n        /* \"@openzeppelin/contracts/utils/Address.sol\":4064:4076  errorMessage */\n      dup6\n        /* \"@openzeppelin/contracts/utils/Address.sol\":4025:4046  functionCallWithValue */\n      tag_236\n        /* \"@openzeppelin/contracts/utils/Address.sol\":4025:4077  functionCallWithValue(target, data, 0, errorMessage) */\n      jump\t// in\n    tag_235:\n        /* \"@openzeppelin/contracts/utils/Address.sol\":4018:4077  return functionCallWithValue(target, data, 0, errorMessage) */\n      swap1\n      pop\n        /* \"@openzeppelin/contracts/utils/Address.sol\":3861:4084  function functionCall(... */\n      swap4\n      swap3\n      pop\n      pop\n      pop\n      jump\t// out\n        /* \"@openzeppelin/contracts/utils/Address.sol\":4948:5447  function functionCallWithValue(... */\n    tag_236:\n        /* \"@openzeppelin/contracts/utils/Address.sol\":5113:5125  bytes memory */\n      0x60\n        /* \"@openzeppelin/contracts/utils/Address.sol\":5170:5175  value */\n      dup3\n        /* \"@openzeppelin/contracts/utils/Address.sol\":5145:5166  address(this).balance */\n      selfbalance\n        /* \"@openzeppelin/contracts/utils/Address.sol\":5145:5175  address(this).balance >= value */\n      lt\n      iszero\n        /* \"@openzeppelin/contracts/utils/Address.sol\":5137:5218  require(address(this).balance >= value, \"Address: insufficient balance for call\") */\n      tag_238\n      jumpi\n      mload(0x40)\n      0x08c379a000000000000000000000000000000000000000000000000000000000\n      dup2\n      mstore\n      0x04\n      add\n      tag_239\n      swap1\n      tag_240\n      jump\t// in\n    tag_239:\n      mload(0x40)\n      dup1\n      swap2\n      sub\n      swap1\n      revert\n    tag_238:\n        /* \"@openzeppelin/contracts/utils/Address.sol\":5236:5254  isContract(target) */\n      tag_241\n        /* \"@openzeppelin/contracts/utils/Address.sol\":5247:5253  target */\n      dup6\n        /* \"@openzeppelin/contracts/utils/Address.sol\":5236:5246  isContract */\n      tag_242\n        /* \"@openzeppelin/contracts/utils/Address.sol\":5236:5254  isContract(target) */\n      jump\t// in\n    tag_241:\n        /* \"@openzeppelin/contracts/utils/Address.sol\":5228:5288  require(isContract(target), \"Address: call to non-contract\") */\n      tag_243\n      jumpi\n      mload(0x40)\n      0x08c379a000000000000000000000000000000000000000000000000000000000\n      dup2\n      mstore\n      0x04\n      add\n      tag_244\n      swap1\n      tag_245\n      jump\t// in\n    tag_244:\n      mload(0x40)\n      dup1\n      swap2\n      sub\n      swap1\n      revert\n    tag_243:\n        /* \"@openzeppelin/contracts/utils/Address.sol\":5300:5312  bool success */\n      0x00\n        /* \"@openzeppelin/contracts/utils/Address.sol\":5314:5337  bytes memory returndata */\n      dup1\n        /* \"@openzeppelin/contracts/utils/Address.sol\":5341:5347  target */\n      dup7\n        /* \"@openzeppelin/contracts/utils/Address.sol\":5341:5352  target.call */\n      0xffffffffffffffffffffffffffffffffffffffff\n      and\n        /* \"@openzeppelin/contracts/utils/Address.sol\":5360:5365  value */\n      dup6\n        /* \"@openzeppelin/contracts/utils/Address.sol\":5367:5371  data */\n      dup8\n        /* \"@openzeppelin/contracts/utils/Address.sol\":5341:5372  target.call{value: value}(data) */\n      mload(0x40)\n      tag_246\n      swap2\n      swap1\n      tag_247\n      jump\t// in\n    tag_246:\n      0x00\n      mload(0x40)\n      dup1\n      dup4\n      sub\n      dup2\n      dup6\n      dup8\n      gas\n      call\n      swap3\n      pop\n      pop\n      pop\n      returndatasize\n      dup1\n      0x00\n      dup2\n      eq\n      tag_250\n      jumpi\n      mload(0x40)\n      swap2\n      pop\n      and(add(returndatasize, 0x3f), not(0x1f))\n      dup3\n      add\n      0x40\n      mstore\n      returndatasize\n      dup3\n      mstore\n      returndatasize\n      0x00\n      0x20\n      dup5\n      add\n      returndatacopy\n      jump(tag_249)\n    tag_250:\n      0x60\n      swap2\n      pop\n    tag_249:\n      pop\n        /* \"@openzeppelin/contracts/utils/Address.sol\":5299:5372  (bool success, bytes memory returndata) = target.call{value: value}(data) */\n      swap2\n      pop\n      swap2\n      pop\n        /* \"@openzeppelin/contracts/utils/Address.sol\":5389:5440  verifyCallResult(success, returndata, errorMessage) */\n      tag_251\n        /* \"@openzeppelin/contracts/utils/Address.sol\":5406:5413  success */\n      dup3\n        /* \"@openzeppelin/contracts/utils/Address.sol\":5415:5425  returndata */\n      dup3\n        /* \"@openzeppelin/contracts/utils/Address.sol\":5427:5439  errorMessage */\n      dup7\n        /* \"@openzeppelin/contracts/utils/Address.sol\":5389:5405  verifyCallResult */\n      tag_252\n        /* \"@openzeppelin/contracts/utils/Address.sol\":5389:5440  verifyCallResult(success, returndata, errorMessage) */\n      jump\t// in\n    tag_251:\n        /* \"@openzeppelin/contracts/utils/Address.sol\":5382:5440  return verifyCallResult(success, returndata, errorMessage) */\n      swap3\n      pop\n      pop\n      pop\n        /* \"@openzeppelin/contracts/utils/Address.sol\":4948:5447  function functionCallWithValue(... */\n      swap5\n      swap4\n      pop\n      pop\n      pop\n      pop\n      jump\t// out\n        /* \"@openzeppelin/contracts/utils/Address.sol\":1175:1495  function isContract(address account) internal view returns (bool) {... */\n    tag_242:\n        /* \"@openzeppelin/contracts/utils/Address.sol\":1235:1239  bool */\n      0x00\n        /* \"@openzeppelin/contracts/utils/Address.sol\":1487:1488  0 */\n      dup1\n        /* \"@openzeppelin/contracts/utils/Address.sol\":1465:1472  account */\n      dup3\n        /* \"@openzeppelin/contracts/utils/Address.sol\":1465:1484  account.code.length */\n      0xffffffffffffffffffffffffffffffffffffffff\n      and\n      extcodesize\n        /* \"@openzeppelin/contracts/utils/Address.sol\":1465:1488  account.code.length > 0 */\n      gt\n        /* \"@openzeppelin/contracts/utils/Address.sol\":1458:1488  return account.code.length > 0 */\n      swap1\n      pop\n        /* \"@openzeppelin/contracts/utils/Address.sol\":1175:1495  function isContract(address account) internal view returns (bool) {... */\n      swap2\n      swap1\n      pop\n      jump\t// out\n        /* \"@openzeppelin/contracts/utils/Address.sol\":7561:8253  function verifyCallResult(... */\n    tag_252:\n        /* \"@openzeppelin/contracts/utils/Address.sol\":7707:7719  bytes memory */\n      0x60\n        /* \"@openzeppelin/contracts/utils/Address.sol\":7735:7742  success */\n      dup4\n        /* \"@openzeppelin/contracts/utils/Address.sol\":7731:8247  if (success) {... */\n      iszero\n      tag_255\n      jumpi\n        /* \"@openzeppelin/contracts/utils/Address.sol\":7765:7775  returndata */\n      dup3\n        /* \"@openzeppelin/contracts/utils/Address.sol\":7758:7775  return returndata */\n      swap1\n      pop\n      jump(tag_254)\n        /* \"@openzeppelin/contracts/utils/Address.sol\":7731:8247  if (success) {... */\n    tag_255:\n        /* \"@openzeppelin/contracts/utils/Address.sol\":7896:7897  0 */\n      0x00\n        /* \"@openzeppelin/contracts/utils/Address.sol\":7876:7886  returndata */\n      dup4\n        /* \"@openzeppelin/contracts/utils/Address.sol\":7876:7893  returndata.length */\n      mload\n        /* \"@openzeppelin/contracts/utils/Address.sol\":7876:7897  returndata.length > 0 */\n      gt\n        /* \"@openzeppelin/contracts/utils/Address.sol\":7872:8237  if (returndata.length > 0) {... */\n      iszero\n      tag_257\n      jumpi\n        /* \"@openzeppelin/contracts/utils/Address.sol\":8070:8080  returndata */\n      dup3\n        /* \"@openzeppelin/contracts/utils/Address.sol\":8064:8081  mload(returndata) */\n      mload\n        /* \"@openzeppelin/contracts/utils/Address.sol\":8130:8145  returndata_size */\n      dup1\n        /* \"@openzeppelin/contracts/utils/Address.sol\":8117:8127  returndata */\n      dup5\n        /* \"@openzeppelin/contracts/utils/Address.sol\":8113:8115  32 */\n      0x20\n        /* \"@openzeppelin/contracts/utils/Address.sol\":8109:8128  add(32, returndata) */\n      add\n        /* \"@openzeppelin/contracts/utils/Address.sol\":8102:8146  revert(add(32, returndata), returndata_size) */\n      revert\n        /* \"@openzeppelin/contracts/utils/Address.sol\":7872:8237  if (returndata.length > 0) {... */\n    tag_257:\n        /* \"@openzeppelin/contracts/utils/Address.sol\":8209:8221  errorMessage */\n      dup2\n        /* \"@openzeppelin/contracts/utils/Address.sol\":8202:8222  revert(errorMessage) */\n      mload(0x40)\n      0x08c379a000000000000000000000000000000000000000000000000000000000\n      dup2\n      mstore\n      0x04\n      add\n      tag_259\n      swap2\n      swap1\n      tag_260\n      jump\t// in\n    tag_259:\n      mload(0x40)\n      dup1\n      swap2\n      sub\n      swap1\n      revert\n        /* \"@openzeppelin/contracts/utils/Address.sol\":7561:8253  function verifyCallResult(... */\n    tag_254:\n      swap4\n      swap3\n      pop\n      pop\n      pop\n      jump\t// out\n    tag_89:\n      mload(0x40)\n      dup1\n      0x60\n      add\n      0x40\n      mstore\n      dup1\n      0x00\n      dup2\n      mstore\n      0x20\n      add\n      0x00\n      dup2\n      mstore\n      0x20\n      add\n      tag_261\n      tag_262\n      jump\t// in\n    tag_261:\n      dup2\n      mstore\n      pop\n      swap1\n      jump\t// out\n    tag_262:\n      mload(0x40)\n      dup1\n      0xe0\n      add\n      0x40\n      mstore\n      dup1\n      0x00\n      dup2\n      mstore\n      0x20\n      add\n      0x00\n      dup2\n      mstore\n      0x20\n      add\n      0x00\n      dup2\n      mstore\n      0x20\n      add\n      0x00\n      dup2\n      mstore\n      0x20\n      add\n      0x00\n      dup2\n      mstore\n      0x20\n      add\n      0x00\n      dup2\n      mstore\n      0x20\n      add\n      0x00\n      dup2\n      mstore\n      pop\n      swap1\n      jump\t// out\n        /* \"#utility.yul\":7:84   */\n    tag_263:\n        /* \"#utility.yul\":44:51   */\n      0x00\n        /* \"#utility.yul\":73:78   */\n      dup2\n        /* \"#utility.yul\":62:78   */\n      swap1\n      pop\n        /* \"#utility.yul\":7:84   */\n      swap2\n      swap1\n      pop\n      jump\t// out\n        /* \"#utility.yul\":90:198   */\n    tag_264:\n        /* \"#utility.yul\":167:191   */\n      tag_307\n        /* \"#utility.yul\":185:190   */\n      dup2\n        /* \"#utility.yul\":167:191   */\n      tag_263\n      jump\t// in\n    tag_307:\n        /* \"#utility.yul\":162:165   */\n      dup3\n        /* \"#utility.yul\":155:192   */\n      mstore\n        /* \"#utility.yul\":90:198   */\n      pop\n      pop\n      jump\t// out\n        /* \"#utility.yul\":252:1656   */\n    tag_265:\n        /* \"#utility.yul\":383:387   */\n      0xe0\n        /* \"#utility.yul\":378:381   */\n      dup3\n        /* \"#utility.yul\":374:388   */\n      add\n        /* \"#utility.yul\":472:476   */\n      0x00\n        /* \"#utility.yul\":465:470   */\n      dup3\n        /* \"#utility.yul\":461:477   */\n      add\n        /* \"#utility.yul\":455:478   */\n      mload\n        /* \"#utility.yul\":491:554   */\n      tag_309\n        /* \"#utility.yul\":548:552   */\n      0x00\n        /* \"#utility.yul\":543:546   */\n      dup6\n        /* \"#utility.yul\":539:553   */\n      add\n        /* \"#utility.yul\":525:537   */\n      dup3\n        /* \"#utility.yul\":491:554   */\n      tag_264\n      jump\t// in\n    tag_309:\n        /* \"#utility.yul\":398:564   */\n      pop\n        /* \"#utility.yul\":647:651   */\n      0x20\n        /* \"#utility.yul\":640:645   */\n      dup3\n        /* \"#utility.yul\":636:652   */\n      add\n        /* \"#utility.yul\":630:653   */\n      mload\n        /* \"#utility.yul\":666:729   */\n      tag_310\n        /* \"#utility.yul\":723:727   */\n      0x20\n        /* \"#utility.yul\":718:721   */\n      dup6\n        /* \"#utility.yul\":714:728   */\n      add\n        /* \"#utility.yul\":700:712   */\n      dup3\n        /* \"#utility.yul\":666:729   */\n      tag_264\n      jump\t// in\n    tag_310:\n        /* \"#utility.yul\":574:739   */\n      pop\n        /* \"#utility.yul\":826:830   */\n      0x40\n        /* \"#utility.yul\":819:824   */\n      dup3\n        /* \"#utility.yul\":815:831   */\n      add\n        /* \"#utility.yul\":809:832   */\n      mload\n        /* \"#utility.yul\":845:908   */\n      tag_311\n        /* \"#utility.yul\":902:906   */\n      0x40\n        /* \"#utility.yul\":897:900   */\n      dup6\n        /* \"#utility.yul\":893:907   */\n      add\n        /* \"#utility.yul\":879:891   */\n      dup3\n        /* \"#utility.yul\":845:908   */\n      tag_264\n      jump\t// in\n    tag_311:\n        /* \"#utility.yul\":749:918   */\n      pop\n        /* \"#utility.yul\":1007:1011   */\n      0x60\n        /* \"#utility.yul\":1000:1005   */\n      dup3\n        /* \"#utility.yul\":996:1012   */\n      add\n        /* \"#utility.yul\":990:1013   */\n      mload\n        /* \"#utility.yul\":1026:1089   */\n      tag_312\n        /* \"#utility.yul\":1083:1087   */\n      0x60\n        /* \"#utility.yul\":1078:1081   */\n      dup6\n        /* \"#utility.yul\":1074:1088   */\n      add\n        /* \"#utility.yul\":1060:1072   */\n      dup3\n        /* \"#utility.yul\":1026:1089   */\n      tag_264\n      jump\t// in\n    tag_312:\n        /* \"#utility.yul\":928:1099   */\n      pop\n        /* \"#utility.yul\":1186:1190   */\n      0x80\n        /* \"#utility.yul\":1179:1184   */\n      dup3\n        /* \"#utility.yul\":1175:1191   */\n      add\n        /* \"#utility.yul\":1169:1192   */\n      mload\n        /* \"#utility.yul\":1205:1268   */\n      tag_313\n        /* \"#utility.yul\":1262:1266   */\n      0x80\n        /* \"#utility.yul\":1257:1260   */\n      dup6\n        /* \"#utility.yul\":1253:1267   */\n      add\n        /* \"#utility.yul\":1239:1251   */\n      dup3\n        /* \"#utility.yul\":1205:1268   */\n      tag_264\n      jump\t// in\n    tag_313:\n        /* \"#utility.yul\":1109:1278   */\n      pop\n        /* \"#utility.yul\":1372:1376   */\n      0xa0\n        /* \"#utility.yul\":1365:1370   */\n      dup3\n        /* \"#utility.yul\":1361:1377   */\n      add\n        /* \"#utility.yul\":1355:1378   */\n      mload\n        /* \"#utility.yul\":1391:1454   */\n      tag_314\n        /* \"#utility.yul\":1448:1452   */\n      0xa0\n        /* \"#utility.yul\":1443:1446   */\n      dup6\n        /* \"#utility.yul\":1439:1453   */\n      add\n        /* \"#utility.yul\":1425:1437   */\n      dup3\n        /* \"#utility.yul\":1391:1454   */\n      tag_264\n      jump\t// in\n    tag_314:\n        /* \"#utility.yul\":1288:1464   */\n      pop\n        /* \"#utility.yul\":1557:1561   */\n      0xc0\n        /* \"#utility.yul\":1550:1555   */\n      dup3\n        /* \"#utility.yul\":1546:1562   */\n      add\n        /* \"#utility.yul\":1540:1563   */\n      mload\n        /* \"#utility.yul\":1576:1639   */\n      tag_315\n        /* \"#utility.yul\":1633:1637   */\n      0xc0\n        /* \"#utility.yul\":1628:1631   */\n      dup6\n        /* \"#utility.yul\":1624:1638   */\n      add\n        /* \"#utility.yul\":1610:1622   */\n      dup3\n        /* \"#utility.yul\":1576:1639   */\n      tag_264\n      jump\t// in\n    tag_315:\n        /* \"#utility.yul\":1474:1649   */\n      pop\n        /* \"#utility.yul\":352:1656   */\n      pop\n        /* \"#utility.yul\":252:1656   */\n      pop\n      pop\n      jump\t// out\n        /* \"#utility.yul\":1728:2479   */\n    tag_266:\n        /* \"#utility.yul\":1887:1893   */\n      0x0120\n        /* \"#utility.yul\":1882:1885   */\n      dup3\n        /* \"#utility.yul\":1878:1894   */\n      add\n        /* \"#utility.yul\":1984:1988   */\n      0x00\n        /* \"#utility.yul\":1977:1982   */\n      dup3\n        /* \"#utility.yul\":1973:1989   */\n      add\n        /* \"#utility.yul\":1967:1990   */\n      mload\n        /* \"#utility.yul\":2003:2066   */\n      tag_317\n        /* \"#utility.yul\":2060:2064   */\n      0x00\n        /* \"#utility.yul\":2055:2058   */\n      dup6\n        /* \"#utility.yul\":2051:2065   */\n      add\n        /* \"#utility.yul\":2037:2049   */\n      dup3\n        /* \"#utility.yul\":2003:2066   */\n      tag_264\n      jump\t// in\n    tag_317:\n        /* \"#utility.yul\":1904:2076   */\n      pop\n        /* \"#utility.yul\":2161:2165   */\n      0x20\n        /* \"#utility.yul\":2154:2159   */\n      dup3\n        /* \"#utility.yul\":2150:2166   */\n      add\n        /* \"#utility.yul\":2144:2167   */\n      mload\n        /* \"#utility.yul\":2180:2243   */\n      tag_318\n        /* \"#utility.yul\":2237:2241   */\n      0x20\n        /* \"#utility.yul\":2232:2235   */\n      dup6\n        /* \"#utility.yul\":2228:2242   */\n      add\n        /* \"#utility.yul\":2214:2226   */\n      dup3\n        /* \"#utility.yul\":2180:2243   */\n      tag_264\n      jump\t// in\n    tag_318:\n        /* \"#utility.yul\":2086:2253   */\n      pop\n        /* \"#utility.yul\":2336:2340   */\n      0x40\n        /* \"#utility.yul\":2329:2334   */\n      dup3\n        /* \"#utility.yul\":2325:2341   */\n      add\n        /* \"#utility.yul\":2319:2342   */\n      mload\n        /* \"#utility.yul\":2355:2462   */\n      tag_319\n        /* \"#utility.yul\":2456:2460   */\n      0x40\n        /* \"#utility.yul\":2451:2454   */\n      dup6\n        /* \"#utility.yul\":2447:2461   */\n      add\n        /* \"#utility.yul\":2433:2445   */\n      dup3\n        /* \"#utility.yul\":2355:2462   */\n      tag_265\n      jump\t// in\n    tag_319:\n        /* \"#utility.yul\":2263:2472   */\n      pop\n        /* \"#utility.yul\":1856:2479   */\n      pop\n        /* \"#utility.yul\":1728:2479   */\n      pop\n      pop\n      jump\t// out\n        /* \"#utility.yul\":2485:2832   */\n    tag_28:\n        /* \"#utility.yul\":2640:2644   */\n      0x00\n        /* \"#utility.yul\":2678:2681   */\n      0x0120\n        /* \"#utility.yul\":2667:2676   */\n      dup3\n        /* \"#utility.yul\":2663:2682   */\n      add\n        /* \"#utility.yul\":2655:2682   */\n      swap1\n      pop\n        /* \"#utility.yul\":2692:2825   */\n      tag_321\n        /* \"#utility.yul\":2822:2823   */\n      0x00\n        /* \"#utility.yul\":2811:2820   */\n      dup4\n        /* \"#utility.yul\":2807:2824   */\n      add\n        /* \"#utility.yul\":2798:2804   */\n      dup5\n        /* \"#utility.yul\":2692:2825   */\n      tag_266\n      jump\t// in\n    tag_321:\n        /* \"#utility.yul\":2485:2832   */\n      swap3\n      swap2\n      pop\n      pop\n      jump\t// out\n        /* \"#utility.yul\":2838:2956   */\n    tag_267:\n        /* \"#utility.yul\":2925:2949   */\n      tag_323\n        /* \"#utility.yul\":2943:2948   */\n      dup2\n        /* \"#utility.yul\":2925:2949   */\n      tag_263\n      jump\t// in\n    tag_323:\n        /* \"#utility.yul\":2920:2923   */\n      dup3\n        /* \"#utility.yul\":2913:2950   */\n      mstore\n        /* \"#utility.yul\":2838:2956   */\n      pop\n      pop\n      jump\t// out\n        /* \"#utility.yul\":2962:3184   */\n    tag_34:\n        /* \"#utility.yul\":3055:3059   */\n      0x00\n        /* \"#utility.yul\":3093:3095   */\n      0x20\n        /* \"#utility.yul\":3082:3091   */\n      dup3\n        /* \"#utility.yul\":3078:3096   */\n      add\n        /* \"#utility.yul\":3070:3096   */\n      swap1\n      pop\n        /* \"#utility.yul\":3106:3177   */\n      tag_325\n        /* \"#utility.yul\":3174:3175   */\n      0x00\n        /* \"#utility.yul\":3163:3172   */\n      dup4\n        /* \"#utility.yul\":3159:3176   */\n      add\n        /* \"#utility.yul\":3150:3156   */\n      dup5\n        /* \"#utility.yul\":3106:3177   */\n      tag_267\n      jump\t// in\n    tag_325:\n        /* \"#utility.yul\":2962:3184   */\n      swap3\n      swap2\n      pop\n      pop\n      jump\t// out\n        /* \"#utility.yul\":3271:3388   */\n    tag_269:\n        /* \"#utility.yul\":3380:3381   */\n      0x00\n        /* \"#utility.yul\":3377:3378   */\n      dup1\n        /* \"#utility.yul\":3370:3382   */\n      revert\n        /* \"#utility.yul\":3517:3639   */\n    tag_271:\n        /* \"#utility.yul\":3590:3614   */\n      tag_330\n        /* \"#utility.yul\":3608:3613   */\n      dup2\n        /* \"#utility.yul\":3590:3614   */\n      tag_263\n      jump\t// in\n    tag_330:\n        /* \"#utility.yul\":3583:3588   */\n      dup2\n        /* \"#utility.yul\":3580:3615   */\n      eq\n        /* \"#utility.yul\":3570:3633   */\n      tag_331\n      jumpi\n        /* \"#utility.yul\":3629:3630   */\n      0x00\n        /* \"#utility.yul\":3626:3627   */\n      dup1\n        /* \"#utility.yul\":3619:3631   */\n      revert\n        /* \"#utility.yul\":3570:3633   */\n    tag_331:\n        /* \"#utility.yul\":3517:3639   */\n      pop\n      jump\t// out\n        /* \"#utility.yul\":3645:3784   */\n    tag_272:\n        /* \"#utility.yul\":3691:3696   */\n      0x00\n        /* \"#utility.yul\":3729:3735   */\n      dup2\n        /* \"#utility.yul\":3716:3736   */\n      calldataload\n        /* \"#utility.yul\":3707:3736   */\n      swap1\n      pop\n        /* \"#utility.yul\":3745:3778   */\n      tag_333\n        /* \"#utility.yul\":3772:3777   */\n      dup2\n        /* \"#utility.yul\":3745:3778   */\n      tag_271\n      jump\t// in\n    tag_333:\n        /* \"#utility.yul\":3645:3784   */\n      swap3\n      swap2\n      pop\n      pop\n      jump\t// out\n        /* \"#utility.yul\":3790:4264   */\n    tag_39:\n        /* \"#utility.yul\":3858:3864   */\n      0x00\n        /* \"#utility.yul\":3866:3872   */\n      dup1\n        /* \"#utility.yul\":3915:3917   */\n      0x40\n        /* \"#utility.yul\":3903:3912   */\n      dup4\n        /* \"#utility.yul\":3894:3901   */\n      dup6\n        /* \"#utility.yul\":3890:3913   */\n      sub\n        /* \"#utility.yul\":3886:3918   */\n      slt\n        /* \"#utility.yul\":3883:4002   */\n      iszero\n      tag_335\n      jumpi\n        /* \"#utility.yul\":3921:4000   */\n      tag_336\n      tag_269\n      jump\t// in\n    tag_336:\n        /* \"#utility.yul\":3883:4002   */\n    tag_335:\n        /* \"#utility.yul\":4041:4042   */\n      0x00\n        /* \"#utility.yul\":4066:4119   */\n      tag_337\n        /* \"#utility.yul\":4111:4118   */\n      dup6\n        /* \"#utility.yul\":4102:4108   */\n      dup3\n        /* \"#utility.yul\":4091:4100   */\n      dup7\n        /* \"#utility.yul\":4087:4109   */\n      add\n        /* \"#utility.yul\":4066:4119   */\n      tag_272\n      jump\t// in\n    tag_337:\n        /* \"#utility.yul\":4056:4119   */\n      swap3\n      pop\n        /* \"#utility.yul\":4012:4129   */\n      pop\n        /* \"#utility.yul\":4168:4170   */\n      0x20\n        /* \"#utility.yul\":4194:4247   */\n      tag_338\n        /* \"#utility.yul\":4239:4246   */\n      dup6\n        /* \"#utility.yul\":4230:4236   */\n      dup3\n        /* \"#utility.yul\":4219:4228   */\n      dup7\n        /* \"#utility.yul\":4215:4237   */\n      add\n        /* \"#utility.yul\":4194:4247   */\n      tag_272\n      jump\t// in\n    tag_338:\n        /* \"#utility.yul\":4184:4247   */\n      swap2\n      pop\n        /* \"#utility.yul\":4139:4257   */\n      pop\n        /* \"#utility.yul\":3790:4264   */\n      swap3\n      pop\n      swap3\n      swap1\n      pop\n      jump\t// out\n        /* \"#utility.yul\":4270:4599   */\n    tag_46:\n        /* \"#utility.yul\":4329:4335   */\n      0x00\n        /* \"#utility.yul\":4378:4380   */\n      0x20\n        /* \"#utility.yul\":4366:4375   */\n      dup3\n        /* \"#utility.yul\":4357:4364   */\n      dup5\n        /* \"#utility.yul\":4353:4376   */\n      sub\n        /* \"#utility.yul\":4349:4381   */\n      slt\n        /* \"#utility.yul\":4346:4465   */\n      iszero\n      tag_340\n      jumpi\n        /* \"#utility.yul\":4384:4463   */\n      tag_341\n      tag_269\n      jump\t// in\n    tag_341:\n        /* \"#utility.yul\":4346:4465   */\n    tag_340:\n        /* \"#utility.yul\":4504:4505   */\n      0x00\n        /* \"#utility.yul\":4529:4582   */\n      tag_342\n        /* \"#utility.yul\":4574:4581   */\n      dup5\n        /* \"#utility.yul\":4565:4571   */\n      dup3\n        /* \"#utility.yul\":4554:4563   */\n      dup6\n        /* \"#utility.yul\":4550:4572   */\n      add\n        /* \"#utility.yul\":4529:4582   */\n      tag_272\n      jump\t// in\n    tag_342:\n        /* \"#utility.yul\":4519:4582   */\n      swap2\n      pop\n        /* \"#utility.yul\":4475:4592   */\n      pop\n        /* \"#utility.yul\":4270:4599   */\n      swap3\n      swap2\n      pop\n      pop\n      jump\t// out\n        /* \"#utility.yul\":4605:4731   */\n    tag_273:\n        /* \"#utility.yul\":4642:4649   */\n      0x00\n        /* \"#utility.yul\":4682:4724   */\n      0xffffffffffffffffffffffffffffffffffffffff\n        /* \"#utility.yul\":4675:4680   */\n      dup3\n        /* \"#utility.yul\":4671:4725   */\n      and\n        /* \"#utility.yul\":4660:4725   */\n      swap1\n      pop\n        /* \"#utility.yul\":4605:4731   */\n      swap2\n      swap1\n      pop\n      jump\t// out\n        /* \"#utility.yul\":4737:4833   */\n    tag_274:\n        /* \"#utility.yul\":4774:4781   */\n      0x00\n        /* \"#utility.yul\":4803:4827   */\n      tag_345\n        /* \"#utility.yul\":4821:4826   */\n      dup3\n        /* \"#utility.yul\":4803:4827   */\n      tag_273\n      jump\t// in\n    tag_345:\n        /* \"#utility.yul\":4792:4827   */\n      swap1\n      pop\n        /* \"#utility.yul\":4737:4833   */\n      swap2\n      swap1\n      pop\n      jump\t// out\n        /* \"#utility.yul\":4839:4957   */\n    tag_275:\n        /* \"#utility.yul\":4926:4950   */\n      tag_347\n        /* \"#utility.yul\":4944:4949   */\n      dup2\n        /* \"#utility.yul\":4926:4950   */\n      tag_274\n      jump\t// in\n    tag_347:\n        /* \"#utility.yul\":4921:4924   */\n      dup3\n        /* \"#utility.yul\":4914:4951   */\n      mstore\n        /* \"#utility.yul\":4839:4957   */\n      pop\n      pop\n      jump\t// out\n        /* \"#utility.yul\":4963:5185   */\n    tag_51:\n        /* \"#utility.yul\":5056:5060   */\n      0x00\n        /* \"#utility.yul\":5094:5096   */\n      0x20\n        /* \"#utility.yul\":5083:5092   */\n      dup3\n        /* \"#utility.yul\":5079:5097   */\n      add\n        /* \"#utility.yul\":5071:5097   */\n      swap1\n      pop\n        /* \"#utility.yul\":5107:5178   */\n      tag_349\n        /* \"#utility.yul\":5175:5176   */\n      0x00\n        /* \"#utility.yul\":5164:5173   */\n      dup4\n        /* \"#utility.yul\":5160:5177   */\n      add\n        /* \"#utility.yul\":5151:5157   */\n      dup5\n        /* \"#utility.yul\":5107:5178   */\n      tag_275\n      jump\t// in\n    tag_349:\n        /* \"#utility.yul\":4963:5185   */\n      swap3\n      swap2\n      pop\n      pop\n      jump\t// out\n        /* \"#utility.yul\":5191:5313   */\n    tag_276:\n        /* \"#utility.yul\":5264:5288   */\n      tag_351\n        /* \"#utility.yul\":5282:5287   */\n      dup2\n        /* \"#utility.yul\":5264:5288   */\n      tag_274\n      jump\t// in\n    tag_351:\n        /* \"#utility.yul\":5257:5262   */\n      dup2\n        /* \"#utility.yul\":5254:5289   */\n      eq\n        /* \"#utility.yul\":5244:5307   */\n      tag_352\n      jumpi\n        /* \"#utility.yul\":5303:5304   */\n      0x00\n        /* \"#utility.yul\":5300:5301   */\n      dup1\n        /* \"#utility.yul\":5293:5305   */\n      revert\n        /* \"#utility.yul\":5244:5307   */\n    tag_352:\n        /* \"#utility.yul\":5191:5313   */\n      pop\n      jump\t// out\n        /* \"#utility.yul\":5319:5458   */\n    tag_277:\n        /* \"#utility.yul\":5365:5370   */\n      0x00\n        /* \"#utility.yul\":5403:5409   */\n      dup2\n        /* \"#utility.yul\":5390:5410   */\n      calldataload\n        /* \"#utility.yul\":5381:5410   */\n      swap1\n      pop\n        /* \"#utility.yul\":5419:5452   */\n      tag_354\n        /* \"#utility.yul\":5446:5451   */\n      dup2\n        /* \"#utility.yul\":5419:5452   */\n      tag_276\n      jump\t// in\n    tag_354:\n        /* \"#utility.yul\":5319:5458   */\n      swap3\n      swap2\n      pop\n      pop\n      jump\t// out\n        /* \"#utility.yul\":5464:5793   */\n    tag_61:\n        /* \"#utility.yul\":5523:5529   */\n      0x00\n        /* \"#utility.yul\":5572:5574   */\n      0x20\n        /* \"#utility.yul\":5560:5569   */\n      dup3\n        /* \"#utility.yul\":5551:5558   */\n      dup5\n        /* \"#utility.yul\":5547:5570   */\n      sub\n        /* \"#utility.yul\":5543:5575   */\n      slt\n        /* \"#utility.yul\":5540:5659   */\n      iszero\n      tag_356\n      jumpi\n        /* \"#utility.yul\":5578:5657   */\n      tag_357\n      tag_269\n      jump\t// in\n    tag_357:\n        /* \"#utility.yul\":5540:5659   */\n    tag_356:\n        /* \"#utility.yul\":5698:5699   */\n      0x00\n        /* \"#utility.yul\":5723:5776   */\n      tag_358\n        /* \"#utility.yul\":5768:5775   */\n      dup5\n        /* \"#utility.yul\":5759:5765   */\n      dup3\n        /* \"#utility.yul\":5748:5757   */\n      dup6\n        /* \"#utility.yul\":5744:5766   */\n      add\n        /* \"#utility.yul\":5723:5776   */\n      tag_277\n      jump\t// in\n    tag_358:\n        /* \"#utility.yul\":5713:5776   */\n      swap2\n      pop\n        /* \"#utility.yul\":5669:5786   */\n      pop\n        /* \"#utility.yul\":5464:5793   */\n      swap3\n      swap2\n      pop\n      pop\n      jump\t// out\n        /* \"#utility.yul\":5799:5889   */\n    tag_278:\n        /* \"#utility.yul\":5833:5840   */\n      0x00\n        /* \"#utility.yul\":5876:5881   */\n      dup2\n        /* \"#utility.yul\":5869:5882   */\n      iszero\n        /* \"#utility.yul\":5862:5883   */\n      iszero\n        /* \"#utility.yul\":5851:5883   */\n      swap1\n      pop\n        /* \"#utility.yul\":5799:5889   */\n      swap2\n      swap1\n      pop\n      jump\t// out\n        /* \"#utility.yul\":5895:6004   */\n    tag_279:\n        /* \"#utility.yul\":5976:5997   */\n      tag_361\n        /* \"#utility.yul\":5991:5996   */\n      dup2\n        /* \"#utility.yul\":5976:5997   */\n      tag_278\n      jump\t// in\n    tag_361:\n        /* \"#utility.yul\":5971:5974   */\n      dup3\n        /* \"#utility.yul\":5964:5998   */\n      mstore\n        /* \"#utility.yul\":5895:6004   */\n      pop\n      pop\n      jump\t// out\n        /* \"#utility.yul\":6010:6220   */\n    tag_64:\n        /* \"#utility.yul\":6097:6101   */\n      0x00\n        /* \"#utility.yul\":6135:6137   */\n      0x20\n        /* \"#utility.yul\":6124:6133   */\n      dup3\n        /* \"#utility.yul\":6120:6138   */\n      add\n        /* \"#utility.yul\":6112:6138   */\n      swap1\n      pop\n        /* \"#utility.yul\":6148:6213   */\n      tag_363\n        /* \"#utility.yul\":6210:6211   */\n      0x00\n        /* \"#utility.yul\":6199:6208   */\n      dup4\n        /* \"#utility.yul\":6195:6212   */\n      add\n        /* \"#utility.yul\":6186:6192   */\n      dup5\n        /* \"#utility.yul\":6148:6213   */\n      tag_279\n      jump\t// in\n    tag_363:\n        /* \"#utility.yul\":6010:6220   */\n      swap3\n      swap2\n      pop\n      pop\n      jump\t// out\n        /* \"#utility.yul\":6226:6406   */\n    tag_280:\n        /* \"#utility.yul\":6274:6351   */\n      0x4e487b7100000000000000000000000000000000000000000000000000000000\n        /* \"#utility.yul\":6271:6272   */\n      0x00\n        /* \"#utility.yul\":6264:6352   */\n      mstore\n        /* \"#utility.yul\":6371:6375   */\n      0x11\n        /* \"#utility.yul\":6368:6369   */\n      0x04\n        /* \"#utility.yul\":6361:6376   */\n      mstore\n        /* \"#utility.yul\":6395:6399   */\n      0x24\n        /* \"#utility.yul\":6392:6393   */\n      0x00\n        /* \"#utility.yul\":6385:6400   */\n      revert\n        /* \"#utility.yul\":6412:6760   */\n    tag_96:\n        /* \"#utility.yul\":6452:6459   */\n      0x00\n        /* \"#utility.yul\":6475:6495   */\n      tag_366\n        /* \"#utility.yul\":6493:6494   */\n      dup3\n        /* \"#utility.yul\":6475:6495   */\n      tag_263\n      jump\t// in\n    tag_366:\n        /* \"#utility.yul\":6470:6495   */\n      swap2\n      pop\n        /* \"#utility.yul\":6509:6529   */\n      tag_367\n        /* \"#utility.yul\":6527:6528   */\n      dup4\n        /* \"#utility.yul\":6509:6529   */\n      tag_263\n      jump\t// in\n    tag_367:\n        /* \"#utility.yul\":6504:6529   */\n      swap3\n      pop\n        /* \"#utility.yul\":6697:6698   */\n      dup2\n        /* \"#utility.yul\":6629:6695   */\n      0xffffffffffffffffffffffffffffffffffffffffffffffffffffffffffffffff\n        /* \"#utility.yul\":6625:6699   */\n      div\n        /* \"#utility.yul\":6622:6623   */\n      dup4\n        /* \"#utility.yul\":6619:6700   */\n      gt\n        /* \"#utility.yul\":6614:6615   */\n      dup3\n        /* \"#utility.yul\":6607:6616   */\n      iszero\n        /* \"#utility.yul\":6600:6617   */\n      iszero\n        /* \"#utility.yul\":6596:6701   */\n      and\n        /* \"#utility.yul\":6593:6724   */\n      iszero\n      tag_368\n      jumpi\n        /* \"#utility.yul\":6704:6722   */\n      tag_369\n      tag_280\n      jump\t// in\n    tag_369:\n        /* \"#utility.yul\":6593:6724   */\n    tag_368:\n        /* \"#utility.yul\":6752:6753   */\n      dup3\n        /* \"#utility.yul\":6749:6750   */\n      dup3\n        /* \"#utility.yul\":6745:6754   */\n      mul\n        /* \"#utility.yul\":6734:6754   */\n      swap1\n      pop\n        /* \"#utility.yul\":6412:6760   */\n      swap3\n      swap2\n      pop\n      pop\n      jump\t// out\n        /* \"#utility.yul\":6766:6946   */\n    tag_281:\n        /* \"#utility.yul\":6814:6891   */\n      0x4e487b7100000000000000000000000000000000000000000000000000000000\n        /* \"#utility.yul\":6811:6812   */\n      0x00\n        /* \"#utility.yul\":6804:6892   */\n      mstore\n        /* \"#utility.yul\":6911:6915   */\n      0x12\n        /* \"#utility.yul\":6908:6909   */\n      0x04\n        /* \"#utility.yul\":6901:6916   */\n      mstore\n        /* \"#utility.yul\":6935:6939   */\n      0x24\n        /* \"#utility.yul\":6932:6933   */\n      0x00\n        /* \"#utility.yul\":6925:6940   */\n      revert\n        /* \"#utility.yul\":6952:7137   */\n    tag_98:\n        /* \"#utility.yul\":6992:6993   */\n      0x00\n        /* \"#utility.yul\":7009:7029   */\n      tag_372\n        /* \"#utility.yul\":7027:7028   */\n      dup3\n        /* \"#utility.yul\":7009:7029   */\n      tag_263\n      jump\t// in\n    tag_372:\n        /* \"#utility.yul\":7004:7029   */\n      swap2\n      pop\n        /* \"#utility.yul\":7043:7063   */\n      tag_373\n        /* \"#utility.yul\":7061:7062   */\n      dup4\n        /* \"#utility.yul\":7043:7063   */\n      tag_263\n      jump\t// in\n    tag_373:\n        /* \"#utility.yul\":7038:7063   */\n      swap3\n      pop\n        /* \"#utility.yul\":7082:7083   */\n      dup3\n        /* \"#utility.yul\":7072:7107   */\n      tag_374\n      jumpi\n        /* \"#utility.yul\":7087:7105   */\n      tag_375\n      tag_281\n      jump\t// in\n    tag_375:\n        /* \"#utility.yul\":7072:7107   */\n    tag_374:\n        /* \"#utility.yul\":7129:7130   */\n      dup3\n        /* \"#utility.yul\":7126:7127   */\n      dup3\n        /* \"#utility.yul\":7122:7131   */\n      div\n        /* \"#utility.yul\":7117:7131   */\n      swap1\n      pop\n        /* \"#utility.yul\":6952:7137   */\n      swap3\n      swap2\n      pop\n      pop\n      jump\t// out\n        /* \"#utility.yul\":7143:7448   */\n    tag_102:\n        /* \"#utility.yul\":7183:7186   */\n      0x00\n        /* \"#utility.yul\":7202:7222   */\n      tag_377\n        /* \"#utility.yul\":7220:7221   */\n      dup3\n        /* \"#utility.yul\":7202:7222   */\n      tag_263\n      jump\t// in\n    tag_377:\n        /* \"#utility.yul\":7197:7222   */\n      swap2\n      pop\n        /* \"#utility.yul\":7236:7256   */\n      tag_378\n        /* \"#utility.yul\":7254:7255   */\n      dup4\n        /* \"#utility.yul\":7236:7256   */\n      tag_263\n      jump\t// in\n    tag_378:\n        /* \"#utility.yul\":7231:7256   */\n      swap3\n      pop\n        /* \"#utility.yul\":7390:7391   */\n      dup3\n        /* \"#utility.yul\":7322:7388   */\n      0xffffffffffffffffffffffffffffffffffffffffffffffffffffffffffffffff\n        /* \"#utility.yul\":7318:7392   */\n      sub\n        /* \"#utility.yul\":7315:7316   */\n      dup3\n        /* \"#utility.yul\":7312:7393   */\n      gt\n        /* \"#utility.yul\":7309:7416   */\n      iszero\n      tag_379\n      jumpi\n        /* \"#utility.yul\":7396:7414   */\n      tag_380\n      tag_280\n      jump\t// in\n    tag_380:\n        /* \"#utility.yul\":7309:7416   */\n    tag_379:\n        /* \"#utility.yul\":7440:7441   */\n      dup3\n        /* \"#utility.yul\":7437:7438   */\n      dup3\n        /* \"#utility.yul\":7433:7442   */\n      add\n        /* \"#utility.yul\":7426:7442   */\n      swap1\n      pop\n        /* \"#utility.yul\":7143:7448   */\n      swap3\n      swap2\n      pop\n      pop\n      jump\t// out\n        /* \"#utility.yul\":7454:7623   */\n    tag_282:\n        /* \"#utility.yul\":7538:7549   */\n      0x00\n        /* \"#utility.yul\":7572:7578   */\n      dup3\n        /* \"#utility.yul\":7567:7570   */\n      dup3\n        /* \"#utility.yul\":7560:7579   */\n      mstore\n        /* \"#utility.yul\":7612:7616   */\n      0x20\n        /* \"#utility.yul\":7607:7610   */\n      dup3\n        /* \"#utility.yul\":7603:7617   */\n      add\n        /* \"#utility.yul\":7588:7617   */\n      swap1\n      pop\n        /* \"#utility.yul\":7454:7623   */\n      swap3\n      swap2\n      pop\n      pop\n      jump\t// out\n        /* \"#utility.yul\":7629:7811   */\n    tag_283:\n        /* \"#utility.yul\":7769:7803   */\n      0x4f776e61626c653a2063616c6c6572206973206e6f7420746865206f776e6572\n        /* \"#utility.yul\":7765:7766   */\n      0x00\n        /* \"#utility.yul\":7757:7763   */\n      dup3\n        /* \"#utility.yul\":7753:7767   */\n      add\n        /* \"#utility.yul\":7746:7804   */\n      mstore\n        /* \"#utility.yul\":7629:7811   */\n      pop\n      jump\t// out\n        /* \"#utility.yul\":7817:8183   */\n    tag_284:\n        /* \"#utility.yul\":7959:7962   */\n      0x00\n        /* \"#utility.yul\":7980:8047   */\n      tag_384\n        /* \"#utility.yul\":8044:8046   */\n      0x20\n        /* \"#utility.yul\":8039:8042   */\n      dup4\n        /* \"#utility.yul\":7980:8047   */\n      tag_282\n      jump\t// in\n    tag_384:\n        /* \"#utility.yul\":7973:8047   */\n      swap2\n      pop\n        /* \"#utility.yul\":8056:8149   */\n      tag_385\n        /* \"#utility.yul\":8145:8148   */\n      dup3\n        /* \"#utility.yul\":8056:8149   */\n      tag_283\n      jump\t// in\n    tag_385:\n        /* \"#utility.yul\":8174:8176   */\n      0x20\n        /* \"#utility.yul\":8169:8172   */\n      dup3\n        /* \"#utility.yul\":8165:8177   */\n      add\n        /* \"#utility.yul\":8158:8177   */\n      swap1\n      pop\n        /* \"#utility.yul\":7817:8183   */\n      swap2\n      swap1\n      pop\n      jump\t// out\n        /* \"#utility.yul\":8189:8608   */\n    tag_121:\n        /* \"#utility.yul\":8355:8359   */\n      0x00\n        /* \"#utility.yul\":8393:8395   */\n      0x20\n        /* \"#utility.yul\":8382:8391   */\n      dup3\n        /* \"#utility.yul\":8378:8396   */\n      add\n        /* \"#utility.yul\":8370:8396   */\n      swap1\n      pop\n        /* \"#utility.yul\":8442:8451   */\n      dup2\n        /* \"#utility.yul\":8436:8440   */\n      dup2\n        /* \"#utility.yul\":8432:8452   */\n      sub\n        /* \"#utility.yul\":8428:8429   */\n      0x00\n        /* \"#utility.yul\":8417:8426   */\n      dup4\n        /* \"#utility.yul\":8413:8430   */\n      add\n        /* \"#utility.yul\":8406:8453   */\n      mstore\n        /* \"#utility.yul\":8470:8601   */\n      tag_387\n        /* \"#utility.yul\":8596:8600   */\n      dup2\n        /* \"#utility.yul\":8470:8601   */\n      tag_284\n      jump\t// in\n    tag_387:\n        /* \"#utility.yul\":8462:8601   */\n      swap1\n      pop\n        /* \"#utility.yul\":8189:8608   */\n      swap2\n      swap1\n      pop\n      jump\t// out\n        /* \"#utility.yul\":8614:8795   */\n    tag_285:\n        /* \"#utility.yul\":8754:8787   */\n      0x5265656e7472616e637947756172643a207265656e7472616e742063616c6c00\n        /* \"#utility.yul\":8750:8751   */\n      0x00\n        /* \"#utility.yul\":8742:8748   */\n      dup3\n        /* \"#utility.yul\":8738:8752   */\n      add\n        /* \"#utility.yul\":8731:8788   */\n      mstore\n        /* \"#utility.yul\":8614:8795   */\n      pop\n      jump\t// out\n        /* \"#utility.yul\":8801:9167   */\n    tag_286:\n        /* \"#utility.yul\":8943:8946   */\n      0x00\n        /* \"#utility.yul\":8964:9031   */\n      tag_390\n        /* \"#utility.yul\":9028:9030   */\n      0x1f\n        /* \"#utility.yul\":9023:9026   */\n      dup4\n        /* \"#utility.yul\":8964:9031   */\n      tag_282\n      jump\t// in\n    tag_390:\n        /* \"#utility.yul\":8957:9031   */\n      swap2\n      pop\n        /* \"#utility.yul\":9040:9133   */\n      tag_391\n        /* \"#utility.yul\":9129:9132   */\n      dup3\n        /* \"#utility.yul\":9040:9133   */\n      tag_285\n      jump\t// in\n    tag_391:\n        /* \"#utility.yul\":9158:9160   */\n      0x20\n        /* \"#utility.yul\":9153:9156   */\n      dup3\n        /* \"#utility.yul\":9149:9161   */\n      add\n        /* \"#utility.yul\":9142:9161   */\n      swap1\n      pop\n        /* \"#utility.yul\":8801:9167   */\n      swap2\n      swap1\n      pop\n      jump\t// out\n        /* \"#utility.yul\":9173:9592   */\n    tag_128:\n        /* \"#utility.yul\":9339:9343   */\n      0x00\n        /* \"#utility.yul\":9377:9379   */\n      0x20\n        /* \"#utility.yul\":9366:9375   */\n      dup3\n        /* \"#utility.yul\":9362:9380   */\n      add\n        /* \"#utility.yul\":9354:9380   */\n      swap1\n      pop\n        /* \"#utility.yul\":9426:9435   */\n      dup2\n        /* \"#utility.yul\":9420:9424   */\n      dup2\n        /* \"#utility.yul\":9416:9436   */\n      sub\n        /* \"#utility.yul\":9412:9413   */\n      0x00\n        /* \"#utility.yul\":9401:9410   */\n      dup4\n        /* \"#utility.yul\":9397:9414   */\n      add\n        /* \"#utility.yul\":9390:9437   */\n      mstore\n        /* \"#utility.yul\":9454:9585   */\n      tag_393\n        /* \"#utility.yul\":9580:9584   */\n      dup2\n        /* \"#utility.yul\":9454:9585   */\n      tag_286\n      jump\t// in\n    tag_393:\n        /* \"#utility.yul\":9446:9585   */\n      swap1\n      pop\n        /* \"#utility.yul\":9173:9592   */\n      swap2\n      swap1\n      pop\n      jump\t// out\n        /* \"#utility.yul\":9598:10040   */\n    tag_138:\n        /* \"#utility.yul\":9747:9751   */\n      0x00\n        /* \"#utility.yul\":9785:9787   */\n      0x60\n        /* \"#utility.yul\":9774:9783   */\n      dup3\n        /* \"#utility.yul\":9770:9788   */\n      add\n        /* \"#utility.yul\":9762:9788   */\n      swap1\n      pop\n        /* \"#utility.yul\":9798:9869   */\n      tag_395\n        /* \"#utility.yul\":9866:9867   */\n      0x00\n        /* \"#utility.yul\":9855:9864   */\n      dup4\n        /* \"#utility.yul\":9851:9868   */\n      add\n        /* \"#utility.yul\":9842:9848   */\n      dup7\n        /* \"#utility.yul\":9798:9869   */\n      tag_267\n      jump\t// in\n    tag_395:\n        /* \"#utility.yul\":9879:9951   */\n      tag_396\n        /* \"#utility.yul\":9947:9949   */\n      0x20\n        /* \"#utility.yul\":9936:9945   */\n      dup4\n        /* \"#utility.yul\":9932:9950   */\n      add\n        /* \"#utility.yul\":9923:9929   */\n      dup6\n        /* \"#utility.yul\":9879:9951   */\n      tag_267\n      jump\t// in\n    tag_396:\n        /* \"#utility.yul\":9961:10033   */\n      tag_397\n        /* \"#utility.yul\":10029:10031   */\n      0x40\n        /* \"#utility.yul\":10018:10027   */\n      dup4\n        /* \"#utility.yul\":10014:10032   */\n      add\n        /* \"#utility.yul\":10005:10011   */\n      dup5\n        /* \"#utility.yul\":9961:10033   */\n      tag_267\n      jump\t// in\n    tag_397:\n        /* \"#utility.yul\":9598:10040   */\n      swap5\n      swap4\n      pop\n      pop\n      pop\n      pop\n      jump\t// out\n        /* \"#utility.yul\":10046:10237   */\n    tag_150:\n        /* \"#utility.yul\":10086:10090   */\n      0x00\n        /* \"#utility.yul\":10106:10126   */\n      tag_399\n        /* \"#utility.yul\":10124:10125   */\n      dup3\n        /* \"#utility.yul\":10106:10126   */\n      tag_263\n      jump\t// in\n    tag_399:\n        /* \"#utility.yul\":10101:10126   */\n      swap2\n      pop\n        /* \"#utility.yul\":10140:10160   */\n      tag_400\n        /* \"#utility.yul\":10158:10159   */\n      dup4\n        /* \"#utility.yul\":10140:10160   */\n      tag_263\n      jump\t// in\n    tag_400:\n        /* \"#utility.yul\":10135:10160   */\n      swap3\n      pop\n        /* \"#utility.yul\":10179:10180   */\n      dup3\n        /* \"#utility.yul\":10176:10177   */\n      dup3\n        /* \"#utility.yul\":10173:10181   */\n      lt\n        /* \"#utility.yul\":10170:10204   */\n      iszero\n      tag_401\n      jumpi\n        /* \"#utility.yul\":10184:10202   */\n      tag_402\n      tag_280\n      jump\t// in\n    tag_402:\n        /* \"#utility.yul\":10170:10204   */\n    tag_401:\n        /* \"#utility.yul\":10229:10230   */\n      dup3\n        /* \"#utility.yul\":10226:10227   */\n      dup3\n        /* \"#utility.yul\":10222:10231   */\n      sub\n        /* \"#utility.yul\":10214:10231   */\n      swap1\n      pop\n        /* \"#utility.yul\":10046:10237   */\n      swap3\n      swap2\n      pop\n      pop\n      jump\t// out\n        /* \"#utility.yul\":10243:10468   */\n    tag_287:\n        /* \"#utility.yul\":10383:10417   */\n      0x4f776e61626c653a206e6577206f776e657220697320746865207a65726f2061\n        /* \"#utility.yul\":10379:10380   */\n      0x00\n        /* \"#utility.yul\":10371:10377   */\n      dup3\n        /* \"#utility.yul\":10367:10381   */\n      add\n        /* \"#utility.yul\":10360:10418   */\n      mstore\n        /* \"#utility.yul\":10452:10460   */\n      0x6464726573730000000000000000000000000000000000000000000000000000\n        /* \"#utility.yul\":10447:10449   */\n      0x20\n        /* \"#utility.yul\":10439:10445   */\n      dup3\n        /* \"#utility.yul\":10435:10450   */\n      add\n        /* \"#utility.yul\":10428:10461   */\n      mstore\n        /* \"#utility.yul\":10243:10468   */\n      pop\n      jump\t// out\n        /* \"#utility.yul\":10474:10840   */\n    tag_288:\n        /* \"#utility.yul\":10616:10619   */\n      0x00\n        /* \"#utility.yul\":10637:10704   */\n      tag_405\n        /* \"#utility.yul\":10701:10703   */\n      0x26\n        /* \"#utility.yul\":10696:10699   */\n      dup4\n        /* \"#utility.yul\":10637:10704   */\n      tag_282\n      jump\t// in\n    tag_405:\n        /* \"#utility.yul\":10630:10704   */\n      swap2\n      pop\n        /* \"#utility.yul\":10713:10806   */\n      tag_406\n        /* \"#utility.yul\":10802:10805   */\n      dup3\n        /* \"#utility.yul\":10713:10806   */\n      tag_287\n      jump\t// in\n    tag_406:\n        /* \"#utility.yul\":10831:10833   */\n      0x40\n        /* \"#utility.yul\":10826:10829   */\n      dup3\n        /* \"#utility.yul\":10822:10834   */\n      add\n        /* \"#utility.yul\":10815:10834   */\n      swap1\n      pop\n        /* \"#utility.yul\":10474:10840   */\n      swap2\n      swap1\n      pop\n      jump\t// out\n        /* \"#utility.yul\":10846:11265   */\n    tag_189:\n        /* \"#utility.yul\":11012:11016   */\n      0x00\n        /* \"#utility.yul\":11050:11052   */\n      0x20\n        /* \"#utility.yul\":11039:11048   */\n      dup3\n        /* \"#utility.yul\":11035:11053   */\n      add\n        /* \"#utility.yul\":11027:11053   */\n      swap1\n      pop\n        /* \"#utility.yul\":11099:11108   */\n      dup2\n        /* \"#utility.yul\":11093:11097   */\n      dup2\n        /* \"#utility.yul\":11089:11109   */\n      sub\n        /* \"#utility.yul\":11085:11086   */\n      0x00\n        /* \"#utility.yul\":11074:11083   */\n      dup4\n        /* \"#utility.yul\":11070:11087   */\n      add\n        /* \"#utility.yul\":11063:11110   */\n      mstore\n        /* \"#utility.yul\":11127:11258   */\n      tag_408\n        /* \"#utility.yul\":11253:11257   */\n      dup2\n        /* \"#utility.yul\":11127:11258   */\n      tag_288\n      jump\t// in\n    tag_408:\n        /* \"#utility.yul\":11119:11258   */\n      swap1\n      pop\n        /* \"#utility.yul\":10846:11265   */\n      swap2\n      swap1\n      pop\n      jump\t// out\n        /* \"#utility.yul\":11271:11603   */\n    tag_205:\n        /* \"#utility.yul\":11392:11396   */\n      0x00\n        /* \"#utility.yul\":11430:11432   */\n      0x40\n        /* \"#utility.yul\":11419:11428   */\n      dup3\n        /* \"#utility.yul\":11415:11433   */\n      add\n        /* \"#utility.yul\":11407:11433   */\n      swap1\n      pop\n        /* \"#utility.yul\":11443:11514   */\n      tag_410\n        /* \"#utility.yul\":11511:11512   */\n      0x00\n        /* \"#utility.yul\":11500:11509   */\n      dup4\n        /* \"#utility.yul\":11496:11513   */\n      add\n        /* \"#utility.yul\":11487:11493   */\n      dup6\n        /* \"#utility.yul\":11443:11514   */\n      tag_275\n      jump\t// in\n    tag_410:\n        /* \"#utility.yul\":11524:11596   */\n      tag_411\n        /* \"#utility.yul\":11592:11594   */\n      0x20\n        /* \"#utility.yul\":11581:11590   */\n      dup4\n        /* \"#utility.yul\":11577:11595   */\n      add\n        /* \"#utility.yul\":11568:11574   */\n      dup5\n        /* \"#utility.yul\":11524:11596   */\n      tag_267\n      jump\t// in\n    tag_411:\n        /* \"#utility.yul\":11271:11603   */\n      swap4\n      swap3\n      pop\n      pop\n      pop\n      jump\t// out\n        /* \"#utility.yul\":11609:12051   */\n    tag_212:\n        /* \"#utility.yul\":11758:11762   */\n      0x00\n        /* \"#utility.yul\":11796:11798   */\n      0x60\n        /* \"#utility.yul\":11785:11794   */\n      dup3\n        /* \"#utility.yul\":11781:11799   */\n      add\n        /* \"#utility.yul\":11773:11799   */\n      swap1\n      pop\n        /* \"#utility.yul\":11809:11880   */\n      tag_413\n        /* \"#utility.yul\":11877:11878   */\n      0x00\n        /* \"#utility.yul\":11866:11875   */\n      dup4\n        /* \"#utility.yul\":11862:11879   */\n      add\n        /* \"#utility.yul\":11853:11859   */\n      dup7\n        /* \"#utility.yul\":11809:11880   */\n      tag_275\n      jump\t// in\n    tag_413:\n        /* \"#utility.yul\":11890:11962   */\n      tag_414\n        /* \"#utility.yul\":11958:11960   */\n      0x20\n        /* \"#utility.yul\":11947:11956   */\n      dup4\n        /* \"#utility.yul\":11943:11961   */\n      add\n        /* \"#utility.yul\":11934:11940   */\n      dup6\n        /* \"#utility.yul\":11890:11962   */\n      tag_275\n      jump\t// in\n    tag_414:\n        /* \"#utility.yul\":11972:12044   */\n      tag_415\n        /* \"#utility.yul\":12040:12042   */\n      0x40\n        /* \"#utility.yul\":12029:12038   */\n      dup4\n        /* \"#utility.yul\":12025:12043   */\n      add\n        /* \"#utility.yul\":12016:12022   */\n      dup5\n        /* \"#utility.yul\":11972:12044   */\n      tag_267\n      jump\t// in\n    tag_415:\n        /* \"#utility.yul\":11609:12051   */\n      swap5\n      swap4\n      pop\n      pop\n      pop\n      pop\n      jump\t// out\n        /* \"#utility.yul\":12057:12173   */\n    tag_289:\n        /* \"#utility.yul\":12127:12148   */\n      tag_417\n        /* \"#utility.yul\":12142:12147   */\n      dup2\n        /* \"#utility.yul\":12127:12148   */\n      tag_278\n      jump\t// in\n    tag_417:\n        /* \"#utility.yul\":12120:12125   */\n      dup2\n        /* \"#utility.yul\":12117:12149   */\n      eq\n        /* \"#utility.yul\":12107:12167   */\n      tag_418\n      jumpi\n        /* \"#utility.yul\":12163:12164   */\n      0x00\n        /* \"#utility.yul\":12160:12161   */\n      dup1\n        /* \"#utility.yul\":12153:12165   */\n      revert\n        /* \"#utility.yul\":12107:12167   */\n    tag_418:\n        /* \"#utility.yul\":12057:12173   */\n      pop\n      jump\t// out\n        /* \"#utility.yul\":12179:12316   */\n    tag_290:\n        /* \"#utility.yul\":12233:12238   */\n      0x00\n        /* \"#utility.yul\":12264:12270   */\n      dup2\n        /* \"#utility.yul\":12258:12271   */\n      mload\n        /* \"#utility.yul\":12249:12271   */\n      swap1\n      pop\n        /* \"#utility.yul\":12280:12310   */\n      tag_420\n        /* \"#utility.yul\":12304:12309   */\n      dup2\n        /* \"#utility.yul\":12280:12310   */\n      tag_289\n      jump\t// in\n    tag_420:\n        /* \"#utility.yul\":12179:12316   */\n      swap3\n      swap2\n      pop\n      pop\n      jump\t// out\n        /* \"#utility.yul\":12322:12667   */\n    tag_230:\n        /* \"#utility.yul\":12389:12395   */\n      0x00\n        /* \"#utility.yul\":12438:12440   */\n      0x20\n        /* \"#utility.yul\":12426:12435   */\n      dup3\n        /* \"#utility.yul\":12417:12424   */\n      dup5\n        /* \"#utility.yul\":12413:12436   */\n      sub\n        /* \"#utility.yul\":12409:12441   */\n      slt\n        /* \"#utility.yul\":12406:12525   */\n      iszero\n      tag_422\n      jumpi\n        /* \"#utility.yul\":12444:12523   */\n      tag_423\n      tag_269\n      jump\t// in\n    tag_423:\n        /* \"#utility.yul\":12406:12525   */\n    tag_422:\n        /* \"#utility.yul\":12564:12565   */\n      0x00\n        /* \"#utility.yul\":12589:12650   */\n      tag_424\n        /* \"#utility.yul\":12642:12649   */\n      dup5\n        /* \"#utility.yul\":12633:12639   */\n      dup3\n        /* \"#utility.yul\":12622:12631   */\n      dup6\n        /* \"#utility.yul\":12618:12640   */\n      add\n        /* \"#utility.yul\":12589:12650   */\n      tag_290\n      jump\t// in\n    tag_424:\n        /* \"#utility.yul\":12579:12650   */\n      swap2\n      pop\n        /* \"#utility.yul\":12535:12660   */\n      pop\n        /* \"#utility.yul\":12322:12667   */\n      swap3\n      swap2\n      pop\n      pop\n      jump\t// out\n        /* \"#utility.yul\":12673:12902   */\n    tag_291:\n        /* \"#utility.yul\":12813:12847   */\n      0x5361666545524332303a204552433230206f7065726174696f6e20646964206e\n        /* \"#utility.yul\":12809:12810   */\n      0x00\n        /* \"#utility.yul\":12801:12807   */\n      dup3\n        /* \"#utility.yul\":12797:12811   */\n      add\n        /* \"#utility.yul\":12790:12848   */\n      mstore\n        /* \"#utility.yul\":12882:12894   */\n      0x6f74207375636365656400000000000000000000000000000000000000000000\n        /* \"#utility.yul\":12877:12879   */\n      0x20\n        /* \"#utility.yul\":12869:12875   */\n      dup3\n        /* \"#utility.yul\":12865:12880   */\n      add\n        /* \"#utility.yul\":12858:12895   */\n      mstore\n        /* \"#utility.yul\":12673:12902   */\n      pop\n      jump\t// out\n        /* \"#utility.yul\":12908:13274   */\n    tag_292:\n        /* \"#utility.yul\":13050:13053   */\n      0x00\n        /* \"#utility.yul\":13071:13138   */\n      tag_427\n        /* \"#utility.yul\":13135:13137   */\n      0x2a\n        /* \"#utility.yul\":13130:13133   */\n      dup4\n        /* \"#utility.yul\":13071:13138   */\n      tag_282\n      jump\t// in\n    tag_427:\n        /* \"#utility.yul\":13064:13138   */\n      swap2\n      pop\n        /* \"#utility.yul\":13147:13240   */\n      tag_428\n        /* \"#utility.yul\":13236:13239   */\n      dup3\n        /* \"#utility.yul\":13147:13240   */\n      tag_291\n      jump\t// in\n    tag_428:\n        /* \"#utility.yul\":13265:13267   */\n      0x40\n        /* \"#utility.yul\":13260:13263   */\n      dup3\n        /* \"#utility.yul\":13256:13268   */\n      add\n        /* \"#utility.yul\":13249:13268   */\n      swap1\n      pop\n        /* \"#utility.yul\":12908:13274   */\n      swap2\n      swap1\n      pop\n      jump\t// out\n        /* \"#utility.yul\":13280:13699   */\n    tag_233:\n        /* \"#utility.yul\":13446:13450   */\n      0x00\n        /* \"#utility.yul\":13484:13486   */\n      0x20\n        /* \"#utility.yul\":13473:13482   */\n      dup3\n        /* \"#utility.yul\":13469:13487   */\n      add\n        /* \"#utility.yul\":13461:13487   */\n      swap1\n      pop\n        /* \"#utility.yul\":13533:13542   */\n      dup2\n        /* \"#utility.yul\":13527:13531   */\n      dup2\n        /* \"#utility.yul\":13523:13543   */\n      sub\n        /* \"#utility.yul\":13519:13520   */\n      0x00\n        /* \"#utility.yul\":13508:13517   */\n      dup4\n        /* \"#utility.yul\":13504:13521   */\n      add\n        /* \"#utility.yul\":13497:13544   */\n      mstore\n        /* \"#utility.yul\":13561:13692   */\n      tag_430\n        /* \"#utility.yul\":13687:13691   */\n      dup2\n        /* \"#utility.yul\":13561:13692   */\n      tag_292\n      jump\t// in\n    tag_430:\n        /* \"#utility.yul\":13553:13692   */\n      swap1\n      pop\n        /* \"#utility.yul\":13280:13699   */\n      swap2\n      swap1\n      pop\n      jump\t// out\n        /* \"#utility.yul\":13705:13930   */\n    tag_293:\n        /* \"#utility.yul\":13845:13879   */\n      0x416464726573733a20696e73756666696369656e742062616c616e636520666f\n        /* \"#utility.yul\":13841:13842   */\n      0x00\n        /* \"#utility.yul\":13833:13839   */\n      dup3\n        /* \"#utility.yul\":13829:13843   */\n      add\n        /* \"#utility.yul\":13822:13880   */\n      mstore\n        /* \"#utility.yul\":13914:13922   */\n      0x722063616c6c0000000000000000000000000000000000000000000000000000\n        /* \"#utility.yul\":13909:13911   */\n      0x20\n        /* \"#utility.yul\":13901:13907   */\n      dup3\n        /* \"#utility.yul\":13897:13912   */\n      add\n        /* \"#utility.yul\":13890:13923   */\n      mstore\n        /* \"#utility.yul\":13705:13930   */\n      pop\n      jump\t// out\n        /* \"#utility.yul\":13936:14302   */\n    tag_294:\n        /* \"#utility.yul\":14078:14081   */\n      0x00\n        /* \"#utility.yul\":14099:14166   */\n      tag_433\n        /* \"#utility.yul\":14163:14165   */\n      0x26\n        /* \"#utility.yul\":14158:14161   */\n      dup4\n        /* \"#utility.yul\":14099:14166   */\n      tag_282\n      jump\t// in\n    tag_433:\n        /* \"#utility.yul\":14092:14166   */\n      swap2\n      pop\n        /* \"#utility.yul\":14175:14268   */\n      tag_434\n        /* \"#utility.yul\":14264:14267   */\n      dup3\n        /* \"#utility.yul\":14175:14268   */\n      tag_293\n      jump\t// in\n    tag_434:\n        /* \"#utility.yul\":14293:14295   */\n      0x40\n        /* \"#utility.yul\":14288:14291   */\n      dup3\n        /* \"#utility.yul\":14284:14296   */\n      add\n        /* \"#utility.yul\":14277:14296   */\n      swap1\n      pop\n        /* \"#utility.yul\":13936:14302   */\n      swap2\n      swap1\n      pop\n      jump\t// out\n        /* \"#utility.yul\":14308:14727   */\n    tag_240:\n        /* \"#utility.yul\":14474:14478   */\n      0x00\n        /* \"#utility.yul\":14512:14514   */\n      0x20\n        /* \"#utility.yul\":14501:14510   */\n      dup3\n        /* \"#utility.yul\":14497:14515   */\n      add\n        /* \"#utility.yul\":14489:14515   */\n      swap1\n      pop\n        /* \"#utility.yul\":14561:14570   */\n      dup2\n        /* \"#utility.yul\":14555:14559   */\n      dup2\n        /* \"#utility.yul\":14551:14571   */\n      sub\n        /* \"#utility.yul\":14547:14548   */\n      0x00\n        /* \"#utility.yul\":14536:14545   */\n      dup4\n        /* \"#utility.yul\":14532:14549   */\n      add\n        /* \"#utility.yul\":14525:14572   */\n      mstore\n        /* \"#utility.yul\":14589:14720   */\n      tag_436\n        /* \"#utility.yul\":14715:14719   */\n      dup2\n        /* \"#utility.yul\":14589:14720   */\n      tag_294\n      jump\t// in\n    tag_436:\n        /* \"#utility.yul\":14581:14720   */\n      swap1\n      pop\n        /* \"#utility.yul\":14308:14727   */\n      swap2\n      swap1\n      pop\n      jump\t// out\n        /* \"#utility.yul\":14733:14912   */\n    tag_295:\n        /* \"#utility.yul\":14873:14904   */\n      0x416464726573733a2063616c6c20746f206e6f6e2d636f6e7472616374000000\n        /* \"#utility.yul\":14869:14870   */\n      0x00\n        /* \"#utility.yul\":14861:14867   */\n      dup3\n        /* \"#utility.yul\":14857:14871   */\n      add\n        /* \"#utility.yul\":14850:14905   */\n      mstore\n        /* \"#utility.yul\":14733:14912   */\n      pop\n      jump\t// out\n        /* \"#utility.yul\":14918:15284   */\n    tag_296:\n        /* \"#utility.yul\":15060:15063   */\n      0x00\n        /* \"#utility.yul\":15081:15148   */\n      tag_439\n        /* \"#utility.yul\":15145:15147   */\n      0x1d\n        /* \"#utility.yul\":15140:15143   */\n      dup4\n        /* \"#utility.yul\":15081:15148   */\n      tag_282\n      jump\t// in\n    tag_439:\n        /* \"#utility.yul\":15074:15148   */\n      swap2\n      pop\n        /* \"#utility.yul\":15157:15250   */\n      tag_440\n        /* \"#utility.yul\":15246:15249   */\n      dup3\n        /* \"#utility.yul\":15157:15250   */\n      tag_295\n      jump\t// in\n    tag_440:\n        /* \"#utility.yul\":15275:15277   */\n      0x20\n        /* \"#utility.yul\":15270:15273   */\n      dup3\n        /* \"#utility.yul\":15266:15278   */\n      add\n        /* \"#utility.yul\":15259:15278   */\n      swap1\n      pop\n        /* \"#utility.yul\":14918:15284   */\n      swap2\n      swap1\n      pop\n      jump\t// out\n        /* \"#utility.yul\":15290:15709   */\n    tag_245:\n        /* \"#utility.yul\":15456:15460   */\n      0x00\n        /* \"#utility.yul\":15494:15496   */\n      0x20\n        /* \"#utility.yul\":15483:15492   */\n      dup3\n        /* \"#utility.yul\":15479:15497   */\n      add\n        /* \"#utility.yul\":15471:15497   */\n      swap1\n      pop\n        /* \"#utility.yul\":15543:15552   */\n      dup2\n        /* \"#utility.yul\":15537:15541   */\n      dup2\n        /* \"#utility.yul\":15533:15553   */\n      sub\n        /* \"#utility.yul\":15529:15530   */\n      0x00\n        /* \"#utility.yul\":15518:15527   */\n      dup4\n        /* \"#utility.yul\":15514:15531   */\n      add\n        /* \"#utility.yul\":15507:15554   */\n      mstore\n        /* \"#utility.yul\":15571:15702   */\n      tag_442\n        /* \"#utility.yul\":15697:15701   */\n      dup2\n        /* \"#utility.yul\":15571:15702   */\n      tag_296\n      jump\t// in\n    tag_442:\n        /* \"#utility.yul\":15563:15702   */\n      swap1\n      pop\n        /* \"#utility.yul\":15290:15709   */\n      swap2\n      swap1\n      pop\n      jump\t// out\n        /* \"#utility.yul\":15715:15813   */\n    tag_297:\n        /* \"#utility.yul\":15766:15772   */\n      0x00\n        /* \"#utility.yul\":15800:15805   */\n      dup2\n        /* \"#utility.yul\":15794:15806   */\n      mload\n        /* \"#utility.yul\":15784:15806   */\n      swap1\n      pop\n        /* \"#utility.yul\":15715:15813   */\n      swap2\n      swap1\n      pop\n      jump\t// out\n        /* \"#utility.yul\":15819:15966   */\n    tag_298:\n        /* \"#utility.yul\":15920:15931   */\n      0x00\n        /* \"#utility.yul\":15957:15960   */\n      dup2\n        /* \"#utility.yul\":15942:15960   */\n      swap1\n      pop\n        /* \"#utility.yul\":15819:15966   */\n      swap3\n      swap2\n      pop\n      pop\n      jump\t// out\n        /* \"#utility.yul\":15972:16279   */\n    tag_299:\n        /* \"#utility.yul\":16040:16041   */\n      0x00\n        /* \"#utility.yul\":16050:16163   */\n    tag_446:\n        /* \"#utility.yul\":16064:16070   */\n      dup4\n        /* \"#utility.yul\":16061:16062   */\n      dup2\n        /* \"#utility.yul\":16058:16071   */\n      lt\n        /* \"#utility.yul\":16050:16163   */\n      iszero\n      tag_448\n      jumpi\n        /* \"#utility.yul\":16149:16150   */\n      dup1\n        /* \"#utility.yul\":16144:16147   */\n      dup3\n        /* \"#utility.yul\":16140:16151   */\n      add\n        /* \"#utility.yul\":16134:16152   */\n      mload\n        /* \"#utility.yul\":16130:16131   */\n      dup2\n        /* \"#utility.yul\":16125:16128   */\n      dup5\n        /* \"#utility.yul\":16121:16132   */\n      add\n        /* \"#utility.yul\":16114:16153   */\n      mstore\n        /* \"#utility.yul\":16086:16088   */\n      0x20\n        /* \"#utility.yul\":16083:16084   */\n      dup2\n        /* \"#utility.yul\":16079:16089   */\n      add\n        /* \"#utility.yul\":16074:16089   */\n      swap1\n      pop\n        /* \"#utility.yul\":16050:16163   */\n      jump(tag_446)\n    tag_448:\n        /* \"#utility.yul\":16181:16187   */\n      dup4\n        /* \"#utility.yul\":16178:16179   */\n      dup2\n        /* \"#utility.yul\":16175:16188   */\n      gt\n        /* \"#utility.yul\":16172:16273   */\n      iszero\n      tag_449\n      jumpi\n        /* \"#utility.yul\":16261:16262   */\n      0x00\n        /* \"#utility.yul\":16252:16258   */\n      dup5\n        /* \"#utility.yul\":16247:16250   */\n      dup5\n        /* \"#utility.yul\":16243:16259   */\n      add\n        /* \"#utility.yul\":16236:16263   */\n      mstore\n        /* \"#utility.yul\":16172:16273   */\n    tag_449:\n        /* \"#utility.yul\":16021:16279   */\n      pop\n        /* \"#utility.yul\":15972:16279   */\n      pop\n      pop\n      pop\n      jump\t// out\n        /* \"#utility.yul\":16285:16658   */\n    tag_300:\n        /* \"#utility.yul\":16389:16392   */\n      0x00\n        /* \"#utility.yul\":16417:16455   */\n      tag_451\n        /* \"#utility.yul\":16449:16454   */\n      dup3\n        /* \"#utility.yul\":16417:16455   */\n      tag_297\n      jump\t// in\n    tag_451:\n        /* \"#utility.yul\":16471:16559   */\n      tag_452\n        /* \"#utility.yul\":16552:16558   */\n      dup2\n        /* \"#utility.yul\":16547:16550   */\n      dup6\n        /* \"#utility.yul\":16471:16559   */\n      tag_298\n      jump\t// in\n    tag_452:\n        /* \"#utility.yul\":16464:16559   */\n      swap4\n      pop\n        /* \"#utility.yul\":16568:16620   */\n      tag_453\n        /* \"#utility.yul\":16613:16619   */\n      dup2\n        /* \"#utility.yul\":16608:16611   */\n      dup6\n        /* \"#utility.yul\":16601:16605   */\n      0x20\n        /* \"#utility.yul\":16594:16599   */\n      dup7\n        /* \"#utility.yul\":16590:16606   */\n      add\n        /* \"#utility.yul\":16568:16620   */\n      tag_299\n      jump\t// in\n    tag_453:\n        /* \"#utility.yul\":16645:16651   */\n      dup1\n        /* \"#utility.yul\":16640:16643   */\n      dup5\n        /* \"#utility.yul\":16636:16652   */\n      add\n        /* \"#utility.yul\":16629:16652   */\n      swap2\n      pop\n        /* \"#utility.yul\":16393:16658   */\n      pop\n        /* \"#utility.yul\":16285:16658   */\n      swap3\n      swap2\n      pop\n      pop\n      jump\t// out\n        /* \"#utility.yul\":16664:16935   */\n    tag_247:\n        /* \"#utility.yul\":16794:16797   */\n      0x00\n        /* \"#utility.yul\":16816:16909   */\n      tag_455\n        /* \"#utility.yul\":16905:16908   */\n      dup3\n        /* \"#utility.yul\":16896:16902   */\n      dup5\n        /* \"#utility.yul\":16816:16909   */\n      tag_300\n      jump\t// in\n    tag_455:\n        /* \"#utility.yul\":16809:16909   */\n      swap2\n      pop\n        /* \"#utility.yul\":16926:16929   */\n      dup2\n        /* \"#utility.yul\":16919:16929   */\n      swap1\n      pop\n        /* \"#utility.yul\":16664:16935   */\n      swap3\n      swap2\n      pop\n      pop\n      jump\t// out\n        /* \"#utility.yul\":16941:17040   */\n    tag_301:\n        /* \"#utility.yul\":16993:16999   */\n      0x00\n        /* \"#utility.yul\":17027:17032   */\n      dup2\n        /* \"#utility.yul\":17021:17033   */\n      mload\n        /* \"#utility.yul\":17011:17033   */\n      swap1\n      pop\n        /* \"#utility.yul\":16941:17040   */\n      swap2\n      swap1\n      pop\n      jump\t// out\n        /* \"#utility.yul\":17046:17148   */\n    tag_302:\n        /* \"#utility.yul\":17087:17093   */\n      0x00\n        /* \"#utility.yul\":17138:17140   */\n      0x1f\n        /* \"#utility.yul\":17134:17141   */\n      not\n        /* \"#utility.yul\":17129:17131   */\n      0x1f\n        /* \"#utility.yul\":17122:17127   */\n      dup4\n        /* \"#utility.yul\":17118:17132   */\n      add\n        /* \"#utility.yul\":17114:17142   */\n      and\n        /* \"#utility.yul\":17104:17142   */\n      swap1\n      pop\n        /* \"#utility.yul\":17046:17148   */\n      swap2\n      swap1\n      pop\n      jump\t// out\n        /* \"#utility.yul\":17154:17518   */\n    tag_303:\n        /* \"#utility.yul\":17242:17245   */\n      0x00\n        /* \"#utility.yul\":17270:17309   */\n      tag_459\n        /* \"#utility.yul\":17303:17308   */\n      dup3\n        /* \"#utility.yul\":17270:17309   */\n      tag_301\n      jump\t// in\n    tag_459:\n        /* \"#utility.yul\":17325:17396   */\n      tag_460\n        /* \"#utility.yul\":17389:17395   */\n      dup2\n        /* \"#utility.yul\":17384:17387   */\n      dup6\n        /* \"#utility.yul\":17325:17396   */\n      tag_282\n      jump\t// in\n    tag_460:\n        /* \"#utility.yul\":17318:17396   */\n      swap4\n      pop\n        /* \"#utility.yul\":17405:17457   */\n      tag_461\n        /* \"#utility.yul\":17450:17456   */\n      dup2\n        /* \"#utility.yul\":17445:17448   */\n      dup6\n        /* \"#utility.yul\":17438:17442   */\n      0x20\n        /* \"#utility.yul\":17431:17436   */\n      dup7\n        /* \"#utility.yul\":17427:17443   */\n      add\n        /* \"#utility.yul\":17405:17457   */\n      tag_299\n      jump\t// in\n    tag_461:\n        /* \"#utility.yul\":17482:17511   */\n      tag_462\n        /* \"#utility.yul\":17504:17510   */\n      dup2\n        /* \"#utility.yul\":17482:17511   */\n      tag_302\n      jump\t// in\n    tag_462:\n        /* \"#utility.yul\":17477:17480   */\n      dup5\n        /* \"#utility.yul\":17473:17512   */\n      add\n        /* \"#utility.yul\":17466:17512   */\n      swap2\n      pop\n        /* \"#utility.yul\":17246:17518   */\n      pop\n        /* \"#utility.yul\":17154:17518   */\n      swap3\n      swap2\n      pop\n      pop\n      jump\t// out\n        /* \"#utility.yul\":17524:17837   */\n    tag_260:\n        /* \"#utility.yul\":17637:17641   */\n      0x00\n        /* \"#utility.yul\":17675:17677   */\n      0x20\n        /* \"#utility.yul\":17664:17673   */\n      dup3\n        /* \"#utility.yul\":17660:17678   */\n      add\n        /* \"#utility.yul\":17652:17678   */\n      swap1\n      pop\n        /* \"#utility.yul\":17724:17733   */\n      dup2\n        /* \"#utility.yul\":17718:17722   */\n      dup2\n        /* \"#utility.yul\":17714:17734   */\n      sub\n        /* \"#utility.yul\":17710:17711   */\n      0x00\n        /* \"#utility.yul\":17699:17708   */\n      dup4\n        /* \"#utility.yul\":17695:17712   */\n      add\n        /* \"#utility.yul\":17688:17735   */\n      mstore\n        /* \"#utility.yul\":17752:17830   */\n      tag_464\n        /* \"#utility.yul\":17825:17829   */\n      dup2\n        /* \"#utility.yul\":17816:17822   */\n      dup5\n        /* \"#utility.yul\":17752:17830   */\n      tag_303\n      jump\t// in\n    tag_464:\n        /* \"#utility.yul\":17744:17830   */\n      swap1\n      pop\n        /* \"#utility.yul\":17524:17837   */\n      swap3\n      swap2\n      pop\n      pop\n      jump\t// out\n\n    auxdata: 0xa264697066735822122048b54b8f3606dd1f3abd2bd0ea6c3e2c3e3acbffd92273fafd65df71d99f8d6464736f6c634300080b0033\n}\n",
				"bytecode": {
					"linkReferences": {},
					"object": "60806040523480156200001157600080fd5b506040516200224138038062002241833981810160405281019062000037919062000244565b60016000819055506200005f620000536200010c60201b60201c565b6200011460201b60201c565b600f600381905550605060048190555080600b60006101000a81548173ffffffffffffffffffffffffffffffffffffffff021916908373ffffffffffffffffffffffffffffffffffffffff1602179055506006600260006276a70081526020019081526020016000208190555060076002600062ed4e008152602001908152602001600020819055506008600260006301e133808152602001908152602001600020819055505062000276565b600033905090565b6000600160009054906101000a900473ffffffffffffffffffffffffffffffffffffffff16905081600160006101000a81548173ffffffffffffffffffffffffffffffffffffffff021916908373ffffffffffffffffffffffffffffffffffffffff1602179055508173ffffffffffffffffffffffffffffffffffffffff168173ffffffffffffffffffffffffffffffffffffffff167f8be0079c531659141344cd1fd0a4f28419497f9722a3daafe3b4186f6b6457e060405160405180910390a35050565b600080fd5b600073ffffffffffffffffffffffffffffffffffffffff82169050919050565b60006200020c82620001df565b9050919050565b6200021e81620001ff565b81146200022a57600080fd5b50565b6000815190506200023e8162000213565b92915050565b6000602082840312156200025d576200025c620001da565b5b60006200026d848285016200022d565b91505092915050565b611fbb80620002866000396000f3fe608060405234801561001057600080fd5b50600436106101215760003560e01c8063a143a5f2116100ad578063c63aa3e711610071578063c63aa3e7146102c0578063cb79c2e1146102de578063d2a569c3146102fc578063d5dbdf1b14610306578063f2fde38b1461032257610121565b8063a143a5f214610208578063a3ec138d14610238578063b5d9df8314610268578063b87da76d14610298578063bed9d861146102b657610121565b80637b0472f0116100f45780637b0472f0146101765780638891cf0d146101925780638c63f97f146101b05780638c8e8fee146101cc5780638da5cb5b146101ea57610121565b806310486b6a146101265780635b88349d146101445780635f5300ff1461014e578063715018a61461016c575b600080fd5b61012e61033e565b60405161013b9190611740565b60405180910390f35b61014c610513565b005b6101566105fa565b604051610163919061176b565b60405180910390f35b610174610600565b005b610190600480360381019061018b91906117b7565b610688565b005b61019a61098e565b6040516101a7919061176b565b60405180910390f35b6101ca60048036038101906101c591906117f7565b610994565b005b6101d4610a8c565b6040516101e19190611865565b60405180910390f35b6101f2610ab2565b6040516101ff9190611865565b60405180910390f35b610222600480360381019061021d91906117f7565b610adc565b60405161022f919061176b565b60405180910390f35b610252600480360381019061024d91906118ac565b610af4565b60405161025f91906118f4565b60405180910390f35b610282600480360381019061027d91906117f7565b610b1f565b60405161028f919061176b565b60405180910390f35b6102a0610b42565b6040516102ad919061176b565b60405180910390f35b6102be610b48565b005b6102c8610dd9565b6040516102d5919061176b565b60405180910390f35b6102e6610de1565b6040516102f3919061176b565b60405180910390f35b610304610de7565b005b610320600480360381019061031b91906117f7565b610e6c565b005b61033c600480360381019061033791906118ac565b610f64565b005b6103466115f2565b6000600c60003373ffffffffffffffffffffffffffffffffffffffff1673ffffffffffffffffffffffffffffffffffffffff1681526020019081526020016000206040518060e001604052908160008201548152602001600182015481526020016002820154815260200160038201548152602001600482015481526020016005820154815260200160068201548152505090506000816000015111610418576040517fb018f08700000000000000000000000000000000000000000000000000000000815260040160405180910390fd5b60006040518060600160405280600081526020016000815260200183815250905060006104448361105c565b90504282604001516060015111156104a4576103e860035482610467919061193e565b61047191906119c7565b6103e86003548560000151610486919061193e565b61049091906119c7565b61049a91906119f8565b8260200181815250505b60006104b38460c00151610b1f565b11156104de5760006104c884600001516110bc565b905080836040015160a0018181525050506104ee565b6000826040015160a00181815250505b8082604001516080018181525050826000015182600001818152505081935050505090565b6000600c60003373ffffffffffffffffffffffffffffffffffffffff1673ffffffffffffffffffffffffffffffffffffffff16815260200190815260200160002090506000816000015411156105f75760006105728260060154610b1f565b14156105aa576040517fdd8456cc00000000000000000000000000000000000000000000000000000000815260040160405180910390fd5b600081600501819055504281600601819055506105f6600b60009054906101000a900473ffffffffffffffffffffffffffffffffffffffff16336105f184600001546110bc565b6110ef565b5b50565b60085481565b610608611175565b73ffffffffffffffffffffffffffffffffffffffff16610626610ab2565b73ffffffffffffffffffffffffffffffffffffffff161461067c576040517f08c379a000000000000000000000000000000000000000000000000000000000815260040161067390611aab565b60405180910390fd5b610686600061117d565b565b600260005414156106ce576040517f08c379a00000000000000000000000000000000000000000000000000000000081526004016106c590611b17565b60405180910390fd5b60026000819055506000600c60003373ffffffffffffffffffffffffffffffffffffffff1673ffffffffffffffffffffffffffffffffffffffff1681526020019081526020016000206000015414610752576040517f04462d2700000000000000000000000000000000000000000000000000000000815260040160405180910390fd5b6000600260008381526020019081526020016000205414156107a0576040517f95377be400000000000000000000000000000000000000000000000000000000815260040160405180910390fd5b6001600860008282546107b391906119f8565b925050819055506001600960003373ffffffffffffffffffffffffffffffffffffffff1673ffffffffffffffffffffffffffffffffffffffff16815260200190815260200160002060000160006101000a81548160ff02191690831515021790555060004290506040518060e0016040528084815260200182815260200160026000858152602001908152602001600020548152602001828461085691906119f8565b815260200160008152602001600081526020016000815250600c60003373ffffffffffffffffffffffffffffffffffffffff1673ffffffffffffffffffffffffffffffffffffffff168152602001908152602001600020600082015181600001556020820151816001015560408201518160020155606082015181600301556080820151816004015560a0820151816005015560c08201518160060155905050610924600b60009054906101000a900473ffffffffffffffffffffffffffffffffffffffff16333086611243565b3373ffffffffffffffffffffffffffffffffffffffff167fb4caaf29adda3eefee3ad552a8e85058589bf834c7466cae4ee58787f70589ed8483848661096a91906119f8565b60405161097993929190611b37565b60405180910390a25060016000819055505050565b60045481565b61099c611175565b73ffffffffffffffffffffffffffffffffffffffff166109ba610ab2565b73ffffffffffffffffffffffffffffffffffffffff1614610a10576040517f08c379a0000000000000000000000000000000000000000000000000000000008152600401610a0790611aab565b60405180910390fd5b601e811115610a4b576040517ff1a470d700000000000000000000000000000000000000000000000000000000815260040160405180910390fd5b806003819055507fcfa4f4cf1cd64d13a167a8e75605e0c0c9d6700e903d17c5dc11f593254a04a981604051610a81919061176b565b60405180910390a150565b600b60009054906101000a900473ffffffffffffffffffffffffffffffffffffffff1681565b6000600160009054906101000a900473ffffffffffffffffffffffffffffffffffffffff16905090565b600a6020528060005260406000206000915090505481565b60096020528060005260406000206000915090508060000160009054906101000a900460ff16905081565b600062093a808242610b319190611b6e565b610b3b91906119c7565b9050919050565b60055481565b60026000541415610b8e576040517f08c379a0000000000000000000000000000000000000000000000000000000008152600401610b8590611b17565b60405180910390fd5b60026000819055506000600c60003373ffffffffffffffffffffffffffffffffffffffff1673ffffffffffffffffffffffffffffffffffffffff1681526020019081526020016000206040518060e001604052908160008201548152602001600182015481526020016002820154815260200160038201548152602001600482015481526020016005820154815260200160068201548152505090506000610c358261105c565b9050600c60003373ffffffffffffffffffffffffffffffffffffffff1673ffffffffffffffffffffffffffffffffffffffff1681526020019081526020016000206000808201600090556001820160009055600282016000905560038201600090556004820160009055600582016000905560068201600090555050600160086000828254610cc49190611b6e565b92505081905550600960003373ffffffffffffffffffffffffffffffffffffffff1673ffffffffffffffffffffffffffffffffffffffff1681526020019081526020016000206001016000600754815260200190815260200160002060006101000a81549060ff02191690554282606001511115610d9057600080610d4d8460000151846112cc565b91509150610d89600b60009054906101000a900473ffffffffffffffffffffffffffffffffffffffff16338385610d8491906119f8565b6110ef565b5050610dcd565b610dcc600b60009054906101000a900473ffffffffffffffffffffffffffffffffffffffff1633838560000151610dc791906119f8565b6110ef565b5b50506001600081905550565b600042905090565b60035481565b610def611175565b73ffffffffffffffffffffffffffffffffffffffff16610e0d610ab2565b73ffffffffffffffffffffffffffffffffffffffff1614610e63576040517f08c379a0000000000000000000000000000000000000000000000000000000008152600401610e5a90611aab565b60405180910390fd5b42600581905550565b610e74611175565b73ffffffffffffffffffffffffffffffffffffffff16610e92610ab2565b73ffffffffffffffffffffffffffffffffffffffff1614610ee8576040517f08c379a0000000000000000000000000000000000000000000000000000000008152600401610edf90611aab565b60405180910390fd5b60c8811115610f23576040517fa552cf1000000000000000000000000000000000000000000000000000000000815260040160405180910390fd5b806004819055507fcc672f1026b958c0cfbfdd89ebe8ddcbc127f16ec24da6c2c7a4de26a8b1857e81604051610f59919061176b565b60405180910390a150565b610f6c611175565b73ffffffffffffffffffffffffffffffffffffffff16610f8a610ab2565b73ffffffffffffffffffffffffffffffffffffffff1614610fe0576040517f08c379a0000000000000000000000000000000000000000000000000000000008152600401610fd790611aab565b60405180910390fd5b600073ffffffffffffffffffffffffffffffffffffffff168173ffffffffffffffffffffffffffffffffffffffff161415611050576040517f08c379a000000000000000000000000000000000000000000000000000000000815260040161104790611c14565b60405180910390fd5b6110598161117d565b50565b6000808260000151141561107357600090506110b7565b6a52b7d2dcc80cd2e400000061108c836020015161133c565b836040015184600001516110a0919061193e565b6110aa919061193e565b6110b491906119c7565b90505b919050565b60006301dfe2006103e8600454846110d4919061193e565b6110de91906119c7565b6110e891906119c7565b9050919050565b6111708363a9059cbb60e01b848460405160240161110e929190611c34565b604051602081830303815290604052907bffffffffffffffffffffffffffffffffffffffffffffffffffffffff19166020820180517bffffffffffffffffffffffffffffffffffffffffffffffffffffffff8381831617835250505050611375565b505050565b600033905090565b6000600160009054906101000a900473ffffffffffffffffffffffffffffffffffffffff16905081600160006101000a81548173ffffffffffffffffffffffffffffffffffffffff021916908373ffffffffffffffffffffffffffffffffffffffff1602179055508173ffffffffffffffffffffffffffffffffffffffff168173ffffffffffffffffffffffffffffffffffffffff167f8be0079c531659141344cd1fd0a4f28419497f9722a3daafe3b4186f6b6457e060405160405180910390a35050565b6112c6846323b872dd60e01b85858560405160240161126493929190611c5d565b604051602081830303815290604052907bffffffffffffffffffffffffffffffffffffffffffffffffffffffff19166020820180517bffffffffffffffffffffffffffffffffffffffffffffffffffffffff8381831617835250505050611375565b50505050565b60008060008414156112e45760008091509150611335565b6103e8600354856112f5919061193e565b6112ff91906119c7565b8461130a9190611b6e565b6103e86003548561131b919061193e565b61132591906119c7565b846113309190611b6e565b915091505b9250929050565b60006301e1338069d3c21bcecceda1000000834261135a9190611b6e565b611364919061193e565b61136e91906119c7565b9050919050565b60006113d7826040518060400160405280602081526020017f5361666545524332303a206c6f772d6c6576656c2063616c6c206661696c65648152508573ffffffffffffffffffffffffffffffffffffffff1661143c9092919063ffffffff16565b905060008151111561143757808060200190518101906113f79190611cc0565b611436576040517f08c379a000000000000000000000000000000000000000000000000000000000815260040161142d90611d5f565b60405180910390fd5b5b505050565b606061144b8484600085611454565b90509392505050565b606082471015611499576040517f08c379a000000000000000000000000000000000000000000000000000000000815260040161149090611df1565b60405180910390fd5b6114a285611568565b6114e1576040517f08c379a00000000000000000000000000000000000000000000000000000000081526004016114d890611e5d565b60405180910390fd5b6000808673ffffffffffffffffffffffffffffffffffffffff16858760405161150a9190611ef7565b60006040518083038185875af1925050503d8060008114611547576040519150601f19603f3d011682016040523d82523d6000602084013e61154c565b606091505b509150915061155c82828661158b565b92505050949350505050565b6000808273ffffffffffffffffffffffffffffffffffffffff163b119050919050565b6060831561159b578290506115eb565b6000835111156115ae5782518084602001fd5b816040517f08c379a00000000000000000000000000000000000000000000000000000000081526004016115e29190611f63565b60405180910390fd5b9392505050565b60405180606001604052806000815260200160008152602001611613611619565b81525090565b6040518060e00160405280600081526020016000815260200160008152602001600081526020016000815260200160008152602001600081525090565b6000819050919050565b61166981611656565b82525050565b60e0820160008201516116856000850182611660565b5060208201516116986020850182611660565b5060408201516116ab6040850182611660565b5060608201516116be6060850182611660565b5060808201516116d16080850182611660565b5060a08201516116e460a0850182611660565b5060c08201516116f760c0850182611660565b50505050565b610120820160008201516117146000850182611660565b5060208201516117276020850182611660565b50604082015161173a604085018261166f565b50505050565b60006101208201905061175660008301846116fd565b92915050565b61176581611656565b82525050565b6000602082019050611780600083018461175c565b92915050565b600080fd5b61179481611656565b811461179f57600080fd5b50565b6000813590506117b18161178b565b92915050565b600080604083850312156117ce576117cd611786565b5b60006117dc858286016117a2565b92505060206117ed858286016117a2565b9150509250929050565b60006020828403121561180d5761180c611786565b5b600061181b848285016117a2565b91505092915050565b600073ffffffffffffffffffffffffffffffffffffffff82169050919050565b600061184f82611824565b9050919050565b61185f81611844565b82525050565b600060208201905061187a6000830184611856565b92915050565b61188981611844565b811461189457600080fd5b50565b6000813590506118a681611880565b92915050565b6000602082840312156118c2576118c1611786565b5b60006118d084828501611897565b91505092915050565b60008115159050919050565b6118ee816118d9565b82525050565b600060208201905061190960008301846118e5565b92915050565b7f4e487b7100000000000000000000000000000000000000000000000000000000600052601160045260246000fd5b600061194982611656565b915061195483611656565b9250817fffffffffffffffffffffffffffffffffffffffffffffffffffffffffffffffff048311821515161561198d5761198c61190f565b5b828202905092915050565b7f4e487b7100000000000000000000000000000000000000000000000000000000600052601260045260246000fd5b60006119d282611656565b91506119dd83611656565b9250826119ed576119ec611998565b5b828204905092915050565b6000611a0382611656565b9150611a0e83611656565b9250827fffffffffffffffffffffffffffffffffffffffffffffffffffffffffffffffff03821115611a4357611a4261190f565b5b828201905092915050565b600082825260208201905092915050565b7f4f776e61626c653a2063616c6c6572206973206e6f7420746865206f776e6572600082015250565b6000611a95602083611a4e565b9150611aa082611a5f565b602082019050919050565b60006020820190508181036000830152611ac481611a88565b9050919050565b7f5265656e7472616e637947756172643a207265656e7472616e742063616c6c00600082015250565b6000611b01601f83611a4e565b9150611b0c82611acb565b602082019050919050565b60006020820190508181036000830152611b3081611af4565b9050919050565b6000606082019050611b4c600083018661175c565b611b59602083018561175c565b611b66604083018461175c565b949350505050565b6000611b7982611656565b9150611b8483611656565b925082821015611b9757611b9661190f565b5b828203905092915050565b7f4f776e61626c653a206e6577206f776e657220697320746865207a65726f206160008201527f6464726573730000000000000000000000000000000000000000000000000000602082015250565b6000611bfe602683611a4e565b9150611c0982611ba2565b604082019050919050565b60006020820190508181036000830152611c2d81611bf1565b9050919050565b6000604082019050611c496000830185611856565b611c56602083018461175c565b9392505050565b6000606082019050611c726000830186611856565b611c7f6020830185611856565b611c8c604083018461175c565b949350505050565b611c9d816118d9565b8114611ca857600080fd5b50565b600081519050611cba81611c94565b92915050565b600060208284031215611cd657611cd5611786565b5b6000611ce484828501611cab565b91505092915050565b7f5361666545524332303a204552433230206f7065726174696f6e20646964206e60008201527f6f74207375636365656400000000000000000000000000000000000000000000602082015250565b6000611d49602a83611a4e565b9150611d5482611ced565b604082019050919050565b60006020820190508181036000830152611d7881611d3c565b9050919050565b7f416464726573733a20696e73756666696369656e742062616c616e636520666f60008201527f722063616c6c0000000000000000000000000000000000000000000000000000602082015250565b6000611ddb602683611a4e565b9150611de682611d7f565b604082019050919050565b60006020820190508181036000830152611e0a81611dce565b9050919050565b7f416464726573733a2063616c6c20746f206e6f6e2d636f6e7472616374000000600082015250565b6000611e47601d83611a4e565b9150611e5282611e11565b602082019050919050565b60006020820190508181036000830152611e7681611e3a565b9050919050565b600081519050919050565b600081905092915050565b60005b83811015611eb1578082015181840152602081019050611e96565b83811115611ec0576000848401525b50505050565b6000611ed182611e7d565b611edb8185611e88565b9350611eeb818560208601611e93565b80840191505092915050565b6000611f038284611ec6565b915081905092915050565b600081519050919050565b6000601f19601f8301169050919050565b6000611f3582611f0e565b611f3f8185611a4e565b9350611f4f818560208601611e93565b611f5881611f19565b840191505092915050565b60006020820190508181036000830152611f7d8184611f2a565b90509291505056fea264697066735822122048b54b8f3606dd1f3abd2bd0ea6c3e2c3e3acbffd92273fafd65df71d99f8d6464736f6c634300080b0033",
					"opcodes": "PUSH1 0x80 PUSH1 0x40 MSTORE CALLVALUE DUP1 ISZERO PUSH3 0x11 JUMPI PUSH1 0x0 DUP1 REVERT JUMPDEST POP PUSH1 0x40 MLOAD PUSH3 0x2241 CODESIZE SUB DUP1 PUSH3 0x2241 DUP4 CODECOPY DUP2 DUP2 ADD PUSH1 0x40 MSTORE DUP2 ADD SWAP1 PUSH3 0x37 SWAP2 SWAP1 PUSH3 0x244 JUMP JUMPDEST PUSH1 0x1 PUSH1 0x0 DUP2 SWAP1 SSTORE POP PUSH3 0x5F PUSH3 0x53 PUSH3 0x10C PUSH1 0x20 SHL PUSH1 0x20 SHR JUMP JUMPDEST PUSH3 0x114 PUSH1 0x20 SHL PUSH1 0x20 SHR JUMP JUMPDEST PUSH1 0xF PUSH1 0x3 DUP2 SWAP1 SSTORE POP PUSH1 0x50 PUSH1 0x4 DUP2 SWAP1 SSTORE POP DUP1 PUSH1 0xB PUSH1 0x0 PUSH2 0x100 EXP DUP2 SLOAD DUP2 PUSH20 0xFFFFFFFFFFFFFFFFFFFFFFFFFFFFFFFFFFFFFFFF MUL NOT AND SWAP1 DUP4 PUSH20 0xFFFFFFFFFFFFFFFFFFFFFFFFFFFFFFFFFFFFFFFF AND MUL OR SWAP1 SSTORE POP PUSH1 0x6 PUSH1 0x2 PUSH1 0x0 PUSH3 0x76A700 DUP2 MSTORE PUSH1 0x20 ADD SWAP1 DUP2 MSTORE PUSH1 0x20 ADD PUSH1 0x0 KECCAK256 DUP2 SWAP1 SSTORE POP PUSH1 0x7 PUSH1 0x2 PUSH1 0x0 PUSH3 0xED4E00 DUP2 MSTORE PUSH1 0x20 ADD SWAP1 DUP2 MSTORE PUSH1 0x20 ADD PUSH1 0x0 KECCAK256 DUP2 SWAP1 SSTORE POP PUSH1 0x8 PUSH1 0x2 PUSH1 0x0 PUSH4 0x1E13380 DUP2 MSTORE PUSH1 0x20 ADD SWAP1 DUP2 MSTORE PUSH1 0x20 ADD PUSH1 0x0 KECCAK256 DUP2 SWAP1 SSTORE POP POP PUSH3 0x276 JUMP JUMPDEST PUSH1 0x0 CALLER SWAP1 POP SWAP1 JUMP JUMPDEST PUSH1 0x0 PUSH1 0x1 PUSH1 0x0 SWAP1 SLOAD SWAP1 PUSH2 0x100 EXP SWAP1 DIV PUSH20 0xFFFFFFFFFFFFFFFFFFFFFFFFFFFFFFFFFFFFFFFF AND SWAP1 POP DUP2 PUSH1 0x1 PUSH1 0x0 PUSH2 0x100 EXP DUP2 SLOAD DUP2 PUSH20 0xFFFFFFFFFFFFFFFFFFFFFFFFFFFFFFFFFFFFFFFF MUL NOT AND SWAP1 DUP4 PUSH20 0xFFFFFFFFFFFFFFFFFFFFFFFFFFFFFFFFFFFFFFFF AND MUL OR SWAP1 SSTORE POP DUP2 PUSH20 0xFFFFFFFFFFFFFFFFFFFFFFFFFFFFFFFFFFFFFFFF AND DUP2 PUSH20 0xFFFFFFFFFFFFFFFFFFFFFFFFFFFFFFFFFFFFFFFF AND PUSH32 0x8BE0079C531659141344CD1FD0A4F28419497F9722A3DAAFE3B4186F6B6457E0 PUSH1 0x40 MLOAD PUSH1 0x40 MLOAD DUP1 SWAP2 SUB SWAP1 LOG3 POP POP JUMP JUMPDEST PUSH1 0x0 DUP1 REVERT JUMPDEST PUSH1 0x0 PUSH20 0xFFFFFFFFFFFFFFFFFFFFFFFFFFFFFFFFFFFFFFFF DUP3 AND SWAP1 POP SWAP2 SWAP1 POP JUMP JUMPDEST PUSH1 0x0 PUSH3 0x20C DUP3 PUSH3 0x1DF JUMP JUMPDEST SWAP1 POP SWAP2 SWAP1 POP JUMP JUMPDEST PUSH3 0x21E DUP2 PUSH3 0x1FF JUMP JUMPDEST DUP2 EQ PUSH3 0x22A JUMPI PUSH1 0x0 DUP1 REVERT JUMPDEST POP JUMP JUMPDEST PUSH1 0x0 DUP2 MLOAD SWAP1 POP PUSH3 0x23E DUP2 PUSH3 0x213 JUMP JUMPDEST SWAP3 SWAP2 POP POP JUMP JUMPDEST PUSH1 0x0 PUSH1 0x20 DUP3 DUP5 SUB SLT ISZERO PUSH3 0x25D JUMPI PUSH3 0x25C PUSH3 0x1DA JUMP JUMPDEST JUMPDEST PUSH1 0x0 PUSH3 0x26D DUP5 DUP3 DUP6 ADD PUSH3 0x22D JUMP JUMPDEST SWAP2 POP POP SWAP3 SWAP2 POP POP JUMP JUMPDEST PUSH2 0x1FBB DUP1 PUSH3 0x286 PUSH1 0x0 CODECOPY PUSH1 0x0 RETURN INVALID PUSH1 0x80 PUSH1 0x40 MSTORE CALLVALUE DUP1 ISZERO PUSH2 0x10 JUMPI PUSH1 0x0 DUP1 REVERT JUMPDEST POP PUSH1 0x4 CALLDATASIZE LT PUSH2 0x121 JUMPI PUSH1 0x0 CALLDATALOAD PUSH1 0xE0 SHR DUP1 PUSH4 0xA143A5F2 GT PUSH2 0xAD JUMPI DUP1 PUSH4 0xC63AA3E7 GT PUSH2 0x71 JUMPI DUP1 PUSH4 0xC63AA3E7 EQ PUSH2 0x2C0 JUMPI DUP1 PUSH4 0xCB79C2E1 EQ PUSH2 0x2DE JUMPI DUP1 PUSH4 0xD2A569C3 EQ PUSH2 0x2FC JUMPI DUP1 PUSH4 0xD5DBDF1B EQ PUSH2 0x306 JUMPI DUP1 PUSH4 0xF2FDE38B EQ PUSH2 0x322 JUMPI PUSH2 0x121 JUMP JUMPDEST DUP1 PUSH4 0xA143A5F2 EQ PUSH2 0x208 JUMPI DUP1 PUSH4 0xA3EC138D EQ PUSH2 0x238 JUMPI DUP1 PUSH4 0xB5D9DF83 EQ PUSH2 0x268 JUMPI DUP1 PUSH4 0xB87DA76D EQ PUSH2 0x298 JUMPI DUP1 PUSH4 0xBED9D861 EQ PUSH2 0x2B6 JUMPI PUSH2 0x121 JUMP JUMPDEST DUP1 PUSH4 0x7B0472F0 GT PUSH2 0xF4 JUMPI DUP1 PUSH4 0x7B0472F0 EQ PUSH2 0x176 JUMPI DUP1 PUSH4 0x8891CF0D EQ PUSH2 0x192 JUMPI DUP1 PUSH4 0x8C63F97F EQ PUSH2 0x1B0 JUMPI DUP1 PUSH4 0x8C8E8FEE EQ PUSH2 0x1CC JUMPI DUP1 PUSH4 0x8DA5CB5B EQ PUSH2 0x1EA JUMPI PUSH2 0x121 JUMP JUMPDEST DUP1 PUSH4 0x10486B6A EQ PUSH2 0x126 JUMPI DUP1 PUSH4 0x5B88349D EQ PUSH2 0x144 JUMPI DUP1 PUSH4 0x5F5300FF EQ PUSH2 0x14E JUMPI DUP1 PUSH4 0x715018A6 EQ PUSH2 0x16C JUMPI JUMPDEST PUSH1 0x0 DUP1 REVERT JUMPDEST PUSH2 0x12E PUSH2 0x33E JUMP JUMPDEST PUSH1 0x40 MLOAD PUSH2 0x13B SWAP2 SWAP1 PUSH2 0x1740 JUMP JUMPDEST PUSH1 0x40 MLOAD DUP1 SWAP2 SUB SWAP1 RETURN JUMPDEST PUSH2 0x14C PUSH2 0x513 JUMP JUMPDEST STOP JUMPDEST PUSH2 0x156 PUSH2 0x5FA JUMP JUMPDEST PUSH1 0x40 MLOAD PUSH2 0x163 SWAP2 SWAP1 PUSH2 0x176B JUMP JUMPDEST PUSH1 0x40 MLOAD DUP1 SWAP2 SUB SWAP1 RETURN JUMPDEST PUSH2 0x174 PUSH2 0x600 JUMP JUMPDEST STOP JUMPDEST PUSH2 0x190 PUSH1 0x4 DUP1 CALLDATASIZE SUB DUP2 ADD SWAP1 PUSH2 0x18B SWAP2 SWAP1 PUSH2 0x17B7 JUMP JUMPDEST PUSH2 0x688 JUMP JUMPDEST STOP JUMPDEST PUSH2 0x19A PUSH2 0x98E JUMP JUMPDEST PUSH1 0x40 MLOAD PUSH2 0x1A7 SWAP2 SWAP1 PUSH2 0x176B JUMP JUMPDEST PUSH1 0x40 MLOAD DUP1 SWAP2 SUB SWAP1 RETURN JUMPDEST PUSH2 0x1CA PUSH1 0x4 DUP1 CALLDATASIZE SUB DUP2 ADD SWAP1 PUSH2 0x1C5 SWAP2 SWAP1 PUSH2 0x17F7 JUMP JUMPDEST PUSH2 0x994 JUMP JUMPDEST STOP JUMPDEST PUSH2 0x1D4 PUSH2 0xA8C JUMP JUMPDEST PUSH1 0x40 MLOAD PUSH2 0x1E1 SWAP2 SWAP1 PUSH2 0x1865 JUMP JUMPDEST PUSH1 0x40 MLOAD DUP1 SWAP2 SUB SWAP1 RETURN JUMPDEST PUSH2 0x1F2 PUSH2 0xAB2 JUMP JUMPDEST PUSH1 0x40 MLOAD PUSH2 0x1FF SWAP2 SWAP1 PUSH2 0x1865 JUMP JUMPDEST PUSH1 0x40 MLOAD DUP1 SWAP2 SUB SWAP1 RETURN JUMPDEST PUSH2 0x222 PUSH1 0x4 DUP1 CALLDATASIZE SUB DUP2 ADD SWAP1 PUSH2 0x21D SWAP2 SWAP1 PUSH2 0x17F7 JUMP JUMPDEST PUSH2 0xADC JUMP JUMPDEST PUSH1 0x40 MLOAD PUSH2 0x22F SWAP2 SWAP1 PUSH2 0x176B JUMP JUMPDEST PUSH1 0x40 MLOAD DUP1 SWAP2 SUB SWAP1 RETURN JUMPDEST PUSH2 0x252 PUSH1 0x4 DUP1 CALLDATASIZE SUB DUP2 ADD SWAP1 PUSH2 0x24D SWAP2 SWAP1 PUSH2 0x18AC JUMP JUMPDEST PUSH2 0xAF4 JUMP JUMPDEST PUSH1 0x40 MLOAD PUSH2 0x25F SWAP2 SWAP1 PUSH2 0x18F4 JUMP JUMPDEST PUSH1 0x40 MLOAD DUP1 SWAP2 SUB SWAP1 RETURN JUMPDEST PUSH2 0x282 PUSH1 0x4 DUP1 CALLDATASIZE SUB DUP2 ADD SWAP1 PUSH2 0x27D SWAP2 SWAP1 PUSH2 0x17F7 JUMP JUMPDEST PUSH2 0xB1F JUMP JUMPDEST PUSH1 0x40 MLOAD PUSH2 0x28F SWAP2 SWAP1 PUSH2 0x176B JUMP JUMPDEST PUSH1 0x40 MLOAD DUP1 SWAP2 SUB SWAP1 RETURN JUMPDEST PUSH2 0x2A0 PUSH2 0xB42 JUMP JUMPDEST PUSH1 0x40 MLOAD PUSH2 0x2AD SWAP2 SWAP1 PUSH2 0x176B JUMP JUMPDEST PUSH1 0x40 MLOAD DUP1 SWAP2 SUB SWAP1 RETURN JUMPDEST PUSH2 0x2BE PUSH2 0xB48 JUMP JUMPDEST STOP JUMPDEST PUSH2 0x2C8 PUSH2 0xDD9 JUMP JUMPDEST PUSH1 0x40 MLOAD PUSH2 0x2D5 SWAP2 SWAP1 PUSH2 0x176B JUMP JUMPDEST PUSH1 0x40 MLOAD DUP1 SWAP2 SUB SWAP1 RETURN JUMPDEST PUSH2 0x2E6 PUSH2 0xDE1 JUMP JUMPDEST PUSH1 0x40 MLOAD PUSH2 0x2F3 SWAP2 SWAP1 PUSH2 0x176B JUMP JUMPDEST PUSH1 0x40 MLOAD DUP1 SWAP2 SUB SWAP1 RETURN JUMPDEST PUSH2 0x304 PUSH2 0xDE7 JUMP JUMPDEST STOP JUMPDEST PUSH2 0x320 PUSH1 0x4 DUP1 CALLDATASIZE SUB DUP2 ADD SWAP1 PUSH2 0x31B SWAP2 SWAP1 PUSH2 0x17F7 JUMP JUMPDEST PUSH2 0xE6C JUMP JUMPDEST STOP JUMPDEST PUSH2 0x33C PUSH1 0x4 DUP1 CALLDATASIZE SUB DUP2 ADD SWAP1 PUSH2 0x337 SWAP2 SWAP1 PUSH2 0x18AC JUMP JUMPDEST PUSH2 0xF64 JUMP JUMPDEST STOP JUMPDEST PUSH2 0x346 PUSH2 0x15F2 JUMP JUMPDEST PUSH1 0x0 PUSH1 0xC PUSH1 0x0 CALLER PUSH20 0xFFFFFFFFFFFFFFFFFFFFFFFFFFFFFFFFFFFFFFFF AND PUSH20 0xFFFFFFFFFFFFFFFFFFFFFFFFFFFFFFFFFFFFFFFF AND DUP2 MSTORE PUSH1 0x20 ADD SWAP1 DUP2 MSTORE PUSH1 0x20 ADD PUSH1 0x0 KECCAK256 PUSH1 0x40 MLOAD DUP1 PUSH1 0xE0 ADD PUSH1 0x40 MSTORE SWAP1 DUP2 PUSH1 0x0 DUP3 ADD SLOAD DUP2 MSTORE PUSH1 0x20 ADD PUSH1 0x1 DUP3 ADD SLOAD DUP2 MSTORE PUSH1 0x20 ADD PUSH1 0x2 DUP3 ADD SLOAD DUP2 MSTORE PUSH1 0x20 ADD PUSH1 0x3 DUP3 ADD SLOAD DUP2 MSTORE PUSH1 0x20 ADD PUSH1 0x4 DUP3 ADD SLOAD DUP2 MSTORE PUSH1 0x20 ADD PUSH1 0x5 DUP3 ADD SLOAD DUP2 MSTORE PUSH1 0x20 ADD PUSH1 0x6 DUP3 ADD SLOAD DUP2 MSTORE POP POP SWAP1 POP PUSH1 0x0 DUP2 PUSH1 0x0 ADD MLOAD GT PUSH2 0x418 JUMPI PUSH1 0x40 MLOAD PUSH32 0xB018F08700000000000000000000000000000000000000000000000000000000 DUP2 MSTORE PUSH1 0x4 ADD PUSH1 0x40 MLOAD DUP1 SWAP2 SUB SWAP1 REVERT JUMPDEST PUSH1 0x0 PUSH1 0x40 MLOAD DUP1 PUSH1 0x60 ADD PUSH1 0x40 MSTORE DUP1 PUSH1 0x0 DUP2 MSTORE PUSH1 0x20 ADD PUSH1 0x0 DUP2 MSTORE PUSH1 0x20 ADD DUP4 DUP2 MSTORE POP SWAP1 POP PUSH1 0x0 PUSH2 0x444 DUP4 PUSH2 0x105C JUMP JUMPDEST SWAP1 POP TIMESTAMP DUP3 PUSH1 0x40 ADD MLOAD PUSH1 0x60 ADD MLOAD GT ISZERO PUSH2 0x4A4 JUMPI PUSH2 0x3E8 PUSH1 0x3 SLOAD DUP3 PUSH2 0x467 SWAP2 SWAP1 PUSH2 0x193E JUMP JUMPDEST PUSH2 0x471 SWAP2 SWAP1 PUSH2 0x19C7 JUMP JUMPDEST PUSH2 0x3E8 PUSH1 0x3 SLOAD DUP6 PUSH1 0x0 ADD MLOAD PUSH2 0x486 SWAP2 SWAP1 PUSH2 0x193E JUMP JUMPDEST PUSH2 0x490 SWAP2 SWAP1 PUSH2 0x19C7 JUMP JUMPDEST PUSH2 0x49A SWAP2 SWAP1 PUSH2 0x19F8 JUMP JUMPDEST DUP3 PUSH1 0x20 ADD DUP2 DUP2 MSTORE POP POP JUMPDEST PUSH1 0x0 PUSH2 0x4B3 DUP5 PUSH1 0xC0 ADD MLOAD PUSH2 0xB1F JUMP JUMPDEST GT ISZERO PUSH2 0x4DE JUMPI PUSH1 0x0 PUSH2 0x4C8 DUP5 PUSH1 0x0 ADD MLOAD PUSH2 0x10BC JUMP JUMPDEST SWAP1 POP DUP1 DUP4 PUSH1 0x40 ADD MLOAD PUSH1 0xA0 ADD DUP2 DUP2 MSTORE POP POP POP PUSH2 0x4EE JUMP JUMPDEST PUSH1 0x0 DUP3 PUSH1 0x40 ADD MLOAD PUSH1 0xA0 ADD DUP2 DUP2 MSTORE POP POP JUMPDEST DUP1 DUP3 PUSH1 0x40 ADD MLOAD PUSH1 0x80 ADD DUP2 DUP2 MSTORE POP POP DUP3 PUSH1 0x0 ADD MLOAD DUP3 PUSH1 0x0 ADD DUP2 DUP2 MSTORE POP POP DUP2 SWAP4 POP POP POP POP SWAP1 JUMP JUMPDEST PUSH1 0x0 PUSH1 0xC PUSH1 0x0 CALLER PUSH20 0xFFFFFFFFFFFFFFFFFFFFFFFFFFFFFFFFFFFFFFFF AND PUSH20 0xFFFFFFFFFFFFFFFFFFFFFFFFFFFFFFFFFFFFFFFF AND DUP2 MSTORE PUSH1 0x20 ADD SWAP1 DUP2 MSTORE PUSH1 0x20 ADD PUSH1 0x0 KECCAK256 SWAP1 POP PUSH1 0x0 DUP2 PUSH1 0x0 ADD SLOAD GT ISZERO PUSH2 0x5F7 JUMPI PUSH1 0x0 PUSH2 0x572 DUP3 PUSH1 0x6 ADD SLOAD PUSH2 0xB1F JUMP JUMPDEST EQ ISZERO PUSH2 0x5AA JUMPI PUSH1 0x40 MLOAD PUSH32 0xDD8456CC00000000000000000000000000000000000000000000000000000000 DUP2 MSTORE PUSH1 0x4 ADD PUSH1 0x40 MLOAD DUP1 SWAP2 SUB SWAP1 REVERT JUMPDEST PUSH1 0x0 DUP2 PUSH1 0x5 ADD DUP2 SWAP1 SSTORE POP TIMESTAMP DUP2 PUSH1 0x6 ADD DUP2 SWAP1 SSTORE POP PUSH2 0x5F6 PUSH1 0xB PUSH1 0x0 SWAP1 SLOAD SWAP1 PUSH2 0x100 EXP SWAP1 DIV PUSH20 0xFFFFFFFFFFFFFFFFFFFFFFFFFFFFFFFFFFFFFFFF AND CALLER PUSH2 0x5F1 DUP5 PUSH1 0x0 ADD SLOAD PUSH2 0x10BC JUMP JUMPDEST PUSH2 0x10EF JUMP JUMPDEST JUMPDEST POP JUMP JUMPDEST PUSH1 0x8 SLOAD DUP2 JUMP JUMPDEST PUSH2 0x608 PUSH2 0x1175 JUMP JUMPDEST PUSH20 0xFFFFFFFFFFFFFFFFFFFFFFFFFFFFFFFFFFFFFFFF AND PUSH2 0x626 PUSH2 0xAB2 JUMP JUMPDEST PUSH20 0xFFFFFFFFFFFFFFFFFFFFFFFFFFFFFFFFFFFFFFFF AND EQ PUSH2 0x67C JUMPI PUSH1 0x40 MLOAD PUSH32 0x8C379A000000000000000000000000000000000000000000000000000000000 DUP2 MSTORE PUSH1 0x4 ADD PUSH2 0x673 SWAP1 PUSH2 0x1AAB JUMP JUMPDEST PUSH1 0x40 MLOAD DUP1 SWAP2 SUB SWAP1 REVERT JUMPDEST PUSH2 0x686 PUSH1 0x0 PUSH2 0x117D JUMP JUMPDEST JUMP JUMPDEST PUSH1 0x2 PUSH1 0x0 SLOAD EQ ISZERO PUSH2 0x6CE JUMPI PUSH1 0x40 MLOAD PUSH32 0x8C379A000000000000000000000000000000000000000000000000000000000 DUP2 MSTORE PUSH1 0x4 ADD PUSH2 0x6C5 SWAP1 PUSH2 0x1B17 JUMP JUMPDEST PUSH1 0x40 MLOAD DUP1 SWAP2 SUB SWAP1 REVERT JUMPDEST PUSH1 0x2 PUSH1 0x0 DUP2 SWAP1 SSTORE POP PUSH1 0x0 PUSH1 0xC PUSH1 0x0 CALLER PUSH20 0xFFFFFFFFFFFFFFFFFFFFFFFFFFFFFFFFFFFFFFFF AND PUSH20 0xFFFFFFFFFFFFFFFFFFFFFFFFFFFFFFFFFFFFFFFF AND DUP2 MSTORE PUSH1 0x20 ADD SWAP1 DUP2 MSTORE PUSH1 0x20 ADD PUSH1 0x0 KECCAK256 PUSH1 0x0 ADD SLOAD EQ PUSH2 0x752 JUMPI PUSH1 0x40 MLOAD PUSH32 0x4462D2700000000000000000000000000000000000000000000000000000000 DUP2 MSTORE PUSH1 0x4 ADD PUSH1 0x40 MLOAD DUP1 SWAP2 SUB SWAP1 REVERT JUMPDEST PUSH1 0x0 PUSH1 0x2 PUSH1 0x0 DUP4 DUP2 MSTORE PUSH1 0x20 ADD SWAP1 DUP2 MSTORE PUSH1 0x20 ADD PUSH1 0x0 KECCAK256 SLOAD EQ ISZERO PUSH2 0x7A0 JUMPI PUSH1 0x40 MLOAD PUSH32 0x95377BE400000000000000000000000000000000000000000000000000000000 DUP2 MSTORE PUSH1 0x4 ADD PUSH1 0x40 MLOAD DUP1 SWAP2 SUB SWAP1 REVERT JUMPDEST PUSH1 0x1 PUSH1 0x8 PUSH1 0x0 DUP3 DUP3 SLOAD PUSH2 0x7B3 SWAP2 SWAP1 PUSH2 0x19F8 JUMP JUMPDEST SWAP3 POP POP DUP2 SWAP1 SSTORE POP PUSH1 0x1 PUSH1 0x9 PUSH1 0x0 CALLER PUSH20 0xFFFFFFFFFFFFFFFFFFFFFFFFFFFFFFFFFFFFFFFF AND PUSH20 0xFFFFFFFFFFFFFFFFFFFFFFFFFFFFFFFFFFFFFFFF AND DUP2 MSTORE PUSH1 0x20 ADD SWAP1 DUP2 MSTORE PUSH1 0x20 ADD PUSH1 0x0 KECCAK256 PUSH1 0x0 ADD PUSH1 0x0 PUSH2 0x100 EXP DUP2 SLOAD DUP2 PUSH1 0xFF MUL NOT AND SWAP1 DUP4 ISZERO ISZERO MUL OR SWAP1 SSTORE POP PUSH1 0x0 TIMESTAMP SWAP1 POP PUSH1 0x40 MLOAD DUP1 PUSH1 0xE0 ADD PUSH1 0x40 MSTORE DUP1 DUP5 DUP2 MSTORE PUSH1 0x20 ADD DUP3 DUP2 MSTORE PUSH1 0x20 ADD PUSH1 0x2 PUSH1 0x0 DUP6 DUP2 MSTORE PUSH1 0x20 ADD SWAP1 DUP2 MSTORE PUSH1 0x20 ADD PUSH1 0x0 KECCAK256 SLOAD DUP2 MSTORE PUSH1 0x20 ADD DUP3 DUP5 PUSH2 0x856 SWAP2 SWAP1 PUSH2 0x19F8 JUMP JUMPDEST DUP2 MSTORE PUSH1 0x20 ADD PUSH1 0x0 DUP2 MSTORE PUSH1 0x20 ADD PUSH1 0x0 DUP2 MSTORE PUSH1 0x20 ADD PUSH1 0x0 DUP2 MSTORE POP PUSH1 0xC PUSH1 0x0 CALLER PUSH20 0xFFFFFFFFFFFFFFFFFFFFFFFFFFFFFFFFFFFFFFFF AND PUSH20 0xFFFFFFFFFFFFFFFFFFFFFFFFFFFFFFFFFFFFFFFF AND DUP2 MSTORE PUSH1 0x20 ADD SWAP1 DUP2 MSTORE PUSH1 0x20 ADD PUSH1 0x0 KECCAK256 PUSH1 0x0 DUP3 ADD MLOAD DUP2 PUSH1 0x0 ADD SSTORE PUSH1 0x20 DUP3 ADD MLOAD DUP2 PUSH1 0x1 ADD SSTORE PUSH1 0x40 DUP3 ADD MLOAD DUP2 PUSH1 0x2 ADD SSTORE PUSH1 0x60 DUP3 ADD MLOAD DUP2 PUSH1 0x3 ADD SSTORE PUSH1 0x80 DUP3 ADD MLOAD DUP2 PUSH1 0x4 ADD SSTORE PUSH1 0xA0 DUP3 ADD MLOAD DUP2 PUSH1 0x5 ADD SSTORE PUSH1 0xC0 DUP3 ADD MLOAD DUP2 PUSH1 0x6 ADD SSTORE SWAP1 POP POP PUSH2 0x924 PUSH1 0xB PUSH1 0x0 SWAP1 SLOAD SWAP1 PUSH2 0x100 EXP SWAP1 DIV PUSH20 0xFFFFFFFFFFFFFFFFFFFFFFFFFFFFFFFFFFFFFFFF AND CALLER ADDRESS DUP7 PUSH2 0x1243 JUMP JUMPDEST CALLER PUSH20 0xFFFFFFFFFFFFFFFFFFFFFFFFFFFFFFFFFFFFFFFF AND PUSH32 0xB4CAAF29ADDA3EEFEE3AD552A8E85058589BF834C7466CAE4EE58787F70589ED DUP5 DUP4 DUP5 DUP7 PUSH2 0x96A SWAP2 SWAP1 PUSH2 0x19F8 JUMP JUMPDEST PUSH1 0x40 MLOAD PUSH2 0x979 SWAP4 SWAP3 SWAP2 SWAP1 PUSH2 0x1B37 JUMP JUMPDEST PUSH1 0x40 MLOAD DUP1 SWAP2 SUB SWAP1 LOG2 POP PUSH1 0x1 PUSH1 0x0 DUP2 SWAP1 SSTORE POP POP POP JUMP JUMPDEST PUSH1 0x4 SLOAD DUP2 JUMP JUMPDEST PUSH2 0x99C PUSH2 0x1175 JUMP JUMPDEST PUSH20 0xFFFFFFFFFFFFFFFFFFFFFFFFFFFFFFFFFFFFFFFF AND PUSH2 0x9BA PUSH2 0xAB2 JUMP JUMPDEST PUSH20 0xFFFFFFFFFFFFFFFFFFFFFFFFFFFFFFFFFFFFFFFF AND EQ PUSH2 0xA10 JUMPI PUSH1 0x40 MLOAD PUSH32 0x8C379A000000000000000000000000000000000000000000000000000000000 DUP2 MSTORE PUSH1 0x4 ADD PUSH2 0xA07 SWAP1 PUSH2 0x1AAB JUMP JUMPDEST PUSH1 0x40 MLOAD DUP1 SWAP2 SUB SWAP1 REVERT JUMPDEST PUSH1 0x1E DUP2 GT ISZERO PUSH2 0xA4B JUMPI PUSH1 0x40 MLOAD PUSH32 0xF1A470D700000000000000000000000000000000000000000000000000000000 DUP2 MSTORE PUSH1 0x4 ADD PUSH1 0x40 MLOAD DUP1 SWAP2 SUB SWAP1 REVERT JUMPDEST DUP1 PUSH1 0x3 DUP2 SWAP1 SSTORE POP PUSH32 0xCFA4F4CF1CD64D13A167A8E75605E0C0C9D6700E903D17C5DC11F593254A04A9 DUP2 PUSH1 0x40 MLOAD PUSH2 0xA81 SWAP2 SWAP1 PUSH2 0x176B JUMP JUMPDEST PUSH1 0x40 MLOAD DUP1 SWAP2 SUB SWAP1 LOG1 POP JUMP JUMPDEST PUSH1 0xB PUSH1 0x0 SWAP1 SLOAD SWAP1 PUSH2 0x100 EXP SWAP1 DIV PUSH20 0xFFFFFFFFFFFFFFFFFFFFFFFFFFFFFFFFFFFFFFFF AND DUP2 JUMP JUMPDEST PUSH1 0x0 PUSH1 0x1 PUSH1 0x0 SWAP1 SLOAD SWAP1 PUSH2 0x100 EXP SWAP1 DIV PUSH20 0xFFFFFFFFFFFFFFFFFFFFFFFFFFFFFFFFFFFFFFFF AND SWAP1 POP SWAP1 JUMP JUMPDEST PUSH1 0xA PUSH1 0x20 MSTORE DUP1 PUSH1 0x0 MSTORE PUSH1 0x40 PUSH1 0x0 KECCAK256 PUSH1 0x0 SWAP2 POP SWAP1 POP SLOAD DUP2 JUMP JUMPDEST PUSH1 0x9 PUSH1 0x20 MSTORE DUP1 PUSH1 0x0 MSTORE PUSH1 0x40 PUSH1 0x0 KECCAK256 PUSH1 0x0 SWAP2 POP SWAP1 POP DUP1 PUSH1 0x0 ADD PUSH1 0x0 SWAP1 SLOAD SWAP1 PUSH2 0x100 EXP SWAP1 DIV PUSH1 0xFF AND SWAP1 POP DUP2 JUMP JUMPDEST PUSH1 0x0 PUSH3 0x93A80 DUP3 TIMESTAMP PUSH2 0xB31 SWAP2 SWAP1 PUSH2 0x1B6E JUMP JUMPDEST PUSH2 0xB3B SWAP2 SWAP1 PUSH2 0x19C7 JUMP JUMPDEST SWAP1 POP SWAP2 SWAP1 POP JUMP JUMPDEST PUSH1 0x5 SLOAD DUP2 JUMP JUMPDEST PUSH1 0x2 PUSH1 0x0 SLOAD EQ ISZERO PUSH2 0xB8E JUMPI PUSH1 0x40 MLOAD PUSH32 0x8C379A000000000000000000000000000000000000000000000000000000000 DUP2 MSTORE PUSH1 0x4 ADD PUSH2 0xB85 SWAP1 PUSH2 0x1B17 JUMP JUMPDEST PUSH1 0x40 MLOAD DUP1 SWAP2 SUB SWAP1 REVERT JUMPDEST PUSH1 0x2 PUSH1 0x0 DUP2 SWAP1 SSTORE POP PUSH1 0x0 PUSH1 0xC PUSH1 0x0 CALLER PUSH20 0xFFFFFFFFFFFFFFFFFFFFFFFFFFFFFFFFFFFFFFFF AND PUSH20 0xFFFFFFFFFFFFFFFFFFFFFFFFFFFFFFFFFFFFFFFF AND DUP2 MSTORE PUSH1 0x20 ADD SWAP1 DUP2 MSTORE PUSH1 0x20 ADD PUSH1 0x0 KECCAK256 PUSH1 0x40 MLOAD DUP1 PUSH1 0xE0 ADD PUSH1 0x40 MSTORE SWAP1 DUP2 PUSH1 0x0 DUP3 ADD SLOAD DUP2 MSTORE PUSH1 0x20 ADD PUSH1 0x1 DUP3 ADD SLOAD DUP2 MSTORE PUSH1 0x20 ADD PUSH1 0x2 DUP3 ADD SLOAD DUP2 MSTORE PUSH1 0x20 ADD PUSH1 0x3 DUP3 ADD SLOAD DUP2 MSTORE PUSH1 0x20 ADD PUSH1 0x4 DUP3 ADD SLOAD DUP2 MSTORE PUSH1 0x20 ADD PUSH1 0x5 DUP3 ADD SLOAD DUP2 MSTORE PUSH1 0x20 ADD PUSH1 0x6 DUP3 ADD SLOAD DUP2 MSTORE POP POP SWAP1 POP PUSH1 0x0 PUSH2 0xC35 DUP3 PUSH2 0x105C JUMP JUMPDEST SWAP1 POP PUSH1 0xC PUSH1 0x0 CALLER PUSH20 0xFFFFFFFFFFFFFFFFFFFFFFFFFFFFFFFFFFFFFFFF AND PUSH20 0xFFFFFFFFFFFFFFFFFFFFFFFFFFFFFFFFFFFFFFFF AND DUP2 MSTORE PUSH1 0x20 ADD SWAP1 DUP2 MSTORE PUSH1 0x20 ADD PUSH1 0x0 KECCAK256 PUSH1 0x0 DUP1 DUP3 ADD PUSH1 0x0 SWAP1 SSTORE PUSH1 0x1 DUP3 ADD PUSH1 0x0 SWAP1 SSTORE PUSH1 0x2 DUP3 ADD PUSH1 0x0 SWAP1 SSTORE PUSH1 0x3 DUP3 ADD PUSH1 0x0 SWAP1 SSTORE PUSH1 0x4 DUP3 ADD PUSH1 0x0 SWAP1 SSTORE PUSH1 0x5 DUP3 ADD PUSH1 0x0 SWAP1 SSTORE PUSH1 0x6 DUP3 ADD PUSH1 0x0 SWAP1 SSTORE POP POP PUSH1 0x1 PUSH1 0x8 PUSH1 0x0 DUP3 DUP3 SLOAD PUSH2 0xCC4 SWAP2 SWAP1 PUSH2 0x1B6E JUMP JUMPDEST SWAP3 POP POP DUP2 SWAP1 SSTORE POP PUSH1 0x9 PUSH1 0x0 CALLER PUSH20 0xFFFFFFFFFFFFFFFFFFFFFFFFFFFFFFFFFFFFFFFF AND PUSH20 0xFFFFFFFFFFFFFFFFFFFFFFFFFFFFFFFFFFFFFFFF AND DUP2 MSTORE PUSH1 0x20 ADD SWAP1 DUP2 MSTORE PUSH1 0x20 ADD PUSH1 0x0 KECCAK256 PUSH1 0x1 ADD PUSH1 0x0 PUSH1 0x7 SLOAD DUP2 MSTORE PUSH1 0x20 ADD SWAP1 DUP2 MSTORE PUSH1 0x20 ADD PUSH1 0x0 KECCAK256 PUSH1 0x0 PUSH2 0x100 EXP DUP2 SLOAD SWAP1 PUSH1 0xFF MUL NOT AND SWAP1 SSTORE TIMESTAMP DUP3 PUSH1 0x60 ADD MLOAD GT ISZERO PUSH2 0xD90 JUMPI PUSH1 0x0 DUP1 PUSH2 0xD4D DUP5 PUSH1 0x0 ADD MLOAD DUP5 PUSH2 0x12CC JUMP JUMPDEST SWAP2 POP SWAP2 POP PUSH2 0xD89 PUSH1 0xB PUSH1 0x0 SWAP1 SLOAD SWAP1 PUSH2 0x100 EXP SWAP1 DIV PUSH20 0xFFFFFFFFFFFFFFFFFFFFFFFFFFFFFFFFFFFFFFFF AND CALLER DUP4 DUP6 PUSH2 0xD84 SWAP2 SWAP1 PUSH2 0x19F8 JUMP JUMPDEST PUSH2 0x10EF JUMP JUMPDEST POP POP PUSH2 0xDCD JUMP JUMPDEST PUSH2 0xDCC PUSH1 0xB PUSH1 0x0 SWAP1 SLOAD SWAP1 PUSH2 0x100 EXP SWAP1 DIV PUSH20 0xFFFFFFFFFFFFFFFFFFFFFFFFFFFFFFFFFFFFFFFF AND CALLER DUP4 DUP6 PUSH1 0x0 ADD MLOAD PUSH2 0xDC7 SWAP2 SWAP1 PUSH2 0x19F8 JUMP JUMPDEST PUSH2 0x10EF JUMP JUMPDEST JUMPDEST POP POP PUSH1 0x1 PUSH1 0x0 DUP2 SWAP1 SSTORE POP JUMP JUMPDEST PUSH1 0x0 TIMESTAMP SWAP1 POP SWAP1 JUMP JUMPDEST PUSH1 0x3 SLOAD DUP2 JUMP JUMPDEST PUSH2 0xDEF PUSH2 0x1175 JUMP JUMPDEST PUSH20 0xFFFFFFFFFFFFFFFFFFFFFFFFFFFFFFFFFFFFFFFF AND PUSH2 0xE0D PUSH2 0xAB2 JUMP JUMPDEST PUSH20 0xFFFFFFFFFFFFFFFFFFFFFFFFFFFFFFFFFFFFFFFF AND EQ PUSH2 0xE63 JUMPI PUSH1 0x40 MLOAD PUSH32 0x8C379A000000000000000000000000000000000000000000000000000000000 DUP2 MSTORE PUSH1 0x4 ADD PUSH2 0xE5A SWAP1 PUSH2 0x1AAB JUMP JUMPDEST PUSH1 0x40 MLOAD DUP1 SWAP2 SUB SWAP1 REVERT JUMPDEST TIMESTAMP PUSH1 0x5 DUP2 SWAP1 SSTORE POP JUMP JUMPDEST PUSH2 0xE74 PUSH2 0x1175 JUMP JUMPDEST PUSH20 0xFFFFFFFFFFFFFFFFFFFFFFFFFFFFFFFFFFFFFFFF AND PUSH2 0xE92 PUSH2 0xAB2 JUMP JUMPDEST PUSH20 0xFFFFFFFFFFFFFFFFFFFFFFFFFFFFFFFFFFFFFFFF AND EQ PUSH2 0xEE8 JUMPI PUSH1 0x40 MLOAD PUSH32 0x8C379A000000000000000000000000000000000000000000000000000000000 DUP2 MSTORE PUSH1 0x4 ADD PUSH2 0xEDF SWAP1 PUSH2 0x1AAB JUMP JUMPDEST PUSH1 0x40 MLOAD DUP1 SWAP2 SUB SWAP1 REVERT JUMPDEST PUSH1 0xC8 DUP2 GT ISZERO PUSH2 0xF23 JUMPI PUSH1 0x40 MLOAD PUSH32 0xA552CF1000000000000000000000000000000000000000000000000000000000 DUP2 MSTORE PUSH1 0x4 ADD PUSH1 0x40 MLOAD DUP1 SWAP2 SUB SWAP1 REVERT JUMPDEST DUP1 PUSH1 0x4 DUP2 SWAP1 SSTORE POP PUSH32 0xCC672F1026B958C0CFBFDD89EBE8DDCBC127F16EC24DA6C2C7A4DE26A8B1857E DUP2 PUSH1 0x40 MLOAD PUSH2 0xF59 SWAP2 SWAP1 PUSH2 0x176B JUMP JUMPDEST PUSH1 0x40 MLOAD DUP1 SWAP2 SUB SWAP1 LOG1 POP JUMP JUMPDEST PUSH2 0xF6C PUSH2 0x1175 JUMP JUMPDEST PUSH20 0xFFFFFFFFFFFFFFFFFFFFFFFFFFFFFFFFFFFFFFFF AND PUSH2 0xF8A PUSH2 0xAB2 JUMP JUMPDEST PUSH20 0xFFFFFFFFFFFFFFFFFFFFFFFFFFFFFFFFFFFFFFFF AND EQ PUSH2 0xFE0 JUMPI PUSH1 0x40 MLOAD PUSH32 0x8C379A000000000000000000000000000000000000000000000000000000000 DUP2 MSTORE PUSH1 0x4 ADD PUSH2 0xFD7 SWAP1 PUSH2 0x1AAB JUMP JUMPDEST PUSH1 0x40 MLOAD DUP1 SWAP2 SUB SWAP1 REVERT JUMPDEST PUSH1 0x0 PUSH20 0xFFFFFFFFFFFFFFFFFFFFFFFFFFFFFFFFFFFFFFFF AND DUP2 PUSH20 0xFFFFFFFFFFFFFFFFFFFFFFFFFFFFFFFFFFFFFFFF AND EQ ISZERO PUSH2 0x1050 JUMPI PUSH1 0x40 MLOAD PUSH32 0x8C379A000000000000000000000000000000000000000000000000000000000 DUP2 MSTORE PUSH1 0x4 ADD PUSH2 0x1047 SWAP1 PUSH2 0x1C14 JUMP JUMPDEST PUSH1 0x40 MLOAD DUP1 SWAP2 SUB SWAP1 REVERT JUMPDEST PUSH2 0x1059 DUP2 PUSH2 0x117D JUMP JUMPDEST POP JUMP JUMPDEST PUSH1 0x0 DUP1 DUP3 PUSH1 0x0 ADD MLOAD EQ ISZERO PUSH2 0x1073 JUMPI PUSH1 0x0 SWAP1 POP PUSH2 0x10B7 JUMP JUMPDEST PUSH11 0x52B7D2DCC80CD2E4000000 PUSH2 0x108C DUP4 PUSH1 0x20 ADD MLOAD PUSH2 0x133C JUMP JUMPDEST DUP4 PUSH1 0x40 ADD MLOAD DUP5 PUSH1 0x0 ADD MLOAD PUSH2 0x10A0 SWAP2 SWAP1 PUSH2 0x193E JUMP JUMPDEST PUSH2 0x10AA SWAP2 SWAP1 PUSH2 0x193E JUMP JUMPDEST PUSH2 0x10B4 SWAP2 SWAP1 PUSH2 0x19C7 JUMP JUMPDEST SWAP1 POP JUMPDEST SWAP2 SWAP1 POP JUMP JUMPDEST PUSH1 0x0 PUSH4 0x1DFE200 PUSH2 0x3E8 PUSH1 0x4 SLOAD DUP5 PUSH2 0x10D4 SWAP2 SWAP1 PUSH2 0x193E JUMP JUMPDEST PUSH2 0x10DE SWAP2 SWAP1 PUSH2 0x19C7 JUMP JUMPDEST PUSH2 0x10E8 SWAP2 SWAP1 PUSH2 0x19C7 JUMP JUMPDEST SWAP1 POP SWAP2 SWAP1 POP JUMP JUMPDEST PUSH2 0x1170 DUP4 PUSH4 0xA9059CBB PUSH1 0xE0 SHL DUP5 DUP5 PUSH1 0x40 MLOAD PUSH1 0x24 ADD PUSH2 0x110E SWAP3 SWAP2 SWAP1 PUSH2 0x1C34 JUMP JUMPDEST PUSH1 0x40 MLOAD PUSH1 0x20 DUP2 DUP4 SUB SUB DUP2 MSTORE SWAP1 PUSH1 0x40 MSTORE SWAP1 PUSH28 0xFFFFFFFFFFFFFFFFFFFFFFFFFFFFFFFFFFFFFFFFFFFFFFFFFFFFFFFF NOT AND PUSH1 0x20 DUP3 ADD DUP1 MLOAD PUSH28 0xFFFFFFFFFFFFFFFFFFFFFFFFFFFFFFFFFFFFFFFFFFFFFFFFFFFFFFFF DUP4 DUP2 DUP4 AND OR DUP4 MSTORE POP POP POP POP PUSH2 0x1375 JUMP JUMPDEST POP POP POP JUMP JUMPDEST PUSH1 0x0 CALLER SWAP1 POP SWAP1 JUMP JUMPDEST PUSH1 0x0 PUSH1 0x1 PUSH1 0x0 SWAP1 SLOAD SWAP1 PUSH2 0x100 EXP SWAP1 DIV PUSH20 0xFFFFFFFFFFFFFFFFFFFFFFFFFFFFFFFFFFFFFFFF AND SWAP1 POP DUP2 PUSH1 0x1 PUSH1 0x0 PUSH2 0x100 EXP DUP2 SLOAD DUP2 PUSH20 0xFFFFFFFFFFFFFFFFFFFFFFFFFFFFFFFFFFFFFFFF MUL NOT AND SWAP1 DUP4 PUSH20 0xFFFFFFFFFFFFFFFFFFFFFFFFFFFFFFFFFFFFFFFF AND MUL OR SWAP1 SSTORE POP DUP2 PUSH20 0xFFFFFFFFFFFFFFFFFFFFFFFFFFFFFFFFFFFFFFFF AND DUP2 PUSH20 0xFFFFFFFFFFFFFFFFFFFFFFFFFFFFFFFFFFFFFFFF AND PUSH32 0x8BE0079C531659141344CD1FD0A4F28419497F9722A3DAAFE3B4186F6B6457E0 PUSH1 0x40 MLOAD PUSH1 0x40 MLOAD DUP1 SWAP2 SUB SWAP1 LOG3 POP POP JUMP JUMPDEST PUSH2 0x12C6 DUP5 PUSH4 0x23B872DD PUSH1 0xE0 SHL DUP6 DUP6 DUP6 PUSH1 0x40 MLOAD PUSH1 0x24 ADD PUSH2 0x1264 SWAP4 SWAP3 SWAP2 SWAP1 PUSH2 0x1C5D JUMP JUMPDEST PUSH1 0x40 MLOAD PUSH1 0x20 DUP2 DUP4 SUB SUB DUP2 MSTORE SWAP1 PUSH1 0x40 MSTORE SWAP1 PUSH28 0xFFFFFFFFFFFFFFFFFFFFFFFFFFFFFFFFFFFFFFFFFFFFFFFFFFFFFFFF NOT AND PUSH1 0x20 DUP3 ADD DUP1 MLOAD PUSH28 0xFFFFFFFFFFFFFFFFFFFFFFFFFFFFFFFFFFFFFFFFFFFFFFFFFFFFFFFF DUP4 DUP2 DUP4 AND OR DUP4 MSTORE POP POP POP POP PUSH2 0x1375 JUMP JUMPDEST POP POP POP POP JUMP JUMPDEST PUSH1 0x0 DUP1 PUSH1 0x0 DUP5 EQ ISZERO PUSH2 0x12E4 JUMPI PUSH1 0x0 DUP1 SWAP2 POP SWAP2 POP PUSH2 0x1335 JUMP JUMPDEST PUSH2 0x3E8 PUSH1 0x3 SLOAD DUP6 PUSH2 0x12F5 SWAP2 SWAP1 PUSH2 0x193E JUMP JUMPDEST PUSH2 0x12FF SWAP2 SWAP1 PUSH2 0x19C7 JUMP JUMPDEST DUP5 PUSH2 0x130A SWAP2 SWAP1 PUSH2 0x1B6E JUMP JUMPDEST PUSH2 0x3E8 PUSH1 0x3 SLOAD DUP6 PUSH2 0x131B SWAP2 SWAP1 PUSH2 0x193E JUMP JUMPDEST PUSH2 0x1325 SWAP2 SWAP1 PUSH2 0x19C7 JUMP JUMPDEST DUP5 PUSH2 0x1330 SWAP2 SWAP1 PUSH2 0x1B6E JUMP JUMPDEST SWAP2 POP SWAP2 POP JUMPDEST SWAP3 POP SWAP3 SWAP1 POP JUMP JUMPDEST PUSH1 0x0 PUSH4 0x1E13380 PUSH10 0xD3C21BCECCEDA1000000 DUP4 TIMESTAMP PUSH2 0x135A SWAP2 SWAP1 PUSH2 0x1B6E JUMP JUMPDEST PUSH2 0x1364 SWAP2 SWAP1 PUSH2 0x193E JUMP JUMPDEST PUSH2 0x136E SWAP2 SWAP1 PUSH2 0x19C7 JUMP JUMPDEST SWAP1 POP SWAP2 SWAP1 POP JUMP JUMPDEST PUSH1 0x0 PUSH2 0x13D7 DUP3 PUSH1 0x40 MLOAD DUP1 PUSH1 0x40 ADD PUSH1 0x40 MSTORE DUP1 PUSH1 0x20 DUP2 MSTORE PUSH1 0x20 ADD PUSH32 0x5361666545524332303A206C6F772D6C6576656C2063616C6C206661696C6564 DUP2 MSTORE POP DUP6 PUSH20 0xFFFFFFFFFFFFFFFFFFFFFFFFFFFFFFFFFFFFFFFF AND PUSH2 0x143C SWAP1 SWAP3 SWAP2 SWAP1 PUSH4 0xFFFFFFFF AND JUMP JUMPDEST SWAP1 POP PUSH1 0x0 DUP2 MLOAD GT ISZERO PUSH2 0x1437 JUMPI DUP1 DUP1 PUSH1 0x20 ADD SWAP1 MLOAD DUP2 ADD SWAP1 PUSH2 0x13F7 SWAP2 SWAP1 PUSH2 0x1CC0 JUMP JUMPDEST PUSH2 0x1436 JUMPI PUSH1 0x40 MLOAD PUSH32 0x8C379A000000000000000000000000000000000000000000000000000000000 DUP2 MSTORE PUSH1 0x4 ADD PUSH2 0x142D SWAP1 PUSH2 0x1D5F JUMP JUMPDEST PUSH1 0x40 MLOAD DUP1 SWAP2 SUB SWAP1 REVERT JUMPDEST JUMPDEST POP POP POP JUMP JUMPDEST PUSH1 0x60 PUSH2 0x144B DUP5 DUP5 PUSH1 0x0 DUP6 PUSH2 0x1454 JUMP JUMPDEST SWAP1 POP SWAP4 SWAP3 POP POP POP JUMP JUMPDEST PUSH1 0x60 DUP3 SELFBALANCE LT ISZERO PUSH2 0x1499 JUMPI PUSH1 0x40 MLOAD PUSH32 0x8C379A000000000000000000000000000000000000000000000000000000000 DUP2 MSTORE PUSH1 0x4 ADD PUSH2 0x1490 SWAP1 PUSH2 0x1DF1 JUMP JUMPDEST PUSH1 0x40 MLOAD DUP1 SWAP2 SUB SWAP1 REVERT JUMPDEST PUSH2 0x14A2 DUP6 PUSH2 0x1568 JUMP JUMPDEST PUSH2 0x14E1 JUMPI PUSH1 0x40 MLOAD PUSH32 0x8C379A000000000000000000000000000000000000000000000000000000000 DUP2 MSTORE PUSH1 0x4 ADD PUSH2 0x14D8 SWAP1 PUSH2 0x1E5D JUMP JUMPDEST PUSH1 0x40 MLOAD DUP1 SWAP2 SUB SWAP1 REVERT JUMPDEST PUSH1 0x0 DUP1 DUP7 PUSH20 0xFFFFFFFFFFFFFFFFFFFFFFFFFFFFFFFFFFFFFFFF AND DUP6 DUP8 PUSH1 0x40 MLOAD PUSH2 0x150A SWAP2 SWAP1 PUSH2 0x1EF7 JUMP JUMPDEST PUSH1 0x0 PUSH1 0x40 MLOAD DUP1 DUP4 SUB DUP2 DUP6 DUP8 GAS CALL SWAP3 POP POP POP RETURNDATASIZE DUP1 PUSH1 0x0 DUP2 EQ PUSH2 0x1547 JUMPI PUSH1 0x40 MLOAD SWAP2 POP PUSH1 0x1F NOT PUSH1 0x3F RETURNDATASIZE ADD AND DUP3 ADD PUSH1 0x40 MSTORE RETURNDATASIZE DUP3 MSTORE RETURNDATASIZE PUSH1 0x0 PUSH1 0x20 DUP5 ADD RETURNDATACOPY PUSH2 0x154C JUMP JUMPDEST PUSH1 0x60 SWAP2 POP JUMPDEST POP SWAP2 POP SWAP2 POP PUSH2 0x155C DUP3 DUP3 DUP7 PUSH2 0x158B JUMP JUMPDEST SWAP3 POP POP POP SWAP5 SWAP4 POP POP POP POP JUMP JUMPDEST PUSH1 0x0 DUP1 DUP3 PUSH20 0xFFFFFFFFFFFFFFFFFFFFFFFFFFFFFFFFFFFFFFFF AND EXTCODESIZE GT SWAP1 POP SWAP2 SWAP1 POP JUMP JUMPDEST PUSH1 0x60 DUP4 ISZERO PUSH2 0x159B JUMPI DUP3 SWAP1 POP PUSH2 0x15EB JUMP JUMPDEST PUSH1 0x0 DUP4 MLOAD GT ISZERO PUSH2 0x15AE JUMPI DUP3 MLOAD DUP1 DUP5 PUSH1 0x20 ADD REVERT JUMPDEST DUP2 PUSH1 0x40 MLOAD PUSH32 0x8C379A000000000000000000000000000000000000000000000000000000000 DUP2 MSTORE PUSH1 0x4 ADD PUSH2 0x15E2 SWAP2 SWAP1 PUSH2 0x1F63 JUMP JUMPDEST PUSH1 0x40 MLOAD DUP1 SWAP2 SUB SWAP1 REVERT JUMPDEST SWAP4 SWAP3 POP POP POP JUMP JUMPDEST PUSH1 0x40 MLOAD DUP1 PUSH1 0x60 ADD PUSH1 0x40 MSTORE DUP1 PUSH1 0x0 DUP2 MSTORE PUSH1 0x20 ADD PUSH1 0x0 DUP2 MSTORE PUSH1 0x20 ADD PUSH2 0x1613 PUSH2 0x1619 JUMP JUMPDEST DUP2 MSTORE POP SWAP1 JUMP JUMPDEST PUSH1 0x40 MLOAD DUP1 PUSH1 0xE0 ADD PUSH1 0x40 MSTORE DUP1 PUSH1 0x0 DUP2 MSTORE PUSH1 0x20 ADD PUSH1 0x0 DUP2 MSTORE PUSH1 0x20 ADD PUSH1 0x0 DUP2 MSTORE PUSH1 0x20 ADD PUSH1 0x0 DUP2 MSTORE PUSH1 0x20 ADD PUSH1 0x0 DUP2 MSTORE PUSH1 0x20 ADD PUSH1 0x0 DUP2 MSTORE PUSH1 0x20 ADD PUSH1 0x0 DUP2 MSTORE POP SWAP1 JUMP JUMPDEST PUSH1 0x0 DUP2 SWAP1 POP SWAP2 SWAP1 POP JUMP JUMPDEST PUSH2 0x1669 DUP2 PUSH2 0x1656 JUMP JUMPDEST DUP3 MSTORE POP POP JUMP JUMPDEST PUSH1 0xE0 DUP3 ADD PUSH1 0x0 DUP3 ADD MLOAD PUSH2 0x1685 PUSH1 0x0 DUP6 ADD DUP3 PUSH2 0x1660 JUMP JUMPDEST POP PUSH1 0x20 DUP3 ADD MLOAD PUSH2 0x1698 PUSH1 0x20 DUP6 ADD DUP3 PUSH2 0x1660 JUMP JUMPDEST POP PUSH1 0x40 DUP3 ADD MLOAD PUSH2 0x16AB PUSH1 0x40 DUP6 ADD DUP3 PUSH2 0x1660 JUMP JUMPDEST POP PUSH1 0x60 DUP3 ADD MLOAD PUSH2 0x16BE PUSH1 0x60 DUP6 ADD DUP3 PUSH2 0x1660 JUMP JUMPDEST POP PUSH1 0x80 DUP3 ADD MLOAD PUSH2 0x16D1 PUSH1 0x80 DUP6 ADD DUP3 PUSH2 0x1660 JUMP JUMPDEST POP PUSH1 0xA0 DUP3 ADD MLOAD PUSH2 0x16E4 PUSH1 0xA0 DUP6 ADD DUP3 PUSH2 0x1660 JUMP JUMPDEST POP PUSH1 0xC0 DUP3 ADD MLOAD PUSH2 0x16F7 PUSH1 0xC0 DUP6 ADD DUP3 PUSH2 0x1660 JUMP JUMPDEST POP POP POP POP JUMP JUMPDEST PUSH2 0x120 DUP3 ADD PUSH1 0x0 DUP3 ADD MLOAD PUSH2 0x1714 PUSH1 0x0 DUP6 ADD DUP3 PUSH2 0x1660 JUMP JUMPDEST POP PUSH1 0x20 DUP3 ADD MLOAD PUSH2 0x1727 PUSH1 0x20 DUP6 ADD DUP3 PUSH2 0x1660 JUMP JUMPDEST POP PUSH1 0x40 DUP3 ADD MLOAD PUSH2 0x173A PUSH1 0x40 DUP6 ADD DUP3 PUSH2 0x166F JUMP JUMPDEST POP POP POP POP JUMP JUMPDEST PUSH1 0x0 PUSH2 0x120 DUP3 ADD SWAP1 POP PUSH2 0x1756 PUSH1 0x0 DUP4 ADD DUP5 PUSH2 0x16FD JUMP JUMPDEST SWAP3 SWAP2 POP POP JUMP JUMPDEST PUSH2 0x1765 DUP2 PUSH2 0x1656 JUMP JUMPDEST DUP3 MSTORE POP POP JUMP JUMPDEST PUSH1 0x0 PUSH1 0x20 DUP3 ADD SWAP1 POP PUSH2 0x1780 PUSH1 0x0 DUP4 ADD DUP5 PUSH2 0x175C JUMP JUMPDEST SWAP3 SWAP2 POP POP JUMP JUMPDEST PUSH1 0x0 DUP1 REVERT JUMPDEST PUSH2 0x1794 DUP2 PUSH2 0x1656 JUMP JUMPDEST DUP2 EQ PUSH2 0x179F JUMPI PUSH1 0x0 DUP1 REVERT JUMPDEST POP JUMP JUMPDEST PUSH1 0x0 DUP2 CALLDATALOAD SWAP1 POP PUSH2 0x17B1 DUP2 PUSH2 0x178B JUMP JUMPDEST SWAP3 SWAP2 POP POP JUMP JUMPDEST PUSH1 0x0 DUP1 PUSH1 0x40 DUP4 DUP6 SUB SLT ISZERO PUSH2 0x17CE JUMPI PUSH2 0x17CD PUSH2 0x1786 JUMP JUMPDEST JUMPDEST PUSH1 0x0 PUSH2 0x17DC DUP6 DUP3 DUP7 ADD PUSH2 0x17A2 JUMP JUMPDEST SWAP3 POP POP PUSH1 0x20 PUSH2 0x17ED DUP6 DUP3 DUP7 ADD PUSH2 0x17A2 JUMP JUMPDEST SWAP2 POP POP SWAP3 POP SWAP3 SWAP1 POP JUMP JUMPDEST PUSH1 0x0 PUSH1 0x20 DUP3 DUP5 SUB SLT ISZERO PUSH2 0x180D JUMPI PUSH2 0x180C PUSH2 0x1786 JUMP JUMPDEST JUMPDEST PUSH1 0x0 PUSH2 0x181B DUP5 DUP3 DUP6 ADD PUSH2 0x17A2 JUMP JUMPDEST SWAP2 POP POP SWAP3 SWAP2 POP POP JUMP JUMPDEST PUSH1 0x0 PUSH20 0xFFFFFFFFFFFFFFFFFFFFFFFFFFFFFFFFFFFFFFFF DUP3 AND SWAP1 POP SWAP2 SWAP1 POP JUMP JUMPDEST PUSH1 0x0 PUSH2 0x184F DUP3 PUSH2 0x1824 JUMP JUMPDEST SWAP1 POP SWAP2 SWAP1 POP JUMP JUMPDEST PUSH2 0x185F DUP2 PUSH2 0x1844 JUMP JUMPDEST DUP3 MSTORE POP POP JUMP JUMPDEST PUSH1 0x0 PUSH1 0x20 DUP3 ADD SWAP1 POP PUSH2 0x187A PUSH1 0x0 DUP4 ADD DUP5 PUSH2 0x1856 JUMP JUMPDEST SWAP3 SWAP2 POP POP JUMP JUMPDEST PUSH2 0x1889 DUP2 PUSH2 0x1844 JUMP JUMPDEST DUP2 EQ PUSH2 0x1894 JUMPI PUSH1 0x0 DUP1 REVERT JUMPDEST POP JUMP JUMPDEST PUSH1 0x0 DUP2 CALLDATALOAD SWAP1 POP PUSH2 0x18A6 DUP2 PUSH2 0x1880 JUMP JUMPDEST SWAP3 SWAP2 POP POP JUMP JUMPDEST PUSH1 0x0 PUSH1 0x20 DUP3 DUP5 SUB SLT ISZERO PUSH2 0x18C2 JUMPI PUSH2 0x18C1 PUSH2 0x1786 JUMP JUMPDEST JUMPDEST PUSH1 0x0 PUSH2 0x18D0 DUP5 DUP3 DUP6 ADD PUSH2 0x1897 JUMP JUMPDEST SWAP2 POP POP SWAP3 SWAP2 POP POP JUMP JUMPDEST PUSH1 0x0 DUP2 ISZERO ISZERO SWAP1 POP SWAP2 SWAP1 POP JUMP JUMPDEST PUSH2 0x18EE DUP2 PUSH2 0x18D9 JUMP JUMPDEST DUP3 MSTORE POP POP JUMP JUMPDEST PUSH1 0x0 PUSH1 0x20 DUP3 ADD SWAP1 POP PUSH2 0x1909 PUSH1 0x0 DUP4 ADD DUP5 PUSH2 0x18E5 JUMP JUMPDEST SWAP3 SWAP2 POP POP JUMP JUMPDEST PUSH32 0x4E487B7100000000000000000000000000000000000000000000000000000000 PUSH1 0x0 MSTORE PUSH1 0x11 PUSH1 0x4 MSTORE PUSH1 0x24 PUSH1 0x0 REVERT JUMPDEST PUSH1 0x0 PUSH2 0x1949 DUP3 PUSH2 0x1656 JUMP JUMPDEST SWAP2 POP PUSH2 0x1954 DUP4 PUSH2 0x1656 JUMP JUMPDEST SWAP3 POP DUP2 PUSH32 0xFFFFFFFFFFFFFFFFFFFFFFFFFFFFFFFFFFFFFFFFFFFFFFFFFFFFFFFFFFFFFFFF DIV DUP4 GT DUP3 ISZERO ISZERO AND ISZERO PUSH2 0x198D JUMPI PUSH2 0x198C PUSH2 0x190F JUMP JUMPDEST JUMPDEST DUP3 DUP3 MUL SWAP1 POP SWAP3 SWAP2 POP POP JUMP JUMPDEST PUSH32 0x4E487B7100000000000000000000000000000000000000000000000000000000 PUSH1 0x0 MSTORE PUSH1 0x12 PUSH1 0x4 MSTORE PUSH1 0x24 PUSH1 0x0 REVERT JUMPDEST PUSH1 0x0 PUSH2 0x19D2 DUP3 PUSH2 0x1656 JUMP JUMPDEST SWAP2 POP PUSH2 0x19DD DUP4 PUSH2 0x1656 JUMP JUMPDEST SWAP3 POP DUP3 PUSH2 0x19ED JUMPI PUSH2 0x19EC PUSH2 0x1998 JUMP JUMPDEST JUMPDEST DUP3 DUP3 DIV SWAP1 POP SWAP3 SWAP2 POP POP JUMP JUMPDEST PUSH1 0x0 PUSH2 0x1A03 DUP3 PUSH2 0x1656 JUMP JUMPDEST SWAP2 POP PUSH2 0x1A0E DUP4 PUSH2 0x1656 JUMP JUMPDEST SWAP3 POP DUP3 PUSH32 0xFFFFFFFFFFFFFFFFFFFFFFFFFFFFFFFFFFFFFFFFFFFFFFFFFFFFFFFFFFFFFFFF SUB DUP3 GT ISZERO PUSH2 0x1A43 JUMPI PUSH2 0x1A42 PUSH2 0x190F JUMP JUMPDEST JUMPDEST DUP3 DUP3 ADD SWAP1 POP SWAP3 SWAP2 POP POP JUMP JUMPDEST PUSH1 0x0 DUP3 DUP3 MSTORE PUSH1 0x20 DUP3 ADD SWAP1 POP SWAP3 SWAP2 POP POP JUMP JUMPDEST PUSH32 0x4F776E61626C653A2063616C6C6572206973206E6F7420746865206F776E6572 PUSH1 0x0 DUP3 ADD MSTORE POP JUMP JUMPDEST PUSH1 0x0 PUSH2 0x1A95 PUSH1 0x20 DUP4 PUSH2 0x1A4E JUMP JUMPDEST SWAP2 POP PUSH2 0x1AA0 DUP3 PUSH2 0x1A5F JUMP JUMPDEST PUSH1 0x20 DUP3 ADD SWAP1 POP SWAP2 SWAP1 POP JUMP JUMPDEST PUSH1 0x0 PUSH1 0x20 DUP3 ADD SWAP1 POP DUP2 DUP2 SUB PUSH1 0x0 DUP4 ADD MSTORE PUSH2 0x1AC4 DUP2 PUSH2 0x1A88 JUMP JUMPDEST SWAP1 POP SWAP2 SWAP1 POP JUMP JUMPDEST PUSH32 0x5265656E7472616E637947756172643A207265656E7472616E742063616C6C00 PUSH1 0x0 DUP3 ADD MSTORE POP JUMP JUMPDEST PUSH1 0x0 PUSH2 0x1B01 PUSH1 0x1F DUP4 PUSH2 0x1A4E JUMP JUMPDEST SWAP2 POP PUSH2 0x1B0C DUP3 PUSH2 0x1ACB JUMP JUMPDEST PUSH1 0x20 DUP3 ADD SWAP1 POP SWAP2 SWAP1 POP JUMP JUMPDEST PUSH1 0x0 PUSH1 0x20 DUP3 ADD SWAP1 POP DUP2 DUP2 SUB PUSH1 0x0 DUP4 ADD MSTORE PUSH2 0x1B30 DUP2 PUSH2 0x1AF4 JUMP JUMPDEST SWAP1 POP SWAP2 SWAP1 POP JUMP JUMPDEST PUSH1 0x0 PUSH1 0x60 DUP3 ADD SWAP1 POP PUSH2 0x1B4C PUSH1 0x0 DUP4 ADD DUP7 PUSH2 0x175C JUMP JUMPDEST PUSH2 0x1B59 PUSH1 0x20 DUP4 ADD DUP6 PUSH2 0x175C JUMP JUMPDEST PUSH2 0x1B66 PUSH1 0x40 DUP4 ADD DUP5 PUSH2 0x175C JUMP JUMPDEST SWAP5 SWAP4 POP POP POP POP JUMP JUMPDEST PUSH1 0x0 PUSH2 0x1B79 DUP3 PUSH2 0x1656 JUMP JUMPDEST SWAP2 POP PUSH2 0x1B84 DUP4 PUSH2 0x1656 JUMP JUMPDEST SWAP3 POP DUP3 DUP3 LT ISZERO PUSH2 0x1B97 JUMPI PUSH2 0x1B96 PUSH2 0x190F JUMP JUMPDEST JUMPDEST DUP3 DUP3 SUB SWAP1 POP SWAP3 SWAP2 POP POP JUMP JUMPDEST PUSH32 0x4F776E61626C653A206E6577206F776E657220697320746865207A65726F2061 PUSH1 0x0 DUP3 ADD MSTORE PUSH32 0x6464726573730000000000000000000000000000000000000000000000000000 PUSH1 0x20 DUP3 ADD MSTORE POP JUMP JUMPDEST PUSH1 0x0 PUSH2 0x1BFE PUSH1 0x26 DUP4 PUSH2 0x1A4E JUMP JUMPDEST SWAP2 POP PUSH2 0x1C09 DUP3 PUSH2 0x1BA2 JUMP JUMPDEST PUSH1 0x40 DUP3 ADD SWAP1 POP SWAP2 SWAP1 POP JUMP JUMPDEST PUSH1 0x0 PUSH1 0x20 DUP3 ADD SWAP1 POP DUP2 DUP2 SUB PUSH1 0x0 DUP4 ADD MSTORE PUSH2 0x1C2D DUP2 PUSH2 0x1BF1 JUMP JUMPDEST SWAP1 POP SWAP2 SWAP1 POP JUMP JUMPDEST PUSH1 0x0 PUSH1 0x40 DUP3 ADD SWAP1 POP PUSH2 0x1C49 PUSH1 0x0 DUP4 ADD DUP6 PUSH2 0x1856 JUMP JUMPDEST PUSH2 0x1C56 PUSH1 0x20 DUP4 ADD DUP5 PUSH2 0x175C JUMP JUMPDEST SWAP4 SWAP3 POP POP POP JUMP JUMPDEST PUSH1 0x0 PUSH1 0x60 DUP3 ADD SWAP1 POP PUSH2 0x1C72 PUSH1 0x0 DUP4 ADD DUP7 PUSH2 0x1856 JUMP JUMPDEST PUSH2 0x1C7F PUSH1 0x20 DUP4 ADD DUP6 PUSH2 0x1856 JUMP JUMPDEST PUSH2 0x1C8C PUSH1 0x40 DUP4 ADD DUP5 PUSH2 0x175C JUMP JUMPDEST SWAP5 SWAP4 POP POP POP POP JUMP JUMPDEST PUSH2 0x1C9D DUP2 PUSH2 0x18D9 JUMP JUMPDEST DUP2 EQ PUSH2 0x1CA8 JUMPI PUSH1 0x0 DUP1 REVERT JUMPDEST POP JUMP JUMPDEST PUSH1 0x0 DUP2 MLOAD SWAP1 POP PUSH2 0x1CBA DUP2 PUSH2 0x1C94 JUMP JUMPDEST SWAP3 SWAP2 POP POP JUMP JUMPDEST PUSH1 0x0 PUSH1 0x20 DUP3 DUP5 SUB SLT ISZERO PUSH2 0x1CD6 JUMPI PUSH2 0x1CD5 PUSH2 0x1786 JUMP JUMPDEST JUMPDEST PUSH1 0x0 PUSH2 0x1CE4 DUP5 DUP3 DUP6 ADD PUSH2 0x1CAB JUMP JUMPDEST SWAP2 POP POP SWAP3 SWAP2 POP POP JUMP JUMPDEST PUSH32 0x5361666545524332303A204552433230206F7065726174696F6E20646964206E PUSH1 0x0 DUP3 ADD MSTORE PUSH32 0x6F74207375636365656400000000000000000000000000000000000000000000 PUSH1 0x20 DUP3 ADD MSTORE POP JUMP JUMPDEST PUSH1 0x0 PUSH2 0x1D49 PUSH1 0x2A DUP4 PUSH2 0x1A4E JUMP JUMPDEST SWAP2 POP PUSH2 0x1D54 DUP3 PUSH2 0x1CED JUMP JUMPDEST PUSH1 0x40 DUP3 ADD SWAP1 POP SWAP2 SWAP1 POP JUMP JUMPDEST PUSH1 0x0 PUSH1 0x20 DUP3 ADD SWAP1 POP DUP2 DUP2 SUB PUSH1 0x0 DUP4 ADD MSTORE PUSH2 0x1D78 DUP2 PUSH2 0x1D3C JUMP JUMPDEST SWAP1 POP SWAP2 SWAP1 POP JUMP JUMPDEST PUSH32 0x416464726573733A20696E73756666696369656E742062616C616E636520666F PUSH1 0x0 DUP3 ADD MSTORE PUSH32 0x722063616C6C0000000000000000000000000000000000000000000000000000 PUSH1 0x20 DUP3 ADD MSTORE POP JUMP JUMPDEST PUSH1 0x0 PUSH2 0x1DDB PUSH1 0x26 DUP4 PUSH2 0x1A4E JUMP JUMPDEST SWAP2 POP PUSH2 0x1DE6 DUP3 PUSH2 0x1D7F JUMP JUMPDEST PUSH1 0x40 DUP3 ADD SWAP1 POP SWAP2 SWAP1 POP JUMP JUMPDEST PUSH1 0x0 PUSH1 0x20 DUP3 ADD SWAP1 POP DUP2 DUP2 SUB PUSH1 0x0 DUP4 ADD MSTORE PUSH2 0x1E0A DUP2 PUSH2 0x1DCE JUMP JUMPDEST SWAP1 POP SWAP2 SWAP1 POP JUMP JUMPDEST PUSH32 0x416464726573733A2063616C6C20746F206E6F6E2D636F6E7472616374000000 PUSH1 0x0 DUP3 ADD MSTORE POP JUMP JUMPDEST PUSH1 0x0 PUSH2 0x1E47 PUSH1 0x1D DUP4 PUSH2 0x1A4E JUMP JUMPDEST SWAP2 POP PUSH2 0x1E52 DUP3 PUSH2 0x1E11 JUMP JUMPDEST PUSH1 0x20 DUP3 ADD SWAP1 POP SWAP2 SWAP1 POP JUMP JUMPDEST PUSH1 0x0 PUSH1 0x20 DUP3 ADD SWAP1 POP DUP2 DUP2 SUB PUSH1 0x0 DUP4 ADD MSTORE PUSH2 0x1E76 DUP2 PUSH2 0x1E3A JUMP JUMPDEST SWAP1 POP SWAP2 SWAP1 POP JUMP JUMPDEST PUSH1 0x0 DUP2 MLOAD SWAP1 POP SWAP2 SWAP1 POP JUMP JUMPDEST PUSH1 0x0 DUP2 SWAP1 POP SWAP3 SWAP2 POP POP JUMP JUMPDEST PUSH1 0x0 JUMPDEST DUP4 DUP2 LT ISZERO PUSH2 0x1EB1 JUMPI DUP1 DUP3 ADD MLOAD DUP2 DUP5 ADD MSTORE PUSH1 0x20 DUP2 ADD SWAP1 POP PUSH2 0x1E96 JUMP JUMPDEST DUP4 DUP2 GT ISZERO PUSH2 0x1EC0 JUMPI PUSH1 0x0 DUP5 DUP5 ADD MSTORE JUMPDEST POP POP POP POP JUMP JUMPDEST PUSH1 0x0 PUSH2 0x1ED1 DUP3 PUSH2 0x1E7D JUMP JUMPDEST PUSH2 0x1EDB DUP2 DUP6 PUSH2 0x1E88 JUMP JUMPDEST SWAP4 POP PUSH2 0x1EEB DUP2 DUP6 PUSH1 0x20 DUP7 ADD PUSH2 0x1E93 JUMP JUMPDEST DUP1 DUP5 ADD SWAP2 POP POP SWAP3 SWAP2 POP POP JUMP JUMPDEST PUSH1 0x0 PUSH2 0x1F03 DUP3 DUP5 PUSH2 0x1EC6 JUMP JUMPDEST SWAP2 POP DUP2 SWAP1 POP SWAP3 SWAP2 POP POP JUMP JUMPDEST PUSH1 0x0 DUP2 MLOAD SWAP1 POP SWAP2 SWAP1 POP JUMP JUMPDEST PUSH1 0x0 PUSH1 0x1F NOT PUSH1 0x1F DUP4 ADD AND SWAP1 POP SWAP2 SWAP1 POP JUMP JUMPDEST PUSH1 0x0 PUSH2 0x1F35 DUP3 PUSH2 0x1F0E JUMP JUMPDEST PUSH2 0x1F3F DUP2 DUP6 PUSH2 0x1A4E JUMP JUMPDEST SWAP4 POP PUSH2 0x1F4F DUP2 DUP6 PUSH1 0x20 DUP7 ADD PUSH2 0x1E93 JUMP JUMPDEST PUSH2 0x1F58 DUP2 PUSH2 0x1F19 JUMP JUMPDEST DUP5 ADD SWAP2 POP POP SWAP3 SWAP2 POP POP JUMP JUMPDEST PUSH1 0x0 PUSH1 0x20 DUP3 ADD SWAP1 POP DUP2 DUP2 SUB PUSH1 0x0 DUP4 ADD MSTORE PUSH2 0x1F7D DUP2 DUP5 PUSH2 0x1F2A JUMP JUMPDEST SWAP1 POP SWAP3 SWAP2 POP POP JUMP INVALID LOG2 PUSH5 0x6970667358 0x22 SLT KECCAK256 BASEFEE 0xB5 0x4B DUP16 CALLDATASIZE MOD 0xDD 0x1F GASPRICE 0xBD 0x2B 0xD0 0xEA PUSH13 0x3E2C3E3ACBFFD92273FAFD65DF PUSH18 0xD99F8D6464736F6C634300080B0033000000 "
				},
				"gasEstimates": {
					"creation": {
						"codeDepositCost": "1624600",
						"executionCost": "infinite",
						"totalCost": "infinite"
					},
					"external": {
						"_blockTimestamp()": "358",
						"airdropRate()": "2474",
						"airdropSince()": "2518",
						"calculateWeek(uint256)": "infinite",
						"changeAirdropPercentage(uint256)": "infinite",
						"changePenaltyFee(uint256)": "infinite",
						"claimAirdrop()": "infinite",
						"hasStake()": "infinite",
						"owner()": "2633",
						"renounceOwnership()": "30464",
						"stake(uint256,uint256)": "infinite",
						"stakingPenaltyRate()": "2473",
						"startAirdrop()": "24563",
						"token_address()": "2603",
						"totalVoters()": "2497",
						"transferOwnership(address)": "30833",
						"votedUsers(uint256)": "infinite",
						"voters(address)": "2915",
						"withdrawStake()": "infinite"
					},
					"internal": {
						"_calculateAirdrop(uint256)": "infinite",
						"_calculateStakeReward(struct Stake.Stake memory)": "infinite",
						"_calculateStakingDuration(uint256)": "infinite",
						"_calculateStakingWithPenalty(uint256,uint256)": "infinite",
						"_checkVotingStatus()": "infinite",
						"_isVoter()": "infinite"
					}
				},
				"methodIdentifiers": {
					"_blockTimestamp()": "c63aa3e7",
					"airdropRate()": "8891cf0d",
					"airdropSince()": "b87da76d",
					"calculateWeek(uint256)": "b5d9df83",
					"changeAirdropPercentage(uint256)": "d5dbdf1b",
					"changePenaltyFee(uint256)": "8c63f97f",
					"claimAirdrop()": "5b88349d",
					"hasStake()": "10486b6a",
					"owner()": "8da5cb5b",
					"renounceOwnership()": "715018a6",
					"stake(uint256,uint256)": "7b0472f0",
					"stakingPenaltyRate()": "cb79c2e1",
					"startAirdrop()": "d2a569c3",
					"token_address()": "8c8e8fee",
					"totalVoters()": "5f5300ff",
					"transferOwnership(address)": "f2fde38b",
					"votedUsers(uint256)": "a143a5f2",
					"voters(address)": "a3ec138d",
					"withdrawStake()": "bed9d861"
				}
			},
			"storageLayout": {
				"storage": [
					{
						"astId": 115,
						"contract": "contracts/Stake-2.0.sol:Stake",
						"label": "_status",
						"offset": 0,
						"slot": "0",
						"type": "t_uint256"
					},
					{
						"astId": 7,
						"contract": "contracts/Stake-2.0.sol:Stake",
						"label": "_owner",
						"offset": 0,
						"slot": "1",
						"type": "t_address"
					},
					{
						"astId": 815,
						"contract": "contracts/Stake-2.0.sol:Stake",
						"label": "stakingPackage",
						"offset": 0,
						"slot": "2",
						"type": "t_mapping(t_uint256,t_uint256)"
					},
					{
						"astId": 817,
						"contract": "contracts/Stake-2.0.sol:Stake",
						"label": "stakingPenaltyRate",
						"offset": 0,
						"slot": "3",
						"type": "t_uint256"
					},
					{
						"astId": 819,
						"contract": "contracts/Stake-2.0.sol:Stake",
						"label": "airdropRate",
						"offset": 0,
						"slot": "4",
						"type": "t_uint256"
					},
					{
						"astId": 821,
						"contract": "contracts/Stake-2.0.sol:Stake",
						"label": "airdropSince",
						"offset": 0,
						"slot": "5",
						"type": "t_uint256"
					},
					{
						"astId": 823,
						"contract": "contracts/Stake-2.0.sol:Stake",
						"label": "_votingStatus",
						"offset": 0,
						"slot": "6",
						"type": "t_bool"
					},
					{
						"astId": 825,
						"contract": "contracts/Stake-2.0.sol:Stake",
						"label": "_votingId",
						"offset": 0,
						"slot": "7",
						"type": "t_uint256"
					},
					{
						"astId": 827,
						"contract": "contracts/Stake-2.0.sol:Stake",
						"label": "totalVoters",
						"offset": 0,
						"slot": "8",
						"type": "t_uint256"
					},
					{
						"astId": 832,
						"contract": "contracts/Stake-2.0.sol:Stake",
						"label": "voters",
						"offset": 0,
						"slot": "9",
						"type": "t_mapping(t_address,t_struct(Voter)811_storage)"
					},
					{
						"astId": 836,
						"contract": "contracts/Stake-2.0.sol:Stake",
						"label": "votedUsers",
						"offset": 0,
						"slot": "10",
						"type": "t_mapping(t_uint256,t_uint256)"
					},
					{
						"astId": 838,
						"contract": "contracts/Stake-2.0.sol:Stake",
						"label": "token_address",
						"offset": 0,
						"slot": "11",
						"type": "t_address"
					},
					{
						"astId": 903,
						"contract": "contracts/Stake-2.0.sol:Stake",
						"label": "stakeholders",
						"offset": 0,
						"slot": "12",
						"type": "t_mapping(t_address,t_struct(Stake)889_storage)"
					}
				],
				"types": {
					"t_address": {
						"encoding": "inplace",
						"label": "address",
						"numberOfBytes": "20"
					},
					"t_bool": {
						"encoding": "inplace",
						"label": "bool",
						"numberOfBytes": "1"
					},
					"t_mapping(t_address,t_struct(Stake)889_storage)": {
						"encoding": "mapping",
						"key": "t_address",
						"label": "mapping(address => struct Stake.Stake)",
						"numberOfBytes": "32",
						"value": "t_struct(Stake)889_storage"
					},
					"t_mapping(t_address,t_struct(Voter)811_storage)": {
						"encoding": "mapping",
						"key": "t_address",
						"label": "mapping(address => struct Stake.Voter)",
						"numberOfBytes": "32",
						"value": "t_struct(Voter)811_storage"
					},
					"t_mapping(t_uint256,t_bool)": {
						"encoding": "mapping",
						"key": "t_uint256",
						"label": "mapping(uint256 => bool)",
						"numberOfBytes": "32",
						"value": "t_bool"
					},
					"t_mapping(t_uint256,t_uint256)": {
						"encoding": "mapping",
						"key": "t_uint256",
						"label": "mapping(uint256 => uint256)",
						"numberOfBytes": "32",
						"value": "t_uint256"
					},
					"t_struct(Stake)889_storage": {
						"encoding": "inplace",
						"label": "struct Stake.Stake",
						"members": [
							{
								"astId": 876,
								"contract": "contracts/Stake-2.0.sol:Stake",
								"label": "amount",
								"offset": 0,
								"slot": "0",
								"type": "t_uint256"
							},
							{
								"astId": 878,
								"contract": "contracts/Stake-2.0.sol:Stake",
								"label": "since",
								"offset": 0,
								"slot": "1",
								"type": "t_uint256"
							},
							{
								"astId": 880,
								"contract": "contracts/Stake-2.0.sol:Stake",
								"label": "rewardAPY",
								"offset": 0,
								"slot": "2",
								"type": "t_uint256"
							},
							{
								"astId": 882,
								"contract": "contracts/Stake-2.0.sol:Stake",
								"label": "releaseTime",
								"offset": 0,
								"slot": "3",
								"type": "t_uint256"
							},
							{
								"astId": 884,
								"contract": "contracts/Stake-2.0.sol:Stake",
								"label": "claimable",
								"offset": 0,
								"slot": "4",
								"type": "t_uint256"
							},
							{
								"astId": 886,
								"contract": "contracts/Stake-2.0.sol:Stake",
								"label": "claimableAirdrop",
								"offset": 0,
								"slot": "5",
								"type": "t_uint256"
							},
							{
								"astId": 888,
								"contract": "contracts/Stake-2.0.sol:Stake",
								"label": "latestClaimDrop",
								"offset": 0,
								"slot": "6",
								"type": "t_uint256"
							}
						],
						"numberOfBytes": "224"
					},
					"t_struct(Voter)811_storage": {
						"encoding": "inplace",
						"label": "struct Stake.Voter",
						"members": [
							{
								"astId": 806,
								"contract": "contracts/Stake-2.0.sol:Stake",
								"label": "votingRight",
								"offset": 0,
								"slot": "0",
								"type": "t_bool"
							},
							{
								"astId": 810,
								"contract": "contracts/Stake-2.0.sol:Stake",
								"label": "voted",
								"offset": 0,
								"slot": "1",
								"type": "t_mapping(t_uint256,t_bool)"
							}
						],
						"numberOfBytes": "64"
					},
					"t_uint256": {
						"encoding": "inplace",
						"label": "uint256",
						"numberOfBytes": "32"
					}
				}
			},
			"userdoc": {
				"errors": {
					"Airdrop__claimableOnceAWeek()": [
						{
							"notice": "Error handling message for Airdrop functions"
						}
					]
				},
				"events": {
					"Staked(address,uint256,uint256,uint256)": {
						"notice": "Staked event is triggered whenever a user stakes tokens, address is indexed to make it filterable"
					}
				},
				"kind": "user",
				"methods": {
					"stake(uint256,uint256)": {
						"notice": "_Stake is used to make a stake for an sender. It will remove the amount staked from the stakers account and place those tokens inside a stake container StakeID"
					},
					"withdrawStake()": {
						"notice": "withdrawStake takes in an amount and a index of the stake and will remove tokens from that stake Notice index of the stake is the users stake counter, starting at 0 for the first stake Will return the amount to MINT onto the account Will also _calculateStakeReward and reset timer"
					}
				},
				"version": 1
			}
		}
	}
}