{
	"contracts/VestingWallet.sol": {
		"VestingWallet": {
			"abi": [
				{
					"inputs": [
						{
							"internalType": "address",
							"name": "beneficiaryAddress",
							"type": "address"
						},
						{
							"internalType": "uint64",
							"name": "startTimestamp",
							"type": "uint64"
						},
						{
							"internalType": "uint64",
							"name": "durationSeconds",
							"type": "uint64"
						}
					],
					"stateMutability": "payable",
					"type": "constructor"
				},
				{
					"anonymous": false,
					"inputs": [
						{
							"indexed": true,
							"internalType": "address",
							"name": "token",
							"type": "address"
						},
						{
							"indexed": false,
							"internalType": "uint256",
							"name": "amount",
							"type": "uint256"
						}
					],
					"name": "ERC20Released",
					"type": "event"
				},
				{
					"anonymous": false,
					"inputs": [
						{
							"indexed": false,
							"internalType": "uint256",
							"name": "amount",
							"type": "uint256"
						}
					],
					"name": "EtherReleased",
					"type": "event"
				},
				{
					"inputs": [],
					"name": "beneficiary",
					"outputs": [
						{
							"internalType": "address",
							"name": "",
							"type": "address"
						}
					],
					"stateMutability": "view",
					"type": "function"
				},
				{
					"inputs": [],
					"name": "duration",
					"outputs": [
						{
							"internalType": "uint256",
							"name": "",
							"type": "uint256"
						}
					],
					"stateMutability": "view",
					"type": "function"
				},
				{
					"inputs": [
						{
							"internalType": "address",
							"name": "token",
							"type": "address"
						}
					],
					"name": "releasable",
					"outputs": [
						{
							"internalType": "uint256",
							"name": "",
							"type": "uint256"
						}
					],
					"stateMutability": "view",
					"type": "function"
				},
				{
					"inputs": [],
					"name": "releasable",
					"outputs": [
						{
							"internalType": "uint256",
							"name": "",
							"type": "uint256"
						}
					],
					"stateMutability": "view",
					"type": "function"
				},
				{
					"inputs": [
						{
							"internalType": "address",
							"name": "token",
							"type": "address"
						}
					],
					"name": "release",
					"outputs": [],
					"stateMutability": "nonpayable",
					"type": "function"
				},
				{
					"inputs": [],
					"name": "release",
					"outputs": [],
					"stateMutability": "nonpayable",
					"type": "function"
				},
				{
					"inputs": [],
					"name": "released",
					"outputs": [
						{
							"internalType": "uint256",
							"name": "",
							"type": "uint256"
						}
					],
					"stateMutability": "view",
					"type": "function"
				},
				{
					"inputs": [
						{
							"internalType": "address",
							"name": "token",
							"type": "address"
						}
					],
					"name": "released",
					"outputs": [
						{
							"internalType": "uint256",
							"name": "",
							"type": "uint256"
						}
					],
					"stateMutability": "view",
					"type": "function"
				},
				{
					"inputs": [],
					"name": "start",
					"outputs": [
						{
							"internalType": "uint256",
							"name": "",
							"type": "uint256"
						}
					],
					"stateMutability": "view",
					"type": "function"
				},
				{
					"inputs": [
						{
							"internalType": "uint64",
							"name": "timestamp",
							"type": "uint64"
						}
					],
					"name": "vestedAmount",
					"outputs": [
						{
							"internalType": "uint256",
							"name": "",
							"type": "uint256"
						}
					],
					"stateMutability": "view",
					"type": "function"
				},
				{
					"inputs": [
						{
							"internalType": "address",
							"name": "token",
							"type": "address"
						},
						{
							"internalType": "uint64",
							"name": "timestamp",
							"type": "uint64"
						}
					],
					"name": "vestedAmount",
					"outputs": [
						{
							"internalType": "uint256",
							"name": "",
							"type": "uint256"
						}
					],
					"stateMutability": "view",
					"type": "function"
				},
				{
					"stateMutability": "payable",
					"type": "receive"
				}
			],
			"devdoc": {
				"details": "This contract handles the vesting of Eth and ERC20 tokens for a given beneficiary. Custody of multiple tokens can be given to this contract, which will release the token to the beneficiary following a given vesting schedule. The vesting schedule is customizable through the {vestedAmount} function. Any token transferred to this contract will follow the vesting schedule as if they were locked from the beginning. Consequently, if the vesting has already started, any amount of tokens sent to this contract will (at least partly) be immediately releasable.",
				"kind": "dev",
				"methods": {
					"beneficiary()": {
						"details": "Getter for the beneficiary address."
					},
					"constructor": {
						"details": "Set the beneficiary, start timestamp and vesting duration of the vesting wallet."
					},
					"duration()": {
						"details": "Getter for the vesting duration."
					},
					"releasable()": {
						"details": "Getter for the amount of releasable eth."
					},
					"releasable(address)": {
						"details": "Getter for the amount of releasable `token` tokens. `token` should be the address of an IERC20 contract."
					},
					"release()": {
						"details": "Release the native token (ether) that have already vested. Emits a {EtherReleased} event."
					},
					"release(address)": {
						"details": "Release the tokens that have already vested. Emits a {ERC20Released} event."
					},
					"released()": {
						"details": "Amount of eth already released"
					},
					"released(address)": {
						"details": "Amount of token already released"
					},
					"start()": {
						"details": "Getter for the start timestamp."
					},
					"vestedAmount(address,uint64)": {
						"details": "Calculates the amount of tokens that has already vested. Default implementation is a linear vesting curve."
					},
					"vestedAmount(uint64)": {
						"details": "Calculates the amount of ether that has already vested. Default implementation is a linear vesting curve."
					}
				},
				"title": "VestingWallet",
				"version": 1
			},
			"evm": {
				"assembly": "    /* \"contracts/VestingWallet.sol\":919:5959  contract VestingWallet is Context {... */\n  mstore(0x40, 0xe0)\n    /* \"contracts/VestingWallet.sol\":1415:1791  constructor(... */\n  mload(0x40)\n  sub(codesize, bytecodeSize)\n  dup1\n  bytecodeSize\n  dup4\n  codecopy\n  dup2\n  dup2\n  add\n  0x40\n  mstore\n  dup2\n  add\n  swap1\n  tag_1\n  swap2\n  swap1\n  tag_2\n  jump\t// in\ntag_1:\n    /* \"contracts/VestingWallet.sol\":1601:1602  0 */\n  0x00\n    /* \"contracts/VestingWallet.sol\":1571:1603  beneficiaryAddress != address(0) */\n  0xffffffffffffffffffffffffffffffffffffffff\n  and\n    /* \"contracts/VestingWallet.sol\":1571:1589  beneficiaryAddress */\n  dup4\n    /* \"contracts/VestingWallet.sol\":1571:1603  beneficiaryAddress != address(0) */\n  0xffffffffffffffffffffffffffffffffffffffff\n  and\n  eq\n  iszero\n    /* \"contracts/VestingWallet.sol\":1550:1671  require(... */\n  tag_5\n  jumpi\n  mload(0x40)\n  0x08c379a000000000000000000000000000000000000000000000000000000000\n  dup2\n  mstore\n  0x04\n  add\n  tag_6\n  swap1\n  tag_7\n  jump\t// in\ntag_6:\n  mload(0x40)\n  dup1\n  swap2\n  sub\n  swap1\n  revert\ntag_5:\n    /* \"contracts/VestingWallet.sol\":1696:1714  beneficiaryAddress */\n  dup3\n    /* \"contracts/VestingWallet.sol\":1681:1714  _beneficiary = beneficiaryAddress */\n  0xffffffffffffffffffffffffffffffffffffffff\n  and\n  0x80\n  dup2\n  0xffffffffffffffffffffffffffffffffffffffff\n  and\n  dup2\n  mstore\n  pop\n  pop\n    /* \"contracts/VestingWallet.sol\":1733:1747  startTimestamp */\n  dup2\n    /* \"contracts/VestingWallet.sol\":1724:1747  _start = startTimestamp */\n  0xffffffffffffffff\n  and\n  0xa0\n  dup2\n  0xffffffffffffffff\n  and\n  dup2\n  mstore\n  pop\n  pop\n    /* \"contracts/VestingWallet.sol\":1769:1784  durationSeconds */\n  dup1\n    /* \"contracts/VestingWallet.sol\":1757:1784  _duration = durationSeconds */\n  0xffffffffffffffff\n  and\n  0xc0\n  dup2\n  0xffffffffffffffff\n  and\n  dup2\n  mstore\n  pop\n  pop\n    /* \"contracts/VestingWallet.sol\":1415:1791  constructor(... */\n  pop\n  pop\n  pop\n    /* \"contracts/VestingWallet.sol\":919:5959  contract VestingWallet is Context {... */\n  jump(tag_8)\n    /* \"#utility.yul\":88:205   */\ntag_10:\n    /* \"#utility.yul\":197:198   */\n  0x00\n    /* \"#utility.yul\":194:195   */\n  dup1\n    /* \"#utility.yul\":187:199   */\n  revert\n    /* \"#utility.yul\":334:460   */\ntag_12:\n    /* \"#utility.yul\":371:378   */\n  0x00\n    /* \"#utility.yul\":411:453   */\n  0xffffffffffffffffffffffffffffffffffffffff\n    /* \"#utility.yul\":404:409   */\n  dup3\n    /* \"#utility.yul\":400:454   */\n  and\n    /* \"#utility.yul\":389:454   */\n  swap1\n  pop\n    /* \"#utility.yul\":334:460   */\n  swap2\n  swap1\n  pop\n  jump\t// out\n    /* \"#utility.yul\":466:562   */\ntag_13:\n    /* \"#utility.yul\":503:510   */\n  0x00\n    /* \"#utility.yul\":532:556   */\n  tag_28\n    /* \"#utility.yul\":550:555   */\n  dup3\n    /* \"#utility.yul\":532:556   */\n  tag_12\n  jump\t// in\ntag_28:\n    /* \"#utility.yul\":521:556   */\n  swap1\n  pop\n    /* \"#utility.yul\":466:562   */\n  swap2\n  swap1\n  pop\n  jump\t// out\n    /* \"#utility.yul\":568:690   */\ntag_14:\n    /* \"#utility.yul\":641:665   */\n  tag_30\n    /* \"#utility.yul\":659:664   */\n  dup2\n    /* \"#utility.yul\":641:665   */\n  tag_13\n  jump\t// in\ntag_30:\n    /* \"#utility.yul\":634:639   */\n  dup2\n    /* \"#utility.yul\":631:666   */\n  eq\n    /* \"#utility.yul\":621:684   */\n  tag_31\n  jumpi\n    /* \"#utility.yul\":680:681   */\n  0x00\n    /* \"#utility.yul\":677:678   */\n  dup1\n    /* \"#utility.yul\":670:682   */\n  revert\n    /* \"#utility.yul\":621:684   */\ntag_31:\n    /* \"#utility.yul\":568:690   */\n  pop\n  jump\t// out\n    /* \"#utility.yul\":696:839   */\ntag_15:\n    /* \"#utility.yul\":753:758   */\n  0x00\n    /* \"#utility.yul\":784:790   */\n  dup2\n    /* \"#utility.yul\":778:791   */\n  mload\n    /* \"#utility.yul\":769:791   */\n  swap1\n  pop\n    /* \"#utility.yul\":800:833   */\n  tag_33\n    /* \"#utility.yul\":827:832   */\n  dup2\n    /* \"#utility.yul\":800:833   */\n  tag_14\n  jump\t// in\ntag_33:\n    /* \"#utility.yul\":696:839   */\n  swap3\n  swap2\n  pop\n  pop\n  jump\t// out\n    /* \"#utility.yul\":845:946   */\ntag_16:\n    /* \"#utility.yul\":881:888   */\n  0x00\n    /* \"#utility.yul\":921:939   */\n  0xffffffffffffffff\n    /* \"#utility.yul\":914:919   */\n  dup3\n    /* \"#utility.yul\":910:940   */\n  and\n    /* \"#utility.yul\":899:940   */\n  swap1\n  pop\n    /* \"#utility.yul\":845:946   */\n  swap2\n  swap1\n  pop\n  jump\t// out\n    /* \"#utility.yul\":952:1072   */\ntag_17:\n    /* \"#utility.yul\":1024:1047   */\n  tag_36\n    /* \"#utility.yul\":1041:1046   */\n  dup2\n    /* \"#utility.yul\":1024:1047   */\n  tag_16\n  jump\t// in\ntag_36:\n    /* \"#utility.yul\":1017:1022   */\n  dup2\n    /* \"#utility.yul\":1014:1048   */\n  eq\n    /* \"#utility.yul\":1004:1066   */\n  tag_37\n  jumpi\n    /* \"#utility.yul\":1062:1063   */\n  0x00\n    /* \"#utility.yul\":1059:1060   */\n  dup1\n    /* \"#utility.yul\":1052:1064   */\n  revert\n    /* \"#utility.yul\":1004:1066   */\ntag_37:\n    /* \"#utility.yul\":952:1072   */\n  pop\n  jump\t// out\n    /* \"#utility.yul\":1078:1219   */\ntag_18:\n    /* \"#utility.yul\":1134:1139   */\n  0x00\n    /* \"#utility.yul\":1165:1171   */\n  dup2\n    /* \"#utility.yul\":1159:1172   */\n  mload\n    /* \"#utility.yul\":1150:1172   */\n  swap1\n  pop\n    /* \"#utility.yul\":1181:1213   */\n  tag_39\n    /* \"#utility.yul\":1207:1212   */\n  dup2\n    /* \"#utility.yul\":1181:1213   */\n  tag_17\n  jump\t// in\ntag_39:\n    /* \"#utility.yul\":1078:1219   */\n  swap3\n  swap2\n  pop\n  pop\n  jump\t// out\n    /* \"#utility.yul\":1225:1884   */\ntag_2:\n    /* \"#utility.yul\":1311:1317   */\n  0x00\n    /* \"#utility.yul\":1319:1325   */\n  dup1\n    /* \"#utility.yul\":1327:1333   */\n  0x00\n    /* \"#utility.yul\":1376:1378   */\n  0x60\n    /* \"#utility.yul\":1364:1373   */\n  dup5\n    /* \"#utility.yul\":1355:1362   */\n  dup7\n    /* \"#utility.yul\":1351:1374   */\n  sub\n    /* \"#utility.yul\":1347:1379   */\n  slt\n    /* \"#utility.yul\":1344:1463   */\n  iszero\n  tag_41\n  jumpi\n    /* \"#utility.yul\":1382:1461   */\n  tag_42\n  tag_10\n  jump\t// in\ntag_42:\n    /* \"#utility.yul\":1344:1463   */\ntag_41:\n    /* \"#utility.yul\":1502:1503   */\n  0x00\n    /* \"#utility.yul\":1527:1591   */\n  tag_43\n    /* \"#utility.yul\":1583:1590   */\n  dup7\n    /* \"#utility.yul\":1574:1580   */\n  dup3\n    /* \"#utility.yul\":1563:1572   */\n  dup8\n    /* \"#utility.yul\":1559:1581   */\n  add\n    /* \"#utility.yul\":1527:1591   */\n  tag_15\n  jump\t// in\ntag_43:\n    /* \"#utility.yul\":1517:1591   */\n  swap4\n  pop\n    /* \"#utility.yul\":1473:1601   */\n  pop\n    /* \"#utility.yul\":1640:1642   */\n  0x20\n    /* \"#utility.yul\":1666:1729   */\n  tag_44\n    /* \"#utility.yul\":1721:1728   */\n  dup7\n    /* \"#utility.yul\":1712:1718   */\n  dup3\n    /* \"#utility.yul\":1701:1710   */\n  dup8\n    /* \"#utility.yul\":1697:1719   */\n  add\n    /* \"#utility.yul\":1666:1729   */\n  tag_18\n  jump\t// in\ntag_44:\n    /* \"#utility.yul\":1656:1729   */\n  swap3\n  pop\n    /* \"#utility.yul\":1611:1739   */\n  pop\n    /* \"#utility.yul\":1778:1780   */\n  0x40\n    /* \"#utility.yul\":1804:1867   */\n  tag_45\n    /* \"#utility.yul\":1859:1866   */\n  dup7\n    /* \"#utility.yul\":1850:1856   */\n  dup3\n    /* \"#utility.yul\":1839:1848   */\n  dup8\n    /* \"#utility.yul\":1835:1857   */\n  add\n    /* \"#utility.yul\":1804:1867   */\n  tag_18\n  jump\t// in\ntag_45:\n    /* \"#utility.yul\":1794:1867   */\n  swap2\n  pop\n    /* \"#utility.yul\":1749:1877   */\n  pop\n    /* \"#utility.yul\":1225:1884   */\n  swap3\n  pop\n  swap3\n  pop\n  swap3\n  jump\t// out\n    /* \"#utility.yul\":1890:2059   */\ntag_19:\n    /* \"#utility.yul\":1974:1985   */\n  0x00\n    /* \"#utility.yul\":2008:2014   */\n  dup3\n    /* \"#utility.yul\":2003:2006   */\n  dup3\n    /* \"#utility.yul\":1996:2015   */\n  mstore\n    /* \"#utility.yul\":2048:2052   */\n  0x20\n    /* \"#utility.yul\":2043:2046   */\n  dup3\n    /* \"#utility.yul\":2039:2053   */\n  add\n    /* \"#utility.yul\":2024:2053   */\n  swap1\n  pop\n    /* \"#utility.yul\":1890:2059   */\n  swap3\n  swap2\n  pop\n  pop\n  jump\t// out\n    /* \"#utility.yul\":2065:2294   */\ntag_20:\n    /* \"#utility.yul\":2205:2239   */\n  0x56657374696e6757616c6c65743a2062656e6566696369617279206973207a65\n    /* \"#utility.yul\":2201:2202   */\n  0x00\n    /* \"#utility.yul\":2193:2199   */\n  dup3\n    /* \"#utility.yul\":2189:2203   */\n  add\n    /* \"#utility.yul\":2182:2240   */\n  mstore\n    /* \"#utility.yul\":2274:2286   */\n  0x726f206164647265737300000000000000000000000000000000000000000000\n    /* \"#utility.yul\":2269:2271   */\n  0x20\n    /* \"#utility.yul\":2261:2267   */\n  dup3\n    /* \"#utility.yul\":2257:2272   */\n  add\n    /* \"#utility.yul\":2250:2287   */\n  mstore\n    /* \"#utility.yul\":2065:2294   */\n  pop\n  jump\t// out\n    /* \"#utility.yul\":2300:2666   */\ntag_21:\n    /* \"#utility.yul\":2442:2445   */\n  0x00\n    /* \"#utility.yul\":2463:2530   */\n  tag_49\n    /* \"#utility.yul\":2527:2529   */\n  0x2a\n    /* \"#utility.yul\":2522:2525   */\n  dup4\n    /* \"#utility.yul\":2463:2530   */\n  tag_19\n  jump\t// in\ntag_49:\n    /* \"#utility.yul\":2456:2530   */\n  swap2\n  pop\n    /* \"#utility.yul\":2539:2632   */\n  tag_50\n    /* \"#utility.yul\":2628:2631   */\n  dup3\n    /* \"#utility.yul\":2539:2632   */\n  tag_20\n  jump\t// in\ntag_50:\n    /* \"#utility.yul\":2657:2659   */\n  0x40\n    /* \"#utility.yul\":2652:2655   */\n  dup3\n    /* \"#utility.yul\":2648:2660   */\n  add\n    /* \"#utility.yul\":2641:2660   */\n  swap1\n  pop\n    /* \"#utility.yul\":2300:2666   */\n  swap2\n  swap1\n  pop\n  jump\t// out\n    /* \"#utility.yul\":2672:3091   */\ntag_7:\n    /* \"#utility.yul\":2838:2842   */\n  0x00\n    /* \"#utility.yul\":2876:2878   */\n  0x20\n    /* \"#utility.yul\":2865:2874   */\n  dup3\n    /* \"#utility.yul\":2861:2879   */\n  add\n    /* \"#utility.yul\":2853:2879   */\n  swap1\n  pop\n    /* \"#utility.yul\":2925:2934   */\n  dup2\n    /* \"#utility.yul\":2919:2923   */\n  dup2\n    /* \"#utility.yul\":2915:2935   */\n  sub\n    /* \"#utility.yul\":2911:2912   */\n  0x00\n    /* \"#utility.yul\":2900:2909   */\n  dup4\n    /* \"#utility.yul\":2896:2913   */\n  add\n    /* \"#utility.yul\":2889:2936   */\n  mstore\n    /* \"#utility.yul\":2953:3084   */\n  tag_52\n    /* \"#utility.yul\":3079:3083   */\n  dup2\n    /* \"#utility.yul\":2953:3084   */\n  tag_21\n  jump\t// in\ntag_52:\n    /* \"#utility.yul\":2945:3084   */\n  swap1\n  pop\n    /* \"#utility.yul\":2672:3091   */\n  swap2\n  swap1\n  pop\n  jump\t// out\n    /* \"contracts/VestingWallet.sol\":919:5959  contract VestingWallet is Context {... */\ntag_8:\n  mload(0x80)\n  mload(0xa0)\n  mload(0xc0)\n  codecopy(0x00, dataOffset(sub_0), dataSize(sub_0))\n  0x00\n  assignImmutable(\"0x42fa20e8c2fc174121a60bb5704cfd8579fc4a2698f9ae487d1310659094676e\")\n  0x00\n  assignImmutable(\"0x7017d9c97eaea77d01457db50e6363ce7b077b4a6becffdfbcdd71ef4a35f299\")\n  0x00\n  assignImmutable(\"0x229c1a869fa9219aaf3cffa1029c94731492e7db4f2bafdf90c8213837a49fd5\")\n  return(0x00, dataSize(sub_0))\nstop\n\nsub_0: assembly {\n        /* \"contracts/VestingWallet.sol\":919:5959  contract VestingWallet is Context {... */\n      mstore(0x40, 0x80)\n      jumpi(tag_1, lt(calldatasize, 0x04))\n      shr(0xe0, calldataload(0x00))\n      dup1\n      0x86d1a69f\n      gt\n      tag_14\n      jumpi\n      dup1\n      0x86d1a69f\n      eq\n      tag_8\n      jumpi\n      dup1\n      0x96132521\n      eq\n      tag_9\n      jumpi\n      dup1\n      0x9852595c\n      eq\n      tag_10\n      jumpi\n      dup1\n      0xa3f8eace\n      eq\n      tag_11\n      jumpi\n      dup1\n      0xbe9a6555\n      eq\n      tag_12\n      jumpi\n      dup1\n      0xfbccedae\n      eq\n      tag_13\n      jumpi\n      jump(tag_2)\n    tag_14:\n      dup1\n      0x0a17b06b\n      eq\n      tag_3\n      jumpi\n      dup1\n      0x0fb5a6b4\n      eq\n      tag_4\n      jumpi\n      dup1\n      0x19165587\n      eq\n      tag_5\n      jumpi\n      dup1\n      0x38af3eed\n      eq\n      tag_6\n      jumpi\n      dup1\n      0x810ec23b\n      eq\n      tag_7\n      jumpi\n      jump(tag_2)\n    tag_1:\n      jumpi(tag_2, calldatasize)\n      stop\n    tag_2:\n      0x00\n      dup1\n      revert\n        /* \"contracts/VestingWallet.sol\":4722:4923  function vestedAmount(uint64 timestamp)... */\n    tag_3:\n      callvalue\n      dup1\n      iszero\n      tag_17\n      jumpi\n      0x00\n      dup1\n      revert\n    tag_17:\n      pop\n      tag_18\n      0x04\n      dup1\n      calldatasize\n      sub\n      dup2\n      add\n      swap1\n      tag_19\n      swap2\n      swap1\n      tag_20\n      jump\t// in\n    tag_19:\n      tag_21\n      jump\t// in\n    tag_18:\n      mload(0x40)\n      tag_22\n      swap2\n      swap1\n      tag_23\n      jump\t// in\n    tag_22:\n      mload(0x40)\n      dup1\n      swap2\n      sub\n      swap1\n      return\n        /* \"contracts/VestingWallet.sol\":2291:2382  function duration() public view virtual returns (uint256) {... */\n    tag_4:\n      callvalue\n      dup1\n      iszero\n      tag_24\n      jumpi\n      0x00\n      dup1\n      revert\n    tag_24:\n      pop\n      tag_25\n      tag_26\n      jump\t// in\n    tag_25:\n      mload(0x40)\n      tag_27\n      swap2\n      swap1\n      tag_23\n      jump\t// in\n    tag_27:\n      mload(0x40)\n      dup1\n      swap2\n      sub\n      swap1\n      return\n        /* \"contracts/VestingWallet.sol\":3922:4280  function release(address token) public virtual {... */\n    tag_5:\n      callvalue\n      dup1\n      iszero\n      tag_28\n      jumpi\n      0x00\n      dup1\n      revert\n    tag_28:\n      pop\n      tag_29\n      0x04\n      dup1\n      calldatasize\n      sub\n      dup2\n      add\n      swap1\n      tag_30\n      swap2\n      swap1\n      tag_31\n      jump\t// in\n    tag_30:\n      tag_32\n      jump\t// in\n    tag_29:\n      stop\n        /* \"contracts/VestingWallet.sol\":1976:2073  function beneficiary() public view virtual returns (address) {... */\n    tag_6:\n      callvalue\n      dup1\n      iszero\n      tag_33\n      jumpi\n      0x00\n      dup1\n      revert\n    tag_33:\n      pop\n      tag_34\n      tag_35\n      jump\t// in\n    tag_34:\n      mload(0x40)\n      tag_36\n      swap2\n      swap1\n      tag_37\n      jump\t// in\n    tag_36:\n      mload(0x40)\n      dup1\n      swap2\n      sub\n      swap1\n      return\n        /* \"contracts/VestingWallet.sol\":5064:5360  function vestedAmount(address token, uint64 timestamp)... */\n    tag_7:\n      callvalue\n      dup1\n      iszero\n      tag_38\n      jumpi\n      0x00\n      dup1\n      revert\n    tag_38:\n      pop\n      tag_39\n      0x04\n      dup1\n      calldatasize\n      sub\n      dup2\n      add\n      swap1\n      tag_40\n      swap2\n      swap1\n      tag_41\n      jump\t// in\n    tag_40:\n      tag_42\n      jump\t// in\n    tag_39:\n      mload(0x40)\n      tag_43\n      swap2\n      swap1\n      tag_23\n      jump\t// in\n    tag_43:\n      mload(0x40)\n      dup1\n      swap2\n      sub\n      swap1\n      return\n        /* \"contracts/VestingWallet.sol\":3373:3577  function release() public virtual {... */\n    tag_8:\n      callvalue\n      dup1\n      iszero\n      tag_44\n      jumpi\n      0x00\n      dup1\n      revert\n    tag_44:\n      pop\n      tag_45\n      tag_46\n      jump\t// in\n    tag_45:\n      stop\n        /* \"contracts/VestingWallet.sol\":2447:2538  function released() public view virtual returns (uint256) {... */\n    tag_9:\n      callvalue\n      dup1\n      iszero\n      tag_47\n      jumpi\n      0x00\n      dup1\n      revert\n    tag_47:\n      pop\n      tag_48\n      tag_49\n      jump\t// in\n    tag_48:\n      mload(0x40)\n      tag_50\n      swap2\n      swap1\n      tag_23\n      jump\t// in\n    tag_50:\n      mload(0x40)\n      dup1\n      swap2\n      sub\n      swap1\n      return\n        /* \"contracts/VestingWallet.sol\":2605:2721  function released(address token) public view virtual returns (uint256) {... */\n    tag_10:\n      callvalue\n      dup1\n      iszero\n      tag_51\n      jumpi\n      0x00\n      dup1\n      revert\n    tag_51:\n      pop\n      tag_52\n      0x04\n      dup1\n      calldatasize\n      sub\n      dup2\n      add\n      swap1\n      tag_53\n      swap2\n      swap1\n      tag_31\n      jump\t// in\n    tag_53:\n      tag_54\n      jump\t// in\n    tag_52:\n      mload(0x40)\n      tag_55\n      swap2\n      swap1\n      tag_23\n      jump\t// in\n    tag_55:\n      mload(0x40)\n      dup1\n      swap2\n      sub\n      swap1\n      return\n        /* \"contracts/VestingWallet.sol\":3076:3235  function releasable(address token) public view virtual returns (uint256) {... */\n    tag_11:\n      callvalue\n      dup1\n      iszero\n      tag_56\n      jumpi\n      0x00\n      dup1\n      revert\n    tag_56:\n      pop\n      tag_57\n      0x04\n      dup1\n      calldatasize\n      sub\n      dup2\n      add\n      swap1\n      tag_58\n      swap2\n      swap1\n      tag_31\n      jump\t// in\n    tag_58:\n      tag_59\n      jump\t// in\n    tag_57:\n      mload(0x40)\n      tag_60\n      swap2\n      swap1\n      tag_23\n      jump\t// in\n    tag_60:\n      mload(0x40)\n      dup1\n      swap2\n      sub\n      swap1\n      return\n        /* \"contracts/VestingWallet.sol\":2139:2224  function start() public view virtual returns (uint256) {... */\n    tag_12:\n      callvalue\n      dup1\n      iszero\n      tag_61\n      jumpi\n      0x00\n      dup1\n      revert\n    tag_61:\n      pop\n      tag_62\n      tag_63\n      jump\t// in\n    tag_62:\n      mload(0x40)\n      tag_64\n      swap2\n      swap1\n      tag_23\n      jump\t// in\n    tag_64:\n      mload(0x40)\n      dup1\n      swap2\n      sub\n      swap1\n      return\n        /* \"contracts/VestingWallet.sol\":2796:2930  function releasable() public view virtual returns (uint256) {... */\n    tag_13:\n      callvalue\n      dup1\n      iszero\n      tag_65\n      jumpi\n      0x00\n      dup1\n      revert\n    tag_65:\n      pop\n      tag_66\n      tag_67\n      jump\t// in\n    tag_66:\n      mload(0x40)\n      tag_68\n      swap2\n      swap1\n      tag_23\n      jump\t// in\n    tag_68:\n      mload(0x40)\n      dup1\n      swap2\n      sub\n      swap1\n      return\n        /* \"contracts/VestingWallet.sol\":4722:4923  function vestedAmount(uint64 timestamp)... */\n    tag_21:\n        /* \"contracts/VestingWallet.sol\":4823:4830  uint256 */\n      0x00\n        /* \"contracts/VestingWallet.sol\":4853:4916  _vestingSchedule(address(this).balance + released(), timestamp) */\n      tag_70\n        /* \"contracts/VestingWallet.sol\":4894:4904  released() */\n      tag_71\n        /* \"contracts/VestingWallet.sol\":4894:4902  released */\n      tag_49\n        /* \"contracts/VestingWallet.sol\":4894:4904  released() */\n      jump\t// in\n    tag_71:\n        /* \"contracts/VestingWallet.sol\":4870:4891  address(this).balance */\n      selfbalance\n        /* \"contracts/VestingWallet.sol\":4870:4904  address(this).balance + released() */\n      tag_72\n      swap2\n      swap1\n      tag_73\n      jump\t// in\n    tag_72:\n        /* \"contracts/VestingWallet.sol\":4906:4915  timestamp */\n      dup4\n        /* \"contracts/VestingWallet.sol\":4853:4869  _vestingSchedule */\n      tag_74\n        /* \"contracts/VestingWallet.sol\":4853:4916  _vestingSchedule(address(this).balance + released(), timestamp) */\n      jump\t// in\n    tag_70:\n        /* \"contracts/VestingWallet.sol\":4846:4916  return _vestingSchedule(address(this).balance + released(), timestamp) */\n      swap1\n      pop\n        /* \"contracts/VestingWallet.sol\":4722:4923  function vestedAmount(uint64 timestamp)... */\n      swap2\n      swap1\n      pop\n      jump\t// out\n        /* \"contracts/VestingWallet.sol\":2291:2382  function duration() public view virtual returns (uint256) {... */\n    tag_26:\n        /* \"contracts/VestingWallet.sol\":2340:2347  uint256 */\n      0x00\n        /* \"contracts/VestingWallet.sol\":2366:2375  _duration */\n      immutable(\"0x42fa20e8c2fc174121a60bb5704cfd8579fc4a2698f9ae487d1310659094676e\")\n        /* \"contracts/VestingWallet.sol\":2359:2375  return _duration */\n      0xffffffffffffffff\n      and\n      swap1\n      pop\n        /* \"contracts/VestingWallet.sol\":2291:2382  function duration() public view virtual returns (uint256) {... */\n      swap1\n      jump\t// out\n        /* \"contracts/VestingWallet.sol\":3922:4280  function release(address token) public virtual {... */\n    tag_32:\n        /* \"contracts/VestingWallet.sol\":3979:3993  uint256 amount */\n      0x00\n        /* \"contracts/VestingWallet.sol\":3996:4013  releasable(token) */\n      tag_77\n        /* \"contracts/VestingWallet.sol\":4007:4012  token */\n      dup3\n        /* \"contracts/VestingWallet.sol\":3996:4006  releasable */\n      tag_59\n        /* \"contracts/VestingWallet.sol\":3996:4013  releasable(token) */\n      jump\t// in\n    tag_77:\n        /* \"contracts/VestingWallet.sol\":3979:4013  uint256 amount = releasable(token) */\n      swap1\n      pop\n        /* \"contracts/VestingWallet.sol\":4045:4054  lastMonth */\n      sload(0x02)\n        /* \"contracts/VestingWallet.sol\":4027:4042  _currentMonth() */\n      tag_78\n        /* \"contracts/VestingWallet.sol\":4027:4040  _currentMonth */\n      tag_79\n        /* \"contracts/VestingWallet.sol\":4027:4042  _currentMonth() */\n      jump\t// in\n    tag_78:\n        /* \"contracts/VestingWallet.sol\":4027:4054  _currentMonth() > lastMonth */\n      gt\n        /* \"contracts/VestingWallet.sol\":4023:4274  if (_currentMonth() > lastMonth) {... */\n      iszero\n      tag_80\n      jumpi\n        /* \"contracts/VestingWallet.sol\":4082:4097  _currentMonth() */\n      tag_81\n        /* \"contracts/VestingWallet.sol\":4082:4095  _currentMonth */\n      tag_79\n        /* \"contracts/VestingWallet.sol\":4082:4097  _currentMonth() */\n      jump\t// in\n    tag_81:\n        /* \"contracts/VestingWallet.sol\":4070:4079  lastMonth */\n      0x02\n        /* \"contracts/VestingWallet.sol\":4070:4097  lastMonth = _currentMonth() */\n      dup2\n      swap1\n      sstore\n      pop\n        /* \"contracts/VestingWallet.sol\":4136:4142  amount */\n      dup1\n        /* \"contracts/VestingWallet.sol\":4111:4125  _erc20Released */\n      0x01\n        /* \"contracts/VestingWallet.sol\":4111:4132  _erc20Released[token] */\n      0x00\n        /* \"contracts/VestingWallet.sol\":4126:4131  token */\n      dup5\n        /* \"contracts/VestingWallet.sol\":4111:4132  _erc20Released[token] */\n      0xffffffffffffffffffffffffffffffffffffffff\n      and\n      0xffffffffffffffffffffffffffffffffffffffff\n      and\n      dup2\n      mstore\n      0x20\n      add\n      swap1\n      dup2\n      mstore\n      0x20\n      add\n      0x00\n      keccak256\n      0x00\n        /* \"contracts/VestingWallet.sol\":4111:4142  _erc20Released[token] += amount */\n      dup3\n      dup3\n      sload\n      tag_82\n      swap2\n      swap1\n      tag_73\n      jump\t// in\n    tag_82:\n      swap3\n      pop\n      pop\n      dup2\n      swap1\n      sstore\n      pop\n        /* \"contracts/VestingWallet.sol\":4175:4180  token */\n      dup2\n        /* \"contracts/VestingWallet.sol\":4161:4189  ERC20Released(token, amount) */\n      0xffffffffffffffffffffffffffffffffffffffff\n      and\n      0xc0e523490dd523c33b1878c9eb14ff46991e3f5b2cd33710918618f2a39cba1b\n        /* \"contracts/VestingWallet.sol\":4182:4188  amount */\n      dup3\n        /* \"contracts/VestingWallet.sol\":4161:4189  ERC20Released(token, amount) */\n      mload(0x40)\n      tag_83\n      swap2\n      swap1\n      tag_23\n      jump\t// in\n    tag_83:\n      mload(0x40)\n      dup1\n      swap2\n      sub\n      swap1\n      log2\n        /* \"contracts/VestingWallet.sol\":4203:4263  SafeERC20.safeTransfer(IERC20(token), beneficiary(), amount) */\n      tag_84\n        /* \"contracts/VestingWallet.sol\":4233:4238  token */\n      dup3\n        /* \"contracts/VestingWallet.sol\":4241:4254  beneficiary() */\n      tag_85\n        /* \"contracts/VestingWallet.sol\":4241:4252  beneficiary */\n      tag_35\n        /* \"contracts/VestingWallet.sol\":4241:4254  beneficiary() */\n      jump\t// in\n    tag_85:\n        /* \"contracts/VestingWallet.sol\":4256:4262  amount */\n      dup4\n        /* \"contracts/VestingWallet.sol\":4203:4225  SafeERC20.safeTransfer */\n      tag_86\n        /* \"contracts/VestingWallet.sol\":4203:4263  SafeERC20.safeTransfer(IERC20(token), beneficiary(), amount) */\n      jump\t// in\n    tag_84:\n        /* \"contracts/VestingWallet.sol\":4023:4274  if (_currentMonth() > lastMonth) {... */\n    tag_80:\n        /* \"contracts/VestingWallet.sol\":3969:4280  {... */\n      pop\n        /* \"contracts/VestingWallet.sol\":3922:4280  function release(address token) public virtual {... */\n      pop\n      jump\t// out\n        /* \"contracts/VestingWallet.sol\":1976:2073  function beneficiary() public view virtual returns (address) {... */\n    tag_35:\n        /* \"contracts/VestingWallet.sol\":2028:2035  address */\n      0x00\n        /* \"contracts/VestingWallet.sol\":2054:2066  _beneficiary */\n      immutable(\"0x229c1a869fa9219aaf3cffa1029c94731492e7db4f2bafdf90c8213837a49fd5\")\n        /* \"contracts/VestingWallet.sol\":2047:2066  return _beneficiary */\n      swap1\n      pop\n        /* \"contracts/VestingWallet.sol\":1976:2073  function beneficiary() public view virtual returns (address) {... */\n      swap1\n      jump\t// out\n        /* \"contracts/VestingWallet.sol\":5064:5360  function vestedAmount(address token, uint64 timestamp)... */\n    tag_42:\n        /* \"contracts/VestingWallet.sol\":5180:5187  uint256 */\n      0x00\n        /* \"contracts/VestingWallet.sol\":5222:5353  _vestingSchedule(... */\n      tag_89\n        /* \"contracts/VestingWallet.sol\":5297:5312  released(token) */\n      tag_90\n        /* \"contracts/VestingWallet.sol\":5306:5311  token */\n      dup5\n        /* \"contracts/VestingWallet.sol\":5297:5305  released */\n      tag_54\n        /* \"contracts/VestingWallet.sol\":5297:5312  released(token) */\n      jump\t// in\n    tag_90:\n        /* \"contracts/VestingWallet.sol\":5263:5268  token */\n      dup5\n        /* \"contracts/VestingWallet.sol\":5256:5279  IERC20(token).balanceOf */\n      0xffffffffffffffffffffffffffffffffffffffff\n      and\n      0x70a08231\n        /* \"contracts/VestingWallet.sol\":5288:5292  this */\n      address\n        /* \"contracts/VestingWallet.sol\":5256:5294  IERC20(token).balanceOf(address(this)) */\n      mload(0x40)\n      dup3\n      0xffffffff\n      and\n      0xe0\n      shl\n      dup2\n      mstore\n      0x04\n      add\n      tag_91\n      swap2\n      swap1\n      tag_37\n      jump\t// in\n    tag_91:\n      0x20\n      mload(0x40)\n      dup1\n      dup4\n      sub\n      dup2\n      dup7\n      gas\n      staticcall\n      iszero\n      dup1\n      iszero\n      tag_93\n      jumpi\n      returndatasize\n      0x00\n      dup1\n      returndatacopy\n      revert(0x00, returndatasize)\n    tag_93:\n      pop\n      pop\n      pop\n      pop\n      mload(0x40)\n      returndatasize\n      not(0x1f)\n      0x1f\n      dup3\n      add\n      and\n      dup3\n      add\n      dup1\n      0x40\n      mstore\n      pop\n      dup2\n      add\n      swap1\n      tag_94\n      swap2\n      swap1\n      tag_95\n      jump\t// in\n    tag_94:\n        /* \"contracts/VestingWallet.sol\":5256:5312  IERC20(token).balanceOf(address(this)) + released(token) */\n      tag_96\n      swap2\n      swap1\n      tag_73\n      jump\t// in\n    tag_96:\n        /* \"contracts/VestingWallet.sol\":5330:5339  timestamp */\n      dup4\n        /* \"contracts/VestingWallet.sol\":5222:5238  _vestingSchedule */\n      tag_74\n        /* \"contracts/VestingWallet.sol\":5222:5353  _vestingSchedule(... */\n      jump\t// in\n    tag_89:\n        /* \"contracts/VestingWallet.sol\":5203:5353  return... */\n      swap1\n      pop\n        /* \"contracts/VestingWallet.sol\":5064:5360  function vestedAmount(address token, uint64 timestamp)... */\n      swap3\n      swap2\n      pop\n      pop\n      jump\t// out\n        /* \"contracts/VestingWallet.sol\":3373:3577  function release() public virtual {... */\n    tag_46:\n        /* \"contracts/VestingWallet.sol\":3417:3431  uint256 amount */\n      0x00\n        /* \"contracts/VestingWallet.sol\":3434:3446  releasable() */\n      tag_98\n        /* \"contracts/VestingWallet.sol\":3434:3444  releasable */\n      tag_67\n        /* \"contracts/VestingWallet.sol\":3434:3446  releasable() */\n      jump\t// in\n    tag_98:\n        /* \"contracts/VestingWallet.sol\":3417:3446  uint256 amount = releasable() */\n      swap1\n      pop\n        /* \"contracts/VestingWallet.sol\":3469:3475  amount */\n      dup1\n        /* \"contracts/VestingWallet.sol\":3456:3465  _released */\n      0x00\n      dup1\n        /* \"contracts/VestingWallet.sol\":3456:3475  _released += amount */\n      dup3\n      dup3\n      sload\n      tag_99\n      swap2\n      swap1\n      tag_73\n      jump\t// in\n    tag_99:\n      swap3\n      pop\n      pop\n      dup2\n      swap1\n      sstore\n      pop\n        /* \"contracts/VestingWallet.sol\":3490:3511  EtherReleased(amount) */\n      0xda9d4e5f101b8b9b1c5b76d0c5a9f7923571acfc02376aa076b75a8c080c956b\n        /* \"contracts/VestingWallet.sol\":3504:3510  amount */\n      dup2\n        /* \"contracts/VestingWallet.sol\":3490:3511  EtherReleased(amount) */\n      mload(0x40)\n      tag_100\n      swap2\n      swap1\n      tag_23\n      jump\t// in\n    tag_100:\n      mload(0x40)\n      dup1\n      swap2\n      sub\n      swap1\n      log1\n        /* \"contracts/VestingWallet.sol\":3521:3570  Address.sendValue(payable(beneficiary()), amount) */\n      tag_101\n        /* \"contracts/VestingWallet.sol\":3547:3560  beneficiary() */\n      tag_102\n        /* \"contracts/VestingWallet.sol\":3547:3558  beneficiary */\n      tag_35\n        /* \"contracts/VestingWallet.sol\":3547:3560  beneficiary() */\n      jump\t// in\n    tag_102:\n        /* \"contracts/VestingWallet.sol\":3563:3569  amount */\n      dup3\n        /* \"contracts/VestingWallet.sol\":3521:3538  Address.sendValue */\n      tag_103\n        /* \"contracts/VestingWallet.sol\":3521:3570  Address.sendValue(payable(beneficiary()), amount) */\n      jump\t// in\n    tag_101:\n        /* \"contracts/VestingWallet.sol\":3407:3577  {... */\n      pop\n        /* \"contracts/VestingWallet.sol\":3373:3577  function release() public virtual {... */\n      jump\t// out\n        /* \"contracts/VestingWallet.sol\":2447:2538  function released() public view virtual returns (uint256) {... */\n    tag_49:\n        /* \"contracts/VestingWallet.sol\":2496:2503  uint256 */\n      0x00\n        /* \"contracts/VestingWallet.sol\":2522:2531  _released */\n      dup1\n      sload\n        /* \"contracts/VestingWallet.sol\":2515:2531  return _released */\n      swap1\n      pop\n        /* \"contracts/VestingWallet.sol\":2447:2538  function released() public view virtual returns (uint256) {... */\n      swap1\n      jump\t// out\n        /* \"contracts/VestingWallet.sol\":2605:2721  function released(address token) public view virtual returns (uint256) {... */\n    tag_54:\n        /* \"contracts/VestingWallet.sol\":2667:2674  uint256 */\n      0x00\n        /* \"contracts/VestingWallet.sol\":2693:2707  _erc20Released */\n      0x01\n        /* \"contracts/VestingWallet.sol\":2693:2714  _erc20Released[token] */\n      0x00\n        /* \"contracts/VestingWallet.sol\":2708:2713  token */\n      dup4\n        /* \"contracts/VestingWallet.sol\":2693:2714  _erc20Released[token] */\n      0xffffffffffffffffffffffffffffffffffffffff\n      and\n      0xffffffffffffffffffffffffffffffffffffffff\n      and\n      dup2\n      mstore\n      0x20\n      add\n      swap1\n      dup2\n      mstore\n      0x20\n      add\n      0x00\n      keccak256\n      sload\n        /* \"contracts/VestingWallet.sol\":2686:2714  return _erc20Released[token] */\n      swap1\n      pop\n        /* \"contracts/VestingWallet.sol\":2605:2721  function released(address token) public view virtual returns (uint256) {... */\n      swap2\n      swap1\n      pop\n      jump\t// out\n        /* \"contracts/VestingWallet.sol\":3076:3235  function releasable(address token) public view virtual returns (uint256) {... */\n    tag_59:\n        /* \"contracts/VestingWallet.sol\":3140:3147  uint256 */\n      0x00\n        /* \"contracts/VestingWallet.sol\":3213:3228  released(token) */\n      tag_107\n        /* \"contracts/VestingWallet.sol\":3222:3227  token */\n      dup3\n        /* \"contracts/VestingWallet.sol\":3213:3221  released */\n      tag_54\n        /* \"contracts/VestingWallet.sol\":3213:3228  released(token) */\n      jump\t// in\n    tag_107:\n        /* \"contracts/VestingWallet.sol\":3166:3210  vestedAmount(token, uint64(block.timestamp)) */\n      tag_108\n        /* \"contracts/VestingWallet.sol\":3179:3184  token */\n      dup4\n        /* \"contracts/VestingWallet.sol\":3193:3208  block.timestamp */\n      timestamp\n        /* \"contracts/VestingWallet.sol\":3166:3178  vestedAmount */\n      tag_42\n        /* \"contracts/VestingWallet.sol\":3166:3210  vestedAmount(token, uint64(block.timestamp)) */\n      jump\t// in\n    tag_108:\n        /* \"contracts/VestingWallet.sol\":3166:3228  vestedAmount(token, uint64(block.timestamp)) - released(token) */\n      tag_109\n      swap2\n      swap1\n      tag_110\n      jump\t// in\n    tag_109:\n        /* \"contracts/VestingWallet.sol\":3159:3228  return vestedAmount(token, uint64(block.timestamp)) - released(token) */\n      swap1\n      pop\n        /* \"contracts/VestingWallet.sol\":3076:3235  function releasable(address token) public view virtual returns (uint256) {... */\n      swap2\n      swap1\n      pop\n      jump\t// out\n        /* \"contracts/VestingWallet.sol\":2139:2224  function start() public view virtual returns (uint256) {... */\n    tag_63:\n        /* \"contracts/VestingWallet.sol\":2185:2192  uint256 */\n      0x00\n        /* \"contracts/VestingWallet.sol\":2211:2217  _start */\n      immutable(\"0x7017d9c97eaea77d01457db50e6363ce7b077b4a6becffdfbcdd71ef4a35f299\")\n        /* \"contracts/VestingWallet.sol\":2204:2217  return _start */\n      0xffffffffffffffff\n      and\n      swap1\n      pop\n        /* \"contracts/VestingWallet.sol\":2139:2224  function start() public view virtual returns (uint256) {... */\n      swap1\n      jump\t// out\n        /* \"contracts/VestingWallet.sol\":2796:2930  function releasable() public view virtual returns (uint256) {... */\n    tag_67:\n        /* \"contracts/VestingWallet.sol\":2847:2854  uint256 */\n      0x00\n        /* \"contracts/VestingWallet.sol\":2913:2923  released() */\n      tag_113\n        /* \"contracts/VestingWallet.sol\":2913:2921  released */\n      tag_49\n        /* \"contracts/VestingWallet.sol\":2913:2923  released() */\n      jump\t// in\n    tag_113:\n        /* \"contracts/VestingWallet.sol\":2873:2910  vestedAmount(uint64(block.timestamp)) */\n      tag_114\n        /* \"contracts/VestingWallet.sol\":2893:2908  block.timestamp */\n      timestamp\n        /* \"contracts/VestingWallet.sol\":2873:2885  vestedAmount */\n      tag_21\n        /* \"contracts/VestingWallet.sol\":2873:2910  vestedAmount(uint64(block.timestamp)) */\n      jump\t// in\n    tag_114:\n        /* \"contracts/VestingWallet.sol\":2873:2923  vestedAmount(uint64(block.timestamp)) - released() */\n      tag_115\n      swap2\n      swap1\n      tag_110\n      jump\t// in\n    tag_115:\n        /* \"contracts/VestingWallet.sol\":2866:2923  return vestedAmount(uint64(block.timestamp)) - released() */\n      swap1\n      pop\n        /* \"contracts/VestingWallet.sol\":2796:2930  function releasable() public view virtual returns (uint256) {... */\n      swap1\n      jump\t// out\n        /* \"contracts/VestingWallet.sol\":5555:5957  function _vestingSchedule(uint256 totalAllocation, uint64 timestamp)... */\n    tag_74:\n        /* \"contracts/VestingWallet.sol\":5687:5694  uint256 */\n      0x00\n        /* \"contracts/VestingWallet.sol\":5726:5733  start() */\n      tag_117\n        /* \"contracts/VestingWallet.sol\":5726:5731  start */\n      tag_63\n        /* \"contracts/VestingWallet.sol\":5726:5733  start() */\n      jump\t// in\n    tag_117:\n        /* \"contracts/VestingWallet.sol\":5714:5723  timestamp */\n      dup3\n        /* \"contracts/VestingWallet.sol\":5714:5733  timestamp < start() */\n      0xffffffffffffffff\n      and\n      lt\n        /* \"contracts/VestingWallet.sol\":5710:5951  if (timestamp < start()) {... */\n      iszero\n      tag_118\n      jumpi\n        /* \"contracts/VestingWallet.sol\":5756:5757  0 */\n      0x00\n        /* \"contracts/VestingWallet.sol\":5749:5757  return 0 */\n      swap1\n      pop\n      jump(tag_116)\n        /* \"contracts/VestingWallet.sol\":5710:5951  if (timestamp < start()) {... */\n    tag_118:\n        /* \"contracts/VestingWallet.sol\":5800:5810  duration() */\n      tag_120\n        /* \"contracts/VestingWallet.sol\":5800:5808  duration */\n      tag_26\n        /* \"contracts/VestingWallet.sol\":5800:5810  duration() */\n      jump\t// in\n    tag_120:\n        /* \"contracts/VestingWallet.sol\":5790:5797  start() */\n      tag_121\n        /* \"contracts/VestingWallet.sol\":5790:5795  start */\n      tag_63\n        /* \"contracts/VestingWallet.sol\":5790:5797  start() */\n      jump\t// in\n    tag_121:\n        /* \"contracts/VestingWallet.sol\":5790:5810  start() + duration() */\n      tag_122\n      swap2\n      swap1\n      tag_73\n      jump\t// in\n    tag_122:\n        /* \"contracts/VestingWallet.sol\":5778:5787  timestamp */\n      dup3\n        /* \"contracts/VestingWallet.sol\":5778:5810  timestamp > start() + duration() */\n      0xffffffffffffffff\n      and\n      gt\n        /* \"contracts/VestingWallet.sol\":5774:5951  if (timestamp > start() + duration()) {... */\n      iszero\n      tag_123\n      jumpi\n        /* \"contracts/VestingWallet.sol\":5833:5848  totalAllocation */\n      dup3\n        /* \"contracts/VestingWallet.sol\":5826:5848  return totalAllocation */\n      swap1\n      pop\n      jump(tag_116)\n        /* \"contracts/VestingWallet.sol\":5774:5951  if (timestamp > start() + duration()) {... */\n    tag_123:\n        /* \"contracts/VestingWallet.sol\":5930:5940  duration() */\n      tag_125\n        /* \"contracts/VestingWallet.sol\":5930:5938  duration */\n      tag_26\n        /* \"contracts/VestingWallet.sol\":5930:5940  duration() */\n      jump\t// in\n    tag_125:\n        /* \"contracts/VestingWallet.sol\":5918:5925  start() */\n      tag_126\n        /* \"contracts/VestingWallet.sol\":5918:5923  start */\n      tag_63\n        /* \"contracts/VestingWallet.sol\":5918:5925  start() */\n      jump\t// in\n    tag_126:\n        /* \"contracts/VestingWallet.sol\":5906:5915  timestamp */\n      dup4\n        /* \"contracts/VestingWallet.sol\":5906:5925  timestamp - start() */\n      0xffffffffffffffff\n      and\n      tag_127\n      swap2\n      swap1\n      tag_110\n      jump\t// in\n    tag_127:\n        /* \"contracts/VestingWallet.sol\":5887:5902  totalAllocation */\n      dup5\n        /* \"contracts/VestingWallet.sol\":5887:5926  totalAllocation * (timestamp - start()) */\n      tag_128\n      swap2\n      swap1\n      tag_129\n      jump\t// in\n    tag_128:\n        /* \"contracts/VestingWallet.sol\":5886:5940  (totalAllocation * (timestamp - start())) / duration() */\n      tag_130\n      swap2\n      swap1\n      tag_131\n      jump\t// in\n    tag_130:\n        /* \"contracts/VestingWallet.sol\":5879:5940  return (totalAllocation * (timestamp - start())) / duration() */\n      swap1\n      pop\n        /* \"contracts/VestingWallet.sol\":5555:5957  function _vestingSchedule(uint256 totalAllocation, uint64 timestamp)... */\n    tag_116:\n      swap3\n      swap2\n      pop\n      pop\n      jump\t// out\n        /* \"contracts/VestingWallet.sol\":3672:3798  function _currentMonth() internal view returns (uint256) {... */\n    tag_79:\n        /* \"contracts/VestingWallet.sol\":3720:3727  uint256 */\n      0x00\n        /* \"contracts/VestingWallet.sol\":3784:3791  30 days */\n      0x278d00\n        /* \"contracts/VestingWallet.sol\":3773:3780  start() */\n      tag_133\n        /* \"contracts/VestingWallet.sol\":3773:3778  start */\n      tag_63\n        /* \"contracts/VestingWallet.sol\":3773:3780  start() */\n      jump\t// in\n    tag_133:\n        /* \"contracts/VestingWallet.sol\":3754:3769  block.timestamp */\n      timestamp\n        /* \"contracts/VestingWallet.sol\":3747:3780  uint64(block.timestamp) - start() */\n      0xffffffffffffffff\n      and\n      tag_134\n      swap2\n      swap1\n      tag_110\n      jump\t// in\n    tag_134:\n        /* \"contracts/VestingWallet.sol\":3746:3791  (uint64(block.timestamp) - start()) / 30 days */\n      tag_135\n      swap2\n      swap1\n      tag_131\n      jump\t// in\n    tag_135:\n        /* \"contracts/VestingWallet.sol\":3739:3791  return (uint64(block.timestamp) - start()) / 30 days */\n      swap1\n      pop\n        /* \"contracts/VestingWallet.sol\":3672:3798  function _currentMonth() internal view returns (uint256) {... */\n      swap1\n      jump\t// out\n        /* \"@openzeppelin/contracts/token/ERC20/utils/SafeERC20.sol\":701:906  function safeTransfer(... */\n    tag_86:\n        /* \"@openzeppelin/contracts/token/ERC20/utils/SafeERC20.sol\":813:899  _callOptionalReturn(token, abi.encodeWithSelector(token.transfer.selector, to, value)) */\n      tag_137\n        /* \"@openzeppelin/contracts/token/ERC20/utils/SafeERC20.sol\":833:838  token */\n      dup4\n        /* \"@openzeppelin/contracts/token/ERC20/utils/SafeERC20.sol\":863:886  token.transfer.selector */\n      shl(0xe0, 0xa9059cbb)\n        /* \"@openzeppelin/contracts/token/ERC20/utils/SafeERC20.sol\":888:890  to */\n      dup5\n        /* \"@openzeppelin/contracts/token/ERC20/utils/SafeERC20.sol\":892:897  value */\n      dup5\n        /* \"@openzeppelin/contracts/token/ERC20/utils/SafeERC20.sol\":840:898  abi.encodeWithSelector(token.transfer.selector, to, value) */\n      add(0x24, mload(0x40))\n      tag_138\n      swap3\n      swap2\n      swap1\n      tag_139\n      jump\t// in\n    tag_138:\n      mload(0x40)\n      0x20\n      dup2\n      dup4\n      sub\n      sub\n      dup2\n      mstore\n      swap1\n      0x40\n      mstore\n      swap1\n      not(0xffffffffffffffffffffffffffffffffffffffffffffffffffffffff)\n      and\n      0x20\n      dup3\n      add\n      dup1\n      mload\n      0xffffffffffffffffffffffffffffffffffffffffffffffffffffffff\n      dup4\n      dup2\n      dup4\n      and\n      or\n      dup4\n      mstore\n      pop\n      pop\n      pop\n      pop\n        /* \"@openzeppelin/contracts/token/ERC20/utils/SafeERC20.sol\":813:832  _callOptionalReturn */\n      tag_140\n        /* \"@openzeppelin/contracts/token/ERC20/utils/SafeERC20.sol\":813:899  _callOptionalReturn(token, abi.encodeWithSelector(token.transfer.selector, to, value)) */\n      jump\t// in\n    tag_137:\n        /* \"@openzeppelin/contracts/token/ERC20/utils/SafeERC20.sol\":701:906  function safeTransfer(... */\n      pop\n      pop\n      pop\n      jump\t// out\n        /* \"@openzeppelin/contracts/utils/Address.sol\":2412:2724  function sendValue(address payable recipient, uint256 amount) internal {... */\n    tag_103:\n        /* \"@openzeppelin/contracts/utils/Address.sol\":2526:2532  amount */\n      dup1\n        /* \"@openzeppelin/contracts/utils/Address.sol\":2501:2522  address(this).balance */\n      selfbalance\n        /* \"@openzeppelin/contracts/utils/Address.sol\":2501:2532  address(this).balance >= amount */\n      lt\n      iszero\n        /* \"@openzeppelin/contracts/utils/Address.sol\":2493:2566  require(address(this).balance >= amount, \"Address: insufficient balance\") */\n      tag_142\n      jumpi\n      mload(0x40)\n      0x08c379a000000000000000000000000000000000000000000000000000000000\n      dup2\n      mstore\n      0x04\n      add\n      tag_143\n      swap1\n      tag_144\n      jump\t// in\n    tag_143:\n      mload(0x40)\n      dup1\n      swap2\n      sub\n      swap1\n      revert\n    tag_142:\n        /* \"@openzeppelin/contracts/utils/Address.sol\":2578:2590  bool success */\n      0x00\n        /* \"@openzeppelin/contracts/utils/Address.sol\":2596:2605  recipient */\n      dup3\n        /* \"@openzeppelin/contracts/utils/Address.sol\":2596:2610  recipient.call */\n      0xffffffffffffffffffffffffffffffffffffffff\n      and\n        /* \"@openzeppelin/contracts/utils/Address.sol\":2618:2624  amount */\n      dup3\n        /* \"@openzeppelin/contracts/utils/Address.sol\":2596:2629  recipient.call{value: amount}(\"\") */\n      mload(0x40)\n      tag_145\n      swap1\n      tag_146\n      jump\t// in\n    tag_145:\n      0x00\n      mload(0x40)\n      dup1\n      dup4\n      sub\n      dup2\n      dup6\n      dup8\n      gas\n      call\n      swap3\n      pop\n      pop\n      pop\n      returndatasize\n      dup1\n      0x00\n      dup2\n      eq\n      tag_149\n      jumpi\n      mload(0x40)\n      swap2\n      pop\n      and(add(returndatasize, 0x3f), not(0x1f))\n      dup3\n      add\n      0x40\n      mstore\n      returndatasize\n      dup3\n      mstore\n      returndatasize\n      0x00\n      0x20\n      dup5\n      add\n      returndatacopy\n      jump(tag_148)\n    tag_149:\n      0x60\n      swap2\n      pop\n    tag_148:\n      pop\n        /* \"@openzeppelin/contracts/utils/Address.sol\":2577:2629  (bool success, ) = recipient.call{value: amount}(\"\") */\n      pop\n      swap1\n      pop\n        /* \"@openzeppelin/contracts/utils/Address.sol\":2647:2654  success */\n      dup1\n        /* \"@openzeppelin/contracts/utils/Address.sol\":2639:2717  require(success, \"Address: unable to send value, recipient may have reverted\") */\n      tag_150\n      jumpi\n      mload(0x40)\n      0x08c379a000000000000000000000000000000000000000000000000000000000\n      dup2\n      mstore\n      0x04\n      add\n      tag_151\n      swap1\n      tag_152\n      jump\t// in\n    tag_151:\n      mload(0x40)\n      dup1\n      swap2\n      sub\n      swap1\n      revert\n    tag_150:\n        /* \"@openzeppelin/contracts/utils/Address.sol\":2483:2724  {... */\n      pop\n        /* \"@openzeppelin/contracts/utils/Address.sol\":2412:2724  function sendValue(address payable recipient, uint256 amount) internal {... */\n      pop\n      pop\n      jump\t// out\n        /* \"@openzeppelin/contracts/token/ERC20/utils/SafeERC20.sol\":3207:3913  function _callOptionalReturn(IERC20 token, bytes memory data) private {... */\n    tag_140:\n        /* \"@openzeppelin/contracts/token/ERC20/utils/SafeERC20.sol\":3626:3649  bytes memory returndata */\n      0x00\n        /* \"@openzeppelin/contracts/token/ERC20/utils/SafeERC20.sol\":3652:3721  address(token).functionCall(data, \"SafeERC20: low-level call failed\") */\n      tag_154\n        /* \"@openzeppelin/contracts/token/ERC20/utils/SafeERC20.sol\":3680:3684  data */\n      dup3\n        /* \"@openzeppelin/contracts/token/ERC20/utils/SafeERC20.sol\":3652:3721  address(token).functionCall(data, \"SafeERC20: low-level call failed\") */\n      mload(0x40)\n      dup1\n      0x40\n      add\n      0x40\n      mstore\n      dup1\n      0x20\n      dup2\n      mstore\n      0x20\n      add\n      0x5361666545524332303a206c6f772d6c6576656c2063616c6c206661696c6564\n      dup2\n      mstore\n      pop\n        /* \"@openzeppelin/contracts/token/ERC20/utils/SafeERC20.sol\":3660:3665  token */\n      dup6\n        /* \"@openzeppelin/contracts/token/ERC20/utils/SafeERC20.sol\":3652:3679  address(token).functionCall */\n      0xffffffffffffffffffffffffffffffffffffffff\n      and\n      tag_155\n      swap1\n        /* \"@openzeppelin/contracts/token/ERC20/utils/SafeERC20.sol\":3652:3721  address(token).functionCall(data, \"SafeERC20: low-level call failed\") */\n      swap3\n      swap2\n      swap1\n      0xffffffff\n      and\n      jump\t// in\n    tag_154:\n        /* \"@openzeppelin/contracts/token/ERC20/utils/SafeERC20.sol\":3626:3721  bytes memory returndata = address(token).functionCall(data, \"SafeERC20: low-level call failed\") */\n      swap1\n      pop\n        /* \"@openzeppelin/contracts/token/ERC20/utils/SafeERC20.sol\":3755:3756  0 */\n      0x00\n        /* \"@openzeppelin/contracts/token/ERC20/utils/SafeERC20.sol\":3735:3745  returndata */\n      dup2\n        /* \"@openzeppelin/contracts/token/ERC20/utils/SafeERC20.sol\":3735:3752  returndata.length */\n      mload\n        /* \"@openzeppelin/contracts/token/ERC20/utils/SafeERC20.sol\":3735:3756  returndata.length > 0 */\n      gt\n        /* \"@openzeppelin/contracts/token/ERC20/utils/SafeERC20.sol\":3731:3907  if (returndata.length > 0) {... */\n      iszero\n      tag_156\n      jumpi\n        /* \"@openzeppelin/contracts/token/ERC20/utils/SafeERC20.sol\":3830:3840  returndata */\n      dup1\n        /* \"@openzeppelin/contracts/token/ERC20/utils/SafeERC20.sol\":3819:3849  abi.decode(returndata, (bool)) */\n      dup1\n      0x20\n      add\n      swap1\n      mload\n      dup2\n      add\n      swap1\n      tag_157\n      swap2\n      swap1\n      tag_158\n      jump\t// in\n    tag_157:\n        /* \"@openzeppelin/contracts/token/ERC20/utils/SafeERC20.sol\":3811:3896  require(abi.decode(returndata, (bool)), \"SafeERC20: ERC20 operation did not succeed\") */\n      tag_159\n      jumpi\n      mload(0x40)\n      0x08c379a000000000000000000000000000000000000000000000000000000000\n      dup2\n      mstore\n      0x04\n      add\n      tag_160\n      swap1\n      tag_161\n      jump\t// in\n    tag_160:\n      mload(0x40)\n      dup1\n      swap2\n      sub\n      swap1\n      revert\n    tag_159:\n        /* \"@openzeppelin/contracts/token/ERC20/utils/SafeERC20.sol\":3731:3907  if (returndata.length > 0) {... */\n    tag_156:\n        /* \"@openzeppelin/contracts/token/ERC20/utils/SafeERC20.sol\":3277:3913  {... */\n      pop\n        /* \"@openzeppelin/contracts/token/ERC20/utils/SafeERC20.sol\":3207:3913  function _callOptionalReturn(IERC20 token, bytes memory data) private {... */\n      pop\n      pop\n      jump\t// out\n        /* \"@openzeppelin/contracts/utils/Address.sol\":3861:4084  function functionCall(... */\n    tag_155:\n        /* \"@openzeppelin/contracts/utils/Address.sol\":3994:4006  bytes memory */\n      0x60\n        /* \"@openzeppelin/contracts/utils/Address.sol\":4025:4077  functionCallWithValue(target, data, 0, errorMessage) */\n      tag_163\n        /* \"@openzeppelin/contracts/utils/Address.sol\":4047:4053  target */\n      dup5\n        /* \"@openzeppelin/contracts/utils/Address.sol\":4055:4059  data */\n      dup5\n        /* \"@openzeppelin/contracts/utils/Address.sol\":4061:4062  0 */\n      0x00\n        /* \"@openzeppelin/contracts/utils/Address.sol\":4064:4076  errorMessage */\n      dup6\n        /* \"@openzeppelin/contracts/utils/Address.sol\":4025:4046  functionCallWithValue */\n      tag_164\n        /* \"@openzeppelin/contracts/utils/Address.sol\":4025:4077  functionCallWithValue(target, data, 0, errorMessage) */\n      jump\t// in\n    tag_163:\n        /* \"@openzeppelin/contracts/utils/Address.sol\":4018:4077  return functionCallWithValue(target, data, 0, errorMessage) */\n      swap1\n      pop\n        /* \"@openzeppelin/contracts/utils/Address.sol\":3861:4084  function functionCall(... */\n      swap4\n      swap3\n      pop\n      pop\n      pop\n      jump\t// out\n        /* \"@openzeppelin/contracts/utils/Address.sol\":4948:5447  function functionCallWithValue(... */\n    tag_164:\n        /* \"@openzeppelin/contracts/utils/Address.sol\":5113:5125  bytes memory */\n      0x60\n        /* \"@openzeppelin/contracts/utils/Address.sol\":5170:5175  value */\n      dup3\n        /* \"@openzeppelin/contracts/utils/Address.sol\":5145:5166  address(this).balance */\n      selfbalance\n        /* \"@openzeppelin/contracts/utils/Address.sol\":5145:5175  address(this).balance >= value */\n      lt\n      iszero\n        /* \"@openzeppelin/contracts/utils/Address.sol\":5137:5218  require(address(this).balance >= value, \"Address: insufficient balance for call\") */\n      tag_166\n      jumpi\n      mload(0x40)\n      0x08c379a000000000000000000000000000000000000000000000000000000000\n      dup2\n      mstore\n      0x04\n      add\n      tag_167\n      swap1\n      tag_168\n      jump\t// in\n    tag_167:\n      mload(0x40)\n      dup1\n      swap2\n      sub\n      swap1\n      revert\n    tag_166:\n        /* \"@openzeppelin/contracts/utils/Address.sol\":5236:5254  isContract(target) */\n      tag_169\n        /* \"@openzeppelin/contracts/utils/Address.sol\":5247:5253  target */\n      dup6\n        /* \"@openzeppelin/contracts/utils/Address.sol\":5236:5246  isContract */\n      tag_170\n        /* \"@openzeppelin/contracts/utils/Address.sol\":5236:5254  isContract(target) */\n      jump\t// in\n    tag_169:\n        /* \"@openzeppelin/contracts/utils/Address.sol\":5228:5288  require(isContract(target), \"Address: call to non-contract\") */\n      tag_171\n      jumpi\n      mload(0x40)\n      0x08c379a000000000000000000000000000000000000000000000000000000000\n      dup2\n      mstore\n      0x04\n      add\n      tag_172\n      swap1\n      tag_173\n      jump\t// in\n    tag_172:\n      mload(0x40)\n      dup1\n      swap2\n      sub\n      swap1\n      revert\n    tag_171:\n        /* \"@openzeppelin/contracts/utils/Address.sol\":5300:5312  bool success */\n      0x00\n        /* \"@openzeppelin/contracts/utils/Address.sol\":5314:5337  bytes memory returndata */\n      dup1\n        /* \"@openzeppelin/contracts/utils/Address.sol\":5341:5347  target */\n      dup7\n        /* \"@openzeppelin/contracts/utils/Address.sol\":5341:5352  target.call */\n      0xffffffffffffffffffffffffffffffffffffffff\n      and\n        /* \"@openzeppelin/contracts/utils/Address.sol\":5360:5365  value */\n      dup6\n        /* \"@openzeppelin/contracts/utils/Address.sol\":5367:5371  data */\n      dup8\n        /* \"@openzeppelin/contracts/utils/Address.sol\":5341:5372  target.call{value: value}(data) */\n      mload(0x40)\n      tag_174\n      swap2\n      swap1\n      tag_175\n      jump\t// in\n    tag_174:\n      0x00\n      mload(0x40)\n      dup1\n      dup4\n      sub\n      dup2\n      dup6\n      dup8\n      gas\n      call\n      swap3\n      pop\n      pop\n      pop\n      returndatasize\n      dup1\n      0x00\n      dup2\n      eq\n      tag_178\n      jumpi\n      mload(0x40)\n      swap2\n      pop\n      and(add(returndatasize, 0x3f), not(0x1f))\n      dup3\n      add\n      0x40\n      mstore\n      returndatasize\n      dup3\n      mstore\n      returndatasize\n      0x00\n      0x20\n      dup5\n      add\n      returndatacopy\n      jump(tag_177)\n    tag_178:\n      0x60\n      swap2\n      pop\n    tag_177:\n      pop\n        /* \"@openzeppelin/contracts/utils/Address.sol\":5299:5372  (bool success, bytes memory returndata) = target.call{value: value}(data) */\n      swap2\n      pop\n      swap2\n      pop\n        /* \"@openzeppelin/contracts/utils/Address.sol\":5389:5440  verifyCallResult(success, returndata, errorMessage) */\n      tag_179\n        /* \"@openzeppelin/contracts/utils/Address.sol\":5406:5413  success */\n      dup3\n        /* \"@openzeppelin/contracts/utils/Address.sol\":5415:5425  returndata */\n      dup3\n        /* \"@openzeppelin/contracts/utils/Address.sol\":5427:5439  errorMessage */\n      dup7\n        /* \"@openzeppelin/contracts/utils/Address.sol\":5389:5405  verifyCallResult */\n      tag_180\n        /* \"@openzeppelin/contracts/utils/Address.sol\":5389:5440  verifyCallResult(success, returndata, errorMessage) */\n      jump\t// in\n    tag_179:\n        /* \"@openzeppelin/contracts/utils/Address.sol\":5382:5440  return verifyCallResult(success, returndata, errorMessage) */\n      swap3\n      pop\n      pop\n      pop\n        /* \"@openzeppelin/contracts/utils/Address.sol\":4948:5447  function functionCallWithValue(... */\n      swap5\n      swap4\n      pop\n      pop\n      pop\n      pop\n      jump\t// out\n        /* \"@openzeppelin/contracts/utils/Address.sol\":1175:1495  function isContract(address account) internal view returns (bool) {... */\n    tag_170:\n        /* \"@openzeppelin/contracts/utils/Address.sol\":1235:1239  bool */\n      0x00\n        /* \"@openzeppelin/contracts/utils/Address.sol\":1487:1488  0 */\n      dup1\n        /* \"@openzeppelin/contracts/utils/Address.sol\":1465:1472  account */\n      dup3\n        /* \"@openzeppelin/contracts/utils/Address.sol\":1465:1484  account.code.length */\n      0xffffffffffffffffffffffffffffffffffffffff\n      and\n      extcodesize\n        /* \"@openzeppelin/contracts/utils/Address.sol\":1465:1488  account.code.length > 0 */\n      gt\n        /* \"@openzeppelin/contracts/utils/Address.sol\":1458:1488  return account.code.length > 0 */\n      swap1\n      pop\n        /* \"@openzeppelin/contracts/utils/Address.sol\":1175:1495  function isContract(address account) internal view returns (bool) {... */\n      swap2\n      swap1\n      pop\n      jump\t// out\n        /* \"@openzeppelin/contracts/utils/Address.sol\":7561:8253  function verifyCallResult(... */\n    tag_180:\n        /* \"@openzeppelin/contracts/utils/Address.sol\":7707:7719  bytes memory */\n      0x60\n        /* \"@openzeppelin/contracts/utils/Address.sol\":7735:7742  success */\n      dup4\n        /* \"@openzeppelin/contracts/utils/Address.sol\":7731:8247  if (success) {... */\n      iszero\n      tag_183\n      jumpi\n        /* \"@openzeppelin/contracts/utils/Address.sol\":7765:7775  returndata */\n      dup3\n        /* \"@openzeppelin/contracts/utils/Address.sol\":7758:7775  return returndata */\n      swap1\n      pop\n      jump(tag_182)\n        /* \"@openzeppelin/contracts/utils/Address.sol\":7731:8247  if (success) {... */\n    tag_183:\n        /* \"@openzeppelin/contracts/utils/Address.sol\":7896:7897  0 */\n      0x00\n        /* \"@openzeppelin/contracts/utils/Address.sol\":7876:7886  returndata */\n      dup4\n        /* \"@openzeppelin/contracts/utils/Address.sol\":7876:7893  returndata.length */\n      mload\n        /* \"@openzeppelin/contracts/utils/Address.sol\":7876:7897  returndata.length > 0 */\n      gt\n        /* \"@openzeppelin/contracts/utils/Address.sol\":7872:8237  if (returndata.length > 0) {... */\n      iszero\n      tag_185\n      jumpi\n        /* \"@openzeppelin/contracts/utils/Address.sol\":8070:8080  returndata */\n      dup3\n        /* \"@openzeppelin/contracts/utils/Address.sol\":8064:8081  mload(returndata) */\n      mload\n        /* \"@openzeppelin/contracts/utils/Address.sol\":8130:8145  returndata_size */\n      dup1\n        /* \"@openzeppelin/contracts/utils/Address.sol\":8117:8127  returndata */\n      dup5\n        /* \"@openzeppelin/contracts/utils/Address.sol\":8113:8115  32 */\n      0x20\n        /* \"@openzeppelin/contracts/utils/Address.sol\":8109:8128  add(32, returndata) */\n      add\n        /* \"@openzeppelin/contracts/utils/Address.sol\":8102:8146  revert(add(32, returndata), returndata_size) */\n      revert\n        /* \"@openzeppelin/contracts/utils/Address.sol\":7872:8237  if (returndata.length > 0) {... */\n    tag_185:\n        /* \"@openzeppelin/contracts/utils/Address.sol\":8209:8221  errorMessage */\n      dup2\n        /* \"@openzeppelin/contracts/utils/Address.sol\":8202:8222  revert(errorMessage) */\n      mload(0x40)\n      0x08c379a000000000000000000000000000000000000000000000000000000000\n      dup2\n      mstore\n      0x04\n      add\n      tag_187\n      swap2\n      swap1\n      tag_188\n      jump\t// in\n    tag_187:\n      mload(0x40)\n      dup1\n      swap2\n      sub\n      swap1\n      revert\n        /* \"@openzeppelin/contracts/utils/Address.sol\":7561:8253  function verifyCallResult(... */\n    tag_182:\n      swap4\n      swap3\n      pop\n      pop\n      pop\n      jump\t// out\n        /* \"#utility.yul\":88:205   */\n    tag_190:\n        /* \"#utility.yul\":197:198   */\n      0x00\n        /* \"#utility.yul\":194:195   */\n      dup1\n        /* \"#utility.yul\":187:199   */\n      revert\n        /* \"#utility.yul\":334:435   */\n    tag_192:\n        /* \"#utility.yul\":370:377   */\n      0x00\n        /* \"#utility.yul\":410:428   */\n      0xffffffffffffffff\n        /* \"#utility.yul\":403:408   */\n      dup3\n        /* \"#utility.yul\":399:429   */\n      and\n        /* \"#utility.yul\":388:429   */\n      swap1\n      pop\n        /* \"#utility.yul\":334:435   */\n      swap2\n      swap1\n      pop\n      jump\t// out\n        /* \"#utility.yul\":441:561   */\n    tag_193:\n        /* \"#utility.yul\":513:536   */\n      tag_235\n        /* \"#utility.yul\":530:535   */\n      dup2\n        /* \"#utility.yul\":513:536   */\n      tag_192\n      jump\t// in\n    tag_235:\n        /* \"#utility.yul\":506:511   */\n      dup2\n        /* \"#utility.yul\":503:537   */\n      eq\n        /* \"#utility.yul\":493:555   */\n      tag_236\n      jumpi\n        /* \"#utility.yul\":551:552   */\n      0x00\n        /* \"#utility.yul\":548:549   */\n      dup1\n        /* \"#utility.yul\":541:553   */\n      revert\n        /* \"#utility.yul\":493:555   */\n    tag_236:\n        /* \"#utility.yul\":441:561   */\n      pop\n      jump\t// out\n        /* \"#utility.yul\":567:704   */\n    tag_194:\n        /* \"#utility.yul\":612:617   */\n      0x00\n        /* \"#utility.yul\":650:656   */\n      dup2\n        /* \"#utility.yul\":637:657   */\n      calldataload\n        /* \"#utility.yul\":628:657   */\n      swap1\n      pop\n        /* \"#utility.yul\":666:698   */\n      tag_238\n        /* \"#utility.yul\":692:697   */\n      dup2\n        /* \"#utility.yul\":666:698   */\n      tag_193\n      jump\t// in\n    tag_238:\n        /* \"#utility.yul\":567:704   */\n      swap3\n      swap2\n      pop\n      pop\n      jump\t// out\n        /* \"#utility.yul\":710:1037   */\n    tag_20:\n        /* \"#utility.yul\":768:774   */\n      0x00\n        /* \"#utility.yul\":817:819   */\n      0x20\n        /* \"#utility.yul\":805:814   */\n      dup3\n        /* \"#utility.yul\":796:803   */\n      dup5\n        /* \"#utility.yul\":792:815   */\n      sub\n        /* \"#utility.yul\":788:820   */\n      slt\n        /* \"#utility.yul\":785:904   */\n      iszero\n      tag_240\n      jumpi\n        /* \"#utility.yul\":823:902   */\n      tag_241\n      tag_190\n      jump\t// in\n    tag_241:\n        /* \"#utility.yul\":785:904   */\n    tag_240:\n        /* \"#utility.yul\":943:944   */\n      0x00\n        /* \"#utility.yul\":968:1020   */\n      tag_242\n        /* \"#utility.yul\":1012:1019   */\n      dup5\n        /* \"#utility.yul\":1003:1009   */\n      dup3\n        /* \"#utility.yul\":992:1001   */\n      dup6\n        /* \"#utility.yul\":988:1010   */\n      add\n        /* \"#utility.yul\":968:1020   */\n      tag_194\n      jump\t// in\n    tag_242:\n        /* \"#utility.yul\":958:1020   */\n      swap2\n      pop\n        /* \"#utility.yul\":914:1030   */\n      pop\n        /* \"#utility.yul\":710:1037   */\n      swap3\n      swap2\n      pop\n      pop\n      jump\t// out\n        /* \"#utility.yul\":1043:1120   */\n    tag_195:\n        /* \"#utility.yul\":1080:1087   */\n      0x00\n        /* \"#utility.yul\":1109:1114   */\n      dup2\n        /* \"#utility.yul\":1098:1114   */\n      swap1\n      pop\n        /* \"#utility.yul\":1043:1120   */\n      swap2\n      swap1\n      pop\n      jump\t// out\n        /* \"#utility.yul\":1126:1244   */\n    tag_196:\n        /* \"#utility.yul\":1213:1237   */\n      tag_245\n        /* \"#utility.yul\":1231:1236   */\n      dup2\n        /* \"#utility.yul\":1213:1237   */\n      tag_195\n      jump\t// in\n    tag_245:\n        /* \"#utility.yul\":1208:1211   */\n      dup3\n        /* \"#utility.yul\":1201:1238   */\n      mstore\n        /* \"#utility.yul\":1126:1244   */\n      pop\n      pop\n      jump\t// out\n        /* \"#utility.yul\":1250:1472   */\n    tag_23:\n        /* \"#utility.yul\":1343:1347   */\n      0x00\n        /* \"#utility.yul\":1381:1383   */\n      0x20\n        /* \"#utility.yul\":1370:1379   */\n      dup3\n        /* \"#utility.yul\":1366:1384   */\n      add\n        /* \"#utility.yul\":1358:1384   */\n      swap1\n      pop\n        /* \"#utility.yul\":1394:1465   */\n      tag_247\n        /* \"#utility.yul\":1462:1463   */\n      0x00\n        /* \"#utility.yul\":1451:1460   */\n      dup4\n        /* \"#utility.yul\":1447:1464   */\n      add\n        /* \"#utility.yul\":1438:1444   */\n      dup5\n        /* \"#utility.yul\":1394:1465   */\n      tag_196\n      jump\t// in\n    tag_247:\n        /* \"#utility.yul\":1250:1472   */\n      swap3\n      swap2\n      pop\n      pop\n      jump\t// out\n        /* \"#utility.yul\":1478:1604   */\n    tag_197:\n        /* \"#utility.yul\":1515:1522   */\n      0x00\n        /* \"#utility.yul\":1555:1597   */\n      0xffffffffffffffffffffffffffffffffffffffff\n        /* \"#utility.yul\":1548:1553   */\n      dup3\n        /* \"#utility.yul\":1544:1598   */\n      and\n        /* \"#utility.yul\":1533:1598   */\n      swap1\n      pop\n        /* \"#utility.yul\":1478:1604   */\n      swap2\n      swap1\n      pop\n      jump\t// out\n        /* \"#utility.yul\":1610:1706   */\n    tag_198:\n        /* \"#utility.yul\":1647:1654   */\n      0x00\n        /* \"#utility.yul\":1676:1700   */\n      tag_250\n        /* \"#utility.yul\":1694:1699   */\n      dup3\n        /* \"#utility.yul\":1676:1700   */\n      tag_197\n      jump\t// in\n    tag_250:\n        /* \"#utility.yul\":1665:1700   */\n      swap1\n      pop\n        /* \"#utility.yul\":1610:1706   */\n      swap2\n      swap1\n      pop\n      jump\t// out\n        /* \"#utility.yul\":1712:1834   */\n    tag_199:\n        /* \"#utility.yul\":1785:1809   */\n      tag_252\n        /* \"#utility.yul\":1803:1808   */\n      dup2\n        /* \"#utility.yul\":1785:1809   */\n      tag_198\n      jump\t// in\n    tag_252:\n        /* \"#utility.yul\":1778:1783   */\n      dup2\n        /* \"#utility.yul\":1775:1810   */\n      eq\n        /* \"#utility.yul\":1765:1828   */\n      tag_253\n      jumpi\n        /* \"#utility.yul\":1824:1825   */\n      0x00\n        /* \"#utility.yul\":1821:1822   */\n      dup1\n        /* \"#utility.yul\":1814:1826   */\n      revert\n        /* \"#utility.yul\":1765:1828   */\n    tag_253:\n        /* \"#utility.yul\":1712:1834   */\n      pop\n      jump\t// out\n        /* \"#utility.yul\":1840:1979   */\n    tag_200:\n        /* \"#utility.yul\":1886:1891   */\n      0x00\n        /* \"#utility.yul\":1924:1930   */\n      dup2\n        /* \"#utility.yul\":1911:1931   */\n      calldataload\n        /* \"#utility.yul\":1902:1931   */\n      swap1\n      pop\n        /* \"#utility.yul\":1940:1973   */\n      tag_255\n        /* \"#utility.yul\":1967:1972   */\n      dup2\n        /* \"#utility.yul\":1940:1973   */\n      tag_199\n      jump\t// in\n    tag_255:\n        /* \"#utility.yul\":1840:1979   */\n      swap3\n      swap2\n      pop\n      pop\n      jump\t// out\n        /* \"#utility.yul\":1985:2314   */\n    tag_31:\n        /* \"#utility.yul\":2044:2050   */\n      0x00\n        /* \"#utility.yul\":2093:2095   */\n      0x20\n        /* \"#utility.yul\":2081:2090   */\n      dup3\n        /* \"#utility.yul\":2072:2079   */\n      dup5\n        /* \"#utility.yul\":2068:2091   */\n      sub\n        /* \"#utility.yul\":2064:2096   */\n      slt\n        /* \"#utility.yul\":2061:2180   */\n      iszero\n      tag_257\n      jumpi\n        /* \"#utility.yul\":2099:2178   */\n      tag_258\n      tag_190\n      jump\t// in\n    tag_258:\n        /* \"#utility.yul\":2061:2180   */\n    tag_257:\n        /* \"#utility.yul\":2219:2220   */\n      0x00\n        /* \"#utility.yul\":2244:2297   */\n      tag_259\n        /* \"#utility.yul\":2289:2296   */\n      dup5\n        /* \"#utility.yul\":2280:2286   */\n      dup3\n        /* \"#utility.yul\":2269:2278   */\n      dup6\n        /* \"#utility.yul\":2265:2287   */\n      add\n        /* \"#utility.yul\":2244:2297   */\n      tag_200\n      jump\t// in\n    tag_259:\n        /* \"#utility.yul\":2234:2297   */\n      swap2\n      pop\n        /* \"#utility.yul\":2190:2307   */\n      pop\n        /* \"#utility.yul\":1985:2314   */\n      swap3\n      swap2\n      pop\n      pop\n      jump\t// out\n        /* \"#utility.yul\":2320:2438   */\n    tag_201:\n        /* \"#utility.yul\":2407:2431   */\n      tag_261\n        /* \"#utility.yul\":2425:2430   */\n      dup2\n        /* \"#utility.yul\":2407:2431   */\n      tag_198\n      jump\t// in\n    tag_261:\n        /* \"#utility.yul\":2402:2405   */\n      dup3\n        /* \"#utility.yul\":2395:2432   */\n      mstore\n        /* \"#utility.yul\":2320:2438   */\n      pop\n      pop\n      jump\t// out\n        /* \"#utility.yul\":2444:2666   */\n    tag_37:\n        /* \"#utility.yul\":2537:2541   */\n      0x00\n        /* \"#utility.yul\":2575:2577   */\n      0x20\n        /* \"#utility.yul\":2564:2573   */\n      dup3\n        /* \"#utility.yul\":2560:2578   */\n      add\n        /* \"#utility.yul\":2552:2578   */\n      swap1\n      pop\n        /* \"#utility.yul\":2588:2659   */\n      tag_263\n        /* \"#utility.yul\":2656:2657   */\n      0x00\n        /* \"#utility.yul\":2645:2654   */\n      dup4\n        /* \"#utility.yul\":2641:2658   */\n      add\n        /* \"#utility.yul\":2632:2638   */\n      dup5\n        /* \"#utility.yul\":2588:2659   */\n      tag_201\n      jump\t// in\n    tag_263:\n        /* \"#utility.yul\":2444:2666   */\n      swap3\n      swap2\n      pop\n      pop\n      jump\t// out\n        /* \"#utility.yul\":2672:3144   */\n    tag_41:\n        /* \"#utility.yul\":2739:2745   */\n      0x00\n        /* \"#utility.yul\":2747:2753   */\n      dup1\n        /* \"#utility.yul\":2796:2798   */\n      0x40\n        /* \"#utility.yul\":2784:2793   */\n      dup4\n        /* \"#utility.yul\":2775:2782   */\n      dup6\n        /* \"#utility.yul\":2771:2794   */\n      sub\n        /* \"#utility.yul\":2767:2799   */\n      slt\n        /* \"#utility.yul\":2764:2883   */\n      iszero\n      tag_265\n      jumpi\n        /* \"#utility.yul\":2802:2881   */\n      tag_266\n      tag_190\n      jump\t// in\n    tag_266:\n        /* \"#utility.yul\":2764:2883   */\n    tag_265:\n        /* \"#utility.yul\":2922:2923   */\n      0x00\n        /* \"#utility.yul\":2947:3000   */\n      tag_267\n        /* \"#utility.yul\":2992:2999   */\n      dup6\n        /* \"#utility.yul\":2983:2989   */\n      dup3\n        /* \"#utility.yul\":2972:2981   */\n      dup7\n        /* \"#utility.yul\":2968:2990   */\n      add\n        /* \"#utility.yul\":2947:3000   */\n      tag_200\n      jump\t// in\n    tag_267:\n        /* \"#utility.yul\":2937:3000   */\n      swap3\n      pop\n        /* \"#utility.yul\":2893:3010   */\n      pop\n        /* \"#utility.yul\":3049:3051   */\n      0x20\n        /* \"#utility.yul\":3075:3127   */\n      tag_268\n        /* \"#utility.yul\":3119:3126   */\n      dup6\n        /* \"#utility.yul\":3110:3116   */\n      dup3\n        /* \"#utility.yul\":3099:3108   */\n      dup7\n        /* \"#utility.yul\":3095:3117   */\n      add\n        /* \"#utility.yul\":3075:3127   */\n      tag_194\n      jump\t// in\n    tag_268:\n        /* \"#utility.yul\":3065:3127   */\n      swap2\n      pop\n        /* \"#utility.yul\":3020:3137   */\n      pop\n        /* \"#utility.yul\":2672:3144   */\n      swap3\n      pop\n      swap3\n      swap1\n      pop\n      jump\t// out\n        /* \"#utility.yul\":3150:3330   */\n    tag_202:\n        /* \"#utility.yul\":3198:3275   */\n      0x4e487b7100000000000000000000000000000000000000000000000000000000\n        /* \"#utility.yul\":3195:3196   */\n      0x00\n        /* \"#utility.yul\":3188:3276   */\n      mstore\n        /* \"#utility.yul\":3295:3299   */\n      0x11\n        /* \"#utility.yul\":3292:3293   */\n      0x04\n        /* \"#utility.yul\":3285:3300   */\n      mstore\n        /* \"#utility.yul\":3319:3323   */\n      0x24\n        /* \"#utility.yul\":3316:3317   */\n      0x00\n        /* \"#utility.yul\":3309:3324   */\n      revert\n        /* \"#utility.yul\":3336:3641   */\n    tag_73:\n        /* \"#utility.yul\":3376:3379   */\n      0x00\n        /* \"#utility.yul\":3395:3415   */\n      tag_271\n        /* \"#utility.yul\":3413:3414   */\n      dup3\n        /* \"#utility.yul\":3395:3415   */\n      tag_195\n      jump\t// in\n    tag_271:\n        /* \"#utility.yul\":3390:3415   */\n      swap2\n      pop\n        /* \"#utility.yul\":3429:3449   */\n      tag_272\n        /* \"#utility.yul\":3447:3448   */\n      dup4\n        /* \"#utility.yul\":3429:3449   */\n      tag_195\n      jump\t// in\n    tag_272:\n        /* \"#utility.yul\":3424:3449   */\n      swap3\n      pop\n        /* \"#utility.yul\":3583:3584   */\n      dup3\n        /* \"#utility.yul\":3515:3581   */\n      0xffffffffffffffffffffffffffffffffffffffffffffffffffffffffffffffff\n        /* \"#utility.yul\":3511:3585   */\n      sub\n        /* \"#utility.yul\":3508:3509   */\n      dup3\n        /* \"#utility.yul\":3505:3586   */\n      gt\n        /* \"#utility.yul\":3502:3609   */\n      iszero\n      tag_273\n      jumpi\n        /* \"#utility.yul\":3589:3607   */\n      tag_274\n      tag_202\n      jump\t// in\n    tag_274:\n        /* \"#utility.yul\":3502:3609   */\n    tag_273:\n        /* \"#utility.yul\":3633:3634   */\n      dup3\n        /* \"#utility.yul\":3630:3631   */\n      dup3\n        /* \"#utility.yul\":3626:3635   */\n      add\n        /* \"#utility.yul\":3619:3635   */\n      swap1\n      pop\n        /* \"#utility.yul\":3336:3641   */\n      swap3\n      swap2\n      pop\n      pop\n      jump\t// out\n        /* \"#utility.yul\":3647:3769   */\n    tag_203:\n        /* \"#utility.yul\":3720:3744   */\n      tag_276\n        /* \"#utility.yul\":3738:3743   */\n      dup2\n        /* \"#utility.yul\":3720:3744   */\n      tag_195\n      jump\t// in\n    tag_276:\n        /* \"#utility.yul\":3713:3718   */\n      dup2\n        /* \"#utility.yul\":3710:3745   */\n      eq\n        /* \"#utility.yul\":3700:3763   */\n      tag_277\n      jumpi\n        /* \"#utility.yul\":3759:3760   */\n      0x00\n        /* \"#utility.yul\":3756:3757   */\n      dup1\n        /* \"#utility.yul\":3749:3761   */\n      revert\n        /* \"#utility.yul\":3700:3763   */\n    tag_277:\n        /* \"#utility.yul\":3647:3769   */\n      pop\n      jump\t// out\n        /* \"#utility.yul\":3775:3918   */\n    tag_204:\n        /* \"#utility.yul\":3832:3837   */\n      0x00\n        /* \"#utility.yul\":3863:3869   */\n      dup2\n        /* \"#utility.yul\":3857:3870   */\n      mload\n        /* \"#utility.yul\":3848:3870   */\n      swap1\n      pop\n        /* \"#utility.yul\":3879:3912   */\n      tag_279\n        /* \"#utility.yul\":3906:3911   */\n      dup2\n        /* \"#utility.yul\":3879:3912   */\n      tag_203\n      jump\t// in\n    tag_279:\n        /* \"#utility.yul\":3775:3918   */\n      swap3\n      swap2\n      pop\n      pop\n      jump\t// out\n        /* \"#utility.yul\":3924:4275   */\n    tag_95:\n        /* \"#utility.yul\":3994:4000   */\n      0x00\n        /* \"#utility.yul\":4043:4045   */\n      0x20\n        /* \"#utility.yul\":4031:4040   */\n      dup3\n        /* \"#utility.yul\":4022:4029   */\n      dup5\n        /* \"#utility.yul\":4018:4041   */\n      sub\n        /* \"#utility.yul\":4014:4046   */\n      slt\n        /* \"#utility.yul\":4011:4130   */\n      iszero\n      tag_281\n      jumpi\n        /* \"#utility.yul\":4049:4128   */\n      tag_282\n      tag_190\n      jump\t// in\n    tag_282:\n        /* \"#utility.yul\":4011:4130   */\n    tag_281:\n        /* \"#utility.yul\":4169:4170   */\n      0x00\n        /* \"#utility.yul\":4194:4258   */\n      tag_283\n        /* \"#utility.yul\":4250:4257   */\n      dup5\n        /* \"#utility.yul\":4241:4247   */\n      dup3\n        /* \"#utility.yul\":4230:4239   */\n      dup6\n        /* \"#utility.yul\":4226:4248   */\n      add\n        /* \"#utility.yul\":4194:4258   */\n      tag_204\n      jump\t// in\n    tag_283:\n        /* \"#utility.yul\":4184:4258   */\n      swap2\n      pop\n        /* \"#utility.yul\":4140:4268   */\n      pop\n        /* \"#utility.yul\":3924:4275   */\n      swap3\n      swap2\n      pop\n      pop\n      jump\t// out\n        /* \"#utility.yul\":4281:4472   */\n    tag_110:\n        /* \"#utility.yul\":4321:4325   */\n      0x00\n        /* \"#utility.yul\":4341:4361   */\n      tag_285\n        /* \"#utility.yul\":4359:4360   */\n      dup3\n        /* \"#utility.yul\":4341:4361   */\n      tag_195\n      jump\t// in\n    tag_285:\n        /* \"#utility.yul\":4336:4361   */\n      swap2\n      pop\n        /* \"#utility.yul\":4375:4395   */\n      tag_286\n        /* \"#utility.yul\":4393:4394   */\n      dup4\n        /* \"#utility.yul\":4375:4395   */\n      tag_195\n      jump\t// in\n    tag_286:\n        /* \"#utility.yul\":4370:4395   */\n      swap3\n      pop\n        /* \"#utility.yul\":4414:4415   */\n      dup3\n        /* \"#utility.yul\":4411:4412   */\n      dup3\n        /* \"#utility.yul\":4408:4416   */\n      lt\n        /* \"#utility.yul\":4405:4439   */\n      iszero\n      tag_287\n      jumpi\n        /* \"#utility.yul\":4419:4437   */\n      tag_288\n      tag_202\n      jump\t// in\n    tag_288:\n        /* \"#utility.yul\":4405:4439   */\n    tag_287:\n        /* \"#utility.yul\":4464:4465   */\n      dup3\n        /* \"#utility.yul\":4461:4462   */\n      dup3\n        /* \"#utility.yul\":4457:4466   */\n      sub\n        /* \"#utility.yul\":4449:4466   */\n      swap1\n      pop\n        /* \"#utility.yul\":4281:4472   */\n      swap3\n      swap2\n      pop\n      pop\n      jump\t// out\n        /* \"#utility.yul\":4478:4826   */\n    tag_129:\n        /* \"#utility.yul\":4518:4525   */\n      0x00\n        /* \"#utility.yul\":4541:4561   */\n      tag_290\n        /* \"#utility.yul\":4559:4560   */\n      dup3\n        /* \"#utility.yul\":4541:4561   */\n      tag_195\n      jump\t// in\n    tag_290:\n        /* \"#utility.yul\":4536:4561   */\n      swap2\n      pop\n        /* \"#utility.yul\":4575:4595   */\n      tag_291\n        /* \"#utility.yul\":4593:4594   */\n      dup4\n        /* \"#utility.yul\":4575:4595   */\n      tag_195\n      jump\t// in\n    tag_291:\n        /* \"#utility.yul\":4570:4595   */\n      swap3\n      pop\n        /* \"#utility.yul\":4763:4764   */\n      dup2\n        /* \"#utility.yul\":4695:4761   */\n      0xffffffffffffffffffffffffffffffffffffffffffffffffffffffffffffffff\n        /* \"#utility.yul\":4691:4765   */\n      div\n        /* \"#utility.yul\":4688:4689   */\n      dup4\n        /* \"#utility.yul\":4685:4766   */\n      gt\n        /* \"#utility.yul\":4680:4681   */\n      dup3\n        /* \"#utility.yul\":4673:4682   */\n      iszero\n        /* \"#utility.yul\":4666:4683   */\n      iszero\n        /* \"#utility.yul\":4662:4767   */\n      and\n        /* \"#utility.yul\":4659:4790   */\n      iszero\n      tag_292\n      jumpi\n        /* \"#utility.yul\":4770:4788   */\n      tag_293\n      tag_202\n      jump\t// in\n    tag_293:\n        /* \"#utility.yul\":4659:4790   */\n    tag_292:\n        /* \"#utility.yul\":4818:4819   */\n      dup3\n        /* \"#utility.yul\":4815:4816   */\n      dup3\n        /* \"#utility.yul\":4811:4820   */\n      mul\n        /* \"#utility.yul\":4800:4820   */\n      swap1\n      pop\n        /* \"#utility.yul\":4478:4826   */\n      swap3\n      swap2\n      pop\n      pop\n      jump\t// out\n        /* \"#utility.yul\":4832:5012   */\n    tag_205:\n        /* \"#utility.yul\":4880:4957   */\n      0x4e487b7100000000000000000000000000000000000000000000000000000000\n        /* \"#utility.yul\":4877:4878   */\n      0x00\n        /* \"#utility.yul\":4870:4958   */\n      mstore\n        /* \"#utility.yul\":4977:4981   */\n      0x12\n        /* \"#utility.yul\":4974:4975   */\n      0x04\n        /* \"#utility.yul\":4967:4982   */\n      mstore\n        /* \"#utility.yul\":5001:5005   */\n      0x24\n        /* \"#utility.yul\":4998:4999   */\n      0x00\n        /* \"#utility.yul\":4991:5006   */\n      revert\n        /* \"#utility.yul\":5018:5203   */\n    tag_131:\n        /* \"#utility.yul\":5058:5059   */\n      0x00\n        /* \"#utility.yul\":5075:5095   */\n      tag_296\n        /* \"#utility.yul\":5093:5094   */\n      dup3\n        /* \"#utility.yul\":5075:5095   */\n      tag_195\n      jump\t// in\n    tag_296:\n        /* \"#utility.yul\":5070:5095   */\n      swap2\n      pop\n        /* \"#utility.yul\":5109:5129   */\n      tag_297\n        /* \"#utility.yul\":5127:5128   */\n      dup4\n        /* \"#utility.yul\":5109:5129   */\n      tag_195\n      jump\t// in\n    tag_297:\n        /* \"#utility.yul\":5104:5129   */\n      swap3\n      pop\n        /* \"#utility.yul\":5148:5149   */\n      dup3\n        /* \"#utility.yul\":5138:5173   */\n      tag_298\n      jumpi\n        /* \"#utility.yul\":5153:5171   */\n      tag_299\n      tag_205\n      jump\t// in\n    tag_299:\n        /* \"#utility.yul\":5138:5173   */\n    tag_298:\n        /* \"#utility.yul\":5195:5196   */\n      dup3\n        /* \"#utility.yul\":5192:5193   */\n      dup3\n        /* \"#utility.yul\":5188:5197   */\n      div\n        /* \"#utility.yul\":5183:5197   */\n      swap1\n      pop\n        /* \"#utility.yul\":5018:5203   */\n      swap3\n      swap2\n      pop\n      pop\n      jump\t// out\n        /* \"#utility.yul\":5209:5541   */\n    tag_139:\n        /* \"#utility.yul\":5330:5334   */\n      0x00\n        /* \"#utility.yul\":5368:5370   */\n      0x40\n        /* \"#utility.yul\":5357:5366   */\n      dup3\n        /* \"#utility.yul\":5353:5371   */\n      add\n        /* \"#utility.yul\":5345:5371   */\n      swap1\n      pop\n        /* \"#utility.yul\":5381:5452   */\n      tag_301\n        /* \"#utility.yul\":5449:5450   */\n      0x00\n        /* \"#utility.yul\":5438:5447   */\n      dup4\n        /* \"#utility.yul\":5434:5451   */\n      add\n        /* \"#utility.yul\":5425:5431   */\n      dup6\n        /* \"#utility.yul\":5381:5452   */\n      tag_201\n      jump\t// in\n    tag_301:\n        /* \"#utility.yul\":5462:5534   */\n      tag_302\n        /* \"#utility.yul\":5530:5532   */\n      0x20\n        /* \"#utility.yul\":5519:5528   */\n      dup4\n        /* \"#utility.yul\":5515:5533   */\n      add\n        /* \"#utility.yul\":5506:5512   */\n      dup5\n        /* \"#utility.yul\":5462:5534   */\n      tag_196\n      jump\t// in\n    tag_302:\n        /* \"#utility.yul\":5209:5541   */\n      swap4\n      swap3\n      pop\n      pop\n      pop\n      jump\t// out\n        /* \"#utility.yul\":5547:5716   */\n    tag_206:\n        /* \"#utility.yul\":5631:5642   */\n      0x00\n        /* \"#utility.yul\":5665:5671   */\n      dup3\n        /* \"#utility.yul\":5660:5663   */\n      dup3\n        /* \"#utility.yul\":5653:5672   */\n      mstore\n        /* \"#utility.yul\":5705:5709   */\n      0x20\n        /* \"#utility.yul\":5700:5703   */\n      dup3\n        /* \"#utility.yul\":5696:5710   */\n      add\n        /* \"#utility.yul\":5681:5710   */\n      swap1\n      pop\n        /* \"#utility.yul\":5547:5716   */\n      swap3\n      swap2\n      pop\n      pop\n      jump\t// out\n        /* \"#utility.yul\":5722:5901   */\n    tag_207:\n        /* \"#utility.yul\":5862:5893   */\n      0x416464726573733a20696e73756666696369656e742062616c616e6365000000\n        /* \"#utility.yul\":5858:5859   */\n      0x00\n        /* \"#utility.yul\":5850:5856   */\n      dup3\n        /* \"#utility.yul\":5846:5860   */\n      add\n        /* \"#utility.yul\":5839:5894   */\n      mstore\n        /* \"#utility.yul\":5722:5901   */\n      pop\n      jump\t// out\n        /* \"#utility.yul\":5907:6273   */\n    tag_208:\n        /* \"#utility.yul\":6049:6052   */\n      0x00\n        /* \"#utility.yul\":6070:6137   */\n      tag_306\n        /* \"#utility.yul\":6134:6136   */\n      0x1d\n        /* \"#utility.yul\":6129:6132   */\n      dup4\n        /* \"#utility.yul\":6070:6137   */\n      tag_206\n      jump\t// in\n    tag_306:\n        /* \"#utility.yul\":6063:6137   */\n      swap2\n      pop\n        /* \"#utility.yul\":6146:6239   */\n      tag_307\n        /* \"#utility.yul\":6235:6238   */\n      dup3\n        /* \"#utility.yul\":6146:6239   */\n      tag_207\n      jump\t// in\n    tag_307:\n        /* \"#utility.yul\":6264:6266   */\n      0x20\n        /* \"#utility.yul\":6259:6262   */\n      dup3\n        /* \"#utility.yul\":6255:6267   */\n      add\n        /* \"#utility.yul\":6248:6267   */\n      swap1\n      pop\n        /* \"#utility.yul\":5907:6273   */\n      swap2\n      swap1\n      pop\n      jump\t// out\n        /* \"#utility.yul\":6279:6698   */\n    tag_144:\n        /* \"#utility.yul\":6445:6449   */\n      0x00\n        /* \"#utility.yul\":6483:6485   */\n      0x20\n        /* \"#utility.yul\":6472:6481   */\n      dup3\n        /* \"#utility.yul\":6468:6486   */\n      add\n        /* \"#utility.yul\":6460:6486   */\n      swap1\n      pop\n        /* \"#utility.yul\":6532:6541   */\n      dup2\n        /* \"#utility.yul\":6526:6530   */\n      dup2\n        /* \"#utility.yul\":6522:6542   */\n      sub\n        /* \"#utility.yul\":6518:6519   */\n      0x00\n        /* \"#utility.yul\":6507:6516   */\n      dup4\n        /* \"#utility.yul\":6503:6520   */\n      add\n        /* \"#utility.yul\":6496:6543   */\n      mstore\n        /* \"#utility.yul\":6560:6691   */\n      tag_309\n        /* \"#utility.yul\":6686:6690   */\n      dup2\n        /* \"#utility.yul\":6560:6691   */\n      tag_208\n      jump\t// in\n    tag_309:\n        /* \"#utility.yul\":6552:6691   */\n      swap1\n      pop\n        /* \"#utility.yul\":6279:6698   */\n      swap2\n      swap1\n      pop\n      jump\t// out\n        /* \"#utility.yul\":6704:6851   */\n    tag_209:\n        /* \"#utility.yul\":6805:6816   */\n      0x00\n        /* \"#utility.yul\":6842:6845   */\n      dup2\n        /* \"#utility.yul\":6827:6845   */\n      swap1\n      pop\n        /* \"#utility.yul\":6704:6851   */\n      swap3\n      swap2\n      pop\n      pop\n      jump\t// out\n        /* \"#utility.yul\":6857:6971   */\n    tag_210:\n      pop\n      jump\t// out\n        /* \"#utility.yul\":6977:7375   */\n    tag_211:\n        /* \"#utility.yul\":7136:7139   */\n      0x00\n        /* \"#utility.yul\":7157:7240   */\n      tag_313\n        /* \"#utility.yul\":7238:7239   */\n      0x00\n        /* \"#utility.yul\":7233:7236   */\n      dup4\n        /* \"#utility.yul\":7157:7240   */\n      tag_209\n      jump\t// in\n    tag_313:\n        /* \"#utility.yul\":7150:7240   */\n      swap2\n      pop\n        /* \"#utility.yul\":7249:7342   */\n      tag_314\n        /* \"#utility.yul\":7338:7341   */\n      dup3\n        /* \"#utility.yul\":7249:7342   */\n      tag_210\n      jump\t// in\n    tag_314:\n        /* \"#utility.yul\":7367:7368   */\n      0x00\n        /* \"#utility.yul\":7362:7365   */\n      dup3\n        /* \"#utility.yul\":7358:7369   */\n      add\n        /* \"#utility.yul\":7351:7369   */\n      swap1\n      pop\n        /* \"#utility.yul\":6977:7375   */\n      swap2\n      swap1\n      pop\n      jump\t// out\n        /* \"#utility.yul\":7381:7760   */\n    tag_146:\n        /* \"#utility.yul\":7565:7568   */\n      0x00\n        /* \"#utility.yul\":7587:7734   */\n      tag_316\n        /* \"#utility.yul\":7730:7733   */\n      dup3\n        /* \"#utility.yul\":7587:7734   */\n      tag_211\n      jump\t// in\n    tag_316:\n        /* \"#utility.yul\":7580:7734   */\n      swap2\n      pop\n        /* \"#utility.yul\":7751:7754   */\n      dup2\n        /* \"#utility.yul\":7744:7754   */\n      swap1\n      pop\n        /* \"#utility.yul\":7381:7760   */\n      swap2\n      swap1\n      pop\n      jump\t// out\n        /* \"#utility.yul\":7766:8011   */\n    tag_212:\n        /* \"#utility.yul\":7906:7940   */\n      0x416464726573733a20756e61626c6520746f2073656e642076616c75652c2072\n        /* \"#utility.yul\":7902:7903   */\n      0x00\n        /* \"#utility.yul\":7894:7900   */\n      dup3\n        /* \"#utility.yul\":7890:7904   */\n      add\n        /* \"#utility.yul\":7883:7941   */\n      mstore\n        /* \"#utility.yul\":7975:8003   */\n      0x6563697069656e74206d61792068617665207265766572746564000000000000\n        /* \"#utility.yul\":7970:7972   */\n      0x20\n        /* \"#utility.yul\":7962:7968   */\n      dup3\n        /* \"#utility.yul\":7958:7973   */\n      add\n        /* \"#utility.yul\":7951:8004   */\n      mstore\n        /* \"#utility.yul\":7766:8011   */\n      pop\n      jump\t// out\n        /* \"#utility.yul\":8017:8383   */\n    tag_213:\n        /* \"#utility.yul\":8159:8162   */\n      0x00\n        /* \"#utility.yul\":8180:8247   */\n      tag_319\n        /* \"#utility.yul\":8244:8246   */\n      0x3a\n        /* \"#utility.yul\":8239:8242   */\n      dup4\n        /* \"#utility.yul\":8180:8247   */\n      tag_206\n      jump\t// in\n    tag_319:\n        /* \"#utility.yul\":8173:8247   */\n      swap2\n      pop\n        /* \"#utility.yul\":8256:8349   */\n      tag_320\n        /* \"#utility.yul\":8345:8348   */\n      dup3\n        /* \"#utility.yul\":8256:8349   */\n      tag_212\n      jump\t// in\n    tag_320:\n        /* \"#utility.yul\":8374:8376   */\n      0x40\n        /* \"#utility.yul\":8369:8372   */\n      dup3\n        /* \"#utility.yul\":8365:8377   */\n      add\n        /* \"#utility.yul\":8358:8377   */\n      swap1\n      pop\n        /* \"#utility.yul\":8017:8383   */\n      swap2\n      swap1\n      pop\n      jump\t// out\n        /* \"#utility.yul\":8389:8808   */\n    tag_152:\n        /* \"#utility.yul\":8555:8559   */\n      0x00\n        /* \"#utility.yul\":8593:8595   */\n      0x20\n        /* \"#utility.yul\":8582:8591   */\n      dup3\n        /* \"#utility.yul\":8578:8596   */\n      add\n        /* \"#utility.yul\":8570:8596   */\n      swap1\n      pop\n        /* \"#utility.yul\":8642:8651   */\n      dup2\n        /* \"#utility.yul\":8636:8640   */\n      dup2\n        /* \"#utility.yul\":8632:8652   */\n      sub\n        /* \"#utility.yul\":8628:8629   */\n      0x00\n        /* \"#utility.yul\":8617:8626   */\n      dup4\n        /* \"#utility.yul\":8613:8630   */\n      add\n        /* \"#utility.yul\":8606:8653   */\n      mstore\n        /* \"#utility.yul\":8670:8801   */\n      tag_322\n        /* \"#utility.yul\":8796:8800   */\n      dup2\n        /* \"#utility.yul\":8670:8801   */\n      tag_213\n      jump\t// in\n    tag_322:\n        /* \"#utility.yul\":8662:8801   */\n      swap1\n      pop\n        /* \"#utility.yul\":8389:8808   */\n      swap2\n      swap1\n      pop\n      jump\t// out\n        /* \"#utility.yul\":8814:8904   */\n    tag_214:\n        /* \"#utility.yul\":8848:8855   */\n      0x00\n        /* \"#utility.yul\":8891:8896   */\n      dup2\n        /* \"#utility.yul\":8884:8897   */\n      iszero\n        /* \"#utility.yul\":8877:8898   */\n      iszero\n        /* \"#utility.yul\":8866:8898   */\n      swap1\n      pop\n        /* \"#utility.yul\":8814:8904   */\n      swap2\n      swap1\n      pop\n      jump\t// out\n        /* \"#utility.yul\":8910:9026   */\n    tag_215:\n        /* \"#utility.yul\":8980:9001   */\n      tag_325\n        /* \"#utility.yul\":8995:9000   */\n      dup2\n        /* \"#utility.yul\":8980:9001   */\n      tag_214\n      jump\t// in\n    tag_325:\n        /* \"#utility.yul\":8973:8978   */\n      dup2\n        /* \"#utility.yul\":8970:9002   */\n      eq\n        /* \"#utility.yul\":8960:9020   */\n      tag_326\n      jumpi\n        /* \"#utility.yul\":9016:9017   */\n      0x00\n        /* \"#utility.yul\":9013:9014   */\n      dup1\n        /* \"#utility.yul\":9006:9018   */\n      revert\n        /* \"#utility.yul\":8960:9020   */\n    tag_326:\n        /* \"#utility.yul\":8910:9026   */\n      pop\n      jump\t// out\n        /* \"#utility.yul\":9032:9169   */\n    tag_216:\n        /* \"#utility.yul\":9086:9091   */\n      0x00\n        /* \"#utility.yul\":9117:9123   */\n      dup2\n        /* \"#utility.yul\":9111:9124   */\n      mload\n        /* \"#utility.yul\":9102:9124   */\n      swap1\n      pop\n        /* \"#utility.yul\":9133:9163   */\n      tag_328\n        /* \"#utility.yul\":9157:9162   */\n      dup2\n        /* \"#utility.yul\":9133:9163   */\n      tag_215\n      jump\t// in\n    tag_328:\n        /* \"#utility.yul\":9032:9169   */\n      swap3\n      swap2\n      pop\n      pop\n      jump\t// out\n        /* \"#utility.yul\":9175:9520   */\n    tag_158:\n        /* \"#utility.yul\":9242:9248   */\n      0x00\n        /* \"#utility.yul\":9291:9293   */\n      0x20\n        /* \"#utility.yul\":9279:9288   */\n      dup3\n        /* \"#utility.yul\":9270:9277   */\n      dup5\n        /* \"#utility.yul\":9266:9289   */\n      sub\n        /* \"#utility.yul\":9262:9294   */\n      slt\n        /* \"#utility.yul\":9259:9378   */\n      iszero\n      tag_330\n      jumpi\n        /* \"#utility.yul\":9297:9376   */\n      tag_331\n      tag_190\n      jump\t// in\n    tag_331:\n        /* \"#utility.yul\":9259:9378   */\n    tag_330:\n        /* \"#utility.yul\":9417:9418   */\n      0x00\n        /* \"#utility.yul\":9442:9503   */\n      tag_332\n        /* \"#utility.yul\":9495:9502   */\n      dup5\n        /* \"#utility.yul\":9486:9492   */\n      dup3\n        /* \"#utility.yul\":9475:9484   */\n      dup6\n        /* \"#utility.yul\":9471:9493   */\n      add\n        /* \"#utility.yul\":9442:9503   */\n      tag_216\n      jump\t// in\n    tag_332:\n        /* \"#utility.yul\":9432:9503   */\n      swap2\n      pop\n        /* \"#utility.yul\":9388:9513   */\n      pop\n        /* \"#utility.yul\":9175:9520   */\n      swap3\n      swap2\n      pop\n      pop\n      jump\t// out\n        /* \"#utility.yul\":9526:9755   */\n    tag_217:\n        /* \"#utility.yul\":9666:9700   */\n      0x5361666545524332303a204552433230206f7065726174696f6e20646964206e\n        /* \"#utility.yul\":9662:9663   */\n      0x00\n        /* \"#utility.yul\":9654:9660   */\n      dup3\n        /* \"#utility.yul\":9650:9664   */\n      add\n        /* \"#utility.yul\":9643:9701   */\n      mstore\n        /* \"#utility.yul\":9735:9747   */\n      0x6f74207375636365656400000000000000000000000000000000000000000000\n        /* \"#utility.yul\":9730:9732   */\n      0x20\n        /* \"#utility.yul\":9722:9728   */\n      dup3\n        /* \"#utility.yul\":9718:9733   */\n      add\n        /* \"#utility.yul\":9711:9748   */\n      mstore\n        /* \"#utility.yul\":9526:9755   */\n      pop\n      jump\t// out\n        /* \"#utility.yul\":9761:10127   */\n    tag_218:\n        /* \"#utility.yul\":9903:9906   */\n      0x00\n        /* \"#utility.yul\":9924:9991   */\n      tag_335\n        /* \"#utility.yul\":9988:9990   */\n      0x2a\n        /* \"#utility.yul\":9983:9986   */\n      dup4\n        /* \"#utility.yul\":9924:9991   */\n      tag_206\n      jump\t// in\n    tag_335:\n        /* \"#utility.yul\":9917:9991   */\n      swap2\n      pop\n        /* \"#utility.yul\":10000:10093   */\n      tag_336\n        /* \"#utility.yul\":10089:10092   */\n      dup3\n        /* \"#utility.yul\":10000:10093   */\n      tag_217\n      jump\t// in\n    tag_336:\n        /* \"#utility.yul\":10118:10120   */\n      0x40\n        /* \"#utility.yul\":10113:10116   */\n      dup3\n        /* \"#utility.yul\":10109:10121   */\n      add\n        /* \"#utility.yul\":10102:10121   */\n      swap1\n      pop\n        /* \"#utility.yul\":9761:10127   */\n      swap2\n      swap1\n      pop\n      jump\t// out\n        /* \"#utility.yul\":10133:10552   */\n    tag_161:\n        /* \"#utility.yul\":10299:10303   */\n      0x00\n        /* \"#utility.yul\":10337:10339   */\n      0x20\n        /* \"#utility.yul\":10326:10335   */\n      dup3\n        /* \"#utility.yul\":10322:10340   */\n      add\n        /* \"#utility.yul\":10314:10340   */\n      swap1\n      pop\n        /* \"#utility.yul\":10386:10395   */\n      dup2\n        /* \"#utility.yul\":10380:10384   */\n      dup2\n        /* \"#utility.yul\":10376:10396   */\n      sub\n        /* \"#utility.yul\":10372:10373   */\n      0x00\n        /* \"#utility.yul\":10361:10370   */\n      dup4\n        /* \"#utility.yul\":10357:10374   */\n      add\n        /* \"#utility.yul\":10350:10397   */\n      mstore\n        /* \"#utility.yul\":10414:10545   */\n      tag_338\n        /* \"#utility.yul\":10540:10544   */\n      dup2\n        /* \"#utility.yul\":10414:10545   */\n      tag_218\n      jump\t// in\n    tag_338:\n        /* \"#utility.yul\":10406:10545   */\n      swap1\n      pop\n        /* \"#utility.yul\":10133:10552   */\n      swap2\n      swap1\n      pop\n      jump\t// out\n        /* \"#utility.yul\":10558:10783   */\n    tag_219:\n        /* \"#utility.yul\":10698:10732   */\n      0x416464726573733a20696e73756666696369656e742062616c616e636520666f\n        /* \"#utility.yul\":10694:10695   */\n      0x00\n        /* \"#utility.yul\":10686:10692   */\n      dup3\n        /* \"#utility.yul\":10682:10696   */\n      add\n        /* \"#utility.yul\":10675:10733   */\n      mstore\n        /* \"#utility.yul\":10767:10775   */\n      0x722063616c6c0000000000000000000000000000000000000000000000000000\n        /* \"#utility.yul\":10762:10764   */\n      0x20\n        /* \"#utility.yul\":10754:10760   */\n      dup3\n        /* \"#utility.yul\":10750:10765   */\n      add\n        /* \"#utility.yul\":10743:10776   */\n      mstore\n        /* \"#utility.yul\":10558:10783   */\n      pop\n      jump\t// out\n        /* \"#utility.yul\":10789:11155   */\n    tag_220:\n        /* \"#utility.yul\":10931:10934   */\n      0x00\n        /* \"#utility.yul\":10952:11019   */\n      tag_341\n        /* \"#utility.yul\":11016:11018   */\n      0x26\n        /* \"#utility.yul\":11011:11014   */\n      dup4\n        /* \"#utility.yul\":10952:11019   */\n      tag_206\n      jump\t// in\n    tag_341:\n        /* \"#utility.yul\":10945:11019   */\n      swap2\n      pop\n        /* \"#utility.yul\":11028:11121   */\n      tag_342\n        /* \"#utility.yul\":11117:11120   */\n      dup3\n        /* \"#utility.yul\":11028:11121   */\n      tag_219\n      jump\t// in\n    tag_342:\n        /* \"#utility.yul\":11146:11148   */\n      0x40\n        /* \"#utility.yul\":11141:11144   */\n      dup3\n        /* \"#utility.yul\":11137:11149   */\n      add\n        /* \"#utility.yul\":11130:11149   */\n      swap1\n      pop\n        /* \"#utility.yul\":10789:11155   */\n      swap2\n      swap1\n      pop\n      jump\t// out\n        /* \"#utility.yul\":11161:11580   */\n    tag_168:\n        /* \"#utility.yul\":11327:11331   */\n      0x00\n        /* \"#utility.yul\":11365:11367   */\n      0x20\n        /* \"#utility.yul\":11354:11363   */\n      dup3\n        /* \"#utility.yul\":11350:11368   */\n      add\n        /* \"#utility.yul\":11342:11368   */\n      swap1\n      pop\n        /* \"#utility.yul\":11414:11423   */\n      dup2\n        /* \"#utility.yul\":11408:11412   */\n      dup2\n        /* \"#utility.yul\":11404:11424   */\n      sub\n        /* \"#utility.yul\":11400:11401   */\n      0x00\n        /* \"#utility.yul\":11389:11398   */\n      dup4\n        /* \"#utility.yul\":11385:11402   */\n      add\n        /* \"#utility.yul\":11378:11425   */\n      mstore\n        /* \"#utility.yul\":11442:11573   */\n      tag_344\n        /* \"#utility.yul\":11568:11572   */\n      dup2\n        /* \"#utility.yul\":11442:11573   */\n      tag_220\n      jump\t// in\n    tag_344:\n        /* \"#utility.yul\":11434:11573   */\n      swap1\n      pop\n        /* \"#utility.yul\":11161:11580   */\n      swap2\n      swap1\n      pop\n      jump\t// out\n        /* \"#utility.yul\":11586:11765   */\n    tag_221:\n        /* \"#utility.yul\":11726:11757   */\n      0x416464726573733a2063616c6c20746f206e6f6e2d636f6e7472616374000000\n        /* \"#utility.yul\":11722:11723   */\n      0x00\n        /* \"#utility.yul\":11714:11720   */\n      dup3\n        /* \"#utility.yul\":11710:11724   */\n      add\n        /* \"#utility.yul\":11703:11758   */\n      mstore\n        /* \"#utility.yul\":11586:11765   */\n      pop\n      jump\t// out\n        /* \"#utility.yul\":11771:12137   */\n    tag_222:\n        /* \"#utility.yul\":11913:11916   */\n      0x00\n        /* \"#utility.yul\":11934:12001   */\n      tag_347\n        /* \"#utility.yul\":11998:12000   */\n      0x1d\n        /* \"#utility.yul\":11993:11996   */\n      dup4\n        /* \"#utility.yul\":11934:12001   */\n      tag_206\n      jump\t// in\n    tag_347:\n        /* \"#utility.yul\":11927:12001   */\n      swap2\n      pop\n        /* \"#utility.yul\":12010:12103   */\n      tag_348\n        /* \"#utility.yul\":12099:12102   */\n      dup3\n        /* \"#utility.yul\":12010:12103   */\n      tag_221\n      jump\t// in\n    tag_348:\n        /* \"#utility.yul\":12128:12130   */\n      0x20\n        /* \"#utility.yul\":12123:12126   */\n      dup3\n        /* \"#utility.yul\":12119:12131   */\n      add\n        /* \"#utility.yul\":12112:12131   */\n      swap1\n      pop\n        /* \"#utility.yul\":11771:12137   */\n      swap2\n      swap1\n      pop\n      jump\t// out\n        /* \"#utility.yul\":12143:12562   */\n    tag_173:\n        /* \"#utility.yul\":12309:12313   */\n      0x00\n        /* \"#utility.yul\":12347:12349   */\n      0x20\n        /* \"#utility.yul\":12336:12345   */\n      dup3\n        /* \"#utility.yul\":12332:12350   */\n      add\n        /* \"#utility.yul\":12324:12350   */\n      swap1\n      pop\n        /* \"#utility.yul\":12396:12405   */\n      dup2\n        /* \"#utility.yul\":12390:12394   */\n      dup2\n        /* \"#utility.yul\":12386:12406   */\n      sub\n        /* \"#utility.yul\":12382:12383   */\n      0x00\n        /* \"#utility.yul\":12371:12380   */\n      dup4\n        /* \"#utility.yul\":12367:12384   */\n      add\n        /* \"#utility.yul\":12360:12407   */\n      mstore\n        /* \"#utility.yul\":12424:12555   */\n      tag_350\n        /* \"#utility.yul\":12550:12554   */\n      dup2\n        /* \"#utility.yul\":12424:12555   */\n      tag_222\n      jump\t// in\n    tag_350:\n        /* \"#utility.yul\":12416:12555   */\n      swap1\n      pop\n        /* \"#utility.yul\":12143:12562   */\n      swap2\n      swap1\n      pop\n      jump\t// out\n        /* \"#utility.yul\":12568:12666   */\n    tag_223:\n        /* \"#utility.yul\":12619:12625   */\n      0x00\n        /* \"#utility.yul\":12653:12658   */\n      dup2\n        /* \"#utility.yul\":12647:12659   */\n      mload\n        /* \"#utility.yul\":12637:12659   */\n      swap1\n      pop\n        /* \"#utility.yul\":12568:12666   */\n      swap2\n      swap1\n      pop\n      jump\t// out\n        /* \"#utility.yul\":12672:12979   */\n    tag_224:\n        /* \"#utility.yul\":12740:12741   */\n      0x00\n        /* \"#utility.yul\":12750:12863   */\n    tag_353:\n        /* \"#utility.yul\":12764:12770   */\n      dup4\n        /* \"#utility.yul\":12761:12762   */\n      dup2\n        /* \"#utility.yul\":12758:12771   */\n      lt\n        /* \"#utility.yul\":12750:12863   */\n      iszero\n      tag_355\n      jumpi\n        /* \"#utility.yul\":12849:12850   */\n      dup1\n        /* \"#utility.yul\":12844:12847   */\n      dup3\n        /* \"#utility.yul\":12840:12851   */\n      add\n        /* \"#utility.yul\":12834:12852   */\n      mload\n        /* \"#utility.yul\":12830:12831   */\n      dup2\n        /* \"#utility.yul\":12825:12828   */\n      dup5\n        /* \"#utility.yul\":12821:12832   */\n      add\n        /* \"#utility.yul\":12814:12853   */\n      mstore\n        /* \"#utility.yul\":12786:12788   */\n      0x20\n        /* \"#utility.yul\":12783:12784   */\n      dup2\n        /* \"#utility.yul\":12779:12789   */\n      add\n        /* \"#utility.yul\":12774:12789   */\n      swap1\n      pop\n        /* \"#utility.yul\":12750:12863   */\n      jump(tag_353)\n    tag_355:\n        /* \"#utility.yul\":12881:12887   */\n      dup4\n        /* \"#utility.yul\":12878:12879   */\n      dup2\n        /* \"#utility.yul\":12875:12888   */\n      gt\n        /* \"#utility.yul\":12872:12973   */\n      iszero\n      tag_356\n      jumpi\n        /* \"#utility.yul\":12961:12962   */\n      0x00\n        /* \"#utility.yul\":12952:12958   */\n      dup5\n        /* \"#utility.yul\":12947:12950   */\n      dup5\n        /* \"#utility.yul\":12943:12959   */\n      add\n        /* \"#utility.yul\":12936:12963   */\n      mstore\n        /* \"#utility.yul\":12872:12973   */\n    tag_356:\n        /* \"#utility.yul\":12721:12979   */\n      pop\n        /* \"#utility.yul\":12672:12979   */\n      pop\n      pop\n      pop\n      jump\t// out\n        /* \"#utility.yul\":12985:13358   */\n    tag_225:\n        /* \"#utility.yul\":13089:13092   */\n      0x00\n        /* \"#utility.yul\":13117:13155   */\n      tag_358\n        /* \"#utility.yul\":13149:13154   */\n      dup3\n        /* \"#utility.yul\":13117:13155   */\n      tag_223\n      jump\t// in\n    tag_358:\n        /* \"#utility.yul\":13171:13259   */\n      tag_359\n        /* \"#utility.yul\":13252:13258   */\n      dup2\n        /* \"#utility.yul\":13247:13250   */\n      dup6\n        /* \"#utility.yul\":13171:13259   */\n      tag_209\n      jump\t// in\n    tag_359:\n        /* \"#utility.yul\":13164:13259   */\n      swap4\n      pop\n        /* \"#utility.yul\":13268:13320   */\n      tag_360\n        /* \"#utility.yul\":13313:13319   */\n      dup2\n        /* \"#utility.yul\":13308:13311   */\n      dup6\n        /* \"#utility.yul\":13301:13305   */\n      0x20\n        /* \"#utility.yul\":13294:13299   */\n      dup7\n        /* \"#utility.yul\":13290:13306   */\n      add\n        /* \"#utility.yul\":13268:13320   */\n      tag_224\n      jump\t// in\n    tag_360:\n        /* \"#utility.yul\":13345:13351   */\n      dup1\n        /* \"#utility.yul\":13340:13343   */\n      dup5\n        /* \"#utility.yul\":13336:13352   */\n      add\n        /* \"#utility.yul\":13329:13352   */\n      swap2\n      pop\n        /* \"#utility.yul\":13093:13358   */\n      pop\n        /* \"#utility.yul\":12985:13358   */\n      swap3\n      swap2\n      pop\n      pop\n      jump\t// out\n        /* \"#utility.yul\":13364:13635   */\n    tag_175:\n        /* \"#utility.yul\":13494:13497   */\n      0x00\n        /* \"#utility.yul\":13516:13609   */\n      tag_362\n        /* \"#utility.yul\":13605:13608   */\n      dup3\n        /* \"#utility.yul\":13596:13602   */\n      dup5\n        /* \"#utility.yul\":13516:13609   */\n      tag_225\n      jump\t// in\n    tag_362:\n        /* \"#utility.yul\":13509:13609   */\n      swap2\n      pop\n        /* \"#utility.yul\":13626:13629   */\n      dup2\n        /* \"#utility.yul\":13619:13629   */\n      swap1\n      pop\n        /* \"#utility.yul\":13364:13635   */\n      swap3\n      swap2\n      pop\n      pop\n      jump\t// out\n        /* \"#utility.yul\":13641:13740   */\n    tag_226:\n        /* \"#utility.yul\":13693:13699   */\n      0x00\n        /* \"#utility.yul\":13727:13732   */\n      dup2\n        /* \"#utility.yul\":13721:13733   */\n      mload\n        /* \"#utility.yul\":13711:13733   */\n      swap1\n      pop\n        /* \"#utility.yul\":13641:13740   */\n      swap2\n      swap1\n      pop\n      jump\t// out\n        /* \"#utility.yul\":13746:13848   */\n    tag_227:\n        /* \"#utility.yul\":13787:13793   */\n      0x00\n        /* \"#utility.yul\":13838:13840   */\n      0x1f\n        /* \"#utility.yul\":13834:13841   */\n      not\n        /* \"#utility.yul\":13829:13831   */\n      0x1f\n        /* \"#utility.yul\":13822:13827   */\n      dup4\n        /* \"#utility.yul\":13818:13832   */\n      add\n        /* \"#utility.yul\":13814:13842   */\n      and\n        /* \"#utility.yul\":13804:13842   */\n      swap1\n      pop\n        /* \"#utility.yul\":13746:13848   */\n      swap2\n      swap1\n      pop\n      jump\t// out\n        /* \"#utility.yul\":13854:14218   */\n    tag_228:\n        /* \"#utility.yul\":13942:13945   */\n      0x00\n        /* \"#utility.yul\":13970:14009   */\n      tag_366\n        /* \"#utility.yul\":14003:14008   */\n      dup3\n        /* \"#utility.yul\":13970:14009   */\n      tag_226\n      jump\t// in\n    tag_366:\n        /* \"#utility.yul\":14025:14096   */\n      tag_367\n        /* \"#utility.yul\":14089:14095   */\n      dup2\n        /* \"#utility.yul\":14084:14087   */\n      dup6\n        /* \"#utility.yul\":14025:14096   */\n      tag_206\n      jump\t// in\n    tag_367:\n        /* \"#utility.yul\":14018:14096   */\n      swap4\n      pop\n        /* \"#utility.yul\":14105:14157   */\n      tag_368\n        /* \"#utility.yul\":14150:14156   */\n      dup2\n        /* \"#utility.yul\":14145:14148   */\n      dup6\n        /* \"#utility.yul\":14138:14142   */\n      0x20\n        /* \"#utility.yul\":14131:14136   */\n      dup7\n        /* \"#utility.yul\":14127:14143   */\n      add\n        /* \"#utility.yul\":14105:14157   */\n      tag_224\n      jump\t// in\n    tag_368:\n        /* \"#utility.yul\":14182:14211   */\n      tag_369\n        /* \"#utility.yul\":14204:14210   */\n      dup2\n        /* \"#utility.yul\":14182:14211   */\n      tag_227\n      jump\t// in\n    tag_369:\n        /* \"#utility.yul\":14177:14180   */\n      dup5\n        /* \"#utility.yul\":14173:14212   */\n      add\n        /* \"#utility.yul\":14166:14212   */\n      swap2\n      pop\n        /* \"#utility.yul\":13946:14218   */\n      pop\n        /* \"#utility.yul\":13854:14218   */\n      swap3\n      swap2\n      pop\n      pop\n      jump\t// out\n        /* \"#utility.yul\":14224:14537   */\n    tag_188:\n        /* \"#utility.yul\":14337:14341   */\n      0x00\n        /* \"#utility.yul\":14375:14377   */\n      0x20\n        /* \"#utility.yul\":14364:14373   */\n      dup3\n        /* \"#utility.yul\":14360:14378   */\n      add\n        /* \"#utility.yul\":14352:14378   */\n      swap1\n      pop\n        /* \"#utility.yul\":14424:14433   */\n      dup2\n        /* \"#utility.yul\":14418:14422   */\n      dup2\n        /* \"#utility.yul\":14414:14434   */\n      sub\n        /* \"#utility.yul\":14410:14411   */\n      0x00\n        /* \"#utility.yul\":14399:14408   */\n      dup4\n        /* \"#utility.yul\":14395:14412   */\n      add\n        /* \"#utility.yul\":14388:14435   */\n      mstore\n        /* \"#utility.yul\":14452:14530   */\n      tag_371\n        /* \"#utility.yul\":14525:14529   */\n      dup2\n        /* \"#utility.yul\":14516:14522   */\n      dup5\n        /* \"#utility.yul\":14452:14530   */\n      tag_228\n      jump\t// in\n    tag_371:\n        /* \"#utility.yul\":14444:14530   */\n      swap1\n      pop\n        /* \"#utility.yul\":14224:14537   */\n      swap3\n      swap2\n      pop\n      pop\n      jump\t// out\n\n    auxdata: 0xa2646970667358221220f95dda19d2138b189007e085444004429ab2fcf0a17babaf8a97d16d38412b2364736f6c634300080b0033\n}\n",
				"bytecode": {
					"linkReferences": {},
					"object": "60e0604052604051620015bd380380620015bd8339818101604052810190620000299190620001c0565b600073ffffffffffffffffffffffffffffffffffffffff168373ffffffffffffffffffffffffffffffffffffffff1614156200009c576040517f08c379a00000000000000000000000000000000000000000000000000000000081526004016200009390620002a3565b60405180910390fd5b8273ffffffffffffffffffffffffffffffffffffffff1660808173ffffffffffffffffffffffffffffffffffffffff16815250508167ffffffffffffffff1660a08167ffffffffffffffff16815250508067ffffffffffffffff1660c08167ffffffffffffffff1681525050505050620002c5565b600080fd5b600073ffffffffffffffffffffffffffffffffffffffff82169050919050565b6000620001438262000116565b9050919050565b620001558162000136565b81146200016157600080fd5b50565b60008151905062000175816200014a565b92915050565b600067ffffffffffffffff82169050919050565b6200019a816200017b565b8114620001a657600080fd5b50565b600081519050620001ba816200018f565b92915050565b600080600060608486031215620001dc57620001db62000111565b5b6000620001ec8682870162000164565b9350506020620001ff86828701620001a9565b92505060406200021286828701620001a9565b9150509250925092565b600082825260208201905092915050565b7f56657374696e6757616c6c65743a2062656e6566696369617279206973207a6560008201527f726f206164647265737300000000000000000000000000000000000000000000602082015250565b60006200028b602a836200021c565b915062000298826200022d565b604082019050919050565b60006020820190508181036000830152620002be816200027c565b9050919050565b60805160a05160c0516112c8620002f560003960006102e0015260006105a8015260006103f901526112c86000f3fe6080604052600436106100a05760003560e01c806386d1a69f1161006457806386d1a69f146101a557806396132521146101bc5780639852595c146101e7578063a3f8eace14610224578063be9a655514610261578063fbccedae1461028c576100a7565b80630a17b06b146100ac5780630fb5a6b4146100e9578063191655871461011457806338af3eed1461013d578063810ec23b14610168576100a7565b366100a757005b600080fd5b3480156100b857600080fd5b506100d360048036038101906100ce9190610b00565b6102b7565b6040516100e09190610b46565b60405180910390f35b3480156100f557600080fd5b506100fe6102dc565b60405161010b9190610b46565b60405180910390f35b34801561012057600080fd5b5061013b60048036038101906101369190610bbf565b61030e565b005b34801561014957600080fd5b506101526103f5565b60405161015f9190610bfb565b60405180910390f35b34801561017457600080fd5b5061018f600480360381019061018a9190610c16565b61041d565b60405161019c9190610b46565b60405180910390f35b3480156101b157600080fd5b506101ba6104bd565b005b3480156101c857600080fd5b506101d161052c565b6040516101de9190610b46565b60405180910390f35b3480156101f357600080fd5b5061020e60048036038101906102099190610bbf565b610535565b60405161021b9190610b46565b60405180910390f35b34801561023057600080fd5b5061024b60048036038101906102469190610bbf565b61057e565b6040516102589190610b46565b60405180910390f35b34801561026d57600080fd5b506102766105a4565b6040516102839190610b46565b60405180910390f35b34801561029857600080fd5b506102a16105d6565b6040516102ae9190610b46565b60405180910390f35b60006102d56102c461052c565b476102cf9190610c85565b836105f8565b9050919050565b60007f000000000000000000000000000000000000000000000000000000000000000067ffffffffffffffff16905090565b60006103198261057e565b9050600254610326610692565b11156103f157610334610692565b60028190555080600160008473ffffffffffffffffffffffffffffffffffffffff1673ffffffffffffffffffffffffffffffffffffffff16815260200190815260200160002060008282546103899190610c85565b925050819055508173ffffffffffffffffffffffffffffffffffffffff167fc0e523490dd523c33b1878c9eb14ff46991e3f5b2cd33710918618f2a39cba1b826040516103d69190610b46565b60405180910390a26103f0826103ea6103f5565b836106c4565b5b5050565b60007f0000000000000000000000000000000000000000000000000000000000000000905090565b60006104b561042b84610535565b8473ffffffffffffffffffffffffffffffffffffffff166370a08231306040518263ffffffff1660e01b81526004016104649190610bfb565b602060405180830381865afa158015610481573d6000803e3d6000fd5b505050506040513d601f19601f820116820180604052508101906104a59190610d07565b6104af9190610c85565b836105f8565b905092915050565b60006104c76105d6565b9050806000808282546104da9190610c85565b925050819055507fda9d4e5f101b8b9b1c5b76d0c5a9f7923571acfc02376aa076b75a8c080c956b816040516105109190610b46565b60405180910390a16105296105236103f5565b8261074a565b50565b60008054905090565b6000600160008373ffffffffffffffffffffffffffffffffffffffff1673ffffffffffffffffffffffffffffffffffffffff168152602001908152602001600020549050919050565b600061058982610535565b610593834261041d565b61059d9190610d34565b9050919050565b60007f000000000000000000000000000000000000000000000000000000000000000067ffffffffffffffff16905090565b60006105e061052c565b6105e9426102b7565b6105f39190610d34565b905090565b60006106026105a4565b8267ffffffffffffffff16101561061c576000905061068c565b6106246102dc565b61062c6105a4565b6106369190610c85565b8267ffffffffffffffff16111561064f5782905061068c565b6106576102dc565b61065f6105a4565b8367ffffffffffffffff166106749190610d34565b8461067f9190610d68565b6106899190610df1565b90505b92915050565b600062278d006106a06105a4565b4267ffffffffffffffff166106b59190610d34565b6106bf9190610df1565b905090565b6107458363a9059cbb60e01b84846040516024016106e3929190610e22565b604051602081830303815290604052907bffffffffffffffffffffffffffffffffffffffffffffffffffffffff19166020820180517bffffffffffffffffffffffffffffffffffffffffffffffffffffffff838183161783525050505061083e565b505050565b8047101561078d576040517f08c379a000000000000000000000000000000000000000000000000000000000815260040161078490610ea8565b60405180910390fd5b60008273ffffffffffffffffffffffffffffffffffffffff16826040516107b390610ef9565b60006040518083038185875af1925050503d80600081146107f0576040519150601f19603f3d011682016040523d82523d6000602084013e6107f5565b606091505b5050905080610839576040517f08c379a000000000000000000000000000000000000000000000000000000000815260040161083090610f80565b60405180910390fd5b505050565b60006108a0826040518060400160405280602081526020017f5361666545524332303a206c6f772d6c6576656c2063616c6c206661696c65648152508573ffffffffffffffffffffffffffffffffffffffff166109059092919063ffffffff16565b905060008151111561090057808060200190518101906108c09190610fd8565b6108ff576040517f08c379a00000000000000000000000000000000000000000000000000000000081526004016108f690611077565b60405180910390fd5b5b505050565b6060610914848460008561091d565b90509392505050565b606082471015610962576040517f08c379a000000000000000000000000000000000000000000000000000000000815260040161095990611109565b60405180910390fd5b61096b85610a31565b6109aa576040517f08c379a00000000000000000000000000000000000000000000000000000000081526004016109a190611175565b60405180910390fd5b6000808673ffffffffffffffffffffffffffffffffffffffff1685876040516109d39190611204565b60006040518083038185875af1925050503d8060008114610a10576040519150601f19603f3d011682016040523d82523d6000602084013e610a15565b606091505b5091509150610a25828286610a54565b92505050949350505050565b6000808273ffffffffffffffffffffffffffffffffffffffff163b119050919050565b60608315610a6457829050610ab4565b600083511115610a775782518084602001fd5b816040517f08c379a0000000000000000000000000000000000000000000000000000000008152600401610aab9190611270565b60405180910390fd5b9392505050565b600080fd5b600067ffffffffffffffff82169050919050565b610add81610ac0565b8114610ae857600080fd5b50565b600081359050610afa81610ad4565b92915050565b600060208284031215610b1657610b15610abb565b5b6000610b2484828501610aeb565b91505092915050565b6000819050919050565b610b4081610b2d565b82525050565b6000602082019050610b5b6000830184610b37565b92915050565b600073ffffffffffffffffffffffffffffffffffffffff82169050919050565b6000610b8c82610b61565b9050919050565b610b9c81610b81565b8114610ba757600080fd5b50565b600081359050610bb981610b93565b92915050565b600060208284031215610bd557610bd4610abb565b5b6000610be384828501610baa565b91505092915050565b610bf581610b81565b82525050565b6000602082019050610c106000830184610bec565b92915050565b60008060408385031215610c2d57610c2c610abb565b5b6000610c3b85828601610baa565b9250506020610c4c85828601610aeb565b9150509250929050565b7f4e487b7100000000000000000000000000000000000000000000000000000000600052601160045260246000fd5b6000610c9082610b2d565b9150610c9b83610b2d565b9250827fffffffffffffffffffffffffffffffffffffffffffffffffffffffffffffffff03821115610cd057610ccf610c56565b5b828201905092915050565b610ce481610b2d565b8114610cef57600080fd5b50565b600081519050610d0181610cdb565b92915050565b600060208284031215610d1d57610d1c610abb565b5b6000610d2b84828501610cf2565b91505092915050565b6000610d3f82610b2d565b9150610d4a83610b2d565b925082821015610d5d57610d5c610c56565b5b828203905092915050565b6000610d7382610b2d565b9150610d7e83610b2d565b9250817fffffffffffffffffffffffffffffffffffffffffffffffffffffffffffffffff0483118215151615610db757610db6610c56565b5b828202905092915050565b7f4e487b7100000000000000000000000000000000000000000000000000000000600052601260045260246000fd5b6000610dfc82610b2d565b9150610e0783610b2d565b925082610e1757610e16610dc2565b5b828204905092915050565b6000604082019050610e376000830185610bec565b610e446020830184610b37565b9392505050565b600082825260208201905092915050565b7f416464726573733a20696e73756666696369656e742062616c616e6365000000600082015250565b6000610e92601d83610e4b565b9150610e9d82610e5c565b602082019050919050565b60006020820190508181036000830152610ec181610e85565b9050919050565b600081905092915050565b50565b6000610ee3600083610ec8565b9150610eee82610ed3565b600082019050919050565b6000610f0482610ed6565b9150819050919050565b7f416464726573733a20756e61626c6520746f2073656e642076616c75652c207260008201527f6563697069656e74206d61792068617665207265766572746564000000000000602082015250565b6000610f6a603a83610e4b565b9150610f7582610f0e565b604082019050919050565b60006020820190508181036000830152610f9981610f5d565b9050919050565b60008115159050919050565b610fb581610fa0565b8114610fc057600080fd5b50565b600081519050610fd281610fac565b92915050565b600060208284031215610fee57610fed610abb565b5b6000610ffc84828501610fc3565b91505092915050565b7f5361666545524332303a204552433230206f7065726174696f6e20646964206e60008201527f6f74207375636365656400000000000000000000000000000000000000000000602082015250565b6000611061602a83610e4b565b915061106c82611005565b604082019050919050565b6000602082019050818103600083015261109081611054565b9050919050565b7f416464726573733a20696e73756666696369656e742062616c616e636520666f60008201527f722063616c6c0000000000000000000000000000000000000000000000000000602082015250565b60006110f3602683610e4b565b91506110fe82611097565b604082019050919050565b60006020820190508181036000830152611122816110e6565b9050919050565b7f416464726573733a2063616c6c20746f206e6f6e2d636f6e7472616374000000600082015250565b600061115f601d83610e4b565b915061116a82611129565b602082019050919050565b6000602082019050818103600083015261118e81611152565b9050919050565b600081519050919050565b60005b838110156111be5780820151818401526020810190506111a3565b838111156111cd576000848401525b50505050565b60006111de82611195565b6111e88185610ec8565b93506111f88185602086016111a0565b80840191505092915050565b600061121082846111d3565b915081905092915050565b600081519050919050565b6000601f19601f8301169050919050565b60006112428261121b565b61124c8185610e4b565b935061125c8185602086016111a0565b61126581611226565b840191505092915050565b6000602082019050818103600083015261128a8184611237565b90509291505056fea2646970667358221220f95dda19d2138b189007e085444004429ab2fcf0a17babaf8a97d16d38412b2364736f6c634300080b0033",
					"opcodes": "PUSH1 0xE0 PUSH1 0x40 MSTORE PUSH1 0x40 MLOAD PUSH3 0x15BD CODESIZE SUB DUP1 PUSH3 0x15BD DUP4 CODECOPY DUP2 DUP2 ADD PUSH1 0x40 MSTORE DUP2 ADD SWAP1 PUSH3 0x29 SWAP2 SWAP1 PUSH3 0x1C0 JUMP JUMPDEST PUSH1 0x0 PUSH20 0xFFFFFFFFFFFFFFFFFFFFFFFFFFFFFFFFFFFFFFFF AND DUP4 PUSH20 0xFFFFFFFFFFFFFFFFFFFFFFFFFFFFFFFFFFFFFFFF AND EQ ISZERO PUSH3 0x9C JUMPI PUSH1 0x40 MLOAD PUSH32 0x8C379A000000000000000000000000000000000000000000000000000000000 DUP2 MSTORE PUSH1 0x4 ADD PUSH3 0x93 SWAP1 PUSH3 0x2A3 JUMP JUMPDEST PUSH1 0x40 MLOAD DUP1 SWAP2 SUB SWAP1 REVERT JUMPDEST DUP3 PUSH20 0xFFFFFFFFFFFFFFFFFFFFFFFFFFFFFFFFFFFFFFFF AND PUSH1 0x80 DUP2 PUSH20 0xFFFFFFFFFFFFFFFFFFFFFFFFFFFFFFFFFFFFFFFF AND DUP2 MSTORE POP POP DUP2 PUSH8 0xFFFFFFFFFFFFFFFF AND PUSH1 0xA0 DUP2 PUSH8 0xFFFFFFFFFFFFFFFF AND DUP2 MSTORE POP POP DUP1 PUSH8 0xFFFFFFFFFFFFFFFF AND PUSH1 0xC0 DUP2 PUSH8 0xFFFFFFFFFFFFFFFF AND DUP2 MSTORE POP POP POP POP POP PUSH3 0x2C5 JUMP JUMPDEST PUSH1 0x0 DUP1 REVERT JUMPDEST PUSH1 0x0 PUSH20 0xFFFFFFFFFFFFFFFFFFFFFFFFFFFFFFFFFFFFFFFF DUP3 AND SWAP1 POP SWAP2 SWAP1 POP JUMP JUMPDEST PUSH1 0x0 PUSH3 0x143 DUP3 PUSH3 0x116 JUMP JUMPDEST SWAP1 POP SWAP2 SWAP1 POP JUMP JUMPDEST PUSH3 0x155 DUP2 PUSH3 0x136 JUMP JUMPDEST DUP2 EQ PUSH3 0x161 JUMPI PUSH1 0x0 DUP1 REVERT JUMPDEST POP JUMP JUMPDEST PUSH1 0x0 DUP2 MLOAD SWAP1 POP PUSH3 0x175 DUP2 PUSH3 0x14A JUMP JUMPDEST SWAP3 SWAP2 POP POP JUMP JUMPDEST PUSH1 0x0 PUSH8 0xFFFFFFFFFFFFFFFF DUP3 AND SWAP1 POP SWAP2 SWAP1 POP JUMP JUMPDEST PUSH3 0x19A DUP2 PUSH3 0x17B JUMP JUMPDEST DUP2 EQ PUSH3 0x1A6 JUMPI PUSH1 0x0 DUP1 REVERT JUMPDEST POP JUMP JUMPDEST PUSH1 0x0 DUP2 MLOAD SWAP1 POP PUSH3 0x1BA DUP2 PUSH3 0x18F JUMP JUMPDEST SWAP3 SWAP2 POP POP JUMP JUMPDEST PUSH1 0x0 DUP1 PUSH1 0x0 PUSH1 0x60 DUP5 DUP7 SUB SLT ISZERO PUSH3 0x1DC JUMPI PUSH3 0x1DB PUSH3 0x111 JUMP JUMPDEST JUMPDEST PUSH1 0x0 PUSH3 0x1EC DUP7 DUP3 DUP8 ADD PUSH3 0x164 JUMP JUMPDEST SWAP4 POP POP PUSH1 0x20 PUSH3 0x1FF DUP7 DUP3 DUP8 ADD PUSH3 0x1A9 JUMP JUMPDEST SWAP3 POP POP PUSH1 0x40 PUSH3 0x212 DUP7 DUP3 DUP8 ADD PUSH3 0x1A9 JUMP JUMPDEST SWAP2 POP POP SWAP3 POP SWAP3 POP SWAP3 JUMP JUMPDEST PUSH1 0x0 DUP3 DUP3 MSTORE PUSH1 0x20 DUP3 ADD SWAP1 POP SWAP3 SWAP2 POP POP JUMP JUMPDEST PUSH32 0x56657374696E6757616C6C65743A2062656E6566696369617279206973207A65 PUSH1 0x0 DUP3 ADD MSTORE PUSH32 0x726F206164647265737300000000000000000000000000000000000000000000 PUSH1 0x20 DUP3 ADD MSTORE POP JUMP JUMPDEST PUSH1 0x0 PUSH3 0x28B PUSH1 0x2A DUP4 PUSH3 0x21C JUMP JUMPDEST SWAP2 POP PUSH3 0x298 DUP3 PUSH3 0x22D JUMP JUMPDEST PUSH1 0x40 DUP3 ADD SWAP1 POP SWAP2 SWAP1 POP JUMP JUMPDEST PUSH1 0x0 PUSH1 0x20 DUP3 ADD SWAP1 POP DUP2 DUP2 SUB PUSH1 0x0 DUP4 ADD MSTORE PUSH3 0x2BE DUP2 PUSH3 0x27C JUMP JUMPDEST SWAP1 POP SWAP2 SWAP1 POP JUMP JUMPDEST PUSH1 0x80 MLOAD PUSH1 0xA0 MLOAD PUSH1 0xC0 MLOAD PUSH2 0x12C8 PUSH3 0x2F5 PUSH1 0x0 CODECOPY PUSH1 0x0 PUSH2 0x2E0 ADD MSTORE PUSH1 0x0 PUSH2 0x5A8 ADD MSTORE PUSH1 0x0 PUSH2 0x3F9 ADD MSTORE PUSH2 0x12C8 PUSH1 0x0 RETURN INVALID PUSH1 0x80 PUSH1 0x40 MSTORE PUSH1 0x4 CALLDATASIZE LT PUSH2 0xA0 JUMPI PUSH1 0x0 CALLDATALOAD PUSH1 0xE0 SHR DUP1 PUSH4 0x86D1A69F GT PUSH2 0x64 JUMPI DUP1 PUSH4 0x86D1A69F EQ PUSH2 0x1A5 JUMPI DUP1 PUSH4 0x96132521 EQ PUSH2 0x1BC JUMPI DUP1 PUSH4 0x9852595C EQ PUSH2 0x1E7 JUMPI DUP1 PUSH4 0xA3F8EACE EQ PUSH2 0x224 JUMPI DUP1 PUSH4 0xBE9A6555 EQ PUSH2 0x261 JUMPI DUP1 PUSH4 0xFBCCEDAE EQ PUSH2 0x28C JUMPI PUSH2 0xA7 JUMP JUMPDEST DUP1 PUSH4 0xA17B06B EQ PUSH2 0xAC JUMPI DUP1 PUSH4 0xFB5A6B4 EQ PUSH2 0xE9 JUMPI DUP1 PUSH4 0x19165587 EQ PUSH2 0x114 JUMPI DUP1 PUSH4 0x38AF3EED EQ PUSH2 0x13D JUMPI DUP1 PUSH4 0x810EC23B EQ PUSH2 0x168 JUMPI PUSH2 0xA7 JUMP JUMPDEST CALLDATASIZE PUSH2 0xA7 JUMPI STOP JUMPDEST PUSH1 0x0 DUP1 REVERT JUMPDEST CALLVALUE DUP1 ISZERO PUSH2 0xB8 JUMPI PUSH1 0x0 DUP1 REVERT JUMPDEST POP PUSH2 0xD3 PUSH1 0x4 DUP1 CALLDATASIZE SUB DUP2 ADD SWAP1 PUSH2 0xCE SWAP2 SWAP1 PUSH2 0xB00 JUMP JUMPDEST PUSH2 0x2B7 JUMP JUMPDEST PUSH1 0x40 MLOAD PUSH2 0xE0 SWAP2 SWAP1 PUSH2 0xB46 JUMP JUMPDEST PUSH1 0x40 MLOAD DUP1 SWAP2 SUB SWAP1 RETURN JUMPDEST CALLVALUE DUP1 ISZERO PUSH2 0xF5 JUMPI PUSH1 0x0 DUP1 REVERT JUMPDEST POP PUSH2 0xFE PUSH2 0x2DC JUMP JUMPDEST PUSH1 0x40 MLOAD PUSH2 0x10B SWAP2 SWAP1 PUSH2 0xB46 JUMP JUMPDEST PUSH1 0x40 MLOAD DUP1 SWAP2 SUB SWAP1 RETURN JUMPDEST CALLVALUE DUP1 ISZERO PUSH2 0x120 JUMPI PUSH1 0x0 DUP1 REVERT JUMPDEST POP PUSH2 0x13B PUSH1 0x4 DUP1 CALLDATASIZE SUB DUP2 ADD SWAP1 PUSH2 0x136 SWAP2 SWAP1 PUSH2 0xBBF JUMP JUMPDEST PUSH2 0x30E JUMP JUMPDEST STOP JUMPDEST CALLVALUE DUP1 ISZERO PUSH2 0x149 JUMPI PUSH1 0x0 DUP1 REVERT JUMPDEST POP PUSH2 0x152 PUSH2 0x3F5 JUMP JUMPDEST PUSH1 0x40 MLOAD PUSH2 0x15F SWAP2 SWAP1 PUSH2 0xBFB JUMP JUMPDEST PUSH1 0x40 MLOAD DUP1 SWAP2 SUB SWAP1 RETURN JUMPDEST CALLVALUE DUP1 ISZERO PUSH2 0x174 JUMPI PUSH1 0x0 DUP1 REVERT JUMPDEST POP PUSH2 0x18F PUSH1 0x4 DUP1 CALLDATASIZE SUB DUP2 ADD SWAP1 PUSH2 0x18A SWAP2 SWAP1 PUSH2 0xC16 JUMP JUMPDEST PUSH2 0x41D JUMP JUMPDEST PUSH1 0x40 MLOAD PUSH2 0x19C SWAP2 SWAP1 PUSH2 0xB46 JUMP JUMPDEST PUSH1 0x40 MLOAD DUP1 SWAP2 SUB SWAP1 RETURN JUMPDEST CALLVALUE DUP1 ISZERO PUSH2 0x1B1 JUMPI PUSH1 0x0 DUP1 REVERT JUMPDEST POP PUSH2 0x1BA PUSH2 0x4BD JUMP JUMPDEST STOP JUMPDEST CALLVALUE DUP1 ISZERO PUSH2 0x1C8 JUMPI PUSH1 0x0 DUP1 REVERT JUMPDEST POP PUSH2 0x1D1 PUSH2 0x52C JUMP JUMPDEST PUSH1 0x40 MLOAD PUSH2 0x1DE SWAP2 SWAP1 PUSH2 0xB46 JUMP JUMPDEST PUSH1 0x40 MLOAD DUP1 SWAP2 SUB SWAP1 RETURN JUMPDEST CALLVALUE DUP1 ISZERO PUSH2 0x1F3 JUMPI PUSH1 0x0 DUP1 REVERT JUMPDEST POP PUSH2 0x20E PUSH1 0x4 DUP1 CALLDATASIZE SUB DUP2 ADD SWAP1 PUSH2 0x209 SWAP2 SWAP1 PUSH2 0xBBF JUMP JUMPDEST PUSH2 0x535 JUMP JUMPDEST PUSH1 0x40 MLOAD PUSH2 0x21B SWAP2 SWAP1 PUSH2 0xB46 JUMP JUMPDEST PUSH1 0x40 MLOAD DUP1 SWAP2 SUB SWAP1 RETURN JUMPDEST CALLVALUE DUP1 ISZERO PUSH2 0x230 JUMPI PUSH1 0x0 DUP1 REVERT JUMPDEST POP PUSH2 0x24B PUSH1 0x4 DUP1 CALLDATASIZE SUB DUP2 ADD SWAP1 PUSH2 0x246 SWAP2 SWAP1 PUSH2 0xBBF JUMP JUMPDEST PUSH2 0x57E JUMP JUMPDEST PUSH1 0x40 MLOAD PUSH2 0x258 SWAP2 SWAP1 PUSH2 0xB46 JUMP JUMPDEST PUSH1 0x40 MLOAD DUP1 SWAP2 SUB SWAP1 RETURN JUMPDEST CALLVALUE DUP1 ISZERO PUSH2 0x26D JUMPI PUSH1 0x0 DUP1 REVERT JUMPDEST POP PUSH2 0x276 PUSH2 0x5A4 JUMP JUMPDEST PUSH1 0x40 MLOAD PUSH2 0x283 SWAP2 SWAP1 PUSH2 0xB46 JUMP JUMPDEST PUSH1 0x40 MLOAD DUP1 SWAP2 SUB SWAP1 RETURN JUMPDEST CALLVALUE DUP1 ISZERO PUSH2 0x298 JUMPI PUSH1 0x0 DUP1 REVERT JUMPDEST POP PUSH2 0x2A1 PUSH2 0x5D6 JUMP JUMPDEST PUSH1 0x40 MLOAD PUSH2 0x2AE SWAP2 SWAP1 PUSH2 0xB46 JUMP JUMPDEST PUSH1 0x40 MLOAD DUP1 SWAP2 SUB SWAP1 RETURN JUMPDEST PUSH1 0x0 PUSH2 0x2D5 PUSH2 0x2C4 PUSH2 0x52C JUMP JUMPDEST SELFBALANCE PUSH2 0x2CF SWAP2 SWAP1 PUSH2 0xC85 JUMP JUMPDEST DUP4 PUSH2 0x5F8 JUMP JUMPDEST SWAP1 POP SWAP2 SWAP1 POP JUMP JUMPDEST PUSH1 0x0 PUSH32 0x0 PUSH8 0xFFFFFFFFFFFFFFFF AND SWAP1 POP SWAP1 JUMP JUMPDEST PUSH1 0x0 PUSH2 0x319 DUP3 PUSH2 0x57E JUMP JUMPDEST SWAP1 POP PUSH1 0x2 SLOAD PUSH2 0x326 PUSH2 0x692 JUMP JUMPDEST GT ISZERO PUSH2 0x3F1 JUMPI PUSH2 0x334 PUSH2 0x692 JUMP JUMPDEST PUSH1 0x2 DUP2 SWAP1 SSTORE POP DUP1 PUSH1 0x1 PUSH1 0x0 DUP5 PUSH20 0xFFFFFFFFFFFFFFFFFFFFFFFFFFFFFFFFFFFFFFFF AND PUSH20 0xFFFFFFFFFFFFFFFFFFFFFFFFFFFFFFFFFFFFFFFF AND DUP2 MSTORE PUSH1 0x20 ADD SWAP1 DUP2 MSTORE PUSH1 0x20 ADD PUSH1 0x0 KECCAK256 PUSH1 0x0 DUP3 DUP3 SLOAD PUSH2 0x389 SWAP2 SWAP1 PUSH2 0xC85 JUMP JUMPDEST SWAP3 POP POP DUP2 SWAP1 SSTORE POP DUP2 PUSH20 0xFFFFFFFFFFFFFFFFFFFFFFFFFFFFFFFFFFFFFFFF AND PUSH32 0xC0E523490DD523C33B1878C9EB14FF46991E3F5B2CD33710918618F2A39CBA1B DUP3 PUSH1 0x40 MLOAD PUSH2 0x3D6 SWAP2 SWAP1 PUSH2 0xB46 JUMP JUMPDEST PUSH1 0x40 MLOAD DUP1 SWAP2 SUB SWAP1 LOG2 PUSH2 0x3F0 DUP3 PUSH2 0x3EA PUSH2 0x3F5 JUMP JUMPDEST DUP4 PUSH2 0x6C4 JUMP JUMPDEST JUMPDEST POP POP JUMP JUMPDEST PUSH1 0x0 PUSH32 0x0 SWAP1 POP SWAP1 JUMP JUMPDEST PUSH1 0x0 PUSH2 0x4B5 PUSH2 0x42B DUP5 PUSH2 0x535 JUMP JUMPDEST DUP5 PUSH20 0xFFFFFFFFFFFFFFFFFFFFFFFFFFFFFFFFFFFFFFFF AND PUSH4 0x70A08231 ADDRESS PUSH1 0x40 MLOAD DUP3 PUSH4 0xFFFFFFFF AND PUSH1 0xE0 SHL DUP2 MSTORE PUSH1 0x4 ADD PUSH2 0x464 SWAP2 SWAP1 PUSH2 0xBFB JUMP JUMPDEST PUSH1 0x20 PUSH1 0x40 MLOAD DUP1 DUP4 SUB DUP2 DUP7 GAS STATICCALL ISZERO DUP1 ISZERO PUSH2 0x481 JUMPI RETURNDATASIZE PUSH1 0x0 DUP1 RETURNDATACOPY RETURNDATASIZE PUSH1 0x0 REVERT JUMPDEST POP POP POP POP PUSH1 0x40 MLOAD RETURNDATASIZE PUSH1 0x1F NOT PUSH1 0x1F DUP3 ADD AND DUP3 ADD DUP1 PUSH1 0x40 MSTORE POP DUP2 ADD SWAP1 PUSH2 0x4A5 SWAP2 SWAP1 PUSH2 0xD07 JUMP JUMPDEST PUSH2 0x4AF SWAP2 SWAP1 PUSH2 0xC85 JUMP JUMPDEST DUP4 PUSH2 0x5F8 JUMP JUMPDEST SWAP1 POP SWAP3 SWAP2 POP POP JUMP JUMPDEST PUSH1 0x0 PUSH2 0x4C7 PUSH2 0x5D6 JUMP JUMPDEST SWAP1 POP DUP1 PUSH1 0x0 DUP1 DUP3 DUP3 SLOAD PUSH2 0x4DA SWAP2 SWAP1 PUSH2 0xC85 JUMP JUMPDEST SWAP3 POP POP DUP2 SWAP1 SSTORE POP PUSH32 0xDA9D4E5F101B8B9B1C5B76D0C5A9F7923571ACFC02376AA076B75A8C080C956B DUP2 PUSH1 0x40 MLOAD PUSH2 0x510 SWAP2 SWAP1 PUSH2 0xB46 JUMP JUMPDEST PUSH1 0x40 MLOAD DUP1 SWAP2 SUB SWAP1 LOG1 PUSH2 0x529 PUSH2 0x523 PUSH2 0x3F5 JUMP JUMPDEST DUP3 PUSH2 0x74A JUMP JUMPDEST POP JUMP JUMPDEST PUSH1 0x0 DUP1 SLOAD SWAP1 POP SWAP1 JUMP JUMPDEST PUSH1 0x0 PUSH1 0x1 PUSH1 0x0 DUP4 PUSH20 0xFFFFFFFFFFFFFFFFFFFFFFFFFFFFFFFFFFFFFFFF AND PUSH20 0xFFFFFFFFFFFFFFFFFFFFFFFFFFFFFFFFFFFFFFFF AND DUP2 MSTORE PUSH1 0x20 ADD SWAP1 DUP2 MSTORE PUSH1 0x20 ADD PUSH1 0x0 KECCAK256 SLOAD SWAP1 POP SWAP2 SWAP1 POP JUMP JUMPDEST PUSH1 0x0 PUSH2 0x589 DUP3 PUSH2 0x535 JUMP JUMPDEST PUSH2 0x593 DUP4 TIMESTAMP PUSH2 0x41D JUMP JUMPDEST PUSH2 0x59D SWAP2 SWAP1 PUSH2 0xD34 JUMP JUMPDEST SWAP1 POP SWAP2 SWAP1 POP JUMP JUMPDEST PUSH1 0x0 PUSH32 0x0 PUSH8 0xFFFFFFFFFFFFFFFF AND SWAP1 POP SWAP1 JUMP JUMPDEST PUSH1 0x0 PUSH2 0x5E0 PUSH2 0x52C JUMP JUMPDEST PUSH2 0x5E9 TIMESTAMP PUSH2 0x2B7 JUMP JUMPDEST PUSH2 0x5F3 SWAP2 SWAP1 PUSH2 0xD34 JUMP JUMPDEST SWAP1 POP SWAP1 JUMP JUMPDEST PUSH1 0x0 PUSH2 0x602 PUSH2 0x5A4 JUMP JUMPDEST DUP3 PUSH8 0xFFFFFFFFFFFFFFFF AND LT ISZERO PUSH2 0x61C JUMPI PUSH1 0x0 SWAP1 POP PUSH2 0x68C JUMP JUMPDEST PUSH2 0x624 PUSH2 0x2DC JUMP JUMPDEST PUSH2 0x62C PUSH2 0x5A4 JUMP JUMPDEST PUSH2 0x636 SWAP2 SWAP1 PUSH2 0xC85 JUMP JUMPDEST DUP3 PUSH8 0xFFFFFFFFFFFFFFFF AND GT ISZERO PUSH2 0x64F JUMPI DUP3 SWAP1 POP PUSH2 0x68C JUMP JUMPDEST PUSH2 0x657 PUSH2 0x2DC JUMP JUMPDEST PUSH2 0x65F PUSH2 0x5A4 JUMP JUMPDEST DUP4 PUSH8 0xFFFFFFFFFFFFFFFF AND PUSH2 0x674 SWAP2 SWAP1 PUSH2 0xD34 JUMP JUMPDEST DUP5 PUSH2 0x67F SWAP2 SWAP1 PUSH2 0xD68 JUMP JUMPDEST PUSH2 0x689 SWAP2 SWAP1 PUSH2 0xDF1 JUMP JUMPDEST SWAP1 POP JUMPDEST SWAP3 SWAP2 POP POP JUMP JUMPDEST PUSH1 0x0 PUSH3 0x278D00 PUSH2 0x6A0 PUSH2 0x5A4 JUMP JUMPDEST TIMESTAMP PUSH8 0xFFFFFFFFFFFFFFFF AND PUSH2 0x6B5 SWAP2 SWAP1 PUSH2 0xD34 JUMP JUMPDEST PUSH2 0x6BF SWAP2 SWAP1 PUSH2 0xDF1 JUMP JUMPDEST SWAP1 POP SWAP1 JUMP JUMPDEST PUSH2 0x745 DUP4 PUSH4 0xA9059CBB PUSH1 0xE0 SHL DUP5 DUP5 PUSH1 0x40 MLOAD PUSH1 0x24 ADD PUSH2 0x6E3 SWAP3 SWAP2 SWAP1 PUSH2 0xE22 JUMP JUMPDEST PUSH1 0x40 MLOAD PUSH1 0x20 DUP2 DUP4 SUB SUB DUP2 MSTORE SWAP1 PUSH1 0x40 MSTORE SWAP1 PUSH28 0xFFFFFFFFFFFFFFFFFFFFFFFFFFFFFFFFFFFFFFFFFFFFFFFFFFFFFFFF NOT AND PUSH1 0x20 DUP3 ADD DUP1 MLOAD PUSH28 0xFFFFFFFFFFFFFFFFFFFFFFFFFFFFFFFFFFFFFFFFFFFFFFFFFFFFFFFF DUP4 DUP2 DUP4 AND OR DUP4 MSTORE POP POP POP POP PUSH2 0x83E JUMP JUMPDEST POP POP POP JUMP JUMPDEST DUP1 SELFBALANCE LT ISZERO PUSH2 0x78D JUMPI PUSH1 0x40 MLOAD PUSH32 0x8C379A000000000000000000000000000000000000000000000000000000000 DUP2 MSTORE PUSH1 0x4 ADD PUSH2 0x784 SWAP1 PUSH2 0xEA8 JUMP JUMPDEST PUSH1 0x40 MLOAD DUP1 SWAP2 SUB SWAP1 REVERT JUMPDEST PUSH1 0x0 DUP3 PUSH20 0xFFFFFFFFFFFFFFFFFFFFFFFFFFFFFFFFFFFFFFFF AND DUP3 PUSH1 0x40 MLOAD PUSH2 0x7B3 SWAP1 PUSH2 0xEF9 JUMP JUMPDEST PUSH1 0x0 PUSH1 0x40 MLOAD DUP1 DUP4 SUB DUP2 DUP6 DUP8 GAS CALL SWAP3 POP POP POP RETURNDATASIZE DUP1 PUSH1 0x0 DUP2 EQ PUSH2 0x7F0 JUMPI PUSH1 0x40 MLOAD SWAP2 POP PUSH1 0x1F NOT PUSH1 0x3F RETURNDATASIZE ADD AND DUP3 ADD PUSH1 0x40 MSTORE RETURNDATASIZE DUP3 MSTORE RETURNDATASIZE PUSH1 0x0 PUSH1 0x20 DUP5 ADD RETURNDATACOPY PUSH2 0x7F5 JUMP JUMPDEST PUSH1 0x60 SWAP2 POP JUMPDEST POP POP SWAP1 POP DUP1 PUSH2 0x839 JUMPI PUSH1 0x40 MLOAD PUSH32 0x8C379A000000000000000000000000000000000000000000000000000000000 DUP2 MSTORE PUSH1 0x4 ADD PUSH2 0x830 SWAP1 PUSH2 0xF80 JUMP JUMPDEST PUSH1 0x40 MLOAD DUP1 SWAP2 SUB SWAP1 REVERT JUMPDEST POP POP POP JUMP JUMPDEST PUSH1 0x0 PUSH2 0x8A0 DUP3 PUSH1 0x40 MLOAD DUP1 PUSH1 0x40 ADD PUSH1 0x40 MSTORE DUP1 PUSH1 0x20 DUP2 MSTORE PUSH1 0x20 ADD PUSH32 0x5361666545524332303A206C6F772D6C6576656C2063616C6C206661696C6564 DUP2 MSTORE POP DUP6 PUSH20 0xFFFFFFFFFFFFFFFFFFFFFFFFFFFFFFFFFFFFFFFF AND PUSH2 0x905 SWAP1 SWAP3 SWAP2 SWAP1 PUSH4 0xFFFFFFFF AND JUMP JUMPDEST SWAP1 POP PUSH1 0x0 DUP2 MLOAD GT ISZERO PUSH2 0x900 JUMPI DUP1 DUP1 PUSH1 0x20 ADD SWAP1 MLOAD DUP2 ADD SWAP1 PUSH2 0x8C0 SWAP2 SWAP1 PUSH2 0xFD8 JUMP JUMPDEST PUSH2 0x8FF JUMPI PUSH1 0x40 MLOAD PUSH32 0x8C379A000000000000000000000000000000000000000000000000000000000 DUP2 MSTORE PUSH1 0x4 ADD PUSH2 0x8F6 SWAP1 PUSH2 0x1077 JUMP JUMPDEST PUSH1 0x40 MLOAD DUP1 SWAP2 SUB SWAP1 REVERT JUMPDEST JUMPDEST POP POP POP JUMP JUMPDEST PUSH1 0x60 PUSH2 0x914 DUP5 DUP5 PUSH1 0x0 DUP6 PUSH2 0x91D JUMP JUMPDEST SWAP1 POP SWAP4 SWAP3 POP POP POP JUMP JUMPDEST PUSH1 0x60 DUP3 SELFBALANCE LT ISZERO PUSH2 0x962 JUMPI PUSH1 0x40 MLOAD PUSH32 0x8C379A000000000000000000000000000000000000000000000000000000000 DUP2 MSTORE PUSH1 0x4 ADD PUSH2 0x959 SWAP1 PUSH2 0x1109 JUMP JUMPDEST PUSH1 0x40 MLOAD DUP1 SWAP2 SUB SWAP1 REVERT JUMPDEST PUSH2 0x96B DUP6 PUSH2 0xA31 JUMP JUMPDEST PUSH2 0x9AA JUMPI PUSH1 0x40 MLOAD PUSH32 0x8C379A000000000000000000000000000000000000000000000000000000000 DUP2 MSTORE PUSH1 0x4 ADD PUSH2 0x9A1 SWAP1 PUSH2 0x1175 JUMP JUMPDEST PUSH1 0x40 MLOAD DUP1 SWAP2 SUB SWAP1 REVERT JUMPDEST PUSH1 0x0 DUP1 DUP7 PUSH20 0xFFFFFFFFFFFFFFFFFFFFFFFFFFFFFFFFFFFFFFFF AND DUP6 DUP8 PUSH1 0x40 MLOAD PUSH2 0x9D3 SWAP2 SWAP1 PUSH2 0x1204 JUMP JUMPDEST PUSH1 0x0 PUSH1 0x40 MLOAD DUP1 DUP4 SUB DUP2 DUP6 DUP8 GAS CALL SWAP3 POP POP POP RETURNDATASIZE DUP1 PUSH1 0x0 DUP2 EQ PUSH2 0xA10 JUMPI PUSH1 0x40 MLOAD SWAP2 POP PUSH1 0x1F NOT PUSH1 0x3F RETURNDATASIZE ADD AND DUP3 ADD PUSH1 0x40 MSTORE RETURNDATASIZE DUP3 MSTORE RETURNDATASIZE PUSH1 0x0 PUSH1 0x20 DUP5 ADD RETURNDATACOPY PUSH2 0xA15 JUMP JUMPDEST PUSH1 0x60 SWAP2 POP JUMPDEST POP SWAP2 POP SWAP2 POP PUSH2 0xA25 DUP3 DUP3 DUP7 PUSH2 0xA54 JUMP JUMPDEST SWAP3 POP POP POP SWAP5 SWAP4 POP POP POP POP JUMP JUMPDEST PUSH1 0x0 DUP1 DUP3 PUSH20 0xFFFFFFFFFFFFFFFFFFFFFFFFFFFFFFFFFFFFFFFF AND EXTCODESIZE GT SWAP1 POP SWAP2 SWAP1 POP JUMP JUMPDEST PUSH1 0x60 DUP4 ISZERO PUSH2 0xA64 JUMPI DUP3 SWAP1 POP PUSH2 0xAB4 JUMP JUMPDEST PUSH1 0x0 DUP4 MLOAD GT ISZERO PUSH2 0xA77 JUMPI DUP3 MLOAD DUP1 DUP5 PUSH1 0x20 ADD REVERT JUMPDEST DUP2 PUSH1 0x40 MLOAD PUSH32 0x8C379A000000000000000000000000000000000000000000000000000000000 DUP2 MSTORE PUSH1 0x4 ADD PUSH2 0xAAB SWAP2 SWAP1 PUSH2 0x1270 JUMP JUMPDEST PUSH1 0x40 MLOAD DUP1 SWAP2 SUB SWAP1 REVERT JUMPDEST SWAP4 SWAP3 POP POP POP JUMP JUMPDEST PUSH1 0x0 DUP1 REVERT JUMPDEST PUSH1 0x0 PUSH8 0xFFFFFFFFFFFFFFFF DUP3 AND SWAP1 POP SWAP2 SWAP1 POP JUMP JUMPDEST PUSH2 0xADD DUP2 PUSH2 0xAC0 JUMP JUMPDEST DUP2 EQ PUSH2 0xAE8 JUMPI PUSH1 0x0 DUP1 REVERT JUMPDEST POP JUMP JUMPDEST PUSH1 0x0 DUP2 CALLDATALOAD SWAP1 POP PUSH2 0xAFA DUP2 PUSH2 0xAD4 JUMP JUMPDEST SWAP3 SWAP2 POP POP JUMP JUMPDEST PUSH1 0x0 PUSH1 0x20 DUP3 DUP5 SUB SLT ISZERO PUSH2 0xB16 JUMPI PUSH2 0xB15 PUSH2 0xABB JUMP JUMPDEST JUMPDEST PUSH1 0x0 PUSH2 0xB24 DUP5 DUP3 DUP6 ADD PUSH2 0xAEB JUMP JUMPDEST SWAP2 POP POP SWAP3 SWAP2 POP POP JUMP JUMPDEST PUSH1 0x0 DUP2 SWAP1 POP SWAP2 SWAP1 POP JUMP JUMPDEST PUSH2 0xB40 DUP2 PUSH2 0xB2D JUMP JUMPDEST DUP3 MSTORE POP POP JUMP JUMPDEST PUSH1 0x0 PUSH1 0x20 DUP3 ADD SWAP1 POP PUSH2 0xB5B PUSH1 0x0 DUP4 ADD DUP5 PUSH2 0xB37 JUMP JUMPDEST SWAP3 SWAP2 POP POP JUMP JUMPDEST PUSH1 0x0 PUSH20 0xFFFFFFFFFFFFFFFFFFFFFFFFFFFFFFFFFFFFFFFF DUP3 AND SWAP1 POP SWAP2 SWAP1 POP JUMP JUMPDEST PUSH1 0x0 PUSH2 0xB8C DUP3 PUSH2 0xB61 JUMP JUMPDEST SWAP1 POP SWAP2 SWAP1 POP JUMP JUMPDEST PUSH2 0xB9C DUP2 PUSH2 0xB81 JUMP JUMPDEST DUP2 EQ PUSH2 0xBA7 JUMPI PUSH1 0x0 DUP1 REVERT JUMPDEST POP JUMP JUMPDEST PUSH1 0x0 DUP2 CALLDATALOAD SWAP1 POP PUSH2 0xBB9 DUP2 PUSH2 0xB93 JUMP JUMPDEST SWAP3 SWAP2 POP POP JUMP JUMPDEST PUSH1 0x0 PUSH1 0x20 DUP3 DUP5 SUB SLT ISZERO PUSH2 0xBD5 JUMPI PUSH2 0xBD4 PUSH2 0xABB JUMP JUMPDEST JUMPDEST PUSH1 0x0 PUSH2 0xBE3 DUP5 DUP3 DUP6 ADD PUSH2 0xBAA JUMP JUMPDEST SWAP2 POP POP SWAP3 SWAP2 POP POP JUMP JUMPDEST PUSH2 0xBF5 DUP2 PUSH2 0xB81 JUMP JUMPDEST DUP3 MSTORE POP POP JUMP JUMPDEST PUSH1 0x0 PUSH1 0x20 DUP3 ADD SWAP1 POP PUSH2 0xC10 PUSH1 0x0 DUP4 ADD DUP5 PUSH2 0xBEC JUMP JUMPDEST SWAP3 SWAP2 POP POP JUMP JUMPDEST PUSH1 0x0 DUP1 PUSH1 0x40 DUP4 DUP6 SUB SLT ISZERO PUSH2 0xC2D JUMPI PUSH2 0xC2C PUSH2 0xABB JUMP JUMPDEST JUMPDEST PUSH1 0x0 PUSH2 0xC3B DUP6 DUP3 DUP7 ADD PUSH2 0xBAA JUMP JUMPDEST SWAP3 POP POP PUSH1 0x20 PUSH2 0xC4C DUP6 DUP3 DUP7 ADD PUSH2 0xAEB JUMP JUMPDEST SWAP2 POP POP SWAP3 POP SWAP3 SWAP1 POP JUMP JUMPDEST PUSH32 0x4E487B7100000000000000000000000000000000000000000000000000000000 PUSH1 0x0 MSTORE PUSH1 0x11 PUSH1 0x4 MSTORE PUSH1 0x24 PUSH1 0x0 REVERT JUMPDEST PUSH1 0x0 PUSH2 0xC90 DUP3 PUSH2 0xB2D JUMP JUMPDEST SWAP2 POP PUSH2 0xC9B DUP4 PUSH2 0xB2D JUMP JUMPDEST SWAP3 POP DUP3 PUSH32 0xFFFFFFFFFFFFFFFFFFFFFFFFFFFFFFFFFFFFFFFFFFFFFFFFFFFFFFFFFFFFFFFF SUB DUP3 GT ISZERO PUSH2 0xCD0 JUMPI PUSH2 0xCCF PUSH2 0xC56 JUMP JUMPDEST JUMPDEST DUP3 DUP3 ADD SWAP1 POP SWAP3 SWAP2 POP POP JUMP JUMPDEST PUSH2 0xCE4 DUP2 PUSH2 0xB2D JUMP JUMPDEST DUP2 EQ PUSH2 0xCEF JUMPI PUSH1 0x0 DUP1 REVERT JUMPDEST POP JUMP JUMPDEST PUSH1 0x0 DUP2 MLOAD SWAP1 POP PUSH2 0xD01 DUP2 PUSH2 0xCDB JUMP JUMPDEST SWAP3 SWAP2 POP POP JUMP JUMPDEST PUSH1 0x0 PUSH1 0x20 DUP3 DUP5 SUB SLT ISZERO PUSH2 0xD1D JUMPI PUSH2 0xD1C PUSH2 0xABB JUMP JUMPDEST JUMPDEST PUSH1 0x0 PUSH2 0xD2B DUP5 DUP3 DUP6 ADD PUSH2 0xCF2 JUMP JUMPDEST SWAP2 POP POP SWAP3 SWAP2 POP POP JUMP JUMPDEST PUSH1 0x0 PUSH2 0xD3F DUP3 PUSH2 0xB2D JUMP JUMPDEST SWAP2 POP PUSH2 0xD4A DUP4 PUSH2 0xB2D JUMP JUMPDEST SWAP3 POP DUP3 DUP3 LT ISZERO PUSH2 0xD5D JUMPI PUSH2 0xD5C PUSH2 0xC56 JUMP JUMPDEST JUMPDEST DUP3 DUP3 SUB SWAP1 POP SWAP3 SWAP2 POP POP JUMP JUMPDEST PUSH1 0x0 PUSH2 0xD73 DUP3 PUSH2 0xB2D JUMP JUMPDEST SWAP2 POP PUSH2 0xD7E DUP4 PUSH2 0xB2D JUMP JUMPDEST SWAP3 POP DUP2 PUSH32 0xFFFFFFFFFFFFFFFFFFFFFFFFFFFFFFFFFFFFFFFFFFFFFFFFFFFFFFFFFFFFFFFF DIV DUP4 GT DUP3 ISZERO ISZERO AND ISZERO PUSH2 0xDB7 JUMPI PUSH2 0xDB6 PUSH2 0xC56 JUMP JUMPDEST JUMPDEST DUP3 DUP3 MUL SWAP1 POP SWAP3 SWAP2 POP POP JUMP JUMPDEST PUSH32 0x4E487B7100000000000000000000000000000000000000000000000000000000 PUSH1 0x0 MSTORE PUSH1 0x12 PUSH1 0x4 MSTORE PUSH1 0x24 PUSH1 0x0 REVERT JUMPDEST PUSH1 0x0 PUSH2 0xDFC DUP3 PUSH2 0xB2D JUMP JUMPDEST SWAP2 POP PUSH2 0xE07 DUP4 PUSH2 0xB2D JUMP JUMPDEST SWAP3 POP DUP3 PUSH2 0xE17 JUMPI PUSH2 0xE16 PUSH2 0xDC2 JUMP JUMPDEST JUMPDEST DUP3 DUP3 DIV SWAP1 POP SWAP3 SWAP2 POP POP JUMP JUMPDEST PUSH1 0x0 PUSH1 0x40 DUP3 ADD SWAP1 POP PUSH2 0xE37 PUSH1 0x0 DUP4 ADD DUP6 PUSH2 0xBEC JUMP JUMPDEST PUSH2 0xE44 PUSH1 0x20 DUP4 ADD DUP5 PUSH2 0xB37 JUMP JUMPDEST SWAP4 SWAP3 POP POP POP JUMP JUMPDEST PUSH1 0x0 DUP3 DUP3 MSTORE PUSH1 0x20 DUP3 ADD SWAP1 POP SWAP3 SWAP2 POP POP JUMP JUMPDEST PUSH32 0x416464726573733A20696E73756666696369656E742062616C616E6365000000 PUSH1 0x0 DUP3 ADD MSTORE POP JUMP JUMPDEST PUSH1 0x0 PUSH2 0xE92 PUSH1 0x1D DUP4 PUSH2 0xE4B JUMP JUMPDEST SWAP2 POP PUSH2 0xE9D DUP3 PUSH2 0xE5C JUMP JUMPDEST PUSH1 0x20 DUP3 ADD SWAP1 POP SWAP2 SWAP1 POP JUMP JUMPDEST PUSH1 0x0 PUSH1 0x20 DUP3 ADD SWAP1 POP DUP2 DUP2 SUB PUSH1 0x0 DUP4 ADD MSTORE PUSH2 0xEC1 DUP2 PUSH2 0xE85 JUMP JUMPDEST SWAP1 POP SWAP2 SWAP1 POP JUMP JUMPDEST PUSH1 0x0 DUP2 SWAP1 POP SWAP3 SWAP2 POP POP JUMP JUMPDEST POP JUMP JUMPDEST PUSH1 0x0 PUSH2 0xEE3 PUSH1 0x0 DUP4 PUSH2 0xEC8 JUMP JUMPDEST SWAP2 POP PUSH2 0xEEE DUP3 PUSH2 0xED3 JUMP JUMPDEST PUSH1 0x0 DUP3 ADD SWAP1 POP SWAP2 SWAP1 POP JUMP JUMPDEST PUSH1 0x0 PUSH2 0xF04 DUP3 PUSH2 0xED6 JUMP JUMPDEST SWAP2 POP DUP2 SWAP1 POP SWAP2 SWAP1 POP JUMP JUMPDEST PUSH32 0x416464726573733A20756E61626C6520746F2073656E642076616C75652C2072 PUSH1 0x0 DUP3 ADD MSTORE PUSH32 0x6563697069656E74206D61792068617665207265766572746564000000000000 PUSH1 0x20 DUP3 ADD MSTORE POP JUMP JUMPDEST PUSH1 0x0 PUSH2 0xF6A PUSH1 0x3A DUP4 PUSH2 0xE4B JUMP JUMPDEST SWAP2 POP PUSH2 0xF75 DUP3 PUSH2 0xF0E JUMP JUMPDEST PUSH1 0x40 DUP3 ADD SWAP1 POP SWAP2 SWAP1 POP JUMP JUMPDEST PUSH1 0x0 PUSH1 0x20 DUP3 ADD SWAP1 POP DUP2 DUP2 SUB PUSH1 0x0 DUP4 ADD MSTORE PUSH2 0xF99 DUP2 PUSH2 0xF5D JUMP JUMPDEST SWAP1 POP SWAP2 SWAP1 POP JUMP JUMPDEST PUSH1 0x0 DUP2 ISZERO ISZERO SWAP1 POP SWAP2 SWAP1 POP JUMP JUMPDEST PUSH2 0xFB5 DUP2 PUSH2 0xFA0 JUMP JUMPDEST DUP2 EQ PUSH2 0xFC0 JUMPI PUSH1 0x0 DUP1 REVERT JUMPDEST POP JUMP JUMPDEST PUSH1 0x0 DUP2 MLOAD SWAP1 POP PUSH2 0xFD2 DUP2 PUSH2 0xFAC JUMP JUMPDEST SWAP3 SWAP2 POP POP JUMP JUMPDEST PUSH1 0x0 PUSH1 0x20 DUP3 DUP5 SUB SLT ISZERO PUSH2 0xFEE JUMPI PUSH2 0xFED PUSH2 0xABB JUMP JUMPDEST JUMPDEST PUSH1 0x0 PUSH2 0xFFC DUP5 DUP3 DUP6 ADD PUSH2 0xFC3 JUMP JUMPDEST SWAP2 POP POP SWAP3 SWAP2 POP POP JUMP JUMPDEST PUSH32 0x5361666545524332303A204552433230206F7065726174696F6E20646964206E PUSH1 0x0 DUP3 ADD MSTORE PUSH32 0x6F74207375636365656400000000000000000000000000000000000000000000 PUSH1 0x20 DUP3 ADD MSTORE POP JUMP JUMPDEST PUSH1 0x0 PUSH2 0x1061 PUSH1 0x2A DUP4 PUSH2 0xE4B JUMP JUMPDEST SWAP2 POP PUSH2 0x106C DUP3 PUSH2 0x1005 JUMP JUMPDEST PUSH1 0x40 DUP3 ADD SWAP1 POP SWAP2 SWAP1 POP JUMP JUMPDEST PUSH1 0x0 PUSH1 0x20 DUP3 ADD SWAP1 POP DUP2 DUP2 SUB PUSH1 0x0 DUP4 ADD MSTORE PUSH2 0x1090 DUP2 PUSH2 0x1054 JUMP JUMPDEST SWAP1 POP SWAP2 SWAP1 POP JUMP JUMPDEST PUSH32 0x416464726573733A20696E73756666696369656E742062616C616E636520666F PUSH1 0x0 DUP3 ADD MSTORE PUSH32 0x722063616C6C0000000000000000000000000000000000000000000000000000 PUSH1 0x20 DUP3 ADD MSTORE POP JUMP JUMPDEST PUSH1 0x0 PUSH2 0x10F3 PUSH1 0x26 DUP4 PUSH2 0xE4B JUMP JUMPDEST SWAP2 POP PUSH2 0x10FE DUP3 PUSH2 0x1097 JUMP JUMPDEST PUSH1 0x40 DUP3 ADD SWAP1 POP SWAP2 SWAP1 POP JUMP JUMPDEST PUSH1 0x0 PUSH1 0x20 DUP3 ADD SWAP1 POP DUP2 DUP2 SUB PUSH1 0x0 DUP4 ADD MSTORE PUSH2 0x1122 DUP2 PUSH2 0x10E6 JUMP JUMPDEST SWAP1 POP SWAP2 SWAP1 POP JUMP JUMPDEST PUSH32 0x416464726573733A2063616C6C20746F206E6F6E2D636F6E7472616374000000 PUSH1 0x0 DUP3 ADD MSTORE POP JUMP JUMPDEST PUSH1 0x0 PUSH2 0x115F PUSH1 0x1D DUP4 PUSH2 0xE4B JUMP JUMPDEST SWAP2 POP PUSH2 0x116A DUP3 PUSH2 0x1129 JUMP JUMPDEST PUSH1 0x20 DUP3 ADD SWAP1 POP SWAP2 SWAP1 POP JUMP JUMPDEST PUSH1 0x0 PUSH1 0x20 DUP3 ADD SWAP1 POP DUP2 DUP2 SUB PUSH1 0x0 DUP4 ADD MSTORE PUSH2 0x118E DUP2 PUSH2 0x1152 JUMP JUMPDEST SWAP1 POP SWAP2 SWAP1 POP JUMP JUMPDEST PUSH1 0x0 DUP2 MLOAD SWAP1 POP SWAP2 SWAP1 POP JUMP JUMPDEST PUSH1 0x0 JUMPDEST DUP4 DUP2 LT ISZERO PUSH2 0x11BE JUMPI DUP1 DUP3 ADD MLOAD DUP2 DUP5 ADD MSTORE PUSH1 0x20 DUP2 ADD SWAP1 POP PUSH2 0x11A3 JUMP JUMPDEST DUP4 DUP2 GT ISZERO PUSH2 0x11CD JUMPI PUSH1 0x0 DUP5 DUP5 ADD MSTORE JUMPDEST POP POP POP POP JUMP JUMPDEST PUSH1 0x0 PUSH2 0x11DE DUP3 PUSH2 0x1195 JUMP JUMPDEST PUSH2 0x11E8 DUP2 DUP6 PUSH2 0xEC8 JUMP JUMPDEST SWAP4 POP PUSH2 0x11F8 DUP2 DUP6 PUSH1 0x20 DUP7 ADD PUSH2 0x11A0 JUMP JUMPDEST DUP1 DUP5 ADD SWAP2 POP POP SWAP3 SWAP2 POP POP JUMP JUMPDEST PUSH1 0x0 PUSH2 0x1210 DUP3 DUP5 PUSH2 0x11D3 JUMP JUMPDEST SWAP2 POP DUP2 SWAP1 POP SWAP3 SWAP2 POP POP JUMP JUMPDEST PUSH1 0x0 DUP2 MLOAD SWAP1 POP SWAP2 SWAP1 POP JUMP JUMPDEST PUSH1 0x0 PUSH1 0x1F NOT PUSH1 0x1F DUP4 ADD AND SWAP1 POP SWAP2 SWAP1 POP JUMP JUMPDEST PUSH1 0x0 PUSH2 0x1242 DUP3 PUSH2 0x121B JUMP JUMPDEST PUSH2 0x124C DUP2 DUP6 PUSH2 0xE4B JUMP JUMPDEST SWAP4 POP PUSH2 0x125C DUP2 DUP6 PUSH1 0x20 DUP7 ADD PUSH2 0x11A0 JUMP JUMPDEST PUSH2 0x1265 DUP2 PUSH2 0x1226 JUMP JUMPDEST DUP5 ADD SWAP2 POP POP SWAP3 SWAP2 POP POP JUMP JUMPDEST PUSH1 0x0 PUSH1 0x20 DUP3 ADD SWAP1 POP DUP2 DUP2 SUB PUSH1 0x0 DUP4 ADD MSTORE PUSH2 0x128A DUP2 DUP5 PUSH2 0x1237 JUMP JUMPDEST SWAP1 POP SWAP3 SWAP2 POP POP JUMP INVALID LOG2 PUSH5 0x6970667358 0x22 SLT KECCAK256 0xF9 0x5D 0xDA NOT 0xD2 SGT DUP12 XOR SWAP1 SMOD 0xE0 DUP6 DIFFICULTY BLOCKHASH DIV TIMESTAMP SWAP11 0xB2 0xFC CREATE LOG1 PUSH28 0xABAF8A97D16D38412B2364736F6C634300080B003300000000000000 "
				},
				"gasEstimates": {
					"creation": {
						"codeDepositCost": "961600",
						"executionCost": "infinite",
						"totalCost": "infinite"
					},
					"external": {
						"beneficiary()": "infinite",
						"duration()": "infinite",
						"releasable()": "infinite",
						"releasable(address)": "infinite",
						"release()": "infinite",
						"release(address)": "infinite",
						"released()": "2459",
						"released(address)": "2885",
						"start()": "infinite",
						"vestedAmount(address,uint64)": "infinite",
						"vestedAmount(uint64)": "infinite"
					},
					"internal": {
						"_currentMonth()": "infinite",
						"_vestingSchedule(uint256,uint64)": "infinite"
					}
				},
				"methodIdentifiers": {
					"beneficiary()": "38af3eed",
					"duration()": "0fb5a6b4",
					"releasable()": "fbccedae",
					"releasable(address)": "a3f8eace",
					"release()": "86d1a69f",
					"release(address)": "19165587",
					"released()": "96132521",
					"released(address)": "9852595c",
					"start()": "be9a6555",
					"vestedAmount(address,uint64)": "810ec23b",
					"vestedAmount(uint64)": "0a17b06b"
				}
			},
			"storageLayout": {
				"storage": [
					{
						"astId": 638,
						"contract": "contracts/VestingWallet.sol:VestingWallet",
						"label": "_released",
						"offset": 0,
						"slot": "0",
						"type": "t_uint256"
					},
					{
						"astId": 642,
						"contract": "contracts/VestingWallet.sol:VestingWallet",
						"label": "_erc20Released",
						"offset": 0,
						"slot": "1",
						"type": "t_mapping(t_address,t_uint256)"
					},
					{
						"astId": 650,
						"contract": "contracts/VestingWallet.sol:VestingWallet",
						"label": "lastMonth",
						"offset": 0,
						"slot": "2",
						"type": "t_uint256"
					}
				],
				"types": {
					"t_address": {
						"encoding": "inplace",
						"label": "address",
						"numberOfBytes": "20"
					},
					"t_mapping(t_address,t_uint256)": {
						"encoding": "mapping",
						"key": "t_address",
						"label": "mapping(address => uint256)",
						"numberOfBytes": "32",
						"value": "t_uint256"
					},
					"t_uint256": {
						"encoding": "inplace",
						"label": "uint256",
						"numberOfBytes": "32"
					}
				}
			},
			"userdoc": {
				"kind": "user",
				"methods": {},
				"version": 1
			}
		}
	}
}