{
	"contracts/Stakable.sol": {
		"Stakable": {
			"abi": [
				{
					"inputs": [],
					"stateMutability": "nonpayable",
					"type": "constructor"
				},
				{
					"anonymous": false,
					"inputs": [
						{
							"indexed": false,
							"internalType": "uint256",
							"name": "amount",
							"type": "uint256"
						}
					],
					"name": "AirdropChanged",
					"type": "event"
				},
				{
					"anonymous": false,
					"inputs": [
						{
							"indexed": false,
							"internalType": "uint256",
							"name": "amount",
							"type": "uint256"
						}
					],
					"name": "PenaltyChanged",
					"type": "event"
				},
				{
					"anonymous": false,
					"inputs": [
						{
							"indexed": true,
							"internalType": "address",
							"name": "user",
							"type": "address"
						},
						{
							"indexed": false,
							"internalType": "uint256",
							"name": "amount",
							"type": "uint256"
						},
						{
							"indexed": false,
							"internalType": "uint256",
							"name": "timestamp",
							"type": "uint256"
						},
						{
							"indexed": false,
							"internalType": "uint256",
							"name": "releaseTime",
							"type": "uint256"
						}
					],
					"name": "Staked",
					"type": "event"
				},
				{
					"inputs": [],
					"name": "airdropRate",
					"outputs": [
						{
							"internalType": "uint256",
							"name": "",
							"type": "uint256"
						}
					],
					"stateMutability": "view",
					"type": "function"
				},
				{
					"inputs": [],
					"name": "airdropSince",
					"outputs": [
						{
							"internalType": "uint256",
							"name": "",
							"type": "uint256"
						}
					],
					"stateMutability": "view",
					"type": "function"
				},
				{
					"inputs": [],
					"name": "airdropWeek",
					"outputs": [
						{
							"internalType": "uint256",
							"name": "",
							"type": "uint256"
						}
					],
					"stateMutability": "view",
					"type": "function"
				},
				{
					"inputs": [
						{
							"internalType": "address",
							"name": "_staker",
							"type": "address"
						}
					],
					"name": "hasStake",
					"outputs": [
						{
							"components": [
								{
									"internalType": "uint256",
									"name": "total_amount",
									"type": "uint256"
								},
								{
									"internalType": "uint256",
									"name": "penalty",
									"type": "uint256"
								},
								{
									"components": [
										{
											"internalType": "address",
											"name": "user",
											"type": "address"
										},
										{
											"internalType": "uint256",
											"name": "amount",
											"type": "uint256"
										},
										{
											"internalType": "uint256",
											"name": "since",
											"type": "uint256"
										},
										{
											"internalType": "uint256",
											"name": "claimable",
											"type": "uint256"
										},
										{
											"internalType": "uint256",
											"name": "claimable_airdrop",
											"type": "uint256"
										},
										{
											"internalType": "uint256",
											"name": "rewardAPY",
											"type": "uint256"
										},
										{
											"internalType": "uint256",
											"name": "releaseTime",
											"type": "uint256"
										}
									],
									"internalType": "struct Stakable.Stake",
									"name": "stake",
									"type": "tuple"
								}
							],
							"internalType": "struct Stakable.StakingSummary",
							"name": "",
							"type": "tuple"
						}
					],
					"stateMutability": "view",
					"type": "function"
				},
				{
					"inputs": [
						{
							"internalType": "address",
							"name": "_staker",
							"type": "address"
						}
					],
					"name": "isVoter",
					"outputs": [
						{
							"internalType": "bool",
							"name": "",
							"type": "bool"
						}
					],
					"stateMutability": "view",
					"type": "function"
				},
				{
					"inputs": [],
					"name": "retractVote",
					"outputs": [],
					"stateMutability": "nonpayable",
					"type": "function"
				},
				{
					"inputs": [],
					"name": "stakingPenaltyRate",
					"outputs": [
						{
							"internalType": "uint256",
							"name": "",
							"type": "uint256"
						}
					],
					"stateMutability": "view",
					"type": "function"
				},
				{
					"inputs": [],
					"name": "totalVoters",
					"outputs": [
						{
							"internalType": "uint256",
							"name": "",
							"type": "uint256"
						}
					],
					"stateMutability": "view",
					"type": "function"
				},
				{
					"inputs": [],
					"name": "vote",
					"outputs": [],
					"stateMutability": "nonpayable",
					"type": "function"
				},
				{
					"inputs": [
						{
							"internalType": "uint256",
							"name": "",
							"type": "uint256"
						}
					],
					"name": "votedUsers",
					"outputs": [
						{
							"internalType": "uint256",
							"name": "",
							"type": "uint256"
						}
					],
					"stateMutability": "view",
					"type": "function"
				},
				{
					"inputs": [
						{
							"internalType": "address",
							"name": "",
							"type": "address"
						}
					],
					"name": "voters",
					"outputs": [
						{
							"internalType": "bool",
							"name": "votingRight",
							"type": "bool"
						}
					],
					"stateMutability": "view",
					"type": "function"
				}
			],
			"devdoc": {
				"kind": "dev",
				"methods": {},
				"version": 1
			},
			"evm": {
				"assembly": "    /* \"contracts/Stakable.sol\":155:10769  contract Stakable {... */\n  mstore(0x40, 0x80)\n    /* \"contracts/Stakable.sol\":765:907  constructor() {... */\n  callvalue\n  dup1\n  iszero\n  tag_1\n  jumpi\n  0x00\n  dup1\n  revert\ntag_1:\n  pop\n    /* \"contracts/Stakable.sol\":872:874  15 */\n  0x0f\n    /* \"contracts/Stakable.sol\":851:869  stakingPenaltyRate */\n  0x00\n    /* \"contracts/Stakable.sol\":851:874  stakingPenaltyRate = 15 */\n  sstore\n    /* \"contracts/Stakable.sol\":898:900  80 */\n  0x50\n    /* \"contracts/Stakable.sol\":884:895  airdropRate */\n  0x01\n    /* \"contracts/Stakable.sol\":884:900  airdropRate = 80 */\n  sstore\n    /* \"contracts/Stakable.sol\":155:10769  contract Stakable {... */\n  dataSize(sub_0)\n  dup1\n  dataOffset(sub_0)\n  0x00\n  codecopy\n  0x00\n  return\nstop\n\nsub_0: assembly {\n        /* \"contracts/Stakable.sol\":155:10769  contract Stakable {... */\n      mstore(0x40, 0x80)\n      callvalue\n      dup1\n      iszero\n      tag_1\n      jumpi\n      0x00\n      dup1\n      revert\n    tag_1:\n      pop\n      jumpi(tag_2, lt(calldatasize, 0x04))\n      shr(0xe0, calldataload(0x00))\n      dup1\n      0xa3ec138d\n      gt\n      tag_14\n      jumpi\n      dup1\n      0xcb79c2e1\n      gt\n      tag_15\n      jumpi\n      dup1\n      0xcb79c2e1\n      eq\n      tag_11\n      jumpi\n      dup1\n      0xcbb3e152\n      eq\n      tag_12\n      jumpi\n      dup1\n      0xe73e14bf\n      eq\n      tag_13\n      jumpi\n      0x00\n      dup1\n      revert\n    tag_15:\n      dup1\n      0xa3ec138d\n      eq\n      tag_8\n      jumpi\n      dup1\n      0xa7771ee3\n      eq\n      tag_9\n      jumpi\n      dup1\n      0xb87da76d\n      eq\n      tag_10\n      jumpi\n      0x00\n      dup1\n      revert\n    tag_14:\n      dup1\n      0x632a9a52\n      gt\n      tag_16\n      jumpi\n      dup1\n      0x632a9a52\n      eq\n      tag_5\n      jumpi\n      dup1\n      0x8891cf0d\n      eq\n      tag_6\n      jumpi\n      dup1\n      0xa143a5f2\n      eq\n      tag_7\n      jumpi\n      0x00\n      dup1\n      revert\n    tag_16:\n      dup1\n      0x070c8b74\n      eq\n      tag_3\n      jumpi\n      dup1\n      0x5f5300ff\n      eq\n      tag_4\n      jumpi\n    tag_2:\n      0x00\n      dup1\n      revert\n        /* \"contracts/Stakable.sol\":9974:10322  function retractVote() public _votingStatusTrue {... */\n    tag_3:\n      tag_17\n      tag_18\n      jump\t// in\n    tag_17:\n      stop\n        /* \"contracts/Stakable.sol\":636:662  uint256 public totalVoters */\n    tag_4:\n      tag_19\n      sload(0x05)\n      dup2\n      jump\n    tag_19:\n      mload(0x40)\n        /* \"#utility.yul\":160:185   */\n      swap1\n      dup2\n      mstore\n        /* \"#utility.yul\":148:150   */\n      0x20\n        /* \"#utility.yul\":133:151   */\n      add\n        /* \"contracts/Stakable.sol\":636:662  uint256 public totalVoters */\n    tag_21:\n      mload(0x40)\n      dup1\n      swap2\n      sub\n      swap1\n      return\n        /* \"contracts/Stakable.sol\":9629:9968  function vote() public _votingStatusTrue {... */\n    tag_5:\n      tag_17\n      tag_24\n      jump\t// in\n        /* \"contracts/Stakable.sol\":507:533  uint256 public airdropRate */\n    tag_6:\n      tag_19\n      sload(0x01)\n      dup2\n      jump\n        /* \"contracts/Stakable.sol\":713:758  mapping(uint256 => uint256) public votedUsers */\n    tag_7:\n      tag_19\n      tag_29\n      calldatasize\n      0x04\n      tag_30\n      jump\t// in\n    tag_29:\n      mstore(0x20, 0x07)\n      0x00\n      swap1\n      dup2\n      mstore\n      0x40\n      swap1\n      keccak256\n      sload\n      dup2\n      jump\n        /* \"contracts/Stakable.sol\":668:707  mapping(address => Voter) public voters */\n    tag_8:\n      tag_33\n      tag_34\n      calldatasize\n      0x04\n      tag_35\n      jump\t// in\n    tag_34:\n      mstore(0x20, 0x06)\n      0x00\n      swap1\n      dup2\n      mstore\n      0x40\n      swap1\n      keccak256\n      sload\n      0xff\n      and\n      dup2\n      jump\n    tag_33:\n      mload(0x40)\n        /* \"#utility.yul\":860:874   */\n      swap1\n      iszero\n        /* \"#utility.yul\":853:875   */\n      iszero\n        /* \"#utility.yul\":835:876   */\n      dup2\n      mstore\n        /* \"#utility.yul\":823:825   */\n      0x20\n        /* \"#utility.yul\":808:826   */\n      add\n        /* \"contracts/Stakable.sol\":668:707  mapping(address => Voter) public voters */\n      tag_21\n        /* \"#utility.yul\":695:882   */\n      jump\n        /* \"contracts/Stakable.sol\":9451:9623  function isVoter(address _staker) public view returns (bool) {... */\n    tag_9:\n      tag_33\n      tag_40\n      calldatasize\n      0x04\n      tag_35\n      jump\t// in\n    tag_40:\n      tag_41\n      jump\t// in\n        /* \"contracts/Stakable.sol\":539:566  uint256 public airdropSince */\n    tag_10:\n      tag_19\n      sload(0x02)\n      dup2\n      jump\n        /* \"contracts/Stakable.sol\":468:501  uint256 public stakingPenaltyRate */\n    tag_11:\n      tag_19\n      sload(0x00)\n      dup2\n      jump\n        /* \"contracts/Stakable.sol\":8966:9170  function airdropWeek() public view returns (uint256) {... */\n    tag_12:\n      tag_19\n      tag_50\n      jump\t// in\n        /* \"contracts/Stakable.sol\":7042:8163  function hasStake(address _staker)... */\n    tag_13:\n      tag_52\n      tag_53\n      calldatasize\n      0x04\n      tag_35\n      jump\t// in\n    tag_53:\n      tag_54\n      jump\t// in\n    tag_52:\n      mload(0x40)\n      tag_21\n      swap2\n      swap1\n        /* \"#utility.yul\":1041:1045   */\n      0x00\n        /* \"#utility.yul\":1083:1086   */\n      0x0120\n        /* \"#utility.yul\":1072:1081   */\n      dup3\n        /* \"#utility.yul\":1068:1087   */\n      add\n        /* \"#utility.yul\":1060:1087   */\n      swap1\n      pop\n        /* \"#utility.yul\":1120:1126   */\n      dup3\n        /* \"#utility.yul\":1114:1127   */\n      mload\n        /* \"#utility.yul\":1103:1112   */\n      dup3\n        /* \"#utility.yul\":1096:1128   */\n      mstore\n        /* \"#utility.yul\":1184:1188   */\n      0x20\n        /* \"#utility.yul\":1176:1182   */\n      dup4\n        /* \"#utility.yul\":1172:1189   */\n      add\n        /* \"#utility.yul\":1166:1190   */\n      mload\n        /* \"#utility.yul\":1159:1163   */\n      0x20\n        /* \"#utility.yul\":1148:1157   */\n      dup4\n        /* \"#utility.yul\":1144:1164   */\n      add\n        /* \"#utility.yul\":1137:1191   */\n      mstore\n        /* \"#utility.yul\":1238:1242   */\n      0x40\n        /* \"#utility.yul\":1230:1236   */\n      dup4\n        /* \"#utility.yul\":1226:1243   */\n      add\n        /* \"#utility.yul\":1220:1244   */\n      mload\n      sub(shl(0xa0, 0x01), 0x01)\n        /* \"#utility.yul\":1292:1304   */\n      dup2\n        /* \"#utility.yul\":1286:1305   */\n      mload\n        /* \"#utility.yul\":1282:1350   */\n      and\n        /* \"#utility.yul\":1275:1279   */\n      0x40\n        /* \"#utility.yul\":1264:1273   */\n      dup5\n        /* \"#utility.yul\":1260:1280   */\n      add\n        /* \"#utility.yul\":1253:1351   */\n      mstore\n        /* \"#utility.yul\":1411:1415   */\n      0x20\n        /* \"#utility.yul\":1397:1409   */\n      dup2\n        /* \"#utility.yul\":1393:1416   */\n      add\n        /* \"#utility.yul\":1387:1417   */\n      mload\n        /* \"#utility.yul\":1382:1384   */\n      0x60\n        /* \"#utility.yul\":1371:1380   */\n      dup5\n        /* \"#utility.yul\":1367:1385   */\n      add\n        /* \"#utility.yul\":1360:1418   */\n      mstore\n        /* \"#utility.yul\":1479:1483   */\n      0x40\n        /* \"#utility.yul\":1465:1477   */\n      dup2\n        /* \"#utility.yul\":1461:1484   */\n      add\n        /* \"#utility.yul\":1455:1485   */\n      mload\n        /* \"#utility.yul\":1449:1452   */\n      0x80\n        /* \"#utility.yul\":1438:1447   */\n      dup5\n        /* \"#utility.yul\":1434:1453   */\n      add\n        /* \"#utility.yul\":1427:1486   */\n      mstore\n        /* \"#utility.yul\":1547:1549   */\n      0x60\n        /* \"#utility.yul\":1533:1545   */\n      dup2\n        /* \"#utility.yul\":1529:1550   */\n      add\n        /* \"#utility.yul\":1523:1551   */\n      mload\n        /* \"#utility.yul\":1517:1520   */\n      0xa0\n        /* \"#utility.yul\":1506:1515   */\n      dup5\n        /* \"#utility.yul\":1502:1521   */\n      add\n        /* \"#utility.yul\":1495:1552   */\n      mstore\n        /* \"#utility.yul\":1613:1616   */\n      0x80\n        /* \"#utility.yul\":1599:1611   */\n      dup2\n        /* \"#utility.yul\":1595:1617   */\n      add\n        /* \"#utility.yul\":1589:1618   */\n      mload\n        /* \"#utility.yul\":1583:1586   */\n      0xc0\n        /* \"#utility.yul\":1572:1581   */\n      dup5\n        /* \"#utility.yul\":1568:1587   */\n      add\n        /* \"#utility.yul\":1561:1619   */\n      mstore\n        /* \"#utility.yul\":1680:1683   */\n      0xa0\n        /* \"#utility.yul\":1666:1678   */\n      dup2\n        /* \"#utility.yul\":1662:1684   */\n      add\n        /* \"#utility.yul\":1656:1685   */\n      mload\n        /* \"#utility.yul\":1650:1653   */\n      0xe0\n        /* \"#utility.yul\":1639:1648   */\n      dup5\n        /* \"#utility.yul\":1635:1654   */\n      add\n        /* \"#utility.yul\":1628:1686   */\n      mstore\n        /* \"#utility.yul\":1747:1750   */\n      0xc0\n        /* \"#utility.yul\":1733:1745   */\n      dup2\n        /* \"#utility.yul\":1729:1751   */\n      add\n        /* \"#utility.yul\":1723:1752   */\n      mload\n        /* \"#utility.yul\":1717:1720   */\n      0x0100\n        /* \"#utility.yul\":1706:1715   */\n      dup5\n        /* \"#utility.yul\":1702:1721   */\n      add\n        /* \"#utility.yul\":1695:1753   */\n      mstore\n      pop\n        /* \"#utility.yul\":887:1759   */\n      swap3\n      swap2\n      pop\n      pop\n      jump\n        /* \"contracts/Stakable.sol\":9974:10322  function retractVote() public _votingStatusTrue {... */\n    tag_18:\n        /* \"contracts/Stakable.sol\":1174:1195  _check_votingStatus() */\n      tag_58\n        /* \"contracts/Stakable.sol\":1174:1193  _check_votingStatus */\n      tag_59\n        /* \"contracts/Stakable.sol\":1174:1195  _check_votingStatus() */\n      jump\t// in\n    tag_58:\n        /* \"contracts/Stakable.sol\":10047:10057  msg.sender */\n      caller\n        /* \"contracts/Stakable.sol\":10040:10058  voters[msg.sender] */\n      0x00\n      swap1\n      dup2\n      mstore\n        /* \"contracts/Stakable.sol\":10040:10046  voters */\n      0x06\n        /* \"contracts/Stakable.sol\":10040:10058  voters[msg.sender] */\n      0x20\n      mstore\n      0x40\n      swap1\n      keccak256\n        /* \"contracts/Stakable.sol\":10040:10070  voters[msg.sender].votingRight */\n      sload\n      0xff\n      and\n        /* \"contracts/Stakable.sol\":10040:10078  voters[msg.sender].votingRight == true */\n      iszero\n      iszero\n        /* \"contracts/Stakable.sol\":10040:10070  voters[msg.sender].votingRight */\n      0x01\n        /* \"contracts/Stakable.sol\":10040:10078  voters[msg.sender].votingRight == true */\n      eq\n        /* \"contracts/Stakable.sol\":10032:10102  require(voters[msg.sender].votingRight == true, \"You are not a voter\") */\n      tag_61\n      jumpi\n      mload(0x40)\n      shl(0xe5, 0x461bcd)\n      dup2\n      mstore\n        /* \"#utility.yul\":1966:1968   */\n      0x20\n        /* \"contracts/Stakable.sol\":10032:10102  require(voters[msg.sender].votingRight == true, \"You are not a voter\") */\n      0x04\n      dup3\n      add\n        /* \"#utility.yul\":1948:1969   */\n      mstore\n        /* \"#utility.yul\":2005:2007   */\n      0x13\n        /* \"#utility.yul\":1985:2003   */\n      0x24\n      dup3\n      add\n        /* \"#utility.yul\":1978:2008   */\n      mstore\n        /* \"#utility.yul\":2044:2065   */\n      0x596f7520617265206e6f74206120766f74657200000000000000000000000000\n        /* \"#utility.yul\":2024:2042   */\n      0x44\n      dup3\n      add\n        /* \"#utility.yul\":2017:2066   */\n      mstore\n        /* \"#utility.yul\":2083:2101   */\n      0x64\n      add\n        /* \"contracts/Stakable.sol\":10032:10102  require(voters[msg.sender].votingRight == true, \"You are not a voter\") */\n    tag_62:\n      mload(0x40)\n      dup1\n      swap2\n      sub\n      swap1\n      revert\n    tag_61:\n        /* \"contracts/Stakable.sol\":10140:10150  msg.sender */\n      caller\n        /* \"contracts/Stakable.sol\":10133:10151  voters[msg.sender] */\n      0x00\n      swap1\n      dup2\n      mstore\n        /* \"contracts/Stakable.sol\":10133:10139  voters */\n      0x06\n        /* \"contracts/Stakable.sol\":10133:10151  voters[msg.sender] */\n      0x20\n      swap1\n      dup2\n      mstore\n      0x40\n      dup1\n      dup4\n      keccak256\n        /* \"contracts/Stakable.sol\":10158:10167  _votingId */\n      sload(0x04)\n        /* \"contracts/Stakable.sol\":10133:10168  voters[msg.sender].voted[_votingId] */\n      dup5\n      mstore\n        /* \"contracts/Stakable.sol\":10133:10157  voters[msg.sender].voted */\n      0x01\n      swap1\n      dup2\n      add\n        /* \"contracts/Stakable.sol\":10133:10168  voters[msg.sender].voted[_votingId] */\n      swap1\n      swap3\n      mstore\n      swap1\n      swap2\n      keccak256\n      sload\n      0xff\n      and\n        /* \"contracts/Stakable.sol\":10133:10176  voters[msg.sender].voted[_votingId] == true */\n      iszero\n      iszero\n      eq\n        /* \"contracts/Stakable.sol\":10112:10224  require(... */\n      tag_64\n      jumpi\n      mload(0x40)\n      shl(0xe5, 0x461bcd)\n      dup2\n      mstore\n        /* \"#utility.yul\":2314:2316   */\n      0x20\n        /* \"contracts/Stakable.sol\":10112:10224  require(... */\n      0x04\n      dup3\n      add\n        /* \"#utility.yul\":2296:2317   */\n      mstore\n        /* \"#utility.yul\":2353:2355   */\n      0x16\n        /* \"#utility.yul\":2333:2351   */\n      0x24\n      dup3\n      add\n        /* \"#utility.yul\":2326:2356   */\n      mstore\n        /* \"#utility.yul\":2392:2416   */\n      0x596f752068617665206e6f7420766f7465642079657400000000000000000000\n        /* \"#utility.yul\":2372:2390   */\n      0x44\n      dup3\n      add\n        /* \"#utility.yul\":2365:2417   */\n      mstore\n        /* \"#utility.yul\":2434:2452   */\n      0x64\n      add\n        /* \"contracts/Stakable.sol\":10112:10224  require(... */\n      tag_62\n        /* \"#utility.yul\":2112:2458   */\n      jump\n        /* \"contracts/Stakable.sol\":10112:10224  require(... */\n    tag_64:\n        /* \"contracts/Stakable.sol\":10260:10269  _votingId */\n      sload(0x04)\n        /* \"contracts/Stakable.sol\":10235:10253  voters[msg.sender] */\n      0x00\n        /* \"contracts/Stakable.sol\":10235:10270  voters[msg.sender].voted[_votingId] */\n      swap1\n      dup2\n      mstore\n        /* \"contracts/Stakable.sol\":10289:10299  votedUsers */\n      0x07\n        /* \"contracts/Stakable.sol\":10235:10253  voters[msg.sender] */\n      0x20\n        /* \"contracts/Stakable.sol\":10289:10310  votedUsers[_votingId] */\n      mstore\n        /* \"contracts/Stakable.sol\":10235:10253  voters[msg.sender] */\n      0x40\n        /* \"contracts/Stakable.sol\":10289:10310  votedUsers[_votingId] */\n      dup2\n      keccak256\n        /* \"contracts/Stakable.sol\":10289:10315  votedUsers[_votingId] -= 1 */\n      dup1\n      sload\n        /* \"contracts/Stakable.sol\":10235:10259  voters[msg.sender].voted */\n      0x01\n      swap3\n        /* \"contracts/Stakable.sol\":10235:10253  voters[msg.sender] */\n      swap1\n        /* \"contracts/Stakable.sol\":10289:10315  votedUsers[_votingId] -= 1 */\n      tag_67\n      swap1\n        /* \"contracts/Stakable.sol\":10235:10259  voters[msg.sender].voted */\n      dup5\n      swap1\n        /* \"contracts/Stakable.sol\":10289:10315  votedUsers[_votingId] -= 1 */\n      tag_68\n      jump\t// in\n    tag_67:\n      swap1\n      swap2\n      sstore\n      pop\n      pop\n        /* \"contracts/Stakable.sol\":9974:10322  function retractVote() public _votingStatusTrue {... */\n      jump\t// out\n        /* \"contracts/Stakable.sol\":9629:9968  function vote() public _votingStatusTrue {... */\n    tag_24:\n        /* \"contracts/Stakable.sol\":1174:1195  _check_votingStatus() */\n      tag_70\n        /* \"contracts/Stakable.sol\":1174:1193  _check_votingStatus */\n      tag_59\n        /* \"contracts/Stakable.sol\":1174:1195  _check_votingStatus() */\n      jump\t// in\n    tag_70:\n        /* \"contracts/Stakable.sol\":9695:9705  msg.sender */\n      caller\n        /* \"contracts/Stakable.sol\":9688:9706  voters[msg.sender] */\n      0x00\n      swap1\n      dup2\n      mstore\n        /* \"contracts/Stakable.sol\":9688:9694  voters */\n      0x06\n        /* \"contracts/Stakable.sol\":9688:9706  voters[msg.sender] */\n      0x20\n      mstore\n      0x40\n      swap1\n      keccak256\n        /* \"contracts/Stakable.sol\":9688:9718  voters[msg.sender].votingRight */\n      sload\n      0xff\n      and\n        /* \"contracts/Stakable.sol\":9688:9726  voters[msg.sender].votingRight == true */\n      iszero\n      iszero\n        /* \"contracts/Stakable.sol\":9688:9718  voters[msg.sender].votingRight */\n      0x01\n        /* \"contracts/Stakable.sol\":9688:9726  voters[msg.sender].votingRight == true */\n      eq\n        /* \"contracts/Stakable.sol\":9680:9750  require(voters[msg.sender].votingRight == true, \"You are not a voter\") */\n      tag_72\n      jumpi\n      mload(0x40)\n      shl(0xe5, 0x461bcd)\n      dup2\n      mstore\n        /* \"#utility.yul\":1966:1968   */\n      0x20\n        /* \"contracts/Stakable.sol\":9680:9750  require(voters[msg.sender].votingRight == true, \"You are not a voter\") */\n      0x04\n      dup3\n      add\n        /* \"#utility.yul\":1948:1969   */\n      mstore\n        /* \"#utility.yul\":2005:2007   */\n      0x13\n        /* \"#utility.yul\":1985:2003   */\n      0x24\n      dup3\n      add\n        /* \"#utility.yul\":1978:2008   */\n      mstore\n        /* \"#utility.yul\":2044:2065   */\n      0x596f7520617265206e6f74206120766f74657200000000000000000000000000\n        /* \"#utility.yul\":2024:2042   */\n      0x44\n      dup3\n      add\n        /* \"#utility.yul\":2017:2066   */\n      mstore\n        /* \"#utility.yul\":2083:2101   */\n      0x64\n      add\n        /* \"contracts/Stakable.sol\":9680:9750  require(voters[msg.sender].votingRight == true, \"You are not a voter\") */\n      tag_62\n        /* \"#utility.yul\":1764:2107   */\n      jump\n        /* \"contracts/Stakable.sol\":9680:9750  require(voters[msg.sender].votingRight == true, \"You are not a voter\") */\n    tag_72:\n        /* \"contracts/Stakable.sol\":9788:9798  msg.sender */\n      caller\n        /* \"contracts/Stakable.sol\":9781:9799  voters[msg.sender] */\n      0x00\n      swap1\n      dup2\n      mstore\n        /* \"contracts/Stakable.sol\":9781:9787  voters */\n      0x06\n        /* \"contracts/Stakable.sol\":9781:9799  voters[msg.sender] */\n      0x20\n      swap1\n      dup2\n      mstore\n      0x40\n      dup1\n      dup4\n      keccak256\n        /* \"contracts/Stakable.sol\":9806:9815  _votingId */\n      sload(0x04)\n        /* \"contracts/Stakable.sol\":9781:9816  voters[msg.sender].voted[_votingId] */\n      dup5\n      mstore\n        /* \"contracts/Stakable.sol\":9781:9805  voters[msg.sender].voted */\n      0x01\n      add\n        /* \"contracts/Stakable.sol\":9781:9816  voters[msg.sender].voted[_votingId] */\n      swap1\n      swap2\n      mstore\n      swap1\n      keccak256\n      sload\n      0xff\n      and\n        /* \"contracts/Stakable.sol\":9781:9825  voters[msg.sender].voted[_votingId] == false */\n      iszero\n        /* \"contracts/Stakable.sol\":9760:9872  require(... */\n      tag_74\n      jumpi\n      mload(0x40)\n      shl(0xe5, 0x461bcd)\n      dup2\n      mstore\n        /* \"#utility.yul\":2984:2986   */\n      0x20\n        /* \"contracts/Stakable.sol\":9760:9872  require(... */\n      0x04\n      dup3\n      add\n        /* \"#utility.yul\":2966:2987   */\n      mstore\n        /* \"#utility.yul\":3023:3025   */\n      0x15\n        /* \"#utility.yul\":3003:3021   */\n      0x24\n      dup3\n      add\n        /* \"#utility.yul\":2996:3026   */\n      mstore\n        /* \"#utility.yul\":3062:3085   */\n      0x596f75206861766520766f746564206265666f72650000000000000000000000\n        /* \"#utility.yul\":3042:3060   */\n      0x44\n      dup3\n      add\n        /* \"#utility.yul\":3035:3086   */\n      mstore\n        /* \"#utility.yul\":3103:3121   */\n      0x64\n      add\n        /* \"contracts/Stakable.sol\":9760:9872  require(... */\n      tag_62\n        /* \"#utility.yul\":2782:3127   */\n      jump\n        /* \"contracts/Stakable.sol\":9760:9872  require(... */\n    tag_74:\n        /* \"contracts/Stakable.sol\":9890:9900  msg.sender */\n      caller\n        /* \"contracts/Stakable.sol\":9883:9901  voters[msg.sender] */\n      0x00\n      swap1\n      dup2\n      mstore\n        /* \"contracts/Stakable.sol\":9883:9889  voters */\n      0x06\n        /* \"contracts/Stakable.sol\":9883:9901  voters[msg.sender] */\n      0x20\n      swap1\n      dup2\n      mstore\n      0x40\n      dup1\n      dup4\n      keccak256\n        /* \"contracts/Stakable.sol\":9908:9917  _votingId */\n      0x04\n      dup1\n      sload\n        /* \"contracts/Stakable.sol\":9883:9918  voters[msg.sender].voted[_votingId] */\n      dup6\n      mstore\n        /* \"contracts/Stakable.sol\":9921:9925  true */\n      0x01\n        /* \"contracts/Stakable.sol\":9883:9907  voters[msg.sender].voted */\n      swap2\n      dup3\n      add\n        /* \"contracts/Stakable.sol\":9883:9918  voters[msg.sender].voted[_votingId] */\n      dup5\n      mstore\n      dup3\n      dup6\n      keccak256\n        /* \"contracts/Stakable.sol\":9883:9925  voters[msg.sender].voted[_votingId] = true */\n      dup1\n      sload\n      not(0xff)\n      and\n      dup4\n      or\n      swap1\n      sstore\n        /* \"contracts/Stakable.sol\":9946:9955  _votingId */\n      sload\n        /* \"contracts/Stakable.sol\":9935:9956  votedUsers[_votingId] */\n      dup5\n      mstore\n        /* \"contracts/Stakable.sol\":9935:9945  votedUsers */\n      0x07\n        /* \"contracts/Stakable.sol\":9935:9956  votedUsers[_votingId] */\n      swap1\n      swap3\n      mstore\n      dup3\n      keccak256\n        /* \"contracts/Stakable.sol\":9935:9961  votedUsers[_votingId] += 1 */\n      dup1\n      sload\n        /* \"contracts/Stakable.sol\":9921:9925  true */\n      swap2\n      swap3\n        /* \"contracts/Stakable.sol\":9935:9956  votedUsers[_votingId] */\n      swap1\n      swap2\n        /* \"contracts/Stakable.sol\":9935:9961  votedUsers[_votingId] += 1 */\n      tag_67\n      swap1\n        /* \"contracts/Stakable.sol\":9921:9925  true */\n      dup5\n      swap1\n        /* \"contracts/Stakable.sol\":9935:9961  votedUsers[_votingId] += 1 */\n      tag_78\n      jump\t// in\n        /* \"contracts/Stakable.sol\":9451:9623  function isVoter(address _staker) public view returns (bool) {... */\n    tag_41:\n        /* \"contracts/Stakable.sol\":9506:9510  bool */\n      0x00\n      sub(shl(0xa0, 0x01), 0x01)\n        /* \"contracts/Stakable.sol\":9530:9551  _staker != address(0) */\n      dup3\n      and\n        /* \"contracts/Stakable.sol\":9522:9571  require(_staker != address(0), \"Invalid address\") */\n      tag_80\n      jumpi\n      mload(0x40)\n      shl(0xe5, 0x461bcd)\n      dup2\n      mstore\n        /* \"#utility.yul\":3467:3469   */\n      0x20\n        /* \"contracts/Stakable.sol\":9522:9571  require(_staker != address(0), \"Invalid address\") */\n      0x04\n      dup3\n      add\n        /* \"#utility.yul\":3449:3470   */\n      mstore\n        /* \"#utility.yul\":3506:3508   */\n      0x0f\n        /* \"#utility.yul\":3486:3504   */\n      0x24\n      dup3\n      add\n        /* \"#utility.yul\":3479:3509   */\n      mstore\n        /* \"#utility.yul\":3545:3562   */\n      0x496e76616c696420616464726573730000000000000000000000000000000000\n        /* \"#utility.yul\":3525:3543   */\n      0x44\n      dup3\n      add\n        /* \"#utility.yul\":3518:3563   */\n      mstore\n        /* \"#utility.yul\":3580:3598   */\n      0x64\n      add\n        /* \"contracts/Stakable.sol\":9522:9571  require(_staker != address(0), \"Invalid address\") */\n      tag_62\n        /* \"#utility.yul\":3265:3604   */\n      jump\n        /* \"contracts/Stakable.sol\":9522:9571  require(_staker != address(0), \"Invalid address\") */\n    tag_80:\n      pop\n      sub(shl(0xa0, 0x01), 0x01)\n        /* \"contracts/Stakable.sol\":9589:9604  voters[_staker] */\n      and\n      0x00\n      swap1\n      dup2\n      mstore\n        /* \"contracts/Stakable.sol\":9589:9595  voters */\n      0x06\n        /* \"contracts/Stakable.sol\":9589:9604  voters[_staker] */\n      0x20\n      mstore\n      0x40\n      swap1\n      keccak256\n        /* \"contracts/Stakable.sol\":9589:9616  voters[_staker].votingRight */\n      sload\n      0xff\n      and\n      swap1\n        /* \"contracts/Stakable.sol\":9451:9623  function isVoter(address _staker) public view returns (bool) {... */\n      jump\t// out\n        /* \"contracts/Stakable.sol\":8966:9170  function airdropWeek() public view returns (uint256) {... */\n    tag_50:\n        /* \"contracts/Stakable.sol\":9010:9017  uint256 */\n      0x00\n        /* \"contracts/Stakable.sol\":9033:9045  airdropSince */\n      sload(0x02)\n        /* \"contracts/Stakable.sol\":9049:9050  0 */\n      0x00\n        /* \"contracts/Stakable.sol\":9033:9050  airdropSince != 0 */\n      eq\n        /* \"contracts/Stakable.sol\":9029:9164  if (airdropSince != 0) {... */\n      tag_84\n      jumpi\n        /* \"contracts/Stakable.sol\":9108:9114  7 days */\n      0x093a80\n        /* \"contracts/Stakable.sol\":9092:9104  airdropSince */\n      sload(0x02)\n        /* \"contracts/Stakable.sol\":9074:9089  block.timestamp */\n      timestamp\n        /* \"contracts/Stakable.sol\":9074:9104  block.timestamp - airdropSince */\n      tag_85\n      swap2\n      swap1\n      tag_68\n      jump\t// in\n    tag_85:\n        /* \"contracts/Stakable.sol\":9073:9114  (block.timestamp - airdropSince) / 7 days */\n      tag_86\n      swap2\n      swap1\n      tag_87\n      jump\t// in\n    tag_86:\n        /* \"contracts/Stakable.sol\":9066:9114  return (block.timestamp - airdropSince) / 7 days */\n      swap1\n      pop\n        /* \"contracts/Stakable.sol\":8966:9170  function airdropWeek() public view returns (uint256) {... */\n      swap1\n      jump\t// out\n        /* \"contracts/Stakable.sol\":9029:9164  if (airdropSince != 0) {... */\n    tag_84:\n      pop\n        /* \"contracts/Stakable.sol\":9152:9153  0 */\n      0x00\n      swap1\n        /* \"contracts/Stakable.sol\":8966:9170  function airdropWeek() public view returns (uint256) {... */\n      jump\t// out\n        /* \"contracts/Stakable.sol\":7042:8163  function hasStake(address _staker)... */\n    tag_54:\n        /* \"contracts/Stakable.sol\":7124:7145  StakingSummary memory */\n      tag_89\n      tag_90\n      jump\t// in\n    tag_89:\n      sub(shl(0xa0, 0x01), 0x01)\n        /* \"contracts/Stakable.sol\":7187:7208  stakeholders[_staker] */\n      dup1\n      dup4\n      and\n        /* \"contracts/Stakable.sol\":7161:7184  Stakeholder memory data */\n      0x00\n        /* \"contracts/Stakable.sol\":7187:7208  stakeholders[_staker] */\n      swap1\n      dup2\n      mstore\n        /* \"contracts/Stakable.sol\":7187:7199  stakeholders */\n      0x08\n        /* \"contracts/Stakable.sol\":7187:7208  stakeholders[_staker] */\n      0x20\n      dup2\n      dup2\n      mstore\n      0x40\n      dup1\n      dup5\n      keccak256\n        /* \"contracts/Stakable.sol\":7161:7208  Stakeholder memory data = stakeholders[_staker] */\n      dup2\n      mload\n      0x0140\n      dup2\n      add\n      dup4\n      mstore\n      dup2\n      sload\n      dup8\n      and\n      0x60\n      dup1\n      dup4\n      add\n      swap2\n      dup3\n      mstore\n      0x01\n      dup5\n      add\n      sload\n      0x80\n      dup5\n      add\n      mstore\n      0x02\n      dup5\n      add\n      sload\n      0xa0\n      dup5\n      add\n      mstore\n      0x03\n      dup5\n      add\n      sload\n      0xc0\n      dup5\n      add\n      mstore\n      0x04\n      dup5\n      add\n      sload\n      0xe0\n      dup5\n      add\n      mstore\n      0x05\n      dup5\n      add\n      sload\n      0x0100\n      dup5\n      add\n      mstore\n      0x06\n      dup5\n      add\n      sload\n      0x0120\n      dup5\n      add\n      mstore\n      swap1\n      dup3\n      mstore\n      0x07\n      dup4\n      add\n      sload\n      swap1\n      swap8\n      and\n      dup2\n      dup6\n      add\n      mstore\n      swap4\n      add\n      sload\n      dup4\n      dup3\n      add\n      mstore\n        /* \"contracts/Stakable.sol\":7250:7282  StakingSummary(0, 0, data.stake) */\n      dup1\n      mload\n      swap5\n      dup6\n      add\n      dup2\n      mstore\n      dup4\n      dup6\n      mstore\n      dup5\n      dup3\n      add\n      swap4\n      swap1\n      swap4\n      mstore\n        /* \"contracts/Stakable.sol\":7271:7281  data.stake */\n      dup2\n      mload\n        /* \"contracts/Stakable.sol\":7250:7282  StakingSummary(0, 0, data.stake) */\n      swap3\n      dup5\n      add\n      dup4\n      swap1\n      mstore\n        /* \"contracts/Stakable.sol\":7300:7320  summary.stake.amount */\n      swap2\n      swap1\n      swap2\n      add\n      mload\n        /* \"contracts/Stakable.sol\":7161:7208  Stakeholder memory data = stakeholders[_staker] */\n      swap1\n      swap2\n        /* \"contracts/Stakable.sol\":7250:7282  StakingSummary(0, 0, data.stake) */\n      swap1\n        /* \"contracts/Stakable.sol\":7292:7344  require(summary.stake.amount != 0, \"No stake found\") */\n      tag_92\n      jumpi\n      mload(0x40)\n      shl(0xe5, 0x461bcd)\n      dup2\n      mstore\n        /* \"#utility.yul\":4279:4281   */\n      0x20\n        /* \"contracts/Stakable.sol\":7292:7344  require(summary.stake.amount != 0, \"No stake found\") */\n      0x04\n      dup3\n      add\n        /* \"#utility.yul\":4261:4282   */\n      mstore\n        /* \"#utility.yul\":4318:4320   */\n      0x0e\n        /* \"#utility.yul\":4298:4316   */\n      0x24\n      dup3\n      add\n        /* \"#utility.yul\":4291:4321   */\n      mstore\n        /* \"#utility.yul\":4357:4373   */\n      0x4e6f207374616b6520666f756e64000000000000000000000000000000000000\n        /* \"#utility.yul\":4337:4355   */\n      0x44\n      dup3\n      add\n        /* \"#utility.yul\":4330:4374   */\n      mstore\n        /* \"#utility.yul\":4391:4409   */\n      0x64\n      add\n        /* \"contracts/Stakable.sol\":7292:7344  require(summary.stake.amount != 0, \"No stake found\") */\n      tag_62\n        /* \"#utility.yul\":4077:4415   */\n      jump\n        /* \"contracts/Stakable.sol\":7292:7344  require(summary.stake.amount != 0, \"No stake found\") */\n    tag_92:\n        /* \"contracts/Stakable.sol\":7355:7378  uint256 availableReward */\n      0x00\n        /* \"contracts/Stakable.sol\":7381:7416  calculateStakeReward(summary.stake) */\n      tag_95\n        /* \"contracts/Stakable.sol\":7402:7409  summary */\n      dup3\n        /* \"contracts/Stakable.sol\":7402:7415  summary.stake */\n      0x40\n      add\n      mload\n        /* \"contracts/Stakable.sol\":7381:7401  calculateStakeReward */\n      tag_96\n        /* \"contracts/Stakable.sol\":7381:7416  calculateStakeReward(summary.stake) */\n      jump\t// in\n    tag_95:\n        /* \"contracts/Stakable.sol\":7355:7416  uint256 availableReward = calculateStakeReward(summary.stake) */\n      swap1\n      pop\n        /* \"contracts/Stakable.sol\":7426:7441  uint256 penalty */\n      0x00\n        /* \"contracts/Stakable.sol\":7484:7499  block.timestamp */\n      timestamp\n        /* \"contracts/Stakable.sol\":7456:7463  summary */\n      dup4\n        /* \"contracts/Stakable.sol\":7456:7469  summary.stake */\n      0x40\n      add\n      mload\n        /* \"contracts/Stakable.sol\":7456:7481  summary.stake.releaseTime */\n      0xc0\n      add\n      mload\n        /* \"contracts/Stakable.sol\":7456:7499  summary.stake.releaseTime > block.timestamp */\n      gt\n        /* \"contracts/Stakable.sol\":7452:7733  if (summary.stake.releaseTime > block.timestamp) {... */\n      iszero\n      tag_97\n      jumpi\n        /* \"contracts/Stakable.sol\":7516:7538  uint256 amount_penalty */\n      0x00\n        /* \"contracts/Stakable.sol\":7540:7562  uint256 reward_penalty */\n      dup1\n        /* \"contracts/Stakable.sol\":7566:7667  calculatePenalty(... */\n      tag_98\n        /* \"contracts/Stakable.sol\":7600:7607  summary */\n      dup6\n        /* \"contracts/Stakable.sol\":7600:7613  summary.stake */\n      0x40\n      add\n      mload\n        /* \"contracts/Stakable.sol\":7600:7620  summary.stake.amount */\n      0x20\n      add\n      mload\n        /* \"contracts/Stakable.sol\":7638:7653  availableReward */\n      dup6\n        /* \"contracts/Stakable.sol\":7566:7582  calculatePenalty */\n      tag_99\n        /* \"contracts/Stakable.sol\":7566:7667  calculatePenalty(... */\n      jump\t// in\n    tag_98:\n        /* \"contracts/Stakable.sol\":7515:7667  (uint256 amount_penalty, uint256 reward_penalty) = calculatePenalty(... */\n      swap1\n      swap3\n      pop\n      swap1\n      pop\n        /* \"contracts/Stakable.sol\":7691:7722  amount_penalty + reward_penalty */\n      tag_100\n        /* \"contracts/Stakable.sol\":7515:7667  (uint256 amount_penalty, uint256 reward_penalty) = calculatePenalty(... */\n      dup2\n      dup4\n        /* \"contracts/Stakable.sol\":7691:7722  amount_penalty + reward_penalty */\n      tag_78\n      jump\t// in\n    tag_100:\n        /* \"contracts/Stakable.sol\":7681:7722  penalty = amount_penalty + reward_penalty */\n      swap3\n      pop\n        /* \"contracts/Stakable.sol\":7501:7733  {... */\n      pop\n      pop\n        /* \"contracts/Stakable.sol\":7452:7733  if (summary.stake.releaseTime > block.timestamp) {... */\n    tag_97:\n        /* \"contracts/Stakable.sol\":7786:7787  0 */\n      0x00\n        /* \"contracts/Stakable.sol\":7747:7783  _calculateWeek(data.latestClaimDrop) */\n      tag_101\n        /* \"contracts/Stakable.sol\":7762:7766  data */\n      dup6\n        /* \"contracts/Stakable.sol\":7762:7782  data.latestClaimDrop */\n      0x40\n      add\n      mload\n        /* \"contracts/Stakable.sol\":7747:7761  _calculateWeek */\n      tag_102\n        /* \"contracts/Stakable.sol\":7747:7783  _calculateWeek(data.latestClaimDrop) */\n      jump\t// in\n    tag_101:\n        /* \"contracts/Stakable.sol\":7747:7787  _calculateWeek(data.latestClaimDrop) > 0 */\n      gt\n        /* \"contracts/Stakable.sol\":7743:7992  if (_calculateWeek(data.latestClaimDrop) > 0) {... */\n      iszero\n      tag_103\n      jumpi\n        /* \"contracts/Stakable.sol\":7803:7818  uint256 airdrop */\n      0x00\n        /* \"contracts/Stakable.sol\":7821:7860  _calculateAirdrop(summary.stake.amount) */\n      tag_104\n        /* \"contracts/Stakable.sol\":7839:7846  summary */\n      dup5\n        /* \"contracts/Stakable.sol\":7839:7852  summary.stake */\n      0x40\n      add\n      mload\n        /* \"contracts/Stakable.sol\":7839:7859  summary.stake.amount */\n      0x20\n      add\n      mload\n        /* \"contracts/Stakable.sol\":7821:7838  _calculateAirdrop */\n      tag_105\n        /* \"contracts/Stakable.sol\":7821:7860  _calculateAirdrop(summary.stake.amount) */\n      jump\t// in\n    tag_104:\n        /* \"contracts/Stakable.sol\":7874:7887  summary.stake */\n      0x40\n      dup6\n      add\n      mload\n        /* \"contracts/Stakable.sol\":7874:7905  summary.stake.claimable_airdrop */\n      0x80\n      add\n        /* \"contracts/Stakable.sol\":7874:7915  summary.stake.claimable_airdrop = airdrop */\n      mstore\n      pop\n        /* \"contracts/Stakable.sol\":7743:7992  if (_calculateWeek(data.latestClaimDrop) > 0) {... */\n      jump(tag_106)\n    tag_103:\n        /* \"contracts/Stakable.sol\":7946:7959  summary.stake */\n      0x40\n      dup4\n      add\n      mload\n        /* \"contracts/Stakable.sol\":7980:7981  0 */\n      0x00\n        /* \"contracts/Stakable.sol\":7946:7977  summary.stake.claimable_airdrop */\n      0x80\n      swap1\n      swap2\n      add\n        /* \"contracts/Stakable.sol\":7946:7981  summary.stake.claimable_airdrop = 0 */\n      mstore\n        /* \"contracts/Stakable.sol\":7743:7992  if (_calculateWeek(data.latestClaimDrop) > 0) {... */\n    tag_106:\n        /* \"contracts/Stakable.sol\":8002:8015  summary.stake */\n      0x40\n      dup4\n      add\n      dup1\n      mload\n        /* \"contracts/Stakable.sol\":8002:8025  summary.stake.claimable */\n      0x60\n      add\n        /* \"contracts/Stakable.sol\":8002:8043  summary.stake.claimable = availableReward */\n      swap3\n      swap1\n      swap3\n      mstore\n        /* \"contracts/Stakable.sol\":8053:8068  summary.penalty */\n      0x20\n      dup1\n      dup5\n      add\n        /* \"contracts/Stakable.sol\":8053:8078  summary.penalty = penalty */\n      swap2\n      swap1\n      swap2\n      mstore\n        /* \"contracts/Stakable.sol\":8111:8124  summary.stake */\n      swap1\n      mload\n        /* \"contracts/Stakable.sol\":8111:8131  summary.stake.amount */\n      add\n      mload\n        /* \"contracts/Stakable.sol\":8088:8131  summary.total_amount = summary.stake.amount */\n      dup2\n      mstore\n        /* \"contracts/Stakable.sol\":8002:8009  summary */\n      swap4\n        /* \"contracts/Stakable.sol\":7042:8163  function hasStake(address _staker)... */\n      swap3\n      pop\n      pop\n      pop\n      jump\t// out\n        /* \"contracts/Stakable.sol\":1018:1129  function _check_votingStatus() internal view {... */\n    tag_59:\n        /* \"contracts/Stakable.sol\":1081:1094  _votingStatus */\n      and(0xff, sload(0x03))\n        /* \"contracts/Stakable.sol\":1073:1122  require(_votingStatus, \"Voting is not available\") */\n      tag_108\n      jumpi\n      mload(0x40)\n      shl(0xe5, 0x461bcd)\n      dup2\n      mstore\n        /* \"#utility.yul\":4622:4624   */\n      0x20\n        /* \"contracts/Stakable.sol\":1073:1122  require(_votingStatus, \"Voting is not available\") */\n      0x04\n      dup3\n      add\n        /* \"#utility.yul\":4604:4625   */\n      mstore\n        /* \"#utility.yul\":4661:4663   */\n      0x17\n        /* \"#utility.yul\":4641:4659   */\n      0x24\n      dup3\n      add\n        /* \"#utility.yul\":4634:4664   */\n      mstore\n        /* \"#utility.yul\":4700:4725   */\n      0x566f74696e67206973206e6f7420617661696c61626c65000000000000000000\n        /* \"#utility.yul\":4680:4698   */\n      0x44\n      dup3\n      add\n        /* \"#utility.yul\":4673:4726   */\n      mstore\n        /* \"#utility.yul\":4743:4761   */\n      0x64\n      add\n        /* \"contracts/Stakable.sol\":1073:1122  require(_votingStatus, \"Voting is not available\") */\n      tag_62\n        /* \"#utility.yul\":4420:4767   */\n      jump\n        /* \"contracts/Stakable.sol\":1073:1122  require(_votingStatus, \"Voting is not available\") */\n    tag_108:\n        /* \"contracts/Stakable.sol\":1018:1129  function _check_votingStatus() internal view {... */\n      jump\t// out\n        /* \"contracts/Stakable.sol\":4930:5278  function calculateStakeReward(Stake memory user_stake)... */\n    tag_96:\n        /* \"contracts/Stakable.sol\":5032:5039  uint256 */\n      0x00\n        /* \"contracts/Stakable.sol\":5059:5069  user_stake */\n      dup2\n        /* \"contracts/Stakable.sol\":5059:5076  user_stake.amount */\n      0x20\n      add\n      mload\n        /* \"contracts/Stakable.sol\":5080:5081  0 */\n      0x00\n        /* \"contracts/Stakable.sol\":5059:5081  user_stake.amount == 0 */\n      eq\n        /* \"contracts/Stakable.sol\":5055:5116  if (user_stake.amount == 0) {... */\n      iszero\n      tag_112\n      jumpi\n      pop\n        /* \"contracts/Stakable.sol\":5104:5105  0 */\n      0x00\n      swap2\n        /* \"contracts/Stakable.sol\":4930:5278  function calculateStakeReward(Stake memory user_stake)... */\n      swap1\n      pop\n      jump\t// out\n        /* \"contracts/Stakable.sol\":5055:5116  if (user_stake.amount == 0) {... */\n    tag_112:\n        /* \"contracts/Stakable.sol\":5267:5271  1e26 */\n      0x52b7d2dcc80cd2e4000000\n        /* \"contracts/Stakable.sol\":5221:5263  calculateStakingDuration(user_stake.since) */\n      tag_113\n        /* \"contracts/Stakable.sol\":5246:5256  user_stake */\n      dup4\n        /* \"contracts/Stakable.sol\":5246:5262  user_stake.since */\n      0x40\n      add\n      mload\n        /* \"contracts/Stakable.sol\":5221:5245  calculateStakingDuration */\n      tag_114\n        /* \"contracts/Stakable.sol\":5221:5263  calculateStakingDuration(user_stake.since) */\n      jump\t// in\n    tag_113:\n        /* \"contracts/Stakable.sol\":5182:5192  user_stake */\n      dup4\n        /* \"contracts/Stakable.sol\":5182:5202  user_stake.rewardAPY */\n      0xa0\n      add\n      mload\n        /* \"contracts/Stakable.sol\":5146:5156  user_stake */\n      dup5\n        /* \"contracts/Stakable.sol\":5146:5163  user_stake.amount */\n      0x20\n      add\n      mload\n        /* \"contracts/Stakable.sol\":5146:5202  user_stake.amount *... */\n      tag_115\n      swap2\n      swap1\n      tag_116\n      jump\t// in\n    tag_115:\n        /* \"contracts/Stakable.sol\":5146:5263  user_stake.amount *... */\n      tag_117\n      swap2\n      swap1\n      tag_116\n      jump\t// in\n    tag_117:\n        /* \"contracts/Stakable.sol\":5145:5271  (user_stake.amount *... */\n      tag_118\n      swap2\n      swap1\n      tag_87\n      jump\t// in\n    tag_118:\n        /* \"contracts/Stakable.sol\":5126:5271  return... */\n      swap3\n        /* \"contracts/Stakable.sol\":4930:5278  function calculateStakeReward(Stake memory user_stake)... */\n      swap2\n      pop\n      pop\n      jump\t// out\n        /* \"contracts/Stakable.sol\":5284:5593  function calculatePenalty(uint256 amount, uint256 reward)... */\n    tag_99:\n        /* \"contracts/Stakable.sol\":5389:5396  uint256 */\n      0x00\n        /* \"contracts/Stakable.sol\":5398:5405  uint256 */\n      dup1\n        /* \"contracts/Stakable.sol\":5442:5502  SafeMath.div(SafeMath.mul(amount, stakingPenaltyRate), 1000) */\n      tag_120\n        /* \"contracts/Stakable.sol\":5455:5495  SafeMath.mul(amount, stakingPenaltyRate) */\n      tag_121\n        /* \"contracts/Stakable.sol\":5468:5474  amount */\n      dup6\n        /* \"contracts/Stakable.sol\":5476:5494  stakingPenaltyRate */\n      sload(0x00)\n        /* \"contracts/Stakable.sol\":5455:5467  SafeMath.mul */\n      tag_122\n        /* \"contracts/Stakable.sol\":5455:5495  SafeMath.mul(amount, stakingPenaltyRate) */\n      jump\t// in\n    tag_121:\n        /* \"contracts/Stakable.sol\":5497:5501  1000 */\n      0x03e8\n        /* \"contracts/Stakable.sol\":5442:5454  SafeMath.div */\n      tag_123\n        /* \"contracts/Stakable.sol\":5442:5502  SafeMath.div(SafeMath.mul(amount, stakingPenaltyRate), 1000) */\n      jump\t// in\n    tag_120:\n        /* \"contracts/Stakable.sol\":5516:5576  SafeMath.div(SafeMath.mul(reward, stakingPenaltyRate), 1000) */\n      tag_124\n        /* \"contracts/Stakable.sol\":5529:5569  SafeMath.mul(reward, stakingPenaltyRate) */\n      tag_121\n        /* \"contracts/Stakable.sol\":5542:5548  reward */\n      dup6\n        /* \"contracts/Stakable.sol\":5550:5568  stakingPenaltyRate */\n      sload(0x00)\n        /* \"contracts/Stakable.sol\":5529:5541  SafeMath.mul */\n      tag_122\n        /* \"contracts/Stakable.sol\":5529:5569  SafeMath.mul(reward, stakingPenaltyRate) */\n      jump\t// in\n        /* \"contracts/Stakable.sol\":5516:5576  SafeMath.div(SafeMath.mul(reward, stakingPenaltyRate), 1000) */\n    tag_124:\n        /* \"contracts/Stakable.sol\":5421:5586  return (... */\n      swap2\n      pop\n      swap2\n      pop\n        /* \"contracts/Stakable.sol\":5284:5593  function calculatePenalty(uint256 amount, uint256 reward)... */\n      swap3\n      pop\n      swap3\n      swap1\n      pop\n      jump\t// out\n        /* \"contracts/Stakable.sol\":2802:2934  function _calculateWeek(uint256 input) internal view returns (uint256) {... */\n    tag_102:\n        /* \"contracts/Stakable.sol\":2864:2871  uint256 */\n      0x00\n        /* \"contracts/Stakable.sol\":2890:2927  (block.timestamp - input).div(7 days) */\n      tag_118\n        /* \"contracts/Stakable.sol\":2920:2926  7 days */\n      0x093a80\n        /* \"contracts/Stakable.sol\":2891:2914  block.timestamp - input */\n      tag_128\n        /* \"contracts/Stakable.sol\":2909:2914  input */\n      dup5\n        /* \"contracts/Stakable.sol\":2891:2906  block.timestamp */\n      timestamp\n        /* \"contracts/Stakable.sol\":2891:2914  block.timestamp - input */\n      tag_68\n      jump\t// in\n    tag_128:\n        /* \"contracts/Stakable.sol\":2890:2919  (block.timestamp - input).div */\n      swap1\n      tag_123\n        /* \"contracts/Stakable.sol\":2890:2927  (block.timestamp - input).div(7 days) */\n      jump\t// in\n        /* \"contracts/Stakable.sol\":8274:8453  function _calculateAirdrop(uint256 stakeAmount)... */\n    tag_105:\n        /* \"contracts/Stakable.sol\":8369:8376  uint256 */\n      0x00\n        /* \"contracts/Stakable.sol\":8438:8446  52 weeks */\n      0x01dfe200\n        /* \"contracts/Stakable.sol\":8430:8434  1000 */\n      0x03e8\n        /* \"contracts/Stakable.sol\":8415:8426  airdropRate */\n      sload(0x01)\n        /* \"contracts/Stakable.sol\":8401:8412  stakeAmount */\n      dup5\n        /* \"contracts/Stakable.sol\":8401:8426  stakeAmount * airdropRate */\n      tag_130\n      swap2\n      swap1\n      tag_116\n      jump\t// in\n    tag_130:\n        /* \"contracts/Stakable.sol\":8400:8434  (stakeAmount * airdropRate) / 1000 */\n      tag_117\n      swap2\n      swap1\n      tag_87\n      jump\t// in\n        /* \"contracts/Stakable.sol\":4576:4924  function calculateStakingDuration(uint256 since_)... */\n    tag_114:\n        /* \"contracts/Stakable.sol\":4673:4680  uint256 */\n      0x00\n        /* \"contracts/Stakable.sol\":4713:4714  0 */\n      dup1\n        /* \"contracts/Stakable.sol\":4704:4710  since_ */\n      dup3\n        /* \"contracts/Stakable.sol\":4704:4714  since_ > 0 */\n      gt\n        /* \"contracts/Stakable.sol\":4696:4736  require(since_ > 0, \"Error timestamp 0\") */\n      tag_134\n      jumpi\n      mload(0x40)\n      shl(0xe5, 0x461bcd)\n      dup2\n      mstore\n        /* \"#utility.yul\":5147:5149   */\n      0x20\n        /* \"contracts/Stakable.sol\":4696:4736  require(since_ > 0, \"Error timestamp 0\") */\n      0x04\n      dup3\n      add\n        /* \"#utility.yul\":5129:5150   */\n      mstore\n        /* \"#utility.yul\":5186:5188   */\n      0x11\n        /* \"#utility.yul\":5166:5184   */\n      0x24\n      dup3\n      add\n        /* \"#utility.yul\":5159:5189   */\n      mstore\n        /* \"#utility.yul\":5225:5244   */\n      0x4572726f722074696d657374616d702030000000000000000000000000000000\n        /* \"#utility.yul\":5205:5223   */\n      0x44\n      dup3\n      add\n        /* \"#utility.yul\":5198:5245   */\n      mstore\n        /* \"#utility.yul\":5262:5280   */\n      0x64\n      add\n        /* \"contracts/Stakable.sol\":4696:4736  require(since_ > 0, \"Error timestamp 0\") */\n      tag_62\n        /* \"#utility.yul\":4945:5286   */\n      jump\n        /* \"contracts/Stakable.sol\":4696:4736  require(since_ > 0, \"Error timestamp 0\") */\n    tag_134:\n        /* \"contracts/Stakable.sol\":4765:4917  SafeMath.div(... */\n      tag_118\n        /* \"contracts/Stakable.sol\":4796:4820  block.timestamp - since_ */\n      tag_138\n        /* \"contracts/Stakable.sol\":4814:4820  since_ */\n      dup4\n        /* \"contracts/Stakable.sol\":4796:4811  block.timestamp */\n      timestamp\n        /* \"contracts/Stakable.sol\":4796:4820  block.timestamp - since_ */\n      tag_68\n      jump\t// in\n    tag_138:\n        /* \"contracts/Stakable.sol\":4795:4828  (block.timestamp - since_) * 1e24 */\n      tag_139\n      swap1\n        /* \"contracts/Stakable.sol\":4824:4828  1e24 */\n      0xd3c21bcecceda1000000\n        /* \"contracts/Stakable.sol\":4795:4828  (block.timestamp - since_) * 1e24 */\n      tag_116\n      jump\t// in\n    tag_139:\n        /* \"contracts/Stakable.sol\":4846:4854  365 days */\n      0x01e13380\n        /* \"contracts/Stakable.sol\":4765:4917  SafeMath.div(... */\n      mload(0x40)\n      dup1\n      0x40\n      add\n      0x40\n      mstore\n      dup1\n      0x1d\n      dup2\n      mstore\n      0x20\n      add\n      0x4572726f722063616e6e6f74206469766964652074696d657374616d70000000\n      dup2\n      mstore\n      pop\n        /* \"contracts/Stakable.sol\":4765:4777  SafeMath.div */\n      tag_140\n        /* \"contracts/Stakable.sol\":4765:4917  SafeMath.div(... */\n      jump\t// in\n        /* \"@openzeppelin/contracts/utils/math/SafeMath.sol\":3451:3547  function mul(uint256 a, uint256 b) internal pure returns (uint256) {... */\n    tag_122:\n        /* \"@openzeppelin/contracts/utils/math/SafeMath.sol\":3509:3516  uint256 */\n      0x00\n        /* \"@openzeppelin/contracts/utils/math/SafeMath.sol\":3535:3540  a * b */\n      tag_142\n        /* \"@openzeppelin/contracts/utils/math/SafeMath.sol\":3539:3540  b */\n      dup3\n        /* \"@openzeppelin/contracts/utils/math/SafeMath.sol\":3535:3536  a */\n      dup5\n        /* \"@openzeppelin/contracts/utils/math/SafeMath.sol\":3535:3540  a * b */\n      tag_116\n      jump\t// in\n    tag_142:\n        /* \"@openzeppelin/contracts/utils/math/SafeMath.sol\":3528:3540  return a * b */\n      swap4\n        /* \"@openzeppelin/contracts/utils/math/SafeMath.sol\":3451:3547  function mul(uint256 a, uint256 b) internal pure returns (uint256) {... */\n      swap3\n      pop\n      pop\n      pop\n      jump\t// out\n        /* \"@openzeppelin/contracts/utils/math/SafeMath.sol\":3836:3932  function div(uint256 a, uint256 b) internal pure returns (uint256) {... */\n    tag_123:\n        /* \"@openzeppelin/contracts/utils/math/SafeMath.sol\":3894:3901  uint256 */\n      0x00\n        /* \"@openzeppelin/contracts/utils/math/SafeMath.sol\":3920:3925  a / b */\n      tag_142\n        /* \"@openzeppelin/contracts/utils/math/SafeMath.sol\":3924:3925  b */\n      dup3\n        /* \"@openzeppelin/contracts/utils/math/SafeMath.sol\":3920:3921  a */\n      dup5\n        /* \"@openzeppelin/contracts/utils/math/SafeMath.sol\":3920:3925  a / b */\n      tag_87\n      jump\t// in\n        /* \"@openzeppelin/contracts/utils/math/SafeMath.sol\":5660:5890  function div(... */\n    tag_140:\n        /* \"@openzeppelin/contracts/utils/math/SafeMath.sol\":5776:5783  uint256 */\n      0x00\n        /* \"@openzeppelin/contracts/utils/math/SafeMath.sol\":5834:5846  errorMessage */\n      dup2\n        /* \"@openzeppelin/contracts/utils/math/SafeMath.sol\":5827:5832  b > 0 */\n      dup4\n        /* \"@openzeppelin/contracts/utils/math/SafeMath.sol\":5819:5847  require(b > 0, errorMessage) */\n      tag_146\n      jumpi\n      mload(0x40)\n      shl(0xe5, 0x461bcd)\n      dup2\n      mstore\n      0x04\n      add\n      tag_62\n      swap2\n      swap1\n      tag_148\n      jump\t// in\n    tag_146:\n      pop\n        /* \"@openzeppelin/contracts/utils/math/SafeMath.sol\":5872:5873  b */\n      dup3\n        /* \"@openzeppelin/contracts/utils/math/SafeMath.sol\":5868:5869  a */\n      dup5\n        /* \"@openzeppelin/contracts/utils/math/SafeMath.sol\":5868:5873  a / b */\n      dup2\n      tag_150\n      jumpi\n      tag_150\n      tag_151\n      jump\t// in\n    tag_150:\n      div\n      swap5\n        /* \"@openzeppelin/contracts/utils/math/SafeMath.sol\":5660:5890  function div(... */\n      swap4\n      pop\n      pop\n      pop\n      pop\n      jump\t// out\n    tag_90:\n      mload(0x40)\n      dup1\n      0x60\n      add\n      0x40\n      mstore\n      dup1\n      0x00\n      dup2\n      mstore\n      0x20\n      add\n      0x00\n      dup2\n      mstore\n      0x20\n      add\n      tag_152\n      mload(0x40)\n      dup1\n      0xe0\n      add\n      0x40\n      mstore\n      dup1\n      and(sub(shl(0xa0, 0x01), 0x01), 0x00)\n      dup2\n      mstore\n      0x20\n      add\n      0x00\n      dup2\n      mstore\n      0x20\n      add\n      0x00\n      dup2\n      mstore\n      0x20\n      add\n      0x00\n      dup2\n      mstore\n      0x20\n      add\n      0x00\n      dup2\n      mstore\n      0x20\n      add\n      0x00\n      dup2\n      mstore\n      0x20\n      add\n      0x00\n      dup2\n      mstore\n      pop\n      swap1\n      jump\n    tag_152:\n      swap1\n      mstore\n      swap1\n      jump\t// out\n        /* \"#utility.yul\":196:376   */\n    tag_30:\n        /* \"#utility.yul\":255:261   */\n      0x00\n        /* \"#utility.yul\":308:310   */\n      0x20\n        /* \"#utility.yul\":296:305   */\n      dup3\n        /* \"#utility.yul\":287:294   */\n      dup5\n        /* \"#utility.yul\":283:306   */\n      sub\n        /* \"#utility.yul\":279:311   */\n      slt\n        /* \"#utility.yul\":276:328   */\n      iszero\n      tag_158\n      jumpi\n        /* \"#utility.yul\":324:325   */\n      0x00\n        /* \"#utility.yul\":321:322   */\n      dup1\n        /* \"#utility.yul\":314:326   */\n      revert\n        /* \"#utility.yul\":276:328   */\n    tag_158:\n      pop\n        /* \"#utility.yul\":347:370   */\n      calldataload\n      swap2\n        /* \"#utility.yul\":196:376   */\n      swap1\n      pop\n      jump\t// out\n        /* \"#utility.yul\":381:690   */\n    tag_35:\n        /* \"#utility.yul\":440:446   */\n      0x00\n        /* \"#utility.yul\":493:495   */\n      0x20\n        /* \"#utility.yul\":481:490   */\n      dup3\n        /* \"#utility.yul\":472:479   */\n      dup5\n        /* \"#utility.yul\":468:491   */\n      sub\n        /* \"#utility.yul\":464:496   */\n      slt\n        /* \"#utility.yul\":461:513   */\n      iszero\n      tag_160\n      jumpi\n        /* \"#utility.yul\":509:510   */\n      0x00\n        /* \"#utility.yul\":506:507   */\n      dup1\n        /* \"#utility.yul\":499:511   */\n      revert\n        /* \"#utility.yul\":461:513   */\n    tag_160:\n        /* \"#utility.yul\":548:557   */\n      dup2\n        /* \"#utility.yul\":535:558   */\n      calldataload\n      sub(shl(0xa0, 0x01), 0x01)\n        /* \"#utility.yul\":591:596   */\n      dup2\n        /* \"#utility.yul\":587:641   */\n      and\n        /* \"#utility.yul\":580:585   */\n      dup2\n        /* \"#utility.yul\":577:642   */\n      eq\n        /* \"#utility.yul\":567:660   */\n      tag_142\n      jumpi\n        /* \"#utility.yul\":656:657   */\n      0x00\n        /* \"#utility.yul\":653:654   */\n      dup1\n        /* \"#utility.yul\":646:658   */\n      revert\n        /* \"#utility.yul\":2463:2647   */\n    tag_154:\n      shl(0xe0, 0x4e487b71)\n        /* \"#utility.yul\":2512:2513   */\n      0x00\n        /* \"#utility.yul\":2505:2593   */\n      mstore\n        /* \"#utility.yul\":2612:2616   */\n      0x11\n        /* \"#utility.yul\":2609:2610   */\n      0x04\n        /* \"#utility.yul\":2602:2617   */\n      mstore\n        /* \"#utility.yul\":2636:2640   */\n      0x24\n        /* \"#utility.yul\":2633:2634   */\n      0x00\n        /* \"#utility.yul\":2626:2641   */\n      revert\n        /* \"#utility.yul\":2652:2777   */\n    tag_68:\n        /* \"#utility.yul\":2692:2696   */\n      0x00\n        /* \"#utility.yul\":2720:2721   */\n      dup3\n        /* \"#utility.yul\":2717:2718   */\n      dup3\n        /* \"#utility.yul\":2714:2722   */\n      lt\n        /* \"#utility.yul\":2711:2745   */\n      iszero\n      tag_169\n      jumpi\n        /* \"#utility.yul\":2725:2743   */\n      tag_169\n      tag_154\n      jump\t// in\n    tag_169:\n      pop\n        /* \"#utility.yul\":2762:2771   */\n      sub\n      swap1\n        /* \"#utility.yul\":2652:2777   */\n      jump\t// out\n        /* \"#utility.yul\":3132:3260   */\n    tag_78:\n        /* \"#utility.yul\":3172:3175   */\n      0x00\n        /* \"#utility.yul\":3203:3204   */\n      dup3\n        /* \"#utility.yul\":3199:3205   */\n      not\n        /* \"#utility.yul\":3196:3197   */\n      dup3\n        /* \"#utility.yul\":3193:3206   */\n      gt\n        /* \"#utility.yul\":3190:3229   */\n      iszero\n      tag_173\n      jumpi\n        /* \"#utility.yul\":3209:3227   */\n      tag_173\n      tag_154\n      jump\t// in\n    tag_173:\n      pop\n        /* \"#utility.yul\":3245:3254   */\n      add\n      swap1\n        /* \"#utility.yul\":3132:3260   */\n      jump\t// out\n        /* \"#utility.yul\":3609:3793   */\n    tag_151:\n      shl(0xe0, 0x4e487b71)\n        /* \"#utility.yul\":3658:3659   */\n      0x00\n        /* \"#utility.yul\":3651:3739   */\n      mstore\n        /* \"#utility.yul\":3758:3762   */\n      0x12\n        /* \"#utility.yul\":3755:3756   */\n      0x04\n        /* \"#utility.yul\":3748:3763   */\n      mstore\n        /* \"#utility.yul\":3782:3786   */\n      0x24\n        /* \"#utility.yul\":3779:3780   */\n      0x00\n        /* \"#utility.yul\":3772:3787   */\n      revert\n        /* \"#utility.yul\":3798:4072   */\n    tag_87:\n        /* \"#utility.yul\":3838:3839   */\n      0x00\n        /* \"#utility.yul\":3864:3865   */\n      dup3\n        /* \"#utility.yul\":3854:4043   */\n      tag_177\n      jumpi\n      shl(0xe0, 0x4e487b71)\n        /* \"#utility.yul\":3896:3897   */\n      0x00\n        /* \"#utility.yul\":3889:3977   */\n      mstore\n        /* \"#utility.yul\":4000:4004   */\n      0x12\n        /* \"#utility.yul\":3997:3998   */\n      0x04\n        /* \"#utility.yul\":3990:4005   */\n      mstore\n        /* \"#utility.yul\":4028:4032   */\n      0x24\n        /* \"#utility.yul\":4025:4026   */\n      0x00\n        /* \"#utility.yul\":4018:4033   */\n      revert\n        /* \"#utility.yul\":3854:4043   */\n    tag_177:\n      pop\n        /* \"#utility.yul\":4057:4066   */\n      div\n      swap1\n        /* \"#utility.yul\":3798:4072   */\n      jump\t// out\n        /* \"#utility.yul\":4772:4940   */\n    tag_116:\n        /* \"#utility.yul\":4812:4819   */\n      0x00\n        /* \"#utility.yul\":4878:4879   */\n      dup2\n        /* \"#utility.yul\":4874:4875   */\n      0x00\n        /* \"#utility.yul\":4870:4876   */\n      not\n        /* \"#utility.yul\":4866:4880   */\n      div\n        /* \"#utility.yul\":4863:4864   */\n      dup4\n        /* \"#utility.yul\":4860:4881   */\n      gt\n        /* \"#utility.yul\":4855:4856   */\n      dup3\n        /* \"#utility.yul\":4848:4857   */\n      iszero\n        /* \"#utility.yul\":4841:4858   */\n      iszero\n        /* \"#utility.yul\":4837:4882   */\n      and\n        /* \"#utility.yul\":4834:4905   */\n      iszero\n      tag_182\n      jumpi\n        /* \"#utility.yul\":4885:4903   */\n      tag_182\n      tag_154\n      jump\t// in\n    tag_182:\n      pop\n        /* \"#utility.yul\":4925:4934   */\n      mul\n      swap1\n        /* \"#utility.yul\":4772:4940   */\n      jump\t// out\n        /* \"#utility.yul\":5291:5888   */\n    tag_148:\n        /* \"#utility.yul\":5403:5407   */\n      0x00\n        /* \"#utility.yul\":5432:5434   */\n      0x20\n        /* \"#utility.yul\":5461:5463   */\n      dup1\n        /* \"#utility.yul\":5450:5459   */\n      dup4\n        /* \"#utility.yul\":5443:5464   */\n      mstore\n        /* \"#utility.yul\":5493:5499   */\n      dup4\n        /* \"#utility.yul\":5487:5500   */\n      mload\n        /* \"#utility.yul\":5536:5542   */\n      dup1\n        /* \"#utility.yul\":5531:5533   */\n      dup3\n        /* \"#utility.yul\":5520:5529   */\n      dup6\n        /* \"#utility.yul\":5516:5534   */\n      add\n        /* \"#utility.yul\":5509:5543   */\n      mstore\n        /* \"#utility.yul\":5561:5562   */\n      0x00\n        /* \"#utility.yul\":5571:5711   */\n    tag_185:\n        /* \"#utility.yul\":5585:5591   */\n      dup2\n        /* \"#utility.yul\":5582:5583   */\n      dup2\n        /* \"#utility.yul\":5579:5592   */\n      lt\n        /* \"#utility.yul\":5571:5711   */\n      iszero\n      tag_187\n      jumpi\n        /* \"#utility.yul\":5680:5694   */\n      dup6\n      dup2\n      add\n        /* \"#utility.yul\":5676:5699   */\n      dup4\n      add\n        /* \"#utility.yul\":5670:5700   */\n      mload\n        /* \"#utility.yul\":5646:5663   */\n      dup6\n      dup3\n      add\n        /* \"#utility.yul\":5665:5667   */\n      0x40\n        /* \"#utility.yul\":5642:5668   */\n      add\n        /* \"#utility.yul\":5635:5701   */\n      mstore\n        /* \"#utility.yul\":5600:5610   */\n      dup3\n      add\n        /* \"#utility.yul\":5571:5711   */\n      jump(tag_185)\n    tag_187:\n        /* \"#utility.yul\":5729:5735   */\n      dup2\n        /* \"#utility.yul\":5726:5727   */\n      dup2\n        /* \"#utility.yul\":5723:5736   */\n      gt\n        /* \"#utility.yul\":5720:5811   */\n      iszero\n      tag_188\n      jumpi\n        /* \"#utility.yul\":5799:5800   */\n      0x00\n        /* \"#utility.yul\":5794:5796   */\n      0x40\n        /* \"#utility.yul\":5785:5791   */\n      dup4\n        /* \"#utility.yul\":5774:5783   */\n      dup8\n        /* \"#utility.yul\":5770:5792   */\n      add\n        /* \"#utility.yul\":5766:5797   */\n      add\n        /* \"#utility.yul\":5759:5801   */\n      mstore\n        /* \"#utility.yul\":5720:5811   */\n    tag_188:\n      pop\n        /* \"#utility.yul\":5872:5874   */\n      0x1f\n        /* \"#utility.yul\":5851:5866   */\n      add\n      not(0x1f)\n        /* \"#utility.yul\":5847:5876   */\n      and\n        /* \"#utility.yul\":5832:5877   */\n      swap3\n      swap1\n      swap3\n      add\n        /* \"#utility.yul\":5879:5881   */\n      0x40\n        /* \"#utility.yul\":5828:5882   */\n      add\n      swap4\n        /* \"#utility.yul\":5291:5888   */\n      swap3\n      pop\n      pop\n      pop\n      jump\t// out\n\n    auxdata: 0xa264697066735822122044c86817f27656ff4fdbbd72a63858eeabbccac5de512229dad1054a91720ba564736f6c634300080b0033\n}\n",
				"bytecode": {
					"linkReferences": {},
					"object": "608060405234801561001057600080fd5b50600f6000556050600155610a968061002a6000396000f3fe608060405234801561001057600080fd5b50600436106100c95760003560e01c8063a3ec138d11610081578063cb79c2e11161005b578063cb79c2e114610174578063cbb3e1521461017d578063e73e14bf1461018557600080fd5b8063a3ec138d14610125578063a7771ee314610158578063b87da76d1461016b57600080fd5b8063632a9a52116100b2578063632a9a52146100f45780638891cf0d146100fc578063a143a5f21461010557600080fd5b8063070c8b74146100ce5780635f5300ff146100d8575b600080fd5b6100d6610210565b005b6100e160055481565b6040519081526020015b60405180910390f35b6100d661031f565b6100e160015481565b6100e161011336600461092d565b60076020526000908152604090205481565b610148610133366004610946565b60066020526000908152604090205460ff1681565b60405190151581526020016100eb565b610148610166366004610946565b610442565b6100e160025481565b6100e160005481565b6100e16104b9565b610198610193366004610946565b6104ec565b6040516100eb9190600061012082019050825182526020830151602083015260408301516001600160a01b0381511660408401526020810151606084015260408101516080840152606081015160a0840152608081015160c084015260a081015160e084015260c08101516101008401525092915050565b61021861069a565b3360009081526006602052604090205460ff1615156001146102815760405162461bcd60e51b815260206004820152601360248201527f596f7520617265206e6f74206120766f7465720000000000000000000000000060448201526064015b60405180910390fd5b336000908152600660209081526040808320600454845260019081019092529091205460ff161515146102f65760405162461bcd60e51b815260206004820152601660248201527f596f752068617665206e6f7420766f74656420796574000000000000000000006044820152606401610278565b6004546000908152600760205260408120805460019290610318908490610985565b9091555050565b61032761069a565b3360009081526006602052604090205460ff16151560011461038b5760405162461bcd60e51b815260206004820152601360248201527f596f7520617265206e6f74206120766f746572000000000000000000000000006044820152606401610278565b336000908152600660209081526040808320600454845260010190915290205460ff16156103fb5760405162461bcd60e51b815260206004820152601560248201527f596f75206861766520766f746564206265666f726500000000000000000000006044820152606401610278565b33600090815260066020908152604080832060048054855260019182018452828520805460ff1916831790555484526007909252822080549192909161031890849061099c565b60006001600160a01b03821661049a5760405162461bcd60e51b815260206004820152600f60248201527f496e76616c6964206164647265737300000000000000000000000000000000006044820152606401610278565b506001600160a01b031660009081526006602052604090205460ff1690565b60006002546000146104e65762093a80600254426104d79190610985565b6104e191906109ca565b905090565b50600090565b6104f46108c6565b6001600160a01b03808316600090815260086020818152604080842081516101408101835281548716606080830191825260018401546080840152600284015460a0840152600384015460c0840152600484015460e084015260058401546101008401526006840154610120840152908252600783015490971681850152930154838201528051948501815283855284820193909352815192840183905291909101519091906105e65760405162461bcd60e51b815260206004820152600e60248201527f4e6f207374616b6520666f756e640000000000000000000000000000000000006044820152606401610278565b60006105f582604001516106ee565b9050600042836040015160c0015111156106325760008061061e8560400151602001518561074c565b909250905061062d818361099c565b925050505b60006106418560400151610780565b111561066957600061065a846040015160200151610799565b60408501516080015250610677565b604083015160006080909101525b604083018051606001929092526020808401919091529051015181529392505050565b60035460ff166106ec5760405162461bcd60e51b815260206004820152601760248201527f566f74696e67206973206e6f7420617661696c61626c650000000000000000006044820152606401610278565b565b600081602001516000141561070557506000919050565b6a52b7d2dcc80cd2e400000061071e83604001516107bb565b8360a00151846020015161073291906109ec565b61073c91906109ec565b61074691906109ca565b92915050565b60008061076661075e8560005461086d565b6103e8610880565b61077561075e8560005461086d565b915091509250929050565b600061074662093a806107938442610985565b90610880565b60006301dfe2006103e8600154846107b191906109ec565b61073c91906109ca565b600080821161080c5760405162461bcd60e51b815260206004820152601160248201527f4572726f722074696d657374616d7020300000000000000000000000000000006044820152606401610278565b6107466108198342610985565b61082d9069d3c21bcecceda10000006109ec565b6301e133806040518060400160405280601d81526020017f4572726f722063616e6e6f74206469766964652074696d657374616d7000000081525061088c565b600061087982846109ec565b9392505050565b600061087982846109ca565b600081836108ad5760405162461bcd60e51b81526004016102789190610a0b565b508284816108bd576108bd6109b4565b04949350505050565b604051806060016040528060008152602001600081526020016109286040518060e0016040528060006001600160a01b031681526020016000815260200160008152602001600081526020016000815260200160008152602001600081525090565b905290565b60006020828403121561093f57600080fd5b5035919050565b60006020828403121561095857600080fd5b81356001600160a01b038116811461087957600080fd5b634e487b7160e01b600052601160045260246000fd5b6000828210156109975761099761096f565b500390565b600082198211156109af576109af61096f565b500190565b634e487b7160e01b600052601260045260246000fd5b6000826109e757634e487b7160e01b600052601260045260246000fd5b500490565b6000816000190483118215151615610a0657610a0661096f565b500290565b600060208083528351808285015260005b81811015610a3857858101830151858201604001528201610a1c565b81811115610a4a576000604083870101525b50601f01601f191692909201604001939250505056fea264697066735822122044c86817f27656ff4fdbbd72a63858eeabbccac5de512229dad1054a91720ba564736f6c634300080b0033",
					"opcodes": "PUSH1 0x80 PUSH1 0x40 MSTORE CALLVALUE DUP1 ISZERO PUSH2 0x10 JUMPI PUSH1 0x0 DUP1 REVERT JUMPDEST POP PUSH1 0xF PUSH1 0x0 SSTORE PUSH1 0x50 PUSH1 0x1 SSTORE PUSH2 0xA96 DUP1 PUSH2 0x2A PUSH1 0x0 CODECOPY PUSH1 0x0 RETURN INVALID PUSH1 0x80 PUSH1 0x40 MSTORE CALLVALUE DUP1 ISZERO PUSH2 0x10 JUMPI PUSH1 0x0 DUP1 REVERT JUMPDEST POP PUSH1 0x4 CALLDATASIZE LT PUSH2 0xC9 JUMPI PUSH1 0x0 CALLDATALOAD PUSH1 0xE0 SHR DUP1 PUSH4 0xA3EC138D GT PUSH2 0x81 JUMPI DUP1 PUSH4 0xCB79C2E1 GT PUSH2 0x5B JUMPI DUP1 PUSH4 0xCB79C2E1 EQ PUSH2 0x174 JUMPI DUP1 PUSH4 0xCBB3E152 EQ PUSH2 0x17D JUMPI DUP1 PUSH4 0xE73E14BF EQ PUSH2 0x185 JUMPI PUSH1 0x0 DUP1 REVERT JUMPDEST DUP1 PUSH4 0xA3EC138D EQ PUSH2 0x125 JUMPI DUP1 PUSH4 0xA7771EE3 EQ PUSH2 0x158 JUMPI DUP1 PUSH4 0xB87DA76D EQ PUSH2 0x16B JUMPI PUSH1 0x0 DUP1 REVERT JUMPDEST DUP1 PUSH4 0x632A9A52 GT PUSH2 0xB2 JUMPI DUP1 PUSH4 0x632A9A52 EQ PUSH2 0xF4 JUMPI DUP1 PUSH4 0x8891CF0D EQ PUSH2 0xFC JUMPI DUP1 PUSH4 0xA143A5F2 EQ PUSH2 0x105 JUMPI PUSH1 0x0 DUP1 REVERT JUMPDEST DUP1 PUSH4 0x70C8B74 EQ PUSH2 0xCE JUMPI DUP1 PUSH4 0x5F5300FF EQ PUSH2 0xD8 JUMPI JUMPDEST PUSH1 0x0 DUP1 REVERT JUMPDEST PUSH2 0xD6 PUSH2 0x210 JUMP JUMPDEST STOP JUMPDEST PUSH2 0xE1 PUSH1 0x5 SLOAD DUP2 JUMP JUMPDEST PUSH1 0x40 MLOAD SWAP1 DUP2 MSTORE PUSH1 0x20 ADD JUMPDEST PUSH1 0x40 MLOAD DUP1 SWAP2 SUB SWAP1 RETURN JUMPDEST PUSH2 0xD6 PUSH2 0x31F JUMP JUMPDEST PUSH2 0xE1 PUSH1 0x1 SLOAD DUP2 JUMP JUMPDEST PUSH2 0xE1 PUSH2 0x113 CALLDATASIZE PUSH1 0x4 PUSH2 0x92D JUMP JUMPDEST PUSH1 0x7 PUSH1 0x20 MSTORE PUSH1 0x0 SWAP1 DUP2 MSTORE PUSH1 0x40 SWAP1 KECCAK256 SLOAD DUP2 JUMP JUMPDEST PUSH2 0x148 PUSH2 0x133 CALLDATASIZE PUSH1 0x4 PUSH2 0x946 JUMP JUMPDEST PUSH1 0x6 PUSH1 0x20 MSTORE PUSH1 0x0 SWAP1 DUP2 MSTORE PUSH1 0x40 SWAP1 KECCAK256 SLOAD PUSH1 0xFF AND DUP2 JUMP JUMPDEST PUSH1 0x40 MLOAD SWAP1 ISZERO ISZERO DUP2 MSTORE PUSH1 0x20 ADD PUSH2 0xEB JUMP JUMPDEST PUSH2 0x148 PUSH2 0x166 CALLDATASIZE PUSH1 0x4 PUSH2 0x946 JUMP JUMPDEST PUSH2 0x442 JUMP JUMPDEST PUSH2 0xE1 PUSH1 0x2 SLOAD DUP2 JUMP JUMPDEST PUSH2 0xE1 PUSH1 0x0 SLOAD DUP2 JUMP JUMPDEST PUSH2 0xE1 PUSH2 0x4B9 JUMP JUMPDEST PUSH2 0x198 PUSH2 0x193 CALLDATASIZE PUSH1 0x4 PUSH2 0x946 JUMP JUMPDEST PUSH2 0x4EC JUMP JUMPDEST PUSH1 0x40 MLOAD PUSH2 0xEB SWAP2 SWAP1 PUSH1 0x0 PUSH2 0x120 DUP3 ADD SWAP1 POP DUP3 MLOAD DUP3 MSTORE PUSH1 0x20 DUP4 ADD MLOAD PUSH1 0x20 DUP4 ADD MSTORE PUSH1 0x40 DUP4 ADD MLOAD PUSH1 0x1 PUSH1 0x1 PUSH1 0xA0 SHL SUB DUP2 MLOAD AND PUSH1 0x40 DUP5 ADD MSTORE PUSH1 0x20 DUP2 ADD MLOAD PUSH1 0x60 DUP5 ADD MSTORE PUSH1 0x40 DUP2 ADD MLOAD PUSH1 0x80 DUP5 ADD MSTORE PUSH1 0x60 DUP2 ADD MLOAD PUSH1 0xA0 DUP5 ADD MSTORE PUSH1 0x80 DUP2 ADD MLOAD PUSH1 0xC0 DUP5 ADD MSTORE PUSH1 0xA0 DUP2 ADD MLOAD PUSH1 0xE0 DUP5 ADD MSTORE PUSH1 0xC0 DUP2 ADD MLOAD PUSH2 0x100 DUP5 ADD MSTORE POP SWAP3 SWAP2 POP POP JUMP JUMPDEST PUSH2 0x218 PUSH2 0x69A JUMP JUMPDEST CALLER PUSH1 0x0 SWAP1 DUP2 MSTORE PUSH1 0x6 PUSH1 0x20 MSTORE PUSH1 0x40 SWAP1 KECCAK256 SLOAD PUSH1 0xFF AND ISZERO ISZERO PUSH1 0x1 EQ PUSH2 0x281 JUMPI PUSH1 0x40 MLOAD PUSH3 0x461BCD PUSH1 0xE5 SHL DUP2 MSTORE PUSH1 0x20 PUSH1 0x4 DUP3 ADD MSTORE PUSH1 0x13 PUSH1 0x24 DUP3 ADD MSTORE PUSH32 0x596F7520617265206E6F74206120766F74657200000000000000000000000000 PUSH1 0x44 DUP3 ADD MSTORE PUSH1 0x64 ADD JUMPDEST PUSH1 0x40 MLOAD DUP1 SWAP2 SUB SWAP1 REVERT JUMPDEST CALLER PUSH1 0x0 SWAP1 DUP2 MSTORE PUSH1 0x6 PUSH1 0x20 SWAP1 DUP2 MSTORE PUSH1 0x40 DUP1 DUP4 KECCAK256 PUSH1 0x4 SLOAD DUP5 MSTORE PUSH1 0x1 SWAP1 DUP2 ADD SWAP1 SWAP3 MSTORE SWAP1 SWAP2 KECCAK256 SLOAD PUSH1 0xFF AND ISZERO ISZERO EQ PUSH2 0x2F6 JUMPI PUSH1 0x40 MLOAD PUSH3 0x461BCD PUSH1 0xE5 SHL DUP2 MSTORE PUSH1 0x20 PUSH1 0x4 DUP3 ADD MSTORE PUSH1 0x16 PUSH1 0x24 DUP3 ADD MSTORE PUSH32 0x596F752068617665206E6F7420766F7465642079657400000000000000000000 PUSH1 0x44 DUP3 ADD MSTORE PUSH1 0x64 ADD PUSH2 0x278 JUMP JUMPDEST PUSH1 0x4 SLOAD PUSH1 0x0 SWAP1 DUP2 MSTORE PUSH1 0x7 PUSH1 0x20 MSTORE PUSH1 0x40 DUP2 KECCAK256 DUP1 SLOAD PUSH1 0x1 SWAP3 SWAP1 PUSH2 0x318 SWAP1 DUP5 SWAP1 PUSH2 0x985 JUMP JUMPDEST SWAP1 SWAP2 SSTORE POP POP JUMP JUMPDEST PUSH2 0x327 PUSH2 0x69A JUMP JUMPDEST CALLER PUSH1 0x0 SWAP1 DUP2 MSTORE PUSH1 0x6 PUSH1 0x20 MSTORE PUSH1 0x40 SWAP1 KECCAK256 SLOAD PUSH1 0xFF AND ISZERO ISZERO PUSH1 0x1 EQ PUSH2 0x38B JUMPI PUSH1 0x40 MLOAD PUSH3 0x461BCD PUSH1 0xE5 SHL DUP2 MSTORE PUSH1 0x20 PUSH1 0x4 DUP3 ADD MSTORE PUSH1 0x13 PUSH1 0x24 DUP3 ADD MSTORE PUSH32 0x596F7520617265206E6F74206120766F74657200000000000000000000000000 PUSH1 0x44 DUP3 ADD MSTORE PUSH1 0x64 ADD PUSH2 0x278 JUMP JUMPDEST CALLER PUSH1 0x0 SWAP1 DUP2 MSTORE PUSH1 0x6 PUSH1 0x20 SWAP1 DUP2 MSTORE PUSH1 0x40 DUP1 DUP4 KECCAK256 PUSH1 0x4 SLOAD DUP5 MSTORE PUSH1 0x1 ADD SWAP1 SWAP2 MSTORE SWAP1 KECCAK256 SLOAD PUSH1 0xFF AND ISZERO PUSH2 0x3FB JUMPI PUSH1 0x40 MLOAD PUSH3 0x461BCD PUSH1 0xE5 SHL DUP2 MSTORE PUSH1 0x20 PUSH1 0x4 DUP3 ADD MSTORE PUSH1 0x15 PUSH1 0x24 DUP3 ADD MSTORE PUSH32 0x596F75206861766520766F746564206265666F72650000000000000000000000 PUSH1 0x44 DUP3 ADD MSTORE PUSH1 0x64 ADD PUSH2 0x278 JUMP JUMPDEST CALLER PUSH1 0x0 SWAP1 DUP2 MSTORE PUSH1 0x6 PUSH1 0x20 SWAP1 DUP2 MSTORE PUSH1 0x40 DUP1 DUP4 KECCAK256 PUSH1 0x4 DUP1 SLOAD DUP6 MSTORE PUSH1 0x1 SWAP2 DUP3 ADD DUP5 MSTORE DUP3 DUP6 KECCAK256 DUP1 SLOAD PUSH1 0xFF NOT AND DUP4 OR SWAP1 SSTORE SLOAD DUP5 MSTORE PUSH1 0x7 SWAP1 SWAP3 MSTORE DUP3 KECCAK256 DUP1 SLOAD SWAP2 SWAP3 SWAP1 SWAP2 PUSH2 0x318 SWAP1 DUP5 SWAP1 PUSH2 0x99C JUMP JUMPDEST PUSH1 0x0 PUSH1 0x1 PUSH1 0x1 PUSH1 0xA0 SHL SUB DUP3 AND PUSH2 0x49A JUMPI PUSH1 0x40 MLOAD PUSH3 0x461BCD PUSH1 0xE5 SHL DUP2 MSTORE PUSH1 0x20 PUSH1 0x4 DUP3 ADD MSTORE PUSH1 0xF PUSH1 0x24 DUP3 ADD MSTORE PUSH32 0x496E76616C696420616464726573730000000000000000000000000000000000 PUSH1 0x44 DUP3 ADD MSTORE PUSH1 0x64 ADD PUSH2 0x278 JUMP JUMPDEST POP PUSH1 0x1 PUSH1 0x1 PUSH1 0xA0 SHL SUB AND PUSH1 0x0 SWAP1 DUP2 MSTORE PUSH1 0x6 PUSH1 0x20 MSTORE PUSH1 0x40 SWAP1 KECCAK256 SLOAD PUSH1 0xFF AND SWAP1 JUMP JUMPDEST PUSH1 0x0 PUSH1 0x2 SLOAD PUSH1 0x0 EQ PUSH2 0x4E6 JUMPI PUSH3 0x93A80 PUSH1 0x2 SLOAD TIMESTAMP PUSH2 0x4D7 SWAP2 SWAP1 PUSH2 0x985 JUMP JUMPDEST PUSH2 0x4E1 SWAP2 SWAP1 PUSH2 0x9CA JUMP JUMPDEST SWAP1 POP SWAP1 JUMP JUMPDEST POP PUSH1 0x0 SWAP1 JUMP JUMPDEST PUSH2 0x4F4 PUSH2 0x8C6 JUMP JUMPDEST PUSH1 0x1 PUSH1 0x1 PUSH1 0xA0 SHL SUB DUP1 DUP4 AND PUSH1 0x0 SWAP1 DUP2 MSTORE PUSH1 0x8 PUSH1 0x20 DUP2 DUP2 MSTORE PUSH1 0x40 DUP1 DUP5 KECCAK256 DUP2 MLOAD PUSH2 0x140 DUP2 ADD DUP4 MSTORE DUP2 SLOAD DUP8 AND PUSH1 0x60 DUP1 DUP4 ADD SWAP2 DUP3 MSTORE PUSH1 0x1 DUP5 ADD SLOAD PUSH1 0x80 DUP5 ADD MSTORE PUSH1 0x2 DUP5 ADD SLOAD PUSH1 0xA0 DUP5 ADD MSTORE PUSH1 0x3 DUP5 ADD SLOAD PUSH1 0xC0 DUP5 ADD MSTORE PUSH1 0x4 DUP5 ADD SLOAD PUSH1 0xE0 DUP5 ADD MSTORE PUSH1 0x5 DUP5 ADD SLOAD PUSH2 0x100 DUP5 ADD MSTORE PUSH1 0x6 DUP5 ADD SLOAD PUSH2 0x120 DUP5 ADD MSTORE SWAP1 DUP3 MSTORE PUSH1 0x7 DUP4 ADD SLOAD SWAP1 SWAP8 AND DUP2 DUP6 ADD MSTORE SWAP4 ADD SLOAD DUP4 DUP3 ADD MSTORE DUP1 MLOAD SWAP5 DUP6 ADD DUP2 MSTORE DUP4 DUP6 MSTORE DUP5 DUP3 ADD SWAP4 SWAP1 SWAP4 MSTORE DUP2 MLOAD SWAP3 DUP5 ADD DUP4 SWAP1 MSTORE SWAP2 SWAP1 SWAP2 ADD MLOAD SWAP1 SWAP2 SWAP1 PUSH2 0x5E6 JUMPI PUSH1 0x40 MLOAD PUSH3 0x461BCD PUSH1 0xE5 SHL DUP2 MSTORE PUSH1 0x20 PUSH1 0x4 DUP3 ADD MSTORE PUSH1 0xE PUSH1 0x24 DUP3 ADD MSTORE PUSH32 0x4E6F207374616B6520666F756E64000000000000000000000000000000000000 PUSH1 0x44 DUP3 ADD MSTORE PUSH1 0x64 ADD PUSH2 0x278 JUMP JUMPDEST PUSH1 0x0 PUSH2 0x5F5 DUP3 PUSH1 0x40 ADD MLOAD PUSH2 0x6EE JUMP JUMPDEST SWAP1 POP PUSH1 0x0 TIMESTAMP DUP4 PUSH1 0x40 ADD MLOAD PUSH1 0xC0 ADD MLOAD GT ISZERO PUSH2 0x632 JUMPI PUSH1 0x0 DUP1 PUSH2 0x61E DUP6 PUSH1 0x40 ADD MLOAD PUSH1 0x20 ADD MLOAD DUP6 PUSH2 0x74C JUMP JUMPDEST SWAP1 SWAP3 POP SWAP1 POP PUSH2 0x62D DUP2 DUP4 PUSH2 0x99C JUMP JUMPDEST SWAP3 POP POP POP JUMPDEST PUSH1 0x0 PUSH2 0x641 DUP6 PUSH1 0x40 ADD MLOAD PUSH2 0x780 JUMP JUMPDEST GT ISZERO PUSH2 0x669 JUMPI PUSH1 0x0 PUSH2 0x65A DUP5 PUSH1 0x40 ADD MLOAD PUSH1 0x20 ADD MLOAD PUSH2 0x799 JUMP JUMPDEST PUSH1 0x40 DUP6 ADD MLOAD PUSH1 0x80 ADD MSTORE POP PUSH2 0x677 JUMP JUMPDEST PUSH1 0x40 DUP4 ADD MLOAD PUSH1 0x0 PUSH1 0x80 SWAP1 SWAP2 ADD MSTORE JUMPDEST PUSH1 0x40 DUP4 ADD DUP1 MLOAD PUSH1 0x60 ADD SWAP3 SWAP1 SWAP3 MSTORE PUSH1 0x20 DUP1 DUP5 ADD SWAP2 SWAP1 SWAP2 MSTORE SWAP1 MLOAD ADD MLOAD DUP2 MSTORE SWAP4 SWAP3 POP POP POP JUMP JUMPDEST PUSH1 0x3 SLOAD PUSH1 0xFF AND PUSH2 0x6EC JUMPI PUSH1 0x40 MLOAD PUSH3 0x461BCD PUSH1 0xE5 SHL DUP2 MSTORE PUSH1 0x20 PUSH1 0x4 DUP3 ADD MSTORE PUSH1 0x17 PUSH1 0x24 DUP3 ADD MSTORE PUSH32 0x566F74696E67206973206E6F7420617661696C61626C65000000000000000000 PUSH1 0x44 DUP3 ADD MSTORE PUSH1 0x64 ADD PUSH2 0x278 JUMP JUMPDEST JUMP JUMPDEST PUSH1 0x0 DUP2 PUSH1 0x20 ADD MLOAD PUSH1 0x0 EQ ISZERO PUSH2 0x705 JUMPI POP PUSH1 0x0 SWAP2 SWAP1 POP JUMP JUMPDEST PUSH11 0x52B7D2DCC80CD2E4000000 PUSH2 0x71E DUP4 PUSH1 0x40 ADD MLOAD PUSH2 0x7BB JUMP JUMPDEST DUP4 PUSH1 0xA0 ADD MLOAD DUP5 PUSH1 0x20 ADD MLOAD PUSH2 0x732 SWAP2 SWAP1 PUSH2 0x9EC JUMP JUMPDEST PUSH2 0x73C SWAP2 SWAP1 PUSH2 0x9EC JUMP JUMPDEST PUSH2 0x746 SWAP2 SWAP1 PUSH2 0x9CA JUMP JUMPDEST SWAP3 SWAP2 POP POP JUMP JUMPDEST PUSH1 0x0 DUP1 PUSH2 0x766 PUSH2 0x75E DUP6 PUSH1 0x0 SLOAD PUSH2 0x86D JUMP JUMPDEST PUSH2 0x3E8 PUSH2 0x880 JUMP JUMPDEST PUSH2 0x775 PUSH2 0x75E DUP6 PUSH1 0x0 SLOAD PUSH2 0x86D JUMP JUMPDEST SWAP2 POP SWAP2 POP SWAP3 POP SWAP3 SWAP1 POP JUMP JUMPDEST PUSH1 0x0 PUSH2 0x746 PUSH3 0x93A80 PUSH2 0x793 DUP5 TIMESTAMP PUSH2 0x985 JUMP JUMPDEST SWAP1 PUSH2 0x880 JUMP JUMPDEST PUSH1 0x0 PUSH4 0x1DFE200 PUSH2 0x3E8 PUSH1 0x1 SLOAD DUP5 PUSH2 0x7B1 SWAP2 SWAP1 PUSH2 0x9EC JUMP JUMPDEST PUSH2 0x73C SWAP2 SWAP1 PUSH2 0x9CA JUMP JUMPDEST PUSH1 0x0 DUP1 DUP3 GT PUSH2 0x80C JUMPI PUSH1 0x40 MLOAD PUSH3 0x461BCD PUSH1 0xE5 SHL DUP2 MSTORE PUSH1 0x20 PUSH1 0x4 DUP3 ADD MSTORE PUSH1 0x11 PUSH1 0x24 DUP3 ADD MSTORE PUSH32 0x4572726F722074696D657374616D702030000000000000000000000000000000 PUSH1 0x44 DUP3 ADD MSTORE PUSH1 0x64 ADD PUSH2 0x278 JUMP JUMPDEST PUSH2 0x746 PUSH2 0x819 DUP4 TIMESTAMP PUSH2 0x985 JUMP JUMPDEST PUSH2 0x82D SWAP1 PUSH10 0xD3C21BCECCEDA1000000 PUSH2 0x9EC JUMP JUMPDEST PUSH4 0x1E13380 PUSH1 0x40 MLOAD DUP1 PUSH1 0x40 ADD PUSH1 0x40 MSTORE DUP1 PUSH1 0x1D DUP2 MSTORE PUSH1 0x20 ADD PUSH32 0x4572726F722063616E6E6F74206469766964652074696D657374616D70000000 DUP2 MSTORE POP PUSH2 0x88C JUMP JUMPDEST PUSH1 0x0 PUSH2 0x879 DUP3 DUP5 PUSH2 0x9EC JUMP JUMPDEST SWAP4 SWAP3 POP POP POP JUMP JUMPDEST PUSH1 0x0 PUSH2 0x879 DUP3 DUP5 PUSH2 0x9CA JUMP JUMPDEST PUSH1 0x0 DUP2 DUP4 PUSH2 0x8AD JUMPI PUSH1 0x40 MLOAD PUSH3 0x461BCD PUSH1 0xE5 SHL DUP2 MSTORE PUSH1 0x4 ADD PUSH2 0x278 SWAP2 SWAP1 PUSH2 0xA0B JUMP JUMPDEST POP DUP3 DUP5 DUP2 PUSH2 0x8BD JUMPI PUSH2 0x8BD PUSH2 0x9B4 JUMP JUMPDEST DIV SWAP5 SWAP4 POP POP POP POP JUMP JUMPDEST PUSH1 0x40 MLOAD DUP1 PUSH1 0x60 ADD PUSH1 0x40 MSTORE DUP1 PUSH1 0x0 DUP2 MSTORE PUSH1 0x20 ADD PUSH1 0x0 DUP2 MSTORE PUSH1 0x20 ADD PUSH2 0x928 PUSH1 0x40 MLOAD DUP1 PUSH1 0xE0 ADD PUSH1 0x40 MSTORE DUP1 PUSH1 0x0 PUSH1 0x1 PUSH1 0x1 PUSH1 0xA0 SHL SUB AND DUP2 MSTORE PUSH1 0x20 ADD PUSH1 0x0 DUP2 MSTORE PUSH1 0x20 ADD PUSH1 0x0 DUP2 MSTORE PUSH1 0x20 ADD PUSH1 0x0 DUP2 MSTORE PUSH1 0x20 ADD PUSH1 0x0 DUP2 MSTORE PUSH1 0x20 ADD PUSH1 0x0 DUP2 MSTORE PUSH1 0x20 ADD PUSH1 0x0 DUP2 MSTORE POP SWAP1 JUMP JUMPDEST SWAP1 MSTORE SWAP1 JUMP JUMPDEST PUSH1 0x0 PUSH1 0x20 DUP3 DUP5 SUB SLT ISZERO PUSH2 0x93F JUMPI PUSH1 0x0 DUP1 REVERT JUMPDEST POP CALLDATALOAD SWAP2 SWAP1 POP JUMP JUMPDEST PUSH1 0x0 PUSH1 0x20 DUP3 DUP5 SUB SLT ISZERO PUSH2 0x958 JUMPI PUSH1 0x0 DUP1 REVERT JUMPDEST DUP2 CALLDATALOAD PUSH1 0x1 PUSH1 0x1 PUSH1 0xA0 SHL SUB DUP2 AND DUP2 EQ PUSH2 0x879 JUMPI PUSH1 0x0 DUP1 REVERT JUMPDEST PUSH4 0x4E487B71 PUSH1 0xE0 SHL PUSH1 0x0 MSTORE PUSH1 0x11 PUSH1 0x4 MSTORE PUSH1 0x24 PUSH1 0x0 REVERT JUMPDEST PUSH1 0x0 DUP3 DUP3 LT ISZERO PUSH2 0x997 JUMPI PUSH2 0x997 PUSH2 0x96F JUMP JUMPDEST POP SUB SWAP1 JUMP JUMPDEST PUSH1 0x0 DUP3 NOT DUP3 GT ISZERO PUSH2 0x9AF JUMPI PUSH2 0x9AF PUSH2 0x96F JUMP JUMPDEST POP ADD SWAP1 JUMP JUMPDEST PUSH4 0x4E487B71 PUSH1 0xE0 SHL PUSH1 0x0 MSTORE PUSH1 0x12 PUSH1 0x4 MSTORE PUSH1 0x24 PUSH1 0x0 REVERT JUMPDEST PUSH1 0x0 DUP3 PUSH2 0x9E7 JUMPI PUSH4 0x4E487B71 PUSH1 0xE0 SHL PUSH1 0x0 MSTORE PUSH1 0x12 PUSH1 0x4 MSTORE PUSH1 0x24 PUSH1 0x0 REVERT JUMPDEST POP DIV SWAP1 JUMP JUMPDEST PUSH1 0x0 DUP2 PUSH1 0x0 NOT DIV DUP4 GT DUP3 ISZERO ISZERO AND ISZERO PUSH2 0xA06 JUMPI PUSH2 0xA06 PUSH2 0x96F JUMP JUMPDEST POP MUL SWAP1 JUMP JUMPDEST PUSH1 0x0 PUSH1 0x20 DUP1 DUP4 MSTORE DUP4 MLOAD DUP1 DUP3 DUP6 ADD MSTORE PUSH1 0x0 JUMPDEST DUP2 DUP2 LT ISZERO PUSH2 0xA38 JUMPI DUP6 DUP2 ADD DUP4 ADD MLOAD DUP6 DUP3 ADD PUSH1 0x40 ADD MSTORE DUP3 ADD PUSH2 0xA1C JUMP JUMPDEST DUP2 DUP2 GT ISZERO PUSH2 0xA4A JUMPI PUSH1 0x0 PUSH1 0x40 DUP4 DUP8 ADD ADD MSTORE JUMPDEST POP PUSH1 0x1F ADD PUSH1 0x1F NOT AND SWAP3 SWAP1 SWAP3 ADD PUSH1 0x40 ADD SWAP4 SWAP3 POP POP POP JUMP INVALID LOG2 PUSH5 0x6970667358 0x22 SLT KECCAK256 DIFFICULTY 0xC8 PUSH9 0x17F27656FF4FDBBD72 0xA6 CODESIZE PC 0xEE 0xAB 0xBC 0xCA 0xC5 0xDE MLOAD 0x22 0x29 0xDA 0xD1 SDIV 0x4A SWAP2 PUSH19 0xBA564736F6C634300080B0033000000000000 "
				},
				"gasEstimates": {
					"creation": {
						"codeDepositCost": "542000",
						"executionCost": "44787",
						"totalCost": "586787"
					},
					"external": {
						"airdropRate()": "2329",
						"airdropSince()": "2351",
						"airdropWeek()": "4602",
						"hasStake(address)": "infinite",
						"isVoter(address)": "2611",
						"retractVote()": "35369",
						"stakingPenaltyRate()": "2306",
						"totalVoters()": "2330",
						"vote()": "61829",
						"votedUsers(uint256)": "2494",
						"voters(address)": "2519"
					},
					"internal": {
						"_calculateAirdrop(uint256)": "infinite",
						"_calculateWeek(uint256)": "193",
						"_changeAirdropPercentage(uint256)": "infinite",
						"_changePenaltyFee(uint256)": "infinite",
						"_check_votingStatus()": "infinite",
						"_claimAirdrop(address)": "infinite",
						"_getVotingResult()": "infinite",
						"_stake(address,uint256,uint256,uint256)": "infinite",
						"_startAirdropSince()": "infinite",
						"_startVoting()": "infinite",
						"_stopVoting()": "infinite",
						"_withdrawStake(address)": "infinite",
						"calculatePenalty(uint256,uint256)": "infinite",
						"calculateStakeReward(struct Stakable.Stake memory)": "infinite",
						"calculateStakingDuration(uint256)": "infinite",
						"calculateStakingWithPenalty(uint256,uint256)": "infinite"
					}
				},
				"methodIdentifiers": {
					"airdropRate()": "8891cf0d",
					"airdropSince()": "b87da76d",
					"airdropWeek()": "cbb3e152",
					"hasStake(address)": "e73e14bf",
					"isVoter(address)": "a7771ee3",
					"retractVote()": "070c8b74",
					"stakingPenaltyRate()": "cb79c2e1",
					"totalVoters()": "5f5300ff",
					"vote()": "632a9a52",
					"votedUsers(uint256)": "a143a5f2",
					"voters(address)": "a3ec138d"
				}
			},
			"storageLayout": {
				"storage": [
					{
						"astId": 328,
						"contract": "contracts/Stakable.sol:Stakable",
						"label": "stakingPenaltyRate",
						"offset": 0,
						"slot": "0",
						"type": "t_uint256"
					},
					{
						"astId": 330,
						"contract": "contracts/Stakable.sol:Stakable",
						"label": "airdropRate",
						"offset": 0,
						"slot": "1",
						"type": "t_uint256"
					},
					{
						"astId": 332,
						"contract": "contracts/Stakable.sol:Stakable",
						"label": "airdropSince",
						"offset": 0,
						"slot": "2",
						"type": "t_uint256"
					},
					{
						"astId": 334,
						"contract": "contracts/Stakable.sol:Stakable",
						"label": "_votingStatus",
						"offset": 0,
						"slot": "3",
						"type": "t_bool"
					},
					{
						"astId": 336,
						"contract": "contracts/Stakable.sol:Stakable",
						"label": "_votingId",
						"offset": 0,
						"slot": "4",
						"type": "t_uint256"
					},
					{
						"astId": 338,
						"contract": "contracts/Stakable.sol:Stakable",
						"label": "totalVoters",
						"offset": 0,
						"slot": "5",
						"type": "t_uint256"
					},
					{
						"astId": 343,
						"contract": "contracts/Stakable.sol:Stakable",
						"label": "voters",
						"offset": 0,
						"slot": "6",
						"type": "t_mapping(t_address,t_struct(Voter)326_storage)"
					},
					{
						"astId": 347,
						"contract": "contracts/Stakable.sol:Stakable",
						"label": "votedUsers",
						"offset": 0,
						"slot": "7",
						"type": "t_mapping(t_uint256,t_uint256)"
					},
					{
						"astId": 412,
						"contract": "contracts/Stakable.sol:Stakable",
						"label": "stakeholders",
						"offset": 0,
						"slot": "8",
						"type": "t_mapping(t_address,t_struct(Stakeholder)398_storage)"
					}
				],
				"types": {
					"t_address": {
						"encoding": "inplace",
						"label": "address",
						"numberOfBytes": "20"
					},
					"t_bool": {
						"encoding": "inplace",
						"label": "bool",
						"numberOfBytes": "1"
					},
					"t_mapping(t_address,t_struct(Stakeholder)398_storage)": {
						"encoding": "mapping",
						"key": "t_address",
						"label": "mapping(address => struct Stakable.Stakeholder)",
						"numberOfBytes": "32",
						"value": "t_struct(Stakeholder)398_storage"
					},
					"t_mapping(t_address,t_struct(Voter)326_storage)": {
						"encoding": "mapping",
						"key": "t_address",
						"label": "mapping(address => struct Stakable.Voter)",
						"numberOfBytes": "32",
						"value": "t_struct(Voter)326_storage"
					},
					"t_mapping(t_uint256,t_bool)": {
						"encoding": "mapping",
						"key": "t_uint256",
						"label": "mapping(uint256 => bool)",
						"numberOfBytes": "32",
						"value": "t_bool"
					},
					"t_mapping(t_uint256,t_uint256)": {
						"encoding": "mapping",
						"key": "t_uint256",
						"label": "mapping(uint256 => uint256)",
						"numberOfBytes": "32",
						"value": "t_uint256"
					},
					"t_struct(Stake)390_storage": {
						"encoding": "inplace",
						"label": "struct Stakable.Stake",
						"members": [
							{
								"astId": 377,
								"contract": "contracts/Stakable.sol:Stakable",
								"label": "user",
								"offset": 0,
								"slot": "0",
								"type": "t_address"
							},
							{
								"astId": 379,
								"contract": "contracts/Stakable.sol:Stakable",
								"label": "amount",
								"offset": 0,
								"slot": "1",
								"type": "t_uint256"
							},
							{
								"astId": 381,
								"contract": "contracts/Stakable.sol:Stakable",
								"label": "since",
								"offset": 0,
								"slot": "2",
								"type": "t_uint256"
							},
							{
								"astId": 383,
								"contract": "contracts/Stakable.sol:Stakable",
								"label": "claimable",
								"offset": 0,
								"slot": "3",
								"type": "t_uint256"
							},
							{
								"astId": 385,
								"contract": "contracts/Stakable.sol:Stakable",
								"label": "claimable_airdrop",
								"offset": 0,
								"slot": "4",
								"type": "t_uint256"
							},
							{
								"astId": 387,
								"contract": "contracts/Stakable.sol:Stakable",
								"label": "rewardAPY",
								"offset": 0,
								"slot": "5",
								"type": "t_uint256"
							},
							{
								"astId": 389,
								"contract": "contracts/Stakable.sol:Stakable",
								"label": "releaseTime",
								"offset": 0,
								"slot": "6",
								"type": "t_uint256"
							}
						],
						"numberOfBytes": "224"
					},
					"t_struct(Stakeholder)398_storage": {
						"encoding": "inplace",
						"label": "struct Stakable.Stakeholder",
						"members": [
							{
								"astId": 393,
								"contract": "contracts/Stakable.sol:Stakable",
								"label": "stake",
								"offset": 0,
								"slot": "0",
								"type": "t_struct(Stake)390_storage"
							},
							{
								"astId": 395,
								"contract": "contracts/Stakable.sol:Stakable",
								"label": "user",
								"offset": 0,
								"slot": "7",
								"type": "t_address"
							},
							{
								"astId": 397,
								"contract": "contracts/Stakable.sol:Stakable",
								"label": "latestClaimDrop",
								"offset": 0,
								"slot": "8",
								"type": "t_uint256"
							}
						],
						"numberOfBytes": "288"
					},
					"t_struct(Voter)326_storage": {
						"encoding": "inplace",
						"label": "struct Stakable.Voter",
						"members": [
							{
								"astId": 321,
								"contract": "contracts/Stakable.sol:Stakable",
								"label": "votingRight",
								"offset": 0,
								"slot": "0",
								"type": "t_bool"
							},
							{
								"astId": 325,
								"contract": "contracts/Stakable.sol:Stakable",
								"label": "voted",
								"offset": 0,
								"slot": "1",
								"type": "t_mapping(t_uint256,t_bool)"
							}
						],
						"numberOfBytes": "64"
					},
					"t_uint256": {
						"encoding": "inplace",
						"label": "uint256",
						"numberOfBytes": "32"
					}
				}
			},
			"userdoc": {
				"events": {
					"Staked(address,uint256,uint256,uint256)": {
						"notice": "Staked event is triggered whenever a user stakes tokens, address is indexed to make it filterable"
					}
				},
				"kind": "user",
				"methods": {},
				"version": 1
			}
		}
	}
}