{
	"contracts/Stakable.sol": {
		"Stakable": {
			"abi": [
				{
					"inputs": [
						{
							"internalType": "uint256",
							"name": "stakingPenalty_",
							"type": "uint256"
						}
					],
					"stateMutability": "nonpayable",
					"type": "constructor"
				},
				{
					"anonymous": false,
					"inputs": [
						{
							"indexed": false,
							"internalType": "uint256",
							"name": "amount",
							"type": "uint256"
						}
					],
					"name": "PenaltyChanged",
					"type": "event"
				},
				{
					"anonymous": false,
					"inputs": [
						{
							"indexed": true,
							"internalType": "address",
							"name": "user",
							"type": "address"
						},
						{
							"indexed": false,
							"internalType": "uint256",
							"name": "amount",
							"type": "uint256"
						},
						{
							"indexed": false,
							"internalType": "uint256",
							"name": "index",
							"type": "uint256"
						},
						{
							"indexed": false,
							"internalType": "uint256",
							"name": "timestamp",
							"type": "uint256"
						},
						{
							"indexed": false,
							"internalType": "uint256",
							"name": "releaseTime",
							"type": "uint256"
						}
					],
					"name": "Staked",
					"type": "event"
				},
				{
					"inputs": [
						{
							"internalType": "address",
							"name": "_staker",
							"type": "address"
						}
					],
					"name": "hasStake",
					"outputs": [
						{
							"components": [
								{
									"internalType": "uint256",
									"name": "total_amount",
									"type": "uint256"
								},
								{
									"components": [
										{
											"internalType": "address",
											"name": "user",
											"type": "address"
										},
										{
											"internalType": "uint256",
											"name": "amount",
											"type": "uint256"
										},
										{
											"internalType": "uint256",
											"name": "since",
											"type": "uint256"
										},
										{
											"internalType": "uint256",
											"name": "claimable",
											"type": "uint256"
										},
										{
											"internalType": "uint256",
											"name": "rewardAPY",
											"type": "uint256"
										},
										{
											"internalType": "uint256",
											"name": "releaseTime",
											"type": "uint256"
										}
									],
									"internalType": "struct Stakable.Stake[]",
									"name": "stakes",
									"type": "tuple[]"
								}
							],
							"internalType": "struct Stakable.StakingSummary",
							"name": "",
							"type": "tuple"
						}
					],
					"stateMutability": "view",
					"type": "function"
				},
				{
					"inputs": [],
					"name": "penaltyFee",
					"outputs": [
						{
							"internalType": "uint256",
							"name": "",
							"type": "uint256"
						}
					],
					"stateMutability": "view",
					"type": "function"
				},
				{
					"inputs": [
						{
							"internalType": "address",
							"name": "user_",
							"type": "address"
						}
					],
					"name": "stakeSummary",
					"outputs": [
						{
							"components": [
								{
									"internalType": "uint256",
									"name": "total_amount",
									"type": "uint256"
								},
								{
									"components": [
										{
											"internalType": "address",
											"name": "user",
											"type": "address"
										},
										{
											"internalType": "uint256",
											"name": "amount",
											"type": "uint256"
										},
										{
											"internalType": "uint256",
											"name": "since",
											"type": "uint256"
										},
										{
											"internalType": "uint256",
											"name": "claimable",
											"type": "uint256"
										},
										{
											"internalType": "uint256",
											"name": "rewardAPY",
											"type": "uint256"
										},
										{
											"internalType": "uint256",
											"name": "releaseTime",
											"type": "uint256"
										}
									],
									"internalType": "struct Stakable.Stake[]",
									"name": "stakes",
									"type": "tuple[]"
								}
							],
							"internalType": "struct Stakable.StakingSummary",
							"name": "",
							"type": "tuple"
						}
					],
					"stateMutability": "view",
					"type": "function"
				}
			],
			"devdoc": {
				"kind": "dev",
				"methods": {},
				"version": 1
			},
			"evm": {
				"assembly": "    /* \"contracts/Stakable.sol\":128:11141  contract Stakable {... */\n  mstore(0x40, 0x80)\n    /* \"contracts/Stakable.sol\":363:600  constructor(uint256 stakingPenalty_) {... */\n  callvalue\n  dup1\n  iszero\n  tag_1\n  jumpi\n  0x00\n  dup1\n  revert\ntag_1:\n  pop\n  mload(0x40)\n  sub(codesize, bytecodeSize)\n  dup1\n  bytecodeSize\n  dup4\n  codecopy\n  dup2\n  add\n  0x40\n  dup2\n  swap1\n  mstore\n  tag_2\n  swap2\n  tag_3\n  jump\t// in\ntag_2:\n    /* \"contracts/Stakable.sol\":486:498  stakeholders */\n  0x01\n    /* \"contracts/Stakable.sol\":486:505  stakeholders.push() */\n  dup1\n  sload\n  dup2\n  add\n  dup2\n  sstore\n  0x00\n  swap1\n  dup2\n  mstore\n    /* \"contracts/Stakable.sol\":559:592  _stakingPenalty = stakingPenalty_ */\n  sstore\n    /* \"contracts/Stakable.sol\":128:11141  contract Stakable {... */\n  jump(tag_8)\n    /* \"#utility.yul\":14:198   */\ntag_3:\n    /* \"#utility.yul\":84:90   */\n  0x00\n    /* \"#utility.yul\":137:139   */\n  0x20\n    /* \"#utility.yul\":125:134   */\n  dup3\n    /* \"#utility.yul\":116:123   */\n  dup5\n    /* \"#utility.yul\":112:135   */\n  sub\n    /* \"#utility.yul\":108:140   */\n  slt\n    /* \"#utility.yul\":105:157   */\n  iszero\n  tag_10\n  jumpi\n    /* \"#utility.yul\":153:154   */\n  0x00\n    /* \"#utility.yul\":150:151   */\n  dup1\n    /* \"#utility.yul\":143:155   */\n  revert\n    /* \"#utility.yul\":105:157   */\ntag_10:\n  pop\n    /* \"#utility.yul\":176:192   */\n  mload\n  swap2\n    /* \"#utility.yul\":14:198   */\n  swap1\n  pop\n  jump\t// out\ntag_8:\n    /* \"contracts/Stakable.sol\":128:11141  contract Stakable {... */\n  dataSize(sub_0)\n  dup1\n  dataOffset(sub_0)\n  0x00\n  codecopy\n  0x00\n  return\nstop\n\nsub_0: assembly {\n        /* \"contracts/Stakable.sol\":128:11141  contract Stakable {... */\n      mstore(0x40, 0x80)\n      callvalue\n      dup1\n      iszero\n      tag_1\n      jumpi\n      0x00\n      dup1\n      revert\n    tag_1:\n      pop\n      jumpi(tag_2, lt(calldatasize, 0x04))\n      shr(0xe0, calldataload(0x00))\n      dup1\n      0x3dc10ad4\n      eq\n      tag_3\n      jumpi\n      dup1\n      0xb09d4b4e\n      eq\n      tag_4\n      jumpi\n      dup1\n      0xe73e14bf\n      eq\n      tag_5\n      jumpi\n    tag_2:\n      0x00\n      dup1\n      revert\n        /* \"contracts/Stakable.sol\":5030:5121  function penaltyFee() public view returns(uint256){... */\n    tag_3:\n        /* \"contracts/Stakable.sol\":5072:5079  uint256 */\n      0x00\n        /* \"contracts/Stakable.sol\":5098:5113  _stakingPenalty */\n      sload\n        /* \"contracts/Stakable.sol\":5030:5121  function penaltyFee() public view returns(uint256){... */\n      mload(0x40)\n        /* \"#utility.yul\":160:185   */\n      swap1\n      dup2\n      mstore\n        /* \"#utility.yul\":148:150   */\n      0x20\n        /* \"#utility.yul\":133:151   */\n      add\n        /* \"contracts/Stakable.sol\":5030:5121  function penaltyFee() public view returns(uint256){... */\n    tag_8:\n      mload(0x40)\n      dup1\n      swap2\n      sub\n      swap1\n      return\n        /* \"contracts/Stakable.sol\":5909:6198  function stakeSummary(address user_)... */\n    tag_4:\n      tag_10\n      tag_11\n      calldatasize\n      0x04\n      tag_12\n      jump\t// in\n    tag_11:\n      tag_13\n      jump\t// in\n    tag_10:\n      mload(0x40)\n      tag_8\n      swap2\n      swap1\n      tag_15\n      jump\t// in\n        /* \"contracts/Stakable.sol\":10257:11138  function hasStake(address _staker)... */\n    tag_5:\n      tag_10\n      tag_17\n      calldatasize\n      0x04\n      tag_12\n      jump\t// in\n    tag_17:\n      tag_18\n      jump\t// in\n        /* \"contracts/Stakable.sol\":5909:6198  function stakeSummary(address user_)... */\n    tag_13:\n      0x40\n      dup1\n      mload\n      dup1\n      dup3\n      add\n      swap1\n      swap2\n      mstore\n      0x00\n      dup2\n      mstore\n      0x60\n      0x20\n      dup3\n      add\n      mstore\n        /* \"contracts/Stakable.sol\":6033:6062  StakingSummary memory summary */\n      0x00\n        /* \"contracts/Stakable.sol\":6065:6163  StakingSummary(... */\n      mload(0x40)\n      dup1\n      0x40\n      add\n      0x40\n      mstore\n      dup1\n        /* \"contracts/Stakable.sol\":6094:6095  0 */\n      0x00\n        /* \"contracts/Stakable.sol\":6065:6163  StakingSummary(... */\n      dup2\n      mstore\n      0x20\n      add\n        /* \"contracts/Stakable.sol\":6110:6122  stakeholders */\n      0x01\n        /* \"contracts/Stakable.sol\":6123:6129  stakes */\n      0x02\n        /* \"contracts/Stakable.sol\":6123:6136  stakes[user_] */\n      0x00\n        /* \"contracts/Stakable.sol\":6130:6135  user_ */\n      dup8\n      sub(shl(0xa0, 0x01), 0x01)\n        /* \"contracts/Stakable.sol\":6123:6136  stakes[user_] */\n      and\n      sub(shl(0xa0, 0x01), 0x01)\n      and\n      dup2\n      mstore\n      0x20\n      add\n      swap1\n      dup2\n      mstore\n      0x20\n      add\n      0x00\n      keccak256\n      sload\n        /* \"contracts/Stakable.sol\":6110:6137  stakeholders[stakes[user_]] */\n      dup2\n      sload\n      dup2\n      lt\n      tag_25\n      jumpi\n      tag_25\n      tag_26\n      jump\t// in\n    tag_25:\n      swap1\n      0x00\n      mstore\n      keccak256(0x00, 0x20)\n      swap1\n      0x02\n      mul\n      add\n        /* \"contracts/Stakable.sol\":6110:6152  stakeholders[stakes[user_]].address_stakes */\n      0x01\n      add\n        /* \"contracts/Stakable.sol\":6065:6163  StakingSummary(... */\n      dup1\n      sload\n      dup1\n      0x20\n      mul\n      0x20\n      add\n      mload(0x40)\n      swap1\n      dup2\n      add\n      0x40\n      mstore\n      dup1\n      swap3\n      swap2\n      swap1\n      dup2\n      dup2\n      mstore\n      0x20\n      add\n      0x00\n      swap1\n    tag_28:\n      dup3\n      dup3\n      lt\n      iszero\n      tag_29\n      jumpi\n      0x00\n      dup5\n      dup2\n      mstore\n      0x20\n      swap1\n      dup2\n      swap1\n      keccak256\n      0x40\n      dup1\n      mload\n      0xc0\n      dup2\n      add\n      dup3\n      mstore\n      0x06\n      dup7\n      mul\n      swap1\n      swap3\n      add\n      dup1\n      sload\n      sub(shl(0xa0, 0x01), 0x01)\n      and\n      dup4\n      mstore\n      0x01\n      dup1\n      dup3\n      add\n      sload\n      dup5\n      dup7\n      add\n      mstore\n      0x02\n      dup3\n      add\n      sload\n      swap3\n      dup5\n      add\n      swap3\n      swap1\n      swap3\n      mstore\n      0x03\n      dup2\n      add\n      sload\n      0x60\n      dup5\n      add\n      mstore\n      0x04\n      dup2\n      add\n      sload\n      0x80\n      dup5\n      add\n      mstore\n      0x05\n      add\n      sload\n      0xa0\n      dup4\n      add\n      mstore\n      swap1\n      dup4\n      mstore\n      swap1\n      swap3\n      add\n      swap2\n      add\n      jump(tag_28)\n    tag_29:\n      pop\n      pop\n      pop\n      swap2\n      mstore\n      pop\n        /* \"contracts/Stakable.sol\":6033:6163  StakingSummary memory summary = StakingSummary(... */\n      swap4\n        /* \"contracts/Stakable.sol\":5909:6198  function stakeSummary(address user_)... */\n      swap3\n      pop\n      pop\n      pop\n      jump\t// out\n        /* \"contracts/Stakable.sol\":10257:11138  function hasStake(address _staker)... */\n    tag_18:\n      0x40\n      dup1\n      mload\n      dup1\n      dup3\n      add\n      swap1\n      swap2\n      mstore\n      0x00\n      dup2\n      mstore\n      0x60\n      0x20\n      dup3\n      add\n      mstore\n        /* \"contracts/Stakable.sol\":10379:10403  uint256 totalStakeAmount */\n      0x00\n        /* \"contracts/Stakable.sol\":10416:10445  StakingSummary memory summary */\n      dup1\n        /* \"contracts/Stakable.sol\":10448:10548  StakingSummary(... */\n      mload(0x40)\n      dup1\n      0x40\n      add\n      0x40\n      mstore\n      dup1\n        /* \"contracts/Stakable.sol\":10477:10478  0 */\n      0x00\n        /* \"contracts/Stakable.sol\":10448:10548  StakingSummary(... */\n      dup2\n      mstore\n      0x20\n      add\n        /* \"contracts/Stakable.sol\":10493:10505  stakeholders */\n      0x01\n        /* \"contracts/Stakable.sol\":10506:10512  stakes */\n      0x02\n        /* \"contracts/Stakable.sol\":10506:10521  stakes[_staker] */\n      0x00\n        /* \"contracts/Stakable.sol\":10513:10520  _staker */\n      dup9\n      sub(shl(0xa0, 0x01), 0x01)\n        /* \"contracts/Stakable.sol\":10506:10521  stakes[_staker] */\n      and\n      sub(shl(0xa0, 0x01), 0x01)\n      and\n      dup2\n      mstore\n      0x20\n      add\n      swap1\n      dup2\n      mstore\n      0x20\n      add\n      0x00\n      keccak256\n      sload\n        /* \"contracts/Stakable.sol\":10493:10522  stakeholders[stakes[_staker]] */\n      dup2\n      sload\n      dup2\n      lt\n      tag_34\n      jumpi\n      tag_34\n      tag_26\n      jump\t// in\n    tag_34:\n      swap1\n      0x00\n      mstore\n      keccak256(0x00, 0x20)\n      swap1\n      0x02\n      mul\n      add\n        /* \"contracts/Stakable.sol\":10493:10537  stakeholders[stakes[_staker]].address_stakes */\n      0x01\n      add\n        /* \"contracts/Stakable.sol\":10448:10548  StakingSummary(... */\n      dup1\n      sload\n      dup1\n      0x20\n      mul\n      0x20\n      add\n      mload(0x40)\n      swap1\n      dup2\n      add\n      0x40\n      mstore\n      dup1\n      swap3\n      swap2\n      swap1\n      dup2\n      dup2\n      mstore\n      0x20\n      add\n      0x00\n      swap1\n    tag_36:\n      dup3\n      dup3\n      lt\n      iszero\n      tag_37\n      jumpi\n      0x00\n      dup5\n      dup2\n      mstore\n      0x20\n      swap1\n      dup2\n      swap1\n      keccak256\n      0x40\n      dup1\n      mload\n      0xc0\n      dup2\n      add\n      dup3\n      mstore\n      0x06\n      dup7\n      mul\n      swap1\n      swap3\n      add\n      dup1\n      sload\n      sub(shl(0xa0, 0x01), 0x01)\n      and\n      dup4\n      mstore\n      0x01\n      dup1\n      dup3\n      add\n      sload\n      dup5\n      dup7\n      add\n      mstore\n      0x02\n      dup3\n      add\n      sload\n      swap3\n      dup5\n      add\n      swap3\n      swap1\n      swap3\n      mstore\n      0x03\n      dup2\n      add\n      sload\n      0x60\n      dup5\n      add\n      mstore\n      0x04\n      dup2\n      add\n      sload\n      0x80\n      dup5\n      add\n      mstore\n      0x05\n      add\n      sload\n      0xa0\n      dup4\n      add\n      mstore\n      swap1\n      dup4\n      mstore\n      swap1\n      swap3\n      add\n      swap2\n      add\n      jump(tag_36)\n    tag_37:\n      pop\n      pop\n      pop\n      swap2\n      mstore\n      pop\n        /* \"contracts/Stakable.sol\":10581:10595  summary.stakes */\n      0x20\n      dup2\n      add\n      mload\n        /* \"contracts/Stakable.sol\":10581:10602  summary.stakes.length */\n      mload\n        /* \"contracts/Stakable.sol\":10416:10548  StakingSummary memory summary = StakingSummary(... */\n      swap1\n      swap2\n      pop\n        /* \"contracts/Stakable.sol\":10559:10682  require(... */\n      tag_39\n      jumpi\n      mload(0x40)\n      shl(0xe5, 0x461bcd)\n      dup2\n      mstore\n        /* \"#utility.yul\":2040:2042   */\n      0x20\n        /* \"contracts/Stakable.sol\":10559:10682  require(... */\n      0x04\n      dup3\n      add\n        /* \"#utility.yul\":2022:2043   */\n      mstore\n        /* \"#utility.yul\":2079:2081   */\n      0x2f\n        /* \"#utility.yul\":2059:2077   */\n      0x24\n      dup3\n      add\n        /* \"#utility.yul\":2052:2082   */\n      mstore\n        /* \"#utility.yul\":2118:2152   */\n      0x5374616b61626c653a2054686973206164647265737320646f6573206e6f7420\n        /* \"#utility.yul\":2098:2116   */\n      0x44\n      dup3\n      add\n        /* \"#utility.yul\":2091:2153   */\n      mstore\n      shl(0x88, 0x6861766520616e79207374616b6573)\n        /* \"#utility.yul\":2169:2187   */\n      0x64\n      dup3\n      add\n        /* \"#utility.yul\":2162:2207   */\n      mstore\n        /* \"#utility.yul\":2224:2243   */\n      0x84\n      add\n        /* \"contracts/Stakable.sol\":10559:10682  require(... */\n    tag_40:\n      mload(0x40)\n      dup1\n      swap2\n      sub\n      swap1\n      revert\n    tag_39:\n        /* \"contracts/Stakable.sol\":10700:10709  uint256 s */\n      0x00\n        /* \"contracts/Stakable.sol\":10695:11054  for (uint256 s = 0; s < summary.stakes.length; s += 1) {... */\n    tag_42:\n        /* \"contracts/Stakable.sol\":10719:10726  summary */\n      dup2\n        /* \"contracts/Stakable.sol\":10719:10733  summary.stakes */\n      0x20\n      add\n      mload\n        /* \"contracts/Stakable.sol\":10719:10740  summary.stakes.length */\n      mload\n        /* \"contracts/Stakable.sol\":10715:10716  s */\n      dup2\n        /* \"contracts/Stakable.sol\":10715:10740  s < summary.stakes.length */\n      lt\n        /* \"contracts/Stakable.sol\":10695:11054  for (uint256 s = 0; s < summary.stakes.length; s += 1) {... */\n      iszero\n      tag_43\n      jumpi\n        /* \"contracts/Stakable.sol\":10765:10788  uint256 availableReward */\n      0x00\n        /* \"contracts/Stakable.sol\":10791:10905  calculateStakeReward(... */\n      tag_45\n        /* \"contracts/Stakable.sol\":10830:10837  summary */\n      dup4\n        /* \"contracts/Stakable.sol\":10830:10844  summary.stakes */\n      0x20\n      add\n      mload\n        /* \"contracts/Stakable.sol\":10845:10846  s */\n      dup4\n        /* \"contracts/Stakable.sol\":10830:10847  summary.stakes[s] */\n      dup2\n      mload\n      dup2\n      lt\n      tag_47\n      jumpi\n      tag_47\n      tag_26\n      jump\t// in\n    tag_47:\n      0x20\n      mul\n      0x20\n      add\n      add\n      mload\n        /* \"contracts/Stakable.sol\":10866:10873  summary */\n      dup5\n        /* \"contracts/Stakable.sol\":10866:10880  summary.stakes */\n      0x20\n      add\n      mload\n        /* \"contracts/Stakable.sol\":10881:10882  s */\n      dup5\n        /* \"contracts/Stakable.sol\":10866:10883  summary.stakes[s] */\n      dup2\n      mload\n      dup2\n      lt\n      tag_49\n      jumpi\n      tag_49\n      tag_26\n      jump\t// in\n    tag_49:\n      0x20\n      mul\n      0x20\n      add\n      add\n      mload\n        /* \"contracts/Stakable.sol\":10866:10890  summary.stakes[s].amount */\n      0x20\n      add\n      mload\n        /* \"contracts/Stakable.sol\":10791:10811  calculateStakeReward */\n      tag_50\n        /* \"contracts/Stakable.sol\":10791:10905  calculateStakeReward(... */\n      jump\t// in\n    tag_45:\n        /* \"contracts/Stakable.sol\":10765:10905  uint256 availableReward = calculateStakeReward(... */\n      swap1\n      pop\n        /* \"contracts/Stakable.sol\":10950:10965  availableReward */\n      dup1\n        /* \"contracts/Stakable.sol\":10920:10927  summary */\n      dup4\n        /* \"contracts/Stakable.sol\":10920:10934  summary.stakes */\n      0x20\n      add\n      mload\n        /* \"contracts/Stakable.sol\":10935:10936  s */\n      dup4\n        /* \"contracts/Stakable.sol\":10920:10937  summary.stakes[s] */\n      dup2\n      mload\n      dup2\n      lt\n      tag_52\n      jumpi\n      tag_52\n      tag_26\n      jump\t// in\n    tag_52:\n      0x20\n      mul\n      0x20\n      add\n      add\n      mload\n        /* \"contracts/Stakable.sol\":10920:10947  summary.stakes[s].claimable */\n      0x60\n      add\n        /* \"contracts/Stakable.sol\":10920:10965  summary.stakes[s].claimable = availableReward */\n      dup2\n      dup2\n      mstore\n      pop\n      pop\n        /* \"contracts/Stakable.sol\":11018:11025  summary */\n      dup3\n        /* \"contracts/Stakable.sol\":11018:11032  summary.stakes */\n      0x20\n      add\n      mload\n        /* \"contracts/Stakable.sol\":11033:11034  s */\n      dup3\n        /* \"contracts/Stakable.sol\":11018:11035  summary.stakes[s] */\n      dup2\n      mload\n      dup2\n      lt\n      tag_54\n      jumpi\n      tag_54\n      tag_26\n      jump\t// in\n    tag_54:\n      0x20\n      mul\n      0x20\n      add\n      add\n      mload\n        /* \"contracts/Stakable.sol\":11018:11042  summary.stakes[s].amount */\n      0x20\n      add\n      mload\n        /* \"contracts/Stakable.sol\":10999:11015  totalStakeAmount */\n      dup5\n        /* \"contracts/Stakable.sol\":10999:11042  totalStakeAmount + summary.stakes[s].amount */\n      tag_55\n      swap2\n      swap1\n      tag_56\n      jump\t// in\n    tag_55:\n        /* \"contracts/Stakable.sol\":10980:11042  totalStakeAmount = totalStakeAmount + summary.stakes[s].amount */\n      swap4\n      pop\n        /* \"contracts/Stakable.sol\":10742:10748  s += 1 */\n      tag_57\n      swap1\n      pop\n        /* \"contracts/Stakable.sol\":10747:10748  1 */\n      0x01\n        /* \"contracts/Stakable.sol\":10742:10748  s += 1 */\n      dup3\n      tag_56\n      jump\t// in\n    tag_57:\n      swap1\n      pop\n        /* \"contracts/Stakable.sol\":10695:11054  for (uint256 s = 0; s < summary.stakes.length; s += 1) {... */\n      jump(tag_42)\n    tag_43:\n      pop\n        /* \"contracts/Stakable.sol\":11066:11105  summary.total_amount = totalStakeAmount */\n      swap1\n      dup2\n      mstore\n        /* \"contracts/Stakable.sol\":11066:11073  summary */\n      swap3\n        /* \"contracts/Stakable.sol\":10257:11138  function hasStake(address _staker)... */\n      swap2\n      pop\n      pop\n      jump\t// out\n        /* \"contracts/Stakable.sol\":5517:5901  function calculateStakeReward(Stake memory _current_stake, uint256 _amount)... */\n    tag_50:\n        /* \"contracts/Stakable.sol\":5643:5650  uint256 */\n      0x00\n        /* \"contracts/Stakable.sol\":5672:5686  _current_stake */\n      dup3\n        /* \"contracts/Stakable.sol\":5672:5693  _current_stake.amount */\n      0x20\n      add\n      mload\n        /* \"contracts/Stakable.sol\":5697:5698  0 */\n      0x00\n        /* \"contracts/Stakable.sol\":5672:5698  _current_stake.amount == 0 */\n      eq\n        /* \"contracts/Stakable.sol\":5668:5735  if (_current_stake.amount == 0) {... */\n      iszero\n      tag_59\n      jumpi\n      pop\n        /* \"contracts/Stakable.sol\":5722:5723  0 */\n      0x00\n        /* \"contracts/Stakable.sol\":5715:5723  return 0 */\n      jump(tag_58)\n        /* \"contracts/Stakable.sol\":5668:5735  if (_current_stake.amount == 0) {... */\n    tag_59:\n        /* \"contracts/Stakable.sol\":5889:5893  1e26 */\n      0x52b7d2dcc80cd2e4000000\n        /* \"contracts/Stakable.sol\":5839:5885  calculateStakingDuration(_current_stake.since) */\n      tag_60\n        /* \"contracts/Stakable.sol\":5864:5878  _current_stake */\n      dup5\n        /* \"contracts/Stakable.sol\":5864:5884  _current_stake.since */\n      0x40\n      add\n      mload\n        /* \"contracts/Stakable.sol\":5839:5863  calculateStakingDuration */\n      tag_61\n        /* \"contracts/Stakable.sol\":5839:5885  calculateStakingDuration(_current_stake.since) */\n      jump\t// in\n    tag_60:\n        /* \"contracts/Stakable.sol\":5795:5819  _current_stake.rewardAPY */\n      0x80\n      dup6\n      add\n      mload\n        /* \"contracts/Stakable.sol\":5768:5819  _amount *... */\n      tag_62\n      swap1\n        /* \"contracts/Stakable.sol\":5768:5775  _amount */\n      dup6\n        /* \"contracts/Stakable.sol\":5768:5819  _amount *... */\n      tag_63\n      jump\t// in\n    tag_62:\n        /* \"contracts/Stakable.sol\":5768:5885  _amount *... */\n      tag_64\n      swap2\n      swap1\n      tag_63\n      jump\t// in\n    tag_64:\n        /* \"contracts/Stakable.sol\":5767:5893  (_amount *... */\n      tag_65\n      swap2\n      swap1\n      tag_66\n      jump\t// in\n    tag_65:\n        /* \"contracts/Stakable.sol\":5747:5893  return... */\n      swap1\n      pop\n        /* \"contracts/Stakable.sol\":5517:5901  function calculateStakeReward(Stake memory _current_stake, uint256 _amount)... */\n    tag_58:\n      swap3\n      swap2\n      pop\n      pop\n      jump\t// out\n        /* \"contracts/Stakable.sol\":5129:5509  function calculateStakingDuration(uint256 since_)... */\n    tag_61:\n        /* \"contracts/Stakable.sol\":5229:5236  uint256 */\n      0x00\n        /* \"contracts/Stakable.sol\":5271:5272  0 */\n      dup1\n        /* \"contracts/Stakable.sol\":5262:5268  since_ */\n      dup3\n        /* \"contracts/Stakable.sol\":5262:5272  since_ > 0 */\n      gt\n        /* \"contracts/Stakable.sol\":5254:5304  require(since_ > 0, \"Stakable: Error timestamp 0\") */\n      tag_68\n      jumpi\n      mload(0x40)\n      shl(0xe5, 0x461bcd)\n      dup2\n      mstore\n        /* \"#utility.yul\":3248:3250   */\n      0x20\n        /* \"contracts/Stakable.sol\":5254:5304  require(since_ > 0, \"Stakable: Error timestamp 0\") */\n      0x04\n      dup3\n      add\n        /* \"#utility.yul\":3230:3251   */\n      mstore\n        /* \"#utility.yul\":3287:3289   */\n      0x1b\n        /* \"#utility.yul\":3267:3285   */\n      0x24\n      dup3\n      add\n        /* \"#utility.yul\":3260:3290   */\n      mstore\n        /* \"#utility.yul\":3326:3355   */\n      0x5374616b61626c653a204572726f722074696d657374616d7020300000000000\n        /* \"#utility.yul\":3306:3324   */\n      0x44\n      dup3\n      add\n        /* \"#utility.yul\":3299:3356   */\n      mstore\n        /* \"#utility.yul\":3373:3391   */\n      0x64\n      add\n        /* \"contracts/Stakable.sol\":5254:5304  require(since_ > 0, \"Stakable: Error timestamp 0\") */\n      tag_40\n        /* \"#utility.yul\":3046:3397   */\n      jump\n        /* \"contracts/Stakable.sol\":5254:5304  require(since_ > 0, \"Stakable: Error timestamp 0\") */\n    tag_68:\n        /* \"contracts/Stakable.sol\":5335:5501  SafeMath.div(... */\n      tag_58\n        /* \"contracts/Stakable.sol\":5367:5391  block.timestamp - since_ */\n      tag_72\n        /* \"contracts/Stakable.sol\":5385:5391  since_ */\n      dup4\n        /* \"contracts/Stakable.sol\":5367:5382  block.timestamp */\n      timestamp\n        /* \"contracts/Stakable.sol\":5367:5391  block.timestamp - since_ */\n      tag_73\n      jump\t// in\n    tag_72:\n        /* \"contracts/Stakable.sol\":5366:5399  (block.timestamp - since_) * 1e24 */\n      tag_74\n      swap1\n        /* \"contracts/Stakable.sol\":5395:5399  1e24 */\n      0xd3c21bcecceda1000000\n        /* \"contracts/Stakable.sol\":5366:5399  (block.timestamp - since_) * 1e24 */\n      tag_63\n      jump\t// in\n    tag_74:\n        /* \"contracts/Stakable.sol\":5418:5426  365 days */\n      0x01e13380\n        /* \"contracts/Stakable.sol\":5335:5501  SafeMath.div(... */\n      mload(0x40)\n      dup1\n      0x60\n      add\n      0x40\n      mstore\n      dup1\n      0x27\n      dup2\n      mstore\n      0x20\n      add\n      data_10b867070097d898ae15cd1bc384e389b4a7d91f05c0759c198c193c7fd91787\n      0x27\n      swap2\n      codecopy\n        /* \"@openzeppelin/contracts/utils/math/SafeMath.sol\":5776:5783  uint256 */\n      0x00\n        /* \"@openzeppelin/contracts/utils/math/SafeMath.sol\":5834:5846  errorMessage */\n      dup2\n        /* \"@openzeppelin/contracts/utils/math/SafeMath.sol\":5827:5832  b > 0 */\n      dup4\n        /* \"@openzeppelin/contracts/utils/math/SafeMath.sol\":5819:5847  require(b > 0, errorMessage) */\n      tag_77\n      jumpi\n      mload(0x40)\n      shl(0xe5, 0x461bcd)\n      dup2\n      mstore\n      0x04\n      add\n      tag_40\n      swap2\n      swap1\n      tag_79\n      jump\t// in\n    tag_77:\n      pop\n        /* \"@openzeppelin/contracts/utils/math/SafeMath.sol\":5872:5873  b */\n      dup3\n        /* \"@openzeppelin/contracts/utils/math/SafeMath.sol\":5868:5869  a */\n      dup5\n        /* \"@openzeppelin/contracts/utils/math/SafeMath.sol\":5868:5873  a / b */\n      dup2\n      tag_81\n      jumpi\n      tag_81\n      tag_82\n      jump\t// in\n    tag_81:\n      div\n      swap5\n        /* \"@openzeppelin/contracts/utils/math/SafeMath.sol\":5660:5890  function div(... */\n      swap4\n      pop\n      pop\n      pop\n      pop\n      jump\t// out\n        /* \"#utility.yul\":196:482   */\n    tag_12:\n        /* \"#utility.yul\":255:261   */\n      0x00\n        /* \"#utility.yul\":308:310   */\n      0x20\n        /* \"#utility.yul\":296:305   */\n      dup3\n        /* \"#utility.yul\":287:294   */\n      dup5\n        /* \"#utility.yul\":283:306   */\n      sub\n        /* \"#utility.yul\":279:311   */\n      slt\n        /* \"#utility.yul\":276:328   */\n      iszero\n      tag_87\n      jumpi\n        /* \"#utility.yul\":324:325   */\n      0x00\n        /* \"#utility.yul\":321:322   */\n      dup1\n        /* \"#utility.yul\":314:326   */\n      revert\n        /* \"#utility.yul\":276:328   */\n    tag_87:\n        /* \"#utility.yul\":350:373   */\n      dup2\n      calldataload\n      sub(shl(0xa0, 0x01), 0x01)\n        /* \"#utility.yul\":402:433   */\n      dup2\n      and\n        /* \"#utility.yul\":392:434   */\n      dup2\n      eq\n        /* \"#utility.yul\":382:452   */\n      tag_88\n      jumpi\n        /* \"#utility.yul\":448:449   */\n      0x00\n        /* \"#utility.yul\":445:446   */\n      dup1\n        /* \"#utility.yul\":438:450   */\n      revert\n        /* \"#utility.yul\":382:452   */\n    tag_88:\n        /* \"#utility.yul\":471:476   */\n      swap4\n        /* \"#utility.yul\":196:482   */\n      swap3\n      pop\n      pop\n      pop\n      jump\t// out\n        /* \"#utility.yul\":487:1701   */\n    tag_15:\n        /* \"#utility.yul\":641:645   */\n      0x00\n        /* \"#utility.yul\":670:672   */\n      0x20\n        /* \"#utility.yul\":699:701   */\n      dup1\n        /* \"#utility.yul\":688:697   */\n      dup4\n        /* \"#utility.yul\":681:702   */\n      mstore\n        /* \"#utility.yul\":721:723   */\n      0x60\n        /* \"#utility.yul\":761:763   */\n      dup1\n        /* \"#utility.yul\":750:759   */\n      dup5\n        /* \"#utility.yul\":746:764   */\n      add\n        /* \"#utility.yul\":806:812   */\n      dup6\n        /* \"#utility.yul\":800:813   */\n      mload\n        /* \"#utility.yul\":795:797   */\n      dup4\n        /* \"#utility.yul\":784:793   */\n      dup7\n        /* \"#utility.yul\":780:798   */\n      add\n        /* \"#utility.yul\":773:814   */\n      mstore\n        /* \"#utility.yul\":861:863   */\n      dup3\n        /* \"#utility.yul\":853:859   */\n      dup7\n        /* \"#utility.yul\":849:864   */\n      add\n        /* \"#utility.yul\":843:865   */\n      mload\n        /* \"#utility.yul\":884:888   */\n      0x40\n        /* \"#utility.yul\":924:926   */\n      dup1\n        /* \"#utility.yul\":919:921   */\n      dup2\n        /* \"#utility.yul\":908:917   */\n      dup9\n        /* \"#utility.yul\":904:922   */\n      add\n        /* \"#utility.yul\":897:927   */\n      mstore\n        /* \"#utility.yul\":947:953   */\n      dup3\n        /* \"#utility.yul\":982:994   */\n      dup3\n        /* \"#utility.yul\":976:995   */\n      mload\n        /* \"#utility.yul\":1019:1025   */\n      dup1\n        /* \"#utility.yul\":1011:1017   */\n      dup6\n        /* \"#utility.yul\":1004:1026   */\n      mstore\n        /* \"#utility.yul\":1045:1048   */\n      0x80\n        /* \"#utility.yul\":1035:1048   */\n      swap5\n      pop\n        /* \"#utility.yul\":1079:1081   */\n      dup5\n        /* \"#utility.yul\":1068:1077   */\n      dup10\n        /* \"#utility.yul\":1064:1082   */\n      add\n        /* \"#utility.yul\":1057:1082   */\n      swap2\n      pop\n        /* \"#utility.yul\":1123:1125   */\n      dup7\n        /* \"#utility.yul\":1109:1121   */\n      dup5\n        /* \"#utility.yul\":1105:1126   */\n      add\n        /* \"#utility.yul\":1091:1126   */\n      swap4\n      pop\n        /* \"#utility.yul\":1144:1145   */\n      0x00\n        /* \"#utility.yul\":1154:1675   */\n    tag_90:\n        /* \"#utility.yul\":1168:1174   */\n      dup2\n        /* \"#utility.yul\":1165:1166   */\n      dup2\n        /* \"#utility.yul\":1162:1175   */\n      lt\n        /* \"#utility.yul\":1154:1675   */\n      iszero\n      tag_92\n      jumpi\n        /* \"#utility.yul\":1227:1240   */\n      dup5\n      mload\n        /* \"#utility.yul\":1269:1278   */\n      dup1\n      mload\n      sub(shl(0xa0, 0x01), 0x01)\n        /* \"#utility.yul\":1265:1300   */\n      and\n        /* \"#utility.yul\":1253:1301   */\n      dup5\n      mstore\n        /* \"#utility.yul\":1341:1352   */\n      dup9\n      dup2\n      add\n        /* \"#utility.yul\":1335:1353   */\n      mload\n        /* \"#utility.yul\":1321:1333   */\n      dup10\n      dup6\n      add\n        /* \"#utility.yul\":1314:1354   */\n      mstore\n        /* \"#utility.yul\":1394:1405   */\n      dup5\n      dup2\n      add\n        /* \"#utility.yul\":1388:1406   */\n      mload\n        /* \"#utility.yul\":1374:1386   */\n      dup6\n      dup6\n      add\n        /* \"#utility.yul\":1367:1407   */\n      mstore\n        /* \"#utility.yul\":1447:1458   */\n      dup8\n      dup2\n      add\n        /* \"#utility.yul\":1441:1459   */\n      mload\n        /* \"#utility.yul\":1427:1439   */\n      dup9\n      dup6\n      add\n        /* \"#utility.yul\":1420:1460   */\n      mstore\n        /* \"#utility.yul\":1500:1511   */\n      dup7\n      dup2\n      add\n        /* \"#utility.yul\":1494:1512   */\n      mload\n        /* \"#utility.yul\":1480:1492   */\n      dup8\n      dup6\n      add\n        /* \"#utility.yul\":1473:1513   */\n      mstore\n        /* \"#utility.yul\":1288:1291   */\n      0xa0\n        /* \"#utility.yul\":1580:1591   */\n      swap1\n      dup2\n      add\n        /* \"#utility.yul\":1574:1592   */\n      mload\n        /* \"#utility.yul\":1560:1572   */\n      swap1\n      dup5\n      add\n        /* \"#utility.yul\":1553:1593   */\n      mstore\n        /* \"#utility.yul\":1650:1665   */\n      swap4\n      dup8\n      add\n      swap4\n        /* \"#utility.yul\":1622:1626   */\n      0xc0\n        /* \"#utility.yul\":1613:1627   */\n      swap1\n      swap3\n      add\n      swap2\n        /* \"#utility.yul\":1297:1298   */\n      0x01\n        /* \"#utility.yul\":1183:1192   */\n      add\n        /* \"#utility.yul\":1154:1675   */\n      jump(tag_90)\n    tag_92:\n      pop\n        /* \"#utility.yul\":1692:1695   */\n      swap1\n      swap10\n        /* \"#utility.yul\":487:1701   */\n      swap9\n      pop\n      pop\n      pop\n      pop\n      pop\n      pop\n      pop\n      pop\n      pop\n      jump\t// out\n        /* \"#utility.yul\":1706:1833   */\n    tag_26:\n        /* \"#utility.yul\":1767:1777   */\n      0x4e487b71\n        /* \"#utility.yul\":1762:1765   */\n      0xe0\n        /* \"#utility.yul\":1758:1778   */\n      shl\n        /* \"#utility.yul\":1755:1756   */\n      0x00\n        /* \"#utility.yul\":1748:1779   */\n      mstore\n        /* \"#utility.yul\":1798:1802   */\n      0x32\n        /* \"#utility.yul\":1795:1796   */\n      0x04\n        /* \"#utility.yul\":1788:1803   */\n      mstore\n        /* \"#utility.yul\":1822:1826   */\n      0x24\n        /* \"#utility.yul\":1819:1820   */\n      0x00\n        /* \"#utility.yul\":1812:1827   */\n      revert\n        /* \"#utility.yul\":2254:2381   */\n    tag_83:\n        /* \"#utility.yul\":2315:2325   */\n      0x4e487b71\n        /* \"#utility.yul\":2310:2313   */\n      0xe0\n        /* \"#utility.yul\":2306:2326   */\n      shl\n        /* \"#utility.yul\":2303:2304   */\n      0x00\n        /* \"#utility.yul\":2296:2327   */\n      mstore\n        /* \"#utility.yul\":2346:2350   */\n      0x11\n        /* \"#utility.yul\":2343:2344   */\n      0x04\n        /* \"#utility.yul\":2336:2351   */\n      mstore\n        /* \"#utility.yul\":2370:2374   */\n      0x24\n        /* \"#utility.yul\":2367:2368   */\n      0x00\n        /* \"#utility.yul\":2360:2375   */\n      revert\n        /* \"#utility.yul\":2386:2514   */\n    tag_56:\n        /* \"#utility.yul\":2426:2429   */\n      0x00\n        /* \"#utility.yul\":2457:2458   */\n      dup3\n        /* \"#utility.yul\":2453:2459   */\n      not\n        /* \"#utility.yul\":2450:2451   */\n      dup3\n        /* \"#utility.yul\":2447:2460   */\n      gt\n        /* \"#utility.yul\":2444:2483   */\n      iszero\n      tag_98\n      jumpi\n        /* \"#utility.yul\":2463:2481   */\n      tag_98\n      tag_83\n      jump\t// in\n    tag_98:\n      pop\n        /* \"#utility.yul\":2499:2508   */\n      add\n      swap1\n        /* \"#utility.yul\":2386:2514   */\n      jump\t// out\n        /* \"#utility.yul\":2519:2687   */\n    tag_63:\n        /* \"#utility.yul\":2559:2566   */\n      0x00\n        /* \"#utility.yul\":2625:2626   */\n      dup2\n        /* \"#utility.yul\":2621:2622   */\n      0x00\n        /* \"#utility.yul\":2617:2623   */\n      not\n        /* \"#utility.yul\":2613:2627   */\n      div\n        /* \"#utility.yul\":2610:2611   */\n      dup4\n        /* \"#utility.yul\":2607:2628   */\n      gt\n        /* \"#utility.yul\":2602:2603   */\n      dup3\n        /* \"#utility.yul\":2595:2604   */\n      iszero\n        /* \"#utility.yul\":2588:2605   */\n      iszero\n        /* \"#utility.yul\":2584:2629   */\n      and\n        /* \"#utility.yul\":2581:2652   */\n      iszero\n      tag_101\n      jumpi\n        /* \"#utility.yul\":2632:2650   */\n      tag_101\n      tag_83\n      jump\t// in\n    tag_101:\n      pop\n        /* \"#utility.yul\":2672:2681   */\n      mul\n      swap1\n        /* \"#utility.yul\":2519:2687   */\n      jump\t// out\n        /* \"#utility.yul\":2692:2819   */\n    tag_82:\n        /* \"#utility.yul\":2753:2763   */\n      0x4e487b71\n        /* \"#utility.yul\":2748:2751   */\n      0xe0\n        /* \"#utility.yul\":2744:2764   */\n      shl\n        /* \"#utility.yul\":2741:2742   */\n      0x00\n        /* \"#utility.yul\":2734:2765   */\n      mstore\n        /* \"#utility.yul\":2784:2788   */\n      0x12\n        /* \"#utility.yul\":2781:2782   */\n      0x04\n        /* \"#utility.yul\":2774:2789   */\n      mstore\n        /* \"#utility.yul\":2808:2812   */\n      0x24\n        /* \"#utility.yul\":2805:2806   */\n      0x00\n        /* \"#utility.yul\":2798:2813   */\n      revert\n        /* \"#utility.yul\":2824:3041   */\n    tag_66:\n        /* \"#utility.yul\":2864:2865   */\n      0x00\n        /* \"#utility.yul\":2890:2891   */\n      dup3\n        /* \"#utility.yul\":2880:3012   */\n      tag_104\n      jumpi\n        /* \"#utility.yul\":2934:2944   */\n      0x4e487b71\n        /* \"#utility.yul\":2929:2932   */\n      0xe0\n        /* \"#utility.yul\":2925:2945   */\n      shl\n        /* \"#utility.yul\":2922:2923   */\n      0x00\n        /* \"#utility.yul\":2915:2946   */\n      mstore\n        /* \"#utility.yul\":2969:2973   */\n      0x12\n        /* \"#utility.yul\":2966:2967   */\n      0x04\n        /* \"#utility.yul\":2959:2974   */\n      mstore\n        /* \"#utility.yul\":2997:3001   */\n      0x24\n        /* \"#utility.yul\":2994:2995   */\n      0x00\n        /* \"#utility.yul\":2987:3002   */\n      revert\n        /* \"#utility.yul\":2880:3012   */\n    tag_104:\n      pop\n        /* \"#utility.yul\":3026:3035   */\n      div\n      swap1\n        /* \"#utility.yul\":2824:3041   */\n      jump\t// out\n        /* \"#utility.yul\":3402:3527   */\n    tag_73:\n        /* \"#utility.yul\":3442:3446   */\n      0x00\n        /* \"#utility.yul\":3470:3471   */\n      dup3\n        /* \"#utility.yul\":3467:3468   */\n      dup3\n        /* \"#utility.yul\":3464:3472   */\n      lt\n        /* \"#utility.yul\":3461:3495   */\n      iszero\n      tag_108\n      jumpi\n        /* \"#utility.yul\":3475:3493   */\n      tag_108\n      tag_83\n      jump\t// in\n    tag_108:\n      pop\n        /* \"#utility.yul\":3512:3521   */\n      sub\n      swap1\n        /* \"#utility.yul\":3402:3527   */\n      jump\t// out\n        /* \"#utility.yul\":3532:4129   */\n    tag_79:\n        /* \"#utility.yul\":3644:3648   */\n      0x00\n        /* \"#utility.yul\":3673:3675   */\n      0x20\n        /* \"#utility.yul\":3702:3704   */\n      dup1\n        /* \"#utility.yul\":3691:3700   */\n      dup4\n        /* \"#utility.yul\":3684:3705   */\n      mstore\n        /* \"#utility.yul\":3734:3740   */\n      dup4\n        /* \"#utility.yul\":3728:3741   */\n      mload\n        /* \"#utility.yul\":3777:3783   */\n      dup1\n        /* \"#utility.yul\":3772:3774   */\n      dup3\n        /* \"#utility.yul\":3761:3770   */\n      dup6\n        /* \"#utility.yul\":3757:3775   */\n      add\n        /* \"#utility.yul\":3750:3784   */\n      mstore\n        /* \"#utility.yul\":3802:3803   */\n      0x00\n        /* \"#utility.yul\":3812:3952   */\n    tag_110:\n        /* \"#utility.yul\":3826:3832   */\n      dup2\n        /* \"#utility.yul\":3823:3824   */\n      dup2\n        /* \"#utility.yul\":3820:3833   */\n      lt\n        /* \"#utility.yul\":3812:3952   */\n      iszero\n      tag_112\n      jumpi\n        /* \"#utility.yul\":3921:3935   */\n      dup6\n      dup2\n      add\n        /* \"#utility.yul\":3917:3940   */\n      dup4\n      add\n        /* \"#utility.yul\":3911:3941   */\n      mload\n        /* \"#utility.yul\":3887:3904   */\n      dup6\n      dup3\n      add\n        /* \"#utility.yul\":3906:3908   */\n      0x40\n        /* \"#utility.yul\":3883:3909   */\n      add\n        /* \"#utility.yul\":3876:3942   */\n      mstore\n        /* \"#utility.yul\":3841:3851   */\n      dup3\n      add\n        /* \"#utility.yul\":3812:3952   */\n      jump(tag_110)\n    tag_112:\n        /* \"#utility.yul\":3970:3976   */\n      dup2\n        /* \"#utility.yul\":3967:3968   */\n      dup2\n        /* \"#utility.yul\":3964:3977   */\n      gt\n        /* \"#utility.yul\":3961:4052   */\n      iszero\n      tag_113\n      jumpi\n        /* \"#utility.yul\":4040:4041   */\n      0x00\n        /* \"#utility.yul\":4035:4037   */\n      0x40\n        /* \"#utility.yul\":4026:4032   */\n      dup4\n        /* \"#utility.yul\":4015:4024   */\n      dup8\n        /* \"#utility.yul\":4011:4033   */\n      add\n        /* \"#utility.yul\":4007:4038   */\n      add\n        /* \"#utility.yul\":4000:4042   */\n      mstore\n        /* \"#utility.yul\":3961:4052   */\n    tag_113:\n      pop\n        /* \"#utility.yul\":4113:4115   */\n      0x1f\n        /* \"#utility.yul\":4092:4107   */\n      add\n      not(0x1f)\n        /* \"#utility.yul\":4088:4117   */\n      and\n        /* \"#utility.yul\":4073:4118   */\n      swap3\n      swap1\n      swap3\n      add\n        /* \"#utility.yul\":4120:4122   */\n      0x40\n        /* \"#utility.yul\":4069:4123   */\n      add\n      swap4\n        /* \"#utility.yul\":3532:4129   */\n      swap3\n      pop\n      pop\n      pop\n      jump\t// out\n    stop\n    data_10b867070097d898ae15cd1bc384e389b4a7d91f05c0759c198c193c7fd91787 5374616b61626c653a204572726f722063616e6e6f74206469766964652074696d657374616d70\n\n    auxdata: 0xa26469706673582212200440a09b6a47d7035e61310f88a4fa2137e792dfacb21a86225967326ddc365e64736f6c634300080b0033\n}\n",
				"bytecode": {
					"linkReferences": {},
					"object": "608060405234801561001057600080fd5b506040516107a53803806107a583398101604081905261002f91610042565b600180548101815560009081525561005b565b60006020828403121561005457600080fd5b5051919050565b61073b8061006a6000396000f3fe608060405234801561001057600080fd5b50600436106100415760003560e01c80633dc10ad414610046578063b09d4b4e1461005c578063e73e14bf1461007c575b600080fd5b6000546040519081526020015b60405180910390f35b61006f61006a366004610511565b61008f565b6040516100539190610541565b61006f61008a366004610511565b61019f565b6040805180820190915260008152606060208201526000604051806040016040528060008152602001600160026000876001600160a01b03166001600160a01b0316815260200190815260200160002054815481106100f0576100f06105d7565b9060005260206000209060020201600101805480602002602001604051908101604052809291908181526020016000905b828210156101925760008481526020908190206040805160c0810182526006860290920180546001600160a01b031683526001808201548486015260028201549284019290925260038101546060840152600481015460808401526005015460a08301529083529092019101610121565b5050509152509392505050565b604080518082019091526000815260606020820152600080604051806040016040528060008152602001600160026000886001600160a01b03166001600160a01b031681526020019081526020016000205481548110610201576102016105d7565b9060005260206000209060020201600101805480602002602001604051908101604052809291908181526020016000905b828210156102a35760008481526020908190206040805160c0810182526006860290920180546001600160a01b031683526001808201548486015260028201549284019290925260038101546060840152600481015460808401526005015460a08301529083529092019101610232565b50505091525060208101515190915061031b5760405162461bcd60e51b815260206004820152602f60248201527f5374616b61626c653a2054686973206164647265737320646f6573206e6f742060448201526e6861766520616e79207374616b657360881b60648201526084015b60405180910390fd5b60005b8160200151518110156103e157600061037583602001518381518110610346576103466105d7565b602002602001015184602001518481518110610364576103646105d7565b6020026020010151602001516103eb565b9050808360200151838151811061038e5761038e6105d7565b60200260200101516060018181525050826020015182815181106103b4576103b46105d7565b602002602001015160200151846103cb9190610603565b93506103da9050600182610603565b905061031e565b5090815292915050565b600082602001516000141561040257506000610441565b6a52b7d2dcc80cd2e400000061041b8460400151610447565b608085015161042a908561061b565b610434919061061b565b61043e9190610650565b90505b92915050565b60008082116104985760405162461bcd60e51b815260206004820152601b60248201527f5374616b61626c653a204572726f722074696d657374616d70203000000000006044820152606401610312565b6104416104a58342610672565b6104b99069d3c21bcecceda100000061061b565b6301e133806040518060600160405280602781526020016106df60279139600081836104f85760405162461bcd60e51b81526004016103129190610689565b508284816105085761050861063a565b04949350505050565b60006020828403121561052357600080fd5b81356001600160a01b038116811461053a57600080fd5b9392505050565b6000602080835260608084018551838601528286015160408081880152828251808552608094508489019150868401935060005b818110156105c857845180516001600160a01b03168452888101518985015284810151858501528781015188850152868101518785015260a090810151908401529387019360c090920191600101610575565b50909998505050505050505050565b634e487b7160e01b600052603260045260246000fd5b634e487b7160e01b600052601160045260246000fd5b60008219821115610616576106166105ed565b500190565b6000816000190483118215151615610635576106356105ed565b500290565b634e487b7160e01b600052601260045260246000fd5b60008261066d57634e487b7160e01b600052601260045260246000fd5b500490565b600082821015610684576106846105ed565b500390565b600060208083528351808285015260005b818110156106b65785810183015185820160400152820161069a565b818111156106c8576000604083870101525b50601f01601f191692909201604001939250505056fe5374616b61626c653a204572726f722063616e6e6f74206469766964652074696d657374616d70a26469706673582212200440a09b6a47d7035e61310f88a4fa2137e792dfacb21a86225967326ddc365e64736f6c634300080b0033",
					"opcodes": "PUSH1 0x80 PUSH1 0x40 MSTORE CALLVALUE DUP1 ISZERO PUSH2 0x10 JUMPI PUSH1 0x0 DUP1 REVERT JUMPDEST POP PUSH1 0x40 MLOAD PUSH2 0x7A5 CODESIZE SUB DUP1 PUSH2 0x7A5 DUP4 CODECOPY DUP2 ADD PUSH1 0x40 DUP2 SWAP1 MSTORE PUSH2 0x2F SWAP2 PUSH2 0x42 JUMP JUMPDEST PUSH1 0x1 DUP1 SLOAD DUP2 ADD DUP2 SSTORE PUSH1 0x0 SWAP1 DUP2 MSTORE SSTORE PUSH2 0x5B JUMP JUMPDEST PUSH1 0x0 PUSH1 0x20 DUP3 DUP5 SUB SLT ISZERO PUSH2 0x54 JUMPI PUSH1 0x0 DUP1 REVERT JUMPDEST POP MLOAD SWAP2 SWAP1 POP JUMP JUMPDEST PUSH2 0x73B DUP1 PUSH2 0x6A PUSH1 0x0 CODECOPY PUSH1 0x0 RETURN INVALID PUSH1 0x80 PUSH1 0x40 MSTORE CALLVALUE DUP1 ISZERO PUSH2 0x10 JUMPI PUSH1 0x0 DUP1 REVERT JUMPDEST POP PUSH1 0x4 CALLDATASIZE LT PUSH2 0x41 JUMPI PUSH1 0x0 CALLDATALOAD PUSH1 0xE0 SHR DUP1 PUSH4 0x3DC10AD4 EQ PUSH2 0x46 JUMPI DUP1 PUSH4 0xB09D4B4E EQ PUSH2 0x5C JUMPI DUP1 PUSH4 0xE73E14BF EQ PUSH2 0x7C JUMPI JUMPDEST PUSH1 0x0 DUP1 REVERT JUMPDEST PUSH1 0x0 SLOAD PUSH1 0x40 MLOAD SWAP1 DUP2 MSTORE PUSH1 0x20 ADD JUMPDEST PUSH1 0x40 MLOAD DUP1 SWAP2 SUB SWAP1 RETURN JUMPDEST PUSH2 0x6F PUSH2 0x6A CALLDATASIZE PUSH1 0x4 PUSH2 0x511 JUMP JUMPDEST PUSH2 0x8F JUMP JUMPDEST PUSH1 0x40 MLOAD PUSH2 0x53 SWAP2 SWAP1 PUSH2 0x541 JUMP JUMPDEST PUSH2 0x6F PUSH2 0x8A CALLDATASIZE PUSH1 0x4 PUSH2 0x511 JUMP JUMPDEST PUSH2 0x19F JUMP JUMPDEST PUSH1 0x40 DUP1 MLOAD DUP1 DUP3 ADD SWAP1 SWAP2 MSTORE PUSH1 0x0 DUP2 MSTORE PUSH1 0x60 PUSH1 0x20 DUP3 ADD MSTORE PUSH1 0x0 PUSH1 0x40 MLOAD DUP1 PUSH1 0x40 ADD PUSH1 0x40 MSTORE DUP1 PUSH1 0x0 DUP2 MSTORE PUSH1 0x20 ADD PUSH1 0x1 PUSH1 0x2 PUSH1 0x0 DUP8 PUSH1 0x1 PUSH1 0x1 PUSH1 0xA0 SHL SUB AND PUSH1 0x1 PUSH1 0x1 PUSH1 0xA0 SHL SUB AND DUP2 MSTORE PUSH1 0x20 ADD SWAP1 DUP2 MSTORE PUSH1 0x20 ADD PUSH1 0x0 KECCAK256 SLOAD DUP2 SLOAD DUP2 LT PUSH2 0xF0 JUMPI PUSH2 0xF0 PUSH2 0x5D7 JUMP JUMPDEST SWAP1 PUSH1 0x0 MSTORE PUSH1 0x20 PUSH1 0x0 KECCAK256 SWAP1 PUSH1 0x2 MUL ADD PUSH1 0x1 ADD DUP1 SLOAD DUP1 PUSH1 0x20 MUL PUSH1 0x20 ADD PUSH1 0x40 MLOAD SWAP1 DUP2 ADD PUSH1 0x40 MSTORE DUP1 SWAP3 SWAP2 SWAP1 DUP2 DUP2 MSTORE PUSH1 0x20 ADD PUSH1 0x0 SWAP1 JUMPDEST DUP3 DUP3 LT ISZERO PUSH2 0x192 JUMPI PUSH1 0x0 DUP5 DUP2 MSTORE PUSH1 0x20 SWAP1 DUP2 SWAP1 KECCAK256 PUSH1 0x40 DUP1 MLOAD PUSH1 0xC0 DUP2 ADD DUP3 MSTORE PUSH1 0x6 DUP7 MUL SWAP1 SWAP3 ADD DUP1 SLOAD PUSH1 0x1 PUSH1 0x1 PUSH1 0xA0 SHL SUB AND DUP4 MSTORE PUSH1 0x1 DUP1 DUP3 ADD SLOAD DUP5 DUP7 ADD MSTORE PUSH1 0x2 DUP3 ADD SLOAD SWAP3 DUP5 ADD SWAP3 SWAP1 SWAP3 MSTORE PUSH1 0x3 DUP2 ADD SLOAD PUSH1 0x60 DUP5 ADD MSTORE PUSH1 0x4 DUP2 ADD SLOAD PUSH1 0x80 DUP5 ADD MSTORE PUSH1 0x5 ADD SLOAD PUSH1 0xA0 DUP4 ADD MSTORE SWAP1 DUP4 MSTORE SWAP1 SWAP3 ADD SWAP2 ADD PUSH2 0x121 JUMP JUMPDEST POP POP POP SWAP2 MSTORE POP SWAP4 SWAP3 POP POP POP JUMP JUMPDEST PUSH1 0x40 DUP1 MLOAD DUP1 DUP3 ADD SWAP1 SWAP2 MSTORE PUSH1 0x0 DUP2 MSTORE PUSH1 0x60 PUSH1 0x20 DUP3 ADD MSTORE PUSH1 0x0 DUP1 PUSH1 0x40 MLOAD DUP1 PUSH1 0x40 ADD PUSH1 0x40 MSTORE DUP1 PUSH1 0x0 DUP2 MSTORE PUSH1 0x20 ADD PUSH1 0x1 PUSH1 0x2 PUSH1 0x0 DUP9 PUSH1 0x1 PUSH1 0x1 PUSH1 0xA0 SHL SUB AND PUSH1 0x1 PUSH1 0x1 PUSH1 0xA0 SHL SUB AND DUP2 MSTORE PUSH1 0x20 ADD SWAP1 DUP2 MSTORE PUSH1 0x20 ADD PUSH1 0x0 KECCAK256 SLOAD DUP2 SLOAD DUP2 LT PUSH2 0x201 JUMPI PUSH2 0x201 PUSH2 0x5D7 JUMP JUMPDEST SWAP1 PUSH1 0x0 MSTORE PUSH1 0x20 PUSH1 0x0 KECCAK256 SWAP1 PUSH1 0x2 MUL ADD PUSH1 0x1 ADD DUP1 SLOAD DUP1 PUSH1 0x20 MUL PUSH1 0x20 ADD PUSH1 0x40 MLOAD SWAP1 DUP2 ADD PUSH1 0x40 MSTORE DUP1 SWAP3 SWAP2 SWAP1 DUP2 DUP2 MSTORE PUSH1 0x20 ADD PUSH1 0x0 SWAP1 JUMPDEST DUP3 DUP3 LT ISZERO PUSH2 0x2A3 JUMPI PUSH1 0x0 DUP5 DUP2 MSTORE PUSH1 0x20 SWAP1 DUP2 SWAP1 KECCAK256 PUSH1 0x40 DUP1 MLOAD PUSH1 0xC0 DUP2 ADD DUP3 MSTORE PUSH1 0x6 DUP7 MUL SWAP1 SWAP3 ADD DUP1 SLOAD PUSH1 0x1 PUSH1 0x1 PUSH1 0xA0 SHL SUB AND DUP4 MSTORE PUSH1 0x1 DUP1 DUP3 ADD SLOAD DUP5 DUP7 ADD MSTORE PUSH1 0x2 DUP3 ADD SLOAD SWAP3 DUP5 ADD SWAP3 SWAP1 SWAP3 MSTORE PUSH1 0x3 DUP2 ADD SLOAD PUSH1 0x60 DUP5 ADD MSTORE PUSH1 0x4 DUP2 ADD SLOAD PUSH1 0x80 DUP5 ADD MSTORE PUSH1 0x5 ADD SLOAD PUSH1 0xA0 DUP4 ADD MSTORE SWAP1 DUP4 MSTORE SWAP1 SWAP3 ADD SWAP2 ADD PUSH2 0x232 JUMP JUMPDEST POP POP POP SWAP2 MSTORE POP PUSH1 0x20 DUP2 ADD MLOAD MLOAD SWAP1 SWAP2 POP PUSH2 0x31B JUMPI PUSH1 0x40 MLOAD PUSH3 0x461BCD PUSH1 0xE5 SHL DUP2 MSTORE PUSH1 0x20 PUSH1 0x4 DUP3 ADD MSTORE PUSH1 0x2F PUSH1 0x24 DUP3 ADD MSTORE PUSH32 0x5374616B61626C653A2054686973206164647265737320646F6573206E6F7420 PUSH1 0x44 DUP3 ADD MSTORE PUSH15 0x6861766520616E79207374616B6573 PUSH1 0x88 SHL PUSH1 0x64 DUP3 ADD MSTORE PUSH1 0x84 ADD JUMPDEST PUSH1 0x40 MLOAD DUP1 SWAP2 SUB SWAP1 REVERT JUMPDEST PUSH1 0x0 JUMPDEST DUP2 PUSH1 0x20 ADD MLOAD MLOAD DUP2 LT ISZERO PUSH2 0x3E1 JUMPI PUSH1 0x0 PUSH2 0x375 DUP4 PUSH1 0x20 ADD MLOAD DUP4 DUP2 MLOAD DUP2 LT PUSH2 0x346 JUMPI PUSH2 0x346 PUSH2 0x5D7 JUMP JUMPDEST PUSH1 0x20 MUL PUSH1 0x20 ADD ADD MLOAD DUP5 PUSH1 0x20 ADD MLOAD DUP5 DUP2 MLOAD DUP2 LT PUSH2 0x364 JUMPI PUSH2 0x364 PUSH2 0x5D7 JUMP JUMPDEST PUSH1 0x20 MUL PUSH1 0x20 ADD ADD MLOAD PUSH1 0x20 ADD MLOAD PUSH2 0x3EB JUMP JUMPDEST SWAP1 POP DUP1 DUP4 PUSH1 0x20 ADD MLOAD DUP4 DUP2 MLOAD DUP2 LT PUSH2 0x38E JUMPI PUSH2 0x38E PUSH2 0x5D7 JUMP JUMPDEST PUSH1 0x20 MUL PUSH1 0x20 ADD ADD MLOAD PUSH1 0x60 ADD DUP2 DUP2 MSTORE POP POP DUP3 PUSH1 0x20 ADD MLOAD DUP3 DUP2 MLOAD DUP2 LT PUSH2 0x3B4 JUMPI PUSH2 0x3B4 PUSH2 0x5D7 JUMP JUMPDEST PUSH1 0x20 MUL PUSH1 0x20 ADD ADD MLOAD PUSH1 0x20 ADD MLOAD DUP5 PUSH2 0x3CB SWAP2 SWAP1 PUSH2 0x603 JUMP JUMPDEST SWAP4 POP PUSH2 0x3DA SWAP1 POP PUSH1 0x1 DUP3 PUSH2 0x603 JUMP JUMPDEST SWAP1 POP PUSH2 0x31E JUMP JUMPDEST POP SWAP1 DUP2 MSTORE SWAP3 SWAP2 POP POP JUMP JUMPDEST PUSH1 0x0 DUP3 PUSH1 0x20 ADD MLOAD PUSH1 0x0 EQ ISZERO PUSH2 0x402 JUMPI POP PUSH1 0x0 PUSH2 0x441 JUMP JUMPDEST PUSH11 0x52B7D2DCC80CD2E4000000 PUSH2 0x41B DUP5 PUSH1 0x40 ADD MLOAD PUSH2 0x447 JUMP JUMPDEST PUSH1 0x80 DUP6 ADD MLOAD PUSH2 0x42A SWAP1 DUP6 PUSH2 0x61B JUMP JUMPDEST PUSH2 0x434 SWAP2 SWAP1 PUSH2 0x61B JUMP JUMPDEST PUSH2 0x43E SWAP2 SWAP1 PUSH2 0x650 JUMP JUMPDEST SWAP1 POP JUMPDEST SWAP3 SWAP2 POP POP JUMP JUMPDEST PUSH1 0x0 DUP1 DUP3 GT PUSH2 0x498 JUMPI PUSH1 0x40 MLOAD PUSH3 0x461BCD PUSH1 0xE5 SHL DUP2 MSTORE PUSH1 0x20 PUSH1 0x4 DUP3 ADD MSTORE PUSH1 0x1B PUSH1 0x24 DUP3 ADD MSTORE PUSH32 0x5374616B61626C653A204572726F722074696D657374616D7020300000000000 PUSH1 0x44 DUP3 ADD MSTORE PUSH1 0x64 ADD PUSH2 0x312 JUMP JUMPDEST PUSH2 0x441 PUSH2 0x4A5 DUP4 TIMESTAMP PUSH2 0x672 JUMP JUMPDEST PUSH2 0x4B9 SWAP1 PUSH10 0xD3C21BCECCEDA1000000 PUSH2 0x61B JUMP JUMPDEST PUSH4 0x1E13380 PUSH1 0x40 MLOAD DUP1 PUSH1 0x60 ADD PUSH1 0x40 MSTORE DUP1 PUSH1 0x27 DUP2 MSTORE PUSH1 0x20 ADD PUSH2 0x6DF PUSH1 0x27 SWAP2 CODECOPY PUSH1 0x0 DUP2 DUP4 PUSH2 0x4F8 JUMPI PUSH1 0x40 MLOAD PUSH3 0x461BCD PUSH1 0xE5 SHL DUP2 MSTORE PUSH1 0x4 ADD PUSH2 0x312 SWAP2 SWAP1 PUSH2 0x689 JUMP JUMPDEST POP DUP3 DUP5 DUP2 PUSH2 0x508 JUMPI PUSH2 0x508 PUSH2 0x63A JUMP JUMPDEST DIV SWAP5 SWAP4 POP POP POP POP JUMP JUMPDEST PUSH1 0x0 PUSH1 0x20 DUP3 DUP5 SUB SLT ISZERO PUSH2 0x523 JUMPI PUSH1 0x0 DUP1 REVERT JUMPDEST DUP2 CALLDATALOAD PUSH1 0x1 PUSH1 0x1 PUSH1 0xA0 SHL SUB DUP2 AND DUP2 EQ PUSH2 0x53A JUMPI PUSH1 0x0 DUP1 REVERT JUMPDEST SWAP4 SWAP3 POP POP POP JUMP JUMPDEST PUSH1 0x0 PUSH1 0x20 DUP1 DUP4 MSTORE PUSH1 0x60 DUP1 DUP5 ADD DUP6 MLOAD DUP4 DUP7 ADD MSTORE DUP3 DUP7 ADD MLOAD PUSH1 0x40 DUP1 DUP2 DUP9 ADD MSTORE DUP3 DUP3 MLOAD DUP1 DUP6 MSTORE PUSH1 0x80 SWAP5 POP DUP5 DUP10 ADD SWAP2 POP DUP7 DUP5 ADD SWAP4 POP PUSH1 0x0 JUMPDEST DUP2 DUP2 LT ISZERO PUSH2 0x5C8 JUMPI DUP5 MLOAD DUP1 MLOAD PUSH1 0x1 PUSH1 0x1 PUSH1 0xA0 SHL SUB AND DUP5 MSTORE DUP9 DUP2 ADD MLOAD DUP10 DUP6 ADD MSTORE DUP5 DUP2 ADD MLOAD DUP6 DUP6 ADD MSTORE DUP8 DUP2 ADD MLOAD DUP9 DUP6 ADD MSTORE DUP7 DUP2 ADD MLOAD DUP8 DUP6 ADD MSTORE PUSH1 0xA0 SWAP1 DUP2 ADD MLOAD SWAP1 DUP5 ADD MSTORE SWAP4 DUP8 ADD SWAP4 PUSH1 0xC0 SWAP1 SWAP3 ADD SWAP2 PUSH1 0x1 ADD PUSH2 0x575 JUMP JUMPDEST POP SWAP1 SWAP10 SWAP9 POP POP POP POP POP POP POP POP POP JUMP JUMPDEST PUSH4 0x4E487B71 PUSH1 0xE0 SHL PUSH1 0x0 MSTORE PUSH1 0x32 PUSH1 0x4 MSTORE PUSH1 0x24 PUSH1 0x0 REVERT JUMPDEST PUSH4 0x4E487B71 PUSH1 0xE0 SHL PUSH1 0x0 MSTORE PUSH1 0x11 PUSH1 0x4 MSTORE PUSH1 0x24 PUSH1 0x0 REVERT JUMPDEST PUSH1 0x0 DUP3 NOT DUP3 GT ISZERO PUSH2 0x616 JUMPI PUSH2 0x616 PUSH2 0x5ED JUMP JUMPDEST POP ADD SWAP1 JUMP JUMPDEST PUSH1 0x0 DUP2 PUSH1 0x0 NOT DIV DUP4 GT DUP3 ISZERO ISZERO AND ISZERO PUSH2 0x635 JUMPI PUSH2 0x635 PUSH2 0x5ED JUMP JUMPDEST POP MUL SWAP1 JUMP JUMPDEST PUSH4 0x4E487B71 PUSH1 0xE0 SHL PUSH1 0x0 MSTORE PUSH1 0x12 PUSH1 0x4 MSTORE PUSH1 0x24 PUSH1 0x0 REVERT JUMPDEST PUSH1 0x0 DUP3 PUSH2 0x66D JUMPI PUSH4 0x4E487B71 PUSH1 0xE0 SHL PUSH1 0x0 MSTORE PUSH1 0x12 PUSH1 0x4 MSTORE PUSH1 0x24 PUSH1 0x0 REVERT JUMPDEST POP DIV SWAP1 JUMP JUMPDEST PUSH1 0x0 DUP3 DUP3 LT ISZERO PUSH2 0x684 JUMPI PUSH2 0x684 PUSH2 0x5ED JUMP JUMPDEST POP SUB SWAP1 JUMP JUMPDEST PUSH1 0x0 PUSH1 0x20 DUP1 DUP4 MSTORE DUP4 MLOAD DUP1 DUP3 DUP6 ADD MSTORE PUSH1 0x0 JUMPDEST DUP2 DUP2 LT ISZERO PUSH2 0x6B6 JUMPI DUP6 DUP2 ADD DUP4 ADD MLOAD DUP6 DUP3 ADD PUSH1 0x40 ADD MSTORE DUP3 ADD PUSH2 0x69A JUMP JUMPDEST DUP2 DUP2 GT ISZERO PUSH2 0x6C8 JUMPI PUSH1 0x0 PUSH1 0x40 DUP4 DUP8 ADD ADD MSTORE JUMPDEST POP PUSH1 0x1F ADD PUSH1 0x1F NOT AND SWAP3 SWAP1 SWAP3 ADD PUSH1 0x40 ADD SWAP4 SWAP3 POP POP POP JUMP INVALID MSTORE8 PUSH21 0x616B61626C653A204572726F722063616E6E6F7420 PUSH5 0x6976696465 KECCAK256 PUSH21 0x696D657374616D70A26469706673582212200440A0 SWAP12 PUSH11 0x47D7035E61310F88A4FA21 CALLDATACOPY 0xE7 SWAP3 0xDF 0xAC 0xB2 BYTE DUP7 0x22 MSIZE PUSH8 0x326DDC365E64736F PUSH13 0x634300080B0033000000000000 "
				},
				"gasEstimates": {
					"creation": {
						"codeDepositCost": "370200",
						"executionCost": "infinite",
						"totalCost": "infinite"
					},
					"external": {
						"hasStake(address)": "infinite",
						"penaltyFee()": "2247",
						"stakeSummary(address)": "infinite"
					},
					"internal": {
						"_addStakeholder(address)": "infinite",
						"_changePenaltyFee(uint256)": "infinite",
						"_stake(uint256,uint256,uint256)": "infinite",
						"_withdrawAllStake(uint256)": "infinite",
						"_withdrawStake(uint256,uint256)": "infinite",
						"calculateStakeReward(struct Stakable.Stake memory,uint256)": "infinite",
						"calculateStakingDuration(uint256)": "infinite",
						"calculateStakingWithPenalty(uint256,uint256)": "infinite"
					}
				},
				"methodIdentifiers": {
					"hasStake(address)": "e73e14bf",
					"penaltyFee()": "3dc10ad4",
					"stakeSummary(address)": "b09d4b4e"
				}
			},
			"userdoc": {
				"events": {
					"Staked(address,uint256,uint256,uint256,uint256)": {
						"notice": "Staked event is triggered whenever a user stakes tokens, address is indexed to make it filterable"
					}
				},
				"kind": "user",
				"methods": {},
				"version": 1
			}
		}
	}
}