{
	"contracts/Stakable.sol": {
		"Stakable": {
			"abi": [
				{
					"inputs": [],
					"stateMutability": "nonpayable",
					"type": "constructor"
				},
				{
					"anonymous": false,
					"inputs": [
						{
							"indexed": false,
							"internalType": "uint256",
							"name": "amount",
							"type": "uint256"
						}
					],
					"name": "AirdropChanged",
					"type": "event"
				},
				{
					"anonymous": false,
					"inputs": [
						{
							"indexed": false,
							"internalType": "uint256",
							"name": "amount",
							"type": "uint256"
						}
					],
					"name": "PenaltyChanged",
					"type": "event"
				},
				{
					"anonymous": false,
					"inputs": [
						{
							"indexed": true,
							"internalType": "address",
							"name": "user",
							"type": "address"
						},
						{
							"indexed": false,
							"internalType": "uint256",
							"name": "amount",
							"type": "uint256"
						},
						{
							"indexed": false,
							"internalType": "uint256",
							"name": "timestamp",
							"type": "uint256"
						},
						{
							"indexed": false,
							"internalType": "uint256",
							"name": "releaseTime",
							"type": "uint256"
						}
					],
					"name": "Staked",
					"type": "event"
				},
				{
					"inputs": [
						{
							"internalType": "address",
							"name": "_staker",
							"type": "address"
						}
					],
					"name": "hasStake",
					"outputs": [
						{
							"components": [
								{
									"internalType": "uint256",
									"name": "total_amount",
									"type": "uint256"
								},
								{
									"internalType": "uint256",
									"name": "penalty",
									"type": "uint256"
								},
								{
									"components": [
										{
											"internalType": "address",
											"name": "user",
											"type": "address"
										},
										{
											"internalType": "uint256",
											"name": "amount",
											"type": "uint256"
										},
										{
											"internalType": "uint256",
											"name": "since",
											"type": "uint256"
										},
										{
											"internalType": "uint256",
											"name": "claimable",
											"type": "uint256"
										},
										{
											"internalType": "uint256",
											"name": "claimable_airdrop",
											"type": "uint256"
										},
										{
											"internalType": "uint256",
											"name": "rewardAPY",
											"type": "uint256"
										},
										{
											"internalType": "uint256",
											"name": "releaseTime",
											"type": "uint256"
										}
									],
									"internalType": "struct Stakable.Stake",
									"name": "stake",
									"type": "tuple"
								}
							],
							"internalType": "struct Stakable.StakingSummary",
							"name": "",
							"type": "tuple"
						}
					],
					"stateMutability": "view",
					"type": "function"
				},
				{
					"inputs": [],
					"name": "penaltyFee",
					"outputs": [
						{
							"internalType": "uint256",
							"name": "",
							"type": "uint256"
						}
					],
					"stateMutability": "view",
					"type": "function"
				}
			],
			"devdoc": {
				"kind": "dev",
				"methods": {},
				"version": 1
			},
			"evm": {
				"assembly": "    /* \"contracts/Stakable.sol\":128:8569  contract Stakable {... */\n  mstore(0x40, 0x80)\n    /* \"contracts/Stakable.sol\":435:583  constructor() {... */\n  callvalue\n  dup1\n  iszero\n  tag_1\n  jumpi\n  0x00\n  dup1\n  revert\ntag_1:\n  pop\n    /* \"contracts/Stakable.sol\":545:547  15 */\n  0x0f\n    /* \"contracts/Stakable.sol\":523:542  _stakingPenaltyRate */\n  0x00\n    /* \"contracts/Stakable.sol\":523:547  _stakingPenaltyRate = 15 */\n  sstore\n    /* \"contracts/Stakable.sol\":573:575  80 */\n  0x50\n    /* \"contracts/Stakable.sol\":558:570  _airdropRate */\n  0x01\n    /* \"contracts/Stakable.sol\":558:575  _airdropRate = 80 */\n  sstore\n    /* \"contracts/Stakable.sol\":128:8569  contract Stakable {... */\n  dataSize(sub_0)\n  dup1\n  dataOffset(sub_0)\n  0x00\n  codecopy\n  0x00\n  return\nstop\n\nsub_0: assembly {\n        /* \"contracts/Stakable.sol\":128:8569  contract Stakable {... */\n      mstore(0x40, 0x80)\n      callvalue\n      dup1\n      iszero\n      tag_1\n      jumpi\n      0x00\n      dup1\n      revert\n    tag_1:\n      pop\n      jumpi(tag_2, lt(calldatasize, 0x04))\n      shr(0xe0, calldataload(0x00))\n      dup1\n      0x3dc10ad4\n      eq\n      tag_3\n      jumpi\n      dup1\n      0xe73e14bf\n      eq\n      tag_4\n      jumpi\n    tag_2:\n      0x00\n      dup1\n      revert\n        /* \"contracts/Stakable.sol\":3750:3847  function penaltyFee() public view returns (uint256) {... */\n    tag_3:\n        /* \"contracts/Stakable.sol\":3793:3800  uint256 */\n      0x00\n        /* \"contracts/Stakable.sol\":3820:3839  _stakingPenaltyRate */\n      sload\n        /* \"contracts/Stakable.sol\":3750:3847  function penaltyFee() public view returns (uint256) {... */\n      mload(0x40)\n        /* \"#utility.yul\":160:185   */\n      swap1\n      dup2\n      mstore\n        /* \"#utility.yul\":148:150   */\n      0x20\n        /* \"#utility.yul\":133:151   */\n      add\n        /* \"contracts/Stakable.sol\":3750:3847  function penaltyFee() public view returns (uint256) {... */\n    tag_7:\n      mload(0x40)\n      dup1\n      swap2\n      sub\n      swap1\n      return\n        /* \"contracts/Stakable.sol\":6764:7836  function hasStake(address _staker)... */\n    tag_4:\n      tag_9\n      tag_10\n      calldatasize\n      0x04\n      tag_11\n      jump\t// in\n    tag_10:\n      tag_12\n      jump\t// in\n    tag_9:\n      mload(0x40)\n      tag_7\n      swap2\n      swap1\n        /* \"#utility.yul\":664:668   */\n      0x00\n        /* \"#utility.yul\":706:709   */\n      0x0120\n        /* \"#utility.yul\":695:704   */\n      dup3\n        /* \"#utility.yul\":691:710   */\n      add\n        /* \"#utility.yul\":683:710   */\n      swap1\n      pop\n        /* \"#utility.yul\":743:749   */\n      dup3\n        /* \"#utility.yul\":737:750   */\n      mload\n        /* \"#utility.yul\":726:735   */\n      dup3\n        /* \"#utility.yul\":719:751   */\n      mstore\n        /* \"#utility.yul\":807:811   */\n      0x20\n        /* \"#utility.yul\":799:805   */\n      dup4\n        /* \"#utility.yul\":795:812   */\n      add\n        /* \"#utility.yul\":789:813   */\n      mload\n        /* \"#utility.yul\":782:786   */\n      0x20\n        /* \"#utility.yul\":771:780   */\n      dup4\n        /* \"#utility.yul\":767:787   */\n      add\n        /* \"#utility.yul\":760:814   */\n      mstore\n        /* \"#utility.yul\":861:865   */\n      0x40\n        /* \"#utility.yul\":853:859   */\n      dup4\n        /* \"#utility.yul\":849:866   */\n      add\n        /* \"#utility.yul\":843:867   */\n      mload\n        /* \"#utility.yul\":930:972   */\n      0xffffffffffffffffffffffffffffffffffffffff\n        /* \"#utility.yul\":915:927   */\n      dup2\n        /* \"#utility.yul\":909:928   */\n      mload\n        /* \"#utility.yul\":905:973   */\n      and\n        /* \"#utility.yul\":898:902   */\n      0x40\n        /* \"#utility.yul\":887:896   */\n      dup5\n        /* \"#utility.yul\":883:903   */\n      add\n        /* \"#utility.yul\":876:974   */\n      mstore\n        /* \"#utility.yul\":1034:1038   */\n      0x20\n        /* \"#utility.yul\":1020:1032   */\n      dup2\n        /* \"#utility.yul\":1016:1039   */\n      add\n        /* \"#utility.yul\":1010:1040   */\n      mload\n        /* \"#utility.yul\":1005:1007   */\n      0x60\n        /* \"#utility.yul\":994:1003   */\n      dup5\n        /* \"#utility.yul\":990:1008   */\n      add\n        /* \"#utility.yul\":983:1041   */\n      mstore\n        /* \"#utility.yul\":1102:1106   */\n      0x40\n        /* \"#utility.yul\":1088:1100   */\n      dup2\n        /* \"#utility.yul\":1084:1107   */\n      add\n        /* \"#utility.yul\":1078:1108   */\n      mload\n        /* \"#utility.yul\":1072:1075   */\n      0x80\n        /* \"#utility.yul\":1061:1070   */\n      dup5\n        /* \"#utility.yul\":1057:1076   */\n      add\n        /* \"#utility.yul\":1050:1109   */\n      mstore\n        /* \"#utility.yul\":1170:1172   */\n      0x60\n        /* \"#utility.yul\":1156:1168   */\n      dup2\n        /* \"#utility.yul\":1152:1173   */\n      add\n        /* \"#utility.yul\":1146:1174   */\n      mload\n        /* \"#utility.yul\":1140:1143   */\n      0xa0\n        /* \"#utility.yul\":1129:1138   */\n      dup5\n        /* \"#utility.yul\":1125:1144   */\n      add\n        /* \"#utility.yul\":1118:1175   */\n      mstore\n        /* \"#utility.yul\":1236:1239   */\n      0x80\n        /* \"#utility.yul\":1222:1234   */\n      dup2\n        /* \"#utility.yul\":1218:1240   */\n      add\n        /* \"#utility.yul\":1212:1241   */\n      mload\n        /* \"#utility.yul\":1206:1209   */\n      0xc0\n        /* \"#utility.yul\":1195:1204   */\n      dup5\n        /* \"#utility.yul\":1191:1210   */\n      add\n        /* \"#utility.yul\":1184:1242   */\n      mstore\n        /* \"#utility.yul\":1303:1306   */\n      0xa0\n        /* \"#utility.yul\":1289:1301   */\n      dup2\n        /* \"#utility.yul\":1285:1307   */\n      add\n        /* \"#utility.yul\":1279:1308   */\n      mload\n        /* \"#utility.yul\":1273:1276   */\n      0xe0\n        /* \"#utility.yul\":1262:1271   */\n      dup5\n        /* \"#utility.yul\":1258:1277   */\n      add\n        /* \"#utility.yul\":1251:1309   */\n      mstore\n        /* \"#utility.yul\":1370:1373   */\n      0xc0\n        /* \"#utility.yul\":1356:1368   */\n      dup2\n        /* \"#utility.yul\":1352:1374   */\n      add\n        /* \"#utility.yul\":1346:1375   */\n      mload\n        /* \"#utility.yul\":1340:1343   */\n      0x0100\n        /* \"#utility.yul\":1329:1338   */\n      dup5\n        /* \"#utility.yul\":1325:1344   */\n      add\n        /* \"#utility.yul\":1318:1376   */\n      mstore\n      pop\n        /* \"#utility.yul\":510:1382   */\n      swap3\n      swap2\n      pop\n      pop\n      jump\n        /* \"contracts/Stakable.sol\":6764:7836  function hasStake(address _staker)... */\n    tag_12:\n        /* \"contracts/Stakable.sol\":6847:6868  StakingSummary memory */\n      tag_16\n      tag_17\n      jump\t// in\n    tag_16:\n        /* \"contracts/Stakable.sol\":6918:7017  StakingSummary(... */\n      0x40\n      dup1\n      mload\n      0x60\n      dup1\n      dup3\n      add\n      dup4\n      mstore\n        /* \"contracts/Stakable.sol\":6886:6915  StakingSummary memory summary */\n      0x00\n        /* \"contracts/Stakable.sol\":6918:7017  StakingSummary(... */\n      dup1\n      dup4\n      mstore\n      0x20\n      dup1\n      dup5\n      add\n      dup3\n      swap1\n      mstore\n        /* \"contracts/Stakable.sol\":6979:7000  stakeholders[_staker] */\n      0xffffffffffffffffffffffffffffffffffffffff\n      dup1\n      dup9\n      and\n      dup4\n      mstore\n        /* \"contracts/Stakable.sol\":6979:6991  stakeholders */\n      0x02\n        /* \"contracts/Stakable.sol\":6979:7000  stakeholders[_staker] */\n      dup1\n      dup4\n      mstore\n      swap3\n      dup7\n      swap1\n      keccak256\n        /* \"contracts/Stakable.sol\":6918:7017  StakingSummary(... */\n      dup7\n      mload\n      0xe0\n      dup2\n      add\n      dup9\n      mstore\n      dup2\n      sload\n      swap1\n      swap3\n      and\n      dup3\n      mstore\n      0x01\n      dup2\n      add\n      sload\n      swap3\n      dup3\n      add\n      swap3\n      dup4\n      mstore\n      swap3\n      dup4\n      add\n      sload\n      dup2\n      dup8\n      add\n      mstore\n      0x03\n      dup4\n      add\n      sload\n      swap4\n      dup2\n      add\n      swap4\n      swap1\n      swap4\n      mstore\n      0x04\n      dup3\n      add\n      sload\n      0x80\n      dup5\n      add\n      mstore\n      0x05\n      dup3\n      add\n      sload\n      0xa0\n      dup5\n      add\n      mstore\n      0x06\n      swap1\n      swap2\n      add\n      sload\n      0xc0\n      dup4\n      add\n      mstore\n      swap3\n      dup3\n      add\n      mstore\n        /* \"contracts/Stakable.sol\":7036:7056  summary.stake.amount */\n      swap1\n      mload\n        /* \"contracts/Stakable.sol\":7028:7080  require(summary.stake.amount != 0, \"No stake found\") */\n      tag_19\n      jumpi\n      mload(0x40)\n      shl(0xe5, 0x461bcd)\n      dup2\n      mstore\n        /* \"#utility.yul\":1589:1591   */\n      0x20\n        /* \"contracts/Stakable.sol\":7028:7080  require(summary.stake.amount != 0, \"No stake found\") */\n      0x04\n      dup3\n      add\n        /* \"#utility.yul\":1571:1592   */\n      mstore\n        /* \"#utility.yul\":1628:1630   */\n      0x0e\n        /* \"#utility.yul\":1608:1626   */\n      0x24\n      dup3\n      add\n        /* \"#utility.yul\":1601:1631   */\n      mstore\n        /* \"#utility.yul\":1667:1683   */\n      0x4e6f207374616b6520666f756e64000000000000000000000000000000000000\n        /* \"#utility.yul\":1647:1665   */\n      0x44\n      dup3\n      add\n        /* \"#utility.yul\":1640:1684   */\n      mstore\n        /* \"#utility.yul\":1701:1719   */\n      0x64\n      add\n        /* \"contracts/Stakable.sol\":7028:7080  require(summary.stake.amount != 0, \"No stake found\") */\n    tag_20:\n      mload(0x40)\n      dup1\n      swap2\n      sub\n      swap1\n      revert\n    tag_19:\n        /* \"contracts/Stakable.sol\":7154:7167  summary.stake */\n      0x40\n      dup2\n      add\n      mload\n        /* \"contracts/Stakable.sol\":7182:7202  summary.stake.amount */\n      0x20\n      dup2\n      add\n      mload\n        /* \"contracts/Stakable.sol\":7093:7116  uint256 availableReward */\n      0x00\n      swap2\n        /* \"contracts/Stakable.sol\":7119:7213  calculateStakeReward(... */\n      tag_22\n      swap2\n        /* \"contracts/Stakable.sol\":7119:7139  calculateStakeReward */\n      tag_23\n        /* \"contracts/Stakable.sol\":7119:7213  calculateStakeReward(... */\n      jump\t// in\n    tag_22:\n        /* \"contracts/Stakable.sol\":7093:7213  uint256 availableReward = calculateStakeReward(... */\n      swap1\n      pop\n        /* \"contracts/Stakable.sol\":7224:7239  uint256 penalty */\n      0x00\n        /* \"contracts/Stakable.sol\":7284:7299  block.timestamp */\n      timestamp\n        /* \"contracts/Stakable.sol\":7256:7263  summary */\n      dup4\n        /* \"contracts/Stakable.sol\":7256:7269  summary.stake */\n      0x40\n      add\n      mload\n        /* \"contracts/Stakable.sol\":7256:7281  summary.stake.releaseTime */\n      0xc0\n      add\n      mload\n        /* \"contracts/Stakable.sol\":7256:7299  summary.stake.releaseTime > block.timestamp */\n      gt\n        /* \"contracts/Stakable.sol\":7252:7539  if (summary.stake.releaseTime > block.timestamp) {... */\n      iszero\n      tag_24\n      jumpi\n        /* \"contracts/Stakable.sol\":7317:7339  uint256 amount_penalty */\n      0x00\n        /* \"contracts/Stakable.sol\":7341:7363  uint256 reward_penalty */\n      dup1\n        /* \"contracts/Stakable.sol\":7367:7471  calculatePenalty(... */\n      tag_25\n        /* \"contracts/Stakable.sol\":7402:7409  summary */\n      dup6\n        /* \"contracts/Stakable.sol\":7402:7415  summary.stake */\n      0x40\n      add\n      mload\n        /* \"contracts/Stakable.sol\":7402:7422  summary.stake.amount */\n      0x20\n      add\n      mload\n        /* \"contracts/Stakable.sol\":7441:7456  availableReward */\n      dup6\n        /* \"contracts/Stakable.sol\":7367:7383  calculatePenalty */\n      tag_26\n        /* \"contracts/Stakable.sol\":7367:7471  calculatePenalty(... */\n      jump\t// in\n    tag_25:\n        /* \"contracts/Stakable.sol\":7316:7471  (uint256 amount_penalty, uint256 reward_penalty) = calculatePenalty(... */\n      swap1\n      swap3\n      pop\n      swap1\n      pop\n        /* \"contracts/Stakable.sol\":7496:7527  amount_penalty + reward_penalty */\n      tag_27\n        /* \"contracts/Stakable.sol\":7316:7471  (uint256 amount_penalty, uint256 reward_penalty) = calculatePenalty(... */\n      dup2\n      dup4\n        /* \"contracts/Stakable.sol\":7496:7527  amount_penalty + reward_penalty */\n      tag_28\n      jump\t// in\n    tag_27:\n        /* \"contracts/Stakable.sol\":7486:7527  penalty = amount_penalty + reward_penalty */\n      swap3\n      pop\n        /* \"contracts/Stakable.sol\":7301:7539  {... */\n      pop\n      pop\n        /* \"contracts/Stakable.sol\":7252:7539  if (summary.stake.releaseTime > block.timestamp) {... */\n    tag_24:\n        /* \"contracts/Stakable.sol\":7551:7566  uint256 airdrop */\n      0x00\n        /* \"contracts/Stakable.sol\":7569:7607  calculateAirdrop(summary.stake.amount) */\n      tag_29\n        /* \"contracts/Stakable.sol\":7586:7593  summary */\n      dup5\n        /* \"contracts/Stakable.sol\":7586:7599  summary.stake */\n      0x40\n      add\n      mload\n        /* \"contracts/Stakable.sol\":7586:7606  summary.stake.amount */\n      0x20\n      add\n      mload\n        /* \"contracts/Stakable.sol\":7569:7585  calculateAirdrop */\n      tag_30\n        /* \"contracts/Stakable.sol\":7569:7607  calculateAirdrop(summary.stake.amount) */\n      jump\t// in\n    tag_29:\n        /* \"contracts/Stakable.sol\":7618:7631  summary.stake */\n      0x40\n      dup6\n      add\n      dup1\n      mload\n        /* \"contracts/Stakable.sol\":7618:7649  summary.stake.claimable_airdrop */\n      0x80\n      add\n        /* \"contracts/Stakable.sol\":7618:7659  summary.stake.claimable_airdrop = airdrop */\n      swap2\n      swap1\n      swap2\n      mstore\n        /* \"contracts/Stakable.sol\":7670:7683  summary.stake */\n      dup1\n      mload\n        /* \"contracts/Stakable.sol\":7670:7693  summary.stake.claimable */\n      0x60\n      add\n        /* \"contracts/Stakable.sol\":7670:7711  summary.stake.claimable = availableReward */\n      swap4\n      swap1\n      swap4\n      mstore\n      pop\n      0x20\n        /* \"contracts/Stakable.sol\":7722:7737  summary.penalty */\n      dup1\n      dup5\n      add\n        /* \"contracts/Stakable.sol\":7722:7747  summary.penalty = penalty */\n      swap2\n      swap1\n      swap2\n      mstore\n        /* \"contracts/Stakable.sol\":7781:7794  summary.stake */\n      swap1\n      mload\n        /* \"contracts/Stakable.sol\":7781:7801  summary.stake.amount */\n      add\n      mload\n        /* \"contracts/Stakable.sol\":7758:7801  summary.total_amount = summary.stake.amount */\n      dup2\n      mstore\n        /* \"contracts/Stakable.sol\":7618:7625  summary */\n      swap3\n        /* \"contracts/Stakable.sol\":6764:7836  function hasStake(address _staker)... */\n      swap2\n      pop\n      pop\n      jump\t// out\n        /* \"contracts/Stakable.sol\":4223:4591  function calculateStakeReward(Stake memory user_stake, uint256 _amount)... */\n    tag_23:\n        /* \"contracts/Stakable.sol\":4345:4352  uint256 */\n      0x00\n        /* \"contracts/Stakable.sol\":4374:4384  user_stake */\n      dup3\n        /* \"contracts/Stakable.sol\":4374:4391  user_stake.amount */\n      0x20\n      add\n      mload\n        /* \"contracts/Stakable.sol\":4395:4396  0 */\n      0x00\n        /* \"contracts/Stakable.sol\":4374:4396  user_stake.amount == 0 */\n      eq\n        /* \"contracts/Stakable.sol\":4370:4433  if (user_stake.amount == 0) {... */\n      iszero\n      tag_32\n      jumpi\n      pop\n        /* \"contracts/Stakable.sol\":4420:4421  0 */\n      0x00\n        /* \"contracts/Stakable.sol\":4413:4421  return 0 */\n      jump(tag_31)\n        /* \"contracts/Stakable.sol\":4370:4433  if (user_stake.amount == 0) {... */\n    tag_32:\n        /* \"contracts/Stakable.sol\":4579:4583  1e26 */\n      0x52b7d2dcc80cd2e4000000\n        /* \"contracts/Stakable.sol\":4533:4575  calculateStakingDuration(user_stake.since) */\n      tag_33\n        /* \"contracts/Stakable.sol\":4558:4568  user_stake */\n      dup5\n        /* \"contracts/Stakable.sol\":4558:4574  user_stake.since */\n      0x40\n      add\n      mload\n        /* \"contracts/Stakable.sol\":4533:4557  calculateStakingDuration */\n      tag_34\n        /* \"contracts/Stakable.sol\":4533:4575  calculateStakingDuration(user_stake.since) */\n      jump\t// in\n    tag_33:\n        /* \"contracts/Stakable.sol\":4493:4513  user_stake.rewardAPY */\n      0xa0\n      dup6\n      add\n      mload\n        /* \"contracts/Stakable.sol\":4466:4513  _amount *... */\n      tag_35\n      swap1\n        /* \"contracts/Stakable.sol\":4466:4473  _amount */\n      dup6\n        /* \"contracts/Stakable.sol\":4466:4513  _amount *... */\n      tag_36\n      jump\t// in\n    tag_35:\n        /* \"contracts/Stakable.sol\":4466:4575  _amount *... */\n      tag_37\n      swap2\n      swap1\n      tag_36\n      jump\t// in\n    tag_37:\n        /* \"contracts/Stakable.sol\":4465:4583  (_amount *... */\n      tag_38\n      swap2\n      swap1\n      tag_39\n      jump\t// in\n    tag_38:\n        /* \"contracts/Stakable.sol\":4445:4583  return... */\n      swap1\n      pop\n        /* \"contracts/Stakable.sol\":4223:4591  function calculateStakeReward(Stake memory user_stake, uint256 _amount)... */\n    tag_31:\n      swap3\n      swap2\n      pop\n      pop\n      jump\t// out\n        /* \"contracts/Stakable.sol\":4599:5058  function calculatePenalty(uint256 amount, uint256 reward)... */\n    tag_26:\n        /* \"contracts/Stakable.sol\":4707:4714  uint256 */\n      0x00\n        /* \"contracts/Stakable.sol\":4716:4723  uint256 */\n      dup1\n        /* \"contracts/Stakable.sol\":4741:4763  uint256 amount_penalty */\n      0x00\n        /* \"contracts/Stakable.sol\":4766:4864  SafeMath.div(... */\n      tag_41\n        /* \"contracts/Stakable.sol\":4793:4834  SafeMath.mul(amount, _stakingPenaltyRate) */\n      tag_42\n        /* \"contracts/Stakable.sol\":4806:4812  amount */\n      dup7\n        /* \"contracts/Stakable.sol\":4814:4833  _stakingPenaltyRate */\n      sload(0x00)\n        /* \"contracts/Stakable.sol\":4793:4805  SafeMath.mul */\n      tag_43\n        /* \"contracts/Stakable.sol\":4793:4834  SafeMath.mul(amount, _stakingPenaltyRate) */\n      jump\t// in\n    tag_42:\n        /* \"contracts/Stakable.sol\":4849:4853  1000 */\n      0x03e8\n        /* \"contracts/Stakable.sol\":4766:4778  SafeMath.div */\n      tag_44\n        /* \"contracts/Stakable.sol\":4766:4864  SafeMath.div(... */\n      jump\t// in\n    tag_41:\n        /* \"contracts/Stakable.sol\":4741:4864  uint256 amount_penalty = SafeMath.div(... */\n      swap1\n      pop\n        /* \"contracts/Stakable.sol\":4875:4897  uint256 reward_penalty */\n      0x00\n        /* \"contracts/Stakable.sol\":4900:4998  SafeMath.div(... */\n      tag_45\n        /* \"contracts/Stakable.sol\":4927:4968  SafeMath.mul(reward, _stakingPenaltyRate) */\n      tag_42\n        /* \"contracts/Stakable.sol\":4940:4946  reward */\n      dup7\n        /* \"contracts/Stakable.sol\":4948:4967  _stakingPenaltyRate */\n      sload(0x00)\n        /* \"contracts/Stakable.sol\":4927:4939  SafeMath.mul */\n      tag_43\n        /* \"contracts/Stakable.sol\":4927:4968  SafeMath.mul(reward, _stakingPenaltyRate) */\n      jump\t// in\n        /* \"contracts/Stakable.sol\":4900:4998  SafeMath.div(... */\n    tag_45:\n        /* \"contracts/Stakable.sol\":5019:5033  amount_penalty */\n      swap2\n      swap7\n      swap2\n      swap6\n      pop\n        /* \"contracts/Stakable.sol\":4599:5058  function calculatePenalty(uint256 amount, uint256 reward)... */\n      swap1\n      swap4\n      pop\n      pop\n      pop\n      pop\n      jump\t// out\n        /* \"contracts/Stakable.sol\":7844:8021  function calculateAirdrop(uint256 stakeAmount) internal view returns (uint256) {... */\n    tag_30:\n        /* \"contracts/Stakable.sol\":7914:7921  uint256 */\n      0x00\n        /* \"contracts/Stakable.sol\":7934:7949  uint256 airdrop */\n      dup1\n        /* \"contracts/Stakable.sol\":7984:7987  100 */\n      0x64\n        /* \"contracts/Stakable.sol\":7968:7980  _airdropRate */\n      sload(0x01)\n        /* \"contracts/Stakable.sol\":7954:7965  stakeAmount */\n      dup5\n        /* \"contracts/Stakable.sol\":7954:7980  stakeAmount * _airdropRate */\n      tag_48\n      swap2\n      swap1\n      tag_36\n      jump\t// in\n    tag_48:\n        /* \"contracts/Stakable.sol\":7953:7987  (stakeAmount * _airdropRate) / 100 */\n      tag_49\n      swap2\n      swap1\n      tag_39\n      jump\t// in\n    tag_49:\n        /* \"contracts/Stakable.sol\":7934:7988  uint256 airdrop = ((stakeAmount * _airdropRate) / 100) */\n      swap4\n        /* \"contracts/Stakable.sol\":7844:8021  function calculateAirdrop(uint256 stakeAmount) internal view returns (uint256) {... */\n      swap3\n      pop\n      pop\n      pop\n      jump\t// out\n        /* \"contracts/Stakable.sol\":3855:4215  function calculateStakingDuration(uint256 since_)... */\n    tag_34:\n        /* \"contracts/Stakable.sol\":3955:3962  uint256 */\n      0x00\n        /* \"contracts/Stakable.sol\":3997:3998  0 */\n      dup1\n        /* \"contracts/Stakable.sol\":3988:3994  since_ */\n      dup3\n        /* \"contracts/Stakable.sol\":3988:3998  since_ > 0 */\n      gt\n        /* \"contracts/Stakable.sol\":3980:4020  require(since_ > 0, \"Error timestamp 0\") */\n      tag_51\n      jumpi\n      mload(0x40)\n      shl(0xe5, 0x461bcd)\n      dup2\n      mstore\n        /* \"#utility.yul\":2895:2897   */\n      0x20\n        /* \"contracts/Stakable.sol\":3980:4020  require(since_ > 0, \"Error timestamp 0\") */\n      0x04\n      dup3\n      add\n        /* \"#utility.yul\":2877:2898   */\n      mstore\n        /* \"#utility.yul\":2934:2936   */\n      0x11\n        /* \"#utility.yul\":2914:2932   */\n      0x24\n      dup3\n      add\n        /* \"#utility.yul\":2907:2937   */\n      mstore\n        /* \"#utility.yul\":2973:2992   */\n      0x4572726f722074696d657374616d702030000000000000000000000000000000\n        /* \"#utility.yul\":2953:2971   */\n      0x44\n      dup3\n      add\n        /* \"#utility.yul\":2946:2993   */\n      mstore\n        /* \"#utility.yul\":3010:3028   */\n      0x64\n      add\n        /* \"contracts/Stakable.sol\":3980:4020  require(since_ > 0, \"Error timestamp 0\") */\n      tag_20\n        /* \"#utility.yul\":2693:3034   */\n      jump\n        /* \"contracts/Stakable.sol\":3980:4020  require(since_ > 0, \"Error timestamp 0\") */\n    tag_51:\n        /* \"contracts/Stakable.sol\":4051:4207  SafeMath.div(... */\n      tag_31\n        /* \"contracts/Stakable.sol\":4083:4107  block.timestamp - since_ */\n      tag_55\n        /* \"contracts/Stakable.sol\":4101:4107  since_ */\n      dup4\n        /* \"contracts/Stakable.sol\":4083:4098  block.timestamp */\n      timestamp\n        /* \"contracts/Stakable.sol\":4083:4107  block.timestamp - since_ */\n      tag_56\n      jump\t// in\n    tag_55:\n        /* \"contracts/Stakable.sol\":4082:4115  (block.timestamp - since_) * 1e24 */\n      tag_57\n      swap1\n        /* \"contracts/Stakable.sol\":4111:4115  1e24 */\n      0xd3c21bcecceda1000000\n        /* \"contracts/Stakable.sol\":4082:4115  (block.timestamp - since_) * 1e24 */\n      tag_36\n      jump\t// in\n    tag_57:\n        /* \"contracts/Stakable.sol\":4134:4142  365 days */\n      0x01e13380\n        /* \"contracts/Stakable.sol\":4051:4207  SafeMath.div(... */\n      mload(0x40)\n      dup1\n      0x40\n      add\n      0x40\n      mstore\n      dup1\n      0x1d\n      dup2\n      mstore\n      0x20\n      add\n      0x4572726f722063616e6e6f74206469766964652074696d657374616d70000000\n      dup2\n      mstore\n      pop\n        /* \"contracts/Stakable.sol\":4051:4063  SafeMath.div */\n      tag_58\n        /* \"contracts/Stakable.sol\":4051:4207  SafeMath.div(... */\n      jump\t// in\n        /* \"@openzeppelin/contracts/utils/math/SafeMath.sol\":3451:3547  function mul(uint256 a, uint256 b) internal pure returns (uint256) {... */\n    tag_43:\n        /* \"@openzeppelin/contracts/utils/math/SafeMath.sol\":3509:3516  uint256 */\n      0x00\n        /* \"@openzeppelin/contracts/utils/math/SafeMath.sol\":3535:3540  a * b */\n      tag_38\n        /* \"@openzeppelin/contracts/utils/math/SafeMath.sol\":3539:3540  b */\n      dup3\n        /* \"@openzeppelin/contracts/utils/math/SafeMath.sol\":3535:3536  a */\n      dup5\n        /* \"@openzeppelin/contracts/utils/math/SafeMath.sol\":3535:3540  a * b */\n      tag_36\n      jump\t// in\n        /* \"@openzeppelin/contracts/utils/math/SafeMath.sol\":3836:3932  function div(uint256 a, uint256 b) internal pure returns (uint256) {... */\n    tag_44:\n        /* \"@openzeppelin/contracts/utils/math/SafeMath.sol\":3894:3901  uint256 */\n      0x00\n        /* \"@openzeppelin/contracts/utils/math/SafeMath.sol\":3920:3925  a / b */\n      tag_38\n        /* \"@openzeppelin/contracts/utils/math/SafeMath.sol\":3924:3925  b */\n      dup3\n        /* \"@openzeppelin/contracts/utils/math/SafeMath.sol\":3920:3921  a */\n      dup5\n        /* \"@openzeppelin/contracts/utils/math/SafeMath.sol\":3920:3925  a / b */\n      tag_39\n      jump\t// in\n        /* \"@openzeppelin/contracts/utils/math/SafeMath.sol\":5660:5890  function div(... */\n    tag_58:\n        /* \"@openzeppelin/contracts/utils/math/SafeMath.sol\":5776:5783  uint256 */\n      0x00\n        /* \"@openzeppelin/contracts/utils/math/SafeMath.sol\":5834:5846  errorMessage */\n      dup2\n        /* \"@openzeppelin/contracts/utils/math/SafeMath.sol\":5827:5832  b > 0 */\n      dup4\n        /* \"@openzeppelin/contracts/utils/math/SafeMath.sol\":5819:5847  require(b > 0, errorMessage) */\n      tag_64\n      jumpi\n      mload(0x40)\n      shl(0xe5, 0x461bcd)\n      dup2\n      mstore\n      0x04\n      add\n      tag_20\n      swap2\n      swap1\n      tag_66\n      jump\t// in\n    tag_64:\n      pop\n        /* \"@openzeppelin/contracts/utils/math/SafeMath.sol\":5872:5873  b */\n      dup3\n        /* \"@openzeppelin/contracts/utils/math/SafeMath.sol\":5868:5869  a */\n      dup5\n        /* \"@openzeppelin/contracts/utils/math/SafeMath.sol\":5868:5873  a / b */\n      dup2\n      tag_68\n      jumpi\n      tag_68\n      tag_69\n      jump\t// in\n    tag_68:\n      div\n      swap5\n        /* \"@openzeppelin/contracts/utils/math/SafeMath.sol\":5660:5890  function div(... */\n      swap4\n      pop\n      pop\n      pop\n      pop\n      jump\t// out\n    tag_17:\n      mload(0x40)\n      dup1\n      0x60\n      add\n      0x40\n      mstore\n      dup1\n      0x00\n      dup2\n      mstore\n      0x20\n      add\n      0x00\n      dup2\n      mstore\n      0x20\n      add\n      tag_70\n      mload(0x40)\n      dup1\n      0xe0\n      add\n      0x40\n      mstore\n      dup1\n      and(0xffffffffffffffffffffffffffffffffffffffff, 0x00)\n      dup2\n      mstore\n      0x20\n      add\n      0x00\n      dup2\n      mstore\n      0x20\n      add\n      0x00\n      dup2\n      mstore\n      0x20\n      add\n      0x00\n      dup2\n      mstore\n      0x20\n      add\n      0x00\n      dup2\n      mstore\n      0x20\n      add\n      0x00\n      dup2\n      mstore\n      0x20\n      add\n      0x00\n      dup2\n      mstore\n      pop\n      swap1\n      jump\n    tag_70:\n      swap1\n      mstore\n      swap1\n      jump\t// out\n        /* \"#utility.yul\":196:505   */\n    tag_11:\n        /* \"#utility.yul\":255:261   */\n      0x00\n        /* \"#utility.yul\":308:310   */\n      0x20\n        /* \"#utility.yul\":296:305   */\n      dup3\n        /* \"#utility.yul\":287:294   */\n      dup5\n        /* \"#utility.yul\":283:306   */\n      sub\n        /* \"#utility.yul\":279:311   */\n      slt\n        /* \"#utility.yul\":276:328   */\n      iszero\n      tag_76\n      jumpi\n        /* \"#utility.yul\":324:325   */\n      0x00\n        /* \"#utility.yul\":321:322   */\n      dup1\n        /* \"#utility.yul\":314:326   */\n      revert\n        /* \"#utility.yul\":276:328   */\n    tag_76:\n        /* \"#utility.yul\":363:372   */\n      dup2\n        /* \"#utility.yul\":350:373   */\n      calldataload\n        /* \"#utility.yul\":413:455   */\n      0xffffffffffffffffffffffffffffffffffffffff\n        /* \"#utility.yul\":406:411   */\n      dup2\n        /* \"#utility.yul\":402:456   */\n      and\n        /* \"#utility.yul\":395:400   */\n      dup2\n        /* \"#utility.yul\":392:457   */\n      eq\n        /* \"#utility.yul\":382:475   */\n      tag_49\n      jumpi\n        /* \"#utility.yul\":471:472   */\n      0x00\n        /* \"#utility.yul\":468:469   */\n      dup1\n        /* \"#utility.yul\":461:473   */\n      revert\n        /* \"#utility.yul\":1730:1914   */\n    tag_72:\n      shl(0xe0, 0x4e487b71)\n        /* \"#utility.yul\":1779:1780   */\n      0x00\n        /* \"#utility.yul\":1772:1860   */\n      mstore\n        /* \"#utility.yul\":1879:1883   */\n      0x11\n        /* \"#utility.yul\":1876:1877   */\n      0x04\n        /* \"#utility.yul\":1869:1884   */\n      mstore\n        /* \"#utility.yul\":1903:1907   */\n      0x24\n        /* \"#utility.yul\":1900:1901   */\n      0x00\n        /* \"#utility.yul\":1893:1908   */\n      revert\n        /* \"#utility.yul\":1919:2047   */\n    tag_28:\n        /* \"#utility.yul\":1959:1962   */\n      0x00\n        /* \"#utility.yul\":1990:1991   */\n      dup3\n        /* \"#utility.yul\":1986:1992   */\n      not\n        /* \"#utility.yul\":1983:1984   */\n      dup3\n        /* \"#utility.yul\":1980:1993   */\n      gt\n        /* \"#utility.yul\":1977:2016   */\n      iszero\n      tag_83\n      jumpi\n        /* \"#utility.yul\":1996:2014   */\n      tag_83\n      tag_72\n      jump\t// in\n    tag_83:\n      pop\n        /* \"#utility.yul\":2032:2041   */\n      add\n      swap1\n        /* \"#utility.yul\":1919:2047   */\n      jump\t// out\n        /* \"#utility.yul\":2052:2220   */\n    tag_36:\n        /* \"#utility.yul\":2092:2099   */\n      0x00\n        /* \"#utility.yul\":2158:2159   */\n      dup2\n        /* \"#utility.yul\":2154:2155   */\n      0x00\n        /* \"#utility.yul\":2150:2156   */\n      not\n        /* \"#utility.yul\":2146:2160   */\n      div\n        /* \"#utility.yul\":2143:2144   */\n      dup4\n        /* \"#utility.yul\":2140:2161   */\n      gt\n        /* \"#utility.yul\":2135:2136   */\n      dup3\n        /* \"#utility.yul\":2128:2137   */\n      iszero\n        /* \"#utility.yul\":2121:2138   */\n      iszero\n        /* \"#utility.yul\":2117:2162   */\n      and\n        /* \"#utility.yul\":2114:2185   */\n      iszero\n      tag_86\n      jumpi\n        /* \"#utility.yul\":2165:2183   */\n      tag_86\n      tag_72\n      jump\t// in\n    tag_86:\n      pop\n        /* \"#utility.yul\":2205:2214   */\n      mul\n      swap1\n        /* \"#utility.yul\":2052:2220   */\n      jump\t// out\n        /* \"#utility.yul\":2225:2409   */\n    tag_69:\n      shl(0xe0, 0x4e487b71)\n        /* \"#utility.yul\":2274:2275   */\n      0x00\n        /* \"#utility.yul\":2267:2355   */\n      mstore\n        /* \"#utility.yul\":2374:2378   */\n      0x12\n        /* \"#utility.yul\":2371:2372   */\n      0x04\n        /* \"#utility.yul\":2364:2379   */\n      mstore\n        /* \"#utility.yul\":2398:2402   */\n      0x24\n        /* \"#utility.yul\":2395:2396   */\n      0x00\n        /* \"#utility.yul\":2388:2403   */\n      revert\n        /* \"#utility.yul\":2414:2688   */\n    tag_39:\n        /* \"#utility.yul\":2454:2455   */\n      0x00\n        /* \"#utility.yul\":2480:2481   */\n      dup3\n        /* \"#utility.yul\":2470:2659   */\n      tag_89\n      jumpi\n      shl(0xe0, 0x4e487b71)\n        /* \"#utility.yul\":2512:2513   */\n      0x00\n        /* \"#utility.yul\":2505:2593   */\n      mstore\n        /* \"#utility.yul\":2616:2620   */\n      0x12\n        /* \"#utility.yul\":2613:2614   */\n      0x04\n        /* \"#utility.yul\":2606:2621   */\n      mstore\n        /* \"#utility.yul\":2644:2648   */\n      0x24\n        /* \"#utility.yul\":2641:2642   */\n      0x00\n        /* \"#utility.yul\":2634:2649   */\n      revert\n        /* \"#utility.yul\":2470:2659   */\n    tag_89:\n      pop\n        /* \"#utility.yul\":2673:2682   */\n      div\n      swap1\n        /* \"#utility.yul\":2414:2688   */\n      jump\t// out\n        /* \"#utility.yul\":3039:3164   */\n    tag_56:\n        /* \"#utility.yul\":3079:3083   */\n      0x00\n        /* \"#utility.yul\":3107:3108   */\n      dup3\n        /* \"#utility.yul\":3104:3105   */\n      dup3\n        /* \"#utility.yul\":3101:3109   */\n      lt\n        /* \"#utility.yul\":3098:3132   */\n      iszero\n      tag_93\n      jumpi\n        /* \"#utility.yul\":3112:3130   */\n      tag_93\n      tag_72\n      jump\t// in\n    tag_93:\n      pop\n        /* \"#utility.yul\":3149:3158   */\n      sub\n      swap1\n        /* \"#utility.yul\":3039:3164   */\n      jump\t// out\n        /* \"#utility.yul\":3169:3766   */\n    tag_66:\n        /* \"#utility.yul\":3281:3285   */\n      0x00\n        /* \"#utility.yul\":3310:3312   */\n      0x20\n        /* \"#utility.yul\":3339:3341   */\n      dup1\n        /* \"#utility.yul\":3328:3337   */\n      dup4\n        /* \"#utility.yul\":3321:3342   */\n      mstore\n        /* \"#utility.yul\":3371:3377   */\n      dup4\n        /* \"#utility.yul\":3365:3378   */\n      mload\n        /* \"#utility.yul\":3414:3420   */\n      dup1\n        /* \"#utility.yul\":3409:3411   */\n      dup3\n        /* \"#utility.yul\":3398:3407   */\n      dup6\n        /* \"#utility.yul\":3394:3412   */\n      add\n        /* \"#utility.yul\":3387:3421   */\n      mstore\n        /* \"#utility.yul\":3439:3440   */\n      0x00\n        /* \"#utility.yul\":3449:3589   */\n    tag_95:\n        /* \"#utility.yul\":3463:3469   */\n      dup2\n        /* \"#utility.yul\":3460:3461   */\n      dup2\n        /* \"#utility.yul\":3457:3470   */\n      lt\n        /* \"#utility.yul\":3449:3589   */\n      iszero\n      tag_97\n      jumpi\n        /* \"#utility.yul\":3558:3572   */\n      dup6\n      dup2\n      add\n        /* \"#utility.yul\":3554:3577   */\n      dup4\n      add\n        /* \"#utility.yul\":3548:3578   */\n      mload\n        /* \"#utility.yul\":3524:3541   */\n      dup6\n      dup3\n      add\n        /* \"#utility.yul\":3543:3545   */\n      0x40\n        /* \"#utility.yul\":3520:3546   */\n      add\n        /* \"#utility.yul\":3513:3579   */\n      mstore\n        /* \"#utility.yul\":3478:3488   */\n      dup3\n      add\n        /* \"#utility.yul\":3449:3589   */\n      jump(tag_95)\n    tag_97:\n        /* \"#utility.yul\":3607:3613   */\n      dup2\n        /* \"#utility.yul\":3604:3605   */\n      dup2\n        /* \"#utility.yul\":3601:3614   */\n      gt\n        /* \"#utility.yul\":3598:3689   */\n      iszero\n      tag_98\n      jumpi\n        /* \"#utility.yul\":3677:3678   */\n      0x00\n        /* \"#utility.yul\":3672:3674   */\n      0x40\n        /* \"#utility.yul\":3663:3669   */\n      dup4\n        /* \"#utility.yul\":3652:3661   */\n      dup8\n        /* \"#utility.yul\":3648:3670   */\n      add\n        /* \"#utility.yul\":3644:3675   */\n      add\n        /* \"#utility.yul\":3637:3679   */\n      mstore\n        /* \"#utility.yul\":3598:3689   */\n    tag_98:\n      pop\n        /* \"#utility.yul\":3750:3752   */\n      0x1f\n        /* \"#utility.yul\":3729:3744   */\n      add\n      not(0x1f)\n        /* \"#utility.yul\":3725:3754   */\n      and\n        /* \"#utility.yul\":3710:3755   */\n      swap3\n      swap1\n      swap3\n      add\n        /* \"#utility.yul\":3757:3759   */\n      0x40\n        /* \"#utility.yul\":3706:3760   */\n      add\n      swap4\n        /* \"#utility.yul\":3169:3766   */\n      swap3\n      pop\n      pop\n      pop\n      jump\t// out\n\n    auxdata: 0xa2646970667358221220e1392e2da2cb73a7498badd04364aff628a08c8f934d729e1822c5bd4185e11764736f6c634300080b0033\n}\n",
				"bytecode": {
					"linkReferences": {},
					"object": "608060405234801561001057600080fd5b50600f60005560506001556105f38061002a6000396000f3fe608060405234801561001057600080fd5b50600436106100365760003560e01c80633dc10ad41461003b578063e73e14bf14610051575b600080fd5b6000546040519081526020015b60405180910390f35b61006461005f366004610496565b6100e9565b60405161004891906000610120820190508251825260208301516020830152604083015173ffffffffffffffffffffffffffffffffffffffff81511660408401526020810151606084015260408101516080840152606081015160a0840152608081015160c084015260a081015160e084015260c08101516101008401525092915050565b6100f1610422565b60408051606080820183526000808352602080840182905273ffffffffffffffffffffffffffffffffffffffff8088168352600280835292869020865160e081018852815490921682526001810154928201928352928301548187015260038301549381019390935260048201546080840152600582015460a084015260069091015460c08301529282015290516101d05760405162461bcd60e51b815260206004820152600e60248201527f4e6f207374616b6520666f756e6400000000000000000000000000000000000060448201526064015b60405180910390fd5b604081015160208101516000916101e691610262565b9050600042836040015160c0015111156102235760008061020f856040015160200151856102be565b909250905061021e81836104e2565b925050505b60006102368460400151602001516102fa565b604085018051608001919091528051606001939093525060208084019190915290510151815292915050565b6000826020015160001415610279575060006102b8565b6a52b7d2dcc80cd2e4000000610292846040015161031e565b60a08501516102a190856104fa565b6102ab91906104fa565b6102b5919061052f565b90505b92915050565b60008060006102da6102d2866000546103d0565b6103e86103dc565b905060006102ed6102d2866000546103d0565b9196919550909350505050565b60008060646001548461030d91906104fa565b610317919061052f565b9392505050565b600080821161036f5760405162461bcd60e51b815260206004820152601160248201527f4572726f722074696d657374616d70203000000000000000000000000000000060448201526064016101c7565b6102b861037c8342610551565b6103909069d3c21bcecceda10000006104fa565b6301e133806040518060400160405280601d81526020017f4572726f722063616e6e6f74206469766964652074696d657374616d700000008152506103e8565b60006102b582846104fa565b60006102b5828461052f565b600081836104095760405162461bcd60e51b81526004016101c79190610568565b5082848161041957610419610519565b04949350505050565b604051806060016040528060008152602001600081526020016104916040518060e00160405280600073ffffffffffffffffffffffffffffffffffffffff1681526020016000815260200160008152602001600081526020016000815260200160008152602001600081525090565b905290565b6000602082840312156104a857600080fd5b813573ffffffffffffffffffffffffffffffffffffffff8116811461031757600080fd5b634e487b7160e01b600052601160045260246000fd5b600082198211156104f5576104f56104cc565b500190565b6000816000190483118215151615610514576105146104cc565b500290565b634e487b7160e01b600052601260045260246000fd5b60008261054c57634e487b7160e01b600052601260045260246000fd5b500490565b600082821015610563576105636104cc565b500390565b600060208083528351808285015260005b8181101561059557858101830151858201604001528201610579565b818111156105a7576000604083870101525b50601f01601f191692909201604001939250505056fea2646970667358221220e1392e2da2cb73a7498badd04364aff628a08c8f934d729e1822c5bd4185e11764736f6c634300080b0033",
					"opcodes": "PUSH1 0x80 PUSH1 0x40 MSTORE CALLVALUE DUP1 ISZERO PUSH2 0x10 JUMPI PUSH1 0x0 DUP1 REVERT JUMPDEST POP PUSH1 0xF PUSH1 0x0 SSTORE PUSH1 0x50 PUSH1 0x1 SSTORE PUSH2 0x5F3 DUP1 PUSH2 0x2A PUSH1 0x0 CODECOPY PUSH1 0x0 RETURN INVALID PUSH1 0x80 PUSH1 0x40 MSTORE CALLVALUE DUP1 ISZERO PUSH2 0x10 JUMPI PUSH1 0x0 DUP1 REVERT JUMPDEST POP PUSH1 0x4 CALLDATASIZE LT PUSH2 0x36 JUMPI PUSH1 0x0 CALLDATALOAD PUSH1 0xE0 SHR DUP1 PUSH4 0x3DC10AD4 EQ PUSH2 0x3B JUMPI DUP1 PUSH4 0xE73E14BF EQ PUSH2 0x51 JUMPI JUMPDEST PUSH1 0x0 DUP1 REVERT JUMPDEST PUSH1 0x0 SLOAD PUSH1 0x40 MLOAD SWAP1 DUP2 MSTORE PUSH1 0x20 ADD JUMPDEST PUSH1 0x40 MLOAD DUP1 SWAP2 SUB SWAP1 RETURN JUMPDEST PUSH2 0x64 PUSH2 0x5F CALLDATASIZE PUSH1 0x4 PUSH2 0x496 JUMP JUMPDEST PUSH2 0xE9 JUMP JUMPDEST PUSH1 0x40 MLOAD PUSH2 0x48 SWAP2 SWAP1 PUSH1 0x0 PUSH2 0x120 DUP3 ADD SWAP1 POP DUP3 MLOAD DUP3 MSTORE PUSH1 0x20 DUP4 ADD MLOAD PUSH1 0x20 DUP4 ADD MSTORE PUSH1 0x40 DUP4 ADD MLOAD PUSH20 0xFFFFFFFFFFFFFFFFFFFFFFFFFFFFFFFFFFFFFFFF DUP2 MLOAD AND PUSH1 0x40 DUP5 ADD MSTORE PUSH1 0x20 DUP2 ADD MLOAD PUSH1 0x60 DUP5 ADD MSTORE PUSH1 0x40 DUP2 ADD MLOAD PUSH1 0x80 DUP5 ADD MSTORE PUSH1 0x60 DUP2 ADD MLOAD PUSH1 0xA0 DUP5 ADD MSTORE PUSH1 0x80 DUP2 ADD MLOAD PUSH1 0xC0 DUP5 ADD MSTORE PUSH1 0xA0 DUP2 ADD MLOAD PUSH1 0xE0 DUP5 ADD MSTORE PUSH1 0xC0 DUP2 ADD MLOAD PUSH2 0x100 DUP5 ADD MSTORE POP SWAP3 SWAP2 POP POP JUMP JUMPDEST PUSH2 0xF1 PUSH2 0x422 JUMP JUMPDEST PUSH1 0x40 DUP1 MLOAD PUSH1 0x60 DUP1 DUP3 ADD DUP4 MSTORE PUSH1 0x0 DUP1 DUP4 MSTORE PUSH1 0x20 DUP1 DUP5 ADD DUP3 SWAP1 MSTORE PUSH20 0xFFFFFFFFFFFFFFFFFFFFFFFFFFFFFFFFFFFFFFFF DUP1 DUP9 AND DUP4 MSTORE PUSH1 0x2 DUP1 DUP4 MSTORE SWAP3 DUP7 SWAP1 KECCAK256 DUP7 MLOAD PUSH1 0xE0 DUP2 ADD DUP9 MSTORE DUP2 SLOAD SWAP1 SWAP3 AND DUP3 MSTORE PUSH1 0x1 DUP2 ADD SLOAD SWAP3 DUP3 ADD SWAP3 DUP4 MSTORE SWAP3 DUP4 ADD SLOAD DUP2 DUP8 ADD MSTORE PUSH1 0x3 DUP4 ADD SLOAD SWAP4 DUP2 ADD SWAP4 SWAP1 SWAP4 MSTORE PUSH1 0x4 DUP3 ADD SLOAD PUSH1 0x80 DUP5 ADD MSTORE PUSH1 0x5 DUP3 ADD SLOAD PUSH1 0xA0 DUP5 ADD MSTORE PUSH1 0x6 SWAP1 SWAP2 ADD SLOAD PUSH1 0xC0 DUP4 ADD MSTORE SWAP3 DUP3 ADD MSTORE SWAP1 MLOAD PUSH2 0x1D0 JUMPI PUSH1 0x40 MLOAD PUSH3 0x461BCD PUSH1 0xE5 SHL DUP2 MSTORE PUSH1 0x20 PUSH1 0x4 DUP3 ADD MSTORE PUSH1 0xE PUSH1 0x24 DUP3 ADD MSTORE PUSH32 0x4E6F207374616B6520666F756E64000000000000000000000000000000000000 PUSH1 0x44 DUP3 ADD MSTORE PUSH1 0x64 ADD JUMPDEST PUSH1 0x40 MLOAD DUP1 SWAP2 SUB SWAP1 REVERT JUMPDEST PUSH1 0x40 DUP2 ADD MLOAD PUSH1 0x20 DUP2 ADD MLOAD PUSH1 0x0 SWAP2 PUSH2 0x1E6 SWAP2 PUSH2 0x262 JUMP JUMPDEST SWAP1 POP PUSH1 0x0 TIMESTAMP DUP4 PUSH1 0x40 ADD MLOAD PUSH1 0xC0 ADD MLOAD GT ISZERO PUSH2 0x223 JUMPI PUSH1 0x0 DUP1 PUSH2 0x20F DUP6 PUSH1 0x40 ADD MLOAD PUSH1 0x20 ADD MLOAD DUP6 PUSH2 0x2BE JUMP JUMPDEST SWAP1 SWAP3 POP SWAP1 POP PUSH2 0x21E DUP2 DUP4 PUSH2 0x4E2 JUMP JUMPDEST SWAP3 POP POP POP JUMPDEST PUSH1 0x0 PUSH2 0x236 DUP5 PUSH1 0x40 ADD MLOAD PUSH1 0x20 ADD MLOAD PUSH2 0x2FA JUMP JUMPDEST PUSH1 0x40 DUP6 ADD DUP1 MLOAD PUSH1 0x80 ADD SWAP2 SWAP1 SWAP2 MSTORE DUP1 MLOAD PUSH1 0x60 ADD SWAP4 SWAP1 SWAP4 MSTORE POP PUSH1 0x20 DUP1 DUP5 ADD SWAP2 SWAP1 SWAP2 MSTORE SWAP1 MLOAD ADD MLOAD DUP2 MSTORE SWAP3 SWAP2 POP POP JUMP JUMPDEST PUSH1 0x0 DUP3 PUSH1 0x20 ADD MLOAD PUSH1 0x0 EQ ISZERO PUSH2 0x279 JUMPI POP PUSH1 0x0 PUSH2 0x2B8 JUMP JUMPDEST PUSH11 0x52B7D2DCC80CD2E4000000 PUSH2 0x292 DUP5 PUSH1 0x40 ADD MLOAD PUSH2 0x31E JUMP JUMPDEST PUSH1 0xA0 DUP6 ADD MLOAD PUSH2 0x2A1 SWAP1 DUP6 PUSH2 0x4FA JUMP JUMPDEST PUSH2 0x2AB SWAP2 SWAP1 PUSH2 0x4FA JUMP JUMPDEST PUSH2 0x2B5 SWAP2 SWAP1 PUSH2 0x52F JUMP JUMPDEST SWAP1 POP JUMPDEST SWAP3 SWAP2 POP POP JUMP JUMPDEST PUSH1 0x0 DUP1 PUSH1 0x0 PUSH2 0x2DA PUSH2 0x2D2 DUP7 PUSH1 0x0 SLOAD PUSH2 0x3D0 JUMP JUMPDEST PUSH2 0x3E8 PUSH2 0x3DC JUMP JUMPDEST SWAP1 POP PUSH1 0x0 PUSH2 0x2ED PUSH2 0x2D2 DUP7 PUSH1 0x0 SLOAD PUSH2 0x3D0 JUMP JUMPDEST SWAP2 SWAP7 SWAP2 SWAP6 POP SWAP1 SWAP4 POP POP POP POP JUMP JUMPDEST PUSH1 0x0 DUP1 PUSH1 0x64 PUSH1 0x1 SLOAD DUP5 PUSH2 0x30D SWAP2 SWAP1 PUSH2 0x4FA JUMP JUMPDEST PUSH2 0x317 SWAP2 SWAP1 PUSH2 0x52F JUMP JUMPDEST SWAP4 SWAP3 POP POP POP JUMP JUMPDEST PUSH1 0x0 DUP1 DUP3 GT PUSH2 0x36F JUMPI PUSH1 0x40 MLOAD PUSH3 0x461BCD PUSH1 0xE5 SHL DUP2 MSTORE PUSH1 0x20 PUSH1 0x4 DUP3 ADD MSTORE PUSH1 0x11 PUSH1 0x24 DUP3 ADD MSTORE PUSH32 0x4572726F722074696D657374616D702030000000000000000000000000000000 PUSH1 0x44 DUP3 ADD MSTORE PUSH1 0x64 ADD PUSH2 0x1C7 JUMP JUMPDEST PUSH2 0x2B8 PUSH2 0x37C DUP4 TIMESTAMP PUSH2 0x551 JUMP JUMPDEST PUSH2 0x390 SWAP1 PUSH10 0xD3C21BCECCEDA1000000 PUSH2 0x4FA JUMP JUMPDEST PUSH4 0x1E13380 PUSH1 0x40 MLOAD DUP1 PUSH1 0x40 ADD PUSH1 0x40 MSTORE DUP1 PUSH1 0x1D DUP2 MSTORE PUSH1 0x20 ADD PUSH32 0x4572726F722063616E6E6F74206469766964652074696D657374616D70000000 DUP2 MSTORE POP PUSH2 0x3E8 JUMP JUMPDEST PUSH1 0x0 PUSH2 0x2B5 DUP3 DUP5 PUSH2 0x4FA JUMP JUMPDEST PUSH1 0x0 PUSH2 0x2B5 DUP3 DUP5 PUSH2 0x52F JUMP JUMPDEST PUSH1 0x0 DUP2 DUP4 PUSH2 0x409 JUMPI PUSH1 0x40 MLOAD PUSH3 0x461BCD PUSH1 0xE5 SHL DUP2 MSTORE PUSH1 0x4 ADD PUSH2 0x1C7 SWAP2 SWAP1 PUSH2 0x568 JUMP JUMPDEST POP DUP3 DUP5 DUP2 PUSH2 0x419 JUMPI PUSH2 0x419 PUSH2 0x519 JUMP JUMPDEST DIV SWAP5 SWAP4 POP POP POP POP JUMP JUMPDEST PUSH1 0x40 MLOAD DUP1 PUSH1 0x60 ADD PUSH1 0x40 MSTORE DUP1 PUSH1 0x0 DUP2 MSTORE PUSH1 0x20 ADD PUSH1 0x0 DUP2 MSTORE PUSH1 0x20 ADD PUSH2 0x491 PUSH1 0x40 MLOAD DUP1 PUSH1 0xE0 ADD PUSH1 0x40 MSTORE DUP1 PUSH1 0x0 PUSH20 0xFFFFFFFFFFFFFFFFFFFFFFFFFFFFFFFFFFFFFFFF AND DUP2 MSTORE PUSH1 0x20 ADD PUSH1 0x0 DUP2 MSTORE PUSH1 0x20 ADD PUSH1 0x0 DUP2 MSTORE PUSH1 0x20 ADD PUSH1 0x0 DUP2 MSTORE PUSH1 0x20 ADD PUSH1 0x0 DUP2 MSTORE PUSH1 0x20 ADD PUSH1 0x0 DUP2 MSTORE PUSH1 0x20 ADD PUSH1 0x0 DUP2 MSTORE POP SWAP1 JUMP JUMPDEST SWAP1 MSTORE SWAP1 JUMP JUMPDEST PUSH1 0x0 PUSH1 0x20 DUP3 DUP5 SUB SLT ISZERO PUSH2 0x4A8 JUMPI PUSH1 0x0 DUP1 REVERT JUMPDEST DUP2 CALLDATALOAD PUSH20 0xFFFFFFFFFFFFFFFFFFFFFFFFFFFFFFFFFFFFFFFF DUP2 AND DUP2 EQ PUSH2 0x317 JUMPI PUSH1 0x0 DUP1 REVERT JUMPDEST PUSH4 0x4E487B71 PUSH1 0xE0 SHL PUSH1 0x0 MSTORE PUSH1 0x11 PUSH1 0x4 MSTORE PUSH1 0x24 PUSH1 0x0 REVERT JUMPDEST PUSH1 0x0 DUP3 NOT DUP3 GT ISZERO PUSH2 0x4F5 JUMPI PUSH2 0x4F5 PUSH2 0x4CC JUMP JUMPDEST POP ADD SWAP1 JUMP JUMPDEST PUSH1 0x0 DUP2 PUSH1 0x0 NOT DIV DUP4 GT DUP3 ISZERO ISZERO AND ISZERO PUSH2 0x514 JUMPI PUSH2 0x514 PUSH2 0x4CC JUMP JUMPDEST POP MUL SWAP1 JUMP JUMPDEST PUSH4 0x4E487B71 PUSH1 0xE0 SHL PUSH1 0x0 MSTORE PUSH1 0x12 PUSH1 0x4 MSTORE PUSH1 0x24 PUSH1 0x0 REVERT JUMPDEST PUSH1 0x0 DUP3 PUSH2 0x54C JUMPI PUSH4 0x4E487B71 PUSH1 0xE0 SHL PUSH1 0x0 MSTORE PUSH1 0x12 PUSH1 0x4 MSTORE PUSH1 0x24 PUSH1 0x0 REVERT JUMPDEST POP DIV SWAP1 JUMP JUMPDEST PUSH1 0x0 DUP3 DUP3 LT ISZERO PUSH2 0x563 JUMPI PUSH2 0x563 PUSH2 0x4CC JUMP JUMPDEST POP SUB SWAP1 JUMP JUMPDEST PUSH1 0x0 PUSH1 0x20 DUP1 DUP4 MSTORE DUP4 MLOAD DUP1 DUP3 DUP6 ADD MSTORE PUSH1 0x0 JUMPDEST DUP2 DUP2 LT ISZERO PUSH2 0x595 JUMPI DUP6 DUP2 ADD DUP4 ADD MLOAD DUP6 DUP3 ADD PUSH1 0x40 ADD MSTORE DUP3 ADD PUSH2 0x579 JUMP JUMPDEST DUP2 DUP2 GT ISZERO PUSH2 0x5A7 JUMPI PUSH1 0x0 PUSH1 0x40 DUP4 DUP8 ADD ADD MSTORE JUMPDEST POP PUSH1 0x1F ADD PUSH1 0x1F NOT AND SWAP3 SWAP1 SWAP3 ADD PUSH1 0x40 ADD SWAP4 SWAP3 POP POP POP JUMP INVALID LOG2 PUSH5 0x6970667358 0x22 SLT KECCAK256 0xE1 CODECOPY 0x2E 0x2D LOG2 0xCB PUSH20 0xA7498BADD04364AFF628A08C8F934D729E1822C5 0xBD COINBASE DUP6 0xE1 OR PUSH5 0x736F6C6343 STOP ADDMOD SIGNEXTEND STOP CALLER "
				},
				"gasEstimates": {
					"creation": {
						"codeDepositCost": "304600",
						"executionCost": "44555",
						"totalCost": "349155"
					},
					"external": {
						"hasStake(address)": "infinite",
						"penaltyFee()": "2247"
					},
					"internal": {
						"_changeAirdropPercentage(uint256)": "infinite",
						"_changePenaltyFee(uint256)": "infinite",
						"_claimAirdrop(address)": "infinite",
						"_stake(address,uint256,uint256,uint256)": "infinite",
						"_withdrawStake(address,uint256)": "infinite",
						"calculateAirdrop(uint256)": "2288",
						"calculatePenalty(uint256,uint256)": "infinite",
						"calculateStakeReward(struct Stakable.Stake memory,uint256)": "infinite",
						"calculateStakingDuration(uint256)": "infinite",
						"calculateStakingWithPenalty(uint256,uint256)": "infinite"
					}
				},
				"methodIdentifiers": {
					"hasStake(address)": "e73e14bf",
					"penaltyFee()": "3dc10ad4"
				}
			},
			"storageLayout": {
				"storage": [
					{
						"astId": 320,
						"contract": "contracts/Stakable.sol:Stakable",
						"label": "_stakingPenaltyRate",
						"offset": 0,
						"slot": "0",
						"type": "t_uint256"
					},
					{
						"astId": 322,
						"contract": "contracts/Stakable.sol:Stakable",
						"label": "_airdropRate",
						"offset": 0,
						"slot": "1",
						"type": "t_uint256"
					},
					{
						"astId": 371,
						"contract": "contracts/Stakable.sol:Stakable",
						"label": "stakeholders",
						"offset": 0,
						"slot": "2",
						"type": "t_mapping(t_address,t_struct(Stakeholder)357_storage)"
					}
				],
				"types": {
					"t_address": {
						"encoding": "inplace",
						"label": "address",
						"numberOfBytes": "20"
					},
					"t_mapping(t_address,t_struct(Stakeholder)357_storage)": {
						"encoding": "mapping",
						"key": "t_address",
						"label": "mapping(address => struct Stakable.Stakeholder)",
						"numberOfBytes": "32",
						"value": "t_struct(Stakeholder)357_storage"
					},
					"t_struct(Stake)349_storage": {
						"encoding": "inplace",
						"label": "struct Stakable.Stake",
						"members": [
							{
								"astId": 336,
								"contract": "contracts/Stakable.sol:Stakable",
								"label": "user",
								"offset": 0,
								"slot": "0",
								"type": "t_address"
							},
							{
								"astId": 338,
								"contract": "contracts/Stakable.sol:Stakable",
								"label": "amount",
								"offset": 0,
								"slot": "1",
								"type": "t_uint256"
							},
							{
								"astId": 340,
								"contract": "contracts/Stakable.sol:Stakable",
								"label": "since",
								"offset": 0,
								"slot": "2",
								"type": "t_uint256"
							},
							{
								"astId": 342,
								"contract": "contracts/Stakable.sol:Stakable",
								"label": "claimable",
								"offset": 0,
								"slot": "3",
								"type": "t_uint256"
							},
							{
								"astId": 344,
								"contract": "contracts/Stakable.sol:Stakable",
								"label": "claimable_airdrop",
								"offset": 0,
								"slot": "4",
								"type": "t_uint256"
							},
							{
								"astId": 346,
								"contract": "contracts/Stakable.sol:Stakable",
								"label": "rewardAPY",
								"offset": 0,
								"slot": "5",
								"type": "t_uint256"
							},
							{
								"astId": 348,
								"contract": "contracts/Stakable.sol:Stakable",
								"label": "releaseTime",
								"offset": 0,
								"slot": "6",
								"type": "t_uint256"
							}
						],
						"numberOfBytes": "224"
					},
					"t_struct(Stakeholder)357_storage": {
						"encoding": "inplace",
						"label": "struct Stakable.Stakeholder",
						"members": [
							{
								"astId": 352,
								"contract": "contracts/Stakable.sol:Stakable",
								"label": "stake",
								"offset": 0,
								"slot": "0",
								"type": "t_struct(Stake)349_storage"
							},
							{
								"astId": 354,
								"contract": "contracts/Stakable.sol:Stakable",
								"label": "user",
								"offset": 0,
								"slot": "7",
								"type": "t_address"
							},
							{
								"astId": 356,
								"contract": "contracts/Stakable.sol:Stakable",
								"label": "latestClaimDrop",
								"offset": 0,
								"slot": "8",
								"type": "t_uint256"
							}
						],
						"numberOfBytes": "288"
					},
					"t_uint256": {
						"encoding": "inplace",
						"label": "uint256",
						"numberOfBytes": "32"
					}
				}
			},
			"userdoc": {
				"events": {
					"Staked(address,uint256,uint256,uint256)": {
						"notice": "Staked event is triggered whenever a user stakes tokens, address is indexed to make it filterable"
					}
				},
				"kind": "user",
				"methods": {},
				"version": 1
			}
		}
	}
}