{
	"contracts/Stakable-2.0.sol": {
		"Staking": {
			"abi": [
				{
					"inputs": [
						{
							"internalType": "address",
							"name": "token",
							"type": "address"
						}
					],
					"stateMutability": "nonpayable",
					"type": "constructor"
				},
				{
					"inputs": [],
					"name": "Airdrop__claimableOnceAWeek",
					"type": "error"
				},
				{
					"inputs": [],
					"name": "Function__notAVoter",
					"type": "error"
				},
				{
					"inputs": [],
					"name": "Function__votingNotAvailable",
					"type": "error"
				},
				{
					"inputs": [],
					"name": "Staking__airdropExceed20Percent",
					"type": "error"
				},
				{
					"inputs": [],
					"name": "Staking__cannotStakeNothing",
					"type": "error"
				},
				{
					"inputs": [],
					"name": "Staking__noStakingFound",
					"type": "error"
				},
				{
					"inputs": [],
					"name": "Staking__penaltyExceed3Percent",
					"type": "error"
				},
				{
					"inputs": [],
					"name": "Staking__userIsStaker",
					"type": "error"
				},
				{
					"inputs": [],
					"name": "Staking_noStakingPackageFound",
					"type": "error"
				},
				{
					"inputs": [],
					"name": "Voting__alreadyVoted",
					"type": "error"
				},
				{
					"inputs": [],
					"name": "Voting__notEnoughVoters",
					"type": "error"
				},
				{
					"inputs": [],
					"name": "Voting__notYetVoted",
					"type": "error"
				},
				{
					"inputs": [],
					"name": "Voting__votingIsRunning",
					"type": "error"
				},
				{
					"anonymous": false,
					"inputs": [
						{
							"indexed": false,
							"internalType": "uint256",
							"name": "amount",
							"type": "uint256"
						}
					],
					"name": "AirdropChanged",
					"type": "event"
				},
				{
					"anonymous": false,
					"inputs": [
						{
							"indexed": true,
							"internalType": "address",
							"name": "previousOwner",
							"type": "address"
						},
						{
							"indexed": true,
							"internalType": "address",
							"name": "newOwner",
							"type": "address"
						}
					],
					"name": "OwnershipTransferred",
					"type": "event"
				},
				{
					"anonymous": false,
					"inputs": [
						{
							"indexed": false,
							"internalType": "uint256",
							"name": "amount",
							"type": "uint256"
						}
					],
					"name": "PenaltyChanged",
					"type": "event"
				},
				{
					"anonymous": false,
					"inputs": [
						{
							"indexed": true,
							"internalType": "address",
							"name": "user",
							"type": "address"
						},
						{
							"indexed": false,
							"internalType": "uint256",
							"name": "amount",
							"type": "uint256"
						},
						{
							"indexed": false,
							"internalType": "uint256",
							"name": "timestamp",
							"type": "uint256"
						},
						{
							"indexed": false,
							"internalType": "uint256",
							"name": "releaseTime",
							"type": "uint256"
						}
					],
					"name": "Staked",
					"type": "event"
				},
				{
					"inputs": [],
					"name": "_blockTimestamp",
					"outputs": [
						{
							"internalType": "uint256",
							"name": "",
							"type": "uint256"
						}
					],
					"stateMutability": "view",
					"type": "function"
				},
				{
					"inputs": [],
					"name": "airdropRate",
					"outputs": [
						{
							"internalType": "uint256",
							"name": "",
							"type": "uint256"
						}
					],
					"stateMutability": "view",
					"type": "function"
				},
				{
					"inputs": [],
					"name": "airdropSince",
					"outputs": [
						{
							"internalType": "uint256",
							"name": "",
							"type": "uint256"
						}
					],
					"stateMutability": "view",
					"type": "function"
				},
				{
					"inputs": [
						{
							"internalType": "uint256",
							"name": "timestamp",
							"type": "uint256"
						}
					],
					"name": "calculateWeek",
					"outputs": [
						{
							"internalType": "uint256",
							"name": "",
							"type": "uint256"
						}
					],
					"stateMutability": "view",
					"type": "function"
				},
				{
					"inputs": [
						{
							"internalType": "uint256",
							"name": "amount",
							"type": "uint256"
						}
					],
					"name": "changeAirdropPercentage",
					"outputs": [],
					"stateMutability": "nonpayable",
					"type": "function"
				},
				{
					"inputs": [
						{
							"internalType": "uint256",
							"name": "amount",
							"type": "uint256"
						}
					],
					"name": "changePenaltyFee",
					"outputs": [],
					"stateMutability": "nonpayable",
					"type": "function"
				},
				{
					"inputs": [
						{
							"internalType": "address",
							"name": "user",
							"type": "address"
						}
					],
					"name": "claimAirdrop",
					"outputs": [],
					"stateMutability": "nonpayable",
					"type": "function"
				},
				{
					"inputs": [
						{
							"internalType": "address",
							"name": "user",
							"type": "address"
						}
					],
					"name": "getVoters",
					"outputs": [
						{
							"internalType": "bool",
							"name": "",
							"type": "bool"
						},
						{
							"internalType": "bool",
							"name": "",
							"type": "bool"
						}
					],
					"stateMutability": "view",
					"type": "function"
				},
				{
					"inputs": [],
					"name": "getVotingResult",
					"outputs": [
						{
							"internalType": "bool",
							"name": "",
							"type": "bool"
						}
					],
					"stateMutability": "view",
					"type": "function"
				},
				{
					"inputs": [],
					"name": "hasStake",
					"outputs": [
						{
							"components": [
								{
									"internalType": "uint256",
									"name": "total_amount",
									"type": "uint256"
								},
								{
									"internalType": "uint256",
									"name": "penalty",
									"type": "uint256"
								},
								{
									"components": [
										{
											"internalType": "uint256",
											"name": "amount",
											"type": "uint256"
										},
										{
											"internalType": "uint256",
											"name": "since",
											"type": "uint256"
										},
										{
											"internalType": "uint256",
											"name": "rewardAPY",
											"type": "uint256"
										},
										{
											"internalType": "uint256",
											"name": "releaseTime",
											"type": "uint256"
										},
										{
											"internalType": "uint256",
											"name": "claimable",
											"type": "uint256"
										},
										{
											"internalType": "uint256",
											"name": "claimableAirdrop",
											"type": "uint256"
										},
										{
											"internalType": "uint256",
											"name": "latestClaimDrop",
											"type": "uint256"
										}
									],
									"internalType": "struct Staking.Stake",
									"name": "stake",
									"type": "tuple"
								}
							],
							"internalType": "struct Staking.StakingSummary",
							"name": "",
							"type": "tuple"
						}
					],
					"stateMutability": "view",
					"type": "function"
				},
				{
					"inputs": [],
					"name": "owner",
					"outputs": [
						{
							"internalType": "address",
							"name": "",
							"type": "address"
						}
					],
					"stateMutability": "view",
					"type": "function"
				},
				{
					"inputs": [],
					"name": "renounceOwnership",
					"outputs": [],
					"stateMutability": "nonpayable",
					"type": "function"
				},
				{
					"inputs": [],
					"name": "retractVote",
					"outputs": [],
					"stateMutability": "nonpayable",
					"type": "function"
				},
				{
					"inputs": [
						{
							"internalType": "uint256",
							"name": "amount",
							"type": "uint256"
						},
						{
							"internalType": "uint256",
							"name": "stakePeriod",
							"type": "uint256"
						}
					],
					"name": "stake",
					"outputs": [],
					"stateMutability": "nonpayable",
					"type": "function"
				},
				{
					"inputs": [],
					"name": "stakingPenaltyRate",
					"outputs": [
						{
							"internalType": "uint256",
							"name": "",
							"type": "uint256"
						}
					],
					"stateMutability": "view",
					"type": "function"
				},
				{
					"inputs": [],
					"name": "startAirdrop",
					"outputs": [],
					"stateMutability": "nonpayable",
					"type": "function"
				},
				{
					"inputs": [],
					"name": "startVoting",
					"outputs": [],
					"stateMutability": "nonpayable",
					"type": "function"
				},
				{
					"inputs": [],
					"name": "stopVoting",
					"outputs": [],
					"stateMutability": "nonpayable",
					"type": "function"
				},
				{
					"inputs": [],
					"name": "token_address",
					"outputs": [
						{
							"internalType": "address",
							"name": "",
							"type": "address"
						}
					],
					"stateMutability": "view",
					"type": "function"
				},
				{
					"inputs": [],
					"name": "totalVoters",
					"outputs": [
						{
							"internalType": "uint256",
							"name": "",
							"type": "uint256"
						}
					],
					"stateMutability": "view",
					"type": "function"
				},
				{
					"inputs": [
						{
							"internalType": "address",
							"name": "newOwner",
							"type": "address"
						}
					],
					"name": "transferOwnership",
					"outputs": [],
					"stateMutability": "nonpayable",
					"type": "function"
				},
				{
					"inputs": [],
					"name": "vote",
					"outputs": [],
					"stateMutability": "nonpayable",
					"type": "function"
				},
				{
					"inputs": [
						{
							"internalType": "uint256",
							"name": "",
							"type": "uint256"
						}
					],
					"name": "votedUsers",
					"outputs": [
						{
							"internalType": "uint256",
							"name": "",
							"type": "uint256"
						}
					],
					"stateMutability": "view",
					"type": "function"
				},
				{
					"inputs": [
						{
							"internalType": "address",
							"name": "",
							"type": "address"
						}
					],
					"name": "voters",
					"outputs": [
						{
							"internalType": "bool",
							"name": "votingRight",
							"type": "bool"
						}
					],
					"stateMutability": "view",
					"type": "function"
				},
				{
					"inputs": [],
					"name": "withdrawStake",
					"outputs": [],
					"stateMutability": "nonpayable",
					"type": "function"
				}
			],
			"devdoc": {
				"kind": "dev",
				"methods": {
					"owner()": {
						"details": "Returns the address of the current owner."
					},
					"renounceOwnership()": {
						"details": "Leaves the contract without owner. It will not be possible to call `onlyOwner` functions anymore. Can only be called by the current owner. NOTE: Renouncing ownership will leave the contract without an owner, thereby removing any functionality that is only available to the owner."
					},
					"transferOwnership(address)": {
						"details": "Transfers ownership of the contract to a new account (`newOwner`). Can only be called by the current owner."
					}
				},
				"version": 1
			},
			"evm": {
				"assembly": "    /* \"contracts/Stakable-2.0.sol\":1017:13095  contract Staking is ReentrancyGuard, Ownable {... */\n  mstore(0x40, 0x80)\n    /* \"contracts/Stakable-2.0.sol\":1742:2053  constructor(address token) {... */\n  callvalue\n  dup1\n  iszero\n  tag_1\n  jumpi\n  0x00\n  dup1\n  revert\ntag_1:\n  pop\n  mload(0x40)\n  sub(codesize, bytecodeSize)\n  dup1\n  bytecodeSize\n  dup4\n  codecopy\n  dup2\n  add\n  0x40\n  dup2\n  swap1\n  mstore\n  tag_2\n  swap2\n  tag_3\n  jump\t// in\ntag_2:\n    /* \"@openzeppelin/contracts/security/ReentrancyGuard.sol\":1701:1702  1 */\n  0x01\n    /* \"@openzeppelin/contracts/security/ReentrancyGuard.sol\":1806:1813  _status */\n  0x00\n    /* \"@openzeppelin/contracts/security/ReentrancyGuard.sol\":1806:1828  _status = _NOT_ENTERED */\n  sstore\n    /* \"@openzeppelin/contracts/access/Ownable.sol\":921:953  _transferOwnership(_msgSender()) */\n  tag_9\n    /* \"@openzeppelin/contracts/utils/Context.sol\":719:729  msg.sender */\n  caller\n    /* \"@openzeppelin/contracts/access/Ownable.sol\":921:939  _transferOwnership */\n  tag_12\n    /* \"@openzeppelin/contracts/access/Ownable.sol\":921:953  _transferOwnership(_msgSender()) */\n  jump\t// in\ntag_9:\n    /* \"contracts/Stakable-2.0.sol\":1864:1866  15 */\n  0x0f\n    /* \"contracts/Stakable-2.0.sol\":1843:1861  stakingPenaltyRate */\n  0x03\n    /* \"contracts/Stakable-2.0.sol\":1843:1866  stakingPenaltyRate = 15 */\n  sstore\n    /* \"contracts/Stakable-2.0.sol\":1891:1893  80 */\n  0x50\n    /* \"contracts/Stakable-2.0.sol\":1877:1888  airdropRate */\n  0x04\n    /* \"contracts/Stakable-2.0.sol\":1877:1893  airdropRate = 80 */\n  sstore\n    /* \"contracts/Stakable-2.0.sol\":1906:1919  token_address */\n  0x0b\n    /* \"contracts/Stakable-2.0.sol\":1906:1927  token_address = token */\n  dup1\n  sload\n  not(sub(shl(0xa0, 0x01), 0x01))\n  and\n  sub(shl(0xa0, 0x01), 0x01)\n  swap3\n  swap1\n  swap3\n  and\n  swap2\n  swap1\n  swap2\n  or\n  swap1\n  sstore\n    /* \"contracts/Stakable-2.0.sol\":1940:1954  stakingPackage */\n  0x02\n    /* \"contracts/Stakable-2.0.sol\":1940:1963  stakingPackage[90 days] */\n  0x20\n  mstore\n    /* \"contracts/Stakable-2.0.sol\":1966:1967  6 */\n  0x06\n    /* \"contracts/Stakable-2.0.sol\":1940:1963  stakingPackage[90 days] */\n  0xa1ef5b42f18533d67a183a193ea6c3fabfaa3bdabc3fc0e3f65b19b517df6e8c\n    /* \"contracts/Stakable-2.0.sol\":1940:1967  stakingPackage[90 days] = 6 */\n  sstore\n    /* \"contracts/Stakable-2.0.sol\":2005:2006  7 */\n  0x07\n    /* \"contracts/Stakable-2.0.sol\":1978:2002  stakingPackage[180 days] */\n  0x089cfcbf844e824feee5f634cbc488382291f3c9e0de5905f3c30812390dd832\n    /* \"contracts/Stakable-2.0.sol\":1978:2006  stakingPackage[180 days] = 7 */\n  sstore\n    /* \"contracts/Stakable-2.0.sol\":2032:2040  365 days */\n  0x01e13380\n  0x00\n    /* \"contracts/Stakable-2.0.sol\":2017:2041  stakingPackage[365 days] */\n  mstore\n    /* \"contracts/Stakable-2.0.sol\":2044:2045  8 */\n  0x08\n    /* \"contracts/Stakable-2.0.sol\":2017:2041  stakingPackage[365 days] */\n  0xdc083eb4da7563bbd761324b5158d9d40af7c7174afe39b0b31a7577c44fc33b\n    /* \"contracts/Stakable-2.0.sol\":2017:2045  stakingPackage[365 days] = 8 */\n  sstore\n    /* \"contracts/Stakable-2.0.sol\":1017:13095  contract Staking is ReentrancyGuard, Ownable {... */\n  jump(tag_17)\n    /* \"@openzeppelin/contracts/access/Ownable.sol\":2270:2457  function _transferOwnership(address newOwner) internal virtual {... */\ntag_12:\n    /* \"@openzeppelin/contracts/access/Ownable.sol\":2362:2368  _owner */\n  0x01\n  dup1\n  sload\n  sub(shl(0xa0, 0x01), 0x01)\n    /* \"@openzeppelin/contracts/access/Ownable.sol\":2378:2395  _owner = newOwner */\n  dup4\n  dup2\n  and\n  not(sub(shl(0xa0, 0x01), 0x01))\n  dup4\n  and\n  dup2\n  or\n  swap1\n  swap4\n  sstore\n    /* \"@openzeppelin/contracts/access/Ownable.sol\":2410:2450  OwnershipTransferred(oldOwner, newOwner) */\n  mload(0x40)\n    /* \"@openzeppelin/contracts/access/Ownable.sol\":2362:2368  _owner */\n  swap2\n  and\n  swap2\n    /* \"@openzeppelin/contracts/access/Ownable.sol\":2378:2395  _owner = newOwner */\n  swap1\n    /* \"@openzeppelin/contracts/access/Ownable.sol\":2362:2368  _owner */\n  dup3\n  swap1\n    /* \"@openzeppelin/contracts/access/Ownable.sol\":2410:2450  OwnershipTransferred(oldOwner, newOwner) */\n  0x8be0079c531659141344cd1fd0a4f28419497f9722a3daafe3b4186f6b6457e0\n  swap1\n    /* \"@openzeppelin/contracts/access/Ownable.sol\":2343:2359  address oldOwner */\n  0x00\n  swap1\n    /* \"@openzeppelin/contracts/access/Ownable.sol\":2410:2450  OwnershipTransferred(oldOwner, newOwner) */\n  log3\n    /* \"@openzeppelin/contracts/access/Ownable.sol\":2333:2457  {... */\n  pop\n    /* \"@openzeppelin/contracts/access/Ownable.sol\":2270:2457  function _transferOwnership(address newOwner) internal virtual {... */\n  pop\n  jump\t// out\n    /* \"#utility.yul\":14:304   */\ntag_3:\n    /* \"#utility.yul\":84:90   */\n  0x00\n    /* \"#utility.yul\":137:139   */\n  0x20\n    /* \"#utility.yul\":125:134   */\n  dup3\n    /* \"#utility.yul\":116:123   */\n  dup5\n    /* \"#utility.yul\":112:135   */\n  sub\n    /* \"#utility.yul\":108:140   */\n  slt\n    /* \"#utility.yul\":105:157   */\n  iszero\n  tag_19\n  jumpi\n    /* \"#utility.yul\":153:154   */\n  0x00\n    /* \"#utility.yul\":150:151   */\n  dup1\n    /* \"#utility.yul\":143:155   */\n  revert\n    /* \"#utility.yul\":105:157   */\ntag_19:\n    /* \"#utility.yul\":179:195   */\n  dup2\n  mload\n  sub(shl(0xa0, 0x01), 0x01)\n    /* \"#utility.yul\":224:255   */\n  dup2\n  and\n    /* \"#utility.yul\":214:256   */\n  dup2\n  eq\n    /* \"#utility.yul\":204:274   */\n  tag_20\n  jumpi\n    /* \"#utility.yul\":270:271   */\n  0x00\n    /* \"#utility.yul\":267:268   */\n  dup1\n    /* \"#utility.yul\":260:272   */\n  revert\n    /* \"#utility.yul\":204:274   */\ntag_20:\n    /* \"#utility.yul\":293:298   */\n  swap4\n    /* \"#utility.yul\":14:304   */\n  swap3\n  pop\n  pop\n  pop\n  jump\t// out\ntag_17:\n    /* \"contracts/Stakable-2.0.sol\":1017:13095  contract Staking is ReentrancyGuard, Ownable {... */\n  dataSize(sub_0)\n  dup1\n  dataOffset(sub_0)\n  0x00\n  codecopy\n  0x00\n  return\nstop\n\nsub_0: assembly {\n        /* \"contracts/Stakable-2.0.sol\":1017:13095  contract Staking is ReentrancyGuard, Ownable {... */\n      mstore(0x40, 0x80)\n      callvalue\n      dup1\n      iszero\n      tag_1\n      jumpi\n      0x00\n      dup1\n      revert\n    tag_1:\n      pop\n      jumpi(tag_2, lt(calldatasize, 0x04))\n      shr(0xe0, calldataload(0x00))\n      dup1\n      0x8c8e8fee\n      gt\n      tag_28\n      jumpi\n      dup1\n      0xbed9d861\n      gt\n      tag_29\n      jumpi\n      dup1\n      0xd2a569c3\n      gt\n      tag_30\n      jumpi\n      dup1\n      0xd2a569c3\n      eq\n      tag_24\n      jumpi\n      dup1\n      0xd5dbdf1b\n      eq\n      tag_25\n      jumpi\n      dup1\n      0xf2fde38b\n      eq\n      tag_26\n      jumpi\n      dup1\n      0xfab2f86b\n      eq\n      tag_27\n      jumpi\n      0x00\n      dup1\n      revert\n    tag_30:\n      dup1\n      0xbed9d861\n      eq\n      tag_21\n      jumpi\n      dup1\n      0xc63aa3e7\n      eq\n      tag_22\n      jumpi\n      dup1\n      0xcb79c2e1\n      eq\n      tag_23\n      jumpi\n      0x00\n      dup1\n      revert\n    tag_29:\n      dup1\n      0xa3ec138d\n      gt\n      tag_31\n      jumpi\n      dup1\n      0xa3ec138d\n      eq\n      tag_18\n      jumpi\n      dup1\n      0xb5d9df83\n      eq\n      tag_19\n      jumpi\n      dup1\n      0xb87da76d\n      eq\n      tag_20\n      jumpi\n      0x00\n      dup1\n      revert\n    tag_31:\n      dup1\n      0x8c8e8fee\n      eq\n      tag_15\n      jumpi\n      dup1\n      0x8da5cb5b\n      eq\n      tag_16\n      jumpi\n      dup1\n      0xa143a5f2\n      eq\n      tag_17\n      jumpi\n      0x00\n      dup1\n      revert\n    tag_28:\n      dup1\n      0x65f8c6c5\n      gt\n      tag_32\n      jumpi\n      dup1\n      0x7b0472f0\n      gt\n      tag_33\n      jumpi\n      dup1\n      0x7b0472f0\n      eq\n      tag_12\n      jumpi\n      dup1\n      0x8891cf0d\n      eq\n      tag_13\n      jumpi\n      dup1\n      0x8c63f97f\n      eq\n      tag_14\n      jumpi\n      0x00\n      dup1\n      revert\n    tag_33:\n      dup1\n      0x65f8c6c5\n      eq\n      tag_9\n      jumpi\n      dup1\n      0x671d2b75\n      eq\n      tag_10\n      jumpi\n      dup1\n      0x715018a6\n      eq\n      tag_11\n      jumpi\n      0x00\n      dup1\n      revert\n    tag_32:\n      dup1\n      0x2d15cc04\n      gt\n      tag_34\n      jumpi\n      dup1\n      0x2d15cc04\n      eq\n      tag_6\n      jumpi\n      dup1\n      0x5f5300ff\n      eq\n      tag_7\n      jumpi\n      dup1\n      0x632a9a52\n      eq\n      tag_8\n      jumpi\n      0x00\n      dup1\n      revert\n    tag_34:\n      dup1\n      0x070c8b74\n      eq\n      tag_3\n      jumpi\n      dup1\n      0x10486b6a\n      eq\n      tag_4\n      jumpi\n      dup1\n      0x1ec6b60a\n      eq\n      tag_5\n      jumpi\n    tag_2:\n      0x00\n      dup1\n      revert\n        /* \"contracts/Stakable-2.0.sol\":12270:12555  function retractVote() public nonReentrant votingStatusTrue isVoter {... */\n    tag_3:\n      tag_35\n      tag_36\n      jump\t// in\n    tag_35:\n      stop\n        /* \"contracts/Stakable-2.0.sol\":8812:9863  function hasStake() external view returns (StakingSummary memory) {... */\n    tag_4:\n      tag_37\n      tag_38\n      jump\t// in\n    tag_37:\n      mload(0x40)\n      tag_39\n      swap2\n      swap1\n        /* \"#utility.yul\":168:172   */\n      0x00\n        /* \"#utility.yul\":210:213   */\n      0x0120\n        /* \"#utility.yul\":199:208   */\n      dup3\n        /* \"#utility.yul\":195:214   */\n      add\n        /* \"#utility.yul\":187:214   */\n      swap1\n      pop\n        /* \"#utility.yul\":247:253   */\n      dup3\n        /* \"#utility.yul\":241:254   */\n      mload\n        /* \"#utility.yul\":230:239   */\n      dup3\n        /* \"#utility.yul\":223:255   */\n      mstore\n        /* \"#utility.yul\":311:315   */\n      0x20\n        /* \"#utility.yul\":303:309   */\n      dup4\n        /* \"#utility.yul\":299:316   */\n      add\n        /* \"#utility.yul\":293:317   */\n      mload\n        /* \"#utility.yul\":286:290   */\n      0x20\n        /* \"#utility.yul\":275:284   */\n      dup4\n        /* \"#utility.yul\":271:291   */\n      add\n        /* \"#utility.yul\":264:318   */\n      mstore\n        /* \"#utility.yul\":365:369   */\n      0x40\n        /* \"#utility.yul\":357:363   */\n      dup4\n        /* \"#utility.yul\":353:370   */\n      add\n        /* \"#utility.yul\":347:371   */\n      mload\n        /* \"#utility.yul\":415:427   */\n      dup1\n        /* \"#utility.yul\":409:428   */\n      mload\n        /* \"#utility.yul\":402:406   */\n      0x40\n        /* \"#utility.yul\":391:400   */\n      dup5\n        /* \"#utility.yul\":387:407   */\n      add\n        /* \"#utility.yul\":380:429   */\n      mstore\n        /* \"#utility.yul\":489:493   */\n      0x20\n        /* \"#utility.yul\":475:487   */\n      dup2\n        /* \"#utility.yul\":471:494   */\n      add\n        /* \"#utility.yul\":465:495   */\n      mload\n        /* \"#utility.yul\":460:462   */\n      0x60\n        /* \"#utility.yul\":449:458   */\n      dup5\n        /* \"#utility.yul\":445:463   */\n      add\n        /* \"#utility.yul\":438:496   */\n      mstore\n        /* \"#utility.yul\":557:561   */\n      0x40\n        /* \"#utility.yul\":543:555   */\n      dup2\n        /* \"#utility.yul\":539:562   */\n      add\n        /* \"#utility.yul\":533:563   */\n      mload\n        /* \"#utility.yul\":527:530   */\n      0x80\n        /* \"#utility.yul\":516:525   */\n      dup5\n        /* \"#utility.yul\":512:531   */\n      add\n        /* \"#utility.yul\":505:564   */\n      mstore\n        /* \"#utility.yul\":625:627   */\n      0x60\n        /* \"#utility.yul\":611:623   */\n      dup2\n        /* \"#utility.yul\":607:628   */\n      add\n        /* \"#utility.yul\":601:629   */\n      mload\n        /* \"#utility.yul\":595:598   */\n      0xa0\n        /* \"#utility.yul\":584:593   */\n      dup5\n        /* \"#utility.yul\":580:599   */\n      add\n        /* \"#utility.yul\":573:630   */\n      mstore\n        /* \"#utility.yul\":691:694   */\n      0x80\n        /* \"#utility.yul\":677:689   */\n      dup2\n        /* \"#utility.yul\":673:695   */\n      add\n        /* \"#utility.yul\":667:696   */\n      mload\n        /* \"#utility.yul\":661:664   */\n      0xc0\n        /* \"#utility.yul\":650:659   */\n      dup5\n        /* \"#utility.yul\":646:665   */\n      add\n        /* \"#utility.yul\":639:697   */\n      mstore\n        /* \"#utility.yul\":758:761   */\n      0xa0\n        /* \"#utility.yul\":744:756   */\n      dup2\n        /* \"#utility.yul\":740:762   */\n      add\n        /* \"#utility.yul\":734:763   */\n      mload\n        /* \"#utility.yul\":728:731   */\n      0xe0\n        /* \"#utility.yul\":717:726   */\n      dup5\n        /* \"#utility.yul\":713:732   */\n      add\n        /* \"#utility.yul\":706:764   */\n      mstore\n        /* \"#utility.yul\":825:828   */\n      0xc0\n        /* \"#utility.yul\":811:823   */\n      dup2\n        /* \"#utility.yul\":807:829   */\n      add\n        /* \"#utility.yul\":801:830   */\n      mload\n        /* \"#utility.yul\":795:798   */\n      0x0100\n        /* \"#utility.yul\":784:793   */\n      dup5\n        /* \"#utility.yul\":780:799   */\n      add\n        /* \"#utility.yul\":773:831   */\n      mstore\n      pop\n        /* \"#utility.yul\":14:837   */\n      swap3\n      swap2\n      pop\n      pop\n      jump\n        /* \"contracts/Stakable-2.0.sol\":8812:9863  function hasStake() external view returns (StakingSummary memory) {... */\n    tag_39:\n      mload(0x40)\n      dup1\n      swap2\n      sub\n      swap1\n      return\n        /* \"contracts/Stakable-2.0.sol\":11761:11978  function startVoting() external nonReentrant onlyOwner {... */\n    tag_5:\n      tag_35\n      tag_42\n      jump\t// in\n        /* \"contracts/Stakable-2.0.sol\":11541:11692  function getVoters(address user) external view returns (bool, bool) {... */\n    tag_6:\n      tag_43\n      tag_44\n      calldatasize\n      0x04\n      tag_45\n      jump\t// in\n    tag_44:\n      sub(shl(0xa0, 0x01), 0x01)\n        /* \"contracts/Stakable-2.0.sol\":11628:11640  voters[user] */\n      and\n        /* \"contracts/Stakable-2.0.sol\":11597:11601  bool */\n      0x00\n        /* \"contracts/Stakable-2.0.sol\":11628:11640  voters[user] */\n      swap1\n      dup2\n      mstore\n        /* \"contracts/Stakable-2.0.sol\":11628:11634  voters */\n      0x09\n        /* \"contracts/Stakable-2.0.sol\":11628:11640  voters[user] */\n      0x20\n      swap1\n      dup2\n      mstore\n      0x40\n      dup1\n      dup4\n      keccak256\n        /* \"contracts/Stakable-2.0.sol\":11628:11652  voters[user].votingRight */\n      dup1\n      sload\n        /* \"contracts/Stakable-2.0.sol\":11673:11682  _votingId */\n      sload(0x07)\n        /* \"contracts/Stakable-2.0.sol\":11654:11683  voters[user].voted[_votingId] */\n      dup6\n      mstore\n        /* \"contracts/Stakable-2.0.sol\":11628:11652  voters[user].votingRight */\n      0x01\n        /* \"contracts/Stakable-2.0.sol\":11654:11672  voters[user].voted */\n      swap1\n      swap2\n      add\n        /* \"contracts/Stakable-2.0.sol\":11654:11683  voters[user].voted[_votingId] */\n      swap1\n      swap3\n      mstore\n      swap1\n      swap2\n      keccak256\n      sload\n        /* \"contracts/Stakable-2.0.sol\":11628:11652  voters[user].votingRight */\n      0xff\n      swap2\n      dup3\n      and\n      swap3\n        /* \"contracts/Stakable-2.0.sol\":11654:11683  voters[user].voted[_votingId] */\n      swap2\n      and\n      swap1\n        /* \"contracts/Stakable-2.0.sol\":11541:11692  function getVoters(address user) external view returns (bool, bool) {... */\n      jump\n    tag_43:\n      0x40\n      dup1\n      mload\n        /* \"#utility.yul\":1343:1357   */\n      swap3\n      iszero\n        /* \"#utility.yul\":1336:1358   */\n      iszero\n        /* \"#utility.yul\":1318:1359   */\n      dup4\n      mstore\n        /* \"#utility.yul\":1402:1416   */\n      swap1\n      iszero\n        /* \"#utility.yul\":1395:1417   */\n      iszero\n        /* \"#utility.yul\":1390:1392   */\n      0x20\n        /* \"#utility.yul\":1375:1393   */\n      dup4\n      add\n        /* \"#utility.yul\":1368:1418   */\n      mstore\n        /* \"#utility.yul\":1291:1309   */\n      add\n        /* \"contracts/Stakable-2.0.sol\":11541:11692  function getVoters(address user) external view returns (bool, bool) {... */\n      tag_39\n        /* \"#utility.yul\":1156:1424   */\n      jump\n        /* \"contracts/Stakable-2.0.sol\":1572:1598  uint256 public totalVoters */\n    tag_7:\n      tag_49\n      sload(0x08)\n      dup2\n      jump\n    tag_49:\n      mload(0x40)\n        /* \"#utility.yul\":1575:1600   */\n      swap1\n      dup2\n      mstore\n        /* \"#utility.yul\":1563:1565   */\n      0x20\n        /* \"#utility.yul\":1548:1566   */\n      add\n        /* \"contracts/Stakable-2.0.sol\":1572:1598  uint256 public totalVoters */\n      tag_39\n        /* \"#utility.yul\":1429:1606   */\n      jump\n        /* \"contracts/Stakable-2.0.sol\":11986:12262  function vote() public nonReentrant votingStatusTrue isVoter {... */\n    tag_8:\n      tag_35\n      tag_54\n      jump\t// in\n        /* \"contracts/Stakable-2.0.sol\":10770:11381  function claimAirdrop(address user) external {... */\n    tag_9:\n      tag_35\n      tag_56\n      calldatasize\n      0x04\n      tag_45\n      jump\t// in\n    tag_56:\n      tag_57\n      jump\t// in\n        /* \"contracts/Stakable-2.0.sol\":12563:12986  function getVotingResult()... */\n    tag_10:\n      tag_58\n      tag_59\n      jump\t// in\n    tag_58:\n      mload(0x40)\n        /* \"#utility.yul\":1776:1790   */\n      swap1\n      iszero\n        /* \"#utility.yul\":1769:1791   */\n      iszero\n        /* \"#utility.yul\":1751:1792   */\n      dup2\n      mstore\n        /* \"#utility.yul\":1739:1741   */\n      0x20\n        /* \"#utility.yul\":1724:1742   */\n      add\n        /* \"contracts/Stakable-2.0.sol\":12563:12986  function getVotingResult()... */\n      tag_39\n        /* \"#utility.yul\":1611:1798   */\n      jump\n        /* \"@openzeppelin/contracts/access/Ownable.sol\":1668:1769  function renounceOwnership() public virtual onlyOwner {... */\n    tag_11:\n      tag_35\n      tag_63\n      jump\t// in\n        /* \"contracts/Stakable-2.0.sol\":4459:5921  function stake(uint256 amount, uint256 stakePeriod)... */\n    tag_12:\n      tag_35\n      tag_65\n      calldatasize\n      0x04\n      tag_66\n      jump\t// in\n    tag_65:\n      tag_67\n      jump\t// in\n        /* \"contracts/Stakable-2.0.sol\":1436:1462  uint256 public airdropRate */\n    tag_13:\n      tag_49\n      sload(0x04)\n      dup2\n      jump\n        /* \"contracts/Stakable-2.0.sol\":5929:6242  function changePenaltyFee(uint256 amount) external onlyOwner {... */\n    tag_14:\n      tag_35\n      tag_72\n      calldatasize\n      0x04\n      tag_73\n      jump\t// in\n    tag_72:\n      tag_74\n      jump\t// in\n        /* \"contracts/Stakable-2.0.sol\":1705:1733  address public token_address */\n    tag_15:\n      sload(0x0b)\n      tag_75\n      swap1\n      sub(shl(0xa0, 0x01), 0x01)\n      and\n      dup2\n      jump\n    tag_75:\n      mload(0x40)\n      sub(shl(0xa0, 0x01), 0x01)\n        /* \"#utility.yul\":2405:2460   */\n      swap1\n      swap2\n      and\n        /* \"#utility.yul\":2387:2461   */\n      dup2\n      mstore\n        /* \"#utility.yul\":2375:2377   */\n      0x20\n        /* \"#utility.yul\":2360:2378   */\n      add\n        /* \"contracts/Stakable-2.0.sol\":1705:1733  address public token_address */\n      tag_39\n        /* \"#utility.yul\":2241:2467   */\n      jump\n        /* \"@openzeppelin/contracts/access/Ownable.sol\":1036:1121  function owner() public view virtual returns (address) {... */\n    tag_16:\n        /* \"@openzeppelin/contracts/access/Ownable.sol\":1108:1114  _owner */\n      and(sub(shl(0xa0, 0x01), 0x01), sload(0x01))\n        /* \"@openzeppelin/contracts/access/Ownable.sol\":1036:1121  function owner() public view virtual returns (address) {... */\n      jump(tag_75)\n        /* \"contracts/Stakable-2.0.sol\":1651:1696  mapping(uint256 => uint256) public votedUsers */\n    tag_17:\n      tag_49\n      tag_83\n      calldatasize\n      0x04\n      tag_73\n      jump\t// in\n    tag_83:\n      mstore(0x20, 0x0a)\n      0x00\n      swap1\n      dup2\n      mstore\n      0x40\n      swap1\n      keccak256\n      sload\n      dup2\n      jump\n        /* \"contracts/Stakable-2.0.sol\":1605:1644  mapping(address => Voter) public voters */\n    tag_18:\n      tag_58\n      tag_87\n      calldatasize\n      0x04\n      tag_45\n      jump\t// in\n    tag_87:\n      mstore(0x20, 0x09)\n      0x00\n      swap1\n      dup2\n      mstore\n      0x40\n      swap1\n      keccak256\n      sload\n      0xff\n      and\n      dup2\n      jump\n        /* \"contracts/Stakable-2.0.sol\":10433:10569  function calculateWeek(uint256 timestamp) public view returns (uint256) {... */\n    tag_19:\n      tag_49\n      tag_91\n      calldatasize\n      0x04\n      tag_73\n      jump\t// in\n    tag_91:\n      tag_92\n      jump\t// in\n        /* \"contracts/Stakable-2.0.sol\":1469:1496  uint256 public airdropSince */\n    tag_20:\n      tag_49\n      sload(0x05)\n      dup2\n      jump\n        /* \"contracts/Stakable-2.0.sol\":7792:8804  function withdrawStake() external nonReentrant {... */\n    tag_21:\n      tag_35\n      tag_98\n      jump\t// in\n        /* \"contracts/Stakable-2.0.sol\":10327:10425  function _blockTimestamp() public view returns (uint256) {... */\n    tag_22:\n        /* \"contracts/Stakable-2.0.sol\":10402:10417  block.timestamp */\n      timestamp\n        /* \"contracts/Stakable-2.0.sol\":10327:10425  function _blockTimestamp() public view returns (uint256) {... */\n      jump(tag_49)\n        /* \"contracts/Stakable-2.0.sol\":1396:1429  uint256 public stakingPenaltyRate */\n    tag_23:\n      tag_49\n      sload(0x03)\n      dup2\n      jump\n        /* \"contracts/Stakable-2.0.sol\":9979:10071  function startAirdrop() external onlyOwner {... */\n    tag_24:\n      tag_35\n      tag_106\n      jump\t// in\n        /* \"contracts/Stakable-2.0.sol\":10079:10319  function changeAirdropPercentage(uint256 amount) external onlyOwner {... */\n    tag_25:\n      tag_35\n      tag_108\n      calldatasize\n      0x04\n      tag_73\n      jump\t// in\n    tag_108:\n      tag_109\n      jump\t// in\n        /* \"@openzeppelin/contracts/access/Ownable.sol\":1918:2116  function transferOwnership(address newOwner) public virtual onlyOwner {... */\n    tag_26:\n      tag_35\n      tag_111\n      calldatasize\n      0x04\n      tag_45\n      jump\t// in\n    tag_111:\n      tag_112\n      jump\t// in\n        /* \"contracts/Stakable-2.0.sol\":12994:13092  function stopVoting() external onlyOwner votingStatusTrue {... */\n    tag_27:\n      tag_35\n      tag_114\n      jump\t// in\n        /* \"contracts/Stakable-2.0.sol\":12270:12555  function retractVote() public nonReentrant votingStatusTrue isVoter {... */\n    tag_36:\n        /* \"@openzeppelin/contracts/security/ReentrancyGuard.sol\":1744:1745  2 */\n      0x02\n        /* \"@openzeppelin/contracts/security/ReentrancyGuard.sol\":2325:2332  _status */\n      sload(0x00)\n        /* \"@openzeppelin/contracts/security/ReentrancyGuard.sol\":2325:2344  _status != _ENTERED */\n      eq\n      iszero\n        /* \"@openzeppelin/contracts/security/ReentrancyGuard.sol\":2317:2380  require(_status != _ENTERED, \"ReentrancyGuard: reentrant call\") */\n      tag_116\n      jumpi\n      mload(0x40)\n      shl(0xe5, 0x461bcd)\n      dup2\n      mstore\n        /* \"#utility.yul\":2674:2676   */\n      0x20\n        /* \"@openzeppelin/contracts/security/ReentrancyGuard.sol\":2317:2380  require(_status != _ENTERED, \"ReentrancyGuard: reentrant call\") */\n      0x04\n      dup3\n      add\n        /* \"#utility.yul\":2656:2677   */\n      mstore\n        /* \"#utility.yul\":2713:2715   */\n      0x1f\n        /* \"#utility.yul\":2693:2711   */\n      0x24\n      dup3\n      add\n        /* \"#utility.yul\":2686:2716   */\n      mstore\n        /* \"#utility.yul\":2752:2785   */\n      0x5265656e7472616e637947756172643a207265656e7472616e742063616c6c00\n        /* \"#utility.yul\":2732:2750   */\n      0x44\n      dup3\n      add\n        /* \"#utility.yul\":2725:2786   */\n      mstore\n        /* \"#utility.yul\":2803:2821   */\n      0x64\n      add\n        /* \"@openzeppelin/contracts/security/ReentrancyGuard.sol\":2317:2380  require(_status != _ENTERED, \"ReentrancyGuard: reentrant call\") */\n    tag_117:\n      mload(0x40)\n      dup1\n      swap2\n      sub\n      swap1\n      revert\n    tag_116:\n        /* \"@openzeppelin/contracts/security/ReentrancyGuard.sol\":1744:1745  2 */\n      0x02\n        /* \"@openzeppelin/contracts/security/ReentrancyGuard.sol\":2455:2462  _status */\n      0x00\n        /* \"@openzeppelin/contracts/security/ReentrancyGuard.sol\":2455:2473  _status = _ENTERED */\n      sstore\n        /* \"contracts/Stakable-2.0.sol\":4093:4113  _checkVotingStatus() */\n      tag_120\n        /* \"contracts/Stakable-2.0.sol\":4093:4111  _checkVotingStatus */\n      tag_121\n        /* \"contracts/Stakable-2.0.sol\":4093:4113  _checkVotingStatus() */\n      jump\t// in\n    tag_120:\n        /* \"contracts/Stakable-2.0.sol\":3799:3809  _isVoter() */\n      tag_123\n        /* \"contracts/Stakable-2.0.sol\":3799:3807  _isVoter */\n      tag_124\n        /* \"contracts/Stakable-2.0.sol\":3799:3809  _isVoter() */\n      jump\t// in\n    tag_123:\n        /* \"contracts/Stakable-2.0.sol\":12360:12370  msg.sender */\n      caller\n        /* \"contracts/Stakable-2.0.sol\":12353:12371  voters[msg.sender] */\n      0x00\n      swap1\n      dup2\n      mstore\n        /* \"contracts/Stakable-2.0.sol\":12353:12359  voters */\n      0x09\n        /* \"contracts/Stakable-2.0.sol\":12353:12371  voters[msg.sender] */\n      0x20\n      swap1\n      dup2\n      mstore\n      0x40\n      dup1\n      dup4\n      keccak256\n        /* \"contracts/Stakable-2.0.sol\":12378:12387  _votingId */\n      sload(0x07)\n        /* \"contracts/Stakable-2.0.sol\":12353:12388  voters[msg.sender].voted[_votingId] */\n      dup5\n      mstore\n        /* \"contracts/Stakable-2.0.sol\":12353:12377  voters[msg.sender].voted */\n      0x01\n      add\n        /* \"contracts/Stakable-2.0.sol\":12353:12388  voters[msg.sender].voted[_votingId] */\n      swap1\n      swap2\n      mstore\n      swap1\n      keccak256\n      sload\n      0xff\n      and\n        /* \"contracts/Stakable-2.0.sol\":12349:12454  if (voters[msg.sender].voted[_votingId] == false) {... */\n      tag_126\n      jumpi\n        /* \"contracts/Stakable-2.0.sol\":12421:12442  Voting__notYetVoted() */\n      mload(0x40)\n      0x8b74220000000000000000000000000000000000000000000000000000000000\n      dup2\n      mstore\n      0x04\n      add\n      mload(0x40)\n      dup1\n      swap2\n      sub\n      swap1\n      revert\n        /* \"contracts/Stakable-2.0.sol\":12349:12454  if (voters[msg.sender].voted[_votingId] == false) {... */\n    tag_126:\n        /* \"contracts/Stakable-2.0.sol\":12491:12500  _votingId */\n      sload(0x07)\n        /* \"contracts/Stakable-2.0.sol\":12466:12484  voters[msg.sender] */\n      0x00\n        /* \"contracts/Stakable-2.0.sol\":12466:12501  voters[msg.sender].voted[_votingId] */\n      swap1\n      dup2\n      mstore\n        /* \"contracts/Stakable-2.0.sol\":12521:12531  votedUsers */\n      0x0a\n        /* \"contracts/Stakable-2.0.sol\":12466:12484  voters[msg.sender] */\n      0x20\n        /* \"contracts/Stakable-2.0.sol\":12521:12542  votedUsers[_votingId] */\n      mstore\n        /* \"contracts/Stakable-2.0.sol\":12466:12484  voters[msg.sender] */\n      0x40\n        /* \"contracts/Stakable-2.0.sol\":12521:12542  votedUsers[_votingId] */\n      dup2\n      keccak256\n        /* \"contracts/Stakable-2.0.sol\":12521:12547  votedUsers[_votingId] -= 1 */\n      dup1\n      sload\n        /* \"contracts/Stakable-2.0.sol\":12466:12490  voters[msg.sender].voted */\n      0x01\n      swap3\n        /* \"contracts/Stakable-2.0.sol\":12466:12484  voters[msg.sender] */\n      swap1\n        /* \"contracts/Stakable-2.0.sol\":12521:12547  votedUsers[_votingId] -= 1 */\n      tag_127\n      swap1\n        /* \"contracts/Stakable-2.0.sol\":12466:12490  voters[msg.sender].voted */\n      dup5\n      swap1\n        /* \"contracts/Stakable-2.0.sol\":12521:12547  votedUsers[_votingId] -= 1 */\n      tag_128\n      jump\t// in\n    tag_127:\n      swap1\n      swap2\n      sstore\n      pop\n      pop\n        /* \"@openzeppelin/contracts/security/ReentrancyGuard.sol\":1701:1702  1 */\n      0x01\n        /* \"@openzeppelin/contracts/security/ReentrancyGuard.sol\":2628:2635  _status */\n      0x00\n        /* \"@openzeppelin/contracts/security/ReentrancyGuard.sol\":2628:2650  _status = _NOT_ENTERED */\n      sstore\n        /* \"contracts/Stakable-2.0.sol\":12270:12555  function retractVote() public nonReentrant votingStatusTrue isVoter {... */\n      jump\t// out\n        /* \"contracts/Stakable-2.0.sol\":8812:9863  function hasStake() external view returns (StakingSummary memory) {... */\n    tag_38:\n        /* \"contracts/Stakable-2.0.sol\":8855:8876  StakingSummary memory */\n      tag_129\n      tag_130\n      jump\t// in\n    tag_129:\n        /* \"contracts/Stakable-2.0.sol\":8928:8938  msg.sender */\n      caller\n        /* \"contracts/Stakable-2.0.sol\":8889:8912  Stake memory user_stake */\n      0x00\n        /* \"contracts/Stakable-2.0.sol\":8915:8939  stakeholders[msg.sender] */\n      swap1\n      dup2\n      mstore\n        /* \"contracts/Stakable-2.0.sol\":8915:8927  stakeholders */\n      0x0c\n        /* \"contracts/Stakable-2.0.sol\":8915:8939  stakeholders[msg.sender] */\n      0x20\n      swap1\n      dup2\n      mstore\n      0x40\n      swap2\n      dup3\n      swap1\n      keccak256\n        /* \"contracts/Stakable-2.0.sol\":8889:8939  Stake memory user_stake = stakeholders[msg.sender] */\n      dup3\n      mload\n      0xe0\n      dup2\n      add\n      dup5\n      mstore\n      dup2\n      sload\n      dup1\n      dup3\n      mstore\n      0x01\n      dup4\n      add\n      sload\n      swap4\n      dup3\n      add\n      swap4\n      swap1\n      swap4\n      mstore\n      0x02\n      dup3\n      add\n      sload\n      swap4\n      dup2\n      add\n      swap4\n      swap1\n      swap4\n      mstore\n      0x03\n      dup2\n      add\n      sload\n      0x60\n      dup5\n      add\n      mstore\n      0x04\n      dup2\n      add\n      sload\n      0x80\n      dup5\n      add\n      mstore\n      0x05\n      dup2\n      add\n      sload\n      0xa0\n      dup5\n      add\n      mstore\n      0x06\n      add\n      sload\n      0xc0\n      dup4\n      add\n      mstore\n        /* \"contracts/Stakable-2.0.sol\":9012:9099  if (user_stake.amount <= 0) {... */\n      tag_132\n      jumpi\n        /* \"contracts/Stakable-2.0.sol\":9062:9087  Staking__noStakingFound() */\n      mload(0x40)\n      0xb018f08700000000000000000000000000000000000000000000000000000000\n      dup2\n      mstore\n      0x04\n      add\n      mload(0x40)\n      dup1\n      swap2\n      sub\n      swap1\n      revert\n        /* \"contracts/Stakable-2.0.sol\":9012:9099  if (user_stake.amount <= 0) {... */\n    tag_132:\n        /* \"contracts/Stakable-2.0.sol\":9141:9173  StakingSummary(0, 0, user_stake) */\n      0x40\n      dup1\n      mload\n      0x60\n      dup2\n      add\n      dup3\n      mstore\n        /* \"contracts/Stakable-2.0.sol\":9109:9138  StakingSummary memory summary */\n      0x00\n        /* \"contracts/Stakable-2.0.sol\":9141:9173  StakingSummary(0, 0, user_stake) */\n      dup1\n      dup3\n      mstore\n      0x20\n      dup3\n      add\n      dup2\n      swap1\n      mstore\n      swap2\n      dup2\n      add\n      dup4\n      swap1\n      mstore\n      swap1\n        /* \"contracts/Stakable-2.0.sol\":9203:9236  _calculateStakeReward(user_stake) */\n      tag_133\n        /* \"contracts/Stakable-2.0.sol\":9162:9172  user_stake */\n      dup4\n        /* \"contracts/Stakable-2.0.sol\":9203:9224  _calculateStakeReward */\n      tag_134\n        /* \"contracts/Stakable-2.0.sol\":9203:9236  _calculateStakeReward(user_stake) */\n      jump\t// in\n    tag_133:\n        /* \"contracts/Stakable-2.0.sol\":9186:9236  uint256 reward = _calculateStakeReward(user_stake) */\n      swap1\n      pop\n        /* \"contracts/Stakable-2.0.sol\":9281:9296  block.timestamp */\n      timestamp\n        /* \"contracts/Stakable-2.0.sol\":9253:9260  summary */\n      dup3\n        /* \"contracts/Stakable-2.0.sol\":9253:9266  summary.stake */\n      0x40\n      add\n      mload\n        /* \"contracts/Stakable-2.0.sol\":9253:9278  summary.stake.releaseTime */\n      0x60\n      add\n      mload\n        /* \"contracts/Stakable-2.0.sol\":9253:9296  summary.stake.releaseTime > block.timestamp */\n      gt\n        /* \"contracts/Stakable-2.0.sol\":9249:9467  if (summary.stake.releaseTime > block.timestamp) {... */\n      iszero\n      tag_135\n      jumpi\n        /* \"contracts/Stakable-2.0.sol\":9450:9454  1000 */\n      0x03e8\n        /* \"contracts/Stakable-2.0.sol\":9428:9446  stakingPenaltyRate */\n      sload(0x03)\n        /* \"contracts/Stakable-2.0.sol\":9419:9425  reward */\n      dup3\n        /* \"contracts/Stakable-2.0.sol\":9419:9446  reward * stakingPenaltyRate */\n      tag_136\n      swap2\n      swap1\n      tag_137\n      jump\t// in\n    tag_136:\n        /* \"contracts/Stakable-2.0.sol\":9418:9454  (reward * stakingPenaltyRate) / 1000 */\n      tag_138\n      swap2\n      swap1\n      tag_139\n      jump\t// in\n    tag_138:\n        /* \"contracts/Stakable-2.0.sol\":9370:9388  stakingPenaltyRate */\n      sload(0x03)\n        /* \"contracts/Stakable-2.0.sol\":9350:9367  user_stake.amount */\n      dup5\n      mload\n        /* \"contracts/Stakable-2.0.sol\":9392:9396  1000 */\n      0x03e8\n      swap2\n        /* \"contracts/Stakable-2.0.sol\":9350:9388  user_stake.amount * stakingPenaltyRate */\n      tag_140\n      swap2\n      tag_137\n      jump\t// in\n    tag_140:\n        /* \"contracts/Stakable-2.0.sol\":9349:9396  (user_stake.amount * stakingPenaltyRate) / 1000 */\n      tag_141\n      swap2\n      swap1\n      tag_139\n      jump\t// in\n    tag_141:\n        /* \"contracts/Stakable-2.0.sol\":9348:9455  ((user_stake.amount * stakingPenaltyRate) / 1000) +... */\n      tag_142\n      swap2\n      swap1\n      tag_143\n      jump\t// in\n    tag_142:\n        /* \"contracts/Stakable-2.0.sol\":9313:9328  summary.penalty */\n      0x20\n      dup4\n      add\n        /* \"contracts/Stakable-2.0.sol\":9313:9455  summary.penalty =... */\n      mstore\n        /* \"contracts/Stakable-2.0.sol\":9249:9467  if (summary.stake.releaseTime > block.timestamp) {... */\n    tag_135:\n        /* \"contracts/Stakable-2.0.sol\":9527:9528  0 */\n      0x00\n        /* \"contracts/Stakable-2.0.sol\":9483:9524  calculateWeek(user_stake.latestClaimDrop) */\n      tag_144\n        /* \"contracts/Stakable-2.0.sol\":9497:9507  user_stake */\n      dup5\n        /* \"contracts/Stakable-2.0.sol\":9497:9523  user_stake.latestClaimDrop */\n      0xc0\n      add\n      mload\n        /* \"contracts/Stakable-2.0.sol\":9483:9496  calculateWeek */\n      tag_92\n        /* \"contracts/Stakable-2.0.sol\":9483:9524  calculateWeek(user_stake.latestClaimDrop) */\n      jump\t// in\n    tag_144:\n        /* \"contracts/Stakable-2.0.sol\":9483:9528  calculateWeek(user_stake.latestClaimDrop) > 0 */\n      gt\n        /* \"contracts/Stakable-2.0.sol\":9479:9733  if (calculateWeek(user_stake.latestClaimDrop) > 0) {... */\n      iszero\n      tag_145\n      jumpi\n        /* \"contracts/Stakable-2.0.sol\":9545:9560  uint256 airdrop */\n      0x00\n        /* \"contracts/Stakable-2.0.sol\":9563:9599  _calculateAirdrop(user_stake.amount) */\n      tag_146\n        /* \"contracts/Stakable-2.0.sol\":9581:9591  user_stake */\n      dup5\n        /* \"contracts/Stakable-2.0.sol\":9581:9598  user_stake.amount */\n      0x00\n      add\n      mload\n        /* \"contracts/Stakable-2.0.sol\":9563:9580  _calculateAirdrop */\n      tag_147\n        /* \"contracts/Stakable-2.0.sol\":9563:9599  _calculateAirdrop(user_stake.amount) */\n      jump\t// in\n    tag_146:\n        /* \"contracts/Stakable-2.0.sol\":9614:9627  summary.stake */\n      0x40\n      dup5\n      add\n      mload\n        /* \"contracts/Stakable-2.0.sol\":9614:9644  summary.stake.claimableAirdrop */\n      0xa0\n      add\n        /* \"contracts/Stakable-2.0.sol\":9614:9654  summary.stake.claimableAirdrop = airdrop */\n      mstore\n      pop\n        /* \"contracts/Stakable-2.0.sol\":9479:9733  if (calculateWeek(user_stake.latestClaimDrop) > 0) {... */\n      jump(tag_148)\n    tag_145:\n        /* \"contracts/Stakable-2.0.sol\":9687:9700  summary.stake */\n      0x40\n      dup3\n      add\n      mload\n        /* \"contracts/Stakable-2.0.sol\":9720:9721  0 */\n      0x00\n        /* \"contracts/Stakable-2.0.sol\":9687:9717  summary.stake.claimableAirdrop */\n      0xa0\n      swap1\n      swap2\n      add\n        /* \"contracts/Stakable-2.0.sol\":9687:9721  summary.stake.claimableAirdrop = 0 */\n      mstore\n        /* \"contracts/Stakable-2.0.sol\":9479:9733  if (calculateWeek(user_stake.latestClaimDrop) > 0) {... */\n    tag_148:\n        /* \"contracts/Stakable-2.0.sol\":9745:9758  summary.stake */\n      0x40\n      dup3\n      add\n      mload\n        /* \"contracts/Stakable-2.0.sol\":9745:9768  summary.stake.claimable */\n      0x80\n      add\n        /* \"contracts/Stakable-2.0.sol\":9745:9777  summary.stake.claimable = reward */\n      mstore\n        /* \"contracts/Stakable-2.0.sol\":9811:9828  user_stake.amount */\n      swap1\n      mload\n        /* \"contracts/Stakable-2.0.sol\":9788:9828  summary.total_amount = user_stake.amount */\n      dup2\n      mstore\n        /* \"contracts/Stakable-2.0.sol\":9745:9752  summary */\n      swap2\n        /* \"contracts/Stakable-2.0.sol\":8812:9863  function hasStake() external view returns (StakingSummary memory) {... */\n      swap1\n      pop\n      jump\t// out\n        /* \"contracts/Stakable-2.0.sol\":11761:11978  function startVoting() external nonReentrant onlyOwner {... */\n    tag_42:\n        /* \"@openzeppelin/contracts/security/ReentrancyGuard.sol\":1744:1745  2 */\n      0x02\n        /* \"@openzeppelin/contracts/security/ReentrancyGuard.sol\":2325:2332  _status */\n      sload(0x00)\n        /* \"@openzeppelin/contracts/security/ReentrancyGuard.sol\":2325:2344  _status != _ENTERED */\n      eq\n      iszero\n        /* \"@openzeppelin/contracts/security/ReentrancyGuard.sol\":2317:2380  require(_status != _ENTERED, \"ReentrancyGuard: reentrant call\") */\n      tag_150\n      jumpi\n      mload(0x40)\n      shl(0xe5, 0x461bcd)\n      dup2\n      mstore\n        /* \"#utility.yul\":2674:2676   */\n      0x20\n        /* \"@openzeppelin/contracts/security/ReentrancyGuard.sol\":2317:2380  require(_status != _ENTERED, \"ReentrancyGuard: reentrant call\") */\n      0x04\n      dup3\n      add\n        /* \"#utility.yul\":2656:2677   */\n      mstore\n        /* \"#utility.yul\":2713:2715   */\n      0x1f\n        /* \"#utility.yul\":2693:2711   */\n      0x24\n      dup3\n      add\n        /* \"#utility.yul\":2686:2716   */\n      mstore\n        /* \"#utility.yul\":2752:2785   */\n      0x5265656e7472616e637947756172643a207265656e7472616e742063616c6c00\n        /* \"#utility.yul\":2732:2750   */\n      0x44\n      dup3\n      add\n        /* \"#utility.yul\":2725:2786   */\n      mstore\n        /* \"#utility.yul\":2803:2821   */\n      0x64\n      add\n        /* \"@openzeppelin/contracts/security/ReentrancyGuard.sol\":2317:2380  require(_status != _ENTERED, \"ReentrancyGuard: reentrant call\") */\n      tag_117\n        /* \"#utility.yul\":2472:2827   */\n      jump\n        /* \"@openzeppelin/contracts/security/ReentrancyGuard.sol\":2317:2380  require(_status != _ENTERED, \"ReentrancyGuard: reentrant call\") */\n    tag_150:\n        /* \"@openzeppelin/contracts/security/ReentrancyGuard.sol\":1744:1745  2 */\n      0x02\n        /* \"@openzeppelin/contracts/security/ReentrancyGuard.sol\":2455:2462  _status */\n      0x00\n        /* \"@openzeppelin/contracts/security/ReentrancyGuard.sol\":2455:2473  _status = _ENTERED */\n      sstore\n        /* \"@openzeppelin/contracts/access/Ownable.sol\":1108:1114  _owner */\n      and(sub(shl(0xa0, 0x01), 0x01), sload(0x01))\n        /* \"@openzeppelin/contracts/utils/Context.sol\":719:729  msg.sender */\n      caller\n        /* \"@openzeppelin/contracts/access/Ownable.sol\":1248:1271  owner() == _msgSender() */\n      eq\n        /* \"@openzeppelin/contracts/access/Ownable.sol\":1240:1308  require(owner() == _msgSender(), \"Ownable: caller is not the owner\") */\n      tag_156\n      jumpi\n      mload(0x40)\n      shl(0xe5, 0x461bcd)\n      dup2\n      mstore\n        /* \"#utility.yul\":3938:3940   */\n      0x20\n        /* \"@openzeppelin/contracts/access/Ownable.sol\":1240:1308  require(owner() == _msgSender(), \"Ownable: caller is not the owner\") */\n      0x04\n      dup3\n      add\n        /* \"#utility.yul\":3920:3941   */\n      dup2\n      swap1\n      mstore\n        /* \"#utility.yul\":3957:3975   */\n      0x24\n      dup3\n      add\n        /* \"#utility.yul\":3950:3980   */\n      mstore\n        /* \"#utility.yul\":4016:4050   */\n      0x4f776e61626c653a2063616c6c6572206973206e6f7420746865206f776e6572\n        /* \"#utility.yul\":3996:4014   */\n      0x44\n      dup3\n      add\n        /* \"#utility.yul\":3989:4051   */\n      mstore\n        /* \"#utility.yul\":4068:4086   */\n      0x64\n      add\n        /* \"@openzeppelin/contracts/access/Ownable.sol\":1240:1308  require(owner() == _msgSender(), \"Ownable: caller is not the owner\") */\n      tag_117\n        /* \"#utility.yul\":3736:4092   */\n      jump\n        /* \"@openzeppelin/contracts/access/Ownable.sol\":1240:1308  require(owner() == _msgSender(), \"Ownable: caller is not the owner\") */\n    tag_156:\n        /* \"contracts/Stakable-2.0.sol\":11831:11844  _votingStatus */\n      and(0xff, sload(0x06))\n        /* \"contracts/Stakable-2.0.sol\":11831:11852  _votingStatus == true */\n      iszero\n      iszero\n        /* \"contracts/Stakable-2.0.sol\":11831:11844  _votingStatus */\n      0x01\n        /* \"contracts/Stakable-2.0.sol\":11831:11852  _votingStatus == true */\n      eq\n        /* \"contracts/Stakable-2.0.sol\":11827:11913  if (_votingStatus == true) {... */\n      iszero\n      tag_160\n      jumpi\n        /* \"contracts/Stakable-2.0.sol\":11876:11901  Voting__votingIsRunning() */\n      mload(0x40)\n      0x6da4cd2e00000000000000000000000000000000000000000000000000000000\n      dup2\n      mstore\n      0x04\n      add\n      mload(0x40)\n      dup1\n      swap2\n      sub\n      swap1\n      revert\n        /* \"contracts/Stakable-2.0.sol\":11827:11913  if (_votingStatus == true) {... */\n    tag_160:\n        /* \"contracts/Stakable-2.0.sol\":11925:11938  _votingStatus */\n      0x06\n        /* \"contracts/Stakable-2.0.sol\":11925:11945  _votingStatus = true */\n      dup1\n      sload\n      not(0xff)\n      and\n        /* \"contracts/Stakable-2.0.sol\":11941:11945  true */\n      0x01\n        /* \"contracts/Stakable-2.0.sol\":11925:11945  _votingStatus = true */\n      swap1\n      dup2\n      or\n      swap1\n      swap2\n      sstore\n        /* \"contracts/Stakable-2.0.sol\":11956:11965  _votingId */\n      0x07\n        /* \"contracts/Stakable-2.0.sol\":11956:11970  _votingId += 1 */\n      dup1\n      sload\n        /* \"contracts/Stakable-2.0.sol\":11925:11938  _votingStatus */\n      0x00\n      swap1\n        /* \"contracts/Stakable-2.0.sol\":11956:11970  _votingId += 1 */\n      tag_127\n      swap1\n        /* \"contracts/Stakable-2.0.sol\":11941:11945  true */\n      dup5\n      swap1\n        /* \"contracts/Stakable-2.0.sol\":11956:11970  _votingId += 1 */\n      tag_143\n      jump\t// in\n        /* \"contracts/Stakable-2.0.sol\":11986:12262  function vote() public nonReentrant votingStatusTrue isVoter {... */\n    tag_54:\n        /* \"@openzeppelin/contracts/security/ReentrancyGuard.sol\":1744:1745  2 */\n      0x02\n        /* \"@openzeppelin/contracts/security/ReentrancyGuard.sol\":2325:2332  _status */\n      sload(0x00)\n        /* \"@openzeppelin/contracts/security/ReentrancyGuard.sol\":2325:2344  _status != _ENTERED */\n      eq\n      iszero\n        /* \"@openzeppelin/contracts/security/ReentrancyGuard.sol\":2317:2380  require(_status != _ENTERED, \"ReentrancyGuard: reentrant call\") */\n      tag_164\n      jumpi\n      mload(0x40)\n      shl(0xe5, 0x461bcd)\n      dup2\n      mstore\n        /* \"#utility.yul\":2674:2676   */\n      0x20\n        /* \"@openzeppelin/contracts/security/ReentrancyGuard.sol\":2317:2380  require(_status != _ENTERED, \"ReentrancyGuard: reentrant call\") */\n      0x04\n      dup3\n      add\n        /* \"#utility.yul\":2656:2677   */\n      mstore\n        /* \"#utility.yul\":2713:2715   */\n      0x1f\n        /* \"#utility.yul\":2693:2711   */\n      0x24\n      dup3\n      add\n        /* \"#utility.yul\":2686:2716   */\n      mstore\n        /* \"#utility.yul\":2752:2785   */\n      0x5265656e7472616e637947756172643a207265656e7472616e742063616c6c00\n        /* \"#utility.yul\":2732:2750   */\n      0x44\n      dup3\n      add\n        /* \"#utility.yul\":2725:2786   */\n      mstore\n        /* \"#utility.yul\":2803:2821   */\n      0x64\n      add\n        /* \"@openzeppelin/contracts/security/ReentrancyGuard.sol\":2317:2380  require(_status != _ENTERED, \"ReentrancyGuard: reentrant call\") */\n      tag_117\n        /* \"#utility.yul\":2472:2827   */\n      jump\n        /* \"@openzeppelin/contracts/security/ReentrancyGuard.sol\":2317:2380  require(_status != _ENTERED, \"ReentrancyGuard: reentrant call\") */\n    tag_164:\n        /* \"@openzeppelin/contracts/security/ReentrancyGuard.sol\":1744:1745  2 */\n      0x02\n        /* \"@openzeppelin/contracts/security/ReentrancyGuard.sol\":2455:2462  _status */\n      0x00\n        /* \"@openzeppelin/contracts/security/ReentrancyGuard.sol\":2455:2473  _status = _ENTERED */\n      sstore\n        /* \"contracts/Stakable-2.0.sol\":4093:4113  _checkVotingStatus() */\n      tag_167\n        /* \"contracts/Stakable-2.0.sol\":4093:4111  _checkVotingStatus */\n      tag_121\n        /* \"contracts/Stakable-2.0.sol\":4093:4113  _checkVotingStatus() */\n      jump\t// in\n    tag_167:\n        /* \"contracts/Stakable-2.0.sol\":3799:3809  _isVoter() */\n      tag_169\n        /* \"contracts/Stakable-2.0.sol\":3799:3807  _isVoter */\n      tag_124\n        /* \"contracts/Stakable-2.0.sol\":3799:3809  _isVoter() */\n      jump\t// in\n    tag_169:\n        /* \"contracts/Stakable-2.0.sol\":12069:12079  msg.sender */\n      caller\n        /* \"contracts/Stakable-2.0.sol\":12062:12080  voters[msg.sender] */\n      0x00\n      swap1\n      dup2\n      mstore\n        /* \"contracts/Stakable-2.0.sol\":12062:12068  voters */\n      0x09\n        /* \"contracts/Stakable-2.0.sol\":12062:12080  voters[msg.sender] */\n      0x20\n      swap1\n      dup2\n      mstore\n      0x40\n      dup1\n      dup4\n      keccak256\n        /* \"contracts/Stakable-2.0.sol\":12087:12096  _votingId */\n      sload(0x07)\n        /* \"contracts/Stakable-2.0.sol\":12062:12097  voters[msg.sender].voted[_votingId] */\n      dup5\n      mstore\n        /* \"contracts/Stakable-2.0.sol\":12062:12086  voters[msg.sender].voted */\n      0x01\n      swap1\n      dup2\n      add\n        /* \"contracts/Stakable-2.0.sol\":12062:12097  voters[msg.sender].voted[_votingId] */\n      swap1\n      swap3\n      mstore\n      swap1\n      swap2\n      keccak256\n      sload\n      0xff\n      and\n        /* \"contracts/Stakable-2.0.sol\":12062:12105  voters[msg.sender].voted[_votingId] == true */\n      iszero\n      iszero\n      eq\n        /* \"contracts/Stakable-2.0.sol\":12058:12163  if (voters[msg.sender].voted[_votingId] == true) {... */\n      iszero\n      tag_171\n      jumpi\n        /* \"contracts/Stakable-2.0.sol\":12129:12151  Voting__alreadyVoted() */\n      mload(0x40)\n      0x740e33b000000000000000000000000000000000000000000000000000000000\n      dup2\n      mstore\n      0x04\n      add\n      mload(0x40)\n      dup1\n      swap2\n      sub\n      swap1\n      revert\n        /* \"contracts/Stakable-2.0.sol\":12058:12163  if (voters[msg.sender].voted[_votingId] == true) {... */\n    tag_171:\n        /* \"contracts/Stakable-2.0.sol\":12182:12192  msg.sender */\n      caller\n        /* \"contracts/Stakable-2.0.sol\":12175:12193  voters[msg.sender] */\n      0x00\n      swap1\n      dup2\n      mstore\n        /* \"contracts/Stakable-2.0.sol\":12175:12181  voters */\n      0x09\n        /* \"contracts/Stakable-2.0.sol\":12175:12193  voters[msg.sender] */\n      0x20\n      swap1\n      dup2\n      mstore\n      0x40\n      dup1\n      dup4\n      keccak256\n        /* \"contracts/Stakable-2.0.sol\":12200:12209  _votingId */\n      0x07\n      dup1\n      sload\n        /* \"contracts/Stakable-2.0.sol\":12175:12210  voters[msg.sender].voted[_votingId] */\n      dup6\n      mstore\n        /* \"contracts/Stakable-2.0.sol\":12213:12217  true */\n      0x01\n        /* \"contracts/Stakable-2.0.sol\":12175:12199  voters[msg.sender].voted */\n      swap2\n      dup3\n      add\n        /* \"contracts/Stakable-2.0.sol\":12175:12210  voters[msg.sender].voted[_votingId] */\n      dup5\n      mstore\n      dup3\n      dup6\n      keccak256\n        /* \"contracts/Stakable-2.0.sol\":12175:12217  voters[msg.sender].voted[_votingId] = true */\n      dup1\n      sload\n      not(0xff)\n      and\n      dup4\n      or\n      swap1\n      sstore\n        /* \"contracts/Stakable-2.0.sol\":12239:12248  _votingId */\n      sload\n        /* \"contracts/Stakable-2.0.sol\":12228:12249  votedUsers[_votingId] */\n      dup5\n      mstore\n        /* \"contracts/Stakable-2.0.sol\":12228:12238  votedUsers */\n      0x0a\n        /* \"contracts/Stakable-2.0.sol\":12228:12249  votedUsers[_votingId] */\n      swap1\n      swap3\n      mstore\n      dup3\n      keccak256\n        /* \"contracts/Stakable-2.0.sol\":12228:12254  votedUsers[_votingId] += 1 */\n      dup1\n      sload\n        /* \"contracts/Stakable-2.0.sol\":12213:12217  true */\n      swap2\n      swap3\n        /* \"contracts/Stakable-2.0.sol\":12228:12249  votedUsers[_votingId] */\n      swap1\n      swap2\n        /* \"contracts/Stakable-2.0.sol\":12228:12254  votedUsers[_votingId] += 1 */\n      tag_127\n      swap1\n        /* \"contracts/Stakable-2.0.sol\":12213:12217  true */\n      dup5\n      swap1\n        /* \"contracts/Stakable-2.0.sol\":12228:12254  votedUsers[_votingId] += 1 */\n      tag_143\n      jump\t// in\n        /* \"contracts/Stakable-2.0.sol\":10770:11381  function claimAirdrop(address user) external {... */\n    tag_57:\n      sub(shl(0xa0, 0x01), 0x01)\n        /* \"contracts/Stakable-2.0.sol\":10902:10920  stakeholders[user] */\n      dup2\n      and\n        /* \"contracts/Stakable-2.0.sol\":10879:10899  Stake storage staker */\n      0x00\n        /* \"contracts/Stakable-2.0.sol\":10902:10920  stakeholders[user] */\n      swap1\n      dup2\n      mstore\n        /* \"contracts/Stakable-2.0.sol\":10902:10914  stakeholders */\n      0x0c\n        /* \"contracts/Stakable-2.0.sol\":10902:10920  stakeholders[user] */\n      0x20\n      mstore\n      0x40\n      swap1\n      keccak256\n        /* \"contracts/Stakable-2.0.sol\":10937:10950  staker.amount */\n      dup1\n      sload\n        /* \"contracts/Stakable-2.0.sol\":10937:10954  staker.amount > 0 */\n      iszero\n        /* \"contracts/Stakable-2.0.sol\":10933:11374  if (staker.amount > 0) {... */\n      tag_177\n      jumpi\n        /* \"contracts/Stakable-2.0.sol\":10975:11012  calculateWeek(staker.latestClaimDrop) */\n      tag_175\n        /* \"contracts/Stakable-2.0.sol\":10989:10995  staker */\n      dup2\n        /* \"contracts/Stakable-2.0.sol\":10989:11011  staker.latestClaimDrop */\n      0x06\n      add\n      sload\n        /* \"contracts/Stakable-2.0.sol\":10975:10988  calculateWeek */\n      tag_92\n        /* \"contracts/Stakable-2.0.sol\":10975:11012  calculateWeek(staker.latestClaimDrop) */\n      jump\t// in\n    tag_175:\n        /* \"contracts/Stakable-2.0.sol\":10971:11090  if (calculateWeek(staker.latestClaimDrop) == 0) {... */\n      tag_176\n      jumpi\n        /* \"contracts/Stakable-2.0.sol\":11045:11074  Airdrop__claimableOnceAWeek() */\n      mload(0x40)\n      0xdd8456cc00000000000000000000000000000000000000000000000000000000\n      dup2\n      mstore\n      0x04\n      add\n      mload(0x40)\n      dup1\n      swap2\n      sub\n      swap1\n      revert\n        /* \"contracts/Stakable-2.0.sol\":10971:11090  if (calculateWeek(staker.latestClaimDrop) == 0) {... */\n    tag_176:\n        /* \"contracts/Stakable-2.0.sol\":11132:11133  0 */\n      0x00\n        /* \"contracts/Stakable-2.0.sol\":11106:11129  staker.claimableAirdrop */\n      0x05\n      dup3\n      add\n        /* \"contracts/Stakable-2.0.sol\":11106:11133  staker.claimableAirdrop = 0 */\n      sstore\n        /* \"contracts/Stakable-2.0.sol\":11173:11188  block.timestamp */\n      timestamp\n        /* \"contracts/Stakable-2.0.sol\":11148:11170  staker.latestClaimDrop */\n      0x06\n      dup3\n      add\n        /* \"contracts/Stakable-2.0.sol\":11148:11188  staker.latestClaimDrop = block.timestamp */\n      sstore\n        /* \"contracts/Stakable-2.0.sol\":11253:11266  token_address */\n      sload(0x0b)\n        /* \"contracts/Stakable-2.0.sol\":11333:11346  staker.amount */\n      dup2\n      sload\n        /* \"contracts/Stakable-2.0.sol\":11205:11362  SafeERC20.safeTransfer(... */\n      tag_177\n      swap2\n      sub(shl(0xa0, 0x01), 0x01)\n        /* \"contracts/Stakable-2.0.sol\":11253:11266  token_address */\n      and\n      swap1\n        /* \"contracts/Stakable-2.0.sol\":11286:11296  msg.sender */\n      caller\n      swap1\n        /* \"contracts/Stakable-2.0.sol\":11315:11347  _calculateAirdrop(staker.amount) */\n      tag_178\n      swap1\n        /* \"contracts/Stakable-2.0.sol\":11315:11332  _calculateAirdrop */\n      tag_147\n        /* \"contracts/Stakable-2.0.sol\":11315:11347  _calculateAirdrop(staker.amount) */\n      jump\t// in\n    tag_178:\n        /* \"contracts/Stakable-2.0.sol\":11205:11227  SafeERC20.safeTransfer */\n      tag_179\n        /* \"contracts/Stakable-2.0.sol\":11205:11362  SafeERC20.safeTransfer(... */\n      jump\t// in\n    tag_177:\n        /* \"contracts/Stakable-2.0.sol\":10815:11381  {... */\n      pop\n        /* \"contracts/Stakable-2.0.sol\":10770:11381  function claimAirdrop(address user) external {... */\n      pop\n      jump\t// out\n        /* \"contracts/Stakable-2.0.sol\":12563:12986  function getVotingResult()... */\n    tag_59:\n        /* \"@openzeppelin/contracts/access/Ownable.sol\":1108:1114  _owner */\n      sload(0x01)\n        /* \"contracts/Stakable-2.0.sol\":12685:12689  bool */\n      0x00\n      swap1\n      sub(shl(0xa0, 0x01), 0x01)\n        /* \"@openzeppelin/contracts/access/Ownable.sol\":1108:1114  _owner */\n      and\n        /* \"@openzeppelin/contracts/utils/Context.sol\":719:729  msg.sender */\n      caller\n        /* \"@openzeppelin/contracts/access/Ownable.sol\":1248:1271  owner() == _msgSender() */\n      eq\n        /* \"@openzeppelin/contracts/access/Ownable.sol\":1240:1308  require(owner() == _msgSender(), \"Ownable: caller is not the owner\") */\n      tag_183\n      jumpi\n      mload(0x40)\n      shl(0xe5, 0x461bcd)\n      dup2\n      mstore\n        /* \"#utility.yul\":3938:3940   */\n      0x20\n        /* \"@openzeppelin/contracts/access/Ownable.sol\":1240:1308  require(owner() == _msgSender(), \"Ownable: caller is not the owner\") */\n      0x04\n      dup3\n      add\n        /* \"#utility.yul\":3920:3941   */\n      dup2\n      swap1\n      mstore\n        /* \"#utility.yul\":3957:3975   */\n      0x24\n      dup3\n      add\n        /* \"#utility.yul\":3950:3980   */\n      mstore\n        /* \"#utility.yul\":4016:4050   */\n      0x4f776e61626c653a2063616c6c6572206973206e6f7420746865206f776e6572\n        /* \"#utility.yul\":3996:4014   */\n      0x44\n      dup3\n      add\n        /* \"#utility.yul\":3989:4051   */\n      mstore\n        /* \"#utility.yul\":4068:4086   */\n      0x64\n      add\n        /* \"@openzeppelin/contracts/access/Ownable.sol\":1240:1308  require(owner() == _msgSender(), \"Ownable: caller is not the owner\") */\n      tag_117\n        /* \"#utility.yul\":3736:4092   */\n      jump\n        /* \"@openzeppelin/contracts/access/Ownable.sol\":1240:1308  require(owner() == _msgSender(), \"Ownable: caller is not the owner\") */\n    tag_183:\n        /* \"contracts/Stakable-2.0.sol\":4093:4113  _checkVotingStatus() */\n      tag_186\n        /* \"contracts/Stakable-2.0.sol\":4093:4111  _checkVotingStatus */\n      tag_121\n        /* \"contracts/Stakable-2.0.sol\":4093:4113  _checkVotingStatus() */\n      jump\t// in\n    tag_186:\n        /* \"contracts/Stakable-2.0.sol\":12726:12727  1 */\n      0x01\n        /* \"contracts/Stakable-2.0.sol\":12711:12722  totalVoters */\n      sload(0x08)\n        /* \"contracts/Stakable-2.0.sol\":12711:12727  totalVoters <= 1 */\n      gt\n        /* \"contracts/Stakable-2.0.sol\":12707:12788  if (totalVoters <= 1) {... */\n      tag_188\n      jumpi\n        /* \"contracts/Stakable-2.0.sol\":12751:12776  Voting__notEnoughVoters() */\n      mload(0x40)\n      0x2f9686de00000000000000000000000000000000000000000000000000000000\n      dup2\n      mstore\n      0x04\n      add\n      mload(0x40)\n      dup1\n      swap2\n      sub\n      swap1\n      revert\n        /* \"contracts/Stakable-2.0.sol\":12707:12788  if (totalVoters <= 1) {... */\n    tag_188:\n        /* \"contracts/Stakable-2.0.sol\":12798:12817  uint256 half_voters */\n      0x00\n        /* \"contracts/Stakable-2.0.sol\":12840:12842  10 */\n      0x0a\n        /* \"contracts/Stakable-2.0.sol\":12821:12832  totalVoters */\n      sload(0x08)\n        /* \"contracts/Stakable-2.0.sol\":12835:12836  5 */\n      0x05\n        /* \"contracts/Stakable-2.0.sol\":12821:12836  totalVoters * 5 */\n      tag_189\n      swap2\n      swap1\n      tag_137\n      jump\t// in\n    tag_189:\n        /* \"contracts/Stakable-2.0.sol\":12820:12842  (totalVoters * 5) / 10 */\n      tag_190\n      swap2\n      swap1\n      tag_139\n      jump\t// in\n    tag_190:\n        /* \"contracts/Stakable-2.0.sol\":12870:12879  _votingId */\n      sload(0x07)\n        /* \"contracts/Stakable-2.0.sol\":12859:12880  votedUsers[_votingId] */\n      0x00\n      swap1\n      dup2\n      mstore\n        /* \"contracts/Stakable-2.0.sol\":12859:12869  votedUsers */\n      0x0a\n        /* \"contracts/Stakable-2.0.sol\":12859:12880  votedUsers[_votingId] */\n      0x20\n      mstore\n      0x40\n      swap1\n      keccak256\n      sload\n        /* \"contracts/Stakable-2.0.sol\":12798:12842  uint256 half_voters = (totalVoters * 5) / 10 */\n      swap1\n      swap2\n      pop\n        /* \"contracts/Stakable-2.0.sol\":12859:12894  votedUsers[_votingId] > half_voters */\n      dup2\n      lt\n        /* \"contracts/Stakable-2.0.sol\":12855:12979  if (votedUsers[_votingId] > half_voters) {... */\n      iszero\n      tag_191\n      jumpi\n        /* \"contracts/Stakable-2.0.sol\":12918:12922  true */\n      0x01\n        /* \"contracts/Stakable-2.0.sol\":12911:12922  return true */\n      swap2\n      pop\n      pop\n        /* \"contracts/Stakable-2.0.sol\":12563:12986  function getVotingResult()... */\n      swap1\n      jump\t// out\n        /* \"contracts/Stakable-2.0.sol\":12855:12979  if (votedUsers[_votingId] > half_voters) {... */\n    tag_191:\n        /* \"contracts/Stakable-2.0.sol\":12962:12967  false */\n      0x00\n        /* \"contracts/Stakable-2.0.sol\":12955:12967  return false */\n      swap2\n      pop\n      pop\n        /* \"contracts/Stakable-2.0.sol\":12563:12986  function getVotingResult()... */\n      swap1\n      jump\t// out\n        /* \"@openzeppelin/contracts/access/Ownable.sol\":1668:1769  function renounceOwnership() public virtual onlyOwner {... */\n    tag_63:\n        /* \"@openzeppelin/contracts/access/Ownable.sol\":1108:1114  _owner */\n      and(sub(shl(0xa0, 0x01), 0x01), sload(0x01))\n        /* \"@openzeppelin/contracts/utils/Context.sol\":719:729  msg.sender */\n      caller\n        /* \"@openzeppelin/contracts/access/Ownable.sol\":1248:1271  owner() == _msgSender() */\n      eq\n        /* \"@openzeppelin/contracts/access/Ownable.sol\":1240:1308  require(owner() == _msgSender(), \"Ownable: caller is not the owner\") */\n      tag_196\n      jumpi\n      mload(0x40)\n      shl(0xe5, 0x461bcd)\n      dup2\n      mstore\n        /* \"#utility.yul\":3938:3940   */\n      0x20\n        /* \"@openzeppelin/contracts/access/Ownable.sol\":1240:1308  require(owner() == _msgSender(), \"Ownable: caller is not the owner\") */\n      0x04\n      dup3\n      add\n        /* \"#utility.yul\":3920:3941   */\n      dup2\n      swap1\n      mstore\n        /* \"#utility.yul\":3957:3975   */\n      0x24\n      dup3\n      add\n        /* \"#utility.yul\":3950:3980   */\n      mstore\n        /* \"#utility.yul\":4016:4050   */\n      0x4f776e61626c653a2063616c6c6572206973206e6f7420746865206f776e6572\n        /* \"#utility.yul\":3996:4014   */\n      0x44\n      dup3\n      add\n        /* \"#utility.yul\":3989:4051   */\n      mstore\n        /* \"#utility.yul\":4068:4086   */\n      0x64\n      add\n        /* \"@openzeppelin/contracts/access/Ownable.sol\":1240:1308  require(owner() == _msgSender(), \"Ownable: caller is not the owner\") */\n      tag_117\n        /* \"#utility.yul\":3736:4092   */\n      jump\n        /* \"@openzeppelin/contracts/access/Ownable.sol\":1240:1308  require(owner() == _msgSender(), \"Ownable: caller is not the owner\") */\n    tag_196:\n        /* \"@openzeppelin/contracts/access/Ownable.sol\":1732:1762  _transferOwnership(address(0)) */\n      tag_199\n        /* \"@openzeppelin/contracts/access/Ownable.sol\":1759:1760  0 */\n      0x00\n        /* \"@openzeppelin/contracts/access/Ownable.sol\":1732:1750  _transferOwnership */\n      tag_200\n        /* \"@openzeppelin/contracts/access/Ownable.sol\":1732:1762  _transferOwnership(address(0)) */\n      jump\t// in\n    tag_199:\n        /* \"@openzeppelin/contracts/access/Ownable.sol\":1668:1769  function renounceOwnership() public virtual onlyOwner {... */\n      jump\t// out\n        /* \"contracts/Stakable-2.0.sol\":4459:5921  function stake(uint256 amount, uint256 stakePeriod)... */\n    tag_67:\n        /* \"@openzeppelin/contracts/security/ReentrancyGuard.sol\":1744:1745  2 */\n      0x02\n        /* \"@openzeppelin/contracts/security/ReentrancyGuard.sol\":2325:2332  _status */\n      sload(0x00)\n        /* \"@openzeppelin/contracts/security/ReentrancyGuard.sol\":2325:2344  _status != _ENTERED */\n      eq\n      iszero\n        /* \"@openzeppelin/contracts/security/ReentrancyGuard.sol\":2317:2380  require(_status != _ENTERED, \"ReentrancyGuard: reentrant call\") */\n      tag_202\n      jumpi\n      mload(0x40)\n      shl(0xe5, 0x461bcd)\n      dup2\n      mstore\n        /* \"#utility.yul\":2674:2676   */\n      0x20\n        /* \"@openzeppelin/contracts/security/ReentrancyGuard.sol\":2317:2380  require(_status != _ENTERED, \"ReentrancyGuard: reentrant call\") */\n      0x04\n      dup3\n      add\n        /* \"#utility.yul\":2656:2677   */\n      mstore\n        /* \"#utility.yul\":2713:2715   */\n      0x1f\n        /* \"#utility.yul\":2693:2711   */\n      0x24\n      dup3\n      add\n        /* \"#utility.yul\":2686:2716   */\n      mstore\n        /* \"#utility.yul\":2752:2785   */\n      0x5265656e7472616e637947756172643a207265656e7472616e742063616c6c00\n        /* \"#utility.yul\":2732:2750   */\n      0x44\n      dup3\n      add\n        /* \"#utility.yul\":2725:2786   */\n      mstore\n        /* \"#utility.yul\":2803:2821   */\n      0x64\n      add\n        /* \"@openzeppelin/contracts/security/ReentrancyGuard.sol\":2317:2380  require(_status != _ENTERED, \"ReentrancyGuard: reentrant call\") */\n      tag_117\n        /* \"#utility.yul\":2472:2827   */\n      jump\n        /* \"@openzeppelin/contracts/security/ReentrancyGuard.sol\":2317:2380  require(_status != _ENTERED, \"ReentrancyGuard: reentrant call\") */\n    tag_202:\n        /* \"@openzeppelin/contracts/security/ReentrancyGuard.sol\":1744:1745  2 */\n      0x02\n        /* \"@openzeppelin/contracts/security/ReentrancyGuard.sol\":2455:2462  _status */\n      0x00\n        /* \"@openzeppelin/contracts/security/ReentrancyGuard.sol\":2455:2473  _status = _ENTERED */\n      sstore\n        /* \"contracts/Stakable-2.0.sol\":4683:4694  amount <= 0 */\n      dup2\n        /* \"contracts/Stakable-2.0.sol\":4679:4759  if (amount <= 0) {... */\n      tag_205\n      jumpi\n        /* \"contracts/Stakable-2.0.sol\":4718:4747  Staking__cannotStakeNothing() */\n      mload(0x40)\n      0x88b440d600000000000000000000000000000000000000000000000000000000\n      dup2\n      mstore\n      0x04\n      add\n      mload(0x40)\n      dup1\n      swap2\n      sub\n      swap1\n      revert\n        /* \"contracts/Stakable-2.0.sol\":4679:4759  if (amount <= 0) {... */\n    tag_205:\n        /* \"contracts/Stakable-2.0.sol\":4859:4869  msg.sender */\n      caller\n        /* \"contracts/Stakable-2.0.sol\":4846:4870  stakeholders[msg.sender] */\n      0x00\n      swap1\n      dup2\n      mstore\n        /* \"contracts/Stakable-2.0.sol\":4846:4858  stakeholders */\n      0x0c\n        /* \"contracts/Stakable-2.0.sol\":4846:4870  stakeholders[msg.sender] */\n      0x20\n      mstore\n      0x40\n      swap1\n      keccak256\n        /* \"contracts/Stakable-2.0.sol\":4846:4877  stakeholders[msg.sender].amount */\n      sload\n        /* \"contracts/Stakable-2.0.sol\":4846:4882  stakeholders[msg.sender].amount != 0 */\n      iszero\n        /* \"contracts/Stakable-2.0.sol\":4842:4941  if (stakeholders[msg.sender].amount != 0) {... */\n      tag_206\n      jumpi\n        /* \"contracts/Stakable-2.0.sol\":4906:4929  Staking__userIsStaker() */\n      mload(0x40)\n      0x04462d2700000000000000000000000000000000000000000000000000000000\n      dup2\n      mstore\n      0x04\n      add\n      mload(0x40)\n      dup1\n      swap2\n      sub\n      swap1\n      revert\n        /* \"contracts/Stakable-2.0.sol\":4842:4941  if (stakeholders[msg.sender].amount != 0) {... */\n    tag_206:\n        /* \"contracts/Stakable-2.0.sol\":4957:4984  stakingPackage[stakePeriod] */\n      0x00\n      dup2\n      dup2\n      mstore\n        /* \"contracts/Stakable-2.0.sol\":4957:4971  stakingPackage */\n      0x02\n        /* \"contracts/Stakable-2.0.sol\":4957:4984  stakingPackage[stakePeriod] */\n      0x20\n      mstore\n      0x40\n      swap1\n      keccak256\n      sload\n        /* \"contracts/Stakable-2.0.sol\":4953:5056  if (stakingPackage[stakePeriod] == 0) {... */\n      tag_207\n      jumpi\n        /* \"contracts/Stakable-2.0.sol\":5013:5044  Staking_noStakingPackageFound() */\n      mload(0x40)\n      0x95377be400000000000000000000000000000000000000000000000000000000\n      dup2\n      mstore\n      0x04\n      add\n      mload(0x40)\n      dup1\n      swap2\n      sub\n      swap1\n      revert\n        /* \"contracts/Stakable-2.0.sol\":4953:5056  if (stakingPackage[stakePeriod] == 0) {... */\n    tag_207:\n        /* \"contracts/Stakable-2.0.sol\":5083:5084  1 */\n      0x01\n        /* \"contracts/Stakable-2.0.sol\":5068:5079  totalVoters */\n      0x08\n      0x00\n        /* \"contracts/Stakable-2.0.sol\":5068:5084  totalVoters += 1 */\n      dup3\n      dup3\n      sload\n      tag_208\n      swap2\n      swap1\n      tag_143\n      jump\t// in\n    tag_208:\n      swap1\n      swap2\n      sstore\n      pop\n      pop\n        /* \"contracts/Stakable-2.0.sol\":5102:5112  msg.sender */\n      caller\n        /* \"contracts/Stakable-2.0.sol\":5095:5113  voters[msg.sender] */\n      0x00\n      swap1\n      dup2\n      mstore\n        /* \"contracts/Stakable-2.0.sol\":5095:5101  voters */\n      0x09\n        /* \"contracts/Stakable-2.0.sol\":5095:5113  voters[msg.sender] */\n      0x20\n      swap1\n      dup2\n      mstore\n      0x40\n      dup1\n      dup4\n      keccak256\n        /* \"contracts/Stakable-2.0.sol\":5095:5132  voters[msg.sender].votingRight = true */\n      dup1\n      sload\n      not(0xff)\n      and\n        /* \"contracts/Stakable-2.0.sol\":5128:5132  true */\n      0x01\n        /* \"contracts/Stakable-2.0.sol\":5095:5132  voters[msg.sender].votingRight = true */\n      or\n      swap1\n      sstore\n        /* \"contracts/Stakable-2.0.sol\":5429:5620  Stake(... */\n      dup1\n      mload\n      0xe0\n      dup2\n      add\n      dup3\n      mstore\n      dup6\n      dup2\n      mstore\n        /* \"contracts/Stakable-2.0.sol\":5253:5268  block.timestamp */\n      timestamp\n        /* \"contracts/Stakable-2.0.sol\":5429:5620  Stake(... */\n      dup2\n      dup5\n      add\n      dup2\n      swap1\n      mstore\n        /* \"contracts/Stakable-2.0.sol\":5494:5521  stakingPackage[stakePeriod] */\n      dup6\n      dup6\n      mstore\n        /* \"contracts/Stakable-2.0.sol\":5494:5508  stakingPackage */\n      0x02\n        /* \"contracts/Stakable-2.0.sol\":5494:5521  stakingPackage[stakePeriod] */\n      swap1\n      swap4\n      mstore\n      swap3\n      dup2\n      swap1\n      keccak256\n      sload\n        /* \"contracts/Stakable-2.0.sol\":5429:5620  Stake(... */\n      swap1\n      dup4\n      add\n      mstore\n        /* \"contracts/Stakable-2.0.sol\":5253:5268  block.timestamp */\n      swap1\n        /* \"contracts/Stakable-2.0.sol\":5429:5620  Stake(... */\n      0x60\n      dup2\n      add\n        /* \"contracts/Stakable-2.0.sol\":5537:5560  stakePeriod + timestamp */\n      tag_209\n        /* \"contracts/Stakable-2.0.sol\":5253:5268  block.timestamp */\n      dup4\n        /* \"contracts/Stakable-2.0.sol\":5509:5520  stakePeriod */\n      dup6\n        /* \"contracts/Stakable-2.0.sol\":5537:5560  stakePeriod + timestamp */\n      tag_143\n      jump\t// in\n    tag_209:\n        /* \"contracts/Stakable-2.0.sol\":5429:5620  Stake(... */\n      dup2\n      mstore\n        /* \"contracts/Stakable-2.0.sol\":5576:5577  0 */\n      0x00\n        /* \"contracts/Stakable-2.0.sol\":5429:5620  Stake(... */\n      0x20\n      dup1\n      dup4\n      add\n      dup3\n      swap1\n      mstore\n      0x40\n      dup1\n      dup5\n      add\n      dup4\n      swap1\n      mstore\n      0x60\n      swap4\n      dup5\n      add\n      dup4\n      swap1\n      mstore\n        /* \"contracts/Stakable-2.0.sol\":5415:5425  msg.sender */\n      caller\n        /* \"contracts/Stakable-2.0.sol\":5402:5426  stakeholders[msg.sender] */\n      dup1\n      dup5\n      mstore\n        /* \"contracts/Stakable-2.0.sol\":5402:5414  stakeholders */\n      0x0c\n        /* \"contracts/Stakable-2.0.sol\":5402:5426  stakeholders[msg.sender] */\n      dup4\n      mstore\n      swap3\n      dup2\n      swap1\n      keccak256\n        /* \"contracts/Stakable-2.0.sol\":5402:5620  stakeholders[msg.sender] = Stake(... */\n      dup6\n      mload\n      dup2\n      sstore\n      swap2\n      dup6\n      add\n      mload\n      0x01\n      dup4\n      add\n      sstore\n      dup5\n      add\n      mload\n      0x02\n      dup3\n      add\n      sstore\n      swap2\n      dup4\n      add\n      mload\n      0x03\n      dup4\n      add\n      sstore\n      0x80\n      dup4\n      add\n      mload\n      0x04\n      dup4\n      add\n      sstore\n      0xa0\n      dup4\n      add\n      mload\n      0x05\n      dup4\n      add\n      sstore\n      0xc0\n      swap1\n      swap3\n      add\n      mload\n      0x06\n      swap1\n      swap2\n      add\n      sstore\n        /* \"contracts/Stakable-2.0.sol\":5681:5694  token_address */\n      sload(0x0b)\n        /* \"contracts/Stakable-2.0.sol\":5633:5780  SafeERC20.safeTransferFrom(... */\n      tag_210\n      swap2\n      sub(shl(0xa0, 0x01), 0x01)\n        /* \"contracts/Stakable-2.0.sol\":5681:5694  token_address */\n      swap1\n      swap2\n      and\n      swap1\n        /* \"contracts/Stakable-2.0.sol\":5743:5747  this */\n      address\n        /* \"contracts/Stakable-2.0.sol\":5763:5769  amount */\n      dup7\n        /* \"contracts/Stakable-2.0.sol\":5633:5659  SafeERC20.safeTransferFrom */\n      tag_211\n        /* \"contracts/Stakable-2.0.sol\":5633:5780  SafeERC20.safeTransferFrom(... */\n      jump\t// in\n    tag_210:\n        /* \"contracts/Stakable-2.0.sol\":5856:5866  msg.sender */\n      caller\n        /* \"contracts/Stakable-2.0.sol\":5849:5913  Staked(msg.sender, amount, timestamp, (stakePeriod + timestamp)) */\n      0xb4caaf29adda3eefee3ad552a8e85058589bf834c7466cae4ee58787f70589ed\n        /* \"contracts/Stakable-2.0.sol\":5868:5874  amount */\n      dup5\n        /* \"contracts/Stakable-2.0.sol\":5876:5885  timestamp */\n      dup4\n        /* \"contracts/Stakable-2.0.sol\":5888:5911  stakePeriod + timestamp */\n      tag_212\n        /* \"contracts/Stakable-2.0.sol\":5876:5885  timestamp */\n      dup2\n        /* \"contracts/Stakable-2.0.sol\":5888:5899  stakePeriod */\n      dup8\n        /* \"contracts/Stakable-2.0.sol\":5888:5911  stakePeriod + timestamp */\n      tag_143\n      jump\t// in\n    tag_212:\n        /* \"contracts/Stakable-2.0.sol\":5849:5913  Staked(msg.sender, amount, timestamp, (stakePeriod + timestamp)) */\n      0x40\n      dup1\n      mload\n        /* \"#utility.yul\":4299:4324   */\n      swap4\n      dup5\n      mstore\n        /* \"#utility.yul\":4355:4357   */\n      0x20\n        /* \"#utility.yul\":4340:4358   */\n      dup5\n      add\n        /* \"#utility.yul\":4333:4367   */\n      swap3\n      swap1\n      swap3\n      mstore\n        /* \"#utility.yul\":4383:4401   */\n      swap1\n      dup3\n      add\n        /* \"#utility.yul\":4376:4410   */\n      mstore\n        /* \"#utility.yul\":4287:4289   */\n      0x60\n        /* \"#utility.yul\":4272:4290   */\n      add\n        /* \"contracts/Stakable-2.0.sol\":5849:5913  Staked(msg.sender, amount, timestamp, (stakePeriod + timestamp)) */\n      mload(0x40)\n      dup1\n      swap2\n      sub\n      swap1\n      log2\n      pop\n      pop\n        /* \"@openzeppelin/contracts/security/ReentrancyGuard.sol\":1701:1702  1 */\n      0x01\n        /* \"@openzeppelin/contracts/security/ReentrancyGuard.sol\":2628:2635  _status */\n      0x00\n        /* \"@openzeppelin/contracts/security/ReentrancyGuard.sol\":2628:2650  _status = _NOT_ENTERED */\n      sstore\n      pop\n        /* \"contracts/Stakable-2.0.sol\":4459:5921  function stake(uint256 amount, uint256 stakePeriod)... */\n      jump\t// out\n        /* \"contracts/Stakable-2.0.sol\":5929:6242  function changePenaltyFee(uint256 amount) external onlyOwner {... */\n    tag_74:\n        /* \"@openzeppelin/contracts/access/Ownable.sol\":1108:1114  _owner */\n      and(sub(shl(0xa0, 0x01), 0x01), sload(0x01))\n        /* \"@openzeppelin/contracts/utils/Context.sol\":719:729  msg.sender */\n      caller\n        /* \"@openzeppelin/contracts/access/Ownable.sol\":1248:1271  owner() == _msgSender() */\n      eq\n        /* \"@openzeppelin/contracts/access/Ownable.sol\":1240:1308  require(owner() == _msgSender(), \"Ownable: caller is not the owner\") */\n      tag_218\n      jumpi\n      mload(0x40)\n      shl(0xe5, 0x461bcd)\n      dup2\n      mstore\n        /* \"#utility.yul\":3938:3940   */\n      0x20\n        /* \"@openzeppelin/contracts/access/Ownable.sol\":1240:1308  require(owner() == _msgSender(), \"Ownable: caller is not the owner\") */\n      0x04\n      dup3\n      add\n        /* \"#utility.yul\":3920:3941   */\n      dup2\n      swap1\n      mstore\n        /* \"#utility.yul\":3957:3975   */\n      0x24\n      dup3\n      add\n        /* \"#utility.yul\":3950:3980   */\n      mstore\n        /* \"#utility.yul\":4016:4050   */\n      0x4f776e61626c653a2063616c6c6572206973206e6f7420746865206f776e6572\n        /* \"#utility.yul\":3996:4014   */\n      0x44\n      dup3\n      add\n        /* \"#utility.yul\":3989:4051   */\n      mstore\n        /* \"#utility.yul\":4068:4086   */\n      0x64\n      add\n        /* \"@openzeppelin/contracts/access/Ownable.sol\":1240:1308  require(owner() == _msgSender(), \"Ownable: caller is not the owner\") */\n      tag_117\n        /* \"#utility.yul\":3736:4092   */\n      jump\n        /* \"@openzeppelin/contracts/access/Ownable.sol\":1240:1308  require(owner() == _msgSender(), \"Ownable: caller is not the owner\") */\n    tag_218:\n        /* \"contracts/Stakable-2.0.sol\":6089:6091  30 */\n      0x1e\n        /* \"contracts/Stakable-2.0.sol\":6080:6086  amount */\n      dup2\n        /* \"contracts/Stakable-2.0.sol\":6080:6091  amount > 30 */\n      gt\n        /* \"contracts/Stakable-2.0.sol\":6076:6159  if (amount > 30) {... */\n      iszero\n      tag_221\n      jumpi\n        /* \"contracts/Stakable-2.0.sol\":6115:6147  Staking__penaltyExceed3Percent() */\n      mload(0x40)\n      0xf1a470d700000000000000000000000000000000000000000000000000000000\n      dup2\n      mstore\n      0x04\n      add\n      mload(0x40)\n      dup1\n      swap2\n      sub\n      swap1\n      revert\n        /* \"contracts/Stakable-2.0.sol\":6076:6159  if (amount > 30) {... */\n    tag_221:\n        /* \"contracts/Stakable-2.0.sol\":6169:6187  stakingPenaltyRate */\n      0x03\n        /* \"contracts/Stakable-2.0.sol\":6169:6196  stakingPenaltyRate = amount */\n      dup2\n      swap1\n      sstore\n        /* \"contracts/Stakable-2.0.sol\":6212:6234  PenaltyChanged(amount) */\n      mload(0x40)\n        /* \"#utility.yul\":1575:1600   */\n      dup2\n      dup2\n      mstore\n        /* \"contracts/Stakable-2.0.sol\":6212:6234  PenaltyChanged(amount) */\n      0xcfa4f4cf1cd64d13a167a8e75605e0c0c9d6700e903d17c5dc11f593254a04a9\n      swap1\n        /* \"#utility.yul\":1563:1565   */\n      0x20\n        /* \"#utility.yul\":1548:1566   */\n      add\n        /* \"contracts/Stakable-2.0.sol\":6212:6234  PenaltyChanged(amount) */\n    tag_222:\n      mload(0x40)\n      dup1\n      swap2\n      sub\n      swap1\n      log1\n        /* \"contracts/Stakable-2.0.sol\":5929:6242  function changePenaltyFee(uint256 amount) external onlyOwner {... */\n      pop\n      jump\t// out\n        /* \"contracts/Stakable-2.0.sol\":10433:10569  function calculateWeek(uint256 timestamp) public view returns (uint256) {... */\n    tag_92:\n        /* \"contracts/Stakable-2.0.sol\":10496:10503  uint256 */\n      0x00\n        /* \"contracts/Stakable-2.0.sol\":10555:10561  7 days */\n      0x093a80\n        /* \"contracts/Stakable-2.0.sol\":10524:10551  block.timestamp - timestamp */\n      tag_225\n        /* \"contracts/Stakable-2.0.sol\":10542:10551  timestamp */\n      dup4\n        /* \"contracts/Stakable-2.0.sol\":10524:10539  block.timestamp */\n      timestamp\n        /* \"contracts/Stakable-2.0.sol\":10524:10551  block.timestamp - timestamp */\n      tag_128\n      jump\t// in\n    tag_225:\n        /* \"contracts/Stakable-2.0.sol\":10523:10561  (block.timestamp - timestamp) / 7 days */\n      tag_226\n      swap2\n      swap1\n      tag_139\n      jump\t// in\n    tag_226:\n        /* \"contracts/Stakable-2.0.sol\":10516:10561  return (block.timestamp - timestamp) / 7 days */\n      swap3\n        /* \"contracts/Stakable-2.0.sol\":10433:10569  function calculateWeek(uint256 timestamp) public view returns (uint256) {... */\n      swap2\n      pop\n      pop\n      jump\t// out\n        /* \"contracts/Stakable-2.0.sol\":7792:8804  function withdrawStake() external nonReentrant {... */\n    tag_98:\n        /* \"@openzeppelin/contracts/security/ReentrancyGuard.sol\":1744:1745  2 */\n      0x02\n        /* \"@openzeppelin/contracts/security/ReentrancyGuard.sol\":2325:2332  _status */\n      sload(0x00)\n        /* \"@openzeppelin/contracts/security/ReentrancyGuard.sol\":2325:2344  _status != _ENTERED */\n      eq\n      iszero\n        /* \"@openzeppelin/contracts/security/ReentrancyGuard.sol\":2317:2380  require(_status != _ENTERED, \"ReentrancyGuard: reentrant call\") */\n      tag_228\n      jumpi\n      mload(0x40)\n      shl(0xe5, 0x461bcd)\n      dup2\n      mstore\n        /* \"#utility.yul\":2674:2676   */\n      0x20\n        /* \"@openzeppelin/contracts/security/ReentrancyGuard.sol\":2317:2380  require(_status != _ENTERED, \"ReentrancyGuard: reentrant call\") */\n      0x04\n      dup3\n      add\n        /* \"#utility.yul\":2656:2677   */\n      mstore\n        /* \"#utility.yul\":2713:2715   */\n      0x1f\n        /* \"#utility.yul\":2693:2711   */\n      0x24\n      dup3\n      add\n        /* \"#utility.yul\":2686:2716   */\n      mstore\n        /* \"#utility.yul\":2752:2785   */\n      0x5265656e7472616e637947756172643a207265656e7472616e742063616c6c00\n        /* \"#utility.yul\":2732:2750   */\n      0x44\n      dup3\n      add\n        /* \"#utility.yul\":2725:2786   */\n      mstore\n        /* \"#utility.yul\":2803:2821   */\n      0x64\n      add\n        /* \"@openzeppelin/contracts/security/ReentrancyGuard.sol\":2317:2380  require(_status != _ENTERED, \"ReentrancyGuard: reentrant call\") */\n      tag_117\n        /* \"#utility.yul\":2472:2827   */\n      jump\n        /* \"@openzeppelin/contracts/security/ReentrancyGuard.sol\":2317:2380  require(_status != _ENTERED, \"ReentrancyGuard: reentrant call\") */\n    tag_228:\n        /* \"@openzeppelin/contracts/security/ReentrancyGuard.sol\":1744:1745  2 */\n      0x02\n        /* \"@openzeppelin/contracts/security/ReentrancyGuard.sol\":2455:2462  _status */\n      0x00\n        /* \"@openzeppelin/contracts/security/ReentrancyGuard.sol\":2455:2473  _status = _ENTERED */\n      dup2\n      dup2\n      sstore\n        /* \"contracts/Stakable-2.0.sol\":7999:8009  msg.sender */\n      caller\n        /* \"contracts/Stakable-2.0.sol\":7986:8010  stakeholders[msg.sender] */\n      dup2\n      mstore\n        /* \"contracts/Stakable-2.0.sol\":7986:7998  stakeholders */\n      0x0c\n        /* \"contracts/Stakable-2.0.sol\":7986:8010  stakeholders[msg.sender] */\n      0x20\n      swap1\n      dup2\n      mstore\n      0x40\n      dup1\n      dup4\n      keccak256\n        /* \"contracts/Stakable-2.0.sol\":7960:8010  Stake memory user_stake = stakeholders[msg.sender] */\n      dup2\n      mload\n      0xe0\n      dup2\n      add\n      dup4\n      mstore\n      dup2\n      sload\n      dup2\n      mstore\n      0x01\n      dup3\n      add\n      sload\n      swap4\n      dup2\n      add\n      swap4\n      swap1\n      swap4\n      mstore\n      swap4\n      dup5\n      add\n      sload\n      swap1\n      dup3\n      add\n      mstore\n      0x03\n      dup4\n      add\n      sload\n      0x60\n      dup3\n      add\n      mstore\n      0x04\n      dup4\n      add\n      sload\n      0x80\n      dup3\n      add\n      mstore\n      0x05\n      dup4\n      add\n      sload\n      0xa0\n      dup3\n      add\n      mstore\n      0x06\n      swap1\n      swap3\n      add\n      sload\n      0xc0\n      dup4\n      add\n      mstore\n        /* \"contracts/Stakable-2.0.sol\":8038:8071  _calculateStakeReward(user_stake) */\n      tag_231\n        /* \"contracts/Stakable-2.0.sol\":7960:8010  Stake memory user_stake = stakeholders[msg.sender] */\n      dup3\n        /* \"contracts/Stakable-2.0.sol\":8038:8059  _calculateStakeReward */\n      tag_134\n        /* \"contracts/Stakable-2.0.sol\":8038:8071  _calculateStakeReward(user_stake) */\n      jump\t// in\n    tag_231:\n        /* \"contracts/Stakable-2.0.sol\":8104:8114  msg.sender */\n      caller\n        /* \"contracts/Stakable-2.0.sol\":8091:8115  stakeholders[msg.sender] */\n      0x00\n      swap1\n      dup2\n      mstore\n        /* \"contracts/Stakable-2.0.sol\":8091:8103  stakeholders */\n      0x0c\n        /* \"contracts/Stakable-2.0.sol\":8091:8115  stakeholders[msg.sender] */\n      0x20\n      mstore\n      0x40\n      dup2\n      keccak256\n        /* \"contracts/Stakable-2.0.sol\":8084:8115  delete stakeholders[msg.sender] */\n      dup2\n      dup2\n      sstore\n      0x01\n      dup1\n      dup3\n      add\n      dup4\n      swap1\n      sstore\n      0x02\n      dup3\n      add\n      dup4\n      swap1\n      sstore\n      0x03\n      dup3\n      add\n      dup4\n      swap1\n      sstore\n      0x04\n      dup3\n      add\n      dup4\n      swap1\n      sstore\n      0x05\n      dup3\n      add\n      dup4\n      swap1\n      sstore\n      0x06\n      swap1\n      swap2\n      add\n      dup3\n      swap1\n      sstore\n        /* \"contracts/Stakable-2.0.sol\":8126:8137  totalVoters */\n      0x08\n        /* \"contracts/Stakable-2.0.sol\":8126:8142  totalVoters -= 1 */\n      dup1\n      sload\n        /* \"contracts/Stakable-2.0.sol\":8021:8071  uint256 reward = _calculateStakeReward(user_stake) */\n      swap4\n      swap5\n      pop\n        /* \"contracts/Stakable-2.0.sol\":8084:8115  delete stakeholders[msg.sender] */\n      swap1\n      swap3\n        /* \"contracts/Stakable-2.0.sol\":8126:8137  totalVoters */\n      swap1\n      swap2\n        /* \"contracts/Stakable-2.0.sol\":8091:8115  stakeholders[msg.sender] */\n      swap1\n        /* \"contracts/Stakable-2.0.sol\":8126:8142  totalVoters -= 1 */\n      tag_232\n      swap1\n        /* \"contracts/Stakable-2.0.sol\":8084:8115  delete stakeholders[msg.sender] */\n      dup5\n      swap1\n        /* \"contracts/Stakable-2.0.sol\":8126:8142  totalVoters -= 1 */\n      tag_128\n      jump\t// in\n    tag_232:\n      swap1\n      swap2\n      sstore\n      pop\n      pop\n        /* \"contracts/Stakable-2.0.sol\":8167:8177  msg.sender */\n      caller\n        /* \"contracts/Stakable-2.0.sol\":8160:8178  voters[msg.sender] */\n      0x00\n      swap1\n      dup2\n      mstore\n        /* \"contracts/Stakable-2.0.sol\":8160:8166  voters */\n      0x09\n        /* \"contracts/Stakable-2.0.sol\":8160:8178  voters[msg.sender] */\n      0x20\n      swap1\n      dup2\n      mstore\n      0x40\n      dup1\n      dup4\n      keccak256\n        /* \"contracts/Stakable-2.0.sol\":8185:8194  _votingId */\n      sload(0x07)\n        /* \"contracts/Stakable-2.0.sol\":8160:8195  voters[msg.sender].voted[_votingId] */\n      dup5\n      mstore\n        /* \"contracts/Stakable-2.0.sol\":8160:8184  voters[msg.sender].voted */\n      0x01\n      add\n        /* \"contracts/Stakable-2.0.sol\":8160:8195  voters[msg.sender].voted[_votingId] */\n      swap1\n      swap2\n      mstore\n      swap1\n      keccak256\n        /* \"contracts/Stakable-2.0.sol\":8153:8195  delete voters[msg.sender].voted[_votingId] */\n      dup1\n      sload\n      not(0xff)\n      and\n      swap1\n      sstore\n        /* \"contracts/Stakable-2.0.sol\":8212:8234  user_stake.releaseTime */\n      0x60\n      dup3\n      add\n      mload\n        /* \"contracts/Stakable-2.0.sol\":8237:8252  block.timestamp */\n      timestamp\n      lt\n        /* \"contracts/Stakable-2.0.sol\":8208:8797  if (user_stake.releaseTime > block.timestamp) {... */\n      iszero\n      tag_233\n      jumpi\n        /* \"contracts/Stakable-2.0.sol\":8288:8310  uint256 amount_reduced */\n      0x00\n        /* \"contracts/Stakable-2.0.sol\":8329:8351  uint256 reward_reduced */\n      dup1\n        /* \"contracts/Stakable-2.0.sol\":8369:8424  _calculateStakingWithPenalty(user_stake.amount, reward) */\n      tag_234\n        /* \"contracts/Stakable-2.0.sol\":8398:8408  user_stake */\n      dup5\n        /* \"contracts/Stakable-2.0.sol\":8398:8415  user_stake.amount */\n      0x00\n      add\n      mload\n        /* \"contracts/Stakable-2.0.sol\":8417:8423  reward */\n      dup5\n        /* \"contracts/Stakable-2.0.sol\":8369:8397  _calculateStakingWithPenalty */\n      tag_235\n        /* \"contracts/Stakable-2.0.sol\":8369:8424  _calculateStakingWithPenalty(user_stake.amount, reward) */\n      jump\t// in\n    tag_234:\n        /* \"contracts/Stakable-2.0.sol\":8489:8502  token_address */\n      sload(0x0b)\n        /* \"contracts/Stakable-2.0.sol\":8269:8424  (... */\n      swap2\n      swap4\n      pop\n      swap2\n      pop\n        /* \"contracts/Stakable-2.0.sol\":8441:8599  SafeERC20.safeTransfer(... */\n      tag_236\n      swap1\n      sub(shl(0xa0, 0x01), 0x01)\n        /* \"contracts/Stakable-2.0.sol\":8489:8502  token_address */\n      and\n        /* \"contracts/Stakable-2.0.sol\":8522:8532  msg.sender */\n      caller\n        /* \"contracts/Stakable-2.0.sol\":8552:8583  amount_reduced + reward_reduced */\n      tag_178\n        /* \"contracts/Stakable-2.0.sol\":8269:8424  (... */\n      dup5\n      dup7\n        /* \"contracts/Stakable-2.0.sol\":8552:8583  amount_reduced + reward_reduced */\n      tag_143\n      jump\t// in\n        /* \"contracts/Stakable-2.0.sol\":8441:8599  SafeERC20.safeTransfer(... */\n    tag_236:\n        /* \"contracts/Stakable-2.0.sol\":8254:8611  {... */\n      pop\n      pop\n        /* \"contracts/Stakable-2.0.sol\":8208:8797  if (user_stake.releaseTime > block.timestamp) {... */\n      jump(tag_239)\n    tag_233:\n        /* \"contracts/Stakable-2.0.sol\":8680:8693  token_address */\n      sload(0x0b)\n        /* \"contracts/Stakable-2.0.sol\":8743:8760  user_stake.amount */\n      dup3\n      mload\n        /* \"contracts/Stakable-2.0.sol\":8632:8785  SafeERC20.safeTransfer(... */\n      tag_239\n      swap2\n      sub(shl(0xa0, 0x01), 0x01)\n        /* \"contracts/Stakable-2.0.sol\":8680:8693  token_address */\n      and\n      swap1\n        /* \"contracts/Stakable-2.0.sol\":8713:8723  msg.sender */\n      caller\n      swap1\n        /* \"contracts/Stakable-2.0.sol\":8743:8769  user_stake.amount + reward */\n      tag_178\n      swap1\n        /* \"contracts/Stakable-2.0.sol\":8763:8769  reward */\n      dup6\n      swap1\n        /* \"contracts/Stakable-2.0.sol\":8743:8769  user_stake.amount + reward */\n      tag_143\n      jump\t// in\n        /* \"contracts/Stakable-2.0.sol\":8632:8785  SafeERC20.safeTransfer(... */\n    tag_239:\n      pop\n      pop\n        /* \"@openzeppelin/contracts/security/ReentrancyGuard.sol\":1701:1702  1 */\n      0x01\n        /* \"@openzeppelin/contracts/security/ReentrancyGuard.sol\":2628:2635  _status */\n      0x00\n        /* \"@openzeppelin/contracts/security/ReentrancyGuard.sol\":2628:2650  _status = _NOT_ENTERED */\n      sstore\n        /* \"contracts/Stakable-2.0.sol\":7792:8804  function withdrawStake() external nonReentrant {... */\n      jump\t// out\n        /* \"contracts/Stakable-2.0.sol\":9979:10071  function startAirdrop() external onlyOwner {... */\n    tag_106:\n        /* \"@openzeppelin/contracts/access/Ownable.sol\":1108:1114  _owner */\n      and(sub(shl(0xa0, 0x01), 0x01), sload(0x01))\n        /* \"@openzeppelin/contracts/utils/Context.sol\":719:729  msg.sender */\n      caller\n        /* \"@openzeppelin/contracts/access/Ownable.sol\":1248:1271  owner() == _msgSender() */\n      eq\n        /* \"@openzeppelin/contracts/access/Ownable.sol\":1240:1308  require(owner() == _msgSender(), \"Ownable: caller is not the owner\") */\n      tag_245\n      jumpi\n      mload(0x40)\n      shl(0xe5, 0x461bcd)\n      dup2\n      mstore\n        /* \"#utility.yul\":3938:3940   */\n      0x20\n        /* \"@openzeppelin/contracts/access/Ownable.sol\":1240:1308  require(owner() == _msgSender(), \"Ownable: caller is not the owner\") */\n      0x04\n      dup3\n      add\n        /* \"#utility.yul\":3920:3941   */\n      dup2\n      swap1\n      mstore\n        /* \"#utility.yul\":3957:3975   */\n      0x24\n      dup3\n      add\n        /* \"#utility.yul\":3950:3980   */\n      mstore\n        /* \"#utility.yul\":4016:4050   */\n      0x4f776e61626c653a2063616c6c6572206973206e6f7420746865206f776e6572\n        /* \"#utility.yul\":3996:4014   */\n      0x44\n      dup3\n      add\n        /* \"#utility.yul\":3989:4051   */\n      mstore\n        /* \"#utility.yul\":4068:4086   */\n      0x64\n      add\n        /* \"@openzeppelin/contracts/access/Ownable.sol\":1240:1308  require(owner() == _msgSender(), \"Ownable: caller is not the owner\") */\n      tag_117\n        /* \"#utility.yul\":3736:4092   */\n      jump\n        /* \"@openzeppelin/contracts/access/Ownable.sol\":1240:1308  require(owner() == _msgSender(), \"Ownable: caller is not the owner\") */\n    tag_245:\n        /* \"contracts/Stakable-2.0.sol\":10048:10063  block.timestamp */\n      timestamp\n        /* \"contracts/Stakable-2.0.sol\":10033:10045  airdropSince */\n      0x05\n        /* \"contracts/Stakable-2.0.sol\":10033:10063  airdropSince = block.timestamp */\n      sstore\n        /* \"contracts/Stakable-2.0.sol\":9979:10071  function startAirdrop() external onlyOwner {... */\n      jump\t// out\n        /* \"contracts/Stakable-2.0.sol\":10079:10319  function changeAirdropPercentage(uint256 amount) external onlyOwner {... */\n    tag_109:\n        /* \"@openzeppelin/contracts/access/Ownable.sol\":1108:1114  _owner */\n      and(sub(shl(0xa0, 0x01), 0x01), sload(0x01))\n        /* \"@openzeppelin/contracts/utils/Context.sol\":719:729  msg.sender */\n      caller\n        /* \"@openzeppelin/contracts/access/Ownable.sol\":1248:1271  owner() == _msgSender() */\n      eq\n        /* \"@openzeppelin/contracts/access/Ownable.sol\":1240:1308  require(owner() == _msgSender(), \"Ownable: caller is not the owner\") */\n      tag_251\n      jumpi\n      mload(0x40)\n      shl(0xe5, 0x461bcd)\n      dup2\n      mstore\n        /* \"#utility.yul\":3938:3940   */\n      0x20\n        /* \"@openzeppelin/contracts/access/Ownable.sol\":1240:1308  require(owner() == _msgSender(), \"Ownable: caller is not the owner\") */\n      0x04\n      dup3\n      add\n        /* \"#utility.yul\":3920:3941   */\n      dup2\n      swap1\n      mstore\n        /* \"#utility.yul\":3957:3975   */\n      0x24\n      dup3\n      add\n        /* \"#utility.yul\":3950:3980   */\n      mstore\n        /* \"#utility.yul\":4016:4050   */\n      0x4f776e61626c653a2063616c6c6572206973206e6f7420746865206f776e6572\n        /* \"#utility.yul\":3996:4014   */\n      0x44\n      dup3\n      add\n        /* \"#utility.yul\":3989:4051   */\n      mstore\n        /* \"#utility.yul\":4068:4086   */\n      0x64\n      add\n        /* \"@openzeppelin/contracts/access/Ownable.sol\":1240:1308  require(owner() == _msgSender(), \"Ownable: caller is not the owner\") */\n      tag_117\n        /* \"#utility.yul\":3736:4092   */\n      jump\n        /* \"@openzeppelin/contracts/access/Ownable.sol\":1240:1308  require(owner() == _msgSender(), \"Ownable: caller is not the owner\") */\n    tag_251:\n        /* \"contracts/Stakable-2.0.sol\":10171:10174  200 */\n      0xc8\n        /* \"contracts/Stakable-2.0.sol\":10162:10168  amount */\n      dup2\n        /* \"contracts/Stakable-2.0.sol\":10162:10174  amount > 200 */\n      gt\n        /* \"contracts/Stakable-2.0.sol\":10158:10243  if (amount > 200) {... */\n      iszero\n      tag_254\n      jumpi\n        /* \"contracts/Stakable-2.0.sol\":10198:10231  Staking__airdropExceed20Percent() */\n      mload(0x40)\n      0xa552cf1000000000000000000000000000000000000000000000000000000000\n      dup2\n      mstore\n      0x04\n      add\n      mload(0x40)\n      dup1\n      swap2\n      sub\n      swap1\n      revert\n        /* \"contracts/Stakable-2.0.sol\":10158:10243  if (amount > 200) {... */\n    tag_254:\n        /* \"contracts/Stakable-2.0.sol\":10253:10264  airdropRate */\n      0x04\n        /* \"contracts/Stakable-2.0.sol\":10253:10273  airdropRate = amount */\n      dup2\n      swap1\n      sstore\n        /* \"contracts/Stakable-2.0.sol\":10289:10311  AirdropChanged(amount) */\n      mload(0x40)\n        /* \"#utility.yul\":1575:1600   */\n      dup2\n      dup2\n      mstore\n        /* \"contracts/Stakable-2.0.sol\":10289:10311  AirdropChanged(amount) */\n      0xcc672f1026b958c0cfbfdd89ebe8ddcbc127f16ec24da6c2c7a4de26a8b1857e\n      swap1\n        /* \"#utility.yul\":1563:1565   */\n      0x20\n        /* \"#utility.yul\":1548:1566   */\n      add\n        /* \"contracts/Stakable-2.0.sol\":10289:10311  AirdropChanged(amount) */\n      tag_222\n        /* \"#utility.yul\":1429:1606   */\n      jump\n        /* \"@openzeppelin/contracts/access/Ownable.sol\":1918:2116  function transferOwnership(address newOwner) public virtual onlyOwner {... */\n    tag_112:\n        /* \"@openzeppelin/contracts/access/Ownable.sol\":1108:1114  _owner */\n      and(sub(shl(0xa0, 0x01), 0x01), sload(0x01))\n        /* \"@openzeppelin/contracts/utils/Context.sol\":719:729  msg.sender */\n      caller\n        /* \"@openzeppelin/contracts/access/Ownable.sol\":1248:1271  owner() == _msgSender() */\n      eq\n        /* \"@openzeppelin/contracts/access/Ownable.sol\":1240:1308  require(owner() == _msgSender(), \"Ownable: caller is not the owner\") */\n      tag_259\n      jumpi\n      mload(0x40)\n      shl(0xe5, 0x461bcd)\n      dup2\n      mstore\n        /* \"#utility.yul\":3938:3940   */\n      0x20\n        /* \"@openzeppelin/contracts/access/Ownable.sol\":1240:1308  require(owner() == _msgSender(), \"Ownable: caller is not the owner\") */\n      0x04\n      dup3\n      add\n        /* \"#utility.yul\":3920:3941   */\n      dup2\n      swap1\n      mstore\n        /* \"#utility.yul\":3957:3975   */\n      0x24\n      dup3\n      add\n        /* \"#utility.yul\":3950:3980   */\n      mstore\n        /* \"#utility.yul\":4016:4050   */\n      0x4f776e61626c653a2063616c6c6572206973206e6f7420746865206f776e6572\n        /* \"#utility.yul\":3996:4014   */\n      0x44\n      dup3\n      add\n        /* \"#utility.yul\":3989:4051   */\n      mstore\n        /* \"#utility.yul\":4068:4086   */\n      0x64\n      add\n        /* \"@openzeppelin/contracts/access/Ownable.sol\":1240:1308  require(owner() == _msgSender(), \"Ownable: caller is not the owner\") */\n      tag_117\n        /* \"#utility.yul\":3736:4092   */\n      jump\n        /* \"@openzeppelin/contracts/access/Ownable.sol\":1240:1308  require(owner() == _msgSender(), \"Ownable: caller is not the owner\") */\n    tag_259:\n      sub(shl(0xa0, 0x01), 0x01)\n        /* \"@openzeppelin/contracts/access/Ownable.sol\":2006:2028  newOwner != address(0) */\n      dup2\n      and\n        /* \"@openzeppelin/contracts/access/Ownable.sol\":1998:2071  require(newOwner != address(0), \"Ownable: new owner is the zero address\") */\n      tag_262\n      jumpi\n      mload(0x40)\n      shl(0xe5, 0x461bcd)\n      dup2\n      mstore\n        /* \"#utility.yul\":4623:4625   */\n      0x20\n        /* \"@openzeppelin/contracts/access/Ownable.sol\":1998:2071  require(newOwner != address(0), \"Ownable: new owner is the zero address\") */\n      0x04\n      dup3\n      add\n        /* \"#utility.yul\":4605:4626   */\n      mstore\n        /* \"#utility.yul\":4662:4664   */\n      0x26\n        /* \"#utility.yul\":4642:4660   */\n      0x24\n      dup3\n      add\n        /* \"#utility.yul\":4635:4665   */\n      mstore\n        /* \"#utility.yul\":4701:4735   */\n      0x4f776e61626c653a206e6577206f776e657220697320746865207a65726f2061\n        /* \"#utility.yul\":4681:4699   */\n      0x44\n      dup3\n      add\n        /* \"#utility.yul\":4674:4736   */\n      mstore\n        /* \"#utility.yul\":4772:4780   */\n      0x6464726573730000000000000000000000000000000000000000000000000000\n        /* \"#utility.yul\":4752:4770   */\n      0x64\n      dup3\n      add\n        /* \"#utility.yul\":4745:4781   */\n      mstore\n        /* \"#utility.yul\":4798:4817   */\n      0x84\n      add\n        /* \"@openzeppelin/contracts/access/Ownable.sol\":1998:2071  require(newOwner != address(0), \"Ownable: new owner is the zero address\") */\n      tag_117\n        /* \"#utility.yul\":4421:4823   */\n      jump\n        /* \"@openzeppelin/contracts/access/Ownable.sol\":1998:2071  require(newOwner != address(0), \"Ownable: new owner is the zero address\") */\n    tag_262:\n        /* \"@openzeppelin/contracts/access/Ownable.sol\":2081:2109  _transferOwnership(newOwner) */\n      tag_265\n        /* \"@openzeppelin/contracts/access/Ownable.sol\":2100:2108  newOwner */\n      dup2\n        /* \"@openzeppelin/contracts/access/Ownable.sol\":2081:2099  _transferOwnership */\n      tag_200\n        /* \"@openzeppelin/contracts/access/Ownable.sol\":2081:2109  _transferOwnership(newOwner) */\n      jump\t// in\n    tag_265:\n        /* \"@openzeppelin/contracts/access/Ownable.sol\":1918:2116  function transferOwnership(address newOwner) public virtual onlyOwner {... */\n      pop\n      jump\t// out\n        /* \"contracts/Stakable-2.0.sol\":12994:13092  function stopVoting() external onlyOwner votingStatusTrue {... */\n    tag_114:\n        /* \"@openzeppelin/contracts/access/Ownable.sol\":1108:1114  _owner */\n      and(sub(shl(0xa0, 0x01), 0x01), sload(0x01))\n        /* \"@openzeppelin/contracts/utils/Context.sol\":719:729  msg.sender */\n      caller\n        /* \"@openzeppelin/contracts/access/Ownable.sol\":1248:1271  owner() == _msgSender() */\n      eq\n        /* \"@openzeppelin/contracts/access/Ownable.sol\":1240:1308  require(owner() == _msgSender(), \"Ownable: caller is not the owner\") */\n      tag_269\n      jumpi\n      mload(0x40)\n      shl(0xe5, 0x461bcd)\n      dup2\n      mstore\n        /* \"#utility.yul\":3938:3940   */\n      0x20\n        /* \"@openzeppelin/contracts/access/Ownable.sol\":1240:1308  require(owner() == _msgSender(), \"Ownable: caller is not the owner\") */\n      0x04\n      dup3\n      add\n        /* \"#utility.yul\":3920:3941   */\n      dup2\n      swap1\n      mstore\n        /* \"#utility.yul\":3957:3975   */\n      0x24\n      dup3\n      add\n        /* \"#utility.yul\":3950:3980   */\n      mstore\n        /* \"#utility.yul\":4016:4050   */\n      0x4f776e61626c653a2063616c6c6572206973206e6f7420746865206f776e6572\n        /* \"#utility.yul\":3996:4014   */\n      0x44\n      dup3\n      add\n        /* \"#utility.yul\":3989:4051   */\n      mstore\n        /* \"#utility.yul\":4068:4086   */\n      0x64\n      add\n        /* \"@openzeppelin/contracts/access/Ownable.sol\":1240:1308  require(owner() == _msgSender(), \"Ownable: caller is not the owner\") */\n      tag_117\n        /* \"#utility.yul\":3736:4092   */\n      jump\n        /* \"@openzeppelin/contracts/access/Ownable.sol\":1240:1308  require(owner() == _msgSender(), \"Ownable: caller is not the owner\") */\n    tag_269:\n        /* \"contracts/Stakable-2.0.sol\":4093:4113  _checkVotingStatus() */\n      tag_272\n        /* \"contracts/Stakable-2.0.sol\":4093:4111  _checkVotingStatus */\n      tag_121\n        /* \"contracts/Stakable-2.0.sol\":4093:4113  _checkVotingStatus() */\n      jump\t// in\n    tag_272:\n        /* \"contracts/Stakable-2.0.sol\":13063:13076  _votingStatus */\n      0x06\n        /* \"contracts/Stakable-2.0.sol\":13063:13084  _votingStatus = false */\n      dup1\n      sload\n      not(0xff)\n      and\n      swap1\n      sstore\n        /* \"contracts/Stakable-2.0.sol\":12994:13092  function stopVoting() external onlyOwner votingStatusTrue {... */\n      jump\t// out\n        /* \"contracts/Stakable-2.0.sol\":3837:4046  function _checkVotingStatus() internal view {... */\n    tag_121:\n        /* \"contracts/Stakable-2.0.sol\":3960:3973  _votingStatus */\n      and(0xff, sload(0x06))\n        /* \"contracts/Stakable-2.0.sol\":3955:4039  if (!_votingStatus) {... */\n      tag_199\n      jumpi\n        /* \"contracts/Stakable-2.0.sol\":3997:4027  Function__votingNotAvailable() */\n      mload(0x40)\n      0xa1d1891400000000000000000000000000000000000000000000000000000000\n      dup2\n      mstore\n      0x04\n      add\n      mload(0x40)\n      dup1\n      swap2\n      sub\n      swap1\n      revert\n        /* \"contracts/Stakable-2.0.sol\":3525:3761  function _isVoter() internal view {... */\n    tag_124:\n        /* \"contracts/Stakable-2.0.sol\":3665:3675  msg.sender */\n      caller\n        /* \"contracts/Stakable-2.0.sol\":3658:3676  voters[msg.sender] */\n      0x00\n      swap1\n      dup2\n      mstore\n        /* \"contracts/Stakable-2.0.sol\":3658:3664  voters */\n      0x09\n        /* \"contracts/Stakable-2.0.sol\":3658:3676  voters[msg.sender] */\n      0x20\n      mstore\n      0x40\n      swap1\n      keccak256\n        /* \"contracts/Stakable-2.0.sol\":3658:3688  voters[msg.sender].votingRight */\n      sload\n      0xff\n      and\n        /* \"contracts/Stakable-2.0.sol\":3654:3754  if (voters[msg.sender].votingRight == false) {... */\n      tag_199\n      jumpi\n        /* \"contracts/Stakable-2.0.sol\":3721:3742  Function__notAVoter() */\n      mload(0x40)\n      0x1e567dd400000000000000000000000000000000000000000000000000000000\n      dup2\n      mstore\n      0x04\n      add\n      mload(0x40)\n      dup1\n      swap2\n      sub\n      swap1\n      revert\n        /* \"contracts/Stakable-2.0.sol\":6496:6946  function _calculateStakeReward(Stake memory user_stake)... */\n    tag_134:\n        /* \"contracts/Stakable-2.0.sol\":6631:6648  user_stake.amount */\n      dup1\n      mload\n        /* \"contracts/Stakable-2.0.sol\":6602:6609  uint256 */\n      0x00\n      swap1\n        /* \"contracts/Stakable-2.0.sol\":6627:6690  if (user_stake.amount == 0) {... */\n      tag_279\n      jumpi\n      pop\n        /* \"contracts/Stakable-2.0.sol\":6677:6678  0 */\n      0x00\n      swap2\n        /* \"contracts/Stakable-2.0.sol\":6496:6946  function _calculateStakeReward(Stake memory user_stake)... */\n      swap1\n      pop\n      jump\t// out\n        /* \"contracts/Stakable-2.0.sol\":6627:6690  if (user_stake.amount == 0) {... */\n    tag_279:\n        /* \"contracts/Stakable-2.0.sol\":6934:6938  1e26 */\n      0x52b7d2dcc80cd2e4000000\n        /* \"contracts/Stakable-2.0.sol\":6887:6930  _calculateStakingDuration(user_stake.since) */\n      tag_280\n        /* \"contracts/Stakable-2.0.sol\":6913:6923  user_stake */\n      dup4\n        /* \"contracts/Stakable-2.0.sol\":6913:6929  user_stake.since */\n      0x20\n      add\n      mload\n        /* \"contracts/Stakable-2.0.sol\":6887:6912  _calculateStakingDuration */\n      tag_281\n        /* \"contracts/Stakable-2.0.sol\":6887:6930  _calculateStakingDuration(user_stake.since) */\n      jump\t// in\n    tag_280:\n        /* \"contracts/Stakable-2.0.sol\":6847:6867  user_stake.rewardAPY */\n      0x40\n      dup5\n      add\n      mload\n        /* \"contracts/Stakable-2.0.sol\":6810:6827  user_stake.amount */\n      dup5\n      mload\n        /* \"contracts/Stakable-2.0.sol\":6810:6867  user_stake.amount *... */\n      tag_282\n      swap2\n        /* \"contracts/Stakable-2.0.sol\":6847:6867  user_stake.rewardAPY */\n      swap1\n        /* \"contracts/Stakable-2.0.sol\":6810:6867  user_stake.amount *... */\n      tag_137\n      jump\t// in\n    tag_282:\n        /* \"contracts/Stakable-2.0.sol\":6810:6930  user_stake.amount *... */\n      tag_225\n      swap2\n      swap1\n      tag_137\n      jump\t// in\n        /* \"contracts/Stakable-2.0.sol\":10577:10762  function _calculateAirdrop(uint256 stakeAmount)... */\n    tag_147:\n        /* \"contracts/Stakable-2.0.sol\":10675:10682  uint256 */\n      0x00\n        /* \"contracts/Stakable-2.0.sol\":10746:10754  52 weeks */\n      0x01dfe200\n        /* \"contracts/Stakable-2.0.sol\":10738:10742  1000 */\n      0x03e8\n        /* \"contracts/Stakable-2.0.sol\":10723:10734  airdropRate */\n      sload(0x04)\n        /* \"contracts/Stakable-2.0.sol\":10709:10720  stakeAmount */\n      dup5\n        /* \"contracts/Stakable-2.0.sol\":10709:10734  stakeAmount * airdropRate */\n      tag_286\n      swap2\n      swap1\n      tag_137\n      jump\t// in\n    tag_286:\n        /* \"contracts/Stakable-2.0.sol\":10708:10742  (stakeAmount * airdropRate) / 1000 */\n      tag_225\n      swap2\n      swap1\n      tag_139\n      jump\t// in\n        /* \"@openzeppelin/contracts/token/ERC20/utils/SafeERC20.sol\":701:906  function safeTransfer(... */\n    tag_179:\n        /* \"@openzeppelin/contracts/token/ERC20/utils/SafeERC20.sol\":840:898  abi.encodeWithSelector(token.transfer.selector, to, value) */\n      mload(0x40)\n      sub(shl(0xa0, 0x01), 0x01)\n        /* \"#utility.yul\":5020:5075   */\n      dup4\n      and\n        /* \"@openzeppelin/contracts/token/ERC20/utils/SafeERC20.sol\":840:898  abi.encodeWithSelector(token.transfer.selector, to, value) */\n      0x24\n      dup3\n      add\n        /* \"#utility.yul\":5002:5076   */\n      mstore\n        /* \"#utility.yul\":5092:5110   */\n      0x44\n      dup2\n      add\n        /* \"#utility.yul\":5085:5119   */\n      dup3\n      swap1\n      mstore\n        /* \"@openzeppelin/contracts/token/ERC20/utils/SafeERC20.sol\":813:899  _callOptionalReturn(token, abi.encodeWithSelector(token.transfer.selector, to, value)) */\n      tag_291\n      swap1\n        /* \"@openzeppelin/contracts/token/ERC20/utils/SafeERC20.sol\":833:838  token */\n      dup5\n      swap1\n        /* \"@openzeppelin/contracts/token/ERC20/utils/SafeERC20.sol\":863:886  token.transfer.selector */\n      0xa9059cbb00000000000000000000000000000000000000000000000000000000\n      swap1\n        /* \"#utility.yul\":4975:4993   */\n      0x64\n      add\n        /* \"@openzeppelin/contracts/token/ERC20/utils/SafeERC20.sol\":840:898  abi.encodeWithSelector(token.transfer.selector, to, value) */\n    tag_292:\n      0x40\n      dup1\n      mload\n      not(0x1f)\n      dup2\n      dup5\n      sub\n      add\n      dup2\n      mstore\n      swap2\n      swap1\n      mstore\n      0x20\n      dup2\n      add\n      dup1\n      mload\n      0xffffffffffffffffffffffffffffffffffffffffffffffffffffffff\n      and\n      0xffffffff00000000000000000000000000000000000000000000000000000000\n      swap1\n      swap4\n      and\n      swap3\n      swap1\n      swap3\n      or\n      swap1\n      swap2\n      mstore\n        /* \"@openzeppelin/contracts/token/ERC20/utils/SafeERC20.sol\":813:832  _callOptionalReturn */\n      tag_294\n        /* \"@openzeppelin/contracts/token/ERC20/utils/SafeERC20.sol\":813:899  _callOptionalReturn(token, abi.encodeWithSelector(token.transfer.selector, to, value)) */\n      jump\t// in\n    tag_291:\n        /* \"@openzeppelin/contracts/token/ERC20/utils/SafeERC20.sol\":701:906  function safeTransfer(... */\n      pop\n      pop\n      pop\n      jump\t// out\n        /* \"@openzeppelin/contracts/access/Ownable.sol\":2270:2457  function _transferOwnership(address newOwner) internal virtual {... */\n    tag_200:\n        /* \"@openzeppelin/contracts/access/Ownable.sol\":2362:2368  _owner */\n      0x01\n      dup1\n      sload\n      sub(shl(0xa0, 0x01), 0x01)\n        /* \"@openzeppelin/contracts/access/Ownable.sol\":2378:2395  _owner = newOwner */\n      dup4\n      dup2\n      and\n      0xffffffffffffffffffffffff0000000000000000000000000000000000000000\n      dup4\n      and\n      dup2\n      or\n      swap1\n      swap4\n      sstore\n        /* \"@openzeppelin/contracts/access/Ownable.sol\":2410:2450  OwnershipTransferred(oldOwner, newOwner) */\n      mload(0x40)\n        /* \"@openzeppelin/contracts/access/Ownable.sol\":2362:2368  _owner */\n      swap2\n      and\n      swap2\n        /* \"@openzeppelin/contracts/access/Ownable.sol\":2378:2395  _owner = newOwner */\n      swap1\n        /* \"@openzeppelin/contracts/access/Ownable.sol\":2362:2368  _owner */\n      dup3\n      swap1\n        /* \"@openzeppelin/contracts/access/Ownable.sol\":2410:2450  OwnershipTransferred(oldOwner, newOwner) */\n      0x8be0079c531659141344cd1fd0a4f28419497f9722a3daafe3b4186f6b6457e0\n      swap1\n        /* \"@openzeppelin/contracts/access/Ownable.sol\":2343:2359  address oldOwner */\n      0x00\n      swap1\n        /* \"@openzeppelin/contracts/access/Ownable.sol\":2410:2450  OwnershipTransferred(oldOwner, newOwner) */\n      log3\n        /* \"@openzeppelin/contracts/access/Ownable.sol\":2333:2457  {... */\n      pop\n        /* \"@openzeppelin/contracts/access/Ownable.sol\":2270:2457  function _transferOwnership(address newOwner) internal virtual {... */\n      pop\n      jump\t// out\n        /* \"@openzeppelin/contracts/token/ERC20/utils/SafeERC20.sol\":912:1153  function safeTransferFrom(... */\n    tag_211:\n        /* \"@openzeppelin/contracts/token/ERC20/utils/SafeERC20.sol\":1077:1145  abi.encodeWithSelector(token.transferFrom.selector, from, to, value) */\n      mload(0x40)\n      sub(shl(0xa0, 0x01), 0x01)\n        /* \"#utility.yul\":5411:5426   */\n      dup1\n      dup6\n      and\n        /* \"@openzeppelin/contracts/token/ERC20/utils/SafeERC20.sol\":1077:1145  abi.encodeWithSelector(token.transferFrom.selector, from, to, value) */\n      0x24\n      dup4\n      add\n        /* \"#utility.yul\":5393:5427   */\n      mstore\n        /* \"#utility.yul\":5463:5478   */\n      dup4\n      and\n        /* \"#utility.yul\":5443:5461   */\n      0x44\n      dup3\n      add\n        /* \"#utility.yul\":5436:5479   */\n      mstore\n        /* \"#utility.yul\":5495:5513   */\n      0x64\n      dup2\n      add\n        /* \"#utility.yul\":5488:5522   */\n      dup3\n      swap1\n      mstore\n        /* \"@openzeppelin/contracts/token/ERC20/utils/SafeERC20.sol\":1050:1146  _callOptionalReturn(token, abi.encodeWithSelector(token.transferFrom.selector, from, to, value)) */\n      tag_297\n      swap1\n        /* \"@openzeppelin/contracts/token/ERC20/utils/SafeERC20.sol\":1070:1075  token */\n      dup6\n      swap1\n        /* \"@openzeppelin/contracts/token/ERC20/utils/SafeERC20.sol\":1100:1127  token.transferFrom.selector */\n      0x23b872dd00000000000000000000000000000000000000000000000000000000\n      swap1\n        /* \"#utility.yul\":5305:5323   */\n      0x84\n      add\n        /* \"@openzeppelin/contracts/token/ERC20/utils/SafeERC20.sol\":1077:1145  abi.encodeWithSelector(token.transferFrom.selector, from, to, value) */\n      tag_292\n        /* \"#utility.yul\":5130:5528   */\n      jump\n        /* \"@openzeppelin/contracts/token/ERC20/utils/SafeERC20.sol\":1050:1146  _callOptionalReturn(token, abi.encodeWithSelector(token.transferFrom.selector, from, to, value)) */\n    tag_297:\n        /* \"@openzeppelin/contracts/token/ERC20/utils/SafeERC20.sol\":912:1153  function safeTransferFrom(... */\n      pop\n      pop\n      pop\n      pop\n      jump\t// out\n        /* \"contracts/Stakable-2.0.sol\":6954:7325  function _calculateStakingWithPenalty(uint256 amount, uint256 reward)... */\n    tag_235:\n        /* \"contracts/Stakable-2.0.sol\":7074:7081  uint256 */\n      0x00\n      dup1\n        /* \"contracts/Stakable-2.0.sol\":7112:7123  amount == 0 */\n      dup4\n        /* \"contracts/Stakable-2.0.sol\":7108:7165  if (amount == 0) {... */\n      tag_301\n      jumpi\n      pop\n        /* \"contracts/Stakable-2.0.sol\":7148:7149  0 */\n      0x00\n      swap1\n      pop\n      dup1\n        /* \"contracts/Stakable-2.0.sol\":7140:7153  return (0, 0) */\n      jump(tag_300)\n        /* \"contracts/Stakable-2.0.sol\":7108:7165  if (amount == 0) {... */\n    tag_301:\n        /* \"contracts/Stakable-2.0.sol\":7239:7243  1000 */\n      0x03e8\n        /* \"contracts/Stakable-2.0.sol\":7217:7235  stakingPenaltyRate */\n      sload(0x03)\n        /* \"contracts/Stakable-2.0.sol\":7208:7214  amount */\n      dup6\n        /* \"contracts/Stakable-2.0.sol\":7208:7235  amount * stakingPenaltyRate */\n      tag_302\n      swap2\n      swap1\n      tag_137\n      jump\t// in\n    tag_302:\n        /* \"contracts/Stakable-2.0.sol\":7207:7243  (amount * stakingPenaltyRate) / 1000 */\n      tag_303\n      swap2\n      swap1\n      tag_139\n      jump\t// in\n    tag_303:\n        /* \"contracts/Stakable-2.0.sol\":7197:7244  amount - ((amount * stakingPenaltyRate) / 1000) */\n      tag_304\n      swap1\n        /* \"contracts/Stakable-2.0.sol\":7197:7203  amount */\n      dup6\n        /* \"contracts/Stakable-2.0.sol\":7197:7244  amount - ((amount * stakingPenaltyRate) / 1000) */\n      tag_128\n      jump\t// in\n    tag_304:\n        /* \"contracts/Stakable-2.0.sol\":7301:7305  1000 */\n      0x03e8\n        /* \"contracts/Stakable-2.0.sol\":7279:7297  stakingPenaltyRate */\n      sload(0x03)\n        /* \"contracts/Stakable-2.0.sol\":7270:7276  reward */\n      dup6\n        /* \"contracts/Stakable-2.0.sol\":7270:7297  reward * stakingPenaltyRate */\n      tag_305\n      swap2\n      swap1\n      tag_137\n      jump\t// in\n    tag_305:\n        /* \"contracts/Stakable-2.0.sol\":7269:7305  (reward * stakingPenaltyRate) / 1000 */\n      tag_306\n      swap2\n      swap1\n      tag_139\n      jump\t// in\n    tag_306:\n        /* \"contracts/Stakable-2.0.sol\":7259:7306  reward - ((reward * stakingPenaltyRate) / 1000) */\n      tag_307\n      swap1\n        /* \"contracts/Stakable-2.0.sol\":7259:7265  reward */\n      dup6\n        /* \"contracts/Stakable-2.0.sol\":7259:7306  reward - ((reward * stakingPenaltyRate) / 1000) */\n      tag_128\n      jump\t// in\n    tag_307:\n        /* \"contracts/Stakable-2.0.sol\":7175:7317  return (... */\n      swap2\n      pop\n      swap2\n      pop\n        /* \"contracts/Stakable-2.0.sol\":6954:7325  function _calculateStakingWithPenalty(uint256 amount, uint256 reward)... */\n    tag_300:\n      swap3\n      pop\n      swap3\n      swap1\n      pop\n      jump\t// out\n        /* \"contracts/Stakable-2.0.sol\":6250:6488  function _calculateStakingDuration(uint256 since)... */\n    tag_281:\n        /* \"contracts/Stakable-2.0.sol\":6350:6357  uint256 */\n      0x00\n        /* \"contracts/Stakable-2.0.sol\":6472:6480  365 days */\n      0x01e13380\n        /* \"contracts/Stakable-2.0.sol\":6437:6460  block.timestamp - since */\n      tag_309\n        /* \"contracts/Stakable-2.0.sol\":6455:6460  since */\n      dup4\n        /* \"contracts/Stakable-2.0.sol\":6437:6452  block.timestamp */\n      timestamp\n        /* \"contracts/Stakable-2.0.sol\":6437:6460  block.timestamp - since */\n      tag_128\n      jump\t// in\n    tag_309:\n        /* \"contracts/Stakable-2.0.sol\":6436:6468  (block.timestamp - since) * 1e24 */\n      tag_225\n      swap1\n        /* \"contracts/Stakable-2.0.sol\":6464:6468  1e24 */\n      0xd3c21bcecceda1000000\n        /* \"contracts/Stakable-2.0.sol\":6436:6468  (block.timestamp - since) * 1e24 */\n      tag_137\n      jump\t// in\n        /* \"@openzeppelin/contracts/token/ERC20/utils/SafeERC20.sol\":3207:3913  function _callOptionalReturn(IERC20 token, bytes memory data) private {... */\n    tag_294:\n        /* \"@openzeppelin/contracts/token/ERC20/utils/SafeERC20.sol\":3626:3649  bytes memory returndata */\n      0x00\n        /* \"@openzeppelin/contracts/token/ERC20/utils/SafeERC20.sol\":3652:3721  address(token).functionCall(data, \"SafeERC20: low-level call failed\") */\n      tag_313\n        /* \"@openzeppelin/contracts/token/ERC20/utils/SafeERC20.sol\":3680:3684  data */\n      dup3\n        /* \"@openzeppelin/contracts/token/ERC20/utils/SafeERC20.sol\":3652:3721  address(token).functionCall(data, \"SafeERC20: low-level call failed\") */\n      mload(0x40)\n      dup1\n      0x40\n      add\n      0x40\n      mstore\n      dup1\n      0x20\n      dup2\n      mstore\n      0x20\n      add\n      0x5361666545524332303a206c6f772d6c6576656c2063616c6c206661696c6564\n      dup2\n      mstore\n      pop\n        /* \"@openzeppelin/contracts/token/ERC20/utils/SafeERC20.sol\":3660:3665  token */\n      dup6\n      sub(shl(0xa0, 0x01), 0x01)\n        /* \"@openzeppelin/contracts/token/ERC20/utils/SafeERC20.sol\":3652:3679  address(token).functionCall */\n      and\n      tag_314\n      swap1\n        /* \"@openzeppelin/contracts/token/ERC20/utils/SafeERC20.sol\":3652:3721  address(token).functionCall(data, \"SafeERC20: low-level call failed\") */\n      swap3\n      swap2\n      swap1\n      0xffffffff\n      and\n      jump\t// in\n    tag_313:\n        /* \"@openzeppelin/contracts/token/ERC20/utils/SafeERC20.sol\":3735:3752  returndata.length */\n      dup1\n      mload\n        /* \"@openzeppelin/contracts/token/ERC20/utils/SafeERC20.sol\":3626:3721  bytes memory returndata = address(token).functionCall(data, \"SafeERC20: low-level call failed\") */\n      swap1\n      swap2\n      pop\n        /* \"@openzeppelin/contracts/token/ERC20/utils/SafeERC20.sol\":3735:3756  returndata.length > 0 */\n      iszero\n        /* \"@openzeppelin/contracts/token/ERC20/utils/SafeERC20.sol\":3731:3907  if (returndata.length > 0) {... */\n      tag_291\n      jumpi\n        /* \"@openzeppelin/contracts/token/ERC20/utils/SafeERC20.sol\":3830:3840  returndata */\n      dup1\n        /* \"@openzeppelin/contracts/token/ERC20/utils/SafeERC20.sol\":3819:3849  abi.decode(returndata, (bool)) */\n      dup1\n      0x20\n      add\n      swap1\n      mload\n      dup2\n      add\n      swap1\n      tag_316\n      swap2\n      swap1\n      tag_317\n      jump\t// in\n    tag_316:\n        /* \"@openzeppelin/contracts/token/ERC20/utils/SafeERC20.sol\":3811:3896  require(abi.decode(returndata, (bool)), \"SafeERC20: ERC20 operation did not succeed\") */\n      tag_291\n      jumpi\n      mload(0x40)\n      shl(0xe5, 0x461bcd)\n      dup2\n      mstore\n        /* \"#utility.yul\":6017:6019   */\n      0x20\n        /* \"@openzeppelin/contracts/token/ERC20/utils/SafeERC20.sol\":3811:3896  require(abi.decode(returndata, (bool)), \"SafeERC20: ERC20 operation did not succeed\") */\n      0x04\n      dup3\n      add\n        /* \"#utility.yul\":5999:6020   */\n      mstore\n        /* \"#utility.yul\":6056:6058   */\n      0x2a\n        /* \"#utility.yul\":6036:6054   */\n      0x24\n      dup3\n      add\n        /* \"#utility.yul\":6029:6059   */\n      mstore\n        /* \"#utility.yul\":6095:6129   */\n      0x5361666545524332303a204552433230206f7065726174696f6e20646964206e\n        /* \"#utility.yul\":6075:6093   */\n      0x44\n      dup3\n      add\n        /* \"#utility.yul\":6068:6130   */\n      mstore\n        /* \"#utility.yul\":6166:6178   */\n      0x6f74207375636365656400000000000000000000000000000000000000000000\n        /* \"#utility.yul\":6146:6164   */\n      0x64\n      dup3\n      add\n        /* \"#utility.yul\":6139:6179   */\n      mstore\n        /* \"#utility.yul\":6196:6215   */\n      0x84\n      add\n        /* \"@openzeppelin/contracts/token/ERC20/utils/SafeERC20.sol\":3811:3896  require(abi.decode(returndata, (bool)), \"SafeERC20: ERC20 operation did not succeed\") */\n      tag_117\n        /* \"#utility.yul\":5815:6221   */\n      jump\n        /* \"@openzeppelin/contracts/utils/Address.sol\":3861:4084  function functionCall(... */\n    tag_314:\n        /* \"@openzeppelin/contracts/utils/Address.sol\":3994:4006  bytes memory */\n      0x60\n        /* \"@openzeppelin/contracts/utils/Address.sol\":4025:4077  functionCallWithValue(target, data, 0, errorMessage) */\n      tag_322\n        /* \"@openzeppelin/contracts/utils/Address.sol\":4047:4053  target */\n      dup5\n        /* \"@openzeppelin/contracts/utils/Address.sol\":4055:4059  data */\n      dup5\n        /* \"@openzeppelin/contracts/utils/Address.sol\":4061:4062  0 */\n      0x00\n        /* \"@openzeppelin/contracts/utils/Address.sol\":4064:4076  errorMessage */\n      dup6\n        /* \"@openzeppelin/contracts/utils/Address.sol\":4025:4046  functionCallWithValue */\n      tag_323\n        /* \"@openzeppelin/contracts/utils/Address.sol\":4025:4077  functionCallWithValue(target, data, 0, errorMessage) */\n      jump\t// in\n    tag_322:\n        /* \"@openzeppelin/contracts/utils/Address.sol\":4018:4077  return functionCallWithValue(target, data, 0, errorMessage) */\n      swap1\n      pop\n        /* \"@openzeppelin/contracts/utils/Address.sol\":3861:4084  function functionCall(... */\n    tag_321:\n      swap4\n      swap3\n      pop\n      pop\n      pop\n      jump\t// out\n        /* \"@openzeppelin/contracts/utils/Address.sol\":4948:5447  function functionCallWithValue(... */\n    tag_323:\n        /* \"@openzeppelin/contracts/utils/Address.sol\":5113:5125  bytes memory */\n      0x60\n        /* \"@openzeppelin/contracts/utils/Address.sol\":5170:5175  value */\n      dup3\n        /* \"@openzeppelin/contracts/utils/Address.sol\":5145:5166  address(this).balance */\n      selfbalance\n        /* \"@openzeppelin/contracts/utils/Address.sol\":5145:5175  address(this).balance >= value */\n      lt\n      iszero\n        /* \"@openzeppelin/contracts/utils/Address.sol\":5137:5218  require(address(this).balance >= value, \"Address: insufficient balance for call\") */\n      tag_325\n      jumpi\n      mload(0x40)\n      shl(0xe5, 0x461bcd)\n      dup2\n      mstore\n        /* \"#utility.yul\":6428:6430   */\n      0x20\n        /* \"@openzeppelin/contracts/utils/Address.sol\":5137:5218  require(address(this).balance >= value, \"Address: insufficient balance for call\") */\n      0x04\n      dup3\n      add\n        /* \"#utility.yul\":6410:6431   */\n      mstore\n        /* \"#utility.yul\":6467:6469   */\n      0x26\n        /* \"#utility.yul\":6447:6465   */\n      0x24\n      dup3\n      add\n        /* \"#utility.yul\":6440:6470   */\n      mstore\n        /* \"#utility.yul\":6506:6540   */\n      0x416464726573733a20696e73756666696369656e742062616c616e636520666f\n        /* \"#utility.yul\":6486:6504   */\n      0x44\n      dup3\n      add\n        /* \"#utility.yul\":6479:6541   */\n      mstore\n        /* \"#utility.yul\":6577:6585   */\n      0x722063616c6c0000000000000000000000000000000000000000000000000000\n        /* \"#utility.yul\":6557:6575   */\n      0x64\n      dup3\n      add\n        /* \"#utility.yul\":6550:6586   */\n      mstore\n        /* \"#utility.yul\":6603:6622   */\n      0x84\n      add\n        /* \"@openzeppelin/contracts/utils/Address.sol\":5137:5218  require(address(this).balance >= value, \"Address: insufficient balance for call\") */\n      tag_117\n        /* \"#utility.yul\":6226:6628   */\n      jump\n        /* \"@openzeppelin/contracts/utils/Address.sol\":5137:5218  require(address(this).balance >= value, \"Address: insufficient balance for call\") */\n    tag_325:\n      sub(shl(0xa0, 0x01), 0x01)\n        /* \"@openzeppelin/contracts/utils/Address.sol\":1465:1484  account.code.length */\n      dup6\n      and\n      extcodesize\n        /* \"@openzeppelin/contracts/utils/Address.sol\":5228:5288  require(isContract(target), \"Address: call to non-contract\") */\n      tag_330\n      jumpi\n      mload(0x40)\n      shl(0xe5, 0x461bcd)\n      dup2\n      mstore\n        /* \"#utility.yul\":6835:6837   */\n      0x20\n        /* \"@openzeppelin/contracts/utils/Address.sol\":5228:5288  require(isContract(target), \"Address: call to non-contract\") */\n      0x04\n      dup3\n      add\n        /* \"#utility.yul\":6817:6838   */\n      mstore\n        /* \"#utility.yul\":6874:6876   */\n      0x1d\n        /* \"#utility.yul\":6854:6872   */\n      0x24\n      dup3\n      add\n        /* \"#utility.yul\":6847:6877   */\n      mstore\n        /* \"#utility.yul\":6913:6944   */\n      0x416464726573733a2063616c6c20746f206e6f6e2d636f6e7472616374000000\n        /* \"#utility.yul\":6893:6911   */\n      0x44\n      dup3\n      add\n        /* \"#utility.yul\":6886:6945   */\n      mstore\n        /* \"#utility.yul\":6962:6980   */\n      0x64\n      add\n        /* \"@openzeppelin/contracts/utils/Address.sol\":5228:5288  require(isContract(target), \"Address: call to non-contract\") */\n      tag_117\n        /* \"#utility.yul\":6633:6986   */\n      jump\n        /* \"@openzeppelin/contracts/utils/Address.sol\":5228:5288  require(isContract(target), \"Address: call to non-contract\") */\n    tag_330:\n        /* \"@openzeppelin/contracts/utils/Address.sol\":5300:5312  bool success */\n      0x00\n        /* \"@openzeppelin/contracts/utils/Address.sol\":5314:5337  bytes memory returndata */\n      dup1\n        /* \"@openzeppelin/contracts/utils/Address.sol\":5341:5347  target */\n      dup7\n      sub(shl(0xa0, 0x01), 0x01)\n        /* \"@openzeppelin/contracts/utils/Address.sol\":5341:5352  target.call */\n      and\n        /* \"@openzeppelin/contracts/utils/Address.sol\":5360:5365  value */\n      dup6\n        /* \"@openzeppelin/contracts/utils/Address.sol\":5367:5371  data */\n      dup8\n        /* \"@openzeppelin/contracts/utils/Address.sol\":5341:5372  target.call{value: value}(data) */\n      mload(0x40)\n      tag_333\n      swap2\n      swap1\n      tag_334\n      jump\t// in\n    tag_333:\n      0x00\n      mload(0x40)\n      dup1\n      dup4\n      sub\n      dup2\n      dup6\n      dup8\n      gas\n      call\n      swap3\n      pop\n      pop\n      pop\n      returndatasize\n      dup1\n      0x00\n      dup2\n      eq\n      tag_337\n      jumpi\n      mload(0x40)\n      swap2\n      pop\n      and(add(returndatasize, 0x3f), not(0x1f))\n      dup3\n      add\n      0x40\n      mstore\n      returndatasize\n      dup3\n      mstore\n      returndatasize\n      0x00\n      0x20\n      dup5\n      add\n      returndatacopy\n      jump(tag_336)\n    tag_337:\n      0x60\n      swap2\n      pop\n    tag_336:\n      pop\n        /* \"@openzeppelin/contracts/utils/Address.sol\":5299:5372  (bool success, bytes memory returndata) = target.call{value: value}(data) */\n      swap2\n      pop\n      swap2\n      pop\n        /* \"@openzeppelin/contracts/utils/Address.sol\":5389:5440  verifyCallResult(success, returndata, errorMessage) */\n      tag_338\n        /* \"@openzeppelin/contracts/utils/Address.sol\":5406:5413  success */\n      dup3\n        /* \"@openzeppelin/contracts/utils/Address.sol\":5415:5425  returndata */\n      dup3\n        /* \"@openzeppelin/contracts/utils/Address.sol\":5427:5439  errorMessage */\n      dup7\n        /* \"@openzeppelin/contracts/utils/Address.sol\":5389:5405  verifyCallResult */\n      tag_339\n        /* \"@openzeppelin/contracts/utils/Address.sol\":5389:5440  verifyCallResult(success, returndata, errorMessage) */\n      jump\t// in\n    tag_338:\n        /* \"@openzeppelin/contracts/utils/Address.sol\":5382:5440  return verifyCallResult(success, returndata, errorMessage) */\n      swap8\n        /* \"@openzeppelin/contracts/utils/Address.sol\":4948:5447  function functionCallWithValue(... */\n      swap7\n      pop\n      pop\n      pop\n      pop\n      pop\n      pop\n      pop\n      jump\t// out\n        /* \"@openzeppelin/contracts/utils/Address.sol\":7561:8253  function verifyCallResult(... */\n    tag_339:\n        /* \"@openzeppelin/contracts/utils/Address.sol\":7707:7719  bytes memory */\n      0x60\n        /* \"@openzeppelin/contracts/utils/Address.sol\":7735:7742  success */\n      dup4\n        /* \"@openzeppelin/contracts/utils/Address.sol\":7731:8247  if (success) {... */\n      iszero\n      tag_342\n      jumpi\n      pop\n        /* \"@openzeppelin/contracts/utils/Address.sol\":7765:7775  returndata */\n      dup2\n        /* \"@openzeppelin/contracts/utils/Address.sol\":7758:7775  return returndata */\n      jump(tag_321)\n        /* \"@openzeppelin/contracts/utils/Address.sol\":7731:8247  if (success) {... */\n    tag_342:\n        /* \"@openzeppelin/contracts/utils/Address.sol\":7876:7893  returndata.length */\n      dup3\n      mload\n        /* \"@openzeppelin/contracts/utils/Address.sol\":7876:7897  returndata.length > 0 */\n      iszero\n        /* \"@openzeppelin/contracts/utils/Address.sol\":7872:8237  if (returndata.length > 0) {... */\n      tag_344\n      jumpi\n        /* \"@openzeppelin/contracts/utils/Address.sol\":8070:8080  returndata */\n      dup3\n        /* \"@openzeppelin/contracts/utils/Address.sol\":8064:8081  mload(returndata) */\n      mload\n        /* \"@openzeppelin/contracts/utils/Address.sol\":8130:8145  returndata_size */\n      dup1\n        /* \"@openzeppelin/contracts/utils/Address.sol\":8117:8127  returndata */\n      dup5\n        /* \"@openzeppelin/contracts/utils/Address.sol\":8113:8115  32 */\n      0x20\n        /* \"@openzeppelin/contracts/utils/Address.sol\":8109:8128  add(32, returndata) */\n      add\n        /* \"@openzeppelin/contracts/utils/Address.sol\":8102:8146  revert(add(32, returndata), returndata_size) */\n      revert\n        /* \"@openzeppelin/contracts/utils/Address.sol\":7872:8237  if (returndata.length > 0) {... */\n    tag_344:\n        /* \"@openzeppelin/contracts/utils/Address.sol\":8209:8221  errorMessage */\n      dup2\n        /* \"@openzeppelin/contracts/utils/Address.sol\":8202:8222  revert(errorMessage) */\n      mload(0x40)\n      shl(0xe5, 0x461bcd)\n      dup2\n      mstore\n      0x04\n      add\n      tag_117\n      swap2\n      swap1\n      tag_347\n      jump\t// in\n    tag_130:\n      mload(0x40)\n      dup1\n      0x60\n      add\n      0x40\n      mstore\n      dup1\n      0x00\n      dup2\n      mstore\n      0x20\n      add\n      0x00\n      dup2\n      mstore\n      0x20\n      add\n      tag_348\n      mload(0x40)\n      dup1\n      0xe0\n      add\n      0x40\n      mstore\n      dup1\n      0x00\n      dup2\n      mstore\n      0x20\n      add\n      0x00\n      dup2\n      mstore\n      0x20\n      add\n      0x00\n      dup2\n      mstore\n      0x20\n      add\n      0x00\n      dup2\n      mstore\n      0x20\n      add\n      0x00\n      dup2\n      mstore\n      0x20\n      add\n      0x00\n      dup2\n      mstore\n      0x20\n      add\n      0x00\n      dup2\n      mstore\n      pop\n      swap1\n      jump\n    tag_348:\n      swap1\n      mstore\n      swap1\n      jump\t// out\n        /* \"#utility.yul\":842:1151   */\n    tag_45:\n        /* \"#utility.yul\":901:907   */\n      0x00\n        /* \"#utility.yul\":954:956   */\n      0x20\n        /* \"#utility.yul\":942:951   */\n      dup3\n        /* \"#utility.yul\":933:940   */\n      dup5\n        /* \"#utility.yul\":929:952   */\n      sub\n        /* \"#utility.yul\":925:957   */\n      slt\n        /* \"#utility.yul\":922:974   */\n      iszero\n      tag_355\n      jumpi\n        /* \"#utility.yul\":970:971   */\n      0x00\n        /* \"#utility.yul\":967:968   */\n      dup1\n        /* \"#utility.yul\":960:972   */\n      revert\n        /* \"#utility.yul\":922:974   */\n    tag_355:\n        /* \"#utility.yul\":1009:1018   */\n      dup2\n        /* \"#utility.yul\":996:1019   */\n      calldataload\n      sub(shl(0xa0, 0x01), 0x01)\n        /* \"#utility.yul\":1052:1057   */\n      dup2\n        /* \"#utility.yul\":1048:1102   */\n      and\n        /* \"#utility.yul\":1041:1046   */\n      dup2\n        /* \"#utility.yul\":1038:1103   */\n      eq\n        /* \"#utility.yul\":1028:1121   */\n      tag_321\n      jumpi\n        /* \"#utility.yul\":1117:1118   */\n      0x00\n        /* \"#utility.yul\":1114:1115   */\n      dup1\n        /* \"#utility.yul\":1107:1119   */\n      revert\n        /* \"#utility.yul\":1803:2051   */\n    tag_66:\n        /* \"#utility.yul\":1871:1877   */\n      0x00\n        /* \"#utility.yul\":1879:1885   */\n      dup1\n        /* \"#utility.yul\":1932:1934   */\n      0x40\n        /* \"#utility.yul\":1920:1929   */\n      dup4\n        /* \"#utility.yul\":1911:1918   */\n      dup6\n        /* \"#utility.yul\":1907:1930   */\n      sub\n        /* \"#utility.yul\":1903:1935   */\n      slt\n        /* \"#utility.yul\":1900:1952   */\n      iszero\n      tag_361\n      jumpi\n        /* \"#utility.yul\":1948:1949   */\n      0x00\n        /* \"#utility.yul\":1945:1946   */\n      dup1\n        /* \"#utility.yul\":1938:1950   */\n      revert\n        /* \"#utility.yul\":1900:1952   */\n    tag_361:\n      pop\n      pop\n        /* \"#utility.yul\":1971:1994   */\n      dup1\n      calldataload\n      swap3\n        /* \"#utility.yul\":2041:2043   */\n      0x20\n        /* \"#utility.yul\":2026:2044   */\n      swap1\n      swap2\n      add\n        /* \"#utility.yul\":2013:2045   */\n      calldataload\n      swap2\n      pop\n        /* \"#utility.yul\":1803:2051   */\n      jump\t// out\n        /* \"#utility.yul\":2056:2236   */\n    tag_73:\n        /* \"#utility.yul\":2115:2121   */\n      0x00\n        /* \"#utility.yul\":2168:2170   */\n      0x20\n        /* \"#utility.yul\":2156:2165   */\n      dup3\n        /* \"#utility.yul\":2147:2154   */\n      dup5\n        /* \"#utility.yul\":2143:2166   */\n      sub\n        /* \"#utility.yul\":2139:2171   */\n      slt\n        /* \"#utility.yul\":2136:2188   */\n      iszero\n      tag_363\n      jumpi\n        /* \"#utility.yul\":2184:2185   */\n      0x00\n        /* \"#utility.yul\":2181:2182   */\n      dup1\n        /* \"#utility.yul\":2174:2186   */\n      revert\n        /* \"#utility.yul\":2136:2188   */\n    tag_363:\n      pop\n        /* \"#utility.yul\":2207:2230   */\n      calldataload\n      swap2\n        /* \"#utility.yul\":2056:2236   */\n      swap1\n      pop\n      jump\t// out\n        /* \"#utility.yul\":2832:3016   */\n    tag_350:\n      shl(0xe0, 0x4e487b71)\n        /* \"#utility.yul\":2881:2882   */\n      0x00\n        /* \"#utility.yul\":2874:2962   */\n      mstore\n        /* \"#utility.yul\":2981:2985   */\n      0x11\n        /* \"#utility.yul\":2978:2979   */\n      0x04\n        /* \"#utility.yul\":2971:2986   */\n      mstore\n        /* \"#utility.yul\":3005:3009   */\n      0x24\n        /* \"#utility.yul\":3002:3003   */\n      0x00\n        /* \"#utility.yul\":2995:3010   */\n      revert\n        /* \"#utility.yul\":3021:3146   */\n    tag_128:\n        /* \"#utility.yul\":3061:3065   */\n      0x00\n        /* \"#utility.yul\":3089:3090   */\n      dup3\n        /* \"#utility.yul\":3086:3087   */\n      dup3\n        /* \"#utility.yul\":3083:3091   */\n      lt\n        /* \"#utility.yul\":3080:3114   */\n      iszero\n      tag_369\n      jumpi\n        /* \"#utility.yul\":3094:3112   */\n      tag_369\n      tag_350\n      jump\t// in\n    tag_369:\n      pop\n        /* \"#utility.yul\":3131:3140   */\n      sub\n      swap1\n        /* \"#utility.yul\":3021:3146   */\n      jump\t// out\n        /* \"#utility.yul\":3151:3319   */\n    tag_137:\n        /* \"#utility.yul\":3191:3198   */\n      0x00\n        /* \"#utility.yul\":3257:3258   */\n      dup2\n        /* \"#utility.yul\":3253:3254   */\n      0x00\n        /* \"#utility.yul\":3249:3255   */\n      not\n        /* \"#utility.yul\":3245:3259   */\n      div\n        /* \"#utility.yul\":3242:3243   */\n      dup4\n        /* \"#utility.yul\":3239:3260   */\n      gt\n        /* \"#utility.yul\":3234:3235   */\n      dup3\n        /* \"#utility.yul\":3227:3236   */\n      iszero\n        /* \"#utility.yul\":3220:3237   */\n      iszero\n        /* \"#utility.yul\":3216:3261   */\n      and\n        /* \"#utility.yul\":3213:3284   */\n      iszero\n      tag_372\n      jumpi\n        /* \"#utility.yul\":3264:3282   */\n      tag_372\n      tag_350\n      jump\t// in\n    tag_372:\n      pop\n        /* \"#utility.yul\":3304:3313   */\n      mul\n      swap1\n        /* \"#utility.yul\":3151:3319   */\n      jump\t// out\n        /* \"#utility.yul\":3324:3598   */\n    tag_139:\n        /* \"#utility.yul\":3364:3365   */\n      0x00\n        /* \"#utility.yul\":3390:3391   */\n      dup3\n        /* \"#utility.yul\":3380:3569   */\n      tag_374\n      jumpi\n      shl(0xe0, 0x4e487b71)\n        /* \"#utility.yul\":3422:3423   */\n      0x00\n        /* \"#utility.yul\":3415:3503   */\n      mstore\n        /* \"#utility.yul\":3526:3530   */\n      0x12\n        /* \"#utility.yul\":3523:3524   */\n      0x04\n        /* \"#utility.yul\":3516:3531   */\n      mstore\n        /* \"#utility.yul\":3554:3558   */\n      0x24\n        /* \"#utility.yul\":3551:3552   */\n      0x00\n        /* \"#utility.yul\":3544:3559   */\n      revert\n        /* \"#utility.yul\":3380:3569   */\n    tag_374:\n      pop\n        /* \"#utility.yul\":3583:3592   */\n      div\n      swap1\n        /* \"#utility.yul\":3324:3598   */\n      jump\t// out\n        /* \"#utility.yul\":3603:3731   */\n    tag_143:\n        /* \"#utility.yul\":3643:3646   */\n      0x00\n        /* \"#utility.yul\":3674:3675   */\n      dup3\n        /* \"#utility.yul\":3670:3676   */\n      not\n        /* \"#utility.yul\":3667:3668   */\n      dup3\n        /* \"#utility.yul\":3664:3677   */\n      gt\n        /* \"#utility.yul\":3661:3700   */\n      iszero\n      tag_377\n      jumpi\n        /* \"#utility.yul\":3680:3698   */\n      tag_377\n      tag_350\n      jump\t// in\n    tag_377:\n      pop\n        /* \"#utility.yul\":3716:3725   */\n      add\n      swap1\n        /* \"#utility.yul\":3603:3731   */\n      jump\t// out\n        /* \"#utility.yul\":5533:5810   */\n    tag_317:\n        /* \"#utility.yul\":5600:5606   */\n      0x00\n        /* \"#utility.yul\":5653:5655   */\n      0x20\n        /* \"#utility.yul\":5641:5650   */\n      dup3\n        /* \"#utility.yul\":5632:5639   */\n      dup5\n        /* \"#utility.yul\":5628:5651   */\n      sub\n        /* \"#utility.yul\":5624:5656   */\n      slt\n        /* \"#utility.yul\":5621:5673   */\n      iszero\n      tag_384\n      jumpi\n        /* \"#utility.yul\":5669:5670   */\n      0x00\n        /* \"#utility.yul\":5666:5667   */\n      dup1\n        /* \"#utility.yul\":5659:5671   */\n      revert\n        /* \"#utility.yul\":5621:5673   */\n    tag_384:\n        /* \"#utility.yul\":5701:5710   */\n      dup2\n        /* \"#utility.yul\":5695:5711   */\n      mload\n        /* \"#utility.yul\":5754:5759   */\n      dup1\n        /* \"#utility.yul\":5747:5760   */\n      iszero\n        /* \"#utility.yul\":5740:5761   */\n      iszero\n        /* \"#utility.yul\":5733:5738   */\n      dup2\n        /* \"#utility.yul\":5730:5762   */\n      eq\n        /* \"#utility.yul\":5720:5780   */\n      tag_321\n      jumpi\n        /* \"#utility.yul\":5776:5777   */\n      0x00\n        /* \"#utility.yul\":5773:5774   */\n      dup1\n        /* \"#utility.yul\":5766:5778   */\n      revert\n        /* \"#utility.yul\":6991:7249   */\n    tag_351:\n        /* \"#utility.yul\":7063:7064   */\n      0x00\n        /* \"#utility.yul\":7073:7186   */\n    tag_390:\n        /* \"#utility.yul\":7087:7093   */\n      dup4\n        /* \"#utility.yul\":7084:7085   */\n      dup2\n        /* \"#utility.yul\":7081:7094   */\n      lt\n        /* \"#utility.yul\":7073:7186   */\n      iszero\n      tag_392\n      jumpi\n        /* \"#utility.yul\":7163:7174   */\n      dup2\n      dup2\n      add\n        /* \"#utility.yul\":7157:7175   */\n      mload\n        /* \"#utility.yul\":7144:7155   */\n      dup4\n      dup3\n      add\n        /* \"#utility.yul\":7137:7176   */\n      mstore\n        /* \"#utility.yul\":7109:7111   */\n      0x20\n        /* \"#utility.yul\":7102:7112   */\n      add\n        /* \"#utility.yul\":7073:7186   */\n      jump(tag_390)\n    tag_392:\n        /* \"#utility.yul\":7204:7210   */\n      dup4\n        /* \"#utility.yul\":7201:7202   */\n      dup2\n        /* \"#utility.yul\":7198:7211   */\n      gt\n        /* \"#utility.yul\":7195:7243   */\n      iszero\n      tag_297\n      jumpi\n      pop\n      pop\n        /* \"#utility.yul\":7239:7240   */\n      0x00\n        /* \"#utility.yul\":7221:7237   */\n      swap2\n      add\n        /* \"#utility.yul\":7214:7241   */\n      mstore\n        /* \"#utility.yul\":6991:7249   */\n      jump\t// out\n        /* \"#utility.yul\":7254:7528   */\n    tag_334:\n        /* \"#utility.yul\":7383:7386   */\n      0x00\n        /* \"#utility.yul\":7421:7427   */\n      dup3\n        /* \"#utility.yul\":7415:7428   */\n      mload\n        /* \"#utility.yul\":7437:7490   */\n      tag_395\n        /* \"#utility.yul\":7483:7489   */\n      dup2\n        /* \"#utility.yul\":7478:7481   */\n      dup5\n        /* \"#utility.yul\":7471:7475   */\n      0x20\n        /* \"#utility.yul\":7463:7469   */\n      dup8\n        /* \"#utility.yul\":7459:7476   */\n      add\n        /* \"#utility.yul\":7437:7490   */\n      tag_351\n      jump\t// in\n    tag_395:\n        /* \"#utility.yul\":7506:7522   */\n      swap2\n      swap1\n      swap2\n      add\n      swap3\n        /* \"#utility.yul\":7254:7528   */\n      swap2\n      pop\n      pop\n      jump\t// out\n        /* \"#utility.yul\":7533:7916   */\n    tag_347:\n        /* \"#utility.yul\":7682:7684   */\n      0x20\n        /* \"#utility.yul\":7671:7680   */\n      dup2\n        /* \"#utility.yul\":7664:7685   */\n      mstore\n        /* \"#utility.yul\":7645:7649   */\n      0x00\n        /* \"#utility.yul\":7714:7720   */\n      dup3\n        /* \"#utility.yul\":7708:7721   */\n      mload\n        /* \"#utility.yul\":7757:7763   */\n      dup1\n        /* \"#utility.yul\":7752:7754   */\n      0x20\n        /* \"#utility.yul\":7741:7750   */\n      dup5\n        /* \"#utility.yul\":7737:7755   */\n      add\n        /* \"#utility.yul\":7730:7764   */\n      mstore\n        /* \"#utility.yul\":7773:7839   */\n      tag_397\n        /* \"#utility.yul\":7832:7838   */\n      dup2\n        /* \"#utility.yul\":7827:7829   */\n      0x40\n        /* \"#utility.yul\":7816:7825   */\n      dup6\n        /* \"#utility.yul\":7812:7830   */\n      add\n        /* \"#utility.yul\":7807:7809   */\n      0x20\n        /* \"#utility.yul\":7799:7805   */\n      dup8\n        /* \"#utility.yul\":7795:7810   */\n      add\n        /* \"#utility.yul\":7773:7839   */\n      tag_351\n      jump\t// in\n    tag_397:\n        /* \"#utility.yul\":7900:7902   */\n      0x1f\n        /* \"#utility.yul\":7879:7894   */\n      add\n      not(0x1f)\n        /* \"#utility.yul\":7875:7904   */\n      and\n        /* \"#utility.yul\":7860:7905   */\n      swap2\n      swap1\n      swap2\n      add\n        /* \"#utility.yul\":7907:7909   */\n      0x40\n        /* \"#utility.yul\":7856:7910   */\n      add\n      swap3\n        /* \"#utility.yul\":7533:7916   */\n      swap2\n      pop\n      pop\n      jump\t// out\n\n    auxdata: 0xa2646970667358221220924bff957e07f69583060636b15521ca137bfafe9375a3b4e39b7de3bf6120e864736f6c634300080b0033\n}\n",
				"bytecode": {
					"linkReferences": {},
					"object": "608060405234801561001057600080fd5b50604051611ad3380380611ad383398101604081905261002f91610137565b600160005561003d336100e5565b600f6003556050600455600b80546001600160a01b0319166001600160a01b0392909216919091179055600260205260067fa1ef5b42f18533d67a183a193ea6c3fabfaa3bdabc3fc0e3f65b19b517df6e8c5560077f089cfcbf844e824feee5f634cbc488382291f3c9e0de5905f3c30812390dd832556301e1338060005260087fdc083eb4da7563bbd761324b5158d9d40af7c7174afe39b0b31a7577c44fc33b55610167565b600180546001600160a01b038381166001600160a01b0319831681179093556040519116919082907f8be0079c531659141344cd1fd0a4f28419497f9722a3daafe3b4186f6b6457e090600090a35050565b60006020828403121561014957600080fd5b81516001600160a01b038116811461016057600080fd5b9392505050565b61195d806101766000396000f3fe608060405234801561001057600080fd5b50600436106101a35760003560e01c80638c8e8fee116100ee578063bed9d86111610097578063d2a569c311610071578063d2a569c3146103ca578063d5dbdf1b146103d2578063f2fde38b146103e5578063fab2f86b146103f857600080fd5b8063bed9d861146103b3578063c63aa3e7146103bb578063cb79c2e1146103c157600080fd5b8063a3ec138d116100c8578063a3ec138d14610374578063b5d9df8314610397578063b87da76d146103aa57600080fd5b80638c8e8fee146103185780638da5cb5b14610343578063a143a5f21461035457600080fd5b806365f8c6c5116101505780637b0472f01161012a5780637b0472f0146102e95780638891cf0d146102fc5780638c63f97f1461030557600080fd5b806365f8c6c5146102b6578063671d2b75146102c9578063715018a6146102e157600080fd5b80632d15cc04116101815780632d15cc041461023a5780635f5300ff14610297578063632a9a52146102ae57600080fd5b8063070c8b74146101a857806310486b6a146101b25780631ec6b60a14610232575b600080fd5b6101b0610400565b005b6101ba6104f4565b604051610229919060006101208201905082518252602083015160208301526040830151805160408401526020810151606084015260408101516080840152606081015160a0840152608081015160c084015260a081015160e084015260c08101516101008401525092915050565b60405180910390f35b6101b0610663565b6102806102483660046117a0565b6001600160a01b031660009081526009602090815260408083208054600754855260019091019092529091205460ff91821692911690565b604080519215158352901515602083015201610229565b6102a060085481565b604051908152602001610229565b6101b0610779565b6101b06102c43660046117a0565b610888565b6102d161091e565b6040519015158152602001610229565b6101b0610a08565b6101b06102f73660046117c9565b610a6e565b6102a060045481565b6101b06103133660046117eb565b610cc6565b600b5461032b906001600160a01b031681565b6040516001600160a01b039091168152602001610229565b6001546001600160a01b031661032b565b6102a06103623660046117eb565b600a6020526000908152604090205481565b6102d16103823660046117a0565b60096020526000908152604090205460ff1681565b6102a06103a53660046117eb565b610d97565b6102a060055481565b6101b0610db7565b426102a0565b6102a060035481565b6101b0610f60565b6101b06103e03660046117eb565b610fc0565b6101b06103f33660046117a0565b61108a565b6101b061116c565b600260005414156104585760405162461bcd60e51b815260206004820152601f60248201527f5265656e7472616e637947756172643a207265656e7472616e742063616c6c0060448201526064015b60405180910390fd5b60026000556104656111da565b61046d611216565b336000908152600960209081526040808320600754845260010190915290205460ff166104c6576040517f8b74220000000000000000000000000000000000000000000000000000000000815260040160405180910390fd5b6007546000908152600a602052604081208054600192906104e890849061181a565b90915550506001600055565b6104fc611742565b336000908152600c6020908152604091829020825160e08101845281548082526001830154938201939093526002820154938101939093526003810154606084015260048101546080840152600581015460a08401526006015460c0830152610591576040517fb018f08700000000000000000000000000000000000000000000000000000000815260040160405180910390fd5b60408051606081018252600080825260208201819052918101839052906105b78361125f565b9050428260400151606001511115610610576103e8600354826105da9190611831565b6105e49190611850565b60035484516103e8916105f691611831565b6106009190611850565b61060a9190611872565b60208301525b600061061f8460c00151610d97565b111561064357600061063484600001516112a4565b604084015160a0015250610651565b6040820151600060a0909101525b60408201516080015290518152919050565b600260005414156106b65760405162461bcd60e51b815260206004820152601f60248201527f5265656e7472616e637947756172643a207265656e7472616e742063616c6c00604482015260640161044f565b60026000556001546001600160a01b031633146107155760405162461bcd60e51b815260206004820181905260248201527f4f776e61626c653a2063616c6c6572206973206e6f7420746865206f776e6572604482015260640161044f565b60065460ff16151560011415610757576040517f6da4cd2e00000000000000000000000000000000000000000000000000000000815260040160405180910390fd5b6006805460ff19166001908117909155600780546000906104e8908490611872565b600260005414156107cc5760405162461bcd60e51b815260206004820152601f60248201527f5265656e7472616e637947756172643a207265656e7472616e742063616c6c00604482015260640161044f565b60026000556107d96111da565b6107e1611216565b336000908152600960209081526040808320600754845260019081019092529091205460ff1615151415610841576040517f740e33b000000000000000000000000000000000000000000000000000000000815260040160405180910390fd5b33600090815260096020908152604080832060078054855260019182018452828520805460ff191683179055548452600a90925282208054919290916104e8908490611872565b6001600160a01b0381166000908152600c6020526040902080541561091a576108b48160060154610d97565b6108ea576040517fdd8456cc00000000000000000000000000000000000000000000000000000000815260040160405180910390fd5b60006005820155426006820155600b54815461091a916001600160a01b0316903390610915906112a4565b6112c6565b5050565b6001546000906001600160a01b0316331461097b5760405162461bcd60e51b815260206004820181905260248201527f4f776e61626c653a2063616c6c6572206973206e6f7420746865206f776e6572604482015260640161044f565b6109836111da565b6001600854116109bf576040517f2f9686de00000000000000000000000000000000000000000000000000000000815260040160405180910390fd5b6000600a60085460056109d29190611831565b6109dc9190611850565b6007546000908152600a6020526040902054909150811015610a0057600191505090565b600091505090565b6001546001600160a01b03163314610a625760405162461bcd60e51b815260206004820181905260248201527f4f776e61626c653a2063616c6c6572206973206e6f7420746865206f776e6572604482015260640161044f565b610a6c6000611374565b565b60026000541415610ac15760405162461bcd60e51b815260206004820152601f60248201527f5265656e7472616e637947756172643a207265656e7472616e742063616c6c00604482015260640161044f565b600260005581610afd576040517f88b440d600000000000000000000000000000000000000000000000000000000815260040160405180910390fd5b336000908152600c602052604090205415610b44576040517f04462d2700000000000000000000000000000000000000000000000000000000815260040160405180910390fd5b600081815260026020526040902054610b89576040517f95377be400000000000000000000000000000000000000000000000000000000815260040160405180910390fd5b600160086000828254610b9c9190611872565b9091555050336000908152600960209081526040808320805460ff19166001179055805160e0810182528581524281840181905285855260029093529281902054908301529060608101610bf08385611872565b8152600060208083018290526040808401839052606093840183905233808452600c8352928190208551815591850151600183015584015160028201559183015160038301556080830151600483015560a0830151600583015560c090920151600690910155600b54610c70916001600160a01b039091169030866113de565b337fb4caaf29adda3eefee3ad552a8e85058589bf834c7466cae4ee58787f70589ed8483610c9e8187611872565b6040805193845260208401929092529082015260600160405180910390a25050600160005550565b6001546001600160a01b03163314610d205760405162461bcd60e51b815260206004820181905260248201527f4f776e61626c653a2063616c6c6572206973206e6f7420746865206f776e6572604482015260640161044f565b601e811115610d5b576040517ff1a470d700000000000000000000000000000000000000000000000000000000815260040160405180910390fd5b60038190556040518181527fcfa4f4cf1cd64d13a167a8e75605e0c0c9d6700e903d17c5dc11f593254a04a9906020015b60405180910390a150565b600062093a80610da7834261181a565b610db19190611850565b92915050565b60026000541415610e0a5760405162461bcd60e51b815260206004820152601f60248201527f5265656e7472616e637947756172643a207265656e7472616e742063616c6c00604482015260640161044f565b60026000818155338152600c60209081526040808320815160e0810183528154815260018201549381019390935293840154908201526003830154606082015260048301546080820152600583015460a082015260069092015460c0830152610e728261125f565b336000908152600c602052604081208181556001808201839055600282018390556003820183905560048201839055600582018390556006909101829055600880549394509092909190610ec790849061181a565b909155505033600090815260096020908152604080832060075484526001019091529020805460ff191690556060820151421015610f3757600080610f10846000015184611435565b600b549193509150610f30906001600160a01b0316336109158486611872565b5050610f57565b600b548251610f57916001600160a01b0316903390610915908590611872565b50506001600055565b6001546001600160a01b03163314610fba5760405162461bcd60e51b815260206004820181905260248201527f4f776e61626c653a2063616c6c6572206973206e6f7420746865206f776e6572604482015260640161044f565b42600555565b6001546001600160a01b0316331461101a5760405162461bcd60e51b815260206004820181905260248201527f4f776e61626c653a2063616c6c6572206973206e6f7420746865206f776e6572604482015260640161044f565b60c8811115611055576040517fa552cf1000000000000000000000000000000000000000000000000000000000815260040160405180910390fd5b60048190556040518181527fcc672f1026b958c0cfbfdd89ebe8ddcbc127f16ec24da6c2c7a4de26a8b1857e90602001610d8c565b6001546001600160a01b031633146110e45760405162461bcd60e51b815260206004820181905260248201527f4f776e61626c653a2063616c6c6572206973206e6f7420746865206f776e6572604482015260640161044f565b6001600160a01b0381166111605760405162461bcd60e51b815260206004820152602660248201527f4f776e61626c653a206e6577206f776e657220697320746865207a65726f206160448201527f6464726573730000000000000000000000000000000000000000000000000000606482015260840161044f565b61116981611374565b50565b6001546001600160a01b031633146111c65760405162461bcd60e51b815260206004820181905260248201527f4f776e61626c653a2063616c6c6572206973206e6f7420746865206f776e6572604482015260640161044f565b6111ce6111da565b6006805460ff19169055565b60065460ff16610a6c576040517fa1d1891400000000000000000000000000000000000000000000000000000000815260040160405180910390fd5b3360009081526009602052604090205460ff16610a6c576040517f1e567dd400000000000000000000000000000000000000000000000000000000815260040160405180910390fd5b805160009061127057506000919050565b6a52b7d2dcc80cd2e4000000611289836020015161149e565b6040840151845161129a9190611831565b610da79190611831565b60006301dfe2006103e8600454846112bc9190611831565b610da79190611850565b6040516001600160a01b03831660248201526044810182905261136f9084907fa9059cbb00000000000000000000000000000000000000000000000000000000906064015b60408051601f198184030181529190526020810180517bffffffffffffffffffffffffffffffffffffffffffffffffffffffff167fffffffff00000000000000000000000000000000000000000000000000000000909316929092179091526114c3565b505050565b600180546001600160a01b038381167fffffffffffffffffffffffff0000000000000000000000000000000000000000831681179093556040519116919082907f8be0079c531659141344cd1fd0a4f28419497f9722a3daafe3b4186f6b6457e090600090a35050565b6040516001600160a01b038085166024830152831660448201526064810182905261142f9085907f23b872dd000000000000000000000000000000000000000000000000000000009060840161130b565b50505050565b6000808361144857506000905080611497565b6103e8600354856114599190611831565b6114639190611850565b61146d908561181a565b6103e86003548561147e9190611831565b6114889190611850565b611492908561181a565b915091505b9250929050565b60006301e133806114af834261181a565b610da79069d3c21bcecceda1000000611831565b6000611518826040518060400160405280602081526020017f5361666545524332303a206c6f772d6c6576656c2063616c6c206661696c6564815250856001600160a01b03166115a89092919063ffffffff16565b80519091501561136f5780806020019051810190611536919061188a565b61136f5760405162461bcd60e51b815260206004820152602a60248201527f5361666545524332303a204552433230206f7065726174696f6e20646964206e60448201527f6f74207375636365656400000000000000000000000000000000000000000000606482015260840161044f565b60606115b784846000856115c1565b90505b9392505050565b6060824710156116395760405162461bcd60e51b815260206004820152602660248201527f416464726573733a20696e73756666696369656e742062616c616e636520666f60448201527f722063616c6c0000000000000000000000000000000000000000000000000000606482015260840161044f565b6001600160a01b0385163b6116905760405162461bcd60e51b815260206004820152601d60248201527f416464726573733a2063616c6c20746f206e6f6e2d636f6e7472616374000000604482015260640161044f565b600080866001600160a01b031685876040516116ac91906118d8565b60006040518083038185875af1925050503d80600081146116e9576040519150601f19603f3d011682016040523d82523d6000602084013e6116ee565b606091505b50915091506116fe828286611709565b979650505050505050565b606083156117185750816115ba565b8251156117285782518084602001fd5b8160405162461bcd60e51b815260040161044f91906118f4565b6040518060600160405280600081526020016000815260200161179b6040518060e00160405280600081526020016000815260200160008152602001600081526020016000815260200160008152602001600081525090565b905290565b6000602082840312156117b257600080fd5b81356001600160a01b03811681146115ba57600080fd5b600080604083850312156117dc57600080fd5b50508035926020909101359150565b6000602082840312156117fd57600080fd5b5035919050565b634e487b7160e01b600052601160045260246000fd5b60008282101561182c5761182c611804565b500390565b600081600019048311821515161561184b5761184b611804565b500290565b60008261186d57634e487b7160e01b600052601260045260246000fd5b500490565b6000821982111561188557611885611804565b500190565b60006020828403121561189c57600080fd5b815180151581146115ba57600080fd5b60005b838110156118c75781810151838201526020016118af565b8381111561142f5750506000910152565b600082516118ea8184602087016118ac565b9190910192915050565b60208152600082518060208401526119138160408501602087016118ac565b601f01601f1916919091016040019291505056fea2646970667358221220924bff957e07f69583060636b15521ca137bfafe9375a3b4e39b7de3bf6120e864736f6c634300080b0033",
					"opcodes": "PUSH1 0x80 PUSH1 0x40 MSTORE CALLVALUE DUP1 ISZERO PUSH2 0x10 JUMPI PUSH1 0x0 DUP1 REVERT JUMPDEST POP PUSH1 0x40 MLOAD PUSH2 0x1AD3 CODESIZE SUB DUP1 PUSH2 0x1AD3 DUP4 CODECOPY DUP2 ADD PUSH1 0x40 DUP2 SWAP1 MSTORE PUSH2 0x2F SWAP2 PUSH2 0x137 JUMP JUMPDEST PUSH1 0x1 PUSH1 0x0 SSTORE PUSH2 0x3D CALLER PUSH2 0xE5 JUMP JUMPDEST PUSH1 0xF PUSH1 0x3 SSTORE PUSH1 0x50 PUSH1 0x4 SSTORE PUSH1 0xB DUP1 SLOAD PUSH1 0x1 PUSH1 0x1 PUSH1 0xA0 SHL SUB NOT AND PUSH1 0x1 PUSH1 0x1 PUSH1 0xA0 SHL SUB SWAP3 SWAP1 SWAP3 AND SWAP2 SWAP1 SWAP2 OR SWAP1 SSTORE PUSH1 0x2 PUSH1 0x20 MSTORE PUSH1 0x6 PUSH32 0xA1EF5B42F18533D67A183A193EA6C3FABFAA3BDABC3FC0E3F65B19B517DF6E8C SSTORE PUSH1 0x7 PUSH32 0x89CFCBF844E824FEEE5F634CBC488382291F3C9E0DE5905F3C30812390DD832 SSTORE PUSH4 0x1E13380 PUSH1 0x0 MSTORE PUSH1 0x8 PUSH32 0xDC083EB4DA7563BBD761324B5158D9D40AF7C7174AFE39B0B31A7577C44FC33B SSTORE PUSH2 0x167 JUMP JUMPDEST PUSH1 0x1 DUP1 SLOAD PUSH1 0x1 PUSH1 0x1 PUSH1 0xA0 SHL SUB DUP4 DUP2 AND PUSH1 0x1 PUSH1 0x1 PUSH1 0xA0 SHL SUB NOT DUP4 AND DUP2 OR SWAP1 SWAP4 SSTORE PUSH1 0x40 MLOAD SWAP2 AND SWAP2 SWAP1 DUP3 SWAP1 PUSH32 0x8BE0079C531659141344CD1FD0A4F28419497F9722A3DAAFE3B4186F6B6457E0 SWAP1 PUSH1 0x0 SWAP1 LOG3 POP POP JUMP JUMPDEST PUSH1 0x0 PUSH1 0x20 DUP3 DUP5 SUB SLT ISZERO PUSH2 0x149 JUMPI PUSH1 0x0 DUP1 REVERT JUMPDEST DUP2 MLOAD PUSH1 0x1 PUSH1 0x1 PUSH1 0xA0 SHL SUB DUP2 AND DUP2 EQ PUSH2 0x160 JUMPI PUSH1 0x0 DUP1 REVERT JUMPDEST SWAP4 SWAP3 POP POP POP JUMP JUMPDEST PUSH2 0x195D DUP1 PUSH2 0x176 PUSH1 0x0 CODECOPY PUSH1 0x0 RETURN INVALID PUSH1 0x80 PUSH1 0x40 MSTORE CALLVALUE DUP1 ISZERO PUSH2 0x10 JUMPI PUSH1 0x0 DUP1 REVERT JUMPDEST POP PUSH1 0x4 CALLDATASIZE LT PUSH2 0x1A3 JUMPI PUSH1 0x0 CALLDATALOAD PUSH1 0xE0 SHR DUP1 PUSH4 0x8C8E8FEE GT PUSH2 0xEE JUMPI DUP1 PUSH4 0xBED9D861 GT PUSH2 0x97 JUMPI DUP1 PUSH4 0xD2A569C3 GT PUSH2 0x71 JUMPI DUP1 PUSH4 0xD2A569C3 EQ PUSH2 0x3CA JUMPI DUP1 PUSH4 0xD5DBDF1B EQ PUSH2 0x3D2 JUMPI DUP1 PUSH4 0xF2FDE38B EQ PUSH2 0x3E5 JUMPI DUP1 PUSH4 0xFAB2F86B EQ PUSH2 0x3F8 JUMPI PUSH1 0x0 DUP1 REVERT JUMPDEST DUP1 PUSH4 0xBED9D861 EQ PUSH2 0x3B3 JUMPI DUP1 PUSH4 0xC63AA3E7 EQ PUSH2 0x3BB JUMPI DUP1 PUSH4 0xCB79C2E1 EQ PUSH2 0x3C1 JUMPI PUSH1 0x0 DUP1 REVERT JUMPDEST DUP1 PUSH4 0xA3EC138D GT PUSH2 0xC8 JUMPI DUP1 PUSH4 0xA3EC138D EQ PUSH2 0x374 JUMPI DUP1 PUSH4 0xB5D9DF83 EQ PUSH2 0x397 JUMPI DUP1 PUSH4 0xB87DA76D EQ PUSH2 0x3AA JUMPI PUSH1 0x0 DUP1 REVERT JUMPDEST DUP1 PUSH4 0x8C8E8FEE EQ PUSH2 0x318 JUMPI DUP1 PUSH4 0x8DA5CB5B EQ PUSH2 0x343 JUMPI DUP1 PUSH4 0xA143A5F2 EQ PUSH2 0x354 JUMPI PUSH1 0x0 DUP1 REVERT JUMPDEST DUP1 PUSH4 0x65F8C6C5 GT PUSH2 0x150 JUMPI DUP1 PUSH4 0x7B0472F0 GT PUSH2 0x12A JUMPI DUP1 PUSH4 0x7B0472F0 EQ PUSH2 0x2E9 JUMPI DUP1 PUSH4 0x8891CF0D EQ PUSH2 0x2FC JUMPI DUP1 PUSH4 0x8C63F97F EQ PUSH2 0x305 JUMPI PUSH1 0x0 DUP1 REVERT JUMPDEST DUP1 PUSH4 0x65F8C6C5 EQ PUSH2 0x2B6 JUMPI DUP1 PUSH4 0x671D2B75 EQ PUSH2 0x2C9 JUMPI DUP1 PUSH4 0x715018A6 EQ PUSH2 0x2E1 JUMPI PUSH1 0x0 DUP1 REVERT JUMPDEST DUP1 PUSH4 0x2D15CC04 GT PUSH2 0x181 JUMPI DUP1 PUSH4 0x2D15CC04 EQ PUSH2 0x23A JUMPI DUP1 PUSH4 0x5F5300FF EQ PUSH2 0x297 JUMPI DUP1 PUSH4 0x632A9A52 EQ PUSH2 0x2AE JUMPI PUSH1 0x0 DUP1 REVERT JUMPDEST DUP1 PUSH4 0x70C8B74 EQ PUSH2 0x1A8 JUMPI DUP1 PUSH4 0x10486B6A EQ PUSH2 0x1B2 JUMPI DUP1 PUSH4 0x1EC6B60A EQ PUSH2 0x232 JUMPI JUMPDEST PUSH1 0x0 DUP1 REVERT JUMPDEST PUSH2 0x1B0 PUSH2 0x400 JUMP JUMPDEST STOP JUMPDEST PUSH2 0x1BA PUSH2 0x4F4 JUMP JUMPDEST PUSH1 0x40 MLOAD PUSH2 0x229 SWAP2 SWAP1 PUSH1 0x0 PUSH2 0x120 DUP3 ADD SWAP1 POP DUP3 MLOAD DUP3 MSTORE PUSH1 0x20 DUP4 ADD MLOAD PUSH1 0x20 DUP4 ADD MSTORE PUSH1 0x40 DUP4 ADD MLOAD DUP1 MLOAD PUSH1 0x40 DUP5 ADD MSTORE PUSH1 0x20 DUP2 ADD MLOAD PUSH1 0x60 DUP5 ADD MSTORE PUSH1 0x40 DUP2 ADD MLOAD PUSH1 0x80 DUP5 ADD MSTORE PUSH1 0x60 DUP2 ADD MLOAD PUSH1 0xA0 DUP5 ADD MSTORE PUSH1 0x80 DUP2 ADD MLOAD PUSH1 0xC0 DUP5 ADD MSTORE PUSH1 0xA0 DUP2 ADD MLOAD PUSH1 0xE0 DUP5 ADD MSTORE PUSH1 0xC0 DUP2 ADD MLOAD PUSH2 0x100 DUP5 ADD MSTORE POP SWAP3 SWAP2 POP POP JUMP JUMPDEST PUSH1 0x40 MLOAD DUP1 SWAP2 SUB SWAP1 RETURN JUMPDEST PUSH2 0x1B0 PUSH2 0x663 JUMP JUMPDEST PUSH2 0x280 PUSH2 0x248 CALLDATASIZE PUSH1 0x4 PUSH2 0x17A0 JUMP JUMPDEST PUSH1 0x1 PUSH1 0x1 PUSH1 0xA0 SHL SUB AND PUSH1 0x0 SWAP1 DUP2 MSTORE PUSH1 0x9 PUSH1 0x20 SWAP1 DUP2 MSTORE PUSH1 0x40 DUP1 DUP4 KECCAK256 DUP1 SLOAD PUSH1 0x7 SLOAD DUP6 MSTORE PUSH1 0x1 SWAP1 SWAP2 ADD SWAP1 SWAP3 MSTORE SWAP1 SWAP2 KECCAK256 SLOAD PUSH1 0xFF SWAP2 DUP3 AND SWAP3 SWAP2 AND SWAP1 JUMP JUMPDEST PUSH1 0x40 DUP1 MLOAD SWAP3 ISZERO ISZERO DUP4 MSTORE SWAP1 ISZERO ISZERO PUSH1 0x20 DUP4 ADD MSTORE ADD PUSH2 0x229 JUMP JUMPDEST PUSH2 0x2A0 PUSH1 0x8 SLOAD DUP2 JUMP JUMPDEST PUSH1 0x40 MLOAD SWAP1 DUP2 MSTORE PUSH1 0x20 ADD PUSH2 0x229 JUMP JUMPDEST PUSH2 0x1B0 PUSH2 0x779 JUMP JUMPDEST PUSH2 0x1B0 PUSH2 0x2C4 CALLDATASIZE PUSH1 0x4 PUSH2 0x17A0 JUMP JUMPDEST PUSH2 0x888 JUMP JUMPDEST PUSH2 0x2D1 PUSH2 0x91E JUMP JUMPDEST PUSH1 0x40 MLOAD SWAP1 ISZERO ISZERO DUP2 MSTORE PUSH1 0x20 ADD PUSH2 0x229 JUMP JUMPDEST PUSH2 0x1B0 PUSH2 0xA08 JUMP JUMPDEST PUSH2 0x1B0 PUSH2 0x2F7 CALLDATASIZE PUSH1 0x4 PUSH2 0x17C9 JUMP JUMPDEST PUSH2 0xA6E JUMP JUMPDEST PUSH2 0x2A0 PUSH1 0x4 SLOAD DUP2 JUMP JUMPDEST PUSH2 0x1B0 PUSH2 0x313 CALLDATASIZE PUSH1 0x4 PUSH2 0x17EB JUMP JUMPDEST PUSH2 0xCC6 JUMP JUMPDEST PUSH1 0xB SLOAD PUSH2 0x32B SWAP1 PUSH1 0x1 PUSH1 0x1 PUSH1 0xA0 SHL SUB AND DUP2 JUMP JUMPDEST PUSH1 0x40 MLOAD PUSH1 0x1 PUSH1 0x1 PUSH1 0xA0 SHL SUB SWAP1 SWAP2 AND DUP2 MSTORE PUSH1 0x20 ADD PUSH2 0x229 JUMP JUMPDEST PUSH1 0x1 SLOAD PUSH1 0x1 PUSH1 0x1 PUSH1 0xA0 SHL SUB AND PUSH2 0x32B JUMP JUMPDEST PUSH2 0x2A0 PUSH2 0x362 CALLDATASIZE PUSH1 0x4 PUSH2 0x17EB JUMP JUMPDEST PUSH1 0xA PUSH1 0x20 MSTORE PUSH1 0x0 SWAP1 DUP2 MSTORE PUSH1 0x40 SWAP1 KECCAK256 SLOAD DUP2 JUMP JUMPDEST PUSH2 0x2D1 PUSH2 0x382 CALLDATASIZE PUSH1 0x4 PUSH2 0x17A0 JUMP JUMPDEST PUSH1 0x9 PUSH1 0x20 MSTORE PUSH1 0x0 SWAP1 DUP2 MSTORE PUSH1 0x40 SWAP1 KECCAK256 SLOAD PUSH1 0xFF AND DUP2 JUMP JUMPDEST PUSH2 0x2A0 PUSH2 0x3A5 CALLDATASIZE PUSH1 0x4 PUSH2 0x17EB JUMP JUMPDEST PUSH2 0xD97 JUMP JUMPDEST PUSH2 0x2A0 PUSH1 0x5 SLOAD DUP2 JUMP JUMPDEST PUSH2 0x1B0 PUSH2 0xDB7 JUMP JUMPDEST TIMESTAMP PUSH2 0x2A0 JUMP JUMPDEST PUSH2 0x2A0 PUSH1 0x3 SLOAD DUP2 JUMP JUMPDEST PUSH2 0x1B0 PUSH2 0xF60 JUMP JUMPDEST PUSH2 0x1B0 PUSH2 0x3E0 CALLDATASIZE PUSH1 0x4 PUSH2 0x17EB JUMP JUMPDEST PUSH2 0xFC0 JUMP JUMPDEST PUSH2 0x1B0 PUSH2 0x3F3 CALLDATASIZE PUSH1 0x4 PUSH2 0x17A0 JUMP JUMPDEST PUSH2 0x108A JUMP JUMPDEST PUSH2 0x1B0 PUSH2 0x116C JUMP JUMPDEST PUSH1 0x2 PUSH1 0x0 SLOAD EQ ISZERO PUSH2 0x458 JUMPI PUSH1 0x40 MLOAD PUSH3 0x461BCD PUSH1 0xE5 SHL DUP2 MSTORE PUSH1 0x20 PUSH1 0x4 DUP3 ADD MSTORE PUSH1 0x1F PUSH1 0x24 DUP3 ADD MSTORE PUSH32 0x5265656E7472616E637947756172643A207265656E7472616E742063616C6C00 PUSH1 0x44 DUP3 ADD MSTORE PUSH1 0x64 ADD JUMPDEST PUSH1 0x40 MLOAD DUP1 SWAP2 SUB SWAP1 REVERT JUMPDEST PUSH1 0x2 PUSH1 0x0 SSTORE PUSH2 0x465 PUSH2 0x11DA JUMP JUMPDEST PUSH2 0x46D PUSH2 0x1216 JUMP JUMPDEST CALLER PUSH1 0x0 SWAP1 DUP2 MSTORE PUSH1 0x9 PUSH1 0x20 SWAP1 DUP2 MSTORE PUSH1 0x40 DUP1 DUP4 KECCAK256 PUSH1 0x7 SLOAD DUP5 MSTORE PUSH1 0x1 ADD SWAP1 SWAP2 MSTORE SWAP1 KECCAK256 SLOAD PUSH1 0xFF AND PUSH2 0x4C6 JUMPI PUSH1 0x40 MLOAD PUSH32 0x8B74220000000000000000000000000000000000000000000000000000000000 DUP2 MSTORE PUSH1 0x4 ADD PUSH1 0x40 MLOAD DUP1 SWAP2 SUB SWAP1 REVERT JUMPDEST PUSH1 0x7 SLOAD PUSH1 0x0 SWAP1 DUP2 MSTORE PUSH1 0xA PUSH1 0x20 MSTORE PUSH1 0x40 DUP2 KECCAK256 DUP1 SLOAD PUSH1 0x1 SWAP3 SWAP1 PUSH2 0x4E8 SWAP1 DUP5 SWAP1 PUSH2 0x181A JUMP JUMPDEST SWAP1 SWAP2 SSTORE POP POP PUSH1 0x1 PUSH1 0x0 SSTORE JUMP JUMPDEST PUSH2 0x4FC PUSH2 0x1742 JUMP JUMPDEST CALLER PUSH1 0x0 SWAP1 DUP2 MSTORE PUSH1 0xC PUSH1 0x20 SWAP1 DUP2 MSTORE PUSH1 0x40 SWAP2 DUP3 SWAP1 KECCAK256 DUP3 MLOAD PUSH1 0xE0 DUP2 ADD DUP5 MSTORE DUP2 SLOAD DUP1 DUP3 MSTORE PUSH1 0x1 DUP4 ADD SLOAD SWAP4 DUP3 ADD SWAP4 SWAP1 SWAP4 MSTORE PUSH1 0x2 DUP3 ADD SLOAD SWAP4 DUP2 ADD SWAP4 SWAP1 SWAP4 MSTORE PUSH1 0x3 DUP2 ADD SLOAD PUSH1 0x60 DUP5 ADD MSTORE PUSH1 0x4 DUP2 ADD SLOAD PUSH1 0x80 DUP5 ADD MSTORE PUSH1 0x5 DUP2 ADD SLOAD PUSH1 0xA0 DUP5 ADD MSTORE PUSH1 0x6 ADD SLOAD PUSH1 0xC0 DUP4 ADD MSTORE PUSH2 0x591 JUMPI PUSH1 0x40 MLOAD PUSH32 0xB018F08700000000000000000000000000000000000000000000000000000000 DUP2 MSTORE PUSH1 0x4 ADD PUSH1 0x40 MLOAD DUP1 SWAP2 SUB SWAP1 REVERT JUMPDEST PUSH1 0x40 DUP1 MLOAD PUSH1 0x60 DUP2 ADD DUP3 MSTORE PUSH1 0x0 DUP1 DUP3 MSTORE PUSH1 0x20 DUP3 ADD DUP2 SWAP1 MSTORE SWAP2 DUP2 ADD DUP4 SWAP1 MSTORE SWAP1 PUSH2 0x5B7 DUP4 PUSH2 0x125F JUMP JUMPDEST SWAP1 POP TIMESTAMP DUP3 PUSH1 0x40 ADD MLOAD PUSH1 0x60 ADD MLOAD GT ISZERO PUSH2 0x610 JUMPI PUSH2 0x3E8 PUSH1 0x3 SLOAD DUP3 PUSH2 0x5DA SWAP2 SWAP1 PUSH2 0x1831 JUMP JUMPDEST PUSH2 0x5E4 SWAP2 SWAP1 PUSH2 0x1850 JUMP JUMPDEST PUSH1 0x3 SLOAD DUP5 MLOAD PUSH2 0x3E8 SWAP2 PUSH2 0x5F6 SWAP2 PUSH2 0x1831 JUMP JUMPDEST PUSH2 0x600 SWAP2 SWAP1 PUSH2 0x1850 JUMP JUMPDEST PUSH2 0x60A SWAP2 SWAP1 PUSH2 0x1872 JUMP JUMPDEST PUSH1 0x20 DUP4 ADD MSTORE JUMPDEST PUSH1 0x0 PUSH2 0x61F DUP5 PUSH1 0xC0 ADD MLOAD PUSH2 0xD97 JUMP JUMPDEST GT ISZERO PUSH2 0x643 JUMPI PUSH1 0x0 PUSH2 0x634 DUP5 PUSH1 0x0 ADD MLOAD PUSH2 0x12A4 JUMP JUMPDEST PUSH1 0x40 DUP5 ADD MLOAD PUSH1 0xA0 ADD MSTORE POP PUSH2 0x651 JUMP JUMPDEST PUSH1 0x40 DUP3 ADD MLOAD PUSH1 0x0 PUSH1 0xA0 SWAP1 SWAP2 ADD MSTORE JUMPDEST PUSH1 0x40 DUP3 ADD MLOAD PUSH1 0x80 ADD MSTORE SWAP1 MLOAD DUP2 MSTORE SWAP2 SWAP1 POP JUMP JUMPDEST PUSH1 0x2 PUSH1 0x0 SLOAD EQ ISZERO PUSH2 0x6B6 JUMPI PUSH1 0x40 MLOAD PUSH3 0x461BCD PUSH1 0xE5 SHL DUP2 MSTORE PUSH1 0x20 PUSH1 0x4 DUP3 ADD MSTORE PUSH1 0x1F PUSH1 0x24 DUP3 ADD MSTORE PUSH32 0x5265656E7472616E637947756172643A207265656E7472616E742063616C6C00 PUSH1 0x44 DUP3 ADD MSTORE PUSH1 0x64 ADD PUSH2 0x44F JUMP JUMPDEST PUSH1 0x2 PUSH1 0x0 SSTORE PUSH1 0x1 SLOAD PUSH1 0x1 PUSH1 0x1 PUSH1 0xA0 SHL SUB AND CALLER EQ PUSH2 0x715 JUMPI PUSH1 0x40 MLOAD PUSH3 0x461BCD PUSH1 0xE5 SHL DUP2 MSTORE PUSH1 0x20 PUSH1 0x4 DUP3 ADD DUP2 SWAP1 MSTORE PUSH1 0x24 DUP3 ADD MSTORE PUSH32 0x4F776E61626C653A2063616C6C6572206973206E6F7420746865206F776E6572 PUSH1 0x44 DUP3 ADD MSTORE PUSH1 0x64 ADD PUSH2 0x44F JUMP JUMPDEST PUSH1 0x6 SLOAD PUSH1 0xFF AND ISZERO ISZERO PUSH1 0x1 EQ ISZERO PUSH2 0x757 JUMPI PUSH1 0x40 MLOAD PUSH32 0x6DA4CD2E00000000000000000000000000000000000000000000000000000000 DUP2 MSTORE PUSH1 0x4 ADD PUSH1 0x40 MLOAD DUP1 SWAP2 SUB SWAP1 REVERT JUMPDEST PUSH1 0x6 DUP1 SLOAD PUSH1 0xFF NOT AND PUSH1 0x1 SWAP1 DUP2 OR SWAP1 SWAP2 SSTORE PUSH1 0x7 DUP1 SLOAD PUSH1 0x0 SWAP1 PUSH2 0x4E8 SWAP1 DUP5 SWAP1 PUSH2 0x1872 JUMP JUMPDEST PUSH1 0x2 PUSH1 0x0 SLOAD EQ ISZERO PUSH2 0x7CC JUMPI PUSH1 0x40 MLOAD PUSH3 0x461BCD PUSH1 0xE5 SHL DUP2 MSTORE PUSH1 0x20 PUSH1 0x4 DUP3 ADD MSTORE PUSH1 0x1F PUSH1 0x24 DUP3 ADD MSTORE PUSH32 0x5265656E7472616E637947756172643A207265656E7472616E742063616C6C00 PUSH1 0x44 DUP3 ADD MSTORE PUSH1 0x64 ADD PUSH2 0x44F JUMP JUMPDEST PUSH1 0x2 PUSH1 0x0 SSTORE PUSH2 0x7D9 PUSH2 0x11DA JUMP JUMPDEST PUSH2 0x7E1 PUSH2 0x1216 JUMP JUMPDEST CALLER PUSH1 0x0 SWAP1 DUP2 MSTORE PUSH1 0x9 PUSH1 0x20 SWAP1 DUP2 MSTORE PUSH1 0x40 DUP1 DUP4 KECCAK256 PUSH1 0x7 SLOAD DUP5 MSTORE PUSH1 0x1 SWAP1 DUP2 ADD SWAP1 SWAP3 MSTORE SWAP1 SWAP2 KECCAK256 SLOAD PUSH1 0xFF AND ISZERO ISZERO EQ ISZERO PUSH2 0x841 JUMPI PUSH1 0x40 MLOAD PUSH32 0x740E33B000000000000000000000000000000000000000000000000000000000 DUP2 MSTORE PUSH1 0x4 ADD PUSH1 0x40 MLOAD DUP1 SWAP2 SUB SWAP1 REVERT JUMPDEST CALLER PUSH1 0x0 SWAP1 DUP2 MSTORE PUSH1 0x9 PUSH1 0x20 SWAP1 DUP2 MSTORE PUSH1 0x40 DUP1 DUP4 KECCAK256 PUSH1 0x7 DUP1 SLOAD DUP6 MSTORE PUSH1 0x1 SWAP2 DUP3 ADD DUP5 MSTORE DUP3 DUP6 KECCAK256 DUP1 SLOAD PUSH1 0xFF NOT AND DUP4 OR SWAP1 SSTORE SLOAD DUP5 MSTORE PUSH1 0xA SWAP1 SWAP3 MSTORE DUP3 KECCAK256 DUP1 SLOAD SWAP2 SWAP3 SWAP1 SWAP2 PUSH2 0x4E8 SWAP1 DUP5 SWAP1 PUSH2 0x1872 JUMP JUMPDEST PUSH1 0x1 PUSH1 0x1 PUSH1 0xA0 SHL SUB DUP2 AND PUSH1 0x0 SWAP1 DUP2 MSTORE PUSH1 0xC PUSH1 0x20 MSTORE PUSH1 0x40 SWAP1 KECCAK256 DUP1 SLOAD ISZERO PUSH2 0x91A JUMPI PUSH2 0x8B4 DUP2 PUSH1 0x6 ADD SLOAD PUSH2 0xD97 JUMP JUMPDEST PUSH2 0x8EA JUMPI PUSH1 0x40 MLOAD PUSH32 0xDD8456CC00000000000000000000000000000000000000000000000000000000 DUP2 MSTORE PUSH1 0x4 ADD PUSH1 0x40 MLOAD DUP1 SWAP2 SUB SWAP1 REVERT JUMPDEST PUSH1 0x0 PUSH1 0x5 DUP3 ADD SSTORE TIMESTAMP PUSH1 0x6 DUP3 ADD SSTORE PUSH1 0xB SLOAD DUP2 SLOAD PUSH2 0x91A SWAP2 PUSH1 0x1 PUSH1 0x1 PUSH1 0xA0 SHL SUB AND SWAP1 CALLER SWAP1 PUSH2 0x915 SWAP1 PUSH2 0x12A4 JUMP JUMPDEST PUSH2 0x12C6 JUMP JUMPDEST POP POP JUMP JUMPDEST PUSH1 0x1 SLOAD PUSH1 0x0 SWAP1 PUSH1 0x1 PUSH1 0x1 PUSH1 0xA0 SHL SUB AND CALLER EQ PUSH2 0x97B JUMPI PUSH1 0x40 MLOAD PUSH3 0x461BCD PUSH1 0xE5 SHL DUP2 MSTORE PUSH1 0x20 PUSH1 0x4 DUP3 ADD DUP2 SWAP1 MSTORE PUSH1 0x24 DUP3 ADD MSTORE PUSH32 0x4F776E61626C653A2063616C6C6572206973206E6F7420746865206F776E6572 PUSH1 0x44 DUP3 ADD MSTORE PUSH1 0x64 ADD PUSH2 0x44F JUMP JUMPDEST PUSH2 0x983 PUSH2 0x11DA JUMP JUMPDEST PUSH1 0x1 PUSH1 0x8 SLOAD GT PUSH2 0x9BF JUMPI PUSH1 0x40 MLOAD PUSH32 0x2F9686DE00000000000000000000000000000000000000000000000000000000 DUP2 MSTORE PUSH1 0x4 ADD PUSH1 0x40 MLOAD DUP1 SWAP2 SUB SWAP1 REVERT JUMPDEST PUSH1 0x0 PUSH1 0xA PUSH1 0x8 SLOAD PUSH1 0x5 PUSH2 0x9D2 SWAP2 SWAP1 PUSH2 0x1831 JUMP JUMPDEST PUSH2 0x9DC SWAP2 SWAP1 PUSH2 0x1850 JUMP JUMPDEST PUSH1 0x7 SLOAD PUSH1 0x0 SWAP1 DUP2 MSTORE PUSH1 0xA PUSH1 0x20 MSTORE PUSH1 0x40 SWAP1 KECCAK256 SLOAD SWAP1 SWAP2 POP DUP2 LT ISZERO PUSH2 0xA00 JUMPI PUSH1 0x1 SWAP2 POP POP SWAP1 JUMP JUMPDEST PUSH1 0x0 SWAP2 POP POP SWAP1 JUMP JUMPDEST PUSH1 0x1 SLOAD PUSH1 0x1 PUSH1 0x1 PUSH1 0xA0 SHL SUB AND CALLER EQ PUSH2 0xA62 JUMPI PUSH1 0x40 MLOAD PUSH3 0x461BCD PUSH1 0xE5 SHL DUP2 MSTORE PUSH1 0x20 PUSH1 0x4 DUP3 ADD DUP2 SWAP1 MSTORE PUSH1 0x24 DUP3 ADD MSTORE PUSH32 0x4F776E61626C653A2063616C6C6572206973206E6F7420746865206F776E6572 PUSH1 0x44 DUP3 ADD MSTORE PUSH1 0x64 ADD PUSH2 0x44F JUMP JUMPDEST PUSH2 0xA6C PUSH1 0x0 PUSH2 0x1374 JUMP JUMPDEST JUMP JUMPDEST PUSH1 0x2 PUSH1 0x0 SLOAD EQ ISZERO PUSH2 0xAC1 JUMPI PUSH1 0x40 MLOAD PUSH3 0x461BCD PUSH1 0xE5 SHL DUP2 MSTORE PUSH1 0x20 PUSH1 0x4 DUP3 ADD MSTORE PUSH1 0x1F PUSH1 0x24 DUP3 ADD MSTORE PUSH32 0x5265656E7472616E637947756172643A207265656E7472616E742063616C6C00 PUSH1 0x44 DUP3 ADD MSTORE PUSH1 0x64 ADD PUSH2 0x44F JUMP JUMPDEST PUSH1 0x2 PUSH1 0x0 SSTORE DUP2 PUSH2 0xAFD JUMPI PUSH1 0x40 MLOAD PUSH32 0x88B440D600000000000000000000000000000000000000000000000000000000 DUP2 MSTORE PUSH1 0x4 ADD PUSH1 0x40 MLOAD DUP1 SWAP2 SUB SWAP1 REVERT JUMPDEST CALLER PUSH1 0x0 SWAP1 DUP2 MSTORE PUSH1 0xC PUSH1 0x20 MSTORE PUSH1 0x40 SWAP1 KECCAK256 SLOAD ISZERO PUSH2 0xB44 JUMPI PUSH1 0x40 MLOAD PUSH32 0x4462D2700000000000000000000000000000000000000000000000000000000 DUP2 MSTORE PUSH1 0x4 ADD PUSH1 0x40 MLOAD DUP1 SWAP2 SUB SWAP1 REVERT JUMPDEST PUSH1 0x0 DUP2 DUP2 MSTORE PUSH1 0x2 PUSH1 0x20 MSTORE PUSH1 0x40 SWAP1 KECCAK256 SLOAD PUSH2 0xB89 JUMPI PUSH1 0x40 MLOAD PUSH32 0x95377BE400000000000000000000000000000000000000000000000000000000 DUP2 MSTORE PUSH1 0x4 ADD PUSH1 0x40 MLOAD DUP1 SWAP2 SUB SWAP1 REVERT JUMPDEST PUSH1 0x1 PUSH1 0x8 PUSH1 0x0 DUP3 DUP3 SLOAD PUSH2 0xB9C SWAP2 SWAP1 PUSH2 0x1872 JUMP JUMPDEST SWAP1 SWAP2 SSTORE POP POP CALLER PUSH1 0x0 SWAP1 DUP2 MSTORE PUSH1 0x9 PUSH1 0x20 SWAP1 DUP2 MSTORE PUSH1 0x40 DUP1 DUP4 KECCAK256 DUP1 SLOAD PUSH1 0xFF NOT AND PUSH1 0x1 OR SWAP1 SSTORE DUP1 MLOAD PUSH1 0xE0 DUP2 ADD DUP3 MSTORE DUP6 DUP2 MSTORE TIMESTAMP DUP2 DUP5 ADD DUP2 SWAP1 MSTORE DUP6 DUP6 MSTORE PUSH1 0x2 SWAP1 SWAP4 MSTORE SWAP3 DUP2 SWAP1 KECCAK256 SLOAD SWAP1 DUP4 ADD MSTORE SWAP1 PUSH1 0x60 DUP2 ADD PUSH2 0xBF0 DUP4 DUP6 PUSH2 0x1872 JUMP JUMPDEST DUP2 MSTORE PUSH1 0x0 PUSH1 0x20 DUP1 DUP4 ADD DUP3 SWAP1 MSTORE PUSH1 0x40 DUP1 DUP5 ADD DUP4 SWAP1 MSTORE PUSH1 0x60 SWAP4 DUP5 ADD DUP4 SWAP1 MSTORE CALLER DUP1 DUP5 MSTORE PUSH1 0xC DUP4 MSTORE SWAP3 DUP2 SWAP1 KECCAK256 DUP6 MLOAD DUP2 SSTORE SWAP2 DUP6 ADD MLOAD PUSH1 0x1 DUP4 ADD SSTORE DUP5 ADD MLOAD PUSH1 0x2 DUP3 ADD SSTORE SWAP2 DUP4 ADD MLOAD PUSH1 0x3 DUP4 ADD SSTORE PUSH1 0x80 DUP4 ADD MLOAD PUSH1 0x4 DUP4 ADD SSTORE PUSH1 0xA0 DUP4 ADD MLOAD PUSH1 0x5 DUP4 ADD SSTORE PUSH1 0xC0 SWAP1 SWAP3 ADD MLOAD PUSH1 0x6 SWAP1 SWAP2 ADD SSTORE PUSH1 0xB SLOAD PUSH2 0xC70 SWAP2 PUSH1 0x1 PUSH1 0x1 PUSH1 0xA0 SHL SUB SWAP1 SWAP2 AND SWAP1 ADDRESS DUP7 PUSH2 0x13DE JUMP JUMPDEST CALLER PUSH32 0xB4CAAF29ADDA3EEFEE3AD552A8E85058589BF834C7466CAE4EE58787F70589ED DUP5 DUP4 PUSH2 0xC9E DUP2 DUP8 PUSH2 0x1872 JUMP JUMPDEST PUSH1 0x40 DUP1 MLOAD SWAP4 DUP5 MSTORE PUSH1 0x20 DUP5 ADD SWAP3 SWAP1 SWAP3 MSTORE SWAP1 DUP3 ADD MSTORE PUSH1 0x60 ADD PUSH1 0x40 MLOAD DUP1 SWAP2 SUB SWAP1 LOG2 POP POP PUSH1 0x1 PUSH1 0x0 SSTORE POP JUMP JUMPDEST PUSH1 0x1 SLOAD PUSH1 0x1 PUSH1 0x1 PUSH1 0xA0 SHL SUB AND CALLER EQ PUSH2 0xD20 JUMPI PUSH1 0x40 MLOAD PUSH3 0x461BCD PUSH1 0xE5 SHL DUP2 MSTORE PUSH1 0x20 PUSH1 0x4 DUP3 ADD DUP2 SWAP1 MSTORE PUSH1 0x24 DUP3 ADD MSTORE PUSH32 0x4F776E61626C653A2063616C6C6572206973206E6F7420746865206F776E6572 PUSH1 0x44 DUP3 ADD MSTORE PUSH1 0x64 ADD PUSH2 0x44F JUMP JUMPDEST PUSH1 0x1E DUP2 GT ISZERO PUSH2 0xD5B JUMPI PUSH1 0x40 MLOAD PUSH32 0xF1A470D700000000000000000000000000000000000000000000000000000000 DUP2 MSTORE PUSH1 0x4 ADD PUSH1 0x40 MLOAD DUP1 SWAP2 SUB SWAP1 REVERT JUMPDEST PUSH1 0x3 DUP2 SWAP1 SSTORE PUSH1 0x40 MLOAD DUP2 DUP2 MSTORE PUSH32 0xCFA4F4CF1CD64D13A167A8E75605E0C0C9D6700E903D17C5DC11F593254A04A9 SWAP1 PUSH1 0x20 ADD JUMPDEST PUSH1 0x40 MLOAD DUP1 SWAP2 SUB SWAP1 LOG1 POP JUMP JUMPDEST PUSH1 0x0 PUSH3 0x93A80 PUSH2 0xDA7 DUP4 TIMESTAMP PUSH2 0x181A JUMP JUMPDEST PUSH2 0xDB1 SWAP2 SWAP1 PUSH2 0x1850 JUMP JUMPDEST SWAP3 SWAP2 POP POP JUMP JUMPDEST PUSH1 0x2 PUSH1 0x0 SLOAD EQ ISZERO PUSH2 0xE0A JUMPI PUSH1 0x40 MLOAD PUSH3 0x461BCD PUSH1 0xE5 SHL DUP2 MSTORE PUSH1 0x20 PUSH1 0x4 DUP3 ADD MSTORE PUSH1 0x1F PUSH1 0x24 DUP3 ADD MSTORE PUSH32 0x5265656E7472616E637947756172643A207265656E7472616E742063616C6C00 PUSH1 0x44 DUP3 ADD MSTORE PUSH1 0x64 ADD PUSH2 0x44F JUMP JUMPDEST PUSH1 0x2 PUSH1 0x0 DUP2 DUP2 SSTORE CALLER DUP2 MSTORE PUSH1 0xC PUSH1 0x20 SWAP1 DUP2 MSTORE PUSH1 0x40 DUP1 DUP4 KECCAK256 DUP2 MLOAD PUSH1 0xE0 DUP2 ADD DUP4 MSTORE DUP2 SLOAD DUP2 MSTORE PUSH1 0x1 DUP3 ADD SLOAD SWAP4 DUP2 ADD SWAP4 SWAP1 SWAP4 MSTORE SWAP4 DUP5 ADD SLOAD SWAP1 DUP3 ADD MSTORE PUSH1 0x3 DUP4 ADD SLOAD PUSH1 0x60 DUP3 ADD MSTORE PUSH1 0x4 DUP4 ADD SLOAD PUSH1 0x80 DUP3 ADD MSTORE PUSH1 0x5 DUP4 ADD SLOAD PUSH1 0xA0 DUP3 ADD MSTORE PUSH1 0x6 SWAP1 SWAP3 ADD SLOAD PUSH1 0xC0 DUP4 ADD MSTORE PUSH2 0xE72 DUP3 PUSH2 0x125F JUMP JUMPDEST CALLER PUSH1 0x0 SWAP1 DUP2 MSTORE PUSH1 0xC PUSH1 0x20 MSTORE PUSH1 0x40 DUP2 KECCAK256 DUP2 DUP2 SSTORE PUSH1 0x1 DUP1 DUP3 ADD DUP4 SWAP1 SSTORE PUSH1 0x2 DUP3 ADD DUP4 SWAP1 SSTORE PUSH1 0x3 DUP3 ADD DUP4 SWAP1 SSTORE PUSH1 0x4 DUP3 ADD DUP4 SWAP1 SSTORE PUSH1 0x5 DUP3 ADD DUP4 SWAP1 SSTORE PUSH1 0x6 SWAP1 SWAP2 ADD DUP3 SWAP1 SSTORE PUSH1 0x8 DUP1 SLOAD SWAP4 SWAP5 POP SWAP1 SWAP3 SWAP1 SWAP2 SWAP1 PUSH2 0xEC7 SWAP1 DUP5 SWAP1 PUSH2 0x181A JUMP JUMPDEST SWAP1 SWAP2 SSTORE POP POP CALLER PUSH1 0x0 SWAP1 DUP2 MSTORE PUSH1 0x9 PUSH1 0x20 SWAP1 DUP2 MSTORE PUSH1 0x40 DUP1 DUP4 KECCAK256 PUSH1 0x7 SLOAD DUP5 MSTORE PUSH1 0x1 ADD SWAP1 SWAP2 MSTORE SWAP1 KECCAK256 DUP1 SLOAD PUSH1 0xFF NOT AND SWAP1 SSTORE PUSH1 0x60 DUP3 ADD MLOAD TIMESTAMP LT ISZERO PUSH2 0xF37 JUMPI PUSH1 0x0 DUP1 PUSH2 0xF10 DUP5 PUSH1 0x0 ADD MLOAD DUP5 PUSH2 0x1435 JUMP JUMPDEST PUSH1 0xB SLOAD SWAP2 SWAP4 POP SWAP2 POP PUSH2 0xF30 SWAP1 PUSH1 0x1 PUSH1 0x1 PUSH1 0xA0 SHL SUB AND CALLER PUSH2 0x915 DUP5 DUP7 PUSH2 0x1872 JUMP JUMPDEST POP POP PUSH2 0xF57 JUMP JUMPDEST PUSH1 0xB SLOAD DUP3 MLOAD PUSH2 0xF57 SWAP2 PUSH1 0x1 PUSH1 0x1 PUSH1 0xA0 SHL SUB AND SWAP1 CALLER SWAP1 PUSH2 0x915 SWAP1 DUP6 SWAP1 PUSH2 0x1872 JUMP JUMPDEST POP POP PUSH1 0x1 PUSH1 0x0 SSTORE JUMP JUMPDEST PUSH1 0x1 SLOAD PUSH1 0x1 PUSH1 0x1 PUSH1 0xA0 SHL SUB AND CALLER EQ PUSH2 0xFBA JUMPI PUSH1 0x40 MLOAD PUSH3 0x461BCD PUSH1 0xE5 SHL DUP2 MSTORE PUSH1 0x20 PUSH1 0x4 DUP3 ADD DUP2 SWAP1 MSTORE PUSH1 0x24 DUP3 ADD MSTORE PUSH32 0x4F776E61626C653A2063616C6C6572206973206E6F7420746865206F776E6572 PUSH1 0x44 DUP3 ADD MSTORE PUSH1 0x64 ADD PUSH2 0x44F JUMP JUMPDEST TIMESTAMP PUSH1 0x5 SSTORE JUMP JUMPDEST PUSH1 0x1 SLOAD PUSH1 0x1 PUSH1 0x1 PUSH1 0xA0 SHL SUB AND CALLER EQ PUSH2 0x101A JUMPI PUSH1 0x40 MLOAD PUSH3 0x461BCD PUSH1 0xE5 SHL DUP2 MSTORE PUSH1 0x20 PUSH1 0x4 DUP3 ADD DUP2 SWAP1 MSTORE PUSH1 0x24 DUP3 ADD MSTORE PUSH32 0x4F776E61626C653A2063616C6C6572206973206E6F7420746865206F776E6572 PUSH1 0x44 DUP3 ADD MSTORE PUSH1 0x64 ADD PUSH2 0x44F JUMP JUMPDEST PUSH1 0xC8 DUP2 GT ISZERO PUSH2 0x1055 JUMPI PUSH1 0x40 MLOAD PUSH32 0xA552CF1000000000000000000000000000000000000000000000000000000000 DUP2 MSTORE PUSH1 0x4 ADD PUSH1 0x40 MLOAD DUP1 SWAP2 SUB SWAP1 REVERT JUMPDEST PUSH1 0x4 DUP2 SWAP1 SSTORE PUSH1 0x40 MLOAD DUP2 DUP2 MSTORE PUSH32 0xCC672F1026B958C0CFBFDD89EBE8DDCBC127F16EC24DA6C2C7A4DE26A8B1857E SWAP1 PUSH1 0x20 ADD PUSH2 0xD8C JUMP JUMPDEST PUSH1 0x1 SLOAD PUSH1 0x1 PUSH1 0x1 PUSH1 0xA0 SHL SUB AND CALLER EQ PUSH2 0x10E4 JUMPI PUSH1 0x40 MLOAD PUSH3 0x461BCD PUSH1 0xE5 SHL DUP2 MSTORE PUSH1 0x20 PUSH1 0x4 DUP3 ADD DUP2 SWAP1 MSTORE PUSH1 0x24 DUP3 ADD MSTORE PUSH32 0x4F776E61626C653A2063616C6C6572206973206E6F7420746865206F776E6572 PUSH1 0x44 DUP3 ADD MSTORE PUSH1 0x64 ADD PUSH2 0x44F JUMP JUMPDEST PUSH1 0x1 PUSH1 0x1 PUSH1 0xA0 SHL SUB DUP2 AND PUSH2 0x1160 JUMPI PUSH1 0x40 MLOAD PUSH3 0x461BCD PUSH1 0xE5 SHL DUP2 MSTORE PUSH1 0x20 PUSH1 0x4 DUP3 ADD MSTORE PUSH1 0x26 PUSH1 0x24 DUP3 ADD MSTORE PUSH32 0x4F776E61626C653A206E6577206F776E657220697320746865207A65726F2061 PUSH1 0x44 DUP3 ADD MSTORE PUSH32 0x6464726573730000000000000000000000000000000000000000000000000000 PUSH1 0x64 DUP3 ADD MSTORE PUSH1 0x84 ADD PUSH2 0x44F JUMP JUMPDEST PUSH2 0x1169 DUP2 PUSH2 0x1374 JUMP JUMPDEST POP JUMP JUMPDEST PUSH1 0x1 SLOAD PUSH1 0x1 PUSH1 0x1 PUSH1 0xA0 SHL SUB AND CALLER EQ PUSH2 0x11C6 JUMPI PUSH1 0x40 MLOAD PUSH3 0x461BCD PUSH1 0xE5 SHL DUP2 MSTORE PUSH1 0x20 PUSH1 0x4 DUP3 ADD DUP2 SWAP1 MSTORE PUSH1 0x24 DUP3 ADD MSTORE PUSH32 0x4F776E61626C653A2063616C6C6572206973206E6F7420746865206F776E6572 PUSH1 0x44 DUP3 ADD MSTORE PUSH1 0x64 ADD PUSH2 0x44F JUMP JUMPDEST PUSH2 0x11CE PUSH2 0x11DA JUMP JUMPDEST PUSH1 0x6 DUP1 SLOAD PUSH1 0xFF NOT AND SWAP1 SSTORE JUMP JUMPDEST PUSH1 0x6 SLOAD PUSH1 0xFF AND PUSH2 0xA6C JUMPI PUSH1 0x40 MLOAD PUSH32 0xA1D1891400000000000000000000000000000000000000000000000000000000 DUP2 MSTORE PUSH1 0x4 ADD PUSH1 0x40 MLOAD DUP1 SWAP2 SUB SWAP1 REVERT JUMPDEST CALLER PUSH1 0x0 SWAP1 DUP2 MSTORE PUSH1 0x9 PUSH1 0x20 MSTORE PUSH1 0x40 SWAP1 KECCAK256 SLOAD PUSH1 0xFF AND PUSH2 0xA6C JUMPI PUSH1 0x40 MLOAD PUSH32 0x1E567DD400000000000000000000000000000000000000000000000000000000 DUP2 MSTORE PUSH1 0x4 ADD PUSH1 0x40 MLOAD DUP1 SWAP2 SUB SWAP1 REVERT JUMPDEST DUP1 MLOAD PUSH1 0x0 SWAP1 PUSH2 0x1270 JUMPI POP PUSH1 0x0 SWAP2 SWAP1 POP JUMP JUMPDEST PUSH11 0x52B7D2DCC80CD2E4000000 PUSH2 0x1289 DUP4 PUSH1 0x20 ADD MLOAD PUSH2 0x149E JUMP JUMPDEST PUSH1 0x40 DUP5 ADD MLOAD DUP5 MLOAD PUSH2 0x129A SWAP2 SWAP1 PUSH2 0x1831 JUMP JUMPDEST PUSH2 0xDA7 SWAP2 SWAP1 PUSH2 0x1831 JUMP JUMPDEST PUSH1 0x0 PUSH4 0x1DFE200 PUSH2 0x3E8 PUSH1 0x4 SLOAD DUP5 PUSH2 0x12BC SWAP2 SWAP1 PUSH2 0x1831 JUMP JUMPDEST PUSH2 0xDA7 SWAP2 SWAP1 PUSH2 0x1850 JUMP JUMPDEST PUSH1 0x40 MLOAD PUSH1 0x1 PUSH1 0x1 PUSH1 0xA0 SHL SUB DUP4 AND PUSH1 0x24 DUP3 ADD MSTORE PUSH1 0x44 DUP2 ADD DUP3 SWAP1 MSTORE PUSH2 0x136F SWAP1 DUP5 SWAP1 PUSH32 0xA9059CBB00000000000000000000000000000000000000000000000000000000 SWAP1 PUSH1 0x64 ADD JUMPDEST PUSH1 0x40 DUP1 MLOAD PUSH1 0x1F NOT DUP2 DUP5 SUB ADD DUP2 MSTORE SWAP2 SWAP1 MSTORE PUSH1 0x20 DUP2 ADD DUP1 MLOAD PUSH28 0xFFFFFFFFFFFFFFFFFFFFFFFFFFFFFFFFFFFFFFFFFFFFFFFFFFFFFFFF AND PUSH32 0xFFFFFFFF00000000000000000000000000000000000000000000000000000000 SWAP1 SWAP4 AND SWAP3 SWAP1 SWAP3 OR SWAP1 SWAP2 MSTORE PUSH2 0x14C3 JUMP JUMPDEST POP POP POP JUMP JUMPDEST PUSH1 0x1 DUP1 SLOAD PUSH1 0x1 PUSH1 0x1 PUSH1 0xA0 SHL SUB DUP4 DUP2 AND PUSH32 0xFFFFFFFFFFFFFFFFFFFFFFFF0000000000000000000000000000000000000000 DUP4 AND DUP2 OR SWAP1 SWAP4 SSTORE PUSH1 0x40 MLOAD SWAP2 AND SWAP2 SWAP1 DUP3 SWAP1 PUSH32 0x8BE0079C531659141344CD1FD0A4F28419497F9722A3DAAFE3B4186F6B6457E0 SWAP1 PUSH1 0x0 SWAP1 LOG3 POP POP JUMP JUMPDEST PUSH1 0x40 MLOAD PUSH1 0x1 PUSH1 0x1 PUSH1 0xA0 SHL SUB DUP1 DUP6 AND PUSH1 0x24 DUP4 ADD MSTORE DUP4 AND PUSH1 0x44 DUP3 ADD MSTORE PUSH1 0x64 DUP2 ADD DUP3 SWAP1 MSTORE PUSH2 0x142F SWAP1 DUP6 SWAP1 PUSH32 0x23B872DD00000000000000000000000000000000000000000000000000000000 SWAP1 PUSH1 0x84 ADD PUSH2 0x130B JUMP JUMPDEST POP POP POP POP JUMP JUMPDEST PUSH1 0x0 DUP1 DUP4 PUSH2 0x1448 JUMPI POP PUSH1 0x0 SWAP1 POP DUP1 PUSH2 0x1497 JUMP JUMPDEST PUSH2 0x3E8 PUSH1 0x3 SLOAD DUP6 PUSH2 0x1459 SWAP2 SWAP1 PUSH2 0x1831 JUMP JUMPDEST PUSH2 0x1463 SWAP2 SWAP1 PUSH2 0x1850 JUMP JUMPDEST PUSH2 0x146D SWAP1 DUP6 PUSH2 0x181A JUMP JUMPDEST PUSH2 0x3E8 PUSH1 0x3 SLOAD DUP6 PUSH2 0x147E SWAP2 SWAP1 PUSH2 0x1831 JUMP JUMPDEST PUSH2 0x1488 SWAP2 SWAP1 PUSH2 0x1850 JUMP JUMPDEST PUSH2 0x1492 SWAP1 DUP6 PUSH2 0x181A JUMP JUMPDEST SWAP2 POP SWAP2 POP JUMPDEST SWAP3 POP SWAP3 SWAP1 POP JUMP JUMPDEST PUSH1 0x0 PUSH4 0x1E13380 PUSH2 0x14AF DUP4 TIMESTAMP PUSH2 0x181A JUMP JUMPDEST PUSH2 0xDA7 SWAP1 PUSH10 0xD3C21BCECCEDA1000000 PUSH2 0x1831 JUMP JUMPDEST PUSH1 0x0 PUSH2 0x1518 DUP3 PUSH1 0x40 MLOAD DUP1 PUSH1 0x40 ADD PUSH1 0x40 MSTORE DUP1 PUSH1 0x20 DUP2 MSTORE PUSH1 0x20 ADD PUSH32 0x5361666545524332303A206C6F772D6C6576656C2063616C6C206661696C6564 DUP2 MSTORE POP DUP6 PUSH1 0x1 PUSH1 0x1 PUSH1 0xA0 SHL SUB AND PUSH2 0x15A8 SWAP1 SWAP3 SWAP2 SWAP1 PUSH4 0xFFFFFFFF AND JUMP JUMPDEST DUP1 MLOAD SWAP1 SWAP2 POP ISZERO PUSH2 0x136F JUMPI DUP1 DUP1 PUSH1 0x20 ADD SWAP1 MLOAD DUP2 ADD SWAP1 PUSH2 0x1536 SWAP2 SWAP1 PUSH2 0x188A JUMP JUMPDEST PUSH2 0x136F JUMPI PUSH1 0x40 MLOAD PUSH3 0x461BCD PUSH1 0xE5 SHL DUP2 MSTORE PUSH1 0x20 PUSH1 0x4 DUP3 ADD MSTORE PUSH1 0x2A PUSH1 0x24 DUP3 ADD MSTORE PUSH32 0x5361666545524332303A204552433230206F7065726174696F6E20646964206E PUSH1 0x44 DUP3 ADD MSTORE PUSH32 0x6F74207375636365656400000000000000000000000000000000000000000000 PUSH1 0x64 DUP3 ADD MSTORE PUSH1 0x84 ADD PUSH2 0x44F JUMP JUMPDEST PUSH1 0x60 PUSH2 0x15B7 DUP5 DUP5 PUSH1 0x0 DUP6 PUSH2 0x15C1 JUMP JUMPDEST SWAP1 POP JUMPDEST SWAP4 SWAP3 POP POP POP JUMP JUMPDEST PUSH1 0x60 DUP3 SELFBALANCE LT ISZERO PUSH2 0x1639 JUMPI PUSH1 0x40 MLOAD PUSH3 0x461BCD PUSH1 0xE5 SHL DUP2 MSTORE PUSH1 0x20 PUSH1 0x4 DUP3 ADD MSTORE PUSH1 0x26 PUSH1 0x24 DUP3 ADD MSTORE PUSH32 0x416464726573733A20696E73756666696369656E742062616C616E636520666F PUSH1 0x44 DUP3 ADD MSTORE PUSH32 0x722063616C6C0000000000000000000000000000000000000000000000000000 PUSH1 0x64 DUP3 ADD MSTORE PUSH1 0x84 ADD PUSH2 0x44F JUMP JUMPDEST PUSH1 0x1 PUSH1 0x1 PUSH1 0xA0 SHL SUB DUP6 AND EXTCODESIZE PUSH2 0x1690 JUMPI PUSH1 0x40 MLOAD PUSH3 0x461BCD PUSH1 0xE5 SHL DUP2 MSTORE PUSH1 0x20 PUSH1 0x4 DUP3 ADD MSTORE PUSH1 0x1D PUSH1 0x24 DUP3 ADD MSTORE PUSH32 0x416464726573733A2063616C6C20746F206E6F6E2D636F6E7472616374000000 PUSH1 0x44 DUP3 ADD MSTORE PUSH1 0x64 ADD PUSH2 0x44F JUMP JUMPDEST PUSH1 0x0 DUP1 DUP7 PUSH1 0x1 PUSH1 0x1 PUSH1 0xA0 SHL SUB AND DUP6 DUP8 PUSH1 0x40 MLOAD PUSH2 0x16AC SWAP2 SWAP1 PUSH2 0x18D8 JUMP JUMPDEST PUSH1 0x0 PUSH1 0x40 MLOAD DUP1 DUP4 SUB DUP2 DUP6 DUP8 GAS CALL SWAP3 POP POP POP RETURNDATASIZE DUP1 PUSH1 0x0 DUP2 EQ PUSH2 0x16E9 JUMPI PUSH1 0x40 MLOAD SWAP2 POP PUSH1 0x1F NOT PUSH1 0x3F RETURNDATASIZE ADD AND DUP3 ADD PUSH1 0x40 MSTORE RETURNDATASIZE DUP3 MSTORE RETURNDATASIZE PUSH1 0x0 PUSH1 0x20 DUP5 ADD RETURNDATACOPY PUSH2 0x16EE JUMP JUMPDEST PUSH1 0x60 SWAP2 POP JUMPDEST POP SWAP2 POP SWAP2 POP PUSH2 0x16FE DUP3 DUP3 DUP7 PUSH2 0x1709 JUMP JUMPDEST SWAP8 SWAP7 POP POP POP POP POP POP POP JUMP JUMPDEST PUSH1 0x60 DUP4 ISZERO PUSH2 0x1718 JUMPI POP DUP2 PUSH2 0x15BA JUMP JUMPDEST DUP3 MLOAD ISZERO PUSH2 0x1728 JUMPI DUP3 MLOAD DUP1 DUP5 PUSH1 0x20 ADD REVERT JUMPDEST DUP2 PUSH1 0x40 MLOAD PUSH3 0x461BCD PUSH1 0xE5 SHL DUP2 MSTORE PUSH1 0x4 ADD PUSH2 0x44F SWAP2 SWAP1 PUSH2 0x18F4 JUMP JUMPDEST PUSH1 0x40 MLOAD DUP1 PUSH1 0x60 ADD PUSH1 0x40 MSTORE DUP1 PUSH1 0x0 DUP2 MSTORE PUSH1 0x20 ADD PUSH1 0x0 DUP2 MSTORE PUSH1 0x20 ADD PUSH2 0x179B PUSH1 0x40 MLOAD DUP1 PUSH1 0xE0 ADD PUSH1 0x40 MSTORE DUP1 PUSH1 0x0 DUP2 MSTORE PUSH1 0x20 ADD PUSH1 0x0 DUP2 MSTORE PUSH1 0x20 ADD PUSH1 0x0 DUP2 MSTORE PUSH1 0x20 ADD PUSH1 0x0 DUP2 MSTORE PUSH1 0x20 ADD PUSH1 0x0 DUP2 MSTORE PUSH1 0x20 ADD PUSH1 0x0 DUP2 MSTORE PUSH1 0x20 ADD PUSH1 0x0 DUP2 MSTORE POP SWAP1 JUMP JUMPDEST SWAP1 MSTORE SWAP1 JUMP JUMPDEST PUSH1 0x0 PUSH1 0x20 DUP3 DUP5 SUB SLT ISZERO PUSH2 0x17B2 JUMPI PUSH1 0x0 DUP1 REVERT JUMPDEST DUP2 CALLDATALOAD PUSH1 0x1 PUSH1 0x1 PUSH1 0xA0 SHL SUB DUP2 AND DUP2 EQ PUSH2 0x15BA JUMPI PUSH1 0x0 DUP1 REVERT JUMPDEST PUSH1 0x0 DUP1 PUSH1 0x40 DUP4 DUP6 SUB SLT ISZERO PUSH2 0x17DC JUMPI PUSH1 0x0 DUP1 REVERT JUMPDEST POP POP DUP1 CALLDATALOAD SWAP3 PUSH1 0x20 SWAP1 SWAP2 ADD CALLDATALOAD SWAP2 POP JUMP JUMPDEST PUSH1 0x0 PUSH1 0x20 DUP3 DUP5 SUB SLT ISZERO PUSH2 0x17FD JUMPI PUSH1 0x0 DUP1 REVERT JUMPDEST POP CALLDATALOAD SWAP2 SWAP1 POP JUMP JUMPDEST PUSH4 0x4E487B71 PUSH1 0xE0 SHL PUSH1 0x0 MSTORE PUSH1 0x11 PUSH1 0x4 MSTORE PUSH1 0x24 PUSH1 0x0 REVERT JUMPDEST PUSH1 0x0 DUP3 DUP3 LT ISZERO PUSH2 0x182C JUMPI PUSH2 0x182C PUSH2 0x1804 JUMP JUMPDEST POP SUB SWAP1 JUMP JUMPDEST PUSH1 0x0 DUP2 PUSH1 0x0 NOT DIV DUP4 GT DUP3 ISZERO ISZERO AND ISZERO PUSH2 0x184B JUMPI PUSH2 0x184B PUSH2 0x1804 JUMP JUMPDEST POP MUL SWAP1 JUMP JUMPDEST PUSH1 0x0 DUP3 PUSH2 0x186D JUMPI PUSH4 0x4E487B71 PUSH1 0xE0 SHL PUSH1 0x0 MSTORE PUSH1 0x12 PUSH1 0x4 MSTORE PUSH1 0x24 PUSH1 0x0 REVERT JUMPDEST POP DIV SWAP1 JUMP JUMPDEST PUSH1 0x0 DUP3 NOT DUP3 GT ISZERO PUSH2 0x1885 JUMPI PUSH2 0x1885 PUSH2 0x1804 JUMP JUMPDEST POP ADD SWAP1 JUMP JUMPDEST PUSH1 0x0 PUSH1 0x20 DUP3 DUP5 SUB SLT ISZERO PUSH2 0x189C JUMPI PUSH1 0x0 DUP1 REVERT JUMPDEST DUP2 MLOAD DUP1 ISZERO ISZERO DUP2 EQ PUSH2 0x15BA JUMPI PUSH1 0x0 DUP1 REVERT JUMPDEST PUSH1 0x0 JUMPDEST DUP4 DUP2 LT ISZERO PUSH2 0x18C7 JUMPI DUP2 DUP2 ADD MLOAD DUP4 DUP3 ADD MSTORE PUSH1 0x20 ADD PUSH2 0x18AF JUMP JUMPDEST DUP4 DUP2 GT ISZERO PUSH2 0x142F JUMPI POP POP PUSH1 0x0 SWAP2 ADD MSTORE JUMP JUMPDEST PUSH1 0x0 DUP3 MLOAD PUSH2 0x18EA DUP2 DUP5 PUSH1 0x20 DUP8 ADD PUSH2 0x18AC JUMP JUMPDEST SWAP2 SWAP1 SWAP2 ADD SWAP3 SWAP2 POP POP JUMP JUMPDEST PUSH1 0x20 DUP2 MSTORE PUSH1 0x0 DUP3 MLOAD DUP1 PUSH1 0x20 DUP5 ADD MSTORE PUSH2 0x1913 DUP2 PUSH1 0x40 DUP6 ADD PUSH1 0x20 DUP8 ADD PUSH2 0x18AC JUMP JUMPDEST PUSH1 0x1F ADD PUSH1 0x1F NOT AND SWAP2 SWAP1 SWAP2 ADD PUSH1 0x40 ADD SWAP3 SWAP2 POP POP JUMP INVALID LOG2 PUSH5 0x6970667358 0x22 SLT KECCAK256 SWAP3 0x4B SELFDESTRUCT SWAP6 PUSH31 0x7F69583060636B15521CA137BFAFE9375A3B4E39B7DE3BF6120E864736F6C PUSH4 0x4300080B STOP CALLER "
				},
				"gasEstimates": {
					"creation": {
						"codeDepositCost": "1298600",
						"executionCost": "infinite",
						"totalCost": "infinite"
					},
					"external": {
						"_blockTimestamp()": "258",
						"airdropRate()": "2362",
						"airdropSince()": "2384",
						"calculateWeek(uint256)": "487",
						"changeAirdropPercentage(uint256)": "25633",
						"changePenaltyFee(uint256)": "25645",
						"claimAirdrop(address)": "infinite",
						"getVoters(address)": "6889",
						"getVotingResult()": "13271",
						"hasStake()": "infinite",
						"owner()": "2399",
						"renounceOwnership()": "28192",
						"retractVote()": "infinite",
						"stake(uint256,uint256)": "infinite",
						"stakingPenaltyRate()": "2384",
						"startAirdrop()": "24433",
						"startVoting()": "82279",
						"stopVoting()": "28759",
						"token_address()": "2383",
						"totalVoters()": "2363",
						"transferOwnership(address)": "28350",
						"vote()": "infinite",
						"votedUsers(uint256)": "2528",
						"voters(address)": "2541",
						"withdrawStake()": "infinite"
					},
					"internal": {
						"_calculateAirdrop(uint256)": "infinite",
						"_calculateStakeReward(struct Staking.Stake memory)": "infinite",
						"_calculateStakingDuration(uint256)": "243",
						"_calculateStakingWithPenalty(uint256,uint256)": "infinite",
						"_checkVotingStatus()": "infinite",
						"_isVoter()": "infinite"
					}
				},
				"methodIdentifiers": {
					"_blockTimestamp()": "c63aa3e7",
					"airdropRate()": "8891cf0d",
					"airdropSince()": "b87da76d",
					"calculateWeek(uint256)": "b5d9df83",
					"changeAirdropPercentage(uint256)": "d5dbdf1b",
					"changePenaltyFee(uint256)": "8c63f97f",
					"claimAirdrop(address)": "65f8c6c5",
					"getVoters(address)": "2d15cc04",
					"getVotingResult()": "671d2b75",
					"hasStake()": "10486b6a",
					"owner()": "8da5cb5b",
					"renounceOwnership()": "715018a6",
					"retractVote()": "070c8b74",
					"stake(uint256,uint256)": "7b0472f0",
					"stakingPenaltyRate()": "cb79c2e1",
					"startAirdrop()": "d2a569c3",
					"startVoting()": "1ec6b60a",
					"stopVoting()": "fab2f86b",
					"token_address()": "8c8e8fee",
					"totalVoters()": "5f5300ff",
					"transferOwnership(address)": "f2fde38b",
					"vote()": "632a9a52",
					"votedUsers(uint256)": "a143a5f2",
					"voters(address)": "a3ec138d",
					"withdrawStake()": "bed9d861"
				}
			},
			"storageLayout": {
				"storage": [
					{
						"astId": 115,
						"contract": "contracts/Stakable-2.0.sol:Staking",
						"label": "_status",
						"offset": 0,
						"slot": "0",
						"type": "t_uint256"
					},
					{
						"astId": 7,
						"contract": "contracts/Stakable-2.0.sol:Staking",
						"label": "_owner",
						"offset": 0,
						"slot": "1",
						"type": "t_address"
					},
					{
						"astId": 815,
						"contract": "contracts/Stakable-2.0.sol:Staking",
						"label": "stakingPackage",
						"offset": 0,
						"slot": "2",
						"type": "t_mapping(t_uint256,t_uint256)"
					},
					{
						"astId": 817,
						"contract": "contracts/Stakable-2.0.sol:Staking",
						"label": "stakingPenaltyRate",
						"offset": 0,
						"slot": "3",
						"type": "t_uint256"
					},
					{
						"astId": 819,
						"contract": "contracts/Stakable-2.0.sol:Staking",
						"label": "airdropRate",
						"offset": 0,
						"slot": "4",
						"type": "t_uint256"
					},
					{
						"astId": 821,
						"contract": "contracts/Stakable-2.0.sol:Staking",
						"label": "airdropSince",
						"offset": 0,
						"slot": "5",
						"type": "t_uint256"
					},
					{
						"astId": 823,
						"contract": "contracts/Stakable-2.0.sol:Staking",
						"label": "_votingStatus",
						"offset": 0,
						"slot": "6",
						"type": "t_bool"
					},
					{
						"astId": 825,
						"contract": "contracts/Stakable-2.0.sol:Staking",
						"label": "_votingId",
						"offset": 0,
						"slot": "7",
						"type": "t_uint256"
					},
					{
						"astId": 827,
						"contract": "contracts/Stakable-2.0.sol:Staking",
						"label": "totalVoters",
						"offset": 0,
						"slot": "8",
						"type": "t_uint256"
					},
					{
						"astId": 832,
						"contract": "contracts/Stakable-2.0.sol:Staking",
						"label": "voters",
						"offset": 0,
						"slot": "9",
						"type": "t_mapping(t_address,t_struct(Voter)811_storage)"
					},
					{
						"astId": 836,
						"contract": "contracts/Stakable-2.0.sol:Staking",
						"label": "votedUsers",
						"offset": 0,
						"slot": "10",
						"type": "t_mapping(t_uint256,t_uint256)"
					},
					{
						"astId": 838,
						"contract": "contracts/Stakable-2.0.sol:Staking",
						"label": "token_address",
						"offset": 0,
						"slot": "11",
						"type": "t_address"
					},
					{
						"astId": 903,
						"contract": "contracts/Stakable-2.0.sol:Staking",
						"label": "stakeholders",
						"offset": 0,
						"slot": "12",
						"type": "t_mapping(t_address,t_struct(Stake)889_storage)"
					}
				],
				"types": {
					"t_address": {
						"encoding": "inplace",
						"label": "address",
						"numberOfBytes": "20"
					},
					"t_bool": {
						"encoding": "inplace",
						"label": "bool",
						"numberOfBytes": "1"
					},
					"t_mapping(t_address,t_struct(Stake)889_storage)": {
						"encoding": "mapping",
						"key": "t_address",
						"label": "mapping(address => struct Staking.Stake)",
						"numberOfBytes": "32",
						"value": "t_struct(Stake)889_storage"
					},
					"t_mapping(t_address,t_struct(Voter)811_storage)": {
						"encoding": "mapping",
						"key": "t_address",
						"label": "mapping(address => struct Staking.Voter)",
						"numberOfBytes": "32",
						"value": "t_struct(Voter)811_storage"
					},
					"t_mapping(t_uint256,t_bool)": {
						"encoding": "mapping",
						"key": "t_uint256",
						"label": "mapping(uint256 => bool)",
						"numberOfBytes": "32",
						"value": "t_bool"
					},
					"t_mapping(t_uint256,t_uint256)": {
						"encoding": "mapping",
						"key": "t_uint256",
						"label": "mapping(uint256 => uint256)",
						"numberOfBytes": "32",
						"value": "t_uint256"
					},
					"t_struct(Stake)889_storage": {
						"encoding": "inplace",
						"label": "struct Staking.Stake",
						"members": [
							{
								"astId": 876,
								"contract": "contracts/Stakable-2.0.sol:Staking",
								"label": "amount",
								"offset": 0,
								"slot": "0",
								"type": "t_uint256"
							},
							{
								"astId": 878,
								"contract": "contracts/Stakable-2.0.sol:Staking",
								"label": "since",
								"offset": 0,
								"slot": "1",
								"type": "t_uint256"
							},
							{
								"astId": 880,
								"contract": "contracts/Stakable-2.0.sol:Staking",
								"label": "rewardAPY",
								"offset": 0,
								"slot": "2",
								"type": "t_uint256"
							},
							{
								"astId": 882,
								"contract": "contracts/Stakable-2.0.sol:Staking",
								"label": "releaseTime",
								"offset": 0,
								"slot": "3",
								"type": "t_uint256"
							},
							{
								"astId": 884,
								"contract": "contracts/Stakable-2.0.sol:Staking",
								"label": "claimable",
								"offset": 0,
								"slot": "4",
								"type": "t_uint256"
							},
							{
								"astId": 886,
								"contract": "contracts/Stakable-2.0.sol:Staking",
								"label": "claimableAirdrop",
								"offset": 0,
								"slot": "5",
								"type": "t_uint256"
							},
							{
								"astId": 888,
								"contract": "contracts/Stakable-2.0.sol:Staking",
								"label": "latestClaimDrop",
								"offset": 0,
								"slot": "6",
								"type": "t_uint256"
							}
						],
						"numberOfBytes": "224"
					},
					"t_struct(Voter)811_storage": {
						"encoding": "inplace",
						"label": "struct Staking.Voter",
						"members": [
							{
								"astId": 806,
								"contract": "contracts/Stakable-2.0.sol:Staking",
								"label": "votingRight",
								"offset": 0,
								"slot": "0",
								"type": "t_bool"
							},
							{
								"astId": 810,
								"contract": "contracts/Stakable-2.0.sol:Staking",
								"label": "voted",
								"offset": 0,
								"slot": "1",
								"type": "t_mapping(t_uint256,t_bool)"
							}
						],
						"numberOfBytes": "64"
					},
					"t_uint256": {
						"encoding": "inplace",
						"label": "uint256",
						"numberOfBytes": "32"
					}
				}
			},
			"userdoc": {
				"errors": {
					"Airdrop__claimableOnceAWeek()": [
						{
							"notice": "Error handling message for Airdrop functions"
						}
					],
					"Staking__cannotStakeNothing()": [
						{
							"notice": "Error handling message for Staking functions"
						}
					],
					"Voting__votingIsRunning()": [
						{
							"notice": "Error handling message for Voting functions"
						}
					]
				},
				"events": {
					"Staked(address,uint256,uint256,uint256)": {
						"notice": "Staked event is triggered whenever a user stakes tokens, address is indexed to make it filterable"
					}
				},
				"kind": "user",
				"methods": {
					"stake(uint256,uint256)": {
						"notice": "_Stake is used to make a stake for an sender. It will remove the amount staked from the stakers account and place those tokens inside a stake container StakeID"
					},
					"withdrawStake()": {
						"notice": "withdrawStake takes in an amount and a index of the stake and will remove tokens from that stake Notice index of the stake is the users stake counter, starting at 0 for the first stake Will return the amount to MINT onto the account Will also _calculateStakeReward and reset timer"
					}
				},
				"version": 1
			}
		}
	}
}