{
	"contracts/Whitelist-2.0.sol": {
		"WhitelistVesting": {
			"abi": [
				{
					"inputs": [
						{
							"internalType": "address",
							"name": "token",
							"type": "address"
						},
						{
							"internalType": "uint64",
							"name": "startTimestamp",
							"type": "uint64"
						},
						{
							"internalType": "uint64",
							"name": "durationSeconds",
							"type": "uint64"
						}
					],
					"stateMutability": "payable",
					"type": "constructor"
				},
				{
					"anonymous": false,
					"inputs": [
						{
							"indexed": true,
							"internalType": "address",
							"name": "token",
							"type": "address"
						},
						{
							"indexed": true,
							"internalType": "address",
							"name": "user",
							"type": "address"
						},
						{
							"indexed": false,
							"internalType": "uint256",
							"name": "amount",
							"type": "uint256"
						}
					],
					"name": "ERC20Released",
					"type": "event"
				},
				{
					"anonymous": false,
					"inputs": [
						{
							"indexed": true,
							"internalType": "address",
							"name": "previousOwner",
							"type": "address"
						},
						{
							"indexed": true,
							"internalType": "address",
							"name": "newOwner",
							"type": "address"
						}
					],
					"name": "OwnershipTransferred",
					"type": "event"
				},
				{
					"inputs": [
						{
							"components": [
								{
									"internalType": "address",
									"name": "user",
									"type": "address"
								},
								{
									"internalType": "uint256",
									"name": "amount",
									"type": "uint256"
								}
							],
							"internalType": "struct WhitelistVesting.Beneficiary[]",
							"name": "users",
							"type": "tuple[]"
						}
					],
					"name": "addMultiVesting",
					"outputs": [],
					"stateMutability": "nonpayable",
					"type": "function"
				},
				{
					"inputs": [
						{
							"components": [
								{
									"internalType": "address",
									"name": "user",
									"type": "address"
								},
								{
									"internalType": "uint256",
									"name": "amount",
									"type": "uint256"
								}
							],
							"internalType": "struct WhitelistVesting.Beneficiary[]",
							"name": "users",
							"type": "tuple[]"
						}
					],
					"name": "deleteMultiVesting",
					"outputs": [],
					"stateMutability": "nonpayable",
					"type": "function"
				},
				{
					"inputs": [],
					"name": "duration",
					"outputs": [
						{
							"internalType": "uint256",
							"name": "",
							"type": "uint256"
						}
					],
					"stateMutability": "view",
					"type": "function"
				},
				{
					"inputs": [],
					"name": "owner",
					"outputs": [
						{
							"internalType": "address",
							"name": "",
							"type": "address"
						}
					],
					"stateMutability": "view",
					"type": "function"
				},
				{
					"inputs": [],
					"name": "releasable",
					"outputs": [
						{
							"internalType": "uint256",
							"name": "",
							"type": "uint256"
						}
					],
					"stateMutability": "view",
					"type": "function"
				},
				{
					"inputs": [],
					"name": "release",
					"outputs": [],
					"stateMutability": "nonpayable",
					"type": "function"
				},
				{
					"inputs": [],
					"name": "released",
					"outputs": [
						{
							"internalType": "uint256",
							"name": "",
							"type": "uint256"
						}
					],
					"stateMutability": "view",
					"type": "function"
				},
				{
					"inputs": [],
					"name": "renounceOwnership",
					"outputs": [],
					"stateMutability": "nonpayable",
					"type": "function"
				},
				{
					"inputs": [],
					"name": "start",
					"outputs": [
						{
							"internalType": "uint256",
							"name": "",
							"type": "uint256"
						}
					],
					"stateMutability": "view",
					"type": "function"
				},
				{
					"inputs": [
						{
							"internalType": "address",
							"name": "newOwner",
							"type": "address"
						}
					],
					"name": "transferOwnership",
					"outputs": [],
					"stateMutability": "nonpayable",
					"type": "function"
				},
				{
					"inputs": [
						{
							"internalType": "uint64",
							"name": "timestamp",
							"type": "uint64"
						}
					],
					"name": "vestedAmount",
					"outputs": [
						{
							"internalType": "uint256",
							"name": "",
							"type": "uint256"
						}
					],
					"stateMutability": "view",
					"type": "function"
				},
				{
					"stateMutability": "payable",
					"type": "receive"
				}
			],
			"devdoc": {
				"details": "This contract handles the vesting of Eth and ERC20 tokens for a given beneficiary. Custody of multiple tokens can be given to this contract, which will release the token to the beneficiary following a given vesting schedule. The vesting schedule is customizable through the {vestedAmount} function. Any token transferred to this contract will follow the vesting schedule as if they were locked from the beginning. Consequently, if the vesting has already started, any amount of tokens sent to this contract will (at least partly) be immediately releasable.",
				"kind": "dev",
				"methods": {
					"constructor": {
						"details": "Set the beneficiary, start timestamp and vesting duration of the vesting wallet."
					},
					"duration()": {
						"details": "Getter for the vesting duration."
					},
					"owner()": {
						"details": "Returns the address of the current owner."
					},
					"releasable()": {
						"details": "Getter for the amount of releasable `token` tokens. `token` should be the address of an IERC20 contract."
					},
					"release()": {
						"details": "Release the tokens that have already vested. Emits a {ERC20Released} event."
					},
					"released()": {
						"details": "Amount of token already released"
					},
					"renounceOwnership()": {
						"details": "Leaves the contract without owner. It will not be possible to call `onlyOwner` functions anymore. Can only be called by the current owner. NOTE: Renouncing ownership will leave the contract without an owner, thereby removing any functionality that is only available to the owner."
					},
					"start()": {
						"details": "Getter for the start timestamp."
					},
					"transferOwnership(address)": {
						"details": "Transfers ownership of the contract to a new account (`newOwner`). Can only be called by the current owner."
					},
					"vestedAmount(uint64)": {
						"details": "Calculates the amount of tokens that has already vested. Default implementation is a linear vesting curve."
					}
				},
				"title": "VestingWallet",
				"version": 1
			},
			"evm": {
				"assembly": "    /* \"contracts/Whitelist-2.0.sol\":991:6145  contract WhitelistVesting is Context, Ownable {... */\n  mstore(0x40, 0xc0)\n    /* \"contracts/Whitelist-2.0.sol\":1794:2015  constructor(... */\n  mload(0x40)\n  sub(codesize, bytecodeSize)\n  dup1\n  bytecodeSize\n  dup4\n  codecopy\n  dup2\n  dup2\n  add\n  0x40\n  mstore\n  dup2\n  add\n  swap1\n  tag_1\n  swap2\n  swap1\n  tag_2\n  jump\t// in\ntag_1:\n    /* \"@openzeppelin/contracts/access/Ownable.sol\":921:953  _transferOwnership(_msgSender()) */\n  tag_6\n    /* \"@openzeppelin/contracts/access/Ownable.sol\":940:952  _msgSender() */\n  tag_7\n    /* \"@openzeppelin/contracts/access/Ownable.sol\":940:950  _msgSender */\n  shl(0x20, tag_8)\n    /* \"@openzeppelin/contracts/access/Ownable.sol\":940:952  _msgSender() */\n  0x20\n  shr\n  jump\t// in\ntag_7:\n    /* \"@openzeppelin/contracts/access/Ownable.sol\":921:939  _transferOwnership */\n  shl(0x20, tag_9)\n    /* \"@openzeppelin/contracts/access/Ownable.sol\":921:953  _transferOwnership(_msgSender()) */\n  0x20\n  shr\n  jump\t// in\ntag_6:\n    /* \"contracts/Whitelist-2.0.sol\":1930:1935  token */\n  dup3\n    /* \"contracts/Whitelist-2.0.sol\":1921:1927  _token */\n  0x01\n  0x00\n    /* \"contracts/Whitelist-2.0.sol\":1921:1935  _token = token */\n  0x0100\n  exp\n  dup2\n  sload\n  dup2\n  0xffffffffffffffffffffffffffffffffffffffff\n  mul\n  not\n  and\n  swap1\n  dup4\n  0xffffffffffffffffffffffffffffffffffffffff\n  and\n  mul\n  or\n  swap1\n  sstore\n  pop\n    /* \"contracts/Whitelist-2.0.sol\":1955:1969  startTimestamp */\n  dup2\n    /* \"contracts/Whitelist-2.0.sol\":1946:1969  _start = startTimestamp */\n  0xffffffffffffffff\n  and\n  0x80\n  dup2\n  0xffffffffffffffff\n  and\n  dup2\n  mstore\n  pop\n  pop\n    /* \"contracts/Whitelist-2.0.sol\":1992:2007  durationSeconds */\n  dup1\n    /* \"contracts/Whitelist-2.0.sol\":1980:2007  _duration = durationSeconds */\n  0xffffffffffffffff\n  and\n  0xa0\n  dup2\n  0xffffffffffffffff\n  and\n  dup2\n  mstore\n  pop\n  pop\n    /* \"contracts/Whitelist-2.0.sol\":1794:2015  constructor(... */\n  pop\n  pop\n  pop\n    /* \"contracts/Whitelist-2.0.sol\":991:6145  contract WhitelistVesting is Context, Ownable {... */\n  jump(tag_11)\n    /* \"@openzeppelin/contracts/utils/Context.sol\":640:736  function _msgSender() internal view virtual returns (address) {... */\ntag_8:\n    /* \"@openzeppelin/contracts/utils/Context.sol\":693:700  address */\n  0x00\n    /* \"@openzeppelin/contracts/utils/Context.sol\":719:729  msg.sender */\n  caller\n    /* \"@openzeppelin/contracts/utils/Context.sol\":712:729  return msg.sender */\n  swap1\n  pop\n    /* \"@openzeppelin/contracts/utils/Context.sol\":640:736  function _msgSender() internal view virtual returns (address) {... */\n  swap1\n  jump\t// out\n    /* \"@openzeppelin/contracts/access/Ownable.sol\":2270:2457  function _transferOwnership(address newOwner) internal virtual {... */\ntag_9:\n    /* \"@openzeppelin/contracts/access/Ownable.sol\":2343:2359  address oldOwner */\n  0x00\n    /* \"@openzeppelin/contracts/access/Ownable.sol\":2362:2368  _owner */\n  dup1\n  0x00\n  swap1\n  sload\n  swap1\n  0x0100\n  exp\n  swap1\n  div\n  0xffffffffffffffffffffffffffffffffffffffff\n  and\n    /* \"@openzeppelin/contracts/access/Ownable.sol\":2343:2368  address oldOwner = _owner */\n  swap1\n  pop\n    /* \"@openzeppelin/contracts/access/Ownable.sol\":2387:2395  newOwner */\n  dup2\n    /* \"@openzeppelin/contracts/access/Ownable.sol\":2378:2384  _owner */\n  0x00\n  dup1\n    /* \"@openzeppelin/contracts/access/Ownable.sol\":2378:2395  _owner = newOwner */\n  0x0100\n  exp\n  dup2\n  sload\n  dup2\n  0xffffffffffffffffffffffffffffffffffffffff\n  mul\n  not\n  and\n  swap1\n  dup4\n  0xffffffffffffffffffffffffffffffffffffffff\n  and\n  mul\n  or\n  swap1\n  sstore\n  pop\n    /* \"@openzeppelin/contracts/access/Ownable.sol\":2441:2449  newOwner */\n  dup2\n    /* \"@openzeppelin/contracts/access/Ownable.sol\":2410:2450  OwnershipTransferred(oldOwner, newOwner) */\n  0xffffffffffffffffffffffffffffffffffffffff\n  and\n    /* \"@openzeppelin/contracts/access/Ownable.sol\":2431:2439  oldOwner */\n  dup2\n    /* \"@openzeppelin/contracts/access/Ownable.sol\":2410:2450  OwnershipTransferred(oldOwner, newOwner) */\n  0xffffffffffffffffffffffffffffffffffffffff\n  and\n  0x8be0079c531659141344cd1fd0a4f28419497f9722a3daafe3b4186f6b6457e0\n  mload(0x40)\n  mload(0x40)\n  dup1\n  swap2\n  sub\n  swap1\n  log3\n    /* \"@openzeppelin/contracts/access/Ownable.sol\":2333:2457  {... */\n  pop\n    /* \"@openzeppelin/contracts/access/Ownable.sol\":2270:2457  function _transferOwnership(address newOwner) internal virtual {... */\n  pop\n  jump\t// out\n    /* \"#utility.yul\":88:205   */\ntag_15:\n    /* \"#utility.yul\":197:198   */\n  0x00\n    /* \"#utility.yul\":194:195   */\n  dup1\n    /* \"#utility.yul\":187:199   */\n  revert\n    /* \"#utility.yul\":334:460   */\ntag_17:\n    /* \"#utility.yul\":371:378   */\n  0x00\n    /* \"#utility.yul\":411:453   */\n  0xffffffffffffffffffffffffffffffffffffffff\n    /* \"#utility.yul\":404:409   */\n  dup3\n    /* \"#utility.yul\":400:454   */\n  and\n    /* \"#utility.yul\":389:454   */\n  swap1\n  pop\n    /* \"#utility.yul\":334:460   */\n  swap2\n  swap1\n  pop\n  jump\t// out\n    /* \"#utility.yul\":466:562   */\ntag_18:\n    /* \"#utility.yul\":503:510   */\n  0x00\n    /* \"#utility.yul\":532:556   */\n  tag_30\n    /* \"#utility.yul\":550:555   */\n  dup3\n    /* \"#utility.yul\":532:556   */\n  tag_17\n  jump\t// in\ntag_30:\n    /* \"#utility.yul\":521:556   */\n  swap1\n  pop\n    /* \"#utility.yul\":466:562   */\n  swap2\n  swap1\n  pop\n  jump\t// out\n    /* \"#utility.yul\":568:690   */\ntag_19:\n    /* \"#utility.yul\":641:665   */\n  tag_32\n    /* \"#utility.yul\":659:664   */\n  dup2\n    /* \"#utility.yul\":641:665   */\n  tag_18\n  jump\t// in\ntag_32:\n    /* \"#utility.yul\":634:639   */\n  dup2\n    /* \"#utility.yul\":631:666   */\n  eq\n    /* \"#utility.yul\":621:684   */\n  tag_33\n  jumpi\n    /* \"#utility.yul\":680:681   */\n  0x00\n    /* \"#utility.yul\":677:678   */\n  dup1\n    /* \"#utility.yul\":670:682   */\n  revert\n    /* \"#utility.yul\":621:684   */\ntag_33:\n    /* \"#utility.yul\":568:690   */\n  pop\n  jump\t// out\n    /* \"#utility.yul\":696:839   */\ntag_20:\n    /* \"#utility.yul\":753:758   */\n  0x00\n    /* \"#utility.yul\":784:790   */\n  dup2\n    /* \"#utility.yul\":778:791   */\n  mload\n    /* \"#utility.yul\":769:791   */\n  swap1\n  pop\n    /* \"#utility.yul\":800:833   */\n  tag_35\n    /* \"#utility.yul\":827:832   */\n  dup2\n    /* \"#utility.yul\":800:833   */\n  tag_19\n  jump\t// in\ntag_35:\n    /* \"#utility.yul\":696:839   */\n  swap3\n  swap2\n  pop\n  pop\n  jump\t// out\n    /* \"#utility.yul\":845:946   */\ntag_21:\n    /* \"#utility.yul\":881:888   */\n  0x00\n    /* \"#utility.yul\":921:939   */\n  0xffffffffffffffff\n    /* \"#utility.yul\":914:919   */\n  dup3\n    /* \"#utility.yul\":910:940   */\n  and\n    /* \"#utility.yul\":899:940   */\n  swap1\n  pop\n    /* \"#utility.yul\":845:946   */\n  swap2\n  swap1\n  pop\n  jump\t// out\n    /* \"#utility.yul\":952:1072   */\ntag_22:\n    /* \"#utility.yul\":1024:1047   */\n  tag_38\n    /* \"#utility.yul\":1041:1046   */\n  dup2\n    /* \"#utility.yul\":1024:1047   */\n  tag_21\n  jump\t// in\ntag_38:\n    /* \"#utility.yul\":1017:1022   */\n  dup2\n    /* \"#utility.yul\":1014:1048   */\n  eq\n    /* \"#utility.yul\":1004:1066   */\n  tag_39\n  jumpi\n    /* \"#utility.yul\":1062:1063   */\n  0x00\n    /* \"#utility.yul\":1059:1060   */\n  dup1\n    /* \"#utility.yul\":1052:1064   */\n  revert\n    /* \"#utility.yul\":1004:1066   */\ntag_39:\n    /* \"#utility.yul\":952:1072   */\n  pop\n  jump\t// out\n    /* \"#utility.yul\":1078:1219   */\ntag_23:\n    /* \"#utility.yul\":1134:1139   */\n  0x00\n    /* \"#utility.yul\":1165:1171   */\n  dup2\n    /* \"#utility.yul\":1159:1172   */\n  mload\n    /* \"#utility.yul\":1150:1172   */\n  swap1\n  pop\n    /* \"#utility.yul\":1181:1213   */\n  tag_41\n    /* \"#utility.yul\":1207:1212   */\n  dup2\n    /* \"#utility.yul\":1181:1213   */\n  tag_22\n  jump\t// in\ntag_41:\n    /* \"#utility.yul\":1078:1219   */\n  swap3\n  swap2\n  pop\n  pop\n  jump\t// out\n    /* \"#utility.yul\":1225:1884   */\ntag_2:\n    /* \"#utility.yul\":1311:1317   */\n  0x00\n    /* \"#utility.yul\":1319:1325   */\n  dup1\n    /* \"#utility.yul\":1327:1333   */\n  0x00\n    /* \"#utility.yul\":1376:1378   */\n  0x60\n    /* \"#utility.yul\":1364:1373   */\n  dup5\n    /* \"#utility.yul\":1355:1362   */\n  dup7\n    /* \"#utility.yul\":1351:1374   */\n  sub\n    /* \"#utility.yul\":1347:1379   */\n  slt\n    /* \"#utility.yul\":1344:1463   */\n  iszero\n  tag_43\n  jumpi\n    /* \"#utility.yul\":1382:1461   */\n  tag_44\n  tag_15\n  jump\t// in\ntag_44:\n    /* \"#utility.yul\":1344:1463   */\ntag_43:\n    /* \"#utility.yul\":1502:1503   */\n  0x00\n    /* \"#utility.yul\":1527:1591   */\n  tag_45\n    /* \"#utility.yul\":1583:1590   */\n  dup7\n    /* \"#utility.yul\":1574:1580   */\n  dup3\n    /* \"#utility.yul\":1563:1572   */\n  dup8\n    /* \"#utility.yul\":1559:1581   */\n  add\n    /* \"#utility.yul\":1527:1591   */\n  tag_20\n  jump\t// in\ntag_45:\n    /* \"#utility.yul\":1517:1591   */\n  swap4\n  pop\n    /* \"#utility.yul\":1473:1601   */\n  pop\n    /* \"#utility.yul\":1640:1642   */\n  0x20\n    /* \"#utility.yul\":1666:1729   */\n  tag_46\n    /* \"#utility.yul\":1721:1728   */\n  dup7\n    /* \"#utility.yul\":1712:1718   */\n  dup3\n    /* \"#utility.yul\":1701:1710   */\n  dup8\n    /* \"#utility.yul\":1697:1719   */\n  add\n    /* \"#utility.yul\":1666:1729   */\n  tag_23\n  jump\t// in\ntag_46:\n    /* \"#utility.yul\":1656:1729   */\n  swap3\n  pop\n    /* \"#utility.yul\":1611:1739   */\n  pop\n    /* \"#utility.yul\":1778:1780   */\n  0x40\n    /* \"#utility.yul\":1804:1867   */\n  tag_47\n    /* \"#utility.yul\":1859:1866   */\n  dup7\n    /* \"#utility.yul\":1850:1856   */\n  dup3\n    /* \"#utility.yul\":1839:1848   */\n  dup8\n    /* \"#utility.yul\":1835:1857   */\n  add\n    /* \"#utility.yul\":1804:1867   */\n  tag_23\n  jump\t// in\ntag_47:\n    /* \"#utility.yul\":1794:1867   */\n  swap2\n  pop\n    /* \"#utility.yul\":1749:1877   */\n  pop\n    /* \"#utility.yul\":1225:1884   */\n  swap3\n  pop\n  swap3\n  pop\n  swap3\n  jump\t// out\n    /* \"contracts/Whitelist-2.0.sol\":991:6145  contract WhitelistVesting is Context, Ownable {... */\ntag_11:\n  mload(0x80)\n  mload(0xa0)\n  codecopy(0x00, dataOffset(sub_0), dataSize(sub_0))\n  0x00\n  assignImmutable(\"0x9b0d5a2681b52b4560ba0a55dc00d44d52ed130b12e9b1ecacbe9f4e75788d40\")\n  0x00\n  assignImmutable(\"0xb0c7bc42bdbc6fc210fecd6a5f5b923061cceb0f8ca5c7d964d5c22fc0e4b0b6\")\n  return(0x00, dataSize(sub_0))\nstop\n\nsub_0: assembly {\n        /* \"contracts/Whitelist-2.0.sol\":991:6145  contract WhitelistVesting is Context, Ownable {... */\n      mstore(0x40, 0x80)\n      jumpi(tag_1, lt(calldatasize, 0x04))\n      shr(0xe0, calldataload(0x00))\n      dup1\n      0x8da5cb5b\n      gt\n      tag_14\n      jumpi\n      dup1\n      0x8da5cb5b\n      eq\n      tag_8\n      jumpi\n      dup1\n      0x96132521\n      eq\n      tag_9\n      jumpi\n      dup1\n      0xbe9a6555\n      eq\n      tag_10\n      jumpi\n      dup1\n      0xde809847\n      eq\n      tag_11\n      jumpi\n      dup1\n      0xf2fde38b\n      eq\n      tag_12\n      jumpi\n      dup1\n      0xfbccedae\n      eq\n      tag_13\n      jumpi\n      jump(tag_2)\n    tag_14:\n      dup1\n      0x0a17b06b\n      eq\n      tag_3\n      jumpi\n      dup1\n      0x0fb5a6b4\n      eq\n      tag_4\n      jumpi\n      dup1\n      0x27c2e722\n      eq\n      tag_5\n      jumpi\n      dup1\n      0x715018a6\n      eq\n      tag_6\n      jumpi\n      dup1\n      0x86d1a69f\n      eq\n      tag_7\n      jumpi\n      jump(tag_2)\n    tag_1:\n      jumpi(tag_2, calldatasize)\n      stop\n    tag_2:\n      0x00\n      dup1\n      revert\n        /* \"contracts/Whitelist-2.0.sol\":5122:5526  function vestedAmount(uint64 timestamp)... */\n    tag_3:\n      callvalue\n      dup1\n      iszero\n      tag_17\n      jumpi\n      0x00\n      dup1\n      revert\n    tag_17:\n      pop\n      tag_18\n      0x04\n      dup1\n      calldatasize\n      sub\n      dup2\n      add\n      swap1\n      tag_19\n      swap2\n      swap1\n      tag_20\n      jump\t// in\n    tag_19:\n      tag_21\n      jump\t// in\n    tag_18:\n      mload(0x40)\n      tag_22\n      swap2\n      swap1\n      tag_23\n      jump\t// in\n    tag_22:\n      mload(0x40)\n      dup1\n      swap2\n      sub\n      swap1\n      return\n        /* \"contracts/Whitelist-2.0.sol\":2365:2458  function duration() public view virtual returns (uint256) {... */\n    tag_4:\n      callvalue\n      dup1\n      iszero\n      tag_24\n      jumpi\n      0x00\n      dup1\n      revert\n    tag_24:\n      pop\n      tag_25\n      tag_26\n      jump\t// in\n    tag_25:\n      mload(0x40)\n      tag_27\n      swap2\n      swap1\n      tag_23\n      jump\t// in\n    tag_27:\n      mload(0x40)\n      dup1\n      swap2\n      sub\n      swap1\n      return\n        /* \"contracts/Whitelist-2.0.sol\":3643:3856  function addMultiVesting(Beneficiary[] calldata users) external onlyOwner {... */\n    tag_5:\n      callvalue\n      dup1\n      iszero\n      tag_28\n      jumpi\n      0x00\n      dup1\n      revert\n    tag_28:\n      pop\n      tag_29\n      0x04\n      dup1\n      calldatasize\n      sub\n      dup2\n      add\n      swap1\n      tag_30\n      swap2\n      swap1\n      tag_31\n      jump\t// in\n    tag_30:\n      tag_32\n      jump\t// in\n    tag_29:\n      stop\n        /* \"@openzeppelin/contracts/access/Ownable.sol\":1668:1769  function renounceOwnership() public virtual onlyOwner {... */\n    tag_6:\n      callvalue\n      dup1\n      iszero\n      tag_33\n      jumpi\n      0x00\n      dup1\n      revert\n    tag_33:\n      pop\n      tag_34\n      tag_35\n      jump\t// in\n    tag_34:\n      stop\n        /* \"contracts/Whitelist-2.0.sol\":4219:4666  function release() public virtual {... */\n    tag_7:\n      callvalue\n      dup1\n      iszero\n      tag_36\n      jumpi\n      0x00\n      dup1\n      revert\n    tag_36:\n      pop\n      tag_37\n      tag_38\n      jump\t// in\n    tag_37:\n      stop\n        /* \"@openzeppelin/contracts/access/Ownable.sol\":1036:1121  function owner() public view virtual returns (address) {... */\n    tag_8:\n      callvalue\n      dup1\n      iszero\n      tag_39\n      jumpi\n      0x00\n      dup1\n      revert\n    tag_39:\n      pop\n      tag_40\n      tag_41\n      jump\t// in\n    tag_40:\n      mload(0x40)\n      tag_42\n      swap2\n      swap1\n      tag_43\n      jump\t// in\n    tag_42:\n      mload(0x40)\n      dup1\n      swap2\n      sub\n      swap1\n      return\n        /* \"contracts/Whitelist-2.0.sol\":2530:2648  function released() public view virtual returns (uint256) {... */\n    tag_9:\n      callvalue\n      dup1\n      iszero\n      tag_44\n      jumpi\n      0x00\n      dup1\n      revert\n    tag_44:\n      pop\n      tag_45\n      tag_46\n      jump\t// in\n    tag_45:\n      mload(0x40)\n      tag_47\n      swap2\n      swap1\n      tag_23\n      jump\t// in\n    tag_47:\n      mload(0x40)\n      dup1\n      swap2\n      sub\n      swap1\n      return\n        /* \"contracts/Whitelist-2.0.sol\":2206:2293  function start() public view virtual returns (uint256) {... */\n    tag_10:\n      callvalue\n      dup1\n      iszero\n      tag_48\n      jumpi\n      0x00\n      dup1\n      revert\n    tag_48:\n      pop\n      tag_49\n      tag_50\n      jump\t// in\n    tag_49:\n      mload(0x40)\n      tag_51\n      swap2\n      swap1\n      tag_23\n      jump\t// in\n    tag_51:\n      mload(0x40)\n      dup1\n      swap2\n      sub\n      swap1\n      return\n        /* \"contracts/Whitelist-2.0.sol\":3864:4088  function deleteMultiVesting(Beneficiary[] calldata users)... */\n    tag_11:\n      callvalue\n      dup1\n      iszero\n      tag_52\n      jumpi\n      0x00\n      dup1\n      revert\n    tag_52:\n      pop\n      tag_53\n      0x04\n      dup1\n      calldatasize\n      sub\n      dup2\n      add\n      swap1\n      tag_54\n      swap2\n      swap1\n      tag_31\n      jump\t// in\n    tag_54:\n      tag_55\n      jump\t// in\n    tag_53:\n      stop\n        /* \"@openzeppelin/contracts/access/Ownable.sol\":1918:2116  function transferOwnership(address newOwner) public virtual onlyOwner {... */\n    tag_12:\n      callvalue\n      dup1\n      iszero\n      tag_56\n      jumpi\n      0x00\n      dup1\n      revert\n    tag_56:\n      pop\n      tag_57\n      0x04\n      dup1\n      calldatasize\n      sub\n      dup2\n      add\n      swap1\n      tag_58\n      swap2\n      swap1\n      tag_59\n      jump\t// in\n    tag_58:\n      tag_60\n      jump\t// in\n    tag_57:\n      stop\n        /* \"contracts/Whitelist-2.0.sol\":2800:2936  function releasable() public view virtual returns (uint256) {... */\n    tag_13:\n      callvalue\n      dup1\n      iszero\n      tag_61\n      jumpi\n      0x00\n      dup1\n      revert\n    tag_61:\n      pop\n      tag_62\n      tag_63\n      jump\t// in\n    tag_62:\n      mload(0x40)\n      tag_64\n      swap2\n      swap1\n      tag_23\n      jump\t// in\n    tag_64:\n      mload(0x40)\n      dup1\n      swap2\n      sub\n      swap1\n      return\n        /* \"contracts/Whitelist-2.0.sol\":5122:5526  function vestedAmount(uint64 timestamp)... */\n    tag_21:\n        /* \"contracts/Whitelist-2.0.sol\":5227:5234  uint256 */\n      0x00\n        /* \"contracts/Whitelist-2.0.sol\":5452:5518  _vestingSchedule(_beneficiary[msg.sender] + released(), timestamp) */\n      tag_66\n        /* \"contracts/Whitelist-2.0.sol\":5496:5506  released() */\n      tag_67\n        /* \"contracts/Whitelist-2.0.sol\":5496:5504  released */\n      tag_46\n        /* \"contracts/Whitelist-2.0.sol\":5496:5506  released() */\n      jump\t// in\n    tag_67:\n        /* \"contracts/Whitelist-2.0.sol\":5469:5481  _beneficiary */\n      0x03\n        /* \"contracts/Whitelist-2.0.sol\":5469:5493  _beneficiary[msg.sender] */\n      0x00\n        /* \"contracts/Whitelist-2.0.sol\":5482:5492  msg.sender */\n      caller\n        /* \"contracts/Whitelist-2.0.sol\":5469:5493  _beneficiary[msg.sender] */\n      0xffffffffffffffffffffffffffffffffffffffff\n      and\n      0xffffffffffffffffffffffffffffffffffffffff\n      and\n      dup2\n      mstore\n      0x20\n      add\n      swap1\n      dup2\n      mstore\n      0x20\n      add\n      0x00\n      keccak256\n      sload\n        /* \"contracts/Whitelist-2.0.sol\":5469:5506  _beneficiary[msg.sender] + released() */\n      tag_68\n      swap2\n      swap1\n      tag_69\n      jump\t// in\n    tag_68:\n        /* \"contracts/Whitelist-2.0.sol\":5508:5517  timestamp */\n      dup4\n        /* \"contracts/Whitelist-2.0.sol\":5452:5468  _vestingSchedule */\n      tag_70\n        /* \"contracts/Whitelist-2.0.sol\":5452:5518  _vestingSchedule(_beneficiary[msg.sender] + released(), timestamp) */\n      jump\t// in\n    tag_66:\n        /* \"contracts/Whitelist-2.0.sol\":5432:5518  return... */\n      swap1\n      pop\n        /* \"contracts/Whitelist-2.0.sol\":5122:5526  function vestedAmount(uint64 timestamp)... */\n      swap2\n      swap1\n      pop\n      jump\t// out\n        /* \"contracts/Whitelist-2.0.sol\":2365:2458  function duration() public view virtual returns (uint256) {... */\n    tag_26:\n        /* \"contracts/Whitelist-2.0.sol\":2414:2421  uint256 */\n      0x00\n        /* \"contracts/Whitelist-2.0.sol\":2441:2450  _duration */\n      immutable(\"0x9b0d5a2681b52b4560ba0a55dc00d44d52ed130b12e9b1ecacbe9f4e75788d40\")\n        /* \"contracts/Whitelist-2.0.sol\":2434:2450  return _duration */\n      0xffffffffffffffff\n      and\n      swap1\n      pop\n        /* \"contracts/Whitelist-2.0.sol\":2365:2458  function duration() public view virtual returns (uint256) {... */\n      swap1\n      jump\t// out\n        /* \"contracts/Whitelist-2.0.sol\":3643:3856  function addMultiVesting(Beneficiary[] calldata users) external onlyOwner {... */\n    tag_32:\n        /* \"@openzeppelin/contracts/access/Ownable.sol\":1259:1271  _msgSender() */\n      tag_73\n        /* \"@openzeppelin/contracts/access/Ownable.sol\":1259:1269  _msgSender */\n      tag_74\n        /* \"@openzeppelin/contracts/access/Ownable.sol\":1259:1271  _msgSender() */\n      jump\t// in\n    tag_73:\n        /* \"@openzeppelin/contracts/access/Ownable.sol\":1248:1271  owner() == _msgSender() */\n      0xffffffffffffffffffffffffffffffffffffffff\n      and\n        /* \"@openzeppelin/contracts/access/Ownable.sol\":1248:1255  owner() */\n      tag_75\n        /* \"@openzeppelin/contracts/access/Ownable.sol\":1248:1253  owner */\n      tag_41\n        /* \"@openzeppelin/contracts/access/Ownable.sol\":1248:1255  owner() */\n      jump\t// in\n    tag_75:\n        /* \"@openzeppelin/contracts/access/Ownable.sol\":1248:1271  owner() == _msgSender() */\n      0xffffffffffffffffffffffffffffffffffffffff\n      and\n      eq\n        /* \"@openzeppelin/contracts/access/Ownable.sol\":1240:1308  require(owner() == _msgSender(), \"Ownable: caller is not the owner\") */\n      tag_76\n      jumpi\n      mload(0x40)\n      0x08c379a000000000000000000000000000000000000000000000000000000000\n      dup2\n      mstore\n      0x04\n      add\n      tag_77\n      swap1\n      tag_78\n      jump\t// in\n    tag_77:\n      mload(0x40)\n      dup1\n      swap2\n      sub\n      swap1\n      revert\n    tag_76:\n        /* \"contracts/Whitelist-2.0.sol\":3733:3742  uint256 i */\n      0x00\n        /* \"contracts/Whitelist-2.0.sol\":3728:3849  for (uint256 i = 0; i < users.length; i = _unsafeInc(i)) {... */\n    tag_80:\n        /* \"contracts/Whitelist-2.0.sol\":3752:3757  users */\n      dup3\n      dup3\n        /* \"contracts/Whitelist-2.0.sol\":3752:3764  users.length */\n      swap1\n      pop\n        /* \"contracts/Whitelist-2.0.sol\":3748:3749  i */\n      dup2\n        /* \"contracts/Whitelist-2.0.sol\":3748:3764  i < users.length */\n      lt\n        /* \"contracts/Whitelist-2.0.sol\":3728:3849  for (uint256 i = 0; i < users.length; i = _unsafeInc(i)) {... */\n      iszero\n      tag_81\n      jumpi\n        /* \"contracts/Whitelist-2.0.sol\":3800:3837  _vest(users[i].user, users[i].amount) */\n      tag_83\n        /* \"contracts/Whitelist-2.0.sol\":3806:3811  users */\n      dup4\n      dup4\n        /* \"contracts/Whitelist-2.0.sol\":3812:3813  i */\n      dup4\n        /* \"contracts/Whitelist-2.0.sol\":3806:3814  users[i] */\n      dup2\n      dup2\n      lt\n      tag_84\n      jumpi\n      tag_85\n      tag_86\n      jump\t// in\n    tag_85:\n    tag_84:\n      swap1\n      pop\n      0x40\n      mul\n      add\n        /* \"contracts/Whitelist-2.0.sol\":3806:3819  users[i].user */\n      0x00\n      add\n      0x20\n      dup2\n      add\n      swap1\n      tag_87\n      swap2\n      swap1\n      tag_59\n      jump\t// in\n    tag_87:\n        /* \"contracts/Whitelist-2.0.sol\":3821:3826  users */\n      dup5\n      dup5\n        /* \"contracts/Whitelist-2.0.sol\":3827:3828  i */\n      dup5\n        /* \"contracts/Whitelist-2.0.sol\":3821:3829  users[i] */\n      dup2\n      dup2\n      lt\n      tag_88\n      jumpi\n      tag_89\n      tag_86\n      jump\t// in\n    tag_89:\n    tag_88:\n      swap1\n      pop\n      0x40\n      mul\n      add\n        /* \"contracts/Whitelist-2.0.sol\":3821:3836  users[i].amount */\n      0x20\n      add\n      calldataload\n        /* \"contracts/Whitelist-2.0.sol\":3800:3805  _vest */\n      tag_90\n        /* \"contracts/Whitelist-2.0.sol\":3800:3837  _vest(users[i].user, users[i].amount) */\n      jump\t// in\n    tag_83:\n        /* \"contracts/Whitelist-2.0.sol\":3770:3783  _unsafeInc(i) */\n      tag_91\n        /* \"contracts/Whitelist-2.0.sol\":3781:3782  i */\n      dup2\n        /* \"contracts/Whitelist-2.0.sol\":3770:3780  _unsafeInc */\n      tag_92\n        /* \"contracts/Whitelist-2.0.sol\":3770:3783  _unsafeInc(i) */\n      jump\t// in\n    tag_91:\n        /* \"contracts/Whitelist-2.0.sol\":3766:3783  i = _unsafeInc(i) */\n      swap1\n      pop\n        /* \"contracts/Whitelist-2.0.sol\":3728:3849  for (uint256 i = 0; i < users.length; i = _unsafeInc(i)) {... */\n      jump(tag_80)\n    tag_81:\n      pop\n        /* \"contracts/Whitelist-2.0.sol\":3643:3856  function addMultiVesting(Beneficiary[] calldata users) external onlyOwner {... */\n      pop\n      pop\n      jump\t// out\n        /* \"@openzeppelin/contracts/access/Ownable.sol\":1668:1769  function renounceOwnership() public virtual onlyOwner {... */\n    tag_35:\n        /* \"@openzeppelin/contracts/access/Ownable.sol\":1259:1271  _msgSender() */\n      tag_94\n        /* \"@openzeppelin/contracts/access/Ownable.sol\":1259:1269  _msgSender */\n      tag_74\n        /* \"@openzeppelin/contracts/access/Ownable.sol\":1259:1271  _msgSender() */\n      jump\t// in\n    tag_94:\n        /* \"@openzeppelin/contracts/access/Ownable.sol\":1248:1271  owner() == _msgSender() */\n      0xffffffffffffffffffffffffffffffffffffffff\n      and\n        /* \"@openzeppelin/contracts/access/Ownable.sol\":1248:1255  owner() */\n      tag_95\n        /* \"@openzeppelin/contracts/access/Ownable.sol\":1248:1253  owner */\n      tag_41\n        /* \"@openzeppelin/contracts/access/Ownable.sol\":1248:1255  owner() */\n      jump\t// in\n    tag_95:\n        /* \"@openzeppelin/contracts/access/Ownable.sol\":1248:1271  owner() == _msgSender() */\n      0xffffffffffffffffffffffffffffffffffffffff\n      and\n      eq\n        /* \"@openzeppelin/contracts/access/Ownable.sol\":1240:1308  require(owner() == _msgSender(), \"Ownable: caller is not the owner\") */\n      tag_96\n      jumpi\n      mload(0x40)\n      0x08c379a000000000000000000000000000000000000000000000000000000000\n      dup2\n      mstore\n      0x04\n      add\n      tag_97\n      swap1\n      tag_78\n      jump\t// in\n    tag_97:\n      mload(0x40)\n      dup1\n      swap2\n      sub\n      swap1\n      revert\n    tag_96:\n        /* \"@openzeppelin/contracts/access/Ownable.sol\":1732:1762  _transferOwnership(address(0)) */\n      tag_99\n        /* \"@openzeppelin/contracts/access/Ownable.sol\":1759:1760  0 */\n      0x00\n        /* \"@openzeppelin/contracts/access/Ownable.sol\":1732:1750  _transferOwnership */\n      tag_100\n        /* \"@openzeppelin/contracts/access/Ownable.sol\":1732:1762  _transferOwnership(address(0)) */\n      jump\t// in\n    tag_99:\n        /* \"@openzeppelin/contracts/access/Ownable.sol\":1668:1769  function renounceOwnership() public virtual onlyOwner {... */\n      jump\t// out\n        /* \"contracts/Whitelist-2.0.sol\":4219:4666  function release() public virtual {... */\n    tag_38:\n        /* \"contracts/Whitelist-2.0.sol\":4264:4278  uint256 amount */\n      0x00\n        /* \"contracts/Whitelist-2.0.sol\":4281:4293  releasable() */\n      tag_102\n        /* \"contracts/Whitelist-2.0.sol\":4281:4291  releasable */\n      tag_63\n        /* \"contracts/Whitelist-2.0.sol\":4281:4293  releasable() */\n      jump\t// in\n    tag_102:\n        /* \"contracts/Whitelist-2.0.sol\":4264:4293  uint256 amount = releasable() */\n      swap1\n      pop\n        /* \"contracts/Whitelist-2.0.sol\":4326:4336  _lastMonth */\n      0x04\n        /* \"contracts/Whitelist-2.0.sol\":4326:4348  _lastMonth[msg.sender] */\n      0x00\n        /* \"contracts/Whitelist-2.0.sol\":4337:4347  msg.sender */\n      caller\n        /* \"contracts/Whitelist-2.0.sol\":4326:4348  _lastMonth[msg.sender] */\n      0xffffffffffffffffffffffffffffffffffffffff\n      and\n      0xffffffffffffffffffffffffffffffffffffffff\n      and\n      dup2\n      mstore\n      0x20\n      add\n      swap1\n      dup2\n      mstore\n      0x20\n      add\n      0x00\n      keccak256\n      sload\n        /* \"contracts/Whitelist-2.0.sol\":4308:4323  _currentMonth() */\n      tag_103\n        /* \"contracts/Whitelist-2.0.sol\":4308:4321  _currentMonth */\n      tag_104\n        /* \"contracts/Whitelist-2.0.sol\":4308:4323  _currentMonth() */\n      jump\t// in\n    tag_103:\n        /* \"contracts/Whitelist-2.0.sol\":4308:4348  _currentMonth() > _lastMonth[msg.sender] */\n      gt\n        /* \"contracts/Whitelist-2.0.sol\":4304:4659  if (_currentMonth() > _lastMonth[msg.sender]) {... */\n      iszero\n      tag_105\n      jumpi\n        /* \"contracts/Whitelist-2.0.sol\":4390:4405  _currentMonth() */\n      tag_106\n        /* \"contracts/Whitelist-2.0.sol\":4390:4403  _currentMonth */\n      tag_104\n        /* \"contracts/Whitelist-2.0.sol\":4390:4405  _currentMonth() */\n      jump\t// in\n    tag_106:\n        /* \"contracts/Whitelist-2.0.sol\":4365:4375  _lastMonth */\n      0x04\n        /* \"contracts/Whitelist-2.0.sol\":4365:4387  _lastMonth[msg.sender] */\n      0x00\n        /* \"contracts/Whitelist-2.0.sol\":4376:4386  msg.sender */\n      caller\n        /* \"contracts/Whitelist-2.0.sol\":4365:4387  _lastMonth[msg.sender] */\n      0xffffffffffffffffffffffffffffffffffffffff\n      and\n      0xffffffffffffffffffffffffffffffffffffffff\n      and\n      dup2\n      mstore\n      0x20\n      add\n      swap1\n      dup2\n      mstore\n      0x20\n      add\n      0x00\n      keccak256\n        /* \"contracts/Whitelist-2.0.sol\":4365:4405  _lastMonth[msg.sender] = _currentMonth() */\n      dup2\n      swap1\n      sstore\n      pop\n        /* \"contracts/Whitelist-2.0.sol\":4448:4454  amount */\n      dup1\n        /* \"contracts/Whitelist-2.0.sol\":4420:4432  _beneficiary */\n      0x03\n        /* \"contracts/Whitelist-2.0.sol\":4420:4444  _beneficiary[msg.sender] */\n      0x00\n        /* \"contracts/Whitelist-2.0.sol\":4433:4443  msg.sender */\n      caller\n        /* \"contracts/Whitelist-2.0.sol\":4420:4444  _beneficiary[msg.sender] */\n      0xffffffffffffffffffffffffffffffffffffffff\n      and\n      0xffffffffffffffffffffffffffffffffffffffff\n      and\n      dup2\n      mstore\n      0x20\n      add\n      swap1\n      dup2\n      mstore\n      0x20\n      add\n      0x00\n      keccak256\n      0x00\n        /* \"contracts/Whitelist-2.0.sol\":4420:4454  _beneficiary[msg.sender] -= amount */\n      dup3\n      dup3\n      sload\n      tag_107\n      swap2\n      swap1\n      tag_108\n      jump\t// in\n    tag_107:\n      swap3\n      pop\n      pop\n      dup2\n      swap1\n      sstore\n      pop\n        /* \"contracts/Whitelist-2.0.sol\":4507:4513  amount */\n      dup1\n        /* \"contracts/Whitelist-2.0.sol\":4469:4483  _erc20Released */\n      0x02\n        /* \"contracts/Whitelist-2.0.sol\":4469:4491  _erc20Released[_token] */\n      0x00\n        /* \"contracts/Whitelist-2.0.sol\":4484:4490  _token */\n      0x01\n      0x00\n      swap1\n      sload\n      swap1\n      0x0100\n      exp\n      swap1\n      div\n      0xffffffffffffffffffffffffffffffffffffffff\n      and\n        /* \"contracts/Whitelist-2.0.sol\":4469:4491  _erc20Released[_token] */\n      0xffffffffffffffffffffffffffffffffffffffff\n      and\n      0xffffffffffffffffffffffffffffffffffffffff\n      and\n      dup2\n      mstore\n      0x20\n      add\n      swap1\n      dup2\n      mstore\n      0x20\n      add\n      0x00\n      keccak256\n        /* \"contracts/Whitelist-2.0.sol\":4469:4503  _erc20Released[_token][msg.sender] */\n      0x00\n        /* \"contracts/Whitelist-2.0.sol\":4492:4502  msg.sender */\n      caller\n        /* \"contracts/Whitelist-2.0.sol\":4469:4503  _erc20Released[_token][msg.sender] */\n      0xffffffffffffffffffffffffffffffffffffffff\n      and\n      0xffffffffffffffffffffffffffffffffffffffff\n      and\n      dup2\n      mstore\n      0x20\n      add\n      swap1\n      dup2\n      mstore\n      0x20\n      add\n      0x00\n      keccak256\n      0x00\n        /* \"contracts/Whitelist-2.0.sol\":4469:4513  _erc20Released[_token][msg.sender] += amount */\n      dup3\n      dup3\n      sload\n      tag_109\n      swap2\n      swap1\n      tag_69\n      jump\t// in\n    tag_109:\n      swap3\n      pop\n      pop\n      dup2\n      swap1\n      sstore\n      pop\n        /* \"contracts/Whitelist-2.0.sol\":4555:4565  msg.sender */\n      caller\n        /* \"contracts/Whitelist-2.0.sol\":4533:4574  ERC20Released(_token, msg.sender, amount) */\n      0xffffffffffffffffffffffffffffffffffffffff\n      and\n        /* \"contracts/Whitelist-2.0.sol\":4547:4553  _token */\n      0x01\n      0x00\n      swap1\n      sload\n      swap1\n      0x0100\n      exp\n      swap1\n      div\n      0xffffffffffffffffffffffffffffffffffffffff\n      and\n        /* \"contracts/Whitelist-2.0.sol\":4533:4574  ERC20Released(_token, msg.sender, amount) */\n      0xffffffffffffffffffffffffffffffffffffffff\n      and\n      0x1998e30db89daf293a52c4fc4c4470cd506aafc3f9683e8e5daddad80cd6f4a4\n        /* \"contracts/Whitelist-2.0.sol\":4567:4573  amount */\n      dup4\n        /* \"contracts/Whitelist-2.0.sol\":4533:4574  ERC20Released(_token, msg.sender, amount) */\n      mload(0x40)\n      tag_110\n      swap2\n      swap1\n      tag_23\n      jump\t// in\n    tag_110:\n      mload(0x40)\n      dup1\n      swap2\n      sub\n      swap1\n      log3\n        /* \"contracts/Whitelist-2.0.sol\":4589:4647  SafeERC20.safeTransfer(IERC20(_token), msg.sender, amount) */\n      tag_111\n        /* \"contracts/Whitelist-2.0.sol\":4619:4625  _token */\n      0x01\n      0x00\n      swap1\n      sload\n      swap1\n      0x0100\n      exp\n      swap1\n      div\n      0xffffffffffffffffffffffffffffffffffffffff\n      and\n        /* \"contracts/Whitelist-2.0.sol\":4628:4638  msg.sender */\n      caller\n        /* \"contracts/Whitelist-2.0.sol\":4640:4646  amount */\n      dup4\n        /* \"contracts/Whitelist-2.0.sol\":4589:4611  SafeERC20.safeTransfer */\n      tag_112\n        /* \"contracts/Whitelist-2.0.sol\":4589:4647  SafeERC20.safeTransfer(IERC20(_token), msg.sender, amount) */\n      jump\t// in\n    tag_111:\n        /* \"contracts/Whitelist-2.0.sol\":4304:4659  if (_currentMonth() > _lastMonth[msg.sender]) {... */\n    tag_105:\n        /* \"contracts/Whitelist-2.0.sol\":4253:4666  {... */\n      pop\n        /* \"contracts/Whitelist-2.0.sol\":4219:4666  function release() public virtual {... */\n      jump\t// out\n        /* \"@openzeppelin/contracts/access/Ownable.sol\":1036:1121  function owner() public view virtual returns (address) {... */\n    tag_41:\n        /* \"@openzeppelin/contracts/access/Ownable.sol\":1082:1089  address */\n      0x00\n        /* \"@openzeppelin/contracts/access/Ownable.sol\":1108:1114  _owner */\n      dup1\n      0x00\n      swap1\n      sload\n      swap1\n      0x0100\n      exp\n      swap1\n      div\n      0xffffffffffffffffffffffffffffffffffffffff\n      and\n        /* \"@openzeppelin/contracts/access/Ownable.sol\":1101:1114  return _owner */\n      swap1\n      pop\n        /* \"@openzeppelin/contracts/access/Ownable.sol\":1036:1121  function owner() public view virtual returns (address) {... */\n      swap1\n      jump\t// out\n        /* \"contracts/Whitelist-2.0.sol\":2530:2648  function released() public view virtual returns (uint256) {... */\n    tag_46:\n        /* \"contracts/Whitelist-2.0.sol\":2579:2586  uint256 */\n      0x00\n        /* \"contracts/Whitelist-2.0.sol\":2606:2620  _erc20Released */\n      0x02\n        /* \"contracts/Whitelist-2.0.sol\":2606:2628  _erc20Released[_token] */\n      0x00\n        /* \"contracts/Whitelist-2.0.sol\":2621:2627  _token */\n      0x01\n      0x00\n      swap1\n      sload\n      swap1\n      0x0100\n      exp\n      swap1\n      div\n      0xffffffffffffffffffffffffffffffffffffffff\n      and\n        /* \"contracts/Whitelist-2.0.sol\":2606:2628  _erc20Released[_token] */\n      0xffffffffffffffffffffffffffffffffffffffff\n      and\n      0xffffffffffffffffffffffffffffffffffffffff\n      and\n      dup2\n      mstore\n      0x20\n      add\n      swap1\n      dup2\n      mstore\n      0x20\n      add\n      0x00\n      keccak256\n        /* \"contracts/Whitelist-2.0.sol\":2606:2640  _erc20Released[_token][msg.sender] */\n      0x00\n        /* \"contracts/Whitelist-2.0.sol\":2629:2639  msg.sender */\n      caller\n        /* \"contracts/Whitelist-2.0.sol\":2606:2640  _erc20Released[_token][msg.sender] */\n      0xffffffffffffffffffffffffffffffffffffffff\n      and\n      0xffffffffffffffffffffffffffffffffffffffff\n      and\n      dup2\n      mstore\n      0x20\n      add\n      swap1\n      dup2\n      mstore\n      0x20\n      add\n      0x00\n      keccak256\n      sload\n        /* \"contracts/Whitelist-2.0.sol\":2599:2640  return _erc20Released[_token][msg.sender] */\n      swap1\n      pop\n        /* \"contracts/Whitelist-2.0.sol\":2530:2648  function released() public view virtual returns (uint256) {... */\n      swap1\n      jump\t// out\n        /* \"contracts/Whitelist-2.0.sol\":2206:2293  function start() public view virtual returns (uint256) {... */\n    tag_50:\n        /* \"contracts/Whitelist-2.0.sol\":2252:2259  uint256 */\n      0x00\n        /* \"contracts/Whitelist-2.0.sol\":2279:2285  _start */\n      immutable(\"0xb0c7bc42bdbc6fc210fecd6a5f5b923061cceb0f8ca5c7d964d5c22fc0e4b0b6\")\n        /* \"contracts/Whitelist-2.0.sol\":2272:2285  return _start */\n      0xffffffffffffffff\n      and\n      swap1\n      pop\n        /* \"contracts/Whitelist-2.0.sol\":2206:2293  function start() public view virtual returns (uint256) {... */\n      swap1\n      jump\t// out\n        /* \"contracts/Whitelist-2.0.sol\":3864:4088  function deleteMultiVesting(Beneficiary[] calldata users)... */\n    tag_55:\n        /* \"@openzeppelin/contracts/access/Ownable.sol\":1259:1271  _msgSender() */\n      tag_117\n        /* \"@openzeppelin/contracts/access/Ownable.sol\":1259:1269  _msgSender */\n      tag_74\n        /* \"@openzeppelin/contracts/access/Ownable.sol\":1259:1271  _msgSender() */\n      jump\t// in\n    tag_117:\n        /* \"@openzeppelin/contracts/access/Ownable.sol\":1248:1271  owner() == _msgSender() */\n      0xffffffffffffffffffffffffffffffffffffffff\n      and\n        /* \"@openzeppelin/contracts/access/Ownable.sol\":1248:1255  owner() */\n      tag_118\n        /* \"@openzeppelin/contracts/access/Ownable.sol\":1248:1253  owner */\n      tag_41\n        /* \"@openzeppelin/contracts/access/Ownable.sol\":1248:1255  owner() */\n      jump\t// in\n    tag_118:\n        /* \"@openzeppelin/contracts/access/Ownable.sol\":1248:1271  owner() == _msgSender() */\n      0xffffffffffffffffffffffffffffffffffffffff\n      and\n      eq\n        /* \"@openzeppelin/contracts/access/Ownable.sol\":1240:1308  require(owner() == _msgSender(), \"Ownable: caller is not the owner\") */\n      tag_119\n      jumpi\n      mload(0x40)\n      0x08c379a000000000000000000000000000000000000000000000000000000000\n      dup2\n      mstore\n      0x04\n      add\n      tag_120\n      swap1\n      tag_78\n      jump\t// in\n    tag_120:\n      mload(0x40)\n      dup1\n      swap2\n      sub\n      swap1\n      revert\n    tag_119:\n        /* \"contracts/Whitelist-2.0.sol\":3980:3989  uint256 i */\n      0x00\n        /* \"contracts/Whitelist-2.0.sol\":3975:4081  for (uint256 i = 0; i < users.length; i = _unsafeInc(i)) {... */\n    tag_122:\n        /* \"contracts/Whitelist-2.0.sol\":3999:4004  users */\n      dup3\n      dup3\n        /* \"contracts/Whitelist-2.0.sol\":3999:4011  users.length */\n      swap1\n      pop\n        /* \"contracts/Whitelist-2.0.sol\":3995:3996  i */\n      dup2\n        /* \"contracts/Whitelist-2.0.sol\":3995:4011  i < users.length */\n      lt\n        /* \"contracts/Whitelist-2.0.sol\":3975:4081  for (uint256 i = 0; i < users.length; i = _unsafeInc(i)) {... */\n      iszero\n      tag_123\n      jumpi\n        /* \"contracts/Whitelist-2.0.sol\":4047:4069  _delete(users[i].user) */\n      tag_125\n        /* \"contracts/Whitelist-2.0.sol\":4055:4060  users */\n      dup4\n      dup4\n        /* \"contracts/Whitelist-2.0.sol\":4061:4062  i */\n      dup4\n        /* \"contracts/Whitelist-2.0.sol\":4055:4063  users[i] */\n      dup2\n      dup2\n      lt\n      tag_126\n      jumpi\n      tag_127\n      tag_86\n      jump\t// in\n    tag_127:\n    tag_126:\n      swap1\n      pop\n      0x40\n      mul\n      add\n        /* \"contracts/Whitelist-2.0.sol\":4055:4068  users[i].user */\n      0x00\n      add\n      0x20\n      dup2\n      add\n      swap1\n      tag_128\n      swap2\n      swap1\n      tag_59\n      jump\t// in\n    tag_128:\n        /* \"contracts/Whitelist-2.0.sol\":4047:4054  _delete */\n      tag_129\n        /* \"contracts/Whitelist-2.0.sol\":4047:4069  _delete(users[i].user) */\n      jump\t// in\n    tag_125:\n        /* \"contracts/Whitelist-2.0.sol\":4017:4030  _unsafeInc(i) */\n      tag_130\n        /* \"contracts/Whitelist-2.0.sol\":4028:4029  i */\n      dup2\n        /* \"contracts/Whitelist-2.0.sol\":4017:4027  _unsafeInc */\n      tag_92\n        /* \"contracts/Whitelist-2.0.sol\":4017:4030  _unsafeInc(i) */\n      jump\t// in\n    tag_130:\n        /* \"contracts/Whitelist-2.0.sol\":4013:4030  i = _unsafeInc(i) */\n      swap1\n      pop\n        /* \"contracts/Whitelist-2.0.sol\":3975:4081  for (uint256 i = 0; i < users.length; i = _unsafeInc(i)) {... */\n      jump(tag_122)\n    tag_123:\n      pop\n        /* \"contracts/Whitelist-2.0.sol\":3864:4088  function deleteMultiVesting(Beneficiary[] calldata users)... */\n      pop\n      pop\n      jump\t// out\n        /* \"@openzeppelin/contracts/access/Ownable.sol\":1918:2116  function transferOwnership(address newOwner) public virtual onlyOwner {... */\n    tag_60:\n        /* \"@openzeppelin/contracts/access/Ownable.sol\":1259:1271  _msgSender() */\n      tag_132\n        /* \"@openzeppelin/contracts/access/Ownable.sol\":1259:1269  _msgSender */\n      tag_74\n        /* \"@openzeppelin/contracts/access/Ownable.sol\":1259:1271  _msgSender() */\n      jump\t// in\n    tag_132:\n        /* \"@openzeppelin/contracts/access/Ownable.sol\":1248:1271  owner() == _msgSender() */\n      0xffffffffffffffffffffffffffffffffffffffff\n      and\n        /* \"@openzeppelin/contracts/access/Ownable.sol\":1248:1255  owner() */\n      tag_133\n        /* \"@openzeppelin/contracts/access/Ownable.sol\":1248:1253  owner */\n      tag_41\n        /* \"@openzeppelin/contracts/access/Ownable.sol\":1248:1255  owner() */\n      jump\t// in\n    tag_133:\n        /* \"@openzeppelin/contracts/access/Ownable.sol\":1248:1271  owner() == _msgSender() */\n      0xffffffffffffffffffffffffffffffffffffffff\n      and\n      eq\n        /* \"@openzeppelin/contracts/access/Ownable.sol\":1240:1308  require(owner() == _msgSender(), \"Ownable: caller is not the owner\") */\n      tag_134\n      jumpi\n      mload(0x40)\n      0x08c379a000000000000000000000000000000000000000000000000000000000\n      dup2\n      mstore\n      0x04\n      add\n      tag_135\n      swap1\n      tag_78\n      jump\t// in\n    tag_135:\n      mload(0x40)\n      dup1\n      swap2\n      sub\n      swap1\n      revert\n    tag_134:\n        /* \"@openzeppelin/contracts/access/Ownable.sol\":2026:2027  0 */\n      0x00\n        /* \"@openzeppelin/contracts/access/Ownable.sol\":2006:2028  newOwner != address(0) */\n      0xffffffffffffffffffffffffffffffffffffffff\n      and\n        /* \"@openzeppelin/contracts/access/Ownable.sol\":2006:2014  newOwner */\n      dup2\n        /* \"@openzeppelin/contracts/access/Ownable.sol\":2006:2028  newOwner != address(0) */\n      0xffffffffffffffffffffffffffffffffffffffff\n      and\n      eq\n      iszero\n        /* \"@openzeppelin/contracts/access/Ownable.sol\":1998:2071  require(newOwner != address(0), \"Ownable: new owner is the zero address\") */\n      tag_137\n      jumpi\n      mload(0x40)\n      0x08c379a000000000000000000000000000000000000000000000000000000000\n      dup2\n      mstore\n      0x04\n      add\n      tag_138\n      swap1\n      tag_139\n      jump\t// in\n    tag_138:\n      mload(0x40)\n      dup1\n      swap2\n      sub\n      swap1\n      revert\n    tag_137:\n        /* \"@openzeppelin/contracts/access/Ownable.sol\":2081:2109  _transferOwnership(newOwner) */\n      tag_140\n        /* \"@openzeppelin/contracts/access/Ownable.sol\":2100:2108  newOwner */\n      dup2\n        /* \"@openzeppelin/contracts/access/Ownable.sol\":2081:2099  _transferOwnership */\n      tag_100\n        /* \"@openzeppelin/contracts/access/Ownable.sol\":2081:2109  _transferOwnership(newOwner) */\n      jump\t// in\n    tag_140:\n        /* \"@openzeppelin/contracts/access/Ownable.sol\":1918:2116  function transferOwnership(address newOwner) public virtual onlyOwner {... */\n      pop\n      jump\t// out\n        /* \"contracts/Whitelist-2.0.sol\":2800:2936  function releasable() public view virtual returns (uint256) {... */\n    tag_63:\n        /* \"contracts/Whitelist-2.0.sol\":2851:2858  uint256 */\n      0x00\n        /* \"contracts/Whitelist-2.0.sol\":2918:2928  released() */\n      tag_142\n        /* \"contracts/Whitelist-2.0.sol\":2918:2926  released */\n      tag_46\n        /* \"contracts/Whitelist-2.0.sol\":2918:2928  released() */\n      jump\t// in\n    tag_142:\n        /* \"contracts/Whitelist-2.0.sol\":2878:2915  vestedAmount(uint64(block.timestamp)) */\n      tag_143\n        /* \"contracts/Whitelist-2.0.sol\":2898:2913  block.timestamp */\n      timestamp\n        /* \"contracts/Whitelist-2.0.sol\":2878:2890  vestedAmount */\n      tag_21\n        /* \"contracts/Whitelist-2.0.sol\":2878:2915  vestedAmount(uint64(block.timestamp)) */\n      jump\t// in\n    tag_143:\n        /* \"contracts/Whitelist-2.0.sol\":2878:2928  vestedAmount(uint64(block.timestamp)) - released() */\n      tag_144\n      swap2\n      swap1\n      tag_108\n      jump\t// in\n    tag_144:\n        /* \"contracts/Whitelist-2.0.sol\":2871:2928  return vestedAmount(uint64(block.timestamp)) - released() */\n      swap1\n      pop\n        /* \"contracts/Whitelist-2.0.sol\":2800:2936  function releasable() public view virtual returns (uint256) {... */\n      swap1\n      jump\t// out\n        /* \"contracts/Whitelist-2.0.sol\":5727:6142  function _vestingSchedule(uint256 totalAllocation, uint64 timestamp)... */\n    tag_70:\n        /* \"contracts/Whitelist-2.0.sol\":5863:5870  uint256 */\n      0x00\n        /* \"contracts/Whitelist-2.0.sol\":5904:5911  start() */\n      tag_146\n        /* \"contracts/Whitelist-2.0.sol\":5904:5909  start */\n      tag_50\n        /* \"contracts/Whitelist-2.0.sol\":5904:5911  start() */\n      jump\t// in\n    tag_146:\n        /* \"contracts/Whitelist-2.0.sol\":5892:5901  timestamp */\n      dup3\n        /* \"contracts/Whitelist-2.0.sol\":5892:5911  timestamp < start() */\n      0xffffffffffffffff\n      and\n      lt\n        /* \"contracts/Whitelist-2.0.sol\":5888:6135  if (timestamp < start()) {... */\n      iszero\n      tag_147\n      jumpi\n        /* \"contracts/Whitelist-2.0.sol\":5935:5936  0 */\n      0x00\n        /* \"contracts/Whitelist-2.0.sol\":5928:5936  return 0 */\n      swap1\n      pop\n      jump(tag_145)\n        /* \"contracts/Whitelist-2.0.sol\":5888:6135  if (timestamp < start()) {... */\n    tag_147:\n        /* \"contracts/Whitelist-2.0.sol\":5980:5990  duration() */\n      tag_149\n        /* \"contracts/Whitelist-2.0.sol\":5980:5988  duration */\n      tag_26\n        /* \"contracts/Whitelist-2.0.sol\":5980:5990  duration() */\n      jump\t// in\n    tag_149:\n        /* \"contracts/Whitelist-2.0.sol\":5970:5977  start() */\n      tag_150\n        /* \"contracts/Whitelist-2.0.sol\":5970:5975  start */\n      tag_50\n        /* \"contracts/Whitelist-2.0.sol\":5970:5977  start() */\n      jump\t// in\n    tag_150:\n        /* \"contracts/Whitelist-2.0.sol\":5970:5990  start() + duration() */\n      tag_151\n      swap2\n      swap1\n      tag_69\n      jump\t// in\n    tag_151:\n        /* \"contracts/Whitelist-2.0.sol\":5958:5967  timestamp */\n      dup3\n        /* \"contracts/Whitelist-2.0.sol\":5958:5990  timestamp > start() + duration() */\n      0xffffffffffffffff\n      and\n      gt\n        /* \"contracts/Whitelist-2.0.sol\":5954:6135  if (timestamp > start() + duration()) {... */\n      iszero\n      tag_152\n      jumpi\n        /* \"contracts/Whitelist-2.0.sol\":6014:6029  totalAllocation */\n      dup3\n        /* \"contracts/Whitelist-2.0.sol\":6007:6029  return totalAllocation */\n      swap1\n      pop\n      jump(tag_145)\n        /* \"contracts/Whitelist-2.0.sol\":5954:6135  if (timestamp > start() + duration()) {... */\n    tag_152:\n        /* \"contracts/Whitelist-2.0.sol\":6113:6123  duration() */\n      tag_154\n        /* \"contracts/Whitelist-2.0.sol\":6113:6121  duration */\n      tag_26\n        /* \"contracts/Whitelist-2.0.sol\":6113:6123  duration() */\n      jump\t// in\n    tag_154:\n        /* \"contracts/Whitelist-2.0.sol\":6101:6108  start() */\n      tag_155\n        /* \"contracts/Whitelist-2.0.sol\":6101:6106  start */\n      tag_50\n        /* \"contracts/Whitelist-2.0.sol\":6101:6108  start() */\n      jump\t// in\n    tag_155:\n        /* \"contracts/Whitelist-2.0.sol\":6089:6098  timestamp */\n      dup4\n        /* \"contracts/Whitelist-2.0.sol\":6089:6108  timestamp - start() */\n      0xffffffffffffffff\n      and\n      tag_156\n      swap2\n      swap1\n      tag_108\n      jump\t// in\n    tag_156:\n        /* \"contracts/Whitelist-2.0.sol\":6070:6085  totalAllocation */\n      dup5\n        /* \"contracts/Whitelist-2.0.sol\":6070:6109  totalAllocation * (timestamp - start()) */\n      tag_157\n      swap2\n      swap1\n      tag_158\n      jump\t// in\n    tag_157:\n        /* \"contracts/Whitelist-2.0.sol\":6069:6123  (totalAllocation * (timestamp - start())) / duration() */\n      tag_159\n      swap2\n      swap1\n      tag_160\n      jump\t// in\n    tag_159:\n        /* \"contracts/Whitelist-2.0.sol\":6062:6123  return (totalAllocation * (timestamp - start())) / duration() */\n      swap1\n      pop\n        /* \"contracts/Whitelist-2.0.sol\":5727:6142  function _vestingSchedule(uint256 totalAllocation, uint64 timestamp)... */\n    tag_145:\n      swap3\n      swap2\n      pop\n      pop\n      jump\t// out\n        /* \"@openzeppelin/contracts/utils/Context.sol\":640:736  function _msgSender() internal view virtual returns (address) {... */\n    tag_74:\n        /* \"@openzeppelin/contracts/utils/Context.sol\":693:700  address */\n      0x00\n        /* \"@openzeppelin/contracts/utils/Context.sol\":719:729  msg.sender */\n      caller\n        /* \"@openzeppelin/contracts/utils/Context.sol\":712:729  return msg.sender */\n      swap1\n      pop\n        /* \"@openzeppelin/contracts/utils/Context.sol\":640:736  function _msgSender() internal view virtual returns (address) {... */\n      swap1\n      jump\t// out\n        /* \"contracts/Whitelist-2.0.sol\":3374:3475  function _vest(address user, uint256 amount) internal {... */\n    tag_90:\n        /* \"contracts/Whitelist-2.0.sol\":3461:3467  amount */\n      dup1\n        /* \"contracts/Whitelist-2.0.sol\":3439:3451  _beneficiary */\n      0x03\n        /* \"contracts/Whitelist-2.0.sol\":3439:3457  _beneficiary[user] */\n      0x00\n        /* \"contracts/Whitelist-2.0.sol\":3452:3456  user */\n      dup5\n        /* \"contracts/Whitelist-2.0.sol\":3439:3457  _beneficiary[user] */\n      0xffffffffffffffffffffffffffffffffffffffff\n      and\n      0xffffffffffffffffffffffffffffffffffffffff\n      and\n      dup2\n      mstore\n      0x20\n      add\n      swap1\n      dup2\n      mstore\n      0x20\n      add\n      0x00\n      keccak256\n      0x00\n        /* \"contracts/Whitelist-2.0.sol\":3439:3467  _beneficiary[user] += amount */\n      dup3\n      dup3\n      sload\n      tag_163\n      swap2\n      swap1\n      tag_69\n      jump\t// in\n    tag_163:\n      swap3\n      pop\n      pop\n      dup2\n      swap1\n      sstore\n      pop\n        /* \"contracts/Whitelist-2.0.sol\":3374:3475  function _vest(address user, uint256 amount) internal {... */\n      pop\n      pop\n      jump\t// out\n        /* \"contracts/Whitelist-2.0.sol\":3175:3305  function _unsafeInc(uint256 x) internal pure returns (uint256) {... */\n    tag_92:\n        /* \"contracts/Whitelist-2.0.sol\":3229:3236  uint256 */\n      0x00\n        /* \"contracts/Whitelist-2.0.sol\":3285:3286  1 */\n      0x01\n        /* \"contracts/Whitelist-2.0.sol\":3281:3282  x */\n      dup3\n        /* \"contracts/Whitelist-2.0.sol\":3281:3286  x + 1 */\n      add\n        /* \"contracts/Whitelist-2.0.sol\":3274:3286  return x + 1 */\n      swap1\n      pop\n        /* \"contracts/Whitelist-2.0.sol\":3175:3305  function _unsafeInc(uint256 x) internal pure returns (uint256) {... */\n      swap2\n      swap1\n      pop\n      jump\t// out\n        /* \"@openzeppelin/contracts/access/Ownable.sol\":2270:2457  function _transferOwnership(address newOwner) internal virtual {... */\n    tag_100:\n        /* \"@openzeppelin/contracts/access/Ownable.sol\":2343:2359  address oldOwner */\n      0x00\n        /* \"@openzeppelin/contracts/access/Ownable.sol\":2362:2368  _owner */\n      dup1\n      0x00\n      swap1\n      sload\n      swap1\n      0x0100\n      exp\n      swap1\n      div\n      0xffffffffffffffffffffffffffffffffffffffff\n      and\n        /* \"@openzeppelin/contracts/access/Ownable.sol\":2343:2368  address oldOwner = _owner */\n      swap1\n      pop\n        /* \"@openzeppelin/contracts/access/Ownable.sol\":2387:2395  newOwner */\n      dup2\n        /* \"@openzeppelin/contracts/access/Ownable.sol\":2378:2384  _owner */\n      0x00\n      dup1\n        /* \"@openzeppelin/contracts/access/Ownable.sol\":2378:2395  _owner = newOwner */\n      0x0100\n      exp\n      dup2\n      sload\n      dup2\n      0xffffffffffffffffffffffffffffffffffffffff\n      mul\n      not\n      and\n      swap1\n      dup4\n      0xffffffffffffffffffffffffffffffffffffffff\n      and\n      mul\n      or\n      swap1\n      sstore\n      pop\n        /* \"@openzeppelin/contracts/access/Ownable.sol\":2441:2449  newOwner */\n      dup2\n        /* \"@openzeppelin/contracts/access/Ownable.sol\":2410:2450  OwnershipTransferred(oldOwner, newOwner) */\n      0xffffffffffffffffffffffffffffffffffffffff\n      and\n        /* \"@openzeppelin/contracts/access/Ownable.sol\":2431:2439  oldOwner */\n      dup2\n        /* \"@openzeppelin/contracts/access/Ownable.sol\":2410:2450  OwnershipTransferred(oldOwner, newOwner) */\n      0xffffffffffffffffffffffffffffffffffffffff\n      and\n      0x8be0079c531659141344cd1fd0a4f28419497f9722a3daafe3b4186f6b6457e0\n      mload(0x40)\n      mload(0x40)\n      dup1\n      swap2\n      sub\n      swap1\n      log3\n        /* \"@openzeppelin/contracts/access/Ownable.sol\":2333:2457  {... */\n      pop\n        /* \"@openzeppelin/contracts/access/Ownable.sol\":2270:2457  function _transferOwnership(address newOwner) internal virtual {... */\n      pop\n      jump\t// out\n        /* \"contracts/Whitelist-2.0.sol\":3037:3167  function _currentMonth() internal view returns (uint256) {... */\n    tag_104:\n        /* \"contracts/Whitelist-2.0.sol\":3085:3092  uint256 */\n      0x00\n        /* \"contracts/Whitelist-2.0.sol\":3150:3159  1 minutes */\n      0x3c\n        /* \"contracts/Whitelist-2.0.sol\":3139:3146  start() */\n      tag_167\n        /* \"contracts/Whitelist-2.0.sol\":3139:3144  start */\n      tag_50\n        /* \"contracts/Whitelist-2.0.sol\":3139:3146  start() */\n      jump\t// in\n    tag_167:\n        /* \"contracts/Whitelist-2.0.sol\":3120:3135  block.timestamp */\n      timestamp\n        /* \"contracts/Whitelist-2.0.sol\":3113:3146  uint64(block.timestamp) - start() */\n      0xffffffffffffffff\n      and\n      tag_168\n      swap2\n      swap1\n      tag_108\n      jump\t// in\n    tag_168:\n        /* \"contracts/Whitelist-2.0.sol\":3112:3159  (uint64(block.timestamp) - start()) / 1 minutes */\n      tag_169\n      swap2\n      swap1\n      tag_160\n      jump\t// in\n    tag_169:\n        /* \"contracts/Whitelist-2.0.sol\":3105:3159  return (uint64(block.timestamp) - start()) / 1 minutes */\n      swap1\n      pop\n        /* \"contracts/Whitelist-2.0.sol\":3037:3167  function _currentMonth() internal view returns (uint256) {... */\n      swap1\n      jump\t// out\n        /* \"@openzeppelin/contracts/token/ERC20/utils/SafeERC20.sol\":701:906  function safeTransfer(... */\n    tag_112:\n        /* \"@openzeppelin/contracts/token/ERC20/utils/SafeERC20.sol\":813:899  _callOptionalReturn(token, abi.encodeWithSelector(token.transfer.selector, to, value)) */\n      tag_171\n        /* \"@openzeppelin/contracts/token/ERC20/utils/SafeERC20.sol\":833:838  token */\n      dup4\n        /* \"@openzeppelin/contracts/token/ERC20/utils/SafeERC20.sol\":863:886  token.transfer.selector */\n      shl(0xe0, 0xa9059cbb)\n        /* \"@openzeppelin/contracts/token/ERC20/utils/SafeERC20.sol\":888:890  to */\n      dup5\n        /* \"@openzeppelin/contracts/token/ERC20/utils/SafeERC20.sol\":892:897  value */\n      dup5\n        /* \"@openzeppelin/contracts/token/ERC20/utils/SafeERC20.sol\":840:898  abi.encodeWithSelector(token.transfer.selector, to, value) */\n      add(0x24, mload(0x40))\n      tag_172\n      swap3\n      swap2\n      swap1\n      tag_173\n      jump\t// in\n    tag_172:\n      mload(0x40)\n      0x20\n      dup2\n      dup4\n      sub\n      sub\n      dup2\n      mstore\n      swap1\n      0x40\n      mstore\n      swap1\n      not(0xffffffffffffffffffffffffffffffffffffffffffffffffffffffff)\n      and\n      0x20\n      dup3\n      add\n      dup1\n      mload\n      0xffffffffffffffffffffffffffffffffffffffffffffffffffffffff\n      dup4\n      dup2\n      dup4\n      and\n      or\n      dup4\n      mstore\n      pop\n      pop\n      pop\n      pop\n        /* \"@openzeppelin/contracts/token/ERC20/utils/SafeERC20.sol\":813:832  _callOptionalReturn */\n      tag_174\n        /* \"@openzeppelin/contracts/token/ERC20/utils/SafeERC20.sol\":813:899  _callOptionalReturn(token, abi.encodeWithSelector(token.transfer.selector, to, value)) */\n      jump\t// in\n    tag_171:\n        /* \"@openzeppelin/contracts/token/ERC20/utils/SafeERC20.sol\":701:906  function safeTransfer(... */\n      pop\n      pop\n      pop\n      jump\t// out\n        /* \"contracts/Whitelist-2.0.sol\":3551:3635  function _delete(address user) internal {... */\n    tag_129:\n        /* \"contracts/Whitelist-2.0.sol\":3609:3621  _beneficiary */\n      0x03\n        /* \"contracts/Whitelist-2.0.sol\":3609:3627  _beneficiary[user] */\n      0x00\n        /* \"contracts/Whitelist-2.0.sol\":3622:3626  user */\n      dup3\n        /* \"contracts/Whitelist-2.0.sol\":3609:3627  _beneficiary[user] */\n      0xffffffffffffffffffffffffffffffffffffffff\n      and\n      0xffffffffffffffffffffffffffffffffffffffff\n      and\n      dup2\n      mstore\n      0x20\n      add\n      swap1\n      dup2\n      mstore\n      0x20\n      add\n      0x00\n      keccak256\n        /* \"contracts/Whitelist-2.0.sol\":3602:3627  delete _beneficiary[user] */\n      0x00\n      swap1\n      sstore\n        /* \"contracts/Whitelist-2.0.sol\":3551:3635  function _delete(address user) internal {... */\n      pop\n      jump\t// out\n        /* \"@openzeppelin/contracts/token/ERC20/utils/SafeERC20.sol\":3207:3913  function _callOptionalReturn(IERC20 token, bytes memory data) private {... */\n    tag_174:\n        /* \"@openzeppelin/contracts/token/ERC20/utils/SafeERC20.sol\":3626:3649  bytes memory returndata */\n      0x00\n        /* \"@openzeppelin/contracts/token/ERC20/utils/SafeERC20.sol\":3652:3721  address(token).functionCall(data, \"SafeERC20: low-level call failed\") */\n      tag_177\n        /* \"@openzeppelin/contracts/token/ERC20/utils/SafeERC20.sol\":3680:3684  data */\n      dup3\n        /* \"@openzeppelin/contracts/token/ERC20/utils/SafeERC20.sol\":3652:3721  address(token).functionCall(data, \"SafeERC20: low-level call failed\") */\n      mload(0x40)\n      dup1\n      0x40\n      add\n      0x40\n      mstore\n      dup1\n      0x20\n      dup2\n      mstore\n      0x20\n      add\n      0x5361666545524332303a206c6f772d6c6576656c2063616c6c206661696c6564\n      dup2\n      mstore\n      pop\n        /* \"@openzeppelin/contracts/token/ERC20/utils/SafeERC20.sol\":3660:3665  token */\n      dup6\n        /* \"@openzeppelin/contracts/token/ERC20/utils/SafeERC20.sol\":3652:3679  address(token).functionCall */\n      0xffffffffffffffffffffffffffffffffffffffff\n      and\n      tag_178\n      swap1\n        /* \"@openzeppelin/contracts/token/ERC20/utils/SafeERC20.sol\":3652:3721  address(token).functionCall(data, \"SafeERC20: low-level call failed\") */\n      swap3\n      swap2\n      swap1\n      0xffffffff\n      and\n      jump\t// in\n    tag_177:\n        /* \"@openzeppelin/contracts/token/ERC20/utils/SafeERC20.sol\":3626:3721  bytes memory returndata = address(token).functionCall(data, \"SafeERC20: low-level call failed\") */\n      swap1\n      pop\n        /* \"@openzeppelin/contracts/token/ERC20/utils/SafeERC20.sol\":3755:3756  0 */\n      0x00\n        /* \"@openzeppelin/contracts/token/ERC20/utils/SafeERC20.sol\":3735:3745  returndata */\n      dup2\n        /* \"@openzeppelin/contracts/token/ERC20/utils/SafeERC20.sol\":3735:3752  returndata.length */\n      mload\n        /* \"@openzeppelin/contracts/token/ERC20/utils/SafeERC20.sol\":3735:3756  returndata.length > 0 */\n      gt\n        /* \"@openzeppelin/contracts/token/ERC20/utils/SafeERC20.sol\":3731:3907  if (returndata.length > 0) {... */\n      iszero\n      tag_179\n      jumpi\n        /* \"@openzeppelin/contracts/token/ERC20/utils/SafeERC20.sol\":3830:3840  returndata */\n      dup1\n        /* \"@openzeppelin/contracts/token/ERC20/utils/SafeERC20.sol\":3819:3849  abi.decode(returndata, (bool)) */\n      dup1\n      0x20\n      add\n      swap1\n      mload\n      dup2\n      add\n      swap1\n      tag_180\n      swap2\n      swap1\n      tag_181\n      jump\t// in\n    tag_180:\n        /* \"@openzeppelin/contracts/token/ERC20/utils/SafeERC20.sol\":3811:3896  require(abi.decode(returndata, (bool)), \"SafeERC20: ERC20 operation did not succeed\") */\n      tag_182\n      jumpi\n      mload(0x40)\n      0x08c379a000000000000000000000000000000000000000000000000000000000\n      dup2\n      mstore\n      0x04\n      add\n      tag_183\n      swap1\n      tag_184\n      jump\t// in\n    tag_183:\n      mload(0x40)\n      dup1\n      swap2\n      sub\n      swap1\n      revert\n    tag_182:\n        /* \"@openzeppelin/contracts/token/ERC20/utils/SafeERC20.sol\":3731:3907  if (returndata.length > 0) {... */\n    tag_179:\n        /* \"@openzeppelin/contracts/token/ERC20/utils/SafeERC20.sol\":3277:3913  {... */\n      pop\n        /* \"@openzeppelin/contracts/token/ERC20/utils/SafeERC20.sol\":3207:3913  function _callOptionalReturn(IERC20 token, bytes memory data) private {... */\n      pop\n      pop\n      jump\t// out\n        /* \"@openzeppelin/contracts/utils/Address.sol\":3861:4084  function functionCall(... */\n    tag_178:\n        /* \"@openzeppelin/contracts/utils/Address.sol\":3994:4006  bytes memory */\n      0x60\n        /* \"@openzeppelin/contracts/utils/Address.sol\":4025:4077  functionCallWithValue(target, data, 0, errorMessage) */\n      tag_186\n        /* \"@openzeppelin/contracts/utils/Address.sol\":4047:4053  target */\n      dup5\n        /* \"@openzeppelin/contracts/utils/Address.sol\":4055:4059  data */\n      dup5\n        /* \"@openzeppelin/contracts/utils/Address.sol\":4061:4062  0 */\n      0x00\n        /* \"@openzeppelin/contracts/utils/Address.sol\":4064:4076  errorMessage */\n      dup6\n        /* \"@openzeppelin/contracts/utils/Address.sol\":4025:4046  functionCallWithValue */\n      tag_187\n        /* \"@openzeppelin/contracts/utils/Address.sol\":4025:4077  functionCallWithValue(target, data, 0, errorMessage) */\n      jump\t// in\n    tag_186:\n        /* \"@openzeppelin/contracts/utils/Address.sol\":4018:4077  return functionCallWithValue(target, data, 0, errorMessage) */\n      swap1\n      pop\n        /* \"@openzeppelin/contracts/utils/Address.sol\":3861:4084  function functionCall(... */\n      swap4\n      swap3\n      pop\n      pop\n      pop\n      jump\t// out\n        /* \"@openzeppelin/contracts/utils/Address.sol\":4948:5447  function functionCallWithValue(... */\n    tag_187:\n        /* \"@openzeppelin/contracts/utils/Address.sol\":5113:5125  bytes memory */\n      0x60\n        /* \"@openzeppelin/contracts/utils/Address.sol\":5170:5175  value */\n      dup3\n        /* \"@openzeppelin/contracts/utils/Address.sol\":5145:5166  address(this).balance */\n      selfbalance\n        /* \"@openzeppelin/contracts/utils/Address.sol\":5145:5175  address(this).balance >= value */\n      lt\n      iszero\n        /* \"@openzeppelin/contracts/utils/Address.sol\":5137:5218  require(address(this).balance >= value, \"Address: insufficient balance for call\") */\n      tag_189\n      jumpi\n      mload(0x40)\n      0x08c379a000000000000000000000000000000000000000000000000000000000\n      dup2\n      mstore\n      0x04\n      add\n      tag_190\n      swap1\n      tag_191\n      jump\t// in\n    tag_190:\n      mload(0x40)\n      dup1\n      swap2\n      sub\n      swap1\n      revert\n    tag_189:\n        /* \"@openzeppelin/contracts/utils/Address.sol\":5236:5254  isContract(target) */\n      tag_192\n        /* \"@openzeppelin/contracts/utils/Address.sol\":5247:5253  target */\n      dup6\n        /* \"@openzeppelin/contracts/utils/Address.sol\":5236:5246  isContract */\n      tag_193\n        /* \"@openzeppelin/contracts/utils/Address.sol\":5236:5254  isContract(target) */\n      jump\t// in\n    tag_192:\n        /* \"@openzeppelin/contracts/utils/Address.sol\":5228:5288  require(isContract(target), \"Address: call to non-contract\") */\n      tag_194\n      jumpi\n      mload(0x40)\n      0x08c379a000000000000000000000000000000000000000000000000000000000\n      dup2\n      mstore\n      0x04\n      add\n      tag_195\n      swap1\n      tag_196\n      jump\t// in\n    tag_195:\n      mload(0x40)\n      dup1\n      swap2\n      sub\n      swap1\n      revert\n    tag_194:\n        /* \"@openzeppelin/contracts/utils/Address.sol\":5300:5312  bool success */\n      0x00\n        /* \"@openzeppelin/contracts/utils/Address.sol\":5314:5337  bytes memory returndata */\n      dup1\n        /* \"@openzeppelin/contracts/utils/Address.sol\":5341:5347  target */\n      dup7\n        /* \"@openzeppelin/contracts/utils/Address.sol\":5341:5352  target.call */\n      0xffffffffffffffffffffffffffffffffffffffff\n      and\n        /* \"@openzeppelin/contracts/utils/Address.sol\":5360:5365  value */\n      dup6\n        /* \"@openzeppelin/contracts/utils/Address.sol\":5367:5371  data */\n      dup8\n        /* \"@openzeppelin/contracts/utils/Address.sol\":5341:5372  target.call{value: value}(data) */\n      mload(0x40)\n      tag_197\n      swap2\n      swap1\n      tag_198\n      jump\t// in\n    tag_197:\n      0x00\n      mload(0x40)\n      dup1\n      dup4\n      sub\n      dup2\n      dup6\n      dup8\n      gas\n      call\n      swap3\n      pop\n      pop\n      pop\n      returndatasize\n      dup1\n      0x00\n      dup2\n      eq\n      tag_201\n      jumpi\n      mload(0x40)\n      swap2\n      pop\n      and(add(returndatasize, 0x3f), not(0x1f))\n      dup3\n      add\n      0x40\n      mstore\n      returndatasize\n      dup3\n      mstore\n      returndatasize\n      0x00\n      0x20\n      dup5\n      add\n      returndatacopy\n      jump(tag_200)\n    tag_201:\n      0x60\n      swap2\n      pop\n    tag_200:\n      pop\n        /* \"@openzeppelin/contracts/utils/Address.sol\":5299:5372  (bool success, bytes memory returndata) = target.call{value: value}(data) */\n      swap2\n      pop\n      swap2\n      pop\n        /* \"@openzeppelin/contracts/utils/Address.sol\":5389:5440  verifyCallResult(success, returndata, errorMessage) */\n      tag_202\n        /* \"@openzeppelin/contracts/utils/Address.sol\":5406:5413  success */\n      dup3\n        /* \"@openzeppelin/contracts/utils/Address.sol\":5415:5425  returndata */\n      dup3\n        /* \"@openzeppelin/contracts/utils/Address.sol\":5427:5439  errorMessage */\n      dup7\n        /* \"@openzeppelin/contracts/utils/Address.sol\":5389:5405  verifyCallResult */\n      tag_203\n        /* \"@openzeppelin/contracts/utils/Address.sol\":5389:5440  verifyCallResult(success, returndata, errorMessage) */\n      jump\t// in\n    tag_202:\n        /* \"@openzeppelin/contracts/utils/Address.sol\":5382:5440  return verifyCallResult(success, returndata, errorMessage) */\n      swap3\n      pop\n      pop\n      pop\n        /* \"@openzeppelin/contracts/utils/Address.sol\":4948:5447  function functionCallWithValue(... */\n      swap5\n      swap4\n      pop\n      pop\n      pop\n      pop\n      jump\t// out\n        /* \"@openzeppelin/contracts/utils/Address.sol\":1175:1495  function isContract(address account) internal view returns (bool) {... */\n    tag_193:\n        /* \"@openzeppelin/contracts/utils/Address.sol\":1235:1239  bool */\n      0x00\n        /* \"@openzeppelin/contracts/utils/Address.sol\":1487:1488  0 */\n      dup1\n        /* \"@openzeppelin/contracts/utils/Address.sol\":1465:1472  account */\n      dup3\n        /* \"@openzeppelin/contracts/utils/Address.sol\":1465:1484  account.code.length */\n      0xffffffffffffffffffffffffffffffffffffffff\n      and\n      extcodesize\n        /* \"@openzeppelin/contracts/utils/Address.sol\":1465:1488  account.code.length > 0 */\n      gt\n        /* \"@openzeppelin/contracts/utils/Address.sol\":1458:1488  return account.code.length > 0 */\n      swap1\n      pop\n        /* \"@openzeppelin/contracts/utils/Address.sol\":1175:1495  function isContract(address account) internal view returns (bool) {... */\n      swap2\n      swap1\n      pop\n      jump\t// out\n        /* \"@openzeppelin/contracts/utils/Address.sol\":7561:8253  function verifyCallResult(... */\n    tag_203:\n        /* \"@openzeppelin/contracts/utils/Address.sol\":7707:7719  bytes memory */\n      0x60\n        /* \"@openzeppelin/contracts/utils/Address.sol\":7735:7742  success */\n      dup4\n        /* \"@openzeppelin/contracts/utils/Address.sol\":7731:8247  if (success) {... */\n      iszero\n      tag_206\n      jumpi\n        /* \"@openzeppelin/contracts/utils/Address.sol\":7765:7775  returndata */\n      dup3\n        /* \"@openzeppelin/contracts/utils/Address.sol\":7758:7775  return returndata */\n      swap1\n      pop\n      jump(tag_205)\n        /* \"@openzeppelin/contracts/utils/Address.sol\":7731:8247  if (success) {... */\n    tag_206:\n        /* \"@openzeppelin/contracts/utils/Address.sol\":7896:7897  0 */\n      0x00\n        /* \"@openzeppelin/contracts/utils/Address.sol\":7876:7886  returndata */\n      dup4\n        /* \"@openzeppelin/contracts/utils/Address.sol\":7876:7893  returndata.length */\n      mload\n        /* \"@openzeppelin/contracts/utils/Address.sol\":7876:7897  returndata.length > 0 */\n      gt\n        /* \"@openzeppelin/contracts/utils/Address.sol\":7872:8237  if (returndata.length > 0) {... */\n      iszero\n      tag_208\n      jumpi\n        /* \"@openzeppelin/contracts/utils/Address.sol\":8070:8080  returndata */\n      dup3\n        /* \"@openzeppelin/contracts/utils/Address.sol\":8064:8081  mload(returndata) */\n      mload\n        /* \"@openzeppelin/contracts/utils/Address.sol\":8130:8145  returndata_size */\n      dup1\n        /* \"@openzeppelin/contracts/utils/Address.sol\":8117:8127  returndata */\n      dup5\n        /* \"@openzeppelin/contracts/utils/Address.sol\":8113:8115  32 */\n      0x20\n        /* \"@openzeppelin/contracts/utils/Address.sol\":8109:8128  add(32, returndata) */\n      add\n        /* \"@openzeppelin/contracts/utils/Address.sol\":8102:8146  revert(add(32, returndata), returndata_size) */\n      revert\n        /* \"@openzeppelin/contracts/utils/Address.sol\":7872:8237  if (returndata.length > 0) {... */\n    tag_208:\n        /* \"@openzeppelin/contracts/utils/Address.sol\":8209:8221  errorMessage */\n      dup2\n        /* \"@openzeppelin/contracts/utils/Address.sol\":8202:8222  revert(errorMessage) */\n      mload(0x40)\n      0x08c379a000000000000000000000000000000000000000000000000000000000\n      dup2\n      mstore\n      0x04\n      add\n      tag_210\n      swap2\n      swap1\n      tag_211\n      jump\t// in\n    tag_210:\n      mload(0x40)\n      dup1\n      swap2\n      sub\n      swap1\n      revert\n        /* \"@openzeppelin/contracts/utils/Address.sol\":7561:8253  function verifyCallResult(... */\n    tag_205:\n      swap4\n      swap3\n      pop\n      pop\n      pop\n      jump\t// out\n        /* \"#utility.yul\":88:205   */\n    tag_213:\n        /* \"#utility.yul\":197:198   */\n      0x00\n        /* \"#utility.yul\":194:195   */\n      dup1\n        /* \"#utility.yul\":187:199   */\n      revert\n        /* \"#utility.yul\":211:328   */\n    tag_214:\n        /* \"#utility.yul\":320:321   */\n      0x00\n        /* \"#utility.yul\":317:318   */\n      dup1\n        /* \"#utility.yul\":310:322   */\n      revert\n        /* \"#utility.yul\":334:435   */\n    tag_215:\n        /* \"#utility.yul\":370:377   */\n      0x00\n        /* \"#utility.yul\":410:428   */\n      0xffffffffffffffff\n        /* \"#utility.yul\":403:408   */\n      dup3\n        /* \"#utility.yul\":399:429   */\n      and\n        /* \"#utility.yul\":388:429   */\n      swap1\n      pop\n        /* \"#utility.yul\":334:435   */\n      swap2\n      swap1\n      pop\n      jump\t// out\n        /* \"#utility.yul\":441:561   */\n    tag_216:\n        /* \"#utility.yul\":513:536   */\n      tag_258\n        /* \"#utility.yul\":530:535   */\n      dup2\n        /* \"#utility.yul\":513:536   */\n      tag_215\n      jump\t// in\n    tag_258:\n        /* \"#utility.yul\":506:511   */\n      dup2\n        /* \"#utility.yul\":503:537   */\n      eq\n        /* \"#utility.yul\":493:555   */\n      tag_259\n      jumpi\n        /* \"#utility.yul\":551:552   */\n      0x00\n        /* \"#utility.yul\":548:549   */\n      dup1\n        /* \"#utility.yul\":541:553   */\n      revert\n        /* \"#utility.yul\":493:555   */\n    tag_259:\n        /* \"#utility.yul\":441:561   */\n      pop\n      jump\t// out\n        /* \"#utility.yul\":567:704   */\n    tag_217:\n        /* \"#utility.yul\":612:617   */\n      0x00\n        /* \"#utility.yul\":650:656   */\n      dup2\n        /* \"#utility.yul\":637:657   */\n      calldataload\n        /* \"#utility.yul\":628:657   */\n      swap1\n      pop\n        /* \"#utility.yul\":666:698   */\n      tag_261\n        /* \"#utility.yul\":692:697   */\n      dup2\n        /* \"#utility.yul\":666:698   */\n      tag_216\n      jump\t// in\n    tag_261:\n        /* \"#utility.yul\":567:704   */\n      swap3\n      swap2\n      pop\n      pop\n      jump\t// out\n        /* \"#utility.yul\":710:1037   */\n    tag_20:\n        /* \"#utility.yul\":768:774   */\n      0x00\n        /* \"#utility.yul\":817:819   */\n      0x20\n        /* \"#utility.yul\":805:814   */\n      dup3\n        /* \"#utility.yul\":796:803   */\n      dup5\n        /* \"#utility.yul\":792:815   */\n      sub\n        /* \"#utility.yul\":788:820   */\n      slt\n        /* \"#utility.yul\":785:904   */\n      iszero\n      tag_263\n      jumpi\n        /* \"#utility.yul\":823:902   */\n      tag_264\n      tag_213\n      jump\t// in\n    tag_264:\n        /* \"#utility.yul\":785:904   */\n    tag_263:\n        /* \"#utility.yul\":943:944   */\n      0x00\n        /* \"#utility.yul\":968:1020   */\n      tag_265\n        /* \"#utility.yul\":1012:1019   */\n      dup5\n        /* \"#utility.yul\":1003:1009   */\n      dup3\n        /* \"#utility.yul\":992:1001   */\n      dup6\n        /* \"#utility.yul\":988:1010   */\n      add\n        /* \"#utility.yul\":968:1020   */\n      tag_217\n      jump\t// in\n    tag_265:\n        /* \"#utility.yul\":958:1020   */\n      swap2\n      pop\n        /* \"#utility.yul\":914:1030   */\n      pop\n        /* \"#utility.yul\":710:1037   */\n      swap3\n      swap2\n      pop\n      pop\n      jump\t// out\n        /* \"#utility.yul\":1043:1120   */\n    tag_218:\n        /* \"#utility.yul\":1080:1087   */\n      0x00\n        /* \"#utility.yul\":1109:1114   */\n      dup2\n        /* \"#utility.yul\":1098:1114   */\n      swap1\n      pop\n        /* \"#utility.yul\":1043:1120   */\n      swap2\n      swap1\n      pop\n      jump\t// out\n        /* \"#utility.yul\":1126:1244   */\n    tag_219:\n        /* \"#utility.yul\":1213:1237   */\n      tag_268\n        /* \"#utility.yul\":1231:1236   */\n      dup2\n        /* \"#utility.yul\":1213:1237   */\n      tag_218\n      jump\t// in\n    tag_268:\n        /* \"#utility.yul\":1208:1211   */\n      dup3\n        /* \"#utility.yul\":1201:1238   */\n      mstore\n        /* \"#utility.yul\":1126:1244   */\n      pop\n      pop\n      jump\t// out\n        /* \"#utility.yul\":1250:1472   */\n    tag_23:\n        /* \"#utility.yul\":1343:1347   */\n      0x00\n        /* \"#utility.yul\":1381:1383   */\n      0x20\n        /* \"#utility.yul\":1370:1379   */\n      dup3\n        /* \"#utility.yul\":1366:1384   */\n      add\n        /* \"#utility.yul\":1358:1384   */\n      swap1\n      pop\n        /* \"#utility.yul\":1394:1465   */\n      tag_270\n        /* \"#utility.yul\":1462:1463   */\n      0x00\n        /* \"#utility.yul\":1451:1460   */\n      dup4\n        /* \"#utility.yul\":1447:1464   */\n      add\n        /* \"#utility.yul\":1438:1444   */\n      dup5\n        /* \"#utility.yul\":1394:1465   */\n      tag_219\n      jump\t// in\n    tag_270:\n        /* \"#utility.yul\":1250:1472   */\n      swap3\n      swap2\n      pop\n      pop\n      jump\t// out\n        /* \"#utility.yul\":1478:1595   */\n    tag_220:\n        /* \"#utility.yul\":1587:1588   */\n      0x00\n        /* \"#utility.yul\":1584:1585   */\n      dup1\n        /* \"#utility.yul\":1577:1589   */\n      revert\n        /* \"#utility.yul\":1601:1718   */\n    tag_221:\n        /* \"#utility.yul\":1710:1711   */\n      0x00\n        /* \"#utility.yul\":1707:1708   */\n      dup1\n        /* \"#utility.yul\":1700:1712   */\n      revert\n        /* \"#utility.yul\":1724:1841   */\n    tag_222:\n        /* \"#utility.yul\":1833:1834   */\n      0x00\n        /* \"#utility.yul\":1830:1831   */\n      dup1\n        /* \"#utility.yul\":1823:1835   */\n      revert\n        /* \"#utility.yul\":1892:2490   */\n    tag_223:\n        /* \"#utility.yul\":1995:2003   */\n      0x00\n        /* \"#utility.yul\":2005:2011   */\n      dup1\n        /* \"#utility.yul\":2055:2058   */\n      dup4\n        /* \"#utility.yul\":2048:2052   */\n      0x1f\n        /* \"#utility.yul\":2040:2046   */\n      dup5\n        /* \"#utility.yul\":2036:2053   */\n      add\n        /* \"#utility.yul\":2032:2059   */\n      slt\n        /* \"#utility.yul\":2022:2144   */\n      tag_275\n      jumpi\n        /* \"#utility.yul\":2063:2142   */\n      tag_276\n      tag_220\n      jump\t// in\n    tag_276:\n        /* \"#utility.yul\":2022:2144   */\n    tag_275:\n        /* \"#utility.yul\":2176:2182   */\n      dup3\n        /* \"#utility.yul\":2163:2183   */\n      calldataload\n        /* \"#utility.yul\":2153:2183   */\n      swap1\n      pop\n        /* \"#utility.yul\":2206:2224   */\n      0xffffffffffffffff\n        /* \"#utility.yul\":2198:2204   */\n      dup2\n        /* \"#utility.yul\":2195:2225   */\n      gt\n        /* \"#utility.yul\":2192:2309   */\n      iszero\n      tag_277\n      jumpi\n        /* \"#utility.yul\":2228:2307   */\n      tag_278\n      tag_221\n      jump\t// in\n    tag_278:\n        /* \"#utility.yul\":2192:2309   */\n    tag_277:\n        /* \"#utility.yul\":2342:2346   */\n      0x20\n        /* \"#utility.yul\":2334:2340   */\n      dup4\n        /* \"#utility.yul\":2330:2347   */\n      add\n        /* \"#utility.yul\":2318:2347   */\n      swap2\n      pop\n        /* \"#utility.yul\":2396:2399   */\n      dup4\n        /* \"#utility.yul\":2388:2392   */\n      0x40\n        /* \"#utility.yul\":2380:2386   */\n      dup3\n        /* \"#utility.yul\":2376:2393   */\n      mul\n        /* \"#utility.yul\":2366:2374   */\n      dup4\n        /* \"#utility.yul\":2362:2394   */\n      add\n        /* \"#utility.yul\":2359:2400   */\n      gt\n        /* \"#utility.yul\":2356:2484   */\n      iszero\n      tag_279\n      jumpi\n        /* \"#utility.yul\":2403:2482   */\n      tag_280\n      tag_222\n      jump\t// in\n    tag_280:\n        /* \"#utility.yul\":2356:2484   */\n    tag_279:\n        /* \"#utility.yul\":1892:2490   */\n      swap3\n      pop\n      swap3\n      swap1\n      pop\n      jump\t// out\n        /* \"#utility.yul\":2496:3115   */\n    tag_31:\n        /* \"#utility.yul\":2612:2618   */\n      0x00\n        /* \"#utility.yul\":2620:2626   */\n      dup1\n        /* \"#utility.yul\":2669:2671   */\n      0x20\n        /* \"#utility.yul\":2657:2666   */\n      dup4\n        /* \"#utility.yul\":2648:2655   */\n      dup6\n        /* \"#utility.yul\":2644:2667   */\n      sub\n        /* \"#utility.yul\":2640:2672   */\n      slt\n        /* \"#utility.yul\":2637:2756   */\n      iszero\n      tag_282\n      jumpi\n        /* \"#utility.yul\":2675:2754   */\n      tag_283\n      tag_213\n      jump\t// in\n    tag_283:\n        /* \"#utility.yul\":2637:2756   */\n    tag_282:\n        /* \"#utility.yul\":2823:2824   */\n      0x00\n        /* \"#utility.yul\":2812:2821   */\n      dup4\n        /* \"#utility.yul\":2808:2825   */\n      add\n        /* \"#utility.yul\":2795:2826   */\n      calldataload\n        /* \"#utility.yul\":2853:2871   */\n      0xffffffffffffffff\n        /* \"#utility.yul\":2845:2851   */\n      dup2\n        /* \"#utility.yul\":2842:2872   */\n      gt\n        /* \"#utility.yul\":2839:2956   */\n      iszero\n      tag_284\n      jumpi\n        /* \"#utility.yul\":2875:2954   */\n      tag_285\n      tag_214\n      jump\t// in\n    tag_285:\n        /* \"#utility.yul\":2839:2956   */\n    tag_284:\n        /* \"#utility.yul\":2988:3098   */\n      tag_286\n        /* \"#utility.yul\":3090:3097   */\n      dup6\n        /* \"#utility.yul\":3081:3087   */\n      dup3\n        /* \"#utility.yul\":3070:3079   */\n      dup7\n        /* \"#utility.yul\":3066:3088   */\n      add\n        /* \"#utility.yul\":2988:3098   */\n      tag_223\n      jump\t// in\n    tag_286:\n        /* \"#utility.yul\":2970:3098   */\n      swap3\n      pop\n      swap3\n      pop\n        /* \"#utility.yul\":2766:3108   */\n      pop\n        /* \"#utility.yul\":2496:3115   */\n      swap3\n      pop\n      swap3\n      swap1\n      pop\n      jump\t// out\n        /* \"#utility.yul\":3121:3247   */\n    tag_224:\n        /* \"#utility.yul\":3158:3165   */\n      0x00\n        /* \"#utility.yul\":3198:3240   */\n      0xffffffffffffffffffffffffffffffffffffffff\n        /* \"#utility.yul\":3191:3196   */\n      dup3\n        /* \"#utility.yul\":3187:3241   */\n      and\n        /* \"#utility.yul\":3176:3241   */\n      swap1\n      pop\n        /* \"#utility.yul\":3121:3247   */\n      swap2\n      swap1\n      pop\n      jump\t// out\n        /* \"#utility.yul\":3253:3349   */\n    tag_225:\n        /* \"#utility.yul\":3290:3297   */\n      0x00\n        /* \"#utility.yul\":3319:3343   */\n      tag_289\n        /* \"#utility.yul\":3337:3342   */\n      dup3\n        /* \"#utility.yul\":3319:3343   */\n      tag_224\n      jump\t// in\n    tag_289:\n        /* \"#utility.yul\":3308:3343   */\n      swap1\n      pop\n        /* \"#utility.yul\":3253:3349   */\n      swap2\n      swap1\n      pop\n      jump\t// out\n        /* \"#utility.yul\":3355:3473   */\n    tag_226:\n        /* \"#utility.yul\":3442:3466   */\n      tag_291\n        /* \"#utility.yul\":3460:3465   */\n      dup2\n        /* \"#utility.yul\":3442:3466   */\n      tag_225\n      jump\t// in\n    tag_291:\n        /* \"#utility.yul\":3437:3440   */\n      dup3\n        /* \"#utility.yul\":3430:3467   */\n      mstore\n        /* \"#utility.yul\":3355:3473   */\n      pop\n      pop\n      jump\t// out\n        /* \"#utility.yul\":3479:3701   */\n    tag_43:\n        /* \"#utility.yul\":3572:3576   */\n      0x00\n        /* \"#utility.yul\":3610:3612   */\n      0x20\n        /* \"#utility.yul\":3599:3608   */\n      dup3\n        /* \"#utility.yul\":3595:3613   */\n      add\n        /* \"#utility.yul\":3587:3613   */\n      swap1\n      pop\n        /* \"#utility.yul\":3623:3694   */\n      tag_293\n        /* \"#utility.yul\":3691:3692   */\n      0x00\n        /* \"#utility.yul\":3680:3689   */\n      dup4\n        /* \"#utility.yul\":3676:3693   */\n      add\n        /* \"#utility.yul\":3667:3673   */\n      dup5\n        /* \"#utility.yul\":3623:3694   */\n      tag_226\n      jump\t// in\n    tag_293:\n        /* \"#utility.yul\":3479:3701   */\n      swap3\n      swap2\n      pop\n      pop\n      jump\t// out\n        /* \"#utility.yul\":3707:3829   */\n    tag_227:\n        /* \"#utility.yul\":3780:3804   */\n      tag_295\n        /* \"#utility.yul\":3798:3803   */\n      dup2\n        /* \"#utility.yul\":3780:3804   */\n      tag_225\n      jump\t// in\n    tag_295:\n        /* \"#utility.yul\":3773:3778   */\n      dup2\n        /* \"#utility.yul\":3770:3805   */\n      eq\n        /* \"#utility.yul\":3760:3823   */\n      tag_296\n      jumpi\n        /* \"#utility.yul\":3819:3820   */\n      0x00\n        /* \"#utility.yul\":3816:3817   */\n      dup1\n        /* \"#utility.yul\":3809:3821   */\n      revert\n        /* \"#utility.yul\":3760:3823   */\n    tag_296:\n        /* \"#utility.yul\":3707:3829   */\n      pop\n      jump\t// out\n        /* \"#utility.yul\":3835:3974   */\n    tag_228:\n        /* \"#utility.yul\":3881:3886   */\n      0x00\n        /* \"#utility.yul\":3919:3925   */\n      dup2\n        /* \"#utility.yul\":3906:3926   */\n      calldataload\n        /* \"#utility.yul\":3897:3926   */\n      swap1\n      pop\n        /* \"#utility.yul\":3935:3968   */\n      tag_298\n        /* \"#utility.yul\":3962:3967   */\n      dup2\n        /* \"#utility.yul\":3935:3968   */\n      tag_227\n      jump\t// in\n    tag_298:\n        /* \"#utility.yul\":3835:3974   */\n      swap3\n      swap2\n      pop\n      pop\n      jump\t// out\n        /* \"#utility.yul\":3980:4309   */\n    tag_59:\n        /* \"#utility.yul\":4039:4045   */\n      0x00\n        /* \"#utility.yul\":4088:4090   */\n      0x20\n        /* \"#utility.yul\":4076:4085   */\n      dup3\n        /* \"#utility.yul\":4067:4074   */\n      dup5\n        /* \"#utility.yul\":4063:4086   */\n      sub\n        /* \"#utility.yul\":4059:4091   */\n      slt\n        /* \"#utility.yul\":4056:4175   */\n      iszero\n      tag_300\n      jumpi\n        /* \"#utility.yul\":4094:4173   */\n      tag_301\n      tag_213\n      jump\t// in\n    tag_301:\n        /* \"#utility.yul\":4056:4175   */\n    tag_300:\n        /* \"#utility.yul\":4214:4215   */\n      0x00\n        /* \"#utility.yul\":4239:4292   */\n      tag_302\n        /* \"#utility.yul\":4284:4291   */\n      dup5\n        /* \"#utility.yul\":4275:4281   */\n      dup3\n        /* \"#utility.yul\":4264:4273   */\n      dup6\n        /* \"#utility.yul\":4260:4282   */\n      add\n        /* \"#utility.yul\":4239:4292   */\n      tag_228\n      jump\t// in\n    tag_302:\n        /* \"#utility.yul\":4229:4292   */\n      swap2\n      pop\n        /* \"#utility.yul\":4185:4302   */\n      pop\n        /* \"#utility.yul\":3980:4309   */\n      swap3\n      swap2\n      pop\n      pop\n      jump\t// out\n        /* \"#utility.yul\":4315:4495   */\n    tag_229:\n        /* \"#utility.yul\":4363:4440   */\n      0x4e487b7100000000000000000000000000000000000000000000000000000000\n        /* \"#utility.yul\":4360:4361   */\n      0x00\n        /* \"#utility.yul\":4353:4441   */\n      mstore\n        /* \"#utility.yul\":4460:4464   */\n      0x11\n        /* \"#utility.yul\":4457:4458   */\n      0x04\n        /* \"#utility.yul\":4450:4465   */\n      mstore\n        /* \"#utility.yul\":4484:4488   */\n      0x24\n        /* \"#utility.yul\":4481:4482   */\n      0x00\n        /* \"#utility.yul\":4474:4489   */\n      revert\n        /* \"#utility.yul\":4501:4806   */\n    tag_69:\n        /* \"#utility.yul\":4541:4544   */\n      0x00\n        /* \"#utility.yul\":4560:4580   */\n      tag_305\n        /* \"#utility.yul\":4578:4579   */\n      dup3\n        /* \"#utility.yul\":4560:4580   */\n      tag_218\n      jump\t// in\n    tag_305:\n        /* \"#utility.yul\":4555:4580   */\n      swap2\n      pop\n        /* \"#utility.yul\":4594:4614   */\n      tag_306\n        /* \"#utility.yul\":4612:4613   */\n      dup4\n        /* \"#utility.yul\":4594:4614   */\n      tag_218\n      jump\t// in\n    tag_306:\n        /* \"#utility.yul\":4589:4614   */\n      swap3\n      pop\n        /* \"#utility.yul\":4748:4749   */\n      dup3\n        /* \"#utility.yul\":4680:4746   */\n      0xffffffffffffffffffffffffffffffffffffffffffffffffffffffffffffffff\n        /* \"#utility.yul\":4676:4750   */\n      sub\n        /* \"#utility.yul\":4673:4674   */\n      dup3\n        /* \"#utility.yul\":4670:4751   */\n      gt\n        /* \"#utility.yul\":4667:4774   */\n      iszero\n      tag_307\n      jumpi\n        /* \"#utility.yul\":4754:4772   */\n      tag_308\n      tag_229\n      jump\t// in\n    tag_308:\n        /* \"#utility.yul\":4667:4774   */\n    tag_307:\n        /* \"#utility.yul\":4798:4799   */\n      dup3\n        /* \"#utility.yul\":4795:4796   */\n      dup3\n        /* \"#utility.yul\":4791:4800   */\n      add\n        /* \"#utility.yul\":4784:4800   */\n      swap1\n      pop\n        /* \"#utility.yul\":4501:4806   */\n      swap3\n      swap2\n      pop\n      pop\n      jump\t// out\n        /* \"#utility.yul\":4812:4981   */\n    tag_230:\n        /* \"#utility.yul\":4896:4907   */\n      0x00\n        /* \"#utility.yul\":4930:4936   */\n      dup3\n        /* \"#utility.yul\":4925:4928   */\n      dup3\n        /* \"#utility.yul\":4918:4937   */\n      mstore\n        /* \"#utility.yul\":4970:4974   */\n      0x20\n        /* \"#utility.yul\":4965:4968   */\n      dup3\n        /* \"#utility.yul\":4961:4975   */\n      add\n        /* \"#utility.yul\":4946:4975   */\n      swap1\n      pop\n        /* \"#utility.yul\":4812:4981   */\n      swap3\n      swap2\n      pop\n      pop\n      jump\t// out\n        /* \"#utility.yul\":4987:5169   */\n    tag_231:\n        /* \"#utility.yul\":5127:5161   */\n      0x4f776e61626c653a2063616c6c6572206973206e6f7420746865206f776e6572\n        /* \"#utility.yul\":5123:5124   */\n      0x00\n        /* \"#utility.yul\":5115:5121   */\n      dup3\n        /* \"#utility.yul\":5111:5125   */\n      add\n        /* \"#utility.yul\":5104:5162   */\n      mstore\n        /* \"#utility.yul\":4987:5169   */\n      pop\n      jump\t// out\n        /* \"#utility.yul\":5175:5541   */\n    tag_232:\n        /* \"#utility.yul\":5317:5320   */\n      0x00\n        /* \"#utility.yul\":5338:5405   */\n      tag_312\n        /* \"#utility.yul\":5402:5404   */\n      0x20\n        /* \"#utility.yul\":5397:5400   */\n      dup4\n        /* \"#utility.yul\":5338:5405   */\n      tag_230\n      jump\t// in\n    tag_312:\n        /* \"#utility.yul\":5331:5405   */\n      swap2\n      pop\n        /* \"#utility.yul\":5414:5507   */\n      tag_313\n        /* \"#utility.yul\":5503:5506   */\n      dup3\n        /* \"#utility.yul\":5414:5507   */\n      tag_231\n      jump\t// in\n    tag_313:\n        /* \"#utility.yul\":5532:5534   */\n      0x20\n        /* \"#utility.yul\":5527:5530   */\n      dup3\n        /* \"#utility.yul\":5523:5535   */\n      add\n        /* \"#utility.yul\":5516:5535   */\n      swap1\n      pop\n        /* \"#utility.yul\":5175:5541   */\n      swap2\n      swap1\n      pop\n      jump\t// out\n        /* \"#utility.yul\":5547:5966   */\n    tag_78:\n        /* \"#utility.yul\":5713:5717   */\n      0x00\n        /* \"#utility.yul\":5751:5753   */\n      0x20\n        /* \"#utility.yul\":5740:5749   */\n      dup3\n        /* \"#utility.yul\":5736:5754   */\n      add\n        /* \"#utility.yul\":5728:5754   */\n      swap1\n      pop\n        /* \"#utility.yul\":5800:5809   */\n      dup2\n        /* \"#utility.yul\":5794:5798   */\n      dup2\n        /* \"#utility.yul\":5790:5810   */\n      sub\n        /* \"#utility.yul\":5786:5787   */\n      0x00\n        /* \"#utility.yul\":5775:5784   */\n      dup4\n        /* \"#utility.yul\":5771:5788   */\n      add\n        /* \"#utility.yul\":5764:5811   */\n      mstore\n        /* \"#utility.yul\":5828:5959   */\n      tag_315\n        /* \"#utility.yul\":5954:5958   */\n      dup2\n        /* \"#utility.yul\":5828:5959   */\n      tag_232\n      jump\t// in\n    tag_315:\n        /* \"#utility.yul\":5820:5959   */\n      swap1\n      pop\n        /* \"#utility.yul\":5547:5966   */\n      swap2\n      swap1\n      pop\n      jump\t// out\n        /* \"#utility.yul\":5972:6152   */\n    tag_86:\n        /* \"#utility.yul\":6020:6097   */\n      0x4e487b7100000000000000000000000000000000000000000000000000000000\n        /* \"#utility.yul\":6017:6018   */\n      0x00\n        /* \"#utility.yul\":6010:6098   */\n      mstore\n        /* \"#utility.yul\":6117:6121   */\n      0x32\n        /* \"#utility.yul\":6114:6115   */\n      0x04\n        /* \"#utility.yul\":6107:6122   */\n      mstore\n        /* \"#utility.yul\":6141:6145   */\n      0x24\n        /* \"#utility.yul\":6138:6139   */\n      0x00\n        /* \"#utility.yul\":6131:6146   */\n      revert\n        /* \"#utility.yul\":6158:6349   */\n    tag_108:\n        /* \"#utility.yul\":6198:6202   */\n      0x00\n        /* \"#utility.yul\":6218:6238   */\n      tag_318\n        /* \"#utility.yul\":6236:6237   */\n      dup3\n        /* \"#utility.yul\":6218:6238   */\n      tag_218\n      jump\t// in\n    tag_318:\n        /* \"#utility.yul\":6213:6238   */\n      swap2\n      pop\n        /* \"#utility.yul\":6252:6272   */\n      tag_319\n        /* \"#utility.yul\":6270:6271   */\n      dup4\n        /* \"#utility.yul\":6252:6272   */\n      tag_218\n      jump\t// in\n    tag_319:\n        /* \"#utility.yul\":6247:6272   */\n      swap3\n      pop\n        /* \"#utility.yul\":6291:6292   */\n      dup3\n        /* \"#utility.yul\":6288:6289   */\n      dup3\n        /* \"#utility.yul\":6285:6293   */\n      lt\n        /* \"#utility.yul\":6282:6316   */\n      iszero\n      tag_320\n      jumpi\n        /* \"#utility.yul\":6296:6314   */\n      tag_321\n      tag_229\n      jump\t// in\n    tag_321:\n        /* \"#utility.yul\":6282:6316   */\n    tag_320:\n        /* \"#utility.yul\":6341:6342   */\n      dup3\n        /* \"#utility.yul\":6338:6339   */\n      dup3\n        /* \"#utility.yul\":6334:6343   */\n      sub\n        /* \"#utility.yul\":6326:6343   */\n      swap1\n      pop\n        /* \"#utility.yul\":6158:6349   */\n      swap3\n      swap2\n      pop\n      pop\n      jump\t// out\n        /* \"#utility.yul\":6355:6580   */\n    tag_233:\n        /* \"#utility.yul\":6495:6529   */\n      0x4f776e61626c653a206e6577206f776e657220697320746865207a65726f2061\n        /* \"#utility.yul\":6491:6492   */\n      0x00\n        /* \"#utility.yul\":6483:6489   */\n      dup3\n        /* \"#utility.yul\":6479:6493   */\n      add\n        /* \"#utility.yul\":6472:6530   */\n      mstore\n        /* \"#utility.yul\":6564:6572   */\n      0x6464726573730000000000000000000000000000000000000000000000000000\n        /* \"#utility.yul\":6559:6561   */\n      0x20\n        /* \"#utility.yul\":6551:6557   */\n      dup3\n        /* \"#utility.yul\":6547:6562   */\n      add\n        /* \"#utility.yul\":6540:6573   */\n      mstore\n        /* \"#utility.yul\":6355:6580   */\n      pop\n      jump\t// out\n        /* \"#utility.yul\":6586:6952   */\n    tag_234:\n        /* \"#utility.yul\":6728:6731   */\n      0x00\n        /* \"#utility.yul\":6749:6816   */\n      tag_324\n        /* \"#utility.yul\":6813:6815   */\n      0x26\n        /* \"#utility.yul\":6808:6811   */\n      dup4\n        /* \"#utility.yul\":6749:6816   */\n      tag_230\n      jump\t// in\n    tag_324:\n        /* \"#utility.yul\":6742:6816   */\n      swap2\n      pop\n        /* \"#utility.yul\":6825:6918   */\n      tag_325\n        /* \"#utility.yul\":6914:6917   */\n      dup3\n        /* \"#utility.yul\":6825:6918   */\n      tag_233\n      jump\t// in\n    tag_325:\n        /* \"#utility.yul\":6943:6945   */\n      0x40\n        /* \"#utility.yul\":6938:6941   */\n      dup3\n        /* \"#utility.yul\":6934:6946   */\n      add\n        /* \"#utility.yul\":6927:6946   */\n      swap1\n      pop\n        /* \"#utility.yul\":6586:6952   */\n      swap2\n      swap1\n      pop\n      jump\t// out\n        /* \"#utility.yul\":6958:7377   */\n    tag_139:\n        /* \"#utility.yul\":7124:7128   */\n      0x00\n        /* \"#utility.yul\":7162:7164   */\n      0x20\n        /* \"#utility.yul\":7151:7160   */\n      dup3\n        /* \"#utility.yul\":7147:7165   */\n      add\n        /* \"#utility.yul\":7139:7165   */\n      swap1\n      pop\n        /* \"#utility.yul\":7211:7220   */\n      dup2\n        /* \"#utility.yul\":7205:7209   */\n      dup2\n        /* \"#utility.yul\":7201:7221   */\n      sub\n        /* \"#utility.yul\":7197:7198   */\n      0x00\n        /* \"#utility.yul\":7186:7195   */\n      dup4\n        /* \"#utility.yul\":7182:7199   */\n      add\n        /* \"#utility.yul\":7175:7222   */\n      mstore\n        /* \"#utility.yul\":7239:7370   */\n      tag_327\n        /* \"#utility.yul\":7365:7369   */\n      dup2\n        /* \"#utility.yul\":7239:7370   */\n      tag_234\n      jump\t// in\n    tag_327:\n        /* \"#utility.yul\":7231:7370   */\n      swap1\n      pop\n        /* \"#utility.yul\":6958:7377   */\n      swap2\n      swap1\n      pop\n      jump\t// out\n        /* \"#utility.yul\":7383:7731   */\n    tag_158:\n        /* \"#utility.yul\":7423:7430   */\n      0x00\n        /* \"#utility.yul\":7446:7466   */\n      tag_329\n        /* \"#utility.yul\":7464:7465   */\n      dup3\n        /* \"#utility.yul\":7446:7466   */\n      tag_218\n      jump\t// in\n    tag_329:\n        /* \"#utility.yul\":7441:7466   */\n      swap2\n      pop\n        /* \"#utility.yul\":7480:7500   */\n      tag_330\n        /* \"#utility.yul\":7498:7499   */\n      dup4\n        /* \"#utility.yul\":7480:7500   */\n      tag_218\n      jump\t// in\n    tag_330:\n        /* \"#utility.yul\":7475:7500   */\n      swap3\n      pop\n        /* \"#utility.yul\":7668:7669   */\n      dup2\n        /* \"#utility.yul\":7600:7666   */\n      0xffffffffffffffffffffffffffffffffffffffffffffffffffffffffffffffff\n        /* \"#utility.yul\":7596:7670   */\n      div\n        /* \"#utility.yul\":7593:7594   */\n      dup4\n        /* \"#utility.yul\":7590:7671   */\n      gt\n        /* \"#utility.yul\":7585:7586   */\n      dup3\n        /* \"#utility.yul\":7578:7587   */\n      iszero\n        /* \"#utility.yul\":7571:7588   */\n      iszero\n        /* \"#utility.yul\":7567:7672   */\n      and\n        /* \"#utility.yul\":7564:7695   */\n      iszero\n      tag_331\n      jumpi\n        /* \"#utility.yul\":7675:7693   */\n      tag_332\n      tag_229\n      jump\t// in\n    tag_332:\n        /* \"#utility.yul\":7564:7695   */\n    tag_331:\n        /* \"#utility.yul\":7723:7724   */\n      dup3\n        /* \"#utility.yul\":7720:7721   */\n      dup3\n        /* \"#utility.yul\":7716:7725   */\n      mul\n        /* \"#utility.yul\":7705:7725   */\n      swap1\n      pop\n        /* \"#utility.yul\":7383:7731   */\n      swap3\n      swap2\n      pop\n      pop\n      jump\t// out\n        /* \"#utility.yul\":7737:7917   */\n    tag_235:\n        /* \"#utility.yul\":7785:7862   */\n      0x4e487b7100000000000000000000000000000000000000000000000000000000\n        /* \"#utility.yul\":7782:7783   */\n      0x00\n        /* \"#utility.yul\":7775:7863   */\n      mstore\n        /* \"#utility.yul\":7882:7886   */\n      0x12\n        /* \"#utility.yul\":7879:7880   */\n      0x04\n        /* \"#utility.yul\":7872:7887   */\n      mstore\n        /* \"#utility.yul\":7906:7910   */\n      0x24\n        /* \"#utility.yul\":7903:7904   */\n      0x00\n        /* \"#utility.yul\":7896:7911   */\n      revert\n        /* \"#utility.yul\":7923:8108   */\n    tag_160:\n        /* \"#utility.yul\":7963:7964   */\n      0x00\n        /* \"#utility.yul\":7980:8000   */\n      tag_335\n        /* \"#utility.yul\":7998:7999   */\n      dup3\n        /* \"#utility.yul\":7980:8000   */\n      tag_218\n      jump\t// in\n    tag_335:\n        /* \"#utility.yul\":7975:8000   */\n      swap2\n      pop\n        /* \"#utility.yul\":8014:8034   */\n      tag_336\n        /* \"#utility.yul\":8032:8033   */\n      dup4\n        /* \"#utility.yul\":8014:8034   */\n      tag_218\n      jump\t// in\n    tag_336:\n        /* \"#utility.yul\":8009:8034   */\n      swap3\n      pop\n        /* \"#utility.yul\":8053:8054   */\n      dup3\n        /* \"#utility.yul\":8043:8078   */\n      tag_337\n      jumpi\n        /* \"#utility.yul\":8058:8076   */\n      tag_338\n      tag_235\n      jump\t// in\n    tag_338:\n        /* \"#utility.yul\":8043:8078   */\n    tag_337:\n        /* \"#utility.yul\":8100:8101   */\n      dup3\n        /* \"#utility.yul\":8097:8098   */\n      dup3\n        /* \"#utility.yul\":8093:8102   */\n      div\n        /* \"#utility.yul\":8088:8102   */\n      swap1\n      pop\n        /* \"#utility.yul\":7923:8108   */\n      swap3\n      swap2\n      pop\n      pop\n      jump\t// out\n        /* \"#utility.yul\":8114:8446   */\n    tag_173:\n        /* \"#utility.yul\":8235:8239   */\n      0x00\n        /* \"#utility.yul\":8273:8275   */\n      0x40\n        /* \"#utility.yul\":8262:8271   */\n      dup3\n        /* \"#utility.yul\":8258:8276   */\n      add\n        /* \"#utility.yul\":8250:8276   */\n      swap1\n      pop\n        /* \"#utility.yul\":8286:8357   */\n      tag_340\n        /* \"#utility.yul\":8354:8355   */\n      0x00\n        /* \"#utility.yul\":8343:8352   */\n      dup4\n        /* \"#utility.yul\":8339:8356   */\n      add\n        /* \"#utility.yul\":8330:8336   */\n      dup6\n        /* \"#utility.yul\":8286:8357   */\n      tag_226\n      jump\t// in\n    tag_340:\n        /* \"#utility.yul\":8367:8439   */\n      tag_341\n        /* \"#utility.yul\":8435:8437   */\n      0x20\n        /* \"#utility.yul\":8424:8433   */\n      dup4\n        /* \"#utility.yul\":8420:8438   */\n      add\n        /* \"#utility.yul\":8411:8417   */\n      dup5\n        /* \"#utility.yul\":8367:8439   */\n      tag_219\n      jump\t// in\n    tag_341:\n        /* \"#utility.yul\":8114:8446   */\n      swap4\n      swap3\n      pop\n      pop\n      pop\n      jump\t// out\n        /* \"#utility.yul\":8452:8542   */\n    tag_236:\n        /* \"#utility.yul\":8486:8493   */\n      0x00\n        /* \"#utility.yul\":8529:8534   */\n      dup2\n        /* \"#utility.yul\":8522:8535   */\n      iszero\n        /* \"#utility.yul\":8515:8536   */\n      iszero\n        /* \"#utility.yul\":8504:8536   */\n      swap1\n      pop\n        /* \"#utility.yul\":8452:8542   */\n      swap2\n      swap1\n      pop\n      jump\t// out\n        /* \"#utility.yul\":8548:8664   */\n    tag_237:\n        /* \"#utility.yul\":8618:8639   */\n      tag_344\n        /* \"#utility.yul\":8633:8638   */\n      dup2\n        /* \"#utility.yul\":8618:8639   */\n      tag_236\n      jump\t// in\n    tag_344:\n        /* \"#utility.yul\":8611:8616   */\n      dup2\n        /* \"#utility.yul\":8608:8640   */\n      eq\n        /* \"#utility.yul\":8598:8658   */\n      tag_345\n      jumpi\n        /* \"#utility.yul\":8654:8655   */\n      0x00\n        /* \"#utility.yul\":8651:8652   */\n      dup1\n        /* \"#utility.yul\":8644:8656   */\n      revert\n        /* \"#utility.yul\":8598:8658   */\n    tag_345:\n        /* \"#utility.yul\":8548:8664   */\n      pop\n      jump\t// out\n        /* \"#utility.yul\":8670:8807   */\n    tag_238:\n        /* \"#utility.yul\":8724:8729   */\n      0x00\n        /* \"#utility.yul\":8755:8761   */\n      dup2\n        /* \"#utility.yul\":8749:8762   */\n      mload\n        /* \"#utility.yul\":8740:8762   */\n      swap1\n      pop\n        /* \"#utility.yul\":8771:8801   */\n      tag_347\n        /* \"#utility.yul\":8795:8800   */\n      dup2\n        /* \"#utility.yul\":8771:8801   */\n      tag_237\n      jump\t// in\n    tag_347:\n        /* \"#utility.yul\":8670:8807   */\n      swap3\n      swap2\n      pop\n      pop\n      jump\t// out\n        /* \"#utility.yul\":8813:9158   */\n    tag_181:\n        /* \"#utility.yul\":8880:8886   */\n      0x00\n        /* \"#utility.yul\":8929:8931   */\n      0x20\n        /* \"#utility.yul\":8917:8926   */\n      dup3\n        /* \"#utility.yul\":8908:8915   */\n      dup5\n        /* \"#utility.yul\":8904:8927   */\n      sub\n        /* \"#utility.yul\":8900:8932   */\n      slt\n        /* \"#utility.yul\":8897:9016   */\n      iszero\n      tag_349\n      jumpi\n        /* \"#utility.yul\":8935:9014   */\n      tag_350\n      tag_213\n      jump\t// in\n    tag_350:\n        /* \"#utility.yul\":8897:9016   */\n    tag_349:\n        /* \"#utility.yul\":9055:9056   */\n      0x00\n        /* \"#utility.yul\":9080:9141   */\n      tag_351\n        /* \"#utility.yul\":9133:9140   */\n      dup5\n        /* \"#utility.yul\":9124:9130   */\n      dup3\n        /* \"#utility.yul\":9113:9122   */\n      dup6\n        /* \"#utility.yul\":9109:9131   */\n      add\n        /* \"#utility.yul\":9080:9141   */\n      tag_238\n      jump\t// in\n    tag_351:\n        /* \"#utility.yul\":9070:9141   */\n      swap2\n      pop\n        /* \"#utility.yul\":9026:9151   */\n      pop\n        /* \"#utility.yul\":8813:9158   */\n      swap3\n      swap2\n      pop\n      pop\n      jump\t// out\n        /* \"#utility.yul\":9164:9393   */\n    tag_239:\n        /* \"#utility.yul\":9304:9338   */\n      0x5361666545524332303a204552433230206f7065726174696f6e20646964206e\n        /* \"#utility.yul\":9300:9301   */\n      0x00\n        /* \"#utility.yul\":9292:9298   */\n      dup3\n        /* \"#utility.yul\":9288:9302   */\n      add\n        /* \"#utility.yul\":9281:9339   */\n      mstore\n        /* \"#utility.yul\":9373:9385   */\n      0x6f74207375636365656400000000000000000000000000000000000000000000\n        /* \"#utility.yul\":9368:9370   */\n      0x20\n        /* \"#utility.yul\":9360:9366   */\n      dup3\n        /* \"#utility.yul\":9356:9371   */\n      add\n        /* \"#utility.yul\":9349:9386   */\n      mstore\n        /* \"#utility.yul\":9164:9393   */\n      pop\n      jump\t// out\n        /* \"#utility.yul\":9399:9765   */\n    tag_240:\n        /* \"#utility.yul\":9541:9544   */\n      0x00\n        /* \"#utility.yul\":9562:9629   */\n      tag_354\n        /* \"#utility.yul\":9626:9628   */\n      0x2a\n        /* \"#utility.yul\":9621:9624   */\n      dup4\n        /* \"#utility.yul\":9562:9629   */\n      tag_230\n      jump\t// in\n    tag_354:\n        /* \"#utility.yul\":9555:9629   */\n      swap2\n      pop\n        /* \"#utility.yul\":9638:9731   */\n      tag_355\n        /* \"#utility.yul\":9727:9730   */\n      dup3\n        /* \"#utility.yul\":9638:9731   */\n      tag_239\n      jump\t// in\n    tag_355:\n        /* \"#utility.yul\":9756:9758   */\n      0x40\n        /* \"#utility.yul\":9751:9754   */\n      dup3\n        /* \"#utility.yul\":9747:9759   */\n      add\n        /* \"#utility.yul\":9740:9759   */\n      swap1\n      pop\n        /* \"#utility.yul\":9399:9765   */\n      swap2\n      swap1\n      pop\n      jump\t// out\n        /* \"#utility.yul\":9771:10190   */\n    tag_184:\n        /* \"#utility.yul\":9937:9941   */\n      0x00\n        /* \"#utility.yul\":9975:9977   */\n      0x20\n        /* \"#utility.yul\":9964:9973   */\n      dup3\n        /* \"#utility.yul\":9960:9978   */\n      add\n        /* \"#utility.yul\":9952:9978   */\n      swap1\n      pop\n        /* \"#utility.yul\":10024:10033   */\n      dup2\n        /* \"#utility.yul\":10018:10022   */\n      dup2\n        /* \"#utility.yul\":10014:10034   */\n      sub\n        /* \"#utility.yul\":10010:10011   */\n      0x00\n        /* \"#utility.yul\":9999:10008   */\n      dup4\n        /* \"#utility.yul\":9995:10012   */\n      add\n        /* \"#utility.yul\":9988:10035   */\n      mstore\n        /* \"#utility.yul\":10052:10183   */\n      tag_357\n        /* \"#utility.yul\":10178:10182   */\n      dup2\n        /* \"#utility.yul\":10052:10183   */\n      tag_240\n      jump\t// in\n    tag_357:\n        /* \"#utility.yul\":10044:10183   */\n      swap1\n      pop\n        /* \"#utility.yul\":9771:10190   */\n      swap2\n      swap1\n      pop\n      jump\t// out\n        /* \"#utility.yul\":10196:10421   */\n    tag_241:\n        /* \"#utility.yul\":10336:10370   */\n      0x416464726573733a20696e73756666696369656e742062616c616e636520666f\n        /* \"#utility.yul\":10332:10333   */\n      0x00\n        /* \"#utility.yul\":10324:10330   */\n      dup3\n        /* \"#utility.yul\":10320:10334   */\n      add\n        /* \"#utility.yul\":10313:10371   */\n      mstore\n        /* \"#utility.yul\":10405:10413   */\n      0x722063616c6c0000000000000000000000000000000000000000000000000000\n        /* \"#utility.yul\":10400:10402   */\n      0x20\n        /* \"#utility.yul\":10392:10398   */\n      dup3\n        /* \"#utility.yul\":10388:10403   */\n      add\n        /* \"#utility.yul\":10381:10414   */\n      mstore\n        /* \"#utility.yul\":10196:10421   */\n      pop\n      jump\t// out\n        /* \"#utility.yul\":10427:10793   */\n    tag_242:\n        /* \"#utility.yul\":10569:10572   */\n      0x00\n        /* \"#utility.yul\":10590:10657   */\n      tag_360\n        /* \"#utility.yul\":10654:10656   */\n      0x26\n        /* \"#utility.yul\":10649:10652   */\n      dup4\n        /* \"#utility.yul\":10590:10657   */\n      tag_230\n      jump\t// in\n    tag_360:\n        /* \"#utility.yul\":10583:10657   */\n      swap2\n      pop\n        /* \"#utility.yul\":10666:10759   */\n      tag_361\n        /* \"#utility.yul\":10755:10758   */\n      dup3\n        /* \"#utility.yul\":10666:10759   */\n      tag_241\n      jump\t// in\n    tag_361:\n        /* \"#utility.yul\":10784:10786   */\n      0x40\n        /* \"#utility.yul\":10779:10782   */\n      dup3\n        /* \"#utility.yul\":10775:10787   */\n      add\n        /* \"#utility.yul\":10768:10787   */\n      swap1\n      pop\n        /* \"#utility.yul\":10427:10793   */\n      swap2\n      swap1\n      pop\n      jump\t// out\n        /* \"#utility.yul\":10799:11218   */\n    tag_191:\n        /* \"#utility.yul\":10965:10969   */\n      0x00\n        /* \"#utility.yul\":11003:11005   */\n      0x20\n        /* \"#utility.yul\":10992:11001   */\n      dup3\n        /* \"#utility.yul\":10988:11006   */\n      add\n        /* \"#utility.yul\":10980:11006   */\n      swap1\n      pop\n        /* \"#utility.yul\":11052:11061   */\n      dup2\n        /* \"#utility.yul\":11046:11050   */\n      dup2\n        /* \"#utility.yul\":11042:11062   */\n      sub\n        /* \"#utility.yul\":11038:11039   */\n      0x00\n        /* \"#utility.yul\":11027:11036   */\n      dup4\n        /* \"#utility.yul\":11023:11040   */\n      add\n        /* \"#utility.yul\":11016:11063   */\n      mstore\n        /* \"#utility.yul\":11080:11211   */\n      tag_363\n        /* \"#utility.yul\":11206:11210   */\n      dup2\n        /* \"#utility.yul\":11080:11211   */\n      tag_242\n      jump\t// in\n    tag_363:\n        /* \"#utility.yul\":11072:11211   */\n      swap1\n      pop\n        /* \"#utility.yul\":10799:11218   */\n      swap2\n      swap1\n      pop\n      jump\t// out\n        /* \"#utility.yul\":11224:11403   */\n    tag_243:\n        /* \"#utility.yul\":11364:11395   */\n      0x416464726573733a2063616c6c20746f206e6f6e2d636f6e7472616374000000\n        /* \"#utility.yul\":11360:11361   */\n      0x00\n        /* \"#utility.yul\":11352:11358   */\n      dup3\n        /* \"#utility.yul\":11348:11362   */\n      add\n        /* \"#utility.yul\":11341:11396   */\n      mstore\n        /* \"#utility.yul\":11224:11403   */\n      pop\n      jump\t// out\n        /* \"#utility.yul\":11409:11775   */\n    tag_244:\n        /* \"#utility.yul\":11551:11554   */\n      0x00\n        /* \"#utility.yul\":11572:11639   */\n      tag_366\n        /* \"#utility.yul\":11636:11638   */\n      0x1d\n        /* \"#utility.yul\":11631:11634   */\n      dup4\n        /* \"#utility.yul\":11572:11639   */\n      tag_230\n      jump\t// in\n    tag_366:\n        /* \"#utility.yul\":11565:11639   */\n      swap2\n      pop\n        /* \"#utility.yul\":11648:11741   */\n      tag_367\n        /* \"#utility.yul\":11737:11740   */\n      dup3\n        /* \"#utility.yul\":11648:11741   */\n      tag_243\n      jump\t// in\n    tag_367:\n        /* \"#utility.yul\":11766:11768   */\n      0x20\n        /* \"#utility.yul\":11761:11764   */\n      dup3\n        /* \"#utility.yul\":11757:11769   */\n      add\n        /* \"#utility.yul\":11750:11769   */\n      swap1\n      pop\n        /* \"#utility.yul\":11409:11775   */\n      swap2\n      swap1\n      pop\n      jump\t// out\n        /* \"#utility.yul\":11781:12200   */\n    tag_196:\n        /* \"#utility.yul\":11947:11951   */\n      0x00\n        /* \"#utility.yul\":11985:11987   */\n      0x20\n        /* \"#utility.yul\":11974:11983   */\n      dup3\n        /* \"#utility.yul\":11970:11988   */\n      add\n        /* \"#utility.yul\":11962:11988   */\n      swap1\n      pop\n        /* \"#utility.yul\":12034:12043   */\n      dup2\n        /* \"#utility.yul\":12028:12032   */\n      dup2\n        /* \"#utility.yul\":12024:12044   */\n      sub\n        /* \"#utility.yul\":12020:12021   */\n      0x00\n        /* \"#utility.yul\":12009:12018   */\n      dup4\n        /* \"#utility.yul\":12005:12022   */\n      add\n        /* \"#utility.yul\":11998:12045   */\n      mstore\n        /* \"#utility.yul\":12062:12193   */\n      tag_369\n        /* \"#utility.yul\":12188:12192   */\n      dup2\n        /* \"#utility.yul\":12062:12193   */\n      tag_244\n      jump\t// in\n    tag_369:\n        /* \"#utility.yul\":12054:12193   */\n      swap1\n      pop\n        /* \"#utility.yul\":11781:12200   */\n      swap2\n      swap1\n      pop\n      jump\t// out\n        /* \"#utility.yul\":12206:12304   */\n    tag_245:\n        /* \"#utility.yul\":12257:12263   */\n      0x00\n        /* \"#utility.yul\":12291:12296   */\n      dup2\n        /* \"#utility.yul\":12285:12297   */\n      mload\n        /* \"#utility.yul\":12275:12297   */\n      swap1\n      pop\n        /* \"#utility.yul\":12206:12304   */\n      swap2\n      swap1\n      pop\n      jump\t// out\n        /* \"#utility.yul\":12310:12457   */\n    tag_246:\n        /* \"#utility.yul\":12411:12422   */\n      0x00\n        /* \"#utility.yul\":12448:12451   */\n      dup2\n        /* \"#utility.yul\":12433:12451   */\n      swap1\n      pop\n        /* \"#utility.yul\":12310:12457   */\n      swap3\n      swap2\n      pop\n      pop\n      jump\t// out\n        /* \"#utility.yul\":12463:12770   */\n    tag_247:\n        /* \"#utility.yul\":12531:12532   */\n      0x00\n        /* \"#utility.yul\":12541:12654   */\n    tag_373:\n        /* \"#utility.yul\":12555:12561   */\n      dup4\n        /* \"#utility.yul\":12552:12553   */\n      dup2\n        /* \"#utility.yul\":12549:12562   */\n      lt\n        /* \"#utility.yul\":12541:12654   */\n      iszero\n      tag_375\n      jumpi\n        /* \"#utility.yul\":12640:12641   */\n      dup1\n        /* \"#utility.yul\":12635:12638   */\n      dup3\n        /* \"#utility.yul\":12631:12642   */\n      add\n        /* \"#utility.yul\":12625:12643   */\n      mload\n        /* \"#utility.yul\":12621:12622   */\n      dup2\n        /* \"#utility.yul\":12616:12619   */\n      dup5\n        /* \"#utility.yul\":12612:12623   */\n      add\n        /* \"#utility.yul\":12605:12644   */\n      mstore\n        /* \"#utility.yul\":12577:12579   */\n      0x20\n        /* \"#utility.yul\":12574:12575   */\n      dup2\n        /* \"#utility.yul\":12570:12580   */\n      add\n        /* \"#utility.yul\":12565:12580   */\n      swap1\n      pop\n        /* \"#utility.yul\":12541:12654   */\n      jump(tag_373)\n    tag_375:\n        /* \"#utility.yul\":12672:12678   */\n      dup4\n        /* \"#utility.yul\":12669:12670   */\n      dup2\n        /* \"#utility.yul\":12666:12679   */\n      gt\n        /* \"#utility.yul\":12663:12764   */\n      iszero\n      tag_376\n      jumpi\n        /* \"#utility.yul\":12752:12753   */\n      0x00\n        /* \"#utility.yul\":12743:12749   */\n      dup5\n        /* \"#utility.yul\":12738:12741   */\n      dup5\n        /* \"#utility.yul\":12734:12750   */\n      add\n        /* \"#utility.yul\":12727:12754   */\n      mstore\n        /* \"#utility.yul\":12663:12764   */\n    tag_376:\n        /* \"#utility.yul\":12512:12770   */\n      pop\n        /* \"#utility.yul\":12463:12770   */\n      pop\n      pop\n      pop\n      jump\t// out\n        /* \"#utility.yul\":12776:13149   */\n    tag_248:\n        /* \"#utility.yul\":12880:12883   */\n      0x00\n        /* \"#utility.yul\":12908:12946   */\n      tag_378\n        /* \"#utility.yul\":12940:12945   */\n      dup3\n        /* \"#utility.yul\":12908:12946   */\n      tag_245\n      jump\t// in\n    tag_378:\n        /* \"#utility.yul\":12962:13050   */\n      tag_379\n        /* \"#utility.yul\":13043:13049   */\n      dup2\n        /* \"#utility.yul\":13038:13041   */\n      dup6\n        /* \"#utility.yul\":12962:13050   */\n      tag_246\n      jump\t// in\n    tag_379:\n        /* \"#utility.yul\":12955:13050   */\n      swap4\n      pop\n        /* \"#utility.yul\":13059:13111   */\n      tag_380\n        /* \"#utility.yul\":13104:13110   */\n      dup2\n        /* \"#utility.yul\":13099:13102   */\n      dup6\n        /* \"#utility.yul\":13092:13096   */\n      0x20\n        /* \"#utility.yul\":13085:13090   */\n      dup7\n        /* \"#utility.yul\":13081:13097   */\n      add\n        /* \"#utility.yul\":13059:13111   */\n      tag_247\n      jump\t// in\n    tag_380:\n        /* \"#utility.yul\":13136:13142   */\n      dup1\n        /* \"#utility.yul\":13131:13134   */\n      dup5\n        /* \"#utility.yul\":13127:13143   */\n      add\n        /* \"#utility.yul\":13120:13143   */\n      swap2\n      pop\n        /* \"#utility.yul\":12884:13149   */\n      pop\n        /* \"#utility.yul\":12776:13149   */\n      swap3\n      swap2\n      pop\n      pop\n      jump\t// out\n        /* \"#utility.yul\":13155:13426   */\n    tag_198:\n        /* \"#utility.yul\":13285:13288   */\n      0x00\n        /* \"#utility.yul\":13307:13400   */\n      tag_382\n        /* \"#utility.yul\":13396:13399   */\n      dup3\n        /* \"#utility.yul\":13387:13393   */\n      dup5\n        /* \"#utility.yul\":13307:13400   */\n      tag_248\n      jump\t// in\n    tag_382:\n        /* \"#utility.yul\":13300:13400   */\n      swap2\n      pop\n        /* \"#utility.yul\":13417:13420   */\n      dup2\n        /* \"#utility.yul\":13410:13420   */\n      swap1\n      pop\n        /* \"#utility.yul\":13155:13426   */\n      swap3\n      swap2\n      pop\n      pop\n      jump\t// out\n        /* \"#utility.yul\":13432:13531   */\n    tag_249:\n        /* \"#utility.yul\":13484:13490   */\n      0x00\n        /* \"#utility.yul\":13518:13523   */\n      dup2\n        /* \"#utility.yul\":13512:13524   */\n      mload\n        /* \"#utility.yul\":13502:13524   */\n      swap1\n      pop\n        /* \"#utility.yul\":13432:13531   */\n      swap2\n      swap1\n      pop\n      jump\t// out\n        /* \"#utility.yul\":13537:13639   */\n    tag_250:\n        /* \"#utility.yul\":13578:13584   */\n      0x00\n        /* \"#utility.yul\":13629:13631   */\n      0x1f\n        /* \"#utility.yul\":13625:13632   */\n      not\n        /* \"#utility.yul\":13620:13622   */\n      0x1f\n        /* \"#utility.yul\":13613:13618   */\n      dup4\n        /* \"#utility.yul\":13609:13623   */\n      add\n        /* \"#utility.yul\":13605:13633   */\n      and\n        /* \"#utility.yul\":13595:13633   */\n      swap1\n      pop\n        /* \"#utility.yul\":13537:13639   */\n      swap2\n      swap1\n      pop\n      jump\t// out\n        /* \"#utility.yul\":13645:14009   */\n    tag_251:\n        /* \"#utility.yul\":13733:13736   */\n      0x00\n        /* \"#utility.yul\":13761:13800   */\n      tag_386\n        /* \"#utility.yul\":13794:13799   */\n      dup3\n        /* \"#utility.yul\":13761:13800   */\n      tag_249\n      jump\t// in\n    tag_386:\n        /* \"#utility.yul\":13816:13887   */\n      tag_387\n        /* \"#utility.yul\":13880:13886   */\n      dup2\n        /* \"#utility.yul\":13875:13878   */\n      dup6\n        /* \"#utility.yul\":13816:13887   */\n      tag_230\n      jump\t// in\n    tag_387:\n        /* \"#utility.yul\":13809:13887   */\n      swap4\n      pop\n        /* \"#utility.yul\":13896:13948   */\n      tag_388\n        /* \"#utility.yul\":13941:13947   */\n      dup2\n        /* \"#utility.yul\":13936:13939   */\n      dup6\n        /* \"#utility.yul\":13929:13933   */\n      0x20\n        /* \"#utility.yul\":13922:13927   */\n      dup7\n        /* \"#utility.yul\":13918:13934   */\n      add\n        /* \"#utility.yul\":13896:13948   */\n      tag_247\n      jump\t// in\n    tag_388:\n        /* \"#utility.yul\":13973:14002   */\n      tag_389\n        /* \"#utility.yul\":13995:14001   */\n      dup2\n        /* \"#utility.yul\":13973:14002   */\n      tag_250\n      jump\t// in\n    tag_389:\n        /* \"#utility.yul\":13968:13971   */\n      dup5\n        /* \"#utility.yul\":13964:14003   */\n      add\n        /* \"#utility.yul\":13957:14003   */\n      swap2\n      pop\n        /* \"#utility.yul\":13737:14009   */\n      pop\n        /* \"#utility.yul\":13645:14009   */\n      swap3\n      swap2\n      pop\n      pop\n      jump\t// out\n        /* \"#utility.yul\":14015:14328   */\n    tag_211:\n        /* \"#utility.yul\":14128:14132   */\n      0x00\n        /* \"#utility.yul\":14166:14168   */\n      0x20\n        /* \"#utility.yul\":14155:14164   */\n      dup3\n        /* \"#utility.yul\":14151:14169   */\n      add\n        /* \"#utility.yul\":14143:14169   */\n      swap1\n      pop\n        /* \"#utility.yul\":14215:14224   */\n      dup2\n        /* \"#utility.yul\":14209:14213   */\n      dup2\n        /* \"#utility.yul\":14205:14225   */\n      sub\n        /* \"#utility.yul\":14201:14202   */\n      0x00\n        /* \"#utility.yul\":14190:14199   */\n      dup4\n        /* \"#utility.yul\":14186:14203   */\n      add\n        /* \"#utility.yul\":14179:14226   */\n      mstore\n        /* \"#utility.yul\":14243:14321   */\n      tag_391\n        /* \"#utility.yul\":14316:14320   */\n      dup2\n        /* \"#utility.yul\":14307:14313   */\n      dup5\n        /* \"#utility.yul\":14243:14321   */\n      tag_251\n      jump\t// in\n    tag_391:\n        /* \"#utility.yul\":14235:14321   */\n      swap1\n      pop\n        /* \"#utility.yul\":14015:14328   */\n      swap3\n      swap2\n      pop\n      pop\n      jump\t// out\n\n    auxdata: 0xa26469706673582212209470dc753bd063ec45c4fd8b02c76de96928056838e94ba1df189999627b172a64736f6c634300080b0033\n}\n",
				"bytecode": {
					"linkReferences": {},
					"object": "60c0604052604051620019f8380380620019f8833981810160405281019062000029919062000246565b620000496200003d620000cb60201b60201c565b620000d360201b60201c565b82600160006101000a81548173ffffffffffffffffffffffffffffffffffffffff021916908373ffffffffffffffffffffffffffffffffffffffff1602179055508167ffffffffffffffff1660808167ffffffffffffffff16815250508067ffffffffffffffff1660a08167ffffffffffffffff1681525050505050620002a2565b600033905090565b60008060009054906101000a900473ffffffffffffffffffffffffffffffffffffffff169050816000806101000a81548173ffffffffffffffffffffffffffffffffffffffff021916908373ffffffffffffffffffffffffffffffffffffffff1602179055508173ffffffffffffffffffffffffffffffffffffffff168173ffffffffffffffffffffffffffffffffffffffff167f8be0079c531659141344cd1fd0a4f28419497f9722a3daafe3b4186f6b6457e060405160405180910390a35050565b600080fd5b600073ffffffffffffffffffffffffffffffffffffffff82169050919050565b6000620001c9826200019c565b9050919050565b620001db81620001bc565b8114620001e757600080fd5b50565b600081519050620001fb81620001d0565b92915050565b600067ffffffffffffffff82169050919050565b620002208162000201565b81146200022c57600080fd5b50565b600081519050620002408162000215565b92915050565b60008060006060848603121562000262576200026162000197565b5b60006200027286828701620001ea565b935050602062000285868287016200022f565b925050604062000298868287016200022f565b9150509250925092565b60805160a051611730620002c860003960006102d1015260006107b101526117306000f3fe6080604052600436106100a05760003560e01c80638da5cb5b116100645780638da5cb5b1461016b5780639613252114610196578063be9a6555146101c1578063de809847146101ec578063f2fde38b14610215578063fbccedae1461023e576100a7565b80630a17b06b146100ac5780630fb5a6b4146100e957806327c2e72214610114578063715018a61461013d57806386d1a69f14610154576100a7565b366100a757005b600080fd5b3480156100b857600080fd5b506100d360048036038101906100ce9190610f5b565b610269565b6040516100e09190610fa1565b60405180910390f35b3480156100f557600080fd5b506100fe6102cd565b60405161010b9190610fa1565b60405180910390f35b34801561012057600080fd5b5061013b60048036038101906101369190611021565b6102ff565b005b34801561014957600080fd5b506101526103ee565b005b34801561016057600080fd5b50610169610476565b005b34801561017757600080fd5b506101806106de565b60405161018d91906110af565b60405180910390f35b3480156101a257600080fd5b506101ab610707565b6040516101b89190610fa1565b60405180910390f35b3480156101cd57600080fd5b506101d66107ad565b6040516101e39190610fa1565b60405180910390f35b3480156101f857600080fd5b50610213600480360381019061020e9190611021565b6107df565b005b34801561022157600080fd5b5061023c600480360381019061023791906110f6565b6108b1565b005b34801561024a57600080fd5b506102536109a9565b6040516102609190610fa1565b60405180910390f35b60006102c6610276610707565b600360003373ffffffffffffffffffffffffffffffffffffffff1673ffffffffffffffffffffffffffffffffffffffff168152602001908152602001600020546102c09190611152565b836109cb565b9050919050565b60007f000000000000000000000000000000000000000000000000000000000000000067ffffffffffffffff16905090565b610307610a65565b73ffffffffffffffffffffffffffffffffffffffff166103256106de565b73ffffffffffffffffffffffffffffffffffffffff161461037b576040517f08c379a000000000000000000000000000000000000000000000000000000000815260040161037290611205565b60405180910390fd5b60005b828290508110156103e9576103d983838381811061039f5761039e611225565b5b90506040020160000160208101906103b791906110f6565b8484848181106103ca576103c9611225565b5b90506040020160200135610a6d565b6103e281610ac7565b905061037e565b505050565b6103f6610a65565b73ffffffffffffffffffffffffffffffffffffffff166104146106de565b73ffffffffffffffffffffffffffffffffffffffff161461046a576040517f08c379a000000000000000000000000000000000000000000000000000000000815260040161046190611205565b60405180910390fd5b6104746000610ad4565b565b60006104806109a9565b9050600460003373ffffffffffffffffffffffffffffffffffffffff1673ffffffffffffffffffffffffffffffffffffffff168152602001908152602001600020546104ca610b98565b11156106db576104d8610b98565b600460003373ffffffffffffffffffffffffffffffffffffffff1673ffffffffffffffffffffffffffffffffffffffff1681526020019081526020016000208190555080600360003373ffffffffffffffffffffffffffffffffffffffff1673ffffffffffffffffffffffffffffffffffffffff168152602001908152602001600020600082825461056a9190611254565b925050819055508060026000600160009054906101000a900473ffffffffffffffffffffffffffffffffffffffff1673ffffffffffffffffffffffffffffffffffffffff1673ffffffffffffffffffffffffffffffffffffffff16815260200190815260200160002060003373ffffffffffffffffffffffffffffffffffffffff1673ffffffffffffffffffffffffffffffffffffffff168152602001908152602001600020600082825461061f9190611152565b925050819055503373ffffffffffffffffffffffffffffffffffffffff16600160009054906101000a900473ffffffffffffffffffffffffffffffffffffffff1673ffffffffffffffffffffffffffffffffffffffff167f1998e30db89daf293a52c4fc4c4470cd506aafc3f9683e8e5daddad80cd6f4a4836040516106a59190610fa1565b60405180910390a36106da600160009054906101000a900473ffffffffffffffffffffffffffffffffffffffff163383610bc8565b5b50565b60008060009054906101000a900473ffffffffffffffffffffffffffffffffffffffff16905090565b600060026000600160009054906101000a900473ffffffffffffffffffffffffffffffffffffffff1673ffffffffffffffffffffffffffffffffffffffff1673ffffffffffffffffffffffffffffffffffffffff16815260200190815260200160002060003373ffffffffffffffffffffffffffffffffffffffff1673ffffffffffffffffffffffffffffffffffffffff16815260200190815260200160002054905090565b60007f000000000000000000000000000000000000000000000000000000000000000067ffffffffffffffff16905090565b6107e7610a65565b73ffffffffffffffffffffffffffffffffffffffff166108056106de565b73ffffffffffffffffffffffffffffffffffffffff161461085b576040517f08c379a000000000000000000000000000000000000000000000000000000000815260040161085290611205565b60405180910390fd5b60005b828290508110156108ac5761089c83838381811061087f5761087e611225565b5b905060400201600001602081019061089791906110f6565b610c4e565b6108a581610ac7565b905061085e565b505050565b6108b9610a65565b73ffffffffffffffffffffffffffffffffffffffff166108d76106de565b73ffffffffffffffffffffffffffffffffffffffff161461092d576040517f08c379a000000000000000000000000000000000000000000000000000000000815260040161092490611205565b60405180910390fd5b600073ffffffffffffffffffffffffffffffffffffffff168173ffffffffffffffffffffffffffffffffffffffff16141561099d576040517f08c379a0000000000000000000000000000000000000000000000000000000008152600401610994906112fa565b60405180910390fd5b6109a681610ad4565b50565b60006109b3610707565b6109bc42610269565b6109c69190611254565b905090565b60006109d56107ad565b8267ffffffffffffffff1610156109ef5760009050610a5f565b6109f76102cd565b6109ff6107ad565b610a099190611152565b8267ffffffffffffffff161115610a2257829050610a5f565b610a2a6102cd565b610a326107ad565b8367ffffffffffffffff16610a479190611254565b84610a52919061131a565b610a5c91906113a3565b90505b92915050565b600033905090565b80600360008473ffffffffffffffffffffffffffffffffffffffff1673ffffffffffffffffffffffffffffffffffffffff1681526020019081526020016000206000828254610abc9190611152565b925050819055505050565b6000600182019050919050565b60008060009054906101000a900473ffffffffffffffffffffffffffffffffffffffff169050816000806101000a81548173ffffffffffffffffffffffffffffffffffffffff021916908373ffffffffffffffffffffffffffffffffffffffff1602179055508173ffffffffffffffffffffffffffffffffffffffff168173ffffffffffffffffffffffffffffffffffffffff167f8be0079c531659141344cd1fd0a4f28419497f9722a3daafe3b4186f6b6457e060405160405180910390a35050565b6000603c610ba46107ad565b4267ffffffffffffffff16610bb99190611254565b610bc391906113a3565b905090565b610c498363a9059cbb60e01b8484604051602401610be79291906113d4565b604051602081830303815290604052907bffffffffffffffffffffffffffffffffffffffffffffffffffffffff19166020820180517bffffffffffffffffffffffffffffffffffffffffffffffffffffffff8381831617835250505050610c94565b505050565b600360008273ffffffffffffffffffffffffffffffffffffffff1673ffffffffffffffffffffffffffffffffffffffff1681526020019081526020016000206000905550565b6000610cf6826040518060400160405280602081526020017f5361666545524332303a206c6f772d6c6576656c2063616c6c206661696c65648152508573ffffffffffffffffffffffffffffffffffffffff16610d5b9092919063ffffffff16565b9050600081511115610d565780806020019051810190610d169190611435565b610d55576040517f08c379a0000000000000000000000000000000000000000000000000000000008152600401610d4c906114d4565b60405180910390fd5b5b505050565b6060610d6a8484600085610d73565b90509392505050565b606082471015610db8576040517f08c379a0000000000000000000000000000000000000000000000000000000008152600401610daf90611566565b60405180910390fd5b610dc185610e87565b610e00576040517f08c379a0000000000000000000000000000000000000000000000000000000008152600401610df7906115d2565b60405180910390fd5b6000808673ffffffffffffffffffffffffffffffffffffffff168587604051610e29919061166c565b60006040518083038185875af1925050503d8060008114610e66576040519150601f19603f3d011682016040523d82523d6000602084013e610e6b565b606091505b5091509150610e7b828286610eaa565b92505050949350505050565b6000808273ffffffffffffffffffffffffffffffffffffffff163b119050919050565b60608315610eba57829050610f0a565b600083511115610ecd5782518084602001fd5b816040517f08c379a0000000000000000000000000000000000000000000000000000000008152600401610f0191906116d8565b60405180910390fd5b9392505050565b600080fd5b600080fd5b600067ffffffffffffffff82169050919050565b610f3881610f1b565b8114610f4357600080fd5b50565b600081359050610f5581610f2f565b92915050565b600060208284031215610f7157610f70610f11565b5b6000610f7f84828501610f46565b91505092915050565b6000819050919050565b610f9b81610f88565b82525050565b6000602082019050610fb66000830184610f92565b92915050565b600080fd5b600080fd5b600080fd5b60008083601f840112610fe157610fe0610fbc565b5b8235905067ffffffffffffffff811115610ffe57610ffd610fc1565b5b60208301915083604082028301111561101a57611019610fc6565b5b9250929050565b6000806020838503121561103857611037610f11565b5b600083013567ffffffffffffffff81111561105657611055610f16565b5b61106285828601610fcb565b92509250509250929050565b600073ffffffffffffffffffffffffffffffffffffffff82169050919050565b60006110998261106e565b9050919050565b6110a98161108e565b82525050565b60006020820190506110c460008301846110a0565b92915050565b6110d38161108e565b81146110de57600080fd5b50565b6000813590506110f0816110ca565b92915050565b60006020828403121561110c5761110b610f11565b5b600061111a848285016110e1565b91505092915050565b7f4e487b7100000000000000000000000000000000000000000000000000000000600052601160045260246000fd5b600061115d82610f88565b915061116883610f88565b9250827fffffffffffffffffffffffffffffffffffffffffffffffffffffffffffffffff0382111561119d5761119c611123565b5b828201905092915050565b600082825260208201905092915050565b7f4f776e61626c653a2063616c6c6572206973206e6f7420746865206f776e6572600082015250565b60006111ef6020836111a8565b91506111fa826111b9565b602082019050919050565b6000602082019050818103600083015261121e816111e2565b9050919050565b7f4e487b7100000000000000000000000000000000000000000000000000000000600052603260045260246000fd5b600061125f82610f88565b915061126a83610f88565b92508282101561127d5761127c611123565b5b828203905092915050565b7f4f776e61626c653a206e6577206f776e657220697320746865207a65726f206160008201527f6464726573730000000000000000000000000000000000000000000000000000602082015250565b60006112e46026836111a8565b91506112ef82611288565b604082019050919050565b60006020820190508181036000830152611313816112d7565b9050919050565b600061132582610f88565b915061133083610f88565b9250817fffffffffffffffffffffffffffffffffffffffffffffffffffffffffffffffff048311821515161561136957611368611123565b5b828202905092915050565b7f4e487b7100000000000000000000000000000000000000000000000000000000600052601260045260246000fd5b60006113ae82610f88565b91506113b983610f88565b9250826113c9576113c8611374565b5b828204905092915050565b60006040820190506113e960008301856110a0565b6113f66020830184610f92565b9392505050565b60008115159050919050565b611412816113fd565b811461141d57600080fd5b50565b60008151905061142f81611409565b92915050565b60006020828403121561144b5761144a610f11565b5b600061145984828501611420565b91505092915050565b7f5361666545524332303a204552433230206f7065726174696f6e20646964206e60008201527f6f74207375636365656400000000000000000000000000000000000000000000602082015250565b60006114be602a836111a8565b91506114c982611462565b604082019050919050565b600060208201905081810360008301526114ed816114b1565b9050919050565b7f416464726573733a20696e73756666696369656e742062616c616e636520666f60008201527f722063616c6c0000000000000000000000000000000000000000000000000000602082015250565b60006115506026836111a8565b915061155b826114f4565b604082019050919050565b6000602082019050818103600083015261157f81611543565b9050919050565b7f416464726573733a2063616c6c20746f206e6f6e2d636f6e7472616374000000600082015250565b60006115bc601d836111a8565b91506115c782611586565b602082019050919050565b600060208201905081810360008301526115eb816115af565b9050919050565b600081519050919050565b600081905092915050565b60005b8381101561162657808201518184015260208101905061160b565b83811115611635576000848401525b50505050565b6000611646826115f2565b61165081856115fd565b9350611660818560208601611608565b80840191505092915050565b6000611678828461163b565b915081905092915050565b600081519050919050565b6000601f19601f8301169050919050565b60006116aa82611683565b6116b481856111a8565b93506116c4818560208601611608565b6116cd8161168e565b840191505092915050565b600060208201905081810360008301526116f2818461169f565b90509291505056fea26469706673582212209470dc753bd063ec45c4fd8b02c76de96928056838e94ba1df189999627b172a64736f6c634300080b0033",
					"opcodes": "PUSH1 0xC0 PUSH1 0x40 MSTORE PUSH1 0x40 MLOAD PUSH3 0x19F8 CODESIZE SUB DUP1 PUSH3 0x19F8 DUP4 CODECOPY DUP2 DUP2 ADD PUSH1 0x40 MSTORE DUP2 ADD SWAP1 PUSH3 0x29 SWAP2 SWAP1 PUSH3 0x246 JUMP JUMPDEST PUSH3 0x49 PUSH3 0x3D PUSH3 0xCB PUSH1 0x20 SHL PUSH1 0x20 SHR JUMP JUMPDEST PUSH3 0xD3 PUSH1 0x20 SHL PUSH1 0x20 SHR JUMP JUMPDEST DUP3 PUSH1 0x1 PUSH1 0x0 PUSH2 0x100 EXP DUP2 SLOAD DUP2 PUSH20 0xFFFFFFFFFFFFFFFFFFFFFFFFFFFFFFFFFFFFFFFF MUL NOT AND SWAP1 DUP4 PUSH20 0xFFFFFFFFFFFFFFFFFFFFFFFFFFFFFFFFFFFFFFFF AND MUL OR SWAP1 SSTORE POP DUP2 PUSH8 0xFFFFFFFFFFFFFFFF AND PUSH1 0x80 DUP2 PUSH8 0xFFFFFFFFFFFFFFFF AND DUP2 MSTORE POP POP DUP1 PUSH8 0xFFFFFFFFFFFFFFFF AND PUSH1 0xA0 DUP2 PUSH8 0xFFFFFFFFFFFFFFFF AND DUP2 MSTORE POP POP POP POP POP PUSH3 0x2A2 JUMP JUMPDEST PUSH1 0x0 CALLER SWAP1 POP SWAP1 JUMP JUMPDEST PUSH1 0x0 DUP1 PUSH1 0x0 SWAP1 SLOAD SWAP1 PUSH2 0x100 EXP SWAP1 DIV PUSH20 0xFFFFFFFFFFFFFFFFFFFFFFFFFFFFFFFFFFFFFFFF AND SWAP1 POP DUP2 PUSH1 0x0 DUP1 PUSH2 0x100 EXP DUP2 SLOAD DUP2 PUSH20 0xFFFFFFFFFFFFFFFFFFFFFFFFFFFFFFFFFFFFFFFF MUL NOT AND SWAP1 DUP4 PUSH20 0xFFFFFFFFFFFFFFFFFFFFFFFFFFFFFFFFFFFFFFFF AND MUL OR SWAP1 SSTORE POP DUP2 PUSH20 0xFFFFFFFFFFFFFFFFFFFFFFFFFFFFFFFFFFFFFFFF AND DUP2 PUSH20 0xFFFFFFFFFFFFFFFFFFFFFFFFFFFFFFFFFFFFFFFF AND PUSH32 0x8BE0079C531659141344CD1FD0A4F28419497F9722A3DAAFE3B4186F6B6457E0 PUSH1 0x40 MLOAD PUSH1 0x40 MLOAD DUP1 SWAP2 SUB SWAP1 LOG3 POP POP JUMP JUMPDEST PUSH1 0x0 DUP1 REVERT JUMPDEST PUSH1 0x0 PUSH20 0xFFFFFFFFFFFFFFFFFFFFFFFFFFFFFFFFFFFFFFFF DUP3 AND SWAP1 POP SWAP2 SWAP1 POP JUMP JUMPDEST PUSH1 0x0 PUSH3 0x1C9 DUP3 PUSH3 0x19C JUMP JUMPDEST SWAP1 POP SWAP2 SWAP1 POP JUMP JUMPDEST PUSH3 0x1DB DUP2 PUSH3 0x1BC JUMP JUMPDEST DUP2 EQ PUSH3 0x1E7 JUMPI PUSH1 0x0 DUP1 REVERT JUMPDEST POP JUMP JUMPDEST PUSH1 0x0 DUP2 MLOAD SWAP1 POP PUSH3 0x1FB DUP2 PUSH3 0x1D0 JUMP JUMPDEST SWAP3 SWAP2 POP POP JUMP JUMPDEST PUSH1 0x0 PUSH8 0xFFFFFFFFFFFFFFFF DUP3 AND SWAP1 POP SWAP2 SWAP1 POP JUMP JUMPDEST PUSH3 0x220 DUP2 PUSH3 0x201 JUMP JUMPDEST DUP2 EQ PUSH3 0x22C JUMPI PUSH1 0x0 DUP1 REVERT JUMPDEST POP JUMP JUMPDEST PUSH1 0x0 DUP2 MLOAD SWAP1 POP PUSH3 0x240 DUP2 PUSH3 0x215 JUMP JUMPDEST SWAP3 SWAP2 POP POP JUMP JUMPDEST PUSH1 0x0 DUP1 PUSH1 0x0 PUSH1 0x60 DUP5 DUP7 SUB SLT ISZERO PUSH3 0x262 JUMPI PUSH3 0x261 PUSH3 0x197 JUMP JUMPDEST JUMPDEST PUSH1 0x0 PUSH3 0x272 DUP7 DUP3 DUP8 ADD PUSH3 0x1EA JUMP JUMPDEST SWAP4 POP POP PUSH1 0x20 PUSH3 0x285 DUP7 DUP3 DUP8 ADD PUSH3 0x22F JUMP JUMPDEST SWAP3 POP POP PUSH1 0x40 PUSH3 0x298 DUP7 DUP3 DUP8 ADD PUSH3 0x22F JUMP JUMPDEST SWAP2 POP POP SWAP3 POP SWAP3 POP SWAP3 JUMP JUMPDEST PUSH1 0x80 MLOAD PUSH1 0xA0 MLOAD PUSH2 0x1730 PUSH3 0x2C8 PUSH1 0x0 CODECOPY PUSH1 0x0 PUSH2 0x2D1 ADD MSTORE PUSH1 0x0 PUSH2 0x7B1 ADD MSTORE PUSH2 0x1730 PUSH1 0x0 RETURN INVALID PUSH1 0x80 PUSH1 0x40 MSTORE PUSH1 0x4 CALLDATASIZE LT PUSH2 0xA0 JUMPI PUSH1 0x0 CALLDATALOAD PUSH1 0xE0 SHR DUP1 PUSH4 0x8DA5CB5B GT PUSH2 0x64 JUMPI DUP1 PUSH4 0x8DA5CB5B EQ PUSH2 0x16B JUMPI DUP1 PUSH4 0x96132521 EQ PUSH2 0x196 JUMPI DUP1 PUSH4 0xBE9A6555 EQ PUSH2 0x1C1 JUMPI DUP1 PUSH4 0xDE809847 EQ PUSH2 0x1EC JUMPI DUP1 PUSH4 0xF2FDE38B EQ PUSH2 0x215 JUMPI DUP1 PUSH4 0xFBCCEDAE EQ PUSH2 0x23E JUMPI PUSH2 0xA7 JUMP JUMPDEST DUP1 PUSH4 0xA17B06B EQ PUSH2 0xAC JUMPI DUP1 PUSH4 0xFB5A6B4 EQ PUSH2 0xE9 JUMPI DUP1 PUSH4 0x27C2E722 EQ PUSH2 0x114 JUMPI DUP1 PUSH4 0x715018A6 EQ PUSH2 0x13D JUMPI DUP1 PUSH4 0x86D1A69F EQ PUSH2 0x154 JUMPI PUSH2 0xA7 JUMP JUMPDEST CALLDATASIZE PUSH2 0xA7 JUMPI STOP JUMPDEST PUSH1 0x0 DUP1 REVERT JUMPDEST CALLVALUE DUP1 ISZERO PUSH2 0xB8 JUMPI PUSH1 0x0 DUP1 REVERT JUMPDEST POP PUSH2 0xD3 PUSH1 0x4 DUP1 CALLDATASIZE SUB DUP2 ADD SWAP1 PUSH2 0xCE SWAP2 SWAP1 PUSH2 0xF5B JUMP JUMPDEST PUSH2 0x269 JUMP JUMPDEST PUSH1 0x40 MLOAD PUSH2 0xE0 SWAP2 SWAP1 PUSH2 0xFA1 JUMP JUMPDEST PUSH1 0x40 MLOAD DUP1 SWAP2 SUB SWAP1 RETURN JUMPDEST CALLVALUE DUP1 ISZERO PUSH2 0xF5 JUMPI PUSH1 0x0 DUP1 REVERT JUMPDEST POP PUSH2 0xFE PUSH2 0x2CD JUMP JUMPDEST PUSH1 0x40 MLOAD PUSH2 0x10B SWAP2 SWAP1 PUSH2 0xFA1 JUMP JUMPDEST PUSH1 0x40 MLOAD DUP1 SWAP2 SUB SWAP1 RETURN JUMPDEST CALLVALUE DUP1 ISZERO PUSH2 0x120 JUMPI PUSH1 0x0 DUP1 REVERT JUMPDEST POP PUSH2 0x13B PUSH1 0x4 DUP1 CALLDATASIZE SUB DUP2 ADD SWAP1 PUSH2 0x136 SWAP2 SWAP1 PUSH2 0x1021 JUMP JUMPDEST PUSH2 0x2FF JUMP JUMPDEST STOP JUMPDEST CALLVALUE DUP1 ISZERO PUSH2 0x149 JUMPI PUSH1 0x0 DUP1 REVERT JUMPDEST POP PUSH2 0x152 PUSH2 0x3EE JUMP JUMPDEST STOP JUMPDEST CALLVALUE DUP1 ISZERO PUSH2 0x160 JUMPI PUSH1 0x0 DUP1 REVERT JUMPDEST POP PUSH2 0x169 PUSH2 0x476 JUMP JUMPDEST STOP JUMPDEST CALLVALUE DUP1 ISZERO PUSH2 0x177 JUMPI PUSH1 0x0 DUP1 REVERT JUMPDEST POP PUSH2 0x180 PUSH2 0x6DE JUMP JUMPDEST PUSH1 0x40 MLOAD PUSH2 0x18D SWAP2 SWAP1 PUSH2 0x10AF JUMP JUMPDEST PUSH1 0x40 MLOAD DUP1 SWAP2 SUB SWAP1 RETURN JUMPDEST CALLVALUE DUP1 ISZERO PUSH2 0x1A2 JUMPI PUSH1 0x0 DUP1 REVERT JUMPDEST POP PUSH2 0x1AB PUSH2 0x707 JUMP JUMPDEST PUSH1 0x40 MLOAD PUSH2 0x1B8 SWAP2 SWAP1 PUSH2 0xFA1 JUMP JUMPDEST PUSH1 0x40 MLOAD DUP1 SWAP2 SUB SWAP1 RETURN JUMPDEST CALLVALUE DUP1 ISZERO PUSH2 0x1CD JUMPI PUSH1 0x0 DUP1 REVERT JUMPDEST POP PUSH2 0x1D6 PUSH2 0x7AD JUMP JUMPDEST PUSH1 0x40 MLOAD PUSH2 0x1E3 SWAP2 SWAP1 PUSH2 0xFA1 JUMP JUMPDEST PUSH1 0x40 MLOAD DUP1 SWAP2 SUB SWAP1 RETURN JUMPDEST CALLVALUE DUP1 ISZERO PUSH2 0x1F8 JUMPI PUSH1 0x0 DUP1 REVERT JUMPDEST POP PUSH2 0x213 PUSH1 0x4 DUP1 CALLDATASIZE SUB DUP2 ADD SWAP1 PUSH2 0x20E SWAP2 SWAP1 PUSH2 0x1021 JUMP JUMPDEST PUSH2 0x7DF JUMP JUMPDEST STOP JUMPDEST CALLVALUE DUP1 ISZERO PUSH2 0x221 JUMPI PUSH1 0x0 DUP1 REVERT JUMPDEST POP PUSH2 0x23C PUSH1 0x4 DUP1 CALLDATASIZE SUB DUP2 ADD SWAP1 PUSH2 0x237 SWAP2 SWAP1 PUSH2 0x10F6 JUMP JUMPDEST PUSH2 0x8B1 JUMP JUMPDEST STOP JUMPDEST CALLVALUE DUP1 ISZERO PUSH2 0x24A JUMPI PUSH1 0x0 DUP1 REVERT JUMPDEST POP PUSH2 0x253 PUSH2 0x9A9 JUMP JUMPDEST PUSH1 0x40 MLOAD PUSH2 0x260 SWAP2 SWAP1 PUSH2 0xFA1 JUMP JUMPDEST PUSH1 0x40 MLOAD DUP1 SWAP2 SUB SWAP1 RETURN JUMPDEST PUSH1 0x0 PUSH2 0x2C6 PUSH2 0x276 PUSH2 0x707 JUMP JUMPDEST PUSH1 0x3 PUSH1 0x0 CALLER PUSH20 0xFFFFFFFFFFFFFFFFFFFFFFFFFFFFFFFFFFFFFFFF AND PUSH20 0xFFFFFFFFFFFFFFFFFFFFFFFFFFFFFFFFFFFFFFFF AND DUP2 MSTORE PUSH1 0x20 ADD SWAP1 DUP2 MSTORE PUSH1 0x20 ADD PUSH1 0x0 KECCAK256 SLOAD PUSH2 0x2C0 SWAP2 SWAP1 PUSH2 0x1152 JUMP JUMPDEST DUP4 PUSH2 0x9CB JUMP JUMPDEST SWAP1 POP SWAP2 SWAP1 POP JUMP JUMPDEST PUSH1 0x0 PUSH32 0x0 PUSH8 0xFFFFFFFFFFFFFFFF AND SWAP1 POP SWAP1 JUMP JUMPDEST PUSH2 0x307 PUSH2 0xA65 JUMP JUMPDEST PUSH20 0xFFFFFFFFFFFFFFFFFFFFFFFFFFFFFFFFFFFFFFFF AND PUSH2 0x325 PUSH2 0x6DE JUMP JUMPDEST PUSH20 0xFFFFFFFFFFFFFFFFFFFFFFFFFFFFFFFFFFFFFFFF AND EQ PUSH2 0x37B JUMPI PUSH1 0x40 MLOAD PUSH32 0x8C379A000000000000000000000000000000000000000000000000000000000 DUP2 MSTORE PUSH1 0x4 ADD PUSH2 0x372 SWAP1 PUSH2 0x1205 JUMP JUMPDEST PUSH1 0x40 MLOAD DUP1 SWAP2 SUB SWAP1 REVERT JUMPDEST PUSH1 0x0 JUMPDEST DUP3 DUP3 SWAP1 POP DUP2 LT ISZERO PUSH2 0x3E9 JUMPI PUSH2 0x3D9 DUP4 DUP4 DUP4 DUP2 DUP2 LT PUSH2 0x39F JUMPI PUSH2 0x39E PUSH2 0x1225 JUMP JUMPDEST JUMPDEST SWAP1 POP PUSH1 0x40 MUL ADD PUSH1 0x0 ADD PUSH1 0x20 DUP2 ADD SWAP1 PUSH2 0x3B7 SWAP2 SWAP1 PUSH2 0x10F6 JUMP JUMPDEST DUP5 DUP5 DUP5 DUP2 DUP2 LT PUSH2 0x3CA JUMPI PUSH2 0x3C9 PUSH2 0x1225 JUMP JUMPDEST JUMPDEST SWAP1 POP PUSH1 0x40 MUL ADD PUSH1 0x20 ADD CALLDATALOAD PUSH2 0xA6D JUMP JUMPDEST PUSH2 0x3E2 DUP2 PUSH2 0xAC7 JUMP JUMPDEST SWAP1 POP PUSH2 0x37E JUMP JUMPDEST POP POP POP JUMP JUMPDEST PUSH2 0x3F6 PUSH2 0xA65 JUMP JUMPDEST PUSH20 0xFFFFFFFFFFFFFFFFFFFFFFFFFFFFFFFFFFFFFFFF AND PUSH2 0x414 PUSH2 0x6DE JUMP JUMPDEST PUSH20 0xFFFFFFFFFFFFFFFFFFFFFFFFFFFFFFFFFFFFFFFF AND EQ PUSH2 0x46A JUMPI PUSH1 0x40 MLOAD PUSH32 0x8C379A000000000000000000000000000000000000000000000000000000000 DUP2 MSTORE PUSH1 0x4 ADD PUSH2 0x461 SWAP1 PUSH2 0x1205 JUMP JUMPDEST PUSH1 0x40 MLOAD DUP1 SWAP2 SUB SWAP1 REVERT JUMPDEST PUSH2 0x474 PUSH1 0x0 PUSH2 0xAD4 JUMP JUMPDEST JUMP JUMPDEST PUSH1 0x0 PUSH2 0x480 PUSH2 0x9A9 JUMP JUMPDEST SWAP1 POP PUSH1 0x4 PUSH1 0x0 CALLER PUSH20 0xFFFFFFFFFFFFFFFFFFFFFFFFFFFFFFFFFFFFFFFF AND PUSH20 0xFFFFFFFFFFFFFFFFFFFFFFFFFFFFFFFFFFFFFFFF AND DUP2 MSTORE PUSH1 0x20 ADD SWAP1 DUP2 MSTORE PUSH1 0x20 ADD PUSH1 0x0 KECCAK256 SLOAD PUSH2 0x4CA PUSH2 0xB98 JUMP JUMPDEST GT ISZERO PUSH2 0x6DB JUMPI PUSH2 0x4D8 PUSH2 0xB98 JUMP JUMPDEST PUSH1 0x4 PUSH1 0x0 CALLER PUSH20 0xFFFFFFFFFFFFFFFFFFFFFFFFFFFFFFFFFFFFFFFF AND PUSH20 0xFFFFFFFFFFFFFFFFFFFFFFFFFFFFFFFFFFFFFFFF AND DUP2 MSTORE PUSH1 0x20 ADD SWAP1 DUP2 MSTORE PUSH1 0x20 ADD PUSH1 0x0 KECCAK256 DUP2 SWAP1 SSTORE POP DUP1 PUSH1 0x3 PUSH1 0x0 CALLER PUSH20 0xFFFFFFFFFFFFFFFFFFFFFFFFFFFFFFFFFFFFFFFF AND PUSH20 0xFFFFFFFFFFFFFFFFFFFFFFFFFFFFFFFFFFFFFFFF AND DUP2 MSTORE PUSH1 0x20 ADD SWAP1 DUP2 MSTORE PUSH1 0x20 ADD PUSH1 0x0 KECCAK256 PUSH1 0x0 DUP3 DUP3 SLOAD PUSH2 0x56A SWAP2 SWAP1 PUSH2 0x1254 JUMP JUMPDEST SWAP3 POP POP DUP2 SWAP1 SSTORE POP DUP1 PUSH1 0x2 PUSH1 0x0 PUSH1 0x1 PUSH1 0x0 SWAP1 SLOAD SWAP1 PUSH2 0x100 EXP SWAP1 DIV PUSH20 0xFFFFFFFFFFFFFFFFFFFFFFFFFFFFFFFFFFFFFFFF AND PUSH20 0xFFFFFFFFFFFFFFFFFFFFFFFFFFFFFFFFFFFFFFFF AND PUSH20 0xFFFFFFFFFFFFFFFFFFFFFFFFFFFFFFFFFFFFFFFF AND DUP2 MSTORE PUSH1 0x20 ADD SWAP1 DUP2 MSTORE PUSH1 0x20 ADD PUSH1 0x0 KECCAK256 PUSH1 0x0 CALLER PUSH20 0xFFFFFFFFFFFFFFFFFFFFFFFFFFFFFFFFFFFFFFFF AND PUSH20 0xFFFFFFFFFFFFFFFFFFFFFFFFFFFFFFFFFFFFFFFF AND DUP2 MSTORE PUSH1 0x20 ADD SWAP1 DUP2 MSTORE PUSH1 0x20 ADD PUSH1 0x0 KECCAK256 PUSH1 0x0 DUP3 DUP3 SLOAD PUSH2 0x61F SWAP2 SWAP1 PUSH2 0x1152 JUMP JUMPDEST SWAP3 POP POP DUP2 SWAP1 SSTORE POP CALLER PUSH20 0xFFFFFFFFFFFFFFFFFFFFFFFFFFFFFFFFFFFFFFFF AND PUSH1 0x1 PUSH1 0x0 SWAP1 SLOAD SWAP1 PUSH2 0x100 EXP SWAP1 DIV PUSH20 0xFFFFFFFFFFFFFFFFFFFFFFFFFFFFFFFFFFFFFFFF AND PUSH20 0xFFFFFFFFFFFFFFFFFFFFFFFFFFFFFFFFFFFFFFFF AND PUSH32 0x1998E30DB89DAF293A52C4FC4C4470CD506AAFC3F9683E8E5DADDAD80CD6F4A4 DUP4 PUSH1 0x40 MLOAD PUSH2 0x6A5 SWAP2 SWAP1 PUSH2 0xFA1 JUMP JUMPDEST PUSH1 0x40 MLOAD DUP1 SWAP2 SUB SWAP1 LOG3 PUSH2 0x6DA PUSH1 0x1 PUSH1 0x0 SWAP1 SLOAD SWAP1 PUSH2 0x100 EXP SWAP1 DIV PUSH20 0xFFFFFFFFFFFFFFFFFFFFFFFFFFFFFFFFFFFFFFFF AND CALLER DUP4 PUSH2 0xBC8 JUMP JUMPDEST JUMPDEST POP JUMP JUMPDEST PUSH1 0x0 DUP1 PUSH1 0x0 SWAP1 SLOAD SWAP1 PUSH2 0x100 EXP SWAP1 DIV PUSH20 0xFFFFFFFFFFFFFFFFFFFFFFFFFFFFFFFFFFFFFFFF AND SWAP1 POP SWAP1 JUMP JUMPDEST PUSH1 0x0 PUSH1 0x2 PUSH1 0x0 PUSH1 0x1 PUSH1 0x0 SWAP1 SLOAD SWAP1 PUSH2 0x100 EXP SWAP1 DIV PUSH20 0xFFFFFFFFFFFFFFFFFFFFFFFFFFFFFFFFFFFFFFFF AND PUSH20 0xFFFFFFFFFFFFFFFFFFFFFFFFFFFFFFFFFFFFFFFF AND PUSH20 0xFFFFFFFFFFFFFFFFFFFFFFFFFFFFFFFFFFFFFFFF AND DUP2 MSTORE PUSH1 0x20 ADD SWAP1 DUP2 MSTORE PUSH1 0x20 ADD PUSH1 0x0 KECCAK256 PUSH1 0x0 CALLER PUSH20 0xFFFFFFFFFFFFFFFFFFFFFFFFFFFFFFFFFFFFFFFF AND PUSH20 0xFFFFFFFFFFFFFFFFFFFFFFFFFFFFFFFFFFFFFFFF AND DUP2 MSTORE PUSH1 0x20 ADD SWAP1 DUP2 MSTORE PUSH1 0x20 ADD PUSH1 0x0 KECCAK256 SLOAD SWAP1 POP SWAP1 JUMP JUMPDEST PUSH1 0x0 PUSH32 0x0 PUSH8 0xFFFFFFFFFFFFFFFF AND SWAP1 POP SWAP1 JUMP JUMPDEST PUSH2 0x7E7 PUSH2 0xA65 JUMP JUMPDEST PUSH20 0xFFFFFFFFFFFFFFFFFFFFFFFFFFFFFFFFFFFFFFFF AND PUSH2 0x805 PUSH2 0x6DE JUMP JUMPDEST PUSH20 0xFFFFFFFFFFFFFFFFFFFFFFFFFFFFFFFFFFFFFFFF AND EQ PUSH2 0x85B JUMPI PUSH1 0x40 MLOAD PUSH32 0x8C379A000000000000000000000000000000000000000000000000000000000 DUP2 MSTORE PUSH1 0x4 ADD PUSH2 0x852 SWAP1 PUSH2 0x1205 JUMP JUMPDEST PUSH1 0x40 MLOAD DUP1 SWAP2 SUB SWAP1 REVERT JUMPDEST PUSH1 0x0 JUMPDEST DUP3 DUP3 SWAP1 POP DUP2 LT ISZERO PUSH2 0x8AC JUMPI PUSH2 0x89C DUP4 DUP4 DUP4 DUP2 DUP2 LT PUSH2 0x87F JUMPI PUSH2 0x87E PUSH2 0x1225 JUMP JUMPDEST JUMPDEST SWAP1 POP PUSH1 0x40 MUL ADD PUSH1 0x0 ADD PUSH1 0x20 DUP2 ADD SWAP1 PUSH2 0x897 SWAP2 SWAP1 PUSH2 0x10F6 JUMP JUMPDEST PUSH2 0xC4E JUMP JUMPDEST PUSH2 0x8A5 DUP2 PUSH2 0xAC7 JUMP JUMPDEST SWAP1 POP PUSH2 0x85E JUMP JUMPDEST POP POP POP JUMP JUMPDEST PUSH2 0x8B9 PUSH2 0xA65 JUMP JUMPDEST PUSH20 0xFFFFFFFFFFFFFFFFFFFFFFFFFFFFFFFFFFFFFFFF AND PUSH2 0x8D7 PUSH2 0x6DE JUMP JUMPDEST PUSH20 0xFFFFFFFFFFFFFFFFFFFFFFFFFFFFFFFFFFFFFFFF AND EQ PUSH2 0x92D JUMPI PUSH1 0x40 MLOAD PUSH32 0x8C379A000000000000000000000000000000000000000000000000000000000 DUP2 MSTORE PUSH1 0x4 ADD PUSH2 0x924 SWAP1 PUSH2 0x1205 JUMP JUMPDEST PUSH1 0x40 MLOAD DUP1 SWAP2 SUB SWAP1 REVERT JUMPDEST PUSH1 0x0 PUSH20 0xFFFFFFFFFFFFFFFFFFFFFFFFFFFFFFFFFFFFFFFF AND DUP2 PUSH20 0xFFFFFFFFFFFFFFFFFFFFFFFFFFFFFFFFFFFFFFFF AND EQ ISZERO PUSH2 0x99D JUMPI PUSH1 0x40 MLOAD PUSH32 0x8C379A000000000000000000000000000000000000000000000000000000000 DUP2 MSTORE PUSH1 0x4 ADD PUSH2 0x994 SWAP1 PUSH2 0x12FA JUMP JUMPDEST PUSH1 0x40 MLOAD DUP1 SWAP2 SUB SWAP1 REVERT JUMPDEST PUSH2 0x9A6 DUP2 PUSH2 0xAD4 JUMP JUMPDEST POP JUMP JUMPDEST PUSH1 0x0 PUSH2 0x9B3 PUSH2 0x707 JUMP JUMPDEST PUSH2 0x9BC TIMESTAMP PUSH2 0x269 JUMP JUMPDEST PUSH2 0x9C6 SWAP2 SWAP1 PUSH2 0x1254 JUMP JUMPDEST SWAP1 POP SWAP1 JUMP JUMPDEST PUSH1 0x0 PUSH2 0x9D5 PUSH2 0x7AD JUMP JUMPDEST DUP3 PUSH8 0xFFFFFFFFFFFFFFFF AND LT ISZERO PUSH2 0x9EF JUMPI PUSH1 0x0 SWAP1 POP PUSH2 0xA5F JUMP JUMPDEST PUSH2 0x9F7 PUSH2 0x2CD JUMP JUMPDEST PUSH2 0x9FF PUSH2 0x7AD JUMP JUMPDEST PUSH2 0xA09 SWAP2 SWAP1 PUSH2 0x1152 JUMP JUMPDEST DUP3 PUSH8 0xFFFFFFFFFFFFFFFF AND GT ISZERO PUSH2 0xA22 JUMPI DUP3 SWAP1 POP PUSH2 0xA5F JUMP JUMPDEST PUSH2 0xA2A PUSH2 0x2CD JUMP JUMPDEST PUSH2 0xA32 PUSH2 0x7AD JUMP JUMPDEST DUP4 PUSH8 0xFFFFFFFFFFFFFFFF AND PUSH2 0xA47 SWAP2 SWAP1 PUSH2 0x1254 JUMP JUMPDEST DUP5 PUSH2 0xA52 SWAP2 SWAP1 PUSH2 0x131A JUMP JUMPDEST PUSH2 0xA5C SWAP2 SWAP1 PUSH2 0x13A3 JUMP JUMPDEST SWAP1 POP JUMPDEST SWAP3 SWAP2 POP POP JUMP JUMPDEST PUSH1 0x0 CALLER SWAP1 POP SWAP1 JUMP JUMPDEST DUP1 PUSH1 0x3 PUSH1 0x0 DUP5 PUSH20 0xFFFFFFFFFFFFFFFFFFFFFFFFFFFFFFFFFFFFFFFF AND PUSH20 0xFFFFFFFFFFFFFFFFFFFFFFFFFFFFFFFFFFFFFFFF AND DUP2 MSTORE PUSH1 0x20 ADD SWAP1 DUP2 MSTORE PUSH1 0x20 ADD PUSH1 0x0 KECCAK256 PUSH1 0x0 DUP3 DUP3 SLOAD PUSH2 0xABC SWAP2 SWAP1 PUSH2 0x1152 JUMP JUMPDEST SWAP3 POP POP DUP2 SWAP1 SSTORE POP POP POP JUMP JUMPDEST PUSH1 0x0 PUSH1 0x1 DUP3 ADD SWAP1 POP SWAP2 SWAP1 POP JUMP JUMPDEST PUSH1 0x0 DUP1 PUSH1 0x0 SWAP1 SLOAD SWAP1 PUSH2 0x100 EXP SWAP1 DIV PUSH20 0xFFFFFFFFFFFFFFFFFFFFFFFFFFFFFFFFFFFFFFFF AND SWAP1 POP DUP2 PUSH1 0x0 DUP1 PUSH2 0x100 EXP DUP2 SLOAD DUP2 PUSH20 0xFFFFFFFFFFFFFFFFFFFFFFFFFFFFFFFFFFFFFFFF MUL NOT AND SWAP1 DUP4 PUSH20 0xFFFFFFFFFFFFFFFFFFFFFFFFFFFFFFFFFFFFFFFF AND MUL OR SWAP1 SSTORE POP DUP2 PUSH20 0xFFFFFFFFFFFFFFFFFFFFFFFFFFFFFFFFFFFFFFFF AND DUP2 PUSH20 0xFFFFFFFFFFFFFFFFFFFFFFFFFFFFFFFFFFFFFFFF AND PUSH32 0x8BE0079C531659141344CD1FD0A4F28419497F9722A3DAAFE3B4186F6B6457E0 PUSH1 0x40 MLOAD PUSH1 0x40 MLOAD DUP1 SWAP2 SUB SWAP1 LOG3 POP POP JUMP JUMPDEST PUSH1 0x0 PUSH1 0x3C PUSH2 0xBA4 PUSH2 0x7AD JUMP JUMPDEST TIMESTAMP PUSH8 0xFFFFFFFFFFFFFFFF AND PUSH2 0xBB9 SWAP2 SWAP1 PUSH2 0x1254 JUMP JUMPDEST PUSH2 0xBC3 SWAP2 SWAP1 PUSH2 0x13A3 JUMP JUMPDEST SWAP1 POP SWAP1 JUMP JUMPDEST PUSH2 0xC49 DUP4 PUSH4 0xA9059CBB PUSH1 0xE0 SHL DUP5 DUP5 PUSH1 0x40 MLOAD PUSH1 0x24 ADD PUSH2 0xBE7 SWAP3 SWAP2 SWAP1 PUSH2 0x13D4 JUMP JUMPDEST PUSH1 0x40 MLOAD PUSH1 0x20 DUP2 DUP4 SUB SUB DUP2 MSTORE SWAP1 PUSH1 0x40 MSTORE SWAP1 PUSH28 0xFFFFFFFFFFFFFFFFFFFFFFFFFFFFFFFFFFFFFFFFFFFFFFFFFFFFFFFF NOT AND PUSH1 0x20 DUP3 ADD DUP1 MLOAD PUSH28 0xFFFFFFFFFFFFFFFFFFFFFFFFFFFFFFFFFFFFFFFFFFFFFFFFFFFFFFFF DUP4 DUP2 DUP4 AND OR DUP4 MSTORE POP POP POP POP PUSH2 0xC94 JUMP JUMPDEST POP POP POP JUMP JUMPDEST PUSH1 0x3 PUSH1 0x0 DUP3 PUSH20 0xFFFFFFFFFFFFFFFFFFFFFFFFFFFFFFFFFFFFFFFF AND PUSH20 0xFFFFFFFFFFFFFFFFFFFFFFFFFFFFFFFFFFFFFFFF AND DUP2 MSTORE PUSH1 0x20 ADD SWAP1 DUP2 MSTORE PUSH1 0x20 ADD PUSH1 0x0 KECCAK256 PUSH1 0x0 SWAP1 SSTORE POP JUMP JUMPDEST PUSH1 0x0 PUSH2 0xCF6 DUP3 PUSH1 0x40 MLOAD DUP1 PUSH1 0x40 ADD PUSH1 0x40 MSTORE DUP1 PUSH1 0x20 DUP2 MSTORE PUSH1 0x20 ADD PUSH32 0x5361666545524332303A206C6F772D6C6576656C2063616C6C206661696C6564 DUP2 MSTORE POP DUP6 PUSH20 0xFFFFFFFFFFFFFFFFFFFFFFFFFFFFFFFFFFFFFFFF AND PUSH2 0xD5B SWAP1 SWAP3 SWAP2 SWAP1 PUSH4 0xFFFFFFFF AND JUMP JUMPDEST SWAP1 POP PUSH1 0x0 DUP2 MLOAD GT ISZERO PUSH2 0xD56 JUMPI DUP1 DUP1 PUSH1 0x20 ADD SWAP1 MLOAD DUP2 ADD SWAP1 PUSH2 0xD16 SWAP2 SWAP1 PUSH2 0x1435 JUMP JUMPDEST PUSH2 0xD55 JUMPI PUSH1 0x40 MLOAD PUSH32 0x8C379A000000000000000000000000000000000000000000000000000000000 DUP2 MSTORE PUSH1 0x4 ADD PUSH2 0xD4C SWAP1 PUSH2 0x14D4 JUMP JUMPDEST PUSH1 0x40 MLOAD DUP1 SWAP2 SUB SWAP1 REVERT JUMPDEST JUMPDEST POP POP POP JUMP JUMPDEST PUSH1 0x60 PUSH2 0xD6A DUP5 DUP5 PUSH1 0x0 DUP6 PUSH2 0xD73 JUMP JUMPDEST SWAP1 POP SWAP4 SWAP3 POP POP POP JUMP JUMPDEST PUSH1 0x60 DUP3 SELFBALANCE LT ISZERO PUSH2 0xDB8 JUMPI PUSH1 0x40 MLOAD PUSH32 0x8C379A000000000000000000000000000000000000000000000000000000000 DUP2 MSTORE PUSH1 0x4 ADD PUSH2 0xDAF SWAP1 PUSH2 0x1566 JUMP JUMPDEST PUSH1 0x40 MLOAD DUP1 SWAP2 SUB SWAP1 REVERT JUMPDEST PUSH2 0xDC1 DUP6 PUSH2 0xE87 JUMP JUMPDEST PUSH2 0xE00 JUMPI PUSH1 0x40 MLOAD PUSH32 0x8C379A000000000000000000000000000000000000000000000000000000000 DUP2 MSTORE PUSH1 0x4 ADD PUSH2 0xDF7 SWAP1 PUSH2 0x15D2 JUMP JUMPDEST PUSH1 0x40 MLOAD DUP1 SWAP2 SUB SWAP1 REVERT JUMPDEST PUSH1 0x0 DUP1 DUP7 PUSH20 0xFFFFFFFFFFFFFFFFFFFFFFFFFFFFFFFFFFFFFFFF AND DUP6 DUP8 PUSH1 0x40 MLOAD PUSH2 0xE29 SWAP2 SWAP1 PUSH2 0x166C JUMP JUMPDEST PUSH1 0x0 PUSH1 0x40 MLOAD DUP1 DUP4 SUB DUP2 DUP6 DUP8 GAS CALL SWAP3 POP POP POP RETURNDATASIZE DUP1 PUSH1 0x0 DUP2 EQ PUSH2 0xE66 JUMPI PUSH1 0x40 MLOAD SWAP2 POP PUSH1 0x1F NOT PUSH1 0x3F RETURNDATASIZE ADD AND DUP3 ADD PUSH1 0x40 MSTORE RETURNDATASIZE DUP3 MSTORE RETURNDATASIZE PUSH1 0x0 PUSH1 0x20 DUP5 ADD RETURNDATACOPY PUSH2 0xE6B JUMP JUMPDEST PUSH1 0x60 SWAP2 POP JUMPDEST POP SWAP2 POP SWAP2 POP PUSH2 0xE7B DUP3 DUP3 DUP7 PUSH2 0xEAA JUMP JUMPDEST SWAP3 POP POP POP SWAP5 SWAP4 POP POP POP POP JUMP JUMPDEST PUSH1 0x0 DUP1 DUP3 PUSH20 0xFFFFFFFFFFFFFFFFFFFFFFFFFFFFFFFFFFFFFFFF AND EXTCODESIZE GT SWAP1 POP SWAP2 SWAP1 POP JUMP JUMPDEST PUSH1 0x60 DUP4 ISZERO PUSH2 0xEBA JUMPI DUP3 SWAP1 POP PUSH2 0xF0A JUMP JUMPDEST PUSH1 0x0 DUP4 MLOAD GT ISZERO PUSH2 0xECD JUMPI DUP3 MLOAD DUP1 DUP5 PUSH1 0x20 ADD REVERT JUMPDEST DUP2 PUSH1 0x40 MLOAD PUSH32 0x8C379A000000000000000000000000000000000000000000000000000000000 DUP2 MSTORE PUSH1 0x4 ADD PUSH2 0xF01 SWAP2 SWAP1 PUSH2 0x16D8 JUMP JUMPDEST PUSH1 0x40 MLOAD DUP1 SWAP2 SUB SWAP1 REVERT JUMPDEST SWAP4 SWAP3 POP POP POP JUMP JUMPDEST PUSH1 0x0 DUP1 REVERT JUMPDEST PUSH1 0x0 DUP1 REVERT JUMPDEST PUSH1 0x0 PUSH8 0xFFFFFFFFFFFFFFFF DUP3 AND SWAP1 POP SWAP2 SWAP1 POP JUMP JUMPDEST PUSH2 0xF38 DUP2 PUSH2 0xF1B JUMP JUMPDEST DUP2 EQ PUSH2 0xF43 JUMPI PUSH1 0x0 DUP1 REVERT JUMPDEST POP JUMP JUMPDEST PUSH1 0x0 DUP2 CALLDATALOAD SWAP1 POP PUSH2 0xF55 DUP2 PUSH2 0xF2F JUMP JUMPDEST SWAP3 SWAP2 POP POP JUMP JUMPDEST PUSH1 0x0 PUSH1 0x20 DUP3 DUP5 SUB SLT ISZERO PUSH2 0xF71 JUMPI PUSH2 0xF70 PUSH2 0xF11 JUMP JUMPDEST JUMPDEST PUSH1 0x0 PUSH2 0xF7F DUP5 DUP3 DUP6 ADD PUSH2 0xF46 JUMP JUMPDEST SWAP2 POP POP SWAP3 SWAP2 POP POP JUMP JUMPDEST PUSH1 0x0 DUP2 SWAP1 POP SWAP2 SWAP1 POP JUMP JUMPDEST PUSH2 0xF9B DUP2 PUSH2 0xF88 JUMP JUMPDEST DUP3 MSTORE POP POP JUMP JUMPDEST PUSH1 0x0 PUSH1 0x20 DUP3 ADD SWAP1 POP PUSH2 0xFB6 PUSH1 0x0 DUP4 ADD DUP5 PUSH2 0xF92 JUMP JUMPDEST SWAP3 SWAP2 POP POP JUMP JUMPDEST PUSH1 0x0 DUP1 REVERT JUMPDEST PUSH1 0x0 DUP1 REVERT JUMPDEST PUSH1 0x0 DUP1 REVERT JUMPDEST PUSH1 0x0 DUP1 DUP4 PUSH1 0x1F DUP5 ADD SLT PUSH2 0xFE1 JUMPI PUSH2 0xFE0 PUSH2 0xFBC JUMP JUMPDEST JUMPDEST DUP3 CALLDATALOAD SWAP1 POP PUSH8 0xFFFFFFFFFFFFFFFF DUP2 GT ISZERO PUSH2 0xFFE JUMPI PUSH2 0xFFD PUSH2 0xFC1 JUMP JUMPDEST JUMPDEST PUSH1 0x20 DUP4 ADD SWAP2 POP DUP4 PUSH1 0x40 DUP3 MUL DUP4 ADD GT ISZERO PUSH2 0x101A JUMPI PUSH2 0x1019 PUSH2 0xFC6 JUMP JUMPDEST JUMPDEST SWAP3 POP SWAP3 SWAP1 POP JUMP JUMPDEST PUSH1 0x0 DUP1 PUSH1 0x20 DUP4 DUP6 SUB SLT ISZERO PUSH2 0x1038 JUMPI PUSH2 0x1037 PUSH2 0xF11 JUMP JUMPDEST JUMPDEST PUSH1 0x0 DUP4 ADD CALLDATALOAD PUSH8 0xFFFFFFFFFFFFFFFF DUP2 GT ISZERO PUSH2 0x1056 JUMPI PUSH2 0x1055 PUSH2 0xF16 JUMP JUMPDEST JUMPDEST PUSH2 0x1062 DUP6 DUP3 DUP7 ADD PUSH2 0xFCB JUMP JUMPDEST SWAP3 POP SWAP3 POP POP SWAP3 POP SWAP3 SWAP1 POP JUMP JUMPDEST PUSH1 0x0 PUSH20 0xFFFFFFFFFFFFFFFFFFFFFFFFFFFFFFFFFFFFFFFF DUP3 AND SWAP1 POP SWAP2 SWAP1 POP JUMP JUMPDEST PUSH1 0x0 PUSH2 0x1099 DUP3 PUSH2 0x106E JUMP JUMPDEST SWAP1 POP SWAP2 SWAP1 POP JUMP JUMPDEST PUSH2 0x10A9 DUP2 PUSH2 0x108E JUMP JUMPDEST DUP3 MSTORE POP POP JUMP JUMPDEST PUSH1 0x0 PUSH1 0x20 DUP3 ADD SWAP1 POP PUSH2 0x10C4 PUSH1 0x0 DUP4 ADD DUP5 PUSH2 0x10A0 JUMP JUMPDEST SWAP3 SWAP2 POP POP JUMP JUMPDEST PUSH2 0x10D3 DUP2 PUSH2 0x108E JUMP JUMPDEST DUP2 EQ PUSH2 0x10DE JUMPI PUSH1 0x0 DUP1 REVERT JUMPDEST POP JUMP JUMPDEST PUSH1 0x0 DUP2 CALLDATALOAD SWAP1 POP PUSH2 0x10F0 DUP2 PUSH2 0x10CA JUMP JUMPDEST SWAP3 SWAP2 POP POP JUMP JUMPDEST PUSH1 0x0 PUSH1 0x20 DUP3 DUP5 SUB SLT ISZERO PUSH2 0x110C JUMPI PUSH2 0x110B PUSH2 0xF11 JUMP JUMPDEST JUMPDEST PUSH1 0x0 PUSH2 0x111A DUP5 DUP3 DUP6 ADD PUSH2 0x10E1 JUMP JUMPDEST SWAP2 POP POP SWAP3 SWAP2 POP POP JUMP JUMPDEST PUSH32 0x4E487B7100000000000000000000000000000000000000000000000000000000 PUSH1 0x0 MSTORE PUSH1 0x11 PUSH1 0x4 MSTORE PUSH1 0x24 PUSH1 0x0 REVERT JUMPDEST PUSH1 0x0 PUSH2 0x115D DUP3 PUSH2 0xF88 JUMP JUMPDEST SWAP2 POP PUSH2 0x1168 DUP4 PUSH2 0xF88 JUMP JUMPDEST SWAP3 POP DUP3 PUSH32 0xFFFFFFFFFFFFFFFFFFFFFFFFFFFFFFFFFFFFFFFFFFFFFFFFFFFFFFFFFFFFFFFF SUB DUP3 GT ISZERO PUSH2 0x119D JUMPI PUSH2 0x119C PUSH2 0x1123 JUMP JUMPDEST JUMPDEST DUP3 DUP3 ADD SWAP1 POP SWAP3 SWAP2 POP POP JUMP JUMPDEST PUSH1 0x0 DUP3 DUP3 MSTORE PUSH1 0x20 DUP3 ADD SWAP1 POP SWAP3 SWAP2 POP POP JUMP JUMPDEST PUSH32 0x4F776E61626C653A2063616C6C6572206973206E6F7420746865206F776E6572 PUSH1 0x0 DUP3 ADD MSTORE POP JUMP JUMPDEST PUSH1 0x0 PUSH2 0x11EF PUSH1 0x20 DUP4 PUSH2 0x11A8 JUMP JUMPDEST SWAP2 POP PUSH2 0x11FA DUP3 PUSH2 0x11B9 JUMP JUMPDEST PUSH1 0x20 DUP3 ADD SWAP1 POP SWAP2 SWAP1 POP JUMP JUMPDEST PUSH1 0x0 PUSH1 0x20 DUP3 ADD SWAP1 POP DUP2 DUP2 SUB PUSH1 0x0 DUP4 ADD MSTORE PUSH2 0x121E DUP2 PUSH2 0x11E2 JUMP JUMPDEST SWAP1 POP SWAP2 SWAP1 POP JUMP JUMPDEST PUSH32 0x4E487B7100000000000000000000000000000000000000000000000000000000 PUSH1 0x0 MSTORE PUSH1 0x32 PUSH1 0x4 MSTORE PUSH1 0x24 PUSH1 0x0 REVERT JUMPDEST PUSH1 0x0 PUSH2 0x125F DUP3 PUSH2 0xF88 JUMP JUMPDEST SWAP2 POP PUSH2 0x126A DUP4 PUSH2 0xF88 JUMP JUMPDEST SWAP3 POP DUP3 DUP3 LT ISZERO PUSH2 0x127D JUMPI PUSH2 0x127C PUSH2 0x1123 JUMP JUMPDEST JUMPDEST DUP3 DUP3 SUB SWAP1 POP SWAP3 SWAP2 POP POP JUMP JUMPDEST PUSH32 0x4F776E61626C653A206E6577206F776E657220697320746865207A65726F2061 PUSH1 0x0 DUP3 ADD MSTORE PUSH32 0x6464726573730000000000000000000000000000000000000000000000000000 PUSH1 0x20 DUP3 ADD MSTORE POP JUMP JUMPDEST PUSH1 0x0 PUSH2 0x12E4 PUSH1 0x26 DUP4 PUSH2 0x11A8 JUMP JUMPDEST SWAP2 POP PUSH2 0x12EF DUP3 PUSH2 0x1288 JUMP JUMPDEST PUSH1 0x40 DUP3 ADD SWAP1 POP SWAP2 SWAP1 POP JUMP JUMPDEST PUSH1 0x0 PUSH1 0x20 DUP3 ADD SWAP1 POP DUP2 DUP2 SUB PUSH1 0x0 DUP4 ADD MSTORE PUSH2 0x1313 DUP2 PUSH2 0x12D7 JUMP JUMPDEST SWAP1 POP SWAP2 SWAP1 POP JUMP JUMPDEST PUSH1 0x0 PUSH2 0x1325 DUP3 PUSH2 0xF88 JUMP JUMPDEST SWAP2 POP PUSH2 0x1330 DUP4 PUSH2 0xF88 JUMP JUMPDEST SWAP3 POP DUP2 PUSH32 0xFFFFFFFFFFFFFFFFFFFFFFFFFFFFFFFFFFFFFFFFFFFFFFFFFFFFFFFFFFFFFFFF DIV DUP4 GT DUP3 ISZERO ISZERO AND ISZERO PUSH2 0x1369 JUMPI PUSH2 0x1368 PUSH2 0x1123 JUMP JUMPDEST JUMPDEST DUP3 DUP3 MUL SWAP1 POP SWAP3 SWAP2 POP POP JUMP JUMPDEST PUSH32 0x4E487B7100000000000000000000000000000000000000000000000000000000 PUSH1 0x0 MSTORE PUSH1 0x12 PUSH1 0x4 MSTORE PUSH1 0x24 PUSH1 0x0 REVERT JUMPDEST PUSH1 0x0 PUSH2 0x13AE DUP3 PUSH2 0xF88 JUMP JUMPDEST SWAP2 POP PUSH2 0x13B9 DUP4 PUSH2 0xF88 JUMP JUMPDEST SWAP3 POP DUP3 PUSH2 0x13C9 JUMPI PUSH2 0x13C8 PUSH2 0x1374 JUMP JUMPDEST JUMPDEST DUP3 DUP3 DIV SWAP1 POP SWAP3 SWAP2 POP POP JUMP JUMPDEST PUSH1 0x0 PUSH1 0x40 DUP3 ADD SWAP1 POP PUSH2 0x13E9 PUSH1 0x0 DUP4 ADD DUP6 PUSH2 0x10A0 JUMP JUMPDEST PUSH2 0x13F6 PUSH1 0x20 DUP4 ADD DUP5 PUSH2 0xF92 JUMP JUMPDEST SWAP4 SWAP3 POP POP POP JUMP JUMPDEST PUSH1 0x0 DUP2 ISZERO ISZERO SWAP1 POP SWAP2 SWAP1 POP JUMP JUMPDEST PUSH2 0x1412 DUP2 PUSH2 0x13FD JUMP JUMPDEST DUP2 EQ PUSH2 0x141D JUMPI PUSH1 0x0 DUP1 REVERT JUMPDEST POP JUMP JUMPDEST PUSH1 0x0 DUP2 MLOAD SWAP1 POP PUSH2 0x142F DUP2 PUSH2 0x1409 JUMP JUMPDEST SWAP3 SWAP2 POP POP JUMP JUMPDEST PUSH1 0x0 PUSH1 0x20 DUP3 DUP5 SUB SLT ISZERO PUSH2 0x144B JUMPI PUSH2 0x144A PUSH2 0xF11 JUMP JUMPDEST JUMPDEST PUSH1 0x0 PUSH2 0x1459 DUP5 DUP3 DUP6 ADD PUSH2 0x1420 JUMP JUMPDEST SWAP2 POP POP SWAP3 SWAP2 POP POP JUMP JUMPDEST PUSH32 0x5361666545524332303A204552433230206F7065726174696F6E20646964206E PUSH1 0x0 DUP3 ADD MSTORE PUSH32 0x6F74207375636365656400000000000000000000000000000000000000000000 PUSH1 0x20 DUP3 ADD MSTORE POP JUMP JUMPDEST PUSH1 0x0 PUSH2 0x14BE PUSH1 0x2A DUP4 PUSH2 0x11A8 JUMP JUMPDEST SWAP2 POP PUSH2 0x14C9 DUP3 PUSH2 0x1462 JUMP JUMPDEST PUSH1 0x40 DUP3 ADD SWAP1 POP SWAP2 SWAP1 POP JUMP JUMPDEST PUSH1 0x0 PUSH1 0x20 DUP3 ADD SWAP1 POP DUP2 DUP2 SUB PUSH1 0x0 DUP4 ADD MSTORE PUSH2 0x14ED DUP2 PUSH2 0x14B1 JUMP JUMPDEST SWAP1 POP SWAP2 SWAP1 POP JUMP JUMPDEST PUSH32 0x416464726573733A20696E73756666696369656E742062616C616E636520666F PUSH1 0x0 DUP3 ADD MSTORE PUSH32 0x722063616C6C0000000000000000000000000000000000000000000000000000 PUSH1 0x20 DUP3 ADD MSTORE POP JUMP JUMPDEST PUSH1 0x0 PUSH2 0x1550 PUSH1 0x26 DUP4 PUSH2 0x11A8 JUMP JUMPDEST SWAP2 POP PUSH2 0x155B DUP3 PUSH2 0x14F4 JUMP JUMPDEST PUSH1 0x40 DUP3 ADD SWAP1 POP SWAP2 SWAP1 POP JUMP JUMPDEST PUSH1 0x0 PUSH1 0x20 DUP3 ADD SWAP1 POP DUP2 DUP2 SUB PUSH1 0x0 DUP4 ADD MSTORE PUSH2 0x157F DUP2 PUSH2 0x1543 JUMP JUMPDEST SWAP1 POP SWAP2 SWAP1 POP JUMP JUMPDEST PUSH32 0x416464726573733A2063616C6C20746F206E6F6E2D636F6E7472616374000000 PUSH1 0x0 DUP3 ADD MSTORE POP JUMP JUMPDEST PUSH1 0x0 PUSH2 0x15BC PUSH1 0x1D DUP4 PUSH2 0x11A8 JUMP JUMPDEST SWAP2 POP PUSH2 0x15C7 DUP3 PUSH2 0x1586 JUMP JUMPDEST PUSH1 0x20 DUP3 ADD SWAP1 POP SWAP2 SWAP1 POP JUMP JUMPDEST PUSH1 0x0 PUSH1 0x20 DUP3 ADD SWAP1 POP DUP2 DUP2 SUB PUSH1 0x0 DUP4 ADD MSTORE PUSH2 0x15EB DUP2 PUSH2 0x15AF JUMP JUMPDEST SWAP1 POP SWAP2 SWAP1 POP JUMP JUMPDEST PUSH1 0x0 DUP2 MLOAD SWAP1 POP SWAP2 SWAP1 POP JUMP JUMPDEST PUSH1 0x0 DUP2 SWAP1 POP SWAP3 SWAP2 POP POP JUMP JUMPDEST PUSH1 0x0 JUMPDEST DUP4 DUP2 LT ISZERO PUSH2 0x1626 JUMPI DUP1 DUP3 ADD MLOAD DUP2 DUP5 ADD MSTORE PUSH1 0x20 DUP2 ADD SWAP1 POP PUSH2 0x160B JUMP JUMPDEST DUP4 DUP2 GT ISZERO PUSH2 0x1635 JUMPI PUSH1 0x0 DUP5 DUP5 ADD MSTORE JUMPDEST POP POP POP POP JUMP JUMPDEST PUSH1 0x0 PUSH2 0x1646 DUP3 PUSH2 0x15F2 JUMP JUMPDEST PUSH2 0x1650 DUP2 DUP6 PUSH2 0x15FD JUMP JUMPDEST SWAP4 POP PUSH2 0x1660 DUP2 DUP6 PUSH1 0x20 DUP7 ADD PUSH2 0x1608 JUMP JUMPDEST DUP1 DUP5 ADD SWAP2 POP POP SWAP3 SWAP2 POP POP JUMP JUMPDEST PUSH1 0x0 PUSH2 0x1678 DUP3 DUP5 PUSH2 0x163B JUMP JUMPDEST SWAP2 POP DUP2 SWAP1 POP SWAP3 SWAP2 POP POP JUMP JUMPDEST PUSH1 0x0 DUP2 MLOAD SWAP1 POP SWAP2 SWAP1 POP JUMP JUMPDEST PUSH1 0x0 PUSH1 0x1F NOT PUSH1 0x1F DUP4 ADD AND SWAP1 POP SWAP2 SWAP1 POP JUMP JUMPDEST PUSH1 0x0 PUSH2 0x16AA DUP3 PUSH2 0x1683 JUMP JUMPDEST PUSH2 0x16B4 DUP2 DUP6 PUSH2 0x11A8 JUMP JUMPDEST SWAP4 POP PUSH2 0x16C4 DUP2 DUP6 PUSH1 0x20 DUP7 ADD PUSH2 0x1608 JUMP JUMPDEST PUSH2 0x16CD DUP2 PUSH2 0x168E JUMP JUMPDEST DUP5 ADD SWAP2 POP POP SWAP3 SWAP2 POP POP JUMP JUMPDEST PUSH1 0x0 PUSH1 0x20 DUP3 ADD SWAP1 POP DUP2 DUP2 SUB PUSH1 0x0 DUP4 ADD MSTORE PUSH2 0x16F2 DUP2 DUP5 PUSH2 0x169F JUMP JUMPDEST SWAP1 POP SWAP3 SWAP2 POP POP JUMP INVALID LOG2 PUSH5 0x6970667358 0x22 SLT KECCAK256 SWAP5 PUSH17 0xDC753BD063EC45C4FD8B02C76DE9692805 PUSH9 0x38E94BA1DF18999962 PUSH28 0x172A64736F6C634300080B0033000000000000000000000000000000 "
				},
				"gasEstimates": {
					"creation": {
						"codeDepositCost": "1187200",
						"executionCost": "infinite",
						"totalCost": "infinite"
					},
					"external": {
						"addMultiVesting((address,uint256)[])": "infinite",
						"deleteMultiVesting((address,uint256)[])": "infinite",
						"duration()": "infinite",
						"owner()": "2522",
						"releasable()": "infinite",
						"release()": "infinite",
						"released()": "4774",
						"renounceOwnership()": "30441",
						"start()": "infinite",
						"transferOwnership(address)": "30811",
						"vestedAmount(uint64)": "infinite"
					},
					"internal": {
						"_currentMonth()": "infinite",
						"_delete(address)": "5116",
						"_unsafeInc(uint256)": "34",
						"_vest(address,uint256)": "infinite",
						"_vestingSchedule(uint256,uint64)": "infinite"
					}
				},
				"methodIdentifiers": {
					"addMultiVesting((address,uint256)[])": "27c2e722",
					"deleteMultiVesting((address,uint256)[])": "de809847",
					"duration()": "0fb5a6b4",
					"owner()": "8da5cb5b",
					"releasable()": "fbccedae",
					"release()": "86d1a69f",
					"released()": "96132521",
					"renounceOwnership()": "715018a6",
					"start()": "be9a6555",
					"transferOwnership(address)": "f2fde38b",
					"vestedAmount(uint64)": "0a17b06b"
				}
			},
			"storageLayout": {
				"storage": [
					{
						"astId": 7,
						"contract": "contracts/Whitelist-2.0.sol:WhitelistVesting",
						"label": "_owner",
						"offset": 0,
						"slot": "0",
						"type": "t_address"
					},
					{
						"astId": 749,
						"contract": "contracts/Whitelist-2.0.sol:WhitelistVesting",
						"label": "_token",
						"offset": 0,
						"slot": "1",
						"type": "t_address"
					},
					{
						"astId": 755,
						"contract": "contracts/Whitelist-2.0.sol:WhitelistVesting",
						"label": "_erc20Released",
						"offset": 0,
						"slot": "2",
						"type": "t_mapping(t_address,t_mapping(t_address,t_uint256))"
					},
					{
						"astId": 759,
						"contract": "contracts/Whitelist-2.0.sol:WhitelistVesting",
						"label": "_beneficiary",
						"offset": 0,
						"slot": "3",
						"type": "t_mapping(t_address,t_uint256)"
					},
					{
						"astId": 767,
						"contract": "contracts/Whitelist-2.0.sol:WhitelistVesting",
						"label": "_lastMonth",
						"offset": 0,
						"slot": "4",
						"type": "t_mapping(t_address,t_uint256)"
					}
				],
				"types": {
					"t_address": {
						"encoding": "inplace",
						"label": "address",
						"numberOfBytes": "20"
					},
					"t_mapping(t_address,t_mapping(t_address,t_uint256))": {
						"encoding": "mapping",
						"key": "t_address",
						"label": "mapping(address => mapping(address => uint256))",
						"numberOfBytes": "32",
						"value": "t_mapping(t_address,t_uint256)"
					},
					"t_mapping(t_address,t_uint256)": {
						"encoding": "mapping",
						"key": "t_address",
						"label": "mapping(address => uint256)",
						"numberOfBytes": "32",
						"value": "t_uint256"
					},
					"t_uint256": {
						"encoding": "inplace",
						"label": "uint256",
						"numberOfBytes": "32"
					}
				}
			},
			"userdoc": {
				"kind": "user",
				"methods": {},
				"version": 1
			}
		}
	}
}