{
	"contracts/WhiteList_v2.sol": {
		"Whitelist": {
			"abi": [
				{
					"inputs": [
						{
							"internalType": "address",
							"name": "token",
							"type": "address"
						}
					],
					"stateMutability": "nonpayable",
					"type": "constructor"
				},
				{
					"inputs": [],
					"name": "MainFunction__beneficiaryExist",
					"type": "error"
				},
				{
					"inputs": [],
					"name": "MainFunction__insufficientBalance",
					"type": "error"
				},
				{
					"anonymous": false,
					"inputs": [
						{
							"indexed": true,
							"internalType": "address",
							"name": "previousOwner",
							"type": "address"
						},
						{
							"indexed": true,
							"internalType": "address",
							"name": "newOwner",
							"type": "address"
						}
					],
					"name": "OwnershipTransferred",
					"type": "event"
				},
				{
					"inputs": [],
					"name": "_token",
					"outputs": [
						{
							"internalType": "address",
							"name": "",
							"type": "address"
						}
					],
					"stateMutability": "view",
					"type": "function"
				},
				{
					"inputs": [
						{
							"internalType": "address",
							"name": "user",
							"type": "address"
						},
						{
							"internalType": "uint256",
							"name": "amount",
							"type": "uint256"
						}
					],
					"name": "addBeneficiary",
					"outputs": [],
					"stateMutability": "nonpayable",
					"type": "function"
				},
				{
					"inputs": [
						{
							"internalType": "address",
							"name": "user",
							"type": "address"
						}
					],
					"name": "beneficiary",
					"outputs": [
						{
							"internalType": "address",
							"name": "",
							"type": "address"
						},
						{
							"internalType": "uint256",
							"name": "",
							"type": "uint256"
						},
						{
							"internalType": "uint256",
							"name": "",
							"type": "uint256"
						},
						{
							"internalType": "bool",
							"name": "",
							"type": "bool"
						},
						{
							"internalType": "uint256",
							"name": "",
							"type": "uint256"
						}
					],
					"stateMutability": "view",
					"type": "function"
				},
				{
					"inputs": [
						{
							"internalType": "address",
							"name": "user",
							"type": "address"
						}
					],
					"name": "deleteBeneficiary",
					"outputs": [
						{
							"internalType": "uint256",
							"name": "",
							"type": "uint256"
						}
					],
					"stateMutability": "nonpayable",
					"type": "function"
				},
				{
					"inputs": [
						{
							"internalType": "address",
							"name": "user",
							"type": "address"
						}
					],
					"name": "hasWhitelist",
					"outputs": [
						{
							"internalType": "address",
							"name": "",
							"type": "address"
						},
						{
							"internalType": "uint256",
							"name": "",
							"type": "uint256"
						},
						{
							"internalType": "uint256",
							"name": "",
							"type": "uint256"
						},
						{
							"internalType": "bool",
							"name": "",
							"type": "bool"
						},
						{
							"internalType": "uint256",
							"name": "",
							"type": "uint256"
						}
					],
					"stateMutability": "view",
					"type": "function"
				},
				{
					"inputs": [],
					"name": "initiateWhitelist",
					"outputs": [],
					"stateMutability": "nonpayable",
					"type": "function"
				},
				{
					"inputs": [],
					"name": "owner",
					"outputs": [
						{
							"internalType": "address",
							"name": "",
							"type": "address"
						}
					],
					"stateMutability": "view",
					"type": "function"
				},
				{
					"inputs": [],
					"name": "privateSaleAmount",
					"outputs": [
						{
							"internalType": "uint256",
							"name": "",
							"type": "uint256"
						}
					],
					"stateMutability": "view",
					"type": "function"
				},
				{
					"inputs": [],
					"name": "privateSaleUsers",
					"outputs": [
						{
							"internalType": "uint256",
							"name": "",
							"type": "uint256"
						}
					],
					"stateMutability": "view",
					"type": "function"
				},
				{
					"inputs": [],
					"name": "releaseClaimable",
					"outputs": [],
					"stateMutability": "nonpayable",
					"type": "function"
				},
				{
					"inputs": [],
					"name": "renounceOwnership",
					"outputs": [],
					"stateMutability": "nonpayable",
					"type": "function"
				},
				{
					"inputs": [],
					"name": "startPrivateSale",
					"outputs": [
						{
							"internalType": "uint256",
							"name": "",
							"type": "uint256"
						}
					],
					"stateMutability": "view",
					"type": "function"
				},
				{
					"inputs": [
						{
							"internalType": "address",
							"name": "newOwner",
							"type": "address"
						}
					],
					"name": "transferOwnership",
					"outputs": [],
					"stateMutability": "nonpayable",
					"type": "function"
				}
			],
			"devdoc": {
				"kind": "dev",
				"methods": {
					"owner()": {
						"details": "Returns the address of the current owner."
					},
					"renounceOwnership()": {
						"details": "Leaves the contract without owner. It will not be possible to call `onlyOwner` functions anymore. Can only be called by the current owner. NOTE: Renouncing ownership will leave the contract without an owner, thereby removing any functionality that is only available to the owner."
					},
					"transferOwnership(address)": {
						"details": "Transfers ownership of the contract to a new account (`newOwner`). Can only be called by the current owner."
					}
				},
				"version": 1
			},
			"evm": {
				"assembly": "    /* \"contracts/WhiteList_v2.sol\":770:6116  contract Whitelist is ReentrancyGuard, Ownable  {... */\n  mstore(0x40, 0x80)\n    /* \"contracts/WhiteList_v2.sol\":1225:1333  constructor(address token) {... */\n  callvalue\n  dup1\n  iszero\n  tag_1\n  jumpi\n  0x00\n  dup1\n  revert\ntag_1:\n  pop\n  mload(0x40)\n  sub(codesize, bytecodeSize)\n  dup1\n  bytecodeSize\n  dup4\n  codecopy\n  dup2\n  add\n  0x40\n  dup2\n  swap1\n  mstore\n  tag_2\n  swap2\n  tag_3\n  jump\t// in\ntag_2:\n    /* \"@openzeppelin/contracts/security/ReentrancyGuard.sol\":1701:1702  1 */\n  0x01\n    /* \"@openzeppelin/contracts/security/ReentrancyGuard.sol\":1806:1813  _status */\n  0x00\n    /* \"@openzeppelin/contracts/security/ReentrancyGuard.sol\":1806:1828  _status = _NOT_ENTERED */\n  sstore\n    /* \"@openzeppelin/contracts/access/Ownable.sol\":921:953  _transferOwnership(_msgSender()) */\n  tag_9\n    /* \"@openzeppelin/contracts/utils/Context.sol\":719:729  msg.sender */\n  caller\n    /* \"@openzeppelin/contracts/access/Ownable.sol\":921:939  _transferOwnership */\n  tag_12\n    /* \"@openzeppelin/contracts/access/Ownable.sol\":921:953  _transferOwnership(_msgSender()) */\n  jump\t// in\ntag_9:\n    /* \"contracts/WhiteList_v2.sol\":1283:1300  1467900000 * 1e18 */\n  0x04be37ea7317415c45800000\n    /* \"contracts/WhiteList_v2.sol\":1263:1280  privateSaleAmount */\n  0x03\n    /* \"contracts/WhiteList_v2.sol\":1263:1300  privateSaleAmount = 1467900000 * 1e18 */\n  sstore\n    /* \"contracts/WhiteList_v2.sol\":1311:1317  _token */\n  0x06\n    /* \"contracts/WhiteList_v2.sol\":1311:1325  _token = token */\n  dup1\n  sload\n  not(sub(shl(0xa0, 0x01), 0x01))\n  and\n  sub(shl(0xa0, 0x01), 0x01)\n  swap3\n  swap1\n  swap3\n  and\n  swap2\n  swap1\n  swap2\n  or\n  swap1\n  sstore\n    /* \"contracts/WhiteList_v2.sol\":770:6116  contract Whitelist is ReentrancyGuard, Ownable  {... */\n  jump(tag_17)\n    /* \"@openzeppelin/contracts/access/Ownable.sol\":2270:2457  function _transferOwnership(address newOwner) internal virtual {... */\ntag_12:\n    /* \"@openzeppelin/contracts/access/Ownable.sol\":2362:2368  _owner */\n  0x01\n  dup1\n  sload\n  sub(shl(0xa0, 0x01), 0x01)\n    /* \"@openzeppelin/contracts/access/Ownable.sol\":2378:2395  _owner = newOwner */\n  dup4\n  dup2\n  and\n  not(sub(shl(0xa0, 0x01), 0x01))\n  dup4\n  and\n  dup2\n  or\n  swap1\n  swap4\n  sstore\n    /* \"@openzeppelin/contracts/access/Ownable.sol\":2410:2450  OwnershipTransferred(oldOwner, newOwner) */\n  mload(0x40)\n    /* \"@openzeppelin/contracts/access/Ownable.sol\":2362:2368  _owner */\n  swap2\n  and\n  swap2\n    /* \"@openzeppelin/contracts/access/Ownable.sol\":2378:2395  _owner = newOwner */\n  swap1\n    /* \"@openzeppelin/contracts/access/Ownable.sol\":2362:2368  _owner */\n  dup3\n  swap1\n    /* \"@openzeppelin/contracts/access/Ownable.sol\":2410:2450  OwnershipTransferred(oldOwner, newOwner) */\n  0x8be0079c531659141344cd1fd0a4f28419497f9722a3daafe3b4186f6b6457e0\n  swap1\n    /* \"@openzeppelin/contracts/access/Ownable.sol\":2343:2359  address oldOwner */\n  0x00\n  swap1\n    /* \"@openzeppelin/contracts/access/Ownable.sol\":2410:2450  OwnershipTransferred(oldOwner, newOwner) */\n  log3\n    /* \"@openzeppelin/contracts/access/Ownable.sol\":2333:2457  {... */\n  pop\n    /* \"@openzeppelin/contracts/access/Ownable.sol\":2270:2457  function _transferOwnership(address newOwner) internal virtual {... */\n  pop\n  jump\t// out\n    /* \"#utility.yul\":14:304   */\ntag_3:\n    /* \"#utility.yul\":84:90   */\n  0x00\n    /* \"#utility.yul\":137:139   */\n  0x20\n    /* \"#utility.yul\":125:134   */\n  dup3\n    /* \"#utility.yul\":116:123   */\n  dup5\n    /* \"#utility.yul\":112:135   */\n  sub\n    /* \"#utility.yul\":108:140   */\n  slt\n    /* \"#utility.yul\":105:157   */\n  iszero\n  tag_19\n  jumpi\n    /* \"#utility.yul\":153:154   */\n  0x00\n    /* \"#utility.yul\":150:151   */\n  dup1\n    /* \"#utility.yul\":143:155   */\n  revert\n    /* \"#utility.yul\":105:157   */\ntag_19:\n    /* \"#utility.yul\":179:195   */\n  dup2\n  mload\n  sub(shl(0xa0, 0x01), 0x01)\n    /* \"#utility.yul\":224:255   */\n  dup2\n  and\n    /* \"#utility.yul\":214:256   */\n  dup2\n  eq\n    /* \"#utility.yul\":204:274   */\n  tag_20\n  jumpi\n    /* \"#utility.yul\":270:271   */\n  0x00\n    /* \"#utility.yul\":267:268   */\n  dup1\n    /* \"#utility.yul\":260:272   */\n  revert\n    /* \"#utility.yul\":204:274   */\ntag_20:\n    /* \"#utility.yul\":293:298   */\n  swap4\n    /* \"#utility.yul\":14:304   */\n  swap3\n  pop\n  pop\n  pop\n  jump\t// out\ntag_17:\n    /* \"contracts/WhiteList_v2.sol\":770:6116  contract Whitelist is ReentrancyGuard, Ownable  {... */\n  dataSize(sub_0)\n  dup1\n  dataOffset(sub_0)\n  0x00\n  codecopy\n  0x00\n  return\nstop\n\nsub_0: assembly {\n        /* \"contracts/WhiteList_v2.sol\":770:6116  contract Whitelist is ReentrancyGuard, Ownable  {... */\n      mstore(0x40, 0x80)\n      callvalue\n      dup1\n      iszero\n      tag_1\n      jumpi\n      0x00\n      dup1\n      revert\n    tag_1:\n      pop\n      jumpi(tag_2, lt(calldatasize, 0x04))\n      shr(0xe0, calldataload(0x00))\n      dup1\n      0x8cdb7e8b\n      gt\n      tag_16\n      jumpi\n      dup1\n      0xd5498dc7\n      gt\n      tag_17\n      jumpi\n      dup1\n      0xd5498dc7\n      eq\n      tag_12\n      jumpi\n      dup1\n      0xecd0c0c3\n      eq\n      tag_13\n      jumpi\n      dup1\n      0xefdd8796\n      eq\n      tag_14\n      jumpi\n      dup1\n      0xf2fde38b\n      eq\n      tag_15\n      jumpi\n      0x00\n      dup1\n      revert\n    tag_17:\n      dup1\n      0x8cdb7e8b\n      eq\n      tag_7\n      jumpi\n      dup1\n      0x8da5cb5b\n      eq\n      tag_10\n      jumpi\n      dup1\n      0x96074e70\n      eq\n      tag_11\n      jumpi\n      0x00\n      dup1\n      revert\n    tag_16:\n      dup1\n      0x7d3bca76\n      gt\n      tag_18\n      jumpi\n      dup1\n      0x7d3bca76\n      eq\n      tag_6\n      jumpi\n      dup1\n      0x81008568\n      eq\n      tag_7\n      jumpi\n      dup1\n      0x8b2b423a\n      eq\n      tag_8\n      jumpi\n      0x00\n      dup1\n      revert\n    tag_18:\n      dup1\n      0x338dbf59\n      eq\n      tag_3\n      jumpi\n      dup1\n      0x549dee0b\n      eq\n      tag_4\n      jumpi\n      dup1\n      0x715018a6\n      eq\n      tag_5\n      jumpi\n    tag_2:\n      0x00\n      dup1\n      revert\n        /* \"contracts/WhiteList_v2.sol\":1036:1067  uint256 public startPrivateSale */\n    tag_3:\n      tag_19\n      sload(0x04)\n      dup2\n      jump\n    tag_19:\n      mload(0x40)\n        /* \"#utility.yul\":160:185   */\n      swap1\n      dup2\n      mstore\n        /* \"#utility.yul\":148:150   */\n      0x20\n        /* \"#utility.yul\":133:151   */\n      add\n        /* \"contracts/WhiteList_v2.sol\":1036:1067  uint256 public startPrivateSale */\n    tag_21:\n      mload(0x40)\n      dup1\n      swap2\n      sub\n      swap1\n      return\n        /* \"contracts/WhiteList_v2.sol\":825:856  uint256 public privateSaleUsers */\n    tag_4:\n      tag_19\n      sload(0x02)\n      dup2\n      jump\n        /* \"@openzeppelin/contracts/access/Ownable.sol\":1668:1769  function renounceOwnership() public virtual onlyOwner {... */\n    tag_5:\n      tag_26\n      tag_27\n      jump\t// in\n    tag_26:\n      stop\n        /* \"contracts/WhiteList_v2.sol\":4918:5364  function deleteBeneficiary(address user)... */\n    tag_6:\n      tag_19\n      tag_29\n      calldatasize\n      0x04\n      tag_30\n      jump\t// in\n    tag_29:\n      tag_31\n      jump\t// in\n        /* \"contracts/WhiteList_v2.sol\":1341:1858  function beneficiary(address user)... */\n    tag_7:\n      tag_33\n      tag_34\n      calldatasize\n      0x04\n      tag_30\n      jump\t// in\n    tag_34:\n      sub(shl(0xa0, 0x01), 0x01)\n        /* \"contracts/WhiteList_v2.sol\":1598:1616  _beneficiary[user] */\n      and\n        /* \"contracts/WhiteList_v2.sol\":1440:1447  address */\n      0x00\n        /* \"contracts/WhiteList_v2.sol\":1598:1616  _beneficiary[user] */\n      dup2\n      dup2\n      mstore\n        /* \"contracts/WhiteList_v2.sol\":1598:1610  _beneficiary */\n      0x05\n        /* \"contracts/WhiteList_v2.sol\":1598:1616  _beneficiary[user] */\n      0x20\n      swap1\n      dup2\n      mstore\n      0x40\n      swap2\n      dup3\n      swap1\n      keccak256\n        /* \"contracts/WhiteList_v2.sol\":1560:1616  WhitelistStruct memory beneficiary_ = _beneficiary[user] */\n      dup3\n      mload\n      0xa0\n      dup2\n      add\n      dup5\n      mstore\n      0x01\n      dup3\n      add\n      sload\n      swap3\n      dup2\n      add\n      dup4\n      swap1\n      mstore\n      0x02\n      dup3\n      add\n      sload\n      swap4\n      dup2\n      add\n      dup5\n      swap1\n      mstore\n      0x03\n      dup3\n      add\n      sload\n      0xff\n      and\n      iszero\n      iszero\n      0x60\n      dup3\n      add\n      dup2\n      swap1\n      mstore\n      0x04\n      swap1\n      swap3\n      add\n      sload\n      0x80\n      dup3\n      add\n      dup2\n      swap1\n      mstore\n        /* \"contracts/WhiteList_v2.sol\":1649:1680  beneficiary_.userAddress = user */\n      swap1\n      dup6\n      swap1\n      mstore\n        /* \"contracts/WhiteList_v2.sol\":1598:1616  _beneficiary[user] */\n      swap4\n      swap5\n        /* \"contracts/WhiteList_v2.sol\":1560:1616  WhitelistStruct memory beneficiary_ = _beneficiary[user] */\n      swap2\n      swap4\n      swap1\n      swap2\n        /* \"contracts/WhiteList_v2.sol\":1341:1858  function beneficiary(address user)... */\n      jump\n    tag_33:\n      0x40\n      dup1\n      mload\n      sub(shl(0xa0, 0x01), 0x01)\n        /* \"#utility.yul\":859:914   */\n      swap1\n      swap7\n      and\n        /* \"#utility.yul\":841:915   */\n      dup7\n      mstore\n        /* \"#utility.yul\":946:948   */\n      0x20\n        /* \"#utility.yul\":931:949   */\n      dup7\n      add\n        /* \"#utility.yul\":924:958   */\n      swap5\n      swap1\n      swap5\n      mstore\n        /* \"#utility.yul\":974:992   */\n      swap3\n      dup5\n      add\n        /* \"#utility.yul\":967:1001   */\n      swap2\n      swap1\n      swap2\n      mstore\n        /* \"#utility.yul\":1044:1058   */\n      iszero\n        /* \"#utility.yul\":1037:1059   */\n      iszero\n        /* \"#utility.yul\":1032:1034   */\n      0x60\n        /* \"#utility.yul\":1017:1035   */\n      dup4\n      add\n        /* \"#utility.yul\":1010:1060   */\n      mstore\n        /* \"#utility.yul\":1091:1094   */\n      0x80\n        /* \"#utility.yul\":1076:1095   */\n      dup3\n      add\n        /* \"#utility.yul\":1069:1104   */\n      mstore\n        /* \"#utility.yul\":828:831   */\n      0xa0\n        /* \"#utility.yul\":813:832   */\n      add\n        /* \"contracts/WhiteList_v2.sol\":1341:1858  function beneficiary(address user)... */\n      tag_21\n        /* \"#utility.yul\":588:1110   */\n      jump\n        /* \"contracts/WhiteList_v2.sol\":865:897  uint256 public privateSaleAmount */\n    tag_8:\n      tag_19\n      sload(0x03)\n      dup2\n      jump\n        /* \"@openzeppelin/contracts/access/Ownable.sol\":1036:1121  function owner() public view virtual returns (address) {... */\n    tag_10:\n        /* \"@openzeppelin/contracts/access/Ownable.sol\":1108:1114  _owner */\n      and(sub(shl(0xa0, 0x01), 0x01), sload(0x01))\n        /* \"@openzeppelin/contracts/access/Ownable.sol\":1036:1121  function owner() public view virtual returns (address) {... */\n    tag_45:\n      mload(0x40)\n      sub(shl(0xa0, 0x01), 0x01)\n        /* \"#utility.yul\":1279:1334   */\n      swap1\n      swap2\n      and\n        /* \"#utility.yul\":1261:1335   */\n      dup2\n      mstore\n        /* \"#utility.yul\":1249:1251   */\n      0x20\n        /* \"#utility.yul\":1234:1252   */\n      add\n        /* \"@openzeppelin/contracts/access/Ownable.sol\":1036:1121  function owner() public view virtual returns (address) {... */\n      tag_21\n        /* \"#utility.yul\":1115:1341   */\n      jump\n        /* \"contracts/WhiteList_v2.sol\":4205:4910  function addBeneficiary(address user, uint256 amount) external onlyOwner {... */\n    tag_11:\n      tag_26\n      tag_50\n      calldatasize\n      0x04\n      tag_51\n      jump\t// in\n    tag_50:\n      tag_52\n      jump\t// in\n        /* \"contracts/WhiteList_v2.sol\":5456:6113  function releaseClaimable()... */\n    tag_12:\n      tag_26\n      tag_54\n      jump\t// in\n        /* \"contracts/WhiteList_v2.sol\":1195:1216  address public _token */\n    tag_13:\n      sload(0x06)\n      tag_45\n      swap1\n      sub(shl(0xa0, 0x01), 0x01)\n      and\n      dup2\n      jump\n        /* \"contracts/WhiteList_v2.sol\":1866:1967  function initiateWhitelist() external onlyOwner {... */\n    tag_14:\n      tag_26\n      tag_59\n      jump\t// in\n        /* \"@openzeppelin/contracts/access/Ownable.sol\":1918:2116  function transferOwnership(address newOwner) public virtual onlyOwner {... */\n    tag_15:\n      tag_26\n      tag_61\n      calldatasize\n      0x04\n      tag_30\n      jump\t// in\n    tag_61:\n      tag_62\n      jump\t// in\n        /* \"@openzeppelin/contracts/access/Ownable.sol\":1668:1769  function renounceOwnership() public virtual onlyOwner {... */\n    tag_27:\n        /* \"@openzeppelin/contracts/access/Ownable.sol\":1108:1114  _owner */\n      and(sub(shl(0xa0, 0x01), 0x01), sload(0x01))\n        /* \"@openzeppelin/contracts/utils/Context.sol\":719:729  msg.sender */\n      caller\n        /* \"@openzeppelin/contracts/access/Ownable.sol\":1248:1271  owner() == _msgSender() */\n      eq\n        /* \"@openzeppelin/contracts/access/Ownable.sol\":1240:1308  require(owner() == _msgSender(), \"Ownable: caller is not the owner\") */\n      tag_67\n      jumpi\n      mload(0x40)\n      shl(0xe5, 0x461bcd)\n      dup2\n      mstore\n        /* \"#utility.yul\":1807:1809   */\n      0x20\n        /* \"@openzeppelin/contracts/access/Ownable.sol\":1240:1308  require(owner() == _msgSender(), \"Ownable: caller is not the owner\") */\n      0x04\n      dup3\n      add\n        /* \"#utility.yul\":1789:1810   */\n      dup2\n      swap1\n      mstore\n        /* \"#utility.yul\":1826:1844   */\n      0x24\n      dup3\n      add\n        /* \"#utility.yul\":1819:1849   */\n      mstore\n        /* \"#utility.yul\":1885:1919   */\n      0x4f776e61626c653a2063616c6c6572206973206e6f7420746865206f776e6572\n        /* \"#utility.yul\":1865:1883   */\n      0x44\n      dup3\n      add\n        /* \"#utility.yul\":1858:1920   */\n      mstore\n        /* \"#utility.yul\":1937:1955   */\n      0x64\n      add\n        /* \"@openzeppelin/contracts/access/Ownable.sol\":1240:1308  require(owner() == _msgSender(), \"Ownable: caller is not the owner\") */\n    tag_68:\n      mload(0x40)\n      dup1\n      swap2\n      sub\n      swap1\n      revert\n    tag_67:\n        /* \"@openzeppelin/contracts/access/Ownable.sol\":1732:1762  _transferOwnership(address(0)) */\n      tag_71\n        /* \"@openzeppelin/contracts/access/Ownable.sol\":1759:1760  0 */\n      0x00\n        /* \"@openzeppelin/contracts/access/Ownable.sol\":1732:1750  _transferOwnership */\n      tag_72\n        /* \"@openzeppelin/contracts/access/Ownable.sol\":1732:1762  _transferOwnership(address(0)) */\n      jump\t// in\n    tag_71:\n        /* \"@openzeppelin/contracts/access/Ownable.sol\":1668:1769  function renounceOwnership() public virtual onlyOwner {... */\n      jump\t// out\n        /* \"contracts/WhiteList_v2.sol\":4918:5364  function deleteBeneficiary(address user)... */\n    tag_31:\n        /* \"@openzeppelin/contracts/access/Ownable.sol\":1108:1114  _owner */\n      sload(0x01)\n        /* \"contracts/WhiteList_v2.sol\":5014:5021  uint256 */\n      0x00\n      swap1\n      sub(shl(0xa0, 0x01), 0x01)\n        /* \"@openzeppelin/contracts/access/Ownable.sol\":1108:1114  _owner */\n      and\n        /* \"@openzeppelin/contracts/utils/Context.sol\":719:729  msg.sender */\n      caller\n        /* \"@openzeppelin/contracts/access/Ownable.sol\":1248:1271  owner() == _msgSender() */\n      eq\n        /* \"@openzeppelin/contracts/access/Ownable.sol\":1240:1308  require(owner() == _msgSender(), \"Ownable: caller is not the owner\") */\n      tag_76\n      jumpi\n      mload(0x40)\n      shl(0xe5, 0x461bcd)\n      dup2\n      mstore\n        /* \"#utility.yul\":1807:1809   */\n      0x20\n        /* \"@openzeppelin/contracts/access/Ownable.sol\":1240:1308  require(owner() == _msgSender(), \"Ownable: caller is not the owner\") */\n      0x04\n      dup3\n      add\n        /* \"#utility.yul\":1789:1810   */\n      dup2\n      swap1\n      mstore\n        /* \"#utility.yul\":1826:1844   */\n      0x24\n      dup3\n      add\n        /* \"#utility.yul\":1819:1849   */\n      mstore\n        /* \"#utility.yul\":1885:1919   */\n      0x4f776e61626c653a2063616c6c6572206973206e6f7420746865206f776e6572\n        /* \"#utility.yul\":1865:1883   */\n      0x44\n      dup3\n      add\n        /* \"#utility.yul\":1858:1920   */\n      mstore\n        /* \"#utility.yul\":1937:1955   */\n      0x64\n      add\n        /* \"@openzeppelin/contracts/access/Ownable.sol\":1240:1308  require(owner() == _msgSender(), \"Ownable: caller is not the owner\") */\n      tag_68\n        /* \"#utility.yul\":1605:1961   */\n      jump\n        /* \"@openzeppelin/contracts/access/Ownable.sol\":1240:1308  require(owner() == _msgSender(), \"Ownable: caller is not the owner\") */\n    tag_76:\n      sub(shl(0xa0, 0x01), 0x01)\n        /* \"contracts/WhiteList_v2.sol\":5043:5061  _beneficiary[user] */\n      dup3\n      and\n        /* \"contracts/WhiteList_v2.sol\":5071:5072  0 */\n      0x00\n        /* \"contracts/WhiteList_v2.sol\":5043:5061  _beneficiary[user] */\n      swap1\n      dup2\n      mstore\n        /* \"contracts/WhiteList_v2.sol\":5043:5055  _beneficiary */\n      0x05\n        /* \"contracts/WhiteList_v2.sol\":5043:5061  _beneficiary[user] */\n      0x20\n      mstore\n      0x40\n      swap1\n      keccak256\n        /* \"contracts/WhiteList_v2.sol\":5043:5068  _beneficiary[user].amount */\n      0x02\n      add\n      sload\n        /* \"contracts/WhiteList_v2.sol\":5043:5072  _beneficiary[user].amount > 0 */\n      iszero\n        /* \"contracts/WhiteList_v2.sol\":5039:5357  if (_beneficiary[user].amount > 0) {... */\n      tag_79\n      jumpi\n        /* \"contracts/WhiteList_v2.sol\":5109:5110  1 */\n      0x01\n        /* \"contracts/WhiteList_v2.sol\":5089:5105  privateSaleUsers */\n      0x02\n      0x00\n        /* \"contracts/WhiteList_v2.sol\":5089:5110  privateSaleUsers -= 1 */\n      dup3\n      dup3\n      sload\n      tag_80\n      swap2\n      swap1\n      tag_81\n      jump\t// in\n    tag_80:\n      swap1\n      swap2\n      sstore\n      pop\n      pop\n      sub(shl(0xa0, 0x01), 0x01)\n        /* \"contracts/WhiteList_v2.sol\":5146:5164  _beneficiary[user] */\n      dup3\n      and\n      0x00\n      swap1\n      dup2\n      mstore\n        /* \"contracts/WhiteList_v2.sol\":5146:5158  _beneficiary */\n      0x05\n        /* \"contracts/WhiteList_v2.sol\":5146:5164  _beneficiary[user] */\n      0x20\n      mstore\n      0x40\n      dup2\n      keccak256\n        /* \"contracts/WhiteList_v2.sol\":5146:5171  _beneficiary[user].amount */\n      0x02\n      add\n      sload\n        /* \"contracts/WhiteList_v2.sol\":5125:5142  privateSaleAmount */\n      0x03\n        /* \"contracts/WhiteList_v2.sol\":5125:5171  privateSaleAmount += _beneficiary[user].amount */\n      dup1\n      sload\n        /* \"contracts/WhiteList_v2.sol\":5146:5171  _beneficiary[user].amount */\n      swap2\n      swap3\n        /* \"contracts/WhiteList_v2.sol\":5125:5142  privateSaleAmount */\n      swap1\n      swap2\n        /* \"contracts/WhiteList_v2.sol\":5125:5171  privateSaleAmount += _beneficiary[user].amount */\n      tag_82\n      swap1\n        /* \"contracts/WhiteList_v2.sol\":5146:5171  _beneficiary[user].amount */\n      dup5\n      swap1\n        /* \"contracts/WhiteList_v2.sol\":5125:5171  privateSaleAmount += _beneficiary[user].amount */\n      tag_83\n      jump\t// in\n    tag_82:\n      swap1\n      swap2\n      sstore\n      pop\n      pop\n      pop\n      sub(shl(0xa0, 0x01), 0x01)\n        /* \"contracts/WhiteList_v2.sol\":5206:5224  _beneficiary[user] */\n      and\n        /* \"contracts/WhiteList_v2.sol\":5186:5203  uint256 ex_amount */\n      0x00\n        /* \"contracts/WhiteList_v2.sol\":5206:5224  _beneficiary[user] */\n      swap1\n      dup2\n      mstore\n        /* \"contracts/WhiteList_v2.sol\":5206:5218  _beneficiary */\n      0x05\n        /* \"contracts/WhiteList_v2.sol\":5206:5224  _beneficiary[user] */\n      0x20\n      mstore\n      0x40\n      dup2\n      keccak256\n        /* \"contracts/WhiteList_v2.sol\":5206:5231  _beneficiary[user].amount */\n      0x02\n      dup2\n      add\n      dup1\n      sload\n        /* \"contracts/WhiteList_v2.sol\":5248:5273  delete _beneficiary[user] */\n      dup3\n      sload\n      not(0xffffffffffffffffffffffffffffffffffffffff)\n      and\n      dup4\n      sstore\n      0x01\n      dup4\n      add\n      dup5\n      swap1\n      sstore\n      swap1\n      dup4\n      swap1\n      sstore\n      0x03\n      dup3\n      add\n      dup1\n      sload\n      not(0xff)\n      and\n      swap1\n      sstore\n      0x04\n      swap1\n      swap2\n      add\n      swap2\n      swap1\n      swap2\n      sstore\n        /* \"contracts/WhiteList_v2.sol\":5206:5231  _beneficiary[user].amount */\n      swap1\n        /* \"contracts/WhiteList_v2.sol\":4918:5364  function deleteBeneficiary(address user)... */\n      jump\t// out\n        /* \"contracts/WhiteList_v2.sol\":5039:5357  if (_beneficiary[user].amount > 0) {... */\n    tag_79:\n      pop\n        /* \"contracts/WhiteList_v2.sol\":5344:5345  0 */\n      0x00\n        /* \"contracts/WhiteList_v2.sol\":5039:5357  if (_beneficiary[user].amount > 0) {... */\n    tag_84:\n        /* \"contracts/WhiteList_v2.sol\":4918:5364  function deleteBeneficiary(address user)... */\n      swap2\n      swap1\n      pop\n      jump\t// out\n        /* \"contracts/WhiteList_v2.sol\":4205:4910  function addBeneficiary(address user, uint256 amount) external onlyOwner {... */\n    tag_52:\n        /* \"@openzeppelin/contracts/access/Ownable.sol\":1108:1114  _owner */\n      and(sub(shl(0xa0, 0x01), 0x01), sload(0x01))\n        /* \"@openzeppelin/contracts/utils/Context.sol\":719:729  msg.sender */\n      caller\n        /* \"@openzeppelin/contracts/access/Ownable.sol\":1248:1271  owner() == _msgSender() */\n      eq\n        /* \"@openzeppelin/contracts/access/Ownable.sol\":1240:1308  require(owner() == _msgSender(), \"Ownable: caller is not the owner\") */\n      tag_91\n      jumpi\n      mload(0x40)\n      shl(0xe5, 0x461bcd)\n      dup2\n      mstore\n        /* \"#utility.yul\":1807:1809   */\n      0x20\n        /* \"@openzeppelin/contracts/access/Ownable.sol\":1240:1308  require(owner() == _msgSender(), \"Ownable: caller is not the owner\") */\n      0x04\n      dup3\n      add\n        /* \"#utility.yul\":1789:1810   */\n      dup2\n      swap1\n      mstore\n        /* \"#utility.yul\":1826:1844   */\n      0x24\n      dup3\n      add\n        /* \"#utility.yul\":1819:1849   */\n      mstore\n        /* \"#utility.yul\":1885:1919   */\n      0x4f776e61626c653a2063616c6c6572206973206e6f7420746865206f776e6572\n        /* \"#utility.yul\":1865:1883   */\n      0x44\n      dup3\n      add\n        /* \"#utility.yul\":1858:1920   */\n      mstore\n        /* \"#utility.yul\":1937:1955   */\n      0x64\n      add\n        /* \"@openzeppelin/contracts/access/Ownable.sol\":1240:1308  require(owner() == _msgSender(), \"Ownable: caller is not the owner\") */\n      tag_68\n        /* \"#utility.yul\":1605:1961   */\n      jump\n        /* \"@openzeppelin/contracts/access/Ownable.sol\":1240:1308  require(owner() == _msgSender(), \"Ownable: caller is not the owner\") */\n    tag_91:\n      sub(shl(0xa0, 0x01), 0x01)\n        /* \"contracts/WhiteList_v2.sol\":4293:4311  _beneficiary[user] */\n      dup3\n      and\n      0x00\n      swap1\n      dup2\n      mstore\n        /* \"contracts/WhiteList_v2.sol\":4293:4305  _beneficiary */\n      0x05\n        /* \"contracts/WhiteList_v2.sol\":4293:4311  _beneficiary[user] */\n      0x20\n      mstore\n      0x40\n      swap1\n      keccak256\n        /* \"contracts/WhiteList_v2.sol\":4293:4324  _beneficiary[user].lockedAmount */\n      0x01\n      add\n      sload\n        /* \"contracts/WhiteList_v2.sol\":4293:4329  _beneficiary[user].lockedAmount != 0 */\n      iszero\n        /* \"contracts/WhiteList_v2.sol\":4289:4903  if (_beneficiary[user].lockedAmount != 0) {... */\n      tag_94\n      jumpi\n        /* \"contracts/WhiteList_v2.sol\":4353:4385  MainFunction__beneficiaryExist() */\n      mload(0x40)\n      0xab1818da00000000000000000000000000000000000000000000000000000000\n      dup2\n      mstore\n      0x04\n      add\n      mload(0x40)\n      dup1\n      swap2\n      sub\n      swap1\n      revert\n        /* \"contracts/WhiteList_v2.sol\":4289:4903  if (_beneficiary[user].lockedAmount != 0) {... */\n    tag_94:\n        /* \"contracts/WhiteList_v2.sol\":4431:4448  privateSaleAmount */\n      sload(0x03)\n        /* \"contracts/WhiteList_v2.sol\":4422:4428  amount */\n      dup2\n        /* \"contracts/WhiteList_v2.sol\":4422:4448  amount > privateSaleAmount */\n      gt\n        /* \"contracts/WhiteList_v2.sol\":4418:4527  if (amount > privateSaleAmount) {... */\n      iszero\n      tag_96\n      jumpi\n        /* \"contracts/WhiteList_v2.sol\":4476:4511  MainFunction__insufficientBalance() */\n      mload(0x40)\n      0x194f40dc00000000000000000000000000000000000000000000000000000000\n      dup2\n      mstore\n      0x04\n      add\n      mload(0x40)\n      dup1\n      swap2\n      sub\n      swap1\n      revert\n        /* \"contracts/WhiteList_v2.sol\":4418:4527  if (amount > privateSaleAmount) {... */\n    tag_96:\n        /* \"contracts/WhiteList_v2.sol\":4547:4557  amount > 0 */\n      dup1\n      iszero\n        /* \"contracts/WhiteList_v2.sol\":4543:4892  if (amount > 0) {... */\n      tag_97\n      jumpi\n      sub(shl(0xa0, 0x01), 0x01)\n        /* \"contracts/WhiteList_v2.sol\":4578:4596  _beneficiary[user] */\n      dup3\n      and\n      0x00\n      swap1\n      dup2\n      mstore\n        /* \"contracts/WhiteList_v2.sol\":4578:4590  _beneficiary */\n      0x05\n        /* \"contracts/WhiteList_v2.sol\":4578:4596  _beneficiary[user] */\n      0x20\n      mstore\n      0x40\n      dup2\n      keccak256\n        /* \"contracts/WhiteList_v2.sol\":4578:4609  _beneficiary[user].lockedAmount */\n      0x01\n      dup1\n      dup3\n      add\n        /* \"contracts/WhiteList_v2.sol\":4578:4618  _beneficiary[user].lockedAmount = amount */\n      dup5\n      swap1\n      sstore\n        /* \"contracts/WhiteList_v2.sol\":4637:4662  _beneficiary[user].amount */\n      0x02\n      dup1\n      dup4\n      add\n        /* \"contracts/WhiteList_v2.sol\":4637:4671  _beneficiary[user].amount = amount */\n      dup6\n      swap1\n      sstore\n        /* \"contracts/WhiteList_v2.sol\":4690:4724  _beneficiary[user].isPhase1Claimed */\n      0x03\n      dup4\n      add\n        /* \"contracts/WhiteList_v2.sol\":4690:4732  _beneficiary[user].isPhase1Claimed = false */\n      dup1\n      sload\n      not(0xff)\n      and\n      swap1\n      sstore\n        /* \"contracts/WhiteList_v2.sol\":4751:4784  _beneficiary[user].latestClaimDay */\n      0x04\n      swap1\n      swap3\n      add\n        /* \"contracts/WhiteList_v2.sol\":4751:4788  _beneficiary[user].latestClaimDay = 1 */\n      dup2\n      swap1\n      sstore\n        /* \"contracts/WhiteList_v2.sol\":4809:4830  privateSaleUsers += 1 */\n      dup2\n      sload\n        /* \"contracts/WhiteList_v2.sol\":4578:4609  _beneficiary[user].lockedAmount */\n      swap1\n      swap3\n        /* \"contracts/WhiteList_v2.sol\":4578:4596  _beneficiary[user] */\n      swap1\n        /* \"contracts/WhiteList_v2.sol\":4809:4830  privateSaleUsers += 1 */\n      tag_98\n      swap1\n        /* \"contracts/WhiteList_v2.sol\":4578:4609  _beneficiary[user].lockedAmount */\n      dup5\n      swap1\n        /* \"contracts/WhiteList_v2.sol\":4809:4830  privateSaleUsers += 1 */\n      tag_83\n      jump\t// in\n    tag_98:\n      swap3\n      pop\n      pop\n      dup2\n      swap1\n      sstore\n      pop\n        /* \"contracts/WhiteList_v2.sol\":4870:4876  amount */\n      dup1\n        /* \"contracts/WhiteList_v2.sol\":4849:4866  privateSaleAmount */\n      0x03\n      0x00\n        /* \"contracts/WhiteList_v2.sol\":4849:4876  privateSaleAmount -= amount */\n      dup3\n      dup3\n      sload\n      tag_99\n      swap2\n      swap1\n      tag_81\n      jump\t// in\n    tag_99:\n      swap1\n      swap2\n      sstore\n      pop\n      pop\n        /* \"contracts/WhiteList_v2.sol\":4543:4892  if (amount > 0) {... */\n    tag_97:\n        /* \"contracts/WhiteList_v2.sol\":4205:4910  function addBeneficiary(address user, uint256 amount) external onlyOwner {... */\n      pop\n      pop\n      jump\t// out\n        /* \"contracts/WhiteList_v2.sol\":5456:6113  function releaseClaimable()... */\n    tag_54:\n        /* \"contracts/WhiteList_v2.sol\":5535:5545  msg.sender */\n      caller\n        /* \"contracts/WhiteList_v2.sol\":5556:5557  0 */\n      0x00\n        /* \"contracts/WhiteList_v2.sol\":5522:5546  _beneficiary[msg.sender] */\n      swap1\n      dup2\n      mstore\n        /* \"contracts/WhiteList_v2.sol\":5522:5534  _beneficiary */\n      0x05\n        /* \"contracts/WhiteList_v2.sol\":5522:5546  _beneficiary[msg.sender] */\n      0x20\n      mstore\n      0x40\n      swap1\n      keccak256\n        /* \"contracts/WhiteList_v2.sol\":5522:5553  _beneficiary[msg.sender].amount */\n      0x02\n      add\n      sload\n        /* \"contracts/WhiteList_v2.sol\":5522:5557  _beneficiary[msg.sender].amount > 0 */\n      iszero\n        /* \"contracts/WhiteList_v2.sol\":5518:6106  if (_beneficiary[msg.sender].amount > 0) {... */\n      tag_71\n      jumpi\n        /* \"contracts/WhiteList_v2.sol\":5574:5603  uint256 claimableLockedAmount */\n      0x00\n        /* \"contracts/WhiteList_v2.sol\":5606:5643  _calculateClaimableAmount(msg.sender) */\n      tag_102\n        /* \"contracts/WhiteList_v2.sol\":5632:5642  msg.sender */\n      caller\n        /* \"contracts/WhiteList_v2.sol\":5606:5631  _calculateClaimableAmount */\n      tag_103\n        /* \"contracts/WhiteList_v2.sol\":5606:5643  _calculateClaimableAmount(msg.sender) */\n      jump\t// in\n    tag_102:\n        /* \"contracts/WhiteList_v2.sol\":5574:5643  uint256 claimableLockedAmount = _calculateClaimableAmount(msg.sender) */\n      swap1\n      pop\n        /* \"contracts/WhiteList_v2.sol\":5664:5689  claimableLockedAmount > 0 */\n      dup1\n      iszero\n        /* \"contracts/WhiteList_v2.sol\":5660:6094  if (claimableLockedAmount > 0) {... */\n      tag_106\n      jumpi\n        /* \"contracts/WhiteList_v2.sol\":5778:5788  msg.sender */\n      caller\n        /* \"contracts/WhiteList_v2.sol\":5765:5789  _beneficiary[msg.sender] */\n      0x00\n      swap1\n      dup2\n      mstore\n        /* \"contracts/WhiteList_v2.sol\":5765:5777  _beneficiary */\n      0x05\n        /* \"contracts/WhiteList_v2.sol\":5765:5789  _beneficiary[msg.sender] */\n      0x20\n      mstore\n      0x40\n      swap1\n      keccak256\n        /* \"contracts/WhiteList_v2.sol\":5765:5796  _beneficiary[msg.sender].amount */\n      0x02\n      add\n      sload\n        /* \"contracts/WhiteList_v2.sol\":5765:5841  _beneficiary[msg.sender].amount -... */\n      tag_105\n      swap1\n        /* \"contracts/WhiteList_v2.sol\":5820:5841  claimableLockedAmount */\n      dup3\n      swap1\n        /* \"contracts/WhiteList_v2.sol\":5765:5841  _beneficiary[msg.sender].amount -... */\n      tag_81\n      jump\t// in\n    tag_105:\n        /* \"contracts/WhiteList_v2.sol\":5723:5733  msg.sender */\n      caller\n        /* \"contracts/WhiteList_v2.sol\":5710:5734  _beneficiary[msg.sender] */\n      0x00\n      dup2\n      dup2\n      mstore\n        /* \"contracts/WhiteList_v2.sol\":5710:5722  _beneficiary */\n      0x05\n        /* \"contracts/WhiteList_v2.sol\":5710:5734  _beneficiary[msg.sender] */\n      0x20\n      mstore\n      0x40\n      swap1\n      keccak256\n        /* \"contracts/WhiteList_v2.sol\":5710:5741  _beneficiary[msg.sender].amount */\n      0x02\n      add\n        /* \"contracts/WhiteList_v2.sol\":5710:5841  _beneficiary[msg.sender].amount =... */\n      swap2\n      swap1\n      swap2\n      sstore\n        /* \"contracts/WhiteList_v2.sol\":5975:5981  _token */\n      sload(0x06)\n        /* \"contracts/WhiteList_v2.sol\":5923:6078  SafeERC20.safeTransfer(... */\n      tag_106\n      swap2\n      sub(shl(0xa0, 0x01), 0x01)\n        /* \"contracts/WhiteList_v2.sol\":5975:5981  _token */\n      swap1\n      swap2\n      and\n      swap1\n        /* \"contracts/WhiteList_v2.sol\":6038:6059  claimableLockedAmount */\n      dup4\n        /* \"contracts/WhiteList_v2.sol\":5923:5945  SafeERC20.safeTransfer */\n      tag_107\n        /* \"contracts/WhiteList_v2.sol\":5923:6078  SafeERC20.safeTransfer(... */\n      jump\t// in\n    tag_106:\n        /* \"contracts/WhiteList_v2.sol\":5559:6106  {... */\n      pop\n        /* \"contracts/WhiteList_v2.sol\":5456:6113  function releaseClaimable()... */\n      jump\t// out\n        /* \"contracts/WhiteList_v2.sol\":1866:1967  function initiateWhitelist() external onlyOwner {... */\n    tag_59:\n        /* \"@openzeppelin/contracts/access/Ownable.sol\":1108:1114  _owner */\n      and(sub(shl(0xa0, 0x01), 0x01), sload(0x01))\n        /* \"@openzeppelin/contracts/utils/Context.sol\":719:729  msg.sender */\n      caller\n        /* \"@openzeppelin/contracts/access/Ownable.sol\":1248:1271  owner() == _msgSender() */\n      eq\n        /* \"@openzeppelin/contracts/access/Ownable.sol\":1240:1308  require(owner() == _msgSender(), \"Ownable: caller is not the owner\") */\n      tag_111\n      jumpi\n      mload(0x40)\n      shl(0xe5, 0x461bcd)\n      dup2\n      mstore\n        /* \"#utility.yul\":1807:1809   */\n      0x20\n        /* \"@openzeppelin/contracts/access/Ownable.sol\":1240:1308  require(owner() == _msgSender(), \"Ownable: caller is not the owner\") */\n      0x04\n      dup3\n      add\n        /* \"#utility.yul\":1789:1810   */\n      dup2\n      swap1\n      mstore\n        /* \"#utility.yul\":1826:1844   */\n      0x24\n      dup3\n      add\n        /* \"#utility.yul\":1819:1849   */\n      mstore\n        /* \"#utility.yul\":1885:1919   */\n      0x4f776e61626c653a2063616c6c6572206973206e6f7420746865206f776e6572\n        /* \"#utility.yul\":1865:1883   */\n      0x44\n      dup3\n      add\n        /* \"#utility.yul\":1858:1920   */\n      mstore\n        /* \"#utility.yul\":1937:1955   */\n      0x64\n      add\n        /* \"@openzeppelin/contracts/access/Ownable.sol\":1240:1308  require(owner() == _msgSender(), \"Ownable: caller is not the owner\") */\n      tag_68\n        /* \"#utility.yul\":1605:1961   */\n      jump\n        /* \"@openzeppelin/contracts/access/Ownable.sol\":1240:1308  require(owner() == _msgSender(), \"Ownable: caller is not the owner\") */\n    tag_111:\n        /* \"contracts/WhiteList_v2.sol\":1944:1959  block.timestamp */\n      timestamp\n        /* \"contracts/WhiteList_v2.sol\":1925:1941  startPrivateSale */\n      0x04\n        /* \"contracts/WhiteList_v2.sol\":1925:1959  startPrivateSale = block.timestamp */\n      sstore\n        /* \"contracts/WhiteList_v2.sol\":1866:1967  function initiateWhitelist() external onlyOwner {... */\n      jump\t// out\n        /* \"@openzeppelin/contracts/access/Ownable.sol\":1918:2116  function transferOwnership(address newOwner) public virtual onlyOwner {... */\n    tag_62:\n        /* \"@openzeppelin/contracts/access/Ownable.sol\":1108:1114  _owner */\n      and(sub(shl(0xa0, 0x01), 0x01), sload(0x01))\n        /* \"@openzeppelin/contracts/utils/Context.sol\":719:729  msg.sender */\n      caller\n        /* \"@openzeppelin/contracts/access/Ownable.sol\":1248:1271  owner() == _msgSender() */\n      eq\n        /* \"@openzeppelin/contracts/access/Ownable.sol\":1240:1308  require(owner() == _msgSender(), \"Ownable: caller is not the owner\") */\n      tag_117\n      jumpi\n      mload(0x40)\n      shl(0xe5, 0x461bcd)\n      dup2\n      mstore\n        /* \"#utility.yul\":1807:1809   */\n      0x20\n        /* \"@openzeppelin/contracts/access/Ownable.sol\":1240:1308  require(owner() == _msgSender(), \"Ownable: caller is not the owner\") */\n      0x04\n      dup3\n      add\n        /* \"#utility.yul\":1789:1810   */\n      dup2\n      swap1\n      mstore\n        /* \"#utility.yul\":1826:1844   */\n      0x24\n      dup3\n      add\n        /* \"#utility.yul\":1819:1849   */\n      mstore\n        /* \"#utility.yul\":1885:1919   */\n      0x4f776e61626c653a2063616c6c6572206973206e6f7420746865206f776e6572\n        /* \"#utility.yul\":1865:1883   */\n      0x44\n      dup3\n      add\n        /* \"#utility.yul\":1858:1920   */\n      mstore\n        /* \"#utility.yul\":1937:1955   */\n      0x64\n      add\n        /* \"@openzeppelin/contracts/access/Ownable.sol\":1240:1308  require(owner() == _msgSender(), \"Ownable: caller is not the owner\") */\n      tag_68\n        /* \"#utility.yul\":1605:1961   */\n      jump\n        /* \"@openzeppelin/contracts/access/Ownable.sol\":1240:1308  require(owner() == _msgSender(), \"Ownable: caller is not the owner\") */\n    tag_117:\n      sub(shl(0xa0, 0x01), 0x01)\n        /* \"@openzeppelin/contracts/access/Ownable.sol\":2006:2028  newOwner != address(0) */\n      dup2\n      and\n        /* \"@openzeppelin/contracts/access/Ownable.sol\":1998:2071  require(newOwner != address(0), \"Ownable: new owner is the zero address\") */\n      tag_120\n      jumpi\n      mload(0x40)\n      shl(0xe5, 0x461bcd)\n      dup2\n      mstore\n        /* \"#utility.yul\":2620:2622   */\n      0x20\n        /* \"@openzeppelin/contracts/access/Ownable.sol\":1998:2071  require(newOwner != address(0), \"Ownable: new owner is the zero address\") */\n      0x04\n      dup3\n      add\n        /* \"#utility.yul\":2602:2623   */\n      mstore\n        /* \"#utility.yul\":2659:2661   */\n      0x26\n        /* \"#utility.yul\":2639:2657   */\n      0x24\n      dup3\n      add\n        /* \"#utility.yul\":2632:2662   */\n      mstore\n        /* \"#utility.yul\":2698:2732   */\n      0x4f776e61626c653a206e6577206f776e657220697320746865207a65726f2061\n        /* \"#utility.yul\":2678:2696   */\n      0x44\n      dup3\n      add\n        /* \"#utility.yul\":2671:2733   */\n      mstore\n        /* \"#utility.yul\":2769:2777   */\n      0x6464726573730000000000000000000000000000000000000000000000000000\n        /* \"#utility.yul\":2749:2767   */\n      0x64\n      dup3\n      add\n        /* \"#utility.yul\":2742:2778   */\n      mstore\n        /* \"#utility.yul\":2795:2814   */\n      0x84\n      add\n        /* \"@openzeppelin/contracts/access/Ownable.sol\":1998:2071  require(newOwner != address(0), \"Ownable: new owner is the zero address\") */\n      tag_68\n        /* \"#utility.yul\":2418:2820   */\n      jump\n        /* \"@openzeppelin/contracts/access/Ownable.sol\":1998:2071  require(newOwner != address(0), \"Ownable: new owner is the zero address\") */\n    tag_120:\n        /* \"@openzeppelin/contracts/access/Ownable.sol\":2081:2109  _transferOwnership(newOwner) */\n      tag_106\n        /* \"@openzeppelin/contracts/access/Ownable.sol\":2100:2108  newOwner */\n      dup2\n        /* \"@openzeppelin/contracts/access/Ownable.sol\":2270:2457  function _transferOwnership(address newOwner) internal virtual {... */\n    tag_72:\n        /* \"@openzeppelin/contracts/access/Ownable.sol\":2362:2368  _owner */\n      0x01\n      dup1\n      sload\n      sub(shl(0xa0, 0x01), 0x01)\n        /* \"@openzeppelin/contracts/access/Ownable.sol\":2378:2395  _owner = newOwner */\n      dup4\n      dup2\n      and\n      not(0xffffffffffffffffffffffffffffffffffffffff)\n      dup4\n      and\n      dup2\n      or\n      swap1\n      swap4\n      sstore\n        /* \"@openzeppelin/contracts/access/Ownable.sol\":2410:2450  OwnershipTransferred(oldOwner, newOwner) */\n      mload(0x40)\n        /* \"@openzeppelin/contracts/access/Ownable.sol\":2362:2368  _owner */\n      swap2\n      and\n      swap2\n        /* \"@openzeppelin/contracts/access/Ownable.sol\":2378:2395  _owner = newOwner */\n      swap1\n        /* \"@openzeppelin/contracts/access/Ownable.sol\":2362:2368  _owner */\n      dup3\n      swap1\n        /* \"@openzeppelin/contracts/access/Ownable.sol\":2410:2450  OwnershipTransferred(oldOwner, newOwner) */\n      0x8be0079c531659141344cd1fd0a4f28419497f9722a3daafe3b4186f6b6457e0\n      swap1\n        /* \"@openzeppelin/contracts/access/Ownable.sol\":2343:2359  address oldOwner */\n      0x00\n      swap1\n        /* \"@openzeppelin/contracts/access/Ownable.sol\":2410:2450  OwnershipTransferred(oldOwner, newOwner) */\n      log3\n        /* \"@openzeppelin/contracts/access/Ownable.sol\":2333:2457  {... */\n      pop\n        /* \"@openzeppelin/contracts/access/Ownable.sol\":2270:2457  function _transferOwnership(address newOwner) internal virtual {... */\n      pop\n      jump\t// out\n        /* \"contracts/WhiteList_v2.sol\":2604:4197  function _calculateClaimableAmount(address user)... */\n    tag_103:\n        /* \"contracts/WhiteList_v2.sol\":2689:2696  uint256 */\n      0x00\n        /* \"contracts/WhiteList_v2.sol\":2714:2731  uint256 claimable */\n      dup1\n        /* \"contracts/WhiteList_v2.sol\":2744:2764  uint256 lockDuration */\n      0x00\n        /* \"contracts/WhiteList_v2.sol\":2806:2812  1 days */\n      0x015180\n        /* \"contracts/WhiteList_v2.sol\":2786:2802  startPrivateSale */\n      sload(0x04)\n        /* \"contracts/WhiteList_v2.sol\":2768:2783  block.timestamp */\n      timestamp\n        /* \"contracts/WhiteList_v2.sol\":2768:2802  block.timestamp - startPrivateSale */\n      tag_127\n      swap2\n      swap1\n      tag_81\n      jump\t// in\n    tag_127:\n        /* \"contracts/WhiteList_v2.sol\":2767:2812  (block.timestamp - startPrivateSale) / 1 days */\n      tag_128\n      swap2\n      swap1\n      tag_129\n      jump\t// in\n    tag_128:\n        /* \"contracts/WhiteList_v2.sol\":2744:2812  uint256 lockDuration = (block.timestamp - startPrivateSale) / 1 days */\n      swap1\n      pop\n        /* \"contracts/WhiteList_v2.sol\":2898:2905  16 * 30 */\n      0x01e0\n        /* \"contracts/WhiteList_v2.sol\":2883:2895  lockDuration */\n      dup2\n        /* \"contracts/WhiteList_v2.sol\":2883:2905  lockDuration < 16 * 30 */\n      lt\n        /* \"contracts/WhiteList_v2.sol\":2879:4161  if (lockDuration < 16 * 30) {... */\n      iszero\n      tag_130\n      jumpi\n      sub(shl(0xa0, 0x01), 0x01)\n        /* \"contracts/WhiteList_v2.sol\":2926:2944  _beneficiary[user] */\n      dup5\n      and\n      0x00\n      swap1\n      dup2\n      mstore\n        /* \"contracts/WhiteList_v2.sol\":2926:2938  _beneficiary */\n      0x05\n        /* \"contracts/WhiteList_v2.sol\":2926:2944  _beneficiary[user] */\n      0x20\n      mstore\n      0x40\n      swap1\n      keccak256\n        /* \"contracts/WhiteList_v2.sol\":2926:2960  _beneficiary[user].isPhase1Claimed */\n      0x03\n      add\n      sload\n      0xff\n      and\n        /* \"contracts/WhiteList_v2.sol\":2922:3284  if (_beneficiary[user].isPhase1Claimed == false) {... */\n      tag_131\n      jumpi\n      sub(shl(0xa0, 0x01), 0x01)\n        /* \"contracts/WhiteList_v2.sol\":2990:3008  _beneficiary[user] */\n      dup5\n      and\n      0x00\n      swap1\n      dup2\n      mstore\n        /* \"contracts/WhiteList_v2.sol\":2990:3002  _beneficiary */\n      0x05\n        /* \"contracts/WhiteList_v2.sol\":2990:3008  _beneficiary[user] */\n      0x20\n      mstore\n      0x40\n      swap1\n      keccak256\n        /* \"contracts/WhiteList_v2.sol\":2990:3024  _beneficiary[user].isPhase1Claimed */\n      0x03\n      dup1\n      dup3\n      add\n        /* \"contracts/WhiteList_v2.sol\":2990:3031  _beneficiary[user].isPhase1Claimed = true */\n      dup1\n      sload\n      not(0xff)\n      and\n        /* \"contracts/WhiteList_v2.sol\":3027:3031  true */\n      0x01\n        /* \"contracts/WhiteList_v2.sol\":2990:3031  _beneficiary[user].isPhase1Claimed = true */\n      swap1\n      dup2\n      or\n      swap1\n      swap2\n      sstore\n        /* \"contracts/WhiteList_v2.sol\":3086:3093  15 * 30 */\n      0x01c2\n        /* \"contracts/WhiteList_v2.sol\":3050:3083  _beneficiary[user].latestClaimDay */\n      0x04\n      dup5\n      add\n        /* \"contracts/WhiteList_v2.sol\":3050:3093  _beneficiary[user].latestClaimDay = 15 * 30 */\n      sstore\n        /* \"contracts/WhiteList_v2.sol\":3250:3267  privateSaleAmount */\n      swap1\n      sload\n        /* \"contracts/WhiteList_v2.sol\":3190:3221  _beneficiary[user].lockedAmount */\n      swap2\n      add\n      sload\n        /* \"contracts/WhiteList_v2.sol\":3180:3221  _phase1 * _beneficiary[user].lockedAmount */\n      tag_132\n      swap1\n        /* \"contracts/WhiteList_v2.sol\":940:955  73395000 * 1e18 */\n      0x3cb5feec27901169e00000\n        /* \"contracts/WhiteList_v2.sol\":3180:3221  _phase1 * _beneficiary[user].lockedAmount */\n      tag_133\n      jump\t// in\n    tag_132:\n        /* \"contracts/WhiteList_v2.sol\":3179:3267  (_phase1 * _beneficiary[user].lockedAmount) /... */\n      tag_134\n      swap2\n      swap1\n      tag_129\n      jump\t// in\n    tag_134:\n        /* \"contracts/WhiteList_v2.sol\":3145:3268  claimable +... */\n      tag_135\n      swap1\n        /* \"contracts/WhiteList_v2.sol\":3145:3154  claimable */\n      dup4\n        /* \"contracts/WhiteList_v2.sol\":3145:3268  claimable +... */\n      tag_83\n      jump\t// in\n    tag_135:\n        /* \"contracts/WhiteList_v2.sol\":3112:3268  claimable =... */\n      swap2\n      pop\n        /* \"contracts/WhiteList_v2.sol\":2922:3284  if (_beneficiary[user].isPhase1Claimed == false) {... */\n    tag_131:\n        /* \"contracts/WhiteList_v2.sol\":2879:4161  if (lockDuration < 16 * 30) {... */\n      jump(tag_148)\n    tag_130:\n        /* \"contracts/WhiteList_v2.sol\":3382:3389  16 * 30 */\n      0x01e0\n        /* \"contracts/WhiteList_v2.sol\":3366:3378  lockDuration */\n      dup2\n        /* \"contracts/WhiteList_v2.sol\":3366:3389  lockDuration >= 16 * 30 */\n      lt\n      iszero\n        /* \"contracts/WhiteList_v2.sol\":3366:3415  lockDuration >= 16 * 30 && lockDuration < 28 * 30 */\n      dup1\n      iszero\n      tag_137\n      jumpi\n      pop\n        /* \"contracts/WhiteList_v2.sol\":3408:3415  28 * 30 */\n      0x0348\n        /* \"contracts/WhiteList_v2.sol\":3393:3405  lockDuration */\n      dup2\n        /* \"contracts/WhiteList_v2.sol\":3393:3415  lockDuration < 28 * 30 */\n      lt\n        /* \"contracts/WhiteList_v2.sol\":3366:3415  lockDuration >= 16 * 30 && lockDuration < 28 * 30 */\n    tag_137:\n        /* \"contracts/WhiteList_v2.sol\":3362:4161  if (lockDuration >= 16 * 30 && lockDuration < 28 * 30) {... */\n      iszero\n      tag_138\n      jumpi\n      sub(shl(0xa0, 0x01), 0x01)\n        /* \"contracts/WhiteList_v2.sol\":3436:3454  _beneficiary[user] */\n      dup5\n      and\n      0x00\n      swap1\n      dup2\n      mstore\n        /* \"contracts/WhiteList_v2.sol\":3436:3448  _beneficiary */\n      0x05\n        /* \"contracts/WhiteList_v2.sol\":3436:3454  _beneficiary[user] */\n      0x20\n      mstore\n      0x40\n      swap1\n      keccak256\n        /* \"contracts/WhiteList_v2.sol\":3436:3470  _beneficiary[user].isPhase1Claimed */\n      0x03\n      add\n      sload\n      0xff\n      and\n        /* \"contracts/WhiteList_v2.sol\":3432:3732  if (_beneficiary[user].isPhase1Claimed == false) {... */\n      tag_139\n      jumpi\n      sub(shl(0xa0, 0x01), 0x01)\n        /* \"contracts/WhiteList_v2.sol\":3500:3518  _beneficiary[user] */\n      dup5\n      and\n      0x00\n      swap1\n      dup2\n      mstore\n        /* \"contracts/WhiteList_v2.sol\":3500:3512  _beneficiary */\n      0x05\n        /* \"contracts/WhiteList_v2.sol\":3500:3518  _beneficiary[user] */\n      0x20\n      mstore\n      0x40\n      swap1\n      keccak256\n        /* \"contracts/WhiteList_v2.sol\":3500:3534  _beneficiary[user].isPhase1Claimed */\n      0x03\n      dup1\n      dup3\n      add\n        /* \"contracts/WhiteList_v2.sol\":3500:3541  _beneficiary[user].isPhase1Claimed = true */\n      dup1\n      sload\n      not(0xff)\n      and\n        /* \"contracts/WhiteList_v2.sol\":3537:3541  true */\n      0x01\n        /* \"contracts/WhiteList_v2.sol\":3500:3541  _beneficiary[user].isPhase1Claimed = true */\n      swap1\n      dup2\n      or\n      swap1\n      swap2\n      sstore\n        /* \"contracts/WhiteList_v2.sol\":3698:3715  privateSaleAmount */\n      swap1\n      sload\n        /* \"contracts/WhiteList_v2.sol\":3638:3669  _beneficiary[user].lockedAmount */\n      swap2\n      add\n      sload\n        /* \"contracts/WhiteList_v2.sol\":3628:3669  _phase1 * _beneficiary[user].lockedAmount */\n      tag_140\n      swap1\n        /* \"contracts/WhiteList_v2.sol\":940:955  73395000 * 1e18 */\n      0x3cb5feec27901169e00000\n        /* \"contracts/WhiteList_v2.sol\":3628:3669  _phase1 * _beneficiary[user].lockedAmount */\n      tag_133\n      jump\t// in\n    tag_140:\n        /* \"contracts/WhiteList_v2.sol\":3627:3715  (_phase1 * _beneficiary[user].lockedAmount) /... */\n      tag_141\n      swap2\n      swap1\n      tag_129\n      jump\t// in\n    tag_141:\n        /* \"contracts/WhiteList_v2.sol\":3593:3716  claimable +... */\n      tag_142\n      swap1\n        /* \"contracts/WhiteList_v2.sol\":3593:3602  claimable */\n      dup4\n        /* \"contracts/WhiteList_v2.sol\":3593:3716  claimable +... */\n      tag_83\n      jump\t// in\n    tag_142:\n        /* \"contracts/WhiteList_v2.sol\":3560:3716  claimable =... */\n      swap2\n      pop\n        /* \"contracts/WhiteList_v2.sol\":3432:3732  if (_beneficiary[user].isPhase1Claimed == false) {... */\n    tag_139:\n      sub(shl(0xa0, 0x01), 0x01)\n        /* \"contracts/WhiteList_v2.sol\":3807:3825  _beneficiary[user] */\n      dup5\n      and\n        /* \"contracts/WhiteList_v2.sol\":3748:3772  uint256 sinceLatestClaim */\n      0x00\n        /* \"contracts/WhiteList_v2.sol\":3807:3825  _beneficiary[user] */\n      swap1\n      dup2\n      mstore\n        /* \"contracts/WhiteList_v2.sol\":3807:3819  _beneficiary */\n      0x05\n        /* \"contracts/WhiteList_v2.sol\":3807:3825  _beneficiary[user] */\n      0x20\n      mstore\n      0x40\n      dup2\n      keccak256\n        /* \"contracts/WhiteList_v2.sol\":3807:3840  _beneficiary[user].latestClaimDay */\n      0x04\n      add\n      sload\n        /* \"contracts/WhiteList_v2.sol\":3775:3840  lockDuration -... */\n      tag_143\n      swap1\n        /* \"contracts/WhiteList_v2.sol\":3775:3787  lockDuration */\n      dup4\n        /* \"contracts/WhiteList_v2.sol\":3775:3840  lockDuration -... */\n      tag_81\n      jump\t// in\n    tag_143:\n      sub(shl(0xa0, 0x01), 0x01)\n        /* \"contracts/WhiteList_v2.sol\":3855:3873  _beneficiary[user] */\n      dup7\n      and\n      0x00\n      swap1\n      dup2\n      mstore\n        /* \"contracts/WhiteList_v2.sol\":3855:3867  _beneficiary */\n      0x05\n        /* \"contracts/WhiteList_v2.sol\":3855:3873  _beneficiary[user] */\n      0x20\n      mstore\n      0x40\n      swap1\n      keccak256\n        /* \"contracts/WhiteList_v2.sol\":3855:3888  _beneficiary[user].latestClaimDay */\n      0x04\n      dup2\n      add\n        /* \"contracts/WhiteList_v2.sol\":3855:3903  _beneficiary[user].latestClaimDay = lockDuration */\n      dup5\n      swap1\n      sstore\n        /* \"contracts/WhiteList_v2.sol\":4089:4106  privateSaleAmount */\n      sload(0x03)\n        /* \"contracts/WhiteList_v2.sol\":4029:4060  _beneficiary[user].lockedAmount */\n      0x01\n      swap1\n      swap2\n      add\n      sload\n        /* \"contracts/WhiteList_v2.sol\":3748:3840  uint256 sinceLatestClaim = lockDuration -... */\n      swap2\n      swap3\n      pop\n        /* \"contracts/WhiteList_v2.sol\":4089:4106  privateSaleAmount */\n      swap1\n        /* \"contracts/WhiteList_v2.sol\":4019:4060  _phase2 * _beneficiary[user].lockedAmount */\n      tag_144\n      swap1\n        /* \"contracts/WhiteList_v2.sol\":998:1012  3820562 * 1e18 */\n      0x03290914be1afb75080000\n        /* \"contracts/WhiteList_v2.sol\":4019:4060  _phase2 * _beneficiary[user].lockedAmount */\n      tag_133\n      jump\t// in\n    tag_144:\n        /* \"contracts/WhiteList_v2.sol\":4018:4106  (_phase2 * _beneficiary[user].lockedAmount) /... */\n      tag_145\n      swap2\n      swap1\n      tag_129\n      jump\t// in\n    tag_145:\n        /* \"contracts/WhiteList_v2.sol\":3984:4107  claimable +... */\n      tag_146\n      swap1\n        /* \"contracts/WhiteList_v2.sol\":3984:3993  claimable */\n      dup5\n        /* \"contracts/WhiteList_v2.sol\":3984:4107  claimable +... */\n      tag_83\n      jump\t// in\n    tag_146:\n        /* \"contracts/WhiteList_v2.sol\":3947:4108  sinceLatestClaim *... */\n      tag_147\n      swap1\n        /* \"contracts/WhiteList_v2.sol\":3947:3963  sinceLatestClaim */\n      dup3\n        /* \"contracts/WhiteList_v2.sol\":3947:4108  sinceLatestClaim *... */\n      tag_133\n      jump\t// in\n    tag_147:\n        /* \"contracts/WhiteList_v2.sol\":3918:4108  claimable =... */\n      swap3\n      pop\n        /* \"contracts/WhiteList_v2.sol\":3417:4120  {... */\n      pop\n        /* \"contracts/WhiteList_v2.sol\":3362:4161  if (lockDuration >= 16 * 30 && lockDuration < 28 * 30) {... */\n      jump(tag_148)\n    tag_138:\n      pop\n        /* \"contracts/WhiteList_v2.sol\":4148:4149  0 */\n      0x00\n      swap4\n        /* \"contracts/WhiteList_v2.sol\":2604:4197  function _calculateClaimableAmount(address user)... */\n      swap3\n      pop\n      pop\n      pop\n      jump\t// out\n        /* \"contracts/WhiteList_v2.sol\":3362:4161  if (lockDuration >= 16 * 30 && lockDuration < 28 * 30) {... */\n    tag_148:\n      pop\n        /* \"contracts/WhiteList_v2.sol\":4180:4189  claimable */\n      swap3\n        /* \"contracts/WhiteList_v2.sol\":2604:4197  function _calculateClaimableAmount(address user)... */\n      swap2\n      pop\n      pop\n      jump\t// out\n        /* \"@openzeppelin/contracts/token/ERC20/utils/SafeERC20.sol\":701:906  function safeTransfer(... */\n    tag_107:\n        /* \"@openzeppelin/contracts/token/ERC20/utils/SafeERC20.sol\":840:898  abi.encodeWithSelector(token.transfer.selector, to, value) */\n      0x40\n      dup1\n      mload\n      sub(shl(0xa0, 0x01), 0x01)\n        /* \"#utility.yul\":3469:3524   */\n      dup5\n      and\n        /* \"@openzeppelin/contracts/token/ERC20/utils/SafeERC20.sol\":840:898  abi.encodeWithSelector(token.transfer.selector, to, value) */\n      0x24\n      dup3\n      add\n        /* \"#utility.yul\":3451:3525   */\n      mstore\n        /* \"#utility.yul\":3541:3559   */\n      0x44\n      dup1\n      dup3\n      add\n        /* \"#utility.yul\":3534:3568   */\n      dup5\n      swap1\n      mstore\n        /* \"@openzeppelin/contracts/token/ERC20/utils/SafeERC20.sol\":840:898  abi.encodeWithSelector(token.transfer.selector, to, value) */\n      dup3\n      mload\n      dup1\n      dup4\n      sub\n      swap1\n      swap2\n      add\n      dup2\n      mstore\n        /* \"#utility.yul\":3424:3442   */\n      0x64\n      swap1\n      swap2\n      add\n        /* \"@openzeppelin/contracts/token/ERC20/utils/SafeERC20.sol\":840:898  abi.encodeWithSelector(token.transfer.selector, to, value) */\n      swap1\n      swap2\n      mstore\n      0x20\n      dup2\n      add\n      dup1\n      mload\n      0xffffffffffffffffffffffffffffffffffffffffffffffffffffffff\n      and\n        /* \"@openzeppelin/contracts/token/ERC20/utils/SafeERC20.sol\":863:886  token.transfer.selector */\n      0xa9059cbb00000000000000000000000000000000000000000000000000000000\n        /* \"@openzeppelin/contracts/token/ERC20/utils/SafeERC20.sol\":840:898  abi.encodeWithSelector(token.transfer.selector, to, value) */\n      or\n      swap1\n      mstore\n        /* \"@openzeppelin/contracts/token/ERC20/utils/SafeERC20.sol\":813:899  _callOptionalReturn(token, abi.encodeWithSelector(token.transfer.selector, to, value)) */\n      tag_150\n      swap1\n        /* \"@openzeppelin/contracts/token/ERC20/utils/SafeERC20.sol\":833:838  token */\n      dup5\n      swap1\n        /* \"@openzeppelin/contracts/token/ERC20/utils/SafeERC20.sol\":813:832  _callOptionalReturn */\n      tag_153\n        /* \"@openzeppelin/contracts/token/ERC20/utils/SafeERC20.sol\":813:899  _callOptionalReturn(token, abi.encodeWithSelector(token.transfer.selector, to, value)) */\n      jump\t// in\n    tag_150:\n        /* \"@openzeppelin/contracts/token/ERC20/utils/SafeERC20.sol\":701:906  function safeTransfer(... */\n      pop\n      pop\n      pop\n      jump\t// out\n        /* \"@openzeppelin/contracts/token/ERC20/utils/SafeERC20.sol\":3207:3913  function _callOptionalReturn(IERC20 token, bytes memory data) private {... */\n    tag_153:\n        /* \"@openzeppelin/contracts/token/ERC20/utils/SafeERC20.sol\":3626:3649  bytes memory returndata */\n      0x00\n        /* \"@openzeppelin/contracts/token/ERC20/utils/SafeERC20.sol\":3652:3721  address(token).functionCall(data, \"SafeERC20: low-level call failed\") */\n      tag_155\n        /* \"@openzeppelin/contracts/token/ERC20/utils/SafeERC20.sol\":3680:3684  data */\n      dup3\n        /* \"@openzeppelin/contracts/token/ERC20/utils/SafeERC20.sol\":3652:3721  address(token).functionCall(data, \"SafeERC20: low-level call failed\") */\n      mload(0x40)\n      dup1\n      0x40\n      add\n      0x40\n      mstore\n      dup1\n      0x20\n      dup2\n      mstore\n      0x20\n      add\n      0x5361666545524332303a206c6f772d6c6576656c2063616c6c206661696c6564\n      dup2\n      mstore\n      pop\n        /* \"@openzeppelin/contracts/token/ERC20/utils/SafeERC20.sol\":3660:3665  token */\n      dup6\n      sub(shl(0xa0, 0x01), 0x01)\n        /* \"@openzeppelin/contracts/token/ERC20/utils/SafeERC20.sol\":3652:3679  address(token).functionCall */\n      and\n      tag_156\n      swap1\n        /* \"@openzeppelin/contracts/token/ERC20/utils/SafeERC20.sol\":3652:3721  address(token).functionCall(data, \"SafeERC20: low-level call failed\") */\n      swap3\n      swap2\n      swap1\n      0xffffffff\n      and\n      jump\t// in\n    tag_155:\n        /* \"@openzeppelin/contracts/token/ERC20/utils/SafeERC20.sol\":3735:3752  returndata.length */\n      dup1\n      mload\n        /* \"@openzeppelin/contracts/token/ERC20/utils/SafeERC20.sol\":3626:3721  bytes memory returndata = address(token).functionCall(data, \"SafeERC20: low-level call failed\") */\n      swap1\n      swap2\n      pop\n        /* \"@openzeppelin/contracts/token/ERC20/utils/SafeERC20.sol\":3735:3756  returndata.length > 0 */\n      iszero\n        /* \"@openzeppelin/contracts/token/ERC20/utils/SafeERC20.sol\":3731:3907  if (returndata.length > 0) {... */\n      tag_150\n      jumpi\n        /* \"@openzeppelin/contracts/token/ERC20/utils/SafeERC20.sol\":3830:3840  returndata */\n      dup1\n        /* \"@openzeppelin/contracts/token/ERC20/utils/SafeERC20.sol\":3819:3849  abi.decode(returndata, (bool)) */\n      dup1\n      0x20\n      add\n      swap1\n      mload\n      dup2\n      add\n      swap1\n      tag_158\n      swap2\n      swap1\n      tag_159\n      jump\t// in\n    tag_158:\n        /* \"@openzeppelin/contracts/token/ERC20/utils/SafeERC20.sol\":3811:3896  require(abi.decode(returndata, (bool)), \"SafeERC20: ERC20 operation did not succeed\") */\n      tag_150\n      jumpi\n      mload(0x40)\n      shl(0xe5, 0x461bcd)\n      dup2\n      mstore\n        /* \"#utility.yul\":4063:4065   */\n      0x20\n        /* \"@openzeppelin/contracts/token/ERC20/utils/SafeERC20.sol\":3811:3896  require(abi.decode(returndata, (bool)), \"SafeERC20: ERC20 operation did not succeed\") */\n      0x04\n      dup3\n      add\n        /* \"#utility.yul\":4045:4066   */\n      mstore\n        /* \"#utility.yul\":4102:4104   */\n      0x2a\n        /* \"#utility.yul\":4082:4100   */\n      0x24\n      dup3\n      add\n        /* \"#utility.yul\":4075:4105   */\n      mstore\n        /* \"#utility.yul\":4141:4175   */\n      0x5361666545524332303a204552433230206f7065726174696f6e20646964206e\n        /* \"#utility.yul\":4121:4139   */\n      0x44\n      dup3\n      add\n        /* \"#utility.yul\":4114:4176   */\n      mstore\n        /* \"#utility.yul\":4212:4224   */\n      0x6f74207375636365656400000000000000000000000000000000000000000000\n        /* \"#utility.yul\":4192:4210   */\n      0x64\n      dup3\n      add\n        /* \"#utility.yul\":4185:4225   */\n      mstore\n        /* \"#utility.yul\":4242:4261   */\n      0x84\n      add\n        /* \"@openzeppelin/contracts/token/ERC20/utils/SafeERC20.sol\":3811:3896  require(abi.decode(returndata, (bool)), \"SafeERC20: ERC20 operation did not succeed\") */\n      tag_68\n        /* \"#utility.yul\":3861:4267   */\n      jump\n        /* \"@openzeppelin/contracts/utils/Address.sol\":3861:4084  function functionCall(... */\n    tag_156:\n        /* \"@openzeppelin/contracts/utils/Address.sol\":3994:4006  bytes memory */\n      0x60\n        /* \"@openzeppelin/contracts/utils/Address.sol\":4025:4077  functionCallWithValue(target, data, 0, errorMessage) */\n      tag_164\n        /* \"@openzeppelin/contracts/utils/Address.sol\":4047:4053  target */\n      dup5\n        /* \"@openzeppelin/contracts/utils/Address.sol\":4055:4059  data */\n      dup5\n        /* \"@openzeppelin/contracts/utils/Address.sol\":4061:4062  0 */\n      0x00\n        /* \"@openzeppelin/contracts/utils/Address.sol\":4064:4076  errorMessage */\n      dup6\n        /* \"@openzeppelin/contracts/utils/Address.sol\":4025:4046  functionCallWithValue */\n      tag_165\n        /* \"@openzeppelin/contracts/utils/Address.sol\":4025:4077  functionCallWithValue(target, data, 0, errorMessage) */\n      jump\t// in\n    tag_164:\n        /* \"@openzeppelin/contracts/utils/Address.sol\":4018:4077  return functionCallWithValue(target, data, 0, errorMessage) */\n      swap1\n      pop\n        /* \"@openzeppelin/contracts/utils/Address.sol\":3861:4084  function functionCall(... */\n    tag_163:\n      swap4\n      swap3\n      pop\n      pop\n      pop\n      jump\t// out\n        /* \"@openzeppelin/contracts/utils/Address.sol\":4948:5447  function functionCallWithValue(... */\n    tag_165:\n        /* \"@openzeppelin/contracts/utils/Address.sol\":5113:5125  bytes memory */\n      0x60\n        /* \"@openzeppelin/contracts/utils/Address.sol\":5170:5175  value */\n      dup3\n        /* \"@openzeppelin/contracts/utils/Address.sol\":5145:5166  address(this).balance */\n      selfbalance\n        /* \"@openzeppelin/contracts/utils/Address.sol\":5145:5175  address(this).balance >= value */\n      lt\n      iszero\n        /* \"@openzeppelin/contracts/utils/Address.sol\":5137:5218  require(address(this).balance >= value, \"Address: insufficient balance for call\") */\n      tag_167\n      jumpi\n      mload(0x40)\n      shl(0xe5, 0x461bcd)\n      dup2\n      mstore\n        /* \"#utility.yul\":4474:4476   */\n      0x20\n        /* \"@openzeppelin/contracts/utils/Address.sol\":5137:5218  require(address(this).balance >= value, \"Address: insufficient balance for call\") */\n      0x04\n      dup3\n      add\n        /* \"#utility.yul\":4456:4477   */\n      mstore\n        /* \"#utility.yul\":4513:4515   */\n      0x26\n        /* \"#utility.yul\":4493:4511   */\n      0x24\n      dup3\n      add\n        /* \"#utility.yul\":4486:4516   */\n      mstore\n        /* \"#utility.yul\":4552:4586   */\n      0x416464726573733a20696e73756666696369656e742062616c616e636520666f\n        /* \"#utility.yul\":4532:4550   */\n      0x44\n      dup3\n      add\n        /* \"#utility.yul\":4525:4587   */\n      mstore\n        /* \"#utility.yul\":4623:4631   */\n      0x722063616c6c0000000000000000000000000000000000000000000000000000\n        /* \"#utility.yul\":4603:4621   */\n      0x64\n      dup3\n      add\n        /* \"#utility.yul\":4596:4632   */\n      mstore\n        /* \"#utility.yul\":4649:4668   */\n      0x84\n      add\n        /* \"@openzeppelin/contracts/utils/Address.sol\":5137:5218  require(address(this).balance >= value, \"Address: insufficient balance for call\") */\n      tag_68\n        /* \"#utility.yul\":4272:4674   */\n      jump\n        /* \"@openzeppelin/contracts/utils/Address.sol\":5137:5218  require(address(this).balance >= value, \"Address: insufficient balance for call\") */\n    tag_167:\n      sub(shl(0xa0, 0x01), 0x01)\n        /* \"@openzeppelin/contracts/utils/Address.sol\":1465:1484  account.code.length */\n      dup6\n      and\n      extcodesize\n        /* \"@openzeppelin/contracts/utils/Address.sol\":5228:5288  require(isContract(target), \"Address: call to non-contract\") */\n      tag_172\n      jumpi\n      mload(0x40)\n      shl(0xe5, 0x461bcd)\n      dup2\n      mstore\n        /* \"#utility.yul\":4881:4883   */\n      0x20\n        /* \"@openzeppelin/contracts/utils/Address.sol\":5228:5288  require(isContract(target), \"Address: call to non-contract\") */\n      0x04\n      dup3\n      add\n        /* \"#utility.yul\":4863:4884   */\n      mstore\n        /* \"#utility.yul\":4920:4922   */\n      0x1d\n        /* \"#utility.yul\":4900:4918   */\n      0x24\n      dup3\n      add\n        /* \"#utility.yul\":4893:4923   */\n      mstore\n        /* \"#utility.yul\":4959:4990   */\n      0x416464726573733a2063616c6c20746f206e6f6e2d636f6e7472616374000000\n        /* \"#utility.yul\":4939:4957   */\n      0x44\n      dup3\n      add\n        /* \"#utility.yul\":4932:4991   */\n      mstore\n        /* \"#utility.yul\":5008:5026   */\n      0x64\n      add\n        /* \"@openzeppelin/contracts/utils/Address.sol\":5228:5288  require(isContract(target), \"Address: call to non-contract\") */\n      tag_68\n        /* \"#utility.yul\":4679:5032   */\n      jump\n        /* \"@openzeppelin/contracts/utils/Address.sol\":5228:5288  require(isContract(target), \"Address: call to non-contract\") */\n    tag_172:\n        /* \"@openzeppelin/contracts/utils/Address.sol\":5300:5312  bool success */\n      0x00\n        /* \"@openzeppelin/contracts/utils/Address.sol\":5314:5337  bytes memory returndata */\n      dup1\n        /* \"@openzeppelin/contracts/utils/Address.sol\":5341:5347  target */\n      dup7\n      sub(shl(0xa0, 0x01), 0x01)\n        /* \"@openzeppelin/contracts/utils/Address.sol\":5341:5352  target.call */\n      and\n        /* \"@openzeppelin/contracts/utils/Address.sol\":5360:5365  value */\n      dup6\n        /* \"@openzeppelin/contracts/utils/Address.sol\":5367:5371  data */\n      dup8\n        /* \"@openzeppelin/contracts/utils/Address.sol\":5341:5372  target.call{value: value}(data) */\n      mload(0x40)\n      tag_175\n      swap2\n      swap1\n      tag_176\n      jump\t// in\n    tag_175:\n      0x00\n      mload(0x40)\n      dup1\n      dup4\n      sub\n      dup2\n      dup6\n      dup8\n      gas\n      call\n      swap3\n      pop\n      pop\n      pop\n      returndatasize\n      dup1\n      0x00\n      dup2\n      eq\n      tag_179\n      jumpi\n      mload(0x40)\n      swap2\n      pop\n      and(add(returndatasize, 0x3f), not(0x1f))\n      dup3\n      add\n      0x40\n      mstore\n      returndatasize\n      dup3\n      mstore\n      returndatasize\n      0x00\n      0x20\n      dup5\n      add\n      returndatacopy\n      jump(tag_178)\n    tag_179:\n      0x60\n      swap2\n      pop\n    tag_178:\n      pop\n        /* \"@openzeppelin/contracts/utils/Address.sol\":5299:5372  (bool success, bytes memory returndata) = target.call{value: value}(data) */\n      swap2\n      pop\n      swap2\n      pop\n        /* \"@openzeppelin/contracts/utils/Address.sol\":5389:5440  verifyCallResult(success, returndata, errorMessage) */\n      tag_180\n        /* \"@openzeppelin/contracts/utils/Address.sol\":5406:5413  success */\n      dup3\n        /* \"@openzeppelin/contracts/utils/Address.sol\":5415:5425  returndata */\n      dup3\n        /* \"@openzeppelin/contracts/utils/Address.sol\":5427:5439  errorMessage */\n      dup7\n        /* \"@openzeppelin/contracts/utils/Address.sol\":5389:5405  verifyCallResult */\n      tag_181\n        /* \"@openzeppelin/contracts/utils/Address.sol\":5389:5440  verifyCallResult(success, returndata, errorMessage) */\n      jump\t// in\n    tag_180:\n        /* \"@openzeppelin/contracts/utils/Address.sol\":5382:5440  return verifyCallResult(success, returndata, errorMessage) */\n      swap8\n        /* \"@openzeppelin/contracts/utils/Address.sol\":4948:5447  function functionCallWithValue(... */\n      swap7\n      pop\n      pop\n      pop\n      pop\n      pop\n      pop\n      pop\n      jump\t// out\n        /* \"@openzeppelin/contracts/utils/Address.sol\":7561:8253  function verifyCallResult(... */\n    tag_181:\n        /* \"@openzeppelin/contracts/utils/Address.sol\":7707:7719  bytes memory */\n      0x60\n        /* \"@openzeppelin/contracts/utils/Address.sol\":7735:7742  success */\n      dup4\n        /* \"@openzeppelin/contracts/utils/Address.sol\":7731:8247  if (success) {... */\n      iszero\n      tag_184\n      jumpi\n      pop\n        /* \"@openzeppelin/contracts/utils/Address.sol\":7765:7775  returndata */\n      dup2\n        /* \"@openzeppelin/contracts/utils/Address.sol\":7758:7775  return returndata */\n      jump(tag_163)\n        /* \"@openzeppelin/contracts/utils/Address.sol\":7731:8247  if (success) {... */\n    tag_184:\n        /* \"@openzeppelin/contracts/utils/Address.sol\":7876:7893  returndata.length */\n      dup3\n      mload\n        /* \"@openzeppelin/contracts/utils/Address.sol\":7876:7897  returndata.length > 0 */\n      iszero\n        /* \"@openzeppelin/contracts/utils/Address.sol\":7872:8237  if (returndata.length > 0) {... */\n      tag_186\n      jumpi\n        /* \"@openzeppelin/contracts/utils/Address.sol\":8070:8080  returndata */\n      dup3\n        /* \"@openzeppelin/contracts/utils/Address.sol\":8064:8081  mload(returndata) */\n      mload\n        /* \"@openzeppelin/contracts/utils/Address.sol\":8130:8145  returndata_size */\n      dup1\n        /* \"@openzeppelin/contracts/utils/Address.sol\":8117:8127  returndata */\n      dup5\n        /* \"@openzeppelin/contracts/utils/Address.sol\":8113:8115  32 */\n      0x20\n        /* \"@openzeppelin/contracts/utils/Address.sol\":8109:8128  add(32, returndata) */\n      add\n        /* \"@openzeppelin/contracts/utils/Address.sol\":8102:8146  revert(add(32, returndata), returndata_size) */\n      revert\n        /* \"@openzeppelin/contracts/utils/Address.sol\":7872:8237  if (returndata.length > 0) {... */\n    tag_186:\n        /* \"@openzeppelin/contracts/utils/Address.sol\":8209:8221  errorMessage */\n      dup2\n        /* \"@openzeppelin/contracts/utils/Address.sol\":8202:8222  revert(errorMessage) */\n      mload(0x40)\n      shl(0xe5, 0x461bcd)\n      dup2\n      mstore\n      0x04\n      add\n      tag_68\n      swap2\n      swap1\n      tag_189\n      jump\t// in\n        /* \"#utility.yul\":196:392   */\n    tag_190:\n        /* \"#utility.yul\":264:284   */\n      dup1\n      calldataload\n      sub(shl(0xa0, 0x01), 0x01)\n        /* \"#utility.yul\":313:367   */\n      dup2\n      and\n        /* \"#utility.yul\":303:368   */\n      dup2\n      eq\n        /* \"#utility.yul\":293:386   */\n      tag_84\n      jumpi\n        /* \"#utility.yul\":382:383   */\n      0x00\n        /* \"#utility.yul\":379:380   */\n      dup1\n        /* \"#utility.yul\":372:384   */\n      revert\n        /* \"#utility.yul\":397:583   */\n    tag_30:\n        /* \"#utility.yul\":456:462   */\n      0x00\n        /* \"#utility.yul\":509:511   */\n      0x20\n        /* \"#utility.yul\":497:506   */\n      dup3\n        /* \"#utility.yul\":488:495   */\n      dup5\n        /* \"#utility.yul\":484:507   */\n      sub\n        /* \"#utility.yul\":480:512   */\n      slt\n        /* \"#utility.yul\":477:529   */\n      iszero\n      tag_198\n      jumpi\n        /* \"#utility.yul\":525:526   */\n      0x00\n        /* \"#utility.yul\":522:523   */\n      dup1\n        /* \"#utility.yul\":515:527   */\n      revert\n        /* \"#utility.yul\":477:529   */\n    tag_198:\n        /* \"#utility.yul\":548:577   */\n      tag_163\n        /* \"#utility.yul\":567:576   */\n      dup3\n        /* \"#utility.yul\":548:577   */\n      tag_190\n      jump\t// in\n        /* \"#utility.yul\":1346:1600   */\n    tag_51:\n        /* \"#utility.yul\":1414:1420   */\n      0x00\n        /* \"#utility.yul\":1422:1428   */\n      dup1\n        /* \"#utility.yul\":1475:1477   */\n      0x40\n        /* \"#utility.yul\":1463:1472   */\n      dup4\n        /* \"#utility.yul\":1454:1461   */\n      dup6\n        /* \"#utility.yul\":1450:1473   */\n      sub\n        /* \"#utility.yul\":1446:1478   */\n      slt\n        /* \"#utility.yul\":1443:1495   */\n      iszero\n      tag_203\n      jumpi\n        /* \"#utility.yul\":1491:1492   */\n      0x00\n        /* \"#utility.yul\":1488:1489   */\n      dup1\n        /* \"#utility.yul\":1481:1493   */\n      revert\n        /* \"#utility.yul\":1443:1495   */\n    tag_203:\n        /* \"#utility.yul\":1514:1543   */\n      tag_204\n        /* \"#utility.yul\":1533:1542   */\n      dup4\n        /* \"#utility.yul\":1514:1543   */\n      tag_190\n      jump\t// in\n    tag_204:\n        /* \"#utility.yul\":1504:1543   */\n      swap5\n        /* \"#utility.yul\":1590:1592   */\n      0x20\n        /* \"#utility.yul\":1575:1593   */\n      swap4\n      swap1\n      swap4\n      add\n        /* \"#utility.yul\":1562:1594   */\n      calldataload\n      swap4\n      pop\n      pop\n      pop\n        /* \"#utility.yul\":1346:1600   */\n      jump\t// out\n        /* \"#utility.yul\":1966:2150   */\n    tag_191:\n      shl(0xe0, 0x4e487b71)\n        /* \"#utility.yul\":2015:2016   */\n      0x00\n        /* \"#utility.yul\":2008:2096   */\n      mstore\n        /* \"#utility.yul\":2115:2119   */\n      0x11\n        /* \"#utility.yul\":2112:2113   */\n      0x04\n        /* \"#utility.yul\":2105:2120   */\n      mstore\n        /* \"#utility.yul\":2139:2143   */\n      0x24\n        /* \"#utility.yul\":2136:2137   */\n      0x00\n        /* \"#utility.yul\":2129:2144   */\n      revert\n        /* \"#utility.yul\":2155:2280   */\n    tag_81:\n        /* \"#utility.yul\":2195:2199   */\n      0x00\n        /* \"#utility.yul\":2223:2224   */\n      dup3\n        /* \"#utility.yul\":2220:2221   */\n      dup3\n        /* \"#utility.yul\":2217:2225   */\n      lt\n        /* \"#utility.yul\":2214:2248   */\n      iszero\n      tag_209\n      jumpi\n        /* \"#utility.yul\":2228:2246   */\n      tag_209\n      tag_191\n      jump\t// in\n    tag_209:\n      pop\n        /* \"#utility.yul\":2265:2274   */\n      sub\n      swap1\n        /* \"#utility.yul\":2155:2280   */\n      jump\t// out\n        /* \"#utility.yul\":2285:2413   */\n    tag_83:\n        /* \"#utility.yul\":2325:2328   */\n      0x00\n        /* \"#utility.yul\":2356:2357   */\n      dup3\n        /* \"#utility.yul\":2352:2358   */\n      not\n        /* \"#utility.yul\":2349:2350   */\n      dup3\n        /* \"#utility.yul\":2346:2359   */\n      gt\n        /* \"#utility.yul\":2343:2382   */\n      iszero\n      tag_212\n      jumpi\n        /* \"#utility.yul\":2362:2380   */\n      tag_212\n      tag_191\n      jump\t// in\n    tag_212:\n      pop\n        /* \"#utility.yul\":2398:2407   */\n      add\n      swap1\n        /* \"#utility.yul\":2285:2413   */\n      jump\t// out\n        /* \"#utility.yul\":2825:3099   */\n    tag_129:\n        /* \"#utility.yul\":2865:2866   */\n      0x00\n        /* \"#utility.yul\":2891:2892   */\n      dup3\n        /* \"#utility.yul\":2881:3070   */\n      tag_215\n      jumpi\n      shl(0xe0, 0x4e487b71)\n        /* \"#utility.yul\":2923:2924   */\n      0x00\n        /* \"#utility.yul\":2916:3004   */\n      mstore\n        /* \"#utility.yul\":3027:3031   */\n      0x12\n        /* \"#utility.yul\":3024:3025   */\n      0x04\n        /* \"#utility.yul\":3017:3032   */\n      mstore\n        /* \"#utility.yul\":3055:3059   */\n      0x24\n        /* \"#utility.yul\":3052:3053   */\n      0x00\n        /* \"#utility.yul\":3045:3060   */\n      revert\n        /* \"#utility.yul\":2881:3070   */\n    tag_215:\n      pop\n        /* \"#utility.yul\":3084:3093   */\n      div\n      swap1\n        /* \"#utility.yul\":2825:3099   */\n      jump\t// out\n        /* \"#utility.yul\":3104:3272   */\n    tag_133:\n        /* \"#utility.yul\":3144:3151   */\n      0x00\n        /* \"#utility.yul\":3210:3211   */\n      dup2\n        /* \"#utility.yul\":3206:3207   */\n      0x00\n        /* \"#utility.yul\":3202:3208   */\n      not\n        /* \"#utility.yul\":3198:3212   */\n      div\n        /* \"#utility.yul\":3195:3196   */\n      dup4\n        /* \"#utility.yul\":3192:3213   */\n      gt\n        /* \"#utility.yul\":3187:3188   */\n      dup3\n        /* \"#utility.yul\":3180:3189   */\n      iszero\n        /* \"#utility.yul\":3173:3190   */\n      iszero\n        /* \"#utility.yul\":3169:3214   */\n      and\n        /* \"#utility.yul\":3166:3237   */\n      iszero\n      tag_218\n      jumpi\n        /* \"#utility.yul\":3217:3235   */\n      tag_218\n      tag_191\n      jump\t// in\n    tag_218:\n      pop\n        /* \"#utility.yul\":3257:3266   */\n      mul\n      swap1\n        /* \"#utility.yul\":3104:3272   */\n      jump\t// out\n        /* \"#utility.yul\":3579:3856   */\n    tag_159:\n        /* \"#utility.yul\":3646:3652   */\n      0x00\n        /* \"#utility.yul\":3699:3701   */\n      0x20\n        /* \"#utility.yul\":3687:3696   */\n      dup3\n        /* \"#utility.yul\":3678:3685   */\n      dup5\n        /* \"#utility.yul\":3674:3697   */\n      sub\n        /* \"#utility.yul\":3670:3702   */\n      slt\n        /* \"#utility.yul\":3667:3719   */\n      iszero\n      tag_221\n      jumpi\n        /* \"#utility.yul\":3715:3716   */\n      0x00\n        /* \"#utility.yul\":3712:3713   */\n      dup1\n        /* \"#utility.yul\":3705:3717   */\n      revert\n        /* \"#utility.yul\":3667:3719   */\n    tag_221:\n        /* \"#utility.yul\":3747:3756   */\n      dup2\n        /* \"#utility.yul\":3741:3757   */\n      mload\n        /* \"#utility.yul\":3800:3805   */\n      dup1\n        /* \"#utility.yul\":3793:3806   */\n      iszero\n        /* \"#utility.yul\":3786:3807   */\n      iszero\n        /* \"#utility.yul\":3779:3784   */\n      dup2\n        /* \"#utility.yul\":3776:3808   */\n      eq\n        /* \"#utility.yul\":3766:3826   */\n      tag_163\n      jumpi\n        /* \"#utility.yul\":3822:3823   */\n      0x00\n        /* \"#utility.yul\":3819:3820   */\n      dup1\n        /* \"#utility.yul\":3812:3824   */\n      revert\n        /* \"#utility.yul\":5037:5295   */\n    tag_192:\n        /* \"#utility.yul\":5109:5110   */\n      0x00\n        /* \"#utility.yul\":5119:5232   */\n    tag_227:\n        /* \"#utility.yul\":5133:5139   */\n      dup4\n        /* \"#utility.yul\":5130:5131   */\n      dup2\n        /* \"#utility.yul\":5127:5140   */\n      lt\n        /* \"#utility.yul\":5119:5232   */\n      iszero\n      tag_229\n      jumpi\n        /* \"#utility.yul\":5209:5220   */\n      dup2\n      dup2\n      add\n        /* \"#utility.yul\":5203:5221   */\n      mload\n        /* \"#utility.yul\":5190:5201   */\n      dup4\n      dup3\n      add\n        /* \"#utility.yul\":5183:5222   */\n      mstore\n        /* \"#utility.yul\":5155:5157   */\n      0x20\n        /* \"#utility.yul\":5148:5158   */\n      add\n        /* \"#utility.yul\":5119:5232   */\n      jump(tag_227)\n    tag_229:\n        /* \"#utility.yul\":5250:5256   */\n      dup4\n        /* \"#utility.yul\":5247:5248   */\n      dup2\n        /* \"#utility.yul\":5244:5257   */\n      gt\n        /* \"#utility.yul\":5241:5289   */\n      iszero\n      tag_230\n      jumpi\n        /* \"#utility.yul\":5285:5286   */\n      0x00\n        /* \"#utility.yul\":5276:5282   */\n      dup5\n        /* \"#utility.yul\":5271:5274   */\n      dup5\n        /* \"#utility.yul\":5267:5283   */\n      add\n        /* \"#utility.yul\":5260:5287   */\n      mstore\n        /* \"#utility.yul\":5241:5289   */\n    tag_230:\n      pop\n        /* \"#utility.yul\":5037:5295   */\n      pop\n      pop\n      pop\n      jump\t// out\n        /* \"#utility.yul\":5300:5574   */\n    tag_176:\n        /* \"#utility.yul\":5429:5432   */\n      0x00\n        /* \"#utility.yul\":5467:5473   */\n      dup3\n        /* \"#utility.yul\":5461:5474   */\n      mload\n        /* \"#utility.yul\":5483:5536   */\n      tag_232\n        /* \"#utility.yul\":5529:5535   */\n      dup2\n        /* \"#utility.yul\":5524:5527   */\n      dup5\n        /* \"#utility.yul\":5517:5521   */\n      0x20\n        /* \"#utility.yul\":5509:5515   */\n      dup8\n        /* \"#utility.yul\":5505:5522   */\n      add\n        /* \"#utility.yul\":5483:5536   */\n      tag_192\n      jump\t// in\n    tag_232:\n        /* \"#utility.yul\":5552:5568   */\n      swap2\n      swap1\n      swap2\n      add\n      swap3\n        /* \"#utility.yul\":5300:5574   */\n      swap2\n      pop\n      pop\n      jump\t// out\n        /* \"#utility.yul\":5579:5962   */\n    tag_189:\n        /* \"#utility.yul\":5728:5730   */\n      0x20\n        /* \"#utility.yul\":5717:5726   */\n      dup2\n        /* \"#utility.yul\":5710:5731   */\n      mstore\n        /* \"#utility.yul\":5691:5695   */\n      0x00\n        /* \"#utility.yul\":5760:5766   */\n      dup3\n        /* \"#utility.yul\":5754:5767   */\n      mload\n        /* \"#utility.yul\":5803:5809   */\n      dup1\n        /* \"#utility.yul\":5798:5800   */\n      0x20\n        /* \"#utility.yul\":5787:5796   */\n      dup5\n        /* \"#utility.yul\":5783:5801   */\n      add\n        /* \"#utility.yul\":5776:5810   */\n      mstore\n        /* \"#utility.yul\":5819:5885   */\n      tag_234\n        /* \"#utility.yul\":5878:5884   */\n      dup2\n        /* \"#utility.yul\":5873:5875   */\n      0x40\n        /* \"#utility.yul\":5862:5871   */\n      dup6\n        /* \"#utility.yul\":5858:5876   */\n      add\n        /* \"#utility.yul\":5853:5855   */\n      0x20\n        /* \"#utility.yul\":5845:5851   */\n      dup8\n        /* \"#utility.yul\":5841:5856   */\n      add\n        /* \"#utility.yul\":5819:5885   */\n      tag_192\n      jump\t// in\n    tag_234:\n        /* \"#utility.yul\":5946:5948   */\n      0x1f\n        /* \"#utility.yul\":5925:5940   */\n      add\n      not(0x1f)\n        /* \"#utility.yul\":5921:5950   */\n      and\n        /* \"#utility.yul\":5906:5951   */\n      swap2\n      swap1\n      swap2\n      add\n        /* \"#utility.yul\":5953:5955   */\n      0x40\n        /* \"#utility.yul\":5902:5956   */\n      add\n      swap3\n        /* \"#utility.yul\":5579:5962   */\n      swap2\n      pop\n      pop\n      jump\t// out\n\n    auxdata: 0xa2646970667358221220e1b1af0698f15dd6b67f282a146591aae0e58fd6aa9831aeae83c9e47736816364736f6c634300080b0033\n}\n",
				"bytecode": {
					"linkReferences": {},
					"object": "608060405234801561001057600080fd5b50604051610efd380380610efd83398101604081905261002f916100c4565b600160005561003d33610072565b6b04be37ea7317415c45800000600355600680546001600160a01b0319166001600160a01b03929092169190911790556100f4565b600180546001600160a01b038381166001600160a01b0319831681179093556040519116919082907f8be0079c531659141344cd1fd0a4f28419497f9722a3daafe3b4186f6b6457e090600090a35050565b6000602082840312156100d657600080fd5b81516001600160a01b03811681146100ed57600080fd5b9392505050565b610dfa806101036000396000f3fe608060405234801561001057600080fd5b50600436106100df5760003560e01c80638cdb7e8b1161008c578063d5498dc711610066578063d5498dc71461020c578063ecd0c0c314610214578063efdd879614610227578063f2fde38b1461022f57600080fd5b80638cdb7e8b146101265780638da5cb5b146101d457806396074e70146101f957600080fd5b80637d3bca76116100bd5780637d3bca761461011357806381008568146101265780638b2b423a146101cb57600080fd5b8063338dbf59146100e4578063549dee0b14610100578063715018a614610109575b600080fd5b6100ed60045481565b6040519081526020015b60405180910390f35b6100ed60025481565b610111610242565b005b6100ed610121366004610c58565b6102ad565b610197610134366004610c58565b6001600160a01b0316600081815260056020908152604091829020825160a08101845260018201549281018390526002820154938101849052600382015460ff161515606082018190526004909201546080820181905290859052939491939091565b604080516001600160a01b03909616865260208601949094529284019190915215156060830152608082015260a0016100f7565b6100ed60035481565b6001546001600160a01b03165b6040516001600160a01b0390911681526020016100f7565b610111610207366004610c73565b6103dc565b61011161053a565b6006546101e1906001600160a01b031681565b6101116105b5565b61011161023d366004610c58565b610615565b6001546001600160a01b031633146102a15760405162461bcd60e51b815260206004820181905260248201527f4f776e61626c653a2063616c6c6572206973206e6f7420746865206f776e657260448201526064015b60405180910390fd5b6102ab60006106f0565b565b6001546000906001600160a01b0316331461030a5760405162461bcd60e51b815260206004820181905260248201527f4f776e61626c653a2063616c6c6572206973206e6f7420746865206f776e65726044820152606401610298565b6001600160a01b038216600090815260056020526040902060020154156103d35760016002600082825461033e9190610cb3565b90915550506001600160a01b0382166000908152600560205260408120600201546003805491929091610372908490610cca565b9091555050506001600160a01b03166000908152600560205260408120600281018054825473ffffffffffffffffffffffffffffffffffffffff19168355600183018490559083905560038201805460ff1916905560049091019190915590565b5060005b919050565b6001546001600160a01b031633146104365760405162461bcd60e51b815260206004820181905260248201527f4f776e61626c653a2063616c6c6572206973206e6f7420746865206f776e65726044820152606401610298565b6001600160a01b03821660009081526005602052604090206001015415610489576040517fab1818da00000000000000000000000000000000000000000000000000000000815260040160405180910390fd5b6003548111156104c5576040517f194f40dc00000000000000000000000000000000000000000000000000000000815260040160405180910390fd5b8015610536576001600160a01b03821660009081526005602052604081206001808201849055600280830185905560038301805460ff1916905560049092018190558154909290610517908490610cca565b9250508190555080600360008282546105309190610cb3565b90915550505b5050565b33600090815260056020526040902060020154156102ab57600061055d3361074f565b905080156105b25733600090815260056020526040902060020154610583908290610cb3565b336000818152600560205260409020600201919091556006546105b2916001600160a01b03909116908361093d565b50565b6001546001600160a01b0316331461060f5760405162461bcd60e51b815260206004820181905260248201527f4f776e61626c653a2063616c6c6572206973206e6f7420746865206f776e65726044820152606401610298565b42600455565b6001546001600160a01b0316331461066f5760405162461bcd60e51b815260206004820181905260248201527f4f776e61626c653a2063616c6c6572206973206e6f7420746865206f776e65726044820152606401610298565b6001600160a01b0381166106eb5760405162461bcd60e51b815260206004820152602660248201527f4f776e61626c653a206e6577206f776e657220697320746865207a65726f206160448201527f64647265737300000000000000000000000000000000000000000000000000006064820152608401610298565b6105b2815b600180546001600160a01b0383811673ffffffffffffffffffffffffffffffffffffffff19831681179093556040519116919082907f8be0079c531659141344cd1fd0a4f28419497f9722a3daafe3b4186f6b6457e090600090a35050565b600080600062015180600454426107669190610cb3565b6107709190610ce2565b90506101e0811015610808576001600160a01b03841660009081526005602052604090206003015460ff16610803576001600160a01b03841660009081526005602052604090206003808201805460ff191660019081179091556101c2600484015590549101546107ec906a3cb5feec27901169e00000610d04565b6107f69190610ce2565b6108009083610cca565b91505b610936565b6101e0811015801561081b575061034881105b1561092c576001600160a01b03841660009081526005602052604090206003015460ff1661089f576001600160a01b03841660009081526005602052604090206003808201805460ff191660019081179091559054910154610888906a3cb5feec27901169e00000610d04565b6108929190610ce2565b61089c9083610cca565b91505b6001600160a01b0384166000908152600560205260408120600401546108c59083610cb3565b6001600160a01b03861660009081526005602052604090206004810184905560035460019091015491925090610906906a03290914be1afb75080000610d04565b6109109190610ce2565b61091a9084610cca565b6109249082610d04565b925050610936565b5060009392505050565b5092915050565b604080516001600160a01b038416602482015260448082018490528251808303909101815260649091019091526020810180517bffffffffffffffffffffffffffffffffffffffffffffffffffffffff167fa9059cbb000000000000000000000000000000000000000000000000000000001790526109bd9084906109c2565b505050565b6000610a17826040518060400160405280602081526020017f5361666545524332303a206c6f772d6c6576656c2063616c6c206661696c6564815250856001600160a01b0316610aa79092919063ffffffff16565b8051909150156109bd5780806020019051810190610a359190610d23565b6109bd5760405162461bcd60e51b815260206004820152602a60248201527f5361666545524332303a204552433230206f7065726174696f6e20646964206e60448201527f6f742073756363656564000000000000000000000000000000000000000000006064820152608401610298565b6060610ab68484600085610ac0565b90505b9392505050565b606082471015610b385760405162461bcd60e51b815260206004820152602660248201527f416464726573733a20696e73756666696369656e742062616c616e636520666f60448201527f722063616c6c00000000000000000000000000000000000000000000000000006064820152608401610298565b6001600160a01b0385163b610b8f5760405162461bcd60e51b815260206004820152601d60248201527f416464726573733a2063616c6c20746f206e6f6e2d636f6e74726163740000006044820152606401610298565b600080866001600160a01b03168587604051610bab9190610d75565b60006040518083038185875af1925050503d8060008114610be8576040519150601f19603f3d011682016040523d82523d6000602084013e610bed565b606091505b5091509150610bfd828286610c08565b979650505050505050565b60608315610c17575081610ab9565b825115610c275782518084602001fd5b8160405162461bcd60e51b81526004016102989190610d91565b80356001600160a01b03811681146103d757600080fd5b600060208284031215610c6a57600080fd5b610ab982610c41565b60008060408385031215610c8657600080fd5b610c8f83610c41565b946020939093013593505050565b634e487b7160e01b600052601160045260246000fd5b600082821015610cc557610cc5610c9d565b500390565b60008219821115610cdd57610cdd610c9d565b500190565b600082610cff57634e487b7160e01b600052601260045260246000fd5b500490565b6000816000190483118215151615610d1e57610d1e610c9d565b500290565b600060208284031215610d3557600080fd5b81518015158114610ab957600080fd5b60005b83811015610d60578181015183820152602001610d48565b83811115610d6f576000848401525b50505050565b60008251610d87818460208701610d45565b9190910192915050565b6020815260008251806020840152610db0816040850160208701610d45565b601f01601f1916919091016040019291505056fea2646970667358221220e1b1af0698f15dd6b67f282a146591aae0e58fd6aa9831aeae83c9e47736816364736f6c634300080b0033",
					"opcodes": "PUSH1 0x80 PUSH1 0x40 MSTORE CALLVALUE DUP1 ISZERO PUSH2 0x10 JUMPI PUSH1 0x0 DUP1 REVERT JUMPDEST POP PUSH1 0x40 MLOAD PUSH2 0xEFD CODESIZE SUB DUP1 PUSH2 0xEFD DUP4 CODECOPY DUP2 ADD PUSH1 0x40 DUP2 SWAP1 MSTORE PUSH2 0x2F SWAP2 PUSH2 0xC4 JUMP JUMPDEST PUSH1 0x1 PUSH1 0x0 SSTORE PUSH2 0x3D CALLER PUSH2 0x72 JUMP JUMPDEST PUSH12 0x4BE37EA7317415C45800000 PUSH1 0x3 SSTORE PUSH1 0x6 DUP1 SLOAD PUSH1 0x1 PUSH1 0x1 PUSH1 0xA0 SHL SUB NOT AND PUSH1 0x1 PUSH1 0x1 PUSH1 0xA0 SHL SUB SWAP3 SWAP1 SWAP3 AND SWAP2 SWAP1 SWAP2 OR SWAP1 SSTORE PUSH2 0xF4 JUMP JUMPDEST PUSH1 0x1 DUP1 SLOAD PUSH1 0x1 PUSH1 0x1 PUSH1 0xA0 SHL SUB DUP4 DUP2 AND PUSH1 0x1 PUSH1 0x1 PUSH1 0xA0 SHL SUB NOT DUP4 AND DUP2 OR SWAP1 SWAP4 SSTORE PUSH1 0x40 MLOAD SWAP2 AND SWAP2 SWAP1 DUP3 SWAP1 PUSH32 0x8BE0079C531659141344CD1FD0A4F28419497F9722A3DAAFE3B4186F6B6457E0 SWAP1 PUSH1 0x0 SWAP1 LOG3 POP POP JUMP JUMPDEST PUSH1 0x0 PUSH1 0x20 DUP3 DUP5 SUB SLT ISZERO PUSH2 0xD6 JUMPI PUSH1 0x0 DUP1 REVERT JUMPDEST DUP2 MLOAD PUSH1 0x1 PUSH1 0x1 PUSH1 0xA0 SHL SUB DUP2 AND DUP2 EQ PUSH2 0xED JUMPI PUSH1 0x0 DUP1 REVERT JUMPDEST SWAP4 SWAP3 POP POP POP JUMP JUMPDEST PUSH2 0xDFA DUP1 PUSH2 0x103 PUSH1 0x0 CODECOPY PUSH1 0x0 RETURN INVALID PUSH1 0x80 PUSH1 0x40 MSTORE CALLVALUE DUP1 ISZERO PUSH2 0x10 JUMPI PUSH1 0x0 DUP1 REVERT JUMPDEST POP PUSH1 0x4 CALLDATASIZE LT PUSH2 0xDF JUMPI PUSH1 0x0 CALLDATALOAD PUSH1 0xE0 SHR DUP1 PUSH4 0x8CDB7E8B GT PUSH2 0x8C JUMPI DUP1 PUSH4 0xD5498DC7 GT PUSH2 0x66 JUMPI DUP1 PUSH4 0xD5498DC7 EQ PUSH2 0x20C JUMPI DUP1 PUSH4 0xECD0C0C3 EQ PUSH2 0x214 JUMPI DUP1 PUSH4 0xEFDD8796 EQ PUSH2 0x227 JUMPI DUP1 PUSH4 0xF2FDE38B EQ PUSH2 0x22F JUMPI PUSH1 0x0 DUP1 REVERT JUMPDEST DUP1 PUSH4 0x8CDB7E8B EQ PUSH2 0x126 JUMPI DUP1 PUSH4 0x8DA5CB5B EQ PUSH2 0x1D4 JUMPI DUP1 PUSH4 0x96074E70 EQ PUSH2 0x1F9 JUMPI PUSH1 0x0 DUP1 REVERT JUMPDEST DUP1 PUSH4 0x7D3BCA76 GT PUSH2 0xBD JUMPI DUP1 PUSH4 0x7D3BCA76 EQ PUSH2 0x113 JUMPI DUP1 PUSH4 0x81008568 EQ PUSH2 0x126 JUMPI DUP1 PUSH4 0x8B2B423A EQ PUSH2 0x1CB JUMPI PUSH1 0x0 DUP1 REVERT JUMPDEST DUP1 PUSH4 0x338DBF59 EQ PUSH2 0xE4 JUMPI DUP1 PUSH4 0x549DEE0B EQ PUSH2 0x100 JUMPI DUP1 PUSH4 0x715018A6 EQ PUSH2 0x109 JUMPI JUMPDEST PUSH1 0x0 DUP1 REVERT JUMPDEST PUSH2 0xED PUSH1 0x4 SLOAD DUP2 JUMP JUMPDEST PUSH1 0x40 MLOAD SWAP1 DUP2 MSTORE PUSH1 0x20 ADD JUMPDEST PUSH1 0x40 MLOAD DUP1 SWAP2 SUB SWAP1 RETURN JUMPDEST PUSH2 0xED PUSH1 0x2 SLOAD DUP2 JUMP JUMPDEST PUSH2 0x111 PUSH2 0x242 JUMP JUMPDEST STOP JUMPDEST PUSH2 0xED PUSH2 0x121 CALLDATASIZE PUSH1 0x4 PUSH2 0xC58 JUMP JUMPDEST PUSH2 0x2AD JUMP JUMPDEST PUSH2 0x197 PUSH2 0x134 CALLDATASIZE PUSH1 0x4 PUSH2 0xC58 JUMP JUMPDEST PUSH1 0x1 PUSH1 0x1 PUSH1 0xA0 SHL SUB AND PUSH1 0x0 DUP2 DUP2 MSTORE PUSH1 0x5 PUSH1 0x20 SWAP1 DUP2 MSTORE PUSH1 0x40 SWAP2 DUP3 SWAP1 KECCAK256 DUP3 MLOAD PUSH1 0xA0 DUP2 ADD DUP5 MSTORE PUSH1 0x1 DUP3 ADD SLOAD SWAP3 DUP2 ADD DUP4 SWAP1 MSTORE PUSH1 0x2 DUP3 ADD SLOAD SWAP4 DUP2 ADD DUP5 SWAP1 MSTORE PUSH1 0x3 DUP3 ADD SLOAD PUSH1 0xFF AND ISZERO ISZERO PUSH1 0x60 DUP3 ADD DUP2 SWAP1 MSTORE PUSH1 0x4 SWAP1 SWAP3 ADD SLOAD PUSH1 0x80 DUP3 ADD DUP2 SWAP1 MSTORE SWAP1 DUP6 SWAP1 MSTORE SWAP4 SWAP5 SWAP2 SWAP4 SWAP1 SWAP2 JUMP JUMPDEST PUSH1 0x40 DUP1 MLOAD PUSH1 0x1 PUSH1 0x1 PUSH1 0xA0 SHL SUB SWAP1 SWAP7 AND DUP7 MSTORE PUSH1 0x20 DUP7 ADD SWAP5 SWAP1 SWAP5 MSTORE SWAP3 DUP5 ADD SWAP2 SWAP1 SWAP2 MSTORE ISZERO ISZERO PUSH1 0x60 DUP4 ADD MSTORE PUSH1 0x80 DUP3 ADD MSTORE PUSH1 0xA0 ADD PUSH2 0xF7 JUMP JUMPDEST PUSH2 0xED PUSH1 0x3 SLOAD DUP2 JUMP JUMPDEST PUSH1 0x1 SLOAD PUSH1 0x1 PUSH1 0x1 PUSH1 0xA0 SHL SUB AND JUMPDEST PUSH1 0x40 MLOAD PUSH1 0x1 PUSH1 0x1 PUSH1 0xA0 SHL SUB SWAP1 SWAP2 AND DUP2 MSTORE PUSH1 0x20 ADD PUSH2 0xF7 JUMP JUMPDEST PUSH2 0x111 PUSH2 0x207 CALLDATASIZE PUSH1 0x4 PUSH2 0xC73 JUMP JUMPDEST PUSH2 0x3DC JUMP JUMPDEST PUSH2 0x111 PUSH2 0x53A JUMP JUMPDEST PUSH1 0x6 SLOAD PUSH2 0x1E1 SWAP1 PUSH1 0x1 PUSH1 0x1 PUSH1 0xA0 SHL SUB AND DUP2 JUMP JUMPDEST PUSH2 0x111 PUSH2 0x5B5 JUMP JUMPDEST PUSH2 0x111 PUSH2 0x23D CALLDATASIZE PUSH1 0x4 PUSH2 0xC58 JUMP JUMPDEST PUSH2 0x615 JUMP JUMPDEST PUSH1 0x1 SLOAD PUSH1 0x1 PUSH1 0x1 PUSH1 0xA0 SHL SUB AND CALLER EQ PUSH2 0x2A1 JUMPI PUSH1 0x40 MLOAD PUSH3 0x461BCD PUSH1 0xE5 SHL DUP2 MSTORE PUSH1 0x20 PUSH1 0x4 DUP3 ADD DUP2 SWAP1 MSTORE PUSH1 0x24 DUP3 ADD MSTORE PUSH32 0x4F776E61626C653A2063616C6C6572206973206E6F7420746865206F776E6572 PUSH1 0x44 DUP3 ADD MSTORE PUSH1 0x64 ADD JUMPDEST PUSH1 0x40 MLOAD DUP1 SWAP2 SUB SWAP1 REVERT JUMPDEST PUSH2 0x2AB PUSH1 0x0 PUSH2 0x6F0 JUMP JUMPDEST JUMP JUMPDEST PUSH1 0x1 SLOAD PUSH1 0x0 SWAP1 PUSH1 0x1 PUSH1 0x1 PUSH1 0xA0 SHL SUB AND CALLER EQ PUSH2 0x30A JUMPI PUSH1 0x40 MLOAD PUSH3 0x461BCD PUSH1 0xE5 SHL DUP2 MSTORE PUSH1 0x20 PUSH1 0x4 DUP3 ADD DUP2 SWAP1 MSTORE PUSH1 0x24 DUP3 ADD MSTORE PUSH32 0x4F776E61626C653A2063616C6C6572206973206E6F7420746865206F776E6572 PUSH1 0x44 DUP3 ADD MSTORE PUSH1 0x64 ADD PUSH2 0x298 JUMP JUMPDEST PUSH1 0x1 PUSH1 0x1 PUSH1 0xA0 SHL SUB DUP3 AND PUSH1 0x0 SWAP1 DUP2 MSTORE PUSH1 0x5 PUSH1 0x20 MSTORE PUSH1 0x40 SWAP1 KECCAK256 PUSH1 0x2 ADD SLOAD ISZERO PUSH2 0x3D3 JUMPI PUSH1 0x1 PUSH1 0x2 PUSH1 0x0 DUP3 DUP3 SLOAD PUSH2 0x33E SWAP2 SWAP1 PUSH2 0xCB3 JUMP JUMPDEST SWAP1 SWAP2 SSTORE POP POP PUSH1 0x1 PUSH1 0x1 PUSH1 0xA0 SHL SUB DUP3 AND PUSH1 0x0 SWAP1 DUP2 MSTORE PUSH1 0x5 PUSH1 0x20 MSTORE PUSH1 0x40 DUP2 KECCAK256 PUSH1 0x2 ADD SLOAD PUSH1 0x3 DUP1 SLOAD SWAP2 SWAP3 SWAP1 SWAP2 PUSH2 0x372 SWAP1 DUP5 SWAP1 PUSH2 0xCCA JUMP JUMPDEST SWAP1 SWAP2 SSTORE POP POP POP PUSH1 0x1 PUSH1 0x1 PUSH1 0xA0 SHL SUB AND PUSH1 0x0 SWAP1 DUP2 MSTORE PUSH1 0x5 PUSH1 0x20 MSTORE PUSH1 0x40 DUP2 KECCAK256 PUSH1 0x2 DUP2 ADD DUP1 SLOAD DUP3 SLOAD PUSH20 0xFFFFFFFFFFFFFFFFFFFFFFFFFFFFFFFFFFFFFFFF NOT AND DUP4 SSTORE PUSH1 0x1 DUP4 ADD DUP5 SWAP1 SSTORE SWAP1 DUP4 SWAP1 SSTORE PUSH1 0x3 DUP3 ADD DUP1 SLOAD PUSH1 0xFF NOT AND SWAP1 SSTORE PUSH1 0x4 SWAP1 SWAP2 ADD SWAP2 SWAP1 SWAP2 SSTORE SWAP1 JUMP JUMPDEST POP PUSH1 0x0 JUMPDEST SWAP2 SWAP1 POP JUMP JUMPDEST PUSH1 0x1 SLOAD PUSH1 0x1 PUSH1 0x1 PUSH1 0xA0 SHL SUB AND CALLER EQ PUSH2 0x436 JUMPI PUSH1 0x40 MLOAD PUSH3 0x461BCD PUSH1 0xE5 SHL DUP2 MSTORE PUSH1 0x20 PUSH1 0x4 DUP3 ADD DUP2 SWAP1 MSTORE PUSH1 0x24 DUP3 ADD MSTORE PUSH32 0x4F776E61626C653A2063616C6C6572206973206E6F7420746865206F776E6572 PUSH1 0x44 DUP3 ADD MSTORE PUSH1 0x64 ADD PUSH2 0x298 JUMP JUMPDEST PUSH1 0x1 PUSH1 0x1 PUSH1 0xA0 SHL SUB DUP3 AND PUSH1 0x0 SWAP1 DUP2 MSTORE PUSH1 0x5 PUSH1 0x20 MSTORE PUSH1 0x40 SWAP1 KECCAK256 PUSH1 0x1 ADD SLOAD ISZERO PUSH2 0x489 JUMPI PUSH1 0x40 MLOAD PUSH32 0xAB1818DA00000000000000000000000000000000000000000000000000000000 DUP2 MSTORE PUSH1 0x4 ADD PUSH1 0x40 MLOAD DUP1 SWAP2 SUB SWAP1 REVERT JUMPDEST PUSH1 0x3 SLOAD DUP2 GT ISZERO PUSH2 0x4C5 JUMPI PUSH1 0x40 MLOAD PUSH32 0x194F40DC00000000000000000000000000000000000000000000000000000000 DUP2 MSTORE PUSH1 0x4 ADD PUSH1 0x40 MLOAD DUP1 SWAP2 SUB SWAP1 REVERT JUMPDEST DUP1 ISZERO PUSH2 0x536 JUMPI PUSH1 0x1 PUSH1 0x1 PUSH1 0xA0 SHL SUB DUP3 AND PUSH1 0x0 SWAP1 DUP2 MSTORE PUSH1 0x5 PUSH1 0x20 MSTORE PUSH1 0x40 DUP2 KECCAK256 PUSH1 0x1 DUP1 DUP3 ADD DUP5 SWAP1 SSTORE PUSH1 0x2 DUP1 DUP4 ADD DUP6 SWAP1 SSTORE PUSH1 0x3 DUP4 ADD DUP1 SLOAD PUSH1 0xFF NOT AND SWAP1 SSTORE PUSH1 0x4 SWAP1 SWAP3 ADD DUP2 SWAP1 SSTORE DUP2 SLOAD SWAP1 SWAP3 SWAP1 PUSH2 0x517 SWAP1 DUP5 SWAP1 PUSH2 0xCCA JUMP JUMPDEST SWAP3 POP POP DUP2 SWAP1 SSTORE POP DUP1 PUSH1 0x3 PUSH1 0x0 DUP3 DUP3 SLOAD PUSH2 0x530 SWAP2 SWAP1 PUSH2 0xCB3 JUMP JUMPDEST SWAP1 SWAP2 SSTORE POP POP JUMPDEST POP POP JUMP JUMPDEST CALLER PUSH1 0x0 SWAP1 DUP2 MSTORE PUSH1 0x5 PUSH1 0x20 MSTORE PUSH1 0x40 SWAP1 KECCAK256 PUSH1 0x2 ADD SLOAD ISZERO PUSH2 0x2AB JUMPI PUSH1 0x0 PUSH2 0x55D CALLER PUSH2 0x74F JUMP JUMPDEST SWAP1 POP DUP1 ISZERO PUSH2 0x5B2 JUMPI CALLER PUSH1 0x0 SWAP1 DUP2 MSTORE PUSH1 0x5 PUSH1 0x20 MSTORE PUSH1 0x40 SWAP1 KECCAK256 PUSH1 0x2 ADD SLOAD PUSH2 0x583 SWAP1 DUP3 SWAP1 PUSH2 0xCB3 JUMP JUMPDEST CALLER PUSH1 0x0 DUP2 DUP2 MSTORE PUSH1 0x5 PUSH1 0x20 MSTORE PUSH1 0x40 SWAP1 KECCAK256 PUSH1 0x2 ADD SWAP2 SWAP1 SWAP2 SSTORE PUSH1 0x6 SLOAD PUSH2 0x5B2 SWAP2 PUSH1 0x1 PUSH1 0x1 PUSH1 0xA0 SHL SUB SWAP1 SWAP2 AND SWAP1 DUP4 PUSH2 0x93D JUMP JUMPDEST POP JUMP JUMPDEST PUSH1 0x1 SLOAD PUSH1 0x1 PUSH1 0x1 PUSH1 0xA0 SHL SUB AND CALLER EQ PUSH2 0x60F JUMPI PUSH1 0x40 MLOAD PUSH3 0x461BCD PUSH1 0xE5 SHL DUP2 MSTORE PUSH1 0x20 PUSH1 0x4 DUP3 ADD DUP2 SWAP1 MSTORE PUSH1 0x24 DUP3 ADD MSTORE PUSH32 0x4F776E61626C653A2063616C6C6572206973206E6F7420746865206F776E6572 PUSH1 0x44 DUP3 ADD MSTORE PUSH1 0x64 ADD PUSH2 0x298 JUMP JUMPDEST TIMESTAMP PUSH1 0x4 SSTORE JUMP JUMPDEST PUSH1 0x1 SLOAD PUSH1 0x1 PUSH1 0x1 PUSH1 0xA0 SHL SUB AND CALLER EQ PUSH2 0x66F JUMPI PUSH1 0x40 MLOAD PUSH3 0x461BCD PUSH1 0xE5 SHL DUP2 MSTORE PUSH1 0x20 PUSH1 0x4 DUP3 ADD DUP2 SWAP1 MSTORE PUSH1 0x24 DUP3 ADD MSTORE PUSH32 0x4F776E61626C653A2063616C6C6572206973206E6F7420746865206F776E6572 PUSH1 0x44 DUP3 ADD MSTORE PUSH1 0x64 ADD PUSH2 0x298 JUMP JUMPDEST PUSH1 0x1 PUSH1 0x1 PUSH1 0xA0 SHL SUB DUP2 AND PUSH2 0x6EB JUMPI PUSH1 0x40 MLOAD PUSH3 0x461BCD PUSH1 0xE5 SHL DUP2 MSTORE PUSH1 0x20 PUSH1 0x4 DUP3 ADD MSTORE PUSH1 0x26 PUSH1 0x24 DUP3 ADD MSTORE PUSH32 0x4F776E61626C653A206E6577206F776E657220697320746865207A65726F2061 PUSH1 0x44 DUP3 ADD MSTORE PUSH32 0x6464726573730000000000000000000000000000000000000000000000000000 PUSH1 0x64 DUP3 ADD MSTORE PUSH1 0x84 ADD PUSH2 0x298 JUMP JUMPDEST PUSH2 0x5B2 DUP2 JUMPDEST PUSH1 0x1 DUP1 SLOAD PUSH1 0x1 PUSH1 0x1 PUSH1 0xA0 SHL SUB DUP4 DUP2 AND PUSH20 0xFFFFFFFFFFFFFFFFFFFFFFFFFFFFFFFFFFFFFFFF NOT DUP4 AND DUP2 OR SWAP1 SWAP4 SSTORE PUSH1 0x40 MLOAD SWAP2 AND SWAP2 SWAP1 DUP3 SWAP1 PUSH32 0x8BE0079C531659141344CD1FD0A4F28419497F9722A3DAAFE3B4186F6B6457E0 SWAP1 PUSH1 0x0 SWAP1 LOG3 POP POP JUMP JUMPDEST PUSH1 0x0 DUP1 PUSH1 0x0 PUSH3 0x15180 PUSH1 0x4 SLOAD TIMESTAMP PUSH2 0x766 SWAP2 SWAP1 PUSH2 0xCB3 JUMP JUMPDEST PUSH2 0x770 SWAP2 SWAP1 PUSH2 0xCE2 JUMP JUMPDEST SWAP1 POP PUSH2 0x1E0 DUP2 LT ISZERO PUSH2 0x808 JUMPI PUSH1 0x1 PUSH1 0x1 PUSH1 0xA0 SHL SUB DUP5 AND PUSH1 0x0 SWAP1 DUP2 MSTORE PUSH1 0x5 PUSH1 0x20 MSTORE PUSH1 0x40 SWAP1 KECCAK256 PUSH1 0x3 ADD SLOAD PUSH1 0xFF AND PUSH2 0x803 JUMPI PUSH1 0x1 PUSH1 0x1 PUSH1 0xA0 SHL SUB DUP5 AND PUSH1 0x0 SWAP1 DUP2 MSTORE PUSH1 0x5 PUSH1 0x20 MSTORE PUSH1 0x40 SWAP1 KECCAK256 PUSH1 0x3 DUP1 DUP3 ADD DUP1 SLOAD PUSH1 0xFF NOT AND PUSH1 0x1 SWAP1 DUP2 OR SWAP1 SWAP2 SSTORE PUSH2 0x1C2 PUSH1 0x4 DUP5 ADD SSTORE SWAP1 SLOAD SWAP2 ADD SLOAD PUSH2 0x7EC SWAP1 PUSH11 0x3CB5FEEC27901169E00000 PUSH2 0xD04 JUMP JUMPDEST PUSH2 0x7F6 SWAP2 SWAP1 PUSH2 0xCE2 JUMP JUMPDEST PUSH2 0x800 SWAP1 DUP4 PUSH2 0xCCA JUMP JUMPDEST SWAP2 POP JUMPDEST PUSH2 0x936 JUMP JUMPDEST PUSH2 0x1E0 DUP2 LT ISZERO DUP1 ISZERO PUSH2 0x81B JUMPI POP PUSH2 0x348 DUP2 LT JUMPDEST ISZERO PUSH2 0x92C JUMPI PUSH1 0x1 PUSH1 0x1 PUSH1 0xA0 SHL SUB DUP5 AND PUSH1 0x0 SWAP1 DUP2 MSTORE PUSH1 0x5 PUSH1 0x20 MSTORE PUSH1 0x40 SWAP1 KECCAK256 PUSH1 0x3 ADD SLOAD PUSH1 0xFF AND PUSH2 0x89F JUMPI PUSH1 0x1 PUSH1 0x1 PUSH1 0xA0 SHL SUB DUP5 AND PUSH1 0x0 SWAP1 DUP2 MSTORE PUSH1 0x5 PUSH1 0x20 MSTORE PUSH1 0x40 SWAP1 KECCAK256 PUSH1 0x3 DUP1 DUP3 ADD DUP1 SLOAD PUSH1 0xFF NOT AND PUSH1 0x1 SWAP1 DUP2 OR SWAP1 SWAP2 SSTORE SWAP1 SLOAD SWAP2 ADD SLOAD PUSH2 0x888 SWAP1 PUSH11 0x3CB5FEEC27901169E00000 PUSH2 0xD04 JUMP JUMPDEST PUSH2 0x892 SWAP2 SWAP1 PUSH2 0xCE2 JUMP JUMPDEST PUSH2 0x89C SWAP1 DUP4 PUSH2 0xCCA JUMP JUMPDEST SWAP2 POP JUMPDEST PUSH1 0x1 PUSH1 0x1 PUSH1 0xA0 SHL SUB DUP5 AND PUSH1 0x0 SWAP1 DUP2 MSTORE PUSH1 0x5 PUSH1 0x20 MSTORE PUSH1 0x40 DUP2 KECCAK256 PUSH1 0x4 ADD SLOAD PUSH2 0x8C5 SWAP1 DUP4 PUSH2 0xCB3 JUMP JUMPDEST PUSH1 0x1 PUSH1 0x1 PUSH1 0xA0 SHL SUB DUP7 AND PUSH1 0x0 SWAP1 DUP2 MSTORE PUSH1 0x5 PUSH1 0x20 MSTORE PUSH1 0x40 SWAP1 KECCAK256 PUSH1 0x4 DUP2 ADD DUP5 SWAP1 SSTORE PUSH1 0x3 SLOAD PUSH1 0x1 SWAP1 SWAP2 ADD SLOAD SWAP2 SWAP3 POP SWAP1 PUSH2 0x906 SWAP1 PUSH11 0x3290914BE1AFB75080000 PUSH2 0xD04 JUMP JUMPDEST PUSH2 0x910 SWAP2 SWAP1 PUSH2 0xCE2 JUMP JUMPDEST PUSH2 0x91A SWAP1 DUP5 PUSH2 0xCCA JUMP JUMPDEST PUSH2 0x924 SWAP1 DUP3 PUSH2 0xD04 JUMP JUMPDEST SWAP3 POP POP PUSH2 0x936 JUMP JUMPDEST POP PUSH1 0x0 SWAP4 SWAP3 POP POP POP JUMP JUMPDEST POP SWAP3 SWAP2 POP POP JUMP JUMPDEST PUSH1 0x40 DUP1 MLOAD PUSH1 0x1 PUSH1 0x1 PUSH1 0xA0 SHL SUB DUP5 AND PUSH1 0x24 DUP3 ADD MSTORE PUSH1 0x44 DUP1 DUP3 ADD DUP5 SWAP1 MSTORE DUP3 MLOAD DUP1 DUP4 SUB SWAP1 SWAP2 ADD DUP2 MSTORE PUSH1 0x64 SWAP1 SWAP2 ADD SWAP1 SWAP2 MSTORE PUSH1 0x20 DUP2 ADD DUP1 MLOAD PUSH28 0xFFFFFFFFFFFFFFFFFFFFFFFFFFFFFFFFFFFFFFFFFFFFFFFFFFFFFFFF AND PUSH32 0xA9059CBB00000000000000000000000000000000000000000000000000000000 OR SWAP1 MSTORE PUSH2 0x9BD SWAP1 DUP5 SWAP1 PUSH2 0x9C2 JUMP JUMPDEST POP POP POP JUMP JUMPDEST PUSH1 0x0 PUSH2 0xA17 DUP3 PUSH1 0x40 MLOAD DUP1 PUSH1 0x40 ADD PUSH1 0x40 MSTORE DUP1 PUSH1 0x20 DUP2 MSTORE PUSH1 0x20 ADD PUSH32 0x5361666545524332303A206C6F772D6C6576656C2063616C6C206661696C6564 DUP2 MSTORE POP DUP6 PUSH1 0x1 PUSH1 0x1 PUSH1 0xA0 SHL SUB AND PUSH2 0xAA7 SWAP1 SWAP3 SWAP2 SWAP1 PUSH4 0xFFFFFFFF AND JUMP JUMPDEST DUP1 MLOAD SWAP1 SWAP2 POP ISZERO PUSH2 0x9BD JUMPI DUP1 DUP1 PUSH1 0x20 ADD SWAP1 MLOAD DUP2 ADD SWAP1 PUSH2 0xA35 SWAP2 SWAP1 PUSH2 0xD23 JUMP JUMPDEST PUSH2 0x9BD JUMPI PUSH1 0x40 MLOAD PUSH3 0x461BCD PUSH1 0xE5 SHL DUP2 MSTORE PUSH1 0x20 PUSH1 0x4 DUP3 ADD MSTORE PUSH1 0x2A PUSH1 0x24 DUP3 ADD MSTORE PUSH32 0x5361666545524332303A204552433230206F7065726174696F6E20646964206E PUSH1 0x44 DUP3 ADD MSTORE PUSH32 0x6F74207375636365656400000000000000000000000000000000000000000000 PUSH1 0x64 DUP3 ADD MSTORE PUSH1 0x84 ADD PUSH2 0x298 JUMP JUMPDEST PUSH1 0x60 PUSH2 0xAB6 DUP5 DUP5 PUSH1 0x0 DUP6 PUSH2 0xAC0 JUMP JUMPDEST SWAP1 POP JUMPDEST SWAP4 SWAP3 POP POP POP JUMP JUMPDEST PUSH1 0x60 DUP3 SELFBALANCE LT ISZERO PUSH2 0xB38 JUMPI PUSH1 0x40 MLOAD PUSH3 0x461BCD PUSH1 0xE5 SHL DUP2 MSTORE PUSH1 0x20 PUSH1 0x4 DUP3 ADD MSTORE PUSH1 0x26 PUSH1 0x24 DUP3 ADD MSTORE PUSH32 0x416464726573733A20696E73756666696369656E742062616C616E636520666F PUSH1 0x44 DUP3 ADD MSTORE PUSH32 0x722063616C6C0000000000000000000000000000000000000000000000000000 PUSH1 0x64 DUP3 ADD MSTORE PUSH1 0x84 ADD PUSH2 0x298 JUMP JUMPDEST PUSH1 0x1 PUSH1 0x1 PUSH1 0xA0 SHL SUB DUP6 AND EXTCODESIZE PUSH2 0xB8F JUMPI PUSH1 0x40 MLOAD PUSH3 0x461BCD PUSH1 0xE5 SHL DUP2 MSTORE PUSH1 0x20 PUSH1 0x4 DUP3 ADD MSTORE PUSH1 0x1D PUSH1 0x24 DUP3 ADD MSTORE PUSH32 0x416464726573733A2063616C6C20746F206E6F6E2D636F6E7472616374000000 PUSH1 0x44 DUP3 ADD MSTORE PUSH1 0x64 ADD PUSH2 0x298 JUMP JUMPDEST PUSH1 0x0 DUP1 DUP7 PUSH1 0x1 PUSH1 0x1 PUSH1 0xA0 SHL SUB AND DUP6 DUP8 PUSH1 0x40 MLOAD PUSH2 0xBAB SWAP2 SWAP1 PUSH2 0xD75 JUMP JUMPDEST PUSH1 0x0 PUSH1 0x40 MLOAD DUP1 DUP4 SUB DUP2 DUP6 DUP8 GAS CALL SWAP3 POP POP POP RETURNDATASIZE DUP1 PUSH1 0x0 DUP2 EQ PUSH2 0xBE8 JUMPI PUSH1 0x40 MLOAD SWAP2 POP PUSH1 0x1F NOT PUSH1 0x3F RETURNDATASIZE ADD AND DUP3 ADD PUSH1 0x40 MSTORE RETURNDATASIZE DUP3 MSTORE RETURNDATASIZE PUSH1 0x0 PUSH1 0x20 DUP5 ADD RETURNDATACOPY PUSH2 0xBED JUMP JUMPDEST PUSH1 0x60 SWAP2 POP JUMPDEST POP SWAP2 POP SWAP2 POP PUSH2 0xBFD DUP3 DUP3 DUP7 PUSH2 0xC08 JUMP JUMPDEST SWAP8 SWAP7 POP POP POP POP POP POP POP JUMP JUMPDEST PUSH1 0x60 DUP4 ISZERO PUSH2 0xC17 JUMPI POP DUP2 PUSH2 0xAB9 JUMP JUMPDEST DUP3 MLOAD ISZERO PUSH2 0xC27 JUMPI DUP3 MLOAD DUP1 DUP5 PUSH1 0x20 ADD REVERT JUMPDEST DUP2 PUSH1 0x40 MLOAD PUSH3 0x461BCD PUSH1 0xE5 SHL DUP2 MSTORE PUSH1 0x4 ADD PUSH2 0x298 SWAP2 SWAP1 PUSH2 0xD91 JUMP JUMPDEST DUP1 CALLDATALOAD PUSH1 0x1 PUSH1 0x1 PUSH1 0xA0 SHL SUB DUP2 AND DUP2 EQ PUSH2 0x3D7 JUMPI PUSH1 0x0 DUP1 REVERT JUMPDEST PUSH1 0x0 PUSH1 0x20 DUP3 DUP5 SUB SLT ISZERO PUSH2 0xC6A JUMPI PUSH1 0x0 DUP1 REVERT JUMPDEST PUSH2 0xAB9 DUP3 PUSH2 0xC41 JUMP JUMPDEST PUSH1 0x0 DUP1 PUSH1 0x40 DUP4 DUP6 SUB SLT ISZERO PUSH2 0xC86 JUMPI PUSH1 0x0 DUP1 REVERT JUMPDEST PUSH2 0xC8F DUP4 PUSH2 0xC41 JUMP JUMPDEST SWAP5 PUSH1 0x20 SWAP4 SWAP1 SWAP4 ADD CALLDATALOAD SWAP4 POP POP POP JUMP JUMPDEST PUSH4 0x4E487B71 PUSH1 0xE0 SHL PUSH1 0x0 MSTORE PUSH1 0x11 PUSH1 0x4 MSTORE PUSH1 0x24 PUSH1 0x0 REVERT JUMPDEST PUSH1 0x0 DUP3 DUP3 LT ISZERO PUSH2 0xCC5 JUMPI PUSH2 0xCC5 PUSH2 0xC9D JUMP JUMPDEST POP SUB SWAP1 JUMP JUMPDEST PUSH1 0x0 DUP3 NOT DUP3 GT ISZERO PUSH2 0xCDD JUMPI PUSH2 0xCDD PUSH2 0xC9D JUMP JUMPDEST POP ADD SWAP1 JUMP JUMPDEST PUSH1 0x0 DUP3 PUSH2 0xCFF JUMPI PUSH4 0x4E487B71 PUSH1 0xE0 SHL PUSH1 0x0 MSTORE PUSH1 0x12 PUSH1 0x4 MSTORE PUSH1 0x24 PUSH1 0x0 REVERT JUMPDEST POP DIV SWAP1 JUMP JUMPDEST PUSH1 0x0 DUP2 PUSH1 0x0 NOT DIV DUP4 GT DUP3 ISZERO ISZERO AND ISZERO PUSH2 0xD1E JUMPI PUSH2 0xD1E PUSH2 0xC9D JUMP JUMPDEST POP MUL SWAP1 JUMP JUMPDEST PUSH1 0x0 PUSH1 0x20 DUP3 DUP5 SUB SLT ISZERO PUSH2 0xD35 JUMPI PUSH1 0x0 DUP1 REVERT JUMPDEST DUP2 MLOAD DUP1 ISZERO ISZERO DUP2 EQ PUSH2 0xAB9 JUMPI PUSH1 0x0 DUP1 REVERT JUMPDEST PUSH1 0x0 JUMPDEST DUP4 DUP2 LT ISZERO PUSH2 0xD60 JUMPI DUP2 DUP2 ADD MLOAD DUP4 DUP3 ADD MSTORE PUSH1 0x20 ADD PUSH2 0xD48 JUMP JUMPDEST DUP4 DUP2 GT ISZERO PUSH2 0xD6F JUMPI PUSH1 0x0 DUP5 DUP5 ADD MSTORE JUMPDEST POP POP POP POP JUMP JUMPDEST PUSH1 0x0 DUP3 MLOAD PUSH2 0xD87 DUP2 DUP5 PUSH1 0x20 DUP8 ADD PUSH2 0xD45 JUMP JUMPDEST SWAP2 SWAP1 SWAP2 ADD SWAP3 SWAP2 POP POP JUMP JUMPDEST PUSH1 0x20 DUP2 MSTORE PUSH1 0x0 DUP3 MLOAD DUP1 PUSH1 0x20 DUP5 ADD MSTORE PUSH2 0xDB0 DUP2 PUSH1 0x40 DUP6 ADD PUSH1 0x20 DUP8 ADD PUSH2 0xD45 JUMP JUMPDEST PUSH1 0x1F ADD PUSH1 0x1F NOT AND SWAP2 SWAP1 SWAP2 ADD PUSH1 0x40 ADD SWAP3 SWAP2 POP POP JUMP INVALID LOG2 PUSH5 0x6970667358 0x22 SLT KECCAK256 0xE1 0xB1 0xAF MOD SWAP9 CALL 0x5D 0xD6 0xB6 PUSH32 0x282A146591AAE0E58FD6AA9831AEAE83C9E47736816364736F6C634300080B00 CALLER "
				},
				"gasEstimates": {
					"creation": {
						"codeDepositCost": "715600",
						"executionCost": "infinite",
						"totalCost": "infinite"
					},
					"external": {
						"_token()": "2381",
						"addBeneficiary(address,uint256)": "146153",
						"beneficiary(address)": "9188",
						"deleteBeneficiary(address)": "infinite",
						"hasWhitelist(address)": "9166",
						"initiateWhitelist()": "24455",
						"owner()": "2365",
						"privateSaleAmount()": "2351",
						"privateSaleUsers()": "2330",
						"releaseClaimable()": "infinite",
						"renounceOwnership()": "28173",
						"startPrivateSale()": "2308",
						"transferOwnership(address)": "28377"
					},
					"internal": {
						"_calculateClaimableAmount(address)": "infinite"
					}
				},
				"methodIdentifiers": {
					"_token()": "ecd0c0c3",
					"addBeneficiary(address,uint256)": "96074e70",
					"beneficiary(address)": "81008568",
					"deleteBeneficiary(address)": "7d3bca76",
					"hasWhitelist(address)": "8cdb7e8b",
					"initiateWhitelist()": "efdd8796",
					"owner()": "8da5cb5b",
					"privateSaleAmount()": "8b2b423a",
					"privateSaleUsers()": "549dee0b",
					"releaseClaimable()": "d5498dc7",
					"renounceOwnership()": "715018a6",
					"startPrivateSale()": "338dbf59",
					"transferOwnership(address)": "f2fde38b"
				}
			},
			"storageLayout": {
				"storage": [
					{
						"astId": 115,
						"contract": "contracts/WhiteList_v2.sol:Whitelist",
						"label": "_status",
						"offset": 0,
						"slot": "0",
						"type": "t_uint256"
					},
					{
						"astId": 7,
						"contract": "contracts/WhiteList_v2.sol:Whitelist",
						"label": "_owner",
						"offset": 0,
						"slot": "1",
						"type": "t_address"
					},
					{
						"astId": 800,
						"contract": "contracts/WhiteList_v2.sol:Whitelist",
						"label": "privateSaleUsers",
						"offset": 0,
						"slot": "2",
						"type": "t_uint256"
					},
					{
						"astId": 802,
						"contract": "contracts/WhiteList_v2.sol:Whitelist",
						"label": "privateSaleAmount",
						"offset": 0,
						"slot": "3",
						"type": "t_uint256"
					},
					{
						"astId": 814,
						"contract": "contracts/WhiteList_v2.sol:Whitelist",
						"label": "startPrivateSale",
						"offset": 0,
						"slot": "4",
						"type": "t_uint256"
					},
					{
						"astId": 819,
						"contract": "contracts/WhiteList_v2.sol:Whitelist",
						"label": "_beneficiary",
						"offset": 0,
						"slot": "5",
						"type": "t_mapping(t_address,t_struct(WhitelistStruct)789_storage)"
					},
					{
						"astId": 821,
						"contract": "contracts/WhiteList_v2.sol:Whitelist",
						"label": "_token",
						"offset": 0,
						"slot": "6",
						"type": "t_address"
					}
				],
				"types": {
					"t_address": {
						"encoding": "inplace",
						"label": "address",
						"numberOfBytes": "20"
					},
					"t_bool": {
						"encoding": "inplace",
						"label": "bool",
						"numberOfBytes": "1"
					},
					"t_mapping(t_address,t_struct(WhitelistStruct)789_storage)": {
						"encoding": "mapping",
						"key": "t_address",
						"label": "mapping(address => struct WhitelistStruct)",
						"numberOfBytes": "32",
						"value": "t_struct(WhitelistStruct)789_storage"
					},
					"t_struct(WhitelistStruct)789_storage": {
						"encoding": "inplace",
						"label": "struct WhitelistStruct",
						"members": [
							{
								"astId": 780,
								"contract": "contracts/WhiteList_v2.sol:Whitelist",
								"label": "userAddress",
								"offset": 0,
								"slot": "0",
								"type": "t_address"
							},
							{
								"astId": 782,
								"contract": "contracts/WhiteList_v2.sol:Whitelist",
								"label": "lockedAmount",
								"offset": 0,
								"slot": "1",
								"type": "t_uint256"
							},
							{
								"astId": 784,
								"contract": "contracts/WhiteList_v2.sol:Whitelist",
								"label": "amount",
								"offset": 0,
								"slot": "2",
								"type": "t_uint256"
							},
							{
								"astId": 786,
								"contract": "contracts/WhiteList_v2.sol:Whitelist",
								"label": "isPhase1Claimed",
								"offset": 0,
								"slot": "3",
								"type": "t_bool"
							},
							{
								"astId": 788,
								"contract": "contracts/WhiteList_v2.sol:Whitelist",
								"label": "latestClaimDay",
								"offset": 0,
								"slot": "4",
								"type": "t_uint256"
							}
						],
						"numberOfBytes": "160"
					},
					"t_uint256": {
						"encoding": "inplace",
						"label": "uint256",
						"numberOfBytes": "32"
					}
				}
			},
			"userdoc": {
				"errors": {
					"MainFunction__insufficientBalance()": [
						{
							"notice": "Error handling message for Main Function"
						}
					]
				},
				"kind": "user",
				"methods": {
					"releaseClaimable()": {
						"notice": "Transfers tokens held by timelock to beneficiary."
					}
				},
				"version": 1
			}
		}
	}
}