{
  "_format": "hh-sol-artifact-1",
  "contractName": "Marketplace",
  "sourceName": "contracts/NFT/Marketplace_1.sol",
  "abi": [
    {
      "inputs": [],
      "stateMutability": "nonpayable",
      "type": "constructor"
    },
    {
      "anonymous": false,
      "inputs": [
        {
          "indexed": false,
          "internalType": "address",
          "name": "nftContract",
          "type": "address"
        },
        {
          "indexed": false,
          "internalType": "uint256",
          "name": "tokenId",
          "type": "uint256"
        },
        {
          "indexed": false,
          "internalType": "address",
          "name": "seller",
          "type": "address"
        },
        {
          "indexed": false,
          "internalType": "address",
          "name": "owner",
          "type": "address"
        },
        {
          "indexed": false,
          "internalType": "uint256",
          "name": "price",
          "type": "uint256"
        }
      ],
      "name": "NFTListed",
      "type": "event"
    },
    {
      "anonymous": false,
      "inputs": [
        {
          "indexed": false,
          "internalType": "address",
          "name": "nftContract",
          "type": "address"
        },
        {
          "indexed": false,
          "internalType": "uint256",
          "name": "tokenId",
          "type": "uint256"
        },
        {
          "indexed": false,
          "internalType": "address",
          "name": "seller",
          "type": "address"
        },
        {
          "indexed": false,
          "internalType": "address",
          "name": "owner",
          "type": "address"
        },
        {
          "indexed": false,
          "internalType": "uint256",
          "name": "price",
          "type": "uint256"
        }
      ],
      "name": "NFTSold",
      "type": "event"
    },
    {
      "inputs": [],
      "name": "LISTING_FEE",
      "outputs": [
        {
          "internalType": "uint256",
          "name": "",
          "type": "uint256"
        }
      ],
      "stateMutability": "view",
      "type": "function"
    },
    {
      "inputs": [
        {
          "internalType": "address",
          "name": "_nftContract",
          "type": "address"
        },
        {
          "internalType": "uint256",
          "name": "_tokenId",
          "type": "uint256"
        }
      ],
      "name": "buyNft",
      "outputs": [],
      "stateMutability": "payable",
      "type": "function"
    },
    {
      "inputs": [],
      "name": "getListedNfts",
      "outputs": [
        {
          "components": [
            {
              "internalType": "address",
              "name": "nftContract",
              "type": "address"
            },
            {
              "internalType": "uint256",
              "name": "tokenId",
              "type": "uint256"
            },
            {
              "internalType": "address payable",
              "name": "seller",
              "type": "address"
            },
            {
              "internalType": "address payable",
              "name": "owner",
              "type": "address"
            },
            {
              "internalType": "uint256",
              "name": "price",
              "type": "uint256"
            },
            {
              "internalType": "bool",
              "name": "listed",
              "type": "bool"
            }
          ],
          "internalType": "struct Marketplace.NFT[]",
          "name": "",
          "type": "tuple[]"
        }
      ],
      "stateMutability": "view",
      "type": "function"
    },
    {
      "inputs": [],
      "name": "getListingFee",
      "outputs": [
        {
          "internalType": "uint256",
          "name": "",
          "type": "uint256"
        }
      ],
      "stateMutability": "view",
      "type": "function"
    },
    {
      "inputs": [],
      "name": "getMyListedNfts",
      "outputs": [
        {
          "components": [
            {
              "internalType": "address",
              "name": "nftContract",
              "type": "address"
            },
            {
              "internalType": "uint256",
              "name": "tokenId",
              "type": "uint256"
            },
            {
              "internalType": "address payable",
              "name": "seller",
              "type": "address"
            },
            {
              "internalType": "address payable",
              "name": "owner",
              "type": "address"
            },
            {
              "internalType": "uint256",
              "name": "price",
              "type": "uint256"
            },
            {
              "internalType": "bool",
              "name": "listed",
              "type": "bool"
            }
          ],
          "internalType": "struct Marketplace.NFT[]",
          "name": "",
          "type": "tuple[]"
        }
      ],
      "stateMutability": "view",
      "type": "function"
    },
    {
      "inputs": [],
      "name": "getMyNfts",
      "outputs": [
        {
          "components": [
            {
              "internalType": "address",
              "name": "nftContract",
              "type": "address"
            },
            {
              "internalType": "uint256",
              "name": "tokenId",
              "type": "uint256"
            },
            {
              "internalType": "address payable",
              "name": "seller",
              "type": "address"
            },
            {
              "internalType": "address payable",
              "name": "owner",
              "type": "address"
            },
            {
              "internalType": "uint256",
              "name": "price",
              "type": "uint256"
            },
            {
              "internalType": "bool",
              "name": "listed",
              "type": "bool"
            }
          ],
          "internalType": "struct Marketplace.NFT[]",
          "name": "",
          "type": "tuple[]"
        }
      ],
      "stateMutability": "view",
      "type": "function"
    },
    {
      "inputs": [
        {
          "internalType": "address",
          "name": "_nftContract",
          "type": "address"
        },
        {
          "internalType": "uint256",
          "name": "_tokenId",
          "type": "uint256"
        },
        {
          "internalType": "uint256",
          "name": "_price",
          "type": "uint256"
        }
      ],
      "name": "listNft",
      "outputs": [],
      "stateMutability": "payable",
      "type": "function"
    },
    {
      "inputs": [
        {
          "internalType": "address",
          "name": "_nftContract",
          "type": "address"
        },
        {
          "internalType": "uint256",
          "name": "_tokenId",
          "type": "uint256"
        },
        {
          "internalType": "uint256",
          "name": "_price",
          "type": "uint256"
        }
      ],
      "name": "resellNft",
      "outputs": [],
      "stateMutability": "payable",
      "type": "function"
    }
  ],
  "bytecode": "0x6080604052655af3107a400060035534801561001a57600080fd5b50600160008190555033600460006101000a81548173ffffffffffffffffffffffffffffffffffffffff021916908373ffffffffffffffffffffffffffffffffffffffff160217905550611c48806100736000396000f3fe60806040526004361061007b5760003560e01c80634ddf4f8f1161004e5780634ddf4f8f1461011d5780638d6cb3fb14610139578063b8fe6abe14610164578063c922b17c1461018f5761007b565b8063047b07bf146100805780631f4cc4db146100ab5780632b86ae38146100d657806334f5b62414610101575b600080fd5b34801561008c57600080fd5b506100956101ab565b6040516100a291906115a1565b60405180910390f35b3480156100b757600080fd5b506100c06104e0565b6040516100cd91906115a1565b60405180910390f35b3480156100e257600080fd5b506100eb610885565b6040516100f891906115d2565b60405180910390f35b61011b6004803603810190610116919061164a565b61088b565b005b6101376004803603810190610132919061169d565b610aa3565b005b34801561014557600080fd5b5061014e610d36565b60405161015b91906115a1565b60405180910390f35b34801561017057600080fd5b50610179610f9e565b60405161018691906115d2565b60405180910390f35b6101a960048036038101906101a4919061164a565b610fa8565b005b606060006101b9600261128d565b90506000805b8281101561025f573373ffffffffffffffffffffffffffffffffffffffff16600560006001846101ef919061170c565b815260200190815260200160002060030160009054906101000a900473ffffffffffffffffffffffffffffffffffffffff1673ffffffffffffffffffffffffffffffffffffffff16141561024c57818061024890611762565b9250505b808061025790611762565b9150506101bf565b5060008167ffffffffffffffff81111561027c5761027b6117ab565b5b6040519080825280602002602001820160405280156102b557816020015b6102a2611367565b81526020019060019003908161029a5790505b5090506000805b848110156104d5573373ffffffffffffffffffffffffffffffffffffffff16600560006001846102ec919061170c565b815260200190815260200160002060030160009054906101000a900473ffffffffffffffffffffffffffffffffffffffff1673ffffffffffffffffffffffffffffffffffffffff1614156104c2576005600060018361034b919061170c565b81526020019081526020016000206040518060c00160405290816000820160009054906101000a900473ffffffffffffffffffffffffffffffffffffffff1673ffffffffffffffffffffffffffffffffffffffff1673ffffffffffffffffffffffffffffffffffffffff168152602001600182015481526020016002820160009054906101000a900473ffffffffffffffffffffffffffffffffffffffff1673ffffffffffffffffffffffffffffffffffffffff1673ffffffffffffffffffffffffffffffffffffffff1681526020016003820160009054906101000a900473ffffffffffffffffffffffffffffffffffffffff1673ffffffffffffffffffffffffffffffffffffffff1673ffffffffffffffffffffffffffffffffffffffff168152602001600482015481526020016005820160009054906101000a900460ff1615151515815250508383815181106104a8576104a76117da565b5b602002602001018190525081806104be90611762565b9250505b80806104cd90611762565b9150506102bc565b508194505050505090565b606060006104ee600261128d565b90506000805b828110156105cc573373ffffffffffffffffffffffffffffffffffffffff1660056000600184610524919061170c565b815260200190815260200160002060020160009054906101000a900473ffffffffffffffffffffffffffffffffffffffff1673ffffffffffffffffffffffffffffffffffffffff161480156105a5575060056000600183610585919061170c565b815260200190815260200160002060050160009054906101000a900460ff165b156105b95781806105b590611762565b9250505b80806105c490611762565b9150506104f4565b5060008167ffffffffffffffff8111156105e9576105e86117ab565b5b60405190808252806020026020018201604052801561062257816020015b61060f611367565b8152602001906001900390816106075790505b5090506000805b8481101561087a573373ffffffffffffffffffffffffffffffffffffffff1660056000600184610659919061170c565b815260200190815260200160002060020160009054906101000a900473ffffffffffffffffffffffffffffffffffffffff1673ffffffffffffffffffffffffffffffffffffffff161480156106da5750600560006001836106ba919061170c565b815260200190815260200160002060050160009054906101000a900460ff165b1561086757600560006001836106f0919061170c565b81526020019081526020016000206040518060c00160405290816000820160009054906101000a900473ffffffffffffffffffffffffffffffffffffffff1673ffffffffffffffffffffffffffffffffffffffff1673ffffffffffffffffffffffffffffffffffffffff168152602001600182015481526020016002820160009054906101000a900473ffffffffffffffffffffffffffffffffffffffff1673ffffffffffffffffffffffffffffffffffffffff1673ffffffffffffffffffffffffffffffffffffffff1681526020016003820160009054906101000a900473ffffffffffffffffffffffffffffffffffffffff1673ffffffffffffffffffffffffffffffffffffffff1673ffffffffffffffffffffffffffffffffffffffff168152602001600482015481526020016005820160009054906101000a900460ff16151515158152505083838151811061084d5761084c6117da565b5b6020026020010181905250818061086390611762565b9250505b808061087290611762565b915050610629565b508194505050505090565b60035481565b61089361129b565b600081116108d6576040517f08c379a00000000000000000000000000000000000000000000000000000000081526004016108cd90611866565b60405180910390fd5b600354341461091a576040517f08c379a0000000000000000000000000000000000000000000000000000000008152600401610911906118d2565b60405180910390fd5b8273ffffffffffffffffffffffffffffffffffffffff166323b872dd3330856040518463ffffffff1660e01b815260040161095793929190611901565b600060405180830381600087803b15801561097157600080fd5b505af1158015610985573d6000803e3d6000fd5b505050506000600560008481526020019081526020016000209050338160020160006101000a81548173ffffffffffffffffffffffffffffffffffffffff021916908373ffffffffffffffffffffffffffffffffffffffff160217905550308160030160006101000a81548173ffffffffffffffffffffffffffffffffffffffff021916908373ffffffffffffffffffffffffffffffffffffffff16021790555060018160050160006101000a81548160ff021916908315150217905550818160040181905550610a5660016112eb565b7fa0c6c0d02d86fdacecbaa5fdf5894bab204e31a778250474108540733a9b8d198484333086604051610a8d959493929190611938565b60405180910390a150610a9e611347565b505050565b610aab61129b565b60006005600083815260200190815260200160002090508060040154341015610b09576040517f08c379a0000000000000000000000000000000000000000000000000000000008152600401610b00906119fd565b60405180910390fd5b60003390508160020160009054906101000a900473ffffffffffffffffffffffffffffffffffffffff1673ffffffffffffffffffffffffffffffffffffffff166108fc349081150290604051600060405180830381858888f19350505050158015610b78573d6000803e3d6000fd5b508373ffffffffffffffffffffffffffffffffffffffff166323b872dd308385600101546040518463ffffffff1660e01b8152600401610bba93929190611a7c565b600060405180830381600087803b158015610bd457600080fd5b505af1158015610be8573d6000803e3d6000fd5b50505050600460009054906101000a900473ffffffffffffffffffffffffffffffffffffffff1673ffffffffffffffffffffffffffffffffffffffff166108fc6003549081150290604051600060405180830381858888f19350505050158015610c56573d6000803e3d6000fd5b50808260030160006101000a81548173ffffffffffffffffffffffffffffffffffffffff021916908373ffffffffffffffffffffffffffffffffffffffff16021790555060008260050160006101000a81548160ff021916908315150217905550610cc16001611351565b7f16f1dbd97e6bf646d429ed186cce832f1f7fd9907814293b83181e9970ab7bd28483600101548460020160009054906101000a900473ffffffffffffffffffffffffffffffffffffffff168434604051610d20959493929190611ab3565b60405180910390a15050610d32611347565b5050565b60606000610d44600261128d565b90506000610d52600161128d565b82610d5d9190611b06565b905060008167ffffffffffffffff811115610d7b57610d7a6117ab565b5b604051908082528060200260200182016040528015610db457816020015b610da1611367565b815260200190600190039081610d995790505b5090506000805b84811015610f935760056000600183610dd4919061170c565b815260200190815260200160002060050160009054906101000a900460ff1615610f805760056000600183610e09919061170c565b81526020019081526020016000206040518060c00160405290816000820160009054906101000a900473ffffffffffffffffffffffffffffffffffffffff1673ffffffffffffffffffffffffffffffffffffffff1673ffffffffffffffffffffffffffffffffffffffff168152602001600182015481526020016002820160009054906101000a900473ffffffffffffffffffffffffffffffffffffffff1673ffffffffffffffffffffffffffffffffffffffff1673ffffffffffffffffffffffffffffffffffffffff1681526020016003820160009054906101000a900473ffffffffffffffffffffffffffffffffffffffff1673ffffffffffffffffffffffffffffffffffffffff1673ffffffffffffffffffffffffffffffffffffffff168152602001600482015481526020016005820160009054906101000a900460ff161515151581525050838381518110610f6657610f656117da565b5b60200260200101819052508180610f7c90611762565b9250505b8080610f8b90611762565b915050610dbb565b508194505050505090565b6000600354905090565b610fb061129b565b60008111610ff3576040517f08c379a0000000000000000000000000000000000000000000000000000000008152600401610fea90611866565b60405180910390fd5b6003543414611037576040517f08c379a000000000000000000000000000000000000000000000000000000000815260040161102e906118d2565b60405180910390fd5b8273ffffffffffffffffffffffffffffffffffffffff166323b872dd3330856040518463ffffffff1660e01b815260040161107493929190611901565b600060405180830381600087803b15801561108e57600080fd5b505af11580156110a2573d6000803e3d6000fd5b505050506110b06002611351565b6040518060c001604052808473ffffffffffffffffffffffffffffffffffffffff1681526020018381526020013373ffffffffffffffffffffffffffffffffffffffff1681526020013073ffffffffffffffffffffffffffffffffffffffff168152602001828152602001600115158152506005600084815260200190815260200160002060008201518160000160006101000a81548173ffffffffffffffffffffffffffffffffffffffff021916908373ffffffffffffffffffffffffffffffffffffffff1602179055506020820151816001015560408201518160020160006101000a81548173ffffffffffffffffffffffffffffffffffffffff021916908373ffffffffffffffffffffffffffffffffffffffff16021790555060608201518160030160006101000a81548173ffffffffffffffffffffffffffffffffffffffff021916908373ffffffffffffffffffffffffffffffffffffffff1602179055506080820151816004015560a08201518160050160006101000a81548160ff0219169083151502179055509050507fa0c6c0d02d86fdacecbaa5fdf5894bab204e31a778250474108540733a9b8d198383333085604051611278959493929190611938565b60405180910390a1611288611347565b505050565b600081600001549050919050565b600260005414156112e1576040517f08c379a00000000000000000000000000000000000000000000000000000000081526004016112d890611b86565b60405180910390fd5b6002600081905550565b60008160000154905060008111611337576040517f08c379a000000000000000000000000000000000000000000000000000000000815260040161132e90611bf2565b60405180910390fd5b6001810382600001819055505050565b6001600081905550565b6001816000016000828254019250508190555050565b6040518060c00160405280600073ffffffffffffffffffffffffffffffffffffffff16815260200160008152602001600073ffffffffffffffffffffffffffffffffffffffff168152602001600073ffffffffffffffffffffffffffffffffffffffff168152602001600081526020016000151581525090565b600081519050919050565b600082825260208201905092915050565b6000819050602082019050919050565b600073ffffffffffffffffffffffffffffffffffffffff82169050919050565b60006114388261140d565b9050919050565b6114488161142d565b82525050565b6000819050919050565b6114618161144e565b82525050565b60006114728261140d565b9050919050565b61148281611467565b82525050565b60008115159050919050565b61149d81611488565b82525050565b60c0820160008201516114b9600085018261143f565b5060208201516114cc6020850182611458565b5060408201516114df6040850182611479565b5060608201516114f26060850182611479565b5060808201516115056080850182611458565b5060a082015161151860a0850182611494565b50505050565b600061152a83836114a3565b60c08301905092915050565b6000602082019050919050565b600061154e826113e1565b61155881856113ec565b9350611563836113fd565b8060005b8381101561159457815161157b888261151e565b975061158683611536565b925050600181019050611567565b5085935050505092915050565b600060208201905081810360008301526115bb8184611543565b905092915050565b6115cc8161144e565b82525050565b60006020820190506115e760008301846115c3565b92915050565b600080fd5b6115fb8161142d565b811461160657600080fd5b50565b600081359050611618816115f2565b92915050565b6116278161144e565b811461163257600080fd5b50565b6000813590506116448161161e565b92915050565b600080600060608486031215611663576116626115ed565b5b600061167186828701611609565b935050602061168286828701611635565b925050604061169386828701611635565b9150509250925092565b600080604083850312156116b4576116b36115ed565b5b60006116c285828601611609565b92505060206116d385828601611635565b9150509250929050565b7f4e487b7100000000000000000000000000000000000000000000000000000000600052601160045260246000fd5b60006117178261144e565b91506117228361144e565b9250827fffffffffffffffffffffffffffffffffffffffffffffffffffffffffffffffff03821115611757576117566116dd565b5b828201905092915050565b600061176d8261144e565b91507fffffffffffffffffffffffffffffffffffffffffffffffffffffffffffffffff8214156117a05761179f6116dd565b5b600182019050919050565b7f4e487b7100000000000000000000000000000000000000000000000000000000600052604160045260246000fd5b7f4e487b7100000000000000000000000000000000000000000000000000000000600052603260045260246000fd5b600082825260208201905092915050565b7f5072696365206d757374206265206174206c6561737420312077656900000000600082015250565b6000611850601c83611809565b915061185b8261181a565b602082019050919050565b6000602082019050818103600083015261187f81611843565b9050919050565b7f4e6f7420656e6f75676820657468657220666f72206c697374696e6720666565600082015250565b60006118bc602083611809565b91506118c782611886565b602082019050919050565b600060208201905081810360008301526118eb816118af565b9050919050565b6118fb8161142d565b82525050565b600060608201905061191660008301866118f2565b61192360208301856118f2565b61193060408301846115c3565b949350505050565b600060a08201905061194d60008301886118f2565b61195a60208301876115c3565b61196760408301866118f2565b61197460608301856118f2565b61198160808301846115c3565b9695505050505050565b7f4e6f7420656e6f75676820657468657220746f20636f7665722061736b696e6760008201527f2070726963650000000000000000000000000000000000000000000000000000602082015250565b60006119e7602683611809565b91506119f28261198b565b604082019050919050565b60006020820190508181036000830152611a16816119da565b9050919050565b6000819050919050565b6000611a42611a3d611a388461140d565b611a1d565b61140d565b9050919050565b6000611a5482611a27565b9050919050565b6000611a6682611a49565b9050919050565b611a7681611a5b565b82525050565b6000606082019050611a9160008301866118f2565b611a9e6020830185611a6d565b611aab60408301846115c3565b949350505050565b600060a082019050611ac860008301886118f2565b611ad560208301876115c3565b611ae26040830186611a6d565b611aef6060830185611a6d565b611afc60808301846115c3565b9695505050505050565b6000611b118261144e565b9150611b1c8361144e565b925082821015611b2f57611b2e6116dd565b5b828203905092915050565b7f5265656e7472616e637947756172643a207265656e7472616e742063616c6c00600082015250565b6000611b70601f83611809565b9150611b7b82611b3a565b602082019050919050565b60006020820190508181036000830152611b9f81611b63565b9050919050565b7f436f756e7465723a2064656372656d656e74206f766572666c6f770000000000600082015250565b6000611bdc601b83611809565b9150611be782611ba6565b602082019050919050565b60006020820190508181036000830152611c0b81611bcf565b905091905056fea2646970667358221220ea4faca0bc05e529b73e5ee0c64f5a767072dd2c00c95a3b9118077b6923d6a264736f6c634300080b0033",
  "linkReferences": {},
  "deployedLinkReferences": {}
}