{
  "_format": "hh-sol-artifact-1",
  "contractName": "NFTMarketplace",
  "sourceName": "contracts/ERC721/Marketplace_3.sol",
  "abi": [
    {
      "inputs": [],
      "stateMutability": "nonpayable",
      "type": "constructor"
    },
    {
      "anonymous": false,
      "inputs": [
        {
          "indexed": true,
          "internalType": "uint256",
          "name": "id",
          "type": "uint256"
        },
        {
          "indexed": true,
          "internalType": "address",
          "name": "nftContract",
          "type": "address"
        },
        {
          "indexed": true,
          "internalType": "uint256",
          "name": "tokenId",
          "type": "uint256"
        },
        {
          "indexed": false,
          "internalType": "address",
          "name": "seller",
          "type": "address"
        },
        {
          "indexed": false,
          "internalType": "enum NFTMarketplace.State",
          "name": "state",
          "type": "uint8"
        }
      ],
      "name": "ListingCancelled",
      "type": "event"
    },
    {
      "anonymous": false,
      "inputs": [
        {
          "indexed": true,
          "internalType": "uint256",
          "name": "id",
          "type": "uint256"
        },
        {
          "indexed": true,
          "internalType": "address",
          "name": "nftContract",
          "type": "address"
        },
        {
          "indexed": true,
          "internalType": "uint256",
          "name": "tokenId",
          "type": "uint256"
        },
        {
          "indexed": false,
          "internalType": "address",
          "name": "seller",
          "type": "address"
        },
        {
          "indexed": false,
          "internalType": "uint256",
          "name": "price",
          "type": "uint256"
        },
        {
          "indexed": false,
          "internalType": "enum NFTMarketplace.State",
          "name": "state",
          "type": "uint8"
        }
      ],
      "name": "ListingCreated",
      "type": "event"
    },
    {
      "anonymous": false,
      "inputs": [
        {
          "indexed": true,
          "internalType": "uint256",
          "name": "id",
          "type": "uint256"
        },
        {
          "indexed": true,
          "internalType": "address",
          "name": "nftContract",
          "type": "address"
        },
        {
          "indexed": true,
          "internalType": "uint256",
          "name": "tokenId",
          "type": "uint256"
        },
        {
          "indexed": false,
          "internalType": "address",
          "name": "seller",
          "type": "address"
        },
        {
          "indexed": false,
          "internalType": "address",
          "name": "buyer",
          "type": "address"
        },
        {
          "indexed": false,
          "internalType": "uint256",
          "name": "price",
          "type": "uint256"
        },
        {
          "indexed": false,
          "internalType": "enum NFTMarketplace.State",
          "name": "state",
          "type": "uint8"
        }
      ],
      "name": "ListingSold",
      "type": "event"
    },
    {
      "inputs": [
        {
          "internalType": "address",
          "name": "nftContract",
          "type": "address"
        },
        {
          "internalType": "uint256",
          "name": "id",
          "type": "uint256"
        }
      ],
      "name": "buyNFT",
      "outputs": [],
      "stateMutability": "payable",
      "type": "function"
    },
    {
      "inputs": [
        {
          "internalType": "uint256",
          "name": "itemId",
          "type": "uint256"
        }
      ],
      "name": "cancelListing",
      "outputs": [],
      "stateMutability": "nonpayable",
      "type": "function"
    },
    {
      "inputs": [
        {
          "internalType": "address",
          "name": "nftContract",
          "type": "address"
        },
        {
          "internalType": "uint256",
          "name": "tokenId",
          "type": "uint256"
        },
        {
          "internalType": "uint256",
          "name": "price",
          "type": "uint256"
        }
      ],
      "name": "createListing",
      "outputs": [],
      "stateMutability": "payable",
      "type": "function"
    },
    {
      "inputs": [],
      "name": "fetchActiveItems",
      "outputs": [
        {
          "components": [
            {
              "internalType": "uint256",
              "name": "id",
              "type": "uint256"
            },
            {
              "internalType": "address",
              "name": "nftContract",
              "type": "address"
            },
            {
              "internalType": "uint256",
              "name": "tokenId",
              "type": "uint256"
            },
            {
              "internalType": "address payable",
              "name": "seller",
              "type": "address"
            },
            {
              "internalType": "address payable",
              "name": "buyer",
              "type": "address"
            },
            {
              "internalType": "uint256",
              "name": "price",
              "type": "uint256"
            },
            {
              "internalType": "enum NFTMarketplace.State",
              "name": "state",
              "type": "uint8"
            }
          ],
          "internalType": "struct NFTMarketplace.NFT[]",
          "name": "",
          "type": "tuple[]"
        }
      ],
      "stateMutability": "view",
      "type": "function"
    },
    {
      "inputs": [],
      "name": "fetchMyCreatedItems",
      "outputs": [
        {
          "components": [
            {
              "internalType": "uint256",
              "name": "id",
              "type": "uint256"
            },
            {
              "internalType": "address",
              "name": "nftContract",
              "type": "address"
            },
            {
              "internalType": "uint256",
              "name": "tokenId",
              "type": "uint256"
            },
            {
              "internalType": "address payable",
              "name": "seller",
              "type": "address"
            },
            {
              "internalType": "address payable",
              "name": "buyer",
              "type": "address"
            },
            {
              "internalType": "uint256",
              "name": "price",
              "type": "uint256"
            },
            {
              "internalType": "enum NFTMarketplace.State",
              "name": "state",
              "type": "uint8"
            }
          ],
          "internalType": "struct NFTMarketplace.NFT[]",
          "name": "",
          "type": "tuple[]"
        }
      ],
      "stateMutability": "view",
      "type": "function"
    },
    {
      "inputs": [],
      "name": "fetchMyPurchasedItems",
      "outputs": [
        {
          "components": [
            {
              "internalType": "uint256",
              "name": "id",
              "type": "uint256"
            },
            {
              "internalType": "address",
              "name": "nftContract",
              "type": "address"
            },
            {
              "internalType": "uint256",
              "name": "tokenId",
              "type": "uint256"
            },
            {
              "internalType": "address payable",
              "name": "seller",
              "type": "address"
            },
            {
              "internalType": "address payable",
              "name": "buyer",
              "type": "address"
            },
            {
              "internalType": "uint256",
              "name": "price",
              "type": "uint256"
            },
            {
              "internalType": "enum NFTMarketplace.State",
              "name": "state",
              "type": "uint8"
            }
          ],
          "internalType": "struct NFTMarketplace.NFT[]",
          "name": "",
          "type": "tuple[]"
        }
      ],
      "stateMutability": "view",
      "type": "function"
    },
    {
      "inputs": [],
      "name": "getListingFee",
      "outputs": [
        {
          "internalType": "uint256",
          "name": "",
          "type": "uint256"
        }
      ],
      "stateMutability": "view",
      "type": "function"
    },
    {
      "inputs": [],
      "name": "listingFee",
      "outputs": [
        {
          "internalType": "uint256",
          "name": "",
          "type": "uint256"
        }
      ],
      "stateMutability": "view",
      "type": "function"
    },
    {
      "inputs": [],
      "name": "marketOwner",
      "outputs": [
        {
          "internalType": "address payable",
          "name": "",
          "type": "address"
        }
      ],
      "stateMutability": "view",
      "type": "function"
    }
  ],
  "bytecode": "0x60806040526658d15e1762800060045534801561001b57600080fd5b50600160008190555033600360006101000a81548173ffffffffffffffffffffffffffffffffffffffff021916908373ffffffffffffffffffffffffffffffffffffffff1602179055506120ae806100746000396000f3fe6080604052600436106100865760003560e01c80636a1b7ecc116100595780636a1b7ecc14610126578063a82ba76f14610151578063ab76ce161461016d578063b8fe6abe14610198578063ef8da9da146101c357610086565b806324780c561461008b578063305a67a8146100a7578063332b386b146100d057806347d90b5c146100fb575b600080fd5b6100a560048036038101906100a0919061176d565b6101ee565b005b3480156100b357600080fd5b506100ce60048036038101906100c991906117c0565b6105a1565b005b3480156100dc57600080fd5b506100e561098c565b6040516100f291906119e0565b60405180910390f35b34801561010757600080fd5b5061011061099d565b60405161011d9190611a11565b60405180910390f35b34801561013257600080fd5b5061013b6109c3565b6040516101489190611a3b565b60405180910390f35b61016b60048036038101906101669190611a56565b6109c9565b005b34801561017957600080fd5b50610182610d90565b60405161018f91906119e0565b60405180910390f35b3480156101a457600080fd5b506101ad610da1565b6040516101ba9190611a3b565b60405180910390f35b3480156101cf57600080fd5b506101d8610dab565b6040516101e591906119e0565b60405180910390f35b6101f6610dbc565b60008111610239576040517f08c379a000000000000000000000000000000000000000000000000000000000815260040161023090611af3565b60405180910390fd5b600454341461027d576040517f08c379a000000000000000000000000000000000000000000000000000000000815260040161027490611b5f565b60405180910390fd5b3073ffffffffffffffffffffffffffffffffffffffff168373ffffffffffffffffffffffffffffffffffffffff1663081812fc846040518263ffffffff1660e01b81526004016102cd9190611a3b565b602060405180830381865afa1580156102ea573d6000803e3d6000fd5b505050506040513d601f19601f8201168201806040525081019061030e9190611b94565b73ffffffffffffffffffffffffffffffffffffffff1614610364576040517f08c379a000000000000000000000000000000000000000000000000000000000815260040161035b90611c0d565b60405180910390fd5b61036e6001610e0c565b600061037a6001610e22565b90506040518060e001604052808281526020018573ffffffffffffffffffffffffffffffffffffffff1681526020018481526020013373ffffffffffffffffffffffffffffffffffffffff168152602001600073ffffffffffffffffffffffffffffffffffffffff1681526020018381526020016000600281111561040257610401611858565b5b815250600560008381526020019081526020016000206000820151816000015560208201518160010160006101000a81548173ffffffffffffffffffffffffffffffffffffffff021916908373ffffffffffffffffffffffffffffffffffffffff1602179055506040820151816002015560608201518160030160006101000a81548173ffffffffffffffffffffffffffffffffffffffff021916908373ffffffffffffffffffffffffffffffffffffffff16021790555060808201518160040160006101000a81548173ffffffffffffffffffffffffffffffffffffffff021916908373ffffffffffffffffffffffffffffffffffffffff16021790555060a0820151816005015560c08201518160060160006101000a81548160ff0219169083600281111561053657610535611858565b5b0217905550905050828473ffffffffffffffffffffffffffffffffffffffff16827fd2749730779e7e7c24c343f4081e51338b1a26409447b3809c441f749ed196183386600060405161058b93929190611c4b565b60405180910390a45061059c610e30565b505050565b6105a9610dbc565b6105b36001610e22565b8111156105f5576040517f08c379a00000000000000000000000000000000000000000000000000000000081526004016105ec90611cce565b60405180910390fd5b6000600281111561060957610608611858565b5b6005600083815260200190815260200160002060060160009054906101000a900460ff16600281111561063f5761063e611858565b5b1461067f576040517f08c379a000000000000000000000000000000000000000000000000000000000815260040161067690611d3a565b60405180910390fd5b60006005600083815260200190815260200160002090503373ffffffffffffffffffffffffffffffffffffffff168160010160009054906101000a900473ffffffffffffffffffffffffffffffffffffffff1673ffffffffffffffffffffffffffffffffffffffff16636352211e83600201546040518263ffffffff1660e01b815260040161070e9190611a3b565b602060405180830381865afa15801561072b573d6000803e3d6000fd5b505050506040513d601f19601f8201168201806040525081019061074f9190611b94565b73ffffffffffffffffffffffffffffffffffffffff16146107a5576040517f08c379a000000000000000000000000000000000000000000000000000000000815260040161079c90611da6565b60405180910390fd5b3073ffffffffffffffffffffffffffffffffffffffff168160010160009054906101000a900473ffffffffffffffffffffffffffffffffffffffff1673ffffffffffffffffffffffffffffffffffffffff1663081812fc83600201546040518263ffffffff1660e01b815260040161081d9190611a3b565b602060405180830381865afa15801561083a573d6000803e3d6000fd5b505050506040513d601f19601f8201168201806040525081019061085e9190611b94565b73ffffffffffffffffffffffffffffffffffffffff16146108b4576040517f08c379a00000000000000000000000000000000000000000000000000000000081526004016108ab90611c0d565b60405180910390fd5b60028160060160006101000a81548160ff021916908360028111156108dc576108db611858565b5b021790555080600201548160010160009054906101000a900473ffffffffffffffffffffffffffffffffffffffff1673ffffffffffffffffffffffffffffffffffffffff16837f38d2cc95cd70cd7b95739617acbcf275f7875940f63aea38577cc8070c7e15118460030160009054906101000a900473ffffffffffffffffffffffffffffffffffffffff166002604051610978929190611e25565b60405180910390a450610989610e30565b50565b60606109986000610e3a565b905090565b600360009054906101000a900473ffffffffffffffffffffffffffffffffffffffff1681565b60045481565b6109d1610dbc565b6000600560008381526020019081526020016000209050600081600501549050600082600201549050813414610a3c576040517f08c379a0000000000000000000000000000000000000000000000000000000008152600401610a3390611e9a565b60405180910390fd5b3073ffffffffffffffffffffffffffffffffffffffff168573ffffffffffffffffffffffffffffffffffffffff1663081812fc836040518263ffffffff1660e01b8152600401610a8c9190611a3b565b602060405180830381865afa158015610aa9573d6000803e3d6000fd5b505050506040513d601f19601f82011682018060405250810190610acd9190611b94565b73ffffffffffffffffffffffffffffffffffffffff1614610b23576040517f08c379a0000000000000000000000000000000000000000000000000000000008152600401610b1a90611c0d565b60405180910390fd5b8473ffffffffffffffffffffffffffffffffffffffff166323b872dd8460030160009054906101000a900473ffffffffffffffffffffffffffffffffffffffff1633846040518463ffffffff1660e01b8152600401610b8493929190611eba565b600060405180830381600087803b158015610b9e57600080fd5b505af1158015610bb2573d6000803e3d6000fd5b50505050600360009054906101000a900473ffffffffffffffffffffffffffffffffffffffff1673ffffffffffffffffffffffffffffffffffffffff166108fc6004549081150290604051600060405180830381858888f19350505050158015610c20573d6000803e3d6000fd5b508260030160009054906101000a900473ffffffffffffffffffffffffffffffffffffffff1673ffffffffffffffffffffffffffffffffffffffff166108fc349081150290604051600060405180830381858888f19350505050158015610c8b573d6000803e3d6000fd5b50338360040160006101000a81548173ffffffffffffffffffffffffffffffffffffffff021916908373ffffffffffffffffffffffffffffffffffffffff16021790555060018360060160006101000a81548160ff02191690836002811115610cf757610cf6611858565b5b0217905550610d066002610e0c565b808573ffffffffffffffffffffffffffffffffffffffff16857fac235a8ad34017d2db50e4ce9adfecb09bc73242d440b5a88e974676c2da0bf88660030160009054906101000a900473ffffffffffffffffffffffffffffffffffffffff1633876001604051610d799493929190611ef1565b60405180910390a4505050610d8c610e30565b5050565b6060610d9c6001610e3a565b905090565b6000600454905090565b6060610db76002610e3a565b905090565b60026000541415610e02576040517f08c379a0000000000000000000000000000000000000000000000000000000008152600401610df990611f82565b60405180910390fd5b6002600081905550565b6001816000016000828254019250508190555050565b600081600001549050919050565b6001600081905550565b60606000610e486001610e22565b9050600080600190505b82811161100257610fdb600560008381526020019081526020016000206040518060e0016040529081600082015481526020016001820160009054906101000a900473ffffffffffffffffffffffffffffffffffffffff1673ffffffffffffffffffffffffffffffffffffffff1673ffffffffffffffffffffffffffffffffffffffff168152602001600282015481526020016003820160009054906101000a900473ffffffffffffffffffffffffffffffffffffffff1673ffffffffffffffffffffffffffffffffffffffff1673ffffffffffffffffffffffffffffffffffffffff1681526020016004820160009054906101000a900473ffffffffffffffffffffffffffffffffffffffff1673ffffffffffffffffffffffffffffffffffffffff1673ffffffffffffffffffffffffffffffffffffffff168152602001600582015481526020016006820160009054906101000a900460ff166002811115610fbf57610fbe611858565b5b6002811115610fd157610fd0611858565b5b81525050866113b7565b15610fef578180610feb90611fd1565b9250505b8080610ffa90611fd1565b915050610e52565b506000808267ffffffffffffffff8111156110205761101f61201a565b5b60405190808252806020026020018201604052801561105957816020015b611046611643565b81526020019060019003908161103e5790505b5090506000600190505b8481116113aa576111ec600560008381526020019081526020016000206040518060e0016040529081600082015481526020016001820160009054906101000a900473ffffffffffffffffffffffffffffffffffffffff1673ffffffffffffffffffffffffffffffffffffffff1673ffffffffffffffffffffffffffffffffffffffff168152602001600282015481526020016003820160009054906101000a900473ffffffffffffffffffffffffffffffffffffffff1673ffffffffffffffffffffffffffffffffffffffff1673ffffffffffffffffffffffffffffffffffffffff1681526020016004820160009054906101000a900473ffffffffffffffffffffffffffffffffffffffff1673ffffffffffffffffffffffffffffffffffffffff1673ffffffffffffffffffffffffffffffffffffffff168152602001600582015481526020016006820160009054906101000a900460ff1660028111156111d0576111cf611858565b5b60028111156111e2576111e1611858565b5b81525050886113b7565b1561139757600560008281526020019081526020016000206040518060e0016040529081600082015481526020016001820160009054906101000a900473ffffffffffffffffffffffffffffffffffffffff1673ffffffffffffffffffffffffffffffffffffffff1673ffffffffffffffffffffffffffffffffffffffff168152602001600282015481526020016003820160009054906101000a900473ffffffffffffffffffffffffffffffffffffffff1673ffffffffffffffffffffffffffffffffffffffff1673ffffffffffffffffffffffffffffffffffffffff1681526020016004820160009054906101000a900473ffffffffffffffffffffffffffffffffffffffff1673ffffffffffffffffffffffffffffffffffffffff1673ffffffffffffffffffffffffffffffffffffffff168152602001600582015481526020016006820160009054906101000a900460ff16600281111561135457611353611858565b5b600281111561136657611365611858565b5b8152505082848151811061137d5761137c612049565b5b6020026020010181905250828061139390611fd1565b9350505b80806113a290611fd1565b915050611063565b5080945050505050919050565b60006002808111156113cc576113cb611858565b5b8260028111156113df576113de611858565b5b1415611461573373ffffffffffffffffffffffffffffffffffffffff16836060015173ffffffffffffffffffffffffffffffffffffffff1614801561144c575060028081111561143257611431611858565b5b8360c00151600281111561144957611448611858565b5b14155b61145757600061145a565b60015b905061163d565b6001600281111561147557611474611858565b5b82600281111561148857611487611858565b5b14156114d6573373ffffffffffffffffffffffffffffffffffffffff16836080015173ffffffffffffffffffffffffffffffffffffffff16146114cc5760006114cf565b60015b905061163d565b600060028111156114ea576114e9611858565b5b8260028111156114fd576114fc611858565b5b141561163857600073ffffffffffffffffffffffffffffffffffffffff16836080015173ffffffffffffffffffffffffffffffffffffffff1614801561156b57506000600281111561155257611551611858565b5b8360c00151600281111561156957611568611858565b5b145b801561162357503073ffffffffffffffffffffffffffffffffffffffff16836020015173ffffffffffffffffffffffffffffffffffffffff1663081812fc85604001516040518263ffffffff1660e01b81526004016115ca9190611a3b565b602060405180830381865afa1580156115e7573d6000803e3d6000fd5b505050506040513d601f19601f8201168201806040525081019061160b9190611b94565b73ffffffffffffffffffffffffffffffffffffffff16145b61162e576000611631565b60015b905061163d565b600090505b92915050565b6040518060e0016040528060008152602001600073ffffffffffffffffffffffffffffffffffffffff16815260200160008152602001600073ffffffffffffffffffffffffffffffffffffffff168152602001600073ffffffffffffffffffffffffffffffffffffffff16815260200160008152602001600060028111156116ce576116cd611858565b5b81525090565b600080fd5b600073ffffffffffffffffffffffffffffffffffffffff82169050919050565b6000611704826116d9565b9050919050565b611714816116f9565b811461171f57600080fd5b50565b6000813590506117318161170b565b92915050565b6000819050919050565b61174a81611737565b811461175557600080fd5b50565b60008135905061176781611741565b92915050565b600080600060608486031215611786576117856116d4565b5b600061179486828701611722565b93505060206117a586828701611758565b92505060406117b686828701611758565b9150509250925092565b6000602082840312156117d6576117d56116d4565b5b60006117e484828501611758565b91505092915050565b600081519050919050565b600082825260208201905092915050565b6000819050602082019050919050565b61182281611737565b82525050565b611831816116f9565b82525050565b6000611842826116d9565b9050919050565b61185281611837565b82525050565b7f4e487b7100000000000000000000000000000000000000000000000000000000600052602160045260246000fd5b6003811061189857611897611858565b5b50565b60008190506118a982611887565b919050565b60006118b98261189b565b9050919050565b6118c9816118ae565b82525050565b60e0820160008201516118e56000850182611819565b5060208201516118f86020850182611828565b50604082015161190b6040850182611819565b50606082015161191e6060850182611849565b5060808201516119316080850182611849565b5060a082015161194460a0850182611819565b5060c082015161195760c08501826118c0565b50505050565b600061196983836118cf565b60e08301905092915050565b6000602082019050919050565b600061198d826117ed565b61199781856117f8565b93506119a283611809565b8060005b838110156119d35781516119ba888261195d565b97506119c583611975565b9250506001810190506119a6565b5085935050505092915050565b600060208201905081810360008301526119fa8184611982565b905092915050565b611a0b81611837565b82525050565b6000602082019050611a266000830184611a02565b92915050565b611a3581611737565b82525050565b6000602082019050611a506000830184611a2c565b92915050565b60008060408385031215611a6d57611a6c6116d4565b5b6000611a7b85828601611722565b9250506020611a8c85828601611758565b9150509250929050565b600082825260208201905092915050565b7f5072696365206d757374206265206174206c6561737420312077656900000000600082015250565b6000611add601c83611a96565b9150611ae882611aa7565b602082019050919050565b60006020820190508181036000830152611b0c81611ad0565b9050919050565b7f466565206d75737420626520657175616c20746f206c697374696e6720666565600082015250565b6000611b49602083611a96565b9150611b5482611b13565b602082019050919050565b60006020820190508181036000830152611b7881611b3c565b9050919050565b600081519050611b8e8161170b565b92915050565b600060208284031215611baa57611ba96116d4565b5b6000611bb884828501611b7f565b91505092915050565b7f4e4654206d75737420626520617070726f76656420746f206d61726b65740000600082015250565b6000611bf7601e83611a96565b9150611c0282611bc1565b602082019050919050565b60006020820190508181036000830152611c2681611bea565b9050919050565b611c36816116f9565b82525050565b611c45816118ae565b82525050565b6000606082019050611c606000830186611c2d565b611c6d6020830185611a2c565b611c7a6040830184611c3c565b949350505050565b7f6964206d757374203c3d206974656d20636f756e740000000000000000000000600082015250565b6000611cb8601583611a96565b9150611cc382611c82565b602082019050919050565b60006020820190508181036000830152611ce781611cab565b9050919050565b7f6974656d206d757374206265206f6e206d61726b657400000000000000000000600082015250565b6000611d24601683611a96565b9150611d2f82611cee565b602082019050919050565b60006020820190508181036000830152611d5381611d17565b9050919050565b7f6d75737420626520746865206f776e6572000000000000000000000000000000600082015250565b6000611d90601183611a96565b9150611d9b82611d5a565b602082019050919050565b60006020820190508181036000830152611dbf81611d83565b9050919050565b6000819050919050565b6000611deb611de6611de1846116d9565b611dc6565b6116d9565b9050919050565b6000611dfd82611dd0565b9050919050565b6000611e0f82611df2565b9050919050565b611e1f81611e04565b82525050565b6000604082019050611e3a6000830185611e16565b611e476020830184611c3c565b9392505050565b7f506c65617365207375626d6974207468652061736b696e672070726963650000600082015250565b6000611e84601e83611a96565b9150611e8f82611e4e565b602082019050919050565b60006020820190508181036000830152611eb381611e77565b9050919050565b6000606082019050611ecf6000830186611e16565b611edc6020830185611c2d565b611ee96040830184611a2c565b949350505050565b6000608082019050611f066000830187611e16565b611f136020830186611c2d565b611f206040830185611a2c565b611f2d6060830184611c3c565b95945050505050565b7f5265656e7472616e637947756172643a207265656e7472616e742063616c6c00600082015250565b6000611f6c601f83611a96565b9150611f7782611f36565b602082019050919050565b60006020820190508181036000830152611f9b81611f5f565b9050919050565b7f4e487b7100000000000000000000000000000000000000000000000000000000600052601160045260246000fd5b6000611fdc82611737565b91507fffffffffffffffffffffffffffffffffffffffffffffffffffffffffffffffff82141561200f5761200e611fa2565b5b600182019050919050565b7f4e487b7100000000000000000000000000000000000000000000000000000000600052604160045260246000fd5b7f4e487b7100000000000000000000000000000000000000000000000000000000600052603260045260246000fdfea26469706673582212202b9eab6494d8401c3dc9a8d19c5c363e93621d6e69fd4c247f4c47ccf84fb28964736f6c634300080b0033",
  "linkReferences": {},
  "deployedLinkReferences": {}
}