{
  "_format": "hh-sol-artifact-1",
  "contractName": "Escrow",
  "sourceName": "contracts/ERC721/Escrow.sol",
  "abi": [
    {
      "inputs": [
        {
          "internalType": "address",
          "name": "_token",
          "type": "address"
        }
      ],
      "stateMutability": "nonpayable",
      "type": "constructor"
    },
    {
      "anonymous": false,
      "inputs": [
        {
          "indexed": true,
          "internalType": "address",
          "name": "payee",
          "type": "address"
        },
        {
          "indexed": false,
          "internalType": "uint256",
          "name": "talaxAmount",
          "type": "uint256"
        },
        {
          "indexed": false,
          "internalType": "address",
          "name": "nftContract",
          "type": "address"
        },
        {
          "indexed": false,
          "internalType": "enum Escrow.Status",
          "name": "status",
          "type": "uint8"
        },
        {
          "indexed": false,
          "internalType": "uint256",
          "name": "tokenId",
          "type": "uint256"
        }
      ],
      "name": "Deposited",
      "type": "event"
    },
    {
      "anonymous": false,
      "inputs": [
        {
          "indexed": true,
          "internalType": "address",
          "name": "payee",
          "type": "address"
        },
        {
          "indexed": true,
          "internalType": "address",
          "name": "nftContract",
          "type": "address"
        },
        {
          "indexed": false,
          "internalType": "uint256",
          "name": "tokenId",
          "type": "uint256"
        }
      ],
      "name": "NFTClaimed",
      "type": "event"
    },
    {
      "anonymous": false,
      "inputs": [
        {
          "indexed": true,
          "internalType": "address",
          "name": "previousOwner",
          "type": "address"
        },
        {
          "indexed": true,
          "internalType": "address",
          "name": "newOwner",
          "type": "address"
        }
      ],
      "name": "OwnershipTransferred",
      "type": "event"
    },
    {
      "anonymous": false,
      "inputs": [
        {
          "indexed": true,
          "internalType": "address",
          "name": "payee",
          "type": "address"
        },
        {
          "indexed": false,
          "internalType": "uint256",
          "name": "talaxAmount",
          "type": "uint256"
        },
        {
          "indexed": false,
          "internalType": "address",
          "name": "nftContract",
          "type": "address"
        }
      ],
      "name": "Withdrawn",
      "type": "event"
    },
    {
      "inputs": [
        {
          "internalType": "address",
          "name": "_nftContract",
          "type": "address"
        },
        {
          "internalType": "uint256[]",
          "name": "_tokenIds",
          "type": "uint256[]"
        }
      ],
      "name": "claimAllNFT",
      "outputs": [],
      "stateMutability": "nonpayable",
      "type": "function"
    },
    {
      "inputs": [
        {
          "internalType": "address",
          "name": "_nftContract",
          "type": "address"
        },
        {
          "internalType": "uint256",
          "name": "_tokenId",
          "type": "uint256"
        },
        {
          "internalType": "uint256",
          "name": "_amount",
          "type": "uint256"
        },
        {
          "internalType": "address",
          "name": "_artist",
          "type": "address"
        }
      ],
      "name": "deposit",
      "outputs": [],
      "stateMutability": "nonpayable",
      "type": "function"
    },
    {
      "inputs": [
        {
          "internalType": "address",
          "name": "nftContract",
          "type": "address"
        }
      ],
      "name": "getCapstone",
      "outputs": [
        {
          "internalType": "uint256",
          "name": "",
          "type": "uint256"
        }
      ],
      "stateMutability": "view",
      "type": "function"
    },
    {
      "inputs": [
        {
          "internalType": "address",
          "name": "_nftContract",
          "type": "address"
        }
      ],
      "name": "getWithdrawalAble",
      "outputs": [
        {
          "internalType": "uint256",
          "name": "",
          "type": "uint256"
        }
      ],
      "stateMutability": "view",
      "type": "function"
    },
    {
      "inputs": [
        {
          "internalType": "address",
          "name": "_nftContract",
          "type": "address"
        },
        {
          "internalType": "uint256",
          "name": "_duration",
          "type": "uint256"
        },
        {
          "internalType": "uint256",
          "name": "_soft",
          "type": "uint256"
        },
        {
          "internalType": "uint256",
          "name": "_medium",
          "type": "uint256"
        },
        {
          "internalType": "uint256",
          "name": "_hard",
          "type": "uint256"
        },
        {
          "internalType": "uint256",
          "name": "_projectWallet",
          "type": "uint256"
        },
        {
          "internalType": "uint256",
          "name": "_advisory",
          "type": "uint256"
        },
        {
          "internalType": "bool",
          "name": "_isCommercial",
          "type": "bool"
        },
        {
          "internalType": "uint256",
          "name": "_tokenPrice",
          "type": "uint256"
        }
      ],
      "name": "initiateNFTProject",
      "outputs": [],
      "stateMutability": "nonpayable",
      "type": "function"
    },
    {
      "inputs": [],
      "name": "owner",
      "outputs": [
        {
          "internalType": "address",
          "name": "",
          "type": "address"
        }
      ],
      "stateMutability": "view",
      "type": "function"
    },
    {
      "inputs": [],
      "name": "renounceOwnership",
      "outputs": [],
      "stateMutability": "nonpayable",
      "type": "function"
    },
    {
      "inputs": [
        {
          "internalType": "address",
          "name": "newOwner",
          "type": "address"
        }
      ],
      "name": "transferOwnership",
      "outputs": [],
      "stateMutability": "nonpayable",
      "type": "function"
    },
    {
      "inputs": [
        {
          "internalType": "address",
          "name": "nftContract",
          "type": "address"
        }
      ],
      "name": "withdraw",
      "outputs": [],
      "stateMutability": "nonpayable",
      "type": "function"
    }
  ],
  "bytecode": "0x60806040523480156200001157600080fd5b5060405162002ee038038062002ee08339818101604052810190620000379190620001dc565b620000576200004b620000a660201b60201c565b620000ae60201b60201c565b6001808190555080600360006101000a81548173ffffffffffffffffffffffffffffffffffffffff021916908373ffffffffffffffffffffffffffffffffffffffff160217905550506200020e565b600033905090565b60008060009054906101000a900473ffffffffffffffffffffffffffffffffffffffff169050816000806101000a81548173ffffffffffffffffffffffffffffffffffffffff021916908373ffffffffffffffffffffffffffffffffffffffff1602179055508173ffffffffffffffffffffffffffffffffffffffff168173ffffffffffffffffffffffffffffffffffffffff167f8be0079c531659141344cd1fd0a4f28419497f9722a3daafe3b4186f6b6457e060405160405180910390a35050565b600080fd5b600073ffffffffffffffffffffffffffffffffffffffff82169050919050565b6000620001a48262000177565b9050919050565b620001b68162000197565b8114620001c257600080fd5b50565b600081519050620001d681620001ab565b92915050565b600060208284031215620001f557620001f462000172565b5b60006200020584828501620001c5565b91505092915050565b612cc2806200021e6000396000f3fe608060405234801561001057600080fd5b50600436106100935760003560e01c80638da5cb5b116100665780638da5cb5b146100f6578063945564661461011457806395adab0114610144578063d90f44c414610174578063f2fde38b1461019057610093565b8063205c767c1461009857806351cff8d9146100b4578063715018a6146100d05780638b6099db146100da575b600080fd5b6100b260048036038101906100ad9190611ec8565b6101ac565b005b6100ce60048036038101906100c99190611f24565b610361565b005b6100d861052a565b005b6100f460048036038101906100ef9190611f51565b61053e565b005b6100fe610a79565b60405161010b9190611fc7565b60405180910390f35b61012e60048036038101906101299190611f24565b610aa2565b60405161013b9190611ff1565b60405180910390f35b61015e60048036038101906101599190611f24565b610c03565b60405161016b9190611ff1565b60405180910390f35b61018e60048036038101906101899190612044565b610c52565b005b6101aa60048036038101906101a59190611f24565b611095565b005b6101b4611119565b6000600260008473ffffffffffffffffffffffffffffffffffffffff1673ffffffffffffffffffffffffffffffffffffffff16815260200190815260200160002090504281600101541161023d576040517f08c379a00000000000000000000000000000000000000000000000000000000081526004016102349061216b565b60405180910390fd5b600060038111156102515761025061218b565b5b8160040160009054906101000a900460ff1660038111156102755761027461218b565b5b14156102b6576040517f08c379a00000000000000000000000000000000000000000000000000000000081526004016102ad90612206565b60405180910390fd5b60006102d28260040160009054906101000a900460ff16611169565b905060005b83518110156103525760005b825181101561033e5761032b8686848151811061030357610302612226565b5b602002602001015185848151811061031e5761031d612226565b5b602002602001015161147b565b808061033690612284565b9150506102e3565b50808061034a90612284565b9150506102d7565b50505061035d61179f565b5050565b610369611119565b6000600260008373ffffffffffffffffffffffffffffffffffffffff1673ffffffffffffffffffffffffffffffffffffffff1681526020019081526020016000209050600081600d0160008360040160009054906101000a900460ff1660038111156103d8576103d761218b565b5b60038111156103ea576103e961218b565b5b815260200190815260200160002060003373ffffffffffffffffffffffffffffffffffffffff1673ffffffffffffffffffffffffffffffffffffffff16815260200190815260200160002054905081600d0160008360040160009054906101000a900460ff1660038111156104625761046161218b565b5b60038111156104745761047361218b565b5b815260200190815260200160002060003373ffffffffffffffffffffffffffffffffffffffff1673ffffffffffffffffffffffffffffffffffffffff168152602001908152602001600020600090556104cd33826117a8565b3373ffffffffffffffffffffffffffffffffffffffff167fcbcdbdf10631a43cc99c80acace8232649421c3f4f73919f16013d47c83a687a82856040516105159291906122cd565b60405180910390a2505061052761179f565b50565b6105326117d9565b61053c6000611857565b565b610546611119565b6000600260008673ffffffffffffffffffffffffffffffffffffffff1673ffffffffffffffffffffffffffffffffffffffff168152602001908152602001600020905060008160040160009054906101000a900460ff1690508160000160009054906101000a900460ff166105f0576040517f08c379a00000000000000000000000000000000000000000000000000000000081526004016105e790612342565b60405180910390fd5b600260038111156106045761060361218b565b5b8260040160009054906101000a900460ff1660038111156106285761062761218b565b5b1415610669576040517f08c379a0000000000000000000000000000000000000000000000000000000008152600401610660906123ae565b60405180910390fd5b6000606485600360009054906101000a900473ffffffffffffffffffffffffffffffffffffffff1673ffffffffffffffffffffffffffffffffffffffff1663771a3a1d6040518163ffffffff1660e01b81526004016020604051808303816000875af11580156106dd573d6000803e3d6000fd5b505050506040513d601f19601f8201168201806040525081019061070191906123e3565b606461070d9190612410565b6107179190612444565b61072191906124cd565b90508083600d01600084600381111561073d5761073c61218b565b5b600381111561074f5761074e61218b565b5b815260200190815260200160002060003373ffffffffffffffffffffffffffffffffffffffff1673ffffffffffffffffffffffffffffffffffffffff16815260200190815260200160002060008282546107a991906124fe565b925050819055503383600c0160008460038111156107ca576107c961218b565b5b60038111156107dc576107db61218b565b5b8152602001908152602001600020600088815260200190815260200160002060000160006101000a81548173ffffffffffffffffffffffffffffffffffffffff021916908373ffffffffffffffffffffffffffffffffffffffff1602179055508383600c0160008460038111156108565761085561218b565b5b60038111156108685761086761218b565b5b8152602001908152602001600020600088815260200190815260200160002060010160006101000a81548173ffffffffffffffffffffffffffffffffffffffff021916908373ffffffffffffffffffffffffffffffffffffffff160217905550848360020160008282546108dc91906124fe565b92505081905550610911600360009054906101000a900473ffffffffffffffffffffffffffffffffffffffff1633308861191b565b82600501600201548360020154106109685760038360040160006101000a81548160ff0219169083600381111561094b5761094a61218b565b5b021790555082600501600201548360050160030181905550610a14565b82600501600101548360020154106109bf5760028360040160006101000a81548160ff021916908360038111156109a2576109a161218b565b5b021790555082600501600101548360050160030181905550610a13565b8260050160000154836002015410610a125760018360040160006101000a81548160ff021916908360038111156109f9576109f861218b565b5b0217905550826005016000015483600501600301819055505b5b5b3373ffffffffffffffffffffffffffffffffffffffff167fde213e238f2a4ae1ff47591c45184b8846ee26654ae95d36e73fb03fe4f6293f8689858a604051610a60949392919061259c565b60405180910390a2505050610a7361179f565b50505050565b60008060009054906101000a900473ffffffffffffffffffffffffffffffffffffffff16905090565b600042600260008473ffffffffffffffffffffffffffffffffffffffff1673ffffffffffffffffffffffffffffffffffffffff168152602001908152602001600020600101541115610bf957600260008373ffffffffffffffffffffffffffffffffffffffff1673ffffffffffffffffffffffffffffffffffffffff168152602001908152602001600020600d016000600260008573ffffffffffffffffffffffffffffffffffffffff1673ffffffffffffffffffffffffffffffffffffffff16815260200190815260200160002060040160009054906101000a900460ff166003811115610b9457610b9361218b565b5b6003811115610ba657610ba561218b565b5b815260200190815260200160002060003373ffffffffffffffffffffffffffffffffffffffff1673ffffffffffffffffffffffffffffffffffffffff168152602001908152602001600020549050610bfe565b600090505b919050565b6000600260008373ffffffffffffffffffffffffffffffffffffffff1673ffffffffffffffffffffffffffffffffffffffff168152602001908152602001600020600501600301549050919050565b610c5a6117d9565b600260008a73ffffffffffffffffffffffffffffffffffffffff1673ffffffffffffffffffffffffffffffffffffffff16815260200190815260200160002060000160009054906101000a900460ff1615610cea576040517f08c379a0000000000000000000000000000000000000000000000000000000008152600401610ce19061262d565b60405180910390fd5b4288610cf691906124fe565b600260008b73ffffffffffffffffffffffffffffffffffffffff1673ffffffffffffffffffffffffffffffffffffffff1681526020019081526020016000206001018190555086600260008b73ffffffffffffffffffffffffffffffffffffffff1673ffffffffffffffffffffffffffffffffffffffff1681526020019081526020016000206005016000018190555085600260008b73ffffffffffffffffffffffffffffffffffffffff1673ffffffffffffffffffffffffffffffffffffffff1681526020019081526020016000206005016001018190555084600260008b73ffffffffffffffffffffffffffffffffffffffff1673ffffffffffffffffffffffffffffffffffffffff1681526020019081526020016000206005016002018190555080600260008b73ffffffffffffffffffffffffffffffffffffffff1673ffffffffffffffffffffffffffffffffffffffff1681526020019081526020016000206003018190555060028310158015610e73575060058411155b610eb2576040517f08c379a0000000000000000000000000000000000000000000000000000000008152600401610ea990612699565b60405180910390fd5b8115610f5957604d8410158015610eca575060508411155b610f09576040517f08c379a0000000000000000000000000000000000000000000000000000000008152600401610f009061272b565b60405180910390fd5b6008600260008b73ffffffffffffffffffffffffffffffffffffffff1673ffffffffffffffffffffffffffffffffffffffff16815260200190815260200160002060090160020181905550610ff6565b60508410158015610f6b575060538411155b610faa576040517f08c379a0000000000000000000000000000000000000000000000000000000008152600401610fa19061272b565b60405180910390fd5b6005600260008b73ffffffffffffffffffffffffffffffffffffffff1673ffffffffffffffffffffffffffffffffffffffff168152602001908152602001600020600901600201819055505b83600260008b73ffffffffffffffffffffffffffffffffffffffff1673ffffffffffffffffffffffffffffffffffffffff1681526020019081526020016000206009016000018190555082600260008b73ffffffffffffffffffffffffffffffffffffffff1673ffffffffffffffffffffffffffffffffffffffff16815260200190815260200160002060090160010181905550505050505050505050565b61109d6117d9565b600073ffffffffffffffffffffffffffffffffffffffff168173ffffffffffffffffffffffffffffffffffffffff16141561110d576040517f08c379a0000000000000000000000000000000000000000000000000000000008152600401611104906127bd565b60405180910390fd5b61111681611857565b50565b6002600154141561115f576040517f08c379a000000000000000000000000000000000000000000000000000000000815260040161115690612829565b60405180910390fd5b6002600181905550565b60606001600381111561117f5761117e61218b565b5b8260038111156111925761119161218b565b5b1415611237576000600167ffffffffffffffff8111156111b5576111b4611d4f565b5b6040519080825280602002602001820160405280156111e35781602001602082028036833780820191505090505b5090506000816000815181106111fc576111fb612226565b5b602002602001019060038111156112165761121561218b565b5b9081600381111561122a5761122961218b565b5b8152505080915050611476565b6002600381111561124b5761124a61218b565b5b82600381111561125e5761125d61218b565b5b141561134b576000600267ffffffffffffffff81111561128157611280611d4f565b5b6040519080825280602002602001820160405280156112af5781602001602082028036833780820191505090505b5090506000816000815181106112c8576112c7612226565b5b602002602001019060038111156112e2576112e161218b565b5b908160038111156112f6576112f561218b565b5b815250506001816001815181106113105761130f612226565b5b6020026020010190600381111561132a5761132961218b565b5b9081600381111561133e5761133d61218b565b5b8152505080915050611476565b6000600367ffffffffffffffff81111561136857611367611d4f565b5b6040519080825280602002602001820160405280156113965781602001602082028036833780820191505090505b5090506000816000815181106113af576113ae612226565b5b602002602001019060038111156113c9576113c861218b565b5b908160038111156113dd576113dc61218b565b5b815250506001816001815181106113f7576113f6612226565b5b602002602001019060038111156114115761141061218b565b5b908160038111156114255761142461218b565b5b8152505060028160018151811061143f5761143e612226565b5b602002602001019060038111156114595761145861218b565b5b9081600381111561146d5761146c61218b565b5b81525050809150505b919050565b611483611119565b6000600260008573ffffffffffffffffffffffffffffffffffffffff1673ffffffffffffffffffffffffffffffffffffffff1681526020019081526020016000209050600081600c0160008460038111156114e1576114e061218b565b5b60038111156114f3576114f261218b565b5b815260200190815260200160002060008581526020019081526020016000206040518060400160405290816000820160009054906101000a900473ffffffffffffffffffffffffffffffffffffffff1673ffffffffffffffffffffffffffffffffffffffff1673ffffffffffffffffffffffffffffffffffffffff1681526020016001820160009054906101000a900473ffffffffffffffffffffffffffffffffffffffff1673ffffffffffffffffffffffffffffffffffffffff1673ffffffffffffffffffffffffffffffffffffffff168152505090503373ffffffffffffffffffffffffffffffffffffffff16816000015173ffffffffffffffffffffffffffffffffffffffff161461163d576040517f08c379a000000000000000000000000000000000000000000000000000000000815260040161163490612895565b60405180910390fd5b60008573ffffffffffffffffffffffffffffffffffffffff16636352211e866040518263ffffffff1660e01b81526004016116789190611ff1565b602060405180830381865afa158015611695573d6000803e3d6000fd5b505050506040513d601f19601f820116820180604052508101906116b991906128ca565b90508573ffffffffffffffffffffffffffffffffffffffff166323b872dd8233886040518463ffffffff1660e01b81526004016116f8939291906128f7565b600060405180830381600087803b15801561171257600080fd5b505af1158015611726573d6000803e3d6000fd5b505050508573ffffffffffffffffffffffffffffffffffffffff163373ffffffffffffffffffffffffffffffffffffffff167f01f5ac4779f06ec54cc32436bd2146466caa8b68fbd6afbab76fd4e4df6fe319876040516117879190611ff1565b60405180910390a350505061179a61179f565b505050565b60018081905550565b6117d5600360009054906101000a900473ffffffffffffffffffffffffffffffffffffffff1683836119a4565b5050565b6117e1611a2a565b73ffffffffffffffffffffffffffffffffffffffff166117ff610a79565b73ffffffffffffffffffffffffffffffffffffffff1614611855576040517f08c379a000000000000000000000000000000000000000000000000000000000815260040161184c9061297a565b60405180910390fd5b565b60008060009054906101000a900473ffffffffffffffffffffffffffffffffffffffff169050816000806101000a81548173ffffffffffffffffffffffffffffffffffffffff021916908373ffffffffffffffffffffffffffffffffffffffff1602179055508173ffffffffffffffffffffffffffffffffffffffff168173ffffffffffffffffffffffffffffffffffffffff167f8be0079c531659141344cd1fd0a4f28419497f9722a3daafe3b4186f6b6457e060405160405180910390a35050565b61199e846323b872dd60e01b85858560405160240161193c939291906128f7565b604051602081830303815290604052907bffffffffffffffffffffffffffffffffffffffffffffffffffffffff19166020820180517bffffffffffffffffffffffffffffffffffffffffffffffffffffffff8381831617835250505050611a32565b50505050565b611a258363a9059cbb60e01b84846040516024016119c392919061299a565b604051602081830303815290604052907bffffffffffffffffffffffffffffffffffffffffffffffffffffffff19166020820180517bffffffffffffffffffffffffffffffffffffffffffffffffffffffff8381831617835250505050611a32565b505050565b600033905090565b6000611a94826040518060400160405280602081526020017f5361666545524332303a206c6f772d6c6576656c2063616c6c206661696c65648152508573ffffffffffffffffffffffffffffffffffffffff16611af99092919063ffffffff16565b9050600081511115611af45780806020019051810190611ab491906129d8565b611af3576040517f08c379a0000000000000000000000000000000000000000000000000000000008152600401611aea90612a77565b60405180910390fd5b5b505050565b6060611b088484600085611b11565b90509392505050565b606082471015611b56576040517f08c379a0000000000000000000000000000000000000000000000000000000008152600401611b4d90612b09565b60405180910390fd5b6000808673ffffffffffffffffffffffffffffffffffffffff168587604051611b7f9190612ba3565b60006040518083038185875af1925050503d8060008114611bbc576040519150601f19603f3d011682016040523d82523d6000602084013e611bc1565b606091505b5091509150611bd287838387611bde565b92505050949350505050565b60608315611c4157600083511415611c3957611bf985611c54565b611c38576040517f08c379a0000000000000000000000000000000000000000000000000000000008152600401611c2f90612c06565b60405180910390fd5b5b829050611c4c565b611c4b8383611c77565b5b949350505050565b6000808273ffffffffffffffffffffffffffffffffffffffff163b119050919050565b600082511115611c8a5781518083602001fd5b806040517f08c379a0000000000000000000000000000000000000000000000000000000008152600401611cbe9190612c6a565b60405180910390fd5b6000604051905090565b600080fd5b600080fd5b600073ffffffffffffffffffffffffffffffffffffffff82169050919050565b6000611d0682611cdb565b9050919050565b611d1681611cfb565b8114611d2157600080fd5b50565b600081359050611d3381611d0d565b92915050565b600080fd5b6000601f19601f8301169050919050565b7f4e487b7100000000000000000000000000000000000000000000000000000000600052604160045260246000fd5b611d8782611d3e565b810181811067ffffffffffffffff82111715611da657611da5611d4f565b5b80604052505050565b6000611db9611cc7565b9050611dc58282611d7e565b919050565b600067ffffffffffffffff821115611de557611de4611d4f565b5b602082029050602081019050919050565b600080fd5b6000819050919050565b611e0e81611dfb565b8114611e1957600080fd5b50565b600081359050611e2b81611e05565b92915050565b6000611e44611e3f84611dca565b611daf565b90508083825260208201905060208402830185811115611e6757611e66611df6565b5b835b81811015611e905780611e7c8882611e1c565b845260208401935050602081019050611e69565b5050509392505050565b600082601f830112611eaf57611eae611d39565b5b8135611ebf848260208601611e31565b91505092915050565b60008060408385031215611edf57611ede611cd1565b5b6000611eed85828601611d24565b925050602083013567ffffffffffffffff811115611f0e57611f0d611cd6565b5b611f1a85828601611e9a565b9150509250929050565b600060208284031215611f3a57611f39611cd1565b5b6000611f4884828501611d24565b91505092915050565b60008060008060808587031215611f6b57611f6a611cd1565b5b6000611f7987828801611d24565b9450506020611f8a87828801611e1c565b9350506040611f9b87828801611e1c565b9250506060611fac87828801611d24565b91505092959194509250565b611fc181611cfb565b82525050565b6000602082019050611fdc6000830184611fb8565b92915050565b611feb81611dfb565b82525050565b60006020820190506120066000830184611fe2565b92915050565b60008115159050919050565b6120218161200c565b811461202c57600080fd5b50565b60008135905061203e81612018565b92915050565b60008060008060008060008060006101208a8c03121561206757612066611cd1565b5b60006120758c828d01611d24565b99505060206120868c828d01611e1c565b98505060406120978c828d01611e1c565b97505060606120a88c828d01611e1c565b96505060806120b98c828d01611e1c565b95505060a06120ca8c828d01611e1c565b94505060c06120db8c828d01611e1c565b93505060e06120ec8c828d0161202f565b9250506101006120fe8c828d01611e1c565b9150509295985092959850929598565b600082825260208201905092915050565b7f43726f776466756e64206e6f742066696e697368656400000000000000000000600082015250565b600061215560168361210e565b91506121608261211f565b602082019050919050565b6000602082019050818103600083015261218481612148565b9050919050565b7f4e487b7100000000000000000000000000000000000000000000000000000000600052602160045260246000fd5b7f43726f776466756e64204661696c656400000000000000000000000000000000600082015250565b60006121f060108361210e565b91506121fb826121ba565b602082019050919050565b6000602082019050818103600083015261221f816121e3565b9050919050565b7f4e487b7100000000000000000000000000000000000000000000000000000000600052603260045260246000fd5b7f4e487b7100000000000000000000000000000000000000000000000000000000600052601160045260246000fd5b600061228f82611dfb565b91507fffffffffffffffffffffffffffffffffffffffffffffffffffffffffffffffff8214156122c2576122c1612255565b5b600182019050919050565b60006040820190506122e26000830185611fe2565b6122ef6020830184611fb8565b9392505050565b7f50726f6a656374206e6f7420696e697469617465640000000000000000000000600082015250565b600061232c60158361210e565b9150612337826122f6565b602082019050919050565b6000602082019050818103600083015261235b8161231f565b9050919050565b7f50726f6a6563742066756c6c7920737570706f72746564000000000000000000600082015250565b600061239860178361210e565b91506123a382612362565b602082019050919050565b600060208201905081810360008301526123c78161238b565b9050919050565b6000815190506123dd81611e05565b92915050565b6000602082840312156123f9576123f8611cd1565b5b6000612407848285016123ce565b91505092915050565b600061241b82611dfb565b915061242683611dfb565b92508282101561243957612438612255565b5b828203905092915050565b600061244f82611dfb565b915061245a83611dfb565b9250817fffffffffffffffffffffffffffffffffffffffffffffffffffffffffffffffff048311821515161561249357612492612255565b5b828202905092915050565b7f4e487b7100000000000000000000000000000000000000000000000000000000600052601260045260246000fd5b60006124d882611dfb565b91506124e383611dfb565b9250826124f3576124f261249e565b5b828204905092915050565b600061250982611dfb565b915061251483611dfb565b9250827fffffffffffffffffffffffffffffffffffffffffffffffffffffffffffffffff0382111561254957612548612255565b5b828201905092915050565b600481106125655761256461218b565b5b50565b600081905061257682612554565b919050565b600061258682612568565b9050919050565b6125968161257b565b82525050565b60006080820190506125b16000830187611fe2565b6125be6020830186611fb8565b6125cb604083018561258d565b6125d86060830184611fe2565b95945050505050565b7f50726f6a6563742077617320696e697469617465640000000000000000000000600082015250565b600061261760158361210e565b9150612622826125e1565b602082019050919050565b600060208201905081810360008301526126468161260a565b9050919050565b7f41647669736f7279206f6e6c79206265747765656e20322520616e6420352500600082015250565b6000612683601f8361210e565b915061268e8261264d565b602082019050919050565b600060208201905081810360008301526126b281612676565b9050919050565b7f50726f6a6563742057616c6c6574206f6e6c79206265747765656e203737252060008201527f616e642038302500000000000000000000000000000000000000000000000000602082015250565b600061271560278361210e565b9150612720826126b9565b604082019050919050565b6000602082019050818103600083015261274481612708565b9050919050565b7f4f776e61626c653a206e6577206f776e657220697320746865207a65726f206160008201527f6464726573730000000000000000000000000000000000000000000000000000602082015250565b60006127a760268361210e565b91506127b28261274b565b604082019050919050565b600060208201905081810360008301526127d68161279a565b9050919050565b7f5265656e7472616e637947756172643a207265656e7472616e742063616c6c00600082015250565b6000612813601f8361210e565b915061281e826127dd565b602082019050919050565b6000602082019050818103600083015261284281612806565b9050919050565b7f4e6f7420417574686f72697a6564000000000000000000000000000000000000600082015250565b600061287f600e8361210e565b915061288a82612849565b602082019050919050565b600060208201905081810360008301526128ae81612872565b9050919050565b6000815190506128c481611d0d565b92915050565b6000602082840312156128e0576128df611cd1565b5b60006128ee848285016128b5565b91505092915050565b600060608201905061290c6000830186611fb8565b6129196020830185611fb8565b6129266040830184611fe2565b949350505050565b7f4f776e61626c653a2063616c6c6572206973206e6f7420746865206f776e6572600082015250565b600061296460208361210e565b915061296f8261292e565b602082019050919050565b6000602082019050818103600083015261299381612957565b9050919050565b60006040820190506129af6000830185611fb8565b6129bc6020830184611fe2565b9392505050565b6000815190506129d281612018565b92915050565b6000602082840312156129ee576129ed611cd1565b5b60006129fc848285016129c3565b91505092915050565b7f5361666545524332303a204552433230206f7065726174696f6e20646964206e60008201527f6f74207375636365656400000000000000000000000000000000000000000000602082015250565b6000612a61602a8361210e565b9150612a6c82612a05565b604082019050919050565b60006020820190508181036000830152612a9081612a54565b9050919050565b7f416464726573733a20696e73756666696369656e742062616c616e636520666f60008201527f722063616c6c0000000000000000000000000000000000000000000000000000602082015250565b6000612af360268361210e565b9150612afe82612a97565b604082019050919050565b60006020820190508181036000830152612b2281612ae6565b9050919050565b600081519050919050565b600081905092915050565b60005b83811015612b5d578082015181840152602081019050612b42565b83811115612b6c576000848401525b50505050565b6000612b7d82612b29565b612b878185612b34565b9350612b97818560208601612b3f565b80840191505092915050565b6000612baf8284612b72565b915081905092915050565b7f416464726573733a2063616c6c20746f206e6f6e2d636f6e7472616374000000600082015250565b6000612bf0601d8361210e565b9150612bfb82612bba565b602082019050919050565b60006020820190508181036000830152612c1f81612be3565b9050919050565b600081519050919050565b6000612c3c82612c26565b612c46818561210e565b9350612c56818560208601612b3f565b612c5f81611d3e565b840191505092915050565b60006020820190508181036000830152612c848184612c31565b90509291505056fea2646970667358221220e31d400a4f86d0302e64e13af64fe10b05dcaa175b2dd1508d3043b141b918e764736f6c634300080b0033",
  "linkReferences": {},
  "deployedLinkReferences": {}
}