{
  "_format": "hh-sol-artifact-1",
  "contractName": "Escrow",
  "sourceName": "contracts/ERC721/Escrow.sol",
  "abi": [
    {
      "inputs": [
        {
          "internalType": "address",
          "name": "_token",
          "type": "address"
        }
      ],
      "stateMutability": "nonpayable",
      "type": "constructor"
    },
    {
      "anonymous": false,
      "inputs": [
        {
          "indexed": true,
          "internalType": "address",
          "name": "payee",
          "type": "address"
        },
        {
          "indexed": false,
          "internalType": "uint256",
          "name": "talaxAmount",
          "type": "uint256"
        },
        {
          "indexed": false,
          "internalType": "address",
          "name": "nftContract",
          "type": "address"
        },
        {
          "indexed": false,
          "internalType": "uint256",
          "name": "tokenId",
          "type": "uint256"
        }
      ],
      "name": "Deposited",
      "type": "event"
    },
    {
      "anonymous": false,
      "inputs": [
        {
          "indexed": true,
          "internalType": "address",
          "name": "payee",
          "type": "address"
        },
        {
          "indexed": true,
          "internalType": "address",
          "name": "nftContract",
          "type": "address"
        },
        {
          "indexed": false,
          "internalType": "uint256",
          "name": "tokenId",
          "type": "uint256"
        }
      ],
      "name": "NFTClaimed",
      "type": "event"
    },
    {
      "anonymous": false,
      "inputs": [
        {
          "indexed": true,
          "internalType": "address",
          "name": "previousOwner",
          "type": "address"
        },
        {
          "indexed": true,
          "internalType": "address",
          "name": "newOwner",
          "type": "address"
        }
      ],
      "name": "OwnershipTransferred",
      "type": "event"
    },
    {
      "anonymous": false,
      "inputs": [
        {
          "indexed": true,
          "internalType": "address",
          "name": "payee",
          "type": "address"
        },
        {
          "indexed": false,
          "internalType": "uint256",
          "name": "talaxAmount",
          "type": "uint256"
        },
        {
          "indexed": false,
          "internalType": "address",
          "name": "nftContract",
          "type": "address"
        }
      ],
      "name": "Withdrawn",
      "type": "event"
    },
    {
      "inputs": [
        {
          "internalType": "address",
          "name": "nftContract",
          "type": "address"
        },
        {
          "internalType": "uint256",
          "name": "tokenId",
          "type": "uint256"
        }
      ],
      "name": "claimNFT",
      "outputs": [],
      "stateMutability": "nonpayable",
      "type": "function"
    },
    {
      "inputs": [
        {
          "internalType": "address",
          "name": "nftContract",
          "type": "address"
        },
        {
          "internalType": "uint256",
          "name": "tokenId",
          "type": "uint256"
        },
        {
          "internalType": "uint256",
          "name": "amount",
          "type": "uint256"
        }
      ],
      "name": "deposit",
      "outputs": [],
      "stateMutability": "nonpayable",
      "type": "function"
    },
    {
      "inputs": [
        {
          "internalType": "address",
          "name": "nftContract",
          "type": "address"
        }
      ],
      "name": "getCapstone",
      "outputs": [
        {
          "internalType": "uint256",
          "name": "",
          "type": "uint256"
        }
      ],
      "stateMutability": "view",
      "type": "function"
    },
    {
      "inputs": [
        {
          "internalType": "address",
          "name": "nftContract",
          "type": "address"
        }
      ],
      "name": "getWithdrawalAble",
      "outputs": [
        {
          "internalType": "uint256",
          "name": "",
          "type": "uint256"
        }
      ],
      "stateMutability": "view",
      "type": "function"
    },
    {
      "inputs": [
        {
          "internalType": "address",
          "name": "nftContract",
          "type": "address"
        },
        {
          "internalType": "uint256",
          "name": "duration",
          "type": "uint256"
        },
        {
          "internalType": "uint256",
          "name": "soft",
          "type": "uint256"
        },
        {
          "internalType": "uint256",
          "name": "medium",
          "type": "uint256"
        },
        {
          "internalType": "uint256",
          "name": "hard",
          "type": "uint256"
        }
      ],
      "name": "initiateNFTProject",
      "outputs": [],
      "stateMutability": "nonpayable",
      "type": "function"
    },
    {
      "inputs": [],
      "name": "owner",
      "outputs": [
        {
          "internalType": "address",
          "name": "",
          "type": "address"
        }
      ],
      "stateMutability": "view",
      "type": "function"
    },
    {
      "inputs": [],
      "name": "renounceOwnership",
      "outputs": [],
      "stateMutability": "nonpayable",
      "type": "function"
    },
    {
      "inputs": [
        {
          "internalType": "address",
          "name": "newOwner",
          "type": "address"
        }
      ],
      "name": "transferOwnership",
      "outputs": [],
      "stateMutability": "nonpayable",
      "type": "function"
    },
    {
      "inputs": [
        {
          "internalType": "address",
          "name": "nftContract",
          "type": "address"
        }
      ],
      "name": "withdraw",
      "outputs": [],
      "stateMutability": "nonpayable",
      "type": "function"
    },
    {
      "inputs": [
        {
          "internalType": "address",
          "name": "nftContract",
          "type": "address"
        }
      ],
      "name": "withdrawalAllowed",
      "outputs": [
        {
          "internalType": "bool",
          "name": "",
          "type": "bool"
        }
      ],
      "stateMutability": "view",
      "type": "function"
    }
  ],
  "bytecode": "0x60806040523480156200001157600080fd5b5060405162002356380380620023568339818101604052810190620000379190620001dc565b620000576200004b620000a660201b60201c565b620000ae60201b60201c565b6001808190555080600360006101000a81548173ffffffffffffffffffffffffffffffffffffffff021916908373ffffffffffffffffffffffffffffffffffffffff160217905550506200020e565b600033905090565b60008060009054906101000a900473ffffffffffffffffffffffffffffffffffffffff169050816000806101000a81548173ffffffffffffffffffffffffffffffffffffffff021916908373ffffffffffffffffffffffffffffffffffffffff1602179055508173ffffffffffffffffffffffffffffffffffffffff168173ffffffffffffffffffffffffffffffffffffffff167f8be0079c531659141344cd1fd0a4f28419497f9722a3daafe3b4186f6b6457e060405160405180910390a35050565b600080fd5b600073ffffffffffffffffffffffffffffffffffffffff82169050919050565b6000620001a48262000177565b9050919050565b620001b68162000197565b8114620001c257600080fd5b50565b600081519050620001d681620001ab565b92915050565b600060208284031215620001f557620001f462000172565b5b60006200020584828501620001c5565b91505092915050565b612138806200021e6000396000f3fe608060405234801561001057600080fd5b506004361061009e5760003560e01c8063715018a611610066578063715018a6146101435780638da5cb5b1461014d578063945564661461016b57806395adab011461019b578063f2fde38b146101cb5761009e565b80630efe6a8b146100a357806333a10cc1146100bf57806351cff8d9146100db57806357e7d40a146100f7578063685ca19414610113575b600080fd5b6100bd60048036038101906100b891906116ff565b6101e7565b005b6100d960048036038101906100d49190611752565b61052b565b005b6100f560048036038101906100f09190611792565b610b14565b005b610111600480360381019061010c91906117bf565b610d00565b005b61012d60048036038101906101289190611792565b610ec6565b60405161013a9190611855565b60405180910390f35b61014b610f25565b005b610155610f39565b604051610162919061187f565b60405180910390f35b61018560048036038101906101809190611792565b610f62565b60405161019291906118a9565b60405180910390f35b6101b560048036038101906101b09190611792565b61104f565b6040516101c291906118a9565b60405180910390f35b6101e560048036038101906101e09190611792565b61109b565b005b6101ef61111f565b6000600260008573ffffffffffffffffffffffffffffffffffffffff1673ffffffffffffffffffffffffffffffffffffffff16815260200190815260200160002090508060000160019054906101000a900460ff16610283576040517f08c379a000000000000000000000000000000000000000000000000000000000815260040161027a90611921565b60405180910390fd5b6002600381111561029757610296611941565b5b8160000160009054906101000a900460ff1660038111156102bb576102ba611941565b5b14156102fc576040517f08c379a00000000000000000000000000000000000000000000000000000000081526004016102f3906119bc565b60405180910390fd5b818160080160008360000160009054906101000a900460ff16600381111561032757610326611941565b5b600381111561033957610338611941565b5b815260200190815260200160002060003373ffffffffffffffffffffffffffffffffffffffff1673ffffffffffffffffffffffffffffffffffffffff16815260200190815260200160002060008282546103939190611a0b565b92505081905550818160020160008282546103ae9190611a0b565b925050819055506103e3600360009054906101000a900473ffffffffffffffffffffffffffffffffffffffff1633308561116f565b80600501548160020154106104315760038160000160006101000a81548160ff0219169083600381111561041a57610419611941565b5b0217905550806005015481600601819055506104cb565b806004015481600201541061047f5760028160000160006101000a81548160ff0219169083600381111561046857610467611941565b5b0217905550806004015481600601819055506104ca565b80600301548160020154106104c95760018160000160006101000a81548160ff021916908360038111156104b6576104b5611941565b5b0217905550806003015481600601819055505b5b5b3373ffffffffffffffffffffffffffffffffffffffff167fc490a74c1058132dffb93944d555ddd1817ae53b7367ea1126ff123b1b134a5883868660405161051593929190611a61565b60405180910390a2506105266111f8565b505050565b61053361111f565b6000600260008473ffffffffffffffffffffffffffffffffffffffff1673ffffffffffffffffffffffffffffffffffffffff16815260200190815260200160002090506000600381111561058a57610589611941565b5b8160000160009054906101000a900460ff1660038111156105ae576105ad611941565b5b14156105ef576040517f08c379a00000000000000000000000000000000000000000000000000000000081526004016105e690611ae4565b60405180910390fd5b600081600701600080600381111561060a57610609611941565b5b600381111561061c5761061b611941565b5b8152602001908152602001600020600084815260200190815260200160002060009054906101000a900473ffffffffffffffffffffffffffffffffffffffff16905060008260070160006001600381111561067a57610679611941565b5b600381111561068c5761068b611941565b5b8152602001908152602001600020600085815260200190815260200160002060009054906101000a900473ffffffffffffffffffffffffffffffffffffffff1690506000836007016000600260038111156106ea576106e9611941565b5b60038111156106fc576106fb611941565b5b8152602001908152602001600020600086815260200190815260200160002060009054906101000a900473ffffffffffffffffffffffffffffffffffffffff16905060038081111561075157610750611941565b5b8460000160009054906101000a900460ff16600381111561077557610774611941565b5b141561085a573373ffffffffffffffffffffffffffffffffffffffff168373ffffffffffffffffffffffffffffffffffffffff1614806107e057503373ffffffffffffffffffffffffffffffffffffffff168273ffffffffffffffffffffffffffffffffffffffff16145b8061081657503373ffffffffffffffffffffffffffffffffffffffff168173ffffffffffffffffffffffffffffffffffffffff16145b610855576040517f08c379a000000000000000000000000000000000000000000000000000000000815260040161084c90611b50565b60405180910390fd5b6109b1565b6002600381111561086e5761086d611941565b5b8460000160009054906101000a900460ff16600381111561089257610891611941565b5b1415610941573373ffffffffffffffffffffffffffffffffffffffff168373ffffffffffffffffffffffffffffffffffffffff1614806108fd57503373ffffffffffffffffffffffffffffffffffffffff168273ffffffffffffffffffffffffffffffffffffffff16145b61093c576040517f08c379a000000000000000000000000000000000000000000000000000000000815260040161093390611b50565b60405180910390fd5b6109b0565b3373ffffffffffffffffffffffffffffffffffffffff168373ffffffffffffffffffffffffffffffffffffffff16146109af576040517f08c379a00000000000000000000000000000000000000000000000000000000081526004016109a690611b50565b60405180910390fd5b5b5b60008673ffffffffffffffffffffffffffffffffffffffff16636352211e876040518263ffffffff1660e01b81526004016109ec91906118a9565b602060405180830381865afa158015610a09573d6000803e3d6000fd5b505050506040513d601f19601f82011682018060405250810190610a2d9190611b85565b90508673ffffffffffffffffffffffffffffffffffffffff166323b872dd8233896040518463ffffffff1660e01b8152600401610a6c93929190611bb2565b600060405180830381600087803b158015610a8657600080fd5b505af1158015610a9a573d6000803e3d6000fd5b505050508673ffffffffffffffffffffffffffffffffffffffff163373ffffffffffffffffffffffffffffffffffffffff167f01f5ac4779f06ec54cc32436bd2146466caa8b68fbd6afbab76fd4e4df6fe31988604051610afb91906118a9565b60405180910390a35050505050610b106111f8565b5050565b610b1c61111f565b6000600260008373ffffffffffffffffffffffffffffffffffffffff1673ffffffffffffffffffffffffffffffffffffffff168152602001908152602001600020905060008160080160008360000160009054906101000a900460ff166003811115610b8b57610b8a611941565b5b6003811115610b9d57610b9c611941565b5b815260200190815260200160002060003373ffffffffffffffffffffffffffffffffffffffff1673ffffffffffffffffffffffffffffffffffffffff1681526020019081526020016000205490508160080160008360000160009054906101000a900460ff166003811115610c1557610c14611941565b5b6003811115610c2757610c26611941565b5b815260200190815260200160002060003373ffffffffffffffffffffffffffffffffffffffff1673ffffffffffffffffffffffffffffffffffffffff16815260200190815260200160002060009055610ca3600360009054906101000a900473ffffffffffffffffffffffffffffffffffffffff163383611201565b3373ffffffffffffffffffffffffffffffffffffffff167fcbcdbdf10631a43cc99c80acace8232649421c3f4f73919f16013d47c83a687a8285604051610ceb929190611be9565b60405180910390a25050610cfd6111f8565b50565b610d08611287565b600260008673ffffffffffffffffffffffffffffffffffffffff1673ffffffffffffffffffffffffffffffffffffffff16815260200190815260200160002060000160019054906101000a900460ff1615610d98576040517f08c379a0000000000000000000000000000000000000000000000000000000008152600401610d8f90611c5e565b60405180910390fd5b4284610da49190611a0b565b600260008773ffffffffffffffffffffffffffffffffffffffff1673ffffffffffffffffffffffffffffffffffffffff1681526020019081526020016000206001018190555082600260008773ffffffffffffffffffffffffffffffffffffffff1673ffffffffffffffffffffffffffffffffffffffff1681526020019081526020016000206003018190555081600260008773ffffffffffffffffffffffffffffffffffffffff1673ffffffffffffffffffffffffffffffffffffffff1681526020019081526020016000206004018190555080600260008773ffffffffffffffffffffffffffffffffffffffff1673ffffffffffffffffffffffffffffffffffffffff168152602001908152602001600020600501819055505050505050565b600042600260008473ffffffffffffffffffffffffffffffffffffffff1673ffffffffffffffffffffffffffffffffffffffff168152602001908152602001600020600101541015610f1b5760019050610f20565b600090505b919050565b610f2d611287565b610f376000611305565b565b60008060009054906101000a900473ffffffffffffffffffffffffffffffffffffffff16905090565b600080600260008473ffffffffffffffffffffffffffffffffffffffff1673ffffffffffffffffffffffffffffffffffffffff1681526020019081526020016000209050610faf83610ec6565b15611044578060080160008260000160009054906101000a900460ff166003811115610fde57610fdd611941565b5b6003811115610ff057610fef611941565b5b815260200190815260200160002060003373ffffffffffffffffffffffffffffffffffffffff1673ffffffffffffffffffffffffffffffffffffffff1681526020019081526020016000205491505061104a565b60009150505b919050565b6000600260008373ffffffffffffffffffffffffffffffffffffffff1673ffffffffffffffffffffffffffffffffffffffff168152602001908152602001600020600601549050919050565b6110a3611287565b600073ffffffffffffffffffffffffffffffffffffffff168173ffffffffffffffffffffffffffffffffffffffff161415611113576040517f08c379a000000000000000000000000000000000000000000000000000000000815260040161110a90611cf0565b60405180910390fd5b61111c81611305565b50565b60026001541415611165576040517f08c379a000000000000000000000000000000000000000000000000000000000815260040161115c90611d5c565b60405180910390fd5b6002600181905550565b6111f2846323b872dd60e01b85858560405160240161119093929190611bb2565b604051602081830303815290604052907bffffffffffffffffffffffffffffffffffffffffffffffffffffffff19166020820180517bffffffffffffffffffffffffffffffffffffffffffffffffffffffff83818316178352505050506113c9565b50505050565b60018081905550565b6112828363a9059cbb60e01b8484604051602401611220929190611d7c565b604051602081830303815290604052907bffffffffffffffffffffffffffffffffffffffffffffffffffffffff19166020820180517bffffffffffffffffffffffffffffffffffffffffffffffffffffffff83818316178352505050506113c9565b505050565b61128f611490565b73ffffffffffffffffffffffffffffffffffffffff166112ad610f39565b73ffffffffffffffffffffffffffffffffffffffff1614611303576040517f08c379a00000000000000000000000000000000000000000000000000000000081526004016112fa90611df1565b60405180910390fd5b565b60008060009054906101000a900473ffffffffffffffffffffffffffffffffffffffff169050816000806101000a81548173ffffffffffffffffffffffffffffffffffffffff021916908373ffffffffffffffffffffffffffffffffffffffff1602179055508173ffffffffffffffffffffffffffffffffffffffff168173ffffffffffffffffffffffffffffffffffffffff167f8be0079c531659141344cd1fd0a4f28419497f9722a3daafe3b4186f6b6457e060405160405180910390a35050565b600061142b826040518060400160405280602081526020017f5361666545524332303a206c6f772d6c6576656c2063616c6c206661696c65648152508573ffffffffffffffffffffffffffffffffffffffff166114989092919063ffffffff16565b905060008151111561148b578080602001905181019061144b9190611e3d565b61148a576040517f08c379a000000000000000000000000000000000000000000000000000000000815260040161148190611edc565b60405180910390fd5b5b505050565b600033905090565b60606114a784846000856114b0565b90509392505050565b6060824710156114f5576040517f08c379a00000000000000000000000000000000000000000000000000000000081526004016114ec90611f6e565b60405180910390fd5b6000808673ffffffffffffffffffffffffffffffffffffffff16858760405161151e9190612008565b60006040518083038185875af1925050503d806000811461155b576040519150601f19603f3d011682016040523d82523d6000602084013e611560565b606091505b50915091506115718783838761157d565b92505050949350505050565b606083156115e0576000835114156115d857611598856115f3565b6115d7576040517f08c379a00000000000000000000000000000000000000000000000000000000081526004016115ce9061206b565b60405180910390fd5b5b8290506115eb565b6115ea8383611616565b5b949350505050565b6000808273ffffffffffffffffffffffffffffffffffffffff163b119050919050565b6000825111156116295781518083602001fd5b806040517f08c379a000000000000000000000000000000000000000000000000000000000815260040161165d91906120e0565b60405180910390fd5b600080fd5b600073ffffffffffffffffffffffffffffffffffffffff82169050919050565b60006116968261166b565b9050919050565b6116a68161168b565b81146116b157600080fd5b50565b6000813590506116c38161169d565b92915050565b6000819050919050565b6116dc816116c9565b81146116e757600080fd5b50565b6000813590506116f9816116d3565b92915050565b60008060006060848603121561171857611717611666565b5b6000611726868287016116b4565b9350506020611737868287016116ea565b9250506040611748868287016116ea565b9150509250925092565b6000806040838503121561176957611768611666565b5b6000611777858286016116b4565b9250506020611788858286016116ea565b9150509250929050565b6000602082840312156117a8576117a7611666565b5b60006117b6848285016116b4565b91505092915050565b600080600080600060a086880312156117db576117da611666565b5b60006117e9888289016116b4565b95505060206117fa888289016116ea565b945050604061180b888289016116ea565b935050606061181c888289016116ea565b925050608061182d888289016116ea565b9150509295509295909350565b60008115159050919050565b61184f8161183a565b82525050565b600060208201905061186a6000830184611846565b92915050565b6118798161168b565b82525050565b60006020820190506118946000830184611870565b92915050565b6118a3816116c9565b82525050565b60006020820190506118be600083018461189a565b92915050565b600082825260208201905092915050565b7f50726f6a656374206e6f7420696e697469617465640000000000000000000000600082015250565b600061190b6015836118c4565b9150611916826118d5565b602082019050919050565b6000602082019050818103600083015261193a816118fe565b9050919050565b7f4e487b7100000000000000000000000000000000000000000000000000000000600052602160045260246000fd5b7f50726f6a6563742066756c6c7920737570706f72746564000000000000000000600082015250565b60006119a66017836118c4565b91506119b182611970565b602082019050919050565b600060208201905081810360008301526119d581611999565b9050919050565b7f4e487b7100000000000000000000000000000000000000000000000000000000600052601160045260246000fd5b6000611a16826116c9565b9150611a21836116c9565b9250827fffffffffffffffffffffffffffffffffffffffffffffffffffffffffffffffff03821115611a5657611a556119dc565b5b828201905092915050565b6000606082019050611a76600083018661189a565b611a836020830185611870565b611a90604083018461189a565b949350505050565b7f43726f776466756e64204661696c656400000000000000000000000000000000600082015250565b6000611ace6010836118c4565b9150611ad982611a98565b602082019050919050565b60006020820190508181036000830152611afd81611ac1565b9050919050565b7f4e6f7420417574686f72697a6564000000000000000000000000000000000000600082015250565b6000611b3a600e836118c4565b9150611b4582611b04565b602082019050919050565b60006020820190508181036000830152611b6981611b2d565b9050919050565b600081519050611b7f8161169d565b92915050565b600060208284031215611b9b57611b9a611666565b5b6000611ba984828501611b70565b91505092915050565b6000606082019050611bc76000830186611870565b611bd46020830185611870565b611be1604083018461189a565b949350505050565b6000604082019050611bfe600083018561189a565b611c0b6020830184611870565b9392505050565b7f50726f6a6563742077617320696e697469617465640000000000000000000000600082015250565b6000611c486015836118c4565b9150611c5382611c12565b602082019050919050565b60006020820190508181036000830152611c7781611c3b565b9050919050565b7f4f776e61626c653a206e6577206f776e657220697320746865207a65726f206160008201527f6464726573730000000000000000000000000000000000000000000000000000602082015250565b6000611cda6026836118c4565b9150611ce582611c7e565b604082019050919050565b60006020820190508181036000830152611d0981611ccd565b9050919050565b7f5265656e7472616e637947756172643a207265656e7472616e742063616c6c00600082015250565b6000611d46601f836118c4565b9150611d5182611d10565b602082019050919050565b60006020820190508181036000830152611d7581611d39565b9050919050565b6000604082019050611d916000830185611870565b611d9e602083018461189a565b9392505050565b7f4f776e61626c653a2063616c6c6572206973206e6f7420746865206f776e6572600082015250565b6000611ddb6020836118c4565b9150611de682611da5565b602082019050919050565b60006020820190508181036000830152611e0a81611dce565b9050919050565b611e1a8161183a565b8114611e2557600080fd5b50565b600081519050611e3781611e11565b92915050565b600060208284031215611e5357611e52611666565b5b6000611e6184828501611e28565b91505092915050565b7f5361666545524332303a204552433230206f7065726174696f6e20646964206e60008201527f6f74207375636365656400000000000000000000000000000000000000000000602082015250565b6000611ec6602a836118c4565b9150611ed182611e6a565b604082019050919050565b60006020820190508181036000830152611ef581611eb9565b9050919050565b7f416464726573733a20696e73756666696369656e742062616c616e636520666f60008201527f722063616c6c0000000000000000000000000000000000000000000000000000602082015250565b6000611f586026836118c4565b9150611f6382611efc565b604082019050919050565b60006020820190508181036000830152611f8781611f4b565b9050919050565b600081519050919050565b600081905092915050565b60005b83811015611fc2578082015181840152602081019050611fa7565b83811115611fd1576000848401525b50505050565b6000611fe282611f8e565b611fec8185611f99565b9350611ffc818560208601611fa4565b80840191505092915050565b60006120148284611fd7565b915081905092915050565b7f416464726573733a2063616c6c20746f206e6f6e2d636f6e7472616374000000600082015250565b6000612055601d836118c4565b91506120608261201f565b602082019050919050565b6000602082019050818103600083015261208481612048565b9050919050565b600081519050919050565b6000601f19601f8301169050919050565b60006120b28261208b565b6120bc81856118c4565b93506120cc818560208601611fa4565b6120d581612096565b840191505092915050565b600060208201905081810360008301526120fa81846120a7565b90509291505056fea2646970667358221220de626923aef950ec3085ad43a8fe9bdccc2388dcfdfd69314217c58b7019432264736f6c634300080b0033",
  "linkReferences": {},
  "deployedLinkReferences": {}
}