{
  "_format": "hh-sol-artifact-1",
  "contractName": "Escrow",
  "sourceName": "contracts/ERC721/Escrow.sol",
  "abi": [
    {
      "inputs": [
        {
          "internalType": "address",
          "name": "_token",
          "type": "address"
        }
      ],
      "stateMutability": "nonpayable",
      "type": "constructor"
    },
    {
      "anonymous": false,
      "inputs": [
        {
          "indexed": true,
          "internalType": "address",
          "name": "payee",
          "type": "address"
        },
        {
          "indexed": false,
          "internalType": "uint256",
          "name": "talaxAmount",
          "type": "uint256"
        },
        {
          "indexed": false,
          "internalType": "address",
          "name": "nftContract",
          "type": "address"
        },
        {
          "indexed": false,
          "internalType": "enum Escrow.Status",
          "name": "status",
          "type": "uint8"
        },
        {
          "indexed": false,
          "internalType": "uint256",
          "name": "tokenId",
          "type": "uint256"
        }
      ],
      "name": "Deposited",
      "type": "event"
    },
    {
      "anonymous": false,
      "inputs": [
        {
          "indexed": true,
          "internalType": "address",
          "name": "payee",
          "type": "address"
        },
        {
          "indexed": true,
          "internalType": "address",
          "name": "nftContract",
          "type": "address"
        },
        {
          "indexed": false,
          "internalType": "uint256",
          "name": "tokenId",
          "type": "uint256"
        }
      ],
      "name": "NFTClaimed",
      "type": "event"
    },
    {
      "anonymous": false,
      "inputs": [
        {
          "indexed": true,
          "internalType": "address",
          "name": "previousOwner",
          "type": "address"
        },
        {
          "indexed": true,
          "internalType": "address",
          "name": "newOwner",
          "type": "address"
        }
      ],
      "name": "OwnershipTransferred",
      "type": "event"
    },
    {
      "anonymous": false,
      "inputs": [
        {
          "indexed": true,
          "internalType": "address",
          "name": "payee",
          "type": "address"
        },
        {
          "indexed": false,
          "internalType": "uint256",
          "name": "talaxAmount",
          "type": "uint256"
        },
        {
          "indexed": false,
          "internalType": "address",
          "name": "nftContract",
          "type": "address"
        }
      ],
      "name": "Withdrawn",
      "type": "event"
    },
    {
      "inputs": [
        {
          "internalType": "address",
          "name": "_nftContract",
          "type": "address"
        },
        {
          "internalType": "uint256",
          "name": "_tokenId",
          "type": "uint256"
        },
        {
          "internalType": "enum Escrow.Status",
          "name": "_nftDepositStatus",
          "type": "uint8"
        }
      ],
      "name": "claimNFT",
      "outputs": [],
      "stateMutability": "nonpayable",
      "type": "function"
    },
    {
      "inputs": [
        {
          "internalType": "address",
          "name": "_nftContract",
          "type": "address"
        },
        {
          "internalType": "uint256",
          "name": "_tokenId",
          "type": "uint256"
        },
        {
          "internalType": "uint256",
          "name": "_amount",
          "type": "uint256"
        },
        {
          "internalType": "address",
          "name": "_artist",
          "type": "address"
        }
      ],
      "name": "deposit",
      "outputs": [],
      "stateMutability": "nonpayable",
      "type": "function"
    },
    {
      "inputs": [
        {
          "internalType": "address",
          "name": "nftContract",
          "type": "address"
        }
      ],
      "name": "getCapstone",
      "outputs": [
        {
          "internalType": "uint256",
          "name": "",
          "type": "uint256"
        }
      ],
      "stateMutability": "view",
      "type": "function"
    },
    {
      "inputs": [
        {
          "internalType": "address",
          "name": "nftContract",
          "type": "address"
        }
      ],
      "name": "getWithdrawalAble",
      "outputs": [
        {
          "internalType": "uint256",
          "name": "",
          "type": "uint256"
        }
      ],
      "stateMutability": "view",
      "type": "function"
    },
    {
      "inputs": [
        {
          "internalType": "address",
          "name": "_nftContract",
          "type": "address"
        },
        {
          "internalType": "uint256",
          "name": "_duration",
          "type": "uint256"
        },
        {
          "internalType": "uint256",
          "name": "_soft",
          "type": "uint256"
        },
        {
          "internalType": "uint256",
          "name": "_medium",
          "type": "uint256"
        },
        {
          "internalType": "uint256",
          "name": "_hard",
          "type": "uint256"
        },
        {
          "internalType": "uint256",
          "name": "_projectWallet",
          "type": "uint256"
        },
        {
          "internalType": "uint256",
          "name": "_advisory",
          "type": "uint256"
        },
        {
          "internalType": "bool",
          "name": "_isCommercial",
          "type": "bool"
        },
        {
          "internalType": "uint256",
          "name": "_tokenPrice",
          "type": "uint256"
        }
      ],
      "name": "initiateNFTProject",
      "outputs": [],
      "stateMutability": "nonpayable",
      "type": "function"
    },
    {
      "inputs": [],
      "name": "owner",
      "outputs": [
        {
          "internalType": "address",
          "name": "",
          "type": "address"
        }
      ],
      "stateMutability": "view",
      "type": "function"
    },
    {
      "inputs": [],
      "name": "renounceOwnership",
      "outputs": [],
      "stateMutability": "nonpayable",
      "type": "function"
    },
    {
      "inputs": [
        {
          "internalType": "address",
          "name": "newOwner",
          "type": "address"
        }
      ],
      "name": "transferOwnership",
      "outputs": [],
      "stateMutability": "nonpayable",
      "type": "function"
    },
    {
      "inputs": [
        {
          "internalType": "address",
          "name": "nftContract",
          "type": "address"
        }
      ],
      "name": "withdraw",
      "outputs": [],
      "stateMutability": "nonpayable",
      "type": "function"
    },
    {
      "inputs": [
        {
          "internalType": "address",
          "name": "nftContract",
          "type": "address"
        }
      ],
      "name": "withdrawalAllowed",
      "outputs": [
        {
          "internalType": "bool",
          "name": "",
          "type": "bool"
        }
      ],
      "stateMutability": "view",
      "type": "function"
    }
  ],
  "bytecode": "0x60806040523480156200001157600080fd5b50604051620024ee380380620024ee8339818101604052810190620000379190620001dc565b620000576200004b620000a660201b60201c565b620000ae60201b60201c565b6001808190555080600360006101000a81548173ffffffffffffffffffffffffffffffffffffffff021916908373ffffffffffffffffffffffffffffffffffffffff160217905550506200020e565b600033905090565b60008060009054906101000a900473ffffffffffffffffffffffffffffffffffffffff169050816000806101000a81548173ffffffffffffffffffffffffffffffffffffffff021916908373ffffffffffffffffffffffffffffffffffffffff1602179055508173ffffffffffffffffffffffffffffffffffffffff168173ffffffffffffffffffffffffffffffffffffffff167f8be0079c531659141344cd1fd0a4f28419497f9722a3daafe3b4186f6b6457e060405160405180910390a35050565b600080fd5b600073ffffffffffffffffffffffffffffffffffffffff82169050919050565b6000620001a48262000177565b9050919050565b620001b68162000197565b8114620001c257600080fd5b50565b600081519050620001d681620001ab565b92915050565b600060208284031215620001f557620001f462000172565b5b60006200020584828501620001c5565b91505092915050565b6122d0806200021e6000396000f3fe608060405234801561001057600080fd5b506004361061009e5760003560e01c80639455646611610066578063945564661461013357806395adab01146101635780639e31d6ca14610193578063d90f44c4146101af578063f2fde38b146101cb5761009e565b806351cff8d9146100a3578063685ca194146100bf578063715018a6146100ef5780638b6099db146100f95780638da5cb5b14610115575b600080fd5b6100bd60048036038101906100b8919061165d565b6101e7565b005b6100d960048036038101906100d4919061165d565b6103b0565b6040516100e691906116a5565b60405180910390f35b6100f761040f565b005b610113600480360381019061010e91906116f6565b610423565b005b61011d6108a3565b60405161012a919061176c565b60405180910390f35b61014d6004803603810190610148919061165d565b6108cc565b60405161015a9190611796565b60405180910390f35b61017d6004803603810190610178919061165d565b6109b9565b60405161018a9190611796565b60405180910390f35b6101ad60048036038101906101a891906117d6565b610a08565b005b6101c960048036038101906101c49190611855565b610da5565b005b6101e560048036038101906101e0919061165d565b610ffe565b005b6101ef611082565b6000600260008373ffffffffffffffffffffffffffffffffffffffff1673ffffffffffffffffffffffffffffffffffffffff1681526020019081526020016000209050600081600d0160008360040160009054906101000a900460ff16600381111561025e5761025d61191f565b5b60038111156102705761026f61191f565b5b815260200190815260200160002060003373ffffffffffffffffffffffffffffffffffffffff1673ffffffffffffffffffffffffffffffffffffffff16815260200190815260200160002054905081600d0160008360040160009054906101000a900460ff1660038111156102e8576102e761191f565b5b60038111156102fa576102f961191f565b5b815260200190815260200160002060003373ffffffffffffffffffffffffffffffffffffffff1673ffffffffffffffffffffffffffffffffffffffff1681526020019081526020016000206000905561035333826110d2565b3373ffffffffffffffffffffffffffffffffffffffff167fcbcdbdf10631a43cc99c80acace8232649421c3f4f73919f16013d47c83a687a828560405161039b92919061194e565b60405180910390a250506103ad611103565b50565b600042600260008473ffffffffffffffffffffffffffffffffffffffff1673ffffffffffffffffffffffffffffffffffffffff168152602001908152602001600020600101541015610405576001905061040a565b600090505b919050565b61041761110c565b610421600061118a565b565b61042b611082565b6000600260008673ffffffffffffffffffffffffffffffffffffffff1673ffffffffffffffffffffffffffffffffffffffff168152602001908152602001600020905060008160040160009054906101000a900460ff1690508160000160009054906101000a900460ff166104d5576040517f08c379a00000000000000000000000000000000000000000000000000000000081526004016104cc906119d4565b60405180910390fd5b600260038111156104e9576104e861191f565b5b8260040160009054906101000a900460ff16600381111561050d5761050c61191f565b5b141561054e576040517f08c379a000000000000000000000000000000000000000000000000000000000815260040161054590611a40565b60405180910390fd5b8382600d0160008360038111156105685761056761191f565b5b600381111561057a5761057961191f565b5b815260200190815260200160002060003373ffffffffffffffffffffffffffffffffffffffff1673ffffffffffffffffffffffffffffffffffffffff16815260200190815260200160002060008282546105d49190611a8f565b925050819055503382600c0160008360038111156105f5576105f461191f565b5b60038111156106075761060661191f565b5b8152602001908152602001600020600087815260200190815260200160002060000160006101000a81548173ffffffffffffffffffffffffffffffffffffffff021916908373ffffffffffffffffffffffffffffffffffffffff1602179055508282600c0160008360038111156106815761068061191f565b5b60038111156106935761069261191f565b5b8152602001908152602001600020600087815260200190815260200160002060010160006101000a81548173ffffffffffffffffffffffffffffffffffffffff021916908373ffffffffffffffffffffffffffffffffffffffff160217905550838260020160008282546107079190611a8f565b9250508190555061073c600360009054906101000a900473ffffffffffffffffffffffffffffffffffffffff1633308761124e565b81600501600201548260020154106107935760038260040160006101000a81548160ff021916908360038111156107765761077561191f565b5b02179055508160050160020154826005016003018190555061083f565b81600501600101548260020154106107ea5760028260040160006101000a81548160ff021916908360038111156107cd576107cc61191f565b5b02179055508160050160010154826005016003018190555061083e565b816005016000015482600201541061083d5760018260040160006101000a81548160ff021916908360038111156108245761082361191f565b5b0217905550816005016000015482600501600301819055505b5b5b3373ffffffffffffffffffffffffffffffffffffffff167fde213e238f2a4ae1ff47591c45184b8846ee26654ae95d36e73fb03fe4f6293f8588848960405161088b9493929190611b2d565b60405180910390a2505061089d611103565b50505050565b60008060009054906101000a900473ffffffffffffffffffffffffffffffffffffffff16905090565b600080600260008473ffffffffffffffffffffffffffffffffffffffff1673ffffffffffffffffffffffffffffffffffffffff1681526020019081526020016000209050610919836103b0565b156109ae5780600d0160008260040160009054906101000a900460ff1660038111156109485761094761191f565b5b600381111561095a5761095961191f565b5b815260200190815260200160002060003373ffffffffffffffffffffffffffffffffffffffff1673ffffffffffffffffffffffffffffffffffffffff168152602001908152602001600020549150506109b4565b60009150505b919050565b6000600260008373ffffffffffffffffffffffffffffffffffffffff1673ffffffffffffffffffffffffffffffffffffffff168152602001908152602001600020600501600301549050919050565b610a10611082565b6000600260008573ffffffffffffffffffffffffffffffffffffffff1673ffffffffffffffffffffffffffffffffffffffff1681526020019081526020016000209050600081600c016000846003811115610a6e57610a6d61191f565b5b6003811115610a8057610a7f61191f565b5b815260200190815260200160002060008581526020019081526020016000206040518060400160405290816000820160009054906101000a900473ffffffffffffffffffffffffffffffffffffffff1673ffffffffffffffffffffffffffffffffffffffff1673ffffffffffffffffffffffffffffffffffffffff1681526020016001820160009054906101000a900473ffffffffffffffffffffffffffffffffffffffff1673ffffffffffffffffffffffffffffffffffffffff1673ffffffffffffffffffffffffffffffffffffffff1681525050905060006003811115610b6c57610b6b61191f565b5b8260040160009054906101000a900460ff166003811115610b9057610b8f61191f565b5b1415610bd1576040517f08c379a0000000000000000000000000000000000000000000000000000000008152600401610bc890611bbe565b60405180910390fd5b3373ffffffffffffffffffffffffffffffffffffffff16816000015173ffffffffffffffffffffffffffffffffffffffff1614610c43576040517f08c379a0000000000000000000000000000000000000000000000000000000008152600401610c3a90611c2a565b60405180910390fd5b60008573ffffffffffffffffffffffffffffffffffffffff16636352211e866040518263ffffffff1660e01b8152600401610c7e9190611796565b602060405180830381865afa158015610c9b573d6000803e3d6000fd5b505050506040513d601f19601f82011682018060405250810190610cbf9190611c5f565b90508573ffffffffffffffffffffffffffffffffffffffff166323b872dd8233886040518463ffffffff1660e01b8152600401610cfe93929190611c8c565b600060405180830381600087803b158015610d1857600080fd5b505af1158015610d2c573d6000803e3d6000fd5b505050508573ffffffffffffffffffffffffffffffffffffffff163373ffffffffffffffffffffffffffffffffffffffff167f01f5ac4779f06ec54cc32436bd2146466caa8b68fbd6afbab76fd4e4df6fe31987604051610d8d9190611796565b60405180910390a3505050610da0611103565b505050565b610dad61110c565b600260008a73ffffffffffffffffffffffffffffffffffffffff1673ffffffffffffffffffffffffffffffffffffffff16815260200190815260200160002060000160009054906101000a900460ff1615610e3d576040517f08c379a0000000000000000000000000000000000000000000000000000000008152600401610e3490611d0f565b60405180910390fd5b6000600260008b73ffffffffffffffffffffffffffffffffffffffff1673ffffffffffffffffffffffffffffffffffffffff16815260200190815260200160002090504289610e8c9190611a8f565b816001018190555087816005016000018190555086816005016001018190555085816005016002018190555081816003018190555060028410158015610ed3575060058511155b610f12576040517f08c379a0000000000000000000000000000000000000000000000000000000008152600401610f0990611d7b565b60405180910390fd5b8215610f7b57604d8510158015610f2a575060508511155b610f69576040517f08c379a0000000000000000000000000000000000000000000000000000000008152600401610f6090611e0d565b60405180910390fd5b60088160090160020181905550610fda565b60508510158015610f8d575060538511155b610fcc576040517f08c379a0000000000000000000000000000000000000000000000000000000008152600401610fc390611e0d565b60405180910390fd5b600581600901600201819055505b84816009016000018190555083816009016001018190555050505050505050505050565b61100661110c565b600073ffffffffffffffffffffffffffffffffffffffff168173ffffffffffffffffffffffffffffffffffffffff161415611076576040517f08c379a000000000000000000000000000000000000000000000000000000000815260040161106d90611e9f565b60405180910390fd5b61107f8161118a565b50565b600260015414156110c8576040517f08c379a00000000000000000000000000000000000000000000000000000000081526004016110bf90611f0b565b60405180910390fd5b6002600181905550565b6110ff600360009054906101000a900473ffffffffffffffffffffffffffffffffffffffff1683836112d7565b5050565b60018081905550565b61111461135d565b73ffffffffffffffffffffffffffffffffffffffff166111326108a3565b73ffffffffffffffffffffffffffffffffffffffff1614611188576040517f08c379a000000000000000000000000000000000000000000000000000000000815260040161117f90611f77565b60405180910390fd5b565b60008060009054906101000a900473ffffffffffffffffffffffffffffffffffffffff169050816000806101000a81548173ffffffffffffffffffffffffffffffffffffffff021916908373ffffffffffffffffffffffffffffffffffffffff1602179055508173ffffffffffffffffffffffffffffffffffffffff168173ffffffffffffffffffffffffffffffffffffffff167f8be0079c531659141344cd1fd0a4f28419497f9722a3daafe3b4186f6b6457e060405160405180910390a35050565b6112d1846323b872dd60e01b85858560405160240161126f93929190611c8c565b604051602081830303815290604052907bffffffffffffffffffffffffffffffffffffffffffffffffffffffff19166020820180517bffffffffffffffffffffffffffffffffffffffffffffffffffffffff8381831617835250505050611365565b50505050565b6113588363a9059cbb60e01b84846040516024016112f6929190611f97565b604051602081830303815290604052907bffffffffffffffffffffffffffffffffffffffffffffffffffffffff19166020820180517bffffffffffffffffffffffffffffffffffffffffffffffffffffffff8381831617835250505050611365565b505050565b600033905090565b60006113c7826040518060400160405280602081526020017f5361666545524332303a206c6f772d6c6576656c2063616c6c206661696c65648152508573ffffffffffffffffffffffffffffffffffffffff1661142c9092919063ffffffff16565b905060008151111561142757808060200190518101906113e79190611fd5565b611426576040517f08c379a000000000000000000000000000000000000000000000000000000000815260040161141d90612074565b60405180910390fd5b5b505050565b606061143b8484600085611444565b90509392505050565b606082471015611489576040517f08c379a000000000000000000000000000000000000000000000000000000000815260040161148090612106565b60405180910390fd5b6000808673ffffffffffffffffffffffffffffffffffffffff1685876040516114b291906121a0565b60006040518083038185875af1925050503d80600081146114ef576040519150601f19603f3d011682016040523d82523d6000602084013e6114f4565b606091505b509150915061150587838387611511565b92505050949350505050565b606083156115745760008351141561156c5761152c85611587565b61156b576040517f08c379a000000000000000000000000000000000000000000000000000000000815260040161156290612203565b60405180910390fd5b5b82905061157f565b61157e83836115aa565b5b949350505050565b6000808273ffffffffffffffffffffffffffffffffffffffff163b119050919050565b6000825111156115bd5781518083602001fd5b806040517f08c379a00000000000000000000000000000000000000000000000000000000081526004016115f19190612278565b60405180910390fd5b600080fd5b600073ffffffffffffffffffffffffffffffffffffffff82169050919050565b600061162a826115ff565b9050919050565b61163a8161161f565b811461164557600080fd5b50565b60008135905061165781611631565b92915050565b600060208284031215611673576116726115fa565b5b600061168184828501611648565b91505092915050565b60008115159050919050565b61169f8161168a565b82525050565b60006020820190506116ba6000830184611696565b92915050565b6000819050919050565b6116d3816116c0565b81146116de57600080fd5b50565b6000813590506116f0816116ca565b92915050565b600080600080608085870312156117105761170f6115fa565b5b600061171e87828801611648565b945050602061172f878288016116e1565b9350506040611740878288016116e1565b925050606061175187828801611648565b91505092959194509250565b6117668161161f565b82525050565b6000602082019050611781600083018461175d565b92915050565b611790816116c0565b82525050565b60006020820190506117ab6000830184611787565b92915050565b600481106117be57600080fd5b50565b6000813590506117d0816117b1565b92915050565b6000806000606084860312156117ef576117ee6115fa565b5b60006117fd86828701611648565b935050602061180e868287016116e1565b925050604061181f868287016117c1565b9150509250925092565b6118328161168a565b811461183d57600080fd5b50565b60008135905061184f81611829565b92915050565b60008060008060008060008060006101208a8c031215611878576118776115fa565b5b60006118868c828d01611648565b99505060206118978c828d016116e1565b98505060406118a88c828d016116e1565b97505060606118b98c828d016116e1565b96505060806118ca8c828d016116e1565b95505060a06118db8c828d016116e1565b94505060c06118ec8c828d016116e1565b93505060e06118fd8c828d01611840565b92505061010061190f8c828d016116e1565b9150509295985092959850929598565b7f4e487b7100000000000000000000000000000000000000000000000000000000600052602160045260246000fd5b60006040820190506119636000830185611787565b611970602083018461175d565b9392505050565b600082825260208201905092915050565b7f50726f6a656374206e6f7420696e697469617465640000000000000000000000600082015250565b60006119be601583611977565b91506119c982611988565b602082019050919050565b600060208201905081810360008301526119ed816119b1565b9050919050565b7f50726f6a6563742066756c6c7920737570706f72746564000000000000000000600082015250565b6000611a2a601783611977565b9150611a35826119f4565b602082019050919050565b60006020820190508181036000830152611a5981611a1d565b9050919050565b7f4e487b7100000000000000000000000000000000000000000000000000000000600052601160045260246000fd5b6000611a9a826116c0565b9150611aa5836116c0565b9250827fffffffffffffffffffffffffffffffffffffffffffffffffffffffffffffffff03821115611ada57611ad9611a60565b5b828201905092915050565b60048110611af657611af561191f565b5b50565b6000819050611b0782611ae5565b919050565b6000611b1782611af9565b9050919050565b611b2781611b0c565b82525050565b6000608082019050611b426000830187611787565b611b4f602083018661175d565b611b5c6040830185611b1e565b611b696060830184611787565b95945050505050565b7f43726f776466756e64204661696c656400000000000000000000000000000000600082015250565b6000611ba8601083611977565b9150611bb382611b72565b602082019050919050565b60006020820190508181036000830152611bd781611b9b565b9050919050565b7f4e6f7420417574686f72697a6564000000000000000000000000000000000000600082015250565b6000611c14600e83611977565b9150611c1f82611bde565b602082019050919050565b60006020820190508181036000830152611c4381611c07565b9050919050565b600081519050611c5981611631565b92915050565b600060208284031215611c7557611c746115fa565b5b6000611c8384828501611c4a565b91505092915050565b6000606082019050611ca1600083018661175d565b611cae602083018561175d565b611cbb6040830184611787565b949350505050565b7f50726f6a6563742077617320696e697469617465640000000000000000000000600082015250565b6000611cf9601583611977565b9150611d0482611cc3565b602082019050919050565b60006020820190508181036000830152611d2881611cec565b9050919050565b7f41647669736f7279206f6e6c79206265747765656e20322520616e6420352500600082015250565b6000611d65601f83611977565b9150611d7082611d2f565b602082019050919050565b60006020820190508181036000830152611d9481611d58565b9050919050565b7f50726f6a6563742057616c6c6574206f6e6c79206265747765656e203737252060008201527f616e642038302500000000000000000000000000000000000000000000000000602082015250565b6000611df7602783611977565b9150611e0282611d9b565b604082019050919050565b60006020820190508181036000830152611e2681611dea565b9050919050565b7f4f776e61626c653a206e6577206f776e657220697320746865207a65726f206160008201527f6464726573730000000000000000000000000000000000000000000000000000602082015250565b6000611e89602683611977565b9150611e9482611e2d565b604082019050919050565b60006020820190508181036000830152611eb881611e7c565b9050919050565b7f5265656e7472616e637947756172643a207265656e7472616e742063616c6c00600082015250565b6000611ef5601f83611977565b9150611f0082611ebf565b602082019050919050565b60006020820190508181036000830152611f2481611ee8565b9050919050565b7f4f776e61626c653a2063616c6c6572206973206e6f7420746865206f776e6572600082015250565b6000611f61602083611977565b9150611f6c82611f2b565b602082019050919050565b60006020820190508181036000830152611f9081611f54565b9050919050565b6000604082019050611fac600083018561175d565b611fb96020830184611787565b9392505050565b600081519050611fcf81611829565b92915050565b600060208284031215611feb57611fea6115fa565b5b6000611ff984828501611fc0565b91505092915050565b7f5361666545524332303a204552433230206f7065726174696f6e20646964206e60008201527f6f74207375636365656400000000000000000000000000000000000000000000602082015250565b600061205e602a83611977565b915061206982612002565b604082019050919050565b6000602082019050818103600083015261208d81612051565b9050919050565b7f416464726573733a20696e73756666696369656e742062616c616e636520666f60008201527f722063616c6c0000000000000000000000000000000000000000000000000000602082015250565b60006120f0602683611977565b91506120fb82612094565b604082019050919050565b6000602082019050818103600083015261211f816120e3565b9050919050565b600081519050919050565b600081905092915050565b60005b8381101561215a57808201518184015260208101905061213f565b83811115612169576000848401525b50505050565b600061217a82612126565b6121848185612131565b935061219481856020860161213c565b80840191505092915050565b60006121ac828461216f565b915081905092915050565b7f416464726573733a2063616c6c20746f206e6f6e2d636f6e7472616374000000600082015250565b60006121ed601d83611977565b91506121f8826121b7565b602082019050919050565b6000602082019050818103600083015261221c816121e0565b9050919050565b600081519050919050565b6000601f19601f8301169050919050565b600061224a82612223565b6122548185611977565b935061226481856020860161213c565b61226d8161222e565b840191505092915050565b60006020820190508181036000830152612292818461223f565b90509291505056fea26469706673582212206676bafd491913f0ba5cf92559a3bcdbf055e1b79c390b0744e4a6c257095c6964736f6c634300080b0033",
  "linkReferences": {},
  "deployedLinkReferences": {}
}