{
  "_format": "hh-sol-artifact-1",
  "contractName": "Escrow",
  "sourceName": "contracts/ERC721/Escrow.sol",
  "abi": [
    {
      "inputs": [
        {
          "internalType": "address",
          "name": "_token",
          "type": "address"
        }
      ],
      "stateMutability": "nonpayable",
      "type": "constructor"
    },
    {
      "anonymous": false,
      "inputs": [
        {
          "indexed": true,
          "internalType": "address",
          "name": "payee",
          "type": "address"
        },
        {
          "indexed": false,
          "internalType": "uint256",
          "name": "talaxAmount",
          "type": "uint256"
        },
        {
          "indexed": false,
          "internalType": "address",
          "name": "nftContract",
          "type": "address"
        },
        {
          "indexed": false,
          "internalType": "enum Escrow.Status",
          "name": "status",
          "type": "uint8"
        },
        {
          "indexed": false,
          "internalType": "uint256",
          "name": "tokenId",
          "type": "uint256"
        }
      ],
      "name": "Deposited",
      "type": "event"
    },
    {
      "anonymous": false,
      "inputs": [
        {
          "indexed": true,
          "internalType": "address",
          "name": "payee",
          "type": "address"
        },
        {
          "indexed": true,
          "internalType": "address",
          "name": "nftContract",
          "type": "address"
        },
        {
          "indexed": false,
          "internalType": "uint256",
          "name": "tokenId",
          "type": "uint256"
        }
      ],
      "name": "NFTClaimed",
      "type": "event"
    },
    {
      "anonymous": false,
      "inputs": [
        {
          "indexed": true,
          "internalType": "address",
          "name": "previousOwner",
          "type": "address"
        },
        {
          "indexed": true,
          "internalType": "address",
          "name": "newOwner",
          "type": "address"
        }
      ],
      "name": "OwnershipTransferred",
      "type": "event"
    },
    {
      "anonymous": false,
      "inputs": [
        {
          "indexed": true,
          "internalType": "address",
          "name": "payee",
          "type": "address"
        },
        {
          "indexed": false,
          "internalType": "uint256",
          "name": "talaxAmount",
          "type": "uint256"
        },
        {
          "indexed": false,
          "internalType": "address",
          "name": "nftContract",
          "type": "address"
        }
      ],
      "name": "Withdrawn",
      "type": "event"
    },
    {
      "inputs": [
        {
          "internalType": "address",
          "name": "_nftContract",
          "type": "address"
        },
        {
          "internalType": "uint256",
          "name": "_tokenId",
          "type": "uint256"
        },
        {
          "internalType": "enum Escrow.Status",
          "name": "_nftDepositStatus",
          "type": "uint8"
        }
      ],
      "name": "claimNFT",
      "outputs": [],
      "stateMutability": "nonpayable",
      "type": "function"
    },
    {
      "inputs": [
        {
          "internalType": "address",
          "name": "_nftContract",
          "type": "address"
        },
        {
          "internalType": "uint256",
          "name": "_tokenId",
          "type": "uint256"
        },
        {
          "internalType": "uint256",
          "name": "_amount",
          "type": "uint256"
        },
        {
          "internalType": "address",
          "name": "_artist",
          "type": "address"
        }
      ],
      "name": "deposit",
      "outputs": [],
      "stateMutability": "nonpayable",
      "type": "function"
    },
    {
      "inputs": [
        {
          "internalType": "address",
          "name": "nftContract",
          "type": "address"
        }
      ],
      "name": "getCapstone",
      "outputs": [
        {
          "internalType": "uint256",
          "name": "",
          "type": "uint256"
        }
      ],
      "stateMutability": "view",
      "type": "function"
    },
    {
      "inputs": [
        {
          "internalType": "address",
          "name": "nftContract",
          "type": "address"
        }
      ],
      "name": "getWithdrawalAble",
      "outputs": [
        {
          "internalType": "uint256",
          "name": "",
          "type": "uint256"
        }
      ],
      "stateMutability": "view",
      "type": "function"
    },
    {
      "inputs": [
        {
          "internalType": "address",
          "name": "_nftContract",
          "type": "address"
        },
        {
          "internalType": "uint256",
          "name": "_duration",
          "type": "uint256"
        },
        {
          "internalType": "uint256",
          "name": "_soft",
          "type": "uint256"
        },
        {
          "internalType": "uint256",
          "name": "_medium",
          "type": "uint256"
        },
        {
          "internalType": "uint256",
          "name": "_hard",
          "type": "uint256"
        },
        {
          "internalType": "uint256",
          "name": "_projectWallet",
          "type": "uint256"
        },
        {
          "internalType": "uint256",
          "name": "_advisory",
          "type": "uint256"
        },
        {
          "internalType": "bool",
          "name": "_isCommercial",
          "type": "bool"
        },
        {
          "internalType": "uint256",
          "name": "_tokenPrice",
          "type": "uint256"
        }
      ],
      "name": "initiateNFTProject",
      "outputs": [],
      "stateMutability": "nonpayable",
      "type": "function"
    },
    {
      "inputs": [],
      "name": "owner",
      "outputs": [
        {
          "internalType": "address",
          "name": "",
          "type": "address"
        }
      ],
      "stateMutability": "view",
      "type": "function"
    },
    {
      "inputs": [],
      "name": "renounceOwnership",
      "outputs": [],
      "stateMutability": "nonpayable",
      "type": "function"
    },
    {
      "inputs": [
        {
          "internalType": "address",
          "name": "newOwner",
          "type": "address"
        }
      ],
      "name": "transferOwnership",
      "outputs": [],
      "stateMutability": "nonpayable",
      "type": "function"
    },
    {
      "inputs": [
        {
          "internalType": "address",
          "name": "nftContract",
          "type": "address"
        }
      ],
      "name": "withdraw",
      "outputs": [],
      "stateMutability": "nonpayable",
      "type": "function"
    },
    {
      "inputs": [
        {
          "internalType": "address",
          "name": "nftContract",
          "type": "address"
        }
      ],
      "name": "withdrawalAllowed",
      "outputs": [
        {
          "internalType": "bool",
          "name": "",
          "type": "bool"
        }
      ],
      "stateMutability": "view",
      "type": "function"
    }
  ],
  "bytecode": "0x60806040523480156200001157600080fd5b50604051620026d9380380620026d98339818101604052810190620000379190620001dc565b620000576200004b620000a660201b60201c565b620000ae60201b60201c565b6001808190555080600360006101000a81548173ffffffffffffffffffffffffffffffffffffffff021916908373ffffffffffffffffffffffffffffffffffffffff160217905550506200020e565b600033905090565b60008060009054906101000a900473ffffffffffffffffffffffffffffffffffffffff169050816000806101000a81548173ffffffffffffffffffffffffffffffffffffffff021916908373ffffffffffffffffffffffffffffffffffffffff1602179055508173ffffffffffffffffffffffffffffffffffffffff168173ffffffffffffffffffffffffffffffffffffffff167f8be0079c531659141344cd1fd0a4f28419497f9722a3daafe3b4186f6b6457e060405160405180910390a35050565b600080fd5b600073ffffffffffffffffffffffffffffffffffffffff82169050919050565b6000620001a48262000177565b9050919050565b620001b68162000197565b8114620001c257600080fd5b50565b600081519050620001d681620001ab565b92915050565b600060208284031215620001f557620001f462000172565b5b60006200020584828501620001c5565b91505092915050565b6124bb806200021e6000396000f3fe608060405234801561001057600080fd5b506004361061009e5760003560e01c80639455646611610066578063945564661461013357806395adab01146101635780639e31d6ca14610193578063d90f44c4146101af578063f2fde38b146101cb5761009e565b806351cff8d9146100a3578063685ca194146100bf578063715018a6146100ef5780638b6099db146100f95780638da5cb5b14610115575b600080fd5b6100bd60048036038101906100b89190611718565b6101e7565b005b6100d960048036038101906100d49190611718565b6103b0565b6040516100e69190611760565b60405180910390f35b6100f761040f565b005b610113600480360381019061010e91906117b1565b610423565b005b61011d61095e565b60405161012a9190611827565b60405180910390f35b61014d60048036038101906101489190611718565b610987565b60405161015a9190611851565b60405180910390f35b61017d60048036038101906101789190611718565b610a74565b60405161018a9190611851565b60405180910390f35b6101ad60048036038101906101a89190611891565b610ac3565b005b6101c960048036038101906101c49190611910565b610e60565b005b6101e560048036038101906101e09190611718565b6110b9565b005b6101ef61113d565b6000600260008373ffffffffffffffffffffffffffffffffffffffff1673ffffffffffffffffffffffffffffffffffffffff1681526020019081526020016000209050600081600d0160008360040160009054906101000a900460ff16600381111561025e5761025d6119da565b5b60038111156102705761026f6119da565b5b815260200190815260200160002060003373ffffffffffffffffffffffffffffffffffffffff1673ffffffffffffffffffffffffffffffffffffffff16815260200190815260200160002054905081600d0160008360040160009054906101000a900460ff1660038111156102e8576102e76119da565b5b60038111156102fa576102f96119da565b5b815260200190815260200160002060003373ffffffffffffffffffffffffffffffffffffffff1673ffffffffffffffffffffffffffffffffffffffff16815260200190815260200160002060009055610353338261118d565b3373ffffffffffffffffffffffffffffffffffffffff167fcbcdbdf10631a43cc99c80acace8232649421c3f4f73919f16013d47c83a687a828560405161039b929190611a09565b60405180910390a250506103ad6111be565b50565b600042600260008473ffffffffffffffffffffffffffffffffffffffff1673ffffffffffffffffffffffffffffffffffffffff168152602001908152602001600020600101541015610405576001905061040a565b600090505b919050565b6104176111c7565b6104216000611245565b565b61042b61113d565b6000600260008673ffffffffffffffffffffffffffffffffffffffff1673ffffffffffffffffffffffffffffffffffffffff168152602001908152602001600020905060008160040160009054906101000a900460ff1690508160000160009054906101000a900460ff166104d5576040517f08c379a00000000000000000000000000000000000000000000000000000000081526004016104cc90611a8f565b60405180910390fd5b600260038111156104e9576104e86119da565b5b8260040160009054906101000a900460ff16600381111561050d5761050c6119da565b5b141561054e576040517f08c379a000000000000000000000000000000000000000000000000000000000815260040161054590611afb565b60405180910390fd5b6000606485600360009054906101000a900473ffffffffffffffffffffffffffffffffffffffff1673ffffffffffffffffffffffffffffffffffffffff1663771a3a1d6040518163ffffffff1660e01b81526004016020604051808303816000875af11580156105c2573d6000803e3d6000fd5b505050506040513d601f19601f820116820180604052508101906105e69190611b30565b60646105f29190611b8c565b6105fc9190611bc0565b6106069190611c49565b90508083600d016000846003811115610622576106216119da565b5b6003811115610634576106336119da565b5b815260200190815260200160002060003373ffffffffffffffffffffffffffffffffffffffff1673ffffffffffffffffffffffffffffffffffffffff168152602001908152602001600020600082825461068e9190611c7a565b925050819055503383600c0160008460038111156106af576106ae6119da565b5b60038111156106c1576106c06119da565b5b8152602001908152602001600020600088815260200190815260200160002060000160006101000a81548173ffffffffffffffffffffffffffffffffffffffff021916908373ffffffffffffffffffffffffffffffffffffffff1602179055508383600c01600084600381111561073b5761073a6119da565b5b600381111561074d5761074c6119da565b5b8152602001908152602001600020600088815260200190815260200160002060010160006101000a81548173ffffffffffffffffffffffffffffffffffffffff021916908373ffffffffffffffffffffffffffffffffffffffff160217905550848360020160008282546107c19190611c7a565b925050819055506107f6600360009054906101000a900473ffffffffffffffffffffffffffffffffffffffff16333088611309565b826005016002015483600201541061084d5760038360040160006101000a81548160ff021916908360038111156108305761082f6119da565b5b0217905550826005016002015483600501600301819055506108f9565b82600501600101548360020154106108a45760028360040160006101000a81548160ff02191690836003811115610887576108866119da565b5b0217905550826005016001015483600501600301819055506108f8565b82600501600001548360020154106108f75760018360040160006101000a81548160ff021916908360038111156108de576108dd6119da565b5b0217905550826005016000015483600501600301819055505b5b5b3373ffffffffffffffffffffffffffffffffffffffff167fde213e238f2a4ae1ff47591c45184b8846ee26654ae95d36e73fb03fe4f6293f8689858a6040516109459493929190611d18565b60405180910390a25050506109586111be565b50505050565b60008060009054906101000a900473ffffffffffffffffffffffffffffffffffffffff16905090565b600080600260008473ffffffffffffffffffffffffffffffffffffffff1673ffffffffffffffffffffffffffffffffffffffff16815260200190815260200160002090506109d4836103b0565b15610a695780600d0160008260040160009054906101000a900460ff166003811115610a0357610a026119da565b5b6003811115610a1557610a146119da565b5b815260200190815260200160002060003373ffffffffffffffffffffffffffffffffffffffff1673ffffffffffffffffffffffffffffffffffffffff16815260200190815260200160002054915050610a6f565b60009150505b919050565b6000600260008373ffffffffffffffffffffffffffffffffffffffff1673ffffffffffffffffffffffffffffffffffffffff168152602001908152602001600020600501600301549050919050565b610acb61113d565b6000600260008573ffffffffffffffffffffffffffffffffffffffff1673ffffffffffffffffffffffffffffffffffffffff1681526020019081526020016000209050600081600c016000846003811115610b2957610b286119da565b5b6003811115610b3b57610b3a6119da565b5b815260200190815260200160002060008581526020019081526020016000206040518060400160405290816000820160009054906101000a900473ffffffffffffffffffffffffffffffffffffffff1673ffffffffffffffffffffffffffffffffffffffff1673ffffffffffffffffffffffffffffffffffffffff1681526020016001820160009054906101000a900473ffffffffffffffffffffffffffffffffffffffff1673ffffffffffffffffffffffffffffffffffffffff1673ffffffffffffffffffffffffffffffffffffffff1681525050905060006003811115610c2757610c266119da565b5b8260040160009054906101000a900460ff166003811115610c4b57610c4a6119da565b5b1415610c8c576040517f08c379a0000000000000000000000000000000000000000000000000000000008152600401610c8390611da9565b60405180910390fd5b3373ffffffffffffffffffffffffffffffffffffffff16816000015173ffffffffffffffffffffffffffffffffffffffff1614610cfe576040517f08c379a0000000000000000000000000000000000000000000000000000000008152600401610cf590611e15565b60405180910390fd5b60008573ffffffffffffffffffffffffffffffffffffffff16636352211e866040518263ffffffff1660e01b8152600401610d399190611851565b602060405180830381865afa158015610d56573d6000803e3d6000fd5b505050506040513d601f19601f82011682018060405250810190610d7a9190611e4a565b90508573ffffffffffffffffffffffffffffffffffffffff166323b872dd8233886040518463ffffffff1660e01b8152600401610db993929190611e77565b600060405180830381600087803b158015610dd357600080fd5b505af1158015610de7573d6000803e3d6000fd5b505050508573ffffffffffffffffffffffffffffffffffffffff163373ffffffffffffffffffffffffffffffffffffffff167f01f5ac4779f06ec54cc32436bd2146466caa8b68fbd6afbab76fd4e4df6fe31987604051610e489190611851565b60405180910390a3505050610e5b6111be565b505050565b610e686111c7565b600260008a73ffffffffffffffffffffffffffffffffffffffff1673ffffffffffffffffffffffffffffffffffffffff16815260200190815260200160002060000160009054906101000a900460ff1615610ef8576040517f08c379a0000000000000000000000000000000000000000000000000000000008152600401610eef90611efa565b60405180910390fd5b6000600260008b73ffffffffffffffffffffffffffffffffffffffff1673ffffffffffffffffffffffffffffffffffffffff16815260200190815260200160002090504289610f479190611c7a565b816001018190555087816005016000018190555086816005016001018190555085816005016002018190555081816003018190555060028410158015610f8e575060058511155b610fcd576040517f08c379a0000000000000000000000000000000000000000000000000000000008152600401610fc490611f66565b60405180910390fd5b821561103657604d8510158015610fe5575060508511155b611024576040517f08c379a000000000000000000000000000000000000000000000000000000000815260040161101b90611ff8565b60405180910390fd5b60088160090160020181905550611095565b60508510158015611048575060538511155b611087576040517f08c379a000000000000000000000000000000000000000000000000000000000815260040161107e90611ff8565b60405180910390fd5b600581600901600201819055505b84816009016000018190555083816009016001018190555050505050505050505050565b6110c16111c7565b600073ffffffffffffffffffffffffffffffffffffffff168173ffffffffffffffffffffffffffffffffffffffff161415611131576040517f08c379a00000000000000000000000000000000000000000000000000000000081526004016111289061208a565b60405180910390fd5b61113a81611245565b50565b60026001541415611183576040517f08c379a000000000000000000000000000000000000000000000000000000000815260040161117a906120f6565b60405180910390fd5b6002600181905550565b6111ba600360009054906101000a900473ffffffffffffffffffffffffffffffffffffffff168383611392565b5050565b60018081905550565b6111cf611418565b73ffffffffffffffffffffffffffffffffffffffff166111ed61095e565b73ffffffffffffffffffffffffffffffffffffffff1614611243576040517f08c379a000000000000000000000000000000000000000000000000000000000815260040161123a90612162565b60405180910390fd5b565b60008060009054906101000a900473ffffffffffffffffffffffffffffffffffffffff169050816000806101000a81548173ffffffffffffffffffffffffffffffffffffffff021916908373ffffffffffffffffffffffffffffffffffffffff1602179055508173ffffffffffffffffffffffffffffffffffffffff168173ffffffffffffffffffffffffffffffffffffffff167f8be0079c531659141344cd1fd0a4f28419497f9722a3daafe3b4186f6b6457e060405160405180910390a35050565b61138c846323b872dd60e01b85858560405160240161132a93929190611e77565b604051602081830303815290604052907bffffffffffffffffffffffffffffffffffffffffffffffffffffffff19166020820180517bffffffffffffffffffffffffffffffffffffffffffffffffffffffff8381831617835250505050611420565b50505050565b6114138363a9059cbb60e01b84846040516024016113b1929190612182565b604051602081830303815290604052907bffffffffffffffffffffffffffffffffffffffffffffffffffffffff19166020820180517bffffffffffffffffffffffffffffffffffffffffffffffffffffffff8381831617835250505050611420565b505050565b600033905090565b6000611482826040518060400160405280602081526020017f5361666545524332303a206c6f772d6c6576656c2063616c6c206661696c65648152508573ffffffffffffffffffffffffffffffffffffffff166114e79092919063ffffffff16565b90506000815111156114e257808060200190518101906114a291906121c0565b6114e1576040517f08c379a00000000000000000000000000000000000000000000000000000000081526004016114d89061225f565b60405180910390fd5b5b505050565b60606114f684846000856114ff565b90509392505050565b606082471015611544576040517f08c379a000000000000000000000000000000000000000000000000000000000815260040161153b906122f1565b60405180910390fd5b6000808673ffffffffffffffffffffffffffffffffffffffff16858760405161156d919061238b565b60006040518083038185875af1925050503d80600081146115aa576040519150601f19603f3d011682016040523d82523d6000602084013e6115af565b606091505b50915091506115c0878383876115cc565b92505050949350505050565b6060831561162f57600083511415611627576115e785611642565b611626576040517f08c379a000000000000000000000000000000000000000000000000000000000815260040161161d906123ee565b60405180910390fd5b5b82905061163a565b6116398383611665565b5b949350505050565b6000808273ffffffffffffffffffffffffffffffffffffffff163b119050919050565b6000825111156116785781518083602001fd5b806040517f08c379a00000000000000000000000000000000000000000000000000000000081526004016116ac9190612463565b60405180910390fd5b600080fd5b600073ffffffffffffffffffffffffffffffffffffffff82169050919050565b60006116e5826116ba565b9050919050565b6116f5816116da565b811461170057600080fd5b50565b600081359050611712816116ec565b92915050565b60006020828403121561172e5761172d6116b5565b5b600061173c84828501611703565b91505092915050565b60008115159050919050565b61175a81611745565b82525050565b60006020820190506117756000830184611751565b92915050565b6000819050919050565b61178e8161177b565b811461179957600080fd5b50565b6000813590506117ab81611785565b92915050565b600080600080608085870312156117cb576117ca6116b5565b5b60006117d987828801611703565b94505060206117ea8782880161179c565b93505060406117fb8782880161179c565b925050606061180c87828801611703565b91505092959194509250565b611821816116da565b82525050565b600060208201905061183c6000830184611818565b92915050565b61184b8161177b565b82525050565b60006020820190506118666000830184611842565b92915050565b6004811061187957600080fd5b50565b60008135905061188b8161186c565b92915050565b6000806000606084860312156118aa576118a96116b5565b5b60006118b886828701611703565b93505060206118c98682870161179c565b92505060406118da8682870161187c565b9150509250925092565b6118ed81611745565b81146118f857600080fd5b50565b60008135905061190a816118e4565b92915050565b60008060008060008060008060006101208a8c031215611933576119326116b5565b5b60006119418c828d01611703565b99505060206119528c828d0161179c565b98505060406119638c828d0161179c565b97505060606119748c828d0161179c565b96505060806119858c828d0161179c565b95505060a06119968c828d0161179c565b94505060c06119a78c828d0161179c565b93505060e06119b88c828d016118fb565b9250506101006119ca8c828d0161179c565b9150509295985092959850929598565b7f4e487b7100000000000000000000000000000000000000000000000000000000600052602160045260246000fd5b6000604082019050611a1e6000830185611842565b611a2b6020830184611818565b9392505050565b600082825260208201905092915050565b7f50726f6a656374206e6f7420696e697469617465640000000000000000000000600082015250565b6000611a79601583611a32565b9150611a8482611a43565b602082019050919050565b60006020820190508181036000830152611aa881611a6c565b9050919050565b7f50726f6a6563742066756c6c7920737570706f72746564000000000000000000600082015250565b6000611ae5601783611a32565b9150611af082611aaf565b602082019050919050565b60006020820190508181036000830152611b1481611ad8565b9050919050565b600081519050611b2a81611785565b92915050565b600060208284031215611b4657611b456116b5565b5b6000611b5484828501611b1b565b91505092915050565b7f4e487b7100000000000000000000000000000000000000000000000000000000600052601160045260246000fd5b6000611b978261177b565b9150611ba28361177b565b925082821015611bb557611bb4611b5d565b5b828203905092915050565b6000611bcb8261177b565b9150611bd68361177b565b9250817fffffffffffffffffffffffffffffffffffffffffffffffffffffffffffffffff0483118215151615611c0f57611c0e611b5d565b5b828202905092915050565b7f4e487b7100000000000000000000000000000000000000000000000000000000600052601260045260246000fd5b6000611c548261177b565b9150611c5f8361177b565b925082611c6f57611c6e611c1a565b5b828204905092915050565b6000611c858261177b565b9150611c908361177b565b9250827fffffffffffffffffffffffffffffffffffffffffffffffffffffffffffffffff03821115611cc557611cc4611b5d565b5b828201905092915050565b60048110611ce157611ce06119da565b5b50565b6000819050611cf282611cd0565b919050565b6000611d0282611ce4565b9050919050565b611d1281611cf7565b82525050565b6000608082019050611d2d6000830187611842565b611d3a6020830186611818565b611d476040830185611d09565b611d546060830184611842565b95945050505050565b7f43726f776466756e64204661696c656400000000000000000000000000000000600082015250565b6000611d93601083611a32565b9150611d9e82611d5d565b602082019050919050565b60006020820190508181036000830152611dc281611d86565b9050919050565b7f4e6f7420417574686f72697a6564000000000000000000000000000000000000600082015250565b6000611dff600e83611a32565b9150611e0a82611dc9565b602082019050919050565b60006020820190508181036000830152611e2e81611df2565b9050919050565b600081519050611e44816116ec565b92915050565b600060208284031215611e6057611e5f6116b5565b5b6000611e6e84828501611e35565b91505092915050565b6000606082019050611e8c6000830186611818565b611e996020830185611818565b611ea66040830184611842565b949350505050565b7f50726f6a6563742077617320696e697469617465640000000000000000000000600082015250565b6000611ee4601583611a32565b9150611eef82611eae565b602082019050919050565b60006020820190508181036000830152611f1381611ed7565b9050919050565b7f41647669736f7279206f6e6c79206265747765656e20322520616e6420352500600082015250565b6000611f50601f83611a32565b9150611f5b82611f1a565b602082019050919050565b60006020820190508181036000830152611f7f81611f43565b9050919050565b7f50726f6a6563742057616c6c6574206f6e6c79206265747765656e203737252060008201527f616e642038302500000000000000000000000000000000000000000000000000602082015250565b6000611fe2602783611a32565b9150611fed82611f86565b604082019050919050565b6000602082019050818103600083015261201181611fd5565b9050919050565b7f4f776e61626c653a206e6577206f776e657220697320746865207a65726f206160008201527f6464726573730000000000000000000000000000000000000000000000000000602082015250565b6000612074602683611a32565b915061207f82612018565b604082019050919050565b600060208201905081810360008301526120a381612067565b9050919050565b7f5265656e7472616e637947756172643a207265656e7472616e742063616c6c00600082015250565b60006120e0601f83611a32565b91506120eb826120aa565b602082019050919050565b6000602082019050818103600083015261210f816120d3565b9050919050565b7f4f776e61626c653a2063616c6c6572206973206e6f7420746865206f776e6572600082015250565b600061214c602083611a32565b915061215782612116565b602082019050919050565b6000602082019050818103600083015261217b8161213f565b9050919050565b60006040820190506121976000830185611818565b6121a46020830184611842565b9392505050565b6000815190506121ba816118e4565b92915050565b6000602082840312156121d6576121d56116b5565b5b60006121e4848285016121ab565b91505092915050565b7f5361666545524332303a204552433230206f7065726174696f6e20646964206e60008201527f6f74207375636365656400000000000000000000000000000000000000000000602082015250565b6000612249602a83611a32565b9150612254826121ed565b604082019050919050565b600060208201905081810360008301526122788161223c565b9050919050565b7f416464726573733a20696e73756666696369656e742062616c616e636520666f60008201527f722063616c6c0000000000000000000000000000000000000000000000000000602082015250565b60006122db602683611a32565b91506122e68261227f565b604082019050919050565b6000602082019050818103600083015261230a816122ce565b9050919050565b600081519050919050565b600081905092915050565b60005b8381101561234557808201518184015260208101905061232a565b83811115612354576000848401525b50505050565b600061236582612311565b61236f818561231c565b935061237f818560208601612327565b80840191505092915050565b6000612397828461235a565b915081905092915050565b7f416464726573733a2063616c6c20746f206e6f6e2d636f6e7472616374000000600082015250565b60006123d8601d83611a32565b91506123e3826123a2565b602082019050919050565b60006020820190508181036000830152612407816123cb565b9050919050565b600081519050919050565b6000601f19601f8301169050919050565b60006124358261240e565b61243f8185611a32565b935061244f818560208601612327565b61245881612419565b840191505092915050565b6000602082019050818103600083015261247d818461242a565b90509291505056fea2646970667358221220acdb997bf493472ed2e9fdef839d18f123abf494f5c526116b3d81f15dc2566564736f6c634300080b0033",
  "linkReferences": {},
  "deployedLinkReferences": {}
}