{
  "_format": "hh-sol-artifact-1",
  "contractName": "ProjectEscrow",
  "sourceName": "contracts/ERC721/Escrow.sol",
  "abi": [
    {
      "inputs": [
        {
          "internalType": "address",
          "name": "_token",
          "type": "address"
        },
        {
          "internalType": "uint256",
          "name": "_artistFee",
          "type": "uint256"
        },
        {
          "internalType": "uint256",
          "name": "_projectFee",
          "type": "uint256"
        },
        {
          "internalType": "uint256",
          "name": "_advisoryFee",
          "type": "uint256"
        },
        {
          "internalType": "uint256",
          "name": "_platformFee",
          "type": "uint256"
        }
      ],
      "stateMutability": "nonpayable",
      "type": "constructor"
    },
    {
      "inputs": [],
      "name": "InvalidProof",
      "type": "error"
    },
    {
      "inputs": [],
      "name": "NotOwner",
      "type": "error"
    },
    {
      "inputs": [],
      "name": "ProjectFailed",
      "type": "error"
    },
    {
      "inputs": [],
      "name": "ProjectStillFunding",
      "type": "error"
    },
    {
      "anonymous": false,
      "inputs": [
        {
          "indexed": true,
          "internalType": "address",
          "name": "project",
          "type": "address"
        },
        {
          "indexed": false,
          "internalType": "uint256",
          "name": "status",
          "type": "uint256"
        }
      ],
      "name": "CapstoneReached",
      "type": "event"
    },
    {
      "anonymous": false,
      "inputs": [
        {
          "indexed": true,
          "internalType": "address",
          "name": "payee",
          "type": "address"
        },
        {
          "indexed": false,
          "internalType": "uint256",
          "name": "projectId",
          "type": "uint256"
        },
        {
          "indexed": false,
          "internalType": "address",
          "name": "nftContract",
          "type": "address"
        },
        {
          "indexed": false,
          "internalType": "string",
          "name": "tokenUri",
          "type": "string"
        },
        {
          "indexed": false,
          "internalType": "uint256",
          "name": "price",
          "type": "uint256"
        }
      ],
      "name": "Deposit",
      "type": "event"
    },
    {
      "anonymous": false,
      "inputs": [
        {
          "indexed": false,
          "internalType": "address",
          "name": "project",
          "type": "address"
        },
        {
          "indexed": false,
          "internalType": "uint256",
          "name": "oldDeadline",
          "type": "uint256"
        },
        {
          "indexed": false,
          "internalType": "uint256",
          "name": "newDealine",
          "type": "uint256"
        }
      ],
      "name": "DurationChanged",
      "type": "event"
    },
    {
      "anonymous": false,
      "inputs": [
        {
          "indexed": true,
          "internalType": "address",
          "name": "claimer",
          "type": "address"
        },
        {
          "indexed": false,
          "internalType": "address",
          "name": "project",
          "type": "address"
        },
        {
          "indexed": false,
          "internalType": "uint256",
          "name": "amount",
          "type": "uint256"
        }
      ],
      "name": "FundClaimed",
      "type": "event"
    },
    {
      "anonymous": false,
      "inputs": [
        {
          "indexed": true,
          "internalType": "address",
          "name": "minter",
          "type": "address"
        },
        {
          "indexed": false,
          "internalType": "uint256",
          "name": "projectId",
          "type": "uint256"
        },
        {
          "indexed": false,
          "internalType": "address",
          "name": "nftContract",
          "type": "address"
        },
        {
          "indexed": false,
          "internalType": "string",
          "name": "tokenUri",
          "type": "string"
        }
      ],
      "name": "NftMinted",
      "type": "event"
    },
    {
      "anonymous": false,
      "inputs": [
        {
          "indexed": true,
          "internalType": "address",
          "name": "previousOwner",
          "type": "address"
        },
        {
          "indexed": true,
          "internalType": "address",
          "name": "newOwner",
          "type": "address"
        }
      ],
      "name": "OwnershipTransferred",
      "type": "event"
    },
    {
      "anonymous": false,
      "inputs": [
        {
          "indexed": true,
          "internalType": "address",
          "name": "withdrawer",
          "type": "address"
        },
        {
          "indexed": false,
          "internalType": "uint256",
          "name": "projectId",
          "type": "uint256"
        },
        {
          "indexed": false,
          "internalType": "uint256",
          "name": "amount",
          "type": "uint256"
        }
      ],
      "name": "Withdraw",
      "type": "event"
    },
    {
      "inputs": [
        {
          "internalType": "uint256",
          "name": "_additionalTime",
          "type": "uint256"
        }
      ],
      "name": "changeDuration",
      "outputs": [],
      "stateMutability": "nonpayable",
      "type": "function"
    },
    {
      "inputs": [],
      "name": "claimFunding",
      "outputs": [],
      "stateMutability": "nonpayable",
      "type": "function"
    },
    {
      "inputs": [
        {
          "internalType": "uint256",
          "name": "_projectId",
          "type": "uint256"
        },
        {
          "internalType": "address",
          "name": "_nftContract",
          "type": "address"
        },
        {
          "internalType": "address",
          "name": "_depositor",
          "type": "address"
        },
        {
          "internalType": "string",
          "name": "_tokenUri",
          "type": "string"
        },
        {
          "internalType": "uint8",
          "name": "_status",
          "type": "uint8"
        }
      ],
      "name": "deposit",
      "outputs": [],
      "stateMutability": "payable",
      "type": "function"
    },
    {
      "inputs": [],
      "name": "depositRoot",
      "outputs": [
        {
          "internalType": "bytes32",
          "name": "",
          "type": "bytes32"
        }
      ],
      "stateMutability": "view",
      "type": "function"
    },
    {
      "inputs": [
        {
          "internalType": "bytes32[]",
          "name": "_proof",
          "type": "bytes32[]"
        },
        {
          "internalType": "uint256",
          "name": "_projectId",
          "type": "uint256"
        },
        {
          "internalType": "address",
          "name": "_nftContract",
          "type": "address"
        },
        {
          "internalType": "string",
          "name": "_tokenUri",
          "type": "string"
        }
      ],
      "name": "mintNft",
      "outputs": [],
      "stateMutability": "payable",
      "type": "function"
    },
    {
      "inputs": [],
      "name": "nftRoot",
      "outputs": [
        {
          "internalType": "bytes32",
          "name": "",
          "type": "bytes32"
        }
      ],
      "stateMutability": "view",
      "type": "function"
    },
    {
      "inputs": [],
      "name": "owner",
      "outputs": [
        {
          "internalType": "address",
          "name": "",
          "type": "address"
        }
      ],
      "stateMutability": "view",
      "type": "function"
    },
    {
      "inputs": [],
      "name": "renounceOwnership",
      "outputs": [],
      "stateMutability": "nonpayable",
      "type": "function"
    },
    {
      "inputs": [],
      "name": "token",
      "outputs": [
        {
          "internalType": "address",
          "name": "",
          "type": "address"
        }
      ],
      "stateMutability": "view",
      "type": "function"
    },
    {
      "inputs": [
        {
          "internalType": "address",
          "name": "newOwner",
          "type": "address"
        }
      ],
      "name": "transferOwnership",
      "outputs": [],
      "stateMutability": "nonpayable",
      "type": "function"
    },
    {
      "inputs": [
        {
          "internalType": "bytes32[]",
          "name": "_proof",
          "type": "bytes32[]"
        },
        {
          "internalType": "uint256",
          "name": "_amount",
          "type": "uint256"
        }
      ],
      "name": "withdraw",
      "outputs": [],
      "stateMutability": "nonpayable",
      "type": "function"
    }
  ],
  "bytecode": "0x608060405234801561001057600080fd5b5060405161142e38038061142e83398101604081905261002f916100bd565b6100383361006d565b600e80546001600160a01b0319166001600160a01b039690961695909517909455600592909255600655600755600855610112565b600080546001600160a01b038381166001600160a01b0319831681178455604051919092169283917f8be0079c531659141344cd1fd0a4f28419497f9722a3daafe3b4186f6b6457e09190a35050565b600080600080600060a086880312156100d557600080fd5b85516001600160a01b03811681146100ec57600080fd5b602087015160408801516060890151608090990151929a91995097965090945092505050565b61130d806101216000396000f3fe60806040526004361061009c5760003560e01c8063ccfcb30611610064578063ccfcb30614610146578063d21f6c5114610159578063d2d18e3c1461016e578063dd83edc314610184578063f2fde38b146101a4578063fc0c546a146101c457600080fd5b8063715018a6146100a1578063869cfb4c146100b85780638955fe8a146100cb5780638da5cb5b146100f4578063b594f08614610126575b600080fd5b3480156100ad57600080fd5b506100b66101e4565b005b6100b66100c6366004610f38565b6101f8565b3480156100d757600080fd5b506100e1600d5481565b6040519081526020015b60405180910390f35b34801561010057600080fd5b506000546001600160a01b03165b6040516001600160a01b0390911681526020016100eb565b34801561013257600080fd5b506100b6610141366004610fba565b61037e565b6100b6610154366004610fd3565b610457565b34801561016557600080fd5b506100b6610691565b34801561017a57600080fd5b506100e1600c5481565b34801561019057600080fd5b506100b661019f36600461105a565b6107c0565b3480156101b057600080fd5b506100b66101bf36600461109f565b6108ab565b3480156101d057600080fd5b50600e5461010e906001600160a01b031681565b6101ec610924565b6101f6600061097e565b565b6102006109ce565b60006102308484843360405160200161021c9493929190611109565b6040516020818303038152906040526109f0565b905061023f85600c5483610a29565b61025c576040516309bde33960e01b815260040160405180910390fd5b6102d260055460075460085486876001600160a01b0316637ff9b5966040518163ffffffff1660e01b81526004016020604051808303816000875af11580156102a9573d6000803e3d6000fd5b505050506040513d601f19601f820116820180604052508101906102cd9190611145565b610a3f565b604051636902622f60e11b81526001600160a01b0384169063d204c45e90610300903390869060040161115e565b600060405180830381600087803b15801561031a57600080fd5b505af115801561032e573d6000803e3d6000fd5b50505050336001600160a01b03167ff8b1b480f3e90cec0b9871e75e1c6401bf4db0127701d88d80f0a9d0b39accf785858560405161036f9392919061118a565b60405180910390a25050505050565b610386610924565b600e54600160a01b900460ff16156103e55760405162461bcd60e51b815260206004820181905260248201527f4475726174696f6e20686173206265656e206368616e676564206265666f726560448201526064015b60405180910390fd5b600a8054600e805460ff60a01b1916600160a01b179055908290600061040b83856111d3565b9091555050600a54604080513081526020810184905280820192909252517fabe82bf94ac08157c0fd88b25b756bb1a7f0d69ed7bfcdc5cbfb07bcafe5d8249181900360600190a15050565b61045f610924565b600a5442106104a25760405162461bcd60e51b815260206004820152600f60248201526e456e64206f662054696d656c696e6560881b60448201526064016103dc565b60038160ff16106104f55760405162461bcd60e51b815260206004820152601760248201527f50726f6a6563742066756c6c7920737570706f7274656400000000000000000060448201526064016103dc565b6000846001600160a01b0316637ff9b5966040518163ffffffff1660e01b81526004016020604051808303816000875af1158015610537573d6000803e3d6000fd5b505050506040513d601f19601f8201168201806040525081019061055b9190611145565b905080600b600082825461056f91906111d3565b9091555050600e546040516323b872dd60e01b8152336004820152306024820152604481018390526001600160a01b03909116906323b872dd906064016020604051808303816000875af11580156105cb573d6000803e3d6000fd5b505050506040513d601f19601f820116820180604052508101906105ef91906111eb565b508160ff1660095410156106425760ff82166009819055600b5460045560405190815230907fc238db72981f09e366fe6ce9981bdfde8b92d2a9e327040d514927481d1723259060200160405180910390a25b836001600160a01b03167f12f32c7ca92edbfcff934575ceafee614ae1908c8b0cd2978110402d1a6ee6f087878685604051610681949392919061120d565b60405180910390a2505050505050565b610699610924565b6106a16109ce565b6000546001600160a01b031633146106cc576040516330cd747160e01b815260040160405180910390fd5b6009546106ec57604051631df9b0ff60e31b815260040160405180910390fd5b60006127106004546006546107019190611248565b61070b9190611267565b600e5460405163a9059cbb60e01b8152336004820152602481018390529192506001600160a01b03169063a9059cbb906044016020604051808303816000875af115801561075d573d6000803e3d6000fd5b505050506040513d601f19601f8201168201806040525081019061078191906111eb565b50604080513081526020810183905233917f8b5640bc6a70f4cedabaf515fa266b322bf861aa1fda7ac4ae261193eaa6cfa7910160405180910390a250565b42600a5411156107e357604051636eefdc2160e01b815260040160405180910390fd5b6040805130602082015233918101919091526000906108049060600161021c565b905061081383600d5483610a29565b610830576040516309bde33960e01b815260040160405180910390fd5b600e5460405163a9059cbb60e01b8152336004820152602481018490526001600160a01b039091169063a9059cbb906044016020604051808303816000875af1158015610881573d6000803e3d6000fd5b505050506040513d601f19601f820116820180604052508101906108a591906111eb565b50505050565b6108b3610924565b6001600160a01b0381166109185760405162461bcd60e51b815260206004820152602660248201527f4f776e61626c653a206e6577206f776e657220697320746865207a65726f206160448201526564647265737360d01b60648201526084016103dc565b6109218161097e565b50565b6000546001600160a01b031633146101f65760405162461bcd60e51b815260206004820181905260248201527f4f776e61626c653a2063616c6c6572206973206e6f7420746865206f776e657260448201526064016103dc565b600080546001600160a01b038381166001600160a01b0319831681178455604051919092169283917f8be0079c531659141344cd1fd0a4f28419497f9722a3daafe3b4186f6b6457e09190a35050565b42600a54106101f657604051636eefdc2160e01b815260040160405180910390fd5b60008180519060200120604051602001610a0c91815260200190565b604051602081830303815290604052805190602001209050919050565b600082610a368584610d50565b14949350505050565b6000826001600160a01b03166343bc16126040518163ffffffff1660e01b81526004016020604051808303816000875af1158015610a81573d6000803e3d6000fd5b505050506040513d601f19601f82011682018060405250810190610aa59190611289565b90506000600e60009054906101000a90046001600160a01b03166001600160a01b0316632983d7526040518163ffffffff1660e01b81526004016020604051808303816000875af1158015610afe573d6000803e3d6000fd5b505050506040513d601f19601f82011682018060405250810190610b229190611289565b90506000600e60009054906101000a90046001600160a01b03166001600160a01b0316634bde38c86040518163ffffffff1660e01b81526004016020604051808303816000875af1158015610b7b573d6000803e3d6000fd5b505050506040513d601f19601f82011682018060405250810190610b9f9190611289565b600e549091506001600160a01b031663a9059cbb84610bbe878c610d9d565b6040516001600160e01b031960e085901b1681526001600160a01b03909216600483015260248201526044016020604051808303816000875af1158015610c09573d6000803e3d6000fd5b505050506040513d601f19601f82011682018060405250810190610c2d91906111eb565b50600e546001600160a01b031663a9059cbb83610c4a878b610d9d565b6040516001600160e01b031960e085901b1681526001600160a01b03909216600483015260248201526044016020604051808303816000875af1158015610c95573d6000803e3d6000fd5b505050506040513d601f19601f82011682018060405250810190610cb991906111eb565b50600e546001600160a01b031663a9059cbb82610cd6878a610d9d565b6040516001600160e01b031960e085901b1681526001600160a01b03909216600483015260248201526044016020604051808303816000875af1158015610d21573d6000803e3d6000fd5b505050506040513d601f19601f82011682018060405250810190610d4591906111eb565b505050505050505050565b600081815b8451811015610d9557610d8182868381518110610d7457610d746112a6565b6020026020010151610dbd565b915080610d8d816112bc565b915050610d55565b509392505050565b6000612710610dac8385611248565b610db69190611267565b9392505050565b6000818310610dd9576000828152602084905260409020610db6565b6000838152602083905260409020610db6565b634e487b7160e01b600052604160045260246000fd5b604051601f8201601f1916810167ffffffffffffffff81118282101715610e2b57610e2b610dec565b604052919050565b600082601f830112610e4457600080fd5b8135602067ffffffffffffffff821115610e6057610e60610dec565b8160051b610e6f828201610e02565b9283528481018201928281019087851115610e8957600080fd5b83870192505b84831015610ea857823582529183019190830190610e8f565b979650505050505050565b6001600160a01b038116811461092157600080fd5b600082601f830112610ed957600080fd5b813567ffffffffffffffff811115610ef357610ef3610dec565b610f06601f8201601f1916602001610e02565b818152846020838601011115610f1b57600080fd5b816020850160208301376000918101602001919091529392505050565b60008060008060808587031215610f4e57600080fd5b843567ffffffffffffffff80821115610f6657600080fd5b610f7288838901610e33565b95506020870135945060408701359150610f8b82610eb3565b90925060608601359080821115610fa157600080fd5b50610fae87828801610ec8565b91505092959194509250565b600060208284031215610fcc57600080fd5b5035919050565b600080600080600060a08688031215610feb57600080fd5b853594506020860135610ffd81610eb3565b9350604086013561100d81610eb3565b9250606086013567ffffffffffffffff81111561102957600080fd5b61103588828901610ec8565b925050608086013560ff8116811461104c57600080fd5b809150509295509295909350565b6000806040838503121561106d57600080fd5b823567ffffffffffffffff81111561108457600080fd5b61109085828601610e33565b95602094909401359450505050565b6000602082840312156110b157600080fd5b8135610db681610eb3565b6000815180845260005b818110156110e2576020818501810151868301820152016110c6565b818111156110f4576000602083870101525b50601f01601f19169290920160200192915050565b848152600060018060a01b0380861660208401526080604084015261113160808401866110bc565b915080841660608401525095945050505050565b60006020828403121561115757600080fd5b5051919050565b6001600160a01b0383168152604060208201819052600090611182908301846110bc565b949350505050565b8381526001600160a01b03831660208201526060604082018190526000906111b4908301846110bc565b95945050505050565b634e487b7160e01b600052601160045260246000fd5b600082198211156111e6576111e66111bd565b500190565b6000602082840312156111fd57600080fd5b81518015158114610db657600080fd5b8481526001600160a01b0384166020820152608060408201819052600090611237908301856110bc565b905082606083015295945050505050565b6000816000190483118215151615611262576112626111bd565b500290565b60008261128457634e487b7160e01b600052601260045260246000fd5b500490565b60006020828403121561129b57600080fd5b8151610db681610eb3565b634e487b7160e01b600052603260045260246000fd5b60006000198214156112d0576112d06111bd565b506001019056fea2646970667358221220b5b98d32a61f5f73c30aa35d3be6e9d68effe372599bda8042d3f39f5b7833ff64736f6c634300080b0033",
  "linkReferences": {},
  "deployedLinkReferences": {}
}