{
  "_format": "hh-sol-artifact-1",
  "contractName": "ProjectEscrow",
  "sourceName": "contracts/ERC721/Escrow.sol",
  "abi": [
    {
      "inputs": [],
      "stateMutability": "nonpayable",
      "type": "constructor"
    },
    {
      "anonymous": false,
      "inputs": [
        {
          "indexed": true,
          "internalType": "address",
          "name": "payee",
          "type": "address"
        },
        {
          "indexed": true,
          "internalType": "address",
          "name": "projectContract",
          "type": "address"
        },
        {
          "indexed": false,
          "internalType": "uint256",
          "name": "talaxAmount",
          "type": "uint256"
        },
        {
          "indexed": false,
          "internalType": "address",
          "name": "nftContract",
          "type": "address"
        },
        {
          "indexed": false,
          "internalType": "enum ProjectEscrow.Status",
          "name": "status",
          "type": "uint8"
        },
        {
          "indexed": false,
          "internalType": "uint256",
          "name": "tokenId",
          "type": "uint256"
        }
      ],
      "name": "Deposited",
      "type": "event"
    },
    {
      "anonymous": false,
      "inputs": [
        {
          "indexed": true,
          "internalType": "address",
          "name": "owner",
          "type": "address"
        },
        {
          "indexed": true,
          "internalType": "address",
          "name": "projectContract",
          "type": "address"
        },
        {
          "indexed": false,
          "internalType": "uint256",
          "name": "talaxAmount",
          "type": "uint256"
        },
        {
          "indexed": false,
          "internalType": "uint256",
          "name": "timestamp",
          "type": "uint256"
        }
      ],
      "name": "FundClaimed",
      "type": "event"
    },
    {
      "anonymous": false,
      "inputs": [
        {
          "indexed": true,
          "internalType": "address",
          "name": "payee",
          "type": "address"
        },
        {
          "indexed": true,
          "internalType": "address",
          "name": "projectContract",
          "type": "address"
        },
        {
          "indexed": true,
          "internalType": "address",
          "name": "nftContract",
          "type": "address"
        },
        {
          "indexed": false,
          "internalType": "uint256",
          "name": "tokenId",
          "type": "uint256"
        }
      ],
      "name": "NFTClaimed",
      "type": "event"
    },
    {
      "anonymous": false,
      "inputs": [
        {
          "indexed": true,
          "internalType": "address",
          "name": "previousOwner",
          "type": "address"
        },
        {
          "indexed": true,
          "internalType": "address",
          "name": "newOwner",
          "type": "address"
        }
      ],
      "name": "OwnershipTransferred",
      "type": "event"
    },
    {
      "anonymous": false,
      "inputs": [
        {
          "indexed": true,
          "internalType": "address",
          "name": "payee",
          "type": "address"
        },
        {
          "indexed": true,
          "internalType": "address",
          "name": "projectContract",
          "type": "address"
        },
        {
          "indexed": false,
          "internalType": "uint256",
          "name": "talaxAmount",
          "type": "uint256"
        }
      ],
      "name": "Withdrawn",
      "type": "event"
    },
    {
      "inputs": [],
      "name": "claimFunding",
      "outputs": [],
      "stateMutability": "nonpayable",
      "type": "function"
    },
    {
      "inputs": [
        {
          "internalType": "address",
          "name": "nftContract",
          "type": "address"
        },
        {
          "internalType": "uint256",
          "name": "tokenId",
          "type": "uint256"
        }
      ],
      "name": "claimNft",
      "outputs": [],
      "stateMutability": "payable",
      "type": "function"
    },
    {
      "inputs": [
        {
          "internalType": "address",
          "name": "nftContract",
          "type": "address"
        },
        {
          "internalType": "uint256",
          "name": "tokenId",
          "type": "uint256"
        }
      ],
      "name": "deposit",
      "outputs": [],
      "stateMutability": "payable",
      "type": "function"
    },
    {
      "inputs": [],
      "name": "getCapstone",
      "outputs": [
        {
          "internalType": "uint256",
          "name": "",
          "type": "uint256"
        }
      ],
      "stateMutability": "view",
      "type": "function"
    },
    {
      "inputs": [],
      "name": "getWithdrawalAble",
      "outputs": [
        {
          "internalType": "uint256",
          "name": "",
          "type": "uint256"
        }
      ],
      "stateMutability": "view",
      "type": "function"
    },
    {
      "inputs": [
        {
          "internalType": "address",
          "name": "token",
          "type": "address"
        },
        {
          "internalType": "uint256",
          "name": "artistFee",
          "type": "uint256"
        },
        {
          "internalType": "uint256",
          "name": "projectFee",
          "type": "uint256"
        },
        {
          "internalType": "uint256",
          "name": "advisoryFee",
          "type": "uint256"
        },
        {
          "internalType": "uint256",
          "name": "platformFee",
          "type": "uint256"
        }
      ],
      "name": "init",
      "outputs": [],
      "stateMutability": "nonpayable",
      "type": "function"
    },
    {
      "inputs": [],
      "name": "owner",
      "outputs": [
        {
          "internalType": "address",
          "name": "",
          "type": "address"
        }
      ],
      "stateMutability": "view",
      "type": "function"
    },
    {
      "inputs": [],
      "name": "renounceOwnership",
      "outputs": [],
      "stateMutability": "nonpayable",
      "type": "function"
    },
    {
      "inputs": [],
      "name": "status",
      "outputs": [
        {
          "internalType": "enum ProjectEscrow.Status",
          "name": "",
          "type": "uint8"
        }
      ],
      "stateMutability": "view",
      "type": "function"
    },
    {
      "inputs": [],
      "name": "totalDeposit",
      "outputs": [
        {
          "internalType": "uint256",
          "name": "",
          "type": "uint256"
        }
      ],
      "stateMutability": "view",
      "type": "function"
    },
    {
      "inputs": [
        {
          "internalType": "address",
          "name": "payee",
          "type": "address"
        }
      ],
      "name": "totalDepositsOf",
      "outputs": [
        {
          "internalType": "uint256",
          "name": "",
          "type": "uint256"
        }
      ],
      "stateMutability": "view",
      "type": "function"
    },
    {
      "inputs": [
        {
          "internalType": "address",
          "name": "newOwner",
          "type": "address"
        }
      ],
      "name": "transferOwnership",
      "outputs": [],
      "stateMutability": "nonpayable",
      "type": "function"
    },
    {
      "inputs": [],
      "name": "withdraw",
      "outputs": [],
      "stateMutability": "nonpayable",
      "type": "function"
    }
  ],
  "bytecode": "0x608060405234801561001057600080fd5b5061001a3361001f565b61006f565b600080546001600160a01b038381166001600160a01b0319831681178455604051919092169283917f8be0079c531659141344cd1fd0a4f28419497f9722a3daafe3b4186f6b6457e09190a35050565b6116158061007e6000396000f3fe6080604052600436106100c25760003560e01c80638da5cb5b1161007f578063d21f6c5111610059578063d21f6c51146101eb578063f2fde38b14610200578063f6153ccd14610220578063fce2d2161461023557600080fd5b80638da5cb5b146101615780639a73061714610189578063c4d496d5146101d657600080fd5b8063200d2ed2146100c7578063374f022e146100f05780633ccfd60b1461010f578063438009681461012657806347e7ef2414610139578063715018a61461014c575b600080fd5b3480156100d357600080fd5b5060035460ff166040516100e7919061138a565b60405180910390f35b3480156100fc57600080fd5b506007545b6040519081526020016100e7565b34801561011b57600080fd5b50610124610255565b005b6101246101343660046113ad565b610398565b6101246101473660046113ad565b6105cf565b34801561015857600080fd5b506101246108aa565b34801561016d57600080fd5b506000546040516001600160a01b0390911681526020016100e7565b34801561019557600080fd5b506101246101a43660046113d9565b600c80546001600160a01b0319166001600160a01b039690961695909517909455600892909255600955600a55600b55565b3480156101e257600080fd5b506101016108be565b3480156101f757600080fd5b50610124610921565b34801561020c57600080fd5b5061012461021b36600461141d565b6109b8565b34801561022c57600080fd5b50600254610101565b34801561024157600080fd5b5061010161025036600461141d565b610a31565b60015442116102a65760405162461bcd60e51b815260206004820152601860248201527750726f6a656374206973207374696c6c2066756e64696e6760401b60448201526064015b60405180910390fd5b60038054600091600f91839160ff909116908111156102c7576102c7611352565b60038111156102d8576102d8611352565b81526020808201929092526040908101600090812033825290925281205460038054919350600f929160ff169081111561031457610314611352565b600381111561032557610325611352565b81526020808201929092526040908101600090812033808352935290812055600c5461035d916001600160a01b039091169083610b07565b604051818152309033907fd1c19fbcd4551a5edfb66d43d2e337c04837afda3482b42bdf569a8fccdae5fb906020015b60405180910390a350565b6103a0610b6f565b60006103aa610c3a565b90506000805b825181101561045157336001600160a01b0316600e60008584815181106103d9576103d961143a565b602002602001015160038111156103f2576103f2611352565b600381111561040357610403611352565b8152602080820192909252604090810160009081206001600160a01b03808b168352908452828220898352909352205416141561043f57600191505b8061044981611466565b9150506103b0565b50806104aa5760405162461bcd60e51b815260206004820152602260248201527f54686973204e4654206973206e6f74207069636b65642062792074686520757360448201526132b960f11b606482015260840161029d565b6000846001600160a01b03166343bc16126040518163ffffffff1660e01b81526004016020604051808303816000875af11580156104ec573d6000803e3d6000fd5b505050506040513d601f19601f820116820180604052508101906105109190611481565b604051632142170760e11b81526001600160a01b03808316600483015233602483015260448201879052919250908616906342842e0e90606401600060405180830381600087803b15801561056457600080fd5b505af1158015610578573d6000803e3d6000fd5b505050506105868582610e22565b6040518481526001600160a01b03861690309033907f680d2ee25fd9474886898cc1987b4ed3c678e87231ceda0135d377279692b1289060200160405180910390a45050505050565b60015442106106125760405162461bcd60e51b815260206004820152600f60248201526e456e64206f662054696d656c696e6560881b604482015260640161029d565b6003805460ff168181111561062957610629611352565b14156106775760405162461bcd60e51b815260206004820152601760248201527f50726f6a6563742066756c6c7920737570706f72746564000000000000000000604482015260640161029d565b6000826001600160a01b0316637ff9b5966040518163ffffffff1660e01b81526004016020604051808303816000875af11580156106b9573d6000803e3d6000fd5b505050506040513d601f19601f820116820180604052508101906106dd919061149e565b600380549192508291600f9160009160ff16908111156106ff576106ff611352565b600381111561071057610710611352565b81526020019081526020016000206000336001600160a01b03166001600160a01b03168152602001908152602001600020600082825461075091906114b7565b92505081905550806002600082825461076991906114b7565b9091555050600380543391600e9160009160ff9091169081111561078f5761078f611352565b60038111156107a0576107a0611352565b8152602080820192909252604090810160009081206001600160a01b0388811683529084528282208783529093522080546001600160a01b03191692821692909217909155600c546107f59116333084610feb565b6006546002541115610818576003805460ff19168117905560065460075561085c565b600554600254111561083c576003805460ff1916600217905560055460075561085c565b600454600254111561085c576003805460ff191660011790556004546007555b600354604051309133917f1097a36b9c6797b75a1d9101d5e901915a46877d2eeaf7a85a1940f9535fe74d9161089d918691899160ff9091169089906114cf565b60405180910390a3505050565b6108b2611029565b6108bc6000611083565b565b600042600154111561091b5760038054600f9160009160ff16908111156108e7576108e7611352565b60038111156108f8576108f8611352565b815260208082019290925260409081016000908120338252909252902054919050565b50600090565b610929611029565b610931610b6f565b600d80546000909155600c54610962906001600160a01b031661095c6000546001600160a01b031690565b83610b07565b306109756000546001600160a01b031690565b6001600160a01b03167ff9092fc04a1a3aeaca51ca3f1eea2b89cc66597250afcca74ca7bb25f4023548834260405161038d929190918252602082015260400190565b6109c0611029565b6001600160a01b038116610a255760405162461bcd60e51b815260206004820152602660248201527f4f776e61626c653a206e6577206f776e657220697320746865207a65726f206160448201526564647265737360d01b606482015260840161029d565b610a2e81611083565b50565b6001600160a01b03811660009081527f45f76dafbbad695564362934e24d72eedc57f9fc1a65f39bca62176cc829682860209081526040808320547fa74ba3945261e09fde15ba3db55005b205e61eeb4ad811ac0faa2b315bffeead8352818420547f169f97de0d9a84d840042b17d3c6b9638b3d6fd9024c9eb0c7a306a17b49f88f8452828520547ff4803e074bd026baaf6ed2e288c9515f68c72fb7216eebdd7cae1718a53ec375909452918420549092610aed916114b7565b610af791906114b7565b610b0191906114b7565b92915050565b6040516001600160a01b038316602482015260448101829052610b6a90849063a9059cbb60e01b906064015b60408051601f198184030181529190526020810180516001600160e01b03166001600160e01b0319909316929092179091526110d3565b505050565b6001544211610bbb5760405162461bcd60e51b815260206004820152601860248201527750726f6a656374206973207374696c6c2066756e64696e6760401b604482015260640161029d565b60006003805460ff1690811115610bd457610bd4611352565b14156108bc5760405162461bcd60e51b815260206004820152602f60248201527f546869732070726f6a656374206661696c656420746f2070617373207468652060448201526e66756e64696e672070726f6365737360881b606482015260840161029d565b606060016003805460ff1690811115610c5557610c55611352565b1415610cc65760408051600180825281830190925260009160208083019080368337019050509050600081600081518110610c9257610c9261143a565b60200260200101906003811115610cab57610cab611352565b90816003811115610cbe57610cbe611352565b905250919050565b60026003805460ff1690811115610cdf57610cdf611352565b1415610d6057604080516002808252606082018352600092602083019080368337019050509050600081600081518110610d1b57610d1b61143a565b60200260200101906003811115610d3457610d34611352565b90816003811115610d4757610d47611352565b81525050600181600181518110610c9257610c9261143a565b6040805160038082526080820190925260009160208201606080368337019050509050600081600081518110610d9857610d9861143a565b60200260200101906003811115610db157610db1611352565b90816003811115610dc457610dc4611352565b81525050600181600181518110610ddd57610ddd61143a565b60200260200101906003811115610df657610df6611352565b90816003811115610e0957610e09611352565b81525050600281600281518110610c9257610c9261143a565b6000826001600160a01b0316637ff9b5966040518163ffffffff1660e01b81526004016020604051808303816000875af1158015610e64573d6000803e3d6000fd5b505050506040513d601f19601f82011682018060405250810190610e88919061149e565b9050610eb9600c60009054906101000a90046001600160a01b03163384610eb4856008600001546111a5565b610feb565b600c546040805163097bc71960e31b81529051610f3d926001600160a01b03169133918391634bde38c891600480830192602092919082900301816000875af1158015610f0a573d6000803e3d6000fd5b505050506040513d601f19601f82011682018060405250810190610f2e9190611481565b610eb4856008600301546111a5565b600c54604080516314c1eba960e11b81529051610fc1926001600160a01b03169133918391632983d75291600480830192602092919082900301816000875af1158015610f8e573d6000803e3d6000fd5b505050506040513d601f19601f82011682018060405250810190610fb29190611481565b610eb4856008600201546111a5565b610fd0816008600101546111a5565b600d6000828254610fe191906114b7565b9091555050505050565b6040516001600160a01b03808516602483015283166044820152606481018290526110239085906323b872dd60e01b90608401610b33565b50505050565b6000546001600160a01b031633146108bc5760405162461bcd60e51b815260206004820181905260248201527f4f776e61626c653a2063616c6c6572206973206e6f7420746865206f776e6572604482015260640161029d565b600080546001600160a01b038381166001600160a01b0319831681178455604051919092169283917f8be0079c531659141344cd1fd0a4f28419497f9722a3daafe3b4186f6b6457e09190a35050565b6000611128826040518060400160405280602081526020017f5361666545524332303a206c6f772d6c6576656c2063616c6c206661696c6564815250856001600160a01b03166111c59092919063ffffffff16565b805190915015610b6a57808060200190518101906111469190611501565b610b6a5760405162461bcd60e51b815260206004820152602a60248201527f5361666545524332303a204552433230206f7065726174696f6e20646964206e6044820152691bdd081cdd58d8d9595960b21b606482015260840161029d565b60006127106111b48385611523565b6111be9190611542565b9392505050565b60606111d484846000856111dc565b949350505050565b60608247101561123d5760405162461bcd60e51b815260206004820152602660248201527f416464726573733a20696e73756666696369656e742062616c616e636520666f6044820152651c8818d85b1b60d21b606482015260840161029d565b600080866001600160a01b031685876040516112599190611590565b60006040518083038185875af1925050503d8060008114611296576040519150601f19603f3d011682016040523d82523d6000602084013e61129b565b606091505b50915091506112ac878383876112b7565b979650505050505050565b6060831561132357825161131c576001600160a01b0385163b61131c5760405162461bcd60e51b815260206004820152601d60248201527f416464726573733a2063616c6c20746f206e6f6e2d636f6e7472616374000000604482015260640161029d565b50816111d4565b6111d483838151156113385781518083602001fd5b8060405162461bcd60e51b815260040161029d91906115ac565b634e487b7160e01b600052602160045260246000fd5b6004811061138657634e487b7160e01b600052602160045260246000fd5b9052565b60208101610b018284611368565b6001600160a01b0381168114610a2e57600080fd5b600080604083850312156113c057600080fd5b82356113cb81611398565b946020939093013593505050565b600080600080600060a086880312156113f157600080fd5b85356113fc81611398565b97602087013597506040870135966060810135965060800135945092505050565b60006020828403121561142f57600080fd5b81356111be81611398565b634e487b7160e01b600052603260045260246000fd5b634e487b7160e01b600052601160045260246000fd5b600060001982141561147a5761147a611450565b5060010190565b60006020828403121561149357600080fd5b81516111be81611398565b6000602082840312156114b057600080fd5b5051919050565b600082198211156114ca576114ca611450565b500190565b8481526001600160a01b0384166020820152608081016114f26040830185611368565b82606083015295945050505050565b60006020828403121561151357600080fd5b815180151581146111be57600080fd5b600081600019048311821515161561153d5761153d611450565b500290565b60008261155f57634e487b7160e01b600052601260045260246000fd5b500490565b60005b8381101561157f578181015183820152602001611567565b838111156110235750506000910152565b600082516115a2818460208701611564565b9190910192915050565b60208152600082518060208401526115cb816040850160208701611564565b601f01601f1916919091016040019291505056fea2646970667358221220b0a37443392e4fbfb5a3b731090844d5c915185c24560a6fa9ba5370a6cb3c8b64736f6c634300080b0033",
  "linkReferences": {},
  "deployedLinkReferences": {}
}