{
  "_format": "hh-sol-artifact-1",
  "contractName": "ProjectEscrow",
  "sourceName": "contracts/ERC721/Escrow.sol",
  "abi": [
    {
      "inputs": [],
      "stateMutability": "nonpayable",
      "type": "constructor"
    },
    {
      "anonymous": false,
      "inputs": [
        {
          "indexed": true,
          "internalType": "address",
          "name": "payee",
          "type": "address"
        },
        {
          "indexed": true,
          "internalType": "address",
          "name": "projectContract",
          "type": "address"
        },
        {
          "indexed": false,
          "internalType": "uint256",
          "name": "talaxAmount",
          "type": "uint256"
        },
        {
          "indexed": false,
          "internalType": "address",
          "name": "nftContract",
          "type": "address"
        },
        {
          "indexed": false,
          "internalType": "enum ProjectEscrow.Status",
          "name": "status",
          "type": "uint8"
        },
        {
          "indexed": false,
          "internalType": "uint256",
          "name": "tokenId",
          "type": "uint256"
        }
      ],
      "name": "Deposited",
      "type": "event"
    },
    {
      "anonymous": false,
      "inputs": [
        {
          "indexed": true,
          "internalType": "address",
          "name": "owner",
          "type": "address"
        },
        {
          "indexed": true,
          "internalType": "address",
          "name": "projectContract",
          "type": "address"
        },
        {
          "indexed": false,
          "internalType": "uint256",
          "name": "talaxAmount",
          "type": "uint256"
        },
        {
          "indexed": false,
          "internalType": "uint256",
          "name": "timestamp",
          "type": "uint256"
        }
      ],
      "name": "FundClaimed",
      "type": "event"
    },
    {
      "anonymous": false,
      "inputs": [
        {
          "indexed": true,
          "internalType": "address",
          "name": "payee",
          "type": "address"
        },
        {
          "indexed": true,
          "internalType": "address",
          "name": "projectContract",
          "type": "address"
        },
        {
          "indexed": true,
          "internalType": "address",
          "name": "nftContract",
          "type": "address"
        },
        {
          "indexed": false,
          "internalType": "uint256",
          "name": "tokenId",
          "type": "uint256"
        }
      ],
      "name": "NFTClaimed",
      "type": "event"
    },
    {
      "anonymous": false,
      "inputs": [
        {
          "indexed": true,
          "internalType": "address",
          "name": "previousOwner",
          "type": "address"
        },
        {
          "indexed": true,
          "internalType": "address",
          "name": "newOwner",
          "type": "address"
        }
      ],
      "name": "OwnershipTransferred",
      "type": "event"
    },
    {
      "anonymous": false,
      "inputs": [
        {
          "indexed": true,
          "internalType": "address",
          "name": "payee",
          "type": "address"
        },
        {
          "indexed": true,
          "internalType": "address",
          "name": "projectContract",
          "type": "address"
        },
        {
          "indexed": false,
          "internalType": "uint256",
          "name": "talaxAmount",
          "type": "uint256"
        }
      ],
      "name": "Withdrawn",
      "type": "event"
    },
    {
      "inputs": [],
      "name": "claimFunding",
      "outputs": [],
      "stateMutability": "nonpayable",
      "type": "function"
    },
    {
      "inputs": [
        {
          "internalType": "address",
          "name": "nftContract",
          "type": "address"
        },
        {
          "internalType": "uint256",
          "name": "tokenId",
          "type": "uint256"
        }
      ],
      "name": "claimNft",
      "outputs": [],
      "stateMutability": "payable",
      "type": "function"
    },
    {
      "inputs": [
        {
          "internalType": "address",
          "name": "nftContract",
          "type": "address"
        },
        {
          "internalType": "uint256",
          "name": "tokenId",
          "type": "uint256"
        }
      ],
      "name": "deposit",
      "outputs": [],
      "stateMutability": "payable",
      "type": "function"
    },
    {
      "inputs": [],
      "name": "getCapstone",
      "outputs": [
        {
          "internalType": "uint256",
          "name": "",
          "type": "uint256"
        }
      ],
      "stateMutability": "view",
      "type": "function"
    },
    {
      "inputs": [],
      "name": "getWithdrawalAble",
      "outputs": [
        {
          "internalType": "uint256",
          "name": "",
          "type": "uint256"
        }
      ],
      "stateMutability": "view",
      "type": "function"
    },
    {
      "inputs": [
        {
          "internalType": "address",
          "name": "token",
          "type": "address"
        },
        {
          "internalType": "uint256",
          "name": "artistFee",
          "type": "uint256"
        },
        {
          "internalType": "uint256",
          "name": "projectFee",
          "type": "uint256"
        },
        {
          "internalType": "uint256",
          "name": "advisoryFee",
          "type": "uint256"
        },
        {
          "internalType": "uint256",
          "name": "platformFee",
          "type": "uint256"
        }
      ],
      "name": "init",
      "outputs": [],
      "stateMutability": "nonpayable",
      "type": "function"
    },
    {
      "inputs": [],
      "name": "owner",
      "outputs": [
        {
          "internalType": "address",
          "name": "",
          "type": "address"
        }
      ],
      "stateMutability": "view",
      "type": "function"
    },
    {
      "inputs": [],
      "name": "renounceOwnership",
      "outputs": [],
      "stateMutability": "nonpayable",
      "type": "function"
    },
    {
      "inputs": [
        {
          "internalType": "address",
          "name": "payee",
          "type": "address"
        }
      ],
      "name": "totalDepositsOf",
      "outputs": [
        {
          "internalType": "uint256",
          "name": "",
          "type": "uint256"
        }
      ],
      "stateMutability": "view",
      "type": "function"
    },
    {
      "inputs": [
        {
          "internalType": "address",
          "name": "newOwner",
          "type": "address"
        }
      ],
      "name": "transferOwnership",
      "outputs": [],
      "stateMutability": "nonpayable",
      "type": "function"
    },
    {
      "inputs": [],
      "name": "withdraw",
      "outputs": [],
      "stateMutability": "nonpayable",
      "type": "function"
    }
  ],
  "bytecode": "0x60806040523480156200001157600080fd5b5062000032620000266200003860201b60201c565b6200004060201b60201c565b62000104565b600033905090565b60008060009054906101000a900473ffffffffffffffffffffffffffffffffffffffff169050816000806101000a81548173ffffffffffffffffffffffffffffffffffffffff021916908373ffffffffffffffffffffffffffffffffffffffff1602179055508173ffffffffffffffffffffffffffffffffffffffff168173ffffffffffffffffffffffffffffffffffffffff167f8be0079c531659141344cd1fd0a4f28419497f9722a3daafe3b4186f6b6457e060405160405180910390a35050565b61274180620001146000396000f3fe60806040526004361061009c5760003560e01c80638da5cb5b116100645780638da5cb5b146101325780639a7306171461015d578063c4d496d514610186578063d21f6c51146101b1578063f2fde38b146101c8578063fce2d216146101f15761009c565b8063374f022e146100a15780633ccfd60b146100cc57806343800968146100e357806347e7ef24146100ff578063715018a61461011b575b600080fd5b3480156100ad57600080fd5b506100b661022e565b6040516100c39190611b2c565b60405180910390f35b3480156100d857600080fd5b506100e161023b565b005b6100fd60048036038101906100f89190611bd6565b6103e7565b005b61011960048036038101906101149190611bd6565b610740565b005b34801561012757600080fd5b50610130610b86565b005b34801561013e57600080fd5b50610147610b9a565b6040516101549190611c25565b60405180910390f35b34801561016957600080fd5b50610184600480360381019061017f9190611c40565b610bc3565b005b34801561019257600080fd5b5061019b610c33565b6040516101a89190611b2c565b60405180910390f35b3480156101bd57600080fd5b506101c6610cd2565b005b3480156101d457600080fd5b506101ef60048036038101906101ea9190611cbb565b610d94565b005b3480156101fd57600080fd5b5061021860048036038101906102139190611cbb565b610e18565b6040516102259190611b2c565b60405180910390f35b6000600460030154905090565b610243611015565b6000600f6000600360009054906101000a900460ff16600381111561026b5761026a611ce8565b5b600381111561027d5761027c611ce8565b5b815260200190815260200160002060003373ffffffffffffffffffffffffffffffffffffffff1673ffffffffffffffffffffffffffffffffffffffff168152602001908152602001600020549050600f6000600360009054906101000a900460ff1660038111156102f1576102f0611ce8565b5b600381111561030357610302611ce8565b5b815260200190815260200160002060003373ffffffffffffffffffffffffffffffffffffffff1673ffffffffffffffffffffffffffffffffffffffff1681526020019081526020016000206000905561037f600c60009054906101000a900473ffffffffffffffffffffffffffffffffffffffff16338361105b565b3073ffffffffffffffffffffffffffffffffffffffff163373ffffffffffffffffffffffffffffffffffffffff167fd1c19fbcd4551a5edfb66d43d2e337c04837afda3482b42bdf569a8fccdae5fb836040516103dc9190611b2c565b60405180910390a350565b6103ef611015565b6000600381111561040357610402611ce8565b5b600360009054906101000a900460ff16600381111561042557610424611ce8565b5b1415610466576040517f08c379a000000000000000000000000000000000000000000000000000000000815260040161045d90611d9a565b60405180910390fd5b60006104706110e1565b9050600080600090505b825181101561058e573373ffffffffffffffffffffffffffffffffffffffff16600e60008584815181106104b1576104b0611dba565b5b602002602001015160038111156104cb576104ca611ce8565b5b60038111156104dd576104dc611ce8565b5b815260200190815260200160002060008773ffffffffffffffffffffffffffffffffffffffff1673ffffffffffffffffffffffffffffffffffffffff168152602001908152602001600020600086815260200190815260200160002060009054906101000a900473ffffffffffffffffffffffffffffffffffffffff1673ffffffffffffffffffffffffffffffffffffffff16141561057b57600191505b808061058690611e18565b91505061047a565b50806105cf576040517f08c379a00000000000000000000000000000000000000000000000000000000081526004016105c690611ed3565b60405180910390fd5b60008473ffffffffffffffffffffffffffffffffffffffff166343bc16126040518163ffffffff1660e01b81526004016020604051808303816000875af115801561061e573d6000803e3d6000fd5b505050506040513d601f19601f820116820180604052508101906106429190611f08565b90508473ffffffffffffffffffffffffffffffffffffffff166342842e0e8233876040518463ffffffff1660e01b815260040161068193929190611f35565b600060405180830381600087803b15801561069b57600080fd5b505af11580156106af573d6000803e3d6000fd5b505050506106bd858261140f565b8473ffffffffffffffffffffffffffffffffffffffff163073ffffffffffffffffffffffffffffffffffffffff163373ffffffffffffffffffffffffffffffffffffffff167f680d2ee25fd9474886898cc1987b4ed3c678e87231ceda0135d377279692b128876040516107319190611b2c565b60405180910390a45050505050565b6001544210610784576040517f08c379a000000000000000000000000000000000000000000000000000000000815260040161077b90611fb8565b60405180910390fd5b60038081111561079757610796611ce8565b5b600360009054906101000a900460ff1660038111156107b9576107b8611ce8565b5b14156107fa576040517f08c379a00000000000000000000000000000000000000000000000000000000081526004016107f190612024565b60405180910390fd5b60008273ffffffffffffffffffffffffffffffffffffffff16637ff9b5966040518163ffffffff1660e01b81526004016020604051808303816000875af1158015610849573d6000803e3d6000fd5b505050506040513d601f19601f8201168201806040525081019061086d9190612059565b905080600f6000600360009054906101000a900460ff16600381111561089657610895611ce8565b5b60038111156108a8576108a7611ce8565b5b815260200190815260200160002060003373ffffffffffffffffffffffffffffffffffffffff1673ffffffffffffffffffffffffffffffffffffffff16815260200190815260200160002060008282546109029190612086565b92505081905550806002600082825461091b9190612086565b9250508190555033600e6000600360009054906101000a900460ff16600381111561094957610948611ce8565b5b600381111561095b5761095a611ce8565b5b815260200190815260200160002060008573ffffffffffffffffffffffffffffffffffffffff1673ffffffffffffffffffffffffffffffffffffffff168152602001908152602001600020600084815260200190815260200160002060006101000a81548173ffffffffffffffffffffffffffffffffffffffff021916908373ffffffffffffffffffffffffffffffffffffffff160217905550610a23600c60009054906101000a900473ffffffffffffffffffffffffffffffffffffffff16333084611688565b60046002015460025410610a6f5760038060006101000a81548160ff02191690836003811115610a5657610a55611ce8565b5b0217905550600460020154600460030181905550610b07565b60046001015460025410610abc576002600360006101000a81548160ff02191690836003811115610aa357610aa2611ce8565b5b0217905550600460010154600460030181905550610b06565b60046000015460025410610b05576001600360006101000a81548160ff02191690836003811115610af057610aef611ce8565b5b02179055506004600001546004600301819055505b5b5b3073ffffffffffffffffffffffffffffffffffffffff163373ffffffffffffffffffffffffffffffffffffffff167f1097a36b9c6797b75a1d9101d5e901915a46877d2eeaf7a85a1940f9535fe74d8386600360009054906101000a900460ff1687604051610b799493929190612124565b60405180910390a3505050565b610b8e611711565b610b98600061178f565b565b60008060009054906101000a900473ffffffffffffffffffffffffffffffffffffffff16905090565b84600c60006101000a81548173ffffffffffffffffffffffffffffffffffffffff021916908373ffffffffffffffffffffffffffffffffffffffff160217905550836008600001819055508260086001018190555081600860020181905550806008600301819055505050505050565b6000426001541115610cca57600f6000600360009054906101000a900460ff166003811115610c6557610c64611ce8565b5b6003811115610c7757610c76611ce8565b5b815260200190815260200160002060003373ffffffffffffffffffffffffffffffffffffffff1673ffffffffffffffffffffffffffffffffffffffff168152602001908152602001600020549050610ccf565b600090505b90565b610cda611711565b610ce2611015565b6000600d549050600d60009055610d23600c60009054906101000a900473ffffffffffffffffffffffffffffffffffffffff16610d1d610b9a565b8361105b565b3073ffffffffffffffffffffffffffffffffffffffff16610d42610b9a565b73ffffffffffffffffffffffffffffffffffffffff167ff9092fc04a1a3aeaca51ca3f1eea2b89cc66597250afcca74ca7bb25f40235488342604051610d89929190612169565b60405180910390a350565b610d9c611711565b600073ffffffffffffffffffffffffffffffffffffffff168173ffffffffffffffffffffffffffffffffffffffff161415610e0c576040517f08c379a0000000000000000000000000000000000000000000000000000000008152600401610e0390612204565b60405180910390fd5b610e158161178f565b50565b6000600f6000600380811115610e3157610e30611ce8565b5b6003811115610e4357610e42611ce8565b5b815260200190815260200160002060008373ffffffffffffffffffffffffffffffffffffffff1673ffffffffffffffffffffffffffffffffffffffff16815260200190815260200160002054600f600060026003811115610ea757610ea6611ce8565b5b6003811115610eb957610eb8611ce8565b5b815260200190815260200160002060008473ffffffffffffffffffffffffffffffffffffffff1673ffffffffffffffffffffffffffffffffffffffff16815260200190815260200160002054600f600060016003811115610f1d57610f1c611ce8565b5b6003811115610f2f57610f2e611ce8565b5b815260200190815260200160002060008573ffffffffffffffffffffffffffffffffffffffff1673ffffffffffffffffffffffffffffffffffffffff16815260200190815260200160002054600f6000806003811115610f9257610f91611ce8565b5b6003811115610fa457610fa3611ce8565b5b815260200190815260200160002060008673ffffffffffffffffffffffffffffffffffffffff1673ffffffffffffffffffffffffffffffffffffffff16815260200190815260200160002054610ffa9190612086565b6110049190612086565b61100e9190612086565b9050919050565b6001544211611059576040517f08c379a000000000000000000000000000000000000000000000000000000000815260040161105090612270565b60405180910390fd5b565b6110dc8363a9059cbb60e01b848460405160240161107a929190612290565b604051602081830303815290604052907bffffffffffffffffffffffffffffffffffffffffffffffffffffffff19166020820180517bffffffffffffffffffffffffffffffffffffffffffffffffffffffff8381831617835250505050611853565b505050565b6060600160038111156110f7576110f6611ce8565b5b600360009054906101000a900460ff16600381111561111957611118611ce8565b5b14156111be576000600167ffffffffffffffff81111561113c5761113b6122b9565b5b60405190808252806020026020018201604052801561116a5781602001602082028036833780820191505090505b50905060008160008151811061118357611182611dba565b5b6020026020010190600381111561119d5761119c611ce8565b5b908160038111156111b1576111b0611ce8565b5b815250508091505061140c565b600260038111156111d2576111d1611ce8565b5b600360009054906101000a900460ff1660038111156111f4576111f3611ce8565b5b14156112e1576000600267ffffffffffffffff811115611217576112166122b9565b5b6040519080825280602002602001820160405280156112455781602001602082028036833780820191505090505b50905060008160008151811061125e5761125d611dba565b5b6020026020010190600381111561127857611277611ce8565b5b9081600381111561128c5761128b611ce8565b5b815250506001816001815181106112a6576112a5611dba565b5b602002602001019060038111156112c0576112bf611ce8565b5b908160038111156112d4576112d3611ce8565b5b815250508091505061140c565b6000600367ffffffffffffffff8111156112fe576112fd6122b9565b5b60405190808252806020026020018201604052801561132c5781602001602082028036833780820191505090505b50905060008160008151811061134557611344611dba565b5b6020026020010190600381111561135f5761135e611ce8565b5b9081600381111561137357611372611ce8565b5b8152505060018160018151811061138d5761138c611dba565b5b602002602001019060038111156113a7576113a6611ce8565b5b908160038111156113bb576113ba611ce8565b5b815250506002816002815181106113d5576113d4611dba565b5b602002602001019060038111156113ef576113ee611ce8565b5b9081600381111561140357611402611ce8565b5b81525050809150505b90565b60008273ffffffffffffffffffffffffffffffffffffffff16637ff9b5966040518163ffffffff1660e01b81526004016020604051808303816000875af115801561145e573d6000803e3d6000fd5b505050506040513d601f19601f820116820180604052508101906114829190612059565b90506114c0600c60009054906101000a900473ffffffffffffffffffffffffffffffffffffffff1633846114bb8560086000015461191a565b611688565b61158e600c60009054906101000a900473ffffffffffffffffffffffffffffffffffffffff1633600c60009054906101000a900473ffffffffffffffffffffffffffffffffffffffff1673ffffffffffffffffffffffffffffffffffffffff16634bde38c86040518163ffffffff1660e01b81526004016020604051808303816000875af1158015611556573d6000803e3d6000fd5b505050506040513d601f19601f8201168201806040525081019061157a9190611f08565b6115898560086000015461191a565b611688565b61165c600c60009054906101000a900473ffffffffffffffffffffffffffffffffffffffff1633600c60009054906101000a900473ffffffffffffffffffffffffffffffffffffffff1673ffffffffffffffffffffffffffffffffffffffff16632983d7526040518163ffffffff1660e01b81526004016020604051808303816000875af1158015611624573d6000803e3d6000fd5b505050506040513d601f19601f820116820180604052508101906116489190611f08565b6116578560086000015461191a565b611688565b61166b8160086001015461191a565b600d600082825461167c9190612086565b92505081905550505050565b61170b846323b872dd60e01b8585856040516024016116a993929190611f35565b604051602081830303815290604052907bffffffffffffffffffffffffffffffffffffffffffffffffffffffff19166020820180517bffffffffffffffffffffffffffffffffffffffffffffffffffffffff8381831617835250505050611853565b50505050565b61171961193d565b73ffffffffffffffffffffffffffffffffffffffff16611737610b9a565b73ffffffffffffffffffffffffffffffffffffffff161461178d576040517f08c379a000000000000000000000000000000000000000000000000000000000815260040161178490612334565b60405180910390fd5b565b60008060009054906101000a900473ffffffffffffffffffffffffffffffffffffffff169050816000806101000a81548173ffffffffffffffffffffffffffffffffffffffff021916908373ffffffffffffffffffffffffffffffffffffffff1602179055508173ffffffffffffffffffffffffffffffffffffffff168173ffffffffffffffffffffffffffffffffffffffff167f8be0079c531659141344cd1fd0a4f28419497f9722a3daafe3b4186f6b6457e060405160405180910390a35050565b60006118b5826040518060400160405280602081526020017f5361666545524332303a206c6f772d6c6576656c2063616c6c206661696c65648152508573ffffffffffffffffffffffffffffffffffffffff166119459092919063ffffffff16565b905060008151111561191557808060200190518101906118d5919061238c565b611914576040517f08c379a000000000000000000000000000000000000000000000000000000000815260040161190b9061242b565b60405180910390fd5b5b505050565b6000612710828461192b919061244b565b61193591906124d4565b905092915050565b600033905090565b6060611954848460008561195d565b90509392505050565b6060824710156119a2576040517f08c379a000000000000000000000000000000000000000000000000000000000815260040161199990612577565b60405180910390fd5b6000808673ffffffffffffffffffffffffffffffffffffffff1685876040516119cb9190612611565b60006040518083038185875af1925050503d8060008114611a08576040519150601f19603f3d011682016040523d82523d6000602084013e611a0d565b606091505b5091509150611a1e87838387611a2a565b92505050949350505050565b60608315611a8d57600083511415611a8557611a4585611aa0565b611a84576040517f08c379a0000000000000000000000000000000000000000000000000000000008152600401611a7b90612674565b60405180910390fd5b5b829050611a98565b611a978383611ac3565b5b949350505050565b6000808273ffffffffffffffffffffffffffffffffffffffff163b119050919050565b600082511115611ad65781518083602001fd5b806040517f08c379a0000000000000000000000000000000000000000000000000000000008152600401611b0a91906126e9565b60405180910390fd5b6000819050919050565b611b2681611b13565b82525050565b6000602082019050611b416000830184611b1d565b92915050565b600080fd5b600073ffffffffffffffffffffffffffffffffffffffff82169050919050565b6000611b7782611b4c565b9050919050565b611b8781611b6c565b8114611b9257600080fd5b50565b600081359050611ba481611b7e565b92915050565b611bb381611b13565b8114611bbe57600080fd5b50565b600081359050611bd081611baa565b92915050565b60008060408385031215611bed57611bec611b47565b5b6000611bfb85828601611b95565b9250506020611c0c85828601611bc1565b9150509250929050565b611c1f81611b6c565b82525050565b6000602082019050611c3a6000830184611c16565b92915050565b600080600080600060a08688031215611c5c57611c5b611b47565b5b6000611c6a88828901611b95565b9550506020611c7b88828901611bc1565b9450506040611c8c88828901611bc1565b9350506060611c9d88828901611bc1565b9250506080611cae88828901611bc1565b9150509295509295909350565b600060208284031215611cd157611cd0611b47565b5b6000611cdf84828501611b95565b91505092915050565b7f4e487b7100000000000000000000000000000000000000000000000000000000600052602160045260246000fd5b600082825260208201905092915050565b7f546869732070726f6a656374206661696c656420746f2070617373207468652060008201527f66756e64696e672070726f636573730000000000000000000000000000000000602082015250565b6000611d84602f83611d17565b9150611d8f82611d28565b604082019050919050565b60006020820190508181036000830152611db381611d77565b9050919050565b7f4e487b7100000000000000000000000000000000000000000000000000000000600052603260045260246000fd5b7f4e487b7100000000000000000000000000000000000000000000000000000000600052601160045260246000fd5b6000611e2382611b13565b91507fffffffffffffffffffffffffffffffffffffffffffffffffffffffffffffffff821415611e5657611e55611de9565b5b600182019050919050565b7f54686973204e4654206973206e6f74207069636b65642062792074686520757360008201527f6572000000000000000000000000000000000000000000000000000000000000602082015250565b6000611ebd602283611d17565b9150611ec882611e61565b604082019050919050565b60006020820190508181036000830152611eec81611eb0565b9050919050565b600081519050611f0281611b7e565b92915050565b600060208284031215611f1e57611f1d611b47565b5b6000611f2c84828501611ef3565b91505092915050565b6000606082019050611f4a6000830186611c16565b611f576020830185611c16565b611f646040830184611b1d565b949350505050565b7f50726f6a6563742069732072756e6e696e670000000000000000000000000000600082015250565b6000611fa2601283611d17565b9150611fad82611f6c565b602082019050919050565b60006020820190508181036000830152611fd181611f95565b9050919050565b7f50726f6a6563742066756c6c7920737570706f72746564000000000000000000600082015250565b600061200e601783611d17565b915061201982611fd8565b602082019050919050565b6000602082019050818103600083015261203d81612001565b9050919050565b60008151905061205381611baa565b92915050565b60006020828403121561206f5761206e611b47565b5b600061207d84828501612044565b91505092915050565b600061209182611b13565b915061209c83611b13565b9250827fffffffffffffffffffffffffffffffffffffffffffffffffffffffffffffffff038211156120d1576120d0611de9565b5b828201905092915050565b600481106120ed576120ec611ce8565b5b50565b60008190506120fe826120dc565b919050565b600061210e826120f0565b9050919050565b61211e81612103565b82525050565b60006080820190506121396000830187611b1d565b6121466020830186611c16565b6121536040830185612115565b6121606060830184611b1d565b95945050505050565b600060408201905061217e6000830185611b1d565b61218b6020830184611b1d565b9392505050565b7f4f776e61626c653a206e6577206f776e657220697320746865207a65726f206160008201527f6464726573730000000000000000000000000000000000000000000000000000602082015250565b60006121ee602683611d17565b91506121f982612192565b604082019050919050565b6000602082019050818103600083015261221d816121e1565b9050919050565b7f50726f6a656374206973207374696c6c2066756e64696e670000000000000000600082015250565b600061225a601883611d17565b915061226582612224565b602082019050919050565b600060208201905081810360008301526122898161224d565b9050919050565b60006040820190506122a56000830185611c16565b6122b26020830184611b1d565b9392505050565b7f4e487b7100000000000000000000000000000000000000000000000000000000600052604160045260246000fd5b7f4f776e61626c653a2063616c6c6572206973206e6f7420746865206f776e6572600082015250565b600061231e602083611d17565b9150612329826122e8565b602082019050919050565b6000602082019050818103600083015261234d81612311565b9050919050565b60008115159050919050565b61236981612354565b811461237457600080fd5b50565b60008151905061238681612360565b92915050565b6000602082840312156123a2576123a1611b47565b5b60006123b084828501612377565b91505092915050565b7f5361666545524332303a204552433230206f7065726174696f6e20646964206e60008201527f6f74207375636365656400000000000000000000000000000000000000000000602082015250565b6000612415602a83611d17565b9150612420826123b9565b604082019050919050565b6000602082019050818103600083015261244481612408565b9050919050565b600061245682611b13565b915061246183611b13565b9250817fffffffffffffffffffffffffffffffffffffffffffffffffffffffffffffffff048311821515161561249a57612499611de9565b5b828202905092915050565b7f4e487b7100000000000000000000000000000000000000000000000000000000600052601260045260246000fd5b60006124df82611b13565b91506124ea83611b13565b9250826124fa576124f96124a5565b5b828204905092915050565b7f416464726573733a20696e73756666696369656e742062616c616e636520666f60008201527f722063616c6c0000000000000000000000000000000000000000000000000000602082015250565b6000612561602683611d17565b915061256c82612505565b604082019050919050565b6000602082019050818103600083015261259081612554565b9050919050565b600081519050919050565b600081905092915050565b60005b838110156125cb5780820151818401526020810190506125b0565b838111156125da576000848401525b50505050565b60006125eb82612597565b6125f581856125a2565b93506126058185602086016125ad565b80840191505092915050565b600061261d82846125e0565b915081905092915050565b7f416464726573733a2063616c6c20746f206e6f6e2d636f6e7472616374000000600082015250565b600061265e601d83611d17565b915061266982612628565b602082019050919050565b6000602082019050818103600083015261268d81612651565b9050919050565b600081519050919050565b6000601f19601f8301169050919050565b60006126bb82612694565b6126c58185611d17565b93506126d58185602086016125ad565b6126de8161269f565b840191505092915050565b6000602082019050818103600083015261270381846126b0565b90509291505056fea264697066735822122044a99f6b8cb0845a869fa8c7734e48470ea0c65cd2f584b9664e1f8d05d7239564736f6c634300080b0033",
  "linkReferences": {},
  "deployedLinkReferences": {}
}