{
  "_format": "hh-sol-artifact-1",
  "contractName": "ProjectEscrow",
  "sourceName": "contracts/ERC721/Escrow.sol",
  "abi": [
    {
      "inputs": [],
      "stateMutability": "nonpayable",
      "type": "constructor"
    },
    {
      "anonymous": false,
      "inputs": [
        {
          "indexed": true,
          "internalType": "address",
          "name": "payee",
          "type": "address"
        },
        {
          "indexed": true,
          "internalType": "address",
          "name": "projectContract",
          "type": "address"
        },
        {
          "indexed": false,
          "internalType": "uint256",
          "name": "talaxAmount",
          "type": "uint256"
        },
        {
          "indexed": false,
          "internalType": "address",
          "name": "nftContract",
          "type": "address"
        },
        {
          "indexed": false,
          "internalType": "enum ProjectEscrow.Status",
          "name": "status",
          "type": "uint8"
        },
        {
          "indexed": false,
          "internalType": "uint256",
          "name": "tokenId",
          "type": "uint256"
        }
      ],
      "name": "Deposited",
      "type": "event"
    },
    {
      "anonymous": false,
      "inputs": [
        {
          "indexed": true,
          "internalType": "address",
          "name": "payee",
          "type": "address"
        },
        {
          "indexed": true,
          "internalType": "address",
          "name": "projectContract",
          "type": "address"
        },
        {
          "indexed": true,
          "internalType": "address",
          "name": "nftContract",
          "type": "address"
        },
        {
          "indexed": false,
          "internalType": "uint256",
          "name": "tokenId",
          "type": "uint256"
        }
      ],
      "name": "NFTClaimed",
      "type": "event"
    },
    {
      "anonymous": false,
      "inputs": [
        {
          "indexed": true,
          "internalType": "address",
          "name": "previousOwner",
          "type": "address"
        },
        {
          "indexed": true,
          "internalType": "address",
          "name": "newOwner",
          "type": "address"
        }
      ],
      "name": "OwnershipTransferred",
      "type": "event"
    },
    {
      "anonymous": false,
      "inputs": [
        {
          "indexed": true,
          "internalType": "address",
          "name": "payee",
          "type": "address"
        },
        {
          "indexed": true,
          "internalType": "address",
          "name": "projectContract",
          "type": "address"
        },
        {
          "indexed": false,
          "internalType": "uint256",
          "name": "talaxAmount",
          "type": "uint256"
        }
      ],
      "name": "Withdrawn",
      "type": "event"
    },
    {
      "inputs": [],
      "name": "_distributeToken",
      "outputs": [],
      "stateMutability": "nonpayable",
      "type": "function"
    },
    {
      "inputs": [
        {
          "internalType": "address",
          "name": "nftContract",
          "type": "address"
        },
        {
          "internalType": "uint256",
          "name": "tokenId",
          "type": "uint256"
        }
      ],
      "name": "deposit",
      "outputs": [],
      "stateMutability": "payable",
      "type": "function"
    },
    {
      "inputs": [],
      "name": "getCapstone",
      "outputs": [
        {
          "internalType": "uint256",
          "name": "",
          "type": "uint256"
        }
      ],
      "stateMutability": "view",
      "type": "function"
    },
    {
      "inputs": [],
      "name": "getWithdrawalAble",
      "outputs": [
        {
          "internalType": "uint256",
          "name": "",
          "type": "uint256"
        }
      ],
      "stateMutability": "view",
      "type": "function"
    },
    {
      "inputs": [
        {
          "internalType": "address",
          "name": "token",
          "type": "address"
        }
      ],
      "name": "init",
      "outputs": [],
      "stateMutability": "nonpayable",
      "type": "function"
    },
    {
      "inputs": [],
      "name": "owner",
      "outputs": [
        {
          "internalType": "address",
          "name": "",
          "type": "address"
        }
      ],
      "stateMutability": "view",
      "type": "function"
    },
    {
      "inputs": [],
      "name": "renounceOwnership",
      "outputs": [],
      "stateMutability": "nonpayable",
      "type": "function"
    },
    {
      "inputs": [
        {
          "internalType": "address",
          "name": "payee",
          "type": "address"
        }
      ],
      "name": "totalDepositsOf",
      "outputs": [
        {
          "internalType": "uint256",
          "name": "",
          "type": "uint256"
        }
      ],
      "stateMutability": "view",
      "type": "function"
    },
    {
      "inputs": [
        {
          "internalType": "address",
          "name": "newOwner",
          "type": "address"
        }
      ],
      "name": "transferOwnership",
      "outputs": [],
      "stateMutability": "nonpayable",
      "type": "function"
    },
    {
      "inputs": [],
      "name": "withdraw",
      "outputs": [],
      "stateMutability": "nonpayable",
      "type": "function"
    }
  ],
  "bytecode": "0x608060405234801561001057600080fd5b5061002d61002261003260201b60201c565b61003a60201b60201c565b6100fe565b600033905090565b60008060009054906101000a900473ffffffffffffffffffffffffffffffffffffffff169050816000806101000a81548173ffffffffffffffffffffffffffffffffffffffff021916908373ffffffffffffffffffffffffffffffffffffffff1602179055508173ffffffffffffffffffffffffffffffffffffffff168173ffffffffffffffffffffffffffffffffffffffff167f8be0079c531659141344cd1fd0a4f28419497f9722a3daafe3b4186f6b6457e060405160405180910390a35050565b6119158061010d6000396000f3fe6080604052600436106100915760003560e01c80638da5cb5b116100595780638da5cb5b14610134578063b0bd5b941461015f578063c4d496d514610176578063f2fde38b146101a1578063fce2d216146101ca57610091565b806319ab453c14610096578063374f022e146100bf5780633ccfd60b146100ea57806347e7ef2414610101578063715018a61461011d575b600080fd5b3480156100a257600080fd5b506100bd60048036038101906100b89190611121565b610207565b005b3480156100cb57600080fd5b506100d461024b565b6040516100e19190611167565b60405180910390f35b3480156100f657600080fd5b506100ff610258565b005b61011b600480360381019061011691906111ae565b610404565b005b34801561012957600080fd5b50610132610871565b005b34801561014057600080fd5b50610149610885565b60405161015691906111fd565b60405180910390f35b34801561016b57600080fd5b506101746108ae565b005b34801561018257600080fd5b5061018b6108b0565b6040516101989190611167565b60405180910390f35b3480156101ad57600080fd5b506101c860048036038101906101c39190611121565b61094f565b005b3480156101d657600080fd5b506101f160048036038101906101ec9190611121565b6109d3565b6040516101fe9190611167565b60405180910390f35b80600860006101000a81548173ffffffffffffffffffffffffffffffffffffffff021916908373ffffffffffffffffffffffffffffffffffffffff16021790555050565b6000600460030154905090565b610260610bd0565b6000600a6000600360009054906101000a900460ff16600381111561028857610287611218565b5b600381111561029a57610299611218565b5b815260200190815260200160002060003373ffffffffffffffffffffffffffffffffffffffff1673ffffffffffffffffffffffffffffffffffffffff168152602001908152602001600020549050600a6000600360009054906101000a900460ff16600381111561030e5761030d611218565b5b60038111156103205761031f611218565b5b815260200190815260200160002060003373ffffffffffffffffffffffffffffffffffffffff1673ffffffffffffffffffffffffffffffffffffffff1681526020019081526020016000206000905561039c600860009054906101000a900473ffffffffffffffffffffffffffffffffffffffff163383610c4e565b3073ffffffffffffffffffffffffffffffffffffffff163373ffffffffffffffffffffffffffffffffffffffff167fd1c19fbcd4551a5edfb66d43d2e337c04837afda3482b42bdf569a8fccdae5fb836040516103f99190611167565b60405180910390a350565b61040c610bd0565b600060149054906101000a900460ff1661045b576040517f08c379a0000000000000000000000000000000000000000000000000000000008152600401610452906112a4565b60405180910390fd5b60038081111561046e5761046d611218565b5b600360009054906101000a900460ff1660038111156104905761048f611218565b5b14156104d1576040517f08c379a00000000000000000000000000000000000000000000000000000000081526004016104c890611310565b60405180910390fd5b60008273ffffffffffffffffffffffffffffffffffffffff16637ff9b5966040518163ffffffff1660e01b81526004016020604051808303816000875af1158015610520573d6000803e3d6000fd5b505050506040513d601f19601f820116820180604052508101906105449190611345565b905080600a6000600360009054906101000a900460ff16600381111561056d5761056c611218565b5b600381111561057f5761057e611218565b5b815260200190815260200160002060003373ffffffffffffffffffffffffffffffffffffffff1673ffffffffffffffffffffffffffffffffffffffff16815260200190815260200160002060008282546105d991906113a1565b9250508190555080600260008282546105f291906113a1565b9250508190555060096000600360009054906101000a900460ff16600381111561061f5761061e611218565b5b600381111561063157610630611218565b5b815260200190815260200160002060008473ffffffffffffffffffffffffffffffffffffffff1673ffffffffffffffffffffffffffffffffffffffff16815260200190815260200160002060003373ffffffffffffffffffffffffffffffffffffffff1673ffffffffffffffffffffffffffffffffffffffff16815260200190815260200160002082908060018154018082558091505060019003906000526020600020016000909190919091505561070e600860009054906101000a900473ffffffffffffffffffffffffffffffffffffffff16333084610cd4565b6004600201546002541061075a5760038060006101000a81548160ff0219169083600381111561074157610740611218565b5b02179055506004600201546004600301819055506107f2565b600460010154600254106107a7576002600360006101000a81548160ff0219169083600381111561078e5761078d611218565b5b02179055506004600101546004600301819055506107f1565b600460000154600254106107f0576001600360006101000a81548160ff021916908360038111156107db576107da611218565b5b02179055506004600001546004600301819055505b5b5b3073ffffffffffffffffffffffffffffffffffffffff163373ffffffffffffffffffffffffffffffffffffffff167f1097a36b9c6797b75a1d9101d5e901915a46877d2eeaf7a85a1940f9535fe74d8386600360009054906101000a900460ff1687604051610864949392919061143f565b60405180910390a3505050565b610879610bd0565b6108836000610d5d565b565b60008060009054906101000a900473ffffffffffffffffffffffffffffffffffffffff16905090565b565b600042600154111561094757600a6000600360009054906101000a900460ff1660038111156108e2576108e1611218565b5b60038111156108f4576108f3611218565b5b815260200190815260200160002060003373ffffffffffffffffffffffffffffffffffffffff1673ffffffffffffffffffffffffffffffffffffffff16815260200190815260200160002054905061094c565b600090505b90565b610957610bd0565b600073ffffffffffffffffffffffffffffffffffffffff168173ffffffffffffffffffffffffffffffffffffffff1614156109c7576040517f08c379a00000000000000000000000000000000000000000000000000000000081526004016109be906114f6565b60405180910390fd5b6109d081610d5d565b50565b6000600a60006003808111156109ec576109eb611218565b5b60038111156109fe576109fd611218565b5b815260200190815260200160002060008373ffffffffffffffffffffffffffffffffffffffff1673ffffffffffffffffffffffffffffffffffffffff16815260200190815260200160002054600a600060026003811115610a6257610a61611218565b5b6003811115610a7457610a73611218565b5b815260200190815260200160002060008473ffffffffffffffffffffffffffffffffffffffff1673ffffffffffffffffffffffffffffffffffffffff16815260200190815260200160002054600a600060016003811115610ad857610ad7611218565b5b6003811115610aea57610ae9611218565b5b815260200190815260200160002060008573ffffffffffffffffffffffffffffffffffffffff1673ffffffffffffffffffffffffffffffffffffffff16815260200190815260200160002054600a6000806003811115610b4d57610b4c611218565b5b6003811115610b5f57610b5e611218565b5b815260200190815260200160002060008673ffffffffffffffffffffffffffffffffffffffff1673ffffffffffffffffffffffffffffffffffffffff16815260200190815260200160002054610bb591906113a1565b610bbf91906113a1565b610bc991906113a1565b9050919050565b610bd8610e21565b73ffffffffffffffffffffffffffffffffffffffff16610bf6610885565b73ffffffffffffffffffffffffffffffffffffffff1614610c4c576040517f08c379a0000000000000000000000000000000000000000000000000000000008152600401610c4390611562565b60405180910390fd5b565b610ccf8363a9059cbb60e01b8484604051602401610c6d929190611582565b604051602081830303815290604052907bffffffffffffffffffffffffffffffffffffffffffffffffffffffff19166020820180517bffffffffffffffffffffffffffffffffffffffffffffffffffffffff8381831617835250505050610e29565b505050565b610d57846323b872dd60e01b858585604051602401610cf5939291906115ab565b604051602081830303815290604052907bffffffffffffffffffffffffffffffffffffffffffffffffffffffff19166020820180517bffffffffffffffffffffffffffffffffffffffffffffffffffffffff8381831617835250505050610e29565b50505050565b60008060009054906101000a900473ffffffffffffffffffffffffffffffffffffffff169050816000806101000a81548173ffffffffffffffffffffffffffffffffffffffff021916908373ffffffffffffffffffffffffffffffffffffffff1602179055508173ffffffffffffffffffffffffffffffffffffffff168173ffffffffffffffffffffffffffffffffffffffff167f8be0079c531659141344cd1fd0a4f28419497f9722a3daafe3b4186f6b6457e060405160405180910390a35050565b600033905090565b6000610e8b826040518060400160405280602081526020017f5361666545524332303a206c6f772d6c6576656c2063616c6c206661696c65648152508573ffffffffffffffffffffffffffffffffffffffff16610ef09092919063ffffffff16565b9050600081511115610eeb5780806020019051810190610eab919061161a565b610eea576040517f08c379a0000000000000000000000000000000000000000000000000000000008152600401610ee1906116b9565b60405180910390fd5b5b505050565b6060610eff8484600085610f08565b90509392505050565b606082471015610f4d576040517f08c379a0000000000000000000000000000000000000000000000000000000008152600401610f449061174b565b60405180910390fd5b6000808673ffffffffffffffffffffffffffffffffffffffff168587604051610f7691906117e5565b60006040518083038185875af1925050503d8060008114610fb3576040519150601f19603f3d011682016040523d82523d6000602084013e610fb8565b606091505b5091509150610fc987838387610fd5565b92505050949350505050565b606083156110385760008351141561103057610ff08561104b565b61102f576040517f08c379a000000000000000000000000000000000000000000000000000000000815260040161102690611848565b60405180910390fd5b5b829050611043565b611042838361106e565b5b949350505050565b6000808273ffffffffffffffffffffffffffffffffffffffff163b119050919050565b6000825111156110815781518083602001fd5b806040517f08c379a00000000000000000000000000000000000000000000000000000000081526004016110b591906118bd565b60405180910390fd5b600080fd5b600073ffffffffffffffffffffffffffffffffffffffff82169050919050565b60006110ee826110c3565b9050919050565b6110fe816110e3565b811461110957600080fd5b50565b60008135905061111b816110f5565b92915050565b600060208284031215611137576111366110be565b5b60006111458482850161110c565b91505092915050565b6000819050919050565b6111618161114e565b82525050565b600060208201905061117c6000830184611158565b92915050565b61118b8161114e565b811461119657600080fd5b50565b6000813590506111a881611182565b92915050565b600080604083850312156111c5576111c46110be565b5b60006111d38582860161110c565b92505060206111e485828601611199565b9150509250929050565b6111f7816110e3565b82525050565b600060208201905061121260008301846111ee565b92915050565b7f4e487b7100000000000000000000000000000000000000000000000000000000600052602160045260246000fd5b600082825260208201905092915050565b7f50726f6a656374206e6f7420696e697469617465640000000000000000000000600082015250565b600061128e601583611247565b915061129982611258565b602082019050919050565b600060208201905081810360008301526112bd81611281565b9050919050565b7f50726f6a6563742066756c6c7920737570706f72746564000000000000000000600082015250565b60006112fa601783611247565b9150611305826112c4565b602082019050919050565b60006020820190508181036000830152611329816112ed565b9050919050565b60008151905061133f81611182565b92915050565b60006020828403121561135b5761135a6110be565b5b600061136984828501611330565b91505092915050565b7f4e487b7100000000000000000000000000000000000000000000000000000000600052601160045260246000fd5b60006113ac8261114e565b91506113b78361114e565b9250827fffffffffffffffffffffffffffffffffffffffffffffffffffffffffffffffff038211156113ec576113eb611372565b5b828201905092915050565b6004811061140857611407611218565b5b50565b6000819050611419826113f7565b919050565b60006114298261140b565b9050919050565b6114398161141e565b82525050565b60006080820190506114546000830187611158565b61146160208301866111ee565b61146e6040830185611430565b61147b6060830184611158565b95945050505050565b7f4f776e61626c653a206e6577206f776e657220697320746865207a65726f206160008201527f6464726573730000000000000000000000000000000000000000000000000000602082015250565b60006114e0602683611247565b91506114eb82611484565b604082019050919050565b6000602082019050818103600083015261150f816114d3565b9050919050565b7f4f776e61626c653a2063616c6c6572206973206e6f7420746865206f776e6572600082015250565b600061154c602083611247565b915061155782611516565b602082019050919050565b6000602082019050818103600083015261157b8161153f565b9050919050565b600060408201905061159760008301856111ee565b6115a46020830184611158565b9392505050565b60006060820190506115c060008301866111ee565b6115cd60208301856111ee565b6115da6040830184611158565b949350505050565b60008115159050919050565b6115f7816115e2565b811461160257600080fd5b50565b600081519050611614816115ee565b92915050565b6000602082840312156116305761162f6110be565b5b600061163e84828501611605565b91505092915050565b7f5361666545524332303a204552433230206f7065726174696f6e20646964206e60008201527f6f74207375636365656400000000000000000000000000000000000000000000602082015250565b60006116a3602a83611247565b91506116ae82611647565b604082019050919050565b600060208201905081810360008301526116d281611696565b9050919050565b7f416464726573733a20696e73756666696369656e742062616c616e636520666f60008201527f722063616c6c0000000000000000000000000000000000000000000000000000602082015250565b6000611735602683611247565b9150611740826116d9565b604082019050919050565b6000602082019050818103600083015261176481611728565b9050919050565b600081519050919050565b600081905092915050565b60005b8381101561179f578082015181840152602081019050611784565b838111156117ae576000848401525b50505050565b60006117bf8261176b565b6117c98185611776565b93506117d9818560208601611781565b80840191505092915050565b60006117f182846117b4565b915081905092915050565b7f416464726573733a2063616c6c20746f206e6f6e2d636f6e7472616374000000600082015250565b6000611832601d83611247565b915061183d826117fc565b602082019050919050565b6000602082019050818103600083015261186181611825565b9050919050565b600081519050919050565b6000601f19601f8301169050919050565b600061188f82611868565b6118998185611247565b93506118a9818560208601611781565b6118b281611873565b840191505092915050565b600060208201905081810360008301526118d78184611884565b90509291505056fea264697066735822122059282867c2b7fab193081f74ce0e82019e4ab69c33cca67dace2debd6408bbc064736f6c634300080b0033",
  "linkReferences": {},
  "deployedLinkReferences": {}
}