{
  "_format": "hh-sol-artifact-1",
  "contractName": "ProjectEscrow",
  "sourceName": "contracts/ERC721/Escrow.sol",
  "abi": [
    {
      "inputs": [
        {
          "internalType": "address",
          "name": "_token",
          "type": "address"
        },
        {
          "internalType": "uint256",
          "name": "_artistFee",
          "type": "uint256"
        },
        {
          "internalType": "uint256",
          "name": "_projectFee",
          "type": "uint256"
        },
        {
          "internalType": "uint256",
          "name": "_advisoryFee",
          "type": "uint256"
        },
        {
          "internalType": "uint256",
          "name": "_platformFee",
          "type": "uint256"
        }
      ],
      "stateMutability": "nonpayable",
      "type": "constructor"
    },
    {
      "inputs": [],
      "name": "DurationHasBeenChanged",
      "type": "error"
    },
    {
      "inputs": [],
      "name": "InvalidProof",
      "type": "error"
    },
    {
      "inputs": [],
      "name": "NotOwner",
      "type": "error"
    },
    {
      "inputs": [],
      "name": "ProjectFailed",
      "type": "error"
    },
    {
      "inputs": [],
      "name": "ProjectHasEnded",
      "type": "error"
    },
    {
      "inputs": [],
      "name": "ProjectStillFunding",
      "type": "error"
    },
    {
      "inputs": [],
      "name": "ProjectSuccessfullyFunded",
      "type": "error"
    },
    {
      "anonymous": false,
      "inputs": [
        {
          "indexed": true,
          "internalType": "address",
          "name": "project",
          "type": "address"
        },
        {
          "indexed": false,
          "internalType": "uint256",
          "name": "status",
          "type": "uint256"
        }
      ],
      "name": "CapstoneReached",
      "type": "event"
    },
    {
      "anonymous": false,
      "inputs": [
        {
          "indexed": true,
          "internalType": "address",
          "name": "payee",
          "type": "address"
        },
        {
          "indexed": false,
          "internalType": "uint256",
          "name": "projectId",
          "type": "uint256"
        },
        {
          "indexed": false,
          "internalType": "address",
          "name": "nftContract",
          "type": "address"
        },
        {
          "indexed": false,
          "internalType": "string",
          "name": "tokenUri",
          "type": "string"
        },
        {
          "indexed": false,
          "internalType": "uint256",
          "name": "price",
          "type": "uint256"
        }
      ],
      "name": "Deposit",
      "type": "event"
    },
    {
      "anonymous": false,
      "inputs": [
        {
          "indexed": false,
          "internalType": "address",
          "name": "project",
          "type": "address"
        },
        {
          "indexed": false,
          "internalType": "uint256",
          "name": "oldDeadline",
          "type": "uint256"
        },
        {
          "indexed": false,
          "internalType": "uint256",
          "name": "newDealine",
          "type": "uint256"
        }
      ],
      "name": "DurationChanged",
      "type": "event"
    },
    {
      "anonymous": false,
      "inputs": [
        {
          "indexed": true,
          "internalType": "address",
          "name": "claimer",
          "type": "address"
        },
        {
          "indexed": false,
          "internalType": "address",
          "name": "project",
          "type": "address"
        },
        {
          "indexed": false,
          "internalType": "uint256",
          "name": "amount",
          "type": "uint256"
        }
      ],
      "name": "FundClaimed",
      "type": "event"
    },
    {
      "anonymous": false,
      "inputs": [
        {
          "indexed": true,
          "internalType": "address",
          "name": "minter",
          "type": "address"
        },
        {
          "indexed": false,
          "internalType": "uint256",
          "name": "projectId",
          "type": "uint256"
        },
        {
          "indexed": false,
          "internalType": "address",
          "name": "nftContract",
          "type": "address"
        },
        {
          "indexed": false,
          "internalType": "string",
          "name": "tokenUri",
          "type": "string"
        }
      ],
      "name": "NftMinted",
      "type": "event"
    },
    {
      "anonymous": false,
      "inputs": [
        {
          "indexed": true,
          "internalType": "address",
          "name": "previousOwner",
          "type": "address"
        },
        {
          "indexed": true,
          "internalType": "address",
          "name": "newOwner",
          "type": "address"
        }
      ],
      "name": "OwnershipTransferred",
      "type": "event"
    },
    {
      "anonymous": false,
      "inputs": [
        {
          "indexed": true,
          "internalType": "address",
          "name": "withdrawer",
          "type": "address"
        },
        {
          "indexed": false,
          "internalType": "uint256",
          "name": "projectId",
          "type": "uint256"
        },
        {
          "indexed": false,
          "internalType": "uint256",
          "name": "amount",
          "type": "uint256"
        }
      ],
      "name": "Withdraw",
      "type": "event"
    },
    {
      "inputs": [
        {
          "internalType": "uint256",
          "name": "_additionalTime",
          "type": "uint256"
        }
      ],
      "name": "changeDuration",
      "outputs": [],
      "stateMutability": "nonpayable",
      "type": "function"
    },
    {
      "inputs": [],
      "name": "claimFunding",
      "outputs": [],
      "stateMutability": "nonpayable",
      "type": "function"
    },
    {
      "inputs": [
        {
          "internalType": "uint256",
          "name": "_projectId",
          "type": "uint256"
        },
        {
          "internalType": "address",
          "name": "_nftContract",
          "type": "address"
        },
        {
          "internalType": "address",
          "name": "_depositor",
          "type": "address"
        },
        {
          "internalType": "string",
          "name": "_tokenUri",
          "type": "string"
        },
        {
          "internalType": "uint8",
          "name": "_status",
          "type": "uint8"
        }
      ],
      "name": "deposit",
      "outputs": [],
      "stateMutability": "payable",
      "type": "function"
    },
    {
      "inputs": [],
      "name": "depositRoot",
      "outputs": [
        {
          "internalType": "bytes32",
          "name": "",
          "type": "bytes32"
        }
      ],
      "stateMutability": "view",
      "type": "function"
    },
    {
      "inputs": [
        {
          "internalType": "bytes32[]",
          "name": "_proof",
          "type": "bytes32[]"
        },
        {
          "internalType": "uint256",
          "name": "_projectId",
          "type": "uint256"
        },
        {
          "internalType": "address",
          "name": "_nftContract",
          "type": "address"
        },
        {
          "internalType": "string",
          "name": "_tokenUri",
          "type": "string"
        }
      ],
      "name": "mintNft",
      "outputs": [],
      "stateMutability": "payable",
      "type": "function"
    },
    {
      "inputs": [],
      "name": "nftRoot",
      "outputs": [
        {
          "internalType": "bytes32",
          "name": "",
          "type": "bytes32"
        }
      ],
      "stateMutability": "view",
      "type": "function"
    },
    {
      "inputs": [],
      "name": "owner",
      "outputs": [
        {
          "internalType": "address",
          "name": "",
          "type": "address"
        }
      ],
      "stateMutability": "view",
      "type": "function"
    },
    {
      "inputs": [],
      "name": "renounceOwnership",
      "outputs": [],
      "stateMutability": "nonpayable",
      "type": "function"
    },
    {
      "inputs": [],
      "name": "token",
      "outputs": [
        {
          "internalType": "address",
          "name": "",
          "type": "address"
        }
      ],
      "stateMutability": "view",
      "type": "function"
    },
    {
      "inputs": [
        {
          "internalType": "address",
          "name": "newOwner",
          "type": "address"
        }
      ],
      "name": "transferOwnership",
      "outputs": [],
      "stateMutability": "nonpayable",
      "type": "function"
    },
    {
      "inputs": [
        {
          "internalType": "bytes32",
          "name": "_nftRoot",
          "type": "bytes32"
        },
        {
          "internalType": "bytes32",
          "name": "_depositRoot",
          "type": "bytes32"
        }
      ],
      "name": "updateProjectRoot",
      "outputs": [],
      "stateMutability": "nonpayable",
      "type": "function"
    },
    {
      "inputs": [
        {
          "internalType": "bytes32[]",
          "name": "_proof",
          "type": "bytes32[]"
        },
        {
          "internalType": "uint256",
          "name": "_amount",
          "type": "uint256"
        }
      ],
      "name": "withdraw",
      "outputs": [],
      "stateMutability": "nonpayable",
      "type": "function"
    }
  ],
  "bytecode": "0x608060405234801561001057600080fd5b5060405161155838038061155883398101604081905261002f916100bd565b6100383361006d565b600e80546001600160a01b0319166001600160a01b039690961695909517909455600592909255600655600755600855610112565b600080546001600160a01b038381166001600160a01b0319831681178455604051919092169283917f8be0079c531659141344cd1fd0a4f28419497f9722a3daafe3b4186f6b6457e09190a35050565b600080600080600060a086880312156100d557600080fd5b85516001600160a01b03811681146100ec57600080fd5b602087015160408801516060890151608090990151929a91995097965090945092505050565b611437806101216000396000f3fe6080604052600436106100c75760003560e01c8063ccfcb30611610074578063dd83edc31161004e578063dd83edc3146101cf578063f2fde38b146101ef578063fc0c546a1461020f57600080fd5b8063ccfcb30614610191578063d21f6c51146101a4578063d2d18e3c146101b957600080fd5b80638da5cb5b116100a55780638da5cb5b1461011f578063b5444bc314610151578063b594f0861461017157600080fd5b8063715018a6146100cc578063869cfb4c146100e35780638955fe8a146100f6575b600080fd5b3480156100d857600080fd5b506100e161022f565b005b6100e16100f1366004611054565b610243565b34801561010257600080fd5b5061010c600d5481565b6040519081526020015b60405180910390f35b34801561012b57600080fd5b506000546001600160a01b03165b6040516001600160a01b039091168152602001610116565b34801561015d57600080fd5b506100e161016c3660046110d6565b6103e2565b34801561017d57600080fd5b506100e161018c3660046110f8565b6103f5565b6100e161019f366004611111565b6104f0565b3480156101b057600080fd5b506100e161070b565b3480156101c557600080fd5b5061010c600c5481565b3480156101db57600080fd5b506100e16101ea366004611198565b610860565b3480156101fb57600080fd5b506100e161020a3660046111dd565b610930565b34801561021b57600080fd5b50600e54610139906001600160a01b031681565b6102376109c5565b6102416000610a1f565b565b61024b610a87565b600061027b848484336040516020016102679493929190611247565b604051602081830303815290604052610ac2565b905061028a85600c5483610afb565b6102a7576040516309bde33960e01b815260040160405180910390fd5b61031d60055460075460085486876001600160a01b0316637ff9b5966040518163ffffffff1660e01b81526004016020604051808303816000875af11580156102f4573d6000803e3d6000fd5b505050506040513d601f19601f820116820180604052508101906103189190611284565b610b11565b6040517fd204c45e0000000000000000000000000000000000000000000000000000000081526001600160a01b0384169063d204c45e90610364903390869060040161129d565b600060405180830381600087803b15801561037e57600080fd5b505af1158015610392573d6000803e3d6000fd5b50505050336001600160a01b03167ff8b1b480f3e90cec0b9871e75e1c6401bf4db0127701d88d80f0a9d0b39accf78585856040516103d3939291906112c7565b60405180910390a25050505050565b6103ea6109c5565b600c91909155600d55565b6103fd6109c5565b600e54600160a01b900460ff1615610441576040517f792b346e00000000000000000000000000000000000000000000000000000000815260040160405180910390fd5b42600a54116104635760405163b10bd33f60e01b815260040160405180910390fd5b600a8054600e80547fffffffffffffffffffffff00ffffffffffffffffffffffffffffffffffffffff16600160a01b17905590829060006104a4838561130e565b9091555050600a54604080513081526020810184905280820192909252517fabe82bf94ac08157c0fd88b25b756bb1a7f0d69ed7bfcdc5cbfb07bcafe5d8249181900360600190a15050565b6104f86109c5565b42600a541161051a5760405163b10bd33f60e01b815260040160405180910390fd5b600954600303610556576040517fb8867d7100000000000000000000000000000000000000000000000000000000815260040160405180910390fd5b6000846001600160a01b0316637ff9b5966040518163ffffffff1660e01b81526004016020604051808303816000875af1158015610598573d6000803e3d6000fd5b505050506040513d601f19601f820116820180604052508101906105bc9190611284565b905080600b60008282546105d0919061130e565b9091555050600e546040517f23b872dd000000000000000000000000000000000000000000000000000000008152336004820152306024820152604481018390526001600160a01b03909116906323b872dd906064016020604051808303816000875af1158015610645573d6000803e3d6000fd5b505050506040513d601f19601f820116820180604052508101906106699190611321565b508160ff1660095410156106bc5760ff82166009819055600b5460045560405190815230907fc238db72981f09e366fe6ce9981bdfde8b92d2a9e327040d514927481d1723259060200160405180910390a25b836001600160a01b03167f12f32c7ca92edbfcff934575ceafee614ae1908c8b0cd2978110402d1a6ee6f0878786856040516106fb9493929190611343565b60405180910390a2505050505050565b6107136109c5565b61071b610a87565b6000546001600160a01b0316331461075f576040517f30cd747100000000000000000000000000000000000000000000000000000000815260040160405180910390fd5b60095460000361079b576040517fefcd87f800000000000000000000000000000000000000000000000000000000815260040160405180910390fd5b60006107ab600454600654610e6a565b600e5460405163a9059cbb60e01b8152336004820152602481018390529192506001600160a01b03169063a9059cbb906044016020604051808303816000875af11580156107fd573d6000803e3d6000fd5b505050506040513d601f19601f820116820180604052508101906108219190611321565b50604080513081526020810183905233917f8b5640bc6a70f4cedabaf515fa266b322bf861aa1fda7ac4ae261193eaa6cfa7910160405180910390a250565b610868610a87565b60408051306020820152339181019190915260009061088990606001610267565b905061089883600d5483610afb565b6108b5576040516309bde33960e01b815260040160405180910390fd5b600e5460405163a9059cbb60e01b8152336004820152602481018490526001600160a01b039091169063a9059cbb906044016020604051808303816000875af1158015610906573d6000803e3d6000fd5b505050506040513d601f19601f8201168201806040525081019061092a9190611321565b50505050565b6109386109c5565b6001600160a01b0381166109b95760405162461bcd60e51b815260206004820152602660248201527f4f776e61626c653a206e6577206f776e657220697320746865207a65726f206160448201527f646472657373000000000000000000000000000000000000000000000000000060648201526084015b60405180910390fd5b6109c281610a1f565b50565b6000546001600160a01b031633146102415760405162461bcd60e51b815260206004820181905260248201527f4f776e61626c653a2063616c6c6572206973206e6f7420746865206f776e657260448201526064016109b0565b600080546001600160a01b038381167fffffffffffffffffffffffff0000000000000000000000000000000000000000831681178455604051919092169283917f8be0079c531659141344cd1fd0a4f28419497f9722a3daafe3b4186f6b6457e09190a35050565b42600a5410610241576040517f6eefdc2100000000000000000000000000000000000000000000000000000000815260040160405180910390fd5b60008180519060200120604051602001610ade91815260200190565b604051602081830303815290604052805190602001209050919050565b600082610b088584610e8c565b14949350505050565b6000826001600160a01b03166343bc16126040518163ffffffff1660e01b81526004016020604051808303816000875af1158015610b53573d6000803e3d6000fd5b505050506040513d601f19601f82011682018060405250810190610b77919061137c565b90506000600e60009054906101000a90046001600160a01b03166001600160a01b0316632983d7526040518163ffffffff1660e01b81526004016020604051808303816000875af1158015610bd0573d6000803e3d6000fd5b505050506040513d601f19601f82011682018060405250810190610bf4919061137c565b90506000600e60009054906101000a90046001600160a01b03166001600160a01b0316634bde38c86040518163ffffffff1660e01b81526004016020604051808303816000875af1158015610c4d573d6000803e3d6000fd5b505050506040513d601f19601f82011682018060405250810190610c71919061137c565b600e549091506001600160a01b031663a9059cbb84610c90878c610e6a565b6040517fffffffff0000000000000000000000000000000000000000000000000000000060e085901b1681526001600160a01b03909216600483015260248201526044016020604051808303816000875af1158015610cf3573d6000803e3d6000fd5b505050506040513d601f19601f82011682018060405250810190610d179190611321565b50600e546001600160a01b031663a9059cbb83610d34878b610e6a565b6040517fffffffff0000000000000000000000000000000000000000000000000000000060e085901b1681526001600160a01b03909216600483015260248201526044016020604051808303816000875af1158015610d97573d6000803e3d6000fd5b505050506040513d601f19601f82011682018060405250810190610dbb9190611321565b50600e546001600160a01b031663a9059cbb82610dd8878a610e6a565b6040517fffffffff0000000000000000000000000000000000000000000000000000000060e085901b1681526001600160a01b03909216600483015260248201526044016020604051808303816000875af1158015610e3b573d6000803e3d6000fd5b505050506040513d601f19601f82011682018060405250810190610e5f9190611321565b505050505050505050565b6000612710610e798385611399565b610e8391906113b0565b90505b92915050565b600081815b8451811015610ed157610ebd82868381518110610eb057610eb06113d2565b6020026020010151610ed9565b915080610ec9816113e8565b915050610e91565b509392505050565b6000818310610ef5576000828152602084905260409020610e83565b6000838152602083905260409020610e83565b634e487b7160e01b600052604160045260246000fd5b604051601f8201601f1916810167ffffffffffffffff81118282101715610f4757610f47610f08565b604052919050565b600082601f830112610f6057600080fd5b8135602067ffffffffffffffff821115610f7c57610f7c610f08565b8160051b610f8b828201610f1e565b9283528481018201928281019087851115610fa557600080fd5b83870192505b84831015610fc457823582529183019190830190610fab565b979650505050505050565b6001600160a01b03811681146109c257600080fd5b600082601f830112610ff557600080fd5b813567ffffffffffffffff81111561100f5761100f610f08565b611022601f8201601f1916602001610f1e565b81815284602083860101111561103757600080fd5b816020850160208301376000918101602001919091529392505050565b6000806000806080858703121561106a57600080fd5b843567ffffffffffffffff8082111561108257600080fd5b61108e88838901610f4f565b955060208701359450604087013591506110a782610fcf565b909250606086013590808211156110bd57600080fd5b506110ca87828801610fe4565b91505092959194509250565b600080604083850312156110e957600080fd5b50508035926020909101359150565b60006020828403121561110a57600080fd5b5035919050565b600080600080600060a0868803121561112957600080fd5b85359450602086013561113b81610fcf565b9350604086013561114b81610fcf565b9250606086013567ffffffffffffffff81111561116757600080fd5b61117388828901610fe4565b925050608086013560ff8116811461118a57600080fd5b809150509295509295909350565b600080604083850312156111ab57600080fd5b823567ffffffffffffffff8111156111c257600080fd5b6111ce85828601610f4f565b95602094909401359450505050565b6000602082840312156111ef57600080fd5b81356111fa81610fcf565b9392505050565b6000815180845260005b818110156112275760208185018101518683018201520161120b565b506000602082860101526020601f19601f83011685010191505092915050565b84815260006001600160a01b038086166020840152608060408401526112706080840186611201565b915080841660608401525095945050505050565b60006020828403121561129657600080fd5b5051919050565b6001600160a01b03831681526040602082015260006112bf6040830184611201565b949350505050565b8381526001600160a01b03831660208201526060604082015260006112ef6060830184611201565b95945050505050565b634e487b7160e01b600052601160045260246000fd5b80820180821115610e8657610e866112f8565b60006020828403121561133357600080fd5b815180151581146111fa57600080fd5b8481526001600160a01b038416602082015260806040820152600061136b6080830185611201565b905082606083015295945050505050565b60006020828403121561138e57600080fd5b81516111fa81610fcf565b8082028115828204841417610e8657610e866112f8565b6000826113cd57634e487b7160e01b600052601260045260246000fd5b500490565b634e487b7160e01b600052603260045260246000fd5b6000600182016113fa576113fa6112f8565b506001019056fea26469706673582212204b72ab955567d1c10fca06c754233e9bf760e7e9f6c71f40410b2df098a0c40464736f6c63430008110033",
  "linkReferences": {},
  "deployedLinkReferences": {}
}