{
	"data": {
		"bytecode": {
			"linkReferences": {},
			"object": "60a060405234801561001057600080fd5b5060405161056138038061056183398101604081905261002f91610058565b6000919091556001600160a01b0316608052600180546001600160a01b03191633179055610095565b6000806040838503121561006b57600080fd5b825160208401519092506001600160a01b038116811461008a57600080fd5b809150509250929050565b6080516104b26100af600039600060a701526104b26000f3fe608060405234801561001057600080fd5b50600436106100625760003560e01c80630a95606e146100675780631d77b00b1461008d57806338af3eed146100a2578063893d20e8146100e1578063b580aa9e146100f2578063c8cca41e146100fb575b600080fd5b61007a6100753660046102ba565b610103565b6040519081526020015b60405180910390f35b6100a061009b366004610347565b610148565b005b6100c97f000000000000000000000000000000000000000000000000000000000000000081565b6040516001600160a01b039091168152602001610084565b6001546001600160a01b03166100c9565b61007a60025481565b6100a0610172565b600061010d610180565b6000610118836101ce565b905061013f600054826040518060600160405280603a8152602001610443603a913961028e565b60005592915050565b610150610180565b600180546001600160a01b0319166001600160a01b0392909216919091179055565b61017a610180565b42600255565b6001546001600160a01b031633146101cc5760405162461bcd60e51b815260206004820152600a6024820152692737ba102fb7bbb732b960b11b60448201526064015b60405180910390fd5b565b60008062278d00600254426101e39190610386565b6101ed919061039d565b6003549091506000905b8281116102345760336003541161022c5784816033811061021a5761021a6103bf565b602002015161022990836103d5565b91505b6001016101f7565b506102408260016103d5565b600355806102875760405162461bcd60e51b8152602060048201526014602482015273139bdd1a1a5b99c81d1bc818db185a5b481e595d60621b60448201526064016101c3565b9392505050565b600081848411156102b25760405162461bcd60e51b81526004016101c391906103ed565b505050900390565b60006106608083850312156102ce57600080fd5b83601f8401126102dd57600080fd5b60405181810181811067ffffffffffffffff8211171561030d57634e487b7160e01b600052604160045260246000fd5b60405290830190808583111561032257600080fd5b845b8381101561033c578035825260209182019101610324565b509095945050505050565b60006020828403121561035957600080fd5b81356001600160a01b038116811461028757600080fd5b634e487b7160e01b600052601160045260246000fd5b60008282101561039857610398610370565b500390565b6000826103ba57634e487b7160e01b600052601260045260246000fd5b500490565b634e487b7160e01b600052603260045260246000fd5b600082198211156103e8576103e8610370565b500190565b600060208083528351808285015260005b8181101561041a578581018301518582016040015282016103fe565b8181111561042c576000604083870101525b50601f01601f191692909201604001939250505056fe4c6f636b656477616c6c65743a2043616e6e6f742073756273747261637420746f74616c20616d6f756e74207769746820636c61696d61626c65a2646970667358221220352006458bdb5b5dc9995f6d85dec8d14a35e6c84432105659f7f801813b96dc64736f6c634300080b0033",
			"opcodes": "PUSH1 0xA0 PUSH1 0x40 MSTORE CALLVALUE DUP1 ISZERO PUSH2 0x10 JUMPI PUSH1 0x0 DUP1 REVERT JUMPDEST POP PUSH1 0x40 MLOAD PUSH2 0x561 CODESIZE SUB DUP1 PUSH2 0x561 DUP4 CODECOPY DUP2 ADD PUSH1 0x40 DUP2 SWAP1 MSTORE PUSH2 0x2F SWAP2 PUSH2 0x58 JUMP JUMPDEST PUSH1 0x0 SWAP2 SWAP1 SWAP2 SSTORE PUSH1 0x1 PUSH1 0x1 PUSH1 0xA0 SHL SUB AND PUSH1 0x80 MSTORE PUSH1 0x1 DUP1 SLOAD PUSH1 0x1 PUSH1 0x1 PUSH1 0xA0 SHL SUB NOT AND CALLER OR SWAP1 SSTORE PUSH2 0x95 JUMP JUMPDEST PUSH1 0x0 DUP1 PUSH1 0x40 DUP4 DUP6 SUB SLT ISZERO PUSH2 0x6B JUMPI PUSH1 0x0 DUP1 REVERT JUMPDEST DUP3 MLOAD PUSH1 0x20 DUP5 ADD MLOAD SWAP1 SWAP3 POP PUSH1 0x1 PUSH1 0x1 PUSH1 0xA0 SHL SUB DUP2 AND DUP2 EQ PUSH2 0x8A JUMPI PUSH1 0x0 DUP1 REVERT JUMPDEST DUP1 SWAP2 POP POP SWAP3 POP SWAP3 SWAP1 POP JUMP JUMPDEST PUSH1 0x80 MLOAD PUSH2 0x4B2 PUSH2 0xAF PUSH1 0x0 CODECOPY PUSH1 0x0 PUSH1 0xA7 ADD MSTORE PUSH2 0x4B2 PUSH1 0x0 RETURN INVALID PUSH1 0x80 PUSH1 0x40 MSTORE CALLVALUE DUP1 ISZERO PUSH2 0x10 JUMPI PUSH1 0x0 DUP1 REVERT JUMPDEST POP PUSH1 0x4 CALLDATASIZE LT PUSH2 0x62 JUMPI PUSH1 0x0 CALLDATALOAD PUSH1 0xE0 SHR DUP1 PUSH4 0xA95606E EQ PUSH2 0x67 JUMPI DUP1 PUSH4 0x1D77B00B EQ PUSH2 0x8D JUMPI DUP1 PUSH4 0x38AF3EED EQ PUSH2 0xA2 JUMPI DUP1 PUSH4 0x893D20E8 EQ PUSH2 0xE1 JUMPI DUP1 PUSH4 0xB580AA9E EQ PUSH2 0xF2 JUMPI DUP1 PUSH4 0xC8CCA41E EQ PUSH2 0xFB JUMPI JUMPDEST PUSH1 0x0 DUP1 REVERT JUMPDEST PUSH2 0x7A PUSH2 0x75 CALLDATASIZE PUSH1 0x4 PUSH2 0x2BA JUMP JUMPDEST PUSH2 0x103 JUMP JUMPDEST PUSH1 0x40 MLOAD SWAP1 DUP2 MSTORE PUSH1 0x20 ADD JUMPDEST PUSH1 0x40 MLOAD DUP1 SWAP2 SUB SWAP1 RETURN JUMPDEST PUSH2 0xA0 PUSH2 0x9B CALLDATASIZE PUSH1 0x4 PUSH2 0x347 JUMP JUMPDEST PUSH2 0x148 JUMP JUMPDEST STOP JUMPDEST PUSH2 0xC9 PUSH32 0x0 DUP2 JUMP JUMPDEST PUSH1 0x40 MLOAD PUSH1 0x1 PUSH1 0x1 PUSH1 0xA0 SHL SUB SWAP1 SWAP2 AND DUP2 MSTORE PUSH1 0x20 ADD PUSH2 0x84 JUMP JUMPDEST PUSH1 0x1 SLOAD PUSH1 0x1 PUSH1 0x1 PUSH1 0xA0 SHL SUB AND PUSH2 0xC9 JUMP JUMPDEST PUSH2 0x7A PUSH1 0x2 SLOAD DUP2 JUMP JUMPDEST PUSH2 0xA0 PUSH2 0x172 JUMP JUMPDEST PUSH1 0x0 PUSH2 0x10D PUSH2 0x180 JUMP JUMPDEST PUSH1 0x0 PUSH2 0x118 DUP4 PUSH2 0x1CE JUMP JUMPDEST SWAP1 POP PUSH2 0x13F PUSH1 0x0 SLOAD DUP3 PUSH1 0x40 MLOAD DUP1 PUSH1 0x60 ADD PUSH1 0x40 MSTORE DUP1 PUSH1 0x3A DUP2 MSTORE PUSH1 0x20 ADD PUSH2 0x443 PUSH1 0x3A SWAP2 CODECOPY PUSH2 0x28E JUMP JUMPDEST PUSH1 0x0 SSTORE SWAP3 SWAP2 POP POP JUMP JUMPDEST PUSH2 0x150 PUSH2 0x180 JUMP JUMPDEST PUSH1 0x1 DUP1 SLOAD PUSH1 0x1 PUSH1 0x1 PUSH1 0xA0 SHL SUB NOT AND PUSH1 0x1 PUSH1 0x1 PUSH1 0xA0 SHL SUB SWAP3 SWAP1 SWAP3 AND SWAP2 SWAP1 SWAP2 OR SWAP1 SSTORE JUMP JUMPDEST PUSH2 0x17A PUSH2 0x180 JUMP JUMPDEST TIMESTAMP PUSH1 0x2 SSTORE JUMP JUMPDEST PUSH1 0x1 SLOAD PUSH1 0x1 PUSH1 0x1 PUSH1 0xA0 SHL SUB AND CALLER EQ PUSH2 0x1CC JUMPI PUSH1 0x40 MLOAD PUSH3 0x461BCD PUSH1 0xE5 SHL DUP2 MSTORE PUSH1 0x20 PUSH1 0x4 DUP3 ADD MSTORE PUSH1 0xA PUSH1 0x24 DUP3 ADD MSTORE PUSH10 0x2737BA102FB7BBB732B9 PUSH1 0xB1 SHL PUSH1 0x44 DUP3 ADD MSTORE PUSH1 0x64 ADD JUMPDEST PUSH1 0x40 MLOAD DUP1 SWAP2 SUB SWAP1 REVERT JUMPDEST JUMP JUMPDEST PUSH1 0x0 DUP1 PUSH3 0x278D00 PUSH1 0x2 SLOAD TIMESTAMP PUSH2 0x1E3 SWAP2 SWAP1 PUSH2 0x386 JUMP JUMPDEST PUSH2 0x1ED SWAP2 SWAP1 PUSH2 0x39D JUMP JUMPDEST PUSH1 0x3 SLOAD SWAP1 SWAP2 POP PUSH1 0x0 SWAP1 JUMPDEST DUP3 DUP2 GT PUSH2 0x234 JUMPI PUSH1 0x33 PUSH1 0x3 SLOAD GT PUSH2 0x22C JUMPI DUP5 DUP2 PUSH1 0x33 DUP2 LT PUSH2 0x21A JUMPI PUSH2 0x21A PUSH2 0x3BF JUMP JUMPDEST PUSH1 0x20 MUL ADD MLOAD PUSH2 0x229 SWAP1 DUP4 PUSH2 0x3D5 JUMP JUMPDEST SWAP2 POP JUMPDEST PUSH1 0x1 ADD PUSH2 0x1F7 JUMP JUMPDEST POP PUSH2 0x240 DUP3 PUSH1 0x1 PUSH2 0x3D5 JUMP JUMPDEST PUSH1 0x3 SSTORE DUP1 PUSH2 0x287 JUMPI PUSH1 0x40 MLOAD PUSH3 0x461BCD PUSH1 0xE5 SHL DUP2 MSTORE PUSH1 0x20 PUSH1 0x4 DUP3 ADD MSTORE PUSH1 0x14 PUSH1 0x24 DUP3 ADD MSTORE PUSH20 0x139BDD1A1A5B99C81D1BC818DB185A5B481E595D PUSH1 0x62 SHL PUSH1 0x44 DUP3 ADD MSTORE PUSH1 0x64 ADD PUSH2 0x1C3 JUMP JUMPDEST SWAP4 SWAP3 POP POP POP JUMP JUMPDEST PUSH1 0x0 DUP2 DUP5 DUP5 GT ISZERO PUSH2 0x2B2 JUMPI PUSH1 0x40 MLOAD PUSH3 0x461BCD PUSH1 0xE5 SHL DUP2 MSTORE PUSH1 0x4 ADD PUSH2 0x1C3 SWAP2 SWAP1 PUSH2 0x3ED JUMP JUMPDEST POP POP POP SWAP1 SUB SWAP1 JUMP JUMPDEST PUSH1 0x0 PUSH2 0x660 DUP1 DUP4 DUP6 SUB SLT ISZERO PUSH2 0x2CE JUMPI PUSH1 0x0 DUP1 REVERT JUMPDEST DUP4 PUSH1 0x1F DUP5 ADD SLT PUSH2 0x2DD JUMPI PUSH1 0x0 DUP1 REVERT JUMPDEST PUSH1 0x40 MLOAD DUP2 DUP2 ADD DUP2 DUP2 LT PUSH8 0xFFFFFFFFFFFFFFFF DUP3 GT OR ISZERO PUSH2 0x30D JUMPI PUSH4 0x4E487B71 PUSH1 0xE0 SHL PUSH1 0x0 MSTORE PUSH1 0x41 PUSH1 0x4 MSTORE PUSH1 0x24 PUSH1 0x0 REVERT JUMPDEST PUSH1 0x40 MSTORE SWAP1 DUP4 ADD SWAP1 DUP1 DUP6 DUP4 GT ISZERO PUSH2 0x322 JUMPI PUSH1 0x0 DUP1 REVERT JUMPDEST DUP5 JUMPDEST DUP4 DUP2 LT ISZERO PUSH2 0x33C JUMPI DUP1 CALLDATALOAD DUP3 MSTORE PUSH1 0x20 SWAP2 DUP3 ADD SWAP2 ADD PUSH2 0x324 JUMP JUMPDEST POP SWAP1 SWAP6 SWAP5 POP POP POP POP POP JUMP JUMPDEST PUSH1 0x0 PUSH1 0x20 DUP3 DUP5 SUB SLT ISZERO PUSH2 0x359 JUMPI PUSH1 0x0 DUP1 REVERT JUMPDEST DUP2 CALLDATALOAD PUSH1 0x1 PUSH1 0x1 PUSH1 0xA0 SHL SUB DUP2 AND DUP2 EQ PUSH2 0x287 JUMPI PUSH1 0x0 DUP1 REVERT JUMPDEST PUSH4 0x4E487B71 PUSH1 0xE0 SHL PUSH1 0x0 MSTORE PUSH1 0x11 PUSH1 0x4 MSTORE PUSH1 0x24 PUSH1 0x0 REVERT JUMPDEST PUSH1 0x0 DUP3 DUP3 LT ISZERO PUSH2 0x398 JUMPI PUSH2 0x398 PUSH2 0x370 JUMP JUMPDEST POP SUB SWAP1 JUMP JUMPDEST PUSH1 0x0 DUP3 PUSH2 0x3BA JUMPI PUSH4 0x4E487B71 PUSH1 0xE0 SHL PUSH1 0x0 MSTORE PUSH1 0x12 PUSH1 0x4 MSTORE PUSH1 0x24 PUSH1 0x0 REVERT JUMPDEST POP DIV SWAP1 JUMP JUMPDEST PUSH4 0x4E487B71 PUSH1 0xE0 SHL PUSH1 0x0 MSTORE PUSH1 0x32 PUSH1 0x4 MSTORE PUSH1 0x24 PUSH1 0x0 REVERT JUMPDEST PUSH1 0x0 DUP3 NOT DUP3 GT ISZERO PUSH2 0x3E8 JUMPI PUSH2 0x3E8 PUSH2 0x370 JUMP JUMPDEST POP ADD SWAP1 JUMP JUMPDEST PUSH1 0x0 PUSH1 0x20 DUP1 DUP4 MSTORE DUP4 MLOAD DUP1 DUP3 DUP6 ADD MSTORE PUSH1 0x0 JUMPDEST DUP2 DUP2 LT ISZERO PUSH2 0x41A JUMPI DUP6 DUP2 ADD DUP4 ADD MLOAD DUP6 DUP3 ADD PUSH1 0x40 ADD MSTORE DUP3 ADD PUSH2 0x3FE JUMP JUMPDEST DUP2 DUP2 GT ISZERO PUSH2 0x42C JUMPI PUSH1 0x0 PUSH1 0x40 DUP4 DUP8 ADD ADD MSTORE JUMPDEST POP PUSH1 0x1F ADD PUSH1 0x1F NOT AND SWAP3 SWAP1 SWAP3 ADD PUSH1 0x40 ADD SWAP4 SWAP3 POP POP POP JUMP INVALID 0x4C PUSH16 0x636B656477616C6C65743A2043616E6E PUSH16 0x742073756273747261637420746F7461 PUSH13 0x20616D6F756E74207769746820 PUSH4 0x6C61696D PUSH2 0x626C PUSH6 0xA26469706673 PC 0x22 SLT KECCAK256 CALLDATALOAD KECCAK256 MOD GASLIMIT DUP12 0xDB JUMPDEST 0x5D 0xC9 SWAP10 0x5F PUSH14 0x85DEC8D14A35E6C84432105659F7 0xF8 ADD DUP2 EXTCODESIZE SWAP7 0xDC PUSH5 0x736F6C6343 STOP ADDMOD SIGNEXTEND STOP CALLER "
		},
		"gasEstimates": {
			"creation": {
				"codeDepositCost": "240400",
				"executionCost": "infinite",
				"totalCost": "infinite"
			},
			"external": {
				"beneficiary()": "infinite",
				"changeTalaxAddress(address)": "26700",
				"getOwner()": "2375",
				"initiateLockedWallet()": "24501",
				"releaseClaimable(uint256[51])": "infinite",
				"startLockedWallet()": "2350"
			},
			"internal": {
				"_calculateClaimableAmount(uint256[51] memory)": "infinite",
				"_onlyTalax()": "infinite",
				"_unsafeInc(uint256)": "infinite"
			}
		},
		"methodIdentifiers": {
			"beneficiary()": "38af3eed",
			"changeTalaxAddress(address)": "1d77b00b",
			"getOwner()": "893d20e8",
			"initiateLockedWallet()": "c8cca41e",
			"releaseClaimable(uint256[51])": "0a95606e",
			"startLockedWallet()": "b580aa9e"
		}
	},
	"abi": [
		{
			"inputs": [
				{
					"internalType": "uint256",
					"name": "amount_",
					"type": "uint256"
				},
				{
					"internalType": "address",
					"name": "beneficiary_",
					"type": "address"
				}
			],
			"stateMutability": "nonpayable",
			"type": "constructor"
		},
		{
			"inputs": [],
			"name": "beneficiary",
			"outputs": [
				{
					"internalType": "address",
					"name": "",
					"type": "address"
				}
			],
			"stateMutability": "view",
			"type": "function"
		},
		{
			"inputs": [
				{
					"internalType": "address",
					"name": "talax",
					"type": "address"
				}
			],
			"name": "changeTalaxAddress",
			"outputs": [],
			"stateMutability": "nonpayable",
			"type": "function"
		},
		{
			"inputs": [],
			"name": "getOwner",
			"outputs": [
				{
					"internalType": "address",
					"name": "",
					"type": "address"
				}
			],
			"stateMutability": "view",
			"type": "function"
		},
		{
			"inputs": [],
			"name": "initiateLockedWallet",
			"outputs": [],
			"stateMutability": "nonpayable",
			"type": "function"
		},
		{
			"inputs": [
				{
					"internalType": "uint256[51]",
					"name": "amount",
					"type": "uint256[51]"
				}
			],
			"name": "releaseClaimable",
			"outputs": [
				{
					"internalType": "uint256",
					"name": "",
					"type": "uint256"
				}
			],
			"stateMutability": "nonpayable",
			"type": "function"
		},
		{
			"inputs": [],
			"name": "startLockedWallet",
			"outputs": [
				{
					"internalType": "uint256",
					"name": "",
					"type": "uint256"
				}
			],
			"stateMutability": "view",
			"type": "function"
		}
	]
}