{
	"data": {
		"bytecode": {
			"linkReferences": {},
			"object": "608060405234801561001057600080fd5b5060016000819055600f90556050600255600980546001600160a01b031990811633908117909255600a8054909116909117905561114f806100536000396000f3fe608060405234801561001057600080fd5b506004361061014d5760003560e01c80638891cf0d116100c3578063c23a5cea1161007c578063c23a5cea1461034c578063cb79c2e114610374578063cbb3e1521461037d578063d5dbdf1b14610385578063f93d4f8a14610398578063fab2f86b146103ab57600080fd5b80638891cf0d146102d15780638c63f97f146102da578063a143a5f2146102ed578063a3ec138d1461030d578063b2bdfa7b14610330578063b87da76d1461034357600080fd5b80635f348b4e116101155780635f348b4e146102545780635f5300ff1461027f578063632a9a521461029657806365f8c6c51461029e578063671d2b75146102b157806371e3db87146102c957600080fd5b8063070c8b741461015257806310486b6a1461015c5780631d77b00b146101dc5780631ec6b60a146101ef5780632d15cc04146101f7575b600080fd5b61015a6103b3565b005b610164610461565b6040516101d3919060006101208201905082518252602083015160208301526040830151805160408401526020810151606084015260408101516080840152606081015160a0840152608081015160c084015260a081015160e084015260c08101516101008401525092915050565b60405180910390f35b61015a6101ea366004610f84565b6105aa565b61015a6105d4565b61023d610205366004610f84565b6001600160a01b031660009081526007602090815260408083208054600554855260019091019092529091205460ff91821692911690565b6040805192151583529015156020830152016101d3565b600954610267906001600160a01b031681565b6040516001600160a01b0390911681526020016101d3565b61028860065481565b6040519081526020016101d3565b61015a61064f565b6102886102ac366004610f84565b610715565b6102b96107e6565b60405190151581526020016101d3565b61015a610860565b61028860025481565b61015a6102e8366004610f9f565b61086e565b6102886102fb366004610f9f565b60086020526000908152604090205481565b6102b961031b366004610f84565b60076020526000908152604090205460ff1681565b600a54610267906001600160a01b031681565b61028860035481565b61035f61035a366004610f84565b6108d4565b604080519283526020830191909152016101d3565b61028860015481565b610288610a69565b61015a610393366004610f9f565b610a9c565b61015a6103a6366004610fb8565b610afb565b61015a610caf565b600260005414156103df5760405162461bcd60e51b81526004016103d690610ff1565b60405180910390fd5b60026000556103ec610ccb565b6103f4610cf0565b336000908152600760209081526040808320600554845260010190915290205460ff16610433576040516245ba1160e91b815260040160405180910390fd5b600554600090815260086020526040812080546001929061045590849061103e565b90915550506001600055565b610469610f0f565b336000908152600b6020908152604091829020825160e08101845281548082526001830154938201939093526002820154938101939093526003810154606084015260048101546080840152600581015460a08401526006015460c08301526104e55760405163b018f08760e01b815260040160405180910390fd5b604080516060810182526000808252602082018190529181018390529061050b83610d20565b90504282604001516060015111156105575761053461052c82600154610d75565b6103e8610d81565b61054761052c8560000151600154610d75565b6105519190611055565b60208301525b60006105668460c00151610d8d565b111561058a57600061057b8460000151610da4565b604084015160a0015250610598565b6040820151600060a0909101525b60408201516080015290518152919050565b6105b2610dc6565b600980546001600160a01b0319166001600160a01b0392909216919091179055565b600260005414156105f75760405162461bcd60e51b81526004016103d690610ff1565b6002600055610604610df1565b60045460ff1615156001141561062d576040516336d2669760e11b815260040160405180910390fd5b6004805460ff1916600190811790915560058054600090610455908490611055565b600260005414156106725760405162461bcd60e51b81526004016103d690610ff1565b600260005561067f610ccb565b610687610cf0565b336000908152600760209081526040808320600554845260019081019092529091205460ff16151514156106ce57604051630740e33b60e41b815260040160405180910390fd5b33600090815260076020908152604080832060058054855260019182018452828520805460ff19168317905554845260089092528220805491929091610455908490611055565b600061071f610df1565b6001600160a01b0382166000908152600b6020908152604091829020825160e08101845281548082526001830154938201939093526002820154938101939093526003810154606084015260048101546080840152600581015460a08401526006015460c0830152156107d857600061079b8260c00151610d8d565b116107b95760405163376115b360e21b815260040160405180910390fd5b600060a08201524260c082015280516107d190610da4565b9392505050565b50600092915050565b919050565b60006107f0610df1565b6107f8610ccb565b60016006541161081b576040516317cb436f60e11b815260040160405180910390fd5b600061083461082d6006546005610d75565b600a610d81565b60055460009081526008602052604090205490915081101561085857600191505090565b600091505090565b610868610df1565b42600355565b610876610dc6565b601e8111156108985760405163f1a470d760e01b815260040160405180910390fd5b60018190556040518181527fcfa4f4cf1cd64d13a167a8e75605e0c0c9d6700e903d17c5dc11f593254a04a9906020015b60405180910390a150565b600080600260005414156108fa5760405162461bcd60e51b81526004016103d690610ff1565b6002600055610907610df1565b6001600160a01b0383166000818152600b60208181526040808420815160e08101835281548152600182018054828601526002830180549483019490945260038301805460608401908152600485018054608086015260058601805460a087015260068701805460c08801529b8b52989097529388905590879055928690559185905591849055918390559190925551421015610a04576001600660008282546109b1919061103e565b90915550506001600160a01b038416600090815260076020908152604080832060055484526001019091529020805460ff1916905580516109fa906109f583610d20565b610e1c565b9250925050610a5d565b600160066000828254610a17919061103e565b90915550506001600160a01b038416600090815260076020908152604080832060055484526001019091529020805460ff191690558051610a5782610d20565b92509250505b60016000559092909150565b6000600354600014610a965762093a8060035442610a87919061103e565b610a919190611083565b905090565b50600090565b610aa4610dc6565b60c8811115610ac657604051630a552cf160e41b815260040160405180910390fd5b60028190556040518181527fcc672f1026b958c0cfbfdd89ebe8ddcbc127f16ec24da6c2c7a4de26a8b1857e906020016108c9565b60026000541415610b1e5760405162461bcd60e51b81526004016103d690610ff1565b6002600055610b2b610df1565b60008311610b4c5760405163445a206b60e11b815260040160405180910390fd5b6001600160a01b0384166000908152600b602052604090205415610b83576040516304462d2760e01b815260040160405180910390fd5b600160066000828254610b969190611055565b90915550506001600160a01b038416600090815260076020908152604091829020805460ff19166001179055815160e081018352858152429181018290529182018390529060608101610be98386611055565b815260006020808301829052604080840183905260609384018390526001600160a01b038a16808452600b8352928190208551815591850151600183015584015160028201559183015160038301556080830151600483015560a0830151600583015560c0909201516006909101557fb4caaf29adda3eefee3ad552a8e85058589bf834c7466cae4ee58787f70589ed8583610c858188611055565b6040805193845260208401929092529082015260600160405180910390a250506001600055505050565b610cb7610df1565b610cbf610ccb565b6004805460ff19169055565b60045460ff16610cee57604051632874624560e21b815260040160405180910390fd5b565b3360009081526007602052604090205460ff16610cee576040516307959f7560e21b815260040160405180910390fd5b8051600090610d3157506000919050565b6a52b7d2dcc80cd2e4000000610d4a8360200151610e66565b60408401518451610d5b91906110a5565b610d6591906110a5565b610d6f9190611083565b92915050565b60006107d182846110a5565b60006107d18284611083565b6000610d6f603c610d9e844261103e565b90610d81565b60006301dfe2006103e860025484610dbc91906110a5565b610d659190611083565b600a546001600160a01b03163314610cee576040516315a678a960e11b815260040160405180910390fd5b6009546001600160a01b03163314610cee576040516315a678a960e11b815260040160405180910390fd5b60008083610e2f57506000905080610e5f565b610e4784610e4261052c87600154610d75565b610ec9565b610e5a84610e4261052c87600154610d75565b915091505b9250929050565b6000610d6f610e75834261103e565b610e899069d3c21bcecceda10000006110a5565b6301e133806040518060400160405280601d81526020017f4572726f722063616e6e6f74206469766964652074696d657374616d70000000815250610ed5565b60006107d1828461103e565b60008183610ef65760405162461bcd60e51b81526004016103d691906110c4565b50828481610f0657610f0661106d565b04949350505050565b60405180606001604052806000815260200160008152602001610f686040518060e00160405280600081526020016000815260200160008152602001600081526020016000815260200160008152602001600081525090565b905290565b80356001600160a01b03811681146107e157600080fd5b600060208284031215610f9657600080fd5b6107d182610f6d565b600060208284031215610fb157600080fd5b5035919050565b60008060008060808587031215610fce57600080fd5b610fd785610f6d565b966020860135965060408601359560600135945092505050565b6020808252601f908201527f5265656e7472616e637947756172643a207265656e7472616e742063616c6c00604082015260600190565b634e487b7160e01b600052601160045260246000fd5b60008282101561105057611050611028565b500390565b6000821982111561106857611068611028565b500190565b634e487b7160e01b600052601260045260246000fd5b6000826110a057634e487b7160e01b600052601260045260246000fd5b500490565b60008160001904831182151516156110bf576110bf611028565b500290565b600060208083528351808285015260005b818110156110f1578581018301518582016040015282016110d5565b81811115611103576000604083870101525b50601f01601f191692909201604001939250505056fea26469706673582212202b0811f8b1e7c22457d3e0f441064c85365411f10b488aba22648124d87d58d864736f6c634300080b0033",
			"opcodes": "PUSH1 0x80 PUSH1 0x40 MSTORE CALLVALUE DUP1 ISZERO PUSH2 0x10 JUMPI PUSH1 0x0 DUP1 REVERT JUMPDEST POP PUSH1 0x1 PUSH1 0x0 DUP2 SWAP1 SSTORE PUSH1 0xF SWAP1 SSTORE PUSH1 0x50 PUSH1 0x2 SSTORE PUSH1 0x9 DUP1 SLOAD PUSH1 0x1 PUSH1 0x1 PUSH1 0xA0 SHL SUB NOT SWAP1 DUP2 AND CALLER SWAP1 DUP2 OR SWAP1 SWAP3 SSTORE PUSH1 0xA DUP1 SLOAD SWAP1 SWAP2 AND SWAP1 SWAP2 OR SWAP1 SSTORE PUSH2 0x114F DUP1 PUSH2 0x53 PUSH1 0x0 CODECOPY PUSH1 0x0 RETURN INVALID PUSH1 0x80 PUSH1 0x40 MSTORE CALLVALUE DUP1 ISZERO PUSH2 0x10 JUMPI PUSH1 0x0 DUP1 REVERT JUMPDEST POP PUSH1 0x4 CALLDATASIZE LT PUSH2 0x14D JUMPI PUSH1 0x0 CALLDATALOAD PUSH1 0xE0 SHR DUP1 PUSH4 0x8891CF0D GT PUSH2 0xC3 JUMPI DUP1 PUSH4 0xC23A5CEA GT PUSH2 0x7C JUMPI DUP1 PUSH4 0xC23A5CEA EQ PUSH2 0x34C JUMPI DUP1 PUSH4 0xCB79C2E1 EQ PUSH2 0x374 JUMPI DUP1 PUSH4 0xCBB3E152 EQ PUSH2 0x37D JUMPI DUP1 PUSH4 0xD5DBDF1B EQ PUSH2 0x385 JUMPI DUP1 PUSH4 0xF93D4F8A EQ PUSH2 0x398 JUMPI DUP1 PUSH4 0xFAB2F86B EQ PUSH2 0x3AB JUMPI PUSH1 0x0 DUP1 REVERT JUMPDEST DUP1 PUSH4 0x8891CF0D EQ PUSH2 0x2D1 JUMPI DUP1 PUSH4 0x8C63F97F EQ PUSH2 0x2DA JUMPI DUP1 PUSH4 0xA143A5F2 EQ PUSH2 0x2ED JUMPI DUP1 PUSH4 0xA3EC138D EQ PUSH2 0x30D JUMPI DUP1 PUSH4 0xB2BDFA7B EQ PUSH2 0x330 JUMPI DUP1 PUSH4 0xB87DA76D EQ PUSH2 0x343 JUMPI PUSH1 0x0 DUP1 REVERT JUMPDEST DUP1 PUSH4 0x5F348B4E GT PUSH2 0x115 JUMPI DUP1 PUSH4 0x5F348B4E EQ PUSH2 0x254 JUMPI DUP1 PUSH4 0x5F5300FF EQ PUSH2 0x27F JUMPI DUP1 PUSH4 0x632A9A52 EQ PUSH2 0x296 JUMPI DUP1 PUSH4 0x65F8C6C5 EQ PUSH2 0x29E JUMPI DUP1 PUSH4 0x671D2B75 EQ PUSH2 0x2B1 JUMPI DUP1 PUSH4 0x71E3DB87 EQ PUSH2 0x2C9 JUMPI PUSH1 0x0 DUP1 REVERT JUMPDEST DUP1 PUSH4 0x70C8B74 EQ PUSH2 0x152 JUMPI DUP1 PUSH4 0x10486B6A EQ PUSH2 0x15C JUMPI DUP1 PUSH4 0x1D77B00B EQ PUSH2 0x1DC JUMPI DUP1 PUSH4 0x1EC6B60A EQ PUSH2 0x1EF JUMPI DUP1 PUSH4 0x2D15CC04 EQ PUSH2 0x1F7 JUMPI JUMPDEST PUSH1 0x0 DUP1 REVERT JUMPDEST PUSH2 0x15A PUSH2 0x3B3 JUMP JUMPDEST STOP JUMPDEST PUSH2 0x164 PUSH2 0x461 JUMP JUMPDEST PUSH1 0x40 MLOAD PUSH2 0x1D3 SWAP2 SWAP1 PUSH1 0x0 PUSH2 0x120 DUP3 ADD SWAP1 POP DUP3 MLOAD DUP3 MSTORE PUSH1 0x20 DUP4 ADD MLOAD PUSH1 0x20 DUP4 ADD MSTORE PUSH1 0x40 DUP4 ADD MLOAD DUP1 MLOAD PUSH1 0x40 DUP5 ADD MSTORE PUSH1 0x20 DUP2 ADD MLOAD PUSH1 0x60 DUP5 ADD MSTORE PUSH1 0x40 DUP2 ADD MLOAD PUSH1 0x80 DUP5 ADD MSTORE PUSH1 0x60 DUP2 ADD MLOAD PUSH1 0xA0 DUP5 ADD MSTORE PUSH1 0x80 DUP2 ADD MLOAD PUSH1 0xC0 DUP5 ADD MSTORE PUSH1 0xA0 DUP2 ADD MLOAD PUSH1 0xE0 DUP5 ADD MSTORE PUSH1 0xC0 DUP2 ADD MLOAD PUSH2 0x100 DUP5 ADD MSTORE POP SWAP3 SWAP2 POP POP JUMP JUMPDEST PUSH1 0x40 MLOAD DUP1 SWAP2 SUB SWAP1 RETURN JUMPDEST PUSH2 0x15A PUSH2 0x1EA CALLDATASIZE PUSH1 0x4 PUSH2 0xF84 JUMP JUMPDEST PUSH2 0x5AA JUMP JUMPDEST PUSH2 0x15A PUSH2 0x5D4 JUMP JUMPDEST PUSH2 0x23D PUSH2 0x205 CALLDATASIZE PUSH1 0x4 PUSH2 0xF84 JUMP JUMPDEST PUSH1 0x1 PUSH1 0x1 PUSH1 0xA0 SHL SUB AND PUSH1 0x0 SWAP1 DUP2 MSTORE PUSH1 0x7 PUSH1 0x20 SWAP1 DUP2 MSTORE PUSH1 0x40 DUP1 DUP4 KECCAK256 DUP1 SLOAD PUSH1 0x5 SLOAD DUP6 MSTORE PUSH1 0x1 SWAP1 SWAP2 ADD SWAP1 SWAP3 MSTORE SWAP1 SWAP2 KECCAK256 SLOAD PUSH1 0xFF SWAP2 DUP3 AND SWAP3 SWAP2 AND SWAP1 JUMP JUMPDEST PUSH1 0x40 DUP1 MLOAD SWAP3 ISZERO ISZERO DUP4 MSTORE SWAP1 ISZERO ISZERO PUSH1 0x20 DUP4 ADD MSTORE ADD PUSH2 0x1D3 JUMP JUMPDEST PUSH1 0x9 SLOAD PUSH2 0x267 SWAP1 PUSH1 0x1 PUSH1 0x1 PUSH1 0xA0 SHL SUB AND DUP2 JUMP JUMPDEST PUSH1 0x40 MLOAD PUSH1 0x1 PUSH1 0x1 PUSH1 0xA0 SHL SUB SWAP1 SWAP2 AND DUP2 MSTORE PUSH1 0x20 ADD PUSH2 0x1D3 JUMP JUMPDEST PUSH2 0x288 PUSH1 0x6 SLOAD DUP2 JUMP JUMPDEST PUSH1 0x40 MLOAD SWAP1 DUP2 MSTORE PUSH1 0x20 ADD PUSH2 0x1D3 JUMP JUMPDEST PUSH2 0x15A PUSH2 0x64F JUMP JUMPDEST PUSH2 0x288 PUSH2 0x2AC CALLDATASIZE PUSH1 0x4 PUSH2 0xF84 JUMP JUMPDEST PUSH2 0x715 JUMP JUMPDEST PUSH2 0x2B9 PUSH2 0x7E6 JUMP JUMPDEST PUSH1 0x40 MLOAD SWAP1 ISZERO ISZERO DUP2 MSTORE PUSH1 0x20 ADD PUSH2 0x1D3 JUMP JUMPDEST PUSH2 0x15A PUSH2 0x860 JUMP JUMPDEST PUSH2 0x288 PUSH1 0x2 SLOAD DUP2 JUMP JUMPDEST PUSH2 0x15A PUSH2 0x2E8 CALLDATASIZE PUSH1 0x4 PUSH2 0xF9F JUMP JUMPDEST PUSH2 0x86E JUMP JUMPDEST PUSH2 0x288 PUSH2 0x2FB CALLDATASIZE PUSH1 0x4 PUSH2 0xF9F JUMP JUMPDEST PUSH1 0x8 PUSH1 0x20 MSTORE PUSH1 0x0 SWAP1 DUP2 MSTORE PUSH1 0x40 SWAP1 KECCAK256 SLOAD DUP2 JUMP JUMPDEST PUSH2 0x2B9 PUSH2 0x31B CALLDATASIZE PUSH1 0x4 PUSH2 0xF84 JUMP JUMPDEST PUSH1 0x7 PUSH1 0x20 MSTORE PUSH1 0x0 SWAP1 DUP2 MSTORE PUSH1 0x40 SWAP1 KECCAK256 SLOAD PUSH1 0xFF AND DUP2 JUMP JUMPDEST PUSH1 0xA SLOAD PUSH2 0x267 SWAP1 PUSH1 0x1 PUSH1 0x1 PUSH1 0xA0 SHL SUB AND DUP2 JUMP JUMPDEST PUSH2 0x288 PUSH1 0x3 SLOAD DUP2 JUMP JUMPDEST PUSH2 0x35F PUSH2 0x35A CALLDATASIZE PUSH1 0x4 PUSH2 0xF84 JUMP JUMPDEST PUSH2 0x8D4 JUMP JUMPDEST PUSH1 0x40 DUP1 MLOAD SWAP3 DUP4 MSTORE PUSH1 0x20 DUP4 ADD SWAP2 SWAP1 SWAP2 MSTORE ADD PUSH2 0x1D3 JUMP JUMPDEST PUSH2 0x288 PUSH1 0x1 SLOAD DUP2 JUMP JUMPDEST PUSH2 0x288 PUSH2 0xA69 JUMP JUMPDEST PUSH2 0x15A PUSH2 0x393 CALLDATASIZE PUSH1 0x4 PUSH2 0xF9F JUMP JUMPDEST PUSH2 0xA9C JUMP JUMPDEST PUSH2 0x15A PUSH2 0x3A6 CALLDATASIZE PUSH1 0x4 PUSH2 0xFB8 JUMP JUMPDEST PUSH2 0xAFB JUMP JUMPDEST PUSH2 0x15A PUSH2 0xCAF JUMP JUMPDEST PUSH1 0x2 PUSH1 0x0 SLOAD EQ ISZERO PUSH2 0x3DF JUMPI PUSH1 0x40 MLOAD PUSH3 0x461BCD PUSH1 0xE5 SHL DUP2 MSTORE PUSH1 0x4 ADD PUSH2 0x3D6 SWAP1 PUSH2 0xFF1 JUMP JUMPDEST PUSH1 0x40 MLOAD DUP1 SWAP2 SUB SWAP1 REVERT JUMPDEST PUSH1 0x2 PUSH1 0x0 SSTORE PUSH2 0x3EC PUSH2 0xCCB JUMP JUMPDEST PUSH2 0x3F4 PUSH2 0xCF0 JUMP JUMPDEST CALLER PUSH1 0x0 SWAP1 DUP2 MSTORE PUSH1 0x7 PUSH1 0x20 SWAP1 DUP2 MSTORE PUSH1 0x40 DUP1 DUP4 KECCAK256 PUSH1 0x5 SLOAD DUP5 MSTORE PUSH1 0x1 ADD SWAP1 SWAP2 MSTORE SWAP1 KECCAK256 SLOAD PUSH1 0xFF AND PUSH2 0x433 JUMPI PUSH1 0x40 MLOAD PUSH3 0x45BA11 PUSH1 0xE9 SHL DUP2 MSTORE PUSH1 0x4 ADD PUSH1 0x40 MLOAD DUP1 SWAP2 SUB SWAP1 REVERT JUMPDEST PUSH1 0x5 SLOAD PUSH1 0x0 SWAP1 DUP2 MSTORE PUSH1 0x8 PUSH1 0x20 MSTORE PUSH1 0x40 DUP2 KECCAK256 DUP1 SLOAD PUSH1 0x1 SWAP3 SWAP1 PUSH2 0x455 SWAP1 DUP5 SWAP1 PUSH2 0x103E JUMP JUMPDEST SWAP1 SWAP2 SSTORE POP POP PUSH1 0x1 PUSH1 0x0 SSTORE JUMP JUMPDEST PUSH2 0x469 PUSH2 0xF0F JUMP JUMPDEST CALLER PUSH1 0x0 SWAP1 DUP2 MSTORE PUSH1 0xB PUSH1 0x20 SWAP1 DUP2 MSTORE PUSH1 0x40 SWAP2 DUP3 SWAP1 KECCAK256 DUP3 MLOAD PUSH1 0xE0 DUP2 ADD DUP5 MSTORE DUP2 SLOAD DUP1 DUP3 MSTORE PUSH1 0x1 DUP4 ADD SLOAD SWAP4 DUP3 ADD SWAP4 SWAP1 SWAP4 MSTORE PUSH1 0x2 DUP3 ADD SLOAD SWAP4 DUP2 ADD SWAP4 SWAP1 SWAP4 MSTORE PUSH1 0x3 DUP2 ADD SLOAD PUSH1 0x60 DUP5 ADD MSTORE PUSH1 0x4 DUP2 ADD SLOAD PUSH1 0x80 DUP5 ADD MSTORE PUSH1 0x5 DUP2 ADD SLOAD PUSH1 0xA0 DUP5 ADD MSTORE PUSH1 0x6 ADD SLOAD PUSH1 0xC0 DUP4 ADD MSTORE PUSH2 0x4E5 JUMPI PUSH1 0x40 MLOAD PUSH4 0xB018F087 PUSH1 0xE0 SHL DUP2 MSTORE PUSH1 0x4 ADD PUSH1 0x40 MLOAD DUP1 SWAP2 SUB SWAP1 REVERT JUMPDEST PUSH1 0x40 DUP1 MLOAD PUSH1 0x60 DUP2 ADD DUP3 MSTORE PUSH1 0x0 DUP1 DUP3 MSTORE PUSH1 0x20 DUP3 ADD DUP2 SWAP1 MSTORE SWAP2 DUP2 ADD DUP4 SWAP1 MSTORE SWAP1 PUSH2 0x50B DUP4 PUSH2 0xD20 JUMP JUMPDEST SWAP1 POP TIMESTAMP DUP3 PUSH1 0x40 ADD MLOAD PUSH1 0x60 ADD MLOAD GT ISZERO PUSH2 0x557 JUMPI PUSH2 0x534 PUSH2 0x52C DUP3 PUSH1 0x1 SLOAD PUSH2 0xD75 JUMP JUMPDEST PUSH2 0x3E8 PUSH2 0xD81 JUMP JUMPDEST PUSH2 0x547 PUSH2 0x52C DUP6 PUSH1 0x0 ADD MLOAD PUSH1 0x1 SLOAD PUSH2 0xD75 JUMP JUMPDEST PUSH2 0x551 SWAP2 SWAP1 PUSH2 0x1055 JUMP JUMPDEST PUSH1 0x20 DUP4 ADD MSTORE JUMPDEST PUSH1 0x0 PUSH2 0x566 DUP5 PUSH1 0xC0 ADD MLOAD PUSH2 0xD8D JUMP JUMPDEST GT ISZERO PUSH2 0x58A JUMPI PUSH1 0x0 PUSH2 0x57B DUP5 PUSH1 0x0 ADD MLOAD PUSH2 0xDA4 JUMP JUMPDEST PUSH1 0x40 DUP5 ADD MLOAD PUSH1 0xA0 ADD MSTORE POP PUSH2 0x598 JUMP JUMPDEST PUSH1 0x40 DUP3 ADD MLOAD PUSH1 0x0 PUSH1 0xA0 SWAP1 SWAP2 ADD MSTORE JUMPDEST PUSH1 0x40 DUP3 ADD MLOAD PUSH1 0x80 ADD MSTORE SWAP1 MLOAD DUP2 MSTORE SWAP2 SWAP1 POP JUMP JUMPDEST PUSH2 0x5B2 PUSH2 0xDC6 JUMP JUMPDEST PUSH1 0x9 DUP1 SLOAD PUSH1 0x1 PUSH1 0x1 PUSH1 0xA0 SHL SUB NOT AND PUSH1 0x1 PUSH1 0x1 PUSH1 0xA0 SHL SUB SWAP3 SWAP1 SWAP3 AND SWAP2 SWAP1 SWAP2 OR SWAP1 SSTORE JUMP JUMPDEST PUSH1 0x2 PUSH1 0x0 SLOAD EQ ISZERO PUSH2 0x5F7 JUMPI PUSH1 0x40 MLOAD PUSH3 0x461BCD PUSH1 0xE5 SHL DUP2 MSTORE PUSH1 0x4 ADD PUSH2 0x3D6 SWAP1 PUSH2 0xFF1 JUMP JUMPDEST PUSH1 0x2 PUSH1 0x0 SSTORE PUSH2 0x604 PUSH2 0xDF1 JUMP JUMPDEST PUSH1 0x4 SLOAD PUSH1 0xFF AND ISZERO ISZERO PUSH1 0x1 EQ ISZERO PUSH2 0x62D JUMPI PUSH1 0x40 MLOAD PUSH4 0x36D26697 PUSH1 0xE1 SHL DUP2 MSTORE PUSH1 0x4 ADD PUSH1 0x40 MLOAD DUP1 SWAP2 SUB SWAP1 REVERT JUMPDEST PUSH1 0x4 DUP1 SLOAD PUSH1 0xFF NOT AND PUSH1 0x1 SWAP1 DUP2 OR SWAP1 SWAP2 SSTORE PUSH1 0x5 DUP1 SLOAD PUSH1 0x0 SWAP1 PUSH2 0x455 SWAP1 DUP5 SWAP1 PUSH2 0x1055 JUMP JUMPDEST PUSH1 0x2 PUSH1 0x0 SLOAD EQ ISZERO PUSH2 0x672 JUMPI PUSH1 0x40 MLOAD PUSH3 0x461BCD PUSH1 0xE5 SHL DUP2 MSTORE PUSH1 0x4 ADD PUSH2 0x3D6 SWAP1 PUSH2 0xFF1 JUMP JUMPDEST PUSH1 0x2 PUSH1 0x0 SSTORE PUSH2 0x67F PUSH2 0xCCB JUMP JUMPDEST PUSH2 0x687 PUSH2 0xCF0 JUMP JUMPDEST CALLER PUSH1 0x0 SWAP1 DUP2 MSTORE PUSH1 0x7 PUSH1 0x20 SWAP1 DUP2 MSTORE PUSH1 0x40 DUP1 DUP4 KECCAK256 PUSH1 0x5 SLOAD DUP5 MSTORE PUSH1 0x1 SWAP1 DUP2 ADD SWAP1 SWAP3 MSTORE SWAP1 SWAP2 KECCAK256 SLOAD PUSH1 0xFF AND ISZERO ISZERO EQ ISZERO PUSH2 0x6CE JUMPI PUSH1 0x40 MLOAD PUSH4 0x740E33B PUSH1 0xE4 SHL DUP2 MSTORE PUSH1 0x4 ADD PUSH1 0x40 MLOAD DUP1 SWAP2 SUB SWAP1 REVERT JUMPDEST CALLER PUSH1 0x0 SWAP1 DUP2 MSTORE PUSH1 0x7 PUSH1 0x20 SWAP1 DUP2 MSTORE PUSH1 0x40 DUP1 DUP4 KECCAK256 PUSH1 0x5 DUP1 SLOAD DUP6 MSTORE PUSH1 0x1 SWAP2 DUP3 ADD DUP5 MSTORE DUP3 DUP6 KECCAK256 DUP1 SLOAD PUSH1 0xFF NOT AND DUP4 OR SWAP1 SSTORE SLOAD DUP5 MSTORE PUSH1 0x8 SWAP1 SWAP3 MSTORE DUP3 KECCAK256 DUP1 SLOAD SWAP2 SWAP3 SWAP1 SWAP2 PUSH2 0x455 SWAP1 DUP5 SWAP1 PUSH2 0x1055 JUMP JUMPDEST PUSH1 0x0 PUSH2 0x71F PUSH2 0xDF1 JUMP JUMPDEST PUSH1 0x1 PUSH1 0x1 PUSH1 0xA0 SHL SUB DUP3 AND PUSH1 0x0 SWAP1 DUP2 MSTORE PUSH1 0xB PUSH1 0x20 SWAP1 DUP2 MSTORE PUSH1 0x40 SWAP2 DUP3 SWAP1 KECCAK256 DUP3 MLOAD PUSH1 0xE0 DUP2 ADD DUP5 MSTORE DUP2 SLOAD DUP1 DUP3 MSTORE PUSH1 0x1 DUP4 ADD SLOAD SWAP4 DUP3 ADD SWAP4 SWAP1 SWAP4 MSTORE PUSH1 0x2 DUP3 ADD SLOAD SWAP4 DUP2 ADD SWAP4 SWAP1 SWAP4 MSTORE PUSH1 0x3 DUP2 ADD SLOAD PUSH1 0x60 DUP5 ADD MSTORE PUSH1 0x4 DUP2 ADD SLOAD PUSH1 0x80 DUP5 ADD MSTORE PUSH1 0x5 DUP2 ADD SLOAD PUSH1 0xA0 DUP5 ADD MSTORE PUSH1 0x6 ADD SLOAD PUSH1 0xC0 DUP4 ADD MSTORE ISZERO PUSH2 0x7D8 JUMPI PUSH1 0x0 PUSH2 0x79B DUP3 PUSH1 0xC0 ADD MLOAD PUSH2 0xD8D JUMP JUMPDEST GT PUSH2 0x7B9 JUMPI PUSH1 0x40 MLOAD PUSH4 0x376115B3 PUSH1 0xE2 SHL DUP2 MSTORE PUSH1 0x4 ADD PUSH1 0x40 MLOAD DUP1 SWAP2 SUB SWAP1 REVERT JUMPDEST PUSH1 0x0 PUSH1 0xA0 DUP3 ADD MSTORE TIMESTAMP PUSH1 0xC0 DUP3 ADD MSTORE DUP1 MLOAD PUSH2 0x7D1 SWAP1 PUSH2 0xDA4 JUMP JUMPDEST SWAP4 SWAP3 POP POP POP JUMP JUMPDEST POP PUSH1 0x0 SWAP3 SWAP2 POP POP JUMP JUMPDEST SWAP2 SWAP1 POP JUMP JUMPDEST PUSH1 0x0 PUSH2 0x7F0 PUSH2 0xDF1 JUMP JUMPDEST PUSH2 0x7F8 PUSH2 0xCCB JUMP JUMPDEST PUSH1 0x1 PUSH1 0x6 SLOAD GT PUSH2 0x81B JUMPI PUSH1 0x40 MLOAD PUSH4 0x17CB436F PUSH1 0xE1 SHL DUP2 MSTORE PUSH1 0x4 ADD PUSH1 0x40 MLOAD DUP1 SWAP2 SUB SWAP1 REVERT JUMPDEST PUSH1 0x0 PUSH2 0x834 PUSH2 0x82D PUSH1 0x6 SLOAD PUSH1 0x5 PUSH2 0xD75 JUMP JUMPDEST PUSH1 0xA PUSH2 0xD81 JUMP JUMPDEST PUSH1 0x5 SLOAD PUSH1 0x0 SWAP1 DUP2 MSTORE PUSH1 0x8 PUSH1 0x20 MSTORE PUSH1 0x40 SWAP1 KECCAK256 SLOAD SWAP1 SWAP2 POP DUP2 LT ISZERO PUSH2 0x858 JUMPI PUSH1 0x1 SWAP2 POP POP SWAP1 JUMP JUMPDEST PUSH1 0x0 SWAP2 POP POP SWAP1 JUMP JUMPDEST PUSH2 0x868 PUSH2 0xDF1 JUMP JUMPDEST TIMESTAMP PUSH1 0x3 SSTORE JUMP JUMPDEST PUSH2 0x876 PUSH2 0xDC6 JUMP JUMPDEST PUSH1 0x1E DUP2 GT ISZERO PUSH2 0x898 JUMPI PUSH1 0x40 MLOAD PUSH4 0xF1A470D7 PUSH1 0xE0 SHL DUP2 MSTORE PUSH1 0x4 ADD PUSH1 0x40 MLOAD DUP1 SWAP2 SUB SWAP1 REVERT JUMPDEST PUSH1 0x1 DUP2 SWAP1 SSTORE PUSH1 0x40 MLOAD DUP2 DUP2 MSTORE PUSH32 0xCFA4F4CF1CD64D13A167A8E75605E0C0C9D6700E903D17C5DC11F593254A04A9 SWAP1 PUSH1 0x20 ADD JUMPDEST PUSH1 0x40 MLOAD DUP1 SWAP2 SUB SWAP1 LOG1 POP JUMP JUMPDEST PUSH1 0x0 DUP1 PUSH1 0x2 PUSH1 0x0 SLOAD EQ ISZERO PUSH2 0x8FA JUMPI PUSH1 0x40 MLOAD PUSH3 0x461BCD PUSH1 0xE5 SHL DUP2 MSTORE PUSH1 0x4 ADD PUSH2 0x3D6 SWAP1 PUSH2 0xFF1 JUMP JUMPDEST PUSH1 0x2 PUSH1 0x0 SSTORE PUSH2 0x907 PUSH2 0xDF1 JUMP JUMPDEST PUSH1 0x1 PUSH1 0x1 PUSH1 0xA0 SHL SUB DUP4 AND PUSH1 0x0 DUP2 DUP2 MSTORE PUSH1 0xB PUSH1 0x20 DUP2 DUP2 MSTORE PUSH1 0x40 DUP1 DUP5 KECCAK256 DUP2 MLOAD PUSH1 0xE0 DUP2 ADD DUP4 MSTORE DUP2 SLOAD DUP2 MSTORE PUSH1 0x1 DUP3 ADD DUP1 SLOAD DUP3 DUP7 ADD MSTORE PUSH1 0x2 DUP4 ADD DUP1 SLOAD SWAP5 DUP4 ADD SWAP5 SWAP1 SWAP5 MSTORE PUSH1 0x3 DUP4 ADD DUP1 SLOAD PUSH1 0x60 DUP5 ADD SWAP1 DUP2 MSTORE PUSH1 0x4 DUP6 ADD DUP1 SLOAD PUSH1 0x80 DUP7 ADD MSTORE PUSH1 0x5 DUP7 ADD DUP1 SLOAD PUSH1 0xA0 DUP8 ADD MSTORE PUSH1 0x6 DUP8 ADD DUP1 SLOAD PUSH1 0xC0 DUP9 ADD MSTORE SWAP12 DUP12 MSTORE SWAP9 SWAP1 SWAP8 MSTORE SWAP4 DUP9 SWAP1 SSTORE SWAP1 DUP8 SWAP1 SSTORE SWAP3 DUP7 SWAP1 SSTORE SWAP2 DUP6 SWAP1 SSTORE SWAP2 DUP5 SWAP1 SSTORE SWAP2 DUP4 SWAP1 SSTORE SWAP2 SWAP1 SWAP3 SSTORE MLOAD TIMESTAMP LT ISZERO PUSH2 0xA04 JUMPI PUSH1 0x1 PUSH1 0x6 PUSH1 0x0 DUP3 DUP3 SLOAD PUSH2 0x9B1 SWAP2 SWAP1 PUSH2 0x103E JUMP JUMPDEST SWAP1 SWAP2 SSTORE POP POP PUSH1 0x1 PUSH1 0x1 PUSH1 0xA0 SHL SUB DUP5 AND PUSH1 0x0 SWAP1 DUP2 MSTORE PUSH1 0x7 PUSH1 0x20 SWAP1 DUP2 MSTORE PUSH1 0x40 DUP1 DUP4 KECCAK256 PUSH1 0x5 SLOAD DUP5 MSTORE PUSH1 0x1 ADD SWAP1 SWAP2 MSTORE SWAP1 KECCAK256 DUP1 SLOAD PUSH1 0xFF NOT AND SWAP1 SSTORE DUP1 MLOAD PUSH2 0x9FA SWAP1 PUSH2 0x9F5 DUP4 PUSH2 0xD20 JUMP JUMPDEST PUSH2 0xE1C JUMP JUMPDEST SWAP3 POP SWAP3 POP POP PUSH2 0xA5D JUMP JUMPDEST PUSH1 0x1 PUSH1 0x6 PUSH1 0x0 DUP3 DUP3 SLOAD PUSH2 0xA17 SWAP2 SWAP1 PUSH2 0x103E JUMP JUMPDEST SWAP1 SWAP2 SSTORE POP POP PUSH1 0x1 PUSH1 0x1 PUSH1 0xA0 SHL SUB DUP5 AND PUSH1 0x0 SWAP1 DUP2 MSTORE PUSH1 0x7 PUSH1 0x20 SWAP1 DUP2 MSTORE PUSH1 0x40 DUP1 DUP4 KECCAK256 PUSH1 0x5 SLOAD DUP5 MSTORE PUSH1 0x1 ADD SWAP1 SWAP2 MSTORE SWAP1 KECCAK256 DUP1 SLOAD PUSH1 0xFF NOT AND SWAP1 SSTORE DUP1 MLOAD PUSH2 0xA57 DUP3 PUSH2 0xD20 JUMP JUMPDEST SWAP3 POP SWAP3 POP POP JUMPDEST PUSH1 0x1 PUSH1 0x0 SSTORE SWAP1 SWAP3 SWAP1 SWAP2 POP JUMP JUMPDEST PUSH1 0x0 PUSH1 0x3 SLOAD PUSH1 0x0 EQ PUSH2 0xA96 JUMPI PUSH3 0x93A80 PUSH1 0x3 SLOAD TIMESTAMP PUSH2 0xA87 SWAP2 SWAP1 PUSH2 0x103E JUMP JUMPDEST PUSH2 0xA91 SWAP2 SWAP1 PUSH2 0x1083 JUMP JUMPDEST SWAP1 POP SWAP1 JUMP JUMPDEST POP PUSH1 0x0 SWAP1 JUMP JUMPDEST PUSH2 0xAA4 PUSH2 0xDC6 JUMP JUMPDEST PUSH1 0xC8 DUP2 GT ISZERO PUSH2 0xAC6 JUMPI PUSH1 0x40 MLOAD PUSH4 0xA552CF1 PUSH1 0xE4 SHL DUP2 MSTORE PUSH1 0x4 ADD PUSH1 0x40 MLOAD DUP1 SWAP2 SUB SWAP1 REVERT JUMPDEST PUSH1 0x2 DUP2 SWAP1 SSTORE PUSH1 0x40 MLOAD DUP2 DUP2 MSTORE PUSH32 0xCC672F1026B958C0CFBFDD89EBE8DDCBC127F16EC24DA6C2C7A4DE26A8B1857E SWAP1 PUSH1 0x20 ADD PUSH2 0x8C9 JUMP JUMPDEST PUSH1 0x2 PUSH1 0x0 SLOAD EQ ISZERO PUSH2 0xB1E JUMPI PUSH1 0x40 MLOAD PUSH3 0x461BCD PUSH1 0xE5 SHL DUP2 MSTORE PUSH1 0x4 ADD PUSH2 0x3D6 SWAP1 PUSH2 0xFF1 JUMP JUMPDEST PUSH1 0x2 PUSH1 0x0 SSTORE PUSH2 0xB2B PUSH2 0xDF1 JUMP JUMPDEST PUSH1 0x0 DUP4 GT PUSH2 0xB4C JUMPI PUSH1 0x40 MLOAD PUSH4 0x445A206B PUSH1 0xE1 SHL DUP2 MSTORE PUSH1 0x4 ADD PUSH1 0x40 MLOAD DUP1 SWAP2 SUB SWAP1 REVERT JUMPDEST PUSH1 0x1 PUSH1 0x1 PUSH1 0xA0 SHL SUB DUP5 AND PUSH1 0x0 SWAP1 DUP2 MSTORE PUSH1 0xB PUSH1 0x20 MSTORE PUSH1 0x40 SWAP1 KECCAK256 SLOAD ISZERO PUSH2 0xB83 JUMPI PUSH1 0x40 MLOAD PUSH4 0x4462D27 PUSH1 0xE0 SHL DUP2 MSTORE PUSH1 0x4 ADD PUSH1 0x40 MLOAD DUP1 SWAP2 SUB SWAP1 REVERT JUMPDEST PUSH1 0x1 PUSH1 0x6 PUSH1 0x0 DUP3 DUP3 SLOAD PUSH2 0xB96 SWAP2 SWAP1 PUSH2 0x1055 JUMP JUMPDEST SWAP1 SWAP2 SSTORE POP POP PUSH1 0x1 PUSH1 0x1 PUSH1 0xA0 SHL SUB DUP5 AND PUSH1 0x0 SWAP1 DUP2 MSTORE PUSH1 0x7 PUSH1 0x20 SWAP1 DUP2 MSTORE PUSH1 0x40 SWAP2 DUP3 SWAP1 KECCAK256 DUP1 SLOAD PUSH1 0xFF NOT AND PUSH1 0x1 OR SWAP1 SSTORE DUP2 MLOAD PUSH1 0xE0 DUP2 ADD DUP4 MSTORE DUP6 DUP2 MSTORE TIMESTAMP SWAP2 DUP2 ADD DUP3 SWAP1 MSTORE SWAP2 DUP3 ADD DUP4 SWAP1 MSTORE SWAP1 PUSH1 0x60 DUP2 ADD PUSH2 0xBE9 DUP4 DUP7 PUSH2 0x1055 JUMP JUMPDEST DUP2 MSTORE PUSH1 0x0 PUSH1 0x20 DUP1 DUP4 ADD DUP3 SWAP1 MSTORE PUSH1 0x40 DUP1 DUP5 ADD DUP4 SWAP1 MSTORE PUSH1 0x60 SWAP4 DUP5 ADD DUP4 SWAP1 MSTORE PUSH1 0x1 PUSH1 0x1 PUSH1 0xA0 SHL SUB DUP11 AND DUP1 DUP5 MSTORE PUSH1 0xB DUP4 MSTORE SWAP3 DUP2 SWAP1 KECCAK256 DUP6 MLOAD DUP2 SSTORE SWAP2 DUP6 ADD MLOAD PUSH1 0x1 DUP4 ADD SSTORE DUP5 ADD MLOAD PUSH1 0x2 DUP3 ADD SSTORE SWAP2 DUP4 ADD MLOAD PUSH1 0x3 DUP4 ADD SSTORE PUSH1 0x80 DUP4 ADD MLOAD PUSH1 0x4 DUP4 ADD SSTORE PUSH1 0xA0 DUP4 ADD MLOAD PUSH1 0x5 DUP4 ADD SSTORE PUSH1 0xC0 SWAP1 SWAP3 ADD MLOAD PUSH1 0x6 SWAP1 SWAP2 ADD SSTORE PUSH32 0xB4CAAF29ADDA3EEFEE3AD552A8E85058589BF834C7466CAE4EE58787F70589ED DUP6 DUP4 PUSH2 0xC85 DUP2 DUP9 PUSH2 0x1055 JUMP JUMPDEST PUSH1 0x40 DUP1 MLOAD SWAP4 DUP5 MSTORE PUSH1 0x20 DUP5 ADD SWAP3 SWAP1 SWAP3 MSTORE SWAP1 DUP3 ADD MSTORE PUSH1 0x60 ADD PUSH1 0x40 MLOAD DUP1 SWAP2 SUB SWAP1 LOG2 POP POP PUSH1 0x1 PUSH1 0x0 SSTORE POP POP POP JUMP JUMPDEST PUSH2 0xCB7 PUSH2 0xDF1 JUMP JUMPDEST PUSH2 0xCBF PUSH2 0xCCB JUMP JUMPDEST PUSH1 0x4 DUP1 SLOAD PUSH1 0xFF NOT AND SWAP1 SSTORE JUMP JUMPDEST PUSH1 0x4 SLOAD PUSH1 0xFF AND PUSH2 0xCEE JUMPI PUSH1 0x40 MLOAD PUSH4 0x28746245 PUSH1 0xE2 SHL DUP2 MSTORE PUSH1 0x4 ADD PUSH1 0x40 MLOAD DUP1 SWAP2 SUB SWAP1 REVERT JUMPDEST JUMP JUMPDEST CALLER PUSH1 0x0 SWAP1 DUP2 MSTORE PUSH1 0x7 PUSH1 0x20 MSTORE PUSH1 0x40 SWAP1 KECCAK256 SLOAD PUSH1 0xFF AND PUSH2 0xCEE JUMPI PUSH1 0x40 MLOAD PUSH4 0x7959F75 PUSH1 0xE2 SHL DUP2 MSTORE PUSH1 0x4 ADD PUSH1 0x40 MLOAD DUP1 SWAP2 SUB SWAP1 REVERT JUMPDEST DUP1 MLOAD PUSH1 0x0 SWAP1 PUSH2 0xD31 JUMPI POP PUSH1 0x0 SWAP2 SWAP1 POP JUMP JUMPDEST PUSH11 0x52B7D2DCC80CD2E4000000 PUSH2 0xD4A DUP4 PUSH1 0x20 ADD MLOAD PUSH2 0xE66 JUMP JUMPDEST PUSH1 0x40 DUP5 ADD MLOAD DUP5 MLOAD PUSH2 0xD5B SWAP2 SWAP1 PUSH2 0x10A5 JUMP JUMPDEST PUSH2 0xD65 SWAP2 SWAP1 PUSH2 0x10A5 JUMP JUMPDEST PUSH2 0xD6F SWAP2 SWAP1 PUSH2 0x1083 JUMP JUMPDEST SWAP3 SWAP2 POP POP JUMP JUMPDEST PUSH1 0x0 PUSH2 0x7D1 DUP3 DUP5 PUSH2 0x10A5 JUMP JUMPDEST PUSH1 0x0 PUSH2 0x7D1 DUP3 DUP5 PUSH2 0x1083 JUMP JUMPDEST PUSH1 0x0 PUSH2 0xD6F PUSH1 0x3C PUSH2 0xD9E DUP5 TIMESTAMP PUSH2 0x103E JUMP JUMPDEST SWAP1 PUSH2 0xD81 JUMP JUMPDEST PUSH1 0x0 PUSH4 0x1DFE200 PUSH2 0x3E8 PUSH1 0x2 SLOAD DUP5 PUSH2 0xDBC SWAP2 SWAP1 PUSH2 0x10A5 JUMP JUMPDEST PUSH2 0xD65 SWAP2 SWAP1 PUSH2 0x1083 JUMP JUMPDEST PUSH1 0xA SLOAD PUSH1 0x1 PUSH1 0x1 PUSH1 0xA0 SHL SUB AND CALLER EQ PUSH2 0xCEE JUMPI PUSH1 0x40 MLOAD PUSH4 0x15A678A9 PUSH1 0xE1 SHL DUP2 MSTORE PUSH1 0x4 ADD PUSH1 0x40 MLOAD DUP1 SWAP2 SUB SWAP1 REVERT JUMPDEST PUSH1 0x9 SLOAD PUSH1 0x1 PUSH1 0x1 PUSH1 0xA0 SHL SUB AND CALLER EQ PUSH2 0xCEE JUMPI PUSH1 0x40 MLOAD PUSH4 0x15A678A9 PUSH1 0xE1 SHL DUP2 MSTORE PUSH1 0x4 ADD PUSH1 0x40 MLOAD DUP1 SWAP2 SUB SWAP1 REVERT JUMPDEST PUSH1 0x0 DUP1 DUP4 PUSH2 0xE2F JUMPI POP PUSH1 0x0 SWAP1 POP DUP1 PUSH2 0xE5F JUMP JUMPDEST PUSH2 0xE47 DUP5 PUSH2 0xE42 PUSH2 0x52C DUP8 PUSH1 0x1 SLOAD PUSH2 0xD75 JUMP JUMPDEST PUSH2 0xEC9 JUMP JUMPDEST PUSH2 0xE5A DUP5 PUSH2 0xE42 PUSH2 0x52C DUP8 PUSH1 0x1 SLOAD PUSH2 0xD75 JUMP JUMPDEST SWAP2 POP SWAP2 POP JUMPDEST SWAP3 POP SWAP3 SWAP1 POP JUMP JUMPDEST PUSH1 0x0 PUSH2 0xD6F PUSH2 0xE75 DUP4 TIMESTAMP PUSH2 0x103E JUMP JUMPDEST PUSH2 0xE89 SWAP1 PUSH10 0xD3C21BCECCEDA1000000 PUSH2 0x10A5 JUMP JUMPDEST PUSH4 0x1E13380 PUSH1 0x40 MLOAD DUP1 PUSH1 0x40 ADD PUSH1 0x40 MSTORE DUP1 PUSH1 0x1D DUP2 MSTORE PUSH1 0x20 ADD PUSH32 0x4572726F722063616E6E6F74206469766964652074696D657374616D70000000 DUP2 MSTORE POP PUSH2 0xED5 JUMP JUMPDEST PUSH1 0x0 PUSH2 0x7D1 DUP3 DUP5 PUSH2 0x103E JUMP JUMPDEST PUSH1 0x0 DUP2 DUP4 PUSH2 0xEF6 JUMPI PUSH1 0x40 MLOAD PUSH3 0x461BCD PUSH1 0xE5 SHL DUP2 MSTORE PUSH1 0x4 ADD PUSH2 0x3D6 SWAP2 SWAP1 PUSH2 0x10C4 JUMP JUMPDEST POP DUP3 DUP5 DUP2 PUSH2 0xF06 JUMPI PUSH2 0xF06 PUSH2 0x106D JUMP JUMPDEST DIV SWAP5 SWAP4 POP POP POP POP JUMP JUMPDEST PUSH1 0x40 MLOAD DUP1 PUSH1 0x60 ADD PUSH1 0x40 MSTORE DUP1 PUSH1 0x0 DUP2 MSTORE PUSH1 0x20 ADD PUSH1 0x0 DUP2 MSTORE PUSH1 0x20 ADD PUSH2 0xF68 PUSH1 0x40 MLOAD DUP1 PUSH1 0xE0 ADD PUSH1 0x40 MSTORE DUP1 PUSH1 0x0 DUP2 MSTORE PUSH1 0x20 ADD PUSH1 0x0 DUP2 MSTORE PUSH1 0x20 ADD PUSH1 0x0 DUP2 MSTORE PUSH1 0x20 ADD PUSH1 0x0 DUP2 MSTORE PUSH1 0x20 ADD PUSH1 0x0 DUP2 MSTORE PUSH1 0x20 ADD PUSH1 0x0 DUP2 MSTORE PUSH1 0x20 ADD PUSH1 0x0 DUP2 MSTORE POP SWAP1 JUMP JUMPDEST SWAP1 MSTORE SWAP1 JUMP JUMPDEST DUP1 CALLDATALOAD PUSH1 0x1 PUSH1 0x1 PUSH1 0xA0 SHL SUB DUP2 AND DUP2 EQ PUSH2 0x7E1 JUMPI PUSH1 0x0 DUP1 REVERT JUMPDEST PUSH1 0x0 PUSH1 0x20 DUP3 DUP5 SUB SLT ISZERO PUSH2 0xF96 JUMPI PUSH1 0x0 DUP1 REVERT JUMPDEST PUSH2 0x7D1 DUP3 PUSH2 0xF6D JUMP JUMPDEST PUSH1 0x0 PUSH1 0x20 DUP3 DUP5 SUB SLT ISZERO PUSH2 0xFB1 JUMPI PUSH1 0x0 DUP1 REVERT JUMPDEST POP CALLDATALOAD SWAP2 SWAP1 POP JUMP JUMPDEST PUSH1 0x0 DUP1 PUSH1 0x0 DUP1 PUSH1 0x80 DUP6 DUP8 SUB SLT ISZERO PUSH2 0xFCE JUMPI PUSH1 0x0 DUP1 REVERT JUMPDEST PUSH2 0xFD7 DUP6 PUSH2 0xF6D JUMP JUMPDEST SWAP7 PUSH1 0x20 DUP7 ADD CALLDATALOAD SWAP7 POP PUSH1 0x40 DUP7 ADD CALLDATALOAD SWAP6 PUSH1 0x60 ADD CALLDATALOAD SWAP5 POP SWAP3 POP POP POP JUMP JUMPDEST PUSH1 0x20 DUP1 DUP3 MSTORE PUSH1 0x1F SWAP1 DUP3 ADD MSTORE PUSH32 0x5265656E7472616E637947756172643A207265656E7472616E742063616C6C00 PUSH1 0x40 DUP3 ADD MSTORE PUSH1 0x60 ADD SWAP1 JUMP JUMPDEST PUSH4 0x4E487B71 PUSH1 0xE0 SHL PUSH1 0x0 MSTORE PUSH1 0x11 PUSH1 0x4 MSTORE PUSH1 0x24 PUSH1 0x0 REVERT JUMPDEST PUSH1 0x0 DUP3 DUP3 LT ISZERO PUSH2 0x1050 JUMPI PUSH2 0x1050 PUSH2 0x1028 JUMP JUMPDEST POP SUB SWAP1 JUMP JUMPDEST PUSH1 0x0 DUP3 NOT DUP3 GT ISZERO PUSH2 0x1068 JUMPI PUSH2 0x1068 PUSH2 0x1028 JUMP JUMPDEST POP ADD SWAP1 JUMP JUMPDEST PUSH4 0x4E487B71 PUSH1 0xE0 SHL PUSH1 0x0 MSTORE PUSH1 0x12 PUSH1 0x4 MSTORE PUSH1 0x24 PUSH1 0x0 REVERT JUMPDEST PUSH1 0x0 DUP3 PUSH2 0x10A0 JUMPI PUSH4 0x4E487B71 PUSH1 0xE0 SHL PUSH1 0x0 MSTORE PUSH1 0x12 PUSH1 0x4 MSTORE PUSH1 0x24 PUSH1 0x0 REVERT JUMPDEST POP DIV SWAP1 JUMP JUMPDEST PUSH1 0x0 DUP2 PUSH1 0x0 NOT DIV DUP4 GT DUP3 ISZERO ISZERO AND ISZERO PUSH2 0x10BF JUMPI PUSH2 0x10BF PUSH2 0x1028 JUMP JUMPDEST POP MUL SWAP1 JUMP JUMPDEST PUSH1 0x0 PUSH1 0x20 DUP1 DUP4 MSTORE DUP4 MLOAD DUP1 DUP3 DUP6 ADD MSTORE PUSH1 0x0 JUMPDEST DUP2 DUP2 LT ISZERO PUSH2 0x10F1 JUMPI DUP6 DUP2 ADD DUP4 ADD MLOAD DUP6 DUP3 ADD PUSH1 0x40 ADD MSTORE DUP3 ADD PUSH2 0x10D5 JUMP JUMPDEST DUP2 DUP2 GT ISZERO PUSH2 0x1103 JUMPI PUSH1 0x0 PUSH1 0x40 DUP4 DUP8 ADD ADD MSTORE JUMPDEST POP PUSH1 0x1F ADD PUSH1 0x1F NOT AND SWAP3 SWAP1 SWAP3 ADD PUSH1 0x40 ADD SWAP4 SWAP3 POP POP POP JUMP INVALID LOG2 PUSH5 0x6970667358 0x22 SLT KECCAK256 0x2B ADDMOD GT 0xF8 0xB1 0xE7 0xC2 0x24 JUMPI 0xD3 0xE0 DELEGATECALL COINBASE MOD 0x4C DUP6 CALLDATASIZE SLOAD GT CALL SIGNEXTEND BASEFEE DUP11 0xBA 0x22 PUSH5 0x8124D87D58 0xD8 PUSH5 0x736F6C6343 STOP ADDMOD SIGNEXTEND STOP CALLER "
		},
		"gasEstimates": {
			"creation": {
				"codeDepositCost": "886200",
				"executionCost": "115723",
				"totalCost": "1001923"
			},
			"external": {
				"_owner()": "2448",
				"_talax()": "2360",
				"airdropRate()": "2318",
				"airdropSince()": "2428",
				"airdropWeek()": "4635",
				"changeAirdropPercentage(uint256)": "25679",
				"changePenaltyFee(uint256)": "25625",
				"changeTalaxAddress(address)": "26803",
				"claimAirdrop(address)": "infinite",
				"getVoters(address)": "6990",
				"getVotingResult()": "infinite",
				"hasStake()": "infinite",
				"retractVote()": "infinite",
				"stake(address,uint256,uint256,uint256)": "infinite",
				"stakingPenaltyRate()": "2339",
				"startAirdropSince()": "24546",
				"startVoting()": "82302",
				"stopVoting()": "infinite",
				"totalVoters()": "2340",
				"vote()": "infinite",
				"votedUsers(uint256)": "2505",
				"voters(address)": "2620",
				"withdrawStake(address)": "infinite"
			},
			"internal": {
				"_calculateAirdrop(uint256)": "infinite",
				"_calculateStakeReward(struct Stakable.Stake memory)": "infinite",
				"_calculateStakingDuration(uint256)": "infinite",
				"_calculateStakingWithPenalty(uint256,uint256)": "infinite",
				"_calculateWeek(uint256)": "193",
				"_checkVotingStatus()": "infinite",
				"_isVoter()": "infinite",
				"isOwner()": "infinite",
				"isTalax()": "infinite"
			}
		},
		"methodIdentifiers": {
			"_owner()": "b2bdfa7b",
			"_talax()": "5f348b4e",
			"airdropRate()": "8891cf0d",
			"airdropSince()": "b87da76d",
			"airdropWeek()": "cbb3e152",
			"changeAirdropPercentage(uint256)": "d5dbdf1b",
			"changePenaltyFee(uint256)": "8c63f97f",
			"changeTalaxAddress(address)": "1d77b00b",
			"claimAirdrop(address)": "65f8c6c5",
			"getVoters(address)": "2d15cc04",
			"getVotingResult()": "671d2b75",
			"hasStake()": "10486b6a",
			"retractVote()": "070c8b74",
			"stake(address,uint256,uint256,uint256)": "f93d4f8a",
			"stakingPenaltyRate()": "cb79c2e1",
			"startAirdropSince()": "71e3db87",
			"startVoting()": "1ec6b60a",
			"stopVoting()": "fab2f86b",
			"totalVoters()": "5f5300ff",
			"vote()": "632a9a52",
			"votedUsers(uint256)": "a143a5f2",
			"voters(address)": "a3ec138d",
			"withdrawStake(address)": "c23a5cea"
		}
	},
	"abi": [
		{
			"inputs": [],
			"stateMutability": "nonpayable",
			"type": "constructor"
		},
		{
			"inputs": [],
			"name": "Airdrop__claimableOnceAWeek",
			"type": "error"
		},
		{
			"inputs": [],
			"name": "Function__notAVoter",
			"type": "error"
		},
		{
			"inputs": [],
			"name": "Function__notAuthorized",
			"type": "error"
		},
		{
			"inputs": [],
			"name": "Function__votingNotAvailable",
			"type": "error"
		},
		{
			"inputs": [],
			"name": "Staking__airdropExceed20Percent",
			"type": "error"
		},
		{
			"inputs": [],
			"name": "Staking__cannotStakeNothing",
			"type": "error"
		},
		{
			"inputs": [],
			"name": "Staking__noStakingFound",
			"type": "error"
		},
		{
			"inputs": [],
			"name": "Staking__penaltyExceed3Percent",
			"type": "error"
		},
		{
			"inputs": [],
			"name": "Staking__userIsStaker",
			"type": "error"
		},
		{
			"inputs": [],
			"name": "Voting__alreadyVoted",
			"type": "error"
		},
		{
			"inputs": [],
			"name": "Voting__notEnoughVoters",
			"type": "error"
		},
		{
			"inputs": [],
			"name": "Voting__notYetVoted",
			"type": "error"
		},
		{
			"inputs": [],
			"name": "Voting__votingIsRunning",
			"type": "error"
		},
		{
			"anonymous": false,
			"inputs": [
				{
					"indexed": false,
					"internalType": "uint256",
					"name": "amount",
					"type": "uint256"
				}
			],
			"name": "AirdropChanged",
			"type": "event"
		},
		{
			"anonymous": false,
			"inputs": [
				{
					"indexed": false,
					"internalType": "uint256",
					"name": "amount",
					"type": "uint256"
				}
			],
			"name": "PenaltyChanged",
			"type": "event"
		},
		{
			"anonymous": false,
			"inputs": [
				{
					"indexed": true,
					"internalType": "address",
					"name": "user",
					"type": "address"
				},
				{
					"indexed": false,
					"internalType": "uint256",
					"name": "amount",
					"type": "uint256"
				},
				{
					"indexed": false,
					"internalType": "uint256",
					"name": "timestamp",
					"type": "uint256"
				},
				{
					"indexed": false,
					"internalType": "uint256",
					"name": "releaseTime",
					"type": "uint256"
				}
			],
			"name": "Staked",
			"type": "event"
		},
		{
			"inputs": [],
			"name": "_owner",
			"outputs": [
				{
					"internalType": "address",
					"name": "",
					"type": "address"
				}
			],
			"stateMutability": "view",
			"type": "function"
		},
		{
			"inputs": [],
			"name": "_talax",
			"outputs": [
				{
					"internalType": "address",
					"name": "",
					"type": "address"
				}
			],
			"stateMutability": "view",
			"type": "function"
		},
		{
			"inputs": [],
			"name": "airdropRate",
			"outputs": [
				{
					"internalType": "uint256",
					"name": "",
					"type": "uint256"
				}
			],
			"stateMutability": "view",
			"type": "function"
		},
		{
			"inputs": [],
			"name": "airdropSince",
			"outputs": [
				{
					"internalType": "uint256",
					"name": "",
					"type": "uint256"
				}
			],
			"stateMutability": "view",
			"type": "function"
		},
		{
			"inputs": [],
			"name": "airdropWeek",
			"outputs": [
				{
					"internalType": "uint256",
					"name": "",
					"type": "uint256"
				}
			],
			"stateMutability": "view",
			"type": "function"
		},
		{
			"inputs": [
				{
					"internalType": "uint256",
					"name": "amount",
					"type": "uint256"
				}
			],
			"name": "changeAirdropPercentage",
			"outputs": [],
			"stateMutability": "nonpayable",
			"type": "function"
		},
		{
			"inputs": [
				{
					"internalType": "uint256",
					"name": "amount",
					"type": "uint256"
				}
			],
			"name": "changePenaltyFee",
			"outputs": [],
			"stateMutability": "nonpayable",
			"type": "function"
		},
		{
			"inputs": [
				{
					"internalType": "address",
					"name": "talax",
					"type": "address"
				}
			],
			"name": "changeTalaxAddress",
			"outputs": [],
			"stateMutability": "nonpayable",
			"type": "function"
		},
		{
			"inputs": [
				{
					"internalType": "address",
					"name": "user",
					"type": "address"
				}
			],
			"name": "claimAirdrop",
			"outputs": [
				{
					"internalType": "uint256",
					"name": "",
					"type": "uint256"
				}
			],
			"stateMutability": "view",
			"type": "function"
		},
		{
			"inputs": [
				{
					"internalType": "address",
					"name": "user",
					"type": "address"
				}
			],
			"name": "getVoters",
			"outputs": [
				{
					"internalType": "bool",
					"name": "",
					"type": "bool"
				},
				{
					"internalType": "bool",
					"name": "",
					"type": "bool"
				}
			],
			"stateMutability": "view",
			"type": "function"
		},
		{
			"inputs": [],
			"name": "getVotingResult",
			"outputs": [
				{
					"internalType": "bool",
					"name": "",
					"type": "bool"
				}
			],
			"stateMutability": "view",
			"type": "function"
		},
		{
			"inputs": [],
			"name": "hasStake",
			"outputs": [
				{
					"components": [
						{
							"internalType": "uint256",
							"name": "total_amount",
							"type": "uint256"
						},
						{
							"internalType": "uint256",
							"name": "penalty",
							"type": "uint256"
						},
						{
							"components": [
								{
									"internalType": "uint256",
									"name": "amount",
									"type": "uint256"
								},
								{
									"internalType": "uint256",
									"name": "since",
									"type": "uint256"
								},
								{
									"internalType": "uint256",
									"name": "rewardAPY",
									"type": "uint256"
								},
								{
									"internalType": "uint256",
									"name": "releaseTime",
									"type": "uint256"
								},
								{
									"internalType": "uint256",
									"name": "claimable",
									"type": "uint256"
								},
								{
									"internalType": "uint256",
									"name": "claimableAirdrop",
									"type": "uint256"
								},
								{
									"internalType": "uint256",
									"name": "latestClaimDrop",
									"type": "uint256"
								}
							],
							"internalType": "struct Stakable.Stake",
							"name": "stake",
							"type": "tuple"
						}
					],
					"internalType": "struct Stakable.StakingSummary",
					"name": "",
					"type": "tuple"
				}
			],
			"stateMutability": "view",
			"type": "function"
		},
		{
			"inputs": [],
			"name": "retractVote",
			"outputs": [],
			"stateMutability": "nonpayable",
			"type": "function"
		},
		{
			"inputs": [
				{
					"internalType": "address",
					"name": "user",
					"type": "address"
				},
				{
					"internalType": "uint256",
					"name": "amount",
					"type": "uint256"
				},
				{
					"internalType": "uint256",
					"name": "stakePeriod",
					"type": "uint256"
				},
				{
					"internalType": "uint256",
					"name": "rewardRate",
					"type": "uint256"
				}
			],
			"name": "stake",
			"outputs": [],
			"stateMutability": "nonpayable",
			"type": "function"
		},
		{
			"inputs": [],
			"name": "stakingPenaltyRate",
			"outputs": [
				{
					"internalType": "uint256",
					"name": "",
					"type": "uint256"
				}
			],
			"stateMutability": "view",
			"type": "function"
		},
		{
			"inputs": [],
			"name": "startAirdropSince",
			"outputs": [],
			"stateMutability": "nonpayable",
			"type": "function"
		},
		{
			"inputs": [],
			"name": "startVoting",
			"outputs": [],
			"stateMutability": "nonpayable",
			"type": "function"
		},
		{
			"inputs": [],
			"name": "stopVoting",
			"outputs": [],
			"stateMutability": "nonpayable",
			"type": "function"
		},
		{
			"inputs": [],
			"name": "totalVoters",
			"outputs": [
				{
					"internalType": "uint256",
					"name": "",
					"type": "uint256"
				}
			],
			"stateMutability": "view",
			"type": "function"
		},
		{
			"inputs": [],
			"name": "vote",
			"outputs": [],
			"stateMutability": "nonpayable",
			"type": "function"
		},
		{
			"inputs": [
				{
					"internalType": "uint256",
					"name": "",
					"type": "uint256"
				}
			],
			"name": "votedUsers",
			"outputs": [
				{
					"internalType": "uint256",
					"name": "",
					"type": "uint256"
				}
			],
			"stateMutability": "view",
			"type": "function"
		},
		{
			"inputs": [
				{
					"internalType": "address",
					"name": "",
					"type": "address"
				}
			],
			"name": "voters",
			"outputs": [
				{
					"internalType": "bool",
					"name": "votingRight",
					"type": "bool"
				}
			],
			"stateMutability": "view",
			"type": "function"
		},
		{
			"inputs": [
				{
					"internalType": "address",
					"name": "user",
					"type": "address"
				}
			],
			"name": "withdrawStake",
			"outputs": [
				{
					"internalType": "uint256",
					"name": "",
					"type": "uint256"
				},
				{
					"internalType": "uint256",
					"name": "",
					"type": "uint256"
				}
			],
			"stateMutability": "nonpayable",
			"type": "function"
		}
	]
}