{
	"data": {
		"bytecode": {
			"linkReferences": {},
			"object": "608060405234801561001057600080fd5b50600f60005560506001556105f38061002a6000396000f3fe608060405234801561001057600080fd5b50600436106100365760003560e01c80633dc10ad41461003b578063e73e14bf14610051575b600080fd5b6000546040519081526020015b60405180910390f35b61006461005f366004610496565b6100e9565b60405161004891906000610120820190508251825260208301516020830152604083015173ffffffffffffffffffffffffffffffffffffffff81511660408401526020810151606084015260408101516080840152606081015160a0840152608081015160c084015260a081015160e084015260c08101516101008401525092915050565b6100f1610422565b60408051606080820183526000808352602080840182905273ffffffffffffffffffffffffffffffffffffffff8088168352600280835292869020865160e081018852815490921682526001810154928201928352928301548187015260038301549381019390935260048201546080840152600582015460a084015260069091015460c08301529282015290516101d05760405162461bcd60e51b815260206004820152600e60248201527f4e6f207374616b6520666f756e6400000000000000000000000000000000000060448201526064015b60405180910390fd5b604081015160208101516000916101e691610262565b9050600042836040015160c0015111156102235760008061020f856040015160200151856102be565b909250905061021e81836104e2565b925050505b60006102368460400151602001516102fa565b604085018051608001919091528051606001939093525060208084019190915290510151815292915050565b6000826020015160001415610279575060006102b8565b6a52b7d2dcc80cd2e4000000610292846040015161031e565b60a08501516102a190856104fa565b6102ab91906104fa565b6102b5919061052f565b90505b92915050565b60008060006102da6102d2866000546103d0565b6103e86103dc565b905060006102ed6102d2866000546103d0565b9196919550909350505050565b60008060646001548461030d91906104fa565b610317919061052f565b9392505050565b600080821161036f5760405162461bcd60e51b815260206004820152601160248201527f4572726f722074696d657374616d70203000000000000000000000000000000060448201526064016101c7565b6102b861037c8342610551565b6103909069d3c21bcecceda10000006104fa565b6301e133806040518060400160405280601d81526020017f4572726f722063616e6e6f74206469766964652074696d657374616d700000008152506103e8565b60006102b582846104fa565b60006102b5828461052f565b600081836104095760405162461bcd60e51b81526004016101c79190610568565b5082848161041957610419610519565b04949350505050565b604051806060016040528060008152602001600081526020016104916040518060e00160405280600073ffffffffffffffffffffffffffffffffffffffff1681526020016000815260200160008152602001600081526020016000815260200160008152602001600081525090565b905290565b6000602082840312156104a857600080fd5b813573ffffffffffffffffffffffffffffffffffffffff8116811461031757600080fd5b634e487b7160e01b600052601160045260246000fd5b600082198211156104f5576104f56104cc565b500190565b6000816000190483118215151615610514576105146104cc565b500290565b634e487b7160e01b600052601260045260246000fd5b60008261054c57634e487b7160e01b600052601260045260246000fd5b500490565b600082821015610563576105636104cc565b500390565b600060208083528351808285015260005b8181101561059557858101830151858201604001528201610579565b818111156105a7576000604083870101525b50601f01601f191692909201604001939250505056fea2646970667358221220e1392e2da2cb73a7498badd04364aff628a08c8f934d729e1822c5bd4185e11764736f6c634300080b0033",
			"opcodes": "PUSH1 0x80 PUSH1 0x40 MSTORE CALLVALUE DUP1 ISZERO PUSH2 0x10 JUMPI PUSH1 0x0 DUP1 REVERT JUMPDEST POP PUSH1 0xF PUSH1 0x0 SSTORE PUSH1 0x50 PUSH1 0x1 SSTORE PUSH2 0x5F3 DUP1 PUSH2 0x2A PUSH1 0x0 CODECOPY PUSH1 0x0 RETURN INVALID PUSH1 0x80 PUSH1 0x40 MSTORE CALLVALUE DUP1 ISZERO PUSH2 0x10 JUMPI PUSH1 0x0 DUP1 REVERT JUMPDEST POP PUSH1 0x4 CALLDATASIZE LT PUSH2 0x36 JUMPI PUSH1 0x0 CALLDATALOAD PUSH1 0xE0 SHR DUP1 PUSH4 0x3DC10AD4 EQ PUSH2 0x3B JUMPI DUP1 PUSH4 0xE73E14BF EQ PUSH2 0x51 JUMPI JUMPDEST PUSH1 0x0 DUP1 REVERT JUMPDEST PUSH1 0x0 SLOAD PUSH1 0x40 MLOAD SWAP1 DUP2 MSTORE PUSH1 0x20 ADD JUMPDEST PUSH1 0x40 MLOAD DUP1 SWAP2 SUB SWAP1 RETURN JUMPDEST PUSH2 0x64 PUSH2 0x5F CALLDATASIZE PUSH1 0x4 PUSH2 0x496 JUMP JUMPDEST PUSH2 0xE9 JUMP JUMPDEST PUSH1 0x40 MLOAD PUSH2 0x48 SWAP2 SWAP1 PUSH1 0x0 PUSH2 0x120 DUP3 ADD SWAP1 POP DUP3 MLOAD DUP3 MSTORE PUSH1 0x20 DUP4 ADD MLOAD PUSH1 0x20 DUP4 ADD MSTORE PUSH1 0x40 DUP4 ADD MLOAD PUSH20 0xFFFFFFFFFFFFFFFFFFFFFFFFFFFFFFFFFFFFFFFF DUP2 MLOAD AND PUSH1 0x40 DUP5 ADD MSTORE PUSH1 0x20 DUP2 ADD MLOAD PUSH1 0x60 DUP5 ADD MSTORE PUSH1 0x40 DUP2 ADD MLOAD PUSH1 0x80 DUP5 ADD MSTORE PUSH1 0x60 DUP2 ADD MLOAD PUSH1 0xA0 DUP5 ADD MSTORE PUSH1 0x80 DUP2 ADD MLOAD PUSH1 0xC0 DUP5 ADD MSTORE PUSH1 0xA0 DUP2 ADD MLOAD PUSH1 0xE0 DUP5 ADD MSTORE PUSH1 0xC0 DUP2 ADD MLOAD PUSH2 0x100 DUP5 ADD MSTORE POP SWAP3 SWAP2 POP POP JUMP JUMPDEST PUSH2 0xF1 PUSH2 0x422 JUMP JUMPDEST PUSH1 0x40 DUP1 MLOAD PUSH1 0x60 DUP1 DUP3 ADD DUP4 MSTORE PUSH1 0x0 DUP1 DUP4 MSTORE PUSH1 0x20 DUP1 DUP5 ADD DUP3 SWAP1 MSTORE PUSH20 0xFFFFFFFFFFFFFFFFFFFFFFFFFFFFFFFFFFFFFFFF DUP1 DUP9 AND DUP4 MSTORE PUSH1 0x2 DUP1 DUP4 MSTORE SWAP3 DUP7 SWAP1 KECCAK256 DUP7 MLOAD PUSH1 0xE0 DUP2 ADD DUP9 MSTORE DUP2 SLOAD SWAP1 SWAP3 AND DUP3 MSTORE PUSH1 0x1 DUP2 ADD SLOAD SWAP3 DUP3 ADD SWAP3 DUP4 MSTORE SWAP3 DUP4 ADD SLOAD DUP2 DUP8 ADD MSTORE PUSH1 0x3 DUP4 ADD SLOAD SWAP4 DUP2 ADD SWAP4 SWAP1 SWAP4 MSTORE PUSH1 0x4 DUP3 ADD SLOAD PUSH1 0x80 DUP5 ADD MSTORE PUSH1 0x5 DUP3 ADD SLOAD PUSH1 0xA0 DUP5 ADD MSTORE PUSH1 0x6 SWAP1 SWAP2 ADD SLOAD PUSH1 0xC0 DUP4 ADD MSTORE SWAP3 DUP3 ADD MSTORE SWAP1 MLOAD PUSH2 0x1D0 JUMPI PUSH1 0x40 MLOAD PUSH3 0x461BCD PUSH1 0xE5 SHL DUP2 MSTORE PUSH1 0x20 PUSH1 0x4 DUP3 ADD MSTORE PUSH1 0xE PUSH1 0x24 DUP3 ADD MSTORE PUSH32 0x4E6F207374616B6520666F756E64000000000000000000000000000000000000 PUSH1 0x44 DUP3 ADD MSTORE PUSH1 0x64 ADD JUMPDEST PUSH1 0x40 MLOAD DUP1 SWAP2 SUB SWAP1 REVERT JUMPDEST PUSH1 0x40 DUP2 ADD MLOAD PUSH1 0x20 DUP2 ADD MLOAD PUSH1 0x0 SWAP2 PUSH2 0x1E6 SWAP2 PUSH2 0x262 JUMP JUMPDEST SWAP1 POP PUSH1 0x0 TIMESTAMP DUP4 PUSH1 0x40 ADD MLOAD PUSH1 0xC0 ADD MLOAD GT ISZERO PUSH2 0x223 JUMPI PUSH1 0x0 DUP1 PUSH2 0x20F DUP6 PUSH1 0x40 ADD MLOAD PUSH1 0x20 ADD MLOAD DUP6 PUSH2 0x2BE JUMP JUMPDEST SWAP1 SWAP3 POP SWAP1 POP PUSH2 0x21E DUP2 DUP4 PUSH2 0x4E2 JUMP JUMPDEST SWAP3 POP POP POP JUMPDEST PUSH1 0x0 PUSH2 0x236 DUP5 PUSH1 0x40 ADD MLOAD PUSH1 0x20 ADD MLOAD PUSH2 0x2FA JUMP JUMPDEST PUSH1 0x40 DUP6 ADD DUP1 MLOAD PUSH1 0x80 ADD SWAP2 SWAP1 SWAP2 MSTORE DUP1 MLOAD PUSH1 0x60 ADD SWAP4 SWAP1 SWAP4 MSTORE POP PUSH1 0x20 DUP1 DUP5 ADD SWAP2 SWAP1 SWAP2 MSTORE SWAP1 MLOAD ADD MLOAD DUP2 MSTORE SWAP3 SWAP2 POP POP JUMP JUMPDEST PUSH1 0x0 DUP3 PUSH1 0x20 ADD MLOAD PUSH1 0x0 EQ ISZERO PUSH2 0x279 JUMPI POP PUSH1 0x0 PUSH2 0x2B8 JUMP JUMPDEST PUSH11 0x52B7D2DCC80CD2E4000000 PUSH2 0x292 DUP5 PUSH1 0x40 ADD MLOAD PUSH2 0x31E JUMP JUMPDEST PUSH1 0xA0 DUP6 ADD MLOAD PUSH2 0x2A1 SWAP1 DUP6 PUSH2 0x4FA JUMP JUMPDEST PUSH2 0x2AB SWAP2 SWAP1 PUSH2 0x4FA JUMP JUMPDEST PUSH2 0x2B5 SWAP2 SWAP1 PUSH2 0x52F JUMP JUMPDEST SWAP1 POP JUMPDEST SWAP3 SWAP2 POP POP JUMP JUMPDEST PUSH1 0x0 DUP1 PUSH1 0x0 PUSH2 0x2DA PUSH2 0x2D2 DUP7 PUSH1 0x0 SLOAD PUSH2 0x3D0 JUMP JUMPDEST PUSH2 0x3E8 PUSH2 0x3DC JUMP JUMPDEST SWAP1 POP PUSH1 0x0 PUSH2 0x2ED PUSH2 0x2D2 DUP7 PUSH1 0x0 SLOAD PUSH2 0x3D0 JUMP JUMPDEST SWAP2 SWAP7 SWAP2 SWAP6 POP SWAP1 SWAP4 POP POP POP POP JUMP JUMPDEST PUSH1 0x0 DUP1 PUSH1 0x64 PUSH1 0x1 SLOAD DUP5 PUSH2 0x30D SWAP2 SWAP1 PUSH2 0x4FA JUMP JUMPDEST PUSH2 0x317 SWAP2 SWAP1 PUSH2 0x52F JUMP JUMPDEST SWAP4 SWAP3 POP POP POP JUMP JUMPDEST PUSH1 0x0 DUP1 DUP3 GT PUSH2 0x36F JUMPI PUSH1 0x40 MLOAD PUSH3 0x461BCD PUSH1 0xE5 SHL DUP2 MSTORE PUSH1 0x20 PUSH1 0x4 DUP3 ADD MSTORE PUSH1 0x11 PUSH1 0x24 DUP3 ADD MSTORE PUSH32 0x4572726F722074696D657374616D702030000000000000000000000000000000 PUSH1 0x44 DUP3 ADD MSTORE PUSH1 0x64 ADD PUSH2 0x1C7 JUMP JUMPDEST PUSH2 0x2B8 PUSH2 0x37C DUP4 TIMESTAMP PUSH2 0x551 JUMP JUMPDEST PUSH2 0x390 SWAP1 PUSH10 0xD3C21BCECCEDA1000000 PUSH2 0x4FA JUMP JUMPDEST PUSH4 0x1E13380 PUSH1 0x40 MLOAD DUP1 PUSH1 0x40 ADD PUSH1 0x40 MSTORE DUP1 PUSH1 0x1D DUP2 MSTORE PUSH1 0x20 ADD PUSH32 0x4572726F722063616E6E6F74206469766964652074696D657374616D70000000 DUP2 MSTORE POP PUSH2 0x3E8 JUMP JUMPDEST PUSH1 0x0 PUSH2 0x2B5 DUP3 DUP5 PUSH2 0x4FA JUMP JUMPDEST PUSH1 0x0 PUSH2 0x2B5 DUP3 DUP5 PUSH2 0x52F JUMP JUMPDEST PUSH1 0x0 DUP2 DUP4 PUSH2 0x409 JUMPI PUSH1 0x40 MLOAD PUSH3 0x461BCD PUSH1 0xE5 SHL DUP2 MSTORE PUSH1 0x4 ADD PUSH2 0x1C7 SWAP2 SWAP1 PUSH2 0x568 JUMP JUMPDEST POP DUP3 DUP5 DUP2 PUSH2 0x419 JUMPI PUSH2 0x419 PUSH2 0x519 JUMP JUMPDEST DIV SWAP5 SWAP4 POP POP POP POP JUMP JUMPDEST PUSH1 0x40 MLOAD DUP1 PUSH1 0x60 ADD PUSH1 0x40 MSTORE DUP1 PUSH1 0x0 DUP2 MSTORE PUSH1 0x20 ADD PUSH1 0x0 DUP2 MSTORE PUSH1 0x20 ADD PUSH2 0x491 PUSH1 0x40 MLOAD DUP1 PUSH1 0xE0 ADD PUSH1 0x40 MSTORE DUP1 PUSH1 0x0 PUSH20 0xFFFFFFFFFFFFFFFFFFFFFFFFFFFFFFFFFFFFFFFF AND DUP2 MSTORE PUSH1 0x20 ADD PUSH1 0x0 DUP2 MSTORE PUSH1 0x20 ADD PUSH1 0x0 DUP2 MSTORE PUSH1 0x20 ADD PUSH1 0x0 DUP2 MSTORE PUSH1 0x20 ADD PUSH1 0x0 DUP2 MSTORE PUSH1 0x20 ADD PUSH1 0x0 DUP2 MSTORE PUSH1 0x20 ADD PUSH1 0x0 DUP2 MSTORE POP SWAP1 JUMP JUMPDEST SWAP1 MSTORE SWAP1 JUMP JUMPDEST PUSH1 0x0 PUSH1 0x20 DUP3 DUP5 SUB SLT ISZERO PUSH2 0x4A8 JUMPI PUSH1 0x0 DUP1 REVERT JUMPDEST DUP2 CALLDATALOAD PUSH20 0xFFFFFFFFFFFFFFFFFFFFFFFFFFFFFFFFFFFFFFFF DUP2 AND DUP2 EQ PUSH2 0x317 JUMPI PUSH1 0x0 DUP1 REVERT JUMPDEST PUSH4 0x4E487B71 PUSH1 0xE0 SHL PUSH1 0x0 MSTORE PUSH1 0x11 PUSH1 0x4 MSTORE PUSH1 0x24 PUSH1 0x0 REVERT JUMPDEST PUSH1 0x0 DUP3 NOT DUP3 GT ISZERO PUSH2 0x4F5 JUMPI PUSH2 0x4F5 PUSH2 0x4CC JUMP JUMPDEST POP ADD SWAP1 JUMP JUMPDEST PUSH1 0x0 DUP2 PUSH1 0x0 NOT DIV DUP4 GT DUP3 ISZERO ISZERO AND ISZERO PUSH2 0x514 JUMPI PUSH2 0x514 PUSH2 0x4CC JUMP JUMPDEST POP MUL SWAP1 JUMP JUMPDEST PUSH4 0x4E487B71 PUSH1 0xE0 SHL PUSH1 0x0 MSTORE PUSH1 0x12 PUSH1 0x4 MSTORE PUSH1 0x24 PUSH1 0x0 REVERT JUMPDEST PUSH1 0x0 DUP3 PUSH2 0x54C JUMPI PUSH4 0x4E487B71 PUSH1 0xE0 SHL PUSH1 0x0 MSTORE PUSH1 0x12 PUSH1 0x4 MSTORE PUSH1 0x24 PUSH1 0x0 REVERT JUMPDEST POP DIV SWAP1 JUMP JUMPDEST PUSH1 0x0 DUP3 DUP3 LT ISZERO PUSH2 0x563 JUMPI PUSH2 0x563 PUSH2 0x4CC JUMP JUMPDEST POP SUB SWAP1 JUMP JUMPDEST PUSH1 0x0 PUSH1 0x20 DUP1 DUP4 MSTORE DUP4 MLOAD DUP1 DUP3 DUP6 ADD MSTORE PUSH1 0x0 JUMPDEST DUP2 DUP2 LT ISZERO PUSH2 0x595 JUMPI DUP6 DUP2 ADD DUP4 ADD MLOAD DUP6 DUP3 ADD PUSH1 0x40 ADD MSTORE DUP3 ADD PUSH2 0x579 JUMP JUMPDEST DUP2 DUP2 GT ISZERO PUSH2 0x5A7 JUMPI PUSH1 0x0 PUSH1 0x40 DUP4 DUP8 ADD ADD MSTORE JUMPDEST POP PUSH1 0x1F ADD PUSH1 0x1F NOT AND SWAP3 SWAP1 SWAP3 ADD PUSH1 0x40 ADD SWAP4 SWAP3 POP POP POP JUMP INVALID LOG2 PUSH5 0x6970667358 0x22 SLT KECCAK256 0xE1 CODECOPY 0x2E 0x2D LOG2 0xCB PUSH20 0xA7498BADD04364AFF628A08C8F934D729E1822C5 0xBD COINBASE DUP6 0xE1 OR PUSH5 0x736F6C6343 STOP ADDMOD SIGNEXTEND STOP CALLER "
		},
		"gasEstimates": {
			"creation": {
				"codeDepositCost": "304600",
				"executionCost": "44555",
				"totalCost": "349155"
			},
			"external": {
				"hasStake(address)": "infinite",
				"penaltyFee()": "2247"
			},
			"internal": {
				"_changeAirdropPercentage(uint256)": "infinite",
				"_changePenaltyFee(uint256)": "infinite",
				"_claimAirdrop(address)": "infinite",
				"_stake(address,uint256,uint256,uint256)": "infinite",
				"_withdrawStake(address,uint256)": "infinite",
				"calculateAirdrop(uint256)": "2288",
				"calculatePenalty(uint256,uint256)": "infinite",
				"calculateStakeReward(struct Stakable.Stake memory,uint256)": "infinite",
				"calculateStakingDuration(uint256)": "infinite",
				"calculateStakingWithPenalty(uint256,uint256)": "infinite"
			}
		},
		"methodIdentifiers": {
			"hasStake(address)": "e73e14bf",
			"penaltyFee()": "3dc10ad4"
		}
	},
	"abi": [
		{
			"inputs": [],
			"stateMutability": "nonpayable",
			"type": "constructor"
		},
		{
			"anonymous": false,
			"inputs": [
				{
					"indexed": false,
					"internalType": "uint256",
					"name": "amount",
					"type": "uint256"
				}
			],
			"name": "AirdropChanged",
			"type": "event"
		},
		{
			"anonymous": false,
			"inputs": [
				{
					"indexed": false,
					"internalType": "uint256",
					"name": "amount",
					"type": "uint256"
				}
			],
			"name": "PenaltyChanged",
			"type": "event"
		},
		{
			"anonymous": false,
			"inputs": [
				{
					"indexed": true,
					"internalType": "address",
					"name": "user",
					"type": "address"
				},
				{
					"indexed": false,
					"internalType": "uint256",
					"name": "amount",
					"type": "uint256"
				},
				{
					"indexed": false,
					"internalType": "uint256",
					"name": "timestamp",
					"type": "uint256"
				},
				{
					"indexed": false,
					"internalType": "uint256",
					"name": "releaseTime",
					"type": "uint256"
				}
			],
			"name": "Staked",
			"type": "event"
		},
		{
			"inputs": [
				{
					"internalType": "address",
					"name": "_staker",
					"type": "address"
				}
			],
			"name": "hasStake",
			"outputs": [
				{
					"components": [
						{
							"internalType": "uint256",
							"name": "total_amount",
							"type": "uint256"
						},
						{
							"internalType": "uint256",
							"name": "penalty",
							"type": "uint256"
						},
						{
							"components": [
								{
									"internalType": "address",
									"name": "user",
									"type": "address"
								},
								{
									"internalType": "uint256",
									"name": "amount",
									"type": "uint256"
								},
								{
									"internalType": "uint256",
									"name": "since",
									"type": "uint256"
								},
								{
									"internalType": "uint256",
									"name": "claimable",
									"type": "uint256"
								},
								{
									"internalType": "uint256",
									"name": "claimable_airdrop",
									"type": "uint256"
								},
								{
									"internalType": "uint256",
									"name": "rewardAPY",
									"type": "uint256"
								},
								{
									"internalType": "uint256",
									"name": "releaseTime",
									"type": "uint256"
								}
							],
							"internalType": "struct Stakable.Stake",
							"name": "stake",
							"type": "tuple"
						}
					],
					"internalType": "struct Stakable.StakingSummary",
					"name": "",
					"type": "tuple"
				}
			],
			"stateMutability": "view",
			"type": "function"
		},
		{
			"inputs": [],
			"name": "penaltyFee",
			"outputs": [
				{
					"internalType": "uint256",
					"name": "",
					"type": "uint256"
				}
			],
			"stateMutability": "view",
			"type": "function"
		}
	]
}