{
	"data": {
		"bytecode": {
			"linkReferences": {},
			"object": "60806040523480156200001157600080fd5b506040516200215f3803806200215f833981810160405281019062000037919062000244565b60016000819055506200005f620000536200010c60201b60201c565b6200011460201b60201c565b600f600381905550605060048190555080600660016101000a81548173ffffffffffffffffffffffffffffffffffffffff021916908373ffffffffffffffffffffffffffffffffffffffff1602179055506006600260006276a70081526020019081526020016000208190555060076002600062ed4e008152602001908152602001600020819055506008600260006301e133808152602001908152602001600020819055505062000276565b600033905090565b6000600160009054906101000a900473ffffffffffffffffffffffffffffffffffffffff16905081600160006101000a81548173ffffffffffffffffffffffffffffffffffffffff021916908373ffffffffffffffffffffffffffffffffffffffff1602179055508173ffffffffffffffffffffffffffffffffffffffff168173ffffffffffffffffffffffffffffffffffffffff167f8be0079c531659141344cd1fd0a4f28419497f9722a3daafe3b4186f6b6457e060405160405180910390a35050565b600080fd5b600073ffffffffffffffffffffffffffffffffffffffff82169050919050565b60006200020c82620001df565b9050919050565b6200021e81620001ff565b81146200022a57600080fd5b50565b6000815190506200023e8162000213565b92915050565b6000602082840312156200025d576200025c620001da565b5b60006200026d848285016200022d565b91505092915050565b611ed980620002866000396000f3fe608060405234801561001057600080fd5b506004361061010b5760003560e01c80638da5cb5b116100a2578063bed9d86111610071578063bed9d8611461025e578063cb79c2e114610268578063d2a569c314610286578063d5dbdf1b14610290578063f2fde38b146102ac5761010b565b80638da5cb5b146101d4578063adb61832146101f2578063b5d9df8314610210578063b87da76d146102405761010b565b80637b0472f0116100de5780637b0472f0146101605780638891cf0d1461017c5780638c63f97f1461019a5780638c8e8fee146101b65761010b565b806310486b6a146101105780632cf1a5fb1461012e5780635b88349d1461014c578063715018a614610156575b600080fd5b6101186102c8565b604051610125919061165e565b60405180910390f35b61013661049e565b6040516101439190611695565b60405180910390f35b6101546104b1565b005b61015e6105df565b005b61017a600480360381019061017591906116e1565b610667565b005b6101846108f8565b6040516101919190611730565b60405180910390f35b6101b460048036038101906101af919061174b565b6108fe565b005b6101be6109f6565b6040516101cb91906117b9565b60405180910390f35b6101dc610a1c565b6040516101e991906117b9565b60405180910390f35b6101fa610a46565b6040516102079190611730565b60405180910390f35b61022a6004803603810190610225919061174b565b610a4e565b6040516102379190611730565b60405180910390f35b610248610a71565b6040516102559190611730565b60405180910390f35b610266610a77565b005b610270610cc8565b60405161027d9190611730565b60405180910390f35b61028e610cce565b005b6102aa60048036038101906102a5919061174b565b610d6e565b005b6102c660048036038101906102c19190611800565b610e66565b005b6102d0611510565b6000600760003373ffffffffffffffffffffffffffffffffffffffff1673ffffffffffffffffffffffffffffffffffffffff1681526020019081526020016000206040518060e001604052908160008201548152602001600182015481526020016002820154815260200160038201548152602001600482015481526020016005820154815260200160068201548152505090506000816000015114156103a3576040517fb018f08700000000000000000000000000000000000000000000000000000000815260040160405180910390fd5b60006040518060600160405280600081526020016000815260200183815250905060006103cf83610f5e565b905042826040015160600151111561042f576103e8600354826103f2919061185c565b6103fc91906118e5565b6103e86003548560000151610411919061185c565b61041b91906118e5565b6104259190611916565b8260200181815250505b600061043e8460c00151610a4e565b11156104695760006104538460000151610fa8565b905080836040015160a001818152505050610479565b6000826040015160a00181815250505b8082604001516080018181525050826000015182600001818152505081935050505090565b600660009054906101000a900460ff1681565b6104b9610fdb565b6000600760003373ffffffffffffffffffffffffffffffffffffffff1673ffffffffffffffffffffffffffffffffffffffff168152602001908152602001600020905060008160000154141561053b576040517fb018f08700000000000000000000000000000000000000000000000000000000815260040160405180910390fd5b6000816000015411156105dc5760006105578260060154610a4e565b141561058f576040517fdd8456cc00000000000000000000000000000000000000000000000000000000815260040160405180910390fd5b600081600501819055504281600601819055506105db600660019054906101000a900473ffffffffffffffffffffffffffffffffffffffff16336105d68460000154610fa8565b611023565b5b50565b6105e76110a9565b73ffffffffffffffffffffffffffffffffffffffff16610605610a1c565b73ffffffffffffffffffffffffffffffffffffffff161461065b576040517f08c379a0000000000000000000000000000000000000000000000000000000008152600401610652906119c9565b60405180910390fd5b61066560006110b1565b565b600260005414156106ad576040517f08c379a00000000000000000000000000000000000000000000000000000000081526004016106a490611a35565b60405180910390fd5b60026000819055506000600760003373ffffffffffffffffffffffffffffffffffffffff1673ffffffffffffffffffffffffffffffffffffffff1681526020019081526020016000206000015414610731576040517f04462d2700000000000000000000000000000000000000000000000000000000815260040160405180910390fd5b60006002600083815260200190815260200160002054141561077f576040517f95377be400000000000000000000000000000000000000000000000000000000815260040160405180910390fd5b60004290506040518060e001604052808481526020018281526020016002600085815260200190815260200160002054815260200182846107c09190611916565b815260200160008152602001600081526020016000815250600760003373ffffffffffffffffffffffffffffffffffffffff1673ffffffffffffffffffffffffffffffffffffffff168152602001908152602001600020600082015181600001556020820151816001015560408201518160020155606082015181600301556080820151816004015560a0820151816005015560c0820151816006015590505061088e600660019054906101000a900473ffffffffffffffffffffffffffffffffffffffff16333086611177565b3373ffffffffffffffffffffffffffffffffffffffff167fb4caaf29adda3eefee3ad552a8e85058589bf834c7466cae4ee58787f70589ed848384866108d49190611916565b6040516108e393929190611a55565b60405180910390a25060016000819055505050565b60045481565b6109066110a9565b73ffffffffffffffffffffffffffffffffffffffff16610924610a1c565b73ffffffffffffffffffffffffffffffffffffffff161461097a576040517f08c379a0000000000000000000000000000000000000000000000000000000008152600401610971906119c9565b60405180910390fd5b601e8111156109b5576040517ff1a470d700000000000000000000000000000000000000000000000000000000815260040160405180910390fd5b806003819055507fcfa4f4cf1cd64d13a167a8e75605e0c0c9d6700e903d17c5dc11f593254a04a9816040516109eb9190611730565b60405180910390a150565b600660019054906101000a900473ffffffffffffffffffffffffffffffffffffffff1681565b6000600160009054906101000a900473ffffffffffffffffffffffffffffffffffffffff16905090565b600042905090565b600062093a808242610a609190611a8c565b610a6a91906118e5565b9050919050565b60055481565b60026000541415610abd576040517f08c379a0000000000000000000000000000000000000000000000000000000008152600401610ab490611a35565b60405180910390fd5b60026000819055506000600760003373ffffffffffffffffffffffffffffffffffffffff1673ffffffffffffffffffffffffffffffffffffffff1681526020019081526020016000206040518060e00160405290816000820154815260200160018201548152602001600282015481526020016003820154815260200160048201548152602001600582015481526020016006820154815250509050600081600001511415610b98576040517fb018f08700000000000000000000000000000000000000000000000000000000815260040160405180910390fd5b6000610ba382610f5e565b9050600760003373ffffffffffffffffffffffffffffffffffffffff1673ffffffffffffffffffffffffffffffffffffffff16815260200190815260200160002060008082016000905560018201600090556002820160009055600382016000905560048201600090556005820160009055600682016000905550504282606001511115610c7f57600080610c3c846000015184611200565b91509150610c78600660019054906101000a900473ffffffffffffffffffffffffffffffffffffffff16338385610c739190611916565b611023565b5050610cbc565b610cbb600660019054906101000a900473ffffffffffffffffffffffffffffffffffffffff1633838560000151610cb69190611916565b611023565b5b50506001600081905550565b60035481565b610cd66110a9565b73ffffffffffffffffffffffffffffffffffffffff16610cf4610a1c565b73ffffffffffffffffffffffffffffffffffffffff1614610d4a576040517f08c379a0000000000000000000000000000000000000000000000000000000008152600401610d41906119c9565b60405180910390fd5b426005819055506001600660006101000a81548160ff021916908315150217905550565b610d766110a9565b73ffffffffffffffffffffffffffffffffffffffff16610d94610a1c565b73ffffffffffffffffffffffffffffffffffffffff1614610dea576040517f08c379a0000000000000000000000000000000000000000000000000000000008152600401610de1906119c9565b60405180910390fd5b60c8811115610e25576040517fa552cf1000000000000000000000000000000000000000000000000000000000815260040160405180910390fd5b806004819055507fcc672f1026b958c0cfbfdd89ebe8ddcbc127f16ec24da6c2c7a4de26a8b1857e81604051610e5b9190611730565b60405180910390a150565b610e6e6110a9565b73ffffffffffffffffffffffffffffffffffffffff16610e8c610a1c565b73ffffffffffffffffffffffffffffffffffffffff1614610ee2576040517f08c379a0000000000000000000000000000000000000000000000000000000008152600401610ed9906119c9565b60405180910390fd5b600073ffffffffffffffffffffffffffffffffffffffff168173ffffffffffffffffffffffffffffffffffffffff161415610f52576040517f08c379a0000000000000000000000000000000000000000000000000000000008152600401610f4990611b32565b60405180910390fd5b610f5b816110b1565b50565b60006a52b7d2dcc80cd2e4000000610f79836020015161125a565b83604001518460000151610f8d919061185c565b610f97919061185c565b610fa191906118e5565b9050919050565b60006301dfe2006103e860045484610fc0919061185c565b610fca91906118e5565b610fd491906118e5565b9050919050565b600660009054906101000a900460ff16611021576040517fd4a7cb1900000000000000000000000000000000000000000000000000000000815260040160405180910390fd5b565b6110a48363a9059cbb60e01b8484604051602401611042929190611b52565b604051602081830303815290604052907bffffffffffffffffffffffffffffffffffffffffffffffffffffffff19166020820180517bffffffffffffffffffffffffffffffffffffffffffffffffffffffff8381831617835250505050611293565b505050565b600033905090565b6000600160009054906101000a900473ffffffffffffffffffffffffffffffffffffffff16905081600160006101000a81548173ffffffffffffffffffffffffffffffffffffffff021916908373ffffffffffffffffffffffffffffffffffffffff1602179055508173ffffffffffffffffffffffffffffffffffffffff168173ffffffffffffffffffffffffffffffffffffffff167f8be0079c531659141344cd1fd0a4f28419497f9722a3daafe3b4186f6b6457e060405160405180910390a35050565b6111fa846323b872dd60e01b85858560405160240161119893929190611b7b565b604051602081830303815290604052907bffffffffffffffffffffffffffffffffffffffffffffffffffffffff19166020820180517bffffffffffffffffffffffffffffffffffffffffffffffffffffffff8381831617835250505050611293565b50505050565b6000806103e860035485611214919061185c565b61121e91906118e5565b846112299190611a8c565b6103e86003548561123a919061185c565b61124491906118e5565b8461124f9190611a8c565b915091509250929050565b60006301e1338069d3c21bcecceda100000083426112789190611a8c565b611282919061185c565b61128c91906118e5565b9050919050565b60006112f5826040518060400160405280602081526020017f5361666545524332303a206c6f772d6c6576656c2063616c6c206661696c65648152508573ffffffffffffffffffffffffffffffffffffffff1661135a9092919063ffffffff16565b905060008151111561135557808060200190518101906113159190611bde565b611354576040517f08c379a000000000000000000000000000000000000000000000000000000000815260040161134b90611c7d565b60405180910390fd5b5b505050565b60606113698484600085611372565b90509392505050565b6060824710156113b7576040517f08c379a00000000000000000000000000000000000000000000000000000000081526004016113ae90611d0f565b60405180910390fd5b6113c085611486565b6113ff576040517f08c379a00000000000000000000000000000000000000000000000000000000081526004016113f690611d7b565b60405180910390fd5b6000808673ffffffffffffffffffffffffffffffffffffffff1685876040516114289190611e15565b60006040518083038185875af1925050503d8060008114611465576040519150601f19603f3d011682016040523d82523d6000602084013e61146a565b606091505b509150915061147a8282866114a9565b92505050949350505050565b6000808273ffffffffffffffffffffffffffffffffffffffff163b119050919050565b606083156114b957829050611509565b6000835111156114cc5782518084602001fd5b816040517f08c379a00000000000000000000000000000000000000000000000000000000081526004016115009190611e81565b60405180910390fd5b9392505050565b60405180606001604052806000815260200160008152602001611531611537565b81525090565b6040518060e00160405280600081526020016000815260200160008152602001600081526020016000815260200160008152602001600081525090565b6000819050919050565b61158781611574565b82525050565b60e0820160008201516115a3600085018261157e565b5060208201516115b6602085018261157e565b5060408201516115c9604085018261157e565b5060608201516115dc606085018261157e565b5060808201516115ef608085018261157e565b5060a082015161160260a085018261157e565b5060c082015161161560c085018261157e565b50505050565b61012082016000820151611632600085018261157e565b506020820151611645602085018261157e565b506040820151611658604085018261158d565b50505050565b600061012082019050611674600083018461161b565b92915050565b60008115159050919050565b61168f8161167a565b82525050565b60006020820190506116aa6000830184611686565b92915050565b600080fd5b6116be81611574565b81146116c957600080fd5b50565b6000813590506116db816116b5565b92915050565b600080604083850312156116f8576116f76116b0565b5b6000611706858286016116cc565b9250506020611717858286016116cc565b9150509250929050565b61172a81611574565b82525050565b60006020820190506117456000830184611721565b92915050565b600060208284031215611761576117606116b0565b5b600061176f848285016116cc565b91505092915050565b600073ffffffffffffffffffffffffffffffffffffffff82169050919050565b60006117a382611778565b9050919050565b6117b381611798565b82525050565b60006020820190506117ce60008301846117aa565b92915050565b6117dd81611798565b81146117e857600080fd5b50565b6000813590506117fa816117d4565b92915050565b600060208284031215611816576118156116b0565b5b6000611824848285016117eb565b91505092915050565b7f4e487b7100000000000000000000000000000000000000000000000000000000600052601160045260246000fd5b600061186782611574565b915061187283611574565b9250817fffffffffffffffffffffffffffffffffffffffffffffffffffffffffffffffff04831182151516156118ab576118aa61182d565b5b828202905092915050565b7f4e487b7100000000000000000000000000000000000000000000000000000000600052601260045260246000fd5b60006118f082611574565b91506118fb83611574565b92508261190b5761190a6118b6565b5b828204905092915050565b600061192182611574565b915061192c83611574565b9250827fffffffffffffffffffffffffffffffffffffffffffffffffffffffffffffffff038211156119615761196061182d565b5b828201905092915050565b600082825260208201905092915050565b7f4f776e61626c653a2063616c6c6572206973206e6f7420746865206f776e6572600082015250565b60006119b360208361196c565b91506119be8261197d565b602082019050919050565b600060208201905081810360008301526119e2816119a6565b9050919050565b7f5265656e7472616e637947756172643a207265656e7472616e742063616c6c00600082015250565b6000611a1f601f8361196c565b9150611a2a826119e9565b602082019050919050565b60006020820190508181036000830152611a4e81611a12565b9050919050565b6000606082019050611a6a6000830186611721565b611a776020830185611721565b611a846040830184611721565b949350505050565b6000611a9782611574565b9150611aa283611574565b925082821015611ab557611ab461182d565b5b828203905092915050565b7f4f776e61626c653a206e6577206f776e657220697320746865207a65726f206160008201527f6464726573730000000000000000000000000000000000000000000000000000602082015250565b6000611b1c60268361196c565b9150611b2782611ac0565b604082019050919050565b60006020820190508181036000830152611b4b81611b0f565b9050919050565b6000604082019050611b6760008301856117aa565b611b746020830184611721565b9392505050565b6000606082019050611b9060008301866117aa565b611b9d60208301856117aa565b611baa6040830184611721565b949350505050565b611bbb8161167a565b8114611bc657600080fd5b50565b600081519050611bd881611bb2565b92915050565b600060208284031215611bf457611bf36116b0565b5b6000611c0284828501611bc9565b91505092915050565b7f5361666545524332303a204552433230206f7065726174696f6e20646964206e60008201527f6f74207375636365656400000000000000000000000000000000000000000000602082015250565b6000611c67602a8361196c565b9150611c7282611c0b565b604082019050919050565b60006020820190508181036000830152611c9681611c5a565b9050919050565b7f416464726573733a20696e73756666696369656e742062616c616e636520666f60008201527f722063616c6c0000000000000000000000000000000000000000000000000000602082015250565b6000611cf960268361196c565b9150611d0482611c9d565b604082019050919050565b60006020820190508181036000830152611d2881611cec565b9050919050565b7f416464726573733a2063616c6c20746f206e6f6e2d636f6e7472616374000000600082015250565b6000611d65601d8361196c565b9150611d7082611d2f565b602082019050919050565b60006020820190508181036000830152611d9481611d58565b9050919050565b600081519050919050565b600081905092915050565b60005b83811015611dcf578082015181840152602081019050611db4565b83811115611dde576000848401525b50505050565b6000611def82611d9b565b611df98185611da6565b9350611e09818560208601611db1565b80840191505092915050565b6000611e218284611de4565b915081905092915050565b600081519050919050565b6000601f19601f8301169050919050565b6000611e5382611e2c565b611e5d818561196c565b9350611e6d818560208601611db1565b611e7681611e37565b840191505092915050565b60006020820190508181036000830152611e9b8184611e48565b90509291505056fea264697066735822122051857bb0ce65a0dd215a77aee6572c8f1f14c953ecd7b4396968118e2de6efab64736f6c634300080b0033",
			"opcodes": "PUSH1 0x80 PUSH1 0x40 MSTORE CALLVALUE DUP1 ISZERO PUSH3 0x11 JUMPI PUSH1 0x0 DUP1 REVERT JUMPDEST POP PUSH1 0x40 MLOAD PUSH3 0x215F CODESIZE SUB DUP1 PUSH3 0x215F DUP4 CODECOPY DUP2 DUP2 ADD PUSH1 0x40 MSTORE DUP2 ADD SWAP1 PUSH3 0x37 SWAP2 SWAP1 PUSH3 0x244 JUMP JUMPDEST PUSH1 0x1 PUSH1 0x0 DUP2 SWAP1 SSTORE POP PUSH3 0x5F PUSH3 0x53 PUSH3 0x10C PUSH1 0x20 SHL PUSH1 0x20 SHR JUMP JUMPDEST PUSH3 0x114 PUSH1 0x20 SHL PUSH1 0x20 SHR JUMP JUMPDEST PUSH1 0xF PUSH1 0x3 DUP2 SWAP1 SSTORE POP PUSH1 0x50 PUSH1 0x4 DUP2 SWAP1 SSTORE POP DUP1 PUSH1 0x6 PUSH1 0x1 PUSH2 0x100 EXP DUP2 SLOAD DUP2 PUSH20 0xFFFFFFFFFFFFFFFFFFFFFFFFFFFFFFFFFFFFFFFF MUL NOT AND SWAP1 DUP4 PUSH20 0xFFFFFFFFFFFFFFFFFFFFFFFFFFFFFFFFFFFFFFFF AND MUL OR SWAP1 SSTORE POP PUSH1 0x6 PUSH1 0x2 PUSH1 0x0 PUSH3 0x76A700 DUP2 MSTORE PUSH1 0x20 ADD SWAP1 DUP2 MSTORE PUSH1 0x20 ADD PUSH1 0x0 KECCAK256 DUP2 SWAP1 SSTORE POP PUSH1 0x7 PUSH1 0x2 PUSH1 0x0 PUSH3 0xED4E00 DUP2 MSTORE PUSH1 0x20 ADD SWAP1 DUP2 MSTORE PUSH1 0x20 ADD PUSH1 0x0 KECCAK256 DUP2 SWAP1 SSTORE POP PUSH1 0x8 PUSH1 0x2 PUSH1 0x0 PUSH4 0x1E13380 DUP2 MSTORE PUSH1 0x20 ADD SWAP1 DUP2 MSTORE PUSH1 0x20 ADD PUSH1 0x0 KECCAK256 DUP2 SWAP1 SSTORE POP POP PUSH3 0x276 JUMP JUMPDEST PUSH1 0x0 CALLER SWAP1 POP SWAP1 JUMP JUMPDEST PUSH1 0x0 PUSH1 0x1 PUSH1 0x0 SWAP1 SLOAD SWAP1 PUSH2 0x100 EXP SWAP1 DIV PUSH20 0xFFFFFFFFFFFFFFFFFFFFFFFFFFFFFFFFFFFFFFFF AND SWAP1 POP DUP2 PUSH1 0x1 PUSH1 0x0 PUSH2 0x100 EXP DUP2 SLOAD DUP2 PUSH20 0xFFFFFFFFFFFFFFFFFFFFFFFFFFFFFFFFFFFFFFFF MUL NOT AND SWAP1 DUP4 PUSH20 0xFFFFFFFFFFFFFFFFFFFFFFFFFFFFFFFFFFFFFFFF AND MUL OR SWAP1 SSTORE POP DUP2 PUSH20 0xFFFFFFFFFFFFFFFFFFFFFFFFFFFFFFFFFFFFFFFF AND DUP2 PUSH20 0xFFFFFFFFFFFFFFFFFFFFFFFFFFFFFFFFFFFFFFFF AND PUSH32 0x8BE0079C531659141344CD1FD0A4F28419497F9722A3DAAFE3B4186F6B6457E0 PUSH1 0x40 MLOAD PUSH1 0x40 MLOAD DUP1 SWAP2 SUB SWAP1 LOG3 POP POP JUMP JUMPDEST PUSH1 0x0 DUP1 REVERT JUMPDEST PUSH1 0x0 PUSH20 0xFFFFFFFFFFFFFFFFFFFFFFFFFFFFFFFFFFFFFFFF DUP3 AND SWAP1 POP SWAP2 SWAP1 POP JUMP JUMPDEST PUSH1 0x0 PUSH3 0x20C DUP3 PUSH3 0x1DF JUMP JUMPDEST SWAP1 POP SWAP2 SWAP1 POP JUMP JUMPDEST PUSH3 0x21E DUP2 PUSH3 0x1FF JUMP JUMPDEST DUP2 EQ PUSH3 0x22A JUMPI PUSH1 0x0 DUP1 REVERT JUMPDEST POP JUMP JUMPDEST PUSH1 0x0 DUP2 MLOAD SWAP1 POP PUSH3 0x23E DUP2 PUSH3 0x213 JUMP JUMPDEST SWAP3 SWAP2 POP POP JUMP JUMPDEST PUSH1 0x0 PUSH1 0x20 DUP3 DUP5 SUB SLT ISZERO PUSH3 0x25D JUMPI PUSH3 0x25C PUSH3 0x1DA JUMP JUMPDEST JUMPDEST PUSH1 0x0 PUSH3 0x26D DUP5 DUP3 DUP6 ADD PUSH3 0x22D JUMP JUMPDEST SWAP2 POP POP SWAP3 SWAP2 POP POP JUMP JUMPDEST PUSH2 0x1ED9 DUP1 PUSH3 0x286 PUSH1 0x0 CODECOPY PUSH1 0x0 RETURN INVALID PUSH1 0x80 PUSH1 0x40 MSTORE CALLVALUE DUP1 ISZERO PUSH2 0x10 JUMPI PUSH1 0x0 DUP1 REVERT JUMPDEST POP PUSH1 0x4 CALLDATASIZE LT PUSH2 0x10B JUMPI PUSH1 0x0 CALLDATALOAD PUSH1 0xE0 SHR DUP1 PUSH4 0x8DA5CB5B GT PUSH2 0xA2 JUMPI DUP1 PUSH4 0xBED9D861 GT PUSH2 0x71 JUMPI DUP1 PUSH4 0xBED9D861 EQ PUSH2 0x25E JUMPI DUP1 PUSH4 0xCB79C2E1 EQ PUSH2 0x268 JUMPI DUP1 PUSH4 0xD2A569C3 EQ PUSH2 0x286 JUMPI DUP1 PUSH4 0xD5DBDF1B EQ PUSH2 0x290 JUMPI DUP1 PUSH4 0xF2FDE38B EQ PUSH2 0x2AC JUMPI PUSH2 0x10B JUMP JUMPDEST DUP1 PUSH4 0x8DA5CB5B EQ PUSH2 0x1D4 JUMPI DUP1 PUSH4 0xADB61832 EQ PUSH2 0x1F2 JUMPI DUP1 PUSH4 0xB5D9DF83 EQ PUSH2 0x210 JUMPI DUP1 PUSH4 0xB87DA76D EQ PUSH2 0x240 JUMPI PUSH2 0x10B JUMP JUMPDEST DUP1 PUSH4 0x7B0472F0 GT PUSH2 0xDE JUMPI DUP1 PUSH4 0x7B0472F0 EQ PUSH2 0x160 JUMPI DUP1 PUSH4 0x8891CF0D EQ PUSH2 0x17C JUMPI DUP1 PUSH4 0x8C63F97F EQ PUSH2 0x19A JUMPI DUP1 PUSH4 0x8C8E8FEE EQ PUSH2 0x1B6 JUMPI PUSH2 0x10B JUMP JUMPDEST DUP1 PUSH4 0x10486B6A EQ PUSH2 0x110 JUMPI DUP1 PUSH4 0x2CF1A5FB EQ PUSH2 0x12E JUMPI DUP1 PUSH4 0x5B88349D EQ PUSH2 0x14C JUMPI DUP1 PUSH4 0x715018A6 EQ PUSH2 0x156 JUMPI JUMPDEST PUSH1 0x0 DUP1 REVERT JUMPDEST PUSH2 0x118 PUSH2 0x2C8 JUMP JUMPDEST PUSH1 0x40 MLOAD PUSH2 0x125 SWAP2 SWAP1 PUSH2 0x165E JUMP JUMPDEST PUSH1 0x40 MLOAD DUP1 SWAP2 SUB SWAP1 RETURN JUMPDEST PUSH2 0x136 PUSH2 0x49E JUMP JUMPDEST PUSH1 0x40 MLOAD PUSH2 0x143 SWAP2 SWAP1 PUSH2 0x1695 JUMP JUMPDEST PUSH1 0x40 MLOAD DUP1 SWAP2 SUB SWAP1 RETURN JUMPDEST PUSH2 0x154 PUSH2 0x4B1 JUMP JUMPDEST STOP JUMPDEST PUSH2 0x15E PUSH2 0x5DF JUMP JUMPDEST STOP JUMPDEST PUSH2 0x17A PUSH1 0x4 DUP1 CALLDATASIZE SUB DUP2 ADD SWAP1 PUSH2 0x175 SWAP2 SWAP1 PUSH2 0x16E1 JUMP JUMPDEST PUSH2 0x667 JUMP JUMPDEST STOP JUMPDEST PUSH2 0x184 PUSH2 0x8F8 JUMP JUMPDEST PUSH1 0x40 MLOAD PUSH2 0x191 SWAP2 SWAP1 PUSH2 0x1730 JUMP JUMPDEST PUSH1 0x40 MLOAD DUP1 SWAP2 SUB SWAP1 RETURN JUMPDEST PUSH2 0x1B4 PUSH1 0x4 DUP1 CALLDATASIZE SUB DUP2 ADD SWAP1 PUSH2 0x1AF SWAP2 SWAP1 PUSH2 0x174B JUMP JUMPDEST PUSH2 0x8FE JUMP JUMPDEST STOP JUMPDEST PUSH2 0x1BE PUSH2 0x9F6 JUMP JUMPDEST PUSH1 0x40 MLOAD PUSH2 0x1CB SWAP2 SWAP1 PUSH2 0x17B9 JUMP JUMPDEST PUSH1 0x40 MLOAD DUP1 SWAP2 SUB SWAP1 RETURN JUMPDEST PUSH2 0x1DC PUSH2 0xA1C JUMP JUMPDEST PUSH1 0x40 MLOAD PUSH2 0x1E9 SWAP2 SWAP1 PUSH2 0x17B9 JUMP JUMPDEST PUSH1 0x40 MLOAD DUP1 SWAP2 SUB SWAP1 RETURN JUMPDEST PUSH2 0x1FA PUSH2 0xA46 JUMP JUMPDEST PUSH1 0x40 MLOAD PUSH2 0x207 SWAP2 SWAP1 PUSH2 0x1730 JUMP JUMPDEST PUSH1 0x40 MLOAD DUP1 SWAP2 SUB SWAP1 RETURN JUMPDEST PUSH2 0x22A PUSH1 0x4 DUP1 CALLDATASIZE SUB DUP2 ADD SWAP1 PUSH2 0x225 SWAP2 SWAP1 PUSH2 0x174B JUMP JUMPDEST PUSH2 0xA4E JUMP JUMPDEST PUSH1 0x40 MLOAD PUSH2 0x237 SWAP2 SWAP1 PUSH2 0x1730 JUMP JUMPDEST PUSH1 0x40 MLOAD DUP1 SWAP2 SUB SWAP1 RETURN JUMPDEST PUSH2 0x248 PUSH2 0xA71 JUMP JUMPDEST PUSH1 0x40 MLOAD PUSH2 0x255 SWAP2 SWAP1 PUSH2 0x1730 JUMP JUMPDEST PUSH1 0x40 MLOAD DUP1 SWAP2 SUB SWAP1 RETURN JUMPDEST PUSH2 0x266 PUSH2 0xA77 JUMP JUMPDEST STOP JUMPDEST PUSH2 0x270 PUSH2 0xCC8 JUMP JUMPDEST PUSH1 0x40 MLOAD PUSH2 0x27D SWAP2 SWAP1 PUSH2 0x1730 JUMP JUMPDEST PUSH1 0x40 MLOAD DUP1 SWAP2 SUB SWAP1 RETURN JUMPDEST PUSH2 0x28E PUSH2 0xCCE JUMP JUMPDEST STOP JUMPDEST PUSH2 0x2AA PUSH1 0x4 DUP1 CALLDATASIZE SUB DUP2 ADD SWAP1 PUSH2 0x2A5 SWAP2 SWAP1 PUSH2 0x174B JUMP JUMPDEST PUSH2 0xD6E JUMP JUMPDEST STOP JUMPDEST PUSH2 0x2C6 PUSH1 0x4 DUP1 CALLDATASIZE SUB DUP2 ADD SWAP1 PUSH2 0x2C1 SWAP2 SWAP1 PUSH2 0x1800 JUMP JUMPDEST PUSH2 0xE66 JUMP JUMPDEST STOP JUMPDEST PUSH2 0x2D0 PUSH2 0x1510 JUMP JUMPDEST PUSH1 0x0 PUSH1 0x7 PUSH1 0x0 CALLER PUSH20 0xFFFFFFFFFFFFFFFFFFFFFFFFFFFFFFFFFFFFFFFF AND PUSH20 0xFFFFFFFFFFFFFFFFFFFFFFFFFFFFFFFFFFFFFFFF AND DUP2 MSTORE PUSH1 0x20 ADD SWAP1 DUP2 MSTORE PUSH1 0x20 ADD PUSH1 0x0 KECCAK256 PUSH1 0x40 MLOAD DUP1 PUSH1 0xE0 ADD PUSH1 0x40 MSTORE SWAP1 DUP2 PUSH1 0x0 DUP3 ADD SLOAD DUP2 MSTORE PUSH1 0x20 ADD PUSH1 0x1 DUP3 ADD SLOAD DUP2 MSTORE PUSH1 0x20 ADD PUSH1 0x2 DUP3 ADD SLOAD DUP2 MSTORE PUSH1 0x20 ADD PUSH1 0x3 DUP3 ADD SLOAD DUP2 MSTORE PUSH1 0x20 ADD PUSH1 0x4 DUP3 ADD SLOAD DUP2 MSTORE PUSH1 0x20 ADD PUSH1 0x5 DUP3 ADD SLOAD DUP2 MSTORE PUSH1 0x20 ADD PUSH1 0x6 DUP3 ADD SLOAD DUP2 MSTORE POP POP SWAP1 POP PUSH1 0x0 DUP2 PUSH1 0x0 ADD MLOAD EQ ISZERO PUSH2 0x3A3 JUMPI PUSH1 0x40 MLOAD PUSH32 0xB018F08700000000000000000000000000000000000000000000000000000000 DUP2 MSTORE PUSH1 0x4 ADD PUSH1 0x40 MLOAD DUP1 SWAP2 SUB SWAP1 REVERT JUMPDEST PUSH1 0x0 PUSH1 0x40 MLOAD DUP1 PUSH1 0x60 ADD PUSH1 0x40 MSTORE DUP1 PUSH1 0x0 DUP2 MSTORE PUSH1 0x20 ADD PUSH1 0x0 DUP2 MSTORE PUSH1 0x20 ADD DUP4 DUP2 MSTORE POP SWAP1 POP PUSH1 0x0 PUSH2 0x3CF DUP4 PUSH2 0xF5E JUMP JUMPDEST SWAP1 POP TIMESTAMP DUP3 PUSH1 0x40 ADD MLOAD PUSH1 0x60 ADD MLOAD GT ISZERO PUSH2 0x42F JUMPI PUSH2 0x3E8 PUSH1 0x3 SLOAD DUP3 PUSH2 0x3F2 SWAP2 SWAP1 PUSH2 0x185C JUMP JUMPDEST PUSH2 0x3FC SWAP2 SWAP1 PUSH2 0x18E5 JUMP JUMPDEST PUSH2 0x3E8 PUSH1 0x3 SLOAD DUP6 PUSH1 0x0 ADD MLOAD PUSH2 0x411 SWAP2 SWAP1 PUSH2 0x185C JUMP JUMPDEST PUSH2 0x41B SWAP2 SWAP1 PUSH2 0x18E5 JUMP JUMPDEST PUSH2 0x425 SWAP2 SWAP1 PUSH2 0x1916 JUMP JUMPDEST DUP3 PUSH1 0x20 ADD DUP2 DUP2 MSTORE POP POP JUMPDEST PUSH1 0x0 PUSH2 0x43E DUP5 PUSH1 0xC0 ADD MLOAD PUSH2 0xA4E JUMP JUMPDEST GT ISZERO PUSH2 0x469 JUMPI PUSH1 0x0 PUSH2 0x453 DUP5 PUSH1 0x0 ADD MLOAD PUSH2 0xFA8 JUMP JUMPDEST SWAP1 POP DUP1 DUP4 PUSH1 0x40 ADD MLOAD PUSH1 0xA0 ADD DUP2 DUP2 MSTORE POP POP POP PUSH2 0x479 JUMP JUMPDEST PUSH1 0x0 DUP3 PUSH1 0x40 ADD MLOAD PUSH1 0xA0 ADD DUP2 DUP2 MSTORE POP POP JUMPDEST DUP1 DUP3 PUSH1 0x40 ADD MLOAD PUSH1 0x80 ADD DUP2 DUP2 MSTORE POP POP DUP3 PUSH1 0x0 ADD MLOAD DUP3 PUSH1 0x0 ADD DUP2 DUP2 MSTORE POP POP DUP2 SWAP4 POP POP POP POP SWAP1 JUMP JUMPDEST PUSH1 0x6 PUSH1 0x0 SWAP1 SLOAD SWAP1 PUSH2 0x100 EXP SWAP1 DIV PUSH1 0xFF AND DUP2 JUMP JUMPDEST PUSH2 0x4B9 PUSH2 0xFDB JUMP JUMPDEST PUSH1 0x0 PUSH1 0x7 PUSH1 0x0 CALLER PUSH20 0xFFFFFFFFFFFFFFFFFFFFFFFFFFFFFFFFFFFFFFFF AND PUSH20 0xFFFFFFFFFFFFFFFFFFFFFFFFFFFFFFFFFFFFFFFF AND DUP2 MSTORE PUSH1 0x20 ADD SWAP1 DUP2 MSTORE PUSH1 0x20 ADD PUSH1 0x0 KECCAK256 SWAP1 POP PUSH1 0x0 DUP2 PUSH1 0x0 ADD SLOAD EQ ISZERO PUSH2 0x53B JUMPI PUSH1 0x40 MLOAD PUSH32 0xB018F08700000000000000000000000000000000000000000000000000000000 DUP2 MSTORE PUSH1 0x4 ADD PUSH1 0x40 MLOAD DUP1 SWAP2 SUB SWAP1 REVERT JUMPDEST PUSH1 0x0 DUP2 PUSH1 0x0 ADD SLOAD GT ISZERO PUSH2 0x5DC JUMPI PUSH1 0x0 PUSH2 0x557 DUP3 PUSH1 0x6 ADD SLOAD PUSH2 0xA4E JUMP JUMPDEST EQ ISZERO PUSH2 0x58F JUMPI PUSH1 0x40 MLOAD PUSH32 0xDD8456CC00000000000000000000000000000000000000000000000000000000 DUP2 MSTORE PUSH1 0x4 ADD PUSH1 0x40 MLOAD DUP1 SWAP2 SUB SWAP1 REVERT JUMPDEST PUSH1 0x0 DUP2 PUSH1 0x5 ADD DUP2 SWAP1 SSTORE POP TIMESTAMP DUP2 PUSH1 0x6 ADD DUP2 SWAP1 SSTORE POP PUSH2 0x5DB PUSH1 0x6 PUSH1 0x1 SWAP1 SLOAD SWAP1 PUSH2 0x100 EXP SWAP1 DIV PUSH20 0xFFFFFFFFFFFFFFFFFFFFFFFFFFFFFFFFFFFFFFFF AND CALLER PUSH2 0x5D6 DUP5 PUSH1 0x0 ADD SLOAD PUSH2 0xFA8 JUMP JUMPDEST PUSH2 0x1023 JUMP JUMPDEST JUMPDEST POP JUMP JUMPDEST PUSH2 0x5E7 PUSH2 0x10A9 JUMP JUMPDEST PUSH20 0xFFFFFFFFFFFFFFFFFFFFFFFFFFFFFFFFFFFFFFFF AND PUSH2 0x605 PUSH2 0xA1C JUMP JUMPDEST PUSH20 0xFFFFFFFFFFFFFFFFFFFFFFFFFFFFFFFFFFFFFFFF AND EQ PUSH2 0x65B JUMPI PUSH1 0x40 MLOAD PUSH32 0x8C379A000000000000000000000000000000000000000000000000000000000 DUP2 MSTORE PUSH1 0x4 ADD PUSH2 0x652 SWAP1 PUSH2 0x19C9 JUMP JUMPDEST PUSH1 0x40 MLOAD DUP1 SWAP2 SUB SWAP1 REVERT JUMPDEST PUSH2 0x665 PUSH1 0x0 PUSH2 0x10B1 JUMP JUMPDEST JUMP JUMPDEST PUSH1 0x2 PUSH1 0x0 SLOAD EQ ISZERO PUSH2 0x6AD JUMPI PUSH1 0x40 MLOAD PUSH32 0x8C379A000000000000000000000000000000000000000000000000000000000 DUP2 MSTORE PUSH1 0x4 ADD PUSH2 0x6A4 SWAP1 PUSH2 0x1A35 JUMP JUMPDEST PUSH1 0x40 MLOAD DUP1 SWAP2 SUB SWAP1 REVERT JUMPDEST PUSH1 0x2 PUSH1 0x0 DUP2 SWAP1 SSTORE POP PUSH1 0x0 PUSH1 0x7 PUSH1 0x0 CALLER PUSH20 0xFFFFFFFFFFFFFFFFFFFFFFFFFFFFFFFFFFFFFFFF AND PUSH20 0xFFFFFFFFFFFFFFFFFFFFFFFFFFFFFFFFFFFFFFFF AND DUP2 MSTORE PUSH1 0x20 ADD SWAP1 DUP2 MSTORE PUSH1 0x20 ADD PUSH1 0x0 KECCAK256 PUSH1 0x0 ADD SLOAD EQ PUSH2 0x731 JUMPI PUSH1 0x40 MLOAD PUSH32 0x4462D2700000000000000000000000000000000000000000000000000000000 DUP2 MSTORE PUSH1 0x4 ADD PUSH1 0x40 MLOAD DUP1 SWAP2 SUB SWAP1 REVERT JUMPDEST PUSH1 0x0 PUSH1 0x2 PUSH1 0x0 DUP4 DUP2 MSTORE PUSH1 0x20 ADD SWAP1 DUP2 MSTORE PUSH1 0x20 ADD PUSH1 0x0 KECCAK256 SLOAD EQ ISZERO PUSH2 0x77F JUMPI PUSH1 0x40 MLOAD PUSH32 0x95377BE400000000000000000000000000000000000000000000000000000000 DUP2 MSTORE PUSH1 0x4 ADD PUSH1 0x40 MLOAD DUP1 SWAP2 SUB SWAP1 REVERT JUMPDEST PUSH1 0x0 TIMESTAMP SWAP1 POP PUSH1 0x40 MLOAD DUP1 PUSH1 0xE0 ADD PUSH1 0x40 MSTORE DUP1 DUP5 DUP2 MSTORE PUSH1 0x20 ADD DUP3 DUP2 MSTORE PUSH1 0x20 ADD PUSH1 0x2 PUSH1 0x0 DUP6 DUP2 MSTORE PUSH1 0x20 ADD SWAP1 DUP2 MSTORE PUSH1 0x20 ADD PUSH1 0x0 KECCAK256 SLOAD DUP2 MSTORE PUSH1 0x20 ADD DUP3 DUP5 PUSH2 0x7C0 SWAP2 SWAP1 PUSH2 0x1916 JUMP JUMPDEST DUP2 MSTORE PUSH1 0x20 ADD PUSH1 0x0 DUP2 MSTORE PUSH1 0x20 ADD PUSH1 0x0 DUP2 MSTORE PUSH1 0x20 ADD PUSH1 0x0 DUP2 MSTORE POP PUSH1 0x7 PUSH1 0x0 CALLER PUSH20 0xFFFFFFFFFFFFFFFFFFFFFFFFFFFFFFFFFFFFFFFF AND PUSH20 0xFFFFFFFFFFFFFFFFFFFFFFFFFFFFFFFFFFFFFFFF AND DUP2 MSTORE PUSH1 0x20 ADD SWAP1 DUP2 MSTORE PUSH1 0x20 ADD PUSH1 0x0 KECCAK256 PUSH1 0x0 DUP3 ADD MLOAD DUP2 PUSH1 0x0 ADD SSTORE PUSH1 0x20 DUP3 ADD MLOAD DUP2 PUSH1 0x1 ADD SSTORE PUSH1 0x40 DUP3 ADD MLOAD DUP2 PUSH1 0x2 ADD SSTORE PUSH1 0x60 DUP3 ADD MLOAD DUP2 PUSH1 0x3 ADD SSTORE PUSH1 0x80 DUP3 ADD MLOAD DUP2 PUSH1 0x4 ADD SSTORE PUSH1 0xA0 DUP3 ADD MLOAD DUP2 PUSH1 0x5 ADD SSTORE PUSH1 0xC0 DUP3 ADD MLOAD DUP2 PUSH1 0x6 ADD SSTORE SWAP1 POP POP PUSH2 0x88E PUSH1 0x6 PUSH1 0x1 SWAP1 SLOAD SWAP1 PUSH2 0x100 EXP SWAP1 DIV PUSH20 0xFFFFFFFFFFFFFFFFFFFFFFFFFFFFFFFFFFFFFFFF AND CALLER ADDRESS DUP7 PUSH2 0x1177 JUMP JUMPDEST CALLER PUSH20 0xFFFFFFFFFFFFFFFFFFFFFFFFFFFFFFFFFFFFFFFF AND PUSH32 0xB4CAAF29ADDA3EEFEE3AD552A8E85058589BF834C7466CAE4EE58787F70589ED DUP5 DUP4 DUP5 DUP7 PUSH2 0x8D4 SWAP2 SWAP1 PUSH2 0x1916 JUMP JUMPDEST PUSH1 0x40 MLOAD PUSH2 0x8E3 SWAP4 SWAP3 SWAP2 SWAP1 PUSH2 0x1A55 JUMP JUMPDEST PUSH1 0x40 MLOAD DUP1 SWAP2 SUB SWAP1 LOG2 POP PUSH1 0x1 PUSH1 0x0 DUP2 SWAP1 SSTORE POP POP POP JUMP JUMPDEST PUSH1 0x4 SLOAD DUP2 JUMP JUMPDEST PUSH2 0x906 PUSH2 0x10A9 JUMP JUMPDEST PUSH20 0xFFFFFFFFFFFFFFFFFFFFFFFFFFFFFFFFFFFFFFFF AND PUSH2 0x924 PUSH2 0xA1C JUMP JUMPDEST PUSH20 0xFFFFFFFFFFFFFFFFFFFFFFFFFFFFFFFFFFFFFFFF AND EQ PUSH2 0x97A JUMPI PUSH1 0x40 MLOAD PUSH32 0x8C379A000000000000000000000000000000000000000000000000000000000 DUP2 MSTORE PUSH1 0x4 ADD PUSH2 0x971 SWAP1 PUSH2 0x19C9 JUMP JUMPDEST PUSH1 0x40 MLOAD DUP1 SWAP2 SUB SWAP1 REVERT JUMPDEST PUSH1 0x1E DUP2 GT ISZERO PUSH2 0x9B5 JUMPI PUSH1 0x40 MLOAD PUSH32 0xF1A470D700000000000000000000000000000000000000000000000000000000 DUP2 MSTORE PUSH1 0x4 ADD PUSH1 0x40 MLOAD DUP1 SWAP2 SUB SWAP1 REVERT JUMPDEST DUP1 PUSH1 0x3 DUP2 SWAP1 SSTORE POP PUSH32 0xCFA4F4CF1CD64D13A167A8E75605E0C0C9D6700E903D17C5DC11F593254A04A9 DUP2 PUSH1 0x40 MLOAD PUSH2 0x9EB SWAP2 SWAP1 PUSH2 0x1730 JUMP JUMPDEST PUSH1 0x40 MLOAD DUP1 SWAP2 SUB SWAP1 LOG1 POP JUMP JUMPDEST PUSH1 0x6 PUSH1 0x1 SWAP1 SLOAD SWAP1 PUSH2 0x100 EXP SWAP1 DIV PUSH20 0xFFFFFFFFFFFFFFFFFFFFFFFFFFFFFFFFFFFFFFFF AND DUP2 JUMP JUMPDEST PUSH1 0x0 PUSH1 0x1 PUSH1 0x0 SWAP1 SLOAD SWAP1 PUSH2 0x100 EXP SWAP1 DIV PUSH20 0xFFFFFFFFFFFFFFFFFFFFFFFFFFFFFFFFFFFFFFFF AND SWAP1 POP SWAP1 JUMP JUMPDEST PUSH1 0x0 TIMESTAMP SWAP1 POP SWAP1 JUMP JUMPDEST PUSH1 0x0 PUSH3 0x93A80 DUP3 TIMESTAMP PUSH2 0xA60 SWAP2 SWAP1 PUSH2 0x1A8C JUMP JUMPDEST PUSH2 0xA6A SWAP2 SWAP1 PUSH2 0x18E5 JUMP JUMPDEST SWAP1 POP SWAP2 SWAP1 POP JUMP JUMPDEST PUSH1 0x5 SLOAD DUP2 JUMP JUMPDEST PUSH1 0x2 PUSH1 0x0 SLOAD EQ ISZERO PUSH2 0xABD JUMPI PUSH1 0x40 MLOAD PUSH32 0x8C379A000000000000000000000000000000000000000000000000000000000 DUP2 MSTORE PUSH1 0x4 ADD PUSH2 0xAB4 SWAP1 PUSH2 0x1A35 JUMP JUMPDEST PUSH1 0x40 MLOAD DUP1 SWAP2 SUB SWAP1 REVERT JUMPDEST PUSH1 0x2 PUSH1 0x0 DUP2 SWAP1 SSTORE POP PUSH1 0x0 PUSH1 0x7 PUSH1 0x0 CALLER PUSH20 0xFFFFFFFFFFFFFFFFFFFFFFFFFFFFFFFFFFFFFFFF AND PUSH20 0xFFFFFFFFFFFFFFFFFFFFFFFFFFFFFFFFFFFFFFFF AND DUP2 MSTORE PUSH1 0x20 ADD SWAP1 DUP2 MSTORE PUSH1 0x20 ADD PUSH1 0x0 KECCAK256 PUSH1 0x40 MLOAD DUP1 PUSH1 0xE0 ADD PUSH1 0x40 MSTORE SWAP1 DUP2 PUSH1 0x0 DUP3 ADD SLOAD DUP2 MSTORE PUSH1 0x20 ADD PUSH1 0x1 DUP3 ADD SLOAD DUP2 MSTORE PUSH1 0x20 ADD PUSH1 0x2 DUP3 ADD SLOAD DUP2 MSTORE PUSH1 0x20 ADD PUSH1 0x3 DUP3 ADD SLOAD DUP2 MSTORE PUSH1 0x20 ADD PUSH1 0x4 DUP3 ADD SLOAD DUP2 MSTORE PUSH1 0x20 ADD PUSH1 0x5 DUP3 ADD SLOAD DUP2 MSTORE PUSH1 0x20 ADD PUSH1 0x6 DUP3 ADD SLOAD DUP2 MSTORE POP POP SWAP1 POP PUSH1 0x0 DUP2 PUSH1 0x0 ADD MLOAD EQ ISZERO PUSH2 0xB98 JUMPI PUSH1 0x40 MLOAD PUSH32 0xB018F08700000000000000000000000000000000000000000000000000000000 DUP2 MSTORE PUSH1 0x4 ADD PUSH1 0x40 MLOAD DUP1 SWAP2 SUB SWAP1 REVERT JUMPDEST PUSH1 0x0 PUSH2 0xBA3 DUP3 PUSH2 0xF5E JUMP JUMPDEST SWAP1 POP PUSH1 0x7 PUSH1 0x0 CALLER PUSH20 0xFFFFFFFFFFFFFFFFFFFFFFFFFFFFFFFFFFFFFFFF AND PUSH20 0xFFFFFFFFFFFFFFFFFFFFFFFFFFFFFFFFFFFFFFFF AND DUP2 MSTORE PUSH1 0x20 ADD SWAP1 DUP2 MSTORE PUSH1 0x20 ADD PUSH1 0x0 KECCAK256 PUSH1 0x0 DUP1 DUP3 ADD PUSH1 0x0 SWAP1 SSTORE PUSH1 0x1 DUP3 ADD PUSH1 0x0 SWAP1 SSTORE PUSH1 0x2 DUP3 ADD PUSH1 0x0 SWAP1 SSTORE PUSH1 0x3 DUP3 ADD PUSH1 0x0 SWAP1 SSTORE PUSH1 0x4 DUP3 ADD PUSH1 0x0 SWAP1 SSTORE PUSH1 0x5 DUP3 ADD PUSH1 0x0 SWAP1 SSTORE PUSH1 0x6 DUP3 ADD PUSH1 0x0 SWAP1 SSTORE POP POP TIMESTAMP DUP3 PUSH1 0x60 ADD MLOAD GT ISZERO PUSH2 0xC7F JUMPI PUSH1 0x0 DUP1 PUSH2 0xC3C DUP5 PUSH1 0x0 ADD MLOAD DUP5 PUSH2 0x1200 JUMP JUMPDEST SWAP2 POP SWAP2 POP PUSH2 0xC78 PUSH1 0x6 PUSH1 0x1 SWAP1 SLOAD SWAP1 PUSH2 0x100 EXP SWAP1 DIV PUSH20 0xFFFFFFFFFFFFFFFFFFFFFFFFFFFFFFFFFFFFFFFF AND CALLER DUP4 DUP6 PUSH2 0xC73 SWAP2 SWAP1 PUSH2 0x1916 JUMP JUMPDEST PUSH2 0x1023 JUMP JUMPDEST POP POP PUSH2 0xCBC JUMP JUMPDEST PUSH2 0xCBB PUSH1 0x6 PUSH1 0x1 SWAP1 SLOAD SWAP1 PUSH2 0x100 EXP SWAP1 DIV PUSH20 0xFFFFFFFFFFFFFFFFFFFFFFFFFFFFFFFFFFFFFFFF AND CALLER DUP4 DUP6 PUSH1 0x0 ADD MLOAD PUSH2 0xCB6 SWAP2 SWAP1 PUSH2 0x1916 JUMP JUMPDEST PUSH2 0x1023 JUMP JUMPDEST JUMPDEST POP POP PUSH1 0x1 PUSH1 0x0 DUP2 SWAP1 SSTORE POP JUMP JUMPDEST PUSH1 0x3 SLOAD DUP2 JUMP JUMPDEST PUSH2 0xCD6 PUSH2 0x10A9 JUMP JUMPDEST PUSH20 0xFFFFFFFFFFFFFFFFFFFFFFFFFFFFFFFFFFFFFFFF AND PUSH2 0xCF4 PUSH2 0xA1C JUMP JUMPDEST PUSH20 0xFFFFFFFFFFFFFFFFFFFFFFFFFFFFFFFFFFFFFFFF AND EQ PUSH2 0xD4A JUMPI PUSH1 0x40 MLOAD PUSH32 0x8C379A000000000000000000000000000000000000000000000000000000000 DUP2 MSTORE PUSH1 0x4 ADD PUSH2 0xD41 SWAP1 PUSH2 0x19C9 JUMP JUMPDEST PUSH1 0x40 MLOAD DUP1 SWAP2 SUB SWAP1 REVERT JUMPDEST TIMESTAMP PUSH1 0x5 DUP2 SWAP1 SSTORE POP PUSH1 0x1 PUSH1 0x6 PUSH1 0x0 PUSH2 0x100 EXP DUP2 SLOAD DUP2 PUSH1 0xFF MUL NOT AND SWAP1 DUP4 ISZERO ISZERO MUL OR SWAP1 SSTORE POP JUMP JUMPDEST PUSH2 0xD76 PUSH2 0x10A9 JUMP JUMPDEST PUSH20 0xFFFFFFFFFFFFFFFFFFFFFFFFFFFFFFFFFFFFFFFF AND PUSH2 0xD94 PUSH2 0xA1C JUMP JUMPDEST PUSH20 0xFFFFFFFFFFFFFFFFFFFFFFFFFFFFFFFFFFFFFFFF AND EQ PUSH2 0xDEA JUMPI PUSH1 0x40 MLOAD PUSH32 0x8C379A000000000000000000000000000000000000000000000000000000000 DUP2 MSTORE PUSH1 0x4 ADD PUSH2 0xDE1 SWAP1 PUSH2 0x19C9 JUMP JUMPDEST PUSH1 0x40 MLOAD DUP1 SWAP2 SUB SWAP1 REVERT JUMPDEST PUSH1 0xC8 DUP2 GT ISZERO PUSH2 0xE25 JUMPI PUSH1 0x40 MLOAD PUSH32 0xA552CF1000000000000000000000000000000000000000000000000000000000 DUP2 MSTORE PUSH1 0x4 ADD PUSH1 0x40 MLOAD DUP1 SWAP2 SUB SWAP1 REVERT JUMPDEST DUP1 PUSH1 0x4 DUP2 SWAP1 SSTORE POP PUSH32 0xCC672F1026B958C0CFBFDD89EBE8DDCBC127F16EC24DA6C2C7A4DE26A8B1857E DUP2 PUSH1 0x40 MLOAD PUSH2 0xE5B SWAP2 SWAP1 PUSH2 0x1730 JUMP JUMPDEST PUSH1 0x40 MLOAD DUP1 SWAP2 SUB SWAP1 LOG1 POP JUMP JUMPDEST PUSH2 0xE6E PUSH2 0x10A9 JUMP JUMPDEST PUSH20 0xFFFFFFFFFFFFFFFFFFFFFFFFFFFFFFFFFFFFFFFF AND PUSH2 0xE8C PUSH2 0xA1C JUMP JUMPDEST PUSH20 0xFFFFFFFFFFFFFFFFFFFFFFFFFFFFFFFFFFFFFFFF AND EQ PUSH2 0xEE2 JUMPI PUSH1 0x40 MLOAD PUSH32 0x8C379A000000000000000000000000000000000000000000000000000000000 DUP2 MSTORE PUSH1 0x4 ADD PUSH2 0xED9 SWAP1 PUSH2 0x19C9 JUMP JUMPDEST PUSH1 0x40 MLOAD DUP1 SWAP2 SUB SWAP1 REVERT JUMPDEST PUSH1 0x0 PUSH20 0xFFFFFFFFFFFFFFFFFFFFFFFFFFFFFFFFFFFFFFFF AND DUP2 PUSH20 0xFFFFFFFFFFFFFFFFFFFFFFFFFFFFFFFFFFFFFFFF AND EQ ISZERO PUSH2 0xF52 JUMPI PUSH1 0x40 MLOAD PUSH32 0x8C379A000000000000000000000000000000000000000000000000000000000 DUP2 MSTORE PUSH1 0x4 ADD PUSH2 0xF49 SWAP1 PUSH2 0x1B32 JUMP JUMPDEST PUSH1 0x40 MLOAD DUP1 SWAP2 SUB SWAP1 REVERT JUMPDEST PUSH2 0xF5B DUP2 PUSH2 0x10B1 JUMP JUMPDEST POP JUMP JUMPDEST PUSH1 0x0 PUSH11 0x52B7D2DCC80CD2E4000000 PUSH2 0xF79 DUP4 PUSH1 0x20 ADD MLOAD PUSH2 0x125A JUMP JUMPDEST DUP4 PUSH1 0x40 ADD MLOAD DUP5 PUSH1 0x0 ADD MLOAD PUSH2 0xF8D SWAP2 SWAP1 PUSH2 0x185C JUMP JUMPDEST PUSH2 0xF97 SWAP2 SWAP1 PUSH2 0x185C JUMP JUMPDEST PUSH2 0xFA1 SWAP2 SWAP1 PUSH2 0x18E5 JUMP JUMPDEST SWAP1 POP SWAP2 SWAP1 POP JUMP JUMPDEST PUSH1 0x0 PUSH4 0x1DFE200 PUSH2 0x3E8 PUSH1 0x4 SLOAD DUP5 PUSH2 0xFC0 SWAP2 SWAP1 PUSH2 0x185C JUMP JUMPDEST PUSH2 0xFCA SWAP2 SWAP1 PUSH2 0x18E5 JUMP JUMPDEST PUSH2 0xFD4 SWAP2 SWAP1 PUSH2 0x18E5 JUMP JUMPDEST SWAP1 POP SWAP2 SWAP1 POP JUMP JUMPDEST PUSH1 0x6 PUSH1 0x0 SWAP1 SLOAD SWAP1 PUSH2 0x100 EXP SWAP1 DIV PUSH1 0xFF AND PUSH2 0x1021 JUMPI PUSH1 0x40 MLOAD PUSH32 0xD4A7CB1900000000000000000000000000000000000000000000000000000000 DUP2 MSTORE PUSH1 0x4 ADD PUSH1 0x40 MLOAD DUP1 SWAP2 SUB SWAP1 REVERT JUMPDEST JUMP JUMPDEST PUSH2 0x10A4 DUP4 PUSH4 0xA9059CBB PUSH1 0xE0 SHL DUP5 DUP5 PUSH1 0x40 MLOAD PUSH1 0x24 ADD PUSH2 0x1042 SWAP3 SWAP2 SWAP1 PUSH2 0x1B52 JUMP JUMPDEST PUSH1 0x40 MLOAD PUSH1 0x20 DUP2 DUP4 SUB SUB DUP2 MSTORE SWAP1 PUSH1 0x40 MSTORE SWAP1 PUSH28 0xFFFFFFFFFFFFFFFFFFFFFFFFFFFFFFFFFFFFFFFFFFFFFFFFFFFFFFFF NOT AND PUSH1 0x20 DUP3 ADD DUP1 MLOAD PUSH28 0xFFFFFFFFFFFFFFFFFFFFFFFFFFFFFFFFFFFFFFFFFFFFFFFFFFFFFFFF DUP4 DUP2 DUP4 AND OR DUP4 MSTORE POP POP POP POP PUSH2 0x1293 JUMP JUMPDEST POP POP POP JUMP JUMPDEST PUSH1 0x0 CALLER SWAP1 POP SWAP1 JUMP JUMPDEST PUSH1 0x0 PUSH1 0x1 PUSH1 0x0 SWAP1 SLOAD SWAP1 PUSH2 0x100 EXP SWAP1 DIV PUSH20 0xFFFFFFFFFFFFFFFFFFFFFFFFFFFFFFFFFFFFFFFF AND SWAP1 POP DUP2 PUSH1 0x1 PUSH1 0x0 PUSH2 0x100 EXP DUP2 SLOAD DUP2 PUSH20 0xFFFFFFFFFFFFFFFFFFFFFFFFFFFFFFFFFFFFFFFF MUL NOT AND SWAP1 DUP4 PUSH20 0xFFFFFFFFFFFFFFFFFFFFFFFFFFFFFFFFFFFFFFFF AND MUL OR SWAP1 SSTORE POP DUP2 PUSH20 0xFFFFFFFFFFFFFFFFFFFFFFFFFFFFFFFFFFFFFFFF AND DUP2 PUSH20 0xFFFFFFFFFFFFFFFFFFFFFFFFFFFFFFFFFFFFFFFF AND PUSH32 0x8BE0079C531659141344CD1FD0A4F28419497F9722A3DAAFE3B4186F6B6457E0 PUSH1 0x40 MLOAD PUSH1 0x40 MLOAD DUP1 SWAP2 SUB SWAP1 LOG3 POP POP JUMP JUMPDEST PUSH2 0x11FA DUP5 PUSH4 0x23B872DD PUSH1 0xE0 SHL DUP6 DUP6 DUP6 PUSH1 0x40 MLOAD PUSH1 0x24 ADD PUSH2 0x1198 SWAP4 SWAP3 SWAP2 SWAP1 PUSH2 0x1B7B JUMP JUMPDEST PUSH1 0x40 MLOAD PUSH1 0x20 DUP2 DUP4 SUB SUB DUP2 MSTORE SWAP1 PUSH1 0x40 MSTORE SWAP1 PUSH28 0xFFFFFFFFFFFFFFFFFFFFFFFFFFFFFFFFFFFFFFFFFFFFFFFFFFFFFFFF NOT AND PUSH1 0x20 DUP3 ADD DUP1 MLOAD PUSH28 0xFFFFFFFFFFFFFFFFFFFFFFFFFFFFFFFFFFFFFFFFFFFFFFFFFFFFFFFF DUP4 DUP2 DUP4 AND OR DUP4 MSTORE POP POP POP POP PUSH2 0x1293 JUMP JUMPDEST POP POP POP POP JUMP JUMPDEST PUSH1 0x0 DUP1 PUSH2 0x3E8 PUSH1 0x3 SLOAD DUP6 PUSH2 0x1214 SWAP2 SWAP1 PUSH2 0x185C JUMP JUMPDEST PUSH2 0x121E SWAP2 SWAP1 PUSH2 0x18E5 JUMP JUMPDEST DUP5 PUSH2 0x1229 SWAP2 SWAP1 PUSH2 0x1A8C JUMP JUMPDEST PUSH2 0x3E8 PUSH1 0x3 SLOAD DUP6 PUSH2 0x123A SWAP2 SWAP1 PUSH2 0x185C JUMP JUMPDEST PUSH2 0x1244 SWAP2 SWAP1 PUSH2 0x18E5 JUMP JUMPDEST DUP5 PUSH2 0x124F SWAP2 SWAP1 PUSH2 0x1A8C JUMP JUMPDEST SWAP2 POP SWAP2 POP SWAP3 POP SWAP3 SWAP1 POP JUMP JUMPDEST PUSH1 0x0 PUSH4 0x1E13380 PUSH10 0xD3C21BCECCEDA1000000 DUP4 TIMESTAMP PUSH2 0x1278 SWAP2 SWAP1 PUSH2 0x1A8C JUMP JUMPDEST PUSH2 0x1282 SWAP2 SWAP1 PUSH2 0x185C JUMP JUMPDEST PUSH2 0x128C SWAP2 SWAP1 PUSH2 0x18E5 JUMP JUMPDEST SWAP1 POP SWAP2 SWAP1 POP JUMP JUMPDEST PUSH1 0x0 PUSH2 0x12F5 DUP3 PUSH1 0x40 MLOAD DUP1 PUSH1 0x40 ADD PUSH1 0x40 MSTORE DUP1 PUSH1 0x20 DUP2 MSTORE PUSH1 0x20 ADD PUSH32 0x5361666545524332303A206C6F772D6C6576656C2063616C6C206661696C6564 DUP2 MSTORE POP DUP6 PUSH20 0xFFFFFFFFFFFFFFFFFFFFFFFFFFFFFFFFFFFFFFFF AND PUSH2 0x135A SWAP1 SWAP3 SWAP2 SWAP1 PUSH4 0xFFFFFFFF AND JUMP JUMPDEST SWAP1 POP PUSH1 0x0 DUP2 MLOAD GT ISZERO PUSH2 0x1355 JUMPI DUP1 DUP1 PUSH1 0x20 ADD SWAP1 MLOAD DUP2 ADD SWAP1 PUSH2 0x1315 SWAP2 SWAP1 PUSH2 0x1BDE JUMP JUMPDEST PUSH2 0x1354 JUMPI PUSH1 0x40 MLOAD PUSH32 0x8C379A000000000000000000000000000000000000000000000000000000000 DUP2 MSTORE PUSH1 0x4 ADD PUSH2 0x134B SWAP1 PUSH2 0x1C7D JUMP JUMPDEST PUSH1 0x40 MLOAD DUP1 SWAP2 SUB SWAP1 REVERT JUMPDEST JUMPDEST POP POP POP JUMP JUMPDEST PUSH1 0x60 PUSH2 0x1369 DUP5 DUP5 PUSH1 0x0 DUP6 PUSH2 0x1372 JUMP JUMPDEST SWAP1 POP SWAP4 SWAP3 POP POP POP JUMP JUMPDEST PUSH1 0x60 DUP3 SELFBALANCE LT ISZERO PUSH2 0x13B7 JUMPI PUSH1 0x40 MLOAD PUSH32 0x8C379A000000000000000000000000000000000000000000000000000000000 DUP2 MSTORE PUSH1 0x4 ADD PUSH2 0x13AE SWAP1 PUSH2 0x1D0F JUMP JUMPDEST PUSH1 0x40 MLOAD DUP1 SWAP2 SUB SWAP1 REVERT JUMPDEST PUSH2 0x13C0 DUP6 PUSH2 0x1486 JUMP JUMPDEST PUSH2 0x13FF JUMPI PUSH1 0x40 MLOAD PUSH32 0x8C379A000000000000000000000000000000000000000000000000000000000 DUP2 MSTORE PUSH1 0x4 ADD PUSH2 0x13F6 SWAP1 PUSH2 0x1D7B JUMP JUMPDEST PUSH1 0x40 MLOAD DUP1 SWAP2 SUB SWAP1 REVERT JUMPDEST PUSH1 0x0 DUP1 DUP7 PUSH20 0xFFFFFFFFFFFFFFFFFFFFFFFFFFFFFFFFFFFFFFFF AND DUP6 DUP8 PUSH1 0x40 MLOAD PUSH2 0x1428 SWAP2 SWAP1 PUSH2 0x1E15 JUMP JUMPDEST PUSH1 0x0 PUSH1 0x40 MLOAD DUP1 DUP4 SUB DUP2 DUP6 DUP8 GAS CALL SWAP3 POP POP POP RETURNDATASIZE DUP1 PUSH1 0x0 DUP2 EQ PUSH2 0x1465 JUMPI PUSH1 0x40 MLOAD SWAP2 POP PUSH1 0x1F NOT PUSH1 0x3F RETURNDATASIZE ADD AND DUP3 ADD PUSH1 0x40 MSTORE RETURNDATASIZE DUP3 MSTORE RETURNDATASIZE PUSH1 0x0 PUSH1 0x20 DUP5 ADD RETURNDATACOPY PUSH2 0x146A JUMP JUMPDEST PUSH1 0x60 SWAP2 POP JUMPDEST POP SWAP2 POP SWAP2 POP PUSH2 0x147A DUP3 DUP3 DUP7 PUSH2 0x14A9 JUMP JUMPDEST SWAP3 POP POP POP SWAP5 SWAP4 POP POP POP POP JUMP JUMPDEST PUSH1 0x0 DUP1 DUP3 PUSH20 0xFFFFFFFFFFFFFFFFFFFFFFFFFFFFFFFFFFFFFFFF AND EXTCODESIZE GT SWAP1 POP SWAP2 SWAP1 POP JUMP JUMPDEST PUSH1 0x60 DUP4 ISZERO PUSH2 0x14B9 JUMPI DUP3 SWAP1 POP PUSH2 0x1509 JUMP JUMPDEST PUSH1 0x0 DUP4 MLOAD GT ISZERO PUSH2 0x14CC JUMPI DUP3 MLOAD DUP1 DUP5 PUSH1 0x20 ADD REVERT JUMPDEST DUP2 PUSH1 0x40 MLOAD PUSH32 0x8C379A000000000000000000000000000000000000000000000000000000000 DUP2 MSTORE PUSH1 0x4 ADD PUSH2 0x1500 SWAP2 SWAP1 PUSH2 0x1E81 JUMP JUMPDEST PUSH1 0x40 MLOAD DUP1 SWAP2 SUB SWAP1 REVERT JUMPDEST SWAP4 SWAP3 POP POP POP JUMP JUMPDEST PUSH1 0x40 MLOAD DUP1 PUSH1 0x60 ADD PUSH1 0x40 MSTORE DUP1 PUSH1 0x0 DUP2 MSTORE PUSH1 0x20 ADD PUSH1 0x0 DUP2 MSTORE PUSH1 0x20 ADD PUSH2 0x1531 PUSH2 0x1537 JUMP JUMPDEST DUP2 MSTORE POP SWAP1 JUMP JUMPDEST PUSH1 0x40 MLOAD DUP1 PUSH1 0xE0 ADD PUSH1 0x40 MSTORE DUP1 PUSH1 0x0 DUP2 MSTORE PUSH1 0x20 ADD PUSH1 0x0 DUP2 MSTORE PUSH1 0x20 ADD PUSH1 0x0 DUP2 MSTORE PUSH1 0x20 ADD PUSH1 0x0 DUP2 MSTORE PUSH1 0x20 ADD PUSH1 0x0 DUP2 MSTORE PUSH1 0x20 ADD PUSH1 0x0 DUP2 MSTORE PUSH1 0x20 ADD PUSH1 0x0 DUP2 MSTORE POP SWAP1 JUMP JUMPDEST PUSH1 0x0 DUP2 SWAP1 POP SWAP2 SWAP1 POP JUMP JUMPDEST PUSH2 0x1587 DUP2 PUSH2 0x1574 JUMP JUMPDEST DUP3 MSTORE POP POP JUMP JUMPDEST PUSH1 0xE0 DUP3 ADD PUSH1 0x0 DUP3 ADD MLOAD PUSH2 0x15A3 PUSH1 0x0 DUP6 ADD DUP3 PUSH2 0x157E JUMP JUMPDEST POP PUSH1 0x20 DUP3 ADD MLOAD PUSH2 0x15B6 PUSH1 0x20 DUP6 ADD DUP3 PUSH2 0x157E JUMP JUMPDEST POP PUSH1 0x40 DUP3 ADD MLOAD PUSH2 0x15C9 PUSH1 0x40 DUP6 ADD DUP3 PUSH2 0x157E JUMP JUMPDEST POP PUSH1 0x60 DUP3 ADD MLOAD PUSH2 0x15DC PUSH1 0x60 DUP6 ADD DUP3 PUSH2 0x157E JUMP JUMPDEST POP PUSH1 0x80 DUP3 ADD MLOAD PUSH2 0x15EF PUSH1 0x80 DUP6 ADD DUP3 PUSH2 0x157E JUMP JUMPDEST POP PUSH1 0xA0 DUP3 ADD MLOAD PUSH2 0x1602 PUSH1 0xA0 DUP6 ADD DUP3 PUSH2 0x157E JUMP JUMPDEST POP PUSH1 0xC0 DUP3 ADD MLOAD PUSH2 0x1615 PUSH1 0xC0 DUP6 ADD DUP3 PUSH2 0x157E JUMP JUMPDEST POP POP POP POP JUMP JUMPDEST PUSH2 0x120 DUP3 ADD PUSH1 0x0 DUP3 ADD MLOAD PUSH2 0x1632 PUSH1 0x0 DUP6 ADD DUP3 PUSH2 0x157E JUMP JUMPDEST POP PUSH1 0x20 DUP3 ADD MLOAD PUSH2 0x1645 PUSH1 0x20 DUP6 ADD DUP3 PUSH2 0x157E JUMP JUMPDEST POP PUSH1 0x40 DUP3 ADD MLOAD PUSH2 0x1658 PUSH1 0x40 DUP6 ADD DUP3 PUSH2 0x158D JUMP JUMPDEST POP POP POP POP JUMP JUMPDEST PUSH1 0x0 PUSH2 0x120 DUP3 ADD SWAP1 POP PUSH2 0x1674 PUSH1 0x0 DUP4 ADD DUP5 PUSH2 0x161B JUMP JUMPDEST SWAP3 SWAP2 POP POP JUMP JUMPDEST PUSH1 0x0 DUP2 ISZERO ISZERO SWAP1 POP SWAP2 SWAP1 POP JUMP JUMPDEST PUSH2 0x168F DUP2 PUSH2 0x167A JUMP JUMPDEST DUP3 MSTORE POP POP JUMP JUMPDEST PUSH1 0x0 PUSH1 0x20 DUP3 ADD SWAP1 POP PUSH2 0x16AA PUSH1 0x0 DUP4 ADD DUP5 PUSH2 0x1686 JUMP JUMPDEST SWAP3 SWAP2 POP POP JUMP JUMPDEST PUSH1 0x0 DUP1 REVERT JUMPDEST PUSH2 0x16BE DUP2 PUSH2 0x1574 JUMP JUMPDEST DUP2 EQ PUSH2 0x16C9 JUMPI PUSH1 0x0 DUP1 REVERT JUMPDEST POP JUMP JUMPDEST PUSH1 0x0 DUP2 CALLDATALOAD SWAP1 POP PUSH2 0x16DB DUP2 PUSH2 0x16B5 JUMP JUMPDEST SWAP3 SWAP2 POP POP JUMP JUMPDEST PUSH1 0x0 DUP1 PUSH1 0x40 DUP4 DUP6 SUB SLT ISZERO PUSH2 0x16F8 JUMPI PUSH2 0x16F7 PUSH2 0x16B0 JUMP JUMPDEST JUMPDEST PUSH1 0x0 PUSH2 0x1706 DUP6 DUP3 DUP7 ADD PUSH2 0x16CC JUMP JUMPDEST SWAP3 POP POP PUSH1 0x20 PUSH2 0x1717 DUP6 DUP3 DUP7 ADD PUSH2 0x16CC JUMP JUMPDEST SWAP2 POP POP SWAP3 POP SWAP3 SWAP1 POP JUMP JUMPDEST PUSH2 0x172A DUP2 PUSH2 0x1574 JUMP JUMPDEST DUP3 MSTORE POP POP JUMP JUMPDEST PUSH1 0x0 PUSH1 0x20 DUP3 ADD SWAP1 POP PUSH2 0x1745 PUSH1 0x0 DUP4 ADD DUP5 PUSH2 0x1721 JUMP JUMPDEST SWAP3 SWAP2 POP POP JUMP JUMPDEST PUSH1 0x0 PUSH1 0x20 DUP3 DUP5 SUB SLT ISZERO PUSH2 0x1761 JUMPI PUSH2 0x1760 PUSH2 0x16B0 JUMP JUMPDEST JUMPDEST PUSH1 0x0 PUSH2 0x176F DUP5 DUP3 DUP6 ADD PUSH2 0x16CC JUMP JUMPDEST SWAP2 POP POP SWAP3 SWAP2 POP POP JUMP JUMPDEST PUSH1 0x0 PUSH20 0xFFFFFFFFFFFFFFFFFFFFFFFFFFFFFFFFFFFFFFFF DUP3 AND SWAP1 POP SWAP2 SWAP1 POP JUMP JUMPDEST PUSH1 0x0 PUSH2 0x17A3 DUP3 PUSH2 0x1778 JUMP JUMPDEST SWAP1 POP SWAP2 SWAP1 POP JUMP JUMPDEST PUSH2 0x17B3 DUP2 PUSH2 0x1798 JUMP JUMPDEST DUP3 MSTORE POP POP JUMP JUMPDEST PUSH1 0x0 PUSH1 0x20 DUP3 ADD SWAP1 POP PUSH2 0x17CE PUSH1 0x0 DUP4 ADD DUP5 PUSH2 0x17AA JUMP JUMPDEST SWAP3 SWAP2 POP POP JUMP JUMPDEST PUSH2 0x17DD DUP2 PUSH2 0x1798 JUMP JUMPDEST DUP2 EQ PUSH2 0x17E8 JUMPI PUSH1 0x0 DUP1 REVERT JUMPDEST POP JUMP JUMPDEST PUSH1 0x0 DUP2 CALLDATALOAD SWAP1 POP PUSH2 0x17FA DUP2 PUSH2 0x17D4 JUMP JUMPDEST SWAP3 SWAP2 POP POP JUMP JUMPDEST PUSH1 0x0 PUSH1 0x20 DUP3 DUP5 SUB SLT ISZERO PUSH2 0x1816 JUMPI PUSH2 0x1815 PUSH2 0x16B0 JUMP JUMPDEST JUMPDEST PUSH1 0x0 PUSH2 0x1824 DUP5 DUP3 DUP6 ADD PUSH2 0x17EB JUMP JUMPDEST SWAP2 POP POP SWAP3 SWAP2 POP POP JUMP JUMPDEST PUSH32 0x4E487B7100000000000000000000000000000000000000000000000000000000 PUSH1 0x0 MSTORE PUSH1 0x11 PUSH1 0x4 MSTORE PUSH1 0x24 PUSH1 0x0 REVERT JUMPDEST PUSH1 0x0 PUSH2 0x1867 DUP3 PUSH2 0x1574 JUMP JUMPDEST SWAP2 POP PUSH2 0x1872 DUP4 PUSH2 0x1574 JUMP JUMPDEST SWAP3 POP DUP2 PUSH32 0xFFFFFFFFFFFFFFFFFFFFFFFFFFFFFFFFFFFFFFFFFFFFFFFFFFFFFFFFFFFFFFFF DIV DUP4 GT DUP3 ISZERO ISZERO AND ISZERO PUSH2 0x18AB JUMPI PUSH2 0x18AA PUSH2 0x182D JUMP JUMPDEST JUMPDEST DUP3 DUP3 MUL SWAP1 POP SWAP3 SWAP2 POP POP JUMP JUMPDEST PUSH32 0x4E487B7100000000000000000000000000000000000000000000000000000000 PUSH1 0x0 MSTORE PUSH1 0x12 PUSH1 0x4 MSTORE PUSH1 0x24 PUSH1 0x0 REVERT JUMPDEST PUSH1 0x0 PUSH2 0x18F0 DUP3 PUSH2 0x1574 JUMP JUMPDEST SWAP2 POP PUSH2 0x18FB DUP4 PUSH2 0x1574 JUMP JUMPDEST SWAP3 POP DUP3 PUSH2 0x190B JUMPI PUSH2 0x190A PUSH2 0x18B6 JUMP JUMPDEST JUMPDEST DUP3 DUP3 DIV SWAP1 POP SWAP3 SWAP2 POP POP JUMP JUMPDEST PUSH1 0x0 PUSH2 0x1921 DUP3 PUSH2 0x1574 JUMP JUMPDEST SWAP2 POP PUSH2 0x192C DUP4 PUSH2 0x1574 JUMP JUMPDEST SWAP3 POP DUP3 PUSH32 0xFFFFFFFFFFFFFFFFFFFFFFFFFFFFFFFFFFFFFFFFFFFFFFFFFFFFFFFFFFFFFFFF SUB DUP3 GT ISZERO PUSH2 0x1961 JUMPI PUSH2 0x1960 PUSH2 0x182D JUMP JUMPDEST JUMPDEST DUP3 DUP3 ADD SWAP1 POP SWAP3 SWAP2 POP POP JUMP JUMPDEST PUSH1 0x0 DUP3 DUP3 MSTORE PUSH1 0x20 DUP3 ADD SWAP1 POP SWAP3 SWAP2 POP POP JUMP JUMPDEST PUSH32 0x4F776E61626C653A2063616C6C6572206973206E6F7420746865206F776E6572 PUSH1 0x0 DUP3 ADD MSTORE POP JUMP JUMPDEST PUSH1 0x0 PUSH2 0x19B3 PUSH1 0x20 DUP4 PUSH2 0x196C JUMP JUMPDEST SWAP2 POP PUSH2 0x19BE DUP3 PUSH2 0x197D JUMP JUMPDEST PUSH1 0x20 DUP3 ADD SWAP1 POP SWAP2 SWAP1 POP JUMP JUMPDEST PUSH1 0x0 PUSH1 0x20 DUP3 ADD SWAP1 POP DUP2 DUP2 SUB PUSH1 0x0 DUP4 ADD MSTORE PUSH2 0x19E2 DUP2 PUSH2 0x19A6 JUMP JUMPDEST SWAP1 POP SWAP2 SWAP1 POP JUMP JUMPDEST PUSH32 0x5265656E7472616E637947756172643A207265656E7472616E742063616C6C00 PUSH1 0x0 DUP3 ADD MSTORE POP JUMP JUMPDEST PUSH1 0x0 PUSH2 0x1A1F PUSH1 0x1F DUP4 PUSH2 0x196C JUMP JUMPDEST SWAP2 POP PUSH2 0x1A2A DUP3 PUSH2 0x19E9 JUMP JUMPDEST PUSH1 0x20 DUP3 ADD SWAP1 POP SWAP2 SWAP1 POP JUMP JUMPDEST PUSH1 0x0 PUSH1 0x20 DUP3 ADD SWAP1 POP DUP2 DUP2 SUB PUSH1 0x0 DUP4 ADD MSTORE PUSH2 0x1A4E DUP2 PUSH2 0x1A12 JUMP JUMPDEST SWAP1 POP SWAP2 SWAP1 POP JUMP JUMPDEST PUSH1 0x0 PUSH1 0x60 DUP3 ADD SWAP1 POP PUSH2 0x1A6A PUSH1 0x0 DUP4 ADD DUP7 PUSH2 0x1721 JUMP JUMPDEST PUSH2 0x1A77 PUSH1 0x20 DUP4 ADD DUP6 PUSH2 0x1721 JUMP JUMPDEST PUSH2 0x1A84 PUSH1 0x40 DUP4 ADD DUP5 PUSH2 0x1721 JUMP JUMPDEST SWAP5 SWAP4 POP POP POP POP JUMP JUMPDEST PUSH1 0x0 PUSH2 0x1A97 DUP3 PUSH2 0x1574 JUMP JUMPDEST SWAP2 POP PUSH2 0x1AA2 DUP4 PUSH2 0x1574 JUMP JUMPDEST SWAP3 POP DUP3 DUP3 LT ISZERO PUSH2 0x1AB5 JUMPI PUSH2 0x1AB4 PUSH2 0x182D JUMP JUMPDEST JUMPDEST DUP3 DUP3 SUB SWAP1 POP SWAP3 SWAP2 POP POP JUMP JUMPDEST PUSH32 0x4F776E61626C653A206E6577206F776E657220697320746865207A65726F2061 PUSH1 0x0 DUP3 ADD MSTORE PUSH32 0x6464726573730000000000000000000000000000000000000000000000000000 PUSH1 0x20 DUP3 ADD MSTORE POP JUMP JUMPDEST PUSH1 0x0 PUSH2 0x1B1C PUSH1 0x26 DUP4 PUSH2 0x196C JUMP JUMPDEST SWAP2 POP PUSH2 0x1B27 DUP3 PUSH2 0x1AC0 JUMP JUMPDEST PUSH1 0x40 DUP3 ADD SWAP1 POP SWAP2 SWAP1 POP JUMP JUMPDEST PUSH1 0x0 PUSH1 0x20 DUP3 ADD SWAP1 POP DUP2 DUP2 SUB PUSH1 0x0 DUP4 ADD MSTORE PUSH2 0x1B4B DUP2 PUSH2 0x1B0F JUMP JUMPDEST SWAP1 POP SWAP2 SWAP1 POP JUMP JUMPDEST PUSH1 0x0 PUSH1 0x40 DUP3 ADD SWAP1 POP PUSH2 0x1B67 PUSH1 0x0 DUP4 ADD DUP6 PUSH2 0x17AA JUMP JUMPDEST PUSH2 0x1B74 PUSH1 0x20 DUP4 ADD DUP5 PUSH2 0x1721 JUMP JUMPDEST SWAP4 SWAP3 POP POP POP JUMP JUMPDEST PUSH1 0x0 PUSH1 0x60 DUP3 ADD SWAP1 POP PUSH2 0x1B90 PUSH1 0x0 DUP4 ADD DUP7 PUSH2 0x17AA JUMP JUMPDEST PUSH2 0x1B9D PUSH1 0x20 DUP4 ADD DUP6 PUSH2 0x17AA JUMP JUMPDEST PUSH2 0x1BAA PUSH1 0x40 DUP4 ADD DUP5 PUSH2 0x1721 JUMP JUMPDEST SWAP5 SWAP4 POP POP POP POP JUMP JUMPDEST PUSH2 0x1BBB DUP2 PUSH2 0x167A JUMP JUMPDEST DUP2 EQ PUSH2 0x1BC6 JUMPI PUSH1 0x0 DUP1 REVERT JUMPDEST POP JUMP JUMPDEST PUSH1 0x0 DUP2 MLOAD SWAP1 POP PUSH2 0x1BD8 DUP2 PUSH2 0x1BB2 JUMP JUMPDEST SWAP3 SWAP2 POP POP JUMP JUMPDEST PUSH1 0x0 PUSH1 0x20 DUP3 DUP5 SUB SLT ISZERO PUSH2 0x1BF4 JUMPI PUSH2 0x1BF3 PUSH2 0x16B0 JUMP JUMPDEST JUMPDEST PUSH1 0x0 PUSH2 0x1C02 DUP5 DUP3 DUP6 ADD PUSH2 0x1BC9 JUMP JUMPDEST SWAP2 POP POP SWAP3 SWAP2 POP POP JUMP JUMPDEST PUSH32 0x5361666545524332303A204552433230206F7065726174696F6E20646964206E PUSH1 0x0 DUP3 ADD MSTORE PUSH32 0x6F74207375636365656400000000000000000000000000000000000000000000 PUSH1 0x20 DUP3 ADD MSTORE POP JUMP JUMPDEST PUSH1 0x0 PUSH2 0x1C67 PUSH1 0x2A DUP4 PUSH2 0x196C JUMP JUMPDEST SWAP2 POP PUSH2 0x1C72 DUP3 PUSH2 0x1C0B JUMP JUMPDEST PUSH1 0x40 DUP3 ADD SWAP1 POP SWAP2 SWAP1 POP JUMP JUMPDEST PUSH1 0x0 PUSH1 0x20 DUP3 ADD SWAP1 POP DUP2 DUP2 SUB PUSH1 0x0 DUP4 ADD MSTORE PUSH2 0x1C96 DUP2 PUSH2 0x1C5A JUMP JUMPDEST SWAP1 POP SWAP2 SWAP1 POP JUMP JUMPDEST PUSH32 0x416464726573733A20696E73756666696369656E742062616C616E636520666F PUSH1 0x0 DUP3 ADD MSTORE PUSH32 0x722063616C6C0000000000000000000000000000000000000000000000000000 PUSH1 0x20 DUP3 ADD MSTORE POP JUMP JUMPDEST PUSH1 0x0 PUSH2 0x1CF9 PUSH1 0x26 DUP4 PUSH2 0x196C JUMP JUMPDEST SWAP2 POP PUSH2 0x1D04 DUP3 PUSH2 0x1C9D JUMP JUMPDEST PUSH1 0x40 DUP3 ADD SWAP1 POP SWAP2 SWAP1 POP JUMP JUMPDEST PUSH1 0x0 PUSH1 0x20 DUP3 ADD SWAP1 POP DUP2 DUP2 SUB PUSH1 0x0 DUP4 ADD MSTORE PUSH2 0x1D28 DUP2 PUSH2 0x1CEC JUMP JUMPDEST SWAP1 POP SWAP2 SWAP1 POP JUMP JUMPDEST PUSH32 0x416464726573733A2063616C6C20746F206E6F6E2D636F6E7472616374000000 PUSH1 0x0 DUP3 ADD MSTORE POP JUMP JUMPDEST PUSH1 0x0 PUSH2 0x1D65 PUSH1 0x1D DUP4 PUSH2 0x196C JUMP JUMPDEST SWAP2 POP PUSH2 0x1D70 DUP3 PUSH2 0x1D2F JUMP JUMPDEST PUSH1 0x20 DUP3 ADD SWAP1 POP SWAP2 SWAP1 POP JUMP JUMPDEST PUSH1 0x0 PUSH1 0x20 DUP3 ADD SWAP1 POP DUP2 DUP2 SUB PUSH1 0x0 DUP4 ADD MSTORE PUSH2 0x1D94 DUP2 PUSH2 0x1D58 JUMP JUMPDEST SWAP1 POP SWAP2 SWAP1 POP JUMP JUMPDEST PUSH1 0x0 DUP2 MLOAD SWAP1 POP SWAP2 SWAP1 POP JUMP JUMPDEST PUSH1 0x0 DUP2 SWAP1 POP SWAP3 SWAP2 POP POP JUMP JUMPDEST PUSH1 0x0 JUMPDEST DUP4 DUP2 LT ISZERO PUSH2 0x1DCF JUMPI DUP1 DUP3 ADD MLOAD DUP2 DUP5 ADD MSTORE PUSH1 0x20 DUP2 ADD SWAP1 POP PUSH2 0x1DB4 JUMP JUMPDEST DUP4 DUP2 GT ISZERO PUSH2 0x1DDE JUMPI PUSH1 0x0 DUP5 DUP5 ADD MSTORE JUMPDEST POP POP POP POP JUMP JUMPDEST PUSH1 0x0 PUSH2 0x1DEF DUP3 PUSH2 0x1D9B JUMP JUMPDEST PUSH2 0x1DF9 DUP2 DUP6 PUSH2 0x1DA6 JUMP JUMPDEST SWAP4 POP PUSH2 0x1E09 DUP2 DUP6 PUSH1 0x20 DUP7 ADD PUSH2 0x1DB1 JUMP JUMPDEST DUP1 DUP5 ADD SWAP2 POP POP SWAP3 SWAP2 POP POP JUMP JUMPDEST PUSH1 0x0 PUSH2 0x1E21 DUP3 DUP5 PUSH2 0x1DE4 JUMP JUMPDEST SWAP2 POP DUP2 SWAP1 POP SWAP3 SWAP2 POP POP JUMP JUMPDEST PUSH1 0x0 DUP2 MLOAD SWAP1 POP SWAP2 SWAP1 POP JUMP JUMPDEST PUSH1 0x0 PUSH1 0x1F NOT PUSH1 0x1F DUP4 ADD AND SWAP1 POP SWAP2 SWAP1 POP JUMP JUMPDEST PUSH1 0x0 PUSH2 0x1E53 DUP3 PUSH2 0x1E2C JUMP JUMPDEST PUSH2 0x1E5D DUP2 DUP6 PUSH2 0x196C JUMP JUMPDEST SWAP4 POP PUSH2 0x1E6D DUP2 DUP6 PUSH1 0x20 DUP7 ADD PUSH2 0x1DB1 JUMP JUMPDEST PUSH2 0x1E76 DUP2 PUSH2 0x1E37 JUMP JUMPDEST DUP5 ADD SWAP2 POP POP SWAP3 SWAP2 POP POP JUMP JUMPDEST PUSH1 0x0 PUSH1 0x20 DUP3 ADD SWAP1 POP DUP2 DUP2 SUB PUSH1 0x0 DUP4 ADD MSTORE PUSH2 0x1E9B DUP2 DUP5 PUSH2 0x1E48 JUMP JUMPDEST SWAP1 POP SWAP3 SWAP2 POP POP JUMP INVALID LOG2 PUSH5 0x6970667358 0x22 SLT KECCAK256 MLOAD DUP6 PUSH28 0xB0CE65A0DD215A77AEE6572C8F1F14C953ECD7B4396968118E2DE6EF 0xAB PUSH5 0x736F6C6343 STOP ADDMOD SIGNEXTEND STOP CALLER "
		},
		"gasEstimates": {
			"creation": {
				"codeDepositCost": "1579400",
				"executionCost": "infinite",
				"totalCost": "infinite"
			},
			"external": {
				"airdropRate()": "2474",
				"airdropSince()": "2518",
				"airdropStatus()": "2517",
				"blockTimestamp()": "381",
				"calculateWeek(uint256)": "infinite",
				"changeAirdropPercentage(uint256)": "infinite",
				"changePenaltyFee(uint256)": "infinite",
				"claimAirdrop()": "infinite",
				"hasStake()": "infinite",
				"owner()": "2545",
				"renounceOwnership()": "30464",
				"stake(uint256,uint256)": "infinite",
				"stakingPenaltyRate()": "2473",
				"startAirdrop()": "48830",
				"token_address()": "2653",
				"transferOwnership(address)": "30833",
				"withdrawStake()": "infinite"
			},
			"internal": {
				"_calculateAirdrop(uint256)": "infinite",
				"_calculateStakeReward(struct Staking.Stake memory)": "infinite",
				"_calculateStakingDuration(uint256)": "infinite",
				"_calculateStakingWithPenalty(uint256,uint256)": "infinite",
				"_checkAirdropStatus()": "infinite"
			}
		},
		"methodIdentifiers": {
			"airdropRate()": "8891cf0d",
			"airdropSince()": "b87da76d",
			"airdropStatus()": "2cf1a5fb",
			"blockTimestamp()": "adb61832",
			"calculateWeek(uint256)": "b5d9df83",
			"changeAirdropPercentage(uint256)": "d5dbdf1b",
			"changePenaltyFee(uint256)": "8c63f97f",
			"claimAirdrop()": "5b88349d",
			"hasStake()": "10486b6a",
			"owner()": "8da5cb5b",
			"renounceOwnership()": "715018a6",
			"stake(uint256,uint256)": "7b0472f0",
			"stakingPenaltyRate()": "cb79c2e1",
			"startAirdrop()": "d2a569c3",
			"token_address()": "8c8e8fee",
			"transferOwnership(address)": "f2fde38b",
			"withdrawStake()": "bed9d861"
		}
	},
	"abi": [
		{
			"inputs": [
				{
					"internalType": "address",
					"name": "token",
					"type": "address"
				}
			],
			"stateMutability": "nonpayable",
			"type": "constructor"
		},
		{
			"inputs": [],
			"name": "Airdrop__claimableOnceAWeek",
			"type": "error"
		},
		{
			"inputs": [],
			"name": "Airdrop__notStarted",
			"type": "error"
		},
		{
			"inputs": [],
			"name": "Staking__airdropExceed20Percent",
			"type": "error"
		},
		{
			"inputs": [],
			"name": "Staking__noStakingFound",
			"type": "error"
		},
		{
			"inputs": [],
			"name": "Staking__penaltyExceed3Percent",
			"type": "error"
		},
		{
			"inputs": [],
			"name": "Staking__userIsStaker",
			"type": "error"
		},
		{
			"inputs": [],
			"name": "Staking_noStakingPackageFound",
			"type": "error"
		},
		{
			"anonymous": false,
			"inputs": [
				{
					"indexed": false,
					"internalType": "uint256",
					"name": "amount",
					"type": "uint256"
				}
			],
			"name": "AirdropChanged",
			"type": "event"
		},
		{
			"anonymous": false,
			"inputs": [
				{
					"indexed": true,
					"internalType": "address",
					"name": "previousOwner",
					"type": "address"
				},
				{
					"indexed": true,
					"internalType": "address",
					"name": "newOwner",
					"type": "address"
				}
			],
			"name": "OwnershipTransferred",
			"type": "event"
		},
		{
			"anonymous": false,
			"inputs": [
				{
					"indexed": false,
					"internalType": "uint256",
					"name": "amount",
					"type": "uint256"
				}
			],
			"name": "PenaltyChanged",
			"type": "event"
		},
		{
			"anonymous": false,
			"inputs": [
				{
					"indexed": true,
					"internalType": "address",
					"name": "user",
					"type": "address"
				},
				{
					"indexed": false,
					"internalType": "uint256",
					"name": "amount",
					"type": "uint256"
				},
				{
					"indexed": false,
					"internalType": "uint256",
					"name": "timestamp",
					"type": "uint256"
				},
				{
					"indexed": false,
					"internalType": "uint256",
					"name": "releaseTime",
					"type": "uint256"
				}
			],
			"name": "Staked",
			"type": "event"
		},
		{
			"inputs": [],
			"name": "airdropRate",
			"outputs": [
				{
					"internalType": "uint256",
					"name": "",
					"type": "uint256"
				}
			],
			"stateMutability": "view",
			"type": "function"
		},
		{
			"inputs": [],
			"name": "airdropSince",
			"outputs": [
				{
					"internalType": "uint256",
					"name": "",
					"type": "uint256"
				}
			],
			"stateMutability": "view",
			"type": "function"
		},
		{
			"inputs": [],
			"name": "airdropStatus",
			"outputs": [
				{
					"internalType": "bool",
					"name": "",
					"type": "bool"
				}
			],
			"stateMutability": "view",
			"type": "function"
		},
		{
			"inputs": [],
			"name": "blockTimestamp",
			"outputs": [
				{
					"internalType": "uint256",
					"name": "",
					"type": "uint256"
				}
			],
			"stateMutability": "view",
			"type": "function"
		},
		{
			"inputs": [
				{
					"internalType": "uint256",
					"name": "timestamp",
					"type": "uint256"
				}
			],
			"name": "calculateWeek",
			"outputs": [
				{
					"internalType": "uint256",
					"name": "",
					"type": "uint256"
				}
			],
			"stateMutability": "view",
			"type": "function"
		},
		{
			"inputs": [
				{
					"internalType": "uint256",
					"name": "amount",
					"type": "uint256"
				}
			],
			"name": "changeAirdropPercentage",
			"outputs": [],
			"stateMutability": "nonpayable",
			"type": "function"
		},
		{
			"inputs": [
				{
					"internalType": "uint256",
					"name": "amount",
					"type": "uint256"
				}
			],
			"name": "changePenaltyFee",
			"outputs": [],
			"stateMutability": "nonpayable",
			"type": "function"
		},
		{
			"inputs": [],
			"name": "claimAirdrop",
			"outputs": [],
			"stateMutability": "nonpayable",
			"type": "function"
		},
		{
			"inputs": [],
			"name": "hasStake",
			"outputs": [
				{
					"components": [
						{
							"internalType": "uint256",
							"name": "total_amount",
							"type": "uint256"
						},
						{
							"internalType": "uint256",
							"name": "penalty",
							"type": "uint256"
						},
						{
							"components": [
								{
									"internalType": "uint256",
									"name": "amount",
									"type": "uint256"
								},
								{
									"internalType": "uint256",
									"name": "since",
									"type": "uint256"
								},
								{
									"internalType": "uint256",
									"name": "rewardAPY",
									"type": "uint256"
								},
								{
									"internalType": "uint256",
									"name": "releaseTime",
									"type": "uint256"
								},
								{
									"internalType": "uint256",
									"name": "claimable",
									"type": "uint256"
								},
								{
									"internalType": "uint256",
									"name": "claimableAirdrop",
									"type": "uint256"
								},
								{
									"internalType": "uint256",
									"name": "latestClaimDrop",
									"type": "uint256"
								}
							],
							"internalType": "struct Staking.Stake",
							"name": "stake",
							"type": "tuple"
						}
					],
					"internalType": "struct Staking.StakingSummary",
					"name": "",
					"type": "tuple"
				}
			],
			"stateMutability": "view",
			"type": "function"
		},
		{
			"inputs": [],
			"name": "owner",
			"outputs": [
				{
					"internalType": "address",
					"name": "",
					"type": "address"
				}
			],
			"stateMutability": "view",
			"type": "function"
		},
		{
			"inputs": [],
			"name": "renounceOwnership",
			"outputs": [],
			"stateMutability": "nonpayable",
			"type": "function"
		},
		{
			"inputs": [
				{
					"internalType": "uint256",
					"name": "amount",
					"type": "uint256"
				},
				{
					"internalType": "uint256",
					"name": "stakePeriod",
					"type": "uint256"
				}
			],
			"name": "stake",
			"outputs": [],
			"stateMutability": "nonpayable",
			"type": "function"
		},
		{
			"inputs": [],
			"name": "stakingPenaltyRate",
			"outputs": [
				{
					"internalType": "uint256",
					"name": "",
					"type": "uint256"
				}
			],
			"stateMutability": "view",
			"type": "function"
		},
		{
			"inputs": [],
			"name": "startAirdrop",
			"outputs": [],
			"stateMutability": "nonpayable",
			"type": "function"
		},
		{
			"inputs": [],
			"name": "token_address",
			"outputs": [
				{
					"internalType": "address",
					"name": "",
					"type": "address"
				}
			],
			"stateMutability": "view",
			"type": "function"
		},
		{
			"inputs": [
				{
					"internalType": "address",
					"name": "newOwner",
					"type": "address"
				}
			],
			"name": "transferOwnership",
			"outputs": [],
			"stateMutability": "nonpayable",
			"type": "function"
		},
		{
			"inputs": [],
			"name": "withdrawStake",
			"outputs": [],
			"stateMutability": "nonpayable",
			"type": "function"
		}
	]
}