{
	"data": {
		"bytecode": {
			"linkReferences": {},
			"object": "608060405234801561001057600080fd5b50600f6000556050600155610a9c8061002a6000396000f3fe608060405234801561001057600080fd5b50600436106100c95760003560e01c8063a143a5f211610081578063b87da76d1161005b578063b87da76d146101ef578063cb79c2e1146101f8578063cbb3e1521461020157600080fd5b8063a143a5f214610189578063a3ec138d146101a9578063a7771ee3146101dc57600080fd5b80635f5300ff116100b25780635f5300ff14610161578063632a9a52146101785780638891cf0d1461018057600080fd5b8063070c8b74146100ce57806310486b6a146100d8575b600080fd5b6100d6610209565b005b6100e0610318565b6040516101589190600061012082019050825182526020830151602083015260408301516001600160a01b0381511660408401526020810151606084015260408101516080840152606081015160a0840152608081015160c084015260a081015160e084015260c08101516101008401525092915050565b60405180910390f35b61016a60055481565b604051908152602001610158565b6100d6610480565b61016a60015481565b61016a610197366004610933565b60076020526000908152604090205481565b6101cc6101b736600461094c565b60066020526000908152604090205460ff1681565b6040519015158152602001610158565b6101cc6101ea36600461094c565b6105a3565b61016a60025481565b61016a60005481565b61016a61061a565b61021161064d565b3360009081526006602052604090205460ff16151560011461027a5760405162461bcd60e51b815260206004820152601360248201527f596f7520617265206e6f74206120766f7465720000000000000000000000000060448201526064015b60405180910390fd5b336000908152600660209081526040808320600454845260019081019092529091205460ff161515146102ef5760405162461bcd60e51b815260206004820152601660248201527f596f752068617665206e6f7420766f74656420796574000000000000000000006044820152606401610271565b600454600090815260076020526040812080546001929061031190849061098b565b9091555050565b6103206108cc565b33600090815260086020818152604080842081516101408101835281546001600160a01b03908116606080840191825260018501546080850152600285015460a0850152600385015460c0850152600485015460e0850152600585015461010085015260068501546101208501529083526007840154909116828601529190940154848301528151908101825284815280830194909452825190840181905201519091906103cd906106a1565b60006103dc82604001516106f4565b9050600042836040015160c0015111156104195760008061040585604001516020015185610752565b909250905061041481836109a2565b925050505b60006104288560400151610786565b111561045057600061044184604001516020015161079f565b6040850151608001525061045e565b604083015160006080909101525b6040830180516060019290925260208084019190915290510151815292915050565b61048861064d565b3360009081526006602052604090205460ff1615156001146104ec5760405162461bcd60e51b815260206004820152601360248201527f596f7520617265206e6f74206120766f746572000000000000000000000000006044820152606401610271565b336000908152600660209081526040808320600454845260010190915290205460ff161561055c5760405162461bcd60e51b815260206004820152601560248201527f596f75206861766520766f746564206265666f726500000000000000000000006044820152606401610271565b33600090815260066020908152604080832060048054855260019182018452828520805460ff191683179055548452600790925282208054919290916103119084906109a2565b60006001600160a01b0382166105fb5760405162461bcd60e51b815260206004820152600f60248201527f496e76616c6964206164647265737300000000000000000000000000000000006044820152606401610271565b506001600160a01b031660009081526006602052604090205460ff1690565b60006002546000146106475762093a8060025442610638919061098b565b61064291906109d0565b905090565b50600090565b60035460ff1661069f5760405162461bcd60e51b815260206004820152601760248201527f566f74696e67206973206e6f7420617661696c61626c650000000000000000006044820152606401610271565b565b600081116106f15760405162461bcd60e51b815260206004820152600e60248201527f4e6f205374616b6520466f756e640000000000000000000000000000000000006044820152606401610271565b50565b600081602001516000141561070b57506000919050565b6a52b7d2dcc80cd2e400000061072483604001516107c1565b8360a00151846020015161073891906109f2565b61074291906109f2565b61074c91906109d0565b92915050565b60008061076c61076485600054610873565b6103e8610886565b61077b61076485600054610873565b915091509250929050565b600061074c62093a80610799844261098b565b90610886565b60006301dfe2006103e8600154846107b791906109f2565b61074291906109d0565b60008082116108125760405162461bcd60e51b815260206004820152601160248201527f4572726f722074696d657374616d7020300000000000000000000000000000006044820152606401610271565b61074c61081f834261098b565b6108339069d3c21bcecceda10000006109f2565b6301e133806040518060400160405280601d81526020017f4572726f722063616e6e6f74206469766964652074696d657374616d70000000815250610892565b600061087f82846109f2565b9392505050565b600061087f82846109d0565b600081836108b35760405162461bcd60e51b81526004016102719190610a11565b508284816108c3576108c36109ba565b04949350505050565b6040518060600160405280600081526020016000815260200161092e6040518060e0016040528060006001600160a01b031681526020016000815260200160008152602001600081526020016000815260200160008152602001600081525090565b905290565b60006020828403121561094557600080fd5b5035919050565b60006020828403121561095e57600080fd5b81356001600160a01b038116811461087f57600080fd5b634e487b7160e01b600052601160045260246000fd5b60008282101561099d5761099d610975565b500390565b600082198211156109b5576109b5610975565b500190565b634e487b7160e01b600052601260045260246000fd5b6000826109ed57634e487b7160e01b600052601260045260246000fd5b500490565b6000816000190483118215151615610a0c57610a0c610975565b500290565b600060208083528351808285015260005b81811015610a3e57858101830151858201604001528201610a22565b81811115610a50576000604083870101525b50601f01601f191692909201604001939250505056fea26469706673582212207b8e9e5b256961811554ba61be9b2c5a28fc04136963692d26e7329172d6adbe64736f6c634300080b0033",
			"opcodes": "PUSH1 0x80 PUSH1 0x40 MSTORE CALLVALUE DUP1 ISZERO PUSH2 0x10 JUMPI PUSH1 0x0 DUP1 REVERT JUMPDEST POP PUSH1 0xF PUSH1 0x0 SSTORE PUSH1 0x50 PUSH1 0x1 SSTORE PUSH2 0xA9C DUP1 PUSH2 0x2A PUSH1 0x0 CODECOPY PUSH1 0x0 RETURN INVALID PUSH1 0x80 PUSH1 0x40 MSTORE CALLVALUE DUP1 ISZERO PUSH2 0x10 JUMPI PUSH1 0x0 DUP1 REVERT JUMPDEST POP PUSH1 0x4 CALLDATASIZE LT PUSH2 0xC9 JUMPI PUSH1 0x0 CALLDATALOAD PUSH1 0xE0 SHR DUP1 PUSH4 0xA143A5F2 GT PUSH2 0x81 JUMPI DUP1 PUSH4 0xB87DA76D GT PUSH2 0x5B JUMPI DUP1 PUSH4 0xB87DA76D EQ PUSH2 0x1EF JUMPI DUP1 PUSH4 0xCB79C2E1 EQ PUSH2 0x1F8 JUMPI DUP1 PUSH4 0xCBB3E152 EQ PUSH2 0x201 JUMPI PUSH1 0x0 DUP1 REVERT JUMPDEST DUP1 PUSH4 0xA143A5F2 EQ PUSH2 0x189 JUMPI DUP1 PUSH4 0xA3EC138D EQ PUSH2 0x1A9 JUMPI DUP1 PUSH4 0xA7771EE3 EQ PUSH2 0x1DC JUMPI PUSH1 0x0 DUP1 REVERT JUMPDEST DUP1 PUSH4 0x5F5300FF GT PUSH2 0xB2 JUMPI DUP1 PUSH4 0x5F5300FF EQ PUSH2 0x161 JUMPI DUP1 PUSH4 0x632A9A52 EQ PUSH2 0x178 JUMPI DUP1 PUSH4 0x8891CF0D EQ PUSH2 0x180 JUMPI PUSH1 0x0 DUP1 REVERT JUMPDEST DUP1 PUSH4 0x70C8B74 EQ PUSH2 0xCE JUMPI DUP1 PUSH4 0x10486B6A EQ PUSH2 0xD8 JUMPI JUMPDEST PUSH1 0x0 DUP1 REVERT JUMPDEST PUSH2 0xD6 PUSH2 0x209 JUMP JUMPDEST STOP JUMPDEST PUSH2 0xE0 PUSH2 0x318 JUMP JUMPDEST PUSH1 0x40 MLOAD PUSH2 0x158 SWAP2 SWAP1 PUSH1 0x0 PUSH2 0x120 DUP3 ADD SWAP1 POP DUP3 MLOAD DUP3 MSTORE PUSH1 0x20 DUP4 ADD MLOAD PUSH1 0x20 DUP4 ADD MSTORE PUSH1 0x40 DUP4 ADD MLOAD PUSH1 0x1 PUSH1 0x1 PUSH1 0xA0 SHL SUB DUP2 MLOAD AND PUSH1 0x40 DUP5 ADD MSTORE PUSH1 0x20 DUP2 ADD MLOAD PUSH1 0x60 DUP5 ADD MSTORE PUSH1 0x40 DUP2 ADD MLOAD PUSH1 0x80 DUP5 ADD MSTORE PUSH1 0x60 DUP2 ADD MLOAD PUSH1 0xA0 DUP5 ADD MSTORE PUSH1 0x80 DUP2 ADD MLOAD PUSH1 0xC0 DUP5 ADD MSTORE PUSH1 0xA0 DUP2 ADD MLOAD PUSH1 0xE0 DUP5 ADD MSTORE PUSH1 0xC0 DUP2 ADD MLOAD PUSH2 0x100 DUP5 ADD MSTORE POP SWAP3 SWAP2 POP POP JUMP JUMPDEST PUSH1 0x40 MLOAD DUP1 SWAP2 SUB SWAP1 RETURN JUMPDEST PUSH2 0x16A PUSH1 0x5 SLOAD DUP2 JUMP JUMPDEST PUSH1 0x40 MLOAD SWAP1 DUP2 MSTORE PUSH1 0x20 ADD PUSH2 0x158 JUMP JUMPDEST PUSH2 0xD6 PUSH2 0x480 JUMP JUMPDEST PUSH2 0x16A PUSH1 0x1 SLOAD DUP2 JUMP JUMPDEST PUSH2 0x16A PUSH2 0x197 CALLDATASIZE PUSH1 0x4 PUSH2 0x933 JUMP JUMPDEST PUSH1 0x7 PUSH1 0x20 MSTORE PUSH1 0x0 SWAP1 DUP2 MSTORE PUSH1 0x40 SWAP1 KECCAK256 SLOAD DUP2 JUMP JUMPDEST PUSH2 0x1CC PUSH2 0x1B7 CALLDATASIZE PUSH1 0x4 PUSH2 0x94C JUMP JUMPDEST PUSH1 0x6 PUSH1 0x20 MSTORE PUSH1 0x0 SWAP1 DUP2 MSTORE PUSH1 0x40 SWAP1 KECCAK256 SLOAD PUSH1 0xFF AND DUP2 JUMP JUMPDEST PUSH1 0x40 MLOAD SWAP1 ISZERO ISZERO DUP2 MSTORE PUSH1 0x20 ADD PUSH2 0x158 JUMP JUMPDEST PUSH2 0x1CC PUSH2 0x1EA CALLDATASIZE PUSH1 0x4 PUSH2 0x94C JUMP JUMPDEST PUSH2 0x5A3 JUMP JUMPDEST PUSH2 0x16A PUSH1 0x2 SLOAD DUP2 JUMP JUMPDEST PUSH2 0x16A PUSH1 0x0 SLOAD DUP2 JUMP JUMPDEST PUSH2 0x16A PUSH2 0x61A JUMP JUMPDEST PUSH2 0x211 PUSH2 0x64D JUMP JUMPDEST CALLER PUSH1 0x0 SWAP1 DUP2 MSTORE PUSH1 0x6 PUSH1 0x20 MSTORE PUSH1 0x40 SWAP1 KECCAK256 SLOAD PUSH1 0xFF AND ISZERO ISZERO PUSH1 0x1 EQ PUSH2 0x27A JUMPI PUSH1 0x40 MLOAD PUSH3 0x461BCD PUSH1 0xE5 SHL DUP2 MSTORE PUSH1 0x20 PUSH1 0x4 DUP3 ADD MSTORE PUSH1 0x13 PUSH1 0x24 DUP3 ADD MSTORE PUSH32 0x596F7520617265206E6F74206120766F74657200000000000000000000000000 PUSH1 0x44 DUP3 ADD MSTORE PUSH1 0x64 ADD JUMPDEST PUSH1 0x40 MLOAD DUP1 SWAP2 SUB SWAP1 REVERT JUMPDEST CALLER PUSH1 0x0 SWAP1 DUP2 MSTORE PUSH1 0x6 PUSH1 0x20 SWAP1 DUP2 MSTORE PUSH1 0x40 DUP1 DUP4 KECCAK256 PUSH1 0x4 SLOAD DUP5 MSTORE PUSH1 0x1 SWAP1 DUP2 ADD SWAP1 SWAP3 MSTORE SWAP1 SWAP2 KECCAK256 SLOAD PUSH1 0xFF AND ISZERO ISZERO EQ PUSH2 0x2EF JUMPI PUSH1 0x40 MLOAD PUSH3 0x461BCD PUSH1 0xE5 SHL DUP2 MSTORE PUSH1 0x20 PUSH1 0x4 DUP3 ADD MSTORE PUSH1 0x16 PUSH1 0x24 DUP3 ADD MSTORE PUSH32 0x596F752068617665206E6F7420766F7465642079657400000000000000000000 PUSH1 0x44 DUP3 ADD MSTORE PUSH1 0x64 ADD PUSH2 0x271 JUMP JUMPDEST PUSH1 0x4 SLOAD PUSH1 0x0 SWAP1 DUP2 MSTORE PUSH1 0x7 PUSH1 0x20 MSTORE PUSH1 0x40 DUP2 KECCAK256 DUP1 SLOAD PUSH1 0x1 SWAP3 SWAP1 PUSH2 0x311 SWAP1 DUP5 SWAP1 PUSH2 0x98B JUMP JUMPDEST SWAP1 SWAP2 SSTORE POP POP JUMP JUMPDEST PUSH2 0x320 PUSH2 0x8CC JUMP JUMPDEST CALLER PUSH1 0x0 SWAP1 DUP2 MSTORE PUSH1 0x8 PUSH1 0x20 DUP2 DUP2 MSTORE PUSH1 0x40 DUP1 DUP5 KECCAK256 DUP2 MLOAD PUSH2 0x140 DUP2 ADD DUP4 MSTORE DUP2 SLOAD PUSH1 0x1 PUSH1 0x1 PUSH1 0xA0 SHL SUB SWAP1 DUP2 AND PUSH1 0x60 DUP1 DUP5 ADD SWAP2 DUP3 MSTORE PUSH1 0x1 DUP6 ADD SLOAD PUSH1 0x80 DUP6 ADD MSTORE PUSH1 0x2 DUP6 ADD SLOAD PUSH1 0xA0 DUP6 ADD MSTORE PUSH1 0x3 DUP6 ADD SLOAD PUSH1 0xC0 DUP6 ADD MSTORE PUSH1 0x4 DUP6 ADD SLOAD PUSH1 0xE0 DUP6 ADD MSTORE PUSH1 0x5 DUP6 ADD SLOAD PUSH2 0x100 DUP6 ADD MSTORE PUSH1 0x6 DUP6 ADD SLOAD PUSH2 0x120 DUP6 ADD MSTORE SWAP1 DUP4 MSTORE PUSH1 0x7 DUP5 ADD SLOAD SWAP1 SWAP2 AND DUP3 DUP7 ADD MSTORE SWAP2 SWAP1 SWAP5 ADD SLOAD DUP5 DUP4 ADD MSTORE DUP2 MLOAD SWAP1 DUP2 ADD DUP3 MSTORE DUP5 DUP2 MSTORE DUP1 DUP4 ADD SWAP5 SWAP1 SWAP5 MSTORE DUP3 MLOAD SWAP1 DUP5 ADD DUP2 SWAP1 MSTORE ADD MLOAD SWAP1 SWAP2 SWAP1 PUSH2 0x3CD SWAP1 PUSH2 0x6A1 JUMP JUMPDEST PUSH1 0x0 PUSH2 0x3DC DUP3 PUSH1 0x40 ADD MLOAD PUSH2 0x6F4 JUMP JUMPDEST SWAP1 POP PUSH1 0x0 TIMESTAMP DUP4 PUSH1 0x40 ADD MLOAD PUSH1 0xC0 ADD MLOAD GT ISZERO PUSH2 0x419 JUMPI PUSH1 0x0 DUP1 PUSH2 0x405 DUP6 PUSH1 0x40 ADD MLOAD PUSH1 0x20 ADD MLOAD DUP6 PUSH2 0x752 JUMP JUMPDEST SWAP1 SWAP3 POP SWAP1 POP PUSH2 0x414 DUP2 DUP4 PUSH2 0x9A2 JUMP JUMPDEST SWAP3 POP POP POP JUMPDEST PUSH1 0x0 PUSH2 0x428 DUP6 PUSH1 0x40 ADD MLOAD PUSH2 0x786 JUMP JUMPDEST GT ISZERO PUSH2 0x450 JUMPI PUSH1 0x0 PUSH2 0x441 DUP5 PUSH1 0x40 ADD MLOAD PUSH1 0x20 ADD MLOAD PUSH2 0x79F JUMP JUMPDEST PUSH1 0x40 DUP6 ADD MLOAD PUSH1 0x80 ADD MSTORE POP PUSH2 0x45E JUMP JUMPDEST PUSH1 0x40 DUP4 ADD MLOAD PUSH1 0x0 PUSH1 0x80 SWAP1 SWAP2 ADD MSTORE JUMPDEST PUSH1 0x40 DUP4 ADD DUP1 MLOAD PUSH1 0x60 ADD SWAP3 SWAP1 SWAP3 MSTORE PUSH1 0x20 DUP1 DUP5 ADD SWAP2 SWAP1 SWAP2 MSTORE SWAP1 MLOAD ADD MLOAD DUP2 MSTORE SWAP3 SWAP2 POP POP JUMP JUMPDEST PUSH2 0x488 PUSH2 0x64D JUMP JUMPDEST CALLER PUSH1 0x0 SWAP1 DUP2 MSTORE PUSH1 0x6 PUSH1 0x20 MSTORE PUSH1 0x40 SWAP1 KECCAK256 SLOAD PUSH1 0xFF AND ISZERO ISZERO PUSH1 0x1 EQ PUSH2 0x4EC JUMPI PUSH1 0x40 MLOAD PUSH3 0x461BCD PUSH1 0xE5 SHL DUP2 MSTORE PUSH1 0x20 PUSH1 0x4 DUP3 ADD MSTORE PUSH1 0x13 PUSH1 0x24 DUP3 ADD MSTORE PUSH32 0x596F7520617265206E6F74206120766F74657200000000000000000000000000 PUSH1 0x44 DUP3 ADD MSTORE PUSH1 0x64 ADD PUSH2 0x271 JUMP JUMPDEST CALLER PUSH1 0x0 SWAP1 DUP2 MSTORE PUSH1 0x6 PUSH1 0x20 SWAP1 DUP2 MSTORE PUSH1 0x40 DUP1 DUP4 KECCAK256 PUSH1 0x4 SLOAD DUP5 MSTORE PUSH1 0x1 ADD SWAP1 SWAP2 MSTORE SWAP1 KECCAK256 SLOAD PUSH1 0xFF AND ISZERO PUSH2 0x55C JUMPI PUSH1 0x40 MLOAD PUSH3 0x461BCD PUSH1 0xE5 SHL DUP2 MSTORE PUSH1 0x20 PUSH1 0x4 DUP3 ADD MSTORE PUSH1 0x15 PUSH1 0x24 DUP3 ADD MSTORE PUSH32 0x596F75206861766520766F746564206265666F72650000000000000000000000 PUSH1 0x44 DUP3 ADD MSTORE PUSH1 0x64 ADD PUSH2 0x271 JUMP JUMPDEST CALLER PUSH1 0x0 SWAP1 DUP2 MSTORE PUSH1 0x6 PUSH1 0x20 SWAP1 DUP2 MSTORE PUSH1 0x40 DUP1 DUP4 KECCAK256 PUSH1 0x4 DUP1 SLOAD DUP6 MSTORE PUSH1 0x1 SWAP2 DUP3 ADD DUP5 MSTORE DUP3 DUP6 KECCAK256 DUP1 SLOAD PUSH1 0xFF NOT AND DUP4 OR SWAP1 SSTORE SLOAD DUP5 MSTORE PUSH1 0x7 SWAP1 SWAP3 MSTORE DUP3 KECCAK256 DUP1 SLOAD SWAP2 SWAP3 SWAP1 SWAP2 PUSH2 0x311 SWAP1 DUP5 SWAP1 PUSH2 0x9A2 JUMP JUMPDEST PUSH1 0x0 PUSH1 0x1 PUSH1 0x1 PUSH1 0xA0 SHL SUB DUP3 AND PUSH2 0x5FB JUMPI PUSH1 0x40 MLOAD PUSH3 0x461BCD PUSH1 0xE5 SHL DUP2 MSTORE PUSH1 0x20 PUSH1 0x4 DUP3 ADD MSTORE PUSH1 0xF PUSH1 0x24 DUP3 ADD MSTORE PUSH32 0x496E76616C696420616464726573730000000000000000000000000000000000 PUSH1 0x44 DUP3 ADD MSTORE PUSH1 0x64 ADD PUSH2 0x271 JUMP JUMPDEST POP PUSH1 0x1 PUSH1 0x1 PUSH1 0xA0 SHL SUB AND PUSH1 0x0 SWAP1 DUP2 MSTORE PUSH1 0x6 PUSH1 0x20 MSTORE PUSH1 0x40 SWAP1 KECCAK256 SLOAD PUSH1 0xFF AND SWAP1 JUMP JUMPDEST PUSH1 0x0 PUSH1 0x2 SLOAD PUSH1 0x0 EQ PUSH2 0x647 JUMPI PUSH3 0x93A80 PUSH1 0x2 SLOAD TIMESTAMP PUSH2 0x638 SWAP2 SWAP1 PUSH2 0x98B JUMP JUMPDEST PUSH2 0x642 SWAP2 SWAP1 PUSH2 0x9D0 JUMP JUMPDEST SWAP1 POP SWAP1 JUMP JUMPDEST POP PUSH1 0x0 SWAP1 JUMP JUMPDEST PUSH1 0x3 SLOAD PUSH1 0xFF AND PUSH2 0x69F JUMPI PUSH1 0x40 MLOAD PUSH3 0x461BCD PUSH1 0xE5 SHL DUP2 MSTORE PUSH1 0x20 PUSH1 0x4 DUP3 ADD MSTORE PUSH1 0x17 PUSH1 0x24 DUP3 ADD MSTORE PUSH32 0x566F74696E67206973206E6F7420617661696C61626C65000000000000000000 PUSH1 0x44 DUP3 ADD MSTORE PUSH1 0x64 ADD PUSH2 0x271 JUMP JUMPDEST JUMP JUMPDEST PUSH1 0x0 DUP2 GT PUSH2 0x6F1 JUMPI PUSH1 0x40 MLOAD PUSH3 0x461BCD PUSH1 0xE5 SHL DUP2 MSTORE PUSH1 0x20 PUSH1 0x4 DUP3 ADD MSTORE PUSH1 0xE PUSH1 0x24 DUP3 ADD MSTORE PUSH32 0x4E6F205374616B6520466F756E64000000000000000000000000000000000000 PUSH1 0x44 DUP3 ADD MSTORE PUSH1 0x64 ADD PUSH2 0x271 JUMP JUMPDEST POP JUMP JUMPDEST PUSH1 0x0 DUP2 PUSH1 0x20 ADD MLOAD PUSH1 0x0 EQ ISZERO PUSH2 0x70B JUMPI POP PUSH1 0x0 SWAP2 SWAP1 POP JUMP JUMPDEST PUSH11 0x52B7D2DCC80CD2E4000000 PUSH2 0x724 DUP4 PUSH1 0x40 ADD MLOAD PUSH2 0x7C1 JUMP JUMPDEST DUP4 PUSH1 0xA0 ADD MLOAD DUP5 PUSH1 0x20 ADD MLOAD PUSH2 0x738 SWAP2 SWAP1 PUSH2 0x9F2 JUMP JUMPDEST PUSH2 0x742 SWAP2 SWAP1 PUSH2 0x9F2 JUMP JUMPDEST PUSH2 0x74C SWAP2 SWAP1 PUSH2 0x9D0 JUMP JUMPDEST SWAP3 SWAP2 POP POP JUMP JUMPDEST PUSH1 0x0 DUP1 PUSH2 0x76C PUSH2 0x764 DUP6 PUSH1 0x0 SLOAD PUSH2 0x873 JUMP JUMPDEST PUSH2 0x3E8 PUSH2 0x886 JUMP JUMPDEST PUSH2 0x77B PUSH2 0x764 DUP6 PUSH1 0x0 SLOAD PUSH2 0x873 JUMP JUMPDEST SWAP2 POP SWAP2 POP SWAP3 POP SWAP3 SWAP1 POP JUMP JUMPDEST PUSH1 0x0 PUSH2 0x74C PUSH3 0x93A80 PUSH2 0x799 DUP5 TIMESTAMP PUSH2 0x98B JUMP JUMPDEST SWAP1 PUSH2 0x886 JUMP JUMPDEST PUSH1 0x0 PUSH4 0x1DFE200 PUSH2 0x3E8 PUSH1 0x1 SLOAD DUP5 PUSH2 0x7B7 SWAP2 SWAP1 PUSH2 0x9F2 JUMP JUMPDEST PUSH2 0x742 SWAP2 SWAP1 PUSH2 0x9D0 JUMP JUMPDEST PUSH1 0x0 DUP1 DUP3 GT PUSH2 0x812 JUMPI PUSH1 0x40 MLOAD PUSH3 0x461BCD PUSH1 0xE5 SHL DUP2 MSTORE PUSH1 0x20 PUSH1 0x4 DUP3 ADD MSTORE PUSH1 0x11 PUSH1 0x24 DUP3 ADD MSTORE PUSH32 0x4572726F722074696D657374616D702030000000000000000000000000000000 PUSH1 0x44 DUP3 ADD MSTORE PUSH1 0x64 ADD PUSH2 0x271 JUMP JUMPDEST PUSH2 0x74C PUSH2 0x81F DUP4 TIMESTAMP PUSH2 0x98B JUMP JUMPDEST PUSH2 0x833 SWAP1 PUSH10 0xD3C21BCECCEDA1000000 PUSH2 0x9F2 JUMP JUMPDEST PUSH4 0x1E13380 PUSH1 0x40 MLOAD DUP1 PUSH1 0x40 ADD PUSH1 0x40 MSTORE DUP1 PUSH1 0x1D DUP2 MSTORE PUSH1 0x20 ADD PUSH32 0x4572726F722063616E6E6F74206469766964652074696D657374616D70000000 DUP2 MSTORE POP PUSH2 0x892 JUMP JUMPDEST PUSH1 0x0 PUSH2 0x87F DUP3 DUP5 PUSH2 0x9F2 JUMP JUMPDEST SWAP4 SWAP3 POP POP POP JUMP JUMPDEST PUSH1 0x0 PUSH2 0x87F DUP3 DUP5 PUSH2 0x9D0 JUMP JUMPDEST PUSH1 0x0 DUP2 DUP4 PUSH2 0x8B3 JUMPI PUSH1 0x40 MLOAD PUSH3 0x461BCD PUSH1 0xE5 SHL DUP2 MSTORE PUSH1 0x4 ADD PUSH2 0x271 SWAP2 SWAP1 PUSH2 0xA11 JUMP JUMPDEST POP DUP3 DUP5 DUP2 PUSH2 0x8C3 JUMPI PUSH2 0x8C3 PUSH2 0x9BA JUMP JUMPDEST DIV SWAP5 SWAP4 POP POP POP POP JUMP JUMPDEST PUSH1 0x40 MLOAD DUP1 PUSH1 0x60 ADD PUSH1 0x40 MSTORE DUP1 PUSH1 0x0 DUP2 MSTORE PUSH1 0x20 ADD PUSH1 0x0 DUP2 MSTORE PUSH1 0x20 ADD PUSH2 0x92E PUSH1 0x40 MLOAD DUP1 PUSH1 0xE0 ADD PUSH1 0x40 MSTORE DUP1 PUSH1 0x0 PUSH1 0x1 PUSH1 0x1 PUSH1 0xA0 SHL SUB AND DUP2 MSTORE PUSH1 0x20 ADD PUSH1 0x0 DUP2 MSTORE PUSH1 0x20 ADD PUSH1 0x0 DUP2 MSTORE PUSH1 0x20 ADD PUSH1 0x0 DUP2 MSTORE PUSH1 0x20 ADD PUSH1 0x0 DUP2 MSTORE PUSH1 0x20 ADD PUSH1 0x0 DUP2 MSTORE PUSH1 0x20 ADD PUSH1 0x0 DUP2 MSTORE POP SWAP1 JUMP JUMPDEST SWAP1 MSTORE SWAP1 JUMP JUMPDEST PUSH1 0x0 PUSH1 0x20 DUP3 DUP5 SUB SLT ISZERO PUSH2 0x945 JUMPI PUSH1 0x0 DUP1 REVERT JUMPDEST POP CALLDATALOAD SWAP2 SWAP1 POP JUMP JUMPDEST PUSH1 0x0 PUSH1 0x20 DUP3 DUP5 SUB SLT ISZERO PUSH2 0x95E JUMPI PUSH1 0x0 DUP1 REVERT JUMPDEST DUP2 CALLDATALOAD PUSH1 0x1 PUSH1 0x1 PUSH1 0xA0 SHL SUB DUP2 AND DUP2 EQ PUSH2 0x87F JUMPI PUSH1 0x0 DUP1 REVERT JUMPDEST PUSH4 0x4E487B71 PUSH1 0xE0 SHL PUSH1 0x0 MSTORE PUSH1 0x11 PUSH1 0x4 MSTORE PUSH1 0x24 PUSH1 0x0 REVERT JUMPDEST PUSH1 0x0 DUP3 DUP3 LT ISZERO PUSH2 0x99D JUMPI PUSH2 0x99D PUSH2 0x975 JUMP JUMPDEST POP SUB SWAP1 JUMP JUMPDEST PUSH1 0x0 DUP3 NOT DUP3 GT ISZERO PUSH2 0x9B5 JUMPI PUSH2 0x9B5 PUSH2 0x975 JUMP JUMPDEST POP ADD SWAP1 JUMP JUMPDEST PUSH4 0x4E487B71 PUSH1 0xE0 SHL PUSH1 0x0 MSTORE PUSH1 0x12 PUSH1 0x4 MSTORE PUSH1 0x24 PUSH1 0x0 REVERT JUMPDEST PUSH1 0x0 DUP3 PUSH2 0x9ED JUMPI PUSH4 0x4E487B71 PUSH1 0xE0 SHL PUSH1 0x0 MSTORE PUSH1 0x12 PUSH1 0x4 MSTORE PUSH1 0x24 PUSH1 0x0 REVERT JUMPDEST POP DIV SWAP1 JUMP JUMPDEST PUSH1 0x0 DUP2 PUSH1 0x0 NOT DIV DUP4 GT DUP3 ISZERO ISZERO AND ISZERO PUSH2 0xA0C JUMPI PUSH2 0xA0C PUSH2 0x975 JUMP JUMPDEST POP MUL SWAP1 JUMP JUMPDEST PUSH1 0x0 PUSH1 0x20 DUP1 DUP4 MSTORE DUP4 MLOAD DUP1 DUP3 DUP6 ADD MSTORE PUSH1 0x0 JUMPDEST DUP2 DUP2 LT ISZERO PUSH2 0xA3E JUMPI DUP6 DUP2 ADD DUP4 ADD MLOAD DUP6 DUP3 ADD PUSH1 0x40 ADD MSTORE DUP3 ADD PUSH2 0xA22 JUMP JUMPDEST DUP2 DUP2 GT ISZERO PUSH2 0xA50 JUMPI PUSH1 0x0 PUSH1 0x40 DUP4 DUP8 ADD ADD MSTORE JUMPDEST POP PUSH1 0x1F ADD PUSH1 0x1F NOT AND SWAP3 SWAP1 SWAP3 ADD PUSH1 0x40 ADD SWAP4 SWAP3 POP POP POP JUMP INVALID LOG2 PUSH5 0x6970667358 0x22 SLT KECCAK256 PUSH28 0x8E9E5B256961811554BA61BE9B2C5A28FC04136963692D26E7329172 0xD6 0xAD 0xBE PUSH5 0x736F6C6343 STOP ADDMOD SIGNEXTEND STOP CALLER "
		},
		"gasEstimates": {
			"creation": {
				"codeDepositCost": "543200",
				"executionCost": "44787",
				"totalCost": "587987"
			},
			"external": {
				"airdropRate()": "2362",
				"airdropSince()": "2317",
				"airdropWeek()": "4635",
				"hasStake()": "infinite",
				"isVoter(address)": "2633",
				"retractVote()": "35369",
				"stakingPenaltyRate()": "2339",
				"totalVoters()": "2318",
				"vote()": "61851",
				"votedUsers(uint256)": "2461",
				"voters(address)": "2541"
			},
			"internal": {
				"_calculateAirdrop(uint256)": "infinite",
				"_calculateWeek(uint256)": "193",
				"_changeAirdropPercentage(uint256)": "infinite",
				"_changePenaltyFee(uint256)": "infinite",
				"_checkUserStake(uint256)": "infinite",
				"_checkVotingStatus()": "infinite",
				"_claimAirdrop(address)": "infinite",
				"_getVotingResult()": "infinite",
				"_stake(address,uint256,uint256,uint256)": "infinite",
				"_startAirdropSince()": "infinite",
				"_startVoting()": "infinite",
				"_stopVoting()": "infinite",
				"_withdrawStake(address)": "infinite",
				"calculatePenalty(uint256,uint256)": "infinite",
				"calculateStakeReward(struct Stakable.Stake memory)": "infinite",
				"calculateStakingDuration(uint256)": "infinite",
				"calculateStakingWithPenalty(uint256,uint256)": "infinite"
			}
		},
		"methodIdentifiers": {
			"airdropRate()": "8891cf0d",
			"airdropSince()": "b87da76d",
			"airdropWeek()": "cbb3e152",
			"hasStake()": "10486b6a",
			"isVoter(address)": "a7771ee3",
			"retractVote()": "070c8b74",
			"stakingPenaltyRate()": "cb79c2e1",
			"totalVoters()": "5f5300ff",
			"vote()": "632a9a52",
			"votedUsers(uint256)": "a143a5f2",
			"voters(address)": "a3ec138d"
		}
	},
	"abi": [
		{
			"inputs": [],
			"stateMutability": "nonpayable",
			"type": "constructor"
		},
		{
			"anonymous": false,
			"inputs": [
				{
					"indexed": false,
					"internalType": "uint256",
					"name": "amount",
					"type": "uint256"
				}
			],
			"name": "AirdropChanged",
			"type": "event"
		},
		{
			"anonymous": false,
			"inputs": [
				{
					"indexed": false,
					"internalType": "uint256",
					"name": "amount",
					"type": "uint256"
				}
			],
			"name": "PenaltyChanged",
			"type": "event"
		},
		{
			"anonymous": false,
			"inputs": [
				{
					"indexed": true,
					"internalType": "address",
					"name": "user",
					"type": "address"
				},
				{
					"indexed": false,
					"internalType": "uint256",
					"name": "amount",
					"type": "uint256"
				},
				{
					"indexed": false,
					"internalType": "uint256",
					"name": "timestamp",
					"type": "uint256"
				},
				{
					"indexed": false,
					"internalType": "uint256",
					"name": "releaseTime",
					"type": "uint256"
				}
			],
			"name": "Staked",
			"type": "event"
		},
		{
			"inputs": [],
			"name": "airdropRate",
			"outputs": [
				{
					"internalType": "uint256",
					"name": "",
					"type": "uint256"
				}
			],
			"stateMutability": "view",
			"type": "function"
		},
		{
			"inputs": [],
			"name": "airdropSince",
			"outputs": [
				{
					"internalType": "uint256",
					"name": "",
					"type": "uint256"
				}
			],
			"stateMutability": "view",
			"type": "function"
		},
		{
			"inputs": [],
			"name": "airdropWeek",
			"outputs": [
				{
					"internalType": "uint256",
					"name": "",
					"type": "uint256"
				}
			],
			"stateMutability": "view",
			"type": "function"
		},
		{
			"inputs": [],
			"name": "hasStake",
			"outputs": [
				{
					"components": [
						{
							"internalType": "uint256",
							"name": "total_amount",
							"type": "uint256"
						},
						{
							"internalType": "uint256",
							"name": "penalty",
							"type": "uint256"
						},
						{
							"components": [
								{
									"internalType": "address",
									"name": "user",
									"type": "address"
								},
								{
									"internalType": "uint256",
									"name": "amount",
									"type": "uint256"
								},
								{
									"internalType": "uint256",
									"name": "since",
									"type": "uint256"
								},
								{
									"internalType": "uint256",
									"name": "claimable",
									"type": "uint256"
								},
								{
									"internalType": "uint256",
									"name": "claimable_airdrop",
									"type": "uint256"
								},
								{
									"internalType": "uint256",
									"name": "rewardAPY",
									"type": "uint256"
								},
								{
									"internalType": "uint256",
									"name": "releaseTime",
									"type": "uint256"
								}
							],
							"internalType": "struct Stakable.Stake",
							"name": "stake",
							"type": "tuple"
						}
					],
					"internalType": "struct Stakable.StakingSummary",
					"name": "",
					"type": "tuple"
				}
			],
			"stateMutability": "view",
			"type": "function"
		},
		{
			"inputs": [
				{
					"internalType": "address",
					"name": "_staker",
					"type": "address"
				}
			],
			"name": "isVoter",
			"outputs": [
				{
					"internalType": "bool",
					"name": "",
					"type": "bool"
				}
			],
			"stateMutability": "view",
			"type": "function"
		},
		{
			"inputs": [],
			"name": "retractVote",
			"outputs": [],
			"stateMutability": "nonpayable",
			"type": "function"
		},
		{
			"inputs": [],
			"name": "stakingPenaltyRate",
			"outputs": [
				{
					"internalType": "uint256",
					"name": "",
					"type": "uint256"
				}
			],
			"stateMutability": "view",
			"type": "function"
		},
		{
			"inputs": [],
			"name": "totalVoters",
			"outputs": [
				{
					"internalType": "uint256",
					"name": "",
					"type": "uint256"
				}
			],
			"stateMutability": "view",
			"type": "function"
		},
		{
			"inputs": [],
			"name": "vote",
			"outputs": [],
			"stateMutability": "nonpayable",
			"type": "function"
		},
		{
			"inputs": [
				{
					"internalType": "uint256",
					"name": "",
					"type": "uint256"
				}
			],
			"name": "votedUsers",
			"outputs": [
				{
					"internalType": "uint256",
					"name": "",
					"type": "uint256"
				}
			],
			"stateMutability": "view",
			"type": "function"
		},
		{
			"inputs": [
				{
					"internalType": "address",
					"name": "",
					"type": "address"
				}
			],
			"name": "voters",
			"outputs": [
				{
					"internalType": "bool",
					"name": "votingRight",
					"type": "bool"
				}
			],
			"stateMutability": "view",
			"type": "function"
		}
	]
}