{
	"data": {
		"bytecode": {
			"linkReferences": {},
			"object": "608060405234801561001057600080fd5b50600060018160018154018082558091505003906000526020600020905050610c918061003e6000396000f3fe608060405234801561001057600080fd5b50600436106100365760003560e01c8063b09d4b4e1461003b578063e73e14bf1461006b575b600080fd5b61005560048036038101906100509190610642565b61009b565b60405161006291906108df565b60405180910390f35b61008560048036038101906100809190610642565b610207565b60405161009291906108df565b60405180910390f35b6100a3610613565b60006040518060400160405280600081526020016000600160008773ffffffffffffffffffffffffffffffffffffffff1673ffffffffffffffffffffffffffffffffffffffff168152602001908152602001600020548154811061010a57610109610b38565b5b9060005260206000209060020201600101805480602002602001604051908101604052809291908181526020016000905b828210156101f557838290600052602060002090600602016040518060c00160405290816000820160009054906101000a900473ffffffffffffffffffffffffffffffffffffffff1673ffffffffffffffffffffffffffffffffffffffff1673ffffffffffffffffffffffffffffffffffffffff168152602001600182015481526020016002820154815260200160038201548152602001600482015481526020016005820154815250508152602001906001019061013b565b50505050815250905080915050919050565b61020f610613565b6000806040518060400160405280600081526020016000600160008873ffffffffffffffffffffffffffffffffffffffff1673ffffffffffffffffffffffffffffffffffffffff168152602001908152602001600020548154811061027757610276610b38565b5b9060005260206000209060020201600101805480602002602001604051908101604052809291908181526020016000905b8282101561036257838290600052602060002090600602016040518060c00160405290816000820160009054906101000a900473ffffffffffffffffffffffffffffffffffffffff1673ffffffffffffffffffffffffffffffffffffffff1673ffffffffffffffffffffffffffffffffffffffff16815260200160018201548152602001600282015481526020016003820154815260200160048201548152602001600582015481525050815260200190600101906102a8565b505050508152509050600081602001515114156103b4576040517f08c379a00000000000000000000000000000000000000000000000000000000081526004016103ab906108bf565b60405180910390fd5b60005b81602001515181101561045c5760006103ed836020015183815181106103e0576103df610b38565b5b6020026020010151610471565b9050808360200151838151811061040757610406610b38565b5b602002602001015160600181815250508260200151828151811061042e5761042d610b38565b5b602002602001015160200151846104459190610956565b9350506001816104559190610956565b90506103b7565b50818160000181815250508092505050919050565b6000808260200151116104b9576040517f08c379a00000000000000000000000000000000000000000000000000000000081526004016104b09061087f565b60405180910390fd5b6a52b7d2dcc80cd2e40000006104d28360400151610501565b83608001516104e191906109dd565b83602001516104f091906109dd565b6104fa91906109ac565b9050919050565b6000808211610545576040517f08c379a000000000000000000000000000000000000000000000000000000000815260040161053c9061089f565b60405180910390fd5b6105a969d3c21bcecceda1000000834261055f9190610a37565b61056991906109dd565b6301e133806040518060400160405280601d81526020017f4572726f722063616e6e6f74206469766964652074696d657374616d700000008152506105b0565b9050919050565b600080831182906105f7576040517f08c379a00000000000000000000000000000000000000000000000000000000081526004016105ee919061085d565b60405180910390fd5b506000838561060691906109ac565b9050809150509392505050565b604051806040016040528060008152602001606081525090565b60008135905061063c81610c44565b92915050565b60006020828403121561065857610657610b67565b5b60006106668482850161062d565b91505092915050565b600061067b8383610796565b60c08301905092915050565b61069081610a6b565b82525050565b60006106a182610911565b6106ab8185610934565b93506106b683610901565b8060005b838110156106e75781516106ce888261066f565b97506106d983610927565b9250506001810190506106ba565b5085935050505092915050565b60006106ff8261091c565b6107098185610945565b9350610719818560208601610aa7565b61072281610b6c565b840191505092915050565b600061073a602183610945565b915061074582610b7d565b604082019050919050565b600061075d601183610945565b915061076882610bcc565b602082019050919050565b6000610780602583610945565b915061078b82610bf5565b604082019050919050565b60c0820160008201516107ac6000850182610687565b5060208201516107bf602085018261084e565b5060408201516107d2604085018261084e565b5060608201516107e5606085018261084e565b5060808201516107f8608085018261084e565b5060a082015161080b60a085018261084e565b50505050565b6000604083016000830151610829600086018261084e565b50602083015184820360208601526108418282610696565b9150508091505092915050565b61085781610a9d565b82525050565b6000602082019050818103600083015261087781846106f4565b905092915050565b600060208201905081810360008301526108988161072d565b9050919050565b600060208201905081810360008301526108b881610750565b9050919050565b600060208201905081810360008301526108d881610773565b9050919050565b600060208201905081810360008301526108f98184610811565b905092915050565b6000819050602082019050919050565b600081519050919050565b600081519050919050565b6000602082019050919050565b600082825260208201905092915050565b600082825260208201905092915050565b600061096182610a9d565b915061096c83610a9d565b9250827fffffffffffffffffffffffffffffffffffffffffffffffffffffffffffffffff038211156109a1576109a0610ada565b5b828201905092915050565b60006109b782610a9d565b91506109c283610a9d565b9250826109d2576109d1610b09565b5b828204905092915050565b60006109e882610a9d565b91506109f383610a9d565b9250817fffffffffffffffffffffffffffffffffffffffffffffffffffffffffffffffff0483118215151615610a2c57610a2b610ada565b5b828202905092915050565b6000610a4282610a9d565b9150610a4d83610a9d565b925082821015610a6057610a5f610ada565b5b828203905092915050565b6000610a7682610a7d565b9050919050565b600073ffffffffffffffffffffffffffffffffffffffff82169050919050565b6000819050919050565b60005b83811015610ac5578082015181840152602081019050610aaa565b83811115610ad4576000848401525b50505050565b7f4e487b7100000000000000000000000000000000000000000000000000000000600052601160045260246000fd5b7f4e487b7100000000000000000000000000000000000000000000000000000000600052601260045260246000fd5b7f4e487b7100000000000000000000000000000000000000000000000000000000600052603260045260246000fd5b600080fd5b6000601f19601f8301169050919050565b7f54686973207573657220646f65736e2774206861766520616e79207374616b6560008201527f7300000000000000000000000000000000000000000000000000000000000000602082015250565b7f4572726f722074696d657374616d702030000000000000000000000000000000600082015250565b7f54686973206164647265737320646f6573206e6f74206861766520616e79207360008201527f74616b6573000000000000000000000000000000000000000000000000000000602082015250565b610c4d81610a6b565b8114610c5857600080fd5b5056fea26469706673582212209383b9fa90a1be1c56d70a365b8fb7c3113a869c55e14dda5158d9201bf4e5f564736f6c63430008070033",
			"opcodes": "PUSH1 0x80 PUSH1 0x40 MSTORE CALLVALUE DUP1 ISZERO PUSH2 0x10 JUMPI PUSH1 0x0 DUP1 REVERT JUMPDEST POP PUSH1 0x0 PUSH1 0x1 DUP2 PUSH1 0x1 DUP2 SLOAD ADD DUP1 DUP3 SSTORE DUP1 SWAP2 POP POP SUB SWAP1 PUSH1 0x0 MSTORE PUSH1 0x20 PUSH1 0x0 KECCAK256 SWAP1 POP POP PUSH2 0xC91 DUP1 PUSH2 0x3E PUSH1 0x0 CODECOPY PUSH1 0x0 RETURN INVALID PUSH1 0x80 PUSH1 0x40 MSTORE CALLVALUE DUP1 ISZERO PUSH2 0x10 JUMPI PUSH1 0x0 DUP1 REVERT JUMPDEST POP PUSH1 0x4 CALLDATASIZE LT PUSH2 0x36 JUMPI PUSH1 0x0 CALLDATALOAD PUSH1 0xE0 SHR DUP1 PUSH4 0xB09D4B4E EQ PUSH2 0x3B JUMPI DUP1 PUSH4 0xE73E14BF EQ PUSH2 0x6B JUMPI JUMPDEST PUSH1 0x0 DUP1 REVERT JUMPDEST PUSH2 0x55 PUSH1 0x4 DUP1 CALLDATASIZE SUB DUP2 ADD SWAP1 PUSH2 0x50 SWAP2 SWAP1 PUSH2 0x642 JUMP JUMPDEST PUSH2 0x9B JUMP JUMPDEST PUSH1 0x40 MLOAD PUSH2 0x62 SWAP2 SWAP1 PUSH2 0x8DF JUMP JUMPDEST PUSH1 0x40 MLOAD DUP1 SWAP2 SUB SWAP1 RETURN JUMPDEST PUSH2 0x85 PUSH1 0x4 DUP1 CALLDATASIZE SUB DUP2 ADD SWAP1 PUSH2 0x80 SWAP2 SWAP1 PUSH2 0x642 JUMP JUMPDEST PUSH2 0x207 JUMP JUMPDEST PUSH1 0x40 MLOAD PUSH2 0x92 SWAP2 SWAP1 PUSH2 0x8DF JUMP JUMPDEST PUSH1 0x40 MLOAD DUP1 SWAP2 SUB SWAP1 RETURN JUMPDEST PUSH2 0xA3 PUSH2 0x613 JUMP JUMPDEST PUSH1 0x0 PUSH1 0x40 MLOAD DUP1 PUSH1 0x40 ADD PUSH1 0x40 MSTORE DUP1 PUSH1 0x0 DUP2 MSTORE PUSH1 0x20 ADD PUSH1 0x0 PUSH1 0x1 PUSH1 0x0 DUP8 PUSH20 0xFFFFFFFFFFFFFFFFFFFFFFFFFFFFFFFFFFFFFFFF AND PUSH20 0xFFFFFFFFFFFFFFFFFFFFFFFFFFFFFFFFFFFFFFFF AND DUP2 MSTORE PUSH1 0x20 ADD SWAP1 DUP2 MSTORE PUSH1 0x20 ADD PUSH1 0x0 KECCAK256 SLOAD DUP2 SLOAD DUP2 LT PUSH2 0x10A JUMPI PUSH2 0x109 PUSH2 0xB38 JUMP JUMPDEST JUMPDEST SWAP1 PUSH1 0x0 MSTORE PUSH1 0x20 PUSH1 0x0 KECCAK256 SWAP1 PUSH1 0x2 MUL ADD PUSH1 0x1 ADD DUP1 SLOAD DUP1 PUSH1 0x20 MUL PUSH1 0x20 ADD PUSH1 0x40 MLOAD SWAP1 DUP2 ADD PUSH1 0x40 MSTORE DUP1 SWAP3 SWAP2 SWAP1 DUP2 DUP2 MSTORE PUSH1 0x20 ADD PUSH1 0x0 SWAP1 JUMPDEST DUP3 DUP3 LT ISZERO PUSH2 0x1F5 JUMPI DUP4 DUP3 SWAP1 PUSH1 0x0 MSTORE PUSH1 0x20 PUSH1 0x0 KECCAK256 SWAP1 PUSH1 0x6 MUL ADD PUSH1 0x40 MLOAD DUP1 PUSH1 0xC0 ADD PUSH1 0x40 MSTORE SWAP1 DUP2 PUSH1 0x0 DUP3 ADD PUSH1 0x0 SWAP1 SLOAD SWAP1 PUSH2 0x100 EXP SWAP1 DIV PUSH20 0xFFFFFFFFFFFFFFFFFFFFFFFFFFFFFFFFFFFFFFFF AND PUSH20 0xFFFFFFFFFFFFFFFFFFFFFFFFFFFFFFFFFFFFFFFF AND PUSH20 0xFFFFFFFFFFFFFFFFFFFFFFFFFFFFFFFFFFFFFFFF AND DUP2 MSTORE PUSH1 0x20 ADD PUSH1 0x1 DUP3 ADD SLOAD DUP2 MSTORE PUSH1 0x20 ADD PUSH1 0x2 DUP3 ADD SLOAD DUP2 MSTORE PUSH1 0x20 ADD PUSH1 0x3 DUP3 ADD SLOAD DUP2 MSTORE PUSH1 0x20 ADD PUSH1 0x4 DUP3 ADD SLOAD DUP2 MSTORE PUSH1 0x20 ADD PUSH1 0x5 DUP3 ADD SLOAD DUP2 MSTORE POP POP DUP2 MSTORE PUSH1 0x20 ADD SWAP1 PUSH1 0x1 ADD SWAP1 PUSH2 0x13B JUMP JUMPDEST POP POP POP POP DUP2 MSTORE POP SWAP1 POP DUP1 SWAP2 POP POP SWAP2 SWAP1 POP JUMP JUMPDEST PUSH2 0x20F PUSH2 0x613 JUMP JUMPDEST PUSH1 0x0 DUP1 PUSH1 0x40 MLOAD DUP1 PUSH1 0x40 ADD PUSH1 0x40 MSTORE DUP1 PUSH1 0x0 DUP2 MSTORE PUSH1 0x20 ADD PUSH1 0x0 PUSH1 0x1 PUSH1 0x0 DUP9 PUSH20 0xFFFFFFFFFFFFFFFFFFFFFFFFFFFFFFFFFFFFFFFF AND PUSH20 0xFFFFFFFFFFFFFFFFFFFFFFFFFFFFFFFFFFFFFFFF AND DUP2 MSTORE PUSH1 0x20 ADD SWAP1 DUP2 MSTORE PUSH1 0x20 ADD PUSH1 0x0 KECCAK256 SLOAD DUP2 SLOAD DUP2 LT PUSH2 0x277 JUMPI PUSH2 0x276 PUSH2 0xB38 JUMP JUMPDEST JUMPDEST SWAP1 PUSH1 0x0 MSTORE PUSH1 0x20 PUSH1 0x0 KECCAK256 SWAP1 PUSH1 0x2 MUL ADD PUSH1 0x1 ADD DUP1 SLOAD DUP1 PUSH1 0x20 MUL PUSH1 0x20 ADD PUSH1 0x40 MLOAD SWAP1 DUP2 ADD PUSH1 0x40 MSTORE DUP1 SWAP3 SWAP2 SWAP1 DUP2 DUP2 MSTORE PUSH1 0x20 ADD PUSH1 0x0 SWAP1 JUMPDEST DUP3 DUP3 LT ISZERO PUSH2 0x362 JUMPI DUP4 DUP3 SWAP1 PUSH1 0x0 MSTORE PUSH1 0x20 PUSH1 0x0 KECCAK256 SWAP1 PUSH1 0x6 MUL ADD PUSH1 0x40 MLOAD DUP1 PUSH1 0xC0 ADD PUSH1 0x40 MSTORE SWAP1 DUP2 PUSH1 0x0 DUP3 ADD PUSH1 0x0 SWAP1 SLOAD SWAP1 PUSH2 0x100 EXP SWAP1 DIV PUSH20 0xFFFFFFFFFFFFFFFFFFFFFFFFFFFFFFFFFFFFFFFF AND PUSH20 0xFFFFFFFFFFFFFFFFFFFFFFFFFFFFFFFFFFFFFFFF AND PUSH20 0xFFFFFFFFFFFFFFFFFFFFFFFFFFFFFFFFFFFFFFFF AND DUP2 MSTORE PUSH1 0x20 ADD PUSH1 0x1 DUP3 ADD SLOAD DUP2 MSTORE PUSH1 0x20 ADD PUSH1 0x2 DUP3 ADD SLOAD DUP2 MSTORE PUSH1 0x20 ADD PUSH1 0x3 DUP3 ADD SLOAD DUP2 MSTORE PUSH1 0x20 ADD PUSH1 0x4 DUP3 ADD SLOAD DUP2 MSTORE PUSH1 0x20 ADD PUSH1 0x5 DUP3 ADD SLOAD DUP2 MSTORE POP POP DUP2 MSTORE PUSH1 0x20 ADD SWAP1 PUSH1 0x1 ADD SWAP1 PUSH2 0x2A8 JUMP JUMPDEST POP POP POP POP DUP2 MSTORE POP SWAP1 POP PUSH1 0x0 DUP2 PUSH1 0x20 ADD MLOAD MLOAD EQ ISZERO PUSH2 0x3B4 JUMPI PUSH1 0x40 MLOAD PUSH32 0x8C379A000000000000000000000000000000000000000000000000000000000 DUP2 MSTORE PUSH1 0x4 ADD PUSH2 0x3AB SWAP1 PUSH2 0x8BF JUMP JUMPDEST PUSH1 0x40 MLOAD DUP1 SWAP2 SUB SWAP1 REVERT JUMPDEST PUSH1 0x0 JUMPDEST DUP2 PUSH1 0x20 ADD MLOAD MLOAD DUP2 LT ISZERO PUSH2 0x45C JUMPI PUSH1 0x0 PUSH2 0x3ED DUP4 PUSH1 0x20 ADD MLOAD DUP4 DUP2 MLOAD DUP2 LT PUSH2 0x3E0 JUMPI PUSH2 0x3DF PUSH2 0xB38 JUMP JUMPDEST JUMPDEST PUSH1 0x20 MUL PUSH1 0x20 ADD ADD MLOAD PUSH2 0x471 JUMP JUMPDEST SWAP1 POP DUP1 DUP4 PUSH1 0x20 ADD MLOAD DUP4 DUP2 MLOAD DUP2 LT PUSH2 0x407 JUMPI PUSH2 0x406 PUSH2 0xB38 JUMP JUMPDEST JUMPDEST PUSH1 0x20 MUL PUSH1 0x20 ADD ADD MLOAD PUSH1 0x60 ADD DUP2 DUP2 MSTORE POP POP DUP3 PUSH1 0x20 ADD MLOAD DUP3 DUP2 MLOAD DUP2 LT PUSH2 0x42E JUMPI PUSH2 0x42D PUSH2 0xB38 JUMP JUMPDEST JUMPDEST PUSH1 0x20 MUL PUSH1 0x20 ADD ADD MLOAD PUSH1 0x20 ADD MLOAD DUP5 PUSH2 0x445 SWAP2 SWAP1 PUSH2 0x956 JUMP JUMPDEST SWAP4 POP POP PUSH1 0x1 DUP2 PUSH2 0x455 SWAP2 SWAP1 PUSH2 0x956 JUMP JUMPDEST SWAP1 POP PUSH2 0x3B7 JUMP JUMPDEST POP DUP2 DUP2 PUSH1 0x0 ADD DUP2 DUP2 MSTORE POP POP DUP1 SWAP3 POP POP POP SWAP2 SWAP1 POP JUMP JUMPDEST PUSH1 0x0 DUP1 DUP3 PUSH1 0x20 ADD MLOAD GT PUSH2 0x4B9 JUMPI PUSH1 0x40 MLOAD PUSH32 0x8C379A000000000000000000000000000000000000000000000000000000000 DUP2 MSTORE PUSH1 0x4 ADD PUSH2 0x4B0 SWAP1 PUSH2 0x87F JUMP JUMPDEST PUSH1 0x40 MLOAD DUP1 SWAP2 SUB SWAP1 REVERT JUMPDEST PUSH11 0x52B7D2DCC80CD2E4000000 PUSH2 0x4D2 DUP4 PUSH1 0x40 ADD MLOAD PUSH2 0x501 JUMP JUMPDEST DUP4 PUSH1 0x80 ADD MLOAD PUSH2 0x4E1 SWAP2 SWAP1 PUSH2 0x9DD JUMP JUMPDEST DUP4 PUSH1 0x20 ADD MLOAD PUSH2 0x4F0 SWAP2 SWAP1 PUSH2 0x9DD JUMP JUMPDEST PUSH2 0x4FA SWAP2 SWAP1 PUSH2 0x9AC JUMP JUMPDEST SWAP1 POP SWAP2 SWAP1 POP JUMP JUMPDEST PUSH1 0x0 DUP1 DUP3 GT PUSH2 0x545 JUMPI PUSH1 0x40 MLOAD PUSH32 0x8C379A000000000000000000000000000000000000000000000000000000000 DUP2 MSTORE PUSH1 0x4 ADD PUSH2 0x53C SWAP1 PUSH2 0x89F JUMP JUMPDEST PUSH1 0x40 MLOAD DUP1 SWAP2 SUB SWAP1 REVERT JUMPDEST PUSH2 0x5A9 PUSH10 0xD3C21BCECCEDA1000000 DUP4 TIMESTAMP PUSH2 0x55F SWAP2 SWAP1 PUSH2 0xA37 JUMP JUMPDEST PUSH2 0x569 SWAP2 SWAP1 PUSH2 0x9DD JUMP JUMPDEST PUSH4 0x1E13380 PUSH1 0x40 MLOAD DUP1 PUSH1 0x40 ADD PUSH1 0x40 MSTORE DUP1 PUSH1 0x1D DUP2 MSTORE PUSH1 0x20 ADD PUSH32 0x4572726F722063616E6E6F74206469766964652074696D657374616D70000000 DUP2 MSTORE POP PUSH2 0x5B0 JUMP JUMPDEST SWAP1 POP SWAP2 SWAP1 POP JUMP JUMPDEST PUSH1 0x0 DUP1 DUP4 GT DUP3 SWAP1 PUSH2 0x5F7 JUMPI PUSH1 0x40 MLOAD PUSH32 0x8C379A000000000000000000000000000000000000000000000000000000000 DUP2 MSTORE PUSH1 0x4 ADD PUSH2 0x5EE SWAP2 SWAP1 PUSH2 0x85D JUMP JUMPDEST PUSH1 0x40 MLOAD DUP1 SWAP2 SUB SWAP1 REVERT JUMPDEST POP PUSH1 0x0 DUP4 DUP6 PUSH2 0x606 SWAP2 SWAP1 PUSH2 0x9AC JUMP JUMPDEST SWAP1 POP DUP1 SWAP2 POP POP SWAP4 SWAP3 POP POP POP JUMP JUMPDEST PUSH1 0x40 MLOAD DUP1 PUSH1 0x40 ADD PUSH1 0x40 MSTORE DUP1 PUSH1 0x0 DUP2 MSTORE PUSH1 0x20 ADD PUSH1 0x60 DUP2 MSTORE POP SWAP1 JUMP JUMPDEST PUSH1 0x0 DUP2 CALLDATALOAD SWAP1 POP PUSH2 0x63C DUP2 PUSH2 0xC44 JUMP JUMPDEST SWAP3 SWAP2 POP POP JUMP JUMPDEST PUSH1 0x0 PUSH1 0x20 DUP3 DUP5 SUB SLT ISZERO PUSH2 0x658 JUMPI PUSH2 0x657 PUSH2 0xB67 JUMP JUMPDEST JUMPDEST PUSH1 0x0 PUSH2 0x666 DUP5 DUP3 DUP6 ADD PUSH2 0x62D JUMP JUMPDEST SWAP2 POP POP SWAP3 SWAP2 POP POP JUMP JUMPDEST PUSH1 0x0 PUSH2 0x67B DUP4 DUP4 PUSH2 0x796 JUMP JUMPDEST PUSH1 0xC0 DUP4 ADD SWAP1 POP SWAP3 SWAP2 POP POP JUMP JUMPDEST PUSH2 0x690 DUP2 PUSH2 0xA6B JUMP JUMPDEST DUP3 MSTORE POP POP JUMP JUMPDEST PUSH1 0x0 PUSH2 0x6A1 DUP3 PUSH2 0x911 JUMP JUMPDEST PUSH2 0x6AB DUP2 DUP6 PUSH2 0x934 JUMP JUMPDEST SWAP4 POP PUSH2 0x6B6 DUP4 PUSH2 0x901 JUMP JUMPDEST DUP1 PUSH1 0x0 JUMPDEST DUP4 DUP2 LT ISZERO PUSH2 0x6E7 JUMPI DUP2 MLOAD PUSH2 0x6CE DUP9 DUP3 PUSH2 0x66F JUMP JUMPDEST SWAP8 POP PUSH2 0x6D9 DUP4 PUSH2 0x927 JUMP JUMPDEST SWAP3 POP POP PUSH1 0x1 DUP2 ADD SWAP1 POP PUSH2 0x6BA JUMP JUMPDEST POP DUP6 SWAP4 POP POP POP POP SWAP3 SWAP2 POP POP JUMP JUMPDEST PUSH1 0x0 PUSH2 0x6FF DUP3 PUSH2 0x91C JUMP JUMPDEST PUSH2 0x709 DUP2 DUP6 PUSH2 0x945 JUMP JUMPDEST SWAP4 POP PUSH2 0x719 DUP2 DUP6 PUSH1 0x20 DUP7 ADD PUSH2 0xAA7 JUMP JUMPDEST PUSH2 0x722 DUP2 PUSH2 0xB6C JUMP JUMPDEST DUP5 ADD SWAP2 POP POP SWAP3 SWAP2 POP POP JUMP JUMPDEST PUSH1 0x0 PUSH2 0x73A PUSH1 0x21 DUP4 PUSH2 0x945 JUMP JUMPDEST SWAP2 POP PUSH2 0x745 DUP3 PUSH2 0xB7D JUMP JUMPDEST PUSH1 0x40 DUP3 ADD SWAP1 POP SWAP2 SWAP1 POP JUMP JUMPDEST PUSH1 0x0 PUSH2 0x75D PUSH1 0x11 DUP4 PUSH2 0x945 JUMP JUMPDEST SWAP2 POP PUSH2 0x768 DUP3 PUSH2 0xBCC JUMP JUMPDEST PUSH1 0x20 DUP3 ADD SWAP1 POP SWAP2 SWAP1 POP JUMP JUMPDEST PUSH1 0x0 PUSH2 0x780 PUSH1 0x25 DUP4 PUSH2 0x945 JUMP JUMPDEST SWAP2 POP PUSH2 0x78B DUP3 PUSH2 0xBF5 JUMP JUMPDEST PUSH1 0x40 DUP3 ADD SWAP1 POP SWAP2 SWAP1 POP JUMP JUMPDEST PUSH1 0xC0 DUP3 ADD PUSH1 0x0 DUP3 ADD MLOAD PUSH2 0x7AC PUSH1 0x0 DUP6 ADD DUP3 PUSH2 0x687 JUMP JUMPDEST POP PUSH1 0x20 DUP3 ADD MLOAD PUSH2 0x7BF PUSH1 0x20 DUP6 ADD DUP3 PUSH2 0x84E JUMP JUMPDEST POP PUSH1 0x40 DUP3 ADD MLOAD PUSH2 0x7D2 PUSH1 0x40 DUP6 ADD DUP3 PUSH2 0x84E JUMP JUMPDEST POP PUSH1 0x60 DUP3 ADD MLOAD PUSH2 0x7E5 PUSH1 0x60 DUP6 ADD DUP3 PUSH2 0x84E JUMP JUMPDEST POP PUSH1 0x80 DUP3 ADD MLOAD PUSH2 0x7F8 PUSH1 0x80 DUP6 ADD DUP3 PUSH2 0x84E JUMP JUMPDEST POP PUSH1 0xA0 DUP3 ADD MLOAD PUSH2 0x80B PUSH1 0xA0 DUP6 ADD DUP3 PUSH2 0x84E JUMP JUMPDEST POP POP POP POP JUMP JUMPDEST PUSH1 0x0 PUSH1 0x40 DUP4 ADD PUSH1 0x0 DUP4 ADD MLOAD PUSH2 0x829 PUSH1 0x0 DUP7 ADD DUP3 PUSH2 0x84E JUMP JUMPDEST POP PUSH1 0x20 DUP4 ADD MLOAD DUP5 DUP3 SUB PUSH1 0x20 DUP7 ADD MSTORE PUSH2 0x841 DUP3 DUP3 PUSH2 0x696 JUMP JUMPDEST SWAP2 POP POP DUP1 SWAP2 POP POP SWAP3 SWAP2 POP POP JUMP JUMPDEST PUSH2 0x857 DUP2 PUSH2 0xA9D JUMP JUMPDEST DUP3 MSTORE POP POP JUMP JUMPDEST PUSH1 0x0 PUSH1 0x20 DUP3 ADD SWAP1 POP DUP2 DUP2 SUB PUSH1 0x0 DUP4 ADD MSTORE PUSH2 0x877 DUP2 DUP5 PUSH2 0x6F4 JUMP JUMPDEST SWAP1 POP SWAP3 SWAP2 POP POP JUMP JUMPDEST PUSH1 0x0 PUSH1 0x20 DUP3 ADD SWAP1 POP DUP2 DUP2 SUB PUSH1 0x0 DUP4 ADD MSTORE PUSH2 0x898 DUP2 PUSH2 0x72D JUMP JUMPDEST SWAP1 POP SWAP2 SWAP1 POP JUMP JUMPDEST PUSH1 0x0 PUSH1 0x20 DUP3 ADD SWAP1 POP DUP2 DUP2 SUB PUSH1 0x0 DUP4 ADD MSTORE PUSH2 0x8B8 DUP2 PUSH2 0x750 JUMP JUMPDEST SWAP1 POP SWAP2 SWAP1 POP JUMP JUMPDEST PUSH1 0x0 PUSH1 0x20 DUP3 ADD SWAP1 POP DUP2 DUP2 SUB PUSH1 0x0 DUP4 ADD MSTORE PUSH2 0x8D8 DUP2 PUSH2 0x773 JUMP JUMPDEST SWAP1 POP SWAP2 SWAP1 POP JUMP JUMPDEST PUSH1 0x0 PUSH1 0x20 DUP3 ADD SWAP1 POP DUP2 DUP2 SUB PUSH1 0x0 DUP4 ADD MSTORE PUSH2 0x8F9 DUP2 DUP5 PUSH2 0x811 JUMP JUMPDEST SWAP1 POP SWAP3 SWAP2 POP POP JUMP JUMPDEST PUSH1 0x0 DUP2 SWAP1 POP PUSH1 0x20 DUP3 ADD SWAP1 POP SWAP2 SWAP1 POP JUMP JUMPDEST PUSH1 0x0 DUP2 MLOAD SWAP1 POP SWAP2 SWAP1 POP JUMP JUMPDEST PUSH1 0x0 DUP2 MLOAD SWAP1 POP SWAP2 SWAP1 POP JUMP JUMPDEST PUSH1 0x0 PUSH1 0x20 DUP3 ADD SWAP1 POP SWAP2 SWAP1 POP JUMP JUMPDEST PUSH1 0x0 DUP3 DUP3 MSTORE PUSH1 0x20 DUP3 ADD SWAP1 POP SWAP3 SWAP2 POP POP JUMP JUMPDEST PUSH1 0x0 DUP3 DUP3 MSTORE PUSH1 0x20 DUP3 ADD SWAP1 POP SWAP3 SWAP2 POP POP JUMP JUMPDEST PUSH1 0x0 PUSH2 0x961 DUP3 PUSH2 0xA9D JUMP JUMPDEST SWAP2 POP PUSH2 0x96C DUP4 PUSH2 0xA9D JUMP JUMPDEST SWAP3 POP DUP3 PUSH32 0xFFFFFFFFFFFFFFFFFFFFFFFFFFFFFFFFFFFFFFFFFFFFFFFFFFFFFFFFFFFFFFFF SUB DUP3 GT ISZERO PUSH2 0x9A1 JUMPI PUSH2 0x9A0 PUSH2 0xADA JUMP JUMPDEST JUMPDEST DUP3 DUP3 ADD SWAP1 POP SWAP3 SWAP2 POP POP JUMP JUMPDEST PUSH1 0x0 PUSH2 0x9B7 DUP3 PUSH2 0xA9D JUMP JUMPDEST SWAP2 POP PUSH2 0x9C2 DUP4 PUSH2 0xA9D JUMP JUMPDEST SWAP3 POP DUP3 PUSH2 0x9D2 JUMPI PUSH2 0x9D1 PUSH2 0xB09 JUMP JUMPDEST JUMPDEST DUP3 DUP3 DIV SWAP1 POP SWAP3 SWAP2 POP POP JUMP JUMPDEST PUSH1 0x0 PUSH2 0x9E8 DUP3 PUSH2 0xA9D JUMP JUMPDEST SWAP2 POP PUSH2 0x9F3 DUP4 PUSH2 0xA9D JUMP JUMPDEST SWAP3 POP DUP2 PUSH32 0xFFFFFFFFFFFFFFFFFFFFFFFFFFFFFFFFFFFFFFFFFFFFFFFFFFFFFFFFFFFFFFFF DIV DUP4 GT DUP3 ISZERO ISZERO AND ISZERO PUSH2 0xA2C JUMPI PUSH2 0xA2B PUSH2 0xADA JUMP JUMPDEST JUMPDEST DUP3 DUP3 MUL SWAP1 POP SWAP3 SWAP2 POP POP JUMP JUMPDEST PUSH1 0x0 PUSH2 0xA42 DUP3 PUSH2 0xA9D JUMP JUMPDEST SWAP2 POP PUSH2 0xA4D DUP4 PUSH2 0xA9D JUMP JUMPDEST SWAP3 POP DUP3 DUP3 LT ISZERO PUSH2 0xA60 JUMPI PUSH2 0xA5F PUSH2 0xADA JUMP JUMPDEST JUMPDEST DUP3 DUP3 SUB SWAP1 POP SWAP3 SWAP2 POP POP JUMP JUMPDEST PUSH1 0x0 PUSH2 0xA76 DUP3 PUSH2 0xA7D JUMP JUMPDEST SWAP1 POP SWAP2 SWAP1 POP JUMP JUMPDEST PUSH1 0x0 PUSH20 0xFFFFFFFFFFFFFFFFFFFFFFFFFFFFFFFFFFFFFFFF DUP3 AND SWAP1 POP SWAP2 SWAP1 POP JUMP JUMPDEST PUSH1 0x0 DUP2 SWAP1 POP SWAP2 SWAP1 POP JUMP JUMPDEST PUSH1 0x0 JUMPDEST DUP4 DUP2 LT ISZERO PUSH2 0xAC5 JUMPI DUP1 DUP3 ADD MLOAD DUP2 DUP5 ADD MSTORE PUSH1 0x20 DUP2 ADD SWAP1 POP PUSH2 0xAAA JUMP JUMPDEST DUP4 DUP2 GT ISZERO PUSH2 0xAD4 JUMPI PUSH1 0x0 DUP5 DUP5 ADD MSTORE JUMPDEST POP POP POP POP JUMP JUMPDEST PUSH32 0x4E487B7100000000000000000000000000000000000000000000000000000000 PUSH1 0x0 MSTORE PUSH1 0x11 PUSH1 0x4 MSTORE PUSH1 0x24 PUSH1 0x0 REVERT JUMPDEST PUSH32 0x4E487B7100000000000000000000000000000000000000000000000000000000 PUSH1 0x0 MSTORE PUSH1 0x12 PUSH1 0x4 MSTORE PUSH1 0x24 PUSH1 0x0 REVERT JUMPDEST PUSH32 0x4E487B7100000000000000000000000000000000000000000000000000000000 PUSH1 0x0 MSTORE PUSH1 0x32 PUSH1 0x4 MSTORE PUSH1 0x24 PUSH1 0x0 REVERT JUMPDEST PUSH1 0x0 DUP1 REVERT JUMPDEST PUSH1 0x0 PUSH1 0x1F NOT PUSH1 0x1F DUP4 ADD AND SWAP1 POP SWAP2 SWAP1 POP JUMP JUMPDEST PUSH32 0x54686973207573657220646F65736E2774206861766520616E79207374616B65 PUSH1 0x0 DUP3 ADD MSTORE PUSH32 0x7300000000000000000000000000000000000000000000000000000000000000 PUSH1 0x20 DUP3 ADD MSTORE POP JUMP JUMPDEST PUSH32 0x4572726F722074696D657374616D702030000000000000000000000000000000 PUSH1 0x0 DUP3 ADD MSTORE POP JUMP JUMPDEST PUSH32 0x54686973206164647265737320646F6573206E6F74206861766520616E792073 PUSH1 0x0 DUP3 ADD MSTORE PUSH32 0x74616B6573000000000000000000000000000000000000000000000000000000 PUSH1 0x20 DUP3 ADD MSTORE POP JUMP JUMPDEST PUSH2 0xC4D DUP2 PUSH2 0xA6B JUMP JUMPDEST DUP2 EQ PUSH2 0xC58 JUMPI PUSH1 0x0 DUP1 REVERT JUMPDEST POP JUMP INVALID LOG2 PUSH5 0x6970667358 0x22 SLT KECCAK256 SWAP4 DUP4 0xB9 STATICCALL SWAP1 LOG1 0xBE SHR JUMP 0xD7 EXP CALLDATASIZE JUMPDEST DUP16 0xB7 0xC3 GT GASPRICE DUP7 SWAP13 SSTORE 0xE1 0x4D 0xDA MLOAD PC 0xD9 KECCAK256 SHL DELEGATECALL 0xE5 CREATE2 PUSH5 0x736F6C6343 STOP ADDMOD SMOD STOP CALLER "
		},
		"gasEstimates": {
			"creation": {
				"codeDepositCost": "643400",
				"executionCost": "24971",
				"totalCost": "668371"
			},
			"external": {
				"hasStake(address)": "infinite",
				"stakeSummary(address)": "infinite"
			},
			"internal": {
				"_addStakeholder(address)": "infinite",
				"_stake(uint256,uint256,uint256)": "infinite",
				"_withdrawAllStake(uint256)": "infinite",
				"_withdrawStake(uint256,uint256)": "infinite",
				"calculateStakeDuration(struct Stakable.Stake memory)": "infinite",
				"calculateStakeReward(struct Stakable.Stake memory)": "infinite",
				"getMonth(uint256)": "infinite"
			}
		},
		"methodIdentifiers": {
			"hasStake(address)": "e73e14bf",
			"stakeSummary(address)": "b09d4b4e"
		}
	},
	"abi": [
		{
			"inputs": [],
			"stateMutability": "nonpayable",
			"type": "constructor"
		},
		{
			"anonymous": false,
			"inputs": [
				{
					"indexed": true,
					"internalType": "address",
					"name": "user",
					"type": "address"
				},
				{
					"indexed": false,
					"internalType": "uint256",
					"name": "amount",
					"type": "uint256"
				},
				{
					"indexed": false,
					"internalType": "uint256",
					"name": "index",
					"type": "uint256"
				},
				{
					"indexed": false,
					"internalType": "uint256",
					"name": "timestamp",
					"type": "uint256"
				},
				{
					"indexed": false,
					"internalType": "uint256",
					"name": "releaseTime",
					"type": "uint256"
				}
			],
			"name": "Staked",
			"type": "event"
		},
		{
			"inputs": [
				{
					"internalType": "address",
					"name": "_staker",
					"type": "address"
				}
			],
			"name": "hasStake",
			"outputs": [
				{
					"components": [
						{
							"internalType": "uint256",
							"name": "total_amount",
							"type": "uint256"
						},
						{
							"components": [
								{
									"internalType": "address",
									"name": "user",
									"type": "address"
								},
								{
									"internalType": "uint256",
									"name": "amount",
									"type": "uint256"
								},
								{
									"internalType": "uint256",
									"name": "since",
									"type": "uint256"
								},
								{
									"internalType": "uint256",
									"name": "claimable",
									"type": "uint256"
								},
								{
									"internalType": "uint256",
									"name": "rewardAPY",
									"type": "uint256"
								},
								{
									"internalType": "uint256",
									"name": "releaseTime",
									"type": "uint256"
								}
							],
							"internalType": "struct Stakable.Stake[]",
							"name": "stakes",
							"type": "tuple[]"
						}
					],
					"internalType": "struct Stakable.StakingSummary",
					"name": "",
					"type": "tuple"
				}
			],
			"stateMutability": "view",
			"type": "function"
		},
		{
			"inputs": [
				{
					"internalType": "address",
					"name": "user_",
					"type": "address"
				}
			],
			"name": "stakeSummary",
			"outputs": [
				{
					"components": [
						{
							"internalType": "uint256",
							"name": "total_amount",
							"type": "uint256"
						},
						{
							"components": [
								{
									"internalType": "address",
									"name": "user",
									"type": "address"
								},
								{
									"internalType": "uint256",
									"name": "amount",
									"type": "uint256"
								},
								{
									"internalType": "uint256",
									"name": "since",
									"type": "uint256"
								},
								{
									"internalType": "uint256",
									"name": "claimable",
									"type": "uint256"
								},
								{
									"internalType": "uint256",
									"name": "rewardAPY",
									"type": "uint256"
								},
								{
									"internalType": "uint256",
									"name": "releaseTime",
									"type": "uint256"
								}
							],
							"internalType": "struct Stakable.Stake[]",
							"name": "stakes",
							"type": "tuple[]"
						}
					],
					"internalType": "struct Stakable.StakingSummary",
					"name": "",
					"type": "tuple"
				}
			],
			"stateMutability": "view",
			"type": "function"
		}
	]
}