{
	"data": {
		"bytecode": {
			"linkReferences": {},
			"object": "60806040526a0c24662f3b1cd048600000600a553480156200002057600080fd5b50604080518082018252600881526754414c415845554d60c01b6020808301918252835180850190945260058452640a8829882b60db1b9084015281519192916200006e916003916200084e565b508051620000849060049060208401906200084e565b505050620000a16200009b620007c060201b60201c565b620007c4565b600f600681905560506007556aadb53acfa41aee1200000090556040805180820190915260088082526754414c415845554d60c01b6020909201918252620000ec916010916200084e565b50604080518082019091526005808252640a8829882b60db1b60209092019182526200011b916011916200084e565b506016805464ffff0000ff1916630100000017905560067f340b62248d06977c08002e7607f3b72c6a107d3fbd632d418cc21d70cdaa55f55560077f6ddf5fdb3bd490b1fa147c8c3102e9e59de8c1cad9219057a0c16c7e8443e5905560087fb4cbcf8e6a3be213b8181d9bc9022abb038ad723968d66579b0b22636cb7354b55336000908152600d60205260408082206a2b6d4eb3e906bb8480000090556a0e7cbbd7aa8310ae400000601355735470c8ff25ec05980fc7c2967d076b8012298fe79091526a01e92959d60776d7c000007f59031029ed0cbb938953efe2bad27014657b1775e05529ae3d61c09ef2bb92ff556a0c24662f3b1cd048600000601455516a05c8d34a23da1650a00000907307a20dc6722563783e44ba8edca08c774621125e906200024d90620008dd565b9182526001600160a01b03166020820152604001604051809103906000f0801580156200027e573d6000803e3d6000fd5b50601760006101000a8154816001600160a01b0302191690836001600160a01b031602179055506a1467a6f5a4a6980180000073f09f65dd4d229e991901669ad7c7549f060e30b9604051620002d490620008dd565b9182526001600160a01b03166020820152604001604051809103906000f08015801562000305573d6000803e3d6000fd5b50601860006101000a8154816001600160a01b0302191690836001600160a01b031602179055506a1467a6f5a4a69801800000731a2118e056d6af192e233c2c9cfb34e067ded1f86040516200035b90620008dd565b9182526001600160a01b03166020820152604001604051809103906000f0801580156200038c573d6000803e3d6000fd5b50601960006101000a8154816001600160a01b0302191690836001600160a01b031602179055506a1467a6f5a4a6980180000073126974fa373267d86fab6d6871afe62ccb68e810604051620003e290620008dd565b9182526001600160a01b03166020820152604001604051809103906000f08015801562000413573d6000803e3d6000fd5b50601a60006101000a8154816001600160a01b0302191690836001600160a01b031602179055506a02e5276153cd3fb3800000732f838cf0df38b2e91e747a01ddae5ebad5558b7a6040516200046990620008dd565b9182526001600160a01b03166020820152604001604051809103906000f0801580156200049a573d6000803e3d6000fd5b50601b60006101000a8154816001600160a01b0302191690836001600160a01b031602179055506a02e5276153cd3fb38000007345094071c4daaf6a9a73b0a0f095a2b138bd8a3a604051620004f090620008dd565b9182526001600160a01b03166020820152604001604051809103906000f08015801562000521573d6000803e3d6000fd5b50601c60006101000a8154816001600160a01b0302191690836001600160a01b031602179055506a02e5276153cd3fb380000073aeb26fb84d0e2b3b353cd50f0a29fd40c916d2ab6040516200057790620008dd565b9182526001600160a01b03166020820152604001604051809103906000f080158015620005a8573d6000803e3d6000fd5b50601d60006101000a8154816001600160a01b0302191690836001600160a01b031602179055506a08af7623fb67bf1a80000073e61e7a7d16db384433e532fb85724e7f3bdaae2f604051620005fe90620008dd565b9182526001600160a01b03166020820152604001604051809103906000f0801580156200062f573d6000803e3d6000fd5b50601e60006101000a8154816001600160a01b0302191690836001600160a01b031602179055506a08af7623fb67bf1a80000073406605eb24a97a2d61b516d8d850f2aefa6a731a6040516200068590620008dd565b9182526001600160a01b03166020820152604001604051809103906000f080158015620006b6573d6000803e3d6000fd5b50601f60006101000a8154816001600160a01b0302191690836001600160a01b031602179055506a08af7623fb67bf1a8000007397620deadc98bc8173303686037ce7b986cf53c36040516200070c90620008dd565b9182526001600160a01b03166020820152604001604051809103906000f0801580156200073d573d6000803e3d6000fd5b50602080546001600160a01b0319166001600160a01b039290921691909117815560408051808201909152601981527f496e73756666696369656e7420546f74616c20537570706c790000000000000081830152600f54620007b79290916a8247ec1bbb14328d8000009162000816811b620032b217901c565b600f5562000997565b3390565b600580546001600160a01b038381166001600160a01b0319831681179093556040519116919082907f8be0079c531659141344cd1fd0a4f28419497f9722a3daafe3b4186f6b6457e090600090a35050565b60008184841115620008465760405162461bcd60e51b81526004016200083d919062000902565b60405180910390fd5b505050900390565b8280546200085c906200095a565b90600052602060002090601f016020900481019282620008805760008555620008cb565b82601f106200089b57805160ff1916838001178555620008cb565b82800160010185558215620008cb579182015b82811115620008cb578251825591602001919060010190620008ae565b50620008d9929150620008eb565b5090565b6106a880620068be83390190565b5b80821115620008d95760008155600101620008ec565b600060208083528351808285015260005b81811015620009315785810183015185820160400152820162000913565b8181111562000944576000604083870101525b50601f01601f1916929092016040019392505050565b600181811c908216806200096f57607f821691505b602082108114156200099157634e487b7160e01b600052602260045260246000fd5b50919050565b615f1780620009a76000396000f3fe6080604052600436106104335760003560e01c80638902cd7011610228578063b87da76d11610128578063d9dc2d8d116100bb578063e88c326f1161008a578063f2fde38b1161006f578063f2fde38b14610cdc578063f5ad7c3d14610cfc578063fe6c9cc014610d2457610443565b8063e88c326f14610ca8578063eb9f4ac714610cc757610443565b8063d9dc2d8d14610b8c578063dd62ed3e14610bb4578063e1604b7014610bfa578063e73e14bf14610c1057610443565b8063c680111c116100f7578063c680111c14610b0f578063cbb3e15214610b37578063d5dbdf1b14610b4c578063d94d4ad614610b6c57610443565b8063b87da76d14610aa6578063b8b18e8914610abc578063ba1f879f14610ad1578063be47279414610ae757610443565b806395d89b41116101bb578063a1f780cf1161018a578063a457c2d71161016f578063a457c2d714610a3e578063a837a65e14610a5e578063a9059cbb14610a8657610443565b8063a1f780cf146109f6578063a3626dbb14610a1657610443565b806395d89b411461098457806396bc0687146109995780639f42a98b146109ae578063a169c515146109d657610443565b80638da5cb5b116101f75780638da5cb5b14610914578063908e0d1e1461093257806390a4c7091461095a578063934851ec1461096f57610443565b80638902cd701461088c5780638abb1d17146108ac5780638b7c64da146108d45780638c63f97f146108f457610443565b80633dc10ad411610333578063715018a6116102c65780637b0472f0116102955780638378a8751161027a5780638378a8751461084d57806384f3996d14610862578063883d99841461087757610443565b80637b0472f0146108185780637c2412f91461083857610443565b8063715018a6146107ae57806372fe1e63146107c3578063760edffd146107d957806379cc6790146107f857610443565b806350549c7d1161030257806350549c7d14610726578063560291371461074e5780635b88349d1461076357806370a082311461077857610443565b80633dc10ad4146106bc5780633f3ef2dc146106d157806340c10f19146106e657806342966c681461070657610443565b80631a39d8ef116103c65780632cf1a5fb11610395578063376d441c1161037a578063376d441c1461064757806339509351146106675780633b124fe71461068757610443565b80632cf1a5fb14610611578063313ce5671461062b57610443565b80631a39d8ef1461057b57806321aeac1b1461059157806323b872dd146105d157806325d5971f146105f157610443565b80630e1b09ed116104025780630e1b09ed146104e757806315441bb91461050757806318160ddd1461051c57806319ca147d1461053157610443565b8063042249bb1461044c57806306fdde0314610475578063078f522f14610497578063095ea7b3146104b757610443565b366104435761044134610d42565b005b61044134610d42565b34801561045857600080fd5b5061046260135481565b6040519081526020015b60405180910390f35b34801561048157600080fd5b5061048a610eb4565b60405161046c9190615ab4565b3480156104a357600080fd5b506104416104b2366004615b09565b610f46565b3480156104c357600080fd5b506104d76104d2366004615b93565b6111d0565b604051901515815260200161046c565b3480156104f357600080fd5b50610441610502366004615bbf565b6111ea565b34801561051357600080fd5b5061044161128e565b34801561052857600080fd5b50600f54610462565b34801561053d57600080fd5b50610546611469565b60405161046c919081518152602080830151908201526040808301511515908201526060918201519181019190915260800190565b34801561058757600080fd5b50610462600a5481565b34801561059d57600080fd5b506105b973406605eb24a97a2d61b516d8d850f2aefa6a731a81565b6040516001600160a01b03909116815260200161046c565b3480156105dd57600080fd5b506104d76105ec366004615bd8565b611566565b3480156105fd57600080fd5b5061044161060c366004615bbf565b61158a565b34801561061d57600080fd5b506016546104d79060ff1681565b34801561063757600080fd5b506040516012815260200161046c565b34801561065357600080fd5b506016546104d79062010000900460ff1681565b34801561067357600080fd5b506104d7610682366004615b93565b611623565b34801561069357600080fd5b506016546106a9906301000000900461ffff1681565b60405161ffff909116815260200161046c565b3480156106c857600080fd5b50600654610462565b3480156106dd57600080fd5b50610441611662565b3480156106f257600080fd5b50610441610701366004615b93565b6117a9565b34801561071257600080fd5b50610441610721366004615bbf565b6117ff565b34801561073257600080fd5b506105b9735470c8ff25ec05980fc7c2967d076b8012298fe781565b34801561075a57600080fd5b5061044161180c565b34801561076f57600080fd5b50610441611948565b34801561078457600080fd5b50610462610793366004615c19565b6001600160a01b03166000908152600d602052604090205490565b3480156107ba57600080fd5b506104416119fb565b3480156107cf57600080fd5b50610462600b5481565b3480156107e557600080fd5b506104626a0136d704b91c7b3a70000081565b34801561080457600080fd5b50610441610813366004615b93565b611a4f565b34801561082457600080fd5b50610441610833366004615c36565b611a64565b34801561084457600080fd5b50610441611b35565b34801561085957600080fd5b50610441611b50565b34801561086e57600080fd5b50610441611c8c565b34801561088357600080fd5b50610441611dc8565b34801561089857600080fd5b506104416108a7366004615c58565b611f04565b3480156108b857600080fd5b506105b973f09f65dd4d229e991901669ad7c7549f060e30b981565b3480156108e057600080fd5b506104416108ef366004615bbf565b612003565b34801561090057600080fd5b5061044161090f366004615bbf565b6120ba565b34801561092057600080fd5b506005546001600160a01b03166105b9565b34801561093e57600080fd5b506105b973e61e7a7d16db384433e532fb85724e7f3bdaae2f81565b34801561096657600080fd5b5061044161213d565b34801561097b57600080fd5b50610441612279565b34801561099057600080fd5b5061048a6123b5565b3480156109a557600080fd5b506104416123c4565b3480156109ba57600080fd5b506105b973126974fa373267d86fab6d6871afe62ccb68e81081565b3480156109e257600080fd5b506104416109f1366004615bbf565b61298b565b348015610a0257600080fd5b50610441610a11366004615c7c565b6129dc565b348015610a2257600080fd5b506105b97345094071c4daaf6a9a73b0a0f095a2b138bd8a3a81565b348015610a4a57600080fd5b506104d7610a59366004615b93565b612b96565b348015610a6a57600080fd5b506105b97307a20dc6722563783e44ba8edca08c774621125e81565b348015610a9257600080fd5b506104d7610aa1366004615b93565b612c40565b348015610ab257600080fd5b5061046260155481565b348015610ac857600080fd5b50610441612c4e565b348015610add57600080fd5b5061046260145481565b348015610af357600080fd5b506105b9731a2118e056d6af192e233c2c9cfb34e067ded1f881565b348015610b1b57600080fd5b506105b9732f838cf0df38b2e91e747a01ddae5ebad5558b7a81565b348015610b4357600080fd5b50610462612d8a565b348015610b5857600080fd5b50610441610b67366004615bbf565b612e05565b348015610b7857600080fd5b50610441610b87366004615bbf565b612e88565b348015610b9857600080fd5b506105b973aeb26fb84d0e2b3b353cd50f0a29fd40c916d2ab81565b348015610bc057600080fd5b50610462610bcf366004615cdf565b6001600160a01b039182166000908152600e6020908152604080832093909416825291909152205490565b348015610c0657600080fd5b5061046260095481565b348015610c1c57600080fd5b50610c30610c2b366004615c19565b612f3f565b60405161046c9190600061012082019050825182526020830151602083015260408301516001600160a01b0381511660408401526020810151606084015260408101516080840152606081015160a0840152608081015160c084015260a081015160e084015260c08101516101008401525092915050565b348015610cb457600080fd5b506016546104d790610100900460ff1681565b348015610cd357600080fd5b506104416130a9565b348015610ce857600080fd5b50610441610cf7366004615c19565b6131e5565b348015610d0857600080fd5b506105b97397620deadc98bc8173303686037ce7b986cf53c381565b348015610d3057600080fd5b506104626907aa22879aabcfac000081565b6000610d4f8260036132de565b73e61e7a7d16db384433e532fb85724e7f3bdaae2f600052600d6020527fc0aa22bc3eedd48a6f5de6a05350eaa6391e8a68dcf757dc854a17ae87e4d74454909150610d9b90826132f1565b600d6020527fc0aa22bc3eedd48a6f5de6a05350eaa6391e8a68dcf757dc854a17ae87e4d7445573406605eb24a97a2d61b516d8d850f2aefa6a731a6000527f4597d054b59d3ee1152f87a5254071c3fce6d778b611f8c468c10ad4392ca61954610e0690826132f1565b600d6020527f4597d054b59d3ee1152f87a5254071c3fce6d778b611f8c468c10ad4392ca619557397620deadc98bc8173303686037ce7b986cf53c36000527f258d390deb7169eb6b7e4f13156eb6a712d34883a598a2f3e4dbff41d265de3554610e7190826132f1565b7397620deadc98bc8173303686037ce7b986cf53c3600052600d6020527f258d390deb7169eb6b7e4f13156eb6a712d34883a598a2f3e4dbff41d265de35555050565b606060108054610ec390615d18565b80601f0160208091040260200160405190810160405280929190818152602001828054610eef90615d18565b8015610f3c5780601f10610f1157610100808354040283529160200191610f3c565b820191906000526020600020905b815481529060010190602001808311610f1f57829003601f168201915b5050505050905090565b6005546001600160a01b03163314610f935760405162461bcd60e51b81526020600482018190526024820152600080516020615e8983398151915260448201526064015b60405180910390fd5b60165462010000900460ff161515600114610ff05760405162461bcd60e51b815260206004820152601c60248201527f507269766174652053616c65206e6f74207965742073746172746564000000006044820152606401610f8a565b8061103d5760405162461bcd60e51b815260206004820152600e60248201527f4e6f7468696e6720746f206164640000000000000000000000000000000000006044820152606401610f8a565b60005b818110156111cb5782828281811061105a5761105a615d53565b90506040020160200135600014156110b45760405162461bcd60e51b815260206004820152601560248201527f416d6f756e742063616e6e6f74206265207a65726f00000000000000000000006044820152606401610f8a565b6110e48383838181106110c9576110c9615d53565b905060400201602001356014546132fd90919063ffffffff16565b6014556111338383838181106110fc576110fc615d53565b6111129260206040909202019081019150615c19565b84848481811061112457611124615d53565b90506040020160200135613309565b82828281811061114557611145615d53565b61115b9260206040909202019081019150615c19565b6001600160a01b0316337f045b7246d64fe59430ba3159fd11dc7352501c1d80f8a6535cf48f68965e274585858581811061119857611198615d53565b905060400201602001356040516111b191815260200190565b60405180910390a3806111c381615d7f565b915050611040565b505050565b6000336111de81858561347c565b60019150505b92915050565b6005546001600160a01b031633146112325760405162461bcd60e51b81526020600482018190526024820152600080516020615e898339815191526044820152606401610f8a565b60135461123f90826132fd565b601355600f5461124f90826132fd565b600f5560405181815260009030907f715128ea18bcb5a472f8187c4fbfdc1ed6d04ecdcff67e3f546fdd075e862665906020015b60405180910390a350565b60165460ff6101009091041615156001146112eb5760405162461bcd60e51b815260206004820152601d60248201527f4c6f636b65642057616c6c6574206e6f742079657420737461727465640000006044820152606401610f8a565b601c60009054906101000a90046001600160a01b03166001600160a01b03166338af3eed6040518163ffffffff1660e01b8152600401602060405180830381865afa15801561133e573d6000803e3d6000fd5b505050506040513d601f19601f820116820180604052508101906113629190615d9a565b336001600160a01b038216146113ae5760405162461bcd60e51b815260206004820152601160248201527057616c6c6574206f776e6572206f6e6c7960781b6044820152606401610f8a565b601c546000906001600160a01b031663e7d88c426113ca6135d5565b6040518263ffffffff1660e01b81526004016113e69190615db7565b6020604051808303816000875af1158015611405573d6000803e3d6000fd5b505050506040513d601f19601f820116820180604052508101906114299190615de9565b905061145581600d6000335b6001600160a01b03168152602081019190915260400160002054906132f1565b336000908152600d60205260409020555050565b61149660405180608001604052806000815260200160008152602001600015158152602001600081525090565b336000908152600c602052604090206001015461151b5760405162461bcd60e51b815260206004820152603860248201527f5072697661746553616c653a20596f7520646f6e2774206861766520616e792060448201527f62616c616e636520666f7220707269766174652073616c6500000000000000006064820152608401610f8a565b50336000908152600c6020908152604091829020825160808101845281548152600182015492810192909252600281015460ff16151592820192909252600390910154606082015290565b600033611574858285613b26565b61157f858585613bb8565b506001949350505050565b6000806115973384613e24565b915091506115a48161298b565b306000908152600d60205260409020546115be90846132fd565b306000908152600d60205260409020556013546115db90826132fd565b6013556115f46115eb8284615e02565b600f54906132f1565b600f5561160e6116048284615e02565b600d600033611435565b336000908152600d6020526040902055505050565b336000818152600e602090815260408083206001600160a01b03871684529091528120549091906111de908290869061165d908790615e02565b61347c565b60165460ff6101009091041615156001146116bf5760405162461bcd60e51b815260206004820152601d60248201527f4c6f636b65642057616c6c6574206e6f742079657420737461727465640000006044820152606401610f8a565b60208054604080517f38af3eed00000000000000000000000000000000000000000000000000000000815290516001600160a01b03909216926338af3eed926004808401938290030181865afa15801561171d573d6000803e3d6000fd5b505050506040513d601f19601f820116820180604052508101906117419190615d9a565b336001600160a01b0382161461178d5760405162461bcd60e51b815260206004820152601160248201527057616c6c6574206f776e6572206f6e6c7960781b6044820152606401610f8a565b6020546000906001600160a01b031663e7d88c426113ca613f7b565b6005546001600160a01b031633146117f15760405162461bcd60e51b81526020600482018190526024820152600080516020615e898339815191526044820152606401610f8a565b6117fb82826143d4565b5050565b61180933826144b3565b50565b60165460ff6101009091041615156001146118695760405162461bcd60e51b815260206004820152601d60248201527f4c6f636b65642057616c6c6574206e6f742079657420737461727465640000006044820152606401610f8a565b601e60009054906101000a90046001600160a01b03166001600160a01b03166338af3eed6040518163ffffffff1660e01b8152600401602060405180830381865afa1580156118bc573d6000803e3d6000fd5b505050506040513d601f19601f820116820180604052508101906118e09190615d9a565b336001600160a01b0382161461192c5760405162461bcd60e51b815260206004820152601160248201527057616c6c6574206f776e6572206f6e6c7960781b6044820152606401610f8a565b601e546000906001600160a01b031663e7d88c426113ca613f7b565b60165460ff16151560011461199f5760405162461bcd60e51b815260206004820152601760248201527f41697264726f70206e6f742079657420737461727465640000000000000000006044820152606401610f8a565b60006119aa33614630565b306000908152600d60205260409020549091506119c790826132fd565b306000908152600d602081905260408220929092556119e891839133611435565b336000908152600d602052604090205550565b6005546001600160a01b03163314611a435760405162461bcd60e51b81526020600482018190526024820152600080516020615e898339815191526044820152606401610f8a565b611a4d6000614732565b565b611a5a823383613b26565b6117fb82826144b3565b8062278d001480611a775750806276a700145b80611a8457508062ed4e00145b80611a925750806301e13380145b611ade5760405162461bcd60e51b815260206004820152601b60248201527f5374616b696e67206f7074696f6e20646f65736e7420657869737400000000006044820152606401610f8a565b611afd3383836012600086815260200190815260200160002054614791565b611b0733836144b3565b306000908152600d6020526040902054611b2190836132f1565b306000908152600d60205260409020555050565b6000611b4033614963565b90506119e881600d600033611435565b60165460ff610100909104161515600114611bad5760405162461bcd60e51b815260206004820152601d60248201527f4c6f636b65642057616c6c6574206e6f742079657420737461727465640000006044820152606401610f8a565b601b60009054906101000a90046001600160a01b03166001600160a01b03166338af3eed6040518163ffffffff1660e01b8152600401602060405180830381865afa158015611c00573d6000803e3d6000fd5b505050506040513d601f19601f82011682018060405250810190611c249190615d9a565b336001600160a01b03821614611c705760405162461bcd60e51b815260206004820152601160248201527057616c6c6574206f776e6572206f6e6c7960781b6044820152606401610f8a565b601b546000906001600160a01b031663e7d88c426113ca6135d5565b60165460ff610100909104161515600114611ce95760405162461bcd60e51b815260206004820152601d60248201527f4c6f636b65642057616c6c6574206e6f742079657420737461727465640000006044820152606401610f8a565b601a60009054906101000a90046001600160a01b03166001600160a01b03166338af3eed6040518163ffffffff1660e01b8152600401602060405180830381865afa158015611d3c573d6000803e3d6000fd5b505050506040513d601f19601f82011682018060405250810190611d609190615d9a565b336001600160a01b03821614611dac5760405162461bcd60e51b815260206004820152601160248201527057616c6c6574206f776e6572206f6e6c7960781b6044820152606401610f8a565b601a546000906001600160a01b031663e7d88c426113ca614abd565b60165460ff610100909104161515600114611e255760405162461bcd60e51b815260206004820152601d60248201527f4c6f636b65642057616c6c6574206e6f742079657420737461727465640000006044820152606401610f8a565b601d60009054906101000a90046001600160a01b03166001600160a01b03166338af3eed6040518163ffffffff1660e01b8152600401602060405180830381865afa158015611e78573d6000803e3d6000fd5b505050506040513d601f19601f82011682018060405250810190611e9c9190615d9a565b336001600160a01b03821614611ee85760405162461bcd60e51b815260206004820152601160248201527057616c6c6574206f776e6572206f6e6c7960781b6044820152606401610f8a565b601d546000906001600160a01b031663e7d88c426113ca6135d5565b6005546001600160a01b03163314611f4c5760405162461bcd60e51b81526020600482018190526024820152600080516020615e898339815191526044820152606401610f8a565b60058161ffff1610611fa05760405162461bcd60e51b815260206004820152601560248201527f54617820466565206d6178696d756d20697320352500000000000000000000006044820152606401610f8a565b6016805464ffff0000001916630100000061ffff8416021790553360405161ffff831681526001600160a01b0391909116907fdf92943b31fff67e8447ff9fa8b5e226ddcc5fb34d36cfe120c0f2b96eb8d6f7906020015b60405180910390a250565b6005546001600160a01b0316331461204b5760405162461bcd60e51b81526020600482018190526024820152600080516020615e898339815191526044820152606401610f8a565b306000908152600d602052604090205461206590826132fd565b306000908152600d6020526040902055600f5461208290826132fd565b600f5560405181815260009030907fddf252ad1be2c89b69c2b068fc378daa952ba7f163c4a11628f55a4df523b3ef90602001611283565b6005546001600160a01b031633146121025760405162461bcd60e51b81526020600482018190526024820152600080516020615e898339815191526044820152606401610f8a565b61210b81614f62565b60405181815233907fe4d1041ab63832a18ae323c0781239637b799ccd1ffa03b0cc4c0916f14834d790602001611ff8565b60165460ff61010090910416151560011461219a5760405162461bcd60e51b815260206004820152601d60248201527f4c6f636b65642057616c6c6574206e6f742079657420737461727465640000006044820152606401610f8a565b601f60009054906101000a90046001600160a01b03166001600160a01b03166338af3eed6040518163ffffffff1660e01b8152600401602060405180830381865afa1580156121ed573d6000803e3d6000fd5b505050506040513d601f19601f820116820180604052508101906122119190615d9a565b336001600160a01b0382161461225d5760405162461bcd60e51b815260206004820152601160248201527057616c6c6574206f776e6572206f6e6c7960781b6044820152606401610f8a565b601f546000906001600160a01b031663e7d88c426113ca613f7b565b60165460ff6101009091041615156001146122d65760405162461bcd60e51b815260206004820152601d60248201527f4c6f636b65642057616c6c6574206e6f742079657420737461727465640000006044820152606401610f8a565b601760009054906101000a90046001600160a01b03166001600160a01b03166338af3eed6040518163ffffffff1660e01b8152600401602060405180830381865afa158015612329573d6000803e3d6000fd5b505050506040513d601f19601f8201168201806040525081019061234d9190615d9a565b336001600160a01b038216146123995760405162461bcd60e51b815260206004820152601160248201527057616c6c6574206f776e6572206f6e6c7960781b6044820152606401610f8a565b6017546000906001600160a01b031663e7d88c426113ca615014565b606060118054610ec390615d18565b6005546001600160a01b0316331461240c5760405162461bcd60e51b81526020600482018190526024820152600080516020615e898339815191526044820152606401610f8a565b601654610100900460ff1615801561242d575060165462010000900460ff16155b6124795760405162461bcd60e51b815260206004820152601560248201527f4e6f7468696e6720746f20696e697469616c697a6500000000000000000000006044820152606401610f8a565b6016805461ff001916610100179055601754604080517fc8cca41e00000000000000000000000000000000000000000000000000000000815290516001600160a01b039092169163c8cca41e9160048082019260009290919082900301818387803b1580156124e757600080fd5b505af11580156124fb573d6000803e3d6000fd5b50505050601860009054906101000a90046001600160a01b03166001600160a01b031663c8cca41e6040518163ffffffff1660e01b8152600401600060405180830381600087803b15801561254f57600080fd5b505af1158015612563573d6000803e3d6000fd5b50505050601960009054906101000a90046001600160a01b03166001600160a01b031663c8cca41e6040518163ffffffff1660e01b8152600401600060405180830381600087803b1580156125b757600080fd5b505af11580156125cb573d6000803e3d6000fd5b50505050601a60009054906101000a90046001600160a01b03166001600160a01b031663c8cca41e6040518163ffffffff1660e01b8152600401600060405180830381600087803b15801561261f57600080fd5b505af1158015612633573d6000803e3d6000fd5b50505050601b60009054906101000a90046001600160a01b03166001600160a01b031663c8cca41e6040518163ffffffff1660e01b8152600401600060405180830381600087803b15801561268757600080fd5b505af115801561269b573d6000803e3d6000fd5b50505050601c60009054906101000a90046001600160a01b03166001600160a01b031663c8cca41e6040518163ffffffff1660e01b8152600401600060405180830381600087803b1580156126ef57600080fd5b505af1158015612703573d6000803e3d6000fd5b50505050601d60009054906101000a90046001600160a01b03166001600160a01b031663c8cca41e6040518163ffffffff1660e01b8152600401600060405180830381600087803b15801561275757600080fd5b505af115801561276b573d6000803e3d6000fd5b50505050601e60009054906101000a90046001600160a01b03166001600160a01b031663c8cca41e6040518163ffffffff1660e01b8152600401600060405180830381600087803b1580156127bf57600080fd5b505af11580156127d3573d6000803e3d6000fd5b50505050601f60009054906101000a90046001600160a01b03166001600160a01b031663c8cca41e6040518163ffffffff1660e01b8152600401600060405180830381600087803b15801561282757600080fd5b505af115801561283b573d6000803e3d6000fd5b50505050602060009054906101000a90046001600160a01b03166001600160a01b031663c8cca41e6040518163ffffffff1660e01b8152600401600060405180830381600087803b15801561288f57600080fd5b505af11580156128a3573d6000803e3d6000fd5b505050506128ae3390565b6001600160a01b03167f72e04afc383d9ab428814e808cd65abb27c66b5fa85cc230b4cda3e36b436c9860405160405180910390a26016805462ff00001916620100001790556128fd42600b55565b60405133907f166f0287f5e28d35ec474da4c920a3e6f47f0d7c8833b963dd8367f68dd377cd90600090a26016805460ff19166001179055426015556129403390565b60165460405160ff909116151581526001600160a01b0391909116907fe596a4fd4ba2e7f54093d98b96267c6b0dbae1e317bed8123d9fbc868c0283779060200160405180910390a2565b6005546001600160a01b031633146129d35760405162461bcd60e51b81526020600482018190526024820152600080516020615e898339815191526044820152606401610f8a565b611809816153b0565b6005546001600160a01b03163314612a245760405162461bcd60e51b81526020600482018190526024820152600080516020615e898339815191526044820152606401610f8a565b60165462010000900460ff161515600114612a815760405162461bcd60e51b815260206004820152601c60248201527f507269766174652053616c65206e6f74207965742073746172746564000000006044820152606401610f8a565b80612ace5760405162461bcd60e51b815260206004820152601160248201527f4e6f7468696e6720746f2064656c6574650000000000000000000000000000006044820152606401610f8a565b60005b818110156111cb576000612b0a848484818110612af057612af0615d53565b9050602002016020810190612b059190615c19565b615405565b601454909150612b1a90826132f1565b601455838383818110612b2f57612b2f615d53565b9050602002016020810190612b449190615c19565b6001600160a01b0316336001600160a01b03167f946ed2f29c189bb6f4744c09f637bda38011cabc8d1433bb26ddad258b9e82d660405160405180910390a35080612b8e81615d7f565b915050612ad1565b336000818152600e602090815260408083206001600160a01b038716845290915281205490919083811015612c335760405162461bcd60e51b815260206004820152602560248201527f45524332303a2064656372656173656420616c6c6f77616e63652062656c6f7760448201527f207a65726f0000000000000000000000000000000000000000000000000000006064820152608401610f8a565b61157f828686840361347c565b6000336111de818585613bb8565b60165460ff610100909104161515600114612cab5760405162461bcd60e51b815260206004820152601d60248201527f4c6f636b65642057616c6c6574206e6f742079657420737461727465640000006044820152606401610f8a565b601860009054906101000a90046001600160a01b03166001600160a01b03166338af3eed6040518163ffffffff1660e01b8152600401602060405180830381865afa158015612cfe573d6000803e3d6000fd5b505050506040513d601f19601f82011682018060405250810190612d229190615d9a565b336001600160a01b03821614612d6e5760405162461bcd60e51b815260206004820152601160248201527057616c6c6574206f776e6572206f6e6c7960781b6044820152606401610f8a565b6018546000906001600160a01b031663e7d88c426113ca614abd565b60165460009060ff161515600114612de45760405162461bcd60e51b815260206004820152601760248201527f41697264726f70206e6f742079657420737461727465640000000000000000006044820152606401610f8a565b62093a8060155442612df69190615e1a565b612e009190615e47565b905090565b6005546001600160a01b03163314612e4d5760405162461bcd60e51b81526020600482018190526024820152600080516020615e898339815191526044820152606401610f8a565b612e568161551c565b60405181815233907f31bbdc307cb7afab9b265ee4c47f5feb19d8a8702a67c0b695df02e0d4c55b5f90602001611ff8565b6005546001600160a01b03163314612ed05760405162461bcd60e51b81526020600482018190526024820152600080516020615e898339815191526044820152606401610f8a565b306000908152600d6020526040902054612eea90826132f1565b306000908152600d6020526040902055600f54612f0790826132f1565b600f5560405181815230906000907fddf252ad1be2c89b69c2b068fc378daa952ba7f163c4a11628f55a4df523b3ef90602001611283565b612f47615a2e565b6040805160608082018352600080835260208084018290526001600160a01b0380881683526008825291859020855160e08101875281549093168352600181015491830191825260028101548387015260038101549383019390935260048301546080830152600583015460a083015260069092015460c08201529282019290925290516130175760405162461bcd60e51b815260206004820152600e60248201527f4e6f207374616b6520666f756e640000000000000000000000000000000000006044820152606401610f8a565b6040810151602081015160009161302d916155c8565b9050600042836040015160c00151111561306a576000806130568560400151602001518561561b565b90925090506130658183615e02565b925050505b600061307d846040015160200151615657565b604085018051608001919091528051606001939093525060208084019190915290510151815292915050565b60165460ff6101009091041615156001146131065760405162461bcd60e51b815260206004820152601d60248201527f4c6f636b65642057616c6c6574206e6f742079657420737461727465640000006044820152606401610f8a565b601960009054906101000a90046001600160a01b03166001600160a01b03166338af3eed6040518163ffffffff1660e01b8152600401602060405180830381865afa158015613159573d6000803e3d6000fd5b505050506040513d601f19601f8201168201806040525081019061317d9190615d9a565b336001600160a01b038216146131c95760405162461bcd60e51b815260206004820152601160248201527057616c6c6574206f776e6572206f6e6c7960781b6044820152606401610f8a565b6019546000906001600160a01b031663e7d88c426113ca614abd565b6005546001600160a01b0316331461322d5760405162461bcd60e51b81526020600482018190526024820152600080516020615e898339815191526044820152606401610f8a565b6001600160a01b0381166132a95760405162461bcd60e51b815260206004820152602660248201527f4f776e61626c653a206e6577206f776e657220697320746865207a65726f206160448201527f64647265737300000000000000000000000000000000000000000000000000006064820152608401610f8a565b61180981614732565b600081848411156132d65760405162461bcd60e51b8152600401610f8a9190615ab4565b505050900390565b60006132ea8284615e47565b9392505050565b60006132ea8284615e02565b60006132ea8284615e1a565b600a548111156133815760405162461bcd60e51b815260206004820152603160248201527f5072697661746553616c653a206e6f7420656e6f7567682062616c616e63652060448201527f746f206164642061206e657720757365720000000000000000000000000000006064820152608401610f8a565b6001600160a01b0382166000908152600c6020526040902060010154156134105760405162461bcd60e51b815260206004820152602960248201527f5072697661746553616c653a2054686973207573657220616c7265616479207260448201527f65676973746572656400000000000000000000000000000000000000000000006064820152608401610f8a565b6001600160a01b0382166000908152600c60205260408120828155600180820184905560028201805460ff191690556003909101819055600980549192909161345a908490615e02565b9250508190555080600a60008282546134739190615e1a565b90915550505050565b6001600160a01b0383166134f75760405162461bcd60e51b8152602060048201526024808201527f45524332303a20617070726f76652066726f6d20746865207a65726f2061646460448201527f72657373000000000000000000000000000000000000000000000000000000006064820152608401610f8a565b6001600160a01b0382166135735760405162461bcd60e51b815260206004820152602260248201527f45524332303a20617070726f766520746f20746865207a65726f20616464726560448201527f73730000000000000000000000000000000000000000000000000000000000006064820152608401610f8a565b6001600160a01b0383811660008181526001602090815260408083209487168084529482529182902085905590518481527f8c5be1e5ebec7d5bd14f71427d1e84f3dd0314c0f7b2291e5b200ac8c7c3b92591015b60405180910390a3505050565b6135dd615a95565b604051806106e001604052806135fd615573670de0b6b3a764000061566a565b8152602001613616615573670de0b6b3a764000061566a565b815260200161362f615573670de0b6b3a764000061566a565b8152602001613648615573670de0b6b3a764000061566a565b8152602001613661615573670de0b6b3a764000061566a565b815260200161367a615573670de0b6b3a764000061566a565b8152602001613693615573670de0b6b3a764000061566a565b81526020016136ac615573670de0b6b3a764000061566a565b81526020016136c5615573670de0b6b3a764000061566a565b81526020016136de615573670de0b6b3a764000061566a565b81526020016136f7615573670de0b6b3a764000061566a565b8152602001613710615573670de0b6b3a764000061566a565b8152602001613729615573670de0b6b3a764000061566a565b8152602001613742615573670de0b6b3a764000061566a565b815260200161375b615573670de0b6b3a764000061566a565b8152602001613774615573670de0b6b3a764000061566a565b815260200161378e620155cc670de0b6b3a764000061566a565b81526020016137a8620155cc670de0b6b3a764000061566a565b81526020016137c2620155cc670de0b6b3a764000061566a565b81526020016137dc620155cc670de0b6b3a764000061566a565b81526020016137f6620155cc670de0b6b3a764000061566a565b8152602001613810620155cc670de0b6b3a764000061566a565b815260200161382a620155cc670de0b6b3a764000061566a565b8152602001613844620155cc670de0b6b3a764000061566a565b815260200161385e620155cc670de0b6b3a764000061566a565b8152602001613878620155cc670de0b6b3a764000061566a565b8152602001613892620155cc670de0b6b3a764000061566a565b81526020016138ac620155cc670de0b6b3a764000061566a565b81526020016138c6620155cc670de0b6b3a764000061566a565b81526020016138e0620155cc670de0b6b3a764000061566a565b81526020016138fa620155cc670de0b6b3a764000061566a565b8152602001613914620155cc670de0b6b3a764000061566a565b815260200161392e620155cc670de0b6b3a764000061566a565b8152602001613948620155cc670de0b6b3a764000061566a565b8152602001613962620155cc670de0b6b3a764000061566a565b815260200161397c620155cc670de0b6b3a764000061566a565b8152602001613996620155cc670de0b6b3a764000061566a565b81526020016139b0620155cc670de0b6b3a764000061566a565b81526020016139ca620155cc670de0b6b3a764000061566a565b81526020016139e4620155cc670de0b6b3a764000061566a565b81526020016139fe620155cc670de0b6b3a764000061566a565b8152602001613a18620155cc670de0b6b3a764000061566a565b8152602001613a32620155cc670de0b6b3a764000061566a565b8152602001613a4c620155cc670de0b6b3a764000061566a565b8152602001613a66620155cc670de0b6b3a764000061566a565b8152602001613a80620155cc670de0b6b3a764000061566a565b8152602001613a9a620155cc670de0b6b3a764000061566a565b8152602001613ab4620155cc670de0b6b3a764000061566a565b8152602001613ace620155cc670de0b6b3a764000061566a565b8152602001613ae8620155cc670de0b6b3a764000061566a565b8152602001613b02620155cc670de0b6b3a764000061566a565b81526020016000815260200160008152602001600081526020016000815250905090565b6001600160a01b038381166000908152600e60209081526040808320938616835292905220546000198114613bb25781811015613ba55760405162461bcd60e51b815260206004820152601d60248201527f45524332303a20696e73756666696369656e7420616c6c6f77616e63650000006044820152606401610f8a565b613bb2848484840361347c565b50505050565b6001600160a01b038316613c0e5760405162461bcd60e51b815260206004820152601a60248201527f5472616e736665722066726f6d207a65726f20616464726573730000000000006044820152606401610f8a565b6001600160a01b038216613c645760405162461bcd60e51b815260206004820152601860248201527f5472616e7366657220746f207a65726f206164647265737300000000000000006044820152606401610f8a565b6001600160a01b0383166000908152600d602052604090205481811015613cf35760405162461bcd60e51b815260206004820152602660248201527f45524332303a207472616e7366657220616d6f756e742065786365656473206260448201527f616c616e636500000000000000000000000000000000000000000000000000006064820152608401610f8a565b6001600160a01b0384166000908152600d602052604081208383039055601654613d3490613d2d9085906301000000900461ffff1661566a565b60646132de565b90506000613d4284836132fd565b90506000613d5b613d5483600261566a565b600a6132de565b90506000613d6d613d5484600861566a565b9050613d7882610d42565b306000908152600d6020526040902054613d9290826132f1565b306000908152600d6020526040808220929092556001600160a01b03891681522054613dbe90846132f1565b6001600160a01b038089166000818152600d602052604090819020939093559151908a16907fddf252ad1be2c89b69c2b068fc378daa952ba7f163c4a11628f55a4df523b3ef90613e129087815260200190565b60405180910390a35050505050505050565b6001600160a01b038083166000908152600860209081526040808320815160e081018352815490951685526001810154928501929092526002820154908401526003810154606084015260048101546080840152600581015460a0840152600681015460c084015290918291908290613e9d90866155c8565b90508482600101541415613f4a576001600160a01b03861660009081526008602081905260408220805473ffffffffffffffffffffffffffffffffffffffff19908116825560018201849055600282018490556003820184905560048201849055600582018490556006808301859055600783018054909216909155910191909155820154421015613f3e57613f338582615676565b935093505050613f74565b8493509150613f749050565b6001820154613f5990866132fd565b60018301556006820154421015613f3e57613f338582615676565b9250929050565b613f83615a95565b604051806106e00160405280613fa462019a28670de0b6b3a764000061566a565b8152602001600081526020016000815260200160008152602001613fd36204ce78670de0b6b3a764000061566a565b81526020016000815260200160008152602001600081526020016140026204ce78670de0b6b3a764000061566a565b81526020016000815260200160008152602001600081526020016140316204ce78670de0b6b3a764000061566a565b815260200160008152602001600081526020016000815260200161406062040164670de0b6b3a764000061566a565b815260200161407a62040164670de0b6b3a764000061566a565b815260200161409462040164670de0b6b3a764000061566a565b81526020016140ae62040164670de0b6b3a764000061566a565b81526020016140c862040164670de0b6b3a764000061566a565b81526020016140e262040164670de0b6b3a764000061566a565b81526020016140fc62040164670de0b6b3a764000061566a565b815260200161411662040164670de0b6b3a764000061566a565b815260200161413062040164670de0b6b3a764000061566a565b815260200161414a62040164670de0b6b3a764000061566a565b815260200161416462040164670de0b6b3a764000061566a565b815260200161417e62040164670de0b6b3a764000061566a565b815260200161419862040164670de0b6b3a764000061566a565b81526020016141b262040164670de0b6b3a764000061566a565b81526020016141cc62040164670de0b6b3a764000061566a565b81526020016141e662040164670de0b6b3a764000061566a565b815260200161420062040164670de0b6b3a764000061566a565b815260200161421a62040164670de0b6b3a764000061566a565b815260200161423462040164670de0b6b3a764000061566a565b815260200161424e62040164670de0b6b3a764000061566a565b815260200161426862040164670de0b6b3a764000061566a565b815260200161428262040164670de0b6b3a764000061566a565b815260200161429c62040164670de0b6b3a764000061566a565b81526020016142b662040164670de0b6b3a764000061566a565b81526020016142d062040164670de0b6b3a764000061566a565b81526020016142ea62040164670de0b6b3a764000061566a565b815260200161430462040164670de0b6b3a764000061566a565b815260200161431e62040164670de0b6b3a764000061566a565b815260200161433862040164670de0b6b3a764000061566a565b815260200161435262040164670de0b6b3a764000061566a565b815260200161436c62040164670de0b6b3a764000061566a565b815260200161438662040164670de0b6b3a764000061566a565b81526020016143a062040164670de0b6b3a764000061566a565b81526020016143ba62040164670de0b6b3a764000061566a565b8152602001613b0262040164670de0b6b3a764000061566a565b6001600160a01b03821661442a5760405162461bcd60e51b815260206004820152601f60248201527f45524332303a206d696e7420746f20746865207a65726f2061646472657373006044820152606401610f8a565b806002600082825461443c9190615e02565b90915550506001600160a01b03821660009081526020819052604081208054839290614469908490615e02565b90915550506040518181526001600160a01b038316906000907fddf252ad1be2c89b69c2b068fc378daa952ba7f163c4a11628f55a4df523b3ef9060200160405180910390a35050565b6001600160a01b03821661452f5760405162461bcd60e51b815260206004820152602160248201527f45524332303a206275726e2066726f6d20746865207a65726f2061646472657360448201527f73000000000000000000000000000000000000000000000000000000000000006064820152608401610f8a565b6001600160a01b0382166000908152600d6020526040902054818110156145be5760405162461bcd60e51b815260206004820152602260248201527f45524332303a206275726e20616d6f756e7420657863656564732062616c616e60448201527f63650000000000000000000000000000000000000000000000000000000000006064820152608401610f8a565b6001600160a01b0383166000908152600d602052604081208383039055600f80548492906145ed908490615e1a565b90915550506040518281526000906001600160a01b038516907fddf252ad1be2c89b69c2b068fc378daa952ba7f163c4a11628f55a4df523b3ef906020016135c8565b6001600160a01b038116600090815260086020819052604082209081015482906146699062093a80906146639042615e1a565b906132de565b905060018110156146bc5760405162461bcd60e51b815260206004820152601660248201527f436c61696d61626c65206f6e63652061206d6f6e7468000000000000000000006044820152606401610f8a565b600182015461470d5760405162461bcd60e51b815260206004820152600e60248201527f4e6f207374616b6520666f756e640000000000000000000000000000000000006044820152606401610f8a565b600061471f8360000160010154615657565b4260089094019390935550909392505050565b600580546001600160a01b0383811673ffffffffffffffffffffffffffffffffffffffff19831681179093556040519116919082907f8be0079c531659141344cd1fd0a4f28419497f9722a3daafe3b4186f6b6457e090600090a35050565b600083116147e15760405162461bcd60e51b815260206004820152601460248201527f43616e6e6f74207374616b65206e6f7468696e670000000000000000000000006044820152606401610f8a565b6001600160a01b0384166000908152600860205260409020600101541561484a5760405162461bcd60e51b815260206004820152601060248201527f557365722069732061207374616b6572000000000000000000000000000000006044820152606401610f8a565b60004290506040518060e00160405280866001600160a01b03168152602001858152602001828152602001600081526020016000815260200183815260200182856148959190615e02565b90526001600160a01b038681166000818152600860209081526040918290208551815473ffffffffffffffffffffffffffffffffffffffff1916951694909417845584015160018401558301516002830155606083015160038301556080830151600483015560a0830151600583015560c0909201516006909101557fb4caaf29adda3eefee3ad552a8e85058589bf834c7466cae4ee58787f70589ed858361493e8188615e02565b6040805193845260208401929092529082015260600160405180910390a25050505050565b6001600160a01b0381166000908152600c60205260408120600101546149cb5760405162461bcd60e51b815260206004820152601b60248201527f5072697661746553616c653a206e6f20746f6b656e73206c65667400000000006044820152606401610f8a565b60006149d6836156bb565b905060008111614a4e5760405162461bcd60e51b815260206004820152602160248201527f5072697661746553616c653a206e6f20746f6b656e7320746f2072656c65617360448201527f65000000000000000000000000000000000000000000000000000000000000006064820152608401610f8a565b614a99600c6000856001600160a01b03166001600160a01b031681526020019081526020016000206001015482604051806060016040528060398152602001615ea9603991396132b2565b6001600160a01b039093166000908152600c60205260409020600101929092555090565b614ac5615a95565b604051806106e001604052806000815260200160008152602001600081526020016000815260200160008152602001600081526020016000815260200160008152602001614b1e62025a3f670de0b6b3a764000061566a565b8152602001614b3862025a3f670de0b6b3a764000061566a565b8152602001614b5262025a3f670de0b6b3a764000061566a565b8152602001614b6c62025a3f670de0b6b3a764000061566a565b8152602001614b8662025a3f670de0b6b3a764000061566a565b8152602001614ba062025a3f670de0b6b3a764000061566a565b8152602001614bba62025a3f670de0b6b3a764000061566a565b8152602001614bd462025a3f670de0b6b3a764000061566a565b8152602001614bee6209eed1670de0b6b3a764000061566a565b8152602001614c086209eed1670de0b6b3a764000061566a565b8152602001614c226209eed1670de0b6b3a764000061566a565b8152602001614c3c6209eed1670de0b6b3a764000061566a565b8152602001614c566209eed1670de0b6b3a764000061566a565b8152602001614c706209eed1670de0b6b3a764000061566a565b8152602001614c8a6209eed1670de0b6b3a764000061566a565b8152602001614ca46209eed1670de0b6b3a764000061566a565b8152602001614cbe6209eed1670de0b6b3a764000061566a565b8152602001614cd86209eed1670de0b6b3a764000061566a565b8152602001614cf26209eed1670de0b6b3a764000061566a565b8152602001614d0c6209eed1670de0b6b3a764000061566a565b8152602001614d266209eed1670de0b6b3a764000061566a565b8152602001614d406209eed1670de0b6b3a764000061566a565b8152602001614d5a6209eed1670de0b6b3a764000061566a565b8152602001614d746209eed1670de0b6b3a764000061566a565b8152602001614d8e6209eed1670de0b6b3a764000061566a565b8152602001614da86209eed1670de0b6b3a764000061566a565b8152602001614dc26209eed1670de0b6b3a764000061566a565b8152602001614ddc6209eed1670de0b6b3a764000061566a565b8152602001614df66209eed1670de0b6b3a764000061566a565b8152602001614e106209eed1670de0b6b3a764000061566a565b8152602001614e2a6209eed1670de0b6b3a764000061566a565b8152602001614e446209eed1670de0b6b3a764000061566a565b8152602001614e5e6209eed1670de0b6b3a764000061566a565b8152602001614e786209eed1670de0b6b3a764000061566a565b8152602001614e926209eed1670de0b6b3a764000061566a565b8152602001614eac6209eed1670de0b6b3a764000061566a565b8152602001614ec66209eed1670de0b6b3a764000061566a565b8152602001614ee06209eed1670de0b6b3a764000061566a565b8152602001614efa6209eed1670de0b6b3a764000061566a565b8152602001614f146209eed1670de0b6b3a764000061566a565b8152602001614f2e6209eed1670de0b6b3a764000061566a565b8152602001614f486209eed1670de0b6b3a764000061566a565b8152602001613b026209eed1670de0b6b3a764000061566a565b601e811115614fd85760405162461bcd60e51b8152602060048201526024808201527f50656e616c7479206665652063616e6e6f74206578636565642033207065726360448201527f656e742e000000000000000000000000000000000000000000000000000000006064820152608401610f8a565b60068190556040518181527fcfa4f4cf1cd64d13a167a8e75605e0c0c9d6700e903d17c5dc11f593254a04a9906020015b60405180910390a150565b61501c615a95565b604051806106e0016040528061503c61aaba670de0b6b3a764000061566a565b815260200161505561aaba670de0b6b3a764000061566a565b815260200161506e61aaba670de0b6b3a764000061566a565b815260200161508761aaba670de0b6b3a764000061566a565b81526020016150a061aaba670de0b6b3a764000061566a565b81526020016150b961aaba670de0b6b3a764000061566a565b81526020016150d261aaba670de0b6b3a764000061566a565b81526020016150eb61aaba670de0b6b3a764000061566a565b815260200161510461aaba670de0b6b3a764000061566a565b815260200161511d61aaba670de0b6b3a764000061566a565b815260200161513661aaba670de0b6b3a764000061566a565b815260200161514f61aaba670de0b6b3a764000061566a565b815260200161516861aaba670de0b6b3a764000061566a565b815260200161518161aaba670de0b6b3a764000061566a565b815260200161519a61aaba670de0b6b3a764000061566a565b81526020016151b361aaba670de0b6b3a764000061566a565b81526020016151cd620800bb670de0b6b3a764000061566a565b81526020016151e7620800bb670de0b6b3a764000061566a565b8152602001615201620800bb670de0b6b3a764000061566a565b815260200161521b620800bb670de0b6b3a764000061566a565b8152602001615235620800bb670de0b6b3a764000061566a565b815260200161524f620800bb670de0b6b3a764000061566a565b8152602001615269620800bb670de0b6b3a764000061566a565b8152602001615283620800bb670de0b6b3a764000061566a565b815260200161529d620800bb670de0b6b3a764000061566a565b81526020016152b7620800bb670de0b6b3a764000061566a565b81526020016152d1620800bb670de0b6b3a764000061566a565b81526020016152eb620800bb670de0b6b3a764000061566a565b815260200160008152602001600081526020016000815260200160008152602001600081526020016000815260200160008152602001600081526020016000815260200160008152602001600081526020016000815260200160008152602001600081526020016000815260200160008152602001600081526020016000815260200160008152602001600081526020016000815260200160008152602001600081526020016000815260200160008152602001600081526020016000815250905090565b6013546153bd90826132f1565b601355600f546153cd90826132f1565b600f5560405181815230906000907f715128ea18bcb5a472f8187c4fbfdc1ed6d04ecdcff67e3f546fdd075e86266590602001611283565b6001600160a01b0381166000908152600c60205260408120600101546154935760405162461bcd60e51b815260206004820152602360248201527f5072697661746553616c653a2054686973207573657220646f65736e7420657860448201527f69737400000000000000000000000000000000000000000000000000000000006064820152608401610f8a565b6001600960008282546154a69190615e1a565b90915550506001600160a01b0382166000908152600c6020526040812060010154600a8054919290916154da908490615e02565b9091555050506001600160a01b03166000908152600c602052604081206001810180548383559083905560028201805460ff1916905560039091019190915590565b60c88111156155935760405162461bcd60e51b815260206004820152602c60248201527f41697264726f702050657263656e746167652063616e6e6f742065786365656460448201527f2032302070657263656e742e00000000000000000000000000000000000000006064820152608401610f8a565b60078190556040518181527fcc672f1026b958c0cfbfdd89ebe8ddcbc127f16ec24da6c2c7a4de26a8b1857e90602001615009565b60008260200151600014156155df575060006111e4565b6a52b7d2dcc80cd2e40000006155f88460400151615947565b60a08501516156079085615e69565b6156119190615e69565b6132ea9190615e47565b600080600061563761562f8660065461566a565b6103e86132de565b9050600061564a61562f8660065461566a565b9196919550909350505050565b6000806064600754846156119190615e69565b60006132ea8284615e69565b6000808361568957506000905080613f74565b600080615696868661561b565b915091506156a486836132fd565b6156ae86836132fd565b9350935050509250929050565b600080600062015180600b54426156d29190615e1a565b6156dc9190615e47565b90506101e08110156157a0576001600160a01b0384166000908152600c602052604090206002015460ff1661577a576001600160a01b0384166000908152600c60205260409020546157519061574a90615742906a0136d704b91c7b3a7000009061566a565b600a546132de565b83906132f1565b6001600160a01b0385166000908152600c60205260409020600201805460ff1916600117905591505b6001600160a01b0384166000908152600c602052604090206101c26003909101556158cd565b6101e081101580156157b3575061034881105b156158cd576001600160a01b0384166000908152600c602052604090206002015460ff1661583b576001600160a01b0384166000908152600c60205260409020546158129061574a90615742906a0136d704b91c7b3a7000009061566a565b6001600160a01b0385166000908152600c60205260409020600201805460ff1916600117905591505b6001600160a01b0384166000908152600c60205260408120600301546158619083615e1a565b6001600160a01b0386166000908152600c60205260409020549091506158a19061589a90615742906907aa22879aabcfac00009061566a565b84906132f1565b6158ab9082615e69565b6001600160a01b0386166000908152600c602052604090206003018390559250505b816159405760405162461bcd60e51b815260206004820152602960248201527f5072697661746553616c653a2054686572652773206e6f7468696e6720746f2060448201527f636c61696d2079657400000000000000000000000000000000000000000000006064820152608401610f8a565b5092915050565b60008082116159985760405162461bcd60e51b815260206004820152601160248201527f4572726f722074696d657374616d7020300000000000000000000000000000006044820152606401610f8a565b6111e46159a58342615e1a565b6159b99069d3c21bcecceda1000000615e69565b6301e133806040518060400160405280601d81526020017f4572726f722063616e6e6f74206469766964652074696d657374616d7000000081525060008183615a155760405162461bcd60e51b8152600401610f8a9190615ab4565b50828481615a2557615a25615e31565b04949350505050565b60405180606001604052806000815260200160008152602001615a906040518060e0016040528060006001600160a01b031681526020016000815260200160008152602001600081526020016000815260200160008152602001600081525090565b905290565b604051806106e001604052806037906020820280368337509192915050565b600060208083528351808285015260005b81811015615ae157858101830151858201604001528201615ac5565b81811115615af3576000604083870101525b50601f01601f1916929092016040019392505050565b60008060208385031215615b1c57600080fd5b823567ffffffffffffffff80821115615b3457600080fd5b818501915085601f830112615b4857600080fd5b813581811115615b5757600080fd5b8660208260061b8501011115615b6c57600080fd5b60209290920196919550909350505050565b6001600160a01b038116811461180957600080fd5b60008060408385031215615ba657600080fd5b8235615bb181615b7e565b946020939093013593505050565b600060208284031215615bd157600080fd5b5035919050565b600080600060608486031215615bed57600080fd5b8335615bf881615b7e565b92506020840135615c0881615b7e565b929592945050506040919091013590565b600060208284031215615c2b57600080fd5b81356132ea81615b7e565b60008060408385031215615c4957600080fd5b50508035926020909101359150565b600060208284031215615c6a57600080fd5b813561ffff811681146132ea57600080fd5b60008060208385031215615c8f57600080fd5b823567ffffffffffffffff80821115615ca757600080fd5b818501915085601f830112615cbb57600080fd5b813581811115615cca57600080fd5b8660208260051b8501011115615b6c57600080fd5b60008060408385031215615cf257600080fd5b8235615cfd81615b7e565b91506020830135615d0d81615b7e565b809150509250929050565b600181811c90821680615d2c57607f821691505b60208210811415615d4d57634e487b7160e01b600052602260045260246000fd5b50919050565b634e487b7160e01b600052603260045260246000fd5b634e487b7160e01b600052601160045260246000fd5b6000600019821415615d9357615d93615d69565b5060010190565b600060208284031215615dac57600080fd5b81516132ea81615b7e565b6106e08101818360005b6037811015615de0578151835260209283019290910190600101615dc1565b50505092915050565b600060208284031215615dfb57600080fd5b5051919050565b60008219821115615e1557615e15615d69565b500190565b600082821015615e2c57615e2c615d69565b500390565b634e487b7160e01b600052601260045260246000fd5b600082615e6457634e487b7160e01b600052601260045260246000fd5b500490565b6000816000190483118215151615615e8357615e83615d69565b50029056fe4f776e61626c653a2063616c6c6572206973206e6f7420746865206f776e65725072697661746553616c653a2043616e6e6f742073756273747261637420746f74616c20616d6f756e74207769746820636c61696d61626c65a2646970667358221220dfb08aed59ed48bf118942aa4796c438381471a5e07e32f497a2bdbf9c91fec064736f6c634300080b003360a060405234801561001057600080fd5b506040516106a83803806106a883398101604081905261002f916100c0565b600082116100935760405162461bcd60e51b815260206004820152602760248201527f4c6f636b61626c653a20416d6f756e74206d7573742067726561746572207468604482015266616e207a65726f60c81b606482015260840160405180910390fd5b6000919091556001600160a01b031660805242600255600180546001600160a01b031916331790556100fd565b600080604083850312156100d357600080fd5b825160208401519092506001600160a01b03811681146100f257600080fd5b809150509250929050565b6080516105916101176000396000607901526105916000f3fe608060405234801561001057600080fd5b50600436106100725760003560e01c8063aa8c217c11610050578063aa8c217c146100e9578063c8cca41e146100fb578063e7d88c421461010657600080fd5b806338af3eed1461007757806367e404ce146100c35780638da5cb5b146100c9575b600080fd5b7f00000000000000000000000000000000000000000000000000000000000000005b60405173ffffffffffffffffffffffffffffffffffffffff90911681526020015b60405180910390f35b33610099565b6001546100999073ffffffffffffffffffffffffffffffffffffffff1681565b6000545b6040519081526020016100ba565b61010442600255565b005b6100ed6101143660046103ab565b60015460009073ffffffffffffffffffffffffffffffffffffffff1633146101a95760405162461bcd60e51b815260206004820152603560248201527f4c6f636b61626c653a2063616c6c6572206861766520746f2062652054616c6160448201527f78546f6b656e20536d61727420436f6e7472616374000000000000000000000060648201526084015b60405180910390fd5b60008054116101fa5760405162461bcd60e51b815260206004820152601860248201527f4c6f636b61626c653a206e6f20746f6b656e73206c656674000000000000000060448201526064016101a0565b600061020583610285565b9050600081116102575760405162461bcd60e51b815260206004820152601e60248201527f4c6f636b61626c653a206e6f20746f6b656e7320746f2072656c65617365000060448201526064016101a0565b61027c6000548260405180606001604052806036815260200161052660369139610373565b60005592915050565b60008062278d006002544261029a919061044e565b6102a49190610465565b6003549091506000905b603781116102ea576102d6828683603781106102cc576102cc610487565b602002015161039f565b9150806102e28161049d565b9150506102ae565b506102f68260016104b8565b6003558061036c5760405162461bcd60e51b815260206004820152602660248201527f4c6f636b61626c653a2054686572652773206e6f7468696e6720746f20636c6160448201527f696d20796574000000000000000000000000000000000000000000000000000060648201526084016101a0565b9392505050565b600081848411156103975760405162461bcd60e51b81526004016101a091906104d0565b505050900390565b600061036c82846104b8565b60006106e08083850312156103bf57600080fd5b83601f8401126103ce57600080fd5b60405181810181811067ffffffffffffffff821117156103fe57634e487b7160e01b600052604160045260246000fd5b60405290830190808583111561041357600080fd5b845b8381101561042d578035825260209182019101610415565b509095945050505050565b634e487b7160e01b600052601160045260246000fd5b60008282101561046057610460610438565b500390565b60008261048257634e487b7160e01b600052601260045260246000fd5b500490565b634e487b7160e01b600052603260045260246000fd5b60006000198214156104b1576104b1610438565b5060010190565b600082198211156104cb576104cb610438565b500190565b600060208083528351808285015260005b818110156104fd578581018301518582016040015282016104e1565b8181111561050f576000604083870101525b50601f01601f191692909201604001939250505056fe4c6f636b61626c653a2043616e6e6f742073756273747261637420746f74616c20616d6f756e74207769746820636c61696d61626c65a2646970667358221220fb2f38dcbbaf5a503517a27e6da2f083ee0af791a67966fc6d802b2b440ee28264736f6c634300080b0033",
			"opcodes": "PUSH1 0x80 PUSH1 0x40 MSTORE PUSH11 0xC24662F3B1CD048600000 PUSH1 0xA SSTORE CALLVALUE DUP1 ISZERO PUSH3 0x20 JUMPI PUSH1 0x0 DUP1 REVERT JUMPDEST POP PUSH1 0x40 DUP1 MLOAD DUP1 DUP3 ADD DUP3 MSTORE PUSH1 0x8 DUP2 MSTORE PUSH8 0x54414C415845554D PUSH1 0xC0 SHL PUSH1 0x20 DUP1 DUP4 ADD SWAP2 DUP3 MSTORE DUP4 MLOAD DUP1 DUP6 ADD SWAP1 SWAP5 MSTORE PUSH1 0x5 DUP5 MSTORE PUSH5 0xA8829882B PUSH1 0xDB SHL SWAP1 DUP5 ADD MSTORE DUP2 MLOAD SWAP2 SWAP3 SWAP2 PUSH3 0x6E SWAP2 PUSH1 0x3 SWAP2 PUSH3 0x84E JUMP JUMPDEST POP DUP1 MLOAD PUSH3 0x84 SWAP1 PUSH1 0x4 SWAP1 PUSH1 0x20 DUP5 ADD SWAP1 PUSH3 0x84E JUMP JUMPDEST POP POP POP PUSH3 0xA1 PUSH3 0x9B PUSH3 0x7C0 PUSH1 0x20 SHL PUSH1 0x20 SHR JUMP JUMPDEST PUSH3 0x7C4 JUMP JUMPDEST PUSH1 0xF PUSH1 0x6 DUP2 SWAP1 SSTORE PUSH1 0x50 PUSH1 0x7 SSTORE PUSH11 0xADB53ACFA41AEE12000000 SWAP1 SSTORE PUSH1 0x40 DUP1 MLOAD DUP1 DUP3 ADD SWAP1 SWAP2 MSTORE PUSH1 0x8 DUP1 DUP3 MSTORE PUSH8 0x54414C415845554D PUSH1 0xC0 SHL PUSH1 0x20 SWAP1 SWAP3 ADD SWAP2 DUP3 MSTORE PUSH3 0xEC SWAP2 PUSH1 0x10 SWAP2 PUSH3 0x84E JUMP JUMPDEST POP PUSH1 0x40 DUP1 MLOAD DUP1 DUP3 ADD SWAP1 SWAP2 MSTORE PUSH1 0x5 DUP1 DUP3 MSTORE PUSH5 0xA8829882B PUSH1 0xDB SHL PUSH1 0x20 SWAP1 SWAP3 ADD SWAP2 DUP3 MSTORE PUSH3 0x11B SWAP2 PUSH1 0x11 SWAP2 PUSH3 0x84E JUMP JUMPDEST POP PUSH1 0x16 DUP1 SLOAD PUSH5 0xFFFF0000FF NOT AND PUSH4 0x1000000 OR SWAP1 SSTORE PUSH1 0x6 PUSH32 0x340B62248D06977C08002E7607F3B72C6A107D3FBD632D418CC21D70CDAA55F5 SSTORE PUSH1 0x7 PUSH32 0x6DDF5FDB3BD490B1FA147C8C3102E9E59DE8C1CAD9219057A0C16C7E8443E590 SSTORE PUSH1 0x8 PUSH32 0xB4CBCF8E6A3BE213B8181D9BC9022ABB038AD723968D66579B0B22636CB7354B SSTORE CALLER PUSH1 0x0 SWAP1 DUP2 MSTORE PUSH1 0xD PUSH1 0x20 MSTORE PUSH1 0x40 DUP1 DUP3 KECCAK256 PUSH11 0x2B6D4EB3E906BB84800000 SWAP1 SSTORE PUSH11 0xE7CBBD7AA8310AE400000 PUSH1 0x13 SSTORE PUSH20 0x5470C8FF25EC05980FC7C2967D076B8012298FE7 SWAP1 SWAP2 MSTORE PUSH11 0x1E92959D60776D7C00000 PUSH32 0x59031029ED0CBB938953EFE2BAD27014657B1775E05529AE3D61C09EF2BB92FF SSTORE PUSH11 0xC24662F3B1CD048600000 PUSH1 0x14 SSTORE MLOAD PUSH11 0x5C8D34A23DA1650A00000 SWAP1 PUSH20 0x7A20DC6722563783E44BA8EDCA08C774621125E SWAP1 PUSH3 0x24D SWAP1 PUSH3 0x8DD JUMP JUMPDEST SWAP2 DUP3 MSTORE PUSH1 0x1 PUSH1 0x1 PUSH1 0xA0 SHL SUB AND PUSH1 0x20 DUP3 ADD MSTORE PUSH1 0x40 ADD PUSH1 0x40 MLOAD DUP1 SWAP2 SUB SWAP1 PUSH1 0x0 CREATE DUP1 ISZERO DUP1 ISZERO PUSH3 0x27E JUMPI RETURNDATASIZE PUSH1 0x0 DUP1 RETURNDATACOPY RETURNDATASIZE PUSH1 0x0 REVERT JUMPDEST POP PUSH1 0x17 PUSH1 0x0 PUSH2 0x100 EXP DUP2 SLOAD DUP2 PUSH1 0x1 PUSH1 0x1 PUSH1 0xA0 SHL SUB MUL NOT AND SWAP1 DUP4 PUSH1 0x1 PUSH1 0x1 PUSH1 0xA0 SHL SUB AND MUL OR SWAP1 SSTORE POP PUSH11 0x1467A6F5A4A69801800000 PUSH20 0xF09F65DD4D229E991901669AD7C7549F060E30B9 PUSH1 0x40 MLOAD PUSH3 0x2D4 SWAP1 PUSH3 0x8DD JUMP JUMPDEST SWAP2 DUP3 MSTORE PUSH1 0x1 PUSH1 0x1 PUSH1 0xA0 SHL SUB AND PUSH1 0x20 DUP3 ADD MSTORE PUSH1 0x40 ADD PUSH1 0x40 MLOAD DUP1 SWAP2 SUB SWAP1 PUSH1 0x0 CREATE DUP1 ISZERO DUP1 ISZERO PUSH3 0x305 JUMPI RETURNDATASIZE PUSH1 0x0 DUP1 RETURNDATACOPY RETURNDATASIZE PUSH1 0x0 REVERT JUMPDEST POP PUSH1 0x18 PUSH1 0x0 PUSH2 0x100 EXP DUP2 SLOAD DUP2 PUSH1 0x1 PUSH1 0x1 PUSH1 0xA0 SHL SUB MUL NOT AND SWAP1 DUP4 PUSH1 0x1 PUSH1 0x1 PUSH1 0xA0 SHL SUB AND MUL OR SWAP1 SSTORE POP PUSH11 0x1467A6F5A4A69801800000 PUSH20 0x1A2118E056D6AF192E233C2C9CFB34E067DED1F8 PUSH1 0x40 MLOAD PUSH3 0x35B SWAP1 PUSH3 0x8DD JUMP JUMPDEST SWAP2 DUP3 MSTORE PUSH1 0x1 PUSH1 0x1 PUSH1 0xA0 SHL SUB AND PUSH1 0x20 DUP3 ADD MSTORE PUSH1 0x40 ADD PUSH1 0x40 MLOAD DUP1 SWAP2 SUB SWAP1 PUSH1 0x0 CREATE DUP1 ISZERO DUP1 ISZERO PUSH3 0x38C JUMPI RETURNDATASIZE PUSH1 0x0 DUP1 RETURNDATACOPY RETURNDATASIZE PUSH1 0x0 REVERT JUMPDEST POP PUSH1 0x19 PUSH1 0x0 PUSH2 0x100 EXP DUP2 SLOAD DUP2 PUSH1 0x1 PUSH1 0x1 PUSH1 0xA0 SHL SUB MUL NOT AND SWAP1 DUP4 PUSH1 0x1 PUSH1 0x1 PUSH1 0xA0 SHL SUB AND MUL OR SWAP1 SSTORE POP PUSH11 0x1467A6F5A4A69801800000 PUSH20 0x126974FA373267D86FAB6D6871AFE62CCB68E810 PUSH1 0x40 MLOAD PUSH3 0x3E2 SWAP1 PUSH3 0x8DD JUMP JUMPDEST SWAP2 DUP3 MSTORE PUSH1 0x1 PUSH1 0x1 PUSH1 0xA0 SHL SUB AND PUSH1 0x20 DUP3 ADD MSTORE PUSH1 0x40 ADD PUSH1 0x40 MLOAD DUP1 SWAP2 SUB SWAP1 PUSH1 0x0 CREATE DUP1 ISZERO DUP1 ISZERO PUSH3 0x413 JUMPI RETURNDATASIZE PUSH1 0x0 DUP1 RETURNDATACOPY RETURNDATASIZE PUSH1 0x0 REVERT JUMPDEST POP PUSH1 0x1A PUSH1 0x0 PUSH2 0x100 EXP DUP2 SLOAD DUP2 PUSH1 0x1 PUSH1 0x1 PUSH1 0xA0 SHL SUB MUL NOT AND SWAP1 DUP4 PUSH1 0x1 PUSH1 0x1 PUSH1 0xA0 SHL SUB AND MUL OR SWAP1 SSTORE POP PUSH11 0x2E5276153CD3FB3800000 PUSH20 0x2F838CF0DF38B2E91E747A01DDAE5EBAD5558B7A PUSH1 0x40 MLOAD PUSH3 0x469 SWAP1 PUSH3 0x8DD JUMP JUMPDEST SWAP2 DUP3 MSTORE PUSH1 0x1 PUSH1 0x1 PUSH1 0xA0 SHL SUB AND PUSH1 0x20 DUP3 ADD MSTORE PUSH1 0x40 ADD PUSH1 0x40 MLOAD DUP1 SWAP2 SUB SWAP1 PUSH1 0x0 CREATE DUP1 ISZERO DUP1 ISZERO PUSH3 0x49A JUMPI RETURNDATASIZE PUSH1 0x0 DUP1 RETURNDATACOPY RETURNDATASIZE PUSH1 0x0 REVERT JUMPDEST POP PUSH1 0x1B PUSH1 0x0 PUSH2 0x100 EXP DUP2 SLOAD DUP2 PUSH1 0x1 PUSH1 0x1 PUSH1 0xA0 SHL SUB MUL NOT AND SWAP1 DUP4 PUSH1 0x1 PUSH1 0x1 PUSH1 0xA0 SHL SUB AND MUL OR SWAP1 SSTORE POP PUSH11 0x2E5276153CD3FB3800000 PUSH20 0x45094071C4DAAF6A9A73B0A0F095A2B138BD8A3A PUSH1 0x40 MLOAD PUSH3 0x4F0 SWAP1 PUSH3 0x8DD JUMP JUMPDEST SWAP2 DUP3 MSTORE PUSH1 0x1 PUSH1 0x1 PUSH1 0xA0 SHL SUB AND PUSH1 0x20 DUP3 ADD MSTORE PUSH1 0x40 ADD PUSH1 0x40 MLOAD DUP1 SWAP2 SUB SWAP1 PUSH1 0x0 CREATE DUP1 ISZERO DUP1 ISZERO PUSH3 0x521 JUMPI RETURNDATASIZE PUSH1 0x0 DUP1 RETURNDATACOPY RETURNDATASIZE PUSH1 0x0 REVERT JUMPDEST POP PUSH1 0x1C PUSH1 0x0 PUSH2 0x100 EXP DUP2 SLOAD DUP2 PUSH1 0x1 PUSH1 0x1 PUSH1 0xA0 SHL SUB MUL NOT AND SWAP1 DUP4 PUSH1 0x1 PUSH1 0x1 PUSH1 0xA0 SHL SUB AND MUL OR SWAP1 SSTORE POP PUSH11 0x2E5276153CD3FB3800000 PUSH20 0xAEB26FB84D0E2B3B353CD50F0A29FD40C916D2AB PUSH1 0x40 MLOAD PUSH3 0x577 SWAP1 PUSH3 0x8DD JUMP JUMPDEST SWAP2 DUP3 MSTORE PUSH1 0x1 PUSH1 0x1 PUSH1 0xA0 SHL SUB AND PUSH1 0x20 DUP3 ADD MSTORE PUSH1 0x40 ADD PUSH1 0x40 MLOAD DUP1 SWAP2 SUB SWAP1 PUSH1 0x0 CREATE DUP1 ISZERO DUP1 ISZERO PUSH3 0x5A8 JUMPI RETURNDATASIZE PUSH1 0x0 DUP1 RETURNDATACOPY RETURNDATASIZE PUSH1 0x0 REVERT JUMPDEST POP PUSH1 0x1D PUSH1 0x0 PUSH2 0x100 EXP DUP2 SLOAD DUP2 PUSH1 0x1 PUSH1 0x1 PUSH1 0xA0 SHL SUB MUL NOT AND SWAP1 DUP4 PUSH1 0x1 PUSH1 0x1 PUSH1 0xA0 SHL SUB AND MUL OR SWAP1 SSTORE POP PUSH11 0x8AF7623FB67BF1A800000 PUSH20 0xE61E7A7D16DB384433E532FB85724E7F3BDAAE2F PUSH1 0x40 MLOAD PUSH3 0x5FE SWAP1 PUSH3 0x8DD JUMP JUMPDEST SWAP2 DUP3 MSTORE PUSH1 0x1 PUSH1 0x1 PUSH1 0xA0 SHL SUB AND PUSH1 0x20 DUP3 ADD MSTORE PUSH1 0x40 ADD PUSH1 0x40 MLOAD DUP1 SWAP2 SUB SWAP1 PUSH1 0x0 CREATE DUP1 ISZERO DUP1 ISZERO PUSH3 0x62F JUMPI RETURNDATASIZE PUSH1 0x0 DUP1 RETURNDATACOPY RETURNDATASIZE PUSH1 0x0 REVERT JUMPDEST POP PUSH1 0x1E PUSH1 0x0 PUSH2 0x100 EXP DUP2 SLOAD DUP2 PUSH1 0x1 PUSH1 0x1 PUSH1 0xA0 SHL SUB MUL NOT AND SWAP1 DUP4 PUSH1 0x1 PUSH1 0x1 PUSH1 0xA0 SHL SUB AND MUL OR SWAP1 SSTORE POP PUSH11 0x8AF7623FB67BF1A800000 PUSH20 0x406605EB24A97A2D61B516D8D850F2AEFA6A731A PUSH1 0x40 MLOAD PUSH3 0x685 SWAP1 PUSH3 0x8DD JUMP JUMPDEST SWAP2 DUP3 MSTORE PUSH1 0x1 PUSH1 0x1 PUSH1 0xA0 SHL SUB AND PUSH1 0x20 DUP3 ADD MSTORE PUSH1 0x40 ADD PUSH1 0x40 MLOAD DUP1 SWAP2 SUB SWAP1 PUSH1 0x0 CREATE DUP1 ISZERO DUP1 ISZERO PUSH3 0x6B6 JUMPI RETURNDATASIZE PUSH1 0x0 DUP1 RETURNDATACOPY RETURNDATASIZE PUSH1 0x0 REVERT JUMPDEST POP PUSH1 0x1F PUSH1 0x0 PUSH2 0x100 EXP DUP2 SLOAD DUP2 PUSH1 0x1 PUSH1 0x1 PUSH1 0xA0 SHL SUB MUL NOT AND SWAP1 DUP4 PUSH1 0x1 PUSH1 0x1 PUSH1 0xA0 SHL SUB AND MUL OR SWAP1 SSTORE POP PUSH11 0x8AF7623FB67BF1A800000 PUSH20 0x97620DEADC98BC8173303686037CE7B986CF53C3 PUSH1 0x40 MLOAD PUSH3 0x70C SWAP1 PUSH3 0x8DD JUMP JUMPDEST SWAP2 DUP3 MSTORE PUSH1 0x1 PUSH1 0x1 PUSH1 0xA0 SHL SUB AND PUSH1 0x20 DUP3 ADD MSTORE PUSH1 0x40 ADD PUSH1 0x40 MLOAD DUP1 SWAP2 SUB SWAP1 PUSH1 0x0 CREATE DUP1 ISZERO DUP1 ISZERO PUSH3 0x73D JUMPI RETURNDATASIZE PUSH1 0x0 DUP1 RETURNDATACOPY RETURNDATASIZE PUSH1 0x0 REVERT JUMPDEST POP PUSH1 0x20 DUP1 SLOAD PUSH1 0x1 PUSH1 0x1 PUSH1 0xA0 SHL SUB NOT AND PUSH1 0x1 PUSH1 0x1 PUSH1 0xA0 SHL SUB SWAP3 SWAP1 SWAP3 AND SWAP2 SWAP1 SWAP2 OR DUP2 SSTORE PUSH1 0x40 DUP1 MLOAD DUP1 DUP3 ADD SWAP1 SWAP2 MSTORE PUSH1 0x19 DUP2 MSTORE PUSH32 0x496E73756666696369656E7420546F74616C20537570706C7900000000000000 DUP2 DUP4 ADD MSTORE PUSH1 0xF SLOAD PUSH3 0x7B7 SWAP3 SWAP1 SWAP2 PUSH11 0x8247EC1BBB14328D800000 SWAP2 PUSH3 0x816 DUP2 SHL PUSH3 0x32B2 OR SWAP1 SHR JUMP JUMPDEST PUSH1 0xF SSTORE PUSH3 0x997 JUMP JUMPDEST CALLER SWAP1 JUMP JUMPDEST PUSH1 0x5 DUP1 SLOAD PUSH1 0x1 PUSH1 0x1 PUSH1 0xA0 SHL SUB DUP4 DUP2 AND PUSH1 0x1 PUSH1 0x1 PUSH1 0xA0 SHL SUB NOT DUP4 AND DUP2 OR SWAP1 SWAP4 SSTORE PUSH1 0x40 MLOAD SWAP2 AND SWAP2 SWAP1 DUP3 SWAP1 PUSH32 0x8BE0079C531659141344CD1FD0A4F28419497F9722A3DAAFE3B4186F6B6457E0 SWAP1 PUSH1 0x0 SWAP1 LOG3 POP POP JUMP JUMPDEST PUSH1 0x0 DUP2 DUP5 DUP5 GT ISZERO PUSH3 0x846 JUMPI PUSH1 0x40 MLOAD PUSH3 0x461BCD PUSH1 0xE5 SHL DUP2 MSTORE PUSH1 0x4 ADD PUSH3 0x83D SWAP2 SWAP1 PUSH3 0x902 JUMP JUMPDEST PUSH1 0x40 MLOAD DUP1 SWAP2 SUB SWAP1 REVERT JUMPDEST POP POP POP SWAP1 SUB SWAP1 JUMP JUMPDEST DUP3 DUP1 SLOAD PUSH3 0x85C SWAP1 PUSH3 0x95A JUMP JUMPDEST SWAP1 PUSH1 0x0 MSTORE PUSH1 0x20 PUSH1 0x0 KECCAK256 SWAP1 PUSH1 0x1F ADD PUSH1 0x20 SWAP1 DIV DUP2 ADD SWAP3 DUP3 PUSH3 0x880 JUMPI PUSH1 0x0 DUP6 SSTORE PUSH3 0x8CB JUMP JUMPDEST DUP3 PUSH1 0x1F LT PUSH3 0x89B JUMPI DUP1 MLOAD PUSH1 0xFF NOT AND DUP4 DUP1 ADD OR DUP6 SSTORE PUSH3 0x8CB JUMP JUMPDEST DUP3 DUP1 ADD PUSH1 0x1 ADD DUP6 SSTORE DUP3 ISZERO PUSH3 0x8CB JUMPI SWAP2 DUP3 ADD JUMPDEST DUP3 DUP2 GT ISZERO PUSH3 0x8CB JUMPI DUP3 MLOAD DUP3 SSTORE SWAP2 PUSH1 0x20 ADD SWAP2 SWAP1 PUSH1 0x1 ADD SWAP1 PUSH3 0x8AE JUMP JUMPDEST POP PUSH3 0x8D9 SWAP3 SWAP2 POP PUSH3 0x8EB JUMP JUMPDEST POP SWAP1 JUMP JUMPDEST PUSH2 0x6A8 DUP1 PUSH3 0x68BE DUP4 CODECOPY ADD SWAP1 JUMP JUMPDEST JUMPDEST DUP1 DUP3 GT ISZERO PUSH3 0x8D9 JUMPI PUSH1 0x0 DUP2 SSTORE PUSH1 0x1 ADD PUSH3 0x8EC JUMP JUMPDEST PUSH1 0x0 PUSH1 0x20 DUP1 DUP4 MSTORE DUP4 MLOAD DUP1 DUP3 DUP6 ADD MSTORE PUSH1 0x0 JUMPDEST DUP2 DUP2 LT ISZERO PUSH3 0x931 JUMPI DUP6 DUP2 ADD DUP4 ADD MLOAD DUP6 DUP3 ADD PUSH1 0x40 ADD MSTORE DUP3 ADD PUSH3 0x913 JUMP JUMPDEST DUP2 DUP2 GT ISZERO PUSH3 0x944 JUMPI PUSH1 0x0 PUSH1 0x40 DUP4 DUP8 ADD ADD MSTORE JUMPDEST POP PUSH1 0x1F ADD PUSH1 0x1F NOT AND SWAP3 SWAP1 SWAP3 ADD PUSH1 0x40 ADD SWAP4 SWAP3 POP POP POP JUMP JUMPDEST PUSH1 0x1 DUP2 DUP2 SHR SWAP1 DUP3 AND DUP1 PUSH3 0x96F JUMPI PUSH1 0x7F DUP3 AND SWAP2 POP JUMPDEST PUSH1 0x20 DUP3 LT DUP2 EQ ISZERO PUSH3 0x991 JUMPI PUSH4 0x4E487B71 PUSH1 0xE0 SHL PUSH1 0x0 MSTORE PUSH1 0x22 PUSH1 0x4 MSTORE PUSH1 0x24 PUSH1 0x0 REVERT JUMPDEST POP SWAP2 SWAP1 POP JUMP JUMPDEST PUSH2 0x5F17 DUP1 PUSH3 0x9A7 PUSH1 0x0 CODECOPY PUSH1 0x0 RETURN INVALID PUSH1 0x80 PUSH1 0x40 MSTORE PUSH1 0x4 CALLDATASIZE LT PUSH2 0x433 JUMPI PUSH1 0x0 CALLDATALOAD PUSH1 0xE0 SHR DUP1 PUSH4 0x8902CD70 GT PUSH2 0x228 JUMPI DUP1 PUSH4 0xB87DA76D GT PUSH2 0x128 JUMPI DUP1 PUSH4 0xD9DC2D8D GT PUSH2 0xBB JUMPI DUP1 PUSH4 0xE88C326F GT PUSH2 0x8A JUMPI DUP1 PUSH4 0xF2FDE38B GT PUSH2 0x6F JUMPI DUP1 PUSH4 0xF2FDE38B EQ PUSH2 0xCDC JUMPI DUP1 PUSH4 0xF5AD7C3D EQ PUSH2 0xCFC JUMPI DUP1 PUSH4 0xFE6C9CC0 EQ PUSH2 0xD24 JUMPI PUSH2 0x443 JUMP JUMPDEST DUP1 PUSH4 0xE88C326F EQ PUSH2 0xCA8 JUMPI DUP1 PUSH4 0xEB9F4AC7 EQ PUSH2 0xCC7 JUMPI PUSH2 0x443 JUMP JUMPDEST DUP1 PUSH4 0xD9DC2D8D EQ PUSH2 0xB8C JUMPI DUP1 PUSH4 0xDD62ED3E EQ PUSH2 0xBB4 JUMPI DUP1 PUSH4 0xE1604B70 EQ PUSH2 0xBFA JUMPI DUP1 PUSH4 0xE73E14BF EQ PUSH2 0xC10 JUMPI PUSH2 0x443 JUMP JUMPDEST DUP1 PUSH4 0xC680111C GT PUSH2 0xF7 JUMPI DUP1 PUSH4 0xC680111C EQ PUSH2 0xB0F JUMPI DUP1 PUSH4 0xCBB3E152 EQ PUSH2 0xB37 JUMPI DUP1 PUSH4 0xD5DBDF1B EQ PUSH2 0xB4C JUMPI DUP1 PUSH4 0xD94D4AD6 EQ PUSH2 0xB6C JUMPI PUSH2 0x443 JUMP JUMPDEST DUP1 PUSH4 0xB87DA76D EQ PUSH2 0xAA6 JUMPI DUP1 PUSH4 0xB8B18E89 EQ PUSH2 0xABC JUMPI DUP1 PUSH4 0xBA1F879F EQ PUSH2 0xAD1 JUMPI DUP1 PUSH4 0xBE472794 EQ PUSH2 0xAE7 JUMPI PUSH2 0x443 JUMP JUMPDEST DUP1 PUSH4 0x95D89B41 GT PUSH2 0x1BB JUMPI DUP1 PUSH4 0xA1F780CF GT PUSH2 0x18A JUMPI DUP1 PUSH4 0xA457C2D7 GT PUSH2 0x16F JUMPI DUP1 PUSH4 0xA457C2D7 EQ PUSH2 0xA3E JUMPI DUP1 PUSH4 0xA837A65E EQ PUSH2 0xA5E JUMPI DUP1 PUSH4 0xA9059CBB EQ PUSH2 0xA86 JUMPI PUSH2 0x443 JUMP JUMPDEST DUP1 PUSH4 0xA1F780CF EQ PUSH2 0x9F6 JUMPI DUP1 PUSH4 0xA3626DBB EQ PUSH2 0xA16 JUMPI PUSH2 0x443 JUMP JUMPDEST DUP1 PUSH4 0x95D89B41 EQ PUSH2 0x984 JUMPI DUP1 PUSH4 0x96BC0687 EQ PUSH2 0x999 JUMPI DUP1 PUSH4 0x9F42A98B EQ PUSH2 0x9AE JUMPI DUP1 PUSH4 0xA169C515 EQ PUSH2 0x9D6 JUMPI PUSH2 0x443 JUMP JUMPDEST DUP1 PUSH4 0x8DA5CB5B GT PUSH2 0x1F7 JUMPI DUP1 PUSH4 0x8DA5CB5B EQ PUSH2 0x914 JUMPI DUP1 PUSH4 0x908E0D1E EQ PUSH2 0x932 JUMPI DUP1 PUSH4 0x90A4C709 EQ PUSH2 0x95A JUMPI DUP1 PUSH4 0x934851EC EQ PUSH2 0x96F JUMPI PUSH2 0x443 JUMP JUMPDEST DUP1 PUSH4 0x8902CD70 EQ PUSH2 0x88C JUMPI DUP1 PUSH4 0x8ABB1D17 EQ PUSH2 0x8AC JUMPI DUP1 PUSH4 0x8B7C64DA EQ PUSH2 0x8D4 JUMPI DUP1 PUSH4 0x8C63F97F EQ PUSH2 0x8F4 JUMPI PUSH2 0x443 JUMP JUMPDEST DUP1 PUSH4 0x3DC10AD4 GT PUSH2 0x333 JUMPI DUP1 PUSH4 0x715018A6 GT PUSH2 0x2C6 JUMPI DUP1 PUSH4 0x7B0472F0 GT PUSH2 0x295 JUMPI DUP1 PUSH4 0x8378A875 GT PUSH2 0x27A JUMPI DUP1 PUSH4 0x8378A875 EQ PUSH2 0x84D JUMPI DUP1 PUSH4 0x84F3996D EQ PUSH2 0x862 JUMPI DUP1 PUSH4 0x883D9984 EQ PUSH2 0x877 JUMPI PUSH2 0x443 JUMP JUMPDEST DUP1 PUSH4 0x7B0472F0 EQ PUSH2 0x818 JUMPI DUP1 PUSH4 0x7C2412F9 EQ PUSH2 0x838 JUMPI PUSH2 0x443 JUMP JUMPDEST DUP1 PUSH4 0x715018A6 EQ PUSH2 0x7AE JUMPI DUP1 PUSH4 0x72FE1E63 EQ PUSH2 0x7C3 JUMPI DUP1 PUSH4 0x760EDFFD EQ PUSH2 0x7D9 JUMPI DUP1 PUSH4 0x79CC6790 EQ PUSH2 0x7F8 JUMPI PUSH2 0x443 JUMP JUMPDEST DUP1 PUSH4 0x50549C7D GT PUSH2 0x302 JUMPI DUP1 PUSH4 0x50549C7D EQ PUSH2 0x726 JUMPI DUP1 PUSH4 0x56029137 EQ PUSH2 0x74E JUMPI DUP1 PUSH4 0x5B88349D EQ PUSH2 0x763 JUMPI DUP1 PUSH4 0x70A08231 EQ PUSH2 0x778 JUMPI PUSH2 0x443 JUMP JUMPDEST DUP1 PUSH4 0x3DC10AD4 EQ PUSH2 0x6BC JUMPI DUP1 PUSH4 0x3F3EF2DC EQ PUSH2 0x6D1 JUMPI DUP1 PUSH4 0x40C10F19 EQ PUSH2 0x6E6 JUMPI DUP1 PUSH4 0x42966C68 EQ PUSH2 0x706 JUMPI PUSH2 0x443 JUMP JUMPDEST DUP1 PUSH4 0x1A39D8EF GT PUSH2 0x3C6 JUMPI DUP1 PUSH4 0x2CF1A5FB GT PUSH2 0x395 JUMPI DUP1 PUSH4 0x376D441C GT PUSH2 0x37A JUMPI DUP1 PUSH4 0x376D441C EQ PUSH2 0x647 JUMPI DUP1 PUSH4 0x39509351 EQ PUSH2 0x667 JUMPI DUP1 PUSH4 0x3B124FE7 EQ PUSH2 0x687 JUMPI PUSH2 0x443 JUMP JUMPDEST DUP1 PUSH4 0x2CF1A5FB EQ PUSH2 0x611 JUMPI DUP1 PUSH4 0x313CE567 EQ PUSH2 0x62B JUMPI PUSH2 0x443 JUMP JUMPDEST DUP1 PUSH4 0x1A39D8EF EQ PUSH2 0x57B JUMPI DUP1 PUSH4 0x21AEAC1B EQ PUSH2 0x591 JUMPI DUP1 PUSH4 0x23B872DD EQ PUSH2 0x5D1 JUMPI DUP1 PUSH4 0x25D5971F EQ PUSH2 0x5F1 JUMPI PUSH2 0x443 JUMP JUMPDEST DUP1 PUSH4 0xE1B09ED GT PUSH2 0x402 JUMPI DUP1 PUSH4 0xE1B09ED EQ PUSH2 0x4E7 JUMPI DUP1 PUSH4 0x15441BB9 EQ PUSH2 0x507 JUMPI DUP1 PUSH4 0x18160DDD EQ PUSH2 0x51C JUMPI DUP1 PUSH4 0x19CA147D EQ PUSH2 0x531 JUMPI PUSH2 0x443 JUMP JUMPDEST DUP1 PUSH4 0x42249BB EQ PUSH2 0x44C JUMPI DUP1 PUSH4 0x6FDDE03 EQ PUSH2 0x475 JUMPI DUP1 PUSH4 0x78F522F EQ PUSH2 0x497 JUMPI DUP1 PUSH4 0x95EA7B3 EQ PUSH2 0x4B7 JUMPI PUSH2 0x443 JUMP JUMPDEST CALLDATASIZE PUSH2 0x443 JUMPI PUSH2 0x441 CALLVALUE PUSH2 0xD42 JUMP JUMPDEST STOP JUMPDEST PUSH2 0x441 CALLVALUE PUSH2 0xD42 JUMP JUMPDEST CALLVALUE DUP1 ISZERO PUSH2 0x458 JUMPI PUSH1 0x0 DUP1 REVERT JUMPDEST POP PUSH2 0x462 PUSH1 0x13 SLOAD DUP2 JUMP JUMPDEST PUSH1 0x40 MLOAD SWAP1 DUP2 MSTORE PUSH1 0x20 ADD JUMPDEST PUSH1 0x40 MLOAD DUP1 SWAP2 SUB SWAP1 RETURN JUMPDEST CALLVALUE DUP1 ISZERO PUSH2 0x481 JUMPI PUSH1 0x0 DUP1 REVERT JUMPDEST POP PUSH2 0x48A PUSH2 0xEB4 JUMP JUMPDEST PUSH1 0x40 MLOAD PUSH2 0x46C SWAP2 SWAP1 PUSH2 0x5AB4 JUMP JUMPDEST CALLVALUE DUP1 ISZERO PUSH2 0x4A3 JUMPI PUSH1 0x0 DUP1 REVERT JUMPDEST POP PUSH2 0x441 PUSH2 0x4B2 CALLDATASIZE PUSH1 0x4 PUSH2 0x5B09 JUMP JUMPDEST PUSH2 0xF46 JUMP JUMPDEST CALLVALUE DUP1 ISZERO PUSH2 0x4C3 JUMPI PUSH1 0x0 DUP1 REVERT JUMPDEST POP PUSH2 0x4D7 PUSH2 0x4D2 CALLDATASIZE PUSH1 0x4 PUSH2 0x5B93 JUMP JUMPDEST PUSH2 0x11D0 JUMP JUMPDEST PUSH1 0x40 MLOAD SWAP1 ISZERO ISZERO DUP2 MSTORE PUSH1 0x20 ADD PUSH2 0x46C JUMP JUMPDEST CALLVALUE DUP1 ISZERO PUSH2 0x4F3 JUMPI PUSH1 0x0 DUP1 REVERT JUMPDEST POP PUSH2 0x441 PUSH2 0x502 CALLDATASIZE PUSH1 0x4 PUSH2 0x5BBF JUMP JUMPDEST PUSH2 0x11EA JUMP JUMPDEST CALLVALUE DUP1 ISZERO PUSH2 0x513 JUMPI PUSH1 0x0 DUP1 REVERT JUMPDEST POP PUSH2 0x441 PUSH2 0x128E JUMP JUMPDEST CALLVALUE DUP1 ISZERO PUSH2 0x528 JUMPI PUSH1 0x0 DUP1 REVERT JUMPDEST POP PUSH1 0xF SLOAD PUSH2 0x462 JUMP JUMPDEST CALLVALUE DUP1 ISZERO PUSH2 0x53D JUMPI PUSH1 0x0 DUP1 REVERT JUMPDEST POP PUSH2 0x546 PUSH2 0x1469 JUMP JUMPDEST PUSH1 0x40 MLOAD PUSH2 0x46C SWAP2 SWAP1 DUP2 MLOAD DUP2 MSTORE PUSH1 0x20 DUP1 DUP4 ADD MLOAD SWAP1 DUP3 ADD MSTORE PUSH1 0x40 DUP1 DUP4 ADD MLOAD ISZERO ISZERO SWAP1 DUP3 ADD MSTORE PUSH1 0x60 SWAP2 DUP3 ADD MLOAD SWAP2 DUP2 ADD SWAP2 SWAP1 SWAP2 MSTORE PUSH1 0x80 ADD SWAP1 JUMP JUMPDEST CALLVALUE DUP1 ISZERO PUSH2 0x587 JUMPI PUSH1 0x0 DUP1 REVERT JUMPDEST POP PUSH2 0x462 PUSH1 0xA SLOAD DUP2 JUMP JUMPDEST CALLVALUE DUP1 ISZERO PUSH2 0x59D JUMPI PUSH1 0x0 DUP1 REVERT JUMPDEST POP PUSH2 0x5B9 PUSH20 0x406605EB24A97A2D61B516D8D850F2AEFA6A731A DUP2 JUMP JUMPDEST PUSH1 0x40 MLOAD PUSH1 0x1 PUSH1 0x1 PUSH1 0xA0 SHL SUB SWAP1 SWAP2 AND DUP2 MSTORE PUSH1 0x20 ADD PUSH2 0x46C JUMP JUMPDEST CALLVALUE DUP1 ISZERO PUSH2 0x5DD JUMPI PUSH1 0x0 DUP1 REVERT JUMPDEST POP PUSH2 0x4D7 PUSH2 0x5EC CALLDATASIZE PUSH1 0x4 PUSH2 0x5BD8 JUMP JUMPDEST PUSH2 0x1566 JUMP JUMPDEST CALLVALUE DUP1 ISZERO PUSH2 0x5FD JUMPI PUSH1 0x0 DUP1 REVERT JUMPDEST POP PUSH2 0x441 PUSH2 0x60C CALLDATASIZE PUSH1 0x4 PUSH2 0x5BBF JUMP JUMPDEST PUSH2 0x158A JUMP JUMPDEST CALLVALUE DUP1 ISZERO PUSH2 0x61D JUMPI PUSH1 0x0 DUP1 REVERT JUMPDEST POP PUSH1 0x16 SLOAD PUSH2 0x4D7 SWAP1 PUSH1 0xFF AND DUP2 JUMP JUMPDEST CALLVALUE DUP1 ISZERO PUSH2 0x637 JUMPI PUSH1 0x0 DUP1 REVERT JUMPDEST POP PUSH1 0x40 MLOAD PUSH1 0x12 DUP2 MSTORE PUSH1 0x20 ADD PUSH2 0x46C JUMP JUMPDEST CALLVALUE DUP1 ISZERO PUSH2 0x653 JUMPI PUSH1 0x0 DUP1 REVERT JUMPDEST POP PUSH1 0x16 SLOAD PUSH2 0x4D7 SWAP1 PUSH3 0x10000 SWAP1 DIV PUSH1 0xFF AND DUP2 JUMP JUMPDEST CALLVALUE DUP1 ISZERO PUSH2 0x673 JUMPI PUSH1 0x0 DUP1 REVERT JUMPDEST POP PUSH2 0x4D7 PUSH2 0x682 CALLDATASIZE PUSH1 0x4 PUSH2 0x5B93 JUMP JUMPDEST PUSH2 0x1623 JUMP JUMPDEST CALLVALUE DUP1 ISZERO PUSH2 0x693 JUMPI PUSH1 0x0 DUP1 REVERT JUMPDEST POP PUSH1 0x16 SLOAD PUSH2 0x6A9 SWAP1 PUSH4 0x1000000 SWAP1 DIV PUSH2 0xFFFF AND DUP2 JUMP JUMPDEST PUSH1 0x40 MLOAD PUSH2 0xFFFF SWAP1 SWAP2 AND DUP2 MSTORE PUSH1 0x20 ADD PUSH2 0x46C JUMP JUMPDEST CALLVALUE DUP1 ISZERO PUSH2 0x6C8 JUMPI PUSH1 0x0 DUP1 REVERT JUMPDEST POP PUSH1 0x6 SLOAD PUSH2 0x462 JUMP JUMPDEST CALLVALUE DUP1 ISZERO PUSH2 0x6DD JUMPI PUSH1 0x0 DUP1 REVERT JUMPDEST POP PUSH2 0x441 PUSH2 0x1662 JUMP JUMPDEST CALLVALUE DUP1 ISZERO PUSH2 0x6F2 JUMPI PUSH1 0x0 DUP1 REVERT JUMPDEST POP PUSH2 0x441 PUSH2 0x701 CALLDATASIZE PUSH1 0x4 PUSH2 0x5B93 JUMP JUMPDEST PUSH2 0x17A9 JUMP JUMPDEST CALLVALUE DUP1 ISZERO PUSH2 0x712 JUMPI PUSH1 0x0 DUP1 REVERT JUMPDEST POP PUSH2 0x441 PUSH2 0x721 CALLDATASIZE PUSH1 0x4 PUSH2 0x5BBF JUMP JUMPDEST PUSH2 0x17FF JUMP JUMPDEST CALLVALUE DUP1 ISZERO PUSH2 0x732 JUMPI PUSH1 0x0 DUP1 REVERT JUMPDEST POP PUSH2 0x5B9 PUSH20 0x5470C8FF25EC05980FC7C2967D076B8012298FE7 DUP2 JUMP JUMPDEST CALLVALUE DUP1 ISZERO PUSH2 0x75A JUMPI PUSH1 0x0 DUP1 REVERT JUMPDEST POP PUSH2 0x441 PUSH2 0x180C JUMP JUMPDEST CALLVALUE DUP1 ISZERO PUSH2 0x76F JUMPI PUSH1 0x0 DUP1 REVERT JUMPDEST POP PUSH2 0x441 PUSH2 0x1948 JUMP JUMPDEST CALLVALUE DUP1 ISZERO PUSH2 0x784 JUMPI PUSH1 0x0 DUP1 REVERT JUMPDEST POP PUSH2 0x462 PUSH2 0x793 CALLDATASIZE PUSH1 0x4 PUSH2 0x5C19 JUMP JUMPDEST PUSH1 0x1 PUSH1 0x1 PUSH1 0xA0 SHL SUB AND PUSH1 0x0 SWAP1 DUP2 MSTORE PUSH1 0xD PUSH1 0x20 MSTORE PUSH1 0x40 SWAP1 KECCAK256 SLOAD SWAP1 JUMP JUMPDEST CALLVALUE DUP1 ISZERO PUSH2 0x7BA JUMPI PUSH1 0x0 DUP1 REVERT JUMPDEST POP PUSH2 0x441 PUSH2 0x19FB JUMP JUMPDEST CALLVALUE DUP1 ISZERO PUSH2 0x7CF JUMPI PUSH1 0x0 DUP1 REVERT JUMPDEST POP PUSH2 0x462 PUSH1 0xB SLOAD DUP2 JUMP JUMPDEST CALLVALUE DUP1 ISZERO PUSH2 0x7E5 JUMPI PUSH1 0x0 DUP1 REVERT JUMPDEST POP PUSH2 0x462 PUSH11 0x136D704B91C7B3A700000 DUP2 JUMP JUMPDEST CALLVALUE DUP1 ISZERO PUSH2 0x804 JUMPI PUSH1 0x0 DUP1 REVERT JUMPDEST POP PUSH2 0x441 PUSH2 0x813 CALLDATASIZE PUSH1 0x4 PUSH2 0x5B93 JUMP JUMPDEST PUSH2 0x1A4F JUMP JUMPDEST CALLVALUE DUP1 ISZERO PUSH2 0x824 JUMPI PUSH1 0x0 DUP1 REVERT JUMPDEST POP PUSH2 0x441 PUSH2 0x833 CALLDATASIZE PUSH1 0x4 PUSH2 0x5C36 JUMP JUMPDEST PUSH2 0x1A64 JUMP JUMPDEST CALLVALUE DUP1 ISZERO PUSH2 0x844 JUMPI PUSH1 0x0 DUP1 REVERT JUMPDEST POP PUSH2 0x441 PUSH2 0x1B35 JUMP JUMPDEST CALLVALUE DUP1 ISZERO PUSH2 0x859 JUMPI PUSH1 0x0 DUP1 REVERT JUMPDEST POP PUSH2 0x441 PUSH2 0x1B50 JUMP JUMPDEST CALLVALUE DUP1 ISZERO PUSH2 0x86E JUMPI PUSH1 0x0 DUP1 REVERT JUMPDEST POP PUSH2 0x441 PUSH2 0x1C8C JUMP JUMPDEST CALLVALUE DUP1 ISZERO PUSH2 0x883 JUMPI PUSH1 0x0 DUP1 REVERT JUMPDEST POP PUSH2 0x441 PUSH2 0x1DC8 JUMP JUMPDEST CALLVALUE DUP1 ISZERO PUSH2 0x898 JUMPI PUSH1 0x0 DUP1 REVERT JUMPDEST POP PUSH2 0x441 PUSH2 0x8A7 CALLDATASIZE PUSH1 0x4 PUSH2 0x5C58 JUMP JUMPDEST PUSH2 0x1F04 JUMP JUMPDEST CALLVALUE DUP1 ISZERO PUSH2 0x8B8 JUMPI PUSH1 0x0 DUP1 REVERT JUMPDEST POP PUSH2 0x5B9 PUSH20 0xF09F65DD4D229E991901669AD7C7549F060E30B9 DUP2 JUMP JUMPDEST CALLVALUE DUP1 ISZERO PUSH2 0x8E0 JUMPI PUSH1 0x0 DUP1 REVERT JUMPDEST POP PUSH2 0x441 PUSH2 0x8EF CALLDATASIZE PUSH1 0x4 PUSH2 0x5BBF JUMP JUMPDEST PUSH2 0x2003 JUMP JUMPDEST CALLVALUE DUP1 ISZERO PUSH2 0x900 JUMPI PUSH1 0x0 DUP1 REVERT JUMPDEST POP PUSH2 0x441 PUSH2 0x90F CALLDATASIZE PUSH1 0x4 PUSH2 0x5BBF JUMP JUMPDEST PUSH2 0x20BA JUMP JUMPDEST CALLVALUE DUP1 ISZERO PUSH2 0x920 JUMPI PUSH1 0x0 DUP1 REVERT JUMPDEST POP PUSH1 0x5 SLOAD PUSH1 0x1 PUSH1 0x1 PUSH1 0xA0 SHL SUB AND PUSH2 0x5B9 JUMP JUMPDEST CALLVALUE DUP1 ISZERO PUSH2 0x93E JUMPI PUSH1 0x0 DUP1 REVERT JUMPDEST POP PUSH2 0x5B9 PUSH20 0xE61E7A7D16DB384433E532FB85724E7F3BDAAE2F DUP2 JUMP JUMPDEST CALLVALUE DUP1 ISZERO PUSH2 0x966 JUMPI PUSH1 0x0 DUP1 REVERT JUMPDEST POP PUSH2 0x441 PUSH2 0x213D JUMP JUMPDEST CALLVALUE DUP1 ISZERO PUSH2 0x97B JUMPI PUSH1 0x0 DUP1 REVERT JUMPDEST POP PUSH2 0x441 PUSH2 0x2279 JUMP JUMPDEST CALLVALUE DUP1 ISZERO PUSH2 0x990 JUMPI PUSH1 0x0 DUP1 REVERT JUMPDEST POP PUSH2 0x48A PUSH2 0x23B5 JUMP JUMPDEST CALLVALUE DUP1 ISZERO PUSH2 0x9A5 JUMPI PUSH1 0x0 DUP1 REVERT JUMPDEST POP PUSH2 0x441 PUSH2 0x23C4 JUMP JUMPDEST CALLVALUE DUP1 ISZERO PUSH2 0x9BA JUMPI PUSH1 0x0 DUP1 REVERT JUMPDEST POP PUSH2 0x5B9 PUSH20 0x126974FA373267D86FAB6D6871AFE62CCB68E810 DUP2 JUMP JUMPDEST CALLVALUE DUP1 ISZERO PUSH2 0x9E2 JUMPI PUSH1 0x0 DUP1 REVERT JUMPDEST POP PUSH2 0x441 PUSH2 0x9F1 CALLDATASIZE PUSH1 0x4 PUSH2 0x5BBF JUMP JUMPDEST PUSH2 0x298B JUMP JUMPDEST CALLVALUE DUP1 ISZERO PUSH2 0xA02 JUMPI PUSH1 0x0 DUP1 REVERT JUMPDEST POP PUSH2 0x441 PUSH2 0xA11 CALLDATASIZE PUSH1 0x4 PUSH2 0x5C7C JUMP JUMPDEST PUSH2 0x29DC JUMP JUMPDEST CALLVALUE DUP1 ISZERO PUSH2 0xA22 JUMPI PUSH1 0x0 DUP1 REVERT JUMPDEST POP PUSH2 0x5B9 PUSH20 0x45094071C4DAAF6A9A73B0A0F095A2B138BD8A3A DUP2 JUMP JUMPDEST CALLVALUE DUP1 ISZERO PUSH2 0xA4A JUMPI PUSH1 0x0 DUP1 REVERT JUMPDEST POP PUSH2 0x4D7 PUSH2 0xA59 CALLDATASIZE PUSH1 0x4 PUSH2 0x5B93 JUMP JUMPDEST PUSH2 0x2B96 JUMP JUMPDEST CALLVALUE DUP1 ISZERO PUSH2 0xA6A JUMPI PUSH1 0x0 DUP1 REVERT JUMPDEST POP PUSH2 0x5B9 PUSH20 0x7A20DC6722563783E44BA8EDCA08C774621125E DUP2 JUMP JUMPDEST CALLVALUE DUP1 ISZERO PUSH2 0xA92 JUMPI PUSH1 0x0 DUP1 REVERT JUMPDEST POP PUSH2 0x4D7 PUSH2 0xAA1 CALLDATASIZE PUSH1 0x4 PUSH2 0x5B93 JUMP JUMPDEST PUSH2 0x2C40 JUMP JUMPDEST CALLVALUE DUP1 ISZERO PUSH2 0xAB2 JUMPI PUSH1 0x0 DUP1 REVERT JUMPDEST POP PUSH2 0x462 PUSH1 0x15 SLOAD DUP2 JUMP JUMPDEST CALLVALUE DUP1 ISZERO PUSH2 0xAC8 JUMPI PUSH1 0x0 DUP1 REVERT JUMPDEST POP PUSH2 0x441 PUSH2 0x2C4E JUMP JUMPDEST CALLVALUE DUP1 ISZERO PUSH2 0xADD JUMPI PUSH1 0x0 DUP1 REVERT JUMPDEST POP PUSH2 0x462 PUSH1 0x14 SLOAD DUP2 JUMP JUMPDEST CALLVALUE DUP1 ISZERO PUSH2 0xAF3 JUMPI PUSH1 0x0 DUP1 REVERT JUMPDEST POP PUSH2 0x5B9 PUSH20 0x1A2118E056D6AF192E233C2C9CFB34E067DED1F8 DUP2 JUMP JUMPDEST CALLVALUE DUP1 ISZERO PUSH2 0xB1B JUMPI PUSH1 0x0 DUP1 REVERT JUMPDEST POP PUSH2 0x5B9 PUSH20 0x2F838CF0DF38B2E91E747A01DDAE5EBAD5558B7A DUP2 JUMP JUMPDEST CALLVALUE DUP1 ISZERO PUSH2 0xB43 JUMPI PUSH1 0x0 DUP1 REVERT JUMPDEST POP PUSH2 0x462 PUSH2 0x2D8A JUMP JUMPDEST CALLVALUE DUP1 ISZERO PUSH2 0xB58 JUMPI PUSH1 0x0 DUP1 REVERT JUMPDEST POP PUSH2 0x441 PUSH2 0xB67 CALLDATASIZE PUSH1 0x4 PUSH2 0x5BBF JUMP JUMPDEST PUSH2 0x2E05 JUMP JUMPDEST CALLVALUE DUP1 ISZERO PUSH2 0xB78 JUMPI PUSH1 0x0 DUP1 REVERT JUMPDEST POP PUSH2 0x441 PUSH2 0xB87 CALLDATASIZE PUSH1 0x4 PUSH2 0x5BBF JUMP JUMPDEST PUSH2 0x2E88 JUMP JUMPDEST CALLVALUE DUP1 ISZERO PUSH2 0xB98 JUMPI PUSH1 0x0 DUP1 REVERT JUMPDEST POP PUSH2 0x5B9 PUSH20 0xAEB26FB84D0E2B3B353CD50F0A29FD40C916D2AB DUP2 JUMP JUMPDEST CALLVALUE DUP1 ISZERO PUSH2 0xBC0 JUMPI PUSH1 0x0 DUP1 REVERT JUMPDEST POP PUSH2 0x462 PUSH2 0xBCF CALLDATASIZE PUSH1 0x4 PUSH2 0x5CDF JUMP JUMPDEST PUSH1 0x1 PUSH1 0x1 PUSH1 0xA0 SHL SUB SWAP2 DUP3 AND PUSH1 0x0 SWAP1 DUP2 MSTORE PUSH1 0xE PUSH1 0x20 SWAP1 DUP2 MSTORE PUSH1 0x40 DUP1 DUP4 KECCAK256 SWAP4 SWAP1 SWAP5 AND DUP3 MSTORE SWAP2 SWAP1 SWAP2 MSTORE KECCAK256 SLOAD SWAP1 JUMP JUMPDEST CALLVALUE DUP1 ISZERO PUSH2 0xC06 JUMPI PUSH1 0x0 DUP1 REVERT JUMPDEST POP PUSH2 0x462 PUSH1 0x9 SLOAD DUP2 JUMP JUMPDEST CALLVALUE DUP1 ISZERO PUSH2 0xC1C JUMPI PUSH1 0x0 DUP1 REVERT JUMPDEST POP PUSH2 0xC30 PUSH2 0xC2B CALLDATASIZE PUSH1 0x4 PUSH2 0x5C19 JUMP JUMPDEST PUSH2 0x2F3F JUMP JUMPDEST PUSH1 0x40 MLOAD PUSH2 0x46C SWAP2 SWAP1 PUSH1 0x0 PUSH2 0x120 DUP3 ADD SWAP1 POP DUP3 MLOAD DUP3 MSTORE PUSH1 0x20 DUP4 ADD MLOAD PUSH1 0x20 DUP4 ADD MSTORE PUSH1 0x40 DUP4 ADD MLOAD PUSH1 0x1 PUSH1 0x1 PUSH1 0xA0 SHL SUB DUP2 MLOAD AND PUSH1 0x40 DUP5 ADD MSTORE PUSH1 0x20 DUP2 ADD MLOAD PUSH1 0x60 DUP5 ADD MSTORE PUSH1 0x40 DUP2 ADD MLOAD PUSH1 0x80 DUP5 ADD MSTORE PUSH1 0x60 DUP2 ADD MLOAD PUSH1 0xA0 DUP5 ADD MSTORE PUSH1 0x80 DUP2 ADD MLOAD PUSH1 0xC0 DUP5 ADD MSTORE PUSH1 0xA0 DUP2 ADD MLOAD PUSH1 0xE0 DUP5 ADD MSTORE PUSH1 0xC0 DUP2 ADD MLOAD PUSH2 0x100 DUP5 ADD MSTORE POP SWAP3 SWAP2 POP POP JUMP JUMPDEST CALLVALUE DUP1 ISZERO PUSH2 0xCB4 JUMPI PUSH1 0x0 DUP1 REVERT JUMPDEST POP PUSH1 0x16 SLOAD PUSH2 0x4D7 SWAP1 PUSH2 0x100 SWAP1 DIV PUSH1 0xFF AND DUP2 JUMP JUMPDEST CALLVALUE DUP1 ISZERO PUSH2 0xCD3 JUMPI PUSH1 0x0 DUP1 REVERT JUMPDEST POP PUSH2 0x441 PUSH2 0x30A9 JUMP JUMPDEST CALLVALUE DUP1 ISZERO PUSH2 0xCE8 JUMPI PUSH1 0x0 DUP1 REVERT JUMPDEST POP PUSH2 0x441 PUSH2 0xCF7 CALLDATASIZE PUSH1 0x4 PUSH2 0x5C19 JUMP JUMPDEST PUSH2 0x31E5 JUMP JUMPDEST CALLVALUE DUP1 ISZERO PUSH2 0xD08 JUMPI PUSH1 0x0 DUP1 REVERT JUMPDEST POP PUSH2 0x5B9 PUSH20 0x97620DEADC98BC8173303686037CE7B986CF53C3 DUP2 JUMP JUMPDEST CALLVALUE DUP1 ISZERO PUSH2 0xD30 JUMPI PUSH1 0x0 DUP1 REVERT JUMPDEST POP PUSH2 0x462 PUSH10 0x7AA22879AABCFAC0000 DUP2 JUMP JUMPDEST PUSH1 0x0 PUSH2 0xD4F DUP3 PUSH1 0x3 PUSH2 0x32DE JUMP JUMPDEST PUSH20 0xE61E7A7D16DB384433E532FB85724E7F3BDAAE2F PUSH1 0x0 MSTORE PUSH1 0xD PUSH1 0x20 MSTORE PUSH32 0xC0AA22BC3EEDD48A6F5DE6A05350EAA6391E8A68DCF757DC854A17AE87E4D744 SLOAD SWAP1 SWAP2 POP PUSH2 0xD9B SWAP1 DUP3 PUSH2 0x32F1 JUMP JUMPDEST PUSH1 0xD PUSH1 0x20 MSTORE PUSH32 0xC0AA22BC3EEDD48A6F5DE6A05350EAA6391E8A68DCF757DC854A17AE87E4D744 SSTORE PUSH20 0x406605EB24A97A2D61B516D8D850F2AEFA6A731A PUSH1 0x0 MSTORE PUSH32 0x4597D054B59D3EE1152F87A5254071C3FCE6D778B611F8C468C10AD4392CA619 SLOAD PUSH2 0xE06 SWAP1 DUP3 PUSH2 0x32F1 JUMP JUMPDEST PUSH1 0xD PUSH1 0x20 MSTORE PUSH32 0x4597D054B59D3EE1152F87A5254071C3FCE6D778B611F8C468C10AD4392CA619 SSTORE PUSH20 0x97620DEADC98BC8173303686037CE7B986CF53C3 PUSH1 0x0 MSTORE PUSH32 0x258D390DEB7169EB6B7E4F13156EB6A712D34883A598A2F3E4DBFF41D265DE35 SLOAD PUSH2 0xE71 SWAP1 DUP3 PUSH2 0x32F1 JUMP JUMPDEST PUSH20 0x97620DEADC98BC8173303686037CE7B986CF53C3 PUSH1 0x0 MSTORE PUSH1 0xD PUSH1 0x20 MSTORE PUSH32 0x258D390DEB7169EB6B7E4F13156EB6A712D34883A598A2F3E4DBFF41D265DE35 SSTORE POP POP JUMP JUMPDEST PUSH1 0x60 PUSH1 0x10 DUP1 SLOAD PUSH2 0xEC3 SWAP1 PUSH2 0x5D18 JUMP JUMPDEST DUP1 PUSH1 0x1F ADD PUSH1 0x20 DUP1 SWAP2 DIV MUL PUSH1 0x20 ADD PUSH1 0x40 MLOAD SWAP1 DUP2 ADD PUSH1 0x40 MSTORE DUP1 SWAP3 SWAP2 SWAP1 DUP2 DUP2 MSTORE PUSH1 0x20 ADD DUP3 DUP1 SLOAD PUSH2 0xEEF SWAP1 PUSH2 0x5D18 JUMP JUMPDEST DUP1 ISZERO PUSH2 0xF3C JUMPI DUP1 PUSH1 0x1F LT PUSH2 0xF11 JUMPI PUSH2 0x100 DUP1 DUP4 SLOAD DIV MUL DUP4 MSTORE SWAP2 PUSH1 0x20 ADD SWAP2 PUSH2 0xF3C JUMP JUMPDEST DUP3 ADD SWAP2 SWAP1 PUSH1 0x0 MSTORE PUSH1 0x20 PUSH1 0x0 KECCAK256 SWAP1 JUMPDEST DUP2 SLOAD DUP2 MSTORE SWAP1 PUSH1 0x1 ADD SWAP1 PUSH1 0x20 ADD DUP1 DUP4 GT PUSH2 0xF1F JUMPI DUP3 SWAP1 SUB PUSH1 0x1F AND DUP3 ADD SWAP2 JUMPDEST POP POP POP POP POP SWAP1 POP SWAP1 JUMP JUMPDEST PUSH1 0x5 SLOAD PUSH1 0x1 PUSH1 0x1 PUSH1 0xA0 SHL SUB AND CALLER EQ PUSH2 0xF93 JUMPI PUSH1 0x40 MLOAD PUSH3 0x461BCD PUSH1 0xE5 SHL DUP2 MSTORE PUSH1 0x20 PUSH1 0x4 DUP3 ADD DUP2 SWAP1 MSTORE PUSH1 0x24 DUP3 ADD MSTORE PUSH1 0x0 DUP1 MLOAD PUSH1 0x20 PUSH2 0x5E89 DUP4 CODECOPY DUP2 MLOAD SWAP2 MSTORE PUSH1 0x44 DUP3 ADD MSTORE PUSH1 0x64 ADD JUMPDEST PUSH1 0x40 MLOAD DUP1 SWAP2 SUB SWAP1 REVERT JUMPDEST PUSH1 0x16 SLOAD PUSH3 0x10000 SWAP1 DIV PUSH1 0xFF AND ISZERO ISZERO PUSH1 0x1 EQ PUSH2 0xFF0 JUMPI PUSH1 0x40 MLOAD PUSH3 0x461BCD PUSH1 0xE5 SHL DUP2 MSTORE PUSH1 0x20 PUSH1 0x4 DUP3 ADD MSTORE PUSH1 0x1C PUSH1 0x24 DUP3 ADD MSTORE PUSH32 0x507269766174652053616C65206E6F7420796574207374617274656400000000 PUSH1 0x44 DUP3 ADD MSTORE PUSH1 0x64 ADD PUSH2 0xF8A JUMP JUMPDEST DUP1 PUSH2 0x103D JUMPI PUSH1 0x40 MLOAD PUSH3 0x461BCD PUSH1 0xE5 SHL DUP2 MSTORE PUSH1 0x20 PUSH1 0x4 DUP3 ADD MSTORE PUSH1 0xE PUSH1 0x24 DUP3 ADD MSTORE PUSH32 0x4E6F7468696E6720746F20616464000000000000000000000000000000000000 PUSH1 0x44 DUP3 ADD MSTORE PUSH1 0x64 ADD PUSH2 0xF8A JUMP JUMPDEST PUSH1 0x0 JUMPDEST DUP2 DUP2 LT ISZERO PUSH2 0x11CB JUMPI DUP3 DUP3 DUP3 DUP2 DUP2 LT PUSH2 0x105A JUMPI PUSH2 0x105A PUSH2 0x5D53 JUMP JUMPDEST SWAP1 POP PUSH1 0x40 MUL ADD PUSH1 0x20 ADD CALLDATALOAD PUSH1 0x0 EQ ISZERO PUSH2 0x10B4 JUMPI PUSH1 0x40 MLOAD PUSH3 0x461BCD PUSH1 0xE5 SHL DUP2 MSTORE PUSH1 0x20 PUSH1 0x4 DUP3 ADD MSTORE PUSH1 0x15 PUSH1 0x24 DUP3 ADD MSTORE PUSH32 0x416D6F756E742063616E6E6F74206265207A65726F0000000000000000000000 PUSH1 0x44 DUP3 ADD MSTORE PUSH1 0x64 ADD PUSH2 0xF8A JUMP JUMPDEST PUSH2 0x10E4 DUP4 DUP4 DUP4 DUP2 DUP2 LT PUSH2 0x10C9 JUMPI PUSH2 0x10C9 PUSH2 0x5D53 JUMP JUMPDEST SWAP1 POP PUSH1 0x40 MUL ADD PUSH1 0x20 ADD CALLDATALOAD PUSH1 0x14 SLOAD PUSH2 0x32FD SWAP1 SWAP2 SWAP1 PUSH4 0xFFFFFFFF AND JUMP JUMPDEST PUSH1 0x14 SSTORE PUSH2 0x1133 DUP4 DUP4 DUP4 DUP2 DUP2 LT PUSH2 0x10FC JUMPI PUSH2 0x10FC PUSH2 0x5D53 JUMP JUMPDEST PUSH2 0x1112 SWAP3 PUSH1 0x20 PUSH1 0x40 SWAP1 SWAP3 MUL ADD SWAP1 DUP2 ADD SWAP2 POP PUSH2 0x5C19 JUMP JUMPDEST DUP5 DUP5 DUP5 DUP2 DUP2 LT PUSH2 0x1124 JUMPI PUSH2 0x1124 PUSH2 0x5D53 JUMP JUMPDEST SWAP1 POP PUSH1 0x40 MUL ADD PUSH1 0x20 ADD CALLDATALOAD PUSH2 0x3309 JUMP JUMPDEST DUP3 DUP3 DUP3 DUP2 DUP2 LT PUSH2 0x1145 JUMPI PUSH2 0x1145 PUSH2 0x5D53 JUMP JUMPDEST PUSH2 0x115B SWAP3 PUSH1 0x20 PUSH1 0x40 SWAP1 SWAP3 MUL ADD SWAP1 DUP2 ADD SWAP2 POP PUSH2 0x5C19 JUMP JUMPDEST PUSH1 0x1 PUSH1 0x1 PUSH1 0xA0 SHL SUB AND CALLER PUSH32 0x45B7246D64FE59430BA3159FD11DC7352501C1D80F8A6535CF48F68965E2745 DUP6 DUP6 DUP6 DUP2 DUP2 LT PUSH2 0x1198 JUMPI PUSH2 0x1198 PUSH2 0x5D53 JUMP JUMPDEST SWAP1 POP PUSH1 0x40 MUL ADD PUSH1 0x20 ADD CALLDATALOAD PUSH1 0x40 MLOAD PUSH2 0x11B1 SWAP2 DUP2 MSTORE PUSH1 0x20 ADD SWAP1 JUMP JUMPDEST PUSH1 0x40 MLOAD DUP1 SWAP2 SUB SWAP1 LOG3 DUP1 PUSH2 0x11C3 DUP2 PUSH2 0x5D7F JUMP JUMPDEST SWAP2 POP POP PUSH2 0x1040 JUMP JUMPDEST POP POP POP JUMP JUMPDEST PUSH1 0x0 CALLER PUSH2 0x11DE DUP2 DUP6 DUP6 PUSH2 0x347C JUMP JUMPDEST PUSH1 0x1 SWAP2 POP POP JUMPDEST SWAP3 SWAP2 POP POP JUMP JUMPDEST PUSH1 0x5 SLOAD PUSH1 0x1 PUSH1 0x1 PUSH1 0xA0 SHL SUB AND CALLER EQ PUSH2 0x1232 JUMPI PUSH1 0x40 MLOAD PUSH3 0x461BCD PUSH1 0xE5 SHL DUP2 MSTORE PUSH1 0x20 PUSH1 0x4 DUP3 ADD DUP2 SWAP1 MSTORE PUSH1 0x24 DUP3 ADD MSTORE PUSH1 0x0 DUP1 MLOAD PUSH1 0x20 PUSH2 0x5E89 DUP4 CODECOPY DUP2 MLOAD SWAP2 MSTORE PUSH1 0x44 DUP3 ADD MSTORE PUSH1 0x64 ADD PUSH2 0xF8A JUMP JUMPDEST PUSH1 0x13 SLOAD PUSH2 0x123F SWAP1 DUP3 PUSH2 0x32FD JUMP JUMPDEST PUSH1 0x13 SSTORE PUSH1 0xF SLOAD PUSH2 0x124F SWAP1 DUP3 PUSH2 0x32FD JUMP JUMPDEST PUSH1 0xF SSTORE PUSH1 0x40 MLOAD DUP2 DUP2 MSTORE PUSH1 0x0 SWAP1 ADDRESS SWAP1 PUSH32 0x715128EA18BCB5A472F8187C4FBFDC1ED6D04ECDCFF67E3F546FDD075E862665 SWAP1 PUSH1 0x20 ADD JUMPDEST PUSH1 0x40 MLOAD DUP1 SWAP2 SUB SWAP1 LOG3 POP JUMP JUMPDEST PUSH1 0x16 SLOAD PUSH1 0xFF PUSH2 0x100 SWAP1 SWAP2 DIV AND ISZERO ISZERO PUSH1 0x1 EQ PUSH2 0x12EB JUMPI PUSH1 0x40 MLOAD PUSH3 0x461BCD PUSH1 0xE5 SHL DUP2 MSTORE PUSH1 0x20 PUSH1 0x4 DUP3 ADD MSTORE PUSH1 0x1D PUSH1 0x24 DUP3 ADD MSTORE PUSH32 0x4C6F636B65642057616C6C6574206E6F74207965742073746172746564000000 PUSH1 0x44 DUP3 ADD MSTORE PUSH1 0x64 ADD PUSH2 0xF8A JUMP JUMPDEST PUSH1 0x1C PUSH1 0x0 SWAP1 SLOAD SWAP1 PUSH2 0x100 EXP SWAP1 DIV PUSH1 0x1 PUSH1 0x1 PUSH1 0xA0 SHL SUB AND PUSH1 0x1 PUSH1 0x1 PUSH1 0xA0 SHL SUB AND PUSH4 0x38AF3EED PUSH1 0x40 MLOAD DUP2 PUSH4 0xFFFFFFFF AND PUSH1 0xE0 SHL DUP2 MSTORE PUSH1 0x4 ADD PUSH1 0x20 PUSH1 0x40 MLOAD DUP1 DUP4 SUB DUP2 DUP7 GAS STATICCALL ISZERO DUP1 ISZERO PUSH2 0x133E JUMPI RETURNDATASIZE PUSH1 0x0 DUP1 RETURNDATACOPY RETURNDATASIZE PUSH1 0x0 REVERT JUMPDEST POP POP POP POP PUSH1 0x40 MLOAD RETURNDATASIZE PUSH1 0x1F NOT PUSH1 0x1F DUP3 ADD AND DUP3 ADD DUP1 PUSH1 0x40 MSTORE POP DUP2 ADD SWAP1 PUSH2 0x1362 SWAP2 SWAP1 PUSH2 0x5D9A JUMP JUMPDEST CALLER PUSH1 0x1 PUSH1 0x1 PUSH1 0xA0 SHL SUB DUP3 AND EQ PUSH2 0x13AE JUMPI PUSH1 0x40 MLOAD PUSH3 0x461BCD PUSH1 0xE5 SHL DUP2 MSTORE PUSH1 0x20 PUSH1 0x4 DUP3 ADD MSTORE PUSH1 0x11 PUSH1 0x24 DUP3 ADD MSTORE PUSH17 0x57616C6C6574206F776E6572206F6E6C79 PUSH1 0x78 SHL PUSH1 0x44 DUP3 ADD MSTORE PUSH1 0x64 ADD PUSH2 0xF8A JUMP JUMPDEST PUSH1 0x1C SLOAD PUSH1 0x0 SWAP1 PUSH1 0x1 PUSH1 0x1 PUSH1 0xA0 SHL SUB AND PUSH4 0xE7D88C42 PUSH2 0x13CA PUSH2 0x35D5 JUMP JUMPDEST PUSH1 0x40 MLOAD DUP3 PUSH4 0xFFFFFFFF AND PUSH1 0xE0 SHL DUP2 MSTORE PUSH1 0x4 ADD PUSH2 0x13E6 SWAP2 SWAP1 PUSH2 0x5DB7 JUMP JUMPDEST PUSH1 0x20 PUSH1 0x40 MLOAD DUP1 DUP4 SUB DUP2 PUSH1 0x0 DUP8 GAS CALL ISZERO DUP1 ISZERO PUSH2 0x1405 JUMPI RETURNDATASIZE PUSH1 0x0 DUP1 RETURNDATACOPY RETURNDATASIZE PUSH1 0x0 REVERT JUMPDEST POP POP POP POP PUSH1 0x40 MLOAD RETURNDATASIZE PUSH1 0x1F NOT PUSH1 0x1F DUP3 ADD AND DUP3 ADD DUP1 PUSH1 0x40 MSTORE POP DUP2 ADD SWAP1 PUSH2 0x1429 SWAP2 SWAP1 PUSH2 0x5DE9 JUMP JUMPDEST SWAP1 POP PUSH2 0x1455 DUP2 PUSH1 0xD PUSH1 0x0 CALLER JUMPDEST PUSH1 0x1 PUSH1 0x1 PUSH1 0xA0 SHL SUB AND DUP2 MSTORE PUSH1 0x20 DUP2 ADD SWAP2 SWAP1 SWAP2 MSTORE PUSH1 0x40 ADD PUSH1 0x0 KECCAK256 SLOAD SWAP1 PUSH2 0x32F1 JUMP JUMPDEST CALLER PUSH1 0x0 SWAP1 DUP2 MSTORE PUSH1 0xD PUSH1 0x20 MSTORE PUSH1 0x40 SWAP1 KECCAK256 SSTORE POP POP JUMP JUMPDEST PUSH2 0x1496 PUSH1 0x40 MLOAD DUP1 PUSH1 0x80 ADD PUSH1 0x40 MSTORE DUP1 PUSH1 0x0 DUP2 MSTORE PUSH1 0x20 ADD PUSH1 0x0 DUP2 MSTORE PUSH1 0x20 ADD PUSH1 0x0 ISZERO ISZERO DUP2 MSTORE PUSH1 0x20 ADD PUSH1 0x0 DUP2 MSTORE POP SWAP1 JUMP JUMPDEST CALLER PUSH1 0x0 SWAP1 DUP2 MSTORE PUSH1 0xC PUSH1 0x20 MSTORE PUSH1 0x40 SWAP1 KECCAK256 PUSH1 0x1 ADD SLOAD PUSH2 0x151B JUMPI PUSH1 0x40 MLOAD PUSH3 0x461BCD PUSH1 0xE5 SHL DUP2 MSTORE PUSH1 0x20 PUSH1 0x4 DUP3 ADD MSTORE PUSH1 0x38 PUSH1 0x24 DUP3 ADD MSTORE PUSH32 0x5072697661746553616C653A20596F7520646F6E2774206861766520616E7920 PUSH1 0x44 DUP3 ADD MSTORE PUSH32 0x62616C616E636520666F7220707269766174652073616C650000000000000000 PUSH1 0x64 DUP3 ADD MSTORE PUSH1 0x84 ADD PUSH2 0xF8A JUMP JUMPDEST POP CALLER PUSH1 0x0 SWAP1 DUP2 MSTORE PUSH1 0xC PUSH1 0x20 SWAP1 DUP2 MSTORE PUSH1 0x40 SWAP2 DUP3 SWAP1 KECCAK256 DUP3 MLOAD PUSH1 0x80 DUP2 ADD DUP5 MSTORE DUP2 SLOAD DUP2 MSTORE PUSH1 0x1 DUP3 ADD SLOAD SWAP3 DUP2 ADD SWAP3 SWAP1 SWAP3 MSTORE PUSH1 0x2 DUP2 ADD SLOAD PUSH1 0xFF AND ISZERO ISZERO SWAP3 DUP3 ADD SWAP3 SWAP1 SWAP3 MSTORE PUSH1 0x3 SWAP1 SWAP2 ADD SLOAD PUSH1 0x60 DUP3 ADD MSTORE SWAP1 JUMP JUMPDEST PUSH1 0x0 CALLER PUSH2 0x1574 DUP6 DUP3 DUP6 PUSH2 0x3B26 JUMP JUMPDEST PUSH2 0x157F DUP6 DUP6 DUP6 PUSH2 0x3BB8 JUMP JUMPDEST POP PUSH1 0x1 SWAP5 SWAP4 POP POP POP POP JUMP JUMPDEST PUSH1 0x0 DUP1 PUSH2 0x1597 CALLER DUP5 PUSH2 0x3E24 JUMP JUMPDEST SWAP2 POP SWAP2 POP PUSH2 0x15A4 DUP2 PUSH2 0x298B JUMP JUMPDEST ADDRESS PUSH1 0x0 SWAP1 DUP2 MSTORE PUSH1 0xD PUSH1 0x20 MSTORE PUSH1 0x40 SWAP1 KECCAK256 SLOAD PUSH2 0x15BE SWAP1 DUP5 PUSH2 0x32FD JUMP JUMPDEST ADDRESS PUSH1 0x0 SWAP1 DUP2 MSTORE PUSH1 0xD PUSH1 0x20 MSTORE PUSH1 0x40 SWAP1 KECCAK256 SSTORE PUSH1 0x13 SLOAD PUSH2 0x15DB SWAP1 DUP3 PUSH2 0x32FD JUMP JUMPDEST PUSH1 0x13 SSTORE PUSH2 0x15F4 PUSH2 0x15EB DUP3 DUP5 PUSH2 0x5E02 JUMP JUMPDEST PUSH1 0xF SLOAD SWAP1 PUSH2 0x32F1 JUMP JUMPDEST PUSH1 0xF SSTORE PUSH2 0x160E PUSH2 0x1604 DUP3 DUP5 PUSH2 0x5E02 JUMP JUMPDEST PUSH1 0xD PUSH1 0x0 CALLER PUSH2 0x1435 JUMP JUMPDEST CALLER PUSH1 0x0 SWAP1 DUP2 MSTORE PUSH1 0xD PUSH1 0x20 MSTORE PUSH1 0x40 SWAP1 KECCAK256 SSTORE POP POP POP JUMP JUMPDEST CALLER PUSH1 0x0 DUP2 DUP2 MSTORE PUSH1 0xE PUSH1 0x20 SWAP1 DUP2 MSTORE PUSH1 0x40 DUP1 DUP4 KECCAK256 PUSH1 0x1 PUSH1 0x1 PUSH1 0xA0 SHL SUB DUP8 AND DUP5 MSTORE SWAP1 SWAP2 MSTORE DUP2 KECCAK256 SLOAD SWAP1 SWAP2 SWAP1 PUSH2 0x11DE SWAP1 DUP3 SWAP1 DUP7 SWAP1 PUSH2 0x165D SWAP1 DUP8 SWAP1 PUSH2 0x5E02 JUMP JUMPDEST PUSH2 0x347C JUMP JUMPDEST PUSH1 0x16 SLOAD PUSH1 0xFF PUSH2 0x100 SWAP1 SWAP2 DIV AND ISZERO ISZERO PUSH1 0x1 EQ PUSH2 0x16BF JUMPI PUSH1 0x40 MLOAD PUSH3 0x461BCD PUSH1 0xE5 SHL DUP2 MSTORE PUSH1 0x20 PUSH1 0x4 DUP3 ADD MSTORE PUSH1 0x1D PUSH1 0x24 DUP3 ADD MSTORE PUSH32 0x4C6F636B65642057616C6C6574206E6F74207965742073746172746564000000 PUSH1 0x44 DUP3 ADD MSTORE PUSH1 0x64 ADD PUSH2 0xF8A JUMP JUMPDEST PUSH1 0x20 DUP1 SLOAD PUSH1 0x40 DUP1 MLOAD PUSH32 0x38AF3EED00000000000000000000000000000000000000000000000000000000 DUP2 MSTORE SWAP1 MLOAD PUSH1 0x1 PUSH1 0x1 PUSH1 0xA0 SHL SUB SWAP1 SWAP3 AND SWAP3 PUSH4 0x38AF3EED SWAP3 PUSH1 0x4 DUP1 DUP5 ADD SWAP4 DUP3 SWAP1 SUB ADD DUP2 DUP7 GAS STATICCALL ISZERO DUP1 ISZERO PUSH2 0x171D JUMPI RETURNDATASIZE PUSH1 0x0 DUP1 RETURNDATACOPY RETURNDATASIZE PUSH1 0x0 REVERT JUMPDEST POP POP POP POP PUSH1 0x40 MLOAD RETURNDATASIZE PUSH1 0x1F NOT PUSH1 0x1F DUP3 ADD AND DUP3 ADD DUP1 PUSH1 0x40 MSTORE POP DUP2 ADD SWAP1 PUSH2 0x1741 SWAP2 SWAP1 PUSH2 0x5D9A JUMP JUMPDEST CALLER PUSH1 0x1 PUSH1 0x1 PUSH1 0xA0 SHL SUB DUP3 AND EQ PUSH2 0x178D JUMPI PUSH1 0x40 MLOAD PUSH3 0x461BCD PUSH1 0xE5 SHL DUP2 MSTORE PUSH1 0x20 PUSH1 0x4 DUP3 ADD MSTORE PUSH1 0x11 PUSH1 0x24 DUP3 ADD MSTORE PUSH17 0x57616C6C6574206F776E6572206F6E6C79 PUSH1 0x78 SHL PUSH1 0x44 DUP3 ADD MSTORE PUSH1 0x64 ADD PUSH2 0xF8A JUMP JUMPDEST PUSH1 0x20 SLOAD PUSH1 0x0 SWAP1 PUSH1 0x1 PUSH1 0x1 PUSH1 0xA0 SHL SUB AND PUSH4 0xE7D88C42 PUSH2 0x13CA PUSH2 0x3F7B JUMP JUMPDEST PUSH1 0x5 SLOAD PUSH1 0x1 PUSH1 0x1 PUSH1 0xA0 SHL SUB AND CALLER EQ PUSH2 0x17F1 JUMPI PUSH1 0x40 MLOAD PUSH3 0x461BCD PUSH1 0xE5 SHL DUP2 MSTORE PUSH1 0x20 PUSH1 0x4 DUP3 ADD DUP2 SWAP1 MSTORE PUSH1 0x24 DUP3 ADD MSTORE PUSH1 0x0 DUP1 MLOAD PUSH1 0x20 PUSH2 0x5E89 DUP4 CODECOPY DUP2 MLOAD SWAP2 MSTORE PUSH1 0x44 DUP3 ADD MSTORE PUSH1 0x64 ADD PUSH2 0xF8A JUMP JUMPDEST PUSH2 0x17FB DUP3 DUP3 PUSH2 0x43D4 JUMP JUMPDEST POP POP JUMP JUMPDEST PUSH2 0x1809 CALLER DUP3 PUSH2 0x44B3 JUMP JUMPDEST POP JUMP JUMPDEST PUSH1 0x16 SLOAD PUSH1 0xFF PUSH2 0x100 SWAP1 SWAP2 DIV AND ISZERO ISZERO PUSH1 0x1 EQ PUSH2 0x1869 JUMPI PUSH1 0x40 MLOAD PUSH3 0x461BCD PUSH1 0xE5 SHL DUP2 MSTORE PUSH1 0x20 PUSH1 0x4 DUP3 ADD MSTORE PUSH1 0x1D PUSH1 0x24 DUP3 ADD MSTORE PUSH32 0x4C6F636B65642057616C6C6574206E6F74207965742073746172746564000000 PUSH1 0x44 DUP3 ADD MSTORE PUSH1 0x64 ADD PUSH2 0xF8A JUMP JUMPDEST PUSH1 0x1E PUSH1 0x0 SWAP1 SLOAD SWAP1 PUSH2 0x100 EXP SWAP1 DIV PUSH1 0x1 PUSH1 0x1 PUSH1 0xA0 SHL SUB AND PUSH1 0x1 PUSH1 0x1 PUSH1 0xA0 SHL SUB AND PUSH4 0x38AF3EED PUSH1 0x40 MLOAD DUP2 PUSH4 0xFFFFFFFF AND PUSH1 0xE0 SHL DUP2 MSTORE PUSH1 0x4 ADD PUSH1 0x20 PUSH1 0x40 MLOAD DUP1 DUP4 SUB DUP2 DUP7 GAS STATICCALL ISZERO DUP1 ISZERO PUSH2 0x18BC JUMPI RETURNDATASIZE PUSH1 0x0 DUP1 RETURNDATACOPY RETURNDATASIZE PUSH1 0x0 REVERT JUMPDEST POP POP POP POP PUSH1 0x40 MLOAD RETURNDATASIZE PUSH1 0x1F NOT PUSH1 0x1F DUP3 ADD AND DUP3 ADD DUP1 PUSH1 0x40 MSTORE POP DUP2 ADD SWAP1 PUSH2 0x18E0 SWAP2 SWAP1 PUSH2 0x5D9A JUMP JUMPDEST CALLER PUSH1 0x1 PUSH1 0x1 PUSH1 0xA0 SHL SUB DUP3 AND EQ PUSH2 0x192C JUMPI PUSH1 0x40 MLOAD PUSH3 0x461BCD PUSH1 0xE5 SHL DUP2 MSTORE PUSH1 0x20 PUSH1 0x4 DUP3 ADD MSTORE PUSH1 0x11 PUSH1 0x24 DUP3 ADD MSTORE PUSH17 0x57616C6C6574206F776E6572206F6E6C79 PUSH1 0x78 SHL PUSH1 0x44 DUP3 ADD MSTORE PUSH1 0x64 ADD PUSH2 0xF8A JUMP JUMPDEST PUSH1 0x1E SLOAD PUSH1 0x0 SWAP1 PUSH1 0x1 PUSH1 0x1 PUSH1 0xA0 SHL SUB AND PUSH4 0xE7D88C42 PUSH2 0x13CA PUSH2 0x3F7B JUMP JUMPDEST PUSH1 0x16 SLOAD PUSH1 0xFF AND ISZERO ISZERO PUSH1 0x1 EQ PUSH2 0x199F JUMPI PUSH1 0x40 MLOAD PUSH3 0x461BCD PUSH1 0xE5 SHL DUP2 MSTORE PUSH1 0x20 PUSH1 0x4 DUP3 ADD MSTORE PUSH1 0x17 PUSH1 0x24 DUP3 ADD MSTORE PUSH32 0x41697264726F70206E6F74207965742073746172746564000000000000000000 PUSH1 0x44 DUP3 ADD MSTORE PUSH1 0x64 ADD PUSH2 0xF8A JUMP JUMPDEST PUSH1 0x0 PUSH2 0x19AA CALLER PUSH2 0x4630 JUMP JUMPDEST ADDRESS PUSH1 0x0 SWAP1 DUP2 MSTORE PUSH1 0xD PUSH1 0x20 MSTORE PUSH1 0x40 SWAP1 KECCAK256 SLOAD SWAP1 SWAP2 POP PUSH2 0x19C7 SWAP1 DUP3 PUSH2 0x32FD JUMP JUMPDEST ADDRESS PUSH1 0x0 SWAP1 DUP2 MSTORE PUSH1 0xD PUSH1 0x20 DUP2 SWAP1 MSTORE PUSH1 0x40 DUP3 KECCAK256 SWAP3 SWAP1 SWAP3 SSTORE PUSH2 0x19E8 SWAP2 DUP4 SWAP2 CALLER PUSH2 0x1435 JUMP JUMPDEST CALLER PUSH1 0x0 SWAP1 DUP2 MSTORE PUSH1 0xD PUSH1 0x20 MSTORE PUSH1 0x40 SWAP1 KECCAK256 SSTORE POP JUMP JUMPDEST PUSH1 0x5 SLOAD PUSH1 0x1 PUSH1 0x1 PUSH1 0xA0 SHL SUB AND CALLER EQ PUSH2 0x1A43 JUMPI PUSH1 0x40 MLOAD PUSH3 0x461BCD PUSH1 0xE5 SHL DUP2 MSTORE PUSH1 0x20 PUSH1 0x4 DUP3 ADD DUP2 SWAP1 MSTORE PUSH1 0x24 DUP3 ADD MSTORE PUSH1 0x0 DUP1 MLOAD PUSH1 0x20 PUSH2 0x5E89 DUP4 CODECOPY DUP2 MLOAD SWAP2 MSTORE PUSH1 0x44 DUP3 ADD MSTORE PUSH1 0x64 ADD PUSH2 0xF8A JUMP JUMPDEST PUSH2 0x1A4D PUSH1 0x0 PUSH2 0x4732 JUMP JUMPDEST JUMP JUMPDEST PUSH2 0x1A5A DUP3 CALLER DUP4 PUSH2 0x3B26 JUMP JUMPDEST PUSH2 0x17FB DUP3 DUP3 PUSH2 0x44B3 JUMP JUMPDEST DUP1 PUSH3 0x278D00 EQ DUP1 PUSH2 0x1A77 JUMPI POP DUP1 PUSH3 0x76A700 EQ JUMPDEST DUP1 PUSH2 0x1A84 JUMPI POP DUP1 PUSH3 0xED4E00 EQ JUMPDEST DUP1 PUSH2 0x1A92 JUMPI POP DUP1 PUSH4 0x1E13380 EQ JUMPDEST PUSH2 0x1ADE JUMPI PUSH1 0x40 MLOAD PUSH3 0x461BCD PUSH1 0xE5 SHL DUP2 MSTORE PUSH1 0x20 PUSH1 0x4 DUP3 ADD MSTORE PUSH1 0x1B PUSH1 0x24 DUP3 ADD MSTORE PUSH32 0x5374616B696E67206F7074696F6E20646F65736E742065786973740000000000 PUSH1 0x44 DUP3 ADD MSTORE PUSH1 0x64 ADD PUSH2 0xF8A JUMP JUMPDEST PUSH2 0x1AFD CALLER DUP4 DUP4 PUSH1 0x12 PUSH1 0x0 DUP7 DUP2 MSTORE PUSH1 0x20 ADD SWAP1 DUP2 MSTORE PUSH1 0x20 ADD PUSH1 0x0 KECCAK256 SLOAD PUSH2 0x4791 JUMP JUMPDEST PUSH2 0x1B07 CALLER DUP4 PUSH2 0x44B3 JUMP JUMPDEST ADDRESS PUSH1 0x0 SWAP1 DUP2 MSTORE PUSH1 0xD PUSH1 0x20 MSTORE PUSH1 0x40 SWAP1 KECCAK256 SLOAD PUSH2 0x1B21 SWAP1 DUP4 PUSH2 0x32F1 JUMP JUMPDEST ADDRESS PUSH1 0x0 SWAP1 DUP2 MSTORE PUSH1 0xD PUSH1 0x20 MSTORE PUSH1 0x40 SWAP1 KECCAK256 SSTORE POP POP JUMP JUMPDEST PUSH1 0x0 PUSH2 0x1B40 CALLER PUSH2 0x4963 JUMP JUMPDEST SWAP1 POP PUSH2 0x19E8 DUP2 PUSH1 0xD PUSH1 0x0 CALLER PUSH2 0x1435 JUMP JUMPDEST PUSH1 0x16 SLOAD PUSH1 0xFF PUSH2 0x100 SWAP1 SWAP2 DIV AND ISZERO ISZERO PUSH1 0x1 EQ PUSH2 0x1BAD JUMPI PUSH1 0x40 MLOAD PUSH3 0x461BCD PUSH1 0xE5 SHL DUP2 MSTORE PUSH1 0x20 PUSH1 0x4 DUP3 ADD MSTORE PUSH1 0x1D PUSH1 0x24 DUP3 ADD MSTORE PUSH32 0x4C6F636B65642057616C6C6574206E6F74207965742073746172746564000000 PUSH1 0x44 DUP3 ADD MSTORE PUSH1 0x64 ADD PUSH2 0xF8A JUMP JUMPDEST PUSH1 0x1B PUSH1 0x0 SWAP1 SLOAD SWAP1 PUSH2 0x100 EXP SWAP1 DIV PUSH1 0x1 PUSH1 0x1 PUSH1 0xA0 SHL SUB AND PUSH1 0x1 PUSH1 0x1 PUSH1 0xA0 SHL SUB AND PUSH4 0x38AF3EED PUSH1 0x40 MLOAD DUP2 PUSH4 0xFFFFFFFF AND PUSH1 0xE0 SHL DUP2 MSTORE PUSH1 0x4 ADD PUSH1 0x20 PUSH1 0x40 MLOAD DUP1 DUP4 SUB DUP2 DUP7 GAS STATICCALL ISZERO DUP1 ISZERO PUSH2 0x1C00 JUMPI RETURNDATASIZE PUSH1 0x0 DUP1 RETURNDATACOPY RETURNDATASIZE PUSH1 0x0 REVERT JUMPDEST POP POP POP POP PUSH1 0x40 MLOAD RETURNDATASIZE PUSH1 0x1F NOT PUSH1 0x1F DUP3 ADD AND DUP3 ADD DUP1 PUSH1 0x40 MSTORE POP DUP2 ADD SWAP1 PUSH2 0x1C24 SWAP2 SWAP1 PUSH2 0x5D9A JUMP JUMPDEST CALLER PUSH1 0x1 PUSH1 0x1 PUSH1 0xA0 SHL SUB DUP3 AND EQ PUSH2 0x1C70 JUMPI PUSH1 0x40 MLOAD PUSH3 0x461BCD PUSH1 0xE5 SHL DUP2 MSTORE PUSH1 0x20 PUSH1 0x4 DUP3 ADD MSTORE PUSH1 0x11 PUSH1 0x24 DUP3 ADD MSTORE PUSH17 0x57616C6C6574206F776E6572206F6E6C79 PUSH1 0x78 SHL PUSH1 0x44 DUP3 ADD MSTORE PUSH1 0x64 ADD PUSH2 0xF8A JUMP JUMPDEST PUSH1 0x1B SLOAD PUSH1 0x0 SWAP1 PUSH1 0x1 PUSH1 0x1 PUSH1 0xA0 SHL SUB AND PUSH4 0xE7D88C42 PUSH2 0x13CA PUSH2 0x35D5 JUMP JUMPDEST PUSH1 0x16 SLOAD PUSH1 0xFF PUSH2 0x100 SWAP1 SWAP2 DIV AND ISZERO ISZERO PUSH1 0x1 EQ PUSH2 0x1CE9 JUMPI PUSH1 0x40 MLOAD PUSH3 0x461BCD PUSH1 0xE5 SHL DUP2 MSTORE PUSH1 0x20 PUSH1 0x4 DUP3 ADD MSTORE PUSH1 0x1D PUSH1 0x24 DUP3 ADD MSTORE PUSH32 0x4C6F636B65642057616C6C6574206E6F74207965742073746172746564000000 PUSH1 0x44 DUP3 ADD MSTORE PUSH1 0x64 ADD PUSH2 0xF8A JUMP JUMPDEST PUSH1 0x1A PUSH1 0x0 SWAP1 SLOAD SWAP1 PUSH2 0x100 EXP SWAP1 DIV PUSH1 0x1 PUSH1 0x1 PUSH1 0xA0 SHL SUB AND PUSH1 0x1 PUSH1 0x1 PUSH1 0xA0 SHL SUB AND PUSH4 0x38AF3EED PUSH1 0x40 MLOAD DUP2 PUSH4 0xFFFFFFFF AND PUSH1 0xE0 SHL DUP2 MSTORE PUSH1 0x4 ADD PUSH1 0x20 PUSH1 0x40 MLOAD DUP1 DUP4 SUB DUP2 DUP7 GAS STATICCALL ISZERO DUP1 ISZERO PUSH2 0x1D3C JUMPI RETURNDATASIZE PUSH1 0x0 DUP1 RETURNDATACOPY RETURNDATASIZE PUSH1 0x0 REVERT JUMPDEST POP POP POP POP PUSH1 0x40 MLOAD RETURNDATASIZE PUSH1 0x1F NOT PUSH1 0x1F DUP3 ADD AND DUP3 ADD DUP1 PUSH1 0x40 MSTORE POP DUP2 ADD SWAP1 PUSH2 0x1D60 SWAP2 SWAP1 PUSH2 0x5D9A JUMP JUMPDEST CALLER PUSH1 0x1 PUSH1 0x1 PUSH1 0xA0 SHL SUB DUP3 AND EQ PUSH2 0x1DAC JUMPI PUSH1 0x40 MLOAD PUSH3 0x461BCD PUSH1 0xE5 SHL DUP2 MSTORE PUSH1 0x20 PUSH1 0x4 DUP3 ADD MSTORE PUSH1 0x11 PUSH1 0x24 DUP3 ADD MSTORE PUSH17 0x57616C6C6574206F776E6572206F6E6C79 PUSH1 0x78 SHL PUSH1 0x44 DUP3 ADD MSTORE PUSH1 0x64 ADD PUSH2 0xF8A JUMP JUMPDEST PUSH1 0x1A SLOAD PUSH1 0x0 SWAP1 PUSH1 0x1 PUSH1 0x1 PUSH1 0xA0 SHL SUB AND PUSH4 0xE7D88C42 PUSH2 0x13CA PUSH2 0x4ABD JUMP JUMPDEST PUSH1 0x16 SLOAD PUSH1 0xFF PUSH2 0x100 SWAP1 SWAP2 DIV AND ISZERO ISZERO PUSH1 0x1 EQ PUSH2 0x1E25 JUMPI PUSH1 0x40 MLOAD PUSH3 0x461BCD PUSH1 0xE5 SHL DUP2 MSTORE PUSH1 0x20 PUSH1 0x4 DUP3 ADD MSTORE PUSH1 0x1D PUSH1 0x24 DUP3 ADD MSTORE PUSH32 0x4C6F636B65642057616C6C6574206E6F74207965742073746172746564000000 PUSH1 0x44 DUP3 ADD MSTORE PUSH1 0x64 ADD PUSH2 0xF8A JUMP JUMPDEST PUSH1 0x1D PUSH1 0x0 SWAP1 SLOAD SWAP1 PUSH2 0x100 EXP SWAP1 DIV PUSH1 0x1 PUSH1 0x1 PUSH1 0xA0 SHL SUB AND PUSH1 0x1 PUSH1 0x1 PUSH1 0xA0 SHL SUB AND PUSH4 0x38AF3EED PUSH1 0x40 MLOAD DUP2 PUSH4 0xFFFFFFFF AND PUSH1 0xE0 SHL DUP2 MSTORE PUSH1 0x4 ADD PUSH1 0x20 PUSH1 0x40 MLOAD DUP1 DUP4 SUB DUP2 DUP7 GAS STATICCALL ISZERO DUP1 ISZERO PUSH2 0x1E78 JUMPI RETURNDATASIZE PUSH1 0x0 DUP1 RETURNDATACOPY RETURNDATASIZE PUSH1 0x0 REVERT JUMPDEST POP POP POP POP PUSH1 0x40 MLOAD RETURNDATASIZE PUSH1 0x1F NOT PUSH1 0x1F DUP3 ADD AND DUP3 ADD DUP1 PUSH1 0x40 MSTORE POP DUP2 ADD SWAP1 PUSH2 0x1E9C SWAP2 SWAP1 PUSH2 0x5D9A JUMP JUMPDEST CALLER PUSH1 0x1 PUSH1 0x1 PUSH1 0xA0 SHL SUB DUP3 AND EQ PUSH2 0x1EE8 JUMPI PUSH1 0x40 MLOAD PUSH3 0x461BCD PUSH1 0xE5 SHL DUP2 MSTORE PUSH1 0x20 PUSH1 0x4 DUP3 ADD MSTORE PUSH1 0x11 PUSH1 0x24 DUP3 ADD MSTORE PUSH17 0x57616C6C6574206F776E6572206F6E6C79 PUSH1 0x78 SHL PUSH1 0x44 DUP3 ADD MSTORE PUSH1 0x64 ADD PUSH2 0xF8A JUMP JUMPDEST PUSH1 0x1D SLOAD PUSH1 0x0 SWAP1 PUSH1 0x1 PUSH1 0x1 PUSH1 0xA0 SHL SUB AND PUSH4 0xE7D88C42 PUSH2 0x13CA PUSH2 0x35D5 JUMP JUMPDEST PUSH1 0x5 SLOAD PUSH1 0x1 PUSH1 0x1 PUSH1 0xA0 SHL SUB AND CALLER EQ PUSH2 0x1F4C JUMPI PUSH1 0x40 MLOAD PUSH3 0x461BCD PUSH1 0xE5 SHL DUP2 MSTORE PUSH1 0x20 PUSH1 0x4 DUP3 ADD DUP2 SWAP1 MSTORE PUSH1 0x24 DUP3 ADD MSTORE PUSH1 0x0 DUP1 MLOAD PUSH1 0x20 PUSH2 0x5E89 DUP4 CODECOPY DUP2 MLOAD SWAP2 MSTORE PUSH1 0x44 DUP3 ADD MSTORE PUSH1 0x64 ADD PUSH2 0xF8A JUMP JUMPDEST PUSH1 0x5 DUP2 PUSH2 0xFFFF AND LT PUSH2 0x1FA0 JUMPI PUSH1 0x40 MLOAD PUSH3 0x461BCD PUSH1 0xE5 SHL DUP2 MSTORE PUSH1 0x20 PUSH1 0x4 DUP3 ADD MSTORE PUSH1 0x15 PUSH1 0x24 DUP3 ADD MSTORE PUSH32 0x54617820466565206D6178696D756D2069732035250000000000000000000000 PUSH1 0x44 DUP3 ADD MSTORE PUSH1 0x64 ADD PUSH2 0xF8A JUMP JUMPDEST PUSH1 0x16 DUP1 SLOAD PUSH5 0xFFFF000000 NOT AND PUSH4 0x1000000 PUSH2 0xFFFF DUP5 AND MUL OR SWAP1 SSTORE CALLER PUSH1 0x40 MLOAD PUSH2 0xFFFF DUP4 AND DUP2 MSTORE PUSH1 0x1 PUSH1 0x1 PUSH1 0xA0 SHL SUB SWAP2 SWAP1 SWAP2 AND SWAP1 PUSH32 0xDF92943B31FFF67E8447FF9FA8B5E226DDCC5FB34D36CFE120C0F2B96EB8D6F7 SWAP1 PUSH1 0x20 ADD JUMPDEST PUSH1 0x40 MLOAD DUP1 SWAP2 SUB SWAP1 LOG2 POP JUMP JUMPDEST PUSH1 0x5 SLOAD PUSH1 0x1 PUSH1 0x1 PUSH1 0xA0 SHL SUB AND CALLER EQ PUSH2 0x204B JUMPI PUSH1 0x40 MLOAD PUSH3 0x461BCD PUSH1 0xE5 SHL DUP2 MSTORE PUSH1 0x20 PUSH1 0x4 DUP3 ADD DUP2 SWAP1 MSTORE PUSH1 0x24 DUP3 ADD MSTORE PUSH1 0x0 DUP1 MLOAD PUSH1 0x20 PUSH2 0x5E89 DUP4 CODECOPY DUP2 MLOAD SWAP2 MSTORE PUSH1 0x44 DUP3 ADD MSTORE PUSH1 0x64 ADD PUSH2 0xF8A JUMP JUMPDEST ADDRESS PUSH1 0x0 SWAP1 DUP2 MSTORE PUSH1 0xD PUSH1 0x20 MSTORE PUSH1 0x40 SWAP1 KECCAK256 SLOAD PUSH2 0x2065 SWAP1 DUP3 PUSH2 0x32FD JUMP JUMPDEST ADDRESS PUSH1 0x0 SWAP1 DUP2 MSTORE PUSH1 0xD PUSH1 0x20 MSTORE PUSH1 0x40 SWAP1 KECCAK256 SSTORE PUSH1 0xF SLOAD PUSH2 0x2082 SWAP1 DUP3 PUSH2 0x32FD JUMP JUMPDEST PUSH1 0xF SSTORE PUSH1 0x40 MLOAD DUP2 DUP2 MSTORE PUSH1 0x0 SWAP1 ADDRESS SWAP1 PUSH32 0xDDF252AD1BE2C89B69C2B068FC378DAA952BA7F163C4A11628F55A4DF523B3EF SWAP1 PUSH1 0x20 ADD PUSH2 0x1283 JUMP JUMPDEST PUSH1 0x5 SLOAD PUSH1 0x1 PUSH1 0x1 PUSH1 0xA0 SHL SUB AND CALLER EQ PUSH2 0x2102 JUMPI PUSH1 0x40 MLOAD PUSH3 0x461BCD PUSH1 0xE5 SHL DUP2 MSTORE PUSH1 0x20 PUSH1 0x4 DUP3 ADD DUP2 SWAP1 MSTORE PUSH1 0x24 DUP3 ADD MSTORE PUSH1 0x0 DUP1 MLOAD PUSH1 0x20 PUSH2 0x5E89 DUP4 CODECOPY DUP2 MLOAD SWAP2 MSTORE PUSH1 0x44 DUP3 ADD MSTORE PUSH1 0x64 ADD PUSH2 0xF8A JUMP JUMPDEST PUSH2 0x210B DUP2 PUSH2 0x4F62 JUMP JUMPDEST PUSH1 0x40 MLOAD DUP2 DUP2 MSTORE CALLER SWAP1 PUSH32 0xE4D1041AB63832A18AE323C0781239637B799CCD1FFA03B0CC4C0916F14834D7 SWAP1 PUSH1 0x20 ADD PUSH2 0x1FF8 JUMP JUMPDEST PUSH1 0x16 SLOAD PUSH1 0xFF PUSH2 0x100 SWAP1 SWAP2 DIV AND ISZERO ISZERO PUSH1 0x1 EQ PUSH2 0x219A JUMPI PUSH1 0x40 MLOAD PUSH3 0x461BCD PUSH1 0xE5 SHL DUP2 MSTORE PUSH1 0x20 PUSH1 0x4 DUP3 ADD MSTORE PUSH1 0x1D PUSH1 0x24 DUP3 ADD MSTORE PUSH32 0x4C6F636B65642057616C6C6574206E6F74207965742073746172746564000000 PUSH1 0x44 DUP3 ADD MSTORE PUSH1 0x64 ADD PUSH2 0xF8A JUMP JUMPDEST PUSH1 0x1F PUSH1 0x0 SWAP1 SLOAD SWAP1 PUSH2 0x100 EXP SWAP1 DIV PUSH1 0x1 PUSH1 0x1 PUSH1 0xA0 SHL SUB AND PUSH1 0x1 PUSH1 0x1 PUSH1 0xA0 SHL SUB AND PUSH4 0x38AF3EED PUSH1 0x40 MLOAD DUP2 PUSH4 0xFFFFFFFF AND PUSH1 0xE0 SHL DUP2 MSTORE PUSH1 0x4 ADD PUSH1 0x20 PUSH1 0x40 MLOAD DUP1 DUP4 SUB DUP2 DUP7 GAS STATICCALL ISZERO DUP1 ISZERO PUSH2 0x21ED JUMPI RETURNDATASIZE PUSH1 0x0 DUP1 RETURNDATACOPY RETURNDATASIZE PUSH1 0x0 REVERT JUMPDEST POP POP POP POP PUSH1 0x40 MLOAD RETURNDATASIZE PUSH1 0x1F NOT PUSH1 0x1F DUP3 ADD AND DUP3 ADD DUP1 PUSH1 0x40 MSTORE POP DUP2 ADD SWAP1 PUSH2 0x2211 SWAP2 SWAP1 PUSH2 0x5D9A JUMP JUMPDEST CALLER PUSH1 0x1 PUSH1 0x1 PUSH1 0xA0 SHL SUB DUP3 AND EQ PUSH2 0x225D JUMPI PUSH1 0x40 MLOAD PUSH3 0x461BCD PUSH1 0xE5 SHL DUP2 MSTORE PUSH1 0x20 PUSH1 0x4 DUP3 ADD MSTORE PUSH1 0x11 PUSH1 0x24 DUP3 ADD MSTORE PUSH17 0x57616C6C6574206F776E6572206F6E6C79 PUSH1 0x78 SHL PUSH1 0x44 DUP3 ADD MSTORE PUSH1 0x64 ADD PUSH2 0xF8A JUMP JUMPDEST PUSH1 0x1F SLOAD PUSH1 0x0 SWAP1 PUSH1 0x1 PUSH1 0x1 PUSH1 0xA0 SHL SUB AND PUSH4 0xE7D88C42 PUSH2 0x13CA PUSH2 0x3F7B JUMP JUMPDEST PUSH1 0x16 SLOAD PUSH1 0xFF PUSH2 0x100 SWAP1 SWAP2 DIV AND ISZERO ISZERO PUSH1 0x1 EQ PUSH2 0x22D6 JUMPI PUSH1 0x40 MLOAD PUSH3 0x461BCD PUSH1 0xE5 SHL DUP2 MSTORE PUSH1 0x20 PUSH1 0x4 DUP3 ADD MSTORE PUSH1 0x1D PUSH1 0x24 DUP3 ADD MSTORE PUSH32 0x4C6F636B65642057616C6C6574206E6F74207965742073746172746564000000 PUSH1 0x44 DUP3 ADD MSTORE PUSH1 0x64 ADD PUSH2 0xF8A JUMP JUMPDEST PUSH1 0x17 PUSH1 0x0 SWAP1 SLOAD SWAP1 PUSH2 0x100 EXP SWAP1 DIV PUSH1 0x1 PUSH1 0x1 PUSH1 0xA0 SHL SUB AND PUSH1 0x1 PUSH1 0x1 PUSH1 0xA0 SHL SUB AND PUSH4 0x38AF3EED PUSH1 0x40 MLOAD DUP2 PUSH4 0xFFFFFFFF AND PUSH1 0xE0 SHL DUP2 MSTORE PUSH1 0x4 ADD PUSH1 0x20 PUSH1 0x40 MLOAD DUP1 DUP4 SUB DUP2 DUP7 GAS STATICCALL ISZERO DUP1 ISZERO PUSH2 0x2329 JUMPI RETURNDATASIZE PUSH1 0x0 DUP1 RETURNDATACOPY RETURNDATASIZE PUSH1 0x0 REVERT JUMPDEST POP POP POP POP PUSH1 0x40 MLOAD RETURNDATASIZE PUSH1 0x1F NOT PUSH1 0x1F DUP3 ADD AND DUP3 ADD DUP1 PUSH1 0x40 MSTORE POP DUP2 ADD SWAP1 PUSH2 0x234D SWAP2 SWAP1 PUSH2 0x5D9A JUMP JUMPDEST CALLER PUSH1 0x1 PUSH1 0x1 PUSH1 0xA0 SHL SUB DUP3 AND EQ PUSH2 0x2399 JUMPI PUSH1 0x40 MLOAD PUSH3 0x461BCD PUSH1 0xE5 SHL DUP2 MSTORE PUSH1 0x20 PUSH1 0x4 DUP3 ADD MSTORE PUSH1 0x11 PUSH1 0x24 DUP3 ADD MSTORE PUSH17 0x57616C6C6574206F776E6572206F6E6C79 PUSH1 0x78 SHL PUSH1 0x44 DUP3 ADD MSTORE PUSH1 0x64 ADD PUSH2 0xF8A JUMP JUMPDEST PUSH1 0x17 SLOAD PUSH1 0x0 SWAP1 PUSH1 0x1 PUSH1 0x1 PUSH1 0xA0 SHL SUB AND PUSH4 0xE7D88C42 PUSH2 0x13CA PUSH2 0x5014 JUMP JUMPDEST PUSH1 0x60 PUSH1 0x11 DUP1 SLOAD PUSH2 0xEC3 SWAP1 PUSH2 0x5D18 JUMP JUMPDEST PUSH1 0x5 SLOAD PUSH1 0x1 PUSH1 0x1 PUSH1 0xA0 SHL SUB AND CALLER EQ PUSH2 0x240C JUMPI PUSH1 0x40 MLOAD PUSH3 0x461BCD PUSH1 0xE5 SHL DUP2 MSTORE PUSH1 0x20 PUSH1 0x4 DUP3 ADD DUP2 SWAP1 MSTORE PUSH1 0x24 DUP3 ADD MSTORE PUSH1 0x0 DUP1 MLOAD PUSH1 0x20 PUSH2 0x5E89 DUP4 CODECOPY DUP2 MLOAD SWAP2 MSTORE PUSH1 0x44 DUP3 ADD MSTORE PUSH1 0x64 ADD PUSH2 0xF8A JUMP JUMPDEST PUSH1 0x16 SLOAD PUSH2 0x100 SWAP1 DIV PUSH1 0xFF AND ISZERO DUP1 ISZERO PUSH2 0x242D JUMPI POP PUSH1 0x16 SLOAD PUSH3 0x10000 SWAP1 DIV PUSH1 0xFF AND ISZERO JUMPDEST PUSH2 0x2479 JUMPI PUSH1 0x40 MLOAD PUSH3 0x461BCD PUSH1 0xE5 SHL DUP2 MSTORE PUSH1 0x20 PUSH1 0x4 DUP3 ADD MSTORE PUSH1 0x15 PUSH1 0x24 DUP3 ADD MSTORE PUSH32 0x4E6F7468696E6720746F20696E697469616C697A650000000000000000000000 PUSH1 0x44 DUP3 ADD MSTORE PUSH1 0x64 ADD PUSH2 0xF8A JUMP JUMPDEST PUSH1 0x16 DUP1 SLOAD PUSH2 0xFF00 NOT AND PUSH2 0x100 OR SWAP1 SSTORE PUSH1 0x17 SLOAD PUSH1 0x40 DUP1 MLOAD PUSH32 0xC8CCA41E00000000000000000000000000000000000000000000000000000000 DUP2 MSTORE SWAP1 MLOAD PUSH1 0x1 PUSH1 0x1 PUSH1 0xA0 SHL SUB SWAP1 SWAP3 AND SWAP2 PUSH4 0xC8CCA41E SWAP2 PUSH1 0x4 DUP1 DUP3 ADD SWAP3 PUSH1 0x0 SWAP3 SWAP1 SWAP2 SWAP1 DUP3 SWAP1 SUB ADD DUP2 DUP4 DUP8 DUP1 EXTCODESIZE ISZERO DUP1 ISZERO PUSH2 0x24E7 JUMPI PUSH1 0x0 DUP1 REVERT JUMPDEST POP GAS CALL ISZERO DUP1 ISZERO PUSH2 0x24FB JUMPI RETURNDATASIZE PUSH1 0x0 DUP1 RETURNDATACOPY RETURNDATASIZE PUSH1 0x0 REVERT JUMPDEST POP POP POP POP PUSH1 0x18 PUSH1 0x0 SWAP1 SLOAD SWAP1 PUSH2 0x100 EXP SWAP1 DIV PUSH1 0x1 PUSH1 0x1 PUSH1 0xA0 SHL SUB AND PUSH1 0x1 PUSH1 0x1 PUSH1 0xA0 SHL SUB AND PUSH4 0xC8CCA41E PUSH1 0x40 MLOAD DUP2 PUSH4 0xFFFFFFFF AND PUSH1 0xE0 SHL DUP2 MSTORE PUSH1 0x4 ADD PUSH1 0x0 PUSH1 0x40 MLOAD DUP1 DUP4 SUB DUP2 PUSH1 0x0 DUP8 DUP1 EXTCODESIZE ISZERO DUP1 ISZERO PUSH2 0x254F JUMPI PUSH1 0x0 DUP1 REVERT JUMPDEST POP GAS CALL ISZERO DUP1 ISZERO PUSH2 0x2563 JUMPI RETURNDATASIZE PUSH1 0x0 DUP1 RETURNDATACOPY RETURNDATASIZE PUSH1 0x0 REVERT JUMPDEST POP POP POP POP PUSH1 0x19 PUSH1 0x0 SWAP1 SLOAD SWAP1 PUSH2 0x100 EXP SWAP1 DIV PUSH1 0x1 PUSH1 0x1 PUSH1 0xA0 SHL SUB AND PUSH1 0x1 PUSH1 0x1 PUSH1 0xA0 SHL SUB AND PUSH4 0xC8CCA41E PUSH1 0x40 MLOAD DUP2 PUSH4 0xFFFFFFFF AND PUSH1 0xE0 SHL DUP2 MSTORE PUSH1 0x4 ADD PUSH1 0x0 PUSH1 0x40 MLOAD DUP1 DUP4 SUB DUP2 PUSH1 0x0 DUP8 DUP1 EXTCODESIZE ISZERO DUP1 ISZERO PUSH2 0x25B7 JUMPI PUSH1 0x0 DUP1 REVERT JUMPDEST POP GAS CALL ISZERO DUP1 ISZERO PUSH2 0x25CB JUMPI RETURNDATASIZE PUSH1 0x0 DUP1 RETURNDATACOPY RETURNDATASIZE PUSH1 0x0 REVERT JUMPDEST POP POP POP POP PUSH1 0x1A PUSH1 0x0 SWAP1 SLOAD SWAP1 PUSH2 0x100 EXP SWAP1 DIV PUSH1 0x1 PUSH1 0x1 PUSH1 0xA0 SHL SUB AND PUSH1 0x1 PUSH1 0x1 PUSH1 0xA0 SHL SUB AND PUSH4 0xC8CCA41E PUSH1 0x40 MLOAD DUP2 PUSH4 0xFFFFFFFF AND PUSH1 0xE0 SHL DUP2 MSTORE PUSH1 0x4 ADD PUSH1 0x0 PUSH1 0x40 MLOAD DUP1 DUP4 SUB DUP2 PUSH1 0x0 DUP8 DUP1 EXTCODESIZE ISZERO DUP1 ISZERO PUSH2 0x261F JUMPI PUSH1 0x0 DUP1 REVERT JUMPDEST POP GAS CALL ISZERO DUP1 ISZERO PUSH2 0x2633 JUMPI RETURNDATASIZE PUSH1 0x0 DUP1 RETURNDATACOPY RETURNDATASIZE PUSH1 0x0 REVERT JUMPDEST POP POP POP POP PUSH1 0x1B PUSH1 0x0 SWAP1 SLOAD SWAP1 PUSH2 0x100 EXP SWAP1 DIV PUSH1 0x1 PUSH1 0x1 PUSH1 0xA0 SHL SUB AND PUSH1 0x1 PUSH1 0x1 PUSH1 0xA0 SHL SUB AND PUSH4 0xC8CCA41E PUSH1 0x40 MLOAD DUP2 PUSH4 0xFFFFFFFF AND PUSH1 0xE0 SHL DUP2 MSTORE PUSH1 0x4 ADD PUSH1 0x0 PUSH1 0x40 MLOAD DUP1 DUP4 SUB DUP2 PUSH1 0x0 DUP8 DUP1 EXTCODESIZE ISZERO DUP1 ISZERO PUSH2 0x2687 JUMPI PUSH1 0x0 DUP1 REVERT JUMPDEST POP GAS CALL ISZERO DUP1 ISZERO PUSH2 0x269B JUMPI RETURNDATASIZE PUSH1 0x0 DUP1 RETURNDATACOPY RETURNDATASIZE PUSH1 0x0 REVERT JUMPDEST POP POP POP POP PUSH1 0x1C PUSH1 0x0 SWAP1 SLOAD SWAP1 PUSH2 0x100 EXP SWAP1 DIV PUSH1 0x1 PUSH1 0x1 PUSH1 0xA0 SHL SUB AND PUSH1 0x1 PUSH1 0x1 PUSH1 0xA0 SHL SUB AND PUSH4 0xC8CCA41E PUSH1 0x40 MLOAD DUP2 PUSH4 0xFFFFFFFF AND PUSH1 0xE0 SHL DUP2 MSTORE PUSH1 0x4 ADD PUSH1 0x0 PUSH1 0x40 MLOAD DUP1 DUP4 SUB DUP2 PUSH1 0x0 DUP8 DUP1 EXTCODESIZE ISZERO DUP1 ISZERO PUSH2 0x26EF JUMPI PUSH1 0x0 DUP1 REVERT JUMPDEST POP GAS CALL ISZERO DUP1 ISZERO PUSH2 0x2703 JUMPI RETURNDATASIZE PUSH1 0x0 DUP1 RETURNDATACOPY RETURNDATASIZE PUSH1 0x0 REVERT JUMPDEST POP POP POP POP PUSH1 0x1D PUSH1 0x0 SWAP1 SLOAD SWAP1 PUSH2 0x100 EXP SWAP1 DIV PUSH1 0x1 PUSH1 0x1 PUSH1 0xA0 SHL SUB AND PUSH1 0x1 PUSH1 0x1 PUSH1 0xA0 SHL SUB AND PUSH4 0xC8CCA41E PUSH1 0x40 MLOAD DUP2 PUSH4 0xFFFFFFFF AND PUSH1 0xE0 SHL DUP2 MSTORE PUSH1 0x4 ADD PUSH1 0x0 PUSH1 0x40 MLOAD DUP1 DUP4 SUB DUP2 PUSH1 0x0 DUP8 DUP1 EXTCODESIZE ISZERO DUP1 ISZERO PUSH2 0x2757 JUMPI PUSH1 0x0 DUP1 REVERT JUMPDEST POP GAS CALL ISZERO DUP1 ISZERO PUSH2 0x276B JUMPI RETURNDATASIZE PUSH1 0x0 DUP1 RETURNDATACOPY RETURNDATASIZE PUSH1 0x0 REVERT JUMPDEST POP POP POP POP PUSH1 0x1E PUSH1 0x0 SWAP1 SLOAD SWAP1 PUSH2 0x100 EXP SWAP1 DIV PUSH1 0x1 PUSH1 0x1 PUSH1 0xA0 SHL SUB AND PUSH1 0x1 PUSH1 0x1 PUSH1 0xA0 SHL SUB AND PUSH4 0xC8CCA41E PUSH1 0x40 MLOAD DUP2 PUSH4 0xFFFFFFFF AND PUSH1 0xE0 SHL DUP2 MSTORE PUSH1 0x4 ADD PUSH1 0x0 PUSH1 0x40 MLOAD DUP1 DUP4 SUB DUP2 PUSH1 0x0 DUP8 DUP1 EXTCODESIZE ISZERO DUP1 ISZERO PUSH2 0x27BF JUMPI PUSH1 0x0 DUP1 REVERT JUMPDEST POP GAS CALL ISZERO DUP1 ISZERO PUSH2 0x27D3 JUMPI RETURNDATASIZE PUSH1 0x0 DUP1 RETURNDATACOPY RETURNDATASIZE PUSH1 0x0 REVERT JUMPDEST POP POP POP POP PUSH1 0x1F PUSH1 0x0 SWAP1 SLOAD SWAP1 PUSH2 0x100 EXP SWAP1 DIV PUSH1 0x1 PUSH1 0x1 PUSH1 0xA0 SHL SUB AND PUSH1 0x1 PUSH1 0x1 PUSH1 0xA0 SHL SUB AND PUSH4 0xC8CCA41E PUSH1 0x40 MLOAD DUP2 PUSH4 0xFFFFFFFF AND PUSH1 0xE0 SHL DUP2 MSTORE PUSH1 0x4 ADD PUSH1 0x0 PUSH1 0x40 MLOAD DUP1 DUP4 SUB DUP2 PUSH1 0x0 DUP8 DUP1 EXTCODESIZE ISZERO DUP1 ISZERO PUSH2 0x2827 JUMPI PUSH1 0x0 DUP1 REVERT JUMPDEST POP GAS CALL ISZERO DUP1 ISZERO PUSH2 0x283B JUMPI RETURNDATASIZE PUSH1 0x0 DUP1 RETURNDATACOPY RETURNDATASIZE PUSH1 0x0 REVERT JUMPDEST POP POP POP POP PUSH1 0x20 PUSH1 0x0 SWAP1 SLOAD SWAP1 PUSH2 0x100 EXP SWAP1 DIV PUSH1 0x1 PUSH1 0x1 PUSH1 0xA0 SHL SUB AND PUSH1 0x1 PUSH1 0x1 PUSH1 0xA0 SHL SUB AND PUSH4 0xC8CCA41E PUSH1 0x40 MLOAD DUP2 PUSH4 0xFFFFFFFF AND PUSH1 0xE0 SHL DUP2 MSTORE PUSH1 0x4 ADD PUSH1 0x0 PUSH1 0x40 MLOAD DUP1 DUP4 SUB DUP2 PUSH1 0x0 DUP8 DUP1 EXTCODESIZE ISZERO DUP1 ISZERO PUSH2 0x288F JUMPI PUSH1 0x0 DUP1 REVERT JUMPDEST POP GAS CALL ISZERO DUP1 ISZERO PUSH2 0x28A3 JUMPI RETURNDATASIZE PUSH1 0x0 DUP1 RETURNDATACOPY RETURNDATASIZE PUSH1 0x0 REVERT JUMPDEST POP POP POP POP PUSH2 0x28AE CALLER SWAP1 JUMP JUMPDEST PUSH1 0x1 PUSH1 0x1 PUSH1 0xA0 SHL SUB AND PUSH32 0x72E04AFC383D9AB428814E808CD65ABB27C66B5FA85CC230B4CDA3E36B436C98 PUSH1 0x40 MLOAD PUSH1 0x40 MLOAD DUP1 SWAP2 SUB SWAP1 LOG2 PUSH1 0x16 DUP1 SLOAD PUSH3 0xFF0000 NOT AND PUSH3 0x10000 OR SWAP1 SSTORE PUSH2 0x28FD TIMESTAMP PUSH1 0xB SSTORE JUMP JUMPDEST PUSH1 0x40 MLOAD CALLER SWAP1 PUSH32 0x166F0287F5E28D35EC474DA4C920A3E6F47F0D7C8833B963DD8367F68DD377CD SWAP1 PUSH1 0x0 SWAP1 LOG2 PUSH1 0x16 DUP1 SLOAD PUSH1 0xFF NOT AND PUSH1 0x1 OR SWAP1 SSTORE TIMESTAMP PUSH1 0x15 SSTORE PUSH2 0x2940 CALLER SWAP1 JUMP JUMPDEST PUSH1 0x16 SLOAD PUSH1 0x40 MLOAD PUSH1 0xFF SWAP1 SWAP2 AND ISZERO ISZERO DUP2 MSTORE PUSH1 0x1 PUSH1 0x1 PUSH1 0xA0 SHL SUB SWAP2 SWAP1 SWAP2 AND SWAP1 PUSH32 0xE596A4FD4BA2E7F54093D98B96267C6B0DBAE1E317BED8123D9FBC868C028377 SWAP1 PUSH1 0x20 ADD PUSH1 0x40 MLOAD DUP1 SWAP2 SUB SWAP1 LOG2 JUMP JUMPDEST PUSH1 0x5 SLOAD PUSH1 0x1 PUSH1 0x1 PUSH1 0xA0 SHL SUB AND CALLER EQ PUSH2 0x29D3 JUMPI PUSH1 0x40 MLOAD PUSH3 0x461BCD PUSH1 0xE5 SHL DUP2 MSTORE PUSH1 0x20 PUSH1 0x4 DUP3 ADD DUP2 SWAP1 MSTORE PUSH1 0x24 DUP3 ADD MSTORE PUSH1 0x0 DUP1 MLOAD PUSH1 0x20 PUSH2 0x5E89 DUP4 CODECOPY DUP2 MLOAD SWAP2 MSTORE PUSH1 0x44 DUP3 ADD MSTORE PUSH1 0x64 ADD PUSH2 0xF8A JUMP JUMPDEST PUSH2 0x1809 DUP2 PUSH2 0x53B0 JUMP JUMPDEST PUSH1 0x5 SLOAD PUSH1 0x1 PUSH1 0x1 PUSH1 0xA0 SHL SUB AND CALLER EQ PUSH2 0x2A24 JUMPI PUSH1 0x40 MLOAD PUSH3 0x461BCD PUSH1 0xE5 SHL DUP2 MSTORE PUSH1 0x20 PUSH1 0x4 DUP3 ADD DUP2 SWAP1 MSTORE PUSH1 0x24 DUP3 ADD MSTORE PUSH1 0x0 DUP1 MLOAD PUSH1 0x20 PUSH2 0x5E89 DUP4 CODECOPY DUP2 MLOAD SWAP2 MSTORE PUSH1 0x44 DUP3 ADD MSTORE PUSH1 0x64 ADD PUSH2 0xF8A JUMP JUMPDEST PUSH1 0x16 SLOAD PUSH3 0x10000 SWAP1 DIV PUSH1 0xFF AND ISZERO ISZERO PUSH1 0x1 EQ PUSH2 0x2A81 JUMPI PUSH1 0x40 MLOAD PUSH3 0x461BCD PUSH1 0xE5 SHL DUP2 MSTORE PUSH1 0x20 PUSH1 0x4 DUP3 ADD MSTORE PUSH1 0x1C PUSH1 0x24 DUP3 ADD MSTORE PUSH32 0x507269766174652053616C65206E6F7420796574207374617274656400000000 PUSH1 0x44 DUP3 ADD MSTORE PUSH1 0x64 ADD PUSH2 0xF8A JUMP JUMPDEST DUP1 PUSH2 0x2ACE JUMPI PUSH1 0x40 MLOAD PUSH3 0x461BCD PUSH1 0xE5 SHL DUP2 MSTORE PUSH1 0x20 PUSH1 0x4 DUP3 ADD MSTORE PUSH1 0x11 PUSH1 0x24 DUP3 ADD MSTORE PUSH32 0x4E6F7468696E6720746F2064656C657465000000000000000000000000000000 PUSH1 0x44 DUP3 ADD MSTORE PUSH1 0x64 ADD PUSH2 0xF8A JUMP JUMPDEST PUSH1 0x0 JUMPDEST DUP2 DUP2 LT ISZERO PUSH2 0x11CB JUMPI PUSH1 0x0 PUSH2 0x2B0A DUP5 DUP5 DUP5 DUP2 DUP2 LT PUSH2 0x2AF0 JUMPI PUSH2 0x2AF0 PUSH2 0x5D53 JUMP JUMPDEST SWAP1 POP PUSH1 0x20 MUL ADD PUSH1 0x20 DUP2 ADD SWAP1 PUSH2 0x2B05 SWAP2 SWAP1 PUSH2 0x5C19 JUMP JUMPDEST PUSH2 0x5405 JUMP JUMPDEST PUSH1 0x14 SLOAD SWAP1 SWAP2 POP PUSH2 0x2B1A SWAP1 DUP3 PUSH2 0x32F1 JUMP JUMPDEST PUSH1 0x14 SSTORE DUP4 DUP4 DUP4 DUP2 DUP2 LT PUSH2 0x2B2F JUMPI PUSH2 0x2B2F PUSH2 0x5D53 JUMP JUMPDEST SWAP1 POP PUSH1 0x20 MUL ADD PUSH1 0x20 DUP2 ADD SWAP1 PUSH2 0x2B44 SWAP2 SWAP1 PUSH2 0x5C19 JUMP JUMPDEST PUSH1 0x1 PUSH1 0x1 PUSH1 0xA0 SHL SUB AND CALLER PUSH1 0x1 PUSH1 0x1 PUSH1 0xA0 SHL SUB AND PUSH32 0x946ED2F29C189BB6F4744C09F637BDA38011CABC8D1433BB26DDAD258B9E82D6 PUSH1 0x40 MLOAD PUSH1 0x40 MLOAD DUP1 SWAP2 SUB SWAP1 LOG3 POP DUP1 PUSH2 0x2B8E DUP2 PUSH2 0x5D7F JUMP JUMPDEST SWAP2 POP POP PUSH2 0x2AD1 JUMP JUMPDEST CALLER PUSH1 0x0 DUP2 DUP2 MSTORE PUSH1 0xE PUSH1 0x20 SWAP1 DUP2 MSTORE PUSH1 0x40 DUP1 DUP4 KECCAK256 PUSH1 0x1 PUSH1 0x1 PUSH1 0xA0 SHL SUB DUP8 AND DUP5 MSTORE SWAP1 SWAP2 MSTORE DUP2 KECCAK256 SLOAD SWAP1 SWAP2 SWAP1 DUP4 DUP2 LT ISZERO PUSH2 0x2C33 JUMPI PUSH1 0x40 MLOAD PUSH3 0x461BCD PUSH1 0xE5 SHL DUP2 MSTORE PUSH1 0x20 PUSH1 0x4 DUP3 ADD MSTORE PUSH1 0x25 PUSH1 0x24 DUP3 ADD MSTORE PUSH32 0x45524332303A2064656372656173656420616C6C6F77616E63652062656C6F77 PUSH1 0x44 DUP3 ADD MSTORE PUSH32 0x207A65726F000000000000000000000000000000000000000000000000000000 PUSH1 0x64 DUP3 ADD MSTORE PUSH1 0x84 ADD PUSH2 0xF8A JUMP JUMPDEST PUSH2 0x157F DUP3 DUP7 DUP7 DUP5 SUB PUSH2 0x347C JUMP JUMPDEST PUSH1 0x0 CALLER PUSH2 0x11DE DUP2 DUP6 DUP6 PUSH2 0x3BB8 JUMP JUMPDEST PUSH1 0x16 SLOAD PUSH1 0xFF PUSH2 0x100 SWAP1 SWAP2 DIV AND ISZERO ISZERO PUSH1 0x1 EQ PUSH2 0x2CAB JUMPI PUSH1 0x40 MLOAD PUSH3 0x461BCD PUSH1 0xE5 SHL DUP2 MSTORE PUSH1 0x20 PUSH1 0x4 DUP3 ADD MSTORE PUSH1 0x1D PUSH1 0x24 DUP3 ADD MSTORE PUSH32 0x4C6F636B65642057616C6C6574206E6F74207965742073746172746564000000 PUSH1 0x44 DUP3 ADD MSTORE PUSH1 0x64 ADD PUSH2 0xF8A JUMP JUMPDEST PUSH1 0x18 PUSH1 0x0 SWAP1 SLOAD SWAP1 PUSH2 0x100 EXP SWAP1 DIV PUSH1 0x1 PUSH1 0x1 PUSH1 0xA0 SHL SUB AND PUSH1 0x1 PUSH1 0x1 PUSH1 0xA0 SHL SUB AND PUSH4 0x38AF3EED PUSH1 0x40 MLOAD DUP2 PUSH4 0xFFFFFFFF AND PUSH1 0xE0 SHL DUP2 MSTORE PUSH1 0x4 ADD PUSH1 0x20 PUSH1 0x40 MLOAD DUP1 DUP4 SUB DUP2 DUP7 GAS STATICCALL ISZERO DUP1 ISZERO PUSH2 0x2CFE JUMPI RETURNDATASIZE PUSH1 0x0 DUP1 RETURNDATACOPY RETURNDATASIZE PUSH1 0x0 REVERT JUMPDEST POP POP POP POP PUSH1 0x40 MLOAD RETURNDATASIZE PUSH1 0x1F NOT PUSH1 0x1F DUP3 ADD AND DUP3 ADD DUP1 PUSH1 0x40 MSTORE POP DUP2 ADD SWAP1 PUSH2 0x2D22 SWAP2 SWAP1 PUSH2 0x5D9A JUMP JUMPDEST CALLER PUSH1 0x1 PUSH1 0x1 PUSH1 0xA0 SHL SUB DUP3 AND EQ PUSH2 0x2D6E JUMPI PUSH1 0x40 MLOAD PUSH3 0x461BCD PUSH1 0xE5 SHL DUP2 MSTORE PUSH1 0x20 PUSH1 0x4 DUP3 ADD MSTORE PUSH1 0x11 PUSH1 0x24 DUP3 ADD MSTORE PUSH17 0x57616C6C6574206F776E6572206F6E6C79 PUSH1 0x78 SHL PUSH1 0x44 DUP3 ADD MSTORE PUSH1 0x64 ADD PUSH2 0xF8A JUMP JUMPDEST PUSH1 0x18 SLOAD PUSH1 0x0 SWAP1 PUSH1 0x1 PUSH1 0x1 PUSH1 0xA0 SHL SUB AND PUSH4 0xE7D88C42 PUSH2 0x13CA PUSH2 0x4ABD JUMP JUMPDEST PUSH1 0x16 SLOAD PUSH1 0x0 SWAP1 PUSH1 0xFF AND ISZERO ISZERO PUSH1 0x1 EQ PUSH2 0x2DE4 JUMPI PUSH1 0x40 MLOAD PUSH3 0x461BCD PUSH1 0xE5 SHL DUP2 MSTORE PUSH1 0x20 PUSH1 0x4 DUP3 ADD MSTORE PUSH1 0x17 PUSH1 0x24 DUP3 ADD MSTORE PUSH32 0x41697264726F70206E6F74207965742073746172746564000000000000000000 PUSH1 0x44 DUP3 ADD MSTORE PUSH1 0x64 ADD PUSH2 0xF8A JUMP JUMPDEST PUSH3 0x93A80 PUSH1 0x15 SLOAD TIMESTAMP PUSH2 0x2DF6 SWAP2 SWAP1 PUSH2 0x5E1A JUMP JUMPDEST PUSH2 0x2E00 SWAP2 SWAP1 PUSH2 0x5E47 JUMP JUMPDEST SWAP1 POP SWAP1 JUMP JUMPDEST PUSH1 0x5 SLOAD PUSH1 0x1 PUSH1 0x1 PUSH1 0xA0 SHL SUB AND CALLER EQ PUSH2 0x2E4D JUMPI PUSH1 0x40 MLOAD PUSH3 0x461BCD PUSH1 0xE5 SHL DUP2 MSTORE PUSH1 0x20 PUSH1 0x4 DUP3 ADD DUP2 SWAP1 MSTORE PUSH1 0x24 DUP3 ADD MSTORE PUSH1 0x0 DUP1 MLOAD PUSH1 0x20 PUSH2 0x5E89 DUP4 CODECOPY DUP2 MLOAD SWAP2 MSTORE PUSH1 0x44 DUP3 ADD MSTORE PUSH1 0x64 ADD PUSH2 0xF8A JUMP JUMPDEST PUSH2 0x2E56 DUP2 PUSH2 0x551C JUMP JUMPDEST PUSH1 0x40 MLOAD DUP2 DUP2 MSTORE CALLER SWAP1 PUSH32 0x31BBDC307CB7AFAB9B265EE4C47F5FEB19D8A8702A67C0B695DF02E0D4C55B5F SWAP1 PUSH1 0x20 ADD PUSH2 0x1FF8 JUMP JUMPDEST PUSH1 0x5 SLOAD PUSH1 0x1 PUSH1 0x1 PUSH1 0xA0 SHL SUB AND CALLER EQ PUSH2 0x2ED0 JUMPI PUSH1 0x40 MLOAD PUSH3 0x461BCD PUSH1 0xE5 SHL DUP2 MSTORE PUSH1 0x20 PUSH1 0x4 DUP3 ADD DUP2 SWAP1 MSTORE PUSH1 0x24 DUP3 ADD MSTORE PUSH1 0x0 DUP1 MLOAD PUSH1 0x20 PUSH2 0x5E89 DUP4 CODECOPY DUP2 MLOAD SWAP2 MSTORE PUSH1 0x44 DUP3 ADD MSTORE PUSH1 0x64 ADD PUSH2 0xF8A JUMP JUMPDEST ADDRESS PUSH1 0x0 SWAP1 DUP2 MSTORE PUSH1 0xD PUSH1 0x20 MSTORE PUSH1 0x40 SWAP1 KECCAK256 SLOAD PUSH2 0x2EEA SWAP1 DUP3 PUSH2 0x32F1 JUMP JUMPDEST ADDRESS PUSH1 0x0 SWAP1 DUP2 MSTORE PUSH1 0xD PUSH1 0x20 MSTORE PUSH1 0x40 SWAP1 KECCAK256 SSTORE PUSH1 0xF SLOAD PUSH2 0x2F07 SWAP1 DUP3 PUSH2 0x32F1 JUMP JUMPDEST PUSH1 0xF SSTORE PUSH1 0x40 MLOAD DUP2 DUP2 MSTORE ADDRESS SWAP1 PUSH1 0x0 SWAP1 PUSH32 0xDDF252AD1BE2C89B69C2B068FC378DAA952BA7F163C4A11628F55A4DF523B3EF SWAP1 PUSH1 0x20 ADD PUSH2 0x1283 JUMP JUMPDEST PUSH2 0x2F47 PUSH2 0x5A2E JUMP JUMPDEST PUSH1 0x40 DUP1 MLOAD PUSH1 0x60 DUP1 DUP3 ADD DUP4 MSTORE PUSH1 0x0 DUP1 DUP4 MSTORE PUSH1 0x20 DUP1 DUP5 ADD DUP3 SWAP1 MSTORE PUSH1 0x1 PUSH1 0x1 PUSH1 0xA0 SHL SUB DUP1 DUP9 AND DUP4 MSTORE PUSH1 0x8 DUP3 MSTORE SWAP2 DUP6 SWAP1 KECCAK256 DUP6 MLOAD PUSH1 0xE0 DUP2 ADD DUP8 MSTORE DUP2 SLOAD SWAP1 SWAP4 AND DUP4 MSTORE PUSH1 0x1 DUP2 ADD SLOAD SWAP2 DUP4 ADD SWAP2 DUP3 MSTORE PUSH1 0x2 DUP2 ADD SLOAD DUP4 DUP8 ADD MSTORE PUSH1 0x3 DUP2 ADD SLOAD SWAP4 DUP4 ADD SWAP4 SWAP1 SWAP4 MSTORE PUSH1 0x4 DUP4 ADD SLOAD PUSH1 0x80 DUP4 ADD MSTORE PUSH1 0x5 DUP4 ADD SLOAD PUSH1 0xA0 DUP4 ADD MSTORE PUSH1 0x6 SWAP1 SWAP3 ADD SLOAD PUSH1 0xC0 DUP3 ADD MSTORE SWAP3 DUP3 ADD SWAP3 SWAP1 SWAP3 MSTORE SWAP1 MLOAD PUSH2 0x3017 JUMPI PUSH1 0x40 MLOAD PUSH3 0x461BCD PUSH1 0xE5 SHL DUP2 MSTORE PUSH1 0x20 PUSH1 0x4 DUP3 ADD MSTORE PUSH1 0xE PUSH1 0x24 DUP3 ADD MSTORE PUSH32 0x4E6F207374616B6520666F756E64000000000000000000000000000000000000 PUSH1 0x44 DUP3 ADD MSTORE PUSH1 0x64 ADD PUSH2 0xF8A JUMP JUMPDEST PUSH1 0x40 DUP2 ADD MLOAD PUSH1 0x20 DUP2 ADD MLOAD PUSH1 0x0 SWAP2 PUSH2 0x302D SWAP2 PUSH2 0x55C8 JUMP JUMPDEST SWAP1 POP PUSH1 0x0 TIMESTAMP DUP4 PUSH1 0x40 ADD MLOAD PUSH1 0xC0 ADD MLOAD GT ISZERO PUSH2 0x306A JUMPI PUSH1 0x0 DUP1 PUSH2 0x3056 DUP6 PUSH1 0x40 ADD MLOAD PUSH1 0x20 ADD MLOAD DUP6 PUSH2 0x561B JUMP JUMPDEST SWAP1 SWAP3 POP SWAP1 POP PUSH2 0x3065 DUP2 DUP4 PUSH2 0x5E02 JUMP JUMPDEST SWAP3 POP POP POP JUMPDEST PUSH1 0x0 PUSH2 0x307D DUP5 PUSH1 0x40 ADD MLOAD PUSH1 0x20 ADD MLOAD PUSH2 0x5657 JUMP JUMPDEST PUSH1 0x40 DUP6 ADD DUP1 MLOAD PUSH1 0x80 ADD SWAP2 SWAP1 SWAP2 MSTORE DUP1 MLOAD PUSH1 0x60 ADD SWAP4 SWAP1 SWAP4 MSTORE POP PUSH1 0x20 DUP1 DUP5 ADD SWAP2 SWAP1 SWAP2 MSTORE SWAP1 MLOAD ADD MLOAD DUP2 MSTORE SWAP3 SWAP2 POP POP JUMP JUMPDEST PUSH1 0x16 SLOAD PUSH1 0xFF PUSH2 0x100 SWAP1 SWAP2 DIV AND ISZERO ISZERO PUSH1 0x1 EQ PUSH2 0x3106 JUMPI PUSH1 0x40 MLOAD PUSH3 0x461BCD PUSH1 0xE5 SHL DUP2 MSTORE PUSH1 0x20 PUSH1 0x4 DUP3 ADD MSTORE PUSH1 0x1D PUSH1 0x24 DUP3 ADD MSTORE PUSH32 0x4C6F636B65642057616C6C6574206E6F74207965742073746172746564000000 PUSH1 0x44 DUP3 ADD MSTORE PUSH1 0x64 ADD PUSH2 0xF8A JUMP JUMPDEST PUSH1 0x19 PUSH1 0x0 SWAP1 SLOAD SWAP1 PUSH2 0x100 EXP SWAP1 DIV PUSH1 0x1 PUSH1 0x1 PUSH1 0xA0 SHL SUB AND PUSH1 0x1 PUSH1 0x1 PUSH1 0xA0 SHL SUB AND PUSH4 0x38AF3EED PUSH1 0x40 MLOAD DUP2 PUSH4 0xFFFFFFFF AND PUSH1 0xE0 SHL DUP2 MSTORE PUSH1 0x4 ADD PUSH1 0x20 PUSH1 0x40 MLOAD DUP1 DUP4 SUB DUP2 DUP7 GAS STATICCALL ISZERO DUP1 ISZERO PUSH2 0x3159 JUMPI RETURNDATASIZE PUSH1 0x0 DUP1 RETURNDATACOPY RETURNDATASIZE PUSH1 0x0 REVERT JUMPDEST POP POP POP POP PUSH1 0x40 MLOAD RETURNDATASIZE PUSH1 0x1F NOT PUSH1 0x1F DUP3 ADD AND DUP3 ADD DUP1 PUSH1 0x40 MSTORE POP DUP2 ADD SWAP1 PUSH2 0x317D SWAP2 SWAP1 PUSH2 0x5D9A JUMP JUMPDEST CALLER PUSH1 0x1 PUSH1 0x1 PUSH1 0xA0 SHL SUB DUP3 AND EQ PUSH2 0x31C9 JUMPI PUSH1 0x40 MLOAD PUSH3 0x461BCD PUSH1 0xE5 SHL DUP2 MSTORE PUSH1 0x20 PUSH1 0x4 DUP3 ADD MSTORE PUSH1 0x11 PUSH1 0x24 DUP3 ADD MSTORE PUSH17 0x57616C6C6574206F776E6572206F6E6C79 PUSH1 0x78 SHL PUSH1 0x44 DUP3 ADD MSTORE PUSH1 0x64 ADD PUSH2 0xF8A JUMP JUMPDEST PUSH1 0x19 SLOAD PUSH1 0x0 SWAP1 PUSH1 0x1 PUSH1 0x1 PUSH1 0xA0 SHL SUB AND PUSH4 0xE7D88C42 PUSH2 0x13CA PUSH2 0x4ABD JUMP JUMPDEST PUSH1 0x5 SLOAD PUSH1 0x1 PUSH1 0x1 PUSH1 0xA0 SHL SUB AND CALLER EQ PUSH2 0x322D JUMPI PUSH1 0x40 MLOAD PUSH3 0x461BCD PUSH1 0xE5 SHL DUP2 MSTORE PUSH1 0x20 PUSH1 0x4 DUP3 ADD DUP2 SWAP1 MSTORE PUSH1 0x24 DUP3 ADD MSTORE PUSH1 0x0 DUP1 MLOAD PUSH1 0x20 PUSH2 0x5E89 DUP4 CODECOPY DUP2 MLOAD SWAP2 MSTORE PUSH1 0x44 DUP3 ADD MSTORE PUSH1 0x64 ADD PUSH2 0xF8A JUMP JUMPDEST PUSH1 0x1 PUSH1 0x1 PUSH1 0xA0 SHL SUB DUP2 AND PUSH2 0x32A9 JUMPI PUSH1 0x40 MLOAD PUSH3 0x461BCD PUSH1 0xE5 SHL DUP2 MSTORE PUSH1 0x20 PUSH1 0x4 DUP3 ADD MSTORE PUSH1 0x26 PUSH1 0x24 DUP3 ADD MSTORE PUSH32 0x4F776E61626C653A206E6577206F776E657220697320746865207A65726F2061 PUSH1 0x44 DUP3 ADD MSTORE PUSH32 0x6464726573730000000000000000000000000000000000000000000000000000 PUSH1 0x64 DUP3 ADD MSTORE PUSH1 0x84 ADD PUSH2 0xF8A JUMP JUMPDEST PUSH2 0x1809 DUP2 PUSH2 0x4732 JUMP JUMPDEST PUSH1 0x0 DUP2 DUP5 DUP5 GT ISZERO PUSH2 0x32D6 JUMPI PUSH1 0x40 MLOAD PUSH3 0x461BCD PUSH1 0xE5 SHL DUP2 MSTORE PUSH1 0x4 ADD PUSH2 0xF8A SWAP2 SWAP1 PUSH2 0x5AB4 JUMP JUMPDEST POP POP POP SWAP1 SUB SWAP1 JUMP JUMPDEST PUSH1 0x0 PUSH2 0x32EA DUP3 DUP5 PUSH2 0x5E47 JUMP JUMPDEST SWAP4 SWAP3 POP POP POP JUMP JUMPDEST PUSH1 0x0 PUSH2 0x32EA DUP3 DUP5 PUSH2 0x5E02 JUMP JUMPDEST PUSH1 0x0 PUSH2 0x32EA DUP3 DUP5 PUSH2 0x5E1A JUMP JUMPDEST PUSH1 0xA SLOAD DUP2 GT ISZERO PUSH2 0x3381 JUMPI PUSH1 0x40 MLOAD PUSH3 0x461BCD PUSH1 0xE5 SHL DUP2 MSTORE PUSH1 0x20 PUSH1 0x4 DUP3 ADD MSTORE PUSH1 0x31 PUSH1 0x24 DUP3 ADD MSTORE PUSH32 0x5072697661746553616C653A206E6F7420656E6F7567682062616C616E636520 PUSH1 0x44 DUP3 ADD MSTORE PUSH32 0x746F206164642061206E65772075736572000000000000000000000000000000 PUSH1 0x64 DUP3 ADD MSTORE PUSH1 0x84 ADD PUSH2 0xF8A JUMP JUMPDEST PUSH1 0x1 PUSH1 0x1 PUSH1 0xA0 SHL SUB DUP3 AND PUSH1 0x0 SWAP1 DUP2 MSTORE PUSH1 0xC PUSH1 0x20 MSTORE PUSH1 0x40 SWAP1 KECCAK256 PUSH1 0x1 ADD SLOAD ISZERO PUSH2 0x3410 JUMPI PUSH1 0x40 MLOAD PUSH3 0x461BCD PUSH1 0xE5 SHL DUP2 MSTORE PUSH1 0x20 PUSH1 0x4 DUP3 ADD MSTORE PUSH1 0x29 PUSH1 0x24 DUP3 ADD MSTORE PUSH32 0x5072697661746553616C653A2054686973207573657220616C72656164792072 PUSH1 0x44 DUP3 ADD MSTORE PUSH32 0x6567697374657265640000000000000000000000000000000000000000000000 PUSH1 0x64 DUP3 ADD MSTORE PUSH1 0x84 ADD PUSH2 0xF8A JUMP JUMPDEST PUSH1 0x1 PUSH1 0x1 PUSH1 0xA0 SHL SUB DUP3 AND PUSH1 0x0 SWAP1 DUP2 MSTORE PUSH1 0xC PUSH1 0x20 MSTORE PUSH1 0x40 DUP2 KECCAK256 DUP3 DUP2 SSTORE PUSH1 0x1 DUP1 DUP3 ADD DUP5 SWAP1 SSTORE PUSH1 0x2 DUP3 ADD DUP1 SLOAD PUSH1 0xFF NOT AND SWAP1 SSTORE PUSH1 0x3 SWAP1 SWAP2 ADD DUP2 SWAP1 SSTORE PUSH1 0x9 DUP1 SLOAD SWAP2 SWAP3 SWAP1 SWAP2 PUSH2 0x345A SWAP1 DUP5 SWAP1 PUSH2 0x5E02 JUMP JUMPDEST SWAP3 POP POP DUP2 SWAP1 SSTORE POP DUP1 PUSH1 0xA PUSH1 0x0 DUP3 DUP3 SLOAD PUSH2 0x3473 SWAP2 SWAP1 PUSH2 0x5E1A JUMP JUMPDEST SWAP1 SWAP2 SSTORE POP POP POP POP JUMP JUMPDEST PUSH1 0x1 PUSH1 0x1 PUSH1 0xA0 SHL SUB DUP4 AND PUSH2 0x34F7 JUMPI PUSH1 0x40 MLOAD PUSH3 0x461BCD PUSH1 0xE5 SHL DUP2 MSTORE PUSH1 0x20 PUSH1 0x4 DUP3 ADD MSTORE PUSH1 0x24 DUP1 DUP3 ADD MSTORE PUSH32 0x45524332303A20617070726F76652066726F6D20746865207A65726F20616464 PUSH1 0x44 DUP3 ADD MSTORE PUSH32 0x7265737300000000000000000000000000000000000000000000000000000000 PUSH1 0x64 DUP3 ADD MSTORE PUSH1 0x84 ADD PUSH2 0xF8A JUMP JUMPDEST PUSH1 0x1 PUSH1 0x1 PUSH1 0xA0 SHL SUB DUP3 AND PUSH2 0x3573 JUMPI PUSH1 0x40 MLOAD PUSH3 0x461BCD PUSH1 0xE5 SHL DUP2 MSTORE PUSH1 0x20 PUSH1 0x4 DUP3 ADD MSTORE PUSH1 0x22 PUSH1 0x24 DUP3 ADD MSTORE PUSH32 0x45524332303A20617070726F766520746F20746865207A65726F206164647265 PUSH1 0x44 DUP3 ADD MSTORE PUSH32 0x7373000000000000000000000000000000000000000000000000000000000000 PUSH1 0x64 DUP3 ADD MSTORE PUSH1 0x84 ADD PUSH2 0xF8A JUMP JUMPDEST PUSH1 0x1 PUSH1 0x1 PUSH1 0xA0 SHL SUB DUP4 DUP2 AND PUSH1 0x0 DUP2 DUP2 MSTORE PUSH1 0x1 PUSH1 0x20 SWAP1 DUP2 MSTORE PUSH1 0x40 DUP1 DUP4 KECCAK256 SWAP5 DUP8 AND DUP1 DUP5 MSTORE SWAP5 DUP3 MSTORE SWAP2 DUP3 SWAP1 KECCAK256 DUP6 SWAP1 SSTORE SWAP1 MLOAD DUP5 DUP2 MSTORE PUSH32 0x8C5BE1E5EBEC7D5BD14F71427D1E84F3DD0314C0F7B2291E5B200AC8C7C3B925 SWAP2 ADD JUMPDEST PUSH1 0x40 MLOAD DUP1 SWAP2 SUB SWAP1 LOG3 POP POP POP JUMP JUMPDEST PUSH2 0x35DD PUSH2 0x5A95 JUMP JUMPDEST PUSH1 0x40 MLOAD DUP1 PUSH2 0x6E0 ADD PUSH1 0x40 MSTORE DUP1 PUSH2 0x35FD PUSH2 0x5573 PUSH8 0xDE0B6B3A7640000 PUSH2 0x566A JUMP JUMPDEST DUP2 MSTORE PUSH1 0x20 ADD PUSH2 0x3616 PUSH2 0x5573 PUSH8 0xDE0B6B3A7640000 PUSH2 0x566A JUMP JUMPDEST DUP2 MSTORE PUSH1 0x20 ADD PUSH2 0x362F PUSH2 0x5573 PUSH8 0xDE0B6B3A7640000 PUSH2 0x566A JUMP JUMPDEST DUP2 MSTORE PUSH1 0x20 ADD PUSH2 0x3648 PUSH2 0x5573 PUSH8 0xDE0B6B3A7640000 PUSH2 0x566A JUMP JUMPDEST DUP2 MSTORE PUSH1 0x20 ADD PUSH2 0x3661 PUSH2 0x5573 PUSH8 0xDE0B6B3A7640000 PUSH2 0x566A JUMP JUMPDEST DUP2 MSTORE PUSH1 0x20 ADD PUSH2 0x367A PUSH2 0x5573 PUSH8 0xDE0B6B3A7640000 PUSH2 0x566A JUMP JUMPDEST DUP2 MSTORE PUSH1 0x20 ADD PUSH2 0x3693 PUSH2 0x5573 PUSH8 0xDE0B6B3A7640000 PUSH2 0x566A JUMP JUMPDEST DUP2 MSTORE PUSH1 0x20 ADD PUSH2 0x36AC PUSH2 0x5573 PUSH8 0xDE0B6B3A7640000 PUSH2 0x566A JUMP JUMPDEST DUP2 MSTORE PUSH1 0x20 ADD PUSH2 0x36C5 PUSH2 0x5573 PUSH8 0xDE0B6B3A7640000 PUSH2 0x566A JUMP JUMPDEST DUP2 MSTORE PUSH1 0x20 ADD PUSH2 0x36DE PUSH2 0x5573 PUSH8 0xDE0B6B3A7640000 PUSH2 0x566A JUMP JUMPDEST DUP2 MSTORE PUSH1 0x20 ADD PUSH2 0x36F7 PUSH2 0x5573 PUSH8 0xDE0B6B3A7640000 PUSH2 0x566A JUMP JUMPDEST DUP2 MSTORE PUSH1 0x20 ADD PUSH2 0x3710 PUSH2 0x5573 PUSH8 0xDE0B6B3A7640000 PUSH2 0x566A JUMP JUMPDEST DUP2 MSTORE PUSH1 0x20 ADD PUSH2 0x3729 PUSH2 0x5573 PUSH8 0xDE0B6B3A7640000 PUSH2 0x566A JUMP JUMPDEST DUP2 MSTORE PUSH1 0x20 ADD PUSH2 0x3742 PUSH2 0x5573 PUSH8 0xDE0B6B3A7640000 PUSH2 0x566A JUMP JUMPDEST DUP2 MSTORE PUSH1 0x20 ADD PUSH2 0x375B PUSH2 0x5573 PUSH8 0xDE0B6B3A7640000 PUSH2 0x566A JUMP JUMPDEST DUP2 MSTORE PUSH1 0x20 ADD PUSH2 0x3774 PUSH2 0x5573 PUSH8 0xDE0B6B3A7640000 PUSH2 0x566A JUMP JUMPDEST DUP2 MSTORE PUSH1 0x20 ADD PUSH2 0x378E PUSH3 0x155CC PUSH8 0xDE0B6B3A7640000 PUSH2 0x566A JUMP JUMPDEST DUP2 MSTORE PUSH1 0x20 ADD PUSH2 0x37A8 PUSH3 0x155CC PUSH8 0xDE0B6B3A7640000 PUSH2 0x566A JUMP JUMPDEST DUP2 MSTORE PUSH1 0x20 ADD PUSH2 0x37C2 PUSH3 0x155CC PUSH8 0xDE0B6B3A7640000 PUSH2 0x566A JUMP JUMPDEST DUP2 MSTORE PUSH1 0x20 ADD PUSH2 0x37DC PUSH3 0x155CC PUSH8 0xDE0B6B3A7640000 PUSH2 0x566A JUMP JUMPDEST DUP2 MSTORE PUSH1 0x20 ADD PUSH2 0x37F6 PUSH3 0x155CC PUSH8 0xDE0B6B3A7640000 PUSH2 0x566A JUMP JUMPDEST DUP2 MSTORE PUSH1 0x20 ADD PUSH2 0x3810 PUSH3 0x155CC PUSH8 0xDE0B6B3A7640000 PUSH2 0x566A JUMP JUMPDEST DUP2 MSTORE PUSH1 0x20 ADD PUSH2 0x382A PUSH3 0x155CC PUSH8 0xDE0B6B3A7640000 PUSH2 0x566A JUMP JUMPDEST DUP2 MSTORE PUSH1 0x20 ADD PUSH2 0x3844 PUSH3 0x155CC PUSH8 0xDE0B6B3A7640000 PUSH2 0x566A JUMP JUMPDEST DUP2 MSTORE PUSH1 0x20 ADD PUSH2 0x385E PUSH3 0x155CC PUSH8 0xDE0B6B3A7640000 PUSH2 0x566A JUMP JUMPDEST DUP2 MSTORE PUSH1 0x20 ADD PUSH2 0x3878 PUSH3 0x155CC PUSH8 0xDE0B6B3A7640000 PUSH2 0x566A JUMP JUMPDEST DUP2 MSTORE PUSH1 0x20 ADD PUSH2 0x3892 PUSH3 0x155CC PUSH8 0xDE0B6B3A7640000 PUSH2 0x566A JUMP JUMPDEST DUP2 MSTORE PUSH1 0x20 ADD PUSH2 0x38AC PUSH3 0x155CC PUSH8 0xDE0B6B3A7640000 PUSH2 0x566A JUMP JUMPDEST DUP2 MSTORE PUSH1 0x20 ADD PUSH2 0x38C6 PUSH3 0x155CC PUSH8 0xDE0B6B3A7640000 PUSH2 0x566A JUMP JUMPDEST DUP2 MSTORE PUSH1 0x20 ADD PUSH2 0x38E0 PUSH3 0x155CC PUSH8 0xDE0B6B3A7640000 PUSH2 0x566A JUMP JUMPDEST DUP2 MSTORE PUSH1 0x20 ADD PUSH2 0x38FA PUSH3 0x155CC PUSH8 0xDE0B6B3A7640000 PUSH2 0x566A JUMP JUMPDEST DUP2 MSTORE PUSH1 0x20 ADD PUSH2 0x3914 PUSH3 0x155CC PUSH8 0xDE0B6B3A7640000 PUSH2 0x566A JUMP JUMPDEST DUP2 MSTORE PUSH1 0x20 ADD PUSH2 0x392E PUSH3 0x155CC PUSH8 0xDE0B6B3A7640000 PUSH2 0x566A JUMP JUMPDEST DUP2 MSTORE PUSH1 0x20 ADD PUSH2 0x3948 PUSH3 0x155CC PUSH8 0xDE0B6B3A7640000 PUSH2 0x566A JUMP JUMPDEST DUP2 MSTORE PUSH1 0x20 ADD PUSH2 0x3962 PUSH3 0x155CC PUSH8 0xDE0B6B3A7640000 PUSH2 0x566A JUMP JUMPDEST DUP2 MSTORE PUSH1 0x20 ADD PUSH2 0x397C PUSH3 0x155CC PUSH8 0xDE0B6B3A7640000 PUSH2 0x566A JUMP JUMPDEST DUP2 MSTORE PUSH1 0x20 ADD PUSH2 0x3996 PUSH3 0x155CC PUSH8 0xDE0B6B3A7640000 PUSH2 0x566A JUMP JUMPDEST DUP2 MSTORE PUSH1 0x20 ADD PUSH2 0x39B0 PUSH3 0x155CC PUSH8 0xDE0B6B3A7640000 PUSH2 0x566A JUMP JUMPDEST DUP2 MSTORE PUSH1 0x20 ADD PUSH2 0x39CA PUSH3 0x155CC PUSH8 0xDE0B6B3A7640000 PUSH2 0x566A JUMP JUMPDEST DUP2 MSTORE PUSH1 0x20 ADD PUSH2 0x39E4 PUSH3 0x155CC PUSH8 0xDE0B6B3A7640000 PUSH2 0x566A JUMP JUMPDEST DUP2 MSTORE PUSH1 0x20 ADD PUSH2 0x39FE PUSH3 0x155CC PUSH8 0xDE0B6B3A7640000 PUSH2 0x566A JUMP JUMPDEST DUP2 MSTORE PUSH1 0x20 ADD PUSH2 0x3A18 PUSH3 0x155CC PUSH8 0xDE0B6B3A7640000 PUSH2 0x566A JUMP JUMPDEST DUP2 MSTORE PUSH1 0x20 ADD PUSH2 0x3A32 PUSH3 0x155CC PUSH8 0xDE0B6B3A7640000 PUSH2 0x566A JUMP JUMPDEST DUP2 MSTORE PUSH1 0x20 ADD PUSH2 0x3A4C PUSH3 0x155CC PUSH8 0xDE0B6B3A7640000 PUSH2 0x566A JUMP JUMPDEST DUP2 MSTORE PUSH1 0x20 ADD PUSH2 0x3A66 PUSH3 0x155CC PUSH8 0xDE0B6B3A7640000 PUSH2 0x566A JUMP JUMPDEST DUP2 MSTORE PUSH1 0x20 ADD PUSH2 0x3A80 PUSH3 0x155CC PUSH8 0xDE0B6B3A7640000 PUSH2 0x566A JUMP JUMPDEST DUP2 MSTORE PUSH1 0x20 ADD PUSH2 0x3A9A PUSH3 0x155CC PUSH8 0xDE0B6B3A7640000 PUSH2 0x566A JUMP JUMPDEST DUP2 MSTORE PUSH1 0x20 ADD PUSH2 0x3AB4 PUSH3 0x155CC PUSH8 0xDE0B6B3A7640000 PUSH2 0x566A JUMP JUMPDEST DUP2 MSTORE PUSH1 0x20 ADD PUSH2 0x3ACE PUSH3 0x155CC PUSH8 0xDE0B6B3A7640000 PUSH2 0x566A JUMP JUMPDEST DUP2 MSTORE PUSH1 0x20 ADD PUSH2 0x3AE8 PUSH3 0x155CC PUSH8 0xDE0B6B3A7640000 PUSH2 0x566A JUMP JUMPDEST DUP2 MSTORE PUSH1 0x20 ADD PUSH2 0x3B02 PUSH3 0x155CC PUSH8 0xDE0B6B3A7640000 PUSH2 0x566A JUMP JUMPDEST DUP2 MSTORE PUSH1 0x20 ADD PUSH1 0x0 DUP2 MSTORE PUSH1 0x20 ADD PUSH1 0x0 DUP2 MSTORE PUSH1 0x20 ADD PUSH1 0x0 DUP2 MSTORE PUSH1 0x20 ADD PUSH1 0x0 DUP2 MSTORE POP SWAP1 POP SWAP1 JUMP JUMPDEST PUSH1 0x1 PUSH1 0x1 PUSH1 0xA0 SHL SUB DUP4 DUP2 AND PUSH1 0x0 SWAP1 DUP2 MSTORE PUSH1 0xE PUSH1 0x20 SWAP1 DUP2 MSTORE PUSH1 0x40 DUP1 DUP4 KECCAK256 SWAP4 DUP7 AND DUP4 MSTORE SWAP3 SWAP1 MSTORE KECCAK256 SLOAD PUSH1 0x0 NOT DUP2 EQ PUSH2 0x3BB2 JUMPI DUP2 DUP2 LT ISZERO PUSH2 0x3BA5 JUMPI PUSH1 0x40 MLOAD PUSH3 0x461BCD PUSH1 0xE5 SHL DUP2 MSTORE PUSH1 0x20 PUSH1 0x4 DUP3 ADD MSTORE PUSH1 0x1D PUSH1 0x24 DUP3 ADD MSTORE PUSH32 0x45524332303A20696E73756666696369656E7420616C6C6F77616E6365000000 PUSH1 0x44 DUP3 ADD MSTORE PUSH1 0x64 ADD PUSH2 0xF8A JUMP JUMPDEST PUSH2 0x3BB2 DUP5 DUP5 DUP5 DUP5 SUB PUSH2 0x347C JUMP JUMPDEST POP POP POP POP JUMP JUMPDEST PUSH1 0x1 PUSH1 0x1 PUSH1 0xA0 SHL SUB DUP4 AND PUSH2 0x3C0E JUMPI PUSH1 0x40 MLOAD PUSH3 0x461BCD PUSH1 0xE5 SHL DUP2 MSTORE PUSH1 0x20 PUSH1 0x4 DUP3 ADD MSTORE PUSH1 0x1A PUSH1 0x24 DUP3 ADD MSTORE PUSH32 0x5472616E736665722066726F6D207A65726F2061646472657373000000000000 PUSH1 0x44 DUP3 ADD MSTORE PUSH1 0x64 ADD PUSH2 0xF8A JUMP JUMPDEST PUSH1 0x1 PUSH1 0x1 PUSH1 0xA0 SHL SUB DUP3 AND PUSH2 0x3C64 JUMPI PUSH1 0x40 MLOAD PUSH3 0x461BCD PUSH1 0xE5 SHL DUP2 MSTORE PUSH1 0x20 PUSH1 0x4 DUP3 ADD MSTORE PUSH1 0x18 PUSH1 0x24 DUP3 ADD MSTORE PUSH32 0x5472616E7366657220746F207A65726F20616464726573730000000000000000 PUSH1 0x44 DUP3 ADD MSTORE PUSH1 0x64 ADD PUSH2 0xF8A JUMP JUMPDEST PUSH1 0x1 PUSH1 0x1 PUSH1 0xA0 SHL SUB DUP4 AND PUSH1 0x0 SWAP1 DUP2 MSTORE PUSH1 0xD PUSH1 0x20 MSTORE PUSH1 0x40 SWAP1 KECCAK256 SLOAD DUP2 DUP2 LT ISZERO PUSH2 0x3CF3 JUMPI PUSH1 0x40 MLOAD PUSH3 0x461BCD PUSH1 0xE5 SHL DUP2 MSTORE PUSH1 0x20 PUSH1 0x4 DUP3 ADD MSTORE PUSH1 0x26 PUSH1 0x24 DUP3 ADD MSTORE PUSH32 0x45524332303A207472616E7366657220616D6F756E7420657863656564732062 PUSH1 0x44 DUP3 ADD MSTORE PUSH32 0x616C616E63650000000000000000000000000000000000000000000000000000 PUSH1 0x64 DUP3 ADD MSTORE PUSH1 0x84 ADD PUSH2 0xF8A JUMP JUMPDEST PUSH1 0x1 PUSH1 0x1 PUSH1 0xA0 SHL SUB DUP5 AND PUSH1 0x0 SWAP1 DUP2 MSTORE PUSH1 0xD PUSH1 0x20 MSTORE PUSH1 0x40 DUP2 KECCAK256 DUP4 DUP4 SUB SWAP1 SSTORE PUSH1 0x16 SLOAD PUSH2 0x3D34 SWAP1 PUSH2 0x3D2D SWAP1 DUP6 SWAP1 PUSH4 0x1000000 SWAP1 DIV PUSH2 0xFFFF AND PUSH2 0x566A JUMP JUMPDEST PUSH1 0x64 PUSH2 0x32DE JUMP JUMPDEST SWAP1 POP PUSH1 0x0 PUSH2 0x3D42 DUP5 DUP4 PUSH2 0x32FD JUMP JUMPDEST SWAP1 POP PUSH1 0x0 PUSH2 0x3D5B PUSH2 0x3D54 DUP4 PUSH1 0x2 PUSH2 0x566A JUMP JUMPDEST PUSH1 0xA PUSH2 0x32DE JUMP JUMPDEST SWAP1 POP PUSH1 0x0 PUSH2 0x3D6D PUSH2 0x3D54 DUP5 PUSH1 0x8 PUSH2 0x566A JUMP JUMPDEST SWAP1 POP PUSH2 0x3D78 DUP3 PUSH2 0xD42 JUMP JUMPDEST ADDRESS PUSH1 0x0 SWAP1 DUP2 MSTORE PUSH1 0xD PUSH1 0x20 MSTORE PUSH1 0x40 SWAP1 KECCAK256 SLOAD PUSH2 0x3D92 SWAP1 DUP3 PUSH2 0x32F1 JUMP JUMPDEST ADDRESS PUSH1 0x0 SWAP1 DUP2 MSTORE PUSH1 0xD PUSH1 0x20 MSTORE PUSH1 0x40 DUP1 DUP3 KECCAK256 SWAP3 SWAP1 SWAP3 SSTORE PUSH1 0x1 PUSH1 0x1 PUSH1 0xA0 SHL SUB DUP10 AND DUP2 MSTORE KECCAK256 SLOAD PUSH2 0x3DBE SWAP1 DUP5 PUSH2 0x32F1 JUMP JUMPDEST PUSH1 0x1 PUSH1 0x1 PUSH1 0xA0 SHL SUB DUP1 DUP10 AND PUSH1 0x0 DUP2 DUP2 MSTORE PUSH1 0xD PUSH1 0x20 MSTORE PUSH1 0x40 SWAP1 DUP2 SWAP1 KECCAK256 SWAP4 SWAP1 SWAP4 SSTORE SWAP2 MLOAD SWAP1 DUP11 AND SWAP1 PUSH32 0xDDF252AD1BE2C89B69C2B068FC378DAA952BA7F163C4A11628F55A4DF523B3EF SWAP1 PUSH2 0x3E12 SWAP1 DUP8 DUP2 MSTORE PUSH1 0x20 ADD SWAP1 JUMP JUMPDEST PUSH1 0x40 MLOAD DUP1 SWAP2 SUB SWAP1 LOG3 POP POP POP POP POP POP POP POP JUMP JUMPDEST PUSH1 0x1 PUSH1 0x1 PUSH1 0xA0 SHL SUB DUP1 DUP4 AND PUSH1 0x0 SWAP1 DUP2 MSTORE PUSH1 0x8 PUSH1 0x20 SWAP1 DUP2 MSTORE PUSH1 0x40 DUP1 DUP4 KECCAK256 DUP2 MLOAD PUSH1 0xE0 DUP2 ADD DUP4 MSTORE DUP2 SLOAD SWAP1 SWAP6 AND DUP6 MSTORE PUSH1 0x1 DUP2 ADD SLOAD SWAP3 DUP6 ADD SWAP3 SWAP1 SWAP3 MSTORE PUSH1 0x2 DUP3 ADD SLOAD SWAP1 DUP5 ADD MSTORE PUSH1 0x3 DUP2 ADD SLOAD PUSH1 0x60 DUP5 ADD MSTORE PUSH1 0x4 DUP2 ADD SLOAD PUSH1 0x80 DUP5 ADD MSTORE PUSH1 0x5 DUP2 ADD SLOAD PUSH1 0xA0 DUP5 ADD MSTORE PUSH1 0x6 DUP2 ADD SLOAD PUSH1 0xC0 DUP5 ADD MSTORE SWAP1 SWAP2 DUP3 SWAP2 SWAP1 DUP3 SWAP1 PUSH2 0x3E9D SWAP1 DUP7 PUSH2 0x55C8 JUMP JUMPDEST SWAP1 POP DUP5 DUP3 PUSH1 0x1 ADD SLOAD EQ ISZERO PUSH2 0x3F4A JUMPI PUSH1 0x1 PUSH1 0x1 PUSH1 0xA0 SHL SUB DUP7 AND PUSH1 0x0 SWAP1 DUP2 MSTORE PUSH1 0x8 PUSH1 0x20 DUP2 SWAP1 MSTORE PUSH1 0x40 DUP3 KECCAK256 DUP1 SLOAD PUSH20 0xFFFFFFFFFFFFFFFFFFFFFFFFFFFFFFFFFFFFFFFF NOT SWAP1 DUP2 AND DUP3 SSTORE PUSH1 0x1 DUP3 ADD DUP5 SWAP1 SSTORE PUSH1 0x2 DUP3 ADD DUP5 SWAP1 SSTORE PUSH1 0x3 DUP3 ADD DUP5 SWAP1 SSTORE PUSH1 0x4 DUP3 ADD DUP5 SWAP1 SSTORE PUSH1 0x5 DUP3 ADD DUP5 SWAP1 SSTORE PUSH1 0x6 DUP1 DUP4 ADD DUP6 SWAP1 SSTORE PUSH1 0x7 DUP4 ADD DUP1 SLOAD SWAP1 SWAP3 AND SWAP1 SWAP2 SSTORE SWAP2 ADD SWAP2 SWAP1 SWAP2 SSTORE DUP3 ADD SLOAD TIMESTAMP LT ISZERO PUSH2 0x3F3E JUMPI PUSH2 0x3F33 DUP6 DUP3 PUSH2 0x5676 JUMP JUMPDEST SWAP4 POP SWAP4 POP POP POP PUSH2 0x3F74 JUMP JUMPDEST DUP5 SWAP4 POP SWAP2 POP PUSH2 0x3F74 SWAP1 POP JUMP JUMPDEST PUSH1 0x1 DUP3 ADD SLOAD PUSH2 0x3F59 SWAP1 DUP7 PUSH2 0x32FD JUMP JUMPDEST PUSH1 0x1 DUP4 ADD SSTORE PUSH1 0x6 DUP3 ADD SLOAD TIMESTAMP LT ISZERO PUSH2 0x3F3E JUMPI PUSH2 0x3F33 DUP6 DUP3 PUSH2 0x5676 JUMP JUMPDEST SWAP3 POP SWAP3 SWAP1 POP JUMP JUMPDEST PUSH2 0x3F83 PUSH2 0x5A95 JUMP JUMPDEST PUSH1 0x40 MLOAD DUP1 PUSH2 0x6E0 ADD PUSH1 0x40 MSTORE DUP1 PUSH2 0x3FA4 PUSH3 0x19A28 PUSH8 0xDE0B6B3A7640000 PUSH2 0x566A JUMP JUMPDEST DUP2 MSTORE PUSH1 0x20 ADD PUSH1 0x0 DUP2 MSTORE PUSH1 0x20 ADD PUSH1 0x0 DUP2 MSTORE PUSH1 0x20 ADD PUSH1 0x0 DUP2 MSTORE PUSH1 0x20 ADD PUSH2 0x3FD3 PUSH3 0x4CE78 PUSH8 0xDE0B6B3A7640000 PUSH2 0x566A JUMP JUMPDEST DUP2 MSTORE PUSH1 0x20 ADD PUSH1 0x0 DUP2 MSTORE PUSH1 0x20 ADD PUSH1 0x0 DUP2 MSTORE PUSH1 0x20 ADD PUSH1 0x0 DUP2 MSTORE PUSH1 0x20 ADD PUSH2 0x4002 PUSH3 0x4CE78 PUSH8 0xDE0B6B3A7640000 PUSH2 0x566A JUMP JUMPDEST DUP2 MSTORE PUSH1 0x20 ADD PUSH1 0x0 DUP2 MSTORE PUSH1 0x20 ADD PUSH1 0x0 DUP2 MSTORE PUSH1 0x20 ADD PUSH1 0x0 DUP2 MSTORE PUSH1 0x20 ADD PUSH2 0x4031 PUSH3 0x4CE78 PUSH8 0xDE0B6B3A7640000 PUSH2 0x566A JUMP JUMPDEST DUP2 MSTORE PUSH1 0x20 ADD PUSH1 0x0 DUP2 MSTORE PUSH1 0x20 ADD PUSH1 0x0 DUP2 MSTORE PUSH1 0x20 ADD PUSH1 0x0 DUP2 MSTORE PUSH1 0x20 ADD PUSH2 0x4060 PUSH3 0x40164 PUSH8 0xDE0B6B3A7640000 PUSH2 0x566A JUMP JUMPDEST DUP2 MSTORE PUSH1 0x20 ADD PUSH2 0x407A PUSH3 0x40164 PUSH8 0xDE0B6B3A7640000 PUSH2 0x566A JUMP JUMPDEST DUP2 MSTORE PUSH1 0x20 ADD PUSH2 0x4094 PUSH3 0x40164 PUSH8 0xDE0B6B3A7640000 PUSH2 0x566A JUMP JUMPDEST DUP2 MSTORE PUSH1 0x20 ADD PUSH2 0x40AE PUSH3 0x40164 PUSH8 0xDE0B6B3A7640000 PUSH2 0x566A JUMP JUMPDEST DUP2 MSTORE PUSH1 0x20 ADD PUSH2 0x40C8 PUSH3 0x40164 PUSH8 0xDE0B6B3A7640000 PUSH2 0x566A JUMP JUMPDEST DUP2 MSTORE PUSH1 0x20 ADD PUSH2 0x40E2 PUSH3 0x40164 PUSH8 0xDE0B6B3A7640000 PUSH2 0x566A JUMP JUMPDEST DUP2 MSTORE PUSH1 0x20 ADD PUSH2 0x40FC PUSH3 0x40164 PUSH8 0xDE0B6B3A7640000 PUSH2 0x566A JUMP JUMPDEST DUP2 MSTORE PUSH1 0x20 ADD PUSH2 0x4116 PUSH3 0x40164 PUSH8 0xDE0B6B3A7640000 PUSH2 0x566A JUMP JUMPDEST DUP2 MSTORE PUSH1 0x20 ADD PUSH2 0x4130 PUSH3 0x40164 PUSH8 0xDE0B6B3A7640000 PUSH2 0x566A JUMP JUMPDEST DUP2 MSTORE PUSH1 0x20 ADD PUSH2 0x414A PUSH3 0x40164 PUSH8 0xDE0B6B3A7640000 PUSH2 0x566A JUMP JUMPDEST DUP2 MSTORE PUSH1 0x20 ADD PUSH2 0x4164 PUSH3 0x40164 PUSH8 0xDE0B6B3A7640000 PUSH2 0x566A JUMP JUMPDEST DUP2 MSTORE PUSH1 0x20 ADD PUSH2 0x417E PUSH3 0x40164 PUSH8 0xDE0B6B3A7640000 PUSH2 0x566A JUMP JUMPDEST DUP2 MSTORE PUSH1 0x20 ADD PUSH2 0x4198 PUSH3 0x40164 PUSH8 0xDE0B6B3A7640000 PUSH2 0x566A JUMP JUMPDEST DUP2 MSTORE PUSH1 0x20 ADD PUSH2 0x41B2 PUSH3 0x40164 PUSH8 0xDE0B6B3A7640000 PUSH2 0x566A JUMP JUMPDEST DUP2 MSTORE PUSH1 0x20 ADD PUSH2 0x41CC PUSH3 0x40164 PUSH8 0xDE0B6B3A7640000 PUSH2 0x566A JUMP JUMPDEST DUP2 MSTORE PUSH1 0x20 ADD PUSH2 0x41E6 PUSH3 0x40164 PUSH8 0xDE0B6B3A7640000 PUSH2 0x566A JUMP JUMPDEST DUP2 MSTORE PUSH1 0x20 ADD PUSH2 0x4200 PUSH3 0x40164 PUSH8 0xDE0B6B3A7640000 PUSH2 0x566A JUMP JUMPDEST DUP2 MSTORE PUSH1 0x20 ADD PUSH2 0x421A PUSH3 0x40164 PUSH8 0xDE0B6B3A7640000 PUSH2 0x566A JUMP JUMPDEST DUP2 MSTORE PUSH1 0x20 ADD PUSH2 0x4234 PUSH3 0x40164 PUSH8 0xDE0B6B3A7640000 PUSH2 0x566A JUMP JUMPDEST DUP2 MSTORE PUSH1 0x20 ADD PUSH2 0x424E PUSH3 0x40164 PUSH8 0xDE0B6B3A7640000 PUSH2 0x566A JUMP JUMPDEST DUP2 MSTORE PUSH1 0x20 ADD PUSH2 0x4268 PUSH3 0x40164 PUSH8 0xDE0B6B3A7640000 PUSH2 0x566A JUMP JUMPDEST DUP2 MSTORE PUSH1 0x20 ADD PUSH2 0x4282 PUSH3 0x40164 PUSH8 0xDE0B6B3A7640000 PUSH2 0x566A JUMP JUMPDEST DUP2 MSTORE PUSH1 0x20 ADD PUSH2 0x429C PUSH3 0x40164 PUSH8 0xDE0B6B3A7640000 PUSH2 0x566A JUMP JUMPDEST DUP2 MSTORE PUSH1 0x20 ADD PUSH2 0x42B6 PUSH3 0x40164 PUSH8 0xDE0B6B3A7640000 PUSH2 0x566A JUMP JUMPDEST DUP2 MSTORE PUSH1 0x20 ADD PUSH2 0x42D0 PUSH3 0x40164 PUSH8 0xDE0B6B3A7640000 PUSH2 0x566A JUMP JUMPDEST DUP2 MSTORE PUSH1 0x20 ADD PUSH2 0x42EA PUSH3 0x40164 PUSH8 0xDE0B6B3A7640000 PUSH2 0x566A JUMP JUMPDEST DUP2 MSTORE PUSH1 0x20 ADD PUSH2 0x4304 PUSH3 0x40164 PUSH8 0xDE0B6B3A7640000 PUSH2 0x566A JUMP JUMPDEST DUP2 MSTORE PUSH1 0x20 ADD PUSH2 0x431E PUSH3 0x40164 PUSH8 0xDE0B6B3A7640000 PUSH2 0x566A JUMP JUMPDEST DUP2 MSTORE PUSH1 0x20 ADD PUSH2 0x4338 PUSH3 0x40164 PUSH8 0xDE0B6B3A7640000 PUSH2 0x566A JUMP JUMPDEST DUP2 MSTORE PUSH1 0x20 ADD PUSH2 0x4352 PUSH3 0x40164 PUSH8 0xDE0B6B3A7640000 PUSH2 0x566A JUMP JUMPDEST DUP2 MSTORE PUSH1 0x20 ADD PUSH2 0x436C PUSH3 0x40164 PUSH8 0xDE0B6B3A7640000 PUSH2 0x566A JUMP JUMPDEST DUP2 MSTORE PUSH1 0x20 ADD PUSH2 0x4386 PUSH3 0x40164 PUSH8 0xDE0B6B3A7640000 PUSH2 0x566A JUMP JUMPDEST DUP2 MSTORE PUSH1 0x20 ADD PUSH2 0x43A0 PUSH3 0x40164 PUSH8 0xDE0B6B3A7640000 PUSH2 0x566A JUMP JUMPDEST DUP2 MSTORE PUSH1 0x20 ADD PUSH2 0x43BA PUSH3 0x40164 PUSH8 0xDE0B6B3A7640000 PUSH2 0x566A JUMP JUMPDEST DUP2 MSTORE PUSH1 0x20 ADD PUSH2 0x3B02 PUSH3 0x40164 PUSH8 0xDE0B6B3A7640000 PUSH2 0x566A JUMP JUMPDEST PUSH1 0x1 PUSH1 0x1 PUSH1 0xA0 SHL SUB DUP3 AND PUSH2 0x442A JUMPI PUSH1 0x40 MLOAD PUSH3 0x461BCD PUSH1 0xE5 SHL DUP2 MSTORE PUSH1 0x20 PUSH1 0x4 DUP3 ADD MSTORE PUSH1 0x1F PUSH1 0x24 DUP3 ADD MSTORE PUSH32 0x45524332303A206D696E7420746F20746865207A65726F206164647265737300 PUSH1 0x44 DUP3 ADD MSTORE PUSH1 0x64 ADD PUSH2 0xF8A JUMP JUMPDEST DUP1 PUSH1 0x2 PUSH1 0x0 DUP3 DUP3 SLOAD PUSH2 0x443C SWAP2 SWAP1 PUSH2 0x5E02 JUMP JUMPDEST SWAP1 SWAP2 SSTORE POP POP PUSH1 0x1 PUSH1 0x1 PUSH1 0xA0 SHL SUB DUP3 AND PUSH1 0x0 SWAP1 DUP2 MSTORE PUSH1 0x20 DUP2 SWAP1 MSTORE PUSH1 0x40 DUP2 KECCAK256 DUP1 SLOAD DUP4 SWAP3 SWAP1 PUSH2 0x4469 SWAP1 DUP5 SWAP1 PUSH2 0x5E02 JUMP JUMPDEST SWAP1 SWAP2 SSTORE POP POP PUSH1 0x40 MLOAD DUP2 DUP2 MSTORE PUSH1 0x1 PUSH1 0x1 PUSH1 0xA0 SHL SUB DUP4 AND SWAP1 PUSH1 0x0 SWAP1 PUSH32 0xDDF252AD1BE2C89B69C2B068FC378DAA952BA7F163C4A11628F55A4DF523B3EF SWAP1 PUSH1 0x20 ADD PUSH1 0x40 MLOAD DUP1 SWAP2 SUB SWAP1 LOG3 POP POP JUMP JUMPDEST PUSH1 0x1 PUSH1 0x1 PUSH1 0xA0 SHL SUB DUP3 AND PUSH2 0x452F JUMPI PUSH1 0x40 MLOAD PUSH3 0x461BCD PUSH1 0xE5 SHL DUP2 MSTORE PUSH1 0x20 PUSH1 0x4 DUP3 ADD MSTORE PUSH1 0x21 PUSH1 0x24 DUP3 ADD MSTORE PUSH32 0x45524332303A206275726E2066726F6D20746865207A65726F20616464726573 PUSH1 0x44 DUP3 ADD MSTORE PUSH32 0x7300000000000000000000000000000000000000000000000000000000000000 PUSH1 0x64 DUP3 ADD MSTORE PUSH1 0x84 ADD PUSH2 0xF8A JUMP JUMPDEST PUSH1 0x1 PUSH1 0x1 PUSH1 0xA0 SHL SUB DUP3 AND PUSH1 0x0 SWAP1 DUP2 MSTORE PUSH1 0xD PUSH1 0x20 MSTORE PUSH1 0x40 SWAP1 KECCAK256 SLOAD DUP2 DUP2 LT ISZERO PUSH2 0x45BE JUMPI PUSH1 0x40 MLOAD PUSH3 0x461BCD PUSH1 0xE5 SHL DUP2 MSTORE PUSH1 0x20 PUSH1 0x4 DUP3 ADD MSTORE PUSH1 0x22 PUSH1 0x24 DUP3 ADD MSTORE PUSH32 0x45524332303A206275726E20616D6F756E7420657863656564732062616C616E PUSH1 0x44 DUP3 ADD MSTORE PUSH32 0x6365000000000000000000000000000000000000000000000000000000000000 PUSH1 0x64 DUP3 ADD MSTORE PUSH1 0x84 ADD PUSH2 0xF8A JUMP JUMPDEST PUSH1 0x1 PUSH1 0x1 PUSH1 0xA0 SHL SUB DUP4 AND PUSH1 0x0 SWAP1 DUP2 MSTORE PUSH1 0xD PUSH1 0x20 MSTORE PUSH1 0x40 DUP2 KECCAK256 DUP4 DUP4 SUB SWAP1 SSTORE PUSH1 0xF DUP1 SLOAD DUP5 SWAP3 SWAP1 PUSH2 0x45ED SWAP1 DUP5 SWAP1 PUSH2 0x5E1A JUMP JUMPDEST SWAP1 SWAP2 SSTORE POP POP PUSH1 0x40 MLOAD DUP3 DUP2 MSTORE PUSH1 0x0 SWAP1 PUSH1 0x1 PUSH1 0x1 PUSH1 0xA0 SHL SUB DUP6 AND SWAP1 PUSH32 0xDDF252AD1BE2C89B69C2B068FC378DAA952BA7F163C4A11628F55A4DF523B3EF SWAP1 PUSH1 0x20 ADD PUSH2 0x35C8 JUMP JUMPDEST PUSH1 0x1 PUSH1 0x1 PUSH1 0xA0 SHL SUB DUP2 AND PUSH1 0x0 SWAP1 DUP2 MSTORE PUSH1 0x8 PUSH1 0x20 DUP2 SWAP1 MSTORE PUSH1 0x40 DUP3 KECCAK256 SWAP1 DUP2 ADD SLOAD DUP3 SWAP1 PUSH2 0x4669 SWAP1 PUSH3 0x93A80 SWAP1 PUSH2 0x4663 SWAP1 TIMESTAMP PUSH2 0x5E1A JUMP JUMPDEST SWAP1 PUSH2 0x32DE JUMP JUMPDEST SWAP1 POP PUSH1 0x1 DUP2 LT ISZERO PUSH2 0x46BC JUMPI PUSH1 0x40 MLOAD PUSH3 0x461BCD PUSH1 0xE5 SHL DUP2 MSTORE PUSH1 0x20 PUSH1 0x4 DUP3 ADD MSTORE PUSH1 0x16 PUSH1 0x24 DUP3 ADD MSTORE PUSH32 0x436C61696D61626C65206F6E63652061206D6F6E746800000000000000000000 PUSH1 0x44 DUP3 ADD MSTORE PUSH1 0x64 ADD PUSH2 0xF8A JUMP JUMPDEST PUSH1 0x1 DUP3 ADD SLOAD PUSH2 0x470D JUMPI PUSH1 0x40 MLOAD PUSH3 0x461BCD PUSH1 0xE5 SHL DUP2 MSTORE PUSH1 0x20 PUSH1 0x4 DUP3 ADD MSTORE PUSH1 0xE PUSH1 0x24 DUP3 ADD MSTORE PUSH32 0x4E6F207374616B6520666F756E64000000000000000000000000000000000000 PUSH1 0x44 DUP3 ADD MSTORE PUSH1 0x64 ADD PUSH2 0xF8A JUMP JUMPDEST PUSH1 0x0 PUSH2 0x471F DUP4 PUSH1 0x0 ADD PUSH1 0x1 ADD SLOAD PUSH2 0x5657 JUMP JUMPDEST TIMESTAMP PUSH1 0x8 SWAP1 SWAP5 ADD SWAP4 SWAP1 SWAP4 SSTORE POP SWAP1 SWAP4 SWAP3 POP POP POP JUMP JUMPDEST PUSH1 0x5 DUP1 SLOAD PUSH1 0x1 PUSH1 0x1 PUSH1 0xA0 SHL SUB DUP4 DUP2 AND PUSH20 0xFFFFFFFFFFFFFFFFFFFFFFFFFFFFFFFFFFFFFFFF NOT DUP4 AND DUP2 OR SWAP1 SWAP4 SSTORE PUSH1 0x40 MLOAD SWAP2 AND SWAP2 SWAP1 DUP3 SWAP1 PUSH32 0x8BE0079C531659141344CD1FD0A4F28419497F9722A3DAAFE3B4186F6B6457E0 SWAP1 PUSH1 0x0 SWAP1 LOG3 POP POP JUMP JUMPDEST PUSH1 0x0 DUP4 GT PUSH2 0x47E1 JUMPI PUSH1 0x40 MLOAD PUSH3 0x461BCD PUSH1 0xE5 SHL DUP2 MSTORE PUSH1 0x20 PUSH1 0x4 DUP3 ADD MSTORE PUSH1 0x14 PUSH1 0x24 DUP3 ADD MSTORE PUSH32 0x43616E6E6F74207374616B65206E6F7468696E67000000000000000000000000 PUSH1 0x44 DUP3 ADD MSTORE PUSH1 0x64 ADD PUSH2 0xF8A JUMP JUMPDEST PUSH1 0x1 PUSH1 0x1 PUSH1 0xA0 SHL SUB DUP5 AND PUSH1 0x0 SWAP1 DUP2 MSTORE PUSH1 0x8 PUSH1 0x20 MSTORE PUSH1 0x40 SWAP1 KECCAK256 PUSH1 0x1 ADD SLOAD ISZERO PUSH2 0x484A JUMPI PUSH1 0x40 MLOAD PUSH3 0x461BCD PUSH1 0xE5 SHL DUP2 MSTORE PUSH1 0x20 PUSH1 0x4 DUP3 ADD MSTORE PUSH1 0x10 PUSH1 0x24 DUP3 ADD MSTORE PUSH32 0x557365722069732061207374616B657200000000000000000000000000000000 PUSH1 0x44 DUP3 ADD MSTORE PUSH1 0x64 ADD PUSH2 0xF8A JUMP JUMPDEST PUSH1 0x0 TIMESTAMP SWAP1 POP PUSH1 0x40 MLOAD DUP1 PUSH1 0xE0 ADD PUSH1 0x40 MSTORE DUP1 DUP7 PUSH1 0x1 PUSH1 0x1 PUSH1 0xA0 SHL SUB AND DUP2 MSTORE PUSH1 0x20 ADD DUP6 DUP2 MSTORE PUSH1 0x20 ADD DUP3 DUP2 MSTORE PUSH1 0x20 ADD PUSH1 0x0 DUP2 MSTORE PUSH1 0x20 ADD PUSH1 0x0 DUP2 MSTORE PUSH1 0x20 ADD DUP4 DUP2 MSTORE PUSH1 0x20 ADD DUP3 DUP6 PUSH2 0x4895 SWAP2 SWAP1 PUSH2 0x5E02 JUMP JUMPDEST SWAP1 MSTORE PUSH1 0x1 PUSH1 0x1 PUSH1 0xA0 SHL SUB DUP7 DUP2 AND PUSH1 0x0 DUP2 DUP2 MSTORE PUSH1 0x8 PUSH1 0x20 SWAP1 DUP2 MSTORE PUSH1 0x40 SWAP2 DUP3 SWAP1 KECCAK256 DUP6 MLOAD DUP2 SLOAD PUSH20 0xFFFFFFFFFFFFFFFFFFFFFFFFFFFFFFFFFFFFFFFF NOT AND SWAP6 AND SWAP5 SWAP1 SWAP5 OR DUP5 SSTORE DUP5 ADD MLOAD PUSH1 0x1 DUP5 ADD SSTORE DUP4 ADD MLOAD PUSH1 0x2 DUP4 ADD SSTORE PUSH1 0x60 DUP4 ADD MLOAD PUSH1 0x3 DUP4 ADD SSTORE PUSH1 0x80 DUP4 ADD MLOAD PUSH1 0x4 DUP4 ADD SSTORE PUSH1 0xA0 DUP4 ADD MLOAD PUSH1 0x5 DUP4 ADD SSTORE PUSH1 0xC0 SWAP1 SWAP3 ADD MLOAD PUSH1 0x6 SWAP1 SWAP2 ADD SSTORE PUSH32 0xB4CAAF29ADDA3EEFEE3AD552A8E85058589BF834C7466CAE4EE58787F70589ED DUP6 DUP4 PUSH2 0x493E DUP2 DUP9 PUSH2 0x5E02 JUMP JUMPDEST PUSH1 0x40 DUP1 MLOAD SWAP4 DUP5 MSTORE PUSH1 0x20 DUP5 ADD SWAP3 SWAP1 SWAP3 MSTORE SWAP1 DUP3 ADD MSTORE PUSH1 0x60 ADD PUSH1 0x40 MLOAD DUP1 SWAP2 SUB SWAP1 LOG2 POP POP POP POP POP JUMP JUMPDEST PUSH1 0x1 PUSH1 0x1 PUSH1 0xA0 SHL SUB DUP2 AND PUSH1 0x0 SWAP1 DUP2 MSTORE PUSH1 0xC PUSH1 0x20 MSTORE PUSH1 0x40 DUP2 KECCAK256 PUSH1 0x1 ADD SLOAD PUSH2 0x49CB JUMPI PUSH1 0x40 MLOAD PUSH3 0x461BCD PUSH1 0xE5 SHL DUP2 MSTORE PUSH1 0x20 PUSH1 0x4 DUP3 ADD MSTORE PUSH1 0x1B PUSH1 0x24 DUP3 ADD MSTORE PUSH32 0x5072697661746553616C653A206E6F20746F6B656E73206C6566740000000000 PUSH1 0x44 DUP3 ADD MSTORE PUSH1 0x64 ADD PUSH2 0xF8A JUMP JUMPDEST PUSH1 0x0 PUSH2 0x49D6 DUP4 PUSH2 0x56BB JUMP JUMPDEST SWAP1 POP PUSH1 0x0 DUP2 GT PUSH2 0x4A4E JUMPI PUSH1 0x40 MLOAD PUSH3 0x461BCD PUSH1 0xE5 SHL DUP2 MSTORE PUSH1 0x20 PUSH1 0x4 DUP3 ADD MSTORE PUSH1 0x21 PUSH1 0x24 DUP3 ADD MSTORE PUSH32 0x5072697661746553616C653A206E6F20746F6B656E7320746F2072656C656173 PUSH1 0x44 DUP3 ADD MSTORE PUSH32 0x6500000000000000000000000000000000000000000000000000000000000000 PUSH1 0x64 DUP3 ADD MSTORE PUSH1 0x84 ADD PUSH2 0xF8A JUMP JUMPDEST PUSH2 0x4A99 PUSH1 0xC PUSH1 0x0 DUP6 PUSH1 0x1 PUSH1 0x1 PUSH1 0xA0 SHL SUB AND PUSH1 0x1 PUSH1 0x1 PUSH1 0xA0 SHL SUB AND DUP2 MSTORE PUSH1 0x20 ADD SWAP1 DUP2 MSTORE PUSH1 0x20 ADD PUSH1 0x0 KECCAK256 PUSH1 0x1 ADD SLOAD DUP3 PUSH1 0x40 MLOAD DUP1 PUSH1 0x60 ADD PUSH1 0x40 MSTORE DUP1 PUSH1 0x39 DUP2 MSTORE PUSH1 0x20 ADD PUSH2 0x5EA9 PUSH1 0x39 SWAP2 CODECOPY PUSH2 0x32B2 JUMP JUMPDEST PUSH1 0x1 PUSH1 0x1 PUSH1 0xA0 SHL SUB SWAP1 SWAP4 AND PUSH1 0x0 SWAP1 DUP2 MSTORE PUSH1 0xC PUSH1 0x20 MSTORE PUSH1 0x40 SWAP1 KECCAK256 PUSH1 0x1 ADD SWAP3 SWAP1 SWAP3 SSTORE POP SWAP1 JUMP JUMPDEST PUSH2 0x4AC5 PUSH2 0x5A95 JUMP JUMPDEST PUSH1 0x40 MLOAD DUP1 PUSH2 0x6E0 ADD PUSH1 0x40 MSTORE DUP1 PUSH1 0x0 DUP2 MSTORE PUSH1 0x20 ADD PUSH1 0x0 DUP2 MSTORE PUSH1 0x20 ADD PUSH1 0x0 DUP2 MSTORE PUSH1 0x20 ADD PUSH1 0x0 DUP2 MSTORE PUSH1 0x20 ADD PUSH1 0x0 DUP2 MSTORE PUSH1 0x20 ADD PUSH1 0x0 DUP2 MSTORE PUSH1 0x20 ADD PUSH1 0x0 DUP2 MSTORE PUSH1 0x20 ADD PUSH1 0x0 DUP2 MSTORE PUSH1 0x20 ADD PUSH2 0x4B1E PUSH3 0x25A3F PUSH8 0xDE0B6B3A7640000 PUSH2 0x566A JUMP JUMPDEST DUP2 MSTORE PUSH1 0x20 ADD PUSH2 0x4B38 PUSH3 0x25A3F PUSH8 0xDE0B6B3A7640000 PUSH2 0x566A JUMP JUMPDEST DUP2 MSTORE PUSH1 0x20 ADD PUSH2 0x4B52 PUSH3 0x25A3F PUSH8 0xDE0B6B3A7640000 PUSH2 0x566A JUMP JUMPDEST DUP2 MSTORE PUSH1 0x20 ADD PUSH2 0x4B6C PUSH3 0x25A3F PUSH8 0xDE0B6B3A7640000 PUSH2 0x566A JUMP JUMPDEST DUP2 MSTORE PUSH1 0x20 ADD PUSH2 0x4B86 PUSH3 0x25A3F PUSH8 0xDE0B6B3A7640000 PUSH2 0x566A JUMP JUMPDEST DUP2 MSTORE PUSH1 0x20 ADD PUSH2 0x4BA0 PUSH3 0x25A3F PUSH8 0xDE0B6B3A7640000 PUSH2 0x566A JUMP JUMPDEST DUP2 MSTORE PUSH1 0x20 ADD PUSH2 0x4BBA PUSH3 0x25A3F PUSH8 0xDE0B6B3A7640000 PUSH2 0x566A JUMP JUMPDEST DUP2 MSTORE PUSH1 0x20 ADD PUSH2 0x4BD4 PUSH3 0x25A3F PUSH8 0xDE0B6B3A7640000 PUSH2 0x566A JUMP JUMPDEST DUP2 MSTORE PUSH1 0x20 ADD PUSH2 0x4BEE PUSH3 0x9EED1 PUSH8 0xDE0B6B3A7640000 PUSH2 0x566A JUMP JUMPDEST DUP2 MSTORE PUSH1 0x20 ADD PUSH2 0x4C08 PUSH3 0x9EED1 PUSH8 0xDE0B6B3A7640000 PUSH2 0x566A JUMP JUMPDEST DUP2 MSTORE PUSH1 0x20 ADD PUSH2 0x4C22 PUSH3 0x9EED1 PUSH8 0xDE0B6B3A7640000 PUSH2 0x566A JUMP JUMPDEST DUP2 MSTORE PUSH1 0x20 ADD PUSH2 0x4C3C PUSH3 0x9EED1 PUSH8 0xDE0B6B3A7640000 PUSH2 0x566A JUMP JUMPDEST DUP2 MSTORE PUSH1 0x20 ADD PUSH2 0x4C56 PUSH3 0x9EED1 PUSH8 0xDE0B6B3A7640000 PUSH2 0x566A JUMP JUMPDEST DUP2 MSTORE PUSH1 0x20 ADD PUSH2 0x4C70 PUSH3 0x9EED1 PUSH8 0xDE0B6B3A7640000 PUSH2 0x566A JUMP JUMPDEST DUP2 MSTORE PUSH1 0x20 ADD PUSH2 0x4C8A PUSH3 0x9EED1 PUSH8 0xDE0B6B3A7640000 PUSH2 0x566A JUMP JUMPDEST DUP2 MSTORE PUSH1 0x20 ADD PUSH2 0x4CA4 PUSH3 0x9EED1 PUSH8 0xDE0B6B3A7640000 PUSH2 0x566A JUMP JUMPDEST DUP2 MSTORE PUSH1 0x20 ADD PUSH2 0x4CBE PUSH3 0x9EED1 PUSH8 0xDE0B6B3A7640000 PUSH2 0x566A JUMP JUMPDEST DUP2 MSTORE PUSH1 0x20 ADD PUSH2 0x4CD8 PUSH3 0x9EED1 PUSH8 0xDE0B6B3A7640000 PUSH2 0x566A JUMP JUMPDEST DUP2 MSTORE PUSH1 0x20 ADD PUSH2 0x4CF2 PUSH3 0x9EED1 PUSH8 0xDE0B6B3A7640000 PUSH2 0x566A JUMP JUMPDEST DUP2 MSTORE PUSH1 0x20 ADD PUSH2 0x4D0C PUSH3 0x9EED1 PUSH8 0xDE0B6B3A7640000 PUSH2 0x566A JUMP JUMPDEST DUP2 MSTORE PUSH1 0x20 ADD PUSH2 0x4D26 PUSH3 0x9EED1 PUSH8 0xDE0B6B3A7640000 PUSH2 0x566A JUMP JUMPDEST DUP2 MSTORE PUSH1 0x20 ADD PUSH2 0x4D40 PUSH3 0x9EED1 PUSH8 0xDE0B6B3A7640000 PUSH2 0x566A JUMP JUMPDEST DUP2 MSTORE PUSH1 0x20 ADD PUSH2 0x4D5A PUSH3 0x9EED1 PUSH8 0xDE0B6B3A7640000 PUSH2 0x566A JUMP JUMPDEST DUP2 MSTORE PUSH1 0x20 ADD PUSH2 0x4D74 PUSH3 0x9EED1 PUSH8 0xDE0B6B3A7640000 PUSH2 0x566A JUMP JUMPDEST DUP2 MSTORE PUSH1 0x20 ADD PUSH2 0x4D8E PUSH3 0x9EED1 PUSH8 0xDE0B6B3A7640000 PUSH2 0x566A JUMP JUMPDEST DUP2 MSTORE PUSH1 0x20 ADD PUSH2 0x4DA8 PUSH3 0x9EED1 PUSH8 0xDE0B6B3A7640000 PUSH2 0x566A JUMP JUMPDEST DUP2 MSTORE PUSH1 0x20 ADD PUSH2 0x4DC2 PUSH3 0x9EED1 PUSH8 0xDE0B6B3A7640000 PUSH2 0x566A JUMP JUMPDEST DUP2 MSTORE PUSH1 0x20 ADD PUSH2 0x4DDC PUSH3 0x9EED1 PUSH8 0xDE0B6B3A7640000 PUSH2 0x566A JUMP JUMPDEST DUP2 MSTORE PUSH1 0x20 ADD PUSH2 0x4DF6 PUSH3 0x9EED1 PUSH8 0xDE0B6B3A7640000 PUSH2 0x566A JUMP JUMPDEST DUP2 MSTORE PUSH1 0x20 ADD PUSH2 0x4E10 PUSH3 0x9EED1 PUSH8 0xDE0B6B3A7640000 PUSH2 0x566A JUMP JUMPDEST DUP2 MSTORE PUSH1 0x20 ADD PUSH2 0x4E2A PUSH3 0x9EED1 PUSH8 0xDE0B6B3A7640000 PUSH2 0x566A JUMP JUMPDEST DUP2 MSTORE PUSH1 0x20 ADD PUSH2 0x4E44 PUSH3 0x9EED1 PUSH8 0xDE0B6B3A7640000 PUSH2 0x566A JUMP JUMPDEST DUP2 MSTORE PUSH1 0x20 ADD PUSH2 0x4E5E PUSH3 0x9EED1 PUSH8 0xDE0B6B3A7640000 PUSH2 0x566A JUMP JUMPDEST DUP2 MSTORE PUSH1 0x20 ADD PUSH2 0x4E78 PUSH3 0x9EED1 PUSH8 0xDE0B6B3A7640000 PUSH2 0x566A JUMP JUMPDEST DUP2 MSTORE PUSH1 0x20 ADD PUSH2 0x4E92 PUSH3 0x9EED1 PUSH8 0xDE0B6B3A7640000 PUSH2 0x566A JUMP JUMPDEST DUP2 MSTORE PUSH1 0x20 ADD PUSH2 0x4EAC PUSH3 0x9EED1 PUSH8 0xDE0B6B3A7640000 PUSH2 0x566A JUMP JUMPDEST DUP2 MSTORE PUSH1 0x20 ADD PUSH2 0x4EC6 PUSH3 0x9EED1 PUSH8 0xDE0B6B3A7640000 PUSH2 0x566A JUMP JUMPDEST DUP2 MSTORE PUSH1 0x20 ADD PUSH2 0x4EE0 PUSH3 0x9EED1 PUSH8 0xDE0B6B3A7640000 PUSH2 0x566A JUMP JUMPDEST DUP2 MSTORE PUSH1 0x20 ADD PUSH2 0x4EFA PUSH3 0x9EED1 PUSH8 0xDE0B6B3A7640000 PUSH2 0x566A JUMP JUMPDEST DUP2 MSTORE PUSH1 0x20 ADD PUSH2 0x4F14 PUSH3 0x9EED1 PUSH8 0xDE0B6B3A7640000 PUSH2 0x566A JUMP JUMPDEST DUP2 MSTORE PUSH1 0x20 ADD PUSH2 0x4F2E PUSH3 0x9EED1 PUSH8 0xDE0B6B3A7640000 PUSH2 0x566A JUMP JUMPDEST DUP2 MSTORE PUSH1 0x20 ADD PUSH2 0x4F48 PUSH3 0x9EED1 PUSH8 0xDE0B6B3A7640000 PUSH2 0x566A JUMP JUMPDEST DUP2 MSTORE PUSH1 0x20 ADD PUSH2 0x3B02 PUSH3 0x9EED1 PUSH8 0xDE0B6B3A7640000 PUSH2 0x566A JUMP JUMPDEST PUSH1 0x1E DUP2 GT ISZERO PUSH2 0x4FD8 JUMPI PUSH1 0x40 MLOAD PUSH3 0x461BCD PUSH1 0xE5 SHL DUP2 MSTORE PUSH1 0x20 PUSH1 0x4 DUP3 ADD MSTORE PUSH1 0x24 DUP1 DUP3 ADD MSTORE PUSH32 0x50656E616C7479206665652063616E6E6F742065786365656420332070657263 PUSH1 0x44 DUP3 ADD MSTORE PUSH32 0x656E742E00000000000000000000000000000000000000000000000000000000 PUSH1 0x64 DUP3 ADD MSTORE PUSH1 0x84 ADD PUSH2 0xF8A JUMP JUMPDEST PUSH1 0x6 DUP2 SWAP1 SSTORE PUSH1 0x40 MLOAD DUP2 DUP2 MSTORE PUSH32 0xCFA4F4CF1CD64D13A167A8E75605E0C0C9D6700E903D17C5DC11F593254A04A9 SWAP1 PUSH1 0x20 ADD JUMPDEST PUSH1 0x40 MLOAD DUP1 SWAP2 SUB SWAP1 LOG1 POP JUMP JUMPDEST PUSH2 0x501C PUSH2 0x5A95 JUMP JUMPDEST PUSH1 0x40 MLOAD DUP1 PUSH2 0x6E0 ADD PUSH1 0x40 MSTORE DUP1 PUSH2 0x503C PUSH2 0xAABA PUSH8 0xDE0B6B3A7640000 PUSH2 0x566A JUMP JUMPDEST DUP2 MSTORE PUSH1 0x20 ADD PUSH2 0x5055 PUSH2 0xAABA PUSH8 0xDE0B6B3A7640000 PUSH2 0x566A JUMP JUMPDEST DUP2 MSTORE PUSH1 0x20 ADD PUSH2 0x506E PUSH2 0xAABA PUSH8 0xDE0B6B3A7640000 PUSH2 0x566A JUMP JUMPDEST DUP2 MSTORE PUSH1 0x20 ADD PUSH2 0x5087 PUSH2 0xAABA PUSH8 0xDE0B6B3A7640000 PUSH2 0x566A JUMP JUMPDEST DUP2 MSTORE PUSH1 0x20 ADD PUSH2 0x50A0 PUSH2 0xAABA PUSH8 0xDE0B6B3A7640000 PUSH2 0x566A JUMP JUMPDEST DUP2 MSTORE PUSH1 0x20 ADD PUSH2 0x50B9 PUSH2 0xAABA PUSH8 0xDE0B6B3A7640000 PUSH2 0x566A JUMP JUMPDEST DUP2 MSTORE PUSH1 0x20 ADD PUSH2 0x50D2 PUSH2 0xAABA PUSH8 0xDE0B6B3A7640000 PUSH2 0x566A JUMP JUMPDEST DUP2 MSTORE PUSH1 0x20 ADD PUSH2 0x50EB PUSH2 0xAABA PUSH8 0xDE0B6B3A7640000 PUSH2 0x566A JUMP JUMPDEST DUP2 MSTORE PUSH1 0x20 ADD PUSH2 0x5104 PUSH2 0xAABA PUSH8 0xDE0B6B3A7640000 PUSH2 0x566A JUMP JUMPDEST DUP2 MSTORE PUSH1 0x20 ADD PUSH2 0x511D PUSH2 0xAABA PUSH8 0xDE0B6B3A7640000 PUSH2 0x566A JUMP JUMPDEST DUP2 MSTORE PUSH1 0x20 ADD PUSH2 0x5136 PUSH2 0xAABA PUSH8 0xDE0B6B3A7640000 PUSH2 0x566A JUMP JUMPDEST DUP2 MSTORE PUSH1 0x20 ADD PUSH2 0x514F PUSH2 0xAABA PUSH8 0xDE0B6B3A7640000 PUSH2 0x566A JUMP JUMPDEST DUP2 MSTORE PUSH1 0x20 ADD PUSH2 0x5168 PUSH2 0xAABA PUSH8 0xDE0B6B3A7640000 PUSH2 0x566A JUMP JUMPDEST DUP2 MSTORE PUSH1 0x20 ADD PUSH2 0x5181 PUSH2 0xAABA PUSH8 0xDE0B6B3A7640000 PUSH2 0x566A JUMP JUMPDEST DUP2 MSTORE PUSH1 0x20 ADD PUSH2 0x519A PUSH2 0xAABA PUSH8 0xDE0B6B3A7640000 PUSH2 0x566A JUMP JUMPDEST DUP2 MSTORE PUSH1 0x20 ADD PUSH2 0x51B3 PUSH2 0xAABA PUSH8 0xDE0B6B3A7640000 PUSH2 0x566A JUMP JUMPDEST DUP2 MSTORE PUSH1 0x20 ADD PUSH2 0x51CD PUSH3 0x800BB PUSH8 0xDE0B6B3A7640000 PUSH2 0x566A JUMP JUMPDEST DUP2 MSTORE PUSH1 0x20 ADD PUSH2 0x51E7 PUSH3 0x800BB PUSH8 0xDE0B6B3A7640000 PUSH2 0x566A JUMP JUMPDEST DUP2 MSTORE PUSH1 0x20 ADD PUSH2 0x5201 PUSH3 0x800BB PUSH8 0xDE0B6B3A7640000 PUSH2 0x566A JUMP JUMPDEST DUP2 MSTORE PUSH1 0x20 ADD PUSH2 0x521B PUSH3 0x800BB PUSH8 0xDE0B6B3A7640000 PUSH2 0x566A JUMP JUMPDEST DUP2 MSTORE PUSH1 0x20 ADD PUSH2 0x5235 PUSH3 0x800BB PUSH8 0xDE0B6B3A7640000 PUSH2 0x566A JUMP JUMPDEST DUP2 MSTORE PUSH1 0x20 ADD PUSH2 0x524F PUSH3 0x800BB PUSH8 0xDE0B6B3A7640000 PUSH2 0x566A JUMP JUMPDEST DUP2 MSTORE PUSH1 0x20 ADD PUSH2 0x5269 PUSH3 0x800BB PUSH8 0xDE0B6B3A7640000 PUSH2 0x566A JUMP JUMPDEST DUP2 MSTORE PUSH1 0x20 ADD PUSH2 0x5283 PUSH3 0x800BB PUSH8 0xDE0B6B3A7640000 PUSH2 0x566A JUMP JUMPDEST DUP2 MSTORE PUSH1 0x20 ADD PUSH2 0x529D PUSH3 0x800BB PUSH8 0xDE0B6B3A7640000 PUSH2 0x566A JUMP JUMPDEST DUP2 MSTORE PUSH1 0x20 ADD PUSH2 0x52B7 PUSH3 0x800BB PUSH8 0xDE0B6B3A7640000 PUSH2 0x566A JUMP JUMPDEST DUP2 MSTORE PUSH1 0x20 ADD PUSH2 0x52D1 PUSH3 0x800BB PUSH8 0xDE0B6B3A7640000 PUSH2 0x566A JUMP JUMPDEST DUP2 MSTORE PUSH1 0x20 ADD PUSH2 0x52EB PUSH3 0x800BB PUSH8 0xDE0B6B3A7640000 PUSH2 0x566A JUMP JUMPDEST DUP2 MSTORE PUSH1 0x20 ADD PUSH1 0x0 DUP2 MSTORE PUSH1 0x20 ADD PUSH1 0x0 DUP2 MSTORE PUSH1 0x20 ADD PUSH1 0x0 DUP2 MSTORE PUSH1 0x20 ADD PUSH1 0x0 DUP2 MSTORE PUSH1 0x20 ADD PUSH1 0x0 DUP2 MSTORE PUSH1 0x20 ADD PUSH1 0x0 DUP2 MSTORE PUSH1 0x20 ADD PUSH1 0x0 DUP2 MSTORE PUSH1 0x20 ADD PUSH1 0x0 DUP2 MSTORE PUSH1 0x20 ADD PUSH1 0x0 DUP2 MSTORE PUSH1 0x20 ADD PUSH1 0x0 DUP2 MSTORE PUSH1 0x20 ADD PUSH1 0x0 DUP2 MSTORE PUSH1 0x20 ADD PUSH1 0x0 DUP2 MSTORE PUSH1 0x20 ADD PUSH1 0x0 DUP2 MSTORE PUSH1 0x20 ADD PUSH1 0x0 DUP2 MSTORE PUSH1 0x20 ADD PUSH1 0x0 DUP2 MSTORE PUSH1 0x20 ADD PUSH1 0x0 DUP2 MSTORE PUSH1 0x20 ADD PUSH1 0x0 DUP2 MSTORE PUSH1 0x20 ADD PUSH1 0x0 DUP2 MSTORE PUSH1 0x20 ADD PUSH1 0x0 DUP2 MSTORE PUSH1 0x20 ADD PUSH1 0x0 DUP2 MSTORE PUSH1 0x20 ADD PUSH1 0x0 DUP2 MSTORE PUSH1 0x20 ADD PUSH1 0x0 DUP2 MSTORE PUSH1 0x20 ADD PUSH1 0x0 DUP2 MSTORE PUSH1 0x20 ADD PUSH1 0x0 DUP2 MSTORE PUSH1 0x20 ADD PUSH1 0x0 DUP2 MSTORE PUSH1 0x20 ADD PUSH1 0x0 DUP2 MSTORE PUSH1 0x20 ADD PUSH1 0x0 DUP2 MSTORE POP SWAP1 POP SWAP1 JUMP JUMPDEST PUSH1 0x13 SLOAD PUSH2 0x53BD SWAP1 DUP3 PUSH2 0x32F1 JUMP JUMPDEST PUSH1 0x13 SSTORE PUSH1 0xF SLOAD PUSH2 0x53CD SWAP1 DUP3 PUSH2 0x32F1 JUMP JUMPDEST PUSH1 0xF SSTORE PUSH1 0x40 MLOAD DUP2 DUP2 MSTORE ADDRESS SWAP1 PUSH1 0x0 SWAP1 PUSH32 0x715128EA18BCB5A472F8187C4FBFDC1ED6D04ECDCFF67E3F546FDD075E862665 SWAP1 PUSH1 0x20 ADD PUSH2 0x1283 JUMP JUMPDEST PUSH1 0x1 PUSH1 0x1 PUSH1 0xA0 SHL SUB DUP2 AND PUSH1 0x0 SWAP1 DUP2 MSTORE PUSH1 0xC PUSH1 0x20 MSTORE PUSH1 0x40 DUP2 KECCAK256 PUSH1 0x1 ADD SLOAD PUSH2 0x5493 JUMPI PUSH1 0x40 MLOAD PUSH3 0x461BCD PUSH1 0xE5 SHL DUP2 MSTORE PUSH1 0x20 PUSH1 0x4 DUP3 ADD MSTORE PUSH1 0x23 PUSH1 0x24 DUP3 ADD MSTORE PUSH32 0x5072697661746553616C653A2054686973207573657220646F65736E74206578 PUSH1 0x44 DUP3 ADD MSTORE PUSH32 0x6973740000000000000000000000000000000000000000000000000000000000 PUSH1 0x64 DUP3 ADD MSTORE PUSH1 0x84 ADD PUSH2 0xF8A JUMP JUMPDEST PUSH1 0x1 PUSH1 0x9 PUSH1 0x0 DUP3 DUP3 SLOAD PUSH2 0x54A6 SWAP2 SWAP1 PUSH2 0x5E1A JUMP JUMPDEST SWAP1 SWAP2 SSTORE POP POP PUSH1 0x1 PUSH1 0x1 PUSH1 0xA0 SHL SUB DUP3 AND PUSH1 0x0 SWAP1 DUP2 MSTORE PUSH1 0xC PUSH1 0x20 MSTORE PUSH1 0x40 DUP2 KECCAK256 PUSH1 0x1 ADD SLOAD PUSH1 0xA DUP1 SLOAD SWAP2 SWAP3 SWAP1 SWAP2 PUSH2 0x54DA SWAP1 DUP5 SWAP1 PUSH2 0x5E02 JUMP JUMPDEST SWAP1 SWAP2 SSTORE POP POP POP PUSH1 0x1 PUSH1 0x1 PUSH1 0xA0 SHL SUB AND PUSH1 0x0 SWAP1 DUP2 MSTORE PUSH1 0xC PUSH1 0x20 MSTORE PUSH1 0x40 DUP2 KECCAK256 PUSH1 0x1 DUP2 ADD DUP1 SLOAD DUP4 DUP4 SSTORE SWAP1 DUP4 SWAP1 SSTORE PUSH1 0x2 DUP3 ADD DUP1 SLOAD PUSH1 0xFF NOT AND SWAP1 SSTORE PUSH1 0x3 SWAP1 SWAP2 ADD SWAP2 SWAP1 SWAP2 SSTORE SWAP1 JUMP JUMPDEST PUSH1 0xC8 DUP2 GT ISZERO PUSH2 0x5593 JUMPI PUSH1 0x40 MLOAD PUSH3 0x461BCD PUSH1 0xE5 SHL DUP2 MSTORE PUSH1 0x20 PUSH1 0x4 DUP3 ADD MSTORE PUSH1 0x2C PUSH1 0x24 DUP3 ADD MSTORE PUSH32 0x41697264726F702050657263656E746167652063616E6E6F7420657863656564 PUSH1 0x44 DUP3 ADD MSTORE PUSH32 0x2032302070657263656E742E0000000000000000000000000000000000000000 PUSH1 0x64 DUP3 ADD MSTORE PUSH1 0x84 ADD PUSH2 0xF8A JUMP JUMPDEST PUSH1 0x7 DUP2 SWAP1 SSTORE PUSH1 0x40 MLOAD DUP2 DUP2 MSTORE PUSH32 0xCC672F1026B958C0CFBFDD89EBE8DDCBC127F16EC24DA6C2C7A4DE26A8B1857E SWAP1 PUSH1 0x20 ADD PUSH2 0x5009 JUMP JUMPDEST PUSH1 0x0 DUP3 PUSH1 0x20 ADD MLOAD PUSH1 0x0 EQ ISZERO PUSH2 0x55DF JUMPI POP PUSH1 0x0 PUSH2 0x11E4 JUMP JUMPDEST PUSH11 0x52B7D2DCC80CD2E4000000 PUSH2 0x55F8 DUP5 PUSH1 0x40 ADD MLOAD PUSH2 0x5947 JUMP JUMPDEST PUSH1 0xA0 DUP6 ADD MLOAD PUSH2 0x5607 SWAP1 DUP6 PUSH2 0x5E69 JUMP JUMPDEST PUSH2 0x5611 SWAP2 SWAP1 PUSH2 0x5E69 JUMP JUMPDEST PUSH2 0x32EA SWAP2 SWAP1 PUSH2 0x5E47 JUMP JUMPDEST PUSH1 0x0 DUP1 PUSH1 0x0 PUSH2 0x5637 PUSH2 0x562F DUP7 PUSH1 0x6 SLOAD PUSH2 0x566A JUMP JUMPDEST PUSH2 0x3E8 PUSH2 0x32DE JUMP JUMPDEST SWAP1 POP PUSH1 0x0 PUSH2 0x564A PUSH2 0x562F DUP7 PUSH1 0x6 SLOAD PUSH2 0x566A JUMP JUMPDEST SWAP2 SWAP7 SWAP2 SWAP6 POP SWAP1 SWAP4 POP POP POP POP JUMP JUMPDEST PUSH1 0x0 DUP1 PUSH1 0x64 PUSH1 0x7 SLOAD DUP5 PUSH2 0x5611 SWAP2 SWAP1 PUSH2 0x5E69 JUMP JUMPDEST PUSH1 0x0 PUSH2 0x32EA DUP3 DUP5 PUSH2 0x5E69 JUMP JUMPDEST PUSH1 0x0 DUP1 DUP4 PUSH2 0x5689 JUMPI POP PUSH1 0x0 SWAP1 POP DUP1 PUSH2 0x3F74 JUMP JUMPDEST PUSH1 0x0 DUP1 PUSH2 0x5696 DUP7 DUP7 PUSH2 0x561B JUMP JUMPDEST SWAP2 POP SWAP2 POP PUSH2 0x56A4 DUP7 DUP4 PUSH2 0x32FD JUMP JUMPDEST PUSH2 0x56AE DUP7 DUP4 PUSH2 0x32FD JUMP JUMPDEST SWAP4 POP SWAP4 POP POP POP SWAP3 POP SWAP3 SWAP1 POP JUMP JUMPDEST PUSH1 0x0 DUP1 PUSH1 0x0 PUSH3 0x15180 PUSH1 0xB SLOAD TIMESTAMP PUSH2 0x56D2 SWAP2 SWAP1 PUSH2 0x5E1A JUMP JUMPDEST PUSH2 0x56DC SWAP2 SWAP1 PUSH2 0x5E47 JUMP JUMPDEST SWAP1 POP PUSH2 0x1E0 DUP2 LT ISZERO PUSH2 0x57A0 JUMPI PUSH1 0x1 PUSH1 0x1 PUSH1 0xA0 SHL SUB DUP5 AND PUSH1 0x0 SWAP1 DUP2 MSTORE PUSH1 0xC PUSH1 0x20 MSTORE PUSH1 0x40 SWAP1 KECCAK256 PUSH1 0x2 ADD SLOAD PUSH1 0xFF AND PUSH2 0x577A JUMPI PUSH1 0x1 PUSH1 0x1 PUSH1 0xA0 SHL SUB DUP5 AND PUSH1 0x0 SWAP1 DUP2 MSTORE PUSH1 0xC PUSH1 0x20 MSTORE PUSH1 0x40 SWAP1 KECCAK256 SLOAD PUSH2 0x5751 SWAP1 PUSH2 0x574A SWAP1 PUSH2 0x5742 SWAP1 PUSH11 0x136D704B91C7B3A700000 SWAP1 PUSH2 0x566A JUMP JUMPDEST PUSH1 0xA SLOAD PUSH2 0x32DE JUMP JUMPDEST DUP4 SWAP1 PUSH2 0x32F1 JUMP JUMPDEST PUSH1 0x1 PUSH1 0x1 PUSH1 0xA0 SHL SUB DUP6 AND PUSH1 0x0 SWAP1 DUP2 MSTORE PUSH1 0xC PUSH1 0x20 MSTORE PUSH1 0x40 SWAP1 KECCAK256 PUSH1 0x2 ADD DUP1 SLOAD PUSH1 0xFF NOT AND PUSH1 0x1 OR SWAP1 SSTORE SWAP2 POP JUMPDEST PUSH1 0x1 PUSH1 0x1 PUSH1 0xA0 SHL SUB DUP5 AND PUSH1 0x0 SWAP1 DUP2 MSTORE PUSH1 0xC PUSH1 0x20 MSTORE PUSH1 0x40 SWAP1 KECCAK256 PUSH2 0x1C2 PUSH1 0x3 SWAP1 SWAP2 ADD SSTORE PUSH2 0x58CD JUMP JUMPDEST PUSH2 0x1E0 DUP2 LT ISZERO DUP1 ISZERO PUSH2 0x57B3 JUMPI POP PUSH2 0x348 DUP2 LT JUMPDEST ISZERO PUSH2 0x58CD JUMPI PUSH1 0x1 PUSH1 0x1 PUSH1 0xA0 SHL SUB DUP5 AND PUSH1 0x0 SWAP1 DUP2 MSTORE PUSH1 0xC PUSH1 0x20 MSTORE PUSH1 0x40 SWAP1 KECCAK256 PUSH1 0x2 ADD SLOAD PUSH1 0xFF AND PUSH2 0x583B JUMPI PUSH1 0x1 PUSH1 0x1 PUSH1 0xA0 SHL SUB DUP5 AND PUSH1 0x0 SWAP1 DUP2 MSTORE PUSH1 0xC PUSH1 0x20 MSTORE PUSH1 0x40 SWAP1 KECCAK256 SLOAD PUSH2 0x5812 SWAP1 PUSH2 0x574A SWAP1 PUSH2 0x5742 SWAP1 PUSH11 0x136D704B91C7B3A700000 SWAP1 PUSH2 0x566A JUMP JUMPDEST PUSH1 0x1 PUSH1 0x1 PUSH1 0xA0 SHL SUB DUP6 AND PUSH1 0x0 SWAP1 DUP2 MSTORE PUSH1 0xC PUSH1 0x20 MSTORE PUSH1 0x40 SWAP1 KECCAK256 PUSH1 0x2 ADD DUP1 SLOAD PUSH1 0xFF NOT AND PUSH1 0x1 OR SWAP1 SSTORE SWAP2 POP JUMPDEST PUSH1 0x1 PUSH1 0x1 PUSH1 0xA0 SHL SUB DUP5 AND PUSH1 0x0 SWAP1 DUP2 MSTORE PUSH1 0xC PUSH1 0x20 MSTORE PUSH1 0x40 DUP2 KECCAK256 PUSH1 0x3 ADD SLOAD PUSH2 0x5861 SWAP1 DUP4 PUSH2 0x5E1A JUMP JUMPDEST PUSH1 0x1 PUSH1 0x1 PUSH1 0xA0 SHL SUB DUP7 AND PUSH1 0x0 SWAP1 DUP2 MSTORE PUSH1 0xC PUSH1 0x20 MSTORE PUSH1 0x40 SWAP1 KECCAK256 SLOAD SWAP1 SWAP2 POP PUSH2 0x58A1 SWAP1 PUSH2 0x589A SWAP1 PUSH2 0x5742 SWAP1 PUSH10 0x7AA22879AABCFAC0000 SWAP1 PUSH2 0x566A JUMP JUMPDEST DUP5 SWAP1 PUSH2 0x32F1 JUMP JUMPDEST PUSH2 0x58AB SWAP1 DUP3 PUSH2 0x5E69 JUMP JUMPDEST PUSH1 0x1 PUSH1 0x1 PUSH1 0xA0 SHL SUB DUP7 AND PUSH1 0x0 SWAP1 DUP2 MSTORE PUSH1 0xC PUSH1 0x20 MSTORE PUSH1 0x40 SWAP1 KECCAK256 PUSH1 0x3 ADD DUP4 SWAP1 SSTORE SWAP3 POP POP JUMPDEST DUP2 PUSH2 0x5940 JUMPI PUSH1 0x40 MLOAD PUSH3 0x461BCD PUSH1 0xE5 SHL DUP2 MSTORE PUSH1 0x20 PUSH1 0x4 DUP3 ADD MSTORE PUSH1 0x29 PUSH1 0x24 DUP3 ADD MSTORE PUSH32 0x5072697661746553616C653A2054686572652773206E6F7468696E6720746F20 PUSH1 0x44 DUP3 ADD MSTORE PUSH32 0x636C61696D207965740000000000000000000000000000000000000000000000 PUSH1 0x64 DUP3 ADD MSTORE PUSH1 0x84 ADD PUSH2 0xF8A JUMP JUMPDEST POP SWAP3 SWAP2 POP POP JUMP JUMPDEST PUSH1 0x0 DUP1 DUP3 GT PUSH2 0x5998 JUMPI PUSH1 0x40 MLOAD PUSH3 0x461BCD PUSH1 0xE5 SHL DUP2 MSTORE PUSH1 0x20 PUSH1 0x4 DUP3 ADD MSTORE PUSH1 0x11 PUSH1 0x24 DUP3 ADD MSTORE PUSH32 0x4572726F722074696D657374616D702030000000000000000000000000000000 PUSH1 0x44 DUP3 ADD MSTORE PUSH1 0x64 ADD PUSH2 0xF8A JUMP JUMPDEST PUSH2 0x11E4 PUSH2 0x59A5 DUP4 TIMESTAMP PUSH2 0x5E1A JUMP JUMPDEST PUSH2 0x59B9 SWAP1 PUSH10 0xD3C21BCECCEDA1000000 PUSH2 0x5E69 JUMP JUMPDEST PUSH4 0x1E13380 PUSH1 0x40 MLOAD DUP1 PUSH1 0x40 ADD PUSH1 0x40 MSTORE DUP1 PUSH1 0x1D DUP2 MSTORE PUSH1 0x20 ADD PUSH32 0x4572726F722063616E6E6F74206469766964652074696D657374616D70000000 DUP2 MSTORE POP PUSH1 0x0 DUP2 DUP4 PUSH2 0x5A15 JUMPI PUSH1 0x40 MLOAD PUSH3 0x461BCD PUSH1 0xE5 SHL DUP2 MSTORE PUSH1 0x4 ADD PUSH2 0xF8A SWAP2 SWAP1 PUSH2 0x5AB4 JUMP JUMPDEST POP DUP3 DUP5 DUP2 PUSH2 0x5A25 JUMPI PUSH2 0x5A25 PUSH2 0x5E31 JUMP JUMPDEST DIV SWAP5 SWAP4 POP POP POP POP JUMP JUMPDEST PUSH1 0x40 MLOAD DUP1 PUSH1 0x60 ADD PUSH1 0x40 MSTORE DUP1 PUSH1 0x0 DUP2 MSTORE PUSH1 0x20 ADD PUSH1 0x0 DUP2 MSTORE PUSH1 0x20 ADD PUSH2 0x5A90 PUSH1 0x40 MLOAD DUP1 PUSH1 0xE0 ADD PUSH1 0x40 MSTORE DUP1 PUSH1 0x0 PUSH1 0x1 PUSH1 0x1 PUSH1 0xA0 SHL SUB AND DUP2 MSTORE PUSH1 0x20 ADD PUSH1 0x0 DUP2 MSTORE PUSH1 0x20 ADD PUSH1 0x0 DUP2 MSTORE PUSH1 0x20 ADD PUSH1 0x0 DUP2 MSTORE PUSH1 0x20 ADD PUSH1 0x0 DUP2 MSTORE PUSH1 0x20 ADD PUSH1 0x0 DUP2 MSTORE PUSH1 0x20 ADD PUSH1 0x0 DUP2 MSTORE POP SWAP1 JUMP JUMPDEST SWAP1 MSTORE SWAP1 JUMP JUMPDEST PUSH1 0x40 MLOAD DUP1 PUSH2 0x6E0 ADD PUSH1 0x40 MSTORE DUP1 PUSH1 0x37 SWAP1 PUSH1 0x20 DUP3 MUL DUP1 CALLDATASIZE DUP4 CALLDATACOPY POP SWAP2 SWAP3 SWAP2 POP POP JUMP JUMPDEST PUSH1 0x0 PUSH1 0x20 DUP1 DUP4 MSTORE DUP4 MLOAD DUP1 DUP3 DUP6 ADD MSTORE PUSH1 0x0 JUMPDEST DUP2 DUP2 LT ISZERO PUSH2 0x5AE1 JUMPI DUP6 DUP2 ADD DUP4 ADD MLOAD DUP6 DUP3 ADD PUSH1 0x40 ADD MSTORE DUP3 ADD PUSH2 0x5AC5 JUMP JUMPDEST DUP2 DUP2 GT ISZERO PUSH2 0x5AF3 JUMPI PUSH1 0x0 PUSH1 0x40 DUP4 DUP8 ADD ADD MSTORE JUMPDEST POP PUSH1 0x1F ADD PUSH1 0x1F NOT AND SWAP3 SWAP1 SWAP3 ADD PUSH1 0x40 ADD SWAP4 SWAP3 POP POP POP JUMP JUMPDEST PUSH1 0x0 DUP1 PUSH1 0x20 DUP4 DUP6 SUB SLT ISZERO PUSH2 0x5B1C JUMPI PUSH1 0x0 DUP1 REVERT JUMPDEST DUP3 CALLDATALOAD PUSH8 0xFFFFFFFFFFFFFFFF DUP1 DUP3 GT ISZERO PUSH2 0x5B34 JUMPI PUSH1 0x0 DUP1 REVERT JUMPDEST DUP2 DUP6 ADD SWAP2 POP DUP6 PUSH1 0x1F DUP4 ADD SLT PUSH2 0x5B48 JUMPI PUSH1 0x0 DUP1 REVERT JUMPDEST DUP2 CALLDATALOAD DUP2 DUP2 GT ISZERO PUSH2 0x5B57 JUMPI PUSH1 0x0 DUP1 REVERT JUMPDEST DUP7 PUSH1 0x20 DUP3 PUSH1 0x6 SHL DUP6 ADD ADD GT ISZERO PUSH2 0x5B6C JUMPI PUSH1 0x0 DUP1 REVERT JUMPDEST PUSH1 0x20 SWAP3 SWAP1 SWAP3 ADD SWAP7 SWAP2 SWAP6 POP SWAP1 SWAP4 POP POP POP POP JUMP JUMPDEST PUSH1 0x1 PUSH1 0x1 PUSH1 0xA0 SHL SUB DUP2 AND DUP2 EQ PUSH2 0x1809 JUMPI PUSH1 0x0 DUP1 REVERT JUMPDEST PUSH1 0x0 DUP1 PUSH1 0x40 DUP4 DUP6 SUB SLT ISZERO PUSH2 0x5BA6 JUMPI PUSH1 0x0 DUP1 REVERT JUMPDEST DUP3 CALLDATALOAD PUSH2 0x5BB1 DUP2 PUSH2 0x5B7E JUMP JUMPDEST SWAP5 PUSH1 0x20 SWAP4 SWAP1 SWAP4 ADD CALLDATALOAD SWAP4 POP POP POP JUMP JUMPDEST PUSH1 0x0 PUSH1 0x20 DUP3 DUP5 SUB SLT ISZERO PUSH2 0x5BD1 JUMPI PUSH1 0x0 DUP1 REVERT JUMPDEST POP CALLDATALOAD SWAP2 SWAP1 POP JUMP JUMPDEST PUSH1 0x0 DUP1 PUSH1 0x0 PUSH1 0x60 DUP5 DUP7 SUB SLT ISZERO PUSH2 0x5BED JUMPI PUSH1 0x0 DUP1 REVERT JUMPDEST DUP4 CALLDATALOAD PUSH2 0x5BF8 DUP2 PUSH2 0x5B7E JUMP JUMPDEST SWAP3 POP PUSH1 0x20 DUP5 ADD CALLDATALOAD PUSH2 0x5C08 DUP2 PUSH2 0x5B7E JUMP JUMPDEST SWAP3 SWAP6 SWAP3 SWAP5 POP POP POP PUSH1 0x40 SWAP2 SWAP1 SWAP2 ADD CALLDATALOAD SWAP1 JUMP JUMPDEST PUSH1 0x0 PUSH1 0x20 DUP3 DUP5 SUB SLT ISZERO PUSH2 0x5C2B JUMPI PUSH1 0x0 DUP1 REVERT JUMPDEST DUP2 CALLDATALOAD PUSH2 0x32EA DUP2 PUSH2 0x5B7E JUMP JUMPDEST PUSH1 0x0 DUP1 PUSH1 0x40 DUP4 DUP6 SUB SLT ISZERO PUSH2 0x5C49 JUMPI PUSH1 0x0 DUP1 REVERT JUMPDEST POP POP DUP1 CALLDATALOAD SWAP3 PUSH1 0x20 SWAP1 SWAP2 ADD CALLDATALOAD SWAP2 POP JUMP JUMPDEST PUSH1 0x0 PUSH1 0x20 DUP3 DUP5 SUB SLT ISZERO PUSH2 0x5C6A JUMPI PUSH1 0x0 DUP1 REVERT JUMPDEST DUP2 CALLDATALOAD PUSH2 0xFFFF DUP2 AND DUP2 EQ PUSH2 0x32EA JUMPI PUSH1 0x0 DUP1 REVERT JUMPDEST PUSH1 0x0 DUP1 PUSH1 0x20 DUP4 DUP6 SUB SLT ISZERO PUSH2 0x5C8F JUMPI PUSH1 0x0 DUP1 REVERT JUMPDEST DUP3 CALLDATALOAD PUSH8 0xFFFFFFFFFFFFFFFF DUP1 DUP3 GT ISZERO PUSH2 0x5CA7 JUMPI PUSH1 0x0 DUP1 REVERT JUMPDEST DUP2 DUP6 ADD SWAP2 POP DUP6 PUSH1 0x1F DUP4 ADD SLT PUSH2 0x5CBB JUMPI PUSH1 0x0 DUP1 REVERT JUMPDEST DUP2 CALLDATALOAD DUP2 DUP2 GT ISZERO PUSH2 0x5CCA JUMPI PUSH1 0x0 DUP1 REVERT JUMPDEST DUP7 PUSH1 0x20 DUP3 PUSH1 0x5 SHL DUP6 ADD ADD GT ISZERO PUSH2 0x5B6C JUMPI PUSH1 0x0 DUP1 REVERT JUMPDEST PUSH1 0x0 DUP1 PUSH1 0x40 DUP4 DUP6 SUB SLT ISZERO PUSH2 0x5CF2 JUMPI PUSH1 0x0 DUP1 REVERT JUMPDEST DUP3 CALLDATALOAD PUSH2 0x5CFD DUP2 PUSH2 0x5B7E JUMP JUMPDEST SWAP2 POP PUSH1 0x20 DUP4 ADD CALLDATALOAD PUSH2 0x5D0D DUP2 PUSH2 0x5B7E JUMP JUMPDEST DUP1 SWAP2 POP POP SWAP3 POP SWAP3 SWAP1 POP JUMP JUMPDEST PUSH1 0x1 DUP2 DUP2 SHR SWAP1 DUP3 AND DUP1 PUSH2 0x5D2C JUMPI PUSH1 0x7F DUP3 AND SWAP2 POP JUMPDEST PUSH1 0x20 DUP3 LT DUP2 EQ ISZERO PUSH2 0x5D4D JUMPI PUSH4 0x4E487B71 PUSH1 0xE0 SHL PUSH1 0x0 MSTORE PUSH1 0x22 PUSH1 0x4 MSTORE PUSH1 0x24 PUSH1 0x0 REVERT JUMPDEST POP SWAP2 SWAP1 POP JUMP JUMPDEST PUSH4 0x4E487B71 PUSH1 0xE0 SHL PUSH1 0x0 MSTORE PUSH1 0x32 PUSH1 0x4 MSTORE PUSH1 0x24 PUSH1 0x0 REVERT JUMPDEST PUSH4 0x4E487B71 PUSH1 0xE0 SHL PUSH1 0x0 MSTORE PUSH1 0x11 PUSH1 0x4 MSTORE PUSH1 0x24 PUSH1 0x0 REVERT JUMPDEST PUSH1 0x0 PUSH1 0x0 NOT DUP3 EQ ISZERO PUSH2 0x5D93 JUMPI PUSH2 0x5D93 PUSH2 0x5D69 JUMP JUMPDEST POP PUSH1 0x1 ADD SWAP1 JUMP JUMPDEST PUSH1 0x0 PUSH1 0x20 DUP3 DUP5 SUB SLT ISZERO PUSH2 0x5DAC JUMPI PUSH1 0x0 DUP1 REVERT JUMPDEST DUP2 MLOAD PUSH2 0x32EA DUP2 PUSH2 0x5B7E JUMP JUMPDEST PUSH2 0x6E0 DUP2 ADD DUP2 DUP4 PUSH1 0x0 JUMPDEST PUSH1 0x37 DUP2 LT ISZERO PUSH2 0x5DE0 JUMPI DUP2 MLOAD DUP4 MSTORE PUSH1 0x20 SWAP3 DUP4 ADD SWAP3 SWAP1 SWAP2 ADD SWAP1 PUSH1 0x1 ADD PUSH2 0x5DC1 JUMP JUMPDEST POP POP POP SWAP3 SWAP2 POP POP JUMP JUMPDEST PUSH1 0x0 PUSH1 0x20 DUP3 DUP5 SUB SLT ISZERO PUSH2 0x5DFB JUMPI PUSH1 0x0 DUP1 REVERT JUMPDEST POP MLOAD SWAP2 SWAP1 POP JUMP JUMPDEST PUSH1 0x0 DUP3 NOT DUP3 GT ISZERO PUSH2 0x5E15 JUMPI PUSH2 0x5E15 PUSH2 0x5D69 JUMP JUMPDEST POP ADD SWAP1 JUMP JUMPDEST PUSH1 0x0 DUP3 DUP3 LT ISZERO PUSH2 0x5E2C JUMPI PUSH2 0x5E2C PUSH2 0x5D69 JUMP JUMPDEST POP SUB SWAP1 JUMP JUMPDEST PUSH4 0x4E487B71 PUSH1 0xE0 SHL PUSH1 0x0 MSTORE PUSH1 0x12 PUSH1 0x4 MSTORE PUSH1 0x24 PUSH1 0x0 REVERT JUMPDEST PUSH1 0x0 DUP3 PUSH2 0x5E64 JUMPI PUSH4 0x4E487B71 PUSH1 0xE0 SHL PUSH1 0x0 MSTORE PUSH1 0x12 PUSH1 0x4 MSTORE PUSH1 0x24 PUSH1 0x0 REVERT JUMPDEST POP DIV SWAP1 JUMP JUMPDEST PUSH1 0x0 DUP2 PUSH1 0x0 NOT DIV DUP4 GT DUP3 ISZERO ISZERO AND ISZERO PUSH2 0x5E83 JUMPI PUSH2 0x5E83 PUSH2 0x5D69 JUMP JUMPDEST POP MUL SWAP1 JUMP INVALID 0x4F PUSH24 0x6E61626C653A2063616C6C6572206973206E6F7420746865 KECCAK256 PUSH16 0x776E65725072697661746553616C653A KECCAK256 NUMBER PUSH2 0x6E6E PUSH16 0x742073756273747261637420746F7461 PUSH13 0x20616D6F756E74207769746820 PUSH4 0x6C61696D PUSH2 0x626C PUSH6 0xA26469706673 PC 0x22 SLT KECCAK256 0xDF 0xB0 DUP11 0xED MSIZE 0xED BASEFEE 0xBF GT DUP10 TIMESTAMP 0xAA SELFBALANCE SWAP7 0xC4 CODESIZE CODESIZE EQ PUSH18 0xA5E07E32F497A2BDBF9C91FEC064736F6C63 NUMBER STOP ADDMOD SIGNEXTEND STOP CALLER PUSH1 0xA0 PUSH1 0x40 MSTORE CALLVALUE DUP1 ISZERO PUSH2 0x10 JUMPI PUSH1 0x0 DUP1 REVERT JUMPDEST POP PUSH1 0x40 MLOAD PUSH2 0x6A8 CODESIZE SUB DUP1 PUSH2 0x6A8 DUP4 CODECOPY DUP2 ADD PUSH1 0x40 DUP2 SWAP1 MSTORE PUSH2 0x2F SWAP2 PUSH2 0xC0 JUMP JUMPDEST PUSH1 0x0 DUP3 GT PUSH2 0x93 JUMPI PUSH1 0x40 MLOAD PUSH3 0x461BCD PUSH1 0xE5 SHL DUP2 MSTORE PUSH1 0x20 PUSH1 0x4 DUP3 ADD MSTORE PUSH1 0x27 PUSH1 0x24 DUP3 ADD MSTORE PUSH32 0x4C6F636B61626C653A20416D6F756E74206D7573742067726561746572207468 PUSH1 0x44 DUP3 ADD MSTORE PUSH7 0x616E207A65726F PUSH1 0xC8 SHL PUSH1 0x64 DUP3 ADD MSTORE PUSH1 0x84 ADD PUSH1 0x40 MLOAD DUP1 SWAP2 SUB SWAP1 REVERT JUMPDEST PUSH1 0x0 SWAP2 SWAP1 SWAP2 SSTORE PUSH1 0x1 PUSH1 0x1 PUSH1 0xA0 SHL SUB AND PUSH1 0x80 MSTORE TIMESTAMP PUSH1 0x2 SSTORE PUSH1 0x1 DUP1 SLOAD PUSH1 0x1 PUSH1 0x1 PUSH1 0xA0 SHL SUB NOT AND CALLER OR SWAP1 SSTORE PUSH2 0xFD JUMP JUMPDEST PUSH1 0x0 DUP1 PUSH1 0x40 DUP4 DUP6 SUB SLT ISZERO PUSH2 0xD3 JUMPI PUSH1 0x0 DUP1 REVERT JUMPDEST DUP3 MLOAD PUSH1 0x20 DUP5 ADD MLOAD SWAP1 SWAP3 POP PUSH1 0x1 PUSH1 0x1 PUSH1 0xA0 SHL SUB DUP2 AND DUP2 EQ PUSH2 0xF2 JUMPI PUSH1 0x0 DUP1 REVERT JUMPDEST DUP1 SWAP2 POP POP SWAP3 POP SWAP3 SWAP1 POP JUMP JUMPDEST PUSH1 0x80 MLOAD PUSH2 0x591 PUSH2 0x117 PUSH1 0x0 CODECOPY PUSH1 0x0 PUSH1 0x79 ADD MSTORE PUSH2 0x591 PUSH1 0x0 RETURN INVALID PUSH1 0x80 PUSH1 0x40 MSTORE CALLVALUE DUP1 ISZERO PUSH2 0x10 JUMPI PUSH1 0x0 DUP1 REVERT JUMPDEST POP PUSH1 0x4 CALLDATASIZE LT PUSH2 0x72 JUMPI PUSH1 0x0 CALLDATALOAD PUSH1 0xE0 SHR DUP1 PUSH4 0xAA8C217C GT PUSH2 0x50 JUMPI DUP1 PUSH4 0xAA8C217C EQ PUSH2 0xE9 JUMPI DUP1 PUSH4 0xC8CCA41E EQ PUSH2 0xFB JUMPI DUP1 PUSH4 0xE7D88C42 EQ PUSH2 0x106 JUMPI PUSH1 0x0 DUP1 REVERT JUMPDEST DUP1 PUSH4 0x38AF3EED EQ PUSH2 0x77 JUMPI DUP1 PUSH4 0x67E404CE EQ PUSH2 0xC3 JUMPI DUP1 PUSH4 0x8DA5CB5B EQ PUSH2 0xC9 JUMPI JUMPDEST PUSH1 0x0 DUP1 REVERT JUMPDEST PUSH32 0x0 JUMPDEST PUSH1 0x40 MLOAD PUSH20 0xFFFFFFFFFFFFFFFFFFFFFFFFFFFFFFFFFFFFFFFF SWAP1 SWAP2 AND DUP2 MSTORE PUSH1 0x20 ADD JUMPDEST PUSH1 0x40 MLOAD DUP1 SWAP2 SUB SWAP1 RETURN JUMPDEST CALLER PUSH2 0x99 JUMP JUMPDEST PUSH1 0x1 SLOAD PUSH2 0x99 SWAP1 PUSH20 0xFFFFFFFFFFFFFFFFFFFFFFFFFFFFFFFFFFFFFFFF AND DUP2 JUMP JUMPDEST PUSH1 0x0 SLOAD JUMPDEST PUSH1 0x40 MLOAD SWAP1 DUP2 MSTORE PUSH1 0x20 ADD PUSH2 0xBA JUMP JUMPDEST PUSH2 0x104 TIMESTAMP PUSH1 0x2 SSTORE JUMP JUMPDEST STOP JUMPDEST PUSH2 0xED PUSH2 0x114 CALLDATASIZE PUSH1 0x4 PUSH2 0x3AB JUMP JUMPDEST PUSH1 0x1 SLOAD PUSH1 0x0 SWAP1 PUSH20 0xFFFFFFFFFFFFFFFFFFFFFFFFFFFFFFFFFFFFFFFF AND CALLER EQ PUSH2 0x1A9 JUMPI PUSH1 0x40 MLOAD PUSH3 0x461BCD PUSH1 0xE5 SHL DUP2 MSTORE PUSH1 0x20 PUSH1 0x4 DUP3 ADD MSTORE PUSH1 0x35 PUSH1 0x24 DUP3 ADD MSTORE PUSH32 0x4C6F636B61626C653A2063616C6C6572206861766520746F2062652054616C61 PUSH1 0x44 DUP3 ADD MSTORE PUSH32 0x78546F6B656E20536D61727420436F6E74726163740000000000000000000000 PUSH1 0x64 DUP3 ADD MSTORE PUSH1 0x84 ADD JUMPDEST PUSH1 0x40 MLOAD DUP1 SWAP2 SUB SWAP1 REVERT JUMPDEST PUSH1 0x0 DUP1 SLOAD GT PUSH2 0x1FA JUMPI PUSH1 0x40 MLOAD PUSH3 0x461BCD PUSH1 0xE5 SHL DUP2 MSTORE PUSH1 0x20 PUSH1 0x4 DUP3 ADD MSTORE PUSH1 0x18 PUSH1 0x24 DUP3 ADD MSTORE PUSH32 0x4C6F636B61626C653A206E6F20746F6B656E73206C6566740000000000000000 PUSH1 0x44 DUP3 ADD MSTORE PUSH1 0x64 ADD PUSH2 0x1A0 JUMP JUMPDEST PUSH1 0x0 PUSH2 0x205 DUP4 PUSH2 0x285 JUMP JUMPDEST SWAP1 POP PUSH1 0x0 DUP2 GT PUSH2 0x257 JUMPI PUSH1 0x40 MLOAD PUSH3 0x461BCD PUSH1 0xE5 SHL DUP2 MSTORE PUSH1 0x20 PUSH1 0x4 DUP3 ADD MSTORE PUSH1 0x1E PUSH1 0x24 DUP3 ADD MSTORE PUSH32 0x4C6F636B61626C653A206E6F20746F6B656E7320746F2072656C656173650000 PUSH1 0x44 DUP3 ADD MSTORE PUSH1 0x64 ADD PUSH2 0x1A0 JUMP JUMPDEST PUSH2 0x27C PUSH1 0x0 SLOAD DUP3 PUSH1 0x40 MLOAD DUP1 PUSH1 0x60 ADD PUSH1 0x40 MSTORE DUP1 PUSH1 0x36 DUP2 MSTORE PUSH1 0x20 ADD PUSH2 0x526 PUSH1 0x36 SWAP2 CODECOPY PUSH2 0x373 JUMP JUMPDEST PUSH1 0x0 SSTORE SWAP3 SWAP2 POP POP JUMP JUMPDEST PUSH1 0x0 DUP1 PUSH3 0x278D00 PUSH1 0x2 SLOAD TIMESTAMP PUSH2 0x29A SWAP2 SWAP1 PUSH2 0x44E JUMP JUMPDEST PUSH2 0x2A4 SWAP2 SWAP1 PUSH2 0x465 JUMP JUMPDEST PUSH1 0x3 SLOAD SWAP1 SWAP2 POP PUSH1 0x0 SWAP1 JUMPDEST PUSH1 0x37 DUP2 GT PUSH2 0x2EA JUMPI PUSH2 0x2D6 DUP3 DUP7 DUP4 PUSH1 0x37 DUP2 LT PUSH2 0x2CC JUMPI PUSH2 0x2CC PUSH2 0x487 JUMP JUMPDEST PUSH1 0x20 MUL ADD MLOAD PUSH2 0x39F JUMP JUMPDEST SWAP2 POP DUP1 PUSH2 0x2E2 DUP2 PUSH2 0x49D JUMP JUMPDEST SWAP2 POP POP PUSH2 0x2AE JUMP JUMPDEST POP PUSH2 0x2F6 DUP3 PUSH1 0x1 PUSH2 0x4B8 JUMP JUMPDEST PUSH1 0x3 SSTORE DUP1 PUSH2 0x36C JUMPI PUSH1 0x40 MLOAD PUSH3 0x461BCD PUSH1 0xE5 SHL DUP2 MSTORE PUSH1 0x20 PUSH1 0x4 DUP3 ADD MSTORE PUSH1 0x26 PUSH1 0x24 DUP3 ADD MSTORE PUSH32 0x4C6F636B61626C653A2054686572652773206E6F7468696E6720746F20636C61 PUSH1 0x44 DUP3 ADD MSTORE PUSH32 0x696D207965740000000000000000000000000000000000000000000000000000 PUSH1 0x64 DUP3 ADD MSTORE PUSH1 0x84 ADD PUSH2 0x1A0 JUMP JUMPDEST SWAP4 SWAP3 POP POP POP JUMP JUMPDEST PUSH1 0x0 DUP2 DUP5 DUP5 GT ISZERO PUSH2 0x397 JUMPI PUSH1 0x40 MLOAD PUSH3 0x461BCD PUSH1 0xE5 SHL DUP2 MSTORE PUSH1 0x4 ADD PUSH2 0x1A0 SWAP2 SWAP1 PUSH2 0x4D0 JUMP JUMPDEST POP POP POP SWAP1 SUB SWAP1 JUMP JUMPDEST PUSH1 0x0 PUSH2 0x36C DUP3 DUP5 PUSH2 0x4B8 JUMP JUMPDEST PUSH1 0x0 PUSH2 0x6E0 DUP1 DUP4 DUP6 SUB SLT ISZERO PUSH2 0x3BF JUMPI PUSH1 0x0 DUP1 REVERT JUMPDEST DUP4 PUSH1 0x1F DUP5 ADD SLT PUSH2 0x3CE JUMPI PUSH1 0x0 DUP1 REVERT JUMPDEST PUSH1 0x40 MLOAD DUP2 DUP2 ADD DUP2 DUP2 LT PUSH8 0xFFFFFFFFFFFFFFFF DUP3 GT OR ISZERO PUSH2 0x3FE JUMPI PUSH4 0x4E487B71 PUSH1 0xE0 SHL PUSH1 0x0 MSTORE PUSH1 0x41 PUSH1 0x4 MSTORE PUSH1 0x24 PUSH1 0x0 REVERT JUMPDEST PUSH1 0x40 MSTORE SWAP1 DUP4 ADD SWAP1 DUP1 DUP6 DUP4 GT ISZERO PUSH2 0x413 JUMPI PUSH1 0x0 DUP1 REVERT JUMPDEST DUP5 JUMPDEST DUP4 DUP2 LT ISZERO PUSH2 0x42D JUMPI DUP1 CALLDATALOAD DUP3 MSTORE PUSH1 0x20 SWAP2 DUP3 ADD SWAP2 ADD PUSH2 0x415 JUMP JUMPDEST POP SWAP1 SWAP6 SWAP5 POP POP POP POP POP JUMP JUMPDEST PUSH4 0x4E487B71 PUSH1 0xE0 SHL PUSH1 0x0 MSTORE PUSH1 0x11 PUSH1 0x4 MSTORE PUSH1 0x24 PUSH1 0x0 REVERT JUMPDEST PUSH1 0x0 DUP3 DUP3 LT ISZERO PUSH2 0x460 JUMPI PUSH2 0x460 PUSH2 0x438 JUMP JUMPDEST POP SUB SWAP1 JUMP JUMPDEST PUSH1 0x0 DUP3 PUSH2 0x482 JUMPI PUSH4 0x4E487B71 PUSH1 0xE0 SHL PUSH1 0x0 MSTORE PUSH1 0x12 PUSH1 0x4 MSTORE PUSH1 0x24 PUSH1 0x0 REVERT JUMPDEST POP DIV SWAP1 JUMP JUMPDEST PUSH4 0x4E487B71 PUSH1 0xE0 SHL PUSH1 0x0 MSTORE PUSH1 0x32 PUSH1 0x4 MSTORE PUSH1 0x24 PUSH1 0x0 REVERT JUMPDEST PUSH1 0x0 PUSH1 0x0 NOT DUP3 EQ ISZERO PUSH2 0x4B1 JUMPI PUSH2 0x4B1 PUSH2 0x438 JUMP JUMPDEST POP PUSH1 0x1 ADD SWAP1 JUMP JUMPDEST PUSH1 0x0 DUP3 NOT DUP3 GT ISZERO PUSH2 0x4CB JUMPI PUSH2 0x4CB PUSH2 0x438 JUMP JUMPDEST POP ADD SWAP1 JUMP JUMPDEST PUSH1 0x0 PUSH1 0x20 DUP1 DUP4 MSTORE DUP4 MLOAD DUP1 DUP3 DUP6 ADD MSTORE PUSH1 0x0 JUMPDEST DUP2 DUP2 LT ISZERO PUSH2 0x4FD JUMPI DUP6 DUP2 ADD DUP4 ADD MLOAD DUP6 DUP3 ADD PUSH1 0x40 ADD MSTORE DUP3 ADD PUSH2 0x4E1 JUMP JUMPDEST DUP2 DUP2 GT ISZERO PUSH2 0x50F JUMPI PUSH1 0x0 PUSH1 0x40 DUP4 DUP8 ADD ADD MSTORE JUMPDEST POP PUSH1 0x1F ADD PUSH1 0x1F NOT AND SWAP3 SWAP1 SWAP3 ADD PUSH1 0x40 ADD SWAP4 SWAP3 POP POP POP JUMP INVALID 0x4C PUSH16 0x636B61626C653A2043616E6E6F742073 PUSH22 0x6273747261637420746F74616C20616D6F756E742077 PUSH10 0x746820636C61696D6162 PUSH13 0x65A2646970667358221220FB2F CODESIZE 0xDC 0xBB 0xAF GAS POP CALLDATALOAD OR LOG2 PUSH31 0x6DA2F083EE0AF791A67966FC6D802B2B440EE28264736F6C634300080B0033 "
		},
		"gasEstimates": {
			"creation": {
				"codeDepositCost": "4868600",
				"executionCost": "infinite",
				"totalCost": "infinite"
			},
			"external": {
				"": "infinite",
				"_startPrivateSale()": "2374",
				"_taxFee()": "2458",
				"addMultipleBeneficiary((address,uint256)[])": "infinite",
				"airdropSince()": "2352",
				"airdropStatus()": "2401",
				"airdropWeek()": "4663",
				"allowance(address,address)": "infinite",
				"approve(address,uint256)": "24736",
				"balanceOf(address)": "2654",
				"burn(uint256)": "50990",
				"burnFrom(address,uint256)": "infinite",
				"burnLiquidityReserve(uint256)": "infinite",
				"burnStakingReward(uint256)": "infinite",
				"changeAirdropPercentage(uint256)": "27150",
				"changePenaltyFee(uint256)": "27163",
				"changeTaxFee(uint16)": "infinite",
				"claimAirdrop()": "infinite",
				"claimPrivateSale()": "infinite",
				"decimals()": "290",
				"decreaseAllowance(address,uint256)": "26984",
				"deleteMultipleBeneficiary(address[])": "infinite",
				"dev_pool_address_1()": "307",
				"dev_pool_address_2()": "350",
				"dev_pool_address_3()": "328",
				"hasMultilockable()": "11383",
				"hasStake(address)": "infinite",
				"increaseAllowance(address,uint256)": "27056",
				"initiateLockedWalletprivateSale_Airdrop()": "infinite",
				"lockedWalletStatus()": "2410",
				"mint(address,uint256)": "infinite",
				"mintLiquidityReserve(uint256)": "infinite",
				"mintStakingReward(uint256)": "infinite",
				"name()": "infinite",
				"owner()": "2399",
				"penaltyFee()": "2350",
				"phase_1_total()": "296",
				"phase_2_total()": "316",
				"privateSale()": "2396",
				"privateSaleStatus()": "2411",
				"private_placement_address()": "327",
				"public_sale_address()": "284",
				"renounceOwnership()": "infinite",
				"stake(uint256,uint256)": "infinite",
				"stakingReward()": "2354",
				"strategic_partner_address_1()": "283",
				"strategic_partner_address_2()": "328",
				"strategic_partner_address_3()": "283",
				"symbol()": "infinite",
				"team_and_project_coordinator_address_1()": "306",
				"team_and_project_coordinator_address_2()": "307",
				"team_and_project_coordinator_address_3()": "326",
				"totalAmount()": "2353",
				"totalSupply()": "2394",
				"totalUser()": "2395",
				"transfer(address,uint256)": "infinite",
				"transferFrom(address,address,uint256)": "infinite",
				"transferOwnership(address)": "infinite",
				"unlockDevPoolWallet_1()": "infinite",
				"unlockDevPoolWallet_2()": "infinite",
				"unlockDevPoolWallet_3()": "infinite",
				"unlockPrivatePlacementWallet()": "infinite",
				"unlockStrategicPartnerWallet_1()": "infinite",
				"unlockStrategicPartnerWallet_2()": "infinite",
				"unlockStrategicPartnerWallet_3()": "infinite",
				"unlockTeamAndProjectCoordinatorWallet_1()": "infinite",
				"unlockTeamAndProjectCoordinatorWallet_2()": "infinite",
				"unlockTeamAndProjectCoordinatorWallet_3()": "infinite",
				"withdrawStake(uint256)": "infinite"
			},
			"internal": {
				"_addThirdOfValue(uint256)": "infinite",
				"_burn(address,uint256)": "infinite",
				"_mintStakingReward(uint256)": "infinite",
				"_spendAllowance(address,address,uint256)": "infinite",
				"_transfer(address,address,uint256)": "infinite",
				"devPoolReleaseAmount()": "infinite",
				"privatePlacementReleaseAmount()": "infinite",
				"strategicPartnerReleaseAmount()": "infinite",
				"teamAndProjectCoordinatorReleaseAmount()": "infinite"
			}
		},
		"methodIdentifiers": {
			"_startPrivateSale()": "72fe1e63",
			"_taxFee()": "3b124fe7",
			"addMultipleBeneficiary((address,uint256)[])": "078f522f",
			"airdropSince()": "b87da76d",
			"airdropStatus()": "2cf1a5fb",
			"airdropWeek()": "cbb3e152",
			"allowance(address,address)": "dd62ed3e",
			"approve(address,uint256)": "095ea7b3",
			"balanceOf(address)": "70a08231",
			"burn(uint256)": "42966c68",
			"burnFrom(address,uint256)": "79cc6790",
			"burnLiquidityReserve(uint256)": "8b7c64da",
			"burnStakingReward(uint256)": "0e1b09ed",
			"changeAirdropPercentage(uint256)": "d5dbdf1b",
			"changePenaltyFee(uint256)": "8c63f97f",
			"changeTaxFee(uint16)": "8902cd70",
			"claimAirdrop()": "5b88349d",
			"claimPrivateSale()": "7c2412f9",
			"decimals()": "313ce567",
			"decreaseAllowance(address,uint256)": "a457c2d7",
			"deleteMultipleBeneficiary(address[])": "a1f780cf",
			"dev_pool_address_1()": "8abb1d17",
			"dev_pool_address_2()": "be472794",
			"dev_pool_address_3()": "9f42a98b",
			"hasMultilockable()": "19ca147d",
			"hasStake(address)": "e73e14bf",
			"increaseAllowance(address,uint256)": "39509351",
			"initiateLockedWalletprivateSale_Airdrop()": "96bc0687",
			"lockedWalletStatus()": "e88c326f",
			"mint(address,uint256)": "40c10f19",
			"mintLiquidityReserve(uint256)": "d94d4ad6",
			"mintStakingReward(uint256)": "a169c515",
			"name()": "06fdde03",
			"owner()": "8da5cb5b",
			"penaltyFee()": "3dc10ad4",
			"phase_1_total()": "760edffd",
			"phase_2_total()": "fe6c9cc0",
			"privateSale()": "ba1f879f",
			"privateSaleStatus()": "376d441c",
			"private_placement_address()": "a837a65e",
			"public_sale_address()": "50549c7d",
			"renounceOwnership()": "715018a6",
			"stake(uint256,uint256)": "7b0472f0",
			"stakingReward()": "042249bb",
			"strategic_partner_address_1()": "c680111c",
			"strategic_partner_address_2()": "a3626dbb",
			"strategic_partner_address_3()": "d9dc2d8d",
			"symbol()": "95d89b41",
			"team_and_project_coordinator_address_1()": "908e0d1e",
			"team_and_project_coordinator_address_2()": "21aeac1b",
			"team_and_project_coordinator_address_3()": "f5ad7c3d",
			"totalAmount()": "1a39d8ef",
			"totalSupply()": "18160ddd",
			"totalUser()": "e1604b70",
			"transfer(address,uint256)": "a9059cbb",
			"transferFrom(address,address,uint256)": "23b872dd",
			"transferOwnership(address)": "f2fde38b",
			"unlockDevPoolWallet_1()": "b8b18e89",
			"unlockDevPoolWallet_2()": "eb9f4ac7",
			"unlockDevPoolWallet_3()": "84f3996d",
			"unlockPrivatePlacementWallet()": "934851ec",
			"unlockStrategicPartnerWallet_1()": "8378a875",
			"unlockStrategicPartnerWallet_2()": "15441bb9",
			"unlockStrategicPartnerWallet_3()": "883d9984",
			"unlockTeamAndProjectCoordinatorWallet_1()": "56029137",
			"unlockTeamAndProjectCoordinatorWallet_2()": "90a4c709",
			"unlockTeamAndProjectCoordinatorWallet_3()": "3f3ef2dc",
			"withdrawStake(uint256)": "25d5971f"
		}
	},
	"abi": [
		{
			"inputs": [],
			"stateMutability": "nonpayable",
			"type": "constructor"
		},
		{
			"anonymous": false,
			"inputs": [
				{
					"indexed": true,
					"internalType": "address",
					"name": "from",
					"type": "address"
				},
				{
					"indexed": true,
					"internalType": "address",
					"name": "who",
					"type": "address"
				},
				{
					"indexed": false,
					"internalType": "uint256",
					"name": "amount",
					"type": "uint256"
				}
			],
			"name": "AddPrivateSale",
			"type": "event"
		},
		{
			"anonymous": false,
			"inputs": [
				{
					"indexed": false,
					"internalType": "uint256",
					"name": "amount",
					"type": "uint256"
				}
			],
			"name": "AirdropChanged",
			"type": "event"
		},
		{
			"anonymous": false,
			"inputs": [
				{
					"indexed": true,
					"internalType": "address",
					"name": "owner",
					"type": "address"
				},
				{
					"indexed": true,
					"internalType": "address",
					"name": "spender",
					"type": "address"
				},
				{
					"indexed": false,
					"internalType": "uint256",
					"name": "value",
					"type": "uint256"
				}
			],
			"name": "Approval",
			"type": "event"
		},
		{
			"anonymous": false,
			"inputs": [
				{
					"indexed": true,
					"internalType": "address",
					"name": "from",
					"type": "address"
				},
				{
					"indexed": false,
					"internalType": "uint256",
					"name": "amount",
					"type": "uint256"
				}
			],
			"name": "ChangeAirdropPercentage",
			"type": "event"
		},
		{
			"anonymous": false,
			"inputs": [
				{
					"indexed": true,
					"internalType": "address",
					"name": "who",
					"type": "address"
				},
				{
					"indexed": false,
					"internalType": "bool",
					"name": "status",
					"type": "bool"
				}
			],
			"name": "ChangeAirdropStatus",
			"type": "event"
		},
		{
			"anonymous": false,
			"inputs": [
				{
					"indexed": true,
					"internalType": "address",
					"name": "from",
					"type": "address"
				},
				{
					"indexed": false,
					"internalType": "uint256",
					"name": "amount",
					"type": "uint256"
				}
			],
			"name": "ChangePenaltyFee",
			"type": "event"
		},
		{
			"anonymous": false,
			"inputs": [
				{
					"indexed": true,
					"internalType": "address",
					"name": "who",
					"type": "address"
				},
				{
					"indexed": false,
					"internalType": "uint256",
					"name": "amount",
					"type": "uint256"
				}
			],
			"name": "ChangeTax",
			"type": "event"
		},
		{
			"anonymous": false,
			"inputs": [
				{
					"indexed": true,
					"internalType": "address",
					"name": "from",
					"type": "address"
				},
				{
					"indexed": true,
					"internalType": "address",
					"name": "who",
					"type": "address"
				}
			],
			"name": "DeletePrivateSale",
			"type": "event"
		},
		{
			"anonymous": false,
			"inputs": [
				{
					"indexed": true,
					"internalType": "address",
					"name": "from",
					"type": "address"
				}
			],
			"name": "InitiateLockedWallet",
			"type": "event"
		},
		{
			"anonymous": false,
			"inputs": [
				{
					"indexed": true,
					"internalType": "address",
					"name": "from",
					"type": "address"
				}
			],
			"name": "InitiatePrivateSale",
			"type": "event"
		},
		{
			"anonymous": false,
			"inputs": [
				{
					"indexed": true,
					"internalType": "address",
					"name": "previousOwner",
					"type": "address"
				},
				{
					"indexed": true,
					"internalType": "address",
					"name": "newOwner",
					"type": "address"
				}
			],
			"name": "OwnershipTransferred",
			"type": "event"
		},
		{
			"anonymous": false,
			"inputs": [
				{
					"indexed": false,
					"internalType": "uint256",
					"name": "amount",
					"type": "uint256"
				}
			],
			"name": "PenaltyChanged",
			"type": "event"
		},
		{
			"anonymous": false,
			"inputs": [
				{
					"indexed": true,
					"internalType": "address",
					"name": "user",
					"type": "address"
				},
				{
					"indexed": false,
					"internalType": "uint256",
					"name": "amount",
					"type": "uint256"
				},
				{
					"indexed": false,
					"internalType": "uint256",
					"name": "timestamp",
					"type": "uint256"
				},
				{
					"indexed": false,
					"internalType": "uint256",
					"name": "releaseTime",
					"type": "uint256"
				}
			],
			"name": "Staked",
			"type": "event"
		},
		{
			"anonymous": false,
			"inputs": [
				{
					"indexed": true,
					"internalType": "address",
					"name": "from",
					"type": "address"
				},
				{
					"indexed": true,
					"internalType": "address",
					"name": "to",
					"type": "address"
				},
				{
					"indexed": false,
					"internalType": "uint256",
					"name": "value",
					"type": "uint256"
				}
			],
			"name": "Transfer",
			"type": "event"
		},
		{
			"anonymous": false,
			"inputs": [
				{
					"indexed": true,
					"internalType": "address",
					"name": "from",
					"type": "address"
				},
				{
					"indexed": true,
					"internalType": "address",
					"name": "to",
					"type": "address"
				},
				{
					"indexed": false,
					"internalType": "uint256",
					"name": "amount",
					"type": "uint256"
				}
			],
			"name": "TransferStakingReward",
			"type": "event"
		},
		{
			"stateMutability": "payable",
			"type": "fallback"
		},
		{
			"inputs": [],
			"name": "_startPrivateSale",
			"outputs": [
				{
					"internalType": "uint256",
					"name": "",
					"type": "uint256"
				}
			],
			"stateMutability": "view",
			"type": "function"
		},
		{
			"inputs": [],
			"name": "_taxFee",
			"outputs": [
				{
					"internalType": "uint16",
					"name": "",
					"type": "uint16"
				}
			],
			"stateMutability": "view",
			"type": "function"
		},
		{
			"inputs": [
				{
					"components": [
						{
							"internalType": "address",
							"name": "user",
							"type": "address"
						},
						{
							"internalType": "uint256",
							"name": "amount",
							"type": "uint256"
						}
					],
					"internalType": "struct TalaxToken.Beneficiary[]",
					"name": "benefs",
					"type": "tuple[]"
				}
			],
			"name": "addMultipleBeneficiary",
			"outputs": [],
			"stateMutability": "nonpayable",
			"type": "function"
		},
		{
			"inputs": [],
			"name": "airdropSince",
			"outputs": [
				{
					"internalType": "uint256",
					"name": "",
					"type": "uint256"
				}
			],
			"stateMutability": "view",
			"type": "function"
		},
		{
			"inputs": [],
			"name": "airdropStatus",
			"outputs": [
				{
					"internalType": "bool",
					"name": "",
					"type": "bool"
				}
			],
			"stateMutability": "view",
			"type": "function"
		},
		{
			"inputs": [],
			"name": "airdropWeek",
			"outputs": [
				{
					"internalType": "uint256",
					"name": "",
					"type": "uint256"
				}
			],
			"stateMutability": "view",
			"type": "function"
		},
		{
			"inputs": [
				{
					"internalType": "address",
					"name": "owner",
					"type": "address"
				},
				{
					"internalType": "address",
					"name": "spender",
					"type": "address"
				}
			],
			"name": "allowance",
			"outputs": [
				{
					"internalType": "uint256",
					"name": "",
					"type": "uint256"
				}
			],
			"stateMutability": "view",
			"type": "function"
		},
		{
			"inputs": [
				{
					"internalType": "address",
					"name": "spender",
					"type": "address"
				},
				{
					"internalType": "uint256",
					"name": "amount",
					"type": "uint256"
				}
			],
			"name": "approve",
			"outputs": [
				{
					"internalType": "bool",
					"name": "",
					"type": "bool"
				}
			],
			"stateMutability": "nonpayable",
			"type": "function"
		},
		{
			"inputs": [
				{
					"internalType": "address",
					"name": "account",
					"type": "address"
				}
			],
			"name": "balanceOf",
			"outputs": [
				{
					"internalType": "uint256",
					"name": "",
					"type": "uint256"
				}
			],
			"stateMutability": "view",
			"type": "function"
		},
		{
			"inputs": [
				{
					"internalType": "uint256",
					"name": "amount",
					"type": "uint256"
				}
			],
			"name": "burn",
			"outputs": [],
			"stateMutability": "nonpayable",
			"type": "function"
		},
		{
			"inputs": [
				{
					"internalType": "address",
					"name": "account",
					"type": "address"
				},
				{
					"internalType": "uint256",
					"name": "amount",
					"type": "uint256"
				}
			],
			"name": "burnFrom",
			"outputs": [],
			"stateMutability": "nonpayable",
			"type": "function"
		},
		{
			"inputs": [
				{
					"internalType": "uint256",
					"name": "amount_",
					"type": "uint256"
				}
			],
			"name": "burnLiquidityReserve",
			"outputs": [],
			"stateMutability": "nonpayable",
			"type": "function"
		},
		{
			"inputs": [
				{
					"internalType": "uint256",
					"name": "amount_",
					"type": "uint256"
				}
			],
			"name": "burnStakingReward",
			"outputs": [],
			"stateMutability": "nonpayable",
			"type": "function"
		},
		{
			"inputs": [
				{
					"internalType": "uint256",
					"name": "airdrop_",
					"type": "uint256"
				}
			],
			"name": "changeAirdropPercentage",
			"outputs": [],
			"stateMutability": "nonpayable",
			"type": "function"
		},
		{
			"inputs": [
				{
					"internalType": "uint256",
					"name": "penaltyFee_",
					"type": "uint256"
				}
			],
			"name": "changePenaltyFee",
			"outputs": [],
			"stateMutability": "nonpayable",
			"type": "function"
		},
		{
			"inputs": [
				{
					"internalType": "uint16",
					"name": "taxFee_",
					"type": "uint16"
				}
			],
			"name": "changeTaxFee",
			"outputs": [],
			"stateMutability": "nonpayable",
			"type": "function"
		},
		{
			"inputs": [],
			"name": "claimAirdrop",
			"outputs": [],
			"stateMutability": "nonpayable",
			"type": "function"
		},
		{
			"inputs": [],
			"name": "claimPrivateSale",
			"outputs": [],
			"stateMutability": "nonpayable",
			"type": "function"
		},
		{
			"inputs": [],
			"name": "decimals",
			"outputs": [
				{
					"internalType": "uint8",
					"name": "",
					"type": "uint8"
				}
			],
			"stateMutability": "view",
			"type": "function"
		},
		{
			"inputs": [
				{
					"internalType": "address",
					"name": "spender",
					"type": "address"
				},
				{
					"internalType": "uint256",
					"name": "subtractedValue",
					"type": "uint256"
				}
			],
			"name": "decreaseAllowance",
			"outputs": [
				{
					"internalType": "bool",
					"name": "",
					"type": "bool"
				}
			],
			"stateMutability": "nonpayable",
			"type": "function"
		},
		{
			"inputs": [
				{
					"internalType": "address[]",
					"name": "benefs",
					"type": "address[]"
				}
			],
			"name": "deleteMultipleBeneficiary",
			"outputs": [],
			"stateMutability": "nonpayable",
			"type": "function"
		},
		{
			"inputs": [],
			"name": "dev_pool_address_1",
			"outputs": [
				{
					"internalType": "address",
					"name": "",
					"type": "address"
				}
			],
			"stateMutability": "view",
			"type": "function"
		},
		{
			"inputs": [],
			"name": "dev_pool_address_2",
			"outputs": [
				{
					"internalType": "address",
					"name": "",
					"type": "address"
				}
			],
			"stateMutability": "view",
			"type": "function"
		},
		{
			"inputs": [],
			"name": "dev_pool_address_3",
			"outputs": [
				{
					"internalType": "address",
					"name": "",
					"type": "address"
				}
			],
			"stateMutability": "view",
			"type": "function"
		},
		{
			"inputs": [],
			"name": "hasMultilockable",
			"outputs": [
				{
					"components": [
						{
							"internalType": "uint256",
							"name": "lockedAmount",
							"type": "uint256"
						},
						{
							"internalType": "uint256",
							"name": "amount",
							"type": "uint256"
						},
						{
							"internalType": "bool",
							"name": "phase_1_claimed",
							"type": "bool"
						},
						{
							"internalType": "uint256",
							"name": "latestClaimDay",
							"type": "uint256"
						}
					],
					"internalType": "struct Multilockable.Multilock",
					"name": "",
					"type": "tuple"
				}
			],
			"stateMutability": "view",
			"type": "function"
		},
		{
			"inputs": [
				{
					"internalType": "address",
					"name": "_staker",
					"type": "address"
				}
			],
			"name": "hasStake",
			"outputs": [
				{
					"components": [
						{
							"internalType": "uint256",
							"name": "total_amount",
							"type": "uint256"
						},
						{
							"internalType": "uint256",
							"name": "penalty",
							"type": "uint256"
						},
						{
							"components": [
								{
									"internalType": "address",
									"name": "user",
									"type": "address"
								},
								{
									"internalType": "uint256",
									"name": "amount",
									"type": "uint256"
								},
								{
									"internalType": "uint256",
									"name": "since",
									"type": "uint256"
								},
								{
									"internalType": "uint256",
									"name": "claimable",
									"type": "uint256"
								},
								{
									"internalType": "uint256",
									"name": "claimable_airdrop",
									"type": "uint256"
								},
								{
									"internalType": "uint256",
									"name": "rewardAPY",
									"type": "uint256"
								},
								{
									"internalType": "uint256",
									"name": "releaseTime",
									"type": "uint256"
								}
							],
							"internalType": "struct Stakable.Stake",
							"name": "stake",
							"type": "tuple"
						}
					],
					"internalType": "struct Stakable.StakingSummary",
					"name": "",
					"type": "tuple"
				}
			],
			"stateMutability": "view",
			"type": "function"
		},
		{
			"inputs": [
				{
					"internalType": "address",
					"name": "spender",
					"type": "address"
				},
				{
					"internalType": "uint256",
					"name": "addedValue",
					"type": "uint256"
				}
			],
			"name": "increaseAllowance",
			"outputs": [
				{
					"internalType": "bool",
					"name": "",
					"type": "bool"
				}
			],
			"stateMutability": "nonpayable",
			"type": "function"
		},
		{
			"inputs": [],
			"name": "initiateLockedWalletprivateSale_Airdrop",
			"outputs": [],
			"stateMutability": "nonpayable",
			"type": "function"
		},
		{
			"inputs": [],
			"name": "lockedWalletStatus",
			"outputs": [
				{
					"internalType": "bool",
					"name": "",
					"type": "bool"
				}
			],
			"stateMutability": "view",
			"type": "function"
		},
		{
			"inputs": [
				{
					"internalType": "address",
					"name": "to",
					"type": "address"
				},
				{
					"internalType": "uint256",
					"name": "amount",
					"type": "uint256"
				}
			],
			"name": "mint",
			"outputs": [],
			"stateMutability": "nonpayable",
			"type": "function"
		},
		{
			"inputs": [
				{
					"internalType": "uint256",
					"name": "amount_",
					"type": "uint256"
				}
			],
			"name": "mintLiquidityReserve",
			"outputs": [],
			"stateMutability": "nonpayable",
			"type": "function"
		},
		{
			"inputs": [
				{
					"internalType": "uint256",
					"name": "amount_",
					"type": "uint256"
				}
			],
			"name": "mintStakingReward",
			"outputs": [],
			"stateMutability": "nonpayable",
			"type": "function"
		},
		{
			"inputs": [],
			"name": "name",
			"outputs": [
				{
					"internalType": "string",
					"name": "",
					"type": "string"
				}
			],
			"stateMutability": "view",
			"type": "function"
		},
		{
			"inputs": [],
			"name": "owner",
			"outputs": [
				{
					"internalType": "address",
					"name": "",
					"type": "address"
				}
			],
			"stateMutability": "view",
			"type": "function"
		},
		{
			"inputs": [],
			"name": "penaltyFee",
			"outputs": [
				{
					"internalType": "uint256",
					"name": "",
					"type": "uint256"
				}
			],
			"stateMutability": "view",
			"type": "function"
		},
		{
			"inputs": [],
			"name": "phase_1_total",
			"outputs": [
				{
					"internalType": "uint256",
					"name": "",
					"type": "uint256"
				}
			],
			"stateMutability": "view",
			"type": "function"
		},
		{
			"inputs": [],
			"name": "phase_2_total",
			"outputs": [
				{
					"internalType": "uint256",
					"name": "",
					"type": "uint256"
				}
			],
			"stateMutability": "view",
			"type": "function"
		},
		{
			"inputs": [],
			"name": "privateSale",
			"outputs": [
				{
					"internalType": "uint256",
					"name": "",
					"type": "uint256"
				}
			],
			"stateMutability": "view",
			"type": "function"
		},
		{
			"inputs": [],
			"name": "privateSaleStatus",
			"outputs": [
				{
					"internalType": "bool",
					"name": "",
					"type": "bool"
				}
			],
			"stateMutability": "view",
			"type": "function"
		},
		{
			"inputs": [],
			"name": "private_placement_address",
			"outputs": [
				{
					"internalType": "address",
					"name": "",
					"type": "address"
				}
			],
			"stateMutability": "view",
			"type": "function"
		},
		{
			"inputs": [],
			"name": "public_sale_address",
			"outputs": [
				{
					"internalType": "address",
					"name": "",
					"type": "address"
				}
			],
			"stateMutability": "view",
			"type": "function"
		},
		{
			"inputs": [],
			"name": "renounceOwnership",
			"outputs": [],
			"stateMutability": "nonpayable",
			"type": "function"
		},
		{
			"inputs": [
				{
					"internalType": "uint256",
					"name": "_amount",
					"type": "uint256"
				},
				{
					"internalType": "uint256",
					"name": "_stakePeriod",
					"type": "uint256"
				}
			],
			"name": "stake",
			"outputs": [],
			"stateMutability": "nonpayable",
			"type": "function"
		},
		{
			"inputs": [],
			"name": "stakingReward",
			"outputs": [
				{
					"internalType": "uint256",
					"name": "",
					"type": "uint256"
				}
			],
			"stateMutability": "view",
			"type": "function"
		},
		{
			"inputs": [],
			"name": "strategic_partner_address_1",
			"outputs": [
				{
					"internalType": "address",
					"name": "",
					"type": "address"
				}
			],
			"stateMutability": "view",
			"type": "function"
		},
		{
			"inputs": [],
			"name": "strategic_partner_address_2",
			"outputs": [
				{
					"internalType": "address",
					"name": "",
					"type": "address"
				}
			],
			"stateMutability": "view",
			"type": "function"
		},
		{
			"inputs": [],
			"name": "strategic_partner_address_3",
			"outputs": [
				{
					"internalType": "address",
					"name": "",
					"type": "address"
				}
			],
			"stateMutability": "view",
			"type": "function"
		},
		{
			"inputs": [],
			"name": "symbol",
			"outputs": [
				{
					"internalType": "string",
					"name": "",
					"type": "string"
				}
			],
			"stateMutability": "view",
			"type": "function"
		},
		{
			"inputs": [],
			"name": "team_and_project_coordinator_address_1",
			"outputs": [
				{
					"internalType": "address",
					"name": "",
					"type": "address"
				}
			],
			"stateMutability": "view",
			"type": "function"
		},
		{
			"inputs": [],
			"name": "team_and_project_coordinator_address_2",
			"outputs": [
				{
					"internalType": "address",
					"name": "",
					"type": "address"
				}
			],
			"stateMutability": "view",
			"type": "function"
		},
		{
			"inputs": [],
			"name": "team_and_project_coordinator_address_3",
			"outputs": [
				{
					"internalType": "address",
					"name": "",
					"type": "address"
				}
			],
			"stateMutability": "view",
			"type": "function"
		},
		{
			"inputs": [],
			"name": "totalAmount",
			"outputs": [
				{
					"internalType": "uint256",
					"name": "",
					"type": "uint256"
				}
			],
			"stateMutability": "view",
			"type": "function"
		},
		{
			"inputs": [],
			"name": "totalSupply",
			"outputs": [
				{
					"internalType": "uint256",
					"name": "",
					"type": "uint256"
				}
			],
			"stateMutability": "view",
			"type": "function"
		},
		{
			"inputs": [],
			"name": "totalUser",
			"outputs": [
				{
					"internalType": "uint256",
					"name": "",
					"type": "uint256"
				}
			],
			"stateMutability": "view",
			"type": "function"
		},
		{
			"inputs": [
				{
					"internalType": "address",
					"name": "to",
					"type": "address"
				},
				{
					"internalType": "uint256",
					"name": "amount",
					"type": "uint256"
				}
			],
			"name": "transfer",
			"outputs": [
				{
					"internalType": "bool",
					"name": "",
					"type": "bool"
				}
			],
			"stateMutability": "nonpayable",
			"type": "function"
		},
		{
			"inputs": [
				{
					"internalType": "address",
					"name": "from",
					"type": "address"
				},
				{
					"internalType": "address",
					"name": "to",
					"type": "address"
				},
				{
					"internalType": "uint256",
					"name": "amount",
					"type": "uint256"
				}
			],
			"name": "transferFrom",
			"outputs": [
				{
					"internalType": "bool",
					"name": "",
					"type": "bool"
				}
			],
			"stateMutability": "nonpayable",
			"type": "function"
		},
		{
			"inputs": [
				{
					"internalType": "address",
					"name": "newOwner",
					"type": "address"
				}
			],
			"name": "transferOwnership",
			"outputs": [],
			"stateMutability": "nonpayable",
			"type": "function"
		},
		{
			"inputs": [],
			"name": "unlockDevPoolWallet_1",
			"outputs": [],
			"stateMutability": "nonpayable",
			"type": "function"
		},
		{
			"inputs": [],
			"name": "unlockDevPoolWallet_2",
			"outputs": [],
			"stateMutability": "nonpayable",
			"type": "function"
		},
		{
			"inputs": [],
			"name": "unlockDevPoolWallet_3",
			"outputs": [],
			"stateMutability": "nonpayable",
			"type": "function"
		},
		{
			"inputs": [],
			"name": "unlockPrivatePlacementWallet",
			"outputs": [],
			"stateMutability": "nonpayable",
			"type": "function"
		},
		{
			"inputs": [],
			"name": "unlockStrategicPartnerWallet_1",
			"outputs": [],
			"stateMutability": "nonpayable",
			"type": "function"
		},
		{
			"inputs": [],
			"name": "unlockStrategicPartnerWallet_2",
			"outputs": [],
			"stateMutability": "nonpayable",
			"type": "function"
		},
		{
			"inputs": [],
			"name": "unlockStrategicPartnerWallet_3",
			"outputs": [],
			"stateMutability": "nonpayable",
			"type": "function"
		},
		{
			"inputs": [],
			"name": "unlockTeamAndProjectCoordinatorWallet_1",
			"outputs": [],
			"stateMutability": "nonpayable",
			"type": "function"
		},
		{
			"inputs": [],
			"name": "unlockTeamAndProjectCoordinatorWallet_2",
			"outputs": [],
			"stateMutability": "nonpayable",
			"type": "function"
		},
		{
			"inputs": [],
			"name": "unlockTeamAndProjectCoordinatorWallet_3",
			"outputs": [],
			"stateMutability": "nonpayable",
			"type": "function"
		},
		{
			"inputs": [
				{
					"internalType": "uint256",
					"name": "amount",
					"type": "uint256"
				}
			],
			"name": "withdrawStake",
			"outputs": [],
			"stateMutability": "nonpayable",
			"type": "function"
		},
		{
			"stateMutability": "payable",
			"type": "receive"
		}
	]
}