{
	"data": {
		"bytecode": {
			"linkReferences": {},
			"object": "60806040523480156200001157600080fd5b50600080546001600160a01b031916339081178255604051909182917f8be0079c531659141344cd1fd0a4f28419497f9722a3daafe3b4186f6b6457e0908290a35060018054810181556000526040805180820190915260088082526754414c415845554d60c01b60209092019182526200008f91600a91620005ee565b50604080518082019091526005808252640a8829882b60db1b6020909201918252620000be91600991620005ee565b506008805460ff191660121790556aadb53acfa41aee120000006007556a05c8d34a23da1650a00000600c8181556a22bdd88fed9efc6a000000600b9081556a0e7cbbd7aa8310ae400000600d556a2b6d4eb3e906bb84800000600e556014546001600160a01b03908116600090815260036020908152604080832096909655925460135490921681528490205590548251606081019093526026808452620001839391926200578090830139600754620005a660201b62001a38179092919060201c565b600781905550620001c2600b546040518060600160405280602681526020016200578060269139600754620005a660201b62001a38179092919060201c565b60078190555062000201600d546040518060600160405280602681526020016200578060269139600754620005a660201b62001a38179092919060201c565b6007556017546040516a22bdd88fed9efc6a000000916001600160a01b0316906200022c906200067d565b9182526001600160a01b03166020820152604001604051809103906000f0801580156200025d573d6000803e3d6000fd5b50601980546001600160a01b0319166001600160a01b039283161790556018546040516a1a0e626bf2373d4f8000009291909116906200029d906200067d565b9182526001600160a01b03166020820152604001604051809103906000f080158015620002ce573d6000803e3d6000fd5b50601a80546001600160a01b0319166001600160a01b03929092169190911790556040516a05c8d34a23da1650a00000906200030a906200068b565b908152602001604051809103906000f0801580156200032d573d6000803e3d6000fd5b50601b80546001600160a01b0319166001600160a01b03929092169190911790556040516a08af7623fb67bf1a8000009062000369906200068b565b908152602001604051809103906000f0801580156200038c573d6000803e3d6000fd5b50601c60006101000a8154816001600160a01b0302191690836001600160a01b03160217905550620003f56a22bdd88fed9efc6a0000006040518060600160405280602681526020016200578060269139600754620005a660201b62001a38179092919060201c565b6007819055506200043d6a1a0e626bf2373d4f8000006040518060600160405280602681526020016200578060269139600754620005a660201b62001a38179092919060201c565b600781905550620004856a05c8d34a23da1650a000006040518060600160405280602681526020016200578060269139600754620005a660201b62001a38179092919060201c565b600781905550620004cd6a08af7623fb67bf1a8000006040518060600160405280602681526020016200578060269139600754620005a660201b62001a38179092919060201c565b60078181556006805461ffff19166001178155600560208190527f4dc90b1db34d812c6b7e8d8f8fa8bb3eabe1414d64af072d5003e9ce2fd01fce557fd740a78bf8b31aadc8a4f4ebc25344c792b4858c94548820131f8435ecc6aa4e557fc7319ee9772ea0042079c858f4e5a9410f161f0e9618faa4fb8566bbec2ec059556301e13380600090815260087f2defc5000bd1ce6821731d58e552cdd6e3bfc901970bc0420668b1b7bed556ee55600390620005863390565b6001600160a01b031681526020810191909152604001600020556200076b565b60008184841115620005d65760405162461bcd60e51b8152600401620005cd9190620006b0565b60405180910390fd5b506000620005e5848662000708565b95945050505050565b828054620005fc906200072e565b90600052602060002090601f0160209004810192826200062057600085556200066b565b82601f106200063b57805160ff19168380011785556200066b565b828001600101855582156200066b579182015b828111156200066b5782518255916020019190600101906200064e565b506200067992915062000699565b5090565b61071d80620042d283390190565b610d9180620049ef83390190565b5b808211156200067957600081556001016200069a565b600060208083528351808285015260005b81811015620006df57858101830151858201604001528201620006c1565b81811115620006f2576000604083870101525b50601f01601f1916929092016040019392505050565b6000828210156200072957634e487b7160e01b600052601160045260246000fd5b500390565b600181811c908216806200074357607f821691505b602082108114156200076557634e487b7160e01b600052602260045260246000fd5b50919050565b613b57806200077b6000396000f3fe6080604052600436106102cd5760003560e01c8063a071dcf411610175578063dd62ed3e116100dc578063f13bdd7b11610095578063f6a27a511161006f578063f6a27a51146108d3578063f729b00f146108f3578063fa51c63314610913578063fba2981414610928576102d4565b8063f13bdd7b14610875578063f1fdf46914610893578063f2fde38b146108b3576102d4565b8063dd62ed3e1461078d578063ddbad8b8146107d3578063e39ca65814610800578063e73e14bf14610820578063eb02983d14610840578063ee3a91cc14610855576102d4565b8063b5838a271161012e578063b5838a27146106e5578063b5938d7314610703578063cf79d2f914610723578063d25812c614610738578063d871d7591461074d578063d94d4ad61461076d576102d4565b8063a071dcf41461062a578063a169c51514610643578063a457c2d714610663578063a9059cbb14610683578063ac227806146106a3578063b09d4b4e146106b8576102d4565b80633b124fe711610234578063715018a6116101ed578063893d20e8116101c7578063893d20e8146105d75780638da5cb5b146105d757806395d89b41146105f5578063a0712d681461060a576102d4565b8063715018a6146105825780637b0472f0146105975780638902cd70146105b7576102d4565b80633b124fe7146104b6578063402f3fc7146104e45780634376d45214610502578063494f2b3a146105175780635c01ca121461052c57806370a082311461054c576102d4565b8063242119b511610286578063242119b5146103e9578063269547ca1461040b578063275728c914610422578063313ce5671461045457806333872f7d146104765780633950935114610496576102d4565b806306fdde0314610316578063095ea7b3146103415780630e1b09ed14610371578063109c5ab01461039157806318160ddd146103b457806323b872dd146103c9576102d4565b366102d457005b6018546001600160a01b03166000908152600360205260409020546102f9903461093d565b6018546001600160a01b0316600090815260036020526040902055005b34801561032257600080fd5b5061032b6109aa565b60405161033891906135bf565b60405180910390f35b34801561034d57600080fd5b5061036161035c366004613629565b610a3c565b6040519015158152602001610338565b34801561037d57600080fd5b5061036161038c366004613655565b610a52565b34801561039d57600080fd5b506103a6610b10565b604051908152602001610338565b3480156103c057600080fd5b506007546103a6565b3480156103d557600080fd5b506103616103e436600461366e565b610b83565b3480156103f557600080fd5b506103fe610bec565b60405161033891906136d2565b34801561041757600080fd5b50610420610bfc565b005b34801561042e57600080fd5b50601b546001600160a01b03165b6040516001600160a01b039091168152602001610338565b34801561046057600080fd5b5060085460405160ff9091168152602001610338565b34801561048257600080fd5b50601c5461043c906001600160a01b031681565b3480156104a257600080fd5b506103616104b1366004613629565b610d63565b3480156104c257600080fd5b506006546104d19061ffff1681565b60405161ffff9091168152602001610338565b3480156104f057600080fd5b50601a546001600160a01b031661043c565b34801561050e57600080fd5b506103a6610d99565b34801561052357600080fd5b506103a6610de3565b34801561053857600080fd5b506104206105473660046136e1565b610e14565b34801561055857600080fd5b506103a66105673660046136e1565b6001600160a01b031660009081526003602052604090205490565b34801561058e57600080fd5b50610420610ec7565b3480156105a357600080fd5b506104206105b23660046136fe565b610f3b565b3480156105c357600080fd5b506103616105d2366004613720565b61105e565b3480156105e357600080fd5b506000546001600160a01b031661043c565b34801561060157600080fd5b5061032b6110a3565b34801561061657600080fd5b50610361610625366004613655565b6110b2565b34801561063657600080fd5b5060065461ffff166103a6565b34801561064f57600080fd5b5061036161065e366004613655565b6110e7565b34801561066f57600080fd5b5061036161067e366004613629565b611176565b34801561068f57600080fd5b5061036161069e366004613629565b6111c5565b3480156106af57600080fd5b506104206111d2565b3480156106c457600080fd5b506106d86106d33660046136e1565b61120c565b6040516103389190613744565b3480156106f157600080fd5b506019546001600160a01b031661043c565b34801561070f57600080fd5b50601a5461043c906001600160a01b031681565b34801561072f57600080fd5b506103a661131c565b34801561074457600080fd5b506103fe61134d565b34801561075957600080fd5b506104206107683660046136e1565b61135d565b34801561077957600080fd5b50610361610788366004613655565b6113df565b34801561079957600080fd5b506103a66107a83660046137da565b6001600160a01b03918216600090815260046020908152604080832093909416825291909152205490565b3480156107df57600080fd5b506103a66107ee366004613655565b60009081526005602052604090205490565b34801561080c57600080fd5b50601b5461043c906001600160a01b031681565b34801561082c57600080fd5b506106d861083b3660046136e1565b61146e565b34801561084c57600080fd5b50610420611689565b34801561086157600080fd5b5060195461043c906001600160a01b031681565b34801561088157600080fd5b50601c546001600160a01b031661043c565b34801561089f57600080fd5b506104206108ae3660046136fe565b6117c6565b3480156108bf57600080fd5b506104206108ce3660046136e1565b611817565b3480156108df57600080fd5b506104206108ee366004613629565b61184d565b3480156108ff57600080fd5b5061042061090e366004613655565b6119ac565b34801561091f57600080fd5b506103a66119eb565b34801561093457600080fd5b50610420611a1c565b60008061094a8385613829565b9050838110156109a15760405162461bcd60e51b815260206004820152601b60248201527f536166654d6174683a206164646974696f6e206f766572666c6f77000000000060448201526064015b60405180910390fd5b90505b92915050565b6060600a80546109b990613841565b80601f01602080910402602001604051908101604052809291908181526020018280546109e590613841565b8015610a325780601f10610a0757610100808354040283529160200191610a32565b820191906000526020600020905b815481529060010190602001808311610a1557829003601f168201915b5050505050905090565b6000610a49338484611a72565b50600192915050565b600080546001600160a01b03163314610a7d5760405162461bcd60e51b81526004016109989061387c565b600d548210610ae85760405162461bcd60e51b815260206004820152603160248201527f416d6f756e74206275726e742063616e6e6f74206265206c6172676572207468604482015270185b8814dd185ada5b99c814995dd85c99607a1b6064820152608401610998565b600d54610af59083611b96565b600d55600754610b059083611b96565b600755506001919050565b601b5460405163a375de8f60e01b81523360048201526000916001600160a01b03169063a375de8f906024015b602060405180830381865afa158015610b5a573d6000803e3d6000fd5b505050506040513d601f19601f82011682018060405250810190610b7e91906138b1565b905090565b6000610b90848484611bd8565b610be28433610bdd85604051806060016040528060288152602001613a8d602891396001600160a01b038a1660009081526004602090815260408083203384529091529020549190611a38565b611a72565b5060019392505050565b610bf46135a0565b610b7e611d9d565b601960009054906101000a90046001600160a01b03166001600160a01b03166338af3eed6040518163ffffffff1660e01b8152600401602060405180830381865afa158015610c4f573d6000803e3d6000fd5b505050506040513d601f19601f82011682018060405250810190610c7391906138ca565b6001600160a01b0316336001600160a01b03161480610c9c57506000546001600160a01b031633145b610cb85760405162461bcd60e51b8152600401610998906138e7565b6019546000906001600160a01b031663c8100dcc610cd4611fdd565b6040518263ffffffff1660e01b8152600401610cf091906136d2565b6020604051808303816000875af1158015610d0f573d6000803e3d6000fd5b505050506040513d601f19601f82011682018060405250810190610d3391906138b1565b33600090815260036020526040902054909150610d50908261093d565b3360009081526003602052604090205550565b3360008181526004602090815260408083206001600160a01b03871684529091528120549091610a49918590610bdd908661093d565b60195460408051635501881f60e01b815290516000926001600160a01b031691635501881f9160048083019260209291908290030181865afa158015610b5a573d6000803e3d6000fd5b601b54604051639cc2ae6f60e01b81523360048201526000916001600160a01b031690639cc2ae6f90602401610b3d565b6000546001600160a01b03163314610e3e5760405162461bcd60e51b81526004016109989061387c565b6001600160a01b038116610e645760405162461bcd60e51b815260040161099890613944565b601b54604051632e30791360e11b81526001600160a01b03838116600483015290911690635c60f226906024015b600060405180830381600087803b158015610eac57600080fd5b505af1158015610ec0573d6000803e3d6000fd5b5050505050565b6000546001600160a01b03163314610ef15760405162461bcd60e51b81526004016109989061387c565b600080546040516001600160a01b03909116907f8be0079c531659141344cd1fd0a4f28419497f9722a3daafe3b4186f6b6457e0908390a3600080546001600160a01b0319169055565b8062278d001480610f4e5750806276a700145b80610f5b57508062ed4e00145b80610f695750806301e13380145b610fb55760405162461bcd60e51b815260206004820181905260248201527f5374616b696e67207061636b616765206f7074696f6e206e6f742065786973746044820152606401610998565b3360009081526003602052604090205482106110265760405162461bcd60e51b815260206004820152602a60248201527f54616c6178546f6b656e3a2043616e6e6f74207374616b65206d6f726520746860448201526930b7103cb7ba9037bbb760b11b6064820152608401610998565b6000818152600560205260409020546110429083908390612340565b61104c33836124d3565b600e54611059908361093d565b505050565b600080546001600160a01b031633146110895760405162461bcd60e51b81526004016109989061387c565b6006805461ffff191661ffff84161790555b506001919050565b6060600980546109b990613841565b600080546001600160a01b031633146110dd5760405162461bcd60e51b81526004016109989061387c565b61109b33836125df565b600080546001600160a01b031633146111125760405162461bcd60e51b81526004016109989061387c565b816111595760405162461bcd60e51b81526020600482015260176024820152760416d6f756e74206d696e742063616e6e6f74206265203604c1b6044820152606401610998565b600d54611166908361093d565b600d55600754610b05908361093d565b6000610a493384610bdd85604051806060016040528060258152602001613adb602591393360009081526004602090815260408083206001600160a01b038d1684529091529020549190611a38565b6000610a49338484611bd8565b601b546000906001600160a01b0316637b269f906111ee611d9d565b336040518363ffffffff1660e01b8152600401610cf0929190613990565b6040805180820190915260008152606060208201526000604051806040016040528060008152602001600160026000876001600160a01b03166001600160a01b03168152602001908152602001600020548154811061126d5761126d6139b8565b9060005260206000209060020201600101805480602002602001604051908101604052809291908181526020016000905b8282101561130f5760008481526020908190206040805160c0810182526006860290920180546001600160a01b031683526001808201548486015260028201549284019290925260038101546060840152600481015460808401526005015460a0830152908352909201910161129e565b5050509152509392505050565b601b5460405163063b244560e51b81523360048201526000916001600160a01b03169063c76488a090602401610b3d565b6113556135a0565b610b7e611fdd565b6000546001600160a01b031633146113875760405162461bcd60e51b81526004016109989061387c565b6001600160a01b0381166113ad5760405162461bcd60e51b815260040161099890613944565b601c54604051632e30791360e11b81526001600160a01b03838116600483015290911690635c60f22690602401610e92565b600080546001600160a01b0316331461140a5760405162461bcd60e51b81526004016109989061387c565b816114515760405162461bcd60e51b81526020600482015260176024820152760416d6f756e74206d696e742063616e6e6f74206265203604c1b6044820152606401610998565b600e5461145e908361093d565b600e55600754610b05908361093d565b604080518082019091526000815260606020820152600080604051806040016040528060008152602001600160026000886001600160a01b03166001600160a01b0316815260200190815260200160002054815481106114d0576114d06139b8565b9060005260206000209060020201600101805480602002602001604051908101604052809291908181526020016000905b828210156115725760008481526020908190206040805160c0810182526006860290920180546001600160a01b031683526001808201548486015260028201549284019290925260038101546060840152600481015460808401526005015460a08301529083529092019101611501565b5050509152506020810151519091506115db5760405162461bcd60e51b815260206004820152602560248201527f54686973206164647265737320646f6573206e6f74206861766520616e79207360448201526474616b657360d81b6064820152608401610998565b60005b81602001515181101561167f57600061161383602001518381518110611606576116066139b8565b60200260200101516126b9565b9050808360200151838151811061162c5761162c6139b8565b6020026020010151606001818152505082602001518281518110611652576116526139b8565b602002602001015160200151846116699190613829565b93506116789050600182613829565b90506115de565b5090815292915050565b601a60009054906101000a90046001600160a01b03166001600160a01b03166338af3eed6040518163ffffffff1660e01b8152600401602060405180830381865afa1580156116dc573d6000803e3d6000fd5b505050506040513d601f19601f8201168201806040525081019061170091906138ca565b6018546001600160a01b039081169116148061178e5750306001600160a01b031663893d20e86040518163ffffffff1660e01b8152600401602060405180830381865afa158015611755573d6000803e3d6000fd5b505050506040513d601f19601f8201168201806040525081019061177991906138ca565b6001600160a01b0316336001600160a01b0316145b6117aa5760405162461bcd60e51b8152600401610998906138e7565b601a546000906001600160a01b031663c8100dcc610cd4612759565b6000806117d38484612a3b565b915091506117e0816113df565b50600e546117ee9083611b96565b50600e546117fc9082611b96565b50611811335b61180c8385613829565b6125df565b50505050565b6000546001600160a01b031633146118415760405162461bcd60e51b81526004016109989061387c565b61184a81612cbb565b50565b6000546001600160a01b031633146118775760405162461bcd60e51b81526004016109989061387c565b6001600160a01b0382166118df5760405162461bcd60e51b815260206004820152602960248201527f4d756c7469546f6b656e54696d654c6f636b3a2043616e6e6f7420616464206560448201526836b83a3c903ab9b2b960b91b6064820152608401610998565b600081116119425760405162461bcd60e51b815260206004820152602a60248201527f4d756c7469546f6b656e54696d654c6f636b3a2043616e6e6f7420757365207a604482015269195c9bc8185b5bdd5b9d60b21b6064820152608401610998565b601b5460405163a68c403160e01b8152600481018390526001600160a01b0384811660248301529091169063a68c403190604401600060405180830381600087803b15801561199057600080fd5b505af11580156119a4573d6000803e3d6000fd5b505050505050565b6000806119b883612d7b565b915091506119c5816113df565b50600e546119d39083611b96565b50600e546119e19082611b96565b5061105933611802565b601b546040516322b7499360e01b81523360048201526000916001600160a01b0316906322b7499390602401610b3d565b601c546000906001600160a01b0316637b269f906111ee612fcc565b60008184841115611a5c5760405162461bcd60e51b815260040161099891906135bf565b506000611a6984866139ce565b95945050505050565b6001600160a01b038316611ad45760405162461bcd60e51b8152602060048201526024808201527f42455032303a20617070726f76652066726f6d20746865207a65726f206164646044820152637265737360e01b6064820152608401610998565b6001600160a01b038216611b355760405162461bcd60e51b815260206004820152602260248201527f42455032303a20617070726f766520746f20746865207a65726f206164647265604482015261737360f01b6064820152608401610998565b6001600160a01b0383811660008181526004602090815260408083209487168084529482529182902085905590518481527f8c5be1e5ebec7d5bd14f71427d1e84f3dd0314c0f7b2291e5b200ac8c7c3b925910160405180910390a3505050565b60006109a183836040518060400160405280601e81526020017f536166654d6174683a207375627472616374696f6e206f766572666c6f770000815250611a38565b6001600160a01b038316611c3c5760405162461bcd60e51b815260206004820152602560248201527f42455032303a207472616e736665722066726f6d20746865207a65726f206164604482015264647265737360d81b6064820152608401610998565b6001600160a01b038216611c9e5760405162461bcd60e51b815260206004820152602360248201527f42455032303a207472616e7366657220746f20746865207a65726f206164647260448201526265737360e81b6064820152608401610998565b600654600090611cbe908390611cb99061ffff1660646133a0565b6133e2565b90506000611ccc8383611b96565b9050611d0b81604051806060016040528060268152602001613ab5602691396001600160a01b0388166000908152600360205260409020549190611a38565b6001600160a01b038087166000908152600360205260408082209390935590861681522054611d3a908461093d565b6001600160a01b0380861660008181526003602052604090819020939093559151908716907fddf252ad1be2c89b69c2b068fc378daa952ba7f163c4a11628f55a4df523b3ef90611d8e9087815260200190565b60405180910390a35050505050565b611da56135a0565b60405180610560016040528060008152602001600081526020016000815260200160008152602001600081526020016000815260200160008152602001611df6674563918244f40000611b516133a0565b8152602001611e0f674563918244f40000611b516133a0565b8152602001611e28674563918244f40000611b516133a0565b8152602001611e41674563918244f40000611b516133a0565b8152602001611e5a674563918244f40000611b516133a0565b8152602001611e73674563918244f40000611b516133a0565b8152602001611e8c674563918244f40000611b516133a0565b8152602001611ea5674563918244f40000611b516133a0565b8152602001611ebe674563918244f40000611b516133a0565b8152602001611ed7674563918244f40000611b516133a0565b8152602001611ef0674563918244f40000611b516133a0565b8152602001611f09674563918244f40000611b516133a0565b8152602001611f22674563918244f40000611b516133a0565b8152602001611f3b67446ae0e136ad0000611b516133a0565b81526020016000815260200160008152602001600081526020016000815260200160008152602001600081526020016000815260200160008152602001600081526020016000815260200160008152602001600081526020016000815260200160008152602001600081526020016000815260200160008152602001600081526020016000815260200160008152602001600081526020016000815250905090565b611fe56135a0565b604051806105600160405280612003666a94d74f430000602a6133a0565b815260200160008152602001600081526020016000815260200161202f666a94d74f430000602a6133a0565b81526020016000815260200160008152602001612054666a94d74f430000602a6133a0565b81526020016000815260200160008152602001612079666a94d74f430000602a6133a0565b8152602001600081526020016000815260200161209e662386f26fc10000602a6133a0565b81526020016120b5662386f26fc10000602a6133a0565b81526020016120cc662386f26fc10000602a6133a0565b81526020016120e3662386f26fc10000602a6133a0565b81526020016120fa662386f26fc10000602a6133a0565b8152602001612111662386f26fc10000602a6133a0565b8152602001612128662386f26fc10000602a6133a0565b815260200161213f662386f26fc10000602a6133a0565b8152602001612156662386f26fc10000602a6133a0565b815260200161216d662386f26fc10000602a6133a0565b8152602001612184662386f26fc10000602a6133a0565b815260200161219b662386f26fc10000602a6133a0565b81526020016121b2662386f26fc10000602a6133a0565b81526020016121c9662386f26fc10000602a6133a0565b81526020016121e0662386f26fc10000602a6133a0565b81526020016121f7662386f26fc10000602a6133a0565b815260200161220e662386f26fc10000602a6133a0565b8152602001612225662386f26fc10000602a6133a0565b815260200161223c662386f26fc10000602a6133a0565b8152602001612253662386f26fc10000602a6133a0565b815260200161226a662386f26fc10000602a6133a0565b8152602001612281662386f26fc10000602a6133a0565b8152602001612298662386f26fc10000602a6133a0565b81526020016122af662386f26fc10000602a6133a0565b81526020016122c6662386f26fc10000602a6133a0565b81526020016122dd662386f26fc10000602a6133a0565b81526020016122f4662386f26fc10000602a6133a0565b815260200161230b662386f26fc10000602a6133a0565b8152602001612322662386f26fc10000602a6133a0565b8152602001612339662386f26fc10000602a6133a0565b9052919050565b600083116123875760405162461bcd60e51b815260206004820152601460248201527343616e6e6f74207374616b65206e6f7468696e6760601b6044820152606401610998565b3360009081526002602052604090205442816123a9576123a633613461565b91505b600182815481106123bc576123bc6139b8565b90600052602060002090600202016001016040518060c00160405280336001600160a01b0316815260200187815260200183815260200160008152602001858152602001838761240c9190613829565b90528154600180820184556000938452602093849020835160069093020180546001600160a01b0319166001600160a01b03909316929092178255928201519281019290925560408101516002830155606081015160038301556080810151600483015560a00151600590910155337f9cfd25589d1eb8ad71e342a86a8524e83522e3936c0803048c08f6d9ad974f408684846124a9818a613829565b60408051948552602085019390935291830152606082015260800160405180910390a25050505050565b6001600160a01b0382166125335760405162461bcd60e51b815260206004820152602160248201527f42455032303a206275726e2066726f6d20746865207a65726f206164647265736044820152607360f81b6064820152608401610998565b61257081604051806060016040528060228152602001613b00602291396001600160a01b0385166000908152600360205260409020549190611a38565b6001600160a01b0383166000908152600360205260409020556007546125969082611b96565b6007556040518181526000906001600160a01b038416907fddf252ad1be2c89b69c2b068fc378daa952ba7f163c4a11628f55a4df523b3ef906020015b60405180910390a35050565b6001600160a01b0382166126355760405162461bcd60e51b815260206004820152601f60248201527f42455032303a206d696e7420746f20746865207a65726f2061646472657373006044820152606401610998565b600754612642908261093d565b6007556001600160a01b038216600090815260036020526040902054612668908261093d565b6001600160a01b0383166000818152600360205260408082209390935591519091907fddf252ad1be2c89b69c2b068fc378daa952ba7f163c4a11628f55a4df523b3ef906125d39085815260200190565b6000808260200151116127185760405162461bcd60e51b815260206004820152602160248201527f54686973207573657220646f65736e2774206861766520616e79207374616b656044820152607360f81b6064820152608401610998565b6a52b7d2dcc80cd2e400000061273183604001516134d0565b836080015161274091906139e5565b836020015161274f91906139e5565b6109a49190613a04565b6127616135a0565b6040518061056001604052806127816704db73254763000061013b6133a0565b81526020016000815260200160008152602001600081526020016127af670429d069189e000061013b6133a0565b815260200160008152602001600081526020016127d6670429d069189e000061013b6133a0565b815260200160008152602001600081526020016127fd670429d069189e000061013b6133a0565b8152602001600081526020016000815260200161282467016345785d8a000061013b6133a0565b815260200161283d67016345785d8a000061013b6133a0565b815260200161285667016345785d8a000061013b6133a0565b815260200161286f67016345785d8a000061013b6133a0565b815260200161288867016345785d8a000061013b6133a0565b81526020016128a167016345785d8a000061013b6133a0565b81526020016128ba67016345785d8a000061013b6133a0565b81526020016128d367016345785d8a000061013b6133a0565b81526020016128ec67016345785d8a000061013b6133a0565b815260200161290567016345785d8a000061013b6133a0565b815260200161291e67016345785d8a000061013b6133a0565b815260200161293767016345785d8a000061013b6133a0565b815260200161295067016345785d8a000061013b6133a0565b815260200161296967016345785d8a000061013b6133a0565b815260200161298267016345785d8a000061013b6133a0565b815260200161299b67016345785d8a000061013b6133a0565b81526020016129b467016345785d8a000061013b6133a0565b81526020016129cd67016345785d8a000061013b6133a0565b81526020016129e667016345785d8a000061013b6133a0565b8152602001600081526020016000815260200160008152602001600081526020016000815260200160008152602001600081526020016000815260200160008152602001600081526020016000815250905090565b3360009081526002602052604081205460018054839291839183908110612a6457612a646139b8565b90600052602060002090600202016001018581548110612a8657612a866139b8565b60009182526020918290206040805160c081018252600690930290910180546001600160a01b03168352600181015493830193909352600283015490820152600382015460608201526004820154608082015260059091015460a08201819052909150421015612b085760405162461bcd60e51b815260040161099890613a26565b8581602001511015612b775760405162461bcd60e51b815260206004820152603260248201527f5374616b696e673a2043616e6e6f74207769746864726177206d6f7265207468604482015271185b881e5bdd481a185d99481cdd185ad95960721b6064820152608401610998565b6000612b82826126b9565b9050868260200151612b9491906139ce565b60208301819052612c165760018381548110612bb257612bb26139b8565b90600052602060002090600202016001018681548110612bd457612bd46139b8565b60009182526020822060069091020180546001600160a01b03191681556001810182905560028101829055600381018290556004810182905560050155612cb1565b816020015160018481548110612c2e57612c2e6139b8565b90600052602060002090600202016001018781548110612c5057612c506139b8565b9060005260206000209060060201600101819055504260018481548110612c7957612c796139b8565b90600052602060002090600202016001018781548110612c9b57612c9b6139b8565b9060005260206000209060060201600201819055505b9596945050505050565b6001600160a01b038116612d205760405162461bcd60e51b815260206004820152602660248201527f4f776e61626c653a206e6577206f776e657220697320746865207a65726f206160448201526564647265737360d01b6064820152608401610998565b600080546040516001600160a01b03808516939216917f8be0079c531659141344cd1fd0a4f28419497f9722a3daafe3b4186f6b6457e091a3600080546001600160a01b0319166001600160a01b0392909216919091179055565b3360009081526002602052604081205460018054839291839183908110612da457612da46139b8565b90600052602060002090600202016001018581548110612dc657612dc66139b8565b60009182526020918290206040805160c081018252600690930290910180546001600160a01b03168352600181015493830193909352600283015490820152600382015460608201526004820154608082015260059091015460a08201819052909150421115612e485760405162461bcd60e51b815260040161099890613a26565b602081015115612eb65760405162461bcd60e51b815260206004820152603360248201527f5374616b696e673a2043616e6e6f742077697468647261772c20796f7520646f6044820152726e2774206861766520616e79207374616b657360681b6064820152608401610998565b6000612ec1826126b9565b602083018051600090915260018054929350909185908110612ee557612ee56139b8565b90600052602060002090600202016001018781548110612f0757612f076139b8565b60009182526020822060069091020180546001600160a01b03191681556001808201839055600282018390556003820183905560048201839055600590910191909155805485908110612f5c57612f5c6139b8565b9060005260206000209060020201600101805480612f7c57612f7c613a76565b60008281526020812060066000199093019283020180546001600160a01b031916815560018101829055600281018290556003810182905560048101829055600501559055969095509350505050565b612fd46135a0565b604051806105600160405280612ff367016345785d8a000060696133a0565b815260200160008152602001600081526020016000815260200161302067016345785d8a000060696133a0565b8152602001600081526020016000815260200161304667016345785d8a000060696133a0565b8152602001600081526020016000815260200161306c67016345785d8a000060696133a0565b8152602001600081526020016000815260200161309568757496257d879b000062a037a06133a0565b81526020016130b068757496257d879b000062a037a06133a0565b81526020016130cb68757496257d879b000062a037a06133a0565b81526020016130e668757496257d879b000062a037a06133a0565b815260200161310168757496257d879b000062a037a06133a0565b815260200161311c68757496257d879b000062a037a06133a0565b815260200161313768757496257d879b000062a037a06133a0565b815260200161315268757496257d879b000062a037a06133a0565b815260200161316d68757496257d879b000062a037a06133a0565b815260200161318868757496257d879b000062a037a06133a0565b81526020016131a368757496257d879b000062a037a06133a0565b81526020016131be68757496257d879b000062a037a06133a0565b81526020016131d968757496257d879b000062a037a06133a0565b81526020016131f468757496257d879b000062a037a06133a0565b815260200161320f68757496257d879b000062a037a06133a0565b815260200161322a68757496257d879b000062a037a06133a0565b815260200161324568757496257d879b000062a037a06133a0565b815260200161326068757496257d879b000062a037a06133a0565b815260200161327b68757496257d879b000062a037a06133a0565b815260200161329668757496257d879b000062a037a06133a0565b81526020016132b168757496257d879b000062a037a06133a0565b81526020016132cc68757496257d879b000062a037a06133a0565b81526020016132e768757496257d879b000062a037a06133a0565b815260200161330268757496257d879b000062a037a06133a0565b815260200161331d68757496257d879b000062a037a06133a0565b815260200161333868757496257d879b000062a037a06133a0565b815260200161335368757496257d879b000062a037a06133a0565b815260200161336e68757496257d879b000062a037a06133a0565b815260200161338968757496257d879b000062a037a06133a0565b815260200161233968757496257d879b000062a037a05b60006109a183836040518060400160405280601a81526020017f536166654d6174683a206469766973696f6e206279207a65726f000000000000815250613572565b6000826133f1575060006109a4565b60006133fd83856139e5565b90508261340a8583613a04565b146109a15760405162461bcd60e51b815260206004820152602160248201527f536166654d6174683a206d756c7469706c69636174696f6e206f766572666c6f6044820152607760f81b6064820152608401610998565b600180548101808255600082815291829161347c91906139ce565b90508260018281548110613492576134926139b8565b6000918252602080832060029283020180546001600160a01b0319166001600160a01b03958616179055959092168152935260409092208290555090565b60008082116135155760405162461bcd60e51b815260206004820152601160248201527004572726f722074696d657374616d70203607c1b6044820152606401610998565b6109a461352283426139ce565b6135369069d3c21bcecceda10000006139e5565b6301e133806040518060400160405280601d81526020017f4572726f722063616e6e6f74206469766964652074696d657374616d700000008152505b600081836135935760405162461bcd60e51b815260040161099891906135bf565b506000611a698486613a04565b604051806105600160405280602b906020820280368337509192915050565b600060208083528351808285015260005b818110156135ec578581018301518582016040015282016135d0565b818111156135fe576000604083870101525b50601f01601f1916929092016040019392505050565b6001600160a01b038116811461184a57600080fd5b6000806040838503121561363c57600080fd5b823561364781613614565b946020939093013593505050565b60006020828403121561366757600080fd5b5035919050565b60008060006060848603121561368357600080fd5b833561368e81613614565b9250602084013561369e81613614565b929592945050506040919091013590565b8060005b602b8110156118115781518452602093840193909101906001016136b3565b61056081016109a482846136af565b6000602082840312156136f357600080fd5b81356109a181613614565b6000806040838503121561371157600080fd5b50508035926020909101359150565b60006020828403121561373257600080fd5b813561ffff811681146109a157600080fd5b6000602080835260608084018551838601528286015160408081880152828251808552608094508489019150868401935060005b818110156137cb57845180516001600160a01b03168452888101518985015284810151858501528781015188850152868101518785015260a090810151908401529387019360c090920191600101613778565b50909998505050505050505050565b600080604083850312156137ed57600080fd5b82356137f881613614565b9150602083013561380881613614565b809150509250929050565b634e487b7160e01b600052601160045260246000fd5b6000821982111561383c5761383c613813565b500190565b600181811c9082168061385557607f821691505b6020821081141561387657634e487b7160e01b600052602260045260246000fd5b50919050565b6020808252818101527f4f776e61626c653a2063616c6c6572206973206e6f7420746865206f776e6572604082015260600190565b6000602082840312156138c357600080fd5b5051919050565b6000602082840312156138dc57600080fd5b81516109a181613614565b6020808252603e908201527f546f6b656e54696d654c6f636b3a204f6e6c7920636c61696d61626c6520627960408201527f2055736572206f6620746869732061646472657373206f72206f776e65720000606082015260800190565b6020808252602c908201527f4d756c7469546f6b656e54696d654c6f636b3a2043616e6e6f742064656c657460408201526b329032b6b83a3c903ab9b2b960a11b606082015260800190565b610580810161399f82856136af565b6001600160a01b03929092166105609190910152919050565b634e487b7160e01b600052603260045260246000fd5b6000828210156139e0576139e0613813565b500390565b60008160001904831182151516156139ff576139ff613813565b500290565b600082613a2157634e487b7160e01b600052601260045260246000fd5b500490565b60208082526030908201527f5374616b696e673a2043616e6e6f74207769746864726177206265666f72652060408201526f7468652072656c656173652074696d6560801b606082015260800190565b634e487b7160e01b600052603160045260246000fdfe42455032303a207472616e7366657220616d6f756e74206578636565647320616c6c6f77616e636542455032303a207472616e7366657220616d6f756e7420657863656564732062616c616e636542455032303a2064656372656173656420616c6c6f77616e63652062656c6f77207a65726f42455032303a206275726e20616d6f756e7420657863656564732062616c616e6365a2646970667358221220b415a58b2ae5a84da153fe3a6e240592d99f7476173d2f92c6ec534d9285ead364736f6c634300080b003360a060405234801561001057600080fd5b5060405161071d38038061071d83398101604081905261002f916100b5565b600082116100985760405162461bcd60e51b815260206004820152602c60248201527f546f6b656e54696d654c6f636b3a20416d6f756e74206d75737420677265617460448201526b6572207468616e207a65726f60a01b606482015260840160405180910390fd5b60009182556001600160a01b0316608052426001556002556100f2565b600080604083850312156100c857600080fd5b825160208401519092506001600160a01b03811681146100e757600080fd5b809150509250929050565b60805161061161010c6000396000605e01526106116000f3fe608060405234801561001057600080fd5b506004361061004c5760003560e01c806338af3eed146100515780635501881f1461008d578063aa8c217c146100a4578063c8100dcc146100ac575b600080fd5b6040516001600160a01b037f00000000000000000000000000000000000000000000000000000000000000001681526020015b60405180910390f35b61009660025481565b604051908152602001610084565b600054610096565b6100966100ba366004610416565b600080600054116101125760405162461bcd60e51b815260206004820152601d60248201527f546f6b656e54696d656c6f636b3a206e6f20746f6b656e73206c65667400000060448201526064015b60405180910390fd5b600061011d836101a9565b90506000811161017b5760405162461bcd60e51b815260206004820152602360248201527f546f6b656e54696d656c6f636b3a206e6f20746f6b656e7320746f2072656c6560448201526261736560e81b6064820152608401610109565b6101a0600054826040518060600160405280602c81526020016105b0602c91396102c7565b60005592915050565b60008062278d00600154426101be91906104b9565b6101c891906104d0565b6002549091506000905b8281116102505761023c826102376102026000548986602b81106101f8576101f86104f2565b6020020151610301565b662386f26fc100006040518060400160405280600f81526020016e043616e6e6f7420646976696465203608c1b815250610389565b6103b7565b91508061024881610508565b9150506101d2565b5061025c826001610523565b600255806102c05760405162461bcd60e51b815260206004820152602b60248201527f546f6b656e54696d654c6f636b3a2054686572652773206e6f7468696e67207460448201526a1bc818db185a5b481e595d60aa1b6064820152608401610109565b9392505050565b600081848411156102eb5760405162461bcd60e51b8152600401610109919061053b565b5060006102f884866104b9565b95945050505050565b60008261031057506000610383565b600061031c8385610590565b90508261032985836104d0565b146103805760405162461bcd60e51b815260206004820152602160248201527f536166654d6174683a206d756c7469706c69636174696f6e206f766572666c6f6044820152607760f81b6064820152608401610109565b90505b92915050565b600081836103aa5760405162461bcd60e51b8152600401610109919061053b565b5060006102f884866104d0565b6000806103c48385610523565b9050838110156103805760405162461bcd60e51b815260206004820152601b60248201527f536166654d6174683a206164646974696f6e206f766572666c6f7700000000006044820152606401610109565b600061056080838503121561042a57600080fd5b83601f84011261043957600080fd5b60405181810181811067ffffffffffffffff8211171561046957634e487b7160e01b600052604160045260246000fd5b60405290830190808583111561047e57600080fd5b845b83811015610498578035825260209182019101610480565b509095945050505050565b634e487b7160e01b600052601160045260246000fd5b6000828210156104cb576104cb6104a3565b500390565b6000826104ed57634e487b7160e01b600052601260045260246000fd5b500490565b634e487b7160e01b600052603260045260246000fd5b600060001982141561051c5761051c6104a3565b5060010190565b60008219821115610536576105366104a3565b500190565b600060208083528351808285015260005b818110156105685785810183015185820160400152820161054c565b8181111561057a576000604083870101525b50601f01601f1916929092016040019392505050565b60008160001904831182151516156105aa576105aa6104a3565b50029056fe43616e6e6f742073756273747261637420746f74616c20616d6f756e74207769746820636c61696d61626c65a2646970667358221220b5cefb009ab9bf9c08a028d4f31df074f4169525c2920d4b5908c769fea566cb64736f6c634300080b0033608060405234801561001057600080fd5b50604051610d91380380610d9183398101604081905261002f916100a7565b6000811161009b5760405162461bcd60e51b815260206004820152602f60248201527f4d756c7469546f6b656e54696d656c6f636b3a20746f74616c20616d6f756e7460448201526e2063616e6e6f74206265207a65726f60881b606482015260840160405180910390fd5b600255426003556100c0565b6000602082840312156100b957600080fd5b5051919050565b610cc2806100cf6000396000f3fe608060405234801561001057600080fd5b50600436106100875760003560e01c80639cc2ae6f1161005b5780639cc2ae6f146100e1578063a375de8f146100f4578063a68c403114610107578063c76488a01461011a57600080fd5b8062e82fc51461008c57806322b74993146100a65780635c60f226146100b95780637b269f90146100ce575b600080fd5b61009461012d565b60405190815260200160405180910390f35b6100946100b4366004610a31565b610150565b6100cc6100c7366004610a31565b610185565b005b6100946100dc366004610a62565b61028e565b6100946100ef366004610a31565b610431565b610094610102366004610a31565b610466565b6100cc610115366004610af0565b6104ae565b610094610128366004610a31565b61077a565b600062278d00600354426101419190610b32565b61014b9190610b49565b905090565b60008061015c83610781565b8154811061016c5761016c610b6b565b9060005260206000209060040201600101549050919050565b6001600160a01b0381166102065760405162461bcd60e51b815260206004820152603d60248201527f4d756c7469546f6b656e54696d654c6f636b3a20557365722068617320736f6d60448201527f6520746f6b656e206c65667420696e206c6f636b65642077616c6c657400000060648201526084015b60405180910390fd5b61023e600254600061021784610781565b8154811061022757610227610b6b565b90600052602060002090600402016001015461079c565b600255600061024c82610781565b8154811061025c5761025c610b6b565b60009182526020822060049091020180546001600160a01b031916815560018101829055600281018290556003015550565b600080600254116102ec5760405162461bcd60e51b815260206004820152602260248201527f4d756c7469546f6b656e54696d654c6f636b3a206e6f20746f6b656e73206c65604482015261199d60f21b60648201526084016101fd565b6102f582610781565b6103505760405162461bcd60e51b815260206004820152602660248201527f4d756c7469546f6b656e54696d654c6f636b3a205573657220646f65736e277460448201526508195e1a5cdd60d21b60648201526084016101fd565b60008061035c84610781565b8154811061036c5761036c610b6b565b9060005260206000209060040201905060006103888583610802565b9050600081116103eb5760405162461bcd60e51b815260206004820152602860248201527f4d756c7469546f6b656e54696d654c6f636b3a206e6f20746f6b656e7320746f6044820152672072656c6561736560c01b60648201526084016101fd565b6104128260010154826040518060600160405280602c8152602001610c61602c913961092e565b6001830155600254610424908261079c565b6002559150505b92915050565b60008061043d83610781565b8154811061044d5761044d610b6b565b9060005260206000209060040201600201549050919050565b600062278d00600061047784610781565b8154811061048757610487610b6b565b906000526020600020906004020160030154426104a49190610b32565b61042b9190610b49565b6001600160a01b038116600081815260016020526040902054906105265760405162461bcd60e51b815260206004820152602960248201527f4d756c7469546f6b656e54696d654c6f636b3a2043616e6e6f7420616464206160448201526864647265737328302960b81b60648201526084016101fd565b60025483106105ab5760405162461bcd60e51b815260206004820152604560248201527f4d756c7469546f6b656e54696d654c6f636b3a20416d6f756e74206973206c6160448201527f72676572207468616e20616c6c6f636174656420546f74616c20416d6f756e74606482015264081b19599d60da1b608482015260a4016101fd565b600081815481106105be576105be610b6b565b90600052602060002090600402016001015460001461062e5760405162461bcd60e51b815260206004820152602660248201527f4d756c7469546f6b656e54696d654c6f636b3a205573657220616c726561647960448201526508195e1a5cdd60d21b60648201526084016101fd565b8061074d5760005461064b57600080548180526002019055610657565b60008054600101815580525b6000805461066790600190610b32565b9050826000828154811061067d5761067d610b6b565b906000526020600020906004020160000160006101000a8154816001600160a01b0302191690836001600160a01b0316021790555083600082815481106106c6576106c6610b6b565b90600052602060002090600402016001018190555060008082815481106106ef576106ef610b6b565b906000526020600020906004020160020181905550426000828154811061071857610718610b6b565b60009182526020808320600360049093020191909101929092556001600160a01b038516815260019091526040902081905590505b61077260025484604051806060016040528060388152602001610c296038913961092e565b600255505050565b600061042b825b6001600160a01b031660009081526001602052604090205490565b6000806107a98385610b81565b9050838110156107fb5760405162461bcd60e51b815260206004820152601b60248201527f536166654d6174683a206164646974696f6e206f766572666c6f77000000000060448201526064016101fd565b9392505050565b60008062278d008360030154426108199190610b32565b6108239190610b49565b60028401549091506000905b8281116108af5761089b8261089661086188600101548a86602b811061085757610857610b6b565b6020020151610968565b662386f26fc100006040518060400160405280600f81526020016e043616e6e6f7420646976696465203608c1b8152506109e7565b61079c565b9150806108a781610b99565b91505061082f565b506108bb826001610b81565b6002850155806109265760405162461bcd60e51b815260206004820152603060248201527f4d756c7469546f6b656e54696d654c6f636b3a2054686572652773206e6f746860448201526f1a5b99c81d1bc818db185a5b481e595d60821b60648201526084016101fd565b949350505050565b600081848411156109525760405162461bcd60e51b81526004016101fd9190610bb4565b50600061095f8486610b32565b95945050505050565b6000826109775750600061042b565b60006109838385610c09565b9050826109908583610b49565b146107fb5760405162461bcd60e51b815260206004820152602160248201527f536166654d6174683a206d756c7469706c69636174696f6e206f766572666c6f6044820152607760f81b60648201526084016101fd565b60008183610a085760405162461bcd60e51b81526004016101fd9190610bb4565b50600061095f8486610b49565b80356001600160a01b0381168114610a2c57600080fd5b919050565b600060208284031215610a4357600080fd5b6107fb82610a15565b634e487b7160e01b600052604160045260246000fd5b6000806105808385031215610a7657600080fd5b83601f840112610a8557600080fd5b60405161056080820182811067ffffffffffffffff82111715610aaa57610aaa610a4c565b60405284018186821115610abd57600080fd5b855b82811015610ad7578035825260209182019101610abf565b5050819350610ae581610a15565b925050509250929050565b60008060408385031215610b0357600080fd5b82359150610b1360208401610a15565b90509250929050565b634e487b7160e01b600052601160045260246000fd5b600082821015610b4457610b44610b1c565b500390565b600082610b6657634e487b7160e01b600052601260045260246000fd5b500490565b634e487b7160e01b600052603260045260246000fd5b60008219821115610b9457610b94610b1c565b500190565b6000600019821415610bad57610bad610b1c565b5060010190565b600060208083528351808285015260005b81811015610be157858101830151858201604001528201610bc5565b81811115610bf3576000604083870101525b50601f01601f1916929092016040019392505050565b6000816000190483118215151615610c2357610c23610b1c565b50029056fe4d756c7469546f6b656e54696d654c6f636b3a2043616e6e6f742073756273206c6172676574207468616e20746f74616c20616d6f756e744d756c7469546f6b656e54696d654c6f636b3a2043616e6e6f7420646f2074686973206f7065726174696f6ea26469706673582212206db4ad9bdfa28201c2d673602d58e584d1f664a5f3d083fea3c935a220b01de264736f6c634300080b003343616e6e6f74207472616e73666572206d6f7265207468616e20746f74616c20737570706c79",
			"opcodes": "PUSH1 0x80 PUSH1 0x40 MSTORE CALLVALUE DUP1 ISZERO PUSH3 0x11 JUMPI PUSH1 0x0 DUP1 REVERT JUMPDEST POP PUSH1 0x0 DUP1 SLOAD PUSH1 0x1 PUSH1 0x1 PUSH1 0xA0 SHL SUB NOT AND CALLER SWAP1 DUP2 OR DUP3 SSTORE PUSH1 0x40 MLOAD SWAP1 SWAP2 DUP3 SWAP2 PUSH32 0x8BE0079C531659141344CD1FD0A4F28419497F9722A3DAAFE3B4186F6B6457E0 SWAP1 DUP3 SWAP1 LOG3 POP PUSH1 0x1 DUP1 SLOAD DUP2 ADD DUP2 SSTORE PUSH1 0x0 MSTORE PUSH1 0x40 DUP1 MLOAD DUP1 DUP3 ADD SWAP1 SWAP2 MSTORE PUSH1 0x8 DUP1 DUP3 MSTORE PUSH8 0x54414C415845554D PUSH1 0xC0 SHL PUSH1 0x20 SWAP1 SWAP3 ADD SWAP2 DUP3 MSTORE PUSH3 0x8F SWAP2 PUSH1 0xA SWAP2 PUSH3 0x5EE JUMP JUMPDEST POP PUSH1 0x40 DUP1 MLOAD DUP1 DUP3 ADD SWAP1 SWAP2 MSTORE PUSH1 0x5 DUP1 DUP3 MSTORE PUSH5 0xA8829882B PUSH1 0xDB SHL PUSH1 0x20 SWAP1 SWAP3 ADD SWAP2 DUP3 MSTORE PUSH3 0xBE SWAP2 PUSH1 0x9 SWAP2 PUSH3 0x5EE JUMP JUMPDEST POP PUSH1 0x8 DUP1 SLOAD PUSH1 0xFF NOT AND PUSH1 0x12 OR SWAP1 SSTORE PUSH11 0xADB53ACFA41AEE12000000 PUSH1 0x7 SSTORE PUSH11 0x5C8D34A23DA1650A00000 PUSH1 0xC DUP2 DUP2 SSTORE PUSH11 0x22BDD88FED9EFC6A000000 PUSH1 0xB SWAP1 DUP2 SSTORE PUSH11 0xE7CBBD7AA8310AE400000 PUSH1 0xD SSTORE PUSH11 0x2B6D4EB3E906BB84800000 PUSH1 0xE SSTORE PUSH1 0x14 SLOAD PUSH1 0x1 PUSH1 0x1 PUSH1 0xA0 SHL SUB SWAP1 DUP2 AND PUSH1 0x0 SWAP1 DUP2 MSTORE PUSH1 0x3 PUSH1 0x20 SWAP1 DUP2 MSTORE PUSH1 0x40 DUP1 DUP4 KECCAK256 SWAP7 SWAP1 SWAP7 SSTORE SWAP3 SLOAD PUSH1 0x13 SLOAD SWAP1 SWAP3 AND DUP2 MSTORE DUP5 SWAP1 KECCAK256 SSTORE SWAP1 SLOAD DUP3 MLOAD PUSH1 0x60 DUP2 ADD SWAP1 SWAP4 MSTORE PUSH1 0x26 DUP1 DUP5 MSTORE PUSH3 0x183 SWAP4 SWAP2 SWAP3 PUSH3 0x5780 SWAP1 DUP4 ADD CODECOPY PUSH1 0x7 SLOAD PUSH3 0x5A6 PUSH1 0x20 SHL PUSH3 0x1A38 OR SWAP1 SWAP3 SWAP2 SWAP1 PUSH1 0x20 SHR JUMP JUMPDEST PUSH1 0x7 DUP2 SWAP1 SSTORE POP PUSH3 0x1C2 PUSH1 0xB SLOAD PUSH1 0x40 MLOAD DUP1 PUSH1 0x60 ADD PUSH1 0x40 MSTORE DUP1 PUSH1 0x26 DUP2 MSTORE PUSH1 0x20 ADD PUSH3 0x5780 PUSH1 0x26 SWAP2 CODECOPY PUSH1 0x7 SLOAD PUSH3 0x5A6 PUSH1 0x20 SHL PUSH3 0x1A38 OR SWAP1 SWAP3 SWAP2 SWAP1 PUSH1 0x20 SHR JUMP JUMPDEST PUSH1 0x7 DUP2 SWAP1 SSTORE POP PUSH3 0x201 PUSH1 0xD SLOAD PUSH1 0x40 MLOAD DUP1 PUSH1 0x60 ADD PUSH1 0x40 MSTORE DUP1 PUSH1 0x26 DUP2 MSTORE PUSH1 0x20 ADD PUSH3 0x5780 PUSH1 0x26 SWAP2 CODECOPY PUSH1 0x7 SLOAD PUSH3 0x5A6 PUSH1 0x20 SHL PUSH3 0x1A38 OR SWAP1 SWAP3 SWAP2 SWAP1 PUSH1 0x20 SHR JUMP JUMPDEST PUSH1 0x7 SSTORE PUSH1 0x17 SLOAD PUSH1 0x40 MLOAD PUSH11 0x22BDD88FED9EFC6A000000 SWAP2 PUSH1 0x1 PUSH1 0x1 PUSH1 0xA0 SHL SUB AND SWAP1 PUSH3 0x22C SWAP1 PUSH3 0x67D JUMP JUMPDEST SWAP2 DUP3 MSTORE PUSH1 0x1 PUSH1 0x1 PUSH1 0xA0 SHL SUB AND PUSH1 0x20 DUP3 ADD MSTORE PUSH1 0x40 ADD PUSH1 0x40 MLOAD DUP1 SWAP2 SUB SWAP1 PUSH1 0x0 CREATE DUP1 ISZERO DUP1 ISZERO PUSH3 0x25D JUMPI RETURNDATASIZE PUSH1 0x0 DUP1 RETURNDATACOPY RETURNDATASIZE PUSH1 0x0 REVERT JUMPDEST POP PUSH1 0x19 DUP1 SLOAD PUSH1 0x1 PUSH1 0x1 PUSH1 0xA0 SHL SUB NOT AND PUSH1 0x1 PUSH1 0x1 PUSH1 0xA0 SHL SUB SWAP3 DUP4 AND OR SWAP1 SSTORE PUSH1 0x18 SLOAD PUSH1 0x40 MLOAD PUSH11 0x1A0E626BF2373D4F800000 SWAP3 SWAP2 SWAP1 SWAP2 AND SWAP1 PUSH3 0x29D SWAP1 PUSH3 0x67D JUMP JUMPDEST SWAP2 DUP3 MSTORE PUSH1 0x1 PUSH1 0x1 PUSH1 0xA0 SHL SUB AND PUSH1 0x20 DUP3 ADD MSTORE PUSH1 0x40 ADD PUSH1 0x40 MLOAD DUP1 SWAP2 SUB SWAP1 PUSH1 0x0 CREATE DUP1 ISZERO DUP1 ISZERO PUSH3 0x2CE JUMPI RETURNDATASIZE PUSH1 0x0 DUP1 RETURNDATACOPY RETURNDATASIZE PUSH1 0x0 REVERT JUMPDEST POP PUSH1 0x1A DUP1 SLOAD PUSH1 0x1 PUSH1 0x1 PUSH1 0xA0 SHL SUB NOT AND PUSH1 0x1 PUSH1 0x1 PUSH1 0xA0 SHL SUB SWAP3 SWAP1 SWAP3 AND SWAP2 SWAP1 SWAP2 OR SWAP1 SSTORE PUSH1 0x40 MLOAD PUSH11 0x5C8D34A23DA1650A00000 SWAP1 PUSH3 0x30A SWAP1 PUSH3 0x68B JUMP JUMPDEST SWAP1 DUP2 MSTORE PUSH1 0x20 ADD PUSH1 0x40 MLOAD DUP1 SWAP2 SUB SWAP1 PUSH1 0x0 CREATE DUP1 ISZERO DUP1 ISZERO PUSH3 0x32D JUMPI RETURNDATASIZE PUSH1 0x0 DUP1 RETURNDATACOPY RETURNDATASIZE PUSH1 0x0 REVERT JUMPDEST POP PUSH1 0x1B DUP1 SLOAD PUSH1 0x1 PUSH1 0x1 PUSH1 0xA0 SHL SUB NOT AND PUSH1 0x1 PUSH1 0x1 PUSH1 0xA0 SHL SUB SWAP3 SWAP1 SWAP3 AND SWAP2 SWAP1 SWAP2 OR SWAP1 SSTORE PUSH1 0x40 MLOAD PUSH11 0x8AF7623FB67BF1A800000 SWAP1 PUSH3 0x369 SWAP1 PUSH3 0x68B JUMP JUMPDEST SWAP1 DUP2 MSTORE PUSH1 0x20 ADD PUSH1 0x40 MLOAD DUP1 SWAP2 SUB SWAP1 PUSH1 0x0 CREATE DUP1 ISZERO DUP1 ISZERO PUSH3 0x38C JUMPI RETURNDATASIZE PUSH1 0x0 DUP1 RETURNDATACOPY RETURNDATASIZE PUSH1 0x0 REVERT JUMPDEST POP PUSH1 0x1C PUSH1 0x0 PUSH2 0x100 EXP DUP2 SLOAD DUP2 PUSH1 0x1 PUSH1 0x1 PUSH1 0xA0 SHL SUB MUL NOT AND SWAP1 DUP4 PUSH1 0x1 PUSH1 0x1 PUSH1 0xA0 SHL SUB AND MUL OR SWAP1 SSTORE POP PUSH3 0x3F5 PUSH11 0x22BDD88FED9EFC6A000000 PUSH1 0x40 MLOAD DUP1 PUSH1 0x60 ADD PUSH1 0x40 MSTORE DUP1 PUSH1 0x26 DUP2 MSTORE PUSH1 0x20 ADD PUSH3 0x5780 PUSH1 0x26 SWAP2 CODECOPY PUSH1 0x7 SLOAD PUSH3 0x5A6 PUSH1 0x20 SHL PUSH3 0x1A38 OR SWAP1 SWAP3 SWAP2 SWAP1 PUSH1 0x20 SHR JUMP JUMPDEST PUSH1 0x7 DUP2 SWAP1 SSTORE POP PUSH3 0x43D PUSH11 0x1A0E626BF2373D4F800000 PUSH1 0x40 MLOAD DUP1 PUSH1 0x60 ADD PUSH1 0x40 MSTORE DUP1 PUSH1 0x26 DUP2 MSTORE PUSH1 0x20 ADD PUSH3 0x5780 PUSH1 0x26 SWAP2 CODECOPY PUSH1 0x7 SLOAD PUSH3 0x5A6 PUSH1 0x20 SHL PUSH3 0x1A38 OR SWAP1 SWAP3 SWAP2 SWAP1 PUSH1 0x20 SHR JUMP JUMPDEST PUSH1 0x7 DUP2 SWAP1 SSTORE POP PUSH3 0x485 PUSH11 0x5C8D34A23DA1650A00000 PUSH1 0x40 MLOAD DUP1 PUSH1 0x60 ADD PUSH1 0x40 MSTORE DUP1 PUSH1 0x26 DUP2 MSTORE PUSH1 0x20 ADD PUSH3 0x5780 PUSH1 0x26 SWAP2 CODECOPY PUSH1 0x7 SLOAD PUSH3 0x5A6 PUSH1 0x20 SHL PUSH3 0x1A38 OR SWAP1 SWAP3 SWAP2 SWAP1 PUSH1 0x20 SHR JUMP JUMPDEST PUSH1 0x7 DUP2 SWAP1 SSTORE POP PUSH3 0x4CD PUSH11 0x8AF7623FB67BF1A800000 PUSH1 0x40 MLOAD DUP1 PUSH1 0x60 ADD PUSH1 0x40 MSTORE DUP1 PUSH1 0x26 DUP2 MSTORE PUSH1 0x20 ADD PUSH3 0x5780 PUSH1 0x26 SWAP2 CODECOPY PUSH1 0x7 SLOAD PUSH3 0x5A6 PUSH1 0x20 SHL PUSH3 0x1A38 OR SWAP1 SWAP3 SWAP2 SWAP1 PUSH1 0x20 SHR JUMP JUMPDEST PUSH1 0x7 DUP2 DUP2 SSTORE PUSH1 0x6 DUP1 SLOAD PUSH2 0xFFFF NOT AND PUSH1 0x1 OR DUP2 SSTORE PUSH1 0x5 PUSH1 0x20 DUP2 SWAP1 MSTORE PUSH32 0x4DC90B1DB34D812C6B7E8D8F8FA8BB3EABE1414D64AF072D5003E9CE2FD01FCE SSTORE PUSH32 0xD740A78BF8B31AADC8A4F4EBC25344C792B4858C94548820131F8435ECC6AA4E SSTORE PUSH32 0xC7319EE9772EA0042079C858F4E5A9410F161F0E9618FAA4FB8566BBEC2EC059 SSTORE PUSH4 0x1E13380 PUSH1 0x0 SWAP1 DUP2 MSTORE PUSH1 0x8 PUSH32 0x2DEFC5000BD1CE6821731D58E552CDD6E3BFC901970BC0420668B1B7BED556EE SSTORE PUSH1 0x3 SWAP1 PUSH3 0x586 CALLER SWAP1 JUMP JUMPDEST PUSH1 0x1 PUSH1 0x1 PUSH1 0xA0 SHL SUB AND DUP2 MSTORE PUSH1 0x20 DUP2 ADD SWAP2 SWAP1 SWAP2 MSTORE PUSH1 0x40 ADD PUSH1 0x0 KECCAK256 SSTORE PUSH3 0x76B JUMP JUMPDEST PUSH1 0x0 DUP2 DUP5 DUP5 GT ISZERO PUSH3 0x5D6 JUMPI PUSH1 0x40 MLOAD PUSH3 0x461BCD PUSH1 0xE5 SHL DUP2 MSTORE PUSH1 0x4 ADD PUSH3 0x5CD SWAP2 SWAP1 PUSH3 0x6B0 JUMP JUMPDEST PUSH1 0x40 MLOAD DUP1 SWAP2 SUB SWAP1 REVERT JUMPDEST POP PUSH1 0x0 PUSH3 0x5E5 DUP5 DUP7 PUSH3 0x708 JUMP JUMPDEST SWAP6 SWAP5 POP POP POP POP POP JUMP JUMPDEST DUP3 DUP1 SLOAD PUSH3 0x5FC SWAP1 PUSH3 0x72E JUMP JUMPDEST SWAP1 PUSH1 0x0 MSTORE PUSH1 0x20 PUSH1 0x0 KECCAK256 SWAP1 PUSH1 0x1F ADD PUSH1 0x20 SWAP1 DIV DUP2 ADD SWAP3 DUP3 PUSH3 0x620 JUMPI PUSH1 0x0 DUP6 SSTORE PUSH3 0x66B JUMP JUMPDEST DUP3 PUSH1 0x1F LT PUSH3 0x63B JUMPI DUP1 MLOAD PUSH1 0xFF NOT AND DUP4 DUP1 ADD OR DUP6 SSTORE PUSH3 0x66B JUMP JUMPDEST DUP3 DUP1 ADD PUSH1 0x1 ADD DUP6 SSTORE DUP3 ISZERO PUSH3 0x66B JUMPI SWAP2 DUP3 ADD JUMPDEST DUP3 DUP2 GT ISZERO PUSH3 0x66B JUMPI DUP3 MLOAD DUP3 SSTORE SWAP2 PUSH1 0x20 ADD SWAP2 SWAP1 PUSH1 0x1 ADD SWAP1 PUSH3 0x64E JUMP JUMPDEST POP PUSH3 0x679 SWAP3 SWAP2 POP PUSH3 0x699 JUMP JUMPDEST POP SWAP1 JUMP JUMPDEST PUSH2 0x71D DUP1 PUSH3 0x42D2 DUP4 CODECOPY ADD SWAP1 JUMP JUMPDEST PUSH2 0xD91 DUP1 PUSH3 0x49EF DUP4 CODECOPY ADD SWAP1 JUMP JUMPDEST JUMPDEST DUP1 DUP3 GT ISZERO PUSH3 0x679 JUMPI PUSH1 0x0 DUP2 SSTORE PUSH1 0x1 ADD PUSH3 0x69A JUMP JUMPDEST PUSH1 0x0 PUSH1 0x20 DUP1 DUP4 MSTORE DUP4 MLOAD DUP1 DUP3 DUP6 ADD MSTORE PUSH1 0x0 JUMPDEST DUP2 DUP2 LT ISZERO PUSH3 0x6DF JUMPI DUP6 DUP2 ADD DUP4 ADD MLOAD DUP6 DUP3 ADD PUSH1 0x40 ADD MSTORE DUP3 ADD PUSH3 0x6C1 JUMP JUMPDEST DUP2 DUP2 GT ISZERO PUSH3 0x6F2 JUMPI PUSH1 0x0 PUSH1 0x40 DUP4 DUP8 ADD ADD MSTORE JUMPDEST POP PUSH1 0x1F ADD PUSH1 0x1F NOT AND SWAP3 SWAP1 SWAP3 ADD PUSH1 0x40 ADD SWAP4 SWAP3 POP POP POP JUMP JUMPDEST PUSH1 0x0 DUP3 DUP3 LT ISZERO PUSH3 0x729 JUMPI PUSH4 0x4E487B71 PUSH1 0xE0 SHL PUSH1 0x0 MSTORE PUSH1 0x11 PUSH1 0x4 MSTORE PUSH1 0x24 PUSH1 0x0 REVERT JUMPDEST POP SUB SWAP1 JUMP JUMPDEST PUSH1 0x1 DUP2 DUP2 SHR SWAP1 DUP3 AND DUP1 PUSH3 0x743 JUMPI PUSH1 0x7F DUP3 AND SWAP2 POP JUMPDEST PUSH1 0x20 DUP3 LT DUP2 EQ ISZERO PUSH3 0x765 JUMPI PUSH4 0x4E487B71 PUSH1 0xE0 SHL PUSH1 0x0 MSTORE PUSH1 0x22 PUSH1 0x4 MSTORE PUSH1 0x24 PUSH1 0x0 REVERT JUMPDEST POP SWAP2 SWAP1 POP JUMP JUMPDEST PUSH2 0x3B57 DUP1 PUSH3 0x77B PUSH1 0x0 CODECOPY PUSH1 0x0 RETURN INVALID PUSH1 0x80 PUSH1 0x40 MSTORE PUSH1 0x4 CALLDATASIZE LT PUSH2 0x2CD JUMPI PUSH1 0x0 CALLDATALOAD PUSH1 0xE0 SHR DUP1 PUSH4 0xA071DCF4 GT PUSH2 0x175 JUMPI DUP1 PUSH4 0xDD62ED3E GT PUSH2 0xDC JUMPI DUP1 PUSH4 0xF13BDD7B GT PUSH2 0x95 JUMPI DUP1 PUSH4 0xF6A27A51 GT PUSH2 0x6F JUMPI DUP1 PUSH4 0xF6A27A51 EQ PUSH2 0x8D3 JUMPI DUP1 PUSH4 0xF729B00F EQ PUSH2 0x8F3 JUMPI DUP1 PUSH4 0xFA51C633 EQ PUSH2 0x913 JUMPI DUP1 PUSH4 0xFBA29814 EQ PUSH2 0x928 JUMPI PUSH2 0x2D4 JUMP JUMPDEST DUP1 PUSH4 0xF13BDD7B EQ PUSH2 0x875 JUMPI DUP1 PUSH4 0xF1FDF469 EQ PUSH2 0x893 JUMPI DUP1 PUSH4 0xF2FDE38B EQ PUSH2 0x8B3 JUMPI PUSH2 0x2D4 JUMP JUMPDEST DUP1 PUSH4 0xDD62ED3E EQ PUSH2 0x78D JUMPI DUP1 PUSH4 0xDDBAD8B8 EQ PUSH2 0x7D3 JUMPI DUP1 PUSH4 0xE39CA658 EQ PUSH2 0x800 JUMPI DUP1 PUSH4 0xE73E14BF EQ PUSH2 0x820 JUMPI DUP1 PUSH4 0xEB02983D EQ PUSH2 0x840 JUMPI DUP1 PUSH4 0xEE3A91CC EQ PUSH2 0x855 JUMPI PUSH2 0x2D4 JUMP JUMPDEST DUP1 PUSH4 0xB5838A27 GT PUSH2 0x12E JUMPI DUP1 PUSH4 0xB5838A27 EQ PUSH2 0x6E5 JUMPI DUP1 PUSH4 0xB5938D73 EQ PUSH2 0x703 JUMPI DUP1 PUSH4 0xCF79D2F9 EQ PUSH2 0x723 JUMPI DUP1 PUSH4 0xD25812C6 EQ PUSH2 0x738 JUMPI DUP1 PUSH4 0xD871D759 EQ PUSH2 0x74D JUMPI DUP1 PUSH4 0xD94D4AD6 EQ PUSH2 0x76D JUMPI PUSH2 0x2D4 JUMP JUMPDEST DUP1 PUSH4 0xA071DCF4 EQ PUSH2 0x62A JUMPI DUP1 PUSH4 0xA169C515 EQ PUSH2 0x643 JUMPI DUP1 PUSH4 0xA457C2D7 EQ PUSH2 0x663 JUMPI DUP1 PUSH4 0xA9059CBB EQ PUSH2 0x683 JUMPI DUP1 PUSH4 0xAC227806 EQ PUSH2 0x6A3 JUMPI DUP1 PUSH4 0xB09D4B4E EQ PUSH2 0x6B8 JUMPI PUSH2 0x2D4 JUMP JUMPDEST DUP1 PUSH4 0x3B124FE7 GT PUSH2 0x234 JUMPI DUP1 PUSH4 0x715018A6 GT PUSH2 0x1ED JUMPI DUP1 PUSH4 0x893D20E8 GT PUSH2 0x1C7 JUMPI DUP1 PUSH4 0x893D20E8 EQ PUSH2 0x5D7 JUMPI DUP1 PUSH4 0x8DA5CB5B EQ PUSH2 0x5D7 JUMPI DUP1 PUSH4 0x95D89B41 EQ PUSH2 0x5F5 JUMPI DUP1 PUSH4 0xA0712D68 EQ PUSH2 0x60A JUMPI PUSH2 0x2D4 JUMP JUMPDEST DUP1 PUSH4 0x715018A6 EQ PUSH2 0x582 JUMPI DUP1 PUSH4 0x7B0472F0 EQ PUSH2 0x597 JUMPI DUP1 PUSH4 0x8902CD70 EQ PUSH2 0x5B7 JUMPI PUSH2 0x2D4 JUMP JUMPDEST DUP1 PUSH4 0x3B124FE7 EQ PUSH2 0x4B6 JUMPI DUP1 PUSH4 0x402F3FC7 EQ PUSH2 0x4E4 JUMPI DUP1 PUSH4 0x4376D452 EQ PUSH2 0x502 JUMPI DUP1 PUSH4 0x494F2B3A EQ PUSH2 0x517 JUMPI DUP1 PUSH4 0x5C01CA12 EQ PUSH2 0x52C JUMPI DUP1 PUSH4 0x70A08231 EQ PUSH2 0x54C JUMPI PUSH2 0x2D4 JUMP JUMPDEST DUP1 PUSH4 0x242119B5 GT PUSH2 0x286 JUMPI DUP1 PUSH4 0x242119B5 EQ PUSH2 0x3E9 JUMPI DUP1 PUSH4 0x269547CA EQ PUSH2 0x40B JUMPI DUP1 PUSH4 0x275728C9 EQ PUSH2 0x422 JUMPI DUP1 PUSH4 0x313CE567 EQ PUSH2 0x454 JUMPI DUP1 PUSH4 0x33872F7D EQ PUSH2 0x476 JUMPI DUP1 PUSH4 0x39509351 EQ PUSH2 0x496 JUMPI PUSH2 0x2D4 JUMP JUMPDEST DUP1 PUSH4 0x6FDDE03 EQ PUSH2 0x316 JUMPI DUP1 PUSH4 0x95EA7B3 EQ PUSH2 0x341 JUMPI DUP1 PUSH4 0xE1B09ED EQ PUSH2 0x371 JUMPI DUP1 PUSH4 0x109C5AB0 EQ PUSH2 0x391 JUMPI DUP1 PUSH4 0x18160DDD EQ PUSH2 0x3B4 JUMPI DUP1 PUSH4 0x23B872DD EQ PUSH2 0x3C9 JUMPI PUSH2 0x2D4 JUMP JUMPDEST CALLDATASIZE PUSH2 0x2D4 JUMPI STOP JUMPDEST PUSH1 0x18 SLOAD PUSH1 0x1 PUSH1 0x1 PUSH1 0xA0 SHL SUB AND PUSH1 0x0 SWAP1 DUP2 MSTORE PUSH1 0x3 PUSH1 0x20 MSTORE PUSH1 0x40 SWAP1 KECCAK256 SLOAD PUSH2 0x2F9 SWAP1 CALLVALUE PUSH2 0x93D JUMP JUMPDEST PUSH1 0x18 SLOAD PUSH1 0x1 PUSH1 0x1 PUSH1 0xA0 SHL SUB AND PUSH1 0x0 SWAP1 DUP2 MSTORE PUSH1 0x3 PUSH1 0x20 MSTORE PUSH1 0x40 SWAP1 KECCAK256 SSTORE STOP JUMPDEST CALLVALUE DUP1 ISZERO PUSH2 0x322 JUMPI PUSH1 0x0 DUP1 REVERT JUMPDEST POP PUSH2 0x32B PUSH2 0x9AA JUMP JUMPDEST PUSH1 0x40 MLOAD PUSH2 0x338 SWAP2 SWAP1 PUSH2 0x35BF JUMP JUMPDEST PUSH1 0x40 MLOAD DUP1 SWAP2 SUB SWAP1 RETURN JUMPDEST CALLVALUE DUP1 ISZERO PUSH2 0x34D JUMPI PUSH1 0x0 DUP1 REVERT JUMPDEST POP PUSH2 0x361 PUSH2 0x35C CALLDATASIZE PUSH1 0x4 PUSH2 0x3629 JUMP JUMPDEST PUSH2 0xA3C JUMP JUMPDEST PUSH1 0x40 MLOAD SWAP1 ISZERO ISZERO DUP2 MSTORE PUSH1 0x20 ADD PUSH2 0x338 JUMP JUMPDEST CALLVALUE DUP1 ISZERO PUSH2 0x37D JUMPI PUSH1 0x0 DUP1 REVERT JUMPDEST POP PUSH2 0x361 PUSH2 0x38C CALLDATASIZE PUSH1 0x4 PUSH2 0x3655 JUMP JUMPDEST PUSH2 0xA52 JUMP JUMPDEST CALLVALUE DUP1 ISZERO PUSH2 0x39D JUMPI PUSH1 0x0 DUP1 REVERT JUMPDEST POP PUSH2 0x3A6 PUSH2 0xB10 JUMP JUMPDEST PUSH1 0x40 MLOAD SWAP1 DUP2 MSTORE PUSH1 0x20 ADD PUSH2 0x338 JUMP JUMPDEST CALLVALUE DUP1 ISZERO PUSH2 0x3C0 JUMPI PUSH1 0x0 DUP1 REVERT JUMPDEST POP PUSH1 0x7 SLOAD PUSH2 0x3A6 JUMP JUMPDEST CALLVALUE DUP1 ISZERO PUSH2 0x3D5 JUMPI PUSH1 0x0 DUP1 REVERT JUMPDEST POP PUSH2 0x361 PUSH2 0x3E4 CALLDATASIZE PUSH1 0x4 PUSH2 0x366E JUMP JUMPDEST PUSH2 0xB83 JUMP JUMPDEST CALLVALUE DUP1 ISZERO PUSH2 0x3F5 JUMPI PUSH1 0x0 DUP1 REVERT JUMPDEST POP PUSH2 0x3FE PUSH2 0xBEC JUMP JUMPDEST PUSH1 0x40 MLOAD PUSH2 0x338 SWAP2 SWAP1 PUSH2 0x36D2 JUMP JUMPDEST CALLVALUE DUP1 ISZERO PUSH2 0x417 JUMPI PUSH1 0x0 DUP1 REVERT JUMPDEST POP PUSH2 0x420 PUSH2 0xBFC JUMP JUMPDEST STOP JUMPDEST CALLVALUE DUP1 ISZERO PUSH2 0x42E JUMPI PUSH1 0x0 DUP1 REVERT JUMPDEST POP PUSH1 0x1B SLOAD PUSH1 0x1 PUSH1 0x1 PUSH1 0xA0 SHL SUB AND JUMPDEST PUSH1 0x40 MLOAD PUSH1 0x1 PUSH1 0x1 PUSH1 0xA0 SHL SUB SWAP1 SWAP2 AND DUP2 MSTORE PUSH1 0x20 ADD PUSH2 0x338 JUMP JUMPDEST CALLVALUE DUP1 ISZERO PUSH2 0x460 JUMPI PUSH1 0x0 DUP1 REVERT JUMPDEST POP PUSH1 0x8 SLOAD PUSH1 0x40 MLOAD PUSH1 0xFF SWAP1 SWAP2 AND DUP2 MSTORE PUSH1 0x20 ADD PUSH2 0x338 JUMP JUMPDEST CALLVALUE DUP1 ISZERO PUSH2 0x482 JUMPI PUSH1 0x0 DUP1 REVERT JUMPDEST POP PUSH1 0x1C SLOAD PUSH2 0x43C SWAP1 PUSH1 0x1 PUSH1 0x1 PUSH1 0xA0 SHL SUB AND DUP2 JUMP JUMPDEST CALLVALUE DUP1 ISZERO PUSH2 0x4A2 JUMPI PUSH1 0x0 DUP1 REVERT JUMPDEST POP PUSH2 0x361 PUSH2 0x4B1 CALLDATASIZE PUSH1 0x4 PUSH2 0x3629 JUMP JUMPDEST PUSH2 0xD63 JUMP JUMPDEST CALLVALUE DUP1 ISZERO PUSH2 0x4C2 JUMPI PUSH1 0x0 DUP1 REVERT JUMPDEST POP PUSH1 0x6 SLOAD PUSH2 0x4D1 SWAP1 PUSH2 0xFFFF AND DUP2 JUMP JUMPDEST PUSH1 0x40 MLOAD PUSH2 0xFFFF SWAP1 SWAP2 AND DUP2 MSTORE PUSH1 0x20 ADD PUSH2 0x338 JUMP JUMPDEST CALLVALUE DUP1 ISZERO PUSH2 0x4F0 JUMPI PUSH1 0x0 DUP1 REVERT JUMPDEST POP PUSH1 0x1A SLOAD PUSH1 0x1 PUSH1 0x1 PUSH1 0xA0 SHL SUB AND PUSH2 0x43C JUMP JUMPDEST CALLVALUE DUP1 ISZERO PUSH2 0x50E JUMPI PUSH1 0x0 DUP1 REVERT JUMPDEST POP PUSH2 0x3A6 PUSH2 0xD99 JUMP JUMPDEST CALLVALUE DUP1 ISZERO PUSH2 0x523 JUMPI PUSH1 0x0 DUP1 REVERT JUMPDEST POP PUSH2 0x3A6 PUSH2 0xDE3 JUMP JUMPDEST CALLVALUE DUP1 ISZERO PUSH2 0x538 JUMPI PUSH1 0x0 DUP1 REVERT JUMPDEST POP PUSH2 0x420 PUSH2 0x547 CALLDATASIZE PUSH1 0x4 PUSH2 0x36E1 JUMP JUMPDEST PUSH2 0xE14 JUMP JUMPDEST CALLVALUE DUP1 ISZERO PUSH2 0x558 JUMPI PUSH1 0x0 DUP1 REVERT JUMPDEST POP PUSH2 0x3A6 PUSH2 0x567 CALLDATASIZE PUSH1 0x4 PUSH2 0x36E1 JUMP JUMPDEST PUSH1 0x1 PUSH1 0x1 PUSH1 0xA0 SHL SUB AND PUSH1 0x0 SWAP1 DUP2 MSTORE PUSH1 0x3 PUSH1 0x20 MSTORE PUSH1 0x40 SWAP1 KECCAK256 SLOAD SWAP1 JUMP JUMPDEST CALLVALUE DUP1 ISZERO PUSH2 0x58E JUMPI PUSH1 0x0 DUP1 REVERT JUMPDEST POP PUSH2 0x420 PUSH2 0xEC7 JUMP JUMPDEST CALLVALUE DUP1 ISZERO PUSH2 0x5A3 JUMPI PUSH1 0x0 DUP1 REVERT JUMPDEST POP PUSH2 0x420 PUSH2 0x5B2 CALLDATASIZE PUSH1 0x4 PUSH2 0x36FE JUMP JUMPDEST PUSH2 0xF3B JUMP JUMPDEST CALLVALUE DUP1 ISZERO PUSH2 0x5C3 JUMPI PUSH1 0x0 DUP1 REVERT JUMPDEST POP PUSH2 0x361 PUSH2 0x5D2 CALLDATASIZE PUSH1 0x4 PUSH2 0x3720 JUMP JUMPDEST PUSH2 0x105E JUMP JUMPDEST CALLVALUE DUP1 ISZERO PUSH2 0x5E3 JUMPI PUSH1 0x0 DUP1 REVERT JUMPDEST POP PUSH1 0x0 SLOAD PUSH1 0x1 PUSH1 0x1 PUSH1 0xA0 SHL SUB AND PUSH2 0x43C JUMP JUMPDEST CALLVALUE DUP1 ISZERO PUSH2 0x601 JUMPI PUSH1 0x0 DUP1 REVERT JUMPDEST POP PUSH2 0x32B PUSH2 0x10A3 JUMP JUMPDEST CALLVALUE DUP1 ISZERO PUSH2 0x616 JUMPI PUSH1 0x0 DUP1 REVERT JUMPDEST POP PUSH2 0x361 PUSH2 0x625 CALLDATASIZE PUSH1 0x4 PUSH2 0x3655 JUMP JUMPDEST PUSH2 0x10B2 JUMP JUMPDEST CALLVALUE DUP1 ISZERO PUSH2 0x636 JUMPI PUSH1 0x0 DUP1 REVERT JUMPDEST POP PUSH1 0x6 SLOAD PUSH2 0xFFFF AND PUSH2 0x3A6 JUMP JUMPDEST CALLVALUE DUP1 ISZERO PUSH2 0x64F JUMPI PUSH1 0x0 DUP1 REVERT JUMPDEST POP PUSH2 0x361 PUSH2 0x65E CALLDATASIZE PUSH1 0x4 PUSH2 0x3655 JUMP JUMPDEST PUSH2 0x10E7 JUMP JUMPDEST CALLVALUE DUP1 ISZERO PUSH2 0x66F JUMPI PUSH1 0x0 DUP1 REVERT JUMPDEST POP PUSH2 0x361 PUSH2 0x67E CALLDATASIZE PUSH1 0x4 PUSH2 0x3629 JUMP JUMPDEST PUSH2 0x1176 JUMP JUMPDEST CALLVALUE DUP1 ISZERO PUSH2 0x68F JUMPI PUSH1 0x0 DUP1 REVERT JUMPDEST POP PUSH2 0x361 PUSH2 0x69E CALLDATASIZE PUSH1 0x4 PUSH2 0x3629 JUMP JUMPDEST PUSH2 0x11C5 JUMP JUMPDEST CALLVALUE DUP1 ISZERO PUSH2 0x6AF JUMPI PUSH1 0x0 DUP1 REVERT JUMPDEST POP PUSH2 0x420 PUSH2 0x11D2 JUMP JUMPDEST CALLVALUE DUP1 ISZERO PUSH2 0x6C4 JUMPI PUSH1 0x0 DUP1 REVERT JUMPDEST POP PUSH2 0x6D8 PUSH2 0x6D3 CALLDATASIZE PUSH1 0x4 PUSH2 0x36E1 JUMP JUMPDEST PUSH2 0x120C JUMP JUMPDEST PUSH1 0x40 MLOAD PUSH2 0x338 SWAP2 SWAP1 PUSH2 0x3744 JUMP JUMPDEST CALLVALUE DUP1 ISZERO PUSH2 0x6F1 JUMPI PUSH1 0x0 DUP1 REVERT JUMPDEST POP PUSH1 0x19 SLOAD PUSH1 0x1 PUSH1 0x1 PUSH1 0xA0 SHL SUB AND PUSH2 0x43C JUMP JUMPDEST CALLVALUE DUP1 ISZERO PUSH2 0x70F JUMPI PUSH1 0x0 DUP1 REVERT JUMPDEST POP PUSH1 0x1A SLOAD PUSH2 0x43C SWAP1 PUSH1 0x1 PUSH1 0x1 PUSH1 0xA0 SHL SUB AND DUP2 JUMP JUMPDEST CALLVALUE DUP1 ISZERO PUSH2 0x72F JUMPI PUSH1 0x0 DUP1 REVERT JUMPDEST POP PUSH2 0x3A6 PUSH2 0x131C JUMP JUMPDEST CALLVALUE DUP1 ISZERO PUSH2 0x744 JUMPI PUSH1 0x0 DUP1 REVERT JUMPDEST POP PUSH2 0x3FE PUSH2 0x134D JUMP JUMPDEST CALLVALUE DUP1 ISZERO PUSH2 0x759 JUMPI PUSH1 0x0 DUP1 REVERT JUMPDEST POP PUSH2 0x420 PUSH2 0x768 CALLDATASIZE PUSH1 0x4 PUSH2 0x36E1 JUMP JUMPDEST PUSH2 0x135D JUMP JUMPDEST CALLVALUE DUP1 ISZERO PUSH2 0x779 JUMPI PUSH1 0x0 DUP1 REVERT JUMPDEST POP PUSH2 0x361 PUSH2 0x788 CALLDATASIZE PUSH1 0x4 PUSH2 0x3655 JUMP JUMPDEST PUSH2 0x13DF JUMP JUMPDEST CALLVALUE DUP1 ISZERO PUSH2 0x799 JUMPI PUSH1 0x0 DUP1 REVERT JUMPDEST POP PUSH2 0x3A6 PUSH2 0x7A8 CALLDATASIZE PUSH1 0x4 PUSH2 0x37DA JUMP JUMPDEST PUSH1 0x1 PUSH1 0x1 PUSH1 0xA0 SHL SUB SWAP2 DUP3 AND PUSH1 0x0 SWAP1 DUP2 MSTORE PUSH1 0x4 PUSH1 0x20 SWAP1 DUP2 MSTORE PUSH1 0x40 DUP1 DUP4 KECCAK256 SWAP4 SWAP1 SWAP5 AND DUP3 MSTORE SWAP2 SWAP1 SWAP2 MSTORE KECCAK256 SLOAD SWAP1 JUMP JUMPDEST CALLVALUE DUP1 ISZERO PUSH2 0x7DF JUMPI PUSH1 0x0 DUP1 REVERT JUMPDEST POP PUSH2 0x3A6 PUSH2 0x7EE CALLDATASIZE PUSH1 0x4 PUSH2 0x3655 JUMP JUMPDEST PUSH1 0x0 SWAP1 DUP2 MSTORE PUSH1 0x5 PUSH1 0x20 MSTORE PUSH1 0x40 SWAP1 KECCAK256 SLOAD SWAP1 JUMP JUMPDEST CALLVALUE DUP1 ISZERO PUSH2 0x80C JUMPI PUSH1 0x0 DUP1 REVERT JUMPDEST POP PUSH1 0x1B SLOAD PUSH2 0x43C SWAP1 PUSH1 0x1 PUSH1 0x1 PUSH1 0xA0 SHL SUB AND DUP2 JUMP JUMPDEST CALLVALUE DUP1 ISZERO PUSH2 0x82C JUMPI PUSH1 0x0 DUP1 REVERT JUMPDEST POP PUSH2 0x6D8 PUSH2 0x83B CALLDATASIZE PUSH1 0x4 PUSH2 0x36E1 JUMP JUMPDEST PUSH2 0x146E JUMP JUMPDEST CALLVALUE DUP1 ISZERO PUSH2 0x84C JUMPI PUSH1 0x0 DUP1 REVERT JUMPDEST POP PUSH2 0x420 PUSH2 0x1689 JUMP JUMPDEST CALLVALUE DUP1 ISZERO PUSH2 0x861 JUMPI PUSH1 0x0 DUP1 REVERT JUMPDEST POP PUSH1 0x19 SLOAD PUSH2 0x43C SWAP1 PUSH1 0x1 PUSH1 0x1 PUSH1 0xA0 SHL SUB AND DUP2 JUMP JUMPDEST CALLVALUE DUP1 ISZERO PUSH2 0x881 JUMPI PUSH1 0x0 DUP1 REVERT JUMPDEST POP PUSH1 0x1C SLOAD PUSH1 0x1 PUSH1 0x1 PUSH1 0xA0 SHL SUB AND PUSH2 0x43C JUMP JUMPDEST CALLVALUE DUP1 ISZERO PUSH2 0x89F JUMPI PUSH1 0x0 DUP1 REVERT JUMPDEST POP PUSH2 0x420 PUSH2 0x8AE CALLDATASIZE PUSH1 0x4 PUSH2 0x36FE JUMP JUMPDEST PUSH2 0x17C6 JUMP JUMPDEST CALLVALUE DUP1 ISZERO PUSH2 0x8BF JUMPI PUSH1 0x0 DUP1 REVERT JUMPDEST POP PUSH2 0x420 PUSH2 0x8CE CALLDATASIZE PUSH1 0x4 PUSH2 0x36E1 JUMP JUMPDEST PUSH2 0x1817 JUMP JUMPDEST CALLVALUE DUP1 ISZERO PUSH2 0x8DF JUMPI PUSH1 0x0 DUP1 REVERT JUMPDEST POP PUSH2 0x420 PUSH2 0x8EE CALLDATASIZE PUSH1 0x4 PUSH2 0x3629 JUMP JUMPDEST PUSH2 0x184D JUMP JUMPDEST CALLVALUE DUP1 ISZERO PUSH2 0x8FF JUMPI PUSH1 0x0 DUP1 REVERT JUMPDEST POP PUSH2 0x420 PUSH2 0x90E CALLDATASIZE PUSH1 0x4 PUSH2 0x3655 JUMP JUMPDEST PUSH2 0x19AC JUMP JUMPDEST CALLVALUE DUP1 ISZERO PUSH2 0x91F JUMPI PUSH1 0x0 DUP1 REVERT JUMPDEST POP PUSH2 0x3A6 PUSH2 0x19EB JUMP JUMPDEST CALLVALUE DUP1 ISZERO PUSH2 0x934 JUMPI PUSH1 0x0 DUP1 REVERT JUMPDEST POP PUSH2 0x420 PUSH2 0x1A1C JUMP JUMPDEST PUSH1 0x0 DUP1 PUSH2 0x94A DUP4 DUP6 PUSH2 0x3829 JUMP JUMPDEST SWAP1 POP DUP4 DUP2 LT ISZERO PUSH2 0x9A1 JUMPI PUSH1 0x40 MLOAD PUSH3 0x461BCD PUSH1 0xE5 SHL DUP2 MSTORE PUSH1 0x20 PUSH1 0x4 DUP3 ADD MSTORE PUSH1 0x1B PUSH1 0x24 DUP3 ADD MSTORE PUSH32 0x536166654D6174683A206164646974696F6E206F766572666C6F770000000000 PUSH1 0x44 DUP3 ADD MSTORE PUSH1 0x64 ADD JUMPDEST PUSH1 0x40 MLOAD DUP1 SWAP2 SUB SWAP1 REVERT JUMPDEST SWAP1 POP JUMPDEST SWAP3 SWAP2 POP POP JUMP JUMPDEST PUSH1 0x60 PUSH1 0xA DUP1 SLOAD PUSH2 0x9B9 SWAP1 PUSH2 0x3841 JUMP JUMPDEST DUP1 PUSH1 0x1F ADD PUSH1 0x20 DUP1 SWAP2 DIV MUL PUSH1 0x20 ADD PUSH1 0x40 MLOAD SWAP1 DUP2 ADD PUSH1 0x40 MSTORE DUP1 SWAP3 SWAP2 SWAP1 DUP2 DUP2 MSTORE PUSH1 0x20 ADD DUP3 DUP1 SLOAD PUSH2 0x9E5 SWAP1 PUSH2 0x3841 JUMP JUMPDEST DUP1 ISZERO PUSH2 0xA32 JUMPI DUP1 PUSH1 0x1F LT PUSH2 0xA07 JUMPI PUSH2 0x100 DUP1 DUP4 SLOAD DIV MUL DUP4 MSTORE SWAP2 PUSH1 0x20 ADD SWAP2 PUSH2 0xA32 JUMP JUMPDEST DUP3 ADD SWAP2 SWAP1 PUSH1 0x0 MSTORE PUSH1 0x20 PUSH1 0x0 KECCAK256 SWAP1 JUMPDEST DUP2 SLOAD DUP2 MSTORE SWAP1 PUSH1 0x1 ADD SWAP1 PUSH1 0x20 ADD DUP1 DUP4 GT PUSH2 0xA15 JUMPI DUP3 SWAP1 SUB PUSH1 0x1F AND DUP3 ADD SWAP2 JUMPDEST POP POP POP POP POP SWAP1 POP SWAP1 JUMP JUMPDEST PUSH1 0x0 PUSH2 0xA49 CALLER DUP5 DUP5 PUSH2 0x1A72 JUMP JUMPDEST POP PUSH1 0x1 SWAP3 SWAP2 POP POP JUMP JUMPDEST PUSH1 0x0 DUP1 SLOAD PUSH1 0x1 PUSH1 0x1 PUSH1 0xA0 SHL SUB AND CALLER EQ PUSH2 0xA7D JUMPI PUSH1 0x40 MLOAD PUSH3 0x461BCD PUSH1 0xE5 SHL DUP2 MSTORE PUSH1 0x4 ADD PUSH2 0x998 SWAP1 PUSH2 0x387C JUMP JUMPDEST PUSH1 0xD SLOAD DUP3 LT PUSH2 0xAE8 JUMPI PUSH1 0x40 MLOAD PUSH3 0x461BCD PUSH1 0xE5 SHL DUP2 MSTORE PUSH1 0x20 PUSH1 0x4 DUP3 ADD MSTORE PUSH1 0x31 PUSH1 0x24 DUP3 ADD MSTORE PUSH32 0x416D6F756E74206275726E742063616E6E6F74206265206C6172676572207468 PUSH1 0x44 DUP3 ADD MSTORE PUSH17 0x185B8814DD185ADA5B99C814995DD85C99 PUSH1 0x7A SHL PUSH1 0x64 DUP3 ADD MSTORE PUSH1 0x84 ADD PUSH2 0x998 JUMP JUMPDEST PUSH1 0xD SLOAD PUSH2 0xAF5 SWAP1 DUP4 PUSH2 0x1B96 JUMP JUMPDEST PUSH1 0xD SSTORE PUSH1 0x7 SLOAD PUSH2 0xB05 SWAP1 DUP4 PUSH2 0x1B96 JUMP JUMPDEST PUSH1 0x7 SSTORE POP PUSH1 0x1 SWAP2 SWAP1 POP JUMP JUMPDEST PUSH1 0x1B SLOAD PUSH1 0x40 MLOAD PUSH4 0xA375DE8F PUSH1 0xE0 SHL DUP2 MSTORE CALLER PUSH1 0x4 DUP3 ADD MSTORE PUSH1 0x0 SWAP2 PUSH1 0x1 PUSH1 0x1 PUSH1 0xA0 SHL SUB AND SWAP1 PUSH4 0xA375DE8F SWAP1 PUSH1 0x24 ADD JUMPDEST PUSH1 0x20 PUSH1 0x40 MLOAD DUP1 DUP4 SUB DUP2 DUP7 GAS STATICCALL ISZERO DUP1 ISZERO PUSH2 0xB5A JUMPI RETURNDATASIZE PUSH1 0x0 DUP1 RETURNDATACOPY RETURNDATASIZE PUSH1 0x0 REVERT JUMPDEST POP POP POP POP PUSH1 0x40 MLOAD RETURNDATASIZE PUSH1 0x1F NOT PUSH1 0x1F DUP3 ADD AND DUP3 ADD DUP1 PUSH1 0x40 MSTORE POP DUP2 ADD SWAP1 PUSH2 0xB7E SWAP2 SWAP1 PUSH2 0x38B1 JUMP JUMPDEST SWAP1 POP SWAP1 JUMP JUMPDEST PUSH1 0x0 PUSH2 0xB90 DUP5 DUP5 DUP5 PUSH2 0x1BD8 JUMP JUMPDEST PUSH2 0xBE2 DUP5 CALLER PUSH2 0xBDD DUP6 PUSH1 0x40 MLOAD DUP1 PUSH1 0x60 ADD PUSH1 0x40 MSTORE DUP1 PUSH1 0x28 DUP2 MSTORE PUSH1 0x20 ADD PUSH2 0x3A8D PUSH1 0x28 SWAP2 CODECOPY PUSH1 0x1 PUSH1 0x1 PUSH1 0xA0 SHL SUB DUP11 AND PUSH1 0x0 SWAP1 DUP2 MSTORE PUSH1 0x4 PUSH1 0x20 SWAP1 DUP2 MSTORE PUSH1 0x40 DUP1 DUP4 KECCAK256 CALLER DUP5 MSTORE SWAP1 SWAP2 MSTORE SWAP1 KECCAK256 SLOAD SWAP2 SWAP1 PUSH2 0x1A38 JUMP JUMPDEST PUSH2 0x1A72 JUMP JUMPDEST POP PUSH1 0x1 SWAP4 SWAP3 POP POP POP JUMP JUMPDEST PUSH2 0xBF4 PUSH2 0x35A0 JUMP JUMPDEST PUSH2 0xB7E PUSH2 0x1D9D JUMP JUMPDEST PUSH1 0x19 PUSH1 0x0 SWAP1 SLOAD SWAP1 PUSH2 0x100 EXP SWAP1 DIV PUSH1 0x1 PUSH1 0x1 PUSH1 0xA0 SHL SUB AND PUSH1 0x1 PUSH1 0x1 PUSH1 0xA0 SHL SUB AND PUSH4 0x38AF3EED PUSH1 0x40 MLOAD DUP2 PUSH4 0xFFFFFFFF AND PUSH1 0xE0 SHL DUP2 MSTORE PUSH1 0x4 ADD PUSH1 0x20 PUSH1 0x40 MLOAD DUP1 DUP4 SUB DUP2 DUP7 GAS STATICCALL ISZERO DUP1 ISZERO PUSH2 0xC4F JUMPI RETURNDATASIZE PUSH1 0x0 DUP1 RETURNDATACOPY RETURNDATASIZE PUSH1 0x0 REVERT JUMPDEST POP POP POP POP PUSH1 0x40 MLOAD RETURNDATASIZE PUSH1 0x1F NOT PUSH1 0x1F DUP3 ADD AND DUP3 ADD DUP1 PUSH1 0x40 MSTORE POP DUP2 ADD SWAP1 PUSH2 0xC73 SWAP2 SWAP1 PUSH2 0x38CA JUMP JUMPDEST PUSH1 0x1 PUSH1 0x1 PUSH1 0xA0 SHL SUB AND CALLER PUSH1 0x1 PUSH1 0x1 PUSH1 0xA0 SHL SUB AND EQ DUP1 PUSH2 0xC9C JUMPI POP PUSH1 0x0 SLOAD PUSH1 0x1 PUSH1 0x1 PUSH1 0xA0 SHL SUB AND CALLER EQ JUMPDEST PUSH2 0xCB8 JUMPI PUSH1 0x40 MLOAD PUSH3 0x461BCD PUSH1 0xE5 SHL DUP2 MSTORE PUSH1 0x4 ADD PUSH2 0x998 SWAP1 PUSH2 0x38E7 JUMP JUMPDEST PUSH1 0x19 SLOAD PUSH1 0x0 SWAP1 PUSH1 0x1 PUSH1 0x1 PUSH1 0xA0 SHL SUB AND PUSH4 0xC8100DCC PUSH2 0xCD4 PUSH2 0x1FDD JUMP JUMPDEST PUSH1 0x40 MLOAD DUP3 PUSH4 0xFFFFFFFF AND PUSH1 0xE0 SHL DUP2 MSTORE PUSH1 0x4 ADD PUSH2 0xCF0 SWAP2 SWAP1 PUSH2 0x36D2 JUMP JUMPDEST PUSH1 0x20 PUSH1 0x40 MLOAD DUP1 DUP4 SUB DUP2 PUSH1 0x0 DUP8 GAS CALL ISZERO DUP1 ISZERO PUSH2 0xD0F JUMPI RETURNDATASIZE PUSH1 0x0 DUP1 RETURNDATACOPY RETURNDATASIZE PUSH1 0x0 REVERT JUMPDEST POP POP POP POP PUSH1 0x40 MLOAD RETURNDATASIZE PUSH1 0x1F NOT PUSH1 0x1F DUP3 ADD AND DUP3 ADD DUP1 PUSH1 0x40 MSTORE POP DUP2 ADD SWAP1 PUSH2 0xD33 SWAP2 SWAP1 PUSH2 0x38B1 JUMP JUMPDEST CALLER PUSH1 0x0 SWAP1 DUP2 MSTORE PUSH1 0x3 PUSH1 0x20 MSTORE PUSH1 0x40 SWAP1 KECCAK256 SLOAD SWAP1 SWAP2 POP PUSH2 0xD50 SWAP1 DUP3 PUSH2 0x93D JUMP JUMPDEST CALLER PUSH1 0x0 SWAP1 DUP2 MSTORE PUSH1 0x3 PUSH1 0x20 MSTORE PUSH1 0x40 SWAP1 KECCAK256 SSTORE POP JUMP JUMPDEST CALLER PUSH1 0x0 DUP2 DUP2 MSTORE PUSH1 0x4 PUSH1 0x20 SWAP1 DUP2 MSTORE PUSH1 0x40 DUP1 DUP4 KECCAK256 PUSH1 0x1 PUSH1 0x1 PUSH1 0xA0 SHL SUB DUP8 AND DUP5 MSTORE SWAP1 SWAP2 MSTORE DUP2 KECCAK256 SLOAD SWAP1 SWAP2 PUSH2 0xA49 SWAP2 DUP6 SWAP1 PUSH2 0xBDD SWAP1 DUP7 PUSH2 0x93D JUMP JUMPDEST PUSH1 0x19 SLOAD PUSH1 0x40 DUP1 MLOAD PUSH4 0x5501881F PUSH1 0xE0 SHL DUP2 MSTORE SWAP1 MLOAD PUSH1 0x0 SWAP3 PUSH1 0x1 PUSH1 0x1 PUSH1 0xA0 SHL SUB AND SWAP2 PUSH4 0x5501881F SWAP2 PUSH1 0x4 DUP1 DUP4 ADD SWAP3 PUSH1 0x20 SWAP3 SWAP2 SWAP1 DUP3 SWAP1 SUB ADD DUP2 DUP7 GAS STATICCALL ISZERO DUP1 ISZERO PUSH2 0xB5A JUMPI RETURNDATASIZE PUSH1 0x0 DUP1 RETURNDATACOPY RETURNDATASIZE PUSH1 0x0 REVERT JUMPDEST PUSH1 0x1B SLOAD PUSH1 0x40 MLOAD PUSH4 0x9CC2AE6F PUSH1 0xE0 SHL DUP2 MSTORE CALLER PUSH1 0x4 DUP3 ADD MSTORE PUSH1 0x0 SWAP2 PUSH1 0x1 PUSH1 0x1 PUSH1 0xA0 SHL SUB AND SWAP1 PUSH4 0x9CC2AE6F SWAP1 PUSH1 0x24 ADD PUSH2 0xB3D JUMP JUMPDEST PUSH1 0x0 SLOAD PUSH1 0x1 PUSH1 0x1 PUSH1 0xA0 SHL SUB AND CALLER EQ PUSH2 0xE3E JUMPI PUSH1 0x40 MLOAD PUSH3 0x461BCD PUSH1 0xE5 SHL DUP2 MSTORE PUSH1 0x4 ADD PUSH2 0x998 SWAP1 PUSH2 0x387C JUMP JUMPDEST PUSH1 0x1 PUSH1 0x1 PUSH1 0xA0 SHL SUB DUP2 AND PUSH2 0xE64 JUMPI PUSH1 0x40 MLOAD PUSH3 0x461BCD PUSH1 0xE5 SHL DUP2 MSTORE PUSH1 0x4 ADD PUSH2 0x998 SWAP1 PUSH2 0x3944 JUMP JUMPDEST PUSH1 0x1B SLOAD PUSH1 0x40 MLOAD PUSH4 0x2E307913 PUSH1 0xE1 SHL DUP2 MSTORE PUSH1 0x1 PUSH1 0x1 PUSH1 0xA0 SHL SUB DUP4 DUP2 AND PUSH1 0x4 DUP4 ADD MSTORE SWAP1 SWAP2 AND SWAP1 PUSH4 0x5C60F226 SWAP1 PUSH1 0x24 ADD JUMPDEST PUSH1 0x0 PUSH1 0x40 MLOAD DUP1 DUP4 SUB DUP2 PUSH1 0x0 DUP8 DUP1 EXTCODESIZE ISZERO DUP1 ISZERO PUSH2 0xEAC JUMPI PUSH1 0x0 DUP1 REVERT JUMPDEST POP GAS CALL ISZERO DUP1 ISZERO PUSH2 0xEC0 JUMPI RETURNDATASIZE PUSH1 0x0 DUP1 RETURNDATACOPY RETURNDATASIZE PUSH1 0x0 REVERT JUMPDEST POP POP POP POP POP JUMP JUMPDEST PUSH1 0x0 SLOAD PUSH1 0x1 PUSH1 0x1 PUSH1 0xA0 SHL SUB AND CALLER EQ PUSH2 0xEF1 JUMPI PUSH1 0x40 MLOAD PUSH3 0x461BCD PUSH1 0xE5 SHL DUP2 MSTORE PUSH1 0x4 ADD PUSH2 0x998 SWAP1 PUSH2 0x387C JUMP JUMPDEST PUSH1 0x0 DUP1 SLOAD PUSH1 0x40 MLOAD PUSH1 0x1 PUSH1 0x1 PUSH1 0xA0 SHL SUB SWAP1 SWAP2 AND SWAP1 PUSH32 0x8BE0079C531659141344CD1FD0A4F28419497F9722A3DAAFE3B4186F6B6457E0 SWAP1 DUP4 SWAP1 LOG3 PUSH1 0x0 DUP1 SLOAD PUSH1 0x1 PUSH1 0x1 PUSH1 0xA0 SHL SUB NOT AND SWAP1 SSTORE JUMP JUMPDEST DUP1 PUSH3 0x278D00 EQ DUP1 PUSH2 0xF4E JUMPI POP DUP1 PUSH3 0x76A700 EQ JUMPDEST DUP1 PUSH2 0xF5B JUMPI POP DUP1 PUSH3 0xED4E00 EQ JUMPDEST DUP1 PUSH2 0xF69 JUMPI POP DUP1 PUSH4 0x1E13380 EQ JUMPDEST PUSH2 0xFB5 JUMPI PUSH1 0x40 MLOAD PUSH3 0x461BCD PUSH1 0xE5 SHL DUP2 MSTORE PUSH1 0x20 PUSH1 0x4 DUP3 ADD DUP2 SWAP1 MSTORE PUSH1 0x24 DUP3 ADD MSTORE PUSH32 0x5374616B696E67207061636B616765206F7074696F6E206E6F74206578697374 PUSH1 0x44 DUP3 ADD MSTORE PUSH1 0x64 ADD PUSH2 0x998 JUMP JUMPDEST CALLER PUSH1 0x0 SWAP1 DUP2 MSTORE PUSH1 0x3 PUSH1 0x20 MSTORE PUSH1 0x40 SWAP1 KECCAK256 SLOAD DUP3 LT PUSH2 0x1026 JUMPI PUSH1 0x40 MLOAD PUSH3 0x461BCD PUSH1 0xE5 SHL DUP2 MSTORE PUSH1 0x20 PUSH1 0x4 DUP3 ADD MSTORE PUSH1 0x2A PUSH1 0x24 DUP3 ADD MSTORE PUSH32 0x54616C6178546F6B656E3A2043616E6E6F74207374616B65206D6F7265207468 PUSH1 0x44 DUP3 ADD MSTORE PUSH10 0x30B7103CB7BA9037BBB7 PUSH1 0xB1 SHL PUSH1 0x64 DUP3 ADD MSTORE PUSH1 0x84 ADD PUSH2 0x998 JUMP JUMPDEST PUSH1 0x0 DUP2 DUP2 MSTORE PUSH1 0x5 PUSH1 0x20 MSTORE PUSH1 0x40 SWAP1 KECCAK256 SLOAD PUSH2 0x1042 SWAP1 DUP4 SWAP1 DUP4 SWAP1 PUSH2 0x2340 JUMP JUMPDEST PUSH2 0x104C CALLER DUP4 PUSH2 0x24D3 JUMP JUMPDEST PUSH1 0xE SLOAD PUSH2 0x1059 SWAP1 DUP4 PUSH2 0x93D JUMP JUMPDEST POP POP POP JUMP JUMPDEST PUSH1 0x0 DUP1 SLOAD PUSH1 0x1 PUSH1 0x1 PUSH1 0xA0 SHL SUB AND CALLER EQ PUSH2 0x1089 JUMPI PUSH1 0x40 MLOAD PUSH3 0x461BCD PUSH1 0xE5 SHL DUP2 MSTORE PUSH1 0x4 ADD PUSH2 0x998 SWAP1 PUSH2 0x387C JUMP JUMPDEST PUSH1 0x6 DUP1 SLOAD PUSH2 0xFFFF NOT AND PUSH2 0xFFFF DUP5 AND OR SWAP1 SSTORE JUMPDEST POP PUSH1 0x1 SWAP2 SWAP1 POP JUMP JUMPDEST PUSH1 0x60 PUSH1 0x9 DUP1 SLOAD PUSH2 0x9B9 SWAP1 PUSH2 0x3841 JUMP JUMPDEST PUSH1 0x0 DUP1 SLOAD PUSH1 0x1 PUSH1 0x1 PUSH1 0xA0 SHL SUB AND CALLER EQ PUSH2 0x10DD JUMPI PUSH1 0x40 MLOAD PUSH3 0x461BCD PUSH1 0xE5 SHL DUP2 MSTORE PUSH1 0x4 ADD PUSH2 0x998 SWAP1 PUSH2 0x387C JUMP JUMPDEST PUSH2 0x109B CALLER DUP4 PUSH2 0x25DF JUMP JUMPDEST PUSH1 0x0 DUP1 SLOAD PUSH1 0x1 PUSH1 0x1 PUSH1 0xA0 SHL SUB AND CALLER EQ PUSH2 0x1112 JUMPI PUSH1 0x40 MLOAD PUSH3 0x461BCD PUSH1 0xE5 SHL DUP2 MSTORE PUSH1 0x4 ADD PUSH2 0x998 SWAP1 PUSH2 0x387C JUMP JUMPDEST DUP2 PUSH2 0x1159 JUMPI PUSH1 0x40 MLOAD PUSH3 0x461BCD PUSH1 0xE5 SHL DUP2 MSTORE PUSH1 0x20 PUSH1 0x4 DUP3 ADD MSTORE PUSH1 0x17 PUSH1 0x24 DUP3 ADD MSTORE PUSH23 0x416D6F756E74206D696E742063616E6E6F74206265203 PUSH1 0x4C SHL PUSH1 0x44 DUP3 ADD MSTORE PUSH1 0x64 ADD PUSH2 0x998 JUMP JUMPDEST PUSH1 0xD SLOAD PUSH2 0x1166 SWAP1 DUP4 PUSH2 0x93D JUMP JUMPDEST PUSH1 0xD SSTORE PUSH1 0x7 SLOAD PUSH2 0xB05 SWAP1 DUP4 PUSH2 0x93D JUMP JUMPDEST PUSH1 0x0 PUSH2 0xA49 CALLER DUP5 PUSH2 0xBDD DUP6 PUSH1 0x40 MLOAD DUP1 PUSH1 0x60 ADD PUSH1 0x40 MSTORE DUP1 PUSH1 0x25 DUP2 MSTORE PUSH1 0x20 ADD PUSH2 0x3ADB PUSH1 0x25 SWAP2 CODECOPY CALLER PUSH1 0x0 SWAP1 DUP2 MSTORE PUSH1 0x4 PUSH1 0x20 SWAP1 DUP2 MSTORE PUSH1 0x40 DUP1 DUP4 KECCAK256 PUSH1 0x1 PUSH1 0x1 PUSH1 0xA0 SHL SUB DUP14 AND DUP5 MSTORE SWAP1 SWAP2 MSTORE SWAP1 KECCAK256 SLOAD SWAP2 SWAP1 PUSH2 0x1A38 JUMP JUMPDEST PUSH1 0x0 PUSH2 0xA49 CALLER DUP5 DUP5 PUSH2 0x1BD8 JUMP JUMPDEST PUSH1 0x1B SLOAD PUSH1 0x0 SWAP1 PUSH1 0x1 PUSH1 0x1 PUSH1 0xA0 SHL SUB AND PUSH4 0x7B269F90 PUSH2 0x11EE PUSH2 0x1D9D JUMP JUMPDEST CALLER PUSH1 0x40 MLOAD DUP4 PUSH4 0xFFFFFFFF AND PUSH1 0xE0 SHL DUP2 MSTORE PUSH1 0x4 ADD PUSH2 0xCF0 SWAP3 SWAP2 SWAP1 PUSH2 0x3990 JUMP JUMPDEST PUSH1 0x40 DUP1 MLOAD DUP1 DUP3 ADD SWAP1 SWAP2 MSTORE PUSH1 0x0 DUP2 MSTORE PUSH1 0x60 PUSH1 0x20 DUP3 ADD MSTORE PUSH1 0x0 PUSH1 0x40 MLOAD DUP1 PUSH1 0x40 ADD PUSH1 0x40 MSTORE DUP1 PUSH1 0x0 DUP2 MSTORE PUSH1 0x20 ADD PUSH1 0x1 PUSH1 0x2 PUSH1 0x0 DUP8 PUSH1 0x1 PUSH1 0x1 PUSH1 0xA0 SHL SUB AND PUSH1 0x1 PUSH1 0x1 PUSH1 0xA0 SHL SUB AND DUP2 MSTORE PUSH1 0x20 ADD SWAP1 DUP2 MSTORE PUSH1 0x20 ADD PUSH1 0x0 KECCAK256 SLOAD DUP2 SLOAD DUP2 LT PUSH2 0x126D JUMPI PUSH2 0x126D PUSH2 0x39B8 JUMP JUMPDEST SWAP1 PUSH1 0x0 MSTORE PUSH1 0x20 PUSH1 0x0 KECCAK256 SWAP1 PUSH1 0x2 MUL ADD PUSH1 0x1 ADD DUP1 SLOAD DUP1 PUSH1 0x20 MUL PUSH1 0x20 ADD PUSH1 0x40 MLOAD SWAP1 DUP2 ADD PUSH1 0x40 MSTORE DUP1 SWAP3 SWAP2 SWAP1 DUP2 DUP2 MSTORE PUSH1 0x20 ADD PUSH1 0x0 SWAP1 JUMPDEST DUP3 DUP3 LT ISZERO PUSH2 0x130F JUMPI PUSH1 0x0 DUP5 DUP2 MSTORE PUSH1 0x20 SWAP1 DUP2 SWAP1 KECCAK256 PUSH1 0x40 DUP1 MLOAD PUSH1 0xC0 DUP2 ADD DUP3 MSTORE PUSH1 0x6 DUP7 MUL SWAP1 SWAP3 ADD DUP1 SLOAD PUSH1 0x1 PUSH1 0x1 PUSH1 0xA0 SHL SUB AND DUP4 MSTORE PUSH1 0x1 DUP1 DUP3 ADD SLOAD DUP5 DUP7 ADD MSTORE PUSH1 0x2 DUP3 ADD SLOAD SWAP3 DUP5 ADD SWAP3 SWAP1 SWAP3 MSTORE PUSH1 0x3 DUP2 ADD SLOAD PUSH1 0x60 DUP5 ADD MSTORE PUSH1 0x4 DUP2 ADD SLOAD PUSH1 0x80 DUP5 ADD MSTORE PUSH1 0x5 ADD SLOAD PUSH1 0xA0 DUP4 ADD MSTORE SWAP1 DUP4 MSTORE SWAP1 SWAP3 ADD SWAP2 ADD PUSH2 0x129E JUMP JUMPDEST POP POP POP SWAP2 MSTORE POP SWAP4 SWAP3 POP POP POP JUMP JUMPDEST PUSH1 0x1B SLOAD PUSH1 0x40 MLOAD PUSH4 0x63B2445 PUSH1 0xE5 SHL DUP2 MSTORE CALLER PUSH1 0x4 DUP3 ADD MSTORE PUSH1 0x0 SWAP2 PUSH1 0x1 PUSH1 0x1 PUSH1 0xA0 SHL SUB AND SWAP1 PUSH4 0xC76488A0 SWAP1 PUSH1 0x24 ADD PUSH2 0xB3D JUMP JUMPDEST PUSH2 0x1355 PUSH2 0x35A0 JUMP JUMPDEST PUSH2 0xB7E PUSH2 0x1FDD JUMP JUMPDEST PUSH1 0x0 SLOAD PUSH1 0x1 PUSH1 0x1 PUSH1 0xA0 SHL SUB AND CALLER EQ PUSH2 0x1387 JUMPI PUSH1 0x40 MLOAD PUSH3 0x461BCD PUSH1 0xE5 SHL DUP2 MSTORE PUSH1 0x4 ADD PUSH2 0x998 SWAP1 PUSH2 0x387C JUMP JUMPDEST PUSH1 0x1 PUSH1 0x1 PUSH1 0xA0 SHL SUB DUP2 AND PUSH2 0x13AD JUMPI PUSH1 0x40 MLOAD PUSH3 0x461BCD PUSH1 0xE5 SHL DUP2 MSTORE PUSH1 0x4 ADD PUSH2 0x998 SWAP1 PUSH2 0x3944 JUMP JUMPDEST PUSH1 0x1C SLOAD PUSH1 0x40 MLOAD PUSH4 0x2E307913 PUSH1 0xE1 SHL DUP2 MSTORE PUSH1 0x1 PUSH1 0x1 PUSH1 0xA0 SHL SUB DUP4 DUP2 AND PUSH1 0x4 DUP4 ADD MSTORE SWAP1 SWAP2 AND SWAP1 PUSH4 0x5C60F226 SWAP1 PUSH1 0x24 ADD PUSH2 0xE92 JUMP JUMPDEST PUSH1 0x0 DUP1 SLOAD PUSH1 0x1 PUSH1 0x1 PUSH1 0xA0 SHL SUB AND CALLER EQ PUSH2 0x140A JUMPI PUSH1 0x40 MLOAD PUSH3 0x461BCD PUSH1 0xE5 SHL DUP2 MSTORE PUSH1 0x4 ADD PUSH2 0x998 SWAP1 PUSH2 0x387C JUMP JUMPDEST DUP2 PUSH2 0x1451 JUMPI PUSH1 0x40 MLOAD PUSH3 0x461BCD PUSH1 0xE5 SHL DUP2 MSTORE PUSH1 0x20 PUSH1 0x4 DUP3 ADD MSTORE PUSH1 0x17 PUSH1 0x24 DUP3 ADD MSTORE PUSH23 0x416D6F756E74206D696E742063616E6E6F74206265203 PUSH1 0x4C SHL PUSH1 0x44 DUP3 ADD MSTORE PUSH1 0x64 ADD PUSH2 0x998 JUMP JUMPDEST PUSH1 0xE SLOAD PUSH2 0x145E SWAP1 DUP4 PUSH2 0x93D JUMP JUMPDEST PUSH1 0xE SSTORE PUSH1 0x7 SLOAD PUSH2 0xB05 SWAP1 DUP4 PUSH2 0x93D JUMP JUMPDEST PUSH1 0x40 DUP1 MLOAD DUP1 DUP3 ADD SWAP1 SWAP2 MSTORE PUSH1 0x0 DUP2 MSTORE PUSH1 0x60 PUSH1 0x20 DUP3 ADD MSTORE PUSH1 0x0 DUP1 PUSH1 0x40 MLOAD DUP1 PUSH1 0x40 ADD PUSH1 0x40 MSTORE DUP1 PUSH1 0x0 DUP2 MSTORE PUSH1 0x20 ADD PUSH1 0x1 PUSH1 0x2 PUSH1 0x0 DUP9 PUSH1 0x1 PUSH1 0x1 PUSH1 0xA0 SHL SUB AND PUSH1 0x1 PUSH1 0x1 PUSH1 0xA0 SHL SUB AND DUP2 MSTORE PUSH1 0x20 ADD SWAP1 DUP2 MSTORE PUSH1 0x20 ADD PUSH1 0x0 KECCAK256 SLOAD DUP2 SLOAD DUP2 LT PUSH2 0x14D0 JUMPI PUSH2 0x14D0 PUSH2 0x39B8 JUMP JUMPDEST SWAP1 PUSH1 0x0 MSTORE PUSH1 0x20 PUSH1 0x0 KECCAK256 SWAP1 PUSH1 0x2 MUL ADD PUSH1 0x1 ADD DUP1 SLOAD DUP1 PUSH1 0x20 MUL PUSH1 0x20 ADD PUSH1 0x40 MLOAD SWAP1 DUP2 ADD PUSH1 0x40 MSTORE DUP1 SWAP3 SWAP2 SWAP1 DUP2 DUP2 MSTORE PUSH1 0x20 ADD PUSH1 0x0 SWAP1 JUMPDEST DUP3 DUP3 LT ISZERO PUSH2 0x1572 JUMPI PUSH1 0x0 DUP5 DUP2 MSTORE PUSH1 0x20 SWAP1 DUP2 SWAP1 KECCAK256 PUSH1 0x40 DUP1 MLOAD PUSH1 0xC0 DUP2 ADD DUP3 MSTORE PUSH1 0x6 DUP7 MUL SWAP1 SWAP3 ADD DUP1 SLOAD PUSH1 0x1 PUSH1 0x1 PUSH1 0xA0 SHL SUB AND DUP4 MSTORE PUSH1 0x1 DUP1 DUP3 ADD SLOAD DUP5 DUP7 ADD MSTORE PUSH1 0x2 DUP3 ADD SLOAD SWAP3 DUP5 ADD SWAP3 SWAP1 SWAP3 MSTORE PUSH1 0x3 DUP2 ADD SLOAD PUSH1 0x60 DUP5 ADD MSTORE PUSH1 0x4 DUP2 ADD SLOAD PUSH1 0x80 DUP5 ADD MSTORE PUSH1 0x5 ADD SLOAD PUSH1 0xA0 DUP4 ADD MSTORE SWAP1 DUP4 MSTORE SWAP1 SWAP3 ADD SWAP2 ADD PUSH2 0x1501 JUMP JUMPDEST POP POP POP SWAP2 MSTORE POP PUSH1 0x20 DUP2 ADD MLOAD MLOAD SWAP1 SWAP2 POP PUSH2 0x15DB JUMPI PUSH1 0x40 MLOAD PUSH3 0x461BCD PUSH1 0xE5 SHL DUP2 MSTORE PUSH1 0x20 PUSH1 0x4 DUP3 ADD MSTORE PUSH1 0x25 PUSH1 0x24 DUP3 ADD MSTORE PUSH32 0x54686973206164647265737320646F6573206E6F74206861766520616E792073 PUSH1 0x44 DUP3 ADD MSTORE PUSH5 0x74616B6573 PUSH1 0xD8 SHL PUSH1 0x64 DUP3 ADD MSTORE PUSH1 0x84 ADD PUSH2 0x998 JUMP JUMPDEST PUSH1 0x0 JUMPDEST DUP2 PUSH1 0x20 ADD MLOAD MLOAD DUP2 LT ISZERO PUSH2 0x167F JUMPI PUSH1 0x0 PUSH2 0x1613 DUP4 PUSH1 0x20 ADD MLOAD DUP4 DUP2 MLOAD DUP2 LT PUSH2 0x1606 JUMPI PUSH2 0x1606 PUSH2 0x39B8 JUMP JUMPDEST PUSH1 0x20 MUL PUSH1 0x20 ADD ADD MLOAD PUSH2 0x26B9 JUMP JUMPDEST SWAP1 POP DUP1 DUP4 PUSH1 0x20 ADD MLOAD DUP4 DUP2 MLOAD DUP2 LT PUSH2 0x162C JUMPI PUSH2 0x162C PUSH2 0x39B8 JUMP JUMPDEST PUSH1 0x20 MUL PUSH1 0x20 ADD ADD MLOAD PUSH1 0x60 ADD DUP2 DUP2 MSTORE POP POP DUP3 PUSH1 0x20 ADD MLOAD DUP3 DUP2 MLOAD DUP2 LT PUSH2 0x1652 JUMPI PUSH2 0x1652 PUSH2 0x39B8 JUMP JUMPDEST PUSH1 0x20 MUL PUSH1 0x20 ADD ADD MLOAD PUSH1 0x20 ADD MLOAD DUP5 PUSH2 0x1669 SWAP2 SWAP1 PUSH2 0x3829 JUMP JUMPDEST SWAP4 POP PUSH2 0x1678 SWAP1 POP PUSH1 0x1 DUP3 PUSH2 0x3829 JUMP JUMPDEST SWAP1 POP PUSH2 0x15DE JUMP JUMPDEST POP SWAP1 DUP2 MSTORE SWAP3 SWAP2 POP POP JUMP JUMPDEST PUSH1 0x1A PUSH1 0x0 SWAP1 SLOAD SWAP1 PUSH2 0x100 EXP SWAP1 DIV PUSH1 0x1 PUSH1 0x1 PUSH1 0xA0 SHL SUB AND PUSH1 0x1 PUSH1 0x1 PUSH1 0xA0 SHL SUB AND PUSH4 0x38AF3EED PUSH1 0x40 MLOAD DUP2 PUSH4 0xFFFFFFFF AND PUSH1 0xE0 SHL DUP2 MSTORE PUSH1 0x4 ADD PUSH1 0x20 PUSH1 0x40 MLOAD DUP1 DUP4 SUB DUP2 DUP7 GAS STATICCALL ISZERO DUP1 ISZERO PUSH2 0x16DC JUMPI RETURNDATASIZE PUSH1 0x0 DUP1 RETURNDATACOPY RETURNDATASIZE PUSH1 0x0 REVERT JUMPDEST POP POP POP POP PUSH1 0x40 MLOAD RETURNDATASIZE PUSH1 0x1F NOT PUSH1 0x1F DUP3 ADD AND DUP3 ADD DUP1 PUSH1 0x40 MSTORE POP DUP2 ADD SWAP1 PUSH2 0x1700 SWAP2 SWAP1 PUSH2 0x38CA JUMP JUMPDEST PUSH1 0x18 SLOAD PUSH1 0x1 PUSH1 0x1 PUSH1 0xA0 SHL SUB SWAP1 DUP2 AND SWAP2 AND EQ DUP1 PUSH2 0x178E JUMPI POP ADDRESS PUSH1 0x1 PUSH1 0x1 PUSH1 0xA0 SHL SUB AND PUSH4 0x893D20E8 PUSH1 0x40 MLOAD DUP2 PUSH4 0xFFFFFFFF AND PUSH1 0xE0 SHL DUP2 MSTORE PUSH1 0x4 ADD PUSH1 0x20 PUSH1 0x40 MLOAD DUP1 DUP4 SUB DUP2 DUP7 GAS STATICCALL ISZERO DUP1 ISZERO PUSH2 0x1755 JUMPI RETURNDATASIZE PUSH1 0x0 DUP1 RETURNDATACOPY RETURNDATASIZE PUSH1 0x0 REVERT JUMPDEST POP POP POP POP PUSH1 0x40 MLOAD RETURNDATASIZE PUSH1 0x1F NOT PUSH1 0x1F DUP3 ADD AND DUP3 ADD DUP1 PUSH1 0x40 MSTORE POP DUP2 ADD SWAP1 PUSH2 0x1779 SWAP2 SWAP1 PUSH2 0x38CA JUMP JUMPDEST PUSH1 0x1 PUSH1 0x1 PUSH1 0xA0 SHL SUB AND CALLER PUSH1 0x1 PUSH1 0x1 PUSH1 0xA0 SHL SUB AND EQ JUMPDEST PUSH2 0x17AA JUMPI PUSH1 0x40 MLOAD PUSH3 0x461BCD PUSH1 0xE5 SHL DUP2 MSTORE PUSH1 0x4 ADD PUSH2 0x998 SWAP1 PUSH2 0x38E7 JUMP JUMPDEST PUSH1 0x1A SLOAD PUSH1 0x0 SWAP1 PUSH1 0x1 PUSH1 0x1 PUSH1 0xA0 SHL SUB AND PUSH4 0xC8100DCC PUSH2 0xCD4 PUSH2 0x2759 JUMP JUMPDEST PUSH1 0x0 DUP1 PUSH2 0x17D3 DUP5 DUP5 PUSH2 0x2A3B JUMP JUMPDEST SWAP2 POP SWAP2 POP PUSH2 0x17E0 DUP2 PUSH2 0x13DF JUMP JUMPDEST POP PUSH1 0xE SLOAD PUSH2 0x17EE SWAP1 DUP4 PUSH2 0x1B96 JUMP JUMPDEST POP PUSH1 0xE SLOAD PUSH2 0x17FC SWAP1 DUP3 PUSH2 0x1B96 JUMP JUMPDEST POP PUSH2 0x1811 CALLER JUMPDEST PUSH2 0x180C DUP4 DUP6 PUSH2 0x3829 JUMP JUMPDEST PUSH2 0x25DF JUMP JUMPDEST POP POP POP POP JUMP JUMPDEST PUSH1 0x0 SLOAD PUSH1 0x1 PUSH1 0x1 PUSH1 0xA0 SHL SUB AND CALLER EQ PUSH2 0x1841 JUMPI PUSH1 0x40 MLOAD PUSH3 0x461BCD PUSH1 0xE5 SHL DUP2 MSTORE PUSH1 0x4 ADD PUSH2 0x998 SWAP1 PUSH2 0x387C JUMP JUMPDEST PUSH2 0x184A DUP2 PUSH2 0x2CBB JUMP JUMPDEST POP JUMP JUMPDEST PUSH1 0x0 SLOAD PUSH1 0x1 PUSH1 0x1 PUSH1 0xA0 SHL SUB AND CALLER EQ PUSH2 0x1877 JUMPI PUSH1 0x40 MLOAD PUSH3 0x461BCD PUSH1 0xE5 SHL DUP2 MSTORE PUSH1 0x4 ADD PUSH2 0x998 SWAP1 PUSH2 0x387C JUMP JUMPDEST PUSH1 0x1 PUSH1 0x1 PUSH1 0xA0 SHL SUB DUP3 AND PUSH2 0x18DF JUMPI PUSH1 0x40 MLOAD PUSH3 0x461BCD PUSH1 0xE5 SHL DUP2 MSTORE PUSH1 0x20 PUSH1 0x4 DUP3 ADD MSTORE PUSH1 0x29 PUSH1 0x24 DUP3 ADD MSTORE PUSH32 0x4D756C7469546F6B656E54696D654C6F636B3A2043616E6E6F74206164642065 PUSH1 0x44 DUP3 ADD MSTORE PUSH9 0x36B83A3C903AB9B2B9 PUSH1 0xB9 SHL PUSH1 0x64 DUP3 ADD MSTORE PUSH1 0x84 ADD PUSH2 0x998 JUMP JUMPDEST PUSH1 0x0 DUP2 GT PUSH2 0x1942 JUMPI PUSH1 0x40 MLOAD PUSH3 0x461BCD PUSH1 0xE5 SHL DUP2 MSTORE PUSH1 0x20 PUSH1 0x4 DUP3 ADD MSTORE PUSH1 0x2A PUSH1 0x24 DUP3 ADD MSTORE PUSH32 0x4D756C7469546F6B656E54696D654C6F636B3A2043616E6E6F7420757365207A PUSH1 0x44 DUP3 ADD MSTORE PUSH10 0x195C9BC8185B5BDD5B9D PUSH1 0xB2 SHL PUSH1 0x64 DUP3 ADD MSTORE PUSH1 0x84 ADD PUSH2 0x998 JUMP JUMPDEST PUSH1 0x1B SLOAD PUSH1 0x40 MLOAD PUSH4 0xA68C4031 PUSH1 0xE0 SHL DUP2 MSTORE PUSH1 0x4 DUP2 ADD DUP4 SWAP1 MSTORE PUSH1 0x1 PUSH1 0x1 PUSH1 0xA0 SHL SUB DUP5 DUP2 AND PUSH1 0x24 DUP4 ADD MSTORE SWAP1 SWAP2 AND SWAP1 PUSH4 0xA68C4031 SWAP1 PUSH1 0x44 ADD PUSH1 0x0 PUSH1 0x40 MLOAD DUP1 DUP4 SUB DUP2 PUSH1 0x0 DUP8 DUP1 EXTCODESIZE ISZERO DUP1 ISZERO PUSH2 0x1990 JUMPI PUSH1 0x0 DUP1 REVERT JUMPDEST POP GAS CALL ISZERO DUP1 ISZERO PUSH2 0x19A4 JUMPI RETURNDATASIZE PUSH1 0x0 DUP1 RETURNDATACOPY RETURNDATASIZE PUSH1 0x0 REVERT JUMPDEST POP POP POP POP POP POP JUMP JUMPDEST PUSH1 0x0 DUP1 PUSH2 0x19B8 DUP4 PUSH2 0x2D7B JUMP JUMPDEST SWAP2 POP SWAP2 POP PUSH2 0x19C5 DUP2 PUSH2 0x13DF JUMP JUMPDEST POP PUSH1 0xE SLOAD PUSH2 0x19D3 SWAP1 DUP4 PUSH2 0x1B96 JUMP JUMPDEST POP PUSH1 0xE SLOAD PUSH2 0x19E1 SWAP1 DUP3 PUSH2 0x1B96 JUMP JUMPDEST POP PUSH2 0x1059 CALLER PUSH2 0x1802 JUMP JUMPDEST PUSH1 0x1B SLOAD PUSH1 0x40 MLOAD PUSH4 0x22B74993 PUSH1 0xE0 SHL DUP2 MSTORE CALLER PUSH1 0x4 DUP3 ADD MSTORE PUSH1 0x0 SWAP2 PUSH1 0x1 PUSH1 0x1 PUSH1 0xA0 SHL SUB AND SWAP1 PUSH4 0x22B74993 SWAP1 PUSH1 0x24 ADD PUSH2 0xB3D JUMP JUMPDEST PUSH1 0x1C SLOAD PUSH1 0x0 SWAP1 PUSH1 0x1 PUSH1 0x1 PUSH1 0xA0 SHL SUB AND PUSH4 0x7B269F90 PUSH2 0x11EE PUSH2 0x2FCC JUMP JUMPDEST PUSH1 0x0 DUP2 DUP5 DUP5 GT ISZERO PUSH2 0x1A5C JUMPI PUSH1 0x40 MLOAD PUSH3 0x461BCD PUSH1 0xE5 SHL DUP2 MSTORE PUSH1 0x4 ADD PUSH2 0x998 SWAP2 SWAP1 PUSH2 0x35BF JUMP JUMPDEST POP PUSH1 0x0 PUSH2 0x1A69 DUP5 DUP7 PUSH2 0x39CE JUMP JUMPDEST SWAP6 SWAP5 POP POP POP POP POP JUMP JUMPDEST PUSH1 0x1 PUSH1 0x1 PUSH1 0xA0 SHL SUB DUP4 AND PUSH2 0x1AD4 JUMPI PUSH1 0x40 MLOAD PUSH3 0x461BCD PUSH1 0xE5 SHL DUP2 MSTORE PUSH1 0x20 PUSH1 0x4 DUP3 ADD MSTORE PUSH1 0x24 DUP1 DUP3 ADD MSTORE PUSH32 0x42455032303A20617070726F76652066726F6D20746865207A65726F20616464 PUSH1 0x44 DUP3 ADD MSTORE PUSH4 0x72657373 PUSH1 0xE0 SHL PUSH1 0x64 DUP3 ADD MSTORE PUSH1 0x84 ADD PUSH2 0x998 JUMP JUMPDEST PUSH1 0x1 PUSH1 0x1 PUSH1 0xA0 SHL SUB DUP3 AND PUSH2 0x1B35 JUMPI PUSH1 0x40 MLOAD PUSH3 0x461BCD PUSH1 0xE5 SHL DUP2 MSTORE PUSH1 0x20 PUSH1 0x4 DUP3 ADD MSTORE PUSH1 0x22 PUSH1 0x24 DUP3 ADD MSTORE PUSH32 0x42455032303A20617070726F766520746F20746865207A65726F206164647265 PUSH1 0x44 DUP3 ADD MSTORE PUSH2 0x7373 PUSH1 0xF0 SHL PUSH1 0x64 DUP3 ADD MSTORE PUSH1 0x84 ADD PUSH2 0x998 JUMP JUMPDEST PUSH1 0x1 PUSH1 0x1 PUSH1 0xA0 SHL SUB DUP4 DUP2 AND PUSH1 0x0 DUP2 DUP2 MSTORE PUSH1 0x4 PUSH1 0x20 SWAP1 DUP2 MSTORE PUSH1 0x40 DUP1 DUP4 KECCAK256 SWAP5 DUP8 AND DUP1 DUP5 MSTORE SWAP5 DUP3 MSTORE SWAP2 DUP3 SWAP1 KECCAK256 DUP6 SWAP1 SSTORE SWAP1 MLOAD DUP5 DUP2 MSTORE PUSH32 0x8C5BE1E5EBEC7D5BD14F71427D1E84F3DD0314C0F7B2291E5B200AC8C7C3B925 SWAP2 ADD PUSH1 0x40 MLOAD DUP1 SWAP2 SUB SWAP1 LOG3 POP POP POP JUMP JUMPDEST PUSH1 0x0 PUSH2 0x9A1 DUP4 DUP4 PUSH1 0x40 MLOAD DUP1 PUSH1 0x40 ADD PUSH1 0x40 MSTORE DUP1 PUSH1 0x1E DUP2 MSTORE PUSH1 0x20 ADD PUSH32 0x536166654D6174683A207375627472616374696F6E206F766572666C6F770000 DUP2 MSTORE POP PUSH2 0x1A38 JUMP JUMPDEST PUSH1 0x1 PUSH1 0x1 PUSH1 0xA0 SHL SUB DUP4 AND PUSH2 0x1C3C JUMPI PUSH1 0x40 MLOAD PUSH3 0x461BCD PUSH1 0xE5 SHL DUP2 MSTORE PUSH1 0x20 PUSH1 0x4 DUP3 ADD MSTORE PUSH1 0x25 PUSH1 0x24 DUP3 ADD MSTORE PUSH32 0x42455032303A207472616E736665722066726F6D20746865207A65726F206164 PUSH1 0x44 DUP3 ADD MSTORE PUSH5 0x6472657373 PUSH1 0xD8 SHL PUSH1 0x64 DUP3 ADD MSTORE PUSH1 0x84 ADD PUSH2 0x998 JUMP JUMPDEST PUSH1 0x1 PUSH1 0x1 PUSH1 0xA0 SHL SUB DUP3 AND PUSH2 0x1C9E JUMPI PUSH1 0x40 MLOAD PUSH3 0x461BCD PUSH1 0xE5 SHL DUP2 MSTORE PUSH1 0x20 PUSH1 0x4 DUP3 ADD MSTORE PUSH1 0x23 PUSH1 0x24 DUP3 ADD MSTORE PUSH32 0x42455032303A207472616E7366657220746F20746865207A65726F2061646472 PUSH1 0x44 DUP3 ADD MSTORE PUSH3 0x657373 PUSH1 0xE8 SHL PUSH1 0x64 DUP3 ADD MSTORE PUSH1 0x84 ADD PUSH2 0x998 JUMP JUMPDEST PUSH1 0x6 SLOAD PUSH1 0x0 SWAP1 PUSH2 0x1CBE SWAP1 DUP4 SWAP1 PUSH2 0x1CB9 SWAP1 PUSH2 0xFFFF AND PUSH1 0x64 PUSH2 0x33A0 JUMP JUMPDEST PUSH2 0x33E2 JUMP JUMPDEST SWAP1 POP PUSH1 0x0 PUSH2 0x1CCC DUP4 DUP4 PUSH2 0x1B96 JUMP JUMPDEST SWAP1 POP PUSH2 0x1D0B DUP2 PUSH1 0x40 MLOAD DUP1 PUSH1 0x60 ADD PUSH1 0x40 MSTORE DUP1 PUSH1 0x26 DUP2 MSTORE PUSH1 0x20 ADD PUSH2 0x3AB5 PUSH1 0x26 SWAP2 CODECOPY PUSH1 0x1 PUSH1 0x1 PUSH1 0xA0 SHL SUB DUP9 AND PUSH1 0x0 SWAP1 DUP2 MSTORE PUSH1 0x3 PUSH1 0x20 MSTORE PUSH1 0x40 SWAP1 KECCAK256 SLOAD SWAP2 SWAP1 PUSH2 0x1A38 JUMP JUMPDEST PUSH1 0x1 PUSH1 0x1 PUSH1 0xA0 SHL SUB DUP1 DUP8 AND PUSH1 0x0 SWAP1 DUP2 MSTORE PUSH1 0x3 PUSH1 0x20 MSTORE PUSH1 0x40 DUP1 DUP3 KECCAK256 SWAP4 SWAP1 SWAP4 SSTORE SWAP1 DUP7 AND DUP2 MSTORE KECCAK256 SLOAD PUSH2 0x1D3A SWAP1 DUP5 PUSH2 0x93D JUMP JUMPDEST PUSH1 0x1 PUSH1 0x1 PUSH1 0xA0 SHL SUB DUP1 DUP7 AND PUSH1 0x0 DUP2 DUP2 MSTORE PUSH1 0x3 PUSH1 0x20 MSTORE PUSH1 0x40 SWAP1 DUP2 SWAP1 KECCAK256 SWAP4 SWAP1 SWAP4 SSTORE SWAP2 MLOAD SWAP1 DUP8 AND SWAP1 PUSH32 0xDDF252AD1BE2C89B69C2B068FC378DAA952BA7F163C4A11628F55A4DF523B3EF SWAP1 PUSH2 0x1D8E SWAP1 DUP8 DUP2 MSTORE PUSH1 0x20 ADD SWAP1 JUMP JUMPDEST PUSH1 0x40 MLOAD DUP1 SWAP2 SUB SWAP1 LOG3 POP POP POP POP POP JUMP JUMPDEST PUSH2 0x1DA5 PUSH2 0x35A0 JUMP JUMPDEST PUSH1 0x40 MLOAD DUP1 PUSH2 0x560 ADD PUSH1 0x40 MSTORE DUP1 PUSH1 0x0 DUP2 MSTORE PUSH1 0x20 ADD PUSH1 0x0 DUP2 MSTORE PUSH1 0x20 ADD PUSH1 0x0 DUP2 MSTORE PUSH1 0x20 ADD PUSH1 0x0 DUP2 MSTORE PUSH1 0x20 ADD PUSH1 0x0 DUP2 MSTORE PUSH1 0x20 ADD PUSH1 0x0 DUP2 MSTORE PUSH1 0x20 ADD PUSH1 0x0 DUP2 MSTORE PUSH1 0x20 ADD PUSH2 0x1DF6 PUSH8 0x4563918244F40000 PUSH2 0x1B51 PUSH2 0x33A0 JUMP JUMPDEST DUP2 MSTORE PUSH1 0x20 ADD PUSH2 0x1E0F PUSH8 0x4563918244F40000 PUSH2 0x1B51 PUSH2 0x33A0 JUMP JUMPDEST DUP2 MSTORE PUSH1 0x20 ADD PUSH2 0x1E28 PUSH8 0x4563918244F40000 PUSH2 0x1B51 PUSH2 0x33A0 JUMP JUMPDEST DUP2 MSTORE PUSH1 0x20 ADD PUSH2 0x1E41 PUSH8 0x4563918244F40000 PUSH2 0x1B51 PUSH2 0x33A0 JUMP JUMPDEST DUP2 MSTORE PUSH1 0x20 ADD PUSH2 0x1E5A PUSH8 0x4563918244F40000 PUSH2 0x1B51 PUSH2 0x33A0 JUMP JUMPDEST DUP2 MSTORE PUSH1 0x20 ADD PUSH2 0x1E73 PUSH8 0x4563918244F40000 PUSH2 0x1B51 PUSH2 0x33A0 JUMP JUMPDEST DUP2 MSTORE PUSH1 0x20 ADD PUSH2 0x1E8C PUSH8 0x4563918244F40000 PUSH2 0x1B51 PUSH2 0x33A0 JUMP JUMPDEST DUP2 MSTORE PUSH1 0x20 ADD PUSH2 0x1EA5 PUSH8 0x4563918244F40000 PUSH2 0x1B51 PUSH2 0x33A0 JUMP JUMPDEST DUP2 MSTORE PUSH1 0x20 ADD PUSH2 0x1EBE PUSH8 0x4563918244F40000 PUSH2 0x1B51 PUSH2 0x33A0 JUMP JUMPDEST DUP2 MSTORE PUSH1 0x20 ADD PUSH2 0x1ED7 PUSH8 0x4563918244F40000 PUSH2 0x1B51 PUSH2 0x33A0 JUMP JUMPDEST DUP2 MSTORE PUSH1 0x20 ADD PUSH2 0x1EF0 PUSH8 0x4563918244F40000 PUSH2 0x1B51 PUSH2 0x33A0 JUMP JUMPDEST DUP2 MSTORE PUSH1 0x20 ADD PUSH2 0x1F09 PUSH8 0x4563918244F40000 PUSH2 0x1B51 PUSH2 0x33A0 JUMP JUMPDEST DUP2 MSTORE PUSH1 0x20 ADD PUSH2 0x1F22 PUSH8 0x4563918244F40000 PUSH2 0x1B51 PUSH2 0x33A0 JUMP JUMPDEST DUP2 MSTORE PUSH1 0x20 ADD PUSH2 0x1F3B PUSH8 0x446AE0E136AD0000 PUSH2 0x1B51 PUSH2 0x33A0 JUMP JUMPDEST DUP2 MSTORE PUSH1 0x20 ADD PUSH1 0x0 DUP2 MSTORE PUSH1 0x20 ADD PUSH1 0x0 DUP2 MSTORE PUSH1 0x20 ADD PUSH1 0x0 DUP2 MSTORE PUSH1 0x20 ADD PUSH1 0x0 DUP2 MSTORE PUSH1 0x20 ADD PUSH1 0x0 DUP2 MSTORE PUSH1 0x20 ADD PUSH1 0x0 DUP2 MSTORE PUSH1 0x20 ADD PUSH1 0x0 DUP2 MSTORE PUSH1 0x20 ADD PUSH1 0x0 DUP2 MSTORE PUSH1 0x20 ADD PUSH1 0x0 DUP2 MSTORE PUSH1 0x20 ADD PUSH1 0x0 DUP2 MSTORE PUSH1 0x20 ADD PUSH1 0x0 DUP2 MSTORE PUSH1 0x20 ADD PUSH1 0x0 DUP2 MSTORE PUSH1 0x20 ADD PUSH1 0x0 DUP2 MSTORE PUSH1 0x20 ADD PUSH1 0x0 DUP2 MSTORE PUSH1 0x20 ADD PUSH1 0x0 DUP2 MSTORE PUSH1 0x20 ADD PUSH1 0x0 DUP2 MSTORE PUSH1 0x20 ADD PUSH1 0x0 DUP2 MSTORE PUSH1 0x20 ADD PUSH1 0x0 DUP2 MSTORE PUSH1 0x20 ADD PUSH1 0x0 DUP2 MSTORE PUSH1 0x20 ADD PUSH1 0x0 DUP2 MSTORE PUSH1 0x20 ADD PUSH1 0x0 DUP2 MSTORE PUSH1 0x20 ADD PUSH1 0x0 DUP2 MSTORE POP SWAP1 POP SWAP1 JUMP JUMPDEST PUSH2 0x1FE5 PUSH2 0x35A0 JUMP JUMPDEST PUSH1 0x40 MLOAD DUP1 PUSH2 0x560 ADD PUSH1 0x40 MSTORE DUP1 PUSH2 0x2003 PUSH7 0x6A94D74F430000 PUSH1 0x2A PUSH2 0x33A0 JUMP JUMPDEST DUP2 MSTORE PUSH1 0x20 ADD PUSH1 0x0 DUP2 MSTORE PUSH1 0x20 ADD PUSH1 0x0 DUP2 MSTORE PUSH1 0x20 ADD PUSH1 0x0 DUP2 MSTORE PUSH1 0x20 ADD PUSH2 0x202F PUSH7 0x6A94D74F430000 PUSH1 0x2A PUSH2 0x33A0 JUMP JUMPDEST DUP2 MSTORE PUSH1 0x20 ADD PUSH1 0x0 DUP2 MSTORE PUSH1 0x20 ADD PUSH1 0x0 DUP2 MSTORE PUSH1 0x20 ADD PUSH2 0x2054 PUSH7 0x6A94D74F430000 PUSH1 0x2A PUSH2 0x33A0 JUMP JUMPDEST DUP2 MSTORE PUSH1 0x20 ADD PUSH1 0x0 DUP2 MSTORE PUSH1 0x20 ADD PUSH1 0x0 DUP2 MSTORE PUSH1 0x20 ADD PUSH2 0x2079 PUSH7 0x6A94D74F430000 PUSH1 0x2A PUSH2 0x33A0 JUMP JUMPDEST DUP2 MSTORE PUSH1 0x20 ADD PUSH1 0x0 DUP2 MSTORE PUSH1 0x20 ADD PUSH1 0x0 DUP2 MSTORE PUSH1 0x20 ADD PUSH2 0x209E PUSH7 0x2386F26FC10000 PUSH1 0x2A PUSH2 0x33A0 JUMP JUMPDEST DUP2 MSTORE PUSH1 0x20 ADD PUSH2 0x20B5 PUSH7 0x2386F26FC10000 PUSH1 0x2A PUSH2 0x33A0 JUMP JUMPDEST DUP2 MSTORE PUSH1 0x20 ADD PUSH2 0x20CC PUSH7 0x2386F26FC10000 PUSH1 0x2A PUSH2 0x33A0 JUMP JUMPDEST DUP2 MSTORE PUSH1 0x20 ADD PUSH2 0x20E3 PUSH7 0x2386F26FC10000 PUSH1 0x2A PUSH2 0x33A0 JUMP JUMPDEST DUP2 MSTORE PUSH1 0x20 ADD PUSH2 0x20FA PUSH7 0x2386F26FC10000 PUSH1 0x2A PUSH2 0x33A0 JUMP JUMPDEST DUP2 MSTORE PUSH1 0x20 ADD PUSH2 0x2111 PUSH7 0x2386F26FC10000 PUSH1 0x2A PUSH2 0x33A0 JUMP JUMPDEST DUP2 MSTORE PUSH1 0x20 ADD PUSH2 0x2128 PUSH7 0x2386F26FC10000 PUSH1 0x2A PUSH2 0x33A0 JUMP JUMPDEST DUP2 MSTORE PUSH1 0x20 ADD PUSH2 0x213F PUSH7 0x2386F26FC10000 PUSH1 0x2A PUSH2 0x33A0 JUMP JUMPDEST DUP2 MSTORE PUSH1 0x20 ADD PUSH2 0x2156 PUSH7 0x2386F26FC10000 PUSH1 0x2A PUSH2 0x33A0 JUMP JUMPDEST DUP2 MSTORE PUSH1 0x20 ADD PUSH2 0x216D PUSH7 0x2386F26FC10000 PUSH1 0x2A PUSH2 0x33A0 JUMP JUMPDEST DUP2 MSTORE PUSH1 0x20 ADD PUSH2 0x2184 PUSH7 0x2386F26FC10000 PUSH1 0x2A PUSH2 0x33A0 JUMP JUMPDEST DUP2 MSTORE PUSH1 0x20 ADD PUSH2 0x219B PUSH7 0x2386F26FC10000 PUSH1 0x2A PUSH2 0x33A0 JUMP JUMPDEST DUP2 MSTORE PUSH1 0x20 ADD PUSH2 0x21B2 PUSH7 0x2386F26FC10000 PUSH1 0x2A PUSH2 0x33A0 JUMP JUMPDEST DUP2 MSTORE PUSH1 0x20 ADD PUSH2 0x21C9 PUSH7 0x2386F26FC10000 PUSH1 0x2A PUSH2 0x33A0 JUMP JUMPDEST DUP2 MSTORE PUSH1 0x20 ADD PUSH2 0x21E0 PUSH7 0x2386F26FC10000 PUSH1 0x2A PUSH2 0x33A0 JUMP JUMPDEST DUP2 MSTORE PUSH1 0x20 ADD PUSH2 0x21F7 PUSH7 0x2386F26FC10000 PUSH1 0x2A PUSH2 0x33A0 JUMP JUMPDEST DUP2 MSTORE PUSH1 0x20 ADD PUSH2 0x220E PUSH7 0x2386F26FC10000 PUSH1 0x2A PUSH2 0x33A0 JUMP JUMPDEST DUP2 MSTORE PUSH1 0x20 ADD PUSH2 0x2225 PUSH7 0x2386F26FC10000 PUSH1 0x2A PUSH2 0x33A0 JUMP JUMPDEST DUP2 MSTORE PUSH1 0x20 ADD PUSH2 0x223C PUSH7 0x2386F26FC10000 PUSH1 0x2A PUSH2 0x33A0 JUMP JUMPDEST DUP2 MSTORE PUSH1 0x20 ADD PUSH2 0x2253 PUSH7 0x2386F26FC10000 PUSH1 0x2A PUSH2 0x33A0 JUMP JUMPDEST DUP2 MSTORE PUSH1 0x20 ADD PUSH2 0x226A PUSH7 0x2386F26FC10000 PUSH1 0x2A PUSH2 0x33A0 JUMP JUMPDEST DUP2 MSTORE PUSH1 0x20 ADD PUSH2 0x2281 PUSH7 0x2386F26FC10000 PUSH1 0x2A PUSH2 0x33A0 JUMP JUMPDEST DUP2 MSTORE PUSH1 0x20 ADD PUSH2 0x2298 PUSH7 0x2386F26FC10000 PUSH1 0x2A PUSH2 0x33A0 JUMP JUMPDEST DUP2 MSTORE PUSH1 0x20 ADD PUSH2 0x22AF PUSH7 0x2386F26FC10000 PUSH1 0x2A PUSH2 0x33A0 JUMP JUMPDEST DUP2 MSTORE PUSH1 0x20 ADD PUSH2 0x22C6 PUSH7 0x2386F26FC10000 PUSH1 0x2A PUSH2 0x33A0 JUMP JUMPDEST DUP2 MSTORE PUSH1 0x20 ADD PUSH2 0x22DD PUSH7 0x2386F26FC10000 PUSH1 0x2A PUSH2 0x33A0 JUMP JUMPDEST DUP2 MSTORE PUSH1 0x20 ADD PUSH2 0x22F4 PUSH7 0x2386F26FC10000 PUSH1 0x2A PUSH2 0x33A0 JUMP JUMPDEST DUP2 MSTORE PUSH1 0x20 ADD PUSH2 0x230B PUSH7 0x2386F26FC10000 PUSH1 0x2A PUSH2 0x33A0 JUMP JUMPDEST DUP2 MSTORE PUSH1 0x20 ADD PUSH2 0x2322 PUSH7 0x2386F26FC10000 PUSH1 0x2A PUSH2 0x33A0 JUMP JUMPDEST DUP2 MSTORE PUSH1 0x20 ADD PUSH2 0x2339 PUSH7 0x2386F26FC10000 PUSH1 0x2A PUSH2 0x33A0 JUMP JUMPDEST SWAP1 MSTORE SWAP2 SWAP1 POP JUMP JUMPDEST PUSH1 0x0 DUP4 GT PUSH2 0x2387 JUMPI PUSH1 0x40 MLOAD PUSH3 0x461BCD PUSH1 0xE5 SHL DUP2 MSTORE PUSH1 0x20 PUSH1 0x4 DUP3 ADD MSTORE PUSH1 0x14 PUSH1 0x24 DUP3 ADD MSTORE PUSH20 0x43616E6E6F74207374616B65206E6F7468696E67 PUSH1 0x60 SHL PUSH1 0x44 DUP3 ADD MSTORE PUSH1 0x64 ADD PUSH2 0x998 JUMP JUMPDEST CALLER PUSH1 0x0 SWAP1 DUP2 MSTORE PUSH1 0x2 PUSH1 0x20 MSTORE PUSH1 0x40 SWAP1 KECCAK256 SLOAD TIMESTAMP DUP2 PUSH2 0x23A9 JUMPI PUSH2 0x23A6 CALLER PUSH2 0x3461 JUMP JUMPDEST SWAP2 POP JUMPDEST PUSH1 0x1 DUP3 DUP2 SLOAD DUP2 LT PUSH2 0x23BC JUMPI PUSH2 0x23BC PUSH2 0x39B8 JUMP JUMPDEST SWAP1 PUSH1 0x0 MSTORE PUSH1 0x20 PUSH1 0x0 KECCAK256 SWAP1 PUSH1 0x2 MUL ADD PUSH1 0x1 ADD PUSH1 0x40 MLOAD DUP1 PUSH1 0xC0 ADD PUSH1 0x40 MSTORE DUP1 CALLER PUSH1 0x1 PUSH1 0x1 PUSH1 0xA0 SHL SUB AND DUP2 MSTORE PUSH1 0x20 ADD DUP8 DUP2 MSTORE PUSH1 0x20 ADD DUP4 DUP2 MSTORE PUSH1 0x20 ADD PUSH1 0x0 DUP2 MSTORE PUSH1 0x20 ADD DUP6 DUP2 MSTORE PUSH1 0x20 ADD DUP4 DUP8 PUSH2 0x240C SWAP2 SWAP1 PUSH2 0x3829 JUMP JUMPDEST SWAP1 MSTORE DUP2 SLOAD PUSH1 0x1 DUP1 DUP3 ADD DUP5 SSTORE PUSH1 0x0 SWAP4 DUP5 MSTORE PUSH1 0x20 SWAP4 DUP5 SWAP1 KECCAK256 DUP4 MLOAD PUSH1 0x6 SWAP1 SWAP4 MUL ADD DUP1 SLOAD PUSH1 0x1 PUSH1 0x1 PUSH1 0xA0 SHL SUB NOT AND PUSH1 0x1 PUSH1 0x1 PUSH1 0xA0 SHL SUB SWAP1 SWAP4 AND SWAP3 SWAP1 SWAP3 OR DUP3 SSTORE SWAP3 DUP3 ADD MLOAD SWAP3 DUP2 ADD SWAP3 SWAP1 SWAP3 SSTORE PUSH1 0x40 DUP2 ADD MLOAD PUSH1 0x2 DUP4 ADD SSTORE PUSH1 0x60 DUP2 ADD MLOAD PUSH1 0x3 DUP4 ADD SSTORE PUSH1 0x80 DUP2 ADD MLOAD PUSH1 0x4 DUP4 ADD SSTORE PUSH1 0xA0 ADD MLOAD PUSH1 0x5 SWAP1 SWAP2 ADD SSTORE CALLER PUSH32 0x9CFD25589D1EB8AD71E342A86A8524E83522E3936C0803048C08F6D9AD974F40 DUP7 DUP5 DUP5 PUSH2 0x24A9 DUP2 DUP11 PUSH2 0x3829 JUMP JUMPDEST PUSH1 0x40 DUP1 MLOAD SWAP5 DUP6 MSTORE PUSH1 0x20 DUP6 ADD SWAP4 SWAP1 SWAP4 MSTORE SWAP2 DUP4 ADD MSTORE PUSH1 0x60 DUP3 ADD MSTORE PUSH1 0x80 ADD PUSH1 0x40 MLOAD DUP1 SWAP2 SUB SWAP1 LOG2 POP POP POP POP POP JUMP JUMPDEST PUSH1 0x1 PUSH1 0x1 PUSH1 0xA0 SHL SUB DUP3 AND PUSH2 0x2533 JUMPI PUSH1 0x40 MLOAD PUSH3 0x461BCD PUSH1 0xE5 SHL DUP2 MSTORE PUSH1 0x20 PUSH1 0x4 DUP3 ADD MSTORE PUSH1 0x21 PUSH1 0x24 DUP3 ADD MSTORE PUSH32 0x42455032303A206275726E2066726F6D20746865207A65726F20616464726573 PUSH1 0x44 DUP3 ADD MSTORE PUSH1 0x73 PUSH1 0xF8 SHL PUSH1 0x64 DUP3 ADD MSTORE PUSH1 0x84 ADD PUSH2 0x998 JUMP JUMPDEST PUSH2 0x2570 DUP2 PUSH1 0x40 MLOAD DUP1 PUSH1 0x60 ADD PUSH1 0x40 MSTORE DUP1 PUSH1 0x22 DUP2 MSTORE PUSH1 0x20 ADD PUSH2 0x3B00 PUSH1 0x22 SWAP2 CODECOPY PUSH1 0x1 PUSH1 0x1 PUSH1 0xA0 SHL SUB DUP6 AND PUSH1 0x0 SWAP1 DUP2 MSTORE PUSH1 0x3 PUSH1 0x20 MSTORE PUSH1 0x40 SWAP1 KECCAK256 SLOAD SWAP2 SWAP1 PUSH2 0x1A38 JUMP JUMPDEST PUSH1 0x1 PUSH1 0x1 PUSH1 0xA0 SHL SUB DUP4 AND PUSH1 0x0 SWAP1 DUP2 MSTORE PUSH1 0x3 PUSH1 0x20 MSTORE PUSH1 0x40 SWAP1 KECCAK256 SSTORE PUSH1 0x7 SLOAD PUSH2 0x2596 SWAP1 DUP3 PUSH2 0x1B96 JUMP JUMPDEST PUSH1 0x7 SSTORE PUSH1 0x40 MLOAD DUP2 DUP2 MSTORE PUSH1 0x0 SWAP1 PUSH1 0x1 PUSH1 0x1 PUSH1 0xA0 SHL SUB DUP5 AND SWAP1 PUSH32 0xDDF252AD1BE2C89B69C2B068FC378DAA952BA7F163C4A11628F55A4DF523B3EF SWAP1 PUSH1 0x20 ADD JUMPDEST PUSH1 0x40 MLOAD DUP1 SWAP2 SUB SWAP1 LOG3 POP POP JUMP JUMPDEST PUSH1 0x1 PUSH1 0x1 PUSH1 0xA0 SHL SUB DUP3 AND PUSH2 0x2635 JUMPI PUSH1 0x40 MLOAD PUSH3 0x461BCD PUSH1 0xE5 SHL DUP2 MSTORE PUSH1 0x20 PUSH1 0x4 DUP3 ADD MSTORE PUSH1 0x1F PUSH1 0x24 DUP3 ADD MSTORE PUSH32 0x42455032303A206D696E7420746F20746865207A65726F206164647265737300 PUSH1 0x44 DUP3 ADD MSTORE PUSH1 0x64 ADD PUSH2 0x998 JUMP JUMPDEST PUSH1 0x7 SLOAD PUSH2 0x2642 SWAP1 DUP3 PUSH2 0x93D JUMP JUMPDEST PUSH1 0x7 SSTORE PUSH1 0x1 PUSH1 0x1 PUSH1 0xA0 SHL SUB DUP3 AND PUSH1 0x0 SWAP1 DUP2 MSTORE PUSH1 0x3 PUSH1 0x20 MSTORE PUSH1 0x40 SWAP1 KECCAK256 SLOAD PUSH2 0x2668 SWAP1 DUP3 PUSH2 0x93D JUMP JUMPDEST PUSH1 0x1 PUSH1 0x1 PUSH1 0xA0 SHL SUB DUP4 AND PUSH1 0x0 DUP2 DUP2 MSTORE PUSH1 0x3 PUSH1 0x20 MSTORE PUSH1 0x40 DUP1 DUP3 KECCAK256 SWAP4 SWAP1 SWAP4 SSTORE SWAP2 MLOAD SWAP1 SWAP2 SWAP1 PUSH32 0xDDF252AD1BE2C89B69C2B068FC378DAA952BA7F163C4A11628F55A4DF523B3EF SWAP1 PUSH2 0x25D3 SWAP1 DUP6 DUP2 MSTORE PUSH1 0x20 ADD SWAP1 JUMP JUMPDEST PUSH1 0x0 DUP1 DUP3 PUSH1 0x20 ADD MLOAD GT PUSH2 0x2718 JUMPI PUSH1 0x40 MLOAD PUSH3 0x461BCD PUSH1 0xE5 SHL DUP2 MSTORE PUSH1 0x20 PUSH1 0x4 DUP3 ADD MSTORE PUSH1 0x21 PUSH1 0x24 DUP3 ADD MSTORE PUSH32 0x54686973207573657220646F65736E2774206861766520616E79207374616B65 PUSH1 0x44 DUP3 ADD MSTORE PUSH1 0x73 PUSH1 0xF8 SHL PUSH1 0x64 DUP3 ADD MSTORE PUSH1 0x84 ADD PUSH2 0x998 JUMP JUMPDEST PUSH11 0x52B7D2DCC80CD2E4000000 PUSH2 0x2731 DUP4 PUSH1 0x40 ADD MLOAD PUSH2 0x34D0 JUMP JUMPDEST DUP4 PUSH1 0x80 ADD MLOAD PUSH2 0x2740 SWAP2 SWAP1 PUSH2 0x39E5 JUMP JUMPDEST DUP4 PUSH1 0x20 ADD MLOAD PUSH2 0x274F SWAP2 SWAP1 PUSH2 0x39E5 JUMP JUMPDEST PUSH2 0x9A4 SWAP2 SWAP1 PUSH2 0x3A04 JUMP JUMPDEST PUSH2 0x2761 PUSH2 0x35A0 JUMP JUMPDEST PUSH1 0x40 MLOAD DUP1 PUSH2 0x560 ADD PUSH1 0x40 MSTORE DUP1 PUSH2 0x2781 PUSH8 0x4DB732547630000 PUSH2 0x13B PUSH2 0x33A0 JUMP JUMPDEST DUP2 MSTORE PUSH1 0x20 ADD PUSH1 0x0 DUP2 MSTORE PUSH1 0x20 ADD PUSH1 0x0 DUP2 MSTORE PUSH1 0x20 ADD PUSH1 0x0 DUP2 MSTORE PUSH1 0x20 ADD PUSH2 0x27AF PUSH8 0x429D069189E0000 PUSH2 0x13B PUSH2 0x33A0 JUMP JUMPDEST DUP2 MSTORE PUSH1 0x20 ADD PUSH1 0x0 DUP2 MSTORE PUSH1 0x20 ADD PUSH1 0x0 DUP2 MSTORE PUSH1 0x20 ADD PUSH2 0x27D6 PUSH8 0x429D069189E0000 PUSH2 0x13B PUSH2 0x33A0 JUMP JUMPDEST DUP2 MSTORE PUSH1 0x20 ADD PUSH1 0x0 DUP2 MSTORE PUSH1 0x20 ADD PUSH1 0x0 DUP2 MSTORE PUSH1 0x20 ADD PUSH2 0x27FD PUSH8 0x429D069189E0000 PUSH2 0x13B PUSH2 0x33A0 JUMP JUMPDEST DUP2 MSTORE PUSH1 0x20 ADD PUSH1 0x0 DUP2 MSTORE PUSH1 0x20 ADD PUSH1 0x0 DUP2 MSTORE PUSH1 0x20 ADD PUSH2 0x2824 PUSH8 0x16345785D8A0000 PUSH2 0x13B PUSH2 0x33A0 JUMP JUMPDEST DUP2 MSTORE PUSH1 0x20 ADD PUSH2 0x283D PUSH8 0x16345785D8A0000 PUSH2 0x13B PUSH2 0x33A0 JUMP JUMPDEST DUP2 MSTORE PUSH1 0x20 ADD PUSH2 0x2856 PUSH8 0x16345785D8A0000 PUSH2 0x13B PUSH2 0x33A0 JUMP JUMPDEST DUP2 MSTORE PUSH1 0x20 ADD PUSH2 0x286F PUSH8 0x16345785D8A0000 PUSH2 0x13B PUSH2 0x33A0 JUMP JUMPDEST DUP2 MSTORE PUSH1 0x20 ADD PUSH2 0x2888 PUSH8 0x16345785D8A0000 PUSH2 0x13B PUSH2 0x33A0 JUMP JUMPDEST DUP2 MSTORE PUSH1 0x20 ADD PUSH2 0x28A1 PUSH8 0x16345785D8A0000 PUSH2 0x13B PUSH2 0x33A0 JUMP JUMPDEST DUP2 MSTORE PUSH1 0x20 ADD PUSH2 0x28BA PUSH8 0x16345785D8A0000 PUSH2 0x13B PUSH2 0x33A0 JUMP JUMPDEST DUP2 MSTORE PUSH1 0x20 ADD PUSH2 0x28D3 PUSH8 0x16345785D8A0000 PUSH2 0x13B PUSH2 0x33A0 JUMP JUMPDEST DUP2 MSTORE PUSH1 0x20 ADD PUSH2 0x28EC PUSH8 0x16345785D8A0000 PUSH2 0x13B PUSH2 0x33A0 JUMP JUMPDEST DUP2 MSTORE PUSH1 0x20 ADD PUSH2 0x2905 PUSH8 0x16345785D8A0000 PUSH2 0x13B PUSH2 0x33A0 JUMP JUMPDEST DUP2 MSTORE PUSH1 0x20 ADD PUSH2 0x291E PUSH8 0x16345785D8A0000 PUSH2 0x13B PUSH2 0x33A0 JUMP JUMPDEST DUP2 MSTORE PUSH1 0x20 ADD PUSH2 0x2937 PUSH8 0x16345785D8A0000 PUSH2 0x13B PUSH2 0x33A0 JUMP JUMPDEST DUP2 MSTORE PUSH1 0x20 ADD PUSH2 0x2950 PUSH8 0x16345785D8A0000 PUSH2 0x13B PUSH2 0x33A0 JUMP JUMPDEST DUP2 MSTORE PUSH1 0x20 ADD PUSH2 0x2969 PUSH8 0x16345785D8A0000 PUSH2 0x13B PUSH2 0x33A0 JUMP JUMPDEST DUP2 MSTORE PUSH1 0x20 ADD PUSH2 0x2982 PUSH8 0x16345785D8A0000 PUSH2 0x13B PUSH2 0x33A0 JUMP JUMPDEST DUP2 MSTORE PUSH1 0x20 ADD PUSH2 0x299B PUSH8 0x16345785D8A0000 PUSH2 0x13B PUSH2 0x33A0 JUMP JUMPDEST DUP2 MSTORE PUSH1 0x20 ADD PUSH2 0x29B4 PUSH8 0x16345785D8A0000 PUSH2 0x13B PUSH2 0x33A0 JUMP JUMPDEST DUP2 MSTORE PUSH1 0x20 ADD PUSH2 0x29CD PUSH8 0x16345785D8A0000 PUSH2 0x13B PUSH2 0x33A0 JUMP JUMPDEST DUP2 MSTORE PUSH1 0x20 ADD PUSH2 0x29E6 PUSH8 0x16345785D8A0000 PUSH2 0x13B PUSH2 0x33A0 JUMP JUMPDEST DUP2 MSTORE PUSH1 0x20 ADD PUSH1 0x0 DUP2 MSTORE PUSH1 0x20 ADD PUSH1 0x0 DUP2 MSTORE PUSH1 0x20 ADD PUSH1 0x0 DUP2 MSTORE PUSH1 0x20 ADD PUSH1 0x0 DUP2 MSTORE PUSH1 0x20 ADD PUSH1 0x0 DUP2 MSTORE PUSH1 0x20 ADD PUSH1 0x0 DUP2 MSTORE PUSH1 0x20 ADD PUSH1 0x0 DUP2 MSTORE PUSH1 0x20 ADD PUSH1 0x0 DUP2 MSTORE PUSH1 0x20 ADD PUSH1 0x0 DUP2 MSTORE PUSH1 0x20 ADD PUSH1 0x0 DUP2 MSTORE PUSH1 0x20 ADD PUSH1 0x0 DUP2 MSTORE POP SWAP1 POP SWAP1 JUMP JUMPDEST CALLER PUSH1 0x0 SWAP1 DUP2 MSTORE PUSH1 0x2 PUSH1 0x20 MSTORE PUSH1 0x40 DUP2 KECCAK256 SLOAD PUSH1 0x1 DUP1 SLOAD DUP4 SWAP3 SWAP2 DUP4 SWAP2 DUP4 SWAP1 DUP2 LT PUSH2 0x2A64 JUMPI PUSH2 0x2A64 PUSH2 0x39B8 JUMP JUMPDEST SWAP1 PUSH1 0x0 MSTORE PUSH1 0x20 PUSH1 0x0 KECCAK256 SWAP1 PUSH1 0x2 MUL ADD PUSH1 0x1 ADD DUP6 DUP2 SLOAD DUP2 LT PUSH2 0x2A86 JUMPI PUSH2 0x2A86 PUSH2 0x39B8 JUMP JUMPDEST PUSH1 0x0 SWAP2 DUP3 MSTORE PUSH1 0x20 SWAP2 DUP3 SWAP1 KECCAK256 PUSH1 0x40 DUP1 MLOAD PUSH1 0xC0 DUP2 ADD DUP3 MSTORE PUSH1 0x6 SWAP1 SWAP4 MUL SWAP1 SWAP2 ADD DUP1 SLOAD PUSH1 0x1 PUSH1 0x1 PUSH1 0xA0 SHL SUB AND DUP4 MSTORE PUSH1 0x1 DUP2 ADD SLOAD SWAP4 DUP4 ADD SWAP4 SWAP1 SWAP4 MSTORE PUSH1 0x2 DUP4 ADD SLOAD SWAP1 DUP3 ADD MSTORE PUSH1 0x3 DUP3 ADD SLOAD PUSH1 0x60 DUP3 ADD MSTORE PUSH1 0x4 DUP3 ADD SLOAD PUSH1 0x80 DUP3 ADD MSTORE PUSH1 0x5 SWAP1 SWAP2 ADD SLOAD PUSH1 0xA0 DUP3 ADD DUP2 SWAP1 MSTORE SWAP1 SWAP2 POP TIMESTAMP LT ISZERO PUSH2 0x2B08 JUMPI PUSH1 0x40 MLOAD PUSH3 0x461BCD PUSH1 0xE5 SHL DUP2 MSTORE PUSH1 0x4 ADD PUSH2 0x998 SWAP1 PUSH2 0x3A26 JUMP JUMPDEST DUP6 DUP2 PUSH1 0x20 ADD MLOAD LT ISZERO PUSH2 0x2B77 JUMPI PUSH1 0x40 MLOAD PUSH3 0x461BCD PUSH1 0xE5 SHL DUP2 MSTORE PUSH1 0x20 PUSH1 0x4 DUP3 ADD MSTORE PUSH1 0x32 PUSH1 0x24 DUP3 ADD MSTORE PUSH32 0x5374616B696E673A2043616E6E6F74207769746864726177206D6F7265207468 PUSH1 0x44 DUP3 ADD MSTORE PUSH18 0x185B881E5BDD481A185D99481CDD185AD959 PUSH1 0x72 SHL PUSH1 0x64 DUP3 ADD MSTORE PUSH1 0x84 ADD PUSH2 0x998 JUMP JUMPDEST PUSH1 0x0 PUSH2 0x2B82 DUP3 PUSH2 0x26B9 JUMP JUMPDEST SWAP1 POP DUP7 DUP3 PUSH1 0x20 ADD MLOAD PUSH2 0x2B94 SWAP2 SWAP1 PUSH2 0x39CE JUMP JUMPDEST PUSH1 0x20 DUP4 ADD DUP2 SWAP1 MSTORE PUSH2 0x2C16 JUMPI PUSH1 0x1 DUP4 DUP2 SLOAD DUP2 LT PUSH2 0x2BB2 JUMPI PUSH2 0x2BB2 PUSH2 0x39B8 JUMP JUMPDEST SWAP1 PUSH1 0x0 MSTORE PUSH1 0x20 PUSH1 0x0 KECCAK256 SWAP1 PUSH1 0x2 MUL ADD PUSH1 0x1 ADD DUP7 DUP2 SLOAD DUP2 LT PUSH2 0x2BD4 JUMPI PUSH2 0x2BD4 PUSH2 0x39B8 JUMP JUMPDEST PUSH1 0x0 SWAP2 DUP3 MSTORE PUSH1 0x20 DUP3 KECCAK256 PUSH1 0x6 SWAP1 SWAP2 MUL ADD DUP1 SLOAD PUSH1 0x1 PUSH1 0x1 PUSH1 0xA0 SHL SUB NOT AND DUP2 SSTORE PUSH1 0x1 DUP2 ADD DUP3 SWAP1 SSTORE PUSH1 0x2 DUP2 ADD DUP3 SWAP1 SSTORE PUSH1 0x3 DUP2 ADD DUP3 SWAP1 SSTORE PUSH1 0x4 DUP2 ADD DUP3 SWAP1 SSTORE PUSH1 0x5 ADD SSTORE PUSH2 0x2CB1 JUMP JUMPDEST DUP2 PUSH1 0x20 ADD MLOAD PUSH1 0x1 DUP5 DUP2 SLOAD DUP2 LT PUSH2 0x2C2E JUMPI PUSH2 0x2C2E PUSH2 0x39B8 JUMP JUMPDEST SWAP1 PUSH1 0x0 MSTORE PUSH1 0x20 PUSH1 0x0 KECCAK256 SWAP1 PUSH1 0x2 MUL ADD PUSH1 0x1 ADD DUP8 DUP2 SLOAD DUP2 LT PUSH2 0x2C50 JUMPI PUSH2 0x2C50 PUSH2 0x39B8 JUMP JUMPDEST SWAP1 PUSH1 0x0 MSTORE PUSH1 0x20 PUSH1 0x0 KECCAK256 SWAP1 PUSH1 0x6 MUL ADD PUSH1 0x1 ADD DUP2 SWAP1 SSTORE POP TIMESTAMP PUSH1 0x1 DUP5 DUP2 SLOAD DUP2 LT PUSH2 0x2C79 JUMPI PUSH2 0x2C79 PUSH2 0x39B8 JUMP JUMPDEST SWAP1 PUSH1 0x0 MSTORE PUSH1 0x20 PUSH1 0x0 KECCAK256 SWAP1 PUSH1 0x2 MUL ADD PUSH1 0x1 ADD DUP8 DUP2 SLOAD DUP2 LT PUSH2 0x2C9B JUMPI PUSH2 0x2C9B PUSH2 0x39B8 JUMP JUMPDEST SWAP1 PUSH1 0x0 MSTORE PUSH1 0x20 PUSH1 0x0 KECCAK256 SWAP1 PUSH1 0x6 MUL ADD PUSH1 0x2 ADD DUP2 SWAP1 SSTORE POP JUMPDEST SWAP6 SWAP7 SWAP5 POP POP POP POP POP JUMP JUMPDEST PUSH1 0x1 PUSH1 0x1 PUSH1 0xA0 SHL SUB DUP2 AND PUSH2 0x2D20 JUMPI PUSH1 0x40 MLOAD PUSH3 0x461BCD PUSH1 0xE5 SHL DUP2 MSTORE PUSH1 0x20 PUSH1 0x4 DUP3 ADD MSTORE PUSH1 0x26 PUSH1 0x24 DUP3 ADD MSTORE PUSH32 0x4F776E61626C653A206E6577206F776E657220697320746865207A65726F2061 PUSH1 0x44 DUP3 ADD MSTORE PUSH6 0x646472657373 PUSH1 0xD0 SHL PUSH1 0x64 DUP3 ADD MSTORE PUSH1 0x84 ADD PUSH2 0x998 JUMP JUMPDEST PUSH1 0x0 DUP1 SLOAD PUSH1 0x40 MLOAD PUSH1 0x1 PUSH1 0x1 PUSH1 0xA0 SHL SUB DUP1 DUP6 AND SWAP4 SWAP3 AND SWAP2 PUSH32 0x8BE0079C531659141344CD1FD0A4F28419497F9722A3DAAFE3B4186F6B6457E0 SWAP2 LOG3 PUSH1 0x0 DUP1 SLOAD PUSH1 0x1 PUSH1 0x1 PUSH1 0xA0 SHL SUB NOT AND PUSH1 0x1 PUSH1 0x1 PUSH1 0xA0 SHL SUB SWAP3 SWAP1 SWAP3 AND SWAP2 SWAP1 SWAP2 OR SWAP1 SSTORE JUMP JUMPDEST CALLER PUSH1 0x0 SWAP1 DUP2 MSTORE PUSH1 0x2 PUSH1 0x20 MSTORE PUSH1 0x40 DUP2 KECCAK256 SLOAD PUSH1 0x1 DUP1 SLOAD DUP4 SWAP3 SWAP2 DUP4 SWAP2 DUP4 SWAP1 DUP2 LT PUSH2 0x2DA4 JUMPI PUSH2 0x2DA4 PUSH2 0x39B8 JUMP JUMPDEST SWAP1 PUSH1 0x0 MSTORE PUSH1 0x20 PUSH1 0x0 KECCAK256 SWAP1 PUSH1 0x2 MUL ADD PUSH1 0x1 ADD DUP6 DUP2 SLOAD DUP2 LT PUSH2 0x2DC6 JUMPI PUSH2 0x2DC6 PUSH2 0x39B8 JUMP JUMPDEST PUSH1 0x0 SWAP2 DUP3 MSTORE PUSH1 0x20 SWAP2 DUP3 SWAP1 KECCAK256 PUSH1 0x40 DUP1 MLOAD PUSH1 0xC0 DUP2 ADD DUP3 MSTORE PUSH1 0x6 SWAP1 SWAP4 MUL SWAP1 SWAP2 ADD DUP1 SLOAD PUSH1 0x1 PUSH1 0x1 PUSH1 0xA0 SHL SUB AND DUP4 MSTORE PUSH1 0x1 DUP2 ADD SLOAD SWAP4 DUP4 ADD SWAP4 SWAP1 SWAP4 MSTORE PUSH1 0x2 DUP4 ADD SLOAD SWAP1 DUP3 ADD MSTORE PUSH1 0x3 DUP3 ADD SLOAD PUSH1 0x60 DUP3 ADD MSTORE PUSH1 0x4 DUP3 ADD SLOAD PUSH1 0x80 DUP3 ADD MSTORE PUSH1 0x5 SWAP1 SWAP2 ADD SLOAD PUSH1 0xA0 DUP3 ADD DUP2 SWAP1 MSTORE SWAP1 SWAP2 POP TIMESTAMP GT ISZERO PUSH2 0x2E48 JUMPI PUSH1 0x40 MLOAD PUSH3 0x461BCD PUSH1 0xE5 SHL DUP2 MSTORE PUSH1 0x4 ADD PUSH2 0x998 SWAP1 PUSH2 0x3A26 JUMP JUMPDEST PUSH1 0x20 DUP2 ADD MLOAD ISZERO PUSH2 0x2EB6 JUMPI PUSH1 0x40 MLOAD PUSH3 0x461BCD PUSH1 0xE5 SHL DUP2 MSTORE PUSH1 0x20 PUSH1 0x4 DUP3 ADD MSTORE PUSH1 0x33 PUSH1 0x24 DUP3 ADD MSTORE PUSH32 0x5374616B696E673A2043616E6E6F742077697468647261772C20796F7520646F PUSH1 0x44 DUP3 ADD MSTORE PUSH19 0x6E2774206861766520616E79207374616B6573 PUSH1 0x68 SHL PUSH1 0x64 DUP3 ADD MSTORE PUSH1 0x84 ADD PUSH2 0x998 JUMP JUMPDEST PUSH1 0x0 PUSH2 0x2EC1 DUP3 PUSH2 0x26B9 JUMP JUMPDEST PUSH1 0x20 DUP4 ADD DUP1 MLOAD PUSH1 0x0 SWAP1 SWAP2 MSTORE PUSH1 0x1 DUP1 SLOAD SWAP3 SWAP4 POP SWAP1 SWAP2 DUP6 SWAP1 DUP2 LT PUSH2 0x2EE5 JUMPI PUSH2 0x2EE5 PUSH2 0x39B8 JUMP JUMPDEST SWAP1 PUSH1 0x0 MSTORE PUSH1 0x20 PUSH1 0x0 KECCAK256 SWAP1 PUSH1 0x2 MUL ADD PUSH1 0x1 ADD DUP8 DUP2 SLOAD DUP2 LT PUSH2 0x2F07 JUMPI PUSH2 0x2F07 PUSH2 0x39B8 JUMP JUMPDEST PUSH1 0x0 SWAP2 DUP3 MSTORE PUSH1 0x20 DUP3 KECCAK256 PUSH1 0x6 SWAP1 SWAP2 MUL ADD DUP1 SLOAD PUSH1 0x1 PUSH1 0x1 PUSH1 0xA0 SHL SUB NOT AND DUP2 SSTORE PUSH1 0x1 DUP1 DUP3 ADD DUP4 SWAP1 SSTORE PUSH1 0x2 DUP3 ADD DUP4 SWAP1 SSTORE PUSH1 0x3 DUP3 ADD DUP4 SWAP1 SSTORE PUSH1 0x4 DUP3 ADD DUP4 SWAP1 SSTORE PUSH1 0x5 SWAP1 SWAP2 ADD SWAP2 SWAP1 SWAP2 SSTORE DUP1 SLOAD DUP6 SWAP1 DUP2 LT PUSH2 0x2F5C JUMPI PUSH2 0x2F5C PUSH2 0x39B8 JUMP JUMPDEST SWAP1 PUSH1 0x0 MSTORE PUSH1 0x20 PUSH1 0x0 KECCAK256 SWAP1 PUSH1 0x2 MUL ADD PUSH1 0x1 ADD DUP1 SLOAD DUP1 PUSH2 0x2F7C JUMPI PUSH2 0x2F7C PUSH2 0x3A76 JUMP JUMPDEST PUSH1 0x0 DUP3 DUP2 MSTORE PUSH1 0x20 DUP2 KECCAK256 PUSH1 0x6 PUSH1 0x0 NOT SWAP1 SWAP4 ADD SWAP3 DUP4 MUL ADD DUP1 SLOAD PUSH1 0x1 PUSH1 0x1 PUSH1 0xA0 SHL SUB NOT AND DUP2 SSTORE PUSH1 0x1 DUP2 ADD DUP3 SWAP1 SSTORE PUSH1 0x2 DUP2 ADD DUP3 SWAP1 SSTORE PUSH1 0x3 DUP2 ADD DUP3 SWAP1 SSTORE PUSH1 0x4 DUP2 ADD DUP3 SWAP1 SSTORE PUSH1 0x5 ADD SSTORE SWAP1 SSTORE SWAP7 SWAP1 SWAP6 POP SWAP4 POP POP POP POP JUMP JUMPDEST PUSH2 0x2FD4 PUSH2 0x35A0 JUMP JUMPDEST PUSH1 0x40 MLOAD DUP1 PUSH2 0x560 ADD PUSH1 0x40 MSTORE DUP1 PUSH2 0x2FF3 PUSH8 0x16345785D8A0000 PUSH1 0x69 PUSH2 0x33A0 JUMP JUMPDEST DUP2 MSTORE PUSH1 0x20 ADD PUSH1 0x0 DUP2 MSTORE PUSH1 0x20 ADD PUSH1 0x0 DUP2 MSTORE PUSH1 0x20 ADD PUSH1 0x0 DUP2 MSTORE PUSH1 0x20 ADD PUSH2 0x3020 PUSH8 0x16345785D8A0000 PUSH1 0x69 PUSH2 0x33A0 JUMP JUMPDEST DUP2 MSTORE PUSH1 0x20 ADD PUSH1 0x0 DUP2 MSTORE PUSH1 0x20 ADD PUSH1 0x0 DUP2 MSTORE PUSH1 0x20 ADD PUSH2 0x3046 PUSH8 0x16345785D8A0000 PUSH1 0x69 PUSH2 0x33A0 JUMP JUMPDEST DUP2 MSTORE PUSH1 0x20 ADD PUSH1 0x0 DUP2 MSTORE PUSH1 0x20 ADD PUSH1 0x0 DUP2 MSTORE PUSH1 0x20 ADD PUSH2 0x306C PUSH8 0x16345785D8A0000 PUSH1 0x69 PUSH2 0x33A0 JUMP JUMPDEST DUP2 MSTORE PUSH1 0x20 ADD PUSH1 0x0 DUP2 MSTORE PUSH1 0x20 ADD PUSH1 0x0 DUP2 MSTORE PUSH1 0x20 ADD PUSH2 0x3095 PUSH9 0x757496257D879B0000 PUSH3 0xA037A0 PUSH2 0x33A0 JUMP JUMPDEST DUP2 MSTORE PUSH1 0x20 ADD PUSH2 0x30B0 PUSH9 0x757496257D879B0000 PUSH3 0xA037A0 PUSH2 0x33A0 JUMP JUMPDEST DUP2 MSTORE PUSH1 0x20 ADD PUSH2 0x30CB PUSH9 0x757496257D879B0000 PUSH3 0xA037A0 PUSH2 0x33A0 JUMP JUMPDEST DUP2 MSTORE PUSH1 0x20 ADD PUSH2 0x30E6 PUSH9 0x757496257D879B0000 PUSH3 0xA037A0 PUSH2 0x33A0 JUMP JUMPDEST DUP2 MSTORE PUSH1 0x20 ADD PUSH2 0x3101 PUSH9 0x757496257D879B0000 PUSH3 0xA037A0 PUSH2 0x33A0 JUMP JUMPDEST DUP2 MSTORE PUSH1 0x20 ADD PUSH2 0x311C PUSH9 0x757496257D879B0000 PUSH3 0xA037A0 PUSH2 0x33A0 JUMP JUMPDEST DUP2 MSTORE PUSH1 0x20 ADD PUSH2 0x3137 PUSH9 0x757496257D879B0000 PUSH3 0xA037A0 PUSH2 0x33A0 JUMP JUMPDEST DUP2 MSTORE PUSH1 0x20 ADD PUSH2 0x3152 PUSH9 0x757496257D879B0000 PUSH3 0xA037A0 PUSH2 0x33A0 JUMP JUMPDEST DUP2 MSTORE PUSH1 0x20 ADD PUSH2 0x316D PUSH9 0x757496257D879B0000 PUSH3 0xA037A0 PUSH2 0x33A0 JUMP JUMPDEST DUP2 MSTORE PUSH1 0x20 ADD PUSH2 0x3188 PUSH9 0x757496257D879B0000 PUSH3 0xA037A0 PUSH2 0x33A0 JUMP JUMPDEST DUP2 MSTORE PUSH1 0x20 ADD PUSH2 0x31A3 PUSH9 0x757496257D879B0000 PUSH3 0xA037A0 PUSH2 0x33A0 JUMP JUMPDEST DUP2 MSTORE PUSH1 0x20 ADD PUSH2 0x31BE PUSH9 0x757496257D879B0000 PUSH3 0xA037A0 PUSH2 0x33A0 JUMP JUMPDEST DUP2 MSTORE PUSH1 0x20 ADD PUSH2 0x31D9 PUSH9 0x757496257D879B0000 PUSH3 0xA037A0 PUSH2 0x33A0 JUMP JUMPDEST DUP2 MSTORE PUSH1 0x20 ADD PUSH2 0x31F4 PUSH9 0x757496257D879B0000 PUSH3 0xA037A0 PUSH2 0x33A0 JUMP JUMPDEST DUP2 MSTORE PUSH1 0x20 ADD PUSH2 0x320F PUSH9 0x757496257D879B0000 PUSH3 0xA037A0 PUSH2 0x33A0 JUMP JUMPDEST DUP2 MSTORE PUSH1 0x20 ADD PUSH2 0x322A PUSH9 0x757496257D879B0000 PUSH3 0xA037A0 PUSH2 0x33A0 JUMP JUMPDEST DUP2 MSTORE PUSH1 0x20 ADD PUSH2 0x3245 PUSH9 0x757496257D879B0000 PUSH3 0xA037A0 PUSH2 0x33A0 JUMP JUMPDEST DUP2 MSTORE PUSH1 0x20 ADD PUSH2 0x3260 PUSH9 0x757496257D879B0000 PUSH3 0xA037A0 PUSH2 0x33A0 JUMP JUMPDEST DUP2 MSTORE PUSH1 0x20 ADD PUSH2 0x327B PUSH9 0x757496257D879B0000 PUSH3 0xA037A0 PUSH2 0x33A0 JUMP JUMPDEST DUP2 MSTORE PUSH1 0x20 ADD PUSH2 0x3296 PUSH9 0x757496257D879B0000 PUSH3 0xA037A0 PUSH2 0x33A0 JUMP JUMPDEST DUP2 MSTORE PUSH1 0x20 ADD PUSH2 0x32B1 PUSH9 0x757496257D879B0000 PUSH3 0xA037A0 PUSH2 0x33A0 JUMP JUMPDEST DUP2 MSTORE PUSH1 0x20 ADD PUSH2 0x32CC PUSH9 0x757496257D879B0000 PUSH3 0xA037A0 PUSH2 0x33A0 JUMP JUMPDEST DUP2 MSTORE PUSH1 0x20 ADD PUSH2 0x32E7 PUSH9 0x757496257D879B0000 PUSH3 0xA037A0 PUSH2 0x33A0 JUMP JUMPDEST DUP2 MSTORE PUSH1 0x20 ADD PUSH2 0x3302 PUSH9 0x757496257D879B0000 PUSH3 0xA037A0 PUSH2 0x33A0 JUMP JUMPDEST DUP2 MSTORE PUSH1 0x20 ADD PUSH2 0x331D PUSH9 0x757496257D879B0000 PUSH3 0xA037A0 PUSH2 0x33A0 JUMP JUMPDEST DUP2 MSTORE PUSH1 0x20 ADD PUSH2 0x3338 PUSH9 0x757496257D879B0000 PUSH3 0xA037A0 PUSH2 0x33A0 JUMP JUMPDEST DUP2 MSTORE PUSH1 0x20 ADD PUSH2 0x3353 PUSH9 0x757496257D879B0000 PUSH3 0xA037A0 PUSH2 0x33A0 JUMP JUMPDEST DUP2 MSTORE PUSH1 0x20 ADD PUSH2 0x336E PUSH9 0x757496257D879B0000 PUSH3 0xA037A0 PUSH2 0x33A0 JUMP JUMPDEST DUP2 MSTORE PUSH1 0x20 ADD PUSH2 0x3389 PUSH9 0x757496257D879B0000 PUSH3 0xA037A0 PUSH2 0x33A0 JUMP JUMPDEST DUP2 MSTORE PUSH1 0x20 ADD PUSH2 0x2339 PUSH9 0x757496257D879B0000 PUSH3 0xA037A0 JUMPDEST PUSH1 0x0 PUSH2 0x9A1 DUP4 DUP4 PUSH1 0x40 MLOAD DUP1 PUSH1 0x40 ADD PUSH1 0x40 MSTORE DUP1 PUSH1 0x1A DUP2 MSTORE PUSH1 0x20 ADD PUSH32 0x536166654D6174683A206469766973696F6E206279207A65726F000000000000 DUP2 MSTORE POP PUSH2 0x3572 JUMP JUMPDEST PUSH1 0x0 DUP3 PUSH2 0x33F1 JUMPI POP PUSH1 0x0 PUSH2 0x9A4 JUMP JUMPDEST PUSH1 0x0 PUSH2 0x33FD DUP4 DUP6 PUSH2 0x39E5 JUMP JUMPDEST SWAP1 POP DUP3 PUSH2 0x340A DUP6 DUP4 PUSH2 0x3A04 JUMP JUMPDEST EQ PUSH2 0x9A1 JUMPI PUSH1 0x40 MLOAD PUSH3 0x461BCD PUSH1 0xE5 SHL DUP2 MSTORE PUSH1 0x20 PUSH1 0x4 DUP3 ADD MSTORE PUSH1 0x21 PUSH1 0x24 DUP3 ADD MSTORE PUSH32 0x536166654D6174683A206D756C7469706C69636174696F6E206F766572666C6F PUSH1 0x44 DUP3 ADD MSTORE PUSH1 0x77 PUSH1 0xF8 SHL PUSH1 0x64 DUP3 ADD MSTORE PUSH1 0x84 ADD PUSH2 0x998 JUMP JUMPDEST PUSH1 0x1 DUP1 SLOAD DUP2 ADD DUP1 DUP3 SSTORE PUSH1 0x0 DUP3 DUP2 MSTORE SWAP2 DUP3 SWAP2 PUSH2 0x347C SWAP2 SWAP1 PUSH2 0x39CE JUMP JUMPDEST SWAP1 POP DUP3 PUSH1 0x1 DUP3 DUP2 SLOAD DUP2 LT PUSH2 0x3492 JUMPI PUSH2 0x3492 PUSH2 0x39B8 JUMP JUMPDEST PUSH1 0x0 SWAP2 DUP3 MSTORE PUSH1 0x20 DUP1 DUP4 KECCAK256 PUSH1 0x2 SWAP3 DUP4 MUL ADD DUP1 SLOAD PUSH1 0x1 PUSH1 0x1 PUSH1 0xA0 SHL SUB NOT AND PUSH1 0x1 PUSH1 0x1 PUSH1 0xA0 SHL SUB SWAP6 DUP7 AND OR SWAP1 SSTORE SWAP6 SWAP1 SWAP3 AND DUP2 MSTORE SWAP4 MSTORE PUSH1 0x40 SWAP1 SWAP3 KECCAK256 DUP3 SWAP1 SSTORE POP SWAP1 JUMP JUMPDEST PUSH1 0x0 DUP1 DUP3 GT PUSH2 0x3515 JUMPI PUSH1 0x40 MLOAD PUSH3 0x461BCD PUSH1 0xE5 SHL DUP2 MSTORE PUSH1 0x20 PUSH1 0x4 DUP3 ADD MSTORE PUSH1 0x11 PUSH1 0x24 DUP3 ADD MSTORE PUSH17 0x4572726F722074696D657374616D70203 PUSH1 0x7C SHL PUSH1 0x44 DUP3 ADD MSTORE PUSH1 0x64 ADD PUSH2 0x998 JUMP JUMPDEST PUSH2 0x9A4 PUSH2 0x3522 DUP4 TIMESTAMP PUSH2 0x39CE JUMP JUMPDEST PUSH2 0x3536 SWAP1 PUSH10 0xD3C21BCECCEDA1000000 PUSH2 0x39E5 JUMP JUMPDEST PUSH4 0x1E13380 PUSH1 0x40 MLOAD DUP1 PUSH1 0x40 ADD PUSH1 0x40 MSTORE DUP1 PUSH1 0x1D DUP2 MSTORE PUSH1 0x20 ADD PUSH32 0x4572726F722063616E6E6F74206469766964652074696D657374616D70000000 DUP2 MSTORE POP JUMPDEST PUSH1 0x0 DUP2 DUP4 PUSH2 0x3593 JUMPI PUSH1 0x40 MLOAD PUSH3 0x461BCD PUSH1 0xE5 SHL DUP2 MSTORE PUSH1 0x4 ADD PUSH2 0x998 SWAP2 SWAP1 PUSH2 0x35BF JUMP JUMPDEST POP PUSH1 0x0 PUSH2 0x1A69 DUP5 DUP7 PUSH2 0x3A04 JUMP JUMPDEST PUSH1 0x40 MLOAD DUP1 PUSH2 0x560 ADD PUSH1 0x40 MSTORE DUP1 PUSH1 0x2B SWAP1 PUSH1 0x20 DUP3 MUL DUP1 CALLDATASIZE DUP4 CALLDATACOPY POP SWAP2 SWAP3 SWAP2 POP POP JUMP JUMPDEST PUSH1 0x0 PUSH1 0x20 DUP1 DUP4 MSTORE DUP4 MLOAD DUP1 DUP3 DUP6 ADD MSTORE PUSH1 0x0 JUMPDEST DUP2 DUP2 LT ISZERO PUSH2 0x35EC JUMPI DUP6 DUP2 ADD DUP4 ADD MLOAD DUP6 DUP3 ADD PUSH1 0x40 ADD MSTORE DUP3 ADD PUSH2 0x35D0 JUMP JUMPDEST DUP2 DUP2 GT ISZERO PUSH2 0x35FE JUMPI PUSH1 0x0 PUSH1 0x40 DUP4 DUP8 ADD ADD MSTORE JUMPDEST POP PUSH1 0x1F ADD PUSH1 0x1F NOT AND SWAP3 SWAP1 SWAP3 ADD PUSH1 0x40 ADD SWAP4 SWAP3 POP POP POP JUMP JUMPDEST PUSH1 0x1 PUSH1 0x1 PUSH1 0xA0 SHL SUB DUP2 AND DUP2 EQ PUSH2 0x184A JUMPI PUSH1 0x0 DUP1 REVERT JUMPDEST PUSH1 0x0 DUP1 PUSH1 0x40 DUP4 DUP6 SUB SLT ISZERO PUSH2 0x363C JUMPI PUSH1 0x0 DUP1 REVERT JUMPDEST DUP3 CALLDATALOAD PUSH2 0x3647 DUP2 PUSH2 0x3614 JUMP JUMPDEST SWAP5 PUSH1 0x20 SWAP4 SWAP1 SWAP4 ADD CALLDATALOAD SWAP4 POP POP POP JUMP JUMPDEST PUSH1 0x0 PUSH1 0x20 DUP3 DUP5 SUB SLT ISZERO PUSH2 0x3667 JUMPI PUSH1 0x0 DUP1 REVERT JUMPDEST POP CALLDATALOAD SWAP2 SWAP1 POP JUMP JUMPDEST PUSH1 0x0 DUP1 PUSH1 0x0 PUSH1 0x60 DUP5 DUP7 SUB SLT ISZERO PUSH2 0x3683 JUMPI PUSH1 0x0 DUP1 REVERT JUMPDEST DUP4 CALLDATALOAD PUSH2 0x368E DUP2 PUSH2 0x3614 JUMP JUMPDEST SWAP3 POP PUSH1 0x20 DUP5 ADD CALLDATALOAD PUSH2 0x369E DUP2 PUSH2 0x3614 JUMP JUMPDEST SWAP3 SWAP6 SWAP3 SWAP5 POP POP POP PUSH1 0x40 SWAP2 SWAP1 SWAP2 ADD CALLDATALOAD SWAP1 JUMP JUMPDEST DUP1 PUSH1 0x0 JUMPDEST PUSH1 0x2B DUP2 LT ISZERO PUSH2 0x1811 JUMPI DUP2 MLOAD DUP5 MSTORE PUSH1 0x20 SWAP4 DUP5 ADD SWAP4 SWAP1 SWAP2 ADD SWAP1 PUSH1 0x1 ADD PUSH2 0x36B3 JUMP JUMPDEST PUSH2 0x560 DUP2 ADD PUSH2 0x9A4 DUP3 DUP5 PUSH2 0x36AF JUMP JUMPDEST PUSH1 0x0 PUSH1 0x20 DUP3 DUP5 SUB SLT ISZERO PUSH2 0x36F3 JUMPI PUSH1 0x0 DUP1 REVERT JUMPDEST DUP2 CALLDATALOAD PUSH2 0x9A1 DUP2 PUSH2 0x3614 JUMP JUMPDEST PUSH1 0x0 DUP1 PUSH1 0x40 DUP4 DUP6 SUB SLT ISZERO PUSH2 0x3711 JUMPI PUSH1 0x0 DUP1 REVERT JUMPDEST POP POP DUP1 CALLDATALOAD SWAP3 PUSH1 0x20 SWAP1 SWAP2 ADD CALLDATALOAD SWAP2 POP JUMP JUMPDEST PUSH1 0x0 PUSH1 0x20 DUP3 DUP5 SUB SLT ISZERO PUSH2 0x3732 JUMPI PUSH1 0x0 DUP1 REVERT JUMPDEST DUP2 CALLDATALOAD PUSH2 0xFFFF DUP2 AND DUP2 EQ PUSH2 0x9A1 JUMPI PUSH1 0x0 DUP1 REVERT JUMPDEST PUSH1 0x0 PUSH1 0x20 DUP1 DUP4 MSTORE PUSH1 0x60 DUP1 DUP5 ADD DUP6 MLOAD DUP4 DUP7 ADD MSTORE DUP3 DUP7 ADD MLOAD PUSH1 0x40 DUP1 DUP2 DUP9 ADD MSTORE DUP3 DUP3 MLOAD DUP1 DUP6 MSTORE PUSH1 0x80 SWAP5 POP DUP5 DUP10 ADD SWAP2 POP DUP7 DUP5 ADD SWAP4 POP PUSH1 0x0 JUMPDEST DUP2 DUP2 LT ISZERO PUSH2 0x37CB JUMPI DUP5 MLOAD DUP1 MLOAD PUSH1 0x1 PUSH1 0x1 PUSH1 0xA0 SHL SUB AND DUP5 MSTORE DUP9 DUP2 ADD MLOAD DUP10 DUP6 ADD MSTORE DUP5 DUP2 ADD MLOAD DUP6 DUP6 ADD MSTORE DUP8 DUP2 ADD MLOAD DUP9 DUP6 ADD MSTORE DUP7 DUP2 ADD MLOAD DUP8 DUP6 ADD MSTORE PUSH1 0xA0 SWAP1 DUP2 ADD MLOAD SWAP1 DUP5 ADD MSTORE SWAP4 DUP8 ADD SWAP4 PUSH1 0xC0 SWAP1 SWAP3 ADD SWAP2 PUSH1 0x1 ADD PUSH2 0x3778 JUMP JUMPDEST POP SWAP1 SWAP10 SWAP9 POP POP POP POP POP POP POP POP POP JUMP JUMPDEST PUSH1 0x0 DUP1 PUSH1 0x40 DUP4 DUP6 SUB SLT ISZERO PUSH2 0x37ED JUMPI PUSH1 0x0 DUP1 REVERT JUMPDEST DUP3 CALLDATALOAD PUSH2 0x37F8 DUP2 PUSH2 0x3614 JUMP JUMPDEST SWAP2 POP PUSH1 0x20 DUP4 ADD CALLDATALOAD PUSH2 0x3808 DUP2 PUSH2 0x3614 JUMP JUMPDEST DUP1 SWAP2 POP POP SWAP3 POP SWAP3 SWAP1 POP JUMP JUMPDEST PUSH4 0x4E487B71 PUSH1 0xE0 SHL PUSH1 0x0 MSTORE PUSH1 0x11 PUSH1 0x4 MSTORE PUSH1 0x24 PUSH1 0x0 REVERT JUMPDEST PUSH1 0x0 DUP3 NOT DUP3 GT ISZERO PUSH2 0x383C JUMPI PUSH2 0x383C PUSH2 0x3813 JUMP JUMPDEST POP ADD SWAP1 JUMP JUMPDEST PUSH1 0x1 DUP2 DUP2 SHR SWAP1 DUP3 AND DUP1 PUSH2 0x3855 JUMPI PUSH1 0x7F DUP3 AND SWAP2 POP JUMPDEST PUSH1 0x20 DUP3 LT DUP2 EQ ISZERO PUSH2 0x3876 JUMPI PUSH4 0x4E487B71 PUSH1 0xE0 SHL PUSH1 0x0 MSTORE PUSH1 0x22 PUSH1 0x4 MSTORE PUSH1 0x24 PUSH1 0x0 REVERT JUMPDEST POP SWAP2 SWAP1 POP JUMP JUMPDEST PUSH1 0x20 DUP1 DUP3 MSTORE DUP2 DUP2 ADD MSTORE PUSH32 0x4F776E61626C653A2063616C6C6572206973206E6F7420746865206F776E6572 PUSH1 0x40 DUP3 ADD MSTORE PUSH1 0x60 ADD SWAP1 JUMP JUMPDEST PUSH1 0x0 PUSH1 0x20 DUP3 DUP5 SUB SLT ISZERO PUSH2 0x38C3 JUMPI PUSH1 0x0 DUP1 REVERT JUMPDEST POP MLOAD SWAP2 SWAP1 POP JUMP JUMPDEST PUSH1 0x0 PUSH1 0x20 DUP3 DUP5 SUB SLT ISZERO PUSH2 0x38DC JUMPI PUSH1 0x0 DUP1 REVERT JUMPDEST DUP2 MLOAD PUSH2 0x9A1 DUP2 PUSH2 0x3614 JUMP JUMPDEST PUSH1 0x20 DUP1 DUP3 MSTORE PUSH1 0x3E SWAP1 DUP3 ADD MSTORE PUSH32 0x546F6B656E54696D654C6F636B3A204F6E6C7920636C61696D61626C65206279 PUSH1 0x40 DUP3 ADD MSTORE PUSH32 0x2055736572206F6620746869732061646472657373206F72206F776E65720000 PUSH1 0x60 DUP3 ADD MSTORE PUSH1 0x80 ADD SWAP1 JUMP JUMPDEST PUSH1 0x20 DUP1 DUP3 MSTORE PUSH1 0x2C SWAP1 DUP3 ADD MSTORE PUSH32 0x4D756C7469546F6B656E54696D654C6F636B3A2043616E6E6F742064656C6574 PUSH1 0x40 DUP3 ADD MSTORE PUSH12 0x329032B6B83A3C903AB9B2B9 PUSH1 0xA1 SHL PUSH1 0x60 DUP3 ADD MSTORE PUSH1 0x80 ADD SWAP1 JUMP JUMPDEST PUSH2 0x580 DUP2 ADD PUSH2 0x399F DUP3 DUP6 PUSH2 0x36AF JUMP JUMPDEST PUSH1 0x1 PUSH1 0x1 PUSH1 0xA0 SHL SUB SWAP3 SWAP1 SWAP3 AND PUSH2 0x560 SWAP2 SWAP1 SWAP2 ADD MSTORE SWAP2 SWAP1 POP JUMP JUMPDEST PUSH4 0x4E487B71 PUSH1 0xE0 SHL PUSH1 0x0 MSTORE PUSH1 0x32 PUSH1 0x4 MSTORE PUSH1 0x24 PUSH1 0x0 REVERT JUMPDEST PUSH1 0x0 DUP3 DUP3 LT ISZERO PUSH2 0x39E0 JUMPI PUSH2 0x39E0 PUSH2 0x3813 JUMP JUMPDEST POP SUB SWAP1 JUMP JUMPDEST PUSH1 0x0 DUP2 PUSH1 0x0 NOT DIV DUP4 GT DUP3 ISZERO ISZERO AND ISZERO PUSH2 0x39FF JUMPI PUSH2 0x39FF PUSH2 0x3813 JUMP JUMPDEST POP MUL SWAP1 JUMP JUMPDEST PUSH1 0x0 DUP3 PUSH2 0x3A21 JUMPI PUSH4 0x4E487B71 PUSH1 0xE0 SHL PUSH1 0x0 MSTORE PUSH1 0x12 PUSH1 0x4 MSTORE PUSH1 0x24 PUSH1 0x0 REVERT JUMPDEST POP DIV SWAP1 JUMP JUMPDEST PUSH1 0x20 DUP1 DUP3 MSTORE PUSH1 0x30 SWAP1 DUP3 ADD MSTORE PUSH32 0x5374616B696E673A2043616E6E6F74207769746864726177206265666F726520 PUSH1 0x40 DUP3 ADD MSTORE PUSH16 0x7468652072656C656173652074696D65 PUSH1 0x80 SHL PUSH1 0x60 DUP3 ADD MSTORE PUSH1 0x80 ADD SWAP1 JUMP JUMPDEST PUSH4 0x4E487B71 PUSH1 0xE0 SHL PUSH1 0x0 MSTORE PUSH1 0x31 PUSH1 0x4 MSTORE PUSH1 0x24 PUSH1 0x0 REVERT INVALID TIMESTAMP GASLIMIT POP ORIGIN ADDRESS GASPRICE KECCAK256 PUSH21 0x72616E7366657220616D6F756E7420657863656564 PUSH20 0x20616C6C6F77616E636542455032303A20747261 PUSH15 0x7366657220616D6F756E7420657863 PUSH6 0x656473206261 PUSH13 0x616E636542455032303A206465 PUSH4 0x72656173 PUSH6 0x6420616C6C6F PUSH24 0x616E63652062656C6F77207A65726F42455032303A206275 PUSH19 0x6E20616D6F756E742065786365656473206261 PUSH13 0x616E6365A26469706673582212 KECCAK256 0xB4 ISZERO 0xA5 DUP12 0x2A 0xE5 0xA8 0x4D LOG1 MSTORE8 INVALID GASPRICE PUSH15 0x240592D99F7476173D2F92C6EC534D SWAP3 DUP6 0xEA 0xD3 PUSH5 0x736F6C6343 STOP ADDMOD SIGNEXTEND STOP CALLER PUSH1 0xA0 PUSH1 0x40 MSTORE CALLVALUE DUP1 ISZERO PUSH2 0x10 JUMPI PUSH1 0x0 DUP1 REVERT JUMPDEST POP PUSH1 0x40 MLOAD PUSH2 0x71D CODESIZE SUB DUP1 PUSH2 0x71D DUP4 CODECOPY DUP2 ADD PUSH1 0x40 DUP2 SWAP1 MSTORE PUSH2 0x2F SWAP2 PUSH2 0xB5 JUMP JUMPDEST PUSH1 0x0 DUP3 GT PUSH2 0x98 JUMPI PUSH1 0x40 MLOAD PUSH3 0x461BCD PUSH1 0xE5 SHL DUP2 MSTORE PUSH1 0x20 PUSH1 0x4 DUP3 ADD MSTORE PUSH1 0x2C PUSH1 0x24 DUP3 ADD MSTORE PUSH32 0x546F6B656E54696D654C6F636B3A20416D6F756E74206D757374206772656174 PUSH1 0x44 DUP3 ADD MSTORE PUSH12 0x6572207468616E207A65726F PUSH1 0xA0 SHL PUSH1 0x64 DUP3 ADD MSTORE PUSH1 0x84 ADD PUSH1 0x40 MLOAD DUP1 SWAP2 SUB SWAP1 REVERT JUMPDEST PUSH1 0x0 SWAP2 DUP3 SSTORE PUSH1 0x1 PUSH1 0x1 PUSH1 0xA0 SHL SUB AND PUSH1 0x80 MSTORE TIMESTAMP PUSH1 0x1 SSTORE PUSH1 0x2 SSTORE PUSH2 0xF2 JUMP JUMPDEST PUSH1 0x0 DUP1 PUSH1 0x40 DUP4 DUP6 SUB SLT ISZERO PUSH2 0xC8 JUMPI PUSH1 0x0 DUP1 REVERT JUMPDEST DUP3 MLOAD PUSH1 0x20 DUP5 ADD MLOAD SWAP1 SWAP3 POP PUSH1 0x1 PUSH1 0x1 PUSH1 0xA0 SHL SUB DUP2 AND DUP2 EQ PUSH2 0xE7 JUMPI PUSH1 0x0 DUP1 REVERT JUMPDEST DUP1 SWAP2 POP POP SWAP3 POP SWAP3 SWAP1 POP JUMP JUMPDEST PUSH1 0x80 MLOAD PUSH2 0x611 PUSH2 0x10C PUSH1 0x0 CODECOPY PUSH1 0x0 PUSH1 0x5E ADD MSTORE PUSH2 0x611 PUSH1 0x0 RETURN INVALID PUSH1 0x80 PUSH1 0x40 MSTORE CALLVALUE DUP1 ISZERO PUSH2 0x10 JUMPI PUSH1 0x0 DUP1 REVERT JUMPDEST POP PUSH1 0x4 CALLDATASIZE LT PUSH2 0x4C JUMPI PUSH1 0x0 CALLDATALOAD PUSH1 0xE0 SHR DUP1 PUSH4 0x38AF3EED EQ PUSH2 0x51 JUMPI DUP1 PUSH4 0x5501881F EQ PUSH2 0x8D JUMPI DUP1 PUSH4 0xAA8C217C EQ PUSH2 0xA4 JUMPI DUP1 PUSH4 0xC8100DCC EQ PUSH2 0xAC JUMPI JUMPDEST PUSH1 0x0 DUP1 REVERT JUMPDEST PUSH1 0x40 MLOAD PUSH1 0x1 PUSH1 0x1 PUSH1 0xA0 SHL SUB PUSH32 0x0 AND DUP2 MSTORE PUSH1 0x20 ADD JUMPDEST PUSH1 0x40 MLOAD DUP1 SWAP2 SUB SWAP1 RETURN JUMPDEST PUSH2 0x96 PUSH1 0x2 SLOAD DUP2 JUMP JUMPDEST PUSH1 0x40 MLOAD SWAP1 DUP2 MSTORE PUSH1 0x20 ADD PUSH2 0x84 JUMP JUMPDEST PUSH1 0x0 SLOAD PUSH2 0x96 JUMP JUMPDEST PUSH2 0x96 PUSH2 0xBA CALLDATASIZE PUSH1 0x4 PUSH2 0x416 JUMP JUMPDEST PUSH1 0x0 DUP1 PUSH1 0x0 SLOAD GT PUSH2 0x112 JUMPI PUSH1 0x40 MLOAD PUSH3 0x461BCD PUSH1 0xE5 SHL DUP2 MSTORE PUSH1 0x20 PUSH1 0x4 DUP3 ADD MSTORE PUSH1 0x1D PUSH1 0x24 DUP3 ADD MSTORE PUSH32 0x546F6B656E54696D656C6F636B3A206E6F20746F6B656E73206C656674000000 PUSH1 0x44 DUP3 ADD MSTORE PUSH1 0x64 ADD JUMPDEST PUSH1 0x40 MLOAD DUP1 SWAP2 SUB SWAP1 REVERT JUMPDEST PUSH1 0x0 PUSH2 0x11D DUP4 PUSH2 0x1A9 JUMP JUMPDEST SWAP1 POP PUSH1 0x0 DUP2 GT PUSH2 0x17B JUMPI PUSH1 0x40 MLOAD PUSH3 0x461BCD PUSH1 0xE5 SHL DUP2 MSTORE PUSH1 0x20 PUSH1 0x4 DUP3 ADD MSTORE PUSH1 0x23 PUSH1 0x24 DUP3 ADD MSTORE PUSH32 0x546F6B656E54696D656C6F636B3A206E6F20746F6B656E7320746F2072656C65 PUSH1 0x44 DUP3 ADD MSTORE PUSH3 0x617365 PUSH1 0xE8 SHL PUSH1 0x64 DUP3 ADD MSTORE PUSH1 0x84 ADD PUSH2 0x109 JUMP JUMPDEST PUSH2 0x1A0 PUSH1 0x0 SLOAD DUP3 PUSH1 0x40 MLOAD DUP1 PUSH1 0x60 ADD PUSH1 0x40 MSTORE DUP1 PUSH1 0x2C DUP2 MSTORE PUSH1 0x20 ADD PUSH2 0x5B0 PUSH1 0x2C SWAP2 CODECOPY PUSH2 0x2C7 JUMP JUMPDEST PUSH1 0x0 SSTORE SWAP3 SWAP2 POP POP JUMP JUMPDEST PUSH1 0x0 DUP1 PUSH3 0x278D00 PUSH1 0x1 SLOAD TIMESTAMP PUSH2 0x1BE SWAP2 SWAP1 PUSH2 0x4B9 JUMP JUMPDEST PUSH2 0x1C8 SWAP2 SWAP1 PUSH2 0x4D0 JUMP JUMPDEST PUSH1 0x2 SLOAD SWAP1 SWAP2 POP PUSH1 0x0 SWAP1 JUMPDEST DUP3 DUP2 GT PUSH2 0x250 JUMPI PUSH2 0x23C DUP3 PUSH2 0x237 PUSH2 0x202 PUSH1 0x0 SLOAD DUP10 DUP7 PUSH1 0x2B DUP2 LT PUSH2 0x1F8 JUMPI PUSH2 0x1F8 PUSH2 0x4F2 JUMP JUMPDEST PUSH1 0x20 MUL ADD MLOAD PUSH2 0x301 JUMP JUMPDEST PUSH7 0x2386F26FC10000 PUSH1 0x40 MLOAD DUP1 PUSH1 0x40 ADD PUSH1 0x40 MSTORE DUP1 PUSH1 0xF DUP2 MSTORE PUSH1 0x20 ADD PUSH15 0x43616E6E6F7420646976696465203 PUSH1 0x8C SHL DUP2 MSTORE POP PUSH2 0x389 JUMP JUMPDEST PUSH2 0x3B7 JUMP JUMPDEST SWAP2 POP DUP1 PUSH2 0x248 DUP2 PUSH2 0x508 JUMP JUMPDEST SWAP2 POP POP PUSH2 0x1D2 JUMP JUMPDEST POP PUSH2 0x25C DUP3 PUSH1 0x1 PUSH2 0x523 JUMP JUMPDEST PUSH1 0x2 SSTORE DUP1 PUSH2 0x2C0 JUMPI PUSH1 0x40 MLOAD PUSH3 0x461BCD PUSH1 0xE5 SHL DUP2 MSTORE PUSH1 0x20 PUSH1 0x4 DUP3 ADD MSTORE PUSH1 0x2B PUSH1 0x24 DUP3 ADD MSTORE PUSH32 0x546F6B656E54696D654C6F636B3A2054686572652773206E6F7468696E672074 PUSH1 0x44 DUP3 ADD MSTORE PUSH11 0x1BC818DB185A5B481E595D PUSH1 0xAA SHL PUSH1 0x64 DUP3 ADD MSTORE PUSH1 0x84 ADD PUSH2 0x109 JUMP JUMPDEST SWAP4 SWAP3 POP POP POP JUMP JUMPDEST PUSH1 0x0 DUP2 DUP5 DUP5 GT ISZERO PUSH2 0x2EB JUMPI PUSH1 0x40 MLOAD PUSH3 0x461BCD PUSH1 0xE5 SHL DUP2 MSTORE PUSH1 0x4 ADD PUSH2 0x109 SWAP2 SWAP1 PUSH2 0x53B JUMP JUMPDEST POP PUSH1 0x0 PUSH2 0x2F8 DUP5 DUP7 PUSH2 0x4B9 JUMP JUMPDEST SWAP6 SWAP5 POP POP POP POP POP JUMP JUMPDEST PUSH1 0x0 DUP3 PUSH2 0x310 JUMPI POP PUSH1 0x0 PUSH2 0x383 JUMP JUMPDEST PUSH1 0x0 PUSH2 0x31C DUP4 DUP6 PUSH2 0x590 JUMP JUMPDEST SWAP1 POP DUP3 PUSH2 0x329 DUP6 DUP4 PUSH2 0x4D0 JUMP JUMPDEST EQ PUSH2 0x380 JUMPI PUSH1 0x40 MLOAD PUSH3 0x461BCD PUSH1 0xE5 SHL DUP2 MSTORE PUSH1 0x20 PUSH1 0x4 DUP3 ADD MSTORE PUSH1 0x21 PUSH1 0x24 DUP3 ADD MSTORE PUSH32 0x536166654D6174683A206D756C7469706C69636174696F6E206F766572666C6F PUSH1 0x44 DUP3 ADD MSTORE PUSH1 0x77 PUSH1 0xF8 SHL PUSH1 0x64 DUP3 ADD MSTORE PUSH1 0x84 ADD PUSH2 0x109 JUMP JUMPDEST SWAP1 POP JUMPDEST SWAP3 SWAP2 POP POP JUMP JUMPDEST PUSH1 0x0 DUP2 DUP4 PUSH2 0x3AA JUMPI PUSH1 0x40 MLOAD PUSH3 0x461BCD PUSH1 0xE5 SHL DUP2 MSTORE PUSH1 0x4 ADD PUSH2 0x109 SWAP2 SWAP1 PUSH2 0x53B JUMP JUMPDEST POP PUSH1 0x0 PUSH2 0x2F8 DUP5 DUP7 PUSH2 0x4D0 JUMP JUMPDEST PUSH1 0x0 DUP1 PUSH2 0x3C4 DUP4 DUP6 PUSH2 0x523 JUMP JUMPDEST SWAP1 POP DUP4 DUP2 LT ISZERO PUSH2 0x380 JUMPI PUSH1 0x40 MLOAD PUSH3 0x461BCD PUSH1 0xE5 SHL DUP2 MSTORE PUSH1 0x20 PUSH1 0x4 DUP3 ADD MSTORE PUSH1 0x1B PUSH1 0x24 DUP3 ADD MSTORE PUSH32 0x536166654D6174683A206164646974696F6E206F766572666C6F770000000000 PUSH1 0x44 DUP3 ADD MSTORE PUSH1 0x64 ADD PUSH2 0x109 JUMP JUMPDEST PUSH1 0x0 PUSH2 0x560 DUP1 DUP4 DUP6 SUB SLT ISZERO PUSH2 0x42A JUMPI PUSH1 0x0 DUP1 REVERT JUMPDEST DUP4 PUSH1 0x1F DUP5 ADD SLT PUSH2 0x439 JUMPI PUSH1 0x0 DUP1 REVERT JUMPDEST PUSH1 0x40 MLOAD DUP2 DUP2 ADD DUP2 DUP2 LT PUSH8 0xFFFFFFFFFFFFFFFF DUP3 GT OR ISZERO PUSH2 0x469 JUMPI PUSH4 0x4E487B71 PUSH1 0xE0 SHL PUSH1 0x0 MSTORE PUSH1 0x41 PUSH1 0x4 MSTORE PUSH1 0x24 PUSH1 0x0 REVERT JUMPDEST PUSH1 0x40 MSTORE SWAP1 DUP4 ADD SWAP1 DUP1 DUP6 DUP4 GT ISZERO PUSH2 0x47E JUMPI PUSH1 0x0 DUP1 REVERT JUMPDEST DUP5 JUMPDEST DUP4 DUP2 LT ISZERO PUSH2 0x498 JUMPI DUP1 CALLDATALOAD DUP3 MSTORE PUSH1 0x20 SWAP2 DUP3 ADD SWAP2 ADD PUSH2 0x480 JUMP JUMPDEST POP SWAP1 SWAP6 SWAP5 POP POP POP POP POP JUMP JUMPDEST PUSH4 0x4E487B71 PUSH1 0xE0 SHL PUSH1 0x0 MSTORE PUSH1 0x11 PUSH1 0x4 MSTORE PUSH1 0x24 PUSH1 0x0 REVERT JUMPDEST PUSH1 0x0 DUP3 DUP3 LT ISZERO PUSH2 0x4CB JUMPI PUSH2 0x4CB PUSH2 0x4A3 JUMP JUMPDEST POP SUB SWAP1 JUMP JUMPDEST PUSH1 0x0 DUP3 PUSH2 0x4ED JUMPI PUSH4 0x4E487B71 PUSH1 0xE0 SHL PUSH1 0x0 MSTORE PUSH1 0x12 PUSH1 0x4 MSTORE PUSH1 0x24 PUSH1 0x0 REVERT JUMPDEST POP DIV SWAP1 JUMP JUMPDEST PUSH4 0x4E487B71 PUSH1 0xE0 SHL PUSH1 0x0 MSTORE PUSH1 0x32 PUSH1 0x4 MSTORE PUSH1 0x24 PUSH1 0x0 REVERT JUMPDEST PUSH1 0x0 PUSH1 0x0 NOT DUP3 EQ ISZERO PUSH2 0x51C JUMPI PUSH2 0x51C PUSH2 0x4A3 JUMP JUMPDEST POP PUSH1 0x1 ADD SWAP1 JUMP JUMPDEST PUSH1 0x0 DUP3 NOT DUP3 GT ISZERO PUSH2 0x536 JUMPI PUSH2 0x536 PUSH2 0x4A3 JUMP JUMPDEST POP ADD SWAP1 JUMP JUMPDEST PUSH1 0x0 PUSH1 0x20 DUP1 DUP4 MSTORE DUP4 MLOAD DUP1 DUP3 DUP6 ADD MSTORE PUSH1 0x0 JUMPDEST DUP2 DUP2 LT ISZERO PUSH2 0x568 JUMPI DUP6 DUP2 ADD DUP4 ADD MLOAD DUP6 DUP3 ADD PUSH1 0x40 ADD MSTORE DUP3 ADD PUSH2 0x54C JUMP JUMPDEST DUP2 DUP2 GT ISZERO PUSH2 0x57A JUMPI PUSH1 0x0 PUSH1 0x40 DUP4 DUP8 ADD ADD MSTORE JUMPDEST POP PUSH1 0x1F ADD PUSH1 0x1F NOT AND SWAP3 SWAP1 SWAP3 ADD PUSH1 0x40 ADD SWAP4 SWAP3 POP POP POP JUMP JUMPDEST PUSH1 0x0 DUP2 PUSH1 0x0 NOT DIV DUP4 GT DUP3 ISZERO ISZERO AND ISZERO PUSH2 0x5AA JUMPI PUSH2 0x5AA PUSH2 0x4A3 JUMP JUMPDEST POP MUL SWAP1 JUMP INVALID NUMBER PUSH2 0x6E6E PUSH16 0x742073756273747261637420746F7461 PUSH13 0x20616D6F756E74207769746820 PUSH4 0x6C61696D PUSH2 0x626C PUSH6 0xA26469706673 PC 0x22 SLT KECCAK256 0xB5 0xCE 0xFB STOP SWAP11 0xB9 0xBF SWAP13 ADDMOD LOG0 0x28 0xD4 RETURN SAR CREATE PUSH21 0xF4169525C2920D4B5908C769FEA566CB64736F6C63 NUMBER STOP ADDMOD SIGNEXTEND STOP CALLER PUSH1 0x80 PUSH1 0x40 MSTORE CALLVALUE DUP1 ISZERO PUSH2 0x10 JUMPI PUSH1 0x0 DUP1 REVERT JUMPDEST POP PUSH1 0x40 MLOAD PUSH2 0xD91 CODESIZE SUB DUP1 PUSH2 0xD91 DUP4 CODECOPY DUP2 ADD PUSH1 0x40 DUP2 SWAP1 MSTORE PUSH2 0x2F SWAP2 PUSH2 0xA7 JUMP JUMPDEST PUSH1 0x0 DUP2 GT PUSH2 0x9B JUMPI PUSH1 0x40 MLOAD PUSH3 0x461BCD PUSH1 0xE5 SHL DUP2 MSTORE PUSH1 0x20 PUSH1 0x4 DUP3 ADD MSTORE PUSH1 0x2F PUSH1 0x24 DUP3 ADD MSTORE PUSH32 0x4D756C7469546F6B656E54696D656C6F636B3A20746F74616C20616D6F756E74 PUSH1 0x44 DUP3 ADD MSTORE PUSH15 0x2063616E6E6F74206265207A65726F PUSH1 0x88 SHL PUSH1 0x64 DUP3 ADD MSTORE PUSH1 0x84 ADD PUSH1 0x40 MLOAD DUP1 SWAP2 SUB SWAP1 REVERT JUMPDEST PUSH1 0x2 SSTORE TIMESTAMP PUSH1 0x3 SSTORE PUSH2 0xC0 JUMP JUMPDEST PUSH1 0x0 PUSH1 0x20 DUP3 DUP5 SUB SLT ISZERO PUSH2 0xB9 JUMPI PUSH1 0x0 DUP1 REVERT JUMPDEST POP MLOAD SWAP2 SWAP1 POP JUMP JUMPDEST PUSH2 0xCC2 DUP1 PUSH2 0xCF PUSH1 0x0 CODECOPY PUSH1 0x0 RETURN INVALID PUSH1 0x80 PUSH1 0x40 MSTORE CALLVALUE DUP1 ISZERO PUSH2 0x10 JUMPI PUSH1 0x0 DUP1 REVERT JUMPDEST POP PUSH1 0x4 CALLDATASIZE LT PUSH2 0x87 JUMPI PUSH1 0x0 CALLDATALOAD PUSH1 0xE0 SHR DUP1 PUSH4 0x9CC2AE6F GT PUSH2 0x5B JUMPI DUP1 PUSH4 0x9CC2AE6F EQ PUSH2 0xE1 JUMPI DUP1 PUSH4 0xA375DE8F EQ PUSH2 0xF4 JUMPI DUP1 PUSH4 0xA68C4031 EQ PUSH2 0x107 JUMPI DUP1 PUSH4 0xC76488A0 EQ PUSH2 0x11A JUMPI PUSH1 0x0 DUP1 REVERT JUMPDEST DUP1 PUSH3 0xE82FC5 EQ PUSH2 0x8C JUMPI DUP1 PUSH4 0x22B74993 EQ PUSH2 0xA6 JUMPI DUP1 PUSH4 0x5C60F226 EQ PUSH2 0xB9 JUMPI DUP1 PUSH4 0x7B269F90 EQ PUSH2 0xCE JUMPI JUMPDEST PUSH1 0x0 DUP1 REVERT JUMPDEST PUSH2 0x94 PUSH2 0x12D JUMP JUMPDEST PUSH1 0x40 MLOAD SWAP1 DUP2 MSTORE PUSH1 0x20 ADD PUSH1 0x40 MLOAD DUP1 SWAP2 SUB SWAP1 RETURN JUMPDEST PUSH2 0x94 PUSH2 0xB4 CALLDATASIZE PUSH1 0x4 PUSH2 0xA31 JUMP JUMPDEST PUSH2 0x150 JUMP JUMPDEST PUSH2 0xCC PUSH2 0xC7 CALLDATASIZE PUSH1 0x4 PUSH2 0xA31 JUMP JUMPDEST PUSH2 0x185 JUMP JUMPDEST STOP JUMPDEST PUSH2 0x94 PUSH2 0xDC CALLDATASIZE PUSH1 0x4 PUSH2 0xA62 JUMP JUMPDEST PUSH2 0x28E JUMP JUMPDEST PUSH2 0x94 PUSH2 0xEF CALLDATASIZE PUSH1 0x4 PUSH2 0xA31 JUMP JUMPDEST PUSH2 0x431 JUMP JUMPDEST PUSH2 0x94 PUSH2 0x102 CALLDATASIZE PUSH1 0x4 PUSH2 0xA31 JUMP JUMPDEST PUSH2 0x466 JUMP JUMPDEST PUSH2 0xCC PUSH2 0x115 CALLDATASIZE PUSH1 0x4 PUSH2 0xAF0 JUMP JUMPDEST PUSH2 0x4AE JUMP JUMPDEST PUSH2 0x94 PUSH2 0x128 CALLDATASIZE PUSH1 0x4 PUSH2 0xA31 JUMP JUMPDEST PUSH2 0x77A JUMP JUMPDEST PUSH1 0x0 PUSH3 0x278D00 PUSH1 0x3 SLOAD TIMESTAMP PUSH2 0x141 SWAP2 SWAP1 PUSH2 0xB32 JUMP JUMPDEST PUSH2 0x14B SWAP2 SWAP1 PUSH2 0xB49 JUMP JUMPDEST SWAP1 POP SWAP1 JUMP JUMPDEST PUSH1 0x0 DUP1 PUSH2 0x15C DUP4 PUSH2 0x781 JUMP JUMPDEST DUP2 SLOAD DUP2 LT PUSH2 0x16C JUMPI PUSH2 0x16C PUSH2 0xB6B JUMP JUMPDEST SWAP1 PUSH1 0x0 MSTORE PUSH1 0x20 PUSH1 0x0 KECCAK256 SWAP1 PUSH1 0x4 MUL ADD PUSH1 0x1 ADD SLOAD SWAP1 POP SWAP2 SWAP1 POP JUMP JUMPDEST PUSH1 0x1 PUSH1 0x1 PUSH1 0xA0 SHL SUB DUP2 AND PUSH2 0x206 JUMPI PUSH1 0x40 MLOAD PUSH3 0x461BCD PUSH1 0xE5 SHL DUP2 MSTORE PUSH1 0x20 PUSH1 0x4 DUP3 ADD MSTORE PUSH1 0x3D PUSH1 0x24 DUP3 ADD MSTORE PUSH32 0x4D756C7469546F6B656E54696D654C6F636B3A20557365722068617320736F6D PUSH1 0x44 DUP3 ADD MSTORE PUSH32 0x6520746F6B656E206C65667420696E206C6F636B65642077616C6C6574000000 PUSH1 0x64 DUP3 ADD MSTORE PUSH1 0x84 ADD JUMPDEST PUSH1 0x40 MLOAD DUP1 SWAP2 SUB SWAP1 REVERT JUMPDEST PUSH2 0x23E PUSH1 0x2 SLOAD PUSH1 0x0 PUSH2 0x217 DUP5 PUSH2 0x781 JUMP JUMPDEST DUP2 SLOAD DUP2 LT PUSH2 0x227 JUMPI PUSH2 0x227 PUSH2 0xB6B JUMP JUMPDEST SWAP1 PUSH1 0x0 MSTORE PUSH1 0x20 PUSH1 0x0 KECCAK256 SWAP1 PUSH1 0x4 MUL ADD PUSH1 0x1 ADD SLOAD PUSH2 0x79C JUMP JUMPDEST PUSH1 0x2 SSTORE PUSH1 0x0 PUSH2 0x24C DUP3 PUSH2 0x781 JUMP JUMPDEST DUP2 SLOAD DUP2 LT PUSH2 0x25C JUMPI PUSH2 0x25C PUSH2 0xB6B JUMP JUMPDEST PUSH1 0x0 SWAP2 DUP3 MSTORE PUSH1 0x20 DUP3 KECCAK256 PUSH1 0x4 SWAP1 SWAP2 MUL ADD DUP1 SLOAD PUSH1 0x1 PUSH1 0x1 PUSH1 0xA0 SHL SUB NOT AND DUP2 SSTORE PUSH1 0x1 DUP2 ADD DUP3 SWAP1 SSTORE PUSH1 0x2 DUP2 ADD DUP3 SWAP1 SSTORE PUSH1 0x3 ADD SSTORE POP JUMP JUMPDEST PUSH1 0x0 DUP1 PUSH1 0x2 SLOAD GT PUSH2 0x2EC JUMPI PUSH1 0x40 MLOAD PUSH3 0x461BCD PUSH1 0xE5 SHL DUP2 MSTORE PUSH1 0x20 PUSH1 0x4 DUP3 ADD MSTORE PUSH1 0x22 PUSH1 0x24 DUP3 ADD MSTORE PUSH32 0x4D756C7469546F6B656E54696D654C6F636B3A206E6F20746F6B656E73206C65 PUSH1 0x44 DUP3 ADD MSTORE PUSH2 0x199D PUSH1 0xF2 SHL PUSH1 0x64 DUP3 ADD MSTORE PUSH1 0x84 ADD PUSH2 0x1FD JUMP JUMPDEST PUSH2 0x2F5 DUP3 PUSH2 0x781 JUMP JUMPDEST PUSH2 0x350 JUMPI PUSH1 0x40 MLOAD PUSH3 0x461BCD PUSH1 0xE5 SHL DUP2 MSTORE PUSH1 0x20 PUSH1 0x4 DUP3 ADD MSTORE PUSH1 0x26 PUSH1 0x24 DUP3 ADD MSTORE PUSH32 0x4D756C7469546F6B656E54696D654C6F636B3A205573657220646F65736E2774 PUSH1 0x44 DUP3 ADD MSTORE PUSH6 0x8195E1A5CDD PUSH1 0xD2 SHL PUSH1 0x64 DUP3 ADD MSTORE PUSH1 0x84 ADD PUSH2 0x1FD JUMP JUMPDEST PUSH1 0x0 DUP1 PUSH2 0x35C DUP5 PUSH2 0x781 JUMP JUMPDEST DUP2 SLOAD DUP2 LT PUSH2 0x36C JUMPI PUSH2 0x36C PUSH2 0xB6B JUMP JUMPDEST SWAP1 PUSH1 0x0 MSTORE PUSH1 0x20 PUSH1 0x0 KECCAK256 SWAP1 PUSH1 0x4 MUL ADD SWAP1 POP PUSH1 0x0 PUSH2 0x388 DUP6 DUP4 PUSH2 0x802 JUMP JUMPDEST SWAP1 POP PUSH1 0x0 DUP2 GT PUSH2 0x3EB JUMPI PUSH1 0x40 MLOAD PUSH3 0x461BCD PUSH1 0xE5 SHL DUP2 MSTORE PUSH1 0x20 PUSH1 0x4 DUP3 ADD MSTORE PUSH1 0x28 PUSH1 0x24 DUP3 ADD MSTORE PUSH32 0x4D756C7469546F6B656E54696D654C6F636B3A206E6F20746F6B656E7320746F PUSH1 0x44 DUP3 ADD MSTORE PUSH8 0x2072656C65617365 PUSH1 0xC0 SHL PUSH1 0x64 DUP3 ADD MSTORE PUSH1 0x84 ADD PUSH2 0x1FD JUMP JUMPDEST PUSH2 0x412 DUP3 PUSH1 0x1 ADD SLOAD DUP3 PUSH1 0x40 MLOAD DUP1 PUSH1 0x60 ADD PUSH1 0x40 MSTORE DUP1 PUSH1 0x2C DUP2 MSTORE PUSH1 0x20 ADD PUSH2 0xC61 PUSH1 0x2C SWAP2 CODECOPY PUSH2 0x92E JUMP JUMPDEST PUSH1 0x1 DUP4 ADD SSTORE PUSH1 0x2 SLOAD PUSH2 0x424 SWAP1 DUP3 PUSH2 0x79C JUMP JUMPDEST PUSH1 0x2 SSTORE SWAP2 POP POP JUMPDEST SWAP3 SWAP2 POP POP JUMP JUMPDEST PUSH1 0x0 DUP1 PUSH2 0x43D DUP4 PUSH2 0x781 JUMP JUMPDEST DUP2 SLOAD DUP2 LT PUSH2 0x44D JUMPI PUSH2 0x44D PUSH2 0xB6B JUMP JUMPDEST SWAP1 PUSH1 0x0 MSTORE PUSH1 0x20 PUSH1 0x0 KECCAK256 SWAP1 PUSH1 0x4 MUL ADD PUSH1 0x2 ADD SLOAD SWAP1 POP SWAP2 SWAP1 POP JUMP JUMPDEST PUSH1 0x0 PUSH3 0x278D00 PUSH1 0x0 PUSH2 0x477 DUP5 PUSH2 0x781 JUMP JUMPDEST DUP2 SLOAD DUP2 LT PUSH2 0x487 JUMPI PUSH2 0x487 PUSH2 0xB6B JUMP JUMPDEST SWAP1 PUSH1 0x0 MSTORE PUSH1 0x20 PUSH1 0x0 KECCAK256 SWAP1 PUSH1 0x4 MUL ADD PUSH1 0x3 ADD SLOAD TIMESTAMP PUSH2 0x4A4 SWAP2 SWAP1 PUSH2 0xB32 JUMP JUMPDEST PUSH2 0x42B SWAP2 SWAP1 PUSH2 0xB49 JUMP JUMPDEST PUSH1 0x1 PUSH1 0x1 PUSH1 0xA0 SHL SUB DUP2 AND PUSH1 0x0 DUP2 DUP2 MSTORE PUSH1 0x1 PUSH1 0x20 MSTORE PUSH1 0x40 SWAP1 KECCAK256 SLOAD SWAP1 PUSH2 0x526 JUMPI PUSH1 0x40 MLOAD PUSH3 0x461BCD PUSH1 0xE5 SHL DUP2 MSTORE PUSH1 0x20 PUSH1 0x4 DUP3 ADD MSTORE PUSH1 0x29 PUSH1 0x24 DUP3 ADD MSTORE PUSH32 0x4D756C7469546F6B656E54696D654C6F636B3A2043616E6E6F74206164642061 PUSH1 0x44 DUP3 ADD MSTORE PUSH9 0x646472657373283029 PUSH1 0xB8 SHL PUSH1 0x64 DUP3 ADD MSTORE PUSH1 0x84 ADD PUSH2 0x1FD JUMP JUMPDEST PUSH1 0x2 SLOAD DUP4 LT PUSH2 0x5AB JUMPI PUSH1 0x40 MLOAD PUSH3 0x461BCD PUSH1 0xE5 SHL DUP2 MSTORE PUSH1 0x20 PUSH1 0x4 DUP3 ADD MSTORE PUSH1 0x45 PUSH1 0x24 DUP3 ADD MSTORE PUSH32 0x4D756C7469546F6B656E54696D654C6F636B3A20416D6F756E74206973206C61 PUSH1 0x44 DUP3 ADD MSTORE PUSH32 0x72676572207468616E20616C6C6F636174656420546F74616C20416D6F756E74 PUSH1 0x64 DUP3 ADD MSTORE PUSH5 0x81B19599D PUSH1 0xDA SHL PUSH1 0x84 DUP3 ADD MSTORE PUSH1 0xA4 ADD PUSH2 0x1FD JUMP JUMPDEST PUSH1 0x0 DUP2 DUP2 SLOAD DUP2 LT PUSH2 0x5BE JUMPI PUSH2 0x5BE PUSH2 0xB6B JUMP JUMPDEST SWAP1 PUSH1 0x0 MSTORE PUSH1 0x20 PUSH1 0x0 KECCAK256 SWAP1 PUSH1 0x4 MUL ADD PUSH1 0x1 ADD SLOAD PUSH1 0x0 EQ PUSH2 0x62E JUMPI PUSH1 0x40 MLOAD PUSH3 0x461BCD PUSH1 0xE5 SHL DUP2 MSTORE PUSH1 0x20 PUSH1 0x4 DUP3 ADD MSTORE PUSH1 0x26 PUSH1 0x24 DUP3 ADD MSTORE PUSH32 0x4D756C7469546F6B656E54696D654C6F636B3A205573657220616C7265616479 PUSH1 0x44 DUP3 ADD MSTORE PUSH6 0x8195E1A5CDD PUSH1 0xD2 SHL PUSH1 0x64 DUP3 ADD MSTORE PUSH1 0x84 ADD PUSH2 0x1FD JUMP JUMPDEST DUP1 PUSH2 0x74D JUMPI PUSH1 0x0 SLOAD PUSH2 0x64B JUMPI PUSH1 0x0 DUP1 SLOAD DUP2 DUP1 MSTORE PUSH1 0x2 ADD SWAP1 SSTORE PUSH2 0x657 JUMP JUMPDEST PUSH1 0x0 DUP1 SLOAD PUSH1 0x1 ADD DUP2 SSTORE DUP1 MSTORE JUMPDEST PUSH1 0x0 DUP1 SLOAD PUSH2 0x667 SWAP1 PUSH1 0x1 SWAP1 PUSH2 0xB32 JUMP JUMPDEST SWAP1 POP DUP3 PUSH1 0x0 DUP3 DUP2 SLOAD DUP2 LT PUSH2 0x67D JUMPI PUSH2 0x67D PUSH2 0xB6B JUMP JUMPDEST SWAP1 PUSH1 0x0 MSTORE PUSH1 0x20 PUSH1 0x0 KECCAK256 SWAP1 PUSH1 0x4 MUL ADD PUSH1 0x0 ADD PUSH1 0x0 PUSH2 0x100 EXP DUP2 SLOAD DUP2 PUSH1 0x1 PUSH1 0x1 PUSH1 0xA0 SHL SUB MUL NOT AND SWAP1 DUP4 PUSH1 0x1 PUSH1 0x1 PUSH1 0xA0 SHL SUB AND MUL OR SWAP1 SSTORE POP DUP4 PUSH1 0x0 DUP3 DUP2 SLOAD DUP2 LT PUSH2 0x6C6 JUMPI PUSH2 0x6C6 PUSH2 0xB6B JUMP JUMPDEST SWAP1 PUSH1 0x0 MSTORE PUSH1 0x20 PUSH1 0x0 KECCAK256 SWAP1 PUSH1 0x4 MUL ADD PUSH1 0x1 ADD DUP2 SWAP1 SSTORE POP PUSH1 0x0 DUP1 DUP3 DUP2 SLOAD DUP2 LT PUSH2 0x6EF JUMPI PUSH2 0x6EF PUSH2 0xB6B JUMP JUMPDEST SWAP1 PUSH1 0x0 MSTORE PUSH1 0x20 PUSH1 0x0 KECCAK256 SWAP1 PUSH1 0x4 MUL ADD PUSH1 0x2 ADD DUP2 SWAP1 SSTORE POP TIMESTAMP PUSH1 0x0 DUP3 DUP2 SLOAD DUP2 LT PUSH2 0x718 JUMPI PUSH2 0x718 PUSH2 0xB6B JUMP JUMPDEST PUSH1 0x0 SWAP2 DUP3 MSTORE PUSH1 0x20 DUP1 DUP4 KECCAK256 PUSH1 0x3 PUSH1 0x4 SWAP1 SWAP4 MUL ADD SWAP2 SWAP1 SWAP2 ADD SWAP3 SWAP1 SWAP3 SSTORE PUSH1 0x1 PUSH1 0x1 PUSH1 0xA0 SHL SUB DUP6 AND DUP2 MSTORE PUSH1 0x1 SWAP1 SWAP2 MSTORE PUSH1 0x40 SWAP1 KECCAK256 DUP2 SWAP1 SSTORE SWAP1 POP JUMPDEST PUSH2 0x772 PUSH1 0x2 SLOAD DUP5 PUSH1 0x40 MLOAD DUP1 PUSH1 0x60 ADD PUSH1 0x40 MSTORE DUP1 PUSH1 0x38 DUP2 MSTORE PUSH1 0x20 ADD PUSH2 0xC29 PUSH1 0x38 SWAP2 CODECOPY PUSH2 0x92E JUMP JUMPDEST PUSH1 0x2 SSTORE POP POP POP JUMP JUMPDEST PUSH1 0x0 PUSH2 0x42B DUP3 JUMPDEST PUSH1 0x1 PUSH1 0x1 PUSH1 0xA0 SHL SUB AND PUSH1 0x0 SWAP1 DUP2 MSTORE PUSH1 0x1 PUSH1 0x20 MSTORE PUSH1 0x40 SWAP1 KECCAK256 SLOAD SWAP1 JUMP JUMPDEST PUSH1 0x0 DUP1 PUSH2 0x7A9 DUP4 DUP6 PUSH2 0xB81 JUMP JUMPDEST SWAP1 POP DUP4 DUP2 LT ISZERO PUSH2 0x7FB JUMPI PUSH1 0x40 MLOAD PUSH3 0x461BCD PUSH1 0xE5 SHL DUP2 MSTORE PUSH1 0x20 PUSH1 0x4 DUP3 ADD MSTORE PUSH1 0x1B PUSH1 0x24 DUP3 ADD MSTORE PUSH32 0x536166654D6174683A206164646974696F6E206F766572666C6F770000000000 PUSH1 0x44 DUP3 ADD MSTORE PUSH1 0x64 ADD PUSH2 0x1FD JUMP JUMPDEST SWAP4 SWAP3 POP POP POP JUMP JUMPDEST PUSH1 0x0 DUP1 PUSH3 0x278D00 DUP4 PUSH1 0x3 ADD SLOAD TIMESTAMP PUSH2 0x819 SWAP2 SWAP1 PUSH2 0xB32 JUMP JUMPDEST PUSH2 0x823 SWAP2 SWAP1 PUSH2 0xB49 JUMP JUMPDEST PUSH1 0x2 DUP5 ADD SLOAD SWAP1 SWAP2 POP PUSH1 0x0 SWAP1 JUMPDEST DUP3 DUP2 GT PUSH2 0x8AF JUMPI PUSH2 0x89B DUP3 PUSH2 0x896 PUSH2 0x861 DUP9 PUSH1 0x1 ADD SLOAD DUP11 DUP7 PUSH1 0x2B DUP2 LT PUSH2 0x857 JUMPI PUSH2 0x857 PUSH2 0xB6B JUMP JUMPDEST PUSH1 0x20 MUL ADD MLOAD PUSH2 0x968 JUMP JUMPDEST PUSH7 0x2386F26FC10000 PUSH1 0x40 MLOAD DUP1 PUSH1 0x40 ADD PUSH1 0x40 MSTORE DUP1 PUSH1 0xF DUP2 MSTORE PUSH1 0x20 ADD PUSH15 0x43616E6E6F7420646976696465203 PUSH1 0x8C SHL DUP2 MSTORE POP PUSH2 0x9E7 JUMP JUMPDEST PUSH2 0x79C JUMP JUMPDEST SWAP2 POP DUP1 PUSH2 0x8A7 DUP2 PUSH2 0xB99 JUMP JUMPDEST SWAP2 POP POP PUSH2 0x82F JUMP JUMPDEST POP PUSH2 0x8BB DUP3 PUSH1 0x1 PUSH2 0xB81 JUMP JUMPDEST PUSH1 0x2 DUP6 ADD SSTORE DUP1 PUSH2 0x926 JUMPI PUSH1 0x40 MLOAD PUSH3 0x461BCD PUSH1 0xE5 SHL DUP2 MSTORE PUSH1 0x20 PUSH1 0x4 DUP3 ADD MSTORE PUSH1 0x30 PUSH1 0x24 DUP3 ADD MSTORE PUSH32 0x4D756C7469546F6B656E54696D654C6F636B3A2054686572652773206E6F7468 PUSH1 0x44 DUP3 ADD MSTORE PUSH16 0x1A5B99C81D1BC818DB185A5B481E595D PUSH1 0x82 SHL PUSH1 0x64 DUP3 ADD MSTORE PUSH1 0x84 ADD PUSH2 0x1FD JUMP JUMPDEST SWAP5 SWAP4 POP POP POP POP JUMP JUMPDEST PUSH1 0x0 DUP2 DUP5 DUP5 GT ISZERO PUSH2 0x952 JUMPI PUSH1 0x40 MLOAD PUSH3 0x461BCD PUSH1 0xE5 SHL DUP2 MSTORE PUSH1 0x4 ADD PUSH2 0x1FD SWAP2 SWAP1 PUSH2 0xBB4 JUMP JUMPDEST POP PUSH1 0x0 PUSH2 0x95F DUP5 DUP7 PUSH2 0xB32 JUMP JUMPDEST SWAP6 SWAP5 POP POP POP POP POP JUMP JUMPDEST PUSH1 0x0 DUP3 PUSH2 0x977 JUMPI POP PUSH1 0x0 PUSH2 0x42B JUMP JUMPDEST PUSH1 0x0 PUSH2 0x983 DUP4 DUP6 PUSH2 0xC09 JUMP JUMPDEST SWAP1 POP DUP3 PUSH2 0x990 DUP6 DUP4 PUSH2 0xB49 JUMP JUMPDEST EQ PUSH2 0x7FB JUMPI PUSH1 0x40 MLOAD PUSH3 0x461BCD PUSH1 0xE5 SHL DUP2 MSTORE PUSH1 0x20 PUSH1 0x4 DUP3 ADD MSTORE PUSH1 0x21 PUSH1 0x24 DUP3 ADD MSTORE PUSH32 0x536166654D6174683A206D756C7469706C69636174696F6E206F766572666C6F PUSH1 0x44 DUP3 ADD MSTORE PUSH1 0x77 PUSH1 0xF8 SHL PUSH1 0x64 DUP3 ADD MSTORE PUSH1 0x84 ADD PUSH2 0x1FD JUMP JUMPDEST PUSH1 0x0 DUP2 DUP4 PUSH2 0xA08 JUMPI PUSH1 0x40 MLOAD PUSH3 0x461BCD PUSH1 0xE5 SHL DUP2 MSTORE PUSH1 0x4 ADD PUSH2 0x1FD SWAP2 SWAP1 PUSH2 0xBB4 JUMP JUMPDEST POP PUSH1 0x0 PUSH2 0x95F DUP5 DUP7 PUSH2 0xB49 JUMP JUMPDEST DUP1 CALLDATALOAD PUSH1 0x1 PUSH1 0x1 PUSH1 0xA0 SHL SUB DUP2 AND DUP2 EQ PUSH2 0xA2C JUMPI PUSH1 0x0 DUP1 REVERT JUMPDEST SWAP2 SWAP1 POP JUMP JUMPDEST PUSH1 0x0 PUSH1 0x20 DUP3 DUP5 SUB SLT ISZERO PUSH2 0xA43 JUMPI PUSH1 0x0 DUP1 REVERT JUMPDEST PUSH2 0x7FB DUP3 PUSH2 0xA15 JUMP JUMPDEST PUSH4 0x4E487B71 PUSH1 0xE0 SHL PUSH1 0x0 MSTORE PUSH1 0x41 PUSH1 0x4 MSTORE PUSH1 0x24 PUSH1 0x0 REVERT JUMPDEST PUSH1 0x0 DUP1 PUSH2 0x580 DUP4 DUP6 SUB SLT ISZERO PUSH2 0xA76 JUMPI PUSH1 0x0 DUP1 REVERT JUMPDEST DUP4 PUSH1 0x1F DUP5 ADD SLT PUSH2 0xA85 JUMPI PUSH1 0x0 DUP1 REVERT JUMPDEST PUSH1 0x40 MLOAD PUSH2 0x560 DUP1 DUP3 ADD DUP3 DUP2 LT PUSH8 0xFFFFFFFFFFFFFFFF DUP3 GT OR ISZERO PUSH2 0xAAA JUMPI PUSH2 0xAAA PUSH2 0xA4C JUMP JUMPDEST PUSH1 0x40 MSTORE DUP5 ADD DUP2 DUP7 DUP3 GT ISZERO PUSH2 0xABD JUMPI PUSH1 0x0 DUP1 REVERT JUMPDEST DUP6 JUMPDEST DUP3 DUP2 LT ISZERO PUSH2 0xAD7 JUMPI DUP1 CALLDATALOAD DUP3 MSTORE PUSH1 0x20 SWAP2 DUP3 ADD SWAP2 ADD PUSH2 0xABF JUMP JUMPDEST POP POP DUP2 SWAP4 POP PUSH2 0xAE5 DUP2 PUSH2 0xA15 JUMP JUMPDEST SWAP3 POP POP POP SWAP3 POP SWAP3 SWAP1 POP JUMP JUMPDEST PUSH1 0x0 DUP1 PUSH1 0x40 DUP4 DUP6 SUB SLT ISZERO PUSH2 0xB03 JUMPI PUSH1 0x0 DUP1 REVERT JUMPDEST DUP3 CALLDATALOAD SWAP2 POP PUSH2 0xB13 PUSH1 0x20 DUP5 ADD PUSH2 0xA15 JUMP JUMPDEST SWAP1 POP SWAP3 POP SWAP3 SWAP1 POP JUMP JUMPDEST PUSH4 0x4E487B71 PUSH1 0xE0 SHL PUSH1 0x0 MSTORE PUSH1 0x11 PUSH1 0x4 MSTORE PUSH1 0x24 PUSH1 0x0 REVERT JUMPDEST PUSH1 0x0 DUP3 DUP3 LT ISZERO PUSH2 0xB44 JUMPI PUSH2 0xB44 PUSH2 0xB1C JUMP JUMPDEST POP SUB SWAP1 JUMP JUMPDEST PUSH1 0x0 DUP3 PUSH2 0xB66 JUMPI PUSH4 0x4E487B71 PUSH1 0xE0 SHL PUSH1 0x0 MSTORE PUSH1 0x12 PUSH1 0x4 MSTORE PUSH1 0x24 PUSH1 0x0 REVERT JUMPDEST POP DIV SWAP1 JUMP JUMPDEST PUSH4 0x4E487B71 PUSH1 0xE0 SHL PUSH1 0x0 MSTORE PUSH1 0x32 PUSH1 0x4 MSTORE PUSH1 0x24 PUSH1 0x0 REVERT JUMPDEST PUSH1 0x0 DUP3 NOT DUP3 GT ISZERO PUSH2 0xB94 JUMPI PUSH2 0xB94 PUSH2 0xB1C JUMP JUMPDEST POP ADD SWAP1 JUMP JUMPDEST PUSH1 0x0 PUSH1 0x0 NOT DUP3 EQ ISZERO PUSH2 0xBAD JUMPI PUSH2 0xBAD PUSH2 0xB1C JUMP JUMPDEST POP PUSH1 0x1 ADD SWAP1 JUMP JUMPDEST PUSH1 0x0 PUSH1 0x20 DUP1 DUP4 MSTORE DUP4 MLOAD DUP1 DUP3 DUP6 ADD MSTORE PUSH1 0x0 JUMPDEST DUP2 DUP2 LT ISZERO PUSH2 0xBE1 JUMPI DUP6 DUP2 ADD DUP4 ADD MLOAD DUP6 DUP3 ADD PUSH1 0x40 ADD MSTORE DUP3 ADD PUSH2 0xBC5 JUMP JUMPDEST DUP2 DUP2 GT ISZERO PUSH2 0xBF3 JUMPI PUSH1 0x0 PUSH1 0x40 DUP4 DUP8 ADD ADD MSTORE JUMPDEST POP PUSH1 0x1F ADD PUSH1 0x1F NOT AND SWAP3 SWAP1 SWAP3 ADD PUSH1 0x40 ADD SWAP4 SWAP3 POP POP POP JUMP JUMPDEST PUSH1 0x0 DUP2 PUSH1 0x0 NOT DIV DUP4 GT DUP3 ISZERO ISZERO AND ISZERO PUSH2 0xC23 JUMPI PUSH2 0xC23 PUSH2 0xB1C JUMP JUMPDEST POP MUL SWAP1 JUMP INVALID 0x4D PUSH22 0x6C7469546F6B656E54696D654C6F636B3A2043616E6E PUSH16 0x742073756273206C6172676574207468 PUSH2 0x6E20 PUSH21 0x6F74616C20616D6F756E744D756C7469546F6B656E SLOAD PUSH10 0x6D654C6F636B3A204361 PUSH15 0x6E6F7420646F2074686973206F7065 PUSH19 0x6174696F6EA26469706673582212206DB4AD9B 0xDF LOG2 DUP3 ADD 0xC2 0xD6 PUSH20 0x602D58E584D1F664A5F3D083FEA3C935A220B01D 0xE2 PUSH5 0x736F6C6343 STOP ADDMOD SIGNEXTEND STOP CALLER NUMBER PUSH2 0x6E6E PUSH16 0x74207472616E73666572206D6F726520 PUSH21 0x68616E20746F74616C20737570706C790000000000 "
		},
		"gasEstimates": {
			"creation": {
				"codeDepositCost": "3038200",
				"executionCost": "infinite",
				"totalCost": "infinite"
			},
			"external": {
				"": "28996",
				"_taxFee()": "2359",
				"addPrivatePlacementUser(address,uint256)": "infinite",
				"allowance(address,address)": "infinite",
				"approve(address,uint256)": "24659",
				"balanceOf(address)": "2691",
				"burnStakingReward(uint256)": "infinite",
				"changeTaxFee(uint16)": "26821",
				"decimals()": "2401",
				"decreaseAllowance(address,uint256)": "infinite",
				"deletePrivatePlacementUser(address)": "infinite",
				"deleteStrategicPartner(address)": "infinite",
				"devPool()": "2376",
				"devPoolLockedWallet()": "2492",
				"devPoolMonth()": "infinite",
				"devPoolRate()": "infinite",
				"getOwner()": "2398",
				"hasStake(address)": "infinite",
				"increaseAllowance(address,uint256)": "27164",
				"mint(uint256)": "infinite",
				"mintLiquidityReserve(uint256)": "infinite",
				"mintStakingReward(uint256)": "infinite",
				"name()": "infinite",
				"owner()": "2420",
				"privatePlacement()": "2410",
				"privatePlacementAmount()": "infinite",
				"privatePlacementDuration()": "infinite",
				"privatePlacementIndex()": "infinite",
				"privatePlacementLockedWallet()": "2426",
				"privatePlacementMonth()": "infinite",
				"privatePlacementRate()": "infinite",
				"releasePrivatePlacement()": "infinite",
				"releaseStrategicPartner()": "infinite",
				"renounceOwnership()": "30233",
				"stake(uint256,uint256)": "infinite",
				"stakeSummary(address)": "infinite",
				"stakingPackage(uint256)": "2505",
				"stratPartner()": "2398",
				"strategicPartnerLockedWallet()": "2471",
				"symbol()": "infinite",
				"taxFee()": "2344",
				"teamAndProject()": "2399",
				"teamAndProjectCoordinatorLockedWallet()": "2404",
				"totalSupply()": "2427",
				"transfer(address,uint256)": "infinite",
				"transferFrom(address,address,uint256)": "infinite",
				"transferOwnership(address)": "infinite",
				"unlockDevPoolWallet()": "infinite",
				"unlockTeamAndProjectCoordinatorWallet()": "infinite",
				"withdrawAllStake(uint256)": "infinite",
				"withdrawStake(uint256,uint256)": "infinite"
			},
			"internal": {
				"_approve(address,address,uint256)": "infinite",
				"_burn(address,uint256)": "infinite",
				"_burnFrom(address,uint256)": "infinite",
				"_changeTaxFee(uint16)": "infinite",
				"_mint(address,uint256)": "infinite",
				"_transfer(address,address,uint256)": "infinite",
				"addStrategicPartnerUser(address,uint256)": "infinite",
				"devPoolReleaseRate()": "infinite",
				"privatePlacementReleaseRate()": "infinite",
				"privateSaleReleaseRate()": "infinite",
				"strategicPartnerReleaseRate()": "infinite",
				"teamAndProjectCoordinatorReleaseRate()": "infinite"
			}
		},
		"methodIdentifiers": {
			"_taxFee()": "3b124fe7",
			"addPrivatePlacementUser(address,uint256)": "f6a27a51",
			"allowance(address,address)": "dd62ed3e",
			"approve(address,uint256)": "095ea7b3",
			"balanceOf(address)": "70a08231",
			"burnStakingReward(uint256)": "0e1b09ed",
			"changeTaxFee(uint16)": "8902cd70",
			"decimals()": "313ce567",
			"decreaseAllowance(address,uint256)": "a457c2d7",
			"deletePrivatePlacementUser(address)": "5c01ca12",
			"deleteStrategicPartner(address)": "d871d759",
			"devPool()": "b5838a27",
			"devPoolLockedWallet()": "ee3a91cc",
			"devPoolMonth()": "4376d452",
			"devPoolRate()": "d25812c6",
			"getOwner()": "893d20e8",
			"hasStake(address)": "e73e14bf",
			"increaseAllowance(address,uint256)": "39509351",
			"mint(uint256)": "a0712d68",
			"mintLiquidityReserve(uint256)": "d94d4ad6",
			"mintStakingReward(uint256)": "a169c515",
			"name()": "06fdde03",
			"owner()": "8da5cb5b",
			"privatePlacement()": "275728c9",
			"privatePlacementAmount()": "fa51c633",
			"privatePlacementDuration()": "109c5ab0",
			"privatePlacementIndex()": "cf79d2f9",
			"privatePlacementLockedWallet()": "e39ca658",
			"privatePlacementMonth()": "494f2b3a",
			"privatePlacementRate()": "242119b5",
			"releasePrivatePlacement()": "ac227806",
			"releaseStrategicPartner()": "fba29814",
			"renounceOwnership()": "715018a6",
			"stake(uint256,uint256)": "7b0472f0",
			"stakeSummary(address)": "b09d4b4e",
			"stakingPackage(uint256)": "ddbad8b8",
			"stratPartner()": "f13bdd7b",
			"strategicPartnerLockedWallet()": "33872f7d",
			"symbol()": "95d89b41",
			"taxFee()": "a071dcf4",
			"teamAndProject()": "402f3fc7",
			"teamAndProjectCoordinatorLockedWallet()": "b5938d73",
			"totalSupply()": "18160ddd",
			"transfer(address,uint256)": "a9059cbb",
			"transferFrom(address,address,uint256)": "23b872dd",
			"transferOwnership(address)": "f2fde38b",
			"unlockDevPoolWallet()": "269547ca",
			"unlockTeamAndProjectCoordinatorWallet()": "eb02983d",
			"withdrawAllStake(uint256)": "f729b00f",
			"withdrawStake(uint256,uint256)": "f1fdf469"
		}
	},
	"abi": [
		{
			"inputs": [],
			"stateMutability": "nonpayable",
			"type": "constructor"
		},
		{
			"anonymous": false,
			"inputs": [
				{
					"indexed": true,
					"internalType": "address",
					"name": "owner",
					"type": "address"
				},
				{
					"indexed": true,
					"internalType": "address",
					"name": "spender",
					"type": "address"
				},
				{
					"indexed": false,
					"internalType": "uint256",
					"name": "value",
					"type": "uint256"
				}
			],
			"name": "Approval",
			"type": "event"
		},
		{
			"anonymous": false,
			"inputs": [
				{
					"indexed": true,
					"internalType": "address",
					"name": "previousOwner",
					"type": "address"
				},
				{
					"indexed": true,
					"internalType": "address",
					"name": "newOwner",
					"type": "address"
				}
			],
			"name": "OwnershipTransferred",
			"type": "event"
		},
		{
			"anonymous": false,
			"inputs": [
				{
					"indexed": true,
					"internalType": "address",
					"name": "user",
					"type": "address"
				},
				{
					"indexed": false,
					"internalType": "uint256",
					"name": "amount",
					"type": "uint256"
				},
				{
					"indexed": false,
					"internalType": "uint256",
					"name": "index",
					"type": "uint256"
				},
				{
					"indexed": false,
					"internalType": "uint256",
					"name": "timestamp",
					"type": "uint256"
				},
				{
					"indexed": false,
					"internalType": "uint256",
					"name": "releaseTime",
					"type": "uint256"
				}
			],
			"name": "Staked",
			"type": "event"
		},
		{
			"anonymous": false,
			"inputs": [
				{
					"indexed": true,
					"internalType": "address",
					"name": "from",
					"type": "address"
				},
				{
					"indexed": true,
					"internalType": "address",
					"name": "to",
					"type": "address"
				},
				{
					"indexed": false,
					"internalType": "uint256",
					"name": "value",
					"type": "uint256"
				}
			],
			"name": "Transfer",
			"type": "event"
		},
		{
			"stateMutability": "payable",
			"type": "fallback"
		},
		{
			"inputs": [],
			"name": "_taxFee",
			"outputs": [
				{
					"internalType": "uint16",
					"name": "",
					"type": "uint16"
				}
			],
			"stateMutability": "view",
			"type": "function"
		},
		{
			"inputs": [
				{
					"internalType": "address",
					"name": "user_",
					"type": "address"
				},
				{
					"internalType": "uint256",
					"name": "amount_",
					"type": "uint256"
				}
			],
			"name": "addPrivatePlacementUser",
			"outputs": [],
			"stateMutability": "nonpayable",
			"type": "function"
		},
		{
			"inputs": [
				{
					"internalType": "address",
					"name": "owner",
					"type": "address"
				},
				{
					"internalType": "address",
					"name": "spender",
					"type": "address"
				}
			],
			"name": "allowance",
			"outputs": [
				{
					"internalType": "uint256",
					"name": "",
					"type": "uint256"
				}
			],
			"stateMutability": "view",
			"type": "function"
		},
		{
			"inputs": [
				{
					"internalType": "address",
					"name": "spender",
					"type": "address"
				},
				{
					"internalType": "uint256",
					"name": "amount",
					"type": "uint256"
				}
			],
			"name": "approve",
			"outputs": [
				{
					"internalType": "bool",
					"name": "",
					"type": "bool"
				}
			],
			"stateMutability": "nonpayable",
			"type": "function"
		},
		{
			"inputs": [
				{
					"internalType": "address",
					"name": "account",
					"type": "address"
				}
			],
			"name": "balanceOf",
			"outputs": [
				{
					"internalType": "uint256",
					"name": "",
					"type": "uint256"
				}
			],
			"stateMutability": "view",
			"type": "function"
		},
		{
			"inputs": [
				{
					"internalType": "uint256",
					"name": "amount_",
					"type": "uint256"
				}
			],
			"name": "burnStakingReward",
			"outputs": [
				{
					"internalType": "bool",
					"name": "",
					"type": "bool"
				}
			],
			"stateMutability": "nonpayable",
			"type": "function"
		},
		{
			"inputs": [
				{
					"internalType": "uint16",
					"name": "taxFee_",
					"type": "uint16"
				}
			],
			"name": "changeTaxFee",
			"outputs": [
				{
					"internalType": "bool",
					"name": "",
					"type": "bool"
				}
			],
			"stateMutability": "nonpayable",
			"type": "function"
		},
		{
			"inputs": [],
			"name": "decimals",
			"outputs": [
				{
					"internalType": "uint8",
					"name": "",
					"type": "uint8"
				}
			],
			"stateMutability": "view",
			"type": "function"
		},
		{
			"inputs": [
				{
					"internalType": "address",
					"name": "spender",
					"type": "address"
				},
				{
					"internalType": "uint256",
					"name": "subtractedValue",
					"type": "uint256"
				}
			],
			"name": "decreaseAllowance",
			"outputs": [
				{
					"internalType": "bool",
					"name": "",
					"type": "bool"
				}
			],
			"stateMutability": "nonpayable",
			"type": "function"
		},
		{
			"inputs": [
				{
					"internalType": "address",
					"name": "user_",
					"type": "address"
				}
			],
			"name": "deletePrivatePlacementUser",
			"outputs": [],
			"stateMutability": "nonpayable",
			"type": "function"
		},
		{
			"inputs": [
				{
					"internalType": "address",
					"name": "user_",
					"type": "address"
				}
			],
			"name": "deleteStrategicPartner",
			"outputs": [],
			"stateMutability": "nonpayable",
			"type": "function"
		},
		{
			"inputs": [],
			"name": "devPool",
			"outputs": [
				{
					"internalType": "contract Lockable",
					"name": "",
					"type": "address"
				}
			],
			"stateMutability": "view",
			"type": "function"
		},
		{
			"inputs": [],
			"name": "devPoolLockedWallet",
			"outputs": [
				{
					"internalType": "contract Lockable",
					"name": "",
					"type": "address"
				}
			],
			"stateMutability": "view",
			"type": "function"
		},
		{
			"inputs": [],
			"name": "devPoolMonth",
			"outputs": [
				{
					"internalType": "uint256",
					"name": "",
					"type": "uint256"
				}
			],
			"stateMutability": "view",
			"type": "function"
		},
		{
			"inputs": [],
			"name": "devPoolRate",
			"outputs": [
				{
					"internalType": "uint256[43]",
					"name": "",
					"type": "uint256[43]"
				}
			],
			"stateMutability": "pure",
			"type": "function"
		},
		{
			"inputs": [],
			"name": "getOwner",
			"outputs": [
				{
					"internalType": "address",
					"name": "",
					"type": "address"
				}
			],
			"stateMutability": "view",
			"type": "function"
		},
		{
			"inputs": [
				{
					"internalType": "address",
					"name": "_staker",
					"type": "address"
				}
			],
			"name": "hasStake",
			"outputs": [
				{
					"components": [
						{
							"internalType": "uint256",
							"name": "total_amount",
							"type": "uint256"
						},
						{
							"components": [
								{
									"internalType": "address",
									"name": "user",
									"type": "address"
								},
								{
									"internalType": "uint256",
									"name": "amount",
									"type": "uint256"
								},
								{
									"internalType": "uint256",
									"name": "since",
									"type": "uint256"
								},
								{
									"internalType": "uint256",
									"name": "claimable",
									"type": "uint256"
								},
								{
									"internalType": "uint256",
									"name": "rewardAPY",
									"type": "uint256"
								},
								{
									"internalType": "uint256",
									"name": "releaseTime",
									"type": "uint256"
								}
							],
							"internalType": "struct Stakable.Stake[]",
							"name": "stakes",
							"type": "tuple[]"
						}
					],
					"internalType": "struct Stakable.StakingSummary",
					"name": "",
					"type": "tuple"
				}
			],
			"stateMutability": "view",
			"type": "function"
		},
		{
			"inputs": [
				{
					"internalType": "address",
					"name": "spender",
					"type": "address"
				},
				{
					"internalType": "uint256",
					"name": "addedValue",
					"type": "uint256"
				}
			],
			"name": "increaseAllowance",
			"outputs": [
				{
					"internalType": "bool",
					"name": "",
					"type": "bool"
				}
			],
			"stateMutability": "nonpayable",
			"type": "function"
		},
		{
			"inputs": [
				{
					"internalType": "uint256",
					"name": "amount",
					"type": "uint256"
				}
			],
			"name": "mint",
			"outputs": [
				{
					"internalType": "bool",
					"name": "",
					"type": "bool"
				}
			],
			"stateMutability": "nonpayable",
			"type": "function"
		},
		{
			"inputs": [
				{
					"internalType": "uint256",
					"name": "amount_",
					"type": "uint256"
				}
			],
			"name": "mintLiquidityReserve",
			"outputs": [
				{
					"internalType": "bool",
					"name": "",
					"type": "bool"
				}
			],
			"stateMutability": "nonpayable",
			"type": "function"
		},
		{
			"inputs": [
				{
					"internalType": "uint256",
					"name": "amount_",
					"type": "uint256"
				}
			],
			"name": "mintStakingReward",
			"outputs": [
				{
					"internalType": "bool",
					"name": "",
					"type": "bool"
				}
			],
			"stateMutability": "nonpayable",
			"type": "function"
		},
		{
			"inputs": [],
			"name": "name",
			"outputs": [
				{
					"internalType": "string",
					"name": "",
					"type": "string"
				}
			],
			"stateMutability": "view",
			"type": "function"
		},
		{
			"inputs": [],
			"name": "owner",
			"outputs": [
				{
					"internalType": "address",
					"name": "",
					"type": "address"
				}
			],
			"stateMutability": "view",
			"type": "function"
		},
		{
			"inputs": [],
			"name": "privatePlacement",
			"outputs": [
				{
					"internalType": "contract MultiLockable",
					"name": "",
					"type": "address"
				}
			],
			"stateMutability": "view",
			"type": "function"
		},
		{
			"inputs": [],
			"name": "privatePlacementAmount",
			"outputs": [
				{
					"internalType": "uint256",
					"name": "",
					"type": "uint256"
				}
			],
			"stateMutability": "view",
			"type": "function"
		},
		{
			"inputs": [],
			"name": "privatePlacementDuration",
			"outputs": [
				{
					"internalType": "uint256",
					"name": "",
					"type": "uint256"
				}
			],
			"stateMutability": "view",
			"type": "function"
		},
		{
			"inputs": [],
			"name": "privatePlacementIndex",
			"outputs": [
				{
					"internalType": "uint256",
					"name": "",
					"type": "uint256"
				}
			],
			"stateMutability": "view",
			"type": "function"
		},
		{
			"inputs": [],
			"name": "privatePlacementLockedWallet",
			"outputs": [
				{
					"internalType": "contract MultiLockable",
					"name": "",
					"type": "address"
				}
			],
			"stateMutability": "view",
			"type": "function"
		},
		{
			"inputs": [],
			"name": "privatePlacementMonth",
			"outputs": [
				{
					"internalType": "uint256",
					"name": "",
					"type": "uint256"
				}
			],
			"stateMutability": "view",
			"type": "function"
		},
		{
			"inputs": [],
			"name": "privatePlacementRate",
			"outputs": [
				{
					"internalType": "uint256[43]",
					"name": "",
					"type": "uint256[43]"
				}
			],
			"stateMutability": "pure",
			"type": "function"
		},
		{
			"inputs": [],
			"name": "releasePrivatePlacement",
			"outputs": [],
			"stateMutability": "nonpayable",
			"type": "function"
		},
		{
			"inputs": [],
			"name": "releaseStrategicPartner",
			"outputs": [],
			"stateMutability": "nonpayable",
			"type": "function"
		},
		{
			"inputs": [],
			"name": "renounceOwnership",
			"outputs": [],
			"stateMutability": "nonpayable",
			"type": "function"
		},
		{
			"inputs": [
				{
					"internalType": "uint256",
					"name": "_amount",
					"type": "uint256"
				},
				{
					"internalType": "uint256",
					"name": "_stakePeriod",
					"type": "uint256"
				}
			],
			"name": "stake",
			"outputs": [],
			"stateMutability": "nonpayable",
			"type": "function"
		},
		{
			"inputs": [
				{
					"internalType": "address",
					"name": "user_",
					"type": "address"
				}
			],
			"name": "stakeSummary",
			"outputs": [
				{
					"components": [
						{
							"internalType": "uint256",
							"name": "total_amount",
							"type": "uint256"
						},
						{
							"components": [
								{
									"internalType": "address",
									"name": "user",
									"type": "address"
								},
								{
									"internalType": "uint256",
									"name": "amount",
									"type": "uint256"
								},
								{
									"internalType": "uint256",
									"name": "since",
									"type": "uint256"
								},
								{
									"internalType": "uint256",
									"name": "claimable",
									"type": "uint256"
								},
								{
									"internalType": "uint256",
									"name": "rewardAPY",
									"type": "uint256"
								},
								{
									"internalType": "uint256",
									"name": "releaseTime",
									"type": "uint256"
								}
							],
							"internalType": "struct Stakable.Stake[]",
							"name": "stakes",
							"type": "tuple[]"
						}
					],
					"internalType": "struct Stakable.StakingSummary",
					"name": "",
					"type": "tuple"
				}
			],
			"stateMutability": "view",
			"type": "function"
		},
		{
			"inputs": [
				{
					"internalType": "uint256",
					"name": "index",
					"type": "uint256"
				}
			],
			"name": "stakingPackage",
			"outputs": [
				{
					"internalType": "uint256",
					"name": "",
					"type": "uint256"
				}
			],
			"stateMutability": "view",
			"type": "function"
		},
		{
			"inputs": [],
			"name": "stratPartner",
			"outputs": [
				{
					"internalType": "contract MultiLockable",
					"name": "",
					"type": "address"
				}
			],
			"stateMutability": "view",
			"type": "function"
		},
		{
			"inputs": [],
			"name": "strategicPartnerLockedWallet",
			"outputs": [
				{
					"internalType": "contract MultiLockable",
					"name": "",
					"type": "address"
				}
			],
			"stateMutability": "view",
			"type": "function"
		},
		{
			"inputs": [],
			"name": "symbol",
			"outputs": [
				{
					"internalType": "string",
					"name": "",
					"type": "string"
				}
			],
			"stateMutability": "view",
			"type": "function"
		},
		{
			"inputs": [],
			"name": "taxFee",
			"outputs": [
				{
					"internalType": "uint256",
					"name": "",
					"type": "uint256"
				}
			],
			"stateMutability": "view",
			"type": "function"
		},
		{
			"inputs": [],
			"name": "teamAndProject",
			"outputs": [
				{
					"internalType": "contract Lockable",
					"name": "",
					"type": "address"
				}
			],
			"stateMutability": "view",
			"type": "function"
		},
		{
			"inputs": [],
			"name": "teamAndProjectCoordinatorLockedWallet",
			"outputs": [
				{
					"internalType": "contract Lockable",
					"name": "",
					"type": "address"
				}
			],
			"stateMutability": "view",
			"type": "function"
		},
		{
			"inputs": [],
			"name": "totalSupply",
			"outputs": [
				{
					"internalType": "uint256",
					"name": "",
					"type": "uint256"
				}
			],
			"stateMutability": "view",
			"type": "function"
		},
		{
			"inputs": [
				{
					"internalType": "address",
					"name": "recipient",
					"type": "address"
				},
				{
					"internalType": "uint256",
					"name": "amount",
					"type": "uint256"
				}
			],
			"name": "transfer",
			"outputs": [
				{
					"internalType": "bool",
					"name": "",
					"type": "bool"
				}
			],
			"stateMutability": "nonpayable",
			"type": "function"
		},
		{
			"inputs": [
				{
					"internalType": "address",
					"name": "sender",
					"type": "address"
				},
				{
					"internalType": "address",
					"name": "recipient",
					"type": "address"
				},
				{
					"internalType": "uint256",
					"name": "amount",
					"type": "uint256"
				}
			],
			"name": "transferFrom",
			"outputs": [
				{
					"internalType": "bool",
					"name": "",
					"type": "bool"
				}
			],
			"stateMutability": "nonpayable",
			"type": "function"
		},
		{
			"inputs": [
				{
					"internalType": "address",
					"name": "newOwner",
					"type": "address"
				}
			],
			"name": "transferOwnership",
			"outputs": [],
			"stateMutability": "nonpayable",
			"type": "function"
		},
		{
			"inputs": [],
			"name": "unlockDevPoolWallet",
			"outputs": [],
			"stateMutability": "nonpayable",
			"type": "function"
		},
		{
			"inputs": [],
			"name": "unlockTeamAndProjectCoordinatorWallet",
			"outputs": [],
			"stateMutability": "nonpayable",
			"type": "function"
		},
		{
			"inputs": [
				{
					"internalType": "uint256",
					"name": "stake_index",
					"type": "uint256"
				}
			],
			"name": "withdrawAllStake",
			"outputs": [],
			"stateMutability": "nonpayable",
			"type": "function"
		},
		{
			"inputs": [
				{
					"internalType": "uint256",
					"name": "amount",
					"type": "uint256"
				},
				{
					"internalType": "uint256",
					"name": "stake_index",
					"type": "uint256"
				}
			],
			"name": "withdrawStake",
			"outputs": [],
			"stateMutability": "nonpayable",
			"type": "function"
		},
		{
			"stateMutability": "payable",
			"type": "receive"
		}
	]
}