{
	"data": {
		"bytecode": {
			"linkReferences": {},
			"object": "60806040523480156200001157600080fd5b50604080518082018252600881526754414c415845554d60c01b6020808301918252835180850190945260058452640a8829882b60db1b9084015281519192916200005f91600391620009e7565b50805162000075906004906020840190620009e7565b505050620000926200008c6200088860201b60201c565b6200088c565b6008805460010181556000819052600f60065560646007556aadb53acfa41aee12000000600c55604080518082019091528181526754414c415845554d60c01b6020909101908152620000e991600d9190620009e7565b50604080518082019091526005808252640a8829882b60db1b60209092019182526200011891600e91620009e7565b506011805460057ffa18c77e99faae395f7e78ed5b478ce64a566cc9bf461e9225d5f70cb0596a615560067fafb78f5c7d31c63d0f7b8389234aa223209814fcce21b1b4f8889b22105420d95560077f72baae902643af84dc72318fef3054012311d37cc79473cabab868a94e7ff9605560087fef5cd1ea91cfd4277d8323272c5d273077cde1c3418abc2cfea8fcb78a0e8a7955601280546001600160a01b03199081167307a20dc6722563783e44ba8edca08c774621125e17825560138054821673f09f65dd4d229e991901669ad7c7549f060e30b9179055601480548216731a2118e056d6af192e233c2c9cfb34e067ded1f817905560158054821673126974fa373267d86fab6d6871afe62ccb68e810179055601680548216732f838cf0df38b2e91e747a01ddae5ebad5558b7a1790556017805482167345094071c4daaf6a9a73b0a0f095a2b138bd8a3a17905560188054821673aeb26fb84d0e2b3b353cd50f0a29fd40c916d2ab17905560198054821673e61e7a7d16db384433e532fb85724e7f3bdaae2f179055601a8054821673406605eb24a97a2d61b516d8d850f2aefa6a731a179055601b80549091167397620deadc98bc8173303686037ce7b986cf53c317905576267dbc62f9f431107fb968ac5dea7fba6f0b05140001016001600160b81b0319909216919091179091556a0e7cbbd7aa8310ae400000601055306000908152600a60205260408082206a2b6d4eb3e906bb8480000090556a22bdd88fed9efc6a0000007fdfb1d7c0c4075c54677faf06e544dbcf5557d95b2d840ad78616c319b2d70572557375837e79215250c45331b92c35b7be506ed015ac9091526a05c8d34a23da1650a000007f9532779e16713dfd28e6b7f3d5812a23dd7feb8bb04e6dd4c24eb2f48127825c819055915490516001600160a01b039190911690620003ce9062000a76565b9182526001600160a01b03166020820152604001604051809103906000f080158015620003ff573d6000803e3d6000fd5b50601c80546001600160a01b0319166001600160a01b039283161790556013546040516a0b949d854f34fece0000009291909116906200043f9062000a76565b9182526001600160a01b03166020820152604001604051809103906000f08015801562000470573d6000803e3d6000fd5b50601d80546001600160a01b0319166001600160a01b039283161790556014546040516a0b949d854f34fece000000929190911690620004b09062000a76565b9182526001600160a01b03166020820152604001604051809103906000f080158015620004e1573d6000803e3d6000fd5b50601e80546001600160a01b0319166001600160a01b039283161790556015546040516a0b949d854f34fece000000929190911690620005219062000a76565b9182526001600160a01b03166020820152604001604051809103906000f08015801562000552573d6000803e3d6000fd5b50601f80546001600160a01b0319166001600160a01b039283161790556016546040516a02e5276153cd3fb3800000929190911690620005929062000a76565b9182526001600160a01b03166020820152604001604051809103906000f080158015620005c3573d6000803e3d6000fd5b50602080546001600160a01b0319166001600160a01b039283161790556017546040516a02e5276153cd3fb3800000929190911690620006039062000a76565b9182526001600160a01b03166020820152604001604051809103906000f08015801562000634573d6000803e3d6000fd5b50602180546001600160a01b0319166001600160a01b039283161790556018546040516a02e5276153cd3fb3800000929190911690620006749062000a76565b9182526001600160a01b03166020820152604001604051809103906000f080158015620006a5573d6000803e3d6000fd5b50602280546001600160a01b0319166001600160a01b039283161790556019546040516a08af7623fb67bf1a800000929190911690620006e59062000a76565b9182526001600160a01b03166020820152604001604051809103906000f08015801562000716573d6000803e3d6000fd5b50602380546001600160a01b0319166001600160a01b03928316179055601a546040516a08af7623fb67bf1a800000929190911690620007569062000a76565b9182526001600160a01b03166020820152604001604051809103906000f08015801562000787573d6000803e3d6000fd5b50602480546001600160a01b0319166001600160a01b03928316179055601b546040516a08af7623fb67bf1a800000929190911690620007c79062000a76565b9182526001600160a01b03166020820152604001604051809103906000f080158015620007f8573d6000803e3d6000fd5b50602560006101000a8154816001600160a01b0302191690836001600160a01b03160217905550620008616a8247ec1bbb14328d800000604051806060016040528060328152602001620062b160329139600c54620008de60201b62001e5e179092919060201c565b600c556011546200088290630100000090046001600160a01b031662000916565b62000b30565b3390565b600580546001600160a01b038381166001600160a01b0319831681179093556040519116919082907f8be0079c531659141344cd1fd0a4f28419497f9722a3daafe3b4186f6b6457e090600090a35050565b600081848411156200090e5760405162461bcd60e51b815260040162000905919062000a9b565b60405180910390fd5b505050900390565b6005546001600160a01b03163314620009725760405162461bcd60e51b815260206004820181905260248201527f4f776e61626c653a2063616c6c6572206973206e6f7420746865206f776e6572604482015260640162000905565b6001600160a01b038116620009d95760405162461bcd60e51b815260206004820152602660248201527f4f776e61626c653a206e6577206f776e657220697320746865207a65726f206160448201526564647265737360d01b606482015260840162000905565b620009e4816200088c565b50565b828054620009f59062000af3565b90600052602060002090601f01602090048101928262000a19576000855562000a64565b82601f1062000a3457805160ff191683800117855562000a64565b8280016001018555821562000a64579182015b8281111562000a6457825182559160200191906001019062000a47565b5062000a7292915062000a84565b5090565b61063b8062005c7683390190565b5b8082111562000a72576000815560010162000a85565b600060208083528351808285015260005b8181101562000aca5785810183015185820160400152820162000aac565b8181111562000add576000604083870101525b50601f01601f1916929092016040019392505050565b600181811c9082168062000b0857607f821691505b6020821081141562000b2a57634e487b7160e01b600052602260045260246000fd5b50919050565b6151368062000b406000396000f3fe6080604052600436106102e85760003560e01c8063883d998411610190578063adf3364c116100dc578063d94d4ad611610095578063eb9f4ac71161006f578063eb9f4ac71461085f578063f1fdf46914610874578063f2fde38b14610894578063f729b00f146108b4576102f8565b8063d94d4ad6146107ff578063dd62ed3e1461081f578063e73e14bf1461083f576102f8565b8063adf3364c14610748578063b09d4b4e14610768578063b8b18e8914610795578063bea8e46b146107aa578063d4dca69b146107cc578063d5dbdf1b146107df576102f8565b806390a4c70911610149578063a071dcf411610123578063a071dcf4146106ca578063a169c515146106e8578063a457c2d714610708578063a9059cbb14610728576102f8565b806390a4c7091461068b578063934851ec146106a057806395d89b41146106b5576102f8565b8063883d9984146105cb57806388566374146105e05780638902cd7014610600578063893d20e8146106205780638c63f97f1461064d5780638da5cb5b1461066d576102f8565b80633f3ef2dc1161024f57806370a08231116102085780637b0472f0116101e25780637b0472f0146105675780637cb85214146105875780638378a875146105a157806384f3996d146105b6576102f8565b806370a08231146104fc578063715018a61461053257806379cc679014610547576102f8565b80633f3ef2dc1461047d57806340c10f191461049257806342966c68146104b257806348b15166146103e657806356029137146104d25780635b88349d146104e7576102f8565b806323b872dd116102a157806323b872dd146103c65780632e5a1c2c146103e6578063313ce567146103f957806339509351146104155780633b124fe7146104355780633dc10ad414610468576102f8565b806306f200bd1461030157806306fdde031461032a578063095ea7b31461034c5780630e1b09ed1461037c57806315441bb91461039c57806318160ddd146103b1576102f8565b366102f8576102f6346108d4565b005b6102f6346108d4565b34801561030d57600080fd5b5061031760105481565b6040519081526020015b60405180910390f35b34801561033657600080fd5b5061033f610992565b6040516103219190614c3c565b34801561035857600080fd5b5061036c610367366004614ca6565b610a24565b6040519015158152602001610321565b34801561038857600080fd5b506102f6610397366004614cd2565b610a3e565b3480156103a857600080fd5b506102f6610b01565b3480156103bd57600080fd5b50600c54610317565b3480156103d257600080fd5b5061036c6103e1366004614ceb565b610c53565b3480156103f257600080fd5b5042610317565b34801561040557600080fd5b5060405160128152602001610321565b34801561042157600080fd5b5061036c610430366004614ca6565b610c77565b34801561044157600080fd5b5060115461045590610100900461ffff1681565b60405161ffff9091168152602001610321565b34801561047457600080fd5b50600654610317565b34801561048957600080fd5b506102f6610c99565b34801561049e57600080fd5b506102f66104ad366004614ca6565b610d5c565b3480156104be57600080fd5b506102f66104cd366004614cd2565b610d94565b3480156104de57600080fd5b506102f6610da6565b3480156104f357600080fd5b506102f6610e69565b34801561050857600080fd5b50610317610517366004614d2c565b6001600160a01b03166000908152600a602052604090205490565b34801561053e57600080fd5b506102f6610f17565b34801561055357600080fd5b506102f6610562366004614ca6565b610f4d565b34801561057357600080fd5b506102f6610582366004614d49565b610f62565b34801561059357600080fd5b5060115461036c9060ff1681565b3480156105ad57600080fd5b506102f66110ad565b3480156105c257600080fd5b506102f6611162565b3480156105d757600080fd5b506102f6611225565b3480156105ec57600080fd5b506103176105fb366004614ca6565b6112e8565b34801561060c57600080fd5b506102f661061b366004614d6b565b6112fb565b34801561062c57600080fd5b5061063561137a565b6040516001600160a01b039091168152602001610321565b34801561065957600080fd5b506102f6610668366004614cd2565b61138e565b34801561067957600080fd5b506005546001600160a01b0316610635565b34801561069757600080fd5b506102f66113c1565b3480156106ac57600080fd5b506102f6611484565b3480156106c157600080fd5b5061033f611547565b3480156106d657600080fd5b50601154610100900461ffff16610317565b3480156106f457600080fd5b506102f6610703366004614cd2565b611556565b34801561071457600080fd5b5061036c610723366004614ca6565b6115e4565b34801561073457600080fd5b5061036c610743366004614ca6565b61165f565b34801561075457600080fd5b506102f6610763366004614d8f565b61166d565b34801561077457600080fd5b50610788610783366004614d2c565b6116da565b6040516103219190614db1565b3480156107a157600080fd5b506102f66117f4565b3480156107b657600080fd5b50306000908152600a6020526040902054610317565b3480156107d857600080fd5b5030610635565b3480156107eb57600080fd5b506102f66107fa366004614cd2565b6118b7565b34801561080b57600080fd5b506102f661081a366004614cd2565b6118ea565b34801561082b57600080fd5b5061031761083a366004614e51565b611967565b34801561084b57600080fd5b5061078861085a366004614d2c565b611992565b34801561086b57600080fd5b506102f6611b9b565b34801561088057600080fd5b506102f661088f366004614d49565b611c5e565b3480156108a057600080fd5b506102f66108af366004614d2c565b611d13565b3480156108c057600080fd5b506102f66108cf366004614cd2565b611dab565b60006108e1826003611e8a565b6019546001600160a01b03166000908152600a60205260409020549091506109099082611e96565b6019546001600160a01b039081166000908152600a602052604080822093909355601a549091168152205461093e9082611e96565b601a546001600160a01b039081166000908152600a602052604080822093909355601b54909116815220546109739082611e96565b601b546001600160a01b03166000908152600a60205260409020555050565b6060600d80546109a190614e8a565b80601f01602080910402602001604051908101604052809291908181526020018280546109cd90614e8a565b8015610a1a5780601f106109ef57610100808354040283529160200191610a1a565b820191906000526020600020905b8154815290600101906020018083116109fd57829003601f168201915b5050505050905090565b600033610a32818585611ea2565b60019150505b92915050565b6005546001600160a01b03163314610a715760405162461bcd60e51b8152600401610a6890614ec5565b60405180910390fd5b6010548110610ade5760405162461bcd60e51b815260206004820152603360248201527f54616c6178546f6b656e3a20416d6f756e74206275726e74206c6172676572206044820152721d1a185b8814dd185ada5b99c814995dd85c99606a1b6064820152608401610a68565b601054610aeb9082611fc7565b601055600c54610afb9082611fc7565b600c5550565b602160009054906101000a90046001600160a01b03166001600160a01b03166338af3eed6040518163ffffffff1660e01b8152600401602060405180830381865afa158015610b54573d6000803e3d6000fd5b505050506040513d601f19601f82011682018060405250810190610b789190614efa565b6001600160a01b0316336001600160a01b031614610ba85760405162461bcd60e51b8152600401610a6890614f17565b6021546000906001600160a01b031663c8100dcc610bc4611fd3565b6040518263ffffffff1660e01b8152600401610be09190614f4e565b6020604051808303816000875af1158015610bff573d6000803e3d6000fd5b505050506040513d601f19601f82011682018060405250810190610c239190614f80565b336000908152600a6020526040902054909150610c409082611e96565b336000908152600a602052604090205550565b600033610c6185828561239c565b610c6c858585612416565b506001949350505050565b600033610a32818585610c8a8383611967565b610c949190614faf565b611ea2565b602560009054906101000a90046001600160a01b03166001600160a01b03166338af3eed6040518163ffffffff1660e01b8152600401602060405180830381865afa158015610cec573d6000803e3d6000fd5b505050506040513d601f19601f82011682018060405250810190610d109190614efa565b6001600160a01b0316336001600160a01b031614610d405760405162461bcd60e51b8152600401610a6890614f17565b6025546000906001600160a01b031663c8100dcc610bc4612764565b6005546001600160a01b03163314610d865760405162461bcd60e51b8152600401610a6890614ec5565b610d908282612a5d565b5050565b610d9e3382612b3c565b50565b905090565b602360009054906101000a90046001600160a01b03166001600160a01b03166338af3eed6040518163ffffffff1660e01b8152600401602060405180830381865afa158015610df9573d6000803e3d6000fd5b505050506040513d601f19601f82011682018060405250810190610e1d9190614efa565b6001600160a01b0316336001600160a01b031614610e4d5760405162461bcd60e51b8152600401610a6890614f17565b6023546000906001600160a01b031663c8100dcc610bc4612c82565b60115460ff161515600114610ecc5760405162461bcd60e51b8152602060048201526024808201527f54616c6178546f6b656e3a2041697264726f70206973206e6f7420617661696c60448201526361626c6560e01b6064820152608401610a68565b6000610ed733612f26565b306000908152600a6020526040902054909150610ef49082611fc7565b306000908152600a6020526040808220929092553381522054610c409082611e96565b6005546001600160a01b03163314610f415760405162461bcd60e51b8152600401610a6890614ec5565b610f4b60006130ff565b565b610f5882338361239c565b610d908282612b3c565b8062278d001480610f755750806276a700145b80610f8257508062ed4e00145b80610f905750806301e13380145b610fe85760405162461bcd60e51b8152602060048201526024808201527f54616c6178546f6b656e3a205374616b696e67206f7074696f6e206e6f7420656044820152631e1a5cdd60e21b6064820152608401610a68565b336000908152600a602052604090205482106110595760405162461bcd60e51b815260206004820152602a60248201527f54616c6178546f6b656e3a2043616e6e6f74207374616b65206d6f7265207468604482015269616e2062616c616e636560b01b6064820152608401610a68565b6000818152600f60205260409020546110759083908390613151565b61107f3383612b3c565b306000908152600a60205260409020546110999083611e96565b306000908152600a60205260409020555050565b60208054604080516338af3eed60e01b815290516001600160a01b03909216926338af3eed926004808401938290030181865afa1580156110f2573d6000803e3d6000fd5b505050506040513d601f19601f820116820180604052508101906111169190614efa565b6001600160a01b0316336001600160a01b0316146111465760405162461bcd60e51b8152600401610a6890614f17565b6020546000906001600160a01b031663c8100dcc610bc4611fd3565b601f60009054906101000a90046001600160a01b03166001600160a01b03166338af3eed6040518163ffffffff1660e01b8152600401602060405180830381865afa1580156111b5573d6000803e3d6000fd5b505050506040513d601f19601f820116820180604052508101906111d99190614efa565b6001600160a01b0316336001600160a01b0316146112095760405162461bcd60e51b8152600401610a6890614f17565b601f546000906001600160a01b031663c8100dcc610bc46132fe565b602260009054906101000a90046001600160a01b03166001600160a01b03166338af3eed6040518163ffffffff1660e01b8152600401602060405180830381865afa158015611278573d6000803e3d6000fd5b505050506040513d601f19601f8201168201806040525081019061129c9190614efa565b6001600160a01b0316336001600160a01b0316146112cc5760405162461bcd60e51b8152600401610a6890614f17565b6022546000906001600160a01b031663c8100dcc610bc46136c0565b60006112f48383613a82565b9392505050565b6005546001600160a01b031633146113255760405162461bcd60e51b8152600401610a6890614ec5565b6011805462ffff00191661010061ffff84169081029190911790915560405190815233907fdf92943b31fff67e8447ff9fa8b5e226ddcc5fb34d36cfe120c0f2b96eb8d6f7906020015b60405180910390a250565b6000610da16005546001600160a01b031690565b6005546001600160a01b031633146113b85760405162461bcd60e51b8152600401610a6890614ec5565b610d9e81613b56565b602460009054906101000a90046001600160a01b03166001600160a01b03166338af3eed6040518163ffffffff1660e01b8152600401602060405180830381865afa158015611414573d6000803e3d6000fd5b505050506040513d601f19601f820116820180604052508101906114389190614efa565b6001600160a01b0316336001600160a01b0316146114685760405162461bcd60e51b8152600401610a6890614f17565b6024546000906001600160a01b031663c8100dcc610bc4612c82565b601c60009054906101000a90046001600160a01b03166001600160a01b03166338af3eed6040518163ffffffff1660e01b8152600401602060405180830381865afa1580156114d7573d6000803e3d6000fd5b505050506040513d601f19601f820116820180604052508101906114fb9190614efa565b6001600160a01b0316336001600160a01b03161461152b5760405162461bcd60e51b8152600401610a6890614f17565b601c546000906001600160a01b031663c8100dcc610bc4613bfa565b6060600e80546109a190614e8a565b6005546001600160a01b031633146115805760405162461bcd60e51b8152600401610a6890614ec5565b806115c75760405162461bcd60e51b81526020600482015260176024820152760416d6f756e74206d696e742063616e6e6f74206265203604c1b6044820152606401610a68565b6010546115d49082611e96565b601055600c54610afb9082611e96565b600033816115f28286611967565b9050838110156116525760405162461bcd60e51b815260206004820152602560248201527f45524332303a2064656372656173656420616c6c6f77616e63652062656c6f77604482015264207a65726f60d81b6064820152608401610a68565b610c6c8286868403611ea2565b600033610a32818585612416565b6005546001600160a01b031633146116975760405162461bcd60e51b8152600401610a6890614ec5565b6011805460ff191682151590811790915560405190815233907fe596a4fd4ba2e7f54093d98b96267c6b0dbae1e317bed8123d9fbc868c0283779060200161136f565b6040805180820190915260008152606060208201526000604051806040016040528060008152602001600860096000876001600160a01b03166001600160a01b03168152602001908152602001600020548154811061173b5761173b614fc7565b9060005260206000209060030201600201805480602002602001604051908101604052809291908181526020016000905b828210156117e75760008481526020908190206040805160e0810182526007860290920180546001600160a01b03168352600180820154848601526002820154928401929092526003810154606084015260048101546080840152600581015460a08401526006015460c0830152908352909201910161176c565b5050509152509392505050565b601d60009054906101000a90046001600160a01b03166001600160a01b03166338af3eed6040518163ffffffff1660e01b8152600401602060405180830381865afa158015611847573d6000803e3d6000fd5b505050506040513d601f19601f8201168201806040525081019061186b9190614efa565b6001600160a01b0316336001600160a01b03161461189b5760405162461bcd60e51b8152600401610a6890614f17565b601d546000906001600160a01b031663c8100dcc610bc4613e3a565b6005546001600160a01b031633146118e15760405162461bcd60e51b8152600401610a6890614ec5565b610d9e816141fc565b6005546001600160a01b031633146119145760405162461bcd60e51b8152600401610a6890614ec5565b6000811161195e5760405162461bcd60e51b81526020600482015260176024820152760416d6f756e74206d696e742063616e6e6f74206265203604c1b6044820152606401610a68565b610d9e816142a1565b6001600160a01b039182166000908152600b6020908152604080832093909416825291909152205490565b604080518082019091526000815260606020820152600080604051806040016040528060008152602001600860096000886001600160a01b03166001600160a01b0316815260200190815260200160002054815481106119f4576119f4614fc7565b9060005260206000209060030201600201805480602002602001604051908101604052809291908181526020016000905b82821015611aa05760008481526020908190206040805160e0810182526007860290920180546001600160a01b03168352600180820154848601526002820154928401929092526003810154606084015260048101546080840152600581015460a08401526006015460c08301529083529092019101611a25565b505050915250602081015151909150611acb5760405162461bcd60e51b8152600401610a6890614fdd565b60005b816020015151811015611b91576000611b2583602001518381518110611af657611af6614fc7565b602002602001015184602001518481518110611b1457611b14614fc7565b6020026020010151602001516142d8565b90508083602001518381518110611b3e57611b3e614fc7565b6020026020010151606001818152505082602001518281518110611b6457611b64614fc7565b60200260200101516020015184611b7b9190614faf565b9350611b8a9050600182614faf565b9050611ace565b5090815292915050565b601e60009054906101000a90046001600160a01b03166001600160a01b03166338af3eed6040518163ffffffff1660e01b8152600401602060405180830381865afa158015611bee573d6000803e3d6000fd5b505050506040513d601f19601f82011682018060405250810190611c129190614efa565b6001600160a01b0316336001600160a01b031614611c425760405162461bcd60e51b8152600401610a6890614f17565b601e546000906001600160a01b031663c8100dcc610bc4613e3a565b600080611c6b848461432b565b91509150611c78816142a1565b306000908152600a6020526040902054611c929083611fc7565b306000908152600a60205260409020819055611cae9082611fc7565b306000908152600a6020526040902055611cc88183614faf565b600c6000828254611cd99190614faf565b90915550611ce990508183614faf565b336000908152600a602052604081208054909190611d08908490614faf565b909155505050505050565b6005546001600160a01b03163314611d3d5760405162461bcd60e51b8152600401610a6890614ec5565b6001600160a01b038116611da25760405162461bcd60e51b815260206004820152602660248201527f4f776e61626c653a206e6577206f776e657220697320746865207a65726f206160448201526564647265737360d01b6064820152608401610a68565b610d9e816130ff565b600080611db7836147c1565b91509150611dc4816142a1565b306000908152600a6020526040902054611dde9083611fc7565b306000908152600a60205260409020819055611dfa9082611fc7565b306000908152600a6020526040902055611e148183614faf565b600c6000828254611e259190614faf565b90915550611e3590508183614faf565b336000908152600a602052604081208054909190611e54908490614faf565b9091555050505050565b60008184841115611e825760405162461bcd60e51b8152600401610a689190614c3c565b505050900390565b60006112f48284615042565b60006112f48284614faf565b6001600160a01b038316611f045760405162461bcd60e51b8152602060048201526024808201527f45524332303a20617070726f76652066726f6d20746865207a65726f206164646044820152637265737360e01b6064820152608401610a68565b6001600160a01b038216611f655760405162461bcd60e51b815260206004820152602260248201527f45524332303a20617070726f766520746f20746865207a65726f206164647265604482015261737360f01b6064820152608401610a68565b6001600160a01b0383811660008181526001602090815260408083209487168084529482529182902085905590518481527f8c5be1e5ebec7d5bd14f71427d1e84f3dd0314c0f7b2291e5b200ac8c7c3b92591015b60405180910390a3505050565b60006112f48284615064565b611fdb614c1d565b604051806105600160405280611ffc62051615670de0b6b3a7640000614a41565b815260200160008152602001600081526020016000815260200161202b62051615670de0b6b3a7640000614a41565b8152602001600081526020016000815260200161205362051615670de0b6b3a7640000614a41565b8152602001600081526020016000815260200161207b62051615670de0b6b3a7640000614a41565b815260200160008152602001600081526020016120a362011a1e670de0b6b3a7640000614a41565b81526020016120bd62011a1e670de0b6b3a7640000614a41565b81526020016120d762011a1e670de0b6b3a7640000614a41565b81526020016120f162011a1e670de0b6b3a7640000614a41565b815260200161210b62011a1e670de0b6b3a7640000614a41565b815260200161212562011a1e670de0b6b3a7640000614a41565b815260200161213f62011a1e670de0b6b3a7640000614a41565b815260200161215962011a1e670de0b6b3a7640000614a41565b815260200161217362011a1e670de0b6b3a7640000614a41565b815260200161218d62011a1e670de0b6b3a7640000614a41565b81526020016121a762011a1e670de0b6b3a7640000614a41565b81526020016121c162011a1e670de0b6b3a7640000614a41565b81526020016121db62011a1e670de0b6b3a7640000614a41565b81526020016121f562011a1e670de0b6b3a7640000614a41565b815260200161220f62011a1e670de0b6b3a7640000614a41565b815260200161222962011a1e670de0b6b3a7640000614a41565b815260200161224362011a1e670de0b6b3a7640000614a41565b815260200161225d62011a1e670de0b6b3a7640000614a41565b815260200161227762011a1e670de0b6b3a7640000614a41565b815260200161229162011a1e670de0b6b3a7640000614a41565b81526020016122ab62011a1e670de0b6b3a7640000614a41565b81526020016122c562011a1e670de0b6b3a7640000614a41565b81526020016122df62011a1e670de0b6b3a7640000614a41565b81526020016122f962011a1e670de0b6b3a7640000614a41565b815260200161231362011a1e670de0b6b3a7640000614a41565b815260200161232d62011a1e670de0b6b3a7640000614a41565b815260200161234762011a1e670de0b6b3a7640000614a41565b815260200161236162011a1e670de0b6b3a7640000614a41565b815260200161237b62011a1e670de0b6b3a7640000614a41565b815260200161239562011a1e670de0b6b3a7640000614a41565b9052919050565b60006123a88484611967565b9050600019811461241057818110156124035760405162461bcd60e51b815260206004820152601d60248201527f45524332303a20696e73756666696369656e7420616c6c6f77616e63650000006044820152606401610a68565b6124108484848403611ea2565b50505050565b6001600160a01b03831661246c5760405162461bcd60e51b815260206004820152601d60248201527f54616c6178546f6b656e3a2066726f6d207a65726f20616464726573730000006044820152606401610a68565b6001600160a01b0382166124c25760405162461bcd60e51b815260206004820152601b60248201527f54616c6178546f6b656e3a20746f207a65726f206164647265737300000000006044820152606401610a68565b6001600160a01b0383166000908152600a60205260409020548181101561253f5760405162461bcd60e51b815260206004820152602b60248201527f54616c6178546f6b656e3a207472616e7366657220616d6f756e74206578636560448201526a6564732062616c616e636560a81b6064820152608401610a68565b6011546000906125649061255d908590610100900461ffff16614a41565b6064611e8a565b905060006125728483611fc7565b9050600061259561258e836125896002600a611e8a565b614a41565b6003611e8a565b905060006125a9836125896008600a611e8a565b6019546001600160a01b03166000908152600a60205260409020549091506125d19083611e96565b6019546001600160a01b039081166000908152600a602052604080822093909355601a54909116815220546126069083611e96565b601a546001600160a01b039081166000908152600a602052604080822093909355601b549091168152205461263b9083611e96565b601b546001600160a01b03166000908152600a60205260408082209290925530815220546126699082611e96565b600a6000306001600160a01b03166001600160a01b03168152602001908152602001600020819055506126cf866040518060600160405280602481526020016150dd602491396001600160a01b038b166000908152600a60205260409020549190611e5e565b6001600160a01b03808a166000908152600a602052604080822093909355908916815220546126fe9084611e96565b6001600160a01b038089166000818152600a602052604090819020939093559151908a16907fddf252ad1be2c89b69c2b068fc378daa952ba7f163c4a11628f55a4df523b3ef906127529087815260200190565b60405180910390a35050505050505050565b61276c614c1d565b60405180610560016040528061278d6211cd4a670de0b6b3a7640000614a41565b81526020016000815260200160008152602001600081526020016127bc62989680670de0b6b3a7640000614a41565b815260200160008152602001600081526020016127e462989680670de0b6b3a7640000614a41565b8152602001600081526020016000815260200161280c62989680670de0b6b3a7640000614a41565b8152602001600081526020016000815260200161283462051616670de0b6b3a7640000614a41565b815260200161284e62051616670de0b6b3a7640000614a41565b815260200161286862051616670de0b6b3a7640000614a41565b815260200161288262051616670de0b6b3a7640000614a41565b815260200161289c62051616670de0b6b3a7640000614a41565b81526020016128b662051616670de0b6b3a7640000614a41565b81526020016128d062051616670de0b6b3a7640000614a41565b81526020016128ea62051616670de0b6b3a7640000614a41565b815260200161290462051616670de0b6b3a7640000614a41565b815260200161291e62051616670de0b6b3a7640000614a41565b815260200161293862051616670de0b6b3a7640000614a41565b815260200161295262051616670de0b6b3a7640000614a41565b815260200161296c62051616670de0b6b3a7640000614a41565b815260200161298662051616670de0b6b3a7640000614a41565b81526020016129a062051616670de0b6b3a7640000614a41565b81526020016129ba62051616670de0b6b3a7640000614a41565b81526020016129d462051616670de0b6b3a7640000614a41565b81526020016129ee62051616670de0b6b3a7640000614a41565b8152602001612a0862051616670de0b6b3a7640000614a41565b8152602001600081526020016000815260200160008152602001600081526020016000815260200160008152602001600081526020016000815260200160008152602001600081526020016000815250905090565b6001600160a01b038216612ab35760405162461bcd60e51b815260206004820152601f60248201527f45524332303a206d696e7420746f20746865207a65726f2061646472657373006044820152606401610a68565b8060026000828254612ac59190614faf565b90915550506001600160a01b03821660009081526020819052604081208054839290612af2908490614faf565b90915550506040518181526001600160a01b038316906000907fddf252ad1be2c89b69c2b068fc378daa952ba7f163c4a11628f55a4df523b3ef9060200160405180910390a35050565b6001600160a01b038216612b9c5760405162461bcd60e51b815260206004820152602160248201527f45524332303a206275726e2066726f6d20746865207a65726f206164647265736044820152607360f81b6064820152608401610a68565b6001600160a01b0382166000908152600a602052604090205481811015612c105760405162461bcd60e51b815260206004820152602260248201527f45524332303a206275726e20616d6f756e7420657863656564732062616c616e604482015261636560f01b6064820152608401610a68565b6001600160a01b0383166000908152600a602052604081208383039055600c8054849290612c3f908490615064565b90915550506040518281526000906001600160a01b038516907fddf252ad1be2c89b69c2b068fc378daa952ba7f163c4a11628f55a4df523b3ef90602001611fba565b612c8a614c1d565b604051806105600160405280612cab6211cd4b670de0b6b3a7640000614a41565b8152602001600081526020016000815260200160008152602001612cda620f4240670de0b6b3a7640000614a41565b81526020016000815260200160008152602001612d02620f4240670de0b6b3a7640000614a41565b81526020016000815260200160008152602001612d2a620f4240670de0b6b3a7640000614a41565b81526020016000815260200160008152602001612d5262051615670de0b6b3a7640000614a41565b8152602001612d6c62051615670de0b6b3a7640000614a41565b8152602001612d8662051615670de0b6b3a7640000614a41565b8152602001612da062051615670de0b6b3a7640000614a41565b8152602001612dba62051615670de0b6b3a7640000614a41565b8152602001612dd462051615670de0b6b3a7640000614a41565b8152602001612dee62051615670de0b6b3a7640000614a41565b8152602001612e0862051615670de0b6b3a7640000614a41565b8152602001612e2262051615670de0b6b3a7640000614a41565b8152602001612e3c62051615670de0b6b3a7640000614a41565b8152602001612e5662051615670de0b6b3a7640000614a41565b8152602001612e7062051615670de0b6b3a7640000614a41565b8152602001612e8a62051615670de0b6b3a7640000614a41565b8152602001612ea462051615670de0b6b3a7640000614a41565b8152602001612ebe62051615670de0b6b3a7640000614a41565b8152602001612ed862051615670de0b6b3a7640000614a41565b8152602001612ef262051615670de0b6b3a7640000614a41565b8152602001612f0c62051615670de0b6b3a7640000614a41565b8152602001612a0862051615670de0b6b3a7640000614a41565b6001600160a01b0381166000908152600960205260408120546008805483928392918110612f5657612f56614fc7565b906000526020600020906003020190506000612f856224ea00836001015442612f7f9190615064565b90611e8a565b90506001811015612ffe5760405162461bcd60e51b815260206004820152603960248201527f5374616b61626c653a2041697264726f702063616e206f6e6c7920626520636c60448201527f61696d656420696e2061206d6f6e74682074696d657370616e000000000000006064820152608401610a68565b600282015461301f5760405162461bcd60e51b8152600401610a6890614fdd565b60005b60028301548110156130f057600083600201828154811061304557613045614fc7565b90600052602060002090600702016001015411613061576130de565b6000606460075485600201848154811061307d5761307d614fc7565b906000526020600020906007020160010154613099919061507b565b6130a39190615042565b90506130af8186614faf565b9450808460020183815481106130c7576130c7614fc7565b906000526020600020906007020160040181905550505b806130e88161509a565b915050613022565b50504260019091015592915050565b600580546001600160a01b038381166001600160a01b0319831681179093556040519116919082907f8be0079c531659141344cd1fd0a4f28419497f9722a3daafe3b4186f6b6457e090600090a35050565b600083116131a15760405162461bcd60e51b815260206004820152601e60248201527f5374616b61626c653a2043616e6e6f74207374616b65206e6f7468696e6700006044820152606401610a68565b3360009081526009602052604090205442816131c3576131c033614a4d565b91505b600882815481106131d6576131d6614fc7565b90600052602060002090600302016002016040518060e00160405280336001600160a01b031681526020018781526020018381526020016000815260200160008152602001858152602001838761322d9190614faf565b90528154600180820184556000938452602093849020835160079093020180546001600160a01b0319166001600160a01b03909316929092178255928201519281019290925560408101516002830155606081015160038301556080810151600483015560a0810151600583015560c00151600690910155337f9cfd25589d1eb8ad71e342a86a8524e83522e3936c0803048c08f6d9ad974f408684846132d4818a614faf565b60408051948552602085019390935291830152606082015260800160405180910390a25050505050565b613306614c1d565b604051806105600160405280613327620f4240670de0b6b3a7640000614a41565b8152602001600081526020016000815260200160008152602001613356620f4240670de0b6b3a7640000614a41565b8152602001600081526020016000815260200161337e620f4240670de0b6b3a7640000614a41565b815260200160008152602001600081526020016133a6620f4240670de0b6b3a7640000614a41565b815260200160008152602001600081526020016133ce62051616670de0b6b3a7640000614a41565b81526020016133e862051616670de0b6b3a7640000614a41565b815260200161340262051616670de0b6b3a7640000614a41565b815260200161341c62051616670de0b6b3a7640000614a41565b815260200161343662051616670de0b6b3a7640000614a41565b815260200161345062051616670de0b6b3a7640000614a41565b815260200161346a62051616670de0b6b3a7640000614a41565b815260200161348462051616670de0b6b3a7640000614a41565b815260200161349e62051616670de0b6b3a7640000614a41565b81526020016134b862051616670de0b6b3a7640000614a41565b81526020016134d262051616670de0b6b3a7640000614a41565b81526020016134ec62051616670de0b6b3a7640000614a41565b815260200161350662051616670de0b6b3a7640000614a41565b815260200161352062051616670de0b6b3a7640000614a41565b815260200161353a62051616670de0b6b3a7640000614a41565b815260200161355462051616670de0b6b3a7640000614a41565b815260200161356e62051616670de0b6b3a7640000614a41565b815260200161358862051616670de0b6b3a7640000614a41565b81526020016135a262051616670de0b6b3a7640000614a41565b81526020016135bc62051616670de0b6b3a7640000614a41565b81526020016135d662051616670de0b6b3a7640000614a41565b81526020016135f062051616670de0b6b3a7640000614a41565b815260200161360a62051616670de0b6b3a7640000614a41565b815260200161362462051616670de0b6b3a7640000614a41565b815260200161363e62051616670de0b6b3a7640000614a41565b815260200161365862051616670de0b6b3a7640000614a41565b815260200161367262051616670de0b6b3a7640000614a41565b815260200161368c62051616670de0b6b3a7640000614a41565b81526020016136a662051616670de0b6b3a7640000614a41565b815260200161239562051616670de0b6b3a7640000614a41565b6136c8614c1d565b6040518061056001604052806136e962051616670de0b6b3a7640000614a41565b815260200160008152602001600081526020016000815260200161371862051616670de0b6b3a7640000614a41565b8152602001600081526020016000815260200161374062051616670de0b6b3a7640000614a41565b8152602001600081526020016000815260200161376862051616670de0b6b3a7640000614a41565b8152602001600081526020016000815260200161379062011a1f670de0b6b3a7640000614a41565b81526020016137aa62011a1f670de0b6b3a7640000614a41565b81526020016137c462011a1f670de0b6b3a7640000614a41565b81526020016137de62011a1f670de0b6b3a7640000614a41565b81526020016137f862011a1f670de0b6b3a7640000614a41565b815260200161381262011a1f670de0b6b3a7640000614a41565b815260200161382c62011a1f670de0b6b3a7640000614a41565b815260200161384662011a1f670de0b6b3a7640000614a41565b815260200161386062011a1f670de0b6b3a7640000614a41565b815260200161387a62011a1f670de0b6b3a7640000614a41565b815260200161389462011a1f670de0b6b3a7640000614a41565b81526020016138ae62011a1f670de0b6b3a7640000614a41565b81526020016138c862011a1f670de0b6b3a7640000614a41565b81526020016138e262011a1f670de0b6b3a7640000614a41565b81526020016138fc62011a1f670de0b6b3a7640000614a41565b815260200161391662011a1f670de0b6b3a7640000614a41565b815260200161393062011a1f670de0b6b3a7640000614a41565b815260200161394a62011a1f670de0b6b3a7640000614a41565b815260200161396462011a1f670de0b6b3a7640000614a41565b815260200161397e62011a1f670de0b6b3a7640000614a41565b815260200161399862011a1f670de0b6b3a7640000614a41565b81526020016139b262011a1f670de0b6b3a7640000614a41565b81526020016139cc62011a1f670de0b6b3a7640000614a41565b81526020016139e662011a1f670de0b6b3a7640000614a41565b8152602001613a0062011a1f670de0b6b3a7640000614a41565b8152602001613a1a62011a1f670de0b6b3a7640000614a41565b8152602001613a3462011a1f670de0b6b3a7640000614a41565b8152602001613a4e62011a1f670de0b6b3a7640000614a41565b8152602001613a6862011a1f670de0b6b3a7640000614a41565b815260200161239562011a1f670de0b6b3a7640000614a41565b6001600160a01b0382166000908152600960205260408120546008805483919083908110613ab257613ab2614fc7565b90600052602060002090600302016002018481548110613ad457613ad4614fc7565b60009182526020918290206040805160e081018252600790930290910180546001600160a01b0316835260018101549383019390935260028301549082018190526003830154606083015260048301546080830152600583015460a083015260069092015460c08201819052909250613b4d9190615064565b95945050505050565b601e811115613bbe5760405162461bcd60e51b815260206004820152602e60248201527f5374616b61626c653a2050656e616c7479206665652063616e6e6f742065786360448201526d32b2b21019903832b931b2b73a1760911b6064820152608401610a68565b60068190556040518181527fcfa4f4cf1cd64d13a167a8e75605e0c0c9d6700e903d17c5dc11f593254a04a9906020015b60405180910390a150565b613c02614c1d565b60405180610560016040528060008152602001600081526020016000815260200160008152602001600081526020016000815260200160008152602001613c53674563918244f40000611b51611e8a565b8152602001613c6c674563918244f40000611b51611e8a565b8152602001613c85674563918244f40000611b51611e8a565b8152602001613c9e674563918244f40000611b51611e8a565b8152602001613cb7674563918244f40000611b51611e8a565b8152602001613cd0674563918244f40000611b51611e8a565b8152602001613ce9674563918244f40000611b51611e8a565b8152602001613d02674563918244f40000611b51611e8a565b8152602001613d1b674563918244f40000611b51611e8a565b8152602001613d34674563918244f40000611b51611e8a565b8152602001613d4d674563918244f40000611b51611e8a565b8152602001613d66674563918244f40000611b51611e8a565b8152602001613d7f674563918244f40000611b51611e8a565b8152602001613d9867446ae0e136ad0000611b51611e8a565b81526020016000815260200160008152602001600081526020016000815260200160008152602001600081526020016000815260200160008152602001600081526020016000815260200160008152602001600081526020016000815260200160008152602001600081526020016000815260200160008152602001600081526020016000815260200160008152602001600081526020016000815250905090565b613e42614c1d565b604051806105600160405280613e63620f4240670de0b6b3a7640000614a41565b8152602001600081526020016000815260200160008152602001613e92620f4240670de0b6b3a7640000614a41565b81526020016000815260200160008152602001613eba620f4240670de0b6b3a7640000614a41565b81526020016000815260200160008152602001613ee2620f4240670de0b6b3a7640000614a41565b81526020016000815260200160008152602001613f0a62051615670de0b6b3a7640000614a41565b8152602001613f2462051615670de0b6b3a7640000614a41565b8152602001613f3e62051615670de0b6b3a7640000614a41565b8152602001613f5862051615670de0b6b3a7640000614a41565b8152602001613f7262051615670de0b6b3a7640000614a41565b8152602001613f8c62051615670de0b6b3a7640000614a41565b8152602001613fa662051615670de0b6b3a7640000614a41565b8152602001613fc062051615670de0b6b3a7640000614a41565b8152602001613fda62051615670de0b6b3a7640000614a41565b8152602001613ff462051615670de0b6b3a7640000614a41565b815260200161400e62051615670de0b6b3a7640000614a41565b815260200161402862051615670de0b6b3a7640000614a41565b815260200161404262051615670de0b6b3a7640000614a41565b815260200161405c62051615670de0b6b3a7640000614a41565b815260200161407662051615670de0b6b3a7640000614a41565b815260200161409062051615670de0b6b3a7640000614a41565b81526020016140aa62051615670de0b6b3a7640000614a41565b81526020016140c462051615670de0b6b3a7640000614a41565b81526020016140de62051615670de0b6b3a7640000614a41565b81526020016140f862051615670de0b6b3a7640000614a41565b815260200161411262051615670de0b6b3a7640000614a41565b815260200161412c62051615670de0b6b3a7640000614a41565b815260200161414662051615670de0b6b3a7640000614a41565b815260200161416062051615670de0b6b3a7640000614a41565b815260200161417a62051615670de0b6b3a7640000614a41565b815260200161419462051615670de0b6b3a7640000614a41565b81526020016141ae62051615670de0b6b3a7640000614a41565b81526020016141c862051615670de0b6b3a7640000614a41565b81526020016141e262051615670de0b6b3a7640000614a41565b815260200161239562051615670de0b6b3a7640000614a41565b60c881111561426c5760405162461bcd60e51b815260206004820152603660248201527f5374616b61626c653a2041697264726f702050657263656e746167652063616e6044820152753737ba1032bc31b2b2b2101918103832b931b2b73a1760511b6064820152608401610a68565b60078190556040518181527fcc672f1026b958c0cfbfdd89ebe8ddcbc127f16ec24da6c2c7a4de26a8b1857e90602001613bef565b306000908152600a60205260409020546142bb9082611e96565b306000908152600a6020526040902055600c54610afb9082611e96565b60008260200151600014156142ef57506000610a38565b6a52b7d2dcc80cd2e40000006143088460400151614aff565b60a0850151614317908561507b565b614321919061507b565b6112f49190615042565b336000908152600960205260408120546008805483929183918390811061435457614354614fc7565b9060005260206000209060030201600201858154811061437657614376614fc7565b9060005260206000209060070201905085816001015410156143f65760405162461bcd60e51b815260206004820152603360248201527f5374616b61626c653a2043616e6e6f74207769746864726177206d6f726520746044820152721a185b881e5bdd481a185d99481cdd185ad959606a1b6064820152608401610a68565b6040805160e08101825282546001600160a01b03168152600183015460208201526002830154918101919091526003820154606082015260048201546080820152600582015460a0820152600682015460c082015260009061445890886142d8565b90506000826002015483600601546144709190615064565b9050428360060154101561462357878360010160008282546144929190615064565b9091555050600183015461451e57600884815481106144b3576144b3614fc7565b906000526020600020906003020160020187815481106144d5576144d5614fc7565b60009182526020822060079091020180546001600160a01b031916815560018101829055600281018290556003810182905560048101829055600581018290556006015561460c565b82600101546008858154811061453657614536614fc7565b9060005260206000209060030201600201888154811061455857614558614fc7565b906000526020600020906007020160010181905550426008858154811061458157614581614fc7565b906000526020600020906003020160020188815481106145a3576145a3614fc7565b60009182526020909120600260079092020101556145c18142614faf565b600885815481106145d4576145d4614fc7565b906000526020600020906003020160020188815481106145f6576145f6614fc7565b9060005260206000209060070201600601819055505b6146168883614b94565b95509550505050506147ba565b878360010160008282546146379190615064565b909155505060018301546146c3576008848154811061465857614658614fc7565b9060005260206000209060030201600201878154811061467a5761467a614fc7565b60009182526020822060079091020180546001600160a01b03191681556001810182905560028101829055600381018290556004810182905560058101829055600601556147b1565b8260010154600885815481106146db576146db614fc7565b906000526020600020906003020160020188815481106146fd576146fd614fc7565b906000526020600020906007020160010181905550426008858154811061472657614726614fc7565b9060005260206000209060030201600201888154811061474857614748614fc7565b60009182526020909120600260079092020101556147668142614faf565b6008858154811061477957614779614fc7565b9060005260206000209060030201600201888154811061479b5761479b614fc7565b9060005260206000209060070201600601819055505b50869450925050505b9250929050565b33600090815260096020526040812054600880548392918391839081106147ea576147ea614fc7565b9060005260206000209060030201600201858154811061480c5761480c614fc7565b9060005260206000209060070201905060008160010154116148a05760405162461bcd60e51b815260206004820152604160248201527f5374616b61626c653a2043616e6e6f742077697468647261772c20796f75206460448201527f6f6e2774206861766520616e79207374616b6520696e207468697320496e64656064820152600f60fb1b608482015260a401610a68565b60018101546040805160e08101825283546001600160a01b03168152602081018390526002840154918101919091526003830154606082015260048301546080820152600583015460a0820152600683015460c082015260009061490490836142d8565b905042836006015410156149bc57818360010160008282546149269190615064565b9091555050600880548590811061493f5761493f614fc7565b9060005260206000209060030201600201878154811061496157614961614fc7565b60009182526020822060079091020180546001600160a01b03191681556001810182905560028101829055600381018290556004810182905560058101829055600601556149af8282614b94565b9550955050505050915091565b600884815481106149cf576149cf614fc7565b906000526020600020906003020160020187815481106149f1576149f1614fc7565b60009182526020822060079091020180546001600160a01b031916815560018101829055600281018290556003810182905560048101829055600581018290556006015590969095509350505050565b60006112f4828461507b565b60088054600190810180835560009283528291614a6991615064565b90508260088281548110614a7f57614a7f614fc7565b906000526020600020906003020160000160006101000a8154816001600160a01b0302191690836001600160a01b031602179055504260088281548110614ac857614ac8614fc7565b60009182526020808320600160039093020191909101929092556001600160a01b0390941684526009905260409092208290555090565b6000808211614b505760405162461bcd60e51b815260206004820152601b60248201527f5374616b61626c653a204572726f722074696d657374616d70203000000000006044820152606401610a68565b610a38614b5d8342615064565b614b719069d3c21bcecceda100000061507b565b6301e133806040518060600160405280602781526020016150b660279139614be3565b60008083614ba7575060009050806147ba565b614bc284614bbd866125896006546103e8611e8a565b611fc7565b614bd884614bbd866125896006546103e8611e8a565b915091509250929050565b60008183614c045760405162461bcd60e51b8152600401610a689190614c3c565b50828481614c1457614c1461502c565b04949350505050565b604051806105600160405280602b906020820280368337509192915050565b600060208083528351808285015260005b81811015614c6957858101830151858201604001528201614c4d565b81811115614c7b576000604083870101525b50601f01601f1916929092016040019392505050565b6001600160a01b0381168114610d9e57600080fd5b60008060408385031215614cb957600080fd5b8235614cc481614c91565b946020939093013593505050565b600060208284031215614ce457600080fd5b5035919050565b600080600060608486031215614d0057600080fd5b8335614d0b81614c91565b92506020840135614d1b81614c91565b929592945050506040919091013590565b600060208284031215614d3e57600080fd5b81356112f481614c91565b60008060408385031215614d5c57600080fd5b50508035926020909101359150565b600060208284031215614d7d57600080fd5b813561ffff811681146112f457600080fd5b600060208284031215614da157600080fd5b813580151581146112f457600080fd5b6000602080835260608084018551838601528286015160408081880152828251808552608094508489019150868401935060005b81811015614e4257845180516001600160a01b03168452888101518985015284810151858501528781015188850152868101518785015260a0808201519085015260c090810151908401529387019360e090920191600101614de5565b50909998505050505050505050565b60008060408385031215614e6457600080fd5b8235614e6f81614c91565b91506020830135614e7f81614c91565b809150509250929050565b600181811c90821680614e9e57607f821691505b60208210811415614ebf57634e487b7160e01b600052602260045260246000fd5b50919050565b6020808252818101527f4f776e61626c653a2063616c6c6572206973206e6f7420746865206f776e6572604082015260600190565b600060208284031215614f0c57600080fd5b81516112f481614c91565b6020808252601d908201527f54616c6178546f6b656e3a2057616c6c6574204f776e6572204f6e6c79000000604082015260600190565b6105608101818360005b602b811015614f77578151835260209283019290910190600101614f58565b50505092915050565b600060208284031215614f9257600080fd5b5051919050565b634e487b7160e01b600052601160045260246000fd5b60008219821115614fc257614fc2614f99565b500190565b634e487b7160e01b600052603260045260246000fd5b6020808252602f908201527f5374616b61626c653a2054686973206164647265737320646f6573206e6f742060408201526e6861766520616e79207374616b657360881b606082015260800190565b634e487b7160e01b600052601260045260246000fd5b60008261505f57634e487b7160e01b600052601260045260246000fd5b500490565b60008282101561507657615076614f99565b500390565b600081600019048311821515161561509557615095614f99565b500290565b60006000198214156150ae576150ae614f99565b506001019056fe5374616b61626c653a204572726f722063616e6e6f74206469766964652074696d657374616d7054616c6178546f6b656e3a207472616e7366657220657863656564732062616c616e6365a264697066735822122095598f5afac7e2d467c2efa92fb372c809f9d0a02b109e5549243cfada8e917b64736f6c634300080b003360a060405234801561001057600080fd5b5060405161063b38038061063b83398101604081905261002f916100c0565b600082116100935760405162461bcd60e51b815260206004820152602760248201527f4c6f636b61626c653a20416d6f756e74206d7573742067726561746572207468604482015266616e207a65726f60c81b606482015260840160405180910390fd5b6000919091556001600160a01b031660805242600255600180546001600160a01b031916331790556100fd565b600080604083850312156100d357600080fd5b825160208401519092506001600160a01b03811681146100f257600080fd5b809150509250929050565b6080516105246101176000396000605e01526105246000f3fe608060405234801561001057600080fd5b50600436106100575760003560e01c806338af3eed1461005c57806367e404ce1461009b5780638da5cb5b146100a1578063aa8c217c146100b4578063c8100dcc146100c6575b600080fd5b7f00000000000000000000000000000000000000000000000000000000000000005b6040516001600160a01b0390911681526020015b60405180910390f35b3361007e565b60015461007e906001600160a01b031681565b6000545b604051908152602001610092565b6100b86100d436600461033e565b6001546000906001600160a01b031633146101545760405162461bcd60e51b815260206004820152603560248201527f4c6f636b61626c653a2063616c6c6572206861766520746f2062652054616c616044820152741e151bdad95b8814db585c9d0810dbdb9d1c9858dd605a1b60648201526084015b60405180910390fd5b60008054116101a55760405162461bcd60e51b815260206004820152601860248201527f4c6f636b61626c653a206e6f20746f6b656e73206c6566740000000000000000604482015260640161014b565b60006101b083610230565b9050600081116102025760405162461bcd60e51b815260206004820152601e60248201527f4c6f636b61626c653a206e6f20746f6b656e7320746f2072656c656173650000604482015260640161014b565b610227600054826040518060600160405280603681526020016104b960369139610306565b60005592915050565b60008062278d006002544261024591906103e1565b61024f91906103f8565b6003549091506000905b82811161029457610280828683602b81106102765761027661041a565b6020020151610332565b91508061028c81610430565b915050610259565b506102a082600161044b565b600355806102ff5760405162461bcd60e51b815260206004820152602660248201527f4c6f636b61626c653a2054686572652773206e6f7468696e6720746f20636c616044820152651a5b481e595d60d21b606482015260840161014b565b9392505050565b6000818484111561032a5760405162461bcd60e51b815260040161014b9190610463565b505050900390565b60006102ff828461044b565b600061056080838503121561035257600080fd5b83601f84011261036157600080fd5b60405181810181811067ffffffffffffffff8211171561039157634e487b7160e01b600052604160045260246000fd5b6040529083019080858311156103a657600080fd5b845b838110156103c05780358252602091820191016103a8565b509095945050505050565b634e487b7160e01b600052601160045260246000fd5b6000828210156103f3576103f36103cb565b500390565b60008261041557634e487b7160e01b600052601260045260246000fd5b500490565b634e487b7160e01b600052603260045260246000fd5b6000600019821415610444576104446103cb565b5060010190565b6000821982111561045e5761045e6103cb565b500190565b600060208083528351808285015260005b8181101561049057858101830151858201604001528201610474565b818111156104a2576000604083870101525b50601f01601f191692909201604001939250505056fe4c6f636b61626c653a2043616e6e6f742073756273747261637420746f74616c20616d6f756e74207769746820636c61696d61626c65a26469706673582212208ae41d264929b1f2fe40202f18adb54e645a86577d3acbb84a9df4f2743f6e2e64736f6c634300080b003354616c6178546f6b656e3a2043616e6e6f74207472616e73666572206d6f7265207468616e20746f74616c20737570706c79",
			"opcodes": "PUSH1 0x80 PUSH1 0x40 MSTORE CALLVALUE DUP1 ISZERO PUSH3 0x11 JUMPI PUSH1 0x0 DUP1 REVERT JUMPDEST POP PUSH1 0x40 DUP1 MLOAD DUP1 DUP3 ADD DUP3 MSTORE PUSH1 0x8 DUP2 MSTORE PUSH8 0x54414C415845554D PUSH1 0xC0 SHL PUSH1 0x20 DUP1 DUP4 ADD SWAP2 DUP3 MSTORE DUP4 MLOAD DUP1 DUP6 ADD SWAP1 SWAP5 MSTORE PUSH1 0x5 DUP5 MSTORE PUSH5 0xA8829882B PUSH1 0xDB SHL SWAP1 DUP5 ADD MSTORE DUP2 MLOAD SWAP2 SWAP3 SWAP2 PUSH3 0x5F SWAP2 PUSH1 0x3 SWAP2 PUSH3 0x9E7 JUMP JUMPDEST POP DUP1 MLOAD PUSH3 0x75 SWAP1 PUSH1 0x4 SWAP1 PUSH1 0x20 DUP5 ADD SWAP1 PUSH3 0x9E7 JUMP JUMPDEST POP POP POP PUSH3 0x92 PUSH3 0x8C PUSH3 0x888 PUSH1 0x20 SHL PUSH1 0x20 SHR JUMP JUMPDEST PUSH3 0x88C JUMP JUMPDEST PUSH1 0x8 DUP1 SLOAD PUSH1 0x1 ADD DUP2 SSTORE PUSH1 0x0 DUP2 SWAP1 MSTORE PUSH1 0xF PUSH1 0x6 SSTORE PUSH1 0x64 PUSH1 0x7 SSTORE PUSH11 0xADB53ACFA41AEE12000000 PUSH1 0xC SSTORE PUSH1 0x40 DUP1 MLOAD DUP1 DUP3 ADD SWAP1 SWAP2 MSTORE DUP2 DUP2 MSTORE PUSH8 0x54414C415845554D PUSH1 0xC0 SHL PUSH1 0x20 SWAP1 SWAP2 ADD SWAP1 DUP2 MSTORE PUSH3 0xE9 SWAP2 PUSH1 0xD SWAP2 SWAP1 PUSH3 0x9E7 JUMP JUMPDEST POP PUSH1 0x40 DUP1 MLOAD DUP1 DUP3 ADD SWAP1 SWAP2 MSTORE PUSH1 0x5 DUP1 DUP3 MSTORE PUSH5 0xA8829882B PUSH1 0xDB SHL PUSH1 0x20 SWAP1 SWAP3 ADD SWAP2 DUP3 MSTORE PUSH3 0x118 SWAP2 PUSH1 0xE SWAP2 PUSH3 0x9E7 JUMP JUMPDEST POP PUSH1 0x11 DUP1 SLOAD PUSH1 0x5 PUSH32 0xFA18C77E99FAAE395F7E78ED5B478CE64A566CC9BF461E9225D5F70CB0596A61 SSTORE PUSH1 0x6 PUSH32 0xAFB78F5C7D31C63D0F7B8389234AA223209814FCCE21B1B4F8889B22105420D9 SSTORE PUSH1 0x7 PUSH32 0x72BAAE902643AF84DC72318FEF3054012311D37CC79473CABAB868A94E7FF960 SSTORE PUSH1 0x8 PUSH32 0xEF5CD1EA91CFD4277D8323272C5D273077CDE1C3418ABC2CFEA8FCB78A0E8A79 SSTORE PUSH1 0x12 DUP1 SLOAD PUSH1 0x1 PUSH1 0x1 PUSH1 0xA0 SHL SUB NOT SWAP1 DUP2 AND PUSH20 0x7A20DC6722563783E44BA8EDCA08C774621125E OR DUP3 SSTORE PUSH1 0x13 DUP1 SLOAD DUP3 AND PUSH20 0xF09F65DD4D229E991901669AD7C7549F060E30B9 OR SWAP1 SSTORE PUSH1 0x14 DUP1 SLOAD DUP3 AND PUSH20 0x1A2118E056D6AF192E233C2C9CFB34E067DED1F8 OR SWAP1 SSTORE PUSH1 0x15 DUP1 SLOAD DUP3 AND PUSH20 0x126974FA373267D86FAB6D6871AFE62CCB68E810 OR SWAP1 SSTORE PUSH1 0x16 DUP1 SLOAD DUP3 AND PUSH20 0x2F838CF0DF38B2E91E747A01DDAE5EBAD5558B7A OR SWAP1 SSTORE PUSH1 0x17 DUP1 SLOAD DUP3 AND PUSH20 0x45094071C4DAAF6A9A73B0A0F095A2B138BD8A3A OR SWAP1 SSTORE PUSH1 0x18 DUP1 SLOAD DUP3 AND PUSH20 0xAEB26FB84D0E2B3B353CD50F0A29FD40C916D2AB OR SWAP1 SSTORE PUSH1 0x19 DUP1 SLOAD DUP3 AND PUSH20 0xE61E7A7D16DB384433E532FB85724E7F3BDAAE2F OR SWAP1 SSTORE PUSH1 0x1A DUP1 SLOAD DUP3 AND PUSH20 0x406605EB24A97A2D61B516D8D850F2AEFA6A731A OR SWAP1 SSTORE PUSH1 0x1B DUP1 SLOAD SWAP1 SWAP2 AND PUSH20 0x97620DEADC98BC8173303686037CE7B986CF53C3 OR SWAP1 SSTORE PUSH23 0x267DBC62F9F431107FB968AC5DEA7FBA6F0B0514000101 PUSH1 0x1 PUSH1 0x1 PUSH1 0xB8 SHL SUB NOT SWAP1 SWAP3 AND SWAP2 SWAP1 SWAP2 OR SWAP1 SWAP2 SSTORE PUSH11 0xE7CBBD7AA8310AE400000 PUSH1 0x10 SSTORE ADDRESS PUSH1 0x0 SWAP1 DUP2 MSTORE PUSH1 0xA PUSH1 0x20 MSTORE PUSH1 0x40 DUP1 DUP3 KECCAK256 PUSH11 0x2B6D4EB3E906BB84800000 SWAP1 SSTORE PUSH11 0x22BDD88FED9EFC6A000000 PUSH32 0xDFB1D7C0C4075C54677FAF06E544DBCF5557D95B2D840AD78616C319B2D70572 SSTORE PUSH20 0x75837E79215250C45331B92C35B7BE506ED015AC SWAP1 SWAP2 MSTORE PUSH11 0x5C8D34A23DA1650A00000 PUSH32 0x9532779E16713DFD28E6B7F3D5812A23DD7FEB8BB04E6DD4C24EB2F48127825C DUP2 SWAP1 SSTORE SWAP2 SLOAD SWAP1 MLOAD PUSH1 0x1 PUSH1 0x1 PUSH1 0xA0 SHL SUB SWAP2 SWAP1 SWAP2 AND SWAP1 PUSH3 0x3CE SWAP1 PUSH3 0xA76 JUMP JUMPDEST SWAP2 DUP3 MSTORE PUSH1 0x1 PUSH1 0x1 PUSH1 0xA0 SHL SUB AND PUSH1 0x20 DUP3 ADD MSTORE PUSH1 0x40 ADD PUSH1 0x40 MLOAD DUP1 SWAP2 SUB SWAP1 PUSH1 0x0 CREATE DUP1 ISZERO DUP1 ISZERO PUSH3 0x3FF JUMPI RETURNDATASIZE PUSH1 0x0 DUP1 RETURNDATACOPY RETURNDATASIZE PUSH1 0x0 REVERT JUMPDEST POP PUSH1 0x1C DUP1 SLOAD PUSH1 0x1 PUSH1 0x1 PUSH1 0xA0 SHL SUB NOT AND PUSH1 0x1 PUSH1 0x1 PUSH1 0xA0 SHL SUB SWAP3 DUP4 AND OR SWAP1 SSTORE PUSH1 0x13 SLOAD PUSH1 0x40 MLOAD PUSH11 0xB949D854F34FECE000000 SWAP3 SWAP2 SWAP1 SWAP2 AND SWAP1 PUSH3 0x43F SWAP1 PUSH3 0xA76 JUMP JUMPDEST SWAP2 DUP3 MSTORE PUSH1 0x1 PUSH1 0x1 PUSH1 0xA0 SHL SUB AND PUSH1 0x20 DUP3 ADD MSTORE PUSH1 0x40 ADD PUSH1 0x40 MLOAD DUP1 SWAP2 SUB SWAP1 PUSH1 0x0 CREATE DUP1 ISZERO DUP1 ISZERO PUSH3 0x470 JUMPI RETURNDATASIZE PUSH1 0x0 DUP1 RETURNDATACOPY RETURNDATASIZE PUSH1 0x0 REVERT JUMPDEST POP PUSH1 0x1D DUP1 SLOAD PUSH1 0x1 PUSH1 0x1 PUSH1 0xA0 SHL SUB NOT AND PUSH1 0x1 PUSH1 0x1 PUSH1 0xA0 SHL SUB SWAP3 DUP4 AND OR SWAP1 SSTORE PUSH1 0x14 SLOAD PUSH1 0x40 MLOAD PUSH11 0xB949D854F34FECE000000 SWAP3 SWAP2 SWAP1 SWAP2 AND SWAP1 PUSH3 0x4B0 SWAP1 PUSH3 0xA76 JUMP JUMPDEST SWAP2 DUP3 MSTORE PUSH1 0x1 PUSH1 0x1 PUSH1 0xA0 SHL SUB AND PUSH1 0x20 DUP3 ADD MSTORE PUSH1 0x40 ADD PUSH1 0x40 MLOAD DUP1 SWAP2 SUB SWAP1 PUSH1 0x0 CREATE DUP1 ISZERO DUP1 ISZERO PUSH3 0x4E1 JUMPI RETURNDATASIZE PUSH1 0x0 DUP1 RETURNDATACOPY RETURNDATASIZE PUSH1 0x0 REVERT JUMPDEST POP PUSH1 0x1E DUP1 SLOAD PUSH1 0x1 PUSH1 0x1 PUSH1 0xA0 SHL SUB NOT AND PUSH1 0x1 PUSH1 0x1 PUSH1 0xA0 SHL SUB SWAP3 DUP4 AND OR SWAP1 SSTORE PUSH1 0x15 SLOAD PUSH1 0x40 MLOAD PUSH11 0xB949D854F34FECE000000 SWAP3 SWAP2 SWAP1 SWAP2 AND SWAP1 PUSH3 0x521 SWAP1 PUSH3 0xA76 JUMP JUMPDEST SWAP2 DUP3 MSTORE PUSH1 0x1 PUSH1 0x1 PUSH1 0xA0 SHL SUB AND PUSH1 0x20 DUP3 ADD MSTORE PUSH1 0x40 ADD PUSH1 0x40 MLOAD DUP1 SWAP2 SUB SWAP1 PUSH1 0x0 CREATE DUP1 ISZERO DUP1 ISZERO PUSH3 0x552 JUMPI RETURNDATASIZE PUSH1 0x0 DUP1 RETURNDATACOPY RETURNDATASIZE PUSH1 0x0 REVERT JUMPDEST POP PUSH1 0x1F DUP1 SLOAD PUSH1 0x1 PUSH1 0x1 PUSH1 0xA0 SHL SUB NOT AND PUSH1 0x1 PUSH1 0x1 PUSH1 0xA0 SHL SUB SWAP3 DUP4 AND OR SWAP1 SSTORE PUSH1 0x16 SLOAD PUSH1 0x40 MLOAD PUSH11 0x2E5276153CD3FB3800000 SWAP3 SWAP2 SWAP1 SWAP2 AND SWAP1 PUSH3 0x592 SWAP1 PUSH3 0xA76 JUMP JUMPDEST SWAP2 DUP3 MSTORE PUSH1 0x1 PUSH1 0x1 PUSH1 0xA0 SHL SUB AND PUSH1 0x20 DUP3 ADD MSTORE PUSH1 0x40 ADD PUSH1 0x40 MLOAD DUP1 SWAP2 SUB SWAP1 PUSH1 0x0 CREATE DUP1 ISZERO DUP1 ISZERO PUSH3 0x5C3 JUMPI RETURNDATASIZE PUSH1 0x0 DUP1 RETURNDATACOPY RETURNDATASIZE PUSH1 0x0 REVERT JUMPDEST POP PUSH1 0x20 DUP1 SLOAD PUSH1 0x1 PUSH1 0x1 PUSH1 0xA0 SHL SUB NOT AND PUSH1 0x1 PUSH1 0x1 PUSH1 0xA0 SHL SUB SWAP3 DUP4 AND OR SWAP1 SSTORE PUSH1 0x17 SLOAD PUSH1 0x40 MLOAD PUSH11 0x2E5276153CD3FB3800000 SWAP3 SWAP2 SWAP1 SWAP2 AND SWAP1 PUSH3 0x603 SWAP1 PUSH3 0xA76 JUMP JUMPDEST SWAP2 DUP3 MSTORE PUSH1 0x1 PUSH1 0x1 PUSH1 0xA0 SHL SUB AND PUSH1 0x20 DUP3 ADD MSTORE PUSH1 0x40 ADD PUSH1 0x40 MLOAD DUP1 SWAP2 SUB SWAP1 PUSH1 0x0 CREATE DUP1 ISZERO DUP1 ISZERO PUSH3 0x634 JUMPI RETURNDATASIZE PUSH1 0x0 DUP1 RETURNDATACOPY RETURNDATASIZE PUSH1 0x0 REVERT JUMPDEST POP PUSH1 0x21 DUP1 SLOAD PUSH1 0x1 PUSH1 0x1 PUSH1 0xA0 SHL SUB NOT AND PUSH1 0x1 PUSH1 0x1 PUSH1 0xA0 SHL SUB SWAP3 DUP4 AND OR SWAP1 SSTORE PUSH1 0x18 SLOAD PUSH1 0x40 MLOAD PUSH11 0x2E5276153CD3FB3800000 SWAP3 SWAP2 SWAP1 SWAP2 AND SWAP1 PUSH3 0x674 SWAP1 PUSH3 0xA76 JUMP JUMPDEST SWAP2 DUP3 MSTORE PUSH1 0x1 PUSH1 0x1 PUSH1 0xA0 SHL SUB AND PUSH1 0x20 DUP3 ADD MSTORE PUSH1 0x40 ADD PUSH1 0x40 MLOAD DUP1 SWAP2 SUB SWAP1 PUSH1 0x0 CREATE DUP1 ISZERO DUP1 ISZERO PUSH3 0x6A5 JUMPI RETURNDATASIZE PUSH1 0x0 DUP1 RETURNDATACOPY RETURNDATASIZE PUSH1 0x0 REVERT JUMPDEST POP PUSH1 0x22 DUP1 SLOAD PUSH1 0x1 PUSH1 0x1 PUSH1 0xA0 SHL SUB NOT AND PUSH1 0x1 PUSH1 0x1 PUSH1 0xA0 SHL SUB SWAP3 DUP4 AND OR SWAP1 SSTORE PUSH1 0x19 SLOAD PUSH1 0x40 MLOAD PUSH11 0x8AF7623FB67BF1A800000 SWAP3 SWAP2 SWAP1 SWAP2 AND SWAP1 PUSH3 0x6E5 SWAP1 PUSH3 0xA76 JUMP JUMPDEST SWAP2 DUP3 MSTORE PUSH1 0x1 PUSH1 0x1 PUSH1 0xA0 SHL SUB AND PUSH1 0x20 DUP3 ADD MSTORE PUSH1 0x40 ADD PUSH1 0x40 MLOAD DUP1 SWAP2 SUB SWAP1 PUSH1 0x0 CREATE DUP1 ISZERO DUP1 ISZERO PUSH3 0x716 JUMPI RETURNDATASIZE PUSH1 0x0 DUP1 RETURNDATACOPY RETURNDATASIZE PUSH1 0x0 REVERT JUMPDEST POP PUSH1 0x23 DUP1 SLOAD PUSH1 0x1 PUSH1 0x1 PUSH1 0xA0 SHL SUB NOT AND PUSH1 0x1 PUSH1 0x1 PUSH1 0xA0 SHL SUB SWAP3 DUP4 AND OR SWAP1 SSTORE PUSH1 0x1A SLOAD PUSH1 0x40 MLOAD PUSH11 0x8AF7623FB67BF1A800000 SWAP3 SWAP2 SWAP1 SWAP2 AND SWAP1 PUSH3 0x756 SWAP1 PUSH3 0xA76 JUMP JUMPDEST SWAP2 DUP3 MSTORE PUSH1 0x1 PUSH1 0x1 PUSH1 0xA0 SHL SUB AND PUSH1 0x20 DUP3 ADD MSTORE PUSH1 0x40 ADD PUSH1 0x40 MLOAD DUP1 SWAP2 SUB SWAP1 PUSH1 0x0 CREATE DUP1 ISZERO DUP1 ISZERO PUSH3 0x787 JUMPI RETURNDATASIZE PUSH1 0x0 DUP1 RETURNDATACOPY RETURNDATASIZE PUSH1 0x0 REVERT JUMPDEST POP PUSH1 0x24 DUP1 SLOAD PUSH1 0x1 PUSH1 0x1 PUSH1 0xA0 SHL SUB NOT AND PUSH1 0x1 PUSH1 0x1 PUSH1 0xA0 SHL SUB SWAP3 DUP4 AND OR SWAP1 SSTORE PUSH1 0x1B SLOAD PUSH1 0x40 MLOAD PUSH11 0x8AF7623FB67BF1A800000 SWAP3 SWAP2 SWAP1 SWAP2 AND SWAP1 PUSH3 0x7C7 SWAP1 PUSH3 0xA76 JUMP JUMPDEST SWAP2 DUP3 MSTORE PUSH1 0x1 PUSH1 0x1 PUSH1 0xA0 SHL SUB AND PUSH1 0x20 DUP3 ADD MSTORE PUSH1 0x40 ADD PUSH1 0x40 MLOAD DUP1 SWAP2 SUB SWAP1 PUSH1 0x0 CREATE DUP1 ISZERO DUP1 ISZERO PUSH3 0x7F8 JUMPI RETURNDATASIZE PUSH1 0x0 DUP1 RETURNDATACOPY RETURNDATASIZE PUSH1 0x0 REVERT JUMPDEST POP PUSH1 0x25 PUSH1 0x0 PUSH2 0x100 EXP DUP2 SLOAD DUP2 PUSH1 0x1 PUSH1 0x1 PUSH1 0xA0 SHL SUB MUL NOT AND SWAP1 DUP4 PUSH1 0x1 PUSH1 0x1 PUSH1 0xA0 SHL SUB AND MUL OR SWAP1 SSTORE POP PUSH3 0x861 PUSH11 0x8247EC1BBB14328D800000 PUSH1 0x40 MLOAD DUP1 PUSH1 0x60 ADD PUSH1 0x40 MSTORE DUP1 PUSH1 0x32 DUP2 MSTORE PUSH1 0x20 ADD PUSH3 0x62B1 PUSH1 0x32 SWAP2 CODECOPY PUSH1 0xC SLOAD PUSH3 0x8DE PUSH1 0x20 SHL PUSH3 0x1E5E OR SWAP1 SWAP3 SWAP2 SWAP1 PUSH1 0x20 SHR JUMP JUMPDEST PUSH1 0xC SSTORE PUSH1 0x11 SLOAD PUSH3 0x882 SWAP1 PUSH4 0x1000000 SWAP1 DIV PUSH1 0x1 PUSH1 0x1 PUSH1 0xA0 SHL SUB AND PUSH3 0x916 JUMP JUMPDEST PUSH3 0xB30 JUMP JUMPDEST CALLER SWAP1 JUMP JUMPDEST PUSH1 0x5 DUP1 SLOAD PUSH1 0x1 PUSH1 0x1 PUSH1 0xA0 SHL SUB DUP4 DUP2 AND PUSH1 0x1 PUSH1 0x1 PUSH1 0xA0 SHL SUB NOT DUP4 AND DUP2 OR SWAP1 SWAP4 SSTORE PUSH1 0x40 MLOAD SWAP2 AND SWAP2 SWAP1 DUP3 SWAP1 PUSH32 0x8BE0079C531659141344CD1FD0A4F28419497F9722A3DAAFE3B4186F6B6457E0 SWAP1 PUSH1 0x0 SWAP1 LOG3 POP POP JUMP JUMPDEST PUSH1 0x0 DUP2 DUP5 DUP5 GT ISZERO PUSH3 0x90E JUMPI PUSH1 0x40 MLOAD PUSH3 0x461BCD PUSH1 0xE5 SHL DUP2 MSTORE PUSH1 0x4 ADD PUSH3 0x905 SWAP2 SWAP1 PUSH3 0xA9B JUMP JUMPDEST PUSH1 0x40 MLOAD DUP1 SWAP2 SUB SWAP1 REVERT JUMPDEST POP POP POP SWAP1 SUB SWAP1 JUMP JUMPDEST PUSH1 0x5 SLOAD PUSH1 0x1 PUSH1 0x1 PUSH1 0xA0 SHL SUB AND CALLER EQ PUSH3 0x972 JUMPI PUSH1 0x40 MLOAD PUSH3 0x461BCD PUSH1 0xE5 SHL DUP2 MSTORE PUSH1 0x20 PUSH1 0x4 DUP3 ADD DUP2 SWAP1 MSTORE PUSH1 0x24 DUP3 ADD MSTORE PUSH32 0x4F776E61626C653A2063616C6C6572206973206E6F7420746865206F776E6572 PUSH1 0x44 DUP3 ADD MSTORE PUSH1 0x64 ADD PUSH3 0x905 JUMP JUMPDEST PUSH1 0x1 PUSH1 0x1 PUSH1 0xA0 SHL SUB DUP2 AND PUSH3 0x9D9 JUMPI PUSH1 0x40 MLOAD PUSH3 0x461BCD PUSH1 0xE5 SHL DUP2 MSTORE PUSH1 0x20 PUSH1 0x4 DUP3 ADD MSTORE PUSH1 0x26 PUSH1 0x24 DUP3 ADD MSTORE PUSH32 0x4F776E61626C653A206E6577206F776E657220697320746865207A65726F2061 PUSH1 0x44 DUP3 ADD MSTORE PUSH6 0x646472657373 PUSH1 0xD0 SHL PUSH1 0x64 DUP3 ADD MSTORE PUSH1 0x84 ADD PUSH3 0x905 JUMP JUMPDEST PUSH3 0x9E4 DUP2 PUSH3 0x88C JUMP JUMPDEST POP JUMP JUMPDEST DUP3 DUP1 SLOAD PUSH3 0x9F5 SWAP1 PUSH3 0xAF3 JUMP JUMPDEST SWAP1 PUSH1 0x0 MSTORE PUSH1 0x20 PUSH1 0x0 KECCAK256 SWAP1 PUSH1 0x1F ADD PUSH1 0x20 SWAP1 DIV DUP2 ADD SWAP3 DUP3 PUSH3 0xA19 JUMPI PUSH1 0x0 DUP6 SSTORE PUSH3 0xA64 JUMP JUMPDEST DUP3 PUSH1 0x1F LT PUSH3 0xA34 JUMPI DUP1 MLOAD PUSH1 0xFF NOT AND DUP4 DUP1 ADD OR DUP6 SSTORE PUSH3 0xA64 JUMP JUMPDEST DUP3 DUP1 ADD PUSH1 0x1 ADD DUP6 SSTORE DUP3 ISZERO PUSH3 0xA64 JUMPI SWAP2 DUP3 ADD JUMPDEST DUP3 DUP2 GT ISZERO PUSH3 0xA64 JUMPI DUP3 MLOAD DUP3 SSTORE SWAP2 PUSH1 0x20 ADD SWAP2 SWAP1 PUSH1 0x1 ADD SWAP1 PUSH3 0xA47 JUMP JUMPDEST POP PUSH3 0xA72 SWAP3 SWAP2 POP PUSH3 0xA84 JUMP JUMPDEST POP SWAP1 JUMP JUMPDEST PUSH2 0x63B DUP1 PUSH3 0x5C76 DUP4 CODECOPY ADD SWAP1 JUMP JUMPDEST JUMPDEST DUP1 DUP3 GT ISZERO PUSH3 0xA72 JUMPI PUSH1 0x0 DUP2 SSTORE PUSH1 0x1 ADD PUSH3 0xA85 JUMP JUMPDEST PUSH1 0x0 PUSH1 0x20 DUP1 DUP4 MSTORE DUP4 MLOAD DUP1 DUP3 DUP6 ADD MSTORE PUSH1 0x0 JUMPDEST DUP2 DUP2 LT ISZERO PUSH3 0xACA JUMPI DUP6 DUP2 ADD DUP4 ADD MLOAD DUP6 DUP3 ADD PUSH1 0x40 ADD MSTORE DUP3 ADD PUSH3 0xAAC JUMP JUMPDEST DUP2 DUP2 GT ISZERO PUSH3 0xADD JUMPI PUSH1 0x0 PUSH1 0x40 DUP4 DUP8 ADD ADD MSTORE JUMPDEST POP PUSH1 0x1F ADD PUSH1 0x1F NOT AND SWAP3 SWAP1 SWAP3 ADD PUSH1 0x40 ADD SWAP4 SWAP3 POP POP POP JUMP JUMPDEST PUSH1 0x1 DUP2 DUP2 SHR SWAP1 DUP3 AND DUP1 PUSH3 0xB08 JUMPI PUSH1 0x7F DUP3 AND SWAP2 POP JUMPDEST PUSH1 0x20 DUP3 LT DUP2 EQ ISZERO PUSH3 0xB2A JUMPI PUSH4 0x4E487B71 PUSH1 0xE0 SHL PUSH1 0x0 MSTORE PUSH1 0x22 PUSH1 0x4 MSTORE PUSH1 0x24 PUSH1 0x0 REVERT JUMPDEST POP SWAP2 SWAP1 POP JUMP JUMPDEST PUSH2 0x5136 DUP1 PUSH3 0xB40 PUSH1 0x0 CODECOPY PUSH1 0x0 RETURN INVALID PUSH1 0x80 PUSH1 0x40 MSTORE PUSH1 0x4 CALLDATASIZE LT PUSH2 0x2E8 JUMPI PUSH1 0x0 CALLDATALOAD PUSH1 0xE0 SHR DUP1 PUSH4 0x883D9984 GT PUSH2 0x190 JUMPI DUP1 PUSH4 0xADF3364C GT PUSH2 0xDC JUMPI DUP1 PUSH4 0xD94D4AD6 GT PUSH2 0x95 JUMPI DUP1 PUSH4 0xEB9F4AC7 GT PUSH2 0x6F JUMPI DUP1 PUSH4 0xEB9F4AC7 EQ PUSH2 0x85F JUMPI DUP1 PUSH4 0xF1FDF469 EQ PUSH2 0x874 JUMPI DUP1 PUSH4 0xF2FDE38B EQ PUSH2 0x894 JUMPI DUP1 PUSH4 0xF729B00F EQ PUSH2 0x8B4 JUMPI PUSH2 0x2F8 JUMP JUMPDEST DUP1 PUSH4 0xD94D4AD6 EQ PUSH2 0x7FF JUMPI DUP1 PUSH4 0xDD62ED3E EQ PUSH2 0x81F JUMPI DUP1 PUSH4 0xE73E14BF EQ PUSH2 0x83F JUMPI PUSH2 0x2F8 JUMP JUMPDEST DUP1 PUSH4 0xADF3364C EQ PUSH2 0x748 JUMPI DUP1 PUSH4 0xB09D4B4E EQ PUSH2 0x768 JUMPI DUP1 PUSH4 0xB8B18E89 EQ PUSH2 0x795 JUMPI DUP1 PUSH4 0xBEA8E46B EQ PUSH2 0x7AA JUMPI DUP1 PUSH4 0xD4DCA69B EQ PUSH2 0x7CC JUMPI DUP1 PUSH4 0xD5DBDF1B EQ PUSH2 0x7DF JUMPI PUSH2 0x2F8 JUMP JUMPDEST DUP1 PUSH4 0x90A4C709 GT PUSH2 0x149 JUMPI DUP1 PUSH4 0xA071DCF4 GT PUSH2 0x123 JUMPI DUP1 PUSH4 0xA071DCF4 EQ PUSH2 0x6CA JUMPI DUP1 PUSH4 0xA169C515 EQ PUSH2 0x6E8 JUMPI DUP1 PUSH4 0xA457C2D7 EQ PUSH2 0x708 JUMPI DUP1 PUSH4 0xA9059CBB EQ PUSH2 0x728 JUMPI PUSH2 0x2F8 JUMP JUMPDEST DUP1 PUSH4 0x90A4C709 EQ PUSH2 0x68B JUMPI DUP1 PUSH4 0x934851EC EQ PUSH2 0x6A0 JUMPI DUP1 PUSH4 0x95D89B41 EQ PUSH2 0x6B5 JUMPI PUSH2 0x2F8 JUMP JUMPDEST DUP1 PUSH4 0x883D9984 EQ PUSH2 0x5CB JUMPI DUP1 PUSH4 0x88566374 EQ PUSH2 0x5E0 JUMPI DUP1 PUSH4 0x8902CD70 EQ PUSH2 0x600 JUMPI DUP1 PUSH4 0x893D20E8 EQ PUSH2 0x620 JUMPI DUP1 PUSH4 0x8C63F97F EQ PUSH2 0x64D JUMPI DUP1 PUSH4 0x8DA5CB5B EQ PUSH2 0x66D JUMPI PUSH2 0x2F8 JUMP JUMPDEST DUP1 PUSH4 0x3F3EF2DC GT PUSH2 0x24F JUMPI DUP1 PUSH4 0x70A08231 GT PUSH2 0x208 JUMPI DUP1 PUSH4 0x7B0472F0 GT PUSH2 0x1E2 JUMPI DUP1 PUSH4 0x7B0472F0 EQ PUSH2 0x567 JUMPI DUP1 PUSH4 0x7CB85214 EQ PUSH2 0x587 JUMPI DUP1 PUSH4 0x8378A875 EQ PUSH2 0x5A1 JUMPI DUP1 PUSH4 0x84F3996D EQ PUSH2 0x5B6 JUMPI PUSH2 0x2F8 JUMP JUMPDEST DUP1 PUSH4 0x70A08231 EQ PUSH2 0x4FC JUMPI DUP1 PUSH4 0x715018A6 EQ PUSH2 0x532 JUMPI DUP1 PUSH4 0x79CC6790 EQ PUSH2 0x547 JUMPI PUSH2 0x2F8 JUMP JUMPDEST DUP1 PUSH4 0x3F3EF2DC EQ PUSH2 0x47D JUMPI DUP1 PUSH4 0x40C10F19 EQ PUSH2 0x492 JUMPI DUP1 PUSH4 0x42966C68 EQ PUSH2 0x4B2 JUMPI DUP1 PUSH4 0x48B15166 EQ PUSH2 0x3E6 JUMPI DUP1 PUSH4 0x56029137 EQ PUSH2 0x4D2 JUMPI DUP1 PUSH4 0x5B88349D EQ PUSH2 0x4E7 JUMPI PUSH2 0x2F8 JUMP JUMPDEST DUP1 PUSH4 0x23B872DD GT PUSH2 0x2A1 JUMPI DUP1 PUSH4 0x23B872DD EQ PUSH2 0x3C6 JUMPI DUP1 PUSH4 0x2E5A1C2C EQ PUSH2 0x3E6 JUMPI DUP1 PUSH4 0x313CE567 EQ PUSH2 0x3F9 JUMPI DUP1 PUSH4 0x39509351 EQ PUSH2 0x415 JUMPI DUP1 PUSH4 0x3B124FE7 EQ PUSH2 0x435 JUMPI DUP1 PUSH4 0x3DC10AD4 EQ PUSH2 0x468 JUMPI PUSH2 0x2F8 JUMP JUMPDEST DUP1 PUSH4 0x6F200BD EQ PUSH2 0x301 JUMPI DUP1 PUSH4 0x6FDDE03 EQ PUSH2 0x32A JUMPI DUP1 PUSH4 0x95EA7B3 EQ PUSH2 0x34C JUMPI DUP1 PUSH4 0xE1B09ED EQ PUSH2 0x37C JUMPI DUP1 PUSH4 0x15441BB9 EQ PUSH2 0x39C JUMPI DUP1 PUSH4 0x18160DDD EQ PUSH2 0x3B1 JUMPI PUSH2 0x2F8 JUMP JUMPDEST CALLDATASIZE PUSH2 0x2F8 JUMPI PUSH2 0x2F6 CALLVALUE PUSH2 0x8D4 JUMP JUMPDEST STOP JUMPDEST PUSH2 0x2F6 CALLVALUE PUSH2 0x8D4 JUMP JUMPDEST CALLVALUE DUP1 ISZERO PUSH2 0x30D JUMPI PUSH1 0x0 DUP1 REVERT JUMPDEST POP PUSH2 0x317 PUSH1 0x10 SLOAD DUP2 JUMP JUMPDEST PUSH1 0x40 MLOAD SWAP1 DUP2 MSTORE PUSH1 0x20 ADD JUMPDEST PUSH1 0x40 MLOAD DUP1 SWAP2 SUB SWAP1 RETURN JUMPDEST CALLVALUE DUP1 ISZERO PUSH2 0x336 JUMPI PUSH1 0x0 DUP1 REVERT JUMPDEST POP PUSH2 0x33F PUSH2 0x992 JUMP JUMPDEST PUSH1 0x40 MLOAD PUSH2 0x321 SWAP2 SWAP1 PUSH2 0x4C3C JUMP JUMPDEST CALLVALUE DUP1 ISZERO PUSH2 0x358 JUMPI PUSH1 0x0 DUP1 REVERT JUMPDEST POP PUSH2 0x36C PUSH2 0x367 CALLDATASIZE PUSH1 0x4 PUSH2 0x4CA6 JUMP JUMPDEST PUSH2 0xA24 JUMP JUMPDEST PUSH1 0x40 MLOAD SWAP1 ISZERO ISZERO DUP2 MSTORE PUSH1 0x20 ADD PUSH2 0x321 JUMP JUMPDEST CALLVALUE DUP1 ISZERO PUSH2 0x388 JUMPI PUSH1 0x0 DUP1 REVERT JUMPDEST POP PUSH2 0x2F6 PUSH2 0x397 CALLDATASIZE PUSH1 0x4 PUSH2 0x4CD2 JUMP JUMPDEST PUSH2 0xA3E JUMP JUMPDEST CALLVALUE DUP1 ISZERO PUSH2 0x3A8 JUMPI PUSH1 0x0 DUP1 REVERT JUMPDEST POP PUSH2 0x2F6 PUSH2 0xB01 JUMP JUMPDEST CALLVALUE DUP1 ISZERO PUSH2 0x3BD JUMPI PUSH1 0x0 DUP1 REVERT JUMPDEST POP PUSH1 0xC SLOAD PUSH2 0x317 JUMP JUMPDEST CALLVALUE DUP1 ISZERO PUSH2 0x3D2 JUMPI PUSH1 0x0 DUP1 REVERT JUMPDEST POP PUSH2 0x36C PUSH2 0x3E1 CALLDATASIZE PUSH1 0x4 PUSH2 0x4CEB JUMP JUMPDEST PUSH2 0xC53 JUMP JUMPDEST CALLVALUE DUP1 ISZERO PUSH2 0x3F2 JUMPI PUSH1 0x0 DUP1 REVERT JUMPDEST POP TIMESTAMP PUSH2 0x317 JUMP JUMPDEST CALLVALUE DUP1 ISZERO PUSH2 0x405 JUMPI PUSH1 0x0 DUP1 REVERT JUMPDEST POP PUSH1 0x40 MLOAD PUSH1 0x12 DUP2 MSTORE PUSH1 0x20 ADD PUSH2 0x321 JUMP JUMPDEST CALLVALUE DUP1 ISZERO PUSH2 0x421 JUMPI PUSH1 0x0 DUP1 REVERT JUMPDEST POP PUSH2 0x36C PUSH2 0x430 CALLDATASIZE PUSH1 0x4 PUSH2 0x4CA6 JUMP JUMPDEST PUSH2 0xC77 JUMP JUMPDEST CALLVALUE DUP1 ISZERO PUSH2 0x441 JUMPI PUSH1 0x0 DUP1 REVERT JUMPDEST POP PUSH1 0x11 SLOAD PUSH2 0x455 SWAP1 PUSH2 0x100 SWAP1 DIV PUSH2 0xFFFF AND DUP2 JUMP JUMPDEST PUSH1 0x40 MLOAD PUSH2 0xFFFF SWAP1 SWAP2 AND DUP2 MSTORE PUSH1 0x20 ADD PUSH2 0x321 JUMP JUMPDEST CALLVALUE DUP1 ISZERO PUSH2 0x474 JUMPI PUSH1 0x0 DUP1 REVERT JUMPDEST POP PUSH1 0x6 SLOAD PUSH2 0x317 JUMP JUMPDEST CALLVALUE DUP1 ISZERO PUSH2 0x489 JUMPI PUSH1 0x0 DUP1 REVERT JUMPDEST POP PUSH2 0x2F6 PUSH2 0xC99 JUMP JUMPDEST CALLVALUE DUP1 ISZERO PUSH2 0x49E JUMPI PUSH1 0x0 DUP1 REVERT JUMPDEST POP PUSH2 0x2F6 PUSH2 0x4AD CALLDATASIZE PUSH1 0x4 PUSH2 0x4CA6 JUMP JUMPDEST PUSH2 0xD5C JUMP JUMPDEST CALLVALUE DUP1 ISZERO PUSH2 0x4BE JUMPI PUSH1 0x0 DUP1 REVERT JUMPDEST POP PUSH2 0x2F6 PUSH2 0x4CD CALLDATASIZE PUSH1 0x4 PUSH2 0x4CD2 JUMP JUMPDEST PUSH2 0xD94 JUMP JUMPDEST CALLVALUE DUP1 ISZERO PUSH2 0x4DE JUMPI PUSH1 0x0 DUP1 REVERT JUMPDEST POP PUSH2 0x2F6 PUSH2 0xDA6 JUMP JUMPDEST CALLVALUE DUP1 ISZERO PUSH2 0x4F3 JUMPI PUSH1 0x0 DUP1 REVERT JUMPDEST POP PUSH2 0x2F6 PUSH2 0xE69 JUMP JUMPDEST CALLVALUE DUP1 ISZERO PUSH2 0x508 JUMPI PUSH1 0x0 DUP1 REVERT JUMPDEST POP PUSH2 0x317 PUSH2 0x517 CALLDATASIZE PUSH1 0x4 PUSH2 0x4D2C JUMP JUMPDEST PUSH1 0x1 PUSH1 0x1 PUSH1 0xA0 SHL SUB AND PUSH1 0x0 SWAP1 DUP2 MSTORE PUSH1 0xA PUSH1 0x20 MSTORE PUSH1 0x40 SWAP1 KECCAK256 SLOAD SWAP1 JUMP JUMPDEST CALLVALUE DUP1 ISZERO PUSH2 0x53E JUMPI PUSH1 0x0 DUP1 REVERT JUMPDEST POP PUSH2 0x2F6 PUSH2 0xF17 JUMP JUMPDEST CALLVALUE DUP1 ISZERO PUSH2 0x553 JUMPI PUSH1 0x0 DUP1 REVERT JUMPDEST POP PUSH2 0x2F6 PUSH2 0x562 CALLDATASIZE PUSH1 0x4 PUSH2 0x4CA6 JUMP JUMPDEST PUSH2 0xF4D JUMP JUMPDEST CALLVALUE DUP1 ISZERO PUSH2 0x573 JUMPI PUSH1 0x0 DUP1 REVERT JUMPDEST POP PUSH2 0x2F6 PUSH2 0x582 CALLDATASIZE PUSH1 0x4 PUSH2 0x4D49 JUMP JUMPDEST PUSH2 0xF62 JUMP JUMPDEST CALLVALUE DUP1 ISZERO PUSH2 0x593 JUMPI PUSH1 0x0 DUP1 REVERT JUMPDEST POP PUSH1 0x11 SLOAD PUSH2 0x36C SWAP1 PUSH1 0xFF AND DUP2 JUMP JUMPDEST CALLVALUE DUP1 ISZERO PUSH2 0x5AD JUMPI PUSH1 0x0 DUP1 REVERT JUMPDEST POP PUSH2 0x2F6 PUSH2 0x10AD JUMP JUMPDEST CALLVALUE DUP1 ISZERO PUSH2 0x5C2 JUMPI PUSH1 0x0 DUP1 REVERT JUMPDEST POP PUSH2 0x2F6 PUSH2 0x1162 JUMP JUMPDEST CALLVALUE DUP1 ISZERO PUSH2 0x5D7 JUMPI PUSH1 0x0 DUP1 REVERT JUMPDEST POP PUSH2 0x2F6 PUSH2 0x1225 JUMP JUMPDEST CALLVALUE DUP1 ISZERO PUSH2 0x5EC JUMPI PUSH1 0x0 DUP1 REVERT JUMPDEST POP PUSH2 0x317 PUSH2 0x5FB CALLDATASIZE PUSH1 0x4 PUSH2 0x4CA6 JUMP JUMPDEST PUSH2 0x12E8 JUMP JUMPDEST CALLVALUE DUP1 ISZERO PUSH2 0x60C JUMPI PUSH1 0x0 DUP1 REVERT JUMPDEST POP PUSH2 0x2F6 PUSH2 0x61B CALLDATASIZE PUSH1 0x4 PUSH2 0x4D6B JUMP JUMPDEST PUSH2 0x12FB JUMP JUMPDEST CALLVALUE DUP1 ISZERO PUSH2 0x62C JUMPI PUSH1 0x0 DUP1 REVERT JUMPDEST POP PUSH2 0x635 PUSH2 0x137A JUMP JUMPDEST PUSH1 0x40 MLOAD PUSH1 0x1 PUSH1 0x1 PUSH1 0xA0 SHL SUB SWAP1 SWAP2 AND DUP2 MSTORE PUSH1 0x20 ADD PUSH2 0x321 JUMP JUMPDEST CALLVALUE DUP1 ISZERO PUSH2 0x659 JUMPI PUSH1 0x0 DUP1 REVERT JUMPDEST POP PUSH2 0x2F6 PUSH2 0x668 CALLDATASIZE PUSH1 0x4 PUSH2 0x4CD2 JUMP JUMPDEST PUSH2 0x138E JUMP JUMPDEST CALLVALUE DUP1 ISZERO PUSH2 0x679 JUMPI PUSH1 0x0 DUP1 REVERT JUMPDEST POP PUSH1 0x5 SLOAD PUSH1 0x1 PUSH1 0x1 PUSH1 0xA0 SHL SUB AND PUSH2 0x635 JUMP JUMPDEST CALLVALUE DUP1 ISZERO PUSH2 0x697 JUMPI PUSH1 0x0 DUP1 REVERT JUMPDEST POP PUSH2 0x2F6 PUSH2 0x13C1 JUMP JUMPDEST CALLVALUE DUP1 ISZERO PUSH2 0x6AC JUMPI PUSH1 0x0 DUP1 REVERT JUMPDEST POP PUSH2 0x2F6 PUSH2 0x1484 JUMP JUMPDEST CALLVALUE DUP1 ISZERO PUSH2 0x6C1 JUMPI PUSH1 0x0 DUP1 REVERT JUMPDEST POP PUSH2 0x33F PUSH2 0x1547 JUMP JUMPDEST CALLVALUE DUP1 ISZERO PUSH2 0x6D6 JUMPI PUSH1 0x0 DUP1 REVERT JUMPDEST POP PUSH1 0x11 SLOAD PUSH2 0x100 SWAP1 DIV PUSH2 0xFFFF AND PUSH2 0x317 JUMP JUMPDEST CALLVALUE DUP1 ISZERO PUSH2 0x6F4 JUMPI PUSH1 0x0 DUP1 REVERT JUMPDEST POP PUSH2 0x2F6 PUSH2 0x703 CALLDATASIZE PUSH1 0x4 PUSH2 0x4CD2 JUMP JUMPDEST PUSH2 0x1556 JUMP JUMPDEST CALLVALUE DUP1 ISZERO PUSH2 0x714 JUMPI PUSH1 0x0 DUP1 REVERT JUMPDEST POP PUSH2 0x36C PUSH2 0x723 CALLDATASIZE PUSH1 0x4 PUSH2 0x4CA6 JUMP JUMPDEST PUSH2 0x15E4 JUMP JUMPDEST CALLVALUE DUP1 ISZERO PUSH2 0x734 JUMPI PUSH1 0x0 DUP1 REVERT JUMPDEST POP PUSH2 0x36C PUSH2 0x743 CALLDATASIZE PUSH1 0x4 PUSH2 0x4CA6 JUMP JUMPDEST PUSH2 0x165F JUMP JUMPDEST CALLVALUE DUP1 ISZERO PUSH2 0x754 JUMPI PUSH1 0x0 DUP1 REVERT JUMPDEST POP PUSH2 0x2F6 PUSH2 0x763 CALLDATASIZE PUSH1 0x4 PUSH2 0x4D8F JUMP JUMPDEST PUSH2 0x166D JUMP JUMPDEST CALLVALUE DUP1 ISZERO PUSH2 0x774 JUMPI PUSH1 0x0 DUP1 REVERT JUMPDEST POP PUSH2 0x788 PUSH2 0x783 CALLDATASIZE PUSH1 0x4 PUSH2 0x4D2C JUMP JUMPDEST PUSH2 0x16DA JUMP JUMPDEST PUSH1 0x40 MLOAD PUSH2 0x321 SWAP2 SWAP1 PUSH2 0x4DB1 JUMP JUMPDEST CALLVALUE DUP1 ISZERO PUSH2 0x7A1 JUMPI PUSH1 0x0 DUP1 REVERT JUMPDEST POP PUSH2 0x2F6 PUSH2 0x17F4 JUMP JUMPDEST CALLVALUE DUP1 ISZERO PUSH2 0x7B6 JUMPI PUSH1 0x0 DUP1 REVERT JUMPDEST POP ADDRESS PUSH1 0x0 SWAP1 DUP2 MSTORE PUSH1 0xA PUSH1 0x20 MSTORE PUSH1 0x40 SWAP1 KECCAK256 SLOAD PUSH2 0x317 JUMP JUMPDEST CALLVALUE DUP1 ISZERO PUSH2 0x7D8 JUMPI PUSH1 0x0 DUP1 REVERT JUMPDEST POP ADDRESS PUSH2 0x635 JUMP JUMPDEST CALLVALUE DUP1 ISZERO PUSH2 0x7EB JUMPI PUSH1 0x0 DUP1 REVERT JUMPDEST POP PUSH2 0x2F6 PUSH2 0x7FA CALLDATASIZE PUSH1 0x4 PUSH2 0x4CD2 JUMP JUMPDEST PUSH2 0x18B7 JUMP JUMPDEST CALLVALUE DUP1 ISZERO PUSH2 0x80B JUMPI PUSH1 0x0 DUP1 REVERT JUMPDEST POP PUSH2 0x2F6 PUSH2 0x81A CALLDATASIZE PUSH1 0x4 PUSH2 0x4CD2 JUMP JUMPDEST PUSH2 0x18EA JUMP JUMPDEST CALLVALUE DUP1 ISZERO PUSH2 0x82B JUMPI PUSH1 0x0 DUP1 REVERT JUMPDEST POP PUSH2 0x317 PUSH2 0x83A CALLDATASIZE PUSH1 0x4 PUSH2 0x4E51 JUMP JUMPDEST PUSH2 0x1967 JUMP JUMPDEST CALLVALUE DUP1 ISZERO PUSH2 0x84B JUMPI PUSH1 0x0 DUP1 REVERT JUMPDEST POP PUSH2 0x788 PUSH2 0x85A CALLDATASIZE PUSH1 0x4 PUSH2 0x4D2C JUMP JUMPDEST PUSH2 0x1992 JUMP JUMPDEST CALLVALUE DUP1 ISZERO PUSH2 0x86B JUMPI PUSH1 0x0 DUP1 REVERT JUMPDEST POP PUSH2 0x2F6 PUSH2 0x1B9B JUMP JUMPDEST CALLVALUE DUP1 ISZERO PUSH2 0x880 JUMPI PUSH1 0x0 DUP1 REVERT JUMPDEST POP PUSH2 0x2F6 PUSH2 0x88F CALLDATASIZE PUSH1 0x4 PUSH2 0x4D49 JUMP JUMPDEST PUSH2 0x1C5E JUMP JUMPDEST CALLVALUE DUP1 ISZERO PUSH2 0x8A0 JUMPI PUSH1 0x0 DUP1 REVERT JUMPDEST POP PUSH2 0x2F6 PUSH2 0x8AF CALLDATASIZE PUSH1 0x4 PUSH2 0x4D2C JUMP JUMPDEST PUSH2 0x1D13 JUMP JUMPDEST CALLVALUE DUP1 ISZERO PUSH2 0x8C0 JUMPI PUSH1 0x0 DUP1 REVERT JUMPDEST POP PUSH2 0x2F6 PUSH2 0x8CF CALLDATASIZE PUSH1 0x4 PUSH2 0x4CD2 JUMP JUMPDEST PUSH2 0x1DAB JUMP JUMPDEST PUSH1 0x0 PUSH2 0x8E1 DUP3 PUSH1 0x3 PUSH2 0x1E8A JUMP JUMPDEST PUSH1 0x19 SLOAD PUSH1 0x1 PUSH1 0x1 PUSH1 0xA0 SHL SUB AND PUSH1 0x0 SWAP1 DUP2 MSTORE PUSH1 0xA PUSH1 0x20 MSTORE PUSH1 0x40 SWAP1 KECCAK256 SLOAD SWAP1 SWAP2 POP PUSH2 0x909 SWAP1 DUP3 PUSH2 0x1E96 JUMP JUMPDEST PUSH1 0x19 SLOAD PUSH1 0x1 PUSH1 0x1 PUSH1 0xA0 SHL SUB SWAP1 DUP2 AND PUSH1 0x0 SWAP1 DUP2 MSTORE PUSH1 0xA PUSH1 0x20 MSTORE PUSH1 0x40 DUP1 DUP3 KECCAK256 SWAP4 SWAP1 SWAP4 SSTORE PUSH1 0x1A SLOAD SWAP1 SWAP2 AND DUP2 MSTORE KECCAK256 SLOAD PUSH2 0x93E SWAP1 DUP3 PUSH2 0x1E96 JUMP JUMPDEST PUSH1 0x1A SLOAD PUSH1 0x1 PUSH1 0x1 PUSH1 0xA0 SHL SUB SWAP1 DUP2 AND PUSH1 0x0 SWAP1 DUP2 MSTORE PUSH1 0xA PUSH1 0x20 MSTORE PUSH1 0x40 DUP1 DUP3 KECCAK256 SWAP4 SWAP1 SWAP4 SSTORE PUSH1 0x1B SLOAD SWAP1 SWAP2 AND DUP2 MSTORE KECCAK256 SLOAD PUSH2 0x973 SWAP1 DUP3 PUSH2 0x1E96 JUMP JUMPDEST PUSH1 0x1B SLOAD PUSH1 0x1 PUSH1 0x1 PUSH1 0xA0 SHL SUB AND PUSH1 0x0 SWAP1 DUP2 MSTORE PUSH1 0xA PUSH1 0x20 MSTORE PUSH1 0x40 SWAP1 KECCAK256 SSTORE POP POP JUMP JUMPDEST PUSH1 0x60 PUSH1 0xD DUP1 SLOAD PUSH2 0x9A1 SWAP1 PUSH2 0x4E8A JUMP JUMPDEST DUP1 PUSH1 0x1F ADD PUSH1 0x20 DUP1 SWAP2 DIV MUL PUSH1 0x20 ADD PUSH1 0x40 MLOAD SWAP1 DUP2 ADD PUSH1 0x40 MSTORE DUP1 SWAP3 SWAP2 SWAP1 DUP2 DUP2 MSTORE PUSH1 0x20 ADD DUP3 DUP1 SLOAD PUSH2 0x9CD SWAP1 PUSH2 0x4E8A JUMP JUMPDEST DUP1 ISZERO PUSH2 0xA1A JUMPI DUP1 PUSH1 0x1F LT PUSH2 0x9EF JUMPI PUSH2 0x100 DUP1 DUP4 SLOAD DIV MUL DUP4 MSTORE SWAP2 PUSH1 0x20 ADD SWAP2 PUSH2 0xA1A JUMP JUMPDEST DUP3 ADD SWAP2 SWAP1 PUSH1 0x0 MSTORE PUSH1 0x20 PUSH1 0x0 KECCAK256 SWAP1 JUMPDEST DUP2 SLOAD DUP2 MSTORE SWAP1 PUSH1 0x1 ADD SWAP1 PUSH1 0x20 ADD DUP1 DUP4 GT PUSH2 0x9FD JUMPI DUP3 SWAP1 SUB PUSH1 0x1F AND DUP3 ADD SWAP2 JUMPDEST POP POP POP POP POP SWAP1 POP SWAP1 JUMP JUMPDEST PUSH1 0x0 CALLER PUSH2 0xA32 DUP2 DUP6 DUP6 PUSH2 0x1EA2 JUMP JUMPDEST PUSH1 0x1 SWAP2 POP POP JUMPDEST SWAP3 SWAP2 POP POP JUMP JUMPDEST PUSH1 0x5 SLOAD PUSH1 0x1 PUSH1 0x1 PUSH1 0xA0 SHL SUB AND CALLER EQ PUSH2 0xA71 JUMPI PUSH1 0x40 MLOAD PUSH3 0x461BCD PUSH1 0xE5 SHL DUP2 MSTORE PUSH1 0x4 ADD PUSH2 0xA68 SWAP1 PUSH2 0x4EC5 JUMP JUMPDEST PUSH1 0x40 MLOAD DUP1 SWAP2 SUB SWAP1 REVERT JUMPDEST PUSH1 0x10 SLOAD DUP2 LT PUSH2 0xADE JUMPI PUSH1 0x40 MLOAD PUSH3 0x461BCD PUSH1 0xE5 SHL DUP2 MSTORE PUSH1 0x20 PUSH1 0x4 DUP3 ADD MSTORE PUSH1 0x33 PUSH1 0x24 DUP3 ADD MSTORE PUSH32 0x54616C6178546F6B656E3A20416D6F756E74206275726E74206C617267657220 PUSH1 0x44 DUP3 ADD MSTORE PUSH19 0x1D1A185B8814DD185ADA5B99C814995DD85C99 PUSH1 0x6A SHL PUSH1 0x64 DUP3 ADD MSTORE PUSH1 0x84 ADD PUSH2 0xA68 JUMP JUMPDEST PUSH1 0x10 SLOAD PUSH2 0xAEB SWAP1 DUP3 PUSH2 0x1FC7 JUMP JUMPDEST PUSH1 0x10 SSTORE PUSH1 0xC SLOAD PUSH2 0xAFB SWAP1 DUP3 PUSH2 0x1FC7 JUMP JUMPDEST PUSH1 0xC SSTORE POP JUMP JUMPDEST PUSH1 0x21 PUSH1 0x0 SWAP1 SLOAD SWAP1 PUSH2 0x100 EXP SWAP1 DIV PUSH1 0x1 PUSH1 0x1 PUSH1 0xA0 SHL SUB AND PUSH1 0x1 PUSH1 0x1 PUSH1 0xA0 SHL SUB AND PUSH4 0x38AF3EED PUSH1 0x40 MLOAD DUP2 PUSH4 0xFFFFFFFF AND PUSH1 0xE0 SHL DUP2 MSTORE PUSH1 0x4 ADD PUSH1 0x20 PUSH1 0x40 MLOAD DUP1 DUP4 SUB DUP2 DUP7 GAS STATICCALL ISZERO DUP1 ISZERO PUSH2 0xB54 JUMPI RETURNDATASIZE PUSH1 0x0 DUP1 RETURNDATACOPY RETURNDATASIZE PUSH1 0x0 REVERT JUMPDEST POP POP POP POP PUSH1 0x40 MLOAD RETURNDATASIZE PUSH1 0x1F NOT PUSH1 0x1F DUP3 ADD AND DUP3 ADD DUP1 PUSH1 0x40 MSTORE POP DUP2 ADD SWAP1 PUSH2 0xB78 SWAP2 SWAP1 PUSH2 0x4EFA JUMP JUMPDEST PUSH1 0x1 PUSH1 0x1 PUSH1 0xA0 SHL SUB AND CALLER PUSH1 0x1 PUSH1 0x1 PUSH1 0xA0 SHL SUB AND EQ PUSH2 0xBA8 JUMPI PUSH1 0x40 MLOAD PUSH3 0x461BCD PUSH1 0xE5 SHL DUP2 MSTORE PUSH1 0x4 ADD PUSH2 0xA68 SWAP1 PUSH2 0x4F17 JUMP JUMPDEST PUSH1 0x21 SLOAD PUSH1 0x0 SWAP1 PUSH1 0x1 PUSH1 0x1 PUSH1 0xA0 SHL SUB AND PUSH4 0xC8100DCC PUSH2 0xBC4 PUSH2 0x1FD3 JUMP JUMPDEST PUSH1 0x40 MLOAD DUP3 PUSH4 0xFFFFFFFF AND PUSH1 0xE0 SHL DUP2 MSTORE PUSH1 0x4 ADD PUSH2 0xBE0 SWAP2 SWAP1 PUSH2 0x4F4E JUMP JUMPDEST PUSH1 0x20 PUSH1 0x40 MLOAD DUP1 DUP4 SUB DUP2 PUSH1 0x0 DUP8 GAS CALL ISZERO DUP1 ISZERO PUSH2 0xBFF JUMPI RETURNDATASIZE PUSH1 0x0 DUP1 RETURNDATACOPY RETURNDATASIZE PUSH1 0x0 REVERT JUMPDEST POP POP POP POP PUSH1 0x40 MLOAD RETURNDATASIZE PUSH1 0x1F NOT PUSH1 0x1F DUP3 ADD AND DUP3 ADD DUP1 PUSH1 0x40 MSTORE POP DUP2 ADD SWAP1 PUSH2 0xC23 SWAP2 SWAP1 PUSH2 0x4F80 JUMP JUMPDEST CALLER PUSH1 0x0 SWAP1 DUP2 MSTORE PUSH1 0xA PUSH1 0x20 MSTORE PUSH1 0x40 SWAP1 KECCAK256 SLOAD SWAP1 SWAP2 POP PUSH2 0xC40 SWAP1 DUP3 PUSH2 0x1E96 JUMP JUMPDEST CALLER PUSH1 0x0 SWAP1 DUP2 MSTORE PUSH1 0xA PUSH1 0x20 MSTORE PUSH1 0x40 SWAP1 KECCAK256 SSTORE POP JUMP JUMPDEST PUSH1 0x0 CALLER PUSH2 0xC61 DUP6 DUP3 DUP6 PUSH2 0x239C JUMP JUMPDEST PUSH2 0xC6C DUP6 DUP6 DUP6 PUSH2 0x2416 JUMP JUMPDEST POP PUSH1 0x1 SWAP5 SWAP4 POP POP POP POP JUMP JUMPDEST PUSH1 0x0 CALLER PUSH2 0xA32 DUP2 DUP6 DUP6 PUSH2 0xC8A DUP4 DUP4 PUSH2 0x1967 JUMP JUMPDEST PUSH2 0xC94 SWAP2 SWAP1 PUSH2 0x4FAF JUMP JUMPDEST PUSH2 0x1EA2 JUMP JUMPDEST PUSH1 0x25 PUSH1 0x0 SWAP1 SLOAD SWAP1 PUSH2 0x100 EXP SWAP1 DIV PUSH1 0x1 PUSH1 0x1 PUSH1 0xA0 SHL SUB AND PUSH1 0x1 PUSH1 0x1 PUSH1 0xA0 SHL SUB AND PUSH4 0x38AF3EED PUSH1 0x40 MLOAD DUP2 PUSH4 0xFFFFFFFF AND PUSH1 0xE0 SHL DUP2 MSTORE PUSH1 0x4 ADD PUSH1 0x20 PUSH1 0x40 MLOAD DUP1 DUP4 SUB DUP2 DUP7 GAS STATICCALL ISZERO DUP1 ISZERO PUSH2 0xCEC JUMPI RETURNDATASIZE PUSH1 0x0 DUP1 RETURNDATACOPY RETURNDATASIZE PUSH1 0x0 REVERT JUMPDEST POP POP POP POP PUSH1 0x40 MLOAD RETURNDATASIZE PUSH1 0x1F NOT PUSH1 0x1F DUP3 ADD AND DUP3 ADD DUP1 PUSH1 0x40 MSTORE POP DUP2 ADD SWAP1 PUSH2 0xD10 SWAP2 SWAP1 PUSH2 0x4EFA JUMP JUMPDEST PUSH1 0x1 PUSH1 0x1 PUSH1 0xA0 SHL SUB AND CALLER PUSH1 0x1 PUSH1 0x1 PUSH1 0xA0 SHL SUB AND EQ PUSH2 0xD40 JUMPI PUSH1 0x40 MLOAD PUSH3 0x461BCD PUSH1 0xE5 SHL DUP2 MSTORE PUSH1 0x4 ADD PUSH2 0xA68 SWAP1 PUSH2 0x4F17 JUMP JUMPDEST PUSH1 0x25 SLOAD PUSH1 0x0 SWAP1 PUSH1 0x1 PUSH1 0x1 PUSH1 0xA0 SHL SUB AND PUSH4 0xC8100DCC PUSH2 0xBC4 PUSH2 0x2764 JUMP JUMPDEST PUSH1 0x5 SLOAD PUSH1 0x1 PUSH1 0x1 PUSH1 0xA0 SHL SUB AND CALLER EQ PUSH2 0xD86 JUMPI PUSH1 0x40 MLOAD PUSH3 0x461BCD PUSH1 0xE5 SHL DUP2 MSTORE PUSH1 0x4 ADD PUSH2 0xA68 SWAP1 PUSH2 0x4EC5 JUMP JUMPDEST PUSH2 0xD90 DUP3 DUP3 PUSH2 0x2A5D JUMP JUMPDEST POP POP JUMP JUMPDEST PUSH2 0xD9E CALLER DUP3 PUSH2 0x2B3C JUMP JUMPDEST POP JUMP JUMPDEST SWAP1 POP SWAP1 JUMP JUMPDEST PUSH1 0x23 PUSH1 0x0 SWAP1 SLOAD SWAP1 PUSH2 0x100 EXP SWAP1 DIV PUSH1 0x1 PUSH1 0x1 PUSH1 0xA0 SHL SUB AND PUSH1 0x1 PUSH1 0x1 PUSH1 0xA0 SHL SUB AND PUSH4 0x38AF3EED PUSH1 0x40 MLOAD DUP2 PUSH4 0xFFFFFFFF AND PUSH1 0xE0 SHL DUP2 MSTORE PUSH1 0x4 ADD PUSH1 0x20 PUSH1 0x40 MLOAD DUP1 DUP4 SUB DUP2 DUP7 GAS STATICCALL ISZERO DUP1 ISZERO PUSH2 0xDF9 JUMPI RETURNDATASIZE PUSH1 0x0 DUP1 RETURNDATACOPY RETURNDATASIZE PUSH1 0x0 REVERT JUMPDEST POP POP POP POP PUSH1 0x40 MLOAD RETURNDATASIZE PUSH1 0x1F NOT PUSH1 0x1F DUP3 ADD AND DUP3 ADD DUP1 PUSH1 0x40 MSTORE POP DUP2 ADD SWAP1 PUSH2 0xE1D SWAP2 SWAP1 PUSH2 0x4EFA JUMP JUMPDEST PUSH1 0x1 PUSH1 0x1 PUSH1 0xA0 SHL SUB AND CALLER PUSH1 0x1 PUSH1 0x1 PUSH1 0xA0 SHL SUB AND EQ PUSH2 0xE4D JUMPI PUSH1 0x40 MLOAD PUSH3 0x461BCD PUSH1 0xE5 SHL DUP2 MSTORE PUSH1 0x4 ADD PUSH2 0xA68 SWAP1 PUSH2 0x4F17 JUMP JUMPDEST PUSH1 0x23 SLOAD PUSH1 0x0 SWAP1 PUSH1 0x1 PUSH1 0x1 PUSH1 0xA0 SHL SUB AND PUSH4 0xC8100DCC PUSH2 0xBC4 PUSH2 0x2C82 JUMP JUMPDEST PUSH1 0x11 SLOAD PUSH1 0xFF AND ISZERO ISZERO PUSH1 0x1 EQ PUSH2 0xECC JUMPI PUSH1 0x40 MLOAD PUSH3 0x461BCD PUSH1 0xE5 SHL DUP2 MSTORE PUSH1 0x20 PUSH1 0x4 DUP3 ADD MSTORE PUSH1 0x24 DUP1 DUP3 ADD MSTORE PUSH32 0x54616C6178546F6B656E3A2041697264726F70206973206E6F7420617661696C PUSH1 0x44 DUP3 ADD MSTORE PUSH4 0x61626C65 PUSH1 0xE0 SHL PUSH1 0x64 DUP3 ADD MSTORE PUSH1 0x84 ADD PUSH2 0xA68 JUMP JUMPDEST PUSH1 0x0 PUSH2 0xED7 CALLER PUSH2 0x2F26 JUMP JUMPDEST ADDRESS PUSH1 0x0 SWAP1 DUP2 MSTORE PUSH1 0xA PUSH1 0x20 MSTORE PUSH1 0x40 SWAP1 KECCAK256 SLOAD SWAP1 SWAP2 POP PUSH2 0xEF4 SWAP1 DUP3 PUSH2 0x1FC7 JUMP JUMPDEST ADDRESS PUSH1 0x0 SWAP1 DUP2 MSTORE PUSH1 0xA PUSH1 0x20 MSTORE PUSH1 0x40 DUP1 DUP3 KECCAK256 SWAP3 SWAP1 SWAP3 SSTORE CALLER DUP2 MSTORE KECCAK256 SLOAD PUSH2 0xC40 SWAP1 DUP3 PUSH2 0x1E96 JUMP JUMPDEST PUSH1 0x5 SLOAD PUSH1 0x1 PUSH1 0x1 PUSH1 0xA0 SHL SUB AND CALLER EQ PUSH2 0xF41 JUMPI PUSH1 0x40 MLOAD PUSH3 0x461BCD PUSH1 0xE5 SHL DUP2 MSTORE PUSH1 0x4 ADD PUSH2 0xA68 SWAP1 PUSH2 0x4EC5 JUMP JUMPDEST PUSH2 0xF4B PUSH1 0x0 PUSH2 0x30FF JUMP JUMPDEST JUMP JUMPDEST PUSH2 0xF58 DUP3 CALLER DUP4 PUSH2 0x239C JUMP JUMPDEST PUSH2 0xD90 DUP3 DUP3 PUSH2 0x2B3C JUMP JUMPDEST DUP1 PUSH3 0x278D00 EQ DUP1 PUSH2 0xF75 JUMPI POP DUP1 PUSH3 0x76A700 EQ JUMPDEST DUP1 PUSH2 0xF82 JUMPI POP DUP1 PUSH3 0xED4E00 EQ JUMPDEST DUP1 PUSH2 0xF90 JUMPI POP DUP1 PUSH4 0x1E13380 EQ JUMPDEST PUSH2 0xFE8 JUMPI PUSH1 0x40 MLOAD PUSH3 0x461BCD PUSH1 0xE5 SHL DUP2 MSTORE PUSH1 0x20 PUSH1 0x4 DUP3 ADD MSTORE PUSH1 0x24 DUP1 DUP3 ADD MSTORE PUSH32 0x54616C6178546F6B656E3A205374616B696E67206F7074696F6E206E6F742065 PUSH1 0x44 DUP3 ADD MSTORE PUSH4 0x1E1A5CDD PUSH1 0xE2 SHL PUSH1 0x64 DUP3 ADD MSTORE PUSH1 0x84 ADD PUSH2 0xA68 JUMP JUMPDEST CALLER PUSH1 0x0 SWAP1 DUP2 MSTORE PUSH1 0xA PUSH1 0x20 MSTORE PUSH1 0x40 SWAP1 KECCAK256 SLOAD DUP3 LT PUSH2 0x1059 JUMPI PUSH1 0x40 MLOAD PUSH3 0x461BCD PUSH1 0xE5 SHL DUP2 MSTORE PUSH1 0x20 PUSH1 0x4 DUP3 ADD MSTORE PUSH1 0x2A PUSH1 0x24 DUP3 ADD MSTORE PUSH32 0x54616C6178546F6B656E3A2043616E6E6F74207374616B65206D6F7265207468 PUSH1 0x44 DUP3 ADD MSTORE PUSH10 0x616E2062616C616E6365 PUSH1 0xB0 SHL PUSH1 0x64 DUP3 ADD MSTORE PUSH1 0x84 ADD PUSH2 0xA68 JUMP JUMPDEST PUSH1 0x0 DUP2 DUP2 MSTORE PUSH1 0xF PUSH1 0x20 MSTORE PUSH1 0x40 SWAP1 KECCAK256 SLOAD PUSH2 0x1075 SWAP1 DUP4 SWAP1 DUP4 SWAP1 PUSH2 0x3151 JUMP JUMPDEST PUSH2 0x107F CALLER DUP4 PUSH2 0x2B3C JUMP JUMPDEST ADDRESS PUSH1 0x0 SWAP1 DUP2 MSTORE PUSH1 0xA PUSH1 0x20 MSTORE PUSH1 0x40 SWAP1 KECCAK256 SLOAD PUSH2 0x1099 SWAP1 DUP4 PUSH2 0x1E96 JUMP JUMPDEST ADDRESS PUSH1 0x0 SWAP1 DUP2 MSTORE PUSH1 0xA PUSH1 0x20 MSTORE PUSH1 0x40 SWAP1 KECCAK256 SSTORE POP POP JUMP JUMPDEST PUSH1 0x20 DUP1 SLOAD PUSH1 0x40 DUP1 MLOAD PUSH4 0x38AF3EED PUSH1 0xE0 SHL DUP2 MSTORE SWAP1 MLOAD PUSH1 0x1 PUSH1 0x1 PUSH1 0xA0 SHL SUB SWAP1 SWAP3 AND SWAP3 PUSH4 0x38AF3EED SWAP3 PUSH1 0x4 DUP1 DUP5 ADD SWAP4 DUP3 SWAP1 SUB ADD DUP2 DUP7 GAS STATICCALL ISZERO DUP1 ISZERO PUSH2 0x10F2 JUMPI RETURNDATASIZE PUSH1 0x0 DUP1 RETURNDATACOPY RETURNDATASIZE PUSH1 0x0 REVERT JUMPDEST POP POP POP POP PUSH1 0x40 MLOAD RETURNDATASIZE PUSH1 0x1F NOT PUSH1 0x1F DUP3 ADD AND DUP3 ADD DUP1 PUSH1 0x40 MSTORE POP DUP2 ADD SWAP1 PUSH2 0x1116 SWAP2 SWAP1 PUSH2 0x4EFA JUMP JUMPDEST PUSH1 0x1 PUSH1 0x1 PUSH1 0xA0 SHL SUB AND CALLER PUSH1 0x1 PUSH1 0x1 PUSH1 0xA0 SHL SUB AND EQ PUSH2 0x1146 JUMPI PUSH1 0x40 MLOAD PUSH3 0x461BCD PUSH1 0xE5 SHL DUP2 MSTORE PUSH1 0x4 ADD PUSH2 0xA68 SWAP1 PUSH2 0x4F17 JUMP JUMPDEST PUSH1 0x20 SLOAD PUSH1 0x0 SWAP1 PUSH1 0x1 PUSH1 0x1 PUSH1 0xA0 SHL SUB AND PUSH4 0xC8100DCC PUSH2 0xBC4 PUSH2 0x1FD3 JUMP JUMPDEST PUSH1 0x1F PUSH1 0x0 SWAP1 SLOAD SWAP1 PUSH2 0x100 EXP SWAP1 DIV PUSH1 0x1 PUSH1 0x1 PUSH1 0xA0 SHL SUB AND PUSH1 0x1 PUSH1 0x1 PUSH1 0xA0 SHL SUB AND PUSH4 0x38AF3EED PUSH1 0x40 MLOAD DUP2 PUSH4 0xFFFFFFFF AND PUSH1 0xE0 SHL DUP2 MSTORE PUSH1 0x4 ADD PUSH1 0x20 PUSH1 0x40 MLOAD DUP1 DUP4 SUB DUP2 DUP7 GAS STATICCALL ISZERO DUP1 ISZERO PUSH2 0x11B5 JUMPI RETURNDATASIZE PUSH1 0x0 DUP1 RETURNDATACOPY RETURNDATASIZE PUSH1 0x0 REVERT JUMPDEST POP POP POP POP PUSH1 0x40 MLOAD RETURNDATASIZE PUSH1 0x1F NOT PUSH1 0x1F DUP3 ADD AND DUP3 ADD DUP1 PUSH1 0x40 MSTORE POP DUP2 ADD SWAP1 PUSH2 0x11D9 SWAP2 SWAP1 PUSH2 0x4EFA JUMP JUMPDEST PUSH1 0x1 PUSH1 0x1 PUSH1 0xA0 SHL SUB AND CALLER PUSH1 0x1 PUSH1 0x1 PUSH1 0xA0 SHL SUB AND EQ PUSH2 0x1209 JUMPI PUSH1 0x40 MLOAD PUSH3 0x461BCD PUSH1 0xE5 SHL DUP2 MSTORE PUSH1 0x4 ADD PUSH2 0xA68 SWAP1 PUSH2 0x4F17 JUMP JUMPDEST PUSH1 0x1F SLOAD PUSH1 0x0 SWAP1 PUSH1 0x1 PUSH1 0x1 PUSH1 0xA0 SHL SUB AND PUSH4 0xC8100DCC PUSH2 0xBC4 PUSH2 0x32FE JUMP JUMPDEST PUSH1 0x22 PUSH1 0x0 SWAP1 SLOAD SWAP1 PUSH2 0x100 EXP SWAP1 DIV PUSH1 0x1 PUSH1 0x1 PUSH1 0xA0 SHL SUB AND PUSH1 0x1 PUSH1 0x1 PUSH1 0xA0 SHL SUB AND PUSH4 0x38AF3EED PUSH1 0x40 MLOAD DUP2 PUSH4 0xFFFFFFFF AND PUSH1 0xE0 SHL DUP2 MSTORE PUSH1 0x4 ADD PUSH1 0x20 PUSH1 0x40 MLOAD DUP1 DUP4 SUB DUP2 DUP7 GAS STATICCALL ISZERO DUP1 ISZERO PUSH2 0x1278 JUMPI RETURNDATASIZE PUSH1 0x0 DUP1 RETURNDATACOPY RETURNDATASIZE PUSH1 0x0 REVERT JUMPDEST POP POP POP POP PUSH1 0x40 MLOAD RETURNDATASIZE PUSH1 0x1F NOT PUSH1 0x1F DUP3 ADD AND DUP3 ADD DUP1 PUSH1 0x40 MSTORE POP DUP2 ADD SWAP1 PUSH2 0x129C SWAP2 SWAP1 PUSH2 0x4EFA JUMP JUMPDEST PUSH1 0x1 PUSH1 0x1 PUSH1 0xA0 SHL SUB AND CALLER PUSH1 0x1 PUSH1 0x1 PUSH1 0xA0 SHL SUB AND EQ PUSH2 0x12CC JUMPI PUSH1 0x40 MLOAD PUSH3 0x461BCD PUSH1 0xE5 SHL DUP2 MSTORE PUSH1 0x4 ADD PUSH2 0xA68 SWAP1 PUSH2 0x4F17 JUMP JUMPDEST PUSH1 0x22 SLOAD PUSH1 0x0 SWAP1 PUSH1 0x1 PUSH1 0x1 PUSH1 0xA0 SHL SUB AND PUSH4 0xC8100DCC PUSH2 0xBC4 PUSH2 0x36C0 JUMP JUMPDEST PUSH1 0x0 PUSH2 0x12F4 DUP4 DUP4 PUSH2 0x3A82 JUMP JUMPDEST SWAP4 SWAP3 POP POP POP JUMP JUMPDEST PUSH1 0x5 SLOAD PUSH1 0x1 PUSH1 0x1 PUSH1 0xA0 SHL SUB AND CALLER EQ PUSH2 0x1325 JUMPI PUSH1 0x40 MLOAD PUSH3 0x461BCD PUSH1 0xE5 SHL DUP2 MSTORE PUSH1 0x4 ADD PUSH2 0xA68 SWAP1 PUSH2 0x4EC5 JUMP JUMPDEST PUSH1 0x11 DUP1 SLOAD PUSH3 0xFFFF00 NOT AND PUSH2 0x100 PUSH2 0xFFFF DUP5 AND SWAP1 DUP2 MUL SWAP2 SWAP1 SWAP2 OR SWAP1 SWAP2 SSTORE PUSH1 0x40 MLOAD SWAP1 DUP2 MSTORE CALLER SWAP1 PUSH32 0xDF92943B31FFF67E8447FF9FA8B5E226DDCC5FB34D36CFE120C0F2B96EB8D6F7 SWAP1 PUSH1 0x20 ADD JUMPDEST PUSH1 0x40 MLOAD DUP1 SWAP2 SUB SWAP1 LOG2 POP JUMP JUMPDEST PUSH1 0x0 PUSH2 0xDA1 PUSH1 0x5 SLOAD PUSH1 0x1 PUSH1 0x1 PUSH1 0xA0 SHL SUB AND SWAP1 JUMP JUMPDEST PUSH1 0x5 SLOAD PUSH1 0x1 PUSH1 0x1 PUSH1 0xA0 SHL SUB AND CALLER EQ PUSH2 0x13B8 JUMPI PUSH1 0x40 MLOAD PUSH3 0x461BCD PUSH1 0xE5 SHL DUP2 MSTORE PUSH1 0x4 ADD PUSH2 0xA68 SWAP1 PUSH2 0x4EC5 JUMP JUMPDEST PUSH2 0xD9E DUP2 PUSH2 0x3B56 JUMP JUMPDEST PUSH1 0x24 PUSH1 0x0 SWAP1 SLOAD SWAP1 PUSH2 0x100 EXP SWAP1 DIV PUSH1 0x1 PUSH1 0x1 PUSH1 0xA0 SHL SUB AND PUSH1 0x1 PUSH1 0x1 PUSH1 0xA0 SHL SUB AND PUSH4 0x38AF3EED PUSH1 0x40 MLOAD DUP2 PUSH4 0xFFFFFFFF AND PUSH1 0xE0 SHL DUP2 MSTORE PUSH1 0x4 ADD PUSH1 0x20 PUSH1 0x40 MLOAD DUP1 DUP4 SUB DUP2 DUP7 GAS STATICCALL ISZERO DUP1 ISZERO PUSH2 0x1414 JUMPI RETURNDATASIZE PUSH1 0x0 DUP1 RETURNDATACOPY RETURNDATASIZE PUSH1 0x0 REVERT JUMPDEST POP POP POP POP PUSH1 0x40 MLOAD RETURNDATASIZE PUSH1 0x1F NOT PUSH1 0x1F DUP3 ADD AND DUP3 ADD DUP1 PUSH1 0x40 MSTORE POP DUP2 ADD SWAP1 PUSH2 0x1438 SWAP2 SWAP1 PUSH2 0x4EFA JUMP JUMPDEST PUSH1 0x1 PUSH1 0x1 PUSH1 0xA0 SHL SUB AND CALLER PUSH1 0x1 PUSH1 0x1 PUSH1 0xA0 SHL SUB AND EQ PUSH2 0x1468 JUMPI PUSH1 0x40 MLOAD PUSH3 0x461BCD PUSH1 0xE5 SHL DUP2 MSTORE PUSH1 0x4 ADD PUSH2 0xA68 SWAP1 PUSH2 0x4F17 JUMP JUMPDEST PUSH1 0x24 SLOAD PUSH1 0x0 SWAP1 PUSH1 0x1 PUSH1 0x1 PUSH1 0xA0 SHL SUB AND PUSH4 0xC8100DCC PUSH2 0xBC4 PUSH2 0x2C82 JUMP JUMPDEST PUSH1 0x1C PUSH1 0x0 SWAP1 SLOAD SWAP1 PUSH2 0x100 EXP SWAP1 DIV PUSH1 0x1 PUSH1 0x1 PUSH1 0xA0 SHL SUB AND PUSH1 0x1 PUSH1 0x1 PUSH1 0xA0 SHL SUB AND PUSH4 0x38AF3EED PUSH1 0x40 MLOAD DUP2 PUSH4 0xFFFFFFFF AND PUSH1 0xE0 SHL DUP2 MSTORE PUSH1 0x4 ADD PUSH1 0x20 PUSH1 0x40 MLOAD DUP1 DUP4 SUB DUP2 DUP7 GAS STATICCALL ISZERO DUP1 ISZERO PUSH2 0x14D7 JUMPI RETURNDATASIZE PUSH1 0x0 DUP1 RETURNDATACOPY RETURNDATASIZE PUSH1 0x0 REVERT JUMPDEST POP POP POP POP PUSH1 0x40 MLOAD RETURNDATASIZE PUSH1 0x1F NOT PUSH1 0x1F DUP3 ADD AND DUP3 ADD DUP1 PUSH1 0x40 MSTORE POP DUP2 ADD SWAP1 PUSH2 0x14FB SWAP2 SWAP1 PUSH2 0x4EFA JUMP JUMPDEST PUSH1 0x1 PUSH1 0x1 PUSH1 0xA0 SHL SUB AND CALLER PUSH1 0x1 PUSH1 0x1 PUSH1 0xA0 SHL SUB AND EQ PUSH2 0x152B JUMPI PUSH1 0x40 MLOAD PUSH3 0x461BCD PUSH1 0xE5 SHL DUP2 MSTORE PUSH1 0x4 ADD PUSH2 0xA68 SWAP1 PUSH2 0x4F17 JUMP JUMPDEST PUSH1 0x1C SLOAD PUSH1 0x0 SWAP1 PUSH1 0x1 PUSH1 0x1 PUSH1 0xA0 SHL SUB AND PUSH4 0xC8100DCC PUSH2 0xBC4 PUSH2 0x3BFA JUMP JUMPDEST PUSH1 0x60 PUSH1 0xE DUP1 SLOAD PUSH2 0x9A1 SWAP1 PUSH2 0x4E8A JUMP JUMPDEST PUSH1 0x5 SLOAD PUSH1 0x1 PUSH1 0x1 PUSH1 0xA0 SHL SUB AND CALLER EQ PUSH2 0x1580 JUMPI PUSH1 0x40 MLOAD PUSH3 0x461BCD PUSH1 0xE5 SHL DUP2 MSTORE PUSH1 0x4 ADD PUSH2 0xA68 SWAP1 PUSH2 0x4EC5 JUMP JUMPDEST DUP1 PUSH2 0x15C7 JUMPI PUSH1 0x40 MLOAD PUSH3 0x461BCD PUSH1 0xE5 SHL DUP2 MSTORE PUSH1 0x20 PUSH1 0x4 DUP3 ADD MSTORE PUSH1 0x17 PUSH1 0x24 DUP3 ADD MSTORE PUSH23 0x416D6F756E74206D696E742063616E6E6F74206265203 PUSH1 0x4C SHL PUSH1 0x44 DUP3 ADD MSTORE PUSH1 0x64 ADD PUSH2 0xA68 JUMP JUMPDEST PUSH1 0x10 SLOAD PUSH2 0x15D4 SWAP1 DUP3 PUSH2 0x1E96 JUMP JUMPDEST PUSH1 0x10 SSTORE PUSH1 0xC SLOAD PUSH2 0xAFB SWAP1 DUP3 PUSH2 0x1E96 JUMP JUMPDEST PUSH1 0x0 CALLER DUP2 PUSH2 0x15F2 DUP3 DUP7 PUSH2 0x1967 JUMP JUMPDEST SWAP1 POP DUP4 DUP2 LT ISZERO PUSH2 0x1652 JUMPI PUSH1 0x40 MLOAD PUSH3 0x461BCD PUSH1 0xE5 SHL DUP2 MSTORE PUSH1 0x20 PUSH1 0x4 DUP3 ADD MSTORE PUSH1 0x25 PUSH1 0x24 DUP3 ADD MSTORE PUSH32 0x45524332303A2064656372656173656420616C6C6F77616E63652062656C6F77 PUSH1 0x44 DUP3 ADD MSTORE PUSH5 0x207A65726F PUSH1 0xD8 SHL PUSH1 0x64 DUP3 ADD MSTORE PUSH1 0x84 ADD PUSH2 0xA68 JUMP JUMPDEST PUSH2 0xC6C DUP3 DUP7 DUP7 DUP5 SUB PUSH2 0x1EA2 JUMP JUMPDEST PUSH1 0x0 CALLER PUSH2 0xA32 DUP2 DUP6 DUP6 PUSH2 0x2416 JUMP JUMPDEST PUSH1 0x5 SLOAD PUSH1 0x1 PUSH1 0x1 PUSH1 0xA0 SHL SUB AND CALLER EQ PUSH2 0x1697 JUMPI PUSH1 0x40 MLOAD PUSH3 0x461BCD PUSH1 0xE5 SHL DUP2 MSTORE PUSH1 0x4 ADD PUSH2 0xA68 SWAP1 PUSH2 0x4EC5 JUMP JUMPDEST PUSH1 0x11 DUP1 SLOAD PUSH1 0xFF NOT AND DUP3 ISZERO ISZERO SWAP1 DUP2 OR SWAP1 SWAP2 SSTORE PUSH1 0x40 MLOAD SWAP1 DUP2 MSTORE CALLER SWAP1 PUSH32 0xE596A4FD4BA2E7F54093D98B96267C6B0DBAE1E317BED8123D9FBC868C028377 SWAP1 PUSH1 0x20 ADD PUSH2 0x136F JUMP JUMPDEST PUSH1 0x40 DUP1 MLOAD DUP1 DUP3 ADD SWAP1 SWAP2 MSTORE PUSH1 0x0 DUP2 MSTORE PUSH1 0x60 PUSH1 0x20 DUP3 ADD MSTORE PUSH1 0x0 PUSH1 0x40 MLOAD DUP1 PUSH1 0x40 ADD PUSH1 0x40 MSTORE DUP1 PUSH1 0x0 DUP2 MSTORE PUSH1 0x20 ADD PUSH1 0x8 PUSH1 0x9 PUSH1 0x0 DUP8 PUSH1 0x1 PUSH1 0x1 PUSH1 0xA0 SHL SUB AND PUSH1 0x1 PUSH1 0x1 PUSH1 0xA0 SHL SUB AND DUP2 MSTORE PUSH1 0x20 ADD SWAP1 DUP2 MSTORE PUSH1 0x20 ADD PUSH1 0x0 KECCAK256 SLOAD DUP2 SLOAD DUP2 LT PUSH2 0x173B JUMPI PUSH2 0x173B PUSH2 0x4FC7 JUMP JUMPDEST SWAP1 PUSH1 0x0 MSTORE PUSH1 0x20 PUSH1 0x0 KECCAK256 SWAP1 PUSH1 0x3 MUL ADD PUSH1 0x2 ADD DUP1 SLOAD DUP1 PUSH1 0x20 MUL PUSH1 0x20 ADD PUSH1 0x40 MLOAD SWAP1 DUP2 ADD PUSH1 0x40 MSTORE DUP1 SWAP3 SWAP2 SWAP1 DUP2 DUP2 MSTORE PUSH1 0x20 ADD PUSH1 0x0 SWAP1 JUMPDEST DUP3 DUP3 LT ISZERO PUSH2 0x17E7 JUMPI PUSH1 0x0 DUP5 DUP2 MSTORE PUSH1 0x20 SWAP1 DUP2 SWAP1 KECCAK256 PUSH1 0x40 DUP1 MLOAD PUSH1 0xE0 DUP2 ADD DUP3 MSTORE PUSH1 0x7 DUP7 MUL SWAP1 SWAP3 ADD DUP1 SLOAD PUSH1 0x1 PUSH1 0x1 PUSH1 0xA0 SHL SUB AND DUP4 MSTORE PUSH1 0x1 DUP1 DUP3 ADD SLOAD DUP5 DUP7 ADD MSTORE PUSH1 0x2 DUP3 ADD SLOAD SWAP3 DUP5 ADD SWAP3 SWAP1 SWAP3 MSTORE PUSH1 0x3 DUP2 ADD SLOAD PUSH1 0x60 DUP5 ADD MSTORE PUSH1 0x4 DUP2 ADD SLOAD PUSH1 0x80 DUP5 ADD MSTORE PUSH1 0x5 DUP2 ADD SLOAD PUSH1 0xA0 DUP5 ADD MSTORE PUSH1 0x6 ADD SLOAD PUSH1 0xC0 DUP4 ADD MSTORE SWAP1 DUP4 MSTORE SWAP1 SWAP3 ADD SWAP2 ADD PUSH2 0x176C JUMP JUMPDEST POP POP POP SWAP2 MSTORE POP SWAP4 SWAP3 POP POP POP JUMP JUMPDEST PUSH1 0x1D PUSH1 0x0 SWAP1 SLOAD SWAP1 PUSH2 0x100 EXP SWAP1 DIV PUSH1 0x1 PUSH1 0x1 PUSH1 0xA0 SHL SUB AND PUSH1 0x1 PUSH1 0x1 PUSH1 0xA0 SHL SUB AND PUSH4 0x38AF3EED PUSH1 0x40 MLOAD DUP2 PUSH4 0xFFFFFFFF AND PUSH1 0xE0 SHL DUP2 MSTORE PUSH1 0x4 ADD PUSH1 0x20 PUSH1 0x40 MLOAD DUP1 DUP4 SUB DUP2 DUP7 GAS STATICCALL ISZERO DUP1 ISZERO PUSH2 0x1847 JUMPI RETURNDATASIZE PUSH1 0x0 DUP1 RETURNDATACOPY RETURNDATASIZE PUSH1 0x0 REVERT JUMPDEST POP POP POP POP PUSH1 0x40 MLOAD RETURNDATASIZE PUSH1 0x1F NOT PUSH1 0x1F DUP3 ADD AND DUP3 ADD DUP1 PUSH1 0x40 MSTORE POP DUP2 ADD SWAP1 PUSH2 0x186B SWAP2 SWAP1 PUSH2 0x4EFA JUMP JUMPDEST PUSH1 0x1 PUSH1 0x1 PUSH1 0xA0 SHL SUB AND CALLER PUSH1 0x1 PUSH1 0x1 PUSH1 0xA0 SHL SUB AND EQ PUSH2 0x189B JUMPI PUSH1 0x40 MLOAD PUSH3 0x461BCD PUSH1 0xE5 SHL DUP2 MSTORE PUSH1 0x4 ADD PUSH2 0xA68 SWAP1 PUSH2 0x4F17 JUMP JUMPDEST PUSH1 0x1D SLOAD PUSH1 0x0 SWAP1 PUSH1 0x1 PUSH1 0x1 PUSH1 0xA0 SHL SUB AND PUSH4 0xC8100DCC PUSH2 0xBC4 PUSH2 0x3E3A JUMP JUMPDEST PUSH1 0x5 SLOAD PUSH1 0x1 PUSH1 0x1 PUSH1 0xA0 SHL SUB AND CALLER EQ PUSH2 0x18E1 JUMPI PUSH1 0x40 MLOAD PUSH3 0x461BCD PUSH1 0xE5 SHL DUP2 MSTORE PUSH1 0x4 ADD PUSH2 0xA68 SWAP1 PUSH2 0x4EC5 JUMP JUMPDEST PUSH2 0xD9E DUP2 PUSH2 0x41FC JUMP JUMPDEST PUSH1 0x5 SLOAD PUSH1 0x1 PUSH1 0x1 PUSH1 0xA0 SHL SUB AND CALLER EQ PUSH2 0x1914 JUMPI PUSH1 0x40 MLOAD PUSH3 0x461BCD PUSH1 0xE5 SHL DUP2 MSTORE PUSH1 0x4 ADD PUSH2 0xA68 SWAP1 PUSH2 0x4EC5 JUMP JUMPDEST PUSH1 0x0 DUP2 GT PUSH2 0x195E JUMPI PUSH1 0x40 MLOAD PUSH3 0x461BCD PUSH1 0xE5 SHL DUP2 MSTORE PUSH1 0x20 PUSH1 0x4 DUP3 ADD MSTORE PUSH1 0x17 PUSH1 0x24 DUP3 ADD MSTORE PUSH23 0x416D6F756E74206D696E742063616E6E6F74206265203 PUSH1 0x4C SHL PUSH1 0x44 DUP3 ADD MSTORE PUSH1 0x64 ADD PUSH2 0xA68 JUMP JUMPDEST PUSH2 0xD9E DUP2 PUSH2 0x42A1 JUMP JUMPDEST PUSH1 0x1 PUSH1 0x1 PUSH1 0xA0 SHL SUB SWAP2 DUP3 AND PUSH1 0x0 SWAP1 DUP2 MSTORE PUSH1 0xB PUSH1 0x20 SWAP1 DUP2 MSTORE PUSH1 0x40 DUP1 DUP4 KECCAK256 SWAP4 SWAP1 SWAP5 AND DUP3 MSTORE SWAP2 SWAP1 SWAP2 MSTORE KECCAK256 SLOAD SWAP1 JUMP JUMPDEST PUSH1 0x40 DUP1 MLOAD DUP1 DUP3 ADD SWAP1 SWAP2 MSTORE PUSH1 0x0 DUP2 MSTORE PUSH1 0x60 PUSH1 0x20 DUP3 ADD MSTORE PUSH1 0x0 DUP1 PUSH1 0x40 MLOAD DUP1 PUSH1 0x40 ADD PUSH1 0x40 MSTORE DUP1 PUSH1 0x0 DUP2 MSTORE PUSH1 0x20 ADD PUSH1 0x8 PUSH1 0x9 PUSH1 0x0 DUP9 PUSH1 0x1 PUSH1 0x1 PUSH1 0xA0 SHL SUB AND PUSH1 0x1 PUSH1 0x1 PUSH1 0xA0 SHL SUB AND DUP2 MSTORE PUSH1 0x20 ADD SWAP1 DUP2 MSTORE PUSH1 0x20 ADD PUSH1 0x0 KECCAK256 SLOAD DUP2 SLOAD DUP2 LT PUSH2 0x19F4 JUMPI PUSH2 0x19F4 PUSH2 0x4FC7 JUMP JUMPDEST SWAP1 PUSH1 0x0 MSTORE PUSH1 0x20 PUSH1 0x0 KECCAK256 SWAP1 PUSH1 0x3 MUL ADD PUSH1 0x2 ADD DUP1 SLOAD DUP1 PUSH1 0x20 MUL PUSH1 0x20 ADD PUSH1 0x40 MLOAD SWAP1 DUP2 ADD PUSH1 0x40 MSTORE DUP1 SWAP3 SWAP2 SWAP1 DUP2 DUP2 MSTORE PUSH1 0x20 ADD PUSH1 0x0 SWAP1 JUMPDEST DUP3 DUP3 LT ISZERO PUSH2 0x1AA0 JUMPI PUSH1 0x0 DUP5 DUP2 MSTORE PUSH1 0x20 SWAP1 DUP2 SWAP1 KECCAK256 PUSH1 0x40 DUP1 MLOAD PUSH1 0xE0 DUP2 ADD DUP3 MSTORE PUSH1 0x7 DUP7 MUL SWAP1 SWAP3 ADD DUP1 SLOAD PUSH1 0x1 PUSH1 0x1 PUSH1 0xA0 SHL SUB AND DUP4 MSTORE PUSH1 0x1 DUP1 DUP3 ADD SLOAD DUP5 DUP7 ADD MSTORE PUSH1 0x2 DUP3 ADD SLOAD SWAP3 DUP5 ADD SWAP3 SWAP1 SWAP3 MSTORE PUSH1 0x3 DUP2 ADD SLOAD PUSH1 0x60 DUP5 ADD MSTORE PUSH1 0x4 DUP2 ADD SLOAD PUSH1 0x80 DUP5 ADD MSTORE PUSH1 0x5 DUP2 ADD SLOAD PUSH1 0xA0 DUP5 ADD MSTORE PUSH1 0x6 ADD SLOAD PUSH1 0xC0 DUP4 ADD MSTORE SWAP1 DUP4 MSTORE SWAP1 SWAP3 ADD SWAP2 ADD PUSH2 0x1A25 JUMP JUMPDEST POP POP POP SWAP2 MSTORE POP PUSH1 0x20 DUP2 ADD MLOAD MLOAD SWAP1 SWAP2 POP PUSH2 0x1ACB JUMPI PUSH1 0x40 MLOAD PUSH3 0x461BCD PUSH1 0xE5 SHL DUP2 MSTORE PUSH1 0x4 ADD PUSH2 0xA68 SWAP1 PUSH2 0x4FDD JUMP JUMPDEST PUSH1 0x0 JUMPDEST DUP2 PUSH1 0x20 ADD MLOAD MLOAD DUP2 LT ISZERO PUSH2 0x1B91 JUMPI PUSH1 0x0 PUSH2 0x1B25 DUP4 PUSH1 0x20 ADD MLOAD DUP4 DUP2 MLOAD DUP2 LT PUSH2 0x1AF6 JUMPI PUSH2 0x1AF6 PUSH2 0x4FC7 JUMP JUMPDEST PUSH1 0x20 MUL PUSH1 0x20 ADD ADD MLOAD DUP5 PUSH1 0x20 ADD MLOAD DUP5 DUP2 MLOAD DUP2 LT PUSH2 0x1B14 JUMPI PUSH2 0x1B14 PUSH2 0x4FC7 JUMP JUMPDEST PUSH1 0x20 MUL PUSH1 0x20 ADD ADD MLOAD PUSH1 0x20 ADD MLOAD PUSH2 0x42D8 JUMP JUMPDEST SWAP1 POP DUP1 DUP4 PUSH1 0x20 ADD MLOAD DUP4 DUP2 MLOAD DUP2 LT PUSH2 0x1B3E JUMPI PUSH2 0x1B3E PUSH2 0x4FC7 JUMP JUMPDEST PUSH1 0x20 MUL PUSH1 0x20 ADD ADD MLOAD PUSH1 0x60 ADD DUP2 DUP2 MSTORE POP POP DUP3 PUSH1 0x20 ADD MLOAD DUP3 DUP2 MLOAD DUP2 LT PUSH2 0x1B64 JUMPI PUSH2 0x1B64 PUSH2 0x4FC7 JUMP JUMPDEST PUSH1 0x20 MUL PUSH1 0x20 ADD ADD MLOAD PUSH1 0x20 ADD MLOAD DUP5 PUSH2 0x1B7B SWAP2 SWAP1 PUSH2 0x4FAF JUMP JUMPDEST SWAP4 POP PUSH2 0x1B8A SWAP1 POP PUSH1 0x1 DUP3 PUSH2 0x4FAF JUMP JUMPDEST SWAP1 POP PUSH2 0x1ACE JUMP JUMPDEST POP SWAP1 DUP2 MSTORE SWAP3 SWAP2 POP POP JUMP JUMPDEST PUSH1 0x1E PUSH1 0x0 SWAP1 SLOAD SWAP1 PUSH2 0x100 EXP SWAP1 DIV PUSH1 0x1 PUSH1 0x1 PUSH1 0xA0 SHL SUB AND PUSH1 0x1 PUSH1 0x1 PUSH1 0xA0 SHL SUB AND PUSH4 0x38AF3EED PUSH1 0x40 MLOAD DUP2 PUSH4 0xFFFFFFFF AND PUSH1 0xE0 SHL DUP2 MSTORE PUSH1 0x4 ADD PUSH1 0x20 PUSH1 0x40 MLOAD DUP1 DUP4 SUB DUP2 DUP7 GAS STATICCALL ISZERO DUP1 ISZERO PUSH2 0x1BEE JUMPI RETURNDATASIZE PUSH1 0x0 DUP1 RETURNDATACOPY RETURNDATASIZE PUSH1 0x0 REVERT JUMPDEST POP POP POP POP PUSH1 0x40 MLOAD RETURNDATASIZE PUSH1 0x1F NOT PUSH1 0x1F DUP3 ADD AND DUP3 ADD DUP1 PUSH1 0x40 MSTORE POP DUP2 ADD SWAP1 PUSH2 0x1C12 SWAP2 SWAP1 PUSH2 0x4EFA JUMP JUMPDEST PUSH1 0x1 PUSH1 0x1 PUSH1 0xA0 SHL SUB AND CALLER PUSH1 0x1 PUSH1 0x1 PUSH1 0xA0 SHL SUB AND EQ PUSH2 0x1C42 JUMPI PUSH1 0x40 MLOAD PUSH3 0x461BCD PUSH1 0xE5 SHL DUP2 MSTORE PUSH1 0x4 ADD PUSH2 0xA68 SWAP1 PUSH2 0x4F17 JUMP JUMPDEST PUSH1 0x1E SLOAD PUSH1 0x0 SWAP1 PUSH1 0x1 PUSH1 0x1 PUSH1 0xA0 SHL SUB AND PUSH4 0xC8100DCC PUSH2 0xBC4 PUSH2 0x3E3A JUMP JUMPDEST PUSH1 0x0 DUP1 PUSH2 0x1C6B DUP5 DUP5 PUSH2 0x432B JUMP JUMPDEST SWAP2 POP SWAP2 POP PUSH2 0x1C78 DUP2 PUSH2 0x42A1 JUMP JUMPDEST ADDRESS PUSH1 0x0 SWAP1 DUP2 MSTORE PUSH1 0xA PUSH1 0x20 MSTORE PUSH1 0x40 SWAP1 KECCAK256 SLOAD PUSH2 0x1C92 SWAP1 DUP4 PUSH2 0x1FC7 JUMP JUMPDEST ADDRESS PUSH1 0x0 SWAP1 DUP2 MSTORE PUSH1 0xA PUSH1 0x20 MSTORE PUSH1 0x40 SWAP1 KECCAK256 DUP2 SWAP1 SSTORE PUSH2 0x1CAE SWAP1 DUP3 PUSH2 0x1FC7 JUMP JUMPDEST ADDRESS PUSH1 0x0 SWAP1 DUP2 MSTORE PUSH1 0xA PUSH1 0x20 MSTORE PUSH1 0x40 SWAP1 KECCAK256 SSTORE PUSH2 0x1CC8 DUP2 DUP4 PUSH2 0x4FAF JUMP JUMPDEST PUSH1 0xC PUSH1 0x0 DUP3 DUP3 SLOAD PUSH2 0x1CD9 SWAP2 SWAP1 PUSH2 0x4FAF JUMP JUMPDEST SWAP1 SWAP2 SSTORE POP PUSH2 0x1CE9 SWAP1 POP DUP2 DUP4 PUSH2 0x4FAF JUMP JUMPDEST CALLER PUSH1 0x0 SWAP1 DUP2 MSTORE PUSH1 0xA PUSH1 0x20 MSTORE PUSH1 0x40 DUP2 KECCAK256 DUP1 SLOAD SWAP1 SWAP2 SWAP1 PUSH2 0x1D08 SWAP1 DUP5 SWAP1 PUSH2 0x4FAF JUMP JUMPDEST SWAP1 SWAP2 SSTORE POP POP POP POP POP POP JUMP JUMPDEST PUSH1 0x5 SLOAD PUSH1 0x1 PUSH1 0x1 PUSH1 0xA0 SHL SUB AND CALLER EQ PUSH2 0x1D3D JUMPI PUSH1 0x40 MLOAD PUSH3 0x461BCD PUSH1 0xE5 SHL DUP2 MSTORE PUSH1 0x4 ADD PUSH2 0xA68 SWAP1 PUSH2 0x4EC5 JUMP JUMPDEST PUSH1 0x1 PUSH1 0x1 PUSH1 0xA0 SHL SUB DUP2 AND PUSH2 0x1DA2 JUMPI PUSH1 0x40 MLOAD PUSH3 0x461BCD PUSH1 0xE5 SHL DUP2 MSTORE PUSH1 0x20 PUSH1 0x4 DUP3 ADD MSTORE PUSH1 0x26 PUSH1 0x24 DUP3 ADD MSTORE PUSH32 0x4F776E61626C653A206E6577206F776E657220697320746865207A65726F2061 PUSH1 0x44 DUP3 ADD MSTORE PUSH6 0x646472657373 PUSH1 0xD0 SHL PUSH1 0x64 DUP3 ADD MSTORE PUSH1 0x84 ADD PUSH2 0xA68 JUMP JUMPDEST PUSH2 0xD9E DUP2 PUSH2 0x30FF JUMP JUMPDEST PUSH1 0x0 DUP1 PUSH2 0x1DB7 DUP4 PUSH2 0x47C1 JUMP JUMPDEST SWAP2 POP SWAP2 POP PUSH2 0x1DC4 DUP2 PUSH2 0x42A1 JUMP JUMPDEST ADDRESS PUSH1 0x0 SWAP1 DUP2 MSTORE PUSH1 0xA PUSH1 0x20 MSTORE PUSH1 0x40 SWAP1 KECCAK256 SLOAD PUSH2 0x1DDE SWAP1 DUP4 PUSH2 0x1FC7 JUMP JUMPDEST ADDRESS PUSH1 0x0 SWAP1 DUP2 MSTORE PUSH1 0xA PUSH1 0x20 MSTORE PUSH1 0x40 SWAP1 KECCAK256 DUP2 SWAP1 SSTORE PUSH2 0x1DFA SWAP1 DUP3 PUSH2 0x1FC7 JUMP JUMPDEST ADDRESS PUSH1 0x0 SWAP1 DUP2 MSTORE PUSH1 0xA PUSH1 0x20 MSTORE PUSH1 0x40 SWAP1 KECCAK256 SSTORE PUSH2 0x1E14 DUP2 DUP4 PUSH2 0x4FAF JUMP JUMPDEST PUSH1 0xC PUSH1 0x0 DUP3 DUP3 SLOAD PUSH2 0x1E25 SWAP2 SWAP1 PUSH2 0x4FAF JUMP JUMPDEST SWAP1 SWAP2 SSTORE POP PUSH2 0x1E35 SWAP1 POP DUP2 DUP4 PUSH2 0x4FAF JUMP JUMPDEST CALLER PUSH1 0x0 SWAP1 DUP2 MSTORE PUSH1 0xA PUSH1 0x20 MSTORE PUSH1 0x40 DUP2 KECCAK256 DUP1 SLOAD SWAP1 SWAP2 SWAP1 PUSH2 0x1E54 SWAP1 DUP5 SWAP1 PUSH2 0x4FAF JUMP JUMPDEST SWAP1 SWAP2 SSTORE POP POP POP POP POP JUMP JUMPDEST PUSH1 0x0 DUP2 DUP5 DUP5 GT ISZERO PUSH2 0x1E82 JUMPI PUSH1 0x40 MLOAD PUSH3 0x461BCD PUSH1 0xE5 SHL DUP2 MSTORE PUSH1 0x4 ADD PUSH2 0xA68 SWAP2 SWAP1 PUSH2 0x4C3C JUMP JUMPDEST POP POP POP SWAP1 SUB SWAP1 JUMP JUMPDEST PUSH1 0x0 PUSH2 0x12F4 DUP3 DUP5 PUSH2 0x5042 JUMP JUMPDEST PUSH1 0x0 PUSH2 0x12F4 DUP3 DUP5 PUSH2 0x4FAF JUMP JUMPDEST PUSH1 0x1 PUSH1 0x1 PUSH1 0xA0 SHL SUB DUP4 AND PUSH2 0x1F04 JUMPI PUSH1 0x40 MLOAD PUSH3 0x461BCD PUSH1 0xE5 SHL DUP2 MSTORE PUSH1 0x20 PUSH1 0x4 DUP3 ADD MSTORE PUSH1 0x24 DUP1 DUP3 ADD MSTORE PUSH32 0x45524332303A20617070726F76652066726F6D20746865207A65726F20616464 PUSH1 0x44 DUP3 ADD MSTORE PUSH4 0x72657373 PUSH1 0xE0 SHL PUSH1 0x64 DUP3 ADD MSTORE PUSH1 0x84 ADD PUSH2 0xA68 JUMP JUMPDEST PUSH1 0x1 PUSH1 0x1 PUSH1 0xA0 SHL SUB DUP3 AND PUSH2 0x1F65 JUMPI PUSH1 0x40 MLOAD PUSH3 0x461BCD PUSH1 0xE5 SHL DUP2 MSTORE PUSH1 0x20 PUSH1 0x4 DUP3 ADD MSTORE PUSH1 0x22 PUSH1 0x24 DUP3 ADD MSTORE PUSH32 0x45524332303A20617070726F766520746F20746865207A65726F206164647265 PUSH1 0x44 DUP3 ADD MSTORE PUSH2 0x7373 PUSH1 0xF0 SHL PUSH1 0x64 DUP3 ADD MSTORE PUSH1 0x84 ADD PUSH2 0xA68 JUMP JUMPDEST PUSH1 0x1 PUSH1 0x1 PUSH1 0xA0 SHL SUB DUP4 DUP2 AND PUSH1 0x0 DUP2 DUP2 MSTORE PUSH1 0x1 PUSH1 0x20 SWAP1 DUP2 MSTORE PUSH1 0x40 DUP1 DUP4 KECCAK256 SWAP5 DUP8 AND DUP1 DUP5 MSTORE SWAP5 DUP3 MSTORE SWAP2 DUP3 SWAP1 KECCAK256 DUP6 SWAP1 SSTORE SWAP1 MLOAD DUP5 DUP2 MSTORE PUSH32 0x8C5BE1E5EBEC7D5BD14F71427D1E84F3DD0314C0F7B2291E5B200AC8C7C3B925 SWAP2 ADD JUMPDEST PUSH1 0x40 MLOAD DUP1 SWAP2 SUB SWAP1 LOG3 POP POP POP JUMP JUMPDEST PUSH1 0x0 PUSH2 0x12F4 DUP3 DUP5 PUSH2 0x5064 JUMP JUMPDEST PUSH2 0x1FDB PUSH2 0x4C1D JUMP JUMPDEST PUSH1 0x40 MLOAD DUP1 PUSH2 0x560 ADD PUSH1 0x40 MSTORE DUP1 PUSH2 0x1FFC PUSH3 0x51615 PUSH8 0xDE0B6B3A7640000 PUSH2 0x4A41 JUMP JUMPDEST DUP2 MSTORE PUSH1 0x20 ADD PUSH1 0x0 DUP2 MSTORE PUSH1 0x20 ADD PUSH1 0x0 DUP2 MSTORE PUSH1 0x20 ADD PUSH1 0x0 DUP2 MSTORE PUSH1 0x20 ADD PUSH2 0x202B PUSH3 0x51615 PUSH8 0xDE0B6B3A7640000 PUSH2 0x4A41 JUMP JUMPDEST DUP2 MSTORE PUSH1 0x20 ADD PUSH1 0x0 DUP2 MSTORE PUSH1 0x20 ADD PUSH1 0x0 DUP2 MSTORE PUSH1 0x20 ADD PUSH2 0x2053 PUSH3 0x51615 PUSH8 0xDE0B6B3A7640000 PUSH2 0x4A41 JUMP JUMPDEST DUP2 MSTORE PUSH1 0x20 ADD PUSH1 0x0 DUP2 MSTORE PUSH1 0x20 ADD PUSH1 0x0 DUP2 MSTORE PUSH1 0x20 ADD PUSH2 0x207B PUSH3 0x51615 PUSH8 0xDE0B6B3A7640000 PUSH2 0x4A41 JUMP JUMPDEST DUP2 MSTORE PUSH1 0x20 ADD PUSH1 0x0 DUP2 MSTORE PUSH1 0x20 ADD PUSH1 0x0 DUP2 MSTORE PUSH1 0x20 ADD PUSH2 0x20A3 PUSH3 0x11A1E PUSH8 0xDE0B6B3A7640000 PUSH2 0x4A41 JUMP JUMPDEST DUP2 MSTORE PUSH1 0x20 ADD PUSH2 0x20BD PUSH3 0x11A1E PUSH8 0xDE0B6B3A7640000 PUSH2 0x4A41 JUMP JUMPDEST DUP2 MSTORE PUSH1 0x20 ADD PUSH2 0x20D7 PUSH3 0x11A1E PUSH8 0xDE0B6B3A7640000 PUSH2 0x4A41 JUMP JUMPDEST DUP2 MSTORE PUSH1 0x20 ADD PUSH2 0x20F1 PUSH3 0x11A1E PUSH8 0xDE0B6B3A7640000 PUSH2 0x4A41 JUMP JUMPDEST DUP2 MSTORE PUSH1 0x20 ADD PUSH2 0x210B PUSH3 0x11A1E PUSH8 0xDE0B6B3A7640000 PUSH2 0x4A41 JUMP JUMPDEST DUP2 MSTORE PUSH1 0x20 ADD PUSH2 0x2125 PUSH3 0x11A1E PUSH8 0xDE0B6B3A7640000 PUSH2 0x4A41 JUMP JUMPDEST DUP2 MSTORE PUSH1 0x20 ADD PUSH2 0x213F PUSH3 0x11A1E PUSH8 0xDE0B6B3A7640000 PUSH2 0x4A41 JUMP JUMPDEST DUP2 MSTORE PUSH1 0x20 ADD PUSH2 0x2159 PUSH3 0x11A1E PUSH8 0xDE0B6B3A7640000 PUSH2 0x4A41 JUMP JUMPDEST DUP2 MSTORE PUSH1 0x20 ADD PUSH2 0x2173 PUSH3 0x11A1E PUSH8 0xDE0B6B3A7640000 PUSH2 0x4A41 JUMP JUMPDEST DUP2 MSTORE PUSH1 0x20 ADD PUSH2 0x218D PUSH3 0x11A1E PUSH8 0xDE0B6B3A7640000 PUSH2 0x4A41 JUMP JUMPDEST DUP2 MSTORE PUSH1 0x20 ADD PUSH2 0x21A7 PUSH3 0x11A1E PUSH8 0xDE0B6B3A7640000 PUSH2 0x4A41 JUMP JUMPDEST DUP2 MSTORE PUSH1 0x20 ADD PUSH2 0x21C1 PUSH3 0x11A1E PUSH8 0xDE0B6B3A7640000 PUSH2 0x4A41 JUMP JUMPDEST DUP2 MSTORE PUSH1 0x20 ADD PUSH2 0x21DB PUSH3 0x11A1E PUSH8 0xDE0B6B3A7640000 PUSH2 0x4A41 JUMP JUMPDEST DUP2 MSTORE PUSH1 0x20 ADD PUSH2 0x21F5 PUSH3 0x11A1E PUSH8 0xDE0B6B3A7640000 PUSH2 0x4A41 JUMP JUMPDEST DUP2 MSTORE PUSH1 0x20 ADD PUSH2 0x220F PUSH3 0x11A1E PUSH8 0xDE0B6B3A7640000 PUSH2 0x4A41 JUMP JUMPDEST DUP2 MSTORE PUSH1 0x20 ADD PUSH2 0x2229 PUSH3 0x11A1E PUSH8 0xDE0B6B3A7640000 PUSH2 0x4A41 JUMP JUMPDEST DUP2 MSTORE PUSH1 0x20 ADD PUSH2 0x2243 PUSH3 0x11A1E PUSH8 0xDE0B6B3A7640000 PUSH2 0x4A41 JUMP JUMPDEST DUP2 MSTORE PUSH1 0x20 ADD PUSH2 0x225D PUSH3 0x11A1E PUSH8 0xDE0B6B3A7640000 PUSH2 0x4A41 JUMP JUMPDEST DUP2 MSTORE PUSH1 0x20 ADD PUSH2 0x2277 PUSH3 0x11A1E PUSH8 0xDE0B6B3A7640000 PUSH2 0x4A41 JUMP JUMPDEST DUP2 MSTORE PUSH1 0x20 ADD PUSH2 0x2291 PUSH3 0x11A1E PUSH8 0xDE0B6B3A7640000 PUSH2 0x4A41 JUMP JUMPDEST DUP2 MSTORE PUSH1 0x20 ADD PUSH2 0x22AB PUSH3 0x11A1E PUSH8 0xDE0B6B3A7640000 PUSH2 0x4A41 JUMP JUMPDEST DUP2 MSTORE PUSH1 0x20 ADD PUSH2 0x22C5 PUSH3 0x11A1E PUSH8 0xDE0B6B3A7640000 PUSH2 0x4A41 JUMP JUMPDEST DUP2 MSTORE PUSH1 0x20 ADD PUSH2 0x22DF PUSH3 0x11A1E PUSH8 0xDE0B6B3A7640000 PUSH2 0x4A41 JUMP JUMPDEST DUP2 MSTORE PUSH1 0x20 ADD PUSH2 0x22F9 PUSH3 0x11A1E PUSH8 0xDE0B6B3A7640000 PUSH2 0x4A41 JUMP JUMPDEST DUP2 MSTORE PUSH1 0x20 ADD PUSH2 0x2313 PUSH3 0x11A1E PUSH8 0xDE0B6B3A7640000 PUSH2 0x4A41 JUMP JUMPDEST DUP2 MSTORE PUSH1 0x20 ADD PUSH2 0x232D PUSH3 0x11A1E PUSH8 0xDE0B6B3A7640000 PUSH2 0x4A41 JUMP JUMPDEST DUP2 MSTORE PUSH1 0x20 ADD PUSH2 0x2347 PUSH3 0x11A1E PUSH8 0xDE0B6B3A7640000 PUSH2 0x4A41 JUMP JUMPDEST DUP2 MSTORE PUSH1 0x20 ADD PUSH2 0x2361 PUSH3 0x11A1E PUSH8 0xDE0B6B3A7640000 PUSH2 0x4A41 JUMP JUMPDEST DUP2 MSTORE PUSH1 0x20 ADD PUSH2 0x237B PUSH3 0x11A1E PUSH8 0xDE0B6B3A7640000 PUSH2 0x4A41 JUMP JUMPDEST DUP2 MSTORE PUSH1 0x20 ADD PUSH2 0x2395 PUSH3 0x11A1E PUSH8 0xDE0B6B3A7640000 PUSH2 0x4A41 JUMP JUMPDEST SWAP1 MSTORE SWAP2 SWAP1 POP JUMP JUMPDEST PUSH1 0x0 PUSH2 0x23A8 DUP5 DUP5 PUSH2 0x1967 JUMP JUMPDEST SWAP1 POP PUSH1 0x0 NOT DUP2 EQ PUSH2 0x2410 JUMPI DUP2 DUP2 LT ISZERO PUSH2 0x2403 JUMPI PUSH1 0x40 MLOAD PUSH3 0x461BCD PUSH1 0xE5 SHL DUP2 MSTORE PUSH1 0x20 PUSH1 0x4 DUP3 ADD MSTORE PUSH1 0x1D PUSH1 0x24 DUP3 ADD MSTORE PUSH32 0x45524332303A20696E73756666696369656E7420616C6C6F77616E6365000000 PUSH1 0x44 DUP3 ADD MSTORE PUSH1 0x64 ADD PUSH2 0xA68 JUMP JUMPDEST PUSH2 0x2410 DUP5 DUP5 DUP5 DUP5 SUB PUSH2 0x1EA2 JUMP JUMPDEST POP POP POP POP JUMP JUMPDEST PUSH1 0x1 PUSH1 0x1 PUSH1 0xA0 SHL SUB DUP4 AND PUSH2 0x246C JUMPI PUSH1 0x40 MLOAD PUSH3 0x461BCD PUSH1 0xE5 SHL DUP2 MSTORE PUSH1 0x20 PUSH1 0x4 DUP3 ADD MSTORE PUSH1 0x1D PUSH1 0x24 DUP3 ADD MSTORE PUSH32 0x54616C6178546F6B656E3A2066726F6D207A65726F2061646472657373000000 PUSH1 0x44 DUP3 ADD MSTORE PUSH1 0x64 ADD PUSH2 0xA68 JUMP JUMPDEST PUSH1 0x1 PUSH1 0x1 PUSH1 0xA0 SHL SUB DUP3 AND PUSH2 0x24C2 JUMPI PUSH1 0x40 MLOAD PUSH3 0x461BCD PUSH1 0xE5 SHL DUP2 MSTORE PUSH1 0x20 PUSH1 0x4 DUP3 ADD MSTORE PUSH1 0x1B PUSH1 0x24 DUP3 ADD MSTORE PUSH32 0x54616C6178546F6B656E3A20746F207A65726F20616464726573730000000000 PUSH1 0x44 DUP3 ADD MSTORE PUSH1 0x64 ADD PUSH2 0xA68 JUMP JUMPDEST PUSH1 0x1 PUSH1 0x1 PUSH1 0xA0 SHL SUB DUP4 AND PUSH1 0x0 SWAP1 DUP2 MSTORE PUSH1 0xA PUSH1 0x20 MSTORE PUSH1 0x40 SWAP1 KECCAK256 SLOAD DUP2 DUP2 LT ISZERO PUSH2 0x253F JUMPI PUSH1 0x40 MLOAD PUSH3 0x461BCD PUSH1 0xE5 SHL DUP2 MSTORE PUSH1 0x20 PUSH1 0x4 DUP3 ADD MSTORE PUSH1 0x2B PUSH1 0x24 DUP3 ADD MSTORE PUSH32 0x54616C6178546F6B656E3A207472616E7366657220616D6F756E742065786365 PUSH1 0x44 DUP3 ADD MSTORE PUSH11 0x6564732062616C616E6365 PUSH1 0xA8 SHL PUSH1 0x64 DUP3 ADD MSTORE PUSH1 0x84 ADD PUSH2 0xA68 JUMP JUMPDEST PUSH1 0x11 SLOAD PUSH1 0x0 SWAP1 PUSH2 0x2564 SWAP1 PUSH2 0x255D SWAP1 DUP6 SWAP1 PUSH2 0x100 SWAP1 DIV PUSH2 0xFFFF AND PUSH2 0x4A41 JUMP JUMPDEST PUSH1 0x64 PUSH2 0x1E8A JUMP JUMPDEST SWAP1 POP PUSH1 0x0 PUSH2 0x2572 DUP5 DUP4 PUSH2 0x1FC7 JUMP JUMPDEST SWAP1 POP PUSH1 0x0 PUSH2 0x2595 PUSH2 0x258E DUP4 PUSH2 0x2589 PUSH1 0x2 PUSH1 0xA PUSH2 0x1E8A JUMP JUMPDEST PUSH2 0x4A41 JUMP JUMPDEST PUSH1 0x3 PUSH2 0x1E8A JUMP JUMPDEST SWAP1 POP PUSH1 0x0 PUSH2 0x25A9 DUP4 PUSH2 0x2589 PUSH1 0x8 PUSH1 0xA PUSH2 0x1E8A JUMP JUMPDEST PUSH1 0x19 SLOAD PUSH1 0x1 PUSH1 0x1 PUSH1 0xA0 SHL SUB AND PUSH1 0x0 SWAP1 DUP2 MSTORE PUSH1 0xA PUSH1 0x20 MSTORE PUSH1 0x40 SWAP1 KECCAK256 SLOAD SWAP1 SWAP2 POP PUSH2 0x25D1 SWAP1 DUP4 PUSH2 0x1E96 JUMP JUMPDEST PUSH1 0x19 SLOAD PUSH1 0x1 PUSH1 0x1 PUSH1 0xA0 SHL SUB SWAP1 DUP2 AND PUSH1 0x0 SWAP1 DUP2 MSTORE PUSH1 0xA PUSH1 0x20 MSTORE PUSH1 0x40 DUP1 DUP3 KECCAK256 SWAP4 SWAP1 SWAP4 SSTORE PUSH1 0x1A SLOAD SWAP1 SWAP2 AND DUP2 MSTORE KECCAK256 SLOAD PUSH2 0x2606 SWAP1 DUP4 PUSH2 0x1E96 JUMP JUMPDEST PUSH1 0x1A SLOAD PUSH1 0x1 PUSH1 0x1 PUSH1 0xA0 SHL SUB SWAP1 DUP2 AND PUSH1 0x0 SWAP1 DUP2 MSTORE PUSH1 0xA PUSH1 0x20 MSTORE PUSH1 0x40 DUP1 DUP3 KECCAK256 SWAP4 SWAP1 SWAP4 SSTORE PUSH1 0x1B SLOAD SWAP1 SWAP2 AND DUP2 MSTORE KECCAK256 SLOAD PUSH2 0x263B SWAP1 DUP4 PUSH2 0x1E96 JUMP JUMPDEST PUSH1 0x1B SLOAD PUSH1 0x1 PUSH1 0x1 PUSH1 0xA0 SHL SUB AND PUSH1 0x0 SWAP1 DUP2 MSTORE PUSH1 0xA PUSH1 0x20 MSTORE PUSH1 0x40 DUP1 DUP3 KECCAK256 SWAP3 SWAP1 SWAP3 SSTORE ADDRESS DUP2 MSTORE KECCAK256 SLOAD PUSH2 0x2669 SWAP1 DUP3 PUSH2 0x1E96 JUMP JUMPDEST PUSH1 0xA PUSH1 0x0 ADDRESS PUSH1 0x1 PUSH1 0x1 PUSH1 0xA0 SHL SUB AND PUSH1 0x1 PUSH1 0x1 PUSH1 0xA0 SHL SUB AND DUP2 MSTORE PUSH1 0x20 ADD SWAP1 DUP2 MSTORE PUSH1 0x20 ADD PUSH1 0x0 KECCAK256 DUP2 SWAP1 SSTORE POP PUSH2 0x26CF DUP7 PUSH1 0x40 MLOAD DUP1 PUSH1 0x60 ADD PUSH1 0x40 MSTORE DUP1 PUSH1 0x24 DUP2 MSTORE PUSH1 0x20 ADD PUSH2 0x50DD PUSH1 0x24 SWAP2 CODECOPY PUSH1 0x1 PUSH1 0x1 PUSH1 0xA0 SHL SUB DUP12 AND PUSH1 0x0 SWAP1 DUP2 MSTORE PUSH1 0xA PUSH1 0x20 MSTORE PUSH1 0x40 SWAP1 KECCAK256 SLOAD SWAP2 SWAP1 PUSH2 0x1E5E JUMP JUMPDEST PUSH1 0x1 PUSH1 0x1 PUSH1 0xA0 SHL SUB DUP1 DUP11 AND PUSH1 0x0 SWAP1 DUP2 MSTORE PUSH1 0xA PUSH1 0x20 MSTORE PUSH1 0x40 DUP1 DUP3 KECCAK256 SWAP4 SWAP1 SWAP4 SSTORE SWAP1 DUP10 AND DUP2 MSTORE KECCAK256 SLOAD PUSH2 0x26FE SWAP1 DUP5 PUSH2 0x1E96 JUMP JUMPDEST PUSH1 0x1 PUSH1 0x1 PUSH1 0xA0 SHL SUB DUP1 DUP10 AND PUSH1 0x0 DUP2 DUP2 MSTORE PUSH1 0xA PUSH1 0x20 MSTORE PUSH1 0x40 SWAP1 DUP2 SWAP1 KECCAK256 SWAP4 SWAP1 SWAP4 SSTORE SWAP2 MLOAD SWAP1 DUP11 AND SWAP1 PUSH32 0xDDF252AD1BE2C89B69C2B068FC378DAA952BA7F163C4A11628F55A4DF523B3EF SWAP1 PUSH2 0x2752 SWAP1 DUP8 DUP2 MSTORE PUSH1 0x20 ADD SWAP1 JUMP JUMPDEST PUSH1 0x40 MLOAD DUP1 SWAP2 SUB SWAP1 LOG3 POP POP POP POP POP POP POP POP JUMP JUMPDEST PUSH2 0x276C PUSH2 0x4C1D JUMP JUMPDEST PUSH1 0x40 MLOAD DUP1 PUSH2 0x560 ADD PUSH1 0x40 MSTORE DUP1 PUSH2 0x278D PUSH3 0x11CD4A PUSH8 0xDE0B6B3A7640000 PUSH2 0x4A41 JUMP JUMPDEST DUP2 MSTORE PUSH1 0x20 ADD PUSH1 0x0 DUP2 MSTORE PUSH1 0x20 ADD PUSH1 0x0 DUP2 MSTORE PUSH1 0x20 ADD PUSH1 0x0 DUP2 MSTORE PUSH1 0x20 ADD PUSH2 0x27BC PUSH3 0x989680 PUSH8 0xDE0B6B3A7640000 PUSH2 0x4A41 JUMP JUMPDEST DUP2 MSTORE PUSH1 0x20 ADD PUSH1 0x0 DUP2 MSTORE PUSH1 0x20 ADD PUSH1 0x0 DUP2 MSTORE PUSH1 0x20 ADD PUSH2 0x27E4 PUSH3 0x989680 PUSH8 0xDE0B6B3A7640000 PUSH2 0x4A41 JUMP JUMPDEST DUP2 MSTORE PUSH1 0x20 ADD PUSH1 0x0 DUP2 MSTORE PUSH1 0x20 ADD PUSH1 0x0 DUP2 MSTORE PUSH1 0x20 ADD PUSH2 0x280C PUSH3 0x989680 PUSH8 0xDE0B6B3A7640000 PUSH2 0x4A41 JUMP JUMPDEST DUP2 MSTORE PUSH1 0x20 ADD PUSH1 0x0 DUP2 MSTORE PUSH1 0x20 ADD PUSH1 0x0 DUP2 MSTORE PUSH1 0x20 ADD PUSH2 0x2834 PUSH3 0x51616 PUSH8 0xDE0B6B3A7640000 PUSH2 0x4A41 JUMP JUMPDEST DUP2 MSTORE PUSH1 0x20 ADD PUSH2 0x284E PUSH3 0x51616 PUSH8 0xDE0B6B3A7640000 PUSH2 0x4A41 JUMP JUMPDEST DUP2 MSTORE PUSH1 0x20 ADD PUSH2 0x2868 PUSH3 0x51616 PUSH8 0xDE0B6B3A7640000 PUSH2 0x4A41 JUMP JUMPDEST DUP2 MSTORE PUSH1 0x20 ADD PUSH2 0x2882 PUSH3 0x51616 PUSH8 0xDE0B6B3A7640000 PUSH2 0x4A41 JUMP JUMPDEST DUP2 MSTORE PUSH1 0x20 ADD PUSH2 0x289C PUSH3 0x51616 PUSH8 0xDE0B6B3A7640000 PUSH2 0x4A41 JUMP JUMPDEST DUP2 MSTORE PUSH1 0x20 ADD PUSH2 0x28B6 PUSH3 0x51616 PUSH8 0xDE0B6B3A7640000 PUSH2 0x4A41 JUMP JUMPDEST DUP2 MSTORE PUSH1 0x20 ADD PUSH2 0x28D0 PUSH3 0x51616 PUSH8 0xDE0B6B3A7640000 PUSH2 0x4A41 JUMP JUMPDEST DUP2 MSTORE PUSH1 0x20 ADD PUSH2 0x28EA PUSH3 0x51616 PUSH8 0xDE0B6B3A7640000 PUSH2 0x4A41 JUMP JUMPDEST DUP2 MSTORE PUSH1 0x20 ADD PUSH2 0x2904 PUSH3 0x51616 PUSH8 0xDE0B6B3A7640000 PUSH2 0x4A41 JUMP JUMPDEST DUP2 MSTORE PUSH1 0x20 ADD PUSH2 0x291E PUSH3 0x51616 PUSH8 0xDE0B6B3A7640000 PUSH2 0x4A41 JUMP JUMPDEST DUP2 MSTORE PUSH1 0x20 ADD PUSH2 0x2938 PUSH3 0x51616 PUSH8 0xDE0B6B3A7640000 PUSH2 0x4A41 JUMP JUMPDEST DUP2 MSTORE PUSH1 0x20 ADD PUSH2 0x2952 PUSH3 0x51616 PUSH8 0xDE0B6B3A7640000 PUSH2 0x4A41 JUMP JUMPDEST DUP2 MSTORE PUSH1 0x20 ADD PUSH2 0x296C PUSH3 0x51616 PUSH8 0xDE0B6B3A7640000 PUSH2 0x4A41 JUMP JUMPDEST DUP2 MSTORE PUSH1 0x20 ADD PUSH2 0x2986 PUSH3 0x51616 PUSH8 0xDE0B6B3A7640000 PUSH2 0x4A41 JUMP JUMPDEST DUP2 MSTORE PUSH1 0x20 ADD PUSH2 0x29A0 PUSH3 0x51616 PUSH8 0xDE0B6B3A7640000 PUSH2 0x4A41 JUMP JUMPDEST DUP2 MSTORE PUSH1 0x20 ADD PUSH2 0x29BA PUSH3 0x51616 PUSH8 0xDE0B6B3A7640000 PUSH2 0x4A41 JUMP JUMPDEST DUP2 MSTORE PUSH1 0x20 ADD PUSH2 0x29D4 PUSH3 0x51616 PUSH8 0xDE0B6B3A7640000 PUSH2 0x4A41 JUMP JUMPDEST DUP2 MSTORE PUSH1 0x20 ADD PUSH2 0x29EE PUSH3 0x51616 PUSH8 0xDE0B6B3A7640000 PUSH2 0x4A41 JUMP JUMPDEST DUP2 MSTORE PUSH1 0x20 ADD PUSH2 0x2A08 PUSH3 0x51616 PUSH8 0xDE0B6B3A7640000 PUSH2 0x4A41 JUMP JUMPDEST DUP2 MSTORE PUSH1 0x20 ADD PUSH1 0x0 DUP2 MSTORE PUSH1 0x20 ADD PUSH1 0x0 DUP2 MSTORE PUSH1 0x20 ADD PUSH1 0x0 DUP2 MSTORE PUSH1 0x20 ADD PUSH1 0x0 DUP2 MSTORE PUSH1 0x20 ADD PUSH1 0x0 DUP2 MSTORE PUSH1 0x20 ADD PUSH1 0x0 DUP2 MSTORE PUSH1 0x20 ADD PUSH1 0x0 DUP2 MSTORE PUSH1 0x20 ADD PUSH1 0x0 DUP2 MSTORE PUSH1 0x20 ADD PUSH1 0x0 DUP2 MSTORE PUSH1 0x20 ADD PUSH1 0x0 DUP2 MSTORE PUSH1 0x20 ADD PUSH1 0x0 DUP2 MSTORE POP SWAP1 POP SWAP1 JUMP JUMPDEST PUSH1 0x1 PUSH1 0x1 PUSH1 0xA0 SHL SUB DUP3 AND PUSH2 0x2AB3 JUMPI PUSH1 0x40 MLOAD PUSH3 0x461BCD PUSH1 0xE5 SHL DUP2 MSTORE PUSH1 0x20 PUSH1 0x4 DUP3 ADD MSTORE PUSH1 0x1F PUSH1 0x24 DUP3 ADD MSTORE PUSH32 0x45524332303A206D696E7420746F20746865207A65726F206164647265737300 PUSH1 0x44 DUP3 ADD MSTORE PUSH1 0x64 ADD PUSH2 0xA68 JUMP JUMPDEST DUP1 PUSH1 0x2 PUSH1 0x0 DUP3 DUP3 SLOAD PUSH2 0x2AC5 SWAP2 SWAP1 PUSH2 0x4FAF JUMP JUMPDEST SWAP1 SWAP2 SSTORE POP POP PUSH1 0x1 PUSH1 0x1 PUSH1 0xA0 SHL SUB DUP3 AND PUSH1 0x0 SWAP1 DUP2 MSTORE PUSH1 0x20 DUP2 SWAP1 MSTORE PUSH1 0x40 DUP2 KECCAK256 DUP1 SLOAD DUP4 SWAP3 SWAP1 PUSH2 0x2AF2 SWAP1 DUP5 SWAP1 PUSH2 0x4FAF JUMP JUMPDEST SWAP1 SWAP2 SSTORE POP POP PUSH1 0x40 MLOAD DUP2 DUP2 MSTORE PUSH1 0x1 PUSH1 0x1 PUSH1 0xA0 SHL SUB DUP4 AND SWAP1 PUSH1 0x0 SWAP1 PUSH32 0xDDF252AD1BE2C89B69C2B068FC378DAA952BA7F163C4A11628F55A4DF523B3EF SWAP1 PUSH1 0x20 ADD PUSH1 0x40 MLOAD DUP1 SWAP2 SUB SWAP1 LOG3 POP POP JUMP JUMPDEST PUSH1 0x1 PUSH1 0x1 PUSH1 0xA0 SHL SUB DUP3 AND PUSH2 0x2B9C JUMPI PUSH1 0x40 MLOAD PUSH3 0x461BCD PUSH1 0xE5 SHL DUP2 MSTORE PUSH1 0x20 PUSH1 0x4 DUP3 ADD MSTORE PUSH1 0x21 PUSH1 0x24 DUP3 ADD MSTORE PUSH32 0x45524332303A206275726E2066726F6D20746865207A65726F20616464726573 PUSH1 0x44 DUP3 ADD MSTORE PUSH1 0x73 PUSH1 0xF8 SHL PUSH1 0x64 DUP3 ADD MSTORE PUSH1 0x84 ADD PUSH2 0xA68 JUMP JUMPDEST PUSH1 0x1 PUSH1 0x1 PUSH1 0xA0 SHL SUB DUP3 AND PUSH1 0x0 SWAP1 DUP2 MSTORE PUSH1 0xA PUSH1 0x20 MSTORE PUSH1 0x40 SWAP1 KECCAK256 SLOAD DUP2 DUP2 LT ISZERO PUSH2 0x2C10 JUMPI PUSH1 0x40 MLOAD PUSH3 0x461BCD PUSH1 0xE5 SHL DUP2 MSTORE PUSH1 0x20 PUSH1 0x4 DUP3 ADD MSTORE PUSH1 0x22 PUSH1 0x24 DUP3 ADD MSTORE PUSH32 0x45524332303A206275726E20616D6F756E7420657863656564732062616C616E PUSH1 0x44 DUP3 ADD MSTORE PUSH2 0x6365 PUSH1 0xF0 SHL PUSH1 0x64 DUP3 ADD MSTORE PUSH1 0x84 ADD PUSH2 0xA68 JUMP JUMPDEST PUSH1 0x1 PUSH1 0x1 PUSH1 0xA0 SHL SUB DUP4 AND PUSH1 0x0 SWAP1 DUP2 MSTORE PUSH1 0xA PUSH1 0x20 MSTORE PUSH1 0x40 DUP2 KECCAK256 DUP4 DUP4 SUB SWAP1 SSTORE PUSH1 0xC DUP1 SLOAD DUP5 SWAP3 SWAP1 PUSH2 0x2C3F SWAP1 DUP5 SWAP1 PUSH2 0x5064 JUMP JUMPDEST SWAP1 SWAP2 SSTORE POP POP PUSH1 0x40 MLOAD DUP3 DUP2 MSTORE PUSH1 0x0 SWAP1 PUSH1 0x1 PUSH1 0x1 PUSH1 0xA0 SHL SUB DUP6 AND SWAP1 PUSH32 0xDDF252AD1BE2C89B69C2B068FC378DAA952BA7F163C4A11628F55A4DF523B3EF SWAP1 PUSH1 0x20 ADD PUSH2 0x1FBA JUMP JUMPDEST PUSH2 0x2C8A PUSH2 0x4C1D JUMP JUMPDEST PUSH1 0x40 MLOAD DUP1 PUSH2 0x560 ADD PUSH1 0x40 MSTORE DUP1 PUSH2 0x2CAB PUSH3 0x11CD4B PUSH8 0xDE0B6B3A7640000 PUSH2 0x4A41 JUMP JUMPDEST DUP2 MSTORE PUSH1 0x20 ADD PUSH1 0x0 DUP2 MSTORE PUSH1 0x20 ADD PUSH1 0x0 DUP2 MSTORE PUSH1 0x20 ADD PUSH1 0x0 DUP2 MSTORE PUSH1 0x20 ADD PUSH2 0x2CDA PUSH3 0xF4240 PUSH8 0xDE0B6B3A7640000 PUSH2 0x4A41 JUMP JUMPDEST DUP2 MSTORE PUSH1 0x20 ADD PUSH1 0x0 DUP2 MSTORE PUSH1 0x20 ADD PUSH1 0x0 DUP2 MSTORE PUSH1 0x20 ADD PUSH2 0x2D02 PUSH3 0xF4240 PUSH8 0xDE0B6B3A7640000 PUSH2 0x4A41 JUMP JUMPDEST DUP2 MSTORE PUSH1 0x20 ADD PUSH1 0x0 DUP2 MSTORE PUSH1 0x20 ADD PUSH1 0x0 DUP2 MSTORE PUSH1 0x20 ADD PUSH2 0x2D2A PUSH3 0xF4240 PUSH8 0xDE0B6B3A7640000 PUSH2 0x4A41 JUMP JUMPDEST DUP2 MSTORE PUSH1 0x20 ADD PUSH1 0x0 DUP2 MSTORE PUSH1 0x20 ADD PUSH1 0x0 DUP2 MSTORE PUSH1 0x20 ADD PUSH2 0x2D52 PUSH3 0x51615 PUSH8 0xDE0B6B3A7640000 PUSH2 0x4A41 JUMP JUMPDEST DUP2 MSTORE PUSH1 0x20 ADD PUSH2 0x2D6C PUSH3 0x51615 PUSH8 0xDE0B6B3A7640000 PUSH2 0x4A41 JUMP JUMPDEST DUP2 MSTORE PUSH1 0x20 ADD PUSH2 0x2D86 PUSH3 0x51615 PUSH8 0xDE0B6B3A7640000 PUSH2 0x4A41 JUMP JUMPDEST DUP2 MSTORE PUSH1 0x20 ADD PUSH2 0x2DA0 PUSH3 0x51615 PUSH8 0xDE0B6B3A7640000 PUSH2 0x4A41 JUMP JUMPDEST DUP2 MSTORE PUSH1 0x20 ADD PUSH2 0x2DBA PUSH3 0x51615 PUSH8 0xDE0B6B3A7640000 PUSH2 0x4A41 JUMP JUMPDEST DUP2 MSTORE PUSH1 0x20 ADD PUSH2 0x2DD4 PUSH3 0x51615 PUSH8 0xDE0B6B3A7640000 PUSH2 0x4A41 JUMP JUMPDEST DUP2 MSTORE PUSH1 0x20 ADD PUSH2 0x2DEE PUSH3 0x51615 PUSH8 0xDE0B6B3A7640000 PUSH2 0x4A41 JUMP JUMPDEST DUP2 MSTORE PUSH1 0x20 ADD PUSH2 0x2E08 PUSH3 0x51615 PUSH8 0xDE0B6B3A7640000 PUSH2 0x4A41 JUMP JUMPDEST DUP2 MSTORE PUSH1 0x20 ADD PUSH2 0x2E22 PUSH3 0x51615 PUSH8 0xDE0B6B3A7640000 PUSH2 0x4A41 JUMP JUMPDEST DUP2 MSTORE PUSH1 0x20 ADD PUSH2 0x2E3C PUSH3 0x51615 PUSH8 0xDE0B6B3A7640000 PUSH2 0x4A41 JUMP JUMPDEST DUP2 MSTORE PUSH1 0x20 ADD PUSH2 0x2E56 PUSH3 0x51615 PUSH8 0xDE0B6B3A7640000 PUSH2 0x4A41 JUMP JUMPDEST DUP2 MSTORE PUSH1 0x20 ADD PUSH2 0x2E70 PUSH3 0x51615 PUSH8 0xDE0B6B3A7640000 PUSH2 0x4A41 JUMP JUMPDEST DUP2 MSTORE PUSH1 0x20 ADD PUSH2 0x2E8A PUSH3 0x51615 PUSH8 0xDE0B6B3A7640000 PUSH2 0x4A41 JUMP JUMPDEST DUP2 MSTORE PUSH1 0x20 ADD PUSH2 0x2EA4 PUSH3 0x51615 PUSH8 0xDE0B6B3A7640000 PUSH2 0x4A41 JUMP JUMPDEST DUP2 MSTORE PUSH1 0x20 ADD PUSH2 0x2EBE PUSH3 0x51615 PUSH8 0xDE0B6B3A7640000 PUSH2 0x4A41 JUMP JUMPDEST DUP2 MSTORE PUSH1 0x20 ADD PUSH2 0x2ED8 PUSH3 0x51615 PUSH8 0xDE0B6B3A7640000 PUSH2 0x4A41 JUMP JUMPDEST DUP2 MSTORE PUSH1 0x20 ADD PUSH2 0x2EF2 PUSH3 0x51615 PUSH8 0xDE0B6B3A7640000 PUSH2 0x4A41 JUMP JUMPDEST DUP2 MSTORE PUSH1 0x20 ADD PUSH2 0x2F0C PUSH3 0x51615 PUSH8 0xDE0B6B3A7640000 PUSH2 0x4A41 JUMP JUMPDEST DUP2 MSTORE PUSH1 0x20 ADD PUSH2 0x2A08 PUSH3 0x51615 PUSH8 0xDE0B6B3A7640000 PUSH2 0x4A41 JUMP JUMPDEST PUSH1 0x1 PUSH1 0x1 PUSH1 0xA0 SHL SUB DUP2 AND PUSH1 0x0 SWAP1 DUP2 MSTORE PUSH1 0x9 PUSH1 0x20 MSTORE PUSH1 0x40 DUP2 KECCAK256 SLOAD PUSH1 0x8 DUP1 SLOAD DUP4 SWAP3 DUP4 SWAP3 SWAP2 DUP2 LT PUSH2 0x2F56 JUMPI PUSH2 0x2F56 PUSH2 0x4FC7 JUMP JUMPDEST SWAP1 PUSH1 0x0 MSTORE PUSH1 0x20 PUSH1 0x0 KECCAK256 SWAP1 PUSH1 0x3 MUL ADD SWAP1 POP PUSH1 0x0 PUSH2 0x2F85 PUSH3 0x24EA00 DUP4 PUSH1 0x1 ADD SLOAD TIMESTAMP PUSH2 0x2F7F SWAP2 SWAP1 PUSH2 0x5064 JUMP JUMPDEST SWAP1 PUSH2 0x1E8A JUMP JUMPDEST SWAP1 POP PUSH1 0x1 DUP2 LT ISZERO PUSH2 0x2FFE JUMPI PUSH1 0x40 MLOAD PUSH3 0x461BCD PUSH1 0xE5 SHL DUP2 MSTORE PUSH1 0x20 PUSH1 0x4 DUP3 ADD MSTORE PUSH1 0x39 PUSH1 0x24 DUP3 ADD MSTORE PUSH32 0x5374616B61626C653A2041697264726F702063616E206F6E6C7920626520636C PUSH1 0x44 DUP3 ADD MSTORE PUSH32 0x61696D656420696E2061206D6F6E74682074696D657370616E00000000000000 PUSH1 0x64 DUP3 ADD MSTORE PUSH1 0x84 ADD PUSH2 0xA68 JUMP JUMPDEST PUSH1 0x2 DUP3 ADD SLOAD PUSH2 0x301F JUMPI PUSH1 0x40 MLOAD PUSH3 0x461BCD PUSH1 0xE5 SHL DUP2 MSTORE PUSH1 0x4 ADD PUSH2 0xA68 SWAP1 PUSH2 0x4FDD JUMP JUMPDEST PUSH1 0x0 JUMPDEST PUSH1 0x2 DUP4 ADD SLOAD DUP2 LT ISZERO PUSH2 0x30F0 JUMPI PUSH1 0x0 DUP4 PUSH1 0x2 ADD DUP3 DUP2 SLOAD DUP2 LT PUSH2 0x3045 JUMPI PUSH2 0x3045 PUSH2 0x4FC7 JUMP JUMPDEST SWAP1 PUSH1 0x0 MSTORE PUSH1 0x20 PUSH1 0x0 KECCAK256 SWAP1 PUSH1 0x7 MUL ADD PUSH1 0x1 ADD SLOAD GT PUSH2 0x3061 JUMPI PUSH2 0x30DE JUMP JUMPDEST PUSH1 0x0 PUSH1 0x64 PUSH1 0x7 SLOAD DUP6 PUSH1 0x2 ADD DUP5 DUP2 SLOAD DUP2 LT PUSH2 0x307D JUMPI PUSH2 0x307D PUSH2 0x4FC7 JUMP JUMPDEST SWAP1 PUSH1 0x0 MSTORE PUSH1 0x20 PUSH1 0x0 KECCAK256 SWAP1 PUSH1 0x7 MUL ADD PUSH1 0x1 ADD SLOAD PUSH2 0x3099 SWAP2 SWAP1 PUSH2 0x507B JUMP JUMPDEST PUSH2 0x30A3 SWAP2 SWAP1 PUSH2 0x5042 JUMP JUMPDEST SWAP1 POP PUSH2 0x30AF DUP2 DUP7 PUSH2 0x4FAF JUMP JUMPDEST SWAP5 POP DUP1 DUP5 PUSH1 0x2 ADD DUP4 DUP2 SLOAD DUP2 LT PUSH2 0x30C7 JUMPI PUSH2 0x30C7 PUSH2 0x4FC7 JUMP JUMPDEST SWAP1 PUSH1 0x0 MSTORE PUSH1 0x20 PUSH1 0x0 KECCAK256 SWAP1 PUSH1 0x7 MUL ADD PUSH1 0x4 ADD DUP2 SWAP1 SSTORE POP POP JUMPDEST DUP1 PUSH2 0x30E8 DUP2 PUSH2 0x509A JUMP JUMPDEST SWAP2 POP POP PUSH2 0x3022 JUMP JUMPDEST POP POP TIMESTAMP PUSH1 0x1 SWAP1 SWAP2 ADD SSTORE SWAP3 SWAP2 POP POP JUMP JUMPDEST PUSH1 0x5 DUP1 SLOAD PUSH1 0x1 PUSH1 0x1 PUSH1 0xA0 SHL SUB DUP4 DUP2 AND PUSH1 0x1 PUSH1 0x1 PUSH1 0xA0 SHL SUB NOT DUP4 AND DUP2 OR SWAP1 SWAP4 SSTORE PUSH1 0x40 MLOAD SWAP2 AND SWAP2 SWAP1 DUP3 SWAP1 PUSH32 0x8BE0079C531659141344CD1FD0A4F28419497F9722A3DAAFE3B4186F6B6457E0 SWAP1 PUSH1 0x0 SWAP1 LOG3 POP POP JUMP JUMPDEST PUSH1 0x0 DUP4 GT PUSH2 0x31A1 JUMPI PUSH1 0x40 MLOAD PUSH3 0x461BCD PUSH1 0xE5 SHL DUP2 MSTORE PUSH1 0x20 PUSH1 0x4 DUP3 ADD MSTORE PUSH1 0x1E PUSH1 0x24 DUP3 ADD MSTORE PUSH32 0x5374616B61626C653A2043616E6E6F74207374616B65206E6F7468696E670000 PUSH1 0x44 DUP3 ADD MSTORE PUSH1 0x64 ADD PUSH2 0xA68 JUMP JUMPDEST CALLER PUSH1 0x0 SWAP1 DUP2 MSTORE PUSH1 0x9 PUSH1 0x20 MSTORE PUSH1 0x40 SWAP1 KECCAK256 SLOAD TIMESTAMP DUP2 PUSH2 0x31C3 JUMPI PUSH2 0x31C0 CALLER PUSH2 0x4A4D JUMP JUMPDEST SWAP2 POP JUMPDEST PUSH1 0x8 DUP3 DUP2 SLOAD DUP2 LT PUSH2 0x31D6 JUMPI PUSH2 0x31D6 PUSH2 0x4FC7 JUMP JUMPDEST SWAP1 PUSH1 0x0 MSTORE PUSH1 0x20 PUSH1 0x0 KECCAK256 SWAP1 PUSH1 0x3 MUL ADD PUSH1 0x2 ADD PUSH1 0x40 MLOAD DUP1 PUSH1 0xE0 ADD PUSH1 0x40 MSTORE DUP1 CALLER PUSH1 0x1 PUSH1 0x1 PUSH1 0xA0 SHL SUB AND DUP2 MSTORE PUSH1 0x20 ADD DUP8 DUP2 MSTORE PUSH1 0x20 ADD DUP4 DUP2 MSTORE PUSH1 0x20 ADD PUSH1 0x0 DUP2 MSTORE PUSH1 0x20 ADD PUSH1 0x0 DUP2 MSTORE PUSH1 0x20 ADD DUP6 DUP2 MSTORE PUSH1 0x20 ADD DUP4 DUP8 PUSH2 0x322D SWAP2 SWAP1 PUSH2 0x4FAF JUMP JUMPDEST SWAP1 MSTORE DUP2 SLOAD PUSH1 0x1 DUP1 DUP3 ADD DUP5 SSTORE PUSH1 0x0 SWAP4 DUP5 MSTORE PUSH1 0x20 SWAP4 DUP5 SWAP1 KECCAK256 DUP4 MLOAD PUSH1 0x7 SWAP1 SWAP4 MUL ADD DUP1 SLOAD PUSH1 0x1 PUSH1 0x1 PUSH1 0xA0 SHL SUB NOT AND PUSH1 0x1 PUSH1 0x1 PUSH1 0xA0 SHL SUB SWAP1 SWAP4 AND SWAP3 SWAP1 SWAP3 OR DUP3 SSTORE SWAP3 DUP3 ADD MLOAD SWAP3 DUP2 ADD SWAP3 SWAP1 SWAP3 SSTORE PUSH1 0x40 DUP2 ADD MLOAD PUSH1 0x2 DUP4 ADD SSTORE PUSH1 0x60 DUP2 ADD MLOAD PUSH1 0x3 DUP4 ADD SSTORE PUSH1 0x80 DUP2 ADD MLOAD PUSH1 0x4 DUP4 ADD SSTORE PUSH1 0xA0 DUP2 ADD MLOAD PUSH1 0x5 DUP4 ADD SSTORE PUSH1 0xC0 ADD MLOAD PUSH1 0x6 SWAP1 SWAP2 ADD SSTORE CALLER PUSH32 0x9CFD25589D1EB8AD71E342A86A8524E83522E3936C0803048C08F6D9AD974F40 DUP7 DUP5 DUP5 PUSH2 0x32D4 DUP2 DUP11 PUSH2 0x4FAF JUMP JUMPDEST PUSH1 0x40 DUP1 MLOAD SWAP5 DUP6 MSTORE PUSH1 0x20 DUP6 ADD SWAP4 SWAP1 SWAP4 MSTORE SWAP2 DUP4 ADD MSTORE PUSH1 0x60 DUP3 ADD MSTORE PUSH1 0x80 ADD PUSH1 0x40 MLOAD DUP1 SWAP2 SUB SWAP1 LOG2 POP POP POP POP POP JUMP JUMPDEST PUSH2 0x3306 PUSH2 0x4C1D JUMP JUMPDEST PUSH1 0x40 MLOAD DUP1 PUSH2 0x560 ADD PUSH1 0x40 MSTORE DUP1 PUSH2 0x3327 PUSH3 0xF4240 PUSH8 0xDE0B6B3A7640000 PUSH2 0x4A41 JUMP JUMPDEST DUP2 MSTORE PUSH1 0x20 ADD PUSH1 0x0 DUP2 MSTORE PUSH1 0x20 ADD PUSH1 0x0 DUP2 MSTORE PUSH1 0x20 ADD PUSH1 0x0 DUP2 MSTORE PUSH1 0x20 ADD PUSH2 0x3356 PUSH3 0xF4240 PUSH8 0xDE0B6B3A7640000 PUSH2 0x4A41 JUMP JUMPDEST DUP2 MSTORE PUSH1 0x20 ADD PUSH1 0x0 DUP2 MSTORE PUSH1 0x20 ADD PUSH1 0x0 DUP2 MSTORE PUSH1 0x20 ADD PUSH2 0x337E PUSH3 0xF4240 PUSH8 0xDE0B6B3A7640000 PUSH2 0x4A41 JUMP JUMPDEST DUP2 MSTORE PUSH1 0x20 ADD PUSH1 0x0 DUP2 MSTORE PUSH1 0x20 ADD PUSH1 0x0 DUP2 MSTORE PUSH1 0x20 ADD PUSH2 0x33A6 PUSH3 0xF4240 PUSH8 0xDE0B6B3A7640000 PUSH2 0x4A41 JUMP JUMPDEST DUP2 MSTORE PUSH1 0x20 ADD PUSH1 0x0 DUP2 MSTORE PUSH1 0x20 ADD PUSH1 0x0 DUP2 MSTORE PUSH1 0x20 ADD PUSH2 0x33CE PUSH3 0x51616 PUSH8 0xDE0B6B3A7640000 PUSH2 0x4A41 JUMP JUMPDEST DUP2 MSTORE PUSH1 0x20 ADD PUSH2 0x33E8 PUSH3 0x51616 PUSH8 0xDE0B6B3A7640000 PUSH2 0x4A41 JUMP JUMPDEST DUP2 MSTORE PUSH1 0x20 ADD PUSH2 0x3402 PUSH3 0x51616 PUSH8 0xDE0B6B3A7640000 PUSH2 0x4A41 JUMP JUMPDEST DUP2 MSTORE PUSH1 0x20 ADD PUSH2 0x341C PUSH3 0x51616 PUSH8 0xDE0B6B3A7640000 PUSH2 0x4A41 JUMP JUMPDEST DUP2 MSTORE PUSH1 0x20 ADD PUSH2 0x3436 PUSH3 0x51616 PUSH8 0xDE0B6B3A7640000 PUSH2 0x4A41 JUMP JUMPDEST DUP2 MSTORE PUSH1 0x20 ADD PUSH2 0x3450 PUSH3 0x51616 PUSH8 0xDE0B6B3A7640000 PUSH2 0x4A41 JUMP JUMPDEST DUP2 MSTORE PUSH1 0x20 ADD PUSH2 0x346A PUSH3 0x51616 PUSH8 0xDE0B6B3A7640000 PUSH2 0x4A41 JUMP JUMPDEST DUP2 MSTORE PUSH1 0x20 ADD PUSH2 0x3484 PUSH3 0x51616 PUSH8 0xDE0B6B3A7640000 PUSH2 0x4A41 JUMP JUMPDEST DUP2 MSTORE PUSH1 0x20 ADD PUSH2 0x349E PUSH3 0x51616 PUSH8 0xDE0B6B3A7640000 PUSH2 0x4A41 JUMP JUMPDEST DUP2 MSTORE PUSH1 0x20 ADD PUSH2 0x34B8 PUSH3 0x51616 PUSH8 0xDE0B6B3A7640000 PUSH2 0x4A41 JUMP JUMPDEST DUP2 MSTORE PUSH1 0x20 ADD PUSH2 0x34D2 PUSH3 0x51616 PUSH8 0xDE0B6B3A7640000 PUSH2 0x4A41 JUMP JUMPDEST DUP2 MSTORE PUSH1 0x20 ADD PUSH2 0x34EC PUSH3 0x51616 PUSH8 0xDE0B6B3A7640000 PUSH2 0x4A41 JUMP JUMPDEST DUP2 MSTORE PUSH1 0x20 ADD PUSH2 0x3506 PUSH3 0x51616 PUSH8 0xDE0B6B3A7640000 PUSH2 0x4A41 JUMP JUMPDEST DUP2 MSTORE PUSH1 0x20 ADD PUSH2 0x3520 PUSH3 0x51616 PUSH8 0xDE0B6B3A7640000 PUSH2 0x4A41 JUMP JUMPDEST DUP2 MSTORE PUSH1 0x20 ADD PUSH2 0x353A PUSH3 0x51616 PUSH8 0xDE0B6B3A7640000 PUSH2 0x4A41 JUMP JUMPDEST DUP2 MSTORE PUSH1 0x20 ADD PUSH2 0x3554 PUSH3 0x51616 PUSH8 0xDE0B6B3A7640000 PUSH2 0x4A41 JUMP JUMPDEST DUP2 MSTORE PUSH1 0x20 ADD PUSH2 0x356E PUSH3 0x51616 PUSH8 0xDE0B6B3A7640000 PUSH2 0x4A41 JUMP JUMPDEST DUP2 MSTORE PUSH1 0x20 ADD PUSH2 0x3588 PUSH3 0x51616 PUSH8 0xDE0B6B3A7640000 PUSH2 0x4A41 JUMP JUMPDEST DUP2 MSTORE PUSH1 0x20 ADD PUSH2 0x35A2 PUSH3 0x51616 PUSH8 0xDE0B6B3A7640000 PUSH2 0x4A41 JUMP JUMPDEST DUP2 MSTORE PUSH1 0x20 ADD PUSH2 0x35BC PUSH3 0x51616 PUSH8 0xDE0B6B3A7640000 PUSH2 0x4A41 JUMP JUMPDEST DUP2 MSTORE PUSH1 0x20 ADD PUSH2 0x35D6 PUSH3 0x51616 PUSH8 0xDE0B6B3A7640000 PUSH2 0x4A41 JUMP JUMPDEST DUP2 MSTORE PUSH1 0x20 ADD PUSH2 0x35F0 PUSH3 0x51616 PUSH8 0xDE0B6B3A7640000 PUSH2 0x4A41 JUMP JUMPDEST DUP2 MSTORE PUSH1 0x20 ADD PUSH2 0x360A PUSH3 0x51616 PUSH8 0xDE0B6B3A7640000 PUSH2 0x4A41 JUMP JUMPDEST DUP2 MSTORE PUSH1 0x20 ADD PUSH2 0x3624 PUSH3 0x51616 PUSH8 0xDE0B6B3A7640000 PUSH2 0x4A41 JUMP JUMPDEST DUP2 MSTORE PUSH1 0x20 ADD PUSH2 0x363E PUSH3 0x51616 PUSH8 0xDE0B6B3A7640000 PUSH2 0x4A41 JUMP JUMPDEST DUP2 MSTORE PUSH1 0x20 ADD PUSH2 0x3658 PUSH3 0x51616 PUSH8 0xDE0B6B3A7640000 PUSH2 0x4A41 JUMP JUMPDEST DUP2 MSTORE PUSH1 0x20 ADD PUSH2 0x3672 PUSH3 0x51616 PUSH8 0xDE0B6B3A7640000 PUSH2 0x4A41 JUMP JUMPDEST DUP2 MSTORE PUSH1 0x20 ADD PUSH2 0x368C PUSH3 0x51616 PUSH8 0xDE0B6B3A7640000 PUSH2 0x4A41 JUMP JUMPDEST DUP2 MSTORE PUSH1 0x20 ADD PUSH2 0x36A6 PUSH3 0x51616 PUSH8 0xDE0B6B3A7640000 PUSH2 0x4A41 JUMP JUMPDEST DUP2 MSTORE PUSH1 0x20 ADD PUSH2 0x2395 PUSH3 0x51616 PUSH8 0xDE0B6B3A7640000 PUSH2 0x4A41 JUMP JUMPDEST PUSH2 0x36C8 PUSH2 0x4C1D JUMP JUMPDEST PUSH1 0x40 MLOAD DUP1 PUSH2 0x560 ADD PUSH1 0x40 MSTORE DUP1 PUSH2 0x36E9 PUSH3 0x51616 PUSH8 0xDE0B6B3A7640000 PUSH2 0x4A41 JUMP JUMPDEST DUP2 MSTORE PUSH1 0x20 ADD PUSH1 0x0 DUP2 MSTORE PUSH1 0x20 ADD PUSH1 0x0 DUP2 MSTORE PUSH1 0x20 ADD PUSH1 0x0 DUP2 MSTORE PUSH1 0x20 ADD PUSH2 0x3718 PUSH3 0x51616 PUSH8 0xDE0B6B3A7640000 PUSH2 0x4A41 JUMP JUMPDEST DUP2 MSTORE PUSH1 0x20 ADD PUSH1 0x0 DUP2 MSTORE PUSH1 0x20 ADD PUSH1 0x0 DUP2 MSTORE PUSH1 0x20 ADD PUSH2 0x3740 PUSH3 0x51616 PUSH8 0xDE0B6B3A7640000 PUSH2 0x4A41 JUMP JUMPDEST DUP2 MSTORE PUSH1 0x20 ADD PUSH1 0x0 DUP2 MSTORE PUSH1 0x20 ADD PUSH1 0x0 DUP2 MSTORE PUSH1 0x20 ADD PUSH2 0x3768 PUSH3 0x51616 PUSH8 0xDE0B6B3A7640000 PUSH2 0x4A41 JUMP JUMPDEST DUP2 MSTORE PUSH1 0x20 ADD PUSH1 0x0 DUP2 MSTORE PUSH1 0x20 ADD PUSH1 0x0 DUP2 MSTORE PUSH1 0x20 ADD PUSH2 0x3790 PUSH3 0x11A1F PUSH8 0xDE0B6B3A7640000 PUSH2 0x4A41 JUMP JUMPDEST DUP2 MSTORE PUSH1 0x20 ADD PUSH2 0x37AA PUSH3 0x11A1F PUSH8 0xDE0B6B3A7640000 PUSH2 0x4A41 JUMP JUMPDEST DUP2 MSTORE PUSH1 0x20 ADD PUSH2 0x37C4 PUSH3 0x11A1F PUSH8 0xDE0B6B3A7640000 PUSH2 0x4A41 JUMP JUMPDEST DUP2 MSTORE PUSH1 0x20 ADD PUSH2 0x37DE PUSH3 0x11A1F PUSH8 0xDE0B6B3A7640000 PUSH2 0x4A41 JUMP JUMPDEST DUP2 MSTORE PUSH1 0x20 ADD PUSH2 0x37F8 PUSH3 0x11A1F PUSH8 0xDE0B6B3A7640000 PUSH2 0x4A41 JUMP JUMPDEST DUP2 MSTORE PUSH1 0x20 ADD PUSH2 0x3812 PUSH3 0x11A1F PUSH8 0xDE0B6B3A7640000 PUSH2 0x4A41 JUMP JUMPDEST DUP2 MSTORE PUSH1 0x20 ADD PUSH2 0x382C PUSH3 0x11A1F PUSH8 0xDE0B6B3A7640000 PUSH2 0x4A41 JUMP JUMPDEST DUP2 MSTORE PUSH1 0x20 ADD PUSH2 0x3846 PUSH3 0x11A1F PUSH8 0xDE0B6B3A7640000 PUSH2 0x4A41 JUMP JUMPDEST DUP2 MSTORE PUSH1 0x20 ADD PUSH2 0x3860 PUSH3 0x11A1F PUSH8 0xDE0B6B3A7640000 PUSH2 0x4A41 JUMP JUMPDEST DUP2 MSTORE PUSH1 0x20 ADD PUSH2 0x387A PUSH3 0x11A1F PUSH8 0xDE0B6B3A7640000 PUSH2 0x4A41 JUMP JUMPDEST DUP2 MSTORE PUSH1 0x20 ADD PUSH2 0x3894 PUSH3 0x11A1F PUSH8 0xDE0B6B3A7640000 PUSH2 0x4A41 JUMP JUMPDEST DUP2 MSTORE PUSH1 0x20 ADD PUSH2 0x38AE PUSH3 0x11A1F PUSH8 0xDE0B6B3A7640000 PUSH2 0x4A41 JUMP JUMPDEST DUP2 MSTORE PUSH1 0x20 ADD PUSH2 0x38C8 PUSH3 0x11A1F PUSH8 0xDE0B6B3A7640000 PUSH2 0x4A41 JUMP JUMPDEST DUP2 MSTORE PUSH1 0x20 ADD PUSH2 0x38E2 PUSH3 0x11A1F PUSH8 0xDE0B6B3A7640000 PUSH2 0x4A41 JUMP JUMPDEST DUP2 MSTORE PUSH1 0x20 ADD PUSH2 0x38FC PUSH3 0x11A1F PUSH8 0xDE0B6B3A7640000 PUSH2 0x4A41 JUMP JUMPDEST DUP2 MSTORE PUSH1 0x20 ADD PUSH2 0x3916 PUSH3 0x11A1F PUSH8 0xDE0B6B3A7640000 PUSH2 0x4A41 JUMP JUMPDEST DUP2 MSTORE PUSH1 0x20 ADD PUSH2 0x3930 PUSH3 0x11A1F PUSH8 0xDE0B6B3A7640000 PUSH2 0x4A41 JUMP JUMPDEST DUP2 MSTORE PUSH1 0x20 ADD PUSH2 0x394A PUSH3 0x11A1F PUSH8 0xDE0B6B3A7640000 PUSH2 0x4A41 JUMP JUMPDEST DUP2 MSTORE PUSH1 0x20 ADD PUSH2 0x3964 PUSH3 0x11A1F PUSH8 0xDE0B6B3A7640000 PUSH2 0x4A41 JUMP JUMPDEST DUP2 MSTORE PUSH1 0x20 ADD PUSH2 0x397E PUSH3 0x11A1F PUSH8 0xDE0B6B3A7640000 PUSH2 0x4A41 JUMP JUMPDEST DUP2 MSTORE PUSH1 0x20 ADD PUSH2 0x3998 PUSH3 0x11A1F PUSH8 0xDE0B6B3A7640000 PUSH2 0x4A41 JUMP JUMPDEST DUP2 MSTORE PUSH1 0x20 ADD PUSH2 0x39B2 PUSH3 0x11A1F PUSH8 0xDE0B6B3A7640000 PUSH2 0x4A41 JUMP JUMPDEST DUP2 MSTORE PUSH1 0x20 ADD PUSH2 0x39CC PUSH3 0x11A1F PUSH8 0xDE0B6B3A7640000 PUSH2 0x4A41 JUMP JUMPDEST DUP2 MSTORE PUSH1 0x20 ADD PUSH2 0x39E6 PUSH3 0x11A1F PUSH8 0xDE0B6B3A7640000 PUSH2 0x4A41 JUMP JUMPDEST DUP2 MSTORE PUSH1 0x20 ADD PUSH2 0x3A00 PUSH3 0x11A1F PUSH8 0xDE0B6B3A7640000 PUSH2 0x4A41 JUMP JUMPDEST DUP2 MSTORE PUSH1 0x20 ADD PUSH2 0x3A1A PUSH3 0x11A1F PUSH8 0xDE0B6B3A7640000 PUSH2 0x4A41 JUMP JUMPDEST DUP2 MSTORE PUSH1 0x20 ADD PUSH2 0x3A34 PUSH3 0x11A1F PUSH8 0xDE0B6B3A7640000 PUSH2 0x4A41 JUMP JUMPDEST DUP2 MSTORE PUSH1 0x20 ADD PUSH2 0x3A4E PUSH3 0x11A1F PUSH8 0xDE0B6B3A7640000 PUSH2 0x4A41 JUMP JUMPDEST DUP2 MSTORE PUSH1 0x20 ADD PUSH2 0x3A68 PUSH3 0x11A1F PUSH8 0xDE0B6B3A7640000 PUSH2 0x4A41 JUMP JUMPDEST DUP2 MSTORE PUSH1 0x20 ADD PUSH2 0x2395 PUSH3 0x11A1F PUSH8 0xDE0B6B3A7640000 PUSH2 0x4A41 JUMP JUMPDEST PUSH1 0x1 PUSH1 0x1 PUSH1 0xA0 SHL SUB DUP3 AND PUSH1 0x0 SWAP1 DUP2 MSTORE PUSH1 0x9 PUSH1 0x20 MSTORE PUSH1 0x40 DUP2 KECCAK256 SLOAD PUSH1 0x8 DUP1 SLOAD DUP4 SWAP2 SWAP1 DUP4 SWAP1 DUP2 LT PUSH2 0x3AB2 JUMPI PUSH2 0x3AB2 PUSH2 0x4FC7 JUMP JUMPDEST SWAP1 PUSH1 0x0 MSTORE PUSH1 0x20 PUSH1 0x0 KECCAK256 SWAP1 PUSH1 0x3 MUL ADD PUSH1 0x2 ADD DUP5 DUP2 SLOAD DUP2 LT PUSH2 0x3AD4 JUMPI PUSH2 0x3AD4 PUSH2 0x4FC7 JUMP JUMPDEST PUSH1 0x0 SWAP2 DUP3 MSTORE PUSH1 0x20 SWAP2 DUP3 SWAP1 KECCAK256 PUSH1 0x40 DUP1 MLOAD PUSH1 0xE0 DUP2 ADD DUP3 MSTORE PUSH1 0x7 SWAP1 SWAP4 MUL SWAP1 SWAP2 ADD DUP1 SLOAD PUSH1 0x1 PUSH1 0x1 PUSH1 0xA0 SHL SUB AND DUP4 MSTORE PUSH1 0x1 DUP2 ADD SLOAD SWAP4 DUP4 ADD SWAP4 SWAP1 SWAP4 MSTORE PUSH1 0x2 DUP4 ADD SLOAD SWAP1 DUP3 ADD DUP2 SWAP1 MSTORE PUSH1 0x3 DUP4 ADD SLOAD PUSH1 0x60 DUP4 ADD MSTORE PUSH1 0x4 DUP4 ADD SLOAD PUSH1 0x80 DUP4 ADD MSTORE PUSH1 0x5 DUP4 ADD SLOAD PUSH1 0xA0 DUP4 ADD MSTORE PUSH1 0x6 SWAP1 SWAP3 ADD SLOAD PUSH1 0xC0 DUP3 ADD DUP2 SWAP1 MSTORE SWAP1 SWAP3 POP PUSH2 0x3B4D SWAP2 SWAP1 PUSH2 0x5064 JUMP JUMPDEST SWAP6 SWAP5 POP POP POP POP POP JUMP JUMPDEST PUSH1 0x1E DUP2 GT ISZERO PUSH2 0x3BBE JUMPI PUSH1 0x40 MLOAD PUSH3 0x461BCD PUSH1 0xE5 SHL DUP2 MSTORE PUSH1 0x20 PUSH1 0x4 DUP3 ADD MSTORE PUSH1 0x2E PUSH1 0x24 DUP3 ADD MSTORE PUSH32 0x5374616B61626C653A2050656E616C7479206665652063616E6E6F7420657863 PUSH1 0x44 DUP3 ADD MSTORE PUSH14 0x32B2B21019903832B931B2B73A17 PUSH1 0x91 SHL PUSH1 0x64 DUP3 ADD MSTORE PUSH1 0x84 ADD PUSH2 0xA68 JUMP JUMPDEST PUSH1 0x6 DUP2 SWAP1 SSTORE PUSH1 0x40 MLOAD DUP2 DUP2 MSTORE PUSH32 0xCFA4F4CF1CD64D13A167A8E75605E0C0C9D6700E903D17C5DC11F593254A04A9 SWAP1 PUSH1 0x20 ADD JUMPDEST PUSH1 0x40 MLOAD DUP1 SWAP2 SUB SWAP1 LOG1 POP JUMP JUMPDEST PUSH2 0x3C02 PUSH2 0x4C1D JUMP JUMPDEST PUSH1 0x40 MLOAD DUP1 PUSH2 0x560 ADD PUSH1 0x40 MSTORE DUP1 PUSH1 0x0 DUP2 MSTORE PUSH1 0x20 ADD PUSH1 0x0 DUP2 MSTORE PUSH1 0x20 ADD PUSH1 0x0 DUP2 MSTORE PUSH1 0x20 ADD PUSH1 0x0 DUP2 MSTORE PUSH1 0x20 ADD PUSH1 0x0 DUP2 MSTORE PUSH1 0x20 ADD PUSH1 0x0 DUP2 MSTORE PUSH1 0x20 ADD PUSH1 0x0 DUP2 MSTORE PUSH1 0x20 ADD PUSH2 0x3C53 PUSH8 0x4563918244F40000 PUSH2 0x1B51 PUSH2 0x1E8A JUMP JUMPDEST DUP2 MSTORE PUSH1 0x20 ADD PUSH2 0x3C6C PUSH8 0x4563918244F40000 PUSH2 0x1B51 PUSH2 0x1E8A JUMP JUMPDEST DUP2 MSTORE PUSH1 0x20 ADD PUSH2 0x3C85 PUSH8 0x4563918244F40000 PUSH2 0x1B51 PUSH2 0x1E8A JUMP JUMPDEST DUP2 MSTORE PUSH1 0x20 ADD PUSH2 0x3C9E PUSH8 0x4563918244F40000 PUSH2 0x1B51 PUSH2 0x1E8A JUMP JUMPDEST DUP2 MSTORE PUSH1 0x20 ADD PUSH2 0x3CB7 PUSH8 0x4563918244F40000 PUSH2 0x1B51 PUSH2 0x1E8A JUMP JUMPDEST DUP2 MSTORE PUSH1 0x20 ADD PUSH2 0x3CD0 PUSH8 0x4563918244F40000 PUSH2 0x1B51 PUSH2 0x1E8A JUMP JUMPDEST DUP2 MSTORE PUSH1 0x20 ADD PUSH2 0x3CE9 PUSH8 0x4563918244F40000 PUSH2 0x1B51 PUSH2 0x1E8A JUMP JUMPDEST DUP2 MSTORE PUSH1 0x20 ADD PUSH2 0x3D02 PUSH8 0x4563918244F40000 PUSH2 0x1B51 PUSH2 0x1E8A JUMP JUMPDEST DUP2 MSTORE PUSH1 0x20 ADD PUSH2 0x3D1B PUSH8 0x4563918244F40000 PUSH2 0x1B51 PUSH2 0x1E8A JUMP JUMPDEST DUP2 MSTORE PUSH1 0x20 ADD PUSH2 0x3D34 PUSH8 0x4563918244F40000 PUSH2 0x1B51 PUSH2 0x1E8A JUMP JUMPDEST DUP2 MSTORE PUSH1 0x20 ADD PUSH2 0x3D4D PUSH8 0x4563918244F40000 PUSH2 0x1B51 PUSH2 0x1E8A JUMP JUMPDEST DUP2 MSTORE PUSH1 0x20 ADD PUSH2 0x3D66 PUSH8 0x4563918244F40000 PUSH2 0x1B51 PUSH2 0x1E8A JUMP JUMPDEST DUP2 MSTORE PUSH1 0x20 ADD PUSH2 0x3D7F PUSH8 0x4563918244F40000 PUSH2 0x1B51 PUSH2 0x1E8A JUMP JUMPDEST DUP2 MSTORE PUSH1 0x20 ADD PUSH2 0x3D98 PUSH8 0x446AE0E136AD0000 PUSH2 0x1B51 PUSH2 0x1E8A JUMP JUMPDEST DUP2 MSTORE PUSH1 0x20 ADD PUSH1 0x0 DUP2 MSTORE PUSH1 0x20 ADD PUSH1 0x0 DUP2 MSTORE PUSH1 0x20 ADD PUSH1 0x0 DUP2 MSTORE PUSH1 0x20 ADD PUSH1 0x0 DUP2 MSTORE PUSH1 0x20 ADD PUSH1 0x0 DUP2 MSTORE PUSH1 0x20 ADD PUSH1 0x0 DUP2 MSTORE PUSH1 0x20 ADD PUSH1 0x0 DUP2 MSTORE PUSH1 0x20 ADD PUSH1 0x0 DUP2 MSTORE PUSH1 0x20 ADD PUSH1 0x0 DUP2 MSTORE PUSH1 0x20 ADD PUSH1 0x0 DUP2 MSTORE PUSH1 0x20 ADD PUSH1 0x0 DUP2 MSTORE PUSH1 0x20 ADD PUSH1 0x0 DUP2 MSTORE PUSH1 0x20 ADD PUSH1 0x0 DUP2 MSTORE PUSH1 0x20 ADD PUSH1 0x0 DUP2 MSTORE PUSH1 0x20 ADD PUSH1 0x0 DUP2 MSTORE PUSH1 0x20 ADD PUSH1 0x0 DUP2 MSTORE PUSH1 0x20 ADD PUSH1 0x0 DUP2 MSTORE PUSH1 0x20 ADD PUSH1 0x0 DUP2 MSTORE PUSH1 0x20 ADD PUSH1 0x0 DUP2 MSTORE PUSH1 0x20 ADD PUSH1 0x0 DUP2 MSTORE PUSH1 0x20 ADD PUSH1 0x0 DUP2 MSTORE PUSH1 0x20 ADD PUSH1 0x0 DUP2 MSTORE POP SWAP1 POP SWAP1 JUMP JUMPDEST PUSH2 0x3E42 PUSH2 0x4C1D JUMP JUMPDEST PUSH1 0x40 MLOAD DUP1 PUSH2 0x560 ADD PUSH1 0x40 MSTORE DUP1 PUSH2 0x3E63 PUSH3 0xF4240 PUSH8 0xDE0B6B3A7640000 PUSH2 0x4A41 JUMP JUMPDEST DUP2 MSTORE PUSH1 0x20 ADD PUSH1 0x0 DUP2 MSTORE PUSH1 0x20 ADD PUSH1 0x0 DUP2 MSTORE PUSH1 0x20 ADD PUSH1 0x0 DUP2 MSTORE PUSH1 0x20 ADD PUSH2 0x3E92 PUSH3 0xF4240 PUSH8 0xDE0B6B3A7640000 PUSH2 0x4A41 JUMP JUMPDEST DUP2 MSTORE PUSH1 0x20 ADD PUSH1 0x0 DUP2 MSTORE PUSH1 0x20 ADD PUSH1 0x0 DUP2 MSTORE PUSH1 0x20 ADD PUSH2 0x3EBA PUSH3 0xF4240 PUSH8 0xDE0B6B3A7640000 PUSH2 0x4A41 JUMP JUMPDEST DUP2 MSTORE PUSH1 0x20 ADD PUSH1 0x0 DUP2 MSTORE PUSH1 0x20 ADD PUSH1 0x0 DUP2 MSTORE PUSH1 0x20 ADD PUSH2 0x3EE2 PUSH3 0xF4240 PUSH8 0xDE0B6B3A7640000 PUSH2 0x4A41 JUMP JUMPDEST DUP2 MSTORE PUSH1 0x20 ADD PUSH1 0x0 DUP2 MSTORE PUSH1 0x20 ADD PUSH1 0x0 DUP2 MSTORE PUSH1 0x20 ADD PUSH2 0x3F0A PUSH3 0x51615 PUSH8 0xDE0B6B3A7640000 PUSH2 0x4A41 JUMP JUMPDEST DUP2 MSTORE PUSH1 0x20 ADD PUSH2 0x3F24 PUSH3 0x51615 PUSH8 0xDE0B6B3A7640000 PUSH2 0x4A41 JUMP JUMPDEST DUP2 MSTORE PUSH1 0x20 ADD PUSH2 0x3F3E PUSH3 0x51615 PUSH8 0xDE0B6B3A7640000 PUSH2 0x4A41 JUMP JUMPDEST DUP2 MSTORE PUSH1 0x20 ADD PUSH2 0x3F58 PUSH3 0x51615 PUSH8 0xDE0B6B3A7640000 PUSH2 0x4A41 JUMP JUMPDEST DUP2 MSTORE PUSH1 0x20 ADD PUSH2 0x3F72 PUSH3 0x51615 PUSH8 0xDE0B6B3A7640000 PUSH2 0x4A41 JUMP JUMPDEST DUP2 MSTORE PUSH1 0x20 ADD PUSH2 0x3F8C PUSH3 0x51615 PUSH8 0xDE0B6B3A7640000 PUSH2 0x4A41 JUMP JUMPDEST DUP2 MSTORE PUSH1 0x20 ADD PUSH2 0x3FA6 PUSH3 0x51615 PUSH8 0xDE0B6B3A7640000 PUSH2 0x4A41 JUMP JUMPDEST DUP2 MSTORE PUSH1 0x20 ADD PUSH2 0x3FC0 PUSH3 0x51615 PUSH8 0xDE0B6B3A7640000 PUSH2 0x4A41 JUMP JUMPDEST DUP2 MSTORE PUSH1 0x20 ADD PUSH2 0x3FDA PUSH3 0x51615 PUSH8 0xDE0B6B3A7640000 PUSH2 0x4A41 JUMP JUMPDEST DUP2 MSTORE PUSH1 0x20 ADD PUSH2 0x3FF4 PUSH3 0x51615 PUSH8 0xDE0B6B3A7640000 PUSH2 0x4A41 JUMP JUMPDEST DUP2 MSTORE PUSH1 0x20 ADD PUSH2 0x400E PUSH3 0x51615 PUSH8 0xDE0B6B3A7640000 PUSH2 0x4A41 JUMP JUMPDEST DUP2 MSTORE PUSH1 0x20 ADD PUSH2 0x4028 PUSH3 0x51615 PUSH8 0xDE0B6B3A7640000 PUSH2 0x4A41 JUMP JUMPDEST DUP2 MSTORE PUSH1 0x20 ADD PUSH2 0x4042 PUSH3 0x51615 PUSH8 0xDE0B6B3A7640000 PUSH2 0x4A41 JUMP JUMPDEST DUP2 MSTORE PUSH1 0x20 ADD PUSH2 0x405C PUSH3 0x51615 PUSH8 0xDE0B6B3A7640000 PUSH2 0x4A41 JUMP JUMPDEST DUP2 MSTORE PUSH1 0x20 ADD PUSH2 0x4076 PUSH3 0x51615 PUSH8 0xDE0B6B3A7640000 PUSH2 0x4A41 JUMP JUMPDEST DUP2 MSTORE PUSH1 0x20 ADD PUSH2 0x4090 PUSH3 0x51615 PUSH8 0xDE0B6B3A7640000 PUSH2 0x4A41 JUMP JUMPDEST DUP2 MSTORE PUSH1 0x20 ADD PUSH2 0x40AA PUSH3 0x51615 PUSH8 0xDE0B6B3A7640000 PUSH2 0x4A41 JUMP JUMPDEST DUP2 MSTORE PUSH1 0x20 ADD PUSH2 0x40C4 PUSH3 0x51615 PUSH8 0xDE0B6B3A7640000 PUSH2 0x4A41 JUMP JUMPDEST DUP2 MSTORE PUSH1 0x20 ADD PUSH2 0x40DE PUSH3 0x51615 PUSH8 0xDE0B6B3A7640000 PUSH2 0x4A41 JUMP JUMPDEST DUP2 MSTORE PUSH1 0x20 ADD PUSH2 0x40F8 PUSH3 0x51615 PUSH8 0xDE0B6B3A7640000 PUSH2 0x4A41 JUMP JUMPDEST DUP2 MSTORE PUSH1 0x20 ADD PUSH2 0x4112 PUSH3 0x51615 PUSH8 0xDE0B6B3A7640000 PUSH2 0x4A41 JUMP JUMPDEST DUP2 MSTORE PUSH1 0x20 ADD PUSH2 0x412C PUSH3 0x51615 PUSH8 0xDE0B6B3A7640000 PUSH2 0x4A41 JUMP JUMPDEST DUP2 MSTORE PUSH1 0x20 ADD PUSH2 0x4146 PUSH3 0x51615 PUSH8 0xDE0B6B3A7640000 PUSH2 0x4A41 JUMP JUMPDEST DUP2 MSTORE PUSH1 0x20 ADD PUSH2 0x4160 PUSH3 0x51615 PUSH8 0xDE0B6B3A7640000 PUSH2 0x4A41 JUMP JUMPDEST DUP2 MSTORE PUSH1 0x20 ADD PUSH2 0x417A PUSH3 0x51615 PUSH8 0xDE0B6B3A7640000 PUSH2 0x4A41 JUMP JUMPDEST DUP2 MSTORE PUSH1 0x20 ADD PUSH2 0x4194 PUSH3 0x51615 PUSH8 0xDE0B6B3A7640000 PUSH2 0x4A41 JUMP JUMPDEST DUP2 MSTORE PUSH1 0x20 ADD PUSH2 0x41AE PUSH3 0x51615 PUSH8 0xDE0B6B3A7640000 PUSH2 0x4A41 JUMP JUMPDEST DUP2 MSTORE PUSH1 0x20 ADD PUSH2 0x41C8 PUSH3 0x51615 PUSH8 0xDE0B6B3A7640000 PUSH2 0x4A41 JUMP JUMPDEST DUP2 MSTORE PUSH1 0x20 ADD PUSH2 0x41E2 PUSH3 0x51615 PUSH8 0xDE0B6B3A7640000 PUSH2 0x4A41 JUMP JUMPDEST DUP2 MSTORE PUSH1 0x20 ADD PUSH2 0x2395 PUSH3 0x51615 PUSH8 0xDE0B6B3A7640000 PUSH2 0x4A41 JUMP JUMPDEST PUSH1 0xC8 DUP2 GT ISZERO PUSH2 0x426C JUMPI PUSH1 0x40 MLOAD PUSH3 0x461BCD PUSH1 0xE5 SHL DUP2 MSTORE PUSH1 0x20 PUSH1 0x4 DUP3 ADD MSTORE PUSH1 0x36 PUSH1 0x24 DUP3 ADD MSTORE PUSH32 0x5374616B61626C653A2041697264726F702050657263656E746167652063616E PUSH1 0x44 DUP3 ADD MSTORE PUSH22 0x3737BA1032BC31B2B2B2101918103832B931B2B73A17 PUSH1 0x51 SHL PUSH1 0x64 DUP3 ADD MSTORE PUSH1 0x84 ADD PUSH2 0xA68 JUMP JUMPDEST PUSH1 0x7 DUP2 SWAP1 SSTORE PUSH1 0x40 MLOAD DUP2 DUP2 MSTORE PUSH32 0xCC672F1026B958C0CFBFDD89EBE8DDCBC127F16EC24DA6C2C7A4DE26A8B1857E SWAP1 PUSH1 0x20 ADD PUSH2 0x3BEF JUMP JUMPDEST ADDRESS PUSH1 0x0 SWAP1 DUP2 MSTORE PUSH1 0xA PUSH1 0x20 MSTORE PUSH1 0x40 SWAP1 KECCAK256 SLOAD PUSH2 0x42BB SWAP1 DUP3 PUSH2 0x1E96 JUMP JUMPDEST ADDRESS PUSH1 0x0 SWAP1 DUP2 MSTORE PUSH1 0xA PUSH1 0x20 MSTORE PUSH1 0x40 SWAP1 KECCAK256 SSTORE PUSH1 0xC SLOAD PUSH2 0xAFB SWAP1 DUP3 PUSH2 0x1E96 JUMP JUMPDEST PUSH1 0x0 DUP3 PUSH1 0x20 ADD MLOAD PUSH1 0x0 EQ ISZERO PUSH2 0x42EF JUMPI POP PUSH1 0x0 PUSH2 0xA38 JUMP JUMPDEST PUSH11 0x52B7D2DCC80CD2E4000000 PUSH2 0x4308 DUP5 PUSH1 0x40 ADD MLOAD PUSH2 0x4AFF JUMP JUMPDEST PUSH1 0xA0 DUP6 ADD MLOAD PUSH2 0x4317 SWAP1 DUP6 PUSH2 0x507B JUMP JUMPDEST PUSH2 0x4321 SWAP2 SWAP1 PUSH2 0x507B JUMP JUMPDEST PUSH2 0x12F4 SWAP2 SWAP1 PUSH2 0x5042 JUMP JUMPDEST CALLER PUSH1 0x0 SWAP1 DUP2 MSTORE PUSH1 0x9 PUSH1 0x20 MSTORE PUSH1 0x40 DUP2 KECCAK256 SLOAD PUSH1 0x8 DUP1 SLOAD DUP4 SWAP3 SWAP2 DUP4 SWAP2 DUP4 SWAP1 DUP2 LT PUSH2 0x4354 JUMPI PUSH2 0x4354 PUSH2 0x4FC7 JUMP JUMPDEST SWAP1 PUSH1 0x0 MSTORE PUSH1 0x20 PUSH1 0x0 KECCAK256 SWAP1 PUSH1 0x3 MUL ADD PUSH1 0x2 ADD DUP6 DUP2 SLOAD DUP2 LT PUSH2 0x4376 JUMPI PUSH2 0x4376 PUSH2 0x4FC7 JUMP JUMPDEST SWAP1 PUSH1 0x0 MSTORE PUSH1 0x20 PUSH1 0x0 KECCAK256 SWAP1 PUSH1 0x7 MUL ADD SWAP1 POP DUP6 DUP2 PUSH1 0x1 ADD SLOAD LT ISZERO PUSH2 0x43F6 JUMPI PUSH1 0x40 MLOAD PUSH3 0x461BCD PUSH1 0xE5 SHL DUP2 MSTORE PUSH1 0x20 PUSH1 0x4 DUP3 ADD MSTORE PUSH1 0x33 PUSH1 0x24 DUP3 ADD MSTORE PUSH32 0x5374616B61626C653A2043616E6E6F74207769746864726177206D6F72652074 PUSH1 0x44 DUP3 ADD MSTORE PUSH19 0x1A185B881E5BDD481A185D99481CDD185AD959 PUSH1 0x6A SHL PUSH1 0x64 DUP3 ADD MSTORE PUSH1 0x84 ADD PUSH2 0xA68 JUMP JUMPDEST PUSH1 0x40 DUP1 MLOAD PUSH1 0xE0 DUP2 ADD DUP3 MSTORE DUP3 SLOAD PUSH1 0x1 PUSH1 0x1 PUSH1 0xA0 SHL SUB AND DUP2 MSTORE PUSH1 0x1 DUP4 ADD SLOAD PUSH1 0x20 DUP3 ADD MSTORE PUSH1 0x2 DUP4 ADD SLOAD SWAP2 DUP2 ADD SWAP2 SWAP1 SWAP2 MSTORE PUSH1 0x3 DUP3 ADD SLOAD PUSH1 0x60 DUP3 ADD MSTORE PUSH1 0x4 DUP3 ADD SLOAD PUSH1 0x80 DUP3 ADD MSTORE PUSH1 0x5 DUP3 ADD SLOAD PUSH1 0xA0 DUP3 ADD MSTORE PUSH1 0x6 DUP3 ADD SLOAD PUSH1 0xC0 DUP3 ADD MSTORE PUSH1 0x0 SWAP1 PUSH2 0x4458 SWAP1 DUP9 PUSH2 0x42D8 JUMP JUMPDEST SWAP1 POP PUSH1 0x0 DUP3 PUSH1 0x2 ADD SLOAD DUP4 PUSH1 0x6 ADD SLOAD PUSH2 0x4470 SWAP2 SWAP1 PUSH2 0x5064 JUMP JUMPDEST SWAP1 POP TIMESTAMP DUP4 PUSH1 0x6 ADD SLOAD LT ISZERO PUSH2 0x4623 JUMPI DUP8 DUP4 PUSH1 0x1 ADD PUSH1 0x0 DUP3 DUP3 SLOAD PUSH2 0x4492 SWAP2 SWAP1 PUSH2 0x5064 JUMP JUMPDEST SWAP1 SWAP2 SSTORE POP POP PUSH1 0x1 DUP4 ADD SLOAD PUSH2 0x451E JUMPI PUSH1 0x8 DUP5 DUP2 SLOAD DUP2 LT PUSH2 0x44B3 JUMPI PUSH2 0x44B3 PUSH2 0x4FC7 JUMP JUMPDEST SWAP1 PUSH1 0x0 MSTORE PUSH1 0x20 PUSH1 0x0 KECCAK256 SWAP1 PUSH1 0x3 MUL ADD PUSH1 0x2 ADD DUP8 DUP2 SLOAD DUP2 LT PUSH2 0x44D5 JUMPI PUSH2 0x44D5 PUSH2 0x4FC7 JUMP JUMPDEST PUSH1 0x0 SWAP2 DUP3 MSTORE PUSH1 0x20 DUP3 KECCAK256 PUSH1 0x7 SWAP1 SWAP2 MUL ADD DUP1 SLOAD PUSH1 0x1 PUSH1 0x1 PUSH1 0xA0 SHL SUB NOT AND DUP2 SSTORE PUSH1 0x1 DUP2 ADD DUP3 SWAP1 SSTORE PUSH1 0x2 DUP2 ADD DUP3 SWAP1 SSTORE PUSH1 0x3 DUP2 ADD DUP3 SWAP1 SSTORE PUSH1 0x4 DUP2 ADD DUP3 SWAP1 SSTORE PUSH1 0x5 DUP2 ADD DUP3 SWAP1 SSTORE PUSH1 0x6 ADD SSTORE PUSH2 0x460C JUMP JUMPDEST DUP3 PUSH1 0x1 ADD SLOAD PUSH1 0x8 DUP6 DUP2 SLOAD DUP2 LT PUSH2 0x4536 JUMPI PUSH2 0x4536 PUSH2 0x4FC7 JUMP JUMPDEST SWAP1 PUSH1 0x0 MSTORE PUSH1 0x20 PUSH1 0x0 KECCAK256 SWAP1 PUSH1 0x3 MUL ADD PUSH1 0x2 ADD DUP9 DUP2 SLOAD DUP2 LT PUSH2 0x4558 JUMPI PUSH2 0x4558 PUSH2 0x4FC7 JUMP JUMPDEST SWAP1 PUSH1 0x0 MSTORE PUSH1 0x20 PUSH1 0x0 KECCAK256 SWAP1 PUSH1 0x7 MUL ADD PUSH1 0x1 ADD DUP2 SWAP1 SSTORE POP TIMESTAMP PUSH1 0x8 DUP6 DUP2 SLOAD DUP2 LT PUSH2 0x4581 JUMPI PUSH2 0x4581 PUSH2 0x4FC7 JUMP JUMPDEST SWAP1 PUSH1 0x0 MSTORE PUSH1 0x20 PUSH1 0x0 KECCAK256 SWAP1 PUSH1 0x3 MUL ADD PUSH1 0x2 ADD DUP9 DUP2 SLOAD DUP2 LT PUSH2 0x45A3 JUMPI PUSH2 0x45A3 PUSH2 0x4FC7 JUMP JUMPDEST PUSH1 0x0 SWAP2 DUP3 MSTORE PUSH1 0x20 SWAP1 SWAP2 KECCAK256 PUSH1 0x2 PUSH1 0x7 SWAP1 SWAP3 MUL ADD ADD SSTORE PUSH2 0x45C1 DUP2 TIMESTAMP PUSH2 0x4FAF JUMP JUMPDEST PUSH1 0x8 DUP6 DUP2 SLOAD DUP2 LT PUSH2 0x45D4 JUMPI PUSH2 0x45D4 PUSH2 0x4FC7 JUMP JUMPDEST SWAP1 PUSH1 0x0 MSTORE PUSH1 0x20 PUSH1 0x0 KECCAK256 SWAP1 PUSH1 0x3 MUL ADD PUSH1 0x2 ADD DUP9 DUP2 SLOAD DUP2 LT PUSH2 0x45F6 JUMPI PUSH2 0x45F6 PUSH2 0x4FC7 JUMP JUMPDEST SWAP1 PUSH1 0x0 MSTORE PUSH1 0x20 PUSH1 0x0 KECCAK256 SWAP1 PUSH1 0x7 MUL ADD PUSH1 0x6 ADD DUP2 SWAP1 SSTORE POP JUMPDEST PUSH2 0x4616 DUP9 DUP4 PUSH2 0x4B94 JUMP JUMPDEST SWAP6 POP SWAP6 POP POP POP POP POP PUSH2 0x47BA JUMP JUMPDEST DUP8 DUP4 PUSH1 0x1 ADD PUSH1 0x0 DUP3 DUP3 SLOAD PUSH2 0x4637 SWAP2 SWAP1 PUSH2 0x5064 JUMP JUMPDEST SWAP1 SWAP2 SSTORE POP POP PUSH1 0x1 DUP4 ADD SLOAD PUSH2 0x46C3 JUMPI PUSH1 0x8 DUP5 DUP2 SLOAD DUP2 LT PUSH2 0x4658 JUMPI PUSH2 0x4658 PUSH2 0x4FC7 JUMP JUMPDEST SWAP1 PUSH1 0x0 MSTORE PUSH1 0x20 PUSH1 0x0 KECCAK256 SWAP1 PUSH1 0x3 MUL ADD PUSH1 0x2 ADD DUP8 DUP2 SLOAD DUP2 LT PUSH2 0x467A JUMPI PUSH2 0x467A PUSH2 0x4FC7 JUMP JUMPDEST PUSH1 0x0 SWAP2 DUP3 MSTORE PUSH1 0x20 DUP3 KECCAK256 PUSH1 0x7 SWAP1 SWAP2 MUL ADD DUP1 SLOAD PUSH1 0x1 PUSH1 0x1 PUSH1 0xA0 SHL SUB NOT AND DUP2 SSTORE PUSH1 0x1 DUP2 ADD DUP3 SWAP1 SSTORE PUSH1 0x2 DUP2 ADD DUP3 SWAP1 SSTORE PUSH1 0x3 DUP2 ADD DUP3 SWAP1 SSTORE PUSH1 0x4 DUP2 ADD DUP3 SWAP1 SSTORE PUSH1 0x5 DUP2 ADD DUP3 SWAP1 SSTORE PUSH1 0x6 ADD SSTORE PUSH2 0x47B1 JUMP JUMPDEST DUP3 PUSH1 0x1 ADD SLOAD PUSH1 0x8 DUP6 DUP2 SLOAD DUP2 LT PUSH2 0x46DB JUMPI PUSH2 0x46DB PUSH2 0x4FC7 JUMP JUMPDEST SWAP1 PUSH1 0x0 MSTORE PUSH1 0x20 PUSH1 0x0 KECCAK256 SWAP1 PUSH1 0x3 MUL ADD PUSH1 0x2 ADD DUP9 DUP2 SLOAD DUP2 LT PUSH2 0x46FD JUMPI PUSH2 0x46FD PUSH2 0x4FC7 JUMP JUMPDEST SWAP1 PUSH1 0x0 MSTORE PUSH1 0x20 PUSH1 0x0 KECCAK256 SWAP1 PUSH1 0x7 MUL ADD PUSH1 0x1 ADD DUP2 SWAP1 SSTORE POP TIMESTAMP PUSH1 0x8 DUP6 DUP2 SLOAD DUP2 LT PUSH2 0x4726 JUMPI PUSH2 0x4726 PUSH2 0x4FC7 JUMP JUMPDEST SWAP1 PUSH1 0x0 MSTORE PUSH1 0x20 PUSH1 0x0 KECCAK256 SWAP1 PUSH1 0x3 MUL ADD PUSH1 0x2 ADD DUP9 DUP2 SLOAD DUP2 LT PUSH2 0x4748 JUMPI PUSH2 0x4748 PUSH2 0x4FC7 JUMP JUMPDEST PUSH1 0x0 SWAP2 DUP3 MSTORE PUSH1 0x20 SWAP1 SWAP2 KECCAK256 PUSH1 0x2 PUSH1 0x7 SWAP1 SWAP3 MUL ADD ADD SSTORE PUSH2 0x4766 DUP2 TIMESTAMP PUSH2 0x4FAF JUMP JUMPDEST PUSH1 0x8 DUP6 DUP2 SLOAD DUP2 LT PUSH2 0x4779 JUMPI PUSH2 0x4779 PUSH2 0x4FC7 JUMP JUMPDEST SWAP1 PUSH1 0x0 MSTORE PUSH1 0x20 PUSH1 0x0 KECCAK256 SWAP1 PUSH1 0x3 MUL ADD PUSH1 0x2 ADD DUP9 DUP2 SLOAD DUP2 LT PUSH2 0x479B JUMPI PUSH2 0x479B PUSH2 0x4FC7 JUMP JUMPDEST SWAP1 PUSH1 0x0 MSTORE PUSH1 0x20 PUSH1 0x0 KECCAK256 SWAP1 PUSH1 0x7 MUL ADD PUSH1 0x6 ADD DUP2 SWAP1 SSTORE POP JUMPDEST POP DUP7 SWAP5 POP SWAP3 POP POP POP JUMPDEST SWAP3 POP SWAP3 SWAP1 POP JUMP JUMPDEST CALLER PUSH1 0x0 SWAP1 DUP2 MSTORE PUSH1 0x9 PUSH1 0x20 MSTORE PUSH1 0x40 DUP2 KECCAK256 SLOAD PUSH1 0x8 DUP1 SLOAD DUP4 SWAP3 SWAP2 DUP4 SWAP2 DUP4 SWAP1 DUP2 LT PUSH2 0x47EA JUMPI PUSH2 0x47EA PUSH2 0x4FC7 JUMP JUMPDEST SWAP1 PUSH1 0x0 MSTORE PUSH1 0x20 PUSH1 0x0 KECCAK256 SWAP1 PUSH1 0x3 MUL ADD PUSH1 0x2 ADD DUP6 DUP2 SLOAD DUP2 LT PUSH2 0x480C JUMPI PUSH2 0x480C PUSH2 0x4FC7 JUMP JUMPDEST SWAP1 PUSH1 0x0 MSTORE PUSH1 0x20 PUSH1 0x0 KECCAK256 SWAP1 PUSH1 0x7 MUL ADD SWAP1 POP PUSH1 0x0 DUP2 PUSH1 0x1 ADD SLOAD GT PUSH2 0x48A0 JUMPI PUSH1 0x40 MLOAD PUSH3 0x461BCD PUSH1 0xE5 SHL DUP2 MSTORE PUSH1 0x20 PUSH1 0x4 DUP3 ADD MSTORE PUSH1 0x41 PUSH1 0x24 DUP3 ADD MSTORE PUSH32 0x5374616B61626C653A2043616E6E6F742077697468647261772C20796F752064 PUSH1 0x44 DUP3 ADD MSTORE PUSH32 0x6F6E2774206861766520616E79207374616B6520696E207468697320496E6465 PUSH1 0x64 DUP3 ADD MSTORE PUSH1 0xF PUSH1 0xFB SHL PUSH1 0x84 DUP3 ADD MSTORE PUSH1 0xA4 ADD PUSH2 0xA68 JUMP JUMPDEST PUSH1 0x1 DUP2 ADD SLOAD PUSH1 0x40 DUP1 MLOAD PUSH1 0xE0 DUP2 ADD DUP3 MSTORE DUP4 SLOAD PUSH1 0x1 PUSH1 0x1 PUSH1 0xA0 SHL SUB AND DUP2 MSTORE PUSH1 0x20 DUP2 ADD DUP4 SWAP1 MSTORE PUSH1 0x2 DUP5 ADD SLOAD SWAP2 DUP2 ADD SWAP2 SWAP1 SWAP2 MSTORE PUSH1 0x3 DUP4 ADD SLOAD PUSH1 0x60 DUP3 ADD MSTORE PUSH1 0x4 DUP4 ADD SLOAD PUSH1 0x80 DUP3 ADD MSTORE PUSH1 0x5 DUP4 ADD SLOAD PUSH1 0xA0 DUP3 ADD MSTORE PUSH1 0x6 DUP4 ADD SLOAD PUSH1 0xC0 DUP3 ADD MSTORE PUSH1 0x0 SWAP1 PUSH2 0x4904 SWAP1 DUP4 PUSH2 0x42D8 JUMP JUMPDEST SWAP1 POP TIMESTAMP DUP4 PUSH1 0x6 ADD SLOAD LT ISZERO PUSH2 0x49BC JUMPI DUP2 DUP4 PUSH1 0x1 ADD PUSH1 0x0 DUP3 DUP3 SLOAD PUSH2 0x4926 SWAP2 SWAP1 PUSH2 0x5064 JUMP JUMPDEST SWAP1 SWAP2 SSTORE POP POP PUSH1 0x8 DUP1 SLOAD DUP6 SWAP1 DUP2 LT PUSH2 0x493F JUMPI PUSH2 0x493F PUSH2 0x4FC7 JUMP JUMPDEST SWAP1 PUSH1 0x0 MSTORE PUSH1 0x20 PUSH1 0x0 KECCAK256 SWAP1 PUSH1 0x3 MUL ADD PUSH1 0x2 ADD DUP8 DUP2 SLOAD DUP2 LT PUSH2 0x4961 JUMPI PUSH2 0x4961 PUSH2 0x4FC7 JUMP JUMPDEST PUSH1 0x0 SWAP2 DUP3 MSTORE PUSH1 0x20 DUP3 KECCAK256 PUSH1 0x7 SWAP1 SWAP2 MUL ADD DUP1 SLOAD PUSH1 0x1 PUSH1 0x1 PUSH1 0xA0 SHL SUB NOT AND DUP2 SSTORE PUSH1 0x1 DUP2 ADD DUP3 SWAP1 SSTORE PUSH1 0x2 DUP2 ADD DUP3 SWAP1 SSTORE PUSH1 0x3 DUP2 ADD DUP3 SWAP1 SSTORE PUSH1 0x4 DUP2 ADD DUP3 SWAP1 SSTORE PUSH1 0x5 DUP2 ADD DUP3 SWAP1 SSTORE PUSH1 0x6 ADD SSTORE PUSH2 0x49AF DUP3 DUP3 PUSH2 0x4B94 JUMP JUMPDEST SWAP6 POP SWAP6 POP POP POP POP POP SWAP2 POP SWAP2 JUMP JUMPDEST PUSH1 0x8 DUP5 DUP2 SLOAD DUP2 LT PUSH2 0x49CF JUMPI PUSH2 0x49CF PUSH2 0x4FC7 JUMP JUMPDEST SWAP1 PUSH1 0x0 MSTORE PUSH1 0x20 PUSH1 0x0 KECCAK256 SWAP1 PUSH1 0x3 MUL ADD PUSH1 0x2 ADD DUP8 DUP2 SLOAD DUP2 LT PUSH2 0x49F1 JUMPI PUSH2 0x49F1 PUSH2 0x4FC7 JUMP JUMPDEST PUSH1 0x0 SWAP2 DUP3 MSTORE PUSH1 0x20 DUP3 KECCAK256 PUSH1 0x7 SWAP1 SWAP2 MUL ADD DUP1 SLOAD PUSH1 0x1 PUSH1 0x1 PUSH1 0xA0 SHL SUB NOT AND DUP2 SSTORE PUSH1 0x1 DUP2 ADD DUP3 SWAP1 SSTORE PUSH1 0x2 DUP2 ADD DUP3 SWAP1 SSTORE PUSH1 0x3 DUP2 ADD DUP3 SWAP1 SSTORE PUSH1 0x4 DUP2 ADD DUP3 SWAP1 SSTORE PUSH1 0x5 DUP2 ADD DUP3 SWAP1 SSTORE PUSH1 0x6 ADD SSTORE SWAP1 SWAP7 SWAP1 SWAP6 POP SWAP4 POP POP POP POP JUMP JUMPDEST PUSH1 0x0 PUSH2 0x12F4 DUP3 DUP5 PUSH2 0x507B JUMP JUMPDEST PUSH1 0x8 DUP1 SLOAD PUSH1 0x1 SWAP1 DUP2 ADD DUP1 DUP4 SSTORE PUSH1 0x0 SWAP3 DUP4 MSTORE DUP3 SWAP2 PUSH2 0x4A69 SWAP2 PUSH2 0x5064 JUMP JUMPDEST SWAP1 POP DUP3 PUSH1 0x8 DUP3 DUP2 SLOAD DUP2 LT PUSH2 0x4A7F JUMPI PUSH2 0x4A7F PUSH2 0x4FC7 JUMP JUMPDEST SWAP1 PUSH1 0x0 MSTORE PUSH1 0x20 PUSH1 0x0 KECCAK256 SWAP1 PUSH1 0x3 MUL ADD PUSH1 0x0 ADD PUSH1 0x0 PUSH2 0x100 EXP DUP2 SLOAD DUP2 PUSH1 0x1 PUSH1 0x1 PUSH1 0xA0 SHL SUB MUL NOT AND SWAP1 DUP4 PUSH1 0x1 PUSH1 0x1 PUSH1 0xA0 SHL SUB AND MUL OR SWAP1 SSTORE POP TIMESTAMP PUSH1 0x8 DUP3 DUP2 SLOAD DUP2 LT PUSH2 0x4AC8 JUMPI PUSH2 0x4AC8 PUSH2 0x4FC7 JUMP JUMPDEST PUSH1 0x0 SWAP2 DUP3 MSTORE PUSH1 0x20 DUP1 DUP4 KECCAK256 PUSH1 0x1 PUSH1 0x3 SWAP1 SWAP4 MUL ADD SWAP2 SWAP1 SWAP2 ADD SWAP3 SWAP1 SWAP3 SSTORE PUSH1 0x1 PUSH1 0x1 PUSH1 0xA0 SHL SUB SWAP1 SWAP5 AND DUP5 MSTORE PUSH1 0x9 SWAP1 MSTORE PUSH1 0x40 SWAP1 SWAP3 KECCAK256 DUP3 SWAP1 SSTORE POP SWAP1 JUMP JUMPDEST PUSH1 0x0 DUP1 DUP3 GT PUSH2 0x4B50 JUMPI PUSH1 0x40 MLOAD PUSH3 0x461BCD PUSH1 0xE5 SHL DUP2 MSTORE PUSH1 0x20 PUSH1 0x4 DUP3 ADD MSTORE PUSH1 0x1B PUSH1 0x24 DUP3 ADD MSTORE PUSH32 0x5374616B61626C653A204572726F722074696D657374616D7020300000000000 PUSH1 0x44 DUP3 ADD MSTORE PUSH1 0x64 ADD PUSH2 0xA68 JUMP JUMPDEST PUSH2 0xA38 PUSH2 0x4B5D DUP4 TIMESTAMP PUSH2 0x5064 JUMP JUMPDEST PUSH2 0x4B71 SWAP1 PUSH10 0xD3C21BCECCEDA1000000 PUSH2 0x507B JUMP JUMPDEST PUSH4 0x1E13380 PUSH1 0x40 MLOAD DUP1 PUSH1 0x60 ADD PUSH1 0x40 MSTORE DUP1 PUSH1 0x27 DUP2 MSTORE PUSH1 0x20 ADD PUSH2 0x50B6 PUSH1 0x27 SWAP2 CODECOPY PUSH2 0x4BE3 JUMP JUMPDEST PUSH1 0x0 DUP1 DUP4 PUSH2 0x4BA7 JUMPI POP PUSH1 0x0 SWAP1 POP DUP1 PUSH2 0x47BA JUMP JUMPDEST PUSH2 0x4BC2 DUP5 PUSH2 0x4BBD DUP7 PUSH2 0x2589 PUSH1 0x6 SLOAD PUSH2 0x3E8 PUSH2 0x1E8A JUMP JUMPDEST PUSH2 0x1FC7 JUMP JUMPDEST PUSH2 0x4BD8 DUP5 PUSH2 0x4BBD DUP7 PUSH2 0x2589 PUSH1 0x6 SLOAD PUSH2 0x3E8 PUSH2 0x1E8A JUMP JUMPDEST SWAP2 POP SWAP2 POP SWAP3 POP SWAP3 SWAP1 POP JUMP JUMPDEST PUSH1 0x0 DUP2 DUP4 PUSH2 0x4C04 JUMPI PUSH1 0x40 MLOAD PUSH3 0x461BCD PUSH1 0xE5 SHL DUP2 MSTORE PUSH1 0x4 ADD PUSH2 0xA68 SWAP2 SWAP1 PUSH2 0x4C3C JUMP JUMPDEST POP DUP3 DUP5 DUP2 PUSH2 0x4C14 JUMPI PUSH2 0x4C14 PUSH2 0x502C JUMP JUMPDEST DIV SWAP5 SWAP4 POP POP POP POP JUMP JUMPDEST PUSH1 0x40 MLOAD DUP1 PUSH2 0x560 ADD PUSH1 0x40 MSTORE DUP1 PUSH1 0x2B SWAP1 PUSH1 0x20 DUP3 MUL DUP1 CALLDATASIZE DUP4 CALLDATACOPY POP SWAP2 SWAP3 SWAP2 POP POP JUMP JUMPDEST PUSH1 0x0 PUSH1 0x20 DUP1 DUP4 MSTORE DUP4 MLOAD DUP1 DUP3 DUP6 ADD MSTORE PUSH1 0x0 JUMPDEST DUP2 DUP2 LT ISZERO PUSH2 0x4C69 JUMPI DUP6 DUP2 ADD DUP4 ADD MLOAD DUP6 DUP3 ADD PUSH1 0x40 ADD MSTORE DUP3 ADD PUSH2 0x4C4D JUMP JUMPDEST DUP2 DUP2 GT ISZERO PUSH2 0x4C7B JUMPI PUSH1 0x0 PUSH1 0x40 DUP4 DUP8 ADD ADD MSTORE JUMPDEST POP PUSH1 0x1F ADD PUSH1 0x1F NOT AND SWAP3 SWAP1 SWAP3 ADD PUSH1 0x40 ADD SWAP4 SWAP3 POP POP POP JUMP JUMPDEST PUSH1 0x1 PUSH1 0x1 PUSH1 0xA0 SHL SUB DUP2 AND DUP2 EQ PUSH2 0xD9E JUMPI PUSH1 0x0 DUP1 REVERT JUMPDEST PUSH1 0x0 DUP1 PUSH1 0x40 DUP4 DUP6 SUB SLT ISZERO PUSH2 0x4CB9 JUMPI PUSH1 0x0 DUP1 REVERT JUMPDEST DUP3 CALLDATALOAD PUSH2 0x4CC4 DUP2 PUSH2 0x4C91 JUMP JUMPDEST SWAP5 PUSH1 0x20 SWAP4 SWAP1 SWAP4 ADD CALLDATALOAD SWAP4 POP POP POP JUMP JUMPDEST PUSH1 0x0 PUSH1 0x20 DUP3 DUP5 SUB SLT ISZERO PUSH2 0x4CE4 JUMPI PUSH1 0x0 DUP1 REVERT JUMPDEST POP CALLDATALOAD SWAP2 SWAP1 POP JUMP JUMPDEST PUSH1 0x0 DUP1 PUSH1 0x0 PUSH1 0x60 DUP5 DUP7 SUB SLT ISZERO PUSH2 0x4D00 JUMPI PUSH1 0x0 DUP1 REVERT JUMPDEST DUP4 CALLDATALOAD PUSH2 0x4D0B DUP2 PUSH2 0x4C91 JUMP JUMPDEST SWAP3 POP PUSH1 0x20 DUP5 ADD CALLDATALOAD PUSH2 0x4D1B DUP2 PUSH2 0x4C91 JUMP JUMPDEST SWAP3 SWAP6 SWAP3 SWAP5 POP POP POP PUSH1 0x40 SWAP2 SWAP1 SWAP2 ADD CALLDATALOAD SWAP1 JUMP JUMPDEST PUSH1 0x0 PUSH1 0x20 DUP3 DUP5 SUB SLT ISZERO PUSH2 0x4D3E JUMPI PUSH1 0x0 DUP1 REVERT JUMPDEST DUP2 CALLDATALOAD PUSH2 0x12F4 DUP2 PUSH2 0x4C91 JUMP JUMPDEST PUSH1 0x0 DUP1 PUSH1 0x40 DUP4 DUP6 SUB SLT ISZERO PUSH2 0x4D5C JUMPI PUSH1 0x0 DUP1 REVERT JUMPDEST POP POP DUP1 CALLDATALOAD SWAP3 PUSH1 0x20 SWAP1 SWAP2 ADD CALLDATALOAD SWAP2 POP JUMP JUMPDEST PUSH1 0x0 PUSH1 0x20 DUP3 DUP5 SUB SLT ISZERO PUSH2 0x4D7D JUMPI PUSH1 0x0 DUP1 REVERT JUMPDEST DUP2 CALLDATALOAD PUSH2 0xFFFF DUP2 AND DUP2 EQ PUSH2 0x12F4 JUMPI PUSH1 0x0 DUP1 REVERT JUMPDEST PUSH1 0x0 PUSH1 0x20 DUP3 DUP5 SUB SLT ISZERO PUSH2 0x4DA1 JUMPI PUSH1 0x0 DUP1 REVERT JUMPDEST DUP2 CALLDATALOAD DUP1 ISZERO ISZERO DUP2 EQ PUSH2 0x12F4 JUMPI PUSH1 0x0 DUP1 REVERT JUMPDEST PUSH1 0x0 PUSH1 0x20 DUP1 DUP4 MSTORE PUSH1 0x60 DUP1 DUP5 ADD DUP6 MLOAD DUP4 DUP7 ADD MSTORE DUP3 DUP7 ADD MLOAD PUSH1 0x40 DUP1 DUP2 DUP9 ADD MSTORE DUP3 DUP3 MLOAD DUP1 DUP6 MSTORE PUSH1 0x80 SWAP5 POP DUP5 DUP10 ADD SWAP2 POP DUP7 DUP5 ADD SWAP4 POP PUSH1 0x0 JUMPDEST DUP2 DUP2 LT ISZERO PUSH2 0x4E42 JUMPI DUP5 MLOAD DUP1 MLOAD PUSH1 0x1 PUSH1 0x1 PUSH1 0xA0 SHL SUB AND DUP5 MSTORE DUP9 DUP2 ADD MLOAD DUP10 DUP6 ADD MSTORE DUP5 DUP2 ADD MLOAD DUP6 DUP6 ADD MSTORE DUP8 DUP2 ADD MLOAD DUP9 DUP6 ADD MSTORE DUP7 DUP2 ADD MLOAD DUP8 DUP6 ADD MSTORE PUSH1 0xA0 DUP1 DUP3 ADD MLOAD SWAP1 DUP6 ADD MSTORE PUSH1 0xC0 SWAP1 DUP2 ADD MLOAD SWAP1 DUP5 ADD MSTORE SWAP4 DUP8 ADD SWAP4 PUSH1 0xE0 SWAP1 SWAP3 ADD SWAP2 PUSH1 0x1 ADD PUSH2 0x4DE5 JUMP JUMPDEST POP SWAP1 SWAP10 SWAP9 POP POP POP POP POP POP POP POP POP JUMP JUMPDEST PUSH1 0x0 DUP1 PUSH1 0x40 DUP4 DUP6 SUB SLT ISZERO PUSH2 0x4E64 JUMPI PUSH1 0x0 DUP1 REVERT JUMPDEST DUP3 CALLDATALOAD PUSH2 0x4E6F DUP2 PUSH2 0x4C91 JUMP JUMPDEST SWAP2 POP PUSH1 0x20 DUP4 ADD CALLDATALOAD PUSH2 0x4E7F DUP2 PUSH2 0x4C91 JUMP JUMPDEST DUP1 SWAP2 POP POP SWAP3 POP SWAP3 SWAP1 POP JUMP JUMPDEST PUSH1 0x1 DUP2 DUP2 SHR SWAP1 DUP3 AND DUP1 PUSH2 0x4E9E JUMPI PUSH1 0x7F DUP3 AND SWAP2 POP JUMPDEST PUSH1 0x20 DUP3 LT DUP2 EQ ISZERO PUSH2 0x4EBF JUMPI PUSH4 0x4E487B71 PUSH1 0xE0 SHL PUSH1 0x0 MSTORE PUSH1 0x22 PUSH1 0x4 MSTORE PUSH1 0x24 PUSH1 0x0 REVERT JUMPDEST POP SWAP2 SWAP1 POP JUMP JUMPDEST PUSH1 0x20 DUP1 DUP3 MSTORE DUP2 DUP2 ADD MSTORE PUSH32 0x4F776E61626C653A2063616C6C6572206973206E6F7420746865206F776E6572 PUSH1 0x40 DUP3 ADD MSTORE PUSH1 0x60 ADD SWAP1 JUMP JUMPDEST PUSH1 0x0 PUSH1 0x20 DUP3 DUP5 SUB SLT ISZERO PUSH2 0x4F0C JUMPI PUSH1 0x0 DUP1 REVERT JUMPDEST DUP2 MLOAD PUSH2 0x12F4 DUP2 PUSH2 0x4C91 JUMP JUMPDEST PUSH1 0x20 DUP1 DUP3 MSTORE PUSH1 0x1D SWAP1 DUP3 ADD MSTORE PUSH32 0x54616C6178546F6B656E3A2057616C6C6574204F776E6572204F6E6C79000000 PUSH1 0x40 DUP3 ADD MSTORE PUSH1 0x60 ADD SWAP1 JUMP JUMPDEST PUSH2 0x560 DUP2 ADD DUP2 DUP4 PUSH1 0x0 JUMPDEST PUSH1 0x2B DUP2 LT ISZERO PUSH2 0x4F77 JUMPI DUP2 MLOAD DUP4 MSTORE PUSH1 0x20 SWAP3 DUP4 ADD SWAP3 SWAP1 SWAP2 ADD SWAP1 PUSH1 0x1 ADD PUSH2 0x4F58 JUMP JUMPDEST POP POP POP SWAP3 SWAP2 POP POP JUMP JUMPDEST PUSH1 0x0 PUSH1 0x20 DUP3 DUP5 SUB SLT ISZERO PUSH2 0x4F92 JUMPI PUSH1 0x0 DUP1 REVERT JUMPDEST POP MLOAD SWAP2 SWAP1 POP JUMP JUMPDEST PUSH4 0x4E487B71 PUSH1 0xE0 SHL PUSH1 0x0 MSTORE PUSH1 0x11 PUSH1 0x4 MSTORE PUSH1 0x24 PUSH1 0x0 REVERT JUMPDEST PUSH1 0x0 DUP3 NOT DUP3 GT ISZERO PUSH2 0x4FC2 JUMPI PUSH2 0x4FC2 PUSH2 0x4F99 JUMP JUMPDEST POP ADD SWAP1 JUMP JUMPDEST PUSH4 0x4E487B71 PUSH1 0xE0 SHL PUSH1 0x0 MSTORE PUSH1 0x32 PUSH1 0x4 MSTORE PUSH1 0x24 PUSH1 0x0 REVERT JUMPDEST PUSH1 0x20 DUP1 DUP3 MSTORE PUSH1 0x2F SWAP1 DUP3 ADD MSTORE PUSH32 0x5374616B61626C653A2054686973206164647265737320646F6573206E6F7420 PUSH1 0x40 DUP3 ADD MSTORE PUSH15 0x6861766520616E79207374616B6573 PUSH1 0x88 SHL PUSH1 0x60 DUP3 ADD MSTORE PUSH1 0x80 ADD SWAP1 JUMP JUMPDEST PUSH4 0x4E487B71 PUSH1 0xE0 SHL PUSH1 0x0 MSTORE PUSH1 0x12 PUSH1 0x4 MSTORE PUSH1 0x24 PUSH1 0x0 REVERT JUMPDEST PUSH1 0x0 DUP3 PUSH2 0x505F JUMPI PUSH4 0x4E487B71 PUSH1 0xE0 SHL PUSH1 0x0 MSTORE PUSH1 0x12 PUSH1 0x4 MSTORE PUSH1 0x24 PUSH1 0x0 REVERT JUMPDEST POP DIV SWAP1 JUMP JUMPDEST PUSH1 0x0 DUP3 DUP3 LT ISZERO PUSH2 0x5076 JUMPI PUSH2 0x5076 PUSH2 0x4F99 JUMP JUMPDEST POP SUB SWAP1 JUMP JUMPDEST PUSH1 0x0 DUP2 PUSH1 0x0 NOT DIV DUP4 GT DUP3 ISZERO ISZERO AND ISZERO PUSH2 0x5095 JUMPI PUSH2 0x5095 PUSH2 0x4F99 JUMP JUMPDEST POP MUL SWAP1 JUMP JUMPDEST PUSH1 0x0 PUSH1 0x0 NOT DUP3 EQ ISZERO PUSH2 0x50AE JUMPI PUSH2 0x50AE PUSH2 0x4F99 JUMP JUMPDEST POP PUSH1 0x1 ADD SWAP1 JUMP INVALID MSTORE8 PUSH21 0x616B61626C653A204572726F722063616E6E6F7420 PUSH5 0x6976696465 KECCAK256 PUSH21 0x696D657374616D7054616C6178546F6B656E3A2074 PUSH19 0x616E7366657220657863656564732062616C61 PUSH15 0x6365A264697066735822122095598F GAS STATICCALL 0xC7 0xE2 0xD4 PUSH8 0xC2EFA92FB372C809 0xF9 0xD0 LOG0 0x2B LT SWAP15 SSTORE 0x49 0x24 EXTCODECOPY STATICCALL 0xDA DUP15 SWAP2 PUSH28 0x64736F6C634300080B003360A060405234801561001057600080FD5B POP PUSH1 0x40 MLOAD PUSH2 0x63B CODESIZE SUB DUP1 PUSH2 0x63B DUP4 CODECOPY DUP2 ADD PUSH1 0x40 DUP2 SWAP1 MSTORE PUSH2 0x2F SWAP2 PUSH2 0xC0 JUMP JUMPDEST PUSH1 0x0 DUP3 GT PUSH2 0x93 JUMPI PUSH1 0x40 MLOAD PUSH3 0x461BCD PUSH1 0xE5 SHL DUP2 MSTORE PUSH1 0x20 PUSH1 0x4 DUP3 ADD MSTORE PUSH1 0x27 PUSH1 0x24 DUP3 ADD MSTORE PUSH32 0x4C6F636B61626C653A20416D6F756E74206D7573742067726561746572207468 PUSH1 0x44 DUP3 ADD MSTORE PUSH7 0x616E207A65726F PUSH1 0xC8 SHL PUSH1 0x64 DUP3 ADD MSTORE PUSH1 0x84 ADD PUSH1 0x40 MLOAD DUP1 SWAP2 SUB SWAP1 REVERT JUMPDEST PUSH1 0x0 SWAP2 SWAP1 SWAP2 SSTORE PUSH1 0x1 PUSH1 0x1 PUSH1 0xA0 SHL SUB AND PUSH1 0x80 MSTORE TIMESTAMP PUSH1 0x2 SSTORE PUSH1 0x1 DUP1 SLOAD PUSH1 0x1 PUSH1 0x1 PUSH1 0xA0 SHL SUB NOT AND CALLER OR SWAP1 SSTORE PUSH2 0xFD JUMP JUMPDEST PUSH1 0x0 DUP1 PUSH1 0x40 DUP4 DUP6 SUB SLT ISZERO PUSH2 0xD3 JUMPI PUSH1 0x0 DUP1 REVERT JUMPDEST DUP3 MLOAD PUSH1 0x20 DUP5 ADD MLOAD SWAP1 SWAP3 POP PUSH1 0x1 PUSH1 0x1 PUSH1 0xA0 SHL SUB DUP2 AND DUP2 EQ PUSH2 0xF2 JUMPI PUSH1 0x0 DUP1 REVERT JUMPDEST DUP1 SWAP2 POP POP SWAP3 POP SWAP3 SWAP1 POP JUMP JUMPDEST PUSH1 0x80 MLOAD PUSH2 0x524 PUSH2 0x117 PUSH1 0x0 CODECOPY PUSH1 0x0 PUSH1 0x5E ADD MSTORE PUSH2 0x524 PUSH1 0x0 RETURN INVALID PUSH1 0x80 PUSH1 0x40 MSTORE CALLVALUE DUP1 ISZERO PUSH2 0x10 JUMPI PUSH1 0x0 DUP1 REVERT JUMPDEST POP PUSH1 0x4 CALLDATASIZE LT PUSH2 0x57 JUMPI PUSH1 0x0 CALLDATALOAD PUSH1 0xE0 SHR DUP1 PUSH4 0x38AF3EED EQ PUSH2 0x5C JUMPI DUP1 PUSH4 0x67E404CE EQ PUSH2 0x9B JUMPI DUP1 PUSH4 0x8DA5CB5B EQ PUSH2 0xA1 JUMPI DUP1 PUSH4 0xAA8C217C EQ PUSH2 0xB4 JUMPI DUP1 PUSH4 0xC8100DCC EQ PUSH2 0xC6 JUMPI JUMPDEST PUSH1 0x0 DUP1 REVERT JUMPDEST PUSH32 0x0 JUMPDEST PUSH1 0x40 MLOAD PUSH1 0x1 PUSH1 0x1 PUSH1 0xA0 SHL SUB SWAP1 SWAP2 AND DUP2 MSTORE PUSH1 0x20 ADD JUMPDEST PUSH1 0x40 MLOAD DUP1 SWAP2 SUB SWAP1 RETURN JUMPDEST CALLER PUSH2 0x7E JUMP JUMPDEST PUSH1 0x1 SLOAD PUSH2 0x7E SWAP1 PUSH1 0x1 PUSH1 0x1 PUSH1 0xA0 SHL SUB AND DUP2 JUMP JUMPDEST PUSH1 0x0 SLOAD JUMPDEST PUSH1 0x40 MLOAD SWAP1 DUP2 MSTORE PUSH1 0x20 ADD PUSH2 0x92 JUMP JUMPDEST PUSH2 0xB8 PUSH2 0xD4 CALLDATASIZE PUSH1 0x4 PUSH2 0x33E JUMP JUMPDEST PUSH1 0x1 SLOAD PUSH1 0x0 SWAP1 PUSH1 0x1 PUSH1 0x1 PUSH1 0xA0 SHL SUB AND CALLER EQ PUSH2 0x154 JUMPI PUSH1 0x40 MLOAD PUSH3 0x461BCD PUSH1 0xE5 SHL DUP2 MSTORE PUSH1 0x20 PUSH1 0x4 DUP3 ADD MSTORE PUSH1 0x35 PUSH1 0x24 DUP3 ADD MSTORE PUSH32 0x4C6F636B61626C653A2063616C6C6572206861766520746F2062652054616C61 PUSH1 0x44 DUP3 ADD MSTORE PUSH21 0x1E151BDAD95B8814DB585C9D0810DBDB9D1C9858DD PUSH1 0x5A SHL PUSH1 0x64 DUP3 ADD MSTORE PUSH1 0x84 ADD JUMPDEST PUSH1 0x40 MLOAD DUP1 SWAP2 SUB SWAP1 REVERT JUMPDEST PUSH1 0x0 DUP1 SLOAD GT PUSH2 0x1A5 JUMPI PUSH1 0x40 MLOAD PUSH3 0x461BCD PUSH1 0xE5 SHL DUP2 MSTORE PUSH1 0x20 PUSH1 0x4 DUP3 ADD MSTORE PUSH1 0x18 PUSH1 0x24 DUP3 ADD MSTORE PUSH32 0x4C6F636B61626C653A206E6F20746F6B656E73206C6566740000000000000000 PUSH1 0x44 DUP3 ADD MSTORE PUSH1 0x64 ADD PUSH2 0x14B JUMP JUMPDEST PUSH1 0x0 PUSH2 0x1B0 DUP4 PUSH2 0x230 JUMP JUMPDEST SWAP1 POP PUSH1 0x0 DUP2 GT PUSH2 0x202 JUMPI PUSH1 0x40 MLOAD PUSH3 0x461BCD PUSH1 0xE5 SHL DUP2 MSTORE PUSH1 0x20 PUSH1 0x4 DUP3 ADD MSTORE PUSH1 0x1E PUSH1 0x24 DUP3 ADD MSTORE PUSH32 0x4C6F636B61626C653A206E6F20746F6B656E7320746F2072656C656173650000 PUSH1 0x44 DUP3 ADD MSTORE PUSH1 0x64 ADD PUSH2 0x14B JUMP JUMPDEST PUSH2 0x227 PUSH1 0x0 SLOAD DUP3 PUSH1 0x40 MLOAD DUP1 PUSH1 0x60 ADD PUSH1 0x40 MSTORE DUP1 PUSH1 0x36 DUP2 MSTORE PUSH1 0x20 ADD PUSH2 0x4B9 PUSH1 0x36 SWAP2 CODECOPY PUSH2 0x306 JUMP JUMPDEST PUSH1 0x0 SSTORE SWAP3 SWAP2 POP POP JUMP JUMPDEST PUSH1 0x0 DUP1 PUSH3 0x278D00 PUSH1 0x2 SLOAD TIMESTAMP PUSH2 0x245 SWAP2 SWAP1 PUSH2 0x3E1 JUMP JUMPDEST PUSH2 0x24F SWAP2 SWAP1 PUSH2 0x3F8 JUMP JUMPDEST PUSH1 0x3 SLOAD SWAP1 SWAP2 POP PUSH1 0x0 SWAP1 JUMPDEST DUP3 DUP2 GT PUSH2 0x294 JUMPI PUSH2 0x280 DUP3 DUP7 DUP4 PUSH1 0x2B DUP2 LT PUSH2 0x276 JUMPI PUSH2 0x276 PUSH2 0x41A JUMP JUMPDEST PUSH1 0x20 MUL ADD MLOAD PUSH2 0x332 JUMP JUMPDEST SWAP2 POP DUP1 PUSH2 0x28C DUP2 PUSH2 0x430 JUMP JUMPDEST SWAP2 POP POP PUSH2 0x259 JUMP JUMPDEST POP PUSH2 0x2A0 DUP3 PUSH1 0x1 PUSH2 0x44B JUMP JUMPDEST PUSH1 0x3 SSTORE DUP1 PUSH2 0x2FF JUMPI PUSH1 0x40 MLOAD PUSH3 0x461BCD PUSH1 0xE5 SHL DUP2 MSTORE PUSH1 0x20 PUSH1 0x4 DUP3 ADD MSTORE PUSH1 0x26 PUSH1 0x24 DUP3 ADD MSTORE PUSH32 0x4C6F636B61626C653A2054686572652773206E6F7468696E6720746F20636C61 PUSH1 0x44 DUP3 ADD MSTORE PUSH6 0x1A5B481E595D PUSH1 0xD2 SHL PUSH1 0x64 DUP3 ADD MSTORE PUSH1 0x84 ADD PUSH2 0x14B JUMP JUMPDEST SWAP4 SWAP3 POP POP POP JUMP JUMPDEST PUSH1 0x0 DUP2 DUP5 DUP5 GT ISZERO PUSH2 0x32A JUMPI PUSH1 0x40 MLOAD PUSH3 0x461BCD PUSH1 0xE5 SHL DUP2 MSTORE PUSH1 0x4 ADD PUSH2 0x14B SWAP2 SWAP1 PUSH2 0x463 JUMP JUMPDEST POP POP POP SWAP1 SUB SWAP1 JUMP JUMPDEST PUSH1 0x0 PUSH2 0x2FF DUP3 DUP5 PUSH2 0x44B JUMP JUMPDEST PUSH1 0x0 PUSH2 0x560 DUP1 DUP4 DUP6 SUB SLT ISZERO PUSH2 0x352 JUMPI PUSH1 0x0 DUP1 REVERT JUMPDEST DUP4 PUSH1 0x1F DUP5 ADD SLT PUSH2 0x361 JUMPI PUSH1 0x0 DUP1 REVERT JUMPDEST PUSH1 0x40 MLOAD DUP2 DUP2 ADD DUP2 DUP2 LT PUSH8 0xFFFFFFFFFFFFFFFF DUP3 GT OR ISZERO PUSH2 0x391 JUMPI PUSH4 0x4E487B71 PUSH1 0xE0 SHL PUSH1 0x0 MSTORE PUSH1 0x41 PUSH1 0x4 MSTORE PUSH1 0x24 PUSH1 0x0 REVERT JUMPDEST PUSH1 0x40 MSTORE SWAP1 DUP4 ADD SWAP1 DUP1 DUP6 DUP4 GT ISZERO PUSH2 0x3A6 JUMPI PUSH1 0x0 DUP1 REVERT JUMPDEST DUP5 JUMPDEST DUP4 DUP2 LT ISZERO PUSH2 0x3C0 JUMPI DUP1 CALLDATALOAD DUP3 MSTORE PUSH1 0x20 SWAP2 DUP3 ADD SWAP2 ADD PUSH2 0x3A8 JUMP JUMPDEST POP SWAP1 SWAP6 SWAP5 POP POP POP POP POP JUMP JUMPDEST PUSH4 0x4E487B71 PUSH1 0xE0 SHL PUSH1 0x0 MSTORE PUSH1 0x11 PUSH1 0x4 MSTORE PUSH1 0x24 PUSH1 0x0 REVERT JUMPDEST PUSH1 0x0 DUP3 DUP3 LT ISZERO PUSH2 0x3F3 JUMPI PUSH2 0x3F3 PUSH2 0x3CB JUMP JUMPDEST POP SUB SWAP1 JUMP JUMPDEST PUSH1 0x0 DUP3 PUSH2 0x415 JUMPI PUSH4 0x4E487B71 PUSH1 0xE0 SHL PUSH1 0x0 MSTORE PUSH1 0x12 PUSH1 0x4 MSTORE PUSH1 0x24 PUSH1 0x0 REVERT JUMPDEST POP DIV SWAP1 JUMP JUMPDEST PUSH4 0x4E487B71 PUSH1 0xE0 SHL PUSH1 0x0 MSTORE PUSH1 0x32 PUSH1 0x4 MSTORE PUSH1 0x24 PUSH1 0x0 REVERT JUMPDEST PUSH1 0x0 PUSH1 0x0 NOT DUP3 EQ ISZERO PUSH2 0x444 JUMPI PUSH2 0x444 PUSH2 0x3CB JUMP JUMPDEST POP PUSH1 0x1 ADD SWAP1 JUMP JUMPDEST PUSH1 0x0 DUP3 NOT DUP3 GT ISZERO PUSH2 0x45E JUMPI PUSH2 0x45E PUSH2 0x3CB JUMP JUMPDEST POP ADD SWAP1 JUMP JUMPDEST PUSH1 0x0 PUSH1 0x20 DUP1 DUP4 MSTORE DUP4 MLOAD DUP1 DUP3 DUP6 ADD MSTORE PUSH1 0x0 JUMPDEST DUP2 DUP2 LT ISZERO PUSH2 0x490 JUMPI DUP6 DUP2 ADD DUP4 ADD MLOAD DUP6 DUP3 ADD PUSH1 0x40 ADD MSTORE DUP3 ADD PUSH2 0x474 JUMP JUMPDEST DUP2 DUP2 GT ISZERO PUSH2 0x4A2 JUMPI PUSH1 0x0 PUSH1 0x40 DUP4 DUP8 ADD ADD MSTORE JUMPDEST POP PUSH1 0x1F ADD PUSH1 0x1F NOT AND SWAP3 SWAP1 SWAP3 ADD PUSH1 0x40 ADD SWAP4 SWAP3 POP POP POP JUMP INVALID 0x4C PUSH16 0x636B61626C653A2043616E6E6F742073 PUSH22 0x6273747261637420746F74616C20616D6F756E742077 PUSH10 0x746820636C61696D6162 PUSH13 0x65A26469706673582212208AE4 SAR 0x26 0x49 0x29 0xB1 CALLCODE INVALID BLOCKHASH KECCAK256 0x2F XOR 0xAD 0xB5 0x4E PUSH5 0x5A86577D3A 0xCB 0xB8 0x4A SWAP14 DELEGATECALL CALLCODE PUSH21 0x3F6E2E64736F6C634300080B003354616C6178546F PUSH12 0x656E3A2043616E6E6F742074 PUSH19 0x616E73666572206D6F7265207468616E20746F PUSH21 0x616C20737570706C79000000000000000000000000 "
		},
		"gasEstimates": {
			"creation": {
				"codeDepositCost": "4158000",
				"executionCost": "infinite",
				"totalCost": "infinite"
			},
			"external": {
				"": "infinite",
				"_airdropStatus()": "2399",
				"_blockTime()": "248",
				"_stakingReward()": "2331",
				"_taxFee()": "2458",
				"allowance(address,address)": "infinite",
				"approve(address,uint256)": "24691",
				"balanceOf(address)": "2588",
				"blockTime()": "292",
				"burn(uint256)": "50945",
				"burnFrom(address,uint256)": "infinite",
				"burnStakingReward(uint256)": "infinite",
				"changeAirdropPercentage(uint256)": "25751",
				"changeAirdropStatus(bool)": "28130",
				"changePenaltyFee(uint256)": "25719",
				"changeTaxFee(uint16)": "28181",
				"claimAirdrop()": "infinite",
				"decimals()": "267",
				"decreaseAllowance(address,uint256)": "27056",
				"getOwner()": "2481",
				"hasStake(address)": "infinite",
				"increaseAllowance(address,uint256)": "27089",
				"liquidityReserveBalance()": "2460",
				"mint(address,uint256)": "infinite",
				"mintLiquidityReserve(uint256)": "infinite",
				"mintStakingReward(uint256)": "infinite",
				"name()": "infinite",
				"owner()": "2487",
				"penaltyFee()": "2437",
				"renounceOwnership()": "28207",
				"stake(uint256,uint256)": "infinite",
				"stakeSummary(address)": "infinite",
				"symbol()": "infinite",
				"taxFee()": "2365",
				"testCalculateDuration(address,uint256)": "22100",
				"thisAddress()": "345",
				"totalSupply()": "2438",
				"transfer(address,uint256)": "infinite",
				"transferFrom(address,address,uint256)": "infinite",
				"transferOwnership(address)": "infinite",
				"unlockDevPoolWallet_1()": "infinite",
				"unlockDevPoolWallet_2()": "infinite",
				"unlockDevPoolWallet_3()": "infinite",
				"unlockPrivatePlacementWallet()": "infinite",
				"unlockStrategicPartnerWallet_1()": "infinite",
				"unlockStrategicPartnerWallet_2()": "infinite",
				"unlockStrategicPartnerWallet_3()": "infinite",
				"unlockTeamAndProjectCoordinatorWallet_1()": "infinite",
				"unlockTeamAndProjectCoordinatorWallet_2()": "infinite",
				"unlockTeamAndProjectCoordinatorWallet_3()": "infinite",
				"withdrawAllStake(uint256)": "infinite",
				"withdrawStake(uint256,uint256)": "infinite"
			},
			"internal": {
				"_addThirdOfValue(uint256)": "infinite",
				"_burn(address,uint256)": "infinite",
				"_mintLiquidityReserve(uint256)": "infinite",
				"_spendAllowance(address,address,uint256)": "infinite",
				"_transfer(address,address,uint256)": "infinite",
				"devPoolReleaseAmount()": "infinite",
				"devPoolReleaseAmountAlternate()": "infinite",
				"privatePlacementReleaseAmount()": "infinite",
				"strategicPartnerReleaseAmount()": "infinite",
				"strategicPartnerReleaseAmountAlternate()": "infinite",
				"teamAndProjectCoordinatorReleaseAmount()": "infinite",
				"teamAndProjectCoordinatorReleaseAmountAlternate()": "infinite",
				"toString(uint256)": "infinite"
			}
		},
		"methodIdentifiers": {
			"_airdropStatus()": "7cb85214",
			"_blockTime()": "2e5a1c2c",
			"_stakingReward()": "06f200bd",
			"_taxFee()": "3b124fe7",
			"allowance(address,address)": "dd62ed3e",
			"approve(address,uint256)": "095ea7b3",
			"balanceOf(address)": "70a08231",
			"blockTime()": "48b15166",
			"burn(uint256)": "42966c68",
			"burnFrom(address,uint256)": "79cc6790",
			"burnStakingReward(uint256)": "0e1b09ed",
			"changeAirdropPercentage(uint256)": "d5dbdf1b",
			"changeAirdropStatus(bool)": "adf3364c",
			"changePenaltyFee(uint256)": "8c63f97f",
			"changeTaxFee(uint16)": "8902cd70",
			"claimAirdrop()": "5b88349d",
			"decimals()": "313ce567",
			"decreaseAllowance(address,uint256)": "a457c2d7",
			"getOwner()": "893d20e8",
			"hasStake(address)": "e73e14bf",
			"increaseAllowance(address,uint256)": "39509351",
			"liquidityReserveBalance()": "bea8e46b",
			"mint(address,uint256)": "40c10f19",
			"mintLiquidityReserve(uint256)": "d94d4ad6",
			"mintStakingReward(uint256)": "a169c515",
			"name()": "06fdde03",
			"owner()": "8da5cb5b",
			"penaltyFee()": "3dc10ad4",
			"renounceOwnership()": "715018a6",
			"stake(uint256,uint256)": "7b0472f0",
			"stakeSummary(address)": "b09d4b4e",
			"symbol()": "95d89b41",
			"taxFee()": "a071dcf4",
			"testCalculateDuration(address,uint256)": "88566374",
			"thisAddress()": "d4dca69b",
			"totalSupply()": "18160ddd",
			"transfer(address,uint256)": "a9059cbb",
			"transferFrom(address,address,uint256)": "23b872dd",
			"transferOwnership(address)": "f2fde38b",
			"unlockDevPoolWallet_1()": "b8b18e89",
			"unlockDevPoolWallet_2()": "eb9f4ac7",
			"unlockDevPoolWallet_3()": "84f3996d",
			"unlockPrivatePlacementWallet()": "934851ec",
			"unlockStrategicPartnerWallet_1()": "8378a875",
			"unlockStrategicPartnerWallet_2()": "15441bb9",
			"unlockStrategicPartnerWallet_3()": "883d9984",
			"unlockTeamAndProjectCoordinatorWallet_1()": "56029137",
			"unlockTeamAndProjectCoordinatorWallet_2()": "90a4c709",
			"unlockTeamAndProjectCoordinatorWallet_3()": "3f3ef2dc",
			"withdrawAllStake(uint256)": "f729b00f",
			"withdrawStake(uint256,uint256)": "f1fdf469"
		}
	},
	"abi": [
		{
			"inputs": [],
			"stateMutability": "nonpayable",
			"type": "constructor"
		},
		{
			"anonymous": false,
			"inputs": [
				{
					"indexed": true,
					"internalType": "address",
					"name": "from",
					"type": "address"
				},
				{
					"indexed": true,
					"internalType": "address",
					"name": "who",
					"type": "address"
				}
			],
			"name": "AddPrivatePlacement",
			"type": "event"
		},
		{
			"anonymous": false,
			"inputs": [
				{
					"indexed": true,
					"internalType": "address",
					"name": "from",
					"type": "address"
				},
				{
					"indexed": true,
					"internalType": "address",
					"name": "who",
					"type": "address"
				}
			],
			"name": "AddStrategicPartner",
			"type": "event"
		},
		{
			"anonymous": false,
			"inputs": [
				{
					"indexed": false,
					"internalType": "uint256",
					"name": "amount",
					"type": "uint256"
				}
			],
			"name": "AirdropChanged",
			"type": "event"
		},
		{
			"anonymous": false,
			"inputs": [
				{
					"indexed": true,
					"internalType": "address",
					"name": "owner",
					"type": "address"
				},
				{
					"indexed": true,
					"internalType": "address",
					"name": "spender",
					"type": "address"
				},
				{
					"indexed": false,
					"internalType": "uint256",
					"name": "value",
					"type": "uint256"
				}
			],
			"name": "Approval",
			"type": "event"
		},
		{
			"anonymous": false,
			"inputs": [
				{
					"indexed": true,
					"internalType": "address",
					"name": "who",
					"type": "address"
				},
				{
					"indexed": false,
					"internalType": "bool",
					"name": "status",
					"type": "bool"
				}
			],
			"name": "ChangeAirdropStatus",
			"type": "event"
		},
		{
			"anonymous": false,
			"inputs": [
				{
					"indexed": true,
					"internalType": "address",
					"name": "who",
					"type": "address"
				},
				{
					"indexed": false,
					"internalType": "uint256",
					"name": "amount",
					"type": "uint256"
				}
			],
			"name": "ChangeTax",
			"type": "event"
		},
		{
			"anonymous": false,
			"inputs": [
				{
					"indexed": true,
					"internalType": "address",
					"name": "from",
					"type": "address"
				},
				{
					"indexed": true,
					"internalType": "address",
					"name": "who",
					"type": "address"
				}
			],
			"name": "DeletePrivatePlacement",
			"type": "event"
		},
		{
			"anonymous": false,
			"inputs": [
				{
					"indexed": true,
					"internalType": "address",
					"name": "from",
					"type": "address"
				},
				{
					"indexed": true,
					"internalType": "address",
					"name": "who",
					"type": "address"
				}
			],
			"name": "DeleteStrategicPartner",
			"type": "event"
		},
		{
			"anonymous": false,
			"inputs": [
				{
					"indexed": true,
					"internalType": "address",
					"name": "previousOwner",
					"type": "address"
				},
				{
					"indexed": true,
					"internalType": "address",
					"name": "newOwner",
					"type": "address"
				}
			],
			"name": "OwnershipTransferred",
			"type": "event"
		},
		{
			"anonymous": false,
			"inputs": [
				{
					"indexed": false,
					"internalType": "uint256",
					"name": "amount",
					"type": "uint256"
				}
			],
			"name": "PenaltyChanged",
			"type": "event"
		},
		{
			"anonymous": false,
			"inputs": [
				{
					"indexed": true,
					"internalType": "address",
					"name": "user",
					"type": "address"
				},
				{
					"indexed": false,
					"internalType": "uint256",
					"name": "amount",
					"type": "uint256"
				},
				{
					"indexed": false,
					"internalType": "uint256",
					"name": "index",
					"type": "uint256"
				},
				{
					"indexed": false,
					"internalType": "uint256",
					"name": "timestamp",
					"type": "uint256"
				},
				{
					"indexed": false,
					"internalType": "uint256",
					"name": "releaseTime",
					"type": "uint256"
				}
			],
			"name": "Staked",
			"type": "event"
		},
		{
			"anonymous": false,
			"inputs": [
				{
					"indexed": true,
					"internalType": "address",
					"name": "from",
					"type": "address"
				},
				{
					"indexed": true,
					"internalType": "address",
					"name": "to",
					"type": "address"
				},
				{
					"indexed": false,
					"internalType": "uint256",
					"name": "value",
					"type": "uint256"
				}
			],
			"name": "Transfer",
			"type": "event"
		},
		{
			"stateMutability": "payable",
			"type": "fallback"
		},
		{
			"inputs": [],
			"name": "_airdropStatus",
			"outputs": [
				{
					"internalType": "bool",
					"name": "",
					"type": "bool"
				}
			],
			"stateMutability": "view",
			"type": "function"
		},
		{
			"inputs": [],
			"name": "_blockTime",
			"outputs": [
				{
					"internalType": "uint256",
					"name": "",
					"type": "uint256"
				}
			],
			"stateMutability": "view",
			"type": "function"
		},
		{
			"inputs": [],
			"name": "_stakingReward",
			"outputs": [
				{
					"internalType": "uint256",
					"name": "",
					"type": "uint256"
				}
			],
			"stateMutability": "view",
			"type": "function"
		},
		{
			"inputs": [],
			"name": "_taxFee",
			"outputs": [
				{
					"internalType": "uint16",
					"name": "",
					"type": "uint16"
				}
			],
			"stateMutability": "view",
			"type": "function"
		},
		{
			"inputs": [
				{
					"internalType": "address",
					"name": "owner",
					"type": "address"
				},
				{
					"internalType": "address",
					"name": "spender",
					"type": "address"
				}
			],
			"name": "allowance",
			"outputs": [
				{
					"internalType": "uint256",
					"name": "",
					"type": "uint256"
				}
			],
			"stateMutability": "view",
			"type": "function"
		},
		{
			"inputs": [
				{
					"internalType": "address",
					"name": "spender",
					"type": "address"
				},
				{
					"internalType": "uint256",
					"name": "amount",
					"type": "uint256"
				}
			],
			"name": "approve",
			"outputs": [
				{
					"internalType": "bool",
					"name": "",
					"type": "bool"
				}
			],
			"stateMutability": "nonpayable",
			"type": "function"
		},
		{
			"inputs": [
				{
					"internalType": "address",
					"name": "account",
					"type": "address"
				}
			],
			"name": "balanceOf",
			"outputs": [
				{
					"internalType": "uint256",
					"name": "",
					"type": "uint256"
				}
			],
			"stateMutability": "view",
			"type": "function"
		},
		{
			"inputs": [],
			"name": "blockTime",
			"outputs": [
				{
					"internalType": "uint256",
					"name": "",
					"type": "uint256"
				}
			],
			"stateMutability": "view",
			"type": "function"
		},
		{
			"inputs": [
				{
					"internalType": "uint256",
					"name": "amount",
					"type": "uint256"
				}
			],
			"name": "burn",
			"outputs": [],
			"stateMutability": "nonpayable",
			"type": "function"
		},
		{
			"inputs": [
				{
					"internalType": "address",
					"name": "account",
					"type": "address"
				},
				{
					"internalType": "uint256",
					"name": "amount",
					"type": "uint256"
				}
			],
			"name": "burnFrom",
			"outputs": [],
			"stateMutability": "nonpayable",
			"type": "function"
		},
		{
			"inputs": [
				{
					"internalType": "uint256",
					"name": "amount_",
					"type": "uint256"
				}
			],
			"name": "burnStakingReward",
			"outputs": [],
			"stateMutability": "nonpayable",
			"type": "function"
		},
		{
			"inputs": [
				{
					"internalType": "uint256",
					"name": "airdrop_",
					"type": "uint256"
				}
			],
			"name": "changeAirdropPercentage",
			"outputs": [],
			"stateMutability": "nonpayable",
			"type": "function"
		},
		{
			"inputs": [
				{
					"internalType": "bool",
					"name": "status_",
					"type": "bool"
				}
			],
			"name": "changeAirdropStatus",
			"outputs": [],
			"stateMutability": "nonpayable",
			"type": "function"
		},
		{
			"inputs": [
				{
					"internalType": "uint256",
					"name": "penaltyFee_",
					"type": "uint256"
				}
			],
			"name": "changePenaltyFee",
			"outputs": [],
			"stateMutability": "nonpayable",
			"type": "function"
		},
		{
			"inputs": [
				{
					"internalType": "uint16",
					"name": "taxFee_",
					"type": "uint16"
				}
			],
			"name": "changeTaxFee",
			"outputs": [],
			"stateMutability": "nonpayable",
			"type": "function"
		},
		{
			"inputs": [],
			"name": "claimAirdrop",
			"outputs": [],
			"stateMutability": "nonpayable",
			"type": "function"
		},
		{
			"inputs": [],
			"name": "decimals",
			"outputs": [
				{
					"internalType": "uint8",
					"name": "",
					"type": "uint8"
				}
			],
			"stateMutability": "pure",
			"type": "function"
		},
		{
			"inputs": [
				{
					"internalType": "address",
					"name": "spender",
					"type": "address"
				},
				{
					"internalType": "uint256",
					"name": "subtractedValue",
					"type": "uint256"
				}
			],
			"name": "decreaseAllowance",
			"outputs": [
				{
					"internalType": "bool",
					"name": "",
					"type": "bool"
				}
			],
			"stateMutability": "nonpayable",
			"type": "function"
		},
		{
			"inputs": [],
			"name": "getOwner",
			"outputs": [
				{
					"internalType": "address",
					"name": "",
					"type": "address"
				}
			],
			"stateMutability": "view",
			"type": "function"
		},
		{
			"inputs": [
				{
					"internalType": "address",
					"name": "_staker",
					"type": "address"
				}
			],
			"name": "hasStake",
			"outputs": [
				{
					"components": [
						{
							"internalType": "uint256",
							"name": "total_amount",
							"type": "uint256"
						},
						{
							"components": [
								{
									"internalType": "address",
									"name": "user",
									"type": "address"
								},
								{
									"internalType": "uint256",
									"name": "amount",
									"type": "uint256"
								},
								{
									"internalType": "uint256",
									"name": "since",
									"type": "uint256"
								},
								{
									"internalType": "uint256",
									"name": "claimable",
									"type": "uint256"
								},
								{
									"internalType": "uint256",
									"name": "claimable_airdrop",
									"type": "uint256"
								},
								{
									"internalType": "uint256",
									"name": "rewardAPY",
									"type": "uint256"
								},
								{
									"internalType": "uint256",
									"name": "releaseTime",
									"type": "uint256"
								}
							],
							"internalType": "struct Stakable.Stake[]",
							"name": "stakes",
							"type": "tuple[]"
						}
					],
					"internalType": "struct Stakable.StakingSummary",
					"name": "",
					"type": "tuple"
				}
			],
			"stateMutability": "view",
			"type": "function"
		},
		{
			"inputs": [
				{
					"internalType": "address",
					"name": "spender",
					"type": "address"
				},
				{
					"internalType": "uint256",
					"name": "addedValue",
					"type": "uint256"
				}
			],
			"name": "increaseAllowance",
			"outputs": [
				{
					"internalType": "bool",
					"name": "",
					"type": "bool"
				}
			],
			"stateMutability": "nonpayable",
			"type": "function"
		},
		{
			"inputs": [],
			"name": "liquidityReserveBalance",
			"outputs": [
				{
					"internalType": "uint256",
					"name": "",
					"type": "uint256"
				}
			],
			"stateMutability": "view",
			"type": "function"
		},
		{
			"inputs": [
				{
					"internalType": "address",
					"name": "to",
					"type": "address"
				},
				{
					"internalType": "uint256",
					"name": "amount",
					"type": "uint256"
				}
			],
			"name": "mint",
			"outputs": [],
			"stateMutability": "nonpayable",
			"type": "function"
		},
		{
			"inputs": [
				{
					"internalType": "uint256",
					"name": "amount_",
					"type": "uint256"
				}
			],
			"name": "mintLiquidityReserve",
			"outputs": [],
			"stateMutability": "nonpayable",
			"type": "function"
		},
		{
			"inputs": [
				{
					"internalType": "uint256",
					"name": "amount_",
					"type": "uint256"
				}
			],
			"name": "mintStakingReward",
			"outputs": [],
			"stateMutability": "nonpayable",
			"type": "function"
		},
		{
			"inputs": [],
			"name": "name",
			"outputs": [
				{
					"internalType": "string",
					"name": "",
					"type": "string"
				}
			],
			"stateMutability": "view",
			"type": "function"
		},
		{
			"inputs": [],
			"name": "owner",
			"outputs": [
				{
					"internalType": "address",
					"name": "",
					"type": "address"
				}
			],
			"stateMutability": "view",
			"type": "function"
		},
		{
			"inputs": [],
			"name": "penaltyFee",
			"outputs": [
				{
					"internalType": "uint256",
					"name": "",
					"type": "uint256"
				}
			],
			"stateMutability": "view",
			"type": "function"
		},
		{
			"inputs": [],
			"name": "renounceOwnership",
			"outputs": [],
			"stateMutability": "nonpayable",
			"type": "function"
		},
		{
			"inputs": [
				{
					"internalType": "uint256",
					"name": "_amount",
					"type": "uint256"
				},
				{
					"internalType": "uint256",
					"name": "_stakePeriod",
					"type": "uint256"
				}
			],
			"name": "stake",
			"outputs": [],
			"stateMutability": "nonpayable",
			"type": "function"
		},
		{
			"inputs": [
				{
					"internalType": "address",
					"name": "user_",
					"type": "address"
				}
			],
			"name": "stakeSummary",
			"outputs": [
				{
					"components": [
						{
							"internalType": "uint256",
							"name": "total_amount",
							"type": "uint256"
						},
						{
							"components": [
								{
									"internalType": "address",
									"name": "user",
									"type": "address"
								},
								{
									"internalType": "uint256",
									"name": "amount",
									"type": "uint256"
								},
								{
									"internalType": "uint256",
									"name": "since",
									"type": "uint256"
								},
								{
									"internalType": "uint256",
									"name": "claimable",
									"type": "uint256"
								},
								{
									"internalType": "uint256",
									"name": "claimable_airdrop",
									"type": "uint256"
								},
								{
									"internalType": "uint256",
									"name": "rewardAPY",
									"type": "uint256"
								},
								{
									"internalType": "uint256",
									"name": "releaseTime",
									"type": "uint256"
								}
							],
							"internalType": "struct Stakable.Stake[]",
							"name": "stakes",
							"type": "tuple[]"
						}
					],
					"internalType": "struct Stakable.StakingSummary",
					"name": "",
					"type": "tuple"
				}
			],
			"stateMutability": "view",
			"type": "function"
		},
		{
			"inputs": [],
			"name": "symbol",
			"outputs": [
				{
					"internalType": "string",
					"name": "",
					"type": "string"
				}
			],
			"stateMutability": "view",
			"type": "function"
		},
		{
			"inputs": [],
			"name": "taxFee",
			"outputs": [
				{
					"internalType": "uint256",
					"name": "",
					"type": "uint256"
				}
			],
			"stateMutability": "view",
			"type": "function"
		},
		{
			"inputs": [
				{
					"internalType": "address",
					"name": "user",
					"type": "address"
				},
				{
					"internalType": "uint256",
					"name": "index",
					"type": "uint256"
				}
			],
			"name": "testCalculateDuration",
			"outputs": [
				{
					"internalType": "uint256",
					"name": "",
					"type": "uint256"
				}
			],
			"stateMutability": "view",
			"type": "function"
		},
		{
			"inputs": [],
			"name": "thisAddress",
			"outputs": [
				{
					"internalType": "address",
					"name": "",
					"type": "address"
				}
			],
			"stateMutability": "view",
			"type": "function"
		},
		{
			"inputs": [],
			"name": "totalSupply",
			"outputs": [
				{
					"internalType": "uint256",
					"name": "",
					"type": "uint256"
				}
			],
			"stateMutability": "view",
			"type": "function"
		},
		{
			"inputs": [
				{
					"internalType": "address",
					"name": "to",
					"type": "address"
				},
				{
					"internalType": "uint256",
					"name": "amount",
					"type": "uint256"
				}
			],
			"name": "transfer",
			"outputs": [
				{
					"internalType": "bool",
					"name": "",
					"type": "bool"
				}
			],
			"stateMutability": "nonpayable",
			"type": "function"
		},
		{
			"inputs": [
				{
					"internalType": "address",
					"name": "from",
					"type": "address"
				},
				{
					"internalType": "address",
					"name": "to",
					"type": "address"
				},
				{
					"internalType": "uint256",
					"name": "amount",
					"type": "uint256"
				}
			],
			"name": "transferFrom",
			"outputs": [
				{
					"internalType": "bool",
					"name": "",
					"type": "bool"
				}
			],
			"stateMutability": "nonpayable",
			"type": "function"
		},
		{
			"inputs": [
				{
					"internalType": "address",
					"name": "newOwner",
					"type": "address"
				}
			],
			"name": "transferOwnership",
			"outputs": [],
			"stateMutability": "nonpayable",
			"type": "function"
		},
		{
			"inputs": [],
			"name": "unlockDevPoolWallet_1",
			"outputs": [],
			"stateMutability": "nonpayable",
			"type": "function"
		},
		{
			"inputs": [],
			"name": "unlockDevPoolWallet_2",
			"outputs": [],
			"stateMutability": "nonpayable",
			"type": "function"
		},
		{
			"inputs": [],
			"name": "unlockDevPoolWallet_3",
			"outputs": [],
			"stateMutability": "nonpayable",
			"type": "function"
		},
		{
			"inputs": [],
			"name": "unlockPrivatePlacementWallet",
			"outputs": [],
			"stateMutability": "nonpayable",
			"type": "function"
		},
		{
			"inputs": [],
			"name": "unlockStrategicPartnerWallet_1",
			"outputs": [],
			"stateMutability": "nonpayable",
			"type": "function"
		},
		{
			"inputs": [],
			"name": "unlockStrategicPartnerWallet_2",
			"outputs": [],
			"stateMutability": "nonpayable",
			"type": "function"
		},
		{
			"inputs": [],
			"name": "unlockStrategicPartnerWallet_3",
			"outputs": [],
			"stateMutability": "nonpayable",
			"type": "function"
		},
		{
			"inputs": [],
			"name": "unlockTeamAndProjectCoordinatorWallet_1",
			"outputs": [],
			"stateMutability": "nonpayable",
			"type": "function"
		},
		{
			"inputs": [],
			"name": "unlockTeamAndProjectCoordinatorWallet_2",
			"outputs": [],
			"stateMutability": "nonpayable",
			"type": "function"
		},
		{
			"inputs": [],
			"name": "unlockTeamAndProjectCoordinatorWallet_3",
			"outputs": [],
			"stateMutability": "nonpayable",
			"type": "function"
		},
		{
			"inputs": [
				{
					"internalType": "uint256",
					"name": "stake_index",
					"type": "uint256"
				}
			],
			"name": "withdrawAllStake",
			"outputs": [],
			"stateMutability": "nonpayable",
			"type": "function"
		},
		{
			"inputs": [
				{
					"internalType": "uint256",
					"name": "amount",
					"type": "uint256"
				},
				{
					"internalType": "uint256",
					"name": "stake_index",
					"type": "uint256"
				}
			],
			"name": "withdrawStake",
			"outputs": [],
			"stateMutability": "nonpayable",
			"type": "function"
		},
		{
			"stateMutability": "payable",
			"type": "receive"
		}
	]
}