{
	"data": {
		"bytecode": {
			"linkReferences": {},
			"object": "60806040526b04be37ea7317415c45800000601055601e80546001600160a01b03199081167307a20dc6722563783e44ba8edca08c774621125e17909155601f80548216732f838cf0df38b2e91e747a01ddae5ebad5558b7a1790556020805482167345094071c4daaf6a9a73b0a0f095a2b138bd8a3a1790556021805490911673aeb26fb84d0e2b3b353cd50f0a29fd40c916d2ab179055348015620000a557600080fd5b50604080518082018252600881526754414c415845554d60c01b6020808301918252835180850190945260058452640a8829882b60db1b908401528151919291620000f391600391620008aa565b50805162000109906004906020840190620008aa565b50505062000126620001206200081c60201b60201c565b62000820565b600f60065560506007556b43dacaf91c1a84ff080000006015556040805180820190915260088082526754414c415845554d60c01b60209092019182526200017191601691620008aa565b50604080518082019091526005808252640a8829882b60db1b6020909201918252620001a091601791620008aa565b50601c805461ffff1916600117905560067f6e7b3e7a52a447110501b683591c02edbdeee417f58dfb6b7bd7c4d5fac99cf95560077ffa02b14ef9deb43f821d5c4d4df343647569f13a66aa4e6481eeddd408415a435560087f67b1edb0e70c3b1fd9dece63d8d8420ca330b1f92f03281af2c99c6631d045095560136020526b01484ed81cebeb37b68000007fc04b5662930a6d9d33ae3e671e7857b39736bceb6d3e1a26756e2a89604454d855601d546001600160a01b03908116600090815260408082206b03648a260e3486a65a00000090556b04be37ea7317415c45800000601a556b08adb972c10243f4478000006019556b0d92289838d21a9968000000601b8190553083529181902091909155601e5490516b02427288f60130b77e800000929190911690620002d69062000939565b9182526001600160a01b03166020820152604001604051809103906000f08015801562000307573d6000803e3d6000fd5b50602260006101000a8154816001600160a01b0302191690836001600160a01b031602179055506b024306c4097859c43c00000073f09f65dd4d229e991901669ad7c7549f060e30b96040516200035e9062000939565b9182526001600160a01b03166020820152604001604051809103906000f0801580156200038f573d6000803e3d6000fd5b50602360006101000a8154816001600160a01b0302191690836001600160a01b031602179055506b024306c4097859c43c000000731a2118e056d6af192e233c2c9cfb34e067ded1f8604051620003e69062000939565b9182526001600160a01b03166020820152604001604051809103906000f08015801562000417573d6000803e3d6000fd5b50602460006101000a8154816001600160a01b0302191690836001600160a01b031602179055506b024306c4097859c43c00000073126974fa373267d86fab6d6871afe62ccb68e8106040516200046e9062000939565b9182526001600160a01b03166020820152604001604051809103906000f0801580156200049f573d6000803e3d6000fd5b50602580546001600160a01b0319166001600160a01b03928316179055601f546040516b024306c4097859c43c000000929190911690620004e09062000939565b9182526001600160a01b03166020820152604001604051809103906000f08015801562000511573d6000803e3d6000fd5b50602680546001600160a01b0319166001600160a01b039283161790556020546040516b024306c4097859c43c000000929190911690620005529062000939565b9182526001600160a01b03166020820152604001604051809103906000f08015801562000583573d6000803e3d6000fd5b50602780546001600160a01b0319166001600160a01b039283161790556021546040516b024306c4097859c43c000000929190911690620005c49062000939565b9182526001600160a01b03166020820152604001604051809103906000f080158015620005f5573d6000803e3d6000fd5b50602860006101000a8154816001600160a01b0302191690836001600160a01b031602179055506b024306c4097859c43c00000073e61e7a7d16db384433e532fb85724e7f3bdaae2f6040516200064c9062000939565b9182526001600160a01b03166020820152604001604051809103906000f0801580156200067d573d6000803e3d6000fd5b50602960006101000a8154816001600160a01b0302191690836001600160a01b031602179055506b024306c4097859c43c00000073406605eb24a97a2d61b516d8d850f2aefa6a731a604051620006d49062000939565b9182526001600160a01b03166020820152604001604051809103906000f08015801562000705573d6000803e3d6000fd5b50602a60006101000a8154816001600160a01b0302191690836001600160a01b031602179055506b024306c4097859c43c0000007397620deadc98bc8173303686037ce7b986cf53c36040516200075c9062000939565b9182526001600160a01b03166020820152604001604051809103906000f0801580156200078d573d6000803e3d6000fd5b50602b60006101000a8154816001600160a01b0302191690836001600160a01b03160217905550620008136b2d9ae8ee22462671588000006040518060400160405280601981526020017f496e73756666696369656e7420546f74616c20537570706c79000000000000008152506015546200087260201b6200316f179092919060201c565b601555620009f3565b3390565b600580546001600160a01b038381166001600160a01b0319831681179093556040519116919082907f8be0079c531659141344cd1fd0a4f28419497f9722a3daafe3b4186f6b6457e090600090a35050565b60008184841115620008a25760405162461bcd60e51b81526004016200089991906200095e565b60405180910390fd5b505050900390565b828054620008b890620009b6565b90600052602060002090601f016020900481019282620008dc576000855562000927565b82601f10620008f757805160ff191683800117855562000927565b8280016001018555821562000927579182015b82811115620009275782518255916020019190600101906200090a565b506200093592915062000947565b5090565b6105b2806200660183390190565b5b8082111562000935576000815560010162000948565b600060208083528351808285015260005b818110156200098d578581018301518582016040015282016200096f565b81811115620009a0576000604083870101525b50601f01601f1916929092016040019392505050565b600181811c90821680620009cb57607f821691505b60208210811415620009ed57634e487b7160e01b600052602260045260246000fd5b50919050565b615bfe8062000a036000396000f3fe6080604052600436106104845760003560e01c80638891cf0d1161025e578063a7771ee311610143578063cbb3e152116100bb578063dd62ed3e1161008a578063e88c326f1161006f578063e88c326f14610d0b578063f0413bd414610d2b578063f2fde38b14610d4b57610494565b8063dd62ed3e14610c2d578063e73e14bf14610c7357610494565b8063cbb3e15214610bb8578063d5dbdf1b14610bcd578063d94d4ad614610bed578063d9dc2d8d14610c0d57610494565b8063ba1f879f11610112578063bed9d861116100f7578063bed9d86114610b6d578063c680111c14610b82578063cb79c2e114610ba257610494565b8063ba1f879f14610b41578063bad4346c14610b5757610494565b8063a7771ee314610acb578063a837a65e14610aeb578063a9059cbb14610b0b578063b87da76d14610b2b57610494565b806396bc0687116101d6578063a1f780cf116101a5578063a3626dbb1161018a578063a3626dbb14610a5b578063a3ec138d14610a7b578063a457c2d714610aab57610494565b8063a1f780cf14610a1b578063a25a17a714610a3b57610494565b806396bc06871461099f578063a071dcf4146109b4578063a143a5f2146109ce578063a169c515146109fb57610494565b80638d4a3c851161022d57806390a4c7091161021257806390a4c70914610960578063934851ec1461097557806395d89b411461098a57610494565b80638d4a3c851461090e5780638da5cb5b1461092e57610494565b80638891cf0d146108a25780638b2b423a146108b85780638b7c64da146108ce5780638c63f97f146108ee57610494565b806340c10f191161038457806370a08231116102fc5780637b0472f0116102cb5780637c2412f9116102b05780637c2412f9146108635780638378a87514610878578063883d99841461088d57610494565b80637b0472f01461082e5780637bb4e3201461084e57610494565b806370a08231146107ae578063715018a6146107e457806378dc9315146107f957806379cc67901461080e57610494565b806356029137116103535780635f5300ff116103385780635f5300ff14610763578063632a9a521461077957806363a599a41461078e57610494565b806356029137146107395780635b88349d1461074e57610494565b806340c10f19146106c357806342966c68146106e3578063471a30a214610703578063549dee0b1461072357610494565b806318160ddd11610417578063313ce567116103e6578063376d441c116103cb578063376d441c1461066d578063395093511461068e5780633f3ef2dc146106ae57610494565b8063313ce56714610635578063338dbf591461065757610494565b806318160ddd1461059757806319ca147d146105ac57806323b872dd146105f65780632cf1a5fb1461061657610494565b8063095ea7b311610453578063095ea7b31461051d5780630e1b09ed1461054d5780630ec5aa1a1461056d57806315441bb91461058257610494565b8063042249bb1461049d57806306fdde03146104c6578063070c8b74146104e8578063078f522f146104fd57610494565b366104945761049234610d6b565b005b61049234610d6b565b3480156104a957600080fd5b506104b360195481565b6040519081526020015b60405180910390f35b3480156104d257600080fd5b506104db610edd565b6040516104bd9190615751565b3480156104f457600080fd5b50610492610f6f565b34801561050957600080fd5b506104926105183660046157a6565b61107e565b34801561052957600080fd5b5061053d610538366004615830565b6112c6565b60405190151581526020016104bd565b34801561055957600080fd5b5061049261056836600461585c565b6112de565b34801561057957600080fd5b50610492611382565b34801561058e57600080fd5b506104926114c5565b3480156105a357600080fd5b506015546104b3565b3480156105b857600080fd5b506105c1611569565b6040516104bd919081518152602080830151908201526040808301511515908201526060918201519181019190915260800190565b34801561060257600080fd5b5061053d610611366004615875565b611666565b34801561062257600080fd5b50601c5461053d90610100900460ff1681565b34801561064157600080fd5b5060125b60405160ff90911681526020016104bd565b34801561066357600080fd5b506104b360115481565b34801561067957600080fd5b50601c5461053d906301000000900460ff1681565b34801561069a57600080fd5b5061053d6106a9366004615830565b61168a565b3480156106ba57600080fd5b506104926116c9565b3480156106cf57600080fd5b506104926106de366004615830565b61176d565b3480156106ef57600080fd5b506104926106fe36600461585c565b6117c3565b34801561070f57600080fd5b5061049261071e3660046158b6565b6117d0565b34801561072f57600080fd5b506104b3600f5481565b34801561074557600080fd5b506104926118b6565b34801561075a57600080fd5b5061049261195a565b34801561076f57600080fd5b506104b3600b5481565b34801561078557600080fd5b50610492611a13565b34801561079a57600080fd5b506104926107a936600461585c565b611b36565b3480156107ba57600080fd5b506104b36107c93660046158d9565b6001600160a01b031660009081526013602052604090205490565b3480156107f057600080fd5b50610492611b7d565b34801561080557600080fd5b50610492611bd1565b34801561081a57600080fd5b50610492610829366004615830565b611c75565b34801561083a57600080fd5b506104926108493660046158f6565b611c8a565b34801561085a57600080fd5b50610492611d5b565b34801561086f57600080fd5b50610492611dff565b34801561088457600080fd5b50610492611e27565b34801561089957600080fd5b50610492611ecb565b3480156108ae57600080fd5b506104b360075481565b3480156108c457600080fd5b506104b360105481565b3480156108da57600080fd5b506104926108e936600461585c565b611f6f565b3480156108fa57600080fd5b5061049261090936600461585c565b612026565b34801561091a57600080fd5b50610492610929366004615830565b6120a9565b34801561093a57600080fd5b506005546001600160a01b03165b6040516001600160a01b0390911681526020016104bd565b34801561096c57600080fd5b50610492612162565b34801561098157600080fd5b50610492612206565b34801561099657600080fd5b506104db6122aa565b3480156109ab57600080fd5b506104926122b9565b3480156109c057600080fd5b50601c546106459060ff1681565b3480156109da57600080fd5b506104b36109e936600461585c565b600d6020526000908152604090205481565b348015610a0757600080fd5b50610492610a1636600461585c565b61287f565b348015610a2757600080fd5b50610492610a36366004615918565b6128d0565b348015610a4757600080fd5b50610492610a563660046158d9565b612a97565b348015610a6757600080fd5b50602054610948906001600160a01b031681565b348015610a8757600080fd5b5061053d610a963660046158d9565b600c6020526000908152604090205460ff1681565b348015610ab757600080fd5b5061053d610ac6366004615830565b612b29565b348015610ad757600080fd5b5061053d610ae63660046158d9565b612bd3565b348015610af757600080fd5b50601e54610948906001600160a01b031681565b348015610b1757600080fd5b5061053d610b26366004615830565b612c4a565b348015610b3757600080fd5b506104b360085481565b348015610b4d57600080fd5b506104b3601a5481565b348015610b6357600080fd5b506104b3601b5481565b348015610b7957600080fd5b50610492612c58565b348015610b8e57600080fd5b50601f54610948906001600160a01b031681565b348015610bae57600080fd5b506104b360065481565b348015610bc457600080fd5b506104b3612cd1565b348015610bd957600080fd5b50610492610be836600461585c565b612d04565b348015610bf957600080fd5b50610492610c0836600461585c565b612d87565b348015610c1957600080fd5b50602154610948906001600160a01b031681565b348015610c3957600080fd5b506104b3610c4836600461597b565b6001600160a01b03918216600090815260146020908152604080832093909416825291909152205490565b348015610c7f57600080fd5b50610c93610c8e3660046158d9565b612e3e565b6040516104bd9190600061012082019050825182526020830151602083015260408301516001600160a01b0381511660408401526020810151606084015260408101516080840152606081015160a0840152608081015160c084015260a081015160e084015260c08101516101008401525092915050565b348015610d1757600080fd5b50601c5461053d9062010000900460ff1681565b348015610d3757600080fd5b50610492610d463660046159b4565b612fec565b348015610d5757600080fd5b50610492610d663660046158d9565b6130a2565b6000610d7882600361319b565b73e61e7a7d16db384433e532fb85724e7f3bdaae2f60005260136020527fac3f991b0bcfbe5a49cb8f28aa381129b92fdf4ed0797bb0b28f2d4f8472e52f54909150610dc490826131ae565b60136020527fac3f991b0bcfbe5a49cb8f28aa381129b92fdf4ed0797bb0b28f2d4f8472e52f5573406605eb24a97a2d61b516d8d850f2aefa6a731a6000527f8a2b6c18ed66322c8ecb6f6eef8af1341bab377e298d1a97668035e55c3fb98754610e2f90826131ae565b60136020527f8a2b6c18ed66322c8ecb6f6eef8af1341bab377e298d1a97668035e55c3fb987557397620deadc98bc8173303686037ce7b986cf53c36000527f192f1ac10b1314d35bbc8fcf3f0d2f253c4710988114baec9c0ab6a710be3ec754610e9a90826131ae565b7397620deadc98bc8173303686037ce7b986cf53c360005260136020527f192f1ac10b1314d35bbc8fcf3f0d2f253c4710988114baec9c0ab6a710be3ec7555050565b606060168054610eec906159ff565b80601f0160208091040260200160405190810160405280929190818152602001828054610f18906159ff565b8015610f655780601f10610f3a57610100808354040283529160200191610f65565b820191906000526020600020905b815481529060010190602001808311610f4857829003601f168201915b5050505050905090565b610f776131ba565b336000908152600c602052604090205460ff161515600114610fe05760405162461bcd60e51b815260206004820152601360248201527f596f7520617265206e6f74206120766f7465720000000000000000000000000060448201526064015b60405180910390fd5b336000908152600c60209081526040808320600a54845260019081019092529091205460ff161515146110555760405162461bcd60e51b815260206004820152601660248201527f596f752068617665206e6f7420766f74656420796574000000000000000000006044820152606401610fd7565b600a546000908152600d60205260408120805460019290611077908490615a50565b9091555050565b6005546001600160a01b031633146110c65760405162461bcd60e51b81526020600482018190526024820152600080516020615b708339815191526044820152606401610fd7565b601c546000906301000000900460ff1615156001146111275760405162461bcd60e51b815260206004820152601c60248201527f507269766174652053616c65206e6f74207965742073746172746564000000006044820152606401610fd7565b816111745760405162461bcd60e51b815260206004820152600e60248201527f4e6f7468696e6720746f206164640000000000000000000000000000000000006044820152606401610fd7565b60005b828110156112b0576111a384848381811061119457611194615a67565b9050604002016020013561320c565b8383828181106111b5576111b5615a67565b90506040020160200135826111ca9190615a7d565b91506112188484838181106111e1576111e1615a67565b6111f792602060409092020190810191506158d9565b85858481811061120957611209615a67565b90506040020160200135613259565b83838281811061122a5761122a615a67565b61124092602060409092020190810191506158d9565b6001600160a01b0316337f045b7246d64fe59430ba3159fd11dc7352501c1d80f8a6535cf48f68965e274586868581811061127d5761127d615a67565b9050604002016020013560405161129691815260200190565b60405180910390a3806112a881615a95565b915050611177565b50601a546112be90826133cc565b601a55505050565b6000336112d48185856133d8565b5060019392505050565b6005546001600160a01b031633146113265760405162461bcd60e51b81526020600482018190526024820152600080516020615b708339815191526044820152606401610fd7565b60195461133390826133cc565b60195560155461134390826133cc565b60155560405181815260009030907f715128ea18bcb5a472f8187c4fbfdc1ed6d04ecdcff67e3f546fdd075e862665906020015b60405180910390a350565b61138a613531565b602560009054906101000a90046001600160a01b03166001600160a01b03166338af3eed6040518163ffffffff1660e01b8152600401602060405180830381865afa1580156113dd573d6000803e3d6000fd5b505050506040513d601f19601f820116820180604052508101906114019190615ab0565b61140a8161358e565b6025546000906001600160a01b0316630a95606e6114266135e6565b6040518263ffffffff1660e01b81526004016114429190615acd565b6020604051808303816000875af1158015611461573d6000803e3d6000fd5b505050506040513d601f19601f820116820180604052508101906114859190615aff565b90506114b18160136000335b6001600160a01b03168152602081019190915260400160002054906131ae565b336000908152601360205260409020555050565b6114cd613531565b602760009054906101000a90046001600160a01b03166001600160a01b03166338af3eed6040518163ffffffff1660e01b8152600401602060405180830381865afa158015611520573d6000803e3d6000fd5b505050506040513d601f19601f820116820180604052508101906115449190615ab0565b61154d8161358e565b6027546000906001600160a01b0316630a95606e611426613a31565b61159660405180608001604052806000815260200160008152602001600015158152602001600081525090565b3360009081526012602052604090206001015461161b5760405162461bcd60e51b815260206004820152603860248201527f5072697661746553616c653a20596f7520646f6e2774206861766520616e792060448201527f62616c616e636520666f7220707269766174652073616c6500000000000000006064820152608401610fd7565b5033600090815260126020908152604091829020825160808101845281548152600182015492810192909252600281015460ff16151592820192909252600390910154606082015290565b600033611674858285613af1565b61167f858585613b83565b506001949350505050565b3360008181526014602090815260408083206001600160a01b03871684529091528120549091906112d490829086906116c4908790615a7d565b6133d8565b6116d1613531565b602b60009054906101000a90046001600160a01b03166001600160a01b03166338af3eed6040518163ffffffff1660e01b8152600401602060405180830381865afa158015611724573d6000803e3d6000fd5b505050506040513d601f19601f820116820180604052508101906117489190615ab0565b6117518161358e565b602b546000906001600160a01b0316630a95606e611426613de7565b6005546001600160a01b031633146117b55760405162461bcd60e51b81526020600482018190526024820152600080516020615b708339815191526044820152606401610fd7565b6117bf828261423f565b5050565b6117cd338261431e565b50565b6005546001600160a01b031633146118185760405162461bcd60e51b81526020600482018190526024820152600080516020615b708339815191526044820152606401610fd7565b60058160ff161061186b5760405162461bcd60e51b815260206004820152601560248201527f54617820466565206d6178696d756d20697320352500000000000000000000006044820152606401610fd7565b601c805460ff191660ff831690811790915560405190815233907fdf92943b31fff67e8447ff9fa8b5e226ddcc5fb34d36cfe120c0f2b96eb8d6f7906020015b60405180910390a250565b6118be613531565b602960009054906101000a90046001600160a01b03166001600160a01b03166338af3eed6040518163ffffffff1660e01b8152600401602060405180830381865afa158015611911573d6000803e3d6000fd5b505050506040513d601f19601f820116820180604052508101906119359190615ab0565b61193e8161358e565b6029546000906001600160a01b0316630a95606e611426613de7565b601c5460ff6101009091041615156001146119b75760405162461bcd60e51b815260206004820152601760248201527f41697264726f70206e6f742079657420737461727465640000000000000000006044820152606401610fd7565b60006119c23361449b565b306000908152601360205260409020549091506119df90826133cc565b306000908152601360208190526040822092909255611a0091839133611491565b3360009081526013602052604090205550565b611a1b6131ba565b336000908152600c602052604090205460ff161515600114611a7f5760405162461bcd60e51b815260206004820152601360248201527f596f7520617265206e6f74206120766f746572000000000000000000000000006044820152606401610fd7565b336000908152600c60209081526040808320600a54845260010190915290205460ff1615611aef5760405162461bcd60e51b815260206004820152601560248201527f596f75206861766520766f746564206265666f726500000000000000000000006044820152606401610fd7565b336000908152600c60209081526040808320600a8054855260019182018452828520805460ff191683179055548452600d9092528220805491929091611077908490615a7d565b33600090815260136020526040902054611b5090826133cc565b33600090815260136020526040812091909155601b8054839290611b75908490615a7d565b909155505050565b6005546001600160a01b03163314611bc55760405162461bcd60e51b81526020600482018190526024820152600080516020615b708339815191526044820152606401610fd7565b611bcf60006145ee565b565b611bd9613531565b602360009054906101000a90046001600160a01b03166001600160a01b03166338af3eed6040518163ffffffff1660e01b8152600401602060405180830381865afa158015611c2c573d6000803e3d6000fd5b505050506040513d601f19601f82011682018060405250810190611c509190615ab0565b611c598161358e565b6023546000906001600160a01b0316630a95606e6114266135e6565b611c80823383613af1565b6117bf828261431e565b8062278d001480611c9d5750806276a700145b80611caa57508062ed4e00145b80611cb85750806301e13380145b611d045760405162461bcd60e51b815260206004820152601b60248201527f5374616b696e67206f7074696f6e20646f65736e7420657869737400000000006044820152606401610fd7565b611d0e338361431e565b611d2d3383836018600086815260200190815260200160002054614640565b30600090815260136020526040902054611d4790836131ae565b306000908152601360205260409020555050565b611d63613531565b602460009054906101000a90046001600160a01b03166001600160a01b03166338af3eed6040518163ffffffff1660e01b8152600401602060405180830381865afa158015611db6573d6000803e3d6000fd5b505050506040513d601f19601f82011682018060405250810190611dda9190615ab0565b611de38161358e565b6024546000906001600160a01b0316630a95606e6114266135e6565b611e15611e0b33614835565b6013600033611491565b33600090815260136020526040902055565b611e2f613531565b602660009054906101000a90046001600160a01b03166001600160a01b03166338af3eed6040518163ffffffff1660e01b8152600401602060405180830381865afa158015611e82573d6000803e3d6000fd5b505050506040513d601f19601f82011682018060405250810190611ea69190615ab0565b611eaf8161358e565b6026546000906001600160a01b0316630a95606e611426613a31565b611ed3613531565b602860009054906101000a90046001600160a01b03166001600160a01b03166338af3eed6040518163ffffffff1660e01b8152600401602060405180830381865afa158015611f26573d6000803e3d6000fd5b505050506040513d601f19601f82011682018060405250810190611f4a9190615ab0565b611f538161358e565b6028546000906001600160a01b0316630a95606e611426613a31565b6005546001600160a01b03163314611fb75760405162461bcd60e51b81526020600482018190526024820152600080516020615b708339815191526044820152606401610fd7565b30600090815260136020526040902054611fd190826133cc565b30600090815260136020526040902055601554611fee90826133cc565b60155560405181815260009030907fddf252ad1be2c89b69c2b068fc378daa952ba7f163c4a11628f55a4df523b3ef90602001611377565b6005546001600160a01b0316331461206e5760405162461bcd60e51b81526020600482018190526024820152600080516020615b708339815191526044820152606401610fd7565b6120778161498f565b60405181815233907fe4d1041ab63832a18ae323c0781239637b799ccd1ffa03b0cc4c0916f14834d7906020016118ab565b6005546001600160a01b031633146120f15760405162461bcd60e51b81526020600482018190526024820152600080516020615b708339815191526044820152606401610fd7565b60006120fb614a41565b90506001811515141561215557601b5461211590836133cc565b601b556001600160a01b03831660009081526013602052604090205461213b90836131ae565b6001600160a01b0384166000908152601360205260409020555b61215d614adb565b505050565b61216a613531565b602a60009054906101000a90046001600160a01b03166001600160a01b03166338af3eed6040518163ffffffff1660e01b8152600401602060405180830381865afa1580156121bd573d6000803e3d6000fd5b505050506040513d601f19601f820116820180604052508101906121e19190615ab0565b6121ea8161358e565b602a546000906001600160a01b0316630a95606e611426613de7565b61220e613531565b602260009054906101000a90046001600160a01b03166001600160a01b03166338af3eed6040518163ffffffff1660e01b8152600401602060405180830381865afa158015612261573d6000803e3d6000fd5b505050506040513d601f19601f820116820180604052508101906122859190615ab0565b61228e8161358e565b6022546000906001600160a01b0316630a95606e611426614aef565b606060178054610eec906159ff565b6005546001600160a01b031633146123015760405162461bcd60e51b81526020600482018190526024820152600080516020615b708339815191526044820152606401610fd7565b601c5462010000900460ff161580156123245750601c546301000000900460ff16155b6123705760405162461bcd60e51b815260206004820152601560248201527f4e6f7468696e6720746f20696e697469616c697a6500000000000000000000006044820152606401610fd7565b601c805462ff0000191662010000179055602254604080517fc8cca41e00000000000000000000000000000000000000000000000000000000815290516001600160a01b039092169163c8cca41e9160048082019260009290919082900301818387803b1580156123e057600080fd5b505af11580156123f4573d6000803e3d6000fd5b50505050602360009054906101000a90046001600160a01b03166001600160a01b031663c8cca41e6040518163ffffffff1660e01b8152600401600060405180830381600087803b15801561244857600080fd5b505af115801561245c573d6000803e3d6000fd5b50505050602460009054906101000a90046001600160a01b03166001600160a01b031663c8cca41e6040518163ffffffff1660e01b8152600401600060405180830381600087803b1580156124b057600080fd5b505af11580156124c4573d6000803e3d6000fd5b50505050602560009054906101000a90046001600160a01b03166001600160a01b031663c8cca41e6040518163ffffffff1660e01b8152600401600060405180830381600087803b15801561251857600080fd5b505af115801561252c573d6000803e3d6000fd5b50505050602660009054906101000a90046001600160a01b03166001600160a01b031663c8cca41e6040518163ffffffff1660e01b8152600401600060405180830381600087803b15801561258057600080fd5b505af1158015612594573d6000803e3d6000fd5b50505050602760009054906101000a90046001600160a01b03166001600160a01b031663c8cca41e6040518163ffffffff1660e01b8152600401600060405180830381600087803b1580156125e857600080fd5b505af11580156125fc573d6000803e3d6000fd5b50505050602860009054906101000a90046001600160a01b03166001600160a01b031663c8cca41e6040518163ffffffff1660e01b8152600401600060405180830381600087803b15801561265057600080fd5b505af1158015612664573d6000803e3d6000fd5b50505050602960009054906101000a90046001600160a01b03166001600160a01b031663c8cca41e6040518163ffffffff1660e01b8152600401600060405180830381600087803b1580156126b857600080fd5b505af11580156126cc573d6000803e3d6000fd5b50505050602a60009054906101000a90046001600160a01b03166001600160a01b031663c8cca41e6040518163ffffffff1660e01b8152600401600060405180830381600087803b15801561272057600080fd5b505af1158015612734573d6000803e3d6000fd5b50505050602b60009054906101000a90046001600160a01b03166001600160a01b031663c8cca41e6040518163ffffffff1660e01b8152600401600060405180830381600087803b15801561278857600080fd5b505af115801561279c573d6000803e3d6000fd5b505050506127a73390565b6001600160a01b03167f72e04afc383d9ab428814e808cd65abb27c66b5fa85cc230b4cda3e36b436c9860405160405180910390a2601c805463ff000000191663010000001790556127f842601155565b60405133907f166f0287f5e28d35ec474da4c920a3e6f47f0d7c8833b963dd8367f68dd377cd90600090a2601c805461ff00191661010017905561283b42600855565b601c5460405161010090910460ff161515815233907fe596a4fd4ba2e7f54093d98b96267c6b0dbae1e317bed8123d9fbc868c0283779060200160405180910390a2565b6005546001600160a01b031633146128c75760405162461bcd60e51b81526020600482018190526024820152600080516020615b708339815191526044820152606401610fd7565b6117cd81614e8b565b6005546001600160a01b031633146129185760405162461bcd60e51b81526020600482018190526024820152600080516020615b708339815191526044820152606401610fd7565b601c546000906301000000900460ff1615156001146129795760405162461bcd60e51b815260206004820152601c60248201527f507269766174652053616c65206e6f74207965742073746172746564000000006044820152606401610fd7565b816129c65760405162461bcd60e51b815260206004820152601160248201527f4e6f7468696e6720746f2064656c6574650000000000000000000000000000006044820152606401610fd7565b60005b82811015612a89576000612a028585848181106129e8576129e8615a67565b90506020020160208101906129fd91906158d9565b614ee0565b9050612a0e8184615a7d565b9250848483818110612a2257612a22615a67565b9050602002016020810190612a3791906158d9565b6001600160a01b0316336001600160a01b03167f946ed2f29c189bb6f4744c09f637bda38011cabc8d1433bb26ddad258b9e82d660405160405180910390a35080612a8181615a95565b9150506129c9565b50601a546112be90826131ae565b6005546001600160a01b03163314612adf5760405162461bcd60e51b81526020600482018190526024820152600080516020615b708339815191526044820152606401610fd7565b601e80546001600160a01b0319166001600160a01b0383169081179091556040517fc35cea67bc4caf96cc47a71099d4192a65d36ab490d26ebf55825c0700815f6190600090a250565b3360008181526014602090815260408083206001600160a01b038716845290915281205490919083811015612bc65760405162461bcd60e51b815260206004820152602560248201527f45524332303a2064656372656173656420616c6c6f77616e63652062656c6f7760448201527f207a65726f0000000000000000000000000000000000000000000000000000006064820152608401610fd7565b61167f82868684036133d8565b60006001600160a01b038216612c2b5760405162461bcd60e51b815260206004820152600f60248201527f496e76616c6964206164647265737300000000000000000000000000000000006044820152606401610fd7565b506001600160a01b03166000908152600c602052604090205460ff1690565b6000336112d4818585613b83565b600080612c6433614ff7565b91509150612c718161287f565b30600090815260136020526040902054612c8b90836133cc565b30600090815260136020526040902055601954612ca890826133cc565b601955612cc1612cb88284615a7d565b601554906131ae565b6015556114b1611e0b8284615a7d565b6000600854600014612cfe5762093a8060085442612cef9190615a50565b612cf99190615b2e565b905090565b50600090565b6005546001600160a01b03163314612d4c5760405162461bcd60e51b81526020600482018190526024820152600080516020615b708339815191526044820152606401610fd7565b612d558161518c565b60405181815233907f31bbdc307cb7afab9b265ee4c47f5feb19d8a8702a67c0b695df02e0d4c55b5f906020016118ab565b6005546001600160a01b03163314612dcf5760405162461bcd60e51b81526020600482018190526024820152600080516020615b708339815191526044820152606401610fd7565b30600090815260136020526040902054612de990826131ae565b30600090815260136020526040902055601554612e0690826131ae565b60155560405181815230906000907fddf252ad1be2c89b69c2b068fc378daa952ba7f163c4a11628f55a4df523b3ef90602001611377565b612e466156cb565b6001600160a01b038083166000908152600e6020908152604080832081516101408101835281548616606080830191825260018401546080840152600284015460a0840152600384015460c0840152600484015460e08401526005840154610100840152600684015461012084015290825260078301549096168185015260089091015481830152815194850182528385528483019390935282519084018190520151909190612f385760405162461bcd60e51b815260206004820152600e60248201527f4e6f207374616b6520666f756e640000000000000000000000000000000000006044820152606401610fd7565b6000612f478260400151615238565b9050600042836040015160c001511115612f8457600080612f7085604001516020015185615296565b9092509050612f7f8183615a7d565b925050505b6000612f9385604001516152cb565b1115612fbb576000612fac8460400151602001516152e4565b60408501516080015250612fc9565b604083015160006080909101525b604083018051606001929092526020808401919091529051015181529392505050565b6005546001600160a01b031633146130345760405162461bcd60e51b81526020600482018190526024820152600080516020615b708339815191526044820152606401610fd7565b601f80546001600160a01b03199081166001600160a01b03868116918217909355602080548316868516908117909155602180549093169385169384179092556040517f6c2b82da20e0f724acb9c915394d71b33d74c77790c60004585726c2414879a390600090a4505050565b6005546001600160a01b031633146130ea5760405162461bcd60e51b81526020600482018190526024820152600080516020615b708339815191526044820152606401610fd7565b6001600160a01b0381166131665760405162461bcd60e51b815260206004820152602660248201527f4f776e61626c653a206e6577206f776e657220697320746865207a65726f206160448201527f64647265737300000000000000000000000000000000000000000000000000006064820152608401610fd7565b6117cd816145ee565b600081848411156131935760405162461bcd60e51b8152600401610fd79190615751565b505050900390565b60006131a78284615b2e565b9392505050565b60006131a78284615a7d565b60095460ff16611bcf5760405162461bcd60e51b815260206004820152601760248201527f566f74696e67206973206e6f7420617661696c61626c650000000000000000006044820152606401610fd7565b806117cd5760405162461bcd60e51b815260206004820152601560248201527f416d6f756e742063616e6e6f74206265207a65726f00000000000000000000006044820152606401610fd7565b6010548111156132d15760405162461bcd60e51b815260206004820152603160248201527f5072697661746553616c653a206e6f7420656e6f7567682062616c616e63652060448201527f746f206164642061206e657720757365720000000000000000000000000000006064820152608401610fd7565b6001600160a01b038216600090815260126020526040902060010154156133605760405162461bcd60e51b815260206004820152602960248201527f5072697661746553616c653a2054686973207573657220616c7265616479207260448201527f65676973746572656400000000000000000000000000000000000000000000006064820152608401610fd7565b6001600160a01b0382166000908152601260205260408120828155600180820184905560028201805460ff191690556003909101819055600f8054919290916133aa908490615a7d565b9250508190555080601060008282546133c39190615a50565b90915550505050565b60006131a78284615a50565b6001600160a01b0383166134535760405162461bcd60e51b8152602060048201526024808201527f45524332303a20617070726f76652066726f6d20746865207a65726f2061646460448201527f72657373000000000000000000000000000000000000000000000000000000006064820152608401610fd7565b6001600160a01b0382166134cf5760405162461bcd60e51b815260206004820152602260248201527f45524332303a20617070726f766520746f20746865207a65726f20616464726560448201527f73730000000000000000000000000000000000000000000000000000000000006064820152608401610fd7565b6001600160a01b0383811660008181526014602090815260408083209487168084529482529182902085905590518481527f8c5be1e5ebec7d5bd14f71427d1e84f3dd0314c0f7b2291e5b200ac8c7c3b92591015b60405180910390a3505050565b601c5462010000900460ff161515600114611bcf5760405162461bcd60e51b815260206004820152601d60248201527f4c6f636b65642057616c6c6574206e6f742079657420737461727465640000006044820152606401610fd7565b336001600160a01b038216146117cd5760405162461bcd60e51b815260206004820152601160248201527f57616c6c6574206f776e6572206f6e6c790000000000000000000000000000006044820152606401610fd7565b6135ee615732565b6040518061066001604052806136106301908b10670de0b6b3a7640000615306565b81526020016000815260200160008152602001600081526020016000815260200160008152602001600081526020016000815260200160008152602001600081526020016000815260200160008152602001600081526020016000815260200160008152602001600081526020016136946301b1ebfc670de0b6b3a7640000615306565b81526020016136af6301b1ebfc670de0b6b3a7640000615306565b81526020016136ca6301b1ebfc670de0b6b3a7640000615306565b81526020016136e56301b1ebfc670de0b6b3a7640000615306565b81526020016137006301b1ebfc670de0b6b3a7640000615306565b815260200161371b6301b1ebfc670de0b6b3a7640000615306565b81526020016137366301b1ebfc670de0b6b3a7640000615306565b81526020016137516301b1ebfc670de0b6b3a7640000615306565b815260200161376c6301b1ebfc670de0b6b3a7640000615306565b81526020016137876301b1ebfc670de0b6b3a7640000615306565b81526020016137a26301b1ebfc670de0b6b3a7640000615306565b81526020016137bd6301b1ebfc670de0b6b3a7640000615306565b81526020016137d86301b1ebfc670de0b6b3a7640000615306565b81526020016137f36301b1ebfc670de0b6b3a7640000615306565b815260200161380e6301b1ebfc670de0b6b3a7640000615306565b81526020016138296301b1ebfc670de0b6b3a7640000615306565b81526020016138446301b1ebfc670de0b6b3a7640000615306565b815260200161385f6301b1ebfc670de0b6b3a7640000615306565b815260200161387a6301b1ebfc670de0b6b3a7640000615306565b81526020016138956301b1ebfc670de0b6b3a7640000615306565b81526020016138b06301b1ebfc670de0b6b3a7640000615306565b81526020016138cb6301b1ebfc670de0b6b3a7640000615306565b81526020016138e66301b1ebfc670de0b6b3a7640000615306565b81526020016139016301b1ebfc670de0b6b3a7640000615306565b815260200161391c6301b1ebfc670de0b6b3a7640000615306565b81526020016139376301b1ebfc670de0b6b3a7640000615306565b81526020016139526301b1ebfc670de0b6b3a7640000615306565b815260200161396d6301b1ebfc670de0b6b3a7640000615306565b81526020016139886301b1ebfc670de0b6b3a7640000615306565b81526020016139a36301b1ebfc670de0b6b3a7640000615306565b81526020016139be6301b1ebfc670de0b6b3a7640000615306565b81526020016139d96301b1ebfc670de0b6b3a7640000615306565b81526020016139f46301b1ebfc670de0b6b3a7640000615306565b8152602001613a0f6301b1ebfc670de0b6b3a7640000615306565b8152602001613a2a6301b1ebfc670de0b6b3a7640000615306565b9052919050565b613a39615732565b604051806106600160405280613a5a62c84588670de0b6b3a7640000615306565b815260200160008152602001600081526020016000815260200160008152602001600081526020016000815260200160008152602001613aa562c84588670de0b6b3a7640000615306565b8152602001600081526020016000815260200160008152602001600081526020016000815260200160008152602001600081526020016136946301b1ebfc670de0b6b3a7640000615306565b6001600160a01b038381166000908152601460209081526040808320938616835292905220546000198114613b7d5781811015613b705760405162461bcd60e51b815260206004820152601d60248201527f45524332303a20696e73756666696369656e7420616c6c6f77616e63650000006044820152606401610fd7565b613b7d84848484036133d8565b50505050565b6001600160a01b038316613bd95760405162461bcd60e51b815260206004820152601a60248201527f5472616e736665722066726f6d207a65726f20616464726573730000000000006044820152606401610fd7565b6001600160a01b038216613c2f5760405162461bcd60e51b815260206004820152601860248201527f5472616e7366657220746f207a65726f206164647265737300000000000000006044820152606401610fd7565b6001600160a01b03831660009081526013602052604090205481811015613cbe5760405162461bcd60e51b815260206004820152602660248201527f45524332303a207472616e7366657220616d6f756e742065786365656473206260448201527f616c616e636500000000000000000000000000000000000000000000000000006064820152608401610fd7565b6001600160a01b03841660009081526013602052604081208383039055601c54613cf790613cf090859060ff16615306565b606461319b565b90506000613d0584836133cc565b90506000613d1e613d17836002615306565b600a61319b565b90506000613d30613d17846008615306565b9050613d3b82610d6b565b30600090815260136020526040902054613d5590826131ae565b30600090815260136020526040808220929092556001600160a01b03891681522054613d8190846131ae565b6001600160a01b0380891660008181526013602052604090819020939093559151908a16907fddf252ad1be2c89b69c2b068fc378daa952ba7f163c4a11628f55a4df523b3ef90613dd59087815260200190565b60405180910390a35050505050505050565b613def615732565b604051806106600160405280613e116301406f40670de0b6b3a7640000615306565b815260200160008152602001600081526020016000815260200160008152602001600081526020016000815260200160008152602001613e5d6301406f40670de0b6b3a7640000615306565b815260200160008152602001600081526020016000815260200160008152602001600081526020016000815260200160008152602001613ea96303684b4b670de0b6b3a7640000615306565b8152602001613ec46303684b4b670de0b6b3a7640000615306565b8152602001613edf6303684b4b670de0b6b3a7640000615306565b8152602001613efa6303684b4b670de0b6b3a7640000615306565b8152602001613f156303684b4b670de0b6b3a7640000615306565b8152602001613f306303684b4b670de0b6b3a7640000615306565b8152602001613f4b6303684b4b670de0b6b3a7640000615306565b8152602001613f666303684b4b670de0b6b3a7640000615306565b8152602001613f816303684b4b670de0b6b3a7640000615306565b8152602001613f9c6303684b4b670de0b6b3a7640000615306565b8152602001613fb76303684b4b670de0b6b3a7640000615306565b8152602001613fd26303684b4b670de0b6b3a7640000615306565b8152602001613fed6303684b4b670de0b6b3a7640000615306565b81526020016140086303684b4b670de0b6b3a7640000615306565b81526020016140236303684b4b670de0b6b3a7640000615306565b815260200161403e6303684b4b670de0b6b3a7640000615306565b81526020016140596303684b4b670de0b6b3a7640000615306565b81526020016140746303684b4b670de0b6b3a7640000615306565b815260200161408f6303684b4b670de0b6b3a7640000615306565b81526020016140aa6303684b4b670de0b6b3a7640000615306565b81526020016140c56303684b4b670de0b6b3a7640000615306565b81526020016140e06303684b4b670de0b6b3a7640000615306565b81526020016140fb6303684b4b670de0b6b3a7640000615306565b81526020016141166303684b4b670de0b6b3a7640000615306565b81526020016141316303684b4b670de0b6b3a7640000615306565b815260200161414c6303684b4b670de0b6b3a7640000615306565b81526020016141676303684b4b670de0b6b3a7640000615306565b81526020016141826303684b4b670de0b6b3a7640000615306565b815260200161419d6303684b4b670de0b6b3a7640000615306565b81526020016141b86303684b4b670de0b6b3a7640000615306565b81526020016141d36303684b4b670de0b6b3a7640000615306565b81526020016141ee6303684b4b670de0b6b3a7640000615306565b81526020016142096303684b4b670de0b6b3a7640000615306565b81526020016142246303684b4b670de0b6b3a7640000615306565b8152602001613a2a6303684b4b670de0b6b3a7640000615306565b6001600160a01b0382166142955760405162461bcd60e51b815260206004820152601f60248201527f45524332303a206d696e7420746f20746865207a65726f2061646472657373006044820152606401610fd7565b80600260008282546142a79190615a7d565b90915550506001600160a01b038216600090815260208190526040812080548392906142d4908490615a7d565b90915550506040518181526001600160a01b038316906000907fddf252ad1be2c89b69c2b068fc378daa952ba7f163c4a11628f55a4df523b3ef9060200160405180910390a35050565b6001600160a01b03821661439a5760405162461bcd60e51b815260206004820152602160248201527f45524332303a206275726e2066726f6d20746865207a65726f2061646472657360448201527f73000000000000000000000000000000000000000000000000000000000000006064820152608401610fd7565b6001600160a01b038216600090815260136020526040902054818110156144295760405162461bcd60e51b815260206004820152602260248201527f45524332303a206275726e20616d6f756e7420657863656564732062616c616e60448201527f63650000000000000000000000000000000000000000000000000000000000006064820152608401610fd7565b6001600160a01b0383166000908152601360205260408120838303905560158054849290614458908490615a50565b90915550506040518281526000906001600160a01b038516907fddf252ad1be2c89b69c2b068fc378daa952ba7f163c4a11628f55a4df523b3ef90602001613524565b6001600160a01b038082166000908152600e602090815260408083208151610140810183528154861660608201908152600183015460808301819052600284015460a0840152600384015460c0840152600484015460e084015260058401546101008401526006840154610120840152908252600783015490961693810193909352600801549082015290916145735760405162461bcd60e51b815260206004820152600e60248201527f4e6f207374616b6520666f756e640000000000000000000000000000000000006044820152606401610fd7565b600061458282604001516152cb565b116145cf5760405162461bcd60e51b815260206004820152601560248201527f436c61696d61626c65206f6e63652061207765656b00000000000000000000006044820152606401610fd7565b805160006080909101524260408201528051602001516131a7906152e4565b600580546001600160a01b038381166001600160a01b0319831681179093556040519116919082907f8be0079c531659141344cd1fd0a4f28419497f9722a3daafe3b4186f6b6457e090600090a35050565b600083116146905760405162461bcd60e51b815260206004820152601460248201527f43616e6e6f74207374616b65206e6f7468696e670000000000000000000000006044820152606401610fd7565b6001600160a01b0384166000908152600e6020526040902060010154156146f95760405162461bcd60e51b815260206004820152601060248201527f557365722069732061207374616b6572000000000000000000000000000000006044820152606401610fd7565b6001600b600082825461470c9190615a7d565b90915550506001600160a01b0384166000818152600c60209081526040808320805460ff19166001179055805160e0810182529384529083018690524290830181905260608301829052608083019190915260a082018390529060c081016147748386615a7d565b90526001600160a01b038681166000818152600e6020908152604091829020855181546001600160a01b031916951694909417845584015160018401558301516002830155606083015160038301556080830151600483015560a0830151600583015560c0909201516006909101557fb4caaf29adda3eefee3ad552a8e85058589bf834c7466cae4ee58787f70589ed85836148108188615a7d565b6040805193845260208401929092529082015260600160405180910390a25050505050565b6001600160a01b03811660009081526012602052604081206001015461489d5760405162461bcd60e51b815260206004820152601b60248201527f5072697661746553616c653a206e6f20746f6b656e73206c65667400000000006044820152606401610fd7565b60006148a883615312565b9050600081116149205760405162461bcd60e51b815260206004820152602160248201527f5072697661746553616c653a206e6f20746f6b656e7320746f2072656c65617360448201527f65000000000000000000000000000000000000000000000000000000000000006064820152608401610fd7565b61496b60126000856001600160a01b03166001600160a01b031681526020019081526020016000206001015482604051806060016040528060398152602001615b906039913961316f565b6001600160a01b039093166000908152601260205260409020600101929092555090565b601e811115614a055760405162461bcd60e51b8152602060048201526024808201527f50656e616c7479206665652063616e6e6f74206578636565642033207065726360448201527f656e742e000000000000000000000000000000000000000000000000000000006064820152608401610fd7565b60068190556040518181527fcfa4f4cf1cd64d13a167a8e75605e0c0c9d6700e903d17c5dc11f593254a04a9906020015b60405180910390a150565b6000614a4b6131ba565b6001600b5411614a9d5760405162461bcd60e51b815260206004820152601160248201527f4e6f7420656e6f75676820766f746572730000000000000000000000000000006044820152606401610fd7565b6000614aaf613d17600b546005615306565b600a546000908152600d6020526040902054909150811015614ad357600191505090565b600091505090565b614ae36131ba565b6009805460ff19169055565b614af7615732565b604051806106600160405280614b186242b0c1670de0b6b3a7640000615306565b8152602001614b326242b0c1670de0b6b3a7640000615306565b8152602001614b4c6242b0c1670de0b6b3a7640000615306565b8152602001614b666242b0c1670de0b6b3a7640000615306565b8152602001614b806242b0c1670de0b6b3a7640000615306565b8152602001614b9a6242b0c1670de0b6b3a7640000615306565b8152602001614bb46242b0c1670de0b6b3a7640000615306565b8152602001614bce6242b0c1670de0b6b3a7640000615306565b8152602001614be86242b0c1670de0b6b3a7640000615306565b8152602001614c026242b0c1670de0b6b3a7640000615306565b8152602001614c1c6242b0c1670de0b6b3a7640000615306565b8152602001614c366242b0c1670de0b6b3a7640000615306565b8152602001614c506242b0c1670de0b6b3a7640000615306565b8152602001614c6a6242b0c1670de0b6b3a7640000615306565b8152602001614c846242b0c1670de0b6b3a7640000615306565b8152602001614c9e6242b0c1670de0b6b3a7640000615306565b8152602001614cb9630320490c670de0b6b3a7640000615306565b8152602001614cd4630320490c670de0b6b3a7640000615306565b8152602001614cef630320490c670de0b6b3a7640000615306565b8152602001614d0a630320490c670de0b6b3a7640000615306565b8152602001614d25630320490c670de0b6b3a7640000615306565b8152602001614d40630320490c670de0b6b3a7640000615306565b8152602001614d5b630320490c670de0b6b3a7640000615306565b8152602001614d76630320490c670de0b6b3a7640000615306565b8152602001614d91630320490c670de0b6b3a7640000615306565b8152602001614dac630320490c670de0b6b3a7640000615306565b8152602001614dc7630320490c670de0b6b3a7640000615306565b8152602001614de2630320490c670de0b6b3a7640000615306565b8152602001600081526020016000815260200160008152602001600081526020016000815260200160008152602001600081526020016000815260200160008152602001600081526020016000815260200160008152602001600081526020016000815260200160008152602001600081526020016000815260200160008152602001600081526020016000815260200160008152602001600081526020016000815250905090565b601954614e9890826131ae565b601955601554614ea890826131ae565b60155560405181815230906000907f715128ea18bcb5a472f8187c4fbfdc1ed6d04ecdcff67e3f546fdd075e86266590602001611377565b6001600160a01b038116600090815260126020526040812060010154614f6e5760405162461bcd60e51b815260206004820152602360248201527f5072697661746553616c653a2054686973207573657220646f65736e7420657860448201527f69737400000000000000000000000000000000000000000000000000000000006064820152608401610fd7565b6001600f6000828254614f819190615a50565b90915550506001600160a01b0382166000908152601260205260408120600101546010805491929091614fb5908490615a7d565b9091555050506001600160a01b031660009081526012602052604081206001810180548383559083905560028201805460ff1916905560039091019190915590565b6001600160a01b038082166000908152600e60209081526040808320815160e081018352815490951685526001810154928501929092526002820154908401526003810154606084015260048101546080840152600581015460a08401526006015460c08301529081908161506b82615238565b6001600160a01b0386166000908152600e6020526040812080546001600160a01b0319908116825560018201839055600282018390556003820183905560048201839055600582018390556006820183905560078201805490911690556008015560c083015190915042101561513b576001600b60008282546150ee9190615a50565b90915550506001600160a01b0385166000908152600c60209081526040808320600a5484526001018252909120805460ff19169055820151615130908261559f565b935093505050915091565b6001600b600082825461514e9190615a50565b90915550506001600160a01b039094166000908152600c60209081526040808320600a5484526001018252909120805460ff19169055015193915050565b60c88111156152035760405162461bcd60e51b815260206004820152602c60248201527f41697264726f702050657263656e746167652063616e6e6f742065786365656460448201527f2032302070657263656e742e00000000000000000000000000000000000000006064820152608401610fd7565b60078190556040518181527fcc672f1026b958c0cfbfdd89ebe8ddcbc127f16ec24da6c2c7a4de26a8b1857e90602001614a36565b600081602001516000141561524f57506000919050565b6a52b7d2dcc80cd2e400000061526883604001516155e4565b8360a00151846020015161527c9190615b50565b6152869190615b50565b6152909190615b2e565b92915050565b6000806152b06152a885600654615306565b6103e861319b565b6152bf6152a885600654615306565b915091505b9250929050565b600061529062093a806152de8442615a50565b9061319b565b60006301dfe2006103e8600754846152fc9190615b50565b6152869190615b2e565b60006131a78284615b50565b600080600062015180601154426153299190615a50565b6153339190615b2e565b90506101e08110156153f7576001600160a01b03841660009081526012602052604090206002015460ff166153d1576001600160a01b0384166000908152601260205260409020546153a8906153a190615399906a3cb5feec27901169e0000090615306565b60105461319b565b83906131ae565b6001600160a01b0385166000908152601260205260409020600201805460ff1916600117905591505b6001600160a01b03841660009081526012602052604090206101c2600390910155615525565b6101e0811015801561540a575061034881105b15615525576001600160a01b03841660009081526012602052604090206002015460ff16615492576001600160a01b038416600090815260126020526040902054615469906153a190615399906a3cb5feec27901169e0000090615306565b6001600160a01b0385166000908152601260205260409020600201805460ff1916600117905591505b6001600160a01b0384166000908152601260205260408120600301546154b89083615a50565b6001600160a01b0386166000908152601260205260409020549091506154f9906154f290615399906a03290914be1afb7508000090615306565b84906131ae565b6155039082615b50565b6001600160a01b03861660009081526012602052604090206003018390559250505b816155985760405162461bcd60e51b815260206004820152602960248201527f5072697661746553616c653a2054686572652773206e6f7468696e6720746f2060448201527f636c61696d2079657400000000000000000000000000000000000000000000006064820152608401610fd7565b5092915050565b600080836155b2575060009050806152c4565b6000806155bf8686615296565b915091506155cd86836133cc565b6155d786836133cc565b9350935050509250929050565b60008082116156355760405162461bcd60e51b815260206004820152601160248201527f4572726f722074696d657374616d7020300000000000000000000000000000006044820152606401610fd7565b6152906156428342615a50565b6156569069d3c21bcecceda1000000615b50565b6301e133806040518060400160405280601d81526020017f4572726f722063616e6e6f74206469766964652074696d657374616d70000000815250600081836156b25760405162461bcd60e51b8152600401610fd79190615751565b508284816156c2576156c2615b18565b04949350505050565b6040518060600160405280600081526020016000815260200161572d6040518060e0016040528060006001600160a01b031681526020016000815260200160008152602001600081526020016000815260200160008152602001600081525090565b905290565b6040518061066001604052806033906020820280368337509192915050565b600060208083528351808285015260005b8181101561577e57858101830151858201604001528201615762565b81811115615790576000604083870101525b50601f01601f1916929092016040019392505050565b600080602083850312156157b957600080fd5b823567ffffffffffffffff808211156157d157600080fd5b818501915085601f8301126157e557600080fd5b8135818111156157f457600080fd5b8660208260061b850101111561580957600080fd5b60209290920196919550909350505050565b6001600160a01b03811681146117cd57600080fd5b6000806040838503121561584357600080fd5b823561584e8161581b565b946020939093013593505050565b60006020828403121561586e57600080fd5b5035919050565b60008060006060848603121561588a57600080fd5b83356158958161581b565b925060208401356158a58161581b565b929592945050506040919091013590565b6000602082840312156158c857600080fd5b813560ff811681146131a757600080fd5b6000602082840312156158eb57600080fd5b81356131a78161581b565b6000806040838503121561590957600080fd5b50508035926020909101359150565b6000806020838503121561592b57600080fd5b823567ffffffffffffffff8082111561594357600080fd5b818501915085601f83011261595757600080fd5b81358181111561596657600080fd5b8660208260051b850101111561580957600080fd5b6000806040838503121561598e57600080fd5b82356159998161581b565b915060208301356159a98161581b565b809150509250929050565b6000806000606084860312156159c957600080fd5b83356159d48161581b565b925060208401356159e48161581b565b915060408401356159f48161581b565b809150509250925092565b600181811c90821680615a1357607f821691505b60208210811415615a3457634e487b7160e01b600052602260045260246000fd5b50919050565b634e487b7160e01b600052601160045260246000fd5b600082821015615a6257615a62615a3a565b500390565b634e487b7160e01b600052603260045260246000fd5b60008219821115615a9057615a90615a3a565b500190565b6000600019821415615aa957615aa9615a3a565b5060010190565b600060208284031215615ac257600080fd5b81516131a78161581b565b6106608101818360005b6033811015615af6578151835260209283019290910190600101615ad7565b50505092915050565b600060208284031215615b1157600080fd5b5051919050565b634e487b7160e01b600052601260045260246000fd5b600082615b4b57634e487b7160e01b600052601260045260246000fd5b500490565b6000816000190483118215151615615b6a57615b6a615a3a565b50029056fe4f776e61626c653a2063616c6c6572206973206e6f7420746865206f776e65725072697661746553616c653a2043616e6e6f742073756273747261637420746f74616c20616d6f756e74207769746820636c61696d61626c65a264697066735822122086863b76963f5a63963b535b7027ad66ee3b1224620dd4451f128844e847ee4b64736f6c634300080b003360a060405234801561001057600080fd5b506040516105b23803806105b283398101604081905261002f9161005c565b6000919091556001600160a01b031660805242600255600180546001600160a01b03191633179055610099565b6000806040838503121561006f57600080fd5b825160208401519092506001600160a01b038116811461008e57600080fd5b809150509250929050565b6080516104ff6100b36000396000607101526104ff6000f3fe608060405234801561001057600080fd5b50600436106100415760003560e01c80630a95606e1461004657806338af3eed1461006c578063c8cca41e146100b8575b600080fd5b610059610054366004610319565b6100c2565b6040519081526020015b60405180910390f35b6100937f000000000000000000000000000000000000000000000000000000000000000081565b60405173ffffffffffffffffffffffffffffffffffffffff9091168152602001610063565b6100c06101ad565b005b60006100cc6101bb565b60008054116101225760405162461bcd60e51b815260206004820152601860248201527f4c6f636b61626c653a206e6f20746f6b656e73206c656674000000000000000060448201526064015b60405180910390fd5b600061012d83610224565b90506000811161017f5760405162461bcd60e51b815260206004820152601e60248201527f4c6f636b61626c653a206e6f20746f6b656e7320746f2072656c6561736500006044820152606401610119565b6101a460005482604051806060016040528060368152602001610494603691396102ed565b60005592915050565b6101b56101bb565b42600255565b60015473ffffffffffffffffffffffffffffffffffffffff1633146102225760405162461bcd60e51b815260206004820152600960248201527f4e6f74206f776e657200000000000000000000000000000000000000000000006044820152606401610119565b565b60008062278d006002544261023991906103bc565b61024391906103d3565b6003549091506000905b6037811161028a57848160338110610267576102676103f5565b6020020151610276908361040b565b91508061028281610423565b91505061024d565b5061029682600161040b565b600355806102e65760405162461bcd60e51b815260206004820152601460248201527f4e6f7468696e6720746f20636c61696d207965740000000000000000000000006044820152606401610119565b9392505050565b600081848411156103115760405162461bcd60e51b8152600401610119919061043e565b505050900390565b600061066080838503121561032d57600080fd5b83601f84011261033c57600080fd5b60405181810181811067ffffffffffffffff8211171561036c57634e487b7160e01b600052604160045260246000fd5b60405290830190808583111561038157600080fd5b845b8381101561039b578035825260209182019101610383565b509095945050505050565b634e487b7160e01b600052601160045260246000fd5b6000828210156103ce576103ce6103a6565b500390565b6000826103f057634e487b7160e01b600052601260045260246000fd5b500490565b634e487b7160e01b600052603260045260246000fd5b6000821982111561041e5761041e6103a6565b500190565b6000600019821415610437576104376103a6565b5060010190565b600060208083528351808285015260005b8181101561046b5785810183015185820160400152820161044f565b8181111561047d576000604083870101525b50601f01601f191692909201604001939250505056fe4c6f636b61626c653a2043616e6e6f742073756273747261637420746f74616c20616d6f756e74207769746820636c61696d61626c65a2646970667358221220ee09c5456bdd69a3d556a9be26d7747af49db147d22c25fa8ae78f6218a1463264736f6c634300080b0033",
			"opcodes": "PUSH1 0x80 PUSH1 0x40 MSTORE PUSH12 0x4BE37EA7317415C45800000 PUSH1 0x10 SSTORE PUSH1 0x1E DUP1 SLOAD PUSH1 0x1 PUSH1 0x1 PUSH1 0xA0 SHL SUB NOT SWAP1 DUP2 AND PUSH20 0x7A20DC6722563783E44BA8EDCA08C774621125E OR SWAP1 SWAP2 SSTORE PUSH1 0x1F DUP1 SLOAD DUP3 AND PUSH20 0x2F838CF0DF38B2E91E747A01DDAE5EBAD5558B7A OR SWAP1 SSTORE PUSH1 0x20 DUP1 SLOAD DUP3 AND PUSH20 0x45094071C4DAAF6A9A73B0A0F095A2B138BD8A3A OR SWAP1 SSTORE PUSH1 0x21 DUP1 SLOAD SWAP1 SWAP2 AND PUSH20 0xAEB26FB84D0E2B3B353CD50F0A29FD40C916D2AB OR SWAP1 SSTORE CALLVALUE DUP1 ISZERO PUSH3 0xA5 JUMPI PUSH1 0x0 DUP1 REVERT JUMPDEST POP PUSH1 0x40 DUP1 MLOAD DUP1 DUP3 ADD DUP3 MSTORE PUSH1 0x8 DUP2 MSTORE PUSH8 0x54414C415845554D PUSH1 0xC0 SHL PUSH1 0x20 DUP1 DUP4 ADD SWAP2 DUP3 MSTORE DUP4 MLOAD DUP1 DUP6 ADD SWAP1 SWAP5 MSTORE PUSH1 0x5 DUP5 MSTORE PUSH5 0xA8829882B PUSH1 0xDB SHL SWAP1 DUP5 ADD MSTORE DUP2 MLOAD SWAP2 SWAP3 SWAP2 PUSH3 0xF3 SWAP2 PUSH1 0x3 SWAP2 PUSH3 0x8AA JUMP JUMPDEST POP DUP1 MLOAD PUSH3 0x109 SWAP1 PUSH1 0x4 SWAP1 PUSH1 0x20 DUP5 ADD SWAP1 PUSH3 0x8AA JUMP JUMPDEST POP POP POP PUSH3 0x126 PUSH3 0x120 PUSH3 0x81C PUSH1 0x20 SHL PUSH1 0x20 SHR JUMP JUMPDEST PUSH3 0x820 JUMP JUMPDEST PUSH1 0xF PUSH1 0x6 SSTORE PUSH1 0x50 PUSH1 0x7 SSTORE PUSH12 0x43DACAF91C1A84FF08000000 PUSH1 0x15 SSTORE PUSH1 0x40 DUP1 MLOAD DUP1 DUP3 ADD SWAP1 SWAP2 MSTORE PUSH1 0x8 DUP1 DUP3 MSTORE PUSH8 0x54414C415845554D PUSH1 0xC0 SHL PUSH1 0x20 SWAP1 SWAP3 ADD SWAP2 DUP3 MSTORE PUSH3 0x171 SWAP2 PUSH1 0x16 SWAP2 PUSH3 0x8AA JUMP JUMPDEST POP PUSH1 0x40 DUP1 MLOAD DUP1 DUP3 ADD SWAP1 SWAP2 MSTORE PUSH1 0x5 DUP1 DUP3 MSTORE PUSH5 0xA8829882B PUSH1 0xDB SHL PUSH1 0x20 SWAP1 SWAP3 ADD SWAP2 DUP3 MSTORE PUSH3 0x1A0 SWAP2 PUSH1 0x17 SWAP2 PUSH3 0x8AA JUMP JUMPDEST POP PUSH1 0x1C DUP1 SLOAD PUSH2 0xFFFF NOT AND PUSH1 0x1 OR SWAP1 SSTORE PUSH1 0x6 PUSH32 0x6E7B3E7A52A447110501B683591C02EDBDEEE417F58DFB6B7BD7C4D5FAC99CF9 SSTORE PUSH1 0x7 PUSH32 0xFA02B14EF9DEB43F821D5C4D4DF343647569F13A66AA4E6481EEDDD408415A43 SSTORE PUSH1 0x8 PUSH32 0x67B1EDB0E70C3B1FD9DECE63D8D8420CA330B1F92F03281AF2C99C6631D04509 SSTORE PUSH1 0x13 PUSH1 0x20 MSTORE PUSH12 0x1484ED81CEBEB37B6800000 PUSH32 0xC04B5662930A6D9D33AE3E671E7857B39736BCEB6D3E1A26756E2A89604454D8 SSTORE PUSH1 0x1D SLOAD PUSH1 0x1 PUSH1 0x1 PUSH1 0xA0 SHL SUB SWAP1 DUP2 AND PUSH1 0x0 SWAP1 DUP2 MSTORE PUSH1 0x40 DUP1 DUP3 KECCAK256 PUSH12 0x3648A260E3486A65A000000 SWAP1 SSTORE PUSH12 0x4BE37EA7317415C45800000 PUSH1 0x1A SSTORE PUSH12 0x8ADB972C10243F447800000 PUSH1 0x19 SSTORE PUSH12 0xD92289838D21A9968000000 PUSH1 0x1B DUP2 SWAP1 SSTORE ADDRESS DUP4 MSTORE SWAP2 DUP2 SWAP1 KECCAK256 SWAP2 SWAP1 SWAP2 SSTORE PUSH1 0x1E SLOAD SWAP1 MLOAD PUSH12 0x2427288F60130B77E800000 SWAP3 SWAP2 SWAP1 SWAP2 AND SWAP1 PUSH3 0x2D6 SWAP1 PUSH3 0x939 JUMP JUMPDEST SWAP2 DUP3 MSTORE PUSH1 0x1 PUSH1 0x1 PUSH1 0xA0 SHL SUB AND PUSH1 0x20 DUP3 ADD MSTORE PUSH1 0x40 ADD PUSH1 0x40 MLOAD DUP1 SWAP2 SUB SWAP1 PUSH1 0x0 CREATE DUP1 ISZERO DUP1 ISZERO PUSH3 0x307 JUMPI RETURNDATASIZE PUSH1 0x0 DUP1 RETURNDATACOPY RETURNDATASIZE PUSH1 0x0 REVERT JUMPDEST POP PUSH1 0x22 PUSH1 0x0 PUSH2 0x100 EXP DUP2 SLOAD DUP2 PUSH1 0x1 PUSH1 0x1 PUSH1 0xA0 SHL SUB MUL NOT AND SWAP1 DUP4 PUSH1 0x1 PUSH1 0x1 PUSH1 0xA0 SHL SUB AND MUL OR SWAP1 SSTORE POP PUSH12 0x24306C4097859C43C000000 PUSH20 0xF09F65DD4D229E991901669AD7C7549F060E30B9 PUSH1 0x40 MLOAD PUSH3 0x35E SWAP1 PUSH3 0x939 JUMP JUMPDEST SWAP2 DUP3 MSTORE PUSH1 0x1 PUSH1 0x1 PUSH1 0xA0 SHL SUB AND PUSH1 0x20 DUP3 ADD MSTORE PUSH1 0x40 ADD PUSH1 0x40 MLOAD DUP1 SWAP2 SUB SWAP1 PUSH1 0x0 CREATE DUP1 ISZERO DUP1 ISZERO PUSH3 0x38F JUMPI RETURNDATASIZE PUSH1 0x0 DUP1 RETURNDATACOPY RETURNDATASIZE PUSH1 0x0 REVERT JUMPDEST POP PUSH1 0x23 PUSH1 0x0 PUSH2 0x100 EXP DUP2 SLOAD DUP2 PUSH1 0x1 PUSH1 0x1 PUSH1 0xA0 SHL SUB MUL NOT AND SWAP1 DUP4 PUSH1 0x1 PUSH1 0x1 PUSH1 0xA0 SHL SUB AND MUL OR SWAP1 SSTORE POP PUSH12 0x24306C4097859C43C000000 PUSH20 0x1A2118E056D6AF192E233C2C9CFB34E067DED1F8 PUSH1 0x40 MLOAD PUSH3 0x3E6 SWAP1 PUSH3 0x939 JUMP JUMPDEST SWAP2 DUP3 MSTORE PUSH1 0x1 PUSH1 0x1 PUSH1 0xA0 SHL SUB AND PUSH1 0x20 DUP3 ADD MSTORE PUSH1 0x40 ADD PUSH1 0x40 MLOAD DUP1 SWAP2 SUB SWAP1 PUSH1 0x0 CREATE DUP1 ISZERO DUP1 ISZERO PUSH3 0x417 JUMPI RETURNDATASIZE PUSH1 0x0 DUP1 RETURNDATACOPY RETURNDATASIZE PUSH1 0x0 REVERT JUMPDEST POP PUSH1 0x24 PUSH1 0x0 PUSH2 0x100 EXP DUP2 SLOAD DUP2 PUSH1 0x1 PUSH1 0x1 PUSH1 0xA0 SHL SUB MUL NOT AND SWAP1 DUP4 PUSH1 0x1 PUSH1 0x1 PUSH1 0xA0 SHL SUB AND MUL OR SWAP1 SSTORE POP PUSH12 0x24306C4097859C43C000000 PUSH20 0x126974FA373267D86FAB6D6871AFE62CCB68E810 PUSH1 0x40 MLOAD PUSH3 0x46E SWAP1 PUSH3 0x939 JUMP JUMPDEST SWAP2 DUP3 MSTORE PUSH1 0x1 PUSH1 0x1 PUSH1 0xA0 SHL SUB AND PUSH1 0x20 DUP3 ADD MSTORE PUSH1 0x40 ADD PUSH1 0x40 MLOAD DUP1 SWAP2 SUB SWAP1 PUSH1 0x0 CREATE DUP1 ISZERO DUP1 ISZERO PUSH3 0x49F JUMPI RETURNDATASIZE PUSH1 0x0 DUP1 RETURNDATACOPY RETURNDATASIZE PUSH1 0x0 REVERT JUMPDEST POP PUSH1 0x25 DUP1 SLOAD PUSH1 0x1 PUSH1 0x1 PUSH1 0xA0 SHL SUB NOT AND PUSH1 0x1 PUSH1 0x1 PUSH1 0xA0 SHL SUB SWAP3 DUP4 AND OR SWAP1 SSTORE PUSH1 0x1F SLOAD PUSH1 0x40 MLOAD PUSH12 0x24306C4097859C43C000000 SWAP3 SWAP2 SWAP1 SWAP2 AND SWAP1 PUSH3 0x4E0 SWAP1 PUSH3 0x939 JUMP JUMPDEST SWAP2 DUP3 MSTORE PUSH1 0x1 PUSH1 0x1 PUSH1 0xA0 SHL SUB AND PUSH1 0x20 DUP3 ADD MSTORE PUSH1 0x40 ADD PUSH1 0x40 MLOAD DUP1 SWAP2 SUB SWAP1 PUSH1 0x0 CREATE DUP1 ISZERO DUP1 ISZERO PUSH3 0x511 JUMPI RETURNDATASIZE PUSH1 0x0 DUP1 RETURNDATACOPY RETURNDATASIZE PUSH1 0x0 REVERT JUMPDEST POP PUSH1 0x26 DUP1 SLOAD PUSH1 0x1 PUSH1 0x1 PUSH1 0xA0 SHL SUB NOT AND PUSH1 0x1 PUSH1 0x1 PUSH1 0xA0 SHL SUB SWAP3 DUP4 AND OR SWAP1 SSTORE PUSH1 0x20 SLOAD PUSH1 0x40 MLOAD PUSH12 0x24306C4097859C43C000000 SWAP3 SWAP2 SWAP1 SWAP2 AND SWAP1 PUSH3 0x552 SWAP1 PUSH3 0x939 JUMP JUMPDEST SWAP2 DUP3 MSTORE PUSH1 0x1 PUSH1 0x1 PUSH1 0xA0 SHL SUB AND PUSH1 0x20 DUP3 ADD MSTORE PUSH1 0x40 ADD PUSH1 0x40 MLOAD DUP1 SWAP2 SUB SWAP1 PUSH1 0x0 CREATE DUP1 ISZERO DUP1 ISZERO PUSH3 0x583 JUMPI RETURNDATASIZE PUSH1 0x0 DUP1 RETURNDATACOPY RETURNDATASIZE PUSH1 0x0 REVERT JUMPDEST POP PUSH1 0x27 DUP1 SLOAD PUSH1 0x1 PUSH1 0x1 PUSH1 0xA0 SHL SUB NOT AND PUSH1 0x1 PUSH1 0x1 PUSH1 0xA0 SHL SUB SWAP3 DUP4 AND OR SWAP1 SSTORE PUSH1 0x21 SLOAD PUSH1 0x40 MLOAD PUSH12 0x24306C4097859C43C000000 SWAP3 SWAP2 SWAP1 SWAP2 AND SWAP1 PUSH3 0x5C4 SWAP1 PUSH3 0x939 JUMP JUMPDEST SWAP2 DUP3 MSTORE PUSH1 0x1 PUSH1 0x1 PUSH1 0xA0 SHL SUB AND PUSH1 0x20 DUP3 ADD MSTORE PUSH1 0x40 ADD PUSH1 0x40 MLOAD DUP1 SWAP2 SUB SWAP1 PUSH1 0x0 CREATE DUP1 ISZERO DUP1 ISZERO PUSH3 0x5F5 JUMPI RETURNDATASIZE PUSH1 0x0 DUP1 RETURNDATACOPY RETURNDATASIZE PUSH1 0x0 REVERT JUMPDEST POP PUSH1 0x28 PUSH1 0x0 PUSH2 0x100 EXP DUP2 SLOAD DUP2 PUSH1 0x1 PUSH1 0x1 PUSH1 0xA0 SHL SUB MUL NOT AND SWAP1 DUP4 PUSH1 0x1 PUSH1 0x1 PUSH1 0xA0 SHL SUB AND MUL OR SWAP1 SSTORE POP PUSH12 0x24306C4097859C43C000000 PUSH20 0xE61E7A7D16DB384433E532FB85724E7F3BDAAE2F PUSH1 0x40 MLOAD PUSH3 0x64C SWAP1 PUSH3 0x939 JUMP JUMPDEST SWAP2 DUP3 MSTORE PUSH1 0x1 PUSH1 0x1 PUSH1 0xA0 SHL SUB AND PUSH1 0x20 DUP3 ADD MSTORE PUSH1 0x40 ADD PUSH1 0x40 MLOAD DUP1 SWAP2 SUB SWAP1 PUSH1 0x0 CREATE DUP1 ISZERO DUP1 ISZERO PUSH3 0x67D JUMPI RETURNDATASIZE PUSH1 0x0 DUP1 RETURNDATACOPY RETURNDATASIZE PUSH1 0x0 REVERT JUMPDEST POP PUSH1 0x29 PUSH1 0x0 PUSH2 0x100 EXP DUP2 SLOAD DUP2 PUSH1 0x1 PUSH1 0x1 PUSH1 0xA0 SHL SUB MUL NOT AND SWAP1 DUP4 PUSH1 0x1 PUSH1 0x1 PUSH1 0xA0 SHL SUB AND MUL OR SWAP1 SSTORE POP PUSH12 0x24306C4097859C43C000000 PUSH20 0x406605EB24A97A2D61B516D8D850F2AEFA6A731A PUSH1 0x40 MLOAD PUSH3 0x6D4 SWAP1 PUSH3 0x939 JUMP JUMPDEST SWAP2 DUP3 MSTORE PUSH1 0x1 PUSH1 0x1 PUSH1 0xA0 SHL SUB AND PUSH1 0x20 DUP3 ADD MSTORE PUSH1 0x40 ADD PUSH1 0x40 MLOAD DUP1 SWAP2 SUB SWAP1 PUSH1 0x0 CREATE DUP1 ISZERO DUP1 ISZERO PUSH3 0x705 JUMPI RETURNDATASIZE PUSH1 0x0 DUP1 RETURNDATACOPY RETURNDATASIZE PUSH1 0x0 REVERT JUMPDEST POP PUSH1 0x2A PUSH1 0x0 PUSH2 0x100 EXP DUP2 SLOAD DUP2 PUSH1 0x1 PUSH1 0x1 PUSH1 0xA0 SHL SUB MUL NOT AND SWAP1 DUP4 PUSH1 0x1 PUSH1 0x1 PUSH1 0xA0 SHL SUB AND MUL OR SWAP1 SSTORE POP PUSH12 0x24306C4097859C43C000000 PUSH20 0x97620DEADC98BC8173303686037CE7B986CF53C3 PUSH1 0x40 MLOAD PUSH3 0x75C SWAP1 PUSH3 0x939 JUMP JUMPDEST SWAP2 DUP3 MSTORE PUSH1 0x1 PUSH1 0x1 PUSH1 0xA0 SHL SUB AND PUSH1 0x20 DUP3 ADD MSTORE PUSH1 0x40 ADD PUSH1 0x40 MLOAD DUP1 SWAP2 SUB SWAP1 PUSH1 0x0 CREATE DUP1 ISZERO DUP1 ISZERO PUSH3 0x78D JUMPI RETURNDATASIZE PUSH1 0x0 DUP1 RETURNDATACOPY RETURNDATASIZE PUSH1 0x0 REVERT JUMPDEST POP PUSH1 0x2B PUSH1 0x0 PUSH2 0x100 EXP DUP2 SLOAD DUP2 PUSH1 0x1 PUSH1 0x1 PUSH1 0xA0 SHL SUB MUL NOT AND SWAP1 DUP4 PUSH1 0x1 PUSH1 0x1 PUSH1 0xA0 SHL SUB AND MUL OR SWAP1 SSTORE POP PUSH3 0x813 PUSH12 0x2D9AE8EE2246267158800000 PUSH1 0x40 MLOAD DUP1 PUSH1 0x40 ADD PUSH1 0x40 MSTORE DUP1 PUSH1 0x19 DUP2 MSTORE PUSH1 0x20 ADD PUSH32 0x496E73756666696369656E7420546F74616C20537570706C7900000000000000 DUP2 MSTORE POP PUSH1 0x15 SLOAD PUSH3 0x872 PUSH1 0x20 SHL PUSH3 0x316F OR SWAP1 SWAP3 SWAP2 SWAP1 PUSH1 0x20 SHR JUMP JUMPDEST PUSH1 0x15 SSTORE PUSH3 0x9F3 JUMP JUMPDEST CALLER SWAP1 JUMP JUMPDEST PUSH1 0x5 DUP1 SLOAD PUSH1 0x1 PUSH1 0x1 PUSH1 0xA0 SHL SUB DUP4 DUP2 AND PUSH1 0x1 PUSH1 0x1 PUSH1 0xA0 SHL SUB NOT DUP4 AND DUP2 OR SWAP1 SWAP4 SSTORE PUSH1 0x40 MLOAD SWAP2 AND SWAP2 SWAP1 DUP3 SWAP1 PUSH32 0x8BE0079C531659141344CD1FD0A4F28419497F9722A3DAAFE3B4186F6B6457E0 SWAP1 PUSH1 0x0 SWAP1 LOG3 POP POP JUMP JUMPDEST PUSH1 0x0 DUP2 DUP5 DUP5 GT ISZERO PUSH3 0x8A2 JUMPI PUSH1 0x40 MLOAD PUSH3 0x461BCD PUSH1 0xE5 SHL DUP2 MSTORE PUSH1 0x4 ADD PUSH3 0x899 SWAP2 SWAP1 PUSH3 0x95E JUMP JUMPDEST PUSH1 0x40 MLOAD DUP1 SWAP2 SUB SWAP1 REVERT JUMPDEST POP POP POP SWAP1 SUB SWAP1 JUMP JUMPDEST DUP3 DUP1 SLOAD PUSH3 0x8B8 SWAP1 PUSH3 0x9B6 JUMP JUMPDEST SWAP1 PUSH1 0x0 MSTORE PUSH1 0x20 PUSH1 0x0 KECCAK256 SWAP1 PUSH1 0x1F ADD PUSH1 0x20 SWAP1 DIV DUP2 ADD SWAP3 DUP3 PUSH3 0x8DC JUMPI PUSH1 0x0 DUP6 SSTORE PUSH3 0x927 JUMP JUMPDEST DUP3 PUSH1 0x1F LT PUSH3 0x8F7 JUMPI DUP1 MLOAD PUSH1 0xFF NOT AND DUP4 DUP1 ADD OR DUP6 SSTORE PUSH3 0x927 JUMP JUMPDEST DUP3 DUP1 ADD PUSH1 0x1 ADD DUP6 SSTORE DUP3 ISZERO PUSH3 0x927 JUMPI SWAP2 DUP3 ADD JUMPDEST DUP3 DUP2 GT ISZERO PUSH3 0x927 JUMPI DUP3 MLOAD DUP3 SSTORE SWAP2 PUSH1 0x20 ADD SWAP2 SWAP1 PUSH1 0x1 ADD SWAP1 PUSH3 0x90A JUMP JUMPDEST POP PUSH3 0x935 SWAP3 SWAP2 POP PUSH3 0x947 JUMP JUMPDEST POP SWAP1 JUMP JUMPDEST PUSH2 0x5B2 DUP1 PUSH3 0x6601 DUP4 CODECOPY ADD SWAP1 JUMP JUMPDEST JUMPDEST DUP1 DUP3 GT ISZERO PUSH3 0x935 JUMPI PUSH1 0x0 DUP2 SSTORE PUSH1 0x1 ADD PUSH3 0x948 JUMP JUMPDEST PUSH1 0x0 PUSH1 0x20 DUP1 DUP4 MSTORE DUP4 MLOAD DUP1 DUP3 DUP6 ADD MSTORE PUSH1 0x0 JUMPDEST DUP2 DUP2 LT ISZERO PUSH3 0x98D JUMPI DUP6 DUP2 ADD DUP4 ADD MLOAD DUP6 DUP3 ADD PUSH1 0x40 ADD MSTORE DUP3 ADD PUSH3 0x96F JUMP JUMPDEST DUP2 DUP2 GT ISZERO PUSH3 0x9A0 JUMPI PUSH1 0x0 PUSH1 0x40 DUP4 DUP8 ADD ADD MSTORE JUMPDEST POP PUSH1 0x1F ADD PUSH1 0x1F NOT AND SWAP3 SWAP1 SWAP3 ADD PUSH1 0x40 ADD SWAP4 SWAP3 POP POP POP JUMP JUMPDEST PUSH1 0x1 DUP2 DUP2 SHR SWAP1 DUP3 AND DUP1 PUSH3 0x9CB JUMPI PUSH1 0x7F DUP3 AND SWAP2 POP JUMPDEST PUSH1 0x20 DUP3 LT DUP2 EQ ISZERO PUSH3 0x9ED JUMPI PUSH4 0x4E487B71 PUSH1 0xE0 SHL PUSH1 0x0 MSTORE PUSH1 0x22 PUSH1 0x4 MSTORE PUSH1 0x24 PUSH1 0x0 REVERT JUMPDEST POP SWAP2 SWAP1 POP JUMP JUMPDEST PUSH2 0x5BFE DUP1 PUSH3 0xA03 PUSH1 0x0 CODECOPY PUSH1 0x0 RETURN INVALID PUSH1 0x80 PUSH1 0x40 MSTORE PUSH1 0x4 CALLDATASIZE LT PUSH2 0x484 JUMPI PUSH1 0x0 CALLDATALOAD PUSH1 0xE0 SHR DUP1 PUSH4 0x8891CF0D GT PUSH2 0x25E JUMPI DUP1 PUSH4 0xA7771EE3 GT PUSH2 0x143 JUMPI DUP1 PUSH4 0xCBB3E152 GT PUSH2 0xBB JUMPI DUP1 PUSH4 0xDD62ED3E GT PUSH2 0x8A JUMPI DUP1 PUSH4 0xE88C326F GT PUSH2 0x6F JUMPI DUP1 PUSH4 0xE88C326F EQ PUSH2 0xD0B JUMPI DUP1 PUSH4 0xF0413BD4 EQ PUSH2 0xD2B JUMPI DUP1 PUSH4 0xF2FDE38B EQ PUSH2 0xD4B JUMPI PUSH2 0x494 JUMP JUMPDEST DUP1 PUSH4 0xDD62ED3E EQ PUSH2 0xC2D JUMPI DUP1 PUSH4 0xE73E14BF EQ PUSH2 0xC73 JUMPI PUSH2 0x494 JUMP JUMPDEST DUP1 PUSH4 0xCBB3E152 EQ PUSH2 0xBB8 JUMPI DUP1 PUSH4 0xD5DBDF1B EQ PUSH2 0xBCD JUMPI DUP1 PUSH4 0xD94D4AD6 EQ PUSH2 0xBED JUMPI DUP1 PUSH4 0xD9DC2D8D EQ PUSH2 0xC0D JUMPI PUSH2 0x494 JUMP JUMPDEST DUP1 PUSH4 0xBA1F879F GT PUSH2 0x112 JUMPI DUP1 PUSH4 0xBED9D861 GT PUSH2 0xF7 JUMPI DUP1 PUSH4 0xBED9D861 EQ PUSH2 0xB6D JUMPI DUP1 PUSH4 0xC680111C EQ PUSH2 0xB82 JUMPI DUP1 PUSH4 0xCB79C2E1 EQ PUSH2 0xBA2 JUMPI PUSH2 0x494 JUMP JUMPDEST DUP1 PUSH4 0xBA1F879F EQ PUSH2 0xB41 JUMPI DUP1 PUSH4 0xBAD4346C EQ PUSH2 0xB57 JUMPI PUSH2 0x494 JUMP JUMPDEST DUP1 PUSH4 0xA7771EE3 EQ PUSH2 0xACB JUMPI DUP1 PUSH4 0xA837A65E EQ PUSH2 0xAEB JUMPI DUP1 PUSH4 0xA9059CBB EQ PUSH2 0xB0B JUMPI DUP1 PUSH4 0xB87DA76D EQ PUSH2 0xB2B JUMPI PUSH2 0x494 JUMP JUMPDEST DUP1 PUSH4 0x96BC0687 GT PUSH2 0x1D6 JUMPI DUP1 PUSH4 0xA1F780CF GT PUSH2 0x1A5 JUMPI DUP1 PUSH4 0xA3626DBB GT PUSH2 0x18A JUMPI DUP1 PUSH4 0xA3626DBB EQ PUSH2 0xA5B JUMPI DUP1 PUSH4 0xA3EC138D EQ PUSH2 0xA7B JUMPI DUP1 PUSH4 0xA457C2D7 EQ PUSH2 0xAAB JUMPI PUSH2 0x494 JUMP JUMPDEST DUP1 PUSH4 0xA1F780CF EQ PUSH2 0xA1B JUMPI DUP1 PUSH4 0xA25A17A7 EQ PUSH2 0xA3B JUMPI PUSH2 0x494 JUMP JUMPDEST DUP1 PUSH4 0x96BC0687 EQ PUSH2 0x99F JUMPI DUP1 PUSH4 0xA071DCF4 EQ PUSH2 0x9B4 JUMPI DUP1 PUSH4 0xA143A5F2 EQ PUSH2 0x9CE JUMPI DUP1 PUSH4 0xA169C515 EQ PUSH2 0x9FB JUMPI PUSH2 0x494 JUMP JUMPDEST DUP1 PUSH4 0x8D4A3C85 GT PUSH2 0x22D JUMPI DUP1 PUSH4 0x90A4C709 GT PUSH2 0x212 JUMPI DUP1 PUSH4 0x90A4C709 EQ PUSH2 0x960 JUMPI DUP1 PUSH4 0x934851EC EQ PUSH2 0x975 JUMPI DUP1 PUSH4 0x95D89B41 EQ PUSH2 0x98A JUMPI PUSH2 0x494 JUMP JUMPDEST DUP1 PUSH4 0x8D4A3C85 EQ PUSH2 0x90E JUMPI DUP1 PUSH4 0x8DA5CB5B EQ PUSH2 0x92E JUMPI PUSH2 0x494 JUMP JUMPDEST DUP1 PUSH4 0x8891CF0D EQ PUSH2 0x8A2 JUMPI DUP1 PUSH4 0x8B2B423A EQ PUSH2 0x8B8 JUMPI DUP1 PUSH4 0x8B7C64DA EQ PUSH2 0x8CE JUMPI DUP1 PUSH4 0x8C63F97F EQ PUSH2 0x8EE JUMPI PUSH2 0x494 JUMP JUMPDEST DUP1 PUSH4 0x40C10F19 GT PUSH2 0x384 JUMPI DUP1 PUSH4 0x70A08231 GT PUSH2 0x2FC JUMPI DUP1 PUSH4 0x7B0472F0 GT PUSH2 0x2CB JUMPI DUP1 PUSH4 0x7C2412F9 GT PUSH2 0x2B0 JUMPI DUP1 PUSH4 0x7C2412F9 EQ PUSH2 0x863 JUMPI DUP1 PUSH4 0x8378A875 EQ PUSH2 0x878 JUMPI DUP1 PUSH4 0x883D9984 EQ PUSH2 0x88D JUMPI PUSH2 0x494 JUMP JUMPDEST DUP1 PUSH4 0x7B0472F0 EQ PUSH2 0x82E JUMPI DUP1 PUSH4 0x7BB4E320 EQ PUSH2 0x84E JUMPI PUSH2 0x494 JUMP JUMPDEST DUP1 PUSH4 0x70A08231 EQ PUSH2 0x7AE JUMPI DUP1 PUSH4 0x715018A6 EQ PUSH2 0x7E4 JUMPI DUP1 PUSH4 0x78DC9315 EQ PUSH2 0x7F9 JUMPI DUP1 PUSH4 0x79CC6790 EQ PUSH2 0x80E JUMPI PUSH2 0x494 JUMP JUMPDEST DUP1 PUSH4 0x56029137 GT PUSH2 0x353 JUMPI DUP1 PUSH4 0x5F5300FF GT PUSH2 0x338 JUMPI DUP1 PUSH4 0x5F5300FF EQ PUSH2 0x763 JUMPI DUP1 PUSH4 0x632A9A52 EQ PUSH2 0x779 JUMPI DUP1 PUSH4 0x63A599A4 EQ PUSH2 0x78E JUMPI PUSH2 0x494 JUMP JUMPDEST DUP1 PUSH4 0x56029137 EQ PUSH2 0x739 JUMPI DUP1 PUSH4 0x5B88349D EQ PUSH2 0x74E JUMPI PUSH2 0x494 JUMP JUMPDEST DUP1 PUSH4 0x40C10F19 EQ PUSH2 0x6C3 JUMPI DUP1 PUSH4 0x42966C68 EQ PUSH2 0x6E3 JUMPI DUP1 PUSH4 0x471A30A2 EQ PUSH2 0x703 JUMPI DUP1 PUSH4 0x549DEE0B EQ PUSH2 0x723 JUMPI PUSH2 0x494 JUMP JUMPDEST DUP1 PUSH4 0x18160DDD GT PUSH2 0x417 JUMPI DUP1 PUSH4 0x313CE567 GT PUSH2 0x3E6 JUMPI DUP1 PUSH4 0x376D441C GT PUSH2 0x3CB JUMPI DUP1 PUSH4 0x376D441C EQ PUSH2 0x66D JUMPI DUP1 PUSH4 0x39509351 EQ PUSH2 0x68E JUMPI DUP1 PUSH4 0x3F3EF2DC EQ PUSH2 0x6AE JUMPI PUSH2 0x494 JUMP JUMPDEST DUP1 PUSH4 0x313CE567 EQ PUSH2 0x635 JUMPI DUP1 PUSH4 0x338DBF59 EQ PUSH2 0x657 JUMPI PUSH2 0x494 JUMP JUMPDEST DUP1 PUSH4 0x18160DDD EQ PUSH2 0x597 JUMPI DUP1 PUSH4 0x19CA147D EQ PUSH2 0x5AC JUMPI DUP1 PUSH4 0x23B872DD EQ PUSH2 0x5F6 JUMPI DUP1 PUSH4 0x2CF1A5FB EQ PUSH2 0x616 JUMPI PUSH2 0x494 JUMP JUMPDEST DUP1 PUSH4 0x95EA7B3 GT PUSH2 0x453 JUMPI DUP1 PUSH4 0x95EA7B3 EQ PUSH2 0x51D JUMPI DUP1 PUSH4 0xE1B09ED EQ PUSH2 0x54D JUMPI DUP1 PUSH4 0xEC5AA1A EQ PUSH2 0x56D JUMPI DUP1 PUSH4 0x15441BB9 EQ PUSH2 0x582 JUMPI PUSH2 0x494 JUMP JUMPDEST DUP1 PUSH4 0x42249BB EQ PUSH2 0x49D JUMPI DUP1 PUSH4 0x6FDDE03 EQ PUSH2 0x4C6 JUMPI DUP1 PUSH4 0x70C8B74 EQ PUSH2 0x4E8 JUMPI DUP1 PUSH4 0x78F522F EQ PUSH2 0x4FD JUMPI PUSH2 0x494 JUMP JUMPDEST CALLDATASIZE PUSH2 0x494 JUMPI PUSH2 0x492 CALLVALUE PUSH2 0xD6B JUMP JUMPDEST STOP JUMPDEST PUSH2 0x492 CALLVALUE PUSH2 0xD6B JUMP JUMPDEST CALLVALUE DUP1 ISZERO PUSH2 0x4A9 JUMPI PUSH1 0x0 DUP1 REVERT JUMPDEST POP PUSH2 0x4B3 PUSH1 0x19 SLOAD DUP2 JUMP JUMPDEST PUSH1 0x40 MLOAD SWAP1 DUP2 MSTORE PUSH1 0x20 ADD JUMPDEST PUSH1 0x40 MLOAD DUP1 SWAP2 SUB SWAP1 RETURN JUMPDEST CALLVALUE DUP1 ISZERO PUSH2 0x4D2 JUMPI PUSH1 0x0 DUP1 REVERT JUMPDEST POP PUSH2 0x4DB PUSH2 0xEDD JUMP JUMPDEST PUSH1 0x40 MLOAD PUSH2 0x4BD SWAP2 SWAP1 PUSH2 0x5751 JUMP JUMPDEST CALLVALUE DUP1 ISZERO PUSH2 0x4F4 JUMPI PUSH1 0x0 DUP1 REVERT JUMPDEST POP PUSH2 0x492 PUSH2 0xF6F JUMP JUMPDEST CALLVALUE DUP1 ISZERO PUSH2 0x509 JUMPI PUSH1 0x0 DUP1 REVERT JUMPDEST POP PUSH2 0x492 PUSH2 0x518 CALLDATASIZE PUSH1 0x4 PUSH2 0x57A6 JUMP JUMPDEST PUSH2 0x107E JUMP JUMPDEST CALLVALUE DUP1 ISZERO PUSH2 0x529 JUMPI PUSH1 0x0 DUP1 REVERT JUMPDEST POP PUSH2 0x53D PUSH2 0x538 CALLDATASIZE PUSH1 0x4 PUSH2 0x5830 JUMP JUMPDEST PUSH2 0x12C6 JUMP JUMPDEST PUSH1 0x40 MLOAD SWAP1 ISZERO ISZERO DUP2 MSTORE PUSH1 0x20 ADD PUSH2 0x4BD JUMP JUMPDEST CALLVALUE DUP1 ISZERO PUSH2 0x559 JUMPI PUSH1 0x0 DUP1 REVERT JUMPDEST POP PUSH2 0x492 PUSH2 0x568 CALLDATASIZE PUSH1 0x4 PUSH2 0x585C JUMP JUMPDEST PUSH2 0x12DE JUMP JUMPDEST CALLVALUE DUP1 ISZERO PUSH2 0x579 JUMPI PUSH1 0x0 DUP1 REVERT JUMPDEST POP PUSH2 0x492 PUSH2 0x1382 JUMP JUMPDEST CALLVALUE DUP1 ISZERO PUSH2 0x58E JUMPI PUSH1 0x0 DUP1 REVERT JUMPDEST POP PUSH2 0x492 PUSH2 0x14C5 JUMP JUMPDEST CALLVALUE DUP1 ISZERO PUSH2 0x5A3 JUMPI PUSH1 0x0 DUP1 REVERT JUMPDEST POP PUSH1 0x15 SLOAD PUSH2 0x4B3 JUMP JUMPDEST CALLVALUE DUP1 ISZERO PUSH2 0x5B8 JUMPI PUSH1 0x0 DUP1 REVERT JUMPDEST POP PUSH2 0x5C1 PUSH2 0x1569 JUMP JUMPDEST PUSH1 0x40 MLOAD PUSH2 0x4BD SWAP2 SWAP1 DUP2 MLOAD DUP2 MSTORE PUSH1 0x20 DUP1 DUP4 ADD MLOAD SWAP1 DUP3 ADD MSTORE PUSH1 0x40 DUP1 DUP4 ADD MLOAD ISZERO ISZERO SWAP1 DUP3 ADD MSTORE PUSH1 0x60 SWAP2 DUP3 ADD MLOAD SWAP2 DUP2 ADD SWAP2 SWAP1 SWAP2 MSTORE PUSH1 0x80 ADD SWAP1 JUMP JUMPDEST CALLVALUE DUP1 ISZERO PUSH2 0x602 JUMPI PUSH1 0x0 DUP1 REVERT JUMPDEST POP PUSH2 0x53D PUSH2 0x611 CALLDATASIZE PUSH1 0x4 PUSH2 0x5875 JUMP JUMPDEST PUSH2 0x1666 JUMP JUMPDEST CALLVALUE DUP1 ISZERO PUSH2 0x622 JUMPI PUSH1 0x0 DUP1 REVERT JUMPDEST POP PUSH1 0x1C SLOAD PUSH2 0x53D SWAP1 PUSH2 0x100 SWAP1 DIV PUSH1 0xFF AND DUP2 JUMP JUMPDEST CALLVALUE DUP1 ISZERO PUSH2 0x641 JUMPI PUSH1 0x0 DUP1 REVERT JUMPDEST POP PUSH1 0x12 JUMPDEST PUSH1 0x40 MLOAD PUSH1 0xFF SWAP1 SWAP2 AND DUP2 MSTORE PUSH1 0x20 ADD PUSH2 0x4BD JUMP JUMPDEST CALLVALUE DUP1 ISZERO PUSH2 0x663 JUMPI PUSH1 0x0 DUP1 REVERT JUMPDEST POP PUSH2 0x4B3 PUSH1 0x11 SLOAD DUP2 JUMP JUMPDEST CALLVALUE DUP1 ISZERO PUSH2 0x679 JUMPI PUSH1 0x0 DUP1 REVERT JUMPDEST POP PUSH1 0x1C SLOAD PUSH2 0x53D SWAP1 PUSH4 0x1000000 SWAP1 DIV PUSH1 0xFF AND DUP2 JUMP JUMPDEST CALLVALUE DUP1 ISZERO PUSH2 0x69A JUMPI PUSH1 0x0 DUP1 REVERT JUMPDEST POP PUSH2 0x53D PUSH2 0x6A9 CALLDATASIZE PUSH1 0x4 PUSH2 0x5830 JUMP JUMPDEST PUSH2 0x168A JUMP JUMPDEST CALLVALUE DUP1 ISZERO PUSH2 0x6BA JUMPI PUSH1 0x0 DUP1 REVERT JUMPDEST POP PUSH2 0x492 PUSH2 0x16C9 JUMP JUMPDEST CALLVALUE DUP1 ISZERO PUSH2 0x6CF JUMPI PUSH1 0x0 DUP1 REVERT JUMPDEST POP PUSH2 0x492 PUSH2 0x6DE CALLDATASIZE PUSH1 0x4 PUSH2 0x5830 JUMP JUMPDEST PUSH2 0x176D JUMP JUMPDEST CALLVALUE DUP1 ISZERO PUSH2 0x6EF JUMPI PUSH1 0x0 DUP1 REVERT JUMPDEST POP PUSH2 0x492 PUSH2 0x6FE CALLDATASIZE PUSH1 0x4 PUSH2 0x585C JUMP JUMPDEST PUSH2 0x17C3 JUMP JUMPDEST CALLVALUE DUP1 ISZERO PUSH2 0x70F JUMPI PUSH1 0x0 DUP1 REVERT JUMPDEST POP PUSH2 0x492 PUSH2 0x71E CALLDATASIZE PUSH1 0x4 PUSH2 0x58B6 JUMP JUMPDEST PUSH2 0x17D0 JUMP JUMPDEST CALLVALUE DUP1 ISZERO PUSH2 0x72F JUMPI PUSH1 0x0 DUP1 REVERT JUMPDEST POP PUSH2 0x4B3 PUSH1 0xF SLOAD DUP2 JUMP JUMPDEST CALLVALUE DUP1 ISZERO PUSH2 0x745 JUMPI PUSH1 0x0 DUP1 REVERT JUMPDEST POP PUSH2 0x492 PUSH2 0x18B6 JUMP JUMPDEST CALLVALUE DUP1 ISZERO PUSH2 0x75A JUMPI PUSH1 0x0 DUP1 REVERT JUMPDEST POP PUSH2 0x492 PUSH2 0x195A JUMP JUMPDEST CALLVALUE DUP1 ISZERO PUSH2 0x76F JUMPI PUSH1 0x0 DUP1 REVERT JUMPDEST POP PUSH2 0x4B3 PUSH1 0xB SLOAD DUP2 JUMP JUMPDEST CALLVALUE DUP1 ISZERO PUSH2 0x785 JUMPI PUSH1 0x0 DUP1 REVERT JUMPDEST POP PUSH2 0x492 PUSH2 0x1A13 JUMP JUMPDEST CALLVALUE DUP1 ISZERO PUSH2 0x79A JUMPI PUSH1 0x0 DUP1 REVERT JUMPDEST POP PUSH2 0x492 PUSH2 0x7A9 CALLDATASIZE PUSH1 0x4 PUSH2 0x585C JUMP JUMPDEST PUSH2 0x1B36 JUMP JUMPDEST CALLVALUE DUP1 ISZERO PUSH2 0x7BA JUMPI PUSH1 0x0 DUP1 REVERT JUMPDEST POP PUSH2 0x4B3 PUSH2 0x7C9 CALLDATASIZE PUSH1 0x4 PUSH2 0x58D9 JUMP JUMPDEST PUSH1 0x1 PUSH1 0x1 PUSH1 0xA0 SHL SUB AND PUSH1 0x0 SWAP1 DUP2 MSTORE PUSH1 0x13 PUSH1 0x20 MSTORE PUSH1 0x40 SWAP1 KECCAK256 SLOAD SWAP1 JUMP JUMPDEST CALLVALUE DUP1 ISZERO PUSH2 0x7F0 JUMPI PUSH1 0x0 DUP1 REVERT JUMPDEST POP PUSH2 0x492 PUSH2 0x1B7D JUMP JUMPDEST CALLVALUE DUP1 ISZERO PUSH2 0x805 JUMPI PUSH1 0x0 DUP1 REVERT JUMPDEST POP PUSH2 0x492 PUSH2 0x1BD1 JUMP JUMPDEST CALLVALUE DUP1 ISZERO PUSH2 0x81A JUMPI PUSH1 0x0 DUP1 REVERT JUMPDEST POP PUSH2 0x492 PUSH2 0x829 CALLDATASIZE PUSH1 0x4 PUSH2 0x5830 JUMP JUMPDEST PUSH2 0x1C75 JUMP JUMPDEST CALLVALUE DUP1 ISZERO PUSH2 0x83A JUMPI PUSH1 0x0 DUP1 REVERT JUMPDEST POP PUSH2 0x492 PUSH2 0x849 CALLDATASIZE PUSH1 0x4 PUSH2 0x58F6 JUMP JUMPDEST PUSH2 0x1C8A JUMP JUMPDEST CALLVALUE DUP1 ISZERO PUSH2 0x85A JUMPI PUSH1 0x0 DUP1 REVERT JUMPDEST POP PUSH2 0x492 PUSH2 0x1D5B JUMP JUMPDEST CALLVALUE DUP1 ISZERO PUSH2 0x86F JUMPI PUSH1 0x0 DUP1 REVERT JUMPDEST POP PUSH2 0x492 PUSH2 0x1DFF JUMP JUMPDEST CALLVALUE DUP1 ISZERO PUSH2 0x884 JUMPI PUSH1 0x0 DUP1 REVERT JUMPDEST POP PUSH2 0x492 PUSH2 0x1E27 JUMP JUMPDEST CALLVALUE DUP1 ISZERO PUSH2 0x899 JUMPI PUSH1 0x0 DUP1 REVERT JUMPDEST POP PUSH2 0x492 PUSH2 0x1ECB JUMP JUMPDEST CALLVALUE DUP1 ISZERO PUSH2 0x8AE JUMPI PUSH1 0x0 DUP1 REVERT JUMPDEST POP PUSH2 0x4B3 PUSH1 0x7 SLOAD DUP2 JUMP JUMPDEST CALLVALUE DUP1 ISZERO PUSH2 0x8C4 JUMPI PUSH1 0x0 DUP1 REVERT JUMPDEST POP PUSH2 0x4B3 PUSH1 0x10 SLOAD DUP2 JUMP JUMPDEST CALLVALUE DUP1 ISZERO PUSH2 0x8DA JUMPI PUSH1 0x0 DUP1 REVERT JUMPDEST POP PUSH2 0x492 PUSH2 0x8E9 CALLDATASIZE PUSH1 0x4 PUSH2 0x585C JUMP JUMPDEST PUSH2 0x1F6F JUMP JUMPDEST CALLVALUE DUP1 ISZERO PUSH2 0x8FA JUMPI PUSH1 0x0 DUP1 REVERT JUMPDEST POP PUSH2 0x492 PUSH2 0x909 CALLDATASIZE PUSH1 0x4 PUSH2 0x585C JUMP JUMPDEST PUSH2 0x2026 JUMP JUMPDEST CALLVALUE DUP1 ISZERO PUSH2 0x91A JUMPI PUSH1 0x0 DUP1 REVERT JUMPDEST POP PUSH2 0x492 PUSH2 0x929 CALLDATASIZE PUSH1 0x4 PUSH2 0x5830 JUMP JUMPDEST PUSH2 0x20A9 JUMP JUMPDEST CALLVALUE DUP1 ISZERO PUSH2 0x93A JUMPI PUSH1 0x0 DUP1 REVERT JUMPDEST POP PUSH1 0x5 SLOAD PUSH1 0x1 PUSH1 0x1 PUSH1 0xA0 SHL SUB AND JUMPDEST PUSH1 0x40 MLOAD PUSH1 0x1 PUSH1 0x1 PUSH1 0xA0 SHL SUB SWAP1 SWAP2 AND DUP2 MSTORE PUSH1 0x20 ADD PUSH2 0x4BD JUMP JUMPDEST CALLVALUE DUP1 ISZERO PUSH2 0x96C JUMPI PUSH1 0x0 DUP1 REVERT JUMPDEST POP PUSH2 0x492 PUSH2 0x2162 JUMP JUMPDEST CALLVALUE DUP1 ISZERO PUSH2 0x981 JUMPI PUSH1 0x0 DUP1 REVERT JUMPDEST POP PUSH2 0x492 PUSH2 0x2206 JUMP JUMPDEST CALLVALUE DUP1 ISZERO PUSH2 0x996 JUMPI PUSH1 0x0 DUP1 REVERT JUMPDEST POP PUSH2 0x4DB PUSH2 0x22AA JUMP JUMPDEST CALLVALUE DUP1 ISZERO PUSH2 0x9AB JUMPI PUSH1 0x0 DUP1 REVERT JUMPDEST POP PUSH2 0x492 PUSH2 0x22B9 JUMP JUMPDEST CALLVALUE DUP1 ISZERO PUSH2 0x9C0 JUMPI PUSH1 0x0 DUP1 REVERT JUMPDEST POP PUSH1 0x1C SLOAD PUSH2 0x645 SWAP1 PUSH1 0xFF AND DUP2 JUMP JUMPDEST CALLVALUE DUP1 ISZERO PUSH2 0x9DA JUMPI PUSH1 0x0 DUP1 REVERT JUMPDEST POP PUSH2 0x4B3 PUSH2 0x9E9 CALLDATASIZE PUSH1 0x4 PUSH2 0x585C JUMP JUMPDEST PUSH1 0xD PUSH1 0x20 MSTORE PUSH1 0x0 SWAP1 DUP2 MSTORE PUSH1 0x40 SWAP1 KECCAK256 SLOAD DUP2 JUMP JUMPDEST CALLVALUE DUP1 ISZERO PUSH2 0xA07 JUMPI PUSH1 0x0 DUP1 REVERT JUMPDEST POP PUSH2 0x492 PUSH2 0xA16 CALLDATASIZE PUSH1 0x4 PUSH2 0x585C JUMP JUMPDEST PUSH2 0x287F JUMP JUMPDEST CALLVALUE DUP1 ISZERO PUSH2 0xA27 JUMPI PUSH1 0x0 DUP1 REVERT JUMPDEST POP PUSH2 0x492 PUSH2 0xA36 CALLDATASIZE PUSH1 0x4 PUSH2 0x5918 JUMP JUMPDEST PUSH2 0x28D0 JUMP JUMPDEST CALLVALUE DUP1 ISZERO PUSH2 0xA47 JUMPI PUSH1 0x0 DUP1 REVERT JUMPDEST POP PUSH2 0x492 PUSH2 0xA56 CALLDATASIZE PUSH1 0x4 PUSH2 0x58D9 JUMP JUMPDEST PUSH2 0x2A97 JUMP JUMPDEST CALLVALUE DUP1 ISZERO PUSH2 0xA67 JUMPI PUSH1 0x0 DUP1 REVERT JUMPDEST POP PUSH1 0x20 SLOAD PUSH2 0x948 SWAP1 PUSH1 0x1 PUSH1 0x1 PUSH1 0xA0 SHL SUB AND DUP2 JUMP JUMPDEST CALLVALUE DUP1 ISZERO PUSH2 0xA87 JUMPI PUSH1 0x0 DUP1 REVERT JUMPDEST POP PUSH2 0x53D PUSH2 0xA96 CALLDATASIZE PUSH1 0x4 PUSH2 0x58D9 JUMP JUMPDEST PUSH1 0xC PUSH1 0x20 MSTORE PUSH1 0x0 SWAP1 DUP2 MSTORE PUSH1 0x40 SWAP1 KECCAK256 SLOAD PUSH1 0xFF AND DUP2 JUMP JUMPDEST CALLVALUE DUP1 ISZERO PUSH2 0xAB7 JUMPI PUSH1 0x0 DUP1 REVERT JUMPDEST POP PUSH2 0x53D PUSH2 0xAC6 CALLDATASIZE PUSH1 0x4 PUSH2 0x5830 JUMP JUMPDEST PUSH2 0x2B29 JUMP JUMPDEST CALLVALUE DUP1 ISZERO PUSH2 0xAD7 JUMPI PUSH1 0x0 DUP1 REVERT JUMPDEST POP PUSH2 0x53D PUSH2 0xAE6 CALLDATASIZE PUSH1 0x4 PUSH2 0x58D9 JUMP JUMPDEST PUSH2 0x2BD3 JUMP JUMPDEST CALLVALUE DUP1 ISZERO PUSH2 0xAF7 JUMPI PUSH1 0x0 DUP1 REVERT JUMPDEST POP PUSH1 0x1E SLOAD PUSH2 0x948 SWAP1 PUSH1 0x1 PUSH1 0x1 PUSH1 0xA0 SHL SUB AND DUP2 JUMP JUMPDEST CALLVALUE DUP1 ISZERO PUSH2 0xB17 JUMPI PUSH1 0x0 DUP1 REVERT JUMPDEST POP PUSH2 0x53D PUSH2 0xB26 CALLDATASIZE PUSH1 0x4 PUSH2 0x5830 JUMP JUMPDEST PUSH2 0x2C4A JUMP JUMPDEST CALLVALUE DUP1 ISZERO PUSH2 0xB37 JUMPI PUSH1 0x0 DUP1 REVERT JUMPDEST POP PUSH2 0x4B3 PUSH1 0x8 SLOAD DUP2 JUMP JUMPDEST CALLVALUE DUP1 ISZERO PUSH2 0xB4D JUMPI PUSH1 0x0 DUP1 REVERT JUMPDEST POP PUSH2 0x4B3 PUSH1 0x1A SLOAD DUP2 JUMP JUMPDEST CALLVALUE DUP1 ISZERO PUSH2 0xB63 JUMPI PUSH1 0x0 DUP1 REVERT JUMPDEST POP PUSH2 0x4B3 PUSH1 0x1B SLOAD DUP2 JUMP JUMPDEST CALLVALUE DUP1 ISZERO PUSH2 0xB79 JUMPI PUSH1 0x0 DUP1 REVERT JUMPDEST POP PUSH2 0x492 PUSH2 0x2C58 JUMP JUMPDEST CALLVALUE DUP1 ISZERO PUSH2 0xB8E JUMPI PUSH1 0x0 DUP1 REVERT JUMPDEST POP PUSH1 0x1F SLOAD PUSH2 0x948 SWAP1 PUSH1 0x1 PUSH1 0x1 PUSH1 0xA0 SHL SUB AND DUP2 JUMP JUMPDEST CALLVALUE DUP1 ISZERO PUSH2 0xBAE JUMPI PUSH1 0x0 DUP1 REVERT JUMPDEST POP PUSH2 0x4B3 PUSH1 0x6 SLOAD DUP2 JUMP JUMPDEST CALLVALUE DUP1 ISZERO PUSH2 0xBC4 JUMPI PUSH1 0x0 DUP1 REVERT JUMPDEST POP PUSH2 0x4B3 PUSH2 0x2CD1 JUMP JUMPDEST CALLVALUE DUP1 ISZERO PUSH2 0xBD9 JUMPI PUSH1 0x0 DUP1 REVERT JUMPDEST POP PUSH2 0x492 PUSH2 0xBE8 CALLDATASIZE PUSH1 0x4 PUSH2 0x585C JUMP JUMPDEST PUSH2 0x2D04 JUMP JUMPDEST CALLVALUE DUP1 ISZERO PUSH2 0xBF9 JUMPI PUSH1 0x0 DUP1 REVERT JUMPDEST POP PUSH2 0x492 PUSH2 0xC08 CALLDATASIZE PUSH1 0x4 PUSH2 0x585C JUMP JUMPDEST PUSH2 0x2D87 JUMP JUMPDEST CALLVALUE DUP1 ISZERO PUSH2 0xC19 JUMPI PUSH1 0x0 DUP1 REVERT JUMPDEST POP PUSH1 0x21 SLOAD PUSH2 0x948 SWAP1 PUSH1 0x1 PUSH1 0x1 PUSH1 0xA0 SHL SUB AND DUP2 JUMP JUMPDEST CALLVALUE DUP1 ISZERO PUSH2 0xC39 JUMPI PUSH1 0x0 DUP1 REVERT JUMPDEST POP PUSH2 0x4B3 PUSH2 0xC48 CALLDATASIZE PUSH1 0x4 PUSH2 0x597B JUMP JUMPDEST PUSH1 0x1 PUSH1 0x1 PUSH1 0xA0 SHL SUB SWAP2 DUP3 AND PUSH1 0x0 SWAP1 DUP2 MSTORE PUSH1 0x14 PUSH1 0x20 SWAP1 DUP2 MSTORE PUSH1 0x40 DUP1 DUP4 KECCAK256 SWAP4 SWAP1 SWAP5 AND DUP3 MSTORE SWAP2 SWAP1 SWAP2 MSTORE KECCAK256 SLOAD SWAP1 JUMP JUMPDEST CALLVALUE DUP1 ISZERO PUSH2 0xC7F JUMPI PUSH1 0x0 DUP1 REVERT JUMPDEST POP PUSH2 0xC93 PUSH2 0xC8E CALLDATASIZE PUSH1 0x4 PUSH2 0x58D9 JUMP JUMPDEST PUSH2 0x2E3E JUMP JUMPDEST PUSH1 0x40 MLOAD PUSH2 0x4BD SWAP2 SWAP1 PUSH1 0x0 PUSH2 0x120 DUP3 ADD SWAP1 POP DUP3 MLOAD DUP3 MSTORE PUSH1 0x20 DUP4 ADD MLOAD PUSH1 0x20 DUP4 ADD MSTORE PUSH1 0x40 DUP4 ADD MLOAD PUSH1 0x1 PUSH1 0x1 PUSH1 0xA0 SHL SUB DUP2 MLOAD AND PUSH1 0x40 DUP5 ADD MSTORE PUSH1 0x20 DUP2 ADD MLOAD PUSH1 0x60 DUP5 ADD MSTORE PUSH1 0x40 DUP2 ADD MLOAD PUSH1 0x80 DUP5 ADD MSTORE PUSH1 0x60 DUP2 ADD MLOAD PUSH1 0xA0 DUP5 ADD MSTORE PUSH1 0x80 DUP2 ADD MLOAD PUSH1 0xC0 DUP5 ADD MSTORE PUSH1 0xA0 DUP2 ADD MLOAD PUSH1 0xE0 DUP5 ADD MSTORE PUSH1 0xC0 DUP2 ADD MLOAD PUSH2 0x100 DUP5 ADD MSTORE POP SWAP3 SWAP2 POP POP JUMP JUMPDEST CALLVALUE DUP1 ISZERO PUSH2 0xD17 JUMPI PUSH1 0x0 DUP1 REVERT JUMPDEST POP PUSH1 0x1C SLOAD PUSH2 0x53D SWAP1 PUSH3 0x10000 SWAP1 DIV PUSH1 0xFF AND DUP2 JUMP JUMPDEST CALLVALUE DUP1 ISZERO PUSH2 0xD37 JUMPI PUSH1 0x0 DUP1 REVERT JUMPDEST POP PUSH2 0x492 PUSH2 0xD46 CALLDATASIZE PUSH1 0x4 PUSH2 0x59B4 JUMP JUMPDEST PUSH2 0x2FEC JUMP JUMPDEST CALLVALUE DUP1 ISZERO PUSH2 0xD57 JUMPI PUSH1 0x0 DUP1 REVERT JUMPDEST POP PUSH2 0x492 PUSH2 0xD66 CALLDATASIZE PUSH1 0x4 PUSH2 0x58D9 JUMP JUMPDEST PUSH2 0x30A2 JUMP JUMPDEST PUSH1 0x0 PUSH2 0xD78 DUP3 PUSH1 0x3 PUSH2 0x319B JUMP JUMPDEST PUSH20 0xE61E7A7D16DB384433E532FB85724E7F3BDAAE2F PUSH1 0x0 MSTORE PUSH1 0x13 PUSH1 0x20 MSTORE PUSH32 0xAC3F991B0BCFBE5A49CB8F28AA381129B92FDF4ED0797BB0B28F2D4F8472E52F SLOAD SWAP1 SWAP2 POP PUSH2 0xDC4 SWAP1 DUP3 PUSH2 0x31AE JUMP JUMPDEST PUSH1 0x13 PUSH1 0x20 MSTORE PUSH32 0xAC3F991B0BCFBE5A49CB8F28AA381129B92FDF4ED0797BB0B28F2D4F8472E52F SSTORE PUSH20 0x406605EB24A97A2D61B516D8D850F2AEFA6A731A PUSH1 0x0 MSTORE PUSH32 0x8A2B6C18ED66322C8ECB6F6EEF8AF1341BAB377E298D1A97668035E55C3FB987 SLOAD PUSH2 0xE2F SWAP1 DUP3 PUSH2 0x31AE JUMP JUMPDEST PUSH1 0x13 PUSH1 0x20 MSTORE PUSH32 0x8A2B6C18ED66322C8ECB6F6EEF8AF1341BAB377E298D1A97668035E55C3FB987 SSTORE PUSH20 0x97620DEADC98BC8173303686037CE7B986CF53C3 PUSH1 0x0 MSTORE PUSH32 0x192F1AC10B1314D35BBC8FCF3F0D2F253C4710988114BAEC9C0AB6A710BE3EC7 SLOAD PUSH2 0xE9A SWAP1 DUP3 PUSH2 0x31AE JUMP JUMPDEST PUSH20 0x97620DEADC98BC8173303686037CE7B986CF53C3 PUSH1 0x0 MSTORE PUSH1 0x13 PUSH1 0x20 MSTORE PUSH32 0x192F1AC10B1314D35BBC8FCF3F0D2F253C4710988114BAEC9C0AB6A710BE3EC7 SSTORE POP POP JUMP JUMPDEST PUSH1 0x60 PUSH1 0x16 DUP1 SLOAD PUSH2 0xEEC SWAP1 PUSH2 0x59FF JUMP JUMPDEST DUP1 PUSH1 0x1F ADD PUSH1 0x20 DUP1 SWAP2 DIV MUL PUSH1 0x20 ADD PUSH1 0x40 MLOAD SWAP1 DUP2 ADD PUSH1 0x40 MSTORE DUP1 SWAP3 SWAP2 SWAP1 DUP2 DUP2 MSTORE PUSH1 0x20 ADD DUP3 DUP1 SLOAD PUSH2 0xF18 SWAP1 PUSH2 0x59FF JUMP JUMPDEST DUP1 ISZERO PUSH2 0xF65 JUMPI DUP1 PUSH1 0x1F LT PUSH2 0xF3A JUMPI PUSH2 0x100 DUP1 DUP4 SLOAD DIV MUL DUP4 MSTORE SWAP2 PUSH1 0x20 ADD SWAP2 PUSH2 0xF65 JUMP JUMPDEST DUP3 ADD SWAP2 SWAP1 PUSH1 0x0 MSTORE PUSH1 0x20 PUSH1 0x0 KECCAK256 SWAP1 JUMPDEST DUP2 SLOAD DUP2 MSTORE SWAP1 PUSH1 0x1 ADD SWAP1 PUSH1 0x20 ADD DUP1 DUP4 GT PUSH2 0xF48 JUMPI DUP3 SWAP1 SUB PUSH1 0x1F AND DUP3 ADD SWAP2 JUMPDEST POP POP POP POP POP SWAP1 POP SWAP1 JUMP JUMPDEST PUSH2 0xF77 PUSH2 0x31BA JUMP JUMPDEST CALLER PUSH1 0x0 SWAP1 DUP2 MSTORE PUSH1 0xC PUSH1 0x20 MSTORE PUSH1 0x40 SWAP1 KECCAK256 SLOAD PUSH1 0xFF AND ISZERO ISZERO PUSH1 0x1 EQ PUSH2 0xFE0 JUMPI PUSH1 0x40 MLOAD PUSH3 0x461BCD PUSH1 0xE5 SHL DUP2 MSTORE PUSH1 0x20 PUSH1 0x4 DUP3 ADD MSTORE PUSH1 0x13 PUSH1 0x24 DUP3 ADD MSTORE PUSH32 0x596F7520617265206E6F74206120766F74657200000000000000000000000000 PUSH1 0x44 DUP3 ADD MSTORE PUSH1 0x64 ADD JUMPDEST PUSH1 0x40 MLOAD DUP1 SWAP2 SUB SWAP1 REVERT JUMPDEST CALLER PUSH1 0x0 SWAP1 DUP2 MSTORE PUSH1 0xC PUSH1 0x20 SWAP1 DUP2 MSTORE PUSH1 0x40 DUP1 DUP4 KECCAK256 PUSH1 0xA SLOAD DUP5 MSTORE PUSH1 0x1 SWAP1 DUP2 ADD SWAP1 SWAP3 MSTORE SWAP1 SWAP2 KECCAK256 SLOAD PUSH1 0xFF AND ISZERO ISZERO EQ PUSH2 0x1055 JUMPI PUSH1 0x40 MLOAD PUSH3 0x461BCD PUSH1 0xE5 SHL DUP2 MSTORE PUSH1 0x20 PUSH1 0x4 DUP3 ADD MSTORE PUSH1 0x16 PUSH1 0x24 DUP3 ADD MSTORE PUSH32 0x596F752068617665206E6F7420766F7465642079657400000000000000000000 PUSH1 0x44 DUP3 ADD MSTORE PUSH1 0x64 ADD PUSH2 0xFD7 JUMP JUMPDEST PUSH1 0xA SLOAD PUSH1 0x0 SWAP1 DUP2 MSTORE PUSH1 0xD PUSH1 0x20 MSTORE PUSH1 0x40 DUP2 KECCAK256 DUP1 SLOAD PUSH1 0x1 SWAP3 SWAP1 PUSH2 0x1077 SWAP1 DUP5 SWAP1 PUSH2 0x5A50 JUMP JUMPDEST SWAP1 SWAP2 SSTORE POP POP JUMP JUMPDEST PUSH1 0x5 SLOAD PUSH1 0x1 PUSH1 0x1 PUSH1 0xA0 SHL SUB AND CALLER EQ PUSH2 0x10C6 JUMPI PUSH1 0x40 MLOAD PUSH3 0x461BCD PUSH1 0xE5 SHL DUP2 MSTORE PUSH1 0x20 PUSH1 0x4 DUP3 ADD DUP2 SWAP1 MSTORE PUSH1 0x24 DUP3 ADD MSTORE PUSH1 0x0 DUP1 MLOAD PUSH1 0x20 PUSH2 0x5B70 DUP4 CODECOPY DUP2 MLOAD SWAP2 MSTORE PUSH1 0x44 DUP3 ADD MSTORE PUSH1 0x64 ADD PUSH2 0xFD7 JUMP JUMPDEST PUSH1 0x1C SLOAD PUSH1 0x0 SWAP1 PUSH4 0x1000000 SWAP1 DIV PUSH1 0xFF AND ISZERO ISZERO PUSH1 0x1 EQ PUSH2 0x1127 JUMPI PUSH1 0x40 MLOAD PUSH3 0x461BCD PUSH1 0xE5 SHL DUP2 MSTORE PUSH1 0x20 PUSH1 0x4 DUP3 ADD MSTORE PUSH1 0x1C PUSH1 0x24 DUP3 ADD MSTORE PUSH32 0x507269766174652053616C65206E6F7420796574207374617274656400000000 PUSH1 0x44 DUP3 ADD MSTORE PUSH1 0x64 ADD PUSH2 0xFD7 JUMP JUMPDEST DUP2 PUSH2 0x1174 JUMPI PUSH1 0x40 MLOAD PUSH3 0x461BCD PUSH1 0xE5 SHL DUP2 MSTORE PUSH1 0x20 PUSH1 0x4 DUP3 ADD MSTORE PUSH1 0xE PUSH1 0x24 DUP3 ADD MSTORE PUSH32 0x4E6F7468696E6720746F20616464000000000000000000000000000000000000 PUSH1 0x44 DUP3 ADD MSTORE PUSH1 0x64 ADD PUSH2 0xFD7 JUMP JUMPDEST PUSH1 0x0 JUMPDEST DUP3 DUP2 LT ISZERO PUSH2 0x12B0 JUMPI PUSH2 0x11A3 DUP5 DUP5 DUP4 DUP2 DUP2 LT PUSH2 0x1194 JUMPI PUSH2 0x1194 PUSH2 0x5A67 JUMP JUMPDEST SWAP1 POP PUSH1 0x40 MUL ADD PUSH1 0x20 ADD CALLDATALOAD PUSH2 0x320C JUMP JUMPDEST DUP4 DUP4 DUP3 DUP2 DUP2 LT PUSH2 0x11B5 JUMPI PUSH2 0x11B5 PUSH2 0x5A67 JUMP JUMPDEST SWAP1 POP PUSH1 0x40 MUL ADD PUSH1 0x20 ADD CALLDATALOAD DUP3 PUSH2 0x11CA SWAP2 SWAP1 PUSH2 0x5A7D JUMP JUMPDEST SWAP2 POP PUSH2 0x1218 DUP5 DUP5 DUP4 DUP2 DUP2 LT PUSH2 0x11E1 JUMPI PUSH2 0x11E1 PUSH2 0x5A67 JUMP JUMPDEST PUSH2 0x11F7 SWAP3 PUSH1 0x20 PUSH1 0x40 SWAP1 SWAP3 MUL ADD SWAP1 DUP2 ADD SWAP2 POP PUSH2 0x58D9 JUMP JUMPDEST DUP6 DUP6 DUP5 DUP2 DUP2 LT PUSH2 0x1209 JUMPI PUSH2 0x1209 PUSH2 0x5A67 JUMP JUMPDEST SWAP1 POP PUSH1 0x40 MUL ADD PUSH1 0x20 ADD CALLDATALOAD PUSH2 0x3259 JUMP JUMPDEST DUP4 DUP4 DUP3 DUP2 DUP2 LT PUSH2 0x122A JUMPI PUSH2 0x122A PUSH2 0x5A67 JUMP JUMPDEST PUSH2 0x1240 SWAP3 PUSH1 0x20 PUSH1 0x40 SWAP1 SWAP3 MUL ADD SWAP1 DUP2 ADD SWAP2 POP PUSH2 0x58D9 JUMP JUMPDEST PUSH1 0x1 PUSH1 0x1 PUSH1 0xA0 SHL SUB AND CALLER PUSH32 0x45B7246D64FE59430BA3159FD11DC7352501C1D80F8A6535CF48F68965E2745 DUP7 DUP7 DUP6 DUP2 DUP2 LT PUSH2 0x127D JUMPI PUSH2 0x127D PUSH2 0x5A67 JUMP JUMPDEST SWAP1 POP PUSH1 0x40 MUL ADD PUSH1 0x20 ADD CALLDATALOAD PUSH1 0x40 MLOAD PUSH2 0x1296 SWAP2 DUP2 MSTORE PUSH1 0x20 ADD SWAP1 JUMP JUMPDEST PUSH1 0x40 MLOAD DUP1 SWAP2 SUB SWAP1 LOG3 DUP1 PUSH2 0x12A8 DUP2 PUSH2 0x5A95 JUMP JUMPDEST SWAP2 POP POP PUSH2 0x1177 JUMP JUMPDEST POP PUSH1 0x1A SLOAD PUSH2 0x12BE SWAP1 DUP3 PUSH2 0x33CC JUMP JUMPDEST PUSH1 0x1A SSTORE POP POP POP JUMP JUMPDEST PUSH1 0x0 CALLER PUSH2 0x12D4 DUP2 DUP6 DUP6 PUSH2 0x33D8 JUMP JUMPDEST POP PUSH1 0x1 SWAP4 SWAP3 POP POP POP JUMP JUMPDEST PUSH1 0x5 SLOAD PUSH1 0x1 PUSH1 0x1 PUSH1 0xA0 SHL SUB AND CALLER EQ PUSH2 0x1326 JUMPI PUSH1 0x40 MLOAD PUSH3 0x461BCD PUSH1 0xE5 SHL DUP2 MSTORE PUSH1 0x20 PUSH1 0x4 DUP3 ADD DUP2 SWAP1 MSTORE PUSH1 0x24 DUP3 ADD MSTORE PUSH1 0x0 DUP1 MLOAD PUSH1 0x20 PUSH2 0x5B70 DUP4 CODECOPY DUP2 MLOAD SWAP2 MSTORE PUSH1 0x44 DUP3 ADD MSTORE PUSH1 0x64 ADD PUSH2 0xFD7 JUMP JUMPDEST PUSH1 0x19 SLOAD PUSH2 0x1333 SWAP1 DUP3 PUSH2 0x33CC JUMP JUMPDEST PUSH1 0x19 SSTORE PUSH1 0x15 SLOAD PUSH2 0x1343 SWAP1 DUP3 PUSH2 0x33CC JUMP JUMPDEST PUSH1 0x15 SSTORE PUSH1 0x40 MLOAD DUP2 DUP2 MSTORE PUSH1 0x0 SWAP1 ADDRESS SWAP1 PUSH32 0x715128EA18BCB5A472F8187C4FBFDC1ED6D04ECDCFF67E3F546FDD075E862665 SWAP1 PUSH1 0x20 ADD JUMPDEST PUSH1 0x40 MLOAD DUP1 SWAP2 SUB SWAP1 LOG3 POP JUMP JUMPDEST PUSH2 0x138A PUSH2 0x3531 JUMP JUMPDEST PUSH1 0x25 PUSH1 0x0 SWAP1 SLOAD SWAP1 PUSH2 0x100 EXP SWAP1 DIV PUSH1 0x1 PUSH1 0x1 PUSH1 0xA0 SHL SUB AND PUSH1 0x1 PUSH1 0x1 PUSH1 0xA0 SHL SUB AND PUSH4 0x38AF3EED PUSH1 0x40 MLOAD DUP2 PUSH4 0xFFFFFFFF AND PUSH1 0xE0 SHL DUP2 MSTORE PUSH1 0x4 ADD PUSH1 0x20 PUSH1 0x40 MLOAD DUP1 DUP4 SUB DUP2 DUP7 GAS STATICCALL ISZERO DUP1 ISZERO PUSH2 0x13DD JUMPI RETURNDATASIZE PUSH1 0x0 DUP1 RETURNDATACOPY RETURNDATASIZE PUSH1 0x0 REVERT JUMPDEST POP POP POP POP PUSH1 0x40 MLOAD RETURNDATASIZE PUSH1 0x1F NOT PUSH1 0x1F DUP3 ADD AND DUP3 ADD DUP1 PUSH1 0x40 MSTORE POP DUP2 ADD SWAP1 PUSH2 0x1401 SWAP2 SWAP1 PUSH2 0x5AB0 JUMP JUMPDEST PUSH2 0x140A DUP2 PUSH2 0x358E JUMP JUMPDEST PUSH1 0x25 SLOAD PUSH1 0x0 SWAP1 PUSH1 0x1 PUSH1 0x1 PUSH1 0xA0 SHL SUB AND PUSH4 0xA95606E PUSH2 0x1426 PUSH2 0x35E6 JUMP JUMPDEST PUSH1 0x40 MLOAD DUP3 PUSH4 0xFFFFFFFF AND PUSH1 0xE0 SHL DUP2 MSTORE PUSH1 0x4 ADD PUSH2 0x1442 SWAP2 SWAP1 PUSH2 0x5ACD JUMP JUMPDEST PUSH1 0x20 PUSH1 0x40 MLOAD DUP1 DUP4 SUB DUP2 PUSH1 0x0 DUP8 GAS CALL ISZERO DUP1 ISZERO PUSH2 0x1461 JUMPI RETURNDATASIZE PUSH1 0x0 DUP1 RETURNDATACOPY RETURNDATASIZE PUSH1 0x0 REVERT JUMPDEST POP POP POP POP PUSH1 0x40 MLOAD RETURNDATASIZE PUSH1 0x1F NOT PUSH1 0x1F DUP3 ADD AND DUP3 ADD DUP1 PUSH1 0x40 MSTORE POP DUP2 ADD SWAP1 PUSH2 0x1485 SWAP2 SWAP1 PUSH2 0x5AFF JUMP JUMPDEST SWAP1 POP PUSH2 0x14B1 DUP2 PUSH1 0x13 PUSH1 0x0 CALLER JUMPDEST PUSH1 0x1 PUSH1 0x1 PUSH1 0xA0 SHL SUB AND DUP2 MSTORE PUSH1 0x20 DUP2 ADD SWAP2 SWAP1 SWAP2 MSTORE PUSH1 0x40 ADD PUSH1 0x0 KECCAK256 SLOAD SWAP1 PUSH2 0x31AE JUMP JUMPDEST CALLER PUSH1 0x0 SWAP1 DUP2 MSTORE PUSH1 0x13 PUSH1 0x20 MSTORE PUSH1 0x40 SWAP1 KECCAK256 SSTORE POP POP JUMP JUMPDEST PUSH2 0x14CD PUSH2 0x3531 JUMP JUMPDEST PUSH1 0x27 PUSH1 0x0 SWAP1 SLOAD SWAP1 PUSH2 0x100 EXP SWAP1 DIV PUSH1 0x1 PUSH1 0x1 PUSH1 0xA0 SHL SUB AND PUSH1 0x1 PUSH1 0x1 PUSH1 0xA0 SHL SUB AND PUSH4 0x38AF3EED PUSH1 0x40 MLOAD DUP2 PUSH4 0xFFFFFFFF AND PUSH1 0xE0 SHL DUP2 MSTORE PUSH1 0x4 ADD PUSH1 0x20 PUSH1 0x40 MLOAD DUP1 DUP4 SUB DUP2 DUP7 GAS STATICCALL ISZERO DUP1 ISZERO PUSH2 0x1520 JUMPI RETURNDATASIZE PUSH1 0x0 DUP1 RETURNDATACOPY RETURNDATASIZE PUSH1 0x0 REVERT JUMPDEST POP POP POP POP PUSH1 0x40 MLOAD RETURNDATASIZE PUSH1 0x1F NOT PUSH1 0x1F DUP3 ADD AND DUP3 ADD DUP1 PUSH1 0x40 MSTORE POP DUP2 ADD SWAP1 PUSH2 0x1544 SWAP2 SWAP1 PUSH2 0x5AB0 JUMP JUMPDEST PUSH2 0x154D DUP2 PUSH2 0x358E JUMP JUMPDEST PUSH1 0x27 SLOAD PUSH1 0x0 SWAP1 PUSH1 0x1 PUSH1 0x1 PUSH1 0xA0 SHL SUB AND PUSH4 0xA95606E PUSH2 0x1426 PUSH2 0x3A31 JUMP JUMPDEST PUSH2 0x1596 PUSH1 0x40 MLOAD DUP1 PUSH1 0x80 ADD PUSH1 0x40 MSTORE DUP1 PUSH1 0x0 DUP2 MSTORE PUSH1 0x20 ADD PUSH1 0x0 DUP2 MSTORE PUSH1 0x20 ADD PUSH1 0x0 ISZERO ISZERO DUP2 MSTORE PUSH1 0x20 ADD PUSH1 0x0 DUP2 MSTORE POP SWAP1 JUMP JUMPDEST CALLER PUSH1 0x0 SWAP1 DUP2 MSTORE PUSH1 0x12 PUSH1 0x20 MSTORE PUSH1 0x40 SWAP1 KECCAK256 PUSH1 0x1 ADD SLOAD PUSH2 0x161B JUMPI PUSH1 0x40 MLOAD PUSH3 0x461BCD PUSH1 0xE5 SHL DUP2 MSTORE PUSH1 0x20 PUSH1 0x4 DUP3 ADD MSTORE PUSH1 0x38 PUSH1 0x24 DUP3 ADD MSTORE PUSH32 0x5072697661746553616C653A20596F7520646F6E2774206861766520616E7920 PUSH1 0x44 DUP3 ADD MSTORE PUSH32 0x62616C616E636520666F7220707269766174652073616C650000000000000000 PUSH1 0x64 DUP3 ADD MSTORE PUSH1 0x84 ADD PUSH2 0xFD7 JUMP JUMPDEST POP CALLER PUSH1 0x0 SWAP1 DUP2 MSTORE PUSH1 0x12 PUSH1 0x20 SWAP1 DUP2 MSTORE PUSH1 0x40 SWAP2 DUP3 SWAP1 KECCAK256 DUP3 MLOAD PUSH1 0x80 DUP2 ADD DUP5 MSTORE DUP2 SLOAD DUP2 MSTORE PUSH1 0x1 DUP3 ADD SLOAD SWAP3 DUP2 ADD SWAP3 SWAP1 SWAP3 MSTORE PUSH1 0x2 DUP2 ADD SLOAD PUSH1 0xFF AND ISZERO ISZERO SWAP3 DUP3 ADD SWAP3 SWAP1 SWAP3 MSTORE PUSH1 0x3 SWAP1 SWAP2 ADD SLOAD PUSH1 0x60 DUP3 ADD MSTORE SWAP1 JUMP JUMPDEST PUSH1 0x0 CALLER PUSH2 0x1674 DUP6 DUP3 DUP6 PUSH2 0x3AF1 JUMP JUMPDEST PUSH2 0x167F DUP6 DUP6 DUP6 PUSH2 0x3B83 JUMP JUMPDEST POP PUSH1 0x1 SWAP5 SWAP4 POP POP POP POP JUMP JUMPDEST CALLER PUSH1 0x0 DUP2 DUP2 MSTORE PUSH1 0x14 PUSH1 0x20 SWAP1 DUP2 MSTORE PUSH1 0x40 DUP1 DUP4 KECCAK256 PUSH1 0x1 PUSH1 0x1 PUSH1 0xA0 SHL SUB DUP8 AND DUP5 MSTORE SWAP1 SWAP2 MSTORE DUP2 KECCAK256 SLOAD SWAP1 SWAP2 SWAP1 PUSH2 0x12D4 SWAP1 DUP3 SWAP1 DUP7 SWAP1 PUSH2 0x16C4 SWAP1 DUP8 SWAP1 PUSH2 0x5A7D JUMP JUMPDEST PUSH2 0x33D8 JUMP JUMPDEST PUSH2 0x16D1 PUSH2 0x3531 JUMP JUMPDEST PUSH1 0x2B PUSH1 0x0 SWAP1 SLOAD SWAP1 PUSH2 0x100 EXP SWAP1 DIV PUSH1 0x1 PUSH1 0x1 PUSH1 0xA0 SHL SUB AND PUSH1 0x1 PUSH1 0x1 PUSH1 0xA0 SHL SUB AND PUSH4 0x38AF3EED PUSH1 0x40 MLOAD DUP2 PUSH4 0xFFFFFFFF AND PUSH1 0xE0 SHL DUP2 MSTORE PUSH1 0x4 ADD PUSH1 0x20 PUSH1 0x40 MLOAD DUP1 DUP4 SUB DUP2 DUP7 GAS STATICCALL ISZERO DUP1 ISZERO PUSH2 0x1724 JUMPI RETURNDATASIZE PUSH1 0x0 DUP1 RETURNDATACOPY RETURNDATASIZE PUSH1 0x0 REVERT JUMPDEST POP POP POP POP PUSH1 0x40 MLOAD RETURNDATASIZE PUSH1 0x1F NOT PUSH1 0x1F DUP3 ADD AND DUP3 ADD DUP1 PUSH1 0x40 MSTORE POP DUP2 ADD SWAP1 PUSH2 0x1748 SWAP2 SWAP1 PUSH2 0x5AB0 JUMP JUMPDEST PUSH2 0x1751 DUP2 PUSH2 0x358E JUMP JUMPDEST PUSH1 0x2B SLOAD PUSH1 0x0 SWAP1 PUSH1 0x1 PUSH1 0x1 PUSH1 0xA0 SHL SUB AND PUSH4 0xA95606E PUSH2 0x1426 PUSH2 0x3DE7 JUMP JUMPDEST PUSH1 0x5 SLOAD PUSH1 0x1 PUSH1 0x1 PUSH1 0xA0 SHL SUB AND CALLER EQ PUSH2 0x17B5 JUMPI PUSH1 0x40 MLOAD PUSH3 0x461BCD PUSH1 0xE5 SHL DUP2 MSTORE PUSH1 0x20 PUSH1 0x4 DUP3 ADD DUP2 SWAP1 MSTORE PUSH1 0x24 DUP3 ADD MSTORE PUSH1 0x0 DUP1 MLOAD PUSH1 0x20 PUSH2 0x5B70 DUP4 CODECOPY DUP2 MLOAD SWAP2 MSTORE PUSH1 0x44 DUP3 ADD MSTORE PUSH1 0x64 ADD PUSH2 0xFD7 JUMP JUMPDEST PUSH2 0x17BF DUP3 DUP3 PUSH2 0x423F JUMP JUMPDEST POP POP JUMP JUMPDEST PUSH2 0x17CD CALLER DUP3 PUSH2 0x431E JUMP JUMPDEST POP JUMP JUMPDEST PUSH1 0x5 SLOAD PUSH1 0x1 PUSH1 0x1 PUSH1 0xA0 SHL SUB AND CALLER EQ PUSH2 0x1818 JUMPI PUSH1 0x40 MLOAD PUSH3 0x461BCD PUSH1 0xE5 SHL DUP2 MSTORE PUSH1 0x20 PUSH1 0x4 DUP3 ADD DUP2 SWAP1 MSTORE PUSH1 0x24 DUP3 ADD MSTORE PUSH1 0x0 DUP1 MLOAD PUSH1 0x20 PUSH2 0x5B70 DUP4 CODECOPY DUP2 MLOAD SWAP2 MSTORE PUSH1 0x44 DUP3 ADD MSTORE PUSH1 0x64 ADD PUSH2 0xFD7 JUMP JUMPDEST PUSH1 0x5 DUP2 PUSH1 0xFF AND LT PUSH2 0x186B JUMPI PUSH1 0x40 MLOAD PUSH3 0x461BCD PUSH1 0xE5 SHL DUP2 MSTORE PUSH1 0x20 PUSH1 0x4 DUP3 ADD MSTORE PUSH1 0x15 PUSH1 0x24 DUP3 ADD MSTORE PUSH32 0x54617820466565206D6178696D756D2069732035250000000000000000000000 PUSH1 0x44 DUP3 ADD MSTORE PUSH1 0x64 ADD PUSH2 0xFD7 JUMP JUMPDEST PUSH1 0x1C DUP1 SLOAD PUSH1 0xFF NOT AND PUSH1 0xFF DUP4 AND SWAP1 DUP2 OR SWAP1 SWAP2 SSTORE PUSH1 0x40 MLOAD SWAP1 DUP2 MSTORE CALLER SWAP1 PUSH32 0xDF92943B31FFF67E8447FF9FA8B5E226DDCC5FB34D36CFE120C0F2B96EB8D6F7 SWAP1 PUSH1 0x20 ADD JUMPDEST PUSH1 0x40 MLOAD DUP1 SWAP2 SUB SWAP1 LOG2 POP JUMP JUMPDEST PUSH2 0x18BE PUSH2 0x3531 JUMP JUMPDEST PUSH1 0x29 PUSH1 0x0 SWAP1 SLOAD SWAP1 PUSH2 0x100 EXP SWAP1 DIV PUSH1 0x1 PUSH1 0x1 PUSH1 0xA0 SHL SUB AND PUSH1 0x1 PUSH1 0x1 PUSH1 0xA0 SHL SUB AND PUSH4 0x38AF3EED PUSH1 0x40 MLOAD DUP2 PUSH4 0xFFFFFFFF AND PUSH1 0xE0 SHL DUP2 MSTORE PUSH1 0x4 ADD PUSH1 0x20 PUSH1 0x40 MLOAD DUP1 DUP4 SUB DUP2 DUP7 GAS STATICCALL ISZERO DUP1 ISZERO PUSH2 0x1911 JUMPI RETURNDATASIZE PUSH1 0x0 DUP1 RETURNDATACOPY RETURNDATASIZE PUSH1 0x0 REVERT JUMPDEST POP POP POP POP PUSH1 0x40 MLOAD RETURNDATASIZE PUSH1 0x1F NOT PUSH1 0x1F DUP3 ADD AND DUP3 ADD DUP1 PUSH1 0x40 MSTORE POP DUP2 ADD SWAP1 PUSH2 0x1935 SWAP2 SWAP1 PUSH2 0x5AB0 JUMP JUMPDEST PUSH2 0x193E DUP2 PUSH2 0x358E JUMP JUMPDEST PUSH1 0x29 SLOAD PUSH1 0x0 SWAP1 PUSH1 0x1 PUSH1 0x1 PUSH1 0xA0 SHL SUB AND PUSH4 0xA95606E PUSH2 0x1426 PUSH2 0x3DE7 JUMP JUMPDEST PUSH1 0x1C SLOAD PUSH1 0xFF PUSH2 0x100 SWAP1 SWAP2 DIV AND ISZERO ISZERO PUSH1 0x1 EQ PUSH2 0x19B7 JUMPI PUSH1 0x40 MLOAD PUSH3 0x461BCD PUSH1 0xE5 SHL DUP2 MSTORE PUSH1 0x20 PUSH1 0x4 DUP3 ADD MSTORE PUSH1 0x17 PUSH1 0x24 DUP3 ADD MSTORE PUSH32 0x41697264726F70206E6F74207965742073746172746564000000000000000000 PUSH1 0x44 DUP3 ADD MSTORE PUSH1 0x64 ADD PUSH2 0xFD7 JUMP JUMPDEST PUSH1 0x0 PUSH2 0x19C2 CALLER PUSH2 0x449B JUMP JUMPDEST ADDRESS PUSH1 0x0 SWAP1 DUP2 MSTORE PUSH1 0x13 PUSH1 0x20 MSTORE PUSH1 0x40 SWAP1 KECCAK256 SLOAD SWAP1 SWAP2 POP PUSH2 0x19DF SWAP1 DUP3 PUSH2 0x33CC JUMP JUMPDEST ADDRESS PUSH1 0x0 SWAP1 DUP2 MSTORE PUSH1 0x13 PUSH1 0x20 DUP2 SWAP1 MSTORE PUSH1 0x40 DUP3 KECCAK256 SWAP3 SWAP1 SWAP3 SSTORE PUSH2 0x1A00 SWAP2 DUP4 SWAP2 CALLER PUSH2 0x1491 JUMP JUMPDEST CALLER PUSH1 0x0 SWAP1 DUP2 MSTORE PUSH1 0x13 PUSH1 0x20 MSTORE PUSH1 0x40 SWAP1 KECCAK256 SSTORE POP JUMP JUMPDEST PUSH2 0x1A1B PUSH2 0x31BA JUMP JUMPDEST CALLER PUSH1 0x0 SWAP1 DUP2 MSTORE PUSH1 0xC PUSH1 0x20 MSTORE PUSH1 0x40 SWAP1 KECCAK256 SLOAD PUSH1 0xFF AND ISZERO ISZERO PUSH1 0x1 EQ PUSH2 0x1A7F JUMPI PUSH1 0x40 MLOAD PUSH3 0x461BCD PUSH1 0xE5 SHL DUP2 MSTORE PUSH1 0x20 PUSH1 0x4 DUP3 ADD MSTORE PUSH1 0x13 PUSH1 0x24 DUP3 ADD MSTORE PUSH32 0x596F7520617265206E6F74206120766F74657200000000000000000000000000 PUSH1 0x44 DUP3 ADD MSTORE PUSH1 0x64 ADD PUSH2 0xFD7 JUMP JUMPDEST CALLER PUSH1 0x0 SWAP1 DUP2 MSTORE PUSH1 0xC PUSH1 0x20 SWAP1 DUP2 MSTORE PUSH1 0x40 DUP1 DUP4 KECCAK256 PUSH1 0xA SLOAD DUP5 MSTORE PUSH1 0x1 ADD SWAP1 SWAP2 MSTORE SWAP1 KECCAK256 SLOAD PUSH1 0xFF AND ISZERO PUSH2 0x1AEF JUMPI PUSH1 0x40 MLOAD PUSH3 0x461BCD PUSH1 0xE5 SHL DUP2 MSTORE PUSH1 0x20 PUSH1 0x4 DUP3 ADD MSTORE PUSH1 0x15 PUSH1 0x24 DUP3 ADD MSTORE PUSH32 0x596F75206861766520766F746564206265666F72650000000000000000000000 PUSH1 0x44 DUP3 ADD MSTORE PUSH1 0x64 ADD PUSH2 0xFD7 JUMP JUMPDEST CALLER PUSH1 0x0 SWAP1 DUP2 MSTORE PUSH1 0xC PUSH1 0x20 SWAP1 DUP2 MSTORE PUSH1 0x40 DUP1 DUP4 KECCAK256 PUSH1 0xA DUP1 SLOAD DUP6 MSTORE PUSH1 0x1 SWAP2 DUP3 ADD DUP5 MSTORE DUP3 DUP6 KECCAK256 DUP1 SLOAD PUSH1 0xFF NOT AND DUP4 OR SWAP1 SSTORE SLOAD DUP5 MSTORE PUSH1 0xD SWAP1 SWAP3 MSTORE DUP3 KECCAK256 DUP1 SLOAD SWAP2 SWAP3 SWAP1 SWAP2 PUSH2 0x1077 SWAP1 DUP5 SWAP1 PUSH2 0x5A7D JUMP JUMPDEST CALLER PUSH1 0x0 SWAP1 DUP2 MSTORE PUSH1 0x13 PUSH1 0x20 MSTORE PUSH1 0x40 SWAP1 KECCAK256 SLOAD PUSH2 0x1B50 SWAP1 DUP3 PUSH2 0x33CC JUMP JUMPDEST CALLER PUSH1 0x0 SWAP1 DUP2 MSTORE PUSH1 0x13 PUSH1 0x20 MSTORE PUSH1 0x40 DUP2 KECCAK256 SWAP2 SWAP1 SWAP2 SSTORE PUSH1 0x1B DUP1 SLOAD DUP4 SWAP3 SWAP1 PUSH2 0x1B75 SWAP1 DUP5 SWAP1 PUSH2 0x5A7D JUMP JUMPDEST SWAP1 SWAP2 SSTORE POP POP POP JUMP JUMPDEST PUSH1 0x5 SLOAD PUSH1 0x1 PUSH1 0x1 PUSH1 0xA0 SHL SUB AND CALLER EQ PUSH2 0x1BC5 JUMPI PUSH1 0x40 MLOAD PUSH3 0x461BCD PUSH1 0xE5 SHL DUP2 MSTORE PUSH1 0x20 PUSH1 0x4 DUP3 ADD DUP2 SWAP1 MSTORE PUSH1 0x24 DUP3 ADD MSTORE PUSH1 0x0 DUP1 MLOAD PUSH1 0x20 PUSH2 0x5B70 DUP4 CODECOPY DUP2 MLOAD SWAP2 MSTORE PUSH1 0x44 DUP3 ADD MSTORE PUSH1 0x64 ADD PUSH2 0xFD7 JUMP JUMPDEST PUSH2 0x1BCF PUSH1 0x0 PUSH2 0x45EE JUMP JUMPDEST JUMP JUMPDEST PUSH2 0x1BD9 PUSH2 0x3531 JUMP JUMPDEST PUSH1 0x23 PUSH1 0x0 SWAP1 SLOAD SWAP1 PUSH2 0x100 EXP SWAP1 DIV PUSH1 0x1 PUSH1 0x1 PUSH1 0xA0 SHL SUB AND PUSH1 0x1 PUSH1 0x1 PUSH1 0xA0 SHL SUB AND PUSH4 0x38AF3EED PUSH1 0x40 MLOAD DUP2 PUSH4 0xFFFFFFFF AND PUSH1 0xE0 SHL DUP2 MSTORE PUSH1 0x4 ADD PUSH1 0x20 PUSH1 0x40 MLOAD DUP1 DUP4 SUB DUP2 DUP7 GAS STATICCALL ISZERO DUP1 ISZERO PUSH2 0x1C2C JUMPI RETURNDATASIZE PUSH1 0x0 DUP1 RETURNDATACOPY RETURNDATASIZE PUSH1 0x0 REVERT JUMPDEST POP POP POP POP PUSH1 0x40 MLOAD RETURNDATASIZE PUSH1 0x1F NOT PUSH1 0x1F DUP3 ADD AND DUP3 ADD DUP1 PUSH1 0x40 MSTORE POP DUP2 ADD SWAP1 PUSH2 0x1C50 SWAP2 SWAP1 PUSH2 0x5AB0 JUMP JUMPDEST PUSH2 0x1C59 DUP2 PUSH2 0x358E JUMP JUMPDEST PUSH1 0x23 SLOAD PUSH1 0x0 SWAP1 PUSH1 0x1 PUSH1 0x1 PUSH1 0xA0 SHL SUB AND PUSH4 0xA95606E PUSH2 0x1426 PUSH2 0x35E6 JUMP JUMPDEST PUSH2 0x1C80 DUP3 CALLER DUP4 PUSH2 0x3AF1 JUMP JUMPDEST PUSH2 0x17BF DUP3 DUP3 PUSH2 0x431E JUMP JUMPDEST DUP1 PUSH3 0x278D00 EQ DUP1 PUSH2 0x1C9D JUMPI POP DUP1 PUSH3 0x76A700 EQ JUMPDEST DUP1 PUSH2 0x1CAA JUMPI POP DUP1 PUSH3 0xED4E00 EQ JUMPDEST DUP1 PUSH2 0x1CB8 JUMPI POP DUP1 PUSH4 0x1E13380 EQ JUMPDEST PUSH2 0x1D04 JUMPI PUSH1 0x40 MLOAD PUSH3 0x461BCD PUSH1 0xE5 SHL DUP2 MSTORE PUSH1 0x20 PUSH1 0x4 DUP3 ADD MSTORE PUSH1 0x1B PUSH1 0x24 DUP3 ADD MSTORE PUSH32 0x5374616B696E67206F7074696F6E20646F65736E742065786973740000000000 PUSH1 0x44 DUP3 ADD MSTORE PUSH1 0x64 ADD PUSH2 0xFD7 JUMP JUMPDEST PUSH2 0x1D0E CALLER DUP4 PUSH2 0x431E JUMP JUMPDEST PUSH2 0x1D2D CALLER DUP4 DUP4 PUSH1 0x18 PUSH1 0x0 DUP7 DUP2 MSTORE PUSH1 0x20 ADD SWAP1 DUP2 MSTORE PUSH1 0x20 ADD PUSH1 0x0 KECCAK256 SLOAD PUSH2 0x4640 JUMP JUMPDEST ADDRESS PUSH1 0x0 SWAP1 DUP2 MSTORE PUSH1 0x13 PUSH1 0x20 MSTORE PUSH1 0x40 SWAP1 KECCAK256 SLOAD PUSH2 0x1D47 SWAP1 DUP4 PUSH2 0x31AE JUMP JUMPDEST ADDRESS PUSH1 0x0 SWAP1 DUP2 MSTORE PUSH1 0x13 PUSH1 0x20 MSTORE PUSH1 0x40 SWAP1 KECCAK256 SSTORE POP POP JUMP JUMPDEST PUSH2 0x1D63 PUSH2 0x3531 JUMP JUMPDEST PUSH1 0x24 PUSH1 0x0 SWAP1 SLOAD SWAP1 PUSH2 0x100 EXP SWAP1 DIV PUSH1 0x1 PUSH1 0x1 PUSH1 0xA0 SHL SUB AND PUSH1 0x1 PUSH1 0x1 PUSH1 0xA0 SHL SUB AND PUSH4 0x38AF3EED PUSH1 0x40 MLOAD DUP2 PUSH4 0xFFFFFFFF AND PUSH1 0xE0 SHL DUP2 MSTORE PUSH1 0x4 ADD PUSH1 0x20 PUSH1 0x40 MLOAD DUP1 DUP4 SUB DUP2 DUP7 GAS STATICCALL ISZERO DUP1 ISZERO PUSH2 0x1DB6 JUMPI RETURNDATASIZE PUSH1 0x0 DUP1 RETURNDATACOPY RETURNDATASIZE PUSH1 0x0 REVERT JUMPDEST POP POP POP POP PUSH1 0x40 MLOAD RETURNDATASIZE PUSH1 0x1F NOT PUSH1 0x1F DUP3 ADD AND DUP3 ADD DUP1 PUSH1 0x40 MSTORE POP DUP2 ADD SWAP1 PUSH2 0x1DDA SWAP2 SWAP1 PUSH2 0x5AB0 JUMP JUMPDEST PUSH2 0x1DE3 DUP2 PUSH2 0x358E JUMP JUMPDEST PUSH1 0x24 SLOAD PUSH1 0x0 SWAP1 PUSH1 0x1 PUSH1 0x1 PUSH1 0xA0 SHL SUB AND PUSH4 0xA95606E PUSH2 0x1426 PUSH2 0x35E6 JUMP JUMPDEST PUSH2 0x1E15 PUSH2 0x1E0B CALLER PUSH2 0x4835 JUMP JUMPDEST PUSH1 0x13 PUSH1 0x0 CALLER PUSH2 0x1491 JUMP JUMPDEST CALLER PUSH1 0x0 SWAP1 DUP2 MSTORE PUSH1 0x13 PUSH1 0x20 MSTORE PUSH1 0x40 SWAP1 KECCAK256 SSTORE JUMP JUMPDEST PUSH2 0x1E2F PUSH2 0x3531 JUMP JUMPDEST PUSH1 0x26 PUSH1 0x0 SWAP1 SLOAD SWAP1 PUSH2 0x100 EXP SWAP1 DIV PUSH1 0x1 PUSH1 0x1 PUSH1 0xA0 SHL SUB AND PUSH1 0x1 PUSH1 0x1 PUSH1 0xA0 SHL SUB AND PUSH4 0x38AF3EED PUSH1 0x40 MLOAD DUP2 PUSH4 0xFFFFFFFF AND PUSH1 0xE0 SHL DUP2 MSTORE PUSH1 0x4 ADD PUSH1 0x20 PUSH1 0x40 MLOAD DUP1 DUP4 SUB DUP2 DUP7 GAS STATICCALL ISZERO DUP1 ISZERO PUSH2 0x1E82 JUMPI RETURNDATASIZE PUSH1 0x0 DUP1 RETURNDATACOPY RETURNDATASIZE PUSH1 0x0 REVERT JUMPDEST POP POP POP POP PUSH1 0x40 MLOAD RETURNDATASIZE PUSH1 0x1F NOT PUSH1 0x1F DUP3 ADD AND DUP3 ADD DUP1 PUSH1 0x40 MSTORE POP DUP2 ADD SWAP1 PUSH2 0x1EA6 SWAP2 SWAP1 PUSH2 0x5AB0 JUMP JUMPDEST PUSH2 0x1EAF DUP2 PUSH2 0x358E JUMP JUMPDEST PUSH1 0x26 SLOAD PUSH1 0x0 SWAP1 PUSH1 0x1 PUSH1 0x1 PUSH1 0xA0 SHL SUB AND PUSH4 0xA95606E PUSH2 0x1426 PUSH2 0x3A31 JUMP JUMPDEST PUSH2 0x1ED3 PUSH2 0x3531 JUMP JUMPDEST PUSH1 0x28 PUSH1 0x0 SWAP1 SLOAD SWAP1 PUSH2 0x100 EXP SWAP1 DIV PUSH1 0x1 PUSH1 0x1 PUSH1 0xA0 SHL SUB AND PUSH1 0x1 PUSH1 0x1 PUSH1 0xA0 SHL SUB AND PUSH4 0x38AF3EED PUSH1 0x40 MLOAD DUP2 PUSH4 0xFFFFFFFF AND PUSH1 0xE0 SHL DUP2 MSTORE PUSH1 0x4 ADD PUSH1 0x20 PUSH1 0x40 MLOAD DUP1 DUP4 SUB DUP2 DUP7 GAS STATICCALL ISZERO DUP1 ISZERO PUSH2 0x1F26 JUMPI RETURNDATASIZE PUSH1 0x0 DUP1 RETURNDATACOPY RETURNDATASIZE PUSH1 0x0 REVERT JUMPDEST POP POP POP POP PUSH1 0x40 MLOAD RETURNDATASIZE PUSH1 0x1F NOT PUSH1 0x1F DUP3 ADD AND DUP3 ADD DUP1 PUSH1 0x40 MSTORE POP DUP2 ADD SWAP1 PUSH2 0x1F4A SWAP2 SWAP1 PUSH2 0x5AB0 JUMP JUMPDEST PUSH2 0x1F53 DUP2 PUSH2 0x358E JUMP JUMPDEST PUSH1 0x28 SLOAD PUSH1 0x0 SWAP1 PUSH1 0x1 PUSH1 0x1 PUSH1 0xA0 SHL SUB AND PUSH4 0xA95606E PUSH2 0x1426 PUSH2 0x3A31 JUMP JUMPDEST PUSH1 0x5 SLOAD PUSH1 0x1 PUSH1 0x1 PUSH1 0xA0 SHL SUB AND CALLER EQ PUSH2 0x1FB7 JUMPI PUSH1 0x40 MLOAD PUSH3 0x461BCD PUSH1 0xE5 SHL DUP2 MSTORE PUSH1 0x20 PUSH1 0x4 DUP3 ADD DUP2 SWAP1 MSTORE PUSH1 0x24 DUP3 ADD MSTORE PUSH1 0x0 DUP1 MLOAD PUSH1 0x20 PUSH2 0x5B70 DUP4 CODECOPY DUP2 MLOAD SWAP2 MSTORE PUSH1 0x44 DUP3 ADD MSTORE PUSH1 0x64 ADD PUSH2 0xFD7 JUMP JUMPDEST ADDRESS PUSH1 0x0 SWAP1 DUP2 MSTORE PUSH1 0x13 PUSH1 0x20 MSTORE PUSH1 0x40 SWAP1 KECCAK256 SLOAD PUSH2 0x1FD1 SWAP1 DUP3 PUSH2 0x33CC JUMP JUMPDEST ADDRESS PUSH1 0x0 SWAP1 DUP2 MSTORE PUSH1 0x13 PUSH1 0x20 MSTORE PUSH1 0x40 SWAP1 KECCAK256 SSTORE PUSH1 0x15 SLOAD PUSH2 0x1FEE SWAP1 DUP3 PUSH2 0x33CC JUMP JUMPDEST PUSH1 0x15 SSTORE PUSH1 0x40 MLOAD DUP2 DUP2 MSTORE PUSH1 0x0 SWAP1 ADDRESS SWAP1 PUSH32 0xDDF252AD1BE2C89B69C2B068FC378DAA952BA7F163C4A11628F55A4DF523B3EF SWAP1 PUSH1 0x20 ADD PUSH2 0x1377 JUMP JUMPDEST PUSH1 0x5 SLOAD PUSH1 0x1 PUSH1 0x1 PUSH1 0xA0 SHL SUB AND CALLER EQ PUSH2 0x206E JUMPI PUSH1 0x40 MLOAD PUSH3 0x461BCD PUSH1 0xE5 SHL DUP2 MSTORE PUSH1 0x20 PUSH1 0x4 DUP3 ADD DUP2 SWAP1 MSTORE PUSH1 0x24 DUP3 ADD MSTORE PUSH1 0x0 DUP1 MLOAD PUSH1 0x20 PUSH2 0x5B70 DUP4 CODECOPY DUP2 MLOAD SWAP2 MSTORE PUSH1 0x44 DUP3 ADD MSTORE PUSH1 0x64 ADD PUSH2 0xFD7 JUMP JUMPDEST PUSH2 0x2077 DUP2 PUSH2 0x498F JUMP JUMPDEST PUSH1 0x40 MLOAD DUP2 DUP2 MSTORE CALLER SWAP1 PUSH32 0xE4D1041AB63832A18AE323C0781239637B799CCD1FFA03B0CC4C0916F14834D7 SWAP1 PUSH1 0x20 ADD PUSH2 0x18AB JUMP JUMPDEST PUSH1 0x5 SLOAD PUSH1 0x1 PUSH1 0x1 PUSH1 0xA0 SHL SUB AND CALLER EQ PUSH2 0x20F1 JUMPI PUSH1 0x40 MLOAD PUSH3 0x461BCD PUSH1 0xE5 SHL DUP2 MSTORE PUSH1 0x20 PUSH1 0x4 DUP3 ADD DUP2 SWAP1 MSTORE PUSH1 0x24 DUP3 ADD MSTORE PUSH1 0x0 DUP1 MLOAD PUSH1 0x20 PUSH2 0x5B70 DUP4 CODECOPY DUP2 MLOAD SWAP2 MSTORE PUSH1 0x44 DUP3 ADD MSTORE PUSH1 0x64 ADD PUSH2 0xFD7 JUMP JUMPDEST PUSH1 0x0 PUSH2 0x20FB PUSH2 0x4A41 JUMP JUMPDEST SWAP1 POP PUSH1 0x1 DUP2 ISZERO ISZERO EQ ISZERO PUSH2 0x2155 JUMPI PUSH1 0x1B SLOAD PUSH2 0x2115 SWAP1 DUP4 PUSH2 0x33CC JUMP JUMPDEST PUSH1 0x1B SSTORE PUSH1 0x1 PUSH1 0x1 PUSH1 0xA0 SHL SUB DUP4 AND PUSH1 0x0 SWAP1 DUP2 MSTORE PUSH1 0x13 PUSH1 0x20 MSTORE PUSH1 0x40 SWAP1 KECCAK256 SLOAD PUSH2 0x213B SWAP1 DUP4 PUSH2 0x31AE JUMP JUMPDEST PUSH1 0x1 PUSH1 0x1 PUSH1 0xA0 SHL SUB DUP5 AND PUSH1 0x0 SWAP1 DUP2 MSTORE PUSH1 0x13 PUSH1 0x20 MSTORE PUSH1 0x40 SWAP1 KECCAK256 SSTORE JUMPDEST PUSH2 0x215D PUSH2 0x4ADB JUMP JUMPDEST POP POP POP JUMP JUMPDEST PUSH2 0x216A PUSH2 0x3531 JUMP JUMPDEST PUSH1 0x2A PUSH1 0x0 SWAP1 SLOAD SWAP1 PUSH2 0x100 EXP SWAP1 DIV PUSH1 0x1 PUSH1 0x1 PUSH1 0xA0 SHL SUB AND PUSH1 0x1 PUSH1 0x1 PUSH1 0xA0 SHL SUB AND PUSH4 0x38AF3EED PUSH1 0x40 MLOAD DUP2 PUSH4 0xFFFFFFFF AND PUSH1 0xE0 SHL DUP2 MSTORE PUSH1 0x4 ADD PUSH1 0x20 PUSH1 0x40 MLOAD DUP1 DUP4 SUB DUP2 DUP7 GAS STATICCALL ISZERO DUP1 ISZERO PUSH2 0x21BD JUMPI RETURNDATASIZE PUSH1 0x0 DUP1 RETURNDATACOPY RETURNDATASIZE PUSH1 0x0 REVERT JUMPDEST POP POP POP POP PUSH1 0x40 MLOAD RETURNDATASIZE PUSH1 0x1F NOT PUSH1 0x1F DUP3 ADD AND DUP3 ADD DUP1 PUSH1 0x40 MSTORE POP DUP2 ADD SWAP1 PUSH2 0x21E1 SWAP2 SWAP1 PUSH2 0x5AB0 JUMP JUMPDEST PUSH2 0x21EA DUP2 PUSH2 0x358E JUMP JUMPDEST PUSH1 0x2A SLOAD PUSH1 0x0 SWAP1 PUSH1 0x1 PUSH1 0x1 PUSH1 0xA0 SHL SUB AND PUSH4 0xA95606E PUSH2 0x1426 PUSH2 0x3DE7 JUMP JUMPDEST PUSH2 0x220E PUSH2 0x3531 JUMP JUMPDEST PUSH1 0x22 PUSH1 0x0 SWAP1 SLOAD SWAP1 PUSH2 0x100 EXP SWAP1 DIV PUSH1 0x1 PUSH1 0x1 PUSH1 0xA0 SHL SUB AND PUSH1 0x1 PUSH1 0x1 PUSH1 0xA0 SHL SUB AND PUSH4 0x38AF3EED PUSH1 0x40 MLOAD DUP2 PUSH4 0xFFFFFFFF AND PUSH1 0xE0 SHL DUP2 MSTORE PUSH1 0x4 ADD PUSH1 0x20 PUSH1 0x40 MLOAD DUP1 DUP4 SUB DUP2 DUP7 GAS STATICCALL ISZERO DUP1 ISZERO PUSH2 0x2261 JUMPI RETURNDATASIZE PUSH1 0x0 DUP1 RETURNDATACOPY RETURNDATASIZE PUSH1 0x0 REVERT JUMPDEST POP POP POP POP PUSH1 0x40 MLOAD RETURNDATASIZE PUSH1 0x1F NOT PUSH1 0x1F DUP3 ADD AND DUP3 ADD DUP1 PUSH1 0x40 MSTORE POP DUP2 ADD SWAP1 PUSH2 0x2285 SWAP2 SWAP1 PUSH2 0x5AB0 JUMP JUMPDEST PUSH2 0x228E DUP2 PUSH2 0x358E JUMP JUMPDEST PUSH1 0x22 SLOAD PUSH1 0x0 SWAP1 PUSH1 0x1 PUSH1 0x1 PUSH1 0xA0 SHL SUB AND PUSH4 0xA95606E PUSH2 0x1426 PUSH2 0x4AEF JUMP JUMPDEST PUSH1 0x60 PUSH1 0x17 DUP1 SLOAD PUSH2 0xEEC SWAP1 PUSH2 0x59FF JUMP JUMPDEST PUSH1 0x5 SLOAD PUSH1 0x1 PUSH1 0x1 PUSH1 0xA0 SHL SUB AND CALLER EQ PUSH2 0x2301 JUMPI PUSH1 0x40 MLOAD PUSH3 0x461BCD PUSH1 0xE5 SHL DUP2 MSTORE PUSH1 0x20 PUSH1 0x4 DUP3 ADD DUP2 SWAP1 MSTORE PUSH1 0x24 DUP3 ADD MSTORE PUSH1 0x0 DUP1 MLOAD PUSH1 0x20 PUSH2 0x5B70 DUP4 CODECOPY DUP2 MLOAD SWAP2 MSTORE PUSH1 0x44 DUP3 ADD MSTORE PUSH1 0x64 ADD PUSH2 0xFD7 JUMP JUMPDEST PUSH1 0x1C SLOAD PUSH3 0x10000 SWAP1 DIV PUSH1 0xFF AND ISZERO DUP1 ISZERO PUSH2 0x2324 JUMPI POP PUSH1 0x1C SLOAD PUSH4 0x1000000 SWAP1 DIV PUSH1 0xFF AND ISZERO JUMPDEST PUSH2 0x2370 JUMPI PUSH1 0x40 MLOAD PUSH3 0x461BCD PUSH1 0xE5 SHL DUP2 MSTORE PUSH1 0x20 PUSH1 0x4 DUP3 ADD MSTORE PUSH1 0x15 PUSH1 0x24 DUP3 ADD MSTORE PUSH32 0x4E6F7468696E6720746F20696E697469616C697A650000000000000000000000 PUSH1 0x44 DUP3 ADD MSTORE PUSH1 0x64 ADD PUSH2 0xFD7 JUMP JUMPDEST PUSH1 0x1C DUP1 SLOAD PUSH3 0xFF0000 NOT AND PUSH3 0x10000 OR SWAP1 SSTORE PUSH1 0x22 SLOAD PUSH1 0x40 DUP1 MLOAD PUSH32 0xC8CCA41E00000000000000000000000000000000000000000000000000000000 DUP2 MSTORE SWAP1 MLOAD PUSH1 0x1 PUSH1 0x1 PUSH1 0xA0 SHL SUB SWAP1 SWAP3 AND SWAP2 PUSH4 0xC8CCA41E SWAP2 PUSH1 0x4 DUP1 DUP3 ADD SWAP3 PUSH1 0x0 SWAP3 SWAP1 SWAP2 SWAP1 DUP3 SWAP1 SUB ADD DUP2 DUP4 DUP8 DUP1 EXTCODESIZE ISZERO DUP1 ISZERO PUSH2 0x23E0 JUMPI PUSH1 0x0 DUP1 REVERT JUMPDEST POP GAS CALL ISZERO DUP1 ISZERO PUSH2 0x23F4 JUMPI RETURNDATASIZE PUSH1 0x0 DUP1 RETURNDATACOPY RETURNDATASIZE PUSH1 0x0 REVERT JUMPDEST POP POP POP POP PUSH1 0x23 PUSH1 0x0 SWAP1 SLOAD SWAP1 PUSH2 0x100 EXP SWAP1 DIV PUSH1 0x1 PUSH1 0x1 PUSH1 0xA0 SHL SUB AND PUSH1 0x1 PUSH1 0x1 PUSH1 0xA0 SHL SUB AND PUSH4 0xC8CCA41E PUSH1 0x40 MLOAD DUP2 PUSH4 0xFFFFFFFF AND PUSH1 0xE0 SHL DUP2 MSTORE PUSH1 0x4 ADD PUSH1 0x0 PUSH1 0x40 MLOAD DUP1 DUP4 SUB DUP2 PUSH1 0x0 DUP8 DUP1 EXTCODESIZE ISZERO DUP1 ISZERO PUSH2 0x2448 JUMPI PUSH1 0x0 DUP1 REVERT JUMPDEST POP GAS CALL ISZERO DUP1 ISZERO PUSH2 0x245C JUMPI RETURNDATASIZE PUSH1 0x0 DUP1 RETURNDATACOPY RETURNDATASIZE PUSH1 0x0 REVERT JUMPDEST POP POP POP POP PUSH1 0x24 PUSH1 0x0 SWAP1 SLOAD SWAP1 PUSH2 0x100 EXP SWAP1 DIV PUSH1 0x1 PUSH1 0x1 PUSH1 0xA0 SHL SUB AND PUSH1 0x1 PUSH1 0x1 PUSH1 0xA0 SHL SUB AND PUSH4 0xC8CCA41E PUSH1 0x40 MLOAD DUP2 PUSH4 0xFFFFFFFF AND PUSH1 0xE0 SHL DUP2 MSTORE PUSH1 0x4 ADD PUSH1 0x0 PUSH1 0x40 MLOAD DUP1 DUP4 SUB DUP2 PUSH1 0x0 DUP8 DUP1 EXTCODESIZE ISZERO DUP1 ISZERO PUSH2 0x24B0 JUMPI PUSH1 0x0 DUP1 REVERT JUMPDEST POP GAS CALL ISZERO DUP1 ISZERO PUSH2 0x24C4 JUMPI RETURNDATASIZE PUSH1 0x0 DUP1 RETURNDATACOPY RETURNDATASIZE PUSH1 0x0 REVERT JUMPDEST POP POP POP POP PUSH1 0x25 PUSH1 0x0 SWAP1 SLOAD SWAP1 PUSH2 0x100 EXP SWAP1 DIV PUSH1 0x1 PUSH1 0x1 PUSH1 0xA0 SHL SUB AND PUSH1 0x1 PUSH1 0x1 PUSH1 0xA0 SHL SUB AND PUSH4 0xC8CCA41E PUSH1 0x40 MLOAD DUP2 PUSH4 0xFFFFFFFF AND PUSH1 0xE0 SHL DUP2 MSTORE PUSH1 0x4 ADD PUSH1 0x0 PUSH1 0x40 MLOAD DUP1 DUP4 SUB DUP2 PUSH1 0x0 DUP8 DUP1 EXTCODESIZE ISZERO DUP1 ISZERO PUSH2 0x2518 JUMPI PUSH1 0x0 DUP1 REVERT JUMPDEST POP GAS CALL ISZERO DUP1 ISZERO PUSH2 0x252C JUMPI RETURNDATASIZE PUSH1 0x0 DUP1 RETURNDATACOPY RETURNDATASIZE PUSH1 0x0 REVERT JUMPDEST POP POP POP POP PUSH1 0x26 PUSH1 0x0 SWAP1 SLOAD SWAP1 PUSH2 0x100 EXP SWAP1 DIV PUSH1 0x1 PUSH1 0x1 PUSH1 0xA0 SHL SUB AND PUSH1 0x1 PUSH1 0x1 PUSH1 0xA0 SHL SUB AND PUSH4 0xC8CCA41E PUSH1 0x40 MLOAD DUP2 PUSH4 0xFFFFFFFF AND PUSH1 0xE0 SHL DUP2 MSTORE PUSH1 0x4 ADD PUSH1 0x0 PUSH1 0x40 MLOAD DUP1 DUP4 SUB DUP2 PUSH1 0x0 DUP8 DUP1 EXTCODESIZE ISZERO DUP1 ISZERO PUSH2 0x2580 JUMPI PUSH1 0x0 DUP1 REVERT JUMPDEST POP GAS CALL ISZERO DUP1 ISZERO PUSH2 0x2594 JUMPI RETURNDATASIZE PUSH1 0x0 DUP1 RETURNDATACOPY RETURNDATASIZE PUSH1 0x0 REVERT JUMPDEST POP POP POP POP PUSH1 0x27 PUSH1 0x0 SWAP1 SLOAD SWAP1 PUSH2 0x100 EXP SWAP1 DIV PUSH1 0x1 PUSH1 0x1 PUSH1 0xA0 SHL SUB AND PUSH1 0x1 PUSH1 0x1 PUSH1 0xA0 SHL SUB AND PUSH4 0xC8CCA41E PUSH1 0x40 MLOAD DUP2 PUSH4 0xFFFFFFFF AND PUSH1 0xE0 SHL DUP2 MSTORE PUSH1 0x4 ADD PUSH1 0x0 PUSH1 0x40 MLOAD DUP1 DUP4 SUB DUP2 PUSH1 0x0 DUP8 DUP1 EXTCODESIZE ISZERO DUP1 ISZERO PUSH2 0x25E8 JUMPI PUSH1 0x0 DUP1 REVERT JUMPDEST POP GAS CALL ISZERO DUP1 ISZERO PUSH2 0x25FC JUMPI RETURNDATASIZE PUSH1 0x0 DUP1 RETURNDATACOPY RETURNDATASIZE PUSH1 0x0 REVERT JUMPDEST POP POP POP POP PUSH1 0x28 PUSH1 0x0 SWAP1 SLOAD SWAP1 PUSH2 0x100 EXP SWAP1 DIV PUSH1 0x1 PUSH1 0x1 PUSH1 0xA0 SHL SUB AND PUSH1 0x1 PUSH1 0x1 PUSH1 0xA0 SHL SUB AND PUSH4 0xC8CCA41E PUSH1 0x40 MLOAD DUP2 PUSH4 0xFFFFFFFF AND PUSH1 0xE0 SHL DUP2 MSTORE PUSH1 0x4 ADD PUSH1 0x0 PUSH1 0x40 MLOAD DUP1 DUP4 SUB DUP2 PUSH1 0x0 DUP8 DUP1 EXTCODESIZE ISZERO DUP1 ISZERO PUSH2 0x2650 JUMPI PUSH1 0x0 DUP1 REVERT JUMPDEST POP GAS CALL ISZERO DUP1 ISZERO PUSH2 0x2664 JUMPI RETURNDATASIZE PUSH1 0x0 DUP1 RETURNDATACOPY RETURNDATASIZE PUSH1 0x0 REVERT JUMPDEST POP POP POP POP PUSH1 0x29 PUSH1 0x0 SWAP1 SLOAD SWAP1 PUSH2 0x100 EXP SWAP1 DIV PUSH1 0x1 PUSH1 0x1 PUSH1 0xA0 SHL SUB AND PUSH1 0x1 PUSH1 0x1 PUSH1 0xA0 SHL SUB AND PUSH4 0xC8CCA41E PUSH1 0x40 MLOAD DUP2 PUSH4 0xFFFFFFFF AND PUSH1 0xE0 SHL DUP2 MSTORE PUSH1 0x4 ADD PUSH1 0x0 PUSH1 0x40 MLOAD DUP1 DUP4 SUB DUP2 PUSH1 0x0 DUP8 DUP1 EXTCODESIZE ISZERO DUP1 ISZERO PUSH2 0x26B8 JUMPI PUSH1 0x0 DUP1 REVERT JUMPDEST POP GAS CALL ISZERO DUP1 ISZERO PUSH2 0x26CC JUMPI RETURNDATASIZE PUSH1 0x0 DUP1 RETURNDATACOPY RETURNDATASIZE PUSH1 0x0 REVERT JUMPDEST POP POP POP POP PUSH1 0x2A PUSH1 0x0 SWAP1 SLOAD SWAP1 PUSH2 0x100 EXP SWAP1 DIV PUSH1 0x1 PUSH1 0x1 PUSH1 0xA0 SHL SUB AND PUSH1 0x1 PUSH1 0x1 PUSH1 0xA0 SHL SUB AND PUSH4 0xC8CCA41E PUSH1 0x40 MLOAD DUP2 PUSH4 0xFFFFFFFF AND PUSH1 0xE0 SHL DUP2 MSTORE PUSH1 0x4 ADD PUSH1 0x0 PUSH1 0x40 MLOAD DUP1 DUP4 SUB DUP2 PUSH1 0x0 DUP8 DUP1 EXTCODESIZE ISZERO DUP1 ISZERO PUSH2 0x2720 JUMPI PUSH1 0x0 DUP1 REVERT JUMPDEST POP GAS CALL ISZERO DUP1 ISZERO PUSH2 0x2734 JUMPI RETURNDATASIZE PUSH1 0x0 DUP1 RETURNDATACOPY RETURNDATASIZE PUSH1 0x0 REVERT JUMPDEST POP POP POP POP PUSH1 0x2B PUSH1 0x0 SWAP1 SLOAD SWAP1 PUSH2 0x100 EXP SWAP1 DIV PUSH1 0x1 PUSH1 0x1 PUSH1 0xA0 SHL SUB AND PUSH1 0x1 PUSH1 0x1 PUSH1 0xA0 SHL SUB AND PUSH4 0xC8CCA41E PUSH1 0x40 MLOAD DUP2 PUSH4 0xFFFFFFFF AND PUSH1 0xE0 SHL DUP2 MSTORE PUSH1 0x4 ADD PUSH1 0x0 PUSH1 0x40 MLOAD DUP1 DUP4 SUB DUP2 PUSH1 0x0 DUP8 DUP1 EXTCODESIZE ISZERO DUP1 ISZERO PUSH2 0x2788 JUMPI PUSH1 0x0 DUP1 REVERT JUMPDEST POP GAS CALL ISZERO DUP1 ISZERO PUSH2 0x279C JUMPI RETURNDATASIZE PUSH1 0x0 DUP1 RETURNDATACOPY RETURNDATASIZE PUSH1 0x0 REVERT JUMPDEST POP POP POP POP PUSH2 0x27A7 CALLER SWAP1 JUMP JUMPDEST PUSH1 0x1 PUSH1 0x1 PUSH1 0xA0 SHL SUB AND PUSH32 0x72E04AFC383D9AB428814E808CD65ABB27C66B5FA85CC230B4CDA3E36B436C98 PUSH1 0x40 MLOAD PUSH1 0x40 MLOAD DUP1 SWAP2 SUB SWAP1 LOG2 PUSH1 0x1C DUP1 SLOAD PUSH4 0xFF000000 NOT AND PUSH4 0x1000000 OR SWAP1 SSTORE PUSH2 0x27F8 TIMESTAMP PUSH1 0x11 SSTORE JUMP JUMPDEST PUSH1 0x40 MLOAD CALLER SWAP1 PUSH32 0x166F0287F5E28D35EC474DA4C920A3E6F47F0D7C8833B963DD8367F68DD377CD SWAP1 PUSH1 0x0 SWAP1 LOG2 PUSH1 0x1C DUP1 SLOAD PUSH2 0xFF00 NOT AND PUSH2 0x100 OR SWAP1 SSTORE PUSH2 0x283B TIMESTAMP PUSH1 0x8 SSTORE JUMP JUMPDEST PUSH1 0x1C SLOAD PUSH1 0x40 MLOAD PUSH2 0x100 SWAP1 SWAP2 DIV PUSH1 0xFF AND ISZERO ISZERO DUP2 MSTORE CALLER SWAP1 PUSH32 0xE596A4FD4BA2E7F54093D98B96267C6B0DBAE1E317BED8123D9FBC868C028377 SWAP1 PUSH1 0x20 ADD PUSH1 0x40 MLOAD DUP1 SWAP2 SUB SWAP1 LOG2 JUMP JUMPDEST PUSH1 0x5 SLOAD PUSH1 0x1 PUSH1 0x1 PUSH1 0xA0 SHL SUB AND CALLER EQ PUSH2 0x28C7 JUMPI PUSH1 0x40 MLOAD PUSH3 0x461BCD PUSH1 0xE5 SHL DUP2 MSTORE PUSH1 0x20 PUSH1 0x4 DUP3 ADD DUP2 SWAP1 MSTORE PUSH1 0x24 DUP3 ADD MSTORE PUSH1 0x0 DUP1 MLOAD PUSH1 0x20 PUSH2 0x5B70 DUP4 CODECOPY DUP2 MLOAD SWAP2 MSTORE PUSH1 0x44 DUP3 ADD MSTORE PUSH1 0x64 ADD PUSH2 0xFD7 JUMP JUMPDEST PUSH2 0x17CD DUP2 PUSH2 0x4E8B JUMP JUMPDEST PUSH1 0x5 SLOAD PUSH1 0x1 PUSH1 0x1 PUSH1 0xA0 SHL SUB AND CALLER EQ PUSH2 0x2918 JUMPI PUSH1 0x40 MLOAD PUSH3 0x461BCD PUSH1 0xE5 SHL DUP2 MSTORE PUSH1 0x20 PUSH1 0x4 DUP3 ADD DUP2 SWAP1 MSTORE PUSH1 0x24 DUP3 ADD MSTORE PUSH1 0x0 DUP1 MLOAD PUSH1 0x20 PUSH2 0x5B70 DUP4 CODECOPY DUP2 MLOAD SWAP2 MSTORE PUSH1 0x44 DUP3 ADD MSTORE PUSH1 0x64 ADD PUSH2 0xFD7 JUMP JUMPDEST PUSH1 0x1C SLOAD PUSH1 0x0 SWAP1 PUSH4 0x1000000 SWAP1 DIV PUSH1 0xFF AND ISZERO ISZERO PUSH1 0x1 EQ PUSH2 0x2979 JUMPI PUSH1 0x40 MLOAD PUSH3 0x461BCD PUSH1 0xE5 SHL DUP2 MSTORE PUSH1 0x20 PUSH1 0x4 DUP3 ADD MSTORE PUSH1 0x1C PUSH1 0x24 DUP3 ADD MSTORE PUSH32 0x507269766174652053616C65206E6F7420796574207374617274656400000000 PUSH1 0x44 DUP3 ADD MSTORE PUSH1 0x64 ADD PUSH2 0xFD7 JUMP JUMPDEST DUP2 PUSH2 0x29C6 JUMPI PUSH1 0x40 MLOAD PUSH3 0x461BCD PUSH1 0xE5 SHL DUP2 MSTORE PUSH1 0x20 PUSH1 0x4 DUP3 ADD MSTORE PUSH1 0x11 PUSH1 0x24 DUP3 ADD MSTORE PUSH32 0x4E6F7468696E6720746F2064656C657465000000000000000000000000000000 PUSH1 0x44 DUP3 ADD MSTORE PUSH1 0x64 ADD PUSH2 0xFD7 JUMP JUMPDEST PUSH1 0x0 JUMPDEST DUP3 DUP2 LT ISZERO PUSH2 0x2A89 JUMPI PUSH1 0x0 PUSH2 0x2A02 DUP6 DUP6 DUP5 DUP2 DUP2 LT PUSH2 0x29E8 JUMPI PUSH2 0x29E8 PUSH2 0x5A67 JUMP JUMPDEST SWAP1 POP PUSH1 0x20 MUL ADD PUSH1 0x20 DUP2 ADD SWAP1 PUSH2 0x29FD SWAP2 SWAP1 PUSH2 0x58D9 JUMP JUMPDEST PUSH2 0x4EE0 JUMP JUMPDEST SWAP1 POP PUSH2 0x2A0E DUP2 DUP5 PUSH2 0x5A7D JUMP JUMPDEST SWAP3 POP DUP5 DUP5 DUP4 DUP2 DUP2 LT PUSH2 0x2A22 JUMPI PUSH2 0x2A22 PUSH2 0x5A67 JUMP JUMPDEST SWAP1 POP PUSH1 0x20 MUL ADD PUSH1 0x20 DUP2 ADD SWAP1 PUSH2 0x2A37 SWAP2 SWAP1 PUSH2 0x58D9 JUMP JUMPDEST PUSH1 0x1 PUSH1 0x1 PUSH1 0xA0 SHL SUB AND CALLER PUSH1 0x1 PUSH1 0x1 PUSH1 0xA0 SHL SUB AND PUSH32 0x946ED2F29C189BB6F4744C09F637BDA38011CABC8D1433BB26DDAD258B9E82D6 PUSH1 0x40 MLOAD PUSH1 0x40 MLOAD DUP1 SWAP2 SUB SWAP1 LOG3 POP DUP1 PUSH2 0x2A81 DUP2 PUSH2 0x5A95 JUMP JUMPDEST SWAP2 POP POP PUSH2 0x29C9 JUMP JUMPDEST POP PUSH1 0x1A SLOAD PUSH2 0x12BE SWAP1 DUP3 PUSH2 0x31AE JUMP JUMPDEST PUSH1 0x5 SLOAD PUSH1 0x1 PUSH1 0x1 PUSH1 0xA0 SHL SUB AND CALLER EQ PUSH2 0x2ADF JUMPI PUSH1 0x40 MLOAD PUSH3 0x461BCD PUSH1 0xE5 SHL DUP2 MSTORE PUSH1 0x20 PUSH1 0x4 DUP3 ADD DUP2 SWAP1 MSTORE PUSH1 0x24 DUP3 ADD MSTORE PUSH1 0x0 DUP1 MLOAD PUSH1 0x20 PUSH2 0x5B70 DUP4 CODECOPY DUP2 MLOAD SWAP2 MSTORE PUSH1 0x44 DUP3 ADD MSTORE PUSH1 0x64 ADD PUSH2 0xFD7 JUMP JUMPDEST PUSH1 0x1E DUP1 SLOAD PUSH1 0x1 PUSH1 0x1 PUSH1 0xA0 SHL SUB NOT AND PUSH1 0x1 PUSH1 0x1 PUSH1 0xA0 SHL SUB DUP4 AND SWAP1 DUP2 OR SWAP1 SWAP2 SSTORE PUSH1 0x40 MLOAD PUSH32 0xC35CEA67BC4CAF96CC47A71099D4192A65D36AB490D26EBF55825C0700815F61 SWAP1 PUSH1 0x0 SWAP1 LOG2 POP JUMP JUMPDEST CALLER PUSH1 0x0 DUP2 DUP2 MSTORE PUSH1 0x14 PUSH1 0x20 SWAP1 DUP2 MSTORE PUSH1 0x40 DUP1 DUP4 KECCAK256 PUSH1 0x1 PUSH1 0x1 PUSH1 0xA0 SHL SUB DUP8 AND DUP5 MSTORE SWAP1 SWAP2 MSTORE DUP2 KECCAK256 SLOAD SWAP1 SWAP2 SWAP1 DUP4 DUP2 LT ISZERO PUSH2 0x2BC6 JUMPI PUSH1 0x40 MLOAD PUSH3 0x461BCD PUSH1 0xE5 SHL DUP2 MSTORE PUSH1 0x20 PUSH1 0x4 DUP3 ADD MSTORE PUSH1 0x25 PUSH1 0x24 DUP3 ADD MSTORE PUSH32 0x45524332303A2064656372656173656420616C6C6F77616E63652062656C6F77 PUSH1 0x44 DUP3 ADD MSTORE PUSH32 0x207A65726F000000000000000000000000000000000000000000000000000000 PUSH1 0x64 DUP3 ADD MSTORE PUSH1 0x84 ADD PUSH2 0xFD7 JUMP JUMPDEST PUSH2 0x167F DUP3 DUP7 DUP7 DUP5 SUB PUSH2 0x33D8 JUMP JUMPDEST PUSH1 0x0 PUSH1 0x1 PUSH1 0x1 PUSH1 0xA0 SHL SUB DUP3 AND PUSH2 0x2C2B JUMPI PUSH1 0x40 MLOAD PUSH3 0x461BCD PUSH1 0xE5 SHL DUP2 MSTORE PUSH1 0x20 PUSH1 0x4 DUP3 ADD MSTORE PUSH1 0xF PUSH1 0x24 DUP3 ADD MSTORE PUSH32 0x496E76616C696420616464726573730000000000000000000000000000000000 PUSH1 0x44 DUP3 ADD MSTORE PUSH1 0x64 ADD PUSH2 0xFD7 JUMP JUMPDEST POP PUSH1 0x1 PUSH1 0x1 PUSH1 0xA0 SHL SUB AND PUSH1 0x0 SWAP1 DUP2 MSTORE PUSH1 0xC PUSH1 0x20 MSTORE PUSH1 0x40 SWAP1 KECCAK256 SLOAD PUSH1 0xFF AND SWAP1 JUMP JUMPDEST PUSH1 0x0 CALLER PUSH2 0x12D4 DUP2 DUP6 DUP6 PUSH2 0x3B83 JUMP JUMPDEST PUSH1 0x0 DUP1 PUSH2 0x2C64 CALLER PUSH2 0x4FF7 JUMP JUMPDEST SWAP2 POP SWAP2 POP PUSH2 0x2C71 DUP2 PUSH2 0x287F JUMP JUMPDEST ADDRESS PUSH1 0x0 SWAP1 DUP2 MSTORE PUSH1 0x13 PUSH1 0x20 MSTORE PUSH1 0x40 SWAP1 KECCAK256 SLOAD PUSH2 0x2C8B SWAP1 DUP4 PUSH2 0x33CC JUMP JUMPDEST ADDRESS PUSH1 0x0 SWAP1 DUP2 MSTORE PUSH1 0x13 PUSH1 0x20 MSTORE PUSH1 0x40 SWAP1 KECCAK256 SSTORE PUSH1 0x19 SLOAD PUSH2 0x2CA8 SWAP1 DUP3 PUSH2 0x33CC JUMP JUMPDEST PUSH1 0x19 SSTORE PUSH2 0x2CC1 PUSH2 0x2CB8 DUP3 DUP5 PUSH2 0x5A7D JUMP JUMPDEST PUSH1 0x15 SLOAD SWAP1 PUSH2 0x31AE JUMP JUMPDEST PUSH1 0x15 SSTORE PUSH2 0x14B1 PUSH2 0x1E0B DUP3 DUP5 PUSH2 0x5A7D JUMP JUMPDEST PUSH1 0x0 PUSH1 0x8 SLOAD PUSH1 0x0 EQ PUSH2 0x2CFE JUMPI PUSH3 0x93A80 PUSH1 0x8 SLOAD TIMESTAMP PUSH2 0x2CEF SWAP2 SWAP1 PUSH2 0x5A50 JUMP JUMPDEST PUSH2 0x2CF9 SWAP2 SWAP1 PUSH2 0x5B2E JUMP JUMPDEST SWAP1 POP SWAP1 JUMP JUMPDEST POP PUSH1 0x0 SWAP1 JUMP JUMPDEST PUSH1 0x5 SLOAD PUSH1 0x1 PUSH1 0x1 PUSH1 0xA0 SHL SUB AND CALLER EQ PUSH2 0x2D4C JUMPI PUSH1 0x40 MLOAD PUSH3 0x461BCD PUSH1 0xE5 SHL DUP2 MSTORE PUSH1 0x20 PUSH1 0x4 DUP3 ADD DUP2 SWAP1 MSTORE PUSH1 0x24 DUP3 ADD MSTORE PUSH1 0x0 DUP1 MLOAD PUSH1 0x20 PUSH2 0x5B70 DUP4 CODECOPY DUP2 MLOAD SWAP2 MSTORE PUSH1 0x44 DUP3 ADD MSTORE PUSH1 0x64 ADD PUSH2 0xFD7 JUMP JUMPDEST PUSH2 0x2D55 DUP2 PUSH2 0x518C JUMP JUMPDEST PUSH1 0x40 MLOAD DUP2 DUP2 MSTORE CALLER SWAP1 PUSH32 0x31BBDC307CB7AFAB9B265EE4C47F5FEB19D8A8702A67C0B695DF02E0D4C55B5F SWAP1 PUSH1 0x20 ADD PUSH2 0x18AB JUMP JUMPDEST PUSH1 0x5 SLOAD PUSH1 0x1 PUSH1 0x1 PUSH1 0xA0 SHL SUB AND CALLER EQ PUSH2 0x2DCF JUMPI PUSH1 0x40 MLOAD PUSH3 0x461BCD PUSH1 0xE5 SHL DUP2 MSTORE PUSH1 0x20 PUSH1 0x4 DUP3 ADD DUP2 SWAP1 MSTORE PUSH1 0x24 DUP3 ADD MSTORE PUSH1 0x0 DUP1 MLOAD PUSH1 0x20 PUSH2 0x5B70 DUP4 CODECOPY DUP2 MLOAD SWAP2 MSTORE PUSH1 0x44 DUP3 ADD MSTORE PUSH1 0x64 ADD PUSH2 0xFD7 JUMP JUMPDEST ADDRESS PUSH1 0x0 SWAP1 DUP2 MSTORE PUSH1 0x13 PUSH1 0x20 MSTORE PUSH1 0x40 SWAP1 KECCAK256 SLOAD PUSH2 0x2DE9 SWAP1 DUP3 PUSH2 0x31AE JUMP JUMPDEST ADDRESS PUSH1 0x0 SWAP1 DUP2 MSTORE PUSH1 0x13 PUSH1 0x20 MSTORE PUSH1 0x40 SWAP1 KECCAK256 SSTORE PUSH1 0x15 SLOAD PUSH2 0x2E06 SWAP1 DUP3 PUSH2 0x31AE JUMP JUMPDEST PUSH1 0x15 SSTORE PUSH1 0x40 MLOAD DUP2 DUP2 MSTORE ADDRESS SWAP1 PUSH1 0x0 SWAP1 PUSH32 0xDDF252AD1BE2C89B69C2B068FC378DAA952BA7F163C4A11628F55A4DF523B3EF SWAP1 PUSH1 0x20 ADD PUSH2 0x1377 JUMP JUMPDEST PUSH2 0x2E46 PUSH2 0x56CB JUMP JUMPDEST PUSH1 0x1 PUSH1 0x1 PUSH1 0xA0 SHL SUB DUP1 DUP4 AND PUSH1 0x0 SWAP1 DUP2 MSTORE PUSH1 0xE PUSH1 0x20 SWAP1 DUP2 MSTORE PUSH1 0x40 DUP1 DUP4 KECCAK256 DUP2 MLOAD PUSH2 0x140 DUP2 ADD DUP4 MSTORE DUP2 SLOAD DUP7 AND PUSH1 0x60 DUP1 DUP4 ADD SWAP2 DUP3 MSTORE PUSH1 0x1 DUP5 ADD SLOAD PUSH1 0x80 DUP5 ADD MSTORE PUSH1 0x2 DUP5 ADD SLOAD PUSH1 0xA0 DUP5 ADD MSTORE PUSH1 0x3 DUP5 ADD SLOAD PUSH1 0xC0 DUP5 ADD MSTORE PUSH1 0x4 DUP5 ADD SLOAD PUSH1 0xE0 DUP5 ADD MSTORE PUSH1 0x5 DUP5 ADD SLOAD PUSH2 0x100 DUP5 ADD MSTORE PUSH1 0x6 DUP5 ADD SLOAD PUSH2 0x120 DUP5 ADD MSTORE SWAP1 DUP3 MSTORE PUSH1 0x7 DUP4 ADD SLOAD SWAP1 SWAP7 AND DUP2 DUP6 ADD MSTORE PUSH1 0x8 SWAP1 SWAP2 ADD SLOAD DUP2 DUP4 ADD MSTORE DUP2 MLOAD SWAP5 DUP6 ADD DUP3 MSTORE DUP4 DUP6 MSTORE DUP5 DUP4 ADD SWAP4 SWAP1 SWAP4 MSTORE DUP3 MLOAD SWAP1 DUP5 ADD DUP2 SWAP1 MSTORE ADD MLOAD SWAP1 SWAP2 SWAP1 PUSH2 0x2F38 JUMPI PUSH1 0x40 MLOAD PUSH3 0x461BCD PUSH1 0xE5 SHL DUP2 MSTORE PUSH1 0x20 PUSH1 0x4 DUP3 ADD MSTORE PUSH1 0xE PUSH1 0x24 DUP3 ADD MSTORE PUSH32 0x4E6F207374616B6520666F756E64000000000000000000000000000000000000 PUSH1 0x44 DUP3 ADD MSTORE PUSH1 0x64 ADD PUSH2 0xFD7 JUMP JUMPDEST PUSH1 0x0 PUSH2 0x2F47 DUP3 PUSH1 0x40 ADD MLOAD PUSH2 0x5238 JUMP JUMPDEST SWAP1 POP PUSH1 0x0 TIMESTAMP DUP4 PUSH1 0x40 ADD MLOAD PUSH1 0xC0 ADD MLOAD GT ISZERO PUSH2 0x2F84 JUMPI PUSH1 0x0 DUP1 PUSH2 0x2F70 DUP6 PUSH1 0x40 ADD MLOAD PUSH1 0x20 ADD MLOAD DUP6 PUSH2 0x5296 JUMP JUMPDEST SWAP1 SWAP3 POP SWAP1 POP PUSH2 0x2F7F DUP2 DUP4 PUSH2 0x5A7D JUMP JUMPDEST SWAP3 POP POP POP JUMPDEST PUSH1 0x0 PUSH2 0x2F93 DUP6 PUSH1 0x40 ADD MLOAD PUSH2 0x52CB JUMP JUMPDEST GT ISZERO PUSH2 0x2FBB JUMPI PUSH1 0x0 PUSH2 0x2FAC DUP5 PUSH1 0x40 ADD MLOAD PUSH1 0x20 ADD MLOAD PUSH2 0x52E4 JUMP JUMPDEST PUSH1 0x40 DUP6 ADD MLOAD PUSH1 0x80 ADD MSTORE POP PUSH2 0x2FC9 JUMP JUMPDEST PUSH1 0x40 DUP4 ADD MLOAD PUSH1 0x0 PUSH1 0x80 SWAP1 SWAP2 ADD MSTORE JUMPDEST PUSH1 0x40 DUP4 ADD DUP1 MLOAD PUSH1 0x60 ADD SWAP3 SWAP1 SWAP3 MSTORE PUSH1 0x20 DUP1 DUP5 ADD SWAP2 SWAP1 SWAP2 MSTORE SWAP1 MLOAD ADD MLOAD DUP2 MSTORE SWAP4 SWAP3 POP POP POP JUMP JUMPDEST PUSH1 0x5 SLOAD PUSH1 0x1 PUSH1 0x1 PUSH1 0xA0 SHL SUB AND CALLER EQ PUSH2 0x3034 JUMPI PUSH1 0x40 MLOAD PUSH3 0x461BCD PUSH1 0xE5 SHL DUP2 MSTORE PUSH1 0x20 PUSH1 0x4 DUP3 ADD DUP2 SWAP1 MSTORE PUSH1 0x24 DUP3 ADD MSTORE PUSH1 0x0 DUP1 MLOAD PUSH1 0x20 PUSH2 0x5B70 DUP4 CODECOPY DUP2 MLOAD SWAP2 MSTORE PUSH1 0x44 DUP3 ADD MSTORE PUSH1 0x64 ADD PUSH2 0xFD7 JUMP JUMPDEST PUSH1 0x1F DUP1 SLOAD PUSH1 0x1 PUSH1 0x1 PUSH1 0xA0 SHL SUB NOT SWAP1 DUP2 AND PUSH1 0x1 PUSH1 0x1 PUSH1 0xA0 SHL SUB DUP7 DUP2 AND SWAP2 DUP3 OR SWAP1 SWAP4 SSTORE PUSH1 0x20 DUP1 SLOAD DUP4 AND DUP7 DUP6 AND SWAP1 DUP2 OR SWAP1 SWAP2 SSTORE PUSH1 0x21 DUP1 SLOAD SWAP1 SWAP4 AND SWAP4 DUP6 AND SWAP4 DUP5 OR SWAP1 SWAP3 SSTORE PUSH1 0x40 MLOAD PUSH32 0x6C2B82DA20E0F724ACB9C915394D71B33D74C77790C60004585726C2414879A3 SWAP1 PUSH1 0x0 SWAP1 LOG4 POP POP POP JUMP JUMPDEST PUSH1 0x5 SLOAD PUSH1 0x1 PUSH1 0x1 PUSH1 0xA0 SHL SUB AND CALLER EQ PUSH2 0x30EA JUMPI PUSH1 0x40 MLOAD PUSH3 0x461BCD PUSH1 0xE5 SHL DUP2 MSTORE PUSH1 0x20 PUSH1 0x4 DUP3 ADD DUP2 SWAP1 MSTORE PUSH1 0x24 DUP3 ADD MSTORE PUSH1 0x0 DUP1 MLOAD PUSH1 0x20 PUSH2 0x5B70 DUP4 CODECOPY DUP2 MLOAD SWAP2 MSTORE PUSH1 0x44 DUP3 ADD MSTORE PUSH1 0x64 ADD PUSH2 0xFD7 JUMP JUMPDEST PUSH1 0x1 PUSH1 0x1 PUSH1 0xA0 SHL SUB DUP2 AND PUSH2 0x3166 JUMPI PUSH1 0x40 MLOAD PUSH3 0x461BCD PUSH1 0xE5 SHL DUP2 MSTORE PUSH1 0x20 PUSH1 0x4 DUP3 ADD MSTORE PUSH1 0x26 PUSH1 0x24 DUP3 ADD MSTORE PUSH32 0x4F776E61626C653A206E6577206F776E657220697320746865207A65726F2061 PUSH1 0x44 DUP3 ADD MSTORE PUSH32 0x6464726573730000000000000000000000000000000000000000000000000000 PUSH1 0x64 DUP3 ADD MSTORE PUSH1 0x84 ADD PUSH2 0xFD7 JUMP JUMPDEST PUSH2 0x17CD DUP2 PUSH2 0x45EE JUMP JUMPDEST PUSH1 0x0 DUP2 DUP5 DUP5 GT ISZERO PUSH2 0x3193 JUMPI PUSH1 0x40 MLOAD PUSH3 0x461BCD PUSH1 0xE5 SHL DUP2 MSTORE PUSH1 0x4 ADD PUSH2 0xFD7 SWAP2 SWAP1 PUSH2 0x5751 JUMP JUMPDEST POP POP POP SWAP1 SUB SWAP1 JUMP JUMPDEST PUSH1 0x0 PUSH2 0x31A7 DUP3 DUP5 PUSH2 0x5B2E JUMP JUMPDEST SWAP4 SWAP3 POP POP POP JUMP JUMPDEST PUSH1 0x0 PUSH2 0x31A7 DUP3 DUP5 PUSH2 0x5A7D JUMP JUMPDEST PUSH1 0x9 SLOAD PUSH1 0xFF AND PUSH2 0x1BCF JUMPI PUSH1 0x40 MLOAD PUSH3 0x461BCD PUSH1 0xE5 SHL DUP2 MSTORE PUSH1 0x20 PUSH1 0x4 DUP3 ADD MSTORE PUSH1 0x17 PUSH1 0x24 DUP3 ADD MSTORE PUSH32 0x566F74696E67206973206E6F7420617661696C61626C65000000000000000000 PUSH1 0x44 DUP3 ADD MSTORE PUSH1 0x64 ADD PUSH2 0xFD7 JUMP JUMPDEST DUP1 PUSH2 0x17CD JUMPI PUSH1 0x40 MLOAD PUSH3 0x461BCD PUSH1 0xE5 SHL DUP2 MSTORE PUSH1 0x20 PUSH1 0x4 DUP3 ADD MSTORE PUSH1 0x15 PUSH1 0x24 DUP3 ADD MSTORE PUSH32 0x416D6F756E742063616E6E6F74206265207A65726F0000000000000000000000 PUSH1 0x44 DUP3 ADD MSTORE PUSH1 0x64 ADD PUSH2 0xFD7 JUMP JUMPDEST PUSH1 0x10 SLOAD DUP2 GT ISZERO PUSH2 0x32D1 JUMPI PUSH1 0x40 MLOAD PUSH3 0x461BCD PUSH1 0xE5 SHL DUP2 MSTORE PUSH1 0x20 PUSH1 0x4 DUP3 ADD MSTORE PUSH1 0x31 PUSH1 0x24 DUP3 ADD MSTORE PUSH32 0x5072697661746553616C653A206E6F7420656E6F7567682062616C616E636520 PUSH1 0x44 DUP3 ADD MSTORE PUSH32 0x746F206164642061206E65772075736572000000000000000000000000000000 PUSH1 0x64 DUP3 ADD MSTORE PUSH1 0x84 ADD PUSH2 0xFD7 JUMP JUMPDEST PUSH1 0x1 PUSH1 0x1 PUSH1 0xA0 SHL SUB DUP3 AND PUSH1 0x0 SWAP1 DUP2 MSTORE PUSH1 0x12 PUSH1 0x20 MSTORE PUSH1 0x40 SWAP1 KECCAK256 PUSH1 0x1 ADD SLOAD ISZERO PUSH2 0x3360 JUMPI PUSH1 0x40 MLOAD PUSH3 0x461BCD PUSH1 0xE5 SHL DUP2 MSTORE PUSH1 0x20 PUSH1 0x4 DUP3 ADD MSTORE PUSH1 0x29 PUSH1 0x24 DUP3 ADD MSTORE PUSH32 0x5072697661746553616C653A2054686973207573657220616C72656164792072 PUSH1 0x44 DUP3 ADD MSTORE PUSH32 0x6567697374657265640000000000000000000000000000000000000000000000 PUSH1 0x64 DUP3 ADD MSTORE PUSH1 0x84 ADD PUSH2 0xFD7 JUMP JUMPDEST PUSH1 0x1 PUSH1 0x1 PUSH1 0xA0 SHL SUB DUP3 AND PUSH1 0x0 SWAP1 DUP2 MSTORE PUSH1 0x12 PUSH1 0x20 MSTORE PUSH1 0x40 DUP2 KECCAK256 DUP3 DUP2 SSTORE PUSH1 0x1 DUP1 DUP3 ADD DUP5 SWAP1 SSTORE PUSH1 0x2 DUP3 ADD DUP1 SLOAD PUSH1 0xFF NOT AND SWAP1 SSTORE PUSH1 0x3 SWAP1 SWAP2 ADD DUP2 SWAP1 SSTORE PUSH1 0xF DUP1 SLOAD SWAP2 SWAP3 SWAP1 SWAP2 PUSH2 0x33AA SWAP1 DUP5 SWAP1 PUSH2 0x5A7D JUMP JUMPDEST SWAP3 POP POP DUP2 SWAP1 SSTORE POP DUP1 PUSH1 0x10 PUSH1 0x0 DUP3 DUP3 SLOAD PUSH2 0x33C3 SWAP2 SWAP1 PUSH2 0x5A50 JUMP JUMPDEST SWAP1 SWAP2 SSTORE POP POP POP POP JUMP JUMPDEST PUSH1 0x0 PUSH2 0x31A7 DUP3 DUP5 PUSH2 0x5A50 JUMP JUMPDEST PUSH1 0x1 PUSH1 0x1 PUSH1 0xA0 SHL SUB DUP4 AND PUSH2 0x3453 JUMPI PUSH1 0x40 MLOAD PUSH3 0x461BCD PUSH1 0xE5 SHL DUP2 MSTORE PUSH1 0x20 PUSH1 0x4 DUP3 ADD MSTORE PUSH1 0x24 DUP1 DUP3 ADD MSTORE PUSH32 0x45524332303A20617070726F76652066726F6D20746865207A65726F20616464 PUSH1 0x44 DUP3 ADD MSTORE PUSH32 0x7265737300000000000000000000000000000000000000000000000000000000 PUSH1 0x64 DUP3 ADD MSTORE PUSH1 0x84 ADD PUSH2 0xFD7 JUMP JUMPDEST PUSH1 0x1 PUSH1 0x1 PUSH1 0xA0 SHL SUB DUP3 AND PUSH2 0x34CF JUMPI PUSH1 0x40 MLOAD PUSH3 0x461BCD PUSH1 0xE5 SHL DUP2 MSTORE PUSH1 0x20 PUSH1 0x4 DUP3 ADD MSTORE PUSH1 0x22 PUSH1 0x24 DUP3 ADD MSTORE PUSH32 0x45524332303A20617070726F766520746F20746865207A65726F206164647265 PUSH1 0x44 DUP3 ADD MSTORE PUSH32 0x7373000000000000000000000000000000000000000000000000000000000000 PUSH1 0x64 DUP3 ADD MSTORE PUSH1 0x84 ADD PUSH2 0xFD7 JUMP JUMPDEST PUSH1 0x1 PUSH1 0x1 PUSH1 0xA0 SHL SUB DUP4 DUP2 AND PUSH1 0x0 DUP2 DUP2 MSTORE PUSH1 0x14 PUSH1 0x20 SWAP1 DUP2 MSTORE PUSH1 0x40 DUP1 DUP4 KECCAK256 SWAP5 DUP8 AND DUP1 DUP5 MSTORE SWAP5 DUP3 MSTORE SWAP2 DUP3 SWAP1 KECCAK256 DUP6 SWAP1 SSTORE SWAP1 MLOAD DUP5 DUP2 MSTORE PUSH32 0x8C5BE1E5EBEC7D5BD14F71427D1E84F3DD0314C0F7B2291E5B200AC8C7C3B925 SWAP2 ADD JUMPDEST PUSH1 0x40 MLOAD DUP1 SWAP2 SUB SWAP1 LOG3 POP POP POP JUMP JUMPDEST PUSH1 0x1C SLOAD PUSH3 0x10000 SWAP1 DIV PUSH1 0xFF AND ISZERO ISZERO PUSH1 0x1 EQ PUSH2 0x1BCF JUMPI PUSH1 0x40 MLOAD PUSH3 0x461BCD PUSH1 0xE5 SHL DUP2 MSTORE PUSH1 0x20 PUSH1 0x4 DUP3 ADD MSTORE PUSH1 0x1D PUSH1 0x24 DUP3 ADD MSTORE PUSH32 0x4C6F636B65642057616C6C6574206E6F74207965742073746172746564000000 PUSH1 0x44 DUP3 ADD MSTORE PUSH1 0x64 ADD PUSH2 0xFD7 JUMP JUMPDEST CALLER PUSH1 0x1 PUSH1 0x1 PUSH1 0xA0 SHL SUB DUP3 AND EQ PUSH2 0x17CD JUMPI PUSH1 0x40 MLOAD PUSH3 0x461BCD PUSH1 0xE5 SHL DUP2 MSTORE PUSH1 0x20 PUSH1 0x4 DUP3 ADD MSTORE PUSH1 0x11 PUSH1 0x24 DUP3 ADD MSTORE PUSH32 0x57616C6C6574206F776E6572206F6E6C79000000000000000000000000000000 PUSH1 0x44 DUP3 ADD MSTORE PUSH1 0x64 ADD PUSH2 0xFD7 JUMP JUMPDEST PUSH2 0x35EE PUSH2 0x5732 JUMP JUMPDEST PUSH1 0x40 MLOAD DUP1 PUSH2 0x660 ADD PUSH1 0x40 MSTORE DUP1 PUSH2 0x3610 PUSH4 0x1908B10 PUSH8 0xDE0B6B3A7640000 PUSH2 0x5306 JUMP JUMPDEST DUP2 MSTORE PUSH1 0x20 ADD PUSH1 0x0 DUP2 MSTORE PUSH1 0x20 ADD PUSH1 0x0 DUP2 MSTORE PUSH1 0x20 ADD PUSH1 0x0 DUP2 MSTORE PUSH1 0x20 ADD PUSH1 0x0 DUP2 MSTORE PUSH1 0x20 ADD PUSH1 0x0 DUP2 MSTORE PUSH1 0x20 ADD PUSH1 0x0 DUP2 MSTORE PUSH1 0x20 ADD PUSH1 0x0 DUP2 MSTORE PUSH1 0x20 ADD PUSH1 0x0 DUP2 MSTORE PUSH1 0x20 ADD PUSH1 0x0 DUP2 MSTORE PUSH1 0x20 ADD PUSH1 0x0 DUP2 MSTORE PUSH1 0x20 ADD PUSH1 0x0 DUP2 MSTORE PUSH1 0x20 ADD PUSH1 0x0 DUP2 MSTORE PUSH1 0x20 ADD PUSH1 0x0 DUP2 MSTORE PUSH1 0x20 ADD PUSH1 0x0 DUP2 MSTORE PUSH1 0x20 ADD PUSH1 0x0 DUP2 MSTORE PUSH1 0x20 ADD PUSH2 0x3694 PUSH4 0x1B1EBFC PUSH8 0xDE0B6B3A7640000 PUSH2 0x5306 JUMP JUMPDEST DUP2 MSTORE PUSH1 0x20 ADD PUSH2 0x36AF PUSH4 0x1B1EBFC PUSH8 0xDE0B6B3A7640000 PUSH2 0x5306 JUMP JUMPDEST DUP2 MSTORE PUSH1 0x20 ADD PUSH2 0x36CA PUSH4 0x1B1EBFC PUSH8 0xDE0B6B3A7640000 PUSH2 0x5306 JUMP JUMPDEST DUP2 MSTORE PUSH1 0x20 ADD PUSH2 0x36E5 PUSH4 0x1B1EBFC PUSH8 0xDE0B6B3A7640000 PUSH2 0x5306 JUMP JUMPDEST DUP2 MSTORE PUSH1 0x20 ADD PUSH2 0x3700 PUSH4 0x1B1EBFC PUSH8 0xDE0B6B3A7640000 PUSH2 0x5306 JUMP JUMPDEST DUP2 MSTORE PUSH1 0x20 ADD PUSH2 0x371B PUSH4 0x1B1EBFC PUSH8 0xDE0B6B3A7640000 PUSH2 0x5306 JUMP JUMPDEST DUP2 MSTORE PUSH1 0x20 ADD PUSH2 0x3736 PUSH4 0x1B1EBFC PUSH8 0xDE0B6B3A7640000 PUSH2 0x5306 JUMP JUMPDEST DUP2 MSTORE PUSH1 0x20 ADD PUSH2 0x3751 PUSH4 0x1B1EBFC PUSH8 0xDE0B6B3A7640000 PUSH2 0x5306 JUMP JUMPDEST DUP2 MSTORE PUSH1 0x20 ADD PUSH2 0x376C PUSH4 0x1B1EBFC PUSH8 0xDE0B6B3A7640000 PUSH2 0x5306 JUMP JUMPDEST DUP2 MSTORE PUSH1 0x20 ADD PUSH2 0x3787 PUSH4 0x1B1EBFC PUSH8 0xDE0B6B3A7640000 PUSH2 0x5306 JUMP JUMPDEST DUP2 MSTORE PUSH1 0x20 ADD PUSH2 0x37A2 PUSH4 0x1B1EBFC PUSH8 0xDE0B6B3A7640000 PUSH2 0x5306 JUMP JUMPDEST DUP2 MSTORE PUSH1 0x20 ADD PUSH2 0x37BD PUSH4 0x1B1EBFC PUSH8 0xDE0B6B3A7640000 PUSH2 0x5306 JUMP JUMPDEST DUP2 MSTORE PUSH1 0x20 ADD PUSH2 0x37D8 PUSH4 0x1B1EBFC PUSH8 0xDE0B6B3A7640000 PUSH2 0x5306 JUMP JUMPDEST DUP2 MSTORE PUSH1 0x20 ADD PUSH2 0x37F3 PUSH4 0x1B1EBFC PUSH8 0xDE0B6B3A7640000 PUSH2 0x5306 JUMP JUMPDEST DUP2 MSTORE PUSH1 0x20 ADD PUSH2 0x380E PUSH4 0x1B1EBFC PUSH8 0xDE0B6B3A7640000 PUSH2 0x5306 JUMP JUMPDEST DUP2 MSTORE PUSH1 0x20 ADD PUSH2 0x3829 PUSH4 0x1B1EBFC PUSH8 0xDE0B6B3A7640000 PUSH2 0x5306 JUMP JUMPDEST DUP2 MSTORE PUSH1 0x20 ADD PUSH2 0x3844 PUSH4 0x1B1EBFC PUSH8 0xDE0B6B3A7640000 PUSH2 0x5306 JUMP JUMPDEST DUP2 MSTORE PUSH1 0x20 ADD PUSH2 0x385F PUSH4 0x1B1EBFC PUSH8 0xDE0B6B3A7640000 PUSH2 0x5306 JUMP JUMPDEST DUP2 MSTORE PUSH1 0x20 ADD PUSH2 0x387A PUSH4 0x1B1EBFC PUSH8 0xDE0B6B3A7640000 PUSH2 0x5306 JUMP JUMPDEST DUP2 MSTORE PUSH1 0x20 ADD PUSH2 0x3895 PUSH4 0x1B1EBFC PUSH8 0xDE0B6B3A7640000 PUSH2 0x5306 JUMP JUMPDEST DUP2 MSTORE PUSH1 0x20 ADD PUSH2 0x38B0 PUSH4 0x1B1EBFC PUSH8 0xDE0B6B3A7640000 PUSH2 0x5306 JUMP JUMPDEST DUP2 MSTORE PUSH1 0x20 ADD PUSH2 0x38CB PUSH4 0x1B1EBFC PUSH8 0xDE0B6B3A7640000 PUSH2 0x5306 JUMP JUMPDEST DUP2 MSTORE PUSH1 0x20 ADD PUSH2 0x38E6 PUSH4 0x1B1EBFC PUSH8 0xDE0B6B3A7640000 PUSH2 0x5306 JUMP JUMPDEST DUP2 MSTORE PUSH1 0x20 ADD PUSH2 0x3901 PUSH4 0x1B1EBFC PUSH8 0xDE0B6B3A7640000 PUSH2 0x5306 JUMP JUMPDEST DUP2 MSTORE PUSH1 0x20 ADD PUSH2 0x391C PUSH4 0x1B1EBFC PUSH8 0xDE0B6B3A7640000 PUSH2 0x5306 JUMP JUMPDEST DUP2 MSTORE PUSH1 0x20 ADD PUSH2 0x3937 PUSH4 0x1B1EBFC PUSH8 0xDE0B6B3A7640000 PUSH2 0x5306 JUMP JUMPDEST DUP2 MSTORE PUSH1 0x20 ADD PUSH2 0x3952 PUSH4 0x1B1EBFC PUSH8 0xDE0B6B3A7640000 PUSH2 0x5306 JUMP JUMPDEST DUP2 MSTORE PUSH1 0x20 ADD PUSH2 0x396D PUSH4 0x1B1EBFC PUSH8 0xDE0B6B3A7640000 PUSH2 0x5306 JUMP JUMPDEST DUP2 MSTORE PUSH1 0x20 ADD PUSH2 0x3988 PUSH4 0x1B1EBFC PUSH8 0xDE0B6B3A7640000 PUSH2 0x5306 JUMP JUMPDEST DUP2 MSTORE PUSH1 0x20 ADD PUSH2 0x39A3 PUSH4 0x1B1EBFC PUSH8 0xDE0B6B3A7640000 PUSH2 0x5306 JUMP JUMPDEST DUP2 MSTORE PUSH1 0x20 ADD PUSH2 0x39BE PUSH4 0x1B1EBFC PUSH8 0xDE0B6B3A7640000 PUSH2 0x5306 JUMP JUMPDEST DUP2 MSTORE PUSH1 0x20 ADD PUSH2 0x39D9 PUSH4 0x1B1EBFC PUSH8 0xDE0B6B3A7640000 PUSH2 0x5306 JUMP JUMPDEST DUP2 MSTORE PUSH1 0x20 ADD PUSH2 0x39F4 PUSH4 0x1B1EBFC PUSH8 0xDE0B6B3A7640000 PUSH2 0x5306 JUMP JUMPDEST DUP2 MSTORE PUSH1 0x20 ADD PUSH2 0x3A0F PUSH4 0x1B1EBFC PUSH8 0xDE0B6B3A7640000 PUSH2 0x5306 JUMP JUMPDEST DUP2 MSTORE PUSH1 0x20 ADD PUSH2 0x3A2A PUSH4 0x1B1EBFC PUSH8 0xDE0B6B3A7640000 PUSH2 0x5306 JUMP JUMPDEST SWAP1 MSTORE SWAP2 SWAP1 POP JUMP JUMPDEST PUSH2 0x3A39 PUSH2 0x5732 JUMP JUMPDEST PUSH1 0x40 MLOAD DUP1 PUSH2 0x660 ADD PUSH1 0x40 MSTORE DUP1 PUSH2 0x3A5A PUSH3 0xC84588 PUSH8 0xDE0B6B3A7640000 PUSH2 0x5306 JUMP JUMPDEST DUP2 MSTORE PUSH1 0x20 ADD PUSH1 0x0 DUP2 MSTORE PUSH1 0x20 ADD PUSH1 0x0 DUP2 MSTORE PUSH1 0x20 ADD PUSH1 0x0 DUP2 MSTORE PUSH1 0x20 ADD PUSH1 0x0 DUP2 MSTORE PUSH1 0x20 ADD PUSH1 0x0 DUP2 MSTORE PUSH1 0x20 ADD PUSH1 0x0 DUP2 MSTORE PUSH1 0x20 ADD PUSH1 0x0 DUP2 MSTORE PUSH1 0x20 ADD PUSH2 0x3AA5 PUSH3 0xC84588 PUSH8 0xDE0B6B3A7640000 PUSH2 0x5306 JUMP JUMPDEST DUP2 MSTORE PUSH1 0x20 ADD PUSH1 0x0 DUP2 MSTORE PUSH1 0x20 ADD PUSH1 0x0 DUP2 MSTORE PUSH1 0x20 ADD PUSH1 0x0 DUP2 MSTORE PUSH1 0x20 ADD PUSH1 0x0 DUP2 MSTORE PUSH1 0x20 ADD PUSH1 0x0 DUP2 MSTORE PUSH1 0x20 ADD PUSH1 0x0 DUP2 MSTORE PUSH1 0x20 ADD PUSH1 0x0 DUP2 MSTORE PUSH1 0x20 ADD PUSH2 0x3694 PUSH4 0x1B1EBFC PUSH8 0xDE0B6B3A7640000 PUSH2 0x5306 JUMP JUMPDEST PUSH1 0x1 PUSH1 0x1 PUSH1 0xA0 SHL SUB DUP4 DUP2 AND PUSH1 0x0 SWAP1 DUP2 MSTORE PUSH1 0x14 PUSH1 0x20 SWAP1 DUP2 MSTORE PUSH1 0x40 DUP1 DUP4 KECCAK256 SWAP4 DUP7 AND DUP4 MSTORE SWAP3 SWAP1 MSTORE KECCAK256 SLOAD PUSH1 0x0 NOT DUP2 EQ PUSH2 0x3B7D JUMPI DUP2 DUP2 LT ISZERO PUSH2 0x3B70 JUMPI PUSH1 0x40 MLOAD PUSH3 0x461BCD PUSH1 0xE5 SHL DUP2 MSTORE PUSH1 0x20 PUSH1 0x4 DUP3 ADD MSTORE PUSH1 0x1D PUSH1 0x24 DUP3 ADD MSTORE PUSH32 0x45524332303A20696E73756666696369656E7420616C6C6F77616E6365000000 PUSH1 0x44 DUP3 ADD MSTORE PUSH1 0x64 ADD PUSH2 0xFD7 JUMP JUMPDEST PUSH2 0x3B7D DUP5 DUP5 DUP5 DUP5 SUB PUSH2 0x33D8 JUMP JUMPDEST POP POP POP POP JUMP JUMPDEST PUSH1 0x1 PUSH1 0x1 PUSH1 0xA0 SHL SUB DUP4 AND PUSH2 0x3BD9 JUMPI PUSH1 0x40 MLOAD PUSH3 0x461BCD PUSH1 0xE5 SHL DUP2 MSTORE PUSH1 0x20 PUSH1 0x4 DUP3 ADD MSTORE PUSH1 0x1A PUSH1 0x24 DUP3 ADD MSTORE PUSH32 0x5472616E736665722066726F6D207A65726F2061646472657373000000000000 PUSH1 0x44 DUP3 ADD MSTORE PUSH1 0x64 ADD PUSH2 0xFD7 JUMP JUMPDEST PUSH1 0x1 PUSH1 0x1 PUSH1 0xA0 SHL SUB DUP3 AND PUSH2 0x3C2F JUMPI PUSH1 0x40 MLOAD PUSH3 0x461BCD PUSH1 0xE5 SHL DUP2 MSTORE PUSH1 0x20 PUSH1 0x4 DUP3 ADD MSTORE PUSH1 0x18 PUSH1 0x24 DUP3 ADD MSTORE PUSH32 0x5472616E7366657220746F207A65726F20616464726573730000000000000000 PUSH1 0x44 DUP3 ADD MSTORE PUSH1 0x64 ADD PUSH2 0xFD7 JUMP JUMPDEST PUSH1 0x1 PUSH1 0x1 PUSH1 0xA0 SHL SUB DUP4 AND PUSH1 0x0 SWAP1 DUP2 MSTORE PUSH1 0x13 PUSH1 0x20 MSTORE PUSH1 0x40 SWAP1 KECCAK256 SLOAD DUP2 DUP2 LT ISZERO PUSH2 0x3CBE JUMPI PUSH1 0x40 MLOAD PUSH3 0x461BCD PUSH1 0xE5 SHL DUP2 MSTORE PUSH1 0x20 PUSH1 0x4 DUP3 ADD MSTORE PUSH1 0x26 PUSH1 0x24 DUP3 ADD MSTORE PUSH32 0x45524332303A207472616E7366657220616D6F756E7420657863656564732062 PUSH1 0x44 DUP3 ADD MSTORE PUSH32 0x616C616E63650000000000000000000000000000000000000000000000000000 PUSH1 0x64 DUP3 ADD MSTORE PUSH1 0x84 ADD PUSH2 0xFD7 JUMP JUMPDEST PUSH1 0x1 PUSH1 0x1 PUSH1 0xA0 SHL SUB DUP5 AND PUSH1 0x0 SWAP1 DUP2 MSTORE PUSH1 0x13 PUSH1 0x20 MSTORE PUSH1 0x40 DUP2 KECCAK256 DUP4 DUP4 SUB SWAP1 SSTORE PUSH1 0x1C SLOAD PUSH2 0x3CF7 SWAP1 PUSH2 0x3CF0 SWAP1 DUP6 SWAP1 PUSH1 0xFF AND PUSH2 0x5306 JUMP JUMPDEST PUSH1 0x64 PUSH2 0x319B JUMP JUMPDEST SWAP1 POP PUSH1 0x0 PUSH2 0x3D05 DUP5 DUP4 PUSH2 0x33CC JUMP JUMPDEST SWAP1 POP PUSH1 0x0 PUSH2 0x3D1E PUSH2 0x3D17 DUP4 PUSH1 0x2 PUSH2 0x5306 JUMP JUMPDEST PUSH1 0xA PUSH2 0x319B JUMP JUMPDEST SWAP1 POP PUSH1 0x0 PUSH2 0x3D30 PUSH2 0x3D17 DUP5 PUSH1 0x8 PUSH2 0x5306 JUMP JUMPDEST SWAP1 POP PUSH2 0x3D3B DUP3 PUSH2 0xD6B JUMP JUMPDEST ADDRESS PUSH1 0x0 SWAP1 DUP2 MSTORE PUSH1 0x13 PUSH1 0x20 MSTORE PUSH1 0x40 SWAP1 KECCAK256 SLOAD PUSH2 0x3D55 SWAP1 DUP3 PUSH2 0x31AE JUMP JUMPDEST ADDRESS PUSH1 0x0 SWAP1 DUP2 MSTORE PUSH1 0x13 PUSH1 0x20 MSTORE PUSH1 0x40 DUP1 DUP3 KECCAK256 SWAP3 SWAP1 SWAP3 SSTORE PUSH1 0x1 PUSH1 0x1 PUSH1 0xA0 SHL SUB DUP10 AND DUP2 MSTORE KECCAK256 SLOAD PUSH2 0x3D81 SWAP1 DUP5 PUSH2 0x31AE JUMP JUMPDEST PUSH1 0x1 PUSH1 0x1 PUSH1 0xA0 SHL SUB DUP1 DUP10 AND PUSH1 0x0 DUP2 DUP2 MSTORE PUSH1 0x13 PUSH1 0x20 MSTORE PUSH1 0x40 SWAP1 DUP2 SWAP1 KECCAK256 SWAP4 SWAP1 SWAP4 SSTORE SWAP2 MLOAD SWAP1 DUP11 AND SWAP1 PUSH32 0xDDF252AD1BE2C89B69C2B068FC378DAA952BA7F163C4A11628F55A4DF523B3EF SWAP1 PUSH2 0x3DD5 SWAP1 DUP8 DUP2 MSTORE PUSH1 0x20 ADD SWAP1 JUMP JUMPDEST PUSH1 0x40 MLOAD DUP1 SWAP2 SUB SWAP1 LOG3 POP POP POP POP POP POP POP POP JUMP JUMPDEST PUSH2 0x3DEF PUSH2 0x5732 JUMP JUMPDEST PUSH1 0x40 MLOAD DUP1 PUSH2 0x660 ADD PUSH1 0x40 MSTORE DUP1 PUSH2 0x3E11 PUSH4 0x1406F40 PUSH8 0xDE0B6B3A7640000 PUSH2 0x5306 JUMP JUMPDEST DUP2 MSTORE PUSH1 0x20 ADD PUSH1 0x0 DUP2 MSTORE PUSH1 0x20 ADD PUSH1 0x0 DUP2 MSTORE PUSH1 0x20 ADD PUSH1 0x0 DUP2 MSTORE PUSH1 0x20 ADD PUSH1 0x0 DUP2 MSTORE PUSH1 0x20 ADD PUSH1 0x0 DUP2 MSTORE PUSH1 0x20 ADD PUSH1 0x0 DUP2 MSTORE PUSH1 0x20 ADD PUSH1 0x0 DUP2 MSTORE PUSH1 0x20 ADD PUSH2 0x3E5D PUSH4 0x1406F40 PUSH8 0xDE0B6B3A7640000 PUSH2 0x5306 JUMP JUMPDEST DUP2 MSTORE PUSH1 0x20 ADD PUSH1 0x0 DUP2 MSTORE PUSH1 0x20 ADD PUSH1 0x0 DUP2 MSTORE PUSH1 0x20 ADD PUSH1 0x0 DUP2 MSTORE PUSH1 0x20 ADD PUSH1 0x0 DUP2 MSTORE PUSH1 0x20 ADD PUSH1 0x0 DUP2 MSTORE PUSH1 0x20 ADD PUSH1 0x0 DUP2 MSTORE PUSH1 0x20 ADD PUSH1 0x0 DUP2 MSTORE PUSH1 0x20 ADD PUSH2 0x3EA9 PUSH4 0x3684B4B PUSH8 0xDE0B6B3A7640000 PUSH2 0x5306 JUMP JUMPDEST DUP2 MSTORE PUSH1 0x20 ADD PUSH2 0x3EC4 PUSH4 0x3684B4B PUSH8 0xDE0B6B3A7640000 PUSH2 0x5306 JUMP JUMPDEST DUP2 MSTORE PUSH1 0x20 ADD PUSH2 0x3EDF PUSH4 0x3684B4B PUSH8 0xDE0B6B3A7640000 PUSH2 0x5306 JUMP JUMPDEST DUP2 MSTORE PUSH1 0x20 ADD PUSH2 0x3EFA PUSH4 0x3684B4B PUSH8 0xDE0B6B3A7640000 PUSH2 0x5306 JUMP JUMPDEST DUP2 MSTORE PUSH1 0x20 ADD PUSH2 0x3F15 PUSH4 0x3684B4B PUSH8 0xDE0B6B3A7640000 PUSH2 0x5306 JUMP JUMPDEST DUP2 MSTORE PUSH1 0x20 ADD PUSH2 0x3F30 PUSH4 0x3684B4B PUSH8 0xDE0B6B3A7640000 PUSH2 0x5306 JUMP JUMPDEST DUP2 MSTORE PUSH1 0x20 ADD PUSH2 0x3F4B PUSH4 0x3684B4B PUSH8 0xDE0B6B3A7640000 PUSH2 0x5306 JUMP JUMPDEST DUP2 MSTORE PUSH1 0x20 ADD PUSH2 0x3F66 PUSH4 0x3684B4B PUSH8 0xDE0B6B3A7640000 PUSH2 0x5306 JUMP JUMPDEST DUP2 MSTORE PUSH1 0x20 ADD PUSH2 0x3F81 PUSH4 0x3684B4B PUSH8 0xDE0B6B3A7640000 PUSH2 0x5306 JUMP JUMPDEST DUP2 MSTORE PUSH1 0x20 ADD PUSH2 0x3F9C PUSH4 0x3684B4B PUSH8 0xDE0B6B3A7640000 PUSH2 0x5306 JUMP JUMPDEST DUP2 MSTORE PUSH1 0x20 ADD PUSH2 0x3FB7 PUSH4 0x3684B4B PUSH8 0xDE0B6B3A7640000 PUSH2 0x5306 JUMP JUMPDEST DUP2 MSTORE PUSH1 0x20 ADD PUSH2 0x3FD2 PUSH4 0x3684B4B PUSH8 0xDE0B6B3A7640000 PUSH2 0x5306 JUMP JUMPDEST DUP2 MSTORE PUSH1 0x20 ADD PUSH2 0x3FED PUSH4 0x3684B4B PUSH8 0xDE0B6B3A7640000 PUSH2 0x5306 JUMP JUMPDEST DUP2 MSTORE PUSH1 0x20 ADD PUSH2 0x4008 PUSH4 0x3684B4B PUSH8 0xDE0B6B3A7640000 PUSH2 0x5306 JUMP JUMPDEST DUP2 MSTORE PUSH1 0x20 ADD PUSH2 0x4023 PUSH4 0x3684B4B PUSH8 0xDE0B6B3A7640000 PUSH2 0x5306 JUMP JUMPDEST DUP2 MSTORE PUSH1 0x20 ADD PUSH2 0x403E PUSH4 0x3684B4B PUSH8 0xDE0B6B3A7640000 PUSH2 0x5306 JUMP JUMPDEST DUP2 MSTORE PUSH1 0x20 ADD PUSH2 0x4059 PUSH4 0x3684B4B PUSH8 0xDE0B6B3A7640000 PUSH2 0x5306 JUMP JUMPDEST DUP2 MSTORE PUSH1 0x20 ADD PUSH2 0x4074 PUSH4 0x3684B4B PUSH8 0xDE0B6B3A7640000 PUSH2 0x5306 JUMP JUMPDEST DUP2 MSTORE PUSH1 0x20 ADD PUSH2 0x408F PUSH4 0x3684B4B PUSH8 0xDE0B6B3A7640000 PUSH2 0x5306 JUMP JUMPDEST DUP2 MSTORE PUSH1 0x20 ADD PUSH2 0x40AA PUSH4 0x3684B4B PUSH8 0xDE0B6B3A7640000 PUSH2 0x5306 JUMP JUMPDEST DUP2 MSTORE PUSH1 0x20 ADD PUSH2 0x40C5 PUSH4 0x3684B4B PUSH8 0xDE0B6B3A7640000 PUSH2 0x5306 JUMP JUMPDEST DUP2 MSTORE PUSH1 0x20 ADD PUSH2 0x40E0 PUSH4 0x3684B4B PUSH8 0xDE0B6B3A7640000 PUSH2 0x5306 JUMP JUMPDEST DUP2 MSTORE PUSH1 0x20 ADD PUSH2 0x40FB PUSH4 0x3684B4B PUSH8 0xDE0B6B3A7640000 PUSH2 0x5306 JUMP JUMPDEST DUP2 MSTORE PUSH1 0x20 ADD PUSH2 0x4116 PUSH4 0x3684B4B PUSH8 0xDE0B6B3A7640000 PUSH2 0x5306 JUMP JUMPDEST DUP2 MSTORE PUSH1 0x20 ADD PUSH2 0x4131 PUSH4 0x3684B4B PUSH8 0xDE0B6B3A7640000 PUSH2 0x5306 JUMP JUMPDEST DUP2 MSTORE PUSH1 0x20 ADD PUSH2 0x414C PUSH4 0x3684B4B PUSH8 0xDE0B6B3A7640000 PUSH2 0x5306 JUMP JUMPDEST DUP2 MSTORE PUSH1 0x20 ADD PUSH2 0x4167 PUSH4 0x3684B4B PUSH8 0xDE0B6B3A7640000 PUSH2 0x5306 JUMP JUMPDEST DUP2 MSTORE PUSH1 0x20 ADD PUSH2 0x4182 PUSH4 0x3684B4B PUSH8 0xDE0B6B3A7640000 PUSH2 0x5306 JUMP JUMPDEST DUP2 MSTORE PUSH1 0x20 ADD PUSH2 0x419D PUSH4 0x3684B4B PUSH8 0xDE0B6B3A7640000 PUSH2 0x5306 JUMP JUMPDEST DUP2 MSTORE PUSH1 0x20 ADD PUSH2 0x41B8 PUSH4 0x3684B4B PUSH8 0xDE0B6B3A7640000 PUSH2 0x5306 JUMP JUMPDEST DUP2 MSTORE PUSH1 0x20 ADD PUSH2 0x41D3 PUSH4 0x3684B4B PUSH8 0xDE0B6B3A7640000 PUSH2 0x5306 JUMP JUMPDEST DUP2 MSTORE PUSH1 0x20 ADD PUSH2 0x41EE PUSH4 0x3684B4B PUSH8 0xDE0B6B3A7640000 PUSH2 0x5306 JUMP JUMPDEST DUP2 MSTORE PUSH1 0x20 ADD PUSH2 0x4209 PUSH4 0x3684B4B PUSH8 0xDE0B6B3A7640000 PUSH2 0x5306 JUMP JUMPDEST DUP2 MSTORE PUSH1 0x20 ADD PUSH2 0x4224 PUSH4 0x3684B4B PUSH8 0xDE0B6B3A7640000 PUSH2 0x5306 JUMP JUMPDEST DUP2 MSTORE PUSH1 0x20 ADD PUSH2 0x3A2A PUSH4 0x3684B4B PUSH8 0xDE0B6B3A7640000 PUSH2 0x5306 JUMP JUMPDEST PUSH1 0x1 PUSH1 0x1 PUSH1 0xA0 SHL SUB DUP3 AND PUSH2 0x4295 JUMPI PUSH1 0x40 MLOAD PUSH3 0x461BCD PUSH1 0xE5 SHL DUP2 MSTORE PUSH1 0x20 PUSH1 0x4 DUP3 ADD MSTORE PUSH1 0x1F PUSH1 0x24 DUP3 ADD MSTORE PUSH32 0x45524332303A206D696E7420746F20746865207A65726F206164647265737300 PUSH1 0x44 DUP3 ADD MSTORE PUSH1 0x64 ADD PUSH2 0xFD7 JUMP JUMPDEST DUP1 PUSH1 0x2 PUSH1 0x0 DUP3 DUP3 SLOAD PUSH2 0x42A7 SWAP2 SWAP1 PUSH2 0x5A7D JUMP JUMPDEST SWAP1 SWAP2 SSTORE POP POP PUSH1 0x1 PUSH1 0x1 PUSH1 0xA0 SHL SUB DUP3 AND PUSH1 0x0 SWAP1 DUP2 MSTORE PUSH1 0x20 DUP2 SWAP1 MSTORE PUSH1 0x40 DUP2 KECCAK256 DUP1 SLOAD DUP4 SWAP3 SWAP1 PUSH2 0x42D4 SWAP1 DUP5 SWAP1 PUSH2 0x5A7D JUMP JUMPDEST SWAP1 SWAP2 SSTORE POP POP PUSH1 0x40 MLOAD DUP2 DUP2 MSTORE PUSH1 0x1 PUSH1 0x1 PUSH1 0xA0 SHL SUB DUP4 AND SWAP1 PUSH1 0x0 SWAP1 PUSH32 0xDDF252AD1BE2C89B69C2B068FC378DAA952BA7F163C4A11628F55A4DF523B3EF SWAP1 PUSH1 0x20 ADD PUSH1 0x40 MLOAD DUP1 SWAP2 SUB SWAP1 LOG3 POP POP JUMP JUMPDEST PUSH1 0x1 PUSH1 0x1 PUSH1 0xA0 SHL SUB DUP3 AND PUSH2 0x439A JUMPI PUSH1 0x40 MLOAD PUSH3 0x461BCD PUSH1 0xE5 SHL DUP2 MSTORE PUSH1 0x20 PUSH1 0x4 DUP3 ADD MSTORE PUSH1 0x21 PUSH1 0x24 DUP3 ADD MSTORE PUSH32 0x45524332303A206275726E2066726F6D20746865207A65726F20616464726573 PUSH1 0x44 DUP3 ADD MSTORE PUSH32 0x7300000000000000000000000000000000000000000000000000000000000000 PUSH1 0x64 DUP3 ADD MSTORE PUSH1 0x84 ADD PUSH2 0xFD7 JUMP JUMPDEST PUSH1 0x1 PUSH1 0x1 PUSH1 0xA0 SHL SUB DUP3 AND PUSH1 0x0 SWAP1 DUP2 MSTORE PUSH1 0x13 PUSH1 0x20 MSTORE PUSH1 0x40 SWAP1 KECCAK256 SLOAD DUP2 DUP2 LT ISZERO PUSH2 0x4429 JUMPI PUSH1 0x40 MLOAD PUSH3 0x461BCD PUSH1 0xE5 SHL DUP2 MSTORE PUSH1 0x20 PUSH1 0x4 DUP3 ADD MSTORE PUSH1 0x22 PUSH1 0x24 DUP3 ADD MSTORE PUSH32 0x45524332303A206275726E20616D6F756E7420657863656564732062616C616E PUSH1 0x44 DUP3 ADD MSTORE PUSH32 0x6365000000000000000000000000000000000000000000000000000000000000 PUSH1 0x64 DUP3 ADD MSTORE PUSH1 0x84 ADD PUSH2 0xFD7 JUMP JUMPDEST PUSH1 0x1 PUSH1 0x1 PUSH1 0xA0 SHL SUB DUP4 AND PUSH1 0x0 SWAP1 DUP2 MSTORE PUSH1 0x13 PUSH1 0x20 MSTORE PUSH1 0x40 DUP2 KECCAK256 DUP4 DUP4 SUB SWAP1 SSTORE PUSH1 0x15 DUP1 SLOAD DUP5 SWAP3 SWAP1 PUSH2 0x4458 SWAP1 DUP5 SWAP1 PUSH2 0x5A50 JUMP JUMPDEST SWAP1 SWAP2 SSTORE POP POP PUSH1 0x40 MLOAD DUP3 DUP2 MSTORE PUSH1 0x0 SWAP1 PUSH1 0x1 PUSH1 0x1 PUSH1 0xA0 SHL SUB DUP6 AND SWAP1 PUSH32 0xDDF252AD1BE2C89B69C2B068FC378DAA952BA7F163C4A11628F55A4DF523B3EF SWAP1 PUSH1 0x20 ADD PUSH2 0x3524 JUMP JUMPDEST PUSH1 0x1 PUSH1 0x1 PUSH1 0xA0 SHL SUB DUP1 DUP3 AND PUSH1 0x0 SWAP1 DUP2 MSTORE PUSH1 0xE PUSH1 0x20 SWAP1 DUP2 MSTORE PUSH1 0x40 DUP1 DUP4 KECCAK256 DUP2 MLOAD PUSH2 0x140 DUP2 ADD DUP4 MSTORE DUP2 SLOAD DUP7 AND PUSH1 0x60 DUP3 ADD SWAP1 DUP2 MSTORE PUSH1 0x1 DUP4 ADD SLOAD PUSH1 0x80 DUP4 ADD DUP2 SWAP1 MSTORE PUSH1 0x2 DUP5 ADD SLOAD PUSH1 0xA0 DUP5 ADD MSTORE PUSH1 0x3 DUP5 ADD SLOAD PUSH1 0xC0 DUP5 ADD MSTORE PUSH1 0x4 DUP5 ADD SLOAD PUSH1 0xE0 DUP5 ADD MSTORE PUSH1 0x5 DUP5 ADD SLOAD PUSH2 0x100 DUP5 ADD MSTORE PUSH1 0x6 DUP5 ADD SLOAD PUSH2 0x120 DUP5 ADD MSTORE SWAP1 DUP3 MSTORE PUSH1 0x7 DUP4 ADD SLOAD SWAP1 SWAP7 AND SWAP4 DUP2 ADD SWAP4 SWAP1 SWAP4 MSTORE PUSH1 0x8 ADD SLOAD SWAP1 DUP3 ADD MSTORE SWAP1 SWAP2 PUSH2 0x4573 JUMPI PUSH1 0x40 MLOAD PUSH3 0x461BCD PUSH1 0xE5 SHL DUP2 MSTORE PUSH1 0x20 PUSH1 0x4 DUP3 ADD MSTORE PUSH1 0xE PUSH1 0x24 DUP3 ADD MSTORE PUSH32 0x4E6F207374616B6520666F756E64000000000000000000000000000000000000 PUSH1 0x44 DUP3 ADD MSTORE PUSH1 0x64 ADD PUSH2 0xFD7 JUMP JUMPDEST PUSH1 0x0 PUSH2 0x4582 DUP3 PUSH1 0x40 ADD MLOAD PUSH2 0x52CB JUMP JUMPDEST GT PUSH2 0x45CF JUMPI PUSH1 0x40 MLOAD PUSH3 0x461BCD PUSH1 0xE5 SHL DUP2 MSTORE PUSH1 0x20 PUSH1 0x4 DUP3 ADD MSTORE PUSH1 0x15 PUSH1 0x24 DUP3 ADD MSTORE PUSH32 0x436C61696D61626C65206F6E63652061207765656B0000000000000000000000 PUSH1 0x44 DUP3 ADD MSTORE PUSH1 0x64 ADD PUSH2 0xFD7 JUMP JUMPDEST DUP1 MLOAD PUSH1 0x0 PUSH1 0x80 SWAP1 SWAP2 ADD MSTORE TIMESTAMP PUSH1 0x40 DUP3 ADD MSTORE DUP1 MLOAD PUSH1 0x20 ADD MLOAD PUSH2 0x31A7 SWAP1 PUSH2 0x52E4 JUMP JUMPDEST PUSH1 0x5 DUP1 SLOAD PUSH1 0x1 PUSH1 0x1 PUSH1 0xA0 SHL SUB DUP4 DUP2 AND PUSH1 0x1 PUSH1 0x1 PUSH1 0xA0 SHL SUB NOT DUP4 AND DUP2 OR SWAP1 SWAP4 SSTORE PUSH1 0x40 MLOAD SWAP2 AND SWAP2 SWAP1 DUP3 SWAP1 PUSH32 0x8BE0079C531659141344CD1FD0A4F28419497F9722A3DAAFE3B4186F6B6457E0 SWAP1 PUSH1 0x0 SWAP1 LOG3 POP POP JUMP JUMPDEST PUSH1 0x0 DUP4 GT PUSH2 0x4690 JUMPI PUSH1 0x40 MLOAD PUSH3 0x461BCD PUSH1 0xE5 SHL DUP2 MSTORE PUSH1 0x20 PUSH1 0x4 DUP3 ADD MSTORE PUSH1 0x14 PUSH1 0x24 DUP3 ADD MSTORE PUSH32 0x43616E6E6F74207374616B65206E6F7468696E67000000000000000000000000 PUSH1 0x44 DUP3 ADD MSTORE PUSH1 0x64 ADD PUSH2 0xFD7 JUMP JUMPDEST PUSH1 0x1 PUSH1 0x1 PUSH1 0xA0 SHL SUB DUP5 AND PUSH1 0x0 SWAP1 DUP2 MSTORE PUSH1 0xE PUSH1 0x20 MSTORE PUSH1 0x40 SWAP1 KECCAK256 PUSH1 0x1 ADD SLOAD ISZERO PUSH2 0x46F9 JUMPI PUSH1 0x40 MLOAD PUSH3 0x461BCD PUSH1 0xE5 SHL DUP2 MSTORE PUSH1 0x20 PUSH1 0x4 DUP3 ADD MSTORE PUSH1 0x10 PUSH1 0x24 DUP3 ADD MSTORE PUSH32 0x557365722069732061207374616B657200000000000000000000000000000000 PUSH1 0x44 DUP3 ADD MSTORE PUSH1 0x64 ADD PUSH2 0xFD7 JUMP JUMPDEST PUSH1 0x1 PUSH1 0xB PUSH1 0x0 DUP3 DUP3 SLOAD PUSH2 0x470C SWAP2 SWAP1 PUSH2 0x5A7D JUMP JUMPDEST SWAP1 SWAP2 SSTORE POP POP PUSH1 0x1 PUSH1 0x1 PUSH1 0xA0 SHL SUB DUP5 AND PUSH1 0x0 DUP2 DUP2 MSTORE PUSH1 0xC PUSH1 0x20 SWAP1 DUP2 MSTORE PUSH1 0x40 DUP1 DUP4 KECCAK256 DUP1 SLOAD PUSH1 0xFF NOT AND PUSH1 0x1 OR SWAP1 SSTORE DUP1 MLOAD PUSH1 0xE0 DUP2 ADD DUP3 MSTORE SWAP4 DUP5 MSTORE SWAP1 DUP4 ADD DUP7 SWAP1 MSTORE TIMESTAMP SWAP1 DUP4 ADD DUP2 SWAP1 MSTORE PUSH1 0x60 DUP4 ADD DUP3 SWAP1 MSTORE PUSH1 0x80 DUP4 ADD SWAP2 SWAP1 SWAP2 MSTORE PUSH1 0xA0 DUP3 ADD DUP4 SWAP1 MSTORE SWAP1 PUSH1 0xC0 DUP2 ADD PUSH2 0x4774 DUP4 DUP7 PUSH2 0x5A7D JUMP JUMPDEST SWAP1 MSTORE PUSH1 0x1 PUSH1 0x1 PUSH1 0xA0 SHL SUB DUP7 DUP2 AND PUSH1 0x0 DUP2 DUP2 MSTORE PUSH1 0xE PUSH1 0x20 SWAP1 DUP2 MSTORE PUSH1 0x40 SWAP2 DUP3 SWAP1 KECCAK256 DUP6 MLOAD DUP2 SLOAD PUSH1 0x1 PUSH1 0x1 PUSH1 0xA0 SHL SUB NOT AND SWAP6 AND SWAP5 SWAP1 SWAP5 OR DUP5 SSTORE DUP5 ADD MLOAD PUSH1 0x1 DUP5 ADD SSTORE DUP4 ADD MLOAD PUSH1 0x2 DUP4 ADD SSTORE PUSH1 0x60 DUP4 ADD MLOAD PUSH1 0x3 DUP4 ADD SSTORE PUSH1 0x80 DUP4 ADD MLOAD PUSH1 0x4 DUP4 ADD SSTORE PUSH1 0xA0 DUP4 ADD MLOAD PUSH1 0x5 DUP4 ADD SSTORE PUSH1 0xC0 SWAP1 SWAP3 ADD MLOAD PUSH1 0x6 SWAP1 SWAP2 ADD SSTORE PUSH32 0xB4CAAF29ADDA3EEFEE3AD552A8E85058589BF834C7466CAE4EE58787F70589ED DUP6 DUP4 PUSH2 0x4810 DUP2 DUP9 PUSH2 0x5A7D JUMP JUMPDEST PUSH1 0x40 DUP1 MLOAD SWAP4 DUP5 MSTORE PUSH1 0x20 DUP5 ADD SWAP3 SWAP1 SWAP3 MSTORE SWAP1 DUP3 ADD MSTORE PUSH1 0x60 ADD PUSH1 0x40 MLOAD DUP1 SWAP2 SUB SWAP1 LOG2 POP POP POP POP POP JUMP JUMPDEST PUSH1 0x1 PUSH1 0x1 PUSH1 0xA0 SHL SUB DUP2 AND PUSH1 0x0 SWAP1 DUP2 MSTORE PUSH1 0x12 PUSH1 0x20 MSTORE PUSH1 0x40 DUP2 KECCAK256 PUSH1 0x1 ADD SLOAD PUSH2 0x489D JUMPI PUSH1 0x40 MLOAD PUSH3 0x461BCD PUSH1 0xE5 SHL DUP2 MSTORE PUSH1 0x20 PUSH1 0x4 DUP3 ADD MSTORE PUSH1 0x1B PUSH1 0x24 DUP3 ADD MSTORE PUSH32 0x5072697661746553616C653A206E6F20746F6B656E73206C6566740000000000 PUSH1 0x44 DUP3 ADD MSTORE PUSH1 0x64 ADD PUSH2 0xFD7 JUMP JUMPDEST PUSH1 0x0 PUSH2 0x48A8 DUP4 PUSH2 0x5312 JUMP JUMPDEST SWAP1 POP PUSH1 0x0 DUP2 GT PUSH2 0x4920 JUMPI PUSH1 0x40 MLOAD PUSH3 0x461BCD PUSH1 0xE5 SHL DUP2 MSTORE PUSH1 0x20 PUSH1 0x4 DUP3 ADD MSTORE PUSH1 0x21 PUSH1 0x24 DUP3 ADD MSTORE PUSH32 0x5072697661746553616C653A206E6F20746F6B656E7320746F2072656C656173 PUSH1 0x44 DUP3 ADD MSTORE PUSH32 0x6500000000000000000000000000000000000000000000000000000000000000 PUSH1 0x64 DUP3 ADD MSTORE PUSH1 0x84 ADD PUSH2 0xFD7 JUMP JUMPDEST PUSH2 0x496B PUSH1 0x12 PUSH1 0x0 DUP6 PUSH1 0x1 PUSH1 0x1 PUSH1 0xA0 SHL SUB AND PUSH1 0x1 PUSH1 0x1 PUSH1 0xA0 SHL SUB AND DUP2 MSTORE PUSH1 0x20 ADD SWAP1 DUP2 MSTORE PUSH1 0x20 ADD PUSH1 0x0 KECCAK256 PUSH1 0x1 ADD SLOAD DUP3 PUSH1 0x40 MLOAD DUP1 PUSH1 0x60 ADD PUSH1 0x40 MSTORE DUP1 PUSH1 0x39 DUP2 MSTORE PUSH1 0x20 ADD PUSH2 0x5B90 PUSH1 0x39 SWAP2 CODECOPY PUSH2 0x316F JUMP JUMPDEST PUSH1 0x1 PUSH1 0x1 PUSH1 0xA0 SHL SUB SWAP1 SWAP4 AND PUSH1 0x0 SWAP1 DUP2 MSTORE PUSH1 0x12 PUSH1 0x20 MSTORE PUSH1 0x40 SWAP1 KECCAK256 PUSH1 0x1 ADD SWAP3 SWAP1 SWAP3 SSTORE POP SWAP1 JUMP JUMPDEST PUSH1 0x1E DUP2 GT ISZERO PUSH2 0x4A05 JUMPI PUSH1 0x40 MLOAD PUSH3 0x461BCD PUSH1 0xE5 SHL DUP2 MSTORE PUSH1 0x20 PUSH1 0x4 DUP3 ADD MSTORE PUSH1 0x24 DUP1 DUP3 ADD MSTORE PUSH32 0x50656E616C7479206665652063616E6E6F742065786365656420332070657263 PUSH1 0x44 DUP3 ADD MSTORE PUSH32 0x656E742E00000000000000000000000000000000000000000000000000000000 PUSH1 0x64 DUP3 ADD MSTORE PUSH1 0x84 ADD PUSH2 0xFD7 JUMP JUMPDEST PUSH1 0x6 DUP2 SWAP1 SSTORE PUSH1 0x40 MLOAD DUP2 DUP2 MSTORE PUSH32 0xCFA4F4CF1CD64D13A167A8E75605E0C0C9D6700E903D17C5DC11F593254A04A9 SWAP1 PUSH1 0x20 ADD JUMPDEST PUSH1 0x40 MLOAD DUP1 SWAP2 SUB SWAP1 LOG1 POP JUMP JUMPDEST PUSH1 0x0 PUSH2 0x4A4B PUSH2 0x31BA JUMP JUMPDEST PUSH1 0x1 PUSH1 0xB SLOAD GT PUSH2 0x4A9D JUMPI PUSH1 0x40 MLOAD PUSH3 0x461BCD PUSH1 0xE5 SHL DUP2 MSTORE PUSH1 0x20 PUSH1 0x4 DUP3 ADD MSTORE PUSH1 0x11 PUSH1 0x24 DUP3 ADD MSTORE PUSH32 0x4E6F7420656E6F75676820766F74657273000000000000000000000000000000 PUSH1 0x44 DUP3 ADD MSTORE PUSH1 0x64 ADD PUSH2 0xFD7 JUMP JUMPDEST PUSH1 0x0 PUSH2 0x4AAF PUSH2 0x3D17 PUSH1 0xB SLOAD PUSH1 0x5 PUSH2 0x5306 JUMP JUMPDEST PUSH1 0xA SLOAD PUSH1 0x0 SWAP1 DUP2 MSTORE PUSH1 0xD PUSH1 0x20 MSTORE PUSH1 0x40 SWAP1 KECCAK256 SLOAD SWAP1 SWAP2 POP DUP2 LT ISZERO PUSH2 0x4AD3 JUMPI PUSH1 0x1 SWAP2 POP POP SWAP1 JUMP JUMPDEST PUSH1 0x0 SWAP2 POP POP SWAP1 JUMP JUMPDEST PUSH2 0x4AE3 PUSH2 0x31BA JUMP JUMPDEST PUSH1 0x9 DUP1 SLOAD PUSH1 0xFF NOT AND SWAP1 SSTORE JUMP JUMPDEST PUSH2 0x4AF7 PUSH2 0x5732 JUMP JUMPDEST PUSH1 0x40 MLOAD DUP1 PUSH2 0x660 ADD PUSH1 0x40 MSTORE DUP1 PUSH2 0x4B18 PUSH3 0x42B0C1 PUSH8 0xDE0B6B3A7640000 PUSH2 0x5306 JUMP JUMPDEST DUP2 MSTORE PUSH1 0x20 ADD PUSH2 0x4B32 PUSH3 0x42B0C1 PUSH8 0xDE0B6B3A7640000 PUSH2 0x5306 JUMP JUMPDEST DUP2 MSTORE PUSH1 0x20 ADD PUSH2 0x4B4C PUSH3 0x42B0C1 PUSH8 0xDE0B6B3A7640000 PUSH2 0x5306 JUMP JUMPDEST DUP2 MSTORE PUSH1 0x20 ADD PUSH2 0x4B66 PUSH3 0x42B0C1 PUSH8 0xDE0B6B3A7640000 PUSH2 0x5306 JUMP JUMPDEST DUP2 MSTORE PUSH1 0x20 ADD PUSH2 0x4B80 PUSH3 0x42B0C1 PUSH8 0xDE0B6B3A7640000 PUSH2 0x5306 JUMP JUMPDEST DUP2 MSTORE PUSH1 0x20 ADD PUSH2 0x4B9A PUSH3 0x42B0C1 PUSH8 0xDE0B6B3A7640000 PUSH2 0x5306 JUMP JUMPDEST DUP2 MSTORE PUSH1 0x20 ADD PUSH2 0x4BB4 PUSH3 0x42B0C1 PUSH8 0xDE0B6B3A7640000 PUSH2 0x5306 JUMP JUMPDEST DUP2 MSTORE PUSH1 0x20 ADD PUSH2 0x4BCE PUSH3 0x42B0C1 PUSH8 0xDE0B6B3A7640000 PUSH2 0x5306 JUMP JUMPDEST DUP2 MSTORE PUSH1 0x20 ADD PUSH2 0x4BE8 PUSH3 0x42B0C1 PUSH8 0xDE0B6B3A7640000 PUSH2 0x5306 JUMP JUMPDEST DUP2 MSTORE PUSH1 0x20 ADD PUSH2 0x4C02 PUSH3 0x42B0C1 PUSH8 0xDE0B6B3A7640000 PUSH2 0x5306 JUMP JUMPDEST DUP2 MSTORE PUSH1 0x20 ADD PUSH2 0x4C1C PUSH3 0x42B0C1 PUSH8 0xDE0B6B3A7640000 PUSH2 0x5306 JUMP JUMPDEST DUP2 MSTORE PUSH1 0x20 ADD PUSH2 0x4C36 PUSH3 0x42B0C1 PUSH8 0xDE0B6B3A7640000 PUSH2 0x5306 JUMP JUMPDEST DUP2 MSTORE PUSH1 0x20 ADD PUSH2 0x4C50 PUSH3 0x42B0C1 PUSH8 0xDE0B6B3A7640000 PUSH2 0x5306 JUMP JUMPDEST DUP2 MSTORE PUSH1 0x20 ADD PUSH2 0x4C6A PUSH3 0x42B0C1 PUSH8 0xDE0B6B3A7640000 PUSH2 0x5306 JUMP JUMPDEST DUP2 MSTORE PUSH1 0x20 ADD PUSH2 0x4C84 PUSH3 0x42B0C1 PUSH8 0xDE0B6B3A7640000 PUSH2 0x5306 JUMP JUMPDEST DUP2 MSTORE PUSH1 0x20 ADD PUSH2 0x4C9E PUSH3 0x42B0C1 PUSH8 0xDE0B6B3A7640000 PUSH2 0x5306 JUMP JUMPDEST DUP2 MSTORE PUSH1 0x20 ADD PUSH2 0x4CB9 PUSH4 0x320490C PUSH8 0xDE0B6B3A7640000 PUSH2 0x5306 JUMP JUMPDEST DUP2 MSTORE PUSH1 0x20 ADD PUSH2 0x4CD4 PUSH4 0x320490C PUSH8 0xDE0B6B3A7640000 PUSH2 0x5306 JUMP JUMPDEST DUP2 MSTORE PUSH1 0x20 ADD PUSH2 0x4CEF PUSH4 0x320490C PUSH8 0xDE0B6B3A7640000 PUSH2 0x5306 JUMP JUMPDEST DUP2 MSTORE PUSH1 0x20 ADD PUSH2 0x4D0A PUSH4 0x320490C PUSH8 0xDE0B6B3A7640000 PUSH2 0x5306 JUMP JUMPDEST DUP2 MSTORE PUSH1 0x20 ADD PUSH2 0x4D25 PUSH4 0x320490C PUSH8 0xDE0B6B3A7640000 PUSH2 0x5306 JUMP JUMPDEST DUP2 MSTORE PUSH1 0x20 ADD PUSH2 0x4D40 PUSH4 0x320490C PUSH8 0xDE0B6B3A7640000 PUSH2 0x5306 JUMP JUMPDEST DUP2 MSTORE PUSH1 0x20 ADD PUSH2 0x4D5B PUSH4 0x320490C PUSH8 0xDE0B6B3A7640000 PUSH2 0x5306 JUMP JUMPDEST DUP2 MSTORE PUSH1 0x20 ADD PUSH2 0x4D76 PUSH4 0x320490C PUSH8 0xDE0B6B3A7640000 PUSH2 0x5306 JUMP JUMPDEST DUP2 MSTORE PUSH1 0x20 ADD PUSH2 0x4D91 PUSH4 0x320490C PUSH8 0xDE0B6B3A7640000 PUSH2 0x5306 JUMP JUMPDEST DUP2 MSTORE PUSH1 0x20 ADD PUSH2 0x4DAC PUSH4 0x320490C PUSH8 0xDE0B6B3A7640000 PUSH2 0x5306 JUMP JUMPDEST DUP2 MSTORE PUSH1 0x20 ADD PUSH2 0x4DC7 PUSH4 0x320490C PUSH8 0xDE0B6B3A7640000 PUSH2 0x5306 JUMP JUMPDEST DUP2 MSTORE PUSH1 0x20 ADD PUSH2 0x4DE2 PUSH4 0x320490C PUSH8 0xDE0B6B3A7640000 PUSH2 0x5306 JUMP JUMPDEST DUP2 MSTORE PUSH1 0x20 ADD PUSH1 0x0 DUP2 MSTORE PUSH1 0x20 ADD PUSH1 0x0 DUP2 MSTORE PUSH1 0x20 ADD PUSH1 0x0 DUP2 MSTORE PUSH1 0x20 ADD PUSH1 0x0 DUP2 MSTORE PUSH1 0x20 ADD PUSH1 0x0 DUP2 MSTORE PUSH1 0x20 ADD PUSH1 0x0 DUP2 MSTORE PUSH1 0x20 ADD PUSH1 0x0 DUP2 MSTORE PUSH1 0x20 ADD PUSH1 0x0 DUP2 MSTORE PUSH1 0x20 ADD PUSH1 0x0 DUP2 MSTORE PUSH1 0x20 ADD PUSH1 0x0 DUP2 MSTORE PUSH1 0x20 ADD PUSH1 0x0 DUP2 MSTORE PUSH1 0x20 ADD PUSH1 0x0 DUP2 MSTORE PUSH1 0x20 ADD PUSH1 0x0 DUP2 MSTORE PUSH1 0x20 ADD PUSH1 0x0 DUP2 MSTORE PUSH1 0x20 ADD PUSH1 0x0 DUP2 MSTORE PUSH1 0x20 ADD PUSH1 0x0 DUP2 MSTORE PUSH1 0x20 ADD PUSH1 0x0 DUP2 MSTORE PUSH1 0x20 ADD PUSH1 0x0 DUP2 MSTORE PUSH1 0x20 ADD PUSH1 0x0 DUP2 MSTORE PUSH1 0x20 ADD PUSH1 0x0 DUP2 MSTORE PUSH1 0x20 ADD PUSH1 0x0 DUP2 MSTORE PUSH1 0x20 ADD PUSH1 0x0 DUP2 MSTORE PUSH1 0x20 ADD PUSH1 0x0 DUP2 MSTORE POP SWAP1 POP SWAP1 JUMP JUMPDEST PUSH1 0x19 SLOAD PUSH2 0x4E98 SWAP1 DUP3 PUSH2 0x31AE JUMP JUMPDEST PUSH1 0x19 SSTORE PUSH1 0x15 SLOAD PUSH2 0x4EA8 SWAP1 DUP3 PUSH2 0x31AE JUMP JUMPDEST PUSH1 0x15 SSTORE PUSH1 0x40 MLOAD DUP2 DUP2 MSTORE ADDRESS SWAP1 PUSH1 0x0 SWAP1 PUSH32 0x715128EA18BCB5A472F8187C4FBFDC1ED6D04ECDCFF67E3F546FDD075E862665 SWAP1 PUSH1 0x20 ADD PUSH2 0x1377 JUMP JUMPDEST PUSH1 0x1 PUSH1 0x1 PUSH1 0xA0 SHL SUB DUP2 AND PUSH1 0x0 SWAP1 DUP2 MSTORE PUSH1 0x12 PUSH1 0x20 MSTORE PUSH1 0x40 DUP2 KECCAK256 PUSH1 0x1 ADD SLOAD PUSH2 0x4F6E JUMPI PUSH1 0x40 MLOAD PUSH3 0x461BCD PUSH1 0xE5 SHL DUP2 MSTORE PUSH1 0x20 PUSH1 0x4 DUP3 ADD MSTORE PUSH1 0x23 PUSH1 0x24 DUP3 ADD MSTORE PUSH32 0x5072697661746553616C653A2054686973207573657220646F65736E74206578 PUSH1 0x44 DUP3 ADD MSTORE PUSH32 0x6973740000000000000000000000000000000000000000000000000000000000 PUSH1 0x64 DUP3 ADD MSTORE PUSH1 0x84 ADD PUSH2 0xFD7 JUMP JUMPDEST PUSH1 0x1 PUSH1 0xF PUSH1 0x0 DUP3 DUP3 SLOAD PUSH2 0x4F81 SWAP2 SWAP1 PUSH2 0x5A50 JUMP JUMPDEST SWAP1 SWAP2 SSTORE POP POP PUSH1 0x1 PUSH1 0x1 PUSH1 0xA0 SHL SUB DUP3 AND PUSH1 0x0 SWAP1 DUP2 MSTORE PUSH1 0x12 PUSH1 0x20 MSTORE PUSH1 0x40 DUP2 KECCAK256 PUSH1 0x1 ADD SLOAD PUSH1 0x10 DUP1 SLOAD SWAP2 SWAP3 SWAP1 SWAP2 PUSH2 0x4FB5 SWAP1 DUP5 SWAP1 PUSH2 0x5A7D JUMP JUMPDEST SWAP1 SWAP2 SSTORE POP POP POP PUSH1 0x1 PUSH1 0x1 PUSH1 0xA0 SHL SUB AND PUSH1 0x0 SWAP1 DUP2 MSTORE PUSH1 0x12 PUSH1 0x20 MSTORE PUSH1 0x40 DUP2 KECCAK256 PUSH1 0x1 DUP2 ADD DUP1 SLOAD DUP4 DUP4 SSTORE SWAP1 DUP4 SWAP1 SSTORE PUSH1 0x2 DUP3 ADD DUP1 SLOAD PUSH1 0xFF NOT AND SWAP1 SSTORE PUSH1 0x3 SWAP1 SWAP2 ADD SWAP2 SWAP1 SWAP2 SSTORE SWAP1 JUMP JUMPDEST PUSH1 0x1 PUSH1 0x1 PUSH1 0xA0 SHL SUB DUP1 DUP3 AND PUSH1 0x0 SWAP1 DUP2 MSTORE PUSH1 0xE PUSH1 0x20 SWAP1 DUP2 MSTORE PUSH1 0x40 DUP1 DUP4 KECCAK256 DUP2 MLOAD PUSH1 0xE0 DUP2 ADD DUP4 MSTORE DUP2 SLOAD SWAP1 SWAP6 AND DUP6 MSTORE PUSH1 0x1 DUP2 ADD SLOAD SWAP3 DUP6 ADD SWAP3 SWAP1 SWAP3 MSTORE PUSH1 0x2 DUP3 ADD SLOAD SWAP1 DUP5 ADD MSTORE PUSH1 0x3 DUP2 ADD SLOAD PUSH1 0x60 DUP5 ADD MSTORE PUSH1 0x4 DUP2 ADD SLOAD PUSH1 0x80 DUP5 ADD MSTORE PUSH1 0x5 DUP2 ADD SLOAD PUSH1 0xA0 DUP5 ADD MSTORE PUSH1 0x6 ADD SLOAD PUSH1 0xC0 DUP4 ADD MSTORE SWAP1 DUP2 SWAP1 DUP2 PUSH2 0x506B DUP3 PUSH2 0x5238 JUMP JUMPDEST PUSH1 0x1 PUSH1 0x1 PUSH1 0xA0 SHL SUB DUP7 AND PUSH1 0x0 SWAP1 DUP2 MSTORE PUSH1 0xE PUSH1 0x20 MSTORE PUSH1 0x40 DUP2 KECCAK256 DUP1 SLOAD PUSH1 0x1 PUSH1 0x1 PUSH1 0xA0 SHL SUB NOT SWAP1 DUP2 AND DUP3 SSTORE PUSH1 0x1 DUP3 ADD DUP4 SWAP1 SSTORE PUSH1 0x2 DUP3 ADD DUP4 SWAP1 SSTORE PUSH1 0x3 DUP3 ADD DUP4 SWAP1 SSTORE PUSH1 0x4 DUP3 ADD DUP4 SWAP1 SSTORE PUSH1 0x5 DUP3 ADD DUP4 SWAP1 SSTORE PUSH1 0x6 DUP3 ADD DUP4 SWAP1 SSTORE PUSH1 0x7 DUP3 ADD DUP1 SLOAD SWAP1 SWAP2 AND SWAP1 SSTORE PUSH1 0x8 ADD SSTORE PUSH1 0xC0 DUP4 ADD MLOAD SWAP1 SWAP2 POP TIMESTAMP LT ISZERO PUSH2 0x513B JUMPI PUSH1 0x1 PUSH1 0xB PUSH1 0x0 DUP3 DUP3 SLOAD PUSH2 0x50EE SWAP2 SWAP1 PUSH2 0x5A50 JUMP JUMPDEST SWAP1 SWAP2 SSTORE POP POP PUSH1 0x1 PUSH1 0x1 PUSH1 0xA0 SHL SUB DUP6 AND PUSH1 0x0 SWAP1 DUP2 MSTORE PUSH1 0xC PUSH1 0x20 SWAP1 DUP2 MSTORE PUSH1 0x40 DUP1 DUP4 KECCAK256 PUSH1 0xA SLOAD DUP5 MSTORE PUSH1 0x1 ADD DUP3 MSTORE SWAP1 SWAP2 KECCAK256 DUP1 SLOAD PUSH1 0xFF NOT AND SWAP1 SSTORE DUP3 ADD MLOAD PUSH2 0x5130 SWAP1 DUP3 PUSH2 0x559F JUMP JUMPDEST SWAP4 POP SWAP4 POP POP POP SWAP2 POP SWAP2 JUMP JUMPDEST PUSH1 0x1 PUSH1 0xB PUSH1 0x0 DUP3 DUP3 SLOAD PUSH2 0x514E SWAP2 SWAP1 PUSH2 0x5A50 JUMP JUMPDEST SWAP1 SWAP2 SSTORE POP POP PUSH1 0x1 PUSH1 0x1 PUSH1 0xA0 SHL SUB SWAP1 SWAP5 AND PUSH1 0x0 SWAP1 DUP2 MSTORE PUSH1 0xC PUSH1 0x20 SWAP1 DUP2 MSTORE PUSH1 0x40 DUP1 DUP4 KECCAK256 PUSH1 0xA SLOAD DUP5 MSTORE PUSH1 0x1 ADD DUP3 MSTORE SWAP1 SWAP2 KECCAK256 DUP1 SLOAD PUSH1 0xFF NOT AND SWAP1 SSTORE ADD MLOAD SWAP4 SWAP2 POP POP JUMP JUMPDEST PUSH1 0xC8 DUP2 GT ISZERO PUSH2 0x5203 JUMPI PUSH1 0x40 MLOAD PUSH3 0x461BCD PUSH1 0xE5 SHL DUP2 MSTORE PUSH1 0x20 PUSH1 0x4 DUP3 ADD MSTORE PUSH1 0x2C PUSH1 0x24 DUP3 ADD MSTORE PUSH32 0x41697264726F702050657263656E746167652063616E6E6F7420657863656564 PUSH1 0x44 DUP3 ADD MSTORE PUSH32 0x2032302070657263656E742E0000000000000000000000000000000000000000 PUSH1 0x64 DUP3 ADD MSTORE PUSH1 0x84 ADD PUSH2 0xFD7 JUMP JUMPDEST PUSH1 0x7 DUP2 SWAP1 SSTORE PUSH1 0x40 MLOAD DUP2 DUP2 MSTORE PUSH32 0xCC672F1026B958C0CFBFDD89EBE8DDCBC127F16EC24DA6C2C7A4DE26A8B1857E SWAP1 PUSH1 0x20 ADD PUSH2 0x4A36 JUMP JUMPDEST PUSH1 0x0 DUP2 PUSH1 0x20 ADD MLOAD PUSH1 0x0 EQ ISZERO PUSH2 0x524F JUMPI POP PUSH1 0x0 SWAP2 SWAP1 POP JUMP JUMPDEST PUSH11 0x52B7D2DCC80CD2E4000000 PUSH2 0x5268 DUP4 PUSH1 0x40 ADD MLOAD PUSH2 0x55E4 JUMP JUMPDEST DUP4 PUSH1 0xA0 ADD MLOAD DUP5 PUSH1 0x20 ADD MLOAD PUSH2 0x527C SWAP2 SWAP1 PUSH2 0x5B50 JUMP JUMPDEST PUSH2 0x5286 SWAP2 SWAP1 PUSH2 0x5B50 JUMP JUMPDEST PUSH2 0x5290 SWAP2 SWAP1 PUSH2 0x5B2E JUMP JUMPDEST SWAP3 SWAP2 POP POP JUMP JUMPDEST PUSH1 0x0 DUP1 PUSH2 0x52B0 PUSH2 0x52A8 DUP6 PUSH1 0x6 SLOAD PUSH2 0x5306 JUMP JUMPDEST PUSH2 0x3E8 PUSH2 0x319B JUMP JUMPDEST PUSH2 0x52BF PUSH2 0x52A8 DUP6 PUSH1 0x6 SLOAD PUSH2 0x5306 JUMP JUMPDEST SWAP2 POP SWAP2 POP JUMPDEST SWAP3 POP SWAP3 SWAP1 POP JUMP JUMPDEST PUSH1 0x0 PUSH2 0x5290 PUSH3 0x93A80 PUSH2 0x52DE DUP5 TIMESTAMP PUSH2 0x5A50 JUMP JUMPDEST SWAP1 PUSH2 0x319B JUMP JUMPDEST PUSH1 0x0 PUSH4 0x1DFE200 PUSH2 0x3E8 PUSH1 0x7 SLOAD DUP5 PUSH2 0x52FC SWAP2 SWAP1 PUSH2 0x5B50 JUMP JUMPDEST PUSH2 0x5286 SWAP2 SWAP1 PUSH2 0x5B2E JUMP JUMPDEST PUSH1 0x0 PUSH2 0x31A7 DUP3 DUP5 PUSH2 0x5B50 JUMP JUMPDEST PUSH1 0x0 DUP1 PUSH1 0x0 PUSH3 0x15180 PUSH1 0x11 SLOAD TIMESTAMP PUSH2 0x5329 SWAP2 SWAP1 PUSH2 0x5A50 JUMP JUMPDEST PUSH2 0x5333 SWAP2 SWAP1 PUSH2 0x5B2E JUMP JUMPDEST SWAP1 POP PUSH2 0x1E0 DUP2 LT ISZERO PUSH2 0x53F7 JUMPI PUSH1 0x1 PUSH1 0x1 PUSH1 0xA0 SHL SUB DUP5 AND PUSH1 0x0 SWAP1 DUP2 MSTORE PUSH1 0x12 PUSH1 0x20 MSTORE PUSH1 0x40 SWAP1 KECCAK256 PUSH1 0x2 ADD SLOAD PUSH1 0xFF AND PUSH2 0x53D1 JUMPI PUSH1 0x1 PUSH1 0x1 PUSH1 0xA0 SHL SUB DUP5 AND PUSH1 0x0 SWAP1 DUP2 MSTORE PUSH1 0x12 PUSH1 0x20 MSTORE PUSH1 0x40 SWAP1 KECCAK256 SLOAD PUSH2 0x53A8 SWAP1 PUSH2 0x53A1 SWAP1 PUSH2 0x5399 SWAP1 PUSH11 0x3CB5FEEC27901169E00000 SWAP1 PUSH2 0x5306 JUMP JUMPDEST PUSH1 0x10 SLOAD PUSH2 0x319B JUMP JUMPDEST DUP4 SWAP1 PUSH2 0x31AE JUMP JUMPDEST PUSH1 0x1 PUSH1 0x1 PUSH1 0xA0 SHL SUB DUP6 AND PUSH1 0x0 SWAP1 DUP2 MSTORE PUSH1 0x12 PUSH1 0x20 MSTORE PUSH1 0x40 SWAP1 KECCAK256 PUSH1 0x2 ADD DUP1 SLOAD PUSH1 0xFF NOT AND PUSH1 0x1 OR SWAP1 SSTORE SWAP2 POP JUMPDEST PUSH1 0x1 PUSH1 0x1 PUSH1 0xA0 SHL SUB DUP5 AND PUSH1 0x0 SWAP1 DUP2 MSTORE PUSH1 0x12 PUSH1 0x20 MSTORE PUSH1 0x40 SWAP1 KECCAK256 PUSH2 0x1C2 PUSH1 0x3 SWAP1 SWAP2 ADD SSTORE PUSH2 0x5525 JUMP JUMPDEST PUSH2 0x1E0 DUP2 LT ISZERO DUP1 ISZERO PUSH2 0x540A JUMPI POP PUSH2 0x348 DUP2 LT JUMPDEST ISZERO PUSH2 0x5525 JUMPI PUSH1 0x1 PUSH1 0x1 PUSH1 0xA0 SHL SUB DUP5 AND PUSH1 0x0 SWAP1 DUP2 MSTORE PUSH1 0x12 PUSH1 0x20 MSTORE PUSH1 0x40 SWAP1 KECCAK256 PUSH1 0x2 ADD SLOAD PUSH1 0xFF AND PUSH2 0x5492 JUMPI PUSH1 0x1 PUSH1 0x1 PUSH1 0xA0 SHL SUB DUP5 AND PUSH1 0x0 SWAP1 DUP2 MSTORE PUSH1 0x12 PUSH1 0x20 MSTORE PUSH1 0x40 SWAP1 KECCAK256 SLOAD PUSH2 0x5469 SWAP1 PUSH2 0x53A1 SWAP1 PUSH2 0x5399 SWAP1 PUSH11 0x3CB5FEEC27901169E00000 SWAP1 PUSH2 0x5306 JUMP JUMPDEST PUSH1 0x1 PUSH1 0x1 PUSH1 0xA0 SHL SUB DUP6 AND PUSH1 0x0 SWAP1 DUP2 MSTORE PUSH1 0x12 PUSH1 0x20 MSTORE PUSH1 0x40 SWAP1 KECCAK256 PUSH1 0x2 ADD DUP1 SLOAD PUSH1 0xFF NOT AND PUSH1 0x1 OR SWAP1 SSTORE SWAP2 POP JUMPDEST PUSH1 0x1 PUSH1 0x1 PUSH1 0xA0 SHL SUB DUP5 AND PUSH1 0x0 SWAP1 DUP2 MSTORE PUSH1 0x12 PUSH1 0x20 MSTORE PUSH1 0x40 DUP2 KECCAK256 PUSH1 0x3 ADD SLOAD PUSH2 0x54B8 SWAP1 DUP4 PUSH2 0x5A50 JUMP JUMPDEST PUSH1 0x1 PUSH1 0x1 PUSH1 0xA0 SHL SUB DUP7 AND PUSH1 0x0 SWAP1 DUP2 MSTORE PUSH1 0x12 PUSH1 0x20 MSTORE PUSH1 0x40 SWAP1 KECCAK256 SLOAD SWAP1 SWAP2 POP PUSH2 0x54F9 SWAP1 PUSH2 0x54F2 SWAP1 PUSH2 0x5399 SWAP1 PUSH11 0x3290914BE1AFB75080000 SWAP1 PUSH2 0x5306 JUMP JUMPDEST DUP5 SWAP1 PUSH2 0x31AE JUMP JUMPDEST PUSH2 0x5503 SWAP1 DUP3 PUSH2 0x5B50 JUMP JUMPDEST PUSH1 0x1 PUSH1 0x1 PUSH1 0xA0 SHL SUB DUP7 AND PUSH1 0x0 SWAP1 DUP2 MSTORE PUSH1 0x12 PUSH1 0x20 MSTORE PUSH1 0x40 SWAP1 KECCAK256 PUSH1 0x3 ADD DUP4 SWAP1 SSTORE SWAP3 POP POP JUMPDEST DUP2 PUSH2 0x5598 JUMPI PUSH1 0x40 MLOAD PUSH3 0x461BCD PUSH1 0xE5 SHL DUP2 MSTORE PUSH1 0x20 PUSH1 0x4 DUP3 ADD MSTORE PUSH1 0x29 PUSH1 0x24 DUP3 ADD MSTORE PUSH32 0x5072697661746553616C653A2054686572652773206E6F7468696E6720746F20 PUSH1 0x44 DUP3 ADD MSTORE PUSH32 0x636C61696D207965740000000000000000000000000000000000000000000000 PUSH1 0x64 DUP3 ADD MSTORE PUSH1 0x84 ADD PUSH2 0xFD7 JUMP JUMPDEST POP SWAP3 SWAP2 POP POP JUMP JUMPDEST PUSH1 0x0 DUP1 DUP4 PUSH2 0x55B2 JUMPI POP PUSH1 0x0 SWAP1 POP DUP1 PUSH2 0x52C4 JUMP JUMPDEST PUSH1 0x0 DUP1 PUSH2 0x55BF DUP7 DUP7 PUSH2 0x5296 JUMP JUMPDEST SWAP2 POP SWAP2 POP PUSH2 0x55CD DUP7 DUP4 PUSH2 0x33CC JUMP JUMPDEST PUSH2 0x55D7 DUP7 DUP4 PUSH2 0x33CC JUMP JUMPDEST SWAP4 POP SWAP4 POP POP POP SWAP3 POP SWAP3 SWAP1 POP JUMP JUMPDEST PUSH1 0x0 DUP1 DUP3 GT PUSH2 0x5635 JUMPI PUSH1 0x40 MLOAD PUSH3 0x461BCD PUSH1 0xE5 SHL DUP2 MSTORE PUSH1 0x20 PUSH1 0x4 DUP3 ADD MSTORE PUSH1 0x11 PUSH1 0x24 DUP3 ADD MSTORE PUSH32 0x4572726F722074696D657374616D702030000000000000000000000000000000 PUSH1 0x44 DUP3 ADD MSTORE PUSH1 0x64 ADD PUSH2 0xFD7 JUMP JUMPDEST PUSH2 0x5290 PUSH2 0x5642 DUP4 TIMESTAMP PUSH2 0x5A50 JUMP JUMPDEST PUSH2 0x5656 SWAP1 PUSH10 0xD3C21BCECCEDA1000000 PUSH2 0x5B50 JUMP JUMPDEST PUSH4 0x1E13380 PUSH1 0x40 MLOAD DUP1 PUSH1 0x40 ADD PUSH1 0x40 MSTORE DUP1 PUSH1 0x1D DUP2 MSTORE PUSH1 0x20 ADD PUSH32 0x4572726F722063616E6E6F74206469766964652074696D657374616D70000000 DUP2 MSTORE POP PUSH1 0x0 DUP2 DUP4 PUSH2 0x56B2 JUMPI PUSH1 0x40 MLOAD PUSH3 0x461BCD PUSH1 0xE5 SHL DUP2 MSTORE PUSH1 0x4 ADD PUSH2 0xFD7 SWAP2 SWAP1 PUSH2 0x5751 JUMP JUMPDEST POP DUP3 DUP5 DUP2 PUSH2 0x56C2 JUMPI PUSH2 0x56C2 PUSH2 0x5B18 JUMP JUMPDEST DIV SWAP5 SWAP4 POP POP POP POP JUMP JUMPDEST PUSH1 0x40 MLOAD DUP1 PUSH1 0x60 ADD PUSH1 0x40 MSTORE DUP1 PUSH1 0x0 DUP2 MSTORE PUSH1 0x20 ADD PUSH1 0x0 DUP2 MSTORE PUSH1 0x20 ADD PUSH2 0x572D PUSH1 0x40 MLOAD DUP1 PUSH1 0xE0 ADD PUSH1 0x40 MSTORE DUP1 PUSH1 0x0 PUSH1 0x1 PUSH1 0x1 PUSH1 0xA0 SHL SUB AND DUP2 MSTORE PUSH1 0x20 ADD PUSH1 0x0 DUP2 MSTORE PUSH1 0x20 ADD PUSH1 0x0 DUP2 MSTORE PUSH1 0x20 ADD PUSH1 0x0 DUP2 MSTORE PUSH1 0x20 ADD PUSH1 0x0 DUP2 MSTORE PUSH1 0x20 ADD PUSH1 0x0 DUP2 MSTORE PUSH1 0x20 ADD PUSH1 0x0 DUP2 MSTORE POP SWAP1 JUMP JUMPDEST SWAP1 MSTORE SWAP1 JUMP JUMPDEST PUSH1 0x40 MLOAD DUP1 PUSH2 0x660 ADD PUSH1 0x40 MSTORE DUP1 PUSH1 0x33 SWAP1 PUSH1 0x20 DUP3 MUL DUP1 CALLDATASIZE DUP4 CALLDATACOPY POP SWAP2 SWAP3 SWAP2 POP POP JUMP JUMPDEST PUSH1 0x0 PUSH1 0x20 DUP1 DUP4 MSTORE DUP4 MLOAD DUP1 DUP3 DUP6 ADD MSTORE PUSH1 0x0 JUMPDEST DUP2 DUP2 LT ISZERO PUSH2 0x577E JUMPI DUP6 DUP2 ADD DUP4 ADD MLOAD DUP6 DUP3 ADD PUSH1 0x40 ADD MSTORE DUP3 ADD PUSH2 0x5762 JUMP JUMPDEST DUP2 DUP2 GT ISZERO PUSH2 0x5790 JUMPI PUSH1 0x0 PUSH1 0x40 DUP4 DUP8 ADD ADD MSTORE JUMPDEST POP PUSH1 0x1F ADD PUSH1 0x1F NOT AND SWAP3 SWAP1 SWAP3 ADD PUSH1 0x40 ADD SWAP4 SWAP3 POP POP POP JUMP JUMPDEST PUSH1 0x0 DUP1 PUSH1 0x20 DUP4 DUP6 SUB SLT ISZERO PUSH2 0x57B9 JUMPI PUSH1 0x0 DUP1 REVERT JUMPDEST DUP3 CALLDATALOAD PUSH8 0xFFFFFFFFFFFFFFFF DUP1 DUP3 GT ISZERO PUSH2 0x57D1 JUMPI PUSH1 0x0 DUP1 REVERT JUMPDEST DUP2 DUP6 ADD SWAP2 POP DUP6 PUSH1 0x1F DUP4 ADD SLT PUSH2 0x57E5 JUMPI PUSH1 0x0 DUP1 REVERT JUMPDEST DUP2 CALLDATALOAD DUP2 DUP2 GT ISZERO PUSH2 0x57F4 JUMPI PUSH1 0x0 DUP1 REVERT JUMPDEST DUP7 PUSH1 0x20 DUP3 PUSH1 0x6 SHL DUP6 ADD ADD GT ISZERO PUSH2 0x5809 JUMPI PUSH1 0x0 DUP1 REVERT JUMPDEST PUSH1 0x20 SWAP3 SWAP1 SWAP3 ADD SWAP7 SWAP2 SWAP6 POP SWAP1 SWAP4 POP POP POP POP JUMP JUMPDEST PUSH1 0x1 PUSH1 0x1 PUSH1 0xA0 SHL SUB DUP2 AND DUP2 EQ PUSH2 0x17CD JUMPI PUSH1 0x0 DUP1 REVERT JUMPDEST PUSH1 0x0 DUP1 PUSH1 0x40 DUP4 DUP6 SUB SLT ISZERO PUSH2 0x5843 JUMPI PUSH1 0x0 DUP1 REVERT JUMPDEST DUP3 CALLDATALOAD PUSH2 0x584E DUP2 PUSH2 0x581B JUMP JUMPDEST SWAP5 PUSH1 0x20 SWAP4 SWAP1 SWAP4 ADD CALLDATALOAD SWAP4 POP POP POP JUMP JUMPDEST PUSH1 0x0 PUSH1 0x20 DUP3 DUP5 SUB SLT ISZERO PUSH2 0x586E JUMPI PUSH1 0x0 DUP1 REVERT JUMPDEST POP CALLDATALOAD SWAP2 SWAP1 POP JUMP JUMPDEST PUSH1 0x0 DUP1 PUSH1 0x0 PUSH1 0x60 DUP5 DUP7 SUB SLT ISZERO PUSH2 0x588A JUMPI PUSH1 0x0 DUP1 REVERT JUMPDEST DUP4 CALLDATALOAD PUSH2 0x5895 DUP2 PUSH2 0x581B JUMP JUMPDEST SWAP3 POP PUSH1 0x20 DUP5 ADD CALLDATALOAD PUSH2 0x58A5 DUP2 PUSH2 0x581B JUMP JUMPDEST SWAP3 SWAP6 SWAP3 SWAP5 POP POP POP PUSH1 0x40 SWAP2 SWAP1 SWAP2 ADD CALLDATALOAD SWAP1 JUMP JUMPDEST PUSH1 0x0 PUSH1 0x20 DUP3 DUP5 SUB SLT ISZERO PUSH2 0x58C8 JUMPI PUSH1 0x0 DUP1 REVERT JUMPDEST DUP2 CALLDATALOAD PUSH1 0xFF DUP2 AND DUP2 EQ PUSH2 0x31A7 JUMPI PUSH1 0x0 DUP1 REVERT JUMPDEST PUSH1 0x0 PUSH1 0x20 DUP3 DUP5 SUB SLT ISZERO PUSH2 0x58EB JUMPI PUSH1 0x0 DUP1 REVERT JUMPDEST DUP2 CALLDATALOAD PUSH2 0x31A7 DUP2 PUSH2 0x581B JUMP JUMPDEST PUSH1 0x0 DUP1 PUSH1 0x40 DUP4 DUP6 SUB SLT ISZERO PUSH2 0x5909 JUMPI PUSH1 0x0 DUP1 REVERT JUMPDEST POP POP DUP1 CALLDATALOAD SWAP3 PUSH1 0x20 SWAP1 SWAP2 ADD CALLDATALOAD SWAP2 POP JUMP JUMPDEST PUSH1 0x0 DUP1 PUSH1 0x20 DUP4 DUP6 SUB SLT ISZERO PUSH2 0x592B JUMPI PUSH1 0x0 DUP1 REVERT JUMPDEST DUP3 CALLDATALOAD PUSH8 0xFFFFFFFFFFFFFFFF DUP1 DUP3 GT ISZERO PUSH2 0x5943 JUMPI PUSH1 0x0 DUP1 REVERT JUMPDEST DUP2 DUP6 ADD SWAP2 POP DUP6 PUSH1 0x1F DUP4 ADD SLT PUSH2 0x5957 JUMPI PUSH1 0x0 DUP1 REVERT JUMPDEST DUP2 CALLDATALOAD DUP2 DUP2 GT ISZERO PUSH2 0x5966 JUMPI PUSH1 0x0 DUP1 REVERT JUMPDEST DUP7 PUSH1 0x20 DUP3 PUSH1 0x5 SHL DUP6 ADD ADD GT ISZERO PUSH2 0x5809 JUMPI PUSH1 0x0 DUP1 REVERT JUMPDEST PUSH1 0x0 DUP1 PUSH1 0x40 DUP4 DUP6 SUB SLT ISZERO PUSH2 0x598E JUMPI PUSH1 0x0 DUP1 REVERT JUMPDEST DUP3 CALLDATALOAD PUSH2 0x5999 DUP2 PUSH2 0x581B JUMP JUMPDEST SWAP2 POP PUSH1 0x20 DUP4 ADD CALLDATALOAD PUSH2 0x59A9 DUP2 PUSH2 0x581B JUMP JUMPDEST DUP1 SWAP2 POP POP SWAP3 POP SWAP3 SWAP1 POP JUMP JUMPDEST PUSH1 0x0 DUP1 PUSH1 0x0 PUSH1 0x60 DUP5 DUP7 SUB SLT ISZERO PUSH2 0x59C9 JUMPI PUSH1 0x0 DUP1 REVERT JUMPDEST DUP4 CALLDATALOAD PUSH2 0x59D4 DUP2 PUSH2 0x581B JUMP JUMPDEST SWAP3 POP PUSH1 0x20 DUP5 ADD CALLDATALOAD PUSH2 0x59E4 DUP2 PUSH2 0x581B JUMP JUMPDEST SWAP2 POP PUSH1 0x40 DUP5 ADD CALLDATALOAD PUSH2 0x59F4 DUP2 PUSH2 0x581B JUMP JUMPDEST DUP1 SWAP2 POP POP SWAP3 POP SWAP3 POP SWAP3 JUMP JUMPDEST PUSH1 0x1 DUP2 DUP2 SHR SWAP1 DUP3 AND DUP1 PUSH2 0x5A13 JUMPI PUSH1 0x7F DUP3 AND SWAP2 POP JUMPDEST PUSH1 0x20 DUP3 LT DUP2 EQ ISZERO PUSH2 0x5A34 JUMPI PUSH4 0x4E487B71 PUSH1 0xE0 SHL PUSH1 0x0 MSTORE PUSH1 0x22 PUSH1 0x4 MSTORE PUSH1 0x24 PUSH1 0x0 REVERT JUMPDEST POP SWAP2 SWAP1 POP JUMP JUMPDEST PUSH4 0x4E487B71 PUSH1 0xE0 SHL PUSH1 0x0 MSTORE PUSH1 0x11 PUSH1 0x4 MSTORE PUSH1 0x24 PUSH1 0x0 REVERT JUMPDEST PUSH1 0x0 DUP3 DUP3 LT ISZERO PUSH2 0x5A62 JUMPI PUSH2 0x5A62 PUSH2 0x5A3A JUMP JUMPDEST POP SUB SWAP1 JUMP JUMPDEST PUSH4 0x4E487B71 PUSH1 0xE0 SHL PUSH1 0x0 MSTORE PUSH1 0x32 PUSH1 0x4 MSTORE PUSH1 0x24 PUSH1 0x0 REVERT JUMPDEST PUSH1 0x0 DUP3 NOT DUP3 GT ISZERO PUSH2 0x5A90 JUMPI PUSH2 0x5A90 PUSH2 0x5A3A JUMP JUMPDEST POP ADD SWAP1 JUMP JUMPDEST PUSH1 0x0 PUSH1 0x0 NOT DUP3 EQ ISZERO PUSH2 0x5AA9 JUMPI PUSH2 0x5AA9 PUSH2 0x5A3A JUMP JUMPDEST POP PUSH1 0x1 ADD SWAP1 JUMP JUMPDEST PUSH1 0x0 PUSH1 0x20 DUP3 DUP5 SUB SLT ISZERO PUSH2 0x5AC2 JUMPI PUSH1 0x0 DUP1 REVERT JUMPDEST DUP2 MLOAD PUSH2 0x31A7 DUP2 PUSH2 0x581B JUMP JUMPDEST PUSH2 0x660 DUP2 ADD DUP2 DUP4 PUSH1 0x0 JUMPDEST PUSH1 0x33 DUP2 LT ISZERO PUSH2 0x5AF6 JUMPI DUP2 MLOAD DUP4 MSTORE PUSH1 0x20 SWAP3 DUP4 ADD SWAP3 SWAP1 SWAP2 ADD SWAP1 PUSH1 0x1 ADD PUSH2 0x5AD7 JUMP JUMPDEST POP POP POP SWAP3 SWAP2 POP POP JUMP JUMPDEST PUSH1 0x0 PUSH1 0x20 DUP3 DUP5 SUB SLT ISZERO PUSH2 0x5B11 JUMPI PUSH1 0x0 DUP1 REVERT JUMPDEST POP MLOAD SWAP2 SWAP1 POP JUMP JUMPDEST PUSH4 0x4E487B71 PUSH1 0xE0 SHL PUSH1 0x0 MSTORE PUSH1 0x12 PUSH1 0x4 MSTORE PUSH1 0x24 PUSH1 0x0 REVERT JUMPDEST PUSH1 0x0 DUP3 PUSH2 0x5B4B JUMPI PUSH4 0x4E487B71 PUSH1 0xE0 SHL PUSH1 0x0 MSTORE PUSH1 0x12 PUSH1 0x4 MSTORE PUSH1 0x24 PUSH1 0x0 REVERT JUMPDEST POP DIV SWAP1 JUMP JUMPDEST PUSH1 0x0 DUP2 PUSH1 0x0 NOT DIV DUP4 GT DUP3 ISZERO ISZERO AND ISZERO PUSH2 0x5B6A JUMPI PUSH2 0x5B6A PUSH2 0x5A3A JUMP JUMPDEST POP MUL SWAP1 JUMP INVALID 0x4F PUSH24 0x6E61626C653A2063616C6C6572206973206E6F7420746865 KECCAK256 PUSH16 0x776E65725072697661746553616C653A KECCAK256 NUMBER PUSH2 0x6E6E PUSH16 0x742073756273747261637420746F7461 PUSH13 0x20616D6F756E74207769746820 PUSH4 0x6C61696D PUSH2 0x626C PUSH6 0xA26469706673 PC 0x22 SLT KECCAK256 DUP7 DUP7 EXTCODESIZE PUSH23 0x963F5A63963B535B7027AD66EE3B1224620DD4451F1288 DIFFICULTY 0xE8 SELFBALANCE 0xEE 0x4B PUSH5 0x736F6C6343 STOP ADDMOD SIGNEXTEND STOP CALLER PUSH1 0xA0 PUSH1 0x40 MSTORE CALLVALUE DUP1 ISZERO PUSH2 0x10 JUMPI PUSH1 0x0 DUP1 REVERT JUMPDEST POP PUSH1 0x40 MLOAD PUSH2 0x5B2 CODESIZE SUB DUP1 PUSH2 0x5B2 DUP4 CODECOPY DUP2 ADD PUSH1 0x40 DUP2 SWAP1 MSTORE PUSH2 0x2F SWAP2 PUSH2 0x5C JUMP JUMPDEST PUSH1 0x0 SWAP2 SWAP1 SWAP2 SSTORE PUSH1 0x1 PUSH1 0x1 PUSH1 0xA0 SHL SUB AND PUSH1 0x80 MSTORE TIMESTAMP PUSH1 0x2 SSTORE PUSH1 0x1 DUP1 SLOAD PUSH1 0x1 PUSH1 0x1 PUSH1 0xA0 SHL SUB NOT AND CALLER OR SWAP1 SSTORE PUSH2 0x99 JUMP JUMPDEST PUSH1 0x0 DUP1 PUSH1 0x40 DUP4 DUP6 SUB SLT ISZERO PUSH2 0x6F JUMPI PUSH1 0x0 DUP1 REVERT JUMPDEST DUP3 MLOAD PUSH1 0x20 DUP5 ADD MLOAD SWAP1 SWAP3 POP PUSH1 0x1 PUSH1 0x1 PUSH1 0xA0 SHL SUB DUP2 AND DUP2 EQ PUSH2 0x8E JUMPI PUSH1 0x0 DUP1 REVERT JUMPDEST DUP1 SWAP2 POP POP SWAP3 POP SWAP3 SWAP1 POP JUMP JUMPDEST PUSH1 0x80 MLOAD PUSH2 0x4FF PUSH2 0xB3 PUSH1 0x0 CODECOPY PUSH1 0x0 PUSH1 0x71 ADD MSTORE PUSH2 0x4FF PUSH1 0x0 RETURN INVALID PUSH1 0x80 PUSH1 0x40 MSTORE CALLVALUE DUP1 ISZERO PUSH2 0x10 JUMPI PUSH1 0x0 DUP1 REVERT JUMPDEST POP PUSH1 0x4 CALLDATASIZE LT PUSH2 0x41 JUMPI PUSH1 0x0 CALLDATALOAD PUSH1 0xE0 SHR DUP1 PUSH4 0xA95606E EQ PUSH2 0x46 JUMPI DUP1 PUSH4 0x38AF3EED EQ PUSH2 0x6C JUMPI DUP1 PUSH4 0xC8CCA41E EQ PUSH2 0xB8 JUMPI JUMPDEST PUSH1 0x0 DUP1 REVERT JUMPDEST PUSH2 0x59 PUSH2 0x54 CALLDATASIZE PUSH1 0x4 PUSH2 0x319 JUMP JUMPDEST PUSH2 0xC2 JUMP JUMPDEST PUSH1 0x40 MLOAD SWAP1 DUP2 MSTORE PUSH1 0x20 ADD JUMPDEST PUSH1 0x40 MLOAD DUP1 SWAP2 SUB SWAP1 RETURN JUMPDEST PUSH2 0x93 PUSH32 0x0 DUP2 JUMP JUMPDEST PUSH1 0x40 MLOAD PUSH20 0xFFFFFFFFFFFFFFFFFFFFFFFFFFFFFFFFFFFFFFFF SWAP1 SWAP2 AND DUP2 MSTORE PUSH1 0x20 ADD PUSH2 0x63 JUMP JUMPDEST PUSH2 0xC0 PUSH2 0x1AD JUMP JUMPDEST STOP JUMPDEST PUSH1 0x0 PUSH2 0xCC PUSH2 0x1BB JUMP JUMPDEST PUSH1 0x0 DUP1 SLOAD GT PUSH2 0x122 JUMPI PUSH1 0x40 MLOAD PUSH3 0x461BCD PUSH1 0xE5 SHL DUP2 MSTORE PUSH1 0x20 PUSH1 0x4 DUP3 ADD MSTORE PUSH1 0x18 PUSH1 0x24 DUP3 ADD MSTORE PUSH32 0x4C6F636B61626C653A206E6F20746F6B656E73206C6566740000000000000000 PUSH1 0x44 DUP3 ADD MSTORE PUSH1 0x64 ADD JUMPDEST PUSH1 0x40 MLOAD DUP1 SWAP2 SUB SWAP1 REVERT JUMPDEST PUSH1 0x0 PUSH2 0x12D DUP4 PUSH2 0x224 JUMP JUMPDEST SWAP1 POP PUSH1 0x0 DUP2 GT PUSH2 0x17F JUMPI PUSH1 0x40 MLOAD PUSH3 0x461BCD PUSH1 0xE5 SHL DUP2 MSTORE PUSH1 0x20 PUSH1 0x4 DUP3 ADD MSTORE PUSH1 0x1E PUSH1 0x24 DUP3 ADD MSTORE PUSH32 0x4C6F636B61626C653A206E6F20746F6B656E7320746F2072656C656173650000 PUSH1 0x44 DUP3 ADD MSTORE PUSH1 0x64 ADD PUSH2 0x119 JUMP JUMPDEST PUSH2 0x1A4 PUSH1 0x0 SLOAD DUP3 PUSH1 0x40 MLOAD DUP1 PUSH1 0x60 ADD PUSH1 0x40 MSTORE DUP1 PUSH1 0x36 DUP2 MSTORE PUSH1 0x20 ADD PUSH2 0x494 PUSH1 0x36 SWAP2 CODECOPY PUSH2 0x2ED JUMP JUMPDEST PUSH1 0x0 SSTORE SWAP3 SWAP2 POP POP JUMP JUMPDEST PUSH2 0x1B5 PUSH2 0x1BB JUMP JUMPDEST TIMESTAMP PUSH1 0x2 SSTORE JUMP JUMPDEST PUSH1 0x1 SLOAD PUSH20 0xFFFFFFFFFFFFFFFFFFFFFFFFFFFFFFFFFFFFFFFF AND CALLER EQ PUSH2 0x222 JUMPI PUSH1 0x40 MLOAD PUSH3 0x461BCD PUSH1 0xE5 SHL DUP2 MSTORE PUSH1 0x20 PUSH1 0x4 DUP3 ADD MSTORE PUSH1 0x9 PUSH1 0x24 DUP3 ADD MSTORE PUSH32 0x4E6F74206F776E65720000000000000000000000000000000000000000000000 PUSH1 0x44 DUP3 ADD MSTORE PUSH1 0x64 ADD PUSH2 0x119 JUMP JUMPDEST JUMP JUMPDEST PUSH1 0x0 DUP1 PUSH3 0x278D00 PUSH1 0x2 SLOAD TIMESTAMP PUSH2 0x239 SWAP2 SWAP1 PUSH2 0x3BC JUMP JUMPDEST PUSH2 0x243 SWAP2 SWAP1 PUSH2 0x3D3 JUMP JUMPDEST PUSH1 0x3 SLOAD SWAP1 SWAP2 POP PUSH1 0x0 SWAP1 JUMPDEST PUSH1 0x37 DUP2 GT PUSH2 0x28A JUMPI DUP5 DUP2 PUSH1 0x33 DUP2 LT PUSH2 0x267 JUMPI PUSH2 0x267 PUSH2 0x3F5 JUMP JUMPDEST PUSH1 0x20 MUL ADD MLOAD PUSH2 0x276 SWAP1 DUP4 PUSH2 0x40B JUMP JUMPDEST SWAP2 POP DUP1 PUSH2 0x282 DUP2 PUSH2 0x423 JUMP JUMPDEST SWAP2 POP POP PUSH2 0x24D JUMP JUMPDEST POP PUSH2 0x296 DUP3 PUSH1 0x1 PUSH2 0x40B JUMP JUMPDEST PUSH1 0x3 SSTORE DUP1 PUSH2 0x2E6 JUMPI PUSH1 0x40 MLOAD PUSH3 0x461BCD PUSH1 0xE5 SHL DUP2 MSTORE PUSH1 0x20 PUSH1 0x4 DUP3 ADD MSTORE PUSH1 0x14 PUSH1 0x24 DUP3 ADD MSTORE PUSH32 0x4E6F7468696E6720746F20636C61696D20796574000000000000000000000000 PUSH1 0x44 DUP3 ADD MSTORE PUSH1 0x64 ADD PUSH2 0x119 JUMP JUMPDEST SWAP4 SWAP3 POP POP POP JUMP JUMPDEST PUSH1 0x0 DUP2 DUP5 DUP5 GT ISZERO PUSH2 0x311 JUMPI PUSH1 0x40 MLOAD PUSH3 0x461BCD PUSH1 0xE5 SHL DUP2 MSTORE PUSH1 0x4 ADD PUSH2 0x119 SWAP2 SWAP1 PUSH2 0x43E JUMP JUMPDEST POP POP POP SWAP1 SUB SWAP1 JUMP JUMPDEST PUSH1 0x0 PUSH2 0x660 DUP1 DUP4 DUP6 SUB SLT ISZERO PUSH2 0x32D JUMPI PUSH1 0x0 DUP1 REVERT JUMPDEST DUP4 PUSH1 0x1F DUP5 ADD SLT PUSH2 0x33C JUMPI PUSH1 0x0 DUP1 REVERT JUMPDEST PUSH1 0x40 MLOAD DUP2 DUP2 ADD DUP2 DUP2 LT PUSH8 0xFFFFFFFFFFFFFFFF DUP3 GT OR ISZERO PUSH2 0x36C JUMPI PUSH4 0x4E487B71 PUSH1 0xE0 SHL PUSH1 0x0 MSTORE PUSH1 0x41 PUSH1 0x4 MSTORE PUSH1 0x24 PUSH1 0x0 REVERT JUMPDEST PUSH1 0x40 MSTORE SWAP1 DUP4 ADD SWAP1 DUP1 DUP6 DUP4 GT ISZERO PUSH2 0x381 JUMPI PUSH1 0x0 DUP1 REVERT JUMPDEST DUP5 JUMPDEST DUP4 DUP2 LT ISZERO PUSH2 0x39B JUMPI DUP1 CALLDATALOAD DUP3 MSTORE PUSH1 0x20 SWAP2 DUP3 ADD SWAP2 ADD PUSH2 0x383 JUMP JUMPDEST POP SWAP1 SWAP6 SWAP5 POP POP POP POP POP JUMP JUMPDEST PUSH4 0x4E487B71 PUSH1 0xE0 SHL PUSH1 0x0 MSTORE PUSH1 0x11 PUSH1 0x4 MSTORE PUSH1 0x24 PUSH1 0x0 REVERT JUMPDEST PUSH1 0x0 DUP3 DUP3 LT ISZERO PUSH2 0x3CE JUMPI PUSH2 0x3CE PUSH2 0x3A6 JUMP JUMPDEST POP SUB SWAP1 JUMP JUMPDEST PUSH1 0x0 DUP3 PUSH2 0x3F0 JUMPI PUSH4 0x4E487B71 PUSH1 0xE0 SHL PUSH1 0x0 MSTORE PUSH1 0x12 PUSH1 0x4 MSTORE PUSH1 0x24 PUSH1 0x0 REVERT JUMPDEST POP DIV SWAP1 JUMP JUMPDEST PUSH4 0x4E487B71 PUSH1 0xE0 SHL PUSH1 0x0 MSTORE PUSH1 0x32 PUSH1 0x4 MSTORE PUSH1 0x24 PUSH1 0x0 REVERT JUMPDEST PUSH1 0x0 DUP3 NOT DUP3 GT ISZERO PUSH2 0x41E JUMPI PUSH2 0x41E PUSH2 0x3A6 JUMP JUMPDEST POP ADD SWAP1 JUMP JUMPDEST PUSH1 0x0 PUSH1 0x0 NOT DUP3 EQ ISZERO PUSH2 0x437 JUMPI PUSH2 0x437 PUSH2 0x3A6 JUMP JUMPDEST POP PUSH1 0x1 ADD SWAP1 JUMP JUMPDEST PUSH1 0x0 PUSH1 0x20 DUP1 DUP4 MSTORE DUP4 MLOAD DUP1 DUP3 DUP6 ADD MSTORE PUSH1 0x0 JUMPDEST DUP2 DUP2 LT ISZERO PUSH2 0x46B JUMPI DUP6 DUP2 ADD DUP4 ADD MLOAD DUP6 DUP3 ADD PUSH1 0x40 ADD MSTORE DUP3 ADD PUSH2 0x44F JUMP JUMPDEST DUP2 DUP2 GT ISZERO PUSH2 0x47D JUMPI PUSH1 0x0 PUSH1 0x40 DUP4 DUP8 ADD ADD MSTORE JUMPDEST POP PUSH1 0x1F ADD PUSH1 0x1F NOT AND SWAP3 SWAP1 SWAP3 ADD PUSH1 0x40 ADD SWAP4 SWAP3 POP POP POP JUMP INVALID 0x4C PUSH16 0x636B61626C653A2043616E6E6F742073 PUSH22 0x6273747261637420746F74616C20616D6F756E742077 PUSH10 0x746820636C61696D6162 PUSH13 0x65A2646970667358221220EE09 0xC5 GASLIMIT PUSH12 0xDD69A3D556A9BE26D7747AF4 SWAP14 0xB1 SELFBALANCE 0xD2 0x2C 0x25 STATICCALL DUP11 0xE7 DUP16 PUSH3 0x18A146 ORIGIN PUSH5 0x736F6C6343 STOP ADDMOD SIGNEXTEND STOP CALLER "
		},
		"gasEstimates": {
			"creation": {
				"codeDepositCost": "4710000",
				"executionCost": "infinite",
				"totalCost": "infinite"
			},
			"external": {
				"": "infinite",
				"addMultipleBeneficiary((address,uint256)[])": "infinite",
				"airdropRate()": "2353",
				"airdropSince()": "2418",
				"airdropStatus()": "2456",
				"airdropWeek()": "4625",
				"allowance(address,address)": "infinite",
				"approve(address,uint256)": "24665",
				"balanceOf(address)": "2588",
				"burn(uint256)": "50946",
				"burnFrom(address,uint256)": "infinite",
				"burnLiquidityReserve(uint256)": "infinite",
				"burnStakingReward(uint256)": "infinite",
				"changeAirdropPercentage(uint256)": "27128",
				"changePenaltyFee(uint256)": "27163",
				"changePrivatePlacementAddress(address)": "infinite",
				"changeStrategicPartnerAddress1(address,address,address)": "infinite",
				"changeTaxFee(uint8)": "infinite",
				"claimAirdrop()": "infinite",
				"claimPrivateSale()": "infinite",
				"daoProjectPool()": "2396",
				"decimals()": "281",
				"decreaseAllowance(address,uint256)": "27028",
				"deleteMultipleBeneficiary(address[])": "29163",
				"hasMultilockable()": "11339",
				"hasStake(address)": "infinite",
				"increaseAllowance(address,uint256)": "27052",
				"initiateLockedWalletprivateSale_Airdrop()": "infinite",
				"isVoter(address)": "2663",
				"lockedWalletStatus()": "2409",
				"mint(address,uint256)": "infinite",
				"mintLiquidityReserve(uint256)": "infinite",
				"mintStakingReward(uint256)": "infinite",
				"name()": "infinite",
				"owner()": "2433",
				"privateSale()": "2374",
				"privateSaleAmount()": "2375",
				"privateSaleStatus()": "2411",
				"privateSaleUsers()": "2419",
				"private_placement_address()": "2427",
				"renounceOwnership()": "infinite",
				"retractVote()": "35459",
				"stake(uint256,uint256)": "infinite",
				"stakingPenaltyRate()": "2417",
				"stakingReward()": "2354",
				"startPrivateSale()": "2397",
				"strategic_partner_address_1()": "2448",
				"strategic_partner_address_2()": "2426",
				"strategic_partner_address_3()": "2470",
				"symbol()": "infinite",
				"taxFee()": "2403",
				"totalSupply()": "2350",
				"totalVoters()": "2374",
				"transfer(address,uint256)": "infinite",
				"transferDAOPool(address,uint256)": "infinite",
				"transferFrom(address,address,uint256)": "infinite",
				"transferOwnership(address)": "infinite",
				"transferToDAOPool(uint256)": "49118",
				"unlockMarketingWallet_1()": "infinite",
				"unlockMarketingWallet_2()": "infinite",
				"unlockMarketingWallet_3()": "infinite",
				"unlockPrivatePlacementWallet()": "infinite",
				"unlockStrategicPartnerWallet_1()": "infinite",
				"unlockStrategicPartnerWallet_2()": "infinite",
				"unlockStrategicPartnerWallet_3()": "infinite",
				"unlockTeamAndProjectCoordinatorWallet_1()": "infinite",
				"unlockTeamAndProjectCoordinatorWallet_2()": "infinite",
				"unlockTeamAndProjectCoordinatorWallet_3()": "infinite",
				"vote()": "61918",
				"votedUsers(uint256)": "2539",
				"voters(address)": "2636",
				"withdrawStake()": "infinite"
			},
			"internal": {
				"_addThirdOfValue(uint256)": "infinite",
				"_approve(address,address,uint256)": "infinite",
				"_burn(address,uint256)": "infinite",
				"_checkBeneficiaryAmount(uint256)": "infinite",
				"_isLockedWalletInitiated()": "infinite",
				"_mintStakingReward(uint256)": "infinite",
				"_onlyWalletOwner(address)": "infinite",
				"_spendAllowance(address,address,uint256)": "infinite",
				"_transfer(address,address,uint256)": "infinite"
			}
		},
		"methodIdentifiers": {
			"addMultipleBeneficiary((address,uint256)[])": "078f522f",
			"airdropRate()": "8891cf0d",
			"airdropSince()": "b87da76d",
			"airdropStatus()": "2cf1a5fb",
			"airdropWeek()": "cbb3e152",
			"allowance(address,address)": "dd62ed3e",
			"approve(address,uint256)": "095ea7b3",
			"balanceOf(address)": "70a08231",
			"burn(uint256)": "42966c68",
			"burnFrom(address,uint256)": "79cc6790",
			"burnLiquidityReserve(uint256)": "8b7c64da",
			"burnStakingReward(uint256)": "0e1b09ed",
			"changeAirdropPercentage(uint256)": "d5dbdf1b",
			"changePenaltyFee(uint256)": "8c63f97f",
			"changePrivatePlacementAddress(address)": "a25a17a7",
			"changeStrategicPartnerAddress1(address,address,address)": "f0413bd4",
			"changeTaxFee(uint8)": "471a30a2",
			"claimAirdrop()": "5b88349d",
			"claimPrivateSale()": "7c2412f9",
			"daoProjectPool()": "bad4346c",
			"decimals()": "313ce567",
			"decreaseAllowance(address,uint256)": "a457c2d7",
			"deleteMultipleBeneficiary(address[])": "a1f780cf",
			"hasMultilockable()": "19ca147d",
			"hasStake(address)": "e73e14bf",
			"increaseAllowance(address,uint256)": "39509351",
			"initiateLockedWalletprivateSale_Airdrop()": "96bc0687",
			"isVoter(address)": "a7771ee3",
			"lockedWalletStatus()": "e88c326f",
			"mint(address,uint256)": "40c10f19",
			"mintLiquidityReserve(uint256)": "d94d4ad6",
			"mintStakingReward(uint256)": "a169c515",
			"name()": "06fdde03",
			"owner()": "8da5cb5b",
			"privateSale()": "ba1f879f",
			"privateSaleAmount()": "8b2b423a",
			"privateSaleStatus()": "376d441c",
			"privateSaleUsers()": "549dee0b",
			"private_placement_address()": "a837a65e",
			"renounceOwnership()": "715018a6",
			"retractVote()": "070c8b74",
			"stake(uint256,uint256)": "7b0472f0",
			"stakingPenaltyRate()": "cb79c2e1",
			"stakingReward()": "042249bb",
			"startPrivateSale()": "338dbf59",
			"strategic_partner_address_1()": "c680111c",
			"strategic_partner_address_2()": "a3626dbb",
			"strategic_partner_address_3()": "d9dc2d8d",
			"symbol()": "95d89b41",
			"taxFee()": "a071dcf4",
			"totalSupply()": "18160ddd",
			"totalVoters()": "5f5300ff",
			"transfer(address,uint256)": "a9059cbb",
			"transferDAOPool(address,uint256)": "8d4a3c85",
			"transferFrom(address,address,uint256)": "23b872dd",
			"transferOwnership(address)": "f2fde38b",
			"transferToDAOPool(uint256)": "63a599a4",
			"unlockMarketingWallet_1()": "78dc9315",
			"unlockMarketingWallet_2()": "7bb4e320",
			"unlockMarketingWallet_3()": "0ec5aa1a",
			"unlockPrivatePlacementWallet()": "934851ec",
			"unlockStrategicPartnerWallet_1()": "8378a875",
			"unlockStrategicPartnerWallet_2()": "15441bb9",
			"unlockStrategicPartnerWallet_3()": "883d9984",
			"unlockTeamAndProjectCoordinatorWallet_1()": "56029137",
			"unlockTeamAndProjectCoordinatorWallet_2()": "90a4c709",
			"unlockTeamAndProjectCoordinatorWallet_3()": "3f3ef2dc",
			"vote()": "632a9a52",
			"votedUsers(uint256)": "a143a5f2",
			"voters(address)": "a3ec138d",
			"withdrawStake()": "bed9d861"
		}
	},
	"abi": [
		{
			"inputs": [],
			"stateMutability": "nonpayable",
			"type": "constructor"
		},
		{
			"anonymous": false,
			"inputs": [
				{
					"indexed": true,
					"internalType": "address",
					"name": "from",
					"type": "address"
				},
				{
					"indexed": true,
					"internalType": "address",
					"name": "who",
					"type": "address"
				},
				{
					"indexed": false,
					"internalType": "uint256",
					"name": "amount",
					"type": "uint256"
				}
			],
			"name": "AddPrivateSale",
			"type": "event"
		},
		{
			"anonymous": false,
			"inputs": [
				{
					"indexed": false,
					"internalType": "uint256",
					"name": "amount",
					"type": "uint256"
				}
			],
			"name": "AirdropChanged",
			"type": "event"
		},
		{
			"anonymous": false,
			"inputs": [
				{
					"indexed": true,
					"internalType": "address",
					"name": "owner",
					"type": "address"
				},
				{
					"indexed": true,
					"internalType": "address",
					"name": "spender",
					"type": "address"
				},
				{
					"indexed": false,
					"internalType": "uint256",
					"name": "value",
					"type": "uint256"
				}
			],
			"name": "Approval",
			"type": "event"
		},
		{
			"anonymous": false,
			"inputs": [
				{
					"indexed": true,
					"internalType": "address",
					"name": "from",
					"type": "address"
				},
				{
					"indexed": false,
					"internalType": "uint256",
					"name": "amount",
					"type": "uint256"
				}
			],
			"name": "ChangeAirdropPercentage",
			"type": "event"
		},
		{
			"anonymous": false,
			"inputs": [
				{
					"indexed": true,
					"internalType": "address",
					"name": "who",
					"type": "address"
				},
				{
					"indexed": false,
					"internalType": "bool",
					"name": "status",
					"type": "bool"
				}
			],
			"name": "ChangeAirdropStatus",
			"type": "event"
		},
		{
			"anonymous": false,
			"inputs": [
				{
					"indexed": true,
					"internalType": "address",
					"name": "from",
					"type": "address"
				},
				{
					"indexed": false,
					"internalType": "uint256",
					"name": "amount",
					"type": "uint256"
				}
			],
			"name": "ChangePenaltyFee",
			"type": "event"
		},
		{
			"anonymous": false,
			"inputs": [
				{
					"indexed": true,
					"internalType": "address",
					"name": "to",
					"type": "address"
				}
			],
			"name": "ChangePrivatePlacementAddress",
			"type": "event"
		},
		{
			"anonymous": false,
			"inputs": [
				{
					"indexed": true,
					"internalType": "address",
					"name": "to1",
					"type": "address"
				},
				{
					"indexed": true,
					"internalType": "address",
					"name": "to2",
					"type": "address"
				},
				{
					"indexed": true,
					"internalType": "address",
					"name": "to3",
					"type": "address"
				}
			],
			"name": "ChangeStrategicPartnerAddress",
			"type": "event"
		},
		{
			"anonymous": false,
			"inputs": [
				{
					"indexed": true,
					"internalType": "address",
					"name": "who",
					"type": "address"
				},
				{
					"indexed": false,
					"internalType": "uint256",
					"name": "amount",
					"type": "uint256"
				}
			],
			"name": "ChangeTax",
			"type": "event"
		},
		{
			"anonymous": false,
			"inputs": [
				{
					"indexed": true,
					"internalType": "address",
					"name": "from",
					"type": "address"
				},
				{
					"indexed": true,
					"internalType": "address",
					"name": "who",
					"type": "address"
				}
			],
			"name": "DeletePrivateSale",
			"type": "event"
		},
		{
			"anonymous": false,
			"inputs": [
				{
					"indexed": true,
					"internalType": "address",
					"name": "from",
					"type": "address"
				}
			],
			"name": "InitiateLockedWallet",
			"type": "event"
		},
		{
			"anonymous": false,
			"inputs": [
				{
					"indexed": true,
					"internalType": "address",
					"name": "from",
					"type": "address"
				}
			],
			"name": "InitiatePrivateSale",
			"type": "event"
		},
		{
			"anonymous": false,
			"inputs": [
				{
					"indexed": true,
					"internalType": "address",
					"name": "previousOwner",
					"type": "address"
				},
				{
					"indexed": true,
					"internalType": "address",
					"name": "newOwner",
					"type": "address"
				}
			],
			"name": "OwnershipTransferred",
			"type": "event"
		},
		{
			"anonymous": false,
			"inputs": [
				{
					"indexed": false,
					"internalType": "uint256",
					"name": "amount",
					"type": "uint256"
				}
			],
			"name": "PenaltyChanged",
			"type": "event"
		},
		{
			"anonymous": false,
			"inputs": [
				{
					"indexed": true,
					"internalType": "address",
					"name": "user",
					"type": "address"
				},
				{
					"indexed": false,
					"internalType": "uint256",
					"name": "amount",
					"type": "uint256"
				},
				{
					"indexed": false,
					"internalType": "uint256",
					"name": "timestamp",
					"type": "uint256"
				},
				{
					"indexed": false,
					"internalType": "uint256",
					"name": "releaseTime",
					"type": "uint256"
				}
			],
			"name": "Staked",
			"type": "event"
		},
		{
			"anonymous": false,
			"inputs": [
				{
					"indexed": true,
					"internalType": "address",
					"name": "from",
					"type": "address"
				},
				{
					"indexed": true,
					"internalType": "address",
					"name": "to",
					"type": "address"
				},
				{
					"indexed": false,
					"internalType": "uint256",
					"name": "value",
					"type": "uint256"
				}
			],
			"name": "Transfer",
			"type": "event"
		},
		{
			"anonymous": false,
			"inputs": [
				{
					"indexed": true,
					"internalType": "address",
					"name": "from",
					"type": "address"
				},
				{
					"indexed": true,
					"internalType": "address",
					"name": "to",
					"type": "address"
				},
				{
					"indexed": false,
					"internalType": "uint256",
					"name": "amount",
					"type": "uint256"
				}
			],
			"name": "TransferStakingReward",
			"type": "event"
		},
		{
			"stateMutability": "payable",
			"type": "fallback"
		},
		{
			"inputs": [
				{
					"components": [
						{
							"internalType": "address",
							"name": "user",
							"type": "address"
						},
						{
							"internalType": "uint256",
							"name": "amount",
							"type": "uint256"
						}
					],
					"internalType": "struct TalaxToken.Beneficiary[]",
					"name": "benefs",
					"type": "tuple[]"
				}
			],
			"name": "addMultipleBeneficiary",
			"outputs": [],
			"stateMutability": "nonpayable",
			"type": "function"
		},
		{
			"inputs": [],
			"name": "airdropRate",
			"outputs": [
				{
					"internalType": "uint256",
					"name": "",
					"type": "uint256"
				}
			],
			"stateMutability": "view",
			"type": "function"
		},
		{
			"inputs": [],
			"name": "airdropSince",
			"outputs": [
				{
					"internalType": "uint256",
					"name": "",
					"type": "uint256"
				}
			],
			"stateMutability": "view",
			"type": "function"
		},
		{
			"inputs": [],
			"name": "airdropStatus",
			"outputs": [
				{
					"internalType": "bool",
					"name": "",
					"type": "bool"
				}
			],
			"stateMutability": "view",
			"type": "function"
		},
		{
			"inputs": [],
			"name": "airdropWeek",
			"outputs": [
				{
					"internalType": "uint256",
					"name": "",
					"type": "uint256"
				}
			],
			"stateMutability": "view",
			"type": "function"
		},
		{
			"inputs": [
				{
					"internalType": "address",
					"name": "owner",
					"type": "address"
				},
				{
					"internalType": "address",
					"name": "spender",
					"type": "address"
				}
			],
			"name": "allowance",
			"outputs": [
				{
					"internalType": "uint256",
					"name": "",
					"type": "uint256"
				}
			],
			"stateMutability": "view",
			"type": "function"
		},
		{
			"inputs": [
				{
					"internalType": "address",
					"name": "spender",
					"type": "address"
				},
				{
					"internalType": "uint256",
					"name": "amount",
					"type": "uint256"
				}
			],
			"name": "approve",
			"outputs": [
				{
					"internalType": "bool",
					"name": "",
					"type": "bool"
				}
			],
			"stateMutability": "nonpayable",
			"type": "function"
		},
		{
			"inputs": [
				{
					"internalType": "address",
					"name": "account",
					"type": "address"
				}
			],
			"name": "balanceOf",
			"outputs": [
				{
					"internalType": "uint256",
					"name": "",
					"type": "uint256"
				}
			],
			"stateMutability": "view",
			"type": "function"
		},
		{
			"inputs": [
				{
					"internalType": "uint256",
					"name": "amount",
					"type": "uint256"
				}
			],
			"name": "burn",
			"outputs": [],
			"stateMutability": "nonpayable",
			"type": "function"
		},
		{
			"inputs": [
				{
					"internalType": "address",
					"name": "account",
					"type": "address"
				},
				{
					"internalType": "uint256",
					"name": "amount",
					"type": "uint256"
				}
			],
			"name": "burnFrom",
			"outputs": [],
			"stateMutability": "nonpayable",
			"type": "function"
		},
		{
			"inputs": [
				{
					"internalType": "uint256",
					"name": "amount_",
					"type": "uint256"
				}
			],
			"name": "burnLiquidityReserve",
			"outputs": [],
			"stateMutability": "nonpayable",
			"type": "function"
		},
		{
			"inputs": [
				{
					"internalType": "uint256",
					"name": "amount_",
					"type": "uint256"
				}
			],
			"name": "burnStakingReward",
			"outputs": [],
			"stateMutability": "nonpayable",
			"type": "function"
		},
		{
			"inputs": [
				{
					"internalType": "uint256",
					"name": "airdrop_",
					"type": "uint256"
				}
			],
			"name": "changeAirdropPercentage",
			"outputs": [],
			"stateMutability": "nonpayable",
			"type": "function"
		},
		{
			"inputs": [
				{
					"internalType": "uint256",
					"name": "penaltyFee_",
					"type": "uint256"
				}
			],
			"name": "changePenaltyFee",
			"outputs": [],
			"stateMutability": "nonpayable",
			"type": "function"
		},
		{
			"inputs": [
				{
					"internalType": "address",
					"name": "_input",
					"type": "address"
				}
			],
			"name": "changePrivatePlacementAddress",
			"outputs": [],
			"stateMutability": "nonpayable",
			"type": "function"
		},
		{
			"inputs": [
				{
					"internalType": "address",
					"name": "address1",
					"type": "address"
				},
				{
					"internalType": "address",
					"name": "address2",
					"type": "address"
				},
				{
					"internalType": "address",
					"name": "address3",
					"type": "address"
				}
			],
			"name": "changeStrategicPartnerAddress1",
			"outputs": [],
			"stateMutability": "nonpayable",
			"type": "function"
		},
		{
			"inputs": [
				{
					"internalType": "uint8",
					"name": "taxFee_",
					"type": "uint8"
				}
			],
			"name": "changeTaxFee",
			"outputs": [],
			"stateMutability": "nonpayable",
			"type": "function"
		},
		{
			"inputs": [],
			"name": "claimAirdrop",
			"outputs": [],
			"stateMutability": "nonpayable",
			"type": "function"
		},
		{
			"inputs": [],
			"name": "claimPrivateSale",
			"outputs": [],
			"stateMutability": "nonpayable",
			"type": "function"
		},
		{
			"inputs": [],
			"name": "daoProjectPool",
			"outputs": [
				{
					"internalType": "uint256",
					"name": "",
					"type": "uint256"
				}
			],
			"stateMutability": "view",
			"type": "function"
		},
		{
			"inputs": [],
			"name": "decimals",
			"outputs": [
				{
					"internalType": "uint8",
					"name": "",
					"type": "uint8"
				}
			],
			"stateMutability": "view",
			"type": "function"
		},
		{
			"inputs": [
				{
					"internalType": "address",
					"name": "spender",
					"type": "address"
				},
				{
					"internalType": "uint256",
					"name": "subtractedValue",
					"type": "uint256"
				}
			],
			"name": "decreaseAllowance",
			"outputs": [
				{
					"internalType": "bool",
					"name": "",
					"type": "bool"
				}
			],
			"stateMutability": "nonpayable",
			"type": "function"
		},
		{
			"inputs": [
				{
					"internalType": "address[]",
					"name": "benefs",
					"type": "address[]"
				}
			],
			"name": "deleteMultipleBeneficiary",
			"outputs": [],
			"stateMutability": "nonpayable",
			"type": "function"
		},
		{
			"inputs": [],
			"name": "hasMultilockable",
			"outputs": [
				{
					"components": [
						{
							"internalType": "uint256",
							"name": "lockedAmount",
							"type": "uint256"
						},
						{
							"internalType": "uint256",
							"name": "amount",
							"type": "uint256"
						},
						{
							"internalType": "bool",
							"name": "phase_1_claimed",
							"type": "bool"
						},
						{
							"internalType": "uint256",
							"name": "latestClaimDay",
							"type": "uint256"
						}
					],
					"internalType": "struct Multilockable.Multilock",
					"name": "",
					"type": "tuple"
				}
			],
			"stateMutability": "view",
			"type": "function"
		},
		{
			"inputs": [
				{
					"internalType": "address",
					"name": "_staker",
					"type": "address"
				}
			],
			"name": "hasStake",
			"outputs": [
				{
					"components": [
						{
							"internalType": "uint256",
							"name": "total_amount",
							"type": "uint256"
						},
						{
							"internalType": "uint256",
							"name": "penalty",
							"type": "uint256"
						},
						{
							"components": [
								{
									"internalType": "address",
									"name": "user",
									"type": "address"
								},
								{
									"internalType": "uint256",
									"name": "amount",
									"type": "uint256"
								},
								{
									"internalType": "uint256",
									"name": "since",
									"type": "uint256"
								},
								{
									"internalType": "uint256",
									"name": "claimable",
									"type": "uint256"
								},
								{
									"internalType": "uint256",
									"name": "claimable_airdrop",
									"type": "uint256"
								},
								{
									"internalType": "uint256",
									"name": "rewardAPY",
									"type": "uint256"
								},
								{
									"internalType": "uint256",
									"name": "releaseTime",
									"type": "uint256"
								}
							],
							"internalType": "struct Stakable.Stake",
							"name": "stake",
							"type": "tuple"
						}
					],
					"internalType": "struct Stakable.StakingSummary",
					"name": "",
					"type": "tuple"
				}
			],
			"stateMutability": "view",
			"type": "function"
		},
		{
			"inputs": [
				{
					"internalType": "address",
					"name": "spender",
					"type": "address"
				},
				{
					"internalType": "uint256",
					"name": "addedValue",
					"type": "uint256"
				}
			],
			"name": "increaseAllowance",
			"outputs": [
				{
					"internalType": "bool",
					"name": "",
					"type": "bool"
				}
			],
			"stateMutability": "nonpayable",
			"type": "function"
		},
		{
			"inputs": [],
			"name": "initiateLockedWalletprivateSale_Airdrop",
			"outputs": [],
			"stateMutability": "nonpayable",
			"type": "function"
		},
		{
			"inputs": [
				{
					"internalType": "address",
					"name": "_staker",
					"type": "address"
				}
			],
			"name": "isVoter",
			"outputs": [
				{
					"internalType": "bool",
					"name": "",
					"type": "bool"
				}
			],
			"stateMutability": "view",
			"type": "function"
		},
		{
			"inputs": [],
			"name": "lockedWalletStatus",
			"outputs": [
				{
					"internalType": "bool",
					"name": "",
					"type": "bool"
				}
			],
			"stateMutability": "view",
			"type": "function"
		},
		{
			"inputs": [
				{
					"internalType": "address",
					"name": "to",
					"type": "address"
				},
				{
					"internalType": "uint256",
					"name": "amount",
					"type": "uint256"
				}
			],
			"name": "mint",
			"outputs": [],
			"stateMutability": "nonpayable",
			"type": "function"
		},
		{
			"inputs": [
				{
					"internalType": "uint256",
					"name": "amount_",
					"type": "uint256"
				}
			],
			"name": "mintLiquidityReserve",
			"outputs": [],
			"stateMutability": "nonpayable",
			"type": "function"
		},
		{
			"inputs": [
				{
					"internalType": "uint256",
					"name": "amount_",
					"type": "uint256"
				}
			],
			"name": "mintStakingReward",
			"outputs": [],
			"stateMutability": "nonpayable",
			"type": "function"
		},
		{
			"inputs": [],
			"name": "name",
			"outputs": [
				{
					"internalType": "string",
					"name": "",
					"type": "string"
				}
			],
			"stateMutability": "view",
			"type": "function"
		},
		{
			"inputs": [],
			"name": "owner",
			"outputs": [
				{
					"internalType": "address",
					"name": "",
					"type": "address"
				}
			],
			"stateMutability": "view",
			"type": "function"
		},
		{
			"inputs": [],
			"name": "privateSale",
			"outputs": [
				{
					"internalType": "uint256",
					"name": "",
					"type": "uint256"
				}
			],
			"stateMutability": "view",
			"type": "function"
		},
		{
			"inputs": [],
			"name": "privateSaleAmount",
			"outputs": [
				{
					"internalType": "uint256",
					"name": "",
					"type": "uint256"
				}
			],
			"stateMutability": "view",
			"type": "function"
		},
		{
			"inputs": [],
			"name": "privateSaleStatus",
			"outputs": [
				{
					"internalType": "bool",
					"name": "",
					"type": "bool"
				}
			],
			"stateMutability": "view",
			"type": "function"
		},
		{
			"inputs": [],
			"name": "privateSaleUsers",
			"outputs": [
				{
					"internalType": "uint256",
					"name": "",
					"type": "uint256"
				}
			],
			"stateMutability": "view",
			"type": "function"
		},
		{
			"inputs": [],
			"name": "private_placement_address",
			"outputs": [
				{
					"internalType": "address",
					"name": "",
					"type": "address"
				}
			],
			"stateMutability": "view",
			"type": "function"
		},
		{
			"inputs": [],
			"name": "renounceOwnership",
			"outputs": [],
			"stateMutability": "nonpayable",
			"type": "function"
		},
		{
			"inputs": [],
			"name": "retractVote",
			"outputs": [],
			"stateMutability": "nonpayable",
			"type": "function"
		},
		{
			"inputs": [
				{
					"internalType": "uint256",
					"name": "_amount",
					"type": "uint256"
				},
				{
					"internalType": "uint256",
					"name": "_stakePeriod",
					"type": "uint256"
				}
			],
			"name": "stake",
			"outputs": [],
			"stateMutability": "nonpayable",
			"type": "function"
		},
		{
			"inputs": [],
			"name": "stakingPenaltyRate",
			"outputs": [
				{
					"internalType": "uint256",
					"name": "",
					"type": "uint256"
				}
			],
			"stateMutability": "view",
			"type": "function"
		},
		{
			"inputs": [],
			"name": "stakingReward",
			"outputs": [
				{
					"internalType": "uint256",
					"name": "",
					"type": "uint256"
				}
			],
			"stateMutability": "view",
			"type": "function"
		},
		{
			"inputs": [],
			"name": "startPrivateSale",
			"outputs": [
				{
					"internalType": "uint256",
					"name": "",
					"type": "uint256"
				}
			],
			"stateMutability": "view",
			"type": "function"
		},
		{
			"inputs": [],
			"name": "strategic_partner_address_1",
			"outputs": [
				{
					"internalType": "address",
					"name": "",
					"type": "address"
				}
			],
			"stateMutability": "view",
			"type": "function"
		},
		{
			"inputs": [],
			"name": "strategic_partner_address_2",
			"outputs": [
				{
					"internalType": "address",
					"name": "",
					"type": "address"
				}
			],
			"stateMutability": "view",
			"type": "function"
		},
		{
			"inputs": [],
			"name": "strategic_partner_address_3",
			"outputs": [
				{
					"internalType": "address",
					"name": "",
					"type": "address"
				}
			],
			"stateMutability": "view",
			"type": "function"
		},
		{
			"inputs": [],
			"name": "symbol",
			"outputs": [
				{
					"internalType": "string",
					"name": "",
					"type": "string"
				}
			],
			"stateMutability": "view",
			"type": "function"
		},
		{
			"inputs": [],
			"name": "taxFee",
			"outputs": [
				{
					"internalType": "uint8",
					"name": "",
					"type": "uint8"
				}
			],
			"stateMutability": "view",
			"type": "function"
		},
		{
			"inputs": [],
			"name": "totalSupply",
			"outputs": [
				{
					"internalType": "uint256",
					"name": "",
					"type": "uint256"
				}
			],
			"stateMutability": "view",
			"type": "function"
		},
		{
			"inputs": [],
			"name": "totalVoters",
			"outputs": [
				{
					"internalType": "uint256",
					"name": "",
					"type": "uint256"
				}
			],
			"stateMutability": "view",
			"type": "function"
		},
		{
			"inputs": [
				{
					"internalType": "address",
					"name": "to",
					"type": "address"
				},
				{
					"internalType": "uint256",
					"name": "amount",
					"type": "uint256"
				}
			],
			"name": "transfer",
			"outputs": [
				{
					"internalType": "bool",
					"name": "",
					"type": "bool"
				}
			],
			"stateMutability": "nonpayable",
			"type": "function"
		},
		{
			"inputs": [
				{
					"internalType": "address",
					"name": "to_",
					"type": "address"
				},
				{
					"internalType": "uint256",
					"name": "amount_",
					"type": "uint256"
				}
			],
			"name": "transferDAOPool",
			"outputs": [],
			"stateMutability": "nonpayable",
			"type": "function"
		},
		{
			"inputs": [
				{
					"internalType": "address",
					"name": "from",
					"type": "address"
				},
				{
					"internalType": "address",
					"name": "to",
					"type": "address"
				},
				{
					"internalType": "uint256",
					"name": "amount",
					"type": "uint256"
				}
			],
			"name": "transferFrom",
			"outputs": [
				{
					"internalType": "bool",
					"name": "",
					"type": "bool"
				}
			],
			"stateMutability": "nonpayable",
			"type": "function"
		},
		{
			"inputs": [
				{
					"internalType": "address",
					"name": "newOwner",
					"type": "address"
				}
			],
			"name": "transferOwnership",
			"outputs": [],
			"stateMutability": "nonpayable",
			"type": "function"
		},
		{
			"inputs": [
				{
					"internalType": "uint256",
					"name": "amount_",
					"type": "uint256"
				}
			],
			"name": "transferToDAOPool",
			"outputs": [],
			"stateMutability": "nonpayable",
			"type": "function"
		},
		{
			"inputs": [],
			"name": "unlockMarketingWallet_1",
			"outputs": [],
			"stateMutability": "nonpayable",
			"type": "function"
		},
		{
			"inputs": [],
			"name": "unlockMarketingWallet_2",
			"outputs": [],
			"stateMutability": "nonpayable",
			"type": "function"
		},
		{
			"inputs": [],
			"name": "unlockMarketingWallet_3",
			"outputs": [],
			"stateMutability": "nonpayable",
			"type": "function"
		},
		{
			"inputs": [],
			"name": "unlockPrivatePlacementWallet",
			"outputs": [],
			"stateMutability": "nonpayable",
			"type": "function"
		},
		{
			"inputs": [],
			"name": "unlockStrategicPartnerWallet_1",
			"outputs": [],
			"stateMutability": "nonpayable",
			"type": "function"
		},
		{
			"inputs": [],
			"name": "unlockStrategicPartnerWallet_2",
			"outputs": [],
			"stateMutability": "nonpayable",
			"type": "function"
		},
		{
			"inputs": [],
			"name": "unlockStrategicPartnerWallet_3",
			"outputs": [],
			"stateMutability": "nonpayable",
			"type": "function"
		},
		{
			"inputs": [],
			"name": "unlockTeamAndProjectCoordinatorWallet_1",
			"outputs": [],
			"stateMutability": "nonpayable",
			"type": "function"
		},
		{
			"inputs": [],
			"name": "unlockTeamAndProjectCoordinatorWallet_2",
			"outputs": [],
			"stateMutability": "nonpayable",
			"type": "function"
		},
		{
			"inputs": [],
			"name": "unlockTeamAndProjectCoordinatorWallet_3",
			"outputs": [],
			"stateMutability": "nonpayable",
			"type": "function"
		},
		{
			"inputs": [],
			"name": "vote",
			"outputs": [],
			"stateMutability": "nonpayable",
			"type": "function"
		},
		{
			"inputs": [
				{
					"internalType": "uint256",
					"name": "",
					"type": "uint256"
				}
			],
			"name": "votedUsers",
			"outputs": [
				{
					"internalType": "uint256",
					"name": "",
					"type": "uint256"
				}
			],
			"stateMutability": "view",
			"type": "function"
		},
		{
			"inputs": [
				{
					"internalType": "address",
					"name": "",
					"type": "address"
				}
			],
			"name": "voters",
			"outputs": [
				{
					"internalType": "bool",
					"name": "votingRight",
					"type": "bool"
				}
			],
			"stateMutability": "view",
			"type": "function"
		},
		{
			"inputs": [],
			"name": "withdrawStake",
			"outputs": [],
			"stateMutability": "nonpayable",
			"type": "function"
		},
		{
			"stateMutability": "payable",
			"type": "receive"
		}
	]
}