{
	"data": {
		"bytecode": {
			"linkReferences": {},
			"object": "60806040523480156200001157600080fd5b506001805480820182557fb10e2d527612073b26eecdfd717e6a320cf44b4afac2b0732d9fcbe2b7fa0cf60180546001600160a01b03191633908117909155600090815260056020908152604080832084905560098054909401845592909152815180830190925260088083526754414c415845554d60c01b929091019182526200009f9160129162001284565b50604080518082019091526005808252640a8829882b60db1b6020909201918252620000ce9160119162001284565b506010805460ff191660121790556aadb53acfa41aee12000000600f55601880546001818101835560008390527fb13d2d76d1f4b7be834882e410b3e3a8afaf69f83600ae24db354391d2378d2e91820180546001600160a01b0319908116730fa15f7550ec226c2a963f9ceb18aed8fd182075179091558354808301855583018054821673324505aef2a89cd458824d4fa225010329fd949a1790558354918201845591018054821673a9a58cf0a08b26fc832935870a329c99968f8ec917905560198054821673681c7f8845ad51f10af85aeaf116371953024899908117909155601a8054831682179055601c8054831673c65ac7c6aff4c149d1ec12865d58fe60f29a705b908117909155601d8054841682179055601e8054841683179055601f80548416821790556020805484168317815560218054851684179055602280548516909217909155602380548416831790556024805490931690911790915581546040805182840281018401909152818152620002959390929091908301828280156200028957602002820191906000526020600020905b81546001600160a01b031681526001909101906020018083116200026a575b505062000a0692505050565b6a0e7cbbd7aa8310ae400000601355306000908152600b602090815260408083206a2b6d4eb3e906bb8480000090556019546001600160a01b0390811684528184206a22bdd88fed9efc6a00000090819055601a549091168452928190206a05c8d34a23da1650a00000905580516060810190915260328082526200033593926200729390830139600f5462000db860201b62002329179092919060201c565b600f819055506200037d6a05c8d34a23da1650a000006040518060600160405280603281526020016200729360329139600f5462000db860201b62002329179092919060201c565b600f81905550620003c56a05c8d34a23da1650a000006040518060600160405280603281526020016200729360329139600f5462000db860201b62002329179092919060201c565b600f81905550620004046013546040518060600160405280603281526020016200729360329139600f5462000db860201b62002329179092919060201c565b600f55601b546040516a05c8d34a23da1650a00000916001600160a01b0316906200042f9062001313565b9182526001600160a01b03166020820152604001604051809103906000f08015801562000460573d6000803e3d6000fd5b50602580546001600160a01b0319166001600160a01b03928316179055601c546040516a0b949d854f34fece000000929190911690620004a09062001313565b9182526001600160a01b03166020820152604001604051809103906000f080158015620004d1573d6000803e3d6000fd5b50602680546001600160a01b0319166001600160a01b03928316179055601d546040516a0b949d854f34fece000000929190911690620005119062001313565b9182526001600160a01b03166020820152604001604051809103906000f08015801562000542573d6000803e3d6000fd5b50602780546001600160a01b0319166001600160a01b03928316179055601e546040516a0b949d854f34fece000000929190911690620005829062001313565b9182526001600160a01b03166020820152604001604051809103906000f080158015620005b3573d6000803e3d6000fd5b50602880546001600160a01b0319166001600160a01b03928316179055601f546040516a02e5276153cd3fb3800000929190911690620005f39062001313565b9182526001600160a01b03166020820152604001604051809103906000f08015801562000624573d6000803e3d6000fd5b50602980546001600160a01b0319166001600160a01b039283161790556020546040516a02e5276153cd3fb3800000929190911690620006649062001313565b9182526001600160a01b03166020820152604001604051809103906000f08015801562000695573d6000803e3d6000fd5b50602a80546001600160a01b0319166001600160a01b039283161790556021546040516a02e5276153cd3fb3800000929190911690620006d59062001313565b9182526001600160a01b03166020820152604001604051809103906000f08015801562000706573d6000803e3d6000fd5b50602b80546001600160a01b0319166001600160a01b039283161790556022546040516a08af7623fb67bf1a800000929190911690620007469062001313565b9182526001600160a01b03166020820152604001604051809103906000f08015801562000777573d6000803e3d6000fd5b50602c80546001600160a01b0319166001600160a01b039283161790556023546040516a08af7623fb67bf1a800000929190911690620007b79062001313565b9182526001600160a01b03166020820152604001604051809103906000f080158015620007e8573d6000803e3d6000fd5b50602d80546001600160a01b0319166001600160a01b039283161790556024546040516a08af7623fb67bf1a800000929190911690620008289062001313565b9182526001600160a01b03166020820152604001604051809103906000f08015801562000859573d6000803e3d6000fd5b50602e60006101000a8154816001600160a01b0302191690836001600160a01b03160217905550620008c26a22bdd88fed9efc6a0000006040518060600160405280603281526020016200729360329139600f5462000db860201b62002329179092919060201c565b600f819055506200090a6a08af7623fb67bf1a8000006040518060600160405280603281526020016200729360329139600f5462000db860201b62002329179092919060201c565b600f81905550620009526a1a0e626bf2373d4f8000006040518060600160405280603281526020016200729360329139600f5462000db860201b62002329179092919060201c565b600f55600e805461ffff19166001179055600d60205260057fb5d828e80c396d3badd29bcf8358cfe154d524805c56b23c27577b2f19d464895560067fae2635022f4ff726246bbb086e3f5a63c5f54504807a8668aeff811a8c8fc3f15560077fa649de24bb786ae7f0e2b3f43c2d9a6aba6eccd959d4742e69795de968dbf8f3556301e1338060005260087f19ba0c7e0e93fec8ea1a23d3c3b239dd59e1afb12ccab7facab51180087de8e5556200167e565b60015462000a149062000de7565b1562000db5576003546001600160a01b031615801562000a4757600380546001600160a01b031916331790556001546004555b600082511162000a9e5760405162461bcd60e51b81526020600482015260286024820152600080516020620072c5833981519152604482015267697320656d70747960c01b60648201526084015b60405180910390fd5b6101008251111562000b195760405162461bcd60e51b815260206004820152603360248201527f7472616e736665724f776e6572736869703a206f776e65727320636f756e742060448201527f69732067726561746572207468656e2032353600000000000000000000000000606482015260840162000a95565b60005b60015481101562000b7b57600560006001838154811062000b415762000b41620013ab565b60009182526020808320909101546001600160a01b031683528201929092526040018120558062000b7281620013d7565b91505062000b1c565b5060005b825181101562000d1f5760006001600160a01b031683828151811062000ba95762000ba9620013ab565b60200260200101516001600160a01b0316141562000c0f5760405162461bcd60e51b815260206004820152602d6024820152600080516020620072c583398151915260448201526c636f6e7461696e73207a65726f60981b606482015260840162000a95565b6005600084838151811062000c285762000c28620013ab565b60200260200101516001600160a01b03166001600160a01b031681526020019081526020016000205460001462000cb75760405162461bcd60e51b81526020600482015260336024820152600080516020620072c583398151915260448201527f636f6e7461696e73206475706c69636174657300000000000000000000000000606482015260840162000a95565b62000cc4816001620013f5565b6005600085848151811062000cdd5762000cdd620013ab565b60200260200101516001600160a01b03166001600160a01b0316815260200190815260200160002081905550808062000d1690620013d7565b91505062000b7f565b507fe62c04bb3499d4f432a50e07318d42861c4865afb22ee4cfe403d4f94550709060018360405162000d5492919062001410565b60405180910390a1815162000d7190600190602085019062001321565b5062000d806002600062001379565b60008054908062000d9183620013d7565b9190505550801562000db357600380546001600160a01b031916905560006004555b505b50565b6000818484111562000ddf5760405162461bcd60e51b815260040162000a959190620014a9565b505050900390565b6003546000906001600160a01b031633141562000e8e5760045482111562000e865760405162461bcd60e51b8152602060048201526044602482018190527f636865636b486f774d616e794f776e6572733a206e6573746564206f776e6572908201527f73206d6f64696669657220636865636b2072657175697265206d6f7265206f776064820152636e65727360e01b608482015260a40162000a95565b506001919050565b33600090815260056020526040902054151560011462000f085760405162461bcd60e51b815260206004820152602e60248201527f636865636b486f774d616e794f776e6572733a206d73672e73656e646572206960448201526d39903737ba1030b71037bbb732b960911b606482015260840162000a95565b3360009081526005602052604081205462000f269060019062001501565b90506000803660005460405160200162000f43939291906200151b565b60405160208183030381529060405280519060200120905081600262000f6a91906200162c565b600082815260076020526040902054161562000fef5760405162461bcd60e51b815260206004820152603960248201527f636865636b486f774d616e794f776e6572733a206f776e657220616c7265616460448201527f7920766f74656420666f7220746865206f7065726174696f6e00000000000000606482015260840162000a95565b62000ffc8260026200162c565b6000828152600760209081526040808320805490941790935560089052908120546200102a906001620013f5565b600083815260086020526040902081905590506001811415620010d55760028054600084815260066020908152604080832084905560018085018655949092527f405787fa12a823e0f2b7631cc41b3ba8828b3321ca811111fa75cd3aa3bb5ace909201859055915482518581529182018890528183015233606082015290517f6bab0114f9524353d2d33e64edd3ebbd16e21edd57de2226ba76c310a7ce22659181900360800190a15b60015460408051848152602081018490528082018890526060810192909252336080830152517f8dd9582c6577aea81973b5adeb6c135f6e18565d99578b7ba0c9377437ec02219181900360a00190a16000828152600860205260409020548514156200119b576200114782620011a6565b600154604080518481526020810188905280820192909252336060830152517f8a11c8ca99994c292318ce367f65bf6ff61d390bc814b3588496f6fbcc32807a9181900360800190a1506001949350505050565b506000949350505050565b600081815260066020526040902054600254620011c69060019062001501565b8110156200125b5760028054620011e09060019062001501565b81548110620011f357620011f3620013ab565b906000526020600020015460028281548110620012145762001214620013ab565b90600052602060002001819055508060066000600284815481106200123d576200123d620013ab565b90600052602060002001548152602001908152602001600020819055505b506000908152600760209081526040808320839055600882528083208390556006909152812055565b828054620012929062001641565b90600052602060002090601f016020900481019282620012b6576000855562001301565b82601f10620012d157805160ff191683800117855562001301565b8280016001018555821562001301579182015b8281111562001301578251825591602001919060010190620012e4565b506200130f92915062001394565b5090565b6105998062006cfa83390190565b82805482825590600052602060002090810192821562001301579160200282015b828111156200130157825182546001600160a01b0319166001600160a01b0390911617825560209092019160019091019062001342565b508054600082559060005260206000209081019062000db591905b5b808211156200130f576000815560010162001395565b634e487b7160e01b600052603260045260246000fd5b634e487b7160e01b600052601160045260246000fd5b6000600019821415620013ee57620013ee620013c1565b5060010190565b600082198211156200140b576200140b620013c1565b500190565b6000604082016040835280855480835260608501915086600052602092508260002060005b828110156200145c5781546001600160a01b03168452928401926001918201910162001435565b5050508381038285015284518082528583019183019060005b818110156200149c5783516001600160a01b03168352928401929184019160010162001475565b5090979650505050505050565b600060208083528351808285015260005b81811015620014d857858101830151858201604001528201620014ba565b81811115620014eb576000604083870101525b50601f01601f1916929092016040019392505050565b600082821015620015165762001516620013c1565b500390565b82848237909101908152602001919050565b600181815b808511156200156e578160001904821115620015525762001552620013c1565b808516156200156057918102915b93841c939080029062001532565b509250929050565b600082620015875750600162001626565b81620015965750600062001626565b8160018114620015af5760028114620015ba57620015da565b600191505062001626565b60ff841115620015ce57620015ce620013c1565b50506001821b62001626565b5060208310610133831016604e8410600b8410161715620015ff575081810a62001626565b6200160b83836200152d565b8060001904821115620016225762001622620013c1565b0290505b92915050565b60006200163a838362001576565b9392505050565b600181811c908216806200165657607f821691505b602082108114156200167857634e487b7160e01b600052602260045260246000fd5b50919050565b61566c806200168e6000396000f3fe6080604052600436106103b15760003560e01c8063883d9984116101e7578063b8b18e891161010d578063e39ca658116100a0578063eef756fc1161006f578063eef756fc14610ba9578063f1fdf46914610bc9578063f6ddddf214610be9578063f729b00f14610c0957610473565b8063e39ca65814610b27578063e73e14bf14610b47578063ea1a264414610b67578063eb9f4ac714610b9457610473565b8063d4dca69b116100dc578063d4dca69b14610a81578063d94d4ad614610a94578063dd62ed3e14610ab4578063ddbad8b814610afa57610473565b8063b8b18e8914610a15578063b948854614610a2a578063bea8e46b14610a3f578063cc047a0414610a5457610473565b806397a08e7111610185578063a9059cbb11610154578063a9059cbb14610992578063ab2e81d6146109b2578063b09d4b4e146109d2578063b25bb3a7146109ff57610473565b806397a08e7114610919578063a071dcf414610939578063a169c51514610952578063a457c2d71461097257610473565b806390a4c709116101c157806390a4c709146108ad57806390a53085146108c2578063934851ec146108ef57806395d89b411461090457610473565b8063883d9984146108635780638902cd7014610878578063893d20e81461089857610473565b806338920102116102d7578063560291371161026a5780638378a875116102395780638378a875146107f957806384f3996d1461080e57806385ba7c021461082357806387e25b791461084357610473565b80635602913714610761578063568b59151461077657806370a08231146107a35780637b0472f0146107d957610473565b806341b2974a116102a657806341b2974a146106ee578063431ab2331461070e57806348b151661461072e578063534c96c71461074157610473565b8063389201021461066b578063395093511461068b5780633b124fe7146106ab5780633f3ef2dc146106d957610473565b806318160ddd1161034f5780632f54bf6e1161031e5780632f54bf6e146105f157806330d4f3c9146104bd578063313ce5671461062957806336a5a4931461064b57610473565b806318160ddd1461058757806318bcd3d01461059c57806322f2f89a146105bc57806323b872dd146105d157610473565b8063095ea7b31161038b578063095ea7b3146104fe5780630e1b09ed1461052e57806315441bb91461055057806316c127461461056557610473565b8063025e7c2714610480578063042249bb146104bd57806306fdde03146104dc57610473565b366104735760006103c3346003610c29565b6022546001600160a01b03166000908152600b60205260409020549091506103eb9082610c3e565b6022546001600160a01b039081166000908152600b602052604080822093909355602354909116815220546104209082610c3e565b6023546001600160a01b039081166000908152600b602052604080822093909355602454909116815220546104559082610c3e565b6024546001600160a01b03166000908152600b602052604090205550005b60006103c3346003610c29565b34801561048c57600080fd5b506104a061049b366004614e59565b610c4a565b6040516001600160a01b0390911681526020015b60405180910390f35b3480156104c957600080fd5b506013545b6040519081526020016104b4565b3480156104e857600080fd5b506104f1610c74565b6040516104b49190614e72565b34801561050a57600080fd5b5061051e610519366004614eec565b610d06565b60405190151581526020016104b4565b34801561053a57600080fd5b5061054e610549366004614e59565b610d1c565b005b34801561055c57600080fd5b5061054e610e16565b34801561057157600080fd5b5061057a610f68565b6040516104b49190614f5c565b34801561059357600080fd5b50600f546104ce565b3480156105a857600080fd5b5061054e6105b7366004614f85565b610fc9565b3480156105c857600080fd5b506002546104ce565b3480156105dd57600080fd5b5061051e6105ec36600461504a565b611369565b3480156105fd57600080fd5b5061051e61060c36600461508b565b6001600160a01b0316600090815260056020526040902054151590565b34801561063557600080fd5b5060105460405160ff90911681526020016104b4565b34801561065757600080fd5b506028546104a0906001600160a01b031681565b34801561067757600080fd5b506104ce6106863660046150af565b6113d2565b34801561069757600080fd5b5061051e6106a6366004614eec565b611415565b3480156106b757600080fd5b50600e546106c69061ffff1681565b60405161ffff90911681526020016104b4565b3480156106e557600080fd5b5061054e61144b565b3480156106fa57600080fd5b506027546104a0906001600160a01b031681565b34801561071a57600080fd5b506104ce610729366004614e59565b61150e565b34801561073a57600080fd5b50426104ce565b34801561074d57600080fd5b506029546104a0906001600160a01b031681565b34801561076d57600080fd5b5061054e61152f565b34801561078257600080fd5b506104ce610791366004614e59565b60076020526000908152604090205481565b3480156107af57600080fd5b506104ce6107be36600461508b565b6001600160a01b03166000908152600b602052604090205490565b3480156107e557600080fd5b5061054e6107f43660046150df565b6115f2565b34801561080557600080fd5b5061054e611737565b34801561081a57600080fd5b5061054e6117fa565b34801561082f57600080fd5b50602d546104a0906001600160a01b031681565b34801561084f57600080fd5b50602e546104a0906001600160a01b031681565b34801561086f57600080fd5b5061054e6118bd565b34801561088457600080fd5b5061054e610893366004615101565b611980565b3480156108a457600080fd5b5061057a611a25565b3480156108b957600080fd5b5061054e611a34565b3480156108ce57600080fd5b506104ce6108dd366004614e59565b60086020526000908152604090205481565b3480156108fb57600080fd5b5061054e611af7565b34801561091057600080fd5b506104f1611bb7565b34801561092557600080fd5b50602b546104a0906001600160a01b031681565b34801561094557600080fd5b50600e5461ffff166104ce565b34801561095e57600080fd5b5061054e61096d366004614e59565b611bc6565b34801561097e57600080fd5b5061051e61098d366004614eec565b611c67565b34801561099e57600080fd5b5061051e6109ad366004614eec565b611cb6565b3480156109be57600080fd5b506026546104a0906001600160a01b031681565b3480156109de57600080fd5b506109f26109ed36600461508b565b611cc3565b6040516104b49190615125565b348015610a0b57600080fd5b506104ce60005481565b348015610a2157600080fd5b5061054e611dd3565b348015610a3657600080fd5b506001546104ce565b348015610a4b57600080fd5b506104ce611e96565b348015610a6057600080fd5b506104ce610a6f36600461508b565b60056020526000908152604090205481565b348015610a8d57600080fd5b50306104a0565b348015610aa057600080fd5b5061054e610aaf366004614e59565b611ef8565b348015610ac057600080fd5b506104ce610acf3660046151bb565b6001600160a01b039182166000908152600c6020908152604080832093909416825291909152205490565b348015610b0657600080fd5b506104ce610b15366004614e59565b6000908152600d602052604090205490565b348015610b3357600080fd5b506025546104a0906001600160a01b031681565b348015610b5357600080fd5b506109f2610b6236600461508b565b611f5d565b348015610b7357600080fd5b506104ce610b82366004614e59565b60066020526000908152604090205481565b348015610ba057600080fd5b5061054e6121a4565b348015610bb557600080fd5b50602a546104a0906001600160a01b031681565b348015610bd557600080fd5b5061054e610be43660046150df565b612267565b348015610bf557600080fd5b50602c546104a0906001600160a01b031681565b348015610c1557600080fd5b5061054e610c24366004614e59565b6122d1565b6000610c358284615215565b90505b92915050565b6000610c358284615237565b60018181548110610c5a57600080fd5b6000918252602090912001546001600160a01b0316905081565b606060128054610c839061524f565b80601f0160208091040260200160405190810160405280929190818152602001828054610caf9061524f565b8015610cfc5780601f10610cd157610100808354040283529160200191610cfc565b820191906000526020600020905b815481529060010190602001808311610cdf57829003601f168201915b5050505050905090565b6000610d13338484612355565b50600192915050565b600154610d2890612484565b15610e13576003546001600160a01b0316158015610d5957600380546001600160a01b031916331790556001546004555b6013548210610dd55760405162461bcd60e51b815260206004820152603d60248201527f54616c6178546f6b656e3a20416d6f756e74206275726e742063616e6e6f742060448201527f6265206c6172676572207468616e205374616b696e672052657761726400000060648201526084015b60405180910390fd5b601354610de2908361282e565b601355600f54610df2908361282e565b600f558015610e1157600380546001600160a01b031916905560006004555b505b50565b602a60009054906101000a90046001600160a01b03166001600160a01b03166338af3eed6040518163ffffffff1660e01b8152600401602060405180830381865afa158015610e69573d6000803e3d6000fd5b505050506040513d601f19601f82011682018060405250810190610e8d919061528a565b6001600160a01b0316336001600160a01b031614610ebd5760405162461bcd60e51b8152600401610dcc906152a7565b602a546000906001600160a01b031663c8100dcc610ed961283a565b6040518263ffffffff1660e01b8152600401610ef591906152f9565b6020604051808303816000875af1158015610f14573d6000803e3d6000fd5b505050506040513d601f19601f82011682018060405250810190610f38919061532b565b336000908152600b6020526040902054909150610f559082610c3e565b336000908152600b602052604090205550565b60606001805480602002602001604051908101604052809291908181526020018280548015610cfc57602002820191906000526020600020905b81546001600160a01b03168152600190910190602001808311610fa2575050505050905090565b600154610fd590612484565b15610e13576003546001600160a01b031615801561100657600380546001600160a01b031916331790556001546004555b60008251116110685760405162461bcd60e51b815260206004820152602860248201527f7472616e736665724f776e6572736869703a206f776e65727320617272617920604482015267697320656d70747960c01b6064820152608401610dcc565b610100825111156110d75760405162461bcd60e51b815260206004820152603360248201527f7472616e736665724f776e6572736869703a206f776e65727320636f756e742060448201527234b99033b932b0ba32b9103a3432b710191a9b60691b6064820152608401610dcc565b60005b6001548110156111325760056000600183815481106110fb576110fb615344565b60009182526020808320909101546001600160a01b031683528201929092526040018120558061112a8161535a565b9150506110da565b5060005b82518110156112db5760006001600160a01b031683828151811061115c5761115c615344565b60200260200101516001600160a01b031614156111d15760405162461bcd60e51b815260206004820152602d60248201527f7472616e736665724f776e6572736869703a206f776e6572732061727261792060448201526c636f6e7461696e73207a65726f60981b6064820152608401610dcc565b600560008483815181106111e7576111e7615344565b60200260200101516001600160a01b03166001600160a01b031681526020019081526020016000205460001461127b5760405162461bcd60e51b815260206004820152603360248201527f7472616e736665724f776e6572736869703a206f776e65727320617272617920604482015272636f6e7461696e73206475706c69636174657360681b6064820152608401610dcc565b611286816001615237565b6005600085848151811061129c5761129c615344565b60200260200101516001600160a01b03166001600160a01b031681526020019081526020016000208190555080806112d39061535a565b915050611136565b507fe62c04bb3499d4f432a50e07318d42861c4865afb22ee4cfe403d4f94550709060018360405161130e929190615375565b60405180910390a18151611329906001906020850190614da2565b5061133660026000614e07565b6000805490806113458361535a565b91905055508015610e1157600380546001600160a01b031916905560006004555050565b6000611376848484612c03565b6113c884336113c3856040518060600160405280602d81526020016155b5602d91396001600160a01b038a166000908152600c602090815260408083203384529091529020549190612329565b612355565b5060019392505050565b6000806113de83611cc3565b9050806020015184815181106113f6576113f6615344565b6020026020010151604001514261140d91906153dd565b949350505050565b336000818152600c602090815260408083206001600160a01b03871684529091528120549091610d139185906113c39086610c3e565b602e60009054906101000a90046001600160a01b03166001600160a01b03166338af3eed6040518163ffffffff1660e01b8152600401602060405180830381865afa15801561149e573d6000803e3d6000fd5b505050506040513d601f19601f820116820180604052508101906114c2919061528a565b6001600160a01b0316336001600160a01b0316146114f25760405162461bcd60e51b8152600401610dcc906152a7565b602e546000906001600160a01b031663c8100dcc610ed9612ef2565b6002818154811061151e57600080fd5b600091825260209091200154905081565b602c60009054906101000a90046001600160a01b03166001600160a01b03166338af3eed6040518163ffffffff1660e01b8152600401602060405180830381865afa158015611582573d6000803e3d6000fd5b505050506040513d601f19601f820116820180604052508101906115a6919061528a565b6001600160a01b0316336001600160a01b0316146115d65760405162461bcd60e51b8152600401610dcc906152a7565b602c546000906001600160a01b031663c8100dcc610ed96131eb565b8062278d0014806116055750806276a700145b8061161257508062ed4e00145b806116205750806301e13380145b6116815760405162461bcd60e51b815260206004820152602c60248201527f54616c6178546f6b656e3a205374616b696e67207061636b616765206f70746960448201526b1bdb881b9bdd08195e1a5cdd60a21b6064820152608401610dcc565b336000908152600b602052604090205482106116f25760405162461bcd60e51b815260206004820152602a60248201527f54616c6178546f6b656e3a2043616e6e6f74207374616b65206d6f726520746860448201526930b7103cb7ba9037bbb760b11b6064820152608401610dcc565b6000818152600d602052604090205461170e908390839061348f565b611718338361362b565b306000908152600b60205260409020546117329083610c3e565b505050565b602960009054906101000a90046001600160a01b03166001600160a01b03166338af3eed6040518163ffffffff1660e01b8152600401602060405180830381865afa15801561178a573d6000803e3d6000fd5b505050506040513d601f19601f820116820180604052508101906117ae919061528a565b6001600160a01b0316336001600160a01b0316146117de5760405162461bcd60e51b8152600401610dcc906152a7565b6029546000906001600160a01b031663c8100dcc610ed961283a565b602860009054906101000a90046001600160a01b03166001600160a01b03166338af3eed6040518163ffffffff1660e01b8152600401602060405180830381865afa15801561184d573d6000803e3d6000fd5b505050506040513d601f19601f82011682018060405250810190611871919061528a565b6001600160a01b0316336001600160a01b0316146118a15760405162461bcd60e51b8152600401610dcc906152a7565b6028546000906001600160a01b031663c8100dcc610ed961373c565b602b60009054906101000a90046001600160a01b03166001600160a01b03166338af3eed6040518163ffffffff1660e01b8152600401602060405180830381865afa158015611910573d6000803e3d6000fd5b505050506040513d601f19601f82011682018060405250810190611934919061528a565b6001600160a01b0316336001600160a01b0316146119645760405162461bcd60e51b8152600401610dcc906152a7565b602b546000906001600160a01b031663c8100dcc610ed9613afe565b60015461198c90612484565b15610e13576003546001600160a01b03161580156119bd57600380546001600160a01b031916331790556001546004555b600e805461ffff191661ffff841690811790915560405190815233907fdf92943b31fff67e8447ff9fa8b5e226ddcc5fb34d36cfe120c0f2b96eb8d6f79060200160405180910390a28015610e1157600380546001600160a01b031916905560006004555050565b6060611a2f610f68565b905090565b602d60009054906101000a90046001600160a01b03166001600160a01b03166338af3eed6040518163ffffffff1660e01b8152600401602060405180830381865afa158015611a87573d6000803e3d6000fd5b505050506040513d601f19601f82011682018060405250810190611aab919061528a565b6001600160a01b0316336001600160a01b031614611adb5760405162461bcd60e51b8152600401610dcc906152a7565b602d546000906001600160a01b031663c8100dcc610ed96131eb565b602560009054906101000a90046001600160a01b03166001600160a01b03166338af3eed6040518163ffffffff1660e01b8152600401602060405180830381865afa158015611b4a573d6000803e3d6000fd5b505050506040513d601f19601f82011682018060405250810190611b6e919061528a565b601b546001600160a01b03908116911614611b9b5760405162461bcd60e51b8152600401610dcc906152a7565b6025546000906001600160a01b031663c8100dcc610ed9613ec0565b606060118054610c839061524f565b600154611bd290612484565b15610e13576003546001600160a01b0316158015611c0357600380546001600160a01b031916331790556001546004555b81611c4a5760405162461bcd60e51b81526020600482015260176024820152760416d6f756e74206d696e742063616e6e6f74206265203604c1b6044820152606401610dcc565b601354611c579083610c3e565b601355600f54610df29083610c3e565b6000610d1333846113c3856040518060600160405280602a81526020016155e2602a9139336000908152600c602090815260408083206001600160a01b038d1684529091529020549190612329565b6000610d13338484612c03565b60408051808201909152600081526060602082015260006040518060400160405280600081526020016009600a6000876001600160a01b03166001600160a01b031681526020019081526020016000205481548110611d2457611d24615344565b9060005260206000209060020201600101805480602002602001604051908101604052809291908181526020016000905b82821015611dc65760008481526020908190206040805160c0810182526006860290920180546001600160a01b031683526001808201548486015260028201549284019290925260038101546060840152600481015460808401526005015460a08301529083529092019101611d55565b5050509152509392505050565b602660009054906101000a90046001600160a01b03166001600160a01b03166338af3eed6040518163ffffffff1660e01b8152600401602060405180830381865afa158015611e26573d6000803e3d6000fd5b505050506040513d601f19601f82011682018060405250810190611e4a919061528a565b6001600160a01b0316336001600160a01b031614611e7a5760405162461bcd60e51b8152600401610dcc906152a7565b6026546000906001600160a01b031663c8100dcc610ed9614100565b6040516370a0823160e01b815230600482018190526000916370a0823190602401602060405180830381865afa158015611ed4573d6000803e3d6000fd5b505050506040513d601f19601f82011682018060405250810190611a2f919061532b565b600154611f0490612484565b15610e13576003546001600160a01b0316158015611f3557600380546001600160a01b031916331790556001546004555b611f3e826144c2565b8015610e1157600380546001600160a01b031916905560006004555050565b6040805180820190915260008152606060208201526000806040518060400160405280600081526020016009600a6000886001600160a01b03166001600160a01b031681526020019081526020016000205481548110611fbf57611fbf615344565b9060005260206000209060020201600101805480602002602001604051908101604052809291908181526020016000905b828210156120615760008481526020908190206040805160c0810182526006860290920180546001600160a01b031683526001808201548486015260028201549284019290925260038101546060840152600481015460808401526005015460a08301529083529092019101611ff0565b5050509152506020810151519091506120d45760405162461bcd60e51b815260206004820152602f60248201527f5374616b61626c653a2054686973206164647265737320646f6573206e6f742060448201526e6861766520616e79207374616b657360881b6064820152608401610dcc565b60005b81602001515181101561219a57600061212e836020015183815181106120ff576120ff615344565b60200260200101518460200151848151811061211d5761211d615344565b60200260200101516020015161457d565b9050808360200151838151811061214757612147615344565b602002602001015160600181815250508260200151828151811061216d5761216d615344565b602002602001015160200151846121849190615237565b93506121939050600182615237565b90506120d7565b5090815292915050565b602760009054906101000a90046001600160a01b03166001600160a01b03166338af3eed6040518163ffffffff1660e01b8152600401602060405180830381865afa1580156121f7573d6000803e3d6000fd5b505050506040513d601f19601f8201168201806040525081019061221b919061528a565b6001600160a01b0316336001600160a01b03161461224b5760405162461bcd60e51b8152600401610dcc906152a7565b6027546000906001600160a01b031663c8100dcc610ed9614100565b60008061227484846145d0565b91509150612281816144c2565b306000908152600b602052604090205461229b908361282e565b50306000908152600b60205260409020546122b6908261282e565b506122cb335b6122c68385615237565b6148be565b50505050565b6000806122dd836149a4565b915091506122ea816144c2565b306000908152600b6020526040902054612304908361282e565b50306000908152600b602052604090205461231f908261282e565b50611732336122bc565b6000818484111561234d5760405162461bcd60e51b8152600401610dcc9190614e72565b505050900390565b6001600160a01b0383166123bd5760405162461bcd60e51b815260206004820152602960248201527f54616c6178546f6b656e3a20617070726f76652066726f6d20746865207a65726044820152686f206164647265737360b81b6064820152608401610dcc565b6001600160a01b0382166124235760405162461bcd60e51b815260206004820152602760248201527f54616c6178546f6b656e3a20617070726f766520746f20746865207a65726f206044820152666164647265737360c81b6064820152608401610dcc565b6001600160a01b038381166000818152600c602090815260408083209487168084529482529182902085905590518481527f8c5be1e5ebec7d5bd14f71427d1e84f3dd0314c0f7b2291e5b200ac8c7c3b925910160405180910390a3505050565b6003546000906001600160a01b0316331415612528576004548211156125205760405162461bcd60e51b8152602060048201526044602482018190527f636865636b486f774d616e794f776e6572733a206e6573746564206f776e6572908201527f73206d6f64696669657220636865636b2072657175697265206d6f7265206f776064820152636e65727360e01b608482015260a401610dcc565b506001919050565b3360009081526005602052604090205415156001146125a05760405162461bcd60e51b815260206004820152602e60248201527f636865636b486f774d616e794f776e6572733a206d73672e73656e646572206960448201526d39903737ba1030b71037bbb732b960911b6064820152608401610dcc565b336000908152600560205260408120546125bc906001906153dd565b9050600080366000546040516020016125d7939291906153f4565b6040516020818303038152906040528051906020012090508160026125fc91906154ea565b600082815260076020526040902054161561267f5760405162461bcd60e51b815260206004820152603960248201527f636865636b486f774d616e794f776e6572733a206f776e657220616c7265616460448201527f7920766f74656420666f7220746865206f7065726174696f6e000000000000006064820152608401610dcc565b61268a8260026154ea565b6000828152600760209081526040808320805490941790935560089052908120546126b6906001615237565b6000838152600860205260409020819055905060018114156127605760028054600084815260066020908152604080832084905560018085018655949092527f405787fa12a823e0f2b7631cc41b3ba8828b3321ca811111fa75cd3aa3bb5ace909201859055915482518581529182018890528183015233606082015290517f6bab0114f9524353d2d33e64edd3ebbd16e21edd57de2226ba76c310a7ce22659181900360800190a15b60015460408051848152602081018490528082018890526060810192909252336080830152517f8dd9582c6577aea81973b5adeb6c135f6e18565d99578b7ba0c9377437ec02219181900360a00190a1600082815260086020526040902054851415612823576127cf82614b86565b600154604080518481526020810188905280820192909252336060830152517f8a11c8ca99994c292318ce367f65bf6ff61d390bc814b3588496f6fbcc32807a9181900360800190a1506001949350505050565b506000949350505050565b6000610c3582846153dd565b612842614e25565b60405180610560016040528061286362051615670de0b6b3a7640000614c56565b815260200160008152602001600081526020016000815260200161289262051615670de0b6b3a7640000614c56565b815260200160008152602001600081526020016128ba62051615670de0b6b3a7640000614c56565b815260200160008152602001600081526020016128e262051615670de0b6b3a7640000614c56565b8152602001600081526020016000815260200161290a62011a1e670de0b6b3a7640000614c56565b815260200161292462011a1e670de0b6b3a7640000614c56565b815260200161293e62011a1e670de0b6b3a7640000614c56565b815260200161295862011a1e670de0b6b3a7640000614c56565b815260200161297262011a1e670de0b6b3a7640000614c56565b815260200161298c62011a1e670de0b6b3a7640000614c56565b81526020016129a662011a1e670de0b6b3a7640000614c56565b81526020016129c062011a1e670de0b6b3a7640000614c56565b81526020016129da62011a1e670de0b6b3a7640000614c56565b81526020016129f462011a1e670de0b6b3a7640000614c56565b8152602001612a0e62011a1e670de0b6b3a7640000614c56565b8152602001612a2862011a1e670de0b6b3a7640000614c56565b8152602001612a4262011a1e670de0b6b3a7640000614c56565b8152602001612a5c62011a1e670de0b6b3a7640000614c56565b8152602001612a7662011a1e670de0b6b3a7640000614c56565b8152602001612a9062011a1e670de0b6b3a7640000614c56565b8152602001612aaa62011a1e670de0b6b3a7640000614c56565b8152602001612ac462011a1e670de0b6b3a7640000614c56565b8152602001612ade62011a1e670de0b6b3a7640000614c56565b8152602001612af862011a1e670de0b6b3a7640000614c56565b8152602001612b1262011a1e670de0b6b3a7640000614c56565b8152602001612b2c62011a1e670de0b6b3a7640000614c56565b8152602001612b4662011a1e670de0b6b3a7640000614c56565b8152602001612b6062011a1e670de0b6b3a7640000614c56565b8152602001612b7a62011a1e670de0b6b3a7640000614c56565b8152602001612b9462011a1e670de0b6b3a7640000614c56565b8152602001612bae62011a1e670de0b6b3a7640000614c56565b8152602001612bc862011a1e670de0b6b3a7640000614c56565b8152602001612be262011a1e670de0b6b3a7640000614c56565b8152602001612bfc62011a1e670de0b6b3a7640000614c56565b9052919050565b6001600160a01b038316612c6c5760405162461bcd60e51b815260206004820152602a60248201527f54616c6178546f6b656e3a207472616e736665722066726f6d20746865207a65604482015269726f206164647265737360b01b6064820152608401610dcc565b6001600160a01b038216612cd35760405162461bcd60e51b815260206004820152602860248201527f54616c6178546f6b656e3a207472616e7366657220746f20746865207a65726f604482015267206164647265737360c01b6064820152608401610dcc565b600e54600090612cf390612cec90849061ffff16614c56565b6064610c29565b90506000612d01838361282e565b90506000612d24612d1d83612d186002600a610c29565b614c56565b6003610c29565b90506000612d3883612d186008600a610c29565b6022546001600160a01b03166000908152600b6020526040902054909150612d609083610c3e565b6022546001600160a01b039081166000908152600b60205260408082209390935560235490911681522054612d959083610c3e565b6023546001600160a01b039081166000908152600b60205260408082209390935560245490911681522054612dca9083610c3e565b6024546001600160a01b03166000908152600b6020526040808220929092553081522054612df89082610c3e565b600b6000306001600160a01b03166001600160a01b0316815260200190815260200160002081905550612e5e856040518060600160405280602b815260200161560c602b91396001600160a01b038a166000908152600b60205260409020549190612329565b6001600160a01b038089166000908152600b60205260408082209390935590881681522054612e8d9084610c3e565b6001600160a01b038088166000818152600b602052604090819020939093559151908916907fddf252ad1be2c89b69c2b068fc378daa952ba7f163c4a11628f55a4df523b3ef90612ee19087815260200190565b60405180910390a350505050505050565b612efa614e25565b604051806105600160405280612f1b6211cd4a670de0b6b3a7640000614c56565b8152602001600081526020016000815260200160008152602001612f4a62989680670de0b6b3a7640000614c56565b81526020016000815260200160008152602001612f7262989680670de0b6b3a7640000614c56565b81526020016000815260200160008152602001612f9a62989680670de0b6b3a7640000614c56565b81526020016000815260200160008152602001612fc262051616670de0b6b3a7640000614c56565b8152602001612fdc62051616670de0b6b3a7640000614c56565b8152602001612ff662051616670de0b6b3a7640000614c56565b815260200161301062051616670de0b6b3a7640000614c56565b815260200161302a62051616670de0b6b3a7640000614c56565b815260200161304462051616670de0b6b3a7640000614c56565b815260200161305e62051616670de0b6b3a7640000614c56565b815260200161307862051616670de0b6b3a7640000614c56565b815260200161309262051616670de0b6b3a7640000614c56565b81526020016130ac62051616670de0b6b3a7640000614c56565b81526020016130c662051616670de0b6b3a7640000614c56565b81526020016130e062051616670de0b6b3a7640000614c56565b81526020016130fa62051616670de0b6b3a7640000614c56565b815260200161311462051616670de0b6b3a7640000614c56565b815260200161312e62051616670de0b6b3a7640000614c56565b815260200161314862051616670de0b6b3a7640000614c56565b815260200161316262051616670de0b6b3a7640000614c56565b815260200161317c62051616670de0b6b3a7640000614c56565b815260200161319662051616670de0b6b3a7640000614c56565b8152602001600081526020016000815260200160008152602001600081526020016000815260200160008152602001600081526020016000815260200160008152602001600081526020016000815250905090565b6131f3614e25565b6040518061056001604052806132146211cd4b670de0b6b3a7640000614c56565b8152602001600081526020016000815260200160008152602001613243620f4240670de0b6b3a7640000614c56565b8152602001600081526020016000815260200161326b620f4240670de0b6b3a7640000614c56565b81526020016000815260200160008152602001613293620f4240670de0b6b3a7640000614c56565b815260200160008152602001600081526020016132bb62051615670de0b6b3a7640000614c56565b81526020016132d562051615670de0b6b3a7640000614c56565b81526020016132ef62051615670de0b6b3a7640000614c56565b815260200161330962051615670de0b6b3a7640000614c56565b815260200161332362051615670de0b6b3a7640000614c56565b815260200161333d62051615670de0b6b3a7640000614c56565b815260200161335762051615670de0b6b3a7640000614c56565b815260200161337162051615670de0b6b3a7640000614c56565b815260200161338b62051615670de0b6b3a7640000614c56565b81526020016133a562051615670de0b6b3a7640000614c56565b81526020016133bf62051615670de0b6b3a7640000614c56565b81526020016133d962051615670de0b6b3a7640000614c56565b81526020016133f362051615670de0b6b3a7640000614c56565b815260200161340d62051615670de0b6b3a7640000614c56565b815260200161342762051615670de0b6b3a7640000614c56565b815260200161344162051615670de0b6b3a7640000614c56565b815260200161345b62051615670de0b6b3a7640000614c56565b815260200161347562051615670de0b6b3a7640000614c56565b815260200161319662051615670de0b6b3a7640000614c56565b600083116134df5760405162461bcd60e51b815260206004820152601e60248201527f5374616b61626c653a2043616e6e6f74207374616b65206e6f7468696e6700006044820152606401610dcc565b336000908152600a60205260409020544281613501576134fe33614c62565b91505b6009828154811061351457613514615344565b90600052602060002090600202016001016040518060c00160405280336001600160a01b031681526020018781526020018381526020016000815260200185815260200183876135649190615237565b90528154600180820184556000938452602093849020835160069093020180546001600160a01b0319166001600160a01b03909316929092178255928201519281019290925560408101516002830155606081015160038301556080810151600483015560a00151600590910155337f9cfd25589d1eb8ad71e342a86a8524e83522e3936c0803048c08f6d9ad974f40868484613601818a615237565b60408051948552602085019390935291830152606082015260800160405180910390a25050505050565b6001600160a01b0382166136905760405162461bcd60e51b815260206004820152602660248201527f54616c6178546f6b656e3a206275726e2066726f6d20746865207a65726f206160448201526564647265737360d01b6064820152608401610dcc565b6136cd8160405180606001604052806027815260200161558e602791396001600160a01b0385166000908152600b60205260409020549190612329565b6001600160a01b0383166000908152600b6020526040902055600f546136f3908261282e565b600f556040518181526000906001600160a01b038416907fddf252ad1be2c89b69c2b068fc378daa952ba7f163c4a11628f55a4df523b3ef906020015b60405180910390a35050565b613744614e25565b604051806105600160405280613765620f4240670de0b6b3a7640000614c56565b8152602001600081526020016000815260200160008152602001613794620f4240670de0b6b3a7640000614c56565b815260200160008152602001600081526020016137bc620f4240670de0b6b3a7640000614c56565b815260200160008152602001600081526020016137e4620f4240670de0b6b3a7640000614c56565b8152602001600081526020016000815260200161380c62051616670de0b6b3a7640000614c56565b815260200161382662051616670de0b6b3a7640000614c56565b815260200161384062051616670de0b6b3a7640000614c56565b815260200161385a62051616670de0b6b3a7640000614c56565b815260200161387462051616670de0b6b3a7640000614c56565b815260200161388e62051616670de0b6b3a7640000614c56565b81526020016138a862051616670de0b6b3a7640000614c56565b81526020016138c262051616670de0b6b3a7640000614c56565b81526020016138dc62051616670de0b6b3a7640000614c56565b81526020016138f662051616670de0b6b3a7640000614c56565b815260200161391062051616670de0b6b3a7640000614c56565b815260200161392a62051616670de0b6b3a7640000614c56565b815260200161394462051616670de0b6b3a7640000614c56565b815260200161395e62051616670de0b6b3a7640000614c56565b815260200161397862051616670de0b6b3a7640000614c56565b815260200161399262051616670de0b6b3a7640000614c56565b81526020016139ac62051616670de0b6b3a7640000614c56565b81526020016139c662051616670de0b6b3a7640000614c56565b81526020016139e062051616670de0b6b3a7640000614c56565b81526020016139fa62051616670de0b6b3a7640000614c56565b8152602001613a1462051616670de0b6b3a7640000614c56565b8152602001613a2e62051616670de0b6b3a7640000614c56565b8152602001613a4862051616670de0b6b3a7640000614c56565b8152602001613a6262051616670de0b6b3a7640000614c56565b8152602001613a7c62051616670de0b6b3a7640000614c56565b8152602001613a9662051616670de0b6b3a7640000614c56565b8152602001613ab062051616670de0b6b3a7640000614c56565b8152602001613aca62051616670de0b6b3a7640000614c56565b8152602001613ae462051616670de0b6b3a7640000614c56565b8152602001612bfc62051616670de0b6b3a7640000614c56565b613b06614e25565b604051806105600160405280613b2762051616670de0b6b3a7640000614c56565b8152602001600081526020016000815260200160008152602001613b5662051616670de0b6b3a7640000614c56565b81526020016000815260200160008152602001613b7e62051616670de0b6b3a7640000614c56565b81526020016000815260200160008152602001613ba662051616670de0b6b3a7640000614c56565b81526020016000815260200160008152602001613bce62011a1f670de0b6b3a7640000614c56565b8152602001613be862011a1f670de0b6b3a7640000614c56565b8152602001613c0262011a1f670de0b6b3a7640000614c56565b8152602001613c1c62011a1f670de0b6b3a7640000614c56565b8152602001613c3662011a1f670de0b6b3a7640000614c56565b8152602001613c5062011a1f670de0b6b3a7640000614c56565b8152602001613c6a62011a1f670de0b6b3a7640000614c56565b8152602001613c8462011a1f670de0b6b3a7640000614c56565b8152602001613c9e62011a1f670de0b6b3a7640000614c56565b8152602001613cb862011a1f670de0b6b3a7640000614c56565b8152602001613cd262011a1f670de0b6b3a7640000614c56565b8152602001613cec62011a1f670de0b6b3a7640000614c56565b8152602001613d0662011a1f670de0b6b3a7640000614c56565b8152602001613d2062011a1f670de0b6b3a7640000614c56565b8152602001613d3a62011a1f670de0b6b3a7640000614c56565b8152602001613d5462011a1f670de0b6b3a7640000614c56565b8152602001613d6e62011a1f670de0b6b3a7640000614c56565b8152602001613d8862011a1f670de0b6b3a7640000614c56565b8152602001613da262011a1f670de0b6b3a7640000614c56565b8152602001613dbc62011a1f670de0b6b3a7640000614c56565b8152602001613dd662011a1f670de0b6b3a7640000614c56565b8152602001613df062011a1f670de0b6b3a7640000614c56565b8152602001613e0a62011a1f670de0b6b3a7640000614c56565b8152602001613e2462011a1f670de0b6b3a7640000614c56565b8152602001613e3e62011a1f670de0b6b3a7640000614c56565b8152602001613e5862011a1f670de0b6b3a7640000614c56565b8152602001613e7262011a1f670de0b6b3a7640000614c56565b8152602001613e8c62011a1f670de0b6b3a7640000614c56565b8152602001613ea662011a1f670de0b6b3a7640000614c56565b8152602001612bfc62011a1f670de0b6b3a7640000614c56565b613ec8614e25565b60405180610560016040528060008152602001600081526020016000815260200160008152602001600081526020016000815260200160008152602001613f19674563918244f40000611b51610c29565b8152602001613f32674563918244f40000611b51610c29565b8152602001613f4b674563918244f40000611b51610c29565b8152602001613f64674563918244f40000611b51610c29565b8152602001613f7d674563918244f40000611b51610c29565b8152602001613f96674563918244f40000611b51610c29565b8152602001613faf674563918244f40000611b51610c29565b8152602001613fc8674563918244f40000611b51610c29565b8152602001613fe1674563918244f40000611b51610c29565b8152602001613ffa674563918244f40000611b51610c29565b8152602001614013674563918244f40000611b51610c29565b815260200161402c674563918244f40000611b51610c29565b8152602001614045674563918244f40000611b51610c29565b815260200161405e67446ae0e136ad0000611b51610c29565b81526020016000815260200160008152602001600081526020016000815260200160008152602001600081526020016000815260200160008152602001600081526020016000815260200160008152602001600081526020016000815260200160008152602001600081526020016000815260200160008152602001600081526020016000815260200160008152602001600081526020016000815250905090565b614108614e25565b604051806105600160405280614129620f4240670de0b6b3a7640000614c56565b8152602001600081526020016000815260200160008152602001614158620f4240670de0b6b3a7640000614c56565b81526020016000815260200160008152602001614180620f4240670de0b6b3a7640000614c56565b815260200160008152602001600081526020016141a8620f4240670de0b6b3a7640000614c56565b815260200160008152602001600081526020016141d062051615670de0b6b3a7640000614c56565b81526020016141ea62051615670de0b6b3a7640000614c56565b815260200161420462051615670de0b6b3a7640000614c56565b815260200161421e62051615670de0b6b3a7640000614c56565b815260200161423862051615670de0b6b3a7640000614c56565b815260200161425262051615670de0b6b3a7640000614c56565b815260200161426c62051615670de0b6b3a7640000614c56565b815260200161428662051615670de0b6b3a7640000614c56565b81526020016142a062051615670de0b6b3a7640000614c56565b81526020016142ba62051615670de0b6b3a7640000614c56565b81526020016142d462051615670de0b6b3a7640000614c56565b81526020016142ee62051615670de0b6b3a7640000614c56565b815260200161430862051615670de0b6b3a7640000614c56565b815260200161432262051615670de0b6b3a7640000614c56565b815260200161433c62051615670de0b6b3a7640000614c56565b815260200161435662051615670de0b6b3a7640000614c56565b815260200161437062051615670de0b6b3a7640000614c56565b815260200161438a62051615670de0b6b3a7640000614c56565b81526020016143a462051615670de0b6b3a7640000614c56565b81526020016143be62051615670de0b6b3a7640000614c56565b81526020016143d862051615670de0b6b3a7640000614c56565b81526020016143f262051615670de0b6b3a7640000614c56565b815260200161440c62051615670de0b6b3a7640000614c56565b815260200161442662051615670de0b6b3a7640000614c56565b815260200161444062051615670de0b6b3a7640000614c56565b815260200161445a62051615670de0b6b3a7640000614c56565b815260200161447462051615670de0b6b3a7640000614c56565b815260200161448e62051615670de0b6b3a7640000614c56565b81526020016144a862051615670de0b6b3a7640000614c56565b8152602001612bfc62051615670de0b6b3a7640000614c56565b6001546144ce90612484565b15610e13576003546001600160a01b03161580156144ff57600380546001600160a01b031916331790556001546004555b816145465760405162461bcd60e51b81526020600482015260176024820152760416d6f756e74206d696e742063616e6e6f74206265203604c1b6044820152606401610dcc565b306000908152600b60205260409020546145609083610c3e565b306000908152600b6020526040902055600f54610df29083610c3e565b600082602001516000141561459457506000610c38565b6a52b7d2dcc80cd2e40000006145ad8460400151614cd8565b60808501516145bc90856154f6565b6145c691906154f6565b610c359190615215565b336000908152600a6020526040812054600980548392918391839081106145f9576145f9615344565b9060005260206000209060020201600101858154811061461b5761461b615344565b60009182526020918290206040805160c081018252600690930290910180546001600160a01b03168352600181015493830193909352600283015490820152600382015460608201526004820154608082015260059091015460a0820181905290915042101561469d5760405162461bcd60e51b8152600401610dcc90615515565b858160200151101561470d5760405162461bcd60e51b815260206004820152603360248201527f5374616b61626c653a2043616e6e6f74207769746864726177206d6f726520746044820152721a185b881e5bdd481a185d99481cdd185ad959606a1b6064820152608401610dcc565b6000614719828861457d565b9050600082604001518360a0015161473191906153dd565b905087836020015161474391906153dd565b602084018190526147c5576009848154811061476157614761615344565b9060005260206000209060020201600101878154811061478357614783615344565b60009182526020822060069091020180546001600160a01b031916815560018101829055600281018290556003810182905560048101829055600501556148b3565b8260200151600985815481106147dd576147dd615344565b906000526020600020906002020160010188815481106147ff576147ff615344565b906000526020600020906006020160010181905550426009858154811061482857614828615344565b9060005260206000209060020201600101888154811061484a5761484a615344565b60009182526020909120600260069092020101556148688142615237565b6009858154811061487b5761487b615344565b9060005260206000209060020201600101888154811061489d5761489d615344565b9060005260206000209060060201600501819055505b509596945050505050565b6001600160a01b0382166149205760405162461bcd60e51b8152602060048201526024808201527f54616c6178546f6b656e3a206d696e7420746f20746865207a65726f206164646044820152637265737360e01b6064820152608401610dcc565b600f5461492d9082610c3e565b600f556001600160a01b0382166000908152600b60205260409020546149539082610c3e565b6001600160a01b0383166000818152600b60205260408082209390935591519091907fddf252ad1be2c89b69c2b068fc378daa952ba7f163c4a11628f55a4df523b3ef906137309085815260200190565b336000908152600a6020526040812054600980548392918391839081106149cd576149cd615344565b906000526020600020906002020160010185815481106149ef576149ef615344565b60009182526020918290206040805160c081018252600690930290910180546001600160a01b03168352600181015493830193909352600283015490820152600382015460608201526004820154608082015260059091015460a08201819052909150421115614a715760405162461bcd60e51b8152600401610dcc90615515565b6000816020015111614af55760405162461bcd60e51b815260206004820152604160248201527f5374616b61626c653a2043616e6e6f742077697468647261772c20796f75206460448201527f6f6e2774206861766520616e79207374616b6520696e207468697320496e64656064820152600f60fb1b608482015260a401610dcc565b60208101516000614b06838361457d565b905060098481548110614b1b57614b1b615344565b90600052602060002090600202016001018781548110614b3d57614b3d615344565b60009182526020822060069091020180546001600160a01b0319168155600181018290556002810182905560038101829055600481018290556005015590969095509350505050565b600081815260066020526040902054600254614ba4906001906153dd565b811015614c2d5760028054614bbb906001906153dd565b81548110614bcb57614bcb615344565b906000526020600020015460028281548110614be957614be9615344565b9060005260206000200181905550806006600060028481548110614c0f57614c0f615344565b90600052602060002001548152602001908152602001600020819055505b506000908152600760209081526040808320839055600882528083208390556006909152812055565b6000610c3582846154f6565b60098054600190810180835560009283528291614c7e916153dd565b90508260098281548110614c9457614c94615344565b6000918252602080832060029290920290910180546001600160a01b0319166001600160a01b03948516179055949091168152600a90935260409092208290555090565b6000808211614d295760405162461bcd60e51b815260206004820152601b60248201527f5374616b61626c653a204572726f722074696d657374616d70203000000000006044820152606401610dcc565b610c38614d3683426153dd565b614d4a9069d3c21bcecceda10000006154f6565b6301e133806040518060600160405280602781526020016155676027913960008183614d895760405162461bcd60e51b8152600401610dcc9190614e72565b50828481614d9957614d996151e9565b04949350505050565b828054828255906000526020600020908101928215614df7579160200282015b82811115614df757825182546001600160a01b0319166001600160a01b03909116178255602090920191600190910190614dc2565b50614e03929150614e44565b5090565b5080546000825590600052602060002090810190610e139190614e44565b604051806105600160405280602b906020820280368337509192915050565b5b80821115614e035760008155600101614e45565b600060208284031215614e6b57600080fd5b5035919050565b600060208083528351808285015260005b81811015614e9f57858101830151858201604001528201614e83565b81811115614eb1576000604083870101525b50601f01601f1916929092016040019392505050565b6001600160a01b0381168114610e1357600080fd5b8035614ee781614ec7565b919050565b60008060408385031215614eff57600080fd5b8235614f0a81614ec7565b946020939093013593505050565b600081518084526020808501945080840160005b83811015614f515781516001600160a01b031687529582019590820190600101614f2c565b509495945050505050565b602081526000610c356020830184614f18565b634e487b7160e01b600052604160045260246000fd5b60006020808385031215614f9857600080fd5b823567ffffffffffffffff80821115614fb057600080fd5b818501915085601f830112614fc457600080fd5b813581811115614fd657614fd6614f6f565b8060051b604051601f19603f83011681018181108582111715614ffb57614ffb614f6f565b60405291825284820192508381018501918883111561501957600080fd5b938501935b8285101561503e5761502f85614edc565b8452938501939285019261501e565b98975050505050505050565b60008060006060848603121561505f57600080fd5b833561506a81614ec7565b9250602084013561507a81614ec7565b929592945050506040919091013590565b60006020828403121561509d57600080fd5b81356150a881614ec7565b9392505050565b600080604083850312156150c257600080fd5b8235915060208301356150d481614ec7565b809150509250929050565b600080604083850312156150f257600080fd5b50508035926020909101359150565b60006020828403121561511357600080fd5b813561ffff811681146150a857600080fd5b6000602080835260608084018551838601528286015160408081880152828251808552608094508489019150868401935060005b818110156151ac57845180516001600160a01b03168452888101518985015284810151858501528781015188850152868101518785015260a090810151908401529387019360c090920191600101615159565b50909998505050505050505050565b600080604083850312156151ce57600080fd5b82356151d981614ec7565b915060208301356150d481614ec7565b634e487b7160e01b600052601260045260246000fd5b634e487b7160e01b600052601160045260246000fd5b60008261523257634e487b7160e01b600052601260045260246000fd5b500490565b6000821982111561524a5761524a6151ff565b500190565b600181811c9082168061526357607f821691505b6020821081141561528457634e487b7160e01b600052602260045260246000fd5b50919050565b60006020828403121561529c57600080fd5b81516150a881614ec7565b60208082526032908201527f54616c6178546f6b656e3a204f6e6c7920636c61696d61626c652062792055736040820152716572206f662074686973206164647265737360701b606082015260800190565b6105608101818360005b602b811015615322578151835260209283019290910190600101615303565b50505092915050565b60006020828403121561533d57600080fd5b5051919050565b634e487b7160e01b600052603260045260246000fd5b600060001982141561536e5761536e6151ff565b5060010190565b6000604082016040835280855480835260608501915086600052602092508260002060005b828110156153bf5781546001600160a01b03168452928401926001918201910161539a565b505050838103828501526153d38186614f18565b9695505050505050565b6000828210156153ef576153ef6151ff565b500390565b82848237909101908152602001919050565b600181815b80851115615441578160001904821115615427576154276151ff565b8085161561543457918102915b93841c939080029061540b565b509250929050565b60008261545857506001610c38565b8161546557506000610c38565b816001811461547b5760028114615485576154a1565b6001915050610c38565b60ff841115615496576154966151ff565b50506001821b610c38565b5060208310610133831016604e8410600b84101617156154c4575081810a610c38565b6154ce8383615406565b80600019048211156154e2576154e26151ff565b029392505050565b6000610c358383615449565b6000816000190483118215151615615510576155106151ff565b500290565b60208082526031908201527f5374616b61626c653a2043616e6e6f74207769746864726177206265666f7265604082015270207468652072656c656173652074696d6560781b60608201526080019056fe5374616b61626c653a204572726f722063616e6e6f74206469766964652074696d657374616d7054616c6178546f6b656e3a206275726e20616d6f756e7420657863656564732062616c616e636554616c6178546f6b656e3a207472616e7366657220616d6f756e74206578636565647320616c6c6f77616e636554616c6178546f6b656e3a2064656372656173656420616c6c6f77616e63652062656c6f77207a65726f54616c6178546f6b656e3a207472616e7366657220616d6f756e7420657863656564732062616c616e6365a2646970667358221220f9c799c273dacf5d474d3143672c58f3f0a4af8d4decf51e6db702dc2fbdedcb64736f6c634300080b003360a060405234801561001057600080fd5b5060405161059938038061059983398101604081905261002f916100b3565b600082116100985760405162461bcd60e51b815260206004820152602c60248201527f546f6b656e54696d654c6f636b3a20416d6f756e74206d75737420677265617460448201526b6572207468616e207a65726f60a01b606482015260840160405180910390fd5b6000919091556001600160a01b0316608052426001556100f0565b600080604083850312156100c657600080fd5b825160208401519092506001600160a01b03811681146100e557600080fd5b809150509250929050565b60805161048f61010a60003960006053015261048f6000f3fe608060405234801561001057600080fd5b50600436106100415760003560e01c806338af3eed14610046578063aa8c217c14610082578063c8100dcc14610094575b600080fd5b6040516001600160a01b037f00000000000000000000000000000000000000000000000000000000000000001681526020015b60405180910390f35b6000545b604051908152602001610079565b6100866100a23660046102a4565b600080600054116100fa5760405162461bcd60e51b815260206004820152601d60248201527f546f6b656e54696d656c6f636b3a206e6f20746f6b656e73206c65667400000060448201526064015b60405180910390fd5b600061010583610191565b9050600081116101635760405162461bcd60e51b815260206004820152602360248201527f546f6b656e54696d656c6f636b3a206e6f20746f6b656e7320746f2072656c6560448201526261736560e81b60648201526084016100f1565b610188600054826040518060600160405280603b815260200161041f603b913961026c565b60005592915050565b60008062278d00600154426101a69190610347565b6101b0919061035e565b6002549091506000905b8281116101f5576101e1828683602b81106101d7576101d7610380565b6020020151610298565b9150806101ed81610396565b9150506101ba565b506102018260016103b1565b600255806102655760405162461bcd60e51b815260206004820152602b60248201527f546f6b656e54696d654c6f636b3a2054686572652773206e6f7468696e67207460448201526a1bc818db185a5b481e595d60aa1b60648201526084016100f1565b9392505050565b600081848411156102905760405162461bcd60e51b81526004016100f191906103c9565b505050900390565b600061026582846103b1565b60006105608083850312156102b857600080fd5b83601f8401126102c757600080fd5b60405181810181811067ffffffffffffffff821117156102f757634e487b7160e01b600052604160045260246000fd5b60405290830190808583111561030c57600080fd5b845b8381101561032657803582526020918201910161030e565b509095945050505050565b634e487b7160e01b600052601160045260246000fd5b60008282101561035957610359610331565b500390565b60008261037b57634e487b7160e01b600052601260045260246000fd5b500490565b634e487b7160e01b600052603260045260246000fd5b60006000198214156103aa576103aa610331565b5060010190565b600082198211156103c4576103c4610331565b500190565b600060208083528351808285015260005b818110156103f6578581018301518582016040015282016103da565b81811115610408576000604083870101525b50601f01601f191692909201604001939250505056fe546f6b656e54696d654c6f636b3a2043616e6e6f742073756273747261637420746f74616c20616d6f756e74207769746820636c61696d61626c65a264697066735822122030d56061cf49350aed5e725b65c880d4d897e4dda0210e0e7b81f8d0b85307b164736f6c634300080b003354616c6178546f6b656e3a2043616e6e6f74207472616e73666572206d6f7265207468616e20746f74616c20737570706c797472616e736665724f776e6572736869703a206f776e65727320617272617920",
			"opcodes": "PUSH1 0x80 PUSH1 0x40 MSTORE CALLVALUE DUP1 ISZERO PUSH3 0x11 JUMPI PUSH1 0x0 DUP1 REVERT JUMPDEST POP PUSH1 0x1 DUP1 SLOAD DUP1 DUP3 ADD DUP3 SSTORE PUSH32 0xB10E2D527612073B26EECDFD717E6A320CF44B4AFAC2B0732D9FCBE2B7FA0CF6 ADD DUP1 SLOAD PUSH1 0x1 PUSH1 0x1 PUSH1 0xA0 SHL SUB NOT AND CALLER SWAP1 DUP2 OR SWAP1 SWAP2 SSTORE PUSH1 0x0 SWAP1 DUP2 MSTORE PUSH1 0x5 PUSH1 0x20 SWAP1 DUP2 MSTORE PUSH1 0x40 DUP1 DUP4 KECCAK256 DUP5 SWAP1 SSTORE PUSH1 0x9 DUP1 SLOAD SWAP1 SWAP5 ADD DUP5 SSTORE SWAP3 SWAP1 SWAP2 MSTORE DUP2 MLOAD DUP1 DUP4 ADD SWAP1 SWAP3 MSTORE PUSH1 0x8 DUP1 DUP4 MSTORE PUSH8 0x54414C415845554D PUSH1 0xC0 SHL SWAP3 SWAP1 SWAP2 ADD SWAP2 DUP3 MSTORE PUSH3 0x9F SWAP2 PUSH1 0x12 SWAP2 PUSH3 0x1284 JUMP JUMPDEST POP PUSH1 0x40 DUP1 MLOAD DUP1 DUP3 ADD SWAP1 SWAP2 MSTORE PUSH1 0x5 DUP1 DUP3 MSTORE PUSH5 0xA8829882B PUSH1 0xDB SHL PUSH1 0x20 SWAP1 SWAP3 ADD SWAP2 DUP3 MSTORE PUSH3 0xCE SWAP2 PUSH1 0x11 SWAP2 PUSH3 0x1284 JUMP JUMPDEST POP PUSH1 0x10 DUP1 SLOAD PUSH1 0xFF NOT AND PUSH1 0x12 OR SWAP1 SSTORE PUSH11 0xADB53ACFA41AEE12000000 PUSH1 0xF SSTORE PUSH1 0x18 DUP1 SLOAD PUSH1 0x1 DUP2 DUP2 ADD DUP4 SSTORE PUSH1 0x0 DUP4 SWAP1 MSTORE PUSH32 0xB13D2D76D1F4B7BE834882E410B3E3A8AFAF69F83600AE24DB354391D2378D2E SWAP2 DUP3 ADD DUP1 SLOAD PUSH1 0x1 PUSH1 0x1 PUSH1 0xA0 SHL SUB NOT SWAP1 DUP2 AND PUSH20 0xFA15F7550EC226C2A963F9CEB18AED8FD182075 OR SWAP1 SWAP2 SSTORE DUP4 SLOAD DUP1 DUP4 ADD DUP6 SSTORE DUP4 ADD DUP1 SLOAD DUP3 AND PUSH20 0x324505AEF2A89CD458824D4FA225010329FD949A OR SWAP1 SSTORE DUP4 SLOAD SWAP2 DUP3 ADD DUP5 SSTORE SWAP2 ADD DUP1 SLOAD DUP3 AND PUSH20 0xA9A58CF0A08B26FC832935870A329C99968F8EC9 OR SWAP1 SSTORE PUSH1 0x19 DUP1 SLOAD DUP3 AND PUSH20 0x681C7F8845AD51F10AF85AEAF116371953024899 SWAP1 DUP2 OR SWAP1 SWAP2 SSTORE PUSH1 0x1A DUP1 SLOAD DUP4 AND DUP3 OR SWAP1 SSTORE PUSH1 0x1C DUP1 SLOAD DUP4 AND PUSH20 0xC65AC7C6AFF4C149D1EC12865D58FE60F29A705B SWAP1 DUP2 OR SWAP1 SWAP2 SSTORE PUSH1 0x1D DUP1 SLOAD DUP5 AND DUP3 OR SWAP1 SSTORE PUSH1 0x1E DUP1 SLOAD DUP5 AND DUP4 OR SWAP1 SSTORE PUSH1 0x1F DUP1 SLOAD DUP5 AND DUP3 OR SWAP1 SSTORE PUSH1 0x20 DUP1 SLOAD DUP5 AND DUP4 OR DUP2 SSTORE PUSH1 0x21 DUP1 SLOAD DUP6 AND DUP5 OR SWAP1 SSTORE PUSH1 0x22 DUP1 SLOAD DUP6 AND SWAP1 SWAP3 OR SWAP1 SWAP2 SSTORE PUSH1 0x23 DUP1 SLOAD DUP5 AND DUP4 OR SWAP1 SSTORE PUSH1 0x24 DUP1 SLOAD SWAP1 SWAP4 AND SWAP1 SWAP2 OR SWAP1 SWAP2 SSTORE DUP2 SLOAD PUSH1 0x40 DUP1 MLOAD DUP3 DUP5 MUL DUP2 ADD DUP5 ADD SWAP1 SWAP2 MSTORE DUP2 DUP2 MSTORE PUSH3 0x295 SWAP4 SWAP1 SWAP3 SWAP1 SWAP2 SWAP1 DUP4 ADD DUP3 DUP3 DUP1 ISZERO PUSH3 0x289 JUMPI PUSH1 0x20 MUL DUP3 ADD SWAP2 SWAP1 PUSH1 0x0 MSTORE PUSH1 0x20 PUSH1 0x0 KECCAK256 SWAP1 JUMPDEST DUP2 SLOAD PUSH1 0x1 PUSH1 0x1 PUSH1 0xA0 SHL SUB AND DUP2 MSTORE PUSH1 0x1 SWAP1 SWAP2 ADD SWAP1 PUSH1 0x20 ADD DUP1 DUP4 GT PUSH3 0x26A JUMPI JUMPDEST POP POP PUSH3 0xA06 SWAP3 POP POP POP JUMP JUMPDEST PUSH11 0xE7CBBD7AA8310AE400000 PUSH1 0x13 SSTORE ADDRESS PUSH1 0x0 SWAP1 DUP2 MSTORE PUSH1 0xB PUSH1 0x20 SWAP1 DUP2 MSTORE PUSH1 0x40 DUP1 DUP4 KECCAK256 PUSH11 0x2B6D4EB3E906BB84800000 SWAP1 SSTORE PUSH1 0x19 SLOAD PUSH1 0x1 PUSH1 0x1 PUSH1 0xA0 SHL SUB SWAP1 DUP2 AND DUP5 MSTORE DUP2 DUP5 KECCAK256 PUSH11 0x22BDD88FED9EFC6A000000 SWAP1 DUP2 SWAP1 SSTORE PUSH1 0x1A SLOAD SWAP1 SWAP2 AND DUP5 MSTORE SWAP3 DUP2 SWAP1 KECCAK256 PUSH11 0x5C8D34A23DA1650A00000 SWAP1 SSTORE DUP1 MLOAD PUSH1 0x60 DUP2 ADD SWAP1 SWAP2 MSTORE PUSH1 0x32 DUP1 DUP3 MSTORE PUSH3 0x335 SWAP4 SWAP3 PUSH3 0x7293 SWAP1 DUP4 ADD CODECOPY PUSH1 0xF SLOAD PUSH3 0xDB8 PUSH1 0x20 SHL PUSH3 0x2329 OR SWAP1 SWAP3 SWAP2 SWAP1 PUSH1 0x20 SHR JUMP JUMPDEST PUSH1 0xF DUP2 SWAP1 SSTORE POP PUSH3 0x37D PUSH11 0x5C8D34A23DA1650A00000 PUSH1 0x40 MLOAD DUP1 PUSH1 0x60 ADD PUSH1 0x40 MSTORE DUP1 PUSH1 0x32 DUP2 MSTORE PUSH1 0x20 ADD PUSH3 0x7293 PUSH1 0x32 SWAP2 CODECOPY PUSH1 0xF SLOAD PUSH3 0xDB8 PUSH1 0x20 SHL PUSH3 0x2329 OR SWAP1 SWAP3 SWAP2 SWAP1 PUSH1 0x20 SHR JUMP JUMPDEST PUSH1 0xF DUP2 SWAP1 SSTORE POP PUSH3 0x3C5 PUSH11 0x5C8D34A23DA1650A00000 PUSH1 0x40 MLOAD DUP1 PUSH1 0x60 ADD PUSH1 0x40 MSTORE DUP1 PUSH1 0x32 DUP2 MSTORE PUSH1 0x20 ADD PUSH3 0x7293 PUSH1 0x32 SWAP2 CODECOPY PUSH1 0xF SLOAD PUSH3 0xDB8 PUSH1 0x20 SHL PUSH3 0x2329 OR SWAP1 SWAP3 SWAP2 SWAP1 PUSH1 0x20 SHR JUMP JUMPDEST PUSH1 0xF DUP2 SWAP1 SSTORE POP PUSH3 0x404 PUSH1 0x13 SLOAD PUSH1 0x40 MLOAD DUP1 PUSH1 0x60 ADD PUSH1 0x40 MSTORE DUP1 PUSH1 0x32 DUP2 MSTORE PUSH1 0x20 ADD PUSH3 0x7293 PUSH1 0x32 SWAP2 CODECOPY PUSH1 0xF SLOAD PUSH3 0xDB8 PUSH1 0x20 SHL PUSH3 0x2329 OR SWAP1 SWAP3 SWAP2 SWAP1 PUSH1 0x20 SHR JUMP JUMPDEST PUSH1 0xF SSTORE PUSH1 0x1B SLOAD PUSH1 0x40 MLOAD PUSH11 0x5C8D34A23DA1650A00000 SWAP2 PUSH1 0x1 PUSH1 0x1 PUSH1 0xA0 SHL SUB AND SWAP1 PUSH3 0x42F SWAP1 PUSH3 0x1313 JUMP JUMPDEST SWAP2 DUP3 MSTORE PUSH1 0x1 PUSH1 0x1 PUSH1 0xA0 SHL SUB AND PUSH1 0x20 DUP3 ADD MSTORE PUSH1 0x40 ADD PUSH1 0x40 MLOAD DUP1 SWAP2 SUB SWAP1 PUSH1 0x0 CREATE DUP1 ISZERO DUP1 ISZERO PUSH3 0x460 JUMPI RETURNDATASIZE PUSH1 0x0 DUP1 RETURNDATACOPY RETURNDATASIZE PUSH1 0x0 REVERT JUMPDEST POP PUSH1 0x25 DUP1 SLOAD PUSH1 0x1 PUSH1 0x1 PUSH1 0xA0 SHL SUB NOT AND PUSH1 0x1 PUSH1 0x1 PUSH1 0xA0 SHL SUB SWAP3 DUP4 AND OR SWAP1 SSTORE PUSH1 0x1C SLOAD PUSH1 0x40 MLOAD PUSH11 0xB949D854F34FECE000000 SWAP3 SWAP2 SWAP1 SWAP2 AND SWAP1 PUSH3 0x4A0 SWAP1 PUSH3 0x1313 JUMP JUMPDEST SWAP2 DUP3 MSTORE PUSH1 0x1 PUSH1 0x1 PUSH1 0xA0 SHL SUB AND PUSH1 0x20 DUP3 ADD MSTORE PUSH1 0x40 ADD PUSH1 0x40 MLOAD DUP1 SWAP2 SUB SWAP1 PUSH1 0x0 CREATE DUP1 ISZERO DUP1 ISZERO PUSH3 0x4D1 JUMPI RETURNDATASIZE PUSH1 0x0 DUP1 RETURNDATACOPY RETURNDATASIZE PUSH1 0x0 REVERT JUMPDEST POP PUSH1 0x26 DUP1 SLOAD PUSH1 0x1 PUSH1 0x1 PUSH1 0xA0 SHL SUB NOT AND PUSH1 0x1 PUSH1 0x1 PUSH1 0xA0 SHL SUB SWAP3 DUP4 AND OR SWAP1 SSTORE PUSH1 0x1D SLOAD PUSH1 0x40 MLOAD PUSH11 0xB949D854F34FECE000000 SWAP3 SWAP2 SWAP1 SWAP2 AND SWAP1 PUSH3 0x511 SWAP1 PUSH3 0x1313 JUMP JUMPDEST SWAP2 DUP3 MSTORE PUSH1 0x1 PUSH1 0x1 PUSH1 0xA0 SHL SUB AND PUSH1 0x20 DUP3 ADD MSTORE PUSH1 0x40 ADD PUSH1 0x40 MLOAD DUP1 SWAP2 SUB SWAP1 PUSH1 0x0 CREATE DUP1 ISZERO DUP1 ISZERO PUSH3 0x542 JUMPI RETURNDATASIZE PUSH1 0x0 DUP1 RETURNDATACOPY RETURNDATASIZE PUSH1 0x0 REVERT JUMPDEST POP PUSH1 0x27 DUP1 SLOAD PUSH1 0x1 PUSH1 0x1 PUSH1 0xA0 SHL SUB NOT AND PUSH1 0x1 PUSH1 0x1 PUSH1 0xA0 SHL SUB SWAP3 DUP4 AND OR SWAP1 SSTORE PUSH1 0x1E SLOAD PUSH1 0x40 MLOAD PUSH11 0xB949D854F34FECE000000 SWAP3 SWAP2 SWAP1 SWAP2 AND SWAP1 PUSH3 0x582 SWAP1 PUSH3 0x1313 JUMP JUMPDEST SWAP2 DUP3 MSTORE PUSH1 0x1 PUSH1 0x1 PUSH1 0xA0 SHL SUB AND PUSH1 0x20 DUP3 ADD MSTORE PUSH1 0x40 ADD PUSH1 0x40 MLOAD DUP1 SWAP2 SUB SWAP1 PUSH1 0x0 CREATE DUP1 ISZERO DUP1 ISZERO PUSH3 0x5B3 JUMPI RETURNDATASIZE PUSH1 0x0 DUP1 RETURNDATACOPY RETURNDATASIZE PUSH1 0x0 REVERT JUMPDEST POP PUSH1 0x28 DUP1 SLOAD PUSH1 0x1 PUSH1 0x1 PUSH1 0xA0 SHL SUB NOT AND PUSH1 0x1 PUSH1 0x1 PUSH1 0xA0 SHL SUB SWAP3 DUP4 AND OR SWAP1 SSTORE PUSH1 0x1F SLOAD PUSH1 0x40 MLOAD PUSH11 0x2E5276153CD3FB3800000 SWAP3 SWAP2 SWAP1 SWAP2 AND SWAP1 PUSH3 0x5F3 SWAP1 PUSH3 0x1313 JUMP JUMPDEST SWAP2 DUP3 MSTORE PUSH1 0x1 PUSH1 0x1 PUSH1 0xA0 SHL SUB AND PUSH1 0x20 DUP3 ADD MSTORE PUSH1 0x40 ADD PUSH1 0x40 MLOAD DUP1 SWAP2 SUB SWAP1 PUSH1 0x0 CREATE DUP1 ISZERO DUP1 ISZERO PUSH3 0x624 JUMPI RETURNDATASIZE PUSH1 0x0 DUP1 RETURNDATACOPY RETURNDATASIZE PUSH1 0x0 REVERT JUMPDEST POP PUSH1 0x29 DUP1 SLOAD PUSH1 0x1 PUSH1 0x1 PUSH1 0xA0 SHL SUB NOT AND PUSH1 0x1 PUSH1 0x1 PUSH1 0xA0 SHL SUB SWAP3 DUP4 AND OR SWAP1 SSTORE PUSH1 0x20 SLOAD PUSH1 0x40 MLOAD PUSH11 0x2E5276153CD3FB3800000 SWAP3 SWAP2 SWAP1 SWAP2 AND SWAP1 PUSH3 0x664 SWAP1 PUSH3 0x1313 JUMP JUMPDEST SWAP2 DUP3 MSTORE PUSH1 0x1 PUSH1 0x1 PUSH1 0xA0 SHL SUB AND PUSH1 0x20 DUP3 ADD MSTORE PUSH1 0x40 ADD PUSH1 0x40 MLOAD DUP1 SWAP2 SUB SWAP1 PUSH1 0x0 CREATE DUP1 ISZERO DUP1 ISZERO PUSH3 0x695 JUMPI RETURNDATASIZE PUSH1 0x0 DUP1 RETURNDATACOPY RETURNDATASIZE PUSH1 0x0 REVERT JUMPDEST POP PUSH1 0x2A DUP1 SLOAD PUSH1 0x1 PUSH1 0x1 PUSH1 0xA0 SHL SUB NOT AND PUSH1 0x1 PUSH1 0x1 PUSH1 0xA0 SHL SUB SWAP3 DUP4 AND OR SWAP1 SSTORE PUSH1 0x21 SLOAD PUSH1 0x40 MLOAD PUSH11 0x2E5276153CD3FB3800000 SWAP3 SWAP2 SWAP1 SWAP2 AND SWAP1 PUSH3 0x6D5 SWAP1 PUSH3 0x1313 JUMP JUMPDEST SWAP2 DUP3 MSTORE PUSH1 0x1 PUSH1 0x1 PUSH1 0xA0 SHL SUB AND PUSH1 0x20 DUP3 ADD MSTORE PUSH1 0x40 ADD PUSH1 0x40 MLOAD DUP1 SWAP2 SUB SWAP1 PUSH1 0x0 CREATE DUP1 ISZERO DUP1 ISZERO PUSH3 0x706 JUMPI RETURNDATASIZE PUSH1 0x0 DUP1 RETURNDATACOPY RETURNDATASIZE PUSH1 0x0 REVERT JUMPDEST POP PUSH1 0x2B DUP1 SLOAD PUSH1 0x1 PUSH1 0x1 PUSH1 0xA0 SHL SUB NOT AND PUSH1 0x1 PUSH1 0x1 PUSH1 0xA0 SHL SUB SWAP3 DUP4 AND OR SWAP1 SSTORE PUSH1 0x22 SLOAD PUSH1 0x40 MLOAD PUSH11 0x8AF7623FB67BF1A800000 SWAP3 SWAP2 SWAP1 SWAP2 AND SWAP1 PUSH3 0x746 SWAP1 PUSH3 0x1313 JUMP JUMPDEST SWAP2 DUP3 MSTORE PUSH1 0x1 PUSH1 0x1 PUSH1 0xA0 SHL SUB AND PUSH1 0x20 DUP3 ADD MSTORE PUSH1 0x40 ADD PUSH1 0x40 MLOAD DUP1 SWAP2 SUB SWAP1 PUSH1 0x0 CREATE DUP1 ISZERO DUP1 ISZERO PUSH3 0x777 JUMPI RETURNDATASIZE PUSH1 0x0 DUP1 RETURNDATACOPY RETURNDATASIZE PUSH1 0x0 REVERT JUMPDEST POP PUSH1 0x2C DUP1 SLOAD PUSH1 0x1 PUSH1 0x1 PUSH1 0xA0 SHL SUB NOT AND PUSH1 0x1 PUSH1 0x1 PUSH1 0xA0 SHL SUB SWAP3 DUP4 AND OR SWAP1 SSTORE PUSH1 0x23 SLOAD PUSH1 0x40 MLOAD PUSH11 0x8AF7623FB67BF1A800000 SWAP3 SWAP2 SWAP1 SWAP2 AND SWAP1 PUSH3 0x7B7 SWAP1 PUSH3 0x1313 JUMP JUMPDEST SWAP2 DUP3 MSTORE PUSH1 0x1 PUSH1 0x1 PUSH1 0xA0 SHL SUB AND PUSH1 0x20 DUP3 ADD MSTORE PUSH1 0x40 ADD PUSH1 0x40 MLOAD DUP1 SWAP2 SUB SWAP1 PUSH1 0x0 CREATE DUP1 ISZERO DUP1 ISZERO PUSH3 0x7E8 JUMPI RETURNDATASIZE PUSH1 0x0 DUP1 RETURNDATACOPY RETURNDATASIZE PUSH1 0x0 REVERT JUMPDEST POP PUSH1 0x2D DUP1 SLOAD PUSH1 0x1 PUSH1 0x1 PUSH1 0xA0 SHL SUB NOT AND PUSH1 0x1 PUSH1 0x1 PUSH1 0xA0 SHL SUB SWAP3 DUP4 AND OR SWAP1 SSTORE PUSH1 0x24 SLOAD PUSH1 0x40 MLOAD PUSH11 0x8AF7623FB67BF1A800000 SWAP3 SWAP2 SWAP1 SWAP2 AND SWAP1 PUSH3 0x828 SWAP1 PUSH3 0x1313 JUMP JUMPDEST SWAP2 DUP3 MSTORE PUSH1 0x1 PUSH1 0x1 PUSH1 0xA0 SHL SUB AND PUSH1 0x20 DUP3 ADD MSTORE PUSH1 0x40 ADD PUSH1 0x40 MLOAD DUP1 SWAP2 SUB SWAP1 PUSH1 0x0 CREATE DUP1 ISZERO DUP1 ISZERO PUSH3 0x859 JUMPI RETURNDATASIZE PUSH1 0x0 DUP1 RETURNDATACOPY RETURNDATASIZE PUSH1 0x0 REVERT JUMPDEST POP PUSH1 0x2E PUSH1 0x0 PUSH2 0x100 EXP DUP2 SLOAD DUP2 PUSH1 0x1 PUSH1 0x1 PUSH1 0xA0 SHL SUB MUL NOT AND SWAP1 DUP4 PUSH1 0x1 PUSH1 0x1 PUSH1 0xA0 SHL SUB AND MUL OR SWAP1 SSTORE POP PUSH3 0x8C2 PUSH11 0x22BDD88FED9EFC6A000000 PUSH1 0x40 MLOAD DUP1 PUSH1 0x60 ADD PUSH1 0x40 MSTORE DUP1 PUSH1 0x32 DUP2 MSTORE PUSH1 0x20 ADD PUSH3 0x7293 PUSH1 0x32 SWAP2 CODECOPY PUSH1 0xF SLOAD PUSH3 0xDB8 PUSH1 0x20 SHL PUSH3 0x2329 OR SWAP1 SWAP3 SWAP2 SWAP1 PUSH1 0x20 SHR JUMP JUMPDEST PUSH1 0xF DUP2 SWAP1 SSTORE POP PUSH3 0x90A PUSH11 0x8AF7623FB67BF1A800000 PUSH1 0x40 MLOAD DUP1 PUSH1 0x60 ADD PUSH1 0x40 MSTORE DUP1 PUSH1 0x32 DUP2 MSTORE PUSH1 0x20 ADD PUSH3 0x7293 PUSH1 0x32 SWAP2 CODECOPY PUSH1 0xF SLOAD PUSH3 0xDB8 PUSH1 0x20 SHL PUSH3 0x2329 OR SWAP1 SWAP3 SWAP2 SWAP1 PUSH1 0x20 SHR JUMP JUMPDEST PUSH1 0xF DUP2 SWAP1 SSTORE POP PUSH3 0x952 PUSH11 0x1A0E626BF2373D4F800000 PUSH1 0x40 MLOAD DUP1 PUSH1 0x60 ADD PUSH1 0x40 MSTORE DUP1 PUSH1 0x32 DUP2 MSTORE PUSH1 0x20 ADD PUSH3 0x7293 PUSH1 0x32 SWAP2 CODECOPY PUSH1 0xF SLOAD PUSH3 0xDB8 PUSH1 0x20 SHL PUSH3 0x2329 OR SWAP1 SWAP3 SWAP2 SWAP1 PUSH1 0x20 SHR JUMP JUMPDEST PUSH1 0xF SSTORE PUSH1 0xE DUP1 SLOAD PUSH2 0xFFFF NOT AND PUSH1 0x1 OR SWAP1 SSTORE PUSH1 0xD PUSH1 0x20 MSTORE PUSH1 0x5 PUSH32 0xB5D828E80C396D3BADD29BCF8358CFE154D524805C56B23C27577B2F19D46489 SSTORE PUSH1 0x6 PUSH32 0xAE2635022F4FF726246BBB086E3F5A63C5F54504807A8668AEFF811A8C8FC3F1 SSTORE PUSH1 0x7 PUSH32 0xA649DE24BB786AE7F0E2B3F43C2D9A6ABA6ECCD959D4742E69795DE968DBF8F3 SSTORE PUSH4 0x1E13380 PUSH1 0x0 MSTORE PUSH1 0x8 PUSH32 0x19BA0C7E0E93FEC8EA1A23D3C3B239DD59E1AFB12CCAB7FACAB51180087DE8E5 SSTORE PUSH3 0x167E JUMP JUMPDEST PUSH1 0x1 SLOAD PUSH3 0xA14 SWAP1 PUSH3 0xDE7 JUMP JUMPDEST ISZERO PUSH3 0xDB5 JUMPI PUSH1 0x3 SLOAD PUSH1 0x1 PUSH1 0x1 PUSH1 0xA0 SHL SUB AND ISZERO DUP1 ISZERO PUSH3 0xA47 JUMPI PUSH1 0x3 DUP1 SLOAD PUSH1 0x1 PUSH1 0x1 PUSH1 0xA0 SHL SUB NOT AND CALLER OR SWAP1 SSTORE PUSH1 0x1 SLOAD PUSH1 0x4 SSTORE JUMPDEST PUSH1 0x0 DUP3 MLOAD GT PUSH3 0xA9E JUMPI PUSH1 0x40 MLOAD PUSH3 0x461BCD PUSH1 0xE5 SHL DUP2 MSTORE PUSH1 0x20 PUSH1 0x4 DUP3 ADD MSTORE PUSH1 0x28 PUSH1 0x24 DUP3 ADD MSTORE PUSH1 0x0 DUP1 MLOAD PUSH1 0x20 PUSH3 0x72C5 DUP4 CODECOPY DUP2 MLOAD SWAP2 MSTORE PUSH1 0x44 DUP3 ADD MSTORE PUSH8 0x697320656D707479 PUSH1 0xC0 SHL PUSH1 0x64 DUP3 ADD MSTORE PUSH1 0x84 ADD JUMPDEST PUSH1 0x40 MLOAD DUP1 SWAP2 SUB SWAP1 REVERT JUMPDEST PUSH2 0x100 DUP3 MLOAD GT ISZERO PUSH3 0xB19 JUMPI PUSH1 0x40 MLOAD PUSH3 0x461BCD PUSH1 0xE5 SHL DUP2 MSTORE PUSH1 0x20 PUSH1 0x4 DUP3 ADD MSTORE PUSH1 0x33 PUSH1 0x24 DUP3 ADD MSTORE PUSH32 0x7472616E736665724F776E6572736869703A206F776E65727320636F756E7420 PUSH1 0x44 DUP3 ADD MSTORE PUSH32 0x69732067726561746572207468656E2032353600000000000000000000000000 PUSH1 0x64 DUP3 ADD MSTORE PUSH1 0x84 ADD PUSH3 0xA95 JUMP JUMPDEST PUSH1 0x0 JUMPDEST PUSH1 0x1 SLOAD DUP2 LT ISZERO PUSH3 0xB7B JUMPI PUSH1 0x5 PUSH1 0x0 PUSH1 0x1 DUP4 DUP2 SLOAD DUP2 LT PUSH3 0xB41 JUMPI PUSH3 0xB41 PUSH3 0x13AB JUMP JUMPDEST PUSH1 0x0 SWAP2 DUP3 MSTORE PUSH1 0x20 DUP1 DUP4 KECCAK256 SWAP1 SWAP2 ADD SLOAD PUSH1 0x1 PUSH1 0x1 PUSH1 0xA0 SHL SUB AND DUP4 MSTORE DUP3 ADD SWAP3 SWAP1 SWAP3 MSTORE PUSH1 0x40 ADD DUP2 KECCAK256 SSTORE DUP1 PUSH3 0xB72 DUP2 PUSH3 0x13D7 JUMP JUMPDEST SWAP2 POP POP PUSH3 0xB1C JUMP JUMPDEST POP PUSH1 0x0 JUMPDEST DUP3 MLOAD DUP2 LT ISZERO PUSH3 0xD1F JUMPI PUSH1 0x0 PUSH1 0x1 PUSH1 0x1 PUSH1 0xA0 SHL SUB AND DUP4 DUP3 DUP2 MLOAD DUP2 LT PUSH3 0xBA9 JUMPI PUSH3 0xBA9 PUSH3 0x13AB JUMP JUMPDEST PUSH1 0x20 MUL PUSH1 0x20 ADD ADD MLOAD PUSH1 0x1 PUSH1 0x1 PUSH1 0xA0 SHL SUB AND EQ ISZERO PUSH3 0xC0F JUMPI PUSH1 0x40 MLOAD PUSH3 0x461BCD PUSH1 0xE5 SHL DUP2 MSTORE PUSH1 0x20 PUSH1 0x4 DUP3 ADD MSTORE PUSH1 0x2D PUSH1 0x24 DUP3 ADD MSTORE PUSH1 0x0 DUP1 MLOAD PUSH1 0x20 PUSH3 0x72C5 DUP4 CODECOPY DUP2 MLOAD SWAP2 MSTORE PUSH1 0x44 DUP3 ADD MSTORE PUSH13 0x636F6E7461696E73207A65726F PUSH1 0x98 SHL PUSH1 0x64 DUP3 ADD MSTORE PUSH1 0x84 ADD PUSH3 0xA95 JUMP JUMPDEST PUSH1 0x5 PUSH1 0x0 DUP5 DUP4 DUP2 MLOAD DUP2 LT PUSH3 0xC28 JUMPI PUSH3 0xC28 PUSH3 0x13AB JUMP JUMPDEST PUSH1 0x20 MUL PUSH1 0x20 ADD ADD MLOAD PUSH1 0x1 PUSH1 0x1 PUSH1 0xA0 SHL SUB AND PUSH1 0x1 PUSH1 0x1 PUSH1 0xA0 SHL SUB AND DUP2 MSTORE PUSH1 0x20 ADD SWAP1 DUP2 MSTORE PUSH1 0x20 ADD PUSH1 0x0 KECCAK256 SLOAD PUSH1 0x0 EQ PUSH3 0xCB7 JUMPI PUSH1 0x40 MLOAD PUSH3 0x461BCD PUSH1 0xE5 SHL DUP2 MSTORE PUSH1 0x20 PUSH1 0x4 DUP3 ADD MSTORE PUSH1 0x33 PUSH1 0x24 DUP3 ADD MSTORE PUSH1 0x0 DUP1 MLOAD PUSH1 0x20 PUSH3 0x72C5 DUP4 CODECOPY DUP2 MLOAD SWAP2 MSTORE PUSH1 0x44 DUP3 ADD MSTORE PUSH32 0x636F6E7461696E73206475706C69636174657300000000000000000000000000 PUSH1 0x64 DUP3 ADD MSTORE PUSH1 0x84 ADD PUSH3 0xA95 JUMP JUMPDEST PUSH3 0xCC4 DUP2 PUSH1 0x1 PUSH3 0x13F5 JUMP JUMPDEST PUSH1 0x5 PUSH1 0x0 DUP6 DUP5 DUP2 MLOAD DUP2 LT PUSH3 0xCDD JUMPI PUSH3 0xCDD PUSH3 0x13AB JUMP JUMPDEST PUSH1 0x20 MUL PUSH1 0x20 ADD ADD MLOAD PUSH1 0x1 PUSH1 0x1 PUSH1 0xA0 SHL SUB AND PUSH1 0x1 PUSH1 0x1 PUSH1 0xA0 SHL SUB AND DUP2 MSTORE PUSH1 0x20 ADD SWAP1 DUP2 MSTORE PUSH1 0x20 ADD PUSH1 0x0 KECCAK256 DUP2 SWAP1 SSTORE POP DUP1 DUP1 PUSH3 0xD16 SWAP1 PUSH3 0x13D7 JUMP JUMPDEST SWAP2 POP POP PUSH3 0xB7F JUMP JUMPDEST POP PUSH32 0xE62C04BB3499D4F432A50E07318D42861C4865AFB22EE4CFE403D4F945507090 PUSH1 0x1 DUP4 PUSH1 0x40 MLOAD PUSH3 0xD54 SWAP3 SWAP2 SWAP1 PUSH3 0x1410 JUMP JUMPDEST PUSH1 0x40 MLOAD DUP1 SWAP2 SUB SWAP1 LOG1 DUP2 MLOAD PUSH3 0xD71 SWAP1 PUSH1 0x1 SWAP1 PUSH1 0x20 DUP6 ADD SWAP1 PUSH3 0x1321 JUMP JUMPDEST POP PUSH3 0xD80 PUSH1 0x2 PUSH1 0x0 PUSH3 0x1379 JUMP JUMPDEST PUSH1 0x0 DUP1 SLOAD SWAP1 DUP1 PUSH3 0xD91 DUP4 PUSH3 0x13D7 JUMP JUMPDEST SWAP2 SWAP1 POP SSTORE POP DUP1 ISZERO PUSH3 0xDB3 JUMPI PUSH1 0x3 DUP1 SLOAD PUSH1 0x1 PUSH1 0x1 PUSH1 0xA0 SHL SUB NOT AND SWAP1 SSTORE PUSH1 0x0 PUSH1 0x4 SSTORE JUMPDEST POP JUMPDEST POP JUMP JUMPDEST PUSH1 0x0 DUP2 DUP5 DUP5 GT ISZERO PUSH3 0xDDF JUMPI PUSH1 0x40 MLOAD PUSH3 0x461BCD PUSH1 0xE5 SHL DUP2 MSTORE PUSH1 0x4 ADD PUSH3 0xA95 SWAP2 SWAP1 PUSH3 0x14A9 JUMP JUMPDEST POP POP POP SWAP1 SUB SWAP1 JUMP JUMPDEST PUSH1 0x3 SLOAD PUSH1 0x0 SWAP1 PUSH1 0x1 PUSH1 0x1 PUSH1 0xA0 SHL SUB AND CALLER EQ ISZERO PUSH3 0xE8E JUMPI PUSH1 0x4 SLOAD DUP3 GT ISZERO PUSH3 0xE86 JUMPI PUSH1 0x40 MLOAD PUSH3 0x461BCD PUSH1 0xE5 SHL DUP2 MSTORE PUSH1 0x20 PUSH1 0x4 DUP3 ADD MSTORE PUSH1 0x44 PUSH1 0x24 DUP3 ADD DUP2 SWAP1 MSTORE PUSH32 0x636865636B486F774D616E794F776E6572733A206E6573746564206F776E6572 SWAP1 DUP3 ADD MSTORE PUSH32 0x73206D6F64696669657220636865636B2072657175697265206D6F7265206F77 PUSH1 0x64 DUP3 ADD MSTORE PUSH4 0x6E657273 PUSH1 0xE0 SHL PUSH1 0x84 DUP3 ADD MSTORE PUSH1 0xA4 ADD PUSH3 0xA95 JUMP JUMPDEST POP PUSH1 0x1 SWAP2 SWAP1 POP JUMP JUMPDEST CALLER PUSH1 0x0 SWAP1 DUP2 MSTORE PUSH1 0x5 PUSH1 0x20 MSTORE PUSH1 0x40 SWAP1 KECCAK256 SLOAD ISZERO ISZERO PUSH1 0x1 EQ PUSH3 0xF08 JUMPI PUSH1 0x40 MLOAD PUSH3 0x461BCD PUSH1 0xE5 SHL DUP2 MSTORE PUSH1 0x20 PUSH1 0x4 DUP3 ADD MSTORE PUSH1 0x2E PUSH1 0x24 DUP3 ADD MSTORE PUSH32 0x636865636B486F774D616E794F776E6572733A206D73672E73656E6465722069 PUSH1 0x44 DUP3 ADD MSTORE PUSH14 0x39903737BA1030B71037BBB732B9 PUSH1 0x91 SHL PUSH1 0x64 DUP3 ADD MSTORE PUSH1 0x84 ADD PUSH3 0xA95 JUMP JUMPDEST CALLER PUSH1 0x0 SWAP1 DUP2 MSTORE PUSH1 0x5 PUSH1 0x20 MSTORE PUSH1 0x40 DUP2 KECCAK256 SLOAD PUSH3 0xF26 SWAP1 PUSH1 0x1 SWAP1 PUSH3 0x1501 JUMP JUMPDEST SWAP1 POP PUSH1 0x0 DUP1 CALLDATASIZE PUSH1 0x0 SLOAD PUSH1 0x40 MLOAD PUSH1 0x20 ADD PUSH3 0xF43 SWAP4 SWAP3 SWAP2 SWAP1 PUSH3 0x151B JUMP JUMPDEST PUSH1 0x40 MLOAD PUSH1 0x20 DUP2 DUP4 SUB SUB DUP2 MSTORE SWAP1 PUSH1 0x40 MSTORE DUP1 MLOAD SWAP1 PUSH1 0x20 ADD KECCAK256 SWAP1 POP DUP2 PUSH1 0x2 PUSH3 0xF6A SWAP2 SWAP1 PUSH3 0x162C JUMP JUMPDEST PUSH1 0x0 DUP3 DUP2 MSTORE PUSH1 0x7 PUSH1 0x20 MSTORE PUSH1 0x40 SWAP1 KECCAK256 SLOAD AND ISZERO PUSH3 0xFEF JUMPI PUSH1 0x40 MLOAD PUSH3 0x461BCD PUSH1 0xE5 SHL DUP2 MSTORE PUSH1 0x20 PUSH1 0x4 DUP3 ADD MSTORE PUSH1 0x39 PUSH1 0x24 DUP3 ADD MSTORE PUSH32 0x636865636B486F774D616E794F776E6572733A206F776E657220616C72656164 PUSH1 0x44 DUP3 ADD MSTORE PUSH32 0x7920766F74656420666F7220746865206F7065726174696F6E00000000000000 PUSH1 0x64 DUP3 ADD MSTORE PUSH1 0x84 ADD PUSH3 0xA95 JUMP JUMPDEST PUSH3 0xFFC DUP3 PUSH1 0x2 PUSH3 0x162C JUMP JUMPDEST PUSH1 0x0 DUP3 DUP2 MSTORE PUSH1 0x7 PUSH1 0x20 SWAP1 DUP2 MSTORE PUSH1 0x40 DUP1 DUP4 KECCAK256 DUP1 SLOAD SWAP1 SWAP5 OR SWAP1 SWAP4 SSTORE PUSH1 0x8 SWAP1 MSTORE SWAP1 DUP2 KECCAK256 SLOAD PUSH3 0x102A SWAP1 PUSH1 0x1 PUSH3 0x13F5 JUMP JUMPDEST PUSH1 0x0 DUP4 DUP2 MSTORE PUSH1 0x8 PUSH1 0x20 MSTORE PUSH1 0x40 SWAP1 KECCAK256 DUP2 SWAP1 SSTORE SWAP1 POP PUSH1 0x1 DUP2 EQ ISZERO PUSH3 0x10D5 JUMPI PUSH1 0x2 DUP1 SLOAD PUSH1 0x0 DUP5 DUP2 MSTORE PUSH1 0x6 PUSH1 0x20 SWAP1 DUP2 MSTORE PUSH1 0x40 DUP1 DUP4 KECCAK256 DUP5 SWAP1 SSTORE PUSH1 0x1 DUP1 DUP6 ADD DUP7 SSTORE SWAP5 SWAP1 SWAP3 MSTORE PUSH32 0x405787FA12A823E0F2B7631CC41B3BA8828B3321CA811111FA75CD3AA3BB5ACE SWAP1 SWAP3 ADD DUP6 SWAP1 SSTORE SWAP2 SLOAD DUP3 MLOAD DUP6 DUP2 MSTORE SWAP2 DUP3 ADD DUP9 SWAP1 MSTORE DUP2 DUP4 ADD MSTORE CALLER PUSH1 0x60 DUP3 ADD MSTORE SWAP1 MLOAD PUSH32 0x6BAB0114F9524353D2D33E64EDD3EBBD16E21EDD57DE2226BA76C310A7CE2265 SWAP2 DUP2 SWAP1 SUB PUSH1 0x80 ADD SWAP1 LOG1 JUMPDEST PUSH1 0x1 SLOAD PUSH1 0x40 DUP1 MLOAD DUP5 DUP2 MSTORE PUSH1 0x20 DUP2 ADD DUP5 SWAP1 MSTORE DUP1 DUP3 ADD DUP9 SWAP1 MSTORE PUSH1 0x60 DUP2 ADD SWAP3 SWAP1 SWAP3 MSTORE CALLER PUSH1 0x80 DUP4 ADD MSTORE MLOAD PUSH32 0x8DD9582C6577AEA81973B5ADEB6C135F6E18565D99578B7BA0C9377437EC0221 SWAP2 DUP2 SWAP1 SUB PUSH1 0xA0 ADD SWAP1 LOG1 PUSH1 0x0 DUP3 DUP2 MSTORE PUSH1 0x8 PUSH1 0x20 MSTORE PUSH1 0x40 SWAP1 KECCAK256 SLOAD DUP6 EQ ISZERO PUSH3 0x119B JUMPI PUSH3 0x1147 DUP3 PUSH3 0x11A6 JUMP JUMPDEST PUSH1 0x1 SLOAD PUSH1 0x40 DUP1 MLOAD DUP5 DUP2 MSTORE PUSH1 0x20 DUP2 ADD DUP9 SWAP1 MSTORE DUP1 DUP3 ADD SWAP3 SWAP1 SWAP3 MSTORE CALLER PUSH1 0x60 DUP4 ADD MSTORE MLOAD PUSH32 0x8A11C8CA99994C292318CE367F65BF6FF61D390BC814B3588496F6FBCC32807A SWAP2 DUP2 SWAP1 SUB PUSH1 0x80 ADD SWAP1 LOG1 POP PUSH1 0x1 SWAP5 SWAP4 POP POP POP POP JUMP JUMPDEST POP PUSH1 0x0 SWAP5 SWAP4 POP POP POP POP JUMP JUMPDEST PUSH1 0x0 DUP2 DUP2 MSTORE PUSH1 0x6 PUSH1 0x20 MSTORE PUSH1 0x40 SWAP1 KECCAK256 SLOAD PUSH1 0x2 SLOAD PUSH3 0x11C6 SWAP1 PUSH1 0x1 SWAP1 PUSH3 0x1501 JUMP JUMPDEST DUP2 LT ISZERO PUSH3 0x125B JUMPI PUSH1 0x2 DUP1 SLOAD PUSH3 0x11E0 SWAP1 PUSH1 0x1 SWAP1 PUSH3 0x1501 JUMP JUMPDEST DUP2 SLOAD DUP2 LT PUSH3 0x11F3 JUMPI PUSH3 0x11F3 PUSH3 0x13AB JUMP JUMPDEST SWAP1 PUSH1 0x0 MSTORE PUSH1 0x20 PUSH1 0x0 KECCAK256 ADD SLOAD PUSH1 0x2 DUP3 DUP2 SLOAD DUP2 LT PUSH3 0x1214 JUMPI PUSH3 0x1214 PUSH3 0x13AB JUMP JUMPDEST SWAP1 PUSH1 0x0 MSTORE PUSH1 0x20 PUSH1 0x0 KECCAK256 ADD DUP2 SWAP1 SSTORE POP DUP1 PUSH1 0x6 PUSH1 0x0 PUSH1 0x2 DUP5 DUP2 SLOAD DUP2 LT PUSH3 0x123D JUMPI PUSH3 0x123D PUSH3 0x13AB JUMP JUMPDEST SWAP1 PUSH1 0x0 MSTORE PUSH1 0x20 PUSH1 0x0 KECCAK256 ADD SLOAD DUP2 MSTORE PUSH1 0x20 ADD SWAP1 DUP2 MSTORE PUSH1 0x20 ADD PUSH1 0x0 KECCAK256 DUP2 SWAP1 SSTORE POP JUMPDEST POP PUSH1 0x0 SWAP1 DUP2 MSTORE PUSH1 0x7 PUSH1 0x20 SWAP1 DUP2 MSTORE PUSH1 0x40 DUP1 DUP4 KECCAK256 DUP4 SWAP1 SSTORE PUSH1 0x8 DUP3 MSTORE DUP1 DUP4 KECCAK256 DUP4 SWAP1 SSTORE PUSH1 0x6 SWAP1 SWAP2 MSTORE DUP2 KECCAK256 SSTORE JUMP JUMPDEST DUP3 DUP1 SLOAD PUSH3 0x1292 SWAP1 PUSH3 0x1641 JUMP JUMPDEST SWAP1 PUSH1 0x0 MSTORE PUSH1 0x20 PUSH1 0x0 KECCAK256 SWAP1 PUSH1 0x1F ADD PUSH1 0x20 SWAP1 DIV DUP2 ADD SWAP3 DUP3 PUSH3 0x12B6 JUMPI PUSH1 0x0 DUP6 SSTORE PUSH3 0x1301 JUMP JUMPDEST DUP3 PUSH1 0x1F LT PUSH3 0x12D1 JUMPI DUP1 MLOAD PUSH1 0xFF NOT AND DUP4 DUP1 ADD OR DUP6 SSTORE PUSH3 0x1301 JUMP JUMPDEST DUP3 DUP1 ADD PUSH1 0x1 ADD DUP6 SSTORE DUP3 ISZERO PUSH3 0x1301 JUMPI SWAP2 DUP3 ADD JUMPDEST DUP3 DUP2 GT ISZERO PUSH3 0x1301 JUMPI DUP3 MLOAD DUP3 SSTORE SWAP2 PUSH1 0x20 ADD SWAP2 SWAP1 PUSH1 0x1 ADD SWAP1 PUSH3 0x12E4 JUMP JUMPDEST POP PUSH3 0x130F SWAP3 SWAP2 POP PUSH3 0x1394 JUMP JUMPDEST POP SWAP1 JUMP JUMPDEST PUSH2 0x599 DUP1 PUSH3 0x6CFA DUP4 CODECOPY ADD SWAP1 JUMP JUMPDEST DUP3 DUP1 SLOAD DUP3 DUP3 SSTORE SWAP1 PUSH1 0x0 MSTORE PUSH1 0x20 PUSH1 0x0 KECCAK256 SWAP1 DUP2 ADD SWAP3 DUP3 ISZERO PUSH3 0x1301 JUMPI SWAP2 PUSH1 0x20 MUL DUP3 ADD JUMPDEST DUP3 DUP2 GT ISZERO PUSH3 0x1301 JUMPI DUP3 MLOAD DUP3 SLOAD PUSH1 0x1 PUSH1 0x1 PUSH1 0xA0 SHL SUB NOT AND PUSH1 0x1 PUSH1 0x1 PUSH1 0xA0 SHL SUB SWAP1 SWAP2 AND OR DUP3 SSTORE PUSH1 0x20 SWAP1 SWAP3 ADD SWAP2 PUSH1 0x1 SWAP1 SWAP2 ADD SWAP1 PUSH3 0x1342 JUMP JUMPDEST POP DUP1 SLOAD PUSH1 0x0 DUP3 SSTORE SWAP1 PUSH1 0x0 MSTORE PUSH1 0x20 PUSH1 0x0 KECCAK256 SWAP1 DUP2 ADD SWAP1 PUSH3 0xDB5 SWAP2 SWAP1 JUMPDEST JUMPDEST DUP1 DUP3 GT ISZERO PUSH3 0x130F JUMPI PUSH1 0x0 DUP2 SSTORE PUSH1 0x1 ADD PUSH3 0x1395 JUMP JUMPDEST PUSH4 0x4E487B71 PUSH1 0xE0 SHL PUSH1 0x0 MSTORE PUSH1 0x32 PUSH1 0x4 MSTORE PUSH1 0x24 PUSH1 0x0 REVERT JUMPDEST PUSH4 0x4E487B71 PUSH1 0xE0 SHL PUSH1 0x0 MSTORE PUSH1 0x11 PUSH1 0x4 MSTORE PUSH1 0x24 PUSH1 0x0 REVERT JUMPDEST PUSH1 0x0 PUSH1 0x0 NOT DUP3 EQ ISZERO PUSH3 0x13EE JUMPI PUSH3 0x13EE PUSH3 0x13C1 JUMP JUMPDEST POP PUSH1 0x1 ADD SWAP1 JUMP JUMPDEST PUSH1 0x0 DUP3 NOT DUP3 GT ISZERO PUSH3 0x140B JUMPI PUSH3 0x140B PUSH3 0x13C1 JUMP JUMPDEST POP ADD SWAP1 JUMP JUMPDEST PUSH1 0x0 PUSH1 0x40 DUP3 ADD PUSH1 0x40 DUP4 MSTORE DUP1 DUP6 SLOAD DUP1 DUP4 MSTORE PUSH1 0x60 DUP6 ADD SWAP2 POP DUP7 PUSH1 0x0 MSTORE PUSH1 0x20 SWAP3 POP DUP3 PUSH1 0x0 KECCAK256 PUSH1 0x0 JUMPDEST DUP3 DUP2 LT ISZERO PUSH3 0x145C JUMPI DUP2 SLOAD PUSH1 0x1 PUSH1 0x1 PUSH1 0xA0 SHL SUB AND DUP5 MSTORE SWAP3 DUP5 ADD SWAP3 PUSH1 0x1 SWAP2 DUP3 ADD SWAP2 ADD PUSH3 0x1435 JUMP JUMPDEST POP POP POP DUP4 DUP2 SUB DUP3 DUP6 ADD MSTORE DUP5 MLOAD DUP1 DUP3 MSTORE DUP6 DUP4 ADD SWAP2 DUP4 ADD SWAP1 PUSH1 0x0 JUMPDEST DUP2 DUP2 LT ISZERO PUSH3 0x149C JUMPI DUP4 MLOAD PUSH1 0x1 PUSH1 0x1 PUSH1 0xA0 SHL SUB AND DUP4 MSTORE SWAP3 DUP5 ADD SWAP3 SWAP2 DUP5 ADD SWAP2 PUSH1 0x1 ADD PUSH3 0x1475 JUMP JUMPDEST POP SWAP1 SWAP8 SWAP7 POP POP POP POP POP POP POP JUMP JUMPDEST PUSH1 0x0 PUSH1 0x20 DUP1 DUP4 MSTORE DUP4 MLOAD DUP1 DUP3 DUP6 ADD MSTORE PUSH1 0x0 JUMPDEST DUP2 DUP2 LT ISZERO PUSH3 0x14D8 JUMPI DUP6 DUP2 ADD DUP4 ADD MLOAD DUP6 DUP3 ADD PUSH1 0x40 ADD MSTORE DUP3 ADD PUSH3 0x14BA JUMP JUMPDEST DUP2 DUP2 GT ISZERO PUSH3 0x14EB JUMPI PUSH1 0x0 PUSH1 0x40 DUP4 DUP8 ADD ADD MSTORE JUMPDEST POP PUSH1 0x1F ADD PUSH1 0x1F NOT AND SWAP3 SWAP1 SWAP3 ADD PUSH1 0x40 ADD SWAP4 SWAP3 POP POP POP JUMP JUMPDEST PUSH1 0x0 DUP3 DUP3 LT ISZERO PUSH3 0x1516 JUMPI PUSH3 0x1516 PUSH3 0x13C1 JUMP JUMPDEST POP SUB SWAP1 JUMP JUMPDEST DUP3 DUP5 DUP3 CALLDATACOPY SWAP1 SWAP2 ADD SWAP1 DUP2 MSTORE PUSH1 0x20 ADD SWAP2 SWAP1 POP JUMP JUMPDEST PUSH1 0x1 DUP2 DUP2 JUMPDEST DUP1 DUP6 GT ISZERO PUSH3 0x156E JUMPI DUP2 PUSH1 0x0 NOT DIV DUP3 GT ISZERO PUSH3 0x1552 JUMPI PUSH3 0x1552 PUSH3 0x13C1 JUMP JUMPDEST DUP1 DUP6 AND ISZERO PUSH3 0x1560 JUMPI SWAP2 DUP2 MUL SWAP2 JUMPDEST SWAP4 DUP5 SHR SWAP4 SWAP1 DUP1 MUL SWAP1 PUSH3 0x1532 JUMP JUMPDEST POP SWAP3 POP SWAP3 SWAP1 POP JUMP JUMPDEST PUSH1 0x0 DUP3 PUSH3 0x1587 JUMPI POP PUSH1 0x1 PUSH3 0x1626 JUMP JUMPDEST DUP2 PUSH3 0x1596 JUMPI POP PUSH1 0x0 PUSH3 0x1626 JUMP JUMPDEST DUP2 PUSH1 0x1 DUP2 EQ PUSH3 0x15AF JUMPI PUSH1 0x2 DUP2 EQ PUSH3 0x15BA JUMPI PUSH3 0x15DA JUMP JUMPDEST PUSH1 0x1 SWAP2 POP POP PUSH3 0x1626 JUMP JUMPDEST PUSH1 0xFF DUP5 GT ISZERO PUSH3 0x15CE JUMPI PUSH3 0x15CE PUSH3 0x13C1 JUMP JUMPDEST POP POP PUSH1 0x1 DUP3 SHL PUSH3 0x1626 JUMP JUMPDEST POP PUSH1 0x20 DUP4 LT PUSH2 0x133 DUP4 LT AND PUSH1 0x4E DUP5 LT PUSH1 0xB DUP5 LT AND OR ISZERO PUSH3 0x15FF JUMPI POP DUP2 DUP2 EXP PUSH3 0x1626 JUMP JUMPDEST PUSH3 0x160B DUP4 DUP4 PUSH3 0x152D JUMP JUMPDEST DUP1 PUSH1 0x0 NOT DIV DUP3 GT ISZERO PUSH3 0x1622 JUMPI PUSH3 0x1622 PUSH3 0x13C1 JUMP JUMPDEST MUL SWAP1 POP JUMPDEST SWAP3 SWAP2 POP POP JUMP JUMPDEST PUSH1 0x0 PUSH3 0x163A DUP4 DUP4 PUSH3 0x1576 JUMP JUMPDEST SWAP4 SWAP3 POP POP POP JUMP JUMPDEST PUSH1 0x1 DUP2 DUP2 SHR SWAP1 DUP3 AND DUP1 PUSH3 0x1656 JUMPI PUSH1 0x7F DUP3 AND SWAP2 POP JUMPDEST PUSH1 0x20 DUP3 LT DUP2 EQ ISZERO PUSH3 0x1678 JUMPI PUSH4 0x4E487B71 PUSH1 0xE0 SHL PUSH1 0x0 MSTORE PUSH1 0x22 PUSH1 0x4 MSTORE PUSH1 0x24 PUSH1 0x0 REVERT JUMPDEST POP SWAP2 SWAP1 POP JUMP JUMPDEST PUSH2 0x566C DUP1 PUSH3 0x168E PUSH1 0x0 CODECOPY PUSH1 0x0 RETURN INVALID PUSH1 0x80 PUSH1 0x40 MSTORE PUSH1 0x4 CALLDATASIZE LT PUSH2 0x3B1 JUMPI PUSH1 0x0 CALLDATALOAD PUSH1 0xE0 SHR DUP1 PUSH4 0x883D9984 GT PUSH2 0x1E7 JUMPI DUP1 PUSH4 0xB8B18E89 GT PUSH2 0x10D JUMPI DUP1 PUSH4 0xE39CA658 GT PUSH2 0xA0 JUMPI DUP1 PUSH4 0xEEF756FC GT PUSH2 0x6F JUMPI DUP1 PUSH4 0xEEF756FC EQ PUSH2 0xBA9 JUMPI DUP1 PUSH4 0xF1FDF469 EQ PUSH2 0xBC9 JUMPI DUP1 PUSH4 0xF6DDDDF2 EQ PUSH2 0xBE9 JUMPI DUP1 PUSH4 0xF729B00F EQ PUSH2 0xC09 JUMPI PUSH2 0x473 JUMP JUMPDEST DUP1 PUSH4 0xE39CA658 EQ PUSH2 0xB27 JUMPI DUP1 PUSH4 0xE73E14BF EQ PUSH2 0xB47 JUMPI DUP1 PUSH4 0xEA1A2644 EQ PUSH2 0xB67 JUMPI DUP1 PUSH4 0xEB9F4AC7 EQ PUSH2 0xB94 JUMPI PUSH2 0x473 JUMP JUMPDEST DUP1 PUSH4 0xD4DCA69B GT PUSH2 0xDC JUMPI DUP1 PUSH4 0xD4DCA69B EQ PUSH2 0xA81 JUMPI DUP1 PUSH4 0xD94D4AD6 EQ PUSH2 0xA94 JUMPI DUP1 PUSH4 0xDD62ED3E EQ PUSH2 0xAB4 JUMPI DUP1 PUSH4 0xDDBAD8B8 EQ PUSH2 0xAFA JUMPI PUSH2 0x473 JUMP JUMPDEST DUP1 PUSH4 0xB8B18E89 EQ PUSH2 0xA15 JUMPI DUP1 PUSH4 0xB9488546 EQ PUSH2 0xA2A JUMPI DUP1 PUSH4 0xBEA8E46B EQ PUSH2 0xA3F JUMPI DUP1 PUSH4 0xCC047A04 EQ PUSH2 0xA54 JUMPI PUSH2 0x473 JUMP JUMPDEST DUP1 PUSH4 0x97A08E71 GT PUSH2 0x185 JUMPI DUP1 PUSH4 0xA9059CBB GT PUSH2 0x154 JUMPI DUP1 PUSH4 0xA9059CBB EQ PUSH2 0x992 JUMPI DUP1 PUSH4 0xAB2E81D6 EQ PUSH2 0x9B2 JUMPI DUP1 PUSH4 0xB09D4B4E EQ PUSH2 0x9D2 JUMPI DUP1 PUSH4 0xB25BB3A7 EQ PUSH2 0x9FF JUMPI PUSH2 0x473 JUMP JUMPDEST DUP1 PUSH4 0x97A08E71 EQ PUSH2 0x919 JUMPI DUP1 PUSH4 0xA071DCF4 EQ PUSH2 0x939 JUMPI DUP1 PUSH4 0xA169C515 EQ PUSH2 0x952 JUMPI DUP1 PUSH4 0xA457C2D7 EQ PUSH2 0x972 JUMPI PUSH2 0x473 JUMP JUMPDEST DUP1 PUSH4 0x90A4C709 GT PUSH2 0x1C1 JUMPI DUP1 PUSH4 0x90A4C709 EQ PUSH2 0x8AD JUMPI DUP1 PUSH4 0x90A53085 EQ PUSH2 0x8C2 JUMPI DUP1 PUSH4 0x934851EC EQ PUSH2 0x8EF JUMPI DUP1 PUSH4 0x95D89B41 EQ PUSH2 0x904 JUMPI PUSH2 0x473 JUMP JUMPDEST DUP1 PUSH4 0x883D9984 EQ PUSH2 0x863 JUMPI DUP1 PUSH4 0x8902CD70 EQ PUSH2 0x878 JUMPI DUP1 PUSH4 0x893D20E8 EQ PUSH2 0x898 JUMPI PUSH2 0x473 JUMP JUMPDEST DUP1 PUSH4 0x38920102 GT PUSH2 0x2D7 JUMPI DUP1 PUSH4 0x56029137 GT PUSH2 0x26A JUMPI DUP1 PUSH4 0x8378A875 GT PUSH2 0x239 JUMPI DUP1 PUSH4 0x8378A875 EQ PUSH2 0x7F9 JUMPI DUP1 PUSH4 0x84F3996D EQ PUSH2 0x80E JUMPI DUP1 PUSH4 0x85BA7C02 EQ PUSH2 0x823 JUMPI DUP1 PUSH4 0x87E25B79 EQ PUSH2 0x843 JUMPI PUSH2 0x473 JUMP JUMPDEST DUP1 PUSH4 0x56029137 EQ PUSH2 0x761 JUMPI DUP1 PUSH4 0x568B5915 EQ PUSH2 0x776 JUMPI DUP1 PUSH4 0x70A08231 EQ PUSH2 0x7A3 JUMPI DUP1 PUSH4 0x7B0472F0 EQ PUSH2 0x7D9 JUMPI PUSH2 0x473 JUMP JUMPDEST DUP1 PUSH4 0x41B2974A GT PUSH2 0x2A6 JUMPI DUP1 PUSH4 0x41B2974A EQ PUSH2 0x6EE JUMPI DUP1 PUSH4 0x431AB233 EQ PUSH2 0x70E JUMPI DUP1 PUSH4 0x48B15166 EQ PUSH2 0x72E JUMPI DUP1 PUSH4 0x534C96C7 EQ PUSH2 0x741 JUMPI PUSH2 0x473 JUMP JUMPDEST DUP1 PUSH4 0x38920102 EQ PUSH2 0x66B JUMPI DUP1 PUSH4 0x39509351 EQ PUSH2 0x68B JUMPI DUP1 PUSH4 0x3B124FE7 EQ PUSH2 0x6AB JUMPI DUP1 PUSH4 0x3F3EF2DC EQ PUSH2 0x6D9 JUMPI PUSH2 0x473 JUMP JUMPDEST DUP1 PUSH4 0x18160DDD GT PUSH2 0x34F JUMPI DUP1 PUSH4 0x2F54BF6E GT PUSH2 0x31E JUMPI DUP1 PUSH4 0x2F54BF6E EQ PUSH2 0x5F1 JUMPI DUP1 PUSH4 0x30D4F3C9 EQ PUSH2 0x4BD JUMPI DUP1 PUSH4 0x313CE567 EQ PUSH2 0x629 JUMPI DUP1 PUSH4 0x36A5A493 EQ PUSH2 0x64B JUMPI PUSH2 0x473 JUMP JUMPDEST DUP1 PUSH4 0x18160DDD EQ PUSH2 0x587 JUMPI DUP1 PUSH4 0x18BCD3D0 EQ PUSH2 0x59C JUMPI DUP1 PUSH4 0x22F2F89A EQ PUSH2 0x5BC JUMPI DUP1 PUSH4 0x23B872DD EQ PUSH2 0x5D1 JUMPI PUSH2 0x473 JUMP JUMPDEST DUP1 PUSH4 0x95EA7B3 GT PUSH2 0x38B JUMPI DUP1 PUSH4 0x95EA7B3 EQ PUSH2 0x4FE JUMPI DUP1 PUSH4 0xE1B09ED EQ PUSH2 0x52E JUMPI DUP1 PUSH4 0x15441BB9 EQ PUSH2 0x550 JUMPI DUP1 PUSH4 0x16C12746 EQ PUSH2 0x565 JUMPI PUSH2 0x473 JUMP JUMPDEST DUP1 PUSH4 0x25E7C27 EQ PUSH2 0x480 JUMPI DUP1 PUSH4 0x42249BB EQ PUSH2 0x4BD JUMPI DUP1 PUSH4 0x6FDDE03 EQ PUSH2 0x4DC JUMPI PUSH2 0x473 JUMP JUMPDEST CALLDATASIZE PUSH2 0x473 JUMPI PUSH1 0x0 PUSH2 0x3C3 CALLVALUE PUSH1 0x3 PUSH2 0xC29 JUMP JUMPDEST PUSH1 0x22 SLOAD PUSH1 0x1 PUSH1 0x1 PUSH1 0xA0 SHL SUB AND PUSH1 0x0 SWAP1 DUP2 MSTORE PUSH1 0xB PUSH1 0x20 MSTORE PUSH1 0x40 SWAP1 KECCAK256 SLOAD SWAP1 SWAP2 POP PUSH2 0x3EB SWAP1 DUP3 PUSH2 0xC3E JUMP JUMPDEST PUSH1 0x22 SLOAD PUSH1 0x1 PUSH1 0x1 PUSH1 0xA0 SHL SUB SWAP1 DUP2 AND PUSH1 0x0 SWAP1 DUP2 MSTORE PUSH1 0xB PUSH1 0x20 MSTORE PUSH1 0x40 DUP1 DUP3 KECCAK256 SWAP4 SWAP1 SWAP4 SSTORE PUSH1 0x23 SLOAD SWAP1 SWAP2 AND DUP2 MSTORE KECCAK256 SLOAD PUSH2 0x420 SWAP1 DUP3 PUSH2 0xC3E JUMP JUMPDEST PUSH1 0x23 SLOAD PUSH1 0x1 PUSH1 0x1 PUSH1 0xA0 SHL SUB SWAP1 DUP2 AND PUSH1 0x0 SWAP1 DUP2 MSTORE PUSH1 0xB PUSH1 0x20 MSTORE PUSH1 0x40 DUP1 DUP3 KECCAK256 SWAP4 SWAP1 SWAP4 SSTORE PUSH1 0x24 SLOAD SWAP1 SWAP2 AND DUP2 MSTORE KECCAK256 SLOAD PUSH2 0x455 SWAP1 DUP3 PUSH2 0xC3E JUMP JUMPDEST PUSH1 0x24 SLOAD PUSH1 0x1 PUSH1 0x1 PUSH1 0xA0 SHL SUB AND PUSH1 0x0 SWAP1 DUP2 MSTORE PUSH1 0xB PUSH1 0x20 MSTORE PUSH1 0x40 SWAP1 KECCAK256 SSTORE POP STOP JUMPDEST PUSH1 0x0 PUSH2 0x3C3 CALLVALUE PUSH1 0x3 PUSH2 0xC29 JUMP JUMPDEST CALLVALUE DUP1 ISZERO PUSH2 0x48C JUMPI PUSH1 0x0 DUP1 REVERT JUMPDEST POP PUSH2 0x4A0 PUSH2 0x49B CALLDATASIZE PUSH1 0x4 PUSH2 0x4E59 JUMP JUMPDEST PUSH2 0xC4A JUMP JUMPDEST PUSH1 0x40 MLOAD PUSH1 0x1 PUSH1 0x1 PUSH1 0xA0 SHL SUB SWAP1 SWAP2 AND DUP2 MSTORE PUSH1 0x20 ADD JUMPDEST PUSH1 0x40 MLOAD DUP1 SWAP2 SUB SWAP1 RETURN JUMPDEST CALLVALUE DUP1 ISZERO PUSH2 0x4C9 JUMPI PUSH1 0x0 DUP1 REVERT JUMPDEST POP PUSH1 0x13 SLOAD JUMPDEST PUSH1 0x40 MLOAD SWAP1 DUP2 MSTORE PUSH1 0x20 ADD PUSH2 0x4B4 JUMP JUMPDEST CALLVALUE DUP1 ISZERO PUSH2 0x4E8 JUMPI PUSH1 0x0 DUP1 REVERT JUMPDEST POP PUSH2 0x4F1 PUSH2 0xC74 JUMP JUMPDEST PUSH1 0x40 MLOAD PUSH2 0x4B4 SWAP2 SWAP1 PUSH2 0x4E72 JUMP JUMPDEST CALLVALUE DUP1 ISZERO PUSH2 0x50A JUMPI PUSH1 0x0 DUP1 REVERT JUMPDEST POP PUSH2 0x51E PUSH2 0x519 CALLDATASIZE PUSH1 0x4 PUSH2 0x4EEC JUMP JUMPDEST PUSH2 0xD06 JUMP JUMPDEST PUSH1 0x40 MLOAD SWAP1 ISZERO ISZERO DUP2 MSTORE PUSH1 0x20 ADD PUSH2 0x4B4 JUMP JUMPDEST CALLVALUE DUP1 ISZERO PUSH2 0x53A JUMPI PUSH1 0x0 DUP1 REVERT JUMPDEST POP PUSH2 0x54E PUSH2 0x549 CALLDATASIZE PUSH1 0x4 PUSH2 0x4E59 JUMP JUMPDEST PUSH2 0xD1C JUMP JUMPDEST STOP JUMPDEST CALLVALUE DUP1 ISZERO PUSH2 0x55C JUMPI PUSH1 0x0 DUP1 REVERT JUMPDEST POP PUSH2 0x54E PUSH2 0xE16 JUMP JUMPDEST CALLVALUE DUP1 ISZERO PUSH2 0x571 JUMPI PUSH1 0x0 DUP1 REVERT JUMPDEST POP PUSH2 0x57A PUSH2 0xF68 JUMP JUMPDEST PUSH1 0x40 MLOAD PUSH2 0x4B4 SWAP2 SWAP1 PUSH2 0x4F5C JUMP JUMPDEST CALLVALUE DUP1 ISZERO PUSH2 0x593 JUMPI PUSH1 0x0 DUP1 REVERT JUMPDEST POP PUSH1 0xF SLOAD PUSH2 0x4CE JUMP JUMPDEST CALLVALUE DUP1 ISZERO PUSH2 0x5A8 JUMPI PUSH1 0x0 DUP1 REVERT JUMPDEST POP PUSH2 0x54E PUSH2 0x5B7 CALLDATASIZE PUSH1 0x4 PUSH2 0x4F85 JUMP JUMPDEST PUSH2 0xFC9 JUMP JUMPDEST CALLVALUE DUP1 ISZERO PUSH2 0x5C8 JUMPI PUSH1 0x0 DUP1 REVERT JUMPDEST POP PUSH1 0x2 SLOAD PUSH2 0x4CE JUMP JUMPDEST CALLVALUE DUP1 ISZERO PUSH2 0x5DD JUMPI PUSH1 0x0 DUP1 REVERT JUMPDEST POP PUSH2 0x51E PUSH2 0x5EC CALLDATASIZE PUSH1 0x4 PUSH2 0x504A JUMP JUMPDEST PUSH2 0x1369 JUMP JUMPDEST CALLVALUE DUP1 ISZERO PUSH2 0x5FD JUMPI PUSH1 0x0 DUP1 REVERT JUMPDEST POP PUSH2 0x51E PUSH2 0x60C CALLDATASIZE PUSH1 0x4 PUSH2 0x508B JUMP JUMPDEST PUSH1 0x1 PUSH1 0x1 PUSH1 0xA0 SHL SUB AND PUSH1 0x0 SWAP1 DUP2 MSTORE PUSH1 0x5 PUSH1 0x20 MSTORE PUSH1 0x40 SWAP1 KECCAK256 SLOAD ISZERO ISZERO SWAP1 JUMP JUMPDEST CALLVALUE DUP1 ISZERO PUSH2 0x635 JUMPI PUSH1 0x0 DUP1 REVERT JUMPDEST POP PUSH1 0x10 SLOAD PUSH1 0x40 MLOAD PUSH1 0xFF SWAP1 SWAP2 AND DUP2 MSTORE PUSH1 0x20 ADD PUSH2 0x4B4 JUMP JUMPDEST CALLVALUE DUP1 ISZERO PUSH2 0x657 JUMPI PUSH1 0x0 DUP1 REVERT JUMPDEST POP PUSH1 0x28 SLOAD PUSH2 0x4A0 SWAP1 PUSH1 0x1 PUSH1 0x1 PUSH1 0xA0 SHL SUB AND DUP2 JUMP JUMPDEST CALLVALUE DUP1 ISZERO PUSH2 0x677 JUMPI PUSH1 0x0 DUP1 REVERT JUMPDEST POP PUSH2 0x4CE PUSH2 0x686 CALLDATASIZE PUSH1 0x4 PUSH2 0x50AF JUMP JUMPDEST PUSH2 0x13D2 JUMP JUMPDEST CALLVALUE DUP1 ISZERO PUSH2 0x697 JUMPI PUSH1 0x0 DUP1 REVERT JUMPDEST POP PUSH2 0x51E PUSH2 0x6A6 CALLDATASIZE PUSH1 0x4 PUSH2 0x4EEC JUMP JUMPDEST PUSH2 0x1415 JUMP JUMPDEST CALLVALUE DUP1 ISZERO PUSH2 0x6B7 JUMPI PUSH1 0x0 DUP1 REVERT JUMPDEST POP PUSH1 0xE SLOAD PUSH2 0x6C6 SWAP1 PUSH2 0xFFFF AND DUP2 JUMP JUMPDEST PUSH1 0x40 MLOAD PUSH2 0xFFFF SWAP1 SWAP2 AND DUP2 MSTORE PUSH1 0x20 ADD PUSH2 0x4B4 JUMP JUMPDEST CALLVALUE DUP1 ISZERO PUSH2 0x6E5 JUMPI PUSH1 0x0 DUP1 REVERT JUMPDEST POP PUSH2 0x54E PUSH2 0x144B JUMP JUMPDEST CALLVALUE DUP1 ISZERO PUSH2 0x6FA JUMPI PUSH1 0x0 DUP1 REVERT JUMPDEST POP PUSH1 0x27 SLOAD PUSH2 0x4A0 SWAP1 PUSH1 0x1 PUSH1 0x1 PUSH1 0xA0 SHL SUB AND DUP2 JUMP JUMPDEST CALLVALUE DUP1 ISZERO PUSH2 0x71A JUMPI PUSH1 0x0 DUP1 REVERT JUMPDEST POP PUSH2 0x4CE PUSH2 0x729 CALLDATASIZE PUSH1 0x4 PUSH2 0x4E59 JUMP JUMPDEST PUSH2 0x150E JUMP JUMPDEST CALLVALUE DUP1 ISZERO PUSH2 0x73A JUMPI PUSH1 0x0 DUP1 REVERT JUMPDEST POP TIMESTAMP PUSH2 0x4CE JUMP JUMPDEST CALLVALUE DUP1 ISZERO PUSH2 0x74D JUMPI PUSH1 0x0 DUP1 REVERT JUMPDEST POP PUSH1 0x29 SLOAD PUSH2 0x4A0 SWAP1 PUSH1 0x1 PUSH1 0x1 PUSH1 0xA0 SHL SUB AND DUP2 JUMP JUMPDEST CALLVALUE DUP1 ISZERO PUSH2 0x76D JUMPI PUSH1 0x0 DUP1 REVERT JUMPDEST POP PUSH2 0x54E PUSH2 0x152F JUMP JUMPDEST CALLVALUE DUP1 ISZERO PUSH2 0x782 JUMPI PUSH1 0x0 DUP1 REVERT JUMPDEST POP PUSH2 0x4CE PUSH2 0x791 CALLDATASIZE PUSH1 0x4 PUSH2 0x4E59 JUMP JUMPDEST PUSH1 0x7 PUSH1 0x20 MSTORE PUSH1 0x0 SWAP1 DUP2 MSTORE PUSH1 0x40 SWAP1 KECCAK256 SLOAD DUP2 JUMP JUMPDEST CALLVALUE DUP1 ISZERO PUSH2 0x7AF JUMPI PUSH1 0x0 DUP1 REVERT JUMPDEST POP PUSH2 0x4CE PUSH2 0x7BE CALLDATASIZE PUSH1 0x4 PUSH2 0x508B JUMP JUMPDEST PUSH1 0x1 PUSH1 0x1 PUSH1 0xA0 SHL SUB AND PUSH1 0x0 SWAP1 DUP2 MSTORE PUSH1 0xB PUSH1 0x20 MSTORE PUSH1 0x40 SWAP1 KECCAK256 SLOAD SWAP1 JUMP JUMPDEST CALLVALUE DUP1 ISZERO PUSH2 0x7E5 JUMPI PUSH1 0x0 DUP1 REVERT JUMPDEST POP PUSH2 0x54E PUSH2 0x7F4 CALLDATASIZE PUSH1 0x4 PUSH2 0x50DF JUMP JUMPDEST PUSH2 0x15F2 JUMP JUMPDEST CALLVALUE DUP1 ISZERO PUSH2 0x805 JUMPI PUSH1 0x0 DUP1 REVERT JUMPDEST POP PUSH2 0x54E PUSH2 0x1737 JUMP JUMPDEST CALLVALUE DUP1 ISZERO PUSH2 0x81A JUMPI PUSH1 0x0 DUP1 REVERT JUMPDEST POP PUSH2 0x54E PUSH2 0x17FA JUMP JUMPDEST CALLVALUE DUP1 ISZERO PUSH2 0x82F JUMPI PUSH1 0x0 DUP1 REVERT JUMPDEST POP PUSH1 0x2D SLOAD PUSH2 0x4A0 SWAP1 PUSH1 0x1 PUSH1 0x1 PUSH1 0xA0 SHL SUB AND DUP2 JUMP JUMPDEST CALLVALUE DUP1 ISZERO PUSH2 0x84F JUMPI PUSH1 0x0 DUP1 REVERT JUMPDEST POP PUSH1 0x2E SLOAD PUSH2 0x4A0 SWAP1 PUSH1 0x1 PUSH1 0x1 PUSH1 0xA0 SHL SUB AND DUP2 JUMP JUMPDEST CALLVALUE DUP1 ISZERO PUSH2 0x86F JUMPI PUSH1 0x0 DUP1 REVERT JUMPDEST POP PUSH2 0x54E PUSH2 0x18BD JUMP JUMPDEST CALLVALUE DUP1 ISZERO PUSH2 0x884 JUMPI PUSH1 0x0 DUP1 REVERT JUMPDEST POP PUSH2 0x54E PUSH2 0x893 CALLDATASIZE PUSH1 0x4 PUSH2 0x5101 JUMP JUMPDEST PUSH2 0x1980 JUMP JUMPDEST CALLVALUE DUP1 ISZERO PUSH2 0x8A4 JUMPI PUSH1 0x0 DUP1 REVERT JUMPDEST POP PUSH2 0x57A PUSH2 0x1A25 JUMP JUMPDEST CALLVALUE DUP1 ISZERO PUSH2 0x8B9 JUMPI PUSH1 0x0 DUP1 REVERT JUMPDEST POP PUSH2 0x54E PUSH2 0x1A34 JUMP JUMPDEST CALLVALUE DUP1 ISZERO PUSH2 0x8CE JUMPI PUSH1 0x0 DUP1 REVERT JUMPDEST POP PUSH2 0x4CE PUSH2 0x8DD CALLDATASIZE PUSH1 0x4 PUSH2 0x4E59 JUMP JUMPDEST PUSH1 0x8 PUSH1 0x20 MSTORE PUSH1 0x0 SWAP1 DUP2 MSTORE PUSH1 0x40 SWAP1 KECCAK256 SLOAD DUP2 JUMP JUMPDEST CALLVALUE DUP1 ISZERO PUSH2 0x8FB JUMPI PUSH1 0x0 DUP1 REVERT JUMPDEST POP PUSH2 0x54E PUSH2 0x1AF7 JUMP JUMPDEST CALLVALUE DUP1 ISZERO PUSH2 0x910 JUMPI PUSH1 0x0 DUP1 REVERT JUMPDEST POP PUSH2 0x4F1 PUSH2 0x1BB7 JUMP JUMPDEST CALLVALUE DUP1 ISZERO PUSH2 0x925 JUMPI PUSH1 0x0 DUP1 REVERT JUMPDEST POP PUSH1 0x2B SLOAD PUSH2 0x4A0 SWAP1 PUSH1 0x1 PUSH1 0x1 PUSH1 0xA0 SHL SUB AND DUP2 JUMP JUMPDEST CALLVALUE DUP1 ISZERO PUSH2 0x945 JUMPI PUSH1 0x0 DUP1 REVERT JUMPDEST POP PUSH1 0xE SLOAD PUSH2 0xFFFF AND PUSH2 0x4CE JUMP JUMPDEST CALLVALUE DUP1 ISZERO PUSH2 0x95E JUMPI PUSH1 0x0 DUP1 REVERT JUMPDEST POP PUSH2 0x54E PUSH2 0x96D CALLDATASIZE PUSH1 0x4 PUSH2 0x4E59 JUMP JUMPDEST PUSH2 0x1BC6 JUMP JUMPDEST CALLVALUE DUP1 ISZERO PUSH2 0x97E JUMPI PUSH1 0x0 DUP1 REVERT JUMPDEST POP PUSH2 0x51E PUSH2 0x98D CALLDATASIZE PUSH1 0x4 PUSH2 0x4EEC JUMP JUMPDEST PUSH2 0x1C67 JUMP JUMPDEST CALLVALUE DUP1 ISZERO PUSH2 0x99E JUMPI PUSH1 0x0 DUP1 REVERT JUMPDEST POP PUSH2 0x51E PUSH2 0x9AD CALLDATASIZE PUSH1 0x4 PUSH2 0x4EEC JUMP JUMPDEST PUSH2 0x1CB6 JUMP JUMPDEST CALLVALUE DUP1 ISZERO PUSH2 0x9BE JUMPI PUSH1 0x0 DUP1 REVERT JUMPDEST POP PUSH1 0x26 SLOAD PUSH2 0x4A0 SWAP1 PUSH1 0x1 PUSH1 0x1 PUSH1 0xA0 SHL SUB AND DUP2 JUMP JUMPDEST CALLVALUE DUP1 ISZERO PUSH2 0x9DE JUMPI PUSH1 0x0 DUP1 REVERT JUMPDEST POP PUSH2 0x9F2 PUSH2 0x9ED CALLDATASIZE PUSH1 0x4 PUSH2 0x508B JUMP JUMPDEST PUSH2 0x1CC3 JUMP JUMPDEST PUSH1 0x40 MLOAD PUSH2 0x4B4 SWAP2 SWAP1 PUSH2 0x5125 JUMP JUMPDEST CALLVALUE DUP1 ISZERO PUSH2 0xA0B JUMPI PUSH1 0x0 DUP1 REVERT JUMPDEST POP PUSH2 0x4CE PUSH1 0x0 SLOAD DUP2 JUMP JUMPDEST CALLVALUE DUP1 ISZERO PUSH2 0xA21 JUMPI PUSH1 0x0 DUP1 REVERT JUMPDEST POP PUSH2 0x54E PUSH2 0x1DD3 JUMP JUMPDEST CALLVALUE DUP1 ISZERO PUSH2 0xA36 JUMPI PUSH1 0x0 DUP1 REVERT JUMPDEST POP PUSH1 0x1 SLOAD PUSH2 0x4CE JUMP JUMPDEST CALLVALUE DUP1 ISZERO PUSH2 0xA4B JUMPI PUSH1 0x0 DUP1 REVERT JUMPDEST POP PUSH2 0x4CE PUSH2 0x1E96 JUMP JUMPDEST CALLVALUE DUP1 ISZERO PUSH2 0xA60 JUMPI PUSH1 0x0 DUP1 REVERT JUMPDEST POP PUSH2 0x4CE PUSH2 0xA6F CALLDATASIZE PUSH1 0x4 PUSH2 0x508B JUMP JUMPDEST PUSH1 0x5 PUSH1 0x20 MSTORE PUSH1 0x0 SWAP1 DUP2 MSTORE PUSH1 0x40 SWAP1 KECCAK256 SLOAD DUP2 JUMP JUMPDEST CALLVALUE DUP1 ISZERO PUSH2 0xA8D JUMPI PUSH1 0x0 DUP1 REVERT JUMPDEST POP ADDRESS PUSH2 0x4A0 JUMP JUMPDEST CALLVALUE DUP1 ISZERO PUSH2 0xAA0 JUMPI PUSH1 0x0 DUP1 REVERT JUMPDEST POP PUSH2 0x54E PUSH2 0xAAF CALLDATASIZE PUSH1 0x4 PUSH2 0x4E59 JUMP JUMPDEST PUSH2 0x1EF8 JUMP JUMPDEST CALLVALUE DUP1 ISZERO PUSH2 0xAC0 JUMPI PUSH1 0x0 DUP1 REVERT JUMPDEST POP PUSH2 0x4CE PUSH2 0xACF CALLDATASIZE PUSH1 0x4 PUSH2 0x51BB JUMP JUMPDEST PUSH1 0x1 PUSH1 0x1 PUSH1 0xA0 SHL SUB SWAP2 DUP3 AND PUSH1 0x0 SWAP1 DUP2 MSTORE PUSH1 0xC PUSH1 0x20 SWAP1 DUP2 MSTORE PUSH1 0x40 DUP1 DUP4 KECCAK256 SWAP4 SWAP1 SWAP5 AND DUP3 MSTORE SWAP2 SWAP1 SWAP2 MSTORE KECCAK256 SLOAD SWAP1 JUMP JUMPDEST CALLVALUE DUP1 ISZERO PUSH2 0xB06 JUMPI PUSH1 0x0 DUP1 REVERT JUMPDEST POP PUSH2 0x4CE PUSH2 0xB15 CALLDATASIZE PUSH1 0x4 PUSH2 0x4E59 JUMP JUMPDEST PUSH1 0x0 SWAP1 DUP2 MSTORE PUSH1 0xD PUSH1 0x20 MSTORE PUSH1 0x40 SWAP1 KECCAK256 SLOAD SWAP1 JUMP JUMPDEST CALLVALUE DUP1 ISZERO PUSH2 0xB33 JUMPI PUSH1 0x0 DUP1 REVERT JUMPDEST POP PUSH1 0x25 SLOAD PUSH2 0x4A0 SWAP1 PUSH1 0x1 PUSH1 0x1 PUSH1 0xA0 SHL SUB AND DUP2 JUMP JUMPDEST CALLVALUE DUP1 ISZERO PUSH2 0xB53 JUMPI PUSH1 0x0 DUP1 REVERT JUMPDEST POP PUSH2 0x9F2 PUSH2 0xB62 CALLDATASIZE PUSH1 0x4 PUSH2 0x508B JUMP JUMPDEST PUSH2 0x1F5D JUMP JUMPDEST CALLVALUE DUP1 ISZERO PUSH2 0xB73 JUMPI PUSH1 0x0 DUP1 REVERT JUMPDEST POP PUSH2 0x4CE PUSH2 0xB82 CALLDATASIZE PUSH1 0x4 PUSH2 0x4E59 JUMP JUMPDEST PUSH1 0x6 PUSH1 0x20 MSTORE PUSH1 0x0 SWAP1 DUP2 MSTORE PUSH1 0x40 SWAP1 KECCAK256 SLOAD DUP2 JUMP JUMPDEST CALLVALUE DUP1 ISZERO PUSH2 0xBA0 JUMPI PUSH1 0x0 DUP1 REVERT JUMPDEST POP PUSH2 0x54E PUSH2 0x21A4 JUMP JUMPDEST CALLVALUE DUP1 ISZERO PUSH2 0xBB5 JUMPI PUSH1 0x0 DUP1 REVERT JUMPDEST POP PUSH1 0x2A SLOAD PUSH2 0x4A0 SWAP1 PUSH1 0x1 PUSH1 0x1 PUSH1 0xA0 SHL SUB AND DUP2 JUMP JUMPDEST CALLVALUE DUP1 ISZERO PUSH2 0xBD5 JUMPI PUSH1 0x0 DUP1 REVERT JUMPDEST POP PUSH2 0x54E PUSH2 0xBE4 CALLDATASIZE PUSH1 0x4 PUSH2 0x50DF JUMP JUMPDEST PUSH2 0x2267 JUMP JUMPDEST CALLVALUE DUP1 ISZERO PUSH2 0xBF5 JUMPI PUSH1 0x0 DUP1 REVERT JUMPDEST POP PUSH1 0x2C SLOAD PUSH2 0x4A0 SWAP1 PUSH1 0x1 PUSH1 0x1 PUSH1 0xA0 SHL SUB AND DUP2 JUMP JUMPDEST CALLVALUE DUP1 ISZERO PUSH2 0xC15 JUMPI PUSH1 0x0 DUP1 REVERT JUMPDEST POP PUSH2 0x54E PUSH2 0xC24 CALLDATASIZE PUSH1 0x4 PUSH2 0x4E59 JUMP JUMPDEST PUSH2 0x22D1 JUMP JUMPDEST PUSH1 0x0 PUSH2 0xC35 DUP3 DUP5 PUSH2 0x5215 JUMP JUMPDEST SWAP1 POP JUMPDEST SWAP3 SWAP2 POP POP JUMP JUMPDEST PUSH1 0x0 PUSH2 0xC35 DUP3 DUP5 PUSH2 0x5237 JUMP JUMPDEST PUSH1 0x1 DUP2 DUP2 SLOAD DUP2 LT PUSH2 0xC5A JUMPI PUSH1 0x0 DUP1 REVERT JUMPDEST PUSH1 0x0 SWAP2 DUP3 MSTORE PUSH1 0x20 SWAP1 SWAP2 KECCAK256 ADD SLOAD PUSH1 0x1 PUSH1 0x1 PUSH1 0xA0 SHL SUB AND SWAP1 POP DUP2 JUMP JUMPDEST PUSH1 0x60 PUSH1 0x12 DUP1 SLOAD PUSH2 0xC83 SWAP1 PUSH2 0x524F JUMP JUMPDEST DUP1 PUSH1 0x1F ADD PUSH1 0x20 DUP1 SWAP2 DIV MUL PUSH1 0x20 ADD PUSH1 0x40 MLOAD SWAP1 DUP2 ADD PUSH1 0x40 MSTORE DUP1 SWAP3 SWAP2 SWAP1 DUP2 DUP2 MSTORE PUSH1 0x20 ADD DUP3 DUP1 SLOAD PUSH2 0xCAF SWAP1 PUSH2 0x524F JUMP JUMPDEST DUP1 ISZERO PUSH2 0xCFC JUMPI DUP1 PUSH1 0x1F LT PUSH2 0xCD1 JUMPI PUSH2 0x100 DUP1 DUP4 SLOAD DIV MUL DUP4 MSTORE SWAP2 PUSH1 0x20 ADD SWAP2 PUSH2 0xCFC JUMP JUMPDEST DUP3 ADD SWAP2 SWAP1 PUSH1 0x0 MSTORE PUSH1 0x20 PUSH1 0x0 KECCAK256 SWAP1 JUMPDEST DUP2 SLOAD DUP2 MSTORE SWAP1 PUSH1 0x1 ADD SWAP1 PUSH1 0x20 ADD DUP1 DUP4 GT PUSH2 0xCDF JUMPI DUP3 SWAP1 SUB PUSH1 0x1F AND DUP3 ADD SWAP2 JUMPDEST POP POP POP POP POP SWAP1 POP SWAP1 JUMP JUMPDEST PUSH1 0x0 PUSH2 0xD13 CALLER DUP5 DUP5 PUSH2 0x2355 JUMP JUMPDEST POP PUSH1 0x1 SWAP3 SWAP2 POP POP JUMP JUMPDEST PUSH1 0x1 SLOAD PUSH2 0xD28 SWAP1 PUSH2 0x2484 JUMP JUMPDEST ISZERO PUSH2 0xE13 JUMPI PUSH1 0x3 SLOAD PUSH1 0x1 PUSH1 0x1 PUSH1 0xA0 SHL SUB AND ISZERO DUP1 ISZERO PUSH2 0xD59 JUMPI PUSH1 0x3 DUP1 SLOAD PUSH1 0x1 PUSH1 0x1 PUSH1 0xA0 SHL SUB NOT AND CALLER OR SWAP1 SSTORE PUSH1 0x1 SLOAD PUSH1 0x4 SSTORE JUMPDEST PUSH1 0x13 SLOAD DUP3 LT PUSH2 0xDD5 JUMPI PUSH1 0x40 MLOAD PUSH3 0x461BCD PUSH1 0xE5 SHL DUP2 MSTORE PUSH1 0x20 PUSH1 0x4 DUP3 ADD MSTORE PUSH1 0x3D PUSH1 0x24 DUP3 ADD MSTORE PUSH32 0x54616C6178546F6B656E3A20416D6F756E74206275726E742063616E6E6F7420 PUSH1 0x44 DUP3 ADD MSTORE PUSH32 0x6265206C6172676572207468616E205374616B696E6720526577617264000000 PUSH1 0x64 DUP3 ADD MSTORE PUSH1 0x84 ADD JUMPDEST PUSH1 0x40 MLOAD DUP1 SWAP2 SUB SWAP1 REVERT JUMPDEST PUSH1 0x13 SLOAD PUSH2 0xDE2 SWAP1 DUP4 PUSH2 0x282E JUMP JUMPDEST PUSH1 0x13 SSTORE PUSH1 0xF SLOAD PUSH2 0xDF2 SWAP1 DUP4 PUSH2 0x282E JUMP JUMPDEST PUSH1 0xF SSTORE DUP1 ISZERO PUSH2 0xE11 JUMPI PUSH1 0x3 DUP1 SLOAD PUSH1 0x1 PUSH1 0x1 PUSH1 0xA0 SHL SUB NOT AND SWAP1 SSTORE PUSH1 0x0 PUSH1 0x4 SSTORE JUMPDEST POP JUMPDEST POP JUMP JUMPDEST PUSH1 0x2A PUSH1 0x0 SWAP1 SLOAD SWAP1 PUSH2 0x100 EXP SWAP1 DIV PUSH1 0x1 PUSH1 0x1 PUSH1 0xA0 SHL SUB AND PUSH1 0x1 PUSH1 0x1 PUSH1 0xA0 SHL SUB AND PUSH4 0x38AF3EED PUSH1 0x40 MLOAD DUP2 PUSH4 0xFFFFFFFF AND PUSH1 0xE0 SHL DUP2 MSTORE PUSH1 0x4 ADD PUSH1 0x20 PUSH1 0x40 MLOAD DUP1 DUP4 SUB DUP2 DUP7 GAS STATICCALL ISZERO DUP1 ISZERO PUSH2 0xE69 JUMPI RETURNDATASIZE PUSH1 0x0 DUP1 RETURNDATACOPY RETURNDATASIZE PUSH1 0x0 REVERT JUMPDEST POP POP POP POP PUSH1 0x40 MLOAD RETURNDATASIZE PUSH1 0x1F NOT PUSH1 0x1F DUP3 ADD AND DUP3 ADD DUP1 PUSH1 0x40 MSTORE POP DUP2 ADD SWAP1 PUSH2 0xE8D SWAP2 SWAP1 PUSH2 0x528A JUMP JUMPDEST PUSH1 0x1 PUSH1 0x1 PUSH1 0xA0 SHL SUB AND CALLER PUSH1 0x1 PUSH1 0x1 PUSH1 0xA0 SHL SUB AND EQ PUSH2 0xEBD JUMPI PUSH1 0x40 MLOAD PUSH3 0x461BCD PUSH1 0xE5 SHL DUP2 MSTORE PUSH1 0x4 ADD PUSH2 0xDCC SWAP1 PUSH2 0x52A7 JUMP JUMPDEST PUSH1 0x2A SLOAD PUSH1 0x0 SWAP1 PUSH1 0x1 PUSH1 0x1 PUSH1 0xA0 SHL SUB AND PUSH4 0xC8100DCC PUSH2 0xED9 PUSH2 0x283A JUMP JUMPDEST PUSH1 0x40 MLOAD DUP3 PUSH4 0xFFFFFFFF AND PUSH1 0xE0 SHL DUP2 MSTORE PUSH1 0x4 ADD PUSH2 0xEF5 SWAP2 SWAP1 PUSH2 0x52F9 JUMP JUMPDEST PUSH1 0x20 PUSH1 0x40 MLOAD DUP1 DUP4 SUB DUP2 PUSH1 0x0 DUP8 GAS CALL ISZERO DUP1 ISZERO PUSH2 0xF14 JUMPI RETURNDATASIZE PUSH1 0x0 DUP1 RETURNDATACOPY RETURNDATASIZE PUSH1 0x0 REVERT JUMPDEST POP POP POP POP PUSH1 0x40 MLOAD RETURNDATASIZE PUSH1 0x1F NOT PUSH1 0x1F DUP3 ADD AND DUP3 ADD DUP1 PUSH1 0x40 MSTORE POP DUP2 ADD SWAP1 PUSH2 0xF38 SWAP2 SWAP1 PUSH2 0x532B JUMP JUMPDEST CALLER PUSH1 0x0 SWAP1 DUP2 MSTORE PUSH1 0xB PUSH1 0x20 MSTORE PUSH1 0x40 SWAP1 KECCAK256 SLOAD SWAP1 SWAP2 POP PUSH2 0xF55 SWAP1 DUP3 PUSH2 0xC3E JUMP JUMPDEST CALLER PUSH1 0x0 SWAP1 DUP2 MSTORE PUSH1 0xB PUSH1 0x20 MSTORE PUSH1 0x40 SWAP1 KECCAK256 SSTORE POP JUMP JUMPDEST PUSH1 0x60 PUSH1 0x1 DUP1 SLOAD DUP1 PUSH1 0x20 MUL PUSH1 0x20 ADD PUSH1 0x40 MLOAD SWAP1 DUP2 ADD PUSH1 0x40 MSTORE DUP1 SWAP3 SWAP2 SWAP1 DUP2 DUP2 MSTORE PUSH1 0x20 ADD DUP3 DUP1 SLOAD DUP1 ISZERO PUSH2 0xCFC JUMPI PUSH1 0x20 MUL DUP3 ADD SWAP2 SWAP1 PUSH1 0x0 MSTORE PUSH1 0x20 PUSH1 0x0 KECCAK256 SWAP1 JUMPDEST DUP2 SLOAD PUSH1 0x1 PUSH1 0x1 PUSH1 0xA0 SHL SUB AND DUP2 MSTORE PUSH1 0x1 SWAP1 SWAP2 ADD SWAP1 PUSH1 0x20 ADD DUP1 DUP4 GT PUSH2 0xFA2 JUMPI POP POP POP POP POP SWAP1 POP SWAP1 JUMP JUMPDEST PUSH1 0x1 SLOAD PUSH2 0xFD5 SWAP1 PUSH2 0x2484 JUMP JUMPDEST ISZERO PUSH2 0xE13 JUMPI PUSH1 0x3 SLOAD PUSH1 0x1 PUSH1 0x1 PUSH1 0xA0 SHL SUB AND ISZERO DUP1 ISZERO PUSH2 0x1006 JUMPI PUSH1 0x3 DUP1 SLOAD PUSH1 0x1 PUSH1 0x1 PUSH1 0xA0 SHL SUB NOT AND CALLER OR SWAP1 SSTORE PUSH1 0x1 SLOAD PUSH1 0x4 SSTORE JUMPDEST PUSH1 0x0 DUP3 MLOAD GT PUSH2 0x1068 JUMPI PUSH1 0x40 MLOAD PUSH3 0x461BCD PUSH1 0xE5 SHL DUP2 MSTORE PUSH1 0x20 PUSH1 0x4 DUP3 ADD MSTORE PUSH1 0x28 PUSH1 0x24 DUP3 ADD MSTORE PUSH32 0x7472616E736665724F776E6572736869703A206F776E65727320617272617920 PUSH1 0x44 DUP3 ADD MSTORE PUSH8 0x697320656D707479 PUSH1 0xC0 SHL PUSH1 0x64 DUP3 ADD MSTORE PUSH1 0x84 ADD PUSH2 0xDCC JUMP JUMPDEST PUSH2 0x100 DUP3 MLOAD GT ISZERO PUSH2 0x10D7 JUMPI PUSH1 0x40 MLOAD PUSH3 0x461BCD PUSH1 0xE5 SHL DUP2 MSTORE PUSH1 0x20 PUSH1 0x4 DUP3 ADD MSTORE PUSH1 0x33 PUSH1 0x24 DUP3 ADD MSTORE PUSH32 0x7472616E736665724F776E6572736869703A206F776E65727320636F756E7420 PUSH1 0x44 DUP3 ADD MSTORE PUSH19 0x34B99033B932B0BA32B9103A3432B710191A9B PUSH1 0x69 SHL PUSH1 0x64 DUP3 ADD MSTORE PUSH1 0x84 ADD PUSH2 0xDCC JUMP JUMPDEST PUSH1 0x0 JUMPDEST PUSH1 0x1 SLOAD DUP2 LT ISZERO PUSH2 0x1132 JUMPI PUSH1 0x5 PUSH1 0x0 PUSH1 0x1 DUP4 DUP2 SLOAD DUP2 LT PUSH2 0x10FB JUMPI PUSH2 0x10FB PUSH2 0x5344 JUMP JUMPDEST PUSH1 0x0 SWAP2 DUP3 MSTORE PUSH1 0x20 DUP1 DUP4 KECCAK256 SWAP1 SWAP2 ADD SLOAD PUSH1 0x1 PUSH1 0x1 PUSH1 0xA0 SHL SUB AND DUP4 MSTORE DUP3 ADD SWAP3 SWAP1 SWAP3 MSTORE PUSH1 0x40 ADD DUP2 KECCAK256 SSTORE DUP1 PUSH2 0x112A DUP2 PUSH2 0x535A JUMP JUMPDEST SWAP2 POP POP PUSH2 0x10DA JUMP JUMPDEST POP PUSH1 0x0 JUMPDEST DUP3 MLOAD DUP2 LT ISZERO PUSH2 0x12DB JUMPI PUSH1 0x0 PUSH1 0x1 PUSH1 0x1 PUSH1 0xA0 SHL SUB AND DUP4 DUP3 DUP2 MLOAD DUP2 LT PUSH2 0x115C JUMPI PUSH2 0x115C PUSH2 0x5344 JUMP JUMPDEST PUSH1 0x20 MUL PUSH1 0x20 ADD ADD MLOAD PUSH1 0x1 PUSH1 0x1 PUSH1 0xA0 SHL SUB AND EQ ISZERO PUSH2 0x11D1 JUMPI PUSH1 0x40 MLOAD PUSH3 0x461BCD PUSH1 0xE5 SHL DUP2 MSTORE PUSH1 0x20 PUSH1 0x4 DUP3 ADD MSTORE PUSH1 0x2D PUSH1 0x24 DUP3 ADD MSTORE PUSH32 0x7472616E736665724F776E6572736869703A206F776E65727320617272617920 PUSH1 0x44 DUP3 ADD MSTORE PUSH13 0x636F6E7461696E73207A65726F PUSH1 0x98 SHL PUSH1 0x64 DUP3 ADD MSTORE PUSH1 0x84 ADD PUSH2 0xDCC JUMP JUMPDEST PUSH1 0x5 PUSH1 0x0 DUP5 DUP4 DUP2 MLOAD DUP2 LT PUSH2 0x11E7 JUMPI PUSH2 0x11E7 PUSH2 0x5344 JUMP JUMPDEST PUSH1 0x20 MUL PUSH1 0x20 ADD ADD MLOAD PUSH1 0x1 PUSH1 0x1 PUSH1 0xA0 SHL SUB AND PUSH1 0x1 PUSH1 0x1 PUSH1 0xA0 SHL SUB AND DUP2 MSTORE PUSH1 0x20 ADD SWAP1 DUP2 MSTORE PUSH1 0x20 ADD PUSH1 0x0 KECCAK256 SLOAD PUSH1 0x0 EQ PUSH2 0x127B JUMPI PUSH1 0x40 MLOAD PUSH3 0x461BCD PUSH1 0xE5 SHL DUP2 MSTORE PUSH1 0x20 PUSH1 0x4 DUP3 ADD MSTORE PUSH1 0x33 PUSH1 0x24 DUP3 ADD MSTORE PUSH32 0x7472616E736665724F776E6572736869703A206F776E65727320617272617920 PUSH1 0x44 DUP3 ADD MSTORE PUSH19 0x636F6E7461696E73206475706C696361746573 PUSH1 0x68 SHL PUSH1 0x64 DUP3 ADD MSTORE PUSH1 0x84 ADD PUSH2 0xDCC JUMP JUMPDEST PUSH2 0x1286 DUP2 PUSH1 0x1 PUSH2 0x5237 JUMP JUMPDEST PUSH1 0x5 PUSH1 0x0 DUP6 DUP5 DUP2 MLOAD DUP2 LT PUSH2 0x129C JUMPI PUSH2 0x129C PUSH2 0x5344 JUMP JUMPDEST PUSH1 0x20 MUL PUSH1 0x20 ADD ADD MLOAD PUSH1 0x1 PUSH1 0x1 PUSH1 0xA0 SHL SUB AND PUSH1 0x1 PUSH1 0x1 PUSH1 0xA0 SHL SUB AND DUP2 MSTORE PUSH1 0x20 ADD SWAP1 DUP2 MSTORE PUSH1 0x20 ADD PUSH1 0x0 KECCAK256 DUP2 SWAP1 SSTORE POP DUP1 DUP1 PUSH2 0x12D3 SWAP1 PUSH2 0x535A JUMP JUMPDEST SWAP2 POP POP PUSH2 0x1136 JUMP JUMPDEST POP PUSH32 0xE62C04BB3499D4F432A50E07318D42861C4865AFB22EE4CFE403D4F945507090 PUSH1 0x1 DUP4 PUSH1 0x40 MLOAD PUSH2 0x130E SWAP3 SWAP2 SWAP1 PUSH2 0x5375 JUMP JUMPDEST PUSH1 0x40 MLOAD DUP1 SWAP2 SUB SWAP1 LOG1 DUP2 MLOAD PUSH2 0x1329 SWAP1 PUSH1 0x1 SWAP1 PUSH1 0x20 DUP6 ADD SWAP1 PUSH2 0x4DA2 JUMP JUMPDEST POP PUSH2 0x1336 PUSH1 0x2 PUSH1 0x0 PUSH2 0x4E07 JUMP JUMPDEST PUSH1 0x0 DUP1 SLOAD SWAP1 DUP1 PUSH2 0x1345 DUP4 PUSH2 0x535A JUMP JUMPDEST SWAP2 SWAP1 POP SSTORE POP DUP1 ISZERO PUSH2 0xE11 JUMPI PUSH1 0x3 DUP1 SLOAD PUSH1 0x1 PUSH1 0x1 PUSH1 0xA0 SHL SUB NOT AND SWAP1 SSTORE PUSH1 0x0 PUSH1 0x4 SSTORE POP POP JUMP JUMPDEST PUSH1 0x0 PUSH2 0x1376 DUP5 DUP5 DUP5 PUSH2 0x2C03 JUMP JUMPDEST PUSH2 0x13C8 DUP5 CALLER PUSH2 0x13C3 DUP6 PUSH1 0x40 MLOAD DUP1 PUSH1 0x60 ADD PUSH1 0x40 MSTORE DUP1 PUSH1 0x2D DUP2 MSTORE PUSH1 0x20 ADD PUSH2 0x55B5 PUSH1 0x2D SWAP2 CODECOPY PUSH1 0x1 PUSH1 0x1 PUSH1 0xA0 SHL SUB DUP11 AND PUSH1 0x0 SWAP1 DUP2 MSTORE PUSH1 0xC PUSH1 0x20 SWAP1 DUP2 MSTORE PUSH1 0x40 DUP1 DUP4 KECCAK256 CALLER DUP5 MSTORE SWAP1 SWAP2 MSTORE SWAP1 KECCAK256 SLOAD SWAP2 SWAP1 PUSH2 0x2329 JUMP JUMPDEST PUSH2 0x2355 JUMP JUMPDEST POP PUSH1 0x1 SWAP4 SWAP3 POP POP POP JUMP JUMPDEST PUSH1 0x0 DUP1 PUSH2 0x13DE DUP4 PUSH2 0x1CC3 JUMP JUMPDEST SWAP1 POP DUP1 PUSH1 0x20 ADD MLOAD DUP5 DUP2 MLOAD DUP2 LT PUSH2 0x13F6 JUMPI PUSH2 0x13F6 PUSH2 0x5344 JUMP JUMPDEST PUSH1 0x20 MUL PUSH1 0x20 ADD ADD MLOAD PUSH1 0x40 ADD MLOAD TIMESTAMP PUSH2 0x140D SWAP2 SWAP1 PUSH2 0x53DD JUMP JUMPDEST SWAP5 SWAP4 POP POP POP POP JUMP JUMPDEST CALLER PUSH1 0x0 DUP2 DUP2 MSTORE PUSH1 0xC PUSH1 0x20 SWAP1 DUP2 MSTORE PUSH1 0x40 DUP1 DUP4 KECCAK256 PUSH1 0x1 PUSH1 0x1 PUSH1 0xA0 SHL SUB DUP8 AND DUP5 MSTORE SWAP1 SWAP2 MSTORE DUP2 KECCAK256 SLOAD SWAP1 SWAP2 PUSH2 0xD13 SWAP2 DUP6 SWAP1 PUSH2 0x13C3 SWAP1 DUP7 PUSH2 0xC3E JUMP JUMPDEST PUSH1 0x2E PUSH1 0x0 SWAP1 SLOAD SWAP1 PUSH2 0x100 EXP SWAP1 DIV PUSH1 0x1 PUSH1 0x1 PUSH1 0xA0 SHL SUB AND PUSH1 0x1 PUSH1 0x1 PUSH1 0xA0 SHL SUB AND PUSH4 0x38AF3EED PUSH1 0x40 MLOAD DUP2 PUSH4 0xFFFFFFFF AND PUSH1 0xE0 SHL DUP2 MSTORE PUSH1 0x4 ADD PUSH1 0x20 PUSH1 0x40 MLOAD DUP1 DUP4 SUB DUP2 DUP7 GAS STATICCALL ISZERO DUP1 ISZERO PUSH2 0x149E JUMPI RETURNDATASIZE PUSH1 0x0 DUP1 RETURNDATACOPY RETURNDATASIZE PUSH1 0x0 REVERT JUMPDEST POP POP POP POP PUSH1 0x40 MLOAD RETURNDATASIZE PUSH1 0x1F NOT PUSH1 0x1F DUP3 ADD AND DUP3 ADD DUP1 PUSH1 0x40 MSTORE POP DUP2 ADD SWAP1 PUSH2 0x14C2 SWAP2 SWAP1 PUSH2 0x528A JUMP JUMPDEST PUSH1 0x1 PUSH1 0x1 PUSH1 0xA0 SHL SUB AND CALLER PUSH1 0x1 PUSH1 0x1 PUSH1 0xA0 SHL SUB AND EQ PUSH2 0x14F2 JUMPI PUSH1 0x40 MLOAD PUSH3 0x461BCD PUSH1 0xE5 SHL DUP2 MSTORE PUSH1 0x4 ADD PUSH2 0xDCC SWAP1 PUSH2 0x52A7 JUMP JUMPDEST PUSH1 0x2E SLOAD PUSH1 0x0 SWAP1 PUSH1 0x1 PUSH1 0x1 PUSH1 0xA0 SHL SUB AND PUSH4 0xC8100DCC PUSH2 0xED9 PUSH2 0x2EF2 JUMP JUMPDEST PUSH1 0x2 DUP2 DUP2 SLOAD DUP2 LT PUSH2 0x151E JUMPI PUSH1 0x0 DUP1 REVERT JUMPDEST PUSH1 0x0 SWAP2 DUP3 MSTORE PUSH1 0x20 SWAP1 SWAP2 KECCAK256 ADD SLOAD SWAP1 POP DUP2 JUMP JUMPDEST PUSH1 0x2C PUSH1 0x0 SWAP1 SLOAD SWAP1 PUSH2 0x100 EXP SWAP1 DIV PUSH1 0x1 PUSH1 0x1 PUSH1 0xA0 SHL SUB AND PUSH1 0x1 PUSH1 0x1 PUSH1 0xA0 SHL SUB AND PUSH4 0x38AF3EED PUSH1 0x40 MLOAD DUP2 PUSH4 0xFFFFFFFF AND PUSH1 0xE0 SHL DUP2 MSTORE PUSH1 0x4 ADD PUSH1 0x20 PUSH1 0x40 MLOAD DUP1 DUP4 SUB DUP2 DUP7 GAS STATICCALL ISZERO DUP1 ISZERO PUSH2 0x1582 JUMPI RETURNDATASIZE PUSH1 0x0 DUP1 RETURNDATACOPY RETURNDATASIZE PUSH1 0x0 REVERT JUMPDEST POP POP POP POP PUSH1 0x40 MLOAD RETURNDATASIZE PUSH1 0x1F NOT PUSH1 0x1F DUP3 ADD AND DUP3 ADD DUP1 PUSH1 0x40 MSTORE POP DUP2 ADD SWAP1 PUSH2 0x15A6 SWAP2 SWAP1 PUSH2 0x528A JUMP JUMPDEST PUSH1 0x1 PUSH1 0x1 PUSH1 0xA0 SHL SUB AND CALLER PUSH1 0x1 PUSH1 0x1 PUSH1 0xA0 SHL SUB AND EQ PUSH2 0x15D6 JUMPI PUSH1 0x40 MLOAD PUSH3 0x461BCD PUSH1 0xE5 SHL DUP2 MSTORE PUSH1 0x4 ADD PUSH2 0xDCC SWAP1 PUSH2 0x52A7 JUMP JUMPDEST PUSH1 0x2C SLOAD PUSH1 0x0 SWAP1 PUSH1 0x1 PUSH1 0x1 PUSH1 0xA0 SHL SUB AND PUSH4 0xC8100DCC PUSH2 0xED9 PUSH2 0x31EB JUMP JUMPDEST DUP1 PUSH3 0x278D00 EQ DUP1 PUSH2 0x1605 JUMPI POP DUP1 PUSH3 0x76A700 EQ JUMPDEST DUP1 PUSH2 0x1612 JUMPI POP DUP1 PUSH3 0xED4E00 EQ JUMPDEST DUP1 PUSH2 0x1620 JUMPI POP DUP1 PUSH4 0x1E13380 EQ JUMPDEST PUSH2 0x1681 JUMPI PUSH1 0x40 MLOAD PUSH3 0x461BCD PUSH1 0xE5 SHL DUP2 MSTORE PUSH1 0x20 PUSH1 0x4 DUP3 ADD MSTORE PUSH1 0x2C PUSH1 0x24 DUP3 ADD MSTORE PUSH32 0x54616C6178546F6B656E3A205374616B696E67207061636B616765206F707469 PUSH1 0x44 DUP3 ADD MSTORE PUSH12 0x1BDB881B9BDD08195E1A5CDD PUSH1 0xA2 SHL PUSH1 0x64 DUP3 ADD MSTORE PUSH1 0x84 ADD PUSH2 0xDCC JUMP JUMPDEST CALLER PUSH1 0x0 SWAP1 DUP2 MSTORE PUSH1 0xB PUSH1 0x20 MSTORE PUSH1 0x40 SWAP1 KECCAK256 SLOAD DUP3 LT PUSH2 0x16F2 JUMPI PUSH1 0x40 MLOAD PUSH3 0x461BCD PUSH1 0xE5 SHL DUP2 MSTORE PUSH1 0x20 PUSH1 0x4 DUP3 ADD MSTORE PUSH1 0x2A PUSH1 0x24 DUP3 ADD MSTORE PUSH32 0x54616C6178546F6B656E3A2043616E6E6F74207374616B65206D6F7265207468 PUSH1 0x44 DUP3 ADD MSTORE PUSH10 0x30B7103CB7BA9037BBB7 PUSH1 0xB1 SHL PUSH1 0x64 DUP3 ADD MSTORE PUSH1 0x84 ADD PUSH2 0xDCC JUMP JUMPDEST PUSH1 0x0 DUP2 DUP2 MSTORE PUSH1 0xD PUSH1 0x20 MSTORE PUSH1 0x40 SWAP1 KECCAK256 SLOAD PUSH2 0x170E SWAP1 DUP4 SWAP1 DUP4 SWAP1 PUSH2 0x348F JUMP JUMPDEST PUSH2 0x1718 CALLER DUP4 PUSH2 0x362B JUMP JUMPDEST ADDRESS PUSH1 0x0 SWAP1 DUP2 MSTORE PUSH1 0xB PUSH1 0x20 MSTORE PUSH1 0x40 SWAP1 KECCAK256 SLOAD PUSH2 0x1732 SWAP1 DUP4 PUSH2 0xC3E JUMP JUMPDEST POP POP POP JUMP JUMPDEST PUSH1 0x29 PUSH1 0x0 SWAP1 SLOAD SWAP1 PUSH2 0x100 EXP SWAP1 DIV PUSH1 0x1 PUSH1 0x1 PUSH1 0xA0 SHL SUB AND PUSH1 0x1 PUSH1 0x1 PUSH1 0xA0 SHL SUB AND PUSH4 0x38AF3EED PUSH1 0x40 MLOAD DUP2 PUSH4 0xFFFFFFFF AND PUSH1 0xE0 SHL DUP2 MSTORE PUSH1 0x4 ADD PUSH1 0x20 PUSH1 0x40 MLOAD DUP1 DUP4 SUB DUP2 DUP7 GAS STATICCALL ISZERO DUP1 ISZERO PUSH2 0x178A JUMPI RETURNDATASIZE PUSH1 0x0 DUP1 RETURNDATACOPY RETURNDATASIZE PUSH1 0x0 REVERT JUMPDEST POP POP POP POP PUSH1 0x40 MLOAD RETURNDATASIZE PUSH1 0x1F NOT PUSH1 0x1F DUP3 ADD AND DUP3 ADD DUP1 PUSH1 0x40 MSTORE POP DUP2 ADD SWAP1 PUSH2 0x17AE SWAP2 SWAP1 PUSH2 0x528A JUMP JUMPDEST PUSH1 0x1 PUSH1 0x1 PUSH1 0xA0 SHL SUB AND CALLER PUSH1 0x1 PUSH1 0x1 PUSH1 0xA0 SHL SUB AND EQ PUSH2 0x17DE JUMPI PUSH1 0x40 MLOAD PUSH3 0x461BCD PUSH1 0xE5 SHL DUP2 MSTORE PUSH1 0x4 ADD PUSH2 0xDCC SWAP1 PUSH2 0x52A7 JUMP JUMPDEST PUSH1 0x29 SLOAD PUSH1 0x0 SWAP1 PUSH1 0x1 PUSH1 0x1 PUSH1 0xA0 SHL SUB AND PUSH4 0xC8100DCC PUSH2 0xED9 PUSH2 0x283A JUMP JUMPDEST PUSH1 0x28 PUSH1 0x0 SWAP1 SLOAD SWAP1 PUSH2 0x100 EXP SWAP1 DIV PUSH1 0x1 PUSH1 0x1 PUSH1 0xA0 SHL SUB AND PUSH1 0x1 PUSH1 0x1 PUSH1 0xA0 SHL SUB AND PUSH4 0x38AF3EED PUSH1 0x40 MLOAD DUP2 PUSH4 0xFFFFFFFF AND PUSH1 0xE0 SHL DUP2 MSTORE PUSH1 0x4 ADD PUSH1 0x20 PUSH1 0x40 MLOAD DUP1 DUP4 SUB DUP2 DUP7 GAS STATICCALL ISZERO DUP1 ISZERO PUSH2 0x184D JUMPI RETURNDATASIZE PUSH1 0x0 DUP1 RETURNDATACOPY RETURNDATASIZE PUSH1 0x0 REVERT JUMPDEST POP POP POP POP PUSH1 0x40 MLOAD RETURNDATASIZE PUSH1 0x1F NOT PUSH1 0x1F DUP3 ADD AND DUP3 ADD DUP1 PUSH1 0x40 MSTORE POP DUP2 ADD SWAP1 PUSH2 0x1871 SWAP2 SWAP1 PUSH2 0x528A JUMP JUMPDEST PUSH1 0x1 PUSH1 0x1 PUSH1 0xA0 SHL SUB AND CALLER PUSH1 0x1 PUSH1 0x1 PUSH1 0xA0 SHL SUB AND EQ PUSH2 0x18A1 JUMPI PUSH1 0x40 MLOAD PUSH3 0x461BCD PUSH1 0xE5 SHL DUP2 MSTORE PUSH1 0x4 ADD PUSH2 0xDCC SWAP1 PUSH2 0x52A7 JUMP JUMPDEST PUSH1 0x28 SLOAD PUSH1 0x0 SWAP1 PUSH1 0x1 PUSH1 0x1 PUSH1 0xA0 SHL SUB AND PUSH4 0xC8100DCC PUSH2 0xED9 PUSH2 0x373C JUMP JUMPDEST PUSH1 0x2B PUSH1 0x0 SWAP1 SLOAD SWAP1 PUSH2 0x100 EXP SWAP1 DIV PUSH1 0x1 PUSH1 0x1 PUSH1 0xA0 SHL SUB AND PUSH1 0x1 PUSH1 0x1 PUSH1 0xA0 SHL SUB AND PUSH4 0x38AF3EED PUSH1 0x40 MLOAD DUP2 PUSH4 0xFFFFFFFF AND PUSH1 0xE0 SHL DUP2 MSTORE PUSH1 0x4 ADD PUSH1 0x20 PUSH1 0x40 MLOAD DUP1 DUP4 SUB DUP2 DUP7 GAS STATICCALL ISZERO DUP1 ISZERO PUSH2 0x1910 JUMPI RETURNDATASIZE PUSH1 0x0 DUP1 RETURNDATACOPY RETURNDATASIZE PUSH1 0x0 REVERT JUMPDEST POP POP POP POP PUSH1 0x40 MLOAD RETURNDATASIZE PUSH1 0x1F NOT PUSH1 0x1F DUP3 ADD AND DUP3 ADD DUP1 PUSH1 0x40 MSTORE POP DUP2 ADD SWAP1 PUSH2 0x1934 SWAP2 SWAP1 PUSH2 0x528A JUMP JUMPDEST PUSH1 0x1 PUSH1 0x1 PUSH1 0xA0 SHL SUB AND CALLER PUSH1 0x1 PUSH1 0x1 PUSH1 0xA0 SHL SUB AND EQ PUSH2 0x1964 JUMPI PUSH1 0x40 MLOAD PUSH3 0x461BCD PUSH1 0xE5 SHL DUP2 MSTORE PUSH1 0x4 ADD PUSH2 0xDCC SWAP1 PUSH2 0x52A7 JUMP JUMPDEST PUSH1 0x2B SLOAD PUSH1 0x0 SWAP1 PUSH1 0x1 PUSH1 0x1 PUSH1 0xA0 SHL SUB AND PUSH4 0xC8100DCC PUSH2 0xED9 PUSH2 0x3AFE JUMP JUMPDEST PUSH1 0x1 SLOAD PUSH2 0x198C SWAP1 PUSH2 0x2484 JUMP JUMPDEST ISZERO PUSH2 0xE13 JUMPI PUSH1 0x3 SLOAD PUSH1 0x1 PUSH1 0x1 PUSH1 0xA0 SHL SUB AND ISZERO DUP1 ISZERO PUSH2 0x19BD JUMPI PUSH1 0x3 DUP1 SLOAD PUSH1 0x1 PUSH1 0x1 PUSH1 0xA0 SHL SUB NOT AND CALLER OR SWAP1 SSTORE PUSH1 0x1 SLOAD PUSH1 0x4 SSTORE JUMPDEST PUSH1 0xE DUP1 SLOAD PUSH2 0xFFFF NOT AND PUSH2 0xFFFF DUP5 AND SWAP1 DUP2 OR SWAP1 SWAP2 SSTORE PUSH1 0x40 MLOAD SWAP1 DUP2 MSTORE CALLER SWAP1 PUSH32 0xDF92943B31FFF67E8447FF9FA8B5E226DDCC5FB34D36CFE120C0F2B96EB8D6F7 SWAP1 PUSH1 0x20 ADD PUSH1 0x40 MLOAD DUP1 SWAP2 SUB SWAP1 LOG2 DUP1 ISZERO PUSH2 0xE11 JUMPI PUSH1 0x3 DUP1 SLOAD PUSH1 0x1 PUSH1 0x1 PUSH1 0xA0 SHL SUB NOT AND SWAP1 SSTORE PUSH1 0x0 PUSH1 0x4 SSTORE POP POP JUMP JUMPDEST PUSH1 0x60 PUSH2 0x1A2F PUSH2 0xF68 JUMP JUMPDEST SWAP1 POP SWAP1 JUMP JUMPDEST PUSH1 0x2D PUSH1 0x0 SWAP1 SLOAD SWAP1 PUSH2 0x100 EXP SWAP1 DIV PUSH1 0x1 PUSH1 0x1 PUSH1 0xA0 SHL SUB AND PUSH1 0x1 PUSH1 0x1 PUSH1 0xA0 SHL SUB AND PUSH4 0x38AF3EED PUSH1 0x40 MLOAD DUP2 PUSH4 0xFFFFFFFF AND PUSH1 0xE0 SHL DUP2 MSTORE PUSH1 0x4 ADD PUSH1 0x20 PUSH1 0x40 MLOAD DUP1 DUP4 SUB DUP2 DUP7 GAS STATICCALL ISZERO DUP1 ISZERO PUSH2 0x1A87 JUMPI RETURNDATASIZE PUSH1 0x0 DUP1 RETURNDATACOPY RETURNDATASIZE PUSH1 0x0 REVERT JUMPDEST POP POP POP POP PUSH1 0x40 MLOAD RETURNDATASIZE PUSH1 0x1F NOT PUSH1 0x1F DUP3 ADD AND DUP3 ADD DUP1 PUSH1 0x40 MSTORE POP DUP2 ADD SWAP1 PUSH2 0x1AAB SWAP2 SWAP1 PUSH2 0x528A JUMP JUMPDEST PUSH1 0x1 PUSH1 0x1 PUSH1 0xA0 SHL SUB AND CALLER PUSH1 0x1 PUSH1 0x1 PUSH1 0xA0 SHL SUB AND EQ PUSH2 0x1ADB JUMPI PUSH1 0x40 MLOAD PUSH3 0x461BCD PUSH1 0xE5 SHL DUP2 MSTORE PUSH1 0x4 ADD PUSH2 0xDCC SWAP1 PUSH2 0x52A7 JUMP JUMPDEST PUSH1 0x2D SLOAD PUSH1 0x0 SWAP1 PUSH1 0x1 PUSH1 0x1 PUSH1 0xA0 SHL SUB AND PUSH4 0xC8100DCC PUSH2 0xED9 PUSH2 0x31EB JUMP JUMPDEST PUSH1 0x25 PUSH1 0x0 SWAP1 SLOAD SWAP1 PUSH2 0x100 EXP SWAP1 DIV PUSH1 0x1 PUSH1 0x1 PUSH1 0xA0 SHL SUB AND PUSH1 0x1 PUSH1 0x1 PUSH1 0xA0 SHL SUB AND PUSH4 0x38AF3EED PUSH1 0x40 MLOAD DUP2 PUSH4 0xFFFFFFFF AND PUSH1 0xE0 SHL DUP2 MSTORE PUSH1 0x4 ADD PUSH1 0x20 PUSH1 0x40 MLOAD DUP1 DUP4 SUB DUP2 DUP7 GAS STATICCALL ISZERO DUP1 ISZERO PUSH2 0x1B4A JUMPI RETURNDATASIZE PUSH1 0x0 DUP1 RETURNDATACOPY RETURNDATASIZE PUSH1 0x0 REVERT JUMPDEST POP POP POP POP PUSH1 0x40 MLOAD RETURNDATASIZE PUSH1 0x1F NOT PUSH1 0x1F DUP3 ADD AND DUP3 ADD DUP1 PUSH1 0x40 MSTORE POP DUP2 ADD SWAP1 PUSH2 0x1B6E SWAP2 SWAP1 PUSH2 0x528A JUMP JUMPDEST PUSH1 0x1B SLOAD PUSH1 0x1 PUSH1 0x1 PUSH1 0xA0 SHL SUB SWAP1 DUP2 AND SWAP2 AND EQ PUSH2 0x1B9B JUMPI PUSH1 0x40 MLOAD PUSH3 0x461BCD PUSH1 0xE5 SHL DUP2 MSTORE PUSH1 0x4 ADD PUSH2 0xDCC SWAP1 PUSH2 0x52A7 JUMP JUMPDEST PUSH1 0x25 SLOAD PUSH1 0x0 SWAP1 PUSH1 0x1 PUSH1 0x1 PUSH1 0xA0 SHL SUB AND PUSH4 0xC8100DCC PUSH2 0xED9 PUSH2 0x3EC0 JUMP JUMPDEST PUSH1 0x60 PUSH1 0x11 DUP1 SLOAD PUSH2 0xC83 SWAP1 PUSH2 0x524F JUMP JUMPDEST PUSH1 0x1 SLOAD PUSH2 0x1BD2 SWAP1 PUSH2 0x2484 JUMP JUMPDEST ISZERO PUSH2 0xE13 JUMPI PUSH1 0x3 SLOAD PUSH1 0x1 PUSH1 0x1 PUSH1 0xA0 SHL SUB AND ISZERO DUP1 ISZERO PUSH2 0x1C03 JUMPI PUSH1 0x3 DUP1 SLOAD PUSH1 0x1 PUSH1 0x1 PUSH1 0xA0 SHL SUB NOT AND CALLER OR SWAP1 SSTORE PUSH1 0x1 SLOAD PUSH1 0x4 SSTORE JUMPDEST DUP2 PUSH2 0x1C4A JUMPI PUSH1 0x40 MLOAD PUSH3 0x461BCD PUSH1 0xE5 SHL DUP2 MSTORE PUSH1 0x20 PUSH1 0x4 DUP3 ADD MSTORE PUSH1 0x17 PUSH1 0x24 DUP3 ADD MSTORE PUSH23 0x416D6F756E74206D696E742063616E6E6F74206265203 PUSH1 0x4C SHL PUSH1 0x44 DUP3 ADD MSTORE PUSH1 0x64 ADD PUSH2 0xDCC JUMP JUMPDEST PUSH1 0x13 SLOAD PUSH2 0x1C57 SWAP1 DUP4 PUSH2 0xC3E JUMP JUMPDEST PUSH1 0x13 SSTORE PUSH1 0xF SLOAD PUSH2 0xDF2 SWAP1 DUP4 PUSH2 0xC3E JUMP JUMPDEST PUSH1 0x0 PUSH2 0xD13 CALLER DUP5 PUSH2 0x13C3 DUP6 PUSH1 0x40 MLOAD DUP1 PUSH1 0x60 ADD PUSH1 0x40 MSTORE DUP1 PUSH1 0x2A DUP2 MSTORE PUSH1 0x20 ADD PUSH2 0x55E2 PUSH1 0x2A SWAP2 CODECOPY CALLER PUSH1 0x0 SWAP1 DUP2 MSTORE PUSH1 0xC PUSH1 0x20 SWAP1 DUP2 MSTORE PUSH1 0x40 DUP1 DUP4 KECCAK256 PUSH1 0x1 PUSH1 0x1 PUSH1 0xA0 SHL SUB DUP14 AND DUP5 MSTORE SWAP1 SWAP2 MSTORE SWAP1 KECCAK256 SLOAD SWAP2 SWAP1 PUSH2 0x2329 JUMP JUMPDEST PUSH1 0x0 PUSH2 0xD13 CALLER DUP5 DUP5 PUSH2 0x2C03 JUMP JUMPDEST PUSH1 0x40 DUP1 MLOAD DUP1 DUP3 ADD SWAP1 SWAP2 MSTORE PUSH1 0x0 DUP2 MSTORE PUSH1 0x60 PUSH1 0x20 DUP3 ADD MSTORE PUSH1 0x0 PUSH1 0x40 MLOAD DUP1 PUSH1 0x40 ADD PUSH1 0x40 MSTORE DUP1 PUSH1 0x0 DUP2 MSTORE PUSH1 0x20 ADD PUSH1 0x9 PUSH1 0xA PUSH1 0x0 DUP8 PUSH1 0x1 PUSH1 0x1 PUSH1 0xA0 SHL SUB AND PUSH1 0x1 PUSH1 0x1 PUSH1 0xA0 SHL SUB AND DUP2 MSTORE PUSH1 0x20 ADD SWAP1 DUP2 MSTORE PUSH1 0x20 ADD PUSH1 0x0 KECCAK256 SLOAD DUP2 SLOAD DUP2 LT PUSH2 0x1D24 JUMPI PUSH2 0x1D24 PUSH2 0x5344 JUMP JUMPDEST SWAP1 PUSH1 0x0 MSTORE PUSH1 0x20 PUSH1 0x0 KECCAK256 SWAP1 PUSH1 0x2 MUL ADD PUSH1 0x1 ADD DUP1 SLOAD DUP1 PUSH1 0x20 MUL PUSH1 0x20 ADD PUSH1 0x40 MLOAD SWAP1 DUP2 ADD PUSH1 0x40 MSTORE DUP1 SWAP3 SWAP2 SWAP1 DUP2 DUP2 MSTORE PUSH1 0x20 ADD PUSH1 0x0 SWAP1 JUMPDEST DUP3 DUP3 LT ISZERO PUSH2 0x1DC6 JUMPI PUSH1 0x0 DUP5 DUP2 MSTORE PUSH1 0x20 SWAP1 DUP2 SWAP1 KECCAK256 PUSH1 0x40 DUP1 MLOAD PUSH1 0xC0 DUP2 ADD DUP3 MSTORE PUSH1 0x6 DUP7 MUL SWAP1 SWAP3 ADD DUP1 SLOAD PUSH1 0x1 PUSH1 0x1 PUSH1 0xA0 SHL SUB AND DUP4 MSTORE PUSH1 0x1 DUP1 DUP3 ADD SLOAD DUP5 DUP7 ADD MSTORE PUSH1 0x2 DUP3 ADD SLOAD SWAP3 DUP5 ADD SWAP3 SWAP1 SWAP3 MSTORE PUSH1 0x3 DUP2 ADD SLOAD PUSH1 0x60 DUP5 ADD MSTORE PUSH1 0x4 DUP2 ADD SLOAD PUSH1 0x80 DUP5 ADD MSTORE PUSH1 0x5 ADD SLOAD PUSH1 0xA0 DUP4 ADD MSTORE SWAP1 DUP4 MSTORE SWAP1 SWAP3 ADD SWAP2 ADD PUSH2 0x1D55 JUMP JUMPDEST POP POP POP SWAP2 MSTORE POP SWAP4 SWAP3 POP POP POP JUMP JUMPDEST PUSH1 0x26 PUSH1 0x0 SWAP1 SLOAD SWAP1 PUSH2 0x100 EXP SWAP1 DIV PUSH1 0x1 PUSH1 0x1 PUSH1 0xA0 SHL SUB AND PUSH1 0x1 PUSH1 0x1 PUSH1 0xA0 SHL SUB AND PUSH4 0x38AF3EED PUSH1 0x40 MLOAD DUP2 PUSH4 0xFFFFFFFF AND PUSH1 0xE0 SHL DUP2 MSTORE PUSH1 0x4 ADD PUSH1 0x20 PUSH1 0x40 MLOAD DUP1 DUP4 SUB DUP2 DUP7 GAS STATICCALL ISZERO DUP1 ISZERO PUSH2 0x1E26 JUMPI RETURNDATASIZE PUSH1 0x0 DUP1 RETURNDATACOPY RETURNDATASIZE PUSH1 0x0 REVERT JUMPDEST POP POP POP POP PUSH1 0x40 MLOAD RETURNDATASIZE PUSH1 0x1F NOT PUSH1 0x1F DUP3 ADD AND DUP3 ADD DUP1 PUSH1 0x40 MSTORE POP DUP2 ADD SWAP1 PUSH2 0x1E4A SWAP2 SWAP1 PUSH2 0x528A JUMP JUMPDEST PUSH1 0x1 PUSH1 0x1 PUSH1 0xA0 SHL SUB AND CALLER PUSH1 0x1 PUSH1 0x1 PUSH1 0xA0 SHL SUB AND EQ PUSH2 0x1E7A JUMPI PUSH1 0x40 MLOAD PUSH3 0x461BCD PUSH1 0xE5 SHL DUP2 MSTORE PUSH1 0x4 ADD PUSH2 0xDCC SWAP1 PUSH2 0x52A7 JUMP JUMPDEST PUSH1 0x26 SLOAD PUSH1 0x0 SWAP1 PUSH1 0x1 PUSH1 0x1 PUSH1 0xA0 SHL SUB AND PUSH4 0xC8100DCC PUSH2 0xED9 PUSH2 0x4100 JUMP JUMPDEST PUSH1 0x40 MLOAD PUSH4 0x70A08231 PUSH1 0xE0 SHL DUP2 MSTORE ADDRESS PUSH1 0x4 DUP3 ADD DUP2 SWAP1 MSTORE PUSH1 0x0 SWAP2 PUSH4 0x70A08231 SWAP1 PUSH1 0x24 ADD PUSH1 0x20 PUSH1 0x40 MLOAD DUP1 DUP4 SUB DUP2 DUP7 GAS STATICCALL ISZERO DUP1 ISZERO PUSH2 0x1ED4 JUMPI RETURNDATASIZE PUSH1 0x0 DUP1 RETURNDATACOPY RETURNDATASIZE PUSH1 0x0 REVERT JUMPDEST POP POP POP POP PUSH1 0x40 MLOAD RETURNDATASIZE PUSH1 0x1F NOT PUSH1 0x1F DUP3 ADD AND DUP3 ADD DUP1 PUSH1 0x40 MSTORE POP DUP2 ADD SWAP1 PUSH2 0x1A2F SWAP2 SWAP1 PUSH2 0x532B JUMP JUMPDEST PUSH1 0x1 SLOAD PUSH2 0x1F04 SWAP1 PUSH2 0x2484 JUMP JUMPDEST ISZERO PUSH2 0xE13 JUMPI PUSH1 0x3 SLOAD PUSH1 0x1 PUSH1 0x1 PUSH1 0xA0 SHL SUB AND ISZERO DUP1 ISZERO PUSH2 0x1F35 JUMPI PUSH1 0x3 DUP1 SLOAD PUSH1 0x1 PUSH1 0x1 PUSH1 0xA0 SHL SUB NOT AND CALLER OR SWAP1 SSTORE PUSH1 0x1 SLOAD PUSH1 0x4 SSTORE JUMPDEST PUSH2 0x1F3E DUP3 PUSH2 0x44C2 JUMP JUMPDEST DUP1 ISZERO PUSH2 0xE11 JUMPI PUSH1 0x3 DUP1 SLOAD PUSH1 0x1 PUSH1 0x1 PUSH1 0xA0 SHL SUB NOT AND SWAP1 SSTORE PUSH1 0x0 PUSH1 0x4 SSTORE POP POP JUMP JUMPDEST PUSH1 0x40 DUP1 MLOAD DUP1 DUP3 ADD SWAP1 SWAP2 MSTORE PUSH1 0x0 DUP2 MSTORE PUSH1 0x60 PUSH1 0x20 DUP3 ADD MSTORE PUSH1 0x0 DUP1 PUSH1 0x40 MLOAD DUP1 PUSH1 0x40 ADD PUSH1 0x40 MSTORE DUP1 PUSH1 0x0 DUP2 MSTORE PUSH1 0x20 ADD PUSH1 0x9 PUSH1 0xA PUSH1 0x0 DUP9 PUSH1 0x1 PUSH1 0x1 PUSH1 0xA0 SHL SUB AND PUSH1 0x1 PUSH1 0x1 PUSH1 0xA0 SHL SUB AND DUP2 MSTORE PUSH1 0x20 ADD SWAP1 DUP2 MSTORE PUSH1 0x20 ADD PUSH1 0x0 KECCAK256 SLOAD DUP2 SLOAD DUP2 LT PUSH2 0x1FBF JUMPI PUSH2 0x1FBF PUSH2 0x5344 JUMP JUMPDEST SWAP1 PUSH1 0x0 MSTORE PUSH1 0x20 PUSH1 0x0 KECCAK256 SWAP1 PUSH1 0x2 MUL ADD PUSH1 0x1 ADD DUP1 SLOAD DUP1 PUSH1 0x20 MUL PUSH1 0x20 ADD PUSH1 0x40 MLOAD SWAP1 DUP2 ADD PUSH1 0x40 MSTORE DUP1 SWAP3 SWAP2 SWAP1 DUP2 DUP2 MSTORE PUSH1 0x20 ADD PUSH1 0x0 SWAP1 JUMPDEST DUP3 DUP3 LT ISZERO PUSH2 0x2061 JUMPI PUSH1 0x0 DUP5 DUP2 MSTORE PUSH1 0x20 SWAP1 DUP2 SWAP1 KECCAK256 PUSH1 0x40 DUP1 MLOAD PUSH1 0xC0 DUP2 ADD DUP3 MSTORE PUSH1 0x6 DUP7 MUL SWAP1 SWAP3 ADD DUP1 SLOAD PUSH1 0x1 PUSH1 0x1 PUSH1 0xA0 SHL SUB AND DUP4 MSTORE PUSH1 0x1 DUP1 DUP3 ADD SLOAD DUP5 DUP7 ADD MSTORE PUSH1 0x2 DUP3 ADD SLOAD SWAP3 DUP5 ADD SWAP3 SWAP1 SWAP3 MSTORE PUSH1 0x3 DUP2 ADD SLOAD PUSH1 0x60 DUP5 ADD MSTORE PUSH1 0x4 DUP2 ADD SLOAD PUSH1 0x80 DUP5 ADD MSTORE PUSH1 0x5 ADD SLOAD PUSH1 0xA0 DUP4 ADD MSTORE SWAP1 DUP4 MSTORE SWAP1 SWAP3 ADD SWAP2 ADD PUSH2 0x1FF0 JUMP JUMPDEST POP POP POP SWAP2 MSTORE POP PUSH1 0x20 DUP2 ADD MLOAD MLOAD SWAP1 SWAP2 POP PUSH2 0x20D4 JUMPI PUSH1 0x40 MLOAD PUSH3 0x461BCD PUSH1 0xE5 SHL DUP2 MSTORE PUSH1 0x20 PUSH1 0x4 DUP3 ADD MSTORE PUSH1 0x2F PUSH1 0x24 DUP3 ADD MSTORE PUSH32 0x5374616B61626C653A2054686973206164647265737320646F6573206E6F7420 PUSH1 0x44 DUP3 ADD MSTORE PUSH15 0x6861766520616E79207374616B6573 PUSH1 0x88 SHL PUSH1 0x64 DUP3 ADD MSTORE PUSH1 0x84 ADD PUSH2 0xDCC JUMP JUMPDEST PUSH1 0x0 JUMPDEST DUP2 PUSH1 0x20 ADD MLOAD MLOAD DUP2 LT ISZERO PUSH2 0x219A JUMPI PUSH1 0x0 PUSH2 0x212E DUP4 PUSH1 0x20 ADD MLOAD DUP4 DUP2 MLOAD DUP2 LT PUSH2 0x20FF JUMPI PUSH2 0x20FF PUSH2 0x5344 JUMP JUMPDEST PUSH1 0x20 MUL PUSH1 0x20 ADD ADD MLOAD DUP5 PUSH1 0x20 ADD MLOAD DUP5 DUP2 MLOAD DUP2 LT PUSH2 0x211D JUMPI PUSH2 0x211D PUSH2 0x5344 JUMP JUMPDEST PUSH1 0x20 MUL PUSH1 0x20 ADD ADD MLOAD PUSH1 0x20 ADD MLOAD PUSH2 0x457D JUMP JUMPDEST SWAP1 POP DUP1 DUP4 PUSH1 0x20 ADD MLOAD DUP4 DUP2 MLOAD DUP2 LT PUSH2 0x2147 JUMPI PUSH2 0x2147 PUSH2 0x5344 JUMP JUMPDEST PUSH1 0x20 MUL PUSH1 0x20 ADD ADD MLOAD PUSH1 0x60 ADD DUP2 DUP2 MSTORE POP POP DUP3 PUSH1 0x20 ADD MLOAD DUP3 DUP2 MLOAD DUP2 LT PUSH2 0x216D JUMPI PUSH2 0x216D PUSH2 0x5344 JUMP JUMPDEST PUSH1 0x20 MUL PUSH1 0x20 ADD ADD MLOAD PUSH1 0x20 ADD MLOAD DUP5 PUSH2 0x2184 SWAP2 SWAP1 PUSH2 0x5237 JUMP JUMPDEST SWAP4 POP PUSH2 0x2193 SWAP1 POP PUSH1 0x1 DUP3 PUSH2 0x5237 JUMP JUMPDEST SWAP1 POP PUSH2 0x20D7 JUMP JUMPDEST POP SWAP1 DUP2 MSTORE SWAP3 SWAP2 POP POP JUMP JUMPDEST PUSH1 0x27 PUSH1 0x0 SWAP1 SLOAD SWAP1 PUSH2 0x100 EXP SWAP1 DIV PUSH1 0x1 PUSH1 0x1 PUSH1 0xA0 SHL SUB AND PUSH1 0x1 PUSH1 0x1 PUSH1 0xA0 SHL SUB AND PUSH4 0x38AF3EED PUSH1 0x40 MLOAD DUP2 PUSH4 0xFFFFFFFF AND PUSH1 0xE0 SHL DUP2 MSTORE PUSH1 0x4 ADD PUSH1 0x20 PUSH1 0x40 MLOAD DUP1 DUP4 SUB DUP2 DUP7 GAS STATICCALL ISZERO DUP1 ISZERO PUSH2 0x21F7 JUMPI RETURNDATASIZE PUSH1 0x0 DUP1 RETURNDATACOPY RETURNDATASIZE PUSH1 0x0 REVERT JUMPDEST POP POP POP POP PUSH1 0x40 MLOAD RETURNDATASIZE PUSH1 0x1F NOT PUSH1 0x1F DUP3 ADD AND DUP3 ADD DUP1 PUSH1 0x40 MSTORE POP DUP2 ADD SWAP1 PUSH2 0x221B SWAP2 SWAP1 PUSH2 0x528A JUMP JUMPDEST PUSH1 0x1 PUSH1 0x1 PUSH1 0xA0 SHL SUB AND CALLER PUSH1 0x1 PUSH1 0x1 PUSH1 0xA0 SHL SUB AND EQ PUSH2 0x224B JUMPI PUSH1 0x40 MLOAD PUSH3 0x461BCD PUSH1 0xE5 SHL DUP2 MSTORE PUSH1 0x4 ADD PUSH2 0xDCC SWAP1 PUSH2 0x52A7 JUMP JUMPDEST PUSH1 0x27 SLOAD PUSH1 0x0 SWAP1 PUSH1 0x1 PUSH1 0x1 PUSH1 0xA0 SHL SUB AND PUSH4 0xC8100DCC PUSH2 0xED9 PUSH2 0x4100 JUMP JUMPDEST PUSH1 0x0 DUP1 PUSH2 0x2274 DUP5 DUP5 PUSH2 0x45D0 JUMP JUMPDEST SWAP2 POP SWAP2 POP PUSH2 0x2281 DUP2 PUSH2 0x44C2 JUMP JUMPDEST ADDRESS PUSH1 0x0 SWAP1 DUP2 MSTORE PUSH1 0xB PUSH1 0x20 MSTORE PUSH1 0x40 SWAP1 KECCAK256 SLOAD PUSH2 0x229B SWAP1 DUP4 PUSH2 0x282E JUMP JUMPDEST POP ADDRESS PUSH1 0x0 SWAP1 DUP2 MSTORE PUSH1 0xB PUSH1 0x20 MSTORE PUSH1 0x40 SWAP1 KECCAK256 SLOAD PUSH2 0x22B6 SWAP1 DUP3 PUSH2 0x282E JUMP JUMPDEST POP PUSH2 0x22CB CALLER JUMPDEST PUSH2 0x22C6 DUP4 DUP6 PUSH2 0x5237 JUMP JUMPDEST PUSH2 0x48BE JUMP JUMPDEST POP POP POP POP JUMP JUMPDEST PUSH1 0x0 DUP1 PUSH2 0x22DD DUP4 PUSH2 0x49A4 JUMP JUMPDEST SWAP2 POP SWAP2 POP PUSH2 0x22EA DUP2 PUSH2 0x44C2 JUMP JUMPDEST ADDRESS PUSH1 0x0 SWAP1 DUP2 MSTORE PUSH1 0xB PUSH1 0x20 MSTORE PUSH1 0x40 SWAP1 KECCAK256 SLOAD PUSH2 0x2304 SWAP1 DUP4 PUSH2 0x282E JUMP JUMPDEST POP ADDRESS PUSH1 0x0 SWAP1 DUP2 MSTORE PUSH1 0xB PUSH1 0x20 MSTORE PUSH1 0x40 SWAP1 KECCAK256 SLOAD PUSH2 0x231F SWAP1 DUP3 PUSH2 0x282E JUMP JUMPDEST POP PUSH2 0x1732 CALLER PUSH2 0x22BC JUMP JUMPDEST PUSH1 0x0 DUP2 DUP5 DUP5 GT ISZERO PUSH2 0x234D JUMPI PUSH1 0x40 MLOAD PUSH3 0x461BCD PUSH1 0xE5 SHL DUP2 MSTORE PUSH1 0x4 ADD PUSH2 0xDCC SWAP2 SWAP1 PUSH2 0x4E72 JUMP JUMPDEST POP POP POP SWAP1 SUB SWAP1 JUMP JUMPDEST PUSH1 0x1 PUSH1 0x1 PUSH1 0xA0 SHL SUB DUP4 AND PUSH2 0x23BD JUMPI PUSH1 0x40 MLOAD PUSH3 0x461BCD PUSH1 0xE5 SHL DUP2 MSTORE PUSH1 0x20 PUSH1 0x4 DUP3 ADD MSTORE PUSH1 0x29 PUSH1 0x24 DUP3 ADD MSTORE PUSH32 0x54616C6178546F6B656E3A20617070726F76652066726F6D20746865207A6572 PUSH1 0x44 DUP3 ADD MSTORE PUSH9 0x6F2061646472657373 PUSH1 0xB8 SHL PUSH1 0x64 DUP3 ADD MSTORE PUSH1 0x84 ADD PUSH2 0xDCC JUMP JUMPDEST PUSH1 0x1 PUSH1 0x1 PUSH1 0xA0 SHL SUB DUP3 AND PUSH2 0x2423 JUMPI PUSH1 0x40 MLOAD PUSH3 0x461BCD PUSH1 0xE5 SHL DUP2 MSTORE PUSH1 0x20 PUSH1 0x4 DUP3 ADD MSTORE PUSH1 0x27 PUSH1 0x24 DUP3 ADD MSTORE PUSH32 0x54616C6178546F6B656E3A20617070726F766520746F20746865207A65726F20 PUSH1 0x44 DUP3 ADD MSTORE PUSH7 0x61646472657373 PUSH1 0xC8 SHL PUSH1 0x64 DUP3 ADD MSTORE PUSH1 0x84 ADD PUSH2 0xDCC JUMP JUMPDEST PUSH1 0x1 PUSH1 0x1 PUSH1 0xA0 SHL SUB DUP4 DUP2 AND PUSH1 0x0 DUP2 DUP2 MSTORE PUSH1 0xC PUSH1 0x20 SWAP1 DUP2 MSTORE PUSH1 0x40 DUP1 DUP4 KECCAK256 SWAP5 DUP8 AND DUP1 DUP5 MSTORE SWAP5 DUP3 MSTORE SWAP2 DUP3 SWAP1 KECCAK256 DUP6 SWAP1 SSTORE SWAP1 MLOAD DUP5 DUP2 MSTORE PUSH32 0x8C5BE1E5EBEC7D5BD14F71427D1E84F3DD0314C0F7B2291E5B200AC8C7C3B925 SWAP2 ADD PUSH1 0x40 MLOAD DUP1 SWAP2 SUB SWAP1 LOG3 POP POP POP JUMP JUMPDEST PUSH1 0x3 SLOAD PUSH1 0x0 SWAP1 PUSH1 0x1 PUSH1 0x1 PUSH1 0xA0 SHL SUB AND CALLER EQ ISZERO PUSH2 0x2528 JUMPI PUSH1 0x4 SLOAD DUP3 GT ISZERO PUSH2 0x2520 JUMPI PUSH1 0x40 MLOAD PUSH3 0x461BCD PUSH1 0xE5 SHL DUP2 MSTORE PUSH1 0x20 PUSH1 0x4 DUP3 ADD MSTORE PUSH1 0x44 PUSH1 0x24 DUP3 ADD DUP2 SWAP1 MSTORE PUSH32 0x636865636B486F774D616E794F776E6572733A206E6573746564206F776E6572 SWAP1 DUP3 ADD MSTORE PUSH32 0x73206D6F64696669657220636865636B2072657175697265206D6F7265206F77 PUSH1 0x64 DUP3 ADD MSTORE PUSH4 0x6E657273 PUSH1 0xE0 SHL PUSH1 0x84 DUP3 ADD MSTORE PUSH1 0xA4 ADD PUSH2 0xDCC JUMP JUMPDEST POP PUSH1 0x1 SWAP2 SWAP1 POP JUMP JUMPDEST CALLER PUSH1 0x0 SWAP1 DUP2 MSTORE PUSH1 0x5 PUSH1 0x20 MSTORE PUSH1 0x40 SWAP1 KECCAK256 SLOAD ISZERO ISZERO PUSH1 0x1 EQ PUSH2 0x25A0 JUMPI PUSH1 0x40 MLOAD PUSH3 0x461BCD PUSH1 0xE5 SHL DUP2 MSTORE PUSH1 0x20 PUSH1 0x4 DUP3 ADD MSTORE PUSH1 0x2E PUSH1 0x24 DUP3 ADD MSTORE PUSH32 0x636865636B486F774D616E794F776E6572733A206D73672E73656E6465722069 PUSH1 0x44 DUP3 ADD MSTORE PUSH14 0x39903737BA1030B71037BBB732B9 PUSH1 0x91 SHL PUSH1 0x64 DUP3 ADD MSTORE PUSH1 0x84 ADD PUSH2 0xDCC JUMP JUMPDEST CALLER PUSH1 0x0 SWAP1 DUP2 MSTORE PUSH1 0x5 PUSH1 0x20 MSTORE PUSH1 0x40 DUP2 KECCAK256 SLOAD PUSH2 0x25BC SWAP1 PUSH1 0x1 SWAP1 PUSH2 0x53DD JUMP JUMPDEST SWAP1 POP PUSH1 0x0 DUP1 CALLDATASIZE PUSH1 0x0 SLOAD PUSH1 0x40 MLOAD PUSH1 0x20 ADD PUSH2 0x25D7 SWAP4 SWAP3 SWAP2 SWAP1 PUSH2 0x53F4 JUMP JUMPDEST PUSH1 0x40 MLOAD PUSH1 0x20 DUP2 DUP4 SUB SUB DUP2 MSTORE SWAP1 PUSH1 0x40 MSTORE DUP1 MLOAD SWAP1 PUSH1 0x20 ADD KECCAK256 SWAP1 POP DUP2 PUSH1 0x2 PUSH2 0x25FC SWAP2 SWAP1 PUSH2 0x54EA JUMP JUMPDEST PUSH1 0x0 DUP3 DUP2 MSTORE PUSH1 0x7 PUSH1 0x20 MSTORE PUSH1 0x40 SWAP1 KECCAK256 SLOAD AND ISZERO PUSH2 0x267F JUMPI PUSH1 0x40 MLOAD PUSH3 0x461BCD PUSH1 0xE5 SHL DUP2 MSTORE PUSH1 0x20 PUSH1 0x4 DUP3 ADD MSTORE PUSH1 0x39 PUSH1 0x24 DUP3 ADD MSTORE PUSH32 0x636865636B486F774D616E794F776E6572733A206F776E657220616C72656164 PUSH1 0x44 DUP3 ADD MSTORE PUSH32 0x7920766F74656420666F7220746865206F7065726174696F6E00000000000000 PUSH1 0x64 DUP3 ADD MSTORE PUSH1 0x84 ADD PUSH2 0xDCC JUMP JUMPDEST PUSH2 0x268A DUP3 PUSH1 0x2 PUSH2 0x54EA JUMP JUMPDEST PUSH1 0x0 DUP3 DUP2 MSTORE PUSH1 0x7 PUSH1 0x20 SWAP1 DUP2 MSTORE PUSH1 0x40 DUP1 DUP4 KECCAK256 DUP1 SLOAD SWAP1 SWAP5 OR SWAP1 SWAP4 SSTORE PUSH1 0x8 SWAP1 MSTORE SWAP1 DUP2 KECCAK256 SLOAD PUSH2 0x26B6 SWAP1 PUSH1 0x1 PUSH2 0x5237 JUMP JUMPDEST PUSH1 0x0 DUP4 DUP2 MSTORE PUSH1 0x8 PUSH1 0x20 MSTORE PUSH1 0x40 SWAP1 KECCAK256 DUP2 SWAP1 SSTORE SWAP1 POP PUSH1 0x1 DUP2 EQ ISZERO PUSH2 0x2760 JUMPI PUSH1 0x2 DUP1 SLOAD PUSH1 0x0 DUP5 DUP2 MSTORE PUSH1 0x6 PUSH1 0x20 SWAP1 DUP2 MSTORE PUSH1 0x40 DUP1 DUP4 KECCAK256 DUP5 SWAP1 SSTORE PUSH1 0x1 DUP1 DUP6 ADD DUP7 SSTORE SWAP5 SWAP1 SWAP3 MSTORE PUSH32 0x405787FA12A823E0F2B7631CC41B3BA8828B3321CA811111FA75CD3AA3BB5ACE SWAP1 SWAP3 ADD DUP6 SWAP1 SSTORE SWAP2 SLOAD DUP3 MLOAD DUP6 DUP2 MSTORE SWAP2 DUP3 ADD DUP9 SWAP1 MSTORE DUP2 DUP4 ADD MSTORE CALLER PUSH1 0x60 DUP3 ADD MSTORE SWAP1 MLOAD PUSH32 0x6BAB0114F9524353D2D33E64EDD3EBBD16E21EDD57DE2226BA76C310A7CE2265 SWAP2 DUP2 SWAP1 SUB PUSH1 0x80 ADD SWAP1 LOG1 JUMPDEST PUSH1 0x1 SLOAD PUSH1 0x40 DUP1 MLOAD DUP5 DUP2 MSTORE PUSH1 0x20 DUP2 ADD DUP5 SWAP1 MSTORE DUP1 DUP3 ADD DUP9 SWAP1 MSTORE PUSH1 0x60 DUP2 ADD SWAP3 SWAP1 SWAP3 MSTORE CALLER PUSH1 0x80 DUP4 ADD MSTORE MLOAD PUSH32 0x8DD9582C6577AEA81973B5ADEB6C135F6E18565D99578B7BA0C9377437EC0221 SWAP2 DUP2 SWAP1 SUB PUSH1 0xA0 ADD SWAP1 LOG1 PUSH1 0x0 DUP3 DUP2 MSTORE PUSH1 0x8 PUSH1 0x20 MSTORE PUSH1 0x40 SWAP1 KECCAK256 SLOAD DUP6 EQ ISZERO PUSH2 0x2823 JUMPI PUSH2 0x27CF DUP3 PUSH2 0x4B86 JUMP JUMPDEST PUSH1 0x1 SLOAD PUSH1 0x40 DUP1 MLOAD DUP5 DUP2 MSTORE PUSH1 0x20 DUP2 ADD DUP9 SWAP1 MSTORE DUP1 DUP3 ADD SWAP3 SWAP1 SWAP3 MSTORE CALLER PUSH1 0x60 DUP4 ADD MSTORE MLOAD PUSH32 0x8A11C8CA99994C292318CE367F65BF6FF61D390BC814B3588496F6FBCC32807A SWAP2 DUP2 SWAP1 SUB PUSH1 0x80 ADD SWAP1 LOG1 POP PUSH1 0x1 SWAP5 SWAP4 POP POP POP POP JUMP JUMPDEST POP PUSH1 0x0 SWAP5 SWAP4 POP POP POP POP JUMP JUMPDEST PUSH1 0x0 PUSH2 0xC35 DUP3 DUP5 PUSH2 0x53DD JUMP JUMPDEST PUSH2 0x2842 PUSH2 0x4E25 JUMP JUMPDEST PUSH1 0x40 MLOAD DUP1 PUSH2 0x560 ADD PUSH1 0x40 MSTORE DUP1 PUSH2 0x2863 PUSH3 0x51615 PUSH8 0xDE0B6B3A7640000 PUSH2 0x4C56 JUMP JUMPDEST DUP2 MSTORE PUSH1 0x20 ADD PUSH1 0x0 DUP2 MSTORE PUSH1 0x20 ADD PUSH1 0x0 DUP2 MSTORE PUSH1 0x20 ADD PUSH1 0x0 DUP2 MSTORE PUSH1 0x20 ADD PUSH2 0x2892 PUSH3 0x51615 PUSH8 0xDE0B6B3A7640000 PUSH2 0x4C56 JUMP JUMPDEST DUP2 MSTORE PUSH1 0x20 ADD PUSH1 0x0 DUP2 MSTORE PUSH1 0x20 ADD PUSH1 0x0 DUP2 MSTORE PUSH1 0x20 ADD PUSH2 0x28BA PUSH3 0x51615 PUSH8 0xDE0B6B3A7640000 PUSH2 0x4C56 JUMP JUMPDEST DUP2 MSTORE PUSH1 0x20 ADD PUSH1 0x0 DUP2 MSTORE PUSH1 0x20 ADD PUSH1 0x0 DUP2 MSTORE PUSH1 0x20 ADD PUSH2 0x28E2 PUSH3 0x51615 PUSH8 0xDE0B6B3A7640000 PUSH2 0x4C56 JUMP JUMPDEST DUP2 MSTORE PUSH1 0x20 ADD PUSH1 0x0 DUP2 MSTORE PUSH1 0x20 ADD PUSH1 0x0 DUP2 MSTORE PUSH1 0x20 ADD PUSH2 0x290A PUSH3 0x11A1E PUSH8 0xDE0B6B3A7640000 PUSH2 0x4C56 JUMP JUMPDEST DUP2 MSTORE PUSH1 0x20 ADD PUSH2 0x2924 PUSH3 0x11A1E PUSH8 0xDE0B6B3A7640000 PUSH2 0x4C56 JUMP JUMPDEST DUP2 MSTORE PUSH1 0x20 ADD PUSH2 0x293E PUSH3 0x11A1E PUSH8 0xDE0B6B3A7640000 PUSH2 0x4C56 JUMP JUMPDEST DUP2 MSTORE PUSH1 0x20 ADD PUSH2 0x2958 PUSH3 0x11A1E PUSH8 0xDE0B6B3A7640000 PUSH2 0x4C56 JUMP JUMPDEST DUP2 MSTORE PUSH1 0x20 ADD PUSH2 0x2972 PUSH3 0x11A1E PUSH8 0xDE0B6B3A7640000 PUSH2 0x4C56 JUMP JUMPDEST DUP2 MSTORE PUSH1 0x20 ADD PUSH2 0x298C PUSH3 0x11A1E PUSH8 0xDE0B6B3A7640000 PUSH2 0x4C56 JUMP JUMPDEST DUP2 MSTORE PUSH1 0x20 ADD PUSH2 0x29A6 PUSH3 0x11A1E PUSH8 0xDE0B6B3A7640000 PUSH2 0x4C56 JUMP JUMPDEST DUP2 MSTORE PUSH1 0x20 ADD PUSH2 0x29C0 PUSH3 0x11A1E PUSH8 0xDE0B6B3A7640000 PUSH2 0x4C56 JUMP JUMPDEST DUP2 MSTORE PUSH1 0x20 ADD PUSH2 0x29DA PUSH3 0x11A1E PUSH8 0xDE0B6B3A7640000 PUSH2 0x4C56 JUMP JUMPDEST DUP2 MSTORE PUSH1 0x20 ADD PUSH2 0x29F4 PUSH3 0x11A1E PUSH8 0xDE0B6B3A7640000 PUSH2 0x4C56 JUMP JUMPDEST DUP2 MSTORE PUSH1 0x20 ADD PUSH2 0x2A0E PUSH3 0x11A1E PUSH8 0xDE0B6B3A7640000 PUSH2 0x4C56 JUMP JUMPDEST DUP2 MSTORE PUSH1 0x20 ADD PUSH2 0x2A28 PUSH3 0x11A1E PUSH8 0xDE0B6B3A7640000 PUSH2 0x4C56 JUMP JUMPDEST DUP2 MSTORE PUSH1 0x20 ADD PUSH2 0x2A42 PUSH3 0x11A1E PUSH8 0xDE0B6B3A7640000 PUSH2 0x4C56 JUMP JUMPDEST DUP2 MSTORE PUSH1 0x20 ADD PUSH2 0x2A5C PUSH3 0x11A1E PUSH8 0xDE0B6B3A7640000 PUSH2 0x4C56 JUMP JUMPDEST DUP2 MSTORE PUSH1 0x20 ADD PUSH2 0x2A76 PUSH3 0x11A1E PUSH8 0xDE0B6B3A7640000 PUSH2 0x4C56 JUMP JUMPDEST DUP2 MSTORE PUSH1 0x20 ADD PUSH2 0x2A90 PUSH3 0x11A1E PUSH8 0xDE0B6B3A7640000 PUSH2 0x4C56 JUMP JUMPDEST DUP2 MSTORE PUSH1 0x20 ADD PUSH2 0x2AAA PUSH3 0x11A1E PUSH8 0xDE0B6B3A7640000 PUSH2 0x4C56 JUMP JUMPDEST DUP2 MSTORE PUSH1 0x20 ADD PUSH2 0x2AC4 PUSH3 0x11A1E PUSH8 0xDE0B6B3A7640000 PUSH2 0x4C56 JUMP JUMPDEST DUP2 MSTORE PUSH1 0x20 ADD PUSH2 0x2ADE PUSH3 0x11A1E PUSH8 0xDE0B6B3A7640000 PUSH2 0x4C56 JUMP JUMPDEST DUP2 MSTORE PUSH1 0x20 ADD PUSH2 0x2AF8 PUSH3 0x11A1E PUSH8 0xDE0B6B3A7640000 PUSH2 0x4C56 JUMP JUMPDEST DUP2 MSTORE PUSH1 0x20 ADD PUSH2 0x2B12 PUSH3 0x11A1E PUSH8 0xDE0B6B3A7640000 PUSH2 0x4C56 JUMP JUMPDEST DUP2 MSTORE PUSH1 0x20 ADD PUSH2 0x2B2C PUSH3 0x11A1E PUSH8 0xDE0B6B3A7640000 PUSH2 0x4C56 JUMP JUMPDEST DUP2 MSTORE PUSH1 0x20 ADD PUSH2 0x2B46 PUSH3 0x11A1E PUSH8 0xDE0B6B3A7640000 PUSH2 0x4C56 JUMP JUMPDEST DUP2 MSTORE PUSH1 0x20 ADD PUSH2 0x2B60 PUSH3 0x11A1E PUSH8 0xDE0B6B3A7640000 PUSH2 0x4C56 JUMP JUMPDEST DUP2 MSTORE PUSH1 0x20 ADD PUSH2 0x2B7A PUSH3 0x11A1E PUSH8 0xDE0B6B3A7640000 PUSH2 0x4C56 JUMP JUMPDEST DUP2 MSTORE PUSH1 0x20 ADD PUSH2 0x2B94 PUSH3 0x11A1E PUSH8 0xDE0B6B3A7640000 PUSH2 0x4C56 JUMP JUMPDEST DUP2 MSTORE PUSH1 0x20 ADD PUSH2 0x2BAE PUSH3 0x11A1E PUSH8 0xDE0B6B3A7640000 PUSH2 0x4C56 JUMP JUMPDEST DUP2 MSTORE PUSH1 0x20 ADD PUSH2 0x2BC8 PUSH3 0x11A1E PUSH8 0xDE0B6B3A7640000 PUSH2 0x4C56 JUMP JUMPDEST DUP2 MSTORE PUSH1 0x20 ADD PUSH2 0x2BE2 PUSH3 0x11A1E PUSH8 0xDE0B6B3A7640000 PUSH2 0x4C56 JUMP JUMPDEST DUP2 MSTORE PUSH1 0x20 ADD PUSH2 0x2BFC PUSH3 0x11A1E PUSH8 0xDE0B6B3A7640000 PUSH2 0x4C56 JUMP JUMPDEST SWAP1 MSTORE SWAP2 SWAP1 POP JUMP JUMPDEST PUSH1 0x1 PUSH1 0x1 PUSH1 0xA0 SHL SUB DUP4 AND PUSH2 0x2C6C JUMPI PUSH1 0x40 MLOAD PUSH3 0x461BCD PUSH1 0xE5 SHL DUP2 MSTORE PUSH1 0x20 PUSH1 0x4 DUP3 ADD MSTORE PUSH1 0x2A PUSH1 0x24 DUP3 ADD MSTORE PUSH32 0x54616C6178546F6B656E3A207472616E736665722066726F6D20746865207A65 PUSH1 0x44 DUP3 ADD MSTORE PUSH10 0x726F2061646472657373 PUSH1 0xB0 SHL PUSH1 0x64 DUP3 ADD MSTORE PUSH1 0x84 ADD PUSH2 0xDCC JUMP JUMPDEST PUSH1 0x1 PUSH1 0x1 PUSH1 0xA0 SHL SUB DUP3 AND PUSH2 0x2CD3 JUMPI PUSH1 0x40 MLOAD PUSH3 0x461BCD PUSH1 0xE5 SHL DUP2 MSTORE PUSH1 0x20 PUSH1 0x4 DUP3 ADD MSTORE PUSH1 0x28 PUSH1 0x24 DUP3 ADD MSTORE PUSH32 0x54616C6178546F6B656E3A207472616E7366657220746F20746865207A65726F PUSH1 0x44 DUP3 ADD MSTORE PUSH8 0x2061646472657373 PUSH1 0xC0 SHL PUSH1 0x64 DUP3 ADD MSTORE PUSH1 0x84 ADD PUSH2 0xDCC JUMP JUMPDEST PUSH1 0xE SLOAD PUSH1 0x0 SWAP1 PUSH2 0x2CF3 SWAP1 PUSH2 0x2CEC SWAP1 DUP5 SWAP1 PUSH2 0xFFFF AND PUSH2 0x4C56 JUMP JUMPDEST PUSH1 0x64 PUSH2 0xC29 JUMP JUMPDEST SWAP1 POP PUSH1 0x0 PUSH2 0x2D01 DUP4 DUP4 PUSH2 0x282E JUMP JUMPDEST SWAP1 POP PUSH1 0x0 PUSH2 0x2D24 PUSH2 0x2D1D DUP4 PUSH2 0x2D18 PUSH1 0x2 PUSH1 0xA PUSH2 0xC29 JUMP JUMPDEST PUSH2 0x4C56 JUMP JUMPDEST PUSH1 0x3 PUSH2 0xC29 JUMP JUMPDEST SWAP1 POP PUSH1 0x0 PUSH2 0x2D38 DUP4 PUSH2 0x2D18 PUSH1 0x8 PUSH1 0xA PUSH2 0xC29 JUMP JUMPDEST PUSH1 0x22 SLOAD PUSH1 0x1 PUSH1 0x1 PUSH1 0xA0 SHL SUB AND PUSH1 0x0 SWAP1 DUP2 MSTORE PUSH1 0xB PUSH1 0x20 MSTORE PUSH1 0x40 SWAP1 KECCAK256 SLOAD SWAP1 SWAP2 POP PUSH2 0x2D60 SWAP1 DUP4 PUSH2 0xC3E JUMP JUMPDEST PUSH1 0x22 SLOAD PUSH1 0x1 PUSH1 0x1 PUSH1 0xA0 SHL SUB SWAP1 DUP2 AND PUSH1 0x0 SWAP1 DUP2 MSTORE PUSH1 0xB PUSH1 0x20 MSTORE PUSH1 0x40 DUP1 DUP3 KECCAK256 SWAP4 SWAP1 SWAP4 SSTORE PUSH1 0x23 SLOAD SWAP1 SWAP2 AND DUP2 MSTORE KECCAK256 SLOAD PUSH2 0x2D95 SWAP1 DUP4 PUSH2 0xC3E JUMP JUMPDEST PUSH1 0x23 SLOAD PUSH1 0x1 PUSH1 0x1 PUSH1 0xA0 SHL SUB SWAP1 DUP2 AND PUSH1 0x0 SWAP1 DUP2 MSTORE PUSH1 0xB PUSH1 0x20 MSTORE PUSH1 0x40 DUP1 DUP3 KECCAK256 SWAP4 SWAP1 SWAP4 SSTORE PUSH1 0x24 SLOAD SWAP1 SWAP2 AND DUP2 MSTORE KECCAK256 SLOAD PUSH2 0x2DCA SWAP1 DUP4 PUSH2 0xC3E JUMP JUMPDEST PUSH1 0x24 SLOAD PUSH1 0x1 PUSH1 0x1 PUSH1 0xA0 SHL SUB AND PUSH1 0x0 SWAP1 DUP2 MSTORE PUSH1 0xB PUSH1 0x20 MSTORE PUSH1 0x40 DUP1 DUP3 KECCAK256 SWAP3 SWAP1 SWAP3 SSTORE ADDRESS DUP2 MSTORE KECCAK256 SLOAD PUSH2 0x2DF8 SWAP1 DUP3 PUSH2 0xC3E JUMP JUMPDEST PUSH1 0xB PUSH1 0x0 ADDRESS PUSH1 0x1 PUSH1 0x1 PUSH1 0xA0 SHL SUB AND PUSH1 0x1 PUSH1 0x1 PUSH1 0xA0 SHL SUB AND DUP2 MSTORE PUSH1 0x20 ADD SWAP1 DUP2 MSTORE PUSH1 0x20 ADD PUSH1 0x0 KECCAK256 DUP2 SWAP1 SSTORE POP PUSH2 0x2E5E DUP6 PUSH1 0x40 MLOAD DUP1 PUSH1 0x60 ADD PUSH1 0x40 MSTORE DUP1 PUSH1 0x2B DUP2 MSTORE PUSH1 0x20 ADD PUSH2 0x560C PUSH1 0x2B SWAP2 CODECOPY PUSH1 0x1 PUSH1 0x1 PUSH1 0xA0 SHL SUB DUP11 AND PUSH1 0x0 SWAP1 DUP2 MSTORE PUSH1 0xB PUSH1 0x20 MSTORE PUSH1 0x40 SWAP1 KECCAK256 SLOAD SWAP2 SWAP1 PUSH2 0x2329 JUMP JUMPDEST PUSH1 0x1 PUSH1 0x1 PUSH1 0xA0 SHL SUB DUP1 DUP10 AND PUSH1 0x0 SWAP1 DUP2 MSTORE PUSH1 0xB PUSH1 0x20 MSTORE PUSH1 0x40 DUP1 DUP3 KECCAK256 SWAP4 SWAP1 SWAP4 SSTORE SWAP1 DUP9 AND DUP2 MSTORE KECCAK256 SLOAD PUSH2 0x2E8D SWAP1 DUP5 PUSH2 0xC3E JUMP JUMPDEST PUSH1 0x1 PUSH1 0x1 PUSH1 0xA0 SHL SUB DUP1 DUP9 AND PUSH1 0x0 DUP2 DUP2 MSTORE PUSH1 0xB PUSH1 0x20 MSTORE PUSH1 0x40 SWAP1 DUP2 SWAP1 KECCAK256 SWAP4 SWAP1 SWAP4 SSTORE SWAP2 MLOAD SWAP1 DUP10 AND SWAP1 PUSH32 0xDDF252AD1BE2C89B69C2B068FC378DAA952BA7F163C4A11628F55A4DF523B3EF SWAP1 PUSH2 0x2EE1 SWAP1 DUP8 DUP2 MSTORE PUSH1 0x20 ADD SWAP1 JUMP JUMPDEST PUSH1 0x40 MLOAD DUP1 SWAP2 SUB SWAP1 LOG3 POP POP POP POP POP POP POP JUMP JUMPDEST PUSH2 0x2EFA PUSH2 0x4E25 JUMP JUMPDEST PUSH1 0x40 MLOAD DUP1 PUSH2 0x560 ADD PUSH1 0x40 MSTORE DUP1 PUSH2 0x2F1B PUSH3 0x11CD4A PUSH8 0xDE0B6B3A7640000 PUSH2 0x4C56 JUMP JUMPDEST DUP2 MSTORE PUSH1 0x20 ADD PUSH1 0x0 DUP2 MSTORE PUSH1 0x20 ADD PUSH1 0x0 DUP2 MSTORE PUSH1 0x20 ADD PUSH1 0x0 DUP2 MSTORE PUSH1 0x20 ADD PUSH2 0x2F4A PUSH3 0x989680 PUSH8 0xDE0B6B3A7640000 PUSH2 0x4C56 JUMP JUMPDEST DUP2 MSTORE PUSH1 0x20 ADD PUSH1 0x0 DUP2 MSTORE PUSH1 0x20 ADD PUSH1 0x0 DUP2 MSTORE PUSH1 0x20 ADD PUSH2 0x2F72 PUSH3 0x989680 PUSH8 0xDE0B6B3A7640000 PUSH2 0x4C56 JUMP JUMPDEST DUP2 MSTORE PUSH1 0x20 ADD PUSH1 0x0 DUP2 MSTORE PUSH1 0x20 ADD PUSH1 0x0 DUP2 MSTORE PUSH1 0x20 ADD PUSH2 0x2F9A PUSH3 0x989680 PUSH8 0xDE0B6B3A7640000 PUSH2 0x4C56 JUMP JUMPDEST DUP2 MSTORE PUSH1 0x20 ADD PUSH1 0x0 DUP2 MSTORE PUSH1 0x20 ADD PUSH1 0x0 DUP2 MSTORE PUSH1 0x20 ADD PUSH2 0x2FC2 PUSH3 0x51616 PUSH8 0xDE0B6B3A7640000 PUSH2 0x4C56 JUMP JUMPDEST DUP2 MSTORE PUSH1 0x20 ADD PUSH2 0x2FDC PUSH3 0x51616 PUSH8 0xDE0B6B3A7640000 PUSH2 0x4C56 JUMP JUMPDEST DUP2 MSTORE PUSH1 0x20 ADD PUSH2 0x2FF6 PUSH3 0x51616 PUSH8 0xDE0B6B3A7640000 PUSH2 0x4C56 JUMP JUMPDEST DUP2 MSTORE PUSH1 0x20 ADD PUSH2 0x3010 PUSH3 0x51616 PUSH8 0xDE0B6B3A7640000 PUSH2 0x4C56 JUMP JUMPDEST DUP2 MSTORE PUSH1 0x20 ADD PUSH2 0x302A PUSH3 0x51616 PUSH8 0xDE0B6B3A7640000 PUSH2 0x4C56 JUMP JUMPDEST DUP2 MSTORE PUSH1 0x20 ADD PUSH2 0x3044 PUSH3 0x51616 PUSH8 0xDE0B6B3A7640000 PUSH2 0x4C56 JUMP JUMPDEST DUP2 MSTORE PUSH1 0x20 ADD PUSH2 0x305E PUSH3 0x51616 PUSH8 0xDE0B6B3A7640000 PUSH2 0x4C56 JUMP JUMPDEST DUP2 MSTORE PUSH1 0x20 ADD PUSH2 0x3078 PUSH3 0x51616 PUSH8 0xDE0B6B3A7640000 PUSH2 0x4C56 JUMP JUMPDEST DUP2 MSTORE PUSH1 0x20 ADD PUSH2 0x3092 PUSH3 0x51616 PUSH8 0xDE0B6B3A7640000 PUSH2 0x4C56 JUMP JUMPDEST DUP2 MSTORE PUSH1 0x20 ADD PUSH2 0x30AC PUSH3 0x51616 PUSH8 0xDE0B6B3A7640000 PUSH2 0x4C56 JUMP JUMPDEST DUP2 MSTORE PUSH1 0x20 ADD PUSH2 0x30C6 PUSH3 0x51616 PUSH8 0xDE0B6B3A7640000 PUSH2 0x4C56 JUMP JUMPDEST DUP2 MSTORE PUSH1 0x20 ADD PUSH2 0x30E0 PUSH3 0x51616 PUSH8 0xDE0B6B3A7640000 PUSH2 0x4C56 JUMP JUMPDEST DUP2 MSTORE PUSH1 0x20 ADD PUSH2 0x30FA PUSH3 0x51616 PUSH8 0xDE0B6B3A7640000 PUSH2 0x4C56 JUMP JUMPDEST DUP2 MSTORE PUSH1 0x20 ADD PUSH2 0x3114 PUSH3 0x51616 PUSH8 0xDE0B6B3A7640000 PUSH2 0x4C56 JUMP JUMPDEST DUP2 MSTORE PUSH1 0x20 ADD PUSH2 0x312E PUSH3 0x51616 PUSH8 0xDE0B6B3A7640000 PUSH2 0x4C56 JUMP JUMPDEST DUP2 MSTORE PUSH1 0x20 ADD PUSH2 0x3148 PUSH3 0x51616 PUSH8 0xDE0B6B3A7640000 PUSH2 0x4C56 JUMP JUMPDEST DUP2 MSTORE PUSH1 0x20 ADD PUSH2 0x3162 PUSH3 0x51616 PUSH8 0xDE0B6B3A7640000 PUSH2 0x4C56 JUMP JUMPDEST DUP2 MSTORE PUSH1 0x20 ADD PUSH2 0x317C PUSH3 0x51616 PUSH8 0xDE0B6B3A7640000 PUSH2 0x4C56 JUMP JUMPDEST DUP2 MSTORE PUSH1 0x20 ADD PUSH2 0x3196 PUSH3 0x51616 PUSH8 0xDE0B6B3A7640000 PUSH2 0x4C56 JUMP JUMPDEST DUP2 MSTORE PUSH1 0x20 ADD PUSH1 0x0 DUP2 MSTORE PUSH1 0x20 ADD PUSH1 0x0 DUP2 MSTORE PUSH1 0x20 ADD PUSH1 0x0 DUP2 MSTORE PUSH1 0x20 ADD PUSH1 0x0 DUP2 MSTORE PUSH1 0x20 ADD PUSH1 0x0 DUP2 MSTORE PUSH1 0x20 ADD PUSH1 0x0 DUP2 MSTORE PUSH1 0x20 ADD PUSH1 0x0 DUP2 MSTORE PUSH1 0x20 ADD PUSH1 0x0 DUP2 MSTORE PUSH1 0x20 ADD PUSH1 0x0 DUP2 MSTORE PUSH1 0x20 ADD PUSH1 0x0 DUP2 MSTORE PUSH1 0x20 ADD PUSH1 0x0 DUP2 MSTORE POP SWAP1 POP SWAP1 JUMP JUMPDEST PUSH2 0x31F3 PUSH2 0x4E25 JUMP JUMPDEST PUSH1 0x40 MLOAD DUP1 PUSH2 0x560 ADD PUSH1 0x40 MSTORE DUP1 PUSH2 0x3214 PUSH3 0x11CD4B PUSH8 0xDE0B6B3A7640000 PUSH2 0x4C56 JUMP JUMPDEST DUP2 MSTORE PUSH1 0x20 ADD PUSH1 0x0 DUP2 MSTORE PUSH1 0x20 ADD PUSH1 0x0 DUP2 MSTORE PUSH1 0x20 ADD PUSH1 0x0 DUP2 MSTORE PUSH1 0x20 ADD PUSH2 0x3243 PUSH3 0xF4240 PUSH8 0xDE0B6B3A7640000 PUSH2 0x4C56 JUMP JUMPDEST DUP2 MSTORE PUSH1 0x20 ADD PUSH1 0x0 DUP2 MSTORE PUSH1 0x20 ADD PUSH1 0x0 DUP2 MSTORE PUSH1 0x20 ADD PUSH2 0x326B PUSH3 0xF4240 PUSH8 0xDE0B6B3A7640000 PUSH2 0x4C56 JUMP JUMPDEST DUP2 MSTORE PUSH1 0x20 ADD PUSH1 0x0 DUP2 MSTORE PUSH1 0x20 ADD PUSH1 0x0 DUP2 MSTORE PUSH1 0x20 ADD PUSH2 0x3293 PUSH3 0xF4240 PUSH8 0xDE0B6B3A7640000 PUSH2 0x4C56 JUMP JUMPDEST DUP2 MSTORE PUSH1 0x20 ADD PUSH1 0x0 DUP2 MSTORE PUSH1 0x20 ADD PUSH1 0x0 DUP2 MSTORE PUSH1 0x20 ADD PUSH2 0x32BB PUSH3 0x51615 PUSH8 0xDE0B6B3A7640000 PUSH2 0x4C56 JUMP JUMPDEST DUP2 MSTORE PUSH1 0x20 ADD PUSH2 0x32D5 PUSH3 0x51615 PUSH8 0xDE0B6B3A7640000 PUSH2 0x4C56 JUMP JUMPDEST DUP2 MSTORE PUSH1 0x20 ADD PUSH2 0x32EF PUSH3 0x51615 PUSH8 0xDE0B6B3A7640000 PUSH2 0x4C56 JUMP JUMPDEST DUP2 MSTORE PUSH1 0x20 ADD PUSH2 0x3309 PUSH3 0x51615 PUSH8 0xDE0B6B3A7640000 PUSH2 0x4C56 JUMP JUMPDEST DUP2 MSTORE PUSH1 0x20 ADD PUSH2 0x3323 PUSH3 0x51615 PUSH8 0xDE0B6B3A7640000 PUSH2 0x4C56 JUMP JUMPDEST DUP2 MSTORE PUSH1 0x20 ADD PUSH2 0x333D PUSH3 0x51615 PUSH8 0xDE0B6B3A7640000 PUSH2 0x4C56 JUMP JUMPDEST DUP2 MSTORE PUSH1 0x20 ADD PUSH2 0x3357 PUSH3 0x51615 PUSH8 0xDE0B6B3A7640000 PUSH2 0x4C56 JUMP JUMPDEST DUP2 MSTORE PUSH1 0x20 ADD PUSH2 0x3371 PUSH3 0x51615 PUSH8 0xDE0B6B3A7640000 PUSH2 0x4C56 JUMP JUMPDEST DUP2 MSTORE PUSH1 0x20 ADD PUSH2 0x338B PUSH3 0x51615 PUSH8 0xDE0B6B3A7640000 PUSH2 0x4C56 JUMP JUMPDEST DUP2 MSTORE PUSH1 0x20 ADD PUSH2 0x33A5 PUSH3 0x51615 PUSH8 0xDE0B6B3A7640000 PUSH2 0x4C56 JUMP JUMPDEST DUP2 MSTORE PUSH1 0x20 ADD PUSH2 0x33BF PUSH3 0x51615 PUSH8 0xDE0B6B3A7640000 PUSH2 0x4C56 JUMP JUMPDEST DUP2 MSTORE PUSH1 0x20 ADD PUSH2 0x33D9 PUSH3 0x51615 PUSH8 0xDE0B6B3A7640000 PUSH2 0x4C56 JUMP JUMPDEST DUP2 MSTORE PUSH1 0x20 ADD PUSH2 0x33F3 PUSH3 0x51615 PUSH8 0xDE0B6B3A7640000 PUSH2 0x4C56 JUMP JUMPDEST DUP2 MSTORE PUSH1 0x20 ADD PUSH2 0x340D PUSH3 0x51615 PUSH8 0xDE0B6B3A7640000 PUSH2 0x4C56 JUMP JUMPDEST DUP2 MSTORE PUSH1 0x20 ADD PUSH2 0x3427 PUSH3 0x51615 PUSH8 0xDE0B6B3A7640000 PUSH2 0x4C56 JUMP JUMPDEST DUP2 MSTORE PUSH1 0x20 ADD PUSH2 0x3441 PUSH3 0x51615 PUSH8 0xDE0B6B3A7640000 PUSH2 0x4C56 JUMP JUMPDEST DUP2 MSTORE PUSH1 0x20 ADD PUSH2 0x345B PUSH3 0x51615 PUSH8 0xDE0B6B3A7640000 PUSH2 0x4C56 JUMP JUMPDEST DUP2 MSTORE PUSH1 0x20 ADD PUSH2 0x3475 PUSH3 0x51615 PUSH8 0xDE0B6B3A7640000 PUSH2 0x4C56 JUMP JUMPDEST DUP2 MSTORE PUSH1 0x20 ADD PUSH2 0x3196 PUSH3 0x51615 PUSH8 0xDE0B6B3A7640000 PUSH2 0x4C56 JUMP JUMPDEST PUSH1 0x0 DUP4 GT PUSH2 0x34DF JUMPI PUSH1 0x40 MLOAD PUSH3 0x461BCD PUSH1 0xE5 SHL DUP2 MSTORE PUSH1 0x20 PUSH1 0x4 DUP3 ADD MSTORE PUSH1 0x1E PUSH1 0x24 DUP3 ADD MSTORE PUSH32 0x5374616B61626C653A2043616E6E6F74207374616B65206E6F7468696E670000 PUSH1 0x44 DUP3 ADD MSTORE PUSH1 0x64 ADD PUSH2 0xDCC JUMP JUMPDEST CALLER PUSH1 0x0 SWAP1 DUP2 MSTORE PUSH1 0xA PUSH1 0x20 MSTORE PUSH1 0x40 SWAP1 KECCAK256 SLOAD TIMESTAMP DUP2 PUSH2 0x3501 JUMPI PUSH2 0x34FE CALLER PUSH2 0x4C62 JUMP JUMPDEST SWAP2 POP JUMPDEST PUSH1 0x9 DUP3 DUP2 SLOAD DUP2 LT PUSH2 0x3514 JUMPI PUSH2 0x3514 PUSH2 0x5344 JUMP JUMPDEST SWAP1 PUSH1 0x0 MSTORE PUSH1 0x20 PUSH1 0x0 KECCAK256 SWAP1 PUSH1 0x2 MUL ADD PUSH1 0x1 ADD PUSH1 0x40 MLOAD DUP1 PUSH1 0xC0 ADD PUSH1 0x40 MSTORE DUP1 CALLER PUSH1 0x1 PUSH1 0x1 PUSH1 0xA0 SHL SUB AND DUP2 MSTORE PUSH1 0x20 ADD DUP8 DUP2 MSTORE PUSH1 0x20 ADD DUP4 DUP2 MSTORE PUSH1 0x20 ADD PUSH1 0x0 DUP2 MSTORE PUSH1 0x20 ADD DUP6 DUP2 MSTORE PUSH1 0x20 ADD DUP4 DUP8 PUSH2 0x3564 SWAP2 SWAP1 PUSH2 0x5237 JUMP JUMPDEST SWAP1 MSTORE DUP2 SLOAD PUSH1 0x1 DUP1 DUP3 ADD DUP5 SSTORE PUSH1 0x0 SWAP4 DUP5 MSTORE PUSH1 0x20 SWAP4 DUP5 SWAP1 KECCAK256 DUP4 MLOAD PUSH1 0x6 SWAP1 SWAP4 MUL ADD DUP1 SLOAD PUSH1 0x1 PUSH1 0x1 PUSH1 0xA0 SHL SUB NOT AND PUSH1 0x1 PUSH1 0x1 PUSH1 0xA0 SHL SUB SWAP1 SWAP4 AND SWAP3 SWAP1 SWAP3 OR DUP3 SSTORE SWAP3 DUP3 ADD MLOAD SWAP3 DUP2 ADD SWAP3 SWAP1 SWAP3 SSTORE PUSH1 0x40 DUP2 ADD MLOAD PUSH1 0x2 DUP4 ADD SSTORE PUSH1 0x60 DUP2 ADD MLOAD PUSH1 0x3 DUP4 ADD SSTORE PUSH1 0x80 DUP2 ADD MLOAD PUSH1 0x4 DUP4 ADD SSTORE PUSH1 0xA0 ADD MLOAD PUSH1 0x5 SWAP1 SWAP2 ADD SSTORE CALLER PUSH32 0x9CFD25589D1EB8AD71E342A86A8524E83522E3936C0803048C08F6D9AD974F40 DUP7 DUP5 DUP5 PUSH2 0x3601 DUP2 DUP11 PUSH2 0x5237 JUMP JUMPDEST PUSH1 0x40 DUP1 MLOAD SWAP5 DUP6 MSTORE PUSH1 0x20 DUP6 ADD SWAP4 SWAP1 SWAP4 MSTORE SWAP2 DUP4 ADD MSTORE PUSH1 0x60 DUP3 ADD MSTORE PUSH1 0x80 ADD PUSH1 0x40 MLOAD DUP1 SWAP2 SUB SWAP1 LOG2 POP POP POP POP POP JUMP JUMPDEST PUSH1 0x1 PUSH1 0x1 PUSH1 0xA0 SHL SUB DUP3 AND PUSH2 0x3690 JUMPI PUSH1 0x40 MLOAD PUSH3 0x461BCD PUSH1 0xE5 SHL DUP2 MSTORE PUSH1 0x20 PUSH1 0x4 DUP3 ADD MSTORE PUSH1 0x26 PUSH1 0x24 DUP3 ADD MSTORE PUSH32 0x54616C6178546F6B656E3A206275726E2066726F6D20746865207A65726F2061 PUSH1 0x44 DUP3 ADD MSTORE PUSH6 0x646472657373 PUSH1 0xD0 SHL PUSH1 0x64 DUP3 ADD MSTORE PUSH1 0x84 ADD PUSH2 0xDCC JUMP JUMPDEST PUSH2 0x36CD DUP2 PUSH1 0x40 MLOAD DUP1 PUSH1 0x60 ADD PUSH1 0x40 MSTORE DUP1 PUSH1 0x27 DUP2 MSTORE PUSH1 0x20 ADD PUSH2 0x558E PUSH1 0x27 SWAP2 CODECOPY PUSH1 0x1 PUSH1 0x1 PUSH1 0xA0 SHL SUB DUP6 AND PUSH1 0x0 SWAP1 DUP2 MSTORE PUSH1 0xB PUSH1 0x20 MSTORE PUSH1 0x40 SWAP1 KECCAK256 SLOAD SWAP2 SWAP1 PUSH2 0x2329 JUMP JUMPDEST PUSH1 0x1 PUSH1 0x1 PUSH1 0xA0 SHL SUB DUP4 AND PUSH1 0x0 SWAP1 DUP2 MSTORE PUSH1 0xB PUSH1 0x20 MSTORE PUSH1 0x40 SWAP1 KECCAK256 SSTORE PUSH1 0xF SLOAD PUSH2 0x36F3 SWAP1 DUP3 PUSH2 0x282E JUMP JUMPDEST PUSH1 0xF SSTORE PUSH1 0x40 MLOAD DUP2 DUP2 MSTORE PUSH1 0x0 SWAP1 PUSH1 0x1 PUSH1 0x1 PUSH1 0xA0 SHL SUB DUP5 AND SWAP1 PUSH32 0xDDF252AD1BE2C89B69C2B068FC378DAA952BA7F163C4A11628F55A4DF523B3EF SWAP1 PUSH1 0x20 ADD JUMPDEST PUSH1 0x40 MLOAD DUP1 SWAP2 SUB SWAP1 LOG3 POP POP JUMP JUMPDEST PUSH2 0x3744 PUSH2 0x4E25 JUMP JUMPDEST PUSH1 0x40 MLOAD DUP1 PUSH2 0x560 ADD PUSH1 0x40 MSTORE DUP1 PUSH2 0x3765 PUSH3 0xF4240 PUSH8 0xDE0B6B3A7640000 PUSH2 0x4C56 JUMP JUMPDEST DUP2 MSTORE PUSH1 0x20 ADD PUSH1 0x0 DUP2 MSTORE PUSH1 0x20 ADD PUSH1 0x0 DUP2 MSTORE PUSH1 0x20 ADD PUSH1 0x0 DUP2 MSTORE PUSH1 0x20 ADD PUSH2 0x3794 PUSH3 0xF4240 PUSH8 0xDE0B6B3A7640000 PUSH2 0x4C56 JUMP JUMPDEST DUP2 MSTORE PUSH1 0x20 ADD PUSH1 0x0 DUP2 MSTORE PUSH1 0x20 ADD PUSH1 0x0 DUP2 MSTORE PUSH1 0x20 ADD PUSH2 0x37BC PUSH3 0xF4240 PUSH8 0xDE0B6B3A7640000 PUSH2 0x4C56 JUMP JUMPDEST DUP2 MSTORE PUSH1 0x20 ADD PUSH1 0x0 DUP2 MSTORE PUSH1 0x20 ADD PUSH1 0x0 DUP2 MSTORE PUSH1 0x20 ADD PUSH2 0x37E4 PUSH3 0xF4240 PUSH8 0xDE0B6B3A7640000 PUSH2 0x4C56 JUMP JUMPDEST DUP2 MSTORE PUSH1 0x20 ADD PUSH1 0x0 DUP2 MSTORE PUSH1 0x20 ADD PUSH1 0x0 DUP2 MSTORE PUSH1 0x20 ADD PUSH2 0x380C PUSH3 0x51616 PUSH8 0xDE0B6B3A7640000 PUSH2 0x4C56 JUMP JUMPDEST DUP2 MSTORE PUSH1 0x20 ADD PUSH2 0x3826 PUSH3 0x51616 PUSH8 0xDE0B6B3A7640000 PUSH2 0x4C56 JUMP JUMPDEST DUP2 MSTORE PUSH1 0x20 ADD PUSH2 0x3840 PUSH3 0x51616 PUSH8 0xDE0B6B3A7640000 PUSH2 0x4C56 JUMP JUMPDEST DUP2 MSTORE PUSH1 0x20 ADD PUSH2 0x385A PUSH3 0x51616 PUSH8 0xDE0B6B3A7640000 PUSH2 0x4C56 JUMP JUMPDEST DUP2 MSTORE PUSH1 0x20 ADD PUSH2 0x3874 PUSH3 0x51616 PUSH8 0xDE0B6B3A7640000 PUSH2 0x4C56 JUMP JUMPDEST DUP2 MSTORE PUSH1 0x20 ADD PUSH2 0x388E PUSH3 0x51616 PUSH8 0xDE0B6B3A7640000 PUSH2 0x4C56 JUMP JUMPDEST DUP2 MSTORE PUSH1 0x20 ADD PUSH2 0x38A8 PUSH3 0x51616 PUSH8 0xDE0B6B3A7640000 PUSH2 0x4C56 JUMP JUMPDEST DUP2 MSTORE PUSH1 0x20 ADD PUSH2 0x38C2 PUSH3 0x51616 PUSH8 0xDE0B6B3A7640000 PUSH2 0x4C56 JUMP JUMPDEST DUP2 MSTORE PUSH1 0x20 ADD PUSH2 0x38DC PUSH3 0x51616 PUSH8 0xDE0B6B3A7640000 PUSH2 0x4C56 JUMP JUMPDEST DUP2 MSTORE PUSH1 0x20 ADD PUSH2 0x38F6 PUSH3 0x51616 PUSH8 0xDE0B6B3A7640000 PUSH2 0x4C56 JUMP JUMPDEST DUP2 MSTORE PUSH1 0x20 ADD PUSH2 0x3910 PUSH3 0x51616 PUSH8 0xDE0B6B3A7640000 PUSH2 0x4C56 JUMP JUMPDEST DUP2 MSTORE PUSH1 0x20 ADD PUSH2 0x392A PUSH3 0x51616 PUSH8 0xDE0B6B3A7640000 PUSH2 0x4C56 JUMP JUMPDEST DUP2 MSTORE PUSH1 0x20 ADD PUSH2 0x3944 PUSH3 0x51616 PUSH8 0xDE0B6B3A7640000 PUSH2 0x4C56 JUMP JUMPDEST DUP2 MSTORE PUSH1 0x20 ADD PUSH2 0x395E PUSH3 0x51616 PUSH8 0xDE0B6B3A7640000 PUSH2 0x4C56 JUMP JUMPDEST DUP2 MSTORE PUSH1 0x20 ADD PUSH2 0x3978 PUSH3 0x51616 PUSH8 0xDE0B6B3A7640000 PUSH2 0x4C56 JUMP JUMPDEST DUP2 MSTORE PUSH1 0x20 ADD PUSH2 0x3992 PUSH3 0x51616 PUSH8 0xDE0B6B3A7640000 PUSH2 0x4C56 JUMP JUMPDEST DUP2 MSTORE PUSH1 0x20 ADD PUSH2 0x39AC PUSH3 0x51616 PUSH8 0xDE0B6B3A7640000 PUSH2 0x4C56 JUMP JUMPDEST DUP2 MSTORE PUSH1 0x20 ADD PUSH2 0x39C6 PUSH3 0x51616 PUSH8 0xDE0B6B3A7640000 PUSH2 0x4C56 JUMP JUMPDEST DUP2 MSTORE PUSH1 0x20 ADD PUSH2 0x39E0 PUSH3 0x51616 PUSH8 0xDE0B6B3A7640000 PUSH2 0x4C56 JUMP JUMPDEST DUP2 MSTORE PUSH1 0x20 ADD PUSH2 0x39FA PUSH3 0x51616 PUSH8 0xDE0B6B3A7640000 PUSH2 0x4C56 JUMP JUMPDEST DUP2 MSTORE PUSH1 0x20 ADD PUSH2 0x3A14 PUSH3 0x51616 PUSH8 0xDE0B6B3A7640000 PUSH2 0x4C56 JUMP JUMPDEST DUP2 MSTORE PUSH1 0x20 ADD PUSH2 0x3A2E PUSH3 0x51616 PUSH8 0xDE0B6B3A7640000 PUSH2 0x4C56 JUMP JUMPDEST DUP2 MSTORE PUSH1 0x20 ADD PUSH2 0x3A48 PUSH3 0x51616 PUSH8 0xDE0B6B3A7640000 PUSH2 0x4C56 JUMP JUMPDEST DUP2 MSTORE PUSH1 0x20 ADD PUSH2 0x3A62 PUSH3 0x51616 PUSH8 0xDE0B6B3A7640000 PUSH2 0x4C56 JUMP JUMPDEST DUP2 MSTORE PUSH1 0x20 ADD PUSH2 0x3A7C PUSH3 0x51616 PUSH8 0xDE0B6B3A7640000 PUSH2 0x4C56 JUMP JUMPDEST DUP2 MSTORE PUSH1 0x20 ADD PUSH2 0x3A96 PUSH3 0x51616 PUSH8 0xDE0B6B3A7640000 PUSH2 0x4C56 JUMP JUMPDEST DUP2 MSTORE PUSH1 0x20 ADD PUSH2 0x3AB0 PUSH3 0x51616 PUSH8 0xDE0B6B3A7640000 PUSH2 0x4C56 JUMP JUMPDEST DUP2 MSTORE PUSH1 0x20 ADD PUSH2 0x3ACA PUSH3 0x51616 PUSH8 0xDE0B6B3A7640000 PUSH2 0x4C56 JUMP JUMPDEST DUP2 MSTORE PUSH1 0x20 ADD PUSH2 0x3AE4 PUSH3 0x51616 PUSH8 0xDE0B6B3A7640000 PUSH2 0x4C56 JUMP JUMPDEST DUP2 MSTORE PUSH1 0x20 ADD PUSH2 0x2BFC PUSH3 0x51616 PUSH8 0xDE0B6B3A7640000 PUSH2 0x4C56 JUMP JUMPDEST PUSH2 0x3B06 PUSH2 0x4E25 JUMP JUMPDEST PUSH1 0x40 MLOAD DUP1 PUSH2 0x560 ADD PUSH1 0x40 MSTORE DUP1 PUSH2 0x3B27 PUSH3 0x51616 PUSH8 0xDE0B6B3A7640000 PUSH2 0x4C56 JUMP JUMPDEST DUP2 MSTORE PUSH1 0x20 ADD PUSH1 0x0 DUP2 MSTORE PUSH1 0x20 ADD PUSH1 0x0 DUP2 MSTORE PUSH1 0x20 ADD PUSH1 0x0 DUP2 MSTORE PUSH1 0x20 ADD PUSH2 0x3B56 PUSH3 0x51616 PUSH8 0xDE0B6B3A7640000 PUSH2 0x4C56 JUMP JUMPDEST DUP2 MSTORE PUSH1 0x20 ADD PUSH1 0x0 DUP2 MSTORE PUSH1 0x20 ADD PUSH1 0x0 DUP2 MSTORE PUSH1 0x20 ADD PUSH2 0x3B7E PUSH3 0x51616 PUSH8 0xDE0B6B3A7640000 PUSH2 0x4C56 JUMP JUMPDEST DUP2 MSTORE PUSH1 0x20 ADD PUSH1 0x0 DUP2 MSTORE PUSH1 0x20 ADD PUSH1 0x0 DUP2 MSTORE PUSH1 0x20 ADD PUSH2 0x3BA6 PUSH3 0x51616 PUSH8 0xDE0B6B3A7640000 PUSH2 0x4C56 JUMP JUMPDEST DUP2 MSTORE PUSH1 0x20 ADD PUSH1 0x0 DUP2 MSTORE PUSH1 0x20 ADD PUSH1 0x0 DUP2 MSTORE PUSH1 0x20 ADD PUSH2 0x3BCE PUSH3 0x11A1F PUSH8 0xDE0B6B3A7640000 PUSH2 0x4C56 JUMP JUMPDEST DUP2 MSTORE PUSH1 0x20 ADD PUSH2 0x3BE8 PUSH3 0x11A1F PUSH8 0xDE0B6B3A7640000 PUSH2 0x4C56 JUMP JUMPDEST DUP2 MSTORE PUSH1 0x20 ADD PUSH2 0x3C02 PUSH3 0x11A1F PUSH8 0xDE0B6B3A7640000 PUSH2 0x4C56 JUMP JUMPDEST DUP2 MSTORE PUSH1 0x20 ADD PUSH2 0x3C1C PUSH3 0x11A1F PUSH8 0xDE0B6B3A7640000 PUSH2 0x4C56 JUMP JUMPDEST DUP2 MSTORE PUSH1 0x20 ADD PUSH2 0x3C36 PUSH3 0x11A1F PUSH8 0xDE0B6B3A7640000 PUSH2 0x4C56 JUMP JUMPDEST DUP2 MSTORE PUSH1 0x20 ADD PUSH2 0x3C50 PUSH3 0x11A1F PUSH8 0xDE0B6B3A7640000 PUSH2 0x4C56 JUMP JUMPDEST DUP2 MSTORE PUSH1 0x20 ADD PUSH2 0x3C6A PUSH3 0x11A1F PUSH8 0xDE0B6B3A7640000 PUSH2 0x4C56 JUMP JUMPDEST DUP2 MSTORE PUSH1 0x20 ADD PUSH2 0x3C84 PUSH3 0x11A1F PUSH8 0xDE0B6B3A7640000 PUSH2 0x4C56 JUMP JUMPDEST DUP2 MSTORE PUSH1 0x20 ADD PUSH2 0x3C9E PUSH3 0x11A1F PUSH8 0xDE0B6B3A7640000 PUSH2 0x4C56 JUMP JUMPDEST DUP2 MSTORE PUSH1 0x20 ADD PUSH2 0x3CB8 PUSH3 0x11A1F PUSH8 0xDE0B6B3A7640000 PUSH2 0x4C56 JUMP JUMPDEST DUP2 MSTORE PUSH1 0x20 ADD PUSH2 0x3CD2 PUSH3 0x11A1F PUSH8 0xDE0B6B3A7640000 PUSH2 0x4C56 JUMP JUMPDEST DUP2 MSTORE PUSH1 0x20 ADD PUSH2 0x3CEC PUSH3 0x11A1F PUSH8 0xDE0B6B3A7640000 PUSH2 0x4C56 JUMP JUMPDEST DUP2 MSTORE PUSH1 0x20 ADD PUSH2 0x3D06 PUSH3 0x11A1F PUSH8 0xDE0B6B3A7640000 PUSH2 0x4C56 JUMP JUMPDEST DUP2 MSTORE PUSH1 0x20 ADD PUSH2 0x3D20 PUSH3 0x11A1F PUSH8 0xDE0B6B3A7640000 PUSH2 0x4C56 JUMP JUMPDEST DUP2 MSTORE PUSH1 0x20 ADD PUSH2 0x3D3A PUSH3 0x11A1F PUSH8 0xDE0B6B3A7640000 PUSH2 0x4C56 JUMP JUMPDEST DUP2 MSTORE PUSH1 0x20 ADD PUSH2 0x3D54 PUSH3 0x11A1F PUSH8 0xDE0B6B3A7640000 PUSH2 0x4C56 JUMP JUMPDEST DUP2 MSTORE PUSH1 0x20 ADD PUSH2 0x3D6E PUSH3 0x11A1F PUSH8 0xDE0B6B3A7640000 PUSH2 0x4C56 JUMP JUMPDEST DUP2 MSTORE PUSH1 0x20 ADD PUSH2 0x3D88 PUSH3 0x11A1F PUSH8 0xDE0B6B3A7640000 PUSH2 0x4C56 JUMP JUMPDEST DUP2 MSTORE PUSH1 0x20 ADD PUSH2 0x3DA2 PUSH3 0x11A1F PUSH8 0xDE0B6B3A7640000 PUSH2 0x4C56 JUMP JUMPDEST DUP2 MSTORE PUSH1 0x20 ADD PUSH2 0x3DBC PUSH3 0x11A1F PUSH8 0xDE0B6B3A7640000 PUSH2 0x4C56 JUMP JUMPDEST DUP2 MSTORE PUSH1 0x20 ADD PUSH2 0x3DD6 PUSH3 0x11A1F PUSH8 0xDE0B6B3A7640000 PUSH2 0x4C56 JUMP JUMPDEST DUP2 MSTORE PUSH1 0x20 ADD PUSH2 0x3DF0 PUSH3 0x11A1F PUSH8 0xDE0B6B3A7640000 PUSH2 0x4C56 JUMP JUMPDEST DUP2 MSTORE PUSH1 0x20 ADD PUSH2 0x3E0A PUSH3 0x11A1F PUSH8 0xDE0B6B3A7640000 PUSH2 0x4C56 JUMP JUMPDEST DUP2 MSTORE PUSH1 0x20 ADD PUSH2 0x3E24 PUSH3 0x11A1F PUSH8 0xDE0B6B3A7640000 PUSH2 0x4C56 JUMP JUMPDEST DUP2 MSTORE PUSH1 0x20 ADD PUSH2 0x3E3E PUSH3 0x11A1F PUSH8 0xDE0B6B3A7640000 PUSH2 0x4C56 JUMP JUMPDEST DUP2 MSTORE PUSH1 0x20 ADD PUSH2 0x3E58 PUSH3 0x11A1F PUSH8 0xDE0B6B3A7640000 PUSH2 0x4C56 JUMP JUMPDEST DUP2 MSTORE PUSH1 0x20 ADD PUSH2 0x3E72 PUSH3 0x11A1F PUSH8 0xDE0B6B3A7640000 PUSH2 0x4C56 JUMP JUMPDEST DUP2 MSTORE PUSH1 0x20 ADD PUSH2 0x3E8C PUSH3 0x11A1F PUSH8 0xDE0B6B3A7640000 PUSH2 0x4C56 JUMP JUMPDEST DUP2 MSTORE PUSH1 0x20 ADD PUSH2 0x3EA6 PUSH3 0x11A1F PUSH8 0xDE0B6B3A7640000 PUSH2 0x4C56 JUMP JUMPDEST DUP2 MSTORE PUSH1 0x20 ADD PUSH2 0x2BFC PUSH3 0x11A1F PUSH8 0xDE0B6B3A7640000 PUSH2 0x4C56 JUMP JUMPDEST PUSH2 0x3EC8 PUSH2 0x4E25 JUMP JUMPDEST PUSH1 0x40 MLOAD DUP1 PUSH2 0x560 ADD PUSH1 0x40 MSTORE DUP1 PUSH1 0x0 DUP2 MSTORE PUSH1 0x20 ADD PUSH1 0x0 DUP2 MSTORE PUSH1 0x20 ADD PUSH1 0x0 DUP2 MSTORE PUSH1 0x20 ADD PUSH1 0x0 DUP2 MSTORE PUSH1 0x20 ADD PUSH1 0x0 DUP2 MSTORE PUSH1 0x20 ADD PUSH1 0x0 DUP2 MSTORE PUSH1 0x20 ADD PUSH1 0x0 DUP2 MSTORE PUSH1 0x20 ADD PUSH2 0x3F19 PUSH8 0x4563918244F40000 PUSH2 0x1B51 PUSH2 0xC29 JUMP JUMPDEST DUP2 MSTORE PUSH1 0x20 ADD PUSH2 0x3F32 PUSH8 0x4563918244F40000 PUSH2 0x1B51 PUSH2 0xC29 JUMP JUMPDEST DUP2 MSTORE PUSH1 0x20 ADD PUSH2 0x3F4B PUSH8 0x4563918244F40000 PUSH2 0x1B51 PUSH2 0xC29 JUMP JUMPDEST DUP2 MSTORE PUSH1 0x20 ADD PUSH2 0x3F64 PUSH8 0x4563918244F40000 PUSH2 0x1B51 PUSH2 0xC29 JUMP JUMPDEST DUP2 MSTORE PUSH1 0x20 ADD PUSH2 0x3F7D PUSH8 0x4563918244F40000 PUSH2 0x1B51 PUSH2 0xC29 JUMP JUMPDEST DUP2 MSTORE PUSH1 0x20 ADD PUSH2 0x3F96 PUSH8 0x4563918244F40000 PUSH2 0x1B51 PUSH2 0xC29 JUMP JUMPDEST DUP2 MSTORE PUSH1 0x20 ADD PUSH2 0x3FAF PUSH8 0x4563918244F40000 PUSH2 0x1B51 PUSH2 0xC29 JUMP JUMPDEST DUP2 MSTORE PUSH1 0x20 ADD PUSH2 0x3FC8 PUSH8 0x4563918244F40000 PUSH2 0x1B51 PUSH2 0xC29 JUMP JUMPDEST DUP2 MSTORE PUSH1 0x20 ADD PUSH2 0x3FE1 PUSH8 0x4563918244F40000 PUSH2 0x1B51 PUSH2 0xC29 JUMP JUMPDEST DUP2 MSTORE PUSH1 0x20 ADD PUSH2 0x3FFA PUSH8 0x4563918244F40000 PUSH2 0x1B51 PUSH2 0xC29 JUMP JUMPDEST DUP2 MSTORE PUSH1 0x20 ADD PUSH2 0x4013 PUSH8 0x4563918244F40000 PUSH2 0x1B51 PUSH2 0xC29 JUMP JUMPDEST DUP2 MSTORE PUSH1 0x20 ADD PUSH2 0x402C PUSH8 0x4563918244F40000 PUSH2 0x1B51 PUSH2 0xC29 JUMP JUMPDEST DUP2 MSTORE PUSH1 0x20 ADD PUSH2 0x4045 PUSH8 0x4563918244F40000 PUSH2 0x1B51 PUSH2 0xC29 JUMP JUMPDEST DUP2 MSTORE PUSH1 0x20 ADD PUSH2 0x405E PUSH8 0x446AE0E136AD0000 PUSH2 0x1B51 PUSH2 0xC29 JUMP JUMPDEST DUP2 MSTORE PUSH1 0x20 ADD PUSH1 0x0 DUP2 MSTORE PUSH1 0x20 ADD PUSH1 0x0 DUP2 MSTORE PUSH1 0x20 ADD PUSH1 0x0 DUP2 MSTORE PUSH1 0x20 ADD PUSH1 0x0 DUP2 MSTORE PUSH1 0x20 ADD PUSH1 0x0 DUP2 MSTORE PUSH1 0x20 ADD PUSH1 0x0 DUP2 MSTORE PUSH1 0x20 ADD PUSH1 0x0 DUP2 MSTORE PUSH1 0x20 ADD PUSH1 0x0 DUP2 MSTORE PUSH1 0x20 ADD PUSH1 0x0 DUP2 MSTORE PUSH1 0x20 ADD PUSH1 0x0 DUP2 MSTORE PUSH1 0x20 ADD PUSH1 0x0 DUP2 MSTORE PUSH1 0x20 ADD PUSH1 0x0 DUP2 MSTORE PUSH1 0x20 ADD PUSH1 0x0 DUP2 MSTORE PUSH1 0x20 ADD PUSH1 0x0 DUP2 MSTORE PUSH1 0x20 ADD PUSH1 0x0 DUP2 MSTORE PUSH1 0x20 ADD PUSH1 0x0 DUP2 MSTORE PUSH1 0x20 ADD PUSH1 0x0 DUP2 MSTORE PUSH1 0x20 ADD PUSH1 0x0 DUP2 MSTORE PUSH1 0x20 ADD PUSH1 0x0 DUP2 MSTORE PUSH1 0x20 ADD PUSH1 0x0 DUP2 MSTORE PUSH1 0x20 ADD PUSH1 0x0 DUP2 MSTORE PUSH1 0x20 ADD PUSH1 0x0 DUP2 MSTORE POP SWAP1 POP SWAP1 JUMP JUMPDEST PUSH2 0x4108 PUSH2 0x4E25 JUMP JUMPDEST PUSH1 0x40 MLOAD DUP1 PUSH2 0x560 ADD PUSH1 0x40 MSTORE DUP1 PUSH2 0x4129 PUSH3 0xF4240 PUSH8 0xDE0B6B3A7640000 PUSH2 0x4C56 JUMP JUMPDEST DUP2 MSTORE PUSH1 0x20 ADD PUSH1 0x0 DUP2 MSTORE PUSH1 0x20 ADD PUSH1 0x0 DUP2 MSTORE PUSH1 0x20 ADD PUSH1 0x0 DUP2 MSTORE PUSH1 0x20 ADD PUSH2 0x4158 PUSH3 0xF4240 PUSH8 0xDE0B6B3A7640000 PUSH2 0x4C56 JUMP JUMPDEST DUP2 MSTORE PUSH1 0x20 ADD PUSH1 0x0 DUP2 MSTORE PUSH1 0x20 ADD PUSH1 0x0 DUP2 MSTORE PUSH1 0x20 ADD PUSH2 0x4180 PUSH3 0xF4240 PUSH8 0xDE0B6B3A7640000 PUSH2 0x4C56 JUMP JUMPDEST DUP2 MSTORE PUSH1 0x20 ADD PUSH1 0x0 DUP2 MSTORE PUSH1 0x20 ADD PUSH1 0x0 DUP2 MSTORE PUSH1 0x20 ADD PUSH2 0x41A8 PUSH3 0xF4240 PUSH8 0xDE0B6B3A7640000 PUSH2 0x4C56 JUMP JUMPDEST DUP2 MSTORE PUSH1 0x20 ADD PUSH1 0x0 DUP2 MSTORE PUSH1 0x20 ADD PUSH1 0x0 DUP2 MSTORE PUSH1 0x20 ADD PUSH2 0x41D0 PUSH3 0x51615 PUSH8 0xDE0B6B3A7640000 PUSH2 0x4C56 JUMP JUMPDEST DUP2 MSTORE PUSH1 0x20 ADD PUSH2 0x41EA PUSH3 0x51615 PUSH8 0xDE0B6B3A7640000 PUSH2 0x4C56 JUMP JUMPDEST DUP2 MSTORE PUSH1 0x20 ADD PUSH2 0x4204 PUSH3 0x51615 PUSH8 0xDE0B6B3A7640000 PUSH2 0x4C56 JUMP JUMPDEST DUP2 MSTORE PUSH1 0x20 ADD PUSH2 0x421E PUSH3 0x51615 PUSH8 0xDE0B6B3A7640000 PUSH2 0x4C56 JUMP JUMPDEST DUP2 MSTORE PUSH1 0x20 ADD PUSH2 0x4238 PUSH3 0x51615 PUSH8 0xDE0B6B3A7640000 PUSH2 0x4C56 JUMP JUMPDEST DUP2 MSTORE PUSH1 0x20 ADD PUSH2 0x4252 PUSH3 0x51615 PUSH8 0xDE0B6B3A7640000 PUSH2 0x4C56 JUMP JUMPDEST DUP2 MSTORE PUSH1 0x20 ADD PUSH2 0x426C PUSH3 0x51615 PUSH8 0xDE0B6B3A7640000 PUSH2 0x4C56 JUMP JUMPDEST DUP2 MSTORE PUSH1 0x20 ADD PUSH2 0x4286 PUSH3 0x51615 PUSH8 0xDE0B6B3A7640000 PUSH2 0x4C56 JUMP JUMPDEST DUP2 MSTORE PUSH1 0x20 ADD PUSH2 0x42A0 PUSH3 0x51615 PUSH8 0xDE0B6B3A7640000 PUSH2 0x4C56 JUMP JUMPDEST DUP2 MSTORE PUSH1 0x20 ADD PUSH2 0x42BA PUSH3 0x51615 PUSH8 0xDE0B6B3A7640000 PUSH2 0x4C56 JUMP JUMPDEST DUP2 MSTORE PUSH1 0x20 ADD PUSH2 0x42D4 PUSH3 0x51615 PUSH8 0xDE0B6B3A7640000 PUSH2 0x4C56 JUMP JUMPDEST DUP2 MSTORE PUSH1 0x20 ADD PUSH2 0x42EE PUSH3 0x51615 PUSH8 0xDE0B6B3A7640000 PUSH2 0x4C56 JUMP JUMPDEST DUP2 MSTORE PUSH1 0x20 ADD PUSH2 0x4308 PUSH3 0x51615 PUSH8 0xDE0B6B3A7640000 PUSH2 0x4C56 JUMP JUMPDEST DUP2 MSTORE PUSH1 0x20 ADD PUSH2 0x4322 PUSH3 0x51615 PUSH8 0xDE0B6B3A7640000 PUSH2 0x4C56 JUMP JUMPDEST DUP2 MSTORE PUSH1 0x20 ADD PUSH2 0x433C PUSH3 0x51615 PUSH8 0xDE0B6B3A7640000 PUSH2 0x4C56 JUMP JUMPDEST DUP2 MSTORE PUSH1 0x20 ADD PUSH2 0x4356 PUSH3 0x51615 PUSH8 0xDE0B6B3A7640000 PUSH2 0x4C56 JUMP JUMPDEST DUP2 MSTORE PUSH1 0x20 ADD PUSH2 0x4370 PUSH3 0x51615 PUSH8 0xDE0B6B3A7640000 PUSH2 0x4C56 JUMP JUMPDEST DUP2 MSTORE PUSH1 0x20 ADD PUSH2 0x438A PUSH3 0x51615 PUSH8 0xDE0B6B3A7640000 PUSH2 0x4C56 JUMP JUMPDEST DUP2 MSTORE PUSH1 0x20 ADD PUSH2 0x43A4 PUSH3 0x51615 PUSH8 0xDE0B6B3A7640000 PUSH2 0x4C56 JUMP JUMPDEST DUP2 MSTORE PUSH1 0x20 ADD PUSH2 0x43BE PUSH3 0x51615 PUSH8 0xDE0B6B3A7640000 PUSH2 0x4C56 JUMP JUMPDEST DUP2 MSTORE PUSH1 0x20 ADD PUSH2 0x43D8 PUSH3 0x51615 PUSH8 0xDE0B6B3A7640000 PUSH2 0x4C56 JUMP JUMPDEST DUP2 MSTORE PUSH1 0x20 ADD PUSH2 0x43F2 PUSH3 0x51615 PUSH8 0xDE0B6B3A7640000 PUSH2 0x4C56 JUMP JUMPDEST DUP2 MSTORE PUSH1 0x20 ADD PUSH2 0x440C PUSH3 0x51615 PUSH8 0xDE0B6B3A7640000 PUSH2 0x4C56 JUMP JUMPDEST DUP2 MSTORE PUSH1 0x20 ADD PUSH2 0x4426 PUSH3 0x51615 PUSH8 0xDE0B6B3A7640000 PUSH2 0x4C56 JUMP JUMPDEST DUP2 MSTORE PUSH1 0x20 ADD PUSH2 0x4440 PUSH3 0x51615 PUSH8 0xDE0B6B3A7640000 PUSH2 0x4C56 JUMP JUMPDEST DUP2 MSTORE PUSH1 0x20 ADD PUSH2 0x445A PUSH3 0x51615 PUSH8 0xDE0B6B3A7640000 PUSH2 0x4C56 JUMP JUMPDEST DUP2 MSTORE PUSH1 0x20 ADD PUSH2 0x4474 PUSH3 0x51615 PUSH8 0xDE0B6B3A7640000 PUSH2 0x4C56 JUMP JUMPDEST DUP2 MSTORE PUSH1 0x20 ADD PUSH2 0x448E PUSH3 0x51615 PUSH8 0xDE0B6B3A7640000 PUSH2 0x4C56 JUMP JUMPDEST DUP2 MSTORE PUSH1 0x20 ADD PUSH2 0x44A8 PUSH3 0x51615 PUSH8 0xDE0B6B3A7640000 PUSH2 0x4C56 JUMP JUMPDEST DUP2 MSTORE PUSH1 0x20 ADD PUSH2 0x2BFC PUSH3 0x51615 PUSH8 0xDE0B6B3A7640000 PUSH2 0x4C56 JUMP JUMPDEST PUSH1 0x1 SLOAD PUSH2 0x44CE SWAP1 PUSH2 0x2484 JUMP JUMPDEST ISZERO PUSH2 0xE13 JUMPI PUSH1 0x3 SLOAD PUSH1 0x1 PUSH1 0x1 PUSH1 0xA0 SHL SUB AND ISZERO DUP1 ISZERO PUSH2 0x44FF JUMPI PUSH1 0x3 DUP1 SLOAD PUSH1 0x1 PUSH1 0x1 PUSH1 0xA0 SHL SUB NOT AND CALLER OR SWAP1 SSTORE PUSH1 0x1 SLOAD PUSH1 0x4 SSTORE JUMPDEST DUP2 PUSH2 0x4546 JUMPI PUSH1 0x40 MLOAD PUSH3 0x461BCD PUSH1 0xE5 SHL DUP2 MSTORE PUSH1 0x20 PUSH1 0x4 DUP3 ADD MSTORE PUSH1 0x17 PUSH1 0x24 DUP3 ADD MSTORE PUSH23 0x416D6F756E74206D696E742063616E6E6F74206265203 PUSH1 0x4C SHL PUSH1 0x44 DUP3 ADD MSTORE PUSH1 0x64 ADD PUSH2 0xDCC JUMP JUMPDEST ADDRESS PUSH1 0x0 SWAP1 DUP2 MSTORE PUSH1 0xB PUSH1 0x20 MSTORE PUSH1 0x40 SWAP1 KECCAK256 SLOAD PUSH2 0x4560 SWAP1 DUP4 PUSH2 0xC3E JUMP JUMPDEST ADDRESS PUSH1 0x0 SWAP1 DUP2 MSTORE PUSH1 0xB PUSH1 0x20 MSTORE PUSH1 0x40 SWAP1 KECCAK256 SSTORE PUSH1 0xF SLOAD PUSH2 0xDF2 SWAP1 DUP4 PUSH2 0xC3E JUMP JUMPDEST PUSH1 0x0 DUP3 PUSH1 0x20 ADD MLOAD PUSH1 0x0 EQ ISZERO PUSH2 0x4594 JUMPI POP PUSH1 0x0 PUSH2 0xC38 JUMP JUMPDEST PUSH11 0x52B7D2DCC80CD2E4000000 PUSH2 0x45AD DUP5 PUSH1 0x40 ADD MLOAD PUSH2 0x4CD8 JUMP JUMPDEST PUSH1 0x80 DUP6 ADD MLOAD PUSH2 0x45BC SWAP1 DUP6 PUSH2 0x54F6 JUMP JUMPDEST PUSH2 0x45C6 SWAP2 SWAP1 PUSH2 0x54F6 JUMP JUMPDEST PUSH2 0xC35 SWAP2 SWAP1 PUSH2 0x5215 JUMP JUMPDEST CALLER PUSH1 0x0 SWAP1 DUP2 MSTORE PUSH1 0xA PUSH1 0x20 MSTORE PUSH1 0x40 DUP2 KECCAK256 SLOAD PUSH1 0x9 DUP1 SLOAD DUP4 SWAP3 SWAP2 DUP4 SWAP2 DUP4 SWAP1 DUP2 LT PUSH2 0x45F9 JUMPI PUSH2 0x45F9 PUSH2 0x5344 JUMP JUMPDEST SWAP1 PUSH1 0x0 MSTORE PUSH1 0x20 PUSH1 0x0 KECCAK256 SWAP1 PUSH1 0x2 MUL ADD PUSH1 0x1 ADD DUP6 DUP2 SLOAD DUP2 LT PUSH2 0x461B JUMPI PUSH2 0x461B PUSH2 0x5344 JUMP JUMPDEST PUSH1 0x0 SWAP2 DUP3 MSTORE PUSH1 0x20 SWAP2 DUP3 SWAP1 KECCAK256 PUSH1 0x40 DUP1 MLOAD PUSH1 0xC0 DUP2 ADD DUP3 MSTORE PUSH1 0x6 SWAP1 SWAP4 MUL SWAP1 SWAP2 ADD DUP1 SLOAD PUSH1 0x1 PUSH1 0x1 PUSH1 0xA0 SHL SUB AND DUP4 MSTORE PUSH1 0x1 DUP2 ADD SLOAD SWAP4 DUP4 ADD SWAP4 SWAP1 SWAP4 MSTORE PUSH1 0x2 DUP4 ADD SLOAD SWAP1 DUP3 ADD MSTORE PUSH1 0x3 DUP3 ADD SLOAD PUSH1 0x60 DUP3 ADD MSTORE PUSH1 0x4 DUP3 ADD SLOAD PUSH1 0x80 DUP3 ADD MSTORE PUSH1 0x5 SWAP1 SWAP2 ADD SLOAD PUSH1 0xA0 DUP3 ADD DUP2 SWAP1 MSTORE SWAP1 SWAP2 POP TIMESTAMP LT ISZERO PUSH2 0x469D JUMPI PUSH1 0x40 MLOAD PUSH3 0x461BCD PUSH1 0xE5 SHL DUP2 MSTORE PUSH1 0x4 ADD PUSH2 0xDCC SWAP1 PUSH2 0x5515 JUMP JUMPDEST DUP6 DUP2 PUSH1 0x20 ADD MLOAD LT ISZERO PUSH2 0x470D JUMPI PUSH1 0x40 MLOAD PUSH3 0x461BCD PUSH1 0xE5 SHL DUP2 MSTORE PUSH1 0x20 PUSH1 0x4 DUP3 ADD MSTORE PUSH1 0x33 PUSH1 0x24 DUP3 ADD MSTORE PUSH32 0x5374616B61626C653A2043616E6E6F74207769746864726177206D6F72652074 PUSH1 0x44 DUP3 ADD MSTORE PUSH19 0x1A185B881E5BDD481A185D99481CDD185AD959 PUSH1 0x6A SHL PUSH1 0x64 DUP3 ADD MSTORE PUSH1 0x84 ADD PUSH2 0xDCC JUMP JUMPDEST PUSH1 0x0 PUSH2 0x4719 DUP3 DUP9 PUSH2 0x457D JUMP JUMPDEST SWAP1 POP PUSH1 0x0 DUP3 PUSH1 0x40 ADD MLOAD DUP4 PUSH1 0xA0 ADD MLOAD PUSH2 0x4731 SWAP2 SWAP1 PUSH2 0x53DD JUMP JUMPDEST SWAP1 POP DUP8 DUP4 PUSH1 0x20 ADD MLOAD PUSH2 0x4743 SWAP2 SWAP1 PUSH2 0x53DD JUMP JUMPDEST PUSH1 0x20 DUP5 ADD DUP2 SWAP1 MSTORE PUSH2 0x47C5 JUMPI PUSH1 0x9 DUP5 DUP2 SLOAD DUP2 LT PUSH2 0x4761 JUMPI PUSH2 0x4761 PUSH2 0x5344 JUMP JUMPDEST SWAP1 PUSH1 0x0 MSTORE PUSH1 0x20 PUSH1 0x0 KECCAK256 SWAP1 PUSH1 0x2 MUL ADD PUSH1 0x1 ADD DUP8 DUP2 SLOAD DUP2 LT PUSH2 0x4783 JUMPI PUSH2 0x4783 PUSH2 0x5344 JUMP JUMPDEST PUSH1 0x0 SWAP2 DUP3 MSTORE PUSH1 0x20 DUP3 KECCAK256 PUSH1 0x6 SWAP1 SWAP2 MUL ADD DUP1 SLOAD PUSH1 0x1 PUSH1 0x1 PUSH1 0xA0 SHL SUB NOT AND DUP2 SSTORE PUSH1 0x1 DUP2 ADD DUP3 SWAP1 SSTORE PUSH1 0x2 DUP2 ADD DUP3 SWAP1 SSTORE PUSH1 0x3 DUP2 ADD DUP3 SWAP1 SSTORE PUSH1 0x4 DUP2 ADD DUP3 SWAP1 SSTORE PUSH1 0x5 ADD SSTORE PUSH2 0x48B3 JUMP JUMPDEST DUP3 PUSH1 0x20 ADD MLOAD PUSH1 0x9 DUP6 DUP2 SLOAD DUP2 LT PUSH2 0x47DD JUMPI PUSH2 0x47DD PUSH2 0x5344 JUMP JUMPDEST SWAP1 PUSH1 0x0 MSTORE PUSH1 0x20 PUSH1 0x0 KECCAK256 SWAP1 PUSH1 0x2 MUL ADD PUSH1 0x1 ADD DUP9 DUP2 SLOAD DUP2 LT PUSH2 0x47FF JUMPI PUSH2 0x47FF PUSH2 0x5344 JUMP JUMPDEST SWAP1 PUSH1 0x0 MSTORE PUSH1 0x20 PUSH1 0x0 KECCAK256 SWAP1 PUSH1 0x6 MUL ADD PUSH1 0x1 ADD DUP2 SWAP1 SSTORE POP TIMESTAMP PUSH1 0x9 DUP6 DUP2 SLOAD DUP2 LT PUSH2 0x4828 JUMPI PUSH2 0x4828 PUSH2 0x5344 JUMP JUMPDEST SWAP1 PUSH1 0x0 MSTORE PUSH1 0x20 PUSH1 0x0 KECCAK256 SWAP1 PUSH1 0x2 MUL ADD PUSH1 0x1 ADD DUP9 DUP2 SLOAD DUP2 LT PUSH2 0x484A JUMPI PUSH2 0x484A PUSH2 0x5344 JUMP JUMPDEST PUSH1 0x0 SWAP2 DUP3 MSTORE PUSH1 0x20 SWAP1 SWAP2 KECCAK256 PUSH1 0x2 PUSH1 0x6 SWAP1 SWAP3 MUL ADD ADD SSTORE PUSH2 0x4868 DUP2 TIMESTAMP PUSH2 0x5237 JUMP JUMPDEST PUSH1 0x9 DUP6 DUP2 SLOAD DUP2 LT PUSH2 0x487B JUMPI PUSH2 0x487B PUSH2 0x5344 JUMP JUMPDEST SWAP1 PUSH1 0x0 MSTORE PUSH1 0x20 PUSH1 0x0 KECCAK256 SWAP1 PUSH1 0x2 MUL ADD PUSH1 0x1 ADD DUP9 DUP2 SLOAD DUP2 LT PUSH2 0x489D JUMPI PUSH2 0x489D PUSH2 0x5344 JUMP JUMPDEST SWAP1 PUSH1 0x0 MSTORE PUSH1 0x20 PUSH1 0x0 KECCAK256 SWAP1 PUSH1 0x6 MUL ADD PUSH1 0x5 ADD DUP2 SWAP1 SSTORE POP JUMPDEST POP SWAP6 SWAP7 SWAP5 POP POP POP POP POP JUMP JUMPDEST PUSH1 0x1 PUSH1 0x1 PUSH1 0xA0 SHL SUB DUP3 AND PUSH2 0x4920 JUMPI PUSH1 0x40 MLOAD PUSH3 0x461BCD PUSH1 0xE5 SHL DUP2 MSTORE PUSH1 0x20 PUSH1 0x4 DUP3 ADD MSTORE PUSH1 0x24 DUP1 DUP3 ADD MSTORE PUSH32 0x54616C6178546F6B656E3A206D696E7420746F20746865207A65726F20616464 PUSH1 0x44 DUP3 ADD MSTORE PUSH4 0x72657373 PUSH1 0xE0 SHL PUSH1 0x64 DUP3 ADD MSTORE PUSH1 0x84 ADD PUSH2 0xDCC JUMP JUMPDEST PUSH1 0xF SLOAD PUSH2 0x492D SWAP1 DUP3 PUSH2 0xC3E JUMP JUMPDEST PUSH1 0xF SSTORE PUSH1 0x1 PUSH1 0x1 PUSH1 0xA0 SHL SUB DUP3 AND PUSH1 0x0 SWAP1 DUP2 MSTORE PUSH1 0xB PUSH1 0x20 MSTORE PUSH1 0x40 SWAP1 KECCAK256 SLOAD PUSH2 0x4953 SWAP1 DUP3 PUSH2 0xC3E JUMP JUMPDEST PUSH1 0x1 PUSH1 0x1 PUSH1 0xA0 SHL SUB DUP4 AND PUSH1 0x0 DUP2 DUP2 MSTORE PUSH1 0xB PUSH1 0x20 MSTORE PUSH1 0x40 DUP1 DUP3 KECCAK256 SWAP4 SWAP1 SWAP4 SSTORE SWAP2 MLOAD SWAP1 SWAP2 SWAP1 PUSH32 0xDDF252AD1BE2C89B69C2B068FC378DAA952BA7F163C4A11628F55A4DF523B3EF SWAP1 PUSH2 0x3730 SWAP1 DUP6 DUP2 MSTORE PUSH1 0x20 ADD SWAP1 JUMP JUMPDEST CALLER PUSH1 0x0 SWAP1 DUP2 MSTORE PUSH1 0xA PUSH1 0x20 MSTORE PUSH1 0x40 DUP2 KECCAK256 SLOAD PUSH1 0x9 DUP1 SLOAD DUP4 SWAP3 SWAP2 DUP4 SWAP2 DUP4 SWAP1 DUP2 LT PUSH2 0x49CD JUMPI PUSH2 0x49CD PUSH2 0x5344 JUMP JUMPDEST SWAP1 PUSH1 0x0 MSTORE PUSH1 0x20 PUSH1 0x0 KECCAK256 SWAP1 PUSH1 0x2 MUL ADD PUSH1 0x1 ADD DUP6 DUP2 SLOAD DUP2 LT PUSH2 0x49EF JUMPI PUSH2 0x49EF PUSH2 0x5344 JUMP JUMPDEST PUSH1 0x0 SWAP2 DUP3 MSTORE PUSH1 0x20 SWAP2 DUP3 SWAP1 KECCAK256 PUSH1 0x40 DUP1 MLOAD PUSH1 0xC0 DUP2 ADD DUP3 MSTORE PUSH1 0x6 SWAP1 SWAP4 MUL SWAP1 SWAP2 ADD DUP1 SLOAD PUSH1 0x1 PUSH1 0x1 PUSH1 0xA0 SHL SUB AND DUP4 MSTORE PUSH1 0x1 DUP2 ADD SLOAD SWAP4 DUP4 ADD SWAP4 SWAP1 SWAP4 MSTORE PUSH1 0x2 DUP4 ADD SLOAD SWAP1 DUP3 ADD MSTORE PUSH1 0x3 DUP3 ADD SLOAD PUSH1 0x60 DUP3 ADD MSTORE PUSH1 0x4 DUP3 ADD SLOAD PUSH1 0x80 DUP3 ADD MSTORE PUSH1 0x5 SWAP1 SWAP2 ADD SLOAD PUSH1 0xA0 DUP3 ADD DUP2 SWAP1 MSTORE SWAP1 SWAP2 POP TIMESTAMP GT ISZERO PUSH2 0x4A71 JUMPI PUSH1 0x40 MLOAD PUSH3 0x461BCD PUSH1 0xE5 SHL DUP2 MSTORE PUSH1 0x4 ADD PUSH2 0xDCC SWAP1 PUSH2 0x5515 JUMP JUMPDEST PUSH1 0x0 DUP2 PUSH1 0x20 ADD MLOAD GT PUSH2 0x4AF5 JUMPI PUSH1 0x40 MLOAD PUSH3 0x461BCD PUSH1 0xE5 SHL DUP2 MSTORE PUSH1 0x20 PUSH1 0x4 DUP3 ADD MSTORE PUSH1 0x41 PUSH1 0x24 DUP3 ADD MSTORE PUSH32 0x5374616B61626C653A2043616E6E6F742077697468647261772C20796F752064 PUSH1 0x44 DUP3 ADD MSTORE PUSH32 0x6F6E2774206861766520616E79207374616B6520696E207468697320496E6465 PUSH1 0x64 DUP3 ADD MSTORE PUSH1 0xF PUSH1 0xFB SHL PUSH1 0x84 DUP3 ADD MSTORE PUSH1 0xA4 ADD PUSH2 0xDCC JUMP JUMPDEST PUSH1 0x20 DUP2 ADD MLOAD PUSH1 0x0 PUSH2 0x4B06 DUP4 DUP4 PUSH2 0x457D JUMP JUMPDEST SWAP1 POP PUSH1 0x9 DUP5 DUP2 SLOAD DUP2 LT PUSH2 0x4B1B JUMPI PUSH2 0x4B1B PUSH2 0x5344 JUMP JUMPDEST SWAP1 PUSH1 0x0 MSTORE PUSH1 0x20 PUSH1 0x0 KECCAK256 SWAP1 PUSH1 0x2 MUL ADD PUSH1 0x1 ADD DUP8 DUP2 SLOAD DUP2 LT PUSH2 0x4B3D JUMPI PUSH2 0x4B3D PUSH2 0x5344 JUMP JUMPDEST PUSH1 0x0 SWAP2 DUP3 MSTORE PUSH1 0x20 DUP3 KECCAK256 PUSH1 0x6 SWAP1 SWAP2 MUL ADD DUP1 SLOAD PUSH1 0x1 PUSH1 0x1 PUSH1 0xA0 SHL SUB NOT AND DUP2 SSTORE PUSH1 0x1 DUP2 ADD DUP3 SWAP1 SSTORE PUSH1 0x2 DUP2 ADD DUP3 SWAP1 SSTORE PUSH1 0x3 DUP2 ADD DUP3 SWAP1 SSTORE PUSH1 0x4 DUP2 ADD DUP3 SWAP1 SSTORE PUSH1 0x5 ADD SSTORE SWAP1 SWAP7 SWAP1 SWAP6 POP SWAP4 POP POP POP POP JUMP JUMPDEST PUSH1 0x0 DUP2 DUP2 MSTORE PUSH1 0x6 PUSH1 0x20 MSTORE PUSH1 0x40 SWAP1 KECCAK256 SLOAD PUSH1 0x2 SLOAD PUSH2 0x4BA4 SWAP1 PUSH1 0x1 SWAP1 PUSH2 0x53DD JUMP JUMPDEST DUP2 LT ISZERO PUSH2 0x4C2D JUMPI PUSH1 0x2 DUP1 SLOAD PUSH2 0x4BBB SWAP1 PUSH1 0x1 SWAP1 PUSH2 0x53DD JUMP JUMPDEST DUP2 SLOAD DUP2 LT PUSH2 0x4BCB JUMPI PUSH2 0x4BCB PUSH2 0x5344 JUMP JUMPDEST SWAP1 PUSH1 0x0 MSTORE PUSH1 0x20 PUSH1 0x0 KECCAK256 ADD SLOAD PUSH1 0x2 DUP3 DUP2 SLOAD DUP2 LT PUSH2 0x4BE9 JUMPI PUSH2 0x4BE9 PUSH2 0x5344 JUMP JUMPDEST SWAP1 PUSH1 0x0 MSTORE PUSH1 0x20 PUSH1 0x0 KECCAK256 ADD DUP2 SWAP1 SSTORE POP DUP1 PUSH1 0x6 PUSH1 0x0 PUSH1 0x2 DUP5 DUP2 SLOAD DUP2 LT PUSH2 0x4C0F JUMPI PUSH2 0x4C0F PUSH2 0x5344 JUMP JUMPDEST SWAP1 PUSH1 0x0 MSTORE PUSH1 0x20 PUSH1 0x0 KECCAK256 ADD SLOAD DUP2 MSTORE PUSH1 0x20 ADD SWAP1 DUP2 MSTORE PUSH1 0x20 ADD PUSH1 0x0 KECCAK256 DUP2 SWAP1 SSTORE POP JUMPDEST POP PUSH1 0x0 SWAP1 DUP2 MSTORE PUSH1 0x7 PUSH1 0x20 SWAP1 DUP2 MSTORE PUSH1 0x40 DUP1 DUP4 KECCAK256 DUP4 SWAP1 SSTORE PUSH1 0x8 DUP3 MSTORE DUP1 DUP4 KECCAK256 DUP4 SWAP1 SSTORE PUSH1 0x6 SWAP1 SWAP2 MSTORE DUP2 KECCAK256 SSTORE JUMP JUMPDEST PUSH1 0x0 PUSH2 0xC35 DUP3 DUP5 PUSH2 0x54F6 JUMP JUMPDEST PUSH1 0x9 DUP1 SLOAD PUSH1 0x1 SWAP1 DUP2 ADD DUP1 DUP4 SSTORE PUSH1 0x0 SWAP3 DUP4 MSTORE DUP3 SWAP2 PUSH2 0x4C7E SWAP2 PUSH2 0x53DD JUMP JUMPDEST SWAP1 POP DUP3 PUSH1 0x9 DUP3 DUP2 SLOAD DUP2 LT PUSH2 0x4C94 JUMPI PUSH2 0x4C94 PUSH2 0x5344 JUMP JUMPDEST PUSH1 0x0 SWAP2 DUP3 MSTORE PUSH1 0x20 DUP1 DUP4 KECCAK256 PUSH1 0x2 SWAP3 SWAP1 SWAP3 MUL SWAP1 SWAP2 ADD DUP1 SLOAD PUSH1 0x1 PUSH1 0x1 PUSH1 0xA0 SHL SUB NOT AND PUSH1 0x1 PUSH1 0x1 PUSH1 0xA0 SHL SUB SWAP5 DUP6 AND OR SWAP1 SSTORE SWAP5 SWAP1 SWAP2 AND DUP2 MSTORE PUSH1 0xA SWAP1 SWAP4 MSTORE PUSH1 0x40 SWAP1 SWAP3 KECCAK256 DUP3 SWAP1 SSTORE POP SWAP1 JUMP JUMPDEST PUSH1 0x0 DUP1 DUP3 GT PUSH2 0x4D29 JUMPI PUSH1 0x40 MLOAD PUSH3 0x461BCD PUSH1 0xE5 SHL DUP2 MSTORE PUSH1 0x20 PUSH1 0x4 DUP3 ADD MSTORE PUSH1 0x1B PUSH1 0x24 DUP3 ADD MSTORE PUSH32 0x5374616B61626C653A204572726F722074696D657374616D7020300000000000 PUSH1 0x44 DUP3 ADD MSTORE PUSH1 0x64 ADD PUSH2 0xDCC JUMP JUMPDEST PUSH2 0xC38 PUSH2 0x4D36 DUP4 TIMESTAMP PUSH2 0x53DD JUMP JUMPDEST PUSH2 0x4D4A SWAP1 PUSH10 0xD3C21BCECCEDA1000000 PUSH2 0x54F6 JUMP JUMPDEST PUSH4 0x1E13380 PUSH1 0x40 MLOAD DUP1 PUSH1 0x60 ADD PUSH1 0x40 MSTORE DUP1 PUSH1 0x27 DUP2 MSTORE PUSH1 0x20 ADD PUSH2 0x5567 PUSH1 0x27 SWAP2 CODECOPY PUSH1 0x0 DUP2 DUP4 PUSH2 0x4D89 JUMPI PUSH1 0x40 MLOAD PUSH3 0x461BCD PUSH1 0xE5 SHL DUP2 MSTORE PUSH1 0x4 ADD PUSH2 0xDCC SWAP2 SWAP1 PUSH2 0x4E72 JUMP JUMPDEST POP DUP3 DUP5 DUP2 PUSH2 0x4D99 JUMPI PUSH2 0x4D99 PUSH2 0x51E9 JUMP JUMPDEST DIV SWAP5 SWAP4 POP POP POP POP JUMP JUMPDEST DUP3 DUP1 SLOAD DUP3 DUP3 SSTORE SWAP1 PUSH1 0x0 MSTORE PUSH1 0x20 PUSH1 0x0 KECCAK256 SWAP1 DUP2 ADD SWAP3 DUP3 ISZERO PUSH2 0x4DF7 JUMPI SWAP2 PUSH1 0x20 MUL DUP3 ADD JUMPDEST DUP3 DUP2 GT ISZERO PUSH2 0x4DF7 JUMPI DUP3 MLOAD DUP3 SLOAD PUSH1 0x1 PUSH1 0x1 PUSH1 0xA0 SHL SUB NOT AND PUSH1 0x1 PUSH1 0x1 PUSH1 0xA0 SHL SUB SWAP1 SWAP2 AND OR DUP3 SSTORE PUSH1 0x20 SWAP1 SWAP3 ADD SWAP2 PUSH1 0x1 SWAP1 SWAP2 ADD SWAP1 PUSH2 0x4DC2 JUMP JUMPDEST POP PUSH2 0x4E03 SWAP3 SWAP2 POP PUSH2 0x4E44 JUMP JUMPDEST POP SWAP1 JUMP JUMPDEST POP DUP1 SLOAD PUSH1 0x0 DUP3 SSTORE SWAP1 PUSH1 0x0 MSTORE PUSH1 0x20 PUSH1 0x0 KECCAK256 SWAP1 DUP2 ADD SWAP1 PUSH2 0xE13 SWAP2 SWAP1 PUSH2 0x4E44 JUMP JUMPDEST PUSH1 0x40 MLOAD DUP1 PUSH2 0x560 ADD PUSH1 0x40 MSTORE DUP1 PUSH1 0x2B SWAP1 PUSH1 0x20 DUP3 MUL DUP1 CALLDATASIZE DUP4 CALLDATACOPY POP SWAP2 SWAP3 SWAP2 POP POP JUMP JUMPDEST JUMPDEST DUP1 DUP3 GT ISZERO PUSH2 0x4E03 JUMPI PUSH1 0x0 DUP2 SSTORE PUSH1 0x1 ADD PUSH2 0x4E45 JUMP JUMPDEST PUSH1 0x0 PUSH1 0x20 DUP3 DUP5 SUB SLT ISZERO PUSH2 0x4E6B JUMPI PUSH1 0x0 DUP1 REVERT JUMPDEST POP CALLDATALOAD SWAP2 SWAP1 POP JUMP JUMPDEST PUSH1 0x0 PUSH1 0x20 DUP1 DUP4 MSTORE DUP4 MLOAD DUP1 DUP3 DUP6 ADD MSTORE PUSH1 0x0 JUMPDEST DUP2 DUP2 LT ISZERO PUSH2 0x4E9F JUMPI DUP6 DUP2 ADD DUP4 ADD MLOAD DUP6 DUP3 ADD PUSH1 0x40 ADD MSTORE DUP3 ADD PUSH2 0x4E83 JUMP JUMPDEST DUP2 DUP2 GT ISZERO PUSH2 0x4EB1 JUMPI PUSH1 0x0 PUSH1 0x40 DUP4 DUP8 ADD ADD MSTORE JUMPDEST POP PUSH1 0x1F ADD PUSH1 0x1F NOT AND SWAP3 SWAP1 SWAP3 ADD PUSH1 0x40 ADD SWAP4 SWAP3 POP POP POP JUMP JUMPDEST PUSH1 0x1 PUSH1 0x1 PUSH1 0xA0 SHL SUB DUP2 AND DUP2 EQ PUSH2 0xE13 JUMPI PUSH1 0x0 DUP1 REVERT JUMPDEST DUP1 CALLDATALOAD PUSH2 0x4EE7 DUP2 PUSH2 0x4EC7 JUMP JUMPDEST SWAP2 SWAP1 POP JUMP JUMPDEST PUSH1 0x0 DUP1 PUSH1 0x40 DUP4 DUP6 SUB SLT ISZERO PUSH2 0x4EFF JUMPI PUSH1 0x0 DUP1 REVERT JUMPDEST DUP3 CALLDATALOAD PUSH2 0x4F0A DUP2 PUSH2 0x4EC7 JUMP JUMPDEST SWAP5 PUSH1 0x20 SWAP4 SWAP1 SWAP4 ADD CALLDATALOAD SWAP4 POP POP POP JUMP JUMPDEST PUSH1 0x0 DUP2 MLOAD DUP1 DUP5 MSTORE PUSH1 0x20 DUP1 DUP6 ADD SWAP5 POP DUP1 DUP5 ADD PUSH1 0x0 JUMPDEST DUP4 DUP2 LT ISZERO PUSH2 0x4F51 JUMPI DUP2 MLOAD PUSH1 0x1 PUSH1 0x1 PUSH1 0xA0 SHL SUB AND DUP8 MSTORE SWAP6 DUP3 ADD SWAP6 SWAP1 DUP3 ADD SWAP1 PUSH1 0x1 ADD PUSH2 0x4F2C JUMP JUMPDEST POP SWAP5 SWAP6 SWAP5 POP POP POP POP POP JUMP JUMPDEST PUSH1 0x20 DUP2 MSTORE PUSH1 0x0 PUSH2 0xC35 PUSH1 0x20 DUP4 ADD DUP5 PUSH2 0x4F18 JUMP JUMPDEST PUSH4 0x4E487B71 PUSH1 0xE0 SHL PUSH1 0x0 MSTORE PUSH1 0x41 PUSH1 0x4 MSTORE PUSH1 0x24 PUSH1 0x0 REVERT JUMPDEST PUSH1 0x0 PUSH1 0x20 DUP1 DUP4 DUP6 SUB SLT ISZERO PUSH2 0x4F98 JUMPI PUSH1 0x0 DUP1 REVERT JUMPDEST DUP3 CALLDATALOAD PUSH8 0xFFFFFFFFFFFFFFFF DUP1 DUP3 GT ISZERO PUSH2 0x4FB0 JUMPI PUSH1 0x0 DUP1 REVERT JUMPDEST DUP2 DUP6 ADD SWAP2 POP DUP6 PUSH1 0x1F DUP4 ADD SLT PUSH2 0x4FC4 JUMPI PUSH1 0x0 DUP1 REVERT JUMPDEST DUP2 CALLDATALOAD DUP2 DUP2 GT ISZERO PUSH2 0x4FD6 JUMPI PUSH2 0x4FD6 PUSH2 0x4F6F JUMP JUMPDEST DUP1 PUSH1 0x5 SHL PUSH1 0x40 MLOAD PUSH1 0x1F NOT PUSH1 0x3F DUP4 ADD AND DUP2 ADD DUP2 DUP2 LT DUP6 DUP3 GT OR ISZERO PUSH2 0x4FFB JUMPI PUSH2 0x4FFB PUSH2 0x4F6F JUMP JUMPDEST PUSH1 0x40 MSTORE SWAP2 DUP3 MSTORE DUP5 DUP3 ADD SWAP3 POP DUP4 DUP2 ADD DUP6 ADD SWAP2 DUP9 DUP4 GT ISZERO PUSH2 0x5019 JUMPI PUSH1 0x0 DUP1 REVERT JUMPDEST SWAP4 DUP6 ADD SWAP4 JUMPDEST DUP3 DUP6 LT ISZERO PUSH2 0x503E JUMPI PUSH2 0x502F DUP6 PUSH2 0x4EDC JUMP JUMPDEST DUP5 MSTORE SWAP4 DUP6 ADD SWAP4 SWAP3 DUP6 ADD SWAP3 PUSH2 0x501E JUMP JUMPDEST SWAP9 SWAP8 POP POP POP POP POP POP POP POP JUMP JUMPDEST PUSH1 0x0 DUP1 PUSH1 0x0 PUSH1 0x60 DUP5 DUP7 SUB SLT ISZERO PUSH2 0x505F JUMPI PUSH1 0x0 DUP1 REVERT JUMPDEST DUP4 CALLDATALOAD PUSH2 0x506A DUP2 PUSH2 0x4EC7 JUMP JUMPDEST SWAP3 POP PUSH1 0x20 DUP5 ADD CALLDATALOAD PUSH2 0x507A DUP2 PUSH2 0x4EC7 JUMP JUMPDEST SWAP3 SWAP6 SWAP3 SWAP5 POP POP POP PUSH1 0x40 SWAP2 SWAP1 SWAP2 ADD CALLDATALOAD SWAP1 JUMP JUMPDEST PUSH1 0x0 PUSH1 0x20 DUP3 DUP5 SUB SLT ISZERO PUSH2 0x509D JUMPI PUSH1 0x0 DUP1 REVERT JUMPDEST DUP2 CALLDATALOAD PUSH2 0x50A8 DUP2 PUSH2 0x4EC7 JUMP JUMPDEST SWAP4 SWAP3 POP POP POP JUMP JUMPDEST PUSH1 0x0 DUP1 PUSH1 0x40 DUP4 DUP6 SUB SLT ISZERO PUSH2 0x50C2 JUMPI PUSH1 0x0 DUP1 REVERT JUMPDEST DUP3 CALLDATALOAD SWAP2 POP PUSH1 0x20 DUP4 ADD CALLDATALOAD PUSH2 0x50D4 DUP2 PUSH2 0x4EC7 JUMP JUMPDEST DUP1 SWAP2 POP POP SWAP3 POP SWAP3 SWAP1 POP JUMP JUMPDEST PUSH1 0x0 DUP1 PUSH1 0x40 DUP4 DUP6 SUB SLT ISZERO PUSH2 0x50F2 JUMPI PUSH1 0x0 DUP1 REVERT JUMPDEST POP POP DUP1 CALLDATALOAD SWAP3 PUSH1 0x20 SWAP1 SWAP2 ADD CALLDATALOAD SWAP2 POP JUMP JUMPDEST PUSH1 0x0 PUSH1 0x20 DUP3 DUP5 SUB SLT ISZERO PUSH2 0x5113 JUMPI PUSH1 0x0 DUP1 REVERT JUMPDEST DUP2 CALLDATALOAD PUSH2 0xFFFF DUP2 AND DUP2 EQ PUSH2 0x50A8 JUMPI PUSH1 0x0 DUP1 REVERT JUMPDEST PUSH1 0x0 PUSH1 0x20 DUP1 DUP4 MSTORE PUSH1 0x60 DUP1 DUP5 ADD DUP6 MLOAD DUP4 DUP7 ADD MSTORE DUP3 DUP7 ADD MLOAD PUSH1 0x40 DUP1 DUP2 DUP9 ADD MSTORE DUP3 DUP3 MLOAD DUP1 DUP6 MSTORE PUSH1 0x80 SWAP5 POP DUP5 DUP10 ADD SWAP2 POP DUP7 DUP5 ADD SWAP4 POP PUSH1 0x0 JUMPDEST DUP2 DUP2 LT ISZERO PUSH2 0x51AC JUMPI DUP5 MLOAD DUP1 MLOAD PUSH1 0x1 PUSH1 0x1 PUSH1 0xA0 SHL SUB AND DUP5 MSTORE DUP9 DUP2 ADD MLOAD DUP10 DUP6 ADD MSTORE DUP5 DUP2 ADD MLOAD DUP6 DUP6 ADD MSTORE DUP8 DUP2 ADD MLOAD DUP9 DUP6 ADD MSTORE DUP7 DUP2 ADD MLOAD DUP8 DUP6 ADD MSTORE PUSH1 0xA0 SWAP1 DUP2 ADD MLOAD SWAP1 DUP5 ADD MSTORE SWAP4 DUP8 ADD SWAP4 PUSH1 0xC0 SWAP1 SWAP3 ADD SWAP2 PUSH1 0x1 ADD PUSH2 0x5159 JUMP JUMPDEST POP SWAP1 SWAP10 SWAP9 POP POP POP POP POP POP POP POP POP JUMP JUMPDEST PUSH1 0x0 DUP1 PUSH1 0x40 DUP4 DUP6 SUB SLT ISZERO PUSH2 0x51CE JUMPI PUSH1 0x0 DUP1 REVERT JUMPDEST DUP3 CALLDATALOAD PUSH2 0x51D9 DUP2 PUSH2 0x4EC7 JUMP JUMPDEST SWAP2 POP PUSH1 0x20 DUP4 ADD CALLDATALOAD PUSH2 0x50D4 DUP2 PUSH2 0x4EC7 JUMP JUMPDEST PUSH4 0x4E487B71 PUSH1 0xE0 SHL PUSH1 0x0 MSTORE PUSH1 0x12 PUSH1 0x4 MSTORE PUSH1 0x24 PUSH1 0x0 REVERT JUMPDEST PUSH4 0x4E487B71 PUSH1 0xE0 SHL PUSH1 0x0 MSTORE PUSH1 0x11 PUSH1 0x4 MSTORE PUSH1 0x24 PUSH1 0x0 REVERT JUMPDEST PUSH1 0x0 DUP3 PUSH2 0x5232 JUMPI PUSH4 0x4E487B71 PUSH1 0xE0 SHL PUSH1 0x0 MSTORE PUSH1 0x12 PUSH1 0x4 MSTORE PUSH1 0x24 PUSH1 0x0 REVERT JUMPDEST POP DIV SWAP1 JUMP JUMPDEST PUSH1 0x0 DUP3 NOT DUP3 GT ISZERO PUSH2 0x524A JUMPI PUSH2 0x524A PUSH2 0x51FF JUMP JUMPDEST POP ADD SWAP1 JUMP JUMPDEST PUSH1 0x1 DUP2 DUP2 SHR SWAP1 DUP3 AND DUP1 PUSH2 0x5263 JUMPI PUSH1 0x7F DUP3 AND SWAP2 POP JUMPDEST PUSH1 0x20 DUP3 LT DUP2 EQ ISZERO PUSH2 0x5284 JUMPI PUSH4 0x4E487B71 PUSH1 0xE0 SHL PUSH1 0x0 MSTORE PUSH1 0x22 PUSH1 0x4 MSTORE PUSH1 0x24 PUSH1 0x0 REVERT JUMPDEST POP SWAP2 SWAP1 POP JUMP JUMPDEST PUSH1 0x0 PUSH1 0x20 DUP3 DUP5 SUB SLT ISZERO PUSH2 0x529C JUMPI PUSH1 0x0 DUP1 REVERT JUMPDEST DUP2 MLOAD PUSH2 0x50A8 DUP2 PUSH2 0x4EC7 JUMP JUMPDEST PUSH1 0x20 DUP1 DUP3 MSTORE PUSH1 0x32 SWAP1 DUP3 ADD MSTORE PUSH32 0x54616C6178546F6B656E3A204F6E6C7920636C61696D61626C65206279205573 PUSH1 0x40 DUP3 ADD MSTORE PUSH18 0x6572206F6620746869732061646472657373 PUSH1 0x70 SHL PUSH1 0x60 DUP3 ADD MSTORE PUSH1 0x80 ADD SWAP1 JUMP JUMPDEST PUSH2 0x560 DUP2 ADD DUP2 DUP4 PUSH1 0x0 JUMPDEST PUSH1 0x2B DUP2 LT ISZERO PUSH2 0x5322 JUMPI DUP2 MLOAD DUP4 MSTORE PUSH1 0x20 SWAP3 DUP4 ADD SWAP3 SWAP1 SWAP2 ADD SWAP1 PUSH1 0x1 ADD PUSH2 0x5303 JUMP JUMPDEST POP POP POP SWAP3 SWAP2 POP POP JUMP JUMPDEST PUSH1 0x0 PUSH1 0x20 DUP3 DUP5 SUB SLT ISZERO PUSH2 0x533D JUMPI PUSH1 0x0 DUP1 REVERT JUMPDEST POP MLOAD SWAP2 SWAP1 POP JUMP JUMPDEST PUSH4 0x4E487B71 PUSH1 0xE0 SHL PUSH1 0x0 MSTORE PUSH1 0x32 PUSH1 0x4 MSTORE PUSH1 0x24 PUSH1 0x0 REVERT JUMPDEST PUSH1 0x0 PUSH1 0x0 NOT DUP3 EQ ISZERO PUSH2 0x536E JUMPI PUSH2 0x536E PUSH2 0x51FF JUMP JUMPDEST POP PUSH1 0x1 ADD SWAP1 JUMP JUMPDEST PUSH1 0x0 PUSH1 0x40 DUP3 ADD PUSH1 0x40 DUP4 MSTORE DUP1 DUP6 SLOAD DUP1 DUP4 MSTORE PUSH1 0x60 DUP6 ADD SWAP2 POP DUP7 PUSH1 0x0 MSTORE PUSH1 0x20 SWAP3 POP DUP3 PUSH1 0x0 KECCAK256 PUSH1 0x0 JUMPDEST DUP3 DUP2 LT ISZERO PUSH2 0x53BF JUMPI DUP2 SLOAD PUSH1 0x1 PUSH1 0x1 PUSH1 0xA0 SHL SUB AND DUP5 MSTORE SWAP3 DUP5 ADD SWAP3 PUSH1 0x1 SWAP2 DUP3 ADD SWAP2 ADD PUSH2 0x539A JUMP JUMPDEST POP POP POP DUP4 DUP2 SUB DUP3 DUP6 ADD MSTORE PUSH2 0x53D3 DUP2 DUP7 PUSH2 0x4F18 JUMP JUMPDEST SWAP7 SWAP6 POP POP POP POP POP POP JUMP JUMPDEST PUSH1 0x0 DUP3 DUP3 LT ISZERO PUSH2 0x53EF JUMPI PUSH2 0x53EF PUSH2 0x51FF JUMP JUMPDEST POP SUB SWAP1 JUMP JUMPDEST DUP3 DUP5 DUP3 CALLDATACOPY SWAP1 SWAP2 ADD SWAP1 DUP2 MSTORE PUSH1 0x20 ADD SWAP2 SWAP1 POP JUMP JUMPDEST PUSH1 0x1 DUP2 DUP2 JUMPDEST DUP1 DUP6 GT ISZERO PUSH2 0x5441 JUMPI DUP2 PUSH1 0x0 NOT DIV DUP3 GT ISZERO PUSH2 0x5427 JUMPI PUSH2 0x5427 PUSH2 0x51FF JUMP JUMPDEST DUP1 DUP6 AND ISZERO PUSH2 0x5434 JUMPI SWAP2 DUP2 MUL SWAP2 JUMPDEST SWAP4 DUP5 SHR SWAP4 SWAP1 DUP1 MUL SWAP1 PUSH2 0x540B JUMP JUMPDEST POP SWAP3 POP SWAP3 SWAP1 POP JUMP JUMPDEST PUSH1 0x0 DUP3 PUSH2 0x5458 JUMPI POP PUSH1 0x1 PUSH2 0xC38 JUMP JUMPDEST DUP2 PUSH2 0x5465 JUMPI POP PUSH1 0x0 PUSH2 0xC38 JUMP JUMPDEST DUP2 PUSH1 0x1 DUP2 EQ PUSH2 0x547B JUMPI PUSH1 0x2 DUP2 EQ PUSH2 0x5485 JUMPI PUSH2 0x54A1 JUMP JUMPDEST PUSH1 0x1 SWAP2 POP POP PUSH2 0xC38 JUMP JUMPDEST PUSH1 0xFF DUP5 GT ISZERO PUSH2 0x5496 JUMPI PUSH2 0x5496 PUSH2 0x51FF JUMP JUMPDEST POP POP PUSH1 0x1 DUP3 SHL PUSH2 0xC38 JUMP JUMPDEST POP PUSH1 0x20 DUP4 LT PUSH2 0x133 DUP4 LT AND PUSH1 0x4E DUP5 LT PUSH1 0xB DUP5 LT AND OR ISZERO PUSH2 0x54C4 JUMPI POP DUP2 DUP2 EXP PUSH2 0xC38 JUMP JUMPDEST PUSH2 0x54CE DUP4 DUP4 PUSH2 0x5406 JUMP JUMPDEST DUP1 PUSH1 0x0 NOT DIV DUP3 GT ISZERO PUSH2 0x54E2 JUMPI PUSH2 0x54E2 PUSH2 0x51FF JUMP JUMPDEST MUL SWAP4 SWAP3 POP POP POP JUMP JUMPDEST PUSH1 0x0 PUSH2 0xC35 DUP4 DUP4 PUSH2 0x5449 JUMP JUMPDEST PUSH1 0x0 DUP2 PUSH1 0x0 NOT DIV DUP4 GT DUP3 ISZERO ISZERO AND ISZERO PUSH2 0x5510 JUMPI PUSH2 0x5510 PUSH2 0x51FF JUMP JUMPDEST POP MUL SWAP1 JUMP JUMPDEST PUSH1 0x20 DUP1 DUP3 MSTORE PUSH1 0x31 SWAP1 DUP3 ADD MSTORE PUSH32 0x5374616B61626C653A2043616E6E6F74207769746864726177206265666F7265 PUSH1 0x40 DUP3 ADD MSTORE PUSH17 0x207468652072656C656173652074696D65 PUSH1 0x78 SHL PUSH1 0x60 DUP3 ADD MSTORE PUSH1 0x80 ADD SWAP1 JUMP INVALID MSTORE8 PUSH21 0x616B61626C653A204572726F722063616E6E6F7420 PUSH5 0x6976696465 KECCAK256 PUSH21 0x696D657374616D7054616C6178546F6B656E3A2062 PUSH22 0x726E20616D6F756E7420657863656564732062616C61 PUSH15 0x636554616C6178546F6B656E3A2074 PUSH19 0x616E7366657220616D6F756E74206578636565 PUSH5 0x7320616C6C PUSH16 0x77616E636554616C6178546F6B656E3A KECCAK256 PUSH5 0x6563726561 PUSH20 0x656420616C6C6F77616E63652062656C6F77207A PUSH6 0x726F54616C61 PUSH25 0x546F6B656E3A207472616E7366657220616D6F756E74206578 PUSH4 0x65656473 KECCAK256 PUSH3 0x616C61 PUSH15 0x6365A2646970667358221220F9C799 0xC2 PUSH20 0xDACF5D474D3143672C58F3F0A4AF8D4DECF51E6D 0xB7 MUL 0xDC 0x2F 0xBD 0xED 0xCB PUSH5 0x736F6C6343 STOP ADDMOD SIGNEXTEND STOP CALLER PUSH1 0xA0 PUSH1 0x40 MSTORE CALLVALUE DUP1 ISZERO PUSH2 0x10 JUMPI PUSH1 0x0 DUP1 REVERT JUMPDEST POP PUSH1 0x40 MLOAD PUSH2 0x599 CODESIZE SUB DUP1 PUSH2 0x599 DUP4 CODECOPY DUP2 ADD PUSH1 0x40 DUP2 SWAP1 MSTORE PUSH2 0x2F SWAP2 PUSH2 0xB3 JUMP JUMPDEST PUSH1 0x0 DUP3 GT PUSH2 0x98 JUMPI PUSH1 0x40 MLOAD PUSH3 0x461BCD PUSH1 0xE5 SHL DUP2 MSTORE PUSH1 0x20 PUSH1 0x4 DUP3 ADD MSTORE PUSH1 0x2C PUSH1 0x24 DUP3 ADD MSTORE PUSH32 0x546F6B656E54696D654C6F636B3A20416D6F756E74206D757374206772656174 PUSH1 0x44 DUP3 ADD MSTORE PUSH12 0x6572207468616E207A65726F PUSH1 0xA0 SHL PUSH1 0x64 DUP3 ADD MSTORE PUSH1 0x84 ADD PUSH1 0x40 MLOAD DUP1 SWAP2 SUB SWAP1 REVERT JUMPDEST PUSH1 0x0 SWAP2 SWAP1 SWAP2 SSTORE PUSH1 0x1 PUSH1 0x1 PUSH1 0xA0 SHL SUB AND PUSH1 0x80 MSTORE TIMESTAMP PUSH1 0x1 SSTORE PUSH2 0xF0 JUMP JUMPDEST PUSH1 0x0 DUP1 PUSH1 0x40 DUP4 DUP6 SUB SLT ISZERO PUSH2 0xC6 JUMPI PUSH1 0x0 DUP1 REVERT JUMPDEST DUP3 MLOAD PUSH1 0x20 DUP5 ADD MLOAD SWAP1 SWAP3 POP PUSH1 0x1 PUSH1 0x1 PUSH1 0xA0 SHL SUB DUP2 AND DUP2 EQ PUSH2 0xE5 JUMPI PUSH1 0x0 DUP1 REVERT JUMPDEST DUP1 SWAP2 POP POP SWAP3 POP SWAP3 SWAP1 POP JUMP JUMPDEST PUSH1 0x80 MLOAD PUSH2 0x48F PUSH2 0x10A PUSH1 0x0 CODECOPY PUSH1 0x0 PUSH1 0x53 ADD MSTORE PUSH2 0x48F PUSH1 0x0 RETURN INVALID PUSH1 0x80 PUSH1 0x40 MSTORE CALLVALUE DUP1 ISZERO PUSH2 0x10 JUMPI PUSH1 0x0 DUP1 REVERT JUMPDEST POP PUSH1 0x4 CALLDATASIZE LT PUSH2 0x41 JUMPI PUSH1 0x0 CALLDATALOAD PUSH1 0xE0 SHR DUP1 PUSH4 0x38AF3EED EQ PUSH2 0x46 JUMPI DUP1 PUSH4 0xAA8C217C EQ PUSH2 0x82 JUMPI DUP1 PUSH4 0xC8100DCC EQ PUSH2 0x94 JUMPI JUMPDEST PUSH1 0x0 DUP1 REVERT JUMPDEST PUSH1 0x40 MLOAD PUSH1 0x1 PUSH1 0x1 PUSH1 0xA0 SHL SUB PUSH32 0x0 AND DUP2 MSTORE PUSH1 0x20 ADD JUMPDEST PUSH1 0x40 MLOAD DUP1 SWAP2 SUB SWAP1 RETURN JUMPDEST PUSH1 0x0 SLOAD JUMPDEST PUSH1 0x40 MLOAD SWAP1 DUP2 MSTORE PUSH1 0x20 ADD PUSH2 0x79 JUMP JUMPDEST PUSH2 0x86 PUSH2 0xA2 CALLDATASIZE PUSH1 0x4 PUSH2 0x2A4 JUMP JUMPDEST PUSH1 0x0 DUP1 PUSH1 0x0 SLOAD GT PUSH2 0xFA JUMPI PUSH1 0x40 MLOAD PUSH3 0x461BCD PUSH1 0xE5 SHL DUP2 MSTORE PUSH1 0x20 PUSH1 0x4 DUP3 ADD MSTORE PUSH1 0x1D PUSH1 0x24 DUP3 ADD MSTORE PUSH32 0x546F6B656E54696D656C6F636B3A206E6F20746F6B656E73206C656674000000 PUSH1 0x44 DUP3 ADD MSTORE PUSH1 0x64 ADD JUMPDEST PUSH1 0x40 MLOAD DUP1 SWAP2 SUB SWAP1 REVERT JUMPDEST PUSH1 0x0 PUSH2 0x105 DUP4 PUSH2 0x191 JUMP JUMPDEST SWAP1 POP PUSH1 0x0 DUP2 GT PUSH2 0x163 JUMPI PUSH1 0x40 MLOAD PUSH3 0x461BCD PUSH1 0xE5 SHL DUP2 MSTORE PUSH1 0x20 PUSH1 0x4 DUP3 ADD MSTORE PUSH1 0x23 PUSH1 0x24 DUP3 ADD MSTORE PUSH32 0x546F6B656E54696D656C6F636B3A206E6F20746F6B656E7320746F2072656C65 PUSH1 0x44 DUP3 ADD MSTORE PUSH3 0x617365 PUSH1 0xE8 SHL PUSH1 0x64 DUP3 ADD MSTORE PUSH1 0x84 ADD PUSH2 0xF1 JUMP JUMPDEST PUSH2 0x188 PUSH1 0x0 SLOAD DUP3 PUSH1 0x40 MLOAD DUP1 PUSH1 0x60 ADD PUSH1 0x40 MSTORE DUP1 PUSH1 0x3B DUP2 MSTORE PUSH1 0x20 ADD PUSH2 0x41F PUSH1 0x3B SWAP2 CODECOPY PUSH2 0x26C JUMP JUMPDEST PUSH1 0x0 SSTORE SWAP3 SWAP2 POP POP JUMP JUMPDEST PUSH1 0x0 DUP1 PUSH3 0x278D00 PUSH1 0x1 SLOAD TIMESTAMP PUSH2 0x1A6 SWAP2 SWAP1 PUSH2 0x347 JUMP JUMPDEST PUSH2 0x1B0 SWAP2 SWAP1 PUSH2 0x35E JUMP JUMPDEST PUSH1 0x2 SLOAD SWAP1 SWAP2 POP PUSH1 0x0 SWAP1 JUMPDEST DUP3 DUP2 GT PUSH2 0x1F5 JUMPI PUSH2 0x1E1 DUP3 DUP7 DUP4 PUSH1 0x2B DUP2 LT PUSH2 0x1D7 JUMPI PUSH2 0x1D7 PUSH2 0x380 JUMP JUMPDEST PUSH1 0x20 MUL ADD MLOAD PUSH2 0x298 JUMP JUMPDEST SWAP2 POP DUP1 PUSH2 0x1ED DUP2 PUSH2 0x396 JUMP JUMPDEST SWAP2 POP POP PUSH2 0x1BA JUMP JUMPDEST POP PUSH2 0x201 DUP3 PUSH1 0x1 PUSH2 0x3B1 JUMP JUMPDEST PUSH1 0x2 SSTORE DUP1 PUSH2 0x265 JUMPI PUSH1 0x40 MLOAD PUSH3 0x461BCD PUSH1 0xE5 SHL DUP2 MSTORE PUSH1 0x20 PUSH1 0x4 DUP3 ADD MSTORE PUSH1 0x2B PUSH1 0x24 DUP3 ADD MSTORE PUSH32 0x546F6B656E54696D654C6F636B3A2054686572652773206E6F7468696E672074 PUSH1 0x44 DUP3 ADD MSTORE PUSH11 0x1BC818DB185A5B481E595D PUSH1 0xAA SHL PUSH1 0x64 DUP3 ADD MSTORE PUSH1 0x84 ADD PUSH2 0xF1 JUMP JUMPDEST SWAP4 SWAP3 POP POP POP JUMP JUMPDEST PUSH1 0x0 DUP2 DUP5 DUP5 GT ISZERO PUSH2 0x290 JUMPI PUSH1 0x40 MLOAD PUSH3 0x461BCD PUSH1 0xE5 SHL DUP2 MSTORE PUSH1 0x4 ADD PUSH2 0xF1 SWAP2 SWAP1 PUSH2 0x3C9 JUMP JUMPDEST POP POP POP SWAP1 SUB SWAP1 JUMP JUMPDEST PUSH1 0x0 PUSH2 0x265 DUP3 DUP5 PUSH2 0x3B1 JUMP JUMPDEST PUSH1 0x0 PUSH2 0x560 DUP1 DUP4 DUP6 SUB SLT ISZERO PUSH2 0x2B8 JUMPI PUSH1 0x0 DUP1 REVERT JUMPDEST DUP4 PUSH1 0x1F DUP5 ADD SLT PUSH2 0x2C7 JUMPI PUSH1 0x0 DUP1 REVERT JUMPDEST PUSH1 0x40 MLOAD DUP2 DUP2 ADD DUP2 DUP2 LT PUSH8 0xFFFFFFFFFFFFFFFF DUP3 GT OR ISZERO PUSH2 0x2F7 JUMPI PUSH4 0x4E487B71 PUSH1 0xE0 SHL PUSH1 0x0 MSTORE PUSH1 0x41 PUSH1 0x4 MSTORE PUSH1 0x24 PUSH1 0x0 REVERT JUMPDEST PUSH1 0x40 MSTORE SWAP1 DUP4 ADD SWAP1 DUP1 DUP6 DUP4 GT ISZERO PUSH2 0x30C JUMPI PUSH1 0x0 DUP1 REVERT JUMPDEST DUP5 JUMPDEST DUP4 DUP2 LT ISZERO PUSH2 0x326 JUMPI DUP1 CALLDATALOAD DUP3 MSTORE PUSH1 0x20 SWAP2 DUP3 ADD SWAP2 ADD PUSH2 0x30E JUMP JUMPDEST POP SWAP1 SWAP6 SWAP5 POP POP POP POP POP JUMP JUMPDEST PUSH4 0x4E487B71 PUSH1 0xE0 SHL PUSH1 0x0 MSTORE PUSH1 0x11 PUSH1 0x4 MSTORE PUSH1 0x24 PUSH1 0x0 REVERT JUMPDEST PUSH1 0x0 DUP3 DUP3 LT ISZERO PUSH2 0x359 JUMPI PUSH2 0x359 PUSH2 0x331 JUMP JUMPDEST POP SUB SWAP1 JUMP JUMPDEST PUSH1 0x0 DUP3 PUSH2 0x37B JUMPI PUSH4 0x4E487B71 PUSH1 0xE0 SHL PUSH1 0x0 MSTORE PUSH1 0x12 PUSH1 0x4 MSTORE PUSH1 0x24 PUSH1 0x0 REVERT JUMPDEST POP DIV SWAP1 JUMP JUMPDEST PUSH4 0x4E487B71 PUSH1 0xE0 SHL PUSH1 0x0 MSTORE PUSH1 0x32 PUSH1 0x4 MSTORE PUSH1 0x24 PUSH1 0x0 REVERT JUMPDEST PUSH1 0x0 PUSH1 0x0 NOT DUP3 EQ ISZERO PUSH2 0x3AA JUMPI PUSH2 0x3AA PUSH2 0x331 JUMP JUMPDEST POP PUSH1 0x1 ADD SWAP1 JUMP JUMPDEST PUSH1 0x0 DUP3 NOT DUP3 GT ISZERO PUSH2 0x3C4 JUMPI PUSH2 0x3C4 PUSH2 0x331 JUMP JUMPDEST POP ADD SWAP1 JUMP JUMPDEST PUSH1 0x0 PUSH1 0x20 DUP1 DUP4 MSTORE DUP4 MLOAD DUP1 DUP3 DUP6 ADD MSTORE PUSH1 0x0 JUMPDEST DUP2 DUP2 LT ISZERO PUSH2 0x3F6 JUMPI DUP6 DUP2 ADD DUP4 ADD MLOAD DUP6 DUP3 ADD PUSH1 0x40 ADD MSTORE DUP3 ADD PUSH2 0x3DA JUMP JUMPDEST DUP2 DUP2 GT ISZERO PUSH2 0x408 JUMPI PUSH1 0x0 PUSH1 0x40 DUP4 DUP8 ADD ADD MSTORE JUMPDEST POP PUSH1 0x1F ADD PUSH1 0x1F NOT AND SWAP3 SWAP1 SWAP3 ADD PUSH1 0x40 ADD SWAP4 SWAP3 POP POP POP JUMP INVALID SLOAD PUSH16 0x6B656E54696D654C6F636B3A2043616E PUSH15 0x6F742073756273747261637420746F PUSH21 0x616C20616D6F756E74207769746820636C61696D61 PUSH3 0x6C65A2 PUSH5 0x6970667358 0x22 SLT KECCAK256 ADDRESS 0xD5 PUSH1 0x61 0xCF 0x49 CALLDATALOAD EXP 0xED 0x5E PUSH19 0x5B65C880D4D897E4DDA0210E0E7B81F8D0B853 SMOD 0xB1 PUSH5 0x736F6C6343 STOP ADDMOD SIGNEXTEND STOP CALLER SLOAD PUSH2 0x6C61 PUSH25 0x546F6B656E3A2043616E6E6F74207472616E73666572206D6F PUSH19 0x65207468616E20746F74616C20737570706C79 PUSH21 0x72616E736665724F776E6572736869703A206F776E PUSH6 0x727320617272 PUSH2 0x7920 "
		},
		"gasEstimates": {
			"creation": {
				"codeDepositCost": "4424800",
				"executionCost": "infinite",
				"totalCost": "infinite"
			},
			"external": {
				"": "infinite",
				"_taxFee()": "2426",
				"allOperations(uint256)": "4665",
				"allOperationsCount()": "2405",
				"allOperationsIndicies(bytes32)": "2549",
				"allowance(address,address)": "infinite",
				"approve(address,uint256)": "24659",
				"balanceOf(address)": "2643",
				"blockTime()": "303",
				"burnStakingReward(uint256)": "infinite",
				"changeTaxFee(uint16)": "infinite",
				"decimals()": "2401",
				"decreaseAllowance(address,uint256)": "infinite",
				"devPoolLockedWallet_1()": "2415",
				"devPoolLockedWallet_2()": "2394",
				"devPoolLockedWallet_3()": "2460",
				"getAllOwners()": "infinite",
				"getOwner()": "infinite",
				"hasStake(address)": "infinite",
				"increaseAllowance(address,uint256)": "27065",
				"isOwner(address)": "2611",
				"liquidityReserveBalance()": "infinite",
				"mintLiquidityReserve(uint256)": "infinite",
				"mintStakingReward(uint256)": "infinite",
				"name()": "infinite",
				"owners(uint256)": "4673",
				"ownersCount()": "2382",
				"ownersGeneration()": "2428",
				"ownersIndices(address)": "2647",
				"privatePlacementLockedWallet()": "2393",
				"stake(uint256,uint256)": "infinite",
				"stakeSummary(address)": "infinite",
				"stakingPackage(uint256)": "2571",
				"stakingReward()": "2373",
				"stakingRewardAmount()": "2371",
				"strategicPartnerLockedWallet_1()": "2460",
				"strategicPartnerLockedWallet_2()": "2392",
				"strategicPartnerLockedWallet_3()": "2394",
				"symbol()": "infinite",
				"taxFee()": "2388",
				"teamAndProjectCoordinatorLockedWallet_1()": "2436",
				"teamAndProjectCoordinatorLockedWallet_2()": "2437",
				"teamAndProjectCoordinatorLockedWallet_3()": "2459",
				"testCalculateDuration(uint256,address)": "infinite",
				"thisAddress()": "268",
				"totalSupply()": "2361",
				"transfer(address,uint256)": "infinite",
				"transferFrom(address,address,uint256)": "infinite",
				"transferOwnership(address[])": "infinite",
				"unlockDevPoolWallet_1()": "infinite",
				"unlockDevPoolWallet_2()": "infinite",
				"unlockDevPoolWallet_3()": "infinite",
				"unlockPrivatePlacementWallet()": "infinite",
				"unlockStrategicPartnerWallet_1()": "infinite",
				"unlockStrategicPartnerWallet_2()": "infinite",
				"unlockStrategicPartnerWallet_3()": "infinite",
				"unlockTeamAndProjectCoordinatorWallet_1()": "infinite",
				"unlockTeamAndProjectCoordinatorWallet_2()": "infinite",
				"unlockTeamAndProjectCoordinatorWallet_3()": "infinite",
				"votesCountByOperation(bytes32)": "2528",
				"votesMaskByOperation(bytes32)": "2528",
				"withdrawAllStake(uint256)": "infinite",
				"withdrawStake(uint256,uint256)": "infinite"
			},
			"internal": {
				"_approve(address,address,uint256)": "infinite",
				"_burn(address,uint256)": "infinite",
				"_mint(address,uint256)": "infinite",
				"_mintLiquidityReserve(uint256)": "infinite",
				"_transfer(address,address,uint256)": "infinite",
				"devPoolReleaseRate()": "infinite",
				"devPoolReleaseRateAlternate()": "infinite",
				"privatePlacementReleaseRate()": "infinite",
				"strategicPartnerReleaseRate()": "infinite",
				"strategicPartnerReleaseRateAlternate()": "infinite",
				"teamAndProjectCoordinatorReleaseRate()": "infinite",
				"teamAndProjectCoordinatorReleaseRateAlternate()": "infinite"
			}
		},
		"methodIdentifiers": {
			"_taxFee()": "3b124fe7",
			"allOperations(uint256)": "431ab233",
			"allOperationsCount()": "22f2f89a",
			"allOperationsIndicies(bytes32)": "ea1a2644",
			"allowance(address,address)": "dd62ed3e",
			"approve(address,uint256)": "095ea7b3",
			"balanceOf(address)": "70a08231",
			"blockTime()": "48b15166",
			"burnStakingReward(uint256)": "0e1b09ed",
			"changeTaxFee(uint16)": "8902cd70",
			"decimals()": "313ce567",
			"decreaseAllowance(address,uint256)": "a457c2d7",
			"devPoolLockedWallet_1()": "ab2e81d6",
			"devPoolLockedWallet_2()": "41b2974a",
			"devPoolLockedWallet_3()": "36a5a493",
			"getAllOwners()": "16c12746",
			"getOwner()": "893d20e8",
			"hasStake(address)": "e73e14bf",
			"increaseAllowance(address,uint256)": "39509351",
			"isOwner(address)": "2f54bf6e",
			"liquidityReserveBalance()": "bea8e46b",
			"mintLiquidityReserve(uint256)": "d94d4ad6",
			"mintStakingReward(uint256)": "a169c515",
			"name()": "06fdde03",
			"owners(uint256)": "025e7c27",
			"ownersCount()": "b9488546",
			"ownersGeneration()": "b25bb3a7",
			"ownersIndices(address)": "cc047a04",
			"privatePlacementLockedWallet()": "e39ca658",
			"stake(uint256,uint256)": "7b0472f0",
			"stakeSummary(address)": "b09d4b4e",
			"stakingPackage(uint256)": "ddbad8b8",
			"stakingReward()": "042249bb",
			"stakingRewardAmount()": "30d4f3c9",
			"strategicPartnerLockedWallet_1()": "534c96c7",
			"strategicPartnerLockedWallet_2()": "eef756fc",
			"strategicPartnerLockedWallet_3()": "97a08e71",
			"symbol()": "95d89b41",
			"taxFee()": "a071dcf4",
			"teamAndProjectCoordinatorLockedWallet_1()": "f6ddddf2",
			"teamAndProjectCoordinatorLockedWallet_2()": "85ba7c02",
			"teamAndProjectCoordinatorLockedWallet_3()": "87e25b79",
			"testCalculateDuration(uint256,address)": "38920102",
			"thisAddress()": "d4dca69b",
			"totalSupply()": "18160ddd",
			"transfer(address,uint256)": "a9059cbb",
			"transferFrom(address,address,uint256)": "23b872dd",
			"transferOwnership(address[])": "18bcd3d0",
			"unlockDevPoolWallet_1()": "b8b18e89",
			"unlockDevPoolWallet_2()": "eb9f4ac7",
			"unlockDevPoolWallet_3()": "84f3996d",
			"unlockPrivatePlacementWallet()": "934851ec",
			"unlockStrategicPartnerWallet_1()": "8378a875",
			"unlockStrategicPartnerWallet_2()": "15441bb9",
			"unlockStrategicPartnerWallet_3()": "883d9984",
			"unlockTeamAndProjectCoordinatorWallet_1()": "56029137",
			"unlockTeamAndProjectCoordinatorWallet_2()": "90a4c709",
			"unlockTeamAndProjectCoordinatorWallet_3()": "3f3ef2dc",
			"votesCountByOperation(bytes32)": "90a53085",
			"votesMaskByOperation(bytes32)": "568b5915",
			"withdrawAllStake(uint256)": "f729b00f",
			"withdrawStake(uint256,uint256)": "f1fdf469"
		}
	},
	"abi": [
		{
			"inputs": [],
			"stateMutability": "nonpayable",
			"type": "constructor"
		},
		{
			"anonymous": false,
			"inputs": [
				{
					"indexed": true,
					"internalType": "address",
					"name": "from",
					"type": "address"
				},
				{
					"indexed": true,
					"internalType": "address",
					"name": "who",
					"type": "address"
				}
			],
			"name": "AddPrivatePlacement",
			"type": "event"
		},
		{
			"anonymous": false,
			"inputs": [
				{
					"indexed": true,
					"internalType": "address",
					"name": "from",
					"type": "address"
				},
				{
					"indexed": true,
					"internalType": "address",
					"name": "who",
					"type": "address"
				}
			],
			"name": "AddStrategicPartner",
			"type": "event"
		},
		{
			"anonymous": false,
			"inputs": [
				{
					"indexed": true,
					"internalType": "address",
					"name": "owner",
					"type": "address"
				},
				{
					"indexed": true,
					"internalType": "address",
					"name": "spender",
					"type": "address"
				},
				{
					"indexed": false,
					"internalType": "uint256",
					"name": "value",
					"type": "uint256"
				}
			],
			"name": "Approval",
			"type": "event"
		},
		{
			"anonymous": false,
			"inputs": [
				{
					"indexed": true,
					"internalType": "address",
					"name": "who",
					"type": "address"
				},
				{
					"indexed": false,
					"internalType": "uint256",
					"name": "amount",
					"type": "uint256"
				}
			],
			"name": "ChangeTax",
			"type": "event"
		},
		{
			"anonymous": false,
			"inputs": [
				{
					"indexed": true,
					"internalType": "address",
					"name": "from",
					"type": "address"
				},
				{
					"indexed": true,
					"internalType": "address",
					"name": "who",
					"type": "address"
				}
			],
			"name": "DeletePrivatePlacement",
			"type": "event"
		},
		{
			"anonymous": false,
			"inputs": [
				{
					"indexed": true,
					"internalType": "address",
					"name": "from",
					"type": "address"
				},
				{
					"indexed": true,
					"internalType": "address",
					"name": "who",
					"type": "address"
				}
			],
			"name": "DeleteStrategicPartner",
			"type": "event"
		},
		{
			"anonymous": false,
			"inputs": [
				{
					"indexed": false,
					"internalType": "bytes32",
					"name": "operation",
					"type": "bytes32"
				},
				{
					"indexed": false,
					"internalType": "uint256",
					"name": "howMany",
					"type": "uint256"
				},
				{
					"indexed": false,
					"internalType": "uint256",
					"name": "ownersCount",
					"type": "uint256"
				},
				{
					"indexed": false,
					"internalType": "address",
					"name": "proposer",
					"type": "address"
				}
			],
			"name": "OperationCreated",
			"type": "event"
		},
		{
			"anonymous": false,
			"inputs": [
				{
					"indexed": false,
					"internalType": "bytes32",
					"name": "operation",
					"type": "bytes32"
				},
				{
					"indexed": false,
					"internalType": "uint256",
					"name": "howMany",
					"type": "uint256"
				},
				{
					"indexed": false,
					"internalType": "uint256",
					"name": "ownersCount",
					"type": "uint256"
				},
				{
					"indexed": false,
					"internalType": "address",
					"name": "performer",
					"type": "address"
				}
			],
			"name": "OperationPerformed",
			"type": "event"
		},
		{
			"anonymous": false,
			"inputs": [
				{
					"indexed": false,
					"internalType": "bytes32",
					"name": "operation",
					"type": "bytes32"
				},
				{
					"indexed": false,
					"internalType": "uint256",
					"name": "votes",
					"type": "uint256"
				},
				{
					"indexed": false,
					"internalType": "uint256",
					"name": "howMany",
					"type": "uint256"
				},
				{
					"indexed": false,
					"internalType": "uint256",
					"name": "ownersCount",
					"type": "uint256"
				},
				{
					"indexed": false,
					"internalType": "address",
					"name": "upvoter",
					"type": "address"
				}
			],
			"name": "OperationUpvoted",
			"type": "event"
		},
		{
			"anonymous": false,
			"inputs": [
				{
					"indexed": false,
					"internalType": "address[]",
					"name": "previousOwners",
					"type": "address[]"
				},
				{
					"indexed": false,
					"internalType": "address[]",
					"name": "newOwners",
					"type": "address[]"
				}
			],
			"name": "OwnershipTransferred",
			"type": "event"
		},
		{
			"anonymous": false,
			"inputs": [
				{
					"indexed": true,
					"internalType": "address",
					"name": "user",
					"type": "address"
				},
				{
					"indexed": false,
					"internalType": "uint256",
					"name": "amount",
					"type": "uint256"
				},
				{
					"indexed": false,
					"internalType": "uint256",
					"name": "index",
					"type": "uint256"
				},
				{
					"indexed": false,
					"internalType": "uint256",
					"name": "timestamp",
					"type": "uint256"
				},
				{
					"indexed": false,
					"internalType": "uint256",
					"name": "releaseTime",
					"type": "uint256"
				}
			],
			"name": "Staked",
			"type": "event"
		},
		{
			"anonymous": false,
			"inputs": [
				{
					"indexed": true,
					"internalType": "address",
					"name": "from",
					"type": "address"
				},
				{
					"indexed": true,
					"internalType": "address",
					"name": "to",
					"type": "address"
				},
				{
					"indexed": false,
					"internalType": "uint256",
					"name": "value",
					"type": "uint256"
				}
			],
			"name": "Transfer",
			"type": "event"
		},
		{
			"stateMutability": "payable",
			"type": "fallback"
		},
		{
			"inputs": [],
			"name": "_taxFee",
			"outputs": [
				{
					"internalType": "uint16",
					"name": "",
					"type": "uint16"
				}
			],
			"stateMutability": "view",
			"type": "function"
		},
		{
			"inputs": [
				{
					"internalType": "uint256",
					"name": "",
					"type": "uint256"
				}
			],
			"name": "allOperations",
			"outputs": [
				{
					"internalType": "bytes32",
					"name": "",
					"type": "bytes32"
				}
			],
			"stateMutability": "view",
			"type": "function"
		},
		{
			"inputs": [],
			"name": "allOperationsCount",
			"outputs": [
				{
					"internalType": "uint256",
					"name": "",
					"type": "uint256"
				}
			],
			"stateMutability": "view",
			"type": "function"
		},
		{
			"inputs": [
				{
					"internalType": "bytes32",
					"name": "",
					"type": "bytes32"
				}
			],
			"name": "allOperationsIndicies",
			"outputs": [
				{
					"internalType": "uint256",
					"name": "",
					"type": "uint256"
				}
			],
			"stateMutability": "view",
			"type": "function"
		},
		{
			"inputs": [
				{
					"internalType": "address",
					"name": "owner",
					"type": "address"
				},
				{
					"internalType": "address",
					"name": "spender",
					"type": "address"
				}
			],
			"name": "allowance",
			"outputs": [
				{
					"internalType": "uint256",
					"name": "",
					"type": "uint256"
				}
			],
			"stateMutability": "view",
			"type": "function"
		},
		{
			"inputs": [
				{
					"internalType": "address",
					"name": "spender",
					"type": "address"
				},
				{
					"internalType": "uint256",
					"name": "amount",
					"type": "uint256"
				}
			],
			"name": "approve",
			"outputs": [
				{
					"internalType": "bool",
					"name": "",
					"type": "bool"
				}
			],
			"stateMutability": "nonpayable",
			"type": "function"
		},
		{
			"inputs": [
				{
					"internalType": "address",
					"name": "account",
					"type": "address"
				}
			],
			"name": "balanceOf",
			"outputs": [
				{
					"internalType": "uint256",
					"name": "",
					"type": "uint256"
				}
			],
			"stateMutability": "view",
			"type": "function"
		},
		{
			"inputs": [],
			"name": "blockTime",
			"outputs": [
				{
					"internalType": "uint256",
					"name": "",
					"type": "uint256"
				}
			],
			"stateMutability": "view",
			"type": "function"
		},
		{
			"inputs": [
				{
					"internalType": "uint256",
					"name": "amount_",
					"type": "uint256"
				}
			],
			"name": "burnStakingReward",
			"outputs": [],
			"stateMutability": "nonpayable",
			"type": "function"
		},
		{
			"inputs": [
				{
					"internalType": "uint16",
					"name": "taxFee_",
					"type": "uint16"
				}
			],
			"name": "changeTaxFee",
			"outputs": [],
			"stateMutability": "nonpayable",
			"type": "function"
		},
		{
			"inputs": [],
			"name": "decimals",
			"outputs": [
				{
					"internalType": "uint8",
					"name": "",
					"type": "uint8"
				}
			],
			"stateMutability": "view",
			"type": "function"
		},
		{
			"inputs": [
				{
					"internalType": "address",
					"name": "spender",
					"type": "address"
				},
				{
					"internalType": "uint256",
					"name": "subtractedValue",
					"type": "uint256"
				}
			],
			"name": "decreaseAllowance",
			"outputs": [
				{
					"internalType": "bool",
					"name": "",
					"type": "bool"
				}
			],
			"stateMutability": "nonpayable",
			"type": "function"
		},
		{
			"inputs": [],
			"name": "devPoolLockedWallet_1",
			"outputs": [
				{
					"internalType": "contract Lockable",
					"name": "",
					"type": "address"
				}
			],
			"stateMutability": "view",
			"type": "function"
		},
		{
			"inputs": [],
			"name": "devPoolLockedWallet_2",
			"outputs": [
				{
					"internalType": "contract Lockable",
					"name": "",
					"type": "address"
				}
			],
			"stateMutability": "view",
			"type": "function"
		},
		{
			"inputs": [],
			"name": "devPoolLockedWallet_3",
			"outputs": [
				{
					"internalType": "contract Lockable",
					"name": "",
					"type": "address"
				}
			],
			"stateMutability": "view",
			"type": "function"
		},
		{
			"inputs": [],
			"name": "getAllOwners",
			"outputs": [
				{
					"internalType": "address[]",
					"name": "",
					"type": "address[]"
				}
			],
			"stateMutability": "view",
			"type": "function"
		},
		{
			"inputs": [],
			"name": "getOwner",
			"outputs": [
				{
					"internalType": "address[]",
					"name": "",
					"type": "address[]"
				}
			],
			"stateMutability": "view",
			"type": "function"
		},
		{
			"inputs": [
				{
					"internalType": "address",
					"name": "_staker",
					"type": "address"
				}
			],
			"name": "hasStake",
			"outputs": [
				{
					"components": [
						{
							"internalType": "uint256",
							"name": "total_amount",
							"type": "uint256"
						},
						{
							"components": [
								{
									"internalType": "address",
									"name": "user",
									"type": "address"
								},
								{
									"internalType": "uint256",
									"name": "amount",
									"type": "uint256"
								},
								{
									"internalType": "uint256",
									"name": "since",
									"type": "uint256"
								},
								{
									"internalType": "uint256",
									"name": "claimable",
									"type": "uint256"
								},
								{
									"internalType": "uint256",
									"name": "rewardAPY",
									"type": "uint256"
								},
								{
									"internalType": "uint256",
									"name": "releaseTime",
									"type": "uint256"
								}
							],
							"internalType": "struct Stakable.Stake[]",
							"name": "stakes",
							"type": "tuple[]"
						}
					],
					"internalType": "struct Stakable.StakingSummary",
					"name": "",
					"type": "tuple"
				}
			],
			"stateMutability": "view",
			"type": "function"
		},
		{
			"inputs": [
				{
					"internalType": "address",
					"name": "spender",
					"type": "address"
				},
				{
					"internalType": "uint256",
					"name": "addedValue",
					"type": "uint256"
				}
			],
			"name": "increaseAllowance",
			"outputs": [
				{
					"internalType": "bool",
					"name": "",
					"type": "bool"
				}
			],
			"stateMutability": "nonpayable",
			"type": "function"
		},
		{
			"inputs": [
				{
					"internalType": "address",
					"name": "wallet",
					"type": "address"
				}
			],
			"name": "isOwner",
			"outputs": [
				{
					"internalType": "bool",
					"name": "",
					"type": "bool"
				}
			],
			"stateMutability": "view",
			"type": "function"
		},
		{
			"inputs": [],
			"name": "liquidityReserveBalance",
			"outputs": [
				{
					"internalType": "uint256",
					"name": "",
					"type": "uint256"
				}
			],
			"stateMutability": "view",
			"type": "function"
		},
		{
			"inputs": [
				{
					"internalType": "uint256",
					"name": "amount_",
					"type": "uint256"
				}
			],
			"name": "mintLiquidityReserve",
			"outputs": [],
			"stateMutability": "nonpayable",
			"type": "function"
		},
		{
			"inputs": [
				{
					"internalType": "uint256",
					"name": "amount_",
					"type": "uint256"
				}
			],
			"name": "mintStakingReward",
			"outputs": [],
			"stateMutability": "nonpayable",
			"type": "function"
		},
		{
			"inputs": [],
			"name": "name",
			"outputs": [
				{
					"internalType": "string",
					"name": "",
					"type": "string"
				}
			],
			"stateMutability": "view",
			"type": "function"
		},
		{
			"inputs": [
				{
					"internalType": "uint256",
					"name": "",
					"type": "uint256"
				}
			],
			"name": "owners",
			"outputs": [
				{
					"internalType": "address",
					"name": "",
					"type": "address"
				}
			],
			"stateMutability": "view",
			"type": "function"
		},
		{
			"inputs": [],
			"name": "ownersCount",
			"outputs": [
				{
					"internalType": "uint256",
					"name": "",
					"type": "uint256"
				}
			],
			"stateMutability": "view",
			"type": "function"
		},
		{
			"inputs": [],
			"name": "ownersGeneration",
			"outputs": [
				{
					"internalType": "uint256",
					"name": "",
					"type": "uint256"
				}
			],
			"stateMutability": "view",
			"type": "function"
		},
		{
			"inputs": [
				{
					"internalType": "address",
					"name": "",
					"type": "address"
				}
			],
			"name": "ownersIndices",
			"outputs": [
				{
					"internalType": "uint256",
					"name": "",
					"type": "uint256"
				}
			],
			"stateMutability": "view",
			"type": "function"
		},
		{
			"inputs": [],
			"name": "privatePlacementLockedWallet",
			"outputs": [
				{
					"internalType": "contract Lockable",
					"name": "",
					"type": "address"
				}
			],
			"stateMutability": "view",
			"type": "function"
		},
		{
			"inputs": [
				{
					"internalType": "uint256",
					"name": "_amount",
					"type": "uint256"
				},
				{
					"internalType": "uint256",
					"name": "_stakePeriod",
					"type": "uint256"
				}
			],
			"name": "stake",
			"outputs": [],
			"stateMutability": "nonpayable",
			"type": "function"
		},
		{
			"inputs": [
				{
					"internalType": "address",
					"name": "user_",
					"type": "address"
				}
			],
			"name": "stakeSummary",
			"outputs": [
				{
					"components": [
						{
							"internalType": "uint256",
							"name": "total_amount",
							"type": "uint256"
						},
						{
							"components": [
								{
									"internalType": "address",
									"name": "user",
									"type": "address"
								},
								{
									"internalType": "uint256",
									"name": "amount",
									"type": "uint256"
								},
								{
									"internalType": "uint256",
									"name": "since",
									"type": "uint256"
								},
								{
									"internalType": "uint256",
									"name": "claimable",
									"type": "uint256"
								},
								{
									"internalType": "uint256",
									"name": "rewardAPY",
									"type": "uint256"
								},
								{
									"internalType": "uint256",
									"name": "releaseTime",
									"type": "uint256"
								}
							],
							"internalType": "struct Stakable.Stake[]",
							"name": "stakes",
							"type": "tuple[]"
						}
					],
					"internalType": "struct Stakable.StakingSummary",
					"name": "",
					"type": "tuple"
				}
			],
			"stateMutability": "view",
			"type": "function"
		},
		{
			"inputs": [
				{
					"internalType": "uint256",
					"name": "index",
					"type": "uint256"
				}
			],
			"name": "stakingPackage",
			"outputs": [
				{
					"internalType": "uint256",
					"name": "",
					"type": "uint256"
				}
			],
			"stateMutability": "view",
			"type": "function"
		},
		{
			"inputs": [],
			"name": "stakingReward",
			"outputs": [
				{
					"internalType": "uint256",
					"name": "",
					"type": "uint256"
				}
			],
			"stateMutability": "view",
			"type": "function"
		},
		{
			"inputs": [],
			"name": "stakingRewardAmount",
			"outputs": [
				{
					"internalType": "uint256",
					"name": "",
					"type": "uint256"
				}
			],
			"stateMutability": "view",
			"type": "function"
		},
		{
			"inputs": [],
			"name": "strategicPartnerLockedWallet_1",
			"outputs": [
				{
					"internalType": "contract Lockable",
					"name": "",
					"type": "address"
				}
			],
			"stateMutability": "view",
			"type": "function"
		},
		{
			"inputs": [],
			"name": "strategicPartnerLockedWallet_2",
			"outputs": [
				{
					"internalType": "contract Lockable",
					"name": "",
					"type": "address"
				}
			],
			"stateMutability": "view",
			"type": "function"
		},
		{
			"inputs": [],
			"name": "strategicPartnerLockedWallet_3",
			"outputs": [
				{
					"internalType": "contract Lockable",
					"name": "",
					"type": "address"
				}
			],
			"stateMutability": "view",
			"type": "function"
		},
		{
			"inputs": [],
			"name": "symbol",
			"outputs": [
				{
					"internalType": "string",
					"name": "",
					"type": "string"
				}
			],
			"stateMutability": "view",
			"type": "function"
		},
		{
			"inputs": [],
			"name": "taxFee",
			"outputs": [
				{
					"internalType": "uint256",
					"name": "",
					"type": "uint256"
				}
			],
			"stateMutability": "view",
			"type": "function"
		},
		{
			"inputs": [],
			"name": "teamAndProjectCoordinatorLockedWallet_1",
			"outputs": [
				{
					"internalType": "contract Lockable",
					"name": "",
					"type": "address"
				}
			],
			"stateMutability": "view",
			"type": "function"
		},
		{
			"inputs": [],
			"name": "teamAndProjectCoordinatorLockedWallet_2",
			"outputs": [
				{
					"internalType": "contract Lockable",
					"name": "",
					"type": "address"
				}
			],
			"stateMutability": "view",
			"type": "function"
		},
		{
			"inputs": [],
			"name": "teamAndProjectCoordinatorLockedWallet_3",
			"outputs": [
				{
					"internalType": "contract Lockable",
					"name": "",
					"type": "address"
				}
			],
			"stateMutability": "view",
			"type": "function"
		},
		{
			"inputs": [
				{
					"internalType": "uint256",
					"name": "index_",
					"type": "uint256"
				},
				{
					"internalType": "address",
					"name": "user_",
					"type": "address"
				}
			],
			"name": "testCalculateDuration",
			"outputs": [
				{
					"internalType": "uint256",
					"name": "",
					"type": "uint256"
				}
			],
			"stateMutability": "view",
			"type": "function"
		},
		{
			"inputs": [],
			"name": "thisAddress",
			"outputs": [
				{
					"internalType": "address",
					"name": "",
					"type": "address"
				}
			],
			"stateMutability": "view",
			"type": "function"
		},
		{
			"inputs": [],
			"name": "totalSupply",
			"outputs": [
				{
					"internalType": "uint256",
					"name": "",
					"type": "uint256"
				}
			],
			"stateMutability": "view",
			"type": "function"
		},
		{
			"inputs": [
				{
					"internalType": "address",
					"name": "recipient",
					"type": "address"
				},
				{
					"internalType": "uint256",
					"name": "amount",
					"type": "uint256"
				}
			],
			"name": "transfer",
			"outputs": [
				{
					"internalType": "bool",
					"name": "",
					"type": "bool"
				}
			],
			"stateMutability": "nonpayable",
			"type": "function"
		},
		{
			"inputs": [
				{
					"internalType": "address",
					"name": "sender",
					"type": "address"
				},
				{
					"internalType": "address",
					"name": "recipient",
					"type": "address"
				},
				{
					"internalType": "uint256",
					"name": "amount",
					"type": "uint256"
				}
			],
			"name": "transferFrom",
			"outputs": [
				{
					"internalType": "bool",
					"name": "",
					"type": "bool"
				}
			],
			"stateMutability": "nonpayable",
			"type": "function"
		},
		{
			"inputs": [
				{
					"internalType": "address[]",
					"name": "newOwners",
					"type": "address[]"
				}
			],
			"name": "transferOwnership",
			"outputs": [],
			"stateMutability": "nonpayable",
			"type": "function"
		},
		{
			"inputs": [],
			"name": "unlockDevPoolWallet_1",
			"outputs": [],
			"stateMutability": "nonpayable",
			"type": "function"
		},
		{
			"inputs": [],
			"name": "unlockDevPoolWallet_2",
			"outputs": [],
			"stateMutability": "nonpayable",
			"type": "function"
		},
		{
			"inputs": [],
			"name": "unlockDevPoolWallet_3",
			"outputs": [],
			"stateMutability": "nonpayable",
			"type": "function"
		},
		{
			"inputs": [],
			"name": "unlockPrivatePlacementWallet",
			"outputs": [],
			"stateMutability": "nonpayable",
			"type": "function"
		},
		{
			"inputs": [],
			"name": "unlockStrategicPartnerWallet_1",
			"outputs": [],
			"stateMutability": "nonpayable",
			"type": "function"
		},
		{
			"inputs": [],
			"name": "unlockStrategicPartnerWallet_2",
			"outputs": [],
			"stateMutability": "nonpayable",
			"type": "function"
		},
		{
			"inputs": [],
			"name": "unlockStrategicPartnerWallet_3",
			"outputs": [],
			"stateMutability": "nonpayable",
			"type": "function"
		},
		{
			"inputs": [],
			"name": "unlockTeamAndProjectCoordinatorWallet_1",
			"outputs": [],
			"stateMutability": "nonpayable",
			"type": "function"
		},
		{
			"inputs": [],
			"name": "unlockTeamAndProjectCoordinatorWallet_2",
			"outputs": [],
			"stateMutability": "nonpayable",
			"type": "function"
		},
		{
			"inputs": [],
			"name": "unlockTeamAndProjectCoordinatorWallet_3",
			"outputs": [],
			"stateMutability": "nonpayable",
			"type": "function"
		},
		{
			"inputs": [
				{
					"internalType": "bytes32",
					"name": "",
					"type": "bytes32"
				}
			],
			"name": "votesCountByOperation",
			"outputs": [
				{
					"internalType": "uint256",
					"name": "",
					"type": "uint256"
				}
			],
			"stateMutability": "view",
			"type": "function"
		},
		{
			"inputs": [
				{
					"internalType": "bytes32",
					"name": "",
					"type": "bytes32"
				}
			],
			"name": "votesMaskByOperation",
			"outputs": [
				{
					"internalType": "uint256",
					"name": "",
					"type": "uint256"
				}
			],
			"stateMutability": "view",
			"type": "function"
		},
		{
			"inputs": [
				{
					"internalType": "uint256",
					"name": "stake_index",
					"type": "uint256"
				}
			],
			"name": "withdrawAllStake",
			"outputs": [],
			"stateMutability": "nonpayable",
			"type": "function"
		},
		{
			"inputs": [
				{
					"internalType": "uint256",
					"name": "amount",
					"type": "uint256"
				},
				{
					"internalType": "uint256",
					"name": "stake_index",
					"type": "uint256"
				}
			],
			"name": "withdrawStake",
			"outputs": [],
			"stateMutability": "nonpayable",
			"type": "function"
		},
		{
			"stateMutability": "payable",
			"type": "receive"
		}
	]
}