{
	"data": {
		"bytecode": {
			"linkReferences": {},
			"object": "60806040526a0c24662f3b1cd048600000600b553480156200002057600080fd5b50604080518082018252600881526754414c415845554d60c01b6020808301918252835180850190945260058452640a8829882b60db1b9084015281519192916200006e91600391620008a2565b50805162000084906004906020840190620008a2565b505050620000a16200009b6200081460201b60201c565b62000818565b6008805460010181556000819052600f60065560506007556aadb53acfa41aee12000000601055604080518082019091528181526754414c415845554d60c01b6020909101908152620000f89160119190620008a2565b50604080518082019091526005808252640a8829882b60db1b60209092019182526200012791601291620008a2565b506015805464ffff00ff001916630100000017905560067f188077c4e96c8d722bff1047f9ee2e506225d148e0431be6a5152559f24aacb95560077fceede4c7f180dee475cc90df8ffa8f9ff4f399ef557cc83bff8712c6cb1256f85560087f0d226b06d1ee200dfa364a1fe6d9e7d43e4026a1f01e0bf574f4294dc294306c55601680546001600160a01b03199081167307a20dc6722563783e44ba8edca08c774621125e17825560178054821673f09f65dd4d229e991901669ad7c7549f060e30b9179055601880548216731a2118e056d6af192e233c2c9cfb34e067ded1f817905560198054821673126974fa373267d86fab6d6871afe62ccb68e810179055601a80548216732f838cf0df38b2e91e747a01ddae5ebad5558b7a179055601b805482167345094071c4daaf6a9a73b0a0f095a2b138bd8a3a179055601c8054821673aeb26fb84d0e2b3b353cd50f0a29fd40c916d2ab179055601d8054821673e61e7a7d16db384433e532fb85724e7f3bdaae2f179055601e8054821673406605eb24a97a2d61b516d8d850f2aefa6a731a179055601f80549091167397620deadc98bc8173303686037ce7b986cf53c31790556a0e7cbbd7aa8310ae400000601455306000908152600e60205260408082206a2b6d4eb3e906bb848000009055735470c8ff25ec05980fc7c2967d076b8012298fe79091526a01e92959d60776d7c000007f51f28cf3b1fb778bc092b2740f38b19189d9c3b3cd839ba38747f656f3bcd96755905490516a05c8d34a23da1650a00000916001600160a01b031690620003789062000931565b9182526001600160a01b03166020820152604001604051809103906000f080158015620003a9573d6000803e3d6000fd5b50602080546001600160a01b0319166001600160a01b039283161790556017546040516a1467a6f5a4a69801800000929190911690620003e99062000931565b9182526001600160a01b03166020820152604001604051809103906000f0801580156200041a573d6000803e3d6000fd5b50602180546001600160a01b0319166001600160a01b039283161790556018546040516a1467a6f5a4a698018000009291909116906200045a9062000931565b9182526001600160a01b03166020820152604001604051809103906000f0801580156200048b573d6000803e3d6000fd5b50602280546001600160a01b0319166001600160a01b039283161790556019546040516a1467a6f5a4a69801800000929190911690620004cb9062000931565b9182526001600160a01b03166020820152604001604051809103906000f080158015620004fc573d6000803e3d6000fd5b50602380546001600160a01b0319166001600160a01b03928316179055601a546040516a02e5276153cd3fb38000009291909116906200053c9062000931565b9182526001600160a01b03166020820152604001604051809103906000f0801580156200056d573d6000803e3d6000fd5b50602480546001600160a01b0319166001600160a01b03928316179055601b546040516a02e5276153cd3fb3800000929190911690620005ad9062000931565b9182526001600160a01b03166020820152604001604051809103906000f080158015620005de573d6000803e3d6000fd5b50602580546001600160a01b0319166001600160a01b03928316179055601c546040516a02e5276153cd3fb38000009291909116906200061e9062000931565b9182526001600160a01b03166020820152604001604051809103906000f0801580156200064f573d6000803e3d6000fd5b50602680546001600160a01b0319166001600160a01b03928316179055601d546040516a08af7623fb67bf1a8000009291909116906200068f9062000931565b9182526001600160a01b03166020820152604001604051809103906000f080158015620006c0573d6000803e3d6000fd5b50602780546001600160a01b0319166001600160a01b03928316179055601e546040516a08af7623fb67bf1a800000929190911690620007009062000931565b9182526001600160a01b03166020820152604001604051809103906000f08015801562000731573d6000803e3d6000fd5b50602880546001600160a01b0319166001600160a01b03928316179055601f546040516a08af7623fb67bf1a800000929190911690620007719062000931565b9182526001600160a01b03166020820152604001604051809103906000f080158015620007a2573d6000803e3d6000fd5b50602960006101000a8154816001600160a01b0302191690836001600160a01b031602179055506200080b6a8247ec1bbb14328d80000060405180606001604052806026815260200162006b50602691396010546200086a60201b62002929179092919060201c565b601055620009eb565b3390565b600580546001600160a01b038381166001600160a01b0319831681179093556040519116919082907f8be0079c531659141344cd1fd0a4f28419497f9722a3daafe3b4186f6b6457e090600090a35050565b600081848411156200089a5760405162461bcd60e51b815260040162000891919062000956565b60405180910390fd5b505050900390565b828054620008b090620009ae565b90600052602060002090601f016020900481019282620008d457600085556200091f565b82601f10620008ef57805160ff19168380011785556200091f565b828001600101855582156200091f579182015b828111156200091f57825182559160200191906001019062000902565b506200092d9291506200093f565b5090565b61065280620064fe83390190565b5b808211156200092d576000815560010162000940565b600060208083528351808285015260005b81811015620009855785810183015185820160400152820162000967565b8181111562000998576000604083870101525b50601f01601f1916929092016040019392505050565b600181811c90821680620009c357607f821691505b60208210811415620009e557634e487b7160e01b600052602260045260246000fd5b50919050565b615b0380620009fb6000396000f3fe60806040526004361061039b5760003560e01c8063883d9984116101dc578063b8b18e8911610102578063e1604b70116100a0578063f1fdf4691161006f578063f1fdf46914610a41578063f2fde38b14610a61578063f729b00f14610a81578063fe6c9cc014610aa1576103ab565b8063e1604b70146109c9578063e73e14bf146109df578063eb9f4ac714610a0c578063ed5c2aa314610a21576103ab565b8063d4dca69b116100dc578063d4dca69b14610956578063d5dbdf1b14610969578063d94d4ad614610989578063dd62ed3e146109a9576103ab565b8063b8b18e891461090a578063bea8e46b1461091f578063c8cca41e14610941576103ab565b8063934851ec1161017a578063a169c51511610149578063a169c5151461088a578063a457c2d7146108aa578063a9059cbb146108ca578063adf3364c146108ea576103ab565b8063934851ec1461082057806395d89b411461083557806396074e701461084a578063a071dcf41461086a576103ab565b80638b7c64da116101b65780638b7c64da146107ad5780638c63f97f146107cd5780638da5cb5b146107ed57806390a4c7091461080b576103ab565b8063883d99841461074b5780638902cd7014610760578063893d20e814610780576103ab565b80633f3ef2dc116102c157806372fe1e631161025f5780637c2412f91161022e5780637c2412f9146106ed5780637cb85214146107025780638378a8751461072157806384f3996d14610736576103ab565b806372fe1e6314610678578063760edffd1461068e57806379cc6790146106ad5780637b0472f0146106cd576103ab565b8063560291371161029b57806356029137146106035780635b88349d1461061857806370a082311461062d578063715018a614610663576103ab565b80633f3ef2dc146105ae57806340c10f19146105c357806342966c68146105e3576103ab565b806319ca147d11610339578063313ce56711610308578063313ce5671461052857806339509351146105445780633b124fe7146105645780633dc10ad414610599576103ab565b806319ca147d146104935780631a39d8ef146104dd57806323b872dd146104f35780632b1e0f3314610513576103ab565b8063095ea7b311610375578063095ea7b3146104295780630e1b09ed1461044957806315441bb91461046957806318160ddd1461047e576103ab565b806301b75826146103b457806306f200bd146103e357806306fdde0314610407576103ab565b366103ab576103a934610abf565b005b6103a934610abf565b3480156103c057600080fd5b506015546103ce9060ff1681565b60405190151581526020015b60405180910390f35b3480156103ef57600080fd5b506103f960145481565b6040519081526020016103da565b34801561041357600080fd5b5061041c610b7d565b6040516103da91906155a9565b34801561043557600080fd5b506103ce610444366004615613565b610c0f565b34801561045557600080fd5b506103a961046436600461563f565b610c29565b34801561047557600080fd5b506103a9610d07565b34801561048a57600080fd5b506010546103f9565b34801561049f57600080fd5b506104a8610e8f565b6040516103da919081518152602080830151908201526040808301511515908201526060918201519181019190915260800190565b3480156104e957600080fd5b506103f9600b5481565b3480156104ff57600080fd5b506103ce61050e366004615658565b610f8c565b34801561051f57600080fd5b506103a9610fb0565b34801561053457600080fd5b50604051601281526020016103da565b34801561055057600080fd5b506103ce61055f366004615613565b611032565b34801561057057600080fd5b50601554610586906301000000900461ffff1681565b60405161ffff90911681526020016103da565b3480156105a557600080fd5b506006546103f9565b3480156105ba57600080fd5b506103a9611054565b3480156105cf57600080fd5b506103a96105de366004615613565b61113e565b3480156105ef57600080fd5b506103a96105fe36600461563f565b611176565b34801561060f57600080fd5b506103a9611183565b34801561062457600080fd5b506103a961126d565b34801561063957600080fd5b506103f9610648366004615699565b6001600160a01b03166000908152600e602052604090205490565b34801561066f57600080fd5b506103a9611313565b34801561068457600080fd5b506103f9600c5481565b34801561069a57600080fd5b506103f96a0136d704b91c7b3a70000081565b3480156106b957600080fd5b506103a96106c8366004615613565b611349565b3480156106d957600080fd5b506103a96106e83660046156b6565b61135e565b3480156106f957600080fd5b506103a961148a565b34801561070e57600080fd5b506015546103ce90610100900460ff1681565b34801561072d57600080fd5b506103a9611495565b34801561074257600080fd5b506103a961157f565b34801561075757600080fd5b506103a9611669565b34801561076c57600080fd5b506103a961077b3660046156d8565b611753565b34801561078c57600080fd5b506107956117e0565b6040516001600160a01b0390911681526020016103da565b3480156107b957600080fd5b506103a96107c836600461563f565b6117f9565b3480156107d957600080fd5b506103a96107e836600461563f565b6118b8565b3480156107f957600080fd5b506005546001600160a01b0316610795565b34801561081757600080fd5b506103a961191d565b34801561082c57600080fd5b506103a9611a07565b34801561084157600080fd5b5061041c611ae3565b34801561085657600080fd5b506103a9610865366004615613565b611af2565b34801561087657600080fd5b506015546301000000900461ffff166103f9565b34801561089657600080fd5b506103a96108a536600461563f565b611bdf565b3480156108b657600080fd5b506103ce6108c5366004615613565b611c93565b3480156108d657600080fd5b506103ce6108e5366004615613565b611d0e565b3480156108f657600080fd5b506103a96109053660046156fc565b611d1c565b34801561091657600080fd5b506103a9611d96565b34801561092b57600080fd5b50306000908152600e60205260409020546103f9565b34801561094d57600080fd5b506103a9611e80565b34801561096257600080fd5b5030610795565b34801561097557600080fd5b506103a961098436600461563f565b6122fb565b34801561099557600080fd5b506103a96109a436600461563f565b612360565b3480156109b557600080fd5b506103f96109c436600461571e565b61240b565b3480156109d557600080fd5b506103f9600a5481565b3480156109eb57600080fd5b506109ff6109fa366004615699565b612436565b6040516103da9190615757565b348015610a1857600080fd5b506103a961263f565b348015610a2d57600080fd5b506015546103ce9062010000900460ff1681565b348015610a4d57600080fd5b506103a9610a5c3660046156b6565b612729565b348015610a6d57600080fd5b506103a9610a7c366004615699565b6127de565b348015610a8d57600080fd5b506103a9610a9c36600461563f565b612876565b348015610aad57600080fd5b506103f96907aa22879aabcfac000081565b6000610acc826003612955565b601d546001600160a01b03166000908152600e6020526040902054909150610af49082612968565b601d546001600160a01b039081166000908152600e602052604080822093909355601e5490911681522054610b299082612968565b601e546001600160a01b039081166000908152600e602052604080822093909355601f5490911681522054610b5e9082612968565b601f546001600160a01b03166000908152600e60205260409020555050565b606060118054610b8c906157f7565b80601f0160208091040260200160405190810160405280929190818152602001828054610bb8906157f7565b8015610c055780601f10610bda57610100808354040283529160200191610c05565b820191906000526020600020905b815481529060010190602001808311610be857829003601f168201915b5050505050905090565b600033610c1d818585612974565b60019150505b92915050565b6005546001600160a01b03163314610c5c5760405162461bcd60e51b8152600401610c5390615832565b60405180910390fd5b6014548110610cbd5760405162461bcd60e51b815260206004820152602760248201527f416d6f756e74206275726e74206c6172676572207468616e205374616b696e676044820152660814995dd85c9960ca1b6064820152608401610c53565b601454610cca9082612a99565b601455601054610cda9082612a99565b6010556040518181526000903090600080516020615aae833981519152906020015b60405180910390a350565b60155460ff161515600114610d2e5760405162461bcd60e51b8152600401610c5390615867565b602560009054906101000a90046001600160a01b03166001600160a01b03166338af3eed6040518163ffffffff1660e01b8152600401602060405180830381865afa158015610d81573d6000803e3d6000fd5b505050506040513d601f19601f82011682018060405250810190610da5919061589e565b6001600160a01b0316336001600160a01b031614610dd55760405162461bcd60e51b8152600401610c53906158bb565b6025546000906001600160a01b031663e7d88c42610df1612aa5565b6040518263ffffffff1660e01b8152600401610e0d91906158e6565b6020604051808303816000875af1158015610e2c573d6000803e3d6000fd5b505050506040513d601f19601f82011682018060405250810190610e509190615918565b9050610e7c81600e6000335b6001600160a01b0316815260208101919091526040016000205490612968565b336000908152600e602052604090205550565b610ebc60405180608001604052806000815260200160008152602001600015158152602001600081525090565b336000908152600d6020526040902060010154610f415760405162461bcd60e51b815260206004820152603860248201527f5072697661746553616c653a20596f7520646f6e2774206861766520616e792060448201527f62616c616e636520666f7220707269766174652073616c6500000000000000006064820152608401610c53565b50336000908152600d6020908152604091829020825160808101845281548152600182015492810192909252600281015460ff16151592820192909252600390910154606082015290565b600033610f9a858285612ff6565b610fa5858585613070565b506001949350505050565b6005546001600160a01b03163314610fda5760405162461bcd60e51b8152600401610c5390615832565b610fe342600c55565b6015805462ff0000191662010000179055610ffb3390565b6001600160a01b03167f166f0287f5e28d35ec474da4c920a3e6f47f0d7c8833b963dd8367f68dd377cd60405160405180910390a2565b600033610c1d818585611045838361240b565b61104f9190615947565b612974565b60155460ff16151560011461107b5760405162461bcd60e51b8152600401610c5390615867565b602960009054906101000a90046001600160a01b03166001600160a01b03166338af3eed6040518163ffffffff1660e01b8152600401602060405180830381865afa1580156110ce573d6000803e3d6000fd5b505050506040513d601f19601f820116820180604052508101906110f2919061589e565b6001600160a01b0316336001600160a01b0316146111225760405162461bcd60e51b8152600401610c53906158bb565b6029546000906001600160a01b031663e7d88c42610df161337e565b6005546001600160a01b031633146111685760405162461bcd60e51b8152600401610c5390615832565b61117282826137d7565b5050565b61118033826138a4565b50565b60155460ff1615156001146111aa5760405162461bcd60e51b8152600401610c5390615867565b602760009054906101000a90046001600160a01b03166001600160a01b03166338af3eed6040518163ffffffff1660e01b8152600401602060405180830381865afa1580156111fd573d6000803e3d6000fd5b505050506040513d601f19601f82011682018060405250810190611221919061589e565b6001600160a01b0316336001600160a01b0316146112515760405162461bcd60e51b8152600401610c53906158bb565b6027546000906001600160a01b031663e7d88c42610df161337e565b60155460ff6101009091041615156001146112ca5760405162461bcd60e51b815260206004820152601760248201527f41697264726f70206e6f742079657420737461727465640000000000000000006044820152606401610c53565b60006112d5336139d8565b306000908152600e60205260409020549091506112f29082612a99565b306000908152600e60208190526040822092909255610e7c91839133610e5c565b6005546001600160a01b0316331461133d5760405162461bcd60e51b8152600401610c5390615832565b6113476000613bb1565b565b611354823383612ff6565b61117282826138a4565b8062278d0014806113715750806276a700145b8061137e57508062ed4e00145b8061138c5750806301e13380145b6113d85760405162461bcd60e51b815260206004820152601860248201527f5374616b696e67206f7074696f6e206e6f7420657869737400000000000000006044820152606401610c53565b336000908152600e602052604090205482106114365760405162461bcd60e51b815260206004820152601e60248201527f43616e6e6f74207374616b65206d6f7265207468616e2062616c616e636500006044820152606401610c53565b6000818152601360205260409020546114529083908390613c03565b61145c33836138a4565b306000908152600e60205260409020546114769083612968565b306000908152600e60205260409020555050565b6000610e5033613db0565b60155460ff1615156001146114bc5760405162461bcd60e51b8152600401610c5390615867565b602460009054906101000a90046001600160a01b03166001600160a01b03166338af3eed6040518163ffffffff1660e01b8152600401602060405180830381865afa15801561150f573d6000803e3d6000fd5b505050506040513d601f19601f82011682018060405250810190611533919061589e565b6001600160a01b0316336001600160a01b0316146115635760405162461bcd60e51b8152600401610c53906158bb565b6024546000906001600160a01b031663e7d88c42610df1612aa5565b60155460ff1615156001146115a65760405162461bcd60e51b8152600401610c5390615867565b602360009054906101000a90046001600160a01b03166001600160a01b03166338af3eed6040518163ffffffff1660e01b8152600401602060405180830381865afa1580156115f9573d6000803e3d6000fd5b505050506040513d601f19601f8201168201806040525081019061161d919061589e565b6001600160a01b0316336001600160a01b03161461164d5760405162461bcd60e51b8152600401610c53906158bb565b6023546000906001600160a01b031663e7d88c42610df1613eee565b60155460ff1615156001146116905760405162461bcd60e51b8152600401610c5390615867565b602660009054906101000a90046001600160a01b03166001600160a01b03166338af3eed6040518163ffffffff1660e01b8152600401602060405180830381865afa1580156116e3573d6000803e3d6000fd5b505050506040513d601f19601f82011682018060405250810190611707919061589e565b6001600160a01b0316336001600160a01b0316146117375760405162461bcd60e51b8152600401610c53906158bb565b6026546000906001600160a01b031663e7d88c42610df1612aa5565b6005546001600160a01b0316331461177d5760405162461bcd60e51b8152600401610c5390615832565b6015805464ffff0000001916630100000061ffff8416021790553360405161ffff831681526001600160a01b0391909116907fdf92943b31fff67e8447ff9fa8b5e226ddcc5fb34d36cfe120c0f2b96eb8d6f7906020015b60405180910390a250565b60006117f46005546001600160a01b031690565b905090565b6005546001600160a01b031633146118235760405162461bcd60e51b8152600401610c5390615832565b306000908152600e602052604090205481106118815760405162461bcd60e51b815260206004820181905260248201527f416d6f756e74206275726e74206c6172676572207468616e2062616c616e63656044820152606401610c53565b306000908152600e602052604090205461189b9082612a99565b306000908152600e6020526040902055601054610cda9082612a99565b6005546001600160a01b031633146118e25760405162461bcd60e51b8152600401610c5390615832565b6118eb81614393565b60405181815233907fe4d1041ab63832a18ae323c0781239637b799ccd1ffa03b0cc4c0916f14834d7906020016117d5565b60155460ff1615156001146119445760405162461bcd60e51b8152600401610c5390615867565b602860009054906101000a90046001600160a01b03166001600160a01b03166338af3eed6040518163ffffffff1660e01b8152600401602060405180830381865afa158015611997573d6000803e3d6000fd5b505050506040513d601f19601f820116820180604052508101906119bb919061589e565b6001600160a01b0316336001600160a01b0316146119eb5760405162461bcd60e51b8152600401610c53906158bb565b6028546000906001600160a01b031663e7d88c42610df161337e565b60155460ff161515600114611a2e5760405162461bcd60e51b8152600401610c5390615867565b60208054604080516338af3eed60e01b815290516001600160a01b03909216926338af3eed926004808401938290030181865afa158015611a73573d6000803e3d6000fd5b505050506040513d601f19601f82011682018060405250810190611a97919061589e565b6001600160a01b0316336001600160a01b031614611ac75760405162461bcd60e51b8152600401610c53906158bb565b6020546000906001600160a01b031663e7d88c42610df1614437565b606060128054610b8c906157f7565b6005546001600160a01b03163314611b1c5760405162461bcd60e51b8152600401610c5390615832565b60155462010000900460ff161515600114611b795760405162461bcd60e51b815260206004820152601860248201527f507269766174652053616c65206e6f74207374617274656400000000000000006044820152606401610c53565b60008111611bd55760405162461bcd60e51b8152602060048201526024808201527f43616e6e6f74206164642062656e65666963696172792077697468203020616d6044820152631bdd5b9d60e21b6064820152608401610c53565b61117282826147d3565b6005546001600160a01b03163314611c095760405162461bcd60e51b8152600401610c5390615832565b80611c505760405162461bcd60e51b81526020600482015260176024820152760416d6f756e74206d696e742063616e6e6f74206265203604c1b6044820152606401610c53565b601454611c5d9082612968565b601455601054611c6d9082612968565b6010556040518181523090600090600080516020615aae83398151915290602001610cfc565b60003381611ca1828661240b565b905083811015611d015760405162461bcd60e51b815260206004820152602560248201527f45524332303a2064656372656173656420616c6c6f77616e63652062656c6f77604482015264207a65726f60d81b6064820152608401610c53565b610fa58286868403612974565b600033610c1d818585613070565b6005546001600160a01b03163314611d465760405162461bcd60e51b8152600401610c5390615832565b6015805461ff00191661010083151502179055336001600160a01b03167fe596a4fd4ba2e7f54093d98b96267c6b0dbae1e317bed8123d9fbc868c028377826040516117d5911515815260200190565b60155460ff161515600114611dbd5760405162461bcd60e51b8152600401610c5390615867565b602160009054906101000a90046001600160a01b03166001600160a01b03166338af3eed6040518163ffffffff1660e01b8152600401602060405180830381865afa158015611e10573d6000803e3d6000fd5b505050506040513d601f19601f82011682018060405250810190611e34919061589e565b6001600160a01b0316336001600160a01b031614611e645760405162461bcd60e51b8152600401610c53906158bb565b6021546000906001600160a01b031663e7d88c42610df1613eee565b6005546001600160a01b03163314611eaa5760405162461bcd60e51b8152600401610c5390615832565b6015805460ff1916600117905560205460408051636466520f60e11b815290516001600160a01b039092169163c8cca41e9160048082019260009290919082900301818387803b158015611efd57600080fd5b505af1158015611f11573d6000803e3d6000fd5b50505050602160009054906101000a90046001600160a01b03166001600160a01b031663c8cca41e6040518163ffffffff1660e01b8152600401600060405180830381600087803b158015611f6557600080fd5b505af1158015611f79573d6000803e3d6000fd5b50505050602260009054906101000a90046001600160a01b03166001600160a01b031663c8cca41e6040518163ffffffff1660e01b8152600401600060405180830381600087803b158015611fcd57600080fd5b505af1158015611fe1573d6000803e3d6000fd5b50505050602360009054906101000a90046001600160a01b03166001600160a01b031663c8cca41e6040518163ffffffff1660e01b8152600401600060405180830381600087803b15801561203557600080fd5b505af1158015612049573d6000803e3d6000fd5b50505050602460009054906101000a90046001600160a01b03166001600160a01b031663c8cca41e6040518163ffffffff1660e01b8152600401600060405180830381600087803b15801561209d57600080fd5b505af11580156120b1573d6000803e3d6000fd5b50505050602560009054906101000a90046001600160a01b03166001600160a01b031663c8cca41e6040518163ffffffff1660e01b8152600401600060405180830381600087803b15801561210557600080fd5b505af1158015612119573d6000803e3d6000fd5b50505050602660009054906101000a90046001600160a01b03166001600160a01b031663c8cca41e6040518163ffffffff1660e01b8152600401600060405180830381600087803b15801561216d57600080fd5b505af1158015612181573d6000803e3d6000fd5b50505050602760009054906101000a90046001600160a01b03166001600160a01b031663c8cca41e6040518163ffffffff1660e01b8152600401600060405180830381600087803b1580156121d557600080fd5b505af11580156121e9573d6000803e3d6000fd5b50505050602860009054906101000a90046001600160a01b03166001600160a01b031663c8cca41e6040518163ffffffff1660e01b8152600401600060405180830381600087803b15801561223d57600080fd5b505af1158015612251573d6000803e3d6000fd5b50505050602960009054906101000a90046001600160a01b03166001600160a01b031663c8cca41e6040518163ffffffff1660e01b8152600401600060405180830381600087803b1580156122a557600080fd5b505af11580156122b9573d6000803e3d6000fd5b505050506122c43390565b6001600160a01b03167f72e04afc383d9ab428814e808cd65abb27c66b5fa85cc230b4cda3e36b436c9860405160405180910390a2565b6005546001600160a01b031633146123255760405162461bcd60e51b8152600401610c5390615832565b61232e81614926565b60405181815233907f31bbdc307cb7afab9b265ee4c47f5feb19d8a8702a67c0b695df02e0d4c55b5f906020016117d5565b6005546001600160a01b0316331461238a5760405162461bcd60e51b8152600401610c5390615832565b600081116123d45760405162461bcd60e51b81526020600482015260176024820152760416d6f756e74206d696e742063616e6e6f74206265203604c1b6044820152606401610c53565b306000908152600e60205260409020546123ee9082612968565b306000908152600e6020526040902055601054611c6d9082612968565b6001600160a01b039182166000908152600f6020908152604080832093909416825291909152205490565b604080518082019091526000815260606020820152600080604051806040016040528060008152602001600860096000886001600160a01b03166001600160a01b0316815260200190815260200160002054815481106124985761249861595f565b9060005260206000209060030201600201805480602002602001604051908101604052809291908181526020016000905b828210156125445760008481526020908190206040805160e0810182526007860290920180546001600160a01b03168352600180820154848601526002820154928401929092526003810154606084015260048101546080840152600581015460a08401526006015460c083015290835290920191016124c9565b50505091525060208101515190915061256f5760405162461bcd60e51b8152600401610c5390615975565b60005b8160200151518110156126355760006125c98360200151838151811061259a5761259a61595f565b6020026020010151846020015184815181106125b8576125b861595f565b6020026020010151602001516149cb565b905080836020015183815181106125e2576125e261595f565b60200260200101516060018181525050826020015182815181106126085761260861595f565b6020026020010151602001518461261f9190615947565b935061262e9050600182615947565b9050612572565b5090815292915050565b60155460ff1615156001146126665760405162461bcd60e51b8152600401610c5390615867565b602260009054906101000a90046001600160a01b03166001600160a01b03166338af3eed6040518163ffffffff1660e01b8152600401602060405180830381865afa1580156126b9573d6000803e3d6000fd5b505050506040513d601f19601f820116820180604052508101906126dd919061589e565b6001600160a01b0316336001600160a01b03161461270d5760405162461bcd60e51b8152600401610c53906158bb565b6022546000906001600160a01b031663e7d88c42610df1613eee565b6000806127368484614a1e565b9150915061274381612360565b306000908152600e602052604090205461275d9083612a99565b306000908152600e602052604090208190556127799082612a99565b306000908152600e60205260409020556127938183615947565b601060008282546127a49190615947565b909155506127b490508183615947565b336000908152600e6020526040812080549091906127d3908490615947565b909155505050505050565b6005546001600160a01b031633146128085760405162461bcd60e51b8152600401610c5390615832565b6001600160a01b03811661286d5760405162461bcd60e51b815260206004820152602660248201527f4f776e61626c653a206e6577206f776e657220697320746865207a65726f206160448201526564647265737360d01b6064820152608401610c53565b61118081613bb1565b60008061288283614eb4565b9150915061288f81612360565b306000908152600e60205260409020546128a99083612a99565b306000908152600e602052604090208190556128c59082612a99565b306000908152600e60205260409020556128df8183615947565b601060008282546128f09190615947565b9091555061290090508183615947565b336000908152600e60205260408120805490919061291f908490615947565b9091555050505050565b6000818484111561294d5760405162461bcd60e51b8152600401610c5391906155a9565b505050900390565b600061296182846159da565b9392505050565b60006129618284615947565b6001600160a01b0383166129d65760405162461bcd60e51b8152602060048201526024808201527f45524332303a20617070726f76652066726f6d20746865207a65726f206164646044820152637265737360e01b6064820152608401610c53565b6001600160a01b038216612a375760405162461bcd60e51b815260206004820152602260248201527f45524332303a20617070726f766520746f20746865207a65726f206164647265604482015261737360f01b6064820152608401610c53565b6001600160a01b0383811660008181526001602090815260408083209487168084529482529182902085905590518481527f8c5be1e5ebec7d5bd14f71427d1e84f3dd0314c0f7b2291e5b200ac8c7c3b92591015b60405180910390a3505050565b600061296182846159fc565b612aad61558a565b604051806106e00160405280612acd615573670de0b6b3a7640000615134565b8152602001612ae6615573670de0b6b3a7640000615134565b8152602001612aff615573670de0b6b3a7640000615134565b8152602001612b18615573670de0b6b3a7640000615134565b8152602001612b31615573670de0b6b3a7640000615134565b8152602001612b4a615573670de0b6b3a7640000615134565b8152602001612b63615573670de0b6b3a7640000615134565b8152602001612b7c615573670de0b6b3a7640000615134565b8152602001612b95615573670de0b6b3a7640000615134565b8152602001612bae615573670de0b6b3a7640000615134565b8152602001612bc7615573670de0b6b3a7640000615134565b8152602001612be0615573670de0b6b3a7640000615134565b8152602001612bf9615573670de0b6b3a7640000615134565b8152602001612c12615573670de0b6b3a7640000615134565b8152602001612c2b615573670de0b6b3a7640000615134565b8152602001612c44615573670de0b6b3a7640000615134565b8152602001612c5e620155cc670de0b6b3a7640000615134565b8152602001612c78620155cc670de0b6b3a7640000615134565b8152602001612c92620155cc670de0b6b3a7640000615134565b8152602001612cac620155cc670de0b6b3a7640000615134565b8152602001612cc6620155cc670de0b6b3a7640000615134565b8152602001612ce0620155cc670de0b6b3a7640000615134565b8152602001612cfa620155cc670de0b6b3a7640000615134565b8152602001612d14620155cc670de0b6b3a7640000615134565b8152602001612d2e620155cc670de0b6b3a7640000615134565b8152602001612d48620155cc670de0b6b3a7640000615134565b8152602001612d62620155cc670de0b6b3a7640000615134565b8152602001612d7c620155cc670de0b6b3a7640000615134565b8152602001612d96620155cc670de0b6b3a7640000615134565b8152602001612db0620155cc670de0b6b3a7640000615134565b8152602001612dca620155cc670de0b6b3a7640000615134565b8152602001612de4620155cc670de0b6b3a7640000615134565b8152602001612dfe620155cc670de0b6b3a7640000615134565b8152602001612e18620155cc670de0b6b3a7640000615134565b8152602001612e32620155cc670de0b6b3a7640000615134565b8152602001612e4c620155cc670de0b6b3a7640000615134565b8152602001612e66620155cc670de0b6b3a7640000615134565b8152602001612e80620155cc670de0b6b3a7640000615134565b8152602001612e9a620155cc670de0b6b3a7640000615134565b8152602001612eb4620155cc670de0b6b3a7640000615134565b8152602001612ece620155cc670de0b6b3a7640000615134565b8152602001612ee8620155cc670de0b6b3a7640000615134565b8152602001612f02620155cc670de0b6b3a7640000615134565b8152602001612f1c620155cc670de0b6b3a7640000615134565b8152602001612f36620155cc670de0b6b3a7640000615134565b8152602001612f50620155cc670de0b6b3a7640000615134565b8152602001612f6a620155cc670de0b6b3a7640000615134565b8152602001612f84620155cc670de0b6b3a7640000615134565b8152602001612f9e620155cc670de0b6b3a7640000615134565b8152602001612fb8620155cc670de0b6b3a7640000615134565b8152602001612fd2620155cc670de0b6b3a7640000615134565b81526020016000815260200160008152602001600081526020016000815250905090565b6000613002848461240b565b9050600019811461306a578181101561305d5760405162461bcd60e51b815260206004820152601d60248201527f45524332303a20696e73756666696369656e7420616c6c6f77616e63650000006044820152606401610c53565b61306a8484848403612974565b50505050565b6001600160a01b0383166130ba5760405162461bcd60e51b815260206004820152601160248201527066726f6d207a65726f206164647265737360781b6044820152606401610c53565b6001600160a01b0382166131025760405162461bcd60e51b815260206004820152600f60248201526e746f207a65726f206164647265737360881b6044820152606401610c53565b6001600160a01b0383166000908152600e60205260409020548181101561316b5760405162461bcd60e51b815260206004820152601f60248201527f7472616e7366657220616d6f756e7420657863656564732062616c616e6365006044820152606401610c53565b6015546000906131929061318b9085906301000000900461ffff16615134565b6064612955565b905060006131a08483612a99565b905060006131c36131bc836131b76002600a612955565b615134565b6003612955565b905060006131d7836131b76008600a612955565b601d546001600160a01b03166000908152600e60205260409020549091506131ff9083612968565b601d546001600160a01b039081166000908152600e602052604080822093909355601e54909116815220546132349083612968565b601e546001600160a01b039081166000908152600e602052604080822093909355601f54909116815220546132699083612968565b601f546001600160a01b03166000908152600e60205260408082209290925530815220546132979082612968565b306000908152600e602081815260408084209490945583518085018552601881527f7472616e7366657220657863656564732062616c616e63650000000000000000818301526001600160a01b038d168452919052919020546132fb918890612929565b6001600160a01b03808a166000908152600e6020526040808220939093559089168152205461332a9084612968565b6001600160a01b038089166000818152600e602052604090819020939093559151908a1690600080516020615aae8339815191529061336c9087815260200190565b60405180910390a35050505050505050565b61338661558a565b604051806106e001604052806133a762019a28670de0b6b3a7640000615134565b81526020016000815260200160008152602001600081526020016133d66204ce78670de0b6b3a7640000615134565b81526020016000815260200160008152602001600081526020016134056204ce78670de0b6b3a7640000615134565b81526020016000815260200160008152602001600081526020016134346204ce78670de0b6b3a7640000615134565b815260200160008152602001600081526020016000815260200161346362040164670de0b6b3a7640000615134565b815260200161347d62040164670de0b6b3a7640000615134565b815260200161349762040164670de0b6b3a7640000615134565b81526020016134b162040164670de0b6b3a7640000615134565b81526020016134cb62040164670de0b6b3a7640000615134565b81526020016134e562040164670de0b6b3a7640000615134565b81526020016134ff62040164670de0b6b3a7640000615134565b815260200161351962040164670de0b6b3a7640000615134565b815260200161353362040164670de0b6b3a7640000615134565b815260200161354d62040164670de0b6b3a7640000615134565b815260200161356762040164670de0b6b3a7640000615134565b815260200161358162040164670de0b6b3a7640000615134565b815260200161359b62040164670de0b6b3a7640000615134565b81526020016135b562040164670de0b6b3a7640000615134565b81526020016135cf62040164670de0b6b3a7640000615134565b81526020016135e962040164670de0b6b3a7640000615134565b815260200161360362040164670de0b6b3a7640000615134565b815260200161361d62040164670de0b6b3a7640000615134565b815260200161363762040164670de0b6b3a7640000615134565b815260200161365162040164670de0b6b3a7640000615134565b815260200161366b62040164670de0b6b3a7640000615134565b815260200161368562040164670de0b6b3a7640000615134565b815260200161369f62040164670de0b6b3a7640000615134565b81526020016136b962040164670de0b6b3a7640000615134565b81526020016136d362040164670de0b6b3a7640000615134565b81526020016136ed62040164670de0b6b3a7640000615134565b815260200161370762040164670de0b6b3a7640000615134565b815260200161372162040164670de0b6b3a7640000615134565b815260200161373b62040164670de0b6b3a7640000615134565b815260200161375562040164670de0b6b3a7640000615134565b815260200161376f62040164670de0b6b3a7640000615134565b815260200161378962040164670de0b6b3a7640000615134565b81526020016137a362040164670de0b6b3a7640000615134565b81526020016137bd62040164670de0b6b3a7640000615134565b8152602001612fd262040164670de0b6b3a7640000615134565b6001600160a01b03821661382d5760405162461bcd60e51b815260206004820152601f60248201527f45524332303a206d696e7420746f20746865207a65726f2061646472657373006044820152606401610c53565b806002600082825461383f9190615947565b90915550506001600160a01b0382166000908152602081905260408120805483929061386c908490615947565b90915550506040518181526001600160a01b03831690600090600080516020615aae8339815191529060200160405180910390a35050565b6001600160a01b0382166139045760405162461bcd60e51b815260206004820152602160248201527f45524332303a206275726e2066726f6d20746865207a65726f206164647265736044820152607360f81b6064820152608401610c53565b6001600160a01b0382166000908152600e6020526040902054818110156139785760405162461bcd60e51b815260206004820152602260248201527f45524332303a206275726e20616d6f756e7420657863656564732062616c616e604482015261636560f01b6064820152608401610c53565b6001600160a01b0383166000908152600e602052604081208383039055601080548492906139a79084906159fc565b90915550506040518281526000906001600160a01b03851690600080516020615aae83398151915290602001612a8c565b6001600160a01b0381166000908152600960205260408120546008805483928392918110613a0857613a0861595f565b906000526020600020906003020190506000613a3762093a80836001015442613a3191906159fc565b90612955565b90506001811015613ab05760405162461bcd60e51b815260206004820152603960248201527f5374616b61626c653a2041697264726f702063616e206f6e6c7920626520636c60448201527f61696d656420696e2061206d6f6e74682074696d657370616e000000000000006064820152608401610c53565b6002820154613ad15760405162461bcd60e51b8152600401610c5390615975565b60005b6002830154811015613ba2576000836002018281548110613af757613af761595f565b90600052602060002090600702016001015411613b1357613b90565b60006064600754856002018481548110613b2f57613b2f61595f565b906000526020600020906007020160010154613b4b9190615a13565b613b5591906159da565b9050613b618186615947565b945080846002018381548110613b7957613b7961595f565b906000526020600020906007020160040181905550505b80613b9a81615a32565b915050613ad4565b50504260019091015592915050565b600580546001600160a01b038381166001600160a01b0319831681179093556040519116919082907f8be0079c531659141344cd1fd0a4f28419497f9722a3daafe3b4186f6b6457e090600090a35050565b60008311613c535760405162461bcd60e51b815260206004820152601e60248201527f5374616b61626c653a2043616e6e6f74207374616b65206e6f7468696e6700006044820152606401610c53565b336000908152600960205260409020544281613c7557613c7233615140565b91505b60088281548110613c8857613c8861595f565b90600052602060002090600302016002016040518060e00160405280336001600160a01b0316815260200187815260200183815260200160008152602001600081526020018581526020018387613cdf9190615947565b90528154600180820184556000938452602093849020835160079093020180546001600160a01b0319166001600160a01b03909316929092178255928201519281019290925560408101516002830155606081015160038301556080810151600483015560a0810151600583015560c00151600690910155337f9cfd25589d1eb8ad71e342a86a8524e83522e3936c0803048c08f6d9ad974f40868484613d86818a615947565b60408051948552602085019390935291830152606082015260800160405180910390a25050505050565b6001600160a01b0381166000908152600d6020526040812060010154613e185760405162461bcd60e51b815260206004820152601b60248201527f5072697661746553616c653a206e6f20746f6b656e73206c65667400000000006044820152606401610c53565b6000613e23836151f2565b905060008111613e7f5760405162461bcd60e51b815260206004820152602160248201527f5072697661746553616c653a206e6f20746f6b656e7320746f2072656c6561736044820152606560f81b6064820152608401610c53565b613eca600d6000856001600160a01b03166001600160a01b031681526020019081526020016000206001015482604051806060016040528060398152602001615a7560399139612929565b6001600160a01b039093166000908152600d60205260409020600101929092555090565b613ef661558a565b604051806106e001604052806000815260200160008152602001600081526020016000815260200160008152602001600081526020016000815260200160008152602001613f4f62025a3f670de0b6b3a7640000615134565b8152602001613f6962025a3f670de0b6b3a7640000615134565b8152602001613f8362025a3f670de0b6b3a7640000615134565b8152602001613f9d62025a3f670de0b6b3a7640000615134565b8152602001613fb762025a3f670de0b6b3a7640000615134565b8152602001613fd162025a3f670de0b6b3a7640000615134565b8152602001613feb62025a3f670de0b6b3a7640000615134565b815260200161400562025a3f670de0b6b3a7640000615134565b815260200161401f6209eed1670de0b6b3a7640000615134565b81526020016140396209eed1670de0b6b3a7640000615134565b81526020016140536209eed1670de0b6b3a7640000615134565b815260200161406d6209eed1670de0b6b3a7640000615134565b81526020016140876209eed1670de0b6b3a7640000615134565b81526020016140a16209eed1670de0b6b3a7640000615134565b81526020016140bb6209eed1670de0b6b3a7640000615134565b81526020016140d56209eed1670de0b6b3a7640000615134565b81526020016140ef6209eed1670de0b6b3a7640000615134565b81526020016141096209eed1670de0b6b3a7640000615134565b81526020016141236209eed1670de0b6b3a7640000615134565b815260200161413d6209eed1670de0b6b3a7640000615134565b81526020016141576209eed1670de0b6b3a7640000615134565b81526020016141716209eed1670de0b6b3a7640000615134565b815260200161418b6209eed1670de0b6b3a7640000615134565b81526020016141a56209eed1670de0b6b3a7640000615134565b81526020016141bf6209eed1670de0b6b3a7640000615134565b81526020016141d96209eed1670de0b6b3a7640000615134565b81526020016141f36209eed1670de0b6b3a7640000615134565b815260200161420d6209eed1670de0b6b3a7640000615134565b81526020016142276209eed1670de0b6b3a7640000615134565b81526020016142416209eed1670de0b6b3a7640000615134565b815260200161425b6209eed1670de0b6b3a7640000615134565b81526020016142756209eed1670de0b6b3a7640000615134565b815260200161428f6209eed1670de0b6b3a7640000615134565b81526020016142a96209eed1670de0b6b3a7640000615134565b81526020016142c36209eed1670de0b6b3a7640000615134565b81526020016142dd6209eed1670de0b6b3a7640000615134565b81526020016142f76209eed1670de0b6b3a7640000615134565b81526020016143116209eed1670de0b6b3a7640000615134565b815260200161432b6209eed1670de0b6b3a7640000615134565b81526020016143456209eed1670de0b6b3a7640000615134565b815260200161435f6209eed1670de0b6b3a7640000615134565b81526020016143796209eed1670de0b6b3a7640000615134565b8152602001612fd26209eed1670de0b6b3a7640000615134565b601e8111156143fb5760405162461bcd60e51b815260206004820152602e60248201527f5374616b61626c653a2050656e616c7479206665652063616e6e6f742065786360448201526d32b2b21019903832b931b2b73a1760911b6064820152608401610c53565b60068190556040518181527fcfa4f4cf1cd64d13a167a8e75605e0c0c9d6700e903d17c5dc11f593254a04a9906020015b60405180910390a150565b61443f61558a565b604051806106e0016040528061445f61aaba670de0b6b3a7640000615134565b815260200161447861aaba670de0b6b3a7640000615134565b815260200161449161aaba670de0b6b3a7640000615134565b81526020016144aa61aaba670de0b6b3a7640000615134565b81526020016144c361aaba670de0b6b3a7640000615134565b81526020016144dc61aaba670de0b6b3a7640000615134565b81526020016144f561aaba670de0b6b3a7640000615134565b815260200161450e61aaba670de0b6b3a7640000615134565b815260200161452761aaba670de0b6b3a7640000615134565b815260200161454061aaba670de0b6b3a7640000615134565b815260200161455961aaba670de0b6b3a7640000615134565b815260200161457261aaba670de0b6b3a7640000615134565b815260200161458b61aaba670de0b6b3a7640000615134565b81526020016145a461aaba670de0b6b3a7640000615134565b81526020016145bd61aaba670de0b6b3a7640000615134565b81526020016145d661aaba670de0b6b3a7640000615134565b81526020016145f0620800bb670de0b6b3a7640000615134565b815260200161460a620800bb670de0b6b3a7640000615134565b8152602001614624620800bb670de0b6b3a7640000615134565b815260200161463e620800bb670de0b6b3a7640000615134565b8152602001614658620800bb670de0b6b3a7640000615134565b8152602001614672620800bb670de0b6b3a7640000615134565b815260200161468c620800bb670de0b6b3a7640000615134565b81526020016146a6620800bb670de0b6b3a7640000615134565b81526020016146c0620800bb670de0b6b3a7640000615134565b81526020016146da620800bb670de0b6b3a7640000615134565b81526020016146f4620800bb670de0b6b3a7640000615134565b815260200161470e620800bb670de0b6b3a7640000615134565b815260200160008152602001600081526020016000815260200160008152602001600081526020016000815260200160008152602001600081526020016000815260200160008152602001600081526020016000815260200160008152602001600081526020016000815260200160008152602001600081526020016000815260200160008152602001600081526020016000815260200160008152602001600081526020016000815260200160008152602001600081526020016000815250905090565b600b5481111561483f5760405162461bcd60e51b815260206004820152603160248201527f5072697661746553616c653a206e6f7420656e6f7567682062616c616e6365206044820152703a379030b2321030903732bb903ab9b2b960791b6064820152608401610c53565b6001600160a01b0382166000908152600d6020526040902060010154156148ba5760405162461bcd60e51b815260206004820152602960248201527f5072697661746553616c653a2054686973207573657220616c726561647920726044820152681959da5cdd195c995960ba1b6064820152608401610c53565b6001600160a01b0382166000908152600d60205260408120828155600180820184905560028201805460ff191690556003909101819055600a805491929091614904908490615947565b9250508190555080600b600082825461491d91906159fc565b90915550505050565b60c88111156149965760405162461bcd60e51b815260206004820152603660248201527f5374616b61626c653a2041697264726f702050657263656e746167652063616e6044820152753737ba1032bc31b2b2b2101918103832b931b2b73a1760511b6064820152608401610c53565b60078190556040518181527fcc672f1026b958c0cfbfdd89ebe8ddcbc127f16ec24da6c2c7a4de26a8b1857e9060200161442c565b60008260200151600014156149e257506000610c23565b6a52b7d2dcc80cd2e40000006149fb846040015161546a565b60a0850151614a0a9085615a13565b614a149190615a13565b61296191906159da565b3360009081526009602052604081205460088054839291839183908110614a4757614a4761595f565b90600052602060002090600302016002018581548110614a6957614a6961595f565b906000526020600020906007020190508581600101541015614ae95760405162461bcd60e51b815260206004820152603360248201527f5374616b61626c653a2043616e6e6f74207769746864726177206d6f726520746044820152721a185b881e5bdd481a185d99481cdd185ad959606a1b6064820152608401610c53565b6040805160e08101825282546001600160a01b03168152600183015460208201526002830154918101919091526003820154606082015260048201546080820152600582015460a0820152600682015460c0820152600090614b4b90886149cb565b9050600082600201548360060154614b6391906159fc565b90504283600601541115614d165787836001016000828254614b8591906159fc565b90915550506001830154614c115760088481548110614ba657614ba661595f565b90600052602060002090600302016002018781548110614bc857614bc861595f565b60009182526020822060079091020180546001600160a01b0319168155600181018290556002810182905560038101829055600481018290556005810182905560060155614cff565b826001015460088581548110614c2957614c2961595f565b90600052602060002090600302016002018881548110614c4b57614c4b61595f565b9060005260206000209060070201600101819055504260088581548110614c7457614c7461595f565b90600052602060002090600302016002018881548110614c9657614c9661595f565b6000918252602090912060026007909202010155614cb48142615947565b60088581548110614cc757614cc761595f565b90600052602060002090600302016002018881548110614ce957614ce961595f565b9060005260206000209060070201600601819055505b614d0988836154ff565b9550955050505050614ead565b87836001016000828254614d2a91906159fc565b90915550506001830154614db65760088481548110614d4b57614d4b61595f565b90600052602060002090600302016002018781548110614d6d57614d6d61595f565b60009182526020822060079091020180546001600160a01b0319168155600181018290556002810182905560038101829055600481018290556005810182905560060155614ea4565b826001015460088581548110614dce57614dce61595f565b90600052602060002090600302016002018881548110614df057614df061595f565b9060005260206000209060070201600101819055504260088581548110614e1957614e1961595f565b90600052602060002090600302016002018881548110614e3b57614e3b61595f565b6000918252602090912060026007909202010155614e598142615947565b60088581548110614e6c57614e6c61595f565b90600052602060002090600302016002018881548110614e8e57614e8e61595f565b9060005260206000209060070201600601819055505b50869450925050505b9250929050565b3360009081526009602052604081205460088054839291839183908110614edd57614edd61595f565b90600052602060002090600302016002018581548110614eff57614eff61595f565b906000526020600020906007020190506000816001015411614f935760405162461bcd60e51b815260206004820152604160248201527f5374616b61626c653a2043616e6e6f742077697468647261772c20796f75206460448201527f6f6e2774206861766520616e79207374616b6520696e207468697320496e64656064820152600f60fb1b608482015260a401610c53565b60018101546040805160e08101825283546001600160a01b03168152602081018390526002840154918101919091526003830154606082015260048301546080820152600583015460a0820152600683015460c0820152600090614ff790836149cb565b905042836006015411156150af578183600101600082825461501991906159fc565b909155505060088054859081106150325761503261595f565b906000526020600020906003020160020187815481106150545761505461595f565b60009182526020822060079091020180546001600160a01b03191681556001810182905560028101829055600381018290556004810182905560058101829055600601556150a282826154ff565b9550955050505050915091565b600884815481106150c2576150c261595f565b906000526020600020906003020160020187815481106150e4576150e461595f565b60009182526020822060079091020180546001600160a01b031916815560018101829055600281018290556003810182905560048101829055600581018290556006015590969095509350505050565b60006129618284615a13565b6008805460019081018083556000928352829161515c916159fc565b905082600882815481106151725761517261595f565b906000526020600020906003020160000160006101000a8154816001600160a01b0302191690836001600160a01b0316021790555042600882815481106151bb576151bb61595f565b60009182526020808320600160039093020191909101929092556001600160a01b0390941684526009905260409092208290555090565b600080600062015180600c544261520991906159fc565b61521391906159da565b90506101e08110156152d7576001600160a01b0384166000908152600d602052604090206002015460ff166152b1576001600160a01b0384166000908152600d60205260409020546152889061528190615279906a0136d704b91c7b3a70000090615134565b600b54612955565b8390612968565b6001600160a01b0385166000908152600d60205260409020600201805460ff1916600117905591505b6001600160a01b0384166000908152600d602052604090206101c2600390910155615404565b6101e081101580156152ea575061034881105b15615404576001600160a01b0384166000908152600d602052604090206002015460ff16615372576001600160a01b0384166000908152600d60205260409020546153499061528190615279906a0136d704b91c7b3a70000090615134565b6001600160a01b0385166000908152600d60205260409020600201805460ff1916600117905591505b6001600160a01b0384166000908152600d602052604081206003015461539890836159fc565b6001600160a01b0386166000908152600d60205260409020549091506153d8906153d190615279906907aa22879aabcfac000090615134565b8490612968565b6153e29082615a13565b6001600160a01b0386166000908152600d602052604090206003018390559250505b816154635760405162461bcd60e51b815260206004820152602960248201527f5072697661746553616c653a2054686572652773206e6f7468696e6720746f2060448201526818db185a5b481e595d60ba1b6064820152608401610c53565b5092915050565b60008082116154bb5760405162461bcd60e51b815260206004820152601b60248201527f5374616b61626c653a204572726f722074696d657374616d70203000000000006044820152606401610c53565b610c236154c883426159fc565b6154dc9069d3c21bcecceda1000000615a13565b6301e13380604051806060016040528060278152602001615a4e60279139615550565b6000808361551257506000905080614ead565b6155328461552d61552587600654615134565b6103e8612955565b612a99565b6155458461552d61552587600654615134565b915091509250929050565b600081836155715760405162461bcd60e51b8152600401610c5391906155a9565b50828481615581576155816159c4565b04949350505050565b604051806106e001604052806037906020820280368337509192915050565b600060208083528351808285015260005b818110156155d6578581018301518582016040015282016155ba565b818111156155e8576000604083870101525b50601f01601f1916929092016040019392505050565b6001600160a01b038116811461118057600080fd5b6000806040838503121561562657600080fd5b8235615631816155fe565b946020939093013593505050565b60006020828403121561565157600080fd5b5035919050565b60008060006060848603121561566d57600080fd5b8335615678816155fe565b92506020840135615688816155fe565b929592945050506040919091013590565b6000602082840312156156ab57600080fd5b8135612961816155fe565b600080604083850312156156c957600080fd5b50508035926020909101359150565b6000602082840312156156ea57600080fd5b813561ffff8116811461296157600080fd5b60006020828403121561570e57600080fd5b8135801515811461296157600080fd5b6000806040838503121561573157600080fd5b823561573c816155fe565b9150602083013561574c816155fe565b809150509250929050565b6000602080835260608084018551838601528286015160408081880152828251808552608094508489019150868401935060005b818110156157e857845180516001600160a01b03168452888101518985015284810151858501528781015188850152868101518785015260a0808201519085015260c090810151908401529387019360e09092019160010161578b565b50909998505050505050505050565b600181811c9082168061580b57607f821691505b6020821081141561582c57634e487b7160e01b600052602260045260246000fd5b50919050565b6020808252818101527f4f776e61626c653a2063616c6c6572206973206e6f7420746865206f776e6572604082015260600190565b60208082526019908201527f4c6f636b65642057616c6c6574206e6f74207374617274656400000000000000604082015260600190565b6000602082840312156158b057600080fd5b8151612961816155fe565b60208082526011908201527057616c6c6574204f776e6572204f6e6c7960781b604082015260600190565b6106e08101818360005b603781101561590f5781518352602092830192909101906001016158f0565b50505092915050565b60006020828403121561592a57600080fd5b5051919050565b634e487b7160e01b600052601160045260246000fd5b6000821982111561595a5761595a615931565b500190565b634e487b7160e01b600052603260045260246000fd5b6020808252602f908201527f5374616b61626c653a2054686973206164647265737320646f6573206e6f742060408201526e6861766520616e79207374616b657360881b606082015260800190565b634e487b7160e01b600052601260045260246000fd5b6000826159f757634e487b7160e01b600052601260045260246000fd5b500490565b600082821015615a0e57615a0e615931565b500390565b6000816000190483118215151615615a2d57615a2d615931565b500290565b6000600019821415615a4657615a46615931565b506001019056fe5374616b61626c653a204572726f722063616e6e6f74206469766964652074696d657374616d705072697661746553616c653a2043616e6e6f742073756273747261637420746f74616c20616d6f756e74207769746820636c61696d61626c65ddf252ad1be2c89b69c2b068fc378daa952ba7f163c4a11628f55a4df523b3efa26469706673582212202f226def89ecf9657df32618dcf74195cd2b43a33d5115cdadf718f26cece9db64736f6c634300080b003360a060405234801561001057600080fd5b5060405161065238038061065283398101604081905261002f916100c0565b600082116100935760405162461bcd60e51b815260206004820152602760248201527f4c6f636b61626c653a20416d6f756e74206d7573742067726561746572207468604482015266616e207a65726f60c81b606482015260840160405180910390fd5b6000919091556001600160a01b031660805242600255600180546001600160a01b031916331790556100fd565b600080604083850312156100d357600080fd5b825160208401519092506001600160a01b03811681146100f257600080fd5b809150509250929050565b60805161053b61011760003960006069015261053b6000f3fe608060405234801561001057600080fd5b50600436106100625760003560e01c806338af3eed1461006757806367e404ce146100a65780638da5cb5b146100ac578063aa8c217c146100bf578063c8cca41e146100d1578063e7d88c42146100dc575b600080fd5b7f00000000000000000000000000000000000000000000000000000000000000005b6040516001600160a01b0390911681526020015b60405180910390f35b33610089565b600154610089906001600160a01b031681565b6000545b60405190815260200161009d565b6100da42600255565b005b6100c36100ea366004610355565b6001546000906001600160a01b0316331461016a5760405162461bcd60e51b815260206004820152603560248201527f4c6f636b61626c653a2063616c6c6572206861766520746f2062652054616c616044820152741e151bdad95b8814db585c9d0810dbdb9d1c9858dd605a1b60648201526084015b60405180910390fd5b60008054116101bb5760405162461bcd60e51b815260206004820152601860248201527f4c6f636b61626c653a206e6f20746f6b656e73206c65667400000000000000006044820152606401610161565b60006101c683610246565b9050600081116102185760405162461bcd60e51b815260206004820152601e60248201527f4c6f636b61626c653a206e6f20746f6b656e7320746f2072656c6561736500006044820152606401610161565b61023d600054826040518060600160405280603681526020016104d06036913961031d565b60005592915050565b60008062278d006002544261025b91906103f8565b610265919061040f565b6003549091506000905b603781116102ab576102978286836037811061028d5761028d610431565b6020020151610349565b9150806102a381610447565b91505061026f565b506102b7826001610462565b600355806103165760405162461bcd60e51b815260206004820152602660248201527f4c6f636b61626c653a2054686572652773206e6f7468696e6720746f20636c616044820152651a5b481e595d60d21b6064820152608401610161565b9392505050565b600081848411156103415760405162461bcd60e51b8152600401610161919061047a565b505050900390565b60006103168284610462565b60006106e080838503121561036957600080fd5b83601f84011261037857600080fd5b60405181810181811067ffffffffffffffff821117156103a857634e487b7160e01b600052604160045260246000fd5b6040529083019080858311156103bd57600080fd5b845b838110156103d75780358252602091820191016103bf565b509095945050505050565b634e487b7160e01b600052601160045260246000fd5b60008282101561040a5761040a6103e2565b500390565b60008261042c57634e487b7160e01b600052601260045260246000fd5b500490565b634e487b7160e01b600052603260045260246000fd5b600060001982141561045b5761045b6103e2565b5060010190565b60008219821115610475576104756103e2565b500190565b600060208083528351808285015260005b818110156104a75785810183015185820160400152820161048b565b818111156104b9576000604083870101525b50601f01601f191692909201604001939250505056fe4c6f636b61626c653a2043616e6e6f742073756273747261637420746f74616c20616d6f756e74207769746820636c61696d61626c65a26469706673582212206264a0ce7b896344e18368a04ee13b98620374ebd53b7899cb091a7ace5af3ed64736f6c634300080b003343616e6e6f74207472616e73666572206d6f7265207468616e20746f74616c20737570706c79",
			"opcodes": "PUSH1 0x80 PUSH1 0x40 MSTORE PUSH11 0xC24662F3B1CD048600000 PUSH1 0xB SSTORE CALLVALUE DUP1 ISZERO PUSH3 0x20 JUMPI PUSH1 0x0 DUP1 REVERT JUMPDEST POP PUSH1 0x40 DUP1 MLOAD DUP1 DUP3 ADD DUP3 MSTORE PUSH1 0x8 DUP2 MSTORE PUSH8 0x54414C415845554D PUSH1 0xC0 SHL PUSH1 0x20 DUP1 DUP4 ADD SWAP2 DUP3 MSTORE DUP4 MLOAD DUP1 DUP6 ADD SWAP1 SWAP5 MSTORE PUSH1 0x5 DUP5 MSTORE PUSH5 0xA8829882B PUSH1 0xDB SHL SWAP1 DUP5 ADD MSTORE DUP2 MLOAD SWAP2 SWAP3 SWAP2 PUSH3 0x6E SWAP2 PUSH1 0x3 SWAP2 PUSH3 0x8A2 JUMP JUMPDEST POP DUP1 MLOAD PUSH3 0x84 SWAP1 PUSH1 0x4 SWAP1 PUSH1 0x20 DUP5 ADD SWAP1 PUSH3 0x8A2 JUMP JUMPDEST POP POP POP PUSH3 0xA1 PUSH3 0x9B PUSH3 0x814 PUSH1 0x20 SHL PUSH1 0x20 SHR JUMP JUMPDEST PUSH3 0x818 JUMP JUMPDEST PUSH1 0x8 DUP1 SLOAD PUSH1 0x1 ADD DUP2 SSTORE PUSH1 0x0 DUP2 SWAP1 MSTORE PUSH1 0xF PUSH1 0x6 SSTORE PUSH1 0x50 PUSH1 0x7 SSTORE PUSH11 0xADB53ACFA41AEE12000000 PUSH1 0x10 SSTORE PUSH1 0x40 DUP1 MLOAD DUP1 DUP3 ADD SWAP1 SWAP2 MSTORE DUP2 DUP2 MSTORE PUSH8 0x54414C415845554D PUSH1 0xC0 SHL PUSH1 0x20 SWAP1 SWAP2 ADD SWAP1 DUP2 MSTORE PUSH3 0xF8 SWAP2 PUSH1 0x11 SWAP2 SWAP1 PUSH3 0x8A2 JUMP JUMPDEST POP PUSH1 0x40 DUP1 MLOAD DUP1 DUP3 ADD SWAP1 SWAP2 MSTORE PUSH1 0x5 DUP1 DUP3 MSTORE PUSH5 0xA8829882B PUSH1 0xDB SHL PUSH1 0x20 SWAP1 SWAP3 ADD SWAP2 DUP3 MSTORE PUSH3 0x127 SWAP2 PUSH1 0x12 SWAP2 PUSH3 0x8A2 JUMP JUMPDEST POP PUSH1 0x15 DUP1 SLOAD PUSH5 0xFFFF00FF00 NOT AND PUSH4 0x1000000 OR SWAP1 SSTORE PUSH1 0x6 PUSH32 0x188077C4E96C8D722BFF1047F9EE2E506225D148E0431BE6A5152559F24AACB9 SSTORE PUSH1 0x7 PUSH32 0xCEEDE4C7F180DEE475CC90DF8FFA8F9FF4F399EF557CC83BFF8712C6CB1256F8 SSTORE PUSH1 0x8 PUSH32 0xD226B06D1EE200DFA364A1FE6D9E7D43E4026A1F01E0BF574F4294DC294306C SSTORE PUSH1 0x16 DUP1 SLOAD PUSH1 0x1 PUSH1 0x1 PUSH1 0xA0 SHL SUB NOT SWAP1 DUP2 AND PUSH20 0x7A20DC6722563783E44BA8EDCA08C774621125E OR DUP3 SSTORE PUSH1 0x17 DUP1 SLOAD DUP3 AND PUSH20 0xF09F65DD4D229E991901669AD7C7549F060E30B9 OR SWAP1 SSTORE PUSH1 0x18 DUP1 SLOAD DUP3 AND PUSH20 0x1A2118E056D6AF192E233C2C9CFB34E067DED1F8 OR SWAP1 SSTORE PUSH1 0x19 DUP1 SLOAD DUP3 AND PUSH20 0x126974FA373267D86FAB6D6871AFE62CCB68E810 OR SWAP1 SSTORE PUSH1 0x1A DUP1 SLOAD DUP3 AND PUSH20 0x2F838CF0DF38B2E91E747A01DDAE5EBAD5558B7A OR SWAP1 SSTORE PUSH1 0x1B DUP1 SLOAD DUP3 AND PUSH20 0x45094071C4DAAF6A9A73B0A0F095A2B138BD8A3A OR SWAP1 SSTORE PUSH1 0x1C DUP1 SLOAD DUP3 AND PUSH20 0xAEB26FB84D0E2B3B353CD50F0A29FD40C916D2AB OR SWAP1 SSTORE PUSH1 0x1D DUP1 SLOAD DUP3 AND PUSH20 0xE61E7A7D16DB384433E532FB85724E7F3BDAAE2F OR SWAP1 SSTORE PUSH1 0x1E DUP1 SLOAD DUP3 AND PUSH20 0x406605EB24A97A2D61B516D8D850F2AEFA6A731A OR SWAP1 SSTORE PUSH1 0x1F DUP1 SLOAD SWAP1 SWAP2 AND PUSH20 0x97620DEADC98BC8173303686037CE7B986CF53C3 OR SWAP1 SSTORE PUSH11 0xE7CBBD7AA8310AE400000 PUSH1 0x14 SSTORE ADDRESS PUSH1 0x0 SWAP1 DUP2 MSTORE PUSH1 0xE PUSH1 0x20 MSTORE PUSH1 0x40 DUP1 DUP3 KECCAK256 PUSH11 0x2B6D4EB3E906BB84800000 SWAP1 SSTORE PUSH20 0x5470C8FF25EC05980FC7C2967D076B8012298FE7 SWAP1 SWAP2 MSTORE PUSH11 0x1E92959D60776D7C00000 PUSH32 0x51F28CF3B1FB778BC092B2740F38B19189D9C3B3CD839BA38747F656F3BCD967 SSTORE SWAP1 SLOAD SWAP1 MLOAD PUSH11 0x5C8D34A23DA1650A00000 SWAP2 PUSH1 0x1 PUSH1 0x1 PUSH1 0xA0 SHL SUB AND SWAP1 PUSH3 0x378 SWAP1 PUSH3 0x931 JUMP JUMPDEST SWAP2 DUP3 MSTORE PUSH1 0x1 PUSH1 0x1 PUSH1 0xA0 SHL SUB AND PUSH1 0x20 DUP3 ADD MSTORE PUSH1 0x40 ADD PUSH1 0x40 MLOAD DUP1 SWAP2 SUB SWAP1 PUSH1 0x0 CREATE DUP1 ISZERO DUP1 ISZERO PUSH3 0x3A9 JUMPI RETURNDATASIZE PUSH1 0x0 DUP1 RETURNDATACOPY RETURNDATASIZE PUSH1 0x0 REVERT JUMPDEST POP PUSH1 0x20 DUP1 SLOAD PUSH1 0x1 PUSH1 0x1 PUSH1 0xA0 SHL SUB NOT AND PUSH1 0x1 PUSH1 0x1 PUSH1 0xA0 SHL SUB SWAP3 DUP4 AND OR SWAP1 SSTORE PUSH1 0x17 SLOAD PUSH1 0x40 MLOAD PUSH11 0x1467A6F5A4A69801800000 SWAP3 SWAP2 SWAP1 SWAP2 AND SWAP1 PUSH3 0x3E9 SWAP1 PUSH3 0x931 JUMP JUMPDEST SWAP2 DUP3 MSTORE PUSH1 0x1 PUSH1 0x1 PUSH1 0xA0 SHL SUB AND PUSH1 0x20 DUP3 ADD MSTORE PUSH1 0x40 ADD PUSH1 0x40 MLOAD DUP1 SWAP2 SUB SWAP1 PUSH1 0x0 CREATE DUP1 ISZERO DUP1 ISZERO PUSH3 0x41A JUMPI RETURNDATASIZE PUSH1 0x0 DUP1 RETURNDATACOPY RETURNDATASIZE PUSH1 0x0 REVERT JUMPDEST POP PUSH1 0x21 DUP1 SLOAD PUSH1 0x1 PUSH1 0x1 PUSH1 0xA0 SHL SUB NOT AND PUSH1 0x1 PUSH1 0x1 PUSH1 0xA0 SHL SUB SWAP3 DUP4 AND OR SWAP1 SSTORE PUSH1 0x18 SLOAD PUSH1 0x40 MLOAD PUSH11 0x1467A6F5A4A69801800000 SWAP3 SWAP2 SWAP1 SWAP2 AND SWAP1 PUSH3 0x45A SWAP1 PUSH3 0x931 JUMP JUMPDEST SWAP2 DUP3 MSTORE PUSH1 0x1 PUSH1 0x1 PUSH1 0xA0 SHL SUB AND PUSH1 0x20 DUP3 ADD MSTORE PUSH1 0x40 ADD PUSH1 0x40 MLOAD DUP1 SWAP2 SUB SWAP1 PUSH1 0x0 CREATE DUP1 ISZERO DUP1 ISZERO PUSH3 0x48B JUMPI RETURNDATASIZE PUSH1 0x0 DUP1 RETURNDATACOPY RETURNDATASIZE PUSH1 0x0 REVERT JUMPDEST POP PUSH1 0x22 DUP1 SLOAD PUSH1 0x1 PUSH1 0x1 PUSH1 0xA0 SHL SUB NOT AND PUSH1 0x1 PUSH1 0x1 PUSH1 0xA0 SHL SUB SWAP3 DUP4 AND OR SWAP1 SSTORE PUSH1 0x19 SLOAD PUSH1 0x40 MLOAD PUSH11 0x1467A6F5A4A69801800000 SWAP3 SWAP2 SWAP1 SWAP2 AND SWAP1 PUSH3 0x4CB SWAP1 PUSH3 0x931 JUMP JUMPDEST SWAP2 DUP3 MSTORE PUSH1 0x1 PUSH1 0x1 PUSH1 0xA0 SHL SUB AND PUSH1 0x20 DUP3 ADD MSTORE PUSH1 0x40 ADD PUSH1 0x40 MLOAD DUP1 SWAP2 SUB SWAP1 PUSH1 0x0 CREATE DUP1 ISZERO DUP1 ISZERO PUSH3 0x4FC JUMPI RETURNDATASIZE PUSH1 0x0 DUP1 RETURNDATACOPY RETURNDATASIZE PUSH1 0x0 REVERT JUMPDEST POP PUSH1 0x23 DUP1 SLOAD PUSH1 0x1 PUSH1 0x1 PUSH1 0xA0 SHL SUB NOT AND PUSH1 0x1 PUSH1 0x1 PUSH1 0xA0 SHL SUB SWAP3 DUP4 AND OR SWAP1 SSTORE PUSH1 0x1A SLOAD PUSH1 0x40 MLOAD PUSH11 0x2E5276153CD3FB3800000 SWAP3 SWAP2 SWAP1 SWAP2 AND SWAP1 PUSH3 0x53C SWAP1 PUSH3 0x931 JUMP JUMPDEST SWAP2 DUP3 MSTORE PUSH1 0x1 PUSH1 0x1 PUSH1 0xA0 SHL SUB AND PUSH1 0x20 DUP3 ADD MSTORE PUSH1 0x40 ADD PUSH1 0x40 MLOAD DUP1 SWAP2 SUB SWAP1 PUSH1 0x0 CREATE DUP1 ISZERO DUP1 ISZERO PUSH3 0x56D JUMPI RETURNDATASIZE PUSH1 0x0 DUP1 RETURNDATACOPY RETURNDATASIZE PUSH1 0x0 REVERT JUMPDEST POP PUSH1 0x24 DUP1 SLOAD PUSH1 0x1 PUSH1 0x1 PUSH1 0xA0 SHL SUB NOT AND PUSH1 0x1 PUSH1 0x1 PUSH1 0xA0 SHL SUB SWAP3 DUP4 AND OR SWAP1 SSTORE PUSH1 0x1B SLOAD PUSH1 0x40 MLOAD PUSH11 0x2E5276153CD3FB3800000 SWAP3 SWAP2 SWAP1 SWAP2 AND SWAP1 PUSH3 0x5AD SWAP1 PUSH3 0x931 JUMP JUMPDEST SWAP2 DUP3 MSTORE PUSH1 0x1 PUSH1 0x1 PUSH1 0xA0 SHL SUB AND PUSH1 0x20 DUP3 ADD MSTORE PUSH1 0x40 ADD PUSH1 0x40 MLOAD DUP1 SWAP2 SUB SWAP1 PUSH1 0x0 CREATE DUP1 ISZERO DUP1 ISZERO PUSH3 0x5DE JUMPI RETURNDATASIZE PUSH1 0x0 DUP1 RETURNDATACOPY RETURNDATASIZE PUSH1 0x0 REVERT JUMPDEST POP PUSH1 0x25 DUP1 SLOAD PUSH1 0x1 PUSH1 0x1 PUSH1 0xA0 SHL SUB NOT AND PUSH1 0x1 PUSH1 0x1 PUSH1 0xA0 SHL SUB SWAP3 DUP4 AND OR SWAP1 SSTORE PUSH1 0x1C SLOAD PUSH1 0x40 MLOAD PUSH11 0x2E5276153CD3FB3800000 SWAP3 SWAP2 SWAP1 SWAP2 AND SWAP1 PUSH3 0x61E SWAP1 PUSH3 0x931 JUMP JUMPDEST SWAP2 DUP3 MSTORE PUSH1 0x1 PUSH1 0x1 PUSH1 0xA0 SHL SUB AND PUSH1 0x20 DUP3 ADD MSTORE PUSH1 0x40 ADD PUSH1 0x40 MLOAD DUP1 SWAP2 SUB SWAP1 PUSH1 0x0 CREATE DUP1 ISZERO DUP1 ISZERO PUSH3 0x64F JUMPI RETURNDATASIZE PUSH1 0x0 DUP1 RETURNDATACOPY RETURNDATASIZE PUSH1 0x0 REVERT JUMPDEST POP PUSH1 0x26 DUP1 SLOAD PUSH1 0x1 PUSH1 0x1 PUSH1 0xA0 SHL SUB NOT AND PUSH1 0x1 PUSH1 0x1 PUSH1 0xA0 SHL SUB SWAP3 DUP4 AND OR SWAP1 SSTORE PUSH1 0x1D SLOAD PUSH1 0x40 MLOAD PUSH11 0x8AF7623FB67BF1A800000 SWAP3 SWAP2 SWAP1 SWAP2 AND SWAP1 PUSH3 0x68F SWAP1 PUSH3 0x931 JUMP JUMPDEST SWAP2 DUP3 MSTORE PUSH1 0x1 PUSH1 0x1 PUSH1 0xA0 SHL SUB AND PUSH1 0x20 DUP3 ADD MSTORE PUSH1 0x40 ADD PUSH1 0x40 MLOAD DUP1 SWAP2 SUB SWAP1 PUSH1 0x0 CREATE DUP1 ISZERO DUP1 ISZERO PUSH3 0x6C0 JUMPI RETURNDATASIZE PUSH1 0x0 DUP1 RETURNDATACOPY RETURNDATASIZE PUSH1 0x0 REVERT JUMPDEST POP PUSH1 0x27 DUP1 SLOAD PUSH1 0x1 PUSH1 0x1 PUSH1 0xA0 SHL SUB NOT AND PUSH1 0x1 PUSH1 0x1 PUSH1 0xA0 SHL SUB SWAP3 DUP4 AND OR SWAP1 SSTORE PUSH1 0x1E SLOAD PUSH1 0x40 MLOAD PUSH11 0x8AF7623FB67BF1A800000 SWAP3 SWAP2 SWAP1 SWAP2 AND SWAP1 PUSH3 0x700 SWAP1 PUSH3 0x931 JUMP JUMPDEST SWAP2 DUP3 MSTORE PUSH1 0x1 PUSH1 0x1 PUSH1 0xA0 SHL SUB AND PUSH1 0x20 DUP3 ADD MSTORE PUSH1 0x40 ADD PUSH1 0x40 MLOAD DUP1 SWAP2 SUB SWAP1 PUSH1 0x0 CREATE DUP1 ISZERO DUP1 ISZERO PUSH3 0x731 JUMPI RETURNDATASIZE PUSH1 0x0 DUP1 RETURNDATACOPY RETURNDATASIZE PUSH1 0x0 REVERT JUMPDEST POP PUSH1 0x28 DUP1 SLOAD PUSH1 0x1 PUSH1 0x1 PUSH1 0xA0 SHL SUB NOT AND PUSH1 0x1 PUSH1 0x1 PUSH1 0xA0 SHL SUB SWAP3 DUP4 AND OR SWAP1 SSTORE PUSH1 0x1F SLOAD PUSH1 0x40 MLOAD PUSH11 0x8AF7623FB67BF1A800000 SWAP3 SWAP2 SWAP1 SWAP2 AND SWAP1 PUSH3 0x771 SWAP1 PUSH3 0x931 JUMP JUMPDEST SWAP2 DUP3 MSTORE PUSH1 0x1 PUSH1 0x1 PUSH1 0xA0 SHL SUB AND PUSH1 0x20 DUP3 ADD MSTORE PUSH1 0x40 ADD PUSH1 0x40 MLOAD DUP1 SWAP2 SUB SWAP1 PUSH1 0x0 CREATE DUP1 ISZERO DUP1 ISZERO PUSH3 0x7A2 JUMPI RETURNDATASIZE PUSH1 0x0 DUP1 RETURNDATACOPY RETURNDATASIZE PUSH1 0x0 REVERT JUMPDEST POP PUSH1 0x29 PUSH1 0x0 PUSH2 0x100 EXP DUP2 SLOAD DUP2 PUSH1 0x1 PUSH1 0x1 PUSH1 0xA0 SHL SUB MUL NOT AND SWAP1 DUP4 PUSH1 0x1 PUSH1 0x1 PUSH1 0xA0 SHL SUB AND MUL OR SWAP1 SSTORE POP PUSH3 0x80B PUSH11 0x8247EC1BBB14328D800000 PUSH1 0x40 MLOAD DUP1 PUSH1 0x60 ADD PUSH1 0x40 MSTORE DUP1 PUSH1 0x26 DUP2 MSTORE PUSH1 0x20 ADD PUSH3 0x6B50 PUSH1 0x26 SWAP2 CODECOPY PUSH1 0x10 SLOAD PUSH3 0x86A PUSH1 0x20 SHL PUSH3 0x2929 OR SWAP1 SWAP3 SWAP2 SWAP1 PUSH1 0x20 SHR JUMP JUMPDEST PUSH1 0x10 SSTORE PUSH3 0x9EB JUMP JUMPDEST CALLER SWAP1 JUMP JUMPDEST PUSH1 0x5 DUP1 SLOAD PUSH1 0x1 PUSH1 0x1 PUSH1 0xA0 SHL SUB DUP4 DUP2 AND PUSH1 0x1 PUSH1 0x1 PUSH1 0xA0 SHL SUB NOT DUP4 AND DUP2 OR SWAP1 SWAP4 SSTORE PUSH1 0x40 MLOAD SWAP2 AND SWAP2 SWAP1 DUP3 SWAP1 PUSH32 0x8BE0079C531659141344CD1FD0A4F28419497F9722A3DAAFE3B4186F6B6457E0 SWAP1 PUSH1 0x0 SWAP1 LOG3 POP POP JUMP JUMPDEST PUSH1 0x0 DUP2 DUP5 DUP5 GT ISZERO PUSH3 0x89A JUMPI PUSH1 0x40 MLOAD PUSH3 0x461BCD PUSH1 0xE5 SHL DUP2 MSTORE PUSH1 0x4 ADD PUSH3 0x891 SWAP2 SWAP1 PUSH3 0x956 JUMP JUMPDEST PUSH1 0x40 MLOAD DUP1 SWAP2 SUB SWAP1 REVERT JUMPDEST POP POP POP SWAP1 SUB SWAP1 JUMP JUMPDEST DUP3 DUP1 SLOAD PUSH3 0x8B0 SWAP1 PUSH3 0x9AE JUMP JUMPDEST SWAP1 PUSH1 0x0 MSTORE PUSH1 0x20 PUSH1 0x0 KECCAK256 SWAP1 PUSH1 0x1F ADD PUSH1 0x20 SWAP1 DIV DUP2 ADD SWAP3 DUP3 PUSH3 0x8D4 JUMPI PUSH1 0x0 DUP6 SSTORE PUSH3 0x91F JUMP JUMPDEST DUP3 PUSH1 0x1F LT PUSH3 0x8EF JUMPI DUP1 MLOAD PUSH1 0xFF NOT AND DUP4 DUP1 ADD OR DUP6 SSTORE PUSH3 0x91F JUMP JUMPDEST DUP3 DUP1 ADD PUSH1 0x1 ADD DUP6 SSTORE DUP3 ISZERO PUSH3 0x91F JUMPI SWAP2 DUP3 ADD JUMPDEST DUP3 DUP2 GT ISZERO PUSH3 0x91F JUMPI DUP3 MLOAD DUP3 SSTORE SWAP2 PUSH1 0x20 ADD SWAP2 SWAP1 PUSH1 0x1 ADD SWAP1 PUSH3 0x902 JUMP JUMPDEST POP PUSH3 0x92D SWAP3 SWAP2 POP PUSH3 0x93F JUMP JUMPDEST POP SWAP1 JUMP JUMPDEST PUSH2 0x652 DUP1 PUSH3 0x64FE DUP4 CODECOPY ADD SWAP1 JUMP JUMPDEST JUMPDEST DUP1 DUP3 GT ISZERO PUSH3 0x92D JUMPI PUSH1 0x0 DUP2 SSTORE PUSH1 0x1 ADD PUSH3 0x940 JUMP JUMPDEST PUSH1 0x0 PUSH1 0x20 DUP1 DUP4 MSTORE DUP4 MLOAD DUP1 DUP3 DUP6 ADD MSTORE PUSH1 0x0 JUMPDEST DUP2 DUP2 LT ISZERO PUSH3 0x985 JUMPI DUP6 DUP2 ADD DUP4 ADD MLOAD DUP6 DUP3 ADD PUSH1 0x40 ADD MSTORE DUP3 ADD PUSH3 0x967 JUMP JUMPDEST DUP2 DUP2 GT ISZERO PUSH3 0x998 JUMPI PUSH1 0x0 PUSH1 0x40 DUP4 DUP8 ADD ADD MSTORE JUMPDEST POP PUSH1 0x1F ADD PUSH1 0x1F NOT AND SWAP3 SWAP1 SWAP3 ADD PUSH1 0x40 ADD SWAP4 SWAP3 POP POP POP JUMP JUMPDEST PUSH1 0x1 DUP2 DUP2 SHR SWAP1 DUP3 AND DUP1 PUSH3 0x9C3 JUMPI PUSH1 0x7F DUP3 AND SWAP2 POP JUMPDEST PUSH1 0x20 DUP3 LT DUP2 EQ ISZERO PUSH3 0x9E5 JUMPI PUSH4 0x4E487B71 PUSH1 0xE0 SHL PUSH1 0x0 MSTORE PUSH1 0x22 PUSH1 0x4 MSTORE PUSH1 0x24 PUSH1 0x0 REVERT JUMPDEST POP SWAP2 SWAP1 POP JUMP JUMPDEST PUSH2 0x5B03 DUP1 PUSH3 0x9FB PUSH1 0x0 CODECOPY PUSH1 0x0 RETURN INVALID PUSH1 0x80 PUSH1 0x40 MSTORE PUSH1 0x4 CALLDATASIZE LT PUSH2 0x39B JUMPI PUSH1 0x0 CALLDATALOAD PUSH1 0xE0 SHR DUP1 PUSH4 0x883D9984 GT PUSH2 0x1DC JUMPI DUP1 PUSH4 0xB8B18E89 GT PUSH2 0x102 JUMPI DUP1 PUSH4 0xE1604B70 GT PUSH2 0xA0 JUMPI DUP1 PUSH4 0xF1FDF469 GT PUSH2 0x6F JUMPI DUP1 PUSH4 0xF1FDF469 EQ PUSH2 0xA41 JUMPI DUP1 PUSH4 0xF2FDE38B EQ PUSH2 0xA61 JUMPI DUP1 PUSH4 0xF729B00F EQ PUSH2 0xA81 JUMPI DUP1 PUSH4 0xFE6C9CC0 EQ PUSH2 0xAA1 JUMPI PUSH2 0x3AB JUMP JUMPDEST DUP1 PUSH4 0xE1604B70 EQ PUSH2 0x9C9 JUMPI DUP1 PUSH4 0xE73E14BF EQ PUSH2 0x9DF JUMPI DUP1 PUSH4 0xEB9F4AC7 EQ PUSH2 0xA0C JUMPI DUP1 PUSH4 0xED5C2AA3 EQ PUSH2 0xA21 JUMPI PUSH2 0x3AB JUMP JUMPDEST DUP1 PUSH4 0xD4DCA69B GT PUSH2 0xDC JUMPI DUP1 PUSH4 0xD4DCA69B EQ PUSH2 0x956 JUMPI DUP1 PUSH4 0xD5DBDF1B EQ PUSH2 0x969 JUMPI DUP1 PUSH4 0xD94D4AD6 EQ PUSH2 0x989 JUMPI DUP1 PUSH4 0xDD62ED3E EQ PUSH2 0x9A9 JUMPI PUSH2 0x3AB JUMP JUMPDEST DUP1 PUSH4 0xB8B18E89 EQ PUSH2 0x90A JUMPI DUP1 PUSH4 0xBEA8E46B EQ PUSH2 0x91F JUMPI DUP1 PUSH4 0xC8CCA41E EQ PUSH2 0x941 JUMPI PUSH2 0x3AB JUMP JUMPDEST DUP1 PUSH4 0x934851EC GT PUSH2 0x17A JUMPI DUP1 PUSH4 0xA169C515 GT PUSH2 0x149 JUMPI DUP1 PUSH4 0xA169C515 EQ PUSH2 0x88A JUMPI DUP1 PUSH4 0xA457C2D7 EQ PUSH2 0x8AA JUMPI DUP1 PUSH4 0xA9059CBB EQ PUSH2 0x8CA JUMPI DUP1 PUSH4 0xADF3364C EQ PUSH2 0x8EA JUMPI PUSH2 0x3AB JUMP JUMPDEST DUP1 PUSH4 0x934851EC EQ PUSH2 0x820 JUMPI DUP1 PUSH4 0x95D89B41 EQ PUSH2 0x835 JUMPI DUP1 PUSH4 0x96074E70 EQ PUSH2 0x84A JUMPI DUP1 PUSH4 0xA071DCF4 EQ PUSH2 0x86A JUMPI PUSH2 0x3AB JUMP JUMPDEST DUP1 PUSH4 0x8B7C64DA GT PUSH2 0x1B6 JUMPI DUP1 PUSH4 0x8B7C64DA EQ PUSH2 0x7AD JUMPI DUP1 PUSH4 0x8C63F97F EQ PUSH2 0x7CD JUMPI DUP1 PUSH4 0x8DA5CB5B EQ PUSH2 0x7ED JUMPI DUP1 PUSH4 0x90A4C709 EQ PUSH2 0x80B JUMPI PUSH2 0x3AB JUMP JUMPDEST DUP1 PUSH4 0x883D9984 EQ PUSH2 0x74B JUMPI DUP1 PUSH4 0x8902CD70 EQ PUSH2 0x760 JUMPI DUP1 PUSH4 0x893D20E8 EQ PUSH2 0x780 JUMPI PUSH2 0x3AB JUMP JUMPDEST DUP1 PUSH4 0x3F3EF2DC GT PUSH2 0x2C1 JUMPI DUP1 PUSH4 0x72FE1E63 GT PUSH2 0x25F JUMPI DUP1 PUSH4 0x7C2412F9 GT PUSH2 0x22E JUMPI DUP1 PUSH4 0x7C2412F9 EQ PUSH2 0x6ED JUMPI DUP1 PUSH4 0x7CB85214 EQ PUSH2 0x702 JUMPI DUP1 PUSH4 0x8378A875 EQ PUSH2 0x721 JUMPI DUP1 PUSH4 0x84F3996D EQ PUSH2 0x736 JUMPI PUSH2 0x3AB JUMP JUMPDEST DUP1 PUSH4 0x72FE1E63 EQ PUSH2 0x678 JUMPI DUP1 PUSH4 0x760EDFFD EQ PUSH2 0x68E JUMPI DUP1 PUSH4 0x79CC6790 EQ PUSH2 0x6AD JUMPI DUP1 PUSH4 0x7B0472F0 EQ PUSH2 0x6CD JUMPI PUSH2 0x3AB JUMP JUMPDEST DUP1 PUSH4 0x56029137 GT PUSH2 0x29B JUMPI DUP1 PUSH4 0x56029137 EQ PUSH2 0x603 JUMPI DUP1 PUSH4 0x5B88349D EQ PUSH2 0x618 JUMPI DUP1 PUSH4 0x70A08231 EQ PUSH2 0x62D JUMPI DUP1 PUSH4 0x715018A6 EQ PUSH2 0x663 JUMPI PUSH2 0x3AB JUMP JUMPDEST DUP1 PUSH4 0x3F3EF2DC EQ PUSH2 0x5AE JUMPI DUP1 PUSH4 0x40C10F19 EQ PUSH2 0x5C3 JUMPI DUP1 PUSH4 0x42966C68 EQ PUSH2 0x5E3 JUMPI PUSH2 0x3AB JUMP JUMPDEST DUP1 PUSH4 0x19CA147D GT PUSH2 0x339 JUMPI DUP1 PUSH4 0x313CE567 GT PUSH2 0x308 JUMPI DUP1 PUSH4 0x313CE567 EQ PUSH2 0x528 JUMPI DUP1 PUSH4 0x39509351 EQ PUSH2 0x544 JUMPI DUP1 PUSH4 0x3B124FE7 EQ PUSH2 0x564 JUMPI DUP1 PUSH4 0x3DC10AD4 EQ PUSH2 0x599 JUMPI PUSH2 0x3AB JUMP JUMPDEST DUP1 PUSH4 0x19CA147D EQ PUSH2 0x493 JUMPI DUP1 PUSH4 0x1A39D8EF EQ PUSH2 0x4DD JUMPI DUP1 PUSH4 0x23B872DD EQ PUSH2 0x4F3 JUMPI DUP1 PUSH4 0x2B1E0F33 EQ PUSH2 0x513 JUMPI PUSH2 0x3AB JUMP JUMPDEST DUP1 PUSH4 0x95EA7B3 GT PUSH2 0x375 JUMPI DUP1 PUSH4 0x95EA7B3 EQ PUSH2 0x429 JUMPI DUP1 PUSH4 0xE1B09ED EQ PUSH2 0x449 JUMPI DUP1 PUSH4 0x15441BB9 EQ PUSH2 0x469 JUMPI DUP1 PUSH4 0x18160DDD EQ PUSH2 0x47E JUMPI PUSH2 0x3AB JUMP JUMPDEST DUP1 PUSH4 0x1B75826 EQ PUSH2 0x3B4 JUMPI DUP1 PUSH4 0x6F200BD EQ PUSH2 0x3E3 JUMPI DUP1 PUSH4 0x6FDDE03 EQ PUSH2 0x407 JUMPI PUSH2 0x3AB JUMP JUMPDEST CALLDATASIZE PUSH2 0x3AB JUMPI PUSH2 0x3A9 CALLVALUE PUSH2 0xABF JUMP JUMPDEST STOP JUMPDEST PUSH2 0x3A9 CALLVALUE PUSH2 0xABF JUMP JUMPDEST CALLVALUE DUP1 ISZERO PUSH2 0x3C0 JUMPI PUSH1 0x0 DUP1 REVERT JUMPDEST POP PUSH1 0x15 SLOAD PUSH2 0x3CE SWAP1 PUSH1 0xFF AND DUP2 JUMP JUMPDEST PUSH1 0x40 MLOAD SWAP1 ISZERO ISZERO DUP2 MSTORE PUSH1 0x20 ADD JUMPDEST PUSH1 0x40 MLOAD DUP1 SWAP2 SUB SWAP1 RETURN JUMPDEST CALLVALUE DUP1 ISZERO PUSH2 0x3EF JUMPI PUSH1 0x0 DUP1 REVERT JUMPDEST POP PUSH2 0x3F9 PUSH1 0x14 SLOAD DUP2 JUMP JUMPDEST PUSH1 0x40 MLOAD SWAP1 DUP2 MSTORE PUSH1 0x20 ADD PUSH2 0x3DA JUMP JUMPDEST CALLVALUE DUP1 ISZERO PUSH2 0x413 JUMPI PUSH1 0x0 DUP1 REVERT JUMPDEST POP PUSH2 0x41C PUSH2 0xB7D JUMP JUMPDEST PUSH1 0x40 MLOAD PUSH2 0x3DA SWAP2 SWAP1 PUSH2 0x55A9 JUMP JUMPDEST CALLVALUE DUP1 ISZERO PUSH2 0x435 JUMPI PUSH1 0x0 DUP1 REVERT JUMPDEST POP PUSH2 0x3CE PUSH2 0x444 CALLDATASIZE PUSH1 0x4 PUSH2 0x5613 JUMP JUMPDEST PUSH2 0xC0F JUMP JUMPDEST CALLVALUE DUP1 ISZERO PUSH2 0x455 JUMPI PUSH1 0x0 DUP1 REVERT JUMPDEST POP PUSH2 0x3A9 PUSH2 0x464 CALLDATASIZE PUSH1 0x4 PUSH2 0x563F JUMP JUMPDEST PUSH2 0xC29 JUMP JUMPDEST CALLVALUE DUP1 ISZERO PUSH2 0x475 JUMPI PUSH1 0x0 DUP1 REVERT JUMPDEST POP PUSH2 0x3A9 PUSH2 0xD07 JUMP JUMPDEST CALLVALUE DUP1 ISZERO PUSH2 0x48A JUMPI PUSH1 0x0 DUP1 REVERT JUMPDEST POP PUSH1 0x10 SLOAD PUSH2 0x3F9 JUMP JUMPDEST CALLVALUE DUP1 ISZERO PUSH2 0x49F JUMPI PUSH1 0x0 DUP1 REVERT JUMPDEST POP PUSH2 0x4A8 PUSH2 0xE8F JUMP JUMPDEST PUSH1 0x40 MLOAD PUSH2 0x3DA SWAP2 SWAP1 DUP2 MLOAD DUP2 MSTORE PUSH1 0x20 DUP1 DUP4 ADD MLOAD SWAP1 DUP3 ADD MSTORE PUSH1 0x40 DUP1 DUP4 ADD MLOAD ISZERO ISZERO SWAP1 DUP3 ADD MSTORE PUSH1 0x60 SWAP2 DUP3 ADD MLOAD SWAP2 DUP2 ADD SWAP2 SWAP1 SWAP2 MSTORE PUSH1 0x80 ADD SWAP1 JUMP JUMPDEST CALLVALUE DUP1 ISZERO PUSH2 0x4E9 JUMPI PUSH1 0x0 DUP1 REVERT JUMPDEST POP PUSH2 0x3F9 PUSH1 0xB SLOAD DUP2 JUMP JUMPDEST CALLVALUE DUP1 ISZERO PUSH2 0x4FF JUMPI PUSH1 0x0 DUP1 REVERT JUMPDEST POP PUSH2 0x3CE PUSH2 0x50E CALLDATASIZE PUSH1 0x4 PUSH2 0x5658 JUMP JUMPDEST PUSH2 0xF8C JUMP JUMPDEST CALLVALUE DUP1 ISZERO PUSH2 0x51F JUMPI PUSH1 0x0 DUP1 REVERT JUMPDEST POP PUSH2 0x3A9 PUSH2 0xFB0 JUMP JUMPDEST CALLVALUE DUP1 ISZERO PUSH2 0x534 JUMPI PUSH1 0x0 DUP1 REVERT JUMPDEST POP PUSH1 0x40 MLOAD PUSH1 0x12 DUP2 MSTORE PUSH1 0x20 ADD PUSH2 0x3DA JUMP JUMPDEST CALLVALUE DUP1 ISZERO PUSH2 0x550 JUMPI PUSH1 0x0 DUP1 REVERT JUMPDEST POP PUSH2 0x3CE PUSH2 0x55F CALLDATASIZE PUSH1 0x4 PUSH2 0x5613 JUMP JUMPDEST PUSH2 0x1032 JUMP JUMPDEST CALLVALUE DUP1 ISZERO PUSH2 0x570 JUMPI PUSH1 0x0 DUP1 REVERT JUMPDEST POP PUSH1 0x15 SLOAD PUSH2 0x586 SWAP1 PUSH4 0x1000000 SWAP1 DIV PUSH2 0xFFFF AND DUP2 JUMP JUMPDEST PUSH1 0x40 MLOAD PUSH2 0xFFFF SWAP1 SWAP2 AND DUP2 MSTORE PUSH1 0x20 ADD PUSH2 0x3DA JUMP JUMPDEST CALLVALUE DUP1 ISZERO PUSH2 0x5A5 JUMPI PUSH1 0x0 DUP1 REVERT JUMPDEST POP PUSH1 0x6 SLOAD PUSH2 0x3F9 JUMP JUMPDEST CALLVALUE DUP1 ISZERO PUSH2 0x5BA JUMPI PUSH1 0x0 DUP1 REVERT JUMPDEST POP PUSH2 0x3A9 PUSH2 0x1054 JUMP JUMPDEST CALLVALUE DUP1 ISZERO PUSH2 0x5CF JUMPI PUSH1 0x0 DUP1 REVERT JUMPDEST POP PUSH2 0x3A9 PUSH2 0x5DE CALLDATASIZE PUSH1 0x4 PUSH2 0x5613 JUMP JUMPDEST PUSH2 0x113E JUMP JUMPDEST CALLVALUE DUP1 ISZERO PUSH2 0x5EF JUMPI PUSH1 0x0 DUP1 REVERT JUMPDEST POP PUSH2 0x3A9 PUSH2 0x5FE CALLDATASIZE PUSH1 0x4 PUSH2 0x563F JUMP JUMPDEST PUSH2 0x1176 JUMP JUMPDEST CALLVALUE DUP1 ISZERO PUSH2 0x60F JUMPI PUSH1 0x0 DUP1 REVERT JUMPDEST POP PUSH2 0x3A9 PUSH2 0x1183 JUMP JUMPDEST CALLVALUE DUP1 ISZERO PUSH2 0x624 JUMPI PUSH1 0x0 DUP1 REVERT JUMPDEST POP PUSH2 0x3A9 PUSH2 0x126D JUMP JUMPDEST CALLVALUE DUP1 ISZERO PUSH2 0x639 JUMPI PUSH1 0x0 DUP1 REVERT JUMPDEST POP PUSH2 0x3F9 PUSH2 0x648 CALLDATASIZE PUSH1 0x4 PUSH2 0x5699 JUMP JUMPDEST PUSH1 0x1 PUSH1 0x1 PUSH1 0xA0 SHL SUB AND PUSH1 0x0 SWAP1 DUP2 MSTORE PUSH1 0xE PUSH1 0x20 MSTORE PUSH1 0x40 SWAP1 KECCAK256 SLOAD SWAP1 JUMP JUMPDEST CALLVALUE DUP1 ISZERO PUSH2 0x66F JUMPI PUSH1 0x0 DUP1 REVERT JUMPDEST POP PUSH2 0x3A9 PUSH2 0x1313 JUMP JUMPDEST CALLVALUE DUP1 ISZERO PUSH2 0x684 JUMPI PUSH1 0x0 DUP1 REVERT JUMPDEST POP PUSH2 0x3F9 PUSH1 0xC SLOAD DUP2 JUMP JUMPDEST CALLVALUE DUP1 ISZERO PUSH2 0x69A JUMPI PUSH1 0x0 DUP1 REVERT JUMPDEST POP PUSH2 0x3F9 PUSH11 0x136D704B91C7B3A700000 DUP2 JUMP JUMPDEST CALLVALUE DUP1 ISZERO PUSH2 0x6B9 JUMPI PUSH1 0x0 DUP1 REVERT JUMPDEST POP PUSH2 0x3A9 PUSH2 0x6C8 CALLDATASIZE PUSH1 0x4 PUSH2 0x5613 JUMP JUMPDEST PUSH2 0x1349 JUMP JUMPDEST CALLVALUE DUP1 ISZERO PUSH2 0x6D9 JUMPI PUSH1 0x0 DUP1 REVERT JUMPDEST POP PUSH2 0x3A9 PUSH2 0x6E8 CALLDATASIZE PUSH1 0x4 PUSH2 0x56B6 JUMP JUMPDEST PUSH2 0x135E JUMP JUMPDEST CALLVALUE DUP1 ISZERO PUSH2 0x6F9 JUMPI PUSH1 0x0 DUP1 REVERT JUMPDEST POP PUSH2 0x3A9 PUSH2 0x148A JUMP JUMPDEST CALLVALUE DUP1 ISZERO PUSH2 0x70E JUMPI PUSH1 0x0 DUP1 REVERT JUMPDEST POP PUSH1 0x15 SLOAD PUSH2 0x3CE SWAP1 PUSH2 0x100 SWAP1 DIV PUSH1 0xFF AND DUP2 JUMP JUMPDEST CALLVALUE DUP1 ISZERO PUSH2 0x72D JUMPI PUSH1 0x0 DUP1 REVERT JUMPDEST POP PUSH2 0x3A9 PUSH2 0x1495 JUMP JUMPDEST CALLVALUE DUP1 ISZERO PUSH2 0x742 JUMPI PUSH1 0x0 DUP1 REVERT JUMPDEST POP PUSH2 0x3A9 PUSH2 0x157F JUMP JUMPDEST CALLVALUE DUP1 ISZERO PUSH2 0x757 JUMPI PUSH1 0x0 DUP1 REVERT JUMPDEST POP PUSH2 0x3A9 PUSH2 0x1669 JUMP JUMPDEST CALLVALUE DUP1 ISZERO PUSH2 0x76C JUMPI PUSH1 0x0 DUP1 REVERT JUMPDEST POP PUSH2 0x3A9 PUSH2 0x77B CALLDATASIZE PUSH1 0x4 PUSH2 0x56D8 JUMP JUMPDEST PUSH2 0x1753 JUMP JUMPDEST CALLVALUE DUP1 ISZERO PUSH2 0x78C JUMPI PUSH1 0x0 DUP1 REVERT JUMPDEST POP PUSH2 0x795 PUSH2 0x17E0 JUMP JUMPDEST PUSH1 0x40 MLOAD PUSH1 0x1 PUSH1 0x1 PUSH1 0xA0 SHL SUB SWAP1 SWAP2 AND DUP2 MSTORE PUSH1 0x20 ADD PUSH2 0x3DA JUMP JUMPDEST CALLVALUE DUP1 ISZERO PUSH2 0x7B9 JUMPI PUSH1 0x0 DUP1 REVERT JUMPDEST POP PUSH2 0x3A9 PUSH2 0x7C8 CALLDATASIZE PUSH1 0x4 PUSH2 0x563F JUMP JUMPDEST PUSH2 0x17F9 JUMP JUMPDEST CALLVALUE DUP1 ISZERO PUSH2 0x7D9 JUMPI PUSH1 0x0 DUP1 REVERT JUMPDEST POP PUSH2 0x3A9 PUSH2 0x7E8 CALLDATASIZE PUSH1 0x4 PUSH2 0x563F JUMP JUMPDEST PUSH2 0x18B8 JUMP JUMPDEST CALLVALUE DUP1 ISZERO PUSH2 0x7F9 JUMPI PUSH1 0x0 DUP1 REVERT JUMPDEST POP PUSH1 0x5 SLOAD PUSH1 0x1 PUSH1 0x1 PUSH1 0xA0 SHL SUB AND PUSH2 0x795 JUMP JUMPDEST CALLVALUE DUP1 ISZERO PUSH2 0x817 JUMPI PUSH1 0x0 DUP1 REVERT JUMPDEST POP PUSH2 0x3A9 PUSH2 0x191D JUMP JUMPDEST CALLVALUE DUP1 ISZERO PUSH2 0x82C JUMPI PUSH1 0x0 DUP1 REVERT JUMPDEST POP PUSH2 0x3A9 PUSH2 0x1A07 JUMP JUMPDEST CALLVALUE DUP1 ISZERO PUSH2 0x841 JUMPI PUSH1 0x0 DUP1 REVERT JUMPDEST POP PUSH2 0x41C PUSH2 0x1AE3 JUMP JUMPDEST CALLVALUE DUP1 ISZERO PUSH2 0x856 JUMPI PUSH1 0x0 DUP1 REVERT JUMPDEST POP PUSH2 0x3A9 PUSH2 0x865 CALLDATASIZE PUSH1 0x4 PUSH2 0x5613 JUMP JUMPDEST PUSH2 0x1AF2 JUMP JUMPDEST CALLVALUE DUP1 ISZERO PUSH2 0x876 JUMPI PUSH1 0x0 DUP1 REVERT JUMPDEST POP PUSH1 0x15 SLOAD PUSH4 0x1000000 SWAP1 DIV PUSH2 0xFFFF AND PUSH2 0x3F9 JUMP JUMPDEST CALLVALUE DUP1 ISZERO PUSH2 0x896 JUMPI PUSH1 0x0 DUP1 REVERT JUMPDEST POP PUSH2 0x3A9 PUSH2 0x8A5 CALLDATASIZE PUSH1 0x4 PUSH2 0x563F JUMP JUMPDEST PUSH2 0x1BDF JUMP JUMPDEST CALLVALUE DUP1 ISZERO PUSH2 0x8B6 JUMPI PUSH1 0x0 DUP1 REVERT JUMPDEST POP PUSH2 0x3CE PUSH2 0x8C5 CALLDATASIZE PUSH1 0x4 PUSH2 0x5613 JUMP JUMPDEST PUSH2 0x1C93 JUMP JUMPDEST CALLVALUE DUP1 ISZERO PUSH2 0x8D6 JUMPI PUSH1 0x0 DUP1 REVERT JUMPDEST POP PUSH2 0x3CE PUSH2 0x8E5 CALLDATASIZE PUSH1 0x4 PUSH2 0x5613 JUMP JUMPDEST PUSH2 0x1D0E JUMP JUMPDEST CALLVALUE DUP1 ISZERO PUSH2 0x8F6 JUMPI PUSH1 0x0 DUP1 REVERT JUMPDEST POP PUSH2 0x3A9 PUSH2 0x905 CALLDATASIZE PUSH1 0x4 PUSH2 0x56FC JUMP JUMPDEST PUSH2 0x1D1C JUMP JUMPDEST CALLVALUE DUP1 ISZERO PUSH2 0x916 JUMPI PUSH1 0x0 DUP1 REVERT JUMPDEST POP PUSH2 0x3A9 PUSH2 0x1D96 JUMP JUMPDEST CALLVALUE DUP1 ISZERO PUSH2 0x92B JUMPI PUSH1 0x0 DUP1 REVERT JUMPDEST POP ADDRESS PUSH1 0x0 SWAP1 DUP2 MSTORE PUSH1 0xE PUSH1 0x20 MSTORE PUSH1 0x40 SWAP1 KECCAK256 SLOAD PUSH2 0x3F9 JUMP JUMPDEST CALLVALUE DUP1 ISZERO PUSH2 0x94D JUMPI PUSH1 0x0 DUP1 REVERT JUMPDEST POP PUSH2 0x3A9 PUSH2 0x1E80 JUMP JUMPDEST CALLVALUE DUP1 ISZERO PUSH2 0x962 JUMPI PUSH1 0x0 DUP1 REVERT JUMPDEST POP ADDRESS PUSH2 0x795 JUMP JUMPDEST CALLVALUE DUP1 ISZERO PUSH2 0x975 JUMPI PUSH1 0x0 DUP1 REVERT JUMPDEST POP PUSH2 0x3A9 PUSH2 0x984 CALLDATASIZE PUSH1 0x4 PUSH2 0x563F JUMP JUMPDEST PUSH2 0x22FB JUMP JUMPDEST CALLVALUE DUP1 ISZERO PUSH2 0x995 JUMPI PUSH1 0x0 DUP1 REVERT JUMPDEST POP PUSH2 0x3A9 PUSH2 0x9A4 CALLDATASIZE PUSH1 0x4 PUSH2 0x563F JUMP JUMPDEST PUSH2 0x2360 JUMP JUMPDEST CALLVALUE DUP1 ISZERO PUSH2 0x9B5 JUMPI PUSH1 0x0 DUP1 REVERT JUMPDEST POP PUSH2 0x3F9 PUSH2 0x9C4 CALLDATASIZE PUSH1 0x4 PUSH2 0x571E JUMP JUMPDEST PUSH2 0x240B JUMP JUMPDEST CALLVALUE DUP1 ISZERO PUSH2 0x9D5 JUMPI PUSH1 0x0 DUP1 REVERT JUMPDEST POP PUSH2 0x3F9 PUSH1 0xA SLOAD DUP2 JUMP JUMPDEST CALLVALUE DUP1 ISZERO PUSH2 0x9EB JUMPI PUSH1 0x0 DUP1 REVERT JUMPDEST POP PUSH2 0x9FF PUSH2 0x9FA CALLDATASIZE PUSH1 0x4 PUSH2 0x5699 JUMP JUMPDEST PUSH2 0x2436 JUMP JUMPDEST PUSH1 0x40 MLOAD PUSH2 0x3DA SWAP2 SWAP1 PUSH2 0x5757 JUMP JUMPDEST CALLVALUE DUP1 ISZERO PUSH2 0xA18 JUMPI PUSH1 0x0 DUP1 REVERT JUMPDEST POP PUSH2 0x3A9 PUSH2 0x263F JUMP JUMPDEST CALLVALUE DUP1 ISZERO PUSH2 0xA2D JUMPI PUSH1 0x0 DUP1 REVERT JUMPDEST POP PUSH1 0x15 SLOAD PUSH2 0x3CE SWAP1 PUSH3 0x10000 SWAP1 DIV PUSH1 0xFF AND DUP2 JUMP JUMPDEST CALLVALUE DUP1 ISZERO PUSH2 0xA4D JUMPI PUSH1 0x0 DUP1 REVERT JUMPDEST POP PUSH2 0x3A9 PUSH2 0xA5C CALLDATASIZE PUSH1 0x4 PUSH2 0x56B6 JUMP JUMPDEST PUSH2 0x2729 JUMP JUMPDEST CALLVALUE DUP1 ISZERO PUSH2 0xA6D JUMPI PUSH1 0x0 DUP1 REVERT JUMPDEST POP PUSH2 0x3A9 PUSH2 0xA7C CALLDATASIZE PUSH1 0x4 PUSH2 0x5699 JUMP JUMPDEST PUSH2 0x27DE JUMP JUMPDEST CALLVALUE DUP1 ISZERO PUSH2 0xA8D JUMPI PUSH1 0x0 DUP1 REVERT JUMPDEST POP PUSH2 0x3A9 PUSH2 0xA9C CALLDATASIZE PUSH1 0x4 PUSH2 0x563F JUMP JUMPDEST PUSH2 0x2876 JUMP JUMPDEST CALLVALUE DUP1 ISZERO PUSH2 0xAAD JUMPI PUSH1 0x0 DUP1 REVERT JUMPDEST POP PUSH2 0x3F9 PUSH10 0x7AA22879AABCFAC0000 DUP2 JUMP JUMPDEST PUSH1 0x0 PUSH2 0xACC DUP3 PUSH1 0x3 PUSH2 0x2955 JUMP JUMPDEST PUSH1 0x1D SLOAD PUSH1 0x1 PUSH1 0x1 PUSH1 0xA0 SHL SUB AND PUSH1 0x0 SWAP1 DUP2 MSTORE PUSH1 0xE PUSH1 0x20 MSTORE PUSH1 0x40 SWAP1 KECCAK256 SLOAD SWAP1 SWAP2 POP PUSH2 0xAF4 SWAP1 DUP3 PUSH2 0x2968 JUMP JUMPDEST PUSH1 0x1D SLOAD PUSH1 0x1 PUSH1 0x1 PUSH1 0xA0 SHL SUB SWAP1 DUP2 AND PUSH1 0x0 SWAP1 DUP2 MSTORE PUSH1 0xE PUSH1 0x20 MSTORE PUSH1 0x40 DUP1 DUP3 KECCAK256 SWAP4 SWAP1 SWAP4 SSTORE PUSH1 0x1E SLOAD SWAP1 SWAP2 AND DUP2 MSTORE KECCAK256 SLOAD PUSH2 0xB29 SWAP1 DUP3 PUSH2 0x2968 JUMP JUMPDEST PUSH1 0x1E SLOAD PUSH1 0x1 PUSH1 0x1 PUSH1 0xA0 SHL SUB SWAP1 DUP2 AND PUSH1 0x0 SWAP1 DUP2 MSTORE PUSH1 0xE PUSH1 0x20 MSTORE PUSH1 0x40 DUP1 DUP3 KECCAK256 SWAP4 SWAP1 SWAP4 SSTORE PUSH1 0x1F SLOAD SWAP1 SWAP2 AND DUP2 MSTORE KECCAK256 SLOAD PUSH2 0xB5E SWAP1 DUP3 PUSH2 0x2968 JUMP JUMPDEST PUSH1 0x1F SLOAD PUSH1 0x1 PUSH1 0x1 PUSH1 0xA0 SHL SUB AND PUSH1 0x0 SWAP1 DUP2 MSTORE PUSH1 0xE PUSH1 0x20 MSTORE PUSH1 0x40 SWAP1 KECCAK256 SSTORE POP POP JUMP JUMPDEST PUSH1 0x60 PUSH1 0x11 DUP1 SLOAD PUSH2 0xB8C SWAP1 PUSH2 0x57F7 JUMP JUMPDEST DUP1 PUSH1 0x1F ADD PUSH1 0x20 DUP1 SWAP2 DIV MUL PUSH1 0x20 ADD PUSH1 0x40 MLOAD SWAP1 DUP2 ADD PUSH1 0x40 MSTORE DUP1 SWAP3 SWAP2 SWAP1 DUP2 DUP2 MSTORE PUSH1 0x20 ADD DUP3 DUP1 SLOAD PUSH2 0xBB8 SWAP1 PUSH2 0x57F7 JUMP JUMPDEST DUP1 ISZERO PUSH2 0xC05 JUMPI DUP1 PUSH1 0x1F LT PUSH2 0xBDA JUMPI PUSH2 0x100 DUP1 DUP4 SLOAD DIV MUL DUP4 MSTORE SWAP2 PUSH1 0x20 ADD SWAP2 PUSH2 0xC05 JUMP JUMPDEST DUP3 ADD SWAP2 SWAP1 PUSH1 0x0 MSTORE PUSH1 0x20 PUSH1 0x0 KECCAK256 SWAP1 JUMPDEST DUP2 SLOAD DUP2 MSTORE SWAP1 PUSH1 0x1 ADD SWAP1 PUSH1 0x20 ADD DUP1 DUP4 GT PUSH2 0xBE8 JUMPI DUP3 SWAP1 SUB PUSH1 0x1F AND DUP3 ADD SWAP2 JUMPDEST POP POP POP POP POP SWAP1 POP SWAP1 JUMP JUMPDEST PUSH1 0x0 CALLER PUSH2 0xC1D DUP2 DUP6 DUP6 PUSH2 0x2974 JUMP JUMPDEST PUSH1 0x1 SWAP2 POP POP JUMPDEST SWAP3 SWAP2 POP POP JUMP JUMPDEST PUSH1 0x5 SLOAD PUSH1 0x1 PUSH1 0x1 PUSH1 0xA0 SHL SUB AND CALLER EQ PUSH2 0xC5C JUMPI PUSH1 0x40 MLOAD PUSH3 0x461BCD PUSH1 0xE5 SHL DUP2 MSTORE PUSH1 0x4 ADD PUSH2 0xC53 SWAP1 PUSH2 0x5832 JUMP JUMPDEST PUSH1 0x40 MLOAD DUP1 SWAP2 SUB SWAP1 REVERT JUMPDEST PUSH1 0x14 SLOAD DUP2 LT PUSH2 0xCBD JUMPI PUSH1 0x40 MLOAD PUSH3 0x461BCD PUSH1 0xE5 SHL DUP2 MSTORE PUSH1 0x20 PUSH1 0x4 DUP3 ADD MSTORE PUSH1 0x27 PUSH1 0x24 DUP3 ADD MSTORE PUSH32 0x416D6F756E74206275726E74206C6172676572207468616E205374616B696E67 PUSH1 0x44 DUP3 ADD MSTORE PUSH7 0x814995DD85C99 PUSH1 0xCA SHL PUSH1 0x64 DUP3 ADD MSTORE PUSH1 0x84 ADD PUSH2 0xC53 JUMP JUMPDEST PUSH1 0x14 SLOAD PUSH2 0xCCA SWAP1 DUP3 PUSH2 0x2A99 JUMP JUMPDEST PUSH1 0x14 SSTORE PUSH1 0x10 SLOAD PUSH2 0xCDA SWAP1 DUP3 PUSH2 0x2A99 JUMP JUMPDEST PUSH1 0x10 SSTORE PUSH1 0x40 MLOAD DUP2 DUP2 MSTORE PUSH1 0x0 SWAP1 ADDRESS SWAP1 PUSH1 0x0 DUP1 MLOAD PUSH1 0x20 PUSH2 0x5AAE DUP4 CODECOPY DUP2 MLOAD SWAP2 MSTORE SWAP1 PUSH1 0x20 ADD JUMPDEST PUSH1 0x40 MLOAD DUP1 SWAP2 SUB SWAP1 LOG3 POP JUMP JUMPDEST PUSH1 0x15 SLOAD PUSH1 0xFF AND ISZERO ISZERO PUSH1 0x1 EQ PUSH2 0xD2E JUMPI PUSH1 0x40 MLOAD PUSH3 0x461BCD PUSH1 0xE5 SHL DUP2 MSTORE PUSH1 0x4 ADD PUSH2 0xC53 SWAP1 PUSH2 0x5867 JUMP JUMPDEST PUSH1 0x25 PUSH1 0x0 SWAP1 SLOAD SWAP1 PUSH2 0x100 EXP SWAP1 DIV PUSH1 0x1 PUSH1 0x1 PUSH1 0xA0 SHL SUB AND PUSH1 0x1 PUSH1 0x1 PUSH1 0xA0 SHL SUB AND PUSH4 0x38AF3EED PUSH1 0x40 MLOAD DUP2 PUSH4 0xFFFFFFFF AND PUSH1 0xE0 SHL DUP2 MSTORE PUSH1 0x4 ADD PUSH1 0x20 PUSH1 0x40 MLOAD DUP1 DUP4 SUB DUP2 DUP7 GAS STATICCALL ISZERO DUP1 ISZERO PUSH2 0xD81 JUMPI RETURNDATASIZE PUSH1 0x0 DUP1 RETURNDATACOPY RETURNDATASIZE PUSH1 0x0 REVERT JUMPDEST POP POP POP POP PUSH1 0x40 MLOAD RETURNDATASIZE PUSH1 0x1F NOT PUSH1 0x1F DUP3 ADD AND DUP3 ADD DUP1 PUSH1 0x40 MSTORE POP DUP2 ADD SWAP1 PUSH2 0xDA5 SWAP2 SWAP1 PUSH2 0x589E JUMP JUMPDEST PUSH1 0x1 PUSH1 0x1 PUSH1 0xA0 SHL SUB AND CALLER PUSH1 0x1 PUSH1 0x1 PUSH1 0xA0 SHL SUB AND EQ PUSH2 0xDD5 JUMPI PUSH1 0x40 MLOAD PUSH3 0x461BCD PUSH1 0xE5 SHL DUP2 MSTORE PUSH1 0x4 ADD PUSH2 0xC53 SWAP1 PUSH2 0x58BB JUMP JUMPDEST PUSH1 0x25 SLOAD PUSH1 0x0 SWAP1 PUSH1 0x1 PUSH1 0x1 PUSH1 0xA0 SHL SUB AND PUSH4 0xE7D88C42 PUSH2 0xDF1 PUSH2 0x2AA5 JUMP JUMPDEST PUSH1 0x40 MLOAD DUP3 PUSH4 0xFFFFFFFF AND PUSH1 0xE0 SHL DUP2 MSTORE PUSH1 0x4 ADD PUSH2 0xE0D SWAP2 SWAP1 PUSH2 0x58E6 JUMP JUMPDEST PUSH1 0x20 PUSH1 0x40 MLOAD DUP1 DUP4 SUB DUP2 PUSH1 0x0 DUP8 GAS CALL ISZERO DUP1 ISZERO PUSH2 0xE2C JUMPI RETURNDATASIZE PUSH1 0x0 DUP1 RETURNDATACOPY RETURNDATASIZE PUSH1 0x0 REVERT JUMPDEST POP POP POP POP PUSH1 0x40 MLOAD RETURNDATASIZE PUSH1 0x1F NOT PUSH1 0x1F DUP3 ADD AND DUP3 ADD DUP1 PUSH1 0x40 MSTORE POP DUP2 ADD SWAP1 PUSH2 0xE50 SWAP2 SWAP1 PUSH2 0x5918 JUMP JUMPDEST SWAP1 POP PUSH2 0xE7C DUP2 PUSH1 0xE PUSH1 0x0 CALLER JUMPDEST PUSH1 0x1 PUSH1 0x1 PUSH1 0xA0 SHL SUB AND DUP2 MSTORE PUSH1 0x20 DUP2 ADD SWAP2 SWAP1 SWAP2 MSTORE PUSH1 0x40 ADD PUSH1 0x0 KECCAK256 SLOAD SWAP1 PUSH2 0x2968 JUMP JUMPDEST CALLER PUSH1 0x0 SWAP1 DUP2 MSTORE PUSH1 0xE PUSH1 0x20 MSTORE PUSH1 0x40 SWAP1 KECCAK256 SSTORE POP JUMP JUMPDEST PUSH2 0xEBC PUSH1 0x40 MLOAD DUP1 PUSH1 0x80 ADD PUSH1 0x40 MSTORE DUP1 PUSH1 0x0 DUP2 MSTORE PUSH1 0x20 ADD PUSH1 0x0 DUP2 MSTORE PUSH1 0x20 ADD PUSH1 0x0 ISZERO ISZERO DUP2 MSTORE PUSH1 0x20 ADD PUSH1 0x0 DUP2 MSTORE POP SWAP1 JUMP JUMPDEST CALLER PUSH1 0x0 SWAP1 DUP2 MSTORE PUSH1 0xD PUSH1 0x20 MSTORE PUSH1 0x40 SWAP1 KECCAK256 PUSH1 0x1 ADD SLOAD PUSH2 0xF41 JUMPI PUSH1 0x40 MLOAD PUSH3 0x461BCD PUSH1 0xE5 SHL DUP2 MSTORE PUSH1 0x20 PUSH1 0x4 DUP3 ADD MSTORE PUSH1 0x38 PUSH1 0x24 DUP3 ADD MSTORE PUSH32 0x5072697661746553616C653A20596F7520646F6E2774206861766520616E7920 PUSH1 0x44 DUP3 ADD MSTORE PUSH32 0x62616C616E636520666F7220707269766174652073616C650000000000000000 PUSH1 0x64 DUP3 ADD MSTORE PUSH1 0x84 ADD PUSH2 0xC53 JUMP JUMPDEST POP CALLER PUSH1 0x0 SWAP1 DUP2 MSTORE PUSH1 0xD PUSH1 0x20 SWAP1 DUP2 MSTORE PUSH1 0x40 SWAP2 DUP3 SWAP1 KECCAK256 DUP3 MLOAD PUSH1 0x80 DUP2 ADD DUP5 MSTORE DUP2 SLOAD DUP2 MSTORE PUSH1 0x1 DUP3 ADD SLOAD SWAP3 DUP2 ADD SWAP3 SWAP1 SWAP3 MSTORE PUSH1 0x2 DUP2 ADD SLOAD PUSH1 0xFF AND ISZERO ISZERO SWAP3 DUP3 ADD SWAP3 SWAP1 SWAP3 MSTORE PUSH1 0x3 SWAP1 SWAP2 ADD SLOAD PUSH1 0x60 DUP3 ADD MSTORE SWAP1 JUMP JUMPDEST PUSH1 0x0 CALLER PUSH2 0xF9A DUP6 DUP3 DUP6 PUSH2 0x2FF6 JUMP JUMPDEST PUSH2 0xFA5 DUP6 DUP6 DUP6 PUSH2 0x3070 JUMP JUMPDEST POP PUSH1 0x1 SWAP5 SWAP4 POP POP POP POP JUMP JUMPDEST PUSH1 0x5 SLOAD PUSH1 0x1 PUSH1 0x1 PUSH1 0xA0 SHL SUB AND CALLER EQ PUSH2 0xFDA JUMPI PUSH1 0x40 MLOAD PUSH3 0x461BCD PUSH1 0xE5 SHL DUP2 MSTORE PUSH1 0x4 ADD PUSH2 0xC53 SWAP1 PUSH2 0x5832 JUMP JUMPDEST PUSH2 0xFE3 TIMESTAMP PUSH1 0xC SSTORE JUMP JUMPDEST PUSH1 0x15 DUP1 SLOAD PUSH3 0xFF0000 NOT AND PUSH3 0x10000 OR SWAP1 SSTORE PUSH2 0xFFB CALLER SWAP1 JUMP JUMPDEST PUSH1 0x1 PUSH1 0x1 PUSH1 0xA0 SHL SUB AND PUSH32 0x166F0287F5E28D35EC474DA4C920A3E6F47F0D7C8833B963DD8367F68DD377CD PUSH1 0x40 MLOAD PUSH1 0x40 MLOAD DUP1 SWAP2 SUB SWAP1 LOG2 JUMP JUMPDEST PUSH1 0x0 CALLER PUSH2 0xC1D DUP2 DUP6 DUP6 PUSH2 0x1045 DUP4 DUP4 PUSH2 0x240B JUMP JUMPDEST PUSH2 0x104F SWAP2 SWAP1 PUSH2 0x5947 JUMP JUMPDEST PUSH2 0x2974 JUMP JUMPDEST PUSH1 0x15 SLOAD PUSH1 0xFF AND ISZERO ISZERO PUSH1 0x1 EQ PUSH2 0x107B JUMPI PUSH1 0x40 MLOAD PUSH3 0x461BCD PUSH1 0xE5 SHL DUP2 MSTORE PUSH1 0x4 ADD PUSH2 0xC53 SWAP1 PUSH2 0x5867 JUMP JUMPDEST PUSH1 0x29 PUSH1 0x0 SWAP1 SLOAD SWAP1 PUSH2 0x100 EXP SWAP1 DIV PUSH1 0x1 PUSH1 0x1 PUSH1 0xA0 SHL SUB AND PUSH1 0x1 PUSH1 0x1 PUSH1 0xA0 SHL SUB AND PUSH4 0x38AF3EED PUSH1 0x40 MLOAD DUP2 PUSH4 0xFFFFFFFF AND PUSH1 0xE0 SHL DUP2 MSTORE PUSH1 0x4 ADD PUSH1 0x20 PUSH1 0x40 MLOAD DUP1 DUP4 SUB DUP2 DUP7 GAS STATICCALL ISZERO DUP1 ISZERO PUSH2 0x10CE JUMPI RETURNDATASIZE PUSH1 0x0 DUP1 RETURNDATACOPY RETURNDATASIZE PUSH1 0x0 REVERT JUMPDEST POP POP POP POP PUSH1 0x40 MLOAD RETURNDATASIZE PUSH1 0x1F NOT PUSH1 0x1F DUP3 ADD AND DUP3 ADD DUP1 PUSH1 0x40 MSTORE POP DUP2 ADD SWAP1 PUSH2 0x10F2 SWAP2 SWAP1 PUSH2 0x589E JUMP JUMPDEST PUSH1 0x1 PUSH1 0x1 PUSH1 0xA0 SHL SUB AND CALLER PUSH1 0x1 PUSH1 0x1 PUSH1 0xA0 SHL SUB AND EQ PUSH2 0x1122 JUMPI PUSH1 0x40 MLOAD PUSH3 0x461BCD PUSH1 0xE5 SHL DUP2 MSTORE PUSH1 0x4 ADD PUSH2 0xC53 SWAP1 PUSH2 0x58BB JUMP JUMPDEST PUSH1 0x29 SLOAD PUSH1 0x0 SWAP1 PUSH1 0x1 PUSH1 0x1 PUSH1 0xA0 SHL SUB AND PUSH4 0xE7D88C42 PUSH2 0xDF1 PUSH2 0x337E JUMP JUMPDEST PUSH1 0x5 SLOAD PUSH1 0x1 PUSH1 0x1 PUSH1 0xA0 SHL SUB AND CALLER EQ PUSH2 0x1168 JUMPI PUSH1 0x40 MLOAD PUSH3 0x461BCD PUSH1 0xE5 SHL DUP2 MSTORE PUSH1 0x4 ADD PUSH2 0xC53 SWAP1 PUSH2 0x5832 JUMP JUMPDEST PUSH2 0x1172 DUP3 DUP3 PUSH2 0x37D7 JUMP JUMPDEST POP POP JUMP JUMPDEST PUSH2 0x1180 CALLER DUP3 PUSH2 0x38A4 JUMP JUMPDEST POP JUMP JUMPDEST PUSH1 0x15 SLOAD PUSH1 0xFF AND ISZERO ISZERO PUSH1 0x1 EQ PUSH2 0x11AA JUMPI PUSH1 0x40 MLOAD PUSH3 0x461BCD PUSH1 0xE5 SHL DUP2 MSTORE PUSH1 0x4 ADD PUSH2 0xC53 SWAP1 PUSH2 0x5867 JUMP JUMPDEST PUSH1 0x27 PUSH1 0x0 SWAP1 SLOAD SWAP1 PUSH2 0x100 EXP SWAP1 DIV PUSH1 0x1 PUSH1 0x1 PUSH1 0xA0 SHL SUB AND PUSH1 0x1 PUSH1 0x1 PUSH1 0xA0 SHL SUB AND PUSH4 0x38AF3EED PUSH1 0x40 MLOAD DUP2 PUSH4 0xFFFFFFFF AND PUSH1 0xE0 SHL DUP2 MSTORE PUSH1 0x4 ADD PUSH1 0x20 PUSH1 0x40 MLOAD DUP1 DUP4 SUB DUP2 DUP7 GAS STATICCALL ISZERO DUP1 ISZERO PUSH2 0x11FD JUMPI RETURNDATASIZE PUSH1 0x0 DUP1 RETURNDATACOPY RETURNDATASIZE PUSH1 0x0 REVERT JUMPDEST POP POP POP POP PUSH1 0x40 MLOAD RETURNDATASIZE PUSH1 0x1F NOT PUSH1 0x1F DUP3 ADD AND DUP3 ADD DUP1 PUSH1 0x40 MSTORE POP DUP2 ADD SWAP1 PUSH2 0x1221 SWAP2 SWAP1 PUSH2 0x589E JUMP JUMPDEST PUSH1 0x1 PUSH1 0x1 PUSH1 0xA0 SHL SUB AND CALLER PUSH1 0x1 PUSH1 0x1 PUSH1 0xA0 SHL SUB AND EQ PUSH2 0x1251 JUMPI PUSH1 0x40 MLOAD PUSH3 0x461BCD PUSH1 0xE5 SHL DUP2 MSTORE PUSH1 0x4 ADD PUSH2 0xC53 SWAP1 PUSH2 0x58BB JUMP JUMPDEST PUSH1 0x27 SLOAD PUSH1 0x0 SWAP1 PUSH1 0x1 PUSH1 0x1 PUSH1 0xA0 SHL SUB AND PUSH4 0xE7D88C42 PUSH2 0xDF1 PUSH2 0x337E JUMP JUMPDEST PUSH1 0x15 SLOAD PUSH1 0xFF PUSH2 0x100 SWAP1 SWAP2 DIV AND ISZERO ISZERO PUSH1 0x1 EQ PUSH2 0x12CA JUMPI PUSH1 0x40 MLOAD PUSH3 0x461BCD PUSH1 0xE5 SHL DUP2 MSTORE PUSH1 0x20 PUSH1 0x4 DUP3 ADD MSTORE PUSH1 0x17 PUSH1 0x24 DUP3 ADD MSTORE PUSH32 0x41697264726F70206E6F74207965742073746172746564000000000000000000 PUSH1 0x44 DUP3 ADD MSTORE PUSH1 0x64 ADD PUSH2 0xC53 JUMP JUMPDEST PUSH1 0x0 PUSH2 0x12D5 CALLER PUSH2 0x39D8 JUMP JUMPDEST ADDRESS PUSH1 0x0 SWAP1 DUP2 MSTORE PUSH1 0xE PUSH1 0x20 MSTORE PUSH1 0x40 SWAP1 KECCAK256 SLOAD SWAP1 SWAP2 POP PUSH2 0x12F2 SWAP1 DUP3 PUSH2 0x2A99 JUMP JUMPDEST ADDRESS PUSH1 0x0 SWAP1 DUP2 MSTORE PUSH1 0xE PUSH1 0x20 DUP2 SWAP1 MSTORE PUSH1 0x40 DUP3 KECCAK256 SWAP3 SWAP1 SWAP3 SSTORE PUSH2 0xE7C SWAP2 DUP4 SWAP2 CALLER PUSH2 0xE5C JUMP JUMPDEST PUSH1 0x5 SLOAD PUSH1 0x1 PUSH1 0x1 PUSH1 0xA0 SHL SUB AND CALLER EQ PUSH2 0x133D JUMPI PUSH1 0x40 MLOAD PUSH3 0x461BCD PUSH1 0xE5 SHL DUP2 MSTORE PUSH1 0x4 ADD PUSH2 0xC53 SWAP1 PUSH2 0x5832 JUMP JUMPDEST PUSH2 0x1347 PUSH1 0x0 PUSH2 0x3BB1 JUMP JUMPDEST JUMP JUMPDEST PUSH2 0x1354 DUP3 CALLER DUP4 PUSH2 0x2FF6 JUMP JUMPDEST PUSH2 0x1172 DUP3 DUP3 PUSH2 0x38A4 JUMP JUMPDEST DUP1 PUSH3 0x278D00 EQ DUP1 PUSH2 0x1371 JUMPI POP DUP1 PUSH3 0x76A700 EQ JUMPDEST DUP1 PUSH2 0x137E JUMPI POP DUP1 PUSH3 0xED4E00 EQ JUMPDEST DUP1 PUSH2 0x138C JUMPI POP DUP1 PUSH4 0x1E13380 EQ JUMPDEST PUSH2 0x13D8 JUMPI PUSH1 0x40 MLOAD PUSH3 0x461BCD PUSH1 0xE5 SHL DUP2 MSTORE PUSH1 0x20 PUSH1 0x4 DUP3 ADD MSTORE PUSH1 0x18 PUSH1 0x24 DUP3 ADD MSTORE PUSH32 0x5374616B696E67206F7074696F6E206E6F742065786973740000000000000000 PUSH1 0x44 DUP3 ADD MSTORE PUSH1 0x64 ADD PUSH2 0xC53 JUMP JUMPDEST CALLER PUSH1 0x0 SWAP1 DUP2 MSTORE PUSH1 0xE PUSH1 0x20 MSTORE PUSH1 0x40 SWAP1 KECCAK256 SLOAD DUP3 LT PUSH2 0x1436 JUMPI PUSH1 0x40 MLOAD PUSH3 0x461BCD PUSH1 0xE5 SHL DUP2 MSTORE PUSH1 0x20 PUSH1 0x4 DUP3 ADD MSTORE PUSH1 0x1E PUSH1 0x24 DUP3 ADD MSTORE PUSH32 0x43616E6E6F74207374616B65206D6F7265207468616E2062616C616E63650000 PUSH1 0x44 DUP3 ADD MSTORE PUSH1 0x64 ADD PUSH2 0xC53 JUMP JUMPDEST PUSH1 0x0 DUP2 DUP2 MSTORE PUSH1 0x13 PUSH1 0x20 MSTORE PUSH1 0x40 SWAP1 KECCAK256 SLOAD PUSH2 0x1452 SWAP1 DUP4 SWAP1 DUP4 SWAP1 PUSH2 0x3C03 JUMP JUMPDEST PUSH2 0x145C CALLER DUP4 PUSH2 0x38A4 JUMP JUMPDEST ADDRESS PUSH1 0x0 SWAP1 DUP2 MSTORE PUSH1 0xE PUSH1 0x20 MSTORE PUSH1 0x40 SWAP1 KECCAK256 SLOAD PUSH2 0x1476 SWAP1 DUP4 PUSH2 0x2968 JUMP JUMPDEST ADDRESS PUSH1 0x0 SWAP1 DUP2 MSTORE PUSH1 0xE PUSH1 0x20 MSTORE PUSH1 0x40 SWAP1 KECCAK256 SSTORE POP POP JUMP JUMPDEST PUSH1 0x0 PUSH2 0xE50 CALLER PUSH2 0x3DB0 JUMP JUMPDEST PUSH1 0x15 SLOAD PUSH1 0xFF AND ISZERO ISZERO PUSH1 0x1 EQ PUSH2 0x14BC JUMPI PUSH1 0x40 MLOAD PUSH3 0x461BCD PUSH1 0xE5 SHL DUP2 MSTORE PUSH1 0x4 ADD PUSH2 0xC53 SWAP1 PUSH2 0x5867 JUMP JUMPDEST PUSH1 0x24 PUSH1 0x0 SWAP1 SLOAD SWAP1 PUSH2 0x100 EXP SWAP1 DIV PUSH1 0x1 PUSH1 0x1 PUSH1 0xA0 SHL SUB AND PUSH1 0x1 PUSH1 0x1 PUSH1 0xA0 SHL SUB AND PUSH4 0x38AF3EED PUSH1 0x40 MLOAD DUP2 PUSH4 0xFFFFFFFF AND PUSH1 0xE0 SHL DUP2 MSTORE PUSH1 0x4 ADD PUSH1 0x20 PUSH1 0x40 MLOAD DUP1 DUP4 SUB DUP2 DUP7 GAS STATICCALL ISZERO DUP1 ISZERO PUSH2 0x150F JUMPI RETURNDATASIZE PUSH1 0x0 DUP1 RETURNDATACOPY RETURNDATASIZE PUSH1 0x0 REVERT JUMPDEST POP POP POP POP PUSH1 0x40 MLOAD RETURNDATASIZE PUSH1 0x1F NOT PUSH1 0x1F DUP3 ADD AND DUP3 ADD DUP1 PUSH1 0x40 MSTORE POP DUP2 ADD SWAP1 PUSH2 0x1533 SWAP2 SWAP1 PUSH2 0x589E JUMP JUMPDEST PUSH1 0x1 PUSH1 0x1 PUSH1 0xA0 SHL SUB AND CALLER PUSH1 0x1 PUSH1 0x1 PUSH1 0xA0 SHL SUB AND EQ PUSH2 0x1563 JUMPI PUSH1 0x40 MLOAD PUSH3 0x461BCD PUSH1 0xE5 SHL DUP2 MSTORE PUSH1 0x4 ADD PUSH2 0xC53 SWAP1 PUSH2 0x58BB JUMP JUMPDEST PUSH1 0x24 SLOAD PUSH1 0x0 SWAP1 PUSH1 0x1 PUSH1 0x1 PUSH1 0xA0 SHL SUB AND PUSH4 0xE7D88C42 PUSH2 0xDF1 PUSH2 0x2AA5 JUMP JUMPDEST PUSH1 0x15 SLOAD PUSH1 0xFF AND ISZERO ISZERO PUSH1 0x1 EQ PUSH2 0x15A6 JUMPI PUSH1 0x40 MLOAD PUSH3 0x461BCD PUSH1 0xE5 SHL DUP2 MSTORE PUSH1 0x4 ADD PUSH2 0xC53 SWAP1 PUSH2 0x5867 JUMP JUMPDEST PUSH1 0x23 PUSH1 0x0 SWAP1 SLOAD SWAP1 PUSH2 0x100 EXP SWAP1 DIV PUSH1 0x1 PUSH1 0x1 PUSH1 0xA0 SHL SUB AND PUSH1 0x1 PUSH1 0x1 PUSH1 0xA0 SHL SUB AND PUSH4 0x38AF3EED PUSH1 0x40 MLOAD DUP2 PUSH4 0xFFFFFFFF AND PUSH1 0xE0 SHL DUP2 MSTORE PUSH1 0x4 ADD PUSH1 0x20 PUSH1 0x40 MLOAD DUP1 DUP4 SUB DUP2 DUP7 GAS STATICCALL ISZERO DUP1 ISZERO PUSH2 0x15F9 JUMPI RETURNDATASIZE PUSH1 0x0 DUP1 RETURNDATACOPY RETURNDATASIZE PUSH1 0x0 REVERT JUMPDEST POP POP POP POP PUSH1 0x40 MLOAD RETURNDATASIZE PUSH1 0x1F NOT PUSH1 0x1F DUP3 ADD AND DUP3 ADD DUP1 PUSH1 0x40 MSTORE POP DUP2 ADD SWAP1 PUSH2 0x161D SWAP2 SWAP1 PUSH2 0x589E JUMP JUMPDEST PUSH1 0x1 PUSH1 0x1 PUSH1 0xA0 SHL SUB AND CALLER PUSH1 0x1 PUSH1 0x1 PUSH1 0xA0 SHL SUB AND EQ PUSH2 0x164D JUMPI PUSH1 0x40 MLOAD PUSH3 0x461BCD PUSH1 0xE5 SHL DUP2 MSTORE PUSH1 0x4 ADD PUSH2 0xC53 SWAP1 PUSH2 0x58BB JUMP JUMPDEST PUSH1 0x23 SLOAD PUSH1 0x0 SWAP1 PUSH1 0x1 PUSH1 0x1 PUSH1 0xA0 SHL SUB AND PUSH4 0xE7D88C42 PUSH2 0xDF1 PUSH2 0x3EEE JUMP JUMPDEST PUSH1 0x15 SLOAD PUSH1 0xFF AND ISZERO ISZERO PUSH1 0x1 EQ PUSH2 0x1690 JUMPI PUSH1 0x40 MLOAD PUSH3 0x461BCD PUSH1 0xE5 SHL DUP2 MSTORE PUSH1 0x4 ADD PUSH2 0xC53 SWAP1 PUSH2 0x5867 JUMP JUMPDEST PUSH1 0x26 PUSH1 0x0 SWAP1 SLOAD SWAP1 PUSH2 0x100 EXP SWAP1 DIV PUSH1 0x1 PUSH1 0x1 PUSH1 0xA0 SHL SUB AND PUSH1 0x1 PUSH1 0x1 PUSH1 0xA0 SHL SUB AND PUSH4 0x38AF3EED PUSH1 0x40 MLOAD DUP2 PUSH4 0xFFFFFFFF AND PUSH1 0xE0 SHL DUP2 MSTORE PUSH1 0x4 ADD PUSH1 0x20 PUSH1 0x40 MLOAD DUP1 DUP4 SUB DUP2 DUP7 GAS STATICCALL ISZERO DUP1 ISZERO PUSH2 0x16E3 JUMPI RETURNDATASIZE PUSH1 0x0 DUP1 RETURNDATACOPY RETURNDATASIZE PUSH1 0x0 REVERT JUMPDEST POP POP POP POP PUSH1 0x40 MLOAD RETURNDATASIZE PUSH1 0x1F NOT PUSH1 0x1F DUP3 ADD AND DUP3 ADD DUP1 PUSH1 0x40 MSTORE POP DUP2 ADD SWAP1 PUSH2 0x1707 SWAP2 SWAP1 PUSH2 0x589E JUMP JUMPDEST PUSH1 0x1 PUSH1 0x1 PUSH1 0xA0 SHL SUB AND CALLER PUSH1 0x1 PUSH1 0x1 PUSH1 0xA0 SHL SUB AND EQ PUSH2 0x1737 JUMPI PUSH1 0x40 MLOAD PUSH3 0x461BCD PUSH1 0xE5 SHL DUP2 MSTORE PUSH1 0x4 ADD PUSH2 0xC53 SWAP1 PUSH2 0x58BB JUMP JUMPDEST PUSH1 0x26 SLOAD PUSH1 0x0 SWAP1 PUSH1 0x1 PUSH1 0x1 PUSH1 0xA0 SHL SUB AND PUSH4 0xE7D88C42 PUSH2 0xDF1 PUSH2 0x2AA5 JUMP JUMPDEST PUSH1 0x5 SLOAD PUSH1 0x1 PUSH1 0x1 PUSH1 0xA0 SHL SUB AND CALLER EQ PUSH2 0x177D JUMPI PUSH1 0x40 MLOAD PUSH3 0x461BCD PUSH1 0xE5 SHL DUP2 MSTORE PUSH1 0x4 ADD PUSH2 0xC53 SWAP1 PUSH2 0x5832 JUMP JUMPDEST PUSH1 0x15 DUP1 SLOAD PUSH5 0xFFFF000000 NOT AND PUSH4 0x1000000 PUSH2 0xFFFF DUP5 AND MUL OR SWAP1 SSTORE CALLER PUSH1 0x40 MLOAD PUSH2 0xFFFF DUP4 AND DUP2 MSTORE PUSH1 0x1 PUSH1 0x1 PUSH1 0xA0 SHL SUB SWAP2 SWAP1 SWAP2 AND SWAP1 PUSH32 0xDF92943B31FFF67E8447FF9FA8B5E226DDCC5FB34D36CFE120C0F2B96EB8D6F7 SWAP1 PUSH1 0x20 ADD JUMPDEST PUSH1 0x40 MLOAD DUP1 SWAP2 SUB SWAP1 LOG2 POP JUMP JUMPDEST PUSH1 0x0 PUSH2 0x17F4 PUSH1 0x5 SLOAD PUSH1 0x1 PUSH1 0x1 PUSH1 0xA0 SHL SUB AND SWAP1 JUMP JUMPDEST SWAP1 POP SWAP1 JUMP JUMPDEST PUSH1 0x5 SLOAD PUSH1 0x1 PUSH1 0x1 PUSH1 0xA0 SHL SUB AND CALLER EQ PUSH2 0x1823 JUMPI PUSH1 0x40 MLOAD PUSH3 0x461BCD PUSH1 0xE5 SHL DUP2 MSTORE PUSH1 0x4 ADD PUSH2 0xC53 SWAP1 PUSH2 0x5832 JUMP JUMPDEST ADDRESS PUSH1 0x0 SWAP1 DUP2 MSTORE PUSH1 0xE PUSH1 0x20 MSTORE PUSH1 0x40 SWAP1 KECCAK256 SLOAD DUP2 LT PUSH2 0x1881 JUMPI PUSH1 0x40 MLOAD PUSH3 0x461BCD PUSH1 0xE5 SHL DUP2 MSTORE PUSH1 0x20 PUSH1 0x4 DUP3 ADD DUP2 SWAP1 MSTORE PUSH1 0x24 DUP3 ADD MSTORE PUSH32 0x416D6F756E74206275726E74206C6172676572207468616E2062616C616E6365 PUSH1 0x44 DUP3 ADD MSTORE PUSH1 0x64 ADD PUSH2 0xC53 JUMP JUMPDEST ADDRESS PUSH1 0x0 SWAP1 DUP2 MSTORE PUSH1 0xE PUSH1 0x20 MSTORE PUSH1 0x40 SWAP1 KECCAK256 SLOAD PUSH2 0x189B SWAP1 DUP3 PUSH2 0x2A99 JUMP JUMPDEST ADDRESS PUSH1 0x0 SWAP1 DUP2 MSTORE PUSH1 0xE PUSH1 0x20 MSTORE PUSH1 0x40 SWAP1 KECCAK256 SSTORE PUSH1 0x10 SLOAD PUSH2 0xCDA SWAP1 DUP3 PUSH2 0x2A99 JUMP JUMPDEST PUSH1 0x5 SLOAD PUSH1 0x1 PUSH1 0x1 PUSH1 0xA0 SHL SUB AND CALLER EQ PUSH2 0x18E2 JUMPI PUSH1 0x40 MLOAD PUSH3 0x461BCD PUSH1 0xE5 SHL DUP2 MSTORE PUSH1 0x4 ADD PUSH2 0xC53 SWAP1 PUSH2 0x5832 JUMP JUMPDEST PUSH2 0x18EB DUP2 PUSH2 0x4393 JUMP JUMPDEST PUSH1 0x40 MLOAD DUP2 DUP2 MSTORE CALLER SWAP1 PUSH32 0xE4D1041AB63832A18AE323C0781239637B799CCD1FFA03B0CC4C0916F14834D7 SWAP1 PUSH1 0x20 ADD PUSH2 0x17D5 JUMP JUMPDEST PUSH1 0x15 SLOAD PUSH1 0xFF AND ISZERO ISZERO PUSH1 0x1 EQ PUSH2 0x1944 JUMPI PUSH1 0x40 MLOAD PUSH3 0x461BCD PUSH1 0xE5 SHL DUP2 MSTORE PUSH1 0x4 ADD PUSH2 0xC53 SWAP1 PUSH2 0x5867 JUMP JUMPDEST PUSH1 0x28 PUSH1 0x0 SWAP1 SLOAD SWAP1 PUSH2 0x100 EXP SWAP1 DIV PUSH1 0x1 PUSH1 0x1 PUSH1 0xA0 SHL SUB AND PUSH1 0x1 PUSH1 0x1 PUSH1 0xA0 SHL SUB AND PUSH4 0x38AF3EED PUSH1 0x40 MLOAD DUP2 PUSH4 0xFFFFFFFF AND PUSH1 0xE0 SHL DUP2 MSTORE PUSH1 0x4 ADD PUSH1 0x20 PUSH1 0x40 MLOAD DUP1 DUP4 SUB DUP2 DUP7 GAS STATICCALL ISZERO DUP1 ISZERO PUSH2 0x1997 JUMPI RETURNDATASIZE PUSH1 0x0 DUP1 RETURNDATACOPY RETURNDATASIZE PUSH1 0x0 REVERT JUMPDEST POP POP POP POP PUSH1 0x40 MLOAD RETURNDATASIZE PUSH1 0x1F NOT PUSH1 0x1F DUP3 ADD AND DUP3 ADD DUP1 PUSH1 0x40 MSTORE POP DUP2 ADD SWAP1 PUSH2 0x19BB SWAP2 SWAP1 PUSH2 0x589E JUMP JUMPDEST PUSH1 0x1 PUSH1 0x1 PUSH1 0xA0 SHL SUB AND CALLER PUSH1 0x1 PUSH1 0x1 PUSH1 0xA0 SHL SUB AND EQ PUSH2 0x19EB JUMPI PUSH1 0x40 MLOAD PUSH3 0x461BCD PUSH1 0xE5 SHL DUP2 MSTORE PUSH1 0x4 ADD PUSH2 0xC53 SWAP1 PUSH2 0x58BB JUMP JUMPDEST PUSH1 0x28 SLOAD PUSH1 0x0 SWAP1 PUSH1 0x1 PUSH1 0x1 PUSH1 0xA0 SHL SUB AND PUSH4 0xE7D88C42 PUSH2 0xDF1 PUSH2 0x337E JUMP JUMPDEST PUSH1 0x15 SLOAD PUSH1 0xFF AND ISZERO ISZERO PUSH1 0x1 EQ PUSH2 0x1A2E JUMPI PUSH1 0x40 MLOAD PUSH3 0x461BCD PUSH1 0xE5 SHL DUP2 MSTORE PUSH1 0x4 ADD PUSH2 0xC53 SWAP1 PUSH2 0x5867 JUMP JUMPDEST PUSH1 0x20 DUP1 SLOAD PUSH1 0x40 DUP1 MLOAD PUSH4 0x38AF3EED PUSH1 0xE0 SHL DUP2 MSTORE SWAP1 MLOAD PUSH1 0x1 PUSH1 0x1 PUSH1 0xA0 SHL SUB SWAP1 SWAP3 AND SWAP3 PUSH4 0x38AF3EED SWAP3 PUSH1 0x4 DUP1 DUP5 ADD SWAP4 DUP3 SWAP1 SUB ADD DUP2 DUP7 GAS STATICCALL ISZERO DUP1 ISZERO PUSH2 0x1A73 JUMPI RETURNDATASIZE PUSH1 0x0 DUP1 RETURNDATACOPY RETURNDATASIZE PUSH1 0x0 REVERT JUMPDEST POP POP POP POP PUSH1 0x40 MLOAD RETURNDATASIZE PUSH1 0x1F NOT PUSH1 0x1F DUP3 ADD AND DUP3 ADD DUP1 PUSH1 0x40 MSTORE POP DUP2 ADD SWAP1 PUSH2 0x1A97 SWAP2 SWAP1 PUSH2 0x589E JUMP JUMPDEST PUSH1 0x1 PUSH1 0x1 PUSH1 0xA0 SHL SUB AND CALLER PUSH1 0x1 PUSH1 0x1 PUSH1 0xA0 SHL SUB AND EQ PUSH2 0x1AC7 JUMPI PUSH1 0x40 MLOAD PUSH3 0x461BCD PUSH1 0xE5 SHL DUP2 MSTORE PUSH1 0x4 ADD PUSH2 0xC53 SWAP1 PUSH2 0x58BB JUMP JUMPDEST PUSH1 0x20 SLOAD PUSH1 0x0 SWAP1 PUSH1 0x1 PUSH1 0x1 PUSH1 0xA0 SHL SUB AND PUSH4 0xE7D88C42 PUSH2 0xDF1 PUSH2 0x4437 JUMP JUMPDEST PUSH1 0x60 PUSH1 0x12 DUP1 SLOAD PUSH2 0xB8C SWAP1 PUSH2 0x57F7 JUMP JUMPDEST PUSH1 0x5 SLOAD PUSH1 0x1 PUSH1 0x1 PUSH1 0xA0 SHL SUB AND CALLER EQ PUSH2 0x1B1C JUMPI PUSH1 0x40 MLOAD PUSH3 0x461BCD PUSH1 0xE5 SHL DUP2 MSTORE PUSH1 0x4 ADD PUSH2 0xC53 SWAP1 PUSH2 0x5832 JUMP JUMPDEST PUSH1 0x15 SLOAD PUSH3 0x10000 SWAP1 DIV PUSH1 0xFF AND ISZERO ISZERO PUSH1 0x1 EQ PUSH2 0x1B79 JUMPI PUSH1 0x40 MLOAD PUSH3 0x461BCD PUSH1 0xE5 SHL DUP2 MSTORE PUSH1 0x20 PUSH1 0x4 DUP3 ADD MSTORE PUSH1 0x18 PUSH1 0x24 DUP3 ADD MSTORE PUSH32 0x507269766174652053616C65206E6F7420737461727465640000000000000000 PUSH1 0x44 DUP3 ADD MSTORE PUSH1 0x64 ADD PUSH2 0xC53 JUMP JUMPDEST PUSH1 0x0 DUP2 GT PUSH2 0x1BD5 JUMPI PUSH1 0x40 MLOAD PUSH3 0x461BCD PUSH1 0xE5 SHL DUP2 MSTORE PUSH1 0x20 PUSH1 0x4 DUP3 ADD MSTORE PUSH1 0x24 DUP1 DUP3 ADD MSTORE PUSH32 0x43616E6E6F74206164642062656E65666963696172792077697468203020616D PUSH1 0x44 DUP3 ADD MSTORE PUSH4 0x1BDD5B9D PUSH1 0xE2 SHL PUSH1 0x64 DUP3 ADD MSTORE PUSH1 0x84 ADD PUSH2 0xC53 JUMP JUMPDEST PUSH2 0x1172 DUP3 DUP3 PUSH2 0x47D3 JUMP JUMPDEST PUSH1 0x5 SLOAD PUSH1 0x1 PUSH1 0x1 PUSH1 0xA0 SHL SUB AND CALLER EQ PUSH2 0x1C09 JUMPI PUSH1 0x40 MLOAD PUSH3 0x461BCD PUSH1 0xE5 SHL DUP2 MSTORE PUSH1 0x4 ADD PUSH2 0xC53 SWAP1 PUSH2 0x5832 JUMP JUMPDEST DUP1 PUSH2 0x1C50 JUMPI PUSH1 0x40 MLOAD PUSH3 0x461BCD PUSH1 0xE5 SHL DUP2 MSTORE PUSH1 0x20 PUSH1 0x4 DUP3 ADD MSTORE PUSH1 0x17 PUSH1 0x24 DUP3 ADD MSTORE PUSH23 0x416D6F756E74206D696E742063616E6E6F74206265203 PUSH1 0x4C SHL PUSH1 0x44 DUP3 ADD MSTORE PUSH1 0x64 ADD PUSH2 0xC53 JUMP JUMPDEST PUSH1 0x14 SLOAD PUSH2 0x1C5D SWAP1 DUP3 PUSH2 0x2968 JUMP JUMPDEST PUSH1 0x14 SSTORE PUSH1 0x10 SLOAD PUSH2 0x1C6D SWAP1 DUP3 PUSH2 0x2968 JUMP JUMPDEST PUSH1 0x10 SSTORE PUSH1 0x40 MLOAD DUP2 DUP2 MSTORE ADDRESS SWAP1 PUSH1 0x0 SWAP1 PUSH1 0x0 DUP1 MLOAD PUSH1 0x20 PUSH2 0x5AAE DUP4 CODECOPY DUP2 MLOAD SWAP2 MSTORE SWAP1 PUSH1 0x20 ADD PUSH2 0xCFC JUMP JUMPDEST PUSH1 0x0 CALLER DUP2 PUSH2 0x1CA1 DUP3 DUP7 PUSH2 0x240B JUMP JUMPDEST SWAP1 POP DUP4 DUP2 LT ISZERO PUSH2 0x1D01 JUMPI PUSH1 0x40 MLOAD PUSH3 0x461BCD PUSH1 0xE5 SHL DUP2 MSTORE PUSH1 0x20 PUSH1 0x4 DUP3 ADD MSTORE PUSH1 0x25 PUSH1 0x24 DUP3 ADD MSTORE PUSH32 0x45524332303A2064656372656173656420616C6C6F77616E63652062656C6F77 PUSH1 0x44 DUP3 ADD MSTORE PUSH5 0x207A65726F PUSH1 0xD8 SHL PUSH1 0x64 DUP3 ADD MSTORE PUSH1 0x84 ADD PUSH2 0xC53 JUMP JUMPDEST PUSH2 0xFA5 DUP3 DUP7 DUP7 DUP5 SUB PUSH2 0x2974 JUMP JUMPDEST PUSH1 0x0 CALLER PUSH2 0xC1D DUP2 DUP6 DUP6 PUSH2 0x3070 JUMP JUMPDEST PUSH1 0x5 SLOAD PUSH1 0x1 PUSH1 0x1 PUSH1 0xA0 SHL SUB AND CALLER EQ PUSH2 0x1D46 JUMPI PUSH1 0x40 MLOAD PUSH3 0x461BCD PUSH1 0xE5 SHL DUP2 MSTORE PUSH1 0x4 ADD PUSH2 0xC53 SWAP1 PUSH2 0x5832 JUMP JUMPDEST PUSH1 0x15 DUP1 SLOAD PUSH2 0xFF00 NOT AND PUSH2 0x100 DUP4 ISZERO ISZERO MUL OR SWAP1 SSTORE CALLER PUSH1 0x1 PUSH1 0x1 PUSH1 0xA0 SHL SUB AND PUSH32 0xE596A4FD4BA2E7F54093D98B96267C6B0DBAE1E317BED8123D9FBC868C028377 DUP3 PUSH1 0x40 MLOAD PUSH2 0x17D5 SWAP2 ISZERO ISZERO DUP2 MSTORE PUSH1 0x20 ADD SWAP1 JUMP JUMPDEST PUSH1 0x15 SLOAD PUSH1 0xFF AND ISZERO ISZERO PUSH1 0x1 EQ PUSH2 0x1DBD JUMPI PUSH1 0x40 MLOAD PUSH3 0x461BCD PUSH1 0xE5 SHL DUP2 MSTORE PUSH1 0x4 ADD PUSH2 0xC53 SWAP1 PUSH2 0x5867 JUMP JUMPDEST PUSH1 0x21 PUSH1 0x0 SWAP1 SLOAD SWAP1 PUSH2 0x100 EXP SWAP1 DIV PUSH1 0x1 PUSH1 0x1 PUSH1 0xA0 SHL SUB AND PUSH1 0x1 PUSH1 0x1 PUSH1 0xA0 SHL SUB AND PUSH4 0x38AF3EED PUSH1 0x40 MLOAD DUP2 PUSH4 0xFFFFFFFF AND PUSH1 0xE0 SHL DUP2 MSTORE PUSH1 0x4 ADD PUSH1 0x20 PUSH1 0x40 MLOAD DUP1 DUP4 SUB DUP2 DUP7 GAS STATICCALL ISZERO DUP1 ISZERO PUSH2 0x1E10 JUMPI RETURNDATASIZE PUSH1 0x0 DUP1 RETURNDATACOPY RETURNDATASIZE PUSH1 0x0 REVERT JUMPDEST POP POP POP POP PUSH1 0x40 MLOAD RETURNDATASIZE PUSH1 0x1F NOT PUSH1 0x1F DUP3 ADD AND DUP3 ADD DUP1 PUSH1 0x40 MSTORE POP DUP2 ADD SWAP1 PUSH2 0x1E34 SWAP2 SWAP1 PUSH2 0x589E JUMP JUMPDEST PUSH1 0x1 PUSH1 0x1 PUSH1 0xA0 SHL SUB AND CALLER PUSH1 0x1 PUSH1 0x1 PUSH1 0xA0 SHL SUB AND EQ PUSH2 0x1E64 JUMPI PUSH1 0x40 MLOAD PUSH3 0x461BCD PUSH1 0xE5 SHL DUP2 MSTORE PUSH1 0x4 ADD PUSH2 0xC53 SWAP1 PUSH2 0x58BB JUMP JUMPDEST PUSH1 0x21 SLOAD PUSH1 0x0 SWAP1 PUSH1 0x1 PUSH1 0x1 PUSH1 0xA0 SHL SUB AND PUSH4 0xE7D88C42 PUSH2 0xDF1 PUSH2 0x3EEE JUMP JUMPDEST PUSH1 0x5 SLOAD PUSH1 0x1 PUSH1 0x1 PUSH1 0xA0 SHL SUB AND CALLER EQ PUSH2 0x1EAA JUMPI PUSH1 0x40 MLOAD PUSH3 0x461BCD PUSH1 0xE5 SHL DUP2 MSTORE PUSH1 0x4 ADD PUSH2 0xC53 SWAP1 PUSH2 0x5832 JUMP JUMPDEST PUSH1 0x15 DUP1 SLOAD PUSH1 0xFF NOT AND PUSH1 0x1 OR SWAP1 SSTORE PUSH1 0x20 SLOAD PUSH1 0x40 DUP1 MLOAD PUSH4 0x6466520F PUSH1 0xE1 SHL DUP2 MSTORE SWAP1 MLOAD PUSH1 0x1 PUSH1 0x1 PUSH1 0xA0 SHL SUB SWAP1 SWAP3 AND SWAP2 PUSH4 0xC8CCA41E SWAP2 PUSH1 0x4 DUP1 DUP3 ADD SWAP3 PUSH1 0x0 SWAP3 SWAP1 SWAP2 SWAP1 DUP3 SWAP1 SUB ADD DUP2 DUP4 DUP8 DUP1 EXTCODESIZE ISZERO DUP1 ISZERO PUSH2 0x1EFD JUMPI PUSH1 0x0 DUP1 REVERT JUMPDEST POP GAS CALL ISZERO DUP1 ISZERO PUSH2 0x1F11 JUMPI RETURNDATASIZE PUSH1 0x0 DUP1 RETURNDATACOPY RETURNDATASIZE PUSH1 0x0 REVERT JUMPDEST POP POP POP POP PUSH1 0x21 PUSH1 0x0 SWAP1 SLOAD SWAP1 PUSH2 0x100 EXP SWAP1 DIV PUSH1 0x1 PUSH1 0x1 PUSH1 0xA0 SHL SUB AND PUSH1 0x1 PUSH1 0x1 PUSH1 0xA0 SHL SUB AND PUSH4 0xC8CCA41E PUSH1 0x40 MLOAD DUP2 PUSH4 0xFFFFFFFF AND PUSH1 0xE0 SHL DUP2 MSTORE PUSH1 0x4 ADD PUSH1 0x0 PUSH1 0x40 MLOAD DUP1 DUP4 SUB DUP2 PUSH1 0x0 DUP8 DUP1 EXTCODESIZE ISZERO DUP1 ISZERO PUSH2 0x1F65 JUMPI PUSH1 0x0 DUP1 REVERT JUMPDEST POP GAS CALL ISZERO DUP1 ISZERO PUSH2 0x1F79 JUMPI RETURNDATASIZE PUSH1 0x0 DUP1 RETURNDATACOPY RETURNDATASIZE PUSH1 0x0 REVERT JUMPDEST POP POP POP POP PUSH1 0x22 PUSH1 0x0 SWAP1 SLOAD SWAP1 PUSH2 0x100 EXP SWAP1 DIV PUSH1 0x1 PUSH1 0x1 PUSH1 0xA0 SHL SUB AND PUSH1 0x1 PUSH1 0x1 PUSH1 0xA0 SHL SUB AND PUSH4 0xC8CCA41E PUSH1 0x40 MLOAD DUP2 PUSH4 0xFFFFFFFF AND PUSH1 0xE0 SHL DUP2 MSTORE PUSH1 0x4 ADD PUSH1 0x0 PUSH1 0x40 MLOAD DUP1 DUP4 SUB DUP2 PUSH1 0x0 DUP8 DUP1 EXTCODESIZE ISZERO DUP1 ISZERO PUSH2 0x1FCD JUMPI PUSH1 0x0 DUP1 REVERT JUMPDEST POP GAS CALL ISZERO DUP1 ISZERO PUSH2 0x1FE1 JUMPI RETURNDATASIZE PUSH1 0x0 DUP1 RETURNDATACOPY RETURNDATASIZE PUSH1 0x0 REVERT JUMPDEST POP POP POP POP PUSH1 0x23 PUSH1 0x0 SWAP1 SLOAD SWAP1 PUSH2 0x100 EXP SWAP1 DIV PUSH1 0x1 PUSH1 0x1 PUSH1 0xA0 SHL SUB AND PUSH1 0x1 PUSH1 0x1 PUSH1 0xA0 SHL SUB AND PUSH4 0xC8CCA41E PUSH1 0x40 MLOAD DUP2 PUSH4 0xFFFFFFFF AND PUSH1 0xE0 SHL DUP2 MSTORE PUSH1 0x4 ADD PUSH1 0x0 PUSH1 0x40 MLOAD DUP1 DUP4 SUB DUP2 PUSH1 0x0 DUP8 DUP1 EXTCODESIZE ISZERO DUP1 ISZERO PUSH2 0x2035 JUMPI PUSH1 0x0 DUP1 REVERT JUMPDEST POP GAS CALL ISZERO DUP1 ISZERO PUSH2 0x2049 JUMPI RETURNDATASIZE PUSH1 0x0 DUP1 RETURNDATACOPY RETURNDATASIZE PUSH1 0x0 REVERT JUMPDEST POP POP POP POP PUSH1 0x24 PUSH1 0x0 SWAP1 SLOAD SWAP1 PUSH2 0x100 EXP SWAP1 DIV PUSH1 0x1 PUSH1 0x1 PUSH1 0xA0 SHL SUB AND PUSH1 0x1 PUSH1 0x1 PUSH1 0xA0 SHL SUB AND PUSH4 0xC8CCA41E PUSH1 0x40 MLOAD DUP2 PUSH4 0xFFFFFFFF AND PUSH1 0xE0 SHL DUP2 MSTORE PUSH1 0x4 ADD PUSH1 0x0 PUSH1 0x40 MLOAD DUP1 DUP4 SUB DUP2 PUSH1 0x0 DUP8 DUP1 EXTCODESIZE ISZERO DUP1 ISZERO PUSH2 0x209D JUMPI PUSH1 0x0 DUP1 REVERT JUMPDEST POP GAS CALL ISZERO DUP1 ISZERO PUSH2 0x20B1 JUMPI RETURNDATASIZE PUSH1 0x0 DUP1 RETURNDATACOPY RETURNDATASIZE PUSH1 0x0 REVERT JUMPDEST POP POP POP POP PUSH1 0x25 PUSH1 0x0 SWAP1 SLOAD SWAP1 PUSH2 0x100 EXP SWAP1 DIV PUSH1 0x1 PUSH1 0x1 PUSH1 0xA0 SHL SUB AND PUSH1 0x1 PUSH1 0x1 PUSH1 0xA0 SHL SUB AND PUSH4 0xC8CCA41E PUSH1 0x40 MLOAD DUP2 PUSH4 0xFFFFFFFF AND PUSH1 0xE0 SHL DUP2 MSTORE PUSH1 0x4 ADD PUSH1 0x0 PUSH1 0x40 MLOAD DUP1 DUP4 SUB DUP2 PUSH1 0x0 DUP8 DUP1 EXTCODESIZE ISZERO DUP1 ISZERO PUSH2 0x2105 JUMPI PUSH1 0x0 DUP1 REVERT JUMPDEST POP GAS CALL ISZERO DUP1 ISZERO PUSH2 0x2119 JUMPI RETURNDATASIZE PUSH1 0x0 DUP1 RETURNDATACOPY RETURNDATASIZE PUSH1 0x0 REVERT JUMPDEST POP POP POP POP PUSH1 0x26 PUSH1 0x0 SWAP1 SLOAD SWAP1 PUSH2 0x100 EXP SWAP1 DIV PUSH1 0x1 PUSH1 0x1 PUSH1 0xA0 SHL SUB AND PUSH1 0x1 PUSH1 0x1 PUSH1 0xA0 SHL SUB AND PUSH4 0xC8CCA41E PUSH1 0x40 MLOAD DUP2 PUSH4 0xFFFFFFFF AND PUSH1 0xE0 SHL DUP2 MSTORE PUSH1 0x4 ADD PUSH1 0x0 PUSH1 0x40 MLOAD DUP1 DUP4 SUB DUP2 PUSH1 0x0 DUP8 DUP1 EXTCODESIZE ISZERO DUP1 ISZERO PUSH2 0x216D JUMPI PUSH1 0x0 DUP1 REVERT JUMPDEST POP GAS CALL ISZERO DUP1 ISZERO PUSH2 0x2181 JUMPI RETURNDATASIZE PUSH1 0x0 DUP1 RETURNDATACOPY RETURNDATASIZE PUSH1 0x0 REVERT JUMPDEST POP POP POP POP PUSH1 0x27 PUSH1 0x0 SWAP1 SLOAD SWAP1 PUSH2 0x100 EXP SWAP1 DIV PUSH1 0x1 PUSH1 0x1 PUSH1 0xA0 SHL SUB AND PUSH1 0x1 PUSH1 0x1 PUSH1 0xA0 SHL SUB AND PUSH4 0xC8CCA41E PUSH1 0x40 MLOAD DUP2 PUSH4 0xFFFFFFFF AND PUSH1 0xE0 SHL DUP2 MSTORE PUSH1 0x4 ADD PUSH1 0x0 PUSH1 0x40 MLOAD DUP1 DUP4 SUB DUP2 PUSH1 0x0 DUP8 DUP1 EXTCODESIZE ISZERO DUP1 ISZERO PUSH2 0x21D5 JUMPI PUSH1 0x0 DUP1 REVERT JUMPDEST POP GAS CALL ISZERO DUP1 ISZERO PUSH2 0x21E9 JUMPI RETURNDATASIZE PUSH1 0x0 DUP1 RETURNDATACOPY RETURNDATASIZE PUSH1 0x0 REVERT JUMPDEST POP POP POP POP PUSH1 0x28 PUSH1 0x0 SWAP1 SLOAD SWAP1 PUSH2 0x100 EXP SWAP1 DIV PUSH1 0x1 PUSH1 0x1 PUSH1 0xA0 SHL SUB AND PUSH1 0x1 PUSH1 0x1 PUSH1 0xA0 SHL SUB AND PUSH4 0xC8CCA41E PUSH1 0x40 MLOAD DUP2 PUSH4 0xFFFFFFFF AND PUSH1 0xE0 SHL DUP2 MSTORE PUSH1 0x4 ADD PUSH1 0x0 PUSH1 0x40 MLOAD DUP1 DUP4 SUB DUP2 PUSH1 0x0 DUP8 DUP1 EXTCODESIZE ISZERO DUP1 ISZERO PUSH2 0x223D JUMPI PUSH1 0x0 DUP1 REVERT JUMPDEST POP GAS CALL ISZERO DUP1 ISZERO PUSH2 0x2251 JUMPI RETURNDATASIZE PUSH1 0x0 DUP1 RETURNDATACOPY RETURNDATASIZE PUSH1 0x0 REVERT JUMPDEST POP POP POP POP PUSH1 0x29 PUSH1 0x0 SWAP1 SLOAD SWAP1 PUSH2 0x100 EXP SWAP1 DIV PUSH1 0x1 PUSH1 0x1 PUSH1 0xA0 SHL SUB AND PUSH1 0x1 PUSH1 0x1 PUSH1 0xA0 SHL SUB AND PUSH4 0xC8CCA41E PUSH1 0x40 MLOAD DUP2 PUSH4 0xFFFFFFFF AND PUSH1 0xE0 SHL DUP2 MSTORE PUSH1 0x4 ADD PUSH1 0x0 PUSH1 0x40 MLOAD DUP1 DUP4 SUB DUP2 PUSH1 0x0 DUP8 DUP1 EXTCODESIZE ISZERO DUP1 ISZERO PUSH2 0x22A5 JUMPI PUSH1 0x0 DUP1 REVERT JUMPDEST POP GAS CALL ISZERO DUP1 ISZERO PUSH2 0x22B9 JUMPI RETURNDATASIZE PUSH1 0x0 DUP1 RETURNDATACOPY RETURNDATASIZE PUSH1 0x0 REVERT JUMPDEST POP POP POP POP PUSH2 0x22C4 CALLER SWAP1 JUMP JUMPDEST PUSH1 0x1 PUSH1 0x1 PUSH1 0xA0 SHL SUB AND PUSH32 0x72E04AFC383D9AB428814E808CD65ABB27C66B5FA85CC230B4CDA3E36B436C98 PUSH1 0x40 MLOAD PUSH1 0x40 MLOAD DUP1 SWAP2 SUB SWAP1 LOG2 JUMP JUMPDEST PUSH1 0x5 SLOAD PUSH1 0x1 PUSH1 0x1 PUSH1 0xA0 SHL SUB AND CALLER EQ PUSH2 0x2325 JUMPI PUSH1 0x40 MLOAD PUSH3 0x461BCD PUSH1 0xE5 SHL DUP2 MSTORE PUSH1 0x4 ADD PUSH2 0xC53 SWAP1 PUSH2 0x5832 JUMP JUMPDEST PUSH2 0x232E DUP2 PUSH2 0x4926 JUMP JUMPDEST PUSH1 0x40 MLOAD DUP2 DUP2 MSTORE CALLER SWAP1 PUSH32 0x31BBDC307CB7AFAB9B265EE4C47F5FEB19D8A8702A67C0B695DF02E0D4C55B5F SWAP1 PUSH1 0x20 ADD PUSH2 0x17D5 JUMP JUMPDEST PUSH1 0x5 SLOAD PUSH1 0x1 PUSH1 0x1 PUSH1 0xA0 SHL SUB AND CALLER EQ PUSH2 0x238A JUMPI PUSH1 0x40 MLOAD PUSH3 0x461BCD PUSH1 0xE5 SHL DUP2 MSTORE PUSH1 0x4 ADD PUSH2 0xC53 SWAP1 PUSH2 0x5832 JUMP JUMPDEST PUSH1 0x0 DUP2 GT PUSH2 0x23D4 JUMPI PUSH1 0x40 MLOAD PUSH3 0x461BCD PUSH1 0xE5 SHL DUP2 MSTORE PUSH1 0x20 PUSH1 0x4 DUP3 ADD MSTORE PUSH1 0x17 PUSH1 0x24 DUP3 ADD MSTORE PUSH23 0x416D6F756E74206D696E742063616E6E6F74206265203 PUSH1 0x4C SHL PUSH1 0x44 DUP3 ADD MSTORE PUSH1 0x64 ADD PUSH2 0xC53 JUMP JUMPDEST ADDRESS PUSH1 0x0 SWAP1 DUP2 MSTORE PUSH1 0xE PUSH1 0x20 MSTORE PUSH1 0x40 SWAP1 KECCAK256 SLOAD PUSH2 0x23EE SWAP1 DUP3 PUSH2 0x2968 JUMP JUMPDEST ADDRESS PUSH1 0x0 SWAP1 DUP2 MSTORE PUSH1 0xE PUSH1 0x20 MSTORE PUSH1 0x40 SWAP1 KECCAK256 SSTORE PUSH1 0x10 SLOAD PUSH2 0x1C6D SWAP1 DUP3 PUSH2 0x2968 JUMP JUMPDEST PUSH1 0x1 PUSH1 0x1 PUSH1 0xA0 SHL SUB SWAP2 DUP3 AND PUSH1 0x0 SWAP1 DUP2 MSTORE PUSH1 0xF PUSH1 0x20 SWAP1 DUP2 MSTORE PUSH1 0x40 DUP1 DUP4 KECCAK256 SWAP4 SWAP1 SWAP5 AND DUP3 MSTORE SWAP2 SWAP1 SWAP2 MSTORE KECCAK256 SLOAD SWAP1 JUMP JUMPDEST PUSH1 0x40 DUP1 MLOAD DUP1 DUP3 ADD SWAP1 SWAP2 MSTORE PUSH1 0x0 DUP2 MSTORE PUSH1 0x60 PUSH1 0x20 DUP3 ADD MSTORE PUSH1 0x0 DUP1 PUSH1 0x40 MLOAD DUP1 PUSH1 0x40 ADD PUSH1 0x40 MSTORE DUP1 PUSH1 0x0 DUP2 MSTORE PUSH1 0x20 ADD PUSH1 0x8 PUSH1 0x9 PUSH1 0x0 DUP9 PUSH1 0x1 PUSH1 0x1 PUSH1 0xA0 SHL SUB AND PUSH1 0x1 PUSH1 0x1 PUSH1 0xA0 SHL SUB AND DUP2 MSTORE PUSH1 0x20 ADD SWAP1 DUP2 MSTORE PUSH1 0x20 ADD PUSH1 0x0 KECCAK256 SLOAD DUP2 SLOAD DUP2 LT PUSH2 0x2498 JUMPI PUSH2 0x2498 PUSH2 0x595F JUMP JUMPDEST SWAP1 PUSH1 0x0 MSTORE PUSH1 0x20 PUSH1 0x0 KECCAK256 SWAP1 PUSH1 0x3 MUL ADD PUSH1 0x2 ADD DUP1 SLOAD DUP1 PUSH1 0x20 MUL PUSH1 0x20 ADD PUSH1 0x40 MLOAD SWAP1 DUP2 ADD PUSH1 0x40 MSTORE DUP1 SWAP3 SWAP2 SWAP1 DUP2 DUP2 MSTORE PUSH1 0x20 ADD PUSH1 0x0 SWAP1 JUMPDEST DUP3 DUP3 LT ISZERO PUSH2 0x2544 JUMPI PUSH1 0x0 DUP5 DUP2 MSTORE PUSH1 0x20 SWAP1 DUP2 SWAP1 KECCAK256 PUSH1 0x40 DUP1 MLOAD PUSH1 0xE0 DUP2 ADD DUP3 MSTORE PUSH1 0x7 DUP7 MUL SWAP1 SWAP3 ADD DUP1 SLOAD PUSH1 0x1 PUSH1 0x1 PUSH1 0xA0 SHL SUB AND DUP4 MSTORE PUSH1 0x1 DUP1 DUP3 ADD SLOAD DUP5 DUP7 ADD MSTORE PUSH1 0x2 DUP3 ADD SLOAD SWAP3 DUP5 ADD SWAP3 SWAP1 SWAP3 MSTORE PUSH1 0x3 DUP2 ADD SLOAD PUSH1 0x60 DUP5 ADD MSTORE PUSH1 0x4 DUP2 ADD SLOAD PUSH1 0x80 DUP5 ADD MSTORE PUSH1 0x5 DUP2 ADD SLOAD PUSH1 0xA0 DUP5 ADD MSTORE PUSH1 0x6 ADD SLOAD PUSH1 0xC0 DUP4 ADD MSTORE SWAP1 DUP4 MSTORE SWAP1 SWAP3 ADD SWAP2 ADD PUSH2 0x24C9 JUMP JUMPDEST POP POP POP SWAP2 MSTORE POP PUSH1 0x20 DUP2 ADD MLOAD MLOAD SWAP1 SWAP2 POP PUSH2 0x256F JUMPI PUSH1 0x40 MLOAD PUSH3 0x461BCD PUSH1 0xE5 SHL DUP2 MSTORE PUSH1 0x4 ADD PUSH2 0xC53 SWAP1 PUSH2 0x5975 JUMP JUMPDEST PUSH1 0x0 JUMPDEST DUP2 PUSH1 0x20 ADD MLOAD MLOAD DUP2 LT ISZERO PUSH2 0x2635 JUMPI PUSH1 0x0 PUSH2 0x25C9 DUP4 PUSH1 0x20 ADD MLOAD DUP4 DUP2 MLOAD DUP2 LT PUSH2 0x259A JUMPI PUSH2 0x259A PUSH2 0x595F JUMP JUMPDEST PUSH1 0x20 MUL PUSH1 0x20 ADD ADD MLOAD DUP5 PUSH1 0x20 ADD MLOAD DUP5 DUP2 MLOAD DUP2 LT PUSH2 0x25B8 JUMPI PUSH2 0x25B8 PUSH2 0x595F JUMP JUMPDEST PUSH1 0x20 MUL PUSH1 0x20 ADD ADD MLOAD PUSH1 0x20 ADD MLOAD PUSH2 0x49CB JUMP JUMPDEST SWAP1 POP DUP1 DUP4 PUSH1 0x20 ADD MLOAD DUP4 DUP2 MLOAD DUP2 LT PUSH2 0x25E2 JUMPI PUSH2 0x25E2 PUSH2 0x595F JUMP JUMPDEST PUSH1 0x20 MUL PUSH1 0x20 ADD ADD MLOAD PUSH1 0x60 ADD DUP2 DUP2 MSTORE POP POP DUP3 PUSH1 0x20 ADD MLOAD DUP3 DUP2 MLOAD DUP2 LT PUSH2 0x2608 JUMPI PUSH2 0x2608 PUSH2 0x595F JUMP JUMPDEST PUSH1 0x20 MUL PUSH1 0x20 ADD ADD MLOAD PUSH1 0x20 ADD MLOAD DUP5 PUSH2 0x261F SWAP2 SWAP1 PUSH2 0x5947 JUMP JUMPDEST SWAP4 POP PUSH2 0x262E SWAP1 POP PUSH1 0x1 DUP3 PUSH2 0x5947 JUMP JUMPDEST SWAP1 POP PUSH2 0x2572 JUMP JUMPDEST POP SWAP1 DUP2 MSTORE SWAP3 SWAP2 POP POP JUMP JUMPDEST PUSH1 0x15 SLOAD PUSH1 0xFF AND ISZERO ISZERO PUSH1 0x1 EQ PUSH2 0x2666 JUMPI PUSH1 0x40 MLOAD PUSH3 0x461BCD PUSH1 0xE5 SHL DUP2 MSTORE PUSH1 0x4 ADD PUSH2 0xC53 SWAP1 PUSH2 0x5867 JUMP JUMPDEST PUSH1 0x22 PUSH1 0x0 SWAP1 SLOAD SWAP1 PUSH2 0x100 EXP SWAP1 DIV PUSH1 0x1 PUSH1 0x1 PUSH1 0xA0 SHL SUB AND PUSH1 0x1 PUSH1 0x1 PUSH1 0xA0 SHL SUB AND PUSH4 0x38AF3EED PUSH1 0x40 MLOAD DUP2 PUSH4 0xFFFFFFFF AND PUSH1 0xE0 SHL DUP2 MSTORE PUSH1 0x4 ADD PUSH1 0x20 PUSH1 0x40 MLOAD DUP1 DUP4 SUB DUP2 DUP7 GAS STATICCALL ISZERO DUP1 ISZERO PUSH2 0x26B9 JUMPI RETURNDATASIZE PUSH1 0x0 DUP1 RETURNDATACOPY RETURNDATASIZE PUSH1 0x0 REVERT JUMPDEST POP POP POP POP PUSH1 0x40 MLOAD RETURNDATASIZE PUSH1 0x1F NOT PUSH1 0x1F DUP3 ADD AND DUP3 ADD DUP1 PUSH1 0x40 MSTORE POP DUP2 ADD SWAP1 PUSH2 0x26DD SWAP2 SWAP1 PUSH2 0x589E JUMP JUMPDEST PUSH1 0x1 PUSH1 0x1 PUSH1 0xA0 SHL SUB AND CALLER PUSH1 0x1 PUSH1 0x1 PUSH1 0xA0 SHL SUB AND EQ PUSH2 0x270D JUMPI PUSH1 0x40 MLOAD PUSH3 0x461BCD PUSH1 0xE5 SHL DUP2 MSTORE PUSH1 0x4 ADD PUSH2 0xC53 SWAP1 PUSH2 0x58BB JUMP JUMPDEST PUSH1 0x22 SLOAD PUSH1 0x0 SWAP1 PUSH1 0x1 PUSH1 0x1 PUSH1 0xA0 SHL SUB AND PUSH4 0xE7D88C42 PUSH2 0xDF1 PUSH2 0x3EEE JUMP JUMPDEST PUSH1 0x0 DUP1 PUSH2 0x2736 DUP5 DUP5 PUSH2 0x4A1E JUMP JUMPDEST SWAP2 POP SWAP2 POP PUSH2 0x2743 DUP2 PUSH2 0x2360 JUMP JUMPDEST ADDRESS PUSH1 0x0 SWAP1 DUP2 MSTORE PUSH1 0xE PUSH1 0x20 MSTORE PUSH1 0x40 SWAP1 KECCAK256 SLOAD PUSH2 0x275D SWAP1 DUP4 PUSH2 0x2A99 JUMP JUMPDEST ADDRESS PUSH1 0x0 SWAP1 DUP2 MSTORE PUSH1 0xE PUSH1 0x20 MSTORE PUSH1 0x40 SWAP1 KECCAK256 DUP2 SWAP1 SSTORE PUSH2 0x2779 SWAP1 DUP3 PUSH2 0x2A99 JUMP JUMPDEST ADDRESS PUSH1 0x0 SWAP1 DUP2 MSTORE PUSH1 0xE PUSH1 0x20 MSTORE PUSH1 0x40 SWAP1 KECCAK256 SSTORE PUSH2 0x2793 DUP2 DUP4 PUSH2 0x5947 JUMP JUMPDEST PUSH1 0x10 PUSH1 0x0 DUP3 DUP3 SLOAD PUSH2 0x27A4 SWAP2 SWAP1 PUSH2 0x5947 JUMP JUMPDEST SWAP1 SWAP2 SSTORE POP PUSH2 0x27B4 SWAP1 POP DUP2 DUP4 PUSH2 0x5947 JUMP JUMPDEST CALLER PUSH1 0x0 SWAP1 DUP2 MSTORE PUSH1 0xE PUSH1 0x20 MSTORE PUSH1 0x40 DUP2 KECCAK256 DUP1 SLOAD SWAP1 SWAP2 SWAP1 PUSH2 0x27D3 SWAP1 DUP5 SWAP1 PUSH2 0x5947 JUMP JUMPDEST SWAP1 SWAP2 SSTORE POP POP POP POP POP POP JUMP JUMPDEST PUSH1 0x5 SLOAD PUSH1 0x1 PUSH1 0x1 PUSH1 0xA0 SHL SUB AND CALLER EQ PUSH2 0x2808 JUMPI PUSH1 0x40 MLOAD PUSH3 0x461BCD PUSH1 0xE5 SHL DUP2 MSTORE PUSH1 0x4 ADD PUSH2 0xC53 SWAP1 PUSH2 0x5832 JUMP JUMPDEST PUSH1 0x1 PUSH1 0x1 PUSH1 0xA0 SHL SUB DUP2 AND PUSH2 0x286D JUMPI PUSH1 0x40 MLOAD PUSH3 0x461BCD PUSH1 0xE5 SHL DUP2 MSTORE PUSH1 0x20 PUSH1 0x4 DUP3 ADD MSTORE PUSH1 0x26 PUSH1 0x24 DUP3 ADD MSTORE PUSH32 0x4F776E61626C653A206E6577206F776E657220697320746865207A65726F2061 PUSH1 0x44 DUP3 ADD MSTORE PUSH6 0x646472657373 PUSH1 0xD0 SHL PUSH1 0x64 DUP3 ADD MSTORE PUSH1 0x84 ADD PUSH2 0xC53 JUMP JUMPDEST PUSH2 0x1180 DUP2 PUSH2 0x3BB1 JUMP JUMPDEST PUSH1 0x0 DUP1 PUSH2 0x2882 DUP4 PUSH2 0x4EB4 JUMP JUMPDEST SWAP2 POP SWAP2 POP PUSH2 0x288F DUP2 PUSH2 0x2360 JUMP JUMPDEST ADDRESS PUSH1 0x0 SWAP1 DUP2 MSTORE PUSH1 0xE PUSH1 0x20 MSTORE PUSH1 0x40 SWAP1 KECCAK256 SLOAD PUSH2 0x28A9 SWAP1 DUP4 PUSH2 0x2A99 JUMP JUMPDEST ADDRESS PUSH1 0x0 SWAP1 DUP2 MSTORE PUSH1 0xE PUSH1 0x20 MSTORE PUSH1 0x40 SWAP1 KECCAK256 DUP2 SWAP1 SSTORE PUSH2 0x28C5 SWAP1 DUP3 PUSH2 0x2A99 JUMP JUMPDEST ADDRESS PUSH1 0x0 SWAP1 DUP2 MSTORE PUSH1 0xE PUSH1 0x20 MSTORE PUSH1 0x40 SWAP1 KECCAK256 SSTORE PUSH2 0x28DF DUP2 DUP4 PUSH2 0x5947 JUMP JUMPDEST PUSH1 0x10 PUSH1 0x0 DUP3 DUP3 SLOAD PUSH2 0x28F0 SWAP2 SWAP1 PUSH2 0x5947 JUMP JUMPDEST SWAP1 SWAP2 SSTORE POP PUSH2 0x2900 SWAP1 POP DUP2 DUP4 PUSH2 0x5947 JUMP JUMPDEST CALLER PUSH1 0x0 SWAP1 DUP2 MSTORE PUSH1 0xE PUSH1 0x20 MSTORE PUSH1 0x40 DUP2 KECCAK256 DUP1 SLOAD SWAP1 SWAP2 SWAP1 PUSH2 0x291F SWAP1 DUP5 SWAP1 PUSH2 0x5947 JUMP JUMPDEST SWAP1 SWAP2 SSTORE POP POP POP POP POP JUMP JUMPDEST PUSH1 0x0 DUP2 DUP5 DUP5 GT ISZERO PUSH2 0x294D JUMPI PUSH1 0x40 MLOAD PUSH3 0x461BCD PUSH1 0xE5 SHL DUP2 MSTORE PUSH1 0x4 ADD PUSH2 0xC53 SWAP2 SWAP1 PUSH2 0x55A9 JUMP JUMPDEST POP POP POP SWAP1 SUB SWAP1 JUMP JUMPDEST PUSH1 0x0 PUSH2 0x2961 DUP3 DUP5 PUSH2 0x59DA JUMP JUMPDEST SWAP4 SWAP3 POP POP POP JUMP JUMPDEST PUSH1 0x0 PUSH2 0x2961 DUP3 DUP5 PUSH2 0x5947 JUMP JUMPDEST PUSH1 0x1 PUSH1 0x1 PUSH1 0xA0 SHL SUB DUP4 AND PUSH2 0x29D6 JUMPI PUSH1 0x40 MLOAD PUSH3 0x461BCD PUSH1 0xE5 SHL DUP2 MSTORE PUSH1 0x20 PUSH1 0x4 DUP3 ADD MSTORE PUSH1 0x24 DUP1 DUP3 ADD MSTORE PUSH32 0x45524332303A20617070726F76652066726F6D20746865207A65726F20616464 PUSH1 0x44 DUP3 ADD MSTORE PUSH4 0x72657373 PUSH1 0xE0 SHL PUSH1 0x64 DUP3 ADD MSTORE PUSH1 0x84 ADD PUSH2 0xC53 JUMP JUMPDEST PUSH1 0x1 PUSH1 0x1 PUSH1 0xA0 SHL SUB DUP3 AND PUSH2 0x2A37 JUMPI PUSH1 0x40 MLOAD PUSH3 0x461BCD PUSH1 0xE5 SHL DUP2 MSTORE PUSH1 0x20 PUSH1 0x4 DUP3 ADD MSTORE PUSH1 0x22 PUSH1 0x24 DUP3 ADD MSTORE PUSH32 0x45524332303A20617070726F766520746F20746865207A65726F206164647265 PUSH1 0x44 DUP3 ADD MSTORE PUSH2 0x7373 PUSH1 0xF0 SHL PUSH1 0x64 DUP3 ADD MSTORE PUSH1 0x84 ADD PUSH2 0xC53 JUMP JUMPDEST PUSH1 0x1 PUSH1 0x1 PUSH1 0xA0 SHL SUB DUP4 DUP2 AND PUSH1 0x0 DUP2 DUP2 MSTORE PUSH1 0x1 PUSH1 0x20 SWAP1 DUP2 MSTORE PUSH1 0x40 DUP1 DUP4 KECCAK256 SWAP5 DUP8 AND DUP1 DUP5 MSTORE SWAP5 DUP3 MSTORE SWAP2 DUP3 SWAP1 KECCAK256 DUP6 SWAP1 SSTORE SWAP1 MLOAD DUP5 DUP2 MSTORE PUSH32 0x8C5BE1E5EBEC7D5BD14F71427D1E84F3DD0314C0F7B2291E5B200AC8C7C3B925 SWAP2 ADD JUMPDEST PUSH1 0x40 MLOAD DUP1 SWAP2 SUB SWAP1 LOG3 POP POP POP JUMP JUMPDEST PUSH1 0x0 PUSH2 0x2961 DUP3 DUP5 PUSH2 0x59FC JUMP JUMPDEST PUSH2 0x2AAD PUSH2 0x558A JUMP JUMPDEST PUSH1 0x40 MLOAD DUP1 PUSH2 0x6E0 ADD PUSH1 0x40 MSTORE DUP1 PUSH2 0x2ACD PUSH2 0x5573 PUSH8 0xDE0B6B3A7640000 PUSH2 0x5134 JUMP JUMPDEST DUP2 MSTORE PUSH1 0x20 ADD PUSH2 0x2AE6 PUSH2 0x5573 PUSH8 0xDE0B6B3A7640000 PUSH2 0x5134 JUMP JUMPDEST DUP2 MSTORE PUSH1 0x20 ADD PUSH2 0x2AFF PUSH2 0x5573 PUSH8 0xDE0B6B3A7640000 PUSH2 0x5134 JUMP JUMPDEST DUP2 MSTORE PUSH1 0x20 ADD PUSH2 0x2B18 PUSH2 0x5573 PUSH8 0xDE0B6B3A7640000 PUSH2 0x5134 JUMP JUMPDEST DUP2 MSTORE PUSH1 0x20 ADD PUSH2 0x2B31 PUSH2 0x5573 PUSH8 0xDE0B6B3A7640000 PUSH2 0x5134 JUMP JUMPDEST DUP2 MSTORE PUSH1 0x20 ADD PUSH2 0x2B4A PUSH2 0x5573 PUSH8 0xDE0B6B3A7640000 PUSH2 0x5134 JUMP JUMPDEST DUP2 MSTORE PUSH1 0x20 ADD PUSH2 0x2B63 PUSH2 0x5573 PUSH8 0xDE0B6B3A7640000 PUSH2 0x5134 JUMP JUMPDEST DUP2 MSTORE PUSH1 0x20 ADD PUSH2 0x2B7C PUSH2 0x5573 PUSH8 0xDE0B6B3A7640000 PUSH2 0x5134 JUMP JUMPDEST DUP2 MSTORE PUSH1 0x20 ADD PUSH2 0x2B95 PUSH2 0x5573 PUSH8 0xDE0B6B3A7640000 PUSH2 0x5134 JUMP JUMPDEST DUP2 MSTORE PUSH1 0x20 ADD PUSH2 0x2BAE PUSH2 0x5573 PUSH8 0xDE0B6B3A7640000 PUSH2 0x5134 JUMP JUMPDEST DUP2 MSTORE PUSH1 0x20 ADD PUSH2 0x2BC7 PUSH2 0x5573 PUSH8 0xDE0B6B3A7640000 PUSH2 0x5134 JUMP JUMPDEST DUP2 MSTORE PUSH1 0x20 ADD PUSH2 0x2BE0 PUSH2 0x5573 PUSH8 0xDE0B6B3A7640000 PUSH2 0x5134 JUMP JUMPDEST DUP2 MSTORE PUSH1 0x20 ADD PUSH2 0x2BF9 PUSH2 0x5573 PUSH8 0xDE0B6B3A7640000 PUSH2 0x5134 JUMP JUMPDEST DUP2 MSTORE PUSH1 0x20 ADD PUSH2 0x2C12 PUSH2 0x5573 PUSH8 0xDE0B6B3A7640000 PUSH2 0x5134 JUMP JUMPDEST DUP2 MSTORE PUSH1 0x20 ADD PUSH2 0x2C2B PUSH2 0x5573 PUSH8 0xDE0B6B3A7640000 PUSH2 0x5134 JUMP JUMPDEST DUP2 MSTORE PUSH1 0x20 ADD PUSH2 0x2C44 PUSH2 0x5573 PUSH8 0xDE0B6B3A7640000 PUSH2 0x5134 JUMP JUMPDEST DUP2 MSTORE PUSH1 0x20 ADD PUSH2 0x2C5E PUSH3 0x155CC PUSH8 0xDE0B6B3A7640000 PUSH2 0x5134 JUMP JUMPDEST DUP2 MSTORE PUSH1 0x20 ADD PUSH2 0x2C78 PUSH3 0x155CC PUSH8 0xDE0B6B3A7640000 PUSH2 0x5134 JUMP JUMPDEST DUP2 MSTORE PUSH1 0x20 ADD PUSH2 0x2C92 PUSH3 0x155CC PUSH8 0xDE0B6B3A7640000 PUSH2 0x5134 JUMP JUMPDEST DUP2 MSTORE PUSH1 0x20 ADD PUSH2 0x2CAC PUSH3 0x155CC PUSH8 0xDE0B6B3A7640000 PUSH2 0x5134 JUMP JUMPDEST DUP2 MSTORE PUSH1 0x20 ADD PUSH2 0x2CC6 PUSH3 0x155CC PUSH8 0xDE0B6B3A7640000 PUSH2 0x5134 JUMP JUMPDEST DUP2 MSTORE PUSH1 0x20 ADD PUSH2 0x2CE0 PUSH3 0x155CC PUSH8 0xDE0B6B3A7640000 PUSH2 0x5134 JUMP JUMPDEST DUP2 MSTORE PUSH1 0x20 ADD PUSH2 0x2CFA PUSH3 0x155CC PUSH8 0xDE0B6B3A7640000 PUSH2 0x5134 JUMP JUMPDEST DUP2 MSTORE PUSH1 0x20 ADD PUSH2 0x2D14 PUSH3 0x155CC PUSH8 0xDE0B6B3A7640000 PUSH2 0x5134 JUMP JUMPDEST DUP2 MSTORE PUSH1 0x20 ADD PUSH2 0x2D2E PUSH3 0x155CC PUSH8 0xDE0B6B3A7640000 PUSH2 0x5134 JUMP JUMPDEST DUP2 MSTORE PUSH1 0x20 ADD PUSH2 0x2D48 PUSH3 0x155CC PUSH8 0xDE0B6B3A7640000 PUSH2 0x5134 JUMP JUMPDEST DUP2 MSTORE PUSH1 0x20 ADD PUSH2 0x2D62 PUSH3 0x155CC PUSH8 0xDE0B6B3A7640000 PUSH2 0x5134 JUMP JUMPDEST DUP2 MSTORE PUSH1 0x20 ADD PUSH2 0x2D7C PUSH3 0x155CC PUSH8 0xDE0B6B3A7640000 PUSH2 0x5134 JUMP JUMPDEST DUP2 MSTORE PUSH1 0x20 ADD PUSH2 0x2D96 PUSH3 0x155CC PUSH8 0xDE0B6B3A7640000 PUSH2 0x5134 JUMP JUMPDEST DUP2 MSTORE PUSH1 0x20 ADD PUSH2 0x2DB0 PUSH3 0x155CC PUSH8 0xDE0B6B3A7640000 PUSH2 0x5134 JUMP JUMPDEST DUP2 MSTORE PUSH1 0x20 ADD PUSH2 0x2DCA PUSH3 0x155CC PUSH8 0xDE0B6B3A7640000 PUSH2 0x5134 JUMP JUMPDEST DUP2 MSTORE PUSH1 0x20 ADD PUSH2 0x2DE4 PUSH3 0x155CC PUSH8 0xDE0B6B3A7640000 PUSH2 0x5134 JUMP JUMPDEST DUP2 MSTORE PUSH1 0x20 ADD PUSH2 0x2DFE PUSH3 0x155CC PUSH8 0xDE0B6B3A7640000 PUSH2 0x5134 JUMP JUMPDEST DUP2 MSTORE PUSH1 0x20 ADD PUSH2 0x2E18 PUSH3 0x155CC PUSH8 0xDE0B6B3A7640000 PUSH2 0x5134 JUMP JUMPDEST DUP2 MSTORE PUSH1 0x20 ADD PUSH2 0x2E32 PUSH3 0x155CC PUSH8 0xDE0B6B3A7640000 PUSH2 0x5134 JUMP JUMPDEST DUP2 MSTORE PUSH1 0x20 ADD PUSH2 0x2E4C PUSH3 0x155CC PUSH8 0xDE0B6B3A7640000 PUSH2 0x5134 JUMP JUMPDEST DUP2 MSTORE PUSH1 0x20 ADD PUSH2 0x2E66 PUSH3 0x155CC PUSH8 0xDE0B6B3A7640000 PUSH2 0x5134 JUMP JUMPDEST DUP2 MSTORE PUSH1 0x20 ADD PUSH2 0x2E80 PUSH3 0x155CC PUSH8 0xDE0B6B3A7640000 PUSH2 0x5134 JUMP JUMPDEST DUP2 MSTORE PUSH1 0x20 ADD PUSH2 0x2E9A PUSH3 0x155CC PUSH8 0xDE0B6B3A7640000 PUSH2 0x5134 JUMP JUMPDEST DUP2 MSTORE PUSH1 0x20 ADD PUSH2 0x2EB4 PUSH3 0x155CC PUSH8 0xDE0B6B3A7640000 PUSH2 0x5134 JUMP JUMPDEST DUP2 MSTORE PUSH1 0x20 ADD PUSH2 0x2ECE PUSH3 0x155CC PUSH8 0xDE0B6B3A7640000 PUSH2 0x5134 JUMP JUMPDEST DUP2 MSTORE PUSH1 0x20 ADD PUSH2 0x2EE8 PUSH3 0x155CC PUSH8 0xDE0B6B3A7640000 PUSH2 0x5134 JUMP JUMPDEST DUP2 MSTORE PUSH1 0x20 ADD PUSH2 0x2F02 PUSH3 0x155CC PUSH8 0xDE0B6B3A7640000 PUSH2 0x5134 JUMP JUMPDEST DUP2 MSTORE PUSH1 0x20 ADD PUSH2 0x2F1C PUSH3 0x155CC PUSH8 0xDE0B6B3A7640000 PUSH2 0x5134 JUMP JUMPDEST DUP2 MSTORE PUSH1 0x20 ADD PUSH2 0x2F36 PUSH3 0x155CC PUSH8 0xDE0B6B3A7640000 PUSH2 0x5134 JUMP JUMPDEST DUP2 MSTORE PUSH1 0x20 ADD PUSH2 0x2F50 PUSH3 0x155CC PUSH8 0xDE0B6B3A7640000 PUSH2 0x5134 JUMP JUMPDEST DUP2 MSTORE PUSH1 0x20 ADD PUSH2 0x2F6A PUSH3 0x155CC PUSH8 0xDE0B6B3A7640000 PUSH2 0x5134 JUMP JUMPDEST DUP2 MSTORE PUSH1 0x20 ADD PUSH2 0x2F84 PUSH3 0x155CC PUSH8 0xDE0B6B3A7640000 PUSH2 0x5134 JUMP JUMPDEST DUP2 MSTORE PUSH1 0x20 ADD PUSH2 0x2F9E PUSH3 0x155CC PUSH8 0xDE0B6B3A7640000 PUSH2 0x5134 JUMP JUMPDEST DUP2 MSTORE PUSH1 0x20 ADD PUSH2 0x2FB8 PUSH3 0x155CC PUSH8 0xDE0B6B3A7640000 PUSH2 0x5134 JUMP JUMPDEST DUP2 MSTORE PUSH1 0x20 ADD PUSH2 0x2FD2 PUSH3 0x155CC PUSH8 0xDE0B6B3A7640000 PUSH2 0x5134 JUMP JUMPDEST DUP2 MSTORE PUSH1 0x20 ADD PUSH1 0x0 DUP2 MSTORE PUSH1 0x20 ADD PUSH1 0x0 DUP2 MSTORE PUSH1 0x20 ADD PUSH1 0x0 DUP2 MSTORE PUSH1 0x20 ADD PUSH1 0x0 DUP2 MSTORE POP SWAP1 POP SWAP1 JUMP JUMPDEST PUSH1 0x0 PUSH2 0x3002 DUP5 DUP5 PUSH2 0x240B JUMP JUMPDEST SWAP1 POP PUSH1 0x0 NOT DUP2 EQ PUSH2 0x306A JUMPI DUP2 DUP2 LT ISZERO PUSH2 0x305D JUMPI PUSH1 0x40 MLOAD PUSH3 0x461BCD PUSH1 0xE5 SHL DUP2 MSTORE PUSH1 0x20 PUSH1 0x4 DUP3 ADD MSTORE PUSH1 0x1D PUSH1 0x24 DUP3 ADD MSTORE PUSH32 0x45524332303A20696E73756666696369656E7420616C6C6F77616E6365000000 PUSH1 0x44 DUP3 ADD MSTORE PUSH1 0x64 ADD PUSH2 0xC53 JUMP JUMPDEST PUSH2 0x306A DUP5 DUP5 DUP5 DUP5 SUB PUSH2 0x2974 JUMP JUMPDEST POP POP POP POP JUMP JUMPDEST PUSH1 0x1 PUSH1 0x1 PUSH1 0xA0 SHL SUB DUP4 AND PUSH2 0x30BA JUMPI PUSH1 0x40 MLOAD PUSH3 0x461BCD PUSH1 0xE5 SHL DUP2 MSTORE PUSH1 0x20 PUSH1 0x4 DUP3 ADD MSTORE PUSH1 0x11 PUSH1 0x24 DUP3 ADD MSTORE PUSH17 0x66726F6D207A65726F2061646472657373 PUSH1 0x78 SHL PUSH1 0x44 DUP3 ADD MSTORE PUSH1 0x64 ADD PUSH2 0xC53 JUMP JUMPDEST PUSH1 0x1 PUSH1 0x1 PUSH1 0xA0 SHL SUB DUP3 AND PUSH2 0x3102 JUMPI PUSH1 0x40 MLOAD PUSH3 0x461BCD PUSH1 0xE5 SHL DUP2 MSTORE PUSH1 0x20 PUSH1 0x4 DUP3 ADD MSTORE PUSH1 0xF PUSH1 0x24 DUP3 ADD MSTORE PUSH15 0x746F207A65726F2061646472657373 PUSH1 0x88 SHL PUSH1 0x44 DUP3 ADD MSTORE PUSH1 0x64 ADD PUSH2 0xC53 JUMP JUMPDEST PUSH1 0x1 PUSH1 0x1 PUSH1 0xA0 SHL SUB DUP4 AND PUSH1 0x0 SWAP1 DUP2 MSTORE PUSH1 0xE PUSH1 0x20 MSTORE PUSH1 0x40 SWAP1 KECCAK256 SLOAD DUP2 DUP2 LT ISZERO PUSH2 0x316B JUMPI PUSH1 0x40 MLOAD PUSH3 0x461BCD PUSH1 0xE5 SHL DUP2 MSTORE PUSH1 0x20 PUSH1 0x4 DUP3 ADD MSTORE PUSH1 0x1F PUSH1 0x24 DUP3 ADD MSTORE PUSH32 0x7472616E7366657220616D6F756E7420657863656564732062616C616E636500 PUSH1 0x44 DUP3 ADD MSTORE PUSH1 0x64 ADD PUSH2 0xC53 JUMP JUMPDEST PUSH1 0x15 SLOAD PUSH1 0x0 SWAP1 PUSH2 0x3192 SWAP1 PUSH2 0x318B SWAP1 DUP6 SWAP1 PUSH4 0x1000000 SWAP1 DIV PUSH2 0xFFFF AND PUSH2 0x5134 JUMP JUMPDEST PUSH1 0x64 PUSH2 0x2955 JUMP JUMPDEST SWAP1 POP PUSH1 0x0 PUSH2 0x31A0 DUP5 DUP4 PUSH2 0x2A99 JUMP JUMPDEST SWAP1 POP PUSH1 0x0 PUSH2 0x31C3 PUSH2 0x31BC DUP4 PUSH2 0x31B7 PUSH1 0x2 PUSH1 0xA PUSH2 0x2955 JUMP JUMPDEST PUSH2 0x5134 JUMP JUMPDEST PUSH1 0x3 PUSH2 0x2955 JUMP JUMPDEST SWAP1 POP PUSH1 0x0 PUSH2 0x31D7 DUP4 PUSH2 0x31B7 PUSH1 0x8 PUSH1 0xA PUSH2 0x2955 JUMP JUMPDEST PUSH1 0x1D SLOAD PUSH1 0x1 PUSH1 0x1 PUSH1 0xA0 SHL SUB AND PUSH1 0x0 SWAP1 DUP2 MSTORE PUSH1 0xE PUSH1 0x20 MSTORE PUSH1 0x40 SWAP1 KECCAK256 SLOAD SWAP1 SWAP2 POP PUSH2 0x31FF SWAP1 DUP4 PUSH2 0x2968 JUMP JUMPDEST PUSH1 0x1D SLOAD PUSH1 0x1 PUSH1 0x1 PUSH1 0xA0 SHL SUB SWAP1 DUP2 AND PUSH1 0x0 SWAP1 DUP2 MSTORE PUSH1 0xE PUSH1 0x20 MSTORE PUSH1 0x40 DUP1 DUP3 KECCAK256 SWAP4 SWAP1 SWAP4 SSTORE PUSH1 0x1E SLOAD SWAP1 SWAP2 AND DUP2 MSTORE KECCAK256 SLOAD PUSH2 0x3234 SWAP1 DUP4 PUSH2 0x2968 JUMP JUMPDEST PUSH1 0x1E SLOAD PUSH1 0x1 PUSH1 0x1 PUSH1 0xA0 SHL SUB SWAP1 DUP2 AND PUSH1 0x0 SWAP1 DUP2 MSTORE PUSH1 0xE PUSH1 0x20 MSTORE PUSH1 0x40 DUP1 DUP3 KECCAK256 SWAP4 SWAP1 SWAP4 SSTORE PUSH1 0x1F SLOAD SWAP1 SWAP2 AND DUP2 MSTORE KECCAK256 SLOAD PUSH2 0x3269 SWAP1 DUP4 PUSH2 0x2968 JUMP JUMPDEST PUSH1 0x1F SLOAD PUSH1 0x1 PUSH1 0x1 PUSH1 0xA0 SHL SUB AND PUSH1 0x0 SWAP1 DUP2 MSTORE PUSH1 0xE PUSH1 0x20 MSTORE PUSH1 0x40 DUP1 DUP3 KECCAK256 SWAP3 SWAP1 SWAP3 SSTORE ADDRESS DUP2 MSTORE KECCAK256 SLOAD PUSH2 0x3297 SWAP1 DUP3 PUSH2 0x2968 JUMP JUMPDEST ADDRESS PUSH1 0x0 SWAP1 DUP2 MSTORE PUSH1 0xE PUSH1 0x20 DUP2 DUP2 MSTORE PUSH1 0x40 DUP1 DUP5 KECCAK256 SWAP5 SWAP1 SWAP5 SSTORE DUP4 MLOAD DUP1 DUP6 ADD DUP6 MSTORE PUSH1 0x18 DUP2 MSTORE PUSH32 0x7472616E7366657220657863656564732062616C616E63650000000000000000 DUP2 DUP4 ADD MSTORE PUSH1 0x1 PUSH1 0x1 PUSH1 0xA0 SHL SUB DUP14 AND DUP5 MSTORE SWAP2 SWAP1 MSTORE SWAP2 SWAP1 KECCAK256 SLOAD PUSH2 0x32FB SWAP2 DUP9 SWAP1 PUSH2 0x2929 JUMP JUMPDEST PUSH1 0x1 PUSH1 0x1 PUSH1 0xA0 SHL SUB DUP1 DUP11 AND PUSH1 0x0 SWAP1 DUP2 MSTORE PUSH1 0xE PUSH1 0x20 MSTORE PUSH1 0x40 DUP1 DUP3 KECCAK256 SWAP4 SWAP1 SWAP4 SSTORE SWAP1 DUP10 AND DUP2 MSTORE KECCAK256 SLOAD PUSH2 0x332A SWAP1 DUP5 PUSH2 0x2968 JUMP JUMPDEST PUSH1 0x1 PUSH1 0x1 PUSH1 0xA0 SHL SUB DUP1 DUP10 AND PUSH1 0x0 DUP2 DUP2 MSTORE PUSH1 0xE PUSH1 0x20 MSTORE PUSH1 0x40 SWAP1 DUP2 SWAP1 KECCAK256 SWAP4 SWAP1 SWAP4 SSTORE SWAP2 MLOAD SWAP1 DUP11 AND SWAP1 PUSH1 0x0 DUP1 MLOAD PUSH1 0x20 PUSH2 0x5AAE DUP4 CODECOPY DUP2 MLOAD SWAP2 MSTORE SWAP1 PUSH2 0x336C SWAP1 DUP8 DUP2 MSTORE PUSH1 0x20 ADD SWAP1 JUMP JUMPDEST PUSH1 0x40 MLOAD DUP1 SWAP2 SUB SWAP1 LOG3 POP POP POP POP POP POP POP POP JUMP JUMPDEST PUSH2 0x3386 PUSH2 0x558A JUMP JUMPDEST PUSH1 0x40 MLOAD DUP1 PUSH2 0x6E0 ADD PUSH1 0x40 MSTORE DUP1 PUSH2 0x33A7 PUSH3 0x19A28 PUSH8 0xDE0B6B3A7640000 PUSH2 0x5134 JUMP JUMPDEST DUP2 MSTORE PUSH1 0x20 ADD PUSH1 0x0 DUP2 MSTORE PUSH1 0x20 ADD PUSH1 0x0 DUP2 MSTORE PUSH1 0x20 ADD PUSH1 0x0 DUP2 MSTORE PUSH1 0x20 ADD PUSH2 0x33D6 PUSH3 0x4CE78 PUSH8 0xDE0B6B3A7640000 PUSH2 0x5134 JUMP JUMPDEST DUP2 MSTORE PUSH1 0x20 ADD PUSH1 0x0 DUP2 MSTORE PUSH1 0x20 ADD PUSH1 0x0 DUP2 MSTORE PUSH1 0x20 ADD PUSH1 0x0 DUP2 MSTORE PUSH1 0x20 ADD PUSH2 0x3405 PUSH3 0x4CE78 PUSH8 0xDE0B6B3A7640000 PUSH2 0x5134 JUMP JUMPDEST DUP2 MSTORE PUSH1 0x20 ADD PUSH1 0x0 DUP2 MSTORE PUSH1 0x20 ADD PUSH1 0x0 DUP2 MSTORE PUSH1 0x20 ADD PUSH1 0x0 DUP2 MSTORE PUSH1 0x20 ADD PUSH2 0x3434 PUSH3 0x4CE78 PUSH8 0xDE0B6B3A7640000 PUSH2 0x5134 JUMP JUMPDEST DUP2 MSTORE PUSH1 0x20 ADD PUSH1 0x0 DUP2 MSTORE PUSH1 0x20 ADD PUSH1 0x0 DUP2 MSTORE PUSH1 0x20 ADD PUSH1 0x0 DUP2 MSTORE PUSH1 0x20 ADD PUSH2 0x3463 PUSH3 0x40164 PUSH8 0xDE0B6B3A7640000 PUSH2 0x5134 JUMP JUMPDEST DUP2 MSTORE PUSH1 0x20 ADD PUSH2 0x347D PUSH3 0x40164 PUSH8 0xDE0B6B3A7640000 PUSH2 0x5134 JUMP JUMPDEST DUP2 MSTORE PUSH1 0x20 ADD PUSH2 0x3497 PUSH3 0x40164 PUSH8 0xDE0B6B3A7640000 PUSH2 0x5134 JUMP JUMPDEST DUP2 MSTORE PUSH1 0x20 ADD PUSH2 0x34B1 PUSH3 0x40164 PUSH8 0xDE0B6B3A7640000 PUSH2 0x5134 JUMP JUMPDEST DUP2 MSTORE PUSH1 0x20 ADD PUSH2 0x34CB PUSH3 0x40164 PUSH8 0xDE0B6B3A7640000 PUSH2 0x5134 JUMP JUMPDEST DUP2 MSTORE PUSH1 0x20 ADD PUSH2 0x34E5 PUSH3 0x40164 PUSH8 0xDE0B6B3A7640000 PUSH2 0x5134 JUMP JUMPDEST DUP2 MSTORE PUSH1 0x20 ADD PUSH2 0x34FF PUSH3 0x40164 PUSH8 0xDE0B6B3A7640000 PUSH2 0x5134 JUMP JUMPDEST DUP2 MSTORE PUSH1 0x20 ADD PUSH2 0x3519 PUSH3 0x40164 PUSH8 0xDE0B6B3A7640000 PUSH2 0x5134 JUMP JUMPDEST DUP2 MSTORE PUSH1 0x20 ADD PUSH2 0x3533 PUSH3 0x40164 PUSH8 0xDE0B6B3A7640000 PUSH2 0x5134 JUMP JUMPDEST DUP2 MSTORE PUSH1 0x20 ADD PUSH2 0x354D PUSH3 0x40164 PUSH8 0xDE0B6B3A7640000 PUSH2 0x5134 JUMP JUMPDEST DUP2 MSTORE PUSH1 0x20 ADD PUSH2 0x3567 PUSH3 0x40164 PUSH8 0xDE0B6B3A7640000 PUSH2 0x5134 JUMP JUMPDEST DUP2 MSTORE PUSH1 0x20 ADD PUSH2 0x3581 PUSH3 0x40164 PUSH8 0xDE0B6B3A7640000 PUSH2 0x5134 JUMP JUMPDEST DUP2 MSTORE PUSH1 0x20 ADD PUSH2 0x359B PUSH3 0x40164 PUSH8 0xDE0B6B3A7640000 PUSH2 0x5134 JUMP JUMPDEST DUP2 MSTORE PUSH1 0x20 ADD PUSH2 0x35B5 PUSH3 0x40164 PUSH8 0xDE0B6B3A7640000 PUSH2 0x5134 JUMP JUMPDEST DUP2 MSTORE PUSH1 0x20 ADD PUSH2 0x35CF PUSH3 0x40164 PUSH8 0xDE0B6B3A7640000 PUSH2 0x5134 JUMP JUMPDEST DUP2 MSTORE PUSH1 0x20 ADD PUSH2 0x35E9 PUSH3 0x40164 PUSH8 0xDE0B6B3A7640000 PUSH2 0x5134 JUMP JUMPDEST DUP2 MSTORE PUSH1 0x20 ADD PUSH2 0x3603 PUSH3 0x40164 PUSH8 0xDE0B6B3A7640000 PUSH2 0x5134 JUMP JUMPDEST DUP2 MSTORE PUSH1 0x20 ADD PUSH2 0x361D PUSH3 0x40164 PUSH8 0xDE0B6B3A7640000 PUSH2 0x5134 JUMP JUMPDEST DUP2 MSTORE PUSH1 0x20 ADD PUSH2 0x3637 PUSH3 0x40164 PUSH8 0xDE0B6B3A7640000 PUSH2 0x5134 JUMP JUMPDEST DUP2 MSTORE PUSH1 0x20 ADD PUSH2 0x3651 PUSH3 0x40164 PUSH8 0xDE0B6B3A7640000 PUSH2 0x5134 JUMP JUMPDEST DUP2 MSTORE PUSH1 0x20 ADD PUSH2 0x366B PUSH3 0x40164 PUSH8 0xDE0B6B3A7640000 PUSH2 0x5134 JUMP JUMPDEST DUP2 MSTORE PUSH1 0x20 ADD PUSH2 0x3685 PUSH3 0x40164 PUSH8 0xDE0B6B3A7640000 PUSH2 0x5134 JUMP JUMPDEST DUP2 MSTORE PUSH1 0x20 ADD PUSH2 0x369F PUSH3 0x40164 PUSH8 0xDE0B6B3A7640000 PUSH2 0x5134 JUMP JUMPDEST DUP2 MSTORE PUSH1 0x20 ADD PUSH2 0x36B9 PUSH3 0x40164 PUSH8 0xDE0B6B3A7640000 PUSH2 0x5134 JUMP JUMPDEST DUP2 MSTORE PUSH1 0x20 ADD PUSH2 0x36D3 PUSH3 0x40164 PUSH8 0xDE0B6B3A7640000 PUSH2 0x5134 JUMP JUMPDEST DUP2 MSTORE PUSH1 0x20 ADD PUSH2 0x36ED PUSH3 0x40164 PUSH8 0xDE0B6B3A7640000 PUSH2 0x5134 JUMP JUMPDEST DUP2 MSTORE PUSH1 0x20 ADD PUSH2 0x3707 PUSH3 0x40164 PUSH8 0xDE0B6B3A7640000 PUSH2 0x5134 JUMP JUMPDEST DUP2 MSTORE PUSH1 0x20 ADD PUSH2 0x3721 PUSH3 0x40164 PUSH8 0xDE0B6B3A7640000 PUSH2 0x5134 JUMP JUMPDEST DUP2 MSTORE PUSH1 0x20 ADD PUSH2 0x373B PUSH3 0x40164 PUSH8 0xDE0B6B3A7640000 PUSH2 0x5134 JUMP JUMPDEST DUP2 MSTORE PUSH1 0x20 ADD PUSH2 0x3755 PUSH3 0x40164 PUSH8 0xDE0B6B3A7640000 PUSH2 0x5134 JUMP JUMPDEST DUP2 MSTORE PUSH1 0x20 ADD PUSH2 0x376F PUSH3 0x40164 PUSH8 0xDE0B6B3A7640000 PUSH2 0x5134 JUMP JUMPDEST DUP2 MSTORE PUSH1 0x20 ADD PUSH2 0x3789 PUSH3 0x40164 PUSH8 0xDE0B6B3A7640000 PUSH2 0x5134 JUMP JUMPDEST DUP2 MSTORE PUSH1 0x20 ADD PUSH2 0x37A3 PUSH3 0x40164 PUSH8 0xDE0B6B3A7640000 PUSH2 0x5134 JUMP JUMPDEST DUP2 MSTORE PUSH1 0x20 ADD PUSH2 0x37BD PUSH3 0x40164 PUSH8 0xDE0B6B3A7640000 PUSH2 0x5134 JUMP JUMPDEST DUP2 MSTORE PUSH1 0x20 ADD PUSH2 0x2FD2 PUSH3 0x40164 PUSH8 0xDE0B6B3A7640000 PUSH2 0x5134 JUMP JUMPDEST PUSH1 0x1 PUSH1 0x1 PUSH1 0xA0 SHL SUB DUP3 AND PUSH2 0x382D JUMPI PUSH1 0x40 MLOAD PUSH3 0x461BCD PUSH1 0xE5 SHL DUP2 MSTORE PUSH1 0x20 PUSH1 0x4 DUP3 ADD MSTORE PUSH1 0x1F PUSH1 0x24 DUP3 ADD MSTORE PUSH32 0x45524332303A206D696E7420746F20746865207A65726F206164647265737300 PUSH1 0x44 DUP3 ADD MSTORE PUSH1 0x64 ADD PUSH2 0xC53 JUMP JUMPDEST DUP1 PUSH1 0x2 PUSH1 0x0 DUP3 DUP3 SLOAD PUSH2 0x383F SWAP2 SWAP1 PUSH2 0x5947 JUMP JUMPDEST SWAP1 SWAP2 SSTORE POP POP PUSH1 0x1 PUSH1 0x1 PUSH1 0xA0 SHL SUB DUP3 AND PUSH1 0x0 SWAP1 DUP2 MSTORE PUSH1 0x20 DUP2 SWAP1 MSTORE PUSH1 0x40 DUP2 KECCAK256 DUP1 SLOAD DUP4 SWAP3 SWAP1 PUSH2 0x386C SWAP1 DUP5 SWAP1 PUSH2 0x5947 JUMP JUMPDEST SWAP1 SWAP2 SSTORE POP POP PUSH1 0x40 MLOAD DUP2 DUP2 MSTORE PUSH1 0x1 PUSH1 0x1 PUSH1 0xA0 SHL SUB DUP4 AND SWAP1 PUSH1 0x0 SWAP1 PUSH1 0x0 DUP1 MLOAD PUSH1 0x20 PUSH2 0x5AAE DUP4 CODECOPY DUP2 MLOAD SWAP2 MSTORE SWAP1 PUSH1 0x20 ADD PUSH1 0x40 MLOAD DUP1 SWAP2 SUB SWAP1 LOG3 POP POP JUMP JUMPDEST PUSH1 0x1 PUSH1 0x1 PUSH1 0xA0 SHL SUB DUP3 AND PUSH2 0x3904 JUMPI PUSH1 0x40 MLOAD PUSH3 0x461BCD PUSH1 0xE5 SHL DUP2 MSTORE PUSH1 0x20 PUSH1 0x4 DUP3 ADD MSTORE PUSH1 0x21 PUSH1 0x24 DUP3 ADD MSTORE PUSH32 0x45524332303A206275726E2066726F6D20746865207A65726F20616464726573 PUSH1 0x44 DUP3 ADD MSTORE PUSH1 0x73 PUSH1 0xF8 SHL PUSH1 0x64 DUP3 ADD MSTORE PUSH1 0x84 ADD PUSH2 0xC53 JUMP JUMPDEST PUSH1 0x1 PUSH1 0x1 PUSH1 0xA0 SHL SUB DUP3 AND PUSH1 0x0 SWAP1 DUP2 MSTORE PUSH1 0xE PUSH1 0x20 MSTORE PUSH1 0x40 SWAP1 KECCAK256 SLOAD DUP2 DUP2 LT ISZERO PUSH2 0x3978 JUMPI PUSH1 0x40 MLOAD PUSH3 0x461BCD PUSH1 0xE5 SHL DUP2 MSTORE PUSH1 0x20 PUSH1 0x4 DUP3 ADD MSTORE PUSH1 0x22 PUSH1 0x24 DUP3 ADD MSTORE PUSH32 0x45524332303A206275726E20616D6F756E7420657863656564732062616C616E PUSH1 0x44 DUP3 ADD MSTORE PUSH2 0x6365 PUSH1 0xF0 SHL PUSH1 0x64 DUP3 ADD MSTORE PUSH1 0x84 ADD PUSH2 0xC53 JUMP JUMPDEST PUSH1 0x1 PUSH1 0x1 PUSH1 0xA0 SHL SUB DUP4 AND PUSH1 0x0 SWAP1 DUP2 MSTORE PUSH1 0xE PUSH1 0x20 MSTORE PUSH1 0x40 DUP2 KECCAK256 DUP4 DUP4 SUB SWAP1 SSTORE PUSH1 0x10 DUP1 SLOAD DUP5 SWAP3 SWAP1 PUSH2 0x39A7 SWAP1 DUP5 SWAP1 PUSH2 0x59FC JUMP JUMPDEST SWAP1 SWAP2 SSTORE POP POP PUSH1 0x40 MLOAD DUP3 DUP2 MSTORE PUSH1 0x0 SWAP1 PUSH1 0x1 PUSH1 0x1 PUSH1 0xA0 SHL SUB DUP6 AND SWAP1 PUSH1 0x0 DUP1 MLOAD PUSH1 0x20 PUSH2 0x5AAE DUP4 CODECOPY DUP2 MLOAD SWAP2 MSTORE SWAP1 PUSH1 0x20 ADD PUSH2 0x2A8C JUMP JUMPDEST PUSH1 0x1 PUSH1 0x1 PUSH1 0xA0 SHL SUB DUP2 AND PUSH1 0x0 SWAP1 DUP2 MSTORE PUSH1 0x9 PUSH1 0x20 MSTORE PUSH1 0x40 DUP2 KECCAK256 SLOAD PUSH1 0x8 DUP1 SLOAD DUP4 SWAP3 DUP4 SWAP3 SWAP2 DUP2 LT PUSH2 0x3A08 JUMPI PUSH2 0x3A08 PUSH2 0x595F JUMP JUMPDEST SWAP1 PUSH1 0x0 MSTORE PUSH1 0x20 PUSH1 0x0 KECCAK256 SWAP1 PUSH1 0x3 MUL ADD SWAP1 POP PUSH1 0x0 PUSH2 0x3A37 PUSH3 0x93A80 DUP4 PUSH1 0x1 ADD SLOAD TIMESTAMP PUSH2 0x3A31 SWAP2 SWAP1 PUSH2 0x59FC JUMP JUMPDEST SWAP1 PUSH2 0x2955 JUMP JUMPDEST SWAP1 POP PUSH1 0x1 DUP2 LT ISZERO PUSH2 0x3AB0 JUMPI PUSH1 0x40 MLOAD PUSH3 0x461BCD PUSH1 0xE5 SHL DUP2 MSTORE PUSH1 0x20 PUSH1 0x4 DUP3 ADD MSTORE PUSH1 0x39 PUSH1 0x24 DUP3 ADD MSTORE PUSH32 0x5374616B61626C653A2041697264726F702063616E206F6E6C7920626520636C PUSH1 0x44 DUP3 ADD MSTORE PUSH32 0x61696D656420696E2061206D6F6E74682074696D657370616E00000000000000 PUSH1 0x64 DUP3 ADD MSTORE PUSH1 0x84 ADD PUSH2 0xC53 JUMP JUMPDEST PUSH1 0x2 DUP3 ADD SLOAD PUSH2 0x3AD1 JUMPI PUSH1 0x40 MLOAD PUSH3 0x461BCD PUSH1 0xE5 SHL DUP2 MSTORE PUSH1 0x4 ADD PUSH2 0xC53 SWAP1 PUSH2 0x5975 JUMP JUMPDEST PUSH1 0x0 JUMPDEST PUSH1 0x2 DUP4 ADD SLOAD DUP2 LT ISZERO PUSH2 0x3BA2 JUMPI PUSH1 0x0 DUP4 PUSH1 0x2 ADD DUP3 DUP2 SLOAD DUP2 LT PUSH2 0x3AF7 JUMPI PUSH2 0x3AF7 PUSH2 0x595F JUMP JUMPDEST SWAP1 PUSH1 0x0 MSTORE PUSH1 0x20 PUSH1 0x0 KECCAK256 SWAP1 PUSH1 0x7 MUL ADD PUSH1 0x1 ADD SLOAD GT PUSH2 0x3B13 JUMPI PUSH2 0x3B90 JUMP JUMPDEST PUSH1 0x0 PUSH1 0x64 PUSH1 0x7 SLOAD DUP6 PUSH1 0x2 ADD DUP5 DUP2 SLOAD DUP2 LT PUSH2 0x3B2F JUMPI PUSH2 0x3B2F PUSH2 0x595F JUMP JUMPDEST SWAP1 PUSH1 0x0 MSTORE PUSH1 0x20 PUSH1 0x0 KECCAK256 SWAP1 PUSH1 0x7 MUL ADD PUSH1 0x1 ADD SLOAD PUSH2 0x3B4B SWAP2 SWAP1 PUSH2 0x5A13 JUMP JUMPDEST PUSH2 0x3B55 SWAP2 SWAP1 PUSH2 0x59DA JUMP JUMPDEST SWAP1 POP PUSH2 0x3B61 DUP2 DUP7 PUSH2 0x5947 JUMP JUMPDEST SWAP5 POP DUP1 DUP5 PUSH1 0x2 ADD DUP4 DUP2 SLOAD DUP2 LT PUSH2 0x3B79 JUMPI PUSH2 0x3B79 PUSH2 0x595F JUMP JUMPDEST SWAP1 PUSH1 0x0 MSTORE PUSH1 0x20 PUSH1 0x0 KECCAK256 SWAP1 PUSH1 0x7 MUL ADD PUSH1 0x4 ADD DUP2 SWAP1 SSTORE POP POP JUMPDEST DUP1 PUSH2 0x3B9A DUP2 PUSH2 0x5A32 JUMP JUMPDEST SWAP2 POP POP PUSH2 0x3AD4 JUMP JUMPDEST POP POP TIMESTAMP PUSH1 0x1 SWAP1 SWAP2 ADD SSTORE SWAP3 SWAP2 POP POP JUMP JUMPDEST PUSH1 0x5 DUP1 SLOAD PUSH1 0x1 PUSH1 0x1 PUSH1 0xA0 SHL SUB DUP4 DUP2 AND PUSH1 0x1 PUSH1 0x1 PUSH1 0xA0 SHL SUB NOT DUP4 AND DUP2 OR SWAP1 SWAP4 SSTORE PUSH1 0x40 MLOAD SWAP2 AND SWAP2 SWAP1 DUP3 SWAP1 PUSH32 0x8BE0079C531659141344CD1FD0A4F28419497F9722A3DAAFE3B4186F6B6457E0 SWAP1 PUSH1 0x0 SWAP1 LOG3 POP POP JUMP JUMPDEST PUSH1 0x0 DUP4 GT PUSH2 0x3C53 JUMPI PUSH1 0x40 MLOAD PUSH3 0x461BCD PUSH1 0xE5 SHL DUP2 MSTORE PUSH1 0x20 PUSH1 0x4 DUP3 ADD MSTORE PUSH1 0x1E PUSH1 0x24 DUP3 ADD MSTORE PUSH32 0x5374616B61626C653A2043616E6E6F74207374616B65206E6F7468696E670000 PUSH1 0x44 DUP3 ADD MSTORE PUSH1 0x64 ADD PUSH2 0xC53 JUMP JUMPDEST CALLER PUSH1 0x0 SWAP1 DUP2 MSTORE PUSH1 0x9 PUSH1 0x20 MSTORE PUSH1 0x40 SWAP1 KECCAK256 SLOAD TIMESTAMP DUP2 PUSH2 0x3C75 JUMPI PUSH2 0x3C72 CALLER PUSH2 0x5140 JUMP JUMPDEST SWAP2 POP JUMPDEST PUSH1 0x8 DUP3 DUP2 SLOAD DUP2 LT PUSH2 0x3C88 JUMPI PUSH2 0x3C88 PUSH2 0x595F JUMP JUMPDEST SWAP1 PUSH1 0x0 MSTORE PUSH1 0x20 PUSH1 0x0 KECCAK256 SWAP1 PUSH1 0x3 MUL ADD PUSH1 0x2 ADD PUSH1 0x40 MLOAD DUP1 PUSH1 0xE0 ADD PUSH1 0x40 MSTORE DUP1 CALLER PUSH1 0x1 PUSH1 0x1 PUSH1 0xA0 SHL SUB AND DUP2 MSTORE PUSH1 0x20 ADD DUP8 DUP2 MSTORE PUSH1 0x20 ADD DUP4 DUP2 MSTORE PUSH1 0x20 ADD PUSH1 0x0 DUP2 MSTORE PUSH1 0x20 ADD PUSH1 0x0 DUP2 MSTORE PUSH1 0x20 ADD DUP6 DUP2 MSTORE PUSH1 0x20 ADD DUP4 DUP8 PUSH2 0x3CDF SWAP2 SWAP1 PUSH2 0x5947 JUMP JUMPDEST SWAP1 MSTORE DUP2 SLOAD PUSH1 0x1 DUP1 DUP3 ADD DUP5 SSTORE PUSH1 0x0 SWAP4 DUP5 MSTORE PUSH1 0x20 SWAP4 DUP5 SWAP1 KECCAK256 DUP4 MLOAD PUSH1 0x7 SWAP1 SWAP4 MUL ADD DUP1 SLOAD PUSH1 0x1 PUSH1 0x1 PUSH1 0xA0 SHL SUB NOT AND PUSH1 0x1 PUSH1 0x1 PUSH1 0xA0 SHL SUB SWAP1 SWAP4 AND SWAP3 SWAP1 SWAP3 OR DUP3 SSTORE SWAP3 DUP3 ADD MLOAD SWAP3 DUP2 ADD SWAP3 SWAP1 SWAP3 SSTORE PUSH1 0x40 DUP2 ADD MLOAD PUSH1 0x2 DUP4 ADD SSTORE PUSH1 0x60 DUP2 ADD MLOAD PUSH1 0x3 DUP4 ADD SSTORE PUSH1 0x80 DUP2 ADD MLOAD PUSH1 0x4 DUP4 ADD SSTORE PUSH1 0xA0 DUP2 ADD MLOAD PUSH1 0x5 DUP4 ADD SSTORE PUSH1 0xC0 ADD MLOAD PUSH1 0x6 SWAP1 SWAP2 ADD SSTORE CALLER PUSH32 0x9CFD25589D1EB8AD71E342A86A8524E83522E3936C0803048C08F6D9AD974F40 DUP7 DUP5 DUP5 PUSH2 0x3D86 DUP2 DUP11 PUSH2 0x5947 JUMP JUMPDEST PUSH1 0x40 DUP1 MLOAD SWAP5 DUP6 MSTORE PUSH1 0x20 DUP6 ADD SWAP4 SWAP1 SWAP4 MSTORE SWAP2 DUP4 ADD MSTORE PUSH1 0x60 DUP3 ADD MSTORE PUSH1 0x80 ADD PUSH1 0x40 MLOAD DUP1 SWAP2 SUB SWAP1 LOG2 POP POP POP POP POP JUMP JUMPDEST PUSH1 0x1 PUSH1 0x1 PUSH1 0xA0 SHL SUB DUP2 AND PUSH1 0x0 SWAP1 DUP2 MSTORE PUSH1 0xD PUSH1 0x20 MSTORE PUSH1 0x40 DUP2 KECCAK256 PUSH1 0x1 ADD SLOAD PUSH2 0x3E18 JUMPI PUSH1 0x40 MLOAD PUSH3 0x461BCD PUSH1 0xE5 SHL DUP2 MSTORE PUSH1 0x20 PUSH1 0x4 DUP3 ADD MSTORE PUSH1 0x1B PUSH1 0x24 DUP3 ADD MSTORE PUSH32 0x5072697661746553616C653A206E6F20746F6B656E73206C6566740000000000 PUSH1 0x44 DUP3 ADD MSTORE PUSH1 0x64 ADD PUSH2 0xC53 JUMP JUMPDEST PUSH1 0x0 PUSH2 0x3E23 DUP4 PUSH2 0x51F2 JUMP JUMPDEST SWAP1 POP PUSH1 0x0 DUP2 GT PUSH2 0x3E7F JUMPI PUSH1 0x40 MLOAD PUSH3 0x461BCD PUSH1 0xE5 SHL DUP2 MSTORE PUSH1 0x20 PUSH1 0x4 DUP3 ADD MSTORE PUSH1 0x21 PUSH1 0x24 DUP3 ADD MSTORE PUSH32 0x5072697661746553616C653A206E6F20746F6B656E7320746F2072656C656173 PUSH1 0x44 DUP3 ADD MSTORE PUSH1 0x65 PUSH1 0xF8 SHL PUSH1 0x64 DUP3 ADD MSTORE PUSH1 0x84 ADD PUSH2 0xC53 JUMP JUMPDEST PUSH2 0x3ECA PUSH1 0xD PUSH1 0x0 DUP6 PUSH1 0x1 PUSH1 0x1 PUSH1 0xA0 SHL SUB AND PUSH1 0x1 PUSH1 0x1 PUSH1 0xA0 SHL SUB AND DUP2 MSTORE PUSH1 0x20 ADD SWAP1 DUP2 MSTORE PUSH1 0x20 ADD PUSH1 0x0 KECCAK256 PUSH1 0x1 ADD SLOAD DUP3 PUSH1 0x40 MLOAD DUP1 PUSH1 0x60 ADD PUSH1 0x40 MSTORE DUP1 PUSH1 0x39 DUP2 MSTORE PUSH1 0x20 ADD PUSH2 0x5A75 PUSH1 0x39 SWAP2 CODECOPY PUSH2 0x2929 JUMP JUMPDEST PUSH1 0x1 PUSH1 0x1 PUSH1 0xA0 SHL SUB SWAP1 SWAP4 AND PUSH1 0x0 SWAP1 DUP2 MSTORE PUSH1 0xD PUSH1 0x20 MSTORE PUSH1 0x40 SWAP1 KECCAK256 PUSH1 0x1 ADD SWAP3 SWAP1 SWAP3 SSTORE POP SWAP1 JUMP JUMPDEST PUSH2 0x3EF6 PUSH2 0x558A JUMP JUMPDEST PUSH1 0x40 MLOAD DUP1 PUSH2 0x6E0 ADD PUSH1 0x40 MSTORE DUP1 PUSH1 0x0 DUP2 MSTORE PUSH1 0x20 ADD PUSH1 0x0 DUP2 MSTORE PUSH1 0x20 ADD PUSH1 0x0 DUP2 MSTORE PUSH1 0x20 ADD PUSH1 0x0 DUP2 MSTORE PUSH1 0x20 ADD PUSH1 0x0 DUP2 MSTORE PUSH1 0x20 ADD PUSH1 0x0 DUP2 MSTORE PUSH1 0x20 ADD PUSH1 0x0 DUP2 MSTORE PUSH1 0x20 ADD PUSH1 0x0 DUP2 MSTORE PUSH1 0x20 ADD PUSH2 0x3F4F PUSH3 0x25A3F PUSH8 0xDE0B6B3A7640000 PUSH2 0x5134 JUMP JUMPDEST DUP2 MSTORE PUSH1 0x20 ADD PUSH2 0x3F69 PUSH3 0x25A3F PUSH8 0xDE0B6B3A7640000 PUSH2 0x5134 JUMP JUMPDEST DUP2 MSTORE PUSH1 0x20 ADD PUSH2 0x3F83 PUSH3 0x25A3F PUSH8 0xDE0B6B3A7640000 PUSH2 0x5134 JUMP JUMPDEST DUP2 MSTORE PUSH1 0x20 ADD PUSH2 0x3F9D PUSH3 0x25A3F PUSH8 0xDE0B6B3A7640000 PUSH2 0x5134 JUMP JUMPDEST DUP2 MSTORE PUSH1 0x20 ADD PUSH2 0x3FB7 PUSH3 0x25A3F PUSH8 0xDE0B6B3A7640000 PUSH2 0x5134 JUMP JUMPDEST DUP2 MSTORE PUSH1 0x20 ADD PUSH2 0x3FD1 PUSH3 0x25A3F PUSH8 0xDE0B6B3A7640000 PUSH2 0x5134 JUMP JUMPDEST DUP2 MSTORE PUSH1 0x20 ADD PUSH2 0x3FEB PUSH3 0x25A3F PUSH8 0xDE0B6B3A7640000 PUSH2 0x5134 JUMP JUMPDEST DUP2 MSTORE PUSH1 0x20 ADD PUSH2 0x4005 PUSH3 0x25A3F PUSH8 0xDE0B6B3A7640000 PUSH2 0x5134 JUMP JUMPDEST DUP2 MSTORE PUSH1 0x20 ADD PUSH2 0x401F PUSH3 0x9EED1 PUSH8 0xDE0B6B3A7640000 PUSH2 0x5134 JUMP JUMPDEST DUP2 MSTORE PUSH1 0x20 ADD PUSH2 0x4039 PUSH3 0x9EED1 PUSH8 0xDE0B6B3A7640000 PUSH2 0x5134 JUMP JUMPDEST DUP2 MSTORE PUSH1 0x20 ADD PUSH2 0x4053 PUSH3 0x9EED1 PUSH8 0xDE0B6B3A7640000 PUSH2 0x5134 JUMP JUMPDEST DUP2 MSTORE PUSH1 0x20 ADD PUSH2 0x406D PUSH3 0x9EED1 PUSH8 0xDE0B6B3A7640000 PUSH2 0x5134 JUMP JUMPDEST DUP2 MSTORE PUSH1 0x20 ADD PUSH2 0x4087 PUSH3 0x9EED1 PUSH8 0xDE0B6B3A7640000 PUSH2 0x5134 JUMP JUMPDEST DUP2 MSTORE PUSH1 0x20 ADD PUSH2 0x40A1 PUSH3 0x9EED1 PUSH8 0xDE0B6B3A7640000 PUSH2 0x5134 JUMP JUMPDEST DUP2 MSTORE PUSH1 0x20 ADD PUSH2 0x40BB PUSH3 0x9EED1 PUSH8 0xDE0B6B3A7640000 PUSH2 0x5134 JUMP JUMPDEST DUP2 MSTORE PUSH1 0x20 ADD PUSH2 0x40D5 PUSH3 0x9EED1 PUSH8 0xDE0B6B3A7640000 PUSH2 0x5134 JUMP JUMPDEST DUP2 MSTORE PUSH1 0x20 ADD PUSH2 0x40EF PUSH3 0x9EED1 PUSH8 0xDE0B6B3A7640000 PUSH2 0x5134 JUMP JUMPDEST DUP2 MSTORE PUSH1 0x20 ADD PUSH2 0x4109 PUSH3 0x9EED1 PUSH8 0xDE0B6B3A7640000 PUSH2 0x5134 JUMP JUMPDEST DUP2 MSTORE PUSH1 0x20 ADD PUSH2 0x4123 PUSH3 0x9EED1 PUSH8 0xDE0B6B3A7640000 PUSH2 0x5134 JUMP JUMPDEST DUP2 MSTORE PUSH1 0x20 ADD PUSH2 0x413D PUSH3 0x9EED1 PUSH8 0xDE0B6B3A7640000 PUSH2 0x5134 JUMP JUMPDEST DUP2 MSTORE PUSH1 0x20 ADD PUSH2 0x4157 PUSH3 0x9EED1 PUSH8 0xDE0B6B3A7640000 PUSH2 0x5134 JUMP JUMPDEST DUP2 MSTORE PUSH1 0x20 ADD PUSH2 0x4171 PUSH3 0x9EED1 PUSH8 0xDE0B6B3A7640000 PUSH2 0x5134 JUMP JUMPDEST DUP2 MSTORE PUSH1 0x20 ADD PUSH2 0x418B PUSH3 0x9EED1 PUSH8 0xDE0B6B3A7640000 PUSH2 0x5134 JUMP JUMPDEST DUP2 MSTORE PUSH1 0x20 ADD PUSH2 0x41A5 PUSH3 0x9EED1 PUSH8 0xDE0B6B3A7640000 PUSH2 0x5134 JUMP JUMPDEST DUP2 MSTORE PUSH1 0x20 ADD PUSH2 0x41BF PUSH3 0x9EED1 PUSH8 0xDE0B6B3A7640000 PUSH2 0x5134 JUMP JUMPDEST DUP2 MSTORE PUSH1 0x20 ADD PUSH2 0x41D9 PUSH3 0x9EED1 PUSH8 0xDE0B6B3A7640000 PUSH2 0x5134 JUMP JUMPDEST DUP2 MSTORE PUSH1 0x20 ADD PUSH2 0x41F3 PUSH3 0x9EED1 PUSH8 0xDE0B6B3A7640000 PUSH2 0x5134 JUMP JUMPDEST DUP2 MSTORE PUSH1 0x20 ADD PUSH2 0x420D PUSH3 0x9EED1 PUSH8 0xDE0B6B3A7640000 PUSH2 0x5134 JUMP JUMPDEST DUP2 MSTORE PUSH1 0x20 ADD PUSH2 0x4227 PUSH3 0x9EED1 PUSH8 0xDE0B6B3A7640000 PUSH2 0x5134 JUMP JUMPDEST DUP2 MSTORE PUSH1 0x20 ADD PUSH2 0x4241 PUSH3 0x9EED1 PUSH8 0xDE0B6B3A7640000 PUSH2 0x5134 JUMP JUMPDEST DUP2 MSTORE PUSH1 0x20 ADD PUSH2 0x425B PUSH3 0x9EED1 PUSH8 0xDE0B6B3A7640000 PUSH2 0x5134 JUMP JUMPDEST DUP2 MSTORE PUSH1 0x20 ADD PUSH2 0x4275 PUSH3 0x9EED1 PUSH8 0xDE0B6B3A7640000 PUSH2 0x5134 JUMP JUMPDEST DUP2 MSTORE PUSH1 0x20 ADD PUSH2 0x428F PUSH3 0x9EED1 PUSH8 0xDE0B6B3A7640000 PUSH2 0x5134 JUMP JUMPDEST DUP2 MSTORE PUSH1 0x20 ADD PUSH2 0x42A9 PUSH3 0x9EED1 PUSH8 0xDE0B6B3A7640000 PUSH2 0x5134 JUMP JUMPDEST DUP2 MSTORE PUSH1 0x20 ADD PUSH2 0x42C3 PUSH3 0x9EED1 PUSH8 0xDE0B6B3A7640000 PUSH2 0x5134 JUMP JUMPDEST DUP2 MSTORE PUSH1 0x20 ADD PUSH2 0x42DD PUSH3 0x9EED1 PUSH8 0xDE0B6B3A7640000 PUSH2 0x5134 JUMP JUMPDEST DUP2 MSTORE PUSH1 0x20 ADD PUSH2 0x42F7 PUSH3 0x9EED1 PUSH8 0xDE0B6B3A7640000 PUSH2 0x5134 JUMP JUMPDEST DUP2 MSTORE PUSH1 0x20 ADD PUSH2 0x4311 PUSH3 0x9EED1 PUSH8 0xDE0B6B3A7640000 PUSH2 0x5134 JUMP JUMPDEST DUP2 MSTORE PUSH1 0x20 ADD PUSH2 0x432B PUSH3 0x9EED1 PUSH8 0xDE0B6B3A7640000 PUSH2 0x5134 JUMP JUMPDEST DUP2 MSTORE PUSH1 0x20 ADD PUSH2 0x4345 PUSH3 0x9EED1 PUSH8 0xDE0B6B3A7640000 PUSH2 0x5134 JUMP JUMPDEST DUP2 MSTORE PUSH1 0x20 ADD PUSH2 0x435F PUSH3 0x9EED1 PUSH8 0xDE0B6B3A7640000 PUSH2 0x5134 JUMP JUMPDEST DUP2 MSTORE PUSH1 0x20 ADD PUSH2 0x4379 PUSH3 0x9EED1 PUSH8 0xDE0B6B3A7640000 PUSH2 0x5134 JUMP JUMPDEST DUP2 MSTORE PUSH1 0x20 ADD PUSH2 0x2FD2 PUSH3 0x9EED1 PUSH8 0xDE0B6B3A7640000 PUSH2 0x5134 JUMP JUMPDEST PUSH1 0x1E DUP2 GT ISZERO PUSH2 0x43FB JUMPI PUSH1 0x40 MLOAD PUSH3 0x461BCD PUSH1 0xE5 SHL DUP2 MSTORE PUSH1 0x20 PUSH1 0x4 DUP3 ADD MSTORE PUSH1 0x2E PUSH1 0x24 DUP3 ADD MSTORE PUSH32 0x5374616B61626C653A2050656E616C7479206665652063616E6E6F7420657863 PUSH1 0x44 DUP3 ADD MSTORE PUSH14 0x32B2B21019903832B931B2B73A17 PUSH1 0x91 SHL PUSH1 0x64 DUP3 ADD MSTORE PUSH1 0x84 ADD PUSH2 0xC53 JUMP JUMPDEST PUSH1 0x6 DUP2 SWAP1 SSTORE PUSH1 0x40 MLOAD DUP2 DUP2 MSTORE PUSH32 0xCFA4F4CF1CD64D13A167A8E75605E0C0C9D6700E903D17C5DC11F593254A04A9 SWAP1 PUSH1 0x20 ADD JUMPDEST PUSH1 0x40 MLOAD DUP1 SWAP2 SUB SWAP1 LOG1 POP JUMP JUMPDEST PUSH2 0x443F PUSH2 0x558A JUMP JUMPDEST PUSH1 0x40 MLOAD DUP1 PUSH2 0x6E0 ADD PUSH1 0x40 MSTORE DUP1 PUSH2 0x445F PUSH2 0xAABA PUSH8 0xDE0B6B3A7640000 PUSH2 0x5134 JUMP JUMPDEST DUP2 MSTORE PUSH1 0x20 ADD PUSH2 0x4478 PUSH2 0xAABA PUSH8 0xDE0B6B3A7640000 PUSH2 0x5134 JUMP JUMPDEST DUP2 MSTORE PUSH1 0x20 ADD PUSH2 0x4491 PUSH2 0xAABA PUSH8 0xDE0B6B3A7640000 PUSH2 0x5134 JUMP JUMPDEST DUP2 MSTORE PUSH1 0x20 ADD PUSH2 0x44AA PUSH2 0xAABA PUSH8 0xDE0B6B3A7640000 PUSH2 0x5134 JUMP JUMPDEST DUP2 MSTORE PUSH1 0x20 ADD PUSH2 0x44C3 PUSH2 0xAABA PUSH8 0xDE0B6B3A7640000 PUSH2 0x5134 JUMP JUMPDEST DUP2 MSTORE PUSH1 0x20 ADD PUSH2 0x44DC PUSH2 0xAABA PUSH8 0xDE0B6B3A7640000 PUSH2 0x5134 JUMP JUMPDEST DUP2 MSTORE PUSH1 0x20 ADD PUSH2 0x44F5 PUSH2 0xAABA PUSH8 0xDE0B6B3A7640000 PUSH2 0x5134 JUMP JUMPDEST DUP2 MSTORE PUSH1 0x20 ADD PUSH2 0x450E PUSH2 0xAABA PUSH8 0xDE0B6B3A7640000 PUSH2 0x5134 JUMP JUMPDEST DUP2 MSTORE PUSH1 0x20 ADD PUSH2 0x4527 PUSH2 0xAABA PUSH8 0xDE0B6B3A7640000 PUSH2 0x5134 JUMP JUMPDEST DUP2 MSTORE PUSH1 0x20 ADD PUSH2 0x4540 PUSH2 0xAABA PUSH8 0xDE0B6B3A7640000 PUSH2 0x5134 JUMP JUMPDEST DUP2 MSTORE PUSH1 0x20 ADD PUSH2 0x4559 PUSH2 0xAABA PUSH8 0xDE0B6B3A7640000 PUSH2 0x5134 JUMP JUMPDEST DUP2 MSTORE PUSH1 0x20 ADD PUSH2 0x4572 PUSH2 0xAABA PUSH8 0xDE0B6B3A7640000 PUSH2 0x5134 JUMP JUMPDEST DUP2 MSTORE PUSH1 0x20 ADD PUSH2 0x458B PUSH2 0xAABA PUSH8 0xDE0B6B3A7640000 PUSH2 0x5134 JUMP JUMPDEST DUP2 MSTORE PUSH1 0x20 ADD PUSH2 0x45A4 PUSH2 0xAABA PUSH8 0xDE0B6B3A7640000 PUSH2 0x5134 JUMP JUMPDEST DUP2 MSTORE PUSH1 0x20 ADD PUSH2 0x45BD PUSH2 0xAABA PUSH8 0xDE0B6B3A7640000 PUSH2 0x5134 JUMP JUMPDEST DUP2 MSTORE PUSH1 0x20 ADD PUSH2 0x45D6 PUSH2 0xAABA PUSH8 0xDE0B6B3A7640000 PUSH2 0x5134 JUMP JUMPDEST DUP2 MSTORE PUSH1 0x20 ADD PUSH2 0x45F0 PUSH3 0x800BB PUSH8 0xDE0B6B3A7640000 PUSH2 0x5134 JUMP JUMPDEST DUP2 MSTORE PUSH1 0x20 ADD PUSH2 0x460A PUSH3 0x800BB PUSH8 0xDE0B6B3A7640000 PUSH2 0x5134 JUMP JUMPDEST DUP2 MSTORE PUSH1 0x20 ADD PUSH2 0x4624 PUSH3 0x800BB PUSH8 0xDE0B6B3A7640000 PUSH2 0x5134 JUMP JUMPDEST DUP2 MSTORE PUSH1 0x20 ADD PUSH2 0x463E PUSH3 0x800BB PUSH8 0xDE0B6B3A7640000 PUSH2 0x5134 JUMP JUMPDEST DUP2 MSTORE PUSH1 0x20 ADD PUSH2 0x4658 PUSH3 0x800BB PUSH8 0xDE0B6B3A7640000 PUSH2 0x5134 JUMP JUMPDEST DUP2 MSTORE PUSH1 0x20 ADD PUSH2 0x4672 PUSH3 0x800BB PUSH8 0xDE0B6B3A7640000 PUSH2 0x5134 JUMP JUMPDEST DUP2 MSTORE PUSH1 0x20 ADD PUSH2 0x468C PUSH3 0x800BB PUSH8 0xDE0B6B3A7640000 PUSH2 0x5134 JUMP JUMPDEST DUP2 MSTORE PUSH1 0x20 ADD PUSH2 0x46A6 PUSH3 0x800BB PUSH8 0xDE0B6B3A7640000 PUSH2 0x5134 JUMP JUMPDEST DUP2 MSTORE PUSH1 0x20 ADD PUSH2 0x46C0 PUSH3 0x800BB PUSH8 0xDE0B6B3A7640000 PUSH2 0x5134 JUMP JUMPDEST DUP2 MSTORE PUSH1 0x20 ADD PUSH2 0x46DA PUSH3 0x800BB PUSH8 0xDE0B6B3A7640000 PUSH2 0x5134 JUMP JUMPDEST DUP2 MSTORE PUSH1 0x20 ADD PUSH2 0x46F4 PUSH3 0x800BB PUSH8 0xDE0B6B3A7640000 PUSH2 0x5134 JUMP JUMPDEST DUP2 MSTORE PUSH1 0x20 ADD PUSH2 0x470E PUSH3 0x800BB PUSH8 0xDE0B6B3A7640000 PUSH2 0x5134 JUMP JUMPDEST DUP2 MSTORE PUSH1 0x20 ADD PUSH1 0x0 DUP2 MSTORE PUSH1 0x20 ADD PUSH1 0x0 DUP2 MSTORE PUSH1 0x20 ADD PUSH1 0x0 DUP2 MSTORE PUSH1 0x20 ADD PUSH1 0x0 DUP2 MSTORE PUSH1 0x20 ADD PUSH1 0x0 DUP2 MSTORE PUSH1 0x20 ADD PUSH1 0x0 DUP2 MSTORE PUSH1 0x20 ADD PUSH1 0x0 DUP2 MSTORE PUSH1 0x20 ADD PUSH1 0x0 DUP2 MSTORE PUSH1 0x20 ADD PUSH1 0x0 DUP2 MSTORE PUSH1 0x20 ADD PUSH1 0x0 DUP2 MSTORE PUSH1 0x20 ADD PUSH1 0x0 DUP2 MSTORE PUSH1 0x20 ADD PUSH1 0x0 DUP2 MSTORE PUSH1 0x20 ADD PUSH1 0x0 DUP2 MSTORE PUSH1 0x20 ADD PUSH1 0x0 DUP2 MSTORE PUSH1 0x20 ADD PUSH1 0x0 DUP2 MSTORE PUSH1 0x20 ADD PUSH1 0x0 DUP2 MSTORE PUSH1 0x20 ADD PUSH1 0x0 DUP2 MSTORE PUSH1 0x20 ADD PUSH1 0x0 DUP2 MSTORE PUSH1 0x20 ADD PUSH1 0x0 DUP2 MSTORE PUSH1 0x20 ADD PUSH1 0x0 DUP2 MSTORE PUSH1 0x20 ADD PUSH1 0x0 DUP2 MSTORE PUSH1 0x20 ADD PUSH1 0x0 DUP2 MSTORE PUSH1 0x20 ADD PUSH1 0x0 DUP2 MSTORE PUSH1 0x20 ADD PUSH1 0x0 DUP2 MSTORE PUSH1 0x20 ADD PUSH1 0x0 DUP2 MSTORE PUSH1 0x20 ADD PUSH1 0x0 DUP2 MSTORE PUSH1 0x20 ADD PUSH1 0x0 DUP2 MSTORE POP SWAP1 POP SWAP1 JUMP JUMPDEST PUSH1 0xB SLOAD DUP2 GT ISZERO PUSH2 0x483F JUMPI PUSH1 0x40 MLOAD PUSH3 0x461BCD PUSH1 0xE5 SHL DUP2 MSTORE PUSH1 0x20 PUSH1 0x4 DUP3 ADD MSTORE PUSH1 0x31 PUSH1 0x24 DUP3 ADD MSTORE PUSH32 0x5072697661746553616C653A206E6F7420656E6F7567682062616C616E636520 PUSH1 0x44 DUP3 ADD MSTORE PUSH17 0x3A379030B2321030903732BB903AB9B2B9 PUSH1 0x79 SHL PUSH1 0x64 DUP3 ADD MSTORE PUSH1 0x84 ADD PUSH2 0xC53 JUMP JUMPDEST PUSH1 0x1 PUSH1 0x1 PUSH1 0xA0 SHL SUB DUP3 AND PUSH1 0x0 SWAP1 DUP2 MSTORE PUSH1 0xD PUSH1 0x20 MSTORE PUSH1 0x40 SWAP1 KECCAK256 PUSH1 0x1 ADD SLOAD ISZERO PUSH2 0x48BA JUMPI PUSH1 0x40 MLOAD PUSH3 0x461BCD PUSH1 0xE5 SHL DUP2 MSTORE PUSH1 0x20 PUSH1 0x4 DUP3 ADD MSTORE PUSH1 0x29 PUSH1 0x24 DUP3 ADD MSTORE PUSH32 0x5072697661746553616C653A2054686973207573657220616C72656164792072 PUSH1 0x44 DUP3 ADD MSTORE PUSH9 0x1959DA5CDD195C9959 PUSH1 0xBA SHL PUSH1 0x64 DUP3 ADD MSTORE PUSH1 0x84 ADD PUSH2 0xC53 JUMP JUMPDEST PUSH1 0x1 PUSH1 0x1 PUSH1 0xA0 SHL SUB DUP3 AND PUSH1 0x0 SWAP1 DUP2 MSTORE PUSH1 0xD PUSH1 0x20 MSTORE PUSH1 0x40 DUP2 KECCAK256 DUP3 DUP2 SSTORE PUSH1 0x1 DUP1 DUP3 ADD DUP5 SWAP1 SSTORE PUSH1 0x2 DUP3 ADD DUP1 SLOAD PUSH1 0xFF NOT AND SWAP1 SSTORE PUSH1 0x3 SWAP1 SWAP2 ADD DUP2 SWAP1 SSTORE PUSH1 0xA DUP1 SLOAD SWAP2 SWAP3 SWAP1 SWAP2 PUSH2 0x4904 SWAP1 DUP5 SWAP1 PUSH2 0x5947 JUMP JUMPDEST SWAP3 POP POP DUP2 SWAP1 SSTORE POP DUP1 PUSH1 0xB PUSH1 0x0 DUP3 DUP3 SLOAD PUSH2 0x491D SWAP2 SWAP1 PUSH2 0x59FC JUMP JUMPDEST SWAP1 SWAP2 SSTORE POP POP POP POP JUMP JUMPDEST PUSH1 0xC8 DUP2 GT ISZERO PUSH2 0x4996 JUMPI PUSH1 0x40 MLOAD PUSH3 0x461BCD PUSH1 0xE5 SHL DUP2 MSTORE PUSH1 0x20 PUSH1 0x4 DUP3 ADD MSTORE PUSH1 0x36 PUSH1 0x24 DUP3 ADD MSTORE PUSH32 0x5374616B61626C653A2041697264726F702050657263656E746167652063616E PUSH1 0x44 DUP3 ADD MSTORE PUSH22 0x3737BA1032BC31B2B2B2101918103832B931B2B73A17 PUSH1 0x51 SHL PUSH1 0x64 DUP3 ADD MSTORE PUSH1 0x84 ADD PUSH2 0xC53 JUMP JUMPDEST PUSH1 0x7 DUP2 SWAP1 SSTORE PUSH1 0x40 MLOAD DUP2 DUP2 MSTORE PUSH32 0xCC672F1026B958C0CFBFDD89EBE8DDCBC127F16EC24DA6C2C7A4DE26A8B1857E SWAP1 PUSH1 0x20 ADD PUSH2 0x442C JUMP JUMPDEST PUSH1 0x0 DUP3 PUSH1 0x20 ADD MLOAD PUSH1 0x0 EQ ISZERO PUSH2 0x49E2 JUMPI POP PUSH1 0x0 PUSH2 0xC23 JUMP JUMPDEST PUSH11 0x52B7D2DCC80CD2E4000000 PUSH2 0x49FB DUP5 PUSH1 0x40 ADD MLOAD PUSH2 0x546A JUMP JUMPDEST PUSH1 0xA0 DUP6 ADD MLOAD PUSH2 0x4A0A SWAP1 DUP6 PUSH2 0x5A13 JUMP JUMPDEST PUSH2 0x4A14 SWAP2 SWAP1 PUSH2 0x5A13 JUMP JUMPDEST PUSH2 0x2961 SWAP2 SWAP1 PUSH2 0x59DA JUMP JUMPDEST CALLER PUSH1 0x0 SWAP1 DUP2 MSTORE PUSH1 0x9 PUSH1 0x20 MSTORE PUSH1 0x40 DUP2 KECCAK256 SLOAD PUSH1 0x8 DUP1 SLOAD DUP4 SWAP3 SWAP2 DUP4 SWAP2 DUP4 SWAP1 DUP2 LT PUSH2 0x4A47 JUMPI PUSH2 0x4A47 PUSH2 0x595F JUMP JUMPDEST SWAP1 PUSH1 0x0 MSTORE PUSH1 0x20 PUSH1 0x0 KECCAK256 SWAP1 PUSH1 0x3 MUL ADD PUSH1 0x2 ADD DUP6 DUP2 SLOAD DUP2 LT PUSH2 0x4A69 JUMPI PUSH2 0x4A69 PUSH2 0x595F JUMP JUMPDEST SWAP1 PUSH1 0x0 MSTORE PUSH1 0x20 PUSH1 0x0 KECCAK256 SWAP1 PUSH1 0x7 MUL ADD SWAP1 POP DUP6 DUP2 PUSH1 0x1 ADD SLOAD LT ISZERO PUSH2 0x4AE9 JUMPI PUSH1 0x40 MLOAD PUSH3 0x461BCD PUSH1 0xE5 SHL DUP2 MSTORE PUSH1 0x20 PUSH1 0x4 DUP3 ADD MSTORE PUSH1 0x33 PUSH1 0x24 DUP3 ADD MSTORE PUSH32 0x5374616B61626C653A2043616E6E6F74207769746864726177206D6F72652074 PUSH1 0x44 DUP3 ADD MSTORE PUSH19 0x1A185B881E5BDD481A185D99481CDD185AD959 PUSH1 0x6A SHL PUSH1 0x64 DUP3 ADD MSTORE PUSH1 0x84 ADD PUSH2 0xC53 JUMP JUMPDEST PUSH1 0x40 DUP1 MLOAD PUSH1 0xE0 DUP2 ADD DUP3 MSTORE DUP3 SLOAD PUSH1 0x1 PUSH1 0x1 PUSH1 0xA0 SHL SUB AND DUP2 MSTORE PUSH1 0x1 DUP4 ADD SLOAD PUSH1 0x20 DUP3 ADD MSTORE PUSH1 0x2 DUP4 ADD SLOAD SWAP2 DUP2 ADD SWAP2 SWAP1 SWAP2 MSTORE PUSH1 0x3 DUP3 ADD SLOAD PUSH1 0x60 DUP3 ADD MSTORE PUSH1 0x4 DUP3 ADD SLOAD PUSH1 0x80 DUP3 ADD MSTORE PUSH1 0x5 DUP3 ADD SLOAD PUSH1 0xA0 DUP3 ADD MSTORE PUSH1 0x6 DUP3 ADD SLOAD PUSH1 0xC0 DUP3 ADD MSTORE PUSH1 0x0 SWAP1 PUSH2 0x4B4B SWAP1 DUP9 PUSH2 0x49CB JUMP JUMPDEST SWAP1 POP PUSH1 0x0 DUP3 PUSH1 0x2 ADD SLOAD DUP4 PUSH1 0x6 ADD SLOAD PUSH2 0x4B63 SWAP2 SWAP1 PUSH2 0x59FC JUMP JUMPDEST SWAP1 POP TIMESTAMP DUP4 PUSH1 0x6 ADD SLOAD GT ISZERO PUSH2 0x4D16 JUMPI DUP8 DUP4 PUSH1 0x1 ADD PUSH1 0x0 DUP3 DUP3 SLOAD PUSH2 0x4B85 SWAP2 SWAP1 PUSH2 0x59FC JUMP JUMPDEST SWAP1 SWAP2 SSTORE POP POP PUSH1 0x1 DUP4 ADD SLOAD PUSH2 0x4C11 JUMPI PUSH1 0x8 DUP5 DUP2 SLOAD DUP2 LT PUSH2 0x4BA6 JUMPI PUSH2 0x4BA6 PUSH2 0x595F JUMP JUMPDEST SWAP1 PUSH1 0x0 MSTORE PUSH1 0x20 PUSH1 0x0 KECCAK256 SWAP1 PUSH1 0x3 MUL ADD PUSH1 0x2 ADD DUP8 DUP2 SLOAD DUP2 LT PUSH2 0x4BC8 JUMPI PUSH2 0x4BC8 PUSH2 0x595F JUMP JUMPDEST PUSH1 0x0 SWAP2 DUP3 MSTORE PUSH1 0x20 DUP3 KECCAK256 PUSH1 0x7 SWAP1 SWAP2 MUL ADD DUP1 SLOAD PUSH1 0x1 PUSH1 0x1 PUSH1 0xA0 SHL SUB NOT AND DUP2 SSTORE PUSH1 0x1 DUP2 ADD DUP3 SWAP1 SSTORE PUSH1 0x2 DUP2 ADD DUP3 SWAP1 SSTORE PUSH1 0x3 DUP2 ADD DUP3 SWAP1 SSTORE PUSH1 0x4 DUP2 ADD DUP3 SWAP1 SSTORE PUSH1 0x5 DUP2 ADD DUP3 SWAP1 SSTORE PUSH1 0x6 ADD SSTORE PUSH2 0x4CFF JUMP JUMPDEST DUP3 PUSH1 0x1 ADD SLOAD PUSH1 0x8 DUP6 DUP2 SLOAD DUP2 LT PUSH2 0x4C29 JUMPI PUSH2 0x4C29 PUSH2 0x595F JUMP JUMPDEST SWAP1 PUSH1 0x0 MSTORE PUSH1 0x20 PUSH1 0x0 KECCAK256 SWAP1 PUSH1 0x3 MUL ADD PUSH1 0x2 ADD DUP9 DUP2 SLOAD DUP2 LT PUSH2 0x4C4B JUMPI PUSH2 0x4C4B PUSH2 0x595F JUMP JUMPDEST SWAP1 PUSH1 0x0 MSTORE PUSH1 0x20 PUSH1 0x0 KECCAK256 SWAP1 PUSH1 0x7 MUL ADD PUSH1 0x1 ADD DUP2 SWAP1 SSTORE POP TIMESTAMP PUSH1 0x8 DUP6 DUP2 SLOAD DUP2 LT PUSH2 0x4C74 JUMPI PUSH2 0x4C74 PUSH2 0x595F JUMP JUMPDEST SWAP1 PUSH1 0x0 MSTORE PUSH1 0x20 PUSH1 0x0 KECCAK256 SWAP1 PUSH1 0x3 MUL ADD PUSH1 0x2 ADD DUP9 DUP2 SLOAD DUP2 LT PUSH2 0x4C96 JUMPI PUSH2 0x4C96 PUSH2 0x595F JUMP JUMPDEST PUSH1 0x0 SWAP2 DUP3 MSTORE PUSH1 0x20 SWAP1 SWAP2 KECCAK256 PUSH1 0x2 PUSH1 0x7 SWAP1 SWAP3 MUL ADD ADD SSTORE PUSH2 0x4CB4 DUP2 TIMESTAMP PUSH2 0x5947 JUMP JUMPDEST PUSH1 0x8 DUP6 DUP2 SLOAD DUP2 LT PUSH2 0x4CC7 JUMPI PUSH2 0x4CC7 PUSH2 0x595F JUMP JUMPDEST SWAP1 PUSH1 0x0 MSTORE PUSH1 0x20 PUSH1 0x0 KECCAK256 SWAP1 PUSH1 0x3 MUL ADD PUSH1 0x2 ADD DUP9 DUP2 SLOAD DUP2 LT PUSH2 0x4CE9 JUMPI PUSH2 0x4CE9 PUSH2 0x595F JUMP JUMPDEST SWAP1 PUSH1 0x0 MSTORE PUSH1 0x20 PUSH1 0x0 KECCAK256 SWAP1 PUSH1 0x7 MUL ADD PUSH1 0x6 ADD DUP2 SWAP1 SSTORE POP JUMPDEST PUSH2 0x4D09 DUP9 DUP4 PUSH2 0x54FF JUMP JUMPDEST SWAP6 POP SWAP6 POP POP POP POP POP PUSH2 0x4EAD JUMP JUMPDEST DUP8 DUP4 PUSH1 0x1 ADD PUSH1 0x0 DUP3 DUP3 SLOAD PUSH2 0x4D2A SWAP2 SWAP1 PUSH2 0x59FC JUMP JUMPDEST SWAP1 SWAP2 SSTORE POP POP PUSH1 0x1 DUP4 ADD SLOAD PUSH2 0x4DB6 JUMPI PUSH1 0x8 DUP5 DUP2 SLOAD DUP2 LT PUSH2 0x4D4B JUMPI PUSH2 0x4D4B PUSH2 0x595F JUMP JUMPDEST SWAP1 PUSH1 0x0 MSTORE PUSH1 0x20 PUSH1 0x0 KECCAK256 SWAP1 PUSH1 0x3 MUL ADD PUSH1 0x2 ADD DUP8 DUP2 SLOAD DUP2 LT PUSH2 0x4D6D JUMPI PUSH2 0x4D6D PUSH2 0x595F JUMP JUMPDEST PUSH1 0x0 SWAP2 DUP3 MSTORE PUSH1 0x20 DUP3 KECCAK256 PUSH1 0x7 SWAP1 SWAP2 MUL ADD DUP1 SLOAD PUSH1 0x1 PUSH1 0x1 PUSH1 0xA0 SHL SUB NOT AND DUP2 SSTORE PUSH1 0x1 DUP2 ADD DUP3 SWAP1 SSTORE PUSH1 0x2 DUP2 ADD DUP3 SWAP1 SSTORE PUSH1 0x3 DUP2 ADD DUP3 SWAP1 SSTORE PUSH1 0x4 DUP2 ADD DUP3 SWAP1 SSTORE PUSH1 0x5 DUP2 ADD DUP3 SWAP1 SSTORE PUSH1 0x6 ADD SSTORE PUSH2 0x4EA4 JUMP JUMPDEST DUP3 PUSH1 0x1 ADD SLOAD PUSH1 0x8 DUP6 DUP2 SLOAD DUP2 LT PUSH2 0x4DCE JUMPI PUSH2 0x4DCE PUSH2 0x595F JUMP JUMPDEST SWAP1 PUSH1 0x0 MSTORE PUSH1 0x20 PUSH1 0x0 KECCAK256 SWAP1 PUSH1 0x3 MUL ADD PUSH1 0x2 ADD DUP9 DUP2 SLOAD DUP2 LT PUSH2 0x4DF0 JUMPI PUSH2 0x4DF0 PUSH2 0x595F JUMP JUMPDEST SWAP1 PUSH1 0x0 MSTORE PUSH1 0x20 PUSH1 0x0 KECCAK256 SWAP1 PUSH1 0x7 MUL ADD PUSH1 0x1 ADD DUP2 SWAP1 SSTORE POP TIMESTAMP PUSH1 0x8 DUP6 DUP2 SLOAD DUP2 LT PUSH2 0x4E19 JUMPI PUSH2 0x4E19 PUSH2 0x595F JUMP JUMPDEST SWAP1 PUSH1 0x0 MSTORE PUSH1 0x20 PUSH1 0x0 KECCAK256 SWAP1 PUSH1 0x3 MUL ADD PUSH1 0x2 ADD DUP9 DUP2 SLOAD DUP2 LT PUSH2 0x4E3B JUMPI PUSH2 0x4E3B PUSH2 0x595F JUMP JUMPDEST PUSH1 0x0 SWAP2 DUP3 MSTORE PUSH1 0x20 SWAP1 SWAP2 KECCAK256 PUSH1 0x2 PUSH1 0x7 SWAP1 SWAP3 MUL ADD ADD SSTORE PUSH2 0x4E59 DUP2 TIMESTAMP PUSH2 0x5947 JUMP JUMPDEST PUSH1 0x8 DUP6 DUP2 SLOAD DUP2 LT PUSH2 0x4E6C JUMPI PUSH2 0x4E6C PUSH2 0x595F JUMP JUMPDEST SWAP1 PUSH1 0x0 MSTORE PUSH1 0x20 PUSH1 0x0 KECCAK256 SWAP1 PUSH1 0x3 MUL ADD PUSH1 0x2 ADD DUP9 DUP2 SLOAD DUP2 LT PUSH2 0x4E8E JUMPI PUSH2 0x4E8E PUSH2 0x595F JUMP JUMPDEST SWAP1 PUSH1 0x0 MSTORE PUSH1 0x20 PUSH1 0x0 KECCAK256 SWAP1 PUSH1 0x7 MUL ADD PUSH1 0x6 ADD DUP2 SWAP1 SSTORE POP JUMPDEST POP DUP7 SWAP5 POP SWAP3 POP POP POP JUMPDEST SWAP3 POP SWAP3 SWAP1 POP JUMP JUMPDEST CALLER PUSH1 0x0 SWAP1 DUP2 MSTORE PUSH1 0x9 PUSH1 0x20 MSTORE PUSH1 0x40 DUP2 KECCAK256 SLOAD PUSH1 0x8 DUP1 SLOAD DUP4 SWAP3 SWAP2 DUP4 SWAP2 DUP4 SWAP1 DUP2 LT PUSH2 0x4EDD JUMPI PUSH2 0x4EDD PUSH2 0x595F JUMP JUMPDEST SWAP1 PUSH1 0x0 MSTORE PUSH1 0x20 PUSH1 0x0 KECCAK256 SWAP1 PUSH1 0x3 MUL ADD PUSH1 0x2 ADD DUP6 DUP2 SLOAD DUP2 LT PUSH2 0x4EFF JUMPI PUSH2 0x4EFF PUSH2 0x595F JUMP JUMPDEST SWAP1 PUSH1 0x0 MSTORE PUSH1 0x20 PUSH1 0x0 KECCAK256 SWAP1 PUSH1 0x7 MUL ADD SWAP1 POP PUSH1 0x0 DUP2 PUSH1 0x1 ADD SLOAD GT PUSH2 0x4F93 JUMPI PUSH1 0x40 MLOAD PUSH3 0x461BCD PUSH1 0xE5 SHL DUP2 MSTORE PUSH1 0x20 PUSH1 0x4 DUP3 ADD MSTORE PUSH1 0x41 PUSH1 0x24 DUP3 ADD MSTORE PUSH32 0x5374616B61626C653A2043616E6E6F742077697468647261772C20796F752064 PUSH1 0x44 DUP3 ADD MSTORE PUSH32 0x6F6E2774206861766520616E79207374616B6520696E207468697320496E6465 PUSH1 0x64 DUP3 ADD MSTORE PUSH1 0xF PUSH1 0xFB SHL PUSH1 0x84 DUP3 ADD MSTORE PUSH1 0xA4 ADD PUSH2 0xC53 JUMP JUMPDEST PUSH1 0x1 DUP2 ADD SLOAD PUSH1 0x40 DUP1 MLOAD PUSH1 0xE0 DUP2 ADD DUP3 MSTORE DUP4 SLOAD PUSH1 0x1 PUSH1 0x1 PUSH1 0xA0 SHL SUB AND DUP2 MSTORE PUSH1 0x20 DUP2 ADD DUP4 SWAP1 MSTORE PUSH1 0x2 DUP5 ADD SLOAD SWAP2 DUP2 ADD SWAP2 SWAP1 SWAP2 MSTORE PUSH1 0x3 DUP4 ADD SLOAD PUSH1 0x60 DUP3 ADD MSTORE PUSH1 0x4 DUP4 ADD SLOAD PUSH1 0x80 DUP3 ADD MSTORE PUSH1 0x5 DUP4 ADD SLOAD PUSH1 0xA0 DUP3 ADD MSTORE PUSH1 0x6 DUP4 ADD SLOAD PUSH1 0xC0 DUP3 ADD MSTORE PUSH1 0x0 SWAP1 PUSH2 0x4FF7 SWAP1 DUP4 PUSH2 0x49CB JUMP JUMPDEST SWAP1 POP TIMESTAMP DUP4 PUSH1 0x6 ADD SLOAD GT ISZERO PUSH2 0x50AF JUMPI DUP2 DUP4 PUSH1 0x1 ADD PUSH1 0x0 DUP3 DUP3 SLOAD PUSH2 0x5019 SWAP2 SWAP1 PUSH2 0x59FC JUMP JUMPDEST SWAP1 SWAP2 SSTORE POP POP PUSH1 0x8 DUP1 SLOAD DUP6 SWAP1 DUP2 LT PUSH2 0x5032 JUMPI PUSH2 0x5032 PUSH2 0x595F JUMP JUMPDEST SWAP1 PUSH1 0x0 MSTORE PUSH1 0x20 PUSH1 0x0 KECCAK256 SWAP1 PUSH1 0x3 MUL ADD PUSH1 0x2 ADD DUP8 DUP2 SLOAD DUP2 LT PUSH2 0x5054 JUMPI PUSH2 0x5054 PUSH2 0x595F JUMP JUMPDEST PUSH1 0x0 SWAP2 DUP3 MSTORE PUSH1 0x20 DUP3 KECCAK256 PUSH1 0x7 SWAP1 SWAP2 MUL ADD DUP1 SLOAD PUSH1 0x1 PUSH1 0x1 PUSH1 0xA0 SHL SUB NOT AND DUP2 SSTORE PUSH1 0x1 DUP2 ADD DUP3 SWAP1 SSTORE PUSH1 0x2 DUP2 ADD DUP3 SWAP1 SSTORE PUSH1 0x3 DUP2 ADD DUP3 SWAP1 SSTORE PUSH1 0x4 DUP2 ADD DUP3 SWAP1 SSTORE PUSH1 0x5 DUP2 ADD DUP3 SWAP1 SSTORE PUSH1 0x6 ADD SSTORE PUSH2 0x50A2 DUP3 DUP3 PUSH2 0x54FF JUMP JUMPDEST SWAP6 POP SWAP6 POP POP POP POP POP SWAP2 POP SWAP2 JUMP JUMPDEST PUSH1 0x8 DUP5 DUP2 SLOAD DUP2 LT PUSH2 0x50C2 JUMPI PUSH2 0x50C2 PUSH2 0x595F JUMP JUMPDEST SWAP1 PUSH1 0x0 MSTORE PUSH1 0x20 PUSH1 0x0 KECCAK256 SWAP1 PUSH1 0x3 MUL ADD PUSH1 0x2 ADD DUP8 DUP2 SLOAD DUP2 LT PUSH2 0x50E4 JUMPI PUSH2 0x50E4 PUSH2 0x595F JUMP JUMPDEST PUSH1 0x0 SWAP2 DUP3 MSTORE PUSH1 0x20 DUP3 KECCAK256 PUSH1 0x7 SWAP1 SWAP2 MUL ADD DUP1 SLOAD PUSH1 0x1 PUSH1 0x1 PUSH1 0xA0 SHL SUB NOT AND DUP2 SSTORE PUSH1 0x1 DUP2 ADD DUP3 SWAP1 SSTORE PUSH1 0x2 DUP2 ADD DUP3 SWAP1 SSTORE PUSH1 0x3 DUP2 ADD DUP3 SWAP1 SSTORE PUSH1 0x4 DUP2 ADD DUP3 SWAP1 SSTORE PUSH1 0x5 DUP2 ADD DUP3 SWAP1 SSTORE PUSH1 0x6 ADD SSTORE SWAP1 SWAP7 SWAP1 SWAP6 POP SWAP4 POP POP POP POP JUMP JUMPDEST PUSH1 0x0 PUSH2 0x2961 DUP3 DUP5 PUSH2 0x5A13 JUMP JUMPDEST PUSH1 0x8 DUP1 SLOAD PUSH1 0x1 SWAP1 DUP2 ADD DUP1 DUP4 SSTORE PUSH1 0x0 SWAP3 DUP4 MSTORE DUP3 SWAP2 PUSH2 0x515C SWAP2 PUSH2 0x59FC JUMP JUMPDEST SWAP1 POP DUP3 PUSH1 0x8 DUP3 DUP2 SLOAD DUP2 LT PUSH2 0x5172 JUMPI PUSH2 0x5172 PUSH2 0x595F JUMP JUMPDEST SWAP1 PUSH1 0x0 MSTORE PUSH1 0x20 PUSH1 0x0 KECCAK256 SWAP1 PUSH1 0x3 MUL ADD PUSH1 0x0 ADD PUSH1 0x0 PUSH2 0x100 EXP DUP2 SLOAD DUP2 PUSH1 0x1 PUSH1 0x1 PUSH1 0xA0 SHL SUB MUL NOT AND SWAP1 DUP4 PUSH1 0x1 PUSH1 0x1 PUSH1 0xA0 SHL SUB AND MUL OR SWAP1 SSTORE POP TIMESTAMP PUSH1 0x8 DUP3 DUP2 SLOAD DUP2 LT PUSH2 0x51BB JUMPI PUSH2 0x51BB PUSH2 0x595F JUMP JUMPDEST PUSH1 0x0 SWAP2 DUP3 MSTORE PUSH1 0x20 DUP1 DUP4 KECCAK256 PUSH1 0x1 PUSH1 0x3 SWAP1 SWAP4 MUL ADD SWAP2 SWAP1 SWAP2 ADD SWAP3 SWAP1 SWAP3 SSTORE PUSH1 0x1 PUSH1 0x1 PUSH1 0xA0 SHL SUB SWAP1 SWAP5 AND DUP5 MSTORE PUSH1 0x9 SWAP1 MSTORE PUSH1 0x40 SWAP1 SWAP3 KECCAK256 DUP3 SWAP1 SSTORE POP SWAP1 JUMP JUMPDEST PUSH1 0x0 DUP1 PUSH1 0x0 PUSH3 0x15180 PUSH1 0xC SLOAD TIMESTAMP PUSH2 0x5209 SWAP2 SWAP1 PUSH2 0x59FC JUMP JUMPDEST PUSH2 0x5213 SWAP2 SWAP1 PUSH2 0x59DA JUMP JUMPDEST SWAP1 POP PUSH2 0x1E0 DUP2 LT ISZERO PUSH2 0x52D7 JUMPI PUSH1 0x1 PUSH1 0x1 PUSH1 0xA0 SHL SUB DUP5 AND PUSH1 0x0 SWAP1 DUP2 MSTORE PUSH1 0xD PUSH1 0x20 MSTORE PUSH1 0x40 SWAP1 KECCAK256 PUSH1 0x2 ADD SLOAD PUSH1 0xFF AND PUSH2 0x52B1 JUMPI PUSH1 0x1 PUSH1 0x1 PUSH1 0xA0 SHL SUB DUP5 AND PUSH1 0x0 SWAP1 DUP2 MSTORE PUSH1 0xD PUSH1 0x20 MSTORE PUSH1 0x40 SWAP1 KECCAK256 SLOAD PUSH2 0x5288 SWAP1 PUSH2 0x5281 SWAP1 PUSH2 0x5279 SWAP1 PUSH11 0x136D704B91C7B3A700000 SWAP1 PUSH2 0x5134 JUMP JUMPDEST PUSH1 0xB SLOAD PUSH2 0x2955 JUMP JUMPDEST DUP4 SWAP1 PUSH2 0x2968 JUMP JUMPDEST PUSH1 0x1 PUSH1 0x1 PUSH1 0xA0 SHL SUB DUP6 AND PUSH1 0x0 SWAP1 DUP2 MSTORE PUSH1 0xD PUSH1 0x20 MSTORE PUSH1 0x40 SWAP1 KECCAK256 PUSH1 0x2 ADD DUP1 SLOAD PUSH1 0xFF NOT AND PUSH1 0x1 OR SWAP1 SSTORE SWAP2 POP JUMPDEST PUSH1 0x1 PUSH1 0x1 PUSH1 0xA0 SHL SUB DUP5 AND PUSH1 0x0 SWAP1 DUP2 MSTORE PUSH1 0xD PUSH1 0x20 MSTORE PUSH1 0x40 SWAP1 KECCAK256 PUSH2 0x1C2 PUSH1 0x3 SWAP1 SWAP2 ADD SSTORE PUSH2 0x5404 JUMP JUMPDEST PUSH2 0x1E0 DUP2 LT ISZERO DUP1 ISZERO PUSH2 0x52EA JUMPI POP PUSH2 0x348 DUP2 LT JUMPDEST ISZERO PUSH2 0x5404 JUMPI PUSH1 0x1 PUSH1 0x1 PUSH1 0xA0 SHL SUB DUP5 AND PUSH1 0x0 SWAP1 DUP2 MSTORE PUSH1 0xD PUSH1 0x20 MSTORE PUSH1 0x40 SWAP1 KECCAK256 PUSH1 0x2 ADD SLOAD PUSH1 0xFF AND PUSH2 0x5372 JUMPI PUSH1 0x1 PUSH1 0x1 PUSH1 0xA0 SHL SUB DUP5 AND PUSH1 0x0 SWAP1 DUP2 MSTORE PUSH1 0xD PUSH1 0x20 MSTORE PUSH1 0x40 SWAP1 KECCAK256 SLOAD PUSH2 0x5349 SWAP1 PUSH2 0x5281 SWAP1 PUSH2 0x5279 SWAP1 PUSH11 0x136D704B91C7B3A700000 SWAP1 PUSH2 0x5134 JUMP JUMPDEST PUSH1 0x1 PUSH1 0x1 PUSH1 0xA0 SHL SUB DUP6 AND PUSH1 0x0 SWAP1 DUP2 MSTORE PUSH1 0xD PUSH1 0x20 MSTORE PUSH1 0x40 SWAP1 KECCAK256 PUSH1 0x2 ADD DUP1 SLOAD PUSH1 0xFF NOT AND PUSH1 0x1 OR SWAP1 SSTORE SWAP2 POP JUMPDEST PUSH1 0x1 PUSH1 0x1 PUSH1 0xA0 SHL SUB DUP5 AND PUSH1 0x0 SWAP1 DUP2 MSTORE PUSH1 0xD PUSH1 0x20 MSTORE PUSH1 0x40 DUP2 KECCAK256 PUSH1 0x3 ADD SLOAD PUSH2 0x5398 SWAP1 DUP4 PUSH2 0x59FC JUMP JUMPDEST PUSH1 0x1 PUSH1 0x1 PUSH1 0xA0 SHL SUB DUP7 AND PUSH1 0x0 SWAP1 DUP2 MSTORE PUSH1 0xD PUSH1 0x20 MSTORE PUSH1 0x40 SWAP1 KECCAK256 SLOAD SWAP1 SWAP2 POP PUSH2 0x53D8 SWAP1 PUSH2 0x53D1 SWAP1 PUSH2 0x5279 SWAP1 PUSH10 0x7AA22879AABCFAC0000 SWAP1 PUSH2 0x5134 JUMP JUMPDEST DUP5 SWAP1 PUSH2 0x2968 JUMP JUMPDEST PUSH2 0x53E2 SWAP1 DUP3 PUSH2 0x5A13 JUMP JUMPDEST PUSH1 0x1 PUSH1 0x1 PUSH1 0xA0 SHL SUB DUP7 AND PUSH1 0x0 SWAP1 DUP2 MSTORE PUSH1 0xD PUSH1 0x20 MSTORE PUSH1 0x40 SWAP1 KECCAK256 PUSH1 0x3 ADD DUP4 SWAP1 SSTORE SWAP3 POP POP JUMPDEST DUP2 PUSH2 0x5463 JUMPI PUSH1 0x40 MLOAD PUSH3 0x461BCD PUSH1 0xE5 SHL DUP2 MSTORE PUSH1 0x20 PUSH1 0x4 DUP3 ADD MSTORE PUSH1 0x29 PUSH1 0x24 DUP3 ADD MSTORE PUSH32 0x5072697661746553616C653A2054686572652773206E6F7468696E6720746F20 PUSH1 0x44 DUP3 ADD MSTORE PUSH9 0x18DB185A5B481E595D PUSH1 0xBA SHL PUSH1 0x64 DUP3 ADD MSTORE PUSH1 0x84 ADD PUSH2 0xC53 JUMP JUMPDEST POP SWAP3 SWAP2 POP POP JUMP JUMPDEST PUSH1 0x0 DUP1 DUP3 GT PUSH2 0x54BB JUMPI PUSH1 0x40 MLOAD PUSH3 0x461BCD PUSH1 0xE5 SHL DUP2 MSTORE PUSH1 0x20 PUSH1 0x4 DUP3 ADD MSTORE PUSH1 0x1B PUSH1 0x24 DUP3 ADD MSTORE PUSH32 0x5374616B61626C653A204572726F722074696D657374616D7020300000000000 PUSH1 0x44 DUP3 ADD MSTORE PUSH1 0x64 ADD PUSH2 0xC53 JUMP JUMPDEST PUSH2 0xC23 PUSH2 0x54C8 DUP4 TIMESTAMP PUSH2 0x59FC JUMP JUMPDEST PUSH2 0x54DC SWAP1 PUSH10 0xD3C21BCECCEDA1000000 PUSH2 0x5A13 JUMP JUMPDEST PUSH4 0x1E13380 PUSH1 0x40 MLOAD DUP1 PUSH1 0x60 ADD PUSH1 0x40 MSTORE DUP1 PUSH1 0x27 DUP2 MSTORE PUSH1 0x20 ADD PUSH2 0x5A4E PUSH1 0x27 SWAP2 CODECOPY PUSH2 0x5550 JUMP JUMPDEST PUSH1 0x0 DUP1 DUP4 PUSH2 0x5512 JUMPI POP PUSH1 0x0 SWAP1 POP DUP1 PUSH2 0x4EAD JUMP JUMPDEST PUSH2 0x5532 DUP5 PUSH2 0x552D PUSH2 0x5525 DUP8 PUSH1 0x6 SLOAD PUSH2 0x5134 JUMP JUMPDEST PUSH2 0x3E8 PUSH2 0x2955 JUMP JUMPDEST PUSH2 0x2A99 JUMP JUMPDEST PUSH2 0x5545 DUP5 PUSH2 0x552D PUSH2 0x5525 DUP8 PUSH1 0x6 SLOAD PUSH2 0x5134 JUMP JUMPDEST SWAP2 POP SWAP2 POP SWAP3 POP SWAP3 SWAP1 POP JUMP JUMPDEST PUSH1 0x0 DUP2 DUP4 PUSH2 0x5571 JUMPI PUSH1 0x40 MLOAD PUSH3 0x461BCD PUSH1 0xE5 SHL DUP2 MSTORE PUSH1 0x4 ADD PUSH2 0xC53 SWAP2 SWAP1 PUSH2 0x55A9 JUMP JUMPDEST POP DUP3 DUP5 DUP2 PUSH2 0x5581 JUMPI PUSH2 0x5581 PUSH2 0x59C4 JUMP JUMPDEST DIV SWAP5 SWAP4 POP POP POP POP JUMP JUMPDEST PUSH1 0x40 MLOAD DUP1 PUSH2 0x6E0 ADD PUSH1 0x40 MSTORE DUP1 PUSH1 0x37 SWAP1 PUSH1 0x20 DUP3 MUL DUP1 CALLDATASIZE DUP4 CALLDATACOPY POP SWAP2 SWAP3 SWAP2 POP POP JUMP JUMPDEST PUSH1 0x0 PUSH1 0x20 DUP1 DUP4 MSTORE DUP4 MLOAD DUP1 DUP3 DUP6 ADD MSTORE PUSH1 0x0 JUMPDEST DUP2 DUP2 LT ISZERO PUSH2 0x55D6 JUMPI DUP6 DUP2 ADD DUP4 ADD MLOAD DUP6 DUP3 ADD PUSH1 0x40 ADD MSTORE DUP3 ADD PUSH2 0x55BA JUMP JUMPDEST DUP2 DUP2 GT ISZERO PUSH2 0x55E8 JUMPI PUSH1 0x0 PUSH1 0x40 DUP4 DUP8 ADD ADD MSTORE JUMPDEST POP PUSH1 0x1F ADD PUSH1 0x1F NOT AND SWAP3 SWAP1 SWAP3 ADD PUSH1 0x40 ADD SWAP4 SWAP3 POP POP POP JUMP JUMPDEST PUSH1 0x1 PUSH1 0x1 PUSH1 0xA0 SHL SUB DUP2 AND DUP2 EQ PUSH2 0x1180 JUMPI PUSH1 0x0 DUP1 REVERT JUMPDEST PUSH1 0x0 DUP1 PUSH1 0x40 DUP4 DUP6 SUB SLT ISZERO PUSH2 0x5626 JUMPI PUSH1 0x0 DUP1 REVERT JUMPDEST DUP3 CALLDATALOAD PUSH2 0x5631 DUP2 PUSH2 0x55FE JUMP JUMPDEST SWAP5 PUSH1 0x20 SWAP4 SWAP1 SWAP4 ADD CALLDATALOAD SWAP4 POP POP POP JUMP JUMPDEST PUSH1 0x0 PUSH1 0x20 DUP3 DUP5 SUB SLT ISZERO PUSH2 0x5651 JUMPI PUSH1 0x0 DUP1 REVERT JUMPDEST POP CALLDATALOAD SWAP2 SWAP1 POP JUMP JUMPDEST PUSH1 0x0 DUP1 PUSH1 0x0 PUSH1 0x60 DUP5 DUP7 SUB SLT ISZERO PUSH2 0x566D JUMPI PUSH1 0x0 DUP1 REVERT JUMPDEST DUP4 CALLDATALOAD PUSH2 0x5678 DUP2 PUSH2 0x55FE JUMP JUMPDEST SWAP3 POP PUSH1 0x20 DUP5 ADD CALLDATALOAD PUSH2 0x5688 DUP2 PUSH2 0x55FE JUMP JUMPDEST SWAP3 SWAP6 SWAP3 SWAP5 POP POP POP PUSH1 0x40 SWAP2 SWAP1 SWAP2 ADD CALLDATALOAD SWAP1 JUMP JUMPDEST PUSH1 0x0 PUSH1 0x20 DUP3 DUP5 SUB SLT ISZERO PUSH2 0x56AB JUMPI PUSH1 0x0 DUP1 REVERT JUMPDEST DUP2 CALLDATALOAD PUSH2 0x2961 DUP2 PUSH2 0x55FE JUMP JUMPDEST PUSH1 0x0 DUP1 PUSH1 0x40 DUP4 DUP6 SUB SLT ISZERO PUSH2 0x56C9 JUMPI PUSH1 0x0 DUP1 REVERT JUMPDEST POP POP DUP1 CALLDATALOAD SWAP3 PUSH1 0x20 SWAP1 SWAP2 ADD CALLDATALOAD SWAP2 POP JUMP JUMPDEST PUSH1 0x0 PUSH1 0x20 DUP3 DUP5 SUB SLT ISZERO PUSH2 0x56EA JUMPI PUSH1 0x0 DUP1 REVERT JUMPDEST DUP2 CALLDATALOAD PUSH2 0xFFFF DUP2 AND DUP2 EQ PUSH2 0x2961 JUMPI PUSH1 0x0 DUP1 REVERT JUMPDEST PUSH1 0x0 PUSH1 0x20 DUP3 DUP5 SUB SLT ISZERO PUSH2 0x570E JUMPI PUSH1 0x0 DUP1 REVERT JUMPDEST DUP2 CALLDATALOAD DUP1 ISZERO ISZERO DUP2 EQ PUSH2 0x2961 JUMPI PUSH1 0x0 DUP1 REVERT JUMPDEST PUSH1 0x0 DUP1 PUSH1 0x40 DUP4 DUP6 SUB SLT ISZERO PUSH2 0x5731 JUMPI PUSH1 0x0 DUP1 REVERT JUMPDEST DUP3 CALLDATALOAD PUSH2 0x573C DUP2 PUSH2 0x55FE JUMP JUMPDEST SWAP2 POP PUSH1 0x20 DUP4 ADD CALLDATALOAD PUSH2 0x574C DUP2 PUSH2 0x55FE JUMP JUMPDEST DUP1 SWAP2 POP POP SWAP3 POP SWAP3 SWAP1 POP JUMP JUMPDEST PUSH1 0x0 PUSH1 0x20 DUP1 DUP4 MSTORE PUSH1 0x60 DUP1 DUP5 ADD DUP6 MLOAD DUP4 DUP7 ADD MSTORE DUP3 DUP7 ADD MLOAD PUSH1 0x40 DUP1 DUP2 DUP9 ADD MSTORE DUP3 DUP3 MLOAD DUP1 DUP6 MSTORE PUSH1 0x80 SWAP5 POP DUP5 DUP10 ADD SWAP2 POP DUP7 DUP5 ADD SWAP4 POP PUSH1 0x0 JUMPDEST DUP2 DUP2 LT ISZERO PUSH2 0x57E8 JUMPI DUP5 MLOAD DUP1 MLOAD PUSH1 0x1 PUSH1 0x1 PUSH1 0xA0 SHL SUB AND DUP5 MSTORE DUP9 DUP2 ADD MLOAD DUP10 DUP6 ADD MSTORE DUP5 DUP2 ADD MLOAD DUP6 DUP6 ADD MSTORE DUP8 DUP2 ADD MLOAD DUP9 DUP6 ADD MSTORE DUP7 DUP2 ADD MLOAD DUP8 DUP6 ADD MSTORE PUSH1 0xA0 DUP1 DUP3 ADD MLOAD SWAP1 DUP6 ADD MSTORE PUSH1 0xC0 SWAP1 DUP2 ADD MLOAD SWAP1 DUP5 ADD MSTORE SWAP4 DUP8 ADD SWAP4 PUSH1 0xE0 SWAP1 SWAP3 ADD SWAP2 PUSH1 0x1 ADD PUSH2 0x578B JUMP JUMPDEST POP SWAP1 SWAP10 SWAP9 POP POP POP POP POP POP POP POP POP JUMP JUMPDEST PUSH1 0x1 DUP2 DUP2 SHR SWAP1 DUP3 AND DUP1 PUSH2 0x580B JUMPI PUSH1 0x7F DUP3 AND SWAP2 POP JUMPDEST PUSH1 0x20 DUP3 LT DUP2 EQ ISZERO PUSH2 0x582C JUMPI PUSH4 0x4E487B71 PUSH1 0xE0 SHL PUSH1 0x0 MSTORE PUSH1 0x22 PUSH1 0x4 MSTORE PUSH1 0x24 PUSH1 0x0 REVERT JUMPDEST POP SWAP2 SWAP1 POP JUMP JUMPDEST PUSH1 0x20 DUP1 DUP3 MSTORE DUP2 DUP2 ADD MSTORE PUSH32 0x4F776E61626C653A2063616C6C6572206973206E6F7420746865206F776E6572 PUSH1 0x40 DUP3 ADD MSTORE PUSH1 0x60 ADD SWAP1 JUMP JUMPDEST PUSH1 0x20 DUP1 DUP3 MSTORE PUSH1 0x19 SWAP1 DUP3 ADD MSTORE PUSH32 0x4C6F636B65642057616C6C6574206E6F74207374617274656400000000000000 PUSH1 0x40 DUP3 ADD MSTORE PUSH1 0x60 ADD SWAP1 JUMP JUMPDEST PUSH1 0x0 PUSH1 0x20 DUP3 DUP5 SUB SLT ISZERO PUSH2 0x58B0 JUMPI PUSH1 0x0 DUP1 REVERT JUMPDEST DUP2 MLOAD PUSH2 0x2961 DUP2 PUSH2 0x55FE JUMP JUMPDEST PUSH1 0x20 DUP1 DUP3 MSTORE PUSH1 0x11 SWAP1 DUP3 ADD MSTORE PUSH17 0x57616C6C6574204F776E6572204F6E6C79 PUSH1 0x78 SHL PUSH1 0x40 DUP3 ADD MSTORE PUSH1 0x60 ADD SWAP1 JUMP JUMPDEST PUSH2 0x6E0 DUP2 ADD DUP2 DUP4 PUSH1 0x0 JUMPDEST PUSH1 0x37 DUP2 LT ISZERO PUSH2 0x590F JUMPI DUP2 MLOAD DUP4 MSTORE PUSH1 0x20 SWAP3 DUP4 ADD SWAP3 SWAP1 SWAP2 ADD SWAP1 PUSH1 0x1 ADD PUSH2 0x58F0 JUMP JUMPDEST POP POP POP SWAP3 SWAP2 POP POP JUMP JUMPDEST PUSH1 0x0 PUSH1 0x20 DUP3 DUP5 SUB SLT ISZERO PUSH2 0x592A JUMPI PUSH1 0x0 DUP1 REVERT JUMPDEST POP MLOAD SWAP2 SWAP1 POP JUMP JUMPDEST PUSH4 0x4E487B71 PUSH1 0xE0 SHL PUSH1 0x0 MSTORE PUSH1 0x11 PUSH1 0x4 MSTORE PUSH1 0x24 PUSH1 0x0 REVERT JUMPDEST PUSH1 0x0 DUP3 NOT DUP3 GT ISZERO PUSH2 0x595A JUMPI PUSH2 0x595A PUSH2 0x5931 JUMP JUMPDEST POP ADD SWAP1 JUMP JUMPDEST PUSH4 0x4E487B71 PUSH1 0xE0 SHL PUSH1 0x0 MSTORE PUSH1 0x32 PUSH1 0x4 MSTORE PUSH1 0x24 PUSH1 0x0 REVERT JUMPDEST PUSH1 0x20 DUP1 DUP3 MSTORE PUSH1 0x2F SWAP1 DUP3 ADD MSTORE PUSH32 0x5374616B61626C653A2054686973206164647265737320646F6573206E6F7420 PUSH1 0x40 DUP3 ADD MSTORE PUSH15 0x6861766520616E79207374616B6573 PUSH1 0x88 SHL PUSH1 0x60 DUP3 ADD MSTORE PUSH1 0x80 ADD SWAP1 JUMP JUMPDEST PUSH4 0x4E487B71 PUSH1 0xE0 SHL PUSH1 0x0 MSTORE PUSH1 0x12 PUSH1 0x4 MSTORE PUSH1 0x24 PUSH1 0x0 REVERT JUMPDEST PUSH1 0x0 DUP3 PUSH2 0x59F7 JUMPI PUSH4 0x4E487B71 PUSH1 0xE0 SHL PUSH1 0x0 MSTORE PUSH1 0x12 PUSH1 0x4 MSTORE PUSH1 0x24 PUSH1 0x0 REVERT JUMPDEST POP DIV SWAP1 JUMP JUMPDEST PUSH1 0x0 DUP3 DUP3 LT ISZERO PUSH2 0x5A0E JUMPI PUSH2 0x5A0E PUSH2 0x5931 JUMP JUMPDEST POP SUB SWAP1 JUMP JUMPDEST PUSH1 0x0 DUP2 PUSH1 0x0 NOT DIV DUP4 GT DUP3 ISZERO ISZERO AND ISZERO PUSH2 0x5A2D JUMPI PUSH2 0x5A2D PUSH2 0x5931 JUMP JUMPDEST POP MUL SWAP1 JUMP JUMPDEST PUSH1 0x0 PUSH1 0x0 NOT DUP3 EQ ISZERO PUSH2 0x5A46 JUMPI PUSH2 0x5A46 PUSH2 0x5931 JUMP JUMPDEST POP PUSH1 0x1 ADD SWAP1 JUMP INVALID MSTORE8 PUSH21 0x616B61626C653A204572726F722063616E6E6F7420 PUSH5 0x6976696465 KECCAK256 PUSH21 0x696D657374616D705072697661746553616C653A20 NUMBER PUSH2 0x6E6E PUSH16 0x742073756273747261637420746F7461 PUSH13 0x20616D6F756E74207769746820 PUSH4 0x6C61696D PUSH2 0x626C PUSH6 0xDDF252AD1BE2 0xC8 SWAP12 PUSH10 0xC2B068FC378DAA952BA7 CALL PUSH4 0xC4A11628 CREATE2 GAS 0x4D CREATE2 0x23 0xB3 0xEF LOG2 PUSH5 0x6970667358 0x22 SLT KECCAK256 0x2F 0x22 PUSH14 0xEF89ECF9657DF32618DCF74195CD 0x2B NUMBER LOG3 RETURNDATASIZE MLOAD ISZERO 0xCD 0xAD 0xF7 XOR CALLCODE PUSH13 0xECE9DB64736F6C634300080B00 CALLER PUSH1 0xA0 PUSH1 0x40 MSTORE CALLVALUE DUP1 ISZERO PUSH2 0x10 JUMPI PUSH1 0x0 DUP1 REVERT JUMPDEST POP PUSH1 0x40 MLOAD PUSH2 0x652 CODESIZE SUB DUP1 PUSH2 0x652 DUP4 CODECOPY DUP2 ADD PUSH1 0x40 DUP2 SWAP1 MSTORE PUSH2 0x2F SWAP2 PUSH2 0xC0 JUMP JUMPDEST PUSH1 0x0 DUP3 GT PUSH2 0x93 JUMPI PUSH1 0x40 MLOAD PUSH3 0x461BCD PUSH1 0xE5 SHL DUP2 MSTORE PUSH1 0x20 PUSH1 0x4 DUP3 ADD MSTORE PUSH1 0x27 PUSH1 0x24 DUP3 ADD MSTORE PUSH32 0x4C6F636B61626C653A20416D6F756E74206D7573742067726561746572207468 PUSH1 0x44 DUP3 ADD MSTORE PUSH7 0x616E207A65726F PUSH1 0xC8 SHL PUSH1 0x64 DUP3 ADD MSTORE PUSH1 0x84 ADD PUSH1 0x40 MLOAD DUP1 SWAP2 SUB SWAP1 REVERT JUMPDEST PUSH1 0x0 SWAP2 SWAP1 SWAP2 SSTORE PUSH1 0x1 PUSH1 0x1 PUSH1 0xA0 SHL SUB AND PUSH1 0x80 MSTORE TIMESTAMP PUSH1 0x2 SSTORE PUSH1 0x1 DUP1 SLOAD PUSH1 0x1 PUSH1 0x1 PUSH1 0xA0 SHL SUB NOT AND CALLER OR SWAP1 SSTORE PUSH2 0xFD JUMP JUMPDEST PUSH1 0x0 DUP1 PUSH1 0x40 DUP4 DUP6 SUB SLT ISZERO PUSH2 0xD3 JUMPI PUSH1 0x0 DUP1 REVERT JUMPDEST DUP3 MLOAD PUSH1 0x20 DUP5 ADD MLOAD SWAP1 SWAP3 POP PUSH1 0x1 PUSH1 0x1 PUSH1 0xA0 SHL SUB DUP2 AND DUP2 EQ PUSH2 0xF2 JUMPI PUSH1 0x0 DUP1 REVERT JUMPDEST DUP1 SWAP2 POP POP SWAP3 POP SWAP3 SWAP1 POP JUMP JUMPDEST PUSH1 0x80 MLOAD PUSH2 0x53B PUSH2 0x117 PUSH1 0x0 CODECOPY PUSH1 0x0 PUSH1 0x69 ADD MSTORE PUSH2 0x53B PUSH1 0x0 RETURN INVALID PUSH1 0x80 PUSH1 0x40 MSTORE CALLVALUE DUP1 ISZERO PUSH2 0x10 JUMPI PUSH1 0x0 DUP1 REVERT JUMPDEST POP PUSH1 0x4 CALLDATASIZE LT PUSH2 0x62 JUMPI PUSH1 0x0 CALLDATALOAD PUSH1 0xE0 SHR DUP1 PUSH4 0x38AF3EED EQ PUSH2 0x67 JUMPI DUP1 PUSH4 0x67E404CE EQ PUSH2 0xA6 JUMPI DUP1 PUSH4 0x8DA5CB5B EQ PUSH2 0xAC JUMPI DUP1 PUSH4 0xAA8C217C EQ PUSH2 0xBF JUMPI DUP1 PUSH4 0xC8CCA41E EQ PUSH2 0xD1 JUMPI DUP1 PUSH4 0xE7D88C42 EQ PUSH2 0xDC JUMPI JUMPDEST PUSH1 0x0 DUP1 REVERT JUMPDEST PUSH32 0x0 JUMPDEST PUSH1 0x40 MLOAD PUSH1 0x1 PUSH1 0x1 PUSH1 0xA0 SHL SUB SWAP1 SWAP2 AND DUP2 MSTORE PUSH1 0x20 ADD JUMPDEST PUSH1 0x40 MLOAD DUP1 SWAP2 SUB SWAP1 RETURN JUMPDEST CALLER PUSH2 0x89 JUMP JUMPDEST PUSH1 0x1 SLOAD PUSH2 0x89 SWAP1 PUSH1 0x1 PUSH1 0x1 PUSH1 0xA0 SHL SUB AND DUP2 JUMP JUMPDEST PUSH1 0x0 SLOAD JUMPDEST PUSH1 0x40 MLOAD SWAP1 DUP2 MSTORE PUSH1 0x20 ADD PUSH2 0x9D JUMP JUMPDEST PUSH2 0xDA TIMESTAMP PUSH1 0x2 SSTORE JUMP JUMPDEST STOP JUMPDEST PUSH2 0xC3 PUSH2 0xEA CALLDATASIZE PUSH1 0x4 PUSH2 0x355 JUMP JUMPDEST PUSH1 0x1 SLOAD PUSH1 0x0 SWAP1 PUSH1 0x1 PUSH1 0x1 PUSH1 0xA0 SHL SUB AND CALLER EQ PUSH2 0x16A JUMPI PUSH1 0x40 MLOAD PUSH3 0x461BCD PUSH1 0xE5 SHL DUP2 MSTORE PUSH1 0x20 PUSH1 0x4 DUP3 ADD MSTORE PUSH1 0x35 PUSH1 0x24 DUP3 ADD MSTORE PUSH32 0x4C6F636B61626C653A2063616C6C6572206861766520746F2062652054616C61 PUSH1 0x44 DUP3 ADD MSTORE PUSH21 0x1E151BDAD95B8814DB585C9D0810DBDB9D1C9858DD PUSH1 0x5A SHL PUSH1 0x64 DUP3 ADD MSTORE PUSH1 0x84 ADD JUMPDEST PUSH1 0x40 MLOAD DUP1 SWAP2 SUB SWAP1 REVERT JUMPDEST PUSH1 0x0 DUP1 SLOAD GT PUSH2 0x1BB JUMPI PUSH1 0x40 MLOAD PUSH3 0x461BCD PUSH1 0xE5 SHL DUP2 MSTORE PUSH1 0x20 PUSH1 0x4 DUP3 ADD MSTORE PUSH1 0x18 PUSH1 0x24 DUP3 ADD MSTORE PUSH32 0x4C6F636B61626C653A206E6F20746F6B656E73206C6566740000000000000000 PUSH1 0x44 DUP3 ADD MSTORE PUSH1 0x64 ADD PUSH2 0x161 JUMP JUMPDEST PUSH1 0x0 PUSH2 0x1C6 DUP4 PUSH2 0x246 JUMP JUMPDEST SWAP1 POP PUSH1 0x0 DUP2 GT PUSH2 0x218 JUMPI PUSH1 0x40 MLOAD PUSH3 0x461BCD PUSH1 0xE5 SHL DUP2 MSTORE PUSH1 0x20 PUSH1 0x4 DUP3 ADD MSTORE PUSH1 0x1E PUSH1 0x24 DUP3 ADD MSTORE PUSH32 0x4C6F636B61626C653A206E6F20746F6B656E7320746F2072656C656173650000 PUSH1 0x44 DUP3 ADD MSTORE PUSH1 0x64 ADD PUSH2 0x161 JUMP JUMPDEST PUSH2 0x23D PUSH1 0x0 SLOAD DUP3 PUSH1 0x40 MLOAD DUP1 PUSH1 0x60 ADD PUSH1 0x40 MSTORE DUP1 PUSH1 0x36 DUP2 MSTORE PUSH1 0x20 ADD PUSH2 0x4D0 PUSH1 0x36 SWAP2 CODECOPY PUSH2 0x31D JUMP JUMPDEST PUSH1 0x0 SSTORE SWAP3 SWAP2 POP POP JUMP JUMPDEST PUSH1 0x0 DUP1 PUSH3 0x278D00 PUSH1 0x2 SLOAD TIMESTAMP PUSH2 0x25B SWAP2 SWAP1 PUSH2 0x3F8 JUMP JUMPDEST PUSH2 0x265 SWAP2 SWAP1 PUSH2 0x40F JUMP JUMPDEST PUSH1 0x3 SLOAD SWAP1 SWAP2 POP PUSH1 0x0 SWAP1 JUMPDEST PUSH1 0x37 DUP2 GT PUSH2 0x2AB JUMPI PUSH2 0x297 DUP3 DUP7 DUP4 PUSH1 0x37 DUP2 LT PUSH2 0x28D JUMPI PUSH2 0x28D PUSH2 0x431 JUMP JUMPDEST PUSH1 0x20 MUL ADD MLOAD PUSH2 0x349 JUMP JUMPDEST SWAP2 POP DUP1 PUSH2 0x2A3 DUP2 PUSH2 0x447 JUMP JUMPDEST SWAP2 POP POP PUSH2 0x26F JUMP JUMPDEST POP PUSH2 0x2B7 DUP3 PUSH1 0x1 PUSH2 0x462 JUMP JUMPDEST PUSH1 0x3 SSTORE DUP1 PUSH2 0x316 JUMPI PUSH1 0x40 MLOAD PUSH3 0x461BCD PUSH1 0xE5 SHL DUP2 MSTORE PUSH1 0x20 PUSH1 0x4 DUP3 ADD MSTORE PUSH1 0x26 PUSH1 0x24 DUP3 ADD MSTORE PUSH32 0x4C6F636B61626C653A2054686572652773206E6F7468696E6720746F20636C61 PUSH1 0x44 DUP3 ADD MSTORE PUSH6 0x1A5B481E595D PUSH1 0xD2 SHL PUSH1 0x64 DUP3 ADD MSTORE PUSH1 0x84 ADD PUSH2 0x161 JUMP JUMPDEST SWAP4 SWAP3 POP POP POP JUMP JUMPDEST PUSH1 0x0 DUP2 DUP5 DUP5 GT ISZERO PUSH2 0x341 JUMPI PUSH1 0x40 MLOAD PUSH3 0x461BCD PUSH1 0xE5 SHL DUP2 MSTORE PUSH1 0x4 ADD PUSH2 0x161 SWAP2 SWAP1 PUSH2 0x47A JUMP JUMPDEST POP POP POP SWAP1 SUB SWAP1 JUMP JUMPDEST PUSH1 0x0 PUSH2 0x316 DUP3 DUP5 PUSH2 0x462 JUMP JUMPDEST PUSH1 0x0 PUSH2 0x6E0 DUP1 DUP4 DUP6 SUB SLT ISZERO PUSH2 0x369 JUMPI PUSH1 0x0 DUP1 REVERT JUMPDEST DUP4 PUSH1 0x1F DUP5 ADD SLT PUSH2 0x378 JUMPI PUSH1 0x0 DUP1 REVERT JUMPDEST PUSH1 0x40 MLOAD DUP2 DUP2 ADD DUP2 DUP2 LT PUSH8 0xFFFFFFFFFFFFFFFF DUP3 GT OR ISZERO PUSH2 0x3A8 JUMPI PUSH4 0x4E487B71 PUSH1 0xE0 SHL PUSH1 0x0 MSTORE PUSH1 0x41 PUSH1 0x4 MSTORE PUSH1 0x24 PUSH1 0x0 REVERT JUMPDEST PUSH1 0x40 MSTORE SWAP1 DUP4 ADD SWAP1 DUP1 DUP6 DUP4 GT ISZERO PUSH2 0x3BD JUMPI PUSH1 0x0 DUP1 REVERT JUMPDEST DUP5 JUMPDEST DUP4 DUP2 LT ISZERO PUSH2 0x3D7 JUMPI DUP1 CALLDATALOAD DUP3 MSTORE PUSH1 0x20 SWAP2 DUP3 ADD SWAP2 ADD PUSH2 0x3BF JUMP JUMPDEST POP SWAP1 SWAP6 SWAP5 POP POP POP POP POP JUMP JUMPDEST PUSH4 0x4E487B71 PUSH1 0xE0 SHL PUSH1 0x0 MSTORE PUSH1 0x11 PUSH1 0x4 MSTORE PUSH1 0x24 PUSH1 0x0 REVERT JUMPDEST PUSH1 0x0 DUP3 DUP3 LT ISZERO PUSH2 0x40A JUMPI PUSH2 0x40A PUSH2 0x3E2 JUMP JUMPDEST POP SUB SWAP1 JUMP JUMPDEST PUSH1 0x0 DUP3 PUSH2 0x42C JUMPI PUSH4 0x4E487B71 PUSH1 0xE0 SHL PUSH1 0x0 MSTORE PUSH1 0x12 PUSH1 0x4 MSTORE PUSH1 0x24 PUSH1 0x0 REVERT JUMPDEST POP DIV SWAP1 JUMP JUMPDEST PUSH4 0x4E487B71 PUSH1 0xE0 SHL PUSH1 0x0 MSTORE PUSH1 0x32 PUSH1 0x4 MSTORE PUSH1 0x24 PUSH1 0x0 REVERT JUMPDEST PUSH1 0x0 PUSH1 0x0 NOT DUP3 EQ ISZERO PUSH2 0x45B JUMPI PUSH2 0x45B PUSH2 0x3E2 JUMP JUMPDEST POP PUSH1 0x1 ADD SWAP1 JUMP JUMPDEST PUSH1 0x0 DUP3 NOT DUP3 GT ISZERO PUSH2 0x475 JUMPI PUSH2 0x475 PUSH2 0x3E2 JUMP JUMPDEST POP ADD SWAP1 JUMP JUMPDEST PUSH1 0x0 PUSH1 0x20 DUP1 DUP4 MSTORE DUP4 MLOAD DUP1 DUP3 DUP6 ADD MSTORE PUSH1 0x0 JUMPDEST DUP2 DUP2 LT ISZERO PUSH2 0x4A7 JUMPI DUP6 DUP2 ADD DUP4 ADD MLOAD DUP6 DUP3 ADD PUSH1 0x40 ADD MSTORE DUP3 ADD PUSH2 0x48B JUMP JUMPDEST DUP2 DUP2 GT ISZERO PUSH2 0x4B9 JUMPI PUSH1 0x0 PUSH1 0x40 DUP4 DUP8 ADD ADD MSTORE JUMPDEST POP PUSH1 0x1F ADD PUSH1 0x1F NOT AND SWAP3 SWAP1 SWAP3 ADD PUSH1 0x40 ADD SWAP4 SWAP3 POP POP POP JUMP INVALID 0x4C PUSH16 0x636B61626C653A2043616E6E6F742073 PUSH22 0x6273747261637420746F74616C20616D6F756E742077 PUSH10 0x746820636C61696D6162 PUSH13 0x65A26469706673582212206264 LOG0 0xCE PUSH28 0x896344E18368A04EE13B98620374EBD53B7899CB091A7ACE5AF3ED64 PUSH20 0x6F6C634300080B003343616E6E6F74207472616E PUSH20 0x666572206D6F7265207468616E20746F74616C20 PUSH20 0x7570706C79000000000000000000000000000000 "
		},
		"gasEstimates": {
			"creation": {
				"codeDepositCost": "4659800",
				"executionCost": "infinite",
				"totalCost": "infinite"
			},
			"external": {
				"": "infinite",
				"_airdropStatus()": "2399",
				"_lockedWalletStatus()": "2369",
				"_privateSaleStatus()": "2443",
				"_stakingReward()": "2387",
				"_startPrivateSale()": "2363",
				"_taxFee()": "2436",
				"addBeneficiary(address,uint256)": "148369",
				"allowance(address,address)": "infinite",
				"approve(address,uint256)": "24658",
				"balanceOf(address)": "2643",
				"burn(uint256)": "infinite",
				"burnFrom(address,uint256)": "infinite",
				"burnLiquidityReserve(uint256)": "infinite",
				"burnStakingReward(uint256)": "infinite",
				"changeAirdropPercentage(uint256)": "27128",
				"changeAirdropStatus(bool)": "28241",
				"changePenaltyFee(uint256)": "27118",
				"changeTaxFee(uint16)": "28197",
				"claimAirdrop()": "infinite",
				"claimPrivateSale()": "infinite",
				"decimals()": "245",
				"decreaseAllowance(address,uint256)": "27023",
				"getOwner()": "2482",
				"hasMultilockable()": "11317",
				"hasStake(address)": "infinite",
				"increaseAllowance(address,uint256)": "27056",
				"initiateLockedWallet()": "infinite",
				"initiatePrivateSale()": "49947",
				"liquidityReserveBalance()": "2450",
				"mint(address,uint256)": "infinite",
				"mintLiquidityReserve(uint256)": "infinite",
				"mintStakingReward(uint256)": "infinite",
				"name()": "infinite",
				"owner()": "2443",
				"penaltyFee()": "2426",
				"phase_1_total()": "285",
				"phase_2_total()": "327",
				"renounceOwnership()": "28251",
				"stake(uint256,uint256)": "infinite",
				"symbol()": "infinite",
				"taxFee()": "2443",
				"thisAddress()": "279",
				"totalAmount()": "2386",
				"totalSupply()": "2427",
				"totalUser()": "2362",
				"transfer(address,uint256)": "infinite",
				"transferFrom(address,address,uint256)": "infinite",
				"transferOwnership(address)": "infinite",
				"unlockDevPoolWallet_1()": "infinite",
				"unlockDevPoolWallet_2()": "infinite",
				"unlockDevPoolWallet_3()": "infinite",
				"unlockPrivatePlacementWallet()": "infinite",
				"unlockStrategicPartnerWallet_1()": "infinite",
				"unlockStrategicPartnerWallet_2()": "infinite",
				"unlockStrategicPartnerWallet_3()": "infinite",
				"unlockTeamAndProjectCoordinatorWallet_1()": "infinite",
				"unlockTeamAndProjectCoordinatorWallet_2()": "infinite",
				"unlockTeamAndProjectCoordinatorWallet_3()": "infinite",
				"withdrawAllStake(uint256)": "infinite",
				"withdrawStake(uint256,uint256)": "infinite"
			},
			"internal": {
				"_addThirdOfValue(uint256)": "infinite",
				"_burn(address,uint256)": "infinite",
				"_spendAllowance(address,address,uint256)": "infinite",
				"_transfer(address,address,uint256)": "infinite",
				"devPoolReleaseAmount()": "infinite",
				"privatePlacementReleaseAmount()": "infinite",
				"strategicPartnerReleaseAmount()": "infinite",
				"teamAndProjectCoordinatorReleaseAmount()": "infinite"
			}
		},
		"methodIdentifiers": {
			"_airdropStatus()": "7cb85214",
			"_lockedWalletStatus()": "01b75826",
			"_privateSaleStatus()": "ed5c2aa3",
			"_stakingReward()": "06f200bd",
			"_startPrivateSale()": "72fe1e63",
			"_taxFee()": "3b124fe7",
			"addBeneficiary(address,uint256)": "96074e70",
			"allowance(address,address)": "dd62ed3e",
			"approve(address,uint256)": "095ea7b3",
			"balanceOf(address)": "70a08231",
			"burn(uint256)": "42966c68",
			"burnFrom(address,uint256)": "79cc6790",
			"burnLiquidityReserve(uint256)": "8b7c64da",
			"burnStakingReward(uint256)": "0e1b09ed",
			"changeAirdropPercentage(uint256)": "d5dbdf1b",
			"changeAirdropStatus(bool)": "adf3364c",
			"changePenaltyFee(uint256)": "8c63f97f",
			"changeTaxFee(uint16)": "8902cd70",
			"claimAirdrop()": "5b88349d",
			"claimPrivateSale()": "7c2412f9",
			"decimals()": "313ce567",
			"decreaseAllowance(address,uint256)": "a457c2d7",
			"getOwner()": "893d20e8",
			"hasMultilockable()": "19ca147d",
			"hasStake(address)": "e73e14bf",
			"increaseAllowance(address,uint256)": "39509351",
			"initiateLockedWallet()": "c8cca41e",
			"initiatePrivateSale()": "2b1e0f33",
			"liquidityReserveBalance()": "bea8e46b",
			"mint(address,uint256)": "40c10f19",
			"mintLiquidityReserve(uint256)": "d94d4ad6",
			"mintStakingReward(uint256)": "a169c515",
			"name()": "06fdde03",
			"owner()": "8da5cb5b",
			"penaltyFee()": "3dc10ad4",
			"phase_1_total()": "760edffd",
			"phase_2_total()": "fe6c9cc0",
			"renounceOwnership()": "715018a6",
			"stake(uint256,uint256)": "7b0472f0",
			"symbol()": "95d89b41",
			"taxFee()": "a071dcf4",
			"thisAddress()": "d4dca69b",
			"totalAmount()": "1a39d8ef",
			"totalSupply()": "18160ddd",
			"totalUser()": "e1604b70",
			"transfer(address,uint256)": "a9059cbb",
			"transferFrom(address,address,uint256)": "23b872dd",
			"transferOwnership(address)": "f2fde38b",
			"unlockDevPoolWallet_1()": "b8b18e89",
			"unlockDevPoolWallet_2()": "eb9f4ac7",
			"unlockDevPoolWallet_3()": "84f3996d",
			"unlockPrivatePlacementWallet()": "934851ec",
			"unlockStrategicPartnerWallet_1()": "8378a875",
			"unlockStrategicPartnerWallet_2()": "15441bb9",
			"unlockStrategicPartnerWallet_3()": "883d9984",
			"unlockTeamAndProjectCoordinatorWallet_1()": "56029137",
			"unlockTeamAndProjectCoordinatorWallet_2()": "90a4c709",
			"unlockTeamAndProjectCoordinatorWallet_3()": "3f3ef2dc",
			"withdrawAllStake(uint256)": "f729b00f",
			"withdrawStake(uint256,uint256)": "f1fdf469"
		}
	},
	"abi": [
		{
			"inputs": [],
			"stateMutability": "nonpayable",
			"type": "constructor"
		},
		{
			"anonymous": false,
			"inputs": [
				{
					"indexed": true,
					"internalType": "address",
					"name": "from",
					"type": "address"
				},
				{
					"indexed": true,
					"internalType": "address",
					"name": "who",
					"type": "address"
				}
			],
			"name": "AddPrivatePlacement",
			"type": "event"
		},
		{
			"anonymous": false,
			"inputs": [
				{
					"indexed": true,
					"internalType": "address",
					"name": "from",
					"type": "address"
				},
				{
					"indexed": true,
					"internalType": "address",
					"name": "who",
					"type": "address"
				}
			],
			"name": "AddStrategicPartner",
			"type": "event"
		},
		{
			"anonymous": false,
			"inputs": [
				{
					"indexed": false,
					"internalType": "uint256",
					"name": "amount",
					"type": "uint256"
				}
			],
			"name": "AirdropChanged",
			"type": "event"
		},
		{
			"anonymous": false,
			"inputs": [
				{
					"indexed": true,
					"internalType": "address",
					"name": "owner",
					"type": "address"
				},
				{
					"indexed": true,
					"internalType": "address",
					"name": "spender",
					"type": "address"
				},
				{
					"indexed": false,
					"internalType": "uint256",
					"name": "value",
					"type": "uint256"
				}
			],
			"name": "Approval",
			"type": "event"
		},
		{
			"anonymous": false,
			"inputs": [
				{
					"indexed": true,
					"internalType": "address",
					"name": "from",
					"type": "address"
				},
				{
					"indexed": false,
					"internalType": "uint256",
					"name": "amount",
					"type": "uint256"
				}
			],
			"name": "ChangeAirdropPercentage",
			"type": "event"
		},
		{
			"anonymous": false,
			"inputs": [
				{
					"indexed": true,
					"internalType": "address",
					"name": "who",
					"type": "address"
				},
				{
					"indexed": false,
					"internalType": "bool",
					"name": "status",
					"type": "bool"
				}
			],
			"name": "ChangeAirdropStatus",
			"type": "event"
		},
		{
			"anonymous": false,
			"inputs": [
				{
					"indexed": true,
					"internalType": "address",
					"name": "from",
					"type": "address"
				},
				{
					"indexed": false,
					"internalType": "uint256",
					"name": "amount",
					"type": "uint256"
				}
			],
			"name": "ChangePenaltyFee",
			"type": "event"
		},
		{
			"anonymous": false,
			"inputs": [
				{
					"indexed": true,
					"internalType": "address",
					"name": "who",
					"type": "address"
				},
				{
					"indexed": false,
					"internalType": "uint256",
					"name": "amount",
					"type": "uint256"
				}
			],
			"name": "ChangeTax",
			"type": "event"
		},
		{
			"anonymous": false,
			"inputs": [
				{
					"indexed": true,
					"internalType": "address",
					"name": "from",
					"type": "address"
				},
				{
					"indexed": true,
					"internalType": "address",
					"name": "who",
					"type": "address"
				}
			],
			"name": "DeletePrivatePlacement",
			"type": "event"
		},
		{
			"anonymous": false,
			"inputs": [
				{
					"indexed": true,
					"internalType": "address",
					"name": "from",
					"type": "address"
				},
				{
					"indexed": true,
					"internalType": "address",
					"name": "who",
					"type": "address"
				}
			],
			"name": "DeleteStrategicPartner",
			"type": "event"
		},
		{
			"anonymous": false,
			"inputs": [
				{
					"indexed": true,
					"internalType": "address",
					"name": "from",
					"type": "address"
				}
			],
			"name": "InitiateLockedWallet",
			"type": "event"
		},
		{
			"anonymous": false,
			"inputs": [
				{
					"indexed": true,
					"internalType": "address",
					"name": "from",
					"type": "address"
				}
			],
			"name": "InitiatePrivateSale",
			"type": "event"
		},
		{
			"anonymous": false,
			"inputs": [
				{
					"indexed": true,
					"internalType": "address",
					"name": "previousOwner",
					"type": "address"
				},
				{
					"indexed": true,
					"internalType": "address",
					"name": "newOwner",
					"type": "address"
				}
			],
			"name": "OwnershipTransferred",
			"type": "event"
		},
		{
			"anonymous": false,
			"inputs": [
				{
					"indexed": false,
					"internalType": "uint256",
					"name": "amount",
					"type": "uint256"
				}
			],
			"name": "PenaltyChanged",
			"type": "event"
		},
		{
			"anonymous": false,
			"inputs": [
				{
					"indexed": true,
					"internalType": "address",
					"name": "user",
					"type": "address"
				},
				{
					"indexed": false,
					"internalType": "uint256",
					"name": "amount",
					"type": "uint256"
				},
				{
					"indexed": false,
					"internalType": "uint256",
					"name": "index",
					"type": "uint256"
				},
				{
					"indexed": false,
					"internalType": "uint256",
					"name": "timestamp",
					"type": "uint256"
				},
				{
					"indexed": false,
					"internalType": "uint256",
					"name": "releaseTime",
					"type": "uint256"
				}
			],
			"name": "Staked",
			"type": "event"
		},
		{
			"anonymous": false,
			"inputs": [
				{
					"indexed": true,
					"internalType": "address",
					"name": "from",
					"type": "address"
				},
				{
					"indexed": true,
					"internalType": "address",
					"name": "to",
					"type": "address"
				},
				{
					"indexed": false,
					"internalType": "uint256",
					"name": "value",
					"type": "uint256"
				}
			],
			"name": "Transfer",
			"type": "event"
		},
		{
			"stateMutability": "payable",
			"type": "fallback"
		},
		{
			"inputs": [],
			"name": "_airdropStatus",
			"outputs": [
				{
					"internalType": "bool",
					"name": "",
					"type": "bool"
				}
			],
			"stateMutability": "view",
			"type": "function"
		},
		{
			"inputs": [],
			"name": "_lockedWalletStatus",
			"outputs": [
				{
					"internalType": "bool",
					"name": "",
					"type": "bool"
				}
			],
			"stateMutability": "view",
			"type": "function"
		},
		{
			"inputs": [],
			"name": "_privateSaleStatus",
			"outputs": [
				{
					"internalType": "bool",
					"name": "",
					"type": "bool"
				}
			],
			"stateMutability": "view",
			"type": "function"
		},
		{
			"inputs": [],
			"name": "_stakingReward",
			"outputs": [
				{
					"internalType": "uint256",
					"name": "",
					"type": "uint256"
				}
			],
			"stateMutability": "view",
			"type": "function"
		},
		{
			"inputs": [],
			"name": "_startPrivateSale",
			"outputs": [
				{
					"internalType": "uint256",
					"name": "",
					"type": "uint256"
				}
			],
			"stateMutability": "view",
			"type": "function"
		},
		{
			"inputs": [],
			"name": "_taxFee",
			"outputs": [
				{
					"internalType": "uint16",
					"name": "",
					"type": "uint16"
				}
			],
			"stateMutability": "view",
			"type": "function"
		},
		{
			"inputs": [
				{
					"internalType": "address",
					"name": "user",
					"type": "address"
				},
				{
					"internalType": "uint256",
					"name": "amount",
					"type": "uint256"
				}
			],
			"name": "addBeneficiary",
			"outputs": [],
			"stateMutability": "nonpayable",
			"type": "function"
		},
		{
			"inputs": [
				{
					"internalType": "address",
					"name": "owner",
					"type": "address"
				},
				{
					"internalType": "address",
					"name": "spender",
					"type": "address"
				}
			],
			"name": "allowance",
			"outputs": [
				{
					"internalType": "uint256",
					"name": "",
					"type": "uint256"
				}
			],
			"stateMutability": "view",
			"type": "function"
		},
		{
			"inputs": [
				{
					"internalType": "address",
					"name": "spender",
					"type": "address"
				},
				{
					"internalType": "uint256",
					"name": "amount",
					"type": "uint256"
				}
			],
			"name": "approve",
			"outputs": [
				{
					"internalType": "bool",
					"name": "",
					"type": "bool"
				}
			],
			"stateMutability": "nonpayable",
			"type": "function"
		},
		{
			"inputs": [
				{
					"internalType": "address",
					"name": "account",
					"type": "address"
				}
			],
			"name": "balanceOf",
			"outputs": [
				{
					"internalType": "uint256",
					"name": "",
					"type": "uint256"
				}
			],
			"stateMutability": "view",
			"type": "function"
		},
		{
			"inputs": [
				{
					"internalType": "uint256",
					"name": "amount",
					"type": "uint256"
				}
			],
			"name": "burn",
			"outputs": [],
			"stateMutability": "nonpayable",
			"type": "function"
		},
		{
			"inputs": [
				{
					"internalType": "address",
					"name": "account",
					"type": "address"
				},
				{
					"internalType": "uint256",
					"name": "amount",
					"type": "uint256"
				}
			],
			"name": "burnFrom",
			"outputs": [],
			"stateMutability": "nonpayable",
			"type": "function"
		},
		{
			"inputs": [
				{
					"internalType": "uint256",
					"name": "amount_",
					"type": "uint256"
				}
			],
			"name": "burnLiquidityReserve",
			"outputs": [],
			"stateMutability": "nonpayable",
			"type": "function"
		},
		{
			"inputs": [
				{
					"internalType": "uint256",
					"name": "amount_",
					"type": "uint256"
				}
			],
			"name": "burnStakingReward",
			"outputs": [],
			"stateMutability": "nonpayable",
			"type": "function"
		},
		{
			"inputs": [
				{
					"internalType": "uint256",
					"name": "airdrop_",
					"type": "uint256"
				}
			],
			"name": "changeAirdropPercentage",
			"outputs": [],
			"stateMutability": "nonpayable",
			"type": "function"
		},
		{
			"inputs": [
				{
					"internalType": "bool",
					"name": "status_",
					"type": "bool"
				}
			],
			"name": "changeAirdropStatus",
			"outputs": [],
			"stateMutability": "nonpayable",
			"type": "function"
		},
		{
			"inputs": [
				{
					"internalType": "uint256",
					"name": "penaltyFee_",
					"type": "uint256"
				}
			],
			"name": "changePenaltyFee",
			"outputs": [],
			"stateMutability": "nonpayable",
			"type": "function"
		},
		{
			"inputs": [
				{
					"internalType": "uint16",
					"name": "taxFee_",
					"type": "uint16"
				}
			],
			"name": "changeTaxFee",
			"outputs": [],
			"stateMutability": "nonpayable",
			"type": "function"
		},
		{
			"inputs": [],
			"name": "claimAirdrop",
			"outputs": [],
			"stateMutability": "nonpayable",
			"type": "function"
		},
		{
			"inputs": [],
			"name": "claimPrivateSale",
			"outputs": [],
			"stateMutability": "nonpayable",
			"type": "function"
		},
		{
			"inputs": [],
			"name": "decimals",
			"outputs": [
				{
					"internalType": "uint8",
					"name": "",
					"type": "uint8"
				}
			],
			"stateMutability": "pure",
			"type": "function"
		},
		{
			"inputs": [
				{
					"internalType": "address",
					"name": "spender",
					"type": "address"
				},
				{
					"internalType": "uint256",
					"name": "subtractedValue",
					"type": "uint256"
				}
			],
			"name": "decreaseAllowance",
			"outputs": [
				{
					"internalType": "bool",
					"name": "",
					"type": "bool"
				}
			],
			"stateMutability": "nonpayable",
			"type": "function"
		},
		{
			"inputs": [],
			"name": "getOwner",
			"outputs": [
				{
					"internalType": "address",
					"name": "",
					"type": "address"
				}
			],
			"stateMutability": "view",
			"type": "function"
		},
		{
			"inputs": [],
			"name": "hasMultilockable",
			"outputs": [
				{
					"components": [
						{
							"internalType": "uint256",
							"name": "lockedAmount",
							"type": "uint256"
						},
						{
							"internalType": "uint256",
							"name": "amount",
							"type": "uint256"
						},
						{
							"internalType": "bool",
							"name": "phase_1_claimed",
							"type": "bool"
						},
						{
							"internalType": "uint256",
							"name": "latestClaimDay",
							"type": "uint256"
						}
					],
					"internalType": "struct Multilockable.Multilock",
					"name": "",
					"type": "tuple"
				}
			],
			"stateMutability": "view",
			"type": "function"
		},
		{
			"inputs": [
				{
					"internalType": "address",
					"name": "_staker",
					"type": "address"
				}
			],
			"name": "hasStake",
			"outputs": [
				{
					"components": [
						{
							"internalType": "uint256",
							"name": "total_amount",
							"type": "uint256"
						},
						{
							"components": [
								{
									"internalType": "address",
									"name": "user",
									"type": "address"
								},
								{
									"internalType": "uint256",
									"name": "amount",
									"type": "uint256"
								},
								{
									"internalType": "uint256",
									"name": "since",
									"type": "uint256"
								},
								{
									"internalType": "uint256",
									"name": "claimable",
									"type": "uint256"
								},
								{
									"internalType": "uint256",
									"name": "claimable_airdrop",
									"type": "uint256"
								},
								{
									"internalType": "uint256",
									"name": "rewardAPY",
									"type": "uint256"
								},
								{
									"internalType": "uint256",
									"name": "releaseTime",
									"type": "uint256"
								}
							],
							"internalType": "struct Stakable.Stake[]",
							"name": "stakes",
							"type": "tuple[]"
						}
					],
					"internalType": "struct Stakable.StakingSummary",
					"name": "",
					"type": "tuple"
				}
			],
			"stateMutability": "view",
			"type": "function"
		},
		{
			"inputs": [
				{
					"internalType": "address",
					"name": "spender",
					"type": "address"
				},
				{
					"internalType": "uint256",
					"name": "addedValue",
					"type": "uint256"
				}
			],
			"name": "increaseAllowance",
			"outputs": [
				{
					"internalType": "bool",
					"name": "",
					"type": "bool"
				}
			],
			"stateMutability": "nonpayable",
			"type": "function"
		},
		{
			"inputs": [],
			"name": "initiateLockedWallet",
			"outputs": [],
			"stateMutability": "nonpayable",
			"type": "function"
		},
		{
			"inputs": [],
			"name": "initiatePrivateSale",
			"outputs": [],
			"stateMutability": "nonpayable",
			"type": "function"
		},
		{
			"inputs": [],
			"name": "liquidityReserveBalance",
			"outputs": [
				{
					"internalType": "uint256",
					"name": "",
					"type": "uint256"
				}
			],
			"stateMutability": "view",
			"type": "function"
		},
		{
			"inputs": [
				{
					"internalType": "address",
					"name": "to",
					"type": "address"
				},
				{
					"internalType": "uint256",
					"name": "amount",
					"type": "uint256"
				}
			],
			"name": "mint",
			"outputs": [],
			"stateMutability": "nonpayable",
			"type": "function"
		},
		{
			"inputs": [
				{
					"internalType": "uint256",
					"name": "amount_",
					"type": "uint256"
				}
			],
			"name": "mintLiquidityReserve",
			"outputs": [],
			"stateMutability": "nonpayable",
			"type": "function"
		},
		{
			"inputs": [
				{
					"internalType": "uint256",
					"name": "amount_",
					"type": "uint256"
				}
			],
			"name": "mintStakingReward",
			"outputs": [],
			"stateMutability": "nonpayable",
			"type": "function"
		},
		{
			"inputs": [],
			"name": "name",
			"outputs": [
				{
					"internalType": "string",
					"name": "",
					"type": "string"
				}
			],
			"stateMutability": "view",
			"type": "function"
		},
		{
			"inputs": [],
			"name": "owner",
			"outputs": [
				{
					"internalType": "address",
					"name": "",
					"type": "address"
				}
			],
			"stateMutability": "view",
			"type": "function"
		},
		{
			"inputs": [],
			"name": "penaltyFee",
			"outputs": [
				{
					"internalType": "uint256",
					"name": "",
					"type": "uint256"
				}
			],
			"stateMutability": "view",
			"type": "function"
		},
		{
			"inputs": [],
			"name": "phase_1_total",
			"outputs": [
				{
					"internalType": "uint256",
					"name": "",
					"type": "uint256"
				}
			],
			"stateMutability": "view",
			"type": "function"
		},
		{
			"inputs": [],
			"name": "phase_2_total",
			"outputs": [
				{
					"internalType": "uint256",
					"name": "",
					"type": "uint256"
				}
			],
			"stateMutability": "view",
			"type": "function"
		},
		{
			"inputs": [],
			"name": "renounceOwnership",
			"outputs": [],
			"stateMutability": "nonpayable",
			"type": "function"
		},
		{
			"inputs": [
				{
					"internalType": "uint256",
					"name": "_amount",
					"type": "uint256"
				},
				{
					"internalType": "uint256",
					"name": "_stakePeriod",
					"type": "uint256"
				}
			],
			"name": "stake",
			"outputs": [],
			"stateMutability": "nonpayable",
			"type": "function"
		},
		{
			"inputs": [],
			"name": "symbol",
			"outputs": [
				{
					"internalType": "string",
					"name": "",
					"type": "string"
				}
			],
			"stateMutability": "view",
			"type": "function"
		},
		{
			"inputs": [],
			"name": "taxFee",
			"outputs": [
				{
					"internalType": "uint256",
					"name": "",
					"type": "uint256"
				}
			],
			"stateMutability": "view",
			"type": "function"
		},
		{
			"inputs": [],
			"name": "thisAddress",
			"outputs": [
				{
					"internalType": "address",
					"name": "",
					"type": "address"
				}
			],
			"stateMutability": "view",
			"type": "function"
		},
		{
			"inputs": [],
			"name": "totalAmount",
			"outputs": [
				{
					"internalType": "uint256",
					"name": "",
					"type": "uint256"
				}
			],
			"stateMutability": "view",
			"type": "function"
		},
		{
			"inputs": [],
			"name": "totalSupply",
			"outputs": [
				{
					"internalType": "uint256",
					"name": "",
					"type": "uint256"
				}
			],
			"stateMutability": "view",
			"type": "function"
		},
		{
			"inputs": [],
			"name": "totalUser",
			"outputs": [
				{
					"internalType": "uint256",
					"name": "",
					"type": "uint256"
				}
			],
			"stateMutability": "view",
			"type": "function"
		},
		{
			"inputs": [
				{
					"internalType": "address",
					"name": "to",
					"type": "address"
				},
				{
					"internalType": "uint256",
					"name": "amount",
					"type": "uint256"
				}
			],
			"name": "transfer",
			"outputs": [
				{
					"internalType": "bool",
					"name": "",
					"type": "bool"
				}
			],
			"stateMutability": "nonpayable",
			"type": "function"
		},
		{
			"inputs": [
				{
					"internalType": "address",
					"name": "from",
					"type": "address"
				},
				{
					"internalType": "address",
					"name": "to",
					"type": "address"
				},
				{
					"internalType": "uint256",
					"name": "amount",
					"type": "uint256"
				}
			],
			"name": "transferFrom",
			"outputs": [
				{
					"internalType": "bool",
					"name": "",
					"type": "bool"
				}
			],
			"stateMutability": "nonpayable",
			"type": "function"
		},
		{
			"inputs": [
				{
					"internalType": "address",
					"name": "newOwner",
					"type": "address"
				}
			],
			"name": "transferOwnership",
			"outputs": [],
			"stateMutability": "nonpayable",
			"type": "function"
		},
		{
			"inputs": [],
			"name": "unlockDevPoolWallet_1",
			"outputs": [],
			"stateMutability": "nonpayable",
			"type": "function"
		},
		{
			"inputs": [],
			"name": "unlockDevPoolWallet_2",
			"outputs": [],
			"stateMutability": "nonpayable",
			"type": "function"
		},
		{
			"inputs": [],
			"name": "unlockDevPoolWallet_3",
			"outputs": [],
			"stateMutability": "nonpayable",
			"type": "function"
		},
		{
			"inputs": [],
			"name": "unlockPrivatePlacementWallet",
			"outputs": [],
			"stateMutability": "nonpayable",
			"type": "function"
		},
		{
			"inputs": [],
			"name": "unlockStrategicPartnerWallet_1",
			"outputs": [],
			"stateMutability": "nonpayable",
			"type": "function"
		},
		{
			"inputs": [],
			"name": "unlockStrategicPartnerWallet_2",
			"outputs": [],
			"stateMutability": "nonpayable",
			"type": "function"
		},
		{
			"inputs": [],
			"name": "unlockStrategicPartnerWallet_3",
			"outputs": [],
			"stateMutability": "nonpayable",
			"type": "function"
		},
		{
			"inputs": [],
			"name": "unlockTeamAndProjectCoordinatorWallet_1",
			"outputs": [],
			"stateMutability": "nonpayable",
			"type": "function"
		},
		{
			"inputs": [],
			"name": "unlockTeamAndProjectCoordinatorWallet_2",
			"outputs": [],
			"stateMutability": "nonpayable",
			"type": "function"
		},
		{
			"inputs": [],
			"name": "unlockTeamAndProjectCoordinatorWallet_3",
			"outputs": [],
			"stateMutability": "nonpayable",
			"type": "function"
		},
		{
			"inputs": [
				{
					"internalType": "uint256",
					"name": "stake_index",
					"type": "uint256"
				}
			],
			"name": "withdrawAllStake",
			"outputs": [],
			"stateMutability": "nonpayable",
			"type": "function"
		},
		{
			"inputs": [
				{
					"internalType": "uint256",
					"name": "amount",
					"type": "uint256"
				},
				{
					"internalType": "uint256",
					"name": "stake_index",
					"type": "uint256"
				}
			],
			"name": "withdrawStake",
			"outputs": [],
			"stateMutability": "nonpayable",
			"type": "function"
		},
		{
			"stateMutability": "payable",
			"type": "receive"
		}
	]
}