{
	"data": {
		"bytecode": {
			"linkReferences": {},
			"object": "6080604052600f80546001600160a01b031990811673f8e81d47203a594245e36c48e151709f0c19fbe8179091556010805490911690553480156200004357600080fd5b50604080518082018252600881526754414c415845554d60c01b6020808301918252835180850190945260058452640a8829882b60db1b90840152815191929162000091916003916200038a565b508051620000a79060049060208401906200038a565b505050620000c4620000be620002fc60201b60201c565b62000300565b6b43dacaf91c1a84ff080000006008908155600c805460ff1916600117905560067f1b25c710cd36f6abd0d946f0bf4d8862460476968c07544e42c0a1bbebcf00bd81905560077f966c1dcd8a18560ec136a9e50a17e02db9367b367229ee43c437a3440f36d0f4557fd0e6b5283e0b9899549d93300d324f253a7f0822541f6d3a17527f12677a3a1682905560209081526a9fcfb0fc7841bc4e0000007f891cf20bba0e2403d70503485410f9aa139c228fe0c137dfb306054e35720fc0556a0b949d854f34fece0000007ff6be214e40ac57281f01e6366a3ae0aa62f7b8158fc336ad458dfce3639cdc068190557fd425a2883afe66e258ee8c119b0aaf5cc068c0af5422ae9a63879931cfe5073f8190557f8e937152507070f5f3f0ff94794d36d8fa7d09c9587ccb84134fa1a352dcd0655533600090815260408082206a497de7a8c09da7bee8000090559080526a53836ff11d562962c800007f54cdd369e4e8a8515e52ca72ec816c2101831ad1f18bf44102ed171459c9b4f855601180546001600160a01b031990811673d9145cce52d386f254917e481eb44e9943f3913817909155600f546012805483166001600160a01b0392831617905560138054831690556010546014805490931691161790558051808201909152601981527f496e73756666696369656e7420546f74616c20537570706c7900000000000000818301529154620002f39290916b2d9ae8ee2246267158800000919062002c5462000352821b17901c565b600855620004c5565b3390565b600580546001600160a01b038381166001600160a01b0319831681179093556040519116919082907f8be0079c531659141344cd1fd0a4f28419497f9722a3daafe3b4186f6b6457e090600090a35050565b60008184841115620003825760405162461bcd60e51b815260040162000379919062000430565b60405180910390fd5b505050900390565b828054620003989062000488565b90600052602060002090601f016020900481019282620003bc576000855562000407565b82601f10620003d757805160ff191683800117855562000407565b8280016001018555821562000407579182015b8281111562000407578251825591602001919060010190620003ea565b506200041592915062000419565b5090565b5b808211156200041557600081556001016200041a565b600060208083528351808285015260005b818110156200045f5785810183015185820160400152820162000441565b8181111562000472576000604083870101525b50601f01601f1916929092016040019392505050565b600181811c908216806200049d57607f821691505b60208210811415620004bf57634e487b7160e01b600052602260045260246000fd5b50919050565b6147e180620004d56000396000f3fe608060405260043610620003bb5760003560e01c80638c63f97f11620001f3578063c4dba83b116200010f578063dd62ed3e11620000a3578063efa04c821162000079578063efa04c821462000ad1578063f2fde38b1462000af3578063f3388e751462000b18578063fa47026c1462000b3a57620003ce565b8063dd62ed3e1462000a43578063e6469a661462000a8d578063e6578ea01462000aaf57620003ce565b8063cf3364ae11620000e5578063cf3364ae14620009bc578063d5dbdf1b14620009d4578063d94d4ad614620009f9578063dd1b7b371462000a1e57620003ce565b8063c4dba83b146200097f578063c61a13411462000997578063cbb109ac14620007f357620003ce565b8063a169c5151162000187578063a9059cbb116200015d578063a9059cbb1462000908578063b8dd0099146200092d578063bad4346c146200094f578063bed9d861146200096757620003ce565b8063a169c515146200089c578063a457c2d714620008c1578063a837a65e14620008e657620003ce565b80638da5cb5b11620001c95780638da5cb5b146200083057806395d89b4114620008505780639f391aaf1462000868578063a071dcf4146200088057620003ce565b80638c63f97f14620007ce5780638ccd4b6a14620007f35780638d4a3c85146200080b57620003ce565b806340c10f1911620002e357806370a082311162000277578063795495c5116200024d578063795495c5146200073d57806379cc6790146200075f5780637b0472f014620007845780638b7c64da14620007a957620003ce565b806370a0823114620006c6578063715018a6146200070057806375290061146200071857620003ce565b80634f075bff11620002b95780634f075bff1462000642578063569e712714620006675780635b88349d146200068957806363a599a414620006a157620003ce565b806340c10f1914620005d357806342966c6814620005f8578063471a30a2146200061d57620003ce565b806315adac1a116200035b57806325e8a2cc116200033157806325e8a2cc14620005475780632cf1a5fb1462000569578063313ce567146200058a5780633950935114620005ae57620003ce565b806315adac1a14620004d057806318160ddd146200050b57806323b872dd146200052257620003ce565b806306fdde03116200039157806306fdde03146200044e578063095ea7b314620004755780630e1b09ed14620004ab57620003ce565b80630145224d14620003d9578063021fb2f214620003fe578063042249bb146200042357620003ce565b36620003ce57620003cc3462000b52565b005b620003cc3462000b52565b348015620003e657600080fd5b50620003cc620003f8366004620034a8565b62000ccc565b3480156200040b57600080fd5b50620003cc6200041d36600462003522565b62000e91565b3480156200043057600080fd5b506200043b600a5481565b6040519081526020015b60405180910390f35b3480156200045b57600080fd5b506200046662001027565b6040516200044591906200358a565b3480156200048257600080fd5b506200049a62000494366004620035ff565b620010c1565b604051901515815260200162000445565b348015620004b857600080fd5b50620003cc620004ca3660046200362c565b620010db565b348015620004dd57600080fd5b50601654620004f2906001600160a01b031681565b6040516001600160a01b03909116815260200162000445565b3480156200051857600080fd5b506008546200043b565b3480156200052f57600080fd5b506200049a6200054136600462003646565b62001186565b3480156200055457600080fd5b50601854620004f2906001600160a01b031681565b3480156200057657600080fd5b50600c546200049a90610100900460ff1681565b3480156200059757600080fd5b5060125b60405160ff909116815260200162000445565b348015620005bb57600080fd5b506200049a620005cd366004620035ff565b620011ae565b348015620005e057600080fd5b50620003cc620005f2366004620035ff565b620011f1565b3480156200060557600080fd5b50620003cc620006173660046200362c565b6200124c565b3480156200062a57600080fd5b50620003cc6200063c36600462003687565b6200125b565b3480156200064f57600080fd5b50620003cc62000661366004620034a8565b62001346565b3480156200067457600080fd5b50601a54620004f2906001600160a01b031681565b3480156200069657600080fd5b50620003cc620014bd565b348015620006ae57600080fd5b50620003cc620006c03660046200362c565b62001617565b348015620006d357600080fd5b506200043b620006e5366004620036ac565b6001600160a01b031660009081526006602052604090205490565b3480156200070d57600080fd5b50620003cc62001662565b3480156200072557600080fd5b50620003cc6200073736600462003522565b620016bb565b3480156200074a57600080fd5b50601954620004f2906001600160a01b031681565b3480156200076c57600080fd5b50620003cc6200077e366004620035ff565b62001813565b3480156200079157600080fd5b50620003cc620007a3366004620036ca565b6200182c565b348015620007b657600080fd5b50620003cc620007c83660046200362c565b62001978565b348015620007db57600080fd5b50620003cc620007ed3660046200362c565b62001a37565b3480156200080057600080fd5b50620003cc62001b3e565b3480156200081857600080fd5b50620003cc6200082a366004620035ff565b62001be9565b3480156200083d57600080fd5b506005546001600160a01b0316620004f2565b3480156200085d57600080fd5b506200046662001dcd565b3480156200087557600080fd5b50620003cc62001dde565b3480156200088d57600080fd5b50600c546200059b9060ff1681565b348015620008a957600080fd5b50620003cc620008bb3660046200362c565b620023ef565b348015620008ce57600080fd5b506200049a620008e0366004620035ff565b62002445565b348015620008f357600080fd5b50600f54620004f2906001600160a01b031681565b3480156200091557600080fd5b506200049a62000927366004620035ff565b620024f3565b3480156200093a57600080fd5b50600c546200049a9062010000900460ff1681565b3480156200095c57600080fd5b506200043b600b5481565b3480156200097457600080fd5b50620003cc62002503565b3480156200098c57600080fd5b50620003cc6200260e565b348015620009a457600080fd5b50620003cc620009b636600462003522565b620026c5565b348015620009c957600080fd5b506200043b600d5481565b348015620009e157600080fd5b50620003cc620009f33660046200362c565b6200281d565b34801562000a0657600080fd5b50620003cc62000a183660046200362c565b62002924565b34801562000a2b57600080fd5b50620003cc62000a3d366004620034a8565b620029e3565b34801562000a5057600080fd5b506200043b62000a62366004620036ed565b6001600160a01b03918216600090815260076020908152604080832093909416825291909152205490565b34801562000a9a57600080fd5b50601554620004f2906001600160a01b031681565b34801562000abc57600080fd5b50601054620004f2906001600160a01b031681565b34801562000ade57600080fd5b50601754620004f2906001600160a01b031681565b34801562000b0057600080fd5b50620003cc62000b12366004620036ac565b62002b5a565b34801562000b2557600080fd5b50600e54620004f2906001600160a01b031681565b34801562000b4757600080fd5b50620003cc62002c2e565b600062000b6182600362002c83565b73e61e7a7d16db384433e532fb85724e7f3bdaae2f60005260066020527fa61d053f628328bedc0cde2f09cefea77d8ad994d84171f45060a0420b725d535490915062000baf908262002c98565b60066020527fa61d053f628328bedc0cde2f09cefea77d8ad994d84171f45060a0420b725d535573406605eb24a97a2d61b516d8d850f2aefa6a731a6000527fe094d0232fbe139cacbc5fa4fb09838941a05f2c437bc421439d53040dbe6e425462000c1c908262002c98565b60066020527fe094d0232fbe139cacbc5fa4fb09838941a05f2c437bc421439d53040dbe6e42557397620deadc98bc8173303686037ce7b986cf53c36000527f14047e4336222560e28fbbff025d91d81f9e88358b8b7a8255bad99bb74c06e05462000c89908262002c98565b7397620deadc98bc8173303686037ce7b986cf53c360005260066020527f14047e4336222560e28fbbff025d91d81f9e88358b8b7a8255bad99bb74c06e0555050565b6005546001600160a01b0316331462000d1b5760405162461bcd60e51b815260206004820181905260248201526000805160206200478c83398151915260448201526064015b60405180910390fd5b62000d2562002ca6565b8062000d655760405162461bcd60e51b815260206004820152600e60248201526d139bdd1a1a5b99c81d1bc818591960921b604482015260640162000d12565b60005b8181101562000e47576012546001600160a01b03166396074e7084848481811062000d975762000d9762003725565b62000daf9260206040909202019081019150620036ac565b85858581811062000dc45762000dc462003725565b905060400201602001356040518363ffffffff1660e01b815260040162000e009291906001600160a01b03929092168252602082015260400190565b600060405180830381600087803b15801562000e1b57600080fd5b505af115801562000e30573d6000803e3d6000fd5b5050505062000e3f8160010190565b905062000d68565b50336001600160a01b03167fa0399de992f1feaefa358d72dbe41236283df49954645a97c6cdf67fe512d8c5838360405162000e859291906200373b565b60405180910390a25050565b6005546001600160a01b0316331462000edc5760405162461bcd60e51b815260206004820181905260248201526000805160206200478c833981519152604482015260640162000d12565b62000ee662002ca6565b8062000f295760405162461bcd60e51b81526020600482015260116024820152704e6f7468696e6720746f2064656c65746560781b604482015260640162000d12565b60005b8181101562000fe9576012546001600160a01b0316637d3bca7684848481811062000f5b5762000f5b62003725565b905060200201602081019062000f729190620036ac565b6040516001600160e01b031960e084901b1681526001600160a01b0390911660048201526024016020604051808303816000875af115801562000fb9573d6000803e3d6000fd5b505050506040513d601f19601f8201168201806040525081019062000fdf919062003796565b5060010162000f2c565b50336001600160a01b03167f291dfe4715509c3f59f312a5ac129163bd5a374b94ee9d18cc0ca02fc3b99049838360405162000e85929190620037b0565b606060038054620010389062003800565b80601f0160208091040260200160405190810160405280929190818152602001828054620010669062003800565b8015620010b75780601f106200108b57610100808354040283529160200191620010b7565b820191906000526020600020905b8154815290600101906020018083116200109957829003601f168201915b5050505050905090565b600033620010d181858562002d05565b5060019392505050565b6005546001600160a01b03163314620011265760405162461bcd60e51b815260206004820181905260248201526000805160206200478c833981519152604482015260640162000d12565b600a5462001135908262002e5a565b600a5560085462001147908262002e5a565b60085560405181815260009030907f715128ea18bcb5a472f8187c4fbfdc1ed6d04ecdcff67e3f546fdd075e862665906020015b60405180910390a350565b6000336200119685828562002e68565b620011a385858562002ef9565b506001949350505050565b3360008181526007602090815260408083206001600160a01b0387168452909152812054909190620010d19082908690620011eb90879062003853565b62002d05565b6005546001600160a01b031633146200123c5760405162461bcd60e51b815260206004820181905260248201526000805160206200478c833981519152604482015260640162000d12565b62001248828262003177565b5050565b6200125833826200325c565b50565b6005546001600160a01b03163314620012a65760405162461bcd60e51b815260206004820181905260248201526000805160206200478c833981519152604482015260640162000d12565b60058160ff1610620012fb5760405162461bcd60e51b815260206004820152601560248201527f54617820466565206d6178696d756d2069732035250000000000000000000000604482015260640162000d12565b600c805460ff191660ff831690811790915560405190815233907fdf92943b31fff67e8447ff9fa8b5e226ddcc5fb34d36cfe120c0f2b96eb8d6f7906020015b60405180910390a250565b6005546001600160a01b03163314620013915760405162461bcd60e51b815260206004820181905260248201526000805160206200478c833981519152604482015260640162000d12565b6200139b62002ca6565b80620013db5760405162461bcd60e51b815260206004820152600e60248201526d139bdd1a1a5b99c81d1bc818591960921b604482015260640162000d12565b60005b8181101562000e47576014546001600160a01b03166396074e708484848181106200140d576200140d62003725565b620014259260206040909202019081019150620036ac565b8585858181106200143a576200143a62003725565b905060400201602001356040518363ffffffff1660e01b8152600401620014769291906001600160a01b03929092168252602082015260400190565b600060405180830381600087803b1580156200149157600080fd5b505af1158015620014a6573d6000803e3d6000fd5b50505050620014b58160010190565b9050620013de565b620014c762002ca6565b600c5460ff610100909104161515600114620015265760405162461bcd60e51b815260206004820152601760248201527f41697264726f70206e6f74207965742073746172746564000000000000000000604482015260640162000d12565b6011546000906001600160a01b03166365f8c6c5336040516001600160e01b031960e084901b1681526001600160a01b039091166004820152602401602060405180830381865afa15801562001580573d6000803e3d6000fd5b505050506040513d601f19601f82011682018060405250810190620015a6919062003796565b30600090815260066020526040902054909150620015c5908262002e5a565b30600090815260066020819052604082209290925562001604918391335b6001600160a01b031681526020810191909152604001600020549062002c98565b3360009081526006602052604090205550565b3360009081526006602052604090205462001633908262002e5a565b33600090815260066020526040812091909155600b80548392906200165a90849062003853565b909155505050565b6005546001600160a01b03163314620016ad5760405162461bcd60e51b815260206004820181905260248201526000805160206200478c833981519152604482015260640162000d12565b620016b96000620033e0565b565b6005546001600160a01b03163314620017065760405162461bcd60e51b815260206004820181905260248201526000805160206200478c833981519152604482015260640162000d12565b6200171062002ca6565b80620017535760405162461bcd60e51b81526020600482015260116024820152704e6f7468696e6720746f2064656c65746560781b604482015260640162000d12565b60005b8181101562000fe9576014546001600160a01b0316637d3bca7684848481811062001785576200178562003725565b90506020020160208101906200179c9190620036ac565b6040516001600160e01b031960e084901b1681526001600160a01b0390911660048201526024016020604051808303816000875af1158015620017e3573d6000803e3d6000fd5b505050506040513d601f19601f8201168201806040525081019062001809919062003796565b5060010162001756565b6200182082338362002e68565b6200124882826200325c565b806276a70014806200184057508062ed4e00145b806200184f5750806301e13380145b6200189d5760405162461bcd60e51b815260206004820152601b60248201527f5374616b696e67206f7074696f6e20646f65736e742065786973740000000000604482015260640162000d12565b620018a933836200325c565b601154600082815260096020526040908190205490517ff93d4f8a000000000000000000000000000000000000000000000000000000008152336004820152602481018590526044810184905260648101919091526001600160a01b039091169063f93d4f8a90608401600060405180830381600087803b1580156200192e57600080fd5b505af115801562001943573d6000803e3d6000fd5b50503060009081526006602052604090205462001964925090508362002c98565b306000908152600660205260409020555050565b6005546001600160a01b03163314620019c35760405162461bcd60e51b815260206004820181905260248201526000805160206200478c833981519152604482015260640162000d12565b30600090815260066020526040902054620019df908262002e5a565b30600090815260066020526040902055600854620019fe908262002e5a565b60085560405181815260009030907fddf252ad1be2c89b69c2b068fc378daa952ba7f163c4a11628f55a4df523b3ef906020016200117b565b6005546001600160a01b0316331462001a825760405162461bcd60e51b815260206004820181905260248201526000805160206200478c833981519152604482015260640162000d12565b6011546040517f8c63f97f000000000000000000000000000000000000000000000000000000008152600481018390526001600160a01b0390911690638c63f97f90602401600060405180830381600087803b15801562001ae257600080fd5b505af115801562001af7573d6000803e3d6000fd5b5050505062001b033390565b6001600160a01b03167fe4d1041ab63832a18ae323c0781239637b799ccd1ffa03b0cc4c0916f14834d7826040516200133b91815260200190565b62001b4862002ca6565b60125462001bd7906001600160a01b0316625171f4335b6040516001600160e01b031960e084901b1681526001600160a01b0390911660048201526024016020604051808303816000875af115801562001ba6573d6000803e3d6000fd5b505050506040513d601f19601f8201168201806040525081019062001bcc919062003796565b6006600033620015e3565b33600090815260066020526040902055565b6005546001600160a01b0316331462001c345760405162461bcd60e51b815260206004820181905260248201526000805160206200478c833981519152604482015260640162000d12565b601154604080517f671d2b7500000000000000000000000000000000000000000000000000000000815290516000926001600160a01b03169163671d2b759160048083019260209291908290030181865afa15801562001c98573d6000803e3d6000fd5b505050506040513d601f19601f8201168201806040525081019062001cbe91906200386e565b90506001811515141562001d1d57600b5462001cdb908362002e5a565b600b556001600160a01b03831660009081526006602052604090205462001d03908362002c98565b6001600160a01b0384166000908152600660205260409020555b601160009054906101000a90046001600160a01b03166001600160a01b031663fab2f86b6040518163ffffffff1660e01b8152600401600060405180830381600087803b15801562001d6e57600080fd5b505af115801562001d83573d6000803e3d6000fd5b50506040518481526001600160a01b03861692503091507fad139bbbe5ed2d442d6797c48156ddf43b2ea733815cb7f8047085763108ee22906020015b60405180910390a3505050565b606060048054620010389062003800565b6005546001600160a01b0316331462001e295760405162461bcd60e51b815260206004820181905260248201526000805160206200478c833981519152604482015260640162000d12565b600c5462010000900460ff161562001e845760405162461bcd60e51b815260206004820152601560248201527f4e6f7468696e6720746f20696e697469616c697a650000000000000000000000604482015260640162000d12565b600c805462ff0000191662010000179055600d5460405173f09f65dd4d229e991901669ad7c7549f060e30b9919063056847009062001ec3906200349a565b6001600160a01b03909316835267ffffffffffffffff9182166020840152166040820152606001604051809103906000f08015801562001f07573d6000803e3d6000fd5b50601560006101000a8154816001600160a01b0302191690836001600160a01b03160217905550731a2118e056d6af192e233c2c9cfb34e067ded1f8600d54630568470060405162001f59906200349a565b6001600160a01b03909316835267ffffffffffffffff9182166020840152166040820152606001604051809103906000f08015801562001f9d573d6000803e3d6000fd5b50601660006101000a8154816001600160a01b0302191690836001600160a01b0316021790555073126974fa373267d86fab6d6871afe62ccb68e810600d54630568470060405162001fef906200349a565b6001600160a01b03909316835267ffffffffffffffff9182166020840152166040820152606001604051809103906000f08015801562002033573d6000803e3d6000fd5b50601780546001600160a01b0319166001600160a01b0392909216919091179055600d5473e61e7a7d16db384433e532fb85724e7f3bdaae2f906200207d906301b30f0062003892565b63058fd40060405162002090906200349a565b6001600160a01b03909316835267ffffffffffffffff9182166020840152166040820152606001604051809103906000f080158015620020d4573d6000803e3d6000fd5b50601880546001600160a01b0319166001600160a01b0392909216919091179055600d5473406605eb24a97a2d61b516d8d850f2aefa6a731a906200211e906301b30f0062003892565b63058fd40060405162002131906200349a565b6001600160a01b03909316835267ffffffffffffffff9182166020840152166040820152606001604051809103906000f08015801562002175573d6000803e3d6000fd5b50601980546001600160a01b0319166001600160a01b0392909216919091179055600d547397620deadc98bc8173303686037ce7b986cf53c390620021bf906301b30f0062003892565b63058fd400604051620021d2906200349a565b6001600160a01b03909316835267ffffffffffffffff9182166020840152166040820152606001604051809103906000f08015801562002216573d6000803e3d6000fd5b50601a80546001600160a01b0319166001600160a01b039290921691909117905560405133907fbb0decb63faa4b69e6416703ec08ac4829e218ebafd2876dd518c2742b7b975d90600090a2601360009054906101000a90046001600160a01b03166001600160a01b031663efdd87966040518163ffffffff1660e01b8152600401600060405180830381600087803b158015620022b357600080fd5b505af1158015620022c8573d6000803e3d6000fd5b50505050620022d43390565b6001600160a01b03167f866403fa89d03d5448dc193b4410854bc9a7bc6848faaea5eb612699ced8742960405160405180910390a2600c805461ff001916610100179055601154604080517f71e3db8700000000000000000000000000000000000000000000000000000000815290516001600160a01b03909216916371e3db879160048082019260009290919082900301818387803b1580156200237857600080fd5b505af11580156200238d573d6000803e3d6000fd5b50505050620023993390565b6001600160a01b03167fe596a4fd4ba2e7f54093d98b96267c6b0dbae1e317bed8123d9fbc868c028377600c60019054906101000a900460ff16604051620023e5911515815260200190565b60405180910390a2565b6005546001600160a01b031633146200243a5760405162461bcd60e51b815260206004820181905260248201526000805160206200478c833981519152604482015260640162000d12565b620012588162003432565b3360008181526007602090815260408083206001600160a01b038716845290915281205490919083811015620024e45760405162461bcd60e51b815260206004820152602560248201527f45524332303a2064656372656173656420616c6c6f77616e63652062656c6f7760448201527f207a65726f000000000000000000000000000000000000000000000000000000606482015260840162000d12565b620011a3828686840362002d05565b600033620010d181858562002ef9565b6011546040517fc23a5cea00000000000000000000000000000000000000000000000000000000815233600482015260009182916001600160a01b039091169063c23a5cea9060240160408051808303816000875af11580156200256b573d6000803e3d6000fd5b505050506040513d601f19601f82011682018060405250810190620025919190620038c1565b91509150620025a08162003432565b3060009081526006602052604081208054849290620025c1908490620038e6565b9091555050600a54620025d5908262002e5a565b600a55600854620025e7908362002c98565b600855620025fa62001bcc828462003853565b336000908152600660205260409020555050565b6005546001600160a01b03163314620026595760405162461bcd60e51b815260206004820181905260248201526000805160206200478c833981519152604482015260640162000d12565b601160009054906101000a90046001600160a01b03166001600160a01b0316631ec6b60a6040518163ffffffff1660e01b8152600401600060405180830381600087803b158015620026aa57600080fd5b505af1158015620026bf573d6000803e3d6000fd5b50505050565b6005546001600160a01b03163314620027105760405162461bcd60e51b815260206004820181905260248201526000805160206200478c833981519152604482015260640162000d12565b6200271a62002ca6565b806200275d5760405162461bcd60e51b81526020600482015260116024820152704e6f7468696e6720746f2064656c65746560781b604482015260640162000d12565b60005b8181101562000fe9576013546001600160a01b0316637d3bca768484848181106200278f576200278f62003725565b9050602002016020810190620027a69190620036ac565b6040516001600160e01b031960e084901b1681526001600160a01b0390911660048201526024016020604051808303816000875af1158015620027ed573d6000803e3d6000fd5b505050506040513d601f19601f8201168201806040525081019062002813919062003796565b5060010162002760565b6005546001600160a01b03163314620028685760405162461bcd60e51b815260206004820181905260248201526000805160206200478c833981519152604482015260640162000d12565b6011546040517fd5dbdf1b000000000000000000000000000000000000000000000000000000008152600481018390526001600160a01b039091169063d5dbdf1b90602401600060405180830381600087803b158015620028c857600080fd5b505af1158015620028dd573d6000803e3d6000fd5b50505050620028e93390565b6001600160a01b03167f31bbdc307cb7afab9b265ee4c47f5feb19d8a8702a67c0b695df02e0d4c55b5f826040516200133b91815260200190565b6005546001600160a01b031633146200296f5760405162461bcd60e51b815260206004820181905260248201526000805160206200478c833981519152604482015260640162000d12565b306000908152600660205260409020546200298b908262002c98565b30600090815260066020526040902055600854620029aa908262002c98565b60085560405181815230906000907fddf252ad1be2c89b69c2b068fc378daa952ba7f163c4a11628f55a4df523b3ef906020016200117b565b6005546001600160a01b0316331462002a2e5760405162461bcd60e51b815260206004820181905260248201526000805160206200478c833981519152604482015260640162000d12565b62002a3862002ca6565b8062002a785760405162461bcd60e51b815260206004820152600e60248201526d139bdd1a1a5b99c81d1bc818591960921b604482015260640162000d12565b60005b8181101562000e47576013546001600160a01b03166396074e7084848481811062002aaa5762002aaa62003725565b62002ac29260206040909202019081019150620036ac565b85858581811062002ad75762002ad762003725565b905060400201602001356040518363ffffffff1660e01b815260040162002b139291906001600160a01b03929092168252602082015260400190565b600060405180830381600087803b15801562002b2e57600080fd5b505af115801562002b43573d6000803e3d6000fd5b5050505062002b528160010190565b905062002a7b565b6005546001600160a01b0316331462002ba55760405162461bcd60e51b815260206004820181905260248201526000805160206200478c833981519152604482015260640162000d12565b6001600160a01b03811662002c235760405162461bcd60e51b815260206004820152602660248201527f4f776e61626c653a206e6577206f776e657220697320746865207a65726f206160448201527f6464726573730000000000000000000000000000000000000000000000000000606482015260840162000d12565b6200125881620033e0565b62002c3862002ca6565b60145462001bd7906001600160a01b0316625171f43362001b5f565b6000818484111562002c7b5760405162461bcd60e51b815260040162000d1291906200358a565b505050900390565b600062002c91828462003900565b9392505050565b600062002c91828462003853565b600c5462010000900460ff161515600114620016b95760405162461bcd60e51b815260206004820152600f60248201527f4e6f742079657420737461727465640000000000000000000000000000000000604482015260640162000d12565b6001600160a01b03831662002d825760405162461bcd60e51b8152602060048201526024808201527f45524332303a20617070726f76652066726f6d20746865207a65726f2061646460448201527f7265737300000000000000000000000000000000000000000000000000000000606482015260840162000d12565b6001600160a01b03821662002e005760405162461bcd60e51b815260206004820152602260248201527f45524332303a20617070726f766520746f20746865207a65726f20616464726560448201527f7373000000000000000000000000000000000000000000000000000000000000606482015260840162000d12565b6001600160a01b0383811660008181526007602090815260408083209487168084529482529182902085905590518481527f8c5be1e5ebec7d5bd14f71427d1e84f3dd0314c0f7b2291e5b200ac8c7c3b925910162001dc0565b600062002c918284620038e6565b6001600160a01b038381166000908152600760209081526040808320938616835292905220546000198114620026bf578181101562002eea5760405162461bcd60e51b815260206004820152601d60248201527f45524332303a20696e73756666696369656e7420616c6c6f77616e6365000000604482015260640162000d12565b620026bf848484840362002d05565b6001600160a01b03831662002f515760405162461bcd60e51b815260206004820152601a60248201527f5472616e736665722066726f6d207a65726f2061646472657373000000000000604482015260640162000d12565b6001600160a01b03821662002fa95760405162461bcd60e51b815260206004820152601860248201527f5472616e7366657220746f207a65726f20616464726573730000000000000000604482015260640162000d12565b6001600160a01b038316600090815260066020526040902054818110156200303a5760405162461bcd60e51b815260206004820152602660248201527f45524332303a207472616e7366657220616d6f756e742065786365656473206260448201527f616c616e63650000000000000000000000000000000000000000000000000000606482015260840162000d12565b6001600160a01b03841660009081526006602052604081208383039055600c5462003077906200306f90859060ff166200348c565b606462002c83565b9050600062003087848362002e5a565b90506000620030a46200309c8360026200348c565b600a62002c83565b90506000620030b96200309c8460086200348c565b9050620030c68262000b52565b30600090815260066020526040902054620030e2908262002c98565b30600090815260066020526040808220929092556001600160a01b0389168152205462003110908462002c98565b6001600160a01b0380891660008181526006602052604090819020939093559151908a16907fddf252ad1be2c89b69c2b068fc378daa952ba7f163c4a11628f55a4df523b3ef90620031659087815260200190565b60405180910390a35050505050505050565b6001600160a01b038216620031cf5760405162461bcd60e51b815260206004820152601f60248201527f45524332303a206d696e7420746f20746865207a65726f206164647265737300604482015260640162000d12565b8060086000828254620031e3919062003853565b90915550506001600160a01b038216600090815260066020526040812080548392906200321290849062003853565b90915550506040518181526001600160a01b038316906000907fddf252ad1be2c89b69c2b068fc378daa952ba7f163c4a11628f55a4df523b3ef9060200160405180910390a35050565b6001600160a01b038216620032da5760405162461bcd60e51b815260206004820152602160248201527f45524332303a206275726e2066726f6d20746865207a65726f2061646472657360448201527f7300000000000000000000000000000000000000000000000000000000000000606482015260840162000d12565b6001600160a01b038216600090815260066020526040902054818110156200336b5760405162461bcd60e51b815260206004820152602260248201527f45524332303a206275726e20616d6f756e7420657863656564732062616c616e60448201527f6365000000000000000000000000000000000000000000000000000000000000606482015260840162000d12565b6001600160a01b03831660009081526006602052604081208383039055600880548492906200339c908490620038e6565b90915550506040518281526000906001600160a01b038516907fddf252ad1be2c89b69c2b068fc378daa952ba7f163c4a11628f55a4df523b3ef9060200162001dc0565b600580546001600160a01b038381166001600160a01b0319831681179093556040519116919082907f8be0079c531659141344cd1fd0a4f28419497f9722a3daafe3b4186f6b6457e090600090a35050565b600a5462003441908262002c98565b600a5560085462003453908262002c98565b60085560405181815230906000907f715128ea18bcb5a472f8187c4fbfdc1ed6d04ecdcff67e3f546fdd075e862665906020016200117b565b600062002c91828462003923565b610e46806200394683390190565b60008060208385031215620034bc57600080fd5b823567ffffffffffffffff80821115620034d557600080fd5b818501915085601f830112620034ea57600080fd5b813581811115620034fa57600080fd5b8660208260061b85010111156200351057600080fd5b60209290920196919550909350505050565b600080602083850312156200353657600080fd5b823567ffffffffffffffff808211156200354f57600080fd5b818501915085601f8301126200356457600080fd5b8135818111156200357457600080fd5b8660208260051b85010111156200351057600080fd5b600060208083528351808285015260005b81811015620035b9578581018301518582016040015282016200359b565b81811115620035cc576000604083870101525b50601f01601f1916929092016040019392505050565b80356001600160a01b0381168114620035fa57600080fd5b919050565b600080604083850312156200361357600080fd5b6200361e83620035e2565b946020939093013593505050565b6000602082840312156200363f57600080fd5b5035919050565b6000806000606084860312156200365c57600080fd5b6200366784620035e2565b92506200367760208501620035e2565b9150604084013590509250925092565b6000602082840312156200369a57600080fd5b813560ff8116811462002c9157600080fd5b600060208284031215620036bf57600080fd5b62002c9182620035e2565b60008060408385031215620036de57600080fd5b50508035926020909101359150565b600080604083850312156200370157600080fd5b6200370c83620035e2565b91506200371c60208401620035e2565b90509250929050565b634e487b7160e01b600052603260045260246000fd5b6020808252818101839052600090604080840186845b8781101562003789576001600160a01b036200376d83620035e2565b1683528185013585840152918301919083019060010162003751565b5090979650505050505050565b600060208284031215620037a957600080fd5b5051919050565b60208082528181018390526000908460408401835b86811015620037f5576001600160a01b03620037e184620035e2565b1682529183019190830190600101620037c5565b509695505050505050565b600181811c908216806200381557607f821691505b602082108114156200383757634e487b7160e01b600052602260045260246000fd5b50919050565b634e487b7160e01b600052601160045260246000fd5b600082198211156200386957620038696200383d565b500190565b6000602082840312156200388157600080fd5b8151801515811462002c9157600080fd5b600067ffffffffffffffff808316818516808303821115620038b857620038b86200383d565b01949350505050565b60008060408385031215620038d557600080fd5b505080516020909101519092909150565b600082821015620038fb57620038fb6200383d565b500390565b6000826200391e57634e487b7160e01b600052601260045260246000fd5b500490565b60008160001904831182151516156200394057620039406200383d565b50029056fe60e0604052604051610e46380380610e46833981016040819052610022916100d0565b6001600160a01b03831661008f5760405162461bcd60e51b815260206004820152602a60248201527f56657374696e6757616c6c65743a2062656e6566696369617279206973207a65604482015269726f206164647265737360b01b606482015260840160405180910390fd5b6001600160a01b039092166080526001600160401b0390811660a0521660c052610121565b80516001600160401b03811681146100cb57600080fd5b919050565b6000806000606084860312156100e557600080fd5b83516001600160a01b03811681146100fc57600080fd5b925061010a602085016100b4565b9150610118604085016100b4565b90509250925092565b60805160a05160c051610cbe6101886000396000818161010e0152818161053001526105e4015260008181610251015281816104e00152818161055401528181610597015261060f01526000818161017801528181610339015261046b0152610cbe6000f3fe6080604052600436106100c05760003560e01c806386d1a69f11610074578063a3f8eace1161004e578063a3f8eace14610222578063be9a655514610242578063fbccedae1461027f57600080fd5b806386d1a69f146101c257806396132521146101d75780639852595c146101ec57600080fd5b806319165587116100a5578063191655871461013c57806338af3eed1461015e578063810ec23b146101a257600080fd5b80630a17b06b146100cc5780630fb5a6b4146100ff57600080fd5b366100c757005b600080fd5b3480156100d857600080fd5b506100ec6100e7366004610aac565b610294565b6040519081526020015b60405180910390f35b34801561010b57600080fd5b507f000000000000000000000000000000000000000000000000000000000000000067ffffffffffffffff166100ec565b34801561014857600080fd5b5061015c610157366004610ade565b6102b8565b005b34801561016a57600080fd5b506040516001600160a01b037f00000000000000000000000000000000000000000000000000000000000000001681526020016100f6565b3480156101ae57600080fd5b506100ec6101bd366004610af9565b610362565b3480156101ce57600080fd5b5061015c610411565b3480156101e357600080fd5b506000546100ec565b3480156101f857600080fd5b506100ec610207366004610ade565b6001600160a01b031660009081526001602052604090205490565b34801561022e57600080fd5b506100ec61023d366004610ade565b610493565b34801561024e57600080fd5b507f000000000000000000000000000000000000000000000000000000000000000067ffffffffffffffff166100ec565b34801561028b57600080fd5b506100ec6104c0565b60006102b26102a260005490565b6102ac9047610b42565b836104dc565b92915050565b60006102c382610493565b6001600160a01b0383166000908152600160205260408120805492935083929091906102f0908490610b42565b90915550506040518181526001600160a01b038316907fc0e523490dd523c33b1878c9eb14ff46991e3f5b2cd33710918618f2a39cba1b9060200160405180910390a261035e827f00000000000000000000000000000000000000000000000000000000000000008361066f565b5050565b6001600160a01b03821660009081526001602052604081205461040a906040517f70a082310000000000000000000000000000000000000000000000000000000081523060048201526001600160a01b038616906370a0823190602401602060405180830381865afa1580156103dc573d6000803e3d6000fd5b505050506040513d601f19601f820116820180604052508101906104009190610b5a565b6102ac9190610b42565b9392505050565b600061041b6104c0565b90508060008082825461042e9190610b42565b90915550506040518181527fda9d4e5f101b8b9b1c5b76d0c5a9f7923571acfc02376aa076b75a8c080c956b9060200160405180910390a16104907f0000000000000000000000000000000000000000000000000000000000000000826106f4565b50565b6001600160a01b0381166000908152600160205260408120546104b68342610362565b6102b29190610b73565b600080546104cd42610294565b6104d79190610b73565b905090565b60007f000000000000000000000000000000000000000000000000000000000000000067ffffffffffffffff168267ffffffffffffffff161015610522575060006102b2565b61057967ffffffffffffffff7f00000000000000000000000000000000000000000000000000000000000000008116907f000000000000000000000000000000000000000000000000000000000000000016610b42565b8267ffffffffffffffff1611156105915750816102b2565b62278d007f000000000000000000000000000000000000000000000000000000000000000067ffffffffffffffff166105d49067ffffffffffffffff8516610b73565b6105de9190610ba0565b610667577f000000000000000000000000000000000000000000000000000000000000000067ffffffffffffffff167f000000000000000000000000000000000000000000000000000000000000000067ffffffffffffffff1661064c9067ffffffffffffffff8516610b73565b6106569085610bb4565b6106609190610bd3565b90506102b2565b5060006102b2565b604080516001600160a01b038416602482015260448082018490528251808303909101815260649091019091526020810180517bffffffffffffffffffffffffffffffffffffffffffffffffffffffff167fa9059cbb000000000000000000000000000000000000000000000000000000001790526106ef908490610812565b505050565b804710156107495760405162461bcd60e51b815260206004820152601d60248201527f416464726573733a20696e73756666696369656e742062616c616e636500000060448201526064015b60405180910390fd5b6000826001600160a01b03168260405160006040518083038185875af1925050503d8060008114610796576040519150601f19603f3d011682016040523d82523d6000602084013e61079b565b606091505b50509050806106ef5760405162461bcd60e51b815260206004820152603a60248201527f416464726573733a20756e61626c6520746f2073656e642076616c75652c207260448201527f6563697069656e74206d617920686176652072657665727465640000000000006064820152608401610740565b6000610867826040518060400160405280602081526020017f5361666545524332303a206c6f772d6c6576656c2063616c6c206661696c6564815250856001600160a01b03166108f79092919063ffffffff16565b8051909150156106ef57808060200190518101906108859190610be7565b6106ef5760405162461bcd60e51b815260206004820152602a60248201527f5361666545524332303a204552433230206f7065726174696f6e20646964206e60448201527f6f742073756363656564000000000000000000000000000000000000000000006064820152608401610740565b6060610906848460008561090e565b949350505050565b6060824710156109865760405162461bcd60e51b815260206004820152602660248201527f416464726573733a20696e73756666696369656e742062616c616e636520666f60448201527f722063616c6c00000000000000000000000000000000000000000000000000006064820152608401610740565b6001600160a01b0385163b6109dd5760405162461bcd60e51b815260206004820152601d60248201527f416464726573733a2063616c6c20746f206e6f6e2d636f6e74726163740000006044820152606401610740565b600080866001600160a01b031685876040516109f99190610c39565b60006040518083038185875af1925050503d8060008114610a36576040519150601f19603f3d011682016040523d82523d6000602084013e610a3b565b606091505b5091509150610a4b828286610a56565b979650505050505050565b60608315610a6557508161040a565b825115610a755782518084602001fd5b8160405162461bcd60e51b81526004016107409190610c55565b803567ffffffffffffffff81168114610aa757600080fd5b919050565b600060208284031215610abe57600080fd5b61040a82610a8f565b80356001600160a01b0381168114610aa757600080fd5b600060208284031215610af057600080fd5b61040a82610ac7565b60008060408385031215610b0c57600080fd5b610b1583610ac7565b9150610b2360208401610a8f565b90509250929050565b634e487b7160e01b600052601160045260246000fd5b60008219821115610b5557610b55610b2c565b500190565b600060208284031215610b6c57600080fd5b5051919050565b600082821015610b8557610b85610b2c565b500390565b634e487b7160e01b600052601260045260246000fd5b600082610baf57610baf610b8a565b500690565b6000816000190483118215151615610bce57610bce610b2c565b500290565b600082610be257610be2610b8a565b500490565b600060208284031215610bf957600080fd5b8151801515811461040a57600080fd5b60005b83811015610c24578181015183820152602001610c0c565b83811115610c33576000848401525b50505050565b60008251610c4b818460208701610c09565b9190910192915050565b6020815260008251806020840152610c74816040850160208701610c09565b601f01601f1916919091016040019291505056fea2646970667358221220c37193e7b54783ada5cdfe7515cda056a6de7126ba58869c6542cebd6b6d4fe264736f6c634300080b00334f776e61626c653a2063616c6c6572206973206e6f7420746865206f776e6572a26469706673582212203046424d5a1dbe46cec347b1a98f93703b66123da4c2d7cac1d0c9d69b50306764736f6c634300080b0033",
			"opcodes": "PUSH1 0x80 PUSH1 0x40 MSTORE PUSH1 0xF DUP1 SLOAD PUSH1 0x1 PUSH1 0x1 PUSH1 0xA0 SHL SUB NOT SWAP1 DUP2 AND PUSH20 0xF8E81D47203A594245E36C48E151709F0C19FBE8 OR SWAP1 SWAP2 SSTORE PUSH1 0x10 DUP1 SLOAD SWAP1 SWAP2 AND SWAP1 SSTORE CALLVALUE DUP1 ISZERO PUSH3 0x43 JUMPI PUSH1 0x0 DUP1 REVERT JUMPDEST POP PUSH1 0x40 DUP1 MLOAD DUP1 DUP3 ADD DUP3 MSTORE PUSH1 0x8 DUP2 MSTORE PUSH8 0x54414C415845554D PUSH1 0xC0 SHL PUSH1 0x20 DUP1 DUP4 ADD SWAP2 DUP3 MSTORE DUP4 MLOAD DUP1 DUP6 ADD SWAP1 SWAP5 MSTORE PUSH1 0x5 DUP5 MSTORE PUSH5 0xA8829882B PUSH1 0xDB SHL SWAP1 DUP5 ADD MSTORE DUP2 MLOAD SWAP2 SWAP3 SWAP2 PUSH3 0x91 SWAP2 PUSH1 0x3 SWAP2 PUSH3 0x38A JUMP JUMPDEST POP DUP1 MLOAD PUSH3 0xA7 SWAP1 PUSH1 0x4 SWAP1 PUSH1 0x20 DUP5 ADD SWAP1 PUSH3 0x38A JUMP JUMPDEST POP POP POP PUSH3 0xC4 PUSH3 0xBE PUSH3 0x2FC PUSH1 0x20 SHL PUSH1 0x20 SHR JUMP JUMPDEST PUSH3 0x300 JUMP JUMPDEST PUSH12 0x43DACAF91C1A84FF08000000 PUSH1 0x8 SWAP1 DUP2 SSTORE PUSH1 0xC DUP1 SLOAD PUSH1 0xFF NOT AND PUSH1 0x1 OR SWAP1 SSTORE PUSH1 0x6 PUSH32 0x1B25C710CD36F6ABD0D946F0BF4D8862460476968C07544E42C0A1BBEBCF00BD DUP2 SWAP1 SSTORE PUSH1 0x7 PUSH32 0x966C1DCD8A18560EC136A9E50A17E02DB9367B367229EE43C437A3440F36D0F4 SSTORE PUSH32 0xD0E6B5283E0B9899549D93300D324F253A7F0822541F6D3A17527F12677A3A16 DUP3 SWAP1 SSTORE PUSH1 0x20 SWAP1 DUP2 MSTORE PUSH11 0x9FCFB0FC7841BC4E000000 PUSH32 0x891CF20BBA0E2403D70503485410F9AA139C228FE0C137DFB306054E35720FC0 SSTORE PUSH11 0xB949D854F34FECE000000 PUSH32 0xF6BE214E40AC57281F01E6366A3AE0AA62F7B8158FC336AD458DFCE3639CDC06 DUP2 SWAP1 SSTORE PUSH32 0xD425A2883AFE66E258EE8C119B0AAF5CC068C0AF5422AE9A63879931CFE5073F DUP2 SWAP1 SSTORE PUSH32 0x8E937152507070F5F3F0FF94794D36D8FA7D09C9587CCB84134FA1A352DCD065 SSTORE CALLER PUSH1 0x0 SWAP1 DUP2 MSTORE PUSH1 0x40 DUP1 DUP3 KECCAK256 PUSH11 0x497DE7A8C09DA7BEE80000 SWAP1 SSTORE SWAP1 DUP1 MSTORE PUSH11 0x53836FF11D562962C80000 PUSH32 0x54CDD369E4E8A8515E52CA72EC816C2101831AD1F18BF44102ED171459C9B4F8 SSTORE PUSH1 0x11 DUP1 SLOAD PUSH1 0x1 PUSH1 0x1 PUSH1 0xA0 SHL SUB NOT SWAP1 DUP2 AND PUSH20 0xD9145CCE52D386F254917E481EB44E9943F39138 OR SWAP1 SWAP2 SSTORE PUSH1 0xF SLOAD PUSH1 0x12 DUP1 SLOAD DUP4 AND PUSH1 0x1 PUSH1 0x1 PUSH1 0xA0 SHL SUB SWAP3 DUP4 AND OR SWAP1 SSTORE PUSH1 0x13 DUP1 SLOAD DUP4 AND SWAP1 SSTORE PUSH1 0x10 SLOAD PUSH1 0x14 DUP1 SLOAD SWAP1 SWAP4 AND SWAP2 AND OR SWAP1 SSTORE DUP1 MLOAD DUP1 DUP3 ADD SWAP1 SWAP2 MSTORE PUSH1 0x19 DUP2 MSTORE PUSH32 0x496E73756666696369656E7420546F74616C20537570706C7900000000000000 DUP2 DUP4 ADD MSTORE SWAP2 SLOAD PUSH3 0x2F3 SWAP3 SWAP1 SWAP2 PUSH12 0x2D9AE8EE2246267158800000 SWAP2 SWAP1 PUSH3 0x2C54 PUSH3 0x352 DUP3 SHL OR SWAP1 SHR JUMP JUMPDEST PUSH1 0x8 SSTORE PUSH3 0x4C5 JUMP JUMPDEST CALLER SWAP1 JUMP JUMPDEST PUSH1 0x5 DUP1 SLOAD PUSH1 0x1 PUSH1 0x1 PUSH1 0xA0 SHL SUB DUP4 DUP2 AND PUSH1 0x1 PUSH1 0x1 PUSH1 0xA0 SHL SUB NOT DUP4 AND DUP2 OR SWAP1 SWAP4 SSTORE PUSH1 0x40 MLOAD SWAP2 AND SWAP2 SWAP1 DUP3 SWAP1 PUSH32 0x8BE0079C531659141344CD1FD0A4F28419497F9722A3DAAFE3B4186F6B6457E0 SWAP1 PUSH1 0x0 SWAP1 LOG3 POP POP JUMP JUMPDEST PUSH1 0x0 DUP2 DUP5 DUP5 GT ISZERO PUSH3 0x382 JUMPI PUSH1 0x40 MLOAD PUSH3 0x461BCD PUSH1 0xE5 SHL DUP2 MSTORE PUSH1 0x4 ADD PUSH3 0x379 SWAP2 SWAP1 PUSH3 0x430 JUMP JUMPDEST PUSH1 0x40 MLOAD DUP1 SWAP2 SUB SWAP1 REVERT JUMPDEST POP POP POP SWAP1 SUB SWAP1 JUMP JUMPDEST DUP3 DUP1 SLOAD PUSH3 0x398 SWAP1 PUSH3 0x488 JUMP JUMPDEST SWAP1 PUSH1 0x0 MSTORE PUSH1 0x20 PUSH1 0x0 KECCAK256 SWAP1 PUSH1 0x1F ADD PUSH1 0x20 SWAP1 DIV DUP2 ADD SWAP3 DUP3 PUSH3 0x3BC JUMPI PUSH1 0x0 DUP6 SSTORE PUSH3 0x407 JUMP JUMPDEST DUP3 PUSH1 0x1F LT PUSH3 0x3D7 JUMPI DUP1 MLOAD PUSH1 0xFF NOT AND DUP4 DUP1 ADD OR DUP6 SSTORE PUSH3 0x407 JUMP JUMPDEST DUP3 DUP1 ADD PUSH1 0x1 ADD DUP6 SSTORE DUP3 ISZERO PUSH3 0x407 JUMPI SWAP2 DUP3 ADD JUMPDEST DUP3 DUP2 GT ISZERO PUSH3 0x407 JUMPI DUP3 MLOAD DUP3 SSTORE SWAP2 PUSH1 0x20 ADD SWAP2 SWAP1 PUSH1 0x1 ADD SWAP1 PUSH3 0x3EA JUMP JUMPDEST POP PUSH3 0x415 SWAP3 SWAP2 POP PUSH3 0x419 JUMP JUMPDEST POP SWAP1 JUMP JUMPDEST JUMPDEST DUP1 DUP3 GT ISZERO PUSH3 0x415 JUMPI PUSH1 0x0 DUP2 SSTORE PUSH1 0x1 ADD PUSH3 0x41A JUMP JUMPDEST PUSH1 0x0 PUSH1 0x20 DUP1 DUP4 MSTORE DUP4 MLOAD DUP1 DUP3 DUP6 ADD MSTORE PUSH1 0x0 JUMPDEST DUP2 DUP2 LT ISZERO PUSH3 0x45F JUMPI DUP6 DUP2 ADD DUP4 ADD MLOAD DUP6 DUP3 ADD PUSH1 0x40 ADD MSTORE DUP3 ADD PUSH3 0x441 JUMP JUMPDEST DUP2 DUP2 GT ISZERO PUSH3 0x472 JUMPI PUSH1 0x0 PUSH1 0x40 DUP4 DUP8 ADD ADD MSTORE JUMPDEST POP PUSH1 0x1F ADD PUSH1 0x1F NOT AND SWAP3 SWAP1 SWAP3 ADD PUSH1 0x40 ADD SWAP4 SWAP3 POP POP POP JUMP JUMPDEST PUSH1 0x1 DUP2 DUP2 SHR SWAP1 DUP3 AND DUP1 PUSH3 0x49D JUMPI PUSH1 0x7F DUP3 AND SWAP2 POP JUMPDEST PUSH1 0x20 DUP3 LT DUP2 EQ ISZERO PUSH3 0x4BF JUMPI PUSH4 0x4E487B71 PUSH1 0xE0 SHL PUSH1 0x0 MSTORE PUSH1 0x22 PUSH1 0x4 MSTORE PUSH1 0x24 PUSH1 0x0 REVERT JUMPDEST POP SWAP2 SWAP1 POP JUMP JUMPDEST PUSH2 0x47E1 DUP1 PUSH3 0x4D5 PUSH1 0x0 CODECOPY PUSH1 0x0 RETURN INVALID PUSH1 0x80 PUSH1 0x40 MSTORE PUSH1 0x4 CALLDATASIZE LT PUSH3 0x3BB JUMPI PUSH1 0x0 CALLDATALOAD PUSH1 0xE0 SHR DUP1 PUSH4 0x8C63F97F GT PUSH3 0x1F3 JUMPI DUP1 PUSH4 0xC4DBA83B GT PUSH3 0x10F JUMPI DUP1 PUSH4 0xDD62ED3E GT PUSH3 0xA3 JUMPI DUP1 PUSH4 0xEFA04C82 GT PUSH3 0x79 JUMPI DUP1 PUSH4 0xEFA04C82 EQ PUSH3 0xAD1 JUMPI DUP1 PUSH4 0xF2FDE38B EQ PUSH3 0xAF3 JUMPI DUP1 PUSH4 0xF3388E75 EQ PUSH3 0xB18 JUMPI DUP1 PUSH4 0xFA47026C EQ PUSH3 0xB3A JUMPI PUSH3 0x3CE JUMP JUMPDEST DUP1 PUSH4 0xDD62ED3E EQ PUSH3 0xA43 JUMPI DUP1 PUSH4 0xE6469A66 EQ PUSH3 0xA8D JUMPI DUP1 PUSH4 0xE6578EA0 EQ PUSH3 0xAAF JUMPI PUSH3 0x3CE JUMP JUMPDEST DUP1 PUSH4 0xCF3364AE GT PUSH3 0xE5 JUMPI DUP1 PUSH4 0xCF3364AE EQ PUSH3 0x9BC JUMPI DUP1 PUSH4 0xD5DBDF1B EQ PUSH3 0x9D4 JUMPI DUP1 PUSH4 0xD94D4AD6 EQ PUSH3 0x9F9 JUMPI DUP1 PUSH4 0xDD1B7B37 EQ PUSH3 0xA1E JUMPI PUSH3 0x3CE JUMP JUMPDEST DUP1 PUSH4 0xC4DBA83B EQ PUSH3 0x97F JUMPI DUP1 PUSH4 0xC61A1341 EQ PUSH3 0x997 JUMPI DUP1 PUSH4 0xCBB109AC EQ PUSH3 0x7F3 JUMPI PUSH3 0x3CE JUMP JUMPDEST DUP1 PUSH4 0xA169C515 GT PUSH3 0x187 JUMPI DUP1 PUSH4 0xA9059CBB GT PUSH3 0x15D JUMPI DUP1 PUSH4 0xA9059CBB EQ PUSH3 0x908 JUMPI DUP1 PUSH4 0xB8DD0099 EQ PUSH3 0x92D JUMPI DUP1 PUSH4 0xBAD4346C EQ PUSH3 0x94F JUMPI DUP1 PUSH4 0xBED9D861 EQ PUSH3 0x967 JUMPI PUSH3 0x3CE JUMP JUMPDEST DUP1 PUSH4 0xA169C515 EQ PUSH3 0x89C JUMPI DUP1 PUSH4 0xA457C2D7 EQ PUSH3 0x8C1 JUMPI DUP1 PUSH4 0xA837A65E EQ PUSH3 0x8E6 JUMPI PUSH3 0x3CE JUMP JUMPDEST DUP1 PUSH4 0x8DA5CB5B GT PUSH3 0x1C9 JUMPI DUP1 PUSH4 0x8DA5CB5B EQ PUSH3 0x830 JUMPI DUP1 PUSH4 0x95D89B41 EQ PUSH3 0x850 JUMPI DUP1 PUSH4 0x9F391AAF EQ PUSH3 0x868 JUMPI DUP1 PUSH4 0xA071DCF4 EQ PUSH3 0x880 JUMPI PUSH3 0x3CE JUMP JUMPDEST DUP1 PUSH4 0x8C63F97F EQ PUSH3 0x7CE JUMPI DUP1 PUSH4 0x8CCD4B6A EQ PUSH3 0x7F3 JUMPI DUP1 PUSH4 0x8D4A3C85 EQ PUSH3 0x80B JUMPI PUSH3 0x3CE JUMP JUMPDEST DUP1 PUSH4 0x40C10F19 GT PUSH3 0x2E3 JUMPI DUP1 PUSH4 0x70A08231 GT PUSH3 0x277 JUMPI DUP1 PUSH4 0x795495C5 GT PUSH3 0x24D JUMPI DUP1 PUSH4 0x795495C5 EQ PUSH3 0x73D JUMPI DUP1 PUSH4 0x79CC6790 EQ PUSH3 0x75F JUMPI DUP1 PUSH4 0x7B0472F0 EQ PUSH3 0x784 JUMPI DUP1 PUSH4 0x8B7C64DA EQ PUSH3 0x7A9 JUMPI PUSH3 0x3CE JUMP JUMPDEST DUP1 PUSH4 0x70A08231 EQ PUSH3 0x6C6 JUMPI DUP1 PUSH4 0x715018A6 EQ PUSH3 0x700 JUMPI DUP1 PUSH4 0x75290061 EQ PUSH3 0x718 JUMPI PUSH3 0x3CE JUMP JUMPDEST DUP1 PUSH4 0x4F075BFF GT PUSH3 0x2B9 JUMPI DUP1 PUSH4 0x4F075BFF EQ PUSH3 0x642 JUMPI DUP1 PUSH4 0x569E7127 EQ PUSH3 0x667 JUMPI DUP1 PUSH4 0x5B88349D EQ PUSH3 0x689 JUMPI DUP1 PUSH4 0x63A599A4 EQ PUSH3 0x6A1 JUMPI PUSH3 0x3CE JUMP JUMPDEST DUP1 PUSH4 0x40C10F19 EQ PUSH3 0x5D3 JUMPI DUP1 PUSH4 0x42966C68 EQ PUSH3 0x5F8 JUMPI DUP1 PUSH4 0x471A30A2 EQ PUSH3 0x61D JUMPI PUSH3 0x3CE JUMP JUMPDEST DUP1 PUSH4 0x15ADAC1A GT PUSH3 0x35B JUMPI DUP1 PUSH4 0x25E8A2CC GT PUSH3 0x331 JUMPI DUP1 PUSH4 0x25E8A2CC EQ PUSH3 0x547 JUMPI DUP1 PUSH4 0x2CF1A5FB EQ PUSH3 0x569 JUMPI DUP1 PUSH4 0x313CE567 EQ PUSH3 0x58A JUMPI DUP1 PUSH4 0x39509351 EQ PUSH3 0x5AE JUMPI PUSH3 0x3CE JUMP JUMPDEST DUP1 PUSH4 0x15ADAC1A EQ PUSH3 0x4D0 JUMPI DUP1 PUSH4 0x18160DDD EQ PUSH3 0x50B JUMPI DUP1 PUSH4 0x23B872DD EQ PUSH3 0x522 JUMPI PUSH3 0x3CE JUMP JUMPDEST DUP1 PUSH4 0x6FDDE03 GT PUSH3 0x391 JUMPI DUP1 PUSH4 0x6FDDE03 EQ PUSH3 0x44E JUMPI DUP1 PUSH4 0x95EA7B3 EQ PUSH3 0x475 JUMPI DUP1 PUSH4 0xE1B09ED EQ PUSH3 0x4AB JUMPI PUSH3 0x3CE JUMP JUMPDEST DUP1 PUSH4 0x145224D EQ PUSH3 0x3D9 JUMPI DUP1 PUSH4 0x21FB2F2 EQ PUSH3 0x3FE JUMPI DUP1 PUSH4 0x42249BB EQ PUSH3 0x423 JUMPI PUSH3 0x3CE JUMP JUMPDEST CALLDATASIZE PUSH3 0x3CE JUMPI PUSH3 0x3CC CALLVALUE PUSH3 0xB52 JUMP JUMPDEST STOP JUMPDEST PUSH3 0x3CC CALLVALUE PUSH3 0xB52 JUMP JUMPDEST CALLVALUE DUP1 ISZERO PUSH3 0x3E6 JUMPI PUSH1 0x0 DUP1 REVERT JUMPDEST POP PUSH3 0x3CC PUSH3 0x3F8 CALLDATASIZE PUSH1 0x4 PUSH3 0x34A8 JUMP JUMPDEST PUSH3 0xCCC JUMP JUMPDEST CALLVALUE DUP1 ISZERO PUSH3 0x40B JUMPI PUSH1 0x0 DUP1 REVERT JUMPDEST POP PUSH3 0x3CC PUSH3 0x41D CALLDATASIZE PUSH1 0x4 PUSH3 0x3522 JUMP JUMPDEST PUSH3 0xE91 JUMP JUMPDEST CALLVALUE DUP1 ISZERO PUSH3 0x430 JUMPI PUSH1 0x0 DUP1 REVERT JUMPDEST POP PUSH3 0x43B PUSH1 0xA SLOAD DUP2 JUMP JUMPDEST PUSH1 0x40 MLOAD SWAP1 DUP2 MSTORE PUSH1 0x20 ADD JUMPDEST PUSH1 0x40 MLOAD DUP1 SWAP2 SUB SWAP1 RETURN JUMPDEST CALLVALUE DUP1 ISZERO PUSH3 0x45B JUMPI PUSH1 0x0 DUP1 REVERT JUMPDEST POP PUSH3 0x466 PUSH3 0x1027 JUMP JUMPDEST PUSH1 0x40 MLOAD PUSH3 0x445 SWAP2 SWAP1 PUSH3 0x358A JUMP JUMPDEST CALLVALUE DUP1 ISZERO PUSH3 0x482 JUMPI PUSH1 0x0 DUP1 REVERT JUMPDEST POP PUSH3 0x49A PUSH3 0x494 CALLDATASIZE PUSH1 0x4 PUSH3 0x35FF JUMP JUMPDEST PUSH3 0x10C1 JUMP JUMPDEST PUSH1 0x40 MLOAD SWAP1 ISZERO ISZERO DUP2 MSTORE PUSH1 0x20 ADD PUSH3 0x445 JUMP JUMPDEST CALLVALUE DUP1 ISZERO PUSH3 0x4B8 JUMPI PUSH1 0x0 DUP1 REVERT JUMPDEST POP PUSH3 0x3CC PUSH3 0x4CA CALLDATASIZE PUSH1 0x4 PUSH3 0x362C JUMP JUMPDEST PUSH3 0x10DB JUMP JUMPDEST CALLVALUE DUP1 ISZERO PUSH3 0x4DD JUMPI PUSH1 0x0 DUP1 REVERT JUMPDEST POP PUSH1 0x16 SLOAD PUSH3 0x4F2 SWAP1 PUSH1 0x1 PUSH1 0x1 PUSH1 0xA0 SHL SUB AND DUP2 JUMP JUMPDEST PUSH1 0x40 MLOAD PUSH1 0x1 PUSH1 0x1 PUSH1 0xA0 SHL SUB SWAP1 SWAP2 AND DUP2 MSTORE PUSH1 0x20 ADD PUSH3 0x445 JUMP JUMPDEST CALLVALUE DUP1 ISZERO PUSH3 0x518 JUMPI PUSH1 0x0 DUP1 REVERT JUMPDEST POP PUSH1 0x8 SLOAD PUSH3 0x43B JUMP JUMPDEST CALLVALUE DUP1 ISZERO PUSH3 0x52F JUMPI PUSH1 0x0 DUP1 REVERT JUMPDEST POP PUSH3 0x49A PUSH3 0x541 CALLDATASIZE PUSH1 0x4 PUSH3 0x3646 JUMP JUMPDEST PUSH3 0x1186 JUMP JUMPDEST CALLVALUE DUP1 ISZERO PUSH3 0x554 JUMPI PUSH1 0x0 DUP1 REVERT JUMPDEST POP PUSH1 0x18 SLOAD PUSH3 0x4F2 SWAP1 PUSH1 0x1 PUSH1 0x1 PUSH1 0xA0 SHL SUB AND DUP2 JUMP JUMPDEST CALLVALUE DUP1 ISZERO PUSH3 0x576 JUMPI PUSH1 0x0 DUP1 REVERT JUMPDEST POP PUSH1 0xC SLOAD PUSH3 0x49A SWAP1 PUSH2 0x100 SWAP1 DIV PUSH1 0xFF AND DUP2 JUMP JUMPDEST CALLVALUE DUP1 ISZERO PUSH3 0x597 JUMPI PUSH1 0x0 DUP1 REVERT JUMPDEST POP PUSH1 0x12 JUMPDEST PUSH1 0x40 MLOAD PUSH1 0xFF SWAP1 SWAP2 AND DUP2 MSTORE PUSH1 0x20 ADD PUSH3 0x445 JUMP JUMPDEST CALLVALUE DUP1 ISZERO PUSH3 0x5BB JUMPI PUSH1 0x0 DUP1 REVERT JUMPDEST POP PUSH3 0x49A PUSH3 0x5CD CALLDATASIZE PUSH1 0x4 PUSH3 0x35FF JUMP JUMPDEST PUSH3 0x11AE JUMP JUMPDEST CALLVALUE DUP1 ISZERO PUSH3 0x5E0 JUMPI PUSH1 0x0 DUP1 REVERT JUMPDEST POP PUSH3 0x3CC PUSH3 0x5F2 CALLDATASIZE PUSH1 0x4 PUSH3 0x35FF JUMP JUMPDEST PUSH3 0x11F1 JUMP JUMPDEST CALLVALUE DUP1 ISZERO PUSH3 0x605 JUMPI PUSH1 0x0 DUP1 REVERT JUMPDEST POP PUSH3 0x3CC PUSH3 0x617 CALLDATASIZE PUSH1 0x4 PUSH3 0x362C JUMP JUMPDEST PUSH3 0x124C JUMP JUMPDEST CALLVALUE DUP1 ISZERO PUSH3 0x62A JUMPI PUSH1 0x0 DUP1 REVERT JUMPDEST POP PUSH3 0x3CC PUSH3 0x63C CALLDATASIZE PUSH1 0x4 PUSH3 0x3687 JUMP JUMPDEST PUSH3 0x125B JUMP JUMPDEST CALLVALUE DUP1 ISZERO PUSH3 0x64F JUMPI PUSH1 0x0 DUP1 REVERT JUMPDEST POP PUSH3 0x3CC PUSH3 0x661 CALLDATASIZE PUSH1 0x4 PUSH3 0x34A8 JUMP JUMPDEST PUSH3 0x1346 JUMP JUMPDEST CALLVALUE DUP1 ISZERO PUSH3 0x674 JUMPI PUSH1 0x0 DUP1 REVERT JUMPDEST POP PUSH1 0x1A SLOAD PUSH3 0x4F2 SWAP1 PUSH1 0x1 PUSH1 0x1 PUSH1 0xA0 SHL SUB AND DUP2 JUMP JUMPDEST CALLVALUE DUP1 ISZERO PUSH3 0x696 JUMPI PUSH1 0x0 DUP1 REVERT JUMPDEST POP PUSH3 0x3CC PUSH3 0x14BD JUMP JUMPDEST CALLVALUE DUP1 ISZERO PUSH3 0x6AE JUMPI PUSH1 0x0 DUP1 REVERT JUMPDEST POP PUSH3 0x3CC PUSH3 0x6C0 CALLDATASIZE PUSH1 0x4 PUSH3 0x362C JUMP JUMPDEST PUSH3 0x1617 JUMP JUMPDEST CALLVALUE DUP1 ISZERO PUSH3 0x6D3 JUMPI PUSH1 0x0 DUP1 REVERT JUMPDEST POP PUSH3 0x43B PUSH3 0x6E5 CALLDATASIZE PUSH1 0x4 PUSH3 0x36AC JUMP JUMPDEST PUSH1 0x1 PUSH1 0x1 PUSH1 0xA0 SHL SUB AND PUSH1 0x0 SWAP1 DUP2 MSTORE PUSH1 0x6 PUSH1 0x20 MSTORE PUSH1 0x40 SWAP1 KECCAK256 SLOAD SWAP1 JUMP JUMPDEST CALLVALUE DUP1 ISZERO PUSH3 0x70D JUMPI PUSH1 0x0 DUP1 REVERT JUMPDEST POP PUSH3 0x3CC PUSH3 0x1662 JUMP JUMPDEST CALLVALUE DUP1 ISZERO PUSH3 0x725 JUMPI PUSH1 0x0 DUP1 REVERT JUMPDEST POP PUSH3 0x3CC PUSH3 0x737 CALLDATASIZE PUSH1 0x4 PUSH3 0x3522 JUMP JUMPDEST PUSH3 0x16BB JUMP JUMPDEST CALLVALUE DUP1 ISZERO PUSH3 0x74A JUMPI PUSH1 0x0 DUP1 REVERT JUMPDEST POP PUSH1 0x19 SLOAD PUSH3 0x4F2 SWAP1 PUSH1 0x1 PUSH1 0x1 PUSH1 0xA0 SHL SUB AND DUP2 JUMP JUMPDEST CALLVALUE DUP1 ISZERO PUSH3 0x76C JUMPI PUSH1 0x0 DUP1 REVERT JUMPDEST POP PUSH3 0x3CC PUSH3 0x77E CALLDATASIZE PUSH1 0x4 PUSH3 0x35FF JUMP JUMPDEST PUSH3 0x1813 JUMP JUMPDEST CALLVALUE DUP1 ISZERO PUSH3 0x791 JUMPI PUSH1 0x0 DUP1 REVERT JUMPDEST POP PUSH3 0x3CC PUSH3 0x7A3 CALLDATASIZE PUSH1 0x4 PUSH3 0x36CA JUMP JUMPDEST PUSH3 0x182C JUMP JUMPDEST CALLVALUE DUP1 ISZERO PUSH3 0x7B6 JUMPI PUSH1 0x0 DUP1 REVERT JUMPDEST POP PUSH3 0x3CC PUSH3 0x7C8 CALLDATASIZE PUSH1 0x4 PUSH3 0x362C JUMP JUMPDEST PUSH3 0x1978 JUMP JUMPDEST CALLVALUE DUP1 ISZERO PUSH3 0x7DB JUMPI PUSH1 0x0 DUP1 REVERT JUMPDEST POP PUSH3 0x3CC PUSH3 0x7ED CALLDATASIZE PUSH1 0x4 PUSH3 0x362C JUMP JUMPDEST PUSH3 0x1A37 JUMP JUMPDEST CALLVALUE DUP1 ISZERO PUSH3 0x800 JUMPI PUSH1 0x0 DUP1 REVERT JUMPDEST POP PUSH3 0x3CC PUSH3 0x1B3E JUMP JUMPDEST CALLVALUE DUP1 ISZERO PUSH3 0x818 JUMPI PUSH1 0x0 DUP1 REVERT JUMPDEST POP PUSH3 0x3CC PUSH3 0x82A CALLDATASIZE PUSH1 0x4 PUSH3 0x35FF JUMP JUMPDEST PUSH3 0x1BE9 JUMP JUMPDEST CALLVALUE DUP1 ISZERO PUSH3 0x83D JUMPI PUSH1 0x0 DUP1 REVERT JUMPDEST POP PUSH1 0x5 SLOAD PUSH1 0x1 PUSH1 0x1 PUSH1 0xA0 SHL SUB AND PUSH3 0x4F2 JUMP JUMPDEST CALLVALUE DUP1 ISZERO PUSH3 0x85D JUMPI PUSH1 0x0 DUP1 REVERT JUMPDEST POP PUSH3 0x466 PUSH3 0x1DCD JUMP JUMPDEST CALLVALUE DUP1 ISZERO PUSH3 0x875 JUMPI PUSH1 0x0 DUP1 REVERT JUMPDEST POP PUSH3 0x3CC PUSH3 0x1DDE JUMP JUMPDEST CALLVALUE DUP1 ISZERO PUSH3 0x88D JUMPI PUSH1 0x0 DUP1 REVERT JUMPDEST POP PUSH1 0xC SLOAD PUSH3 0x59B SWAP1 PUSH1 0xFF AND DUP2 JUMP JUMPDEST CALLVALUE DUP1 ISZERO PUSH3 0x8A9 JUMPI PUSH1 0x0 DUP1 REVERT JUMPDEST POP PUSH3 0x3CC PUSH3 0x8BB CALLDATASIZE PUSH1 0x4 PUSH3 0x362C JUMP JUMPDEST PUSH3 0x23EF JUMP JUMPDEST CALLVALUE DUP1 ISZERO PUSH3 0x8CE JUMPI PUSH1 0x0 DUP1 REVERT JUMPDEST POP PUSH3 0x49A PUSH3 0x8E0 CALLDATASIZE PUSH1 0x4 PUSH3 0x35FF JUMP JUMPDEST PUSH3 0x2445 JUMP JUMPDEST CALLVALUE DUP1 ISZERO PUSH3 0x8F3 JUMPI PUSH1 0x0 DUP1 REVERT JUMPDEST POP PUSH1 0xF SLOAD PUSH3 0x4F2 SWAP1 PUSH1 0x1 PUSH1 0x1 PUSH1 0xA0 SHL SUB AND DUP2 JUMP JUMPDEST CALLVALUE DUP1 ISZERO PUSH3 0x915 JUMPI PUSH1 0x0 DUP1 REVERT JUMPDEST POP PUSH3 0x49A PUSH3 0x927 CALLDATASIZE PUSH1 0x4 PUSH3 0x35FF JUMP JUMPDEST PUSH3 0x24F3 JUMP JUMPDEST CALLVALUE DUP1 ISZERO PUSH3 0x93A JUMPI PUSH1 0x0 DUP1 REVERT JUMPDEST POP PUSH1 0xC SLOAD PUSH3 0x49A SWAP1 PUSH3 0x10000 SWAP1 DIV PUSH1 0xFF AND DUP2 JUMP JUMPDEST CALLVALUE DUP1 ISZERO PUSH3 0x95C JUMPI PUSH1 0x0 DUP1 REVERT JUMPDEST POP PUSH3 0x43B PUSH1 0xB SLOAD DUP2 JUMP JUMPDEST CALLVALUE DUP1 ISZERO PUSH3 0x974 JUMPI PUSH1 0x0 DUP1 REVERT JUMPDEST POP PUSH3 0x3CC PUSH3 0x2503 JUMP JUMPDEST CALLVALUE DUP1 ISZERO PUSH3 0x98C JUMPI PUSH1 0x0 DUP1 REVERT JUMPDEST POP PUSH3 0x3CC PUSH3 0x260E JUMP JUMPDEST CALLVALUE DUP1 ISZERO PUSH3 0x9A4 JUMPI PUSH1 0x0 DUP1 REVERT JUMPDEST POP PUSH3 0x3CC PUSH3 0x9B6 CALLDATASIZE PUSH1 0x4 PUSH3 0x3522 JUMP JUMPDEST PUSH3 0x26C5 JUMP JUMPDEST CALLVALUE DUP1 ISZERO PUSH3 0x9C9 JUMPI PUSH1 0x0 DUP1 REVERT JUMPDEST POP PUSH3 0x43B PUSH1 0xD SLOAD DUP2 JUMP JUMPDEST CALLVALUE DUP1 ISZERO PUSH3 0x9E1 JUMPI PUSH1 0x0 DUP1 REVERT JUMPDEST POP PUSH3 0x3CC PUSH3 0x9F3 CALLDATASIZE PUSH1 0x4 PUSH3 0x362C JUMP JUMPDEST PUSH3 0x281D JUMP JUMPDEST CALLVALUE DUP1 ISZERO PUSH3 0xA06 JUMPI PUSH1 0x0 DUP1 REVERT JUMPDEST POP PUSH3 0x3CC PUSH3 0xA18 CALLDATASIZE PUSH1 0x4 PUSH3 0x362C JUMP JUMPDEST PUSH3 0x2924 JUMP JUMPDEST CALLVALUE DUP1 ISZERO PUSH3 0xA2B JUMPI PUSH1 0x0 DUP1 REVERT JUMPDEST POP PUSH3 0x3CC PUSH3 0xA3D CALLDATASIZE PUSH1 0x4 PUSH3 0x34A8 JUMP JUMPDEST PUSH3 0x29E3 JUMP JUMPDEST CALLVALUE DUP1 ISZERO PUSH3 0xA50 JUMPI PUSH1 0x0 DUP1 REVERT JUMPDEST POP PUSH3 0x43B PUSH3 0xA62 CALLDATASIZE PUSH1 0x4 PUSH3 0x36ED JUMP JUMPDEST PUSH1 0x1 PUSH1 0x1 PUSH1 0xA0 SHL SUB SWAP2 DUP3 AND PUSH1 0x0 SWAP1 DUP2 MSTORE PUSH1 0x7 PUSH1 0x20 SWAP1 DUP2 MSTORE PUSH1 0x40 DUP1 DUP4 KECCAK256 SWAP4 SWAP1 SWAP5 AND DUP3 MSTORE SWAP2 SWAP1 SWAP2 MSTORE KECCAK256 SLOAD SWAP1 JUMP JUMPDEST CALLVALUE DUP1 ISZERO PUSH3 0xA9A JUMPI PUSH1 0x0 DUP1 REVERT JUMPDEST POP PUSH1 0x15 SLOAD PUSH3 0x4F2 SWAP1 PUSH1 0x1 PUSH1 0x1 PUSH1 0xA0 SHL SUB AND DUP2 JUMP JUMPDEST CALLVALUE DUP1 ISZERO PUSH3 0xABC JUMPI PUSH1 0x0 DUP1 REVERT JUMPDEST POP PUSH1 0x10 SLOAD PUSH3 0x4F2 SWAP1 PUSH1 0x1 PUSH1 0x1 PUSH1 0xA0 SHL SUB AND DUP2 JUMP JUMPDEST CALLVALUE DUP1 ISZERO PUSH3 0xADE JUMPI PUSH1 0x0 DUP1 REVERT JUMPDEST POP PUSH1 0x17 SLOAD PUSH3 0x4F2 SWAP1 PUSH1 0x1 PUSH1 0x1 PUSH1 0xA0 SHL SUB AND DUP2 JUMP JUMPDEST CALLVALUE DUP1 ISZERO PUSH3 0xB00 JUMPI PUSH1 0x0 DUP1 REVERT JUMPDEST POP PUSH3 0x3CC PUSH3 0xB12 CALLDATASIZE PUSH1 0x4 PUSH3 0x36AC JUMP JUMPDEST PUSH3 0x2B5A JUMP JUMPDEST CALLVALUE DUP1 ISZERO PUSH3 0xB25 JUMPI PUSH1 0x0 DUP1 REVERT JUMPDEST POP PUSH1 0xE SLOAD PUSH3 0x4F2 SWAP1 PUSH1 0x1 PUSH1 0x1 PUSH1 0xA0 SHL SUB AND DUP2 JUMP JUMPDEST CALLVALUE DUP1 ISZERO PUSH3 0xB47 JUMPI PUSH1 0x0 DUP1 REVERT JUMPDEST POP PUSH3 0x3CC PUSH3 0x2C2E JUMP JUMPDEST PUSH1 0x0 PUSH3 0xB61 DUP3 PUSH1 0x3 PUSH3 0x2C83 JUMP JUMPDEST PUSH20 0xE61E7A7D16DB384433E532FB85724E7F3BDAAE2F PUSH1 0x0 MSTORE PUSH1 0x6 PUSH1 0x20 MSTORE PUSH32 0xA61D053F628328BEDC0CDE2F09CEFEA77D8AD994D84171F45060A0420B725D53 SLOAD SWAP1 SWAP2 POP PUSH3 0xBAF SWAP1 DUP3 PUSH3 0x2C98 JUMP JUMPDEST PUSH1 0x6 PUSH1 0x20 MSTORE PUSH32 0xA61D053F628328BEDC0CDE2F09CEFEA77D8AD994D84171F45060A0420B725D53 SSTORE PUSH20 0x406605EB24A97A2D61B516D8D850F2AEFA6A731A PUSH1 0x0 MSTORE PUSH32 0xE094D0232FBE139CACBC5FA4FB09838941A05F2C437BC421439D53040DBE6E42 SLOAD PUSH3 0xC1C SWAP1 DUP3 PUSH3 0x2C98 JUMP JUMPDEST PUSH1 0x6 PUSH1 0x20 MSTORE PUSH32 0xE094D0232FBE139CACBC5FA4FB09838941A05F2C437BC421439D53040DBE6E42 SSTORE PUSH20 0x97620DEADC98BC8173303686037CE7B986CF53C3 PUSH1 0x0 MSTORE PUSH32 0x14047E4336222560E28FBBFF025D91D81F9E88358B8B7A8255BAD99BB74C06E0 SLOAD PUSH3 0xC89 SWAP1 DUP3 PUSH3 0x2C98 JUMP JUMPDEST PUSH20 0x97620DEADC98BC8173303686037CE7B986CF53C3 PUSH1 0x0 MSTORE PUSH1 0x6 PUSH1 0x20 MSTORE PUSH32 0x14047E4336222560E28FBBFF025D91D81F9E88358B8B7A8255BAD99BB74C06E0 SSTORE POP POP JUMP JUMPDEST PUSH1 0x5 SLOAD PUSH1 0x1 PUSH1 0x1 PUSH1 0xA0 SHL SUB AND CALLER EQ PUSH3 0xD1B JUMPI PUSH1 0x40 MLOAD PUSH3 0x461BCD PUSH1 0xE5 SHL DUP2 MSTORE PUSH1 0x20 PUSH1 0x4 DUP3 ADD DUP2 SWAP1 MSTORE PUSH1 0x24 DUP3 ADD MSTORE PUSH1 0x0 DUP1 MLOAD PUSH1 0x20 PUSH3 0x478C DUP4 CODECOPY DUP2 MLOAD SWAP2 MSTORE PUSH1 0x44 DUP3 ADD MSTORE PUSH1 0x64 ADD JUMPDEST PUSH1 0x40 MLOAD DUP1 SWAP2 SUB SWAP1 REVERT JUMPDEST PUSH3 0xD25 PUSH3 0x2CA6 JUMP JUMPDEST DUP1 PUSH3 0xD65 JUMPI PUSH1 0x40 MLOAD PUSH3 0x461BCD PUSH1 0xE5 SHL DUP2 MSTORE PUSH1 0x20 PUSH1 0x4 DUP3 ADD MSTORE PUSH1 0xE PUSH1 0x24 DUP3 ADD MSTORE PUSH14 0x139BDD1A1A5B99C81D1BC8185919 PUSH1 0x92 SHL PUSH1 0x44 DUP3 ADD MSTORE PUSH1 0x64 ADD PUSH3 0xD12 JUMP JUMPDEST PUSH1 0x0 JUMPDEST DUP2 DUP2 LT ISZERO PUSH3 0xE47 JUMPI PUSH1 0x12 SLOAD PUSH1 0x1 PUSH1 0x1 PUSH1 0xA0 SHL SUB AND PUSH4 0x96074E70 DUP5 DUP5 DUP5 DUP2 DUP2 LT PUSH3 0xD97 JUMPI PUSH3 0xD97 PUSH3 0x3725 JUMP JUMPDEST PUSH3 0xDAF SWAP3 PUSH1 0x20 PUSH1 0x40 SWAP1 SWAP3 MUL ADD SWAP1 DUP2 ADD SWAP2 POP PUSH3 0x36AC JUMP JUMPDEST DUP6 DUP6 DUP6 DUP2 DUP2 LT PUSH3 0xDC4 JUMPI PUSH3 0xDC4 PUSH3 0x3725 JUMP JUMPDEST SWAP1 POP PUSH1 0x40 MUL ADD PUSH1 0x20 ADD CALLDATALOAD PUSH1 0x40 MLOAD DUP4 PUSH4 0xFFFFFFFF AND PUSH1 0xE0 SHL DUP2 MSTORE PUSH1 0x4 ADD PUSH3 0xE00 SWAP3 SWAP2 SWAP1 PUSH1 0x1 PUSH1 0x1 PUSH1 0xA0 SHL SUB SWAP3 SWAP1 SWAP3 AND DUP3 MSTORE PUSH1 0x20 DUP3 ADD MSTORE PUSH1 0x40 ADD SWAP1 JUMP JUMPDEST PUSH1 0x0 PUSH1 0x40 MLOAD DUP1 DUP4 SUB DUP2 PUSH1 0x0 DUP8 DUP1 EXTCODESIZE ISZERO DUP1 ISZERO PUSH3 0xE1B JUMPI PUSH1 0x0 DUP1 REVERT JUMPDEST POP GAS CALL ISZERO DUP1 ISZERO PUSH3 0xE30 JUMPI RETURNDATASIZE PUSH1 0x0 DUP1 RETURNDATACOPY RETURNDATASIZE PUSH1 0x0 REVERT JUMPDEST POP POP POP POP PUSH3 0xE3F DUP2 PUSH1 0x1 ADD SWAP1 JUMP JUMPDEST SWAP1 POP PUSH3 0xD68 JUMP JUMPDEST POP CALLER PUSH1 0x1 PUSH1 0x1 PUSH1 0xA0 SHL SUB AND PUSH32 0xA0399DE992F1FEAEFA358D72DBE41236283DF49954645A97C6CDF67FE512D8C5 DUP4 DUP4 PUSH1 0x40 MLOAD PUSH3 0xE85 SWAP3 SWAP2 SWAP1 PUSH3 0x373B JUMP JUMPDEST PUSH1 0x40 MLOAD DUP1 SWAP2 SUB SWAP1 LOG2 POP POP JUMP JUMPDEST PUSH1 0x5 SLOAD PUSH1 0x1 PUSH1 0x1 PUSH1 0xA0 SHL SUB AND CALLER EQ PUSH3 0xEDC JUMPI PUSH1 0x40 MLOAD PUSH3 0x461BCD PUSH1 0xE5 SHL DUP2 MSTORE PUSH1 0x20 PUSH1 0x4 DUP3 ADD DUP2 SWAP1 MSTORE PUSH1 0x24 DUP3 ADD MSTORE PUSH1 0x0 DUP1 MLOAD PUSH1 0x20 PUSH3 0x478C DUP4 CODECOPY DUP2 MLOAD SWAP2 MSTORE PUSH1 0x44 DUP3 ADD MSTORE PUSH1 0x64 ADD PUSH3 0xD12 JUMP JUMPDEST PUSH3 0xEE6 PUSH3 0x2CA6 JUMP JUMPDEST DUP1 PUSH3 0xF29 JUMPI PUSH1 0x40 MLOAD PUSH3 0x461BCD PUSH1 0xE5 SHL DUP2 MSTORE PUSH1 0x20 PUSH1 0x4 DUP3 ADD MSTORE PUSH1 0x11 PUSH1 0x24 DUP3 ADD MSTORE PUSH17 0x4E6F7468696E6720746F2064656C657465 PUSH1 0x78 SHL PUSH1 0x44 DUP3 ADD MSTORE PUSH1 0x64 ADD PUSH3 0xD12 JUMP JUMPDEST PUSH1 0x0 JUMPDEST DUP2 DUP2 LT ISZERO PUSH3 0xFE9 JUMPI PUSH1 0x12 SLOAD PUSH1 0x1 PUSH1 0x1 PUSH1 0xA0 SHL SUB AND PUSH4 0x7D3BCA76 DUP5 DUP5 DUP5 DUP2 DUP2 LT PUSH3 0xF5B JUMPI PUSH3 0xF5B PUSH3 0x3725 JUMP JUMPDEST SWAP1 POP PUSH1 0x20 MUL ADD PUSH1 0x20 DUP2 ADD SWAP1 PUSH3 0xF72 SWAP2 SWAP1 PUSH3 0x36AC JUMP JUMPDEST PUSH1 0x40 MLOAD PUSH1 0x1 PUSH1 0x1 PUSH1 0xE0 SHL SUB NOT PUSH1 0xE0 DUP5 SWAP1 SHL AND DUP2 MSTORE PUSH1 0x1 PUSH1 0x1 PUSH1 0xA0 SHL SUB SWAP1 SWAP2 AND PUSH1 0x4 DUP3 ADD MSTORE PUSH1 0x24 ADD PUSH1 0x20 PUSH1 0x40 MLOAD DUP1 DUP4 SUB DUP2 PUSH1 0x0 DUP8 GAS CALL ISZERO DUP1 ISZERO PUSH3 0xFB9 JUMPI RETURNDATASIZE PUSH1 0x0 DUP1 RETURNDATACOPY RETURNDATASIZE PUSH1 0x0 REVERT JUMPDEST POP POP POP POP PUSH1 0x40 MLOAD RETURNDATASIZE PUSH1 0x1F NOT PUSH1 0x1F DUP3 ADD AND DUP3 ADD DUP1 PUSH1 0x40 MSTORE POP DUP2 ADD SWAP1 PUSH3 0xFDF SWAP2 SWAP1 PUSH3 0x3796 JUMP JUMPDEST POP PUSH1 0x1 ADD PUSH3 0xF2C JUMP JUMPDEST POP CALLER PUSH1 0x1 PUSH1 0x1 PUSH1 0xA0 SHL SUB AND PUSH32 0x291DFE4715509C3F59F312A5AC129163BD5A374B94EE9D18CC0CA02FC3B99049 DUP4 DUP4 PUSH1 0x40 MLOAD PUSH3 0xE85 SWAP3 SWAP2 SWAP1 PUSH3 0x37B0 JUMP JUMPDEST PUSH1 0x60 PUSH1 0x3 DUP1 SLOAD PUSH3 0x1038 SWAP1 PUSH3 0x3800 JUMP JUMPDEST DUP1 PUSH1 0x1F ADD PUSH1 0x20 DUP1 SWAP2 DIV MUL PUSH1 0x20 ADD PUSH1 0x40 MLOAD SWAP1 DUP2 ADD PUSH1 0x40 MSTORE DUP1 SWAP3 SWAP2 SWAP1 DUP2 DUP2 MSTORE PUSH1 0x20 ADD DUP3 DUP1 SLOAD PUSH3 0x1066 SWAP1 PUSH3 0x3800 JUMP JUMPDEST DUP1 ISZERO PUSH3 0x10B7 JUMPI DUP1 PUSH1 0x1F LT PUSH3 0x108B JUMPI PUSH2 0x100 DUP1 DUP4 SLOAD DIV MUL DUP4 MSTORE SWAP2 PUSH1 0x20 ADD SWAP2 PUSH3 0x10B7 JUMP JUMPDEST DUP3 ADD SWAP2 SWAP1 PUSH1 0x0 MSTORE PUSH1 0x20 PUSH1 0x0 KECCAK256 SWAP1 JUMPDEST DUP2 SLOAD DUP2 MSTORE SWAP1 PUSH1 0x1 ADD SWAP1 PUSH1 0x20 ADD DUP1 DUP4 GT PUSH3 0x1099 JUMPI DUP3 SWAP1 SUB PUSH1 0x1F AND DUP3 ADD SWAP2 JUMPDEST POP POP POP POP POP SWAP1 POP SWAP1 JUMP JUMPDEST PUSH1 0x0 CALLER PUSH3 0x10D1 DUP2 DUP6 DUP6 PUSH3 0x2D05 JUMP JUMPDEST POP PUSH1 0x1 SWAP4 SWAP3 POP POP POP JUMP JUMPDEST PUSH1 0x5 SLOAD PUSH1 0x1 PUSH1 0x1 PUSH1 0xA0 SHL SUB AND CALLER EQ PUSH3 0x1126 JUMPI PUSH1 0x40 MLOAD PUSH3 0x461BCD PUSH1 0xE5 SHL DUP2 MSTORE PUSH1 0x20 PUSH1 0x4 DUP3 ADD DUP2 SWAP1 MSTORE PUSH1 0x24 DUP3 ADD MSTORE PUSH1 0x0 DUP1 MLOAD PUSH1 0x20 PUSH3 0x478C DUP4 CODECOPY DUP2 MLOAD SWAP2 MSTORE PUSH1 0x44 DUP3 ADD MSTORE PUSH1 0x64 ADD PUSH3 0xD12 JUMP JUMPDEST PUSH1 0xA SLOAD PUSH3 0x1135 SWAP1 DUP3 PUSH3 0x2E5A JUMP JUMPDEST PUSH1 0xA SSTORE PUSH1 0x8 SLOAD PUSH3 0x1147 SWAP1 DUP3 PUSH3 0x2E5A JUMP JUMPDEST PUSH1 0x8 SSTORE PUSH1 0x40 MLOAD DUP2 DUP2 MSTORE PUSH1 0x0 SWAP1 ADDRESS SWAP1 PUSH32 0x715128EA18BCB5A472F8187C4FBFDC1ED6D04ECDCFF67E3F546FDD075E862665 SWAP1 PUSH1 0x20 ADD JUMPDEST PUSH1 0x40 MLOAD DUP1 SWAP2 SUB SWAP1 LOG3 POP JUMP JUMPDEST PUSH1 0x0 CALLER PUSH3 0x1196 DUP6 DUP3 DUP6 PUSH3 0x2E68 JUMP JUMPDEST PUSH3 0x11A3 DUP6 DUP6 DUP6 PUSH3 0x2EF9 JUMP JUMPDEST POP PUSH1 0x1 SWAP5 SWAP4 POP POP POP POP JUMP JUMPDEST CALLER PUSH1 0x0 DUP2 DUP2 MSTORE PUSH1 0x7 PUSH1 0x20 SWAP1 DUP2 MSTORE PUSH1 0x40 DUP1 DUP4 KECCAK256 PUSH1 0x1 PUSH1 0x1 PUSH1 0xA0 SHL SUB DUP8 AND DUP5 MSTORE SWAP1 SWAP2 MSTORE DUP2 KECCAK256 SLOAD SWAP1 SWAP2 SWAP1 PUSH3 0x10D1 SWAP1 DUP3 SWAP1 DUP7 SWAP1 PUSH3 0x11EB SWAP1 DUP8 SWAP1 PUSH3 0x3853 JUMP JUMPDEST PUSH3 0x2D05 JUMP JUMPDEST PUSH1 0x5 SLOAD PUSH1 0x1 PUSH1 0x1 PUSH1 0xA0 SHL SUB AND CALLER EQ PUSH3 0x123C JUMPI PUSH1 0x40 MLOAD PUSH3 0x461BCD PUSH1 0xE5 SHL DUP2 MSTORE PUSH1 0x20 PUSH1 0x4 DUP3 ADD DUP2 SWAP1 MSTORE PUSH1 0x24 DUP3 ADD MSTORE PUSH1 0x0 DUP1 MLOAD PUSH1 0x20 PUSH3 0x478C DUP4 CODECOPY DUP2 MLOAD SWAP2 MSTORE PUSH1 0x44 DUP3 ADD MSTORE PUSH1 0x64 ADD PUSH3 0xD12 JUMP JUMPDEST PUSH3 0x1248 DUP3 DUP3 PUSH3 0x3177 JUMP JUMPDEST POP POP JUMP JUMPDEST PUSH3 0x1258 CALLER DUP3 PUSH3 0x325C JUMP JUMPDEST POP JUMP JUMPDEST PUSH1 0x5 SLOAD PUSH1 0x1 PUSH1 0x1 PUSH1 0xA0 SHL SUB AND CALLER EQ PUSH3 0x12A6 JUMPI PUSH1 0x40 MLOAD PUSH3 0x461BCD PUSH1 0xE5 SHL DUP2 MSTORE PUSH1 0x20 PUSH1 0x4 DUP3 ADD DUP2 SWAP1 MSTORE PUSH1 0x24 DUP3 ADD MSTORE PUSH1 0x0 DUP1 MLOAD PUSH1 0x20 PUSH3 0x478C DUP4 CODECOPY DUP2 MLOAD SWAP2 MSTORE PUSH1 0x44 DUP3 ADD MSTORE PUSH1 0x64 ADD PUSH3 0xD12 JUMP JUMPDEST PUSH1 0x5 DUP2 PUSH1 0xFF AND LT PUSH3 0x12FB JUMPI PUSH1 0x40 MLOAD PUSH3 0x461BCD PUSH1 0xE5 SHL DUP2 MSTORE PUSH1 0x20 PUSH1 0x4 DUP3 ADD MSTORE PUSH1 0x15 PUSH1 0x24 DUP3 ADD MSTORE PUSH32 0x54617820466565206D6178696D756D2069732035250000000000000000000000 PUSH1 0x44 DUP3 ADD MSTORE PUSH1 0x64 ADD PUSH3 0xD12 JUMP JUMPDEST PUSH1 0xC DUP1 SLOAD PUSH1 0xFF NOT AND PUSH1 0xFF DUP4 AND SWAP1 DUP2 OR SWAP1 SWAP2 SSTORE PUSH1 0x40 MLOAD SWAP1 DUP2 MSTORE CALLER SWAP1 PUSH32 0xDF92943B31FFF67E8447FF9FA8B5E226DDCC5FB34D36CFE120C0F2B96EB8D6F7 SWAP1 PUSH1 0x20 ADD JUMPDEST PUSH1 0x40 MLOAD DUP1 SWAP2 SUB SWAP1 LOG2 POP JUMP JUMPDEST PUSH1 0x5 SLOAD PUSH1 0x1 PUSH1 0x1 PUSH1 0xA0 SHL SUB AND CALLER EQ PUSH3 0x1391 JUMPI PUSH1 0x40 MLOAD PUSH3 0x461BCD PUSH1 0xE5 SHL DUP2 MSTORE PUSH1 0x20 PUSH1 0x4 DUP3 ADD DUP2 SWAP1 MSTORE PUSH1 0x24 DUP3 ADD MSTORE PUSH1 0x0 DUP1 MLOAD PUSH1 0x20 PUSH3 0x478C DUP4 CODECOPY DUP2 MLOAD SWAP2 MSTORE PUSH1 0x44 DUP3 ADD MSTORE PUSH1 0x64 ADD PUSH3 0xD12 JUMP JUMPDEST PUSH3 0x139B PUSH3 0x2CA6 JUMP JUMPDEST DUP1 PUSH3 0x13DB JUMPI PUSH1 0x40 MLOAD PUSH3 0x461BCD PUSH1 0xE5 SHL DUP2 MSTORE PUSH1 0x20 PUSH1 0x4 DUP3 ADD MSTORE PUSH1 0xE PUSH1 0x24 DUP3 ADD MSTORE PUSH14 0x139BDD1A1A5B99C81D1BC8185919 PUSH1 0x92 SHL PUSH1 0x44 DUP3 ADD MSTORE PUSH1 0x64 ADD PUSH3 0xD12 JUMP JUMPDEST PUSH1 0x0 JUMPDEST DUP2 DUP2 LT ISZERO PUSH3 0xE47 JUMPI PUSH1 0x14 SLOAD PUSH1 0x1 PUSH1 0x1 PUSH1 0xA0 SHL SUB AND PUSH4 0x96074E70 DUP5 DUP5 DUP5 DUP2 DUP2 LT PUSH3 0x140D JUMPI PUSH3 0x140D PUSH3 0x3725 JUMP JUMPDEST PUSH3 0x1425 SWAP3 PUSH1 0x20 PUSH1 0x40 SWAP1 SWAP3 MUL ADD SWAP1 DUP2 ADD SWAP2 POP PUSH3 0x36AC JUMP JUMPDEST DUP6 DUP6 DUP6 DUP2 DUP2 LT PUSH3 0x143A JUMPI PUSH3 0x143A PUSH3 0x3725 JUMP JUMPDEST SWAP1 POP PUSH1 0x40 MUL ADD PUSH1 0x20 ADD CALLDATALOAD PUSH1 0x40 MLOAD DUP4 PUSH4 0xFFFFFFFF AND PUSH1 0xE0 SHL DUP2 MSTORE PUSH1 0x4 ADD PUSH3 0x1476 SWAP3 SWAP2 SWAP1 PUSH1 0x1 PUSH1 0x1 PUSH1 0xA0 SHL SUB SWAP3 SWAP1 SWAP3 AND DUP3 MSTORE PUSH1 0x20 DUP3 ADD MSTORE PUSH1 0x40 ADD SWAP1 JUMP JUMPDEST PUSH1 0x0 PUSH1 0x40 MLOAD DUP1 DUP4 SUB DUP2 PUSH1 0x0 DUP8 DUP1 EXTCODESIZE ISZERO DUP1 ISZERO PUSH3 0x1491 JUMPI PUSH1 0x0 DUP1 REVERT JUMPDEST POP GAS CALL ISZERO DUP1 ISZERO PUSH3 0x14A6 JUMPI RETURNDATASIZE PUSH1 0x0 DUP1 RETURNDATACOPY RETURNDATASIZE PUSH1 0x0 REVERT JUMPDEST POP POP POP POP PUSH3 0x14B5 DUP2 PUSH1 0x1 ADD SWAP1 JUMP JUMPDEST SWAP1 POP PUSH3 0x13DE JUMP JUMPDEST PUSH3 0x14C7 PUSH3 0x2CA6 JUMP JUMPDEST PUSH1 0xC SLOAD PUSH1 0xFF PUSH2 0x100 SWAP1 SWAP2 DIV AND ISZERO ISZERO PUSH1 0x1 EQ PUSH3 0x1526 JUMPI PUSH1 0x40 MLOAD PUSH3 0x461BCD PUSH1 0xE5 SHL DUP2 MSTORE PUSH1 0x20 PUSH1 0x4 DUP3 ADD MSTORE PUSH1 0x17 PUSH1 0x24 DUP3 ADD MSTORE PUSH32 0x41697264726F70206E6F74207965742073746172746564000000000000000000 PUSH1 0x44 DUP3 ADD MSTORE PUSH1 0x64 ADD PUSH3 0xD12 JUMP JUMPDEST PUSH1 0x11 SLOAD PUSH1 0x0 SWAP1 PUSH1 0x1 PUSH1 0x1 PUSH1 0xA0 SHL SUB AND PUSH4 0x65F8C6C5 CALLER PUSH1 0x40 MLOAD PUSH1 0x1 PUSH1 0x1 PUSH1 0xE0 SHL SUB NOT PUSH1 0xE0 DUP5 SWAP1 SHL AND DUP2 MSTORE PUSH1 0x1 PUSH1 0x1 PUSH1 0xA0 SHL SUB SWAP1 SWAP2 AND PUSH1 0x4 DUP3 ADD MSTORE PUSH1 0x24 ADD PUSH1 0x20 PUSH1 0x40 MLOAD DUP1 DUP4 SUB DUP2 DUP7 GAS STATICCALL ISZERO DUP1 ISZERO PUSH3 0x1580 JUMPI RETURNDATASIZE PUSH1 0x0 DUP1 RETURNDATACOPY RETURNDATASIZE PUSH1 0x0 REVERT JUMPDEST POP POP POP POP PUSH1 0x40 MLOAD RETURNDATASIZE PUSH1 0x1F NOT PUSH1 0x1F DUP3 ADD AND DUP3 ADD DUP1 PUSH1 0x40 MSTORE POP DUP2 ADD SWAP1 PUSH3 0x15A6 SWAP2 SWAP1 PUSH3 0x3796 JUMP JUMPDEST ADDRESS PUSH1 0x0 SWAP1 DUP2 MSTORE PUSH1 0x6 PUSH1 0x20 MSTORE PUSH1 0x40 SWAP1 KECCAK256 SLOAD SWAP1 SWAP2 POP PUSH3 0x15C5 SWAP1 DUP3 PUSH3 0x2E5A JUMP JUMPDEST ADDRESS PUSH1 0x0 SWAP1 DUP2 MSTORE PUSH1 0x6 PUSH1 0x20 DUP2 SWAP1 MSTORE PUSH1 0x40 DUP3 KECCAK256 SWAP3 SWAP1 SWAP3 SSTORE PUSH3 0x1604 SWAP2 DUP4 SWAP2 CALLER JUMPDEST PUSH1 0x1 PUSH1 0x1 PUSH1 0xA0 SHL SUB AND DUP2 MSTORE PUSH1 0x20 DUP2 ADD SWAP2 SWAP1 SWAP2 MSTORE PUSH1 0x40 ADD PUSH1 0x0 KECCAK256 SLOAD SWAP1 PUSH3 0x2C98 JUMP JUMPDEST CALLER PUSH1 0x0 SWAP1 DUP2 MSTORE PUSH1 0x6 PUSH1 0x20 MSTORE PUSH1 0x40 SWAP1 KECCAK256 SSTORE POP JUMP JUMPDEST CALLER PUSH1 0x0 SWAP1 DUP2 MSTORE PUSH1 0x6 PUSH1 0x20 MSTORE PUSH1 0x40 SWAP1 KECCAK256 SLOAD PUSH3 0x1633 SWAP1 DUP3 PUSH3 0x2E5A JUMP JUMPDEST CALLER PUSH1 0x0 SWAP1 DUP2 MSTORE PUSH1 0x6 PUSH1 0x20 MSTORE PUSH1 0x40 DUP2 KECCAK256 SWAP2 SWAP1 SWAP2 SSTORE PUSH1 0xB DUP1 SLOAD DUP4 SWAP3 SWAP1 PUSH3 0x165A SWAP1 DUP5 SWAP1 PUSH3 0x3853 JUMP JUMPDEST SWAP1 SWAP2 SSTORE POP POP POP JUMP JUMPDEST PUSH1 0x5 SLOAD PUSH1 0x1 PUSH1 0x1 PUSH1 0xA0 SHL SUB AND CALLER EQ PUSH3 0x16AD JUMPI PUSH1 0x40 MLOAD PUSH3 0x461BCD PUSH1 0xE5 SHL DUP2 MSTORE PUSH1 0x20 PUSH1 0x4 DUP3 ADD DUP2 SWAP1 MSTORE PUSH1 0x24 DUP3 ADD MSTORE PUSH1 0x0 DUP1 MLOAD PUSH1 0x20 PUSH3 0x478C DUP4 CODECOPY DUP2 MLOAD SWAP2 MSTORE PUSH1 0x44 DUP3 ADD MSTORE PUSH1 0x64 ADD PUSH3 0xD12 JUMP JUMPDEST PUSH3 0x16B9 PUSH1 0x0 PUSH3 0x33E0 JUMP JUMPDEST JUMP JUMPDEST PUSH1 0x5 SLOAD PUSH1 0x1 PUSH1 0x1 PUSH1 0xA0 SHL SUB AND CALLER EQ PUSH3 0x1706 JUMPI PUSH1 0x40 MLOAD PUSH3 0x461BCD PUSH1 0xE5 SHL DUP2 MSTORE PUSH1 0x20 PUSH1 0x4 DUP3 ADD DUP2 SWAP1 MSTORE PUSH1 0x24 DUP3 ADD MSTORE PUSH1 0x0 DUP1 MLOAD PUSH1 0x20 PUSH3 0x478C DUP4 CODECOPY DUP2 MLOAD SWAP2 MSTORE PUSH1 0x44 DUP3 ADD MSTORE PUSH1 0x64 ADD PUSH3 0xD12 JUMP JUMPDEST PUSH3 0x1710 PUSH3 0x2CA6 JUMP JUMPDEST DUP1 PUSH3 0x1753 JUMPI PUSH1 0x40 MLOAD PUSH3 0x461BCD PUSH1 0xE5 SHL DUP2 MSTORE PUSH1 0x20 PUSH1 0x4 DUP3 ADD MSTORE PUSH1 0x11 PUSH1 0x24 DUP3 ADD MSTORE PUSH17 0x4E6F7468696E6720746F2064656C657465 PUSH1 0x78 SHL PUSH1 0x44 DUP3 ADD MSTORE PUSH1 0x64 ADD PUSH3 0xD12 JUMP JUMPDEST PUSH1 0x0 JUMPDEST DUP2 DUP2 LT ISZERO PUSH3 0xFE9 JUMPI PUSH1 0x14 SLOAD PUSH1 0x1 PUSH1 0x1 PUSH1 0xA0 SHL SUB AND PUSH4 0x7D3BCA76 DUP5 DUP5 DUP5 DUP2 DUP2 LT PUSH3 0x1785 JUMPI PUSH3 0x1785 PUSH3 0x3725 JUMP JUMPDEST SWAP1 POP PUSH1 0x20 MUL ADD PUSH1 0x20 DUP2 ADD SWAP1 PUSH3 0x179C SWAP2 SWAP1 PUSH3 0x36AC JUMP JUMPDEST PUSH1 0x40 MLOAD PUSH1 0x1 PUSH1 0x1 PUSH1 0xE0 SHL SUB NOT PUSH1 0xE0 DUP5 SWAP1 SHL AND DUP2 MSTORE PUSH1 0x1 PUSH1 0x1 PUSH1 0xA0 SHL SUB SWAP1 SWAP2 AND PUSH1 0x4 DUP3 ADD MSTORE PUSH1 0x24 ADD PUSH1 0x20 PUSH1 0x40 MLOAD DUP1 DUP4 SUB DUP2 PUSH1 0x0 DUP8 GAS CALL ISZERO DUP1 ISZERO PUSH3 0x17E3 JUMPI RETURNDATASIZE PUSH1 0x0 DUP1 RETURNDATACOPY RETURNDATASIZE PUSH1 0x0 REVERT JUMPDEST POP POP POP POP PUSH1 0x40 MLOAD RETURNDATASIZE PUSH1 0x1F NOT PUSH1 0x1F DUP3 ADD AND DUP3 ADD DUP1 PUSH1 0x40 MSTORE POP DUP2 ADD SWAP1 PUSH3 0x1809 SWAP2 SWAP1 PUSH3 0x3796 JUMP JUMPDEST POP PUSH1 0x1 ADD PUSH3 0x1756 JUMP JUMPDEST PUSH3 0x1820 DUP3 CALLER DUP4 PUSH3 0x2E68 JUMP JUMPDEST PUSH3 0x1248 DUP3 DUP3 PUSH3 0x325C JUMP JUMPDEST DUP1 PUSH3 0x76A700 EQ DUP1 PUSH3 0x1840 JUMPI POP DUP1 PUSH3 0xED4E00 EQ JUMPDEST DUP1 PUSH3 0x184F JUMPI POP DUP1 PUSH4 0x1E13380 EQ JUMPDEST PUSH3 0x189D JUMPI PUSH1 0x40 MLOAD PUSH3 0x461BCD PUSH1 0xE5 SHL DUP2 MSTORE PUSH1 0x20 PUSH1 0x4 DUP3 ADD MSTORE PUSH1 0x1B PUSH1 0x24 DUP3 ADD MSTORE PUSH32 0x5374616B696E67206F7074696F6E20646F65736E742065786973740000000000 PUSH1 0x44 DUP3 ADD MSTORE PUSH1 0x64 ADD PUSH3 0xD12 JUMP JUMPDEST PUSH3 0x18A9 CALLER DUP4 PUSH3 0x325C JUMP JUMPDEST PUSH1 0x11 SLOAD PUSH1 0x0 DUP3 DUP2 MSTORE PUSH1 0x9 PUSH1 0x20 MSTORE PUSH1 0x40 SWAP1 DUP2 SWAP1 KECCAK256 SLOAD SWAP1 MLOAD PUSH32 0xF93D4F8A00000000000000000000000000000000000000000000000000000000 DUP2 MSTORE CALLER PUSH1 0x4 DUP3 ADD MSTORE PUSH1 0x24 DUP2 ADD DUP6 SWAP1 MSTORE PUSH1 0x44 DUP2 ADD DUP5 SWAP1 MSTORE PUSH1 0x64 DUP2 ADD SWAP2 SWAP1 SWAP2 MSTORE PUSH1 0x1 PUSH1 0x1 PUSH1 0xA0 SHL SUB SWAP1 SWAP2 AND SWAP1 PUSH4 0xF93D4F8A SWAP1 PUSH1 0x84 ADD PUSH1 0x0 PUSH1 0x40 MLOAD DUP1 DUP4 SUB DUP2 PUSH1 0x0 DUP8 DUP1 EXTCODESIZE ISZERO DUP1 ISZERO PUSH3 0x192E JUMPI PUSH1 0x0 DUP1 REVERT JUMPDEST POP GAS CALL ISZERO DUP1 ISZERO PUSH3 0x1943 JUMPI RETURNDATASIZE PUSH1 0x0 DUP1 RETURNDATACOPY RETURNDATASIZE PUSH1 0x0 REVERT JUMPDEST POP POP ADDRESS PUSH1 0x0 SWAP1 DUP2 MSTORE PUSH1 0x6 PUSH1 0x20 MSTORE PUSH1 0x40 SWAP1 KECCAK256 SLOAD PUSH3 0x1964 SWAP3 POP SWAP1 POP DUP4 PUSH3 0x2C98 JUMP JUMPDEST ADDRESS PUSH1 0x0 SWAP1 DUP2 MSTORE PUSH1 0x6 PUSH1 0x20 MSTORE PUSH1 0x40 SWAP1 KECCAK256 SSTORE POP POP JUMP JUMPDEST PUSH1 0x5 SLOAD PUSH1 0x1 PUSH1 0x1 PUSH1 0xA0 SHL SUB AND CALLER EQ PUSH3 0x19C3 JUMPI PUSH1 0x40 MLOAD PUSH3 0x461BCD PUSH1 0xE5 SHL DUP2 MSTORE PUSH1 0x20 PUSH1 0x4 DUP3 ADD DUP2 SWAP1 MSTORE PUSH1 0x24 DUP3 ADD MSTORE PUSH1 0x0 DUP1 MLOAD PUSH1 0x20 PUSH3 0x478C DUP4 CODECOPY DUP2 MLOAD SWAP2 MSTORE PUSH1 0x44 DUP3 ADD MSTORE PUSH1 0x64 ADD PUSH3 0xD12 JUMP JUMPDEST ADDRESS PUSH1 0x0 SWAP1 DUP2 MSTORE PUSH1 0x6 PUSH1 0x20 MSTORE PUSH1 0x40 SWAP1 KECCAK256 SLOAD PUSH3 0x19DF SWAP1 DUP3 PUSH3 0x2E5A JUMP JUMPDEST ADDRESS PUSH1 0x0 SWAP1 DUP2 MSTORE PUSH1 0x6 PUSH1 0x20 MSTORE PUSH1 0x40 SWAP1 KECCAK256 SSTORE PUSH1 0x8 SLOAD PUSH3 0x19FE SWAP1 DUP3 PUSH3 0x2E5A JUMP JUMPDEST PUSH1 0x8 SSTORE PUSH1 0x40 MLOAD DUP2 DUP2 MSTORE PUSH1 0x0 SWAP1 ADDRESS SWAP1 PUSH32 0xDDF252AD1BE2C89B69C2B068FC378DAA952BA7F163C4A11628F55A4DF523B3EF SWAP1 PUSH1 0x20 ADD PUSH3 0x117B JUMP JUMPDEST PUSH1 0x5 SLOAD PUSH1 0x1 PUSH1 0x1 PUSH1 0xA0 SHL SUB AND CALLER EQ PUSH3 0x1A82 JUMPI PUSH1 0x40 MLOAD PUSH3 0x461BCD PUSH1 0xE5 SHL DUP2 MSTORE PUSH1 0x20 PUSH1 0x4 DUP3 ADD DUP2 SWAP1 MSTORE PUSH1 0x24 DUP3 ADD MSTORE PUSH1 0x0 DUP1 MLOAD PUSH1 0x20 PUSH3 0x478C DUP4 CODECOPY DUP2 MLOAD SWAP2 MSTORE PUSH1 0x44 DUP3 ADD MSTORE PUSH1 0x64 ADD PUSH3 0xD12 JUMP JUMPDEST PUSH1 0x11 SLOAD PUSH1 0x40 MLOAD PUSH32 0x8C63F97F00000000000000000000000000000000000000000000000000000000 DUP2 MSTORE PUSH1 0x4 DUP2 ADD DUP4 SWAP1 MSTORE PUSH1 0x1 PUSH1 0x1 PUSH1 0xA0 SHL SUB SWAP1 SWAP2 AND SWAP1 PUSH4 0x8C63F97F SWAP1 PUSH1 0x24 ADD PUSH1 0x0 PUSH1 0x40 MLOAD DUP1 DUP4 SUB DUP2 PUSH1 0x0 DUP8 DUP1 EXTCODESIZE ISZERO DUP1 ISZERO PUSH3 0x1AE2 JUMPI PUSH1 0x0 DUP1 REVERT JUMPDEST POP GAS CALL ISZERO DUP1 ISZERO PUSH3 0x1AF7 JUMPI RETURNDATASIZE PUSH1 0x0 DUP1 RETURNDATACOPY RETURNDATASIZE PUSH1 0x0 REVERT JUMPDEST POP POP POP POP PUSH3 0x1B03 CALLER SWAP1 JUMP JUMPDEST PUSH1 0x1 PUSH1 0x1 PUSH1 0xA0 SHL SUB AND PUSH32 0xE4D1041AB63832A18AE323C0781239637B799CCD1FFA03B0CC4C0916F14834D7 DUP3 PUSH1 0x40 MLOAD PUSH3 0x133B SWAP2 DUP2 MSTORE PUSH1 0x20 ADD SWAP1 JUMP JUMPDEST PUSH3 0x1B48 PUSH3 0x2CA6 JUMP JUMPDEST PUSH1 0x12 SLOAD PUSH3 0x1BD7 SWAP1 PUSH1 0x1 PUSH1 0x1 PUSH1 0xA0 SHL SUB AND PUSH3 0x5171F4 CALLER JUMPDEST PUSH1 0x40 MLOAD PUSH1 0x1 PUSH1 0x1 PUSH1 0xE0 SHL SUB NOT PUSH1 0xE0 DUP5 SWAP1 SHL AND DUP2 MSTORE PUSH1 0x1 PUSH1 0x1 PUSH1 0xA0 SHL SUB SWAP1 SWAP2 AND PUSH1 0x4 DUP3 ADD MSTORE PUSH1 0x24 ADD PUSH1 0x20 PUSH1 0x40 MLOAD DUP1 DUP4 SUB DUP2 PUSH1 0x0 DUP8 GAS CALL ISZERO DUP1 ISZERO PUSH3 0x1BA6 JUMPI RETURNDATASIZE PUSH1 0x0 DUP1 RETURNDATACOPY RETURNDATASIZE PUSH1 0x0 REVERT JUMPDEST POP POP POP POP PUSH1 0x40 MLOAD RETURNDATASIZE PUSH1 0x1F NOT PUSH1 0x1F DUP3 ADD AND DUP3 ADD DUP1 PUSH1 0x40 MSTORE POP DUP2 ADD SWAP1 PUSH3 0x1BCC SWAP2 SWAP1 PUSH3 0x3796 JUMP JUMPDEST PUSH1 0x6 PUSH1 0x0 CALLER PUSH3 0x15E3 JUMP JUMPDEST CALLER PUSH1 0x0 SWAP1 DUP2 MSTORE PUSH1 0x6 PUSH1 0x20 MSTORE PUSH1 0x40 SWAP1 KECCAK256 SSTORE JUMP JUMPDEST PUSH1 0x5 SLOAD PUSH1 0x1 PUSH1 0x1 PUSH1 0xA0 SHL SUB AND CALLER EQ PUSH3 0x1C34 JUMPI PUSH1 0x40 MLOAD PUSH3 0x461BCD PUSH1 0xE5 SHL DUP2 MSTORE PUSH1 0x20 PUSH1 0x4 DUP3 ADD DUP2 SWAP1 MSTORE PUSH1 0x24 DUP3 ADD MSTORE PUSH1 0x0 DUP1 MLOAD PUSH1 0x20 PUSH3 0x478C DUP4 CODECOPY DUP2 MLOAD SWAP2 MSTORE PUSH1 0x44 DUP3 ADD MSTORE PUSH1 0x64 ADD PUSH3 0xD12 JUMP JUMPDEST PUSH1 0x11 SLOAD PUSH1 0x40 DUP1 MLOAD PUSH32 0x671D2B7500000000000000000000000000000000000000000000000000000000 DUP2 MSTORE SWAP1 MLOAD PUSH1 0x0 SWAP3 PUSH1 0x1 PUSH1 0x1 PUSH1 0xA0 SHL SUB AND SWAP2 PUSH4 0x671D2B75 SWAP2 PUSH1 0x4 DUP1 DUP4 ADD SWAP3 PUSH1 0x20 SWAP3 SWAP2 SWAP1 DUP3 SWAP1 SUB ADD DUP2 DUP7 GAS STATICCALL ISZERO DUP1 ISZERO PUSH3 0x1C98 JUMPI RETURNDATASIZE PUSH1 0x0 DUP1 RETURNDATACOPY RETURNDATASIZE PUSH1 0x0 REVERT JUMPDEST POP POP POP POP PUSH1 0x40 MLOAD RETURNDATASIZE PUSH1 0x1F NOT PUSH1 0x1F DUP3 ADD AND DUP3 ADD DUP1 PUSH1 0x40 MSTORE POP DUP2 ADD SWAP1 PUSH3 0x1CBE SWAP2 SWAP1 PUSH3 0x386E JUMP JUMPDEST SWAP1 POP PUSH1 0x1 DUP2 ISZERO ISZERO EQ ISZERO PUSH3 0x1D1D JUMPI PUSH1 0xB SLOAD PUSH3 0x1CDB SWAP1 DUP4 PUSH3 0x2E5A JUMP JUMPDEST PUSH1 0xB SSTORE PUSH1 0x1 PUSH1 0x1 PUSH1 0xA0 SHL SUB DUP4 AND PUSH1 0x0 SWAP1 DUP2 MSTORE PUSH1 0x6 PUSH1 0x20 MSTORE PUSH1 0x40 SWAP1 KECCAK256 SLOAD PUSH3 0x1D03 SWAP1 DUP4 PUSH3 0x2C98 JUMP JUMPDEST PUSH1 0x1 PUSH1 0x1 PUSH1 0xA0 SHL SUB DUP5 AND PUSH1 0x0 SWAP1 DUP2 MSTORE PUSH1 0x6 PUSH1 0x20 MSTORE PUSH1 0x40 SWAP1 KECCAK256 SSTORE JUMPDEST PUSH1 0x11 PUSH1 0x0 SWAP1 SLOAD SWAP1 PUSH2 0x100 EXP SWAP1 DIV PUSH1 0x1 PUSH1 0x1 PUSH1 0xA0 SHL SUB AND PUSH1 0x1 PUSH1 0x1 PUSH1 0xA0 SHL SUB AND PUSH4 0xFAB2F86B PUSH1 0x40 MLOAD DUP2 PUSH4 0xFFFFFFFF AND PUSH1 0xE0 SHL DUP2 MSTORE PUSH1 0x4 ADD PUSH1 0x0 PUSH1 0x40 MLOAD DUP1 DUP4 SUB DUP2 PUSH1 0x0 DUP8 DUP1 EXTCODESIZE ISZERO DUP1 ISZERO PUSH3 0x1D6E JUMPI PUSH1 0x0 DUP1 REVERT JUMPDEST POP GAS CALL ISZERO DUP1 ISZERO PUSH3 0x1D83 JUMPI RETURNDATASIZE PUSH1 0x0 DUP1 RETURNDATACOPY RETURNDATASIZE PUSH1 0x0 REVERT JUMPDEST POP POP PUSH1 0x40 MLOAD DUP5 DUP2 MSTORE PUSH1 0x1 PUSH1 0x1 PUSH1 0xA0 SHL SUB DUP7 AND SWAP3 POP ADDRESS SWAP2 POP PUSH32 0xAD139BBBE5ED2D442D6797C48156DDF43B2EA733815CB7F8047085763108EE22 SWAP1 PUSH1 0x20 ADD JUMPDEST PUSH1 0x40 MLOAD DUP1 SWAP2 SUB SWAP1 LOG3 POP POP POP JUMP JUMPDEST PUSH1 0x60 PUSH1 0x4 DUP1 SLOAD PUSH3 0x1038 SWAP1 PUSH3 0x3800 JUMP JUMPDEST PUSH1 0x5 SLOAD PUSH1 0x1 PUSH1 0x1 PUSH1 0xA0 SHL SUB AND CALLER EQ PUSH3 0x1E29 JUMPI PUSH1 0x40 MLOAD PUSH3 0x461BCD PUSH1 0xE5 SHL DUP2 MSTORE PUSH1 0x20 PUSH1 0x4 DUP3 ADD DUP2 SWAP1 MSTORE PUSH1 0x24 DUP3 ADD MSTORE PUSH1 0x0 DUP1 MLOAD PUSH1 0x20 PUSH3 0x478C DUP4 CODECOPY DUP2 MLOAD SWAP2 MSTORE PUSH1 0x44 DUP3 ADD MSTORE PUSH1 0x64 ADD PUSH3 0xD12 JUMP JUMPDEST PUSH1 0xC SLOAD PUSH3 0x10000 SWAP1 DIV PUSH1 0xFF AND ISZERO PUSH3 0x1E84 JUMPI PUSH1 0x40 MLOAD PUSH3 0x461BCD PUSH1 0xE5 SHL DUP2 MSTORE PUSH1 0x20 PUSH1 0x4 DUP3 ADD MSTORE PUSH1 0x15 PUSH1 0x24 DUP3 ADD MSTORE PUSH32 0x4E6F7468696E6720746F20696E697469616C697A650000000000000000000000 PUSH1 0x44 DUP3 ADD MSTORE PUSH1 0x64 ADD PUSH3 0xD12 JUMP JUMPDEST PUSH1 0xC DUP1 SLOAD PUSH3 0xFF0000 NOT AND PUSH3 0x10000 OR SWAP1 SSTORE PUSH1 0xD SLOAD PUSH1 0x40 MLOAD PUSH20 0xF09F65DD4D229E991901669AD7C7549F060E30B9 SWAP2 SWAP1 PUSH4 0x5684700 SWAP1 PUSH3 0x1EC3 SWAP1 PUSH3 0x349A JUMP JUMPDEST PUSH1 0x1 PUSH1 0x1 PUSH1 0xA0 SHL SUB SWAP1 SWAP4 AND DUP4 MSTORE PUSH8 0xFFFFFFFFFFFFFFFF SWAP2 DUP3 AND PUSH1 0x20 DUP5 ADD MSTORE AND PUSH1 0x40 DUP3 ADD MSTORE PUSH1 0x60 ADD PUSH1 0x40 MLOAD DUP1 SWAP2 SUB SWAP1 PUSH1 0x0 CREATE DUP1 ISZERO DUP1 ISZERO PUSH3 0x1F07 JUMPI RETURNDATASIZE PUSH1 0x0 DUP1 RETURNDATACOPY RETURNDATASIZE PUSH1 0x0 REVERT JUMPDEST POP PUSH1 0x15 PUSH1 0x0 PUSH2 0x100 EXP DUP2 SLOAD DUP2 PUSH1 0x1 PUSH1 0x1 PUSH1 0xA0 SHL SUB MUL NOT AND SWAP1 DUP4 PUSH1 0x1 PUSH1 0x1 PUSH1 0xA0 SHL SUB AND MUL OR SWAP1 SSTORE POP PUSH20 0x1A2118E056D6AF192E233C2C9CFB34E067DED1F8 PUSH1 0xD SLOAD PUSH4 0x5684700 PUSH1 0x40 MLOAD PUSH3 0x1F59 SWAP1 PUSH3 0x349A JUMP JUMPDEST PUSH1 0x1 PUSH1 0x1 PUSH1 0xA0 SHL SUB SWAP1 SWAP4 AND DUP4 MSTORE PUSH8 0xFFFFFFFFFFFFFFFF SWAP2 DUP3 AND PUSH1 0x20 DUP5 ADD MSTORE AND PUSH1 0x40 DUP3 ADD MSTORE PUSH1 0x60 ADD PUSH1 0x40 MLOAD DUP1 SWAP2 SUB SWAP1 PUSH1 0x0 CREATE DUP1 ISZERO DUP1 ISZERO PUSH3 0x1F9D JUMPI RETURNDATASIZE PUSH1 0x0 DUP1 RETURNDATACOPY RETURNDATASIZE PUSH1 0x0 REVERT JUMPDEST POP PUSH1 0x16 PUSH1 0x0 PUSH2 0x100 EXP DUP2 SLOAD DUP2 PUSH1 0x1 PUSH1 0x1 PUSH1 0xA0 SHL SUB MUL NOT AND SWAP1 DUP4 PUSH1 0x1 PUSH1 0x1 PUSH1 0xA0 SHL SUB AND MUL OR SWAP1 SSTORE POP PUSH20 0x126974FA373267D86FAB6D6871AFE62CCB68E810 PUSH1 0xD SLOAD PUSH4 0x5684700 PUSH1 0x40 MLOAD PUSH3 0x1FEF SWAP1 PUSH3 0x349A JUMP JUMPDEST PUSH1 0x1 PUSH1 0x1 PUSH1 0xA0 SHL SUB SWAP1 SWAP4 AND DUP4 MSTORE PUSH8 0xFFFFFFFFFFFFFFFF SWAP2 DUP3 AND PUSH1 0x20 DUP5 ADD MSTORE AND PUSH1 0x40 DUP3 ADD MSTORE PUSH1 0x60 ADD PUSH1 0x40 MLOAD DUP1 SWAP2 SUB SWAP1 PUSH1 0x0 CREATE DUP1 ISZERO DUP1 ISZERO PUSH3 0x2033 JUMPI RETURNDATASIZE PUSH1 0x0 DUP1 RETURNDATACOPY RETURNDATASIZE PUSH1 0x0 REVERT JUMPDEST POP PUSH1 0x17 DUP1 SLOAD PUSH1 0x1 PUSH1 0x1 PUSH1 0xA0 SHL SUB NOT AND PUSH1 0x1 PUSH1 0x1 PUSH1 0xA0 SHL SUB SWAP3 SWAP1 SWAP3 AND SWAP2 SWAP1 SWAP2 OR SWAP1 SSTORE PUSH1 0xD SLOAD PUSH20 0xE61E7A7D16DB384433E532FB85724E7F3BDAAE2F SWAP1 PUSH3 0x207D SWAP1 PUSH4 0x1B30F00 PUSH3 0x3892 JUMP JUMPDEST PUSH4 0x58FD400 PUSH1 0x40 MLOAD PUSH3 0x2090 SWAP1 PUSH3 0x349A JUMP JUMPDEST PUSH1 0x1 PUSH1 0x1 PUSH1 0xA0 SHL SUB SWAP1 SWAP4 AND DUP4 MSTORE PUSH8 0xFFFFFFFFFFFFFFFF SWAP2 DUP3 AND PUSH1 0x20 DUP5 ADD MSTORE AND PUSH1 0x40 DUP3 ADD MSTORE PUSH1 0x60 ADD PUSH1 0x40 MLOAD DUP1 SWAP2 SUB SWAP1 PUSH1 0x0 CREATE DUP1 ISZERO DUP1 ISZERO PUSH3 0x20D4 JUMPI RETURNDATASIZE PUSH1 0x0 DUP1 RETURNDATACOPY RETURNDATASIZE PUSH1 0x0 REVERT JUMPDEST POP PUSH1 0x18 DUP1 SLOAD PUSH1 0x1 PUSH1 0x1 PUSH1 0xA0 SHL SUB NOT AND PUSH1 0x1 PUSH1 0x1 PUSH1 0xA0 SHL SUB SWAP3 SWAP1 SWAP3 AND SWAP2 SWAP1 SWAP2 OR SWAP1 SSTORE PUSH1 0xD SLOAD PUSH20 0x406605EB24A97A2D61B516D8D850F2AEFA6A731A SWAP1 PUSH3 0x211E SWAP1 PUSH4 0x1B30F00 PUSH3 0x3892 JUMP JUMPDEST PUSH4 0x58FD400 PUSH1 0x40 MLOAD PUSH3 0x2131 SWAP1 PUSH3 0x349A JUMP JUMPDEST PUSH1 0x1 PUSH1 0x1 PUSH1 0xA0 SHL SUB SWAP1 SWAP4 AND DUP4 MSTORE PUSH8 0xFFFFFFFFFFFFFFFF SWAP2 DUP3 AND PUSH1 0x20 DUP5 ADD MSTORE AND PUSH1 0x40 DUP3 ADD MSTORE PUSH1 0x60 ADD PUSH1 0x40 MLOAD DUP1 SWAP2 SUB SWAP1 PUSH1 0x0 CREATE DUP1 ISZERO DUP1 ISZERO PUSH3 0x2175 JUMPI RETURNDATASIZE PUSH1 0x0 DUP1 RETURNDATACOPY RETURNDATASIZE PUSH1 0x0 REVERT JUMPDEST POP PUSH1 0x19 DUP1 SLOAD PUSH1 0x1 PUSH1 0x1 PUSH1 0xA0 SHL SUB NOT AND PUSH1 0x1 PUSH1 0x1 PUSH1 0xA0 SHL SUB SWAP3 SWAP1 SWAP3 AND SWAP2 SWAP1 SWAP2 OR SWAP1 SSTORE PUSH1 0xD SLOAD PUSH20 0x97620DEADC98BC8173303686037CE7B986CF53C3 SWAP1 PUSH3 0x21BF SWAP1 PUSH4 0x1B30F00 PUSH3 0x3892 JUMP JUMPDEST PUSH4 0x58FD400 PUSH1 0x40 MLOAD PUSH3 0x21D2 SWAP1 PUSH3 0x349A JUMP JUMPDEST PUSH1 0x1 PUSH1 0x1 PUSH1 0xA0 SHL SUB SWAP1 SWAP4 AND DUP4 MSTORE PUSH8 0xFFFFFFFFFFFFFFFF SWAP2 DUP3 AND PUSH1 0x20 DUP5 ADD MSTORE AND PUSH1 0x40 DUP3 ADD MSTORE PUSH1 0x60 ADD PUSH1 0x40 MLOAD DUP1 SWAP2 SUB SWAP1 PUSH1 0x0 CREATE DUP1 ISZERO DUP1 ISZERO PUSH3 0x2216 JUMPI RETURNDATASIZE PUSH1 0x0 DUP1 RETURNDATACOPY RETURNDATASIZE PUSH1 0x0 REVERT JUMPDEST POP PUSH1 0x1A DUP1 SLOAD PUSH1 0x1 PUSH1 0x1 PUSH1 0xA0 SHL SUB NOT AND PUSH1 0x1 PUSH1 0x1 PUSH1 0xA0 SHL SUB SWAP3 SWAP1 SWAP3 AND SWAP2 SWAP1 SWAP2 OR SWAP1 SSTORE PUSH1 0x40 MLOAD CALLER SWAP1 PUSH32 0xBB0DECB63FAA4B69E6416703EC08AC4829E218EBAFD2876DD518C2742B7B975D SWAP1 PUSH1 0x0 SWAP1 LOG2 PUSH1 0x13 PUSH1 0x0 SWAP1 SLOAD SWAP1 PUSH2 0x100 EXP SWAP1 DIV PUSH1 0x1 PUSH1 0x1 PUSH1 0xA0 SHL SUB AND PUSH1 0x1 PUSH1 0x1 PUSH1 0xA0 SHL SUB AND PUSH4 0xEFDD8796 PUSH1 0x40 MLOAD DUP2 PUSH4 0xFFFFFFFF AND PUSH1 0xE0 SHL DUP2 MSTORE PUSH1 0x4 ADD PUSH1 0x0 PUSH1 0x40 MLOAD DUP1 DUP4 SUB DUP2 PUSH1 0x0 DUP8 DUP1 EXTCODESIZE ISZERO DUP1 ISZERO PUSH3 0x22B3 JUMPI PUSH1 0x0 DUP1 REVERT JUMPDEST POP GAS CALL ISZERO DUP1 ISZERO PUSH3 0x22C8 JUMPI RETURNDATASIZE PUSH1 0x0 DUP1 RETURNDATACOPY RETURNDATASIZE PUSH1 0x0 REVERT JUMPDEST POP POP POP POP PUSH3 0x22D4 CALLER SWAP1 JUMP JUMPDEST PUSH1 0x1 PUSH1 0x1 PUSH1 0xA0 SHL SUB AND PUSH32 0x866403FA89D03D5448DC193B4410854BC9A7BC6848FAAEA5EB612699CED87429 PUSH1 0x40 MLOAD PUSH1 0x40 MLOAD DUP1 SWAP2 SUB SWAP1 LOG2 PUSH1 0xC DUP1 SLOAD PUSH2 0xFF00 NOT AND PUSH2 0x100 OR SWAP1 SSTORE PUSH1 0x11 SLOAD PUSH1 0x40 DUP1 MLOAD PUSH32 0x71E3DB8700000000000000000000000000000000000000000000000000000000 DUP2 MSTORE SWAP1 MLOAD PUSH1 0x1 PUSH1 0x1 PUSH1 0xA0 SHL SUB SWAP1 SWAP3 AND SWAP2 PUSH4 0x71E3DB87 SWAP2 PUSH1 0x4 DUP1 DUP3 ADD SWAP3 PUSH1 0x0 SWAP3 SWAP1 SWAP2 SWAP1 DUP3 SWAP1 SUB ADD DUP2 DUP4 DUP8 DUP1 EXTCODESIZE ISZERO DUP1 ISZERO PUSH3 0x2378 JUMPI PUSH1 0x0 DUP1 REVERT JUMPDEST POP GAS CALL ISZERO DUP1 ISZERO PUSH3 0x238D JUMPI RETURNDATASIZE PUSH1 0x0 DUP1 RETURNDATACOPY RETURNDATASIZE PUSH1 0x0 REVERT JUMPDEST POP POP POP POP PUSH3 0x2399 CALLER SWAP1 JUMP JUMPDEST PUSH1 0x1 PUSH1 0x1 PUSH1 0xA0 SHL SUB AND PUSH32 0xE596A4FD4BA2E7F54093D98B96267C6B0DBAE1E317BED8123D9FBC868C028377 PUSH1 0xC PUSH1 0x1 SWAP1 SLOAD SWAP1 PUSH2 0x100 EXP SWAP1 DIV PUSH1 0xFF AND PUSH1 0x40 MLOAD PUSH3 0x23E5 SWAP2 ISZERO ISZERO DUP2 MSTORE PUSH1 0x20 ADD SWAP1 JUMP JUMPDEST PUSH1 0x40 MLOAD DUP1 SWAP2 SUB SWAP1 LOG2 JUMP JUMPDEST PUSH1 0x5 SLOAD PUSH1 0x1 PUSH1 0x1 PUSH1 0xA0 SHL SUB AND CALLER EQ PUSH3 0x243A JUMPI PUSH1 0x40 MLOAD PUSH3 0x461BCD PUSH1 0xE5 SHL DUP2 MSTORE PUSH1 0x20 PUSH1 0x4 DUP3 ADD DUP2 SWAP1 MSTORE PUSH1 0x24 DUP3 ADD MSTORE PUSH1 0x0 DUP1 MLOAD PUSH1 0x20 PUSH3 0x478C DUP4 CODECOPY DUP2 MLOAD SWAP2 MSTORE PUSH1 0x44 DUP3 ADD MSTORE PUSH1 0x64 ADD PUSH3 0xD12 JUMP JUMPDEST PUSH3 0x1258 DUP2 PUSH3 0x3432 JUMP JUMPDEST CALLER PUSH1 0x0 DUP2 DUP2 MSTORE PUSH1 0x7 PUSH1 0x20 SWAP1 DUP2 MSTORE PUSH1 0x40 DUP1 DUP4 KECCAK256 PUSH1 0x1 PUSH1 0x1 PUSH1 0xA0 SHL SUB DUP8 AND DUP5 MSTORE SWAP1 SWAP2 MSTORE DUP2 KECCAK256 SLOAD SWAP1 SWAP2 SWAP1 DUP4 DUP2 LT ISZERO PUSH3 0x24E4 JUMPI PUSH1 0x40 MLOAD PUSH3 0x461BCD PUSH1 0xE5 SHL DUP2 MSTORE PUSH1 0x20 PUSH1 0x4 DUP3 ADD MSTORE PUSH1 0x25 PUSH1 0x24 DUP3 ADD MSTORE PUSH32 0x45524332303A2064656372656173656420616C6C6F77616E63652062656C6F77 PUSH1 0x44 DUP3 ADD MSTORE PUSH32 0x207A65726F000000000000000000000000000000000000000000000000000000 PUSH1 0x64 DUP3 ADD MSTORE PUSH1 0x84 ADD PUSH3 0xD12 JUMP JUMPDEST PUSH3 0x11A3 DUP3 DUP7 DUP7 DUP5 SUB PUSH3 0x2D05 JUMP JUMPDEST PUSH1 0x0 CALLER PUSH3 0x10D1 DUP2 DUP6 DUP6 PUSH3 0x2EF9 JUMP JUMPDEST PUSH1 0x11 SLOAD PUSH1 0x40 MLOAD PUSH32 0xC23A5CEA00000000000000000000000000000000000000000000000000000000 DUP2 MSTORE CALLER PUSH1 0x4 DUP3 ADD MSTORE PUSH1 0x0 SWAP2 DUP3 SWAP2 PUSH1 0x1 PUSH1 0x1 PUSH1 0xA0 SHL SUB SWAP1 SWAP2 AND SWAP1 PUSH4 0xC23A5CEA SWAP1 PUSH1 0x24 ADD PUSH1 0x40 DUP1 MLOAD DUP1 DUP4 SUB DUP2 PUSH1 0x0 DUP8 GAS CALL ISZERO DUP1 ISZERO PUSH3 0x256B JUMPI RETURNDATASIZE PUSH1 0x0 DUP1 RETURNDATACOPY RETURNDATASIZE PUSH1 0x0 REVERT JUMPDEST POP POP POP POP PUSH1 0x40 MLOAD RETURNDATASIZE PUSH1 0x1F NOT PUSH1 0x1F DUP3 ADD AND DUP3 ADD DUP1 PUSH1 0x40 MSTORE POP DUP2 ADD SWAP1 PUSH3 0x2591 SWAP2 SWAP1 PUSH3 0x38C1 JUMP JUMPDEST SWAP2 POP SWAP2 POP PUSH3 0x25A0 DUP2 PUSH3 0x3432 JUMP JUMPDEST ADDRESS PUSH1 0x0 SWAP1 DUP2 MSTORE PUSH1 0x6 PUSH1 0x20 MSTORE PUSH1 0x40 DUP2 KECCAK256 DUP1 SLOAD DUP5 SWAP3 SWAP1 PUSH3 0x25C1 SWAP1 DUP5 SWAP1 PUSH3 0x38E6 JUMP JUMPDEST SWAP1 SWAP2 SSTORE POP POP PUSH1 0xA SLOAD PUSH3 0x25D5 SWAP1 DUP3 PUSH3 0x2E5A JUMP JUMPDEST PUSH1 0xA SSTORE PUSH1 0x8 SLOAD PUSH3 0x25E7 SWAP1 DUP4 PUSH3 0x2C98 JUMP JUMPDEST PUSH1 0x8 SSTORE PUSH3 0x25FA PUSH3 0x1BCC DUP3 DUP5 PUSH3 0x3853 JUMP JUMPDEST CALLER PUSH1 0x0 SWAP1 DUP2 MSTORE PUSH1 0x6 PUSH1 0x20 MSTORE PUSH1 0x40 SWAP1 KECCAK256 SSTORE POP POP JUMP JUMPDEST PUSH1 0x5 SLOAD PUSH1 0x1 PUSH1 0x1 PUSH1 0xA0 SHL SUB AND CALLER EQ PUSH3 0x2659 JUMPI PUSH1 0x40 MLOAD PUSH3 0x461BCD PUSH1 0xE5 SHL DUP2 MSTORE PUSH1 0x20 PUSH1 0x4 DUP3 ADD DUP2 SWAP1 MSTORE PUSH1 0x24 DUP3 ADD MSTORE PUSH1 0x0 DUP1 MLOAD PUSH1 0x20 PUSH3 0x478C DUP4 CODECOPY DUP2 MLOAD SWAP2 MSTORE PUSH1 0x44 DUP3 ADD MSTORE PUSH1 0x64 ADD PUSH3 0xD12 JUMP JUMPDEST PUSH1 0x11 PUSH1 0x0 SWAP1 SLOAD SWAP1 PUSH2 0x100 EXP SWAP1 DIV PUSH1 0x1 PUSH1 0x1 PUSH1 0xA0 SHL SUB AND PUSH1 0x1 PUSH1 0x1 PUSH1 0xA0 SHL SUB AND PUSH4 0x1EC6B60A PUSH1 0x40 MLOAD DUP2 PUSH4 0xFFFFFFFF AND PUSH1 0xE0 SHL DUP2 MSTORE PUSH1 0x4 ADD PUSH1 0x0 PUSH1 0x40 MLOAD DUP1 DUP4 SUB DUP2 PUSH1 0x0 DUP8 DUP1 EXTCODESIZE ISZERO DUP1 ISZERO PUSH3 0x26AA JUMPI PUSH1 0x0 DUP1 REVERT JUMPDEST POP GAS CALL ISZERO DUP1 ISZERO PUSH3 0x26BF JUMPI RETURNDATASIZE PUSH1 0x0 DUP1 RETURNDATACOPY RETURNDATASIZE PUSH1 0x0 REVERT JUMPDEST POP POP POP POP JUMP JUMPDEST PUSH1 0x5 SLOAD PUSH1 0x1 PUSH1 0x1 PUSH1 0xA0 SHL SUB AND CALLER EQ PUSH3 0x2710 JUMPI PUSH1 0x40 MLOAD PUSH3 0x461BCD PUSH1 0xE5 SHL DUP2 MSTORE PUSH1 0x20 PUSH1 0x4 DUP3 ADD DUP2 SWAP1 MSTORE PUSH1 0x24 DUP3 ADD MSTORE PUSH1 0x0 DUP1 MLOAD PUSH1 0x20 PUSH3 0x478C DUP4 CODECOPY DUP2 MLOAD SWAP2 MSTORE PUSH1 0x44 DUP3 ADD MSTORE PUSH1 0x64 ADD PUSH3 0xD12 JUMP JUMPDEST PUSH3 0x271A PUSH3 0x2CA6 JUMP JUMPDEST DUP1 PUSH3 0x275D JUMPI PUSH1 0x40 MLOAD PUSH3 0x461BCD PUSH1 0xE5 SHL DUP2 MSTORE PUSH1 0x20 PUSH1 0x4 DUP3 ADD MSTORE PUSH1 0x11 PUSH1 0x24 DUP3 ADD MSTORE PUSH17 0x4E6F7468696E6720746F2064656C657465 PUSH1 0x78 SHL PUSH1 0x44 DUP3 ADD MSTORE PUSH1 0x64 ADD PUSH3 0xD12 JUMP JUMPDEST PUSH1 0x0 JUMPDEST DUP2 DUP2 LT ISZERO PUSH3 0xFE9 JUMPI PUSH1 0x13 SLOAD PUSH1 0x1 PUSH1 0x1 PUSH1 0xA0 SHL SUB AND PUSH4 0x7D3BCA76 DUP5 DUP5 DUP5 DUP2 DUP2 LT PUSH3 0x278F JUMPI PUSH3 0x278F PUSH3 0x3725 JUMP JUMPDEST SWAP1 POP PUSH1 0x20 MUL ADD PUSH1 0x20 DUP2 ADD SWAP1 PUSH3 0x27A6 SWAP2 SWAP1 PUSH3 0x36AC JUMP JUMPDEST PUSH1 0x40 MLOAD PUSH1 0x1 PUSH1 0x1 PUSH1 0xE0 SHL SUB NOT PUSH1 0xE0 DUP5 SWAP1 SHL AND DUP2 MSTORE PUSH1 0x1 PUSH1 0x1 PUSH1 0xA0 SHL SUB SWAP1 SWAP2 AND PUSH1 0x4 DUP3 ADD MSTORE PUSH1 0x24 ADD PUSH1 0x20 PUSH1 0x40 MLOAD DUP1 DUP4 SUB DUP2 PUSH1 0x0 DUP8 GAS CALL ISZERO DUP1 ISZERO PUSH3 0x27ED JUMPI RETURNDATASIZE PUSH1 0x0 DUP1 RETURNDATACOPY RETURNDATASIZE PUSH1 0x0 REVERT JUMPDEST POP POP POP POP PUSH1 0x40 MLOAD RETURNDATASIZE PUSH1 0x1F NOT PUSH1 0x1F DUP3 ADD AND DUP3 ADD DUP1 PUSH1 0x40 MSTORE POP DUP2 ADD SWAP1 PUSH3 0x2813 SWAP2 SWAP1 PUSH3 0x3796 JUMP JUMPDEST POP PUSH1 0x1 ADD PUSH3 0x2760 JUMP JUMPDEST PUSH1 0x5 SLOAD PUSH1 0x1 PUSH1 0x1 PUSH1 0xA0 SHL SUB AND CALLER EQ PUSH3 0x2868 JUMPI PUSH1 0x40 MLOAD PUSH3 0x461BCD PUSH1 0xE5 SHL DUP2 MSTORE PUSH1 0x20 PUSH1 0x4 DUP3 ADD DUP2 SWAP1 MSTORE PUSH1 0x24 DUP3 ADD MSTORE PUSH1 0x0 DUP1 MLOAD PUSH1 0x20 PUSH3 0x478C DUP4 CODECOPY DUP2 MLOAD SWAP2 MSTORE PUSH1 0x44 DUP3 ADD MSTORE PUSH1 0x64 ADD PUSH3 0xD12 JUMP JUMPDEST PUSH1 0x11 SLOAD PUSH1 0x40 MLOAD PUSH32 0xD5DBDF1B00000000000000000000000000000000000000000000000000000000 DUP2 MSTORE PUSH1 0x4 DUP2 ADD DUP4 SWAP1 MSTORE PUSH1 0x1 PUSH1 0x1 PUSH1 0xA0 SHL SUB SWAP1 SWAP2 AND SWAP1 PUSH4 0xD5DBDF1B SWAP1 PUSH1 0x24 ADD PUSH1 0x0 PUSH1 0x40 MLOAD DUP1 DUP4 SUB DUP2 PUSH1 0x0 DUP8 DUP1 EXTCODESIZE ISZERO DUP1 ISZERO PUSH3 0x28C8 JUMPI PUSH1 0x0 DUP1 REVERT JUMPDEST POP GAS CALL ISZERO DUP1 ISZERO PUSH3 0x28DD JUMPI RETURNDATASIZE PUSH1 0x0 DUP1 RETURNDATACOPY RETURNDATASIZE PUSH1 0x0 REVERT JUMPDEST POP POP POP POP PUSH3 0x28E9 CALLER SWAP1 JUMP JUMPDEST PUSH1 0x1 PUSH1 0x1 PUSH1 0xA0 SHL SUB AND PUSH32 0x31BBDC307CB7AFAB9B265EE4C47F5FEB19D8A8702A67C0B695DF02E0D4C55B5F DUP3 PUSH1 0x40 MLOAD PUSH3 0x133B SWAP2 DUP2 MSTORE PUSH1 0x20 ADD SWAP1 JUMP JUMPDEST PUSH1 0x5 SLOAD PUSH1 0x1 PUSH1 0x1 PUSH1 0xA0 SHL SUB AND CALLER EQ PUSH3 0x296F JUMPI PUSH1 0x40 MLOAD PUSH3 0x461BCD PUSH1 0xE5 SHL DUP2 MSTORE PUSH1 0x20 PUSH1 0x4 DUP3 ADD DUP2 SWAP1 MSTORE PUSH1 0x24 DUP3 ADD MSTORE PUSH1 0x0 DUP1 MLOAD PUSH1 0x20 PUSH3 0x478C DUP4 CODECOPY DUP2 MLOAD SWAP2 MSTORE PUSH1 0x44 DUP3 ADD MSTORE PUSH1 0x64 ADD PUSH3 0xD12 JUMP JUMPDEST ADDRESS PUSH1 0x0 SWAP1 DUP2 MSTORE PUSH1 0x6 PUSH1 0x20 MSTORE PUSH1 0x40 SWAP1 KECCAK256 SLOAD PUSH3 0x298B SWAP1 DUP3 PUSH3 0x2C98 JUMP JUMPDEST ADDRESS PUSH1 0x0 SWAP1 DUP2 MSTORE PUSH1 0x6 PUSH1 0x20 MSTORE PUSH1 0x40 SWAP1 KECCAK256 SSTORE PUSH1 0x8 SLOAD PUSH3 0x29AA SWAP1 DUP3 PUSH3 0x2C98 JUMP JUMPDEST PUSH1 0x8 SSTORE PUSH1 0x40 MLOAD DUP2 DUP2 MSTORE ADDRESS SWAP1 PUSH1 0x0 SWAP1 PUSH32 0xDDF252AD1BE2C89B69C2B068FC378DAA952BA7F163C4A11628F55A4DF523B3EF SWAP1 PUSH1 0x20 ADD PUSH3 0x117B JUMP JUMPDEST PUSH1 0x5 SLOAD PUSH1 0x1 PUSH1 0x1 PUSH1 0xA0 SHL SUB AND CALLER EQ PUSH3 0x2A2E JUMPI PUSH1 0x40 MLOAD PUSH3 0x461BCD PUSH1 0xE5 SHL DUP2 MSTORE PUSH1 0x20 PUSH1 0x4 DUP3 ADD DUP2 SWAP1 MSTORE PUSH1 0x24 DUP3 ADD MSTORE PUSH1 0x0 DUP1 MLOAD PUSH1 0x20 PUSH3 0x478C DUP4 CODECOPY DUP2 MLOAD SWAP2 MSTORE PUSH1 0x44 DUP3 ADD MSTORE PUSH1 0x64 ADD PUSH3 0xD12 JUMP JUMPDEST PUSH3 0x2A38 PUSH3 0x2CA6 JUMP JUMPDEST DUP1 PUSH3 0x2A78 JUMPI PUSH1 0x40 MLOAD PUSH3 0x461BCD PUSH1 0xE5 SHL DUP2 MSTORE PUSH1 0x20 PUSH1 0x4 DUP3 ADD MSTORE PUSH1 0xE PUSH1 0x24 DUP3 ADD MSTORE PUSH14 0x139BDD1A1A5B99C81D1BC8185919 PUSH1 0x92 SHL PUSH1 0x44 DUP3 ADD MSTORE PUSH1 0x64 ADD PUSH3 0xD12 JUMP JUMPDEST PUSH1 0x0 JUMPDEST DUP2 DUP2 LT ISZERO PUSH3 0xE47 JUMPI PUSH1 0x13 SLOAD PUSH1 0x1 PUSH1 0x1 PUSH1 0xA0 SHL SUB AND PUSH4 0x96074E70 DUP5 DUP5 DUP5 DUP2 DUP2 LT PUSH3 0x2AAA JUMPI PUSH3 0x2AAA PUSH3 0x3725 JUMP JUMPDEST PUSH3 0x2AC2 SWAP3 PUSH1 0x20 PUSH1 0x40 SWAP1 SWAP3 MUL ADD SWAP1 DUP2 ADD SWAP2 POP PUSH3 0x36AC JUMP JUMPDEST DUP6 DUP6 DUP6 DUP2 DUP2 LT PUSH3 0x2AD7 JUMPI PUSH3 0x2AD7 PUSH3 0x3725 JUMP JUMPDEST SWAP1 POP PUSH1 0x40 MUL ADD PUSH1 0x20 ADD CALLDATALOAD PUSH1 0x40 MLOAD DUP4 PUSH4 0xFFFFFFFF AND PUSH1 0xE0 SHL DUP2 MSTORE PUSH1 0x4 ADD PUSH3 0x2B13 SWAP3 SWAP2 SWAP1 PUSH1 0x1 PUSH1 0x1 PUSH1 0xA0 SHL SUB SWAP3 SWAP1 SWAP3 AND DUP3 MSTORE PUSH1 0x20 DUP3 ADD MSTORE PUSH1 0x40 ADD SWAP1 JUMP JUMPDEST PUSH1 0x0 PUSH1 0x40 MLOAD DUP1 DUP4 SUB DUP2 PUSH1 0x0 DUP8 DUP1 EXTCODESIZE ISZERO DUP1 ISZERO PUSH3 0x2B2E JUMPI PUSH1 0x0 DUP1 REVERT JUMPDEST POP GAS CALL ISZERO DUP1 ISZERO PUSH3 0x2B43 JUMPI RETURNDATASIZE PUSH1 0x0 DUP1 RETURNDATACOPY RETURNDATASIZE PUSH1 0x0 REVERT JUMPDEST POP POP POP POP PUSH3 0x2B52 DUP2 PUSH1 0x1 ADD SWAP1 JUMP JUMPDEST SWAP1 POP PUSH3 0x2A7B JUMP JUMPDEST PUSH1 0x5 SLOAD PUSH1 0x1 PUSH1 0x1 PUSH1 0xA0 SHL SUB AND CALLER EQ PUSH3 0x2BA5 JUMPI PUSH1 0x40 MLOAD PUSH3 0x461BCD PUSH1 0xE5 SHL DUP2 MSTORE PUSH1 0x20 PUSH1 0x4 DUP3 ADD DUP2 SWAP1 MSTORE PUSH1 0x24 DUP3 ADD MSTORE PUSH1 0x0 DUP1 MLOAD PUSH1 0x20 PUSH3 0x478C DUP4 CODECOPY DUP2 MLOAD SWAP2 MSTORE PUSH1 0x44 DUP3 ADD MSTORE PUSH1 0x64 ADD PUSH3 0xD12 JUMP JUMPDEST PUSH1 0x1 PUSH1 0x1 PUSH1 0xA0 SHL SUB DUP2 AND PUSH3 0x2C23 JUMPI PUSH1 0x40 MLOAD PUSH3 0x461BCD PUSH1 0xE5 SHL DUP2 MSTORE PUSH1 0x20 PUSH1 0x4 DUP3 ADD MSTORE PUSH1 0x26 PUSH1 0x24 DUP3 ADD MSTORE PUSH32 0x4F776E61626C653A206E6577206F776E657220697320746865207A65726F2061 PUSH1 0x44 DUP3 ADD MSTORE PUSH32 0x6464726573730000000000000000000000000000000000000000000000000000 PUSH1 0x64 DUP3 ADD MSTORE PUSH1 0x84 ADD PUSH3 0xD12 JUMP JUMPDEST PUSH3 0x1258 DUP2 PUSH3 0x33E0 JUMP JUMPDEST PUSH3 0x2C38 PUSH3 0x2CA6 JUMP JUMPDEST PUSH1 0x14 SLOAD PUSH3 0x1BD7 SWAP1 PUSH1 0x1 PUSH1 0x1 PUSH1 0xA0 SHL SUB AND PUSH3 0x5171F4 CALLER PUSH3 0x1B5F JUMP JUMPDEST PUSH1 0x0 DUP2 DUP5 DUP5 GT ISZERO PUSH3 0x2C7B JUMPI PUSH1 0x40 MLOAD PUSH3 0x461BCD PUSH1 0xE5 SHL DUP2 MSTORE PUSH1 0x4 ADD PUSH3 0xD12 SWAP2 SWAP1 PUSH3 0x358A JUMP JUMPDEST POP POP POP SWAP1 SUB SWAP1 JUMP JUMPDEST PUSH1 0x0 PUSH3 0x2C91 DUP3 DUP5 PUSH3 0x3900 JUMP JUMPDEST SWAP4 SWAP3 POP POP POP JUMP JUMPDEST PUSH1 0x0 PUSH3 0x2C91 DUP3 DUP5 PUSH3 0x3853 JUMP JUMPDEST PUSH1 0xC SLOAD PUSH3 0x10000 SWAP1 DIV PUSH1 0xFF AND ISZERO ISZERO PUSH1 0x1 EQ PUSH3 0x16B9 JUMPI PUSH1 0x40 MLOAD PUSH3 0x461BCD PUSH1 0xE5 SHL DUP2 MSTORE PUSH1 0x20 PUSH1 0x4 DUP3 ADD MSTORE PUSH1 0xF PUSH1 0x24 DUP3 ADD MSTORE PUSH32 0x4E6F742079657420737461727465640000000000000000000000000000000000 PUSH1 0x44 DUP3 ADD MSTORE PUSH1 0x64 ADD PUSH3 0xD12 JUMP JUMPDEST PUSH1 0x1 PUSH1 0x1 PUSH1 0xA0 SHL SUB DUP4 AND PUSH3 0x2D82 JUMPI PUSH1 0x40 MLOAD PUSH3 0x461BCD PUSH1 0xE5 SHL DUP2 MSTORE PUSH1 0x20 PUSH1 0x4 DUP3 ADD MSTORE PUSH1 0x24 DUP1 DUP3 ADD MSTORE PUSH32 0x45524332303A20617070726F76652066726F6D20746865207A65726F20616464 PUSH1 0x44 DUP3 ADD MSTORE PUSH32 0x7265737300000000000000000000000000000000000000000000000000000000 PUSH1 0x64 DUP3 ADD MSTORE PUSH1 0x84 ADD PUSH3 0xD12 JUMP JUMPDEST PUSH1 0x1 PUSH1 0x1 PUSH1 0xA0 SHL SUB DUP3 AND PUSH3 0x2E00 JUMPI PUSH1 0x40 MLOAD PUSH3 0x461BCD PUSH1 0xE5 SHL DUP2 MSTORE PUSH1 0x20 PUSH1 0x4 DUP3 ADD MSTORE PUSH1 0x22 PUSH1 0x24 DUP3 ADD MSTORE PUSH32 0x45524332303A20617070726F766520746F20746865207A65726F206164647265 PUSH1 0x44 DUP3 ADD MSTORE PUSH32 0x7373000000000000000000000000000000000000000000000000000000000000 PUSH1 0x64 DUP3 ADD MSTORE PUSH1 0x84 ADD PUSH3 0xD12 JUMP JUMPDEST PUSH1 0x1 PUSH1 0x1 PUSH1 0xA0 SHL SUB DUP4 DUP2 AND PUSH1 0x0 DUP2 DUP2 MSTORE PUSH1 0x7 PUSH1 0x20 SWAP1 DUP2 MSTORE PUSH1 0x40 DUP1 DUP4 KECCAK256 SWAP5 DUP8 AND DUP1 DUP5 MSTORE SWAP5 DUP3 MSTORE SWAP2 DUP3 SWAP1 KECCAK256 DUP6 SWAP1 SSTORE SWAP1 MLOAD DUP5 DUP2 MSTORE PUSH32 0x8C5BE1E5EBEC7D5BD14F71427D1E84F3DD0314C0F7B2291E5B200AC8C7C3B925 SWAP2 ADD PUSH3 0x1DC0 JUMP JUMPDEST PUSH1 0x0 PUSH3 0x2C91 DUP3 DUP5 PUSH3 0x38E6 JUMP JUMPDEST PUSH1 0x1 PUSH1 0x1 PUSH1 0xA0 SHL SUB DUP4 DUP2 AND PUSH1 0x0 SWAP1 DUP2 MSTORE PUSH1 0x7 PUSH1 0x20 SWAP1 DUP2 MSTORE PUSH1 0x40 DUP1 DUP4 KECCAK256 SWAP4 DUP7 AND DUP4 MSTORE SWAP3 SWAP1 MSTORE KECCAK256 SLOAD PUSH1 0x0 NOT DUP2 EQ PUSH3 0x26BF JUMPI DUP2 DUP2 LT ISZERO PUSH3 0x2EEA JUMPI PUSH1 0x40 MLOAD PUSH3 0x461BCD PUSH1 0xE5 SHL DUP2 MSTORE PUSH1 0x20 PUSH1 0x4 DUP3 ADD MSTORE PUSH1 0x1D PUSH1 0x24 DUP3 ADD MSTORE PUSH32 0x45524332303A20696E73756666696369656E7420616C6C6F77616E6365000000 PUSH1 0x44 DUP3 ADD MSTORE PUSH1 0x64 ADD PUSH3 0xD12 JUMP JUMPDEST PUSH3 0x26BF DUP5 DUP5 DUP5 DUP5 SUB PUSH3 0x2D05 JUMP JUMPDEST PUSH1 0x1 PUSH1 0x1 PUSH1 0xA0 SHL SUB DUP4 AND PUSH3 0x2F51 JUMPI PUSH1 0x40 MLOAD PUSH3 0x461BCD PUSH1 0xE5 SHL DUP2 MSTORE PUSH1 0x20 PUSH1 0x4 DUP3 ADD MSTORE PUSH1 0x1A PUSH1 0x24 DUP3 ADD MSTORE PUSH32 0x5472616E736665722066726F6D207A65726F2061646472657373000000000000 PUSH1 0x44 DUP3 ADD MSTORE PUSH1 0x64 ADD PUSH3 0xD12 JUMP JUMPDEST PUSH1 0x1 PUSH1 0x1 PUSH1 0xA0 SHL SUB DUP3 AND PUSH3 0x2FA9 JUMPI PUSH1 0x40 MLOAD PUSH3 0x461BCD PUSH1 0xE5 SHL DUP2 MSTORE PUSH1 0x20 PUSH1 0x4 DUP3 ADD MSTORE PUSH1 0x18 PUSH1 0x24 DUP3 ADD MSTORE PUSH32 0x5472616E7366657220746F207A65726F20616464726573730000000000000000 PUSH1 0x44 DUP3 ADD MSTORE PUSH1 0x64 ADD PUSH3 0xD12 JUMP JUMPDEST PUSH1 0x1 PUSH1 0x1 PUSH1 0xA0 SHL SUB DUP4 AND PUSH1 0x0 SWAP1 DUP2 MSTORE PUSH1 0x6 PUSH1 0x20 MSTORE PUSH1 0x40 SWAP1 KECCAK256 SLOAD DUP2 DUP2 LT ISZERO PUSH3 0x303A JUMPI PUSH1 0x40 MLOAD PUSH3 0x461BCD PUSH1 0xE5 SHL DUP2 MSTORE PUSH1 0x20 PUSH1 0x4 DUP3 ADD MSTORE PUSH1 0x26 PUSH1 0x24 DUP3 ADD MSTORE PUSH32 0x45524332303A207472616E7366657220616D6F756E7420657863656564732062 PUSH1 0x44 DUP3 ADD MSTORE PUSH32 0x616C616E63650000000000000000000000000000000000000000000000000000 PUSH1 0x64 DUP3 ADD MSTORE PUSH1 0x84 ADD PUSH3 0xD12 JUMP JUMPDEST PUSH1 0x1 PUSH1 0x1 PUSH1 0xA0 SHL SUB DUP5 AND PUSH1 0x0 SWAP1 DUP2 MSTORE PUSH1 0x6 PUSH1 0x20 MSTORE PUSH1 0x40 DUP2 KECCAK256 DUP4 DUP4 SUB SWAP1 SSTORE PUSH1 0xC SLOAD PUSH3 0x3077 SWAP1 PUSH3 0x306F SWAP1 DUP6 SWAP1 PUSH1 0xFF AND PUSH3 0x348C JUMP JUMPDEST PUSH1 0x64 PUSH3 0x2C83 JUMP JUMPDEST SWAP1 POP PUSH1 0x0 PUSH3 0x3087 DUP5 DUP4 PUSH3 0x2E5A JUMP JUMPDEST SWAP1 POP PUSH1 0x0 PUSH3 0x30A4 PUSH3 0x309C DUP4 PUSH1 0x2 PUSH3 0x348C JUMP JUMPDEST PUSH1 0xA PUSH3 0x2C83 JUMP JUMPDEST SWAP1 POP PUSH1 0x0 PUSH3 0x30B9 PUSH3 0x309C DUP5 PUSH1 0x8 PUSH3 0x348C JUMP JUMPDEST SWAP1 POP PUSH3 0x30C6 DUP3 PUSH3 0xB52 JUMP JUMPDEST ADDRESS PUSH1 0x0 SWAP1 DUP2 MSTORE PUSH1 0x6 PUSH1 0x20 MSTORE PUSH1 0x40 SWAP1 KECCAK256 SLOAD PUSH3 0x30E2 SWAP1 DUP3 PUSH3 0x2C98 JUMP JUMPDEST ADDRESS PUSH1 0x0 SWAP1 DUP2 MSTORE PUSH1 0x6 PUSH1 0x20 MSTORE PUSH1 0x40 DUP1 DUP3 KECCAK256 SWAP3 SWAP1 SWAP3 SSTORE PUSH1 0x1 PUSH1 0x1 PUSH1 0xA0 SHL SUB DUP10 AND DUP2 MSTORE KECCAK256 SLOAD PUSH3 0x3110 SWAP1 DUP5 PUSH3 0x2C98 JUMP JUMPDEST PUSH1 0x1 PUSH1 0x1 PUSH1 0xA0 SHL SUB DUP1 DUP10 AND PUSH1 0x0 DUP2 DUP2 MSTORE PUSH1 0x6 PUSH1 0x20 MSTORE PUSH1 0x40 SWAP1 DUP2 SWAP1 KECCAK256 SWAP4 SWAP1 SWAP4 SSTORE SWAP2 MLOAD SWAP1 DUP11 AND SWAP1 PUSH32 0xDDF252AD1BE2C89B69C2B068FC378DAA952BA7F163C4A11628F55A4DF523B3EF SWAP1 PUSH3 0x3165 SWAP1 DUP8 DUP2 MSTORE PUSH1 0x20 ADD SWAP1 JUMP JUMPDEST PUSH1 0x40 MLOAD DUP1 SWAP2 SUB SWAP1 LOG3 POP POP POP POP POP POP POP POP JUMP JUMPDEST PUSH1 0x1 PUSH1 0x1 PUSH1 0xA0 SHL SUB DUP3 AND PUSH3 0x31CF JUMPI PUSH1 0x40 MLOAD PUSH3 0x461BCD PUSH1 0xE5 SHL DUP2 MSTORE PUSH1 0x20 PUSH1 0x4 DUP3 ADD MSTORE PUSH1 0x1F PUSH1 0x24 DUP3 ADD MSTORE PUSH32 0x45524332303A206D696E7420746F20746865207A65726F206164647265737300 PUSH1 0x44 DUP3 ADD MSTORE PUSH1 0x64 ADD PUSH3 0xD12 JUMP JUMPDEST DUP1 PUSH1 0x8 PUSH1 0x0 DUP3 DUP3 SLOAD PUSH3 0x31E3 SWAP2 SWAP1 PUSH3 0x3853 JUMP JUMPDEST SWAP1 SWAP2 SSTORE POP POP PUSH1 0x1 PUSH1 0x1 PUSH1 0xA0 SHL SUB DUP3 AND PUSH1 0x0 SWAP1 DUP2 MSTORE PUSH1 0x6 PUSH1 0x20 MSTORE PUSH1 0x40 DUP2 KECCAK256 DUP1 SLOAD DUP4 SWAP3 SWAP1 PUSH3 0x3212 SWAP1 DUP5 SWAP1 PUSH3 0x3853 JUMP JUMPDEST SWAP1 SWAP2 SSTORE POP POP PUSH1 0x40 MLOAD DUP2 DUP2 MSTORE PUSH1 0x1 PUSH1 0x1 PUSH1 0xA0 SHL SUB DUP4 AND SWAP1 PUSH1 0x0 SWAP1 PUSH32 0xDDF252AD1BE2C89B69C2B068FC378DAA952BA7F163C4A11628F55A4DF523B3EF SWAP1 PUSH1 0x20 ADD PUSH1 0x40 MLOAD DUP1 SWAP2 SUB SWAP1 LOG3 POP POP JUMP JUMPDEST PUSH1 0x1 PUSH1 0x1 PUSH1 0xA0 SHL SUB DUP3 AND PUSH3 0x32DA JUMPI PUSH1 0x40 MLOAD PUSH3 0x461BCD PUSH1 0xE5 SHL DUP2 MSTORE PUSH1 0x20 PUSH1 0x4 DUP3 ADD MSTORE PUSH1 0x21 PUSH1 0x24 DUP3 ADD MSTORE PUSH32 0x45524332303A206275726E2066726F6D20746865207A65726F20616464726573 PUSH1 0x44 DUP3 ADD MSTORE PUSH32 0x7300000000000000000000000000000000000000000000000000000000000000 PUSH1 0x64 DUP3 ADD MSTORE PUSH1 0x84 ADD PUSH3 0xD12 JUMP JUMPDEST PUSH1 0x1 PUSH1 0x1 PUSH1 0xA0 SHL SUB DUP3 AND PUSH1 0x0 SWAP1 DUP2 MSTORE PUSH1 0x6 PUSH1 0x20 MSTORE PUSH1 0x40 SWAP1 KECCAK256 SLOAD DUP2 DUP2 LT ISZERO PUSH3 0x336B JUMPI PUSH1 0x40 MLOAD PUSH3 0x461BCD PUSH1 0xE5 SHL DUP2 MSTORE PUSH1 0x20 PUSH1 0x4 DUP3 ADD MSTORE PUSH1 0x22 PUSH1 0x24 DUP3 ADD MSTORE PUSH32 0x45524332303A206275726E20616D6F756E7420657863656564732062616C616E PUSH1 0x44 DUP3 ADD MSTORE PUSH32 0x6365000000000000000000000000000000000000000000000000000000000000 PUSH1 0x64 DUP3 ADD MSTORE PUSH1 0x84 ADD PUSH3 0xD12 JUMP JUMPDEST PUSH1 0x1 PUSH1 0x1 PUSH1 0xA0 SHL SUB DUP4 AND PUSH1 0x0 SWAP1 DUP2 MSTORE PUSH1 0x6 PUSH1 0x20 MSTORE PUSH1 0x40 DUP2 KECCAK256 DUP4 DUP4 SUB SWAP1 SSTORE PUSH1 0x8 DUP1 SLOAD DUP5 SWAP3 SWAP1 PUSH3 0x339C SWAP1 DUP5 SWAP1 PUSH3 0x38E6 JUMP JUMPDEST SWAP1 SWAP2 SSTORE POP POP PUSH1 0x40 MLOAD DUP3 DUP2 MSTORE PUSH1 0x0 SWAP1 PUSH1 0x1 PUSH1 0x1 PUSH1 0xA0 SHL SUB DUP6 AND SWAP1 PUSH32 0xDDF252AD1BE2C89B69C2B068FC378DAA952BA7F163C4A11628F55A4DF523B3EF SWAP1 PUSH1 0x20 ADD PUSH3 0x1DC0 JUMP JUMPDEST PUSH1 0x5 DUP1 SLOAD PUSH1 0x1 PUSH1 0x1 PUSH1 0xA0 SHL SUB DUP4 DUP2 AND PUSH1 0x1 PUSH1 0x1 PUSH1 0xA0 SHL SUB NOT DUP4 AND DUP2 OR SWAP1 SWAP4 SSTORE PUSH1 0x40 MLOAD SWAP2 AND SWAP2 SWAP1 DUP3 SWAP1 PUSH32 0x8BE0079C531659141344CD1FD0A4F28419497F9722A3DAAFE3B4186F6B6457E0 SWAP1 PUSH1 0x0 SWAP1 LOG3 POP POP JUMP JUMPDEST PUSH1 0xA SLOAD PUSH3 0x3441 SWAP1 DUP3 PUSH3 0x2C98 JUMP JUMPDEST PUSH1 0xA SSTORE PUSH1 0x8 SLOAD PUSH3 0x3453 SWAP1 DUP3 PUSH3 0x2C98 JUMP JUMPDEST PUSH1 0x8 SSTORE PUSH1 0x40 MLOAD DUP2 DUP2 MSTORE ADDRESS SWAP1 PUSH1 0x0 SWAP1 PUSH32 0x715128EA18BCB5A472F8187C4FBFDC1ED6D04ECDCFF67E3F546FDD075E862665 SWAP1 PUSH1 0x20 ADD PUSH3 0x117B JUMP JUMPDEST PUSH1 0x0 PUSH3 0x2C91 DUP3 DUP5 PUSH3 0x3923 JUMP JUMPDEST PUSH2 0xE46 DUP1 PUSH3 0x3946 DUP4 CODECOPY ADD SWAP1 JUMP JUMPDEST PUSH1 0x0 DUP1 PUSH1 0x20 DUP4 DUP6 SUB SLT ISZERO PUSH3 0x34BC JUMPI PUSH1 0x0 DUP1 REVERT JUMPDEST DUP3 CALLDATALOAD PUSH8 0xFFFFFFFFFFFFFFFF DUP1 DUP3 GT ISZERO PUSH3 0x34D5 JUMPI PUSH1 0x0 DUP1 REVERT JUMPDEST DUP2 DUP6 ADD SWAP2 POP DUP6 PUSH1 0x1F DUP4 ADD SLT PUSH3 0x34EA JUMPI PUSH1 0x0 DUP1 REVERT JUMPDEST DUP2 CALLDATALOAD DUP2 DUP2 GT ISZERO PUSH3 0x34FA JUMPI PUSH1 0x0 DUP1 REVERT JUMPDEST DUP7 PUSH1 0x20 DUP3 PUSH1 0x6 SHL DUP6 ADD ADD GT ISZERO PUSH3 0x3510 JUMPI PUSH1 0x0 DUP1 REVERT JUMPDEST PUSH1 0x20 SWAP3 SWAP1 SWAP3 ADD SWAP7 SWAP2 SWAP6 POP SWAP1 SWAP4 POP POP POP POP JUMP JUMPDEST PUSH1 0x0 DUP1 PUSH1 0x20 DUP4 DUP6 SUB SLT ISZERO PUSH3 0x3536 JUMPI PUSH1 0x0 DUP1 REVERT JUMPDEST DUP3 CALLDATALOAD PUSH8 0xFFFFFFFFFFFFFFFF DUP1 DUP3 GT ISZERO PUSH3 0x354F JUMPI PUSH1 0x0 DUP1 REVERT JUMPDEST DUP2 DUP6 ADD SWAP2 POP DUP6 PUSH1 0x1F DUP4 ADD SLT PUSH3 0x3564 JUMPI PUSH1 0x0 DUP1 REVERT JUMPDEST DUP2 CALLDATALOAD DUP2 DUP2 GT ISZERO PUSH3 0x3574 JUMPI PUSH1 0x0 DUP1 REVERT JUMPDEST DUP7 PUSH1 0x20 DUP3 PUSH1 0x5 SHL DUP6 ADD ADD GT ISZERO PUSH3 0x3510 JUMPI PUSH1 0x0 DUP1 REVERT JUMPDEST PUSH1 0x0 PUSH1 0x20 DUP1 DUP4 MSTORE DUP4 MLOAD DUP1 DUP3 DUP6 ADD MSTORE PUSH1 0x0 JUMPDEST DUP2 DUP2 LT ISZERO PUSH3 0x35B9 JUMPI DUP6 DUP2 ADD DUP4 ADD MLOAD DUP6 DUP3 ADD PUSH1 0x40 ADD MSTORE DUP3 ADD PUSH3 0x359B JUMP JUMPDEST DUP2 DUP2 GT ISZERO PUSH3 0x35CC JUMPI PUSH1 0x0 PUSH1 0x40 DUP4 DUP8 ADD ADD MSTORE JUMPDEST POP PUSH1 0x1F ADD PUSH1 0x1F NOT AND SWAP3 SWAP1 SWAP3 ADD PUSH1 0x40 ADD SWAP4 SWAP3 POP POP POP JUMP JUMPDEST DUP1 CALLDATALOAD PUSH1 0x1 PUSH1 0x1 PUSH1 0xA0 SHL SUB DUP2 AND DUP2 EQ PUSH3 0x35FA JUMPI PUSH1 0x0 DUP1 REVERT JUMPDEST SWAP2 SWAP1 POP JUMP JUMPDEST PUSH1 0x0 DUP1 PUSH1 0x40 DUP4 DUP6 SUB SLT ISZERO PUSH3 0x3613 JUMPI PUSH1 0x0 DUP1 REVERT JUMPDEST PUSH3 0x361E DUP4 PUSH3 0x35E2 JUMP JUMPDEST SWAP5 PUSH1 0x20 SWAP4 SWAP1 SWAP4 ADD CALLDATALOAD SWAP4 POP POP POP JUMP JUMPDEST PUSH1 0x0 PUSH1 0x20 DUP3 DUP5 SUB SLT ISZERO PUSH3 0x363F JUMPI PUSH1 0x0 DUP1 REVERT JUMPDEST POP CALLDATALOAD SWAP2 SWAP1 POP JUMP JUMPDEST PUSH1 0x0 DUP1 PUSH1 0x0 PUSH1 0x60 DUP5 DUP7 SUB SLT ISZERO PUSH3 0x365C JUMPI PUSH1 0x0 DUP1 REVERT JUMPDEST PUSH3 0x3667 DUP5 PUSH3 0x35E2 JUMP JUMPDEST SWAP3 POP PUSH3 0x3677 PUSH1 0x20 DUP6 ADD PUSH3 0x35E2 JUMP JUMPDEST SWAP2 POP PUSH1 0x40 DUP5 ADD CALLDATALOAD SWAP1 POP SWAP3 POP SWAP3 POP SWAP3 JUMP JUMPDEST PUSH1 0x0 PUSH1 0x20 DUP3 DUP5 SUB SLT ISZERO PUSH3 0x369A JUMPI PUSH1 0x0 DUP1 REVERT JUMPDEST DUP2 CALLDATALOAD PUSH1 0xFF DUP2 AND DUP2 EQ PUSH3 0x2C91 JUMPI PUSH1 0x0 DUP1 REVERT JUMPDEST PUSH1 0x0 PUSH1 0x20 DUP3 DUP5 SUB SLT ISZERO PUSH3 0x36BF JUMPI PUSH1 0x0 DUP1 REVERT JUMPDEST PUSH3 0x2C91 DUP3 PUSH3 0x35E2 JUMP JUMPDEST PUSH1 0x0 DUP1 PUSH1 0x40 DUP4 DUP6 SUB SLT ISZERO PUSH3 0x36DE JUMPI PUSH1 0x0 DUP1 REVERT JUMPDEST POP POP DUP1 CALLDATALOAD SWAP3 PUSH1 0x20 SWAP1 SWAP2 ADD CALLDATALOAD SWAP2 POP JUMP JUMPDEST PUSH1 0x0 DUP1 PUSH1 0x40 DUP4 DUP6 SUB SLT ISZERO PUSH3 0x3701 JUMPI PUSH1 0x0 DUP1 REVERT JUMPDEST PUSH3 0x370C DUP4 PUSH3 0x35E2 JUMP JUMPDEST SWAP2 POP PUSH3 0x371C PUSH1 0x20 DUP5 ADD PUSH3 0x35E2 JUMP JUMPDEST SWAP1 POP SWAP3 POP SWAP3 SWAP1 POP JUMP JUMPDEST PUSH4 0x4E487B71 PUSH1 0xE0 SHL PUSH1 0x0 MSTORE PUSH1 0x32 PUSH1 0x4 MSTORE PUSH1 0x24 PUSH1 0x0 REVERT JUMPDEST PUSH1 0x20 DUP1 DUP3 MSTORE DUP2 DUP2 ADD DUP4 SWAP1 MSTORE PUSH1 0x0 SWAP1 PUSH1 0x40 DUP1 DUP5 ADD DUP7 DUP5 JUMPDEST DUP8 DUP2 LT ISZERO PUSH3 0x3789 JUMPI PUSH1 0x1 PUSH1 0x1 PUSH1 0xA0 SHL SUB PUSH3 0x376D DUP4 PUSH3 0x35E2 JUMP JUMPDEST AND DUP4 MSTORE DUP2 DUP6 ADD CALLDATALOAD DUP6 DUP5 ADD MSTORE SWAP2 DUP4 ADD SWAP2 SWAP1 DUP4 ADD SWAP1 PUSH1 0x1 ADD PUSH3 0x3751 JUMP JUMPDEST POP SWAP1 SWAP8 SWAP7 POP POP POP POP POP POP POP JUMP JUMPDEST PUSH1 0x0 PUSH1 0x20 DUP3 DUP5 SUB SLT ISZERO PUSH3 0x37A9 JUMPI PUSH1 0x0 DUP1 REVERT JUMPDEST POP MLOAD SWAP2 SWAP1 POP JUMP JUMPDEST PUSH1 0x20 DUP1 DUP3 MSTORE DUP2 DUP2 ADD DUP4 SWAP1 MSTORE PUSH1 0x0 SWAP1 DUP5 PUSH1 0x40 DUP5 ADD DUP4 JUMPDEST DUP7 DUP2 LT ISZERO PUSH3 0x37F5 JUMPI PUSH1 0x1 PUSH1 0x1 PUSH1 0xA0 SHL SUB PUSH3 0x37E1 DUP5 PUSH3 0x35E2 JUMP JUMPDEST AND DUP3 MSTORE SWAP2 DUP4 ADD SWAP2 SWAP1 DUP4 ADD SWAP1 PUSH1 0x1 ADD PUSH3 0x37C5 JUMP JUMPDEST POP SWAP7 SWAP6 POP POP POP POP POP POP JUMP JUMPDEST PUSH1 0x1 DUP2 DUP2 SHR SWAP1 DUP3 AND DUP1 PUSH3 0x3815 JUMPI PUSH1 0x7F DUP3 AND SWAP2 POP JUMPDEST PUSH1 0x20 DUP3 LT DUP2 EQ ISZERO PUSH3 0x3837 JUMPI PUSH4 0x4E487B71 PUSH1 0xE0 SHL PUSH1 0x0 MSTORE PUSH1 0x22 PUSH1 0x4 MSTORE PUSH1 0x24 PUSH1 0x0 REVERT JUMPDEST POP SWAP2 SWAP1 POP JUMP JUMPDEST PUSH4 0x4E487B71 PUSH1 0xE0 SHL PUSH1 0x0 MSTORE PUSH1 0x11 PUSH1 0x4 MSTORE PUSH1 0x24 PUSH1 0x0 REVERT JUMPDEST PUSH1 0x0 DUP3 NOT DUP3 GT ISZERO PUSH3 0x3869 JUMPI PUSH3 0x3869 PUSH3 0x383D JUMP JUMPDEST POP ADD SWAP1 JUMP JUMPDEST PUSH1 0x0 PUSH1 0x20 DUP3 DUP5 SUB SLT ISZERO PUSH3 0x3881 JUMPI PUSH1 0x0 DUP1 REVERT JUMPDEST DUP2 MLOAD DUP1 ISZERO ISZERO DUP2 EQ PUSH3 0x2C91 JUMPI PUSH1 0x0 DUP1 REVERT JUMPDEST PUSH1 0x0 PUSH8 0xFFFFFFFFFFFFFFFF DUP1 DUP4 AND DUP2 DUP6 AND DUP1 DUP4 SUB DUP3 GT ISZERO PUSH3 0x38B8 JUMPI PUSH3 0x38B8 PUSH3 0x383D JUMP JUMPDEST ADD SWAP5 SWAP4 POP POP POP POP JUMP JUMPDEST PUSH1 0x0 DUP1 PUSH1 0x40 DUP4 DUP6 SUB SLT ISZERO PUSH3 0x38D5 JUMPI PUSH1 0x0 DUP1 REVERT JUMPDEST POP POP DUP1 MLOAD PUSH1 0x20 SWAP1 SWAP2 ADD MLOAD SWAP1 SWAP3 SWAP1 SWAP2 POP JUMP JUMPDEST PUSH1 0x0 DUP3 DUP3 LT ISZERO PUSH3 0x38FB JUMPI PUSH3 0x38FB PUSH3 0x383D JUMP JUMPDEST POP SUB SWAP1 JUMP JUMPDEST PUSH1 0x0 DUP3 PUSH3 0x391E JUMPI PUSH4 0x4E487B71 PUSH1 0xE0 SHL PUSH1 0x0 MSTORE PUSH1 0x12 PUSH1 0x4 MSTORE PUSH1 0x24 PUSH1 0x0 REVERT JUMPDEST POP DIV SWAP1 JUMP JUMPDEST PUSH1 0x0 DUP2 PUSH1 0x0 NOT DIV DUP4 GT DUP3 ISZERO ISZERO AND ISZERO PUSH3 0x3940 JUMPI PUSH3 0x3940 PUSH3 0x383D JUMP JUMPDEST POP MUL SWAP1 JUMP INVALID PUSH1 0xE0 PUSH1 0x40 MSTORE PUSH1 0x40 MLOAD PUSH2 0xE46 CODESIZE SUB DUP1 PUSH2 0xE46 DUP4 CODECOPY DUP2 ADD PUSH1 0x40 DUP2 SWAP1 MSTORE PUSH2 0x22 SWAP2 PUSH2 0xD0 JUMP JUMPDEST PUSH1 0x1 PUSH1 0x1 PUSH1 0xA0 SHL SUB DUP4 AND PUSH2 0x8F JUMPI PUSH1 0x40 MLOAD PUSH3 0x461BCD PUSH1 0xE5 SHL DUP2 MSTORE PUSH1 0x20 PUSH1 0x4 DUP3 ADD MSTORE PUSH1 0x2A PUSH1 0x24 DUP3 ADD MSTORE PUSH32 0x56657374696E6757616C6C65743A2062656E6566696369617279206973207A65 PUSH1 0x44 DUP3 ADD MSTORE PUSH10 0x726F2061646472657373 PUSH1 0xB0 SHL PUSH1 0x64 DUP3 ADD MSTORE PUSH1 0x84 ADD PUSH1 0x40 MLOAD DUP1 SWAP2 SUB SWAP1 REVERT JUMPDEST PUSH1 0x1 PUSH1 0x1 PUSH1 0xA0 SHL SUB SWAP1 SWAP3 AND PUSH1 0x80 MSTORE PUSH1 0x1 PUSH1 0x1 PUSH1 0x40 SHL SUB SWAP1 DUP2 AND PUSH1 0xA0 MSTORE AND PUSH1 0xC0 MSTORE PUSH2 0x121 JUMP JUMPDEST DUP1 MLOAD PUSH1 0x1 PUSH1 0x1 PUSH1 0x40 SHL SUB DUP2 AND DUP2 EQ PUSH2 0xCB JUMPI PUSH1 0x0 DUP1 REVERT JUMPDEST SWAP2 SWAP1 POP JUMP JUMPDEST PUSH1 0x0 DUP1 PUSH1 0x0 PUSH1 0x60 DUP5 DUP7 SUB SLT ISZERO PUSH2 0xE5 JUMPI PUSH1 0x0 DUP1 REVERT JUMPDEST DUP4 MLOAD PUSH1 0x1 PUSH1 0x1 PUSH1 0xA0 SHL SUB DUP2 AND DUP2 EQ PUSH2 0xFC JUMPI PUSH1 0x0 DUP1 REVERT JUMPDEST SWAP3 POP PUSH2 0x10A PUSH1 0x20 DUP6 ADD PUSH2 0xB4 JUMP JUMPDEST SWAP2 POP PUSH2 0x118 PUSH1 0x40 DUP6 ADD PUSH2 0xB4 JUMP JUMPDEST SWAP1 POP SWAP3 POP SWAP3 POP SWAP3 JUMP JUMPDEST PUSH1 0x80 MLOAD PUSH1 0xA0 MLOAD PUSH1 0xC0 MLOAD PUSH2 0xCBE PUSH2 0x188 PUSH1 0x0 CODECOPY PUSH1 0x0 DUP2 DUP2 PUSH2 0x10E ADD MSTORE DUP2 DUP2 PUSH2 0x530 ADD MSTORE PUSH2 0x5E4 ADD MSTORE PUSH1 0x0 DUP2 DUP2 PUSH2 0x251 ADD MSTORE DUP2 DUP2 PUSH2 0x4E0 ADD MSTORE DUP2 DUP2 PUSH2 0x554 ADD MSTORE DUP2 DUP2 PUSH2 0x597 ADD MSTORE PUSH2 0x60F ADD MSTORE PUSH1 0x0 DUP2 DUP2 PUSH2 0x178 ADD MSTORE DUP2 DUP2 PUSH2 0x339 ADD MSTORE PUSH2 0x46B ADD MSTORE PUSH2 0xCBE PUSH1 0x0 RETURN INVALID PUSH1 0x80 PUSH1 0x40 MSTORE PUSH1 0x4 CALLDATASIZE LT PUSH2 0xC0 JUMPI PUSH1 0x0 CALLDATALOAD PUSH1 0xE0 SHR DUP1 PUSH4 0x86D1A69F GT PUSH2 0x74 JUMPI DUP1 PUSH4 0xA3F8EACE GT PUSH2 0x4E JUMPI DUP1 PUSH4 0xA3F8EACE EQ PUSH2 0x222 JUMPI DUP1 PUSH4 0xBE9A6555 EQ PUSH2 0x242 JUMPI DUP1 PUSH4 0xFBCCEDAE EQ PUSH2 0x27F JUMPI PUSH1 0x0 DUP1 REVERT JUMPDEST DUP1 PUSH4 0x86D1A69F EQ PUSH2 0x1C2 JUMPI DUP1 PUSH4 0x96132521 EQ PUSH2 0x1D7 JUMPI DUP1 PUSH4 0x9852595C EQ PUSH2 0x1EC JUMPI PUSH1 0x0 DUP1 REVERT JUMPDEST DUP1 PUSH4 0x19165587 GT PUSH2 0xA5 JUMPI DUP1 PUSH4 0x19165587 EQ PUSH2 0x13C JUMPI DUP1 PUSH4 0x38AF3EED EQ PUSH2 0x15E JUMPI DUP1 PUSH4 0x810EC23B EQ PUSH2 0x1A2 JUMPI PUSH1 0x0 DUP1 REVERT JUMPDEST DUP1 PUSH4 0xA17B06B EQ PUSH2 0xCC JUMPI DUP1 PUSH4 0xFB5A6B4 EQ PUSH2 0xFF JUMPI PUSH1 0x0 DUP1 REVERT JUMPDEST CALLDATASIZE PUSH2 0xC7 JUMPI STOP JUMPDEST PUSH1 0x0 DUP1 REVERT JUMPDEST CALLVALUE DUP1 ISZERO PUSH2 0xD8 JUMPI PUSH1 0x0 DUP1 REVERT JUMPDEST POP PUSH2 0xEC PUSH2 0xE7 CALLDATASIZE PUSH1 0x4 PUSH2 0xAAC JUMP JUMPDEST PUSH2 0x294 JUMP JUMPDEST PUSH1 0x40 MLOAD SWAP1 DUP2 MSTORE PUSH1 0x20 ADD JUMPDEST PUSH1 0x40 MLOAD DUP1 SWAP2 SUB SWAP1 RETURN JUMPDEST CALLVALUE DUP1 ISZERO PUSH2 0x10B JUMPI PUSH1 0x0 DUP1 REVERT JUMPDEST POP PUSH32 0x0 PUSH8 0xFFFFFFFFFFFFFFFF AND PUSH2 0xEC JUMP JUMPDEST CALLVALUE DUP1 ISZERO PUSH2 0x148 JUMPI PUSH1 0x0 DUP1 REVERT JUMPDEST POP PUSH2 0x15C PUSH2 0x157 CALLDATASIZE PUSH1 0x4 PUSH2 0xADE JUMP JUMPDEST PUSH2 0x2B8 JUMP JUMPDEST STOP JUMPDEST CALLVALUE DUP1 ISZERO PUSH2 0x16A JUMPI PUSH1 0x0 DUP1 REVERT JUMPDEST POP PUSH1 0x40 MLOAD PUSH1 0x1 PUSH1 0x1 PUSH1 0xA0 SHL SUB PUSH32 0x0 AND DUP2 MSTORE PUSH1 0x20 ADD PUSH2 0xF6 JUMP JUMPDEST CALLVALUE DUP1 ISZERO PUSH2 0x1AE JUMPI PUSH1 0x0 DUP1 REVERT JUMPDEST POP PUSH2 0xEC PUSH2 0x1BD CALLDATASIZE PUSH1 0x4 PUSH2 0xAF9 JUMP JUMPDEST PUSH2 0x362 JUMP JUMPDEST CALLVALUE DUP1 ISZERO PUSH2 0x1CE JUMPI PUSH1 0x0 DUP1 REVERT JUMPDEST POP PUSH2 0x15C PUSH2 0x411 JUMP JUMPDEST CALLVALUE DUP1 ISZERO PUSH2 0x1E3 JUMPI PUSH1 0x0 DUP1 REVERT JUMPDEST POP PUSH1 0x0 SLOAD PUSH2 0xEC JUMP JUMPDEST CALLVALUE DUP1 ISZERO PUSH2 0x1F8 JUMPI PUSH1 0x0 DUP1 REVERT JUMPDEST POP PUSH2 0xEC PUSH2 0x207 CALLDATASIZE PUSH1 0x4 PUSH2 0xADE JUMP JUMPDEST PUSH1 0x1 PUSH1 0x1 PUSH1 0xA0 SHL SUB AND PUSH1 0x0 SWAP1 DUP2 MSTORE PUSH1 0x1 PUSH1 0x20 MSTORE PUSH1 0x40 SWAP1 KECCAK256 SLOAD SWAP1 JUMP JUMPDEST CALLVALUE DUP1 ISZERO PUSH2 0x22E JUMPI PUSH1 0x0 DUP1 REVERT JUMPDEST POP PUSH2 0xEC PUSH2 0x23D CALLDATASIZE PUSH1 0x4 PUSH2 0xADE JUMP JUMPDEST PUSH2 0x493 JUMP JUMPDEST CALLVALUE DUP1 ISZERO PUSH2 0x24E JUMPI PUSH1 0x0 DUP1 REVERT JUMPDEST POP PUSH32 0x0 PUSH8 0xFFFFFFFFFFFFFFFF AND PUSH2 0xEC JUMP JUMPDEST CALLVALUE DUP1 ISZERO PUSH2 0x28B JUMPI PUSH1 0x0 DUP1 REVERT JUMPDEST POP PUSH2 0xEC PUSH2 0x4C0 JUMP JUMPDEST PUSH1 0x0 PUSH2 0x2B2 PUSH2 0x2A2 PUSH1 0x0 SLOAD SWAP1 JUMP JUMPDEST PUSH2 0x2AC SWAP1 SELFBALANCE PUSH2 0xB42 JUMP JUMPDEST DUP4 PUSH2 0x4DC JUMP JUMPDEST SWAP3 SWAP2 POP POP JUMP JUMPDEST PUSH1 0x0 PUSH2 0x2C3 DUP3 PUSH2 0x493 JUMP JUMPDEST PUSH1 0x1 PUSH1 0x1 PUSH1 0xA0 SHL SUB DUP4 AND PUSH1 0x0 SWAP1 DUP2 MSTORE PUSH1 0x1 PUSH1 0x20 MSTORE PUSH1 0x40 DUP2 KECCAK256 DUP1 SLOAD SWAP3 SWAP4 POP DUP4 SWAP3 SWAP1 SWAP2 SWAP1 PUSH2 0x2F0 SWAP1 DUP5 SWAP1 PUSH2 0xB42 JUMP JUMPDEST SWAP1 SWAP2 SSTORE POP POP PUSH1 0x40 MLOAD DUP2 DUP2 MSTORE PUSH1 0x1 PUSH1 0x1 PUSH1 0xA0 SHL SUB DUP4 AND SWAP1 PUSH32 0xC0E523490DD523C33B1878C9EB14FF46991E3F5B2CD33710918618F2A39CBA1B SWAP1 PUSH1 0x20 ADD PUSH1 0x40 MLOAD DUP1 SWAP2 SUB SWAP1 LOG2 PUSH2 0x35E DUP3 PUSH32 0x0 DUP4 PUSH2 0x66F JUMP JUMPDEST POP POP JUMP JUMPDEST PUSH1 0x1 PUSH1 0x1 PUSH1 0xA0 SHL SUB DUP3 AND PUSH1 0x0 SWAP1 DUP2 MSTORE PUSH1 0x1 PUSH1 0x20 MSTORE PUSH1 0x40 DUP2 KECCAK256 SLOAD PUSH2 0x40A SWAP1 PUSH1 0x40 MLOAD PUSH32 0x70A0823100000000000000000000000000000000000000000000000000000000 DUP2 MSTORE ADDRESS PUSH1 0x4 DUP3 ADD MSTORE PUSH1 0x1 PUSH1 0x1 PUSH1 0xA0 SHL SUB DUP7 AND SWAP1 PUSH4 0x70A08231 SWAP1 PUSH1 0x24 ADD PUSH1 0x20 PUSH1 0x40 MLOAD DUP1 DUP4 SUB DUP2 DUP7 GAS STATICCALL ISZERO DUP1 ISZERO PUSH2 0x3DC JUMPI RETURNDATASIZE PUSH1 0x0 DUP1 RETURNDATACOPY RETURNDATASIZE PUSH1 0x0 REVERT JUMPDEST POP POP POP POP PUSH1 0x40 MLOAD RETURNDATASIZE PUSH1 0x1F NOT PUSH1 0x1F DUP3 ADD AND DUP3 ADD DUP1 PUSH1 0x40 MSTORE POP DUP2 ADD SWAP1 PUSH2 0x400 SWAP2 SWAP1 PUSH2 0xB5A JUMP JUMPDEST PUSH2 0x2AC SWAP2 SWAP1 PUSH2 0xB42 JUMP JUMPDEST SWAP4 SWAP3 POP POP POP JUMP JUMPDEST PUSH1 0x0 PUSH2 0x41B PUSH2 0x4C0 JUMP JUMPDEST SWAP1 POP DUP1 PUSH1 0x0 DUP1 DUP3 DUP3 SLOAD PUSH2 0x42E SWAP2 SWAP1 PUSH2 0xB42 JUMP JUMPDEST SWAP1 SWAP2 SSTORE POP POP PUSH1 0x40 MLOAD DUP2 DUP2 MSTORE PUSH32 0xDA9D4E5F101B8B9B1C5B76D0C5A9F7923571ACFC02376AA076B75A8C080C956B SWAP1 PUSH1 0x20 ADD PUSH1 0x40 MLOAD DUP1 SWAP2 SUB SWAP1 LOG1 PUSH2 0x490 PUSH32 0x0 DUP3 PUSH2 0x6F4 JUMP JUMPDEST POP JUMP JUMPDEST PUSH1 0x1 PUSH1 0x1 PUSH1 0xA0 SHL SUB DUP2 AND PUSH1 0x0 SWAP1 DUP2 MSTORE PUSH1 0x1 PUSH1 0x20 MSTORE PUSH1 0x40 DUP2 KECCAK256 SLOAD PUSH2 0x4B6 DUP4 TIMESTAMP PUSH2 0x362 JUMP JUMPDEST PUSH2 0x2B2 SWAP2 SWAP1 PUSH2 0xB73 JUMP JUMPDEST PUSH1 0x0 DUP1 SLOAD PUSH2 0x4CD TIMESTAMP PUSH2 0x294 JUMP JUMPDEST PUSH2 0x4D7 SWAP2 SWAP1 PUSH2 0xB73 JUMP JUMPDEST SWAP1 POP SWAP1 JUMP JUMPDEST PUSH1 0x0 PUSH32 0x0 PUSH8 0xFFFFFFFFFFFFFFFF AND DUP3 PUSH8 0xFFFFFFFFFFFFFFFF AND LT ISZERO PUSH2 0x522 JUMPI POP PUSH1 0x0 PUSH2 0x2B2 JUMP JUMPDEST PUSH2 0x579 PUSH8 0xFFFFFFFFFFFFFFFF PUSH32 0x0 DUP2 AND SWAP1 PUSH32 0x0 AND PUSH2 0xB42 JUMP JUMPDEST DUP3 PUSH8 0xFFFFFFFFFFFFFFFF AND GT ISZERO PUSH2 0x591 JUMPI POP DUP2 PUSH2 0x2B2 JUMP JUMPDEST PUSH3 0x278D00 PUSH32 0x0 PUSH8 0xFFFFFFFFFFFFFFFF AND PUSH2 0x5D4 SWAP1 PUSH8 0xFFFFFFFFFFFFFFFF DUP6 AND PUSH2 0xB73 JUMP JUMPDEST PUSH2 0x5DE SWAP2 SWAP1 PUSH2 0xBA0 JUMP JUMPDEST PUSH2 0x667 JUMPI PUSH32 0x0 PUSH8 0xFFFFFFFFFFFFFFFF AND PUSH32 0x0 PUSH8 0xFFFFFFFFFFFFFFFF AND PUSH2 0x64C SWAP1 PUSH8 0xFFFFFFFFFFFFFFFF DUP6 AND PUSH2 0xB73 JUMP JUMPDEST PUSH2 0x656 SWAP1 DUP6 PUSH2 0xBB4 JUMP JUMPDEST PUSH2 0x660 SWAP2 SWAP1 PUSH2 0xBD3 JUMP JUMPDEST SWAP1 POP PUSH2 0x2B2 JUMP JUMPDEST POP PUSH1 0x0 PUSH2 0x2B2 JUMP JUMPDEST PUSH1 0x40 DUP1 MLOAD PUSH1 0x1 PUSH1 0x1 PUSH1 0xA0 SHL SUB DUP5 AND PUSH1 0x24 DUP3 ADD MSTORE PUSH1 0x44 DUP1 DUP3 ADD DUP5 SWAP1 MSTORE DUP3 MLOAD DUP1 DUP4 SUB SWAP1 SWAP2 ADD DUP2 MSTORE PUSH1 0x64 SWAP1 SWAP2 ADD SWAP1 SWAP2 MSTORE PUSH1 0x20 DUP2 ADD DUP1 MLOAD PUSH28 0xFFFFFFFFFFFFFFFFFFFFFFFFFFFFFFFFFFFFFFFFFFFFFFFFFFFFFFFF AND PUSH32 0xA9059CBB00000000000000000000000000000000000000000000000000000000 OR SWAP1 MSTORE PUSH2 0x6EF SWAP1 DUP5 SWAP1 PUSH2 0x812 JUMP JUMPDEST POP POP POP JUMP JUMPDEST DUP1 SELFBALANCE LT ISZERO PUSH2 0x749 JUMPI PUSH1 0x40 MLOAD PUSH3 0x461BCD PUSH1 0xE5 SHL DUP2 MSTORE PUSH1 0x20 PUSH1 0x4 DUP3 ADD MSTORE PUSH1 0x1D PUSH1 0x24 DUP3 ADD MSTORE PUSH32 0x416464726573733A20696E73756666696369656E742062616C616E6365000000 PUSH1 0x44 DUP3 ADD MSTORE PUSH1 0x64 ADD JUMPDEST PUSH1 0x40 MLOAD DUP1 SWAP2 SUB SWAP1 REVERT JUMPDEST PUSH1 0x0 DUP3 PUSH1 0x1 PUSH1 0x1 PUSH1 0xA0 SHL SUB AND DUP3 PUSH1 0x40 MLOAD PUSH1 0x0 PUSH1 0x40 MLOAD DUP1 DUP4 SUB DUP2 DUP6 DUP8 GAS CALL SWAP3 POP POP POP RETURNDATASIZE DUP1 PUSH1 0x0 DUP2 EQ PUSH2 0x796 JUMPI PUSH1 0x40 MLOAD SWAP2 POP PUSH1 0x1F NOT PUSH1 0x3F RETURNDATASIZE ADD AND DUP3 ADD PUSH1 0x40 MSTORE RETURNDATASIZE DUP3 MSTORE RETURNDATASIZE PUSH1 0x0 PUSH1 0x20 DUP5 ADD RETURNDATACOPY PUSH2 0x79B JUMP JUMPDEST PUSH1 0x60 SWAP2 POP JUMPDEST POP POP SWAP1 POP DUP1 PUSH2 0x6EF JUMPI PUSH1 0x40 MLOAD PUSH3 0x461BCD PUSH1 0xE5 SHL DUP2 MSTORE PUSH1 0x20 PUSH1 0x4 DUP3 ADD MSTORE PUSH1 0x3A PUSH1 0x24 DUP3 ADD MSTORE PUSH32 0x416464726573733A20756E61626C6520746F2073656E642076616C75652C2072 PUSH1 0x44 DUP3 ADD MSTORE PUSH32 0x6563697069656E74206D61792068617665207265766572746564000000000000 PUSH1 0x64 DUP3 ADD MSTORE PUSH1 0x84 ADD PUSH2 0x740 JUMP JUMPDEST PUSH1 0x0 PUSH2 0x867 DUP3 PUSH1 0x40 MLOAD DUP1 PUSH1 0x40 ADD PUSH1 0x40 MSTORE DUP1 PUSH1 0x20 DUP2 MSTORE PUSH1 0x20 ADD PUSH32 0x5361666545524332303A206C6F772D6C6576656C2063616C6C206661696C6564 DUP2 MSTORE POP DUP6 PUSH1 0x1 PUSH1 0x1 PUSH1 0xA0 SHL SUB AND PUSH2 0x8F7 SWAP1 SWAP3 SWAP2 SWAP1 PUSH4 0xFFFFFFFF AND JUMP JUMPDEST DUP1 MLOAD SWAP1 SWAP2 POP ISZERO PUSH2 0x6EF JUMPI DUP1 DUP1 PUSH1 0x20 ADD SWAP1 MLOAD DUP2 ADD SWAP1 PUSH2 0x885 SWAP2 SWAP1 PUSH2 0xBE7 JUMP JUMPDEST PUSH2 0x6EF JUMPI PUSH1 0x40 MLOAD PUSH3 0x461BCD PUSH1 0xE5 SHL DUP2 MSTORE PUSH1 0x20 PUSH1 0x4 DUP3 ADD MSTORE PUSH1 0x2A PUSH1 0x24 DUP3 ADD MSTORE PUSH32 0x5361666545524332303A204552433230206F7065726174696F6E20646964206E PUSH1 0x44 DUP3 ADD MSTORE PUSH32 0x6F74207375636365656400000000000000000000000000000000000000000000 PUSH1 0x64 DUP3 ADD MSTORE PUSH1 0x84 ADD PUSH2 0x740 JUMP JUMPDEST PUSH1 0x60 PUSH2 0x906 DUP5 DUP5 PUSH1 0x0 DUP6 PUSH2 0x90E JUMP JUMPDEST SWAP5 SWAP4 POP POP POP POP JUMP JUMPDEST PUSH1 0x60 DUP3 SELFBALANCE LT ISZERO PUSH2 0x986 JUMPI PUSH1 0x40 MLOAD PUSH3 0x461BCD PUSH1 0xE5 SHL DUP2 MSTORE PUSH1 0x20 PUSH1 0x4 DUP3 ADD MSTORE PUSH1 0x26 PUSH1 0x24 DUP3 ADD MSTORE PUSH32 0x416464726573733A20696E73756666696369656E742062616C616E636520666F PUSH1 0x44 DUP3 ADD MSTORE PUSH32 0x722063616C6C0000000000000000000000000000000000000000000000000000 PUSH1 0x64 DUP3 ADD MSTORE PUSH1 0x84 ADD PUSH2 0x740 JUMP JUMPDEST PUSH1 0x1 PUSH1 0x1 PUSH1 0xA0 SHL SUB DUP6 AND EXTCODESIZE PUSH2 0x9DD JUMPI PUSH1 0x40 MLOAD PUSH3 0x461BCD PUSH1 0xE5 SHL DUP2 MSTORE PUSH1 0x20 PUSH1 0x4 DUP3 ADD MSTORE PUSH1 0x1D PUSH1 0x24 DUP3 ADD MSTORE PUSH32 0x416464726573733A2063616C6C20746F206E6F6E2D636F6E7472616374000000 PUSH1 0x44 DUP3 ADD MSTORE PUSH1 0x64 ADD PUSH2 0x740 JUMP JUMPDEST PUSH1 0x0 DUP1 DUP7 PUSH1 0x1 PUSH1 0x1 PUSH1 0xA0 SHL SUB AND DUP6 DUP8 PUSH1 0x40 MLOAD PUSH2 0x9F9 SWAP2 SWAP1 PUSH2 0xC39 JUMP JUMPDEST PUSH1 0x0 PUSH1 0x40 MLOAD DUP1 DUP4 SUB DUP2 DUP6 DUP8 GAS CALL SWAP3 POP POP POP RETURNDATASIZE DUP1 PUSH1 0x0 DUP2 EQ PUSH2 0xA36 JUMPI PUSH1 0x40 MLOAD SWAP2 POP PUSH1 0x1F NOT PUSH1 0x3F RETURNDATASIZE ADD AND DUP3 ADD PUSH1 0x40 MSTORE RETURNDATASIZE DUP3 MSTORE RETURNDATASIZE PUSH1 0x0 PUSH1 0x20 DUP5 ADD RETURNDATACOPY PUSH2 0xA3B JUMP JUMPDEST PUSH1 0x60 SWAP2 POP JUMPDEST POP SWAP2 POP SWAP2 POP PUSH2 0xA4B DUP3 DUP3 DUP7 PUSH2 0xA56 JUMP JUMPDEST SWAP8 SWAP7 POP POP POP POP POP POP POP JUMP JUMPDEST PUSH1 0x60 DUP4 ISZERO PUSH2 0xA65 JUMPI POP DUP2 PUSH2 0x40A JUMP JUMPDEST DUP3 MLOAD ISZERO PUSH2 0xA75 JUMPI DUP3 MLOAD DUP1 DUP5 PUSH1 0x20 ADD REVERT JUMPDEST DUP2 PUSH1 0x40 MLOAD PUSH3 0x461BCD PUSH1 0xE5 SHL DUP2 MSTORE PUSH1 0x4 ADD PUSH2 0x740 SWAP2 SWAP1 PUSH2 0xC55 JUMP JUMPDEST DUP1 CALLDATALOAD PUSH8 0xFFFFFFFFFFFFFFFF DUP2 AND DUP2 EQ PUSH2 0xAA7 JUMPI PUSH1 0x0 DUP1 REVERT JUMPDEST SWAP2 SWAP1 POP JUMP JUMPDEST PUSH1 0x0 PUSH1 0x20 DUP3 DUP5 SUB SLT ISZERO PUSH2 0xABE JUMPI PUSH1 0x0 DUP1 REVERT JUMPDEST PUSH2 0x40A DUP3 PUSH2 0xA8F JUMP JUMPDEST DUP1 CALLDATALOAD PUSH1 0x1 PUSH1 0x1 PUSH1 0xA0 SHL SUB DUP2 AND DUP2 EQ PUSH2 0xAA7 JUMPI PUSH1 0x0 DUP1 REVERT JUMPDEST PUSH1 0x0 PUSH1 0x20 DUP3 DUP5 SUB SLT ISZERO PUSH2 0xAF0 JUMPI PUSH1 0x0 DUP1 REVERT JUMPDEST PUSH2 0x40A DUP3 PUSH2 0xAC7 JUMP JUMPDEST PUSH1 0x0 DUP1 PUSH1 0x40 DUP4 DUP6 SUB SLT ISZERO PUSH2 0xB0C JUMPI PUSH1 0x0 DUP1 REVERT JUMPDEST PUSH2 0xB15 DUP4 PUSH2 0xAC7 JUMP JUMPDEST SWAP2 POP PUSH2 0xB23 PUSH1 0x20 DUP5 ADD PUSH2 0xA8F JUMP JUMPDEST SWAP1 POP SWAP3 POP SWAP3 SWAP1 POP JUMP JUMPDEST PUSH4 0x4E487B71 PUSH1 0xE0 SHL PUSH1 0x0 MSTORE PUSH1 0x11 PUSH1 0x4 MSTORE PUSH1 0x24 PUSH1 0x0 REVERT JUMPDEST PUSH1 0x0 DUP3 NOT DUP3 GT ISZERO PUSH2 0xB55 JUMPI PUSH2 0xB55 PUSH2 0xB2C JUMP JUMPDEST POP ADD SWAP1 JUMP JUMPDEST PUSH1 0x0 PUSH1 0x20 DUP3 DUP5 SUB SLT ISZERO PUSH2 0xB6C JUMPI PUSH1 0x0 DUP1 REVERT JUMPDEST POP MLOAD SWAP2 SWAP1 POP JUMP JUMPDEST PUSH1 0x0 DUP3 DUP3 LT ISZERO PUSH2 0xB85 JUMPI PUSH2 0xB85 PUSH2 0xB2C JUMP JUMPDEST POP SUB SWAP1 JUMP JUMPDEST PUSH4 0x4E487B71 PUSH1 0xE0 SHL PUSH1 0x0 MSTORE PUSH1 0x12 PUSH1 0x4 MSTORE PUSH1 0x24 PUSH1 0x0 REVERT JUMPDEST PUSH1 0x0 DUP3 PUSH2 0xBAF JUMPI PUSH2 0xBAF PUSH2 0xB8A JUMP JUMPDEST POP MOD SWAP1 JUMP JUMPDEST PUSH1 0x0 DUP2 PUSH1 0x0 NOT DIV DUP4 GT DUP3 ISZERO ISZERO AND ISZERO PUSH2 0xBCE JUMPI PUSH2 0xBCE PUSH2 0xB2C JUMP JUMPDEST POP MUL SWAP1 JUMP JUMPDEST PUSH1 0x0 DUP3 PUSH2 0xBE2 JUMPI PUSH2 0xBE2 PUSH2 0xB8A JUMP JUMPDEST POP DIV SWAP1 JUMP JUMPDEST PUSH1 0x0 PUSH1 0x20 DUP3 DUP5 SUB SLT ISZERO PUSH2 0xBF9 JUMPI PUSH1 0x0 DUP1 REVERT JUMPDEST DUP2 MLOAD DUP1 ISZERO ISZERO DUP2 EQ PUSH2 0x40A JUMPI PUSH1 0x0 DUP1 REVERT JUMPDEST PUSH1 0x0 JUMPDEST DUP4 DUP2 LT ISZERO PUSH2 0xC24 JUMPI DUP2 DUP2 ADD MLOAD DUP4 DUP3 ADD MSTORE PUSH1 0x20 ADD PUSH2 0xC0C JUMP JUMPDEST DUP4 DUP2 GT ISZERO PUSH2 0xC33 JUMPI PUSH1 0x0 DUP5 DUP5 ADD MSTORE JUMPDEST POP POP POP POP JUMP JUMPDEST PUSH1 0x0 DUP3 MLOAD PUSH2 0xC4B DUP2 DUP5 PUSH1 0x20 DUP8 ADD PUSH2 0xC09 JUMP JUMPDEST SWAP2 SWAP1 SWAP2 ADD SWAP3 SWAP2 POP POP JUMP JUMPDEST PUSH1 0x20 DUP2 MSTORE PUSH1 0x0 DUP3 MLOAD DUP1 PUSH1 0x20 DUP5 ADD MSTORE PUSH2 0xC74 DUP2 PUSH1 0x40 DUP6 ADD PUSH1 0x20 DUP8 ADD PUSH2 0xC09 JUMP JUMPDEST PUSH1 0x1F ADD PUSH1 0x1F NOT AND SWAP2 SWAP1 SWAP2 ADD PUSH1 0x40 ADD SWAP3 SWAP2 POP POP JUMP INVALID LOG2 PUSH5 0x6970667358 0x22 SLT KECCAK256 0xC3 PUSH18 0x93E7B54783ADA5CDFE7515CDA056A6DE7126 0xBA PC DUP7 SWAP13 PUSH6 0x42CEBD6B6D4F 0xE2 PUSH5 0x736F6C6343 STOP ADDMOD SIGNEXTEND STOP CALLER 0x4F PUSH24 0x6E61626C653A2063616C6C6572206973206E6F7420746865 KECCAK256 PUSH16 0x776E6572A26469706673582212203046 TIMESTAMP 0x4D GAS SAR 0xBE CHAINID 0xCE 0xC3 SELFBALANCE 0xB1 0xA9 DUP16 SWAP4 PUSH17 0x3B66123DA4C2D7CAC1D0C9D69B50306764 PUSH20 0x6F6C634300080B00330000000000000000000000 "
		},
		"gasEstimates": {
			"creation": {
				"codeDepositCost": "3680200",
				"executionCost": "infinite",
				"totalCost": "infinite"
			},
			"external": {
				"": "infinite",
				"M_contract_1()": "2426",
				"M_contract_2()": "2406",
				"M_contract_3()": "2403",
				"TPC_contract_1()": "2405",
				"TPC_contract_2()": "2404",
				"TPC_contract_3()": "2427",
				"add_PP_Beneficiaries((address,uint256)[])": "infinite",
				"add_PS_Beneficiaries((address,uint256)[])": "infinite",
				"add_SP_Beneficiaries((address,uint256)[])": "infinite",
				"airdropStatus()": "2411",
				"allowance(address,address)": "infinite",
				"approve(address,uint256)": "24704",
				"balanceOf(address)": "2594",
				"burn(uint256)": "50946",
				"burnFrom(address,uint256)": "infinite",
				"burnLiquidityReserve(uint256)": "infinite",
				"burnStakingReward(uint256)": "infinite",
				"changeAirdropPercentage(uint256)": "infinite",
				"changePenaltyFee(uint256)": "infinite",
				"changeTaxFee(uint8)": "infinite",
				"claimAirdrop()": "infinite",
				"claim_PP()": "infinite",
				"claim_PS()": "infinite",
				"claim_SP()": "infinite",
				"daoProjectPool()": "2395",
				"decimals()": "302",
				"decreaseAllowance(address,uint256)": "27002",
				"delete_PP_Beneficiaries(address[])": "infinite",
				"delete_PS_Beneficiaries(address[])": "infinite",
				"delete_SP_Beneficiaries(address[])": "infinite",
				"increaseAllowance(address,uint256)": "27091",
				"initializationStatus()": "2410",
				"initiateVesting_Whitelist_Airdrop()": "infinite",
				"mint(address,uint256)": "infinite",
				"mintLiquidityReserve(uint256)": "infinite",
				"mintStakingReward(uint256)": "infinite",
				"name()": "infinite",
				"owner()": "2399",
				"private_placement_address()": "2449",
				"renounceOwnership()": "infinite",
				"stake(uint256,uint256)": "infinite",
				"stakingReward()": "2398",
				"startTransferDAOVoting()": "infinite",
				"strategic_partner_address()": "2448",
				"symbol()": "infinite",
				"taxFee()": "2447",
				"timelockController()": "2447",
				"totalSupply()": "2372",
				"transfer(address,uint256)": "infinite",
				"transferDAOPool(address,uint256)": "infinite",
				"transferFrom(address,address,uint256)": "infinite",
				"transferOwnership(address)": "28400",
				"transferToDAOPool(uint256)": "49118",
				"vesting_start()": "2351",
				"withdrawStake()": "infinite"
			},
			"internal": {
				"_addThirdOfValue(uint256)": "infinite",
				"_approve(address,address,uint256)": "infinite",
				"_burn(address,uint256)": "infinite",
				"_isInitializationStarted()": "infinite",
				"_mint(address,uint256)": "infinite",
				"_mintStakingReward(uint256)": "infinite",
				"_onlyWalletOwner(address)": "infinite",
				"_spendAllowance(address,address,uint256)": "infinite",
				"_transfer(address,address,uint256)": "infinite",
				"unsafeInc(uint256)": "infinite"
			}
		},
		"methodIdentifiers": {
			"M_contract_1()": "e6469a66",
			"M_contract_2()": "15adac1a",
			"M_contract_3()": "efa04c82",
			"TPC_contract_1()": "25e8a2cc",
			"TPC_contract_2()": "795495c5",
			"TPC_contract_3()": "569e7127",
			"add_PP_Beneficiaries((address,uint256)[])": "0145224d",
			"add_PS_Beneficiaries((address,uint256)[])": "dd1b7b37",
			"add_SP_Beneficiaries((address,uint256)[])": "4f075bff",
			"airdropStatus()": "2cf1a5fb",
			"allowance(address,address)": "dd62ed3e",
			"approve(address,uint256)": "095ea7b3",
			"balanceOf(address)": "70a08231",
			"burn(uint256)": "42966c68",
			"burnFrom(address,uint256)": "79cc6790",
			"burnLiquidityReserve(uint256)": "8b7c64da",
			"burnStakingReward(uint256)": "0e1b09ed",
			"changeAirdropPercentage(uint256)": "d5dbdf1b",
			"changePenaltyFee(uint256)": "8c63f97f",
			"changeTaxFee(uint8)": "471a30a2",
			"claimAirdrop()": "5b88349d",
			"claim_PP()": "8ccd4b6a",
			"claim_PS()": "cbb109ac",
			"claim_SP()": "fa47026c",
			"daoProjectPool()": "bad4346c",
			"decimals()": "313ce567",
			"decreaseAllowance(address,uint256)": "a457c2d7",
			"delete_PP_Beneficiaries(address[])": "021fb2f2",
			"delete_PS_Beneficiaries(address[])": "c61a1341",
			"delete_SP_Beneficiaries(address[])": "75290061",
			"increaseAllowance(address,uint256)": "39509351",
			"initializationStatus()": "b8dd0099",
			"initiateVesting_Whitelist_Airdrop()": "9f391aaf",
			"mint(address,uint256)": "40c10f19",
			"mintLiquidityReserve(uint256)": "d94d4ad6",
			"mintStakingReward(uint256)": "a169c515",
			"name()": "06fdde03",
			"owner()": "8da5cb5b",
			"private_placement_address()": "a837a65e",
			"renounceOwnership()": "715018a6",
			"stake(uint256,uint256)": "7b0472f0",
			"stakingReward()": "042249bb",
			"startTransferDAOVoting()": "c4dba83b",
			"strategic_partner_address()": "e6578ea0",
			"symbol()": "95d89b41",
			"taxFee()": "a071dcf4",
			"timelockController()": "f3388e75",
			"totalSupply()": "18160ddd",
			"transfer(address,uint256)": "a9059cbb",
			"transferDAOPool(address,uint256)": "8d4a3c85",
			"transferFrom(address,address,uint256)": "23b872dd",
			"transferOwnership(address)": "f2fde38b",
			"transferToDAOPool(uint256)": "63a599a4",
			"vesting_start()": "cf3364ae",
			"withdrawStake()": "bed9d861"
		}
	},
	"abi": [
		{
			"inputs": [],
			"stateMutability": "nonpayable",
			"type": "constructor"
		},
		{
			"anonymous": false,
			"inputs": [
				{
					"indexed": true,
					"internalType": "address",
					"name": "from",
					"type": "address"
				},
				{
					"components": [
						{
							"internalType": "address",
							"name": "user",
							"type": "address"
						},
						{
							"internalType": "uint256",
							"name": "amount",
							"type": "uint256"
						}
					],
					"indexed": false,
					"internalType": "struct Beneficiary[]",
					"name": "beneficiary",
					"type": "tuple[]"
				}
			],
			"name": "AddBeneficiary",
			"type": "event"
		},
		{
			"anonymous": false,
			"inputs": [
				{
					"indexed": true,
					"internalType": "address",
					"name": "owner",
					"type": "address"
				},
				{
					"indexed": true,
					"internalType": "address",
					"name": "spender",
					"type": "address"
				},
				{
					"indexed": false,
					"internalType": "uint256",
					"name": "value",
					"type": "uint256"
				}
			],
			"name": "Approval",
			"type": "event"
		},
		{
			"anonymous": false,
			"inputs": [
				{
					"indexed": true,
					"internalType": "address",
					"name": "from",
					"type": "address"
				},
				{
					"indexed": false,
					"internalType": "uint256",
					"name": "amount",
					"type": "uint256"
				}
			],
			"name": "ChangeAirdropPercentage",
			"type": "event"
		},
		{
			"anonymous": false,
			"inputs": [
				{
					"indexed": true,
					"internalType": "address",
					"name": "who",
					"type": "address"
				},
				{
					"indexed": false,
					"internalType": "bool",
					"name": "status",
					"type": "bool"
				}
			],
			"name": "ChangeAirdropStatus",
			"type": "event"
		},
		{
			"anonymous": false,
			"inputs": [
				{
					"indexed": true,
					"internalType": "address",
					"name": "from",
					"type": "address"
				},
				{
					"indexed": false,
					"internalType": "uint256",
					"name": "amount",
					"type": "uint256"
				}
			],
			"name": "ChangePenaltyFee",
			"type": "event"
		},
		{
			"anonymous": false,
			"inputs": [
				{
					"indexed": false,
					"internalType": "address",
					"name": "from",
					"type": "address"
				},
				{
					"indexed": true,
					"internalType": "address",
					"name": "to1",
					"type": "address"
				},
				{
					"indexed": true,
					"internalType": "address",
					"name": "to2",
					"type": "address"
				},
				{
					"indexed": true,
					"internalType": "address",
					"name": "to3",
					"type": "address"
				}
			],
			"name": "ChangeStrategicPartnerAddress",
			"type": "event"
		},
		{
			"anonymous": false,
			"inputs": [
				{
					"indexed": true,
					"internalType": "address",
					"name": "who",
					"type": "address"
				},
				{
					"indexed": false,
					"internalType": "uint256",
					"name": "amount",
					"type": "uint256"
				}
			],
			"name": "ChangeTax",
			"type": "event"
		},
		{
			"anonymous": false,
			"inputs": [
				{
					"indexed": true,
					"internalType": "address",
					"name": "to",
					"type": "address"
				}
			],
			"name": "Change_PP_Address",
			"type": "event"
		},
		{
			"anonymous": false,
			"inputs": [
				{
					"indexed": true,
					"internalType": "address",
					"name": "from",
					"type": "address"
				},
				{
					"indexed": false,
					"internalType": "address[]",
					"name": "beneficiary",
					"type": "address[]"
				}
			],
			"name": "DeleteBeneficiary",
			"type": "event"
		},
		{
			"anonymous": false,
			"inputs": [
				{
					"indexed": true,
					"internalType": "address",
					"name": "from",
					"type": "address"
				}
			],
			"name": "InitiateVesting",
			"type": "event"
		},
		{
			"anonymous": false,
			"inputs": [
				{
					"indexed": true,
					"internalType": "address",
					"name": "from",
					"type": "address"
				}
			],
			"name": "InitiateWhitelist",
			"type": "event"
		},
		{
			"anonymous": false,
			"inputs": [
				{
					"indexed": true,
					"internalType": "address",
					"name": "previousOwner",
					"type": "address"
				},
				{
					"indexed": true,
					"internalType": "address",
					"name": "newOwner",
					"type": "address"
				}
			],
			"name": "OwnershipTransferred",
			"type": "event"
		},
		{
			"anonymous": false,
			"inputs": [
				{
					"indexed": true,
					"internalType": "address",
					"name": "from",
					"type": "address"
				},
				{
					"indexed": true,
					"internalType": "address",
					"name": "to",
					"type": "address"
				},
				{
					"indexed": false,
					"internalType": "uint256",
					"name": "value",
					"type": "uint256"
				}
			],
			"name": "Transfer",
			"type": "event"
		},
		{
			"anonymous": false,
			"inputs": [
				{
					"indexed": true,
					"internalType": "address",
					"name": "from",
					"type": "address"
				},
				{
					"indexed": true,
					"internalType": "address",
					"name": "to",
					"type": "address"
				},
				{
					"indexed": false,
					"internalType": "uint256",
					"name": "amount",
					"type": "uint256"
				}
			],
			"name": "TransferDAOPool",
			"type": "event"
		},
		{
			"anonymous": false,
			"inputs": [
				{
					"indexed": true,
					"internalType": "address",
					"name": "from",
					"type": "address"
				},
				{
					"indexed": true,
					"internalType": "address",
					"name": "to",
					"type": "address"
				},
				{
					"indexed": false,
					"internalType": "uint256",
					"name": "amount",
					"type": "uint256"
				}
			],
			"name": "TransferStakingReward",
			"type": "event"
		},
		{
			"stateMutability": "payable",
			"type": "fallback"
		},
		{
			"inputs": [],
			"name": "M_contract_1",
			"outputs": [
				{
					"internalType": "contract VestingWallet",
					"name": "",
					"type": "address"
				}
			],
			"stateMutability": "view",
			"type": "function"
		},
		{
			"inputs": [],
			"name": "M_contract_2",
			"outputs": [
				{
					"internalType": "contract VestingWallet",
					"name": "",
					"type": "address"
				}
			],
			"stateMutability": "view",
			"type": "function"
		},
		{
			"inputs": [],
			"name": "M_contract_3",
			"outputs": [
				{
					"internalType": "contract VestingWallet",
					"name": "",
					"type": "address"
				}
			],
			"stateMutability": "view",
			"type": "function"
		},
		{
			"inputs": [],
			"name": "TPC_contract_1",
			"outputs": [
				{
					"internalType": "contract VestingWallet",
					"name": "",
					"type": "address"
				}
			],
			"stateMutability": "view",
			"type": "function"
		},
		{
			"inputs": [],
			"name": "TPC_contract_2",
			"outputs": [
				{
					"internalType": "contract VestingWallet",
					"name": "",
					"type": "address"
				}
			],
			"stateMutability": "view",
			"type": "function"
		},
		{
			"inputs": [],
			"name": "TPC_contract_3",
			"outputs": [
				{
					"internalType": "contract VestingWallet",
					"name": "",
					"type": "address"
				}
			],
			"stateMutability": "view",
			"type": "function"
		},
		{
			"inputs": [
				{
					"components": [
						{
							"internalType": "address",
							"name": "user",
							"type": "address"
						},
						{
							"internalType": "uint256",
							"name": "amount",
							"type": "uint256"
						}
					],
					"internalType": "struct Beneficiary[]",
					"name": "benefs",
					"type": "tuple[]"
				}
			],
			"name": "add_PP_Beneficiaries",
			"outputs": [],
			"stateMutability": "nonpayable",
			"type": "function"
		},
		{
			"inputs": [
				{
					"components": [
						{
							"internalType": "address",
							"name": "user",
							"type": "address"
						},
						{
							"internalType": "uint256",
							"name": "amount",
							"type": "uint256"
						}
					],
					"internalType": "struct Beneficiary[]",
					"name": "benefs",
					"type": "tuple[]"
				}
			],
			"name": "add_PS_Beneficiaries",
			"outputs": [],
			"stateMutability": "nonpayable",
			"type": "function"
		},
		{
			"inputs": [
				{
					"components": [
						{
							"internalType": "address",
							"name": "user",
							"type": "address"
						},
						{
							"internalType": "uint256",
							"name": "amount",
							"type": "uint256"
						}
					],
					"internalType": "struct Beneficiary[]",
					"name": "benefs",
					"type": "tuple[]"
				}
			],
			"name": "add_SP_Beneficiaries",
			"outputs": [],
			"stateMutability": "nonpayable",
			"type": "function"
		},
		{
			"inputs": [],
			"name": "airdropStatus",
			"outputs": [
				{
					"internalType": "bool",
					"name": "",
					"type": "bool"
				}
			],
			"stateMutability": "view",
			"type": "function"
		},
		{
			"inputs": [
				{
					"internalType": "address",
					"name": "owner",
					"type": "address"
				},
				{
					"internalType": "address",
					"name": "spender",
					"type": "address"
				}
			],
			"name": "allowance",
			"outputs": [
				{
					"internalType": "uint256",
					"name": "",
					"type": "uint256"
				}
			],
			"stateMutability": "view",
			"type": "function"
		},
		{
			"inputs": [
				{
					"internalType": "address",
					"name": "spender",
					"type": "address"
				},
				{
					"internalType": "uint256",
					"name": "amount",
					"type": "uint256"
				}
			],
			"name": "approve",
			"outputs": [
				{
					"internalType": "bool",
					"name": "",
					"type": "bool"
				}
			],
			"stateMutability": "nonpayable",
			"type": "function"
		},
		{
			"inputs": [
				{
					"internalType": "address",
					"name": "account",
					"type": "address"
				}
			],
			"name": "balanceOf",
			"outputs": [
				{
					"internalType": "uint256",
					"name": "",
					"type": "uint256"
				}
			],
			"stateMutability": "view",
			"type": "function"
		},
		{
			"inputs": [
				{
					"internalType": "uint256",
					"name": "amount",
					"type": "uint256"
				}
			],
			"name": "burn",
			"outputs": [],
			"stateMutability": "nonpayable",
			"type": "function"
		},
		{
			"inputs": [
				{
					"internalType": "address",
					"name": "account",
					"type": "address"
				},
				{
					"internalType": "uint256",
					"name": "amount",
					"type": "uint256"
				}
			],
			"name": "burnFrom",
			"outputs": [],
			"stateMutability": "nonpayable",
			"type": "function"
		},
		{
			"inputs": [
				{
					"internalType": "uint256",
					"name": "amount_",
					"type": "uint256"
				}
			],
			"name": "burnLiquidityReserve",
			"outputs": [],
			"stateMutability": "nonpayable",
			"type": "function"
		},
		{
			"inputs": [
				{
					"internalType": "uint256",
					"name": "amount_",
					"type": "uint256"
				}
			],
			"name": "burnStakingReward",
			"outputs": [],
			"stateMutability": "nonpayable",
			"type": "function"
		},
		{
			"inputs": [
				{
					"internalType": "uint256",
					"name": "airdrop_",
					"type": "uint256"
				}
			],
			"name": "changeAirdropPercentage",
			"outputs": [],
			"stateMutability": "nonpayable",
			"type": "function"
		},
		{
			"inputs": [
				{
					"internalType": "uint256",
					"name": "penaltyFee_",
					"type": "uint256"
				}
			],
			"name": "changePenaltyFee",
			"outputs": [],
			"stateMutability": "nonpayable",
			"type": "function"
		},
		{
			"inputs": [
				{
					"internalType": "uint8",
					"name": "taxFee_",
					"type": "uint8"
				}
			],
			"name": "changeTaxFee",
			"outputs": [],
			"stateMutability": "nonpayable",
			"type": "function"
		},
		{
			"inputs": [],
			"name": "claimAirdrop",
			"outputs": [],
			"stateMutability": "nonpayable",
			"type": "function"
		},
		{
			"inputs": [],
			"name": "claim_PP",
			"outputs": [],
			"stateMutability": "nonpayable",
			"type": "function"
		},
		{
			"inputs": [],
			"name": "claim_PS",
			"outputs": [],
			"stateMutability": "nonpayable",
			"type": "function"
		},
		{
			"inputs": [],
			"name": "claim_SP",
			"outputs": [],
			"stateMutability": "nonpayable",
			"type": "function"
		},
		{
			"inputs": [],
			"name": "daoProjectPool",
			"outputs": [
				{
					"internalType": "uint256",
					"name": "",
					"type": "uint256"
				}
			],
			"stateMutability": "view",
			"type": "function"
		},
		{
			"inputs": [],
			"name": "decimals",
			"outputs": [
				{
					"internalType": "uint8",
					"name": "",
					"type": "uint8"
				}
			],
			"stateMutability": "view",
			"type": "function"
		},
		{
			"inputs": [
				{
					"internalType": "address",
					"name": "spender",
					"type": "address"
				},
				{
					"internalType": "uint256",
					"name": "subtractedValue",
					"type": "uint256"
				}
			],
			"name": "decreaseAllowance",
			"outputs": [
				{
					"internalType": "bool",
					"name": "",
					"type": "bool"
				}
			],
			"stateMutability": "nonpayable",
			"type": "function"
		},
		{
			"inputs": [
				{
					"internalType": "address[]",
					"name": "benefs",
					"type": "address[]"
				}
			],
			"name": "delete_PP_Beneficiaries",
			"outputs": [],
			"stateMutability": "nonpayable",
			"type": "function"
		},
		{
			"inputs": [
				{
					"internalType": "address[]",
					"name": "benefs",
					"type": "address[]"
				}
			],
			"name": "delete_PS_Beneficiaries",
			"outputs": [],
			"stateMutability": "nonpayable",
			"type": "function"
		},
		{
			"inputs": [
				{
					"internalType": "address[]",
					"name": "benefs",
					"type": "address[]"
				}
			],
			"name": "delete_SP_Beneficiaries",
			"outputs": [],
			"stateMutability": "nonpayable",
			"type": "function"
		},
		{
			"inputs": [
				{
					"internalType": "address",
					"name": "spender",
					"type": "address"
				},
				{
					"internalType": "uint256",
					"name": "addedValue",
					"type": "uint256"
				}
			],
			"name": "increaseAllowance",
			"outputs": [
				{
					"internalType": "bool",
					"name": "",
					"type": "bool"
				}
			],
			"stateMutability": "nonpayable",
			"type": "function"
		},
		{
			"inputs": [],
			"name": "initializationStatus",
			"outputs": [
				{
					"internalType": "bool",
					"name": "",
					"type": "bool"
				}
			],
			"stateMutability": "view",
			"type": "function"
		},
		{
			"inputs": [],
			"name": "initiateVesting_Whitelist_Airdrop",
			"outputs": [],
			"stateMutability": "nonpayable",
			"type": "function"
		},
		{
			"inputs": [
				{
					"internalType": "address",
					"name": "to",
					"type": "address"
				},
				{
					"internalType": "uint256",
					"name": "amount",
					"type": "uint256"
				}
			],
			"name": "mint",
			"outputs": [],
			"stateMutability": "nonpayable",
			"type": "function"
		},
		{
			"inputs": [
				{
					"internalType": "uint256",
					"name": "amount_",
					"type": "uint256"
				}
			],
			"name": "mintLiquidityReserve",
			"outputs": [],
			"stateMutability": "nonpayable",
			"type": "function"
		},
		{
			"inputs": [
				{
					"internalType": "uint256",
					"name": "amount_",
					"type": "uint256"
				}
			],
			"name": "mintStakingReward",
			"outputs": [],
			"stateMutability": "nonpayable",
			"type": "function"
		},
		{
			"inputs": [],
			"name": "name",
			"outputs": [
				{
					"internalType": "string",
					"name": "",
					"type": "string"
				}
			],
			"stateMutability": "view",
			"type": "function"
		},
		{
			"inputs": [],
			"name": "owner",
			"outputs": [
				{
					"internalType": "address",
					"name": "",
					"type": "address"
				}
			],
			"stateMutability": "view",
			"type": "function"
		},
		{
			"inputs": [],
			"name": "private_placement_address",
			"outputs": [
				{
					"internalType": "address",
					"name": "",
					"type": "address"
				}
			],
			"stateMutability": "view",
			"type": "function"
		},
		{
			"inputs": [],
			"name": "renounceOwnership",
			"outputs": [],
			"stateMutability": "nonpayable",
			"type": "function"
		},
		{
			"inputs": [
				{
					"internalType": "uint256",
					"name": "_amount",
					"type": "uint256"
				},
				{
					"internalType": "uint256",
					"name": "_stakePeriod",
					"type": "uint256"
				}
			],
			"name": "stake",
			"outputs": [],
			"stateMutability": "nonpayable",
			"type": "function"
		},
		{
			"inputs": [],
			"name": "stakingReward",
			"outputs": [
				{
					"internalType": "uint256",
					"name": "",
					"type": "uint256"
				}
			],
			"stateMutability": "view",
			"type": "function"
		},
		{
			"inputs": [],
			"name": "startTransferDAOVoting",
			"outputs": [],
			"stateMutability": "nonpayable",
			"type": "function"
		},
		{
			"inputs": [],
			"name": "strategic_partner_address",
			"outputs": [
				{
					"internalType": "address",
					"name": "",
					"type": "address"
				}
			],
			"stateMutability": "view",
			"type": "function"
		},
		{
			"inputs": [],
			"name": "symbol",
			"outputs": [
				{
					"internalType": "string",
					"name": "",
					"type": "string"
				}
			],
			"stateMutability": "view",
			"type": "function"
		},
		{
			"inputs": [],
			"name": "taxFee",
			"outputs": [
				{
					"internalType": "uint8",
					"name": "",
					"type": "uint8"
				}
			],
			"stateMutability": "view",
			"type": "function"
		},
		{
			"inputs": [],
			"name": "timelockController",
			"outputs": [
				{
					"internalType": "address",
					"name": "",
					"type": "address"
				}
			],
			"stateMutability": "view",
			"type": "function"
		},
		{
			"inputs": [],
			"name": "totalSupply",
			"outputs": [
				{
					"internalType": "uint256",
					"name": "",
					"type": "uint256"
				}
			],
			"stateMutability": "view",
			"type": "function"
		},
		{
			"inputs": [
				{
					"internalType": "address",
					"name": "to",
					"type": "address"
				},
				{
					"internalType": "uint256",
					"name": "amount",
					"type": "uint256"
				}
			],
			"name": "transfer",
			"outputs": [
				{
					"internalType": "bool",
					"name": "",
					"type": "bool"
				}
			],
			"stateMutability": "nonpayable",
			"type": "function"
		},
		{
			"inputs": [
				{
					"internalType": "address",
					"name": "to_",
					"type": "address"
				},
				{
					"internalType": "uint256",
					"name": "amount_",
					"type": "uint256"
				}
			],
			"name": "transferDAOPool",
			"outputs": [],
			"stateMutability": "nonpayable",
			"type": "function"
		},
		{
			"inputs": [
				{
					"internalType": "address",
					"name": "from",
					"type": "address"
				},
				{
					"internalType": "address",
					"name": "to",
					"type": "address"
				},
				{
					"internalType": "uint256",
					"name": "amount",
					"type": "uint256"
				}
			],
			"name": "transferFrom",
			"outputs": [
				{
					"internalType": "bool",
					"name": "",
					"type": "bool"
				}
			],
			"stateMutability": "nonpayable",
			"type": "function"
		},
		{
			"inputs": [
				{
					"internalType": "address",
					"name": "newOwner",
					"type": "address"
				}
			],
			"name": "transferOwnership",
			"outputs": [],
			"stateMutability": "nonpayable",
			"type": "function"
		},
		{
			"inputs": [
				{
					"internalType": "uint256",
					"name": "amount_",
					"type": "uint256"
				}
			],
			"name": "transferToDAOPool",
			"outputs": [],
			"stateMutability": "nonpayable",
			"type": "function"
		},
		{
			"inputs": [],
			"name": "vesting_start",
			"outputs": [
				{
					"internalType": "uint256",
					"name": "",
					"type": "uint256"
				}
			],
			"stateMutability": "view",
			"type": "function"
		},
		{
			"inputs": [],
			"name": "withdrawStake",
			"outputs": [],
			"stateMutability": "nonpayable",
			"type": "function"
		},
		{
			"stateMutability": "payable",
			"type": "receive"
		}
	]
}