{
	"data": {
		"bytecode": {
			"linkReferences": {},
			"object": "60806040523480156200001157600080fd5b50604080518082018252600881526754414c415845554d60c01b6020808301918252835180850190945260058452640a8829882b60db1b9084015281519192916200005f91600391620008bb565b50805162000075906004906020840190620008bb565b505050620000926200008c6200082d60201b60201c565b62000831565b6008805460010181556000819052600f60065560506007556a0c24662f3b1cd048600000600b556a0136d704b91c7b3a700000600c556907aa22879aabcfac0000600d556aadb53acfa41aee12000000601155604080518082019091528181526754414c415845554d60c01b6020909101908152620001159160129190620008bb565b50604080518082019091526005808252640a8829882b60db1b60209092019182526200014491601391620008bb565b506016805462ffffff191661010017905560067fef9867886d91bf1143da50ce428e1f46215f4021b2f0bfffcf74746dbdfd256c5560077f399ca0014a9ed906aeb40aaf2ceb9ff256b8a4d52b989e153dca3518a9c19e935560087f20a09e4da24f73438d786725ef869ce0ce064edd982700c47fa5756e0462652c55601780546001600160a01b03199081167307a20dc6722563783e44ba8edca08c774621125e17825560188054821673f09f65dd4d229e991901669ad7c7549f060e30b9179055601980548216731a2118e056d6af192e233c2c9cfb34e067ded1f8179055601a8054821673126974fa373267d86fab6d6871afe62ccb68e810179055601b80548216732f838cf0df38b2e91e747a01ddae5ebad5558b7a179055601c805482167345094071c4daaf6a9a73b0a0f095a2b138bd8a3a179055601d8054821673aeb26fb84d0e2b3b353cd50f0a29fd40c916d2ab179055601e8054821673e61e7a7d16db384433e532fb85724e7f3bdaae2f179055601f8054821673406605eb24a97a2d61b516d8d850f2aefa6a731a179055602080549091167397620deadc98bc8173303686037ce7b986cf53c31781556a0e7cbbd7aa8310ae400000601555306000908152600f90915260408082206a2b6d4eb3e906bb848000009055735470c8ff25ec05980fc7c2967d076b8012298fe79091526a01e92959d60776d7c000007f904d23d904f622ab6bb4c22ae7e8f2ac0ec0ac5396691fc6df9e44f4f8a6a32155905490516a05c8d34a23da1650a00000916001600160a01b03169062000391906200094a565b9182526001600160a01b03166020820152604001604051809103906000f080158015620003c2573d6000803e3d6000fd5b50602180546001600160a01b0319166001600160a01b039283161790556018546040516a1467a6f5a4a6980180000092919091169062000402906200094a565b9182526001600160a01b03166020820152604001604051809103906000f08015801562000433573d6000803e3d6000fd5b50602280546001600160a01b0319166001600160a01b039283161790556019546040516a1467a6f5a4a6980180000092919091169062000473906200094a565b9182526001600160a01b03166020820152604001604051809103906000f080158015620004a4573d6000803e3d6000fd5b50602380546001600160a01b0319166001600160a01b03928316179055601a546040516a1467a6f5a4a69801800000929190911690620004e4906200094a565b9182526001600160a01b03166020820152604001604051809103906000f08015801562000515573d6000803e3d6000fd5b50602480546001600160a01b0319166001600160a01b03928316179055601b546040516a02e5276153cd3fb380000092919091169062000555906200094a565b9182526001600160a01b03166020820152604001604051809103906000f08015801562000586573d6000803e3d6000fd5b50602580546001600160a01b0319166001600160a01b03928316179055601c546040516a02e5276153cd3fb3800000929190911690620005c6906200094a565b9182526001600160a01b03166020820152604001604051809103906000f080158015620005f7573d6000803e3d6000fd5b50602680546001600160a01b0319166001600160a01b03928316179055601d546040516a02e5276153cd3fb380000092919091169062000637906200094a565b9182526001600160a01b03166020820152604001604051809103906000f08015801562000668573d6000803e3d6000fd5b50602780546001600160a01b0319166001600160a01b03928316179055601e546040516a08af7623fb67bf1a800000929190911690620006a8906200094a565b9182526001600160a01b03166020820152604001604051809103906000f080158015620006d9573d6000803e3d6000fd5b50602880546001600160a01b0319166001600160a01b03928316179055601f546040516a08af7623fb67bf1a80000092919091169062000719906200094a565b9182526001600160a01b03166020820152604001604051809103906000f0801580156200074a573d6000803e3d6000fd5b50602980546001600160a01b0319166001600160a01b039283161790556020546040516a08af7623fb67bf1a8000009291909116906200078a906200094a565b9182526001600160a01b03166020820152604001604051809103906000f080158015620007bb573d6000803e3d6000fd5b50602a60006101000a8154816001600160a01b0302191690836001600160a01b03160217905550620008246a8247ec1bbb14328d8000006040518060600160405280603281526020016200631e603291396011546200088360201b620020bf179092919060201c565b60115562000a04565b3390565b600580546001600160a01b038381166001600160a01b0319831681179093556040519116919082907f8be0079c531659141344cd1fd0a4f28419497f9722a3daafe3b4186f6b6457e090600090a35050565b60008184841115620008b35760405162461bcd60e51b8152600401620008aa91906200096f565b60405180910390fd5b505050900390565b828054620008c990620009c7565b90600052602060002090601f016020900481019282620008ed576000855562000938565b82601f106200090857805160ff191683800117855562000938565b8280016001018555821562000938579182015b82811115620009385782518255916020019190600101906200091b565b506200094692915062000958565b5090565b61063c8062005ce283390190565b5b8082111562000946576000815560010162000959565b600060208083528351808285015260005b818110156200099e5785810183015185820160400152820162000980565b81811115620009b1576000604083870101525b50601f01601f1916929092016040019392505050565b600181811c90821680620009dc57607f821691505b60208210811415620009fe57634e487b7160e01b600052602260045260246000fd5b50919050565b6152ce8062000a146000396000f3fe6080604052600436106102e85760003560e01c8063883d998411610190578063a9059cbb116100dc578063d94d4ad611610095578063eb9f4ac71161006f578063eb9f4ac7146108ba578063f1fdf469146108cf578063f2fde38b146108ef578063f729b00f1461090f576102f8565b8063d94d4ad61461084d578063dd62ed3e1461086d578063e73e14bf1461088d576102f8565b8063a9059cbb146107a3578063adf3364c146107c3578063b8b18e89146107e3578063bea8e46b146107f8578063d4dca69b1461081a578063d5dbdf1b1461082d576102f8565b806390a4c7091161014957806396074e701161012357806396074e7014610725578063a071dcf414610745578063a169c51514610763578063a457c2d714610783576102f8565b806390a4c709146106e6578063934851ec146106fb57806395d89b4114610710576102f8565b8063883d9984146106265780638902cd701461063b578063893d20e81461065b5780638b7c64da146106885780638c63f97f146106a85780638da5cb5b146106c8576102f8565b80633f3ef2dc1161024f578063715018a6116102085780637c2412f9116101e25780637c2412f9146105cd5780637cb85214146105e25780638378a875146105fc57806384f3996d14610611576102f8565b8063715018a61461057857806379cc67901461058d5780637b0472f0146105ad576102f8565b80633f3ef2dc146104c357806340c10f19146104d857806342966c68146104f857806356029137146105185780635b88349d1461052d57806370a0823114610542576102f8565b806319ca147d116102a157806319ca147d146103c657806323b872dd1461041f578063313ce5671461043f578063395093511461045b5780633b124fe71461047b5780633dc10ad4146104ae576102f8565b806306f200bd1461030157806306fdde031461032a578063095ea7b31461034c5780630e1b09ed1461037c57806315441bb91461039c57806318160ddd146103b1576102f8565b366102f8576102f63461092f565b005b6102f63461092f565b34801561030d57600080fd5b5061031760155481565b6040519081526020015b60405180910390f35b34801561033657600080fd5b5061033f6109ee565b6040516103219190614d79565b34801561035857600080fd5b5061036c610367366004614de3565b610a80565b6040519015158152602001610321565b34801561038857600080fd5b506102f6610397366004614e0f565b610a9a565b3480156103a857600080fd5b506102f6610b84565b3480156103bd57600080fd5b50601154610317565b3480156103d257600080fd5b506103db610ce5565b6040516103219190600060a0820190508251825260208301516020830152604083015115156040830152606083015160608301526080830151608083015292915050565b34801561042b57600080fd5b5061036c61043a366004614e28565b610df3565b34801561044b57600080fd5b5060405160128152602001610321565b34801561046757600080fd5b5061036c610476366004614de3565b610e17565b34801561048757600080fd5b5060165461049b90610100900461ffff1681565b60405161ffff9091168152602001610321565b3480156104ba57600080fd5b50600654610317565b3480156104cf57600080fd5b506102f6610e39565b3480156104e457600080fd5b506102f66104f3366004614de3565b610efc565b34801561050457600080fd5b506102f6610513366004614e0f565b610f34565b34801561052457600080fd5b506102f6610f41565b34801561053957600080fd5b506102f6611004565b34801561054e57600080fd5b5061031761055d366004614e69565b6001600160a01b03166000908152600f602052604090205490565b34801561058457600080fd5b506102f66110b0565b34801561059957600080fd5b506102f66105a8366004614de3565b6110e6565b3480156105b957600080fd5b506102f66105c8366004614e86565b6110fb565b3480156105d957600080fd5b506102f6611246565b3480156105ee57600080fd5b5060165461036c9060ff1681565b34801561060857600080fd5b506102f6611251565b34801561061d57600080fd5b506102f6611314565b34801561063257600080fd5b506102f66113d7565b34801561064757600080fd5b506102f6610656366004614ea8565b61149a565b34801561066757600080fd5b50610670611523565b6040516001600160a01b039091168152602001610321565b34801561069457600080fd5b506102f66106a3366004614e0f565b61153c565b3480156106b457600080fd5b506102f66106c3366004614e0f565b611610565b3480156106d457600080fd5b506005546001600160a01b0316610670565b3480156106f257600080fd5b506102f6611643565b34801561070757600080fd5b506102f6611706565b34801561071c57600080fd5b5061033f6117c9565b34801561073157600080fd5b506102f6610740366004614de3565b6117d8565b34801561075157600080fd5b50601654610100900461ffff16610317565b34801561076f57600080fd5b506102f661077e366004614e0f565b611875565b34801561078f57600080fd5b5061036c61079e366004614de3565b611929565b3480156107af57600080fd5b5061036c6107be366004614de3565b6119a4565b3480156107cf57600080fd5b506102f66107de366004614ecc565b6119b2565b3480156107ef57600080fd5b506102f6611a27565b34801561080457600080fd5b50306000908152600f6020526040902054610317565b34801561082657600080fd5b5030610670565b34801561083957600080fd5b506102f6610848366004614e0f565b611aea565b34801561085957600080fd5b506102f6610868366004614e0f565b611b1d565b34801561087957600080fd5b50610317610888366004614eee565b611bc8565b34801561089957600080fd5b506108ad6108a8366004614e69565b611bf3565b6040516103219190614f27565b3480156108c657600080fd5b506102f6611dfc565b3480156108db57600080fd5b506102f66108ea366004614e86565b611ebf565b3480156108fb57600080fd5b506102f661090a366004614e69565b611f74565b34801561091b57600080fd5b506102f661092a366004614e0f565b61200c565b600061093c8260036120eb565b601e546001600160a01b03166000908152600f602052604090205490915061096490826120fe565b601e546001600160a01b039081166000908152600f602052604080822093909355601f549091168152205461099990826120fe565b601f546001600160a01b039081166000908152600f602090815260408083209490945554909116815220546109ce90826120fe565b602080546001600160a01b03166000908152600f90915260409020555050565b6060601280546109fd90614fc7565b80601f0160208091040260200160405190810160405280929190818152602001828054610a2990614fc7565b8015610a765780601f10610a4b57610100808354040283529160200191610a76565b820191906000526020600020905b815481529060010190602001808311610a5957829003601f168201915b5050505050905090565b600033610a8e81858561210a565b60019150505b92915050565b6005546001600160a01b03163314610acd5760405162461bcd60e51b8152600401610ac490615002565b60405180910390fd5b6015548110610b3a5760405162461bcd60e51b815260206004820152603360248201527f54616c6178546f6b656e3a20416d6f756e74206275726e74206c6172676572206044820152721d1a185b8814dd185ada5b99c814995dd85c99606a1b6064820152608401610ac4565b601554610b47908261222f565b601555601154610b57908261222f565b6011556040518181526000903090600080516020615279833981519152906020015b60405180910390a350565b602660009054906101000a90046001600160a01b03166001600160a01b03166338af3eed6040518163ffffffff1660e01b8152600401602060405180830381865afa158015610bd7573d6000803e3d6000fd5b505050506040513d601f19601f82011682018060405250810190610bfb9190615037565b6001600160a01b0316336001600160a01b031614610c2b5760405162461bcd60e51b8152600401610ac490615054565b6026546000906001600160a01b031663e7d88c42610c4761223b565b6040518263ffffffff1660e01b8152600401610c63919061508b565b6020604051808303816000875af1158015610c82573d6000803e3d6000fd5b505050506040513d601f19601f82011682018060405250810190610ca691906150bd565b9050610cd281600f6000335b6001600160a01b03168152602081019190915260400160002054906120fe565b336000908152600f602052604090205550565b610d196040518060a00160405280600081526020016000815260200160001515815260200160008152602001600081525090565b336000908152600e6020526040902060010154610d9e5760405162461bcd60e51b815260206004820152603a60248201527f4d756c74696c6f636b61626c653a20596f7520646f6e2774206861766520616e60448201527f792062616c616e636520666f7220707269766174652073616c650000000000006064820152608401610ac4565b50336000908152600e6020908152604091829020825160a08101845281548152600182015492810192909252600281015460ff1615159282019290925260038201546060820152600490910154608082015290565b600033610e0185828561278c565b610e0c858585612806565b506001949350505050565b600033610a8e818585610e2a8383611bc8565b610e3491906150ec565b61210a565b602a60009054906101000a90046001600160a01b03166001600160a01b03166338af3eed6040518163ffffffff1660e01b8152600401602060405180830381865afa158015610e8c573d6000803e3d6000fd5b505050506040513d601f19601f82011682018060405250810190610eb09190615037565b6001600160a01b0316336001600160a01b031614610ee05760405162461bcd60e51b8152600401610ac490615054565b602a546000906001600160a01b031663e7d88c42610c47612b43565b6005546001600160a01b03163314610f265760405162461bcd60e51b8152600401610ac490615002565b610f308282612f9c565b5050565b610f3e3382613069565b50565b602860009054906101000a90046001600160a01b03166001600160a01b03166338af3eed6040518163ffffffff1660e01b8152600401602060405180830381865afa158015610f94573d6000803e3d6000fd5b505050506040513d601f19601f82011682018060405250810190610fb89190615037565b6001600160a01b0316336001600160a01b031614610fe85760405162461bcd60e51b8152600401610ac490615054565b6028546000906001600160a01b031663e7d88c42610c47612b43565b60165460ff1615156001146110675760405162461bcd60e51b8152602060048201526024808201527f54616c6178546f6b656e3a2041697264726f70206973206e6f7420617661696c60448201526361626c6560e01b6064820152608401610ac4565b60006110723361319d565b306000908152600f602052604090205490915061108f908261222f565b306000908152600f60208190526040822092909255610cd291839133610cb2565b6005546001600160a01b031633146110da5760405162461bcd60e51b8152600401610ac490615002565b6110e46000613376565b565b6110f182338361278c565b610f308282613069565b8062278d00148061110e5750806276a700145b8061111b57508062ed4e00145b806111295750806301e13380145b6111815760405162461bcd60e51b8152602060048201526024808201527f54616c6178546f6b656e3a205374616b696e67206f7074696f6e206e6f7420656044820152631e1a5cdd60e21b6064820152608401610ac4565b336000908152600f602052604090205482106111f25760405162461bcd60e51b815260206004820152602a60248201527f54616c6178546f6b656e3a2043616e6e6f74207374616b65206d6f7265207468604482015269616e2062616c616e636560b01b6064820152608401610ac4565b60008181526014602052604090205461120e90839083906133c8565b6112183383613069565b306000908152600f602052604090205461123290836120fe565b306000908152600f60205260409020555050565b6000610ca633613575565b602560009054906101000a90046001600160a01b03166001600160a01b03166338af3eed6040518163ffffffff1660e01b8152600401602060405180830381865afa1580156112a4573d6000803e3d6000fd5b505050506040513d601f19601f820116820180604052508101906112c89190615037565b6001600160a01b0316336001600160a01b0316146112f85760405162461bcd60e51b8152600401610ac490615054565b6025546000906001600160a01b031663e7d88c42610c4761223b565b602460009054906101000a90046001600160a01b03166001600160a01b03166338af3eed6040518163ffffffff1660e01b8152600401602060405180830381865afa158015611367573d6000803e3d6000fd5b505050506040513d601f19601f8201168201806040525081019061138b9190615037565b6001600160a01b0316336001600160a01b0316146113bb5760405162461bcd60e51b8152600401610ac490615054565b6024546000906001600160a01b031663e7d88c42610c476136b5565b602760009054906101000a90046001600160a01b03166001600160a01b03166338af3eed6040518163ffffffff1660e01b8152600401602060405180830381865afa15801561142a573d6000803e3d6000fd5b505050506040513d601f19601f8201168201806040525081019061144e9190615037565b6001600160a01b0316336001600160a01b03161461147e5760405162461bcd60e51b8152600401610ac490615054565b6027546000906001600160a01b031663e7d88c42610c4761223b565b6005546001600160a01b031633146114c45760405162461bcd60e51b8152600401610ac490615002565b6016805462ffff00191661010061ffff8416021790553360405161ffff831681526001600160a01b0391909116907fdf92943b31fff67e8447ff9fa8b5e226ddcc5fb34d36cfe120c0f2b96eb8d6f7906020015b60405180910390a250565b60006115376005546001600160a01b031690565b905090565b6005546001600160a01b031633146115665760405162461bcd60e51b8152600401610ac490615002565b306000908152600f602052604090205481106115d95760405162461bcd60e51b815260206004820152602c60248201527f54616c6178546f6b656e3a20416d6f756e74206275726e74206c61726765722060448201526b7468616e2062616c616e636560a01b6064820152608401610ac4565b306000908152600f60205260409020546115f3908261222f565b306000908152600f6020526040902055601154610b57908261222f565b6005546001600160a01b0316331461163a5760405162461bcd60e51b8152600401610ac490615002565b610f3e81613b5a565b602960009054906101000a90046001600160a01b03166001600160a01b03166338af3eed6040518163ffffffff1660e01b8152600401602060405180830381865afa158015611696573d6000803e3d6000fd5b505050506040513d601f19601f820116820180604052508101906116ba9190615037565b6001600160a01b0316336001600160a01b0316146116ea5760405162461bcd60e51b8152600401610ac490615054565b6029546000906001600160a01b031663e7d88c42610c47612b43565b602160009054906101000a90046001600160a01b03166001600160a01b03166338af3eed6040518163ffffffff1660e01b8152600401602060405180830381865afa158015611759573d6000803e3d6000fd5b505050506040513d601f19601f8201168201806040525081019061177d9190615037565b6001600160a01b0316336001600160a01b0316146117ad5760405162461bcd60e51b8152600401610ac490615054565b6021546000906001600160a01b031663e7d88c42610c47613bfe565b6060601380546109fd90614fc7565b6005546001600160a01b031633146118025760405162461bcd60e51b8152600401610ac490615002565b6000811161186b5760405162461bcd60e51b815260206004820152603060248201527f54616c6178546f6b656e3a2043616e6e6f74206164642062656e65666963696160448201526f1c9e481dda5d1a080c08185b5bdd5b9d60821b6064820152608401610ac4565b610f308282613f9a565b6005546001600160a01b0316331461189f5760405162461bcd60e51b8152600401610ac490615002565b806118e65760405162461bcd60e51b81526020600482015260176024820152760416d6f756e74206d696e742063616e6e6f74206265203604c1b6044820152606401610ac4565b6015546118f390826120fe565b60155560115461190390826120fe565b601155604051818152309060009060008051602061527983398151915290602001610b79565b600033816119378286611bc8565b9050838110156119975760405162461bcd60e51b815260206004820152602560248201527f45524332303a2064656372656173656420616c6c6f77616e63652062656c6f77604482015264207a65726f60d81b6064820152608401610ac4565b610e0c828686840361210a565b600033610a8e818585612806565b6005546001600160a01b031633146119dc5760405162461bcd60e51b8152600401610ac490615002565b6016805460ff1916821515179055336001600160a01b03167fe596a4fd4ba2e7f54093d98b96267c6b0dbae1e317bed8123d9fbc868c02837782604051611518911515815260200190565b602260009054906101000a90046001600160a01b03166001600160a01b03166338af3eed6040518163ffffffff1660e01b8152600401602060405180830381865afa158015611a7a573d6000803e3d6000fd5b505050506040513d601f19601f82011682018060405250810190611a9e9190615037565b6001600160a01b0316336001600160a01b031614611ace5760405162461bcd60e51b8152600401610ac490615054565b6022546000906001600160a01b031663e7d88c42610c476136b5565b6005546001600160a01b03163314611b145760405162461bcd60e51b8152600401610ac490615002565b610f3e816140f7565b6005546001600160a01b03163314611b475760405162461bcd60e51b8152600401610ac490615002565b60008111611b915760405162461bcd60e51b81526020600482015260176024820152760416d6f756e74206d696e742063616e6e6f74206265203604c1b6044820152606401610ac4565b306000908152600f6020526040902054611bab90826120fe565b306000908152600f602052604090205560115461190390826120fe565b6001600160a01b03918216600090815260106020908152604080832093909416825291909152205490565b604080518082019091526000815260606020820152600080604051806040016040528060008152602001600860096000886001600160a01b03166001600160a01b031681526020019081526020016000205481548110611c5557611c55615104565b9060005260206000209060030201600201805480602002602001604051908101604052809291908181526020016000905b82821015611d015760008481526020908190206040805160e0810182526007860290920180546001600160a01b03168352600180820154848601526002820154928401929092526003810154606084015260048101546080840152600581015460a08401526006015460c08301529083529092019101611c86565b505050915250602081015151909150611d2c5760405162461bcd60e51b8152600401610ac49061511a565b60005b816020015151811015611df2576000611d8683602001518381518110611d5757611d57615104565b602002602001015184602001518481518110611d7557611d75615104565b60200260200101516020015161419c565b90508083602001518381518110611d9f57611d9f615104565b6020026020010151606001818152505082602001518281518110611dc557611dc5615104565b60200260200101516020015184611ddc91906150ec565b9350611deb90506001826150ec565b9050611d2f565b5090815292915050565b602360009054906101000a90046001600160a01b03166001600160a01b03166338af3eed6040518163ffffffff1660e01b8152600401602060405180830381865afa158015611e4f573d6000803e3d6000fd5b505050506040513d601f19601f82011682018060405250810190611e739190615037565b6001600160a01b0316336001600160a01b031614611ea35760405162461bcd60e51b8152600401610ac490615054565b6023546000906001600160a01b031663e7d88c42610c476136b5565b600080611ecc84846141ef565b91509150611ed981611b1d565b306000908152600f6020526040902054611ef3908361222f565b306000908152600f60205260409020819055611f0f908261222f565b306000908152600f6020526040902055611f2981836150ec565b60116000828254611f3a91906150ec565b90915550611f4a905081836150ec565b336000908152600f602052604081208054909190611f699084906150ec565b909155505050505050565b6005546001600160a01b03163314611f9e5760405162461bcd60e51b8152600401610ac490615002565b6001600160a01b0381166120035760405162461bcd60e51b815260206004820152602660248201527f4f776e61626c653a206e6577206f776e657220697320746865207a65726f206160448201526564647265737360d01b6064820152608401610ac4565b610f3e81613376565b60008061201883614685565b9150915061202581611b1d565b306000908152600f602052604090205461203f908361222f565b306000908152600f6020526040902081905561205b908261222f565b306000908152600f602052604090205561207581836150ec565b6011600082825461208691906150ec565b90915550612096905081836150ec565b336000908152600f6020526040812080549091906120b59084906150ec565b9091555050505050565b600081848411156120e35760405162461bcd60e51b8152600401610ac49190614d79565b505050900390565b60006120f7828461517f565b9392505050565b60006120f782846150ec565b6001600160a01b03831661216c5760405162461bcd60e51b8152602060048201526024808201527f45524332303a20617070726f76652066726f6d20746865207a65726f206164646044820152637265737360e01b6064820152608401610ac4565b6001600160a01b0382166121cd5760405162461bcd60e51b815260206004820152602260248201527f45524332303a20617070726f766520746f20746865207a65726f206164647265604482015261737360f01b6064820152608401610ac4565b6001600160a01b0383811660008181526001602090815260408083209487168084529482529182902085905590518481527f8c5be1e5ebec7d5bd14f71427d1e84f3dd0314c0f7b2291e5b200ac8c7c3b92591015b60405180910390a3505050565b60006120f782846151a1565b612243614d5a565b604051806106e00160405280612263615573670de0b6b3a7640000614905565b815260200161227c615573670de0b6b3a7640000614905565b8152602001612295615573670de0b6b3a7640000614905565b81526020016122ae615573670de0b6b3a7640000614905565b81526020016122c7615573670de0b6b3a7640000614905565b81526020016122e0615573670de0b6b3a7640000614905565b81526020016122f9615573670de0b6b3a7640000614905565b8152602001612312615573670de0b6b3a7640000614905565b815260200161232b615573670de0b6b3a7640000614905565b8152602001612344615573670de0b6b3a7640000614905565b815260200161235d615573670de0b6b3a7640000614905565b8152602001612376615573670de0b6b3a7640000614905565b815260200161238f615573670de0b6b3a7640000614905565b81526020016123a8615573670de0b6b3a7640000614905565b81526020016123c1615573670de0b6b3a7640000614905565b81526020016123da615573670de0b6b3a7640000614905565b81526020016123f4620155cc670de0b6b3a7640000614905565b815260200161240e620155cc670de0b6b3a7640000614905565b8152602001612428620155cc670de0b6b3a7640000614905565b8152602001612442620155cc670de0b6b3a7640000614905565b815260200161245c620155cc670de0b6b3a7640000614905565b8152602001612476620155cc670de0b6b3a7640000614905565b8152602001612490620155cc670de0b6b3a7640000614905565b81526020016124aa620155cc670de0b6b3a7640000614905565b81526020016124c4620155cc670de0b6b3a7640000614905565b81526020016124de620155cc670de0b6b3a7640000614905565b81526020016124f8620155cc670de0b6b3a7640000614905565b8152602001612512620155cc670de0b6b3a7640000614905565b815260200161252c620155cc670de0b6b3a7640000614905565b8152602001612546620155cc670de0b6b3a7640000614905565b8152602001612560620155cc670de0b6b3a7640000614905565b815260200161257a620155cc670de0b6b3a7640000614905565b8152602001612594620155cc670de0b6b3a7640000614905565b81526020016125ae620155cc670de0b6b3a7640000614905565b81526020016125c8620155cc670de0b6b3a7640000614905565b81526020016125e2620155cc670de0b6b3a7640000614905565b81526020016125fc620155cc670de0b6b3a7640000614905565b8152602001612616620155cc670de0b6b3a7640000614905565b8152602001612630620155cc670de0b6b3a7640000614905565b815260200161264a620155cc670de0b6b3a7640000614905565b8152602001612664620155cc670de0b6b3a7640000614905565b815260200161267e620155cc670de0b6b3a7640000614905565b8152602001612698620155cc670de0b6b3a7640000614905565b81526020016126b2620155cc670de0b6b3a7640000614905565b81526020016126cc620155cc670de0b6b3a7640000614905565b81526020016126e6620155cc670de0b6b3a7640000614905565b8152602001612700620155cc670de0b6b3a7640000614905565b815260200161271a620155cc670de0b6b3a7640000614905565b8152602001612734620155cc670de0b6b3a7640000614905565b815260200161274e620155cc670de0b6b3a7640000614905565b8152602001612768620155cc670de0b6b3a7640000614905565b81526020016000815260200160008152602001600081526020016000815250905090565b60006127988484611bc8565b9050600019811461280057818110156127f35760405162461bcd60e51b815260206004820152601d60248201527f45524332303a20696e73756666696369656e7420616c6c6f77616e63650000006044820152606401610ac4565b612800848484840361210a565b50505050565b6001600160a01b03831661285c5760405162461bcd60e51b815260206004820152601d60248201527f54616c6178546f6b656e3a2066726f6d207a65726f20616464726573730000006044820152606401610ac4565b6001600160a01b0382166128b25760405162461bcd60e51b815260206004820152601b60248201527f54616c6178546f6b656e3a20746f207a65726f206164647265737300000000006044820152606401610ac4565b6001600160a01b0383166000908152600f60205260409020548181101561292f5760405162461bcd60e51b815260206004820152602b60248201527f54616c6178546f6b656e3a207472616e7366657220616d6f756e74206578636560448201526a6564732062616c616e636560a81b6064820152608401610ac4565b6016546000906129549061294d908590610100900461ffff16614905565b60646120eb565b90506000612962848361222f565b9050600061298561297e836129796002600a6120eb565b614905565b60036120eb565b90506000612999836129796008600a6120eb565b601e546001600160a01b03166000908152600f60205260409020549091506129c190836120fe565b601e546001600160a01b039081166000908152600f602052604080822093909355601f54909116815220546129f690836120fe565b601f546001600160a01b039081166000908152600f60209081526040808320949094555490911681522054612a2b90836120fe565b602080546001600160a01b03166000908152600f9091526040808220929092553081522054612a5a90826120fe565b600f6000306001600160a01b03166001600160a01b0316815260200190815260200160002081905550612ac086604051806060016040528060248152602001615255602491396001600160a01b038b166000908152600f602052604090205491906120bf565b6001600160a01b03808a166000908152600f60205260408082209390935590891681522054612aef90846120fe565b6001600160a01b038089166000818152600f602052604090819020939093559151908a169060008051602061527983398151915290612b319087815260200190565b60405180910390a35050505050505050565b612b4b614d5a565b604051806106e00160405280612b6c62019a28670de0b6b3a7640000614905565b8152602001600081526020016000815260200160008152602001612b9b6204ce78670de0b6b3a7640000614905565b8152602001600081526020016000815260200160008152602001612bca6204ce78670de0b6b3a7640000614905565b8152602001600081526020016000815260200160008152602001612bf96204ce78670de0b6b3a7640000614905565b8152602001600081526020016000815260200160008152602001612c2862040164670de0b6b3a7640000614905565b8152602001612c4262040164670de0b6b3a7640000614905565b8152602001612c5c62040164670de0b6b3a7640000614905565b8152602001612c7662040164670de0b6b3a7640000614905565b8152602001612c9062040164670de0b6b3a7640000614905565b8152602001612caa62040164670de0b6b3a7640000614905565b8152602001612cc462040164670de0b6b3a7640000614905565b8152602001612cde62040164670de0b6b3a7640000614905565b8152602001612cf862040164670de0b6b3a7640000614905565b8152602001612d1262040164670de0b6b3a7640000614905565b8152602001612d2c62040164670de0b6b3a7640000614905565b8152602001612d4662040164670de0b6b3a7640000614905565b8152602001612d6062040164670de0b6b3a7640000614905565b8152602001612d7a62040164670de0b6b3a7640000614905565b8152602001612d9462040164670de0b6b3a7640000614905565b8152602001612dae62040164670de0b6b3a7640000614905565b8152602001612dc862040164670de0b6b3a7640000614905565b8152602001612de262040164670de0b6b3a7640000614905565b8152602001612dfc62040164670de0b6b3a7640000614905565b8152602001612e1662040164670de0b6b3a7640000614905565b8152602001612e3062040164670de0b6b3a7640000614905565b8152602001612e4a62040164670de0b6b3a7640000614905565b8152602001612e6462040164670de0b6b3a7640000614905565b8152602001612e7e62040164670de0b6b3a7640000614905565b8152602001612e9862040164670de0b6b3a7640000614905565b8152602001612eb262040164670de0b6b3a7640000614905565b8152602001612ecc62040164670de0b6b3a7640000614905565b8152602001612ee662040164670de0b6b3a7640000614905565b8152602001612f0062040164670de0b6b3a7640000614905565b8152602001612f1a62040164670de0b6b3a7640000614905565b8152602001612f3462040164670de0b6b3a7640000614905565b8152602001612f4e62040164670de0b6b3a7640000614905565b8152602001612f6862040164670de0b6b3a7640000614905565b8152602001612f8262040164670de0b6b3a7640000614905565b815260200161276862040164670de0b6b3a7640000614905565b6001600160a01b038216612ff25760405162461bcd60e51b815260206004820152601f60248201527f45524332303a206d696e7420746f20746865207a65726f2061646472657373006044820152606401610ac4565b806002600082825461300491906150ec565b90915550506001600160a01b038216600090815260208190526040812080548392906130319084906150ec565b90915550506040518181526001600160a01b038316906000906000805160206152798339815191529060200160405180910390a35050565b6001600160a01b0382166130c95760405162461bcd60e51b815260206004820152602160248201527f45524332303a206275726e2066726f6d20746865207a65726f206164647265736044820152607360f81b6064820152608401610ac4565b6001600160a01b0382166000908152600f60205260409020548181101561313d5760405162461bcd60e51b815260206004820152602260248201527f45524332303a206275726e20616d6f756e7420657863656564732062616c616e604482015261636560f01b6064820152608401610ac4565b6001600160a01b0383166000908152600f6020526040812083830390556011805484929061316c9084906151a1565b90915550506040518281526000906001600160a01b0385169060008051602061527983398151915290602001612222565b6001600160a01b03811660009081526009602052604081205460088054839283929181106131cd576131cd615104565b9060005260206000209060030201905060006131fc62093a808360010154426131f691906151a1565b906120eb565b905060018110156132755760405162461bcd60e51b815260206004820152603960248201527f5374616b61626c653a2041697264726f702063616e206f6e6c7920626520636c60448201527f61696d656420696e2061206d6f6e74682074696d657370616e000000000000006064820152608401610ac4565b60028201546132965760405162461bcd60e51b8152600401610ac49061511a565b60005b60028301548110156133675760008360020182815481106132bc576132bc615104565b906000526020600020906007020160010154116132d857613355565b600060646007548560020184815481106132f4576132f4615104565b90600052602060002090600702016001015461331091906151b8565b61331a919061517f565b905061332681866150ec565b94508084600201838154811061333e5761333e615104565b906000526020600020906007020160040181905550505b8061335f816151d7565b915050613299565b50504260019091015592915050565b600580546001600160a01b038381166001600160a01b0319831681179093556040519116919082907f8be0079c531659141344cd1fd0a4f28419497f9722a3daafe3b4186f6b6457e090600090a35050565b600083116134185760405162461bcd60e51b815260206004820152601e60248201527f5374616b61626c653a2043616e6e6f74207374616b65206e6f7468696e6700006044820152606401610ac4565b33600090815260096020526040902054428161343a5761343733614911565b91505b6008828154811061344d5761344d615104565b90600052602060002090600302016002016040518060e00160405280336001600160a01b03168152602001878152602001838152602001600081526020016000815260200185815260200183876134a491906150ec565b90528154600180820184556000938452602093849020835160079093020180546001600160a01b0319166001600160a01b03909316929092178255928201519281019290925560408101516002830155606081015160038301556080810151600483015560a0810151600583015560c00151600690910155337f9cfd25589d1eb8ad71e342a86a8524e83522e3936c0803048c08f6d9ad974f4086848461354b818a6150ec565b60408051948552602085019390935291830152606082015260800160405180910390a25050505050565b6001600160a01b0381166000908152600e60205260408120600101546135dd5760405162461bcd60e51b815260206004820152601d60248201527f4d756c74696c6f636b61626c653a206e6f20746f6b656e73206c6566740000006044820152606401610ac4565b60006135e8836149c3565b9050600081116136465760405162461bcd60e51b815260206004820152602360248201527f4d756c74696c6f636b61626c653a206e6f20746f6b656e7320746f2072656c6560448201526261736560e81b6064820152608401610ac4565b613691600e6000856001600160a01b03166001600160a01b0316815260200190815260200160002060010154826040518060600160405280603b815260200161521a603b91396120bf565b6001600160a01b039093166000908152600e60205260409020600101929092555090565b6136bd614d5a565b604051806106e00160405280600081526020016000815260200160008152602001600081526020016000815260200160008152602001600081526020016000815260200161371662025a3f670de0b6b3a7640000614905565b815260200161373062025a3f670de0b6b3a7640000614905565b815260200161374a62025a3f670de0b6b3a7640000614905565b815260200161376462025a3f670de0b6b3a7640000614905565b815260200161377e62025a3f670de0b6b3a7640000614905565b815260200161379862025a3f670de0b6b3a7640000614905565b81526020016137b262025a3f670de0b6b3a7640000614905565b81526020016137cc62025a3f670de0b6b3a7640000614905565b81526020016137e66209eed1670de0b6b3a7640000614905565b81526020016138006209eed1670de0b6b3a7640000614905565b815260200161381a6209eed1670de0b6b3a7640000614905565b81526020016138346209eed1670de0b6b3a7640000614905565b815260200161384e6209eed1670de0b6b3a7640000614905565b81526020016138686209eed1670de0b6b3a7640000614905565b81526020016138826209eed1670de0b6b3a7640000614905565b815260200161389c6209eed1670de0b6b3a7640000614905565b81526020016138b66209eed1670de0b6b3a7640000614905565b81526020016138d06209eed1670de0b6b3a7640000614905565b81526020016138ea6209eed1670de0b6b3a7640000614905565b81526020016139046209eed1670de0b6b3a7640000614905565b815260200161391e6209eed1670de0b6b3a7640000614905565b81526020016139386209eed1670de0b6b3a7640000614905565b81526020016139526209eed1670de0b6b3a7640000614905565b815260200161396c6209eed1670de0b6b3a7640000614905565b81526020016139866209eed1670de0b6b3a7640000614905565b81526020016139a06209eed1670de0b6b3a7640000614905565b81526020016139ba6209eed1670de0b6b3a7640000614905565b81526020016139d46209eed1670de0b6b3a7640000614905565b81526020016139ee6209eed1670de0b6b3a7640000614905565b8152602001613a086209eed1670de0b6b3a7640000614905565b8152602001613a226209eed1670de0b6b3a7640000614905565b8152602001613a3c6209eed1670de0b6b3a7640000614905565b8152602001613a566209eed1670de0b6b3a7640000614905565b8152602001613a706209eed1670de0b6b3a7640000614905565b8152602001613a8a6209eed1670de0b6b3a7640000614905565b8152602001613aa46209eed1670de0b6b3a7640000614905565b8152602001613abe6209eed1670de0b6b3a7640000614905565b8152602001613ad86209eed1670de0b6b3a7640000614905565b8152602001613af26209eed1670de0b6b3a7640000614905565b8152602001613b0c6209eed1670de0b6b3a7640000614905565b8152602001613b266209eed1670de0b6b3a7640000614905565b8152602001613b406209eed1670de0b6b3a7640000614905565b81526020016127686209eed1670de0b6b3a7640000614905565b601e811115613bc25760405162461bcd60e51b815260206004820152602e60248201527f5374616b61626c653a2050656e616c7479206665652063616e6e6f742065786360448201526d32b2b21019903832b931b2b73a1760911b6064820152608401610ac4565b60068190556040518181527fcfa4f4cf1cd64d13a167a8e75605e0c0c9d6700e903d17c5dc11f593254a04a9906020015b60405180910390a150565b613c06614d5a565b604051806106e00160405280613c2661aaba670de0b6b3a7640000614905565b8152602001613c3f61aaba670de0b6b3a7640000614905565b8152602001613c5861aaba670de0b6b3a7640000614905565b8152602001613c7161aaba670de0b6b3a7640000614905565b8152602001613c8a61aaba670de0b6b3a7640000614905565b8152602001613ca361aaba670de0b6b3a7640000614905565b8152602001613cbc61aaba670de0b6b3a7640000614905565b8152602001613cd561aaba670de0b6b3a7640000614905565b8152602001613cee61aaba670de0b6b3a7640000614905565b8152602001613d0761aaba670de0b6b3a7640000614905565b8152602001613d2061aaba670de0b6b3a7640000614905565b8152602001613d3961aaba670de0b6b3a7640000614905565b8152602001613d5261aaba670de0b6b3a7640000614905565b8152602001613d6b61aaba670de0b6b3a7640000614905565b8152602001613d8461aaba670de0b6b3a7640000614905565b8152602001613d9d61aaba670de0b6b3a7640000614905565b8152602001613db7620800bb670de0b6b3a7640000614905565b8152602001613dd1620800bb670de0b6b3a7640000614905565b8152602001613deb620800bb670de0b6b3a7640000614905565b8152602001613e05620800bb670de0b6b3a7640000614905565b8152602001613e1f620800bb670de0b6b3a7640000614905565b8152602001613e39620800bb670de0b6b3a7640000614905565b8152602001613e53620800bb670de0b6b3a7640000614905565b8152602001613e6d620800bb670de0b6b3a7640000614905565b8152602001613e87620800bb670de0b6b3a7640000614905565b8152602001613ea1620800bb670de0b6b3a7640000614905565b8152602001613ebb620800bb670de0b6b3a7640000614905565b8152602001613ed5620800bb670de0b6b3a7640000614905565b815260200160008152602001600081526020016000815260200160008152602001600081526020016000815260200160008152602001600081526020016000815260200160008152602001600081526020016000815260200160008152602001600081526020016000815260200160008152602001600081526020016000815260200160008152602001600081526020016000815260200160008152602001600081526020016000815260200160008152602001600081526020016000815250905090565b600b548111156140085760405162461bcd60e51b815260206004820152603360248201527f4d756c74696c6f636b61626c653a206e6f7420656e6f7567682062616c616e6360448201527232903a379030b2321030903732bb903ab9b2b960691b6064820152608401610ac4565b6001600160a01b0382166000908152600e6020526040902060010154156140855760405162461bcd60e51b815260206004820152602b60248201527f4d756c74696c6f636b61626c653a2054686973207573657220616c726561647960448201526a081c9959da5cdd195c995960aa1b6064820152608401610ac4565b6001600160a01b0382166000908152600e60205260408120828155600180820184905560028201805460ff191690554260038301556004909101819055600a8054919290916140d59084906150ec565b9250508190555080600b60008282546140ee91906151a1565b90915550505050565b60c88111156141675760405162461bcd60e51b815260206004820152603660248201527f5374616b61626c653a2041697264726f702050657263656e746167652063616e6044820152753737ba1032bc31b2b2b2101918103832b931b2b73a1760511b6064820152608401610ac4565b60078190556040518181527fcc672f1026b958c0cfbfdd89ebe8ddcbc127f16ec24da6c2c7a4de26a8b1857e90602001613bf3565b60008260200151600014156141b357506000610a94565b6a52b7d2dcc80cd2e40000006141cc8460400151614c3a565b60a08501516141db90856151b8565b6141e591906151b8565b6120f7919061517f565b336000908152600960205260408120546008805483929183918390811061421857614218615104565b9060005260206000209060030201600201858154811061423a5761423a615104565b9060005260206000209060070201905085816001015410156142ba5760405162461bcd60e51b815260206004820152603360248201527f5374616b61626c653a2043616e6e6f74207769746864726177206d6f726520746044820152721a185b881e5bdd481a185d99481cdd185ad959606a1b6064820152608401610ac4565b6040805160e08101825282546001600160a01b03168152600183015460208201526002830154918101919091526003820154606082015260048201546080820152600582015460a0820152600682015460c082015260009061431c908861419c565b905060008260020154836006015461433491906151a1565b905042836006015411156144e7578783600101600082825461435691906151a1565b909155505060018301546143e2576008848154811061437757614377615104565b9060005260206000209060030201600201878154811061439957614399615104565b60009182526020822060079091020180546001600160a01b03191681556001810182905560028101829055600381018290556004810182905560058101829055600601556144d0565b8260010154600885815481106143fa576143fa615104565b9060005260206000209060030201600201888154811061441c5761441c615104565b906000526020600020906007020160010181905550426008858154811061444557614445615104565b9060005260206000209060030201600201888154811061446757614467615104565b600091825260209091206002600790920201015561448581426150ec565b6008858154811061449857614498615104565b906000526020600020906003020160020188815481106144ba576144ba615104565b9060005260206000209060070201600601819055505b6144da8883614ccf565b955095505050505061467e565b878360010160008282546144fb91906151a1565b90915550506001830154614587576008848154811061451c5761451c615104565b9060005260206000209060030201600201878154811061453e5761453e615104565b60009182526020822060079091020180546001600160a01b0319168155600181018290556002810182905560038101829055600481018290556005810182905560060155614675565b82600101546008858154811061459f5761459f615104565b906000526020600020906003020160020188815481106145c1576145c1615104565b90600052602060002090600702016001018190555042600885815481106145ea576145ea615104565b9060005260206000209060030201600201888154811061460c5761460c615104565b600091825260209091206002600790920201015561462a81426150ec565b6008858154811061463d5761463d615104565b9060005260206000209060030201600201888154811061465f5761465f615104565b9060005260206000209060070201600601819055505b50869450925050505b9250929050565b33600090815260096020526040812054600880548392918391839081106146ae576146ae615104565b906000526020600020906003020160020185815481106146d0576146d0615104565b9060005260206000209060070201905060008160010154116147645760405162461bcd60e51b815260206004820152604160248201527f5374616b61626c653a2043616e6e6f742077697468647261772c20796f75206460448201527f6f6e2774206861766520616e79207374616b6520696e207468697320496e64656064820152600f60fb1b608482015260a401610ac4565b60018101546040805160e08101825283546001600160a01b03168152602081018390526002840154918101919091526003830154606082015260048301546080820152600583015460a0820152600683015460c08201526000906147c8908361419c565b9050428360060154111561488057818360010160008282546147ea91906151a1565b9091555050600880548590811061480357614803615104565b9060005260206000209060030201600201878154811061482557614825615104565b60009182526020822060079091020180546001600160a01b03191681556001810182905560028101829055600381018290556004810182905560058101829055600601556148738282614ccf565b9550955050505050915091565b6008848154811061489357614893615104565b906000526020600020906003020160020187815481106148b5576148b5615104565b60009182526020822060079091020180546001600160a01b031916815560018101829055600281018290556003810182905560048101829055600581018290556006015590969095509350505050565b60006120f782846151b8565b6008805460019081018083556000928352829161492d916151a1565b9050826008828154811061494357614943615104565b906000526020600020906003020160000160006101000a8154816001600160a01b0302191690836001600160a01b03160217905550426008828154811061498c5761498c615104565b60009182526020808320600160039093020191909101929092556001600160a01b0390941684526009905260409092208290555090565b6001600160a01b0381166000908152600e60205260408120600301548190819062015180906149f290426151a1565b6149fc919061517f565b90506101e0811015614ab7576001600160a01b0384166000908152600e602052604090206002015460ff16614a9157600c546001600160a01b0385166000908152600e6020526040902054614a6891614a6191614a599190614905565b600b546120eb565b83906120fe565b6001600160a01b0385166000908152600e60205260409020600201805460ff1916600117905591505b6001600160a01b0384166000908152600e602052604090206101c2600490910155614bd2565b6101e08110158015614aca575061034881105b15614bd2576001600160a01b0384166000908152600e602052604090206002015460ff16614b4957600c546001600160a01b0385166000908152600e6020526040902054614b2091614a6191614a599190614905565b6001600160a01b0385166000908152600e60205260409020600201805460ff1916600117905591505b6001600160a01b0384166000908152600e6020526040812060040154614b6f90836151a1565b600d546001600160a01b0387166000908152600e6020526040902054919250614ba691614b9f91614a5991614905565b84906120fe565b614bb090826151b8565b6001600160a01b0386166000908152600e602052604090206004018390559250505b81614c335760405162461bcd60e51b815260206004820152602b60248201527f4d756c74696c6f636b61626c653a2054686572652773206e6f7468696e67207460448201526a1bc818db185a5b481e595d60aa1b6064820152608401610ac4565b5092915050565b6000808211614c8b5760405162461bcd60e51b815260206004820152601b60248201527f5374616b61626c653a204572726f722074696d657374616d70203000000000006044820152606401610ac4565b610a94614c9883426151a1565b614cac9069d3c21bcecceda10000006151b8565b6301e133806040518060600160405280602781526020016151f360279139614d20565b60008083614ce25750600090508061467e565b614d0284614cfd614cf587600654614905565b6103e86120eb565b61222f565b614d1584614cfd614cf587600654614905565b915091509250929050565b60008183614d415760405162461bcd60e51b8152600401610ac49190614d79565b50828481614d5157614d51615169565b04949350505050565b604051806106e001604052806037906020820280368337509192915050565b600060208083528351808285015260005b81811015614da657858101830151858201604001528201614d8a565b81811115614db8576000604083870101525b50601f01601f1916929092016040019392505050565b6001600160a01b0381168114610f3e57600080fd5b60008060408385031215614df657600080fd5b8235614e0181614dce565b946020939093013593505050565b600060208284031215614e2157600080fd5b5035919050565b600080600060608486031215614e3d57600080fd5b8335614e4881614dce565b92506020840135614e5881614dce565b929592945050506040919091013590565b600060208284031215614e7b57600080fd5b81356120f781614dce565b60008060408385031215614e9957600080fd5b50508035926020909101359150565b600060208284031215614eba57600080fd5b813561ffff811681146120f757600080fd5b600060208284031215614ede57600080fd5b813580151581146120f757600080fd5b60008060408385031215614f0157600080fd5b8235614f0c81614dce565b91506020830135614f1c81614dce565b809150509250929050565b6000602080835260608084018551838601528286015160408081880152828251808552608094508489019150868401935060005b81811015614fb857845180516001600160a01b03168452888101518985015284810151858501528781015188850152868101518785015260a0808201519085015260c090810151908401529387019360e090920191600101614f5b565b50909998505050505050505050565b600181811c90821680614fdb57607f821691505b60208210811415614ffc57634e487b7160e01b600052602260045260246000fd5b50919050565b6020808252818101527f4f776e61626c653a2063616c6c6572206973206e6f7420746865206f776e6572604082015260600190565b60006020828403121561504957600080fd5b81516120f781614dce565b6020808252601d908201527f54616c6178546f6b656e3a2057616c6c6574204f776e6572204f6e6c79000000604082015260600190565b6106e08101818360005b60378110156150b4578151835260209283019290910190600101615095565b50505092915050565b6000602082840312156150cf57600080fd5b5051919050565b634e487b7160e01b600052601160045260246000fd5b600082198211156150ff576150ff6150d6565b500190565b634e487b7160e01b600052603260045260246000fd5b6020808252602f908201527f5374616b61626c653a2054686973206164647265737320646f6573206e6f742060408201526e6861766520616e79207374616b657360881b606082015260800190565b634e487b7160e01b600052601260045260246000fd5b60008261519c57634e487b7160e01b600052601260045260246000fd5b500490565b6000828210156151b3576151b36150d6565b500390565b60008160001904831182151516156151d2576151d26150d6565b500290565b60006000198214156151eb576151eb6150d6565b506001019056fe5374616b61626c653a204572726f722063616e6e6f74206469766964652074696d657374616d704d756c74696c6f636b61626c653a2043616e6e6f742073756273747261637420746f74616c20616d6f756e74207769746820636c61696d61626c6554616c6178546f6b656e3a207472616e7366657220657863656564732062616c616e6365ddf252ad1be2c89b69c2b068fc378daa952ba7f163c4a11628f55a4df523b3efa26469706673582212203dfc3e5b94bf60edc484f4e02bac1f0749ee7703f4b8f085316a109937ba218264736f6c634300080b003360a060405234801561001057600080fd5b5060405161063c38038061063c83398101604081905261002f916100c0565b600082116100935760405162461bcd60e51b815260206004820152602760248201527f4c6f636b61626c653a20416d6f756e74206d7573742067726561746572207468604482015266616e207a65726f60c81b606482015260840160405180910390fd5b6000919091556001600160a01b031660805242600255600180546001600160a01b031916331790556100fd565b600080604083850312156100d357600080fd5b825160208401519092506001600160a01b03811681146100f257600080fd5b809150509250929050565b6080516105256101176000396000605e01526105256000f3fe608060405234801561001057600080fd5b50600436106100575760003560e01c806338af3eed1461005c57806367e404ce1461009b5780638da5cb5b146100a1578063aa8c217c146100b4578063e7d88c42146100c6575b600080fd5b7f00000000000000000000000000000000000000000000000000000000000000005b6040516001600160a01b0390911681526020015b60405180910390f35b3361007e565b60015461007e906001600160a01b031681565b6000545b604051908152602001610092565b6100b86100d436600461033f565b6001546000906001600160a01b031633146101545760405162461bcd60e51b815260206004820152603560248201527f4c6f636b61626c653a2063616c6c6572206861766520746f2062652054616c616044820152741e151bdad95b8814db585c9d0810dbdb9d1c9858dd605a1b60648201526084015b60405180910390fd5b60008054116101a55760405162461bcd60e51b815260206004820152601860248201527f4c6f636b61626c653a206e6f20746f6b656e73206c6566740000000000000000604482015260640161014b565b60006101b083610230565b9050600081116102025760405162461bcd60e51b815260206004820152601e60248201527f4c6f636b61626c653a206e6f20746f6b656e7320746f2072656c656173650000604482015260640161014b565b610227600054826040518060600160405280603681526020016104ba60369139610307565b60005592915050565b60008062278d006002544261024591906103e2565b61024f91906103f9565b6003549091506000905b6037811161029557610281828683603781106102775761027761041b565b6020020151610333565b91508061028d81610431565b915050610259565b506102a182600161044c565b600355806103005760405162461bcd60e51b815260206004820152602660248201527f4c6f636b61626c653a2054686572652773206e6f7468696e6720746f20636c616044820152651a5b481e595d60d21b606482015260840161014b565b9392505050565b6000818484111561032b5760405162461bcd60e51b815260040161014b9190610464565b505050900390565b6000610300828461044c565b60006106e080838503121561035357600080fd5b83601f84011261036257600080fd5b60405181810181811067ffffffffffffffff8211171561039257634e487b7160e01b600052604160045260246000fd5b6040529083019080858311156103a757600080fd5b845b838110156103c15780358252602091820191016103a9565b509095945050505050565b634e487b7160e01b600052601160045260246000fd5b6000828210156103f4576103f46103cc565b500390565b60008261041657634e487b7160e01b600052601260045260246000fd5b500490565b634e487b7160e01b600052603260045260246000fd5b6000600019821415610445576104456103cc565b5060010190565b6000821982111561045f5761045f6103cc565b500190565b600060208083528351808285015260005b8181101561049157858101830151858201604001528201610475565b818111156104a3576000604083870101525b50601f01601f191692909201604001939250505056fe4c6f636b61626c653a2043616e6e6f742073756273747261637420746f74616c20616d6f756e74207769746820636c61696d61626c65a264697066735822122037689450be381dba790d9f733dbe90aa191778e9d63cbe828528e3b8fac7bf2464736f6c634300080b003354616c6178546f6b656e3a2043616e6e6f74207472616e73666572206d6f7265207468616e20746f74616c20737570706c79",
			"opcodes": "PUSH1 0x80 PUSH1 0x40 MSTORE CALLVALUE DUP1 ISZERO PUSH3 0x11 JUMPI PUSH1 0x0 DUP1 REVERT JUMPDEST POP PUSH1 0x40 DUP1 MLOAD DUP1 DUP3 ADD DUP3 MSTORE PUSH1 0x8 DUP2 MSTORE PUSH8 0x54414C415845554D PUSH1 0xC0 SHL PUSH1 0x20 DUP1 DUP4 ADD SWAP2 DUP3 MSTORE DUP4 MLOAD DUP1 DUP6 ADD SWAP1 SWAP5 MSTORE PUSH1 0x5 DUP5 MSTORE PUSH5 0xA8829882B PUSH1 0xDB SHL SWAP1 DUP5 ADD MSTORE DUP2 MLOAD SWAP2 SWAP3 SWAP2 PUSH3 0x5F SWAP2 PUSH1 0x3 SWAP2 PUSH3 0x8BB JUMP JUMPDEST POP DUP1 MLOAD PUSH3 0x75 SWAP1 PUSH1 0x4 SWAP1 PUSH1 0x20 DUP5 ADD SWAP1 PUSH3 0x8BB JUMP JUMPDEST POP POP POP PUSH3 0x92 PUSH3 0x8C PUSH3 0x82D PUSH1 0x20 SHL PUSH1 0x20 SHR JUMP JUMPDEST PUSH3 0x831 JUMP JUMPDEST PUSH1 0x8 DUP1 SLOAD PUSH1 0x1 ADD DUP2 SSTORE PUSH1 0x0 DUP2 SWAP1 MSTORE PUSH1 0xF PUSH1 0x6 SSTORE PUSH1 0x50 PUSH1 0x7 SSTORE PUSH11 0xC24662F3B1CD048600000 PUSH1 0xB SSTORE PUSH11 0x136D704B91C7B3A700000 PUSH1 0xC SSTORE PUSH10 0x7AA22879AABCFAC0000 PUSH1 0xD SSTORE PUSH11 0xADB53ACFA41AEE12000000 PUSH1 0x11 SSTORE PUSH1 0x40 DUP1 MLOAD DUP1 DUP3 ADD SWAP1 SWAP2 MSTORE DUP2 DUP2 MSTORE PUSH8 0x54414C415845554D PUSH1 0xC0 SHL PUSH1 0x20 SWAP1 SWAP2 ADD SWAP1 DUP2 MSTORE PUSH3 0x115 SWAP2 PUSH1 0x12 SWAP2 SWAP1 PUSH3 0x8BB JUMP JUMPDEST POP PUSH1 0x40 DUP1 MLOAD DUP1 DUP3 ADD SWAP1 SWAP2 MSTORE PUSH1 0x5 DUP1 DUP3 MSTORE PUSH5 0xA8829882B PUSH1 0xDB SHL PUSH1 0x20 SWAP1 SWAP3 ADD SWAP2 DUP3 MSTORE PUSH3 0x144 SWAP2 PUSH1 0x13 SWAP2 PUSH3 0x8BB JUMP JUMPDEST POP PUSH1 0x16 DUP1 SLOAD PUSH3 0xFFFFFF NOT AND PUSH2 0x100 OR SWAP1 SSTORE PUSH1 0x6 PUSH32 0xEF9867886D91BF1143DA50CE428E1F46215F4021B2F0BFFFCF74746DBDFD256C SSTORE PUSH1 0x7 PUSH32 0x399CA0014A9ED906AEB40AAF2CEB9FF256B8A4D52B989E153DCA3518A9C19E93 SSTORE PUSH1 0x8 PUSH32 0x20A09E4DA24F73438D786725EF869CE0CE064EDD982700C47FA5756E0462652C SSTORE PUSH1 0x17 DUP1 SLOAD PUSH1 0x1 PUSH1 0x1 PUSH1 0xA0 SHL SUB NOT SWAP1 DUP2 AND PUSH20 0x7A20DC6722563783E44BA8EDCA08C774621125E OR DUP3 SSTORE PUSH1 0x18 DUP1 SLOAD DUP3 AND PUSH20 0xF09F65DD4D229E991901669AD7C7549F060E30B9 OR SWAP1 SSTORE PUSH1 0x19 DUP1 SLOAD DUP3 AND PUSH20 0x1A2118E056D6AF192E233C2C9CFB34E067DED1F8 OR SWAP1 SSTORE PUSH1 0x1A DUP1 SLOAD DUP3 AND PUSH20 0x126974FA373267D86FAB6D6871AFE62CCB68E810 OR SWAP1 SSTORE PUSH1 0x1B DUP1 SLOAD DUP3 AND PUSH20 0x2F838CF0DF38B2E91E747A01DDAE5EBAD5558B7A OR SWAP1 SSTORE PUSH1 0x1C DUP1 SLOAD DUP3 AND PUSH20 0x45094071C4DAAF6A9A73B0A0F095A2B138BD8A3A OR SWAP1 SSTORE PUSH1 0x1D DUP1 SLOAD DUP3 AND PUSH20 0xAEB26FB84D0E2B3B353CD50F0A29FD40C916D2AB OR SWAP1 SSTORE PUSH1 0x1E DUP1 SLOAD DUP3 AND PUSH20 0xE61E7A7D16DB384433E532FB85724E7F3BDAAE2F OR SWAP1 SSTORE PUSH1 0x1F DUP1 SLOAD DUP3 AND PUSH20 0x406605EB24A97A2D61B516D8D850F2AEFA6A731A OR SWAP1 SSTORE PUSH1 0x20 DUP1 SLOAD SWAP1 SWAP2 AND PUSH20 0x97620DEADC98BC8173303686037CE7B986CF53C3 OR DUP2 SSTORE PUSH11 0xE7CBBD7AA8310AE400000 PUSH1 0x15 SSTORE ADDRESS PUSH1 0x0 SWAP1 DUP2 MSTORE PUSH1 0xF SWAP1 SWAP2 MSTORE PUSH1 0x40 DUP1 DUP3 KECCAK256 PUSH11 0x2B6D4EB3E906BB84800000 SWAP1 SSTORE PUSH20 0x5470C8FF25EC05980FC7C2967D076B8012298FE7 SWAP1 SWAP2 MSTORE PUSH11 0x1E92959D60776D7C00000 PUSH32 0x904D23D904F622AB6BB4C22AE7E8F2AC0EC0AC5396691FC6DF9E44F4F8A6A321 SSTORE SWAP1 SLOAD SWAP1 MLOAD PUSH11 0x5C8D34A23DA1650A00000 SWAP2 PUSH1 0x1 PUSH1 0x1 PUSH1 0xA0 SHL SUB AND SWAP1 PUSH3 0x391 SWAP1 PUSH3 0x94A JUMP JUMPDEST SWAP2 DUP3 MSTORE PUSH1 0x1 PUSH1 0x1 PUSH1 0xA0 SHL SUB AND PUSH1 0x20 DUP3 ADD MSTORE PUSH1 0x40 ADD PUSH1 0x40 MLOAD DUP1 SWAP2 SUB SWAP1 PUSH1 0x0 CREATE DUP1 ISZERO DUP1 ISZERO PUSH3 0x3C2 JUMPI RETURNDATASIZE PUSH1 0x0 DUP1 RETURNDATACOPY RETURNDATASIZE PUSH1 0x0 REVERT JUMPDEST POP PUSH1 0x21 DUP1 SLOAD PUSH1 0x1 PUSH1 0x1 PUSH1 0xA0 SHL SUB NOT AND PUSH1 0x1 PUSH1 0x1 PUSH1 0xA0 SHL SUB SWAP3 DUP4 AND OR SWAP1 SSTORE PUSH1 0x18 SLOAD PUSH1 0x40 MLOAD PUSH11 0x1467A6F5A4A69801800000 SWAP3 SWAP2 SWAP1 SWAP2 AND SWAP1 PUSH3 0x402 SWAP1 PUSH3 0x94A JUMP JUMPDEST SWAP2 DUP3 MSTORE PUSH1 0x1 PUSH1 0x1 PUSH1 0xA0 SHL SUB AND PUSH1 0x20 DUP3 ADD MSTORE PUSH1 0x40 ADD PUSH1 0x40 MLOAD DUP1 SWAP2 SUB SWAP1 PUSH1 0x0 CREATE DUP1 ISZERO DUP1 ISZERO PUSH3 0x433 JUMPI RETURNDATASIZE PUSH1 0x0 DUP1 RETURNDATACOPY RETURNDATASIZE PUSH1 0x0 REVERT JUMPDEST POP PUSH1 0x22 DUP1 SLOAD PUSH1 0x1 PUSH1 0x1 PUSH1 0xA0 SHL SUB NOT AND PUSH1 0x1 PUSH1 0x1 PUSH1 0xA0 SHL SUB SWAP3 DUP4 AND OR SWAP1 SSTORE PUSH1 0x19 SLOAD PUSH1 0x40 MLOAD PUSH11 0x1467A6F5A4A69801800000 SWAP3 SWAP2 SWAP1 SWAP2 AND SWAP1 PUSH3 0x473 SWAP1 PUSH3 0x94A JUMP JUMPDEST SWAP2 DUP3 MSTORE PUSH1 0x1 PUSH1 0x1 PUSH1 0xA0 SHL SUB AND PUSH1 0x20 DUP3 ADD MSTORE PUSH1 0x40 ADD PUSH1 0x40 MLOAD DUP1 SWAP2 SUB SWAP1 PUSH1 0x0 CREATE DUP1 ISZERO DUP1 ISZERO PUSH3 0x4A4 JUMPI RETURNDATASIZE PUSH1 0x0 DUP1 RETURNDATACOPY RETURNDATASIZE PUSH1 0x0 REVERT JUMPDEST POP PUSH1 0x23 DUP1 SLOAD PUSH1 0x1 PUSH1 0x1 PUSH1 0xA0 SHL SUB NOT AND PUSH1 0x1 PUSH1 0x1 PUSH1 0xA0 SHL SUB SWAP3 DUP4 AND OR SWAP1 SSTORE PUSH1 0x1A SLOAD PUSH1 0x40 MLOAD PUSH11 0x1467A6F5A4A69801800000 SWAP3 SWAP2 SWAP1 SWAP2 AND SWAP1 PUSH3 0x4E4 SWAP1 PUSH3 0x94A JUMP JUMPDEST SWAP2 DUP3 MSTORE PUSH1 0x1 PUSH1 0x1 PUSH1 0xA0 SHL SUB AND PUSH1 0x20 DUP3 ADD MSTORE PUSH1 0x40 ADD PUSH1 0x40 MLOAD DUP1 SWAP2 SUB SWAP1 PUSH1 0x0 CREATE DUP1 ISZERO DUP1 ISZERO PUSH3 0x515 JUMPI RETURNDATASIZE PUSH1 0x0 DUP1 RETURNDATACOPY RETURNDATASIZE PUSH1 0x0 REVERT JUMPDEST POP PUSH1 0x24 DUP1 SLOAD PUSH1 0x1 PUSH1 0x1 PUSH1 0xA0 SHL SUB NOT AND PUSH1 0x1 PUSH1 0x1 PUSH1 0xA0 SHL SUB SWAP3 DUP4 AND OR SWAP1 SSTORE PUSH1 0x1B SLOAD PUSH1 0x40 MLOAD PUSH11 0x2E5276153CD3FB3800000 SWAP3 SWAP2 SWAP1 SWAP2 AND SWAP1 PUSH3 0x555 SWAP1 PUSH3 0x94A JUMP JUMPDEST SWAP2 DUP3 MSTORE PUSH1 0x1 PUSH1 0x1 PUSH1 0xA0 SHL SUB AND PUSH1 0x20 DUP3 ADD MSTORE PUSH1 0x40 ADD PUSH1 0x40 MLOAD DUP1 SWAP2 SUB SWAP1 PUSH1 0x0 CREATE DUP1 ISZERO DUP1 ISZERO PUSH3 0x586 JUMPI RETURNDATASIZE PUSH1 0x0 DUP1 RETURNDATACOPY RETURNDATASIZE PUSH1 0x0 REVERT JUMPDEST POP PUSH1 0x25 DUP1 SLOAD PUSH1 0x1 PUSH1 0x1 PUSH1 0xA0 SHL SUB NOT AND PUSH1 0x1 PUSH1 0x1 PUSH1 0xA0 SHL SUB SWAP3 DUP4 AND OR SWAP1 SSTORE PUSH1 0x1C SLOAD PUSH1 0x40 MLOAD PUSH11 0x2E5276153CD3FB3800000 SWAP3 SWAP2 SWAP1 SWAP2 AND SWAP1 PUSH3 0x5C6 SWAP1 PUSH3 0x94A JUMP JUMPDEST SWAP2 DUP3 MSTORE PUSH1 0x1 PUSH1 0x1 PUSH1 0xA0 SHL SUB AND PUSH1 0x20 DUP3 ADD MSTORE PUSH1 0x40 ADD PUSH1 0x40 MLOAD DUP1 SWAP2 SUB SWAP1 PUSH1 0x0 CREATE DUP1 ISZERO DUP1 ISZERO PUSH3 0x5F7 JUMPI RETURNDATASIZE PUSH1 0x0 DUP1 RETURNDATACOPY RETURNDATASIZE PUSH1 0x0 REVERT JUMPDEST POP PUSH1 0x26 DUP1 SLOAD PUSH1 0x1 PUSH1 0x1 PUSH1 0xA0 SHL SUB NOT AND PUSH1 0x1 PUSH1 0x1 PUSH1 0xA0 SHL SUB SWAP3 DUP4 AND OR SWAP1 SSTORE PUSH1 0x1D SLOAD PUSH1 0x40 MLOAD PUSH11 0x2E5276153CD3FB3800000 SWAP3 SWAP2 SWAP1 SWAP2 AND SWAP1 PUSH3 0x637 SWAP1 PUSH3 0x94A JUMP JUMPDEST SWAP2 DUP3 MSTORE PUSH1 0x1 PUSH1 0x1 PUSH1 0xA0 SHL SUB AND PUSH1 0x20 DUP3 ADD MSTORE PUSH1 0x40 ADD PUSH1 0x40 MLOAD DUP1 SWAP2 SUB SWAP1 PUSH1 0x0 CREATE DUP1 ISZERO DUP1 ISZERO PUSH3 0x668 JUMPI RETURNDATASIZE PUSH1 0x0 DUP1 RETURNDATACOPY RETURNDATASIZE PUSH1 0x0 REVERT JUMPDEST POP PUSH1 0x27 DUP1 SLOAD PUSH1 0x1 PUSH1 0x1 PUSH1 0xA0 SHL SUB NOT AND PUSH1 0x1 PUSH1 0x1 PUSH1 0xA0 SHL SUB SWAP3 DUP4 AND OR SWAP1 SSTORE PUSH1 0x1E SLOAD PUSH1 0x40 MLOAD PUSH11 0x8AF7623FB67BF1A800000 SWAP3 SWAP2 SWAP1 SWAP2 AND SWAP1 PUSH3 0x6A8 SWAP1 PUSH3 0x94A JUMP JUMPDEST SWAP2 DUP3 MSTORE PUSH1 0x1 PUSH1 0x1 PUSH1 0xA0 SHL SUB AND PUSH1 0x20 DUP3 ADD MSTORE PUSH1 0x40 ADD PUSH1 0x40 MLOAD DUP1 SWAP2 SUB SWAP1 PUSH1 0x0 CREATE DUP1 ISZERO DUP1 ISZERO PUSH3 0x6D9 JUMPI RETURNDATASIZE PUSH1 0x0 DUP1 RETURNDATACOPY RETURNDATASIZE PUSH1 0x0 REVERT JUMPDEST POP PUSH1 0x28 DUP1 SLOAD PUSH1 0x1 PUSH1 0x1 PUSH1 0xA0 SHL SUB NOT AND PUSH1 0x1 PUSH1 0x1 PUSH1 0xA0 SHL SUB SWAP3 DUP4 AND OR SWAP1 SSTORE PUSH1 0x1F SLOAD PUSH1 0x40 MLOAD PUSH11 0x8AF7623FB67BF1A800000 SWAP3 SWAP2 SWAP1 SWAP2 AND SWAP1 PUSH3 0x719 SWAP1 PUSH3 0x94A JUMP JUMPDEST SWAP2 DUP3 MSTORE PUSH1 0x1 PUSH1 0x1 PUSH1 0xA0 SHL SUB AND PUSH1 0x20 DUP3 ADD MSTORE PUSH1 0x40 ADD PUSH1 0x40 MLOAD DUP1 SWAP2 SUB SWAP1 PUSH1 0x0 CREATE DUP1 ISZERO DUP1 ISZERO PUSH3 0x74A JUMPI RETURNDATASIZE PUSH1 0x0 DUP1 RETURNDATACOPY RETURNDATASIZE PUSH1 0x0 REVERT JUMPDEST POP PUSH1 0x29 DUP1 SLOAD PUSH1 0x1 PUSH1 0x1 PUSH1 0xA0 SHL SUB NOT AND PUSH1 0x1 PUSH1 0x1 PUSH1 0xA0 SHL SUB SWAP3 DUP4 AND OR SWAP1 SSTORE PUSH1 0x20 SLOAD PUSH1 0x40 MLOAD PUSH11 0x8AF7623FB67BF1A800000 SWAP3 SWAP2 SWAP1 SWAP2 AND SWAP1 PUSH3 0x78A SWAP1 PUSH3 0x94A JUMP JUMPDEST SWAP2 DUP3 MSTORE PUSH1 0x1 PUSH1 0x1 PUSH1 0xA0 SHL SUB AND PUSH1 0x20 DUP3 ADD MSTORE PUSH1 0x40 ADD PUSH1 0x40 MLOAD DUP1 SWAP2 SUB SWAP1 PUSH1 0x0 CREATE DUP1 ISZERO DUP1 ISZERO PUSH3 0x7BB JUMPI RETURNDATASIZE PUSH1 0x0 DUP1 RETURNDATACOPY RETURNDATASIZE PUSH1 0x0 REVERT JUMPDEST POP PUSH1 0x2A PUSH1 0x0 PUSH2 0x100 EXP DUP2 SLOAD DUP2 PUSH1 0x1 PUSH1 0x1 PUSH1 0xA0 SHL SUB MUL NOT AND SWAP1 DUP4 PUSH1 0x1 PUSH1 0x1 PUSH1 0xA0 SHL SUB AND MUL OR SWAP1 SSTORE POP PUSH3 0x824 PUSH11 0x8247EC1BBB14328D800000 PUSH1 0x40 MLOAD DUP1 PUSH1 0x60 ADD PUSH1 0x40 MSTORE DUP1 PUSH1 0x32 DUP2 MSTORE PUSH1 0x20 ADD PUSH3 0x631E PUSH1 0x32 SWAP2 CODECOPY PUSH1 0x11 SLOAD PUSH3 0x883 PUSH1 0x20 SHL PUSH3 0x20BF OR SWAP1 SWAP3 SWAP2 SWAP1 PUSH1 0x20 SHR JUMP JUMPDEST PUSH1 0x11 SSTORE PUSH3 0xA04 JUMP JUMPDEST CALLER SWAP1 JUMP JUMPDEST PUSH1 0x5 DUP1 SLOAD PUSH1 0x1 PUSH1 0x1 PUSH1 0xA0 SHL SUB DUP4 DUP2 AND PUSH1 0x1 PUSH1 0x1 PUSH1 0xA0 SHL SUB NOT DUP4 AND DUP2 OR SWAP1 SWAP4 SSTORE PUSH1 0x40 MLOAD SWAP2 AND SWAP2 SWAP1 DUP3 SWAP1 PUSH32 0x8BE0079C531659141344CD1FD0A4F28419497F9722A3DAAFE3B4186F6B6457E0 SWAP1 PUSH1 0x0 SWAP1 LOG3 POP POP JUMP JUMPDEST PUSH1 0x0 DUP2 DUP5 DUP5 GT ISZERO PUSH3 0x8B3 JUMPI PUSH1 0x40 MLOAD PUSH3 0x461BCD PUSH1 0xE5 SHL DUP2 MSTORE PUSH1 0x4 ADD PUSH3 0x8AA SWAP2 SWAP1 PUSH3 0x96F JUMP JUMPDEST PUSH1 0x40 MLOAD DUP1 SWAP2 SUB SWAP1 REVERT JUMPDEST POP POP POP SWAP1 SUB SWAP1 JUMP JUMPDEST DUP3 DUP1 SLOAD PUSH3 0x8C9 SWAP1 PUSH3 0x9C7 JUMP JUMPDEST SWAP1 PUSH1 0x0 MSTORE PUSH1 0x20 PUSH1 0x0 KECCAK256 SWAP1 PUSH1 0x1F ADD PUSH1 0x20 SWAP1 DIV DUP2 ADD SWAP3 DUP3 PUSH3 0x8ED JUMPI PUSH1 0x0 DUP6 SSTORE PUSH3 0x938 JUMP JUMPDEST DUP3 PUSH1 0x1F LT PUSH3 0x908 JUMPI DUP1 MLOAD PUSH1 0xFF NOT AND DUP4 DUP1 ADD OR DUP6 SSTORE PUSH3 0x938 JUMP JUMPDEST DUP3 DUP1 ADD PUSH1 0x1 ADD DUP6 SSTORE DUP3 ISZERO PUSH3 0x938 JUMPI SWAP2 DUP3 ADD JUMPDEST DUP3 DUP2 GT ISZERO PUSH3 0x938 JUMPI DUP3 MLOAD DUP3 SSTORE SWAP2 PUSH1 0x20 ADD SWAP2 SWAP1 PUSH1 0x1 ADD SWAP1 PUSH3 0x91B JUMP JUMPDEST POP PUSH3 0x946 SWAP3 SWAP2 POP PUSH3 0x958 JUMP JUMPDEST POP SWAP1 JUMP JUMPDEST PUSH2 0x63C DUP1 PUSH3 0x5CE2 DUP4 CODECOPY ADD SWAP1 JUMP JUMPDEST JUMPDEST DUP1 DUP3 GT ISZERO PUSH3 0x946 JUMPI PUSH1 0x0 DUP2 SSTORE PUSH1 0x1 ADD PUSH3 0x959 JUMP JUMPDEST PUSH1 0x0 PUSH1 0x20 DUP1 DUP4 MSTORE DUP4 MLOAD DUP1 DUP3 DUP6 ADD MSTORE PUSH1 0x0 JUMPDEST DUP2 DUP2 LT ISZERO PUSH3 0x99E JUMPI DUP6 DUP2 ADD DUP4 ADD MLOAD DUP6 DUP3 ADD PUSH1 0x40 ADD MSTORE DUP3 ADD PUSH3 0x980 JUMP JUMPDEST DUP2 DUP2 GT ISZERO PUSH3 0x9B1 JUMPI PUSH1 0x0 PUSH1 0x40 DUP4 DUP8 ADD ADD MSTORE JUMPDEST POP PUSH1 0x1F ADD PUSH1 0x1F NOT AND SWAP3 SWAP1 SWAP3 ADD PUSH1 0x40 ADD SWAP4 SWAP3 POP POP POP JUMP JUMPDEST PUSH1 0x1 DUP2 DUP2 SHR SWAP1 DUP3 AND DUP1 PUSH3 0x9DC JUMPI PUSH1 0x7F DUP3 AND SWAP2 POP JUMPDEST PUSH1 0x20 DUP3 LT DUP2 EQ ISZERO PUSH3 0x9FE JUMPI PUSH4 0x4E487B71 PUSH1 0xE0 SHL PUSH1 0x0 MSTORE PUSH1 0x22 PUSH1 0x4 MSTORE PUSH1 0x24 PUSH1 0x0 REVERT JUMPDEST POP SWAP2 SWAP1 POP JUMP JUMPDEST PUSH2 0x52CE DUP1 PUSH3 0xA14 PUSH1 0x0 CODECOPY PUSH1 0x0 RETURN INVALID PUSH1 0x80 PUSH1 0x40 MSTORE PUSH1 0x4 CALLDATASIZE LT PUSH2 0x2E8 JUMPI PUSH1 0x0 CALLDATALOAD PUSH1 0xE0 SHR DUP1 PUSH4 0x883D9984 GT PUSH2 0x190 JUMPI DUP1 PUSH4 0xA9059CBB GT PUSH2 0xDC JUMPI DUP1 PUSH4 0xD94D4AD6 GT PUSH2 0x95 JUMPI DUP1 PUSH4 0xEB9F4AC7 GT PUSH2 0x6F JUMPI DUP1 PUSH4 0xEB9F4AC7 EQ PUSH2 0x8BA JUMPI DUP1 PUSH4 0xF1FDF469 EQ PUSH2 0x8CF JUMPI DUP1 PUSH4 0xF2FDE38B EQ PUSH2 0x8EF JUMPI DUP1 PUSH4 0xF729B00F EQ PUSH2 0x90F JUMPI PUSH2 0x2F8 JUMP JUMPDEST DUP1 PUSH4 0xD94D4AD6 EQ PUSH2 0x84D JUMPI DUP1 PUSH4 0xDD62ED3E EQ PUSH2 0x86D JUMPI DUP1 PUSH4 0xE73E14BF EQ PUSH2 0x88D JUMPI PUSH2 0x2F8 JUMP JUMPDEST DUP1 PUSH4 0xA9059CBB EQ PUSH2 0x7A3 JUMPI DUP1 PUSH4 0xADF3364C EQ PUSH2 0x7C3 JUMPI DUP1 PUSH4 0xB8B18E89 EQ PUSH2 0x7E3 JUMPI DUP1 PUSH4 0xBEA8E46B EQ PUSH2 0x7F8 JUMPI DUP1 PUSH4 0xD4DCA69B EQ PUSH2 0x81A JUMPI DUP1 PUSH4 0xD5DBDF1B EQ PUSH2 0x82D JUMPI PUSH2 0x2F8 JUMP JUMPDEST DUP1 PUSH4 0x90A4C709 GT PUSH2 0x149 JUMPI DUP1 PUSH4 0x96074E70 GT PUSH2 0x123 JUMPI DUP1 PUSH4 0x96074E70 EQ PUSH2 0x725 JUMPI DUP1 PUSH4 0xA071DCF4 EQ PUSH2 0x745 JUMPI DUP1 PUSH4 0xA169C515 EQ PUSH2 0x763 JUMPI DUP1 PUSH4 0xA457C2D7 EQ PUSH2 0x783 JUMPI PUSH2 0x2F8 JUMP JUMPDEST DUP1 PUSH4 0x90A4C709 EQ PUSH2 0x6E6 JUMPI DUP1 PUSH4 0x934851EC EQ PUSH2 0x6FB JUMPI DUP1 PUSH4 0x95D89B41 EQ PUSH2 0x710 JUMPI PUSH2 0x2F8 JUMP JUMPDEST DUP1 PUSH4 0x883D9984 EQ PUSH2 0x626 JUMPI DUP1 PUSH4 0x8902CD70 EQ PUSH2 0x63B JUMPI DUP1 PUSH4 0x893D20E8 EQ PUSH2 0x65B JUMPI DUP1 PUSH4 0x8B7C64DA EQ PUSH2 0x688 JUMPI DUP1 PUSH4 0x8C63F97F EQ PUSH2 0x6A8 JUMPI DUP1 PUSH4 0x8DA5CB5B EQ PUSH2 0x6C8 JUMPI PUSH2 0x2F8 JUMP JUMPDEST DUP1 PUSH4 0x3F3EF2DC GT PUSH2 0x24F JUMPI DUP1 PUSH4 0x715018A6 GT PUSH2 0x208 JUMPI DUP1 PUSH4 0x7C2412F9 GT PUSH2 0x1E2 JUMPI DUP1 PUSH4 0x7C2412F9 EQ PUSH2 0x5CD JUMPI DUP1 PUSH4 0x7CB85214 EQ PUSH2 0x5E2 JUMPI DUP1 PUSH4 0x8378A875 EQ PUSH2 0x5FC JUMPI DUP1 PUSH4 0x84F3996D EQ PUSH2 0x611 JUMPI PUSH2 0x2F8 JUMP JUMPDEST DUP1 PUSH4 0x715018A6 EQ PUSH2 0x578 JUMPI DUP1 PUSH4 0x79CC6790 EQ PUSH2 0x58D JUMPI DUP1 PUSH4 0x7B0472F0 EQ PUSH2 0x5AD JUMPI PUSH2 0x2F8 JUMP JUMPDEST DUP1 PUSH4 0x3F3EF2DC EQ PUSH2 0x4C3 JUMPI DUP1 PUSH4 0x40C10F19 EQ PUSH2 0x4D8 JUMPI DUP1 PUSH4 0x42966C68 EQ PUSH2 0x4F8 JUMPI DUP1 PUSH4 0x56029137 EQ PUSH2 0x518 JUMPI DUP1 PUSH4 0x5B88349D EQ PUSH2 0x52D JUMPI DUP1 PUSH4 0x70A08231 EQ PUSH2 0x542 JUMPI PUSH2 0x2F8 JUMP JUMPDEST DUP1 PUSH4 0x19CA147D GT PUSH2 0x2A1 JUMPI DUP1 PUSH4 0x19CA147D EQ PUSH2 0x3C6 JUMPI DUP1 PUSH4 0x23B872DD EQ PUSH2 0x41F JUMPI DUP1 PUSH4 0x313CE567 EQ PUSH2 0x43F JUMPI DUP1 PUSH4 0x39509351 EQ PUSH2 0x45B JUMPI DUP1 PUSH4 0x3B124FE7 EQ PUSH2 0x47B JUMPI DUP1 PUSH4 0x3DC10AD4 EQ PUSH2 0x4AE JUMPI PUSH2 0x2F8 JUMP JUMPDEST DUP1 PUSH4 0x6F200BD EQ PUSH2 0x301 JUMPI DUP1 PUSH4 0x6FDDE03 EQ PUSH2 0x32A JUMPI DUP1 PUSH4 0x95EA7B3 EQ PUSH2 0x34C JUMPI DUP1 PUSH4 0xE1B09ED EQ PUSH2 0x37C JUMPI DUP1 PUSH4 0x15441BB9 EQ PUSH2 0x39C JUMPI DUP1 PUSH4 0x18160DDD EQ PUSH2 0x3B1 JUMPI PUSH2 0x2F8 JUMP JUMPDEST CALLDATASIZE PUSH2 0x2F8 JUMPI PUSH2 0x2F6 CALLVALUE PUSH2 0x92F JUMP JUMPDEST STOP JUMPDEST PUSH2 0x2F6 CALLVALUE PUSH2 0x92F JUMP JUMPDEST CALLVALUE DUP1 ISZERO PUSH2 0x30D JUMPI PUSH1 0x0 DUP1 REVERT JUMPDEST POP PUSH2 0x317 PUSH1 0x15 SLOAD DUP2 JUMP JUMPDEST PUSH1 0x40 MLOAD SWAP1 DUP2 MSTORE PUSH1 0x20 ADD JUMPDEST PUSH1 0x40 MLOAD DUP1 SWAP2 SUB SWAP1 RETURN JUMPDEST CALLVALUE DUP1 ISZERO PUSH2 0x336 JUMPI PUSH1 0x0 DUP1 REVERT JUMPDEST POP PUSH2 0x33F PUSH2 0x9EE JUMP JUMPDEST PUSH1 0x40 MLOAD PUSH2 0x321 SWAP2 SWAP1 PUSH2 0x4D79 JUMP JUMPDEST CALLVALUE DUP1 ISZERO PUSH2 0x358 JUMPI PUSH1 0x0 DUP1 REVERT JUMPDEST POP PUSH2 0x36C PUSH2 0x367 CALLDATASIZE PUSH1 0x4 PUSH2 0x4DE3 JUMP JUMPDEST PUSH2 0xA80 JUMP JUMPDEST PUSH1 0x40 MLOAD SWAP1 ISZERO ISZERO DUP2 MSTORE PUSH1 0x20 ADD PUSH2 0x321 JUMP JUMPDEST CALLVALUE DUP1 ISZERO PUSH2 0x388 JUMPI PUSH1 0x0 DUP1 REVERT JUMPDEST POP PUSH2 0x2F6 PUSH2 0x397 CALLDATASIZE PUSH1 0x4 PUSH2 0x4E0F JUMP JUMPDEST PUSH2 0xA9A JUMP JUMPDEST CALLVALUE DUP1 ISZERO PUSH2 0x3A8 JUMPI PUSH1 0x0 DUP1 REVERT JUMPDEST POP PUSH2 0x2F6 PUSH2 0xB84 JUMP JUMPDEST CALLVALUE DUP1 ISZERO PUSH2 0x3BD JUMPI PUSH1 0x0 DUP1 REVERT JUMPDEST POP PUSH1 0x11 SLOAD PUSH2 0x317 JUMP JUMPDEST CALLVALUE DUP1 ISZERO PUSH2 0x3D2 JUMPI PUSH1 0x0 DUP1 REVERT JUMPDEST POP PUSH2 0x3DB PUSH2 0xCE5 JUMP JUMPDEST PUSH1 0x40 MLOAD PUSH2 0x321 SWAP2 SWAP1 PUSH1 0x0 PUSH1 0xA0 DUP3 ADD SWAP1 POP DUP3 MLOAD DUP3 MSTORE PUSH1 0x20 DUP4 ADD MLOAD PUSH1 0x20 DUP4 ADD MSTORE PUSH1 0x40 DUP4 ADD MLOAD ISZERO ISZERO PUSH1 0x40 DUP4 ADD MSTORE PUSH1 0x60 DUP4 ADD MLOAD PUSH1 0x60 DUP4 ADD MSTORE PUSH1 0x80 DUP4 ADD MLOAD PUSH1 0x80 DUP4 ADD MSTORE SWAP3 SWAP2 POP POP JUMP JUMPDEST CALLVALUE DUP1 ISZERO PUSH2 0x42B JUMPI PUSH1 0x0 DUP1 REVERT JUMPDEST POP PUSH2 0x36C PUSH2 0x43A CALLDATASIZE PUSH1 0x4 PUSH2 0x4E28 JUMP JUMPDEST PUSH2 0xDF3 JUMP JUMPDEST CALLVALUE DUP1 ISZERO PUSH2 0x44B JUMPI PUSH1 0x0 DUP1 REVERT JUMPDEST POP PUSH1 0x40 MLOAD PUSH1 0x12 DUP2 MSTORE PUSH1 0x20 ADD PUSH2 0x321 JUMP JUMPDEST CALLVALUE DUP1 ISZERO PUSH2 0x467 JUMPI PUSH1 0x0 DUP1 REVERT JUMPDEST POP PUSH2 0x36C PUSH2 0x476 CALLDATASIZE PUSH1 0x4 PUSH2 0x4DE3 JUMP JUMPDEST PUSH2 0xE17 JUMP JUMPDEST CALLVALUE DUP1 ISZERO PUSH2 0x487 JUMPI PUSH1 0x0 DUP1 REVERT JUMPDEST POP PUSH1 0x16 SLOAD PUSH2 0x49B SWAP1 PUSH2 0x100 SWAP1 DIV PUSH2 0xFFFF AND DUP2 JUMP JUMPDEST PUSH1 0x40 MLOAD PUSH2 0xFFFF SWAP1 SWAP2 AND DUP2 MSTORE PUSH1 0x20 ADD PUSH2 0x321 JUMP JUMPDEST CALLVALUE DUP1 ISZERO PUSH2 0x4BA JUMPI PUSH1 0x0 DUP1 REVERT JUMPDEST POP PUSH1 0x6 SLOAD PUSH2 0x317 JUMP JUMPDEST CALLVALUE DUP1 ISZERO PUSH2 0x4CF JUMPI PUSH1 0x0 DUP1 REVERT JUMPDEST POP PUSH2 0x2F6 PUSH2 0xE39 JUMP JUMPDEST CALLVALUE DUP1 ISZERO PUSH2 0x4E4 JUMPI PUSH1 0x0 DUP1 REVERT JUMPDEST POP PUSH2 0x2F6 PUSH2 0x4F3 CALLDATASIZE PUSH1 0x4 PUSH2 0x4DE3 JUMP JUMPDEST PUSH2 0xEFC JUMP JUMPDEST CALLVALUE DUP1 ISZERO PUSH2 0x504 JUMPI PUSH1 0x0 DUP1 REVERT JUMPDEST POP PUSH2 0x2F6 PUSH2 0x513 CALLDATASIZE PUSH1 0x4 PUSH2 0x4E0F JUMP JUMPDEST PUSH2 0xF34 JUMP JUMPDEST CALLVALUE DUP1 ISZERO PUSH2 0x524 JUMPI PUSH1 0x0 DUP1 REVERT JUMPDEST POP PUSH2 0x2F6 PUSH2 0xF41 JUMP JUMPDEST CALLVALUE DUP1 ISZERO PUSH2 0x539 JUMPI PUSH1 0x0 DUP1 REVERT JUMPDEST POP PUSH2 0x2F6 PUSH2 0x1004 JUMP JUMPDEST CALLVALUE DUP1 ISZERO PUSH2 0x54E JUMPI PUSH1 0x0 DUP1 REVERT JUMPDEST POP PUSH2 0x317 PUSH2 0x55D CALLDATASIZE PUSH1 0x4 PUSH2 0x4E69 JUMP JUMPDEST PUSH1 0x1 PUSH1 0x1 PUSH1 0xA0 SHL SUB AND PUSH1 0x0 SWAP1 DUP2 MSTORE PUSH1 0xF PUSH1 0x20 MSTORE PUSH1 0x40 SWAP1 KECCAK256 SLOAD SWAP1 JUMP JUMPDEST CALLVALUE DUP1 ISZERO PUSH2 0x584 JUMPI PUSH1 0x0 DUP1 REVERT JUMPDEST POP PUSH2 0x2F6 PUSH2 0x10B0 JUMP JUMPDEST CALLVALUE DUP1 ISZERO PUSH2 0x599 JUMPI PUSH1 0x0 DUP1 REVERT JUMPDEST POP PUSH2 0x2F6 PUSH2 0x5A8 CALLDATASIZE PUSH1 0x4 PUSH2 0x4DE3 JUMP JUMPDEST PUSH2 0x10E6 JUMP JUMPDEST CALLVALUE DUP1 ISZERO PUSH2 0x5B9 JUMPI PUSH1 0x0 DUP1 REVERT JUMPDEST POP PUSH2 0x2F6 PUSH2 0x5C8 CALLDATASIZE PUSH1 0x4 PUSH2 0x4E86 JUMP JUMPDEST PUSH2 0x10FB JUMP JUMPDEST CALLVALUE DUP1 ISZERO PUSH2 0x5D9 JUMPI PUSH1 0x0 DUP1 REVERT JUMPDEST POP PUSH2 0x2F6 PUSH2 0x1246 JUMP JUMPDEST CALLVALUE DUP1 ISZERO PUSH2 0x5EE JUMPI PUSH1 0x0 DUP1 REVERT JUMPDEST POP PUSH1 0x16 SLOAD PUSH2 0x36C SWAP1 PUSH1 0xFF AND DUP2 JUMP JUMPDEST CALLVALUE DUP1 ISZERO PUSH2 0x608 JUMPI PUSH1 0x0 DUP1 REVERT JUMPDEST POP PUSH2 0x2F6 PUSH2 0x1251 JUMP JUMPDEST CALLVALUE DUP1 ISZERO PUSH2 0x61D JUMPI PUSH1 0x0 DUP1 REVERT JUMPDEST POP PUSH2 0x2F6 PUSH2 0x1314 JUMP JUMPDEST CALLVALUE DUP1 ISZERO PUSH2 0x632 JUMPI PUSH1 0x0 DUP1 REVERT JUMPDEST POP PUSH2 0x2F6 PUSH2 0x13D7 JUMP JUMPDEST CALLVALUE DUP1 ISZERO PUSH2 0x647 JUMPI PUSH1 0x0 DUP1 REVERT JUMPDEST POP PUSH2 0x2F6 PUSH2 0x656 CALLDATASIZE PUSH1 0x4 PUSH2 0x4EA8 JUMP JUMPDEST PUSH2 0x149A JUMP JUMPDEST CALLVALUE DUP1 ISZERO PUSH2 0x667 JUMPI PUSH1 0x0 DUP1 REVERT JUMPDEST POP PUSH2 0x670 PUSH2 0x1523 JUMP JUMPDEST PUSH1 0x40 MLOAD PUSH1 0x1 PUSH1 0x1 PUSH1 0xA0 SHL SUB SWAP1 SWAP2 AND DUP2 MSTORE PUSH1 0x20 ADD PUSH2 0x321 JUMP JUMPDEST CALLVALUE DUP1 ISZERO PUSH2 0x694 JUMPI PUSH1 0x0 DUP1 REVERT JUMPDEST POP PUSH2 0x2F6 PUSH2 0x6A3 CALLDATASIZE PUSH1 0x4 PUSH2 0x4E0F JUMP JUMPDEST PUSH2 0x153C JUMP JUMPDEST CALLVALUE DUP1 ISZERO PUSH2 0x6B4 JUMPI PUSH1 0x0 DUP1 REVERT JUMPDEST POP PUSH2 0x2F6 PUSH2 0x6C3 CALLDATASIZE PUSH1 0x4 PUSH2 0x4E0F JUMP JUMPDEST PUSH2 0x1610 JUMP JUMPDEST CALLVALUE DUP1 ISZERO PUSH2 0x6D4 JUMPI PUSH1 0x0 DUP1 REVERT JUMPDEST POP PUSH1 0x5 SLOAD PUSH1 0x1 PUSH1 0x1 PUSH1 0xA0 SHL SUB AND PUSH2 0x670 JUMP JUMPDEST CALLVALUE DUP1 ISZERO PUSH2 0x6F2 JUMPI PUSH1 0x0 DUP1 REVERT JUMPDEST POP PUSH2 0x2F6 PUSH2 0x1643 JUMP JUMPDEST CALLVALUE DUP1 ISZERO PUSH2 0x707 JUMPI PUSH1 0x0 DUP1 REVERT JUMPDEST POP PUSH2 0x2F6 PUSH2 0x1706 JUMP JUMPDEST CALLVALUE DUP1 ISZERO PUSH2 0x71C JUMPI PUSH1 0x0 DUP1 REVERT JUMPDEST POP PUSH2 0x33F PUSH2 0x17C9 JUMP JUMPDEST CALLVALUE DUP1 ISZERO PUSH2 0x731 JUMPI PUSH1 0x0 DUP1 REVERT JUMPDEST POP PUSH2 0x2F6 PUSH2 0x740 CALLDATASIZE PUSH1 0x4 PUSH2 0x4DE3 JUMP JUMPDEST PUSH2 0x17D8 JUMP JUMPDEST CALLVALUE DUP1 ISZERO PUSH2 0x751 JUMPI PUSH1 0x0 DUP1 REVERT JUMPDEST POP PUSH1 0x16 SLOAD PUSH2 0x100 SWAP1 DIV PUSH2 0xFFFF AND PUSH2 0x317 JUMP JUMPDEST CALLVALUE DUP1 ISZERO PUSH2 0x76F JUMPI PUSH1 0x0 DUP1 REVERT JUMPDEST POP PUSH2 0x2F6 PUSH2 0x77E CALLDATASIZE PUSH1 0x4 PUSH2 0x4E0F JUMP JUMPDEST PUSH2 0x1875 JUMP JUMPDEST CALLVALUE DUP1 ISZERO PUSH2 0x78F JUMPI PUSH1 0x0 DUP1 REVERT JUMPDEST POP PUSH2 0x36C PUSH2 0x79E CALLDATASIZE PUSH1 0x4 PUSH2 0x4DE3 JUMP JUMPDEST PUSH2 0x1929 JUMP JUMPDEST CALLVALUE DUP1 ISZERO PUSH2 0x7AF JUMPI PUSH1 0x0 DUP1 REVERT JUMPDEST POP PUSH2 0x36C PUSH2 0x7BE CALLDATASIZE PUSH1 0x4 PUSH2 0x4DE3 JUMP JUMPDEST PUSH2 0x19A4 JUMP JUMPDEST CALLVALUE DUP1 ISZERO PUSH2 0x7CF JUMPI PUSH1 0x0 DUP1 REVERT JUMPDEST POP PUSH2 0x2F6 PUSH2 0x7DE CALLDATASIZE PUSH1 0x4 PUSH2 0x4ECC JUMP JUMPDEST PUSH2 0x19B2 JUMP JUMPDEST CALLVALUE DUP1 ISZERO PUSH2 0x7EF JUMPI PUSH1 0x0 DUP1 REVERT JUMPDEST POP PUSH2 0x2F6 PUSH2 0x1A27 JUMP JUMPDEST CALLVALUE DUP1 ISZERO PUSH2 0x804 JUMPI PUSH1 0x0 DUP1 REVERT JUMPDEST POP ADDRESS PUSH1 0x0 SWAP1 DUP2 MSTORE PUSH1 0xF PUSH1 0x20 MSTORE PUSH1 0x40 SWAP1 KECCAK256 SLOAD PUSH2 0x317 JUMP JUMPDEST CALLVALUE DUP1 ISZERO PUSH2 0x826 JUMPI PUSH1 0x0 DUP1 REVERT JUMPDEST POP ADDRESS PUSH2 0x670 JUMP JUMPDEST CALLVALUE DUP1 ISZERO PUSH2 0x839 JUMPI PUSH1 0x0 DUP1 REVERT JUMPDEST POP PUSH2 0x2F6 PUSH2 0x848 CALLDATASIZE PUSH1 0x4 PUSH2 0x4E0F JUMP JUMPDEST PUSH2 0x1AEA JUMP JUMPDEST CALLVALUE DUP1 ISZERO PUSH2 0x859 JUMPI PUSH1 0x0 DUP1 REVERT JUMPDEST POP PUSH2 0x2F6 PUSH2 0x868 CALLDATASIZE PUSH1 0x4 PUSH2 0x4E0F JUMP JUMPDEST PUSH2 0x1B1D JUMP JUMPDEST CALLVALUE DUP1 ISZERO PUSH2 0x879 JUMPI PUSH1 0x0 DUP1 REVERT JUMPDEST POP PUSH2 0x317 PUSH2 0x888 CALLDATASIZE PUSH1 0x4 PUSH2 0x4EEE JUMP JUMPDEST PUSH2 0x1BC8 JUMP JUMPDEST CALLVALUE DUP1 ISZERO PUSH2 0x899 JUMPI PUSH1 0x0 DUP1 REVERT JUMPDEST POP PUSH2 0x8AD PUSH2 0x8A8 CALLDATASIZE PUSH1 0x4 PUSH2 0x4E69 JUMP JUMPDEST PUSH2 0x1BF3 JUMP JUMPDEST PUSH1 0x40 MLOAD PUSH2 0x321 SWAP2 SWAP1 PUSH2 0x4F27 JUMP JUMPDEST CALLVALUE DUP1 ISZERO PUSH2 0x8C6 JUMPI PUSH1 0x0 DUP1 REVERT JUMPDEST POP PUSH2 0x2F6 PUSH2 0x1DFC JUMP JUMPDEST CALLVALUE DUP1 ISZERO PUSH2 0x8DB JUMPI PUSH1 0x0 DUP1 REVERT JUMPDEST POP PUSH2 0x2F6 PUSH2 0x8EA CALLDATASIZE PUSH1 0x4 PUSH2 0x4E86 JUMP JUMPDEST PUSH2 0x1EBF JUMP JUMPDEST CALLVALUE DUP1 ISZERO PUSH2 0x8FB JUMPI PUSH1 0x0 DUP1 REVERT JUMPDEST POP PUSH2 0x2F6 PUSH2 0x90A CALLDATASIZE PUSH1 0x4 PUSH2 0x4E69 JUMP JUMPDEST PUSH2 0x1F74 JUMP JUMPDEST CALLVALUE DUP1 ISZERO PUSH2 0x91B JUMPI PUSH1 0x0 DUP1 REVERT JUMPDEST POP PUSH2 0x2F6 PUSH2 0x92A CALLDATASIZE PUSH1 0x4 PUSH2 0x4E0F JUMP JUMPDEST PUSH2 0x200C JUMP JUMPDEST PUSH1 0x0 PUSH2 0x93C DUP3 PUSH1 0x3 PUSH2 0x20EB JUMP JUMPDEST PUSH1 0x1E SLOAD PUSH1 0x1 PUSH1 0x1 PUSH1 0xA0 SHL SUB AND PUSH1 0x0 SWAP1 DUP2 MSTORE PUSH1 0xF PUSH1 0x20 MSTORE PUSH1 0x40 SWAP1 KECCAK256 SLOAD SWAP1 SWAP2 POP PUSH2 0x964 SWAP1 DUP3 PUSH2 0x20FE JUMP JUMPDEST PUSH1 0x1E SLOAD PUSH1 0x1 PUSH1 0x1 PUSH1 0xA0 SHL SUB SWAP1 DUP2 AND PUSH1 0x0 SWAP1 DUP2 MSTORE PUSH1 0xF PUSH1 0x20 MSTORE PUSH1 0x40 DUP1 DUP3 KECCAK256 SWAP4 SWAP1 SWAP4 SSTORE PUSH1 0x1F SLOAD SWAP1 SWAP2 AND DUP2 MSTORE KECCAK256 SLOAD PUSH2 0x999 SWAP1 DUP3 PUSH2 0x20FE JUMP JUMPDEST PUSH1 0x1F SLOAD PUSH1 0x1 PUSH1 0x1 PUSH1 0xA0 SHL SUB SWAP1 DUP2 AND PUSH1 0x0 SWAP1 DUP2 MSTORE PUSH1 0xF PUSH1 0x20 SWAP1 DUP2 MSTORE PUSH1 0x40 DUP1 DUP4 KECCAK256 SWAP5 SWAP1 SWAP5 SSTORE SLOAD SWAP1 SWAP2 AND DUP2 MSTORE KECCAK256 SLOAD PUSH2 0x9CE SWAP1 DUP3 PUSH2 0x20FE JUMP JUMPDEST PUSH1 0x20 DUP1 SLOAD PUSH1 0x1 PUSH1 0x1 PUSH1 0xA0 SHL SUB AND PUSH1 0x0 SWAP1 DUP2 MSTORE PUSH1 0xF SWAP1 SWAP2 MSTORE PUSH1 0x40 SWAP1 KECCAK256 SSTORE POP POP JUMP JUMPDEST PUSH1 0x60 PUSH1 0x12 DUP1 SLOAD PUSH2 0x9FD SWAP1 PUSH2 0x4FC7 JUMP JUMPDEST DUP1 PUSH1 0x1F ADD PUSH1 0x20 DUP1 SWAP2 DIV MUL PUSH1 0x20 ADD PUSH1 0x40 MLOAD SWAP1 DUP2 ADD PUSH1 0x40 MSTORE DUP1 SWAP3 SWAP2 SWAP1 DUP2 DUP2 MSTORE PUSH1 0x20 ADD DUP3 DUP1 SLOAD PUSH2 0xA29 SWAP1 PUSH2 0x4FC7 JUMP JUMPDEST DUP1 ISZERO PUSH2 0xA76 JUMPI DUP1 PUSH1 0x1F LT PUSH2 0xA4B JUMPI PUSH2 0x100 DUP1 DUP4 SLOAD DIV MUL DUP4 MSTORE SWAP2 PUSH1 0x20 ADD SWAP2 PUSH2 0xA76 JUMP JUMPDEST DUP3 ADD SWAP2 SWAP1 PUSH1 0x0 MSTORE PUSH1 0x20 PUSH1 0x0 KECCAK256 SWAP1 JUMPDEST DUP2 SLOAD DUP2 MSTORE SWAP1 PUSH1 0x1 ADD SWAP1 PUSH1 0x20 ADD DUP1 DUP4 GT PUSH2 0xA59 JUMPI DUP3 SWAP1 SUB PUSH1 0x1F AND DUP3 ADD SWAP2 JUMPDEST POP POP POP POP POP SWAP1 POP SWAP1 JUMP JUMPDEST PUSH1 0x0 CALLER PUSH2 0xA8E DUP2 DUP6 DUP6 PUSH2 0x210A JUMP JUMPDEST PUSH1 0x1 SWAP2 POP POP JUMPDEST SWAP3 SWAP2 POP POP JUMP JUMPDEST PUSH1 0x5 SLOAD PUSH1 0x1 PUSH1 0x1 PUSH1 0xA0 SHL SUB AND CALLER EQ PUSH2 0xACD JUMPI PUSH1 0x40 MLOAD PUSH3 0x461BCD PUSH1 0xE5 SHL DUP2 MSTORE PUSH1 0x4 ADD PUSH2 0xAC4 SWAP1 PUSH2 0x5002 JUMP JUMPDEST PUSH1 0x40 MLOAD DUP1 SWAP2 SUB SWAP1 REVERT JUMPDEST PUSH1 0x15 SLOAD DUP2 LT PUSH2 0xB3A JUMPI PUSH1 0x40 MLOAD PUSH3 0x461BCD PUSH1 0xE5 SHL DUP2 MSTORE PUSH1 0x20 PUSH1 0x4 DUP3 ADD MSTORE PUSH1 0x33 PUSH1 0x24 DUP3 ADD MSTORE PUSH32 0x54616C6178546F6B656E3A20416D6F756E74206275726E74206C617267657220 PUSH1 0x44 DUP3 ADD MSTORE PUSH19 0x1D1A185B8814DD185ADA5B99C814995DD85C99 PUSH1 0x6A SHL PUSH1 0x64 DUP3 ADD MSTORE PUSH1 0x84 ADD PUSH2 0xAC4 JUMP JUMPDEST PUSH1 0x15 SLOAD PUSH2 0xB47 SWAP1 DUP3 PUSH2 0x222F JUMP JUMPDEST PUSH1 0x15 SSTORE PUSH1 0x11 SLOAD PUSH2 0xB57 SWAP1 DUP3 PUSH2 0x222F JUMP JUMPDEST PUSH1 0x11 SSTORE PUSH1 0x40 MLOAD DUP2 DUP2 MSTORE PUSH1 0x0 SWAP1 ADDRESS SWAP1 PUSH1 0x0 DUP1 MLOAD PUSH1 0x20 PUSH2 0x5279 DUP4 CODECOPY DUP2 MLOAD SWAP2 MSTORE SWAP1 PUSH1 0x20 ADD JUMPDEST PUSH1 0x40 MLOAD DUP1 SWAP2 SUB SWAP1 LOG3 POP JUMP JUMPDEST PUSH1 0x26 PUSH1 0x0 SWAP1 SLOAD SWAP1 PUSH2 0x100 EXP SWAP1 DIV PUSH1 0x1 PUSH1 0x1 PUSH1 0xA0 SHL SUB AND PUSH1 0x1 PUSH1 0x1 PUSH1 0xA0 SHL SUB AND PUSH4 0x38AF3EED PUSH1 0x40 MLOAD DUP2 PUSH4 0xFFFFFFFF AND PUSH1 0xE0 SHL DUP2 MSTORE PUSH1 0x4 ADD PUSH1 0x20 PUSH1 0x40 MLOAD DUP1 DUP4 SUB DUP2 DUP7 GAS STATICCALL ISZERO DUP1 ISZERO PUSH2 0xBD7 JUMPI RETURNDATASIZE PUSH1 0x0 DUP1 RETURNDATACOPY RETURNDATASIZE PUSH1 0x0 REVERT JUMPDEST POP POP POP POP PUSH1 0x40 MLOAD RETURNDATASIZE PUSH1 0x1F NOT PUSH1 0x1F DUP3 ADD AND DUP3 ADD DUP1 PUSH1 0x40 MSTORE POP DUP2 ADD SWAP1 PUSH2 0xBFB SWAP2 SWAP1 PUSH2 0x5037 JUMP JUMPDEST PUSH1 0x1 PUSH1 0x1 PUSH1 0xA0 SHL SUB AND CALLER PUSH1 0x1 PUSH1 0x1 PUSH1 0xA0 SHL SUB AND EQ PUSH2 0xC2B JUMPI PUSH1 0x40 MLOAD PUSH3 0x461BCD PUSH1 0xE5 SHL DUP2 MSTORE PUSH1 0x4 ADD PUSH2 0xAC4 SWAP1 PUSH2 0x5054 JUMP JUMPDEST PUSH1 0x26 SLOAD PUSH1 0x0 SWAP1 PUSH1 0x1 PUSH1 0x1 PUSH1 0xA0 SHL SUB AND PUSH4 0xE7D88C42 PUSH2 0xC47 PUSH2 0x223B JUMP JUMPDEST PUSH1 0x40 MLOAD DUP3 PUSH4 0xFFFFFFFF AND PUSH1 0xE0 SHL DUP2 MSTORE PUSH1 0x4 ADD PUSH2 0xC63 SWAP2 SWAP1 PUSH2 0x508B JUMP JUMPDEST PUSH1 0x20 PUSH1 0x40 MLOAD DUP1 DUP4 SUB DUP2 PUSH1 0x0 DUP8 GAS CALL ISZERO DUP1 ISZERO PUSH2 0xC82 JUMPI RETURNDATASIZE PUSH1 0x0 DUP1 RETURNDATACOPY RETURNDATASIZE PUSH1 0x0 REVERT JUMPDEST POP POP POP POP PUSH1 0x40 MLOAD RETURNDATASIZE PUSH1 0x1F NOT PUSH1 0x1F DUP3 ADD AND DUP3 ADD DUP1 PUSH1 0x40 MSTORE POP DUP2 ADD SWAP1 PUSH2 0xCA6 SWAP2 SWAP1 PUSH2 0x50BD JUMP JUMPDEST SWAP1 POP PUSH2 0xCD2 DUP2 PUSH1 0xF PUSH1 0x0 CALLER JUMPDEST PUSH1 0x1 PUSH1 0x1 PUSH1 0xA0 SHL SUB AND DUP2 MSTORE PUSH1 0x20 DUP2 ADD SWAP2 SWAP1 SWAP2 MSTORE PUSH1 0x40 ADD PUSH1 0x0 KECCAK256 SLOAD SWAP1 PUSH2 0x20FE JUMP JUMPDEST CALLER PUSH1 0x0 SWAP1 DUP2 MSTORE PUSH1 0xF PUSH1 0x20 MSTORE PUSH1 0x40 SWAP1 KECCAK256 SSTORE POP JUMP JUMPDEST PUSH2 0xD19 PUSH1 0x40 MLOAD DUP1 PUSH1 0xA0 ADD PUSH1 0x40 MSTORE DUP1 PUSH1 0x0 DUP2 MSTORE PUSH1 0x20 ADD PUSH1 0x0 DUP2 MSTORE PUSH1 0x20 ADD PUSH1 0x0 ISZERO ISZERO DUP2 MSTORE PUSH1 0x20 ADD PUSH1 0x0 DUP2 MSTORE PUSH1 0x20 ADD PUSH1 0x0 DUP2 MSTORE POP SWAP1 JUMP JUMPDEST CALLER PUSH1 0x0 SWAP1 DUP2 MSTORE PUSH1 0xE PUSH1 0x20 MSTORE PUSH1 0x40 SWAP1 KECCAK256 PUSH1 0x1 ADD SLOAD PUSH2 0xD9E JUMPI PUSH1 0x40 MLOAD PUSH3 0x461BCD PUSH1 0xE5 SHL DUP2 MSTORE PUSH1 0x20 PUSH1 0x4 DUP3 ADD MSTORE PUSH1 0x3A PUSH1 0x24 DUP3 ADD MSTORE PUSH32 0x4D756C74696C6F636B61626C653A20596F7520646F6E2774206861766520616E PUSH1 0x44 DUP3 ADD MSTORE PUSH32 0x792062616C616E636520666F7220707269766174652073616C65000000000000 PUSH1 0x64 DUP3 ADD MSTORE PUSH1 0x84 ADD PUSH2 0xAC4 JUMP JUMPDEST POP CALLER PUSH1 0x0 SWAP1 DUP2 MSTORE PUSH1 0xE PUSH1 0x20 SWAP1 DUP2 MSTORE PUSH1 0x40 SWAP2 DUP3 SWAP1 KECCAK256 DUP3 MLOAD PUSH1 0xA0 DUP2 ADD DUP5 MSTORE DUP2 SLOAD DUP2 MSTORE PUSH1 0x1 DUP3 ADD SLOAD SWAP3 DUP2 ADD SWAP3 SWAP1 SWAP3 MSTORE PUSH1 0x2 DUP2 ADD SLOAD PUSH1 0xFF AND ISZERO ISZERO SWAP3 DUP3 ADD SWAP3 SWAP1 SWAP3 MSTORE PUSH1 0x3 DUP3 ADD SLOAD PUSH1 0x60 DUP3 ADD MSTORE PUSH1 0x4 SWAP1 SWAP2 ADD SLOAD PUSH1 0x80 DUP3 ADD MSTORE SWAP1 JUMP JUMPDEST PUSH1 0x0 CALLER PUSH2 0xE01 DUP6 DUP3 DUP6 PUSH2 0x278C JUMP JUMPDEST PUSH2 0xE0C DUP6 DUP6 DUP6 PUSH2 0x2806 JUMP JUMPDEST POP PUSH1 0x1 SWAP5 SWAP4 POP POP POP POP JUMP JUMPDEST PUSH1 0x0 CALLER PUSH2 0xA8E DUP2 DUP6 DUP6 PUSH2 0xE2A DUP4 DUP4 PUSH2 0x1BC8 JUMP JUMPDEST PUSH2 0xE34 SWAP2 SWAP1 PUSH2 0x50EC JUMP JUMPDEST PUSH2 0x210A JUMP JUMPDEST PUSH1 0x2A PUSH1 0x0 SWAP1 SLOAD SWAP1 PUSH2 0x100 EXP SWAP1 DIV PUSH1 0x1 PUSH1 0x1 PUSH1 0xA0 SHL SUB AND PUSH1 0x1 PUSH1 0x1 PUSH1 0xA0 SHL SUB AND PUSH4 0x38AF3EED PUSH1 0x40 MLOAD DUP2 PUSH4 0xFFFFFFFF AND PUSH1 0xE0 SHL DUP2 MSTORE PUSH1 0x4 ADD PUSH1 0x20 PUSH1 0x40 MLOAD DUP1 DUP4 SUB DUP2 DUP7 GAS STATICCALL ISZERO DUP1 ISZERO PUSH2 0xE8C JUMPI RETURNDATASIZE PUSH1 0x0 DUP1 RETURNDATACOPY RETURNDATASIZE PUSH1 0x0 REVERT JUMPDEST POP POP POP POP PUSH1 0x40 MLOAD RETURNDATASIZE PUSH1 0x1F NOT PUSH1 0x1F DUP3 ADD AND DUP3 ADD DUP1 PUSH1 0x40 MSTORE POP DUP2 ADD SWAP1 PUSH2 0xEB0 SWAP2 SWAP1 PUSH2 0x5037 JUMP JUMPDEST PUSH1 0x1 PUSH1 0x1 PUSH1 0xA0 SHL SUB AND CALLER PUSH1 0x1 PUSH1 0x1 PUSH1 0xA0 SHL SUB AND EQ PUSH2 0xEE0 JUMPI PUSH1 0x40 MLOAD PUSH3 0x461BCD PUSH1 0xE5 SHL DUP2 MSTORE PUSH1 0x4 ADD PUSH2 0xAC4 SWAP1 PUSH2 0x5054 JUMP JUMPDEST PUSH1 0x2A SLOAD PUSH1 0x0 SWAP1 PUSH1 0x1 PUSH1 0x1 PUSH1 0xA0 SHL SUB AND PUSH4 0xE7D88C42 PUSH2 0xC47 PUSH2 0x2B43 JUMP JUMPDEST PUSH1 0x5 SLOAD PUSH1 0x1 PUSH1 0x1 PUSH1 0xA0 SHL SUB AND CALLER EQ PUSH2 0xF26 JUMPI PUSH1 0x40 MLOAD PUSH3 0x461BCD PUSH1 0xE5 SHL DUP2 MSTORE PUSH1 0x4 ADD PUSH2 0xAC4 SWAP1 PUSH2 0x5002 JUMP JUMPDEST PUSH2 0xF30 DUP3 DUP3 PUSH2 0x2F9C JUMP JUMPDEST POP POP JUMP JUMPDEST PUSH2 0xF3E CALLER DUP3 PUSH2 0x3069 JUMP JUMPDEST POP JUMP JUMPDEST PUSH1 0x28 PUSH1 0x0 SWAP1 SLOAD SWAP1 PUSH2 0x100 EXP SWAP1 DIV PUSH1 0x1 PUSH1 0x1 PUSH1 0xA0 SHL SUB AND PUSH1 0x1 PUSH1 0x1 PUSH1 0xA0 SHL SUB AND PUSH4 0x38AF3EED PUSH1 0x40 MLOAD DUP2 PUSH4 0xFFFFFFFF AND PUSH1 0xE0 SHL DUP2 MSTORE PUSH1 0x4 ADD PUSH1 0x20 PUSH1 0x40 MLOAD DUP1 DUP4 SUB DUP2 DUP7 GAS STATICCALL ISZERO DUP1 ISZERO PUSH2 0xF94 JUMPI RETURNDATASIZE PUSH1 0x0 DUP1 RETURNDATACOPY RETURNDATASIZE PUSH1 0x0 REVERT JUMPDEST POP POP POP POP PUSH1 0x40 MLOAD RETURNDATASIZE PUSH1 0x1F NOT PUSH1 0x1F DUP3 ADD AND DUP3 ADD DUP1 PUSH1 0x40 MSTORE POP DUP2 ADD SWAP1 PUSH2 0xFB8 SWAP2 SWAP1 PUSH2 0x5037 JUMP JUMPDEST PUSH1 0x1 PUSH1 0x1 PUSH1 0xA0 SHL SUB AND CALLER PUSH1 0x1 PUSH1 0x1 PUSH1 0xA0 SHL SUB AND EQ PUSH2 0xFE8 JUMPI PUSH1 0x40 MLOAD PUSH3 0x461BCD PUSH1 0xE5 SHL DUP2 MSTORE PUSH1 0x4 ADD PUSH2 0xAC4 SWAP1 PUSH2 0x5054 JUMP JUMPDEST PUSH1 0x28 SLOAD PUSH1 0x0 SWAP1 PUSH1 0x1 PUSH1 0x1 PUSH1 0xA0 SHL SUB AND PUSH4 0xE7D88C42 PUSH2 0xC47 PUSH2 0x2B43 JUMP JUMPDEST PUSH1 0x16 SLOAD PUSH1 0xFF AND ISZERO ISZERO PUSH1 0x1 EQ PUSH2 0x1067 JUMPI PUSH1 0x40 MLOAD PUSH3 0x461BCD PUSH1 0xE5 SHL DUP2 MSTORE PUSH1 0x20 PUSH1 0x4 DUP3 ADD MSTORE PUSH1 0x24 DUP1 DUP3 ADD MSTORE PUSH32 0x54616C6178546F6B656E3A2041697264726F70206973206E6F7420617661696C PUSH1 0x44 DUP3 ADD MSTORE PUSH4 0x61626C65 PUSH1 0xE0 SHL PUSH1 0x64 DUP3 ADD MSTORE PUSH1 0x84 ADD PUSH2 0xAC4 JUMP JUMPDEST PUSH1 0x0 PUSH2 0x1072 CALLER PUSH2 0x319D JUMP JUMPDEST ADDRESS PUSH1 0x0 SWAP1 DUP2 MSTORE PUSH1 0xF PUSH1 0x20 MSTORE PUSH1 0x40 SWAP1 KECCAK256 SLOAD SWAP1 SWAP2 POP PUSH2 0x108F SWAP1 DUP3 PUSH2 0x222F JUMP JUMPDEST ADDRESS PUSH1 0x0 SWAP1 DUP2 MSTORE PUSH1 0xF PUSH1 0x20 DUP2 SWAP1 MSTORE PUSH1 0x40 DUP3 KECCAK256 SWAP3 SWAP1 SWAP3 SSTORE PUSH2 0xCD2 SWAP2 DUP4 SWAP2 CALLER PUSH2 0xCB2 JUMP JUMPDEST PUSH1 0x5 SLOAD PUSH1 0x1 PUSH1 0x1 PUSH1 0xA0 SHL SUB AND CALLER EQ PUSH2 0x10DA JUMPI PUSH1 0x40 MLOAD PUSH3 0x461BCD PUSH1 0xE5 SHL DUP2 MSTORE PUSH1 0x4 ADD PUSH2 0xAC4 SWAP1 PUSH2 0x5002 JUMP JUMPDEST PUSH2 0x10E4 PUSH1 0x0 PUSH2 0x3376 JUMP JUMPDEST JUMP JUMPDEST PUSH2 0x10F1 DUP3 CALLER DUP4 PUSH2 0x278C JUMP JUMPDEST PUSH2 0xF30 DUP3 DUP3 PUSH2 0x3069 JUMP JUMPDEST DUP1 PUSH3 0x278D00 EQ DUP1 PUSH2 0x110E JUMPI POP DUP1 PUSH3 0x76A700 EQ JUMPDEST DUP1 PUSH2 0x111B JUMPI POP DUP1 PUSH3 0xED4E00 EQ JUMPDEST DUP1 PUSH2 0x1129 JUMPI POP DUP1 PUSH4 0x1E13380 EQ JUMPDEST PUSH2 0x1181 JUMPI PUSH1 0x40 MLOAD PUSH3 0x461BCD PUSH1 0xE5 SHL DUP2 MSTORE PUSH1 0x20 PUSH1 0x4 DUP3 ADD MSTORE PUSH1 0x24 DUP1 DUP3 ADD MSTORE PUSH32 0x54616C6178546F6B656E3A205374616B696E67206F7074696F6E206E6F742065 PUSH1 0x44 DUP3 ADD MSTORE PUSH4 0x1E1A5CDD PUSH1 0xE2 SHL PUSH1 0x64 DUP3 ADD MSTORE PUSH1 0x84 ADD PUSH2 0xAC4 JUMP JUMPDEST CALLER PUSH1 0x0 SWAP1 DUP2 MSTORE PUSH1 0xF PUSH1 0x20 MSTORE PUSH1 0x40 SWAP1 KECCAK256 SLOAD DUP3 LT PUSH2 0x11F2 JUMPI PUSH1 0x40 MLOAD PUSH3 0x461BCD PUSH1 0xE5 SHL DUP2 MSTORE PUSH1 0x20 PUSH1 0x4 DUP3 ADD MSTORE PUSH1 0x2A PUSH1 0x24 DUP3 ADD MSTORE PUSH32 0x54616C6178546F6B656E3A2043616E6E6F74207374616B65206D6F7265207468 PUSH1 0x44 DUP3 ADD MSTORE PUSH10 0x616E2062616C616E6365 PUSH1 0xB0 SHL PUSH1 0x64 DUP3 ADD MSTORE PUSH1 0x84 ADD PUSH2 0xAC4 JUMP JUMPDEST PUSH1 0x0 DUP2 DUP2 MSTORE PUSH1 0x14 PUSH1 0x20 MSTORE PUSH1 0x40 SWAP1 KECCAK256 SLOAD PUSH2 0x120E SWAP1 DUP4 SWAP1 DUP4 SWAP1 PUSH2 0x33C8 JUMP JUMPDEST PUSH2 0x1218 CALLER DUP4 PUSH2 0x3069 JUMP JUMPDEST ADDRESS PUSH1 0x0 SWAP1 DUP2 MSTORE PUSH1 0xF PUSH1 0x20 MSTORE PUSH1 0x40 SWAP1 KECCAK256 SLOAD PUSH2 0x1232 SWAP1 DUP4 PUSH2 0x20FE JUMP JUMPDEST ADDRESS PUSH1 0x0 SWAP1 DUP2 MSTORE PUSH1 0xF PUSH1 0x20 MSTORE PUSH1 0x40 SWAP1 KECCAK256 SSTORE POP POP JUMP JUMPDEST PUSH1 0x0 PUSH2 0xCA6 CALLER PUSH2 0x3575 JUMP JUMPDEST PUSH1 0x25 PUSH1 0x0 SWAP1 SLOAD SWAP1 PUSH2 0x100 EXP SWAP1 DIV PUSH1 0x1 PUSH1 0x1 PUSH1 0xA0 SHL SUB AND PUSH1 0x1 PUSH1 0x1 PUSH1 0xA0 SHL SUB AND PUSH4 0x38AF3EED PUSH1 0x40 MLOAD DUP2 PUSH4 0xFFFFFFFF AND PUSH1 0xE0 SHL DUP2 MSTORE PUSH1 0x4 ADD PUSH1 0x20 PUSH1 0x40 MLOAD DUP1 DUP4 SUB DUP2 DUP7 GAS STATICCALL ISZERO DUP1 ISZERO PUSH2 0x12A4 JUMPI RETURNDATASIZE PUSH1 0x0 DUP1 RETURNDATACOPY RETURNDATASIZE PUSH1 0x0 REVERT JUMPDEST POP POP POP POP PUSH1 0x40 MLOAD RETURNDATASIZE PUSH1 0x1F NOT PUSH1 0x1F DUP3 ADD AND DUP3 ADD DUP1 PUSH1 0x40 MSTORE POP DUP2 ADD SWAP1 PUSH2 0x12C8 SWAP2 SWAP1 PUSH2 0x5037 JUMP JUMPDEST PUSH1 0x1 PUSH1 0x1 PUSH1 0xA0 SHL SUB AND CALLER PUSH1 0x1 PUSH1 0x1 PUSH1 0xA0 SHL SUB AND EQ PUSH2 0x12F8 JUMPI PUSH1 0x40 MLOAD PUSH3 0x461BCD PUSH1 0xE5 SHL DUP2 MSTORE PUSH1 0x4 ADD PUSH2 0xAC4 SWAP1 PUSH2 0x5054 JUMP JUMPDEST PUSH1 0x25 SLOAD PUSH1 0x0 SWAP1 PUSH1 0x1 PUSH1 0x1 PUSH1 0xA0 SHL SUB AND PUSH4 0xE7D88C42 PUSH2 0xC47 PUSH2 0x223B JUMP JUMPDEST PUSH1 0x24 PUSH1 0x0 SWAP1 SLOAD SWAP1 PUSH2 0x100 EXP SWAP1 DIV PUSH1 0x1 PUSH1 0x1 PUSH1 0xA0 SHL SUB AND PUSH1 0x1 PUSH1 0x1 PUSH1 0xA0 SHL SUB AND PUSH4 0x38AF3EED PUSH1 0x40 MLOAD DUP2 PUSH4 0xFFFFFFFF AND PUSH1 0xE0 SHL DUP2 MSTORE PUSH1 0x4 ADD PUSH1 0x20 PUSH1 0x40 MLOAD DUP1 DUP4 SUB DUP2 DUP7 GAS STATICCALL ISZERO DUP1 ISZERO PUSH2 0x1367 JUMPI RETURNDATASIZE PUSH1 0x0 DUP1 RETURNDATACOPY RETURNDATASIZE PUSH1 0x0 REVERT JUMPDEST POP POP POP POP PUSH1 0x40 MLOAD RETURNDATASIZE PUSH1 0x1F NOT PUSH1 0x1F DUP3 ADD AND DUP3 ADD DUP1 PUSH1 0x40 MSTORE POP DUP2 ADD SWAP1 PUSH2 0x138B SWAP2 SWAP1 PUSH2 0x5037 JUMP JUMPDEST PUSH1 0x1 PUSH1 0x1 PUSH1 0xA0 SHL SUB AND CALLER PUSH1 0x1 PUSH1 0x1 PUSH1 0xA0 SHL SUB AND EQ PUSH2 0x13BB JUMPI PUSH1 0x40 MLOAD PUSH3 0x461BCD PUSH1 0xE5 SHL DUP2 MSTORE PUSH1 0x4 ADD PUSH2 0xAC4 SWAP1 PUSH2 0x5054 JUMP JUMPDEST PUSH1 0x24 SLOAD PUSH1 0x0 SWAP1 PUSH1 0x1 PUSH1 0x1 PUSH1 0xA0 SHL SUB AND PUSH4 0xE7D88C42 PUSH2 0xC47 PUSH2 0x36B5 JUMP JUMPDEST PUSH1 0x27 PUSH1 0x0 SWAP1 SLOAD SWAP1 PUSH2 0x100 EXP SWAP1 DIV PUSH1 0x1 PUSH1 0x1 PUSH1 0xA0 SHL SUB AND PUSH1 0x1 PUSH1 0x1 PUSH1 0xA0 SHL SUB AND PUSH4 0x38AF3EED PUSH1 0x40 MLOAD DUP2 PUSH4 0xFFFFFFFF AND PUSH1 0xE0 SHL DUP2 MSTORE PUSH1 0x4 ADD PUSH1 0x20 PUSH1 0x40 MLOAD DUP1 DUP4 SUB DUP2 DUP7 GAS STATICCALL ISZERO DUP1 ISZERO PUSH2 0x142A JUMPI RETURNDATASIZE PUSH1 0x0 DUP1 RETURNDATACOPY RETURNDATASIZE PUSH1 0x0 REVERT JUMPDEST POP POP POP POP PUSH1 0x40 MLOAD RETURNDATASIZE PUSH1 0x1F NOT PUSH1 0x1F DUP3 ADD AND DUP3 ADD DUP1 PUSH1 0x40 MSTORE POP DUP2 ADD SWAP1 PUSH2 0x144E SWAP2 SWAP1 PUSH2 0x5037 JUMP JUMPDEST PUSH1 0x1 PUSH1 0x1 PUSH1 0xA0 SHL SUB AND CALLER PUSH1 0x1 PUSH1 0x1 PUSH1 0xA0 SHL SUB AND EQ PUSH2 0x147E JUMPI PUSH1 0x40 MLOAD PUSH3 0x461BCD PUSH1 0xE5 SHL DUP2 MSTORE PUSH1 0x4 ADD PUSH2 0xAC4 SWAP1 PUSH2 0x5054 JUMP JUMPDEST PUSH1 0x27 SLOAD PUSH1 0x0 SWAP1 PUSH1 0x1 PUSH1 0x1 PUSH1 0xA0 SHL SUB AND PUSH4 0xE7D88C42 PUSH2 0xC47 PUSH2 0x223B JUMP JUMPDEST PUSH1 0x5 SLOAD PUSH1 0x1 PUSH1 0x1 PUSH1 0xA0 SHL SUB AND CALLER EQ PUSH2 0x14C4 JUMPI PUSH1 0x40 MLOAD PUSH3 0x461BCD PUSH1 0xE5 SHL DUP2 MSTORE PUSH1 0x4 ADD PUSH2 0xAC4 SWAP1 PUSH2 0x5002 JUMP JUMPDEST PUSH1 0x16 DUP1 SLOAD PUSH3 0xFFFF00 NOT AND PUSH2 0x100 PUSH2 0xFFFF DUP5 AND MUL OR SWAP1 SSTORE CALLER PUSH1 0x40 MLOAD PUSH2 0xFFFF DUP4 AND DUP2 MSTORE PUSH1 0x1 PUSH1 0x1 PUSH1 0xA0 SHL SUB SWAP2 SWAP1 SWAP2 AND SWAP1 PUSH32 0xDF92943B31FFF67E8447FF9FA8B5E226DDCC5FB34D36CFE120C0F2B96EB8D6F7 SWAP1 PUSH1 0x20 ADD JUMPDEST PUSH1 0x40 MLOAD DUP1 SWAP2 SUB SWAP1 LOG2 POP JUMP JUMPDEST PUSH1 0x0 PUSH2 0x1537 PUSH1 0x5 SLOAD PUSH1 0x1 PUSH1 0x1 PUSH1 0xA0 SHL SUB AND SWAP1 JUMP JUMPDEST SWAP1 POP SWAP1 JUMP JUMPDEST PUSH1 0x5 SLOAD PUSH1 0x1 PUSH1 0x1 PUSH1 0xA0 SHL SUB AND CALLER EQ PUSH2 0x1566 JUMPI PUSH1 0x40 MLOAD PUSH3 0x461BCD PUSH1 0xE5 SHL DUP2 MSTORE PUSH1 0x4 ADD PUSH2 0xAC4 SWAP1 PUSH2 0x5002 JUMP JUMPDEST ADDRESS PUSH1 0x0 SWAP1 DUP2 MSTORE PUSH1 0xF PUSH1 0x20 MSTORE PUSH1 0x40 SWAP1 KECCAK256 SLOAD DUP2 LT PUSH2 0x15D9 JUMPI PUSH1 0x40 MLOAD PUSH3 0x461BCD PUSH1 0xE5 SHL DUP2 MSTORE PUSH1 0x20 PUSH1 0x4 DUP3 ADD MSTORE PUSH1 0x2C PUSH1 0x24 DUP3 ADD MSTORE PUSH32 0x54616C6178546F6B656E3A20416D6F756E74206275726E74206C617267657220 PUSH1 0x44 DUP3 ADD MSTORE PUSH12 0x7468616E2062616C616E6365 PUSH1 0xA0 SHL PUSH1 0x64 DUP3 ADD MSTORE PUSH1 0x84 ADD PUSH2 0xAC4 JUMP JUMPDEST ADDRESS PUSH1 0x0 SWAP1 DUP2 MSTORE PUSH1 0xF PUSH1 0x20 MSTORE PUSH1 0x40 SWAP1 KECCAK256 SLOAD PUSH2 0x15F3 SWAP1 DUP3 PUSH2 0x222F JUMP JUMPDEST ADDRESS PUSH1 0x0 SWAP1 DUP2 MSTORE PUSH1 0xF PUSH1 0x20 MSTORE PUSH1 0x40 SWAP1 KECCAK256 SSTORE PUSH1 0x11 SLOAD PUSH2 0xB57 SWAP1 DUP3 PUSH2 0x222F JUMP JUMPDEST PUSH1 0x5 SLOAD PUSH1 0x1 PUSH1 0x1 PUSH1 0xA0 SHL SUB AND CALLER EQ PUSH2 0x163A JUMPI PUSH1 0x40 MLOAD PUSH3 0x461BCD PUSH1 0xE5 SHL DUP2 MSTORE PUSH1 0x4 ADD PUSH2 0xAC4 SWAP1 PUSH2 0x5002 JUMP JUMPDEST PUSH2 0xF3E DUP2 PUSH2 0x3B5A JUMP JUMPDEST PUSH1 0x29 PUSH1 0x0 SWAP1 SLOAD SWAP1 PUSH2 0x100 EXP SWAP1 DIV PUSH1 0x1 PUSH1 0x1 PUSH1 0xA0 SHL SUB AND PUSH1 0x1 PUSH1 0x1 PUSH1 0xA0 SHL SUB AND PUSH4 0x38AF3EED PUSH1 0x40 MLOAD DUP2 PUSH4 0xFFFFFFFF AND PUSH1 0xE0 SHL DUP2 MSTORE PUSH1 0x4 ADD PUSH1 0x20 PUSH1 0x40 MLOAD DUP1 DUP4 SUB DUP2 DUP7 GAS STATICCALL ISZERO DUP1 ISZERO PUSH2 0x1696 JUMPI RETURNDATASIZE PUSH1 0x0 DUP1 RETURNDATACOPY RETURNDATASIZE PUSH1 0x0 REVERT JUMPDEST POP POP POP POP PUSH1 0x40 MLOAD RETURNDATASIZE PUSH1 0x1F NOT PUSH1 0x1F DUP3 ADD AND DUP3 ADD DUP1 PUSH1 0x40 MSTORE POP DUP2 ADD SWAP1 PUSH2 0x16BA SWAP2 SWAP1 PUSH2 0x5037 JUMP JUMPDEST PUSH1 0x1 PUSH1 0x1 PUSH1 0xA0 SHL SUB AND CALLER PUSH1 0x1 PUSH1 0x1 PUSH1 0xA0 SHL SUB AND EQ PUSH2 0x16EA JUMPI PUSH1 0x40 MLOAD PUSH3 0x461BCD PUSH1 0xE5 SHL DUP2 MSTORE PUSH1 0x4 ADD PUSH2 0xAC4 SWAP1 PUSH2 0x5054 JUMP JUMPDEST PUSH1 0x29 SLOAD PUSH1 0x0 SWAP1 PUSH1 0x1 PUSH1 0x1 PUSH1 0xA0 SHL SUB AND PUSH4 0xE7D88C42 PUSH2 0xC47 PUSH2 0x2B43 JUMP JUMPDEST PUSH1 0x21 PUSH1 0x0 SWAP1 SLOAD SWAP1 PUSH2 0x100 EXP SWAP1 DIV PUSH1 0x1 PUSH1 0x1 PUSH1 0xA0 SHL SUB AND PUSH1 0x1 PUSH1 0x1 PUSH1 0xA0 SHL SUB AND PUSH4 0x38AF3EED PUSH1 0x40 MLOAD DUP2 PUSH4 0xFFFFFFFF AND PUSH1 0xE0 SHL DUP2 MSTORE PUSH1 0x4 ADD PUSH1 0x20 PUSH1 0x40 MLOAD DUP1 DUP4 SUB DUP2 DUP7 GAS STATICCALL ISZERO DUP1 ISZERO PUSH2 0x1759 JUMPI RETURNDATASIZE PUSH1 0x0 DUP1 RETURNDATACOPY RETURNDATASIZE PUSH1 0x0 REVERT JUMPDEST POP POP POP POP PUSH1 0x40 MLOAD RETURNDATASIZE PUSH1 0x1F NOT PUSH1 0x1F DUP3 ADD AND DUP3 ADD DUP1 PUSH1 0x40 MSTORE POP DUP2 ADD SWAP1 PUSH2 0x177D SWAP2 SWAP1 PUSH2 0x5037 JUMP JUMPDEST PUSH1 0x1 PUSH1 0x1 PUSH1 0xA0 SHL SUB AND CALLER PUSH1 0x1 PUSH1 0x1 PUSH1 0xA0 SHL SUB AND EQ PUSH2 0x17AD JUMPI PUSH1 0x40 MLOAD PUSH3 0x461BCD PUSH1 0xE5 SHL DUP2 MSTORE PUSH1 0x4 ADD PUSH2 0xAC4 SWAP1 PUSH2 0x5054 JUMP JUMPDEST PUSH1 0x21 SLOAD PUSH1 0x0 SWAP1 PUSH1 0x1 PUSH1 0x1 PUSH1 0xA0 SHL SUB AND PUSH4 0xE7D88C42 PUSH2 0xC47 PUSH2 0x3BFE JUMP JUMPDEST PUSH1 0x60 PUSH1 0x13 DUP1 SLOAD PUSH2 0x9FD SWAP1 PUSH2 0x4FC7 JUMP JUMPDEST PUSH1 0x5 SLOAD PUSH1 0x1 PUSH1 0x1 PUSH1 0xA0 SHL SUB AND CALLER EQ PUSH2 0x1802 JUMPI PUSH1 0x40 MLOAD PUSH3 0x461BCD PUSH1 0xE5 SHL DUP2 MSTORE PUSH1 0x4 ADD PUSH2 0xAC4 SWAP1 PUSH2 0x5002 JUMP JUMPDEST PUSH1 0x0 DUP2 GT PUSH2 0x186B JUMPI PUSH1 0x40 MLOAD PUSH3 0x461BCD PUSH1 0xE5 SHL DUP2 MSTORE PUSH1 0x20 PUSH1 0x4 DUP3 ADD MSTORE PUSH1 0x30 PUSH1 0x24 DUP3 ADD MSTORE PUSH32 0x54616C6178546F6B656E3A2043616E6E6F74206164642062656E656669636961 PUSH1 0x44 DUP3 ADD MSTORE PUSH16 0x1C9E481DDA5D1A080C08185B5BDD5B9D PUSH1 0x82 SHL PUSH1 0x64 DUP3 ADD MSTORE PUSH1 0x84 ADD PUSH2 0xAC4 JUMP JUMPDEST PUSH2 0xF30 DUP3 DUP3 PUSH2 0x3F9A JUMP JUMPDEST PUSH1 0x5 SLOAD PUSH1 0x1 PUSH1 0x1 PUSH1 0xA0 SHL SUB AND CALLER EQ PUSH2 0x189F JUMPI PUSH1 0x40 MLOAD PUSH3 0x461BCD PUSH1 0xE5 SHL DUP2 MSTORE PUSH1 0x4 ADD PUSH2 0xAC4 SWAP1 PUSH2 0x5002 JUMP JUMPDEST DUP1 PUSH2 0x18E6 JUMPI PUSH1 0x40 MLOAD PUSH3 0x461BCD PUSH1 0xE5 SHL DUP2 MSTORE PUSH1 0x20 PUSH1 0x4 DUP3 ADD MSTORE PUSH1 0x17 PUSH1 0x24 DUP3 ADD MSTORE PUSH23 0x416D6F756E74206D696E742063616E6E6F74206265203 PUSH1 0x4C SHL PUSH1 0x44 DUP3 ADD MSTORE PUSH1 0x64 ADD PUSH2 0xAC4 JUMP JUMPDEST PUSH1 0x15 SLOAD PUSH2 0x18F3 SWAP1 DUP3 PUSH2 0x20FE JUMP JUMPDEST PUSH1 0x15 SSTORE PUSH1 0x11 SLOAD PUSH2 0x1903 SWAP1 DUP3 PUSH2 0x20FE JUMP JUMPDEST PUSH1 0x11 SSTORE PUSH1 0x40 MLOAD DUP2 DUP2 MSTORE ADDRESS SWAP1 PUSH1 0x0 SWAP1 PUSH1 0x0 DUP1 MLOAD PUSH1 0x20 PUSH2 0x5279 DUP4 CODECOPY DUP2 MLOAD SWAP2 MSTORE SWAP1 PUSH1 0x20 ADD PUSH2 0xB79 JUMP JUMPDEST PUSH1 0x0 CALLER DUP2 PUSH2 0x1937 DUP3 DUP7 PUSH2 0x1BC8 JUMP JUMPDEST SWAP1 POP DUP4 DUP2 LT ISZERO PUSH2 0x1997 JUMPI PUSH1 0x40 MLOAD PUSH3 0x461BCD PUSH1 0xE5 SHL DUP2 MSTORE PUSH1 0x20 PUSH1 0x4 DUP3 ADD MSTORE PUSH1 0x25 PUSH1 0x24 DUP3 ADD MSTORE PUSH32 0x45524332303A2064656372656173656420616C6C6F77616E63652062656C6F77 PUSH1 0x44 DUP3 ADD MSTORE PUSH5 0x207A65726F PUSH1 0xD8 SHL PUSH1 0x64 DUP3 ADD MSTORE PUSH1 0x84 ADD PUSH2 0xAC4 JUMP JUMPDEST PUSH2 0xE0C DUP3 DUP7 DUP7 DUP5 SUB PUSH2 0x210A JUMP JUMPDEST PUSH1 0x0 CALLER PUSH2 0xA8E DUP2 DUP6 DUP6 PUSH2 0x2806 JUMP JUMPDEST PUSH1 0x5 SLOAD PUSH1 0x1 PUSH1 0x1 PUSH1 0xA0 SHL SUB AND CALLER EQ PUSH2 0x19DC JUMPI PUSH1 0x40 MLOAD PUSH3 0x461BCD PUSH1 0xE5 SHL DUP2 MSTORE PUSH1 0x4 ADD PUSH2 0xAC4 SWAP1 PUSH2 0x5002 JUMP JUMPDEST PUSH1 0x16 DUP1 SLOAD PUSH1 0xFF NOT AND DUP3 ISZERO ISZERO OR SWAP1 SSTORE CALLER PUSH1 0x1 PUSH1 0x1 PUSH1 0xA0 SHL SUB AND PUSH32 0xE596A4FD4BA2E7F54093D98B96267C6B0DBAE1E317BED8123D9FBC868C028377 DUP3 PUSH1 0x40 MLOAD PUSH2 0x1518 SWAP2 ISZERO ISZERO DUP2 MSTORE PUSH1 0x20 ADD SWAP1 JUMP JUMPDEST PUSH1 0x22 PUSH1 0x0 SWAP1 SLOAD SWAP1 PUSH2 0x100 EXP SWAP1 DIV PUSH1 0x1 PUSH1 0x1 PUSH1 0xA0 SHL SUB AND PUSH1 0x1 PUSH1 0x1 PUSH1 0xA0 SHL SUB AND PUSH4 0x38AF3EED PUSH1 0x40 MLOAD DUP2 PUSH4 0xFFFFFFFF AND PUSH1 0xE0 SHL DUP2 MSTORE PUSH1 0x4 ADD PUSH1 0x20 PUSH1 0x40 MLOAD DUP1 DUP4 SUB DUP2 DUP7 GAS STATICCALL ISZERO DUP1 ISZERO PUSH2 0x1A7A JUMPI RETURNDATASIZE PUSH1 0x0 DUP1 RETURNDATACOPY RETURNDATASIZE PUSH1 0x0 REVERT JUMPDEST POP POP POP POP PUSH1 0x40 MLOAD RETURNDATASIZE PUSH1 0x1F NOT PUSH1 0x1F DUP3 ADD AND DUP3 ADD DUP1 PUSH1 0x40 MSTORE POP DUP2 ADD SWAP1 PUSH2 0x1A9E SWAP2 SWAP1 PUSH2 0x5037 JUMP JUMPDEST PUSH1 0x1 PUSH1 0x1 PUSH1 0xA0 SHL SUB AND CALLER PUSH1 0x1 PUSH1 0x1 PUSH1 0xA0 SHL SUB AND EQ PUSH2 0x1ACE JUMPI PUSH1 0x40 MLOAD PUSH3 0x461BCD PUSH1 0xE5 SHL DUP2 MSTORE PUSH1 0x4 ADD PUSH2 0xAC4 SWAP1 PUSH2 0x5054 JUMP JUMPDEST PUSH1 0x22 SLOAD PUSH1 0x0 SWAP1 PUSH1 0x1 PUSH1 0x1 PUSH1 0xA0 SHL SUB AND PUSH4 0xE7D88C42 PUSH2 0xC47 PUSH2 0x36B5 JUMP JUMPDEST PUSH1 0x5 SLOAD PUSH1 0x1 PUSH1 0x1 PUSH1 0xA0 SHL SUB AND CALLER EQ PUSH2 0x1B14 JUMPI PUSH1 0x40 MLOAD PUSH3 0x461BCD PUSH1 0xE5 SHL DUP2 MSTORE PUSH1 0x4 ADD PUSH2 0xAC4 SWAP1 PUSH2 0x5002 JUMP JUMPDEST PUSH2 0xF3E DUP2 PUSH2 0x40F7 JUMP JUMPDEST PUSH1 0x5 SLOAD PUSH1 0x1 PUSH1 0x1 PUSH1 0xA0 SHL SUB AND CALLER EQ PUSH2 0x1B47 JUMPI PUSH1 0x40 MLOAD PUSH3 0x461BCD PUSH1 0xE5 SHL DUP2 MSTORE PUSH1 0x4 ADD PUSH2 0xAC4 SWAP1 PUSH2 0x5002 JUMP JUMPDEST PUSH1 0x0 DUP2 GT PUSH2 0x1B91 JUMPI PUSH1 0x40 MLOAD PUSH3 0x461BCD PUSH1 0xE5 SHL DUP2 MSTORE PUSH1 0x20 PUSH1 0x4 DUP3 ADD MSTORE PUSH1 0x17 PUSH1 0x24 DUP3 ADD MSTORE PUSH23 0x416D6F756E74206D696E742063616E6E6F74206265203 PUSH1 0x4C SHL PUSH1 0x44 DUP3 ADD MSTORE PUSH1 0x64 ADD PUSH2 0xAC4 JUMP JUMPDEST ADDRESS PUSH1 0x0 SWAP1 DUP2 MSTORE PUSH1 0xF PUSH1 0x20 MSTORE PUSH1 0x40 SWAP1 KECCAK256 SLOAD PUSH2 0x1BAB SWAP1 DUP3 PUSH2 0x20FE JUMP JUMPDEST ADDRESS PUSH1 0x0 SWAP1 DUP2 MSTORE PUSH1 0xF PUSH1 0x20 MSTORE PUSH1 0x40 SWAP1 KECCAK256 SSTORE PUSH1 0x11 SLOAD PUSH2 0x1903 SWAP1 DUP3 PUSH2 0x20FE JUMP JUMPDEST PUSH1 0x1 PUSH1 0x1 PUSH1 0xA0 SHL SUB SWAP2 DUP3 AND PUSH1 0x0 SWAP1 DUP2 MSTORE PUSH1 0x10 PUSH1 0x20 SWAP1 DUP2 MSTORE PUSH1 0x40 DUP1 DUP4 KECCAK256 SWAP4 SWAP1 SWAP5 AND DUP3 MSTORE SWAP2 SWAP1 SWAP2 MSTORE KECCAK256 SLOAD SWAP1 JUMP JUMPDEST PUSH1 0x40 DUP1 MLOAD DUP1 DUP3 ADD SWAP1 SWAP2 MSTORE PUSH1 0x0 DUP2 MSTORE PUSH1 0x60 PUSH1 0x20 DUP3 ADD MSTORE PUSH1 0x0 DUP1 PUSH1 0x40 MLOAD DUP1 PUSH1 0x40 ADD PUSH1 0x40 MSTORE DUP1 PUSH1 0x0 DUP2 MSTORE PUSH1 0x20 ADD PUSH1 0x8 PUSH1 0x9 PUSH1 0x0 DUP9 PUSH1 0x1 PUSH1 0x1 PUSH1 0xA0 SHL SUB AND PUSH1 0x1 PUSH1 0x1 PUSH1 0xA0 SHL SUB AND DUP2 MSTORE PUSH1 0x20 ADD SWAP1 DUP2 MSTORE PUSH1 0x20 ADD PUSH1 0x0 KECCAK256 SLOAD DUP2 SLOAD DUP2 LT PUSH2 0x1C55 JUMPI PUSH2 0x1C55 PUSH2 0x5104 JUMP JUMPDEST SWAP1 PUSH1 0x0 MSTORE PUSH1 0x20 PUSH1 0x0 KECCAK256 SWAP1 PUSH1 0x3 MUL ADD PUSH1 0x2 ADD DUP1 SLOAD DUP1 PUSH1 0x20 MUL PUSH1 0x20 ADD PUSH1 0x40 MLOAD SWAP1 DUP2 ADD PUSH1 0x40 MSTORE DUP1 SWAP3 SWAP2 SWAP1 DUP2 DUP2 MSTORE PUSH1 0x20 ADD PUSH1 0x0 SWAP1 JUMPDEST DUP3 DUP3 LT ISZERO PUSH2 0x1D01 JUMPI PUSH1 0x0 DUP5 DUP2 MSTORE PUSH1 0x20 SWAP1 DUP2 SWAP1 KECCAK256 PUSH1 0x40 DUP1 MLOAD PUSH1 0xE0 DUP2 ADD DUP3 MSTORE PUSH1 0x7 DUP7 MUL SWAP1 SWAP3 ADD DUP1 SLOAD PUSH1 0x1 PUSH1 0x1 PUSH1 0xA0 SHL SUB AND DUP4 MSTORE PUSH1 0x1 DUP1 DUP3 ADD SLOAD DUP5 DUP7 ADD MSTORE PUSH1 0x2 DUP3 ADD SLOAD SWAP3 DUP5 ADD SWAP3 SWAP1 SWAP3 MSTORE PUSH1 0x3 DUP2 ADD SLOAD PUSH1 0x60 DUP5 ADD MSTORE PUSH1 0x4 DUP2 ADD SLOAD PUSH1 0x80 DUP5 ADD MSTORE PUSH1 0x5 DUP2 ADD SLOAD PUSH1 0xA0 DUP5 ADD MSTORE PUSH1 0x6 ADD SLOAD PUSH1 0xC0 DUP4 ADD MSTORE SWAP1 DUP4 MSTORE SWAP1 SWAP3 ADD SWAP2 ADD PUSH2 0x1C86 JUMP JUMPDEST POP POP POP SWAP2 MSTORE POP PUSH1 0x20 DUP2 ADD MLOAD MLOAD SWAP1 SWAP2 POP PUSH2 0x1D2C JUMPI PUSH1 0x40 MLOAD PUSH3 0x461BCD PUSH1 0xE5 SHL DUP2 MSTORE PUSH1 0x4 ADD PUSH2 0xAC4 SWAP1 PUSH2 0x511A JUMP JUMPDEST PUSH1 0x0 JUMPDEST DUP2 PUSH1 0x20 ADD MLOAD MLOAD DUP2 LT ISZERO PUSH2 0x1DF2 JUMPI PUSH1 0x0 PUSH2 0x1D86 DUP4 PUSH1 0x20 ADD MLOAD DUP4 DUP2 MLOAD DUP2 LT PUSH2 0x1D57 JUMPI PUSH2 0x1D57 PUSH2 0x5104 JUMP JUMPDEST PUSH1 0x20 MUL PUSH1 0x20 ADD ADD MLOAD DUP5 PUSH1 0x20 ADD MLOAD DUP5 DUP2 MLOAD DUP2 LT PUSH2 0x1D75 JUMPI PUSH2 0x1D75 PUSH2 0x5104 JUMP JUMPDEST PUSH1 0x20 MUL PUSH1 0x20 ADD ADD MLOAD PUSH1 0x20 ADD MLOAD PUSH2 0x419C JUMP JUMPDEST SWAP1 POP DUP1 DUP4 PUSH1 0x20 ADD MLOAD DUP4 DUP2 MLOAD DUP2 LT PUSH2 0x1D9F JUMPI PUSH2 0x1D9F PUSH2 0x5104 JUMP JUMPDEST PUSH1 0x20 MUL PUSH1 0x20 ADD ADD MLOAD PUSH1 0x60 ADD DUP2 DUP2 MSTORE POP POP DUP3 PUSH1 0x20 ADD MLOAD DUP3 DUP2 MLOAD DUP2 LT PUSH2 0x1DC5 JUMPI PUSH2 0x1DC5 PUSH2 0x5104 JUMP JUMPDEST PUSH1 0x20 MUL PUSH1 0x20 ADD ADD MLOAD PUSH1 0x20 ADD MLOAD DUP5 PUSH2 0x1DDC SWAP2 SWAP1 PUSH2 0x50EC JUMP JUMPDEST SWAP4 POP PUSH2 0x1DEB SWAP1 POP PUSH1 0x1 DUP3 PUSH2 0x50EC JUMP JUMPDEST SWAP1 POP PUSH2 0x1D2F JUMP JUMPDEST POP SWAP1 DUP2 MSTORE SWAP3 SWAP2 POP POP JUMP JUMPDEST PUSH1 0x23 PUSH1 0x0 SWAP1 SLOAD SWAP1 PUSH2 0x100 EXP SWAP1 DIV PUSH1 0x1 PUSH1 0x1 PUSH1 0xA0 SHL SUB AND PUSH1 0x1 PUSH1 0x1 PUSH1 0xA0 SHL SUB AND PUSH4 0x38AF3EED PUSH1 0x40 MLOAD DUP2 PUSH4 0xFFFFFFFF AND PUSH1 0xE0 SHL DUP2 MSTORE PUSH1 0x4 ADD PUSH1 0x20 PUSH1 0x40 MLOAD DUP1 DUP4 SUB DUP2 DUP7 GAS STATICCALL ISZERO DUP1 ISZERO PUSH2 0x1E4F JUMPI RETURNDATASIZE PUSH1 0x0 DUP1 RETURNDATACOPY RETURNDATASIZE PUSH1 0x0 REVERT JUMPDEST POP POP POP POP PUSH1 0x40 MLOAD RETURNDATASIZE PUSH1 0x1F NOT PUSH1 0x1F DUP3 ADD AND DUP3 ADD DUP1 PUSH1 0x40 MSTORE POP DUP2 ADD SWAP1 PUSH2 0x1E73 SWAP2 SWAP1 PUSH2 0x5037 JUMP JUMPDEST PUSH1 0x1 PUSH1 0x1 PUSH1 0xA0 SHL SUB AND CALLER PUSH1 0x1 PUSH1 0x1 PUSH1 0xA0 SHL SUB AND EQ PUSH2 0x1EA3 JUMPI PUSH1 0x40 MLOAD PUSH3 0x461BCD PUSH1 0xE5 SHL DUP2 MSTORE PUSH1 0x4 ADD PUSH2 0xAC4 SWAP1 PUSH2 0x5054 JUMP JUMPDEST PUSH1 0x23 SLOAD PUSH1 0x0 SWAP1 PUSH1 0x1 PUSH1 0x1 PUSH1 0xA0 SHL SUB AND PUSH4 0xE7D88C42 PUSH2 0xC47 PUSH2 0x36B5 JUMP JUMPDEST PUSH1 0x0 DUP1 PUSH2 0x1ECC DUP5 DUP5 PUSH2 0x41EF JUMP JUMPDEST SWAP2 POP SWAP2 POP PUSH2 0x1ED9 DUP2 PUSH2 0x1B1D JUMP JUMPDEST ADDRESS PUSH1 0x0 SWAP1 DUP2 MSTORE PUSH1 0xF PUSH1 0x20 MSTORE PUSH1 0x40 SWAP1 KECCAK256 SLOAD PUSH2 0x1EF3 SWAP1 DUP4 PUSH2 0x222F JUMP JUMPDEST ADDRESS PUSH1 0x0 SWAP1 DUP2 MSTORE PUSH1 0xF PUSH1 0x20 MSTORE PUSH1 0x40 SWAP1 KECCAK256 DUP2 SWAP1 SSTORE PUSH2 0x1F0F SWAP1 DUP3 PUSH2 0x222F JUMP JUMPDEST ADDRESS PUSH1 0x0 SWAP1 DUP2 MSTORE PUSH1 0xF PUSH1 0x20 MSTORE PUSH1 0x40 SWAP1 KECCAK256 SSTORE PUSH2 0x1F29 DUP2 DUP4 PUSH2 0x50EC JUMP JUMPDEST PUSH1 0x11 PUSH1 0x0 DUP3 DUP3 SLOAD PUSH2 0x1F3A SWAP2 SWAP1 PUSH2 0x50EC JUMP JUMPDEST SWAP1 SWAP2 SSTORE POP PUSH2 0x1F4A SWAP1 POP DUP2 DUP4 PUSH2 0x50EC JUMP JUMPDEST CALLER PUSH1 0x0 SWAP1 DUP2 MSTORE PUSH1 0xF PUSH1 0x20 MSTORE PUSH1 0x40 DUP2 KECCAK256 DUP1 SLOAD SWAP1 SWAP2 SWAP1 PUSH2 0x1F69 SWAP1 DUP5 SWAP1 PUSH2 0x50EC JUMP JUMPDEST SWAP1 SWAP2 SSTORE POP POP POP POP POP POP JUMP JUMPDEST PUSH1 0x5 SLOAD PUSH1 0x1 PUSH1 0x1 PUSH1 0xA0 SHL SUB AND CALLER EQ PUSH2 0x1F9E JUMPI PUSH1 0x40 MLOAD PUSH3 0x461BCD PUSH1 0xE5 SHL DUP2 MSTORE PUSH1 0x4 ADD PUSH2 0xAC4 SWAP1 PUSH2 0x5002 JUMP JUMPDEST PUSH1 0x1 PUSH1 0x1 PUSH1 0xA0 SHL SUB DUP2 AND PUSH2 0x2003 JUMPI PUSH1 0x40 MLOAD PUSH3 0x461BCD PUSH1 0xE5 SHL DUP2 MSTORE PUSH1 0x20 PUSH1 0x4 DUP3 ADD MSTORE PUSH1 0x26 PUSH1 0x24 DUP3 ADD MSTORE PUSH32 0x4F776E61626C653A206E6577206F776E657220697320746865207A65726F2061 PUSH1 0x44 DUP3 ADD MSTORE PUSH6 0x646472657373 PUSH1 0xD0 SHL PUSH1 0x64 DUP3 ADD MSTORE PUSH1 0x84 ADD PUSH2 0xAC4 JUMP JUMPDEST PUSH2 0xF3E DUP2 PUSH2 0x3376 JUMP JUMPDEST PUSH1 0x0 DUP1 PUSH2 0x2018 DUP4 PUSH2 0x4685 JUMP JUMPDEST SWAP2 POP SWAP2 POP PUSH2 0x2025 DUP2 PUSH2 0x1B1D JUMP JUMPDEST ADDRESS PUSH1 0x0 SWAP1 DUP2 MSTORE PUSH1 0xF PUSH1 0x20 MSTORE PUSH1 0x40 SWAP1 KECCAK256 SLOAD PUSH2 0x203F SWAP1 DUP4 PUSH2 0x222F JUMP JUMPDEST ADDRESS PUSH1 0x0 SWAP1 DUP2 MSTORE PUSH1 0xF PUSH1 0x20 MSTORE PUSH1 0x40 SWAP1 KECCAK256 DUP2 SWAP1 SSTORE PUSH2 0x205B SWAP1 DUP3 PUSH2 0x222F JUMP JUMPDEST ADDRESS PUSH1 0x0 SWAP1 DUP2 MSTORE PUSH1 0xF PUSH1 0x20 MSTORE PUSH1 0x40 SWAP1 KECCAK256 SSTORE PUSH2 0x2075 DUP2 DUP4 PUSH2 0x50EC JUMP JUMPDEST PUSH1 0x11 PUSH1 0x0 DUP3 DUP3 SLOAD PUSH2 0x2086 SWAP2 SWAP1 PUSH2 0x50EC JUMP JUMPDEST SWAP1 SWAP2 SSTORE POP PUSH2 0x2096 SWAP1 POP DUP2 DUP4 PUSH2 0x50EC JUMP JUMPDEST CALLER PUSH1 0x0 SWAP1 DUP2 MSTORE PUSH1 0xF PUSH1 0x20 MSTORE PUSH1 0x40 DUP2 KECCAK256 DUP1 SLOAD SWAP1 SWAP2 SWAP1 PUSH2 0x20B5 SWAP1 DUP5 SWAP1 PUSH2 0x50EC JUMP JUMPDEST SWAP1 SWAP2 SSTORE POP POP POP POP POP JUMP JUMPDEST PUSH1 0x0 DUP2 DUP5 DUP5 GT ISZERO PUSH2 0x20E3 JUMPI PUSH1 0x40 MLOAD PUSH3 0x461BCD PUSH1 0xE5 SHL DUP2 MSTORE PUSH1 0x4 ADD PUSH2 0xAC4 SWAP2 SWAP1 PUSH2 0x4D79 JUMP JUMPDEST POP POP POP SWAP1 SUB SWAP1 JUMP JUMPDEST PUSH1 0x0 PUSH2 0x20F7 DUP3 DUP5 PUSH2 0x517F JUMP JUMPDEST SWAP4 SWAP3 POP POP POP JUMP JUMPDEST PUSH1 0x0 PUSH2 0x20F7 DUP3 DUP5 PUSH2 0x50EC JUMP JUMPDEST PUSH1 0x1 PUSH1 0x1 PUSH1 0xA0 SHL SUB DUP4 AND PUSH2 0x216C JUMPI PUSH1 0x40 MLOAD PUSH3 0x461BCD PUSH1 0xE5 SHL DUP2 MSTORE PUSH1 0x20 PUSH1 0x4 DUP3 ADD MSTORE PUSH1 0x24 DUP1 DUP3 ADD MSTORE PUSH32 0x45524332303A20617070726F76652066726F6D20746865207A65726F20616464 PUSH1 0x44 DUP3 ADD MSTORE PUSH4 0x72657373 PUSH1 0xE0 SHL PUSH1 0x64 DUP3 ADD MSTORE PUSH1 0x84 ADD PUSH2 0xAC4 JUMP JUMPDEST PUSH1 0x1 PUSH1 0x1 PUSH1 0xA0 SHL SUB DUP3 AND PUSH2 0x21CD JUMPI PUSH1 0x40 MLOAD PUSH3 0x461BCD PUSH1 0xE5 SHL DUP2 MSTORE PUSH1 0x20 PUSH1 0x4 DUP3 ADD MSTORE PUSH1 0x22 PUSH1 0x24 DUP3 ADD MSTORE PUSH32 0x45524332303A20617070726F766520746F20746865207A65726F206164647265 PUSH1 0x44 DUP3 ADD MSTORE PUSH2 0x7373 PUSH1 0xF0 SHL PUSH1 0x64 DUP3 ADD MSTORE PUSH1 0x84 ADD PUSH2 0xAC4 JUMP JUMPDEST PUSH1 0x1 PUSH1 0x1 PUSH1 0xA0 SHL SUB DUP4 DUP2 AND PUSH1 0x0 DUP2 DUP2 MSTORE PUSH1 0x1 PUSH1 0x20 SWAP1 DUP2 MSTORE PUSH1 0x40 DUP1 DUP4 KECCAK256 SWAP5 DUP8 AND DUP1 DUP5 MSTORE SWAP5 DUP3 MSTORE SWAP2 DUP3 SWAP1 KECCAK256 DUP6 SWAP1 SSTORE SWAP1 MLOAD DUP5 DUP2 MSTORE PUSH32 0x8C5BE1E5EBEC7D5BD14F71427D1E84F3DD0314C0F7B2291E5B200AC8C7C3B925 SWAP2 ADD JUMPDEST PUSH1 0x40 MLOAD DUP1 SWAP2 SUB SWAP1 LOG3 POP POP POP JUMP JUMPDEST PUSH1 0x0 PUSH2 0x20F7 DUP3 DUP5 PUSH2 0x51A1 JUMP JUMPDEST PUSH2 0x2243 PUSH2 0x4D5A JUMP JUMPDEST PUSH1 0x40 MLOAD DUP1 PUSH2 0x6E0 ADD PUSH1 0x40 MSTORE DUP1 PUSH2 0x2263 PUSH2 0x5573 PUSH8 0xDE0B6B3A7640000 PUSH2 0x4905 JUMP JUMPDEST DUP2 MSTORE PUSH1 0x20 ADD PUSH2 0x227C PUSH2 0x5573 PUSH8 0xDE0B6B3A7640000 PUSH2 0x4905 JUMP JUMPDEST DUP2 MSTORE PUSH1 0x20 ADD PUSH2 0x2295 PUSH2 0x5573 PUSH8 0xDE0B6B3A7640000 PUSH2 0x4905 JUMP JUMPDEST DUP2 MSTORE PUSH1 0x20 ADD PUSH2 0x22AE PUSH2 0x5573 PUSH8 0xDE0B6B3A7640000 PUSH2 0x4905 JUMP JUMPDEST DUP2 MSTORE PUSH1 0x20 ADD PUSH2 0x22C7 PUSH2 0x5573 PUSH8 0xDE0B6B3A7640000 PUSH2 0x4905 JUMP JUMPDEST DUP2 MSTORE PUSH1 0x20 ADD PUSH2 0x22E0 PUSH2 0x5573 PUSH8 0xDE0B6B3A7640000 PUSH2 0x4905 JUMP JUMPDEST DUP2 MSTORE PUSH1 0x20 ADD PUSH2 0x22F9 PUSH2 0x5573 PUSH8 0xDE0B6B3A7640000 PUSH2 0x4905 JUMP JUMPDEST DUP2 MSTORE PUSH1 0x20 ADD PUSH2 0x2312 PUSH2 0x5573 PUSH8 0xDE0B6B3A7640000 PUSH2 0x4905 JUMP JUMPDEST DUP2 MSTORE PUSH1 0x20 ADD PUSH2 0x232B PUSH2 0x5573 PUSH8 0xDE0B6B3A7640000 PUSH2 0x4905 JUMP JUMPDEST DUP2 MSTORE PUSH1 0x20 ADD PUSH2 0x2344 PUSH2 0x5573 PUSH8 0xDE0B6B3A7640000 PUSH2 0x4905 JUMP JUMPDEST DUP2 MSTORE PUSH1 0x20 ADD PUSH2 0x235D PUSH2 0x5573 PUSH8 0xDE0B6B3A7640000 PUSH2 0x4905 JUMP JUMPDEST DUP2 MSTORE PUSH1 0x20 ADD PUSH2 0x2376 PUSH2 0x5573 PUSH8 0xDE0B6B3A7640000 PUSH2 0x4905 JUMP JUMPDEST DUP2 MSTORE PUSH1 0x20 ADD PUSH2 0x238F PUSH2 0x5573 PUSH8 0xDE0B6B3A7640000 PUSH2 0x4905 JUMP JUMPDEST DUP2 MSTORE PUSH1 0x20 ADD PUSH2 0x23A8 PUSH2 0x5573 PUSH8 0xDE0B6B3A7640000 PUSH2 0x4905 JUMP JUMPDEST DUP2 MSTORE PUSH1 0x20 ADD PUSH2 0x23C1 PUSH2 0x5573 PUSH8 0xDE0B6B3A7640000 PUSH2 0x4905 JUMP JUMPDEST DUP2 MSTORE PUSH1 0x20 ADD PUSH2 0x23DA PUSH2 0x5573 PUSH8 0xDE0B6B3A7640000 PUSH2 0x4905 JUMP JUMPDEST DUP2 MSTORE PUSH1 0x20 ADD PUSH2 0x23F4 PUSH3 0x155CC PUSH8 0xDE0B6B3A7640000 PUSH2 0x4905 JUMP JUMPDEST DUP2 MSTORE PUSH1 0x20 ADD PUSH2 0x240E PUSH3 0x155CC PUSH8 0xDE0B6B3A7640000 PUSH2 0x4905 JUMP JUMPDEST DUP2 MSTORE PUSH1 0x20 ADD PUSH2 0x2428 PUSH3 0x155CC PUSH8 0xDE0B6B3A7640000 PUSH2 0x4905 JUMP JUMPDEST DUP2 MSTORE PUSH1 0x20 ADD PUSH2 0x2442 PUSH3 0x155CC PUSH8 0xDE0B6B3A7640000 PUSH2 0x4905 JUMP JUMPDEST DUP2 MSTORE PUSH1 0x20 ADD PUSH2 0x245C PUSH3 0x155CC PUSH8 0xDE0B6B3A7640000 PUSH2 0x4905 JUMP JUMPDEST DUP2 MSTORE PUSH1 0x20 ADD PUSH2 0x2476 PUSH3 0x155CC PUSH8 0xDE0B6B3A7640000 PUSH2 0x4905 JUMP JUMPDEST DUP2 MSTORE PUSH1 0x20 ADD PUSH2 0x2490 PUSH3 0x155CC PUSH8 0xDE0B6B3A7640000 PUSH2 0x4905 JUMP JUMPDEST DUP2 MSTORE PUSH1 0x20 ADD PUSH2 0x24AA PUSH3 0x155CC PUSH8 0xDE0B6B3A7640000 PUSH2 0x4905 JUMP JUMPDEST DUP2 MSTORE PUSH1 0x20 ADD PUSH2 0x24C4 PUSH3 0x155CC PUSH8 0xDE0B6B3A7640000 PUSH2 0x4905 JUMP JUMPDEST DUP2 MSTORE PUSH1 0x20 ADD PUSH2 0x24DE PUSH3 0x155CC PUSH8 0xDE0B6B3A7640000 PUSH2 0x4905 JUMP JUMPDEST DUP2 MSTORE PUSH1 0x20 ADD PUSH2 0x24F8 PUSH3 0x155CC PUSH8 0xDE0B6B3A7640000 PUSH2 0x4905 JUMP JUMPDEST DUP2 MSTORE PUSH1 0x20 ADD PUSH2 0x2512 PUSH3 0x155CC PUSH8 0xDE0B6B3A7640000 PUSH2 0x4905 JUMP JUMPDEST DUP2 MSTORE PUSH1 0x20 ADD PUSH2 0x252C PUSH3 0x155CC PUSH8 0xDE0B6B3A7640000 PUSH2 0x4905 JUMP JUMPDEST DUP2 MSTORE PUSH1 0x20 ADD PUSH2 0x2546 PUSH3 0x155CC PUSH8 0xDE0B6B3A7640000 PUSH2 0x4905 JUMP JUMPDEST DUP2 MSTORE PUSH1 0x20 ADD PUSH2 0x2560 PUSH3 0x155CC PUSH8 0xDE0B6B3A7640000 PUSH2 0x4905 JUMP JUMPDEST DUP2 MSTORE PUSH1 0x20 ADD PUSH2 0x257A PUSH3 0x155CC PUSH8 0xDE0B6B3A7640000 PUSH2 0x4905 JUMP JUMPDEST DUP2 MSTORE PUSH1 0x20 ADD PUSH2 0x2594 PUSH3 0x155CC PUSH8 0xDE0B6B3A7640000 PUSH2 0x4905 JUMP JUMPDEST DUP2 MSTORE PUSH1 0x20 ADD PUSH2 0x25AE PUSH3 0x155CC PUSH8 0xDE0B6B3A7640000 PUSH2 0x4905 JUMP JUMPDEST DUP2 MSTORE PUSH1 0x20 ADD PUSH2 0x25C8 PUSH3 0x155CC PUSH8 0xDE0B6B3A7640000 PUSH2 0x4905 JUMP JUMPDEST DUP2 MSTORE PUSH1 0x20 ADD PUSH2 0x25E2 PUSH3 0x155CC PUSH8 0xDE0B6B3A7640000 PUSH2 0x4905 JUMP JUMPDEST DUP2 MSTORE PUSH1 0x20 ADD PUSH2 0x25FC PUSH3 0x155CC PUSH8 0xDE0B6B3A7640000 PUSH2 0x4905 JUMP JUMPDEST DUP2 MSTORE PUSH1 0x20 ADD PUSH2 0x2616 PUSH3 0x155CC PUSH8 0xDE0B6B3A7640000 PUSH2 0x4905 JUMP JUMPDEST DUP2 MSTORE PUSH1 0x20 ADD PUSH2 0x2630 PUSH3 0x155CC PUSH8 0xDE0B6B3A7640000 PUSH2 0x4905 JUMP JUMPDEST DUP2 MSTORE PUSH1 0x20 ADD PUSH2 0x264A PUSH3 0x155CC PUSH8 0xDE0B6B3A7640000 PUSH2 0x4905 JUMP JUMPDEST DUP2 MSTORE PUSH1 0x20 ADD PUSH2 0x2664 PUSH3 0x155CC PUSH8 0xDE0B6B3A7640000 PUSH2 0x4905 JUMP JUMPDEST DUP2 MSTORE PUSH1 0x20 ADD PUSH2 0x267E PUSH3 0x155CC PUSH8 0xDE0B6B3A7640000 PUSH2 0x4905 JUMP JUMPDEST DUP2 MSTORE PUSH1 0x20 ADD PUSH2 0x2698 PUSH3 0x155CC PUSH8 0xDE0B6B3A7640000 PUSH2 0x4905 JUMP JUMPDEST DUP2 MSTORE PUSH1 0x20 ADD PUSH2 0x26B2 PUSH3 0x155CC PUSH8 0xDE0B6B3A7640000 PUSH2 0x4905 JUMP JUMPDEST DUP2 MSTORE PUSH1 0x20 ADD PUSH2 0x26CC PUSH3 0x155CC PUSH8 0xDE0B6B3A7640000 PUSH2 0x4905 JUMP JUMPDEST DUP2 MSTORE PUSH1 0x20 ADD PUSH2 0x26E6 PUSH3 0x155CC PUSH8 0xDE0B6B3A7640000 PUSH2 0x4905 JUMP JUMPDEST DUP2 MSTORE PUSH1 0x20 ADD PUSH2 0x2700 PUSH3 0x155CC PUSH8 0xDE0B6B3A7640000 PUSH2 0x4905 JUMP JUMPDEST DUP2 MSTORE PUSH1 0x20 ADD PUSH2 0x271A PUSH3 0x155CC PUSH8 0xDE0B6B3A7640000 PUSH2 0x4905 JUMP JUMPDEST DUP2 MSTORE PUSH1 0x20 ADD PUSH2 0x2734 PUSH3 0x155CC PUSH8 0xDE0B6B3A7640000 PUSH2 0x4905 JUMP JUMPDEST DUP2 MSTORE PUSH1 0x20 ADD PUSH2 0x274E PUSH3 0x155CC PUSH8 0xDE0B6B3A7640000 PUSH2 0x4905 JUMP JUMPDEST DUP2 MSTORE PUSH1 0x20 ADD PUSH2 0x2768 PUSH3 0x155CC PUSH8 0xDE0B6B3A7640000 PUSH2 0x4905 JUMP JUMPDEST DUP2 MSTORE PUSH1 0x20 ADD PUSH1 0x0 DUP2 MSTORE PUSH1 0x20 ADD PUSH1 0x0 DUP2 MSTORE PUSH1 0x20 ADD PUSH1 0x0 DUP2 MSTORE PUSH1 0x20 ADD PUSH1 0x0 DUP2 MSTORE POP SWAP1 POP SWAP1 JUMP JUMPDEST PUSH1 0x0 PUSH2 0x2798 DUP5 DUP5 PUSH2 0x1BC8 JUMP JUMPDEST SWAP1 POP PUSH1 0x0 NOT DUP2 EQ PUSH2 0x2800 JUMPI DUP2 DUP2 LT ISZERO PUSH2 0x27F3 JUMPI PUSH1 0x40 MLOAD PUSH3 0x461BCD PUSH1 0xE5 SHL DUP2 MSTORE PUSH1 0x20 PUSH1 0x4 DUP3 ADD MSTORE PUSH1 0x1D PUSH1 0x24 DUP3 ADD MSTORE PUSH32 0x45524332303A20696E73756666696369656E7420616C6C6F77616E6365000000 PUSH1 0x44 DUP3 ADD MSTORE PUSH1 0x64 ADD PUSH2 0xAC4 JUMP JUMPDEST PUSH2 0x2800 DUP5 DUP5 DUP5 DUP5 SUB PUSH2 0x210A JUMP JUMPDEST POP POP POP POP JUMP JUMPDEST PUSH1 0x1 PUSH1 0x1 PUSH1 0xA0 SHL SUB DUP4 AND PUSH2 0x285C JUMPI PUSH1 0x40 MLOAD PUSH3 0x461BCD PUSH1 0xE5 SHL DUP2 MSTORE PUSH1 0x20 PUSH1 0x4 DUP3 ADD MSTORE PUSH1 0x1D PUSH1 0x24 DUP3 ADD MSTORE PUSH32 0x54616C6178546F6B656E3A2066726F6D207A65726F2061646472657373000000 PUSH1 0x44 DUP3 ADD MSTORE PUSH1 0x64 ADD PUSH2 0xAC4 JUMP JUMPDEST PUSH1 0x1 PUSH1 0x1 PUSH1 0xA0 SHL SUB DUP3 AND PUSH2 0x28B2 JUMPI PUSH1 0x40 MLOAD PUSH3 0x461BCD PUSH1 0xE5 SHL DUP2 MSTORE PUSH1 0x20 PUSH1 0x4 DUP3 ADD MSTORE PUSH1 0x1B PUSH1 0x24 DUP3 ADD MSTORE PUSH32 0x54616C6178546F6B656E3A20746F207A65726F20616464726573730000000000 PUSH1 0x44 DUP3 ADD MSTORE PUSH1 0x64 ADD PUSH2 0xAC4 JUMP JUMPDEST PUSH1 0x1 PUSH1 0x1 PUSH1 0xA0 SHL SUB DUP4 AND PUSH1 0x0 SWAP1 DUP2 MSTORE PUSH1 0xF PUSH1 0x20 MSTORE PUSH1 0x40 SWAP1 KECCAK256 SLOAD DUP2 DUP2 LT ISZERO PUSH2 0x292F JUMPI PUSH1 0x40 MLOAD PUSH3 0x461BCD PUSH1 0xE5 SHL DUP2 MSTORE PUSH1 0x20 PUSH1 0x4 DUP3 ADD MSTORE PUSH1 0x2B PUSH1 0x24 DUP3 ADD MSTORE PUSH32 0x54616C6178546F6B656E3A207472616E7366657220616D6F756E742065786365 PUSH1 0x44 DUP3 ADD MSTORE PUSH11 0x6564732062616C616E6365 PUSH1 0xA8 SHL PUSH1 0x64 DUP3 ADD MSTORE PUSH1 0x84 ADD PUSH2 0xAC4 JUMP JUMPDEST PUSH1 0x16 SLOAD PUSH1 0x0 SWAP1 PUSH2 0x2954 SWAP1 PUSH2 0x294D SWAP1 DUP6 SWAP1 PUSH2 0x100 SWAP1 DIV PUSH2 0xFFFF AND PUSH2 0x4905 JUMP JUMPDEST PUSH1 0x64 PUSH2 0x20EB JUMP JUMPDEST SWAP1 POP PUSH1 0x0 PUSH2 0x2962 DUP5 DUP4 PUSH2 0x222F JUMP JUMPDEST SWAP1 POP PUSH1 0x0 PUSH2 0x2985 PUSH2 0x297E DUP4 PUSH2 0x2979 PUSH1 0x2 PUSH1 0xA PUSH2 0x20EB JUMP JUMPDEST PUSH2 0x4905 JUMP JUMPDEST PUSH1 0x3 PUSH2 0x20EB JUMP JUMPDEST SWAP1 POP PUSH1 0x0 PUSH2 0x2999 DUP4 PUSH2 0x2979 PUSH1 0x8 PUSH1 0xA PUSH2 0x20EB JUMP JUMPDEST PUSH1 0x1E SLOAD PUSH1 0x1 PUSH1 0x1 PUSH1 0xA0 SHL SUB AND PUSH1 0x0 SWAP1 DUP2 MSTORE PUSH1 0xF PUSH1 0x20 MSTORE PUSH1 0x40 SWAP1 KECCAK256 SLOAD SWAP1 SWAP2 POP PUSH2 0x29C1 SWAP1 DUP4 PUSH2 0x20FE JUMP JUMPDEST PUSH1 0x1E SLOAD PUSH1 0x1 PUSH1 0x1 PUSH1 0xA0 SHL SUB SWAP1 DUP2 AND PUSH1 0x0 SWAP1 DUP2 MSTORE PUSH1 0xF PUSH1 0x20 MSTORE PUSH1 0x40 DUP1 DUP3 KECCAK256 SWAP4 SWAP1 SWAP4 SSTORE PUSH1 0x1F SLOAD SWAP1 SWAP2 AND DUP2 MSTORE KECCAK256 SLOAD PUSH2 0x29F6 SWAP1 DUP4 PUSH2 0x20FE JUMP JUMPDEST PUSH1 0x1F SLOAD PUSH1 0x1 PUSH1 0x1 PUSH1 0xA0 SHL SUB SWAP1 DUP2 AND PUSH1 0x0 SWAP1 DUP2 MSTORE PUSH1 0xF PUSH1 0x20 SWAP1 DUP2 MSTORE PUSH1 0x40 DUP1 DUP4 KECCAK256 SWAP5 SWAP1 SWAP5 SSTORE SLOAD SWAP1 SWAP2 AND DUP2 MSTORE KECCAK256 SLOAD PUSH2 0x2A2B SWAP1 DUP4 PUSH2 0x20FE JUMP JUMPDEST PUSH1 0x20 DUP1 SLOAD PUSH1 0x1 PUSH1 0x1 PUSH1 0xA0 SHL SUB AND PUSH1 0x0 SWAP1 DUP2 MSTORE PUSH1 0xF SWAP1 SWAP2 MSTORE PUSH1 0x40 DUP1 DUP3 KECCAK256 SWAP3 SWAP1 SWAP3 SSTORE ADDRESS DUP2 MSTORE KECCAK256 SLOAD PUSH2 0x2A5A SWAP1 DUP3 PUSH2 0x20FE JUMP JUMPDEST PUSH1 0xF PUSH1 0x0 ADDRESS PUSH1 0x1 PUSH1 0x1 PUSH1 0xA0 SHL SUB AND PUSH1 0x1 PUSH1 0x1 PUSH1 0xA0 SHL SUB AND DUP2 MSTORE PUSH1 0x20 ADD SWAP1 DUP2 MSTORE PUSH1 0x20 ADD PUSH1 0x0 KECCAK256 DUP2 SWAP1 SSTORE POP PUSH2 0x2AC0 DUP7 PUSH1 0x40 MLOAD DUP1 PUSH1 0x60 ADD PUSH1 0x40 MSTORE DUP1 PUSH1 0x24 DUP2 MSTORE PUSH1 0x20 ADD PUSH2 0x5255 PUSH1 0x24 SWAP2 CODECOPY PUSH1 0x1 PUSH1 0x1 PUSH1 0xA0 SHL SUB DUP12 AND PUSH1 0x0 SWAP1 DUP2 MSTORE PUSH1 0xF PUSH1 0x20 MSTORE PUSH1 0x40 SWAP1 KECCAK256 SLOAD SWAP2 SWAP1 PUSH2 0x20BF JUMP JUMPDEST PUSH1 0x1 PUSH1 0x1 PUSH1 0xA0 SHL SUB DUP1 DUP11 AND PUSH1 0x0 SWAP1 DUP2 MSTORE PUSH1 0xF PUSH1 0x20 MSTORE PUSH1 0x40 DUP1 DUP3 KECCAK256 SWAP4 SWAP1 SWAP4 SSTORE SWAP1 DUP10 AND DUP2 MSTORE KECCAK256 SLOAD PUSH2 0x2AEF SWAP1 DUP5 PUSH2 0x20FE JUMP JUMPDEST PUSH1 0x1 PUSH1 0x1 PUSH1 0xA0 SHL SUB DUP1 DUP10 AND PUSH1 0x0 DUP2 DUP2 MSTORE PUSH1 0xF PUSH1 0x20 MSTORE PUSH1 0x40 SWAP1 DUP2 SWAP1 KECCAK256 SWAP4 SWAP1 SWAP4 SSTORE SWAP2 MLOAD SWAP1 DUP11 AND SWAP1 PUSH1 0x0 DUP1 MLOAD PUSH1 0x20 PUSH2 0x5279 DUP4 CODECOPY DUP2 MLOAD SWAP2 MSTORE SWAP1 PUSH2 0x2B31 SWAP1 DUP8 DUP2 MSTORE PUSH1 0x20 ADD SWAP1 JUMP JUMPDEST PUSH1 0x40 MLOAD DUP1 SWAP2 SUB SWAP1 LOG3 POP POP POP POP POP POP POP POP JUMP JUMPDEST PUSH2 0x2B4B PUSH2 0x4D5A JUMP JUMPDEST PUSH1 0x40 MLOAD DUP1 PUSH2 0x6E0 ADD PUSH1 0x40 MSTORE DUP1 PUSH2 0x2B6C PUSH3 0x19A28 PUSH8 0xDE0B6B3A7640000 PUSH2 0x4905 JUMP JUMPDEST DUP2 MSTORE PUSH1 0x20 ADD PUSH1 0x0 DUP2 MSTORE PUSH1 0x20 ADD PUSH1 0x0 DUP2 MSTORE PUSH1 0x20 ADD PUSH1 0x0 DUP2 MSTORE PUSH1 0x20 ADD PUSH2 0x2B9B PUSH3 0x4CE78 PUSH8 0xDE0B6B3A7640000 PUSH2 0x4905 JUMP JUMPDEST DUP2 MSTORE PUSH1 0x20 ADD PUSH1 0x0 DUP2 MSTORE PUSH1 0x20 ADD PUSH1 0x0 DUP2 MSTORE PUSH1 0x20 ADD PUSH1 0x0 DUP2 MSTORE PUSH1 0x20 ADD PUSH2 0x2BCA PUSH3 0x4CE78 PUSH8 0xDE0B6B3A7640000 PUSH2 0x4905 JUMP JUMPDEST DUP2 MSTORE PUSH1 0x20 ADD PUSH1 0x0 DUP2 MSTORE PUSH1 0x20 ADD PUSH1 0x0 DUP2 MSTORE PUSH1 0x20 ADD PUSH1 0x0 DUP2 MSTORE PUSH1 0x20 ADD PUSH2 0x2BF9 PUSH3 0x4CE78 PUSH8 0xDE0B6B3A7640000 PUSH2 0x4905 JUMP JUMPDEST DUP2 MSTORE PUSH1 0x20 ADD PUSH1 0x0 DUP2 MSTORE PUSH1 0x20 ADD PUSH1 0x0 DUP2 MSTORE PUSH1 0x20 ADD PUSH1 0x0 DUP2 MSTORE PUSH1 0x20 ADD PUSH2 0x2C28 PUSH3 0x40164 PUSH8 0xDE0B6B3A7640000 PUSH2 0x4905 JUMP JUMPDEST DUP2 MSTORE PUSH1 0x20 ADD PUSH2 0x2C42 PUSH3 0x40164 PUSH8 0xDE0B6B3A7640000 PUSH2 0x4905 JUMP JUMPDEST DUP2 MSTORE PUSH1 0x20 ADD PUSH2 0x2C5C PUSH3 0x40164 PUSH8 0xDE0B6B3A7640000 PUSH2 0x4905 JUMP JUMPDEST DUP2 MSTORE PUSH1 0x20 ADD PUSH2 0x2C76 PUSH3 0x40164 PUSH8 0xDE0B6B3A7640000 PUSH2 0x4905 JUMP JUMPDEST DUP2 MSTORE PUSH1 0x20 ADD PUSH2 0x2C90 PUSH3 0x40164 PUSH8 0xDE0B6B3A7640000 PUSH2 0x4905 JUMP JUMPDEST DUP2 MSTORE PUSH1 0x20 ADD PUSH2 0x2CAA PUSH3 0x40164 PUSH8 0xDE0B6B3A7640000 PUSH2 0x4905 JUMP JUMPDEST DUP2 MSTORE PUSH1 0x20 ADD PUSH2 0x2CC4 PUSH3 0x40164 PUSH8 0xDE0B6B3A7640000 PUSH2 0x4905 JUMP JUMPDEST DUP2 MSTORE PUSH1 0x20 ADD PUSH2 0x2CDE PUSH3 0x40164 PUSH8 0xDE0B6B3A7640000 PUSH2 0x4905 JUMP JUMPDEST DUP2 MSTORE PUSH1 0x20 ADD PUSH2 0x2CF8 PUSH3 0x40164 PUSH8 0xDE0B6B3A7640000 PUSH2 0x4905 JUMP JUMPDEST DUP2 MSTORE PUSH1 0x20 ADD PUSH2 0x2D12 PUSH3 0x40164 PUSH8 0xDE0B6B3A7640000 PUSH2 0x4905 JUMP JUMPDEST DUP2 MSTORE PUSH1 0x20 ADD PUSH2 0x2D2C PUSH3 0x40164 PUSH8 0xDE0B6B3A7640000 PUSH2 0x4905 JUMP JUMPDEST DUP2 MSTORE PUSH1 0x20 ADD PUSH2 0x2D46 PUSH3 0x40164 PUSH8 0xDE0B6B3A7640000 PUSH2 0x4905 JUMP JUMPDEST DUP2 MSTORE PUSH1 0x20 ADD PUSH2 0x2D60 PUSH3 0x40164 PUSH8 0xDE0B6B3A7640000 PUSH2 0x4905 JUMP JUMPDEST DUP2 MSTORE PUSH1 0x20 ADD PUSH2 0x2D7A PUSH3 0x40164 PUSH8 0xDE0B6B3A7640000 PUSH2 0x4905 JUMP JUMPDEST DUP2 MSTORE PUSH1 0x20 ADD PUSH2 0x2D94 PUSH3 0x40164 PUSH8 0xDE0B6B3A7640000 PUSH2 0x4905 JUMP JUMPDEST DUP2 MSTORE PUSH1 0x20 ADD PUSH2 0x2DAE PUSH3 0x40164 PUSH8 0xDE0B6B3A7640000 PUSH2 0x4905 JUMP JUMPDEST DUP2 MSTORE PUSH1 0x20 ADD PUSH2 0x2DC8 PUSH3 0x40164 PUSH8 0xDE0B6B3A7640000 PUSH2 0x4905 JUMP JUMPDEST DUP2 MSTORE PUSH1 0x20 ADD PUSH2 0x2DE2 PUSH3 0x40164 PUSH8 0xDE0B6B3A7640000 PUSH2 0x4905 JUMP JUMPDEST DUP2 MSTORE PUSH1 0x20 ADD PUSH2 0x2DFC PUSH3 0x40164 PUSH8 0xDE0B6B3A7640000 PUSH2 0x4905 JUMP JUMPDEST DUP2 MSTORE PUSH1 0x20 ADD PUSH2 0x2E16 PUSH3 0x40164 PUSH8 0xDE0B6B3A7640000 PUSH2 0x4905 JUMP JUMPDEST DUP2 MSTORE PUSH1 0x20 ADD PUSH2 0x2E30 PUSH3 0x40164 PUSH8 0xDE0B6B3A7640000 PUSH2 0x4905 JUMP JUMPDEST DUP2 MSTORE PUSH1 0x20 ADD PUSH2 0x2E4A PUSH3 0x40164 PUSH8 0xDE0B6B3A7640000 PUSH2 0x4905 JUMP JUMPDEST DUP2 MSTORE PUSH1 0x20 ADD PUSH2 0x2E64 PUSH3 0x40164 PUSH8 0xDE0B6B3A7640000 PUSH2 0x4905 JUMP JUMPDEST DUP2 MSTORE PUSH1 0x20 ADD PUSH2 0x2E7E PUSH3 0x40164 PUSH8 0xDE0B6B3A7640000 PUSH2 0x4905 JUMP JUMPDEST DUP2 MSTORE PUSH1 0x20 ADD PUSH2 0x2E98 PUSH3 0x40164 PUSH8 0xDE0B6B3A7640000 PUSH2 0x4905 JUMP JUMPDEST DUP2 MSTORE PUSH1 0x20 ADD PUSH2 0x2EB2 PUSH3 0x40164 PUSH8 0xDE0B6B3A7640000 PUSH2 0x4905 JUMP JUMPDEST DUP2 MSTORE PUSH1 0x20 ADD PUSH2 0x2ECC PUSH3 0x40164 PUSH8 0xDE0B6B3A7640000 PUSH2 0x4905 JUMP JUMPDEST DUP2 MSTORE PUSH1 0x20 ADD PUSH2 0x2EE6 PUSH3 0x40164 PUSH8 0xDE0B6B3A7640000 PUSH2 0x4905 JUMP JUMPDEST DUP2 MSTORE PUSH1 0x20 ADD PUSH2 0x2F00 PUSH3 0x40164 PUSH8 0xDE0B6B3A7640000 PUSH2 0x4905 JUMP JUMPDEST DUP2 MSTORE PUSH1 0x20 ADD PUSH2 0x2F1A PUSH3 0x40164 PUSH8 0xDE0B6B3A7640000 PUSH2 0x4905 JUMP JUMPDEST DUP2 MSTORE PUSH1 0x20 ADD PUSH2 0x2F34 PUSH3 0x40164 PUSH8 0xDE0B6B3A7640000 PUSH2 0x4905 JUMP JUMPDEST DUP2 MSTORE PUSH1 0x20 ADD PUSH2 0x2F4E PUSH3 0x40164 PUSH8 0xDE0B6B3A7640000 PUSH2 0x4905 JUMP JUMPDEST DUP2 MSTORE PUSH1 0x20 ADD PUSH2 0x2F68 PUSH3 0x40164 PUSH8 0xDE0B6B3A7640000 PUSH2 0x4905 JUMP JUMPDEST DUP2 MSTORE PUSH1 0x20 ADD PUSH2 0x2F82 PUSH3 0x40164 PUSH8 0xDE0B6B3A7640000 PUSH2 0x4905 JUMP JUMPDEST DUP2 MSTORE PUSH1 0x20 ADD PUSH2 0x2768 PUSH3 0x40164 PUSH8 0xDE0B6B3A7640000 PUSH2 0x4905 JUMP JUMPDEST PUSH1 0x1 PUSH1 0x1 PUSH1 0xA0 SHL SUB DUP3 AND PUSH2 0x2FF2 JUMPI PUSH1 0x40 MLOAD PUSH3 0x461BCD PUSH1 0xE5 SHL DUP2 MSTORE PUSH1 0x20 PUSH1 0x4 DUP3 ADD MSTORE PUSH1 0x1F PUSH1 0x24 DUP3 ADD MSTORE PUSH32 0x45524332303A206D696E7420746F20746865207A65726F206164647265737300 PUSH1 0x44 DUP3 ADD MSTORE PUSH1 0x64 ADD PUSH2 0xAC4 JUMP JUMPDEST DUP1 PUSH1 0x2 PUSH1 0x0 DUP3 DUP3 SLOAD PUSH2 0x3004 SWAP2 SWAP1 PUSH2 0x50EC JUMP JUMPDEST SWAP1 SWAP2 SSTORE POP POP PUSH1 0x1 PUSH1 0x1 PUSH1 0xA0 SHL SUB DUP3 AND PUSH1 0x0 SWAP1 DUP2 MSTORE PUSH1 0x20 DUP2 SWAP1 MSTORE PUSH1 0x40 DUP2 KECCAK256 DUP1 SLOAD DUP4 SWAP3 SWAP1 PUSH2 0x3031 SWAP1 DUP5 SWAP1 PUSH2 0x50EC JUMP JUMPDEST SWAP1 SWAP2 SSTORE POP POP PUSH1 0x40 MLOAD DUP2 DUP2 MSTORE PUSH1 0x1 PUSH1 0x1 PUSH1 0xA0 SHL SUB DUP4 AND SWAP1 PUSH1 0x0 SWAP1 PUSH1 0x0 DUP1 MLOAD PUSH1 0x20 PUSH2 0x5279 DUP4 CODECOPY DUP2 MLOAD SWAP2 MSTORE SWAP1 PUSH1 0x20 ADD PUSH1 0x40 MLOAD DUP1 SWAP2 SUB SWAP1 LOG3 POP POP JUMP JUMPDEST PUSH1 0x1 PUSH1 0x1 PUSH1 0xA0 SHL SUB DUP3 AND PUSH2 0x30C9 JUMPI PUSH1 0x40 MLOAD PUSH3 0x461BCD PUSH1 0xE5 SHL DUP2 MSTORE PUSH1 0x20 PUSH1 0x4 DUP3 ADD MSTORE PUSH1 0x21 PUSH1 0x24 DUP3 ADD MSTORE PUSH32 0x45524332303A206275726E2066726F6D20746865207A65726F20616464726573 PUSH1 0x44 DUP3 ADD MSTORE PUSH1 0x73 PUSH1 0xF8 SHL PUSH1 0x64 DUP3 ADD MSTORE PUSH1 0x84 ADD PUSH2 0xAC4 JUMP JUMPDEST PUSH1 0x1 PUSH1 0x1 PUSH1 0xA0 SHL SUB DUP3 AND PUSH1 0x0 SWAP1 DUP2 MSTORE PUSH1 0xF PUSH1 0x20 MSTORE PUSH1 0x40 SWAP1 KECCAK256 SLOAD DUP2 DUP2 LT ISZERO PUSH2 0x313D JUMPI PUSH1 0x40 MLOAD PUSH3 0x461BCD PUSH1 0xE5 SHL DUP2 MSTORE PUSH1 0x20 PUSH1 0x4 DUP3 ADD MSTORE PUSH1 0x22 PUSH1 0x24 DUP3 ADD MSTORE PUSH32 0x45524332303A206275726E20616D6F756E7420657863656564732062616C616E PUSH1 0x44 DUP3 ADD MSTORE PUSH2 0x6365 PUSH1 0xF0 SHL PUSH1 0x64 DUP3 ADD MSTORE PUSH1 0x84 ADD PUSH2 0xAC4 JUMP JUMPDEST PUSH1 0x1 PUSH1 0x1 PUSH1 0xA0 SHL SUB DUP4 AND PUSH1 0x0 SWAP1 DUP2 MSTORE PUSH1 0xF PUSH1 0x20 MSTORE PUSH1 0x40 DUP2 KECCAK256 DUP4 DUP4 SUB SWAP1 SSTORE PUSH1 0x11 DUP1 SLOAD DUP5 SWAP3 SWAP1 PUSH2 0x316C SWAP1 DUP5 SWAP1 PUSH2 0x51A1 JUMP JUMPDEST SWAP1 SWAP2 SSTORE POP POP PUSH1 0x40 MLOAD DUP3 DUP2 MSTORE PUSH1 0x0 SWAP1 PUSH1 0x1 PUSH1 0x1 PUSH1 0xA0 SHL SUB DUP6 AND SWAP1 PUSH1 0x0 DUP1 MLOAD PUSH1 0x20 PUSH2 0x5279 DUP4 CODECOPY DUP2 MLOAD SWAP2 MSTORE SWAP1 PUSH1 0x20 ADD PUSH2 0x2222 JUMP JUMPDEST PUSH1 0x1 PUSH1 0x1 PUSH1 0xA0 SHL SUB DUP2 AND PUSH1 0x0 SWAP1 DUP2 MSTORE PUSH1 0x9 PUSH1 0x20 MSTORE PUSH1 0x40 DUP2 KECCAK256 SLOAD PUSH1 0x8 DUP1 SLOAD DUP4 SWAP3 DUP4 SWAP3 SWAP2 DUP2 LT PUSH2 0x31CD JUMPI PUSH2 0x31CD PUSH2 0x5104 JUMP JUMPDEST SWAP1 PUSH1 0x0 MSTORE PUSH1 0x20 PUSH1 0x0 KECCAK256 SWAP1 PUSH1 0x3 MUL ADD SWAP1 POP PUSH1 0x0 PUSH2 0x31FC PUSH3 0x93A80 DUP4 PUSH1 0x1 ADD SLOAD TIMESTAMP PUSH2 0x31F6 SWAP2 SWAP1 PUSH2 0x51A1 JUMP JUMPDEST SWAP1 PUSH2 0x20EB JUMP JUMPDEST SWAP1 POP PUSH1 0x1 DUP2 LT ISZERO PUSH2 0x3275 JUMPI PUSH1 0x40 MLOAD PUSH3 0x461BCD PUSH1 0xE5 SHL DUP2 MSTORE PUSH1 0x20 PUSH1 0x4 DUP3 ADD MSTORE PUSH1 0x39 PUSH1 0x24 DUP3 ADD MSTORE PUSH32 0x5374616B61626C653A2041697264726F702063616E206F6E6C7920626520636C PUSH1 0x44 DUP3 ADD MSTORE PUSH32 0x61696D656420696E2061206D6F6E74682074696D657370616E00000000000000 PUSH1 0x64 DUP3 ADD MSTORE PUSH1 0x84 ADD PUSH2 0xAC4 JUMP JUMPDEST PUSH1 0x2 DUP3 ADD SLOAD PUSH2 0x3296 JUMPI PUSH1 0x40 MLOAD PUSH3 0x461BCD PUSH1 0xE5 SHL DUP2 MSTORE PUSH1 0x4 ADD PUSH2 0xAC4 SWAP1 PUSH2 0x511A JUMP JUMPDEST PUSH1 0x0 JUMPDEST PUSH1 0x2 DUP4 ADD SLOAD DUP2 LT ISZERO PUSH2 0x3367 JUMPI PUSH1 0x0 DUP4 PUSH1 0x2 ADD DUP3 DUP2 SLOAD DUP2 LT PUSH2 0x32BC JUMPI PUSH2 0x32BC PUSH2 0x5104 JUMP JUMPDEST SWAP1 PUSH1 0x0 MSTORE PUSH1 0x20 PUSH1 0x0 KECCAK256 SWAP1 PUSH1 0x7 MUL ADD PUSH1 0x1 ADD SLOAD GT PUSH2 0x32D8 JUMPI PUSH2 0x3355 JUMP JUMPDEST PUSH1 0x0 PUSH1 0x64 PUSH1 0x7 SLOAD DUP6 PUSH1 0x2 ADD DUP5 DUP2 SLOAD DUP2 LT PUSH2 0x32F4 JUMPI PUSH2 0x32F4 PUSH2 0x5104 JUMP JUMPDEST SWAP1 PUSH1 0x0 MSTORE PUSH1 0x20 PUSH1 0x0 KECCAK256 SWAP1 PUSH1 0x7 MUL ADD PUSH1 0x1 ADD SLOAD PUSH2 0x3310 SWAP2 SWAP1 PUSH2 0x51B8 JUMP JUMPDEST PUSH2 0x331A SWAP2 SWAP1 PUSH2 0x517F JUMP JUMPDEST SWAP1 POP PUSH2 0x3326 DUP2 DUP7 PUSH2 0x50EC JUMP JUMPDEST SWAP5 POP DUP1 DUP5 PUSH1 0x2 ADD DUP4 DUP2 SLOAD DUP2 LT PUSH2 0x333E JUMPI PUSH2 0x333E PUSH2 0x5104 JUMP JUMPDEST SWAP1 PUSH1 0x0 MSTORE PUSH1 0x20 PUSH1 0x0 KECCAK256 SWAP1 PUSH1 0x7 MUL ADD PUSH1 0x4 ADD DUP2 SWAP1 SSTORE POP POP JUMPDEST DUP1 PUSH2 0x335F DUP2 PUSH2 0x51D7 JUMP JUMPDEST SWAP2 POP POP PUSH2 0x3299 JUMP JUMPDEST POP POP TIMESTAMP PUSH1 0x1 SWAP1 SWAP2 ADD SSTORE SWAP3 SWAP2 POP POP JUMP JUMPDEST PUSH1 0x5 DUP1 SLOAD PUSH1 0x1 PUSH1 0x1 PUSH1 0xA0 SHL SUB DUP4 DUP2 AND PUSH1 0x1 PUSH1 0x1 PUSH1 0xA0 SHL SUB NOT DUP4 AND DUP2 OR SWAP1 SWAP4 SSTORE PUSH1 0x40 MLOAD SWAP2 AND SWAP2 SWAP1 DUP3 SWAP1 PUSH32 0x8BE0079C531659141344CD1FD0A4F28419497F9722A3DAAFE3B4186F6B6457E0 SWAP1 PUSH1 0x0 SWAP1 LOG3 POP POP JUMP JUMPDEST PUSH1 0x0 DUP4 GT PUSH2 0x3418 JUMPI PUSH1 0x40 MLOAD PUSH3 0x461BCD PUSH1 0xE5 SHL DUP2 MSTORE PUSH1 0x20 PUSH1 0x4 DUP3 ADD MSTORE PUSH1 0x1E PUSH1 0x24 DUP3 ADD MSTORE PUSH32 0x5374616B61626C653A2043616E6E6F74207374616B65206E6F7468696E670000 PUSH1 0x44 DUP3 ADD MSTORE PUSH1 0x64 ADD PUSH2 0xAC4 JUMP JUMPDEST CALLER PUSH1 0x0 SWAP1 DUP2 MSTORE PUSH1 0x9 PUSH1 0x20 MSTORE PUSH1 0x40 SWAP1 KECCAK256 SLOAD TIMESTAMP DUP2 PUSH2 0x343A JUMPI PUSH2 0x3437 CALLER PUSH2 0x4911 JUMP JUMPDEST SWAP2 POP JUMPDEST PUSH1 0x8 DUP3 DUP2 SLOAD DUP2 LT PUSH2 0x344D JUMPI PUSH2 0x344D PUSH2 0x5104 JUMP JUMPDEST SWAP1 PUSH1 0x0 MSTORE PUSH1 0x20 PUSH1 0x0 KECCAK256 SWAP1 PUSH1 0x3 MUL ADD PUSH1 0x2 ADD PUSH1 0x40 MLOAD DUP1 PUSH1 0xE0 ADD PUSH1 0x40 MSTORE DUP1 CALLER PUSH1 0x1 PUSH1 0x1 PUSH1 0xA0 SHL SUB AND DUP2 MSTORE PUSH1 0x20 ADD DUP8 DUP2 MSTORE PUSH1 0x20 ADD DUP4 DUP2 MSTORE PUSH1 0x20 ADD PUSH1 0x0 DUP2 MSTORE PUSH1 0x20 ADD PUSH1 0x0 DUP2 MSTORE PUSH1 0x20 ADD DUP6 DUP2 MSTORE PUSH1 0x20 ADD DUP4 DUP8 PUSH2 0x34A4 SWAP2 SWAP1 PUSH2 0x50EC JUMP JUMPDEST SWAP1 MSTORE DUP2 SLOAD PUSH1 0x1 DUP1 DUP3 ADD DUP5 SSTORE PUSH1 0x0 SWAP4 DUP5 MSTORE PUSH1 0x20 SWAP4 DUP5 SWAP1 KECCAK256 DUP4 MLOAD PUSH1 0x7 SWAP1 SWAP4 MUL ADD DUP1 SLOAD PUSH1 0x1 PUSH1 0x1 PUSH1 0xA0 SHL SUB NOT AND PUSH1 0x1 PUSH1 0x1 PUSH1 0xA0 SHL SUB SWAP1 SWAP4 AND SWAP3 SWAP1 SWAP3 OR DUP3 SSTORE SWAP3 DUP3 ADD MLOAD SWAP3 DUP2 ADD SWAP3 SWAP1 SWAP3 SSTORE PUSH1 0x40 DUP2 ADD MLOAD PUSH1 0x2 DUP4 ADD SSTORE PUSH1 0x60 DUP2 ADD MLOAD PUSH1 0x3 DUP4 ADD SSTORE PUSH1 0x80 DUP2 ADD MLOAD PUSH1 0x4 DUP4 ADD SSTORE PUSH1 0xA0 DUP2 ADD MLOAD PUSH1 0x5 DUP4 ADD SSTORE PUSH1 0xC0 ADD MLOAD PUSH1 0x6 SWAP1 SWAP2 ADD SSTORE CALLER PUSH32 0x9CFD25589D1EB8AD71E342A86A8524E83522E3936C0803048C08F6D9AD974F40 DUP7 DUP5 DUP5 PUSH2 0x354B DUP2 DUP11 PUSH2 0x50EC JUMP JUMPDEST PUSH1 0x40 DUP1 MLOAD SWAP5 DUP6 MSTORE PUSH1 0x20 DUP6 ADD SWAP4 SWAP1 SWAP4 MSTORE SWAP2 DUP4 ADD MSTORE PUSH1 0x60 DUP3 ADD MSTORE PUSH1 0x80 ADD PUSH1 0x40 MLOAD DUP1 SWAP2 SUB SWAP1 LOG2 POP POP POP POP POP JUMP JUMPDEST PUSH1 0x1 PUSH1 0x1 PUSH1 0xA0 SHL SUB DUP2 AND PUSH1 0x0 SWAP1 DUP2 MSTORE PUSH1 0xE PUSH1 0x20 MSTORE PUSH1 0x40 DUP2 KECCAK256 PUSH1 0x1 ADD SLOAD PUSH2 0x35DD JUMPI PUSH1 0x40 MLOAD PUSH3 0x461BCD PUSH1 0xE5 SHL DUP2 MSTORE PUSH1 0x20 PUSH1 0x4 DUP3 ADD MSTORE PUSH1 0x1D PUSH1 0x24 DUP3 ADD MSTORE PUSH32 0x4D756C74696C6F636B61626C653A206E6F20746F6B656E73206C656674000000 PUSH1 0x44 DUP3 ADD MSTORE PUSH1 0x64 ADD PUSH2 0xAC4 JUMP JUMPDEST PUSH1 0x0 PUSH2 0x35E8 DUP4 PUSH2 0x49C3 JUMP JUMPDEST SWAP1 POP PUSH1 0x0 DUP2 GT PUSH2 0x3646 JUMPI PUSH1 0x40 MLOAD PUSH3 0x461BCD PUSH1 0xE5 SHL DUP2 MSTORE PUSH1 0x20 PUSH1 0x4 DUP3 ADD MSTORE PUSH1 0x23 PUSH1 0x24 DUP3 ADD MSTORE PUSH32 0x4D756C74696C6F636B61626C653A206E6F20746F6B656E7320746F2072656C65 PUSH1 0x44 DUP3 ADD MSTORE PUSH3 0x617365 PUSH1 0xE8 SHL PUSH1 0x64 DUP3 ADD MSTORE PUSH1 0x84 ADD PUSH2 0xAC4 JUMP JUMPDEST PUSH2 0x3691 PUSH1 0xE PUSH1 0x0 DUP6 PUSH1 0x1 PUSH1 0x1 PUSH1 0xA0 SHL SUB AND PUSH1 0x1 PUSH1 0x1 PUSH1 0xA0 SHL SUB AND DUP2 MSTORE PUSH1 0x20 ADD SWAP1 DUP2 MSTORE PUSH1 0x20 ADD PUSH1 0x0 KECCAK256 PUSH1 0x1 ADD SLOAD DUP3 PUSH1 0x40 MLOAD DUP1 PUSH1 0x60 ADD PUSH1 0x40 MSTORE DUP1 PUSH1 0x3B DUP2 MSTORE PUSH1 0x20 ADD PUSH2 0x521A PUSH1 0x3B SWAP2 CODECOPY PUSH2 0x20BF JUMP JUMPDEST PUSH1 0x1 PUSH1 0x1 PUSH1 0xA0 SHL SUB SWAP1 SWAP4 AND PUSH1 0x0 SWAP1 DUP2 MSTORE PUSH1 0xE PUSH1 0x20 MSTORE PUSH1 0x40 SWAP1 KECCAK256 PUSH1 0x1 ADD SWAP3 SWAP1 SWAP3 SSTORE POP SWAP1 JUMP JUMPDEST PUSH2 0x36BD PUSH2 0x4D5A JUMP JUMPDEST PUSH1 0x40 MLOAD DUP1 PUSH2 0x6E0 ADD PUSH1 0x40 MSTORE DUP1 PUSH1 0x0 DUP2 MSTORE PUSH1 0x20 ADD PUSH1 0x0 DUP2 MSTORE PUSH1 0x20 ADD PUSH1 0x0 DUP2 MSTORE PUSH1 0x20 ADD PUSH1 0x0 DUP2 MSTORE PUSH1 0x20 ADD PUSH1 0x0 DUP2 MSTORE PUSH1 0x20 ADD PUSH1 0x0 DUP2 MSTORE PUSH1 0x20 ADD PUSH1 0x0 DUP2 MSTORE PUSH1 0x20 ADD PUSH1 0x0 DUP2 MSTORE PUSH1 0x20 ADD PUSH2 0x3716 PUSH3 0x25A3F PUSH8 0xDE0B6B3A7640000 PUSH2 0x4905 JUMP JUMPDEST DUP2 MSTORE PUSH1 0x20 ADD PUSH2 0x3730 PUSH3 0x25A3F PUSH8 0xDE0B6B3A7640000 PUSH2 0x4905 JUMP JUMPDEST DUP2 MSTORE PUSH1 0x20 ADD PUSH2 0x374A PUSH3 0x25A3F PUSH8 0xDE0B6B3A7640000 PUSH2 0x4905 JUMP JUMPDEST DUP2 MSTORE PUSH1 0x20 ADD PUSH2 0x3764 PUSH3 0x25A3F PUSH8 0xDE0B6B3A7640000 PUSH2 0x4905 JUMP JUMPDEST DUP2 MSTORE PUSH1 0x20 ADD PUSH2 0x377E PUSH3 0x25A3F PUSH8 0xDE0B6B3A7640000 PUSH2 0x4905 JUMP JUMPDEST DUP2 MSTORE PUSH1 0x20 ADD PUSH2 0x3798 PUSH3 0x25A3F PUSH8 0xDE0B6B3A7640000 PUSH2 0x4905 JUMP JUMPDEST DUP2 MSTORE PUSH1 0x20 ADD PUSH2 0x37B2 PUSH3 0x25A3F PUSH8 0xDE0B6B3A7640000 PUSH2 0x4905 JUMP JUMPDEST DUP2 MSTORE PUSH1 0x20 ADD PUSH2 0x37CC PUSH3 0x25A3F PUSH8 0xDE0B6B3A7640000 PUSH2 0x4905 JUMP JUMPDEST DUP2 MSTORE PUSH1 0x20 ADD PUSH2 0x37E6 PUSH3 0x9EED1 PUSH8 0xDE0B6B3A7640000 PUSH2 0x4905 JUMP JUMPDEST DUP2 MSTORE PUSH1 0x20 ADD PUSH2 0x3800 PUSH3 0x9EED1 PUSH8 0xDE0B6B3A7640000 PUSH2 0x4905 JUMP JUMPDEST DUP2 MSTORE PUSH1 0x20 ADD PUSH2 0x381A PUSH3 0x9EED1 PUSH8 0xDE0B6B3A7640000 PUSH2 0x4905 JUMP JUMPDEST DUP2 MSTORE PUSH1 0x20 ADD PUSH2 0x3834 PUSH3 0x9EED1 PUSH8 0xDE0B6B3A7640000 PUSH2 0x4905 JUMP JUMPDEST DUP2 MSTORE PUSH1 0x20 ADD PUSH2 0x384E PUSH3 0x9EED1 PUSH8 0xDE0B6B3A7640000 PUSH2 0x4905 JUMP JUMPDEST DUP2 MSTORE PUSH1 0x20 ADD PUSH2 0x3868 PUSH3 0x9EED1 PUSH8 0xDE0B6B3A7640000 PUSH2 0x4905 JUMP JUMPDEST DUP2 MSTORE PUSH1 0x20 ADD PUSH2 0x3882 PUSH3 0x9EED1 PUSH8 0xDE0B6B3A7640000 PUSH2 0x4905 JUMP JUMPDEST DUP2 MSTORE PUSH1 0x20 ADD PUSH2 0x389C PUSH3 0x9EED1 PUSH8 0xDE0B6B3A7640000 PUSH2 0x4905 JUMP JUMPDEST DUP2 MSTORE PUSH1 0x20 ADD PUSH2 0x38B6 PUSH3 0x9EED1 PUSH8 0xDE0B6B3A7640000 PUSH2 0x4905 JUMP JUMPDEST DUP2 MSTORE PUSH1 0x20 ADD PUSH2 0x38D0 PUSH3 0x9EED1 PUSH8 0xDE0B6B3A7640000 PUSH2 0x4905 JUMP JUMPDEST DUP2 MSTORE PUSH1 0x20 ADD PUSH2 0x38EA PUSH3 0x9EED1 PUSH8 0xDE0B6B3A7640000 PUSH2 0x4905 JUMP JUMPDEST DUP2 MSTORE PUSH1 0x20 ADD PUSH2 0x3904 PUSH3 0x9EED1 PUSH8 0xDE0B6B3A7640000 PUSH2 0x4905 JUMP JUMPDEST DUP2 MSTORE PUSH1 0x20 ADD PUSH2 0x391E PUSH3 0x9EED1 PUSH8 0xDE0B6B3A7640000 PUSH2 0x4905 JUMP JUMPDEST DUP2 MSTORE PUSH1 0x20 ADD PUSH2 0x3938 PUSH3 0x9EED1 PUSH8 0xDE0B6B3A7640000 PUSH2 0x4905 JUMP JUMPDEST DUP2 MSTORE PUSH1 0x20 ADD PUSH2 0x3952 PUSH3 0x9EED1 PUSH8 0xDE0B6B3A7640000 PUSH2 0x4905 JUMP JUMPDEST DUP2 MSTORE PUSH1 0x20 ADD PUSH2 0x396C PUSH3 0x9EED1 PUSH8 0xDE0B6B3A7640000 PUSH2 0x4905 JUMP JUMPDEST DUP2 MSTORE PUSH1 0x20 ADD PUSH2 0x3986 PUSH3 0x9EED1 PUSH8 0xDE0B6B3A7640000 PUSH2 0x4905 JUMP JUMPDEST DUP2 MSTORE PUSH1 0x20 ADD PUSH2 0x39A0 PUSH3 0x9EED1 PUSH8 0xDE0B6B3A7640000 PUSH2 0x4905 JUMP JUMPDEST DUP2 MSTORE PUSH1 0x20 ADD PUSH2 0x39BA PUSH3 0x9EED1 PUSH8 0xDE0B6B3A7640000 PUSH2 0x4905 JUMP JUMPDEST DUP2 MSTORE PUSH1 0x20 ADD PUSH2 0x39D4 PUSH3 0x9EED1 PUSH8 0xDE0B6B3A7640000 PUSH2 0x4905 JUMP JUMPDEST DUP2 MSTORE PUSH1 0x20 ADD PUSH2 0x39EE PUSH3 0x9EED1 PUSH8 0xDE0B6B3A7640000 PUSH2 0x4905 JUMP JUMPDEST DUP2 MSTORE PUSH1 0x20 ADD PUSH2 0x3A08 PUSH3 0x9EED1 PUSH8 0xDE0B6B3A7640000 PUSH2 0x4905 JUMP JUMPDEST DUP2 MSTORE PUSH1 0x20 ADD PUSH2 0x3A22 PUSH3 0x9EED1 PUSH8 0xDE0B6B3A7640000 PUSH2 0x4905 JUMP JUMPDEST DUP2 MSTORE PUSH1 0x20 ADD PUSH2 0x3A3C PUSH3 0x9EED1 PUSH8 0xDE0B6B3A7640000 PUSH2 0x4905 JUMP JUMPDEST DUP2 MSTORE PUSH1 0x20 ADD PUSH2 0x3A56 PUSH3 0x9EED1 PUSH8 0xDE0B6B3A7640000 PUSH2 0x4905 JUMP JUMPDEST DUP2 MSTORE PUSH1 0x20 ADD PUSH2 0x3A70 PUSH3 0x9EED1 PUSH8 0xDE0B6B3A7640000 PUSH2 0x4905 JUMP JUMPDEST DUP2 MSTORE PUSH1 0x20 ADD PUSH2 0x3A8A PUSH3 0x9EED1 PUSH8 0xDE0B6B3A7640000 PUSH2 0x4905 JUMP JUMPDEST DUP2 MSTORE PUSH1 0x20 ADD PUSH2 0x3AA4 PUSH3 0x9EED1 PUSH8 0xDE0B6B3A7640000 PUSH2 0x4905 JUMP JUMPDEST DUP2 MSTORE PUSH1 0x20 ADD PUSH2 0x3ABE PUSH3 0x9EED1 PUSH8 0xDE0B6B3A7640000 PUSH2 0x4905 JUMP JUMPDEST DUP2 MSTORE PUSH1 0x20 ADD PUSH2 0x3AD8 PUSH3 0x9EED1 PUSH8 0xDE0B6B3A7640000 PUSH2 0x4905 JUMP JUMPDEST DUP2 MSTORE PUSH1 0x20 ADD PUSH2 0x3AF2 PUSH3 0x9EED1 PUSH8 0xDE0B6B3A7640000 PUSH2 0x4905 JUMP JUMPDEST DUP2 MSTORE PUSH1 0x20 ADD PUSH2 0x3B0C PUSH3 0x9EED1 PUSH8 0xDE0B6B3A7640000 PUSH2 0x4905 JUMP JUMPDEST DUP2 MSTORE PUSH1 0x20 ADD PUSH2 0x3B26 PUSH3 0x9EED1 PUSH8 0xDE0B6B3A7640000 PUSH2 0x4905 JUMP JUMPDEST DUP2 MSTORE PUSH1 0x20 ADD PUSH2 0x3B40 PUSH3 0x9EED1 PUSH8 0xDE0B6B3A7640000 PUSH2 0x4905 JUMP JUMPDEST DUP2 MSTORE PUSH1 0x20 ADD PUSH2 0x2768 PUSH3 0x9EED1 PUSH8 0xDE0B6B3A7640000 PUSH2 0x4905 JUMP JUMPDEST PUSH1 0x1E DUP2 GT ISZERO PUSH2 0x3BC2 JUMPI PUSH1 0x40 MLOAD PUSH3 0x461BCD PUSH1 0xE5 SHL DUP2 MSTORE PUSH1 0x20 PUSH1 0x4 DUP3 ADD MSTORE PUSH1 0x2E PUSH1 0x24 DUP3 ADD MSTORE PUSH32 0x5374616B61626C653A2050656E616C7479206665652063616E6E6F7420657863 PUSH1 0x44 DUP3 ADD MSTORE PUSH14 0x32B2B21019903832B931B2B73A17 PUSH1 0x91 SHL PUSH1 0x64 DUP3 ADD MSTORE PUSH1 0x84 ADD PUSH2 0xAC4 JUMP JUMPDEST PUSH1 0x6 DUP2 SWAP1 SSTORE PUSH1 0x40 MLOAD DUP2 DUP2 MSTORE PUSH32 0xCFA4F4CF1CD64D13A167A8E75605E0C0C9D6700E903D17C5DC11F593254A04A9 SWAP1 PUSH1 0x20 ADD JUMPDEST PUSH1 0x40 MLOAD DUP1 SWAP2 SUB SWAP1 LOG1 POP JUMP JUMPDEST PUSH2 0x3C06 PUSH2 0x4D5A JUMP JUMPDEST PUSH1 0x40 MLOAD DUP1 PUSH2 0x6E0 ADD PUSH1 0x40 MSTORE DUP1 PUSH2 0x3C26 PUSH2 0xAABA PUSH8 0xDE0B6B3A7640000 PUSH2 0x4905 JUMP JUMPDEST DUP2 MSTORE PUSH1 0x20 ADD PUSH2 0x3C3F PUSH2 0xAABA PUSH8 0xDE0B6B3A7640000 PUSH2 0x4905 JUMP JUMPDEST DUP2 MSTORE PUSH1 0x20 ADD PUSH2 0x3C58 PUSH2 0xAABA PUSH8 0xDE0B6B3A7640000 PUSH2 0x4905 JUMP JUMPDEST DUP2 MSTORE PUSH1 0x20 ADD PUSH2 0x3C71 PUSH2 0xAABA PUSH8 0xDE0B6B3A7640000 PUSH2 0x4905 JUMP JUMPDEST DUP2 MSTORE PUSH1 0x20 ADD PUSH2 0x3C8A PUSH2 0xAABA PUSH8 0xDE0B6B3A7640000 PUSH2 0x4905 JUMP JUMPDEST DUP2 MSTORE PUSH1 0x20 ADD PUSH2 0x3CA3 PUSH2 0xAABA PUSH8 0xDE0B6B3A7640000 PUSH2 0x4905 JUMP JUMPDEST DUP2 MSTORE PUSH1 0x20 ADD PUSH2 0x3CBC PUSH2 0xAABA PUSH8 0xDE0B6B3A7640000 PUSH2 0x4905 JUMP JUMPDEST DUP2 MSTORE PUSH1 0x20 ADD PUSH2 0x3CD5 PUSH2 0xAABA PUSH8 0xDE0B6B3A7640000 PUSH2 0x4905 JUMP JUMPDEST DUP2 MSTORE PUSH1 0x20 ADD PUSH2 0x3CEE PUSH2 0xAABA PUSH8 0xDE0B6B3A7640000 PUSH2 0x4905 JUMP JUMPDEST DUP2 MSTORE PUSH1 0x20 ADD PUSH2 0x3D07 PUSH2 0xAABA PUSH8 0xDE0B6B3A7640000 PUSH2 0x4905 JUMP JUMPDEST DUP2 MSTORE PUSH1 0x20 ADD PUSH2 0x3D20 PUSH2 0xAABA PUSH8 0xDE0B6B3A7640000 PUSH2 0x4905 JUMP JUMPDEST DUP2 MSTORE PUSH1 0x20 ADD PUSH2 0x3D39 PUSH2 0xAABA PUSH8 0xDE0B6B3A7640000 PUSH2 0x4905 JUMP JUMPDEST DUP2 MSTORE PUSH1 0x20 ADD PUSH2 0x3D52 PUSH2 0xAABA PUSH8 0xDE0B6B3A7640000 PUSH2 0x4905 JUMP JUMPDEST DUP2 MSTORE PUSH1 0x20 ADD PUSH2 0x3D6B PUSH2 0xAABA PUSH8 0xDE0B6B3A7640000 PUSH2 0x4905 JUMP JUMPDEST DUP2 MSTORE PUSH1 0x20 ADD PUSH2 0x3D84 PUSH2 0xAABA PUSH8 0xDE0B6B3A7640000 PUSH2 0x4905 JUMP JUMPDEST DUP2 MSTORE PUSH1 0x20 ADD PUSH2 0x3D9D PUSH2 0xAABA PUSH8 0xDE0B6B3A7640000 PUSH2 0x4905 JUMP JUMPDEST DUP2 MSTORE PUSH1 0x20 ADD PUSH2 0x3DB7 PUSH3 0x800BB PUSH8 0xDE0B6B3A7640000 PUSH2 0x4905 JUMP JUMPDEST DUP2 MSTORE PUSH1 0x20 ADD PUSH2 0x3DD1 PUSH3 0x800BB PUSH8 0xDE0B6B3A7640000 PUSH2 0x4905 JUMP JUMPDEST DUP2 MSTORE PUSH1 0x20 ADD PUSH2 0x3DEB PUSH3 0x800BB PUSH8 0xDE0B6B3A7640000 PUSH2 0x4905 JUMP JUMPDEST DUP2 MSTORE PUSH1 0x20 ADD PUSH2 0x3E05 PUSH3 0x800BB PUSH8 0xDE0B6B3A7640000 PUSH2 0x4905 JUMP JUMPDEST DUP2 MSTORE PUSH1 0x20 ADD PUSH2 0x3E1F PUSH3 0x800BB PUSH8 0xDE0B6B3A7640000 PUSH2 0x4905 JUMP JUMPDEST DUP2 MSTORE PUSH1 0x20 ADD PUSH2 0x3E39 PUSH3 0x800BB PUSH8 0xDE0B6B3A7640000 PUSH2 0x4905 JUMP JUMPDEST DUP2 MSTORE PUSH1 0x20 ADD PUSH2 0x3E53 PUSH3 0x800BB PUSH8 0xDE0B6B3A7640000 PUSH2 0x4905 JUMP JUMPDEST DUP2 MSTORE PUSH1 0x20 ADD PUSH2 0x3E6D PUSH3 0x800BB PUSH8 0xDE0B6B3A7640000 PUSH2 0x4905 JUMP JUMPDEST DUP2 MSTORE PUSH1 0x20 ADD PUSH2 0x3E87 PUSH3 0x800BB PUSH8 0xDE0B6B3A7640000 PUSH2 0x4905 JUMP JUMPDEST DUP2 MSTORE PUSH1 0x20 ADD PUSH2 0x3EA1 PUSH3 0x800BB PUSH8 0xDE0B6B3A7640000 PUSH2 0x4905 JUMP JUMPDEST DUP2 MSTORE PUSH1 0x20 ADD PUSH2 0x3EBB PUSH3 0x800BB PUSH8 0xDE0B6B3A7640000 PUSH2 0x4905 JUMP JUMPDEST DUP2 MSTORE PUSH1 0x20 ADD PUSH2 0x3ED5 PUSH3 0x800BB PUSH8 0xDE0B6B3A7640000 PUSH2 0x4905 JUMP JUMPDEST DUP2 MSTORE PUSH1 0x20 ADD PUSH1 0x0 DUP2 MSTORE PUSH1 0x20 ADD PUSH1 0x0 DUP2 MSTORE PUSH1 0x20 ADD PUSH1 0x0 DUP2 MSTORE PUSH1 0x20 ADD PUSH1 0x0 DUP2 MSTORE PUSH1 0x20 ADD PUSH1 0x0 DUP2 MSTORE PUSH1 0x20 ADD PUSH1 0x0 DUP2 MSTORE PUSH1 0x20 ADD PUSH1 0x0 DUP2 MSTORE PUSH1 0x20 ADD PUSH1 0x0 DUP2 MSTORE PUSH1 0x20 ADD PUSH1 0x0 DUP2 MSTORE PUSH1 0x20 ADD PUSH1 0x0 DUP2 MSTORE PUSH1 0x20 ADD PUSH1 0x0 DUP2 MSTORE PUSH1 0x20 ADD PUSH1 0x0 DUP2 MSTORE PUSH1 0x20 ADD PUSH1 0x0 DUP2 MSTORE PUSH1 0x20 ADD PUSH1 0x0 DUP2 MSTORE PUSH1 0x20 ADD PUSH1 0x0 DUP2 MSTORE PUSH1 0x20 ADD PUSH1 0x0 DUP2 MSTORE PUSH1 0x20 ADD PUSH1 0x0 DUP2 MSTORE PUSH1 0x20 ADD PUSH1 0x0 DUP2 MSTORE PUSH1 0x20 ADD PUSH1 0x0 DUP2 MSTORE PUSH1 0x20 ADD PUSH1 0x0 DUP2 MSTORE PUSH1 0x20 ADD PUSH1 0x0 DUP2 MSTORE PUSH1 0x20 ADD PUSH1 0x0 DUP2 MSTORE PUSH1 0x20 ADD PUSH1 0x0 DUP2 MSTORE PUSH1 0x20 ADD PUSH1 0x0 DUP2 MSTORE PUSH1 0x20 ADD PUSH1 0x0 DUP2 MSTORE PUSH1 0x20 ADD PUSH1 0x0 DUP2 MSTORE PUSH1 0x20 ADD PUSH1 0x0 DUP2 MSTORE POP SWAP1 POP SWAP1 JUMP JUMPDEST PUSH1 0xB SLOAD DUP2 GT ISZERO PUSH2 0x4008 JUMPI PUSH1 0x40 MLOAD PUSH3 0x461BCD PUSH1 0xE5 SHL DUP2 MSTORE PUSH1 0x20 PUSH1 0x4 DUP3 ADD MSTORE PUSH1 0x33 PUSH1 0x24 DUP3 ADD MSTORE PUSH32 0x4D756C74696C6F636B61626C653A206E6F7420656E6F7567682062616C616E63 PUSH1 0x44 DUP3 ADD MSTORE PUSH19 0x32903A379030B2321030903732BB903AB9B2B9 PUSH1 0x69 SHL PUSH1 0x64 DUP3 ADD MSTORE PUSH1 0x84 ADD PUSH2 0xAC4 JUMP JUMPDEST PUSH1 0x1 PUSH1 0x1 PUSH1 0xA0 SHL SUB DUP3 AND PUSH1 0x0 SWAP1 DUP2 MSTORE PUSH1 0xE PUSH1 0x20 MSTORE PUSH1 0x40 SWAP1 KECCAK256 PUSH1 0x1 ADD SLOAD ISZERO PUSH2 0x4085 JUMPI PUSH1 0x40 MLOAD PUSH3 0x461BCD PUSH1 0xE5 SHL DUP2 MSTORE PUSH1 0x20 PUSH1 0x4 DUP3 ADD MSTORE PUSH1 0x2B PUSH1 0x24 DUP3 ADD MSTORE PUSH32 0x4D756C74696C6F636B61626C653A2054686973207573657220616C7265616479 PUSH1 0x44 DUP3 ADD MSTORE PUSH11 0x81C9959DA5CDD195C9959 PUSH1 0xAA SHL PUSH1 0x64 DUP3 ADD MSTORE PUSH1 0x84 ADD PUSH2 0xAC4 JUMP JUMPDEST PUSH1 0x1 PUSH1 0x1 PUSH1 0xA0 SHL SUB DUP3 AND PUSH1 0x0 SWAP1 DUP2 MSTORE PUSH1 0xE PUSH1 0x20 MSTORE PUSH1 0x40 DUP2 KECCAK256 DUP3 DUP2 SSTORE PUSH1 0x1 DUP1 DUP3 ADD DUP5 SWAP1 SSTORE PUSH1 0x2 DUP3 ADD DUP1 SLOAD PUSH1 0xFF NOT AND SWAP1 SSTORE TIMESTAMP PUSH1 0x3 DUP4 ADD SSTORE PUSH1 0x4 SWAP1 SWAP2 ADD DUP2 SWAP1 SSTORE PUSH1 0xA DUP1 SLOAD SWAP2 SWAP3 SWAP1 SWAP2 PUSH2 0x40D5 SWAP1 DUP5 SWAP1 PUSH2 0x50EC JUMP JUMPDEST SWAP3 POP POP DUP2 SWAP1 SSTORE POP DUP1 PUSH1 0xB PUSH1 0x0 DUP3 DUP3 SLOAD PUSH2 0x40EE SWAP2 SWAP1 PUSH2 0x51A1 JUMP JUMPDEST SWAP1 SWAP2 SSTORE POP POP POP POP JUMP JUMPDEST PUSH1 0xC8 DUP2 GT ISZERO PUSH2 0x4167 JUMPI PUSH1 0x40 MLOAD PUSH3 0x461BCD PUSH1 0xE5 SHL DUP2 MSTORE PUSH1 0x20 PUSH1 0x4 DUP3 ADD MSTORE PUSH1 0x36 PUSH1 0x24 DUP3 ADD MSTORE PUSH32 0x5374616B61626C653A2041697264726F702050657263656E746167652063616E PUSH1 0x44 DUP3 ADD MSTORE PUSH22 0x3737BA1032BC31B2B2B2101918103832B931B2B73A17 PUSH1 0x51 SHL PUSH1 0x64 DUP3 ADD MSTORE PUSH1 0x84 ADD PUSH2 0xAC4 JUMP JUMPDEST PUSH1 0x7 DUP2 SWAP1 SSTORE PUSH1 0x40 MLOAD DUP2 DUP2 MSTORE PUSH32 0xCC672F1026B958C0CFBFDD89EBE8DDCBC127F16EC24DA6C2C7A4DE26A8B1857E SWAP1 PUSH1 0x20 ADD PUSH2 0x3BF3 JUMP JUMPDEST PUSH1 0x0 DUP3 PUSH1 0x20 ADD MLOAD PUSH1 0x0 EQ ISZERO PUSH2 0x41B3 JUMPI POP PUSH1 0x0 PUSH2 0xA94 JUMP JUMPDEST PUSH11 0x52B7D2DCC80CD2E4000000 PUSH2 0x41CC DUP5 PUSH1 0x40 ADD MLOAD PUSH2 0x4C3A JUMP JUMPDEST PUSH1 0xA0 DUP6 ADD MLOAD PUSH2 0x41DB SWAP1 DUP6 PUSH2 0x51B8 JUMP JUMPDEST PUSH2 0x41E5 SWAP2 SWAP1 PUSH2 0x51B8 JUMP JUMPDEST PUSH2 0x20F7 SWAP2 SWAP1 PUSH2 0x517F JUMP JUMPDEST CALLER PUSH1 0x0 SWAP1 DUP2 MSTORE PUSH1 0x9 PUSH1 0x20 MSTORE PUSH1 0x40 DUP2 KECCAK256 SLOAD PUSH1 0x8 DUP1 SLOAD DUP4 SWAP3 SWAP2 DUP4 SWAP2 DUP4 SWAP1 DUP2 LT PUSH2 0x4218 JUMPI PUSH2 0x4218 PUSH2 0x5104 JUMP JUMPDEST SWAP1 PUSH1 0x0 MSTORE PUSH1 0x20 PUSH1 0x0 KECCAK256 SWAP1 PUSH1 0x3 MUL ADD PUSH1 0x2 ADD DUP6 DUP2 SLOAD DUP2 LT PUSH2 0x423A JUMPI PUSH2 0x423A PUSH2 0x5104 JUMP JUMPDEST SWAP1 PUSH1 0x0 MSTORE PUSH1 0x20 PUSH1 0x0 KECCAK256 SWAP1 PUSH1 0x7 MUL ADD SWAP1 POP DUP6 DUP2 PUSH1 0x1 ADD SLOAD LT ISZERO PUSH2 0x42BA JUMPI PUSH1 0x40 MLOAD PUSH3 0x461BCD PUSH1 0xE5 SHL DUP2 MSTORE PUSH1 0x20 PUSH1 0x4 DUP3 ADD MSTORE PUSH1 0x33 PUSH1 0x24 DUP3 ADD MSTORE PUSH32 0x5374616B61626C653A2043616E6E6F74207769746864726177206D6F72652074 PUSH1 0x44 DUP3 ADD MSTORE PUSH19 0x1A185B881E5BDD481A185D99481CDD185AD959 PUSH1 0x6A SHL PUSH1 0x64 DUP3 ADD MSTORE PUSH1 0x84 ADD PUSH2 0xAC4 JUMP JUMPDEST PUSH1 0x40 DUP1 MLOAD PUSH1 0xE0 DUP2 ADD DUP3 MSTORE DUP3 SLOAD PUSH1 0x1 PUSH1 0x1 PUSH1 0xA0 SHL SUB AND DUP2 MSTORE PUSH1 0x1 DUP4 ADD SLOAD PUSH1 0x20 DUP3 ADD MSTORE PUSH1 0x2 DUP4 ADD SLOAD SWAP2 DUP2 ADD SWAP2 SWAP1 SWAP2 MSTORE PUSH1 0x3 DUP3 ADD SLOAD PUSH1 0x60 DUP3 ADD MSTORE PUSH1 0x4 DUP3 ADD SLOAD PUSH1 0x80 DUP3 ADD MSTORE PUSH1 0x5 DUP3 ADD SLOAD PUSH1 0xA0 DUP3 ADD MSTORE PUSH1 0x6 DUP3 ADD SLOAD PUSH1 0xC0 DUP3 ADD MSTORE PUSH1 0x0 SWAP1 PUSH2 0x431C SWAP1 DUP9 PUSH2 0x419C JUMP JUMPDEST SWAP1 POP PUSH1 0x0 DUP3 PUSH1 0x2 ADD SLOAD DUP4 PUSH1 0x6 ADD SLOAD PUSH2 0x4334 SWAP2 SWAP1 PUSH2 0x51A1 JUMP JUMPDEST SWAP1 POP TIMESTAMP DUP4 PUSH1 0x6 ADD SLOAD GT ISZERO PUSH2 0x44E7 JUMPI DUP8 DUP4 PUSH1 0x1 ADD PUSH1 0x0 DUP3 DUP3 SLOAD PUSH2 0x4356 SWAP2 SWAP1 PUSH2 0x51A1 JUMP JUMPDEST SWAP1 SWAP2 SSTORE POP POP PUSH1 0x1 DUP4 ADD SLOAD PUSH2 0x43E2 JUMPI PUSH1 0x8 DUP5 DUP2 SLOAD DUP2 LT PUSH2 0x4377 JUMPI PUSH2 0x4377 PUSH2 0x5104 JUMP JUMPDEST SWAP1 PUSH1 0x0 MSTORE PUSH1 0x20 PUSH1 0x0 KECCAK256 SWAP1 PUSH1 0x3 MUL ADD PUSH1 0x2 ADD DUP8 DUP2 SLOAD DUP2 LT PUSH2 0x4399 JUMPI PUSH2 0x4399 PUSH2 0x5104 JUMP JUMPDEST PUSH1 0x0 SWAP2 DUP3 MSTORE PUSH1 0x20 DUP3 KECCAK256 PUSH1 0x7 SWAP1 SWAP2 MUL ADD DUP1 SLOAD PUSH1 0x1 PUSH1 0x1 PUSH1 0xA0 SHL SUB NOT AND DUP2 SSTORE PUSH1 0x1 DUP2 ADD DUP3 SWAP1 SSTORE PUSH1 0x2 DUP2 ADD DUP3 SWAP1 SSTORE PUSH1 0x3 DUP2 ADD DUP3 SWAP1 SSTORE PUSH1 0x4 DUP2 ADD DUP3 SWAP1 SSTORE PUSH1 0x5 DUP2 ADD DUP3 SWAP1 SSTORE PUSH1 0x6 ADD SSTORE PUSH2 0x44D0 JUMP JUMPDEST DUP3 PUSH1 0x1 ADD SLOAD PUSH1 0x8 DUP6 DUP2 SLOAD DUP2 LT PUSH2 0x43FA JUMPI PUSH2 0x43FA PUSH2 0x5104 JUMP JUMPDEST SWAP1 PUSH1 0x0 MSTORE PUSH1 0x20 PUSH1 0x0 KECCAK256 SWAP1 PUSH1 0x3 MUL ADD PUSH1 0x2 ADD DUP9 DUP2 SLOAD DUP2 LT PUSH2 0x441C JUMPI PUSH2 0x441C PUSH2 0x5104 JUMP JUMPDEST SWAP1 PUSH1 0x0 MSTORE PUSH1 0x20 PUSH1 0x0 KECCAK256 SWAP1 PUSH1 0x7 MUL ADD PUSH1 0x1 ADD DUP2 SWAP1 SSTORE POP TIMESTAMP PUSH1 0x8 DUP6 DUP2 SLOAD DUP2 LT PUSH2 0x4445 JUMPI PUSH2 0x4445 PUSH2 0x5104 JUMP JUMPDEST SWAP1 PUSH1 0x0 MSTORE PUSH1 0x20 PUSH1 0x0 KECCAK256 SWAP1 PUSH1 0x3 MUL ADD PUSH1 0x2 ADD DUP9 DUP2 SLOAD DUP2 LT PUSH2 0x4467 JUMPI PUSH2 0x4467 PUSH2 0x5104 JUMP JUMPDEST PUSH1 0x0 SWAP2 DUP3 MSTORE PUSH1 0x20 SWAP1 SWAP2 KECCAK256 PUSH1 0x2 PUSH1 0x7 SWAP1 SWAP3 MUL ADD ADD SSTORE PUSH2 0x4485 DUP2 TIMESTAMP PUSH2 0x50EC JUMP JUMPDEST PUSH1 0x8 DUP6 DUP2 SLOAD DUP2 LT PUSH2 0x4498 JUMPI PUSH2 0x4498 PUSH2 0x5104 JUMP JUMPDEST SWAP1 PUSH1 0x0 MSTORE PUSH1 0x20 PUSH1 0x0 KECCAK256 SWAP1 PUSH1 0x3 MUL ADD PUSH1 0x2 ADD DUP9 DUP2 SLOAD DUP2 LT PUSH2 0x44BA JUMPI PUSH2 0x44BA PUSH2 0x5104 JUMP JUMPDEST SWAP1 PUSH1 0x0 MSTORE PUSH1 0x20 PUSH1 0x0 KECCAK256 SWAP1 PUSH1 0x7 MUL ADD PUSH1 0x6 ADD DUP2 SWAP1 SSTORE POP JUMPDEST PUSH2 0x44DA DUP9 DUP4 PUSH2 0x4CCF JUMP JUMPDEST SWAP6 POP SWAP6 POP POP POP POP POP PUSH2 0x467E JUMP JUMPDEST DUP8 DUP4 PUSH1 0x1 ADD PUSH1 0x0 DUP3 DUP3 SLOAD PUSH2 0x44FB SWAP2 SWAP1 PUSH2 0x51A1 JUMP JUMPDEST SWAP1 SWAP2 SSTORE POP POP PUSH1 0x1 DUP4 ADD SLOAD PUSH2 0x4587 JUMPI PUSH1 0x8 DUP5 DUP2 SLOAD DUP2 LT PUSH2 0x451C JUMPI PUSH2 0x451C PUSH2 0x5104 JUMP JUMPDEST SWAP1 PUSH1 0x0 MSTORE PUSH1 0x20 PUSH1 0x0 KECCAK256 SWAP1 PUSH1 0x3 MUL ADD PUSH1 0x2 ADD DUP8 DUP2 SLOAD DUP2 LT PUSH2 0x453E JUMPI PUSH2 0x453E PUSH2 0x5104 JUMP JUMPDEST PUSH1 0x0 SWAP2 DUP3 MSTORE PUSH1 0x20 DUP3 KECCAK256 PUSH1 0x7 SWAP1 SWAP2 MUL ADD DUP1 SLOAD PUSH1 0x1 PUSH1 0x1 PUSH1 0xA0 SHL SUB NOT AND DUP2 SSTORE PUSH1 0x1 DUP2 ADD DUP3 SWAP1 SSTORE PUSH1 0x2 DUP2 ADD DUP3 SWAP1 SSTORE PUSH1 0x3 DUP2 ADD DUP3 SWAP1 SSTORE PUSH1 0x4 DUP2 ADD DUP3 SWAP1 SSTORE PUSH1 0x5 DUP2 ADD DUP3 SWAP1 SSTORE PUSH1 0x6 ADD SSTORE PUSH2 0x4675 JUMP JUMPDEST DUP3 PUSH1 0x1 ADD SLOAD PUSH1 0x8 DUP6 DUP2 SLOAD DUP2 LT PUSH2 0x459F JUMPI PUSH2 0x459F PUSH2 0x5104 JUMP JUMPDEST SWAP1 PUSH1 0x0 MSTORE PUSH1 0x20 PUSH1 0x0 KECCAK256 SWAP1 PUSH1 0x3 MUL ADD PUSH1 0x2 ADD DUP9 DUP2 SLOAD DUP2 LT PUSH2 0x45C1 JUMPI PUSH2 0x45C1 PUSH2 0x5104 JUMP JUMPDEST SWAP1 PUSH1 0x0 MSTORE PUSH1 0x20 PUSH1 0x0 KECCAK256 SWAP1 PUSH1 0x7 MUL ADD PUSH1 0x1 ADD DUP2 SWAP1 SSTORE POP TIMESTAMP PUSH1 0x8 DUP6 DUP2 SLOAD DUP2 LT PUSH2 0x45EA JUMPI PUSH2 0x45EA PUSH2 0x5104 JUMP JUMPDEST SWAP1 PUSH1 0x0 MSTORE PUSH1 0x20 PUSH1 0x0 KECCAK256 SWAP1 PUSH1 0x3 MUL ADD PUSH1 0x2 ADD DUP9 DUP2 SLOAD DUP2 LT PUSH2 0x460C JUMPI PUSH2 0x460C PUSH2 0x5104 JUMP JUMPDEST PUSH1 0x0 SWAP2 DUP3 MSTORE PUSH1 0x20 SWAP1 SWAP2 KECCAK256 PUSH1 0x2 PUSH1 0x7 SWAP1 SWAP3 MUL ADD ADD SSTORE PUSH2 0x462A DUP2 TIMESTAMP PUSH2 0x50EC JUMP JUMPDEST PUSH1 0x8 DUP6 DUP2 SLOAD DUP2 LT PUSH2 0x463D JUMPI PUSH2 0x463D PUSH2 0x5104 JUMP JUMPDEST SWAP1 PUSH1 0x0 MSTORE PUSH1 0x20 PUSH1 0x0 KECCAK256 SWAP1 PUSH1 0x3 MUL ADD PUSH1 0x2 ADD DUP9 DUP2 SLOAD DUP2 LT PUSH2 0x465F JUMPI PUSH2 0x465F PUSH2 0x5104 JUMP JUMPDEST SWAP1 PUSH1 0x0 MSTORE PUSH1 0x20 PUSH1 0x0 KECCAK256 SWAP1 PUSH1 0x7 MUL ADD PUSH1 0x6 ADD DUP2 SWAP1 SSTORE POP JUMPDEST POP DUP7 SWAP5 POP SWAP3 POP POP POP JUMPDEST SWAP3 POP SWAP3 SWAP1 POP JUMP JUMPDEST CALLER PUSH1 0x0 SWAP1 DUP2 MSTORE PUSH1 0x9 PUSH1 0x20 MSTORE PUSH1 0x40 DUP2 KECCAK256 SLOAD PUSH1 0x8 DUP1 SLOAD DUP4 SWAP3 SWAP2 DUP4 SWAP2 DUP4 SWAP1 DUP2 LT PUSH2 0x46AE JUMPI PUSH2 0x46AE PUSH2 0x5104 JUMP JUMPDEST SWAP1 PUSH1 0x0 MSTORE PUSH1 0x20 PUSH1 0x0 KECCAK256 SWAP1 PUSH1 0x3 MUL ADD PUSH1 0x2 ADD DUP6 DUP2 SLOAD DUP2 LT PUSH2 0x46D0 JUMPI PUSH2 0x46D0 PUSH2 0x5104 JUMP JUMPDEST SWAP1 PUSH1 0x0 MSTORE PUSH1 0x20 PUSH1 0x0 KECCAK256 SWAP1 PUSH1 0x7 MUL ADD SWAP1 POP PUSH1 0x0 DUP2 PUSH1 0x1 ADD SLOAD GT PUSH2 0x4764 JUMPI PUSH1 0x40 MLOAD PUSH3 0x461BCD PUSH1 0xE5 SHL DUP2 MSTORE PUSH1 0x20 PUSH1 0x4 DUP3 ADD MSTORE PUSH1 0x41 PUSH1 0x24 DUP3 ADD MSTORE PUSH32 0x5374616B61626C653A2043616E6E6F742077697468647261772C20796F752064 PUSH1 0x44 DUP3 ADD MSTORE PUSH32 0x6F6E2774206861766520616E79207374616B6520696E207468697320496E6465 PUSH1 0x64 DUP3 ADD MSTORE PUSH1 0xF PUSH1 0xFB SHL PUSH1 0x84 DUP3 ADD MSTORE PUSH1 0xA4 ADD PUSH2 0xAC4 JUMP JUMPDEST PUSH1 0x1 DUP2 ADD SLOAD PUSH1 0x40 DUP1 MLOAD PUSH1 0xE0 DUP2 ADD DUP3 MSTORE DUP4 SLOAD PUSH1 0x1 PUSH1 0x1 PUSH1 0xA0 SHL SUB AND DUP2 MSTORE PUSH1 0x20 DUP2 ADD DUP4 SWAP1 MSTORE PUSH1 0x2 DUP5 ADD SLOAD SWAP2 DUP2 ADD SWAP2 SWAP1 SWAP2 MSTORE PUSH1 0x3 DUP4 ADD SLOAD PUSH1 0x60 DUP3 ADD MSTORE PUSH1 0x4 DUP4 ADD SLOAD PUSH1 0x80 DUP3 ADD MSTORE PUSH1 0x5 DUP4 ADD SLOAD PUSH1 0xA0 DUP3 ADD MSTORE PUSH1 0x6 DUP4 ADD SLOAD PUSH1 0xC0 DUP3 ADD MSTORE PUSH1 0x0 SWAP1 PUSH2 0x47C8 SWAP1 DUP4 PUSH2 0x419C JUMP JUMPDEST SWAP1 POP TIMESTAMP DUP4 PUSH1 0x6 ADD SLOAD GT ISZERO PUSH2 0x4880 JUMPI DUP2 DUP4 PUSH1 0x1 ADD PUSH1 0x0 DUP3 DUP3 SLOAD PUSH2 0x47EA SWAP2 SWAP1 PUSH2 0x51A1 JUMP JUMPDEST SWAP1 SWAP2 SSTORE POP POP PUSH1 0x8 DUP1 SLOAD DUP6 SWAP1 DUP2 LT PUSH2 0x4803 JUMPI PUSH2 0x4803 PUSH2 0x5104 JUMP JUMPDEST SWAP1 PUSH1 0x0 MSTORE PUSH1 0x20 PUSH1 0x0 KECCAK256 SWAP1 PUSH1 0x3 MUL ADD PUSH1 0x2 ADD DUP8 DUP2 SLOAD DUP2 LT PUSH2 0x4825 JUMPI PUSH2 0x4825 PUSH2 0x5104 JUMP JUMPDEST PUSH1 0x0 SWAP2 DUP3 MSTORE PUSH1 0x20 DUP3 KECCAK256 PUSH1 0x7 SWAP1 SWAP2 MUL ADD DUP1 SLOAD PUSH1 0x1 PUSH1 0x1 PUSH1 0xA0 SHL SUB NOT AND DUP2 SSTORE PUSH1 0x1 DUP2 ADD DUP3 SWAP1 SSTORE PUSH1 0x2 DUP2 ADD DUP3 SWAP1 SSTORE PUSH1 0x3 DUP2 ADD DUP3 SWAP1 SSTORE PUSH1 0x4 DUP2 ADD DUP3 SWAP1 SSTORE PUSH1 0x5 DUP2 ADD DUP3 SWAP1 SSTORE PUSH1 0x6 ADD SSTORE PUSH2 0x4873 DUP3 DUP3 PUSH2 0x4CCF JUMP JUMPDEST SWAP6 POP SWAP6 POP POP POP POP POP SWAP2 POP SWAP2 JUMP JUMPDEST PUSH1 0x8 DUP5 DUP2 SLOAD DUP2 LT PUSH2 0x4893 JUMPI PUSH2 0x4893 PUSH2 0x5104 JUMP JUMPDEST SWAP1 PUSH1 0x0 MSTORE PUSH1 0x20 PUSH1 0x0 KECCAK256 SWAP1 PUSH1 0x3 MUL ADD PUSH1 0x2 ADD DUP8 DUP2 SLOAD DUP2 LT PUSH2 0x48B5 JUMPI PUSH2 0x48B5 PUSH2 0x5104 JUMP JUMPDEST PUSH1 0x0 SWAP2 DUP3 MSTORE PUSH1 0x20 DUP3 KECCAK256 PUSH1 0x7 SWAP1 SWAP2 MUL ADD DUP1 SLOAD PUSH1 0x1 PUSH1 0x1 PUSH1 0xA0 SHL SUB NOT AND DUP2 SSTORE PUSH1 0x1 DUP2 ADD DUP3 SWAP1 SSTORE PUSH1 0x2 DUP2 ADD DUP3 SWAP1 SSTORE PUSH1 0x3 DUP2 ADD DUP3 SWAP1 SSTORE PUSH1 0x4 DUP2 ADD DUP3 SWAP1 SSTORE PUSH1 0x5 DUP2 ADD DUP3 SWAP1 SSTORE PUSH1 0x6 ADD SSTORE SWAP1 SWAP7 SWAP1 SWAP6 POP SWAP4 POP POP POP POP JUMP JUMPDEST PUSH1 0x0 PUSH2 0x20F7 DUP3 DUP5 PUSH2 0x51B8 JUMP JUMPDEST PUSH1 0x8 DUP1 SLOAD PUSH1 0x1 SWAP1 DUP2 ADD DUP1 DUP4 SSTORE PUSH1 0x0 SWAP3 DUP4 MSTORE DUP3 SWAP2 PUSH2 0x492D SWAP2 PUSH2 0x51A1 JUMP JUMPDEST SWAP1 POP DUP3 PUSH1 0x8 DUP3 DUP2 SLOAD DUP2 LT PUSH2 0x4943 JUMPI PUSH2 0x4943 PUSH2 0x5104 JUMP JUMPDEST SWAP1 PUSH1 0x0 MSTORE PUSH1 0x20 PUSH1 0x0 KECCAK256 SWAP1 PUSH1 0x3 MUL ADD PUSH1 0x0 ADD PUSH1 0x0 PUSH2 0x100 EXP DUP2 SLOAD DUP2 PUSH1 0x1 PUSH1 0x1 PUSH1 0xA0 SHL SUB MUL NOT AND SWAP1 DUP4 PUSH1 0x1 PUSH1 0x1 PUSH1 0xA0 SHL SUB AND MUL OR SWAP1 SSTORE POP TIMESTAMP PUSH1 0x8 DUP3 DUP2 SLOAD DUP2 LT PUSH2 0x498C JUMPI PUSH2 0x498C PUSH2 0x5104 JUMP JUMPDEST PUSH1 0x0 SWAP2 DUP3 MSTORE PUSH1 0x20 DUP1 DUP4 KECCAK256 PUSH1 0x1 PUSH1 0x3 SWAP1 SWAP4 MUL ADD SWAP2 SWAP1 SWAP2 ADD SWAP3 SWAP1 SWAP3 SSTORE PUSH1 0x1 PUSH1 0x1 PUSH1 0xA0 SHL SUB SWAP1 SWAP5 AND DUP5 MSTORE PUSH1 0x9 SWAP1 MSTORE PUSH1 0x40 SWAP1 SWAP3 KECCAK256 DUP3 SWAP1 SSTORE POP SWAP1 JUMP JUMPDEST PUSH1 0x1 PUSH1 0x1 PUSH1 0xA0 SHL SUB DUP2 AND PUSH1 0x0 SWAP1 DUP2 MSTORE PUSH1 0xE PUSH1 0x20 MSTORE PUSH1 0x40 DUP2 KECCAK256 PUSH1 0x3 ADD SLOAD DUP2 SWAP1 DUP2 SWAP1 PUSH3 0x15180 SWAP1 PUSH2 0x49F2 SWAP1 TIMESTAMP PUSH2 0x51A1 JUMP JUMPDEST PUSH2 0x49FC SWAP2 SWAP1 PUSH2 0x517F JUMP JUMPDEST SWAP1 POP PUSH2 0x1E0 DUP2 LT ISZERO PUSH2 0x4AB7 JUMPI PUSH1 0x1 PUSH1 0x1 PUSH1 0xA0 SHL SUB DUP5 AND PUSH1 0x0 SWAP1 DUP2 MSTORE PUSH1 0xE PUSH1 0x20 MSTORE PUSH1 0x40 SWAP1 KECCAK256 PUSH1 0x2 ADD SLOAD PUSH1 0xFF AND PUSH2 0x4A91 JUMPI PUSH1 0xC SLOAD PUSH1 0x1 PUSH1 0x1 PUSH1 0xA0 SHL SUB DUP6 AND PUSH1 0x0 SWAP1 DUP2 MSTORE PUSH1 0xE PUSH1 0x20 MSTORE PUSH1 0x40 SWAP1 KECCAK256 SLOAD PUSH2 0x4A68 SWAP2 PUSH2 0x4A61 SWAP2 PUSH2 0x4A59 SWAP2 SWAP1 PUSH2 0x4905 JUMP JUMPDEST PUSH1 0xB SLOAD PUSH2 0x20EB JUMP JUMPDEST DUP4 SWAP1 PUSH2 0x20FE JUMP JUMPDEST PUSH1 0x1 PUSH1 0x1 PUSH1 0xA0 SHL SUB DUP6 AND PUSH1 0x0 SWAP1 DUP2 MSTORE PUSH1 0xE PUSH1 0x20 MSTORE PUSH1 0x40 SWAP1 KECCAK256 PUSH1 0x2 ADD DUP1 SLOAD PUSH1 0xFF NOT AND PUSH1 0x1 OR SWAP1 SSTORE SWAP2 POP JUMPDEST PUSH1 0x1 PUSH1 0x1 PUSH1 0xA0 SHL SUB DUP5 AND PUSH1 0x0 SWAP1 DUP2 MSTORE PUSH1 0xE PUSH1 0x20 MSTORE PUSH1 0x40 SWAP1 KECCAK256 PUSH2 0x1C2 PUSH1 0x4 SWAP1 SWAP2 ADD SSTORE PUSH2 0x4BD2 JUMP JUMPDEST PUSH2 0x1E0 DUP2 LT ISZERO DUP1 ISZERO PUSH2 0x4ACA JUMPI POP PUSH2 0x348 DUP2 LT JUMPDEST ISZERO PUSH2 0x4BD2 JUMPI PUSH1 0x1 PUSH1 0x1 PUSH1 0xA0 SHL SUB DUP5 AND PUSH1 0x0 SWAP1 DUP2 MSTORE PUSH1 0xE PUSH1 0x20 MSTORE PUSH1 0x40 SWAP1 KECCAK256 PUSH1 0x2 ADD SLOAD PUSH1 0xFF AND PUSH2 0x4B49 JUMPI PUSH1 0xC SLOAD PUSH1 0x1 PUSH1 0x1 PUSH1 0xA0 SHL SUB DUP6 AND PUSH1 0x0 SWAP1 DUP2 MSTORE PUSH1 0xE PUSH1 0x20 MSTORE PUSH1 0x40 SWAP1 KECCAK256 SLOAD PUSH2 0x4B20 SWAP2 PUSH2 0x4A61 SWAP2 PUSH2 0x4A59 SWAP2 SWAP1 PUSH2 0x4905 JUMP JUMPDEST PUSH1 0x1 PUSH1 0x1 PUSH1 0xA0 SHL SUB DUP6 AND PUSH1 0x0 SWAP1 DUP2 MSTORE PUSH1 0xE PUSH1 0x20 MSTORE PUSH1 0x40 SWAP1 KECCAK256 PUSH1 0x2 ADD DUP1 SLOAD PUSH1 0xFF NOT AND PUSH1 0x1 OR SWAP1 SSTORE SWAP2 POP JUMPDEST PUSH1 0x1 PUSH1 0x1 PUSH1 0xA0 SHL SUB DUP5 AND PUSH1 0x0 SWAP1 DUP2 MSTORE PUSH1 0xE PUSH1 0x20 MSTORE PUSH1 0x40 DUP2 KECCAK256 PUSH1 0x4 ADD SLOAD PUSH2 0x4B6F SWAP1 DUP4 PUSH2 0x51A1 JUMP JUMPDEST PUSH1 0xD SLOAD PUSH1 0x1 PUSH1 0x1 PUSH1 0xA0 SHL SUB DUP8 AND PUSH1 0x0 SWAP1 DUP2 MSTORE PUSH1 0xE PUSH1 0x20 MSTORE PUSH1 0x40 SWAP1 KECCAK256 SLOAD SWAP2 SWAP3 POP PUSH2 0x4BA6 SWAP2 PUSH2 0x4B9F SWAP2 PUSH2 0x4A59 SWAP2 PUSH2 0x4905 JUMP JUMPDEST DUP5 SWAP1 PUSH2 0x20FE JUMP JUMPDEST PUSH2 0x4BB0 SWAP1 DUP3 PUSH2 0x51B8 JUMP JUMPDEST PUSH1 0x1 PUSH1 0x1 PUSH1 0xA0 SHL SUB DUP7 AND PUSH1 0x0 SWAP1 DUP2 MSTORE PUSH1 0xE PUSH1 0x20 MSTORE PUSH1 0x40 SWAP1 KECCAK256 PUSH1 0x4 ADD DUP4 SWAP1 SSTORE SWAP3 POP POP JUMPDEST DUP2 PUSH2 0x4C33 JUMPI PUSH1 0x40 MLOAD PUSH3 0x461BCD PUSH1 0xE5 SHL DUP2 MSTORE PUSH1 0x20 PUSH1 0x4 DUP3 ADD MSTORE PUSH1 0x2B PUSH1 0x24 DUP3 ADD MSTORE PUSH32 0x4D756C74696C6F636B61626C653A2054686572652773206E6F7468696E672074 PUSH1 0x44 DUP3 ADD MSTORE PUSH11 0x1BC818DB185A5B481E595D PUSH1 0xAA SHL PUSH1 0x64 DUP3 ADD MSTORE PUSH1 0x84 ADD PUSH2 0xAC4 JUMP JUMPDEST POP SWAP3 SWAP2 POP POP JUMP JUMPDEST PUSH1 0x0 DUP1 DUP3 GT PUSH2 0x4C8B JUMPI PUSH1 0x40 MLOAD PUSH3 0x461BCD PUSH1 0xE5 SHL DUP2 MSTORE PUSH1 0x20 PUSH1 0x4 DUP3 ADD MSTORE PUSH1 0x1B PUSH1 0x24 DUP3 ADD MSTORE PUSH32 0x5374616B61626C653A204572726F722074696D657374616D7020300000000000 PUSH1 0x44 DUP3 ADD MSTORE PUSH1 0x64 ADD PUSH2 0xAC4 JUMP JUMPDEST PUSH2 0xA94 PUSH2 0x4C98 DUP4 TIMESTAMP PUSH2 0x51A1 JUMP JUMPDEST PUSH2 0x4CAC SWAP1 PUSH10 0xD3C21BCECCEDA1000000 PUSH2 0x51B8 JUMP JUMPDEST PUSH4 0x1E13380 PUSH1 0x40 MLOAD DUP1 PUSH1 0x60 ADD PUSH1 0x40 MSTORE DUP1 PUSH1 0x27 DUP2 MSTORE PUSH1 0x20 ADD PUSH2 0x51F3 PUSH1 0x27 SWAP2 CODECOPY PUSH2 0x4D20 JUMP JUMPDEST PUSH1 0x0 DUP1 DUP4 PUSH2 0x4CE2 JUMPI POP PUSH1 0x0 SWAP1 POP DUP1 PUSH2 0x467E JUMP JUMPDEST PUSH2 0x4D02 DUP5 PUSH2 0x4CFD PUSH2 0x4CF5 DUP8 PUSH1 0x6 SLOAD PUSH2 0x4905 JUMP JUMPDEST PUSH2 0x3E8 PUSH2 0x20EB JUMP JUMPDEST PUSH2 0x222F JUMP JUMPDEST PUSH2 0x4D15 DUP5 PUSH2 0x4CFD PUSH2 0x4CF5 DUP8 PUSH1 0x6 SLOAD PUSH2 0x4905 JUMP JUMPDEST SWAP2 POP SWAP2 POP SWAP3 POP SWAP3 SWAP1 POP JUMP JUMPDEST PUSH1 0x0 DUP2 DUP4 PUSH2 0x4D41 JUMPI PUSH1 0x40 MLOAD PUSH3 0x461BCD PUSH1 0xE5 SHL DUP2 MSTORE PUSH1 0x4 ADD PUSH2 0xAC4 SWAP2 SWAP1 PUSH2 0x4D79 JUMP JUMPDEST POP DUP3 DUP5 DUP2 PUSH2 0x4D51 JUMPI PUSH2 0x4D51 PUSH2 0x5169 JUMP JUMPDEST DIV SWAP5 SWAP4 POP POP POP POP JUMP JUMPDEST PUSH1 0x40 MLOAD DUP1 PUSH2 0x6E0 ADD PUSH1 0x40 MSTORE DUP1 PUSH1 0x37 SWAP1 PUSH1 0x20 DUP3 MUL DUP1 CALLDATASIZE DUP4 CALLDATACOPY POP SWAP2 SWAP3 SWAP2 POP POP JUMP JUMPDEST PUSH1 0x0 PUSH1 0x20 DUP1 DUP4 MSTORE DUP4 MLOAD DUP1 DUP3 DUP6 ADD MSTORE PUSH1 0x0 JUMPDEST DUP2 DUP2 LT ISZERO PUSH2 0x4DA6 JUMPI DUP6 DUP2 ADD DUP4 ADD MLOAD DUP6 DUP3 ADD PUSH1 0x40 ADD MSTORE DUP3 ADD PUSH2 0x4D8A JUMP JUMPDEST DUP2 DUP2 GT ISZERO PUSH2 0x4DB8 JUMPI PUSH1 0x0 PUSH1 0x40 DUP4 DUP8 ADD ADD MSTORE JUMPDEST POP PUSH1 0x1F ADD PUSH1 0x1F NOT AND SWAP3 SWAP1 SWAP3 ADD PUSH1 0x40 ADD SWAP4 SWAP3 POP POP POP JUMP JUMPDEST PUSH1 0x1 PUSH1 0x1 PUSH1 0xA0 SHL SUB DUP2 AND DUP2 EQ PUSH2 0xF3E JUMPI PUSH1 0x0 DUP1 REVERT JUMPDEST PUSH1 0x0 DUP1 PUSH1 0x40 DUP4 DUP6 SUB SLT ISZERO PUSH2 0x4DF6 JUMPI PUSH1 0x0 DUP1 REVERT JUMPDEST DUP3 CALLDATALOAD PUSH2 0x4E01 DUP2 PUSH2 0x4DCE JUMP JUMPDEST SWAP5 PUSH1 0x20 SWAP4 SWAP1 SWAP4 ADD CALLDATALOAD SWAP4 POP POP POP JUMP JUMPDEST PUSH1 0x0 PUSH1 0x20 DUP3 DUP5 SUB SLT ISZERO PUSH2 0x4E21 JUMPI PUSH1 0x0 DUP1 REVERT JUMPDEST POP CALLDATALOAD SWAP2 SWAP1 POP JUMP JUMPDEST PUSH1 0x0 DUP1 PUSH1 0x0 PUSH1 0x60 DUP5 DUP7 SUB SLT ISZERO PUSH2 0x4E3D JUMPI PUSH1 0x0 DUP1 REVERT JUMPDEST DUP4 CALLDATALOAD PUSH2 0x4E48 DUP2 PUSH2 0x4DCE JUMP JUMPDEST SWAP3 POP PUSH1 0x20 DUP5 ADD CALLDATALOAD PUSH2 0x4E58 DUP2 PUSH2 0x4DCE JUMP JUMPDEST SWAP3 SWAP6 SWAP3 SWAP5 POP POP POP PUSH1 0x40 SWAP2 SWAP1 SWAP2 ADD CALLDATALOAD SWAP1 JUMP JUMPDEST PUSH1 0x0 PUSH1 0x20 DUP3 DUP5 SUB SLT ISZERO PUSH2 0x4E7B JUMPI PUSH1 0x0 DUP1 REVERT JUMPDEST DUP2 CALLDATALOAD PUSH2 0x20F7 DUP2 PUSH2 0x4DCE JUMP JUMPDEST PUSH1 0x0 DUP1 PUSH1 0x40 DUP4 DUP6 SUB SLT ISZERO PUSH2 0x4E99 JUMPI PUSH1 0x0 DUP1 REVERT JUMPDEST POP POP DUP1 CALLDATALOAD SWAP3 PUSH1 0x20 SWAP1 SWAP2 ADD CALLDATALOAD SWAP2 POP JUMP JUMPDEST PUSH1 0x0 PUSH1 0x20 DUP3 DUP5 SUB SLT ISZERO PUSH2 0x4EBA JUMPI PUSH1 0x0 DUP1 REVERT JUMPDEST DUP2 CALLDATALOAD PUSH2 0xFFFF DUP2 AND DUP2 EQ PUSH2 0x20F7 JUMPI PUSH1 0x0 DUP1 REVERT JUMPDEST PUSH1 0x0 PUSH1 0x20 DUP3 DUP5 SUB SLT ISZERO PUSH2 0x4EDE JUMPI PUSH1 0x0 DUP1 REVERT JUMPDEST DUP2 CALLDATALOAD DUP1 ISZERO ISZERO DUP2 EQ PUSH2 0x20F7 JUMPI PUSH1 0x0 DUP1 REVERT JUMPDEST PUSH1 0x0 DUP1 PUSH1 0x40 DUP4 DUP6 SUB SLT ISZERO PUSH2 0x4F01 JUMPI PUSH1 0x0 DUP1 REVERT JUMPDEST DUP3 CALLDATALOAD PUSH2 0x4F0C DUP2 PUSH2 0x4DCE JUMP JUMPDEST SWAP2 POP PUSH1 0x20 DUP4 ADD CALLDATALOAD PUSH2 0x4F1C DUP2 PUSH2 0x4DCE JUMP JUMPDEST DUP1 SWAP2 POP POP SWAP3 POP SWAP3 SWAP1 POP JUMP JUMPDEST PUSH1 0x0 PUSH1 0x20 DUP1 DUP4 MSTORE PUSH1 0x60 DUP1 DUP5 ADD DUP6 MLOAD DUP4 DUP7 ADD MSTORE DUP3 DUP7 ADD MLOAD PUSH1 0x40 DUP1 DUP2 DUP9 ADD MSTORE DUP3 DUP3 MLOAD DUP1 DUP6 MSTORE PUSH1 0x80 SWAP5 POP DUP5 DUP10 ADD SWAP2 POP DUP7 DUP5 ADD SWAP4 POP PUSH1 0x0 JUMPDEST DUP2 DUP2 LT ISZERO PUSH2 0x4FB8 JUMPI DUP5 MLOAD DUP1 MLOAD PUSH1 0x1 PUSH1 0x1 PUSH1 0xA0 SHL SUB AND DUP5 MSTORE DUP9 DUP2 ADD MLOAD DUP10 DUP6 ADD MSTORE DUP5 DUP2 ADD MLOAD DUP6 DUP6 ADD MSTORE DUP8 DUP2 ADD MLOAD DUP9 DUP6 ADD MSTORE DUP7 DUP2 ADD MLOAD DUP8 DUP6 ADD MSTORE PUSH1 0xA0 DUP1 DUP3 ADD MLOAD SWAP1 DUP6 ADD MSTORE PUSH1 0xC0 SWAP1 DUP2 ADD MLOAD SWAP1 DUP5 ADD MSTORE SWAP4 DUP8 ADD SWAP4 PUSH1 0xE0 SWAP1 SWAP3 ADD SWAP2 PUSH1 0x1 ADD PUSH2 0x4F5B JUMP JUMPDEST POP SWAP1 SWAP10 SWAP9 POP POP POP POP POP POP POP POP POP JUMP JUMPDEST PUSH1 0x1 DUP2 DUP2 SHR SWAP1 DUP3 AND DUP1 PUSH2 0x4FDB JUMPI PUSH1 0x7F DUP3 AND SWAP2 POP JUMPDEST PUSH1 0x20 DUP3 LT DUP2 EQ ISZERO PUSH2 0x4FFC JUMPI PUSH4 0x4E487B71 PUSH1 0xE0 SHL PUSH1 0x0 MSTORE PUSH1 0x22 PUSH1 0x4 MSTORE PUSH1 0x24 PUSH1 0x0 REVERT JUMPDEST POP SWAP2 SWAP1 POP JUMP JUMPDEST PUSH1 0x20 DUP1 DUP3 MSTORE DUP2 DUP2 ADD MSTORE PUSH32 0x4F776E61626C653A2063616C6C6572206973206E6F7420746865206F776E6572 PUSH1 0x40 DUP3 ADD MSTORE PUSH1 0x60 ADD SWAP1 JUMP JUMPDEST PUSH1 0x0 PUSH1 0x20 DUP3 DUP5 SUB SLT ISZERO PUSH2 0x5049 JUMPI PUSH1 0x0 DUP1 REVERT JUMPDEST DUP2 MLOAD PUSH2 0x20F7 DUP2 PUSH2 0x4DCE JUMP JUMPDEST PUSH1 0x20 DUP1 DUP3 MSTORE PUSH1 0x1D SWAP1 DUP3 ADD MSTORE PUSH32 0x54616C6178546F6B656E3A2057616C6C6574204F776E6572204F6E6C79000000 PUSH1 0x40 DUP3 ADD MSTORE PUSH1 0x60 ADD SWAP1 JUMP JUMPDEST PUSH2 0x6E0 DUP2 ADD DUP2 DUP4 PUSH1 0x0 JUMPDEST PUSH1 0x37 DUP2 LT ISZERO PUSH2 0x50B4 JUMPI DUP2 MLOAD DUP4 MSTORE PUSH1 0x20 SWAP3 DUP4 ADD SWAP3 SWAP1 SWAP2 ADD SWAP1 PUSH1 0x1 ADD PUSH2 0x5095 JUMP JUMPDEST POP POP POP SWAP3 SWAP2 POP POP JUMP JUMPDEST PUSH1 0x0 PUSH1 0x20 DUP3 DUP5 SUB SLT ISZERO PUSH2 0x50CF JUMPI PUSH1 0x0 DUP1 REVERT JUMPDEST POP MLOAD SWAP2 SWAP1 POP JUMP JUMPDEST PUSH4 0x4E487B71 PUSH1 0xE0 SHL PUSH1 0x0 MSTORE PUSH1 0x11 PUSH1 0x4 MSTORE PUSH1 0x24 PUSH1 0x0 REVERT JUMPDEST PUSH1 0x0 DUP3 NOT DUP3 GT ISZERO PUSH2 0x50FF JUMPI PUSH2 0x50FF PUSH2 0x50D6 JUMP JUMPDEST POP ADD SWAP1 JUMP JUMPDEST PUSH4 0x4E487B71 PUSH1 0xE0 SHL PUSH1 0x0 MSTORE PUSH1 0x32 PUSH1 0x4 MSTORE PUSH1 0x24 PUSH1 0x0 REVERT JUMPDEST PUSH1 0x20 DUP1 DUP3 MSTORE PUSH1 0x2F SWAP1 DUP3 ADD MSTORE PUSH32 0x5374616B61626C653A2054686973206164647265737320646F6573206E6F7420 PUSH1 0x40 DUP3 ADD MSTORE PUSH15 0x6861766520616E79207374616B6573 PUSH1 0x88 SHL PUSH1 0x60 DUP3 ADD MSTORE PUSH1 0x80 ADD SWAP1 JUMP JUMPDEST PUSH4 0x4E487B71 PUSH1 0xE0 SHL PUSH1 0x0 MSTORE PUSH1 0x12 PUSH1 0x4 MSTORE PUSH1 0x24 PUSH1 0x0 REVERT JUMPDEST PUSH1 0x0 DUP3 PUSH2 0x519C JUMPI PUSH4 0x4E487B71 PUSH1 0xE0 SHL PUSH1 0x0 MSTORE PUSH1 0x12 PUSH1 0x4 MSTORE PUSH1 0x24 PUSH1 0x0 REVERT JUMPDEST POP DIV SWAP1 JUMP JUMPDEST PUSH1 0x0 DUP3 DUP3 LT ISZERO PUSH2 0x51B3 JUMPI PUSH2 0x51B3 PUSH2 0x50D6 JUMP JUMPDEST POP SUB SWAP1 JUMP JUMPDEST PUSH1 0x0 DUP2 PUSH1 0x0 NOT DIV DUP4 GT DUP3 ISZERO ISZERO AND ISZERO PUSH2 0x51D2 JUMPI PUSH2 0x51D2 PUSH2 0x50D6 JUMP JUMPDEST POP MUL SWAP1 JUMP JUMPDEST PUSH1 0x0 PUSH1 0x0 NOT DUP3 EQ ISZERO PUSH2 0x51EB JUMPI PUSH2 0x51EB PUSH2 0x50D6 JUMP JUMPDEST POP PUSH1 0x1 ADD SWAP1 JUMP INVALID MSTORE8 PUSH21 0x616B61626C653A204572726F722063616E6E6F7420 PUSH5 0x6976696465 KECCAK256 PUSH21 0x696D657374616D704D756C74696C6F636B61626C65 GASPRICE KECCAK256 NUMBER PUSH2 0x6E6E PUSH16 0x742073756273747261637420746F7461 PUSH13 0x20616D6F756E74207769746820 PUSH4 0x6C61696D PUSH2 0x626C PUSH6 0x54616C617854 PUSH16 0x6B656E3A207472616E73666572206578 PUSH4 0x65656473 KECCAK256 PUSH3 0x616C61 PUSH15 0x6365DDF252AD1BE2C89B69C2B068FC CALLDATACOPY DUP14 0xAA SWAP6 0x2B 0xA7 CALL PUSH4 0xC4A11628 CREATE2 GAS 0x4D CREATE2 0x23 0xB3 0xEF LOG2 PUSH5 0x6970667358 0x22 SLT KECCAK256 RETURNDATASIZE 0xFC RETURNDATACOPY JUMPDEST SWAP5 0xBF PUSH1 0xED 0xC4 DUP5 DELEGATECALL 0xE0 0x2B 0xAC 0x1F SMOD 0x49 0xEE PUSH24 0x3F4B8F085316A109937BA218264736F6C634300080B0033 PUSH1 0xA0 PUSH1 0x40 MSTORE CALLVALUE DUP1 ISZERO PUSH2 0x10 JUMPI PUSH1 0x0 DUP1 REVERT JUMPDEST POP PUSH1 0x40 MLOAD PUSH2 0x63C CODESIZE SUB DUP1 PUSH2 0x63C DUP4 CODECOPY DUP2 ADD PUSH1 0x40 DUP2 SWAP1 MSTORE PUSH2 0x2F SWAP2 PUSH2 0xC0 JUMP JUMPDEST PUSH1 0x0 DUP3 GT PUSH2 0x93 JUMPI PUSH1 0x40 MLOAD PUSH3 0x461BCD PUSH1 0xE5 SHL DUP2 MSTORE PUSH1 0x20 PUSH1 0x4 DUP3 ADD MSTORE PUSH1 0x27 PUSH1 0x24 DUP3 ADD MSTORE PUSH32 0x4C6F636B61626C653A20416D6F756E74206D7573742067726561746572207468 PUSH1 0x44 DUP3 ADD MSTORE PUSH7 0x616E207A65726F PUSH1 0xC8 SHL PUSH1 0x64 DUP3 ADD MSTORE PUSH1 0x84 ADD PUSH1 0x40 MLOAD DUP1 SWAP2 SUB SWAP1 REVERT JUMPDEST PUSH1 0x0 SWAP2 SWAP1 SWAP2 SSTORE PUSH1 0x1 PUSH1 0x1 PUSH1 0xA0 SHL SUB AND PUSH1 0x80 MSTORE TIMESTAMP PUSH1 0x2 SSTORE PUSH1 0x1 DUP1 SLOAD PUSH1 0x1 PUSH1 0x1 PUSH1 0xA0 SHL SUB NOT AND CALLER OR SWAP1 SSTORE PUSH2 0xFD JUMP JUMPDEST PUSH1 0x0 DUP1 PUSH1 0x40 DUP4 DUP6 SUB SLT ISZERO PUSH2 0xD3 JUMPI PUSH1 0x0 DUP1 REVERT JUMPDEST DUP3 MLOAD PUSH1 0x20 DUP5 ADD MLOAD SWAP1 SWAP3 POP PUSH1 0x1 PUSH1 0x1 PUSH1 0xA0 SHL SUB DUP2 AND DUP2 EQ PUSH2 0xF2 JUMPI PUSH1 0x0 DUP1 REVERT JUMPDEST DUP1 SWAP2 POP POP SWAP3 POP SWAP3 SWAP1 POP JUMP JUMPDEST PUSH1 0x80 MLOAD PUSH2 0x525 PUSH2 0x117 PUSH1 0x0 CODECOPY PUSH1 0x0 PUSH1 0x5E ADD MSTORE PUSH2 0x525 PUSH1 0x0 RETURN INVALID PUSH1 0x80 PUSH1 0x40 MSTORE CALLVALUE DUP1 ISZERO PUSH2 0x10 JUMPI PUSH1 0x0 DUP1 REVERT JUMPDEST POP PUSH1 0x4 CALLDATASIZE LT PUSH2 0x57 JUMPI PUSH1 0x0 CALLDATALOAD PUSH1 0xE0 SHR DUP1 PUSH4 0x38AF3EED EQ PUSH2 0x5C JUMPI DUP1 PUSH4 0x67E404CE EQ PUSH2 0x9B JUMPI DUP1 PUSH4 0x8DA5CB5B EQ PUSH2 0xA1 JUMPI DUP1 PUSH4 0xAA8C217C EQ PUSH2 0xB4 JUMPI DUP1 PUSH4 0xE7D88C42 EQ PUSH2 0xC6 JUMPI JUMPDEST PUSH1 0x0 DUP1 REVERT JUMPDEST PUSH32 0x0 JUMPDEST PUSH1 0x40 MLOAD PUSH1 0x1 PUSH1 0x1 PUSH1 0xA0 SHL SUB SWAP1 SWAP2 AND DUP2 MSTORE PUSH1 0x20 ADD JUMPDEST PUSH1 0x40 MLOAD DUP1 SWAP2 SUB SWAP1 RETURN JUMPDEST CALLER PUSH2 0x7E JUMP JUMPDEST PUSH1 0x1 SLOAD PUSH2 0x7E SWAP1 PUSH1 0x1 PUSH1 0x1 PUSH1 0xA0 SHL SUB AND DUP2 JUMP JUMPDEST PUSH1 0x0 SLOAD JUMPDEST PUSH1 0x40 MLOAD SWAP1 DUP2 MSTORE PUSH1 0x20 ADD PUSH2 0x92 JUMP JUMPDEST PUSH2 0xB8 PUSH2 0xD4 CALLDATASIZE PUSH1 0x4 PUSH2 0x33F JUMP JUMPDEST PUSH1 0x1 SLOAD PUSH1 0x0 SWAP1 PUSH1 0x1 PUSH1 0x1 PUSH1 0xA0 SHL SUB AND CALLER EQ PUSH2 0x154 JUMPI PUSH1 0x40 MLOAD PUSH3 0x461BCD PUSH1 0xE5 SHL DUP2 MSTORE PUSH1 0x20 PUSH1 0x4 DUP3 ADD MSTORE PUSH1 0x35 PUSH1 0x24 DUP3 ADD MSTORE PUSH32 0x4C6F636B61626C653A2063616C6C6572206861766520746F2062652054616C61 PUSH1 0x44 DUP3 ADD MSTORE PUSH21 0x1E151BDAD95B8814DB585C9D0810DBDB9D1C9858DD PUSH1 0x5A SHL PUSH1 0x64 DUP3 ADD MSTORE PUSH1 0x84 ADD JUMPDEST PUSH1 0x40 MLOAD DUP1 SWAP2 SUB SWAP1 REVERT JUMPDEST PUSH1 0x0 DUP1 SLOAD GT PUSH2 0x1A5 JUMPI PUSH1 0x40 MLOAD PUSH3 0x461BCD PUSH1 0xE5 SHL DUP2 MSTORE PUSH1 0x20 PUSH1 0x4 DUP3 ADD MSTORE PUSH1 0x18 PUSH1 0x24 DUP3 ADD MSTORE PUSH32 0x4C6F636B61626C653A206E6F20746F6B656E73206C6566740000000000000000 PUSH1 0x44 DUP3 ADD MSTORE PUSH1 0x64 ADD PUSH2 0x14B JUMP JUMPDEST PUSH1 0x0 PUSH2 0x1B0 DUP4 PUSH2 0x230 JUMP JUMPDEST SWAP1 POP PUSH1 0x0 DUP2 GT PUSH2 0x202 JUMPI PUSH1 0x40 MLOAD PUSH3 0x461BCD PUSH1 0xE5 SHL DUP2 MSTORE PUSH1 0x20 PUSH1 0x4 DUP3 ADD MSTORE PUSH1 0x1E PUSH1 0x24 DUP3 ADD MSTORE PUSH32 0x4C6F636B61626C653A206E6F20746F6B656E7320746F2072656C656173650000 PUSH1 0x44 DUP3 ADD MSTORE PUSH1 0x64 ADD PUSH2 0x14B JUMP JUMPDEST PUSH2 0x227 PUSH1 0x0 SLOAD DUP3 PUSH1 0x40 MLOAD DUP1 PUSH1 0x60 ADD PUSH1 0x40 MSTORE DUP1 PUSH1 0x36 DUP2 MSTORE PUSH1 0x20 ADD PUSH2 0x4BA PUSH1 0x36 SWAP2 CODECOPY PUSH2 0x307 JUMP JUMPDEST PUSH1 0x0 SSTORE SWAP3 SWAP2 POP POP JUMP JUMPDEST PUSH1 0x0 DUP1 PUSH3 0x278D00 PUSH1 0x2 SLOAD TIMESTAMP PUSH2 0x245 SWAP2 SWAP1 PUSH2 0x3E2 JUMP JUMPDEST PUSH2 0x24F SWAP2 SWAP1 PUSH2 0x3F9 JUMP JUMPDEST PUSH1 0x3 SLOAD SWAP1 SWAP2 POP PUSH1 0x0 SWAP1 JUMPDEST PUSH1 0x37 DUP2 GT PUSH2 0x295 JUMPI PUSH2 0x281 DUP3 DUP7 DUP4 PUSH1 0x37 DUP2 LT PUSH2 0x277 JUMPI PUSH2 0x277 PUSH2 0x41B JUMP JUMPDEST PUSH1 0x20 MUL ADD MLOAD PUSH2 0x333 JUMP JUMPDEST SWAP2 POP DUP1 PUSH2 0x28D DUP2 PUSH2 0x431 JUMP JUMPDEST SWAP2 POP POP PUSH2 0x259 JUMP JUMPDEST POP PUSH2 0x2A1 DUP3 PUSH1 0x1 PUSH2 0x44C JUMP JUMPDEST PUSH1 0x3 SSTORE DUP1 PUSH2 0x300 JUMPI PUSH1 0x40 MLOAD PUSH3 0x461BCD PUSH1 0xE5 SHL DUP2 MSTORE PUSH1 0x20 PUSH1 0x4 DUP3 ADD MSTORE PUSH1 0x26 PUSH1 0x24 DUP3 ADD MSTORE PUSH32 0x4C6F636B61626C653A2054686572652773206E6F7468696E6720746F20636C61 PUSH1 0x44 DUP3 ADD MSTORE PUSH6 0x1A5B481E595D PUSH1 0xD2 SHL PUSH1 0x64 DUP3 ADD MSTORE PUSH1 0x84 ADD PUSH2 0x14B JUMP JUMPDEST SWAP4 SWAP3 POP POP POP JUMP JUMPDEST PUSH1 0x0 DUP2 DUP5 DUP5 GT ISZERO PUSH2 0x32B JUMPI PUSH1 0x40 MLOAD PUSH3 0x461BCD PUSH1 0xE5 SHL DUP2 MSTORE PUSH1 0x4 ADD PUSH2 0x14B SWAP2 SWAP1 PUSH2 0x464 JUMP JUMPDEST POP POP POP SWAP1 SUB SWAP1 JUMP JUMPDEST PUSH1 0x0 PUSH2 0x300 DUP3 DUP5 PUSH2 0x44C JUMP JUMPDEST PUSH1 0x0 PUSH2 0x6E0 DUP1 DUP4 DUP6 SUB SLT ISZERO PUSH2 0x353 JUMPI PUSH1 0x0 DUP1 REVERT JUMPDEST DUP4 PUSH1 0x1F DUP5 ADD SLT PUSH2 0x362 JUMPI PUSH1 0x0 DUP1 REVERT JUMPDEST PUSH1 0x40 MLOAD DUP2 DUP2 ADD DUP2 DUP2 LT PUSH8 0xFFFFFFFFFFFFFFFF DUP3 GT OR ISZERO PUSH2 0x392 JUMPI PUSH4 0x4E487B71 PUSH1 0xE0 SHL PUSH1 0x0 MSTORE PUSH1 0x41 PUSH1 0x4 MSTORE PUSH1 0x24 PUSH1 0x0 REVERT JUMPDEST PUSH1 0x40 MSTORE SWAP1 DUP4 ADD SWAP1 DUP1 DUP6 DUP4 GT ISZERO PUSH2 0x3A7 JUMPI PUSH1 0x0 DUP1 REVERT JUMPDEST DUP5 JUMPDEST DUP4 DUP2 LT ISZERO PUSH2 0x3C1 JUMPI DUP1 CALLDATALOAD DUP3 MSTORE PUSH1 0x20 SWAP2 DUP3 ADD SWAP2 ADD PUSH2 0x3A9 JUMP JUMPDEST POP SWAP1 SWAP6 SWAP5 POP POP POP POP POP JUMP JUMPDEST PUSH4 0x4E487B71 PUSH1 0xE0 SHL PUSH1 0x0 MSTORE PUSH1 0x11 PUSH1 0x4 MSTORE PUSH1 0x24 PUSH1 0x0 REVERT JUMPDEST PUSH1 0x0 DUP3 DUP3 LT ISZERO PUSH2 0x3F4 JUMPI PUSH2 0x3F4 PUSH2 0x3CC JUMP JUMPDEST POP SUB SWAP1 JUMP JUMPDEST PUSH1 0x0 DUP3 PUSH2 0x416 JUMPI PUSH4 0x4E487B71 PUSH1 0xE0 SHL PUSH1 0x0 MSTORE PUSH1 0x12 PUSH1 0x4 MSTORE PUSH1 0x24 PUSH1 0x0 REVERT JUMPDEST POP DIV SWAP1 JUMP JUMPDEST PUSH4 0x4E487B71 PUSH1 0xE0 SHL PUSH1 0x0 MSTORE PUSH1 0x32 PUSH1 0x4 MSTORE PUSH1 0x24 PUSH1 0x0 REVERT JUMPDEST PUSH1 0x0 PUSH1 0x0 NOT DUP3 EQ ISZERO PUSH2 0x445 JUMPI PUSH2 0x445 PUSH2 0x3CC JUMP JUMPDEST POP PUSH1 0x1 ADD SWAP1 JUMP JUMPDEST PUSH1 0x0 DUP3 NOT DUP3 GT ISZERO PUSH2 0x45F JUMPI PUSH2 0x45F PUSH2 0x3CC JUMP JUMPDEST POP ADD SWAP1 JUMP JUMPDEST PUSH1 0x0 PUSH1 0x20 DUP1 DUP4 MSTORE DUP4 MLOAD DUP1 DUP3 DUP6 ADD MSTORE PUSH1 0x0 JUMPDEST DUP2 DUP2 LT ISZERO PUSH2 0x491 JUMPI DUP6 DUP2 ADD DUP4 ADD MLOAD DUP6 DUP3 ADD PUSH1 0x40 ADD MSTORE DUP3 ADD PUSH2 0x475 JUMP JUMPDEST DUP2 DUP2 GT ISZERO PUSH2 0x4A3 JUMPI PUSH1 0x0 PUSH1 0x40 DUP4 DUP8 ADD ADD MSTORE JUMPDEST POP PUSH1 0x1F ADD PUSH1 0x1F NOT AND SWAP3 SWAP1 SWAP3 ADD PUSH1 0x40 ADD SWAP4 SWAP3 POP POP POP JUMP INVALID 0x4C PUSH16 0x636B61626C653A2043616E6E6F742073 PUSH22 0x6273747261637420746F74616C20616D6F756E742077 PUSH10 0x746820636C61696D6162 PUSH13 0x65A26469706673582212203768 SWAP5 POP 0xBE CODESIZE SAR 0xBA PUSH26 0xD9F733DBE90AA191778E9D63CBE828528E3B8FAC7BF2464736F PUSH13 0x634300080B003354616C617854 PUSH16 0x6B656E3A2043616E6E6F74207472616E PUSH20 0x666572206D6F7265207468616E20746F74616C20 PUSH20 0x7570706C79000000000000000000000000000000 "
		},
		"gasEstimates": {
			"creation": {
				"codeDepositCost": "4239600",
				"executionCost": "infinite",
				"totalCost": "infinite"
			},
			"external": {
				"": "infinite",
				"_airdropStatus()": "2399",
				"_stakingReward()": "2331",
				"_taxFee()": "2458",
				"addBeneficiary(address,uint256)": "168289",
				"allowance(address,address)": "infinite",
				"approve(address,uint256)": "24691",
				"balanceOf(address)": "2676",
				"burn(uint256)": "infinite",
				"burnFrom(address,uint256)": "infinite",
				"burnLiquidityReserve(uint256)": "infinite",
				"burnStakingReward(uint256)": "infinite",
				"changeAirdropPercentage(uint256)": "25751",
				"changeAirdropStatus(bool)": "28167",
				"changePenaltyFee(uint256)": "25719",
				"changeTaxFee(uint16)": "28174",
				"claimAirdrop()": "infinite",
				"claimPrivateSale()": "infinite",
				"decimals()": "267",
				"decreaseAllowance(address,uint256)": "27078",
				"getOwner()": "2459",
				"hasMultilockable()": "13463",
				"hasStake(address)": "infinite",
				"increaseAllowance(address,uint256)": "27089",
				"liquidityReserveBalance()": "2460",
				"mint(address,uint256)": "infinite",
				"mintLiquidityReserve(uint256)": "infinite",
				"mintStakingReward(uint256)": "infinite",
				"name()": "infinite",
				"owner()": "2487",
				"penaltyFee()": "2437",
				"renounceOwnership()": "28185",
				"stake(uint256,uint256)": "infinite",
				"symbol()": "infinite",
				"taxFee()": "2387",
				"thisAddress()": "345",
				"totalSupply()": "2438",
				"transfer(address,uint256)": "infinite",
				"transferFrom(address,address,uint256)": "infinite",
				"transferOwnership(address)": "infinite",
				"unlockDevPoolWallet_1()": "infinite",
				"unlockDevPoolWallet_2()": "infinite",
				"unlockDevPoolWallet_3()": "infinite",
				"unlockPrivatePlacementWallet()": "infinite",
				"unlockStrategicPartnerWallet_1()": "infinite",
				"unlockStrategicPartnerWallet_2()": "infinite",
				"unlockStrategicPartnerWallet_3()": "infinite",
				"unlockTeamAndProjectCoordinatorWallet_1()": "infinite",
				"unlockTeamAndProjectCoordinatorWallet_2()": "infinite",
				"unlockTeamAndProjectCoordinatorWallet_3()": "infinite",
				"withdrawAllStake(uint256)": "infinite",
				"withdrawStake(uint256,uint256)": "infinite"
			},
			"internal": {
				"_addThirdOfValue(uint256)": "infinite",
				"_burn(address,uint256)": "infinite",
				"_spendAllowance(address,address,uint256)": "infinite",
				"_transfer(address,address,uint256)": "infinite",
				"devPoolReleaseAmount()": "infinite",
				"privatePlacementReleaseAmount()": "infinite",
				"strategicPartnerReleaseAmount()": "infinite",
				"teamAndProjectCoordinatorReleaseAmount()": "infinite",
				"toString(uint256)": "infinite"
			}
		},
		"methodIdentifiers": {
			"_airdropStatus()": "7cb85214",
			"_stakingReward()": "06f200bd",
			"_taxFee()": "3b124fe7",
			"addBeneficiary(address,uint256)": "96074e70",
			"allowance(address,address)": "dd62ed3e",
			"approve(address,uint256)": "095ea7b3",
			"balanceOf(address)": "70a08231",
			"burn(uint256)": "42966c68",
			"burnFrom(address,uint256)": "79cc6790",
			"burnLiquidityReserve(uint256)": "8b7c64da",
			"burnStakingReward(uint256)": "0e1b09ed",
			"changeAirdropPercentage(uint256)": "d5dbdf1b",
			"changeAirdropStatus(bool)": "adf3364c",
			"changePenaltyFee(uint256)": "8c63f97f",
			"changeTaxFee(uint16)": "8902cd70",
			"claimAirdrop()": "5b88349d",
			"claimPrivateSale()": "7c2412f9",
			"decimals()": "313ce567",
			"decreaseAllowance(address,uint256)": "a457c2d7",
			"getOwner()": "893d20e8",
			"hasMultilockable()": "19ca147d",
			"hasStake(address)": "e73e14bf",
			"increaseAllowance(address,uint256)": "39509351",
			"liquidityReserveBalance()": "bea8e46b",
			"mint(address,uint256)": "40c10f19",
			"mintLiquidityReserve(uint256)": "d94d4ad6",
			"mintStakingReward(uint256)": "a169c515",
			"name()": "06fdde03",
			"owner()": "8da5cb5b",
			"penaltyFee()": "3dc10ad4",
			"renounceOwnership()": "715018a6",
			"stake(uint256,uint256)": "7b0472f0",
			"symbol()": "95d89b41",
			"taxFee()": "a071dcf4",
			"thisAddress()": "d4dca69b",
			"totalSupply()": "18160ddd",
			"transfer(address,uint256)": "a9059cbb",
			"transferFrom(address,address,uint256)": "23b872dd",
			"transferOwnership(address)": "f2fde38b",
			"unlockDevPoolWallet_1()": "b8b18e89",
			"unlockDevPoolWallet_2()": "eb9f4ac7",
			"unlockDevPoolWallet_3()": "84f3996d",
			"unlockPrivatePlacementWallet()": "934851ec",
			"unlockStrategicPartnerWallet_1()": "8378a875",
			"unlockStrategicPartnerWallet_2()": "15441bb9",
			"unlockStrategicPartnerWallet_3()": "883d9984",
			"unlockTeamAndProjectCoordinatorWallet_1()": "56029137",
			"unlockTeamAndProjectCoordinatorWallet_2()": "90a4c709",
			"unlockTeamAndProjectCoordinatorWallet_3()": "3f3ef2dc",
			"withdrawAllStake(uint256)": "f729b00f",
			"withdrawStake(uint256,uint256)": "f1fdf469"
		}
	},
	"abi": [
		{
			"inputs": [],
			"stateMutability": "nonpayable",
			"type": "constructor"
		},
		{
			"anonymous": false,
			"inputs": [
				{
					"indexed": true,
					"internalType": "address",
					"name": "from",
					"type": "address"
				},
				{
					"indexed": true,
					"internalType": "address",
					"name": "who",
					"type": "address"
				}
			],
			"name": "AddPrivatePlacement",
			"type": "event"
		},
		{
			"anonymous": false,
			"inputs": [
				{
					"indexed": true,
					"internalType": "address",
					"name": "from",
					"type": "address"
				},
				{
					"indexed": true,
					"internalType": "address",
					"name": "who",
					"type": "address"
				}
			],
			"name": "AddStrategicPartner",
			"type": "event"
		},
		{
			"anonymous": false,
			"inputs": [
				{
					"indexed": false,
					"internalType": "uint256",
					"name": "amount",
					"type": "uint256"
				}
			],
			"name": "AirdropChanged",
			"type": "event"
		},
		{
			"anonymous": false,
			"inputs": [
				{
					"indexed": true,
					"internalType": "address",
					"name": "owner",
					"type": "address"
				},
				{
					"indexed": true,
					"internalType": "address",
					"name": "spender",
					"type": "address"
				},
				{
					"indexed": false,
					"internalType": "uint256",
					"name": "value",
					"type": "uint256"
				}
			],
			"name": "Approval",
			"type": "event"
		},
		{
			"anonymous": false,
			"inputs": [
				{
					"indexed": true,
					"internalType": "address",
					"name": "who",
					"type": "address"
				},
				{
					"indexed": false,
					"internalType": "bool",
					"name": "status",
					"type": "bool"
				}
			],
			"name": "ChangeAirdropStatus",
			"type": "event"
		},
		{
			"anonymous": false,
			"inputs": [
				{
					"indexed": true,
					"internalType": "address",
					"name": "who",
					"type": "address"
				},
				{
					"indexed": false,
					"internalType": "uint256",
					"name": "amount",
					"type": "uint256"
				}
			],
			"name": "ChangeTax",
			"type": "event"
		},
		{
			"anonymous": false,
			"inputs": [
				{
					"indexed": true,
					"internalType": "address",
					"name": "from",
					"type": "address"
				},
				{
					"indexed": true,
					"internalType": "address",
					"name": "who",
					"type": "address"
				}
			],
			"name": "DeletePrivatePlacement",
			"type": "event"
		},
		{
			"anonymous": false,
			"inputs": [
				{
					"indexed": true,
					"internalType": "address",
					"name": "from",
					"type": "address"
				},
				{
					"indexed": true,
					"internalType": "address",
					"name": "who",
					"type": "address"
				}
			],
			"name": "DeleteStrategicPartner",
			"type": "event"
		},
		{
			"anonymous": false,
			"inputs": [
				{
					"indexed": true,
					"internalType": "address",
					"name": "previousOwner",
					"type": "address"
				},
				{
					"indexed": true,
					"internalType": "address",
					"name": "newOwner",
					"type": "address"
				}
			],
			"name": "OwnershipTransferred",
			"type": "event"
		},
		{
			"anonymous": false,
			"inputs": [
				{
					"indexed": false,
					"internalType": "uint256",
					"name": "amount",
					"type": "uint256"
				}
			],
			"name": "PenaltyChanged",
			"type": "event"
		},
		{
			"anonymous": false,
			"inputs": [
				{
					"indexed": true,
					"internalType": "address",
					"name": "user",
					"type": "address"
				},
				{
					"indexed": false,
					"internalType": "uint256",
					"name": "amount",
					"type": "uint256"
				},
				{
					"indexed": false,
					"internalType": "uint256",
					"name": "index",
					"type": "uint256"
				},
				{
					"indexed": false,
					"internalType": "uint256",
					"name": "timestamp",
					"type": "uint256"
				},
				{
					"indexed": false,
					"internalType": "uint256",
					"name": "releaseTime",
					"type": "uint256"
				}
			],
			"name": "Staked",
			"type": "event"
		},
		{
			"anonymous": false,
			"inputs": [
				{
					"indexed": true,
					"internalType": "address",
					"name": "from",
					"type": "address"
				},
				{
					"indexed": true,
					"internalType": "address",
					"name": "to",
					"type": "address"
				},
				{
					"indexed": false,
					"internalType": "uint256",
					"name": "value",
					"type": "uint256"
				}
			],
			"name": "Transfer",
			"type": "event"
		},
		{
			"stateMutability": "payable",
			"type": "fallback"
		},
		{
			"inputs": [],
			"name": "_airdropStatus",
			"outputs": [
				{
					"internalType": "bool",
					"name": "",
					"type": "bool"
				}
			],
			"stateMutability": "view",
			"type": "function"
		},
		{
			"inputs": [],
			"name": "_stakingReward",
			"outputs": [
				{
					"internalType": "uint256",
					"name": "",
					"type": "uint256"
				}
			],
			"stateMutability": "view",
			"type": "function"
		},
		{
			"inputs": [],
			"name": "_taxFee",
			"outputs": [
				{
					"internalType": "uint16",
					"name": "",
					"type": "uint16"
				}
			],
			"stateMutability": "view",
			"type": "function"
		},
		{
			"inputs": [
				{
					"internalType": "address",
					"name": "user",
					"type": "address"
				},
				{
					"internalType": "uint256",
					"name": "amount",
					"type": "uint256"
				}
			],
			"name": "addBeneficiary",
			"outputs": [],
			"stateMutability": "nonpayable",
			"type": "function"
		},
		{
			"inputs": [
				{
					"internalType": "address",
					"name": "owner",
					"type": "address"
				},
				{
					"internalType": "address",
					"name": "spender",
					"type": "address"
				}
			],
			"name": "allowance",
			"outputs": [
				{
					"internalType": "uint256",
					"name": "",
					"type": "uint256"
				}
			],
			"stateMutability": "view",
			"type": "function"
		},
		{
			"inputs": [
				{
					"internalType": "address",
					"name": "spender",
					"type": "address"
				},
				{
					"internalType": "uint256",
					"name": "amount",
					"type": "uint256"
				}
			],
			"name": "approve",
			"outputs": [
				{
					"internalType": "bool",
					"name": "",
					"type": "bool"
				}
			],
			"stateMutability": "nonpayable",
			"type": "function"
		},
		{
			"inputs": [
				{
					"internalType": "address",
					"name": "account",
					"type": "address"
				}
			],
			"name": "balanceOf",
			"outputs": [
				{
					"internalType": "uint256",
					"name": "",
					"type": "uint256"
				}
			],
			"stateMutability": "view",
			"type": "function"
		},
		{
			"inputs": [
				{
					"internalType": "uint256",
					"name": "amount",
					"type": "uint256"
				}
			],
			"name": "burn",
			"outputs": [],
			"stateMutability": "nonpayable",
			"type": "function"
		},
		{
			"inputs": [
				{
					"internalType": "address",
					"name": "account",
					"type": "address"
				},
				{
					"internalType": "uint256",
					"name": "amount",
					"type": "uint256"
				}
			],
			"name": "burnFrom",
			"outputs": [],
			"stateMutability": "nonpayable",
			"type": "function"
		},
		{
			"inputs": [
				{
					"internalType": "uint256",
					"name": "amount_",
					"type": "uint256"
				}
			],
			"name": "burnLiquidityReserve",
			"outputs": [],
			"stateMutability": "nonpayable",
			"type": "function"
		},
		{
			"inputs": [
				{
					"internalType": "uint256",
					"name": "amount_",
					"type": "uint256"
				}
			],
			"name": "burnStakingReward",
			"outputs": [],
			"stateMutability": "nonpayable",
			"type": "function"
		},
		{
			"inputs": [
				{
					"internalType": "uint256",
					"name": "airdrop_",
					"type": "uint256"
				}
			],
			"name": "changeAirdropPercentage",
			"outputs": [],
			"stateMutability": "nonpayable",
			"type": "function"
		},
		{
			"inputs": [
				{
					"internalType": "bool",
					"name": "status_",
					"type": "bool"
				}
			],
			"name": "changeAirdropStatus",
			"outputs": [],
			"stateMutability": "nonpayable",
			"type": "function"
		},
		{
			"inputs": [
				{
					"internalType": "uint256",
					"name": "penaltyFee_",
					"type": "uint256"
				}
			],
			"name": "changePenaltyFee",
			"outputs": [],
			"stateMutability": "nonpayable",
			"type": "function"
		},
		{
			"inputs": [
				{
					"internalType": "uint16",
					"name": "taxFee_",
					"type": "uint16"
				}
			],
			"name": "changeTaxFee",
			"outputs": [],
			"stateMutability": "nonpayable",
			"type": "function"
		},
		{
			"inputs": [],
			"name": "claimAirdrop",
			"outputs": [],
			"stateMutability": "nonpayable",
			"type": "function"
		},
		{
			"inputs": [],
			"name": "claimPrivateSale",
			"outputs": [],
			"stateMutability": "nonpayable",
			"type": "function"
		},
		{
			"inputs": [],
			"name": "decimals",
			"outputs": [
				{
					"internalType": "uint8",
					"name": "",
					"type": "uint8"
				}
			],
			"stateMutability": "pure",
			"type": "function"
		},
		{
			"inputs": [
				{
					"internalType": "address",
					"name": "spender",
					"type": "address"
				},
				{
					"internalType": "uint256",
					"name": "subtractedValue",
					"type": "uint256"
				}
			],
			"name": "decreaseAllowance",
			"outputs": [
				{
					"internalType": "bool",
					"name": "",
					"type": "bool"
				}
			],
			"stateMutability": "nonpayable",
			"type": "function"
		},
		{
			"inputs": [],
			"name": "getOwner",
			"outputs": [
				{
					"internalType": "address",
					"name": "",
					"type": "address"
				}
			],
			"stateMutability": "view",
			"type": "function"
		},
		{
			"inputs": [],
			"name": "hasMultilockable",
			"outputs": [
				{
					"components": [
						{
							"internalType": "uint256",
							"name": "lockedAmount",
							"type": "uint256"
						},
						{
							"internalType": "uint256",
							"name": "amount",
							"type": "uint256"
						},
						{
							"internalType": "bool",
							"name": "phase_1_claimed",
							"type": "bool"
						},
						{
							"internalType": "uint256",
							"name": "startLockedWallet",
							"type": "uint256"
						},
						{
							"internalType": "uint256",
							"name": "latestClaimDay",
							"type": "uint256"
						}
					],
					"internalType": "struct Multilockable.Multilock",
					"name": "",
					"type": "tuple"
				}
			],
			"stateMutability": "view",
			"type": "function"
		},
		{
			"inputs": [
				{
					"internalType": "address",
					"name": "_staker",
					"type": "address"
				}
			],
			"name": "hasStake",
			"outputs": [
				{
					"components": [
						{
							"internalType": "uint256",
							"name": "total_amount",
							"type": "uint256"
						},
						{
							"components": [
								{
									"internalType": "address",
									"name": "user",
									"type": "address"
								},
								{
									"internalType": "uint256",
									"name": "amount",
									"type": "uint256"
								},
								{
									"internalType": "uint256",
									"name": "since",
									"type": "uint256"
								},
								{
									"internalType": "uint256",
									"name": "claimable",
									"type": "uint256"
								},
								{
									"internalType": "uint256",
									"name": "claimable_airdrop",
									"type": "uint256"
								},
								{
									"internalType": "uint256",
									"name": "rewardAPY",
									"type": "uint256"
								},
								{
									"internalType": "uint256",
									"name": "releaseTime",
									"type": "uint256"
								}
							],
							"internalType": "struct Stakable.Stake[]",
							"name": "stakes",
							"type": "tuple[]"
						}
					],
					"internalType": "struct Stakable.StakingSummary",
					"name": "",
					"type": "tuple"
				}
			],
			"stateMutability": "view",
			"type": "function"
		},
		{
			"inputs": [
				{
					"internalType": "address",
					"name": "spender",
					"type": "address"
				},
				{
					"internalType": "uint256",
					"name": "addedValue",
					"type": "uint256"
				}
			],
			"name": "increaseAllowance",
			"outputs": [
				{
					"internalType": "bool",
					"name": "",
					"type": "bool"
				}
			],
			"stateMutability": "nonpayable",
			"type": "function"
		},
		{
			"inputs": [],
			"name": "liquidityReserveBalance",
			"outputs": [
				{
					"internalType": "uint256",
					"name": "",
					"type": "uint256"
				}
			],
			"stateMutability": "view",
			"type": "function"
		},
		{
			"inputs": [
				{
					"internalType": "address",
					"name": "to",
					"type": "address"
				},
				{
					"internalType": "uint256",
					"name": "amount",
					"type": "uint256"
				}
			],
			"name": "mint",
			"outputs": [],
			"stateMutability": "nonpayable",
			"type": "function"
		},
		{
			"inputs": [
				{
					"internalType": "uint256",
					"name": "amount_",
					"type": "uint256"
				}
			],
			"name": "mintLiquidityReserve",
			"outputs": [],
			"stateMutability": "nonpayable",
			"type": "function"
		},
		{
			"inputs": [
				{
					"internalType": "uint256",
					"name": "amount_",
					"type": "uint256"
				}
			],
			"name": "mintStakingReward",
			"outputs": [],
			"stateMutability": "nonpayable",
			"type": "function"
		},
		{
			"inputs": [],
			"name": "name",
			"outputs": [
				{
					"internalType": "string",
					"name": "",
					"type": "string"
				}
			],
			"stateMutability": "view",
			"type": "function"
		},
		{
			"inputs": [],
			"name": "owner",
			"outputs": [
				{
					"internalType": "address",
					"name": "",
					"type": "address"
				}
			],
			"stateMutability": "view",
			"type": "function"
		},
		{
			"inputs": [],
			"name": "penaltyFee",
			"outputs": [
				{
					"internalType": "uint256",
					"name": "",
					"type": "uint256"
				}
			],
			"stateMutability": "view",
			"type": "function"
		},
		{
			"inputs": [],
			"name": "renounceOwnership",
			"outputs": [],
			"stateMutability": "nonpayable",
			"type": "function"
		},
		{
			"inputs": [
				{
					"internalType": "uint256",
					"name": "_amount",
					"type": "uint256"
				},
				{
					"internalType": "uint256",
					"name": "_stakePeriod",
					"type": "uint256"
				}
			],
			"name": "stake",
			"outputs": [],
			"stateMutability": "nonpayable",
			"type": "function"
		},
		{
			"inputs": [],
			"name": "symbol",
			"outputs": [
				{
					"internalType": "string",
					"name": "",
					"type": "string"
				}
			],
			"stateMutability": "view",
			"type": "function"
		},
		{
			"inputs": [],
			"name": "taxFee",
			"outputs": [
				{
					"internalType": "uint256",
					"name": "",
					"type": "uint256"
				}
			],
			"stateMutability": "view",
			"type": "function"
		},
		{
			"inputs": [],
			"name": "thisAddress",
			"outputs": [
				{
					"internalType": "address",
					"name": "",
					"type": "address"
				}
			],
			"stateMutability": "view",
			"type": "function"
		},
		{
			"inputs": [],
			"name": "totalSupply",
			"outputs": [
				{
					"internalType": "uint256",
					"name": "",
					"type": "uint256"
				}
			],
			"stateMutability": "view",
			"type": "function"
		},
		{
			"inputs": [
				{
					"internalType": "address",
					"name": "to",
					"type": "address"
				},
				{
					"internalType": "uint256",
					"name": "amount",
					"type": "uint256"
				}
			],
			"name": "transfer",
			"outputs": [
				{
					"internalType": "bool",
					"name": "",
					"type": "bool"
				}
			],
			"stateMutability": "nonpayable",
			"type": "function"
		},
		{
			"inputs": [
				{
					"internalType": "address",
					"name": "from",
					"type": "address"
				},
				{
					"internalType": "address",
					"name": "to",
					"type": "address"
				},
				{
					"internalType": "uint256",
					"name": "amount",
					"type": "uint256"
				}
			],
			"name": "transferFrom",
			"outputs": [
				{
					"internalType": "bool",
					"name": "",
					"type": "bool"
				}
			],
			"stateMutability": "nonpayable",
			"type": "function"
		},
		{
			"inputs": [
				{
					"internalType": "address",
					"name": "newOwner",
					"type": "address"
				}
			],
			"name": "transferOwnership",
			"outputs": [],
			"stateMutability": "nonpayable",
			"type": "function"
		},
		{
			"inputs": [],
			"name": "unlockDevPoolWallet_1",
			"outputs": [],
			"stateMutability": "nonpayable",
			"type": "function"
		},
		{
			"inputs": [],
			"name": "unlockDevPoolWallet_2",
			"outputs": [],
			"stateMutability": "nonpayable",
			"type": "function"
		},
		{
			"inputs": [],
			"name": "unlockDevPoolWallet_3",
			"outputs": [],
			"stateMutability": "nonpayable",
			"type": "function"
		},
		{
			"inputs": [],
			"name": "unlockPrivatePlacementWallet",
			"outputs": [],
			"stateMutability": "nonpayable",
			"type": "function"
		},
		{
			"inputs": [],
			"name": "unlockStrategicPartnerWallet_1",
			"outputs": [],
			"stateMutability": "nonpayable",
			"type": "function"
		},
		{
			"inputs": [],
			"name": "unlockStrategicPartnerWallet_2",
			"outputs": [],
			"stateMutability": "nonpayable",
			"type": "function"
		},
		{
			"inputs": [],
			"name": "unlockStrategicPartnerWallet_3",
			"outputs": [],
			"stateMutability": "nonpayable",
			"type": "function"
		},
		{
			"inputs": [],
			"name": "unlockTeamAndProjectCoordinatorWallet_1",
			"outputs": [],
			"stateMutability": "nonpayable",
			"type": "function"
		},
		{
			"inputs": [],
			"name": "unlockTeamAndProjectCoordinatorWallet_2",
			"outputs": [],
			"stateMutability": "nonpayable",
			"type": "function"
		},
		{
			"inputs": [],
			"name": "unlockTeamAndProjectCoordinatorWallet_3",
			"outputs": [],
			"stateMutability": "nonpayable",
			"type": "function"
		},
		{
			"inputs": [
				{
					"internalType": "uint256",
					"name": "stake_index",
					"type": "uint256"
				}
			],
			"name": "withdrawAllStake",
			"outputs": [],
			"stateMutability": "nonpayable",
			"type": "function"
		},
		{
			"inputs": [
				{
					"internalType": "uint256",
					"name": "amount",
					"type": "uint256"
				},
				{
					"internalType": "uint256",
					"name": "stake_index",
					"type": "uint256"
				}
			],
			"name": "withdrawStake",
			"outputs": [],
			"stateMutability": "nonpayable",
			"type": "function"
		},
		{
			"stateMutability": "payable",
			"type": "receive"
		}
	]
}