{
	"data": {
		"bytecode": {
			"linkReferences": {},
			"object": "60806040523480156200001157600080fd5b50604080518082018252600881526754414c415845554d60c01b6020808301918252835180850190945260058452640a8829882b60db1b9084015281519192916200005f9160039162000a07565b5080516200007590600490602084019062000a07565b505050620000926200008c620008ad60201b60201c565b620008b1565b600780546001018155600f600690815560006009819055600d80546aadb53acfa41aee12000000600e5562ffffff191662120001179055600c60205260057fdf85b3b91db3fc0d5ce237a54e22266da0607fef5fbe5daeffa9610eb8ae119c557fef0f79a2dbcdff9a8ebe19b620af73660a85b3df3e0778f807cdf83ae1e805c8919091557f6c82d3a57cebfec9927f2aabad409518216852df1f4c0220fd7ba03937e50ebc919091556301e13380905260087f0ea1e207dda072346d0ec8dbc69c075dcc6dbf6a2606f1245552e3e0f7c397a2556012805473af899859529ef3b03dfaf3fe5e3a7a25c980d4706001600160a01b031990911681179091556200019c9062000903565b601380546001600160a01b0319908116735470c8ff25ec05980fc7c2967d076b8012298fe7179091556014805482167375837e79215250c45331b92c35b7be506ed015ac9081179091556015805483167307a20dc6722563783e44ba8edca08c774621125e17905560168054831673f09f65dd4d229e991901669ad7c7549f060e30b9179055601780548316731a2118e056d6af192e233c2c9cfb34e067ded1f817905560188054831673126974fa373267d86fab6d6871afe62ccb68e810179055601980548316732f838cf0df38b2e91e747a01ddae5ebad5558b7a179055601a805483167345094071c4daaf6a9a73b0a0f095a2b138bd8a3a179055601b8054831673aeb26fb84d0e2b3b353cd50f0a29fd40c916d2ab179055601c8054831673e61e7a7d16db384433e532fb85724e7f3bdaae2f179055601d8054831673406605eb24a97a2d61b516d8d850f2aefa6a731a179055601e80549092167397620deadc98bc8173303686037ce7b986cf53c3179091556a0e7cbbd7aa8310ae400000601155306000908152600a602090815260408083206a2b6d4eb3e906bb8480000090556a22bdd88fed9efc6a0000007fdfb1d7c0c4075c54677faf06e544dbcf5557d95b2d840ad78616c319b2d7057255929091526a05c8d34a23da1650a000007f9532779e16713dfd28e6b7f3d5812a23dd7feb8bb04e6dd4c24eb2f48127825c558151606081019092526032808352620003e6926a3ccc3afbdfd639b98000009290919062005b1990830139600e54620009d860201b62001c51179092919060201c565b600e556015546040516a05c8d34a23da1650a00000916001600160a01b031690620004119062000a96565b9182526001600160a01b03166020820152604001604051809103906000f08015801562000442573d6000803e3d6000fd5b50601f80546001600160a01b0319166001600160a01b039283161790556016546040516a0b949d854f34fece000000929190911690620004829062000a96565b9182526001600160a01b03166020820152604001604051809103906000f080158015620004b3573d6000803e3d6000fd5b50602080546001600160a01b0319166001600160a01b039283161790556017546040516a0b949d854f34fece000000929190911690620004f39062000a96565b9182526001600160a01b03166020820152604001604051809103906000f08015801562000524573d6000803e3d6000fd5b50602180546001600160a01b0319166001600160a01b039283161790556018546040516a0b949d854f34fece000000929190911690620005649062000a96565b9182526001600160a01b03166020820152604001604051809103906000f08015801562000595573d6000803e3d6000fd5b50602280546001600160a01b0319166001600160a01b039283161790556019546040516a02e5276153cd3fb3800000929190911690620005d59062000a96565b9182526001600160a01b03166020820152604001604051809103906000f08015801562000606573d6000803e3d6000fd5b50602380546001600160a01b0319166001600160a01b03928316179055601a546040516a02e5276153cd3fb3800000929190911690620006469062000a96565b9182526001600160a01b03166020820152604001604051809103906000f08015801562000677573d6000803e3d6000fd5b50602480546001600160a01b0319166001600160a01b03928316179055601b546040516a02e5276153cd3fb3800000929190911690620006b79062000a96565b9182526001600160a01b03166020820152604001604051809103906000f080158015620006e8573d6000803e3d6000fd5b50602580546001600160a01b0319166001600160a01b03928316179055601c546040516a08af7623fb67bf1a800000929190911690620007289062000a96565b9182526001600160a01b03166020820152604001604051809103906000f08015801562000759573d6000803e3d6000fd5b50602680546001600160a01b0319166001600160a01b03928316179055601d546040516a08af7623fb67bf1a800000929190911690620007999062000a96565b9182526001600160a01b03166020820152604001604051809103906000f080158015620007ca573d6000803e3d6000fd5b50602780546001600160a01b0319166001600160a01b03928316179055601e546040516a08af7623fb67bf1a8000009291909116906200080a9062000a96565b9182526001600160a01b03166020820152604001604051809103906000f0801580156200083b573d6000803e3d6000fd5b50602860006101000a8154816001600160a01b0302191690836001600160a01b03160217905550620008a46a457bb11fdb3df8d400000060405180606001604052806032815260200162005b1960329139600e54620009d860201b62001c51179092919060201c565b600e5562000b50565b3390565b600580546001600160a01b038381166001600160a01b0319831681179093556040519116919082907f8be0079c531659141344cd1fd0a4f28419497f9722a3daafe3b4186f6b6457e090600090a35050565b6005546001600160a01b03163314620009635760405162461bcd60e51b815260206004820181905260248201527f4f776e61626c653a2063616c6c6572206973206e6f7420746865206f776e657260448201526064015b60405180910390fd5b6001600160a01b038116620009ca5760405162461bcd60e51b815260206004820152602660248201527f4f776e61626c653a206e6577206f776e657220697320746865207a65726f206160448201526564647265737360d01b60648201526084016200095a565b620009d581620008b1565b50565b60008184841115620009ff5760405162461bcd60e51b81526004016200095a919062000abb565b505050900390565b82805462000a159062000b13565b90600052602060002090601f01602090048101928262000a39576000855562000a84565b82601f1062000a5457805160ff191683800117855562000a84565b8280016001018555821562000a84579182015b8281111562000a8457825182559160200191906001019062000a67565b5062000a9292915062000aa4565b5090565b610599806200558083390190565b5b8082111562000a92576000815560010162000aa5565b600060208083528351808285015260005b8181101562000aea5785810183015185820160400152820162000acc565b8181111562000afd576000604083870101525b50601f01601f1916929092016040019392505050565b600181811c9082168062000b2857607f821691505b6020821081141562000b4a57634e487b7160e01b600052602260045260246000fd5b50919050565b614a208062000b606000396000f3fe6080604052600436106102605760003560e01c8063893d20e811610144578063b8b18e89116100b6578063dda4add51161007a578063dda4add5146106ee578063e73e14bf1461071b578063eb9f4ac71461073b578063f1fdf46914610750578063f2fde38b14610770578063f729b00f1461079057610270565b8063b8b18e891461064b578063bea8e46b14610660578063d4dca69b14610675578063d94d4ad614610688578063dd62ed3e146106a857610270565b806395d89b411161010857806395d89b4114610590578063a071dcf4146105a5578063a169c515146105be578063a457c2d7146105de578063a9059cbb146105fe578063b09d4b4e1461061e57610270565b8063893d20e8146104fb5780638c63f97f146105285780638da5cb5b1461054857806390a4c70914610566578063934851ec1461057b57610270565b80633f3ef2dc116101dd57806379cc6790116101a157806379cc67901461045c5780637b0472f01461047c5780638378a8751461049c57806384f3996d146104b1578063883d9984146104c65780638902cd70146104db57610270565b80633f3ef2dc146103c757806342966c68146103dc57806356029137146103fc57806370a0823114610411578063715018a61461044757610270565b806323b872dd1161022457806323b872dd14610328578063313ce5671461034857806339509351146103645780633b124fe7146103845780633dc10ad4146103b257610270565b806306fdde0314610279578063095ea7b3146102a45780630e1b09ed146102d457806315441bb9146102f457806318160ddd1461030957610270565b366102705761026e346107b0565b005b61026e346107b0565b34801561028557600080fd5b5061028e61086e565b60405161029b91906144fb565b60405180910390f35b3480156102b057600080fd5b506102c46102bf366004614565565b610900565b604051901515815260200161029b565b3480156102e057600080fd5b5061026e6102ef366004614591565b610917565b34801561030057600080fd5b5061026e610a0c565b34801561031557600080fd5b506002545b60405190815260200161029b565b34801561033457600080fd5b506102c46103433660046145aa565b610b5e565b34801561035457600080fd5b506040516012815260200161029b565b34801561037057600080fd5b506102c461037f366004614565565b610bc7565b34801561039057600080fd5b50600d5461039f9061ffff1681565b60405161ffff909116815260200161029b565b3480156103be57600080fd5b5060065461031a565b3480156103d357600080fd5b5061026e610c01565b3480156103e857600080fd5b5061026e6103f7366004614591565b610cc4565b34801561040857600080fd5b5061026e610cd1565b34801561041d57600080fd5b5061031a61042c3660046145eb565b6001600160a01b03166000908152600a602052604090205490565b34801561045357600080fd5b5061026e610d94565b34801561046857600080fd5b5061026e610477366004614565565b610dca565b34801561048857600080fd5b5061026e610497366004614608565b610de3565b3480156104a857600080fd5b5061026e610f1f565b3480156104bd57600080fd5b5061026e610fe2565b3480156104d257600080fd5b5061026e6110a5565b3480156104e757600080fd5b5061026e6104f636600461462a565b611168565b34801561050757600080fd5b5061051061120a565b6040516001600160a01b03909116815260200161029b565b34801561053457600080fd5b5061026e610543366004614591565b611223565b34801561055457600080fd5b506005546001600160a01b0316610510565b34801561057257600080fd5b5061026e611285565b34801561058757600080fd5b5061026e611348565b34801561059c57600080fd5b5061028e611408565b3480156105b157600080fd5b50600d5461ffff1661031a565b3480156105ca57600080fd5b5061026e6105d9366004614591565b611417565b3480156105ea57600080fd5b506102c46105f9366004614565565b6114c7565b34801561060a57600080fd5b506102c4610619366004614565565b611564565b34801561062a57600080fd5b5061063e6106393660046145eb565b611571565b60405161029b919061464e565b34801561065757600080fd5b5061026e611681565b34801561066c57600080fd5b5061031a611736565b34801561068157600080fd5b5030610510565b34801561069457600080fd5b5061026e6106a3366004614591565b611798565b3480156106b457600080fd5b5061031a6106c33660046146e4565b6001600160a01b039182166000908152600b6020908152604080832093909416825291909152205490565b3480156106fa57600080fd5b5061031a610709366004614591565b600c6020526000908152604090205481565b34801561072757600080fd5b5061063e6107363660046145eb565b6117ed565b34801561074757600080fd5b5061026e611a34565b34801561075c57600080fd5b5061026e61076b366004614608565b611af7565b34801561077c57600080fd5b5061026e61078b3660046145eb565b611b61565b34801561079c57600080fd5b5061026e6107ab366004614591565b611bf9565b60006107bd826003611c7d565b601c546001600160a01b03166000908152600a60205260409020549091506107e59082611c90565b601c546001600160a01b039081166000908152600a602052604080822093909355601d549091168152205461081a9082611c90565b601d546001600160a01b039081166000908152600a602052604080822093909355601e549091168152205461084f9082611c90565b601e546001600160a01b03166000908152600a60205260409020555050565b60606003805461087d9061471d565b80601f01602080910402602001604051908101604052809291908181526020018280546108a99061471d565b80156108f65780601f106108cb576101008083540402835291602001916108f6565b820191906000526020600020905b8154815290600101906020018083116108d957829003601f168201915b5050505050905090565b600061090d338484611c9c565b5060015b92915050565b6005546001600160a01b0316331461094a5760405162461bcd60e51b815260040161094190614758565b60405180910390fd5b60095442101561096c5760405162461bcd60e51b81526004016109419061478d565b60115481106109d95760405162461bcd60e51b815260206004820152603360248201527f54616c6178546f6b656e3a20416d6f756e74206275726e74206c6172676572206044820152721d1a185b8814dd185ada5b99c814995dd85c99606a1b6064820152608401610941565b6011546109e69082611dc0565b601155600e546109f69082611dc0565b600e55610a064262278d0061483e565b60095550565b602460009054906101000a90046001600160a01b03166001600160a01b03166338af3eed6040518163ffffffff1660e01b8152600401602060405180830381865afa158015610a5f573d6000803e3d6000fd5b505050506040513d601f19601f82011682018060405250810190610a839190614856565b6001600160a01b0316336001600160a01b031614610ab35760405162461bcd60e51b815260040161094190614873565b6024546000906001600160a01b031663c8100dcc610acf611dcc565b6040518263ffffffff1660e01b8152600401610aeb91906148aa565b6020604051808303816000875af1158015610b0a573d6000803e3d6000fd5b505050506040513d601f19601f82011682018060405250810190610b2e91906148dc565b336000908152600a6020526040902054909150610b4b9082611c90565b336000908152600a602052604090205550565b6000610b6b848484612195565b610bbd8433610bb8856040518060600160405280602681526020016149c5602691396001600160a01b038a166000908152600b602090815260408083203384529091529020549190611c51565b611c9c565b5060019392505050565b3360008181526001602090815260408083206001600160a01b0387168452909152812054909190610bbd9082908690610bb890879061483e565b602860009054906101000a90046001600160a01b03166001600160a01b03166338af3eed6040518163ffffffff1660e01b8152600401602060405180830381865afa158015610c54573d6000803e3d6000fd5b505050506040513d601f19601f82011682018060405250810190610c789190614856565b6001600160a01b0316336001600160a01b031614610ca85760405162461bcd60e51b815260040161094190614873565b6028546000906001600160a01b031663c8100dcc610acf6124e9565b610cce33826127e2565b50565b602660009054906101000a90046001600160a01b03166001600160a01b03166338af3eed6040518163ffffffff1660e01b8152600401602060405180830381865afa158015610d24573d6000803e3d6000fd5b505050506040513d601f19601f82011682018060405250810190610d489190614856565b6001600160a01b0316336001600160a01b031614610d785760405162461bcd60e51b815260040161094190614873565b6026546000906001600160a01b031663c8100dcc610acf612930565b6005546001600160a01b03163314610dbe5760405162461bcd60e51b815260040161094190614758565b610dc86000612bd4565b565b610dd5823383612c26565b610ddf82826127e2565b5050565b8062278d001480610df65750806276a700145b80610e0357508062ed4e00145b80610e115750806301e13380145b610e695760405162461bcd60e51b8152602060048201526024808201527f54616c6178546f6b656e3a205374616b696e67206f7074696f6e206e6f7420656044820152631e1a5cdd60e21b6064820152608401610941565b336000908152600a60205260409020548210610eda5760405162461bcd60e51b815260206004820152602a60248201527f54616c6178546f6b656e3a2043616e6e6f74207374616b65206d6f7265207468604482015269616e2062616c616e636560b01b6064820152608401610941565b6000818152600c6020526040902054610ef69083908390612cb2565b610f0033836127e2565b306000908152600a6020526040902054610f1a9083611c90565b505050565b602360009054906101000a90046001600160a01b03166001600160a01b03166338af3eed6040518163ffffffff1660e01b8152600401602060405180830381865afa158015610f72573d6000803e3d6000fd5b505050506040513d601f19601f82011682018060405250810190610f969190614856565b6001600160a01b0316336001600160a01b031614610fc65760405162461bcd60e51b815260040161094190614873565b6023546000906001600160a01b031663c8100dcc610acf611dcc565b602260009054906101000a90046001600160a01b03166001600160a01b03166338af3eed6040518163ffffffff1660e01b8152600401602060405180830381865afa158015611035573d6000803e3d6000fd5b505050506040513d601f19601f820116820180604052508101906110599190614856565b6001600160a01b0316336001600160a01b0316146110895760405162461bcd60e51b815260040161094190614873565b6022546000906001600160a01b031663c8100dcc610acf612e4e565b602560009054906101000a90046001600160a01b03166001600160a01b03166338af3eed6040518163ffffffff1660e01b8152600401602060405180830381865afa1580156110f8573d6000803e3d6000fd5b505050506040513d601f19601f8201168201806040525081019061111c9190614856565b6001600160a01b0316336001600160a01b03161461114c5760405162461bcd60e51b815260040161094190614873565b6025546000906001600160a01b031663c8100dcc610acf613210565b6005546001600160a01b031633146111925760405162461bcd60e51b815260040161094190614758565b6009544210156111b45760405162461bcd60e51b81526004016109419061478d565b600d805461ffff191661ffff831690811790915560405190815233907fdf92943b31fff67e8447ff9fa8b5e226ddcc5fb34d36cfe120c0f2b96eb8d6f79060200160405180910390a2610a064262278d0061483e565b600061121e6005546001600160a01b031690565b905090565b6005546001600160a01b0316331461124d5760405162461bcd60e51b815260040161094190614758565b60095442101561126f5760405162461bcd60e51b81526004016109419061478d565b611278816135d2565b610a064262278d0061483e565b602760009054906101000a90046001600160a01b03166001600160a01b03166338af3eed6040518163ffffffff1660e01b8152600401602060405180830381865afa1580156112d8573d6000803e3d6000fd5b505050506040513d601f19601f820116820180604052508101906112fc9190614856565b6001600160a01b0316336001600160a01b03161461132c5760405162461bcd60e51b815260040161094190614873565b6027546000906001600160a01b031663c8100dcc610acf612930565b601f60009054906101000a90046001600160a01b03166001600160a01b03166338af3eed6040518163ffffffff1660e01b8152600401602060405180830381865afa15801561139b573d6000803e3d6000fd5b505050506040513d601f19601f820116820180604052508101906113bf9190614856565b6015546001600160a01b039081169116146113ec5760405162461bcd60e51b815260040161094190614873565b601f546000906001600160a01b031663c8100dcc610acf613675565b60606004805461087d9061471d565b6005546001600160a01b031633146114415760405162461bcd60e51b815260040161094190614758565b6009544210156114635760405162461bcd60e51b81526004016109419061478d565b806114aa5760405162461bcd60e51b81526020600482015260176024820152760416d6f756e74206d696e742063616e6e6f74206265203604c1b6044820152606401610941565b6011546114b79082611c90565b601155600e546109f69082611c90565b3360008181526001602090815260408083206001600160a01b03871684529091528120549091908381101561154c5760405162461bcd60e51b815260206004820152602560248201527f45524332303a2064656372656173656420616c6c6f77616e63652062656c6f77604482015264207a65726f60d81b6064820152608401610941565b6115598286868403611c9c565b506001949350505050565b600061090d338484612195565b6040805180820190915260008152606060208201526000604051806040016040528060008152602001600760086000876001600160a01b03166001600160a01b0316815260200190815260200160002054815481106115d2576115d26148f5565b9060005260206000209060020201600101805480602002602001604051908101604052809291908181526020016000905b828210156116745760008481526020908190206040805160c0810182526006860290920180546001600160a01b031683526001808201548486015260028201549284019290925260038101546060840152600481015460808401526005015460a08301529083529092019101611603565b5050509152509392505050565b60208054604080516338af3eed60e01b815290516001600160a01b03909216926338af3eed926004808401938290030181865afa1580156116c6573d6000803e3d6000fd5b505050506040513d601f19601f820116820180604052508101906116ea9190614856565b6001600160a01b0316336001600160a01b03161461171a5760405162461bcd60e51b815260040161094190614873565b6020546000906001600160a01b031663c8100dcc610acf6138b5565b6040516370a0823160e01b815230600482018190526000916370a0823190602401602060405180830381865afa158015611774573d6000803e3d6000fd5b505050506040513d601f19601f8201168201806040525081019061121e91906148dc565b6005546001600160a01b031633146117c25760405162461bcd60e51b815260040161094190614758565b6009544210156117e45760405162461bcd60e51b81526004016109419061478d565b61127881613c77565b604080518082019091526000815260606020820152600080604051806040016040528060008152602001600760086000886001600160a01b03166001600160a01b03168152602001908152602001600020548154811061184f5761184f6148f5565b9060005260206000209060020201600101805480602002602001604051908101604052809291908181526020016000905b828210156118f15760008481526020908190206040805160c0810182526006860290920180546001600160a01b031683526001808201548486015260028201549284019290925260038101546060840152600481015460808401526005015460a08301529083529092019101611880565b5050509152506020810151519091506119645760405162461bcd60e51b815260206004820152602f60248201527f5374616b61626c653a2054686973206164647265737320646f6573206e6f742060448201526e6861766520616e79207374616b657360881b6064820152608401610941565b60005b816020015151811015611a2a5760006119be8360200151838151811061198f5761198f6148f5565b6020026020010151846020015184815181106119ad576119ad6148f5565b602002602001015160200151613d41565b905080836020015183815181106119d7576119d76148f5565b60200260200101516060018181525050826020015182815181106119fd576119fd6148f5565b60200260200101516020015184611a14919061483e565b9350611a23905060018261483e565b9050611967565b5090815292915050565b602160009054906101000a90046001600160a01b03166001600160a01b03166338af3eed6040518163ffffffff1660e01b8152600401602060405180830381865afa158015611a87573d6000803e3d6000fd5b505050506040513d601f19601f82011682018060405250810190611aab9190614856565b6001600160a01b0316336001600160a01b031614611adb5760405162461bcd60e51b815260040161094190614873565b6021546000906001600160a01b031663c8100dcc610acf6138b5565b600080611b048484613d94565b91509150611b1181613c77565b306000908152600a6020526040902054611b2b9083611dc0565b50306000908152600a6020526040902054611b469082611dc0565b50611b5b335b611b56838561483e565b614082565b50505050565b6005546001600160a01b03163314611b8b5760405162461bcd60e51b815260040161094190614758565b6001600160a01b038116611bf05760405162461bcd60e51b815260206004820152602660248201527f4f776e61626c653a206e6577206f776e657220697320746865207a65726f206160448201526564647265737360d01b6064820152608401610941565b610cce81612bd4565b600080611c0583614161565b91509150611c1281613c77565b306000908152600a6020526040902054611c2c9083611dc0565b50306000908152600a6020526040902054611c479082611dc0565b50610f1a33611b4c565b60008184841115611c755760405162461bcd60e51b815260040161094191906144fb565b505050900390565b6000611c898284614921565b9392505050565b6000611c89828461483e565b6001600160a01b038316611cfe5760405162461bcd60e51b8152602060048201526024808201527f45524332303a20617070726f76652066726f6d20746865207a65726f206164646044820152637265737360e01b6064820152608401610941565b6001600160a01b038216611d5f5760405162461bcd60e51b815260206004820152602260248201527f45524332303a20617070726f766520746f20746865207a65726f206164647265604482015261737360f01b6064820152608401610941565b6001600160a01b0383811660008181526001602090815260408083209487168084529482529182902085905590518481527f8c5be1e5ebec7d5bd14f71427d1e84f3dd0314c0f7b2291e5b200ac8c7c3b925910160405180910390a3505050565b6000611c898284614943565b611dd46144dc565b604051806105600160405280611df562051615670de0b6b3a764000061433c565b8152602001600081526020016000815260200160008152602001611e2462051615670de0b6b3a764000061433c565b81526020016000815260200160008152602001611e4c62051615670de0b6b3a764000061433c565b81526020016000815260200160008152602001611e7462051615670de0b6b3a764000061433c565b81526020016000815260200160008152602001611e9c62011a1e670de0b6b3a764000061433c565b8152602001611eb662011a1e670de0b6b3a764000061433c565b8152602001611ed062011a1e670de0b6b3a764000061433c565b8152602001611eea62011a1e670de0b6b3a764000061433c565b8152602001611f0462011a1e670de0b6b3a764000061433c565b8152602001611f1e62011a1e670de0b6b3a764000061433c565b8152602001611f3862011a1e670de0b6b3a764000061433c565b8152602001611f5262011a1e670de0b6b3a764000061433c565b8152602001611f6c62011a1e670de0b6b3a764000061433c565b8152602001611f8662011a1e670de0b6b3a764000061433c565b8152602001611fa062011a1e670de0b6b3a764000061433c565b8152602001611fba62011a1e670de0b6b3a764000061433c565b8152602001611fd462011a1e670de0b6b3a764000061433c565b8152602001611fee62011a1e670de0b6b3a764000061433c565b815260200161200862011a1e670de0b6b3a764000061433c565b815260200161202262011a1e670de0b6b3a764000061433c565b815260200161203c62011a1e670de0b6b3a764000061433c565b815260200161205662011a1e670de0b6b3a764000061433c565b815260200161207062011a1e670de0b6b3a764000061433c565b815260200161208a62011a1e670de0b6b3a764000061433c565b81526020016120a462011a1e670de0b6b3a764000061433c565b81526020016120be62011a1e670de0b6b3a764000061433c565b81526020016120d862011a1e670de0b6b3a764000061433c565b81526020016120f262011a1e670de0b6b3a764000061433c565b815260200161210c62011a1e670de0b6b3a764000061433c565b815260200161212662011a1e670de0b6b3a764000061433c565b815260200161214062011a1e670de0b6b3a764000061433c565b815260200161215a62011a1e670de0b6b3a764000061433c565b815260200161217462011a1e670de0b6b3a764000061433c565b815260200161218e62011a1e670de0b6b3a764000061433c565b9052919050565b6001600160a01b0383166121eb5760405162461bcd60e51b815260206004820152601f60248201527f54616c6178546f6b656e3a2073656e646572207a65726f2061646472657373006044820152606401610941565b6001600160a01b03821661224c5760405162461bcd60e51b815260206004820152602260248201527f54616c6178546f6b656e3a20726563697069656e74207a65726f206164647265604482015261737360f01b6064820152608401610941565b6001600160a01b0383166000908152600a6020526040902054818110156122c95760405162461bcd60e51b815260206004820152602b60248201527f54616c6178546f6b656e3a207472616e7366657220616d6f756e74206578636560448201526a6564732062616c616e636560a81b6064820152608401610941565b600d546000906122e9906122e290859061ffff1661433c565b6064611c7d565b905060006122f78483611dc0565b9050600061231a6123138361230e6002600a611c7d565b61433c565b6003611c7d565b9050600061232e8361230e6008600a611c7d565b601c546001600160a01b03166000908152600a60205260409020549091506123569083611c90565b601c546001600160a01b039081166000908152600a602052604080822093909355601d549091168152205461238b9083611c90565b601d546001600160a01b039081166000908152600a602052604080822093909355601e54909116815220546123c09083611c90565b601e546001600160a01b03166000908152600a60205260408082209290925530815220546123ee9082611c90565b600a6000306001600160a01b03166001600160a01b0316815260200190815260200160002081905550612454866040518060600160405280602481526020016149a1602491396001600160a01b038b166000908152600a60205260409020549190611c51565b6001600160a01b03808a166000908152600a602052604080822093909355908916815220546124839084611c90565b6001600160a01b038089166000818152600a602052604090819020939093559151908a16907fddf252ad1be2c89b69c2b068fc378daa952ba7f163c4a11628f55a4df523b3ef906124d79087815260200190565b60405180910390a35050505050505050565b6124f16144dc565b6040518061056001604052806125126211cd4a670de0b6b3a764000061433c565b815260200160008152602001600081526020016000815260200161254162989680670de0b6b3a764000061433c565b8152602001600081526020016000815260200161256962989680670de0b6b3a764000061433c565b8152602001600081526020016000815260200161259162989680670de0b6b3a764000061433c565b815260200160008152602001600081526020016125b962051616670de0b6b3a764000061433c565b81526020016125d362051616670de0b6b3a764000061433c565b81526020016125ed62051616670de0b6b3a764000061433c565b815260200161260762051616670de0b6b3a764000061433c565b815260200161262162051616670de0b6b3a764000061433c565b815260200161263b62051616670de0b6b3a764000061433c565b815260200161265562051616670de0b6b3a764000061433c565b815260200161266f62051616670de0b6b3a764000061433c565b815260200161268962051616670de0b6b3a764000061433c565b81526020016126a362051616670de0b6b3a764000061433c565b81526020016126bd62051616670de0b6b3a764000061433c565b81526020016126d762051616670de0b6b3a764000061433c565b81526020016126f162051616670de0b6b3a764000061433c565b815260200161270b62051616670de0b6b3a764000061433c565b815260200161272562051616670de0b6b3a764000061433c565b815260200161273f62051616670de0b6b3a764000061433c565b815260200161275962051616670de0b6b3a764000061433c565b815260200161277362051616670de0b6b3a764000061433c565b815260200161278d62051616670de0b6b3a764000061433c565b8152602001600081526020016000815260200160008152602001600081526020016000815260200160008152602001600081526020016000815260200160008152602001600081526020016000815250905090565b6001600160a01b0382166128425760405162461bcd60e51b815260206004820152602160248201527f45524332303a206275726e2066726f6d20746865207a65726f206164647265736044820152607360f81b6064820152608401610941565b6001600160a01b038216600090815260208190526040902054818110156128b65760405162461bcd60e51b815260206004820152602260248201527f45524332303a206275726e20616d6f756e7420657863656564732062616c616e604482015261636560f01b6064820152608401610941565b6001600160a01b03831660009081526020819052604081208383039055600280548492906128e5908490614943565b90915550506040518281526000906001600160a01b038516907fddf252ad1be2c89b69c2b068fc378daa952ba7f163c4a11628f55a4df523b3ef9060200160405180910390a3505050565b6129386144dc565b6040518061056001604052806129596211cd4b670de0b6b3a764000061433c565b8152602001600081526020016000815260200160008152602001612988620f4240670de0b6b3a764000061433c565b815260200160008152602001600081526020016129b0620f4240670de0b6b3a764000061433c565b815260200160008152602001600081526020016129d8620f4240670de0b6b3a764000061433c565b81526020016000815260200160008152602001612a0062051615670de0b6b3a764000061433c565b8152602001612a1a62051615670de0b6b3a764000061433c565b8152602001612a3462051615670de0b6b3a764000061433c565b8152602001612a4e62051615670de0b6b3a764000061433c565b8152602001612a6862051615670de0b6b3a764000061433c565b8152602001612a8262051615670de0b6b3a764000061433c565b8152602001612a9c62051615670de0b6b3a764000061433c565b8152602001612ab662051615670de0b6b3a764000061433c565b8152602001612ad062051615670de0b6b3a764000061433c565b8152602001612aea62051615670de0b6b3a764000061433c565b8152602001612b0462051615670de0b6b3a764000061433c565b8152602001612b1e62051615670de0b6b3a764000061433c565b8152602001612b3862051615670de0b6b3a764000061433c565b8152602001612b5262051615670de0b6b3a764000061433c565b8152602001612b6c62051615670de0b6b3a764000061433c565b8152602001612b8662051615670de0b6b3a764000061433c565b8152602001612ba062051615670de0b6b3a764000061433c565b8152602001612bba62051615670de0b6b3a764000061433c565b815260200161278d62051615670de0b6b3a764000061433c565b600580546001600160a01b038381166001600160a01b0319831681179093556040519116919082907f8be0079c531659141344cd1fd0a4f28419497f9722a3daafe3b4186f6b6457e090600090a35050565b6001600160a01b038381166000908152600b60209081526040808320938616835292905220546000198114611b5b5781811015612ca55760405162461bcd60e51b815260206004820152601d60248201527f45524332303a20696e73756666696369656e7420616c6c6f77616e63650000006044820152606401610941565b611b5b8484848403611c9c565b60008311612d025760405162461bcd60e51b815260206004820152601e60248201527f5374616b61626c653a2043616e6e6f74207374616b65206e6f7468696e6700006044820152606401610941565b336000908152600860205260409020544281612d2457612d2133614348565b91505b60078281548110612d3757612d376148f5565b90600052602060002090600202016001016040518060c00160405280336001600160a01b03168152602001878152602001838152602001600081526020018581526020018387612d87919061483e565b90528154600180820184556000938452602093849020835160069093020180546001600160a01b0319166001600160a01b03909316929092178255928201519281019290925560408101516002830155606081015160038301556080810151600483015560a00151600590910155337f9cfd25589d1eb8ad71e342a86a8524e83522e3936c0803048c08f6d9ad974f40868484612e24818a61483e565b60408051948552602085019390935291830152606082015260800160405180910390a25050505050565b612e566144dc565b604051806105600160405280612e77620f4240670de0b6b3a764000061433c565b8152602001600081526020016000815260200160008152602001612ea6620f4240670de0b6b3a764000061433c565b81526020016000815260200160008152602001612ece620f4240670de0b6b3a764000061433c565b81526020016000815260200160008152602001612ef6620f4240670de0b6b3a764000061433c565b81526020016000815260200160008152602001612f1e62051616670de0b6b3a764000061433c565b8152602001612f3862051616670de0b6b3a764000061433c565b8152602001612f5262051616670de0b6b3a764000061433c565b8152602001612f6c62051616670de0b6b3a764000061433c565b8152602001612f8662051616670de0b6b3a764000061433c565b8152602001612fa062051616670de0b6b3a764000061433c565b8152602001612fba62051616670de0b6b3a764000061433c565b8152602001612fd462051616670de0b6b3a764000061433c565b8152602001612fee62051616670de0b6b3a764000061433c565b815260200161300862051616670de0b6b3a764000061433c565b815260200161302262051616670de0b6b3a764000061433c565b815260200161303c62051616670de0b6b3a764000061433c565b815260200161305662051616670de0b6b3a764000061433c565b815260200161307062051616670de0b6b3a764000061433c565b815260200161308a62051616670de0b6b3a764000061433c565b81526020016130a462051616670de0b6b3a764000061433c565b81526020016130be62051616670de0b6b3a764000061433c565b81526020016130d862051616670de0b6b3a764000061433c565b81526020016130f262051616670de0b6b3a764000061433c565b815260200161310c62051616670de0b6b3a764000061433c565b815260200161312662051616670de0b6b3a764000061433c565b815260200161314062051616670de0b6b3a764000061433c565b815260200161315a62051616670de0b6b3a764000061433c565b815260200161317462051616670de0b6b3a764000061433c565b815260200161318e62051616670de0b6b3a764000061433c565b81526020016131a862051616670de0b6b3a764000061433c565b81526020016131c262051616670de0b6b3a764000061433c565b81526020016131dc62051616670de0b6b3a764000061433c565b81526020016131f662051616670de0b6b3a764000061433c565b815260200161218e62051616670de0b6b3a764000061433c565b6132186144dc565b60405180610560016040528061323962051616670de0b6b3a764000061433c565b815260200160008152602001600081526020016000815260200161326862051616670de0b6b3a764000061433c565b8152602001600081526020016000815260200161329062051616670de0b6b3a764000061433c565b815260200160008152602001600081526020016132b862051616670de0b6b3a764000061433c565b815260200160008152602001600081526020016132e062011a1f670de0b6b3a764000061433c565b81526020016132fa62011a1f670de0b6b3a764000061433c565b815260200161331462011a1f670de0b6b3a764000061433c565b815260200161332e62011a1f670de0b6b3a764000061433c565b815260200161334862011a1f670de0b6b3a764000061433c565b815260200161336262011a1f670de0b6b3a764000061433c565b815260200161337c62011a1f670de0b6b3a764000061433c565b815260200161339662011a1f670de0b6b3a764000061433c565b81526020016133b062011a1f670de0b6b3a764000061433c565b81526020016133ca62011a1f670de0b6b3a764000061433c565b81526020016133e462011a1f670de0b6b3a764000061433c565b81526020016133fe62011a1f670de0b6b3a764000061433c565b815260200161341862011a1f670de0b6b3a764000061433c565b815260200161343262011a1f670de0b6b3a764000061433c565b815260200161344c62011a1f670de0b6b3a764000061433c565b815260200161346662011a1f670de0b6b3a764000061433c565b815260200161348062011a1f670de0b6b3a764000061433c565b815260200161349a62011a1f670de0b6b3a764000061433c565b81526020016134b462011a1f670de0b6b3a764000061433c565b81526020016134ce62011a1f670de0b6b3a764000061433c565b81526020016134e862011a1f670de0b6b3a764000061433c565b815260200161350262011a1f670de0b6b3a764000061433c565b815260200161351c62011a1f670de0b6b3a764000061433c565b815260200161353662011a1f670de0b6b3a764000061433c565b815260200161355062011a1f670de0b6b3a764000061433c565b815260200161356a62011a1f670de0b6b3a764000061433c565b815260200161358462011a1f670de0b6b3a764000061433c565b815260200161359e62011a1f670de0b6b3a764000061433c565b81526020016135b862011a1f670de0b6b3a764000061433c565b815260200161218e62011a1f670de0b6b3a764000061433c565b601e81111561363a5760405162461bcd60e51b815260206004820152602e60248201527f5374616b61626c653a2050656e616c7479206665652063616e6e6f742065786360448201526d32b2b2101a903832b931b2b73a1760911b6064820152608401610941565b60068190556040518181527fcfa4f4cf1cd64d13a167a8e75605e0c0c9d6700e903d17c5dc11f593254a04a99060200160405180910390a150565b61367d6144dc565b604051806105600160405280600081526020016000815260200160008152602001600081526020016000815260200160008152602001600081526020016136ce674563918244f40000611b51611c7d565b81526020016136e7674563918244f40000611b51611c7d565b8152602001613700674563918244f40000611b51611c7d565b8152602001613719674563918244f40000611b51611c7d565b8152602001613732674563918244f40000611b51611c7d565b815260200161374b674563918244f40000611b51611c7d565b8152602001613764674563918244f40000611b51611c7d565b815260200161377d674563918244f40000611b51611c7d565b8152602001613796674563918244f40000611b51611c7d565b81526020016137af674563918244f40000611b51611c7d565b81526020016137c8674563918244f40000611b51611c7d565b81526020016137e1674563918244f40000611b51611c7d565b81526020016137fa674563918244f40000611b51611c7d565b815260200161381367446ae0e136ad0000611b51611c7d565b81526020016000815260200160008152602001600081526020016000815260200160008152602001600081526020016000815260200160008152602001600081526020016000815260200160008152602001600081526020016000815260200160008152602001600081526020016000815260200160008152602001600081526020016000815260200160008152602001600081526020016000815250905090565b6138bd6144dc565b6040518061056001604052806138de620f4240670de0b6b3a764000061433c565b815260200160008152602001600081526020016000815260200161390d620f4240670de0b6b3a764000061433c565b81526020016000815260200160008152602001613935620f4240670de0b6b3a764000061433c565b8152602001600081526020016000815260200161395d620f4240670de0b6b3a764000061433c565b8152602001600081526020016000815260200161398562051615670de0b6b3a764000061433c565b815260200161399f62051615670de0b6b3a764000061433c565b81526020016139b962051615670de0b6b3a764000061433c565b81526020016139d362051615670de0b6b3a764000061433c565b81526020016139ed62051615670de0b6b3a764000061433c565b8152602001613a0762051615670de0b6b3a764000061433c565b8152602001613a2162051615670de0b6b3a764000061433c565b8152602001613a3b62051615670de0b6b3a764000061433c565b8152602001613a5562051615670de0b6b3a764000061433c565b8152602001613a6f62051615670de0b6b3a764000061433c565b8152602001613a8962051615670de0b6b3a764000061433c565b8152602001613aa362051615670de0b6b3a764000061433c565b8152602001613abd62051615670de0b6b3a764000061433c565b8152602001613ad762051615670de0b6b3a764000061433c565b8152602001613af162051615670de0b6b3a764000061433c565b8152602001613b0b62051615670de0b6b3a764000061433c565b8152602001613b2562051615670de0b6b3a764000061433c565b8152602001613b3f62051615670de0b6b3a764000061433c565b8152602001613b5962051615670de0b6b3a764000061433c565b8152602001613b7362051615670de0b6b3a764000061433c565b8152602001613b8d62051615670de0b6b3a764000061433c565b8152602001613ba762051615670de0b6b3a764000061433c565b8152602001613bc162051615670de0b6b3a764000061433c565b8152602001613bdb62051615670de0b6b3a764000061433c565b8152602001613bf562051615670de0b6b3a764000061433c565b8152602001613c0f62051615670de0b6b3a764000061433c565b8152602001613c2962051615670de0b6b3a764000061433c565b8152602001613c4362051615670de0b6b3a764000061433c565b8152602001613c5d62051615670de0b6b3a764000061433c565b815260200161218e62051615670de0b6b3a764000061433c565b6005546001600160a01b03163314613ca15760405162461bcd60e51b815260040161094190614758565b600954421015613cc35760405162461bcd60e51b81526004016109419061478d565b80613d0a5760405162461bcd60e51b81526020600482015260176024820152760416d6f756e74206d696e742063616e6e6f74206265203604c1b6044820152606401610941565b306000908152600a6020526040902054613d249082611c90565b306000908152600a6020526040902055600e546109f69082611c90565b6000826020015160001415613d5857506000610911565b6a52b7d2dcc80cd2e4000000613d7184604001516143be565b6080850151613d80908561495a565b613d8a919061495a565b611c899190614921565b3360009081526008602052604081205460078054839291839183908110613dbd57613dbd6148f5565b90600052602060002090600202016001018581548110613ddf57613ddf6148f5565b60009182526020918290206040805160c081018252600690930290910180546001600160a01b03168352600181015493830184905260028101549183019190915260038101546060830152600481015460808301526005015460a08201529150861115613eaa5760405162461bcd60e51b815260206004820152603360248201527f5374616b61626c653a2043616e6e6f74207769746864726177206d6f726520746044820152721a185b881e5bdd481a185d99481cdd185ad959606a1b6064820152608401610941565b6000613eb68288613d41565b9050428260a001511015613eda57613ece8782614453565b9450945050505061407b565b600082604001518360a00151613ef09190614943565b9050878360200151613f029190614943565b60208401819052613f845760078481548110613f2057613f206148f5565b90600052602060002090600202016001018781548110613f4257613f426148f5565b60009182526020822060069091020180546001600160a01b03191681556001810182905560028101829055600381018290556004810182905560050155614072565b826020015160078581548110613f9c57613f9c6148f5565b90600052602060002090600202016001018881548110613fbe57613fbe6148f5565b9060005260206000209060060201600101819055504260078581548110613fe757613fe76148f5565b90600052602060002090600202016001018881548110614009576140096148f5565b6000918252602090912060026006909202010155614027814261483e565b6007858154811061403a5761403a6148f5565b9060005260206000209060020201600101888154811061405c5761405c6148f5565b9060005260206000209060060201600501819055505b50869450925050505b9250929050565b6001600160a01b0382166140d85760405162461bcd60e51b815260206004820152601f60248201527f45524332303a206d696e7420746f20746865207a65726f2061646472657373006044820152606401610941565b80600260008282546140ea919061483e565b90915550506001600160a01b0382166000908152602081905260408120805483929061411790849061483e565b90915550506040518181526001600160a01b038316906000907fddf252ad1be2c89b69c2b068fc378daa952ba7f163c4a11628f55a4df523b3ef9060200160405180910390a35050565b336000908152600860205260408120546007805483929183918390811061418a5761418a6148f5565b906000526020600020906002020160010185815481106141ac576141ac6148f5565b60009182526020918290206040805160c081018252600690930290910180546001600160a01b03168352600181015493830184905260028101549183019190915260038101546060830152600481015460808301526005015460a082015291506142885760405162461bcd60e51b815260206004820152604160248201527f5374616b61626c653a2043616e6e6f742077697468647261772c20796f75206460448201527f6f6e2774206861766520616e79207374616b6520696e207468697320496e64656064820152600f60fb1b608482015260a401610941565b602081015160006142998383613d41565b9050428360a0015110156142be576142b18282614453565b9550955050505050915091565b600784815481106142d1576142d16148f5565b906000526020600020906002020160010187815481106142f3576142f36148f5565b60009182526020822060069091020180546001600160a01b0319168155600181018290556002810182905560038101829055600481018290556005015590969095509350505050565b6000611c89828461495a565b6007805460019081018083556000928352829161436491614943565b9050826007828154811061437a5761437a6148f5565b6000918252602080832060029290920290910180546001600160a01b0319166001600160a01b03948516179055949091168152600890935260409092208290555090565b600080821161440f5760405162461bcd60e51b815260206004820152601b60248201527f5374616b61626c653a204572726f722074696d657374616d70203000000000006044820152606401610941565b61091161441c8342614943565b6144309069d3c21bcecceda100000061495a565b6301e1338060405180606001604052806027815260200161497a602791396144a2565b600080836144665750600090508061407b565b6144818461447c8661230e6006546103e8611c7d565b611dc0565b6144978461447c8661230e6006546103e8611c7d565b915091509250929050565b600081836144c35760405162461bcd60e51b815260040161094191906144fb565b508284816144d3576144d361490b565b04949350505050565b604051806105600160405280602b906020820280368337509192915050565b600060208083528351808285015260005b818110156145285785810183015185820160400152820161450c565b8181111561453a576000604083870101525b50601f01601f1916929092016040019392505050565b6001600160a01b0381168114610cce57600080fd5b6000806040838503121561457857600080fd5b823561458381614550565b946020939093013593505050565b6000602082840312156145a357600080fd5b5035919050565b6000806000606084860312156145bf57600080fd5b83356145ca81614550565b925060208401356145da81614550565b929592945050506040919091013590565b6000602082840312156145fd57600080fd5b8135611c8981614550565b6000806040838503121561461b57600080fd5b50508035926020909101359150565b60006020828403121561463c57600080fd5b813561ffff81168114611c8957600080fd5b6000602080835260608084018551838601528286015160408081880152828251808552608094508489019150868401935060005b818110156146d557845180516001600160a01b03168452888101518985015284810151858501528781015188850152868101518785015260a090810151908401529387019360c090920191600101614682565b50909998505050505050505050565b600080604083850312156146f757600080fd5b823561470281614550565b9150602083013561471281614550565b809150509250929050565b600181811c9082168061473157607f821691505b6020821081141561475257634e487b7160e01b600052602260045260246000fd5b50919050565b6020808252818101527f4f776e61626c653a2063616c6c6572206973206e6f7420746865206f776e6572604082015260600190565b6020808252606f908201527f54696d656c6f636b3a2041646d696e6973747261746976652066756e6374696f60408201527f6e732063616e6e6f742062652063616c6c656420696e20746869732054696d6560608201527f4c6f636b20706572696f642028343820686f757273292c20706c65617365207460808201526e393c9030b3b0b4b7103630ba32b91760891b60a082015260c00190565b634e487b7160e01b600052601160045260246000fd5b6000821982111561485157614851614828565b500190565b60006020828403121561486857600080fd5b8151611c8981614550565b6020808252601d908201527f54616c6178546f6b656e3a2057616c6c6574204f776e6572204f6e6c79000000604082015260600190565b6105608101818360005b602b8110156148d35781518352602092830192909101906001016148b4565b50505092915050565b6000602082840312156148ee57600080fd5b5051919050565b634e487b7160e01b600052603260045260246000fd5b634e487b7160e01b600052601260045260246000fd5b60008261493e57634e487b7160e01b600052601260045260246000fd5b500490565b60008282101561495557614955614828565b500390565b600081600019048311821515161561497457614974614828565b50029056fe5374616b61626c653a204572726f722063616e6e6f74206469766964652074696d657374616d7054616c6178546f6b656e3a207472616e7366657220657863656564732062616c616e636554616c6178546f6b656e3a207472616e73666572206578636565647320616c6c6f77616e6365a2646970667358221220b80126267ec0fb14983f01a660e9577a0b901a5a33e04f4bf3df0528128d84bf64736f6c634300080b003360a060405234801561001057600080fd5b5060405161059938038061059983398101604081905261002f916100b3565b600082116100985760405162461bcd60e51b815260206004820152602c60248201527f546f6b656e54696d654c6f636b3a20416d6f756e74206d75737420677265617460448201526b6572207468616e207a65726f60a01b606482015260840160405180910390fd5b6000919091556001600160a01b0316608052426001556100f0565b600080604083850312156100c657600080fd5b825160208401519092506001600160a01b03811681146100e557600080fd5b809150509250929050565b60805161048f61010a60003960006053015261048f6000f3fe608060405234801561001057600080fd5b50600436106100415760003560e01c806338af3eed14610046578063aa8c217c14610082578063c8100dcc14610094575b600080fd5b6040516001600160a01b037f00000000000000000000000000000000000000000000000000000000000000001681526020015b60405180910390f35b6000545b604051908152602001610079565b6100866100a23660046102a4565b600080600054116100fa5760405162461bcd60e51b815260206004820152601d60248201527f546f6b656e54696d656c6f636b3a206e6f20746f6b656e73206c65667400000060448201526064015b60405180910390fd5b600061010583610191565b9050600081116101635760405162461bcd60e51b815260206004820152602360248201527f546f6b656e54696d656c6f636b3a206e6f20746f6b656e7320746f2072656c6560448201526261736560e81b60648201526084016100f1565b610188600054826040518060600160405280603b815260200161041f603b913961026c565b60005592915050565b60008062278d00600154426101a69190610347565b6101b0919061035e565b6002549091506000905b8281116101f5576101e1828683602b81106101d7576101d7610380565b6020020151610298565b9150806101ed81610396565b9150506101ba565b506102018260016103b1565b600255806102655760405162461bcd60e51b815260206004820152602b60248201527f546f6b656e54696d654c6f636b3a2054686572652773206e6f7468696e67207460448201526a1bc818db185a5b481e595d60aa1b60648201526084016100f1565b9392505050565b600081848411156102905760405162461bcd60e51b81526004016100f191906103c9565b505050900390565b600061026582846103b1565b60006105608083850312156102b857600080fd5b83601f8401126102c757600080fd5b60405181810181811067ffffffffffffffff821117156102f757634e487b7160e01b600052604160045260246000fd5b60405290830190808583111561030c57600080fd5b845b8381101561032657803582526020918201910161030e565b509095945050505050565b634e487b7160e01b600052601160045260246000fd5b60008282101561035957610359610331565b500390565b60008261037b57634e487b7160e01b600052601260045260246000fd5b500490565b634e487b7160e01b600052603260045260246000fd5b60006000198214156103aa576103aa610331565b5060010190565b600082198211156103c4576103c4610331565b500190565b600060208083528351808285015260005b818110156103f6578581018301518582016040015282016103da565b81811115610408576000604083870101525b50601f01601f191692909201604001939250505056fe546f6b656e54696d654c6f636b3a2043616e6e6f742073756273747261637420746f74616c20616d6f756e74207769746820636c61696d61626c65a2646970667358221220b5aa444132ce2bd086dc2c7e3500a352f31b322384f48fb1fbfa52c56524e18264736f6c634300080b003354616c6178546f6b656e3a2043616e6e6f74207472616e73666572206d6f7265207468616e20746f74616c20737570706c79",
			"opcodes": "PUSH1 0x80 PUSH1 0x40 MSTORE CALLVALUE DUP1 ISZERO PUSH3 0x11 JUMPI PUSH1 0x0 DUP1 REVERT JUMPDEST POP PUSH1 0x40 DUP1 MLOAD DUP1 DUP3 ADD DUP3 MSTORE PUSH1 0x8 DUP2 MSTORE PUSH8 0x54414C415845554D PUSH1 0xC0 SHL PUSH1 0x20 DUP1 DUP4 ADD SWAP2 DUP3 MSTORE DUP4 MLOAD DUP1 DUP6 ADD SWAP1 SWAP5 MSTORE PUSH1 0x5 DUP5 MSTORE PUSH5 0xA8829882B PUSH1 0xDB SHL SWAP1 DUP5 ADD MSTORE DUP2 MLOAD SWAP2 SWAP3 SWAP2 PUSH3 0x5F SWAP2 PUSH1 0x3 SWAP2 PUSH3 0xA07 JUMP JUMPDEST POP DUP1 MLOAD PUSH3 0x75 SWAP1 PUSH1 0x4 SWAP1 PUSH1 0x20 DUP5 ADD SWAP1 PUSH3 0xA07 JUMP JUMPDEST POP POP POP PUSH3 0x92 PUSH3 0x8C PUSH3 0x8AD PUSH1 0x20 SHL PUSH1 0x20 SHR JUMP JUMPDEST PUSH3 0x8B1 JUMP JUMPDEST PUSH1 0x7 DUP1 SLOAD PUSH1 0x1 ADD DUP2 SSTORE PUSH1 0xF PUSH1 0x6 SWAP1 DUP2 SSTORE PUSH1 0x0 PUSH1 0x9 DUP2 SWAP1 SSTORE PUSH1 0xD DUP1 SLOAD PUSH11 0xADB53ACFA41AEE12000000 PUSH1 0xE SSTORE PUSH3 0xFFFFFF NOT AND PUSH3 0x120001 OR SWAP1 SSTORE PUSH1 0xC PUSH1 0x20 MSTORE PUSH1 0x5 PUSH32 0xDF85B3B91DB3FC0D5CE237A54E22266DA0607FEF5FBE5DAEFFA9610EB8AE119C SSTORE PUSH32 0xEF0F79A2DBCDFF9A8EBE19B620AF73660A85B3DF3E0778F807CDF83AE1E805C8 SWAP2 SWAP1 SWAP2 SSTORE PUSH32 0x6C82D3A57CEBFEC9927F2AABAD409518216852DF1F4C0220FD7BA03937E50EBC SWAP2 SWAP1 SWAP2 SSTORE PUSH4 0x1E13380 SWAP1 MSTORE PUSH1 0x8 PUSH32 0xEA1E207DDA072346D0EC8DBC69C075DCC6DBF6A2606F1245552E3E0F7C397A2 SSTORE PUSH1 0x12 DUP1 SLOAD PUSH20 0xAF899859529EF3B03DFAF3FE5E3A7A25C980D470 PUSH1 0x1 PUSH1 0x1 PUSH1 0xA0 SHL SUB NOT SWAP1 SWAP2 AND DUP2 OR SWAP1 SWAP2 SSTORE PUSH3 0x19C SWAP1 PUSH3 0x903 JUMP JUMPDEST PUSH1 0x13 DUP1 SLOAD PUSH1 0x1 PUSH1 0x1 PUSH1 0xA0 SHL SUB NOT SWAP1 DUP2 AND PUSH20 0x5470C8FF25EC05980FC7C2967D076B8012298FE7 OR SWAP1 SWAP2 SSTORE PUSH1 0x14 DUP1 SLOAD DUP3 AND PUSH20 0x75837E79215250C45331B92C35B7BE506ED015AC SWAP1 DUP2 OR SWAP1 SWAP2 SSTORE PUSH1 0x15 DUP1 SLOAD DUP4 AND PUSH20 0x7A20DC6722563783E44BA8EDCA08C774621125E OR SWAP1 SSTORE PUSH1 0x16 DUP1 SLOAD DUP4 AND PUSH20 0xF09F65DD4D229E991901669AD7C7549F060E30B9 OR SWAP1 SSTORE PUSH1 0x17 DUP1 SLOAD DUP4 AND PUSH20 0x1A2118E056D6AF192E233C2C9CFB34E067DED1F8 OR SWAP1 SSTORE PUSH1 0x18 DUP1 SLOAD DUP4 AND PUSH20 0x126974FA373267D86FAB6D6871AFE62CCB68E810 OR SWAP1 SSTORE PUSH1 0x19 DUP1 SLOAD DUP4 AND PUSH20 0x2F838CF0DF38B2E91E747A01DDAE5EBAD5558B7A OR SWAP1 SSTORE PUSH1 0x1A DUP1 SLOAD DUP4 AND PUSH20 0x45094071C4DAAF6A9A73B0A0F095A2B138BD8A3A OR SWAP1 SSTORE PUSH1 0x1B DUP1 SLOAD DUP4 AND PUSH20 0xAEB26FB84D0E2B3B353CD50F0A29FD40C916D2AB OR SWAP1 SSTORE PUSH1 0x1C DUP1 SLOAD DUP4 AND PUSH20 0xE61E7A7D16DB384433E532FB85724E7F3BDAAE2F OR SWAP1 SSTORE PUSH1 0x1D DUP1 SLOAD DUP4 AND PUSH20 0x406605EB24A97A2D61B516D8D850F2AEFA6A731A OR SWAP1 SSTORE PUSH1 0x1E DUP1 SLOAD SWAP1 SWAP3 AND PUSH20 0x97620DEADC98BC8173303686037CE7B986CF53C3 OR SWAP1 SWAP2 SSTORE PUSH11 0xE7CBBD7AA8310AE400000 PUSH1 0x11 SSTORE ADDRESS PUSH1 0x0 SWAP1 DUP2 MSTORE PUSH1 0xA PUSH1 0x20 SWAP1 DUP2 MSTORE PUSH1 0x40 DUP1 DUP4 KECCAK256 PUSH11 0x2B6D4EB3E906BB84800000 SWAP1 SSTORE PUSH11 0x22BDD88FED9EFC6A000000 PUSH32 0xDFB1D7C0C4075C54677FAF06E544DBCF5557D95B2D840AD78616C319B2D70572 SSTORE SWAP3 SWAP1 SWAP2 MSTORE PUSH11 0x5C8D34A23DA1650A00000 PUSH32 0x9532779E16713DFD28E6B7F3D5812A23DD7FEB8BB04E6DD4C24EB2F48127825C SSTORE DUP2 MLOAD PUSH1 0x60 DUP2 ADD SWAP1 SWAP3 MSTORE PUSH1 0x32 DUP1 DUP4 MSTORE PUSH3 0x3E6 SWAP3 PUSH11 0x3CCC3AFBDFD639B9800000 SWAP3 SWAP1 SWAP2 SWAP1 PUSH3 0x5B19 SWAP1 DUP4 ADD CODECOPY PUSH1 0xE SLOAD PUSH3 0x9D8 PUSH1 0x20 SHL PUSH3 0x1C51 OR SWAP1 SWAP3 SWAP2 SWAP1 PUSH1 0x20 SHR JUMP JUMPDEST PUSH1 0xE SSTORE PUSH1 0x15 SLOAD PUSH1 0x40 MLOAD PUSH11 0x5C8D34A23DA1650A00000 SWAP2 PUSH1 0x1 PUSH1 0x1 PUSH1 0xA0 SHL SUB AND SWAP1 PUSH3 0x411 SWAP1 PUSH3 0xA96 JUMP JUMPDEST SWAP2 DUP3 MSTORE PUSH1 0x1 PUSH1 0x1 PUSH1 0xA0 SHL SUB AND PUSH1 0x20 DUP3 ADD MSTORE PUSH1 0x40 ADD PUSH1 0x40 MLOAD DUP1 SWAP2 SUB SWAP1 PUSH1 0x0 CREATE DUP1 ISZERO DUP1 ISZERO PUSH3 0x442 JUMPI RETURNDATASIZE PUSH1 0x0 DUP1 RETURNDATACOPY RETURNDATASIZE PUSH1 0x0 REVERT JUMPDEST POP PUSH1 0x1F DUP1 SLOAD PUSH1 0x1 PUSH1 0x1 PUSH1 0xA0 SHL SUB NOT AND PUSH1 0x1 PUSH1 0x1 PUSH1 0xA0 SHL SUB SWAP3 DUP4 AND OR SWAP1 SSTORE PUSH1 0x16 SLOAD PUSH1 0x40 MLOAD PUSH11 0xB949D854F34FECE000000 SWAP3 SWAP2 SWAP1 SWAP2 AND SWAP1 PUSH3 0x482 SWAP1 PUSH3 0xA96 JUMP JUMPDEST SWAP2 DUP3 MSTORE PUSH1 0x1 PUSH1 0x1 PUSH1 0xA0 SHL SUB AND PUSH1 0x20 DUP3 ADD MSTORE PUSH1 0x40 ADD PUSH1 0x40 MLOAD DUP1 SWAP2 SUB SWAP1 PUSH1 0x0 CREATE DUP1 ISZERO DUP1 ISZERO PUSH3 0x4B3 JUMPI RETURNDATASIZE PUSH1 0x0 DUP1 RETURNDATACOPY RETURNDATASIZE PUSH1 0x0 REVERT JUMPDEST POP PUSH1 0x20 DUP1 SLOAD PUSH1 0x1 PUSH1 0x1 PUSH1 0xA0 SHL SUB NOT AND PUSH1 0x1 PUSH1 0x1 PUSH1 0xA0 SHL SUB SWAP3 DUP4 AND OR SWAP1 SSTORE PUSH1 0x17 SLOAD PUSH1 0x40 MLOAD PUSH11 0xB949D854F34FECE000000 SWAP3 SWAP2 SWAP1 SWAP2 AND SWAP1 PUSH3 0x4F3 SWAP1 PUSH3 0xA96 JUMP JUMPDEST SWAP2 DUP3 MSTORE PUSH1 0x1 PUSH1 0x1 PUSH1 0xA0 SHL SUB AND PUSH1 0x20 DUP3 ADD MSTORE PUSH1 0x40 ADD PUSH1 0x40 MLOAD DUP1 SWAP2 SUB SWAP1 PUSH1 0x0 CREATE DUP1 ISZERO DUP1 ISZERO PUSH3 0x524 JUMPI RETURNDATASIZE PUSH1 0x0 DUP1 RETURNDATACOPY RETURNDATASIZE PUSH1 0x0 REVERT JUMPDEST POP PUSH1 0x21 DUP1 SLOAD PUSH1 0x1 PUSH1 0x1 PUSH1 0xA0 SHL SUB NOT AND PUSH1 0x1 PUSH1 0x1 PUSH1 0xA0 SHL SUB SWAP3 DUP4 AND OR SWAP1 SSTORE PUSH1 0x18 SLOAD PUSH1 0x40 MLOAD PUSH11 0xB949D854F34FECE000000 SWAP3 SWAP2 SWAP1 SWAP2 AND SWAP1 PUSH3 0x564 SWAP1 PUSH3 0xA96 JUMP JUMPDEST SWAP2 DUP3 MSTORE PUSH1 0x1 PUSH1 0x1 PUSH1 0xA0 SHL SUB AND PUSH1 0x20 DUP3 ADD MSTORE PUSH1 0x40 ADD PUSH1 0x40 MLOAD DUP1 SWAP2 SUB SWAP1 PUSH1 0x0 CREATE DUP1 ISZERO DUP1 ISZERO PUSH3 0x595 JUMPI RETURNDATASIZE PUSH1 0x0 DUP1 RETURNDATACOPY RETURNDATASIZE PUSH1 0x0 REVERT JUMPDEST POP PUSH1 0x22 DUP1 SLOAD PUSH1 0x1 PUSH1 0x1 PUSH1 0xA0 SHL SUB NOT AND PUSH1 0x1 PUSH1 0x1 PUSH1 0xA0 SHL SUB SWAP3 DUP4 AND OR SWAP1 SSTORE PUSH1 0x19 SLOAD PUSH1 0x40 MLOAD PUSH11 0x2E5276153CD3FB3800000 SWAP3 SWAP2 SWAP1 SWAP2 AND SWAP1 PUSH3 0x5D5 SWAP1 PUSH3 0xA96 JUMP JUMPDEST SWAP2 DUP3 MSTORE PUSH1 0x1 PUSH1 0x1 PUSH1 0xA0 SHL SUB AND PUSH1 0x20 DUP3 ADD MSTORE PUSH1 0x40 ADD PUSH1 0x40 MLOAD DUP1 SWAP2 SUB SWAP1 PUSH1 0x0 CREATE DUP1 ISZERO DUP1 ISZERO PUSH3 0x606 JUMPI RETURNDATASIZE PUSH1 0x0 DUP1 RETURNDATACOPY RETURNDATASIZE PUSH1 0x0 REVERT JUMPDEST POP PUSH1 0x23 DUP1 SLOAD PUSH1 0x1 PUSH1 0x1 PUSH1 0xA0 SHL SUB NOT AND PUSH1 0x1 PUSH1 0x1 PUSH1 0xA0 SHL SUB SWAP3 DUP4 AND OR SWAP1 SSTORE PUSH1 0x1A SLOAD PUSH1 0x40 MLOAD PUSH11 0x2E5276153CD3FB3800000 SWAP3 SWAP2 SWAP1 SWAP2 AND SWAP1 PUSH3 0x646 SWAP1 PUSH3 0xA96 JUMP JUMPDEST SWAP2 DUP3 MSTORE PUSH1 0x1 PUSH1 0x1 PUSH1 0xA0 SHL SUB AND PUSH1 0x20 DUP3 ADD MSTORE PUSH1 0x40 ADD PUSH1 0x40 MLOAD DUP1 SWAP2 SUB SWAP1 PUSH1 0x0 CREATE DUP1 ISZERO DUP1 ISZERO PUSH3 0x677 JUMPI RETURNDATASIZE PUSH1 0x0 DUP1 RETURNDATACOPY RETURNDATASIZE PUSH1 0x0 REVERT JUMPDEST POP PUSH1 0x24 DUP1 SLOAD PUSH1 0x1 PUSH1 0x1 PUSH1 0xA0 SHL SUB NOT AND PUSH1 0x1 PUSH1 0x1 PUSH1 0xA0 SHL SUB SWAP3 DUP4 AND OR SWAP1 SSTORE PUSH1 0x1B SLOAD PUSH1 0x40 MLOAD PUSH11 0x2E5276153CD3FB3800000 SWAP3 SWAP2 SWAP1 SWAP2 AND SWAP1 PUSH3 0x6B7 SWAP1 PUSH3 0xA96 JUMP JUMPDEST SWAP2 DUP3 MSTORE PUSH1 0x1 PUSH1 0x1 PUSH1 0xA0 SHL SUB AND PUSH1 0x20 DUP3 ADD MSTORE PUSH1 0x40 ADD PUSH1 0x40 MLOAD DUP1 SWAP2 SUB SWAP1 PUSH1 0x0 CREATE DUP1 ISZERO DUP1 ISZERO PUSH3 0x6E8 JUMPI RETURNDATASIZE PUSH1 0x0 DUP1 RETURNDATACOPY RETURNDATASIZE PUSH1 0x0 REVERT JUMPDEST POP PUSH1 0x25 DUP1 SLOAD PUSH1 0x1 PUSH1 0x1 PUSH1 0xA0 SHL SUB NOT AND PUSH1 0x1 PUSH1 0x1 PUSH1 0xA0 SHL SUB SWAP3 DUP4 AND OR SWAP1 SSTORE PUSH1 0x1C SLOAD PUSH1 0x40 MLOAD PUSH11 0x8AF7623FB67BF1A800000 SWAP3 SWAP2 SWAP1 SWAP2 AND SWAP1 PUSH3 0x728 SWAP1 PUSH3 0xA96 JUMP JUMPDEST SWAP2 DUP3 MSTORE PUSH1 0x1 PUSH1 0x1 PUSH1 0xA0 SHL SUB AND PUSH1 0x20 DUP3 ADD MSTORE PUSH1 0x40 ADD PUSH1 0x40 MLOAD DUP1 SWAP2 SUB SWAP1 PUSH1 0x0 CREATE DUP1 ISZERO DUP1 ISZERO PUSH3 0x759 JUMPI RETURNDATASIZE PUSH1 0x0 DUP1 RETURNDATACOPY RETURNDATASIZE PUSH1 0x0 REVERT JUMPDEST POP PUSH1 0x26 DUP1 SLOAD PUSH1 0x1 PUSH1 0x1 PUSH1 0xA0 SHL SUB NOT AND PUSH1 0x1 PUSH1 0x1 PUSH1 0xA0 SHL SUB SWAP3 DUP4 AND OR SWAP1 SSTORE PUSH1 0x1D SLOAD PUSH1 0x40 MLOAD PUSH11 0x8AF7623FB67BF1A800000 SWAP3 SWAP2 SWAP1 SWAP2 AND SWAP1 PUSH3 0x799 SWAP1 PUSH3 0xA96 JUMP JUMPDEST SWAP2 DUP3 MSTORE PUSH1 0x1 PUSH1 0x1 PUSH1 0xA0 SHL SUB AND PUSH1 0x20 DUP3 ADD MSTORE PUSH1 0x40 ADD PUSH1 0x40 MLOAD DUP1 SWAP2 SUB SWAP1 PUSH1 0x0 CREATE DUP1 ISZERO DUP1 ISZERO PUSH3 0x7CA JUMPI RETURNDATASIZE PUSH1 0x0 DUP1 RETURNDATACOPY RETURNDATASIZE PUSH1 0x0 REVERT JUMPDEST POP PUSH1 0x27 DUP1 SLOAD PUSH1 0x1 PUSH1 0x1 PUSH1 0xA0 SHL SUB NOT AND PUSH1 0x1 PUSH1 0x1 PUSH1 0xA0 SHL SUB SWAP3 DUP4 AND OR SWAP1 SSTORE PUSH1 0x1E SLOAD PUSH1 0x40 MLOAD PUSH11 0x8AF7623FB67BF1A800000 SWAP3 SWAP2 SWAP1 SWAP2 AND SWAP1 PUSH3 0x80A SWAP1 PUSH3 0xA96 JUMP JUMPDEST SWAP2 DUP3 MSTORE PUSH1 0x1 PUSH1 0x1 PUSH1 0xA0 SHL SUB AND PUSH1 0x20 DUP3 ADD MSTORE PUSH1 0x40 ADD PUSH1 0x40 MLOAD DUP1 SWAP2 SUB SWAP1 PUSH1 0x0 CREATE DUP1 ISZERO DUP1 ISZERO PUSH3 0x83B JUMPI RETURNDATASIZE PUSH1 0x0 DUP1 RETURNDATACOPY RETURNDATASIZE PUSH1 0x0 REVERT JUMPDEST POP PUSH1 0x28 PUSH1 0x0 PUSH2 0x100 EXP DUP2 SLOAD DUP2 PUSH1 0x1 PUSH1 0x1 PUSH1 0xA0 SHL SUB MUL NOT AND SWAP1 DUP4 PUSH1 0x1 PUSH1 0x1 PUSH1 0xA0 SHL SUB AND MUL OR SWAP1 SSTORE POP PUSH3 0x8A4 PUSH11 0x457BB11FDB3DF8D4000000 PUSH1 0x40 MLOAD DUP1 PUSH1 0x60 ADD PUSH1 0x40 MSTORE DUP1 PUSH1 0x32 DUP2 MSTORE PUSH1 0x20 ADD PUSH3 0x5B19 PUSH1 0x32 SWAP2 CODECOPY PUSH1 0xE SLOAD PUSH3 0x9D8 PUSH1 0x20 SHL PUSH3 0x1C51 OR SWAP1 SWAP3 SWAP2 SWAP1 PUSH1 0x20 SHR JUMP JUMPDEST PUSH1 0xE SSTORE PUSH3 0xB50 JUMP JUMPDEST CALLER SWAP1 JUMP JUMPDEST PUSH1 0x5 DUP1 SLOAD PUSH1 0x1 PUSH1 0x1 PUSH1 0xA0 SHL SUB DUP4 DUP2 AND PUSH1 0x1 PUSH1 0x1 PUSH1 0xA0 SHL SUB NOT DUP4 AND DUP2 OR SWAP1 SWAP4 SSTORE PUSH1 0x40 MLOAD SWAP2 AND SWAP2 SWAP1 DUP3 SWAP1 PUSH32 0x8BE0079C531659141344CD1FD0A4F28419497F9722A3DAAFE3B4186F6B6457E0 SWAP1 PUSH1 0x0 SWAP1 LOG3 POP POP JUMP JUMPDEST PUSH1 0x5 SLOAD PUSH1 0x1 PUSH1 0x1 PUSH1 0xA0 SHL SUB AND CALLER EQ PUSH3 0x963 JUMPI PUSH1 0x40 MLOAD PUSH3 0x461BCD PUSH1 0xE5 SHL DUP2 MSTORE PUSH1 0x20 PUSH1 0x4 DUP3 ADD DUP2 SWAP1 MSTORE PUSH1 0x24 DUP3 ADD MSTORE PUSH32 0x4F776E61626C653A2063616C6C6572206973206E6F7420746865206F776E6572 PUSH1 0x44 DUP3 ADD MSTORE PUSH1 0x64 ADD JUMPDEST PUSH1 0x40 MLOAD DUP1 SWAP2 SUB SWAP1 REVERT JUMPDEST PUSH1 0x1 PUSH1 0x1 PUSH1 0xA0 SHL SUB DUP2 AND PUSH3 0x9CA JUMPI PUSH1 0x40 MLOAD PUSH3 0x461BCD PUSH1 0xE5 SHL DUP2 MSTORE PUSH1 0x20 PUSH1 0x4 DUP3 ADD MSTORE PUSH1 0x26 PUSH1 0x24 DUP3 ADD MSTORE PUSH32 0x4F776E61626C653A206E6577206F776E657220697320746865207A65726F2061 PUSH1 0x44 DUP3 ADD MSTORE PUSH6 0x646472657373 PUSH1 0xD0 SHL PUSH1 0x64 DUP3 ADD MSTORE PUSH1 0x84 ADD PUSH3 0x95A JUMP JUMPDEST PUSH3 0x9D5 DUP2 PUSH3 0x8B1 JUMP JUMPDEST POP JUMP JUMPDEST PUSH1 0x0 DUP2 DUP5 DUP5 GT ISZERO PUSH3 0x9FF JUMPI PUSH1 0x40 MLOAD PUSH3 0x461BCD PUSH1 0xE5 SHL DUP2 MSTORE PUSH1 0x4 ADD PUSH3 0x95A SWAP2 SWAP1 PUSH3 0xABB JUMP JUMPDEST POP POP POP SWAP1 SUB SWAP1 JUMP JUMPDEST DUP3 DUP1 SLOAD PUSH3 0xA15 SWAP1 PUSH3 0xB13 JUMP JUMPDEST SWAP1 PUSH1 0x0 MSTORE PUSH1 0x20 PUSH1 0x0 KECCAK256 SWAP1 PUSH1 0x1F ADD PUSH1 0x20 SWAP1 DIV DUP2 ADD SWAP3 DUP3 PUSH3 0xA39 JUMPI PUSH1 0x0 DUP6 SSTORE PUSH3 0xA84 JUMP JUMPDEST DUP3 PUSH1 0x1F LT PUSH3 0xA54 JUMPI DUP1 MLOAD PUSH1 0xFF NOT AND DUP4 DUP1 ADD OR DUP6 SSTORE PUSH3 0xA84 JUMP JUMPDEST DUP3 DUP1 ADD PUSH1 0x1 ADD DUP6 SSTORE DUP3 ISZERO PUSH3 0xA84 JUMPI SWAP2 DUP3 ADD JUMPDEST DUP3 DUP2 GT ISZERO PUSH3 0xA84 JUMPI DUP3 MLOAD DUP3 SSTORE SWAP2 PUSH1 0x20 ADD SWAP2 SWAP1 PUSH1 0x1 ADD SWAP1 PUSH3 0xA67 JUMP JUMPDEST POP PUSH3 0xA92 SWAP3 SWAP2 POP PUSH3 0xAA4 JUMP JUMPDEST POP SWAP1 JUMP JUMPDEST PUSH2 0x599 DUP1 PUSH3 0x5580 DUP4 CODECOPY ADD SWAP1 JUMP JUMPDEST JUMPDEST DUP1 DUP3 GT ISZERO PUSH3 0xA92 JUMPI PUSH1 0x0 DUP2 SSTORE PUSH1 0x1 ADD PUSH3 0xAA5 JUMP JUMPDEST PUSH1 0x0 PUSH1 0x20 DUP1 DUP4 MSTORE DUP4 MLOAD DUP1 DUP3 DUP6 ADD MSTORE PUSH1 0x0 JUMPDEST DUP2 DUP2 LT ISZERO PUSH3 0xAEA JUMPI DUP6 DUP2 ADD DUP4 ADD MLOAD DUP6 DUP3 ADD PUSH1 0x40 ADD MSTORE DUP3 ADD PUSH3 0xACC JUMP JUMPDEST DUP2 DUP2 GT ISZERO PUSH3 0xAFD JUMPI PUSH1 0x0 PUSH1 0x40 DUP4 DUP8 ADD ADD MSTORE JUMPDEST POP PUSH1 0x1F ADD PUSH1 0x1F NOT AND SWAP3 SWAP1 SWAP3 ADD PUSH1 0x40 ADD SWAP4 SWAP3 POP POP POP JUMP JUMPDEST PUSH1 0x1 DUP2 DUP2 SHR SWAP1 DUP3 AND DUP1 PUSH3 0xB28 JUMPI PUSH1 0x7F DUP3 AND SWAP2 POP JUMPDEST PUSH1 0x20 DUP3 LT DUP2 EQ ISZERO PUSH3 0xB4A JUMPI PUSH4 0x4E487B71 PUSH1 0xE0 SHL PUSH1 0x0 MSTORE PUSH1 0x22 PUSH1 0x4 MSTORE PUSH1 0x24 PUSH1 0x0 REVERT JUMPDEST POP SWAP2 SWAP1 POP JUMP JUMPDEST PUSH2 0x4A20 DUP1 PUSH3 0xB60 PUSH1 0x0 CODECOPY PUSH1 0x0 RETURN INVALID PUSH1 0x80 PUSH1 0x40 MSTORE PUSH1 0x4 CALLDATASIZE LT PUSH2 0x260 JUMPI PUSH1 0x0 CALLDATALOAD PUSH1 0xE0 SHR DUP1 PUSH4 0x893D20E8 GT PUSH2 0x144 JUMPI DUP1 PUSH4 0xB8B18E89 GT PUSH2 0xB6 JUMPI DUP1 PUSH4 0xDDA4ADD5 GT PUSH2 0x7A JUMPI DUP1 PUSH4 0xDDA4ADD5 EQ PUSH2 0x6EE JUMPI DUP1 PUSH4 0xE73E14BF EQ PUSH2 0x71B JUMPI DUP1 PUSH4 0xEB9F4AC7 EQ PUSH2 0x73B JUMPI DUP1 PUSH4 0xF1FDF469 EQ PUSH2 0x750 JUMPI DUP1 PUSH4 0xF2FDE38B EQ PUSH2 0x770 JUMPI DUP1 PUSH4 0xF729B00F EQ PUSH2 0x790 JUMPI PUSH2 0x270 JUMP JUMPDEST DUP1 PUSH4 0xB8B18E89 EQ PUSH2 0x64B JUMPI DUP1 PUSH4 0xBEA8E46B EQ PUSH2 0x660 JUMPI DUP1 PUSH4 0xD4DCA69B EQ PUSH2 0x675 JUMPI DUP1 PUSH4 0xD94D4AD6 EQ PUSH2 0x688 JUMPI DUP1 PUSH4 0xDD62ED3E EQ PUSH2 0x6A8 JUMPI PUSH2 0x270 JUMP JUMPDEST DUP1 PUSH4 0x95D89B41 GT PUSH2 0x108 JUMPI DUP1 PUSH4 0x95D89B41 EQ PUSH2 0x590 JUMPI DUP1 PUSH4 0xA071DCF4 EQ PUSH2 0x5A5 JUMPI DUP1 PUSH4 0xA169C515 EQ PUSH2 0x5BE JUMPI DUP1 PUSH4 0xA457C2D7 EQ PUSH2 0x5DE JUMPI DUP1 PUSH4 0xA9059CBB EQ PUSH2 0x5FE JUMPI DUP1 PUSH4 0xB09D4B4E EQ PUSH2 0x61E JUMPI PUSH2 0x270 JUMP JUMPDEST DUP1 PUSH4 0x893D20E8 EQ PUSH2 0x4FB JUMPI DUP1 PUSH4 0x8C63F97F EQ PUSH2 0x528 JUMPI DUP1 PUSH4 0x8DA5CB5B EQ PUSH2 0x548 JUMPI DUP1 PUSH4 0x90A4C709 EQ PUSH2 0x566 JUMPI DUP1 PUSH4 0x934851EC EQ PUSH2 0x57B JUMPI PUSH2 0x270 JUMP JUMPDEST DUP1 PUSH4 0x3F3EF2DC GT PUSH2 0x1DD JUMPI DUP1 PUSH4 0x79CC6790 GT PUSH2 0x1A1 JUMPI DUP1 PUSH4 0x79CC6790 EQ PUSH2 0x45C JUMPI DUP1 PUSH4 0x7B0472F0 EQ PUSH2 0x47C JUMPI DUP1 PUSH4 0x8378A875 EQ PUSH2 0x49C JUMPI DUP1 PUSH4 0x84F3996D EQ PUSH2 0x4B1 JUMPI DUP1 PUSH4 0x883D9984 EQ PUSH2 0x4C6 JUMPI DUP1 PUSH4 0x8902CD70 EQ PUSH2 0x4DB JUMPI PUSH2 0x270 JUMP JUMPDEST DUP1 PUSH4 0x3F3EF2DC EQ PUSH2 0x3C7 JUMPI DUP1 PUSH4 0x42966C68 EQ PUSH2 0x3DC JUMPI DUP1 PUSH4 0x56029137 EQ PUSH2 0x3FC JUMPI DUP1 PUSH4 0x70A08231 EQ PUSH2 0x411 JUMPI DUP1 PUSH4 0x715018A6 EQ PUSH2 0x447 JUMPI PUSH2 0x270 JUMP JUMPDEST DUP1 PUSH4 0x23B872DD GT PUSH2 0x224 JUMPI DUP1 PUSH4 0x23B872DD EQ PUSH2 0x328 JUMPI DUP1 PUSH4 0x313CE567 EQ PUSH2 0x348 JUMPI DUP1 PUSH4 0x39509351 EQ PUSH2 0x364 JUMPI DUP1 PUSH4 0x3B124FE7 EQ PUSH2 0x384 JUMPI DUP1 PUSH4 0x3DC10AD4 EQ PUSH2 0x3B2 JUMPI PUSH2 0x270 JUMP JUMPDEST DUP1 PUSH4 0x6FDDE03 EQ PUSH2 0x279 JUMPI DUP1 PUSH4 0x95EA7B3 EQ PUSH2 0x2A4 JUMPI DUP1 PUSH4 0xE1B09ED EQ PUSH2 0x2D4 JUMPI DUP1 PUSH4 0x15441BB9 EQ PUSH2 0x2F4 JUMPI DUP1 PUSH4 0x18160DDD EQ PUSH2 0x309 JUMPI PUSH2 0x270 JUMP JUMPDEST CALLDATASIZE PUSH2 0x270 JUMPI PUSH2 0x26E CALLVALUE PUSH2 0x7B0 JUMP JUMPDEST STOP JUMPDEST PUSH2 0x26E CALLVALUE PUSH2 0x7B0 JUMP JUMPDEST CALLVALUE DUP1 ISZERO PUSH2 0x285 JUMPI PUSH1 0x0 DUP1 REVERT JUMPDEST POP PUSH2 0x28E PUSH2 0x86E JUMP JUMPDEST PUSH1 0x40 MLOAD PUSH2 0x29B SWAP2 SWAP1 PUSH2 0x44FB JUMP JUMPDEST PUSH1 0x40 MLOAD DUP1 SWAP2 SUB SWAP1 RETURN JUMPDEST CALLVALUE DUP1 ISZERO PUSH2 0x2B0 JUMPI PUSH1 0x0 DUP1 REVERT JUMPDEST POP PUSH2 0x2C4 PUSH2 0x2BF CALLDATASIZE PUSH1 0x4 PUSH2 0x4565 JUMP JUMPDEST PUSH2 0x900 JUMP JUMPDEST PUSH1 0x40 MLOAD SWAP1 ISZERO ISZERO DUP2 MSTORE PUSH1 0x20 ADD PUSH2 0x29B JUMP JUMPDEST CALLVALUE DUP1 ISZERO PUSH2 0x2E0 JUMPI PUSH1 0x0 DUP1 REVERT JUMPDEST POP PUSH2 0x26E PUSH2 0x2EF CALLDATASIZE PUSH1 0x4 PUSH2 0x4591 JUMP JUMPDEST PUSH2 0x917 JUMP JUMPDEST CALLVALUE DUP1 ISZERO PUSH2 0x300 JUMPI PUSH1 0x0 DUP1 REVERT JUMPDEST POP PUSH2 0x26E PUSH2 0xA0C JUMP JUMPDEST CALLVALUE DUP1 ISZERO PUSH2 0x315 JUMPI PUSH1 0x0 DUP1 REVERT JUMPDEST POP PUSH1 0x2 SLOAD JUMPDEST PUSH1 0x40 MLOAD SWAP1 DUP2 MSTORE PUSH1 0x20 ADD PUSH2 0x29B JUMP JUMPDEST CALLVALUE DUP1 ISZERO PUSH2 0x334 JUMPI PUSH1 0x0 DUP1 REVERT JUMPDEST POP PUSH2 0x2C4 PUSH2 0x343 CALLDATASIZE PUSH1 0x4 PUSH2 0x45AA JUMP JUMPDEST PUSH2 0xB5E JUMP JUMPDEST CALLVALUE DUP1 ISZERO PUSH2 0x354 JUMPI PUSH1 0x0 DUP1 REVERT JUMPDEST POP PUSH1 0x40 MLOAD PUSH1 0x12 DUP2 MSTORE PUSH1 0x20 ADD PUSH2 0x29B JUMP JUMPDEST CALLVALUE DUP1 ISZERO PUSH2 0x370 JUMPI PUSH1 0x0 DUP1 REVERT JUMPDEST POP PUSH2 0x2C4 PUSH2 0x37F CALLDATASIZE PUSH1 0x4 PUSH2 0x4565 JUMP JUMPDEST PUSH2 0xBC7 JUMP JUMPDEST CALLVALUE DUP1 ISZERO PUSH2 0x390 JUMPI PUSH1 0x0 DUP1 REVERT JUMPDEST POP PUSH1 0xD SLOAD PUSH2 0x39F SWAP1 PUSH2 0xFFFF AND DUP2 JUMP JUMPDEST PUSH1 0x40 MLOAD PUSH2 0xFFFF SWAP1 SWAP2 AND DUP2 MSTORE PUSH1 0x20 ADD PUSH2 0x29B JUMP JUMPDEST CALLVALUE DUP1 ISZERO PUSH2 0x3BE JUMPI PUSH1 0x0 DUP1 REVERT JUMPDEST POP PUSH1 0x6 SLOAD PUSH2 0x31A JUMP JUMPDEST CALLVALUE DUP1 ISZERO PUSH2 0x3D3 JUMPI PUSH1 0x0 DUP1 REVERT JUMPDEST POP PUSH2 0x26E PUSH2 0xC01 JUMP JUMPDEST CALLVALUE DUP1 ISZERO PUSH2 0x3E8 JUMPI PUSH1 0x0 DUP1 REVERT JUMPDEST POP PUSH2 0x26E PUSH2 0x3F7 CALLDATASIZE PUSH1 0x4 PUSH2 0x4591 JUMP JUMPDEST PUSH2 0xCC4 JUMP JUMPDEST CALLVALUE DUP1 ISZERO PUSH2 0x408 JUMPI PUSH1 0x0 DUP1 REVERT JUMPDEST POP PUSH2 0x26E PUSH2 0xCD1 JUMP JUMPDEST CALLVALUE DUP1 ISZERO PUSH2 0x41D JUMPI PUSH1 0x0 DUP1 REVERT JUMPDEST POP PUSH2 0x31A PUSH2 0x42C CALLDATASIZE PUSH1 0x4 PUSH2 0x45EB JUMP JUMPDEST PUSH1 0x1 PUSH1 0x1 PUSH1 0xA0 SHL SUB AND PUSH1 0x0 SWAP1 DUP2 MSTORE PUSH1 0xA PUSH1 0x20 MSTORE PUSH1 0x40 SWAP1 KECCAK256 SLOAD SWAP1 JUMP JUMPDEST CALLVALUE DUP1 ISZERO PUSH2 0x453 JUMPI PUSH1 0x0 DUP1 REVERT JUMPDEST POP PUSH2 0x26E PUSH2 0xD94 JUMP JUMPDEST CALLVALUE DUP1 ISZERO PUSH2 0x468 JUMPI PUSH1 0x0 DUP1 REVERT JUMPDEST POP PUSH2 0x26E PUSH2 0x477 CALLDATASIZE PUSH1 0x4 PUSH2 0x4565 JUMP JUMPDEST PUSH2 0xDCA JUMP JUMPDEST CALLVALUE DUP1 ISZERO PUSH2 0x488 JUMPI PUSH1 0x0 DUP1 REVERT JUMPDEST POP PUSH2 0x26E PUSH2 0x497 CALLDATASIZE PUSH1 0x4 PUSH2 0x4608 JUMP JUMPDEST PUSH2 0xDE3 JUMP JUMPDEST CALLVALUE DUP1 ISZERO PUSH2 0x4A8 JUMPI PUSH1 0x0 DUP1 REVERT JUMPDEST POP PUSH2 0x26E PUSH2 0xF1F JUMP JUMPDEST CALLVALUE DUP1 ISZERO PUSH2 0x4BD JUMPI PUSH1 0x0 DUP1 REVERT JUMPDEST POP PUSH2 0x26E PUSH2 0xFE2 JUMP JUMPDEST CALLVALUE DUP1 ISZERO PUSH2 0x4D2 JUMPI PUSH1 0x0 DUP1 REVERT JUMPDEST POP PUSH2 0x26E PUSH2 0x10A5 JUMP JUMPDEST CALLVALUE DUP1 ISZERO PUSH2 0x4E7 JUMPI PUSH1 0x0 DUP1 REVERT JUMPDEST POP PUSH2 0x26E PUSH2 0x4F6 CALLDATASIZE PUSH1 0x4 PUSH2 0x462A JUMP JUMPDEST PUSH2 0x1168 JUMP JUMPDEST CALLVALUE DUP1 ISZERO PUSH2 0x507 JUMPI PUSH1 0x0 DUP1 REVERT JUMPDEST POP PUSH2 0x510 PUSH2 0x120A JUMP JUMPDEST PUSH1 0x40 MLOAD PUSH1 0x1 PUSH1 0x1 PUSH1 0xA0 SHL SUB SWAP1 SWAP2 AND DUP2 MSTORE PUSH1 0x20 ADD PUSH2 0x29B JUMP JUMPDEST CALLVALUE DUP1 ISZERO PUSH2 0x534 JUMPI PUSH1 0x0 DUP1 REVERT JUMPDEST POP PUSH2 0x26E PUSH2 0x543 CALLDATASIZE PUSH1 0x4 PUSH2 0x4591 JUMP JUMPDEST PUSH2 0x1223 JUMP JUMPDEST CALLVALUE DUP1 ISZERO PUSH2 0x554 JUMPI PUSH1 0x0 DUP1 REVERT JUMPDEST POP PUSH1 0x5 SLOAD PUSH1 0x1 PUSH1 0x1 PUSH1 0xA0 SHL SUB AND PUSH2 0x510 JUMP JUMPDEST CALLVALUE DUP1 ISZERO PUSH2 0x572 JUMPI PUSH1 0x0 DUP1 REVERT JUMPDEST POP PUSH2 0x26E PUSH2 0x1285 JUMP JUMPDEST CALLVALUE DUP1 ISZERO PUSH2 0x587 JUMPI PUSH1 0x0 DUP1 REVERT JUMPDEST POP PUSH2 0x26E PUSH2 0x1348 JUMP JUMPDEST CALLVALUE DUP1 ISZERO PUSH2 0x59C JUMPI PUSH1 0x0 DUP1 REVERT JUMPDEST POP PUSH2 0x28E PUSH2 0x1408 JUMP JUMPDEST CALLVALUE DUP1 ISZERO PUSH2 0x5B1 JUMPI PUSH1 0x0 DUP1 REVERT JUMPDEST POP PUSH1 0xD SLOAD PUSH2 0xFFFF AND PUSH2 0x31A JUMP JUMPDEST CALLVALUE DUP1 ISZERO PUSH2 0x5CA JUMPI PUSH1 0x0 DUP1 REVERT JUMPDEST POP PUSH2 0x26E PUSH2 0x5D9 CALLDATASIZE PUSH1 0x4 PUSH2 0x4591 JUMP JUMPDEST PUSH2 0x1417 JUMP JUMPDEST CALLVALUE DUP1 ISZERO PUSH2 0x5EA JUMPI PUSH1 0x0 DUP1 REVERT JUMPDEST POP PUSH2 0x2C4 PUSH2 0x5F9 CALLDATASIZE PUSH1 0x4 PUSH2 0x4565 JUMP JUMPDEST PUSH2 0x14C7 JUMP JUMPDEST CALLVALUE DUP1 ISZERO PUSH2 0x60A JUMPI PUSH1 0x0 DUP1 REVERT JUMPDEST POP PUSH2 0x2C4 PUSH2 0x619 CALLDATASIZE PUSH1 0x4 PUSH2 0x4565 JUMP JUMPDEST PUSH2 0x1564 JUMP JUMPDEST CALLVALUE DUP1 ISZERO PUSH2 0x62A JUMPI PUSH1 0x0 DUP1 REVERT JUMPDEST POP PUSH2 0x63E PUSH2 0x639 CALLDATASIZE PUSH1 0x4 PUSH2 0x45EB JUMP JUMPDEST PUSH2 0x1571 JUMP JUMPDEST PUSH1 0x40 MLOAD PUSH2 0x29B SWAP2 SWAP1 PUSH2 0x464E JUMP JUMPDEST CALLVALUE DUP1 ISZERO PUSH2 0x657 JUMPI PUSH1 0x0 DUP1 REVERT JUMPDEST POP PUSH2 0x26E PUSH2 0x1681 JUMP JUMPDEST CALLVALUE DUP1 ISZERO PUSH2 0x66C JUMPI PUSH1 0x0 DUP1 REVERT JUMPDEST POP PUSH2 0x31A PUSH2 0x1736 JUMP JUMPDEST CALLVALUE DUP1 ISZERO PUSH2 0x681 JUMPI PUSH1 0x0 DUP1 REVERT JUMPDEST POP ADDRESS PUSH2 0x510 JUMP JUMPDEST CALLVALUE DUP1 ISZERO PUSH2 0x694 JUMPI PUSH1 0x0 DUP1 REVERT JUMPDEST POP PUSH2 0x26E PUSH2 0x6A3 CALLDATASIZE PUSH1 0x4 PUSH2 0x4591 JUMP JUMPDEST PUSH2 0x1798 JUMP JUMPDEST CALLVALUE DUP1 ISZERO PUSH2 0x6B4 JUMPI PUSH1 0x0 DUP1 REVERT JUMPDEST POP PUSH2 0x31A PUSH2 0x6C3 CALLDATASIZE PUSH1 0x4 PUSH2 0x46E4 JUMP JUMPDEST PUSH1 0x1 PUSH1 0x1 PUSH1 0xA0 SHL SUB SWAP2 DUP3 AND PUSH1 0x0 SWAP1 DUP2 MSTORE PUSH1 0xB PUSH1 0x20 SWAP1 DUP2 MSTORE PUSH1 0x40 DUP1 DUP4 KECCAK256 SWAP4 SWAP1 SWAP5 AND DUP3 MSTORE SWAP2 SWAP1 SWAP2 MSTORE KECCAK256 SLOAD SWAP1 JUMP JUMPDEST CALLVALUE DUP1 ISZERO PUSH2 0x6FA JUMPI PUSH1 0x0 DUP1 REVERT JUMPDEST POP PUSH2 0x31A PUSH2 0x709 CALLDATASIZE PUSH1 0x4 PUSH2 0x4591 JUMP JUMPDEST PUSH1 0xC PUSH1 0x20 MSTORE PUSH1 0x0 SWAP1 DUP2 MSTORE PUSH1 0x40 SWAP1 KECCAK256 SLOAD DUP2 JUMP JUMPDEST CALLVALUE DUP1 ISZERO PUSH2 0x727 JUMPI PUSH1 0x0 DUP1 REVERT JUMPDEST POP PUSH2 0x63E PUSH2 0x736 CALLDATASIZE PUSH1 0x4 PUSH2 0x45EB JUMP JUMPDEST PUSH2 0x17ED JUMP JUMPDEST CALLVALUE DUP1 ISZERO PUSH2 0x747 JUMPI PUSH1 0x0 DUP1 REVERT JUMPDEST POP PUSH2 0x26E PUSH2 0x1A34 JUMP JUMPDEST CALLVALUE DUP1 ISZERO PUSH2 0x75C JUMPI PUSH1 0x0 DUP1 REVERT JUMPDEST POP PUSH2 0x26E PUSH2 0x76B CALLDATASIZE PUSH1 0x4 PUSH2 0x4608 JUMP JUMPDEST PUSH2 0x1AF7 JUMP JUMPDEST CALLVALUE DUP1 ISZERO PUSH2 0x77C JUMPI PUSH1 0x0 DUP1 REVERT JUMPDEST POP PUSH2 0x26E PUSH2 0x78B CALLDATASIZE PUSH1 0x4 PUSH2 0x45EB JUMP JUMPDEST PUSH2 0x1B61 JUMP JUMPDEST CALLVALUE DUP1 ISZERO PUSH2 0x79C JUMPI PUSH1 0x0 DUP1 REVERT JUMPDEST POP PUSH2 0x26E PUSH2 0x7AB CALLDATASIZE PUSH1 0x4 PUSH2 0x4591 JUMP JUMPDEST PUSH2 0x1BF9 JUMP JUMPDEST PUSH1 0x0 PUSH2 0x7BD DUP3 PUSH1 0x3 PUSH2 0x1C7D JUMP JUMPDEST PUSH1 0x1C SLOAD PUSH1 0x1 PUSH1 0x1 PUSH1 0xA0 SHL SUB AND PUSH1 0x0 SWAP1 DUP2 MSTORE PUSH1 0xA PUSH1 0x20 MSTORE PUSH1 0x40 SWAP1 KECCAK256 SLOAD SWAP1 SWAP2 POP PUSH2 0x7E5 SWAP1 DUP3 PUSH2 0x1C90 JUMP JUMPDEST PUSH1 0x1C SLOAD PUSH1 0x1 PUSH1 0x1 PUSH1 0xA0 SHL SUB SWAP1 DUP2 AND PUSH1 0x0 SWAP1 DUP2 MSTORE PUSH1 0xA PUSH1 0x20 MSTORE PUSH1 0x40 DUP1 DUP3 KECCAK256 SWAP4 SWAP1 SWAP4 SSTORE PUSH1 0x1D SLOAD SWAP1 SWAP2 AND DUP2 MSTORE KECCAK256 SLOAD PUSH2 0x81A SWAP1 DUP3 PUSH2 0x1C90 JUMP JUMPDEST PUSH1 0x1D SLOAD PUSH1 0x1 PUSH1 0x1 PUSH1 0xA0 SHL SUB SWAP1 DUP2 AND PUSH1 0x0 SWAP1 DUP2 MSTORE PUSH1 0xA PUSH1 0x20 MSTORE PUSH1 0x40 DUP1 DUP3 KECCAK256 SWAP4 SWAP1 SWAP4 SSTORE PUSH1 0x1E SLOAD SWAP1 SWAP2 AND DUP2 MSTORE KECCAK256 SLOAD PUSH2 0x84F SWAP1 DUP3 PUSH2 0x1C90 JUMP JUMPDEST PUSH1 0x1E SLOAD PUSH1 0x1 PUSH1 0x1 PUSH1 0xA0 SHL SUB AND PUSH1 0x0 SWAP1 DUP2 MSTORE PUSH1 0xA PUSH1 0x20 MSTORE PUSH1 0x40 SWAP1 KECCAK256 SSTORE POP POP JUMP JUMPDEST PUSH1 0x60 PUSH1 0x3 DUP1 SLOAD PUSH2 0x87D SWAP1 PUSH2 0x471D JUMP JUMPDEST DUP1 PUSH1 0x1F ADD PUSH1 0x20 DUP1 SWAP2 DIV MUL PUSH1 0x20 ADD PUSH1 0x40 MLOAD SWAP1 DUP2 ADD PUSH1 0x40 MSTORE DUP1 SWAP3 SWAP2 SWAP1 DUP2 DUP2 MSTORE PUSH1 0x20 ADD DUP3 DUP1 SLOAD PUSH2 0x8A9 SWAP1 PUSH2 0x471D JUMP JUMPDEST DUP1 ISZERO PUSH2 0x8F6 JUMPI DUP1 PUSH1 0x1F LT PUSH2 0x8CB JUMPI PUSH2 0x100 DUP1 DUP4 SLOAD DIV MUL DUP4 MSTORE SWAP2 PUSH1 0x20 ADD SWAP2 PUSH2 0x8F6 JUMP JUMPDEST DUP3 ADD SWAP2 SWAP1 PUSH1 0x0 MSTORE PUSH1 0x20 PUSH1 0x0 KECCAK256 SWAP1 JUMPDEST DUP2 SLOAD DUP2 MSTORE SWAP1 PUSH1 0x1 ADD SWAP1 PUSH1 0x20 ADD DUP1 DUP4 GT PUSH2 0x8D9 JUMPI DUP3 SWAP1 SUB PUSH1 0x1F AND DUP3 ADD SWAP2 JUMPDEST POP POP POP POP POP SWAP1 POP SWAP1 JUMP JUMPDEST PUSH1 0x0 PUSH2 0x90D CALLER DUP5 DUP5 PUSH2 0x1C9C JUMP JUMPDEST POP PUSH1 0x1 JUMPDEST SWAP3 SWAP2 POP POP JUMP JUMPDEST PUSH1 0x5 SLOAD PUSH1 0x1 PUSH1 0x1 PUSH1 0xA0 SHL SUB AND CALLER EQ PUSH2 0x94A JUMPI PUSH1 0x40 MLOAD PUSH3 0x461BCD PUSH1 0xE5 SHL DUP2 MSTORE PUSH1 0x4 ADD PUSH2 0x941 SWAP1 PUSH2 0x4758 JUMP JUMPDEST PUSH1 0x40 MLOAD DUP1 SWAP2 SUB SWAP1 REVERT JUMPDEST PUSH1 0x9 SLOAD TIMESTAMP LT ISZERO PUSH2 0x96C JUMPI PUSH1 0x40 MLOAD PUSH3 0x461BCD PUSH1 0xE5 SHL DUP2 MSTORE PUSH1 0x4 ADD PUSH2 0x941 SWAP1 PUSH2 0x478D JUMP JUMPDEST PUSH1 0x11 SLOAD DUP2 LT PUSH2 0x9D9 JUMPI PUSH1 0x40 MLOAD PUSH3 0x461BCD PUSH1 0xE5 SHL DUP2 MSTORE PUSH1 0x20 PUSH1 0x4 DUP3 ADD MSTORE PUSH1 0x33 PUSH1 0x24 DUP3 ADD MSTORE PUSH32 0x54616C6178546F6B656E3A20416D6F756E74206275726E74206C617267657220 PUSH1 0x44 DUP3 ADD MSTORE PUSH19 0x1D1A185B8814DD185ADA5B99C814995DD85C99 PUSH1 0x6A SHL PUSH1 0x64 DUP3 ADD MSTORE PUSH1 0x84 ADD PUSH2 0x941 JUMP JUMPDEST PUSH1 0x11 SLOAD PUSH2 0x9E6 SWAP1 DUP3 PUSH2 0x1DC0 JUMP JUMPDEST PUSH1 0x11 SSTORE PUSH1 0xE SLOAD PUSH2 0x9F6 SWAP1 DUP3 PUSH2 0x1DC0 JUMP JUMPDEST PUSH1 0xE SSTORE PUSH2 0xA06 TIMESTAMP PUSH3 0x278D00 PUSH2 0x483E JUMP JUMPDEST PUSH1 0x9 SSTORE POP JUMP JUMPDEST PUSH1 0x24 PUSH1 0x0 SWAP1 SLOAD SWAP1 PUSH2 0x100 EXP SWAP1 DIV PUSH1 0x1 PUSH1 0x1 PUSH1 0xA0 SHL SUB AND PUSH1 0x1 PUSH1 0x1 PUSH1 0xA0 SHL SUB AND PUSH4 0x38AF3EED PUSH1 0x40 MLOAD DUP2 PUSH4 0xFFFFFFFF AND PUSH1 0xE0 SHL DUP2 MSTORE PUSH1 0x4 ADD PUSH1 0x20 PUSH1 0x40 MLOAD DUP1 DUP4 SUB DUP2 DUP7 GAS STATICCALL ISZERO DUP1 ISZERO PUSH2 0xA5F JUMPI RETURNDATASIZE PUSH1 0x0 DUP1 RETURNDATACOPY RETURNDATASIZE PUSH1 0x0 REVERT JUMPDEST POP POP POP POP PUSH1 0x40 MLOAD RETURNDATASIZE PUSH1 0x1F NOT PUSH1 0x1F DUP3 ADD AND DUP3 ADD DUP1 PUSH1 0x40 MSTORE POP DUP2 ADD SWAP1 PUSH2 0xA83 SWAP2 SWAP1 PUSH2 0x4856 JUMP JUMPDEST PUSH1 0x1 PUSH1 0x1 PUSH1 0xA0 SHL SUB AND CALLER PUSH1 0x1 PUSH1 0x1 PUSH1 0xA0 SHL SUB AND EQ PUSH2 0xAB3 JUMPI PUSH1 0x40 MLOAD PUSH3 0x461BCD PUSH1 0xE5 SHL DUP2 MSTORE PUSH1 0x4 ADD PUSH2 0x941 SWAP1 PUSH2 0x4873 JUMP JUMPDEST PUSH1 0x24 SLOAD PUSH1 0x0 SWAP1 PUSH1 0x1 PUSH1 0x1 PUSH1 0xA0 SHL SUB AND PUSH4 0xC8100DCC PUSH2 0xACF PUSH2 0x1DCC JUMP JUMPDEST PUSH1 0x40 MLOAD DUP3 PUSH4 0xFFFFFFFF AND PUSH1 0xE0 SHL DUP2 MSTORE PUSH1 0x4 ADD PUSH2 0xAEB SWAP2 SWAP1 PUSH2 0x48AA JUMP JUMPDEST PUSH1 0x20 PUSH1 0x40 MLOAD DUP1 DUP4 SUB DUP2 PUSH1 0x0 DUP8 GAS CALL ISZERO DUP1 ISZERO PUSH2 0xB0A JUMPI RETURNDATASIZE PUSH1 0x0 DUP1 RETURNDATACOPY RETURNDATASIZE PUSH1 0x0 REVERT JUMPDEST POP POP POP POP PUSH1 0x40 MLOAD RETURNDATASIZE PUSH1 0x1F NOT PUSH1 0x1F DUP3 ADD AND DUP3 ADD DUP1 PUSH1 0x40 MSTORE POP DUP2 ADD SWAP1 PUSH2 0xB2E SWAP2 SWAP1 PUSH2 0x48DC JUMP JUMPDEST CALLER PUSH1 0x0 SWAP1 DUP2 MSTORE PUSH1 0xA PUSH1 0x20 MSTORE PUSH1 0x40 SWAP1 KECCAK256 SLOAD SWAP1 SWAP2 POP PUSH2 0xB4B SWAP1 DUP3 PUSH2 0x1C90 JUMP JUMPDEST CALLER PUSH1 0x0 SWAP1 DUP2 MSTORE PUSH1 0xA PUSH1 0x20 MSTORE PUSH1 0x40 SWAP1 KECCAK256 SSTORE POP JUMP JUMPDEST PUSH1 0x0 PUSH2 0xB6B DUP5 DUP5 DUP5 PUSH2 0x2195 JUMP JUMPDEST PUSH2 0xBBD DUP5 CALLER PUSH2 0xBB8 DUP6 PUSH1 0x40 MLOAD DUP1 PUSH1 0x60 ADD PUSH1 0x40 MSTORE DUP1 PUSH1 0x26 DUP2 MSTORE PUSH1 0x20 ADD PUSH2 0x49C5 PUSH1 0x26 SWAP2 CODECOPY PUSH1 0x1 PUSH1 0x1 PUSH1 0xA0 SHL SUB DUP11 AND PUSH1 0x0 SWAP1 DUP2 MSTORE PUSH1 0xB PUSH1 0x20 SWAP1 DUP2 MSTORE PUSH1 0x40 DUP1 DUP4 KECCAK256 CALLER DUP5 MSTORE SWAP1 SWAP2 MSTORE SWAP1 KECCAK256 SLOAD SWAP2 SWAP1 PUSH2 0x1C51 JUMP JUMPDEST PUSH2 0x1C9C JUMP JUMPDEST POP PUSH1 0x1 SWAP4 SWAP3 POP POP POP JUMP JUMPDEST CALLER PUSH1 0x0 DUP2 DUP2 MSTORE PUSH1 0x1 PUSH1 0x20 SWAP1 DUP2 MSTORE PUSH1 0x40 DUP1 DUP4 KECCAK256 PUSH1 0x1 PUSH1 0x1 PUSH1 0xA0 SHL SUB DUP8 AND DUP5 MSTORE SWAP1 SWAP2 MSTORE DUP2 KECCAK256 SLOAD SWAP1 SWAP2 SWAP1 PUSH2 0xBBD SWAP1 DUP3 SWAP1 DUP7 SWAP1 PUSH2 0xBB8 SWAP1 DUP8 SWAP1 PUSH2 0x483E JUMP JUMPDEST PUSH1 0x28 PUSH1 0x0 SWAP1 SLOAD SWAP1 PUSH2 0x100 EXP SWAP1 DIV PUSH1 0x1 PUSH1 0x1 PUSH1 0xA0 SHL SUB AND PUSH1 0x1 PUSH1 0x1 PUSH1 0xA0 SHL SUB AND PUSH4 0x38AF3EED PUSH1 0x40 MLOAD DUP2 PUSH4 0xFFFFFFFF AND PUSH1 0xE0 SHL DUP2 MSTORE PUSH1 0x4 ADD PUSH1 0x20 PUSH1 0x40 MLOAD DUP1 DUP4 SUB DUP2 DUP7 GAS STATICCALL ISZERO DUP1 ISZERO PUSH2 0xC54 JUMPI RETURNDATASIZE PUSH1 0x0 DUP1 RETURNDATACOPY RETURNDATASIZE PUSH1 0x0 REVERT JUMPDEST POP POP POP POP PUSH1 0x40 MLOAD RETURNDATASIZE PUSH1 0x1F NOT PUSH1 0x1F DUP3 ADD AND DUP3 ADD DUP1 PUSH1 0x40 MSTORE POP DUP2 ADD SWAP1 PUSH2 0xC78 SWAP2 SWAP1 PUSH2 0x4856 JUMP JUMPDEST PUSH1 0x1 PUSH1 0x1 PUSH1 0xA0 SHL SUB AND CALLER PUSH1 0x1 PUSH1 0x1 PUSH1 0xA0 SHL SUB AND EQ PUSH2 0xCA8 JUMPI PUSH1 0x40 MLOAD PUSH3 0x461BCD PUSH1 0xE5 SHL DUP2 MSTORE PUSH1 0x4 ADD PUSH2 0x941 SWAP1 PUSH2 0x4873 JUMP JUMPDEST PUSH1 0x28 SLOAD PUSH1 0x0 SWAP1 PUSH1 0x1 PUSH1 0x1 PUSH1 0xA0 SHL SUB AND PUSH4 0xC8100DCC PUSH2 0xACF PUSH2 0x24E9 JUMP JUMPDEST PUSH2 0xCCE CALLER DUP3 PUSH2 0x27E2 JUMP JUMPDEST POP JUMP JUMPDEST PUSH1 0x26 PUSH1 0x0 SWAP1 SLOAD SWAP1 PUSH2 0x100 EXP SWAP1 DIV PUSH1 0x1 PUSH1 0x1 PUSH1 0xA0 SHL SUB AND PUSH1 0x1 PUSH1 0x1 PUSH1 0xA0 SHL SUB AND PUSH4 0x38AF3EED PUSH1 0x40 MLOAD DUP2 PUSH4 0xFFFFFFFF AND PUSH1 0xE0 SHL DUP2 MSTORE PUSH1 0x4 ADD PUSH1 0x20 PUSH1 0x40 MLOAD DUP1 DUP4 SUB DUP2 DUP7 GAS STATICCALL ISZERO DUP1 ISZERO PUSH2 0xD24 JUMPI RETURNDATASIZE PUSH1 0x0 DUP1 RETURNDATACOPY RETURNDATASIZE PUSH1 0x0 REVERT JUMPDEST POP POP POP POP PUSH1 0x40 MLOAD RETURNDATASIZE PUSH1 0x1F NOT PUSH1 0x1F DUP3 ADD AND DUP3 ADD DUP1 PUSH1 0x40 MSTORE POP DUP2 ADD SWAP1 PUSH2 0xD48 SWAP2 SWAP1 PUSH2 0x4856 JUMP JUMPDEST PUSH1 0x1 PUSH1 0x1 PUSH1 0xA0 SHL SUB AND CALLER PUSH1 0x1 PUSH1 0x1 PUSH1 0xA0 SHL SUB AND EQ PUSH2 0xD78 JUMPI PUSH1 0x40 MLOAD PUSH3 0x461BCD PUSH1 0xE5 SHL DUP2 MSTORE PUSH1 0x4 ADD PUSH2 0x941 SWAP1 PUSH2 0x4873 JUMP JUMPDEST PUSH1 0x26 SLOAD PUSH1 0x0 SWAP1 PUSH1 0x1 PUSH1 0x1 PUSH1 0xA0 SHL SUB AND PUSH4 0xC8100DCC PUSH2 0xACF PUSH2 0x2930 JUMP JUMPDEST PUSH1 0x5 SLOAD PUSH1 0x1 PUSH1 0x1 PUSH1 0xA0 SHL SUB AND CALLER EQ PUSH2 0xDBE JUMPI PUSH1 0x40 MLOAD PUSH3 0x461BCD PUSH1 0xE5 SHL DUP2 MSTORE PUSH1 0x4 ADD PUSH2 0x941 SWAP1 PUSH2 0x4758 JUMP JUMPDEST PUSH2 0xDC8 PUSH1 0x0 PUSH2 0x2BD4 JUMP JUMPDEST JUMP JUMPDEST PUSH2 0xDD5 DUP3 CALLER DUP4 PUSH2 0x2C26 JUMP JUMPDEST PUSH2 0xDDF DUP3 DUP3 PUSH2 0x27E2 JUMP JUMPDEST POP POP JUMP JUMPDEST DUP1 PUSH3 0x278D00 EQ DUP1 PUSH2 0xDF6 JUMPI POP DUP1 PUSH3 0x76A700 EQ JUMPDEST DUP1 PUSH2 0xE03 JUMPI POP DUP1 PUSH3 0xED4E00 EQ JUMPDEST DUP1 PUSH2 0xE11 JUMPI POP DUP1 PUSH4 0x1E13380 EQ JUMPDEST PUSH2 0xE69 JUMPI PUSH1 0x40 MLOAD PUSH3 0x461BCD PUSH1 0xE5 SHL DUP2 MSTORE PUSH1 0x20 PUSH1 0x4 DUP3 ADD MSTORE PUSH1 0x24 DUP1 DUP3 ADD MSTORE PUSH32 0x54616C6178546F6B656E3A205374616B696E67206F7074696F6E206E6F742065 PUSH1 0x44 DUP3 ADD MSTORE PUSH4 0x1E1A5CDD PUSH1 0xE2 SHL PUSH1 0x64 DUP3 ADD MSTORE PUSH1 0x84 ADD PUSH2 0x941 JUMP JUMPDEST CALLER PUSH1 0x0 SWAP1 DUP2 MSTORE PUSH1 0xA PUSH1 0x20 MSTORE PUSH1 0x40 SWAP1 KECCAK256 SLOAD DUP3 LT PUSH2 0xEDA JUMPI PUSH1 0x40 MLOAD PUSH3 0x461BCD PUSH1 0xE5 SHL DUP2 MSTORE PUSH1 0x20 PUSH1 0x4 DUP3 ADD MSTORE PUSH1 0x2A PUSH1 0x24 DUP3 ADD MSTORE PUSH32 0x54616C6178546F6B656E3A2043616E6E6F74207374616B65206D6F7265207468 PUSH1 0x44 DUP3 ADD MSTORE PUSH10 0x616E2062616C616E6365 PUSH1 0xB0 SHL PUSH1 0x64 DUP3 ADD MSTORE PUSH1 0x84 ADD PUSH2 0x941 JUMP JUMPDEST PUSH1 0x0 DUP2 DUP2 MSTORE PUSH1 0xC PUSH1 0x20 MSTORE PUSH1 0x40 SWAP1 KECCAK256 SLOAD PUSH2 0xEF6 SWAP1 DUP4 SWAP1 DUP4 SWAP1 PUSH2 0x2CB2 JUMP JUMPDEST PUSH2 0xF00 CALLER DUP4 PUSH2 0x27E2 JUMP JUMPDEST ADDRESS PUSH1 0x0 SWAP1 DUP2 MSTORE PUSH1 0xA PUSH1 0x20 MSTORE PUSH1 0x40 SWAP1 KECCAK256 SLOAD PUSH2 0xF1A SWAP1 DUP4 PUSH2 0x1C90 JUMP JUMPDEST POP POP POP JUMP JUMPDEST PUSH1 0x23 PUSH1 0x0 SWAP1 SLOAD SWAP1 PUSH2 0x100 EXP SWAP1 DIV PUSH1 0x1 PUSH1 0x1 PUSH1 0xA0 SHL SUB AND PUSH1 0x1 PUSH1 0x1 PUSH1 0xA0 SHL SUB AND PUSH4 0x38AF3EED PUSH1 0x40 MLOAD DUP2 PUSH4 0xFFFFFFFF AND PUSH1 0xE0 SHL DUP2 MSTORE PUSH1 0x4 ADD PUSH1 0x20 PUSH1 0x40 MLOAD DUP1 DUP4 SUB DUP2 DUP7 GAS STATICCALL ISZERO DUP1 ISZERO PUSH2 0xF72 JUMPI RETURNDATASIZE PUSH1 0x0 DUP1 RETURNDATACOPY RETURNDATASIZE PUSH1 0x0 REVERT JUMPDEST POP POP POP POP PUSH1 0x40 MLOAD RETURNDATASIZE PUSH1 0x1F NOT PUSH1 0x1F DUP3 ADD AND DUP3 ADD DUP1 PUSH1 0x40 MSTORE POP DUP2 ADD SWAP1 PUSH2 0xF96 SWAP2 SWAP1 PUSH2 0x4856 JUMP JUMPDEST PUSH1 0x1 PUSH1 0x1 PUSH1 0xA0 SHL SUB AND CALLER PUSH1 0x1 PUSH1 0x1 PUSH1 0xA0 SHL SUB AND EQ PUSH2 0xFC6 JUMPI PUSH1 0x40 MLOAD PUSH3 0x461BCD PUSH1 0xE5 SHL DUP2 MSTORE PUSH1 0x4 ADD PUSH2 0x941 SWAP1 PUSH2 0x4873 JUMP JUMPDEST PUSH1 0x23 SLOAD PUSH1 0x0 SWAP1 PUSH1 0x1 PUSH1 0x1 PUSH1 0xA0 SHL SUB AND PUSH4 0xC8100DCC PUSH2 0xACF PUSH2 0x1DCC JUMP JUMPDEST PUSH1 0x22 PUSH1 0x0 SWAP1 SLOAD SWAP1 PUSH2 0x100 EXP SWAP1 DIV PUSH1 0x1 PUSH1 0x1 PUSH1 0xA0 SHL SUB AND PUSH1 0x1 PUSH1 0x1 PUSH1 0xA0 SHL SUB AND PUSH4 0x38AF3EED PUSH1 0x40 MLOAD DUP2 PUSH4 0xFFFFFFFF AND PUSH1 0xE0 SHL DUP2 MSTORE PUSH1 0x4 ADD PUSH1 0x20 PUSH1 0x40 MLOAD DUP1 DUP4 SUB DUP2 DUP7 GAS STATICCALL ISZERO DUP1 ISZERO PUSH2 0x1035 JUMPI RETURNDATASIZE PUSH1 0x0 DUP1 RETURNDATACOPY RETURNDATASIZE PUSH1 0x0 REVERT JUMPDEST POP POP POP POP PUSH1 0x40 MLOAD RETURNDATASIZE PUSH1 0x1F NOT PUSH1 0x1F DUP3 ADD AND DUP3 ADD DUP1 PUSH1 0x40 MSTORE POP DUP2 ADD SWAP1 PUSH2 0x1059 SWAP2 SWAP1 PUSH2 0x4856 JUMP JUMPDEST PUSH1 0x1 PUSH1 0x1 PUSH1 0xA0 SHL SUB AND CALLER PUSH1 0x1 PUSH1 0x1 PUSH1 0xA0 SHL SUB AND EQ PUSH2 0x1089 JUMPI PUSH1 0x40 MLOAD PUSH3 0x461BCD PUSH1 0xE5 SHL DUP2 MSTORE PUSH1 0x4 ADD PUSH2 0x941 SWAP1 PUSH2 0x4873 JUMP JUMPDEST PUSH1 0x22 SLOAD PUSH1 0x0 SWAP1 PUSH1 0x1 PUSH1 0x1 PUSH1 0xA0 SHL SUB AND PUSH4 0xC8100DCC PUSH2 0xACF PUSH2 0x2E4E JUMP JUMPDEST PUSH1 0x25 PUSH1 0x0 SWAP1 SLOAD SWAP1 PUSH2 0x100 EXP SWAP1 DIV PUSH1 0x1 PUSH1 0x1 PUSH1 0xA0 SHL SUB AND PUSH1 0x1 PUSH1 0x1 PUSH1 0xA0 SHL SUB AND PUSH4 0x38AF3EED PUSH1 0x40 MLOAD DUP2 PUSH4 0xFFFFFFFF AND PUSH1 0xE0 SHL DUP2 MSTORE PUSH1 0x4 ADD PUSH1 0x20 PUSH1 0x40 MLOAD DUP1 DUP4 SUB DUP2 DUP7 GAS STATICCALL ISZERO DUP1 ISZERO PUSH2 0x10F8 JUMPI RETURNDATASIZE PUSH1 0x0 DUP1 RETURNDATACOPY RETURNDATASIZE PUSH1 0x0 REVERT JUMPDEST POP POP POP POP PUSH1 0x40 MLOAD RETURNDATASIZE PUSH1 0x1F NOT PUSH1 0x1F DUP3 ADD AND DUP3 ADD DUP1 PUSH1 0x40 MSTORE POP DUP2 ADD SWAP1 PUSH2 0x111C SWAP2 SWAP1 PUSH2 0x4856 JUMP JUMPDEST PUSH1 0x1 PUSH1 0x1 PUSH1 0xA0 SHL SUB AND CALLER PUSH1 0x1 PUSH1 0x1 PUSH1 0xA0 SHL SUB AND EQ PUSH2 0x114C JUMPI PUSH1 0x40 MLOAD PUSH3 0x461BCD PUSH1 0xE5 SHL DUP2 MSTORE PUSH1 0x4 ADD PUSH2 0x941 SWAP1 PUSH2 0x4873 JUMP JUMPDEST PUSH1 0x25 SLOAD PUSH1 0x0 SWAP1 PUSH1 0x1 PUSH1 0x1 PUSH1 0xA0 SHL SUB AND PUSH4 0xC8100DCC PUSH2 0xACF PUSH2 0x3210 JUMP JUMPDEST PUSH1 0x5 SLOAD PUSH1 0x1 PUSH1 0x1 PUSH1 0xA0 SHL SUB AND CALLER EQ PUSH2 0x1192 JUMPI PUSH1 0x40 MLOAD PUSH3 0x461BCD PUSH1 0xE5 SHL DUP2 MSTORE PUSH1 0x4 ADD PUSH2 0x941 SWAP1 PUSH2 0x4758 JUMP JUMPDEST PUSH1 0x9 SLOAD TIMESTAMP LT ISZERO PUSH2 0x11B4 JUMPI PUSH1 0x40 MLOAD PUSH3 0x461BCD PUSH1 0xE5 SHL DUP2 MSTORE PUSH1 0x4 ADD PUSH2 0x941 SWAP1 PUSH2 0x478D JUMP JUMPDEST PUSH1 0xD DUP1 SLOAD PUSH2 0xFFFF NOT AND PUSH2 0xFFFF DUP4 AND SWAP1 DUP2 OR SWAP1 SWAP2 SSTORE PUSH1 0x40 MLOAD SWAP1 DUP2 MSTORE CALLER SWAP1 PUSH32 0xDF92943B31FFF67E8447FF9FA8B5E226DDCC5FB34D36CFE120C0F2B96EB8D6F7 SWAP1 PUSH1 0x20 ADD PUSH1 0x40 MLOAD DUP1 SWAP2 SUB SWAP1 LOG2 PUSH2 0xA06 TIMESTAMP PUSH3 0x278D00 PUSH2 0x483E JUMP JUMPDEST PUSH1 0x0 PUSH2 0x121E PUSH1 0x5 SLOAD PUSH1 0x1 PUSH1 0x1 PUSH1 0xA0 SHL SUB AND SWAP1 JUMP JUMPDEST SWAP1 POP SWAP1 JUMP JUMPDEST PUSH1 0x5 SLOAD PUSH1 0x1 PUSH1 0x1 PUSH1 0xA0 SHL SUB AND CALLER EQ PUSH2 0x124D JUMPI PUSH1 0x40 MLOAD PUSH3 0x461BCD PUSH1 0xE5 SHL DUP2 MSTORE PUSH1 0x4 ADD PUSH2 0x941 SWAP1 PUSH2 0x4758 JUMP JUMPDEST PUSH1 0x9 SLOAD TIMESTAMP LT ISZERO PUSH2 0x126F JUMPI PUSH1 0x40 MLOAD PUSH3 0x461BCD PUSH1 0xE5 SHL DUP2 MSTORE PUSH1 0x4 ADD PUSH2 0x941 SWAP1 PUSH2 0x478D JUMP JUMPDEST PUSH2 0x1278 DUP2 PUSH2 0x35D2 JUMP JUMPDEST PUSH2 0xA06 TIMESTAMP PUSH3 0x278D00 PUSH2 0x483E JUMP JUMPDEST PUSH1 0x27 PUSH1 0x0 SWAP1 SLOAD SWAP1 PUSH2 0x100 EXP SWAP1 DIV PUSH1 0x1 PUSH1 0x1 PUSH1 0xA0 SHL SUB AND PUSH1 0x1 PUSH1 0x1 PUSH1 0xA0 SHL SUB AND PUSH4 0x38AF3EED PUSH1 0x40 MLOAD DUP2 PUSH4 0xFFFFFFFF AND PUSH1 0xE0 SHL DUP2 MSTORE PUSH1 0x4 ADD PUSH1 0x20 PUSH1 0x40 MLOAD DUP1 DUP4 SUB DUP2 DUP7 GAS STATICCALL ISZERO DUP1 ISZERO PUSH2 0x12D8 JUMPI RETURNDATASIZE PUSH1 0x0 DUP1 RETURNDATACOPY RETURNDATASIZE PUSH1 0x0 REVERT JUMPDEST POP POP POP POP PUSH1 0x40 MLOAD RETURNDATASIZE PUSH1 0x1F NOT PUSH1 0x1F DUP3 ADD AND DUP3 ADD DUP1 PUSH1 0x40 MSTORE POP DUP2 ADD SWAP1 PUSH2 0x12FC SWAP2 SWAP1 PUSH2 0x4856 JUMP JUMPDEST PUSH1 0x1 PUSH1 0x1 PUSH1 0xA0 SHL SUB AND CALLER PUSH1 0x1 PUSH1 0x1 PUSH1 0xA0 SHL SUB AND EQ PUSH2 0x132C JUMPI PUSH1 0x40 MLOAD PUSH3 0x461BCD PUSH1 0xE5 SHL DUP2 MSTORE PUSH1 0x4 ADD PUSH2 0x941 SWAP1 PUSH2 0x4873 JUMP JUMPDEST PUSH1 0x27 SLOAD PUSH1 0x0 SWAP1 PUSH1 0x1 PUSH1 0x1 PUSH1 0xA0 SHL SUB AND PUSH4 0xC8100DCC PUSH2 0xACF PUSH2 0x2930 JUMP JUMPDEST PUSH1 0x1F PUSH1 0x0 SWAP1 SLOAD SWAP1 PUSH2 0x100 EXP SWAP1 DIV PUSH1 0x1 PUSH1 0x1 PUSH1 0xA0 SHL SUB AND PUSH1 0x1 PUSH1 0x1 PUSH1 0xA0 SHL SUB AND PUSH4 0x38AF3EED PUSH1 0x40 MLOAD DUP2 PUSH4 0xFFFFFFFF AND PUSH1 0xE0 SHL DUP2 MSTORE PUSH1 0x4 ADD PUSH1 0x20 PUSH1 0x40 MLOAD DUP1 DUP4 SUB DUP2 DUP7 GAS STATICCALL ISZERO DUP1 ISZERO PUSH2 0x139B JUMPI RETURNDATASIZE PUSH1 0x0 DUP1 RETURNDATACOPY RETURNDATASIZE PUSH1 0x0 REVERT JUMPDEST POP POP POP POP PUSH1 0x40 MLOAD RETURNDATASIZE PUSH1 0x1F NOT PUSH1 0x1F DUP3 ADD AND DUP3 ADD DUP1 PUSH1 0x40 MSTORE POP DUP2 ADD SWAP1 PUSH2 0x13BF SWAP2 SWAP1 PUSH2 0x4856 JUMP JUMPDEST PUSH1 0x15 SLOAD PUSH1 0x1 PUSH1 0x1 PUSH1 0xA0 SHL SUB SWAP1 DUP2 AND SWAP2 AND EQ PUSH2 0x13EC JUMPI PUSH1 0x40 MLOAD PUSH3 0x461BCD PUSH1 0xE5 SHL DUP2 MSTORE PUSH1 0x4 ADD PUSH2 0x941 SWAP1 PUSH2 0x4873 JUMP JUMPDEST PUSH1 0x1F SLOAD PUSH1 0x0 SWAP1 PUSH1 0x1 PUSH1 0x1 PUSH1 0xA0 SHL SUB AND PUSH4 0xC8100DCC PUSH2 0xACF PUSH2 0x3675 JUMP JUMPDEST PUSH1 0x60 PUSH1 0x4 DUP1 SLOAD PUSH2 0x87D SWAP1 PUSH2 0x471D JUMP JUMPDEST PUSH1 0x5 SLOAD PUSH1 0x1 PUSH1 0x1 PUSH1 0xA0 SHL SUB AND CALLER EQ PUSH2 0x1441 JUMPI PUSH1 0x40 MLOAD PUSH3 0x461BCD PUSH1 0xE5 SHL DUP2 MSTORE PUSH1 0x4 ADD PUSH2 0x941 SWAP1 PUSH2 0x4758 JUMP JUMPDEST PUSH1 0x9 SLOAD TIMESTAMP LT ISZERO PUSH2 0x1463 JUMPI PUSH1 0x40 MLOAD PUSH3 0x461BCD PUSH1 0xE5 SHL DUP2 MSTORE PUSH1 0x4 ADD PUSH2 0x941 SWAP1 PUSH2 0x478D JUMP JUMPDEST DUP1 PUSH2 0x14AA JUMPI PUSH1 0x40 MLOAD PUSH3 0x461BCD PUSH1 0xE5 SHL DUP2 MSTORE PUSH1 0x20 PUSH1 0x4 DUP3 ADD MSTORE PUSH1 0x17 PUSH1 0x24 DUP3 ADD MSTORE PUSH23 0x416D6F756E74206D696E742063616E6E6F74206265203 PUSH1 0x4C SHL PUSH1 0x44 DUP3 ADD MSTORE PUSH1 0x64 ADD PUSH2 0x941 JUMP JUMPDEST PUSH1 0x11 SLOAD PUSH2 0x14B7 SWAP1 DUP3 PUSH2 0x1C90 JUMP JUMPDEST PUSH1 0x11 SSTORE PUSH1 0xE SLOAD PUSH2 0x9F6 SWAP1 DUP3 PUSH2 0x1C90 JUMP JUMPDEST CALLER PUSH1 0x0 DUP2 DUP2 MSTORE PUSH1 0x1 PUSH1 0x20 SWAP1 DUP2 MSTORE PUSH1 0x40 DUP1 DUP4 KECCAK256 PUSH1 0x1 PUSH1 0x1 PUSH1 0xA0 SHL SUB DUP8 AND DUP5 MSTORE SWAP1 SWAP2 MSTORE DUP2 KECCAK256 SLOAD SWAP1 SWAP2 SWAP1 DUP4 DUP2 LT ISZERO PUSH2 0x154C JUMPI PUSH1 0x40 MLOAD PUSH3 0x461BCD PUSH1 0xE5 SHL DUP2 MSTORE PUSH1 0x20 PUSH1 0x4 DUP3 ADD MSTORE PUSH1 0x25 PUSH1 0x24 DUP3 ADD MSTORE PUSH32 0x45524332303A2064656372656173656420616C6C6F77616E63652062656C6F77 PUSH1 0x44 DUP3 ADD MSTORE PUSH5 0x207A65726F PUSH1 0xD8 SHL PUSH1 0x64 DUP3 ADD MSTORE PUSH1 0x84 ADD PUSH2 0x941 JUMP JUMPDEST PUSH2 0x1559 DUP3 DUP7 DUP7 DUP5 SUB PUSH2 0x1C9C JUMP JUMPDEST POP PUSH1 0x1 SWAP5 SWAP4 POP POP POP POP JUMP JUMPDEST PUSH1 0x0 PUSH2 0x90D CALLER DUP5 DUP5 PUSH2 0x2195 JUMP JUMPDEST PUSH1 0x40 DUP1 MLOAD DUP1 DUP3 ADD SWAP1 SWAP2 MSTORE PUSH1 0x0 DUP2 MSTORE PUSH1 0x60 PUSH1 0x20 DUP3 ADD MSTORE PUSH1 0x0 PUSH1 0x40 MLOAD DUP1 PUSH1 0x40 ADD PUSH1 0x40 MSTORE DUP1 PUSH1 0x0 DUP2 MSTORE PUSH1 0x20 ADD PUSH1 0x7 PUSH1 0x8 PUSH1 0x0 DUP8 PUSH1 0x1 PUSH1 0x1 PUSH1 0xA0 SHL SUB AND PUSH1 0x1 PUSH1 0x1 PUSH1 0xA0 SHL SUB AND DUP2 MSTORE PUSH1 0x20 ADD SWAP1 DUP2 MSTORE PUSH1 0x20 ADD PUSH1 0x0 KECCAK256 SLOAD DUP2 SLOAD DUP2 LT PUSH2 0x15D2 JUMPI PUSH2 0x15D2 PUSH2 0x48F5 JUMP JUMPDEST SWAP1 PUSH1 0x0 MSTORE PUSH1 0x20 PUSH1 0x0 KECCAK256 SWAP1 PUSH1 0x2 MUL ADD PUSH1 0x1 ADD DUP1 SLOAD DUP1 PUSH1 0x20 MUL PUSH1 0x20 ADD PUSH1 0x40 MLOAD SWAP1 DUP2 ADD PUSH1 0x40 MSTORE DUP1 SWAP3 SWAP2 SWAP1 DUP2 DUP2 MSTORE PUSH1 0x20 ADD PUSH1 0x0 SWAP1 JUMPDEST DUP3 DUP3 LT ISZERO PUSH2 0x1674 JUMPI PUSH1 0x0 DUP5 DUP2 MSTORE PUSH1 0x20 SWAP1 DUP2 SWAP1 KECCAK256 PUSH1 0x40 DUP1 MLOAD PUSH1 0xC0 DUP2 ADD DUP3 MSTORE PUSH1 0x6 DUP7 MUL SWAP1 SWAP3 ADD DUP1 SLOAD PUSH1 0x1 PUSH1 0x1 PUSH1 0xA0 SHL SUB AND DUP4 MSTORE PUSH1 0x1 DUP1 DUP3 ADD SLOAD DUP5 DUP7 ADD MSTORE PUSH1 0x2 DUP3 ADD SLOAD SWAP3 DUP5 ADD SWAP3 SWAP1 SWAP3 MSTORE PUSH1 0x3 DUP2 ADD SLOAD PUSH1 0x60 DUP5 ADD MSTORE PUSH1 0x4 DUP2 ADD SLOAD PUSH1 0x80 DUP5 ADD MSTORE PUSH1 0x5 ADD SLOAD PUSH1 0xA0 DUP4 ADD MSTORE SWAP1 DUP4 MSTORE SWAP1 SWAP3 ADD SWAP2 ADD PUSH2 0x1603 JUMP JUMPDEST POP POP POP SWAP2 MSTORE POP SWAP4 SWAP3 POP POP POP JUMP JUMPDEST PUSH1 0x20 DUP1 SLOAD PUSH1 0x40 DUP1 MLOAD PUSH4 0x38AF3EED PUSH1 0xE0 SHL DUP2 MSTORE SWAP1 MLOAD PUSH1 0x1 PUSH1 0x1 PUSH1 0xA0 SHL SUB SWAP1 SWAP3 AND SWAP3 PUSH4 0x38AF3EED SWAP3 PUSH1 0x4 DUP1 DUP5 ADD SWAP4 DUP3 SWAP1 SUB ADD DUP2 DUP7 GAS STATICCALL ISZERO DUP1 ISZERO PUSH2 0x16C6 JUMPI RETURNDATASIZE PUSH1 0x0 DUP1 RETURNDATACOPY RETURNDATASIZE PUSH1 0x0 REVERT JUMPDEST POP POP POP POP PUSH1 0x40 MLOAD RETURNDATASIZE PUSH1 0x1F NOT PUSH1 0x1F DUP3 ADD AND DUP3 ADD DUP1 PUSH1 0x40 MSTORE POP DUP2 ADD SWAP1 PUSH2 0x16EA SWAP2 SWAP1 PUSH2 0x4856 JUMP JUMPDEST PUSH1 0x1 PUSH1 0x1 PUSH1 0xA0 SHL SUB AND CALLER PUSH1 0x1 PUSH1 0x1 PUSH1 0xA0 SHL SUB AND EQ PUSH2 0x171A JUMPI PUSH1 0x40 MLOAD PUSH3 0x461BCD PUSH1 0xE5 SHL DUP2 MSTORE PUSH1 0x4 ADD PUSH2 0x941 SWAP1 PUSH2 0x4873 JUMP JUMPDEST PUSH1 0x20 SLOAD PUSH1 0x0 SWAP1 PUSH1 0x1 PUSH1 0x1 PUSH1 0xA0 SHL SUB AND PUSH4 0xC8100DCC PUSH2 0xACF PUSH2 0x38B5 JUMP JUMPDEST PUSH1 0x40 MLOAD PUSH4 0x70A08231 PUSH1 0xE0 SHL DUP2 MSTORE ADDRESS PUSH1 0x4 DUP3 ADD DUP2 SWAP1 MSTORE PUSH1 0x0 SWAP2 PUSH4 0x70A08231 SWAP1 PUSH1 0x24 ADD PUSH1 0x20 PUSH1 0x40 MLOAD DUP1 DUP4 SUB DUP2 DUP7 GAS STATICCALL ISZERO DUP1 ISZERO PUSH2 0x1774 JUMPI RETURNDATASIZE PUSH1 0x0 DUP1 RETURNDATACOPY RETURNDATASIZE PUSH1 0x0 REVERT JUMPDEST POP POP POP POP PUSH1 0x40 MLOAD RETURNDATASIZE PUSH1 0x1F NOT PUSH1 0x1F DUP3 ADD AND DUP3 ADD DUP1 PUSH1 0x40 MSTORE POP DUP2 ADD SWAP1 PUSH2 0x121E SWAP2 SWAP1 PUSH2 0x48DC JUMP JUMPDEST PUSH1 0x5 SLOAD PUSH1 0x1 PUSH1 0x1 PUSH1 0xA0 SHL SUB AND CALLER EQ PUSH2 0x17C2 JUMPI PUSH1 0x40 MLOAD PUSH3 0x461BCD PUSH1 0xE5 SHL DUP2 MSTORE PUSH1 0x4 ADD PUSH2 0x941 SWAP1 PUSH2 0x4758 JUMP JUMPDEST PUSH1 0x9 SLOAD TIMESTAMP LT ISZERO PUSH2 0x17E4 JUMPI PUSH1 0x40 MLOAD PUSH3 0x461BCD PUSH1 0xE5 SHL DUP2 MSTORE PUSH1 0x4 ADD PUSH2 0x941 SWAP1 PUSH2 0x478D JUMP JUMPDEST PUSH2 0x1278 DUP2 PUSH2 0x3C77 JUMP JUMPDEST PUSH1 0x40 DUP1 MLOAD DUP1 DUP3 ADD SWAP1 SWAP2 MSTORE PUSH1 0x0 DUP2 MSTORE PUSH1 0x60 PUSH1 0x20 DUP3 ADD MSTORE PUSH1 0x0 DUP1 PUSH1 0x40 MLOAD DUP1 PUSH1 0x40 ADD PUSH1 0x40 MSTORE DUP1 PUSH1 0x0 DUP2 MSTORE PUSH1 0x20 ADD PUSH1 0x7 PUSH1 0x8 PUSH1 0x0 DUP9 PUSH1 0x1 PUSH1 0x1 PUSH1 0xA0 SHL SUB AND PUSH1 0x1 PUSH1 0x1 PUSH1 0xA0 SHL SUB AND DUP2 MSTORE PUSH1 0x20 ADD SWAP1 DUP2 MSTORE PUSH1 0x20 ADD PUSH1 0x0 KECCAK256 SLOAD DUP2 SLOAD DUP2 LT PUSH2 0x184F JUMPI PUSH2 0x184F PUSH2 0x48F5 JUMP JUMPDEST SWAP1 PUSH1 0x0 MSTORE PUSH1 0x20 PUSH1 0x0 KECCAK256 SWAP1 PUSH1 0x2 MUL ADD PUSH1 0x1 ADD DUP1 SLOAD DUP1 PUSH1 0x20 MUL PUSH1 0x20 ADD PUSH1 0x40 MLOAD SWAP1 DUP2 ADD PUSH1 0x40 MSTORE DUP1 SWAP3 SWAP2 SWAP1 DUP2 DUP2 MSTORE PUSH1 0x20 ADD PUSH1 0x0 SWAP1 JUMPDEST DUP3 DUP3 LT ISZERO PUSH2 0x18F1 JUMPI PUSH1 0x0 DUP5 DUP2 MSTORE PUSH1 0x20 SWAP1 DUP2 SWAP1 KECCAK256 PUSH1 0x40 DUP1 MLOAD PUSH1 0xC0 DUP2 ADD DUP3 MSTORE PUSH1 0x6 DUP7 MUL SWAP1 SWAP3 ADD DUP1 SLOAD PUSH1 0x1 PUSH1 0x1 PUSH1 0xA0 SHL SUB AND DUP4 MSTORE PUSH1 0x1 DUP1 DUP3 ADD SLOAD DUP5 DUP7 ADD MSTORE PUSH1 0x2 DUP3 ADD SLOAD SWAP3 DUP5 ADD SWAP3 SWAP1 SWAP3 MSTORE PUSH1 0x3 DUP2 ADD SLOAD PUSH1 0x60 DUP5 ADD MSTORE PUSH1 0x4 DUP2 ADD SLOAD PUSH1 0x80 DUP5 ADD MSTORE PUSH1 0x5 ADD SLOAD PUSH1 0xA0 DUP4 ADD MSTORE SWAP1 DUP4 MSTORE SWAP1 SWAP3 ADD SWAP2 ADD PUSH2 0x1880 JUMP JUMPDEST POP POP POP SWAP2 MSTORE POP PUSH1 0x20 DUP2 ADD MLOAD MLOAD SWAP1 SWAP2 POP PUSH2 0x1964 JUMPI PUSH1 0x40 MLOAD PUSH3 0x461BCD PUSH1 0xE5 SHL DUP2 MSTORE PUSH1 0x20 PUSH1 0x4 DUP3 ADD MSTORE PUSH1 0x2F PUSH1 0x24 DUP3 ADD MSTORE PUSH32 0x5374616B61626C653A2054686973206164647265737320646F6573206E6F7420 PUSH1 0x44 DUP3 ADD MSTORE PUSH15 0x6861766520616E79207374616B6573 PUSH1 0x88 SHL PUSH1 0x64 DUP3 ADD MSTORE PUSH1 0x84 ADD PUSH2 0x941 JUMP JUMPDEST PUSH1 0x0 JUMPDEST DUP2 PUSH1 0x20 ADD MLOAD MLOAD DUP2 LT ISZERO PUSH2 0x1A2A JUMPI PUSH1 0x0 PUSH2 0x19BE DUP4 PUSH1 0x20 ADD MLOAD DUP4 DUP2 MLOAD DUP2 LT PUSH2 0x198F JUMPI PUSH2 0x198F PUSH2 0x48F5 JUMP JUMPDEST PUSH1 0x20 MUL PUSH1 0x20 ADD ADD MLOAD DUP5 PUSH1 0x20 ADD MLOAD DUP5 DUP2 MLOAD DUP2 LT PUSH2 0x19AD JUMPI PUSH2 0x19AD PUSH2 0x48F5 JUMP JUMPDEST PUSH1 0x20 MUL PUSH1 0x20 ADD ADD MLOAD PUSH1 0x20 ADD MLOAD PUSH2 0x3D41 JUMP JUMPDEST SWAP1 POP DUP1 DUP4 PUSH1 0x20 ADD MLOAD DUP4 DUP2 MLOAD DUP2 LT PUSH2 0x19D7 JUMPI PUSH2 0x19D7 PUSH2 0x48F5 JUMP JUMPDEST PUSH1 0x20 MUL PUSH1 0x20 ADD ADD MLOAD PUSH1 0x60 ADD DUP2 DUP2 MSTORE POP POP DUP3 PUSH1 0x20 ADD MLOAD DUP3 DUP2 MLOAD DUP2 LT PUSH2 0x19FD JUMPI PUSH2 0x19FD PUSH2 0x48F5 JUMP JUMPDEST PUSH1 0x20 MUL PUSH1 0x20 ADD ADD MLOAD PUSH1 0x20 ADD MLOAD DUP5 PUSH2 0x1A14 SWAP2 SWAP1 PUSH2 0x483E JUMP JUMPDEST SWAP4 POP PUSH2 0x1A23 SWAP1 POP PUSH1 0x1 DUP3 PUSH2 0x483E JUMP JUMPDEST SWAP1 POP PUSH2 0x1967 JUMP JUMPDEST POP SWAP1 DUP2 MSTORE SWAP3 SWAP2 POP POP JUMP JUMPDEST PUSH1 0x21 PUSH1 0x0 SWAP1 SLOAD SWAP1 PUSH2 0x100 EXP SWAP1 DIV PUSH1 0x1 PUSH1 0x1 PUSH1 0xA0 SHL SUB AND PUSH1 0x1 PUSH1 0x1 PUSH1 0xA0 SHL SUB AND PUSH4 0x38AF3EED PUSH1 0x40 MLOAD DUP2 PUSH4 0xFFFFFFFF AND PUSH1 0xE0 SHL DUP2 MSTORE PUSH1 0x4 ADD PUSH1 0x20 PUSH1 0x40 MLOAD DUP1 DUP4 SUB DUP2 DUP7 GAS STATICCALL ISZERO DUP1 ISZERO PUSH2 0x1A87 JUMPI RETURNDATASIZE PUSH1 0x0 DUP1 RETURNDATACOPY RETURNDATASIZE PUSH1 0x0 REVERT JUMPDEST POP POP POP POP PUSH1 0x40 MLOAD RETURNDATASIZE PUSH1 0x1F NOT PUSH1 0x1F DUP3 ADD AND DUP3 ADD DUP1 PUSH1 0x40 MSTORE POP DUP2 ADD SWAP1 PUSH2 0x1AAB SWAP2 SWAP1 PUSH2 0x4856 JUMP JUMPDEST PUSH1 0x1 PUSH1 0x1 PUSH1 0xA0 SHL SUB AND CALLER PUSH1 0x1 PUSH1 0x1 PUSH1 0xA0 SHL SUB AND EQ PUSH2 0x1ADB JUMPI PUSH1 0x40 MLOAD PUSH3 0x461BCD PUSH1 0xE5 SHL DUP2 MSTORE PUSH1 0x4 ADD PUSH2 0x941 SWAP1 PUSH2 0x4873 JUMP JUMPDEST PUSH1 0x21 SLOAD PUSH1 0x0 SWAP1 PUSH1 0x1 PUSH1 0x1 PUSH1 0xA0 SHL SUB AND PUSH4 0xC8100DCC PUSH2 0xACF PUSH2 0x38B5 JUMP JUMPDEST PUSH1 0x0 DUP1 PUSH2 0x1B04 DUP5 DUP5 PUSH2 0x3D94 JUMP JUMPDEST SWAP2 POP SWAP2 POP PUSH2 0x1B11 DUP2 PUSH2 0x3C77 JUMP JUMPDEST ADDRESS PUSH1 0x0 SWAP1 DUP2 MSTORE PUSH1 0xA PUSH1 0x20 MSTORE PUSH1 0x40 SWAP1 KECCAK256 SLOAD PUSH2 0x1B2B SWAP1 DUP4 PUSH2 0x1DC0 JUMP JUMPDEST POP ADDRESS PUSH1 0x0 SWAP1 DUP2 MSTORE PUSH1 0xA PUSH1 0x20 MSTORE PUSH1 0x40 SWAP1 KECCAK256 SLOAD PUSH2 0x1B46 SWAP1 DUP3 PUSH2 0x1DC0 JUMP JUMPDEST POP PUSH2 0x1B5B CALLER JUMPDEST PUSH2 0x1B56 DUP4 DUP6 PUSH2 0x483E JUMP JUMPDEST PUSH2 0x4082 JUMP JUMPDEST POP POP POP POP JUMP JUMPDEST PUSH1 0x5 SLOAD PUSH1 0x1 PUSH1 0x1 PUSH1 0xA0 SHL SUB AND CALLER EQ PUSH2 0x1B8B JUMPI PUSH1 0x40 MLOAD PUSH3 0x461BCD PUSH1 0xE5 SHL DUP2 MSTORE PUSH1 0x4 ADD PUSH2 0x941 SWAP1 PUSH2 0x4758 JUMP JUMPDEST PUSH1 0x1 PUSH1 0x1 PUSH1 0xA0 SHL SUB DUP2 AND PUSH2 0x1BF0 JUMPI PUSH1 0x40 MLOAD PUSH3 0x461BCD PUSH1 0xE5 SHL DUP2 MSTORE PUSH1 0x20 PUSH1 0x4 DUP3 ADD MSTORE PUSH1 0x26 PUSH1 0x24 DUP3 ADD MSTORE PUSH32 0x4F776E61626C653A206E6577206F776E657220697320746865207A65726F2061 PUSH1 0x44 DUP3 ADD MSTORE PUSH6 0x646472657373 PUSH1 0xD0 SHL PUSH1 0x64 DUP3 ADD MSTORE PUSH1 0x84 ADD PUSH2 0x941 JUMP JUMPDEST PUSH2 0xCCE DUP2 PUSH2 0x2BD4 JUMP JUMPDEST PUSH1 0x0 DUP1 PUSH2 0x1C05 DUP4 PUSH2 0x4161 JUMP JUMPDEST SWAP2 POP SWAP2 POP PUSH2 0x1C12 DUP2 PUSH2 0x3C77 JUMP JUMPDEST ADDRESS PUSH1 0x0 SWAP1 DUP2 MSTORE PUSH1 0xA PUSH1 0x20 MSTORE PUSH1 0x40 SWAP1 KECCAK256 SLOAD PUSH2 0x1C2C SWAP1 DUP4 PUSH2 0x1DC0 JUMP JUMPDEST POP ADDRESS PUSH1 0x0 SWAP1 DUP2 MSTORE PUSH1 0xA PUSH1 0x20 MSTORE PUSH1 0x40 SWAP1 KECCAK256 SLOAD PUSH2 0x1C47 SWAP1 DUP3 PUSH2 0x1DC0 JUMP JUMPDEST POP PUSH2 0xF1A CALLER PUSH2 0x1B4C JUMP JUMPDEST PUSH1 0x0 DUP2 DUP5 DUP5 GT ISZERO PUSH2 0x1C75 JUMPI PUSH1 0x40 MLOAD PUSH3 0x461BCD PUSH1 0xE5 SHL DUP2 MSTORE PUSH1 0x4 ADD PUSH2 0x941 SWAP2 SWAP1 PUSH2 0x44FB JUMP JUMPDEST POP POP POP SWAP1 SUB SWAP1 JUMP JUMPDEST PUSH1 0x0 PUSH2 0x1C89 DUP3 DUP5 PUSH2 0x4921 JUMP JUMPDEST SWAP4 SWAP3 POP POP POP JUMP JUMPDEST PUSH1 0x0 PUSH2 0x1C89 DUP3 DUP5 PUSH2 0x483E JUMP JUMPDEST PUSH1 0x1 PUSH1 0x1 PUSH1 0xA0 SHL SUB DUP4 AND PUSH2 0x1CFE JUMPI PUSH1 0x40 MLOAD PUSH3 0x461BCD PUSH1 0xE5 SHL DUP2 MSTORE PUSH1 0x20 PUSH1 0x4 DUP3 ADD MSTORE PUSH1 0x24 DUP1 DUP3 ADD MSTORE PUSH32 0x45524332303A20617070726F76652066726F6D20746865207A65726F20616464 PUSH1 0x44 DUP3 ADD MSTORE PUSH4 0x72657373 PUSH1 0xE0 SHL PUSH1 0x64 DUP3 ADD MSTORE PUSH1 0x84 ADD PUSH2 0x941 JUMP JUMPDEST PUSH1 0x1 PUSH1 0x1 PUSH1 0xA0 SHL SUB DUP3 AND PUSH2 0x1D5F JUMPI PUSH1 0x40 MLOAD PUSH3 0x461BCD PUSH1 0xE5 SHL DUP2 MSTORE PUSH1 0x20 PUSH1 0x4 DUP3 ADD MSTORE PUSH1 0x22 PUSH1 0x24 DUP3 ADD MSTORE PUSH32 0x45524332303A20617070726F766520746F20746865207A65726F206164647265 PUSH1 0x44 DUP3 ADD MSTORE PUSH2 0x7373 PUSH1 0xF0 SHL PUSH1 0x64 DUP3 ADD MSTORE PUSH1 0x84 ADD PUSH2 0x941 JUMP JUMPDEST PUSH1 0x1 PUSH1 0x1 PUSH1 0xA0 SHL SUB DUP4 DUP2 AND PUSH1 0x0 DUP2 DUP2 MSTORE PUSH1 0x1 PUSH1 0x20 SWAP1 DUP2 MSTORE PUSH1 0x40 DUP1 DUP4 KECCAK256 SWAP5 DUP8 AND DUP1 DUP5 MSTORE SWAP5 DUP3 MSTORE SWAP2 DUP3 SWAP1 KECCAK256 DUP6 SWAP1 SSTORE SWAP1 MLOAD DUP5 DUP2 MSTORE PUSH32 0x8C5BE1E5EBEC7D5BD14F71427D1E84F3DD0314C0F7B2291E5B200AC8C7C3B925 SWAP2 ADD PUSH1 0x40 MLOAD DUP1 SWAP2 SUB SWAP1 LOG3 POP POP POP JUMP JUMPDEST PUSH1 0x0 PUSH2 0x1C89 DUP3 DUP5 PUSH2 0x4943 JUMP JUMPDEST PUSH2 0x1DD4 PUSH2 0x44DC JUMP JUMPDEST PUSH1 0x40 MLOAD DUP1 PUSH2 0x560 ADD PUSH1 0x40 MSTORE DUP1 PUSH2 0x1DF5 PUSH3 0x51615 PUSH8 0xDE0B6B3A7640000 PUSH2 0x433C JUMP JUMPDEST DUP2 MSTORE PUSH1 0x20 ADD PUSH1 0x0 DUP2 MSTORE PUSH1 0x20 ADD PUSH1 0x0 DUP2 MSTORE PUSH1 0x20 ADD PUSH1 0x0 DUP2 MSTORE PUSH1 0x20 ADD PUSH2 0x1E24 PUSH3 0x51615 PUSH8 0xDE0B6B3A7640000 PUSH2 0x433C JUMP JUMPDEST DUP2 MSTORE PUSH1 0x20 ADD PUSH1 0x0 DUP2 MSTORE PUSH1 0x20 ADD PUSH1 0x0 DUP2 MSTORE PUSH1 0x20 ADD PUSH2 0x1E4C PUSH3 0x51615 PUSH8 0xDE0B6B3A7640000 PUSH2 0x433C JUMP JUMPDEST DUP2 MSTORE PUSH1 0x20 ADD PUSH1 0x0 DUP2 MSTORE PUSH1 0x20 ADD PUSH1 0x0 DUP2 MSTORE PUSH1 0x20 ADD PUSH2 0x1E74 PUSH3 0x51615 PUSH8 0xDE0B6B3A7640000 PUSH2 0x433C JUMP JUMPDEST DUP2 MSTORE PUSH1 0x20 ADD PUSH1 0x0 DUP2 MSTORE PUSH1 0x20 ADD PUSH1 0x0 DUP2 MSTORE PUSH1 0x20 ADD PUSH2 0x1E9C PUSH3 0x11A1E PUSH8 0xDE0B6B3A7640000 PUSH2 0x433C JUMP JUMPDEST DUP2 MSTORE PUSH1 0x20 ADD PUSH2 0x1EB6 PUSH3 0x11A1E PUSH8 0xDE0B6B3A7640000 PUSH2 0x433C JUMP JUMPDEST DUP2 MSTORE PUSH1 0x20 ADD PUSH2 0x1ED0 PUSH3 0x11A1E PUSH8 0xDE0B6B3A7640000 PUSH2 0x433C JUMP JUMPDEST DUP2 MSTORE PUSH1 0x20 ADD PUSH2 0x1EEA PUSH3 0x11A1E PUSH8 0xDE0B6B3A7640000 PUSH2 0x433C JUMP JUMPDEST DUP2 MSTORE PUSH1 0x20 ADD PUSH2 0x1F04 PUSH3 0x11A1E PUSH8 0xDE0B6B3A7640000 PUSH2 0x433C JUMP JUMPDEST DUP2 MSTORE PUSH1 0x20 ADD PUSH2 0x1F1E PUSH3 0x11A1E PUSH8 0xDE0B6B3A7640000 PUSH2 0x433C JUMP JUMPDEST DUP2 MSTORE PUSH1 0x20 ADD PUSH2 0x1F38 PUSH3 0x11A1E PUSH8 0xDE0B6B3A7640000 PUSH2 0x433C JUMP JUMPDEST DUP2 MSTORE PUSH1 0x20 ADD PUSH2 0x1F52 PUSH3 0x11A1E PUSH8 0xDE0B6B3A7640000 PUSH2 0x433C JUMP JUMPDEST DUP2 MSTORE PUSH1 0x20 ADD PUSH2 0x1F6C PUSH3 0x11A1E PUSH8 0xDE0B6B3A7640000 PUSH2 0x433C JUMP JUMPDEST DUP2 MSTORE PUSH1 0x20 ADD PUSH2 0x1F86 PUSH3 0x11A1E PUSH8 0xDE0B6B3A7640000 PUSH2 0x433C JUMP JUMPDEST DUP2 MSTORE PUSH1 0x20 ADD PUSH2 0x1FA0 PUSH3 0x11A1E PUSH8 0xDE0B6B3A7640000 PUSH2 0x433C JUMP JUMPDEST DUP2 MSTORE PUSH1 0x20 ADD PUSH2 0x1FBA PUSH3 0x11A1E PUSH8 0xDE0B6B3A7640000 PUSH2 0x433C JUMP JUMPDEST DUP2 MSTORE PUSH1 0x20 ADD PUSH2 0x1FD4 PUSH3 0x11A1E PUSH8 0xDE0B6B3A7640000 PUSH2 0x433C JUMP JUMPDEST DUP2 MSTORE PUSH1 0x20 ADD PUSH2 0x1FEE PUSH3 0x11A1E PUSH8 0xDE0B6B3A7640000 PUSH2 0x433C JUMP JUMPDEST DUP2 MSTORE PUSH1 0x20 ADD PUSH2 0x2008 PUSH3 0x11A1E PUSH8 0xDE0B6B3A7640000 PUSH2 0x433C JUMP JUMPDEST DUP2 MSTORE PUSH1 0x20 ADD PUSH2 0x2022 PUSH3 0x11A1E PUSH8 0xDE0B6B3A7640000 PUSH2 0x433C JUMP JUMPDEST DUP2 MSTORE PUSH1 0x20 ADD PUSH2 0x203C PUSH3 0x11A1E PUSH8 0xDE0B6B3A7640000 PUSH2 0x433C JUMP JUMPDEST DUP2 MSTORE PUSH1 0x20 ADD PUSH2 0x2056 PUSH3 0x11A1E PUSH8 0xDE0B6B3A7640000 PUSH2 0x433C JUMP JUMPDEST DUP2 MSTORE PUSH1 0x20 ADD PUSH2 0x2070 PUSH3 0x11A1E PUSH8 0xDE0B6B3A7640000 PUSH2 0x433C JUMP JUMPDEST DUP2 MSTORE PUSH1 0x20 ADD PUSH2 0x208A PUSH3 0x11A1E PUSH8 0xDE0B6B3A7640000 PUSH2 0x433C JUMP JUMPDEST DUP2 MSTORE PUSH1 0x20 ADD PUSH2 0x20A4 PUSH3 0x11A1E PUSH8 0xDE0B6B3A7640000 PUSH2 0x433C JUMP JUMPDEST DUP2 MSTORE PUSH1 0x20 ADD PUSH2 0x20BE PUSH3 0x11A1E PUSH8 0xDE0B6B3A7640000 PUSH2 0x433C JUMP JUMPDEST DUP2 MSTORE PUSH1 0x20 ADD PUSH2 0x20D8 PUSH3 0x11A1E PUSH8 0xDE0B6B3A7640000 PUSH2 0x433C JUMP JUMPDEST DUP2 MSTORE PUSH1 0x20 ADD PUSH2 0x20F2 PUSH3 0x11A1E PUSH8 0xDE0B6B3A7640000 PUSH2 0x433C JUMP JUMPDEST DUP2 MSTORE PUSH1 0x20 ADD PUSH2 0x210C PUSH3 0x11A1E PUSH8 0xDE0B6B3A7640000 PUSH2 0x433C JUMP JUMPDEST DUP2 MSTORE PUSH1 0x20 ADD PUSH2 0x2126 PUSH3 0x11A1E PUSH8 0xDE0B6B3A7640000 PUSH2 0x433C JUMP JUMPDEST DUP2 MSTORE PUSH1 0x20 ADD PUSH2 0x2140 PUSH3 0x11A1E PUSH8 0xDE0B6B3A7640000 PUSH2 0x433C JUMP JUMPDEST DUP2 MSTORE PUSH1 0x20 ADD PUSH2 0x215A PUSH3 0x11A1E PUSH8 0xDE0B6B3A7640000 PUSH2 0x433C JUMP JUMPDEST DUP2 MSTORE PUSH1 0x20 ADD PUSH2 0x2174 PUSH3 0x11A1E PUSH8 0xDE0B6B3A7640000 PUSH2 0x433C JUMP JUMPDEST DUP2 MSTORE PUSH1 0x20 ADD PUSH2 0x218E PUSH3 0x11A1E PUSH8 0xDE0B6B3A7640000 PUSH2 0x433C JUMP JUMPDEST SWAP1 MSTORE SWAP2 SWAP1 POP JUMP JUMPDEST PUSH1 0x1 PUSH1 0x1 PUSH1 0xA0 SHL SUB DUP4 AND PUSH2 0x21EB JUMPI PUSH1 0x40 MLOAD PUSH3 0x461BCD PUSH1 0xE5 SHL DUP2 MSTORE PUSH1 0x20 PUSH1 0x4 DUP3 ADD MSTORE PUSH1 0x1F PUSH1 0x24 DUP3 ADD MSTORE PUSH32 0x54616C6178546F6B656E3A2073656E646572207A65726F206164647265737300 PUSH1 0x44 DUP3 ADD MSTORE PUSH1 0x64 ADD PUSH2 0x941 JUMP JUMPDEST PUSH1 0x1 PUSH1 0x1 PUSH1 0xA0 SHL SUB DUP3 AND PUSH2 0x224C JUMPI PUSH1 0x40 MLOAD PUSH3 0x461BCD PUSH1 0xE5 SHL DUP2 MSTORE PUSH1 0x20 PUSH1 0x4 DUP3 ADD MSTORE PUSH1 0x22 PUSH1 0x24 DUP3 ADD MSTORE PUSH32 0x54616C6178546F6B656E3A20726563697069656E74207A65726F206164647265 PUSH1 0x44 DUP3 ADD MSTORE PUSH2 0x7373 PUSH1 0xF0 SHL PUSH1 0x64 DUP3 ADD MSTORE PUSH1 0x84 ADD PUSH2 0x941 JUMP JUMPDEST PUSH1 0x1 PUSH1 0x1 PUSH1 0xA0 SHL SUB DUP4 AND PUSH1 0x0 SWAP1 DUP2 MSTORE PUSH1 0xA PUSH1 0x20 MSTORE PUSH1 0x40 SWAP1 KECCAK256 SLOAD DUP2 DUP2 LT ISZERO PUSH2 0x22C9 JUMPI PUSH1 0x40 MLOAD PUSH3 0x461BCD PUSH1 0xE5 SHL DUP2 MSTORE PUSH1 0x20 PUSH1 0x4 DUP3 ADD MSTORE PUSH1 0x2B PUSH1 0x24 DUP3 ADD MSTORE PUSH32 0x54616C6178546F6B656E3A207472616E7366657220616D6F756E742065786365 PUSH1 0x44 DUP3 ADD MSTORE PUSH11 0x6564732062616C616E6365 PUSH1 0xA8 SHL PUSH1 0x64 DUP3 ADD MSTORE PUSH1 0x84 ADD PUSH2 0x941 JUMP JUMPDEST PUSH1 0xD SLOAD PUSH1 0x0 SWAP1 PUSH2 0x22E9 SWAP1 PUSH2 0x22E2 SWAP1 DUP6 SWAP1 PUSH2 0xFFFF AND PUSH2 0x433C JUMP JUMPDEST PUSH1 0x64 PUSH2 0x1C7D JUMP JUMPDEST SWAP1 POP PUSH1 0x0 PUSH2 0x22F7 DUP5 DUP4 PUSH2 0x1DC0 JUMP JUMPDEST SWAP1 POP PUSH1 0x0 PUSH2 0x231A PUSH2 0x2313 DUP4 PUSH2 0x230E PUSH1 0x2 PUSH1 0xA PUSH2 0x1C7D JUMP JUMPDEST PUSH2 0x433C JUMP JUMPDEST PUSH1 0x3 PUSH2 0x1C7D JUMP JUMPDEST SWAP1 POP PUSH1 0x0 PUSH2 0x232E DUP4 PUSH2 0x230E PUSH1 0x8 PUSH1 0xA PUSH2 0x1C7D JUMP JUMPDEST PUSH1 0x1C SLOAD PUSH1 0x1 PUSH1 0x1 PUSH1 0xA0 SHL SUB AND PUSH1 0x0 SWAP1 DUP2 MSTORE PUSH1 0xA PUSH1 0x20 MSTORE PUSH1 0x40 SWAP1 KECCAK256 SLOAD SWAP1 SWAP2 POP PUSH2 0x2356 SWAP1 DUP4 PUSH2 0x1C90 JUMP JUMPDEST PUSH1 0x1C SLOAD PUSH1 0x1 PUSH1 0x1 PUSH1 0xA0 SHL SUB SWAP1 DUP2 AND PUSH1 0x0 SWAP1 DUP2 MSTORE PUSH1 0xA PUSH1 0x20 MSTORE PUSH1 0x40 DUP1 DUP3 KECCAK256 SWAP4 SWAP1 SWAP4 SSTORE PUSH1 0x1D SLOAD SWAP1 SWAP2 AND DUP2 MSTORE KECCAK256 SLOAD PUSH2 0x238B SWAP1 DUP4 PUSH2 0x1C90 JUMP JUMPDEST PUSH1 0x1D SLOAD PUSH1 0x1 PUSH1 0x1 PUSH1 0xA0 SHL SUB SWAP1 DUP2 AND PUSH1 0x0 SWAP1 DUP2 MSTORE PUSH1 0xA PUSH1 0x20 MSTORE PUSH1 0x40 DUP1 DUP3 KECCAK256 SWAP4 SWAP1 SWAP4 SSTORE PUSH1 0x1E SLOAD SWAP1 SWAP2 AND DUP2 MSTORE KECCAK256 SLOAD PUSH2 0x23C0 SWAP1 DUP4 PUSH2 0x1C90 JUMP JUMPDEST PUSH1 0x1E SLOAD PUSH1 0x1 PUSH1 0x1 PUSH1 0xA0 SHL SUB AND PUSH1 0x0 SWAP1 DUP2 MSTORE PUSH1 0xA PUSH1 0x20 MSTORE PUSH1 0x40 DUP1 DUP3 KECCAK256 SWAP3 SWAP1 SWAP3 SSTORE ADDRESS DUP2 MSTORE KECCAK256 SLOAD PUSH2 0x23EE SWAP1 DUP3 PUSH2 0x1C90 JUMP JUMPDEST PUSH1 0xA PUSH1 0x0 ADDRESS PUSH1 0x1 PUSH1 0x1 PUSH1 0xA0 SHL SUB AND PUSH1 0x1 PUSH1 0x1 PUSH1 0xA0 SHL SUB AND DUP2 MSTORE PUSH1 0x20 ADD SWAP1 DUP2 MSTORE PUSH1 0x20 ADD PUSH1 0x0 KECCAK256 DUP2 SWAP1 SSTORE POP PUSH2 0x2454 DUP7 PUSH1 0x40 MLOAD DUP1 PUSH1 0x60 ADD PUSH1 0x40 MSTORE DUP1 PUSH1 0x24 DUP2 MSTORE PUSH1 0x20 ADD PUSH2 0x49A1 PUSH1 0x24 SWAP2 CODECOPY PUSH1 0x1 PUSH1 0x1 PUSH1 0xA0 SHL SUB DUP12 AND PUSH1 0x0 SWAP1 DUP2 MSTORE PUSH1 0xA PUSH1 0x20 MSTORE PUSH1 0x40 SWAP1 KECCAK256 SLOAD SWAP2 SWAP1 PUSH2 0x1C51 JUMP JUMPDEST PUSH1 0x1 PUSH1 0x1 PUSH1 0xA0 SHL SUB DUP1 DUP11 AND PUSH1 0x0 SWAP1 DUP2 MSTORE PUSH1 0xA PUSH1 0x20 MSTORE PUSH1 0x40 DUP1 DUP3 KECCAK256 SWAP4 SWAP1 SWAP4 SSTORE SWAP1 DUP10 AND DUP2 MSTORE KECCAK256 SLOAD PUSH2 0x2483 SWAP1 DUP5 PUSH2 0x1C90 JUMP JUMPDEST PUSH1 0x1 PUSH1 0x1 PUSH1 0xA0 SHL SUB DUP1 DUP10 AND PUSH1 0x0 DUP2 DUP2 MSTORE PUSH1 0xA PUSH1 0x20 MSTORE PUSH1 0x40 SWAP1 DUP2 SWAP1 KECCAK256 SWAP4 SWAP1 SWAP4 SSTORE SWAP2 MLOAD SWAP1 DUP11 AND SWAP1 PUSH32 0xDDF252AD1BE2C89B69C2B068FC378DAA952BA7F163C4A11628F55A4DF523B3EF SWAP1 PUSH2 0x24D7 SWAP1 DUP8 DUP2 MSTORE PUSH1 0x20 ADD SWAP1 JUMP JUMPDEST PUSH1 0x40 MLOAD DUP1 SWAP2 SUB SWAP1 LOG3 POP POP POP POP POP POP POP POP JUMP JUMPDEST PUSH2 0x24F1 PUSH2 0x44DC JUMP JUMPDEST PUSH1 0x40 MLOAD DUP1 PUSH2 0x560 ADD PUSH1 0x40 MSTORE DUP1 PUSH2 0x2512 PUSH3 0x11CD4A PUSH8 0xDE0B6B3A7640000 PUSH2 0x433C JUMP JUMPDEST DUP2 MSTORE PUSH1 0x20 ADD PUSH1 0x0 DUP2 MSTORE PUSH1 0x20 ADD PUSH1 0x0 DUP2 MSTORE PUSH1 0x20 ADD PUSH1 0x0 DUP2 MSTORE PUSH1 0x20 ADD PUSH2 0x2541 PUSH3 0x989680 PUSH8 0xDE0B6B3A7640000 PUSH2 0x433C JUMP JUMPDEST DUP2 MSTORE PUSH1 0x20 ADD PUSH1 0x0 DUP2 MSTORE PUSH1 0x20 ADD PUSH1 0x0 DUP2 MSTORE PUSH1 0x20 ADD PUSH2 0x2569 PUSH3 0x989680 PUSH8 0xDE0B6B3A7640000 PUSH2 0x433C JUMP JUMPDEST DUP2 MSTORE PUSH1 0x20 ADD PUSH1 0x0 DUP2 MSTORE PUSH1 0x20 ADD PUSH1 0x0 DUP2 MSTORE PUSH1 0x20 ADD PUSH2 0x2591 PUSH3 0x989680 PUSH8 0xDE0B6B3A7640000 PUSH2 0x433C JUMP JUMPDEST DUP2 MSTORE PUSH1 0x20 ADD PUSH1 0x0 DUP2 MSTORE PUSH1 0x20 ADD PUSH1 0x0 DUP2 MSTORE PUSH1 0x20 ADD PUSH2 0x25B9 PUSH3 0x51616 PUSH8 0xDE0B6B3A7640000 PUSH2 0x433C JUMP JUMPDEST DUP2 MSTORE PUSH1 0x20 ADD PUSH2 0x25D3 PUSH3 0x51616 PUSH8 0xDE0B6B3A7640000 PUSH2 0x433C JUMP JUMPDEST DUP2 MSTORE PUSH1 0x20 ADD PUSH2 0x25ED PUSH3 0x51616 PUSH8 0xDE0B6B3A7640000 PUSH2 0x433C JUMP JUMPDEST DUP2 MSTORE PUSH1 0x20 ADD PUSH2 0x2607 PUSH3 0x51616 PUSH8 0xDE0B6B3A7640000 PUSH2 0x433C JUMP JUMPDEST DUP2 MSTORE PUSH1 0x20 ADD PUSH2 0x2621 PUSH3 0x51616 PUSH8 0xDE0B6B3A7640000 PUSH2 0x433C JUMP JUMPDEST DUP2 MSTORE PUSH1 0x20 ADD PUSH2 0x263B PUSH3 0x51616 PUSH8 0xDE0B6B3A7640000 PUSH2 0x433C JUMP JUMPDEST DUP2 MSTORE PUSH1 0x20 ADD PUSH2 0x2655 PUSH3 0x51616 PUSH8 0xDE0B6B3A7640000 PUSH2 0x433C JUMP JUMPDEST DUP2 MSTORE PUSH1 0x20 ADD PUSH2 0x266F PUSH3 0x51616 PUSH8 0xDE0B6B3A7640000 PUSH2 0x433C JUMP JUMPDEST DUP2 MSTORE PUSH1 0x20 ADD PUSH2 0x2689 PUSH3 0x51616 PUSH8 0xDE0B6B3A7640000 PUSH2 0x433C JUMP JUMPDEST DUP2 MSTORE PUSH1 0x20 ADD PUSH2 0x26A3 PUSH3 0x51616 PUSH8 0xDE0B6B3A7640000 PUSH2 0x433C JUMP JUMPDEST DUP2 MSTORE PUSH1 0x20 ADD PUSH2 0x26BD PUSH3 0x51616 PUSH8 0xDE0B6B3A7640000 PUSH2 0x433C JUMP JUMPDEST DUP2 MSTORE PUSH1 0x20 ADD PUSH2 0x26D7 PUSH3 0x51616 PUSH8 0xDE0B6B3A7640000 PUSH2 0x433C JUMP JUMPDEST DUP2 MSTORE PUSH1 0x20 ADD PUSH2 0x26F1 PUSH3 0x51616 PUSH8 0xDE0B6B3A7640000 PUSH2 0x433C JUMP JUMPDEST DUP2 MSTORE PUSH1 0x20 ADD PUSH2 0x270B PUSH3 0x51616 PUSH8 0xDE0B6B3A7640000 PUSH2 0x433C JUMP JUMPDEST DUP2 MSTORE PUSH1 0x20 ADD PUSH2 0x2725 PUSH3 0x51616 PUSH8 0xDE0B6B3A7640000 PUSH2 0x433C JUMP JUMPDEST DUP2 MSTORE PUSH1 0x20 ADD PUSH2 0x273F PUSH3 0x51616 PUSH8 0xDE0B6B3A7640000 PUSH2 0x433C JUMP JUMPDEST DUP2 MSTORE PUSH1 0x20 ADD PUSH2 0x2759 PUSH3 0x51616 PUSH8 0xDE0B6B3A7640000 PUSH2 0x433C JUMP JUMPDEST DUP2 MSTORE PUSH1 0x20 ADD PUSH2 0x2773 PUSH3 0x51616 PUSH8 0xDE0B6B3A7640000 PUSH2 0x433C JUMP JUMPDEST DUP2 MSTORE PUSH1 0x20 ADD PUSH2 0x278D PUSH3 0x51616 PUSH8 0xDE0B6B3A7640000 PUSH2 0x433C JUMP JUMPDEST DUP2 MSTORE PUSH1 0x20 ADD PUSH1 0x0 DUP2 MSTORE PUSH1 0x20 ADD PUSH1 0x0 DUP2 MSTORE PUSH1 0x20 ADD PUSH1 0x0 DUP2 MSTORE PUSH1 0x20 ADD PUSH1 0x0 DUP2 MSTORE PUSH1 0x20 ADD PUSH1 0x0 DUP2 MSTORE PUSH1 0x20 ADD PUSH1 0x0 DUP2 MSTORE PUSH1 0x20 ADD PUSH1 0x0 DUP2 MSTORE PUSH1 0x20 ADD PUSH1 0x0 DUP2 MSTORE PUSH1 0x20 ADD PUSH1 0x0 DUP2 MSTORE PUSH1 0x20 ADD PUSH1 0x0 DUP2 MSTORE PUSH1 0x20 ADD PUSH1 0x0 DUP2 MSTORE POP SWAP1 POP SWAP1 JUMP JUMPDEST PUSH1 0x1 PUSH1 0x1 PUSH1 0xA0 SHL SUB DUP3 AND PUSH2 0x2842 JUMPI PUSH1 0x40 MLOAD PUSH3 0x461BCD PUSH1 0xE5 SHL DUP2 MSTORE PUSH1 0x20 PUSH1 0x4 DUP3 ADD MSTORE PUSH1 0x21 PUSH1 0x24 DUP3 ADD MSTORE PUSH32 0x45524332303A206275726E2066726F6D20746865207A65726F20616464726573 PUSH1 0x44 DUP3 ADD MSTORE PUSH1 0x73 PUSH1 0xF8 SHL PUSH1 0x64 DUP3 ADD MSTORE PUSH1 0x84 ADD PUSH2 0x941 JUMP JUMPDEST PUSH1 0x1 PUSH1 0x1 PUSH1 0xA0 SHL SUB DUP3 AND PUSH1 0x0 SWAP1 DUP2 MSTORE PUSH1 0x20 DUP2 SWAP1 MSTORE PUSH1 0x40 SWAP1 KECCAK256 SLOAD DUP2 DUP2 LT ISZERO PUSH2 0x28B6 JUMPI PUSH1 0x40 MLOAD PUSH3 0x461BCD PUSH1 0xE5 SHL DUP2 MSTORE PUSH1 0x20 PUSH1 0x4 DUP3 ADD MSTORE PUSH1 0x22 PUSH1 0x24 DUP3 ADD MSTORE PUSH32 0x45524332303A206275726E20616D6F756E7420657863656564732062616C616E PUSH1 0x44 DUP3 ADD MSTORE PUSH2 0x6365 PUSH1 0xF0 SHL PUSH1 0x64 DUP3 ADD MSTORE PUSH1 0x84 ADD PUSH2 0x941 JUMP JUMPDEST PUSH1 0x1 PUSH1 0x1 PUSH1 0xA0 SHL SUB DUP4 AND PUSH1 0x0 SWAP1 DUP2 MSTORE PUSH1 0x20 DUP2 SWAP1 MSTORE PUSH1 0x40 DUP2 KECCAK256 DUP4 DUP4 SUB SWAP1 SSTORE PUSH1 0x2 DUP1 SLOAD DUP5 SWAP3 SWAP1 PUSH2 0x28E5 SWAP1 DUP5 SWAP1 PUSH2 0x4943 JUMP JUMPDEST SWAP1 SWAP2 SSTORE POP POP PUSH1 0x40 MLOAD DUP3 DUP2 MSTORE PUSH1 0x0 SWAP1 PUSH1 0x1 PUSH1 0x1 PUSH1 0xA0 SHL SUB DUP6 AND SWAP1 PUSH32 0xDDF252AD1BE2C89B69C2B068FC378DAA952BA7F163C4A11628F55A4DF523B3EF SWAP1 PUSH1 0x20 ADD PUSH1 0x40 MLOAD DUP1 SWAP2 SUB SWAP1 LOG3 POP POP POP JUMP JUMPDEST PUSH2 0x2938 PUSH2 0x44DC JUMP JUMPDEST PUSH1 0x40 MLOAD DUP1 PUSH2 0x560 ADD PUSH1 0x40 MSTORE DUP1 PUSH2 0x2959 PUSH3 0x11CD4B PUSH8 0xDE0B6B3A7640000 PUSH2 0x433C JUMP JUMPDEST DUP2 MSTORE PUSH1 0x20 ADD PUSH1 0x0 DUP2 MSTORE PUSH1 0x20 ADD PUSH1 0x0 DUP2 MSTORE PUSH1 0x20 ADD PUSH1 0x0 DUP2 MSTORE PUSH1 0x20 ADD PUSH2 0x2988 PUSH3 0xF4240 PUSH8 0xDE0B6B3A7640000 PUSH2 0x433C JUMP JUMPDEST DUP2 MSTORE PUSH1 0x20 ADD PUSH1 0x0 DUP2 MSTORE PUSH1 0x20 ADD PUSH1 0x0 DUP2 MSTORE PUSH1 0x20 ADD PUSH2 0x29B0 PUSH3 0xF4240 PUSH8 0xDE0B6B3A7640000 PUSH2 0x433C JUMP JUMPDEST DUP2 MSTORE PUSH1 0x20 ADD PUSH1 0x0 DUP2 MSTORE PUSH1 0x20 ADD PUSH1 0x0 DUP2 MSTORE PUSH1 0x20 ADD PUSH2 0x29D8 PUSH3 0xF4240 PUSH8 0xDE0B6B3A7640000 PUSH2 0x433C JUMP JUMPDEST DUP2 MSTORE PUSH1 0x20 ADD PUSH1 0x0 DUP2 MSTORE PUSH1 0x20 ADD PUSH1 0x0 DUP2 MSTORE PUSH1 0x20 ADD PUSH2 0x2A00 PUSH3 0x51615 PUSH8 0xDE0B6B3A7640000 PUSH2 0x433C JUMP JUMPDEST DUP2 MSTORE PUSH1 0x20 ADD PUSH2 0x2A1A PUSH3 0x51615 PUSH8 0xDE0B6B3A7640000 PUSH2 0x433C JUMP JUMPDEST DUP2 MSTORE PUSH1 0x20 ADD PUSH2 0x2A34 PUSH3 0x51615 PUSH8 0xDE0B6B3A7640000 PUSH2 0x433C JUMP JUMPDEST DUP2 MSTORE PUSH1 0x20 ADD PUSH2 0x2A4E PUSH3 0x51615 PUSH8 0xDE0B6B3A7640000 PUSH2 0x433C JUMP JUMPDEST DUP2 MSTORE PUSH1 0x20 ADD PUSH2 0x2A68 PUSH3 0x51615 PUSH8 0xDE0B6B3A7640000 PUSH2 0x433C JUMP JUMPDEST DUP2 MSTORE PUSH1 0x20 ADD PUSH2 0x2A82 PUSH3 0x51615 PUSH8 0xDE0B6B3A7640000 PUSH2 0x433C JUMP JUMPDEST DUP2 MSTORE PUSH1 0x20 ADD PUSH2 0x2A9C PUSH3 0x51615 PUSH8 0xDE0B6B3A7640000 PUSH2 0x433C JUMP JUMPDEST DUP2 MSTORE PUSH1 0x20 ADD PUSH2 0x2AB6 PUSH3 0x51615 PUSH8 0xDE0B6B3A7640000 PUSH2 0x433C JUMP JUMPDEST DUP2 MSTORE PUSH1 0x20 ADD PUSH2 0x2AD0 PUSH3 0x51615 PUSH8 0xDE0B6B3A7640000 PUSH2 0x433C JUMP JUMPDEST DUP2 MSTORE PUSH1 0x20 ADD PUSH2 0x2AEA PUSH3 0x51615 PUSH8 0xDE0B6B3A7640000 PUSH2 0x433C JUMP JUMPDEST DUP2 MSTORE PUSH1 0x20 ADD PUSH2 0x2B04 PUSH3 0x51615 PUSH8 0xDE0B6B3A7640000 PUSH2 0x433C JUMP JUMPDEST DUP2 MSTORE PUSH1 0x20 ADD PUSH2 0x2B1E PUSH3 0x51615 PUSH8 0xDE0B6B3A7640000 PUSH2 0x433C JUMP JUMPDEST DUP2 MSTORE PUSH1 0x20 ADD PUSH2 0x2B38 PUSH3 0x51615 PUSH8 0xDE0B6B3A7640000 PUSH2 0x433C JUMP JUMPDEST DUP2 MSTORE PUSH1 0x20 ADD PUSH2 0x2B52 PUSH3 0x51615 PUSH8 0xDE0B6B3A7640000 PUSH2 0x433C JUMP JUMPDEST DUP2 MSTORE PUSH1 0x20 ADD PUSH2 0x2B6C PUSH3 0x51615 PUSH8 0xDE0B6B3A7640000 PUSH2 0x433C JUMP JUMPDEST DUP2 MSTORE PUSH1 0x20 ADD PUSH2 0x2B86 PUSH3 0x51615 PUSH8 0xDE0B6B3A7640000 PUSH2 0x433C JUMP JUMPDEST DUP2 MSTORE PUSH1 0x20 ADD PUSH2 0x2BA0 PUSH3 0x51615 PUSH8 0xDE0B6B3A7640000 PUSH2 0x433C JUMP JUMPDEST DUP2 MSTORE PUSH1 0x20 ADD PUSH2 0x2BBA PUSH3 0x51615 PUSH8 0xDE0B6B3A7640000 PUSH2 0x433C JUMP JUMPDEST DUP2 MSTORE PUSH1 0x20 ADD PUSH2 0x278D PUSH3 0x51615 PUSH8 0xDE0B6B3A7640000 PUSH2 0x433C JUMP JUMPDEST PUSH1 0x5 DUP1 SLOAD PUSH1 0x1 PUSH1 0x1 PUSH1 0xA0 SHL SUB DUP4 DUP2 AND PUSH1 0x1 PUSH1 0x1 PUSH1 0xA0 SHL SUB NOT DUP4 AND DUP2 OR SWAP1 SWAP4 SSTORE PUSH1 0x40 MLOAD SWAP2 AND SWAP2 SWAP1 DUP3 SWAP1 PUSH32 0x8BE0079C531659141344CD1FD0A4F28419497F9722A3DAAFE3B4186F6B6457E0 SWAP1 PUSH1 0x0 SWAP1 LOG3 POP POP JUMP JUMPDEST PUSH1 0x1 PUSH1 0x1 PUSH1 0xA0 SHL SUB DUP4 DUP2 AND PUSH1 0x0 SWAP1 DUP2 MSTORE PUSH1 0xB PUSH1 0x20 SWAP1 DUP2 MSTORE PUSH1 0x40 DUP1 DUP4 KECCAK256 SWAP4 DUP7 AND DUP4 MSTORE SWAP3 SWAP1 MSTORE KECCAK256 SLOAD PUSH1 0x0 NOT DUP2 EQ PUSH2 0x1B5B JUMPI DUP2 DUP2 LT ISZERO PUSH2 0x2CA5 JUMPI PUSH1 0x40 MLOAD PUSH3 0x461BCD PUSH1 0xE5 SHL DUP2 MSTORE PUSH1 0x20 PUSH1 0x4 DUP3 ADD MSTORE PUSH1 0x1D PUSH1 0x24 DUP3 ADD MSTORE PUSH32 0x45524332303A20696E73756666696369656E7420616C6C6F77616E6365000000 PUSH1 0x44 DUP3 ADD MSTORE PUSH1 0x64 ADD PUSH2 0x941 JUMP JUMPDEST PUSH2 0x1B5B DUP5 DUP5 DUP5 DUP5 SUB PUSH2 0x1C9C JUMP JUMPDEST PUSH1 0x0 DUP4 GT PUSH2 0x2D02 JUMPI PUSH1 0x40 MLOAD PUSH3 0x461BCD PUSH1 0xE5 SHL DUP2 MSTORE PUSH1 0x20 PUSH1 0x4 DUP3 ADD MSTORE PUSH1 0x1E PUSH1 0x24 DUP3 ADD MSTORE PUSH32 0x5374616B61626C653A2043616E6E6F74207374616B65206E6F7468696E670000 PUSH1 0x44 DUP3 ADD MSTORE PUSH1 0x64 ADD PUSH2 0x941 JUMP JUMPDEST CALLER PUSH1 0x0 SWAP1 DUP2 MSTORE PUSH1 0x8 PUSH1 0x20 MSTORE PUSH1 0x40 SWAP1 KECCAK256 SLOAD TIMESTAMP DUP2 PUSH2 0x2D24 JUMPI PUSH2 0x2D21 CALLER PUSH2 0x4348 JUMP JUMPDEST SWAP2 POP JUMPDEST PUSH1 0x7 DUP3 DUP2 SLOAD DUP2 LT PUSH2 0x2D37 JUMPI PUSH2 0x2D37 PUSH2 0x48F5 JUMP JUMPDEST SWAP1 PUSH1 0x0 MSTORE PUSH1 0x20 PUSH1 0x0 KECCAK256 SWAP1 PUSH1 0x2 MUL ADD PUSH1 0x1 ADD PUSH1 0x40 MLOAD DUP1 PUSH1 0xC0 ADD PUSH1 0x40 MSTORE DUP1 CALLER PUSH1 0x1 PUSH1 0x1 PUSH1 0xA0 SHL SUB AND DUP2 MSTORE PUSH1 0x20 ADD DUP8 DUP2 MSTORE PUSH1 0x20 ADD DUP4 DUP2 MSTORE PUSH1 0x20 ADD PUSH1 0x0 DUP2 MSTORE PUSH1 0x20 ADD DUP6 DUP2 MSTORE PUSH1 0x20 ADD DUP4 DUP8 PUSH2 0x2D87 SWAP2 SWAP1 PUSH2 0x483E JUMP JUMPDEST SWAP1 MSTORE DUP2 SLOAD PUSH1 0x1 DUP1 DUP3 ADD DUP5 SSTORE PUSH1 0x0 SWAP4 DUP5 MSTORE PUSH1 0x20 SWAP4 DUP5 SWAP1 KECCAK256 DUP4 MLOAD PUSH1 0x6 SWAP1 SWAP4 MUL ADD DUP1 SLOAD PUSH1 0x1 PUSH1 0x1 PUSH1 0xA0 SHL SUB NOT AND PUSH1 0x1 PUSH1 0x1 PUSH1 0xA0 SHL SUB SWAP1 SWAP4 AND SWAP3 SWAP1 SWAP3 OR DUP3 SSTORE SWAP3 DUP3 ADD MLOAD SWAP3 DUP2 ADD SWAP3 SWAP1 SWAP3 SSTORE PUSH1 0x40 DUP2 ADD MLOAD PUSH1 0x2 DUP4 ADD SSTORE PUSH1 0x60 DUP2 ADD MLOAD PUSH1 0x3 DUP4 ADD SSTORE PUSH1 0x80 DUP2 ADD MLOAD PUSH1 0x4 DUP4 ADD SSTORE PUSH1 0xA0 ADD MLOAD PUSH1 0x5 SWAP1 SWAP2 ADD SSTORE CALLER PUSH32 0x9CFD25589D1EB8AD71E342A86A8524E83522E3936C0803048C08F6D9AD974F40 DUP7 DUP5 DUP5 PUSH2 0x2E24 DUP2 DUP11 PUSH2 0x483E JUMP JUMPDEST PUSH1 0x40 DUP1 MLOAD SWAP5 DUP6 MSTORE PUSH1 0x20 DUP6 ADD SWAP4 SWAP1 SWAP4 MSTORE SWAP2 DUP4 ADD MSTORE PUSH1 0x60 DUP3 ADD MSTORE PUSH1 0x80 ADD PUSH1 0x40 MLOAD DUP1 SWAP2 SUB SWAP1 LOG2 POP POP POP POP POP JUMP JUMPDEST PUSH2 0x2E56 PUSH2 0x44DC JUMP JUMPDEST PUSH1 0x40 MLOAD DUP1 PUSH2 0x560 ADD PUSH1 0x40 MSTORE DUP1 PUSH2 0x2E77 PUSH3 0xF4240 PUSH8 0xDE0B6B3A7640000 PUSH2 0x433C JUMP JUMPDEST DUP2 MSTORE PUSH1 0x20 ADD PUSH1 0x0 DUP2 MSTORE PUSH1 0x20 ADD PUSH1 0x0 DUP2 MSTORE PUSH1 0x20 ADD PUSH1 0x0 DUP2 MSTORE PUSH1 0x20 ADD PUSH2 0x2EA6 PUSH3 0xF4240 PUSH8 0xDE0B6B3A7640000 PUSH2 0x433C JUMP JUMPDEST DUP2 MSTORE PUSH1 0x20 ADD PUSH1 0x0 DUP2 MSTORE PUSH1 0x20 ADD PUSH1 0x0 DUP2 MSTORE PUSH1 0x20 ADD PUSH2 0x2ECE PUSH3 0xF4240 PUSH8 0xDE0B6B3A7640000 PUSH2 0x433C JUMP JUMPDEST DUP2 MSTORE PUSH1 0x20 ADD PUSH1 0x0 DUP2 MSTORE PUSH1 0x20 ADD PUSH1 0x0 DUP2 MSTORE PUSH1 0x20 ADD PUSH2 0x2EF6 PUSH3 0xF4240 PUSH8 0xDE0B6B3A7640000 PUSH2 0x433C JUMP JUMPDEST DUP2 MSTORE PUSH1 0x20 ADD PUSH1 0x0 DUP2 MSTORE PUSH1 0x20 ADD PUSH1 0x0 DUP2 MSTORE PUSH1 0x20 ADD PUSH2 0x2F1E PUSH3 0x51616 PUSH8 0xDE0B6B3A7640000 PUSH2 0x433C JUMP JUMPDEST DUP2 MSTORE PUSH1 0x20 ADD PUSH2 0x2F38 PUSH3 0x51616 PUSH8 0xDE0B6B3A7640000 PUSH2 0x433C JUMP JUMPDEST DUP2 MSTORE PUSH1 0x20 ADD PUSH2 0x2F52 PUSH3 0x51616 PUSH8 0xDE0B6B3A7640000 PUSH2 0x433C JUMP JUMPDEST DUP2 MSTORE PUSH1 0x20 ADD PUSH2 0x2F6C PUSH3 0x51616 PUSH8 0xDE0B6B3A7640000 PUSH2 0x433C JUMP JUMPDEST DUP2 MSTORE PUSH1 0x20 ADD PUSH2 0x2F86 PUSH3 0x51616 PUSH8 0xDE0B6B3A7640000 PUSH2 0x433C JUMP JUMPDEST DUP2 MSTORE PUSH1 0x20 ADD PUSH2 0x2FA0 PUSH3 0x51616 PUSH8 0xDE0B6B3A7640000 PUSH2 0x433C JUMP JUMPDEST DUP2 MSTORE PUSH1 0x20 ADD PUSH2 0x2FBA PUSH3 0x51616 PUSH8 0xDE0B6B3A7640000 PUSH2 0x433C JUMP JUMPDEST DUP2 MSTORE PUSH1 0x20 ADD PUSH2 0x2FD4 PUSH3 0x51616 PUSH8 0xDE0B6B3A7640000 PUSH2 0x433C JUMP JUMPDEST DUP2 MSTORE PUSH1 0x20 ADD PUSH2 0x2FEE PUSH3 0x51616 PUSH8 0xDE0B6B3A7640000 PUSH2 0x433C JUMP JUMPDEST DUP2 MSTORE PUSH1 0x20 ADD PUSH2 0x3008 PUSH3 0x51616 PUSH8 0xDE0B6B3A7640000 PUSH2 0x433C JUMP JUMPDEST DUP2 MSTORE PUSH1 0x20 ADD PUSH2 0x3022 PUSH3 0x51616 PUSH8 0xDE0B6B3A7640000 PUSH2 0x433C JUMP JUMPDEST DUP2 MSTORE PUSH1 0x20 ADD PUSH2 0x303C PUSH3 0x51616 PUSH8 0xDE0B6B3A7640000 PUSH2 0x433C JUMP JUMPDEST DUP2 MSTORE PUSH1 0x20 ADD PUSH2 0x3056 PUSH3 0x51616 PUSH8 0xDE0B6B3A7640000 PUSH2 0x433C JUMP JUMPDEST DUP2 MSTORE PUSH1 0x20 ADD PUSH2 0x3070 PUSH3 0x51616 PUSH8 0xDE0B6B3A7640000 PUSH2 0x433C JUMP JUMPDEST DUP2 MSTORE PUSH1 0x20 ADD PUSH2 0x308A PUSH3 0x51616 PUSH8 0xDE0B6B3A7640000 PUSH2 0x433C JUMP JUMPDEST DUP2 MSTORE PUSH1 0x20 ADD PUSH2 0x30A4 PUSH3 0x51616 PUSH8 0xDE0B6B3A7640000 PUSH2 0x433C JUMP JUMPDEST DUP2 MSTORE PUSH1 0x20 ADD PUSH2 0x30BE PUSH3 0x51616 PUSH8 0xDE0B6B3A7640000 PUSH2 0x433C JUMP JUMPDEST DUP2 MSTORE PUSH1 0x20 ADD PUSH2 0x30D8 PUSH3 0x51616 PUSH8 0xDE0B6B3A7640000 PUSH2 0x433C JUMP JUMPDEST DUP2 MSTORE PUSH1 0x20 ADD PUSH2 0x30F2 PUSH3 0x51616 PUSH8 0xDE0B6B3A7640000 PUSH2 0x433C JUMP JUMPDEST DUP2 MSTORE PUSH1 0x20 ADD PUSH2 0x310C PUSH3 0x51616 PUSH8 0xDE0B6B3A7640000 PUSH2 0x433C JUMP JUMPDEST DUP2 MSTORE PUSH1 0x20 ADD PUSH2 0x3126 PUSH3 0x51616 PUSH8 0xDE0B6B3A7640000 PUSH2 0x433C JUMP JUMPDEST DUP2 MSTORE PUSH1 0x20 ADD PUSH2 0x3140 PUSH3 0x51616 PUSH8 0xDE0B6B3A7640000 PUSH2 0x433C JUMP JUMPDEST DUP2 MSTORE PUSH1 0x20 ADD PUSH2 0x315A PUSH3 0x51616 PUSH8 0xDE0B6B3A7640000 PUSH2 0x433C JUMP JUMPDEST DUP2 MSTORE PUSH1 0x20 ADD PUSH2 0x3174 PUSH3 0x51616 PUSH8 0xDE0B6B3A7640000 PUSH2 0x433C JUMP JUMPDEST DUP2 MSTORE PUSH1 0x20 ADD PUSH2 0x318E PUSH3 0x51616 PUSH8 0xDE0B6B3A7640000 PUSH2 0x433C JUMP JUMPDEST DUP2 MSTORE PUSH1 0x20 ADD PUSH2 0x31A8 PUSH3 0x51616 PUSH8 0xDE0B6B3A7640000 PUSH2 0x433C JUMP JUMPDEST DUP2 MSTORE PUSH1 0x20 ADD PUSH2 0x31C2 PUSH3 0x51616 PUSH8 0xDE0B6B3A7640000 PUSH2 0x433C JUMP JUMPDEST DUP2 MSTORE PUSH1 0x20 ADD PUSH2 0x31DC PUSH3 0x51616 PUSH8 0xDE0B6B3A7640000 PUSH2 0x433C JUMP JUMPDEST DUP2 MSTORE PUSH1 0x20 ADD PUSH2 0x31F6 PUSH3 0x51616 PUSH8 0xDE0B6B3A7640000 PUSH2 0x433C JUMP JUMPDEST DUP2 MSTORE PUSH1 0x20 ADD PUSH2 0x218E PUSH3 0x51616 PUSH8 0xDE0B6B3A7640000 PUSH2 0x433C JUMP JUMPDEST PUSH2 0x3218 PUSH2 0x44DC JUMP JUMPDEST PUSH1 0x40 MLOAD DUP1 PUSH2 0x560 ADD PUSH1 0x40 MSTORE DUP1 PUSH2 0x3239 PUSH3 0x51616 PUSH8 0xDE0B6B3A7640000 PUSH2 0x433C JUMP JUMPDEST DUP2 MSTORE PUSH1 0x20 ADD PUSH1 0x0 DUP2 MSTORE PUSH1 0x20 ADD PUSH1 0x0 DUP2 MSTORE PUSH1 0x20 ADD PUSH1 0x0 DUP2 MSTORE PUSH1 0x20 ADD PUSH2 0x3268 PUSH3 0x51616 PUSH8 0xDE0B6B3A7640000 PUSH2 0x433C JUMP JUMPDEST DUP2 MSTORE PUSH1 0x20 ADD PUSH1 0x0 DUP2 MSTORE PUSH1 0x20 ADD PUSH1 0x0 DUP2 MSTORE PUSH1 0x20 ADD PUSH2 0x3290 PUSH3 0x51616 PUSH8 0xDE0B6B3A7640000 PUSH2 0x433C JUMP JUMPDEST DUP2 MSTORE PUSH1 0x20 ADD PUSH1 0x0 DUP2 MSTORE PUSH1 0x20 ADD PUSH1 0x0 DUP2 MSTORE PUSH1 0x20 ADD PUSH2 0x32B8 PUSH3 0x51616 PUSH8 0xDE0B6B3A7640000 PUSH2 0x433C JUMP JUMPDEST DUP2 MSTORE PUSH1 0x20 ADD PUSH1 0x0 DUP2 MSTORE PUSH1 0x20 ADD PUSH1 0x0 DUP2 MSTORE PUSH1 0x20 ADD PUSH2 0x32E0 PUSH3 0x11A1F PUSH8 0xDE0B6B3A7640000 PUSH2 0x433C JUMP JUMPDEST DUP2 MSTORE PUSH1 0x20 ADD PUSH2 0x32FA PUSH3 0x11A1F PUSH8 0xDE0B6B3A7640000 PUSH2 0x433C JUMP JUMPDEST DUP2 MSTORE PUSH1 0x20 ADD PUSH2 0x3314 PUSH3 0x11A1F PUSH8 0xDE0B6B3A7640000 PUSH2 0x433C JUMP JUMPDEST DUP2 MSTORE PUSH1 0x20 ADD PUSH2 0x332E PUSH3 0x11A1F PUSH8 0xDE0B6B3A7640000 PUSH2 0x433C JUMP JUMPDEST DUP2 MSTORE PUSH1 0x20 ADD PUSH2 0x3348 PUSH3 0x11A1F PUSH8 0xDE0B6B3A7640000 PUSH2 0x433C JUMP JUMPDEST DUP2 MSTORE PUSH1 0x20 ADD PUSH2 0x3362 PUSH3 0x11A1F PUSH8 0xDE0B6B3A7640000 PUSH2 0x433C JUMP JUMPDEST DUP2 MSTORE PUSH1 0x20 ADD PUSH2 0x337C PUSH3 0x11A1F PUSH8 0xDE0B6B3A7640000 PUSH2 0x433C JUMP JUMPDEST DUP2 MSTORE PUSH1 0x20 ADD PUSH2 0x3396 PUSH3 0x11A1F PUSH8 0xDE0B6B3A7640000 PUSH2 0x433C JUMP JUMPDEST DUP2 MSTORE PUSH1 0x20 ADD PUSH2 0x33B0 PUSH3 0x11A1F PUSH8 0xDE0B6B3A7640000 PUSH2 0x433C JUMP JUMPDEST DUP2 MSTORE PUSH1 0x20 ADD PUSH2 0x33CA PUSH3 0x11A1F PUSH8 0xDE0B6B3A7640000 PUSH2 0x433C JUMP JUMPDEST DUP2 MSTORE PUSH1 0x20 ADD PUSH2 0x33E4 PUSH3 0x11A1F PUSH8 0xDE0B6B3A7640000 PUSH2 0x433C JUMP JUMPDEST DUP2 MSTORE PUSH1 0x20 ADD PUSH2 0x33FE PUSH3 0x11A1F PUSH8 0xDE0B6B3A7640000 PUSH2 0x433C JUMP JUMPDEST DUP2 MSTORE PUSH1 0x20 ADD PUSH2 0x3418 PUSH3 0x11A1F PUSH8 0xDE0B6B3A7640000 PUSH2 0x433C JUMP JUMPDEST DUP2 MSTORE PUSH1 0x20 ADD PUSH2 0x3432 PUSH3 0x11A1F PUSH8 0xDE0B6B3A7640000 PUSH2 0x433C JUMP JUMPDEST DUP2 MSTORE PUSH1 0x20 ADD PUSH2 0x344C PUSH3 0x11A1F PUSH8 0xDE0B6B3A7640000 PUSH2 0x433C JUMP JUMPDEST DUP2 MSTORE PUSH1 0x20 ADD PUSH2 0x3466 PUSH3 0x11A1F PUSH8 0xDE0B6B3A7640000 PUSH2 0x433C JUMP JUMPDEST DUP2 MSTORE PUSH1 0x20 ADD PUSH2 0x3480 PUSH3 0x11A1F PUSH8 0xDE0B6B3A7640000 PUSH2 0x433C JUMP JUMPDEST DUP2 MSTORE PUSH1 0x20 ADD PUSH2 0x349A PUSH3 0x11A1F PUSH8 0xDE0B6B3A7640000 PUSH2 0x433C JUMP JUMPDEST DUP2 MSTORE PUSH1 0x20 ADD PUSH2 0x34B4 PUSH3 0x11A1F PUSH8 0xDE0B6B3A7640000 PUSH2 0x433C JUMP JUMPDEST DUP2 MSTORE PUSH1 0x20 ADD PUSH2 0x34CE PUSH3 0x11A1F PUSH8 0xDE0B6B3A7640000 PUSH2 0x433C JUMP JUMPDEST DUP2 MSTORE PUSH1 0x20 ADD PUSH2 0x34E8 PUSH3 0x11A1F PUSH8 0xDE0B6B3A7640000 PUSH2 0x433C JUMP JUMPDEST DUP2 MSTORE PUSH1 0x20 ADD PUSH2 0x3502 PUSH3 0x11A1F PUSH8 0xDE0B6B3A7640000 PUSH2 0x433C JUMP JUMPDEST DUP2 MSTORE PUSH1 0x20 ADD PUSH2 0x351C PUSH3 0x11A1F PUSH8 0xDE0B6B3A7640000 PUSH2 0x433C JUMP JUMPDEST DUP2 MSTORE PUSH1 0x20 ADD PUSH2 0x3536 PUSH3 0x11A1F PUSH8 0xDE0B6B3A7640000 PUSH2 0x433C JUMP JUMPDEST DUP2 MSTORE PUSH1 0x20 ADD PUSH2 0x3550 PUSH3 0x11A1F PUSH8 0xDE0B6B3A7640000 PUSH2 0x433C JUMP JUMPDEST DUP2 MSTORE PUSH1 0x20 ADD PUSH2 0x356A PUSH3 0x11A1F PUSH8 0xDE0B6B3A7640000 PUSH2 0x433C JUMP JUMPDEST DUP2 MSTORE PUSH1 0x20 ADD PUSH2 0x3584 PUSH3 0x11A1F PUSH8 0xDE0B6B3A7640000 PUSH2 0x433C JUMP JUMPDEST DUP2 MSTORE PUSH1 0x20 ADD PUSH2 0x359E PUSH3 0x11A1F PUSH8 0xDE0B6B3A7640000 PUSH2 0x433C JUMP JUMPDEST DUP2 MSTORE PUSH1 0x20 ADD PUSH2 0x35B8 PUSH3 0x11A1F PUSH8 0xDE0B6B3A7640000 PUSH2 0x433C JUMP JUMPDEST DUP2 MSTORE PUSH1 0x20 ADD PUSH2 0x218E PUSH3 0x11A1F PUSH8 0xDE0B6B3A7640000 PUSH2 0x433C JUMP JUMPDEST PUSH1 0x1E DUP2 GT ISZERO PUSH2 0x363A JUMPI PUSH1 0x40 MLOAD PUSH3 0x461BCD PUSH1 0xE5 SHL DUP2 MSTORE PUSH1 0x20 PUSH1 0x4 DUP3 ADD MSTORE PUSH1 0x2E PUSH1 0x24 DUP3 ADD MSTORE PUSH32 0x5374616B61626C653A2050656E616C7479206665652063616E6E6F7420657863 PUSH1 0x44 DUP3 ADD MSTORE PUSH14 0x32B2B2101A903832B931B2B73A17 PUSH1 0x91 SHL PUSH1 0x64 DUP3 ADD MSTORE PUSH1 0x84 ADD PUSH2 0x941 JUMP JUMPDEST PUSH1 0x6 DUP2 SWAP1 SSTORE PUSH1 0x40 MLOAD DUP2 DUP2 MSTORE PUSH32 0xCFA4F4CF1CD64D13A167A8E75605E0C0C9D6700E903D17C5DC11F593254A04A9 SWAP1 PUSH1 0x20 ADD PUSH1 0x40 MLOAD DUP1 SWAP2 SUB SWAP1 LOG1 POP JUMP JUMPDEST PUSH2 0x367D PUSH2 0x44DC JUMP JUMPDEST PUSH1 0x40 MLOAD DUP1 PUSH2 0x560 ADD PUSH1 0x40 MSTORE DUP1 PUSH1 0x0 DUP2 MSTORE PUSH1 0x20 ADD PUSH1 0x0 DUP2 MSTORE PUSH1 0x20 ADD PUSH1 0x0 DUP2 MSTORE PUSH1 0x20 ADD PUSH1 0x0 DUP2 MSTORE PUSH1 0x20 ADD PUSH1 0x0 DUP2 MSTORE PUSH1 0x20 ADD PUSH1 0x0 DUP2 MSTORE PUSH1 0x20 ADD PUSH1 0x0 DUP2 MSTORE PUSH1 0x20 ADD PUSH2 0x36CE PUSH8 0x4563918244F40000 PUSH2 0x1B51 PUSH2 0x1C7D JUMP JUMPDEST DUP2 MSTORE PUSH1 0x20 ADD PUSH2 0x36E7 PUSH8 0x4563918244F40000 PUSH2 0x1B51 PUSH2 0x1C7D JUMP JUMPDEST DUP2 MSTORE PUSH1 0x20 ADD PUSH2 0x3700 PUSH8 0x4563918244F40000 PUSH2 0x1B51 PUSH2 0x1C7D JUMP JUMPDEST DUP2 MSTORE PUSH1 0x20 ADD PUSH2 0x3719 PUSH8 0x4563918244F40000 PUSH2 0x1B51 PUSH2 0x1C7D JUMP JUMPDEST DUP2 MSTORE PUSH1 0x20 ADD PUSH2 0x3732 PUSH8 0x4563918244F40000 PUSH2 0x1B51 PUSH2 0x1C7D JUMP JUMPDEST DUP2 MSTORE PUSH1 0x20 ADD PUSH2 0x374B PUSH8 0x4563918244F40000 PUSH2 0x1B51 PUSH2 0x1C7D JUMP JUMPDEST DUP2 MSTORE PUSH1 0x20 ADD PUSH2 0x3764 PUSH8 0x4563918244F40000 PUSH2 0x1B51 PUSH2 0x1C7D JUMP JUMPDEST DUP2 MSTORE PUSH1 0x20 ADD PUSH2 0x377D PUSH8 0x4563918244F40000 PUSH2 0x1B51 PUSH2 0x1C7D JUMP JUMPDEST DUP2 MSTORE PUSH1 0x20 ADD PUSH2 0x3796 PUSH8 0x4563918244F40000 PUSH2 0x1B51 PUSH2 0x1C7D JUMP JUMPDEST DUP2 MSTORE PUSH1 0x20 ADD PUSH2 0x37AF PUSH8 0x4563918244F40000 PUSH2 0x1B51 PUSH2 0x1C7D JUMP JUMPDEST DUP2 MSTORE PUSH1 0x20 ADD PUSH2 0x37C8 PUSH8 0x4563918244F40000 PUSH2 0x1B51 PUSH2 0x1C7D JUMP JUMPDEST DUP2 MSTORE PUSH1 0x20 ADD PUSH2 0x37E1 PUSH8 0x4563918244F40000 PUSH2 0x1B51 PUSH2 0x1C7D JUMP JUMPDEST DUP2 MSTORE PUSH1 0x20 ADD PUSH2 0x37FA PUSH8 0x4563918244F40000 PUSH2 0x1B51 PUSH2 0x1C7D JUMP JUMPDEST DUP2 MSTORE PUSH1 0x20 ADD PUSH2 0x3813 PUSH8 0x446AE0E136AD0000 PUSH2 0x1B51 PUSH2 0x1C7D JUMP JUMPDEST DUP2 MSTORE PUSH1 0x20 ADD PUSH1 0x0 DUP2 MSTORE PUSH1 0x20 ADD PUSH1 0x0 DUP2 MSTORE PUSH1 0x20 ADD PUSH1 0x0 DUP2 MSTORE PUSH1 0x20 ADD PUSH1 0x0 DUP2 MSTORE PUSH1 0x20 ADD PUSH1 0x0 DUP2 MSTORE PUSH1 0x20 ADD PUSH1 0x0 DUP2 MSTORE PUSH1 0x20 ADD PUSH1 0x0 DUP2 MSTORE PUSH1 0x20 ADD PUSH1 0x0 DUP2 MSTORE PUSH1 0x20 ADD PUSH1 0x0 DUP2 MSTORE PUSH1 0x20 ADD PUSH1 0x0 DUP2 MSTORE PUSH1 0x20 ADD PUSH1 0x0 DUP2 MSTORE PUSH1 0x20 ADD PUSH1 0x0 DUP2 MSTORE PUSH1 0x20 ADD PUSH1 0x0 DUP2 MSTORE PUSH1 0x20 ADD PUSH1 0x0 DUP2 MSTORE PUSH1 0x20 ADD PUSH1 0x0 DUP2 MSTORE PUSH1 0x20 ADD PUSH1 0x0 DUP2 MSTORE PUSH1 0x20 ADD PUSH1 0x0 DUP2 MSTORE PUSH1 0x20 ADD PUSH1 0x0 DUP2 MSTORE PUSH1 0x20 ADD PUSH1 0x0 DUP2 MSTORE PUSH1 0x20 ADD PUSH1 0x0 DUP2 MSTORE PUSH1 0x20 ADD PUSH1 0x0 DUP2 MSTORE PUSH1 0x20 ADD PUSH1 0x0 DUP2 MSTORE POP SWAP1 POP SWAP1 JUMP JUMPDEST PUSH2 0x38BD PUSH2 0x44DC JUMP JUMPDEST PUSH1 0x40 MLOAD DUP1 PUSH2 0x560 ADD PUSH1 0x40 MSTORE DUP1 PUSH2 0x38DE PUSH3 0xF4240 PUSH8 0xDE0B6B3A7640000 PUSH2 0x433C JUMP JUMPDEST DUP2 MSTORE PUSH1 0x20 ADD PUSH1 0x0 DUP2 MSTORE PUSH1 0x20 ADD PUSH1 0x0 DUP2 MSTORE PUSH1 0x20 ADD PUSH1 0x0 DUP2 MSTORE PUSH1 0x20 ADD PUSH2 0x390D PUSH3 0xF4240 PUSH8 0xDE0B6B3A7640000 PUSH2 0x433C JUMP JUMPDEST DUP2 MSTORE PUSH1 0x20 ADD PUSH1 0x0 DUP2 MSTORE PUSH1 0x20 ADD PUSH1 0x0 DUP2 MSTORE PUSH1 0x20 ADD PUSH2 0x3935 PUSH3 0xF4240 PUSH8 0xDE0B6B3A7640000 PUSH2 0x433C JUMP JUMPDEST DUP2 MSTORE PUSH1 0x20 ADD PUSH1 0x0 DUP2 MSTORE PUSH1 0x20 ADD PUSH1 0x0 DUP2 MSTORE PUSH1 0x20 ADD PUSH2 0x395D PUSH3 0xF4240 PUSH8 0xDE0B6B3A7640000 PUSH2 0x433C JUMP JUMPDEST DUP2 MSTORE PUSH1 0x20 ADD PUSH1 0x0 DUP2 MSTORE PUSH1 0x20 ADD PUSH1 0x0 DUP2 MSTORE PUSH1 0x20 ADD PUSH2 0x3985 PUSH3 0x51615 PUSH8 0xDE0B6B3A7640000 PUSH2 0x433C JUMP JUMPDEST DUP2 MSTORE PUSH1 0x20 ADD PUSH2 0x399F PUSH3 0x51615 PUSH8 0xDE0B6B3A7640000 PUSH2 0x433C JUMP JUMPDEST DUP2 MSTORE PUSH1 0x20 ADD PUSH2 0x39B9 PUSH3 0x51615 PUSH8 0xDE0B6B3A7640000 PUSH2 0x433C JUMP JUMPDEST DUP2 MSTORE PUSH1 0x20 ADD PUSH2 0x39D3 PUSH3 0x51615 PUSH8 0xDE0B6B3A7640000 PUSH2 0x433C JUMP JUMPDEST DUP2 MSTORE PUSH1 0x20 ADD PUSH2 0x39ED PUSH3 0x51615 PUSH8 0xDE0B6B3A7640000 PUSH2 0x433C JUMP JUMPDEST DUP2 MSTORE PUSH1 0x20 ADD PUSH2 0x3A07 PUSH3 0x51615 PUSH8 0xDE0B6B3A7640000 PUSH2 0x433C JUMP JUMPDEST DUP2 MSTORE PUSH1 0x20 ADD PUSH2 0x3A21 PUSH3 0x51615 PUSH8 0xDE0B6B3A7640000 PUSH2 0x433C JUMP JUMPDEST DUP2 MSTORE PUSH1 0x20 ADD PUSH2 0x3A3B PUSH3 0x51615 PUSH8 0xDE0B6B3A7640000 PUSH2 0x433C JUMP JUMPDEST DUP2 MSTORE PUSH1 0x20 ADD PUSH2 0x3A55 PUSH3 0x51615 PUSH8 0xDE0B6B3A7640000 PUSH2 0x433C JUMP JUMPDEST DUP2 MSTORE PUSH1 0x20 ADD PUSH2 0x3A6F PUSH3 0x51615 PUSH8 0xDE0B6B3A7640000 PUSH2 0x433C JUMP JUMPDEST DUP2 MSTORE PUSH1 0x20 ADD PUSH2 0x3A89 PUSH3 0x51615 PUSH8 0xDE0B6B3A7640000 PUSH2 0x433C JUMP JUMPDEST DUP2 MSTORE PUSH1 0x20 ADD PUSH2 0x3AA3 PUSH3 0x51615 PUSH8 0xDE0B6B3A7640000 PUSH2 0x433C JUMP JUMPDEST DUP2 MSTORE PUSH1 0x20 ADD PUSH2 0x3ABD PUSH3 0x51615 PUSH8 0xDE0B6B3A7640000 PUSH2 0x433C JUMP JUMPDEST DUP2 MSTORE PUSH1 0x20 ADD PUSH2 0x3AD7 PUSH3 0x51615 PUSH8 0xDE0B6B3A7640000 PUSH2 0x433C JUMP JUMPDEST DUP2 MSTORE PUSH1 0x20 ADD PUSH2 0x3AF1 PUSH3 0x51615 PUSH8 0xDE0B6B3A7640000 PUSH2 0x433C JUMP JUMPDEST DUP2 MSTORE PUSH1 0x20 ADD PUSH2 0x3B0B PUSH3 0x51615 PUSH8 0xDE0B6B3A7640000 PUSH2 0x433C JUMP JUMPDEST DUP2 MSTORE PUSH1 0x20 ADD PUSH2 0x3B25 PUSH3 0x51615 PUSH8 0xDE0B6B3A7640000 PUSH2 0x433C JUMP JUMPDEST DUP2 MSTORE PUSH1 0x20 ADD PUSH2 0x3B3F PUSH3 0x51615 PUSH8 0xDE0B6B3A7640000 PUSH2 0x433C JUMP JUMPDEST DUP2 MSTORE PUSH1 0x20 ADD PUSH2 0x3B59 PUSH3 0x51615 PUSH8 0xDE0B6B3A7640000 PUSH2 0x433C JUMP JUMPDEST DUP2 MSTORE PUSH1 0x20 ADD PUSH2 0x3B73 PUSH3 0x51615 PUSH8 0xDE0B6B3A7640000 PUSH2 0x433C JUMP JUMPDEST DUP2 MSTORE PUSH1 0x20 ADD PUSH2 0x3B8D PUSH3 0x51615 PUSH8 0xDE0B6B3A7640000 PUSH2 0x433C JUMP JUMPDEST DUP2 MSTORE PUSH1 0x20 ADD PUSH2 0x3BA7 PUSH3 0x51615 PUSH8 0xDE0B6B3A7640000 PUSH2 0x433C JUMP JUMPDEST DUP2 MSTORE PUSH1 0x20 ADD PUSH2 0x3BC1 PUSH3 0x51615 PUSH8 0xDE0B6B3A7640000 PUSH2 0x433C JUMP JUMPDEST DUP2 MSTORE PUSH1 0x20 ADD PUSH2 0x3BDB PUSH3 0x51615 PUSH8 0xDE0B6B3A7640000 PUSH2 0x433C JUMP JUMPDEST DUP2 MSTORE PUSH1 0x20 ADD PUSH2 0x3BF5 PUSH3 0x51615 PUSH8 0xDE0B6B3A7640000 PUSH2 0x433C JUMP JUMPDEST DUP2 MSTORE PUSH1 0x20 ADD PUSH2 0x3C0F PUSH3 0x51615 PUSH8 0xDE0B6B3A7640000 PUSH2 0x433C JUMP JUMPDEST DUP2 MSTORE PUSH1 0x20 ADD PUSH2 0x3C29 PUSH3 0x51615 PUSH8 0xDE0B6B3A7640000 PUSH2 0x433C JUMP JUMPDEST DUP2 MSTORE PUSH1 0x20 ADD PUSH2 0x3C43 PUSH3 0x51615 PUSH8 0xDE0B6B3A7640000 PUSH2 0x433C JUMP JUMPDEST DUP2 MSTORE PUSH1 0x20 ADD PUSH2 0x3C5D PUSH3 0x51615 PUSH8 0xDE0B6B3A7640000 PUSH2 0x433C JUMP JUMPDEST DUP2 MSTORE PUSH1 0x20 ADD PUSH2 0x218E PUSH3 0x51615 PUSH8 0xDE0B6B3A7640000 PUSH2 0x433C JUMP JUMPDEST PUSH1 0x5 SLOAD PUSH1 0x1 PUSH1 0x1 PUSH1 0xA0 SHL SUB AND CALLER EQ PUSH2 0x3CA1 JUMPI PUSH1 0x40 MLOAD PUSH3 0x461BCD PUSH1 0xE5 SHL DUP2 MSTORE PUSH1 0x4 ADD PUSH2 0x941 SWAP1 PUSH2 0x4758 JUMP JUMPDEST PUSH1 0x9 SLOAD TIMESTAMP LT ISZERO PUSH2 0x3CC3 JUMPI PUSH1 0x40 MLOAD PUSH3 0x461BCD PUSH1 0xE5 SHL DUP2 MSTORE PUSH1 0x4 ADD PUSH2 0x941 SWAP1 PUSH2 0x478D JUMP JUMPDEST DUP1 PUSH2 0x3D0A JUMPI PUSH1 0x40 MLOAD PUSH3 0x461BCD PUSH1 0xE5 SHL DUP2 MSTORE PUSH1 0x20 PUSH1 0x4 DUP3 ADD MSTORE PUSH1 0x17 PUSH1 0x24 DUP3 ADD MSTORE PUSH23 0x416D6F756E74206D696E742063616E6E6F74206265203 PUSH1 0x4C SHL PUSH1 0x44 DUP3 ADD MSTORE PUSH1 0x64 ADD PUSH2 0x941 JUMP JUMPDEST ADDRESS PUSH1 0x0 SWAP1 DUP2 MSTORE PUSH1 0xA PUSH1 0x20 MSTORE PUSH1 0x40 SWAP1 KECCAK256 SLOAD PUSH2 0x3D24 SWAP1 DUP3 PUSH2 0x1C90 JUMP JUMPDEST ADDRESS PUSH1 0x0 SWAP1 DUP2 MSTORE PUSH1 0xA PUSH1 0x20 MSTORE PUSH1 0x40 SWAP1 KECCAK256 SSTORE PUSH1 0xE SLOAD PUSH2 0x9F6 SWAP1 DUP3 PUSH2 0x1C90 JUMP JUMPDEST PUSH1 0x0 DUP3 PUSH1 0x20 ADD MLOAD PUSH1 0x0 EQ ISZERO PUSH2 0x3D58 JUMPI POP PUSH1 0x0 PUSH2 0x911 JUMP JUMPDEST PUSH11 0x52B7D2DCC80CD2E4000000 PUSH2 0x3D71 DUP5 PUSH1 0x40 ADD MLOAD PUSH2 0x43BE JUMP JUMPDEST PUSH1 0x80 DUP6 ADD MLOAD PUSH2 0x3D80 SWAP1 DUP6 PUSH2 0x495A JUMP JUMPDEST PUSH2 0x3D8A SWAP2 SWAP1 PUSH2 0x495A JUMP JUMPDEST PUSH2 0x1C89 SWAP2 SWAP1 PUSH2 0x4921 JUMP JUMPDEST CALLER PUSH1 0x0 SWAP1 DUP2 MSTORE PUSH1 0x8 PUSH1 0x20 MSTORE PUSH1 0x40 DUP2 KECCAK256 SLOAD PUSH1 0x7 DUP1 SLOAD DUP4 SWAP3 SWAP2 DUP4 SWAP2 DUP4 SWAP1 DUP2 LT PUSH2 0x3DBD JUMPI PUSH2 0x3DBD PUSH2 0x48F5 JUMP JUMPDEST SWAP1 PUSH1 0x0 MSTORE PUSH1 0x20 PUSH1 0x0 KECCAK256 SWAP1 PUSH1 0x2 MUL ADD PUSH1 0x1 ADD DUP6 DUP2 SLOAD DUP2 LT PUSH2 0x3DDF JUMPI PUSH2 0x3DDF PUSH2 0x48F5 JUMP JUMPDEST PUSH1 0x0 SWAP2 DUP3 MSTORE PUSH1 0x20 SWAP2 DUP3 SWAP1 KECCAK256 PUSH1 0x40 DUP1 MLOAD PUSH1 0xC0 DUP2 ADD DUP3 MSTORE PUSH1 0x6 SWAP1 SWAP4 MUL SWAP1 SWAP2 ADD DUP1 SLOAD PUSH1 0x1 PUSH1 0x1 PUSH1 0xA0 SHL SUB AND DUP4 MSTORE PUSH1 0x1 DUP2 ADD SLOAD SWAP4 DUP4 ADD DUP5 SWAP1 MSTORE PUSH1 0x2 DUP2 ADD SLOAD SWAP2 DUP4 ADD SWAP2 SWAP1 SWAP2 MSTORE PUSH1 0x3 DUP2 ADD SLOAD PUSH1 0x60 DUP4 ADD MSTORE PUSH1 0x4 DUP2 ADD SLOAD PUSH1 0x80 DUP4 ADD MSTORE PUSH1 0x5 ADD SLOAD PUSH1 0xA0 DUP3 ADD MSTORE SWAP2 POP DUP7 GT ISZERO PUSH2 0x3EAA JUMPI PUSH1 0x40 MLOAD PUSH3 0x461BCD PUSH1 0xE5 SHL DUP2 MSTORE PUSH1 0x20 PUSH1 0x4 DUP3 ADD MSTORE PUSH1 0x33 PUSH1 0x24 DUP3 ADD MSTORE PUSH32 0x5374616B61626C653A2043616E6E6F74207769746864726177206D6F72652074 PUSH1 0x44 DUP3 ADD MSTORE PUSH19 0x1A185B881E5BDD481A185D99481CDD185AD959 PUSH1 0x6A SHL PUSH1 0x64 DUP3 ADD MSTORE PUSH1 0x84 ADD PUSH2 0x941 JUMP JUMPDEST PUSH1 0x0 PUSH2 0x3EB6 DUP3 DUP9 PUSH2 0x3D41 JUMP JUMPDEST SWAP1 POP TIMESTAMP DUP3 PUSH1 0xA0 ADD MLOAD LT ISZERO PUSH2 0x3EDA JUMPI PUSH2 0x3ECE DUP8 DUP3 PUSH2 0x4453 JUMP JUMPDEST SWAP5 POP SWAP5 POP POP POP POP PUSH2 0x407B JUMP JUMPDEST PUSH1 0x0 DUP3 PUSH1 0x40 ADD MLOAD DUP4 PUSH1 0xA0 ADD MLOAD PUSH2 0x3EF0 SWAP2 SWAP1 PUSH2 0x4943 JUMP JUMPDEST SWAP1 POP DUP8 DUP4 PUSH1 0x20 ADD MLOAD PUSH2 0x3F02 SWAP2 SWAP1 PUSH2 0x4943 JUMP JUMPDEST PUSH1 0x20 DUP5 ADD DUP2 SWAP1 MSTORE PUSH2 0x3F84 JUMPI PUSH1 0x7 DUP5 DUP2 SLOAD DUP2 LT PUSH2 0x3F20 JUMPI PUSH2 0x3F20 PUSH2 0x48F5 JUMP JUMPDEST SWAP1 PUSH1 0x0 MSTORE PUSH1 0x20 PUSH1 0x0 KECCAK256 SWAP1 PUSH1 0x2 MUL ADD PUSH1 0x1 ADD DUP8 DUP2 SLOAD DUP2 LT PUSH2 0x3F42 JUMPI PUSH2 0x3F42 PUSH2 0x48F5 JUMP JUMPDEST PUSH1 0x0 SWAP2 DUP3 MSTORE PUSH1 0x20 DUP3 KECCAK256 PUSH1 0x6 SWAP1 SWAP2 MUL ADD DUP1 SLOAD PUSH1 0x1 PUSH1 0x1 PUSH1 0xA0 SHL SUB NOT AND DUP2 SSTORE PUSH1 0x1 DUP2 ADD DUP3 SWAP1 SSTORE PUSH1 0x2 DUP2 ADD DUP3 SWAP1 SSTORE PUSH1 0x3 DUP2 ADD DUP3 SWAP1 SSTORE PUSH1 0x4 DUP2 ADD DUP3 SWAP1 SSTORE PUSH1 0x5 ADD SSTORE PUSH2 0x4072 JUMP JUMPDEST DUP3 PUSH1 0x20 ADD MLOAD PUSH1 0x7 DUP6 DUP2 SLOAD DUP2 LT PUSH2 0x3F9C JUMPI PUSH2 0x3F9C PUSH2 0x48F5 JUMP JUMPDEST SWAP1 PUSH1 0x0 MSTORE PUSH1 0x20 PUSH1 0x0 KECCAK256 SWAP1 PUSH1 0x2 MUL ADD PUSH1 0x1 ADD DUP9 DUP2 SLOAD DUP2 LT PUSH2 0x3FBE JUMPI PUSH2 0x3FBE PUSH2 0x48F5 JUMP JUMPDEST SWAP1 PUSH1 0x0 MSTORE PUSH1 0x20 PUSH1 0x0 KECCAK256 SWAP1 PUSH1 0x6 MUL ADD PUSH1 0x1 ADD DUP2 SWAP1 SSTORE POP TIMESTAMP PUSH1 0x7 DUP6 DUP2 SLOAD DUP2 LT PUSH2 0x3FE7 JUMPI PUSH2 0x3FE7 PUSH2 0x48F5 JUMP JUMPDEST SWAP1 PUSH1 0x0 MSTORE PUSH1 0x20 PUSH1 0x0 KECCAK256 SWAP1 PUSH1 0x2 MUL ADD PUSH1 0x1 ADD DUP9 DUP2 SLOAD DUP2 LT PUSH2 0x4009 JUMPI PUSH2 0x4009 PUSH2 0x48F5 JUMP JUMPDEST PUSH1 0x0 SWAP2 DUP3 MSTORE PUSH1 0x20 SWAP1 SWAP2 KECCAK256 PUSH1 0x2 PUSH1 0x6 SWAP1 SWAP3 MUL ADD ADD SSTORE PUSH2 0x4027 DUP2 TIMESTAMP PUSH2 0x483E JUMP JUMPDEST PUSH1 0x7 DUP6 DUP2 SLOAD DUP2 LT PUSH2 0x403A JUMPI PUSH2 0x403A PUSH2 0x48F5 JUMP JUMPDEST SWAP1 PUSH1 0x0 MSTORE PUSH1 0x20 PUSH1 0x0 KECCAK256 SWAP1 PUSH1 0x2 MUL ADD PUSH1 0x1 ADD DUP9 DUP2 SLOAD DUP2 LT PUSH2 0x405C JUMPI PUSH2 0x405C PUSH2 0x48F5 JUMP JUMPDEST SWAP1 PUSH1 0x0 MSTORE PUSH1 0x20 PUSH1 0x0 KECCAK256 SWAP1 PUSH1 0x6 MUL ADD PUSH1 0x5 ADD DUP2 SWAP1 SSTORE POP JUMPDEST POP DUP7 SWAP5 POP SWAP3 POP POP POP JUMPDEST SWAP3 POP SWAP3 SWAP1 POP JUMP JUMPDEST PUSH1 0x1 PUSH1 0x1 PUSH1 0xA0 SHL SUB DUP3 AND PUSH2 0x40D8 JUMPI PUSH1 0x40 MLOAD PUSH3 0x461BCD PUSH1 0xE5 SHL DUP2 MSTORE PUSH1 0x20 PUSH1 0x4 DUP3 ADD MSTORE PUSH1 0x1F PUSH1 0x24 DUP3 ADD MSTORE PUSH32 0x45524332303A206D696E7420746F20746865207A65726F206164647265737300 PUSH1 0x44 DUP3 ADD MSTORE PUSH1 0x64 ADD PUSH2 0x941 JUMP JUMPDEST DUP1 PUSH1 0x2 PUSH1 0x0 DUP3 DUP3 SLOAD PUSH2 0x40EA SWAP2 SWAP1 PUSH2 0x483E JUMP JUMPDEST SWAP1 SWAP2 SSTORE POP POP PUSH1 0x1 PUSH1 0x1 PUSH1 0xA0 SHL SUB DUP3 AND PUSH1 0x0 SWAP1 DUP2 MSTORE PUSH1 0x20 DUP2 SWAP1 MSTORE PUSH1 0x40 DUP2 KECCAK256 DUP1 SLOAD DUP4 SWAP3 SWAP1 PUSH2 0x4117 SWAP1 DUP5 SWAP1 PUSH2 0x483E JUMP JUMPDEST SWAP1 SWAP2 SSTORE POP POP PUSH1 0x40 MLOAD DUP2 DUP2 MSTORE PUSH1 0x1 PUSH1 0x1 PUSH1 0xA0 SHL SUB DUP4 AND SWAP1 PUSH1 0x0 SWAP1 PUSH32 0xDDF252AD1BE2C89B69C2B068FC378DAA952BA7F163C4A11628F55A4DF523B3EF SWAP1 PUSH1 0x20 ADD PUSH1 0x40 MLOAD DUP1 SWAP2 SUB SWAP1 LOG3 POP POP JUMP JUMPDEST CALLER PUSH1 0x0 SWAP1 DUP2 MSTORE PUSH1 0x8 PUSH1 0x20 MSTORE PUSH1 0x40 DUP2 KECCAK256 SLOAD PUSH1 0x7 DUP1 SLOAD DUP4 SWAP3 SWAP2 DUP4 SWAP2 DUP4 SWAP1 DUP2 LT PUSH2 0x418A JUMPI PUSH2 0x418A PUSH2 0x48F5 JUMP JUMPDEST SWAP1 PUSH1 0x0 MSTORE PUSH1 0x20 PUSH1 0x0 KECCAK256 SWAP1 PUSH1 0x2 MUL ADD PUSH1 0x1 ADD DUP6 DUP2 SLOAD DUP2 LT PUSH2 0x41AC JUMPI PUSH2 0x41AC PUSH2 0x48F5 JUMP JUMPDEST PUSH1 0x0 SWAP2 DUP3 MSTORE PUSH1 0x20 SWAP2 DUP3 SWAP1 KECCAK256 PUSH1 0x40 DUP1 MLOAD PUSH1 0xC0 DUP2 ADD DUP3 MSTORE PUSH1 0x6 SWAP1 SWAP4 MUL SWAP1 SWAP2 ADD DUP1 SLOAD PUSH1 0x1 PUSH1 0x1 PUSH1 0xA0 SHL SUB AND DUP4 MSTORE PUSH1 0x1 DUP2 ADD SLOAD SWAP4 DUP4 ADD DUP5 SWAP1 MSTORE PUSH1 0x2 DUP2 ADD SLOAD SWAP2 DUP4 ADD SWAP2 SWAP1 SWAP2 MSTORE PUSH1 0x3 DUP2 ADD SLOAD PUSH1 0x60 DUP4 ADD MSTORE PUSH1 0x4 DUP2 ADD SLOAD PUSH1 0x80 DUP4 ADD MSTORE PUSH1 0x5 ADD SLOAD PUSH1 0xA0 DUP3 ADD MSTORE SWAP2 POP PUSH2 0x4288 JUMPI PUSH1 0x40 MLOAD PUSH3 0x461BCD PUSH1 0xE5 SHL DUP2 MSTORE PUSH1 0x20 PUSH1 0x4 DUP3 ADD MSTORE PUSH1 0x41 PUSH1 0x24 DUP3 ADD MSTORE PUSH32 0x5374616B61626C653A2043616E6E6F742077697468647261772C20796F752064 PUSH1 0x44 DUP3 ADD MSTORE PUSH32 0x6F6E2774206861766520616E79207374616B6520696E207468697320496E6465 PUSH1 0x64 DUP3 ADD MSTORE PUSH1 0xF PUSH1 0xFB SHL PUSH1 0x84 DUP3 ADD MSTORE PUSH1 0xA4 ADD PUSH2 0x941 JUMP JUMPDEST PUSH1 0x20 DUP2 ADD MLOAD PUSH1 0x0 PUSH2 0x4299 DUP4 DUP4 PUSH2 0x3D41 JUMP JUMPDEST SWAP1 POP TIMESTAMP DUP4 PUSH1 0xA0 ADD MLOAD LT ISZERO PUSH2 0x42BE JUMPI PUSH2 0x42B1 DUP3 DUP3 PUSH2 0x4453 JUMP JUMPDEST SWAP6 POP SWAP6 POP POP POP POP POP SWAP2 POP SWAP2 JUMP JUMPDEST PUSH1 0x7 DUP5 DUP2 SLOAD DUP2 LT PUSH2 0x42D1 JUMPI PUSH2 0x42D1 PUSH2 0x48F5 JUMP JUMPDEST SWAP1 PUSH1 0x0 MSTORE PUSH1 0x20 PUSH1 0x0 KECCAK256 SWAP1 PUSH1 0x2 MUL ADD PUSH1 0x1 ADD DUP8 DUP2 SLOAD DUP2 LT PUSH2 0x42F3 JUMPI PUSH2 0x42F3 PUSH2 0x48F5 JUMP JUMPDEST PUSH1 0x0 SWAP2 DUP3 MSTORE PUSH1 0x20 DUP3 KECCAK256 PUSH1 0x6 SWAP1 SWAP2 MUL ADD DUP1 SLOAD PUSH1 0x1 PUSH1 0x1 PUSH1 0xA0 SHL SUB NOT AND DUP2 SSTORE PUSH1 0x1 DUP2 ADD DUP3 SWAP1 SSTORE PUSH1 0x2 DUP2 ADD DUP3 SWAP1 SSTORE PUSH1 0x3 DUP2 ADD DUP3 SWAP1 SSTORE PUSH1 0x4 DUP2 ADD DUP3 SWAP1 SSTORE PUSH1 0x5 ADD SSTORE SWAP1 SWAP7 SWAP1 SWAP6 POP SWAP4 POP POP POP POP JUMP JUMPDEST PUSH1 0x0 PUSH2 0x1C89 DUP3 DUP5 PUSH2 0x495A JUMP JUMPDEST PUSH1 0x7 DUP1 SLOAD PUSH1 0x1 SWAP1 DUP2 ADD DUP1 DUP4 SSTORE PUSH1 0x0 SWAP3 DUP4 MSTORE DUP3 SWAP2 PUSH2 0x4364 SWAP2 PUSH2 0x4943 JUMP JUMPDEST SWAP1 POP DUP3 PUSH1 0x7 DUP3 DUP2 SLOAD DUP2 LT PUSH2 0x437A JUMPI PUSH2 0x437A PUSH2 0x48F5 JUMP JUMPDEST PUSH1 0x0 SWAP2 DUP3 MSTORE PUSH1 0x20 DUP1 DUP4 KECCAK256 PUSH1 0x2 SWAP3 SWAP1 SWAP3 MUL SWAP1 SWAP2 ADD DUP1 SLOAD PUSH1 0x1 PUSH1 0x1 PUSH1 0xA0 SHL SUB NOT AND PUSH1 0x1 PUSH1 0x1 PUSH1 0xA0 SHL SUB SWAP5 DUP6 AND OR SWAP1 SSTORE SWAP5 SWAP1 SWAP2 AND DUP2 MSTORE PUSH1 0x8 SWAP1 SWAP4 MSTORE PUSH1 0x40 SWAP1 SWAP3 KECCAK256 DUP3 SWAP1 SSTORE POP SWAP1 JUMP JUMPDEST PUSH1 0x0 DUP1 DUP3 GT PUSH2 0x440F JUMPI PUSH1 0x40 MLOAD PUSH3 0x461BCD PUSH1 0xE5 SHL DUP2 MSTORE PUSH1 0x20 PUSH1 0x4 DUP3 ADD MSTORE PUSH1 0x1B PUSH1 0x24 DUP3 ADD MSTORE PUSH32 0x5374616B61626C653A204572726F722074696D657374616D7020300000000000 PUSH1 0x44 DUP3 ADD MSTORE PUSH1 0x64 ADD PUSH2 0x941 JUMP JUMPDEST PUSH2 0x911 PUSH2 0x441C DUP4 TIMESTAMP PUSH2 0x4943 JUMP JUMPDEST PUSH2 0x4430 SWAP1 PUSH10 0xD3C21BCECCEDA1000000 PUSH2 0x495A JUMP JUMPDEST PUSH4 0x1E13380 PUSH1 0x40 MLOAD DUP1 PUSH1 0x60 ADD PUSH1 0x40 MSTORE DUP1 PUSH1 0x27 DUP2 MSTORE PUSH1 0x20 ADD PUSH2 0x497A PUSH1 0x27 SWAP2 CODECOPY PUSH2 0x44A2 JUMP JUMPDEST PUSH1 0x0 DUP1 DUP4 PUSH2 0x4466 JUMPI POP PUSH1 0x0 SWAP1 POP DUP1 PUSH2 0x407B JUMP JUMPDEST PUSH2 0x4481 DUP5 PUSH2 0x447C DUP7 PUSH2 0x230E PUSH1 0x6 SLOAD PUSH2 0x3E8 PUSH2 0x1C7D JUMP JUMPDEST PUSH2 0x1DC0 JUMP JUMPDEST PUSH2 0x4497 DUP5 PUSH2 0x447C DUP7 PUSH2 0x230E PUSH1 0x6 SLOAD PUSH2 0x3E8 PUSH2 0x1C7D JUMP JUMPDEST SWAP2 POP SWAP2 POP SWAP3 POP SWAP3 SWAP1 POP JUMP JUMPDEST PUSH1 0x0 DUP2 DUP4 PUSH2 0x44C3 JUMPI PUSH1 0x40 MLOAD PUSH3 0x461BCD PUSH1 0xE5 SHL DUP2 MSTORE PUSH1 0x4 ADD PUSH2 0x941 SWAP2 SWAP1 PUSH2 0x44FB JUMP JUMPDEST POP DUP3 DUP5 DUP2 PUSH2 0x44D3 JUMPI PUSH2 0x44D3 PUSH2 0x490B JUMP JUMPDEST DIV SWAP5 SWAP4 POP POP POP POP JUMP JUMPDEST PUSH1 0x40 MLOAD DUP1 PUSH2 0x560 ADD PUSH1 0x40 MSTORE DUP1 PUSH1 0x2B SWAP1 PUSH1 0x20 DUP3 MUL DUP1 CALLDATASIZE DUP4 CALLDATACOPY POP SWAP2 SWAP3 SWAP2 POP POP JUMP JUMPDEST PUSH1 0x0 PUSH1 0x20 DUP1 DUP4 MSTORE DUP4 MLOAD DUP1 DUP3 DUP6 ADD MSTORE PUSH1 0x0 JUMPDEST DUP2 DUP2 LT ISZERO PUSH2 0x4528 JUMPI DUP6 DUP2 ADD DUP4 ADD MLOAD DUP6 DUP3 ADD PUSH1 0x40 ADD MSTORE DUP3 ADD PUSH2 0x450C JUMP JUMPDEST DUP2 DUP2 GT ISZERO PUSH2 0x453A JUMPI PUSH1 0x0 PUSH1 0x40 DUP4 DUP8 ADD ADD MSTORE JUMPDEST POP PUSH1 0x1F ADD PUSH1 0x1F NOT AND SWAP3 SWAP1 SWAP3 ADD PUSH1 0x40 ADD SWAP4 SWAP3 POP POP POP JUMP JUMPDEST PUSH1 0x1 PUSH1 0x1 PUSH1 0xA0 SHL SUB DUP2 AND DUP2 EQ PUSH2 0xCCE JUMPI PUSH1 0x0 DUP1 REVERT JUMPDEST PUSH1 0x0 DUP1 PUSH1 0x40 DUP4 DUP6 SUB SLT ISZERO PUSH2 0x4578 JUMPI PUSH1 0x0 DUP1 REVERT JUMPDEST DUP3 CALLDATALOAD PUSH2 0x4583 DUP2 PUSH2 0x4550 JUMP JUMPDEST SWAP5 PUSH1 0x20 SWAP4 SWAP1 SWAP4 ADD CALLDATALOAD SWAP4 POP POP POP JUMP JUMPDEST PUSH1 0x0 PUSH1 0x20 DUP3 DUP5 SUB SLT ISZERO PUSH2 0x45A3 JUMPI PUSH1 0x0 DUP1 REVERT JUMPDEST POP CALLDATALOAD SWAP2 SWAP1 POP JUMP JUMPDEST PUSH1 0x0 DUP1 PUSH1 0x0 PUSH1 0x60 DUP5 DUP7 SUB SLT ISZERO PUSH2 0x45BF JUMPI PUSH1 0x0 DUP1 REVERT JUMPDEST DUP4 CALLDATALOAD PUSH2 0x45CA DUP2 PUSH2 0x4550 JUMP JUMPDEST SWAP3 POP PUSH1 0x20 DUP5 ADD CALLDATALOAD PUSH2 0x45DA DUP2 PUSH2 0x4550 JUMP JUMPDEST SWAP3 SWAP6 SWAP3 SWAP5 POP POP POP PUSH1 0x40 SWAP2 SWAP1 SWAP2 ADD CALLDATALOAD SWAP1 JUMP JUMPDEST PUSH1 0x0 PUSH1 0x20 DUP3 DUP5 SUB SLT ISZERO PUSH2 0x45FD JUMPI PUSH1 0x0 DUP1 REVERT JUMPDEST DUP2 CALLDATALOAD PUSH2 0x1C89 DUP2 PUSH2 0x4550 JUMP JUMPDEST PUSH1 0x0 DUP1 PUSH1 0x40 DUP4 DUP6 SUB SLT ISZERO PUSH2 0x461B JUMPI PUSH1 0x0 DUP1 REVERT JUMPDEST POP POP DUP1 CALLDATALOAD SWAP3 PUSH1 0x20 SWAP1 SWAP2 ADD CALLDATALOAD SWAP2 POP JUMP JUMPDEST PUSH1 0x0 PUSH1 0x20 DUP3 DUP5 SUB SLT ISZERO PUSH2 0x463C JUMPI PUSH1 0x0 DUP1 REVERT JUMPDEST DUP2 CALLDATALOAD PUSH2 0xFFFF DUP2 AND DUP2 EQ PUSH2 0x1C89 JUMPI PUSH1 0x0 DUP1 REVERT JUMPDEST PUSH1 0x0 PUSH1 0x20 DUP1 DUP4 MSTORE PUSH1 0x60 DUP1 DUP5 ADD DUP6 MLOAD DUP4 DUP7 ADD MSTORE DUP3 DUP7 ADD MLOAD PUSH1 0x40 DUP1 DUP2 DUP9 ADD MSTORE DUP3 DUP3 MLOAD DUP1 DUP6 MSTORE PUSH1 0x80 SWAP5 POP DUP5 DUP10 ADD SWAP2 POP DUP7 DUP5 ADD SWAP4 POP PUSH1 0x0 JUMPDEST DUP2 DUP2 LT ISZERO PUSH2 0x46D5 JUMPI DUP5 MLOAD DUP1 MLOAD PUSH1 0x1 PUSH1 0x1 PUSH1 0xA0 SHL SUB AND DUP5 MSTORE DUP9 DUP2 ADD MLOAD DUP10 DUP6 ADD MSTORE DUP5 DUP2 ADD MLOAD DUP6 DUP6 ADD MSTORE DUP8 DUP2 ADD MLOAD DUP9 DUP6 ADD MSTORE DUP7 DUP2 ADD MLOAD DUP8 DUP6 ADD MSTORE PUSH1 0xA0 SWAP1 DUP2 ADD MLOAD SWAP1 DUP5 ADD MSTORE SWAP4 DUP8 ADD SWAP4 PUSH1 0xC0 SWAP1 SWAP3 ADD SWAP2 PUSH1 0x1 ADD PUSH2 0x4682 JUMP JUMPDEST POP SWAP1 SWAP10 SWAP9 POP POP POP POP POP POP POP POP POP JUMP JUMPDEST PUSH1 0x0 DUP1 PUSH1 0x40 DUP4 DUP6 SUB SLT ISZERO PUSH2 0x46F7 JUMPI PUSH1 0x0 DUP1 REVERT JUMPDEST DUP3 CALLDATALOAD PUSH2 0x4702 DUP2 PUSH2 0x4550 JUMP JUMPDEST SWAP2 POP PUSH1 0x20 DUP4 ADD CALLDATALOAD PUSH2 0x4712 DUP2 PUSH2 0x4550 JUMP JUMPDEST DUP1 SWAP2 POP POP SWAP3 POP SWAP3 SWAP1 POP JUMP JUMPDEST PUSH1 0x1 DUP2 DUP2 SHR SWAP1 DUP3 AND DUP1 PUSH2 0x4731 JUMPI PUSH1 0x7F DUP3 AND SWAP2 POP JUMPDEST PUSH1 0x20 DUP3 LT DUP2 EQ ISZERO PUSH2 0x4752 JUMPI PUSH4 0x4E487B71 PUSH1 0xE0 SHL PUSH1 0x0 MSTORE PUSH1 0x22 PUSH1 0x4 MSTORE PUSH1 0x24 PUSH1 0x0 REVERT JUMPDEST POP SWAP2 SWAP1 POP JUMP JUMPDEST PUSH1 0x20 DUP1 DUP3 MSTORE DUP2 DUP2 ADD MSTORE PUSH32 0x4F776E61626C653A2063616C6C6572206973206E6F7420746865206F776E6572 PUSH1 0x40 DUP3 ADD MSTORE PUSH1 0x60 ADD SWAP1 JUMP JUMPDEST PUSH1 0x20 DUP1 DUP3 MSTORE PUSH1 0x6F SWAP1 DUP3 ADD MSTORE PUSH32 0x54696D656C6F636B3A2041646D696E6973747261746976652066756E6374696F PUSH1 0x40 DUP3 ADD MSTORE PUSH32 0x6E732063616E6E6F742062652063616C6C656420696E20746869732054696D65 PUSH1 0x60 DUP3 ADD MSTORE PUSH32 0x4C6F636B20706572696F642028343820686F757273292C20706C656173652074 PUSH1 0x80 DUP3 ADD MSTORE PUSH15 0x393C9030B3B0B4B7103630BA32B917 PUSH1 0x89 SHL PUSH1 0xA0 DUP3 ADD MSTORE PUSH1 0xC0 ADD SWAP1 JUMP JUMPDEST PUSH4 0x4E487B71 PUSH1 0xE0 SHL PUSH1 0x0 MSTORE PUSH1 0x11 PUSH1 0x4 MSTORE PUSH1 0x24 PUSH1 0x0 REVERT JUMPDEST PUSH1 0x0 DUP3 NOT DUP3 GT ISZERO PUSH2 0x4851 JUMPI PUSH2 0x4851 PUSH2 0x4828 JUMP JUMPDEST POP ADD SWAP1 JUMP JUMPDEST PUSH1 0x0 PUSH1 0x20 DUP3 DUP5 SUB SLT ISZERO PUSH2 0x4868 JUMPI PUSH1 0x0 DUP1 REVERT JUMPDEST DUP2 MLOAD PUSH2 0x1C89 DUP2 PUSH2 0x4550 JUMP JUMPDEST PUSH1 0x20 DUP1 DUP3 MSTORE PUSH1 0x1D SWAP1 DUP3 ADD MSTORE PUSH32 0x54616C6178546F6B656E3A2057616C6C6574204F776E6572204F6E6C79000000 PUSH1 0x40 DUP3 ADD MSTORE PUSH1 0x60 ADD SWAP1 JUMP JUMPDEST PUSH2 0x560 DUP2 ADD DUP2 DUP4 PUSH1 0x0 JUMPDEST PUSH1 0x2B DUP2 LT ISZERO PUSH2 0x48D3 JUMPI DUP2 MLOAD DUP4 MSTORE PUSH1 0x20 SWAP3 DUP4 ADD SWAP3 SWAP1 SWAP2 ADD SWAP1 PUSH1 0x1 ADD PUSH2 0x48B4 JUMP JUMPDEST POP POP POP SWAP3 SWAP2 POP POP JUMP JUMPDEST PUSH1 0x0 PUSH1 0x20 DUP3 DUP5 SUB SLT ISZERO PUSH2 0x48EE JUMPI PUSH1 0x0 DUP1 REVERT JUMPDEST POP MLOAD SWAP2 SWAP1 POP JUMP JUMPDEST PUSH4 0x4E487B71 PUSH1 0xE0 SHL PUSH1 0x0 MSTORE PUSH1 0x32 PUSH1 0x4 MSTORE PUSH1 0x24 PUSH1 0x0 REVERT JUMPDEST PUSH4 0x4E487B71 PUSH1 0xE0 SHL PUSH1 0x0 MSTORE PUSH1 0x12 PUSH1 0x4 MSTORE PUSH1 0x24 PUSH1 0x0 REVERT JUMPDEST PUSH1 0x0 DUP3 PUSH2 0x493E JUMPI PUSH4 0x4E487B71 PUSH1 0xE0 SHL PUSH1 0x0 MSTORE PUSH1 0x12 PUSH1 0x4 MSTORE PUSH1 0x24 PUSH1 0x0 REVERT JUMPDEST POP DIV SWAP1 JUMP JUMPDEST PUSH1 0x0 DUP3 DUP3 LT ISZERO PUSH2 0x4955 JUMPI PUSH2 0x4955 PUSH2 0x4828 JUMP JUMPDEST POP SUB SWAP1 JUMP JUMPDEST PUSH1 0x0 DUP2 PUSH1 0x0 NOT DIV DUP4 GT DUP3 ISZERO ISZERO AND ISZERO PUSH2 0x4974 JUMPI PUSH2 0x4974 PUSH2 0x4828 JUMP JUMPDEST POP MUL SWAP1 JUMP INVALID MSTORE8 PUSH21 0x616B61626C653A204572726F722063616E6E6F7420 PUSH5 0x6976696465 KECCAK256 PUSH21 0x696D657374616D7054616C6178546F6B656E3A2074 PUSH19 0x616E7366657220657863656564732062616C61 PUSH15 0x636554616C6178546F6B656E3A2074 PUSH19 0x616E73666572206578636565647320616C6C6F PUSH24 0x616E6365A2646970667358221220B80126267EC0FB14983F ADD 0xA6 PUSH1 0xE9 JUMPI PUSH27 0xB901A5A33E04F4BF3DF0528128D84BF64736F6C634300080B0033 PUSH1 0xA0 PUSH1 0x40 MSTORE CALLVALUE DUP1 ISZERO PUSH2 0x10 JUMPI PUSH1 0x0 DUP1 REVERT JUMPDEST POP PUSH1 0x40 MLOAD PUSH2 0x599 CODESIZE SUB DUP1 PUSH2 0x599 DUP4 CODECOPY DUP2 ADD PUSH1 0x40 DUP2 SWAP1 MSTORE PUSH2 0x2F SWAP2 PUSH2 0xB3 JUMP JUMPDEST PUSH1 0x0 DUP3 GT PUSH2 0x98 JUMPI PUSH1 0x40 MLOAD PUSH3 0x461BCD PUSH1 0xE5 SHL DUP2 MSTORE PUSH1 0x20 PUSH1 0x4 DUP3 ADD MSTORE PUSH1 0x2C PUSH1 0x24 DUP3 ADD MSTORE PUSH32 0x546F6B656E54696D654C6F636B3A20416D6F756E74206D757374206772656174 PUSH1 0x44 DUP3 ADD MSTORE PUSH12 0x6572207468616E207A65726F PUSH1 0xA0 SHL PUSH1 0x64 DUP3 ADD MSTORE PUSH1 0x84 ADD PUSH1 0x40 MLOAD DUP1 SWAP2 SUB SWAP1 REVERT JUMPDEST PUSH1 0x0 SWAP2 SWAP1 SWAP2 SSTORE PUSH1 0x1 PUSH1 0x1 PUSH1 0xA0 SHL SUB AND PUSH1 0x80 MSTORE TIMESTAMP PUSH1 0x1 SSTORE PUSH2 0xF0 JUMP JUMPDEST PUSH1 0x0 DUP1 PUSH1 0x40 DUP4 DUP6 SUB SLT ISZERO PUSH2 0xC6 JUMPI PUSH1 0x0 DUP1 REVERT JUMPDEST DUP3 MLOAD PUSH1 0x20 DUP5 ADD MLOAD SWAP1 SWAP3 POP PUSH1 0x1 PUSH1 0x1 PUSH1 0xA0 SHL SUB DUP2 AND DUP2 EQ PUSH2 0xE5 JUMPI PUSH1 0x0 DUP1 REVERT JUMPDEST DUP1 SWAP2 POP POP SWAP3 POP SWAP3 SWAP1 POP JUMP JUMPDEST PUSH1 0x80 MLOAD PUSH2 0x48F PUSH2 0x10A PUSH1 0x0 CODECOPY PUSH1 0x0 PUSH1 0x53 ADD MSTORE PUSH2 0x48F PUSH1 0x0 RETURN INVALID PUSH1 0x80 PUSH1 0x40 MSTORE CALLVALUE DUP1 ISZERO PUSH2 0x10 JUMPI PUSH1 0x0 DUP1 REVERT JUMPDEST POP PUSH1 0x4 CALLDATASIZE LT PUSH2 0x41 JUMPI PUSH1 0x0 CALLDATALOAD PUSH1 0xE0 SHR DUP1 PUSH4 0x38AF3EED EQ PUSH2 0x46 JUMPI DUP1 PUSH4 0xAA8C217C EQ PUSH2 0x82 JUMPI DUP1 PUSH4 0xC8100DCC EQ PUSH2 0x94 JUMPI JUMPDEST PUSH1 0x0 DUP1 REVERT JUMPDEST PUSH1 0x40 MLOAD PUSH1 0x1 PUSH1 0x1 PUSH1 0xA0 SHL SUB PUSH32 0x0 AND DUP2 MSTORE PUSH1 0x20 ADD JUMPDEST PUSH1 0x40 MLOAD DUP1 SWAP2 SUB SWAP1 RETURN JUMPDEST PUSH1 0x0 SLOAD JUMPDEST PUSH1 0x40 MLOAD SWAP1 DUP2 MSTORE PUSH1 0x20 ADD PUSH2 0x79 JUMP JUMPDEST PUSH2 0x86 PUSH2 0xA2 CALLDATASIZE PUSH1 0x4 PUSH2 0x2A4 JUMP JUMPDEST PUSH1 0x0 DUP1 PUSH1 0x0 SLOAD GT PUSH2 0xFA JUMPI PUSH1 0x40 MLOAD PUSH3 0x461BCD PUSH1 0xE5 SHL DUP2 MSTORE PUSH1 0x20 PUSH1 0x4 DUP3 ADD MSTORE PUSH1 0x1D PUSH1 0x24 DUP3 ADD MSTORE PUSH32 0x546F6B656E54696D656C6F636B3A206E6F20746F6B656E73206C656674000000 PUSH1 0x44 DUP3 ADD MSTORE PUSH1 0x64 ADD JUMPDEST PUSH1 0x40 MLOAD DUP1 SWAP2 SUB SWAP1 REVERT JUMPDEST PUSH1 0x0 PUSH2 0x105 DUP4 PUSH2 0x191 JUMP JUMPDEST SWAP1 POP PUSH1 0x0 DUP2 GT PUSH2 0x163 JUMPI PUSH1 0x40 MLOAD PUSH3 0x461BCD PUSH1 0xE5 SHL DUP2 MSTORE PUSH1 0x20 PUSH1 0x4 DUP3 ADD MSTORE PUSH1 0x23 PUSH1 0x24 DUP3 ADD MSTORE PUSH32 0x546F6B656E54696D656C6F636B3A206E6F20746F6B656E7320746F2072656C65 PUSH1 0x44 DUP3 ADD MSTORE PUSH3 0x617365 PUSH1 0xE8 SHL PUSH1 0x64 DUP3 ADD MSTORE PUSH1 0x84 ADD PUSH2 0xF1 JUMP JUMPDEST PUSH2 0x188 PUSH1 0x0 SLOAD DUP3 PUSH1 0x40 MLOAD DUP1 PUSH1 0x60 ADD PUSH1 0x40 MSTORE DUP1 PUSH1 0x3B DUP2 MSTORE PUSH1 0x20 ADD PUSH2 0x41F PUSH1 0x3B SWAP2 CODECOPY PUSH2 0x26C JUMP JUMPDEST PUSH1 0x0 SSTORE SWAP3 SWAP2 POP POP JUMP JUMPDEST PUSH1 0x0 DUP1 PUSH3 0x278D00 PUSH1 0x1 SLOAD TIMESTAMP PUSH2 0x1A6 SWAP2 SWAP1 PUSH2 0x347 JUMP JUMPDEST PUSH2 0x1B0 SWAP2 SWAP1 PUSH2 0x35E JUMP JUMPDEST PUSH1 0x2 SLOAD SWAP1 SWAP2 POP PUSH1 0x0 SWAP1 JUMPDEST DUP3 DUP2 GT PUSH2 0x1F5 JUMPI PUSH2 0x1E1 DUP3 DUP7 DUP4 PUSH1 0x2B DUP2 LT PUSH2 0x1D7 JUMPI PUSH2 0x1D7 PUSH2 0x380 JUMP JUMPDEST PUSH1 0x20 MUL ADD MLOAD PUSH2 0x298 JUMP JUMPDEST SWAP2 POP DUP1 PUSH2 0x1ED DUP2 PUSH2 0x396 JUMP JUMPDEST SWAP2 POP POP PUSH2 0x1BA JUMP JUMPDEST POP PUSH2 0x201 DUP3 PUSH1 0x1 PUSH2 0x3B1 JUMP JUMPDEST PUSH1 0x2 SSTORE DUP1 PUSH2 0x265 JUMPI PUSH1 0x40 MLOAD PUSH3 0x461BCD PUSH1 0xE5 SHL DUP2 MSTORE PUSH1 0x20 PUSH1 0x4 DUP3 ADD MSTORE PUSH1 0x2B PUSH1 0x24 DUP3 ADD MSTORE PUSH32 0x546F6B656E54696D654C6F636B3A2054686572652773206E6F7468696E672074 PUSH1 0x44 DUP3 ADD MSTORE PUSH11 0x1BC818DB185A5B481E595D PUSH1 0xAA SHL PUSH1 0x64 DUP3 ADD MSTORE PUSH1 0x84 ADD PUSH2 0xF1 JUMP JUMPDEST SWAP4 SWAP3 POP POP POP JUMP JUMPDEST PUSH1 0x0 DUP2 DUP5 DUP5 GT ISZERO PUSH2 0x290 JUMPI PUSH1 0x40 MLOAD PUSH3 0x461BCD PUSH1 0xE5 SHL DUP2 MSTORE PUSH1 0x4 ADD PUSH2 0xF1 SWAP2 SWAP1 PUSH2 0x3C9 JUMP JUMPDEST POP POP POP SWAP1 SUB SWAP1 JUMP JUMPDEST PUSH1 0x0 PUSH2 0x265 DUP3 DUP5 PUSH2 0x3B1 JUMP JUMPDEST PUSH1 0x0 PUSH2 0x560 DUP1 DUP4 DUP6 SUB SLT ISZERO PUSH2 0x2B8 JUMPI PUSH1 0x0 DUP1 REVERT JUMPDEST DUP4 PUSH1 0x1F DUP5 ADD SLT PUSH2 0x2C7 JUMPI PUSH1 0x0 DUP1 REVERT JUMPDEST PUSH1 0x40 MLOAD DUP2 DUP2 ADD DUP2 DUP2 LT PUSH8 0xFFFFFFFFFFFFFFFF DUP3 GT OR ISZERO PUSH2 0x2F7 JUMPI PUSH4 0x4E487B71 PUSH1 0xE0 SHL PUSH1 0x0 MSTORE PUSH1 0x41 PUSH1 0x4 MSTORE PUSH1 0x24 PUSH1 0x0 REVERT JUMPDEST PUSH1 0x40 MSTORE SWAP1 DUP4 ADD SWAP1 DUP1 DUP6 DUP4 GT ISZERO PUSH2 0x30C JUMPI PUSH1 0x0 DUP1 REVERT JUMPDEST DUP5 JUMPDEST DUP4 DUP2 LT ISZERO PUSH2 0x326 JUMPI DUP1 CALLDATALOAD DUP3 MSTORE PUSH1 0x20 SWAP2 DUP3 ADD SWAP2 ADD PUSH2 0x30E JUMP JUMPDEST POP SWAP1 SWAP6 SWAP5 POP POP POP POP POP JUMP JUMPDEST PUSH4 0x4E487B71 PUSH1 0xE0 SHL PUSH1 0x0 MSTORE PUSH1 0x11 PUSH1 0x4 MSTORE PUSH1 0x24 PUSH1 0x0 REVERT JUMPDEST PUSH1 0x0 DUP3 DUP3 LT ISZERO PUSH2 0x359 JUMPI PUSH2 0x359 PUSH2 0x331 JUMP JUMPDEST POP SUB SWAP1 JUMP JUMPDEST PUSH1 0x0 DUP3 PUSH2 0x37B JUMPI PUSH4 0x4E487B71 PUSH1 0xE0 SHL PUSH1 0x0 MSTORE PUSH1 0x12 PUSH1 0x4 MSTORE PUSH1 0x24 PUSH1 0x0 REVERT JUMPDEST POP DIV SWAP1 JUMP JUMPDEST PUSH4 0x4E487B71 PUSH1 0xE0 SHL PUSH1 0x0 MSTORE PUSH1 0x32 PUSH1 0x4 MSTORE PUSH1 0x24 PUSH1 0x0 REVERT JUMPDEST PUSH1 0x0 PUSH1 0x0 NOT DUP3 EQ ISZERO PUSH2 0x3AA JUMPI PUSH2 0x3AA PUSH2 0x331 JUMP JUMPDEST POP PUSH1 0x1 ADD SWAP1 JUMP JUMPDEST PUSH1 0x0 DUP3 NOT DUP3 GT ISZERO PUSH2 0x3C4 JUMPI PUSH2 0x3C4 PUSH2 0x331 JUMP JUMPDEST POP ADD SWAP1 JUMP JUMPDEST PUSH1 0x0 PUSH1 0x20 DUP1 DUP4 MSTORE DUP4 MLOAD DUP1 DUP3 DUP6 ADD MSTORE PUSH1 0x0 JUMPDEST DUP2 DUP2 LT ISZERO PUSH2 0x3F6 JUMPI DUP6 DUP2 ADD DUP4 ADD MLOAD DUP6 DUP3 ADD PUSH1 0x40 ADD MSTORE DUP3 ADD PUSH2 0x3DA JUMP JUMPDEST DUP2 DUP2 GT ISZERO PUSH2 0x408 JUMPI PUSH1 0x0 PUSH1 0x40 DUP4 DUP8 ADD ADD MSTORE JUMPDEST POP PUSH1 0x1F ADD PUSH1 0x1F NOT AND SWAP3 SWAP1 SWAP3 ADD PUSH1 0x40 ADD SWAP4 SWAP3 POP POP POP JUMP INVALID SLOAD PUSH16 0x6B656E54696D654C6F636B3A2043616E PUSH15 0x6F742073756273747261637420746F PUSH21 0x616C20616D6F756E74207769746820636C61696D61 PUSH3 0x6C65A2 PUSH5 0x6970667358 0x22 SLT KECCAK256 0xB5 0xAA DIFFICULTY COINBASE ORIGIN 0xCE 0x2B 0xD0 DUP7 0xDC 0x2C PUSH31 0x3500A352F31B322384F48FB1FBFA52C56524E18264736F6C634300080B0033 SLOAD PUSH2 0x6C61 PUSH25 0x546F6B656E3A2043616E6E6F74207472616E73666572206D6F PUSH19 0x65207468616E20746F74616C20737570706C79 "
		},
		"gasEstimates": {
			"creation": {
				"codeDepositCost": "3795200",
				"executionCost": "infinite",
				"totalCost": "infinite"
			},
			"external": {
				"": "infinite",
				"_stakingPackage(uint256)": "2482",
				"_taxFee()": "2425",
				"allowance(address,address)": "infinite",
				"approve(address,uint256)": "24660",
				"balanceOf(address)": "2643",
				"burn(uint256)": "50917",
				"burnFrom(address,uint256)": "77551",
				"burnStakingReward(uint256)": "infinite",
				"changePenaltyFee(uint256)": "49949",
				"changeTaxFee(uint16)": "52525",
				"decimals()": "245",
				"decreaseAllowance(address,uint256)": "27005",
				"getOwner()": "2415",
				"hasStake(address)": "infinite",
				"increaseAllowance(address,uint256)": "27029",
				"liquidityReserveBalance()": "infinite",
				"mintLiquidityReserve(uint256)": "infinite",
				"mintStakingReward(uint256)": "infinite",
				"name()": "infinite",
				"owner()": "2421",
				"penaltyFee()": "2426",
				"renounceOwnership()": "28251",
				"stake(uint256,uint256)": "infinite",
				"stakeSummary(address)": "infinite",
				"symbol()": "infinite",
				"taxFee()": "2365",
				"thisAddress()": "301",
				"totalSupply()": "2416",
				"transfer(address,uint256)": "infinite",
				"transferFrom(address,address,uint256)": "infinite",
				"transferOwnership(address)": "infinite",
				"unlockDevPoolWallet_1()": "infinite",
				"unlockDevPoolWallet_2()": "infinite",
				"unlockDevPoolWallet_3()": "infinite",
				"unlockPrivatePlacementWallet()": "infinite",
				"unlockStrategicPartnerWallet_1()": "infinite",
				"unlockStrategicPartnerWallet_2()": "infinite",
				"unlockStrategicPartnerWallet_3()": "infinite",
				"unlockTeamAndProjectCoordinatorWallet_1()": "infinite",
				"unlockTeamAndProjectCoordinatorWallet_2()": "infinite",
				"unlockTeamAndProjectCoordinatorWallet_3()": "infinite",
				"withdrawAllStake(uint256)": "infinite",
				"withdrawStake(uint256,uint256)": "infinite"
			},
			"internal": {
				"_addThirdOfValue(uint256)": "infinite",
				"_mintLiquidityReserve(uint256)": "infinite",
				"_transfer(address,address,uint256)": "infinite",
				"devPoolReleaseAmount()": "infinite",
				"devPoolReleaseAmountAlternate()": "infinite",
				"privatePlacementReleaseAmount()": "infinite",
				"strategicPartnerReleaseAmount()": "infinite",
				"strategicPartnerReleaseAmountAlternate()": "infinite",
				"teamAndProjectCoordinatorReleaseAmount()": "infinite",
				"teamAndProjectCoordinatorReleaseAmountAlternate()": "infinite",
				"toString(uint256)": "infinite"
			}
		},
		"methodIdentifiers": {
			"_stakingPackage(uint256)": "dda4add5",
			"_taxFee()": "3b124fe7",
			"allowance(address,address)": "dd62ed3e",
			"approve(address,uint256)": "095ea7b3",
			"balanceOf(address)": "70a08231",
			"burn(uint256)": "42966c68",
			"burnFrom(address,uint256)": "79cc6790",
			"burnStakingReward(uint256)": "0e1b09ed",
			"changePenaltyFee(uint256)": "8c63f97f",
			"changeTaxFee(uint16)": "8902cd70",
			"decimals()": "313ce567",
			"decreaseAllowance(address,uint256)": "a457c2d7",
			"getOwner()": "893d20e8",
			"hasStake(address)": "e73e14bf",
			"increaseAllowance(address,uint256)": "39509351",
			"liquidityReserveBalance()": "bea8e46b",
			"mintLiquidityReserve(uint256)": "d94d4ad6",
			"mintStakingReward(uint256)": "a169c515",
			"name()": "06fdde03",
			"owner()": "8da5cb5b",
			"penaltyFee()": "3dc10ad4",
			"renounceOwnership()": "715018a6",
			"stake(uint256,uint256)": "7b0472f0",
			"stakeSummary(address)": "b09d4b4e",
			"symbol()": "95d89b41",
			"taxFee()": "a071dcf4",
			"thisAddress()": "d4dca69b",
			"totalSupply()": "18160ddd",
			"transfer(address,uint256)": "a9059cbb",
			"transferFrom(address,address,uint256)": "23b872dd",
			"transferOwnership(address)": "f2fde38b",
			"unlockDevPoolWallet_1()": "b8b18e89",
			"unlockDevPoolWallet_2()": "eb9f4ac7",
			"unlockDevPoolWallet_3()": "84f3996d",
			"unlockPrivatePlacementWallet()": "934851ec",
			"unlockStrategicPartnerWallet_1()": "8378a875",
			"unlockStrategicPartnerWallet_2()": "15441bb9",
			"unlockStrategicPartnerWallet_3()": "883d9984",
			"unlockTeamAndProjectCoordinatorWallet_1()": "56029137",
			"unlockTeamAndProjectCoordinatorWallet_2()": "90a4c709",
			"unlockTeamAndProjectCoordinatorWallet_3()": "3f3ef2dc",
			"withdrawAllStake(uint256)": "f729b00f",
			"withdrawStake(uint256,uint256)": "f1fdf469"
		}
	},
	"abi": [
		{
			"inputs": [],
			"stateMutability": "nonpayable",
			"type": "constructor"
		},
		{
			"anonymous": false,
			"inputs": [
				{
					"indexed": true,
					"internalType": "address",
					"name": "from",
					"type": "address"
				},
				{
					"indexed": true,
					"internalType": "address",
					"name": "who",
					"type": "address"
				}
			],
			"name": "AddPrivatePlacement",
			"type": "event"
		},
		{
			"anonymous": false,
			"inputs": [
				{
					"indexed": true,
					"internalType": "address",
					"name": "from",
					"type": "address"
				},
				{
					"indexed": true,
					"internalType": "address",
					"name": "who",
					"type": "address"
				}
			],
			"name": "AddStrategicPartner",
			"type": "event"
		},
		{
			"anonymous": false,
			"inputs": [
				{
					"indexed": true,
					"internalType": "address",
					"name": "owner",
					"type": "address"
				},
				{
					"indexed": true,
					"internalType": "address",
					"name": "spender",
					"type": "address"
				},
				{
					"indexed": false,
					"internalType": "uint256",
					"name": "value",
					"type": "uint256"
				}
			],
			"name": "Approval",
			"type": "event"
		},
		{
			"anonymous": false,
			"inputs": [
				{
					"indexed": true,
					"internalType": "address",
					"name": "who",
					"type": "address"
				},
				{
					"indexed": false,
					"internalType": "uint256",
					"name": "amount",
					"type": "uint256"
				}
			],
			"name": "ChangeTax",
			"type": "event"
		},
		{
			"anonymous": false,
			"inputs": [
				{
					"indexed": true,
					"internalType": "address",
					"name": "from",
					"type": "address"
				},
				{
					"indexed": true,
					"internalType": "address",
					"name": "who",
					"type": "address"
				}
			],
			"name": "DeletePrivatePlacement",
			"type": "event"
		},
		{
			"anonymous": false,
			"inputs": [
				{
					"indexed": true,
					"internalType": "address",
					"name": "from",
					"type": "address"
				},
				{
					"indexed": true,
					"internalType": "address",
					"name": "who",
					"type": "address"
				}
			],
			"name": "DeleteStrategicPartner",
			"type": "event"
		},
		{
			"anonymous": false,
			"inputs": [
				{
					"indexed": true,
					"internalType": "address",
					"name": "previousOwner",
					"type": "address"
				},
				{
					"indexed": true,
					"internalType": "address",
					"name": "newOwner",
					"type": "address"
				}
			],
			"name": "OwnershipTransferred",
			"type": "event"
		},
		{
			"anonymous": false,
			"inputs": [
				{
					"indexed": false,
					"internalType": "uint256",
					"name": "amount",
					"type": "uint256"
				}
			],
			"name": "PenaltyChanged",
			"type": "event"
		},
		{
			"anonymous": false,
			"inputs": [
				{
					"indexed": true,
					"internalType": "address",
					"name": "user",
					"type": "address"
				},
				{
					"indexed": false,
					"internalType": "uint256",
					"name": "amount",
					"type": "uint256"
				},
				{
					"indexed": false,
					"internalType": "uint256",
					"name": "index",
					"type": "uint256"
				},
				{
					"indexed": false,
					"internalType": "uint256",
					"name": "timestamp",
					"type": "uint256"
				},
				{
					"indexed": false,
					"internalType": "uint256",
					"name": "releaseTime",
					"type": "uint256"
				}
			],
			"name": "Staked",
			"type": "event"
		},
		{
			"anonymous": false,
			"inputs": [
				{
					"indexed": true,
					"internalType": "address",
					"name": "from",
					"type": "address"
				},
				{
					"indexed": true,
					"internalType": "address",
					"name": "to",
					"type": "address"
				},
				{
					"indexed": false,
					"internalType": "uint256",
					"name": "value",
					"type": "uint256"
				}
			],
			"name": "Transfer",
			"type": "event"
		},
		{
			"stateMutability": "payable",
			"type": "fallback"
		},
		{
			"inputs": [
				{
					"internalType": "uint256",
					"name": "",
					"type": "uint256"
				}
			],
			"name": "_stakingPackage",
			"outputs": [
				{
					"internalType": "uint256",
					"name": "",
					"type": "uint256"
				}
			],
			"stateMutability": "view",
			"type": "function"
		},
		{
			"inputs": [],
			"name": "_taxFee",
			"outputs": [
				{
					"internalType": "uint16",
					"name": "",
					"type": "uint16"
				}
			],
			"stateMutability": "view",
			"type": "function"
		},
		{
			"inputs": [
				{
					"internalType": "address",
					"name": "owner",
					"type": "address"
				},
				{
					"internalType": "address",
					"name": "spender",
					"type": "address"
				}
			],
			"name": "allowance",
			"outputs": [
				{
					"internalType": "uint256",
					"name": "",
					"type": "uint256"
				}
			],
			"stateMutability": "view",
			"type": "function"
		},
		{
			"inputs": [
				{
					"internalType": "address",
					"name": "spender",
					"type": "address"
				},
				{
					"internalType": "uint256",
					"name": "amount",
					"type": "uint256"
				}
			],
			"name": "approve",
			"outputs": [
				{
					"internalType": "bool",
					"name": "",
					"type": "bool"
				}
			],
			"stateMutability": "nonpayable",
			"type": "function"
		},
		{
			"inputs": [
				{
					"internalType": "address",
					"name": "account",
					"type": "address"
				}
			],
			"name": "balanceOf",
			"outputs": [
				{
					"internalType": "uint256",
					"name": "",
					"type": "uint256"
				}
			],
			"stateMutability": "view",
			"type": "function"
		},
		{
			"inputs": [
				{
					"internalType": "uint256",
					"name": "amount",
					"type": "uint256"
				}
			],
			"name": "burn",
			"outputs": [],
			"stateMutability": "nonpayable",
			"type": "function"
		},
		{
			"inputs": [
				{
					"internalType": "address",
					"name": "account",
					"type": "address"
				},
				{
					"internalType": "uint256",
					"name": "amount",
					"type": "uint256"
				}
			],
			"name": "burnFrom",
			"outputs": [],
			"stateMutability": "nonpayable",
			"type": "function"
		},
		{
			"inputs": [
				{
					"internalType": "uint256",
					"name": "amount_",
					"type": "uint256"
				}
			],
			"name": "burnStakingReward",
			"outputs": [],
			"stateMutability": "nonpayable",
			"type": "function"
		},
		{
			"inputs": [
				{
					"internalType": "uint256",
					"name": "penaltyFee_",
					"type": "uint256"
				}
			],
			"name": "changePenaltyFee",
			"outputs": [],
			"stateMutability": "nonpayable",
			"type": "function"
		},
		{
			"inputs": [
				{
					"internalType": "uint16",
					"name": "taxFee_",
					"type": "uint16"
				}
			],
			"name": "changeTaxFee",
			"outputs": [],
			"stateMutability": "nonpayable",
			"type": "function"
		},
		{
			"inputs": [],
			"name": "decimals",
			"outputs": [
				{
					"internalType": "uint8",
					"name": "",
					"type": "uint8"
				}
			],
			"stateMutability": "view",
			"type": "function"
		},
		{
			"inputs": [
				{
					"internalType": "address",
					"name": "spender",
					"type": "address"
				},
				{
					"internalType": "uint256",
					"name": "subtractedValue",
					"type": "uint256"
				}
			],
			"name": "decreaseAllowance",
			"outputs": [
				{
					"internalType": "bool",
					"name": "",
					"type": "bool"
				}
			],
			"stateMutability": "nonpayable",
			"type": "function"
		},
		{
			"inputs": [],
			"name": "getOwner",
			"outputs": [
				{
					"internalType": "address",
					"name": "",
					"type": "address"
				}
			],
			"stateMutability": "view",
			"type": "function"
		},
		{
			"inputs": [
				{
					"internalType": "address",
					"name": "_staker",
					"type": "address"
				}
			],
			"name": "hasStake",
			"outputs": [
				{
					"components": [
						{
							"internalType": "uint256",
							"name": "total_amount",
							"type": "uint256"
						},
						{
							"components": [
								{
									"internalType": "address",
									"name": "user",
									"type": "address"
								},
								{
									"internalType": "uint256",
									"name": "amount",
									"type": "uint256"
								},
								{
									"internalType": "uint256",
									"name": "since",
									"type": "uint256"
								},
								{
									"internalType": "uint256",
									"name": "claimable",
									"type": "uint256"
								},
								{
									"internalType": "uint256",
									"name": "rewardAPY",
									"type": "uint256"
								},
								{
									"internalType": "uint256",
									"name": "releaseTime",
									"type": "uint256"
								}
							],
							"internalType": "struct Stakable.Stake[]",
							"name": "stakes",
							"type": "tuple[]"
						}
					],
					"internalType": "struct Stakable.StakingSummary",
					"name": "",
					"type": "tuple"
				}
			],
			"stateMutability": "view",
			"type": "function"
		},
		{
			"inputs": [
				{
					"internalType": "address",
					"name": "spender",
					"type": "address"
				},
				{
					"internalType": "uint256",
					"name": "addedValue",
					"type": "uint256"
				}
			],
			"name": "increaseAllowance",
			"outputs": [
				{
					"internalType": "bool",
					"name": "",
					"type": "bool"
				}
			],
			"stateMutability": "nonpayable",
			"type": "function"
		},
		{
			"inputs": [],
			"name": "liquidityReserveBalance",
			"outputs": [
				{
					"internalType": "uint256",
					"name": "",
					"type": "uint256"
				}
			],
			"stateMutability": "view",
			"type": "function"
		},
		{
			"inputs": [
				{
					"internalType": "uint256",
					"name": "amount_",
					"type": "uint256"
				}
			],
			"name": "mintLiquidityReserve",
			"outputs": [],
			"stateMutability": "nonpayable",
			"type": "function"
		},
		{
			"inputs": [
				{
					"internalType": "uint256",
					"name": "amount_",
					"type": "uint256"
				}
			],
			"name": "mintStakingReward",
			"outputs": [],
			"stateMutability": "nonpayable",
			"type": "function"
		},
		{
			"inputs": [],
			"name": "name",
			"outputs": [
				{
					"internalType": "string",
					"name": "",
					"type": "string"
				}
			],
			"stateMutability": "view",
			"type": "function"
		},
		{
			"inputs": [],
			"name": "owner",
			"outputs": [
				{
					"internalType": "address",
					"name": "",
					"type": "address"
				}
			],
			"stateMutability": "view",
			"type": "function"
		},
		{
			"inputs": [],
			"name": "penaltyFee",
			"outputs": [
				{
					"internalType": "uint256",
					"name": "",
					"type": "uint256"
				}
			],
			"stateMutability": "view",
			"type": "function"
		},
		{
			"inputs": [],
			"name": "renounceOwnership",
			"outputs": [],
			"stateMutability": "nonpayable",
			"type": "function"
		},
		{
			"inputs": [
				{
					"internalType": "uint256",
					"name": "_amount",
					"type": "uint256"
				},
				{
					"internalType": "uint256",
					"name": "_stakePeriod",
					"type": "uint256"
				}
			],
			"name": "stake",
			"outputs": [],
			"stateMutability": "nonpayable",
			"type": "function"
		},
		{
			"inputs": [
				{
					"internalType": "address",
					"name": "user_",
					"type": "address"
				}
			],
			"name": "stakeSummary",
			"outputs": [
				{
					"components": [
						{
							"internalType": "uint256",
							"name": "total_amount",
							"type": "uint256"
						},
						{
							"components": [
								{
									"internalType": "address",
									"name": "user",
									"type": "address"
								},
								{
									"internalType": "uint256",
									"name": "amount",
									"type": "uint256"
								},
								{
									"internalType": "uint256",
									"name": "since",
									"type": "uint256"
								},
								{
									"internalType": "uint256",
									"name": "claimable",
									"type": "uint256"
								},
								{
									"internalType": "uint256",
									"name": "rewardAPY",
									"type": "uint256"
								},
								{
									"internalType": "uint256",
									"name": "releaseTime",
									"type": "uint256"
								}
							],
							"internalType": "struct Stakable.Stake[]",
							"name": "stakes",
							"type": "tuple[]"
						}
					],
					"internalType": "struct Stakable.StakingSummary",
					"name": "",
					"type": "tuple"
				}
			],
			"stateMutability": "view",
			"type": "function"
		},
		{
			"inputs": [],
			"name": "symbol",
			"outputs": [
				{
					"internalType": "string",
					"name": "",
					"type": "string"
				}
			],
			"stateMutability": "view",
			"type": "function"
		},
		{
			"inputs": [],
			"name": "taxFee",
			"outputs": [
				{
					"internalType": "uint256",
					"name": "",
					"type": "uint256"
				}
			],
			"stateMutability": "view",
			"type": "function"
		},
		{
			"inputs": [],
			"name": "thisAddress",
			"outputs": [
				{
					"internalType": "address",
					"name": "",
					"type": "address"
				}
			],
			"stateMutability": "view",
			"type": "function"
		},
		{
			"inputs": [],
			"name": "totalSupply",
			"outputs": [
				{
					"internalType": "uint256",
					"name": "",
					"type": "uint256"
				}
			],
			"stateMutability": "view",
			"type": "function"
		},
		{
			"inputs": [
				{
					"internalType": "address",
					"name": "recipient",
					"type": "address"
				},
				{
					"internalType": "uint256",
					"name": "amount",
					"type": "uint256"
				}
			],
			"name": "transfer",
			"outputs": [
				{
					"internalType": "bool",
					"name": "",
					"type": "bool"
				}
			],
			"stateMutability": "nonpayable",
			"type": "function"
		},
		{
			"inputs": [
				{
					"internalType": "address",
					"name": "sender",
					"type": "address"
				},
				{
					"internalType": "address",
					"name": "recipient",
					"type": "address"
				},
				{
					"internalType": "uint256",
					"name": "amount",
					"type": "uint256"
				}
			],
			"name": "transferFrom",
			"outputs": [
				{
					"internalType": "bool",
					"name": "",
					"type": "bool"
				}
			],
			"stateMutability": "nonpayable",
			"type": "function"
		},
		{
			"inputs": [
				{
					"internalType": "address",
					"name": "newOwner",
					"type": "address"
				}
			],
			"name": "transferOwnership",
			"outputs": [],
			"stateMutability": "nonpayable",
			"type": "function"
		},
		{
			"inputs": [],
			"name": "unlockDevPoolWallet_1",
			"outputs": [],
			"stateMutability": "nonpayable",
			"type": "function"
		},
		{
			"inputs": [],
			"name": "unlockDevPoolWallet_2",
			"outputs": [],
			"stateMutability": "nonpayable",
			"type": "function"
		},
		{
			"inputs": [],
			"name": "unlockDevPoolWallet_3",
			"outputs": [],
			"stateMutability": "nonpayable",
			"type": "function"
		},
		{
			"inputs": [],
			"name": "unlockPrivatePlacementWallet",
			"outputs": [],
			"stateMutability": "nonpayable",
			"type": "function"
		},
		{
			"inputs": [],
			"name": "unlockStrategicPartnerWallet_1",
			"outputs": [],
			"stateMutability": "nonpayable",
			"type": "function"
		},
		{
			"inputs": [],
			"name": "unlockStrategicPartnerWallet_2",
			"outputs": [],
			"stateMutability": "nonpayable",
			"type": "function"
		},
		{
			"inputs": [],
			"name": "unlockStrategicPartnerWallet_3",
			"outputs": [],
			"stateMutability": "nonpayable",
			"type": "function"
		},
		{
			"inputs": [],
			"name": "unlockTeamAndProjectCoordinatorWallet_1",
			"outputs": [],
			"stateMutability": "nonpayable",
			"type": "function"
		},
		{
			"inputs": [],
			"name": "unlockTeamAndProjectCoordinatorWallet_2",
			"outputs": [],
			"stateMutability": "nonpayable",
			"type": "function"
		},
		{
			"inputs": [],
			"name": "unlockTeamAndProjectCoordinatorWallet_3",
			"outputs": [],
			"stateMutability": "nonpayable",
			"type": "function"
		},
		{
			"inputs": [
				{
					"internalType": "uint256",
					"name": "stake_index",
					"type": "uint256"
				}
			],
			"name": "withdrawAllStake",
			"outputs": [],
			"stateMutability": "nonpayable",
			"type": "function"
		},
		{
			"inputs": [
				{
					"internalType": "uint256",
					"name": "amount",
					"type": "uint256"
				},
				{
					"internalType": "uint256",
					"name": "stake_index",
					"type": "uint256"
				}
			],
			"name": "withdrawStake",
			"outputs": [],
			"stateMutability": "nonpayable",
			"type": "function"
		},
		{
			"stateMutability": "payable",
			"type": "receive"
		}
	]
}