{
	"data": {
		"bytecode": {
			"linkReferences": {},
			"object": "60806040523480156200001157600080fd5b506200001d3362000857565b60028054600190810182556000918252600590556004556040805180820190915260088082526754414c415845554d60c01b60209092019182526200006591600b91620008df565b50604080518082019091526005808252640a8829882b60db1b60209092019182526200009491600a91620008df565b50600880546aadb53acfa41aee120000006009556212000162ffffff1990911617815560057f81c0d0eedd95c2967d71abe024358b07686d439b6deb73ca816c879f65143f1781905560067f697a8f16d09902fc66aededa639e007044702868d25f1df80d815ee49a49694d5560077fc3e5b0caf49c47ce280af2ab7b117fa4956253d41af9b17dc3ad956daa45f84d557f15657153944555fc80ba38efd42aa24691b6cce1122f46e1cd17915d63e3e7cb91909155600e80546001600160a01b0319908116735470c8ff25ec05980fc7c2967d076b8012298fe717909155600f805482167375837e79215250c45331b92c35b7be506ed015ac9081179091556010805483167307a20dc6722563783e44ba8edca08c774621125e17905560118054831673f09f65dd4d229e991901669ad7c7549f060e30b9179055601280548316731a2118e056d6af192e233c2c9cfb34e067ded1f817905560138054831673126974fa373267d86fab6d6871afe62ccb68e810179055601480548316732f838cf0df38b2e91e747a01ddae5ebad5558b7a1790556015805483167345094071c4daaf6a9a73b0a0f095a2b138bd8a3a17905560168054831673aeb26fb84d0e2b3b353cd50f0a29fd40c916d2ab17905560178054831673e61e7a7d16db384433e532fb85724e7f3bdaae2f17905560188054831673406605eb24a97a2d61b516d8d850f2aefa6a731a179055601980549092167397620deadc98bc8173303686037ce7b986cf53c3179091556a0e7cbbd7aa8310ae400000600c55306000908152602092835260408082206a2b6d4eb3e906bb8480000090556a22bdd88fed9efc6a0000007f07dbd83bab355c16350a9e53491bb59cef90d005f9ff00a79b984fe1cf3d5d1e559190526a05c8d34a23da1650a000007fd4ede8b55f1db766d064f9de6d20cfe6616036bfe8cbc282a019abb7537766d455805160608101909152603280825262000390926a3ccc3afbdfd639b9800000929190620057cc90830139600954620008a760201b62001bb0179092919060201c565b6009556010546040516a05c8d34a23da1650a00000916001600160a01b031690620003bb906200096e565b9182526001600160a01b03166020820152604001604051809103906000f080158015620003ec573d6000803e3d6000fd5b50601a80546001600160a01b0319166001600160a01b039283161790556011546040516a0b949d854f34fece0000009291909116906200042c906200096e565b9182526001600160a01b03166020820152604001604051809103906000f0801580156200045d573d6000803e3d6000fd5b50601b80546001600160a01b0319166001600160a01b039283161790556012546040516a0b949d854f34fece0000009291909116906200049d906200096e565b9182526001600160a01b03166020820152604001604051809103906000f080158015620004ce573d6000803e3d6000fd5b50601c80546001600160a01b0319166001600160a01b039283161790556013546040516a0b949d854f34fece0000009291909116906200050e906200096e565b9182526001600160a01b03166020820152604001604051809103906000f0801580156200053f573d6000803e3d6000fd5b50601d80546001600160a01b0319166001600160a01b039283161790556014546040516a02e5276153cd3fb38000009291909116906200057f906200096e565b9182526001600160a01b03166020820152604001604051809103906000f080158015620005b0573d6000803e3d6000fd5b50601e80546001600160a01b0319166001600160a01b039283161790556015546040516a02e5276153cd3fb3800000929190911690620005f0906200096e565b9182526001600160a01b03166020820152604001604051809103906000f08015801562000621573d6000803e3d6000fd5b50601f80546001600160a01b0319166001600160a01b039283161790556016546040516a02e5276153cd3fb380000092919091169062000661906200096e565b9182526001600160a01b03166020820152604001604051809103906000f08015801562000692573d6000803e3d6000fd5b50602080546001600160a01b0319166001600160a01b039283161790556017546040516a08af7623fb67bf1a800000929190911690620006d2906200096e565b9182526001600160a01b03166020820152604001604051809103906000f08015801562000703573d6000803e3d6000fd5b50602180546001600160a01b0319166001600160a01b039283161790556018546040516a08af7623fb67bf1a80000092919091169062000743906200096e565b9182526001600160a01b03166020820152604001604051809103906000f08015801562000774573d6000803e3d6000fd5b50602280546001600160a01b0319166001600160a01b039283161790556019546040516a08af7623fb67bf1a800000929190911690620007b4906200096e565b9182526001600160a01b03166020820152604001604051809103906000f080158015620007e5573d6000803e3d6000fd5b50602360006101000a8154816001600160a01b0302191690836001600160a01b031602179055506200084e6a457bb11fdb3df8d4000000604051806060016040528060328152602001620057cc60329139600954620008a760201b62001bb0179092919060201c565b60095562000a28565b600080546001600160a01b038381166001600160a01b0319831681178455604051919092169283917f8be0079c531659141344cd1fd0a4f28419497f9722a3daafe3b4186f6b6457e09190a35050565b60008184841115620008d75760405162461bcd60e51b8152600401620008ce919062000993565b60405180910390fd5b505050900390565b828054620008ed90620009eb565b90600052602060002090601f0160209004810192826200091157600085556200095c565b82601f106200092c57805160ff19168380011785556200095c565b828001600101855582156200095c579182015b828111156200095c5782518255916020019190600101906200093f565b506200096a9291506200097c565b5090565b610599806200523383390190565b5b808211156200096a57600081556001016200097d565b600060208083528351808285015260005b81811015620009c257858101830151858201604001528201620009a4565b81811115620009d5576000604083870101525b50601f01601f1916929092016040019392505050565b600181811c9082168062000a0057607f821691505b6020821081141562000a2257634e487b7160e01b600052602260045260246000fd5b50919050565b6147fb8062000a386000396000f3fe60806040526004361061023f5760003560e01c80638c63f97f1161012e578063bea8e46b116100ab578063e73e14bf1161006f578063e73e14bf146106c0578063eb9f4ac7146106e0578063f1fdf469146106f5578063f2fde38b14610715578063f729b00f146107355761024f565b8063bea8e46b14610605578063d4dca69b1461061a578063d94d4ad61461062d578063dd62ed3e1461064d578063dda4add5146106935761024f565b8063a169c515116100f2578063a169c51514610563578063a457c2d714610583578063a9059cbb146105a3578063b09d4b4e146105c3578063b8b18e89146105f05761024f565b80638c63f97f146104e65780638da5cb5b1461050657806390a4c70914610524578063934851ec1461053957806395d89b411461054e5761024f565b80633f3ef2dc116101bc5780638378a875116101805780638378a8751461045557806384f3996d1461046a578063883d99841461047f5780638902cd7014610494578063893d20e8146104b45761024f565b80633f3ef2dc146103c057806356029137146103d557806370a08231146103ea578063715018a6146104205780637b0472f0146104355761024f565b806323b872dd1161020357806323b872dd14610307578063313ce56714610327578063389201021461035257806339509351146103725780633b124fe7146103925761024f565b806306fdde0314610258578063095ea7b3146102835780630e1b09ed146102b357806315441bb9146102d357806318160ddd146102e85761024f565b3661024f5761024d34610755565b005b61024d34610755565b34801561026457600080fd5b5061026d610813565b60405161027a9190614291565b60405180910390f35b34801561028f57600080fd5b506102a361029e3660046142fb565b6108a5565b604051901515815260200161027a565b3480156102bf57600080fd5b5061024d6102ce366004614327565b6108bc565b3480156102df57600080fd5b5061024d6109b1565b3480156102f457600080fd5b506009545b60405190815260200161027a565b34801561031357600080fd5b506102a3610322366004614340565b610b03565b34801561033357600080fd5b5060085462010000900460ff1660405160ff909116815260200161027a565b34801561035e57600080fd5b506102f961036d366004614381565b610b6c565b34801561037e57600080fd5b506102a361038d3660046142fb565b610baf565b34801561039e57600080fd5b506008546103ad9061ffff1681565b60405161ffff909116815260200161027a565b3480156103cc57600080fd5b5061024d610be5565b3480156103e157600080fd5b5061024d610ca8565b3480156103f657600080fd5b506102f96104053660046143b1565b6001600160a01b031660009081526005602052604090205490565b34801561042c57600080fd5b5061024d610d6b565b34801561044157600080fd5b5061024d6104503660046143ce565b610da1565b34801561046157600080fd5b5061024d610edd565b34801561047657600080fd5b5061024d610fa0565b34801561048b57600080fd5b5061024d611063565b3480156104a057600080fd5b5061024d6104af3660046143f0565b611118565b3480156104c057600080fd5b506000546001600160a01b03165b6040516001600160a01b03909116815260200161027a565b3480156104f257600080fd5b5061024d610501366004614327565b6111bf565b34801561051257600080fd5b506000546001600160a01b03166104ce565b34801561053057600080fd5b5061024d611221565b34801561054557600080fd5b5061024d6112e4565b34801561055a57600080fd5b5061026d6113a4565b34801561056f57600080fd5b5061024d61057e366004614327565b6113b3565b34801561058f57600080fd5b506102a361059e3660046142fb565b611463565b3480156105af57600080fd5b506102a36105be3660046142fb565b6114b2565b3480156105cf57600080fd5b506105e36105de3660046143b1565b6114bf565b60405161027a9190614414565b3480156105fc57600080fd5b5061024d6115cf565b34801561061157600080fd5b506102f9611692565b34801561062657600080fd5b50306104ce565b34801561063957600080fd5b5061024d610648366004614327565b6116f4565b34801561065957600080fd5b506102f96106683660046144aa565b6001600160a01b03918216600090815260066020908152604080832093909416825291909152205490565b34801561069f57600080fd5b506102f96106ae366004614327565b60076020526000908152604090205481565b3480156106cc57600080fd5b506105e36106db3660046143b1565b611749565b3480156106ec57600080fd5b5061024d611990565b34801561070157600080fd5b5061024d6107103660046143ce565b611a53565b34801561072157600080fd5b5061024d6107303660046143b1565b611abd565b34801561074157600080fd5b5061024d610750366004614327565b611b58565b6000610762826003611bdc565b6017546001600160a01b031660009081526005602052604090205490915061078a9082611bef565b6017546001600160a01b0390811660009081526005602052604080822093909355601854909116815220546107bf9082611bef565b6018546001600160a01b0390811660009081526005602052604080822093909355601954909116815220546107f49082611bef565b6019546001600160a01b03166000908152600560205260409020555050565b6060600b8054610822906144d8565b80601f016020809104026020016040519081016040528092919081815260200182805461084e906144d8565b801561089b5780601f106108705761010080835404028352916020019161089b565b820191906000526020600020905b81548152906001019060200180831161087e57829003601f168201915b5050505050905090565b60006108b2338484611bfb565b5060015b92915050565b6000546001600160a01b031633146108ef5760405162461bcd60e51b81526004016108e690614513565b60405180910390fd5b6004544210156109115760405162461bcd60e51b81526004016108e690614548565b600c54811061097e5760405162461bcd60e51b815260206004820152603360248201527f54616c6178546f6b656e3a20416d6f756e74206275726e74206c6172676572206044820152721d1a185b8814dd185ada5b99c814995dd85c99606a1b60648201526084016108e6565b600c5461098b9082611d22565b600c5560095461099b9082611d22565b6009556109ab426202a3006145ef565b60045550565b601f60009054906101000a90046001600160a01b03166001600160a01b03166338af3eed6040518163ffffffff1660e01b8152600401602060405180830381865afa158015610a04573d6000803e3d6000fd5b505050506040513d601f19601f82011682018060405250810190610a289190614607565b6001600160a01b0316336001600160a01b031614610a585760405162461bcd60e51b81526004016108e690614624565b601f546000906001600160a01b031663c8100dcc610a74611d2e565b6040518263ffffffff1660e01b8152600401610a90919061465b565b6020604051808303816000875af1158015610aaf573d6000803e3d6000fd5b505050506040513d601f19601f82011682018060405250810190610ad3919061468d565b33600090815260056020526040902054909150610af09082611bef565b3360009081526005602052604090205550565b6000610b108484846120f7565b610b628433610b5d856040518060600160405280602681526020016147a0602691396001600160a01b038a1660009081526006602090815260408083203384529091529020549190611bb0565b611bfb565b5060019392505050565b600080610b78836114bf565b905080602001518481518110610b9057610b906146a6565b60200260200101516040015142610ba791906146bc565b949350505050565b3360008181526006602090815260408083206001600160a01b038716845290915281205490916108b2918590610b5d9086611bef565b602360009054906101000a90046001600160a01b03166001600160a01b03166338af3eed6040518163ffffffff1660e01b8152600401602060405180830381865afa158015610c38573d6000803e3d6000fd5b505050506040513d601f19601f82011682018060405250810190610c5c9190614607565b6001600160a01b0316336001600160a01b031614610c8c5760405162461bcd60e51b81526004016108e690614624565b6023546000906001600160a01b031663c8100dcc610a746123cd565b602160009054906101000a90046001600160a01b03166001600160a01b03166338af3eed6040518163ffffffff1660e01b8152600401602060405180830381865afa158015610cfb573d6000803e3d6000fd5b505050506040513d601f19601f82011682018060405250810190610d1f9190614607565b6001600160a01b0316336001600160a01b031614610d4f5760405162461bcd60e51b81526004016108e690614624565b6021546000906001600160a01b031663c8100dcc610a746126c6565b6000546001600160a01b03163314610d955760405162461bcd60e51b81526004016108e690614513565b610d9f600061296a565b565b8062278d001480610db45750806276a700145b80610dc157508062ed4e00145b80610dcf5750806301e13380145b610e275760405162461bcd60e51b8152602060048201526024808201527f54616c6178546f6b656e3a205374616b696e67206f7074696f6e206e6f7420656044820152631e1a5cdd60e21b60648201526084016108e6565b336000908152600560205260409020548210610e985760405162461bcd60e51b815260206004820152602a60248201527f54616c6178546f6b656e3a2043616e6e6f74207374616b65206d6f7265207468604482015269616e2062616c616e636560b01b60648201526084016108e6565b600081815260076020526040902054610eb490839083906129ba565b610ebe3383612b56565b30600090815260056020526040902054610ed89083611bef565b505050565b601e60009054906101000a90046001600160a01b03166001600160a01b03166338af3eed6040518163ffffffff1660e01b8152600401602060405180830381865afa158015610f30573d6000803e3d6000fd5b505050506040513d601f19601f82011682018060405250810190610f549190614607565b6001600160a01b0316336001600160a01b031614610f845760405162461bcd60e51b81526004016108e690614624565b601e546000906001600160a01b031663c8100dcc610a74611d2e565b601d60009054906101000a90046001600160a01b03166001600160a01b03166338af3eed6040518163ffffffff1660e01b8152600401602060405180830381865afa158015610ff3573d6000803e3d6000fd5b505050506040513d601f19601f820116820180604052508101906110179190614607565b6001600160a01b0316336001600160a01b0316146110475760405162461bcd60e51b81526004016108e690614624565b601d546000906001600160a01b031663c8100dcc610a74612c7d565b60208054604080516338af3eed60e01b815290516001600160a01b03909216926338af3eed926004808401938290030181865afa1580156110a8573d6000803e3d6000fd5b505050506040513d601f19601f820116820180604052508101906110cc9190614607565b6001600160a01b0316336001600160a01b0316146110fc5760405162461bcd60e51b81526004016108e690614624565b6020546000906001600160a01b031663c8100dcc610a7461303f565b6000546001600160a01b031633146111425760405162461bcd60e51b81526004016108e690614513565b6004544210156111645760405162461bcd60e51b81526004016108e690614548565b6008805461ffff191661ffff831690811790915560405190815233907fdf92943b31fff67e8447ff9fa8b5e226ddcc5fb34d36cfe120c0f2b96eb8d6f79060200160405180910390a26109ab426202a3006145ef565b905090565b6000546001600160a01b031633146111e95760405162461bcd60e51b81526004016108e690614513565b60045442101561120b5760405162461bcd60e51b81526004016108e690614548565b61121481613401565b6109ab426202a3006145ef565b602260009054906101000a90046001600160a01b03166001600160a01b03166338af3eed6040518163ffffffff1660e01b8152600401602060405180830381865afa158015611274573d6000803e3d6000fd5b505050506040513d601f19601f820116820180604052508101906112989190614607565b6001600160a01b0316336001600160a01b0316146112c85760405162461bcd60e51b81526004016108e690614624565b6022546000906001600160a01b031663c8100dcc610a746126c6565b601a60009054906101000a90046001600160a01b03166001600160a01b03166338af3eed6040518163ffffffff1660e01b8152600401602060405180830381865afa158015611337573d6000803e3d6000fd5b505050506040513d601f19601f8201168201806040525081019061135b9190614607565b6010546001600160a01b039081169116146113885760405162461bcd60e51b81526004016108e690614624565b601a546000906001600160a01b031663c8100dcc610a7461343c565b6060600a8054610822906144d8565b6000546001600160a01b031633146113dd5760405162461bcd60e51b81526004016108e690614513565b6004544210156113ff5760405162461bcd60e51b81526004016108e690614548565b806114465760405162461bcd60e51b81526020600482015260176024820152760416d6f756e74206d696e742063616e6e6f74206265203604c1b60448201526064016108e6565b600c546114539082611bef565b600c5560095461099b9082611bef565b60006108b23384610b5d856040518060600160405280602a8152602001614752602a91393360009081526006602090815260408083206001600160a01b038d1684529091529020549190611bb0565b60006108b23384846120f7565b6040805180820190915260008152606060208201526000604051806040016040528060008152602001600260036000876001600160a01b03166001600160a01b031681526020019081526020016000205481548110611520576115206146a6565b9060005260206000209060020201600101805480602002602001604051908101604052809291908181526020016000905b828210156115c25760008481526020908190206040805160c0810182526006860290920180546001600160a01b031683526001808201548486015260028201549284019290925260038101546060840152600481015460808401526005015460a08301529083529092019101611551565b5050509152509392505050565b601b60009054906101000a90046001600160a01b03166001600160a01b03166338af3eed6040518163ffffffff1660e01b8152600401602060405180830381865afa158015611622573d6000803e3d6000fd5b505050506040513d601f19601f820116820180604052508101906116469190614607565b6001600160a01b0316336001600160a01b0316146116765760405162461bcd60e51b81526004016108e690614624565b601b546000906001600160a01b031663c8100dcc610a7461367c565b6040516370a0823160e01b815230600482018190526000916370a0823190602401602060405180830381865afa1580156116d0573d6000803e3d6000fd5b505050506040513d601f19601f820116820180604052508101906111ba919061468d565b6000546001600160a01b0316331461171e5760405162461bcd60e51b81526004016108e690614513565b6004544210156117405760405162461bcd60e51b81526004016108e690614548565b61121481613a3e565b604080518082019091526000815260606020820152600080604051806040016040528060008152602001600260036000886001600160a01b03166001600160a01b0316815260200190815260200160002054815481106117ab576117ab6146a6565b9060005260206000209060020201600101805480602002602001604051908101604052809291908181526020016000905b8282101561184d5760008481526020908190206040805160c0810182526006860290920180546001600160a01b031683526001808201548486015260028201549284019290925260038101546060840152600481015460808401526005015460a083015290835290920191016117dc565b5050509152506020810151519091506118c05760405162461bcd60e51b815260206004820152602f60248201527f5374616b61626c653a2054686973206164647265737320646f6573206e6f742060448201526e6861766520616e79207374616b657360881b60648201526084016108e6565b60005b81602001515181101561198657600061191a836020015183815181106118eb576118eb6146a6565b602002602001015184602001518481518110611909576119096146a6565b602002602001015160200151613b08565b90508083602001518381518110611933576119336146a6565b6020026020010151606001818152505082602001518281518110611959576119596146a6565b6020026020010151602001518461197091906145ef565b935061197f90506001826145ef565b90506118c3565b5090815292915050565b601c60009054906101000a90046001600160a01b03166001600160a01b03166338af3eed6040518163ffffffff1660e01b8152600401602060405180830381865afa1580156119e3573d6000803e3d6000fd5b505050506040513d601f19601f82011682018060405250810190611a079190614607565b6001600160a01b0316336001600160a01b031614611a375760405162461bcd60e51b81526004016108e690614624565b601c546000906001600160a01b031663c8100dcc610a7461367c565b600080611a608484613b5b565b91509150611a6d81613a3e565b30600090815260056020526040902054611a879083611d22565b5030600090815260056020526040902054611aa29082611d22565b50611ab7335b611ab283856145ef565b613e40565b50505050565b6000546001600160a01b03163314611ae75760405162461bcd60e51b81526004016108e690614513565b6001600160a01b038116611b4c5760405162461bcd60e51b815260206004820152602660248201527f4f776e61626c653a206e6577206f776e657220697320746865207a65726f206160448201526564647265737360d01b60648201526084016108e6565b611b558161296a565b50565b600080611b6483613f1a565b91509150611b7181613a3e565b30600090815260056020526040902054611b8b9083611d22565b5030600090815260056020526040902054611ba69082611d22565b50610ed833611aa8565b60008184841115611bd45760405162461bcd60e51b81526004016108e69190614291565b505050900390565b6000611be882846146e9565b9392505050565b6000611be882846145ef565b6001600160a01b038316611c5f5760405162461bcd60e51b815260206004820152602560248201527f54616c6178546f6b656e3a20617070726f76652066726f6d207a65726f206164604482015264647265737360d81b60648201526084016108e6565b6001600160a01b038216611cc15760405162461bcd60e51b815260206004820152602360248201527f54616c6178546f6b656e3a20617070726f766520746f207a65726f206164647260448201526265737360e81b60648201526084016108e6565b6001600160a01b0383811660008181526006602090815260408083209487168084529482529182902085905590518481527f8c5be1e5ebec7d5bd14f71427d1e84f3dd0314c0f7b2291e5b200ac8c7c3b925910160405180910390a3505050565b6000611be882846146bc565b611d36614272565b604051806105600160405280611d5762051615670de0b6b3a76400006140eb565b8152602001600081526020016000815260200160008152602001611d8662051615670de0b6b3a76400006140eb565b81526020016000815260200160008152602001611dae62051615670de0b6b3a76400006140eb565b81526020016000815260200160008152602001611dd662051615670de0b6b3a76400006140eb565b81526020016000815260200160008152602001611dfe62011a1e670de0b6b3a76400006140eb565b8152602001611e1862011a1e670de0b6b3a76400006140eb565b8152602001611e3262011a1e670de0b6b3a76400006140eb565b8152602001611e4c62011a1e670de0b6b3a76400006140eb565b8152602001611e6662011a1e670de0b6b3a76400006140eb565b8152602001611e8062011a1e670de0b6b3a76400006140eb565b8152602001611e9a62011a1e670de0b6b3a76400006140eb565b8152602001611eb462011a1e670de0b6b3a76400006140eb565b8152602001611ece62011a1e670de0b6b3a76400006140eb565b8152602001611ee862011a1e670de0b6b3a76400006140eb565b8152602001611f0262011a1e670de0b6b3a76400006140eb565b8152602001611f1c62011a1e670de0b6b3a76400006140eb565b8152602001611f3662011a1e670de0b6b3a76400006140eb565b8152602001611f5062011a1e670de0b6b3a76400006140eb565b8152602001611f6a62011a1e670de0b6b3a76400006140eb565b8152602001611f8462011a1e670de0b6b3a76400006140eb565b8152602001611f9e62011a1e670de0b6b3a76400006140eb565b8152602001611fb862011a1e670de0b6b3a76400006140eb565b8152602001611fd262011a1e670de0b6b3a76400006140eb565b8152602001611fec62011a1e670de0b6b3a76400006140eb565b815260200161200662011a1e670de0b6b3a76400006140eb565b815260200161202062011a1e670de0b6b3a76400006140eb565b815260200161203a62011a1e670de0b6b3a76400006140eb565b815260200161205462011a1e670de0b6b3a76400006140eb565b815260200161206e62011a1e670de0b6b3a76400006140eb565b815260200161208862011a1e670de0b6b3a76400006140eb565b81526020016120a262011a1e670de0b6b3a76400006140eb565b81526020016120bc62011a1e670de0b6b3a76400006140eb565b81526020016120d662011a1e670de0b6b3a76400006140eb565b81526020016120f062011a1e670de0b6b3a76400006140eb565b9052919050565b6001600160a01b03831661214d5760405162461bcd60e51b815260206004820152601f60248201527f54616c6178546f6b656e3a2073656e646572207a65726f20616464726573730060448201526064016108e6565b6001600160a01b0382166121ae5760405162461bcd60e51b815260206004820152602260248201527f54616c6178546f6b656e3a20726563697069656e74207a65726f206164647265604482015261737360f01b60648201526084016108e6565b6008546000906121ce906121c790849061ffff166140eb565b6064611bdc565b905060006121dc8383611d22565b905060006121ff6121f8836121f36002600a611bdc565b6140eb565b6003611bdc565b90506000612213836121f36008600a611bdc565b6017546001600160a01b031660009081526005602052604090205490915061223b9083611bef565b6017546001600160a01b0390811660009081526005602052604080822093909355601854909116815220546122709083611bef565b6018546001600160a01b0390811660009081526005602052604080822093909355601954909116815220546122a59083611bef565b6019546001600160a01b03166000908152600560205260408082209290925530815220546122d39082611bef565b60056000306001600160a01b03166001600160a01b03168152602001908152602001600020819055506123398560405180606001604052806024815260200161477c602491396001600160a01b038a166000908152600560205260409020549190611bb0565b6001600160a01b0380891660009081526005602052604080822093909355908816815220546123689084611bef565b6001600160a01b0380881660008181526005602052604090819020939093559151908916907fddf252ad1be2c89b69c2b068fc378daa952ba7f163c4a11628f55a4df523b3ef906123bc9087815260200190565b60405180910390a350505050505050565b6123d5614272565b6040518061056001604052806123f66211cd4a670de0b6b3a76400006140eb565b815260200160008152602001600081526020016000815260200161242562989680670de0b6b3a76400006140eb565b8152602001600081526020016000815260200161244d62989680670de0b6b3a76400006140eb565b8152602001600081526020016000815260200161247562989680670de0b6b3a76400006140eb565b8152602001600081526020016000815260200161249d62051616670de0b6b3a76400006140eb565b81526020016124b762051616670de0b6b3a76400006140eb565b81526020016124d162051616670de0b6b3a76400006140eb565b81526020016124eb62051616670de0b6b3a76400006140eb565b815260200161250562051616670de0b6b3a76400006140eb565b815260200161251f62051616670de0b6b3a76400006140eb565b815260200161253962051616670de0b6b3a76400006140eb565b815260200161255362051616670de0b6b3a76400006140eb565b815260200161256d62051616670de0b6b3a76400006140eb565b815260200161258762051616670de0b6b3a76400006140eb565b81526020016125a162051616670de0b6b3a76400006140eb565b81526020016125bb62051616670de0b6b3a76400006140eb565b81526020016125d562051616670de0b6b3a76400006140eb565b81526020016125ef62051616670de0b6b3a76400006140eb565b815260200161260962051616670de0b6b3a76400006140eb565b815260200161262362051616670de0b6b3a76400006140eb565b815260200161263d62051616670de0b6b3a76400006140eb565b815260200161265762051616670de0b6b3a76400006140eb565b815260200161267162051616670de0b6b3a76400006140eb565b8152602001600081526020016000815260200160008152602001600081526020016000815260200160008152602001600081526020016000815260200160008152602001600081526020016000815250905090565b6126ce614272565b6040518061056001604052806126ef6211cd4b670de0b6b3a76400006140eb565b815260200160008152602001600081526020016000815260200161271e620f4240670de0b6b3a76400006140eb565b81526020016000815260200160008152602001612746620f4240670de0b6b3a76400006140eb565b8152602001600081526020016000815260200161276e620f4240670de0b6b3a76400006140eb565b8152602001600081526020016000815260200161279662051615670de0b6b3a76400006140eb565b81526020016127b062051615670de0b6b3a76400006140eb565b81526020016127ca62051615670de0b6b3a76400006140eb565b81526020016127e462051615670de0b6b3a76400006140eb565b81526020016127fe62051615670de0b6b3a76400006140eb565b815260200161281862051615670de0b6b3a76400006140eb565b815260200161283262051615670de0b6b3a76400006140eb565b815260200161284c62051615670de0b6b3a76400006140eb565b815260200161286662051615670de0b6b3a76400006140eb565b815260200161288062051615670de0b6b3a76400006140eb565b815260200161289a62051615670de0b6b3a76400006140eb565b81526020016128b462051615670de0b6b3a76400006140eb565b81526020016128ce62051615670de0b6b3a76400006140eb565b81526020016128e862051615670de0b6b3a76400006140eb565b815260200161290262051615670de0b6b3a76400006140eb565b815260200161291c62051615670de0b6b3a76400006140eb565b815260200161293662051615670de0b6b3a76400006140eb565b815260200161295062051615670de0b6b3a76400006140eb565b815260200161267162051615670de0b6b3a76400006140eb565b600080546001600160a01b038381166001600160a01b0319831681178455604051919092169283917f8be0079c531659141344cd1fd0a4f28419497f9722a3daafe3b4186f6b6457e09190a35050565b60008311612a0a5760405162461bcd60e51b815260206004820152601e60248201527f5374616b61626c653a2043616e6e6f74207374616b65206e6f7468696e67000060448201526064016108e6565b336000908152600360205260409020544281612a2c57612a29336140f7565b91505b60028281548110612a3f57612a3f6146a6565b90600052602060002090600202016001016040518060c00160405280336001600160a01b03168152602001878152602001838152602001600081526020018581526020018387612a8f91906145ef565b90528154600180820184556000938452602093849020835160069093020180546001600160a01b0319166001600160a01b03909316929092178255928201519281019290925560408101516002830155606081015160038301556080810151600483015560a00151600590910155337f9cfd25589d1eb8ad71e342a86a8524e83522e3936c0803048c08f6d9ad974f40868484612b2c818a6145ef565b60408051948552602085019390935291830152606082015260800160405180910390a25050505050565b6001600160a01b038216612bb75760405162461bcd60e51b815260206004820152602260248201527f54616c6178546f6b656e3a206275726e2066726f6d207a65726f206164647265604482015261737360f01b60648201526084016108e6565b60408051808201825260208082527f54616c6178546f6b656e3a206275726e20657863656564732062616c616e6365818301526001600160a01b038516600090815260059091529190912054612c0e918390611bb0565b6001600160a01b038316600090815260056020526040902055600954612c349082611d22565b6009556040518181526000906001600160a01b038416907fddf252ad1be2c89b69c2b068fc378daa952ba7f163c4a11628f55a4df523b3ef906020015b60405180910390a35050565b612c85614272565b604051806105600160405280612ca6620f4240670de0b6b3a76400006140eb565b8152602001600081526020016000815260200160008152602001612cd5620f4240670de0b6b3a76400006140eb565b81526020016000815260200160008152602001612cfd620f4240670de0b6b3a76400006140eb565b81526020016000815260200160008152602001612d25620f4240670de0b6b3a76400006140eb565b81526020016000815260200160008152602001612d4d62051616670de0b6b3a76400006140eb565b8152602001612d6762051616670de0b6b3a76400006140eb565b8152602001612d8162051616670de0b6b3a76400006140eb565b8152602001612d9b62051616670de0b6b3a76400006140eb565b8152602001612db562051616670de0b6b3a76400006140eb565b8152602001612dcf62051616670de0b6b3a76400006140eb565b8152602001612de962051616670de0b6b3a76400006140eb565b8152602001612e0362051616670de0b6b3a76400006140eb565b8152602001612e1d62051616670de0b6b3a76400006140eb565b8152602001612e3762051616670de0b6b3a76400006140eb565b8152602001612e5162051616670de0b6b3a76400006140eb565b8152602001612e6b62051616670de0b6b3a76400006140eb565b8152602001612e8562051616670de0b6b3a76400006140eb565b8152602001612e9f62051616670de0b6b3a76400006140eb565b8152602001612eb962051616670de0b6b3a76400006140eb565b8152602001612ed362051616670de0b6b3a76400006140eb565b8152602001612eed62051616670de0b6b3a76400006140eb565b8152602001612f0762051616670de0b6b3a76400006140eb565b8152602001612f2162051616670de0b6b3a76400006140eb565b8152602001612f3b62051616670de0b6b3a76400006140eb565b8152602001612f5562051616670de0b6b3a76400006140eb565b8152602001612f6f62051616670de0b6b3a76400006140eb565b8152602001612f8962051616670de0b6b3a76400006140eb565b8152602001612fa362051616670de0b6b3a76400006140eb565b8152602001612fbd62051616670de0b6b3a76400006140eb565b8152602001612fd762051616670de0b6b3a76400006140eb565b8152602001612ff162051616670de0b6b3a76400006140eb565b815260200161300b62051616670de0b6b3a76400006140eb565b815260200161302562051616670de0b6b3a76400006140eb565b81526020016120f062051616670de0b6b3a76400006140eb565b613047614272565b60405180610560016040528061306862051616670de0b6b3a76400006140eb565b815260200160008152602001600081526020016000815260200161309762051616670de0b6b3a76400006140eb565b815260200160008152602001600081526020016130bf62051616670de0b6b3a76400006140eb565b815260200160008152602001600081526020016130e762051616670de0b6b3a76400006140eb565b8152602001600081526020016000815260200161310f62011a1f670de0b6b3a76400006140eb565b815260200161312962011a1f670de0b6b3a76400006140eb565b815260200161314362011a1f670de0b6b3a76400006140eb565b815260200161315d62011a1f670de0b6b3a76400006140eb565b815260200161317762011a1f670de0b6b3a76400006140eb565b815260200161319162011a1f670de0b6b3a76400006140eb565b81526020016131ab62011a1f670de0b6b3a76400006140eb565b81526020016131c562011a1f670de0b6b3a76400006140eb565b81526020016131df62011a1f670de0b6b3a76400006140eb565b81526020016131f962011a1f670de0b6b3a76400006140eb565b815260200161321362011a1f670de0b6b3a76400006140eb565b815260200161322d62011a1f670de0b6b3a76400006140eb565b815260200161324762011a1f670de0b6b3a76400006140eb565b815260200161326162011a1f670de0b6b3a76400006140eb565b815260200161327b62011a1f670de0b6b3a76400006140eb565b815260200161329562011a1f670de0b6b3a76400006140eb565b81526020016132af62011a1f670de0b6b3a76400006140eb565b81526020016132c962011a1f670de0b6b3a76400006140eb565b81526020016132e362011a1f670de0b6b3a76400006140eb565b81526020016132fd62011a1f670de0b6b3a76400006140eb565b815260200161331762011a1f670de0b6b3a76400006140eb565b815260200161333162011a1f670de0b6b3a76400006140eb565b815260200161334b62011a1f670de0b6b3a76400006140eb565b815260200161336562011a1f670de0b6b3a76400006140eb565b815260200161337f62011a1f670de0b6b3a76400006140eb565b815260200161339962011a1f670de0b6b3a76400006140eb565b81526020016133b362011a1f670de0b6b3a76400006140eb565b81526020016133cd62011a1f670de0b6b3a76400006140eb565b81526020016133e762011a1f670de0b6b3a76400006140eb565b81526020016120f062011a1f670de0b6b3a76400006140eb565b60018190556040518181527fcfa4f4cf1cd64d13a167a8e75605e0c0c9d6700e903d17c5dc11f593254a04a99060200160405180910390a150565b613444614272565b60405180610560016040528060008152602001600081526020016000815260200160008152602001600081526020016000815260200160008152602001613495674563918244f40000611b51611bdc565b81526020016134ae674563918244f40000611b51611bdc565b81526020016134c7674563918244f40000611b51611bdc565b81526020016134e0674563918244f40000611b51611bdc565b81526020016134f9674563918244f40000611b51611bdc565b8152602001613512674563918244f40000611b51611bdc565b815260200161352b674563918244f40000611b51611bdc565b8152602001613544674563918244f40000611b51611bdc565b815260200161355d674563918244f40000611b51611bdc565b8152602001613576674563918244f40000611b51611bdc565b815260200161358f674563918244f40000611b51611bdc565b81526020016135a8674563918244f40000611b51611bdc565b81526020016135c1674563918244f40000611b51611bdc565b81526020016135da67446ae0e136ad0000611b51611bdc565b81526020016000815260200160008152602001600081526020016000815260200160008152602001600081526020016000815260200160008152602001600081526020016000815260200160008152602001600081526020016000815260200160008152602001600081526020016000815260200160008152602001600081526020016000815260200160008152602001600081526020016000815250905090565b613684614272565b6040518061056001604052806136a5620f4240670de0b6b3a76400006140eb565b81526020016000815260200160008152602001600081526020016136d4620f4240670de0b6b3a76400006140eb565b815260200160008152602001600081526020016136fc620f4240670de0b6b3a76400006140eb565b81526020016000815260200160008152602001613724620f4240670de0b6b3a76400006140eb565b8152602001600081526020016000815260200161374c62051615670de0b6b3a76400006140eb565b815260200161376662051615670de0b6b3a76400006140eb565b815260200161378062051615670de0b6b3a76400006140eb565b815260200161379a62051615670de0b6b3a76400006140eb565b81526020016137b462051615670de0b6b3a76400006140eb565b81526020016137ce62051615670de0b6b3a76400006140eb565b81526020016137e862051615670de0b6b3a76400006140eb565b815260200161380262051615670de0b6b3a76400006140eb565b815260200161381c62051615670de0b6b3a76400006140eb565b815260200161383662051615670de0b6b3a76400006140eb565b815260200161385062051615670de0b6b3a76400006140eb565b815260200161386a62051615670de0b6b3a76400006140eb565b815260200161388462051615670de0b6b3a76400006140eb565b815260200161389e62051615670de0b6b3a76400006140eb565b81526020016138b862051615670de0b6b3a76400006140eb565b81526020016138d262051615670de0b6b3a76400006140eb565b81526020016138ec62051615670de0b6b3a76400006140eb565b815260200161390662051615670de0b6b3a76400006140eb565b815260200161392062051615670de0b6b3a76400006140eb565b815260200161393a62051615670de0b6b3a76400006140eb565b815260200161395462051615670de0b6b3a76400006140eb565b815260200161396e62051615670de0b6b3a76400006140eb565b815260200161398862051615670de0b6b3a76400006140eb565b81526020016139a262051615670de0b6b3a76400006140eb565b81526020016139bc62051615670de0b6b3a76400006140eb565b81526020016139d662051615670de0b6b3a76400006140eb565b81526020016139f062051615670de0b6b3a76400006140eb565b8152602001613a0a62051615670de0b6b3a76400006140eb565b8152602001613a2462051615670de0b6b3a76400006140eb565b81526020016120f062051615670de0b6b3a76400006140eb565b6000546001600160a01b03163314613a685760405162461bcd60e51b81526004016108e690614513565b600454421015613a8a5760405162461bcd60e51b81526004016108e690614548565b80613ad15760405162461bcd60e51b81526020600482015260176024820152760416d6f756e74206d696e742063616e6e6f74206265203604c1b60448201526064016108e6565b30600090815260056020526040902054613aeb9082611bef565b3060009081526005602052604090205560095461099b9082611bef565b6000826020015160001415613b1f575060006108b6565b6a52b7d2dcc80cd2e4000000613b38846040015161416d565b6080850151613b47908561470b565b613b51919061470b565b611be891906146e9565b3360009081526003602052604081205460028054839291839183908110613b8457613b846146a6565b90600052602060002090600202016001018581548110613ba657613ba66146a6565b60009182526020918290206040805160c081018252600690930290910180546001600160a01b03168352600181015493830184905260028101549183019190915260038101546060830152600481015460808301526005015460a08201529150861115613c715760405162461bcd60e51b815260206004820152603360248201527f5374616b61626c653a2043616e6e6f74207769746864726177206d6f726520746044820152721a185b881e5bdd481a185d99481cdd185ad959606a1b60648201526084016108e6565b6000613c7d8288613b08565b9050428260a001511015613c9857613c958782614202565b50505b600082604001518360a00151613cae91906146bc565b9050878360200151613cc091906146bc565b60208401819052613d425760028481548110613cde57613cde6146a6565b90600052602060002090600202016001018781548110613d0057613d006146a6565b60009182526020822060069091020180546001600160a01b03191681556001810182905560028101829055600381018290556004810182905560050155613e30565b826020015160028581548110613d5a57613d5a6146a6565b90600052602060002090600202016001018881548110613d7c57613d7c6146a6565b9060005260206000209060060201600101819055504260028581548110613da557613da56146a6565b90600052602060002090600202016001018881548110613dc757613dc76146a6565b6000918252602090912060026006909202010155613de581426145ef565b60028581548110613df857613df86146a6565b90600052602060002090600202016001018881548110613e1a57613e1a6146a6565b9060005260206000209060060201600501819055505b50869450925050505b9250929050565b6001600160a01b038216613e965760405162461bcd60e51b815260206004820181905260248201527f54616c6178546f6b656e3a206d696e7420746f207a65726f206164647265737360448201526064016108e6565b600954613ea39082611bef565b6009556001600160a01b038216600090815260056020526040902054613ec99082611bef565b6001600160a01b0383166000818152600560205260408082209390935591519091907fddf252ad1be2c89b69c2b068fc378daa952ba7f163c4a11628f55a4df523b3ef90612c719085815260200190565b3360009081526003602052604081205460028054839291839183908110613f4357613f436146a6565b90600052602060002090600202016001018581548110613f6557613f656146a6565b60009182526020918290206040805160c081018252600690930290910180546001600160a01b03168352600181015493830184905260028101549183019190915260038101546060830152600481015460808301526005015460a082015291506140415760405162461bcd60e51b815260206004820152604160248201527f5374616b61626c653a2043616e6e6f742077697468647261772c20796f75206460448201527f6f6e2774206861766520616e79207374616b6520696e207468697320496e64656064820152600f60fb1b608482015260a4016108e6565b602081015160006140528383613b08565b9050428360a00151101561406d5761406a8282614202565b50505b60028481548110614080576140806146a6565b906000526020600020906002020160010187815481106140a2576140a26146a6565b60009182526020822060069091020180546001600160a01b0319168155600181018290556002810182905560038101829055600481018290556005015590969095509350505050565b6000611be8828461470b565b60028054600190810180835560009283528291614113916146bc565b90508260028281548110614129576141296146a6565b6000918252602080832060029290920290910180546001600160a01b0319166001600160a01b03948516179055949091168152600390935260409092208290555090565b60008082116141be5760405162461bcd60e51b815260206004820152601b60248201527f5374616b61626c653a204572726f722074696d657374616d702030000000000060448201526064016108e6565b6108b66141cb83426146bc565b6141df9069d3c21bcecceda100000061470b565b6301e1338060405180606001604052806027815260200161472b60279139614238565b6000808361421557506000905080613e39565b614221846001546140eb565b61422d846001546140eb565b915091509250929050565b600081836142595760405162461bcd60e51b81526004016108e69190614291565b50828481614269576142696146d3565b04949350505050565b604051806105600160405280602b906020820280368337509192915050565b600060208083528351808285015260005b818110156142be578581018301518582016040015282016142a2565b818111156142d0576000604083870101525b50601f01601f1916929092016040019392505050565b6001600160a01b0381168114611b5557600080fd5b6000806040838503121561430e57600080fd5b8235614319816142e6565b946020939093013593505050565b60006020828403121561433957600080fd5b5035919050565b60008060006060848603121561435557600080fd5b8335614360816142e6565b92506020840135614370816142e6565b929592945050506040919091013590565b6000806040838503121561439457600080fd5b8235915060208301356143a6816142e6565b809150509250929050565b6000602082840312156143c357600080fd5b8135611be8816142e6565b600080604083850312156143e157600080fd5b50508035926020909101359150565b60006020828403121561440257600080fd5b813561ffff81168114611be857600080fd5b6000602080835260608084018551838601528286015160408081880152828251808552608094508489019150868401935060005b8181101561449b57845180516001600160a01b03168452888101518985015284810151858501528781015188850152868101518785015260a090810151908401529387019360c090920191600101614448565b50909998505050505050505050565b600080604083850312156144bd57600080fd5b82356144c8816142e6565b915060208301356143a6816142e6565b600181811c908216806144ec57607f821691505b6020821081141561450d57634e487b7160e01b600052602260045260246000fd5b50919050565b6020808252818101527f4f776e61626c653a2063616c6c6572206973206e6f7420746865206f776e6572604082015260600190565b60208082526065908201527f41646d696e6973747261746976652066756e6374696f6e732063616e6e6f742060408201527f62652063616c6c656420696e20746869732054696d654c6f636b20706572696f60608201527f642028343820686f757273292c20706c656173652074727920616761696e206c60808201526430ba32b91760d91b60a082015260c00190565b634e487b7160e01b600052601160045260246000fd5b60008219821115614602576146026145d9565b500190565b60006020828403121561461957600080fd5b8151611be8816142e6565b6020808252601d908201527f54616c6178546f6b656e3a2057616c6c6574204f776e6572204f6e6c79000000604082015260600190565b6105608101818360005b602b811015614684578151835260209283019290910190600101614665565b50505092915050565b60006020828403121561469f57600080fd5b5051919050565b634e487b7160e01b600052603260045260246000fd5b6000828210156146ce576146ce6145d9565b500390565b634e487b7160e01b600052601260045260246000fd5b60008261470657634e487b7160e01b600052601260045260246000fd5b500490565b6000816000190483118215151615614725576147256145d9565b50029056fe5374616b61626c653a204572726f722063616e6e6f74206469766964652074696d657374616d7054616c6178546f6b656e3a2064656372656173656420616c6c6f77616e63652062656c6f77207a65726f54616c6178546f6b656e3a207472616e7366657220657863656564732062616c616e636554616c6178546f6b656e3a207472616e73666572206578636565647320616c6c6f77616e6365a2646970667358221220eb304e482c418b219cec5033ede3c9ab3d6624dac5795bb90f2d5d2d1c7ba0bf64736f6c634300080b003360a060405234801561001057600080fd5b5060405161059938038061059983398101604081905261002f916100b3565b600082116100985760405162461bcd60e51b815260206004820152602c60248201527f546f6b656e54696d654c6f636b3a20416d6f756e74206d75737420677265617460448201526b6572207468616e207a65726f60a01b606482015260840160405180910390fd5b6000919091556001600160a01b0316608052426001556100f0565b600080604083850312156100c657600080fd5b825160208401519092506001600160a01b03811681146100e557600080fd5b809150509250929050565b60805161048f61010a60003960006053015261048f6000f3fe608060405234801561001057600080fd5b50600436106100415760003560e01c806338af3eed14610046578063aa8c217c14610082578063c8100dcc14610094575b600080fd5b6040516001600160a01b037f00000000000000000000000000000000000000000000000000000000000000001681526020015b60405180910390f35b6000545b604051908152602001610079565b6100866100a23660046102a4565b600080600054116100fa5760405162461bcd60e51b815260206004820152601d60248201527f546f6b656e54696d656c6f636b3a206e6f20746f6b656e73206c65667400000060448201526064015b60405180910390fd5b600061010583610191565b9050600081116101635760405162461bcd60e51b815260206004820152602360248201527f546f6b656e54696d656c6f636b3a206e6f20746f6b656e7320746f2072656c6560448201526261736560e81b60648201526084016100f1565b610188600054826040518060600160405280603b815260200161041f603b913961026c565b60005592915050565b60008062278d00600154426101a69190610347565b6101b0919061035e565b6002549091506000905b8281116101f5576101e1828683602b81106101d7576101d7610380565b6020020151610298565b9150806101ed81610396565b9150506101ba565b506102018260016103b1565b600255806102655760405162461bcd60e51b815260206004820152602b60248201527f546f6b656e54696d654c6f636b3a2054686572652773206e6f7468696e67207460448201526a1bc818db185a5b481e595d60aa1b60648201526084016100f1565b9392505050565b600081848411156102905760405162461bcd60e51b81526004016100f191906103c9565b505050900390565b600061026582846103b1565b60006105608083850312156102b857600080fd5b83601f8401126102c757600080fd5b60405181810181811067ffffffffffffffff821117156102f757634e487b7160e01b600052604160045260246000fd5b60405290830190808583111561030c57600080fd5b845b8381101561032657803582526020918201910161030e565b509095945050505050565b634e487b7160e01b600052601160045260246000fd5b60008282101561035957610359610331565b500390565b60008261037b57634e487b7160e01b600052601260045260246000fd5b500490565b634e487b7160e01b600052603260045260246000fd5b60006000198214156103aa576103aa610331565b5060010190565b600082198211156103c4576103c4610331565b500190565b600060208083528351808285015260005b818110156103f6578581018301518582016040015282016103da565b81811115610408576000604083870101525b50601f01601f191692909201604001939250505056fe546f6b656e54696d654c6f636b3a2043616e6e6f742073756273747261637420746f74616c20616d6f756e74207769746820636c61696d61626c65a26469706673582212207176dd80a026102c7de19190b6251a8280d0e982bc5f206b76b1f664c0cf8d0664736f6c634300080b003354616c6178546f6b656e3a2043616e6e6f74207472616e73666572206d6f7265207468616e20746f74616c20737570706c79",
			"opcodes": "PUSH1 0x80 PUSH1 0x40 MSTORE CALLVALUE DUP1 ISZERO PUSH3 0x11 JUMPI PUSH1 0x0 DUP1 REVERT JUMPDEST POP PUSH3 0x1D CALLER PUSH3 0x857 JUMP JUMPDEST PUSH1 0x2 DUP1 SLOAD PUSH1 0x1 SWAP1 DUP2 ADD DUP3 SSTORE PUSH1 0x0 SWAP2 DUP3 MSTORE PUSH1 0x5 SWAP1 SSTORE PUSH1 0x4 SSTORE PUSH1 0x40 DUP1 MLOAD DUP1 DUP3 ADD SWAP1 SWAP2 MSTORE PUSH1 0x8 DUP1 DUP3 MSTORE PUSH8 0x54414C415845554D PUSH1 0xC0 SHL PUSH1 0x20 SWAP1 SWAP3 ADD SWAP2 DUP3 MSTORE PUSH3 0x65 SWAP2 PUSH1 0xB SWAP2 PUSH3 0x8DF JUMP JUMPDEST POP PUSH1 0x40 DUP1 MLOAD DUP1 DUP3 ADD SWAP1 SWAP2 MSTORE PUSH1 0x5 DUP1 DUP3 MSTORE PUSH5 0xA8829882B PUSH1 0xDB SHL PUSH1 0x20 SWAP1 SWAP3 ADD SWAP2 DUP3 MSTORE PUSH3 0x94 SWAP2 PUSH1 0xA SWAP2 PUSH3 0x8DF JUMP JUMPDEST POP PUSH1 0x8 DUP1 SLOAD PUSH11 0xADB53ACFA41AEE12000000 PUSH1 0x9 SSTORE PUSH3 0x120001 PUSH3 0xFFFFFF NOT SWAP1 SWAP2 AND OR DUP2 SSTORE PUSH1 0x5 PUSH32 0x81C0D0EEDD95C2967D71ABE024358B07686D439B6DEB73CA816C879F65143F17 DUP2 SWAP1 SSTORE PUSH1 0x6 PUSH32 0x697A8F16D09902FC66AEDEDA639E007044702868D25F1DF80D815EE49A49694D SSTORE PUSH1 0x7 PUSH32 0xC3E5B0CAF49C47CE280AF2AB7B117FA4956253D41AF9B17DC3AD956DAA45F84D SSTORE PUSH32 0x15657153944555FC80BA38EFD42AA24691B6CCE1122F46E1CD17915D63E3E7CB SWAP2 SWAP1 SWAP2 SSTORE PUSH1 0xE DUP1 SLOAD PUSH1 0x1 PUSH1 0x1 PUSH1 0xA0 SHL SUB NOT SWAP1 DUP2 AND PUSH20 0x5470C8FF25EC05980FC7C2967D076B8012298FE7 OR SWAP1 SWAP2 SSTORE PUSH1 0xF DUP1 SLOAD DUP3 AND PUSH20 0x75837E79215250C45331B92C35B7BE506ED015AC SWAP1 DUP2 OR SWAP1 SWAP2 SSTORE PUSH1 0x10 DUP1 SLOAD DUP4 AND PUSH20 0x7A20DC6722563783E44BA8EDCA08C774621125E OR SWAP1 SSTORE PUSH1 0x11 DUP1 SLOAD DUP4 AND PUSH20 0xF09F65DD4D229E991901669AD7C7549F060E30B9 OR SWAP1 SSTORE PUSH1 0x12 DUP1 SLOAD DUP4 AND PUSH20 0x1A2118E056D6AF192E233C2C9CFB34E067DED1F8 OR SWAP1 SSTORE PUSH1 0x13 DUP1 SLOAD DUP4 AND PUSH20 0x126974FA373267D86FAB6D6871AFE62CCB68E810 OR SWAP1 SSTORE PUSH1 0x14 DUP1 SLOAD DUP4 AND PUSH20 0x2F838CF0DF38B2E91E747A01DDAE5EBAD5558B7A OR SWAP1 SSTORE PUSH1 0x15 DUP1 SLOAD DUP4 AND PUSH20 0x45094071C4DAAF6A9A73B0A0F095A2B138BD8A3A OR SWAP1 SSTORE PUSH1 0x16 DUP1 SLOAD DUP4 AND PUSH20 0xAEB26FB84D0E2B3B353CD50F0A29FD40C916D2AB OR SWAP1 SSTORE PUSH1 0x17 DUP1 SLOAD DUP4 AND PUSH20 0xE61E7A7D16DB384433E532FB85724E7F3BDAAE2F OR SWAP1 SSTORE PUSH1 0x18 DUP1 SLOAD DUP4 AND PUSH20 0x406605EB24A97A2D61B516D8D850F2AEFA6A731A OR SWAP1 SSTORE PUSH1 0x19 DUP1 SLOAD SWAP1 SWAP3 AND PUSH20 0x97620DEADC98BC8173303686037CE7B986CF53C3 OR SWAP1 SWAP2 SSTORE PUSH11 0xE7CBBD7AA8310AE400000 PUSH1 0xC SSTORE ADDRESS PUSH1 0x0 SWAP1 DUP2 MSTORE PUSH1 0x20 SWAP3 DUP4 MSTORE PUSH1 0x40 DUP1 DUP3 KECCAK256 PUSH11 0x2B6D4EB3E906BB84800000 SWAP1 SSTORE PUSH11 0x22BDD88FED9EFC6A000000 PUSH32 0x7DBD83BAB355C16350A9E53491BB59CEF90D005F9FF00A79B984FE1CF3D5D1E SSTORE SWAP2 SWAP1 MSTORE PUSH11 0x5C8D34A23DA1650A00000 PUSH32 0xD4EDE8B55F1DB766D064F9DE6D20CFE6616036BFE8CBC282A019ABB7537766D4 SSTORE DUP1 MLOAD PUSH1 0x60 DUP2 ADD SWAP1 SWAP2 MSTORE PUSH1 0x32 DUP1 DUP3 MSTORE PUSH3 0x390 SWAP3 PUSH11 0x3CCC3AFBDFD639B9800000 SWAP3 SWAP2 SWAP1 PUSH3 0x57CC SWAP1 DUP4 ADD CODECOPY PUSH1 0x9 SLOAD PUSH3 0x8A7 PUSH1 0x20 SHL PUSH3 0x1BB0 OR SWAP1 SWAP3 SWAP2 SWAP1 PUSH1 0x20 SHR JUMP JUMPDEST PUSH1 0x9 SSTORE PUSH1 0x10 SLOAD PUSH1 0x40 MLOAD PUSH11 0x5C8D34A23DA1650A00000 SWAP2 PUSH1 0x1 PUSH1 0x1 PUSH1 0xA0 SHL SUB AND SWAP1 PUSH3 0x3BB SWAP1 PUSH3 0x96E JUMP JUMPDEST SWAP2 DUP3 MSTORE PUSH1 0x1 PUSH1 0x1 PUSH1 0xA0 SHL SUB AND PUSH1 0x20 DUP3 ADD MSTORE PUSH1 0x40 ADD PUSH1 0x40 MLOAD DUP1 SWAP2 SUB SWAP1 PUSH1 0x0 CREATE DUP1 ISZERO DUP1 ISZERO PUSH3 0x3EC JUMPI RETURNDATASIZE PUSH1 0x0 DUP1 RETURNDATACOPY RETURNDATASIZE PUSH1 0x0 REVERT JUMPDEST POP PUSH1 0x1A DUP1 SLOAD PUSH1 0x1 PUSH1 0x1 PUSH1 0xA0 SHL SUB NOT AND PUSH1 0x1 PUSH1 0x1 PUSH1 0xA0 SHL SUB SWAP3 DUP4 AND OR SWAP1 SSTORE PUSH1 0x11 SLOAD PUSH1 0x40 MLOAD PUSH11 0xB949D854F34FECE000000 SWAP3 SWAP2 SWAP1 SWAP2 AND SWAP1 PUSH3 0x42C SWAP1 PUSH3 0x96E JUMP JUMPDEST SWAP2 DUP3 MSTORE PUSH1 0x1 PUSH1 0x1 PUSH1 0xA0 SHL SUB AND PUSH1 0x20 DUP3 ADD MSTORE PUSH1 0x40 ADD PUSH1 0x40 MLOAD DUP1 SWAP2 SUB SWAP1 PUSH1 0x0 CREATE DUP1 ISZERO DUP1 ISZERO PUSH3 0x45D JUMPI RETURNDATASIZE PUSH1 0x0 DUP1 RETURNDATACOPY RETURNDATASIZE PUSH1 0x0 REVERT JUMPDEST POP PUSH1 0x1B DUP1 SLOAD PUSH1 0x1 PUSH1 0x1 PUSH1 0xA0 SHL SUB NOT AND PUSH1 0x1 PUSH1 0x1 PUSH1 0xA0 SHL SUB SWAP3 DUP4 AND OR SWAP1 SSTORE PUSH1 0x12 SLOAD PUSH1 0x40 MLOAD PUSH11 0xB949D854F34FECE000000 SWAP3 SWAP2 SWAP1 SWAP2 AND SWAP1 PUSH3 0x49D SWAP1 PUSH3 0x96E JUMP JUMPDEST SWAP2 DUP3 MSTORE PUSH1 0x1 PUSH1 0x1 PUSH1 0xA0 SHL SUB AND PUSH1 0x20 DUP3 ADD MSTORE PUSH1 0x40 ADD PUSH1 0x40 MLOAD DUP1 SWAP2 SUB SWAP1 PUSH1 0x0 CREATE DUP1 ISZERO DUP1 ISZERO PUSH3 0x4CE JUMPI RETURNDATASIZE PUSH1 0x0 DUP1 RETURNDATACOPY RETURNDATASIZE PUSH1 0x0 REVERT JUMPDEST POP PUSH1 0x1C DUP1 SLOAD PUSH1 0x1 PUSH1 0x1 PUSH1 0xA0 SHL SUB NOT AND PUSH1 0x1 PUSH1 0x1 PUSH1 0xA0 SHL SUB SWAP3 DUP4 AND OR SWAP1 SSTORE PUSH1 0x13 SLOAD PUSH1 0x40 MLOAD PUSH11 0xB949D854F34FECE000000 SWAP3 SWAP2 SWAP1 SWAP2 AND SWAP1 PUSH3 0x50E SWAP1 PUSH3 0x96E JUMP JUMPDEST SWAP2 DUP3 MSTORE PUSH1 0x1 PUSH1 0x1 PUSH1 0xA0 SHL SUB AND PUSH1 0x20 DUP3 ADD MSTORE PUSH1 0x40 ADD PUSH1 0x40 MLOAD DUP1 SWAP2 SUB SWAP1 PUSH1 0x0 CREATE DUP1 ISZERO DUP1 ISZERO PUSH3 0x53F JUMPI RETURNDATASIZE PUSH1 0x0 DUP1 RETURNDATACOPY RETURNDATASIZE PUSH1 0x0 REVERT JUMPDEST POP PUSH1 0x1D DUP1 SLOAD PUSH1 0x1 PUSH1 0x1 PUSH1 0xA0 SHL SUB NOT AND PUSH1 0x1 PUSH1 0x1 PUSH1 0xA0 SHL SUB SWAP3 DUP4 AND OR SWAP1 SSTORE PUSH1 0x14 SLOAD PUSH1 0x40 MLOAD PUSH11 0x2E5276153CD3FB3800000 SWAP3 SWAP2 SWAP1 SWAP2 AND SWAP1 PUSH3 0x57F SWAP1 PUSH3 0x96E JUMP JUMPDEST SWAP2 DUP3 MSTORE PUSH1 0x1 PUSH1 0x1 PUSH1 0xA0 SHL SUB AND PUSH1 0x20 DUP3 ADD MSTORE PUSH1 0x40 ADD PUSH1 0x40 MLOAD DUP1 SWAP2 SUB SWAP1 PUSH1 0x0 CREATE DUP1 ISZERO DUP1 ISZERO PUSH3 0x5B0 JUMPI RETURNDATASIZE PUSH1 0x0 DUP1 RETURNDATACOPY RETURNDATASIZE PUSH1 0x0 REVERT JUMPDEST POP PUSH1 0x1E DUP1 SLOAD PUSH1 0x1 PUSH1 0x1 PUSH1 0xA0 SHL SUB NOT AND PUSH1 0x1 PUSH1 0x1 PUSH1 0xA0 SHL SUB SWAP3 DUP4 AND OR SWAP1 SSTORE PUSH1 0x15 SLOAD PUSH1 0x40 MLOAD PUSH11 0x2E5276153CD3FB3800000 SWAP3 SWAP2 SWAP1 SWAP2 AND SWAP1 PUSH3 0x5F0 SWAP1 PUSH3 0x96E JUMP JUMPDEST SWAP2 DUP3 MSTORE PUSH1 0x1 PUSH1 0x1 PUSH1 0xA0 SHL SUB AND PUSH1 0x20 DUP3 ADD MSTORE PUSH1 0x40 ADD PUSH1 0x40 MLOAD DUP1 SWAP2 SUB SWAP1 PUSH1 0x0 CREATE DUP1 ISZERO DUP1 ISZERO PUSH3 0x621 JUMPI RETURNDATASIZE PUSH1 0x0 DUP1 RETURNDATACOPY RETURNDATASIZE PUSH1 0x0 REVERT JUMPDEST POP PUSH1 0x1F DUP1 SLOAD PUSH1 0x1 PUSH1 0x1 PUSH1 0xA0 SHL SUB NOT AND PUSH1 0x1 PUSH1 0x1 PUSH1 0xA0 SHL SUB SWAP3 DUP4 AND OR SWAP1 SSTORE PUSH1 0x16 SLOAD PUSH1 0x40 MLOAD PUSH11 0x2E5276153CD3FB3800000 SWAP3 SWAP2 SWAP1 SWAP2 AND SWAP1 PUSH3 0x661 SWAP1 PUSH3 0x96E JUMP JUMPDEST SWAP2 DUP3 MSTORE PUSH1 0x1 PUSH1 0x1 PUSH1 0xA0 SHL SUB AND PUSH1 0x20 DUP3 ADD MSTORE PUSH1 0x40 ADD PUSH1 0x40 MLOAD DUP1 SWAP2 SUB SWAP1 PUSH1 0x0 CREATE DUP1 ISZERO DUP1 ISZERO PUSH3 0x692 JUMPI RETURNDATASIZE PUSH1 0x0 DUP1 RETURNDATACOPY RETURNDATASIZE PUSH1 0x0 REVERT JUMPDEST POP PUSH1 0x20 DUP1 SLOAD PUSH1 0x1 PUSH1 0x1 PUSH1 0xA0 SHL SUB NOT AND PUSH1 0x1 PUSH1 0x1 PUSH1 0xA0 SHL SUB SWAP3 DUP4 AND OR SWAP1 SSTORE PUSH1 0x17 SLOAD PUSH1 0x40 MLOAD PUSH11 0x8AF7623FB67BF1A800000 SWAP3 SWAP2 SWAP1 SWAP2 AND SWAP1 PUSH3 0x6D2 SWAP1 PUSH3 0x96E JUMP JUMPDEST SWAP2 DUP3 MSTORE PUSH1 0x1 PUSH1 0x1 PUSH1 0xA0 SHL SUB AND PUSH1 0x20 DUP3 ADD MSTORE PUSH1 0x40 ADD PUSH1 0x40 MLOAD DUP1 SWAP2 SUB SWAP1 PUSH1 0x0 CREATE DUP1 ISZERO DUP1 ISZERO PUSH3 0x703 JUMPI RETURNDATASIZE PUSH1 0x0 DUP1 RETURNDATACOPY RETURNDATASIZE PUSH1 0x0 REVERT JUMPDEST POP PUSH1 0x21 DUP1 SLOAD PUSH1 0x1 PUSH1 0x1 PUSH1 0xA0 SHL SUB NOT AND PUSH1 0x1 PUSH1 0x1 PUSH1 0xA0 SHL SUB SWAP3 DUP4 AND OR SWAP1 SSTORE PUSH1 0x18 SLOAD PUSH1 0x40 MLOAD PUSH11 0x8AF7623FB67BF1A800000 SWAP3 SWAP2 SWAP1 SWAP2 AND SWAP1 PUSH3 0x743 SWAP1 PUSH3 0x96E JUMP JUMPDEST SWAP2 DUP3 MSTORE PUSH1 0x1 PUSH1 0x1 PUSH1 0xA0 SHL SUB AND PUSH1 0x20 DUP3 ADD MSTORE PUSH1 0x40 ADD PUSH1 0x40 MLOAD DUP1 SWAP2 SUB SWAP1 PUSH1 0x0 CREATE DUP1 ISZERO DUP1 ISZERO PUSH3 0x774 JUMPI RETURNDATASIZE PUSH1 0x0 DUP1 RETURNDATACOPY RETURNDATASIZE PUSH1 0x0 REVERT JUMPDEST POP PUSH1 0x22 DUP1 SLOAD PUSH1 0x1 PUSH1 0x1 PUSH1 0xA0 SHL SUB NOT AND PUSH1 0x1 PUSH1 0x1 PUSH1 0xA0 SHL SUB SWAP3 DUP4 AND OR SWAP1 SSTORE PUSH1 0x19 SLOAD PUSH1 0x40 MLOAD PUSH11 0x8AF7623FB67BF1A800000 SWAP3 SWAP2 SWAP1 SWAP2 AND SWAP1 PUSH3 0x7B4 SWAP1 PUSH3 0x96E JUMP JUMPDEST SWAP2 DUP3 MSTORE PUSH1 0x1 PUSH1 0x1 PUSH1 0xA0 SHL SUB AND PUSH1 0x20 DUP3 ADD MSTORE PUSH1 0x40 ADD PUSH1 0x40 MLOAD DUP1 SWAP2 SUB SWAP1 PUSH1 0x0 CREATE DUP1 ISZERO DUP1 ISZERO PUSH3 0x7E5 JUMPI RETURNDATASIZE PUSH1 0x0 DUP1 RETURNDATACOPY RETURNDATASIZE PUSH1 0x0 REVERT JUMPDEST POP PUSH1 0x23 PUSH1 0x0 PUSH2 0x100 EXP DUP2 SLOAD DUP2 PUSH1 0x1 PUSH1 0x1 PUSH1 0xA0 SHL SUB MUL NOT AND SWAP1 DUP4 PUSH1 0x1 PUSH1 0x1 PUSH1 0xA0 SHL SUB AND MUL OR SWAP1 SSTORE POP PUSH3 0x84E PUSH11 0x457BB11FDB3DF8D4000000 PUSH1 0x40 MLOAD DUP1 PUSH1 0x60 ADD PUSH1 0x40 MSTORE DUP1 PUSH1 0x32 DUP2 MSTORE PUSH1 0x20 ADD PUSH3 0x57CC PUSH1 0x32 SWAP2 CODECOPY PUSH1 0x9 SLOAD PUSH3 0x8A7 PUSH1 0x20 SHL PUSH3 0x1BB0 OR SWAP1 SWAP3 SWAP2 SWAP1 PUSH1 0x20 SHR JUMP JUMPDEST PUSH1 0x9 SSTORE PUSH3 0xA28 JUMP JUMPDEST PUSH1 0x0 DUP1 SLOAD PUSH1 0x1 PUSH1 0x1 PUSH1 0xA0 SHL SUB DUP4 DUP2 AND PUSH1 0x1 PUSH1 0x1 PUSH1 0xA0 SHL SUB NOT DUP4 AND DUP2 OR DUP5 SSTORE PUSH1 0x40 MLOAD SWAP2 SWAP1 SWAP3 AND SWAP3 DUP4 SWAP2 PUSH32 0x8BE0079C531659141344CD1FD0A4F28419497F9722A3DAAFE3B4186F6B6457E0 SWAP2 SWAP1 LOG3 POP POP JUMP JUMPDEST PUSH1 0x0 DUP2 DUP5 DUP5 GT ISZERO PUSH3 0x8D7 JUMPI PUSH1 0x40 MLOAD PUSH3 0x461BCD PUSH1 0xE5 SHL DUP2 MSTORE PUSH1 0x4 ADD PUSH3 0x8CE SWAP2 SWAP1 PUSH3 0x993 JUMP JUMPDEST PUSH1 0x40 MLOAD DUP1 SWAP2 SUB SWAP1 REVERT JUMPDEST POP POP POP SWAP1 SUB SWAP1 JUMP JUMPDEST DUP3 DUP1 SLOAD PUSH3 0x8ED SWAP1 PUSH3 0x9EB JUMP JUMPDEST SWAP1 PUSH1 0x0 MSTORE PUSH1 0x20 PUSH1 0x0 KECCAK256 SWAP1 PUSH1 0x1F ADD PUSH1 0x20 SWAP1 DIV DUP2 ADD SWAP3 DUP3 PUSH3 0x911 JUMPI PUSH1 0x0 DUP6 SSTORE PUSH3 0x95C JUMP JUMPDEST DUP3 PUSH1 0x1F LT PUSH3 0x92C JUMPI DUP1 MLOAD PUSH1 0xFF NOT AND DUP4 DUP1 ADD OR DUP6 SSTORE PUSH3 0x95C JUMP JUMPDEST DUP3 DUP1 ADD PUSH1 0x1 ADD DUP6 SSTORE DUP3 ISZERO PUSH3 0x95C JUMPI SWAP2 DUP3 ADD JUMPDEST DUP3 DUP2 GT ISZERO PUSH3 0x95C JUMPI DUP3 MLOAD DUP3 SSTORE SWAP2 PUSH1 0x20 ADD SWAP2 SWAP1 PUSH1 0x1 ADD SWAP1 PUSH3 0x93F JUMP JUMPDEST POP PUSH3 0x96A SWAP3 SWAP2 POP PUSH3 0x97C JUMP JUMPDEST POP SWAP1 JUMP JUMPDEST PUSH2 0x599 DUP1 PUSH3 0x5233 DUP4 CODECOPY ADD SWAP1 JUMP JUMPDEST JUMPDEST DUP1 DUP3 GT ISZERO PUSH3 0x96A JUMPI PUSH1 0x0 DUP2 SSTORE PUSH1 0x1 ADD PUSH3 0x97D JUMP JUMPDEST PUSH1 0x0 PUSH1 0x20 DUP1 DUP4 MSTORE DUP4 MLOAD DUP1 DUP3 DUP6 ADD MSTORE PUSH1 0x0 JUMPDEST DUP2 DUP2 LT ISZERO PUSH3 0x9C2 JUMPI DUP6 DUP2 ADD DUP4 ADD MLOAD DUP6 DUP3 ADD PUSH1 0x40 ADD MSTORE DUP3 ADD PUSH3 0x9A4 JUMP JUMPDEST DUP2 DUP2 GT ISZERO PUSH3 0x9D5 JUMPI PUSH1 0x0 PUSH1 0x40 DUP4 DUP8 ADD ADD MSTORE JUMPDEST POP PUSH1 0x1F ADD PUSH1 0x1F NOT AND SWAP3 SWAP1 SWAP3 ADD PUSH1 0x40 ADD SWAP4 SWAP3 POP POP POP JUMP JUMPDEST PUSH1 0x1 DUP2 DUP2 SHR SWAP1 DUP3 AND DUP1 PUSH3 0xA00 JUMPI PUSH1 0x7F DUP3 AND SWAP2 POP JUMPDEST PUSH1 0x20 DUP3 LT DUP2 EQ ISZERO PUSH3 0xA22 JUMPI PUSH4 0x4E487B71 PUSH1 0xE0 SHL PUSH1 0x0 MSTORE PUSH1 0x22 PUSH1 0x4 MSTORE PUSH1 0x24 PUSH1 0x0 REVERT JUMPDEST POP SWAP2 SWAP1 POP JUMP JUMPDEST PUSH2 0x47FB DUP1 PUSH3 0xA38 PUSH1 0x0 CODECOPY PUSH1 0x0 RETURN INVALID PUSH1 0x80 PUSH1 0x40 MSTORE PUSH1 0x4 CALLDATASIZE LT PUSH2 0x23F JUMPI PUSH1 0x0 CALLDATALOAD PUSH1 0xE0 SHR DUP1 PUSH4 0x8C63F97F GT PUSH2 0x12E JUMPI DUP1 PUSH4 0xBEA8E46B GT PUSH2 0xAB JUMPI DUP1 PUSH4 0xE73E14BF GT PUSH2 0x6F JUMPI DUP1 PUSH4 0xE73E14BF EQ PUSH2 0x6C0 JUMPI DUP1 PUSH4 0xEB9F4AC7 EQ PUSH2 0x6E0 JUMPI DUP1 PUSH4 0xF1FDF469 EQ PUSH2 0x6F5 JUMPI DUP1 PUSH4 0xF2FDE38B EQ PUSH2 0x715 JUMPI DUP1 PUSH4 0xF729B00F EQ PUSH2 0x735 JUMPI PUSH2 0x24F JUMP JUMPDEST DUP1 PUSH4 0xBEA8E46B EQ PUSH2 0x605 JUMPI DUP1 PUSH4 0xD4DCA69B EQ PUSH2 0x61A JUMPI DUP1 PUSH4 0xD94D4AD6 EQ PUSH2 0x62D JUMPI DUP1 PUSH4 0xDD62ED3E EQ PUSH2 0x64D JUMPI DUP1 PUSH4 0xDDA4ADD5 EQ PUSH2 0x693 JUMPI PUSH2 0x24F JUMP JUMPDEST DUP1 PUSH4 0xA169C515 GT PUSH2 0xF2 JUMPI DUP1 PUSH4 0xA169C515 EQ PUSH2 0x563 JUMPI DUP1 PUSH4 0xA457C2D7 EQ PUSH2 0x583 JUMPI DUP1 PUSH4 0xA9059CBB EQ PUSH2 0x5A3 JUMPI DUP1 PUSH4 0xB09D4B4E EQ PUSH2 0x5C3 JUMPI DUP1 PUSH4 0xB8B18E89 EQ PUSH2 0x5F0 JUMPI PUSH2 0x24F JUMP JUMPDEST DUP1 PUSH4 0x8C63F97F EQ PUSH2 0x4E6 JUMPI DUP1 PUSH4 0x8DA5CB5B EQ PUSH2 0x506 JUMPI DUP1 PUSH4 0x90A4C709 EQ PUSH2 0x524 JUMPI DUP1 PUSH4 0x934851EC EQ PUSH2 0x539 JUMPI DUP1 PUSH4 0x95D89B41 EQ PUSH2 0x54E JUMPI PUSH2 0x24F JUMP JUMPDEST DUP1 PUSH4 0x3F3EF2DC GT PUSH2 0x1BC JUMPI DUP1 PUSH4 0x8378A875 GT PUSH2 0x180 JUMPI DUP1 PUSH4 0x8378A875 EQ PUSH2 0x455 JUMPI DUP1 PUSH4 0x84F3996D EQ PUSH2 0x46A JUMPI DUP1 PUSH4 0x883D9984 EQ PUSH2 0x47F JUMPI DUP1 PUSH4 0x8902CD70 EQ PUSH2 0x494 JUMPI DUP1 PUSH4 0x893D20E8 EQ PUSH2 0x4B4 JUMPI PUSH2 0x24F JUMP JUMPDEST DUP1 PUSH4 0x3F3EF2DC EQ PUSH2 0x3C0 JUMPI DUP1 PUSH4 0x56029137 EQ PUSH2 0x3D5 JUMPI DUP1 PUSH4 0x70A08231 EQ PUSH2 0x3EA JUMPI DUP1 PUSH4 0x715018A6 EQ PUSH2 0x420 JUMPI DUP1 PUSH4 0x7B0472F0 EQ PUSH2 0x435 JUMPI PUSH2 0x24F JUMP JUMPDEST DUP1 PUSH4 0x23B872DD GT PUSH2 0x203 JUMPI DUP1 PUSH4 0x23B872DD EQ PUSH2 0x307 JUMPI DUP1 PUSH4 0x313CE567 EQ PUSH2 0x327 JUMPI DUP1 PUSH4 0x38920102 EQ PUSH2 0x352 JUMPI DUP1 PUSH4 0x39509351 EQ PUSH2 0x372 JUMPI DUP1 PUSH4 0x3B124FE7 EQ PUSH2 0x392 JUMPI PUSH2 0x24F JUMP JUMPDEST DUP1 PUSH4 0x6FDDE03 EQ PUSH2 0x258 JUMPI DUP1 PUSH4 0x95EA7B3 EQ PUSH2 0x283 JUMPI DUP1 PUSH4 0xE1B09ED EQ PUSH2 0x2B3 JUMPI DUP1 PUSH4 0x15441BB9 EQ PUSH2 0x2D3 JUMPI DUP1 PUSH4 0x18160DDD EQ PUSH2 0x2E8 JUMPI PUSH2 0x24F JUMP JUMPDEST CALLDATASIZE PUSH2 0x24F JUMPI PUSH2 0x24D CALLVALUE PUSH2 0x755 JUMP JUMPDEST STOP JUMPDEST PUSH2 0x24D CALLVALUE PUSH2 0x755 JUMP JUMPDEST CALLVALUE DUP1 ISZERO PUSH2 0x264 JUMPI PUSH1 0x0 DUP1 REVERT JUMPDEST POP PUSH2 0x26D PUSH2 0x813 JUMP JUMPDEST PUSH1 0x40 MLOAD PUSH2 0x27A SWAP2 SWAP1 PUSH2 0x4291 JUMP JUMPDEST PUSH1 0x40 MLOAD DUP1 SWAP2 SUB SWAP1 RETURN JUMPDEST CALLVALUE DUP1 ISZERO PUSH2 0x28F JUMPI PUSH1 0x0 DUP1 REVERT JUMPDEST POP PUSH2 0x2A3 PUSH2 0x29E CALLDATASIZE PUSH1 0x4 PUSH2 0x42FB JUMP JUMPDEST PUSH2 0x8A5 JUMP JUMPDEST PUSH1 0x40 MLOAD SWAP1 ISZERO ISZERO DUP2 MSTORE PUSH1 0x20 ADD PUSH2 0x27A JUMP JUMPDEST CALLVALUE DUP1 ISZERO PUSH2 0x2BF JUMPI PUSH1 0x0 DUP1 REVERT JUMPDEST POP PUSH2 0x24D PUSH2 0x2CE CALLDATASIZE PUSH1 0x4 PUSH2 0x4327 JUMP JUMPDEST PUSH2 0x8BC JUMP JUMPDEST CALLVALUE DUP1 ISZERO PUSH2 0x2DF JUMPI PUSH1 0x0 DUP1 REVERT JUMPDEST POP PUSH2 0x24D PUSH2 0x9B1 JUMP JUMPDEST CALLVALUE DUP1 ISZERO PUSH2 0x2F4 JUMPI PUSH1 0x0 DUP1 REVERT JUMPDEST POP PUSH1 0x9 SLOAD JUMPDEST PUSH1 0x40 MLOAD SWAP1 DUP2 MSTORE PUSH1 0x20 ADD PUSH2 0x27A JUMP JUMPDEST CALLVALUE DUP1 ISZERO PUSH2 0x313 JUMPI PUSH1 0x0 DUP1 REVERT JUMPDEST POP PUSH2 0x2A3 PUSH2 0x322 CALLDATASIZE PUSH1 0x4 PUSH2 0x4340 JUMP JUMPDEST PUSH2 0xB03 JUMP JUMPDEST CALLVALUE DUP1 ISZERO PUSH2 0x333 JUMPI PUSH1 0x0 DUP1 REVERT JUMPDEST POP PUSH1 0x8 SLOAD PUSH3 0x10000 SWAP1 DIV PUSH1 0xFF AND PUSH1 0x40 MLOAD PUSH1 0xFF SWAP1 SWAP2 AND DUP2 MSTORE PUSH1 0x20 ADD PUSH2 0x27A JUMP JUMPDEST CALLVALUE DUP1 ISZERO PUSH2 0x35E JUMPI PUSH1 0x0 DUP1 REVERT JUMPDEST POP PUSH2 0x2F9 PUSH2 0x36D CALLDATASIZE PUSH1 0x4 PUSH2 0x4381 JUMP JUMPDEST PUSH2 0xB6C JUMP JUMPDEST CALLVALUE DUP1 ISZERO PUSH2 0x37E JUMPI PUSH1 0x0 DUP1 REVERT JUMPDEST POP PUSH2 0x2A3 PUSH2 0x38D CALLDATASIZE PUSH1 0x4 PUSH2 0x42FB JUMP JUMPDEST PUSH2 0xBAF JUMP JUMPDEST CALLVALUE DUP1 ISZERO PUSH2 0x39E JUMPI PUSH1 0x0 DUP1 REVERT JUMPDEST POP PUSH1 0x8 SLOAD PUSH2 0x3AD SWAP1 PUSH2 0xFFFF AND DUP2 JUMP JUMPDEST PUSH1 0x40 MLOAD PUSH2 0xFFFF SWAP1 SWAP2 AND DUP2 MSTORE PUSH1 0x20 ADD PUSH2 0x27A JUMP JUMPDEST CALLVALUE DUP1 ISZERO PUSH2 0x3CC JUMPI PUSH1 0x0 DUP1 REVERT JUMPDEST POP PUSH2 0x24D PUSH2 0xBE5 JUMP JUMPDEST CALLVALUE DUP1 ISZERO PUSH2 0x3E1 JUMPI PUSH1 0x0 DUP1 REVERT JUMPDEST POP PUSH2 0x24D PUSH2 0xCA8 JUMP JUMPDEST CALLVALUE DUP1 ISZERO PUSH2 0x3F6 JUMPI PUSH1 0x0 DUP1 REVERT JUMPDEST POP PUSH2 0x2F9 PUSH2 0x405 CALLDATASIZE PUSH1 0x4 PUSH2 0x43B1 JUMP JUMPDEST PUSH1 0x1 PUSH1 0x1 PUSH1 0xA0 SHL SUB AND PUSH1 0x0 SWAP1 DUP2 MSTORE PUSH1 0x5 PUSH1 0x20 MSTORE PUSH1 0x40 SWAP1 KECCAK256 SLOAD SWAP1 JUMP JUMPDEST CALLVALUE DUP1 ISZERO PUSH2 0x42C JUMPI PUSH1 0x0 DUP1 REVERT JUMPDEST POP PUSH2 0x24D PUSH2 0xD6B JUMP JUMPDEST CALLVALUE DUP1 ISZERO PUSH2 0x441 JUMPI PUSH1 0x0 DUP1 REVERT JUMPDEST POP PUSH2 0x24D PUSH2 0x450 CALLDATASIZE PUSH1 0x4 PUSH2 0x43CE JUMP JUMPDEST PUSH2 0xDA1 JUMP JUMPDEST CALLVALUE DUP1 ISZERO PUSH2 0x461 JUMPI PUSH1 0x0 DUP1 REVERT JUMPDEST POP PUSH2 0x24D PUSH2 0xEDD JUMP JUMPDEST CALLVALUE DUP1 ISZERO PUSH2 0x476 JUMPI PUSH1 0x0 DUP1 REVERT JUMPDEST POP PUSH2 0x24D PUSH2 0xFA0 JUMP JUMPDEST CALLVALUE DUP1 ISZERO PUSH2 0x48B JUMPI PUSH1 0x0 DUP1 REVERT JUMPDEST POP PUSH2 0x24D PUSH2 0x1063 JUMP JUMPDEST CALLVALUE DUP1 ISZERO PUSH2 0x4A0 JUMPI PUSH1 0x0 DUP1 REVERT JUMPDEST POP PUSH2 0x24D PUSH2 0x4AF CALLDATASIZE PUSH1 0x4 PUSH2 0x43F0 JUMP JUMPDEST PUSH2 0x1118 JUMP JUMPDEST CALLVALUE DUP1 ISZERO PUSH2 0x4C0 JUMPI PUSH1 0x0 DUP1 REVERT JUMPDEST POP PUSH1 0x0 SLOAD PUSH1 0x1 PUSH1 0x1 PUSH1 0xA0 SHL SUB AND JUMPDEST PUSH1 0x40 MLOAD PUSH1 0x1 PUSH1 0x1 PUSH1 0xA0 SHL SUB SWAP1 SWAP2 AND DUP2 MSTORE PUSH1 0x20 ADD PUSH2 0x27A JUMP JUMPDEST CALLVALUE DUP1 ISZERO PUSH2 0x4F2 JUMPI PUSH1 0x0 DUP1 REVERT JUMPDEST POP PUSH2 0x24D PUSH2 0x501 CALLDATASIZE PUSH1 0x4 PUSH2 0x4327 JUMP JUMPDEST PUSH2 0x11BF JUMP JUMPDEST CALLVALUE DUP1 ISZERO PUSH2 0x512 JUMPI PUSH1 0x0 DUP1 REVERT JUMPDEST POP PUSH1 0x0 SLOAD PUSH1 0x1 PUSH1 0x1 PUSH1 0xA0 SHL SUB AND PUSH2 0x4CE JUMP JUMPDEST CALLVALUE DUP1 ISZERO PUSH2 0x530 JUMPI PUSH1 0x0 DUP1 REVERT JUMPDEST POP PUSH2 0x24D PUSH2 0x1221 JUMP JUMPDEST CALLVALUE DUP1 ISZERO PUSH2 0x545 JUMPI PUSH1 0x0 DUP1 REVERT JUMPDEST POP PUSH2 0x24D PUSH2 0x12E4 JUMP JUMPDEST CALLVALUE DUP1 ISZERO PUSH2 0x55A JUMPI PUSH1 0x0 DUP1 REVERT JUMPDEST POP PUSH2 0x26D PUSH2 0x13A4 JUMP JUMPDEST CALLVALUE DUP1 ISZERO PUSH2 0x56F JUMPI PUSH1 0x0 DUP1 REVERT JUMPDEST POP PUSH2 0x24D PUSH2 0x57E CALLDATASIZE PUSH1 0x4 PUSH2 0x4327 JUMP JUMPDEST PUSH2 0x13B3 JUMP JUMPDEST CALLVALUE DUP1 ISZERO PUSH2 0x58F JUMPI PUSH1 0x0 DUP1 REVERT JUMPDEST POP PUSH2 0x2A3 PUSH2 0x59E CALLDATASIZE PUSH1 0x4 PUSH2 0x42FB JUMP JUMPDEST PUSH2 0x1463 JUMP JUMPDEST CALLVALUE DUP1 ISZERO PUSH2 0x5AF JUMPI PUSH1 0x0 DUP1 REVERT JUMPDEST POP PUSH2 0x2A3 PUSH2 0x5BE CALLDATASIZE PUSH1 0x4 PUSH2 0x42FB JUMP JUMPDEST PUSH2 0x14B2 JUMP JUMPDEST CALLVALUE DUP1 ISZERO PUSH2 0x5CF JUMPI PUSH1 0x0 DUP1 REVERT JUMPDEST POP PUSH2 0x5E3 PUSH2 0x5DE CALLDATASIZE PUSH1 0x4 PUSH2 0x43B1 JUMP JUMPDEST PUSH2 0x14BF JUMP JUMPDEST PUSH1 0x40 MLOAD PUSH2 0x27A SWAP2 SWAP1 PUSH2 0x4414 JUMP JUMPDEST CALLVALUE DUP1 ISZERO PUSH2 0x5FC JUMPI PUSH1 0x0 DUP1 REVERT JUMPDEST POP PUSH2 0x24D PUSH2 0x15CF JUMP JUMPDEST CALLVALUE DUP1 ISZERO PUSH2 0x611 JUMPI PUSH1 0x0 DUP1 REVERT JUMPDEST POP PUSH2 0x2F9 PUSH2 0x1692 JUMP JUMPDEST CALLVALUE DUP1 ISZERO PUSH2 0x626 JUMPI PUSH1 0x0 DUP1 REVERT JUMPDEST POP ADDRESS PUSH2 0x4CE JUMP JUMPDEST CALLVALUE DUP1 ISZERO PUSH2 0x639 JUMPI PUSH1 0x0 DUP1 REVERT JUMPDEST POP PUSH2 0x24D PUSH2 0x648 CALLDATASIZE PUSH1 0x4 PUSH2 0x4327 JUMP JUMPDEST PUSH2 0x16F4 JUMP JUMPDEST CALLVALUE DUP1 ISZERO PUSH2 0x659 JUMPI PUSH1 0x0 DUP1 REVERT JUMPDEST POP PUSH2 0x2F9 PUSH2 0x668 CALLDATASIZE PUSH1 0x4 PUSH2 0x44AA JUMP JUMPDEST PUSH1 0x1 PUSH1 0x1 PUSH1 0xA0 SHL SUB SWAP2 DUP3 AND PUSH1 0x0 SWAP1 DUP2 MSTORE PUSH1 0x6 PUSH1 0x20 SWAP1 DUP2 MSTORE PUSH1 0x40 DUP1 DUP4 KECCAK256 SWAP4 SWAP1 SWAP5 AND DUP3 MSTORE SWAP2 SWAP1 SWAP2 MSTORE KECCAK256 SLOAD SWAP1 JUMP JUMPDEST CALLVALUE DUP1 ISZERO PUSH2 0x69F JUMPI PUSH1 0x0 DUP1 REVERT JUMPDEST POP PUSH2 0x2F9 PUSH2 0x6AE CALLDATASIZE PUSH1 0x4 PUSH2 0x4327 JUMP JUMPDEST PUSH1 0x7 PUSH1 0x20 MSTORE PUSH1 0x0 SWAP1 DUP2 MSTORE PUSH1 0x40 SWAP1 KECCAK256 SLOAD DUP2 JUMP JUMPDEST CALLVALUE DUP1 ISZERO PUSH2 0x6CC JUMPI PUSH1 0x0 DUP1 REVERT JUMPDEST POP PUSH2 0x5E3 PUSH2 0x6DB CALLDATASIZE PUSH1 0x4 PUSH2 0x43B1 JUMP JUMPDEST PUSH2 0x1749 JUMP JUMPDEST CALLVALUE DUP1 ISZERO PUSH2 0x6EC JUMPI PUSH1 0x0 DUP1 REVERT JUMPDEST POP PUSH2 0x24D PUSH2 0x1990 JUMP JUMPDEST CALLVALUE DUP1 ISZERO PUSH2 0x701 JUMPI PUSH1 0x0 DUP1 REVERT JUMPDEST POP PUSH2 0x24D PUSH2 0x710 CALLDATASIZE PUSH1 0x4 PUSH2 0x43CE JUMP JUMPDEST PUSH2 0x1A53 JUMP JUMPDEST CALLVALUE DUP1 ISZERO PUSH2 0x721 JUMPI PUSH1 0x0 DUP1 REVERT JUMPDEST POP PUSH2 0x24D PUSH2 0x730 CALLDATASIZE PUSH1 0x4 PUSH2 0x43B1 JUMP JUMPDEST PUSH2 0x1ABD JUMP JUMPDEST CALLVALUE DUP1 ISZERO PUSH2 0x741 JUMPI PUSH1 0x0 DUP1 REVERT JUMPDEST POP PUSH2 0x24D PUSH2 0x750 CALLDATASIZE PUSH1 0x4 PUSH2 0x4327 JUMP JUMPDEST PUSH2 0x1B58 JUMP JUMPDEST PUSH1 0x0 PUSH2 0x762 DUP3 PUSH1 0x3 PUSH2 0x1BDC JUMP JUMPDEST PUSH1 0x17 SLOAD PUSH1 0x1 PUSH1 0x1 PUSH1 0xA0 SHL SUB AND PUSH1 0x0 SWAP1 DUP2 MSTORE PUSH1 0x5 PUSH1 0x20 MSTORE PUSH1 0x40 SWAP1 KECCAK256 SLOAD SWAP1 SWAP2 POP PUSH2 0x78A SWAP1 DUP3 PUSH2 0x1BEF JUMP JUMPDEST PUSH1 0x17 SLOAD PUSH1 0x1 PUSH1 0x1 PUSH1 0xA0 SHL SUB SWAP1 DUP2 AND PUSH1 0x0 SWAP1 DUP2 MSTORE PUSH1 0x5 PUSH1 0x20 MSTORE PUSH1 0x40 DUP1 DUP3 KECCAK256 SWAP4 SWAP1 SWAP4 SSTORE PUSH1 0x18 SLOAD SWAP1 SWAP2 AND DUP2 MSTORE KECCAK256 SLOAD PUSH2 0x7BF SWAP1 DUP3 PUSH2 0x1BEF JUMP JUMPDEST PUSH1 0x18 SLOAD PUSH1 0x1 PUSH1 0x1 PUSH1 0xA0 SHL SUB SWAP1 DUP2 AND PUSH1 0x0 SWAP1 DUP2 MSTORE PUSH1 0x5 PUSH1 0x20 MSTORE PUSH1 0x40 DUP1 DUP3 KECCAK256 SWAP4 SWAP1 SWAP4 SSTORE PUSH1 0x19 SLOAD SWAP1 SWAP2 AND DUP2 MSTORE KECCAK256 SLOAD PUSH2 0x7F4 SWAP1 DUP3 PUSH2 0x1BEF JUMP JUMPDEST PUSH1 0x19 SLOAD PUSH1 0x1 PUSH1 0x1 PUSH1 0xA0 SHL SUB AND PUSH1 0x0 SWAP1 DUP2 MSTORE PUSH1 0x5 PUSH1 0x20 MSTORE PUSH1 0x40 SWAP1 KECCAK256 SSTORE POP POP JUMP JUMPDEST PUSH1 0x60 PUSH1 0xB DUP1 SLOAD PUSH2 0x822 SWAP1 PUSH2 0x44D8 JUMP JUMPDEST DUP1 PUSH1 0x1F ADD PUSH1 0x20 DUP1 SWAP2 DIV MUL PUSH1 0x20 ADD PUSH1 0x40 MLOAD SWAP1 DUP2 ADD PUSH1 0x40 MSTORE DUP1 SWAP3 SWAP2 SWAP1 DUP2 DUP2 MSTORE PUSH1 0x20 ADD DUP3 DUP1 SLOAD PUSH2 0x84E SWAP1 PUSH2 0x44D8 JUMP JUMPDEST DUP1 ISZERO PUSH2 0x89B JUMPI DUP1 PUSH1 0x1F LT PUSH2 0x870 JUMPI PUSH2 0x100 DUP1 DUP4 SLOAD DIV MUL DUP4 MSTORE SWAP2 PUSH1 0x20 ADD SWAP2 PUSH2 0x89B JUMP JUMPDEST DUP3 ADD SWAP2 SWAP1 PUSH1 0x0 MSTORE PUSH1 0x20 PUSH1 0x0 KECCAK256 SWAP1 JUMPDEST DUP2 SLOAD DUP2 MSTORE SWAP1 PUSH1 0x1 ADD SWAP1 PUSH1 0x20 ADD DUP1 DUP4 GT PUSH2 0x87E JUMPI DUP3 SWAP1 SUB PUSH1 0x1F AND DUP3 ADD SWAP2 JUMPDEST POP POP POP POP POP SWAP1 POP SWAP1 JUMP JUMPDEST PUSH1 0x0 PUSH2 0x8B2 CALLER DUP5 DUP5 PUSH2 0x1BFB JUMP JUMPDEST POP PUSH1 0x1 JUMPDEST SWAP3 SWAP2 POP POP JUMP JUMPDEST PUSH1 0x0 SLOAD PUSH1 0x1 PUSH1 0x1 PUSH1 0xA0 SHL SUB AND CALLER EQ PUSH2 0x8EF JUMPI PUSH1 0x40 MLOAD PUSH3 0x461BCD PUSH1 0xE5 SHL DUP2 MSTORE PUSH1 0x4 ADD PUSH2 0x8E6 SWAP1 PUSH2 0x4513 JUMP JUMPDEST PUSH1 0x40 MLOAD DUP1 SWAP2 SUB SWAP1 REVERT JUMPDEST PUSH1 0x4 SLOAD TIMESTAMP LT ISZERO PUSH2 0x911 JUMPI PUSH1 0x40 MLOAD PUSH3 0x461BCD PUSH1 0xE5 SHL DUP2 MSTORE PUSH1 0x4 ADD PUSH2 0x8E6 SWAP1 PUSH2 0x4548 JUMP JUMPDEST PUSH1 0xC SLOAD DUP2 LT PUSH2 0x97E JUMPI PUSH1 0x40 MLOAD PUSH3 0x461BCD PUSH1 0xE5 SHL DUP2 MSTORE PUSH1 0x20 PUSH1 0x4 DUP3 ADD MSTORE PUSH1 0x33 PUSH1 0x24 DUP3 ADD MSTORE PUSH32 0x54616C6178546F6B656E3A20416D6F756E74206275726E74206C617267657220 PUSH1 0x44 DUP3 ADD MSTORE PUSH19 0x1D1A185B8814DD185ADA5B99C814995DD85C99 PUSH1 0x6A SHL PUSH1 0x64 DUP3 ADD MSTORE PUSH1 0x84 ADD PUSH2 0x8E6 JUMP JUMPDEST PUSH1 0xC SLOAD PUSH2 0x98B SWAP1 DUP3 PUSH2 0x1D22 JUMP JUMPDEST PUSH1 0xC SSTORE PUSH1 0x9 SLOAD PUSH2 0x99B SWAP1 DUP3 PUSH2 0x1D22 JUMP JUMPDEST PUSH1 0x9 SSTORE PUSH2 0x9AB TIMESTAMP PUSH3 0x2A300 PUSH2 0x45EF JUMP JUMPDEST PUSH1 0x4 SSTORE POP JUMP JUMPDEST PUSH1 0x1F PUSH1 0x0 SWAP1 SLOAD SWAP1 PUSH2 0x100 EXP SWAP1 DIV PUSH1 0x1 PUSH1 0x1 PUSH1 0xA0 SHL SUB AND PUSH1 0x1 PUSH1 0x1 PUSH1 0xA0 SHL SUB AND PUSH4 0x38AF3EED PUSH1 0x40 MLOAD DUP2 PUSH4 0xFFFFFFFF AND PUSH1 0xE0 SHL DUP2 MSTORE PUSH1 0x4 ADD PUSH1 0x20 PUSH1 0x40 MLOAD DUP1 DUP4 SUB DUP2 DUP7 GAS STATICCALL ISZERO DUP1 ISZERO PUSH2 0xA04 JUMPI RETURNDATASIZE PUSH1 0x0 DUP1 RETURNDATACOPY RETURNDATASIZE PUSH1 0x0 REVERT JUMPDEST POP POP POP POP PUSH1 0x40 MLOAD RETURNDATASIZE PUSH1 0x1F NOT PUSH1 0x1F DUP3 ADD AND DUP3 ADD DUP1 PUSH1 0x40 MSTORE POP DUP2 ADD SWAP1 PUSH2 0xA28 SWAP2 SWAP1 PUSH2 0x4607 JUMP JUMPDEST PUSH1 0x1 PUSH1 0x1 PUSH1 0xA0 SHL SUB AND CALLER PUSH1 0x1 PUSH1 0x1 PUSH1 0xA0 SHL SUB AND EQ PUSH2 0xA58 JUMPI PUSH1 0x40 MLOAD PUSH3 0x461BCD PUSH1 0xE5 SHL DUP2 MSTORE PUSH1 0x4 ADD PUSH2 0x8E6 SWAP1 PUSH2 0x4624 JUMP JUMPDEST PUSH1 0x1F SLOAD PUSH1 0x0 SWAP1 PUSH1 0x1 PUSH1 0x1 PUSH1 0xA0 SHL SUB AND PUSH4 0xC8100DCC PUSH2 0xA74 PUSH2 0x1D2E JUMP JUMPDEST PUSH1 0x40 MLOAD DUP3 PUSH4 0xFFFFFFFF AND PUSH1 0xE0 SHL DUP2 MSTORE PUSH1 0x4 ADD PUSH2 0xA90 SWAP2 SWAP1 PUSH2 0x465B JUMP JUMPDEST PUSH1 0x20 PUSH1 0x40 MLOAD DUP1 DUP4 SUB DUP2 PUSH1 0x0 DUP8 GAS CALL ISZERO DUP1 ISZERO PUSH2 0xAAF JUMPI RETURNDATASIZE PUSH1 0x0 DUP1 RETURNDATACOPY RETURNDATASIZE PUSH1 0x0 REVERT JUMPDEST POP POP POP POP PUSH1 0x40 MLOAD RETURNDATASIZE PUSH1 0x1F NOT PUSH1 0x1F DUP3 ADD AND DUP3 ADD DUP1 PUSH1 0x40 MSTORE POP DUP2 ADD SWAP1 PUSH2 0xAD3 SWAP2 SWAP1 PUSH2 0x468D JUMP JUMPDEST CALLER PUSH1 0x0 SWAP1 DUP2 MSTORE PUSH1 0x5 PUSH1 0x20 MSTORE PUSH1 0x40 SWAP1 KECCAK256 SLOAD SWAP1 SWAP2 POP PUSH2 0xAF0 SWAP1 DUP3 PUSH2 0x1BEF JUMP JUMPDEST CALLER PUSH1 0x0 SWAP1 DUP2 MSTORE PUSH1 0x5 PUSH1 0x20 MSTORE PUSH1 0x40 SWAP1 KECCAK256 SSTORE POP JUMP JUMPDEST PUSH1 0x0 PUSH2 0xB10 DUP5 DUP5 DUP5 PUSH2 0x20F7 JUMP JUMPDEST PUSH2 0xB62 DUP5 CALLER PUSH2 0xB5D DUP6 PUSH1 0x40 MLOAD DUP1 PUSH1 0x60 ADD PUSH1 0x40 MSTORE DUP1 PUSH1 0x26 DUP2 MSTORE PUSH1 0x20 ADD PUSH2 0x47A0 PUSH1 0x26 SWAP2 CODECOPY PUSH1 0x1 PUSH1 0x1 PUSH1 0xA0 SHL SUB DUP11 AND PUSH1 0x0 SWAP1 DUP2 MSTORE PUSH1 0x6 PUSH1 0x20 SWAP1 DUP2 MSTORE PUSH1 0x40 DUP1 DUP4 KECCAK256 CALLER DUP5 MSTORE SWAP1 SWAP2 MSTORE SWAP1 KECCAK256 SLOAD SWAP2 SWAP1 PUSH2 0x1BB0 JUMP JUMPDEST PUSH2 0x1BFB JUMP JUMPDEST POP PUSH1 0x1 SWAP4 SWAP3 POP POP POP JUMP JUMPDEST PUSH1 0x0 DUP1 PUSH2 0xB78 DUP4 PUSH2 0x14BF JUMP JUMPDEST SWAP1 POP DUP1 PUSH1 0x20 ADD MLOAD DUP5 DUP2 MLOAD DUP2 LT PUSH2 0xB90 JUMPI PUSH2 0xB90 PUSH2 0x46A6 JUMP JUMPDEST PUSH1 0x20 MUL PUSH1 0x20 ADD ADD MLOAD PUSH1 0x40 ADD MLOAD TIMESTAMP PUSH2 0xBA7 SWAP2 SWAP1 PUSH2 0x46BC JUMP JUMPDEST SWAP5 SWAP4 POP POP POP POP JUMP JUMPDEST CALLER PUSH1 0x0 DUP2 DUP2 MSTORE PUSH1 0x6 PUSH1 0x20 SWAP1 DUP2 MSTORE PUSH1 0x40 DUP1 DUP4 KECCAK256 PUSH1 0x1 PUSH1 0x1 PUSH1 0xA0 SHL SUB DUP8 AND DUP5 MSTORE SWAP1 SWAP2 MSTORE DUP2 KECCAK256 SLOAD SWAP1 SWAP2 PUSH2 0x8B2 SWAP2 DUP6 SWAP1 PUSH2 0xB5D SWAP1 DUP7 PUSH2 0x1BEF JUMP JUMPDEST PUSH1 0x23 PUSH1 0x0 SWAP1 SLOAD SWAP1 PUSH2 0x100 EXP SWAP1 DIV PUSH1 0x1 PUSH1 0x1 PUSH1 0xA0 SHL SUB AND PUSH1 0x1 PUSH1 0x1 PUSH1 0xA0 SHL SUB AND PUSH4 0x38AF3EED PUSH1 0x40 MLOAD DUP2 PUSH4 0xFFFFFFFF AND PUSH1 0xE0 SHL DUP2 MSTORE PUSH1 0x4 ADD PUSH1 0x20 PUSH1 0x40 MLOAD DUP1 DUP4 SUB DUP2 DUP7 GAS STATICCALL ISZERO DUP1 ISZERO PUSH2 0xC38 JUMPI RETURNDATASIZE PUSH1 0x0 DUP1 RETURNDATACOPY RETURNDATASIZE PUSH1 0x0 REVERT JUMPDEST POP POP POP POP PUSH1 0x40 MLOAD RETURNDATASIZE PUSH1 0x1F NOT PUSH1 0x1F DUP3 ADD AND DUP3 ADD DUP1 PUSH1 0x40 MSTORE POP DUP2 ADD SWAP1 PUSH2 0xC5C SWAP2 SWAP1 PUSH2 0x4607 JUMP JUMPDEST PUSH1 0x1 PUSH1 0x1 PUSH1 0xA0 SHL SUB AND CALLER PUSH1 0x1 PUSH1 0x1 PUSH1 0xA0 SHL SUB AND EQ PUSH2 0xC8C JUMPI PUSH1 0x40 MLOAD PUSH3 0x461BCD PUSH1 0xE5 SHL DUP2 MSTORE PUSH1 0x4 ADD PUSH2 0x8E6 SWAP1 PUSH2 0x4624 JUMP JUMPDEST PUSH1 0x23 SLOAD PUSH1 0x0 SWAP1 PUSH1 0x1 PUSH1 0x1 PUSH1 0xA0 SHL SUB AND PUSH4 0xC8100DCC PUSH2 0xA74 PUSH2 0x23CD JUMP JUMPDEST PUSH1 0x21 PUSH1 0x0 SWAP1 SLOAD SWAP1 PUSH2 0x100 EXP SWAP1 DIV PUSH1 0x1 PUSH1 0x1 PUSH1 0xA0 SHL SUB AND PUSH1 0x1 PUSH1 0x1 PUSH1 0xA0 SHL SUB AND PUSH4 0x38AF3EED PUSH1 0x40 MLOAD DUP2 PUSH4 0xFFFFFFFF AND PUSH1 0xE0 SHL DUP2 MSTORE PUSH1 0x4 ADD PUSH1 0x20 PUSH1 0x40 MLOAD DUP1 DUP4 SUB DUP2 DUP7 GAS STATICCALL ISZERO DUP1 ISZERO PUSH2 0xCFB JUMPI RETURNDATASIZE PUSH1 0x0 DUP1 RETURNDATACOPY RETURNDATASIZE PUSH1 0x0 REVERT JUMPDEST POP POP POP POP PUSH1 0x40 MLOAD RETURNDATASIZE PUSH1 0x1F NOT PUSH1 0x1F DUP3 ADD AND DUP3 ADD DUP1 PUSH1 0x40 MSTORE POP DUP2 ADD SWAP1 PUSH2 0xD1F SWAP2 SWAP1 PUSH2 0x4607 JUMP JUMPDEST PUSH1 0x1 PUSH1 0x1 PUSH1 0xA0 SHL SUB AND CALLER PUSH1 0x1 PUSH1 0x1 PUSH1 0xA0 SHL SUB AND EQ PUSH2 0xD4F JUMPI PUSH1 0x40 MLOAD PUSH3 0x461BCD PUSH1 0xE5 SHL DUP2 MSTORE PUSH1 0x4 ADD PUSH2 0x8E6 SWAP1 PUSH2 0x4624 JUMP JUMPDEST PUSH1 0x21 SLOAD PUSH1 0x0 SWAP1 PUSH1 0x1 PUSH1 0x1 PUSH1 0xA0 SHL SUB AND PUSH4 0xC8100DCC PUSH2 0xA74 PUSH2 0x26C6 JUMP JUMPDEST PUSH1 0x0 SLOAD PUSH1 0x1 PUSH1 0x1 PUSH1 0xA0 SHL SUB AND CALLER EQ PUSH2 0xD95 JUMPI PUSH1 0x40 MLOAD PUSH3 0x461BCD PUSH1 0xE5 SHL DUP2 MSTORE PUSH1 0x4 ADD PUSH2 0x8E6 SWAP1 PUSH2 0x4513 JUMP JUMPDEST PUSH2 0xD9F PUSH1 0x0 PUSH2 0x296A JUMP JUMPDEST JUMP JUMPDEST DUP1 PUSH3 0x278D00 EQ DUP1 PUSH2 0xDB4 JUMPI POP DUP1 PUSH3 0x76A700 EQ JUMPDEST DUP1 PUSH2 0xDC1 JUMPI POP DUP1 PUSH3 0xED4E00 EQ JUMPDEST DUP1 PUSH2 0xDCF JUMPI POP DUP1 PUSH4 0x1E13380 EQ JUMPDEST PUSH2 0xE27 JUMPI PUSH1 0x40 MLOAD PUSH3 0x461BCD PUSH1 0xE5 SHL DUP2 MSTORE PUSH1 0x20 PUSH1 0x4 DUP3 ADD MSTORE PUSH1 0x24 DUP1 DUP3 ADD MSTORE PUSH32 0x54616C6178546F6B656E3A205374616B696E67206F7074696F6E206E6F742065 PUSH1 0x44 DUP3 ADD MSTORE PUSH4 0x1E1A5CDD PUSH1 0xE2 SHL PUSH1 0x64 DUP3 ADD MSTORE PUSH1 0x84 ADD PUSH2 0x8E6 JUMP JUMPDEST CALLER PUSH1 0x0 SWAP1 DUP2 MSTORE PUSH1 0x5 PUSH1 0x20 MSTORE PUSH1 0x40 SWAP1 KECCAK256 SLOAD DUP3 LT PUSH2 0xE98 JUMPI PUSH1 0x40 MLOAD PUSH3 0x461BCD PUSH1 0xE5 SHL DUP2 MSTORE PUSH1 0x20 PUSH1 0x4 DUP3 ADD MSTORE PUSH1 0x2A PUSH1 0x24 DUP3 ADD MSTORE PUSH32 0x54616C6178546F6B656E3A2043616E6E6F74207374616B65206D6F7265207468 PUSH1 0x44 DUP3 ADD MSTORE PUSH10 0x616E2062616C616E6365 PUSH1 0xB0 SHL PUSH1 0x64 DUP3 ADD MSTORE PUSH1 0x84 ADD PUSH2 0x8E6 JUMP JUMPDEST PUSH1 0x0 DUP2 DUP2 MSTORE PUSH1 0x7 PUSH1 0x20 MSTORE PUSH1 0x40 SWAP1 KECCAK256 SLOAD PUSH2 0xEB4 SWAP1 DUP4 SWAP1 DUP4 SWAP1 PUSH2 0x29BA JUMP JUMPDEST PUSH2 0xEBE CALLER DUP4 PUSH2 0x2B56 JUMP JUMPDEST ADDRESS PUSH1 0x0 SWAP1 DUP2 MSTORE PUSH1 0x5 PUSH1 0x20 MSTORE PUSH1 0x40 SWAP1 KECCAK256 SLOAD PUSH2 0xED8 SWAP1 DUP4 PUSH2 0x1BEF JUMP JUMPDEST POP POP POP JUMP JUMPDEST PUSH1 0x1E PUSH1 0x0 SWAP1 SLOAD SWAP1 PUSH2 0x100 EXP SWAP1 DIV PUSH1 0x1 PUSH1 0x1 PUSH1 0xA0 SHL SUB AND PUSH1 0x1 PUSH1 0x1 PUSH1 0xA0 SHL SUB AND PUSH4 0x38AF3EED PUSH1 0x40 MLOAD DUP2 PUSH4 0xFFFFFFFF AND PUSH1 0xE0 SHL DUP2 MSTORE PUSH1 0x4 ADD PUSH1 0x20 PUSH1 0x40 MLOAD DUP1 DUP4 SUB DUP2 DUP7 GAS STATICCALL ISZERO DUP1 ISZERO PUSH2 0xF30 JUMPI RETURNDATASIZE PUSH1 0x0 DUP1 RETURNDATACOPY RETURNDATASIZE PUSH1 0x0 REVERT JUMPDEST POP POP POP POP PUSH1 0x40 MLOAD RETURNDATASIZE PUSH1 0x1F NOT PUSH1 0x1F DUP3 ADD AND DUP3 ADD DUP1 PUSH1 0x40 MSTORE POP DUP2 ADD SWAP1 PUSH2 0xF54 SWAP2 SWAP1 PUSH2 0x4607 JUMP JUMPDEST PUSH1 0x1 PUSH1 0x1 PUSH1 0xA0 SHL SUB AND CALLER PUSH1 0x1 PUSH1 0x1 PUSH1 0xA0 SHL SUB AND EQ PUSH2 0xF84 JUMPI PUSH1 0x40 MLOAD PUSH3 0x461BCD PUSH1 0xE5 SHL DUP2 MSTORE PUSH1 0x4 ADD PUSH2 0x8E6 SWAP1 PUSH2 0x4624 JUMP JUMPDEST PUSH1 0x1E SLOAD PUSH1 0x0 SWAP1 PUSH1 0x1 PUSH1 0x1 PUSH1 0xA0 SHL SUB AND PUSH4 0xC8100DCC PUSH2 0xA74 PUSH2 0x1D2E JUMP JUMPDEST PUSH1 0x1D PUSH1 0x0 SWAP1 SLOAD SWAP1 PUSH2 0x100 EXP SWAP1 DIV PUSH1 0x1 PUSH1 0x1 PUSH1 0xA0 SHL SUB AND PUSH1 0x1 PUSH1 0x1 PUSH1 0xA0 SHL SUB AND PUSH4 0x38AF3EED PUSH1 0x40 MLOAD DUP2 PUSH4 0xFFFFFFFF AND PUSH1 0xE0 SHL DUP2 MSTORE PUSH1 0x4 ADD PUSH1 0x20 PUSH1 0x40 MLOAD DUP1 DUP4 SUB DUP2 DUP7 GAS STATICCALL ISZERO DUP1 ISZERO PUSH2 0xFF3 JUMPI RETURNDATASIZE PUSH1 0x0 DUP1 RETURNDATACOPY RETURNDATASIZE PUSH1 0x0 REVERT JUMPDEST POP POP POP POP PUSH1 0x40 MLOAD RETURNDATASIZE PUSH1 0x1F NOT PUSH1 0x1F DUP3 ADD AND DUP3 ADD DUP1 PUSH1 0x40 MSTORE POP DUP2 ADD SWAP1 PUSH2 0x1017 SWAP2 SWAP1 PUSH2 0x4607 JUMP JUMPDEST PUSH1 0x1 PUSH1 0x1 PUSH1 0xA0 SHL SUB AND CALLER PUSH1 0x1 PUSH1 0x1 PUSH1 0xA0 SHL SUB AND EQ PUSH2 0x1047 JUMPI PUSH1 0x40 MLOAD PUSH3 0x461BCD PUSH1 0xE5 SHL DUP2 MSTORE PUSH1 0x4 ADD PUSH2 0x8E6 SWAP1 PUSH2 0x4624 JUMP JUMPDEST PUSH1 0x1D SLOAD PUSH1 0x0 SWAP1 PUSH1 0x1 PUSH1 0x1 PUSH1 0xA0 SHL SUB AND PUSH4 0xC8100DCC PUSH2 0xA74 PUSH2 0x2C7D JUMP JUMPDEST PUSH1 0x20 DUP1 SLOAD PUSH1 0x40 DUP1 MLOAD PUSH4 0x38AF3EED PUSH1 0xE0 SHL DUP2 MSTORE SWAP1 MLOAD PUSH1 0x1 PUSH1 0x1 PUSH1 0xA0 SHL SUB SWAP1 SWAP3 AND SWAP3 PUSH4 0x38AF3EED SWAP3 PUSH1 0x4 DUP1 DUP5 ADD SWAP4 DUP3 SWAP1 SUB ADD DUP2 DUP7 GAS STATICCALL ISZERO DUP1 ISZERO PUSH2 0x10A8 JUMPI RETURNDATASIZE PUSH1 0x0 DUP1 RETURNDATACOPY RETURNDATASIZE PUSH1 0x0 REVERT JUMPDEST POP POP POP POP PUSH1 0x40 MLOAD RETURNDATASIZE PUSH1 0x1F NOT PUSH1 0x1F DUP3 ADD AND DUP3 ADD DUP1 PUSH1 0x40 MSTORE POP DUP2 ADD SWAP1 PUSH2 0x10CC SWAP2 SWAP1 PUSH2 0x4607 JUMP JUMPDEST PUSH1 0x1 PUSH1 0x1 PUSH1 0xA0 SHL SUB AND CALLER PUSH1 0x1 PUSH1 0x1 PUSH1 0xA0 SHL SUB AND EQ PUSH2 0x10FC JUMPI PUSH1 0x40 MLOAD PUSH3 0x461BCD PUSH1 0xE5 SHL DUP2 MSTORE PUSH1 0x4 ADD PUSH2 0x8E6 SWAP1 PUSH2 0x4624 JUMP JUMPDEST PUSH1 0x20 SLOAD PUSH1 0x0 SWAP1 PUSH1 0x1 PUSH1 0x1 PUSH1 0xA0 SHL SUB AND PUSH4 0xC8100DCC PUSH2 0xA74 PUSH2 0x303F JUMP JUMPDEST PUSH1 0x0 SLOAD PUSH1 0x1 PUSH1 0x1 PUSH1 0xA0 SHL SUB AND CALLER EQ PUSH2 0x1142 JUMPI PUSH1 0x40 MLOAD PUSH3 0x461BCD PUSH1 0xE5 SHL DUP2 MSTORE PUSH1 0x4 ADD PUSH2 0x8E6 SWAP1 PUSH2 0x4513 JUMP JUMPDEST PUSH1 0x4 SLOAD TIMESTAMP LT ISZERO PUSH2 0x1164 JUMPI PUSH1 0x40 MLOAD PUSH3 0x461BCD PUSH1 0xE5 SHL DUP2 MSTORE PUSH1 0x4 ADD PUSH2 0x8E6 SWAP1 PUSH2 0x4548 JUMP JUMPDEST PUSH1 0x8 DUP1 SLOAD PUSH2 0xFFFF NOT AND PUSH2 0xFFFF DUP4 AND SWAP1 DUP2 OR SWAP1 SWAP2 SSTORE PUSH1 0x40 MLOAD SWAP1 DUP2 MSTORE CALLER SWAP1 PUSH32 0xDF92943B31FFF67E8447FF9FA8B5E226DDCC5FB34D36CFE120C0F2B96EB8D6F7 SWAP1 PUSH1 0x20 ADD PUSH1 0x40 MLOAD DUP1 SWAP2 SUB SWAP1 LOG2 PUSH2 0x9AB TIMESTAMP PUSH3 0x2A300 PUSH2 0x45EF JUMP JUMPDEST SWAP1 POP SWAP1 JUMP JUMPDEST PUSH1 0x0 SLOAD PUSH1 0x1 PUSH1 0x1 PUSH1 0xA0 SHL SUB AND CALLER EQ PUSH2 0x11E9 JUMPI PUSH1 0x40 MLOAD PUSH3 0x461BCD PUSH1 0xE5 SHL DUP2 MSTORE PUSH1 0x4 ADD PUSH2 0x8E6 SWAP1 PUSH2 0x4513 JUMP JUMPDEST PUSH1 0x4 SLOAD TIMESTAMP LT ISZERO PUSH2 0x120B JUMPI PUSH1 0x40 MLOAD PUSH3 0x461BCD PUSH1 0xE5 SHL DUP2 MSTORE PUSH1 0x4 ADD PUSH2 0x8E6 SWAP1 PUSH2 0x4548 JUMP JUMPDEST PUSH2 0x1214 DUP2 PUSH2 0x3401 JUMP JUMPDEST PUSH2 0x9AB TIMESTAMP PUSH3 0x2A300 PUSH2 0x45EF JUMP JUMPDEST PUSH1 0x22 PUSH1 0x0 SWAP1 SLOAD SWAP1 PUSH2 0x100 EXP SWAP1 DIV PUSH1 0x1 PUSH1 0x1 PUSH1 0xA0 SHL SUB AND PUSH1 0x1 PUSH1 0x1 PUSH1 0xA0 SHL SUB AND PUSH4 0x38AF3EED PUSH1 0x40 MLOAD DUP2 PUSH4 0xFFFFFFFF AND PUSH1 0xE0 SHL DUP2 MSTORE PUSH1 0x4 ADD PUSH1 0x20 PUSH1 0x40 MLOAD DUP1 DUP4 SUB DUP2 DUP7 GAS STATICCALL ISZERO DUP1 ISZERO PUSH2 0x1274 JUMPI RETURNDATASIZE PUSH1 0x0 DUP1 RETURNDATACOPY RETURNDATASIZE PUSH1 0x0 REVERT JUMPDEST POP POP POP POP PUSH1 0x40 MLOAD RETURNDATASIZE PUSH1 0x1F NOT PUSH1 0x1F DUP3 ADD AND DUP3 ADD DUP1 PUSH1 0x40 MSTORE POP DUP2 ADD SWAP1 PUSH2 0x1298 SWAP2 SWAP1 PUSH2 0x4607 JUMP JUMPDEST PUSH1 0x1 PUSH1 0x1 PUSH1 0xA0 SHL SUB AND CALLER PUSH1 0x1 PUSH1 0x1 PUSH1 0xA0 SHL SUB AND EQ PUSH2 0x12C8 JUMPI PUSH1 0x40 MLOAD PUSH3 0x461BCD PUSH1 0xE5 SHL DUP2 MSTORE PUSH1 0x4 ADD PUSH2 0x8E6 SWAP1 PUSH2 0x4624 JUMP JUMPDEST PUSH1 0x22 SLOAD PUSH1 0x0 SWAP1 PUSH1 0x1 PUSH1 0x1 PUSH1 0xA0 SHL SUB AND PUSH4 0xC8100DCC PUSH2 0xA74 PUSH2 0x26C6 JUMP JUMPDEST PUSH1 0x1A PUSH1 0x0 SWAP1 SLOAD SWAP1 PUSH2 0x100 EXP SWAP1 DIV PUSH1 0x1 PUSH1 0x1 PUSH1 0xA0 SHL SUB AND PUSH1 0x1 PUSH1 0x1 PUSH1 0xA0 SHL SUB AND PUSH4 0x38AF3EED PUSH1 0x40 MLOAD DUP2 PUSH4 0xFFFFFFFF AND PUSH1 0xE0 SHL DUP2 MSTORE PUSH1 0x4 ADD PUSH1 0x20 PUSH1 0x40 MLOAD DUP1 DUP4 SUB DUP2 DUP7 GAS STATICCALL ISZERO DUP1 ISZERO PUSH2 0x1337 JUMPI RETURNDATASIZE PUSH1 0x0 DUP1 RETURNDATACOPY RETURNDATASIZE PUSH1 0x0 REVERT JUMPDEST POP POP POP POP PUSH1 0x40 MLOAD RETURNDATASIZE PUSH1 0x1F NOT PUSH1 0x1F DUP3 ADD AND DUP3 ADD DUP1 PUSH1 0x40 MSTORE POP DUP2 ADD SWAP1 PUSH2 0x135B SWAP2 SWAP1 PUSH2 0x4607 JUMP JUMPDEST PUSH1 0x10 SLOAD PUSH1 0x1 PUSH1 0x1 PUSH1 0xA0 SHL SUB SWAP1 DUP2 AND SWAP2 AND EQ PUSH2 0x1388 JUMPI PUSH1 0x40 MLOAD PUSH3 0x461BCD PUSH1 0xE5 SHL DUP2 MSTORE PUSH1 0x4 ADD PUSH2 0x8E6 SWAP1 PUSH2 0x4624 JUMP JUMPDEST PUSH1 0x1A SLOAD PUSH1 0x0 SWAP1 PUSH1 0x1 PUSH1 0x1 PUSH1 0xA0 SHL SUB AND PUSH4 0xC8100DCC PUSH2 0xA74 PUSH2 0x343C JUMP JUMPDEST PUSH1 0x60 PUSH1 0xA DUP1 SLOAD PUSH2 0x822 SWAP1 PUSH2 0x44D8 JUMP JUMPDEST PUSH1 0x0 SLOAD PUSH1 0x1 PUSH1 0x1 PUSH1 0xA0 SHL SUB AND CALLER EQ PUSH2 0x13DD JUMPI PUSH1 0x40 MLOAD PUSH3 0x461BCD PUSH1 0xE5 SHL DUP2 MSTORE PUSH1 0x4 ADD PUSH2 0x8E6 SWAP1 PUSH2 0x4513 JUMP JUMPDEST PUSH1 0x4 SLOAD TIMESTAMP LT ISZERO PUSH2 0x13FF JUMPI PUSH1 0x40 MLOAD PUSH3 0x461BCD PUSH1 0xE5 SHL DUP2 MSTORE PUSH1 0x4 ADD PUSH2 0x8E6 SWAP1 PUSH2 0x4548 JUMP JUMPDEST DUP1 PUSH2 0x1446 JUMPI PUSH1 0x40 MLOAD PUSH3 0x461BCD PUSH1 0xE5 SHL DUP2 MSTORE PUSH1 0x20 PUSH1 0x4 DUP3 ADD MSTORE PUSH1 0x17 PUSH1 0x24 DUP3 ADD MSTORE PUSH23 0x416D6F756E74206D696E742063616E6E6F74206265203 PUSH1 0x4C SHL PUSH1 0x44 DUP3 ADD MSTORE PUSH1 0x64 ADD PUSH2 0x8E6 JUMP JUMPDEST PUSH1 0xC SLOAD PUSH2 0x1453 SWAP1 DUP3 PUSH2 0x1BEF JUMP JUMPDEST PUSH1 0xC SSTORE PUSH1 0x9 SLOAD PUSH2 0x99B SWAP1 DUP3 PUSH2 0x1BEF JUMP JUMPDEST PUSH1 0x0 PUSH2 0x8B2 CALLER DUP5 PUSH2 0xB5D DUP6 PUSH1 0x40 MLOAD DUP1 PUSH1 0x60 ADD PUSH1 0x40 MSTORE DUP1 PUSH1 0x2A DUP2 MSTORE PUSH1 0x20 ADD PUSH2 0x4752 PUSH1 0x2A SWAP2 CODECOPY CALLER PUSH1 0x0 SWAP1 DUP2 MSTORE PUSH1 0x6 PUSH1 0x20 SWAP1 DUP2 MSTORE PUSH1 0x40 DUP1 DUP4 KECCAK256 PUSH1 0x1 PUSH1 0x1 PUSH1 0xA0 SHL SUB DUP14 AND DUP5 MSTORE SWAP1 SWAP2 MSTORE SWAP1 KECCAK256 SLOAD SWAP2 SWAP1 PUSH2 0x1BB0 JUMP JUMPDEST PUSH1 0x0 PUSH2 0x8B2 CALLER DUP5 DUP5 PUSH2 0x20F7 JUMP JUMPDEST PUSH1 0x40 DUP1 MLOAD DUP1 DUP3 ADD SWAP1 SWAP2 MSTORE PUSH1 0x0 DUP2 MSTORE PUSH1 0x60 PUSH1 0x20 DUP3 ADD MSTORE PUSH1 0x0 PUSH1 0x40 MLOAD DUP1 PUSH1 0x40 ADD PUSH1 0x40 MSTORE DUP1 PUSH1 0x0 DUP2 MSTORE PUSH1 0x20 ADD PUSH1 0x2 PUSH1 0x3 PUSH1 0x0 DUP8 PUSH1 0x1 PUSH1 0x1 PUSH1 0xA0 SHL SUB AND PUSH1 0x1 PUSH1 0x1 PUSH1 0xA0 SHL SUB AND DUP2 MSTORE PUSH1 0x20 ADD SWAP1 DUP2 MSTORE PUSH1 0x20 ADD PUSH1 0x0 KECCAK256 SLOAD DUP2 SLOAD DUP2 LT PUSH2 0x1520 JUMPI PUSH2 0x1520 PUSH2 0x46A6 JUMP JUMPDEST SWAP1 PUSH1 0x0 MSTORE PUSH1 0x20 PUSH1 0x0 KECCAK256 SWAP1 PUSH1 0x2 MUL ADD PUSH1 0x1 ADD DUP1 SLOAD DUP1 PUSH1 0x20 MUL PUSH1 0x20 ADD PUSH1 0x40 MLOAD SWAP1 DUP2 ADD PUSH1 0x40 MSTORE DUP1 SWAP3 SWAP2 SWAP1 DUP2 DUP2 MSTORE PUSH1 0x20 ADD PUSH1 0x0 SWAP1 JUMPDEST DUP3 DUP3 LT ISZERO PUSH2 0x15C2 JUMPI PUSH1 0x0 DUP5 DUP2 MSTORE PUSH1 0x20 SWAP1 DUP2 SWAP1 KECCAK256 PUSH1 0x40 DUP1 MLOAD PUSH1 0xC0 DUP2 ADD DUP3 MSTORE PUSH1 0x6 DUP7 MUL SWAP1 SWAP3 ADD DUP1 SLOAD PUSH1 0x1 PUSH1 0x1 PUSH1 0xA0 SHL SUB AND DUP4 MSTORE PUSH1 0x1 DUP1 DUP3 ADD SLOAD DUP5 DUP7 ADD MSTORE PUSH1 0x2 DUP3 ADD SLOAD SWAP3 DUP5 ADD SWAP3 SWAP1 SWAP3 MSTORE PUSH1 0x3 DUP2 ADD SLOAD PUSH1 0x60 DUP5 ADD MSTORE PUSH1 0x4 DUP2 ADD SLOAD PUSH1 0x80 DUP5 ADD MSTORE PUSH1 0x5 ADD SLOAD PUSH1 0xA0 DUP4 ADD MSTORE SWAP1 DUP4 MSTORE SWAP1 SWAP3 ADD SWAP2 ADD PUSH2 0x1551 JUMP JUMPDEST POP POP POP SWAP2 MSTORE POP SWAP4 SWAP3 POP POP POP JUMP JUMPDEST PUSH1 0x1B PUSH1 0x0 SWAP1 SLOAD SWAP1 PUSH2 0x100 EXP SWAP1 DIV PUSH1 0x1 PUSH1 0x1 PUSH1 0xA0 SHL SUB AND PUSH1 0x1 PUSH1 0x1 PUSH1 0xA0 SHL SUB AND PUSH4 0x38AF3EED PUSH1 0x40 MLOAD DUP2 PUSH4 0xFFFFFFFF AND PUSH1 0xE0 SHL DUP2 MSTORE PUSH1 0x4 ADD PUSH1 0x20 PUSH1 0x40 MLOAD DUP1 DUP4 SUB DUP2 DUP7 GAS STATICCALL ISZERO DUP1 ISZERO PUSH2 0x1622 JUMPI RETURNDATASIZE PUSH1 0x0 DUP1 RETURNDATACOPY RETURNDATASIZE PUSH1 0x0 REVERT JUMPDEST POP POP POP POP PUSH1 0x40 MLOAD RETURNDATASIZE PUSH1 0x1F NOT PUSH1 0x1F DUP3 ADD AND DUP3 ADD DUP1 PUSH1 0x40 MSTORE POP DUP2 ADD SWAP1 PUSH2 0x1646 SWAP2 SWAP1 PUSH2 0x4607 JUMP JUMPDEST PUSH1 0x1 PUSH1 0x1 PUSH1 0xA0 SHL SUB AND CALLER PUSH1 0x1 PUSH1 0x1 PUSH1 0xA0 SHL SUB AND EQ PUSH2 0x1676 JUMPI PUSH1 0x40 MLOAD PUSH3 0x461BCD PUSH1 0xE5 SHL DUP2 MSTORE PUSH1 0x4 ADD PUSH2 0x8E6 SWAP1 PUSH2 0x4624 JUMP JUMPDEST PUSH1 0x1B SLOAD PUSH1 0x0 SWAP1 PUSH1 0x1 PUSH1 0x1 PUSH1 0xA0 SHL SUB AND PUSH4 0xC8100DCC PUSH2 0xA74 PUSH2 0x367C JUMP JUMPDEST PUSH1 0x40 MLOAD PUSH4 0x70A08231 PUSH1 0xE0 SHL DUP2 MSTORE ADDRESS PUSH1 0x4 DUP3 ADD DUP2 SWAP1 MSTORE PUSH1 0x0 SWAP2 PUSH4 0x70A08231 SWAP1 PUSH1 0x24 ADD PUSH1 0x20 PUSH1 0x40 MLOAD DUP1 DUP4 SUB DUP2 DUP7 GAS STATICCALL ISZERO DUP1 ISZERO PUSH2 0x16D0 JUMPI RETURNDATASIZE PUSH1 0x0 DUP1 RETURNDATACOPY RETURNDATASIZE PUSH1 0x0 REVERT JUMPDEST POP POP POP POP PUSH1 0x40 MLOAD RETURNDATASIZE PUSH1 0x1F NOT PUSH1 0x1F DUP3 ADD AND DUP3 ADD DUP1 PUSH1 0x40 MSTORE POP DUP2 ADD SWAP1 PUSH2 0x11BA SWAP2 SWAP1 PUSH2 0x468D JUMP JUMPDEST PUSH1 0x0 SLOAD PUSH1 0x1 PUSH1 0x1 PUSH1 0xA0 SHL SUB AND CALLER EQ PUSH2 0x171E JUMPI PUSH1 0x40 MLOAD PUSH3 0x461BCD PUSH1 0xE5 SHL DUP2 MSTORE PUSH1 0x4 ADD PUSH2 0x8E6 SWAP1 PUSH2 0x4513 JUMP JUMPDEST PUSH1 0x4 SLOAD TIMESTAMP LT ISZERO PUSH2 0x1740 JUMPI PUSH1 0x40 MLOAD PUSH3 0x461BCD PUSH1 0xE5 SHL DUP2 MSTORE PUSH1 0x4 ADD PUSH2 0x8E6 SWAP1 PUSH2 0x4548 JUMP JUMPDEST PUSH2 0x1214 DUP2 PUSH2 0x3A3E JUMP JUMPDEST PUSH1 0x40 DUP1 MLOAD DUP1 DUP3 ADD SWAP1 SWAP2 MSTORE PUSH1 0x0 DUP2 MSTORE PUSH1 0x60 PUSH1 0x20 DUP3 ADD MSTORE PUSH1 0x0 DUP1 PUSH1 0x40 MLOAD DUP1 PUSH1 0x40 ADD PUSH1 0x40 MSTORE DUP1 PUSH1 0x0 DUP2 MSTORE PUSH1 0x20 ADD PUSH1 0x2 PUSH1 0x3 PUSH1 0x0 DUP9 PUSH1 0x1 PUSH1 0x1 PUSH1 0xA0 SHL SUB AND PUSH1 0x1 PUSH1 0x1 PUSH1 0xA0 SHL SUB AND DUP2 MSTORE PUSH1 0x20 ADD SWAP1 DUP2 MSTORE PUSH1 0x20 ADD PUSH1 0x0 KECCAK256 SLOAD DUP2 SLOAD DUP2 LT PUSH2 0x17AB JUMPI PUSH2 0x17AB PUSH2 0x46A6 JUMP JUMPDEST SWAP1 PUSH1 0x0 MSTORE PUSH1 0x20 PUSH1 0x0 KECCAK256 SWAP1 PUSH1 0x2 MUL ADD PUSH1 0x1 ADD DUP1 SLOAD DUP1 PUSH1 0x20 MUL PUSH1 0x20 ADD PUSH1 0x40 MLOAD SWAP1 DUP2 ADD PUSH1 0x40 MSTORE DUP1 SWAP3 SWAP2 SWAP1 DUP2 DUP2 MSTORE PUSH1 0x20 ADD PUSH1 0x0 SWAP1 JUMPDEST DUP3 DUP3 LT ISZERO PUSH2 0x184D JUMPI PUSH1 0x0 DUP5 DUP2 MSTORE PUSH1 0x20 SWAP1 DUP2 SWAP1 KECCAK256 PUSH1 0x40 DUP1 MLOAD PUSH1 0xC0 DUP2 ADD DUP3 MSTORE PUSH1 0x6 DUP7 MUL SWAP1 SWAP3 ADD DUP1 SLOAD PUSH1 0x1 PUSH1 0x1 PUSH1 0xA0 SHL SUB AND DUP4 MSTORE PUSH1 0x1 DUP1 DUP3 ADD SLOAD DUP5 DUP7 ADD MSTORE PUSH1 0x2 DUP3 ADD SLOAD SWAP3 DUP5 ADD SWAP3 SWAP1 SWAP3 MSTORE PUSH1 0x3 DUP2 ADD SLOAD PUSH1 0x60 DUP5 ADD MSTORE PUSH1 0x4 DUP2 ADD SLOAD PUSH1 0x80 DUP5 ADD MSTORE PUSH1 0x5 ADD SLOAD PUSH1 0xA0 DUP4 ADD MSTORE SWAP1 DUP4 MSTORE SWAP1 SWAP3 ADD SWAP2 ADD PUSH2 0x17DC JUMP JUMPDEST POP POP POP SWAP2 MSTORE POP PUSH1 0x20 DUP2 ADD MLOAD MLOAD SWAP1 SWAP2 POP PUSH2 0x18C0 JUMPI PUSH1 0x40 MLOAD PUSH3 0x461BCD PUSH1 0xE5 SHL DUP2 MSTORE PUSH1 0x20 PUSH1 0x4 DUP3 ADD MSTORE PUSH1 0x2F PUSH1 0x24 DUP3 ADD MSTORE PUSH32 0x5374616B61626C653A2054686973206164647265737320646F6573206E6F7420 PUSH1 0x44 DUP3 ADD MSTORE PUSH15 0x6861766520616E79207374616B6573 PUSH1 0x88 SHL PUSH1 0x64 DUP3 ADD MSTORE PUSH1 0x84 ADD PUSH2 0x8E6 JUMP JUMPDEST PUSH1 0x0 JUMPDEST DUP2 PUSH1 0x20 ADD MLOAD MLOAD DUP2 LT ISZERO PUSH2 0x1986 JUMPI PUSH1 0x0 PUSH2 0x191A DUP4 PUSH1 0x20 ADD MLOAD DUP4 DUP2 MLOAD DUP2 LT PUSH2 0x18EB JUMPI PUSH2 0x18EB PUSH2 0x46A6 JUMP JUMPDEST PUSH1 0x20 MUL PUSH1 0x20 ADD ADD MLOAD DUP5 PUSH1 0x20 ADD MLOAD DUP5 DUP2 MLOAD DUP2 LT PUSH2 0x1909 JUMPI PUSH2 0x1909 PUSH2 0x46A6 JUMP JUMPDEST PUSH1 0x20 MUL PUSH1 0x20 ADD ADD MLOAD PUSH1 0x20 ADD MLOAD PUSH2 0x3B08 JUMP JUMPDEST SWAP1 POP DUP1 DUP4 PUSH1 0x20 ADD MLOAD DUP4 DUP2 MLOAD DUP2 LT PUSH2 0x1933 JUMPI PUSH2 0x1933 PUSH2 0x46A6 JUMP JUMPDEST PUSH1 0x20 MUL PUSH1 0x20 ADD ADD MLOAD PUSH1 0x60 ADD DUP2 DUP2 MSTORE POP POP DUP3 PUSH1 0x20 ADD MLOAD DUP3 DUP2 MLOAD DUP2 LT PUSH2 0x1959 JUMPI PUSH2 0x1959 PUSH2 0x46A6 JUMP JUMPDEST PUSH1 0x20 MUL PUSH1 0x20 ADD ADD MLOAD PUSH1 0x20 ADD MLOAD DUP5 PUSH2 0x1970 SWAP2 SWAP1 PUSH2 0x45EF JUMP JUMPDEST SWAP4 POP PUSH2 0x197F SWAP1 POP PUSH1 0x1 DUP3 PUSH2 0x45EF JUMP JUMPDEST SWAP1 POP PUSH2 0x18C3 JUMP JUMPDEST POP SWAP1 DUP2 MSTORE SWAP3 SWAP2 POP POP JUMP JUMPDEST PUSH1 0x1C PUSH1 0x0 SWAP1 SLOAD SWAP1 PUSH2 0x100 EXP SWAP1 DIV PUSH1 0x1 PUSH1 0x1 PUSH1 0xA0 SHL SUB AND PUSH1 0x1 PUSH1 0x1 PUSH1 0xA0 SHL SUB AND PUSH4 0x38AF3EED PUSH1 0x40 MLOAD DUP2 PUSH4 0xFFFFFFFF AND PUSH1 0xE0 SHL DUP2 MSTORE PUSH1 0x4 ADD PUSH1 0x20 PUSH1 0x40 MLOAD DUP1 DUP4 SUB DUP2 DUP7 GAS STATICCALL ISZERO DUP1 ISZERO PUSH2 0x19E3 JUMPI RETURNDATASIZE PUSH1 0x0 DUP1 RETURNDATACOPY RETURNDATASIZE PUSH1 0x0 REVERT JUMPDEST POP POP POP POP PUSH1 0x40 MLOAD RETURNDATASIZE PUSH1 0x1F NOT PUSH1 0x1F DUP3 ADD AND DUP3 ADD DUP1 PUSH1 0x40 MSTORE POP DUP2 ADD SWAP1 PUSH2 0x1A07 SWAP2 SWAP1 PUSH2 0x4607 JUMP JUMPDEST PUSH1 0x1 PUSH1 0x1 PUSH1 0xA0 SHL SUB AND CALLER PUSH1 0x1 PUSH1 0x1 PUSH1 0xA0 SHL SUB AND EQ PUSH2 0x1A37 JUMPI PUSH1 0x40 MLOAD PUSH3 0x461BCD PUSH1 0xE5 SHL DUP2 MSTORE PUSH1 0x4 ADD PUSH2 0x8E6 SWAP1 PUSH2 0x4624 JUMP JUMPDEST PUSH1 0x1C SLOAD PUSH1 0x0 SWAP1 PUSH1 0x1 PUSH1 0x1 PUSH1 0xA0 SHL SUB AND PUSH4 0xC8100DCC PUSH2 0xA74 PUSH2 0x367C JUMP JUMPDEST PUSH1 0x0 DUP1 PUSH2 0x1A60 DUP5 DUP5 PUSH2 0x3B5B JUMP JUMPDEST SWAP2 POP SWAP2 POP PUSH2 0x1A6D DUP2 PUSH2 0x3A3E JUMP JUMPDEST ADDRESS PUSH1 0x0 SWAP1 DUP2 MSTORE PUSH1 0x5 PUSH1 0x20 MSTORE PUSH1 0x40 SWAP1 KECCAK256 SLOAD PUSH2 0x1A87 SWAP1 DUP4 PUSH2 0x1D22 JUMP JUMPDEST POP ADDRESS PUSH1 0x0 SWAP1 DUP2 MSTORE PUSH1 0x5 PUSH1 0x20 MSTORE PUSH1 0x40 SWAP1 KECCAK256 SLOAD PUSH2 0x1AA2 SWAP1 DUP3 PUSH2 0x1D22 JUMP JUMPDEST POP PUSH2 0x1AB7 CALLER JUMPDEST PUSH2 0x1AB2 DUP4 DUP6 PUSH2 0x45EF JUMP JUMPDEST PUSH2 0x3E40 JUMP JUMPDEST POP POP POP POP JUMP JUMPDEST PUSH1 0x0 SLOAD PUSH1 0x1 PUSH1 0x1 PUSH1 0xA0 SHL SUB AND CALLER EQ PUSH2 0x1AE7 JUMPI PUSH1 0x40 MLOAD PUSH3 0x461BCD PUSH1 0xE5 SHL DUP2 MSTORE PUSH1 0x4 ADD PUSH2 0x8E6 SWAP1 PUSH2 0x4513 JUMP JUMPDEST PUSH1 0x1 PUSH1 0x1 PUSH1 0xA0 SHL SUB DUP2 AND PUSH2 0x1B4C JUMPI PUSH1 0x40 MLOAD PUSH3 0x461BCD PUSH1 0xE5 SHL DUP2 MSTORE PUSH1 0x20 PUSH1 0x4 DUP3 ADD MSTORE PUSH1 0x26 PUSH1 0x24 DUP3 ADD MSTORE PUSH32 0x4F776E61626C653A206E6577206F776E657220697320746865207A65726F2061 PUSH1 0x44 DUP3 ADD MSTORE PUSH6 0x646472657373 PUSH1 0xD0 SHL PUSH1 0x64 DUP3 ADD MSTORE PUSH1 0x84 ADD PUSH2 0x8E6 JUMP JUMPDEST PUSH2 0x1B55 DUP2 PUSH2 0x296A JUMP JUMPDEST POP JUMP JUMPDEST PUSH1 0x0 DUP1 PUSH2 0x1B64 DUP4 PUSH2 0x3F1A JUMP JUMPDEST SWAP2 POP SWAP2 POP PUSH2 0x1B71 DUP2 PUSH2 0x3A3E JUMP JUMPDEST ADDRESS PUSH1 0x0 SWAP1 DUP2 MSTORE PUSH1 0x5 PUSH1 0x20 MSTORE PUSH1 0x40 SWAP1 KECCAK256 SLOAD PUSH2 0x1B8B SWAP1 DUP4 PUSH2 0x1D22 JUMP JUMPDEST POP ADDRESS PUSH1 0x0 SWAP1 DUP2 MSTORE PUSH1 0x5 PUSH1 0x20 MSTORE PUSH1 0x40 SWAP1 KECCAK256 SLOAD PUSH2 0x1BA6 SWAP1 DUP3 PUSH2 0x1D22 JUMP JUMPDEST POP PUSH2 0xED8 CALLER PUSH2 0x1AA8 JUMP JUMPDEST PUSH1 0x0 DUP2 DUP5 DUP5 GT ISZERO PUSH2 0x1BD4 JUMPI PUSH1 0x40 MLOAD PUSH3 0x461BCD PUSH1 0xE5 SHL DUP2 MSTORE PUSH1 0x4 ADD PUSH2 0x8E6 SWAP2 SWAP1 PUSH2 0x4291 JUMP JUMPDEST POP POP POP SWAP1 SUB SWAP1 JUMP JUMPDEST PUSH1 0x0 PUSH2 0x1BE8 DUP3 DUP5 PUSH2 0x46E9 JUMP JUMPDEST SWAP4 SWAP3 POP POP POP JUMP JUMPDEST PUSH1 0x0 PUSH2 0x1BE8 DUP3 DUP5 PUSH2 0x45EF JUMP JUMPDEST PUSH1 0x1 PUSH1 0x1 PUSH1 0xA0 SHL SUB DUP4 AND PUSH2 0x1C5F JUMPI PUSH1 0x40 MLOAD PUSH3 0x461BCD PUSH1 0xE5 SHL DUP2 MSTORE PUSH1 0x20 PUSH1 0x4 DUP3 ADD MSTORE PUSH1 0x25 PUSH1 0x24 DUP3 ADD MSTORE PUSH32 0x54616C6178546F6B656E3A20617070726F76652066726F6D207A65726F206164 PUSH1 0x44 DUP3 ADD MSTORE PUSH5 0x6472657373 PUSH1 0xD8 SHL PUSH1 0x64 DUP3 ADD MSTORE PUSH1 0x84 ADD PUSH2 0x8E6 JUMP JUMPDEST PUSH1 0x1 PUSH1 0x1 PUSH1 0xA0 SHL SUB DUP3 AND PUSH2 0x1CC1 JUMPI PUSH1 0x40 MLOAD PUSH3 0x461BCD PUSH1 0xE5 SHL DUP2 MSTORE PUSH1 0x20 PUSH1 0x4 DUP3 ADD MSTORE PUSH1 0x23 PUSH1 0x24 DUP3 ADD MSTORE PUSH32 0x54616C6178546F6B656E3A20617070726F766520746F207A65726F2061646472 PUSH1 0x44 DUP3 ADD MSTORE PUSH3 0x657373 PUSH1 0xE8 SHL PUSH1 0x64 DUP3 ADD MSTORE PUSH1 0x84 ADD PUSH2 0x8E6 JUMP JUMPDEST PUSH1 0x1 PUSH1 0x1 PUSH1 0xA0 SHL SUB DUP4 DUP2 AND PUSH1 0x0 DUP2 DUP2 MSTORE PUSH1 0x6 PUSH1 0x20 SWAP1 DUP2 MSTORE PUSH1 0x40 DUP1 DUP4 KECCAK256 SWAP5 DUP8 AND DUP1 DUP5 MSTORE SWAP5 DUP3 MSTORE SWAP2 DUP3 SWAP1 KECCAK256 DUP6 SWAP1 SSTORE SWAP1 MLOAD DUP5 DUP2 MSTORE PUSH32 0x8C5BE1E5EBEC7D5BD14F71427D1E84F3DD0314C0F7B2291E5B200AC8C7C3B925 SWAP2 ADD PUSH1 0x40 MLOAD DUP1 SWAP2 SUB SWAP1 LOG3 POP POP POP JUMP JUMPDEST PUSH1 0x0 PUSH2 0x1BE8 DUP3 DUP5 PUSH2 0x46BC JUMP JUMPDEST PUSH2 0x1D36 PUSH2 0x4272 JUMP JUMPDEST PUSH1 0x40 MLOAD DUP1 PUSH2 0x560 ADD PUSH1 0x40 MSTORE DUP1 PUSH2 0x1D57 PUSH3 0x51615 PUSH8 0xDE0B6B3A7640000 PUSH2 0x40EB JUMP JUMPDEST DUP2 MSTORE PUSH1 0x20 ADD PUSH1 0x0 DUP2 MSTORE PUSH1 0x20 ADD PUSH1 0x0 DUP2 MSTORE PUSH1 0x20 ADD PUSH1 0x0 DUP2 MSTORE PUSH1 0x20 ADD PUSH2 0x1D86 PUSH3 0x51615 PUSH8 0xDE0B6B3A7640000 PUSH2 0x40EB JUMP JUMPDEST DUP2 MSTORE PUSH1 0x20 ADD PUSH1 0x0 DUP2 MSTORE PUSH1 0x20 ADD PUSH1 0x0 DUP2 MSTORE PUSH1 0x20 ADD PUSH2 0x1DAE PUSH3 0x51615 PUSH8 0xDE0B6B3A7640000 PUSH2 0x40EB JUMP JUMPDEST DUP2 MSTORE PUSH1 0x20 ADD PUSH1 0x0 DUP2 MSTORE PUSH1 0x20 ADD PUSH1 0x0 DUP2 MSTORE PUSH1 0x20 ADD PUSH2 0x1DD6 PUSH3 0x51615 PUSH8 0xDE0B6B3A7640000 PUSH2 0x40EB JUMP JUMPDEST DUP2 MSTORE PUSH1 0x20 ADD PUSH1 0x0 DUP2 MSTORE PUSH1 0x20 ADD PUSH1 0x0 DUP2 MSTORE PUSH1 0x20 ADD PUSH2 0x1DFE PUSH3 0x11A1E PUSH8 0xDE0B6B3A7640000 PUSH2 0x40EB JUMP JUMPDEST DUP2 MSTORE PUSH1 0x20 ADD PUSH2 0x1E18 PUSH3 0x11A1E PUSH8 0xDE0B6B3A7640000 PUSH2 0x40EB JUMP JUMPDEST DUP2 MSTORE PUSH1 0x20 ADD PUSH2 0x1E32 PUSH3 0x11A1E PUSH8 0xDE0B6B3A7640000 PUSH2 0x40EB JUMP JUMPDEST DUP2 MSTORE PUSH1 0x20 ADD PUSH2 0x1E4C PUSH3 0x11A1E PUSH8 0xDE0B6B3A7640000 PUSH2 0x40EB JUMP JUMPDEST DUP2 MSTORE PUSH1 0x20 ADD PUSH2 0x1E66 PUSH3 0x11A1E PUSH8 0xDE0B6B3A7640000 PUSH2 0x40EB JUMP JUMPDEST DUP2 MSTORE PUSH1 0x20 ADD PUSH2 0x1E80 PUSH3 0x11A1E PUSH8 0xDE0B6B3A7640000 PUSH2 0x40EB JUMP JUMPDEST DUP2 MSTORE PUSH1 0x20 ADD PUSH2 0x1E9A PUSH3 0x11A1E PUSH8 0xDE0B6B3A7640000 PUSH2 0x40EB JUMP JUMPDEST DUP2 MSTORE PUSH1 0x20 ADD PUSH2 0x1EB4 PUSH3 0x11A1E PUSH8 0xDE0B6B3A7640000 PUSH2 0x40EB JUMP JUMPDEST DUP2 MSTORE PUSH1 0x20 ADD PUSH2 0x1ECE PUSH3 0x11A1E PUSH8 0xDE0B6B3A7640000 PUSH2 0x40EB JUMP JUMPDEST DUP2 MSTORE PUSH1 0x20 ADD PUSH2 0x1EE8 PUSH3 0x11A1E PUSH8 0xDE0B6B3A7640000 PUSH2 0x40EB JUMP JUMPDEST DUP2 MSTORE PUSH1 0x20 ADD PUSH2 0x1F02 PUSH3 0x11A1E PUSH8 0xDE0B6B3A7640000 PUSH2 0x40EB JUMP JUMPDEST DUP2 MSTORE PUSH1 0x20 ADD PUSH2 0x1F1C PUSH3 0x11A1E PUSH8 0xDE0B6B3A7640000 PUSH2 0x40EB JUMP JUMPDEST DUP2 MSTORE PUSH1 0x20 ADD PUSH2 0x1F36 PUSH3 0x11A1E PUSH8 0xDE0B6B3A7640000 PUSH2 0x40EB JUMP JUMPDEST DUP2 MSTORE PUSH1 0x20 ADD PUSH2 0x1F50 PUSH3 0x11A1E PUSH8 0xDE0B6B3A7640000 PUSH2 0x40EB JUMP JUMPDEST DUP2 MSTORE PUSH1 0x20 ADD PUSH2 0x1F6A PUSH3 0x11A1E PUSH8 0xDE0B6B3A7640000 PUSH2 0x40EB JUMP JUMPDEST DUP2 MSTORE PUSH1 0x20 ADD PUSH2 0x1F84 PUSH3 0x11A1E PUSH8 0xDE0B6B3A7640000 PUSH2 0x40EB JUMP JUMPDEST DUP2 MSTORE PUSH1 0x20 ADD PUSH2 0x1F9E PUSH3 0x11A1E PUSH8 0xDE0B6B3A7640000 PUSH2 0x40EB JUMP JUMPDEST DUP2 MSTORE PUSH1 0x20 ADD PUSH2 0x1FB8 PUSH3 0x11A1E PUSH8 0xDE0B6B3A7640000 PUSH2 0x40EB JUMP JUMPDEST DUP2 MSTORE PUSH1 0x20 ADD PUSH2 0x1FD2 PUSH3 0x11A1E PUSH8 0xDE0B6B3A7640000 PUSH2 0x40EB JUMP JUMPDEST DUP2 MSTORE PUSH1 0x20 ADD PUSH2 0x1FEC PUSH3 0x11A1E PUSH8 0xDE0B6B3A7640000 PUSH2 0x40EB JUMP JUMPDEST DUP2 MSTORE PUSH1 0x20 ADD PUSH2 0x2006 PUSH3 0x11A1E PUSH8 0xDE0B6B3A7640000 PUSH2 0x40EB JUMP JUMPDEST DUP2 MSTORE PUSH1 0x20 ADD PUSH2 0x2020 PUSH3 0x11A1E PUSH8 0xDE0B6B3A7640000 PUSH2 0x40EB JUMP JUMPDEST DUP2 MSTORE PUSH1 0x20 ADD PUSH2 0x203A PUSH3 0x11A1E PUSH8 0xDE0B6B3A7640000 PUSH2 0x40EB JUMP JUMPDEST DUP2 MSTORE PUSH1 0x20 ADD PUSH2 0x2054 PUSH3 0x11A1E PUSH8 0xDE0B6B3A7640000 PUSH2 0x40EB JUMP JUMPDEST DUP2 MSTORE PUSH1 0x20 ADD PUSH2 0x206E PUSH3 0x11A1E PUSH8 0xDE0B6B3A7640000 PUSH2 0x40EB JUMP JUMPDEST DUP2 MSTORE PUSH1 0x20 ADD PUSH2 0x2088 PUSH3 0x11A1E PUSH8 0xDE0B6B3A7640000 PUSH2 0x40EB JUMP JUMPDEST DUP2 MSTORE PUSH1 0x20 ADD PUSH2 0x20A2 PUSH3 0x11A1E PUSH8 0xDE0B6B3A7640000 PUSH2 0x40EB JUMP JUMPDEST DUP2 MSTORE PUSH1 0x20 ADD PUSH2 0x20BC PUSH3 0x11A1E PUSH8 0xDE0B6B3A7640000 PUSH2 0x40EB JUMP JUMPDEST DUP2 MSTORE PUSH1 0x20 ADD PUSH2 0x20D6 PUSH3 0x11A1E PUSH8 0xDE0B6B3A7640000 PUSH2 0x40EB JUMP JUMPDEST DUP2 MSTORE PUSH1 0x20 ADD PUSH2 0x20F0 PUSH3 0x11A1E PUSH8 0xDE0B6B3A7640000 PUSH2 0x40EB JUMP JUMPDEST SWAP1 MSTORE SWAP2 SWAP1 POP JUMP JUMPDEST PUSH1 0x1 PUSH1 0x1 PUSH1 0xA0 SHL SUB DUP4 AND PUSH2 0x214D JUMPI PUSH1 0x40 MLOAD PUSH3 0x461BCD PUSH1 0xE5 SHL DUP2 MSTORE PUSH1 0x20 PUSH1 0x4 DUP3 ADD MSTORE PUSH1 0x1F PUSH1 0x24 DUP3 ADD MSTORE PUSH32 0x54616C6178546F6B656E3A2073656E646572207A65726F206164647265737300 PUSH1 0x44 DUP3 ADD MSTORE PUSH1 0x64 ADD PUSH2 0x8E6 JUMP JUMPDEST PUSH1 0x1 PUSH1 0x1 PUSH1 0xA0 SHL SUB DUP3 AND PUSH2 0x21AE JUMPI PUSH1 0x40 MLOAD PUSH3 0x461BCD PUSH1 0xE5 SHL DUP2 MSTORE PUSH1 0x20 PUSH1 0x4 DUP3 ADD MSTORE PUSH1 0x22 PUSH1 0x24 DUP3 ADD MSTORE PUSH32 0x54616C6178546F6B656E3A20726563697069656E74207A65726F206164647265 PUSH1 0x44 DUP3 ADD MSTORE PUSH2 0x7373 PUSH1 0xF0 SHL PUSH1 0x64 DUP3 ADD MSTORE PUSH1 0x84 ADD PUSH2 0x8E6 JUMP JUMPDEST PUSH1 0x8 SLOAD PUSH1 0x0 SWAP1 PUSH2 0x21CE SWAP1 PUSH2 0x21C7 SWAP1 DUP5 SWAP1 PUSH2 0xFFFF AND PUSH2 0x40EB JUMP JUMPDEST PUSH1 0x64 PUSH2 0x1BDC JUMP JUMPDEST SWAP1 POP PUSH1 0x0 PUSH2 0x21DC DUP4 DUP4 PUSH2 0x1D22 JUMP JUMPDEST SWAP1 POP PUSH1 0x0 PUSH2 0x21FF PUSH2 0x21F8 DUP4 PUSH2 0x21F3 PUSH1 0x2 PUSH1 0xA PUSH2 0x1BDC JUMP JUMPDEST PUSH2 0x40EB JUMP JUMPDEST PUSH1 0x3 PUSH2 0x1BDC JUMP JUMPDEST SWAP1 POP PUSH1 0x0 PUSH2 0x2213 DUP4 PUSH2 0x21F3 PUSH1 0x8 PUSH1 0xA PUSH2 0x1BDC JUMP JUMPDEST PUSH1 0x17 SLOAD PUSH1 0x1 PUSH1 0x1 PUSH1 0xA0 SHL SUB AND PUSH1 0x0 SWAP1 DUP2 MSTORE PUSH1 0x5 PUSH1 0x20 MSTORE PUSH1 0x40 SWAP1 KECCAK256 SLOAD SWAP1 SWAP2 POP PUSH2 0x223B SWAP1 DUP4 PUSH2 0x1BEF JUMP JUMPDEST PUSH1 0x17 SLOAD PUSH1 0x1 PUSH1 0x1 PUSH1 0xA0 SHL SUB SWAP1 DUP2 AND PUSH1 0x0 SWAP1 DUP2 MSTORE PUSH1 0x5 PUSH1 0x20 MSTORE PUSH1 0x40 DUP1 DUP3 KECCAK256 SWAP4 SWAP1 SWAP4 SSTORE PUSH1 0x18 SLOAD SWAP1 SWAP2 AND DUP2 MSTORE KECCAK256 SLOAD PUSH2 0x2270 SWAP1 DUP4 PUSH2 0x1BEF JUMP JUMPDEST PUSH1 0x18 SLOAD PUSH1 0x1 PUSH1 0x1 PUSH1 0xA0 SHL SUB SWAP1 DUP2 AND PUSH1 0x0 SWAP1 DUP2 MSTORE PUSH1 0x5 PUSH1 0x20 MSTORE PUSH1 0x40 DUP1 DUP3 KECCAK256 SWAP4 SWAP1 SWAP4 SSTORE PUSH1 0x19 SLOAD SWAP1 SWAP2 AND DUP2 MSTORE KECCAK256 SLOAD PUSH2 0x22A5 SWAP1 DUP4 PUSH2 0x1BEF JUMP JUMPDEST PUSH1 0x19 SLOAD PUSH1 0x1 PUSH1 0x1 PUSH1 0xA0 SHL SUB AND PUSH1 0x0 SWAP1 DUP2 MSTORE PUSH1 0x5 PUSH1 0x20 MSTORE PUSH1 0x40 DUP1 DUP3 KECCAK256 SWAP3 SWAP1 SWAP3 SSTORE ADDRESS DUP2 MSTORE KECCAK256 SLOAD PUSH2 0x22D3 SWAP1 DUP3 PUSH2 0x1BEF JUMP JUMPDEST PUSH1 0x5 PUSH1 0x0 ADDRESS PUSH1 0x1 PUSH1 0x1 PUSH1 0xA0 SHL SUB AND PUSH1 0x1 PUSH1 0x1 PUSH1 0xA0 SHL SUB AND DUP2 MSTORE PUSH1 0x20 ADD SWAP1 DUP2 MSTORE PUSH1 0x20 ADD PUSH1 0x0 KECCAK256 DUP2 SWAP1 SSTORE POP PUSH2 0x2339 DUP6 PUSH1 0x40 MLOAD DUP1 PUSH1 0x60 ADD PUSH1 0x40 MSTORE DUP1 PUSH1 0x24 DUP2 MSTORE PUSH1 0x20 ADD PUSH2 0x477C PUSH1 0x24 SWAP2 CODECOPY PUSH1 0x1 PUSH1 0x1 PUSH1 0xA0 SHL SUB DUP11 AND PUSH1 0x0 SWAP1 DUP2 MSTORE PUSH1 0x5 PUSH1 0x20 MSTORE PUSH1 0x40 SWAP1 KECCAK256 SLOAD SWAP2 SWAP1 PUSH2 0x1BB0 JUMP JUMPDEST PUSH1 0x1 PUSH1 0x1 PUSH1 0xA0 SHL SUB DUP1 DUP10 AND PUSH1 0x0 SWAP1 DUP2 MSTORE PUSH1 0x5 PUSH1 0x20 MSTORE PUSH1 0x40 DUP1 DUP3 KECCAK256 SWAP4 SWAP1 SWAP4 SSTORE SWAP1 DUP9 AND DUP2 MSTORE KECCAK256 SLOAD PUSH2 0x2368 SWAP1 DUP5 PUSH2 0x1BEF JUMP JUMPDEST PUSH1 0x1 PUSH1 0x1 PUSH1 0xA0 SHL SUB DUP1 DUP9 AND PUSH1 0x0 DUP2 DUP2 MSTORE PUSH1 0x5 PUSH1 0x20 MSTORE PUSH1 0x40 SWAP1 DUP2 SWAP1 KECCAK256 SWAP4 SWAP1 SWAP4 SSTORE SWAP2 MLOAD SWAP1 DUP10 AND SWAP1 PUSH32 0xDDF252AD1BE2C89B69C2B068FC378DAA952BA7F163C4A11628F55A4DF523B3EF SWAP1 PUSH2 0x23BC SWAP1 DUP8 DUP2 MSTORE PUSH1 0x20 ADD SWAP1 JUMP JUMPDEST PUSH1 0x40 MLOAD DUP1 SWAP2 SUB SWAP1 LOG3 POP POP POP POP POP POP POP JUMP JUMPDEST PUSH2 0x23D5 PUSH2 0x4272 JUMP JUMPDEST PUSH1 0x40 MLOAD DUP1 PUSH2 0x560 ADD PUSH1 0x40 MSTORE DUP1 PUSH2 0x23F6 PUSH3 0x11CD4A PUSH8 0xDE0B6B3A7640000 PUSH2 0x40EB JUMP JUMPDEST DUP2 MSTORE PUSH1 0x20 ADD PUSH1 0x0 DUP2 MSTORE PUSH1 0x20 ADD PUSH1 0x0 DUP2 MSTORE PUSH1 0x20 ADD PUSH1 0x0 DUP2 MSTORE PUSH1 0x20 ADD PUSH2 0x2425 PUSH3 0x989680 PUSH8 0xDE0B6B3A7640000 PUSH2 0x40EB JUMP JUMPDEST DUP2 MSTORE PUSH1 0x20 ADD PUSH1 0x0 DUP2 MSTORE PUSH1 0x20 ADD PUSH1 0x0 DUP2 MSTORE PUSH1 0x20 ADD PUSH2 0x244D PUSH3 0x989680 PUSH8 0xDE0B6B3A7640000 PUSH2 0x40EB JUMP JUMPDEST DUP2 MSTORE PUSH1 0x20 ADD PUSH1 0x0 DUP2 MSTORE PUSH1 0x20 ADD PUSH1 0x0 DUP2 MSTORE PUSH1 0x20 ADD PUSH2 0x2475 PUSH3 0x989680 PUSH8 0xDE0B6B3A7640000 PUSH2 0x40EB JUMP JUMPDEST DUP2 MSTORE PUSH1 0x20 ADD PUSH1 0x0 DUP2 MSTORE PUSH1 0x20 ADD PUSH1 0x0 DUP2 MSTORE PUSH1 0x20 ADD PUSH2 0x249D PUSH3 0x51616 PUSH8 0xDE0B6B3A7640000 PUSH2 0x40EB JUMP JUMPDEST DUP2 MSTORE PUSH1 0x20 ADD PUSH2 0x24B7 PUSH3 0x51616 PUSH8 0xDE0B6B3A7640000 PUSH2 0x40EB JUMP JUMPDEST DUP2 MSTORE PUSH1 0x20 ADD PUSH2 0x24D1 PUSH3 0x51616 PUSH8 0xDE0B6B3A7640000 PUSH2 0x40EB JUMP JUMPDEST DUP2 MSTORE PUSH1 0x20 ADD PUSH2 0x24EB PUSH3 0x51616 PUSH8 0xDE0B6B3A7640000 PUSH2 0x40EB JUMP JUMPDEST DUP2 MSTORE PUSH1 0x20 ADD PUSH2 0x2505 PUSH3 0x51616 PUSH8 0xDE0B6B3A7640000 PUSH2 0x40EB JUMP JUMPDEST DUP2 MSTORE PUSH1 0x20 ADD PUSH2 0x251F PUSH3 0x51616 PUSH8 0xDE0B6B3A7640000 PUSH2 0x40EB JUMP JUMPDEST DUP2 MSTORE PUSH1 0x20 ADD PUSH2 0x2539 PUSH3 0x51616 PUSH8 0xDE0B6B3A7640000 PUSH2 0x40EB JUMP JUMPDEST DUP2 MSTORE PUSH1 0x20 ADD PUSH2 0x2553 PUSH3 0x51616 PUSH8 0xDE0B6B3A7640000 PUSH2 0x40EB JUMP JUMPDEST DUP2 MSTORE PUSH1 0x20 ADD PUSH2 0x256D PUSH3 0x51616 PUSH8 0xDE0B6B3A7640000 PUSH2 0x40EB JUMP JUMPDEST DUP2 MSTORE PUSH1 0x20 ADD PUSH2 0x2587 PUSH3 0x51616 PUSH8 0xDE0B6B3A7640000 PUSH2 0x40EB JUMP JUMPDEST DUP2 MSTORE PUSH1 0x20 ADD PUSH2 0x25A1 PUSH3 0x51616 PUSH8 0xDE0B6B3A7640000 PUSH2 0x40EB JUMP JUMPDEST DUP2 MSTORE PUSH1 0x20 ADD PUSH2 0x25BB PUSH3 0x51616 PUSH8 0xDE0B6B3A7640000 PUSH2 0x40EB JUMP JUMPDEST DUP2 MSTORE PUSH1 0x20 ADD PUSH2 0x25D5 PUSH3 0x51616 PUSH8 0xDE0B6B3A7640000 PUSH2 0x40EB JUMP JUMPDEST DUP2 MSTORE PUSH1 0x20 ADD PUSH2 0x25EF PUSH3 0x51616 PUSH8 0xDE0B6B3A7640000 PUSH2 0x40EB JUMP JUMPDEST DUP2 MSTORE PUSH1 0x20 ADD PUSH2 0x2609 PUSH3 0x51616 PUSH8 0xDE0B6B3A7640000 PUSH2 0x40EB JUMP JUMPDEST DUP2 MSTORE PUSH1 0x20 ADD PUSH2 0x2623 PUSH3 0x51616 PUSH8 0xDE0B6B3A7640000 PUSH2 0x40EB JUMP JUMPDEST DUP2 MSTORE PUSH1 0x20 ADD PUSH2 0x263D PUSH3 0x51616 PUSH8 0xDE0B6B3A7640000 PUSH2 0x40EB JUMP JUMPDEST DUP2 MSTORE PUSH1 0x20 ADD PUSH2 0x2657 PUSH3 0x51616 PUSH8 0xDE0B6B3A7640000 PUSH2 0x40EB JUMP JUMPDEST DUP2 MSTORE PUSH1 0x20 ADD PUSH2 0x2671 PUSH3 0x51616 PUSH8 0xDE0B6B3A7640000 PUSH2 0x40EB JUMP JUMPDEST DUP2 MSTORE PUSH1 0x20 ADD PUSH1 0x0 DUP2 MSTORE PUSH1 0x20 ADD PUSH1 0x0 DUP2 MSTORE PUSH1 0x20 ADD PUSH1 0x0 DUP2 MSTORE PUSH1 0x20 ADD PUSH1 0x0 DUP2 MSTORE PUSH1 0x20 ADD PUSH1 0x0 DUP2 MSTORE PUSH1 0x20 ADD PUSH1 0x0 DUP2 MSTORE PUSH1 0x20 ADD PUSH1 0x0 DUP2 MSTORE PUSH1 0x20 ADD PUSH1 0x0 DUP2 MSTORE PUSH1 0x20 ADD PUSH1 0x0 DUP2 MSTORE PUSH1 0x20 ADD PUSH1 0x0 DUP2 MSTORE PUSH1 0x20 ADD PUSH1 0x0 DUP2 MSTORE POP SWAP1 POP SWAP1 JUMP JUMPDEST PUSH2 0x26CE PUSH2 0x4272 JUMP JUMPDEST PUSH1 0x40 MLOAD DUP1 PUSH2 0x560 ADD PUSH1 0x40 MSTORE DUP1 PUSH2 0x26EF PUSH3 0x11CD4B PUSH8 0xDE0B6B3A7640000 PUSH2 0x40EB JUMP JUMPDEST DUP2 MSTORE PUSH1 0x20 ADD PUSH1 0x0 DUP2 MSTORE PUSH1 0x20 ADD PUSH1 0x0 DUP2 MSTORE PUSH1 0x20 ADD PUSH1 0x0 DUP2 MSTORE PUSH1 0x20 ADD PUSH2 0x271E PUSH3 0xF4240 PUSH8 0xDE0B6B3A7640000 PUSH2 0x40EB JUMP JUMPDEST DUP2 MSTORE PUSH1 0x20 ADD PUSH1 0x0 DUP2 MSTORE PUSH1 0x20 ADD PUSH1 0x0 DUP2 MSTORE PUSH1 0x20 ADD PUSH2 0x2746 PUSH3 0xF4240 PUSH8 0xDE0B6B3A7640000 PUSH2 0x40EB JUMP JUMPDEST DUP2 MSTORE PUSH1 0x20 ADD PUSH1 0x0 DUP2 MSTORE PUSH1 0x20 ADD PUSH1 0x0 DUP2 MSTORE PUSH1 0x20 ADD PUSH2 0x276E PUSH3 0xF4240 PUSH8 0xDE0B6B3A7640000 PUSH2 0x40EB JUMP JUMPDEST DUP2 MSTORE PUSH1 0x20 ADD PUSH1 0x0 DUP2 MSTORE PUSH1 0x20 ADD PUSH1 0x0 DUP2 MSTORE PUSH1 0x20 ADD PUSH2 0x2796 PUSH3 0x51615 PUSH8 0xDE0B6B3A7640000 PUSH2 0x40EB JUMP JUMPDEST DUP2 MSTORE PUSH1 0x20 ADD PUSH2 0x27B0 PUSH3 0x51615 PUSH8 0xDE0B6B3A7640000 PUSH2 0x40EB JUMP JUMPDEST DUP2 MSTORE PUSH1 0x20 ADD PUSH2 0x27CA PUSH3 0x51615 PUSH8 0xDE0B6B3A7640000 PUSH2 0x40EB JUMP JUMPDEST DUP2 MSTORE PUSH1 0x20 ADD PUSH2 0x27E4 PUSH3 0x51615 PUSH8 0xDE0B6B3A7640000 PUSH2 0x40EB JUMP JUMPDEST DUP2 MSTORE PUSH1 0x20 ADD PUSH2 0x27FE PUSH3 0x51615 PUSH8 0xDE0B6B3A7640000 PUSH2 0x40EB JUMP JUMPDEST DUP2 MSTORE PUSH1 0x20 ADD PUSH2 0x2818 PUSH3 0x51615 PUSH8 0xDE0B6B3A7640000 PUSH2 0x40EB JUMP JUMPDEST DUP2 MSTORE PUSH1 0x20 ADD PUSH2 0x2832 PUSH3 0x51615 PUSH8 0xDE0B6B3A7640000 PUSH2 0x40EB JUMP JUMPDEST DUP2 MSTORE PUSH1 0x20 ADD PUSH2 0x284C PUSH3 0x51615 PUSH8 0xDE0B6B3A7640000 PUSH2 0x40EB JUMP JUMPDEST DUP2 MSTORE PUSH1 0x20 ADD PUSH2 0x2866 PUSH3 0x51615 PUSH8 0xDE0B6B3A7640000 PUSH2 0x40EB JUMP JUMPDEST DUP2 MSTORE PUSH1 0x20 ADD PUSH2 0x2880 PUSH3 0x51615 PUSH8 0xDE0B6B3A7640000 PUSH2 0x40EB JUMP JUMPDEST DUP2 MSTORE PUSH1 0x20 ADD PUSH2 0x289A PUSH3 0x51615 PUSH8 0xDE0B6B3A7640000 PUSH2 0x40EB JUMP JUMPDEST DUP2 MSTORE PUSH1 0x20 ADD PUSH2 0x28B4 PUSH3 0x51615 PUSH8 0xDE0B6B3A7640000 PUSH2 0x40EB JUMP JUMPDEST DUP2 MSTORE PUSH1 0x20 ADD PUSH2 0x28CE PUSH3 0x51615 PUSH8 0xDE0B6B3A7640000 PUSH2 0x40EB JUMP JUMPDEST DUP2 MSTORE PUSH1 0x20 ADD PUSH2 0x28E8 PUSH3 0x51615 PUSH8 0xDE0B6B3A7640000 PUSH2 0x40EB JUMP JUMPDEST DUP2 MSTORE PUSH1 0x20 ADD PUSH2 0x2902 PUSH3 0x51615 PUSH8 0xDE0B6B3A7640000 PUSH2 0x40EB JUMP JUMPDEST DUP2 MSTORE PUSH1 0x20 ADD PUSH2 0x291C PUSH3 0x51615 PUSH8 0xDE0B6B3A7640000 PUSH2 0x40EB JUMP JUMPDEST DUP2 MSTORE PUSH1 0x20 ADD PUSH2 0x2936 PUSH3 0x51615 PUSH8 0xDE0B6B3A7640000 PUSH2 0x40EB JUMP JUMPDEST DUP2 MSTORE PUSH1 0x20 ADD PUSH2 0x2950 PUSH3 0x51615 PUSH8 0xDE0B6B3A7640000 PUSH2 0x40EB JUMP JUMPDEST DUP2 MSTORE PUSH1 0x20 ADD PUSH2 0x2671 PUSH3 0x51615 PUSH8 0xDE0B6B3A7640000 PUSH2 0x40EB JUMP JUMPDEST PUSH1 0x0 DUP1 SLOAD PUSH1 0x1 PUSH1 0x1 PUSH1 0xA0 SHL SUB DUP4 DUP2 AND PUSH1 0x1 PUSH1 0x1 PUSH1 0xA0 SHL SUB NOT DUP4 AND DUP2 OR DUP5 SSTORE PUSH1 0x40 MLOAD SWAP2 SWAP1 SWAP3 AND SWAP3 DUP4 SWAP2 PUSH32 0x8BE0079C531659141344CD1FD0A4F28419497F9722A3DAAFE3B4186F6B6457E0 SWAP2 SWAP1 LOG3 POP POP JUMP JUMPDEST PUSH1 0x0 DUP4 GT PUSH2 0x2A0A JUMPI PUSH1 0x40 MLOAD PUSH3 0x461BCD PUSH1 0xE5 SHL DUP2 MSTORE PUSH1 0x20 PUSH1 0x4 DUP3 ADD MSTORE PUSH1 0x1E PUSH1 0x24 DUP3 ADD MSTORE PUSH32 0x5374616B61626C653A2043616E6E6F74207374616B65206E6F7468696E670000 PUSH1 0x44 DUP3 ADD MSTORE PUSH1 0x64 ADD PUSH2 0x8E6 JUMP JUMPDEST CALLER PUSH1 0x0 SWAP1 DUP2 MSTORE PUSH1 0x3 PUSH1 0x20 MSTORE PUSH1 0x40 SWAP1 KECCAK256 SLOAD TIMESTAMP DUP2 PUSH2 0x2A2C JUMPI PUSH2 0x2A29 CALLER PUSH2 0x40F7 JUMP JUMPDEST SWAP2 POP JUMPDEST PUSH1 0x2 DUP3 DUP2 SLOAD DUP2 LT PUSH2 0x2A3F JUMPI PUSH2 0x2A3F PUSH2 0x46A6 JUMP JUMPDEST SWAP1 PUSH1 0x0 MSTORE PUSH1 0x20 PUSH1 0x0 KECCAK256 SWAP1 PUSH1 0x2 MUL ADD PUSH1 0x1 ADD PUSH1 0x40 MLOAD DUP1 PUSH1 0xC0 ADD PUSH1 0x40 MSTORE DUP1 CALLER PUSH1 0x1 PUSH1 0x1 PUSH1 0xA0 SHL SUB AND DUP2 MSTORE PUSH1 0x20 ADD DUP8 DUP2 MSTORE PUSH1 0x20 ADD DUP4 DUP2 MSTORE PUSH1 0x20 ADD PUSH1 0x0 DUP2 MSTORE PUSH1 0x20 ADD DUP6 DUP2 MSTORE PUSH1 0x20 ADD DUP4 DUP8 PUSH2 0x2A8F SWAP2 SWAP1 PUSH2 0x45EF JUMP JUMPDEST SWAP1 MSTORE DUP2 SLOAD PUSH1 0x1 DUP1 DUP3 ADD DUP5 SSTORE PUSH1 0x0 SWAP4 DUP5 MSTORE PUSH1 0x20 SWAP4 DUP5 SWAP1 KECCAK256 DUP4 MLOAD PUSH1 0x6 SWAP1 SWAP4 MUL ADD DUP1 SLOAD PUSH1 0x1 PUSH1 0x1 PUSH1 0xA0 SHL SUB NOT AND PUSH1 0x1 PUSH1 0x1 PUSH1 0xA0 SHL SUB SWAP1 SWAP4 AND SWAP3 SWAP1 SWAP3 OR DUP3 SSTORE SWAP3 DUP3 ADD MLOAD SWAP3 DUP2 ADD SWAP3 SWAP1 SWAP3 SSTORE PUSH1 0x40 DUP2 ADD MLOAD PUSH1 0x2 DUP4 ADD SSTORE PUSH1 0x60 DUP2 ADD MLOAD PUSH1 0x3 DUP4 ADD SSTORE PUSH1 0x80 DUP2 ADD MLOAD PUSH1 0x4 DUP4 ADD SSTORE PUSH1 0xA0 ADD MLOAD PUSH1 0x5 SWAP1 SWAP2 ADD SSTORE CALLER PUSH32 0x9CFD25589D1EB8AD71E342A86A8524E83522E3936C0803048C08F6D9AD974F40 DUP7 DUP5 DUP5 PUSH2 0x2B2C DUP2 DUP11 PUSH2 0x45EF JUMP JUMPDEST PUSH1 0x40 DUP1 MLOAD SWAP5 DUP6 MSTORE PUSH1 0x20 DUP6 ADD SWAP4 SWAP1 SWAP4 MSTORE SWAP2 DUP4 ADD MSTORE PUSH1 0x60 DUP3 ADD MSTORE PUSH1 0x80 ADD PUSH1 0x40 MLOAD DUP1 SWAP2 SUB SWAP1 LOG2 POP POP POP POP POP JUMP JUMPDEST PUSH1 0x1 PUSH1 0x1 PUSH1 0xA0 SHL SUB DUP3 AND PUSH2 0x2BB7 JUMPI PUSH1 0x40 MLOAD PUSH3 0x461BCD PUSH1 0xE5 SHL DUP2 MSTORE PUSH1 0x20 PUSH1 0x4 DUP3 ADD MSTORE PUSH1 0x22 PUSH1 0x24 DUP3 ADD MSTORE PUSH32 0x54616C6178546F6B656E3A206275726E2066726F6D207A65726F206164647265 PUSH1 0x44 DUP3 ADD MSTORE PUSH2 0x7373 PUSH1 0xF0 SHL PUSH1 0x64 DUP3 ADD MSTORE PUSH1 0x84 ADD PUSH2 0x8E6 JUMP JUMPDEST PUSH1 0x40 DUP1 MLOAD DUP1 DUP3 ADD DUP3 MSTORE PUSH1 0x20 DUP1 DUP3 MSTORE PUSH32 0x54616C6178546F6B656E3A206275726E20657863656564732062616C616E6365 DUP2 DUP4 ADD MSTORE PUSH1 0x1 PUSH1 0x1 PUSH1 0xA0 SHL SUB DUP6 AND PUSH1 0x0 SWAP1 DUP2 MSTORE PUSH1 0x5 SWAP1 SWAP2 MSTORE SWAP2 SWAP1 SWAP2 KECCAK256 SLOAD PUSH2 0x2C0E SWAP2 DUP4 SWAP1 PUSH2 0x1BB0 JUMP JUMPDEST PUSH1 0x1 PUSH1 0x1 PUSH1 0xA0 SHL SUB DUP4 AND PUSH1 0x0 SWAP1 DUP2 MSTORE PUSH1 0x5 PUSH1 0x20 MSTORE PUSH1 0x40 SWAP1 KECCAK256 SSTORE PUSH1 0x9 SLOAD PUSH2 0x2C34 SWAP1 DUP3 PUSH2 0x1D22 JUMP JUMPDEST PUSH1 0x9 SSTORE PUSH1 0x40 MLOAD DUP2 DUP2 MSTORE PUSH1 0x0 SWAP1 PUSH1 0x1 PUSH1 0x1 PUSH1 0xA0 SHL SUB DUP5 AND SWAP1 PUSH32 0xDDF252AD1BE2C89B69C2B068FC378DAA952BA7F163C4A11628F55A4DF523B3EF SWAP1 PUSH1 0x20 ADD JUMPDEST PUSH1 0x40 MLOAD DUP1 SWAP2 SUB SWAP1 LOG3 POP POP JUMP JUMPDEST PUSH2 0x2C85 PUSH2 0x4272 JUMP JUMPDEST PUSH1 0x40 MLOAD DUP1 PUSH2 0x560 ADD PUSH1 0x40 MSTORE DUP1 PUSH2 0x2CA6 PUSH3 0xF4240 PUSH8 0xDE0B6B3A7640000 PUSH2 0x40EB JUMP JUMPDEST DUP2 MSTORE PUSH1 0x20 ADD PUSH1 0x0 DUP2 MSTORE PUSH1 0x20 ADD PUSH1 0x0 DUP2 MSTORE PUSH1 0x20 ADD PUSH1 0x0 DUP2 MSTORE PUSH1 0x20 ADD PUSH2 0x2CD5 PUSH3 0xF4240 PUSH8 0xDE0B6B3A7640000 PUSH2 0x40EB JUMP JUMPDEST DUP2 MSTORE PUSH1 0x20 ADD PUSH1 0x0 DUP2 MSTORE PUSH1 0x20 ADD PUSH1 0x0 DUP2 MSTORE PUSH1 0x20 ADD PUSH2 0x2CFD PUSH3 0xF4240 PUSH8 0xDE0B6B3A7640000 PUSH2 0x40EB JUMP JUMPDEST DUP2 MSTORE PUSH1 0x20 ADD PUSH1 0x0 DUP2 MSTORE PUSH1 0x20 ADD PUSH1 0x0 DUP2 MSTORE PUSH1 0x20 ADD PUSH2 0x2D25 PUSH3 0xF4240 PUSH8 0xDE0B6B3A7640000 PUSH2 0x40EB JUMP JUMPDEST DUP2 MSTORE PUSH1 0x20 ADD PUSH1 0x0 DUP2 MSTORE PUSH1 0x20 ADD PUSH1 0x0 DUP2 MSTORE PUSH1 0x20 ADD PUSH2 0x2D4D PUSH3 0x51616 PUSH8 0xDE0B6B3A7640000 PUSH2 0x40EB JUMP JUMPDEST DUP2 MSTORE PUSH1 0x20 ADD PUSH2 0x2D67 PUSH3 0x51616 PUSH8 0xDE0B6B3A7640000 PUSH2 0x40EB JUMP JUMPDEST DUP2 MSTORE PUSH1 0x20 ADD PUSH2 0x2D81 PUSH3 0x51616 PUSH8 0xDE0B6B3A7640000 PUSH2 0x40EB JUMP JUMPDEST DUP2 MSTORE PUSH1 0x20 ADD PUSH2 0x2D9B PUSH3 0x51616 PUSH8 0xDE0B6B3A7640000 PUSH2 0x40EB JUMP JUMPDEST DUP2 MSTORE PUSH1 0x20 ADD PUSH2 0x2DB5 PUSH3 0x51616 PUSH8 0xDE0B6B3A7640000 PUSH2 0x40EB JUMP JUMPDEST DUP2 MSTORE PUSH1 0x20 ADD PUSH2 0x2DCF PUSH3 0x51616 PUSH8 0xDE0B6B3A7640000 PUSH2 0x40EB JUMP JUMPDEST DUP2 MSTORE PUSH1 0x20 ADD PUSH2 0x2DE9 PUSH3 0x51616 PUSH8 0xDE0B6B3A7640000 PUSH2 0x40EB JUMP JUMPDEST DUP2 MSTORE PUSH1 0x20 ADD PUSH2 0x2E03 PUSH3 0x51616 PUSH8 0xDE0B6B3A7640000 PUSH2 0x40EB JUMP JUMPDEST DUP2 MSTORE PUSH1 0x20 ADD PUSH2 0x2E1D PUSH3 0x51616 PUSH8 0xDE0B6B3A7640000 PUSH2 0x40EB JUMP JUMPDEST DUP2 MSTORE PUSH1 0x20 ADD PUSH2 0x2E37 PUSH3 0x51616 PUSH8 0xDE0B6B3A7640000 PUSH2 0x40EB JUMP JUMPDEST DUP2 MSTORE PUSH1 0x20 ADD PUSH2 0x2E51 PUSH3 0x51616 PUSH8 0xDE0B6B3A7640000 PUSH2 0x40EB JUMP JUMPDEST DUP2 MSTORE PUSH1 0x20 ADD PUSH2 0x2E6B PUSH3 0x51616 PUSH8 0xDE0B6B3A7640000 PUSH2 0x40EB JUMP JUMPDEST DUP2 MSTORE PUSH1 0x20 ADD PUSH2 0x2E85 PUSH3 0x51616 PUSH8 0xDE0B6B3A7640000 PUSH2 0x40EB JUMP JUMPDEST DUP2 MSTORE PUSH1 0x20 ADD PUSH2 0x2E9F PUSH3 0x51616 PUSH8 0xDE0B6B3A7640000 PUSH2 0x40EB JUMP JUMPDEST DUP2 MSTORE PUSH1 0x20 ADD PUSH2 0x2EB9 PUSH3 0x51616 PUSH8 0xDE0B6B3A7640000 PUSH2 0x40EB JUMP JUMPDEST DUP2 MSTORE PUSH1 0x20 ADD PUSH2 0x2ED3 PUSH3 0x51616 PUSH8 0xDE0B6B3A7640000 PUSH2 0x40EB JUMP JUMPDEST DUP2 MSTORE PUSH1 0x20 ADD PUSH2 0x2EED PUSH3 0x51616 PUSH8 0xDE0B6B3A7640000 PUSH2 0x40EB JUMP JUMPDEST DUP2 MSTORE PUSH1 0x20 ADD PUSH2 0x2F07 PUSH3 0x51616 PUSH8 0xDE0B6B3A7640000 PUSH2 0x40EB JUMP JUMPDEST DUP2 MSTORE PUSH1 0x20 ADD PUSH2 0x2F21 PUSH3 0x51616 PUSH8 0xDE0B6B3A7640000 PUSH2 0x40EB JUMP JUMPDEST DUP2 MSTORE PUSH1 0x20 ADD PUSH2 0x2F3B PUSH3 0x51616 PUSH8 0xDE0B6B3A7640000 PUSH2 0x40EB JUMP JUMPDEST DUP2 MSTORE PUSH1 0x20 ADD PUSH2 0x2F55 PUSH3 0x51616 PUSH8 0xDE0B6B3A7640000 PUSH2 0x40EB JUMP JUMPDEST DUP2 MSTORE PUSH1 0x20 ADD PUSH2 0x2F6F PUSH3 0x51616 PUSH8 0xDE0B6B3A7640000 PUSH2 0x40EB JUMP JUMPDEST DUP2 MSTORE PUSH1 0x20 ADD PUSH2 0x2F89 PUSH3 0x51616 PUSH8 0xDE0B6B3A7640000 PUSH2 0x40EB JUMP JUMPDEST DUP2 MSTORE PUSH1 0x20 ADD PUSH2 0x2FA3 PUSH3 0x51616 PUSH8 0xDE0B6B3A7640000 PUSH2 0x40EB JUMP JUMPDEST DUP2 MSTORE PUSH1 0x20 ADD PUSH2 0x2FBD PUSH3 0x51616 PUSH8 0xDE0B6B3A7640000 PUSH2 0x40EB JUMP JUMPDEST DUP2 MSTORE PUSH1 0x20 ADD PUSH2 0x2FD7 PUSH3 0x51616 PUSH8 0xDE0B6B3A7640000 PUSH2 0x40EB JUMP JUMPDEST DUP2 MSTORE PUSH1 0x20 ADD PUSH2 0x2FF1 PUSH3 0x51616 PUSH8 0xDE0B6B3A7640000 PUSH2 0x40EB JUMP JUMPDEST DUP2 MSTORE PUSH1 0x20 ADD PUSH2 0x300B PUSH3 0x51616 PUSH8 0xDE0B6B3A7640000 PUSH2 0x40EB JUMP JUMPDEST DUP2 MSTORE PUSH1 0x20 ADD PUSH2 0x3025 PUSH3 0x51616 PUSH8 0xDE0B6B3A7640000 PUSH2 0x40EB JUMP JUMPDEST DUP2 MSTORE PUSH1 0x20 ADD PUSH2 0x20F0 PUSH3 0x51616 PUSH8 0xDE0B6B3A7640000 PUSH2 0x40EB JUMP JUMPDEST PUSH2 0x3047 PUSH2 0x4272 JUMP JUMPDEST PUSH1 0x40 MLOAD DUP1 PUSH2 0x560 ADD PUSH1 0x40 MSTORE DUP1 PUSH2 0x3068 PUSH3 0x51616 PUSH8 0xDE0B6B3A7640000 PUSH2 0x40EB JUMP JUMPDEST DUP2 MSTORE PUSH1 0x20 ADD PUSH1 0x0 DUP2 MSTORE PUSH1 0x20 ADD PUSH1 0x0 DUP2 MSTORE PUSH1 0x20 ADD PUSH1 0x0 DUP2 MSTORE PUSH1 0x20 ADD PUSH2 0x3097 PUSH3 0x51616 PUSH8 0xDE0B6B3A7640000 PUSH2 0x40EB JUMP JUMPDEST DUP2 MSTORE PUSH1 0x20 ADD PUSH1 0x0 DUP2 MSTORE PUSH1 0x20 ADD PUSH1 0x0 DUP2 MSTORE PUSH1 0x20 ADD PUSH2 0x30BF PUSH3 0x51616 PUSH8 0xDE0B6B3A7640000 PUSH2 0x40EB JUMP JUMPDEST DUP2 MSTORE PUSH1 0x20 ADD PUSH1 0x0 DUP2 MSTORE PUSH1 0x20 ADD PUSH1 0x0 DUP2 MSTORE PUSH1 0x20 ADD PUSH2 0x30E7 PUSH3 0x51616 PUSH8 0xDE0B6B3A7640000 PUSH2 0x40EB JUMP JUMPDEST DUP2 MSTORE PUSH1 0x20 ADD PUSH1 0x0 DUP2 MSTORE PUSH1 0x20 ADD PUSH1 0x0 DUP2 MSTORE PUSH1 0x20 ADD PUSH2 0x310F PUSH3 0x11A1F PUSH8 0xDE0B6B3A7640000 PUSH2 0x40EB JUMP JUMPDEST DUP2 MSTORE PUSH1 0x20 ADD PUSH2 0x3129 PUSH3 0x11A1F PUSH8 0xDE0B6B3A7640000 PUSH2 0x40EB JUMP JUMPDEST DUP2 MSTORE PUSH1 0x20 ADD PUSH2 0x3143 PUSH3 0x11A1F PUSH8 0xDE0B6B3A7640000 PUSH2 0x40EB JUMP JUMPDEST DUP2 MSTORE PUSH1 0x20 ADD PUSH2 0x315D PUSH3 0x11A1F PUSH8 0xDE0B6B3A7640000 PUSH2 0x40EB JUMP JUMPDEST DUP2 MSTORE PUSH1 0x20 ADD PUSH2 0x3177 PUSH3 0x11A1F PUSH8 0xDE0B6B3A7640000 PUSH2 0x40EB JUMP JUMPDEST DUP2 MSTORE PUSH1 0x20 ADD PUSH2 0x3191 PUSH3 0x11A1F PUSH8 0xDE0B6B3A7640000 PUSH2 0x40EB JUMP JUMPDEST DUP2 MSTORE PUSH1 0x20 ADD PUSH2 0x31AB PUSH3 0x11A1F PUSH8 0xDE0B6B3A7640000 PUSH2 0x40EB JUMP JUMPDEST DUP2 MSTORE PUSH1 0x20 ADD PUSH2 0x31C5 PUSH3 0x11A1F PUSH8 0xDE0B6B3A7640000 PUSH2 0x40EB JUMP JUMPDEST DUP2 MSTORE PUSH1 0x20 ADD PUSH2 0x31DF PUSH3 0x11A1F PUSH8 0xDE0B6B3A7640000 PUSH2 0x40EB JUMP JUMPDEST DUP2 MSTORE PUSH1 0x20 ADD PUSH2 0x31F9 PUSH3 0x11A1F PUSH8 0xDE0B6B3A7640000 PUSH2 0x40EB JUMP JUMPDEST DUP2 MSTORE PUSH1 0x20 ADD PUSH2 0x3213 PUSH3 0x11A1F PUSH8 0xDE0B6B3A7640000 PUSH2 0x40EB JUMP JUMPDEST DUP2 MSTORE PUSH1 0x20 ADD PUSH2 0x322D PUSH3 0x11A1F PUSH8 0xDE0B6B3A7640000 PUSH2 0x40EB JUMP JUMPDEST DUP2 MSTORE PUSH1 0x20 ADD PUSH2 0x3247 PUSH3 0x11A1F PUSH8 0xDE0B6B3A7640000 PUSH2 0x40EB JUMP JUMPDEST DUP2 MSTORE PUSH1 0x20 ADD PUSH2 0x3261 PUSH3 0x11A1F PUSH8 0xDE0B6B3A7640000 PUSH2 0x40EB JUMP JUMPDEST DUP2 MSTORE PUSH1 0x20 ADD PUSH2 0x327B PUSH3 0x11A1F PUSH8 0xDE0B6B3A7640000 PUSH2 0x40EB JUMP JUMPDEST DUP2 MSTORE PUSH1 0x20 ADD PUSH2 0x3295 PUSH3 0x11A1F PUSH8 0xDE0B6B3A7640000 PUSH2 0x40EB JUMP JUMPDEST DUP2 MSTORE PUSH1 0x20 ADD PUSH2 0x32AF PUSH3 0x11A1F PUSH8 0xDE0B6B3A7640000 PUSH2 0x40EB JUMP JUMPDEST DUP2 MSTORE PUSH1 0x20 ADD PUSH2 0x32C9 PUSH3 0x11A1F PUSH8 0xDE0B6B3A7640000 PUSH2 0x40EB JUMP JUMPDEST DUP2 MSTORE PUSH1 0x20 ADD PUSH2 0x32E3 PUSH3 0x11A1F PUSH8 0xDE0B6B3A7640000 PUSH2 0x40EB JUMP JUMPDEST DUP2 MSTORE PUSH1 0x20 ADD PUSH2 0x32FD PUSH3 0x11A1F PUSH8 0xDE0B6B3A7640000 PUSH2 0x40EB JUMP JUMPDEST DUP2 MSTORE PUSH1 0x20 ADD PUSH2 0x3317 PUSH3 0x11A1F PUSH8 0xDE0B6B3A7640000 PUSH2 0x40EB JUMP JUMPDEST DUP2 MSTORE PUSH1 0x20 ADD PUSH2 0x3331 PUSH3 0x11A1F PUSH8 0xDE0B6B3A7640000 PUSH2 0x40EB JUMP JUMPDEST DUP2 MSTORE PUSH1 0x20 ADD PUSH2 0x334B PUSH3 0x11A1F PUSH8 0xDE0B6B3A7640000 PUSH2 0x40EB JUMP JUMPDEST DUP2 MSTORE PUSH1 0x20 ADD PUSH2 0x3365 PUSH3 0x11A1F PUSH8 0xDE0B6B3A7640000 PUSH2 0x40EB JUMP JUMPDEST DUP2 MSTORE PUSH1 0x20 ADD PUSH2 0x337F PUSH3 0x11A1F PUSH8 0xDE0B6B3A7640000 PUSH2 0x40EB JUMP JUMPDEST DUP2 MSTORE PUSH1 0x20 ADD PUSH2 0x3399 PUSH3 0x11A1F PUSH8 0xDE0B6B3A7640000 PUSH2 0x40EB JUMP JUMPDEST DUP2 MSTORE PUSH1 0x20 ADD PUSH2 0x33B3 PUSH3 0x11A1F PUSH8 0xDE0B6B3A7640000 PUSH2 0x40EB JUMP JUMPDEST DUP2 MSTORE PUSH1 0x20 ADD PUSH2 0x33CD PUSH3 0x11A1F PUSH8 0xDE0B6B3A7640000 PUSH2 0x40EB JUMP JUMPDEST DUP2 MSTORE PUSH1 0x20 ADD PUSH2 0x33E7 PUSH3 0x11A1F PUSH8 0xDE0B6B3A7640000 PUSH2 0x40EB JUMP JUMPDEST DUP2 MSTORE PUSH1 0x20 ADD PUSH2 0x20F0 PUSH3 0x11A1F PUSH8 0xDE0B6B3A7640000 PUSH2 0x40EB JUMP JUMPDEST PUSH1 0x1 DUP2 SWAP1 SSTORE PUSH1 0x40 MLOAD DUP2 DUP2 MSTORE PUSH32 0xCFA4F4CF1CD64D13A167A8E75605E0C0C9D6700E903D17C5DC11F593254A04A9 SWAP1 PUSH1 0x20 ADD PUSH1 0x40 MLOAD DUP1 SWAP2 SUB SWAP1 LOG1 POP JUMP JUMPDEST PUSH2 0x3444 PUSH2 0x4272 JUMP JUMPDEST PUSH1 0x40 MLOAD DUP1 PUSH2 0x560 ADD PUSH1 0x40 MSTORE DUP1 PUSH1 0x0 DUP2 MSTORE PUSH1 0x20 ADD PUSH1 0x0 DUP2 MSTORE PUSH1 0x20 ADD PUSH1 0x0 DUP2 MSTORE PUSH1 0x20 ADD PUSH1 0x0 DUP2 MSTORE PUSH1 0x20 ADD PUSH1 0x0 DUP2 MSTORE PUSH1 0x20 ADD PUSH1 0x0 DUP2 MSTORE PUSH1 0x20 ADD PUSH1 0x0 DUP2 MSTORE PUSH1 0x20 ADD PUSH2 0x3495 PUSH8 0x4563918244F40000 PUSH2 0x1B51 PUSH2 0x1BDC JUMP JUMPDEST DUP2 MSTORE PUSH1 0x20 ADD PUSH2 0x34AE PUSH8 0x4563918244F40000 PUSH2 0x1B51 PUSH2 0x1BDC JUMP JUMPDEST DUP2 MSTORE PUSH1 0x20 ADD PUSH2 0x34C7 PUSH8 0x4563918244F40000 PUSH2 0x1B51 PUSH2 0x1BDC JUMP JUMPDEST DUP2 MSTORE PUSH1 0x20 ADD PUSH2 0x34E0 PUSH8 0x4563918244F40000 PUSH2 0x1B51 PUSH2 0x1BDC JUMP JUMPDEST DUP2 MSTORE PUSH1 0x20 ADD PUSH2 0x34F9 PUSH8 0x4563918244F40000 PUSH2 0x1B51 PUSH2 0x1BDC JUMP JUMPDEST DUP2 MSTORE PUSH1 0x20 ADD PUSH2 0x3512 PUSH8 0x4563918244F40000 PUSH2 0x1B51 PUSH2 0x1BDC JUMP JUMPDEST DUP2 MSTORE PUSH1 0x20 ADD PUSH2 0x352B PUSH8 0x4563918244F40000 PUSH2 0x1B51 PUSH2 0x1BDC JUMP JUMPDEST DUP2 MSTORE PUSH1 0x20 ADD PUSH2 0x3544 PUSH8 0x4563918244F40000 PUSH2 0x1B51 PUSH2 0x1BDC JUMP JUMPDEST DUP2 MSTORE PUSH1 0x20 ADD PUSH2 0x355D PUSH8 0x4563918244F40000 PUSH2 0x1B51 PUSH2 0x1BDC JUMP JUMPDEST DUP2 MSTORE PUSH1 0x20 ADD PUSH2 0x3576 PUSH8 0x4563918244F40000 PUSH2 0x1B51 PUSH2 0x1BDC JUMP JUMPDEST DUP2 MSTORE PUSH1 0x20 ADD PUSH2 0x358F PUSH8 0x4563918244F40000 PUSH2 0x1B51 PUSH2 0x1BDC JUMP JUMPDEST DUP2 MSTORE PUSH1 0x20 ADD PUSH2 0x35A8 PUSH8 0x4563918244F40000 PUSH2 0x1B51 PUSH2 0x1BDC JUMP JUMPDEST DUP2 MSTORE PUSH1 0x20 ADD PUSH2 0x35C1 PUSH8 0x4563918244F40000 PUSH2 0x1B51 PUSH2 0x1BDC JUMP JUMPDEST DUP2 MSTORE PUSH1 0x20 ADD PUSH2 0x35DA PUSH8 0x446AE0E136AD0000 PUSH2 0x1B51 PUSH2 0x1BDC JUMP JUMPDEST DUP2 MSTORE PUSH1 0x20 ADD PUSH1 0x0 DUP2 MSTORE PUSH1 0x20 ADD PUSH1 0x0 DUP2 MSTORE PUSH1 0x20 ADD PUSH1 0x0 DUP2 MSTORE PUSH1 0x20 ADD PUSH1 0x0 DUP2 MSTORE PUSH1 0x20 ADD PUSH1 0x0 DUP2 MSTORE PUSH1 0x20 ADD PUSH1 0x0 DUP2 MSTORE PUSH1 0x20 ADD PUSH1 0x0 DUP2 MSTORE PUSH1 0x20 ADD PUSH1 0x0 DUP2 MSTORE PUSH1 0x20 ADD PUSH1 0x0 DUP2 MSTORE PUSH1 0x20 ADD PUSH1 0x0 DUP2 MSTORE PUSH1 0x20 ADD PUSH1 0x0 DUP2 MSTORE PUSH1 0x20 ADD PUSH1 0x0 DUP2 MSTORE PUSH1 0x20 ADD PUSH1 0x0 DUP2 MSTORE PUSH1 0x20 ADD PUSH1 0x0 DUP2 MSTORE PUSH1 0x20 ADD PUSH1 0x0 DUP2 MSTORE PUSH1 0x20 ADD PUSH1 0x0 DUP2 MSTORE PUSH1 0x20 ADD PUSH1 0x0 DUP2 MSTORE PUSH1 0x20 ADD PUSH1 0x0 DUP2 MSTORE PUSH1 0x20 ADD PUSH1 0x0 DUP2 MSTORE PUSH1 0x20 ADD PUSH1 0x0 DUP2 MSTORE PUSH1 0x20 ADD PUSH1 0x0 DUP2 MSTORE PUSH1 0x20 ADD PUSH1 0x0 DUP2 MSTORE POP SWAP1 POP SWAP1 JUMP JUMPDEST PUSH2 0x3684 PUSH2 0x4272 JUMP JUMPDEST PUSH1 0x40 MLOAD DUP1 PUSH2 0x560 ADD PUSH1 0x40 MSTORE DUP1 PUSH2 0x36A5 PUSH3 0xF4240 PUSH8 0xDE0B6B3A7640000 PUSH2 0x40EB JUMP JUMPDEST DUP2 MSTORE PUSH1 0x20 ADD PUSH1 0x0 DUP2 MSTORE PUSH1 0x20 ADD PUSH1 0x0 DUP2 MSTORE PUSH1 0x20 ADD PUSH1 0x0 DUP2 MSTORE PUSH1 0x20 ADD PUSH2 0x36D4 PUSH3 0xF4240 PUSH8 0xDE0B6B3A7640000 PUSH2 0x40EB JUMP JUMPDEST DUP2 MSTORE PUSH1 0x20 ADD PUSH1 0x0 DUP2 MSTORE PUSH1 0x20 ADD PUSH1 0x0 DUP2 MSTORE PUSH1 0x20 ADD PUSH2 0x36FC PUSH3 0xF4240 PUSH8 0xDE0B6B3A7640000 PUSH2 0x40EB JUMP JUMPDEST DUP2 MSTORE PUSH1 0x20 ADD PUSH1 0x0 DUP2 MSTORE PUSH1 0x20 ADD PUSH1 0x0 DUP2 MSTORE PUSH1 0x20 ADD PUSH2 0x3724 PUSH3 0xF4240 PUSH8 0xDE0B6B3A7640000 PUSH2 0x40EB JUMP JUMPDEST DUP2 MSTORE PUSH1 0x20 ADD PUSH1 0x0 DUP2 MSTORE PUSH1 0x20 ADD PUSH1 0x0 DUP2 MSTORE PUSH1 0x20 ADD PUSH2 0x374C PUSH3 0x51615 PUSH8 0xDE0B6B3A7640000 PUSH2 0x40EB JUMP JUMPDEST DUP2 MSTORE PUSH1 0x20 ADD PUSH2 0x3766 PUSH3 0x51615 PUSH8 0xDE0B6B3A7640000 PUSH2 0x40EB JUMP JUMPDEST DUP2 MSTORE PUSH1 0x20 ADD PUSH2 0x3780 PUSH3 0x51615 PUSH8 0xDE0B6B3A7640000 PUSH2 0x40EB JUMP JUMPDEST DUP2 MSTORE PUSH1 0x20 ADD PUSH2 0x379A PUSH3 0x51615 PUSH8 0xDE0B6B3A7640000 PUSH2 0x40EB JUMP JUMPDEST DUP2 MSTORE PUSH1 0x20 ADD PUSH2 0x37B4 PUSH3 0x51615 PUSH8 0xDE0B6B3A7640000 PUSH2 0x40EB JUMP JUMPDEST DUP2 MSTORE PUSH1 0x20 ADD PUSH2 0x37CE PUSH3 0x51615 PUSH8 0xDE0B6B3A7640000 PUSH2 0x40EB JUMP JUMPDEST DUP2 MSTORE PUSH1 0x20 ADD PUSH2 0x37E8 PUSH3 0x51615 PUSH8 0xDE0B6B3A7640000 PUSH2 0x40EB JUMP JUMPDEST DUP2 MSTORE PUSH1 0x20 ADD PUSH2 0x3802 PUSH3 0x51615 PUSH8 0xDE0B6B3A7640000 PUSH2 0x40EB JUMP JUMPDEST DUP2 MSTORE PUSH1 0x20 ADD PUSH2 0x381C PUSH3 0x51615 PUSH8 0xDE0B6B3A7640000 PUSH2 0x40EB JUMP JUMPDEST DUP2 MSTORE PUSH1 0x20 ADD PUSH2 0x3836 PUSH3 0x51615 PUSH8 0xDE0B6B3A7640000 PUSH2 0x40EB JUMP JUMPDEST DUP2 MSTORE PUSH1 0x20 ADD PUSH2 0x3850 PUSH3 0x51615 PUSH8 0xDE0B6B3A7640000 PUSH2 0x40EB JUMP JUMPDEST DUP2 MSTORE PUSH1 0x20 ADD PUSH2 0x386A PUSH3 0x51615 PUSH8 0xDE0B6B3A7640000 PUSH2 0x40EB JUMP JUMPDEST DUP2 MSTORE PUSH1 0x20 ADD PUSH2 0x3884 PUSH3 0x51615 PUSH8 0xDE0B6B3A7640000 PUSH2 0x40EB JUMP JUMPDEST DUP2 MSTORE PUSH1 0x20 ADD PUSH2 0x389E PUSH3 0x51615 PUSH8 0xDE0B6B3A7640000 PUSH2 0x40EB JUMP JUMPDEST DUP2 MSTORE PUSH1 0x20 ADD PUSH2 0x38B8 PUSH3 0x51615 PUSH8 0xDE0B6B3A7640000 PUSH2 0x40EB JUMP JUMPDEST DUP2 MSTORE PUSH1 0x20 ADD PUSH2 0x38D2 PUSH3 0x51615 PUSH8 0xDE0B6B3A7640000 PUSH2 0x40EB JUMP JUMPDEST DUP2 MSTORE PUSH1 0x20 ADD PUSH2 0x38EC PUSH3 0x51615 PUSH8 0xDE0B6B3A7640000 PUSH2 0x40EB JUMP JUMPDEST DUP2 MSTORE PUSH1 0x20 ADD PUSH2 0x3906 PUSH3 0x51615 PUSH8 0xDE0B6B3A7640000 PUSH2 0x40EB JUMP JUMPDEST DUP2 MSTORE PUSH1 0x20 ADD PUSH2 0x3920 PUSH3 0x51615 PUSH8 0xDE0B6B3A7640000 PUSH2 0x40EB JUMP JUMPDEST DUP2 MSTORE PUSH1 0x20 ADD PUSH2 0x393A PUSH3 0x51615 PUSH8 0xDE0B6B3A7640000 PUSH2 0x40EB JUMP JUMPDEST DUP2 MSTORE PUSH1 0x20 ADD PUSH2 0x3954 PUSH3 0x51615 PUSH8 0xDE0B6B3A7640000 PUSH2 0x40EB JUMP JUMPDEST DUP2 MSTORE PUSH1 0x20 ADD PUSH2 0x396E PUSH3 0x51615 PUSH8 0xDE0B6B3A7640000 PUSH2 0x40EB JUMP JUMPDEST DUP2 MSTORE PUSH1 0x20 ADD PUSH2 0x3988 PUSH3 0x51615 PUSH8 0xDE0B6B3A7640000 PUSH2 0x40EB JUMP JUMPDEST DUP2 MSTORE PUSH1 0x20 ADD PUSH2 0x39A2 PUSH3 0x51615 PUSH8 0xDE0B6B3A7640000 PUSH2 0x40EB JUMP JUMPDEST DUP2 MSTORE PUSH1 0x20 ADD PUSH2 0x39BC PUSH3 0x51615 PUSH8 0xDE0B6B3A7640000 PUSH2 0x40EB JUMP JUMPDEST DUP2 MSTORE PUSH1 0x20 ADD PUSH2 0x39D6 PUSH3 0x51615 PUSH8 0xDE0B6B3A7640000 PUSH2 0x40EB JUMP JUMPDEST DUP2 MSTORE PUSH1 0x20 ADD PUSH2 0x39F0 PUSH3 0x51615 PUSH8 0xDE0B6B3A7640000 PUSH2 0x40EB JUMP JUMPDEST DUP2 MSTORE PUSH1 0x20 ADD PUSH2 0x3A0A PUSH3 0x51615 PUSH8 0xDE0B6B3A7640000 PUSH2 0x40EB JUMP JUMPDEST DUP2 MSTORE PUSH1 0x20 ADD PUSH2 0x3A24 PUSH3 0x51615 PUSH8 0xDE0B6B3A7640000 PUSH2 0x40EB JUMP JUMPDEST DUP2 MSTORE PUSH1 0x20 ADD PUSH2 0x20F0 PUSH3 0x51615 PUSH8 0xDE0B6B3A7640000 PUSH2 0x40EB JUMP JUMPDEST PUSH1 0x0 SLOAD PUSH1 0x1 PUSH1 0x1 PUSH1 0xA0 SHL SUB AND CALLER EQ PUSH2 0x3A68 JUMPI PUSH1 0x40 MLOAD PUSH3 0x461BCD PUSH1 0xE5 SHL DUP2 MSTORE PUSH1 0x4 ADD PUSH2 0x8E6 SWAP1 PUSH2 0x4513 JUMP JUMPDEST PUSH1 0x4 SLOAD TIMESTAMP LT ISZERO PUSH2 0x3A8A JUMPI PUSH1 0x40 MLOAD PUSH3 0x461BCD PUSH1 0xE5 SHL DUP2 MSTORE PUSH1 0x4 ADD PUSH2 0x8E6 SWAP1 PUSH2 0x4548 JUMP JUMPDEST DUP1 PUSH2 0x3AD1 JUMPI PUSH1 0x40 MLOAD PUSH3 0x461BCD PUSH1 0xE5 SHL DUP2 MSTORE PUSH1 0x20 PUSH1 0x4 DUP3 ADD MSTORE PUSH1 0x17 PUSH1 0x24 DUP3 ADD MSTORE PUSH23 0x416D6F756E74206D696E742063616E6E6F74206265203 PUSH1 0x4C SHL PUSH1 0x44 DUP3 ADD MSTORE PUSH1 0x64 ADD PUSH2 0x8E6 JUMP JUMPDEST ADDRESS PUSH1 0x0 SWAP1 DUP2 MSTORE PUSH1 0x5 PUSH1 0x20 MSTORE PUSH1 0x40 SWAP1 KECCAK256 SLOAD PUSH2 0x3AEB SWAP1 DUP3 PUSH2 0x1BEF JUMP JUMPDEST ADDRESS PUSH1 0x0 SWAP1 DUP2 MSTORE PUSH1 0x5 PUSH1 0x20 MSTORE PUSH1 0x40 SWAP1 KECCAK256 SSTORE PUSH1 0x9 SLOAD PUSH2 0x99B SWAP1 DUP3 PUSH2 0x1BEF JUMP JUMPDEST PUSH1 0x0 DUP3 PUSH1 0x20 ADD MLOAD PUSH1 0x0 EQ ISZERO PUSH2 0x3B1F JUMPI POP PUSH1 0x0 PUSH2 0x8B6 JUMP JUMPDEST PUSH11 0x52B7D2DCC80CD2E4000000 PUSH2 0x3B38 DUP5 PUSH1 0x40 ADD MLOAD PUSH2 0x416D JUMP JUMPDEST PUSH1 0x80 DUP6 ADD MLOAD PUSH2 0x3B47 SWAP1 DUP6 PUSH2 0x470B JUMP JUMPDEST PUSH2 0x3B51 SWAP2 SWAP1 PUSH2 0x470B JUMP JUMPDEST PUSH2 0x1BE8 SWAP2 SWAP1 PUSH2 0x46E9 JUMP JUMPDEST CALLER PUSH1 0x0 SWAP1 DUP2 MSTORE PUSH1 0x3 PUSH1 0x20 MSTORE PUSH1 0x40 DUP2 KECCAK256 SLOAD PUSH1 0x2 DUP1 SLOAD DUP4 SWAP3 SWAP2 DUP4 SWAP2 DUP4 SWAP1 DUP2 LT PUSH2 0x3B84 JUMPI PUSH2 0x3B84 PUSH2 0x46A6 JUMP JUMPDEST SWAP1 PUSH1 0x0 MSTORE PUSH1 0x20 PUSH1 0x0 KECCAK256 SWAP1 PUSH1 0x2 MUL ADD PUSH1 0x1 ADD DUP6 DUP2 SLOAD DUP2 LT PUSH2 0x3BA6 JUMPI PUSH2 0x3BA6 PUSH2 0x46A6 JUMP JUMPDEST PUSH1 0x0 SWAP2 DUP3 MSTORE PUSH1 0x20 SWAP2 DUP3 SWAP1 KECCAK256 PUSH1 0x40 DUP1 MLOAD PUSH1 0xC0 DUP2 ADD DUP3 MSTORE PUSH1 0x6 SWAP1 SWAP4 MUL SWAP1 SWAP2 ADD DUP1 SLOAD PUSH1 0x1 PUSH1 0x1 PUSH1 0xA0 SHL SUB AND DUP4 MSTORE PUSH1 0x1 DUP2 ADD SLOAD SWAP4 DUP4 ADD DUP5 SWAP1 MSTORE PUSH1 0x2 DUP2 ADD SLOAD SWAP2 DUP4 ADD SWAP2 SWAP1 SWAP2 MSTORE PUSH1 0x3 DUP2 ADD SLOAD PUSH1 0x60 DUP4 ADD MSTORE PUSH1 0x4 DUP2 ADD SLOAD PUSH1 0x80 DUP4 ADD MSTORE PUSH1 0x5 ADD SLOAD PUSH1 0xA0 DUP3 ADD MSTORE SWAP2 POP DUP7 GT ISZERO PUSH2 0x3C71 JUMPI PUSH1 0x40 MLOAD PUSH3 0x461BCD PUSH1 0xE5 SHL DUP2 MSTORE PUSH1 0x20 PUSH1 0x4 DUP3 ADD MSTORE PUSH1 0x33 PUSH1 0x24 DUP3 ADD MSTORE PUSH32 0x5374616B61626C653A2043616E6E6F74207769746864726177206D6F72652074 PUSH1 0x44 DUP3 ADD MSTORE PUSH19 0x1A185B881E5BDD481A185D99481CDD185AD959 PUSH1 0x6A SHL PUSH1 0x64 DUP3 ADD MSTORE PUSH1 0x84 ADD PUSH2 0x8E6 JUMP JUMPDEST PUSH1 0x0 PUSH2 0x3C7D DUP3 DUP9 PUSH2 0x3B08 JUMP JUMPDEST SWAP1 POP TIMESTAMP DUP3 PUSH1 0xA0 ADD MLOAD LT ISZERO PUSH2 0x3C98 JUMPI PUSH2 0x3C95 DUP8 DUP3 PUSH2 0x4202 JUMP JUMPDEST POP POP JUMPDEST PUSH1 0x0 DUP3 PUSH1 0x40 ADD MLOAD DUP4 PUSH1 0xA0 ADD MLOAD PUSH2 0x3CAE SWAP2 SWAP1 PUSH2 0x46BC JUMP JUMPDEST SWAP1 POP DUP8 DUP4 PUSH1 0x20 ADD MLOAD PUSH2 0x3CC0 SWAP2 SWAP1 PUSH2 0x46BC JUMP JUMPDEST PUSH1 0x20 DUP5 ADD DUP2 SWAP1 MSTORE PUSH2 0x3D42 JUMPI PUSH1 0x2 DUP5 DUP2 SLOAD DUP2 LT PUSH2 0x3CDE JUMPI PUSH2 0x3CDE PUSH2 0x46A6 JUMP JUMPDEST SWAP1 PUSH1 0x0 MSTORE PUSH1 0x20 PUSH1 0x0 KECCAK256 SWAP1 PUSH1 0x2 MUL ADD PUSH1 0x1 ADD DUP8 DUP2 SLOAD DUP2 LT PUSH2 0x3D00 JUMPI PUSH2 0x3D00 PUSH2 0x46A6 JUMP JUMPDEST PUSH1 0x0 SWAP2 DUP3 MSTORE PUSH1 0x20 DUP3 KECCAK256 PUSH1 0x6 SWAP1 SWAP2 MUL ADD DUP1 SLOAD PUSH1 0x1 PUSH1 0x1 PUSH1 0xA0 SHL SUB NOT AND DUP2 SSTORE PUSH1 0x1 DUP2 ADD DUP3 SWAP1 SSTORE PUSH1 0x2 DUP2 ADD DUP3 SWAP1 SSTORE PUSH1 0x3 DUP2 ADD DUP3 SWAP1 SSTORE PUSH1 0x4 DUP2 ADD DUP3 SWAP1 SSTORE PUSH1 0x5 ADD SSTORE PUSH2 0x3E30 JUMP JUMPDEST DUP3 PUSH1 0x20 ADD MLOAD PUSH1 0x2 DUP6 DUP2 SLOAD DUP2 LT PUSH2 0x3D5A JUMPI PUSH2 0x3D5A PUSH2 0x46A6 JUMP JUMPDEST SWAP1 PUSH1 0x0 MSTORE PUSH1 0x20 PUSH1 0x0 KECCAK256 SWAP1 PUSH1 0x2 MUL ADD PUSH1 0x1 ADD DUP9 DUP2 SLOAD DUP2 LT PUSH2 0x3D7C JUMPI PUSH2 0x3D7C PUSH2 0x46A6 JUMP JUMPDEST SWAP1 PUSH1 0x0 MSTORE PUSH1 0x20 PUSH1 0x0 KECCAK256 SWAP1 PUSH1 0x6 MUL ADD PUSH1 0x1 ADD DUP2 SWAP1 SSTORE POP TIMESTAMP PUSH1 0x2 DUP6 DUP2 SLOAD DUP2 LT PUSH2 0x3DA5 JUMPI PUSH2 0x3DA5 PUSH2 0x46A6 JUMP JUMPDEST SWAP1 PUSH1 0x0 MSTORE PUSH1 0x20 PUSH1 0x0 KECCAK256 SWAP1 PUSH1 0x2 MUL ADD PUSH1 0x1 ADD DUP9 DUP2 SLOAD DUP2 LT PUSH2 0x3DC7 JUMPI PUSH2 0x3DC7 PUSH2 0x46A6 JUMP JUMPDEST PUSH1 0x0 SWAP2 DUP3 MSTORE PUSH1 0x20 SWAP1 SWAP2 KECCAK256 PUSH1 0x2 PUSH1 0x6 SWAP1 SWAP3 MUL ADD ADD SSTORE PUSH2 0x3DE5 DUP2 TIMESTAMP PUSH2 0x45EF JUMP JUMPDEST PUSH1 0x2 DUP6 DUP2 SLOAD DUP2 LT PUSH2 0x3DF8 JUMPI PUSH2 0x3DF8 PUSH2 0x46A6 JUMP JUMPDEST SWAP1 PUSH1 0x0 MSTORE PUSH1 0x20 PUSH1 0x0 KECCAK256 SWAP1 PUSH1 0x2 MUL ADD PUSH1 0x1 ADD DUP9 DUP2 SLOAD DUP2 LT PUSH2 0x3E1A JUMPI PUSH2 0x3E1A PUSH2 0x46A6 JUMP JUMPDEST SWAP1 PUSH1 0x0 MSTORE PUSH1 0x20 PUSH1 0x0 KECCAK256 SWAP1 PUSH1 0x6 MUL ADD PUSH1 0x5 ADD DUP2 SWAP1 SSTORE POP JUMPDEST POP DUP7 SWAP5 POP SWAP3 POP POP POP JUMPDEST SWAP3 POP SWAP3 SWAP1 POP JUMP JUMPDEST PUSH1 0x1 PUSH1 0x1 PUSH1 0xA0 SHL SUB DUP3 AND PUSH2 0x3E96 JUMPI PUSH1 0x40 MLOAD PUSH3 0x461BCD PUSH1 0xE5 SHL DUP2 MSTORE PUSH1 0x20 PUSH1 0x4 DUP3 ADD DUP2 SWAP1 MSTORE PUSH1 0x24 DUP3 ADD MSTORE PUSH32 0x54616C6178546F6B656E3A206D696E7420746F207A65726F2061646472657373 PUSH1 0x44 DUP3 ADD MSTORE PUSH1 0x64 ADD PUSH2 0x8E6 JUMP JUMPDEST PUSH1 0x9 SLOAD PUSH2 0x3EA3 SWAP1 DUP3 PUSH2 0x1BEF JUMP JUMPDEST PUSH1 0x9 SSTORE PUSH1 0x1 PUSH1 0x1 PUSH1 0xA0 SHL SUB DUP3 AND PUSH1 0x0 SWAP1 DUP2 MSTORE PUSH1 0x5 PUSH1 0x20 MSTORE PUSH1 0x40 SWAP1 KECCAK256 SLOAD PUSH2 0x3EC9 SWAP1 DUP3 PUSH2 0x1BEF JUMP JUMPDEST PUSH1 0x1 PUSH1 0x1 PUSH1 0xA0 SHL SUB DUP4 AND PUSH1 0x0 DUP2 DUP2 MSTORE PUSH1 0x5 PUSH1 0x20 MSTORE PUSH1 0x40 DUP1 DUP3 KECCAK256 SWAP4 SWAP1 SWAP4 SSTORE SWAP2 MLOAD SWAP1 SWAP2 SWAP1 PUSH32 0xDDF252AD1BE2C89B69C2B068FC378DAA952BA7F163C4A11628F55A4DF523B3EF SWAP1 PUSH2 0x2C71 SWAP1 DUP6 DUP2 MSTORE PUSH1 0x20 ADD SWAP1 JUMP JUMPDEST CALLER PUSH1 0x0 SWAP1 DUP2 MSTORE PUSH1 0x3 PUSH1 0x20 MSTORE PUSH1 0x40 DUP2 KECCAK256 SLOAD PUSH1 0x2 DUP1 SLOAD DUP4 SWAP3 SWAP2 DUP4 SWAP2 DUP4 SWAP1 DUP2 LT PUSH2 0x3F43 JUMPI PUSH2 0x3F43 PUSH2 0x46A6 JUMP JUMPDEST SWAP1 PUSH1 0x0 MSTORE PUSH1 0x20 PUSH1 0x0 KECCAK256 SWAP1 PUSH1 0x2 MUL ADD PUSH1 0x1 ADD DUP6 DUP2 SLOAD DUP2 LT PUSH2 0x3F65 JUMPI PUSH2 0x3F65 PUSH2 0x46A6 JUMP JUMPDEST PUSH1 0x0 SWAP2 DUP3 MSTORE PUSH1 0x20 SWAP2 DUP3 SWAP1 KECCAK256 PUSH1 0x40 DUP1 MLOAD PUSH1 0xC0 DUP2 ADD DUP3 MSTORE PUSH1 0x6 SWAP1 SWAP4 MUL SWAP1 SWAP2 ADD DUP1 SLOAD PUSH1 0x1 PUSH1 0x1 PUSH1 0xA0 SHL SUB AND DUP4 MSTORE PUSH1 0x1 DUP2 ADD SLOAD SWAP4 DUP4 ADD DUP5 SWAP1 MSTORE PUSH1 0x2 DUP2 ADD SLOAD SWAP2 DUP4 ADD SWAP2 SWAP1 SWAP2 MSTORE PUSH1 0x3 DUP2 ADD SLOAD PUSH1 0x60 DUP4 ADD MSTORE PUSH1 0x4 DUP2 ADD SLOAD PUSH1 0x80 DUP4 ADD MSTORE PUSH1 0x5 ADD SLOAD PUSH1 0xA0 DUP3 ADD MSTORE SWAP2 POP PUSH2 0x4041 JUMPI PUSH1 0x40 MLOAD PUSH3 0x461BCD PUSH1 0xE5 SHL DUP2 MSTORE PUSH1 0x20 PUSH1 0x4 DUP3 ADD MSTORE PUSH1 0x41 PUSH1 0x24 DUP3 ADD MSTORE PUSH32 0x5374616B61626C653A2043616E6E6F742077697468647261772C20796F752064 PUSH1 0x44 DUP3 ADD MSTORE PUSH32 0x6F6E2774206861766520616E79207374616B6520696E207468697320496E6465 PUSH1 0x64 DUP3 ADD MSTORE PUSH1 0xF PUSH1 0xFB SHL PUSH1 0x84 DUP3 ADD MSTORE PUSH1 0xA4 ADD PUSH2 0x8E6 JUMP JUMPDEST PUSH1 0x20 DUP2 ADD MLOAD PUSH1 0x0 PUSH2 0x4052 DUP4 DUP4 PUSH2 0x3B08 JUMP JUMPDEST SWAP1 POP TIMESTAMP DUP4 PUSH1 0xA0 ADD MLOAD LT ISZERO PUSH2 0x406D JUMPI PUSH2 0x406A DUP3 DUP3 PUSH2 0x4202 JUMP JUMPDEST POP POP JUMPDEST PUSH1 0x2 DUP5 DUP2 SLOAD DUP2 LT PUSH2 0x4080 JUMPI PUSH2 0x4080 PUSH2 0x46A6 JUMP JUMPDEST SWAP1 PUSH1 0x0 MSTORE PUSH1 0x20 PUSH1 0x0 KECCAK256 SWAP1 PUSH1 0x2 MUL ADD PUSH1 0x1 ADD DUP8 DUP2 SLOAD DUP2 LT PUSH2 0x40A2 JUMPI PUSH2 0x40A2 PUSH2 0x46A6 JUMP JUMPDEST PUSH1 0x0 SWAP2 DUP3 MSTORE PUSH1 0x20 DUP3 KECCAK256 PUSH1 0x6 SWAP1 SWAP2 MUL ADD DUP1 SLOAD PUSH1 0x1 PUSH1 0x1 PUSH1 0xA0 SHL SUB NOT AND DUP2 SSTORE PUSH1 0x1 DUP2 ADD DUP3 SWAP1 SSTORE PUSH1 0x2 DUP2 ADD DUP3 SWAP1 SSTORE PUSH1 0x3 DUP2 ADD DUP3 SWAP1 SSTORE PUSH1 0x4 DUP2 ADD DUP3 SWAP1 SSTORE PUSH1 0x5 ADD SSTORE SWAP1 SWAP7 SWAP1 SWAP6 POP SWAP4 POP POP POP POP JUMP JUMPDEST PUSH1 0x0 PUSH2 0x1BE8 DUP3 DUP5 PUSH2 0x470B JUMP JUMPDEST PUSH1 0x2 DUP1 SLOAD PUSH1 0x1 SWAP1 DUP2 ADD DUP1 DUP4 SSTORE PUSH1 0x0 SWAP3 DUP4 MSTORE DUP3 SWAP2 PUSH2 0x4113 SWAP2 PUSH2 0x46BC JUMP JUMPDEST SWAP1 POP DUP3 PUSH1 0x2 DUP3 DUP2 SLOAD DUP2 LT PUSH2 0x4129 JUMPI PUSH2 0x4129 PUSH2 0x46A6 JUMP JUMPDEST PUSH1 0x0 SWAP2 DUP3 MSTORE PUSH1 0x20 DUP1 DUP4 KECCAK256 PUSH1 0x2 SWAP3 SWAP1 SWAP3 MUL SWAP1 SWAP2 ADD DUP1 SLOAD PUSH1 0x1 PUSH1 0x1 PUSH1 0xA0 SHL SUB NOT AND PUSH1 0x1 PUSH1 0x1 PUSH1 0xA0 SHL SUB SWAP5 DUP6 AND OR SWAP1 SSTORE SWAP5 SWAP1 SWAP2 AND DUP2 MSTORE PUSH1 0x3 SWAP1 SWAP4 MSTORE PUSH1 0x40 SWAP1 SWAP3 KECCAK256 DUP3 SWAP1 SSTORE POP SWAP1 JUMP JUMPDEST PUSH1 0x0 DUP1 DUP3 GT PUSH2 0x41BE JUMPI PUSH1 0x40 MLOAD PUSH3 0x461BCD PUSH1 0xE5 SHL DUP2 MSTORE PUSH1 0x20 PUSH1 0x4 DUP3 ADD MSTORE PUSH1 0x1B PUSH1 0x24 DUP3 ADD MSTORE PUSH32 0x5374616B61626C653A204572726F722074696D657374616D7020300000000000 PUSH1 0x44 DUP3 ADD MSTORE PUSH1 0x64 ADD PUSH2 0x8E6 JUMP JUMPDEST PUSH2 0x8B6 PUSH2 0x41CB DUP4 TIMESTAMP PUSH2 0x46BC JUMP JUMPDEST PUSH2 0x41DF SWAP1 PUSH10 0xD3C21BCECCEDA1000000 PUSH2 0x470B JUMP JUMPDEST PUSH4 0x1E13380 PUSH1 0x40 MLOAD DUP1 PUSH1 0x60 ADD PUSH1 0x40 MSTORE DUP1 PUSH1 0x27 DUP2 MSTORE PUSH1 0x20 ADD PUSH2 0x472B PUSH1 0x27 SWAP2 CODECOPY PUSH2 0x4238 JUMP JUMPDEST PUSH1 0x0 DUP1 DUP4 PUSH2 0x4215 JUMPI POP PUSH1 0x0 SWAP1 POP DUP1 PUSH2 0x3E39 JUMP JUMPDEST PUSH2 0x4221 DUP5 PUSH1 0x1 SLOAD PUSH2 0x40EB JUMP JUMPDEST PUSH2 0x422D DUP5 PUSH1 0x1 SLOAD PUSH2 0x40EB JUMP JUMPDEST SWAP2 POP SWAP2 POP SWAP3 POP SWAP3 SWAP1 POP JUMP JUMPDEST PUSH1 0x0 DUP2 DUP4 PUSH2 0x4259 JUMPI PUSH1 0x40 MLOAD PUSH3 0x461BCD PUSH1 0xE5 SHL DUP2 MSTORE PUSH1 0x4 ADD PUSH2 0x8E6 SWAP2 SWAP1 PUSH2 0x4291 JUMP JUMPDEST POP DUP3 DUP5 DUP2 PUSH2 0x4269 JUMPI PUSH2 0x4269 PUSH2 0x46D3 JUMP JUMPDEST DIV SWAP5 SWAP4 POP POP POP POP JUMP JUMPDEST PUSH1 0x40 MLOAD DUP1 PUSH2 0x560 ADD PUSH1 0x40 MSTORE DUP1 PUSH1 0x2B SWAP1 PUSH1 0x20 DUP3 MUL DUP1 CALLDATASIZE DUP4 CALLDATACOPY POP SWAP2 SWAP3 SWAP2 POP POP JUMP JUMPDEST PUSH1 0x0 PUSH1 0x20 DUP1 DUP4 MSTORE DUP4 MLOAD DUP1 DUP3 DUP6 ADD MSTORE PUSH1 0x0 JUMPDEST DUP2 DUP2 LT ISZERO PUSH2 0x42BE JUMPI DUP6 DUP2 ADD DUP4 ADD MLOAD DUP6 DUP3 ADD PUSH1 0x40 ADD MSTORE DUP3 ADD PUSH2 0x42A2 JUMP JUMPDEST DUP2 DUP2 GT ISZERO PUSH2 0x42D0 JUMPI PUSH1 0x0 PUSH1 0x40 DUP4 DUP8 ADD ADD MSTORE JUMPDEST POP PUSH1 0x1F ADD PUSH1 0x1F NOT AND SWAP3 SWAP1 SWAP3 ADD PUSH1 0x40 ADD SWAP4 SWAP3 POP POP POP JUMP JUMPDEST PUSH1 0x1 PUSH1 0x1 PUSH1 0xA0 SHL SUB DUP2 AND DUP2 EQ PUSH2 0x1B55 JUMPI PUSH1 0x0 DUP1 REVERT JUMPDEST PUSH1 0x0 DUP1 PUSH1 0x40 DUP4 DUP6 SUB SLT ISZERO PUSH2 0x430E JUMPI PUSH1 0x0 DUP1 REVERT JUMPDEST DUP3 CALLDATALOAD PUSH2 0x4319 DUP2 PUSH2 0x42E6 JUMP JUMPDEST SWAP5 PUSH1 0x20 SWAP4 SWAP1 SWAP4 ADD CALLDATALOAD SWAP4 POP POP POP JUMP JUMPDEST PUSH1 0x0 PUSH1 0x20 DUP3 DUP5 SUB SLT ISZERO PUSH2 0x4339 JUMPI PUSH1 0x0 DUP1 REVERT JUMPDEST POP CALLDATALOAD SWAP2 SWAP1 POP JUMP JUMPDEST PUSH1 0x0 DUP1 PUSH1 0x0 PUSH1 0x60 DUP5 DUP7 SUB SLT ISZERO PUSH2 0x4355 JUMPI PUSH1 0x0 DUP1 REVERT JUMPDEST DUP4 CALLDATALOAD PUSH2 0x4360 DUP2 PUSH2 0x42E6 JUMP JUMPDEST SWAP3 POP PUSH1 0x20 DUP5 ADD CALLDATALOAD PUSH2 0x4370 DUP2 PUSH2 0x42E6 JUMP JUMPDEST SWAP3 SWAP6 SWAP3 SWAP5 POP POP POP PUSH1 0x40 SWAP2 SWAP1 SWAP2 ADD CALLDATALOAD SWAP1 JUMP JUMPDEST PUSH1 0x0 DUP1 PUSH1 0x40 DUP4 DUP6 SUB SLT ISZERO PUSH2 0x4394 JUMPI PUSH1 0x0 DUP1 REVERT JUMPDEST DUP3 CALLDATALOAD SWAP2 POP PUSH1 0x20 DUP4 ADD CALLDATALOAD PUSH2 0x43A6 DUP2 PUSH2 0x42E6 JUMP JUMPDEST DUP1 SWAP2 POP POP SWAP3 POP SWAP3 SWAP1 POP JUMP JUMPDEST PUSH1 0x0 PUSH1 0x20 DUP3 DUP5 SUB SLT ISZERO PUSH2 0x43C3 JUMPI PUSH1 0x0 DUP1 REVERT JUMPDEST DUP2 CALLDATALOAD PUSH2 0x1BE8 DUP2 PUSH2 0x42E6 JUMP JUMPDEST PUSH1 0x0 DUP1 PUSH1 0x40 DUP4 DUP6 SUB SLT ISZERO PUSH2 0x43E1 JUMPI PUSH1 0x0 DUP1 REVERT JUMPDEST POP POP DUP1 CALLDATALOAD SWAP3 PUSH1 0x20 SWAP1 SWAP2 ADD CALLDATALOAD SWAP2 POP JUMP JUMPDEST PUSH1 0x0 PUSH1 0x20 DUP3 DUP5 SUB SLT ISZERO PUSH2 0x4402 JUMPI PUSH1 0x0 DUP1 REVERT JUMPDEST DUP2 CALLDATALOAD PUSH2 0xFFFF DUP2 AND DUP2 EQ PUSH2 0x1BE8 JUMPI PUSH1 0x0 DUP1 REVERT JUMPDEST PUSH1 0x0 PUSH1 0x20 DUP1 DUP4 MSTORE PUSH1 0x60 DUP1 DUP5 ADD DUP6 MLOAD DUP4 DUP7 ADD MSTORE DUP3 DUP7 ADD MLOAD PUSH1 0x40 DUP1 DUP2 DUP9 ADD MSTORE DUP3 DUP3 MLOAD DUP1 DUP6 MSTORE PUSH1 0x80 SWAP5 POP DUP5 DUP10 ADD SWAP2 POP DUP7 DUP5 ADD SWAP4 POP PUSH1 0x0 JUMPDEST DUP2 DUP2 LT ISZERO PUSH2 0x449B JUMPI DUP5 MLOAD DUP1 MLOAD PUSH1 0x1 PUSH1 0x1 PUSH1 0xA0 SHL SUB AND DUP5 MSTORE DUP9 DUP2 ADD MLOAD DUP10 DUP6 ADD MSTORE DUP5 DUP2 ADD MLOAD DUP6 DUP6 ADD MSTORE DUP8 DUP2 ADD MLOAD DUP9 DUP6 ADD MSTORE DUP7 DUP2 ADD MLOAD DUP8 DUP6 ADD MSTORE PUSH1 0xA0 SWAP1 DUP2 ADD MLOAD SWAP1 DUP5 ADD MSTORE SWAP4 DUP8 ADD SWAP4 PUSH1 0xC0 SWAP1 SWAP3 ADD SWAP2 PUSH1 0x1 ADD PUSH2 0x4448 JUMP JUMPDEST POP SWAP1 SWAP10 SWAP9 POP POP POP POP POP POP POP POP POP JUMP JUMPDEST PUSH1 0x0 DUP1 PUSH1 0x40 DUP4 DUP6 SUB SLT ISZERO PUSH2 0x44BD JUMPI PUSH1 0x0 DUP1 REVERT JUMPDEST DUP3 CALLDATALOAD PUSH2 0x44C8 DUP2 PUSH2 0x42E6 JUMP JUMPDEST SWAP2 POP PUSH1 0x20 DUP4 ADD CALLDATALOAD PUSH2 0x43A6 DUP2 PUSH2 0x42E6 JUMP JUMPDEST PUSH1 0x1 DUP2 DUP2 SHR SWAP1 DUP3 AND DUP1 PUSH2 0x44EC JUMPI PUSH1 0x7F DUP3 AND SWAP2 POP JUMPDEST PUSH1 0x20 DUP3 LT DUP2 EQ ISZERO PUSH2 0x450D JUMPI PUSH4 0x4E487B71 PUSH1 0xE0 SHL PUSH1 0x0 MSTORE PUSH1 0x22 PUSH1 0x4 MSTORE PUSH1 0x24 PUSH1 0x0 REVERT JUMPDEST POP SWAP2 SWAP1 POP JUMP JUMPDEST PUSH1 0x20 DUP1 DUP3 MSTORE DUP2 DUP2 ADD MSTORE PUSH32 0x4F776E61626C653A2063616C6C6572206973206E6F7420746865206F776E6572 PUSH1 0x40 DUP3 ADD MSTORE PUSH1 0x60 ADD SWAP1 JUMP JUMPDEST PUSH1 0x20 DUP1 DUP3 MSTORE PUSH1 0x65 SWAP1 DUP3 ADD MSTORE PUSH32 0x41646D696E6973747261746976652066756E6374696F6E732063616E6E6F7420 PUSH1 0x40 DUP3 ADD MSTORE PUSH32 0x62652063616C6C656420696E20746869732054696D654C6F636B20706572696F PUSH1 0x60 DUP3 ADD MSTORE PUSH32 0x642028343820686F757273292C20706C656173652074727920616761696E206C PUSH1 0x80 DUP3 ADD MSTORE PUSH5 0x30BA32B917 PUSH1 0xD9 SHL PUSH1 0xA0 DUP3 ADD MSTORE PUSH1 0xC0 ADD SWAP1 JUMP JUMPDEST PUSH4 0x4E487B71 PUSH1 0xE0 SHL PUSH1 0x0 MSTORE PUSH1 0x11 PUSH1 0x4 MSTORE PUSH1 0x24 PUSH1 0x0 REVERT JUMPDEST PUSH1 0x0 DUP3 NOT DUP3 GT ISZERO PUSH2 0x4602 JUMPI PUSH2 0x4602 PUSH2 0x45D9 JUMP JUMPDEST POP ADD SWAP1 JUMP JUMPDEST PUSH1 0x0 PUSH1 0x20 DUP3 DUP5 SUB SLT ISZERO PUSH2 0x4619 JUMPI PUSH1 0x0 DUP1 REVERT JUMPDEST DUP2 MLOAD PUSH2 0x1BE8 DUP2 PUSH2 0x42E6 JUMP JUMPDEST PUSH1 0x20 DUP1 DUP3 MSTORE PUSH1 0x1D SWAP1 DUP3 ADD MSTORE PUSH32 0x54616C6178546F6B656E3A2057616C6C6574204F776E6572204F6E6C79000000 PUSH1 0x40 DUP3 ADD MSTORE PUSH1 0x60 ADD SWAP1 JUMP JUMPDEST PUSH2 0x560 DUP2 ADD DUP2 DUP4 PUSH1 0x0 JUMPDEST PUSH1 0x2B DUP2 LT ISZERO PUSH2 0x4684 JUMPI DUP2 MLOAD DUP4 MSTORE PUSH1 0x20 SWAP3 DUP4 ADD SWAP3 SWAP1 SWAP2 ADD SWAP1 PUSH1 0x1 ADD PUSH2 0x4665 JUMP JUMPDEST POP POP POP SWAP3 SWAP2 POP POP JUMP JUMPDEST PUSH1 0x0 PUSH1 0x20 DUP3 DUP5 SUB SLT ISZERO PUSH2 0x469F JUMPI PUSH1 0x0 DUP1 REVERT JUMPDEST POP MLOAD SWAP2 SWAP1 POP JUMP JUMPDEST PUSH4 0x4E487B71 PUSH1 0xE0 SHL PUSH1 0x0 MSTORE PUSH1 0x32 PUSH1 0x4 MSTORE PUSH1 0x24 PUSH1 0x0 REVERT JUMPDEST PUSH1 0x0 DUP3 DUP3 LT ISZERO PUSH2 0x46CE JUMPI PUSH2 0x46CE PUSH2 0x45D9 JUMP JUMPDEST POP SUB SWAP1 JUMP JUMPDEST PUSH4 0x4E487B71 PUSH1 0xE0 SHL PUSH1 0x0 MSTORE PUSH1 0x12 PUSH1 0x4 MSTORE PUSH1 0x24 PUSH1 0x0 REVERT JUMPDEST PUSH1 0x0 DUP3 PUSH2 0x4706 JUMPI PUSH4 0x4E487B71 PUSH1 0xE0 SHL PUSH1 0x0 MSTORE PUSH1 0x12 PUSH1 0x4 MSTORE PUSH1 0x24 PUSH1 0x0 REVERT JUMPDEST POP DIV SWAP1 JUMP JUMPDEST PUSH1 0x0 DUP2 PUSH1 0x0 NOT DIV DUP4 GT DUP3 ISZERO ISZERO AND ISZERO PUSH2 0x4725 JUMPI PUSH2 0x4725 PUSH2 0x45D9 JUMP JUMPDEST POP MUL SWAP1 JUMP INVALID MSTORE8 PUSH21 0x616B61626C653A204572726F722063616E6E6F7420 PUSH5 0x6976696465 KECCAK256 PUSH21 0x696D657374616D7054616C6178546F6B656E3A2064 PUSH6 0x637265617365 PUSH5 0x20616C6C6F PUSH24 0x616E63652062656C6F77207A65726F54616C6178546F6B65 PUSH15 0x3A207472616E736665722065786365 PUSH6 0x64732062616C PUSH2 0x6E63 PUSH6 0x54616C617854 PUSH16 0x6B656E3A207472616E73666572206578 PUSH4 0x65656473 KECCAK256 PUSH2 0x6C6C PUSH16 0x77616E6365A2646970667358221220EB ADDRESS 0x4E BASEFEE 0x2C COINBASE DUP12 0x21 SWAP13 0xEC POP CALLER 0xED 0xE3 0xC9 0xAB RETURNDATASIZE PUSH7 0x24DAC5795BB90F 0x2D 0x5D 0x2D SHR PUSH28 0xA0BF64736F6C634300080B003360A060405234801561001057600080 REVERT JUMPDEST POP PUSH1 0x40 MLOAD PUSH2 0x599 CODESIZE SUB DUP1 PUSH2 0x599 DUP4 CODECOPY DUP2 ADD PUSH1 0x40 DUP2 SWAP1 MSTORE PUSH2 0x2F SWAP2 PUSH2 0xB3 JUMP JUMPDEST PUSH1 0x0 DUP3 GT PUSH2 0x98 JUMPI PUSH1 0x40 MLOAD PUSH3 0x461BCD PUSH1 0xE5 SHL DUP2 MSTORE PUSH1 0x20 PUSH1 0x4 DUP3 ADD MSTORE PUSH1 0x2C PUSH1 0x24 DUP3 ADD MSTORE PUSH32 0x546F6B656E54696D654C6F636B3A20416D6F756E74206D757374206772656174 PUSH1 0x44 DUP3 ADD MSTORE PUSH12 0x6572207468616E207A65726F PUSH1 0xA0 SHL PUSH1 0x64 DUP3 ADD MSTORE PUSH1 0x84 ADD PUSH1 0x40 MLOAD DUP1 SWAP2 SUB SWAP1 REVERT JUMPDEST PUSH1 0x0 SWAP2 SWAP1 SWAP2 SSTORE PUSH1 0x1 PUSH1 0x1 PUSH1 0xA0 SHL SUB AND PUSH1 0x80 MSTORE TIMESTAMP PUSH1 0x1 SSTORE PUSH2 0xF0 JUMP JUMPDEST PUSH1 0x0 DUP1 PUSH1 0x40 DUP4 DUP6 SUB SLT ISZERO PUSH2 0xC6 JUMPI PUSH1 0x0 DUP1 REVERT JUMPDEST DUP3 MLOAD PUSH1 0x20 DUP5 ADD MLOAD SWAP1 SWAP3 POP PUSH1 0x1 PUSH1 0x1 PUSH1 0xA0 SHL SUB DUP2 AND DUP2 EQ PUSH2 0xE5 JUMPI PUSH1 0x0 DUP1 REVERT JUMPDEST DUP1 SWAP2 POP POP SWAP3 POP SWAP3 SWAP1 POP JUMP JUMPDEST PUSH1 0x80 MLOAD PUSH2 0x48F PUSH2 0x10A PUSH1 0x0 CODECOPY PUSH1 0x0 PUSH1 0x53 ADD MSTORE PUSH2 0x48F PUSH1 0x0 RETURN INVALID PUSH1 0x80 PUSH1 0x40 MSTORE CALLVALUE DUP1 ISZERO PUSH2 0x10 JUMPI PUSH1 0x0 DUP1 REVERT JUMPDEST POP PUSH1 0x4 CALLDATASIZE LT PUSH2 0x41 JUMPI PUSH1 0x0 CALLDATALOAD PUSH1 0xE0 SHR DUP1 PUSH4 0x38AF3EED EQ PUSH2 0x46 JUMPI DUP1 PUSH4 0xAA8C217C EQ PUSH2 0x82 JUMPI DUP1 PUSH4 0xC8100DCC EQ PUSH2 0x94 JUMPI JUMPDEST PUSH1 0x0 DUP1 REVERT JUMPDEST PUSH1 0x40 MLOAD PUSH1 0x1 PUSH1 0x1 PUSH1 0xA0 SHL SUB PUSH32 0x0 AND DUP2 MSTORE PUSH1 0x20 ADD JUMPDEST PUSH1 0x40 MLOAD DUP1 SWAP2 SUB SWAP1 RETURN JUMPDEST PUSH1 0x0 SLOAD JUMPDEST PUSH1 0x40 MLOAD SWAP1 DUP2 MSTORE PUSH1 0x20 ADD PUSH2 0x79 JUMP JUMPDEST PUSH2 0x86 PUSH2 0xA2 CALLDATASIZE PUSH1 0x4 PUSH2 0x2A4 JUMP JUMPDEST PUSH1 0x0 DUP1 PUSH1 0x0 SLOAD GT PUSH2 0xFA JUMPI PUSH1 0x40 MLOAD PUSH3 0x461BCD PUSH1 0xE5 SHL DUP2 MSTORE PUSH1 0x20 PUSH1 0x4 DUP3 ADD MSTORE PUSH1 0x1D PUSH1 0x24 DUP3 ADD MSTORE PUSH32 0x546F6B656E54696D656C6F636B3A206E6F20746F6B656E73206C656674000000 PUSH1 0x44 DUP3 ADD MSTORE PUSH1 0x64 ADD JUMPDEST PUSH1 0x40 MLOAD DUP1 SWAP2 SUB SWAP1 REVERT JUMPDEST PUSH1 0x0 PUSH2 0x105 DUP4 PUSH2 0x191 JUMP JUMPDEST SWAP1 POP PUSH1 0x0 DUP2 GT PUSH2 0x163 JUMPI PUSH1 0x40 MLOAD PUSH3 0x461BCD PUSH1 0xE5 SHL DUP2 MSTORE PUSH1 0x20 PUSH1 0x4 DUP3 ADD MSTORE PUSH1 0x23 PUSH1 0x24 DUP3 ADD MSTORE PUSH32 0x546F6B656E54696D656C6F636B3A206E6F20746F6B656E7320746F2072656C65 PUSH1 0x44 DUP3 ADD MSTORE PUSH3 0x617365 PUSH1 0xE8 SHL PUSH1 0x64 DUP3 ADD MSTORE PUSH1 0x84 ADD PUSH2 0xF1 JUMP JUMPDEST PUSH2 0x188 PUSH1 0x0 SLOAD DUP3 PUSH1 0x40 MLOAD DUP1 PUSH1 0x60 ADD PUSH1 0x40 MSTORE DUP1 PUSH1 0x3B DUP2 MSTORE PUSH1 0x20 ADD PUSH2 0x41F PUSH1 0x3B SWAP2 CODECOPY PUSH2 0x26C JUMP JUMPDEST PUSH1 0x0 SSTORE SWAP3 SWAP2 POP POP JUMP JUMPDEST PUSH1 0x0 DUP1 PUSH3 0x278D00 PUSH1 0x1 SLOAD TIMESTAMP PUSH2 0x1A6 SWAP2 SWAP1 PUSH2 0x347 JUMP JUMPDEST PUSH2 0x1B0 SWAP2 SWAP1 PUSH2 0x35E JUMP JUMPDEST PUSH1 0x2 SLOAD SWAP1 SWAP2 POP PUSH1 0x0 SWAP1 JUMPDEST DUP3 DUP2 GT PUSH2 0x1F5 JUMPI PUSH2 0x1E1 DUP3 DUP7 DUP4 PUSH1 0x2B DUP2 LT PUSH2 0x1D7 JUMPI PUSH2 0x1D7 PUSH2 0x380 JUMP JUMPDEST PUSH1 0x20 MUL ADD MLOAD PUSH2 0x298 JUMP JUMPDEST SWAP2 POP DUP1 PUSH2 0x1ED DUP2 PUSH2 0x396 JUMP JUMPDEST SWAP2 POP POP PUSH2 0x1BA JUMP JUMPDEST POP PUSH2 0x201 DUP3 PUSH1 0x1 PUSH2 0x3B1 JUMP JUMPDEST PUSH1 0x2 SSTORE DUP1 PUSH2 0x265 JUMPI PUSH1 0x40 MLOAD PUSH3 0x461BCD PUSH1 0xE5 SHL DUP2 MSTORE PUSH1 0x20 PUSH1 0x4 DUP3 ADD MSTORE PUSH1 0x2B PUSH1 0x24 DUP3 ADD MSTORE PUSH32 0x546F6B656E54696D654C6F636B3A2054686572652773206E6F7468696E672074 PUSH1 0x44 DUP3 ADD MSTORE PUSH11 0x1BC818DB185A5B481E595D PUSH1 0xAA SHL PUSH1 0x64 DUP3 ADD MSTORE PUSH1 0x84 ADD PUSH2 0xF1 JUMP JUMPDEST SWAP4 SWAP3 POP POP POP JUMP JUMPDEST PUSH1 0x0 DUP2 DUP5 DUP5 GT ISZERO PUSH2 0x290 JUMPI PUSH1 0x40 MLOAD PUSH3 0x461BCD PUSH1 0xE5 SHL DUP2 MSTORE PUSH1 0x4 ADD PUSH2 0xF1 SWAP2 SWAP1 PUSH2 0x3C9 JUMP JUMPDEST POP POP POP SWAP1 SUB SWAP1 JUMP JUMPDEST PUSH1 0x0 PUSH2 0x265 DUP3 DUP5 PUSH2 0x3B1 JUMP JUMPDEST PUSH1 0x0 PUSH2 0x560 DUP1 DUP4 DUP6 SUB SLT ISZERO PUSH2 0x2B8 JUMPI PUSH1 0x0 DUP1 REVERT JUMPDEST DUP4 PUSH1 0x1F DUP5 ADD SLT PUSH2 0x2C7 JUMPI PUSH1 0x0 DUP1 REVERT JUMPDEST PUSH1 0x40 MLOAD DUP2 DUP2 ADD DUP2 DUP2 LT PUSH8 0xFFFFFFFFFFFFFFFF DUP3 GT OR ISZERO PUSH2 0x2F7 JUMPI PUSH4 0x4E487B71 PUSH1 0xE0 SHL PUSH1 0x0 MSTORE PUSH1 0x41 PUSH1 0x4 MSTORE PUSH1 0x24 PUSH1 0x0 REVERT JUMPDEST PUSH1 0x40 MSTORE SWAP1 DUP4 ADD SWAP1 DUP1 DUP6 DUP4 GT ISZERO PUSH2 0x30C JUMPI PUSH1 0x0 DUP1 REVERT JUMPDEST DUP5 JUMPDEST DUP4 DUP2 LT ISZERO PUSH2 0x326 JUMPI DUP1 CALLDATALOAD DUP3 MSTORE PUSH1 0x20 SWAP2 DUP3 ADD SWAP2 ADD PUSH2 0x30E JUMP JUMPDEST POP SWAP1 SWAP6 SWAP5 POP POP POP POP POP JUMP JUMPDEST PUSH4 0x4E487B71 PUSH1 0xE0 SHL PUSH1 0x0 MSTORE PUSH1 0x11 PUSH1 0x4 MSTORE PUSH1 0x24 PUSH1 0x0 REVERT JUMPDEST PUSH1 0x0 DUP3 DUP3 LT ISZERO PUSH2 0x359 JUMPI PUSH2 0x359 PUSH2 0x331 JUMP JUMPDEST POP SUB SWAP1 JUMP JUMPDEST PUSH1 0x0 DUP3 PUSH2 0x37B JUMPI PUSH4 0x4E487B71 PUSH1 0xE0 SHL PUSH1 0x0 MSTORE PUSH1 0x12 PUSH1 0x4 MSTORE PUSH1 0x24 PUSH1 0x0 REVERT JUMPDEST POP DIV SWAP1 JUMP JUMPDEST PUSH4 0x4E487B71 PUSH1 0xE0 SHL PUSH1 0x0 MSTORE PUSH1 0x32 PUSH1 0x4 MSTORE PUSH1 0x24 PUSH1 0x0 REVERT JUMPDEST PUSH1 0x0 PUSH1 0x0 NOT DUP3 EQ ISZERO PUSH2 0x3AA JUMPI PUSH2 0x3AA PUSH2 0x331 JUMP JUMPDEST POP PUSH1 0x1 ADD SWAP1 JUMP JUMPDEST PUSH1 0x0 DUP3 NOT DUP3 GT ISZERO PUSH2 0x3C4 JUMPI PUSH2 0x3C4 PUSH2 0x331 JUMP JUMPDEST POP ADD SWAP1 JUMP JUMPDEST PUSH1 0x0 PUSH1 0x20 DUP1 DUP4 MSTORE DUP4 MLOAD DUP1 DUP3 DUP6 ADD MSTORE PUSH1 0x0 JUMPDEST DUP2 DUP2 LT ISZERO PUSH2 0x3F6 JUMPI DUP6 DUP2 ADD DUP4 ADD MLOAD DUP6 DUP3 ADD PUSH1 0x40 ADD MSTORE DUP3 ADD PUSH2 0x3DA JUMP JUMPDEST DUP2 DUP2 GT ISZERO PUSH2 0x408 JUMPI PUSH1 0x0 PUSH1 0x40 DUP4 DUP8 ADD ADD MSTORE JUMPDEST POP PUSH1 0x1F ADD PUSH1 0x1F NOT AND SWAP3 SWAP1 SWAP3 ADD PUSH1 0x40 ADD SWAP4 SWAP3 POP POP POP JUMP INVALID SLOAD PUSH16 0x6B656E54696D654C6F636B3A2043616E PUSH15 0x6F742073756273747261637420746F PUSH21 0x616C20616D6F756E74207769746820636C61696D61 PUSH3 0x6C65A2 PUSH5 0x6970667358 0x22 SLT KECCAK256 PUSH18 0x76DD80A026102C7DE19190B6251A8280D0E9 DUP3 0xBC 0x5F KECCAK256 PUSH12 0x76B1F664C0CF8D0664736F6C PUSH4 0x4300080B STOP CALLER SLOAD PUSH2 0x6C61 PUSH25 0x546F6B656E3A2043616E6E6F74207472616E73666572206D6F PUSH19 0x65207468616E20746F74616C20737570706C79 "
		},
		"gasEstimates": {
			"creation": {
				"codeDepositCost": "3685400",
				"executionCost": "infinite",
				"totalCost": "infinite"
			},
			"external": {
				"": "infinite",
				"_stakingPackage(uint256)": "2571",
				"_taxFee()": "2447",
				"allowance(address,address)": "infinite",
				"approve(address,uint256)": "24660",
				"balanceOf(address)": "2621",
				"burnStakingReward(uint256)": "infinite",
				"changePenaltyFee(uint256)": "49901",
				"changeTaxFee(uint16)": "52481",
				"decimals()": "2374",
				"decreaseAllowance(address,uint256)": "infinite",
				"getOwner()": "2453",
				"hasStake(address)": "infinite",
				"increaseAllowance(address,uint256)": "27083",
				"liquidityReserveBalance()": "infinite",
				"mintLiquidityReserve(uint256)": "infinite",
				"mintStakingReward(uint256)": "infinite",
				"name()": "infinite",
				"owner()": "2399",
				"renounceOwnership()": "28226",
				"stake(uint256,uint256)": "infinite",
				"stakeSummary(address)": "infinite",
				"symbol()": "infinite",
				"testCalculateDuration(uint256,address)": "infinite",
				"thisAddress()": "279",
				"totalSupply()": "2416",
				"transfer(address,uint256)": "infinite",
				"transferFrom(address,address,uint256)": "infinite",
				"transferOwnership(address)": "infinite",
				"unlockDevPoolWallet_1()": "infinite",
				"unlockDevPoolWallet_2()": "infinite",
				"unlockDevPoolWallet_3()": "infinite",
				"unlockPrivatePlacementWallet()": "infinite",
				"unlockStrategicPartnerWallet_1()": "infinite",
				"unlockStrategicPartnerWallet_2()": "infinite",
				"unlockStrategicPartnerWallet_3()": "infinite",
				"unlockTeamAndProjectCoordinatorWallet_1()": "infinite",
				"unlockTeamAndProjectCoordinatorWallet_2()": "infinite",
				"unlockTeamAndProjectCoordinatorWallet_3()": "infinite",
				"withdrawAllStake(uint256)": "infinite",
				"withdrawStake(uint256,uint256)": "infinite"
			},
			"internal": {
				"_addThirdOfValue(uint256)": "infinite",
				"_approve(address,address,uint256)": "infinite",
				"_burn(address,uint256)": "infinite",
				"_mint(address,uint256)": "infinite",
				"_mintLiquidityReserve(uint256)": "infinite",
				"_transfer(address,address,uint256)": "infinite",
				"devPoolReleaseAmount()": "infinite",
				"devPoolReleaseAmountAlternate()": "infinite",
				"privatePlacementReleaseAmount()": "infinite",
				"strategicPartnerReleaseAmount()": "infinite",
				"strategicPartnerReleaseAmountAlternate()": "infinite",
				"teamAndProjectCoordinatorReleaseAmount()": "infinite",
				"teamAndProjectCoordinatorReleaseAmountAlternate()": "infinite",
				"toString(uint256)": "infinite"
			}
		},
		"methodIdentifiers": {
			"_stakingPackage(uint256)": "dda4add5",
			"_taxFee()": "3b124fe7",
			"allowance(address,address)": "dd62ed3e",
			"approve(address,uint256)": "095ea7b3",
			"balanceOf(address)": "70a08231",
			"burnStakingReward(uint256)": "0e1b09ed",
			"changePenaltyFee(uint256)": "8c63f97f",
			"changeTaxFee(uint16)": "8902cd70",
			"decimals()": "313ce567",
			"decreaseAllowance(address,uint256)": "a457c2d7",
			"getOwner()": "893d20e8",
			"hasStake(address)": "e73e14bf",
			"increaseAllowance(address,uint256)": "39509351",
			"liquidityReserveBalance()": "bea8e46b",
			"mintLiquidityReserve(uint256)": "d94d4ad6",
			"mintStakingReward(uint256)": "a169c515",
			"name()": "06fdde03",
			"owner()": "8da5cb5b",
			"renounceOwnership()": "715018a6",
			"stake(uint256,uint256)": "7b0472f0",
			"stakeSummary(address)": "b09d4b4e",
			"symbol()": "95d89b41",
			"testCalculateDuration(uint256,address)": "38920102",
			"thisAddress()": "d4dca69b",
			"totalSupply()": "18160ddd",
			"transfer(address,uint256)": "a9059cbb",
			"transferFrom(address,address,uint256)": "23b872dd",
			"transferOwnership(address)": "f2fde38b",
			"unlockDevPoolWallet_1()": "b8b18e89",
			"unlockDevPoolWallet_2()": "eb9f4ac7",
			"unlockDevPoolWallet_3()": "84f3996d",
			"unlockPrivatePlacementWallet()": "934851ec",
			"unlockStrategicPartnerWallet_1()": "8378a875",
			"unlockStrategicPartnerWallet_2()": "15441bb9",
			"unlockStrategicPartnerWallet_3()": "883d9984",
			"unlockTeamAndProjectCoordinatorWallet_1()": "56029137",
			"unlockTeamAndProjectCoordinatorWallet_2()": "90a4c709",
			"unlockTeamAndProjectCoordinatorWallet_3()": "3f3ef2dc",
			"withdrawAllStake(uint256)": "f729b00f",
			"withdrawStake(uint256,uint256)": "f1fdf469"
		}
	},
	"abi": [
		{
			"inputs": [],
			"stateMutability": "nonpayable",
			"type": "constructor"
		},
		{
			"anonymous": false,
			"inputs": [
				{
					"indexed": true,
					"internalType": "address",
					"name": "from",
					"type": "address"
				},
				{
					"indexed": true,
					"internalType": "address",
					"name": "who",
					"type": "address"
				}
			],
			"name": "AddPrivatePlacement",
			"type": "event"
		},
		{
			"anonymous": false,
			"inputs": [
				{
					"indexed": true,
					"internalType": "address",
					"name": "from",
					"type": "address"
				},
				{
					"indexed": true,
					"internalType": "address",
					"name": "who",
					"type": "address"
				}
			],
			"name": "AddStrategicPartner",
			"type": "event"
		},
		{
			"anonymous": false,
			"inputs": [
				{
					"indexed": true,
					"internalType": "address",
					"name": "owner",
					"type": "address"
				},
				{
					"indexed": true,
					"internalType": "address",
					"name": "spender",
					"type": "address"
				},
				{
					"indexed": false,
					"internalType": "uint256",
					"name": "value",
					"type": "uint256"
				}
			],
			"name": "Approval",
			"type": "event"
		},
		{
			"anonymous": false,
			"inputs": [
				{
					"indexed": true,
					"internalType": "address",
					"name": "who",
					"type": "address"
				},
				{
					"indexed": false,
					"internalType": "uint256",
					"name": "amount",
					"type": "uint256"
				}
			],
			"name": "ChangeTax",
			"type": "event"
		},
		{
			"anonymous": false,
			"inputs": [
				{
					"indexed": true,
					"internalType": "address",
					"name": "from",
					"type": "address"
				},
				{
					"indexed": true,
					"internalType": "address",
					"name": "who",
					"type": "address"
				}
			],
			"name": "DeletePrivatePlacement",
			"type": "event"
		},
		{
			"anonymous": false,
			"inputs": [
				{
					"indexed": true,
					"internalType": "address",
					"name": "from",
					"type": "address"
				},
				{
					"indexed": true,
					"internalType": "address",
					"name": "who",
					"type": "address"
				}
			],
			"name": "DeleteStrategicPartner",
			"type": "event"
		},
		{
			"anonymous": false,
			"inputs": [
				{
					"indexed": true,
					"internalType": "address",
					"name": "previousOwner",
					"type": "address"
				},
				{
					"indexed": true,
					"internalType": "address",
					"name": "newOwner",
					"type": "address"
				}
			],
			"name": "OwnershipTransferred",
			"type": "event"
		},
		{
			"anonymous": false,
			"inputs": [
				{
					"indexed": false,
					"internalType": "uint256",
					"name": "amount",
					"type": "uint256"
				}
			],
			"name": "PenaltyChanged",
			"type": "event"
		},
		{
			"anonymous": false,
			"inputs": [
				{
					"indexed": true,
					"internalType": "address",
					"name": "user",
					"type": "address"
				},
				{
					"indexed": false,
					"internalType": "uint256",
					"name": "amount",
					"type": "uint256"
				},
				{
					"indexed": false,
					"internalType": "uint256",
					"name": "index",
					"type": "uint256"
				},
				{
					"indexed": false,
					"internalType": "uint256",
					"name": "timestamp",
					"type": "uint256"
				},
				{
					"indexed": false,
					"internalType": "uint256",
					"name": "releaseTime",
					"type": "uint256"
				}
			],
			"name": "Staked",
			"type": "event"
		},
		{
			"anonymous": false,
			"inputs": [
				{
					"indexed": true,
					"internalType": "address",
					"name": "from",
					"type": "address"
				},
				{
					"indexed": true,
					"internalType": "address",
					"name": "to",
					"type": "address"
				},
				{
					"indexed": false,
					"internalType": "uint256",
					"name": "value",
					"type": "uint256"
				}
			],
			"name": "Transfer",
			"type": "event"
		},
		{
			"stateMutability": "payable",
			"type": "fallback"
		},
		{
			"inputs": [
				{
					"internalType": "uint256",
					"name": "",
					"type": "uint256"
				}
			],
			"name": "_stakingPackage",
			"outputs": [
				{
					"internalType": "uint256",
					"name": "",
					"type": "uint256"
				}
			],
			"stateMutability": "view",
			"type": "function"
		},
		{
			"inputs": [],
			"name": "_taxFee",
			"outputs": [
				{
					"internalType": "uint16",
					"name": "",
					"type": "uint16"
				}
			],
			"stateMutability": "view",
			"type": "function"
		},
		{
			"inputs": [
				{
					"internalType": "address",
					"name": "owner",
					"type": "address"
				},
				{
					"internalType": "address",
					"name": "spender",
					"type": "address"
				}
			],
			"name": "allowance",
			"outputs": [
				{
					"internalType": "uint256",
					"name": "",
					"type": "uint256"
				}
			],
			"stateMutability": "view",
			"type": "function"
		},
		{
			"inputs": [
				{
					"internalType": "address",
					"name": "spender",
					"type": "address"
				},
				{
					"internalType": "uint256",
					"name": "amount",
					"type": "uint256"
				}
			],
			"name": "approve",
			"outputs": [
				{
					"internalType": "bool",
					"name": "",
					"type": "bool"
				}
			],
			"stateMutability": "nonpayable",
			"type": "function"
		},
		{
			"inputs": [
				{
					"internalType": "address",
					"name": "account",
					"type": "address"
				}
			],
			"name": "balanceOf",
			"outputs": [
				{
					"internalType": "uint256",
					"name": "",
					"type": "uint256"
				}
			],
			"stateMutability": "view",
			"type": "function"
		},
		{
			"inputs": [
				{
					"internalType": "uint256",
					"name": "amount_",
					"type": "uint256"
				}
			],
			"name": "burnStakingReward",
			"outputs": [],
			"stateMutability": "nonpayable",
			"type": "function"
		},
		{
			"inputs": [
				{
					"internalType": "uint256",
					"name": "penaltyFee_",
					"type": "uint256"
				}
			],
			"name": "changePenaltyFee",
			"outputs": [],
			"stateMutability": "nonpayable",
			"type": "function"
		},
		{
			"inputs": [
				{
					"internalType": "uint16",
					"name": "taxFee_",
					"type": "uint16"
				}
			],
			"name": "changeTaxFee",
			"outputs": [],
			"stateMutability": "nonpayable",
			"type": "function"
		},
		{
			"inputs": [],
			"name": "decimals",
			"outputs": [
				{
					"internalType": "uint8",
					"name": "",
					"type": "uint8"
				}
			],
			"stateMutability": "view",
			"type": "function"
		},
		{
			"inputs": [
				{
					"internalType": "address",
					"name": "spender",
					"type": "address"
				},
				{
					"internalType": "uint256",
					"name": "subtractedValue",
					"type": "uint256"
				}
			],
			"name": "decreaseAllowance",
			"outputs": [
				{
					"internalType": "bool",
					"name": "",
					"type": "bool"
				}
			],
			"stateMutability": "nonpayable",
			"type": "function"
		},
		{
			"inputs": [],
			"name": "getOwner",
			"outputs": [
				{
					"internalType": "address",
					"name": "",
					"type": "address"
				}
			],
			"stateMutability": "view",
			"type": "function"
		},
		{
			"inputs": [
				{
					"internalType": "address",
					"name": "_staker",
					"type": "address"
				}
			],
			"name": "hasStake",
			"outputs": [
				{
					"components": [
						{
							"internalType": "uint256",
							"name": "total_amount",
							"type": "uint256"
						},
						{
							"components": [
								{
									"internalType": "address",
									"name": "user",
									"type": "address"
								},
								{
									"internalType": "uint256",
									"name": "amount",
									"type": "uint256"
								},
								{
									"internalType": "uint256",
									"name": "since",
									"type": "uint256"
								},
								{
									"internalType": "uint256",
									"name": "claimable",
									"type": "uint256"
								},
								{
									"internalType": "uint256",
									"name": "rewardAPY",
									"type": "uint256"
								},
								{
									"internalType": "uint256",
									"name": "releaseTime",
									"type": "uint256"
								}
							],
							"internalType": "struct Stakable.Stake[]",
							"name": "stakes",
							"type": "tuple[]"
						}
					],
					"internalType": "struct Stakable.StakingSummary",
					"name": "",
					"type": "tuple"
				}
			],
			"stateMutability": "view",
			"type": "function"
		},
		{
			"inputs": [
				{
					"internalType": "address",
					"name": "spender",
					"type": "address"
				},
				{
					"internalType": "uint256",
					"name": "addedValue",
					"type": "uint256"
				}
			],
			"name": "increaseAllowance",
			"outputs": [
				{
					"internalType": "bool",
					"name": "",
					"type": "bool"
				}
			],
			"stateMutability": "nonpayable",
			"type": "function"
		},
		{
			"inputs": [],
			"name": "liquidityReserveBalance",
			"outputs": [
				{
					"internalType": "uint256",
					"name": "",
					"type": "uint256"
				}
			],
			"stateMutability": "view",
			"type": "function"
		},
		{
			"inputs": [
				{
					"internalType": "uint256",
					"name": "amount_",
					"type": "uint256"
				}
			],
			"name": "mintLiquidityReserve",
			"outputs": [],
			"stateMutability": "nonpayable",
			"type": "function"
		},
		{
			"inputs": [
				{
					"internalType": "uint256",
					"name": "amount_",
					"type": "uint256"
				}
			],
			"name": "mintStakingReward",
			"outputs": [],
			"stateMutability": "nonpayable",
			"type": "function"
		},
		{
			"inputs": [],
			"name": "name",
			"outputs": [
				{
					"internalType": "string",
					"name": "",
					"type": "string"
				}
			],
			"stateMutability": "view",
			"type": "function"
		},
		{
			"inputs": [],
			"name": "owner",
			"outputs": [
				{
					"internalType": "address",
					"name": "",
					"type": "address"
				}
			],
			"stateMutability": "view",
			"type": "function"
		},
		{
			"inputs": [],
			"name": "renounceOwnership",
			"outputs": [],
			"stateMutability": "nonpayable",
			"type": "function"
		},
		{
			"inputs": [
				{
					"internalType": "uint256",
					"name": "_amount",
					"type": "uint256"
				},
				{
					"internalType": "uint256",
					"name": "_stakePeriod",
					"type": "uint256"
				}
			],
			"name": "stake",
			"outputs": [],
			"stateMutability": "nonpayable",
			"type": "function"
		},
		{
			"inputs": [
				{
					"internalType": "address",
					"name": "user_",
					"type": "address"
				}
			],
			"name": "stakeSummary",
			"outputs": [
				{
					"components": [
						{
							"internalType": "uint256",
							"name": "total_amount",
							"type": "uint256"
						},
						{
							"components": [
								{
									"internalType": "address",
									"name": "user",
									"type": "address"
								},
								{
									"internalType": "uint256",
									"name": "amount",
									"type": "uint256"
								},
								{
									"internalType": "uint256",
									"name": "since",
									"type": "uint256"
								},
								{
									"internalType": "uint256",
									"name": "claimable",
									"type": "uint256"
								},
								{
									"internalType": "uint256",
									"name": "rewardAPY",
									"type": "uint256"
								},
								{
									"internalType": "uint256",
									"name": "releaseTime",
									"type": "uint256"
								}
							],
							"internalType": "struct Stakable.Stake[]",
							"name": "stakes",
							"type": "tuple[]"
						}
					],
					"internalType": "struct Stakable.StakingSummary",
					"name": "",
					"type": "tuple"
				}
			],
			"stateMutability": "view",
			"type": "function"
		},
		{
			"inputs": [],
			"name": "symbol",
			"outputs": [
				{
					"internalType": "string",
					"name": "",
					"type": "string"
				}
			],
			"stateMutability": "view",
			"type": "function"
		},
		{
			"inputs": [
				{
					"internalType": "uint256",
					"name": "index_",
					"type": "uint256"
				},
				{
					"internalType": "address",
					"name": "user_",
					"type": "address"
				}
			],
			"name": "testCalculateDuration",
			"outputs": [
				{
					"internalType": "uint256",
					"name": "",
					"type": "uint256"
				}
			],
			"stateMutability": "view",
			"type": "function"
		},
		{
			"inputs": [],
			"name": "thisAddress",
			"outputs": [
				{
					"internalType": "address",
					"name": "",
					"type": "address"
				}
			],
			"stateMutability": "view",
			"type": "function"
		},
		{
			"inputs": [],
			"name": "totalSupply",
			"outputs": [
				{
					"internalType": "uint256",
					"name": "",
					"type": "uint256"
				}
			],
			"stateMutability": "view",
			"type": "function"
		},
		{
			"inputs": [
				{
					"internalType": "address",
					"name": "recipient",
					"type": "address"
				},
				{
					"internalType": "uint256",
					"name": "amount",
					"type": "uint256"
				}
			],
			"name": "transfer",
			"outputs": [
				{
					"internalType": "bool",
					"name": "",
					"type": "bool"
				}
			],
			"stateMutability": "nonpayable",
			"type": "function"
		},
		{
			"inputs": [
				{
					"internalType": "address",
					"name": "sender",
					"type": "address"
				},
				{
					"internalType": "address",
					"name": "recipient",
					"type": "address"
				},
				{
					"internalType": "uint256",
					"name": "amount",
					"type": "uint256"
				}
			],
			"name": "transferFrom",
			"outputs": [
				{
					"internalType": "bool",
					"name": "",
					"type": "bool"
				}
			],
			"stateMutability": "nonpayable",
			"type": "function"
		},
		{
			"inputs": [
				{
					"internalType": "address",
					"name": "newOwner",
					"type": "address"
				}
			],
			"name": "transferOwnership",
			"outputs": [],
			"stateMutability": "nonpayable",
			"type": "function"
		},
		{
			"inputs": [],
			"name": "unlockDevPoolWallet_1",
			"outputs": [],
			"stateMutability": "nonpayable",
			"type": "function"
		},
		{
			"inputs": [],
			"name": "unlockDevPoolWallet_2",
			"outputs": [],
			"stateMutability": "nonpayable",
			"type": "function"
		},
		{
			"inputs": [],
			"name": "unlockDevPoolWallet_3",
			"outputs": [],
			"stateMutability": "nonpayable",
			"type": "function"
		},
		{
			"inputs": [],
			"name": "unlockPrivatePlacementWallet",
			"outputs": [],
			"stateMutability": "nonpayable",
			"type": "function"
		},
		{
			"inputs": [],
			"name": "unlockStrategicPartnerWallet_1",
			"outputs": [],
			"stateMutability": "nonpayable",
			"type": "function"
		},
		{
			"inputs": [],
			"name": "unlockStrategicPartnerWallet_2",
			"outputs": [],
			"stateMutability": "nonpayable",
			"type": "function"
		},
		{
			"inputs": [],
			"name": "unlockStrategicPartnerWallet_3",
			"outputs": [],
			"stateMutability": "nonpayable",
			"type": "function"
		},
		{
			"inputs": [],
			"name": "unlockTeamAndProjectCoordinatorWallet_1",
			"outputs": [],
			"stateMutability": "nonpayable",
			"type": "function"
		},
		{
			"inputs": [],
			"name": "unlockTeamAndProjectCoordinatorWallet_2",
			"outputs": [],
			"stateMutability": "nonpayable",
			"type": "function"
		},
		{
			"inputs": [],
			"name": "unlockTeamAndProjectCoordinatorWallet_3",
			"outputs": [],
			"stateMutability": "nonpayable",
			"type": "function"
		},
		{
			"inputs": [
				{
					"internalType": "uint256",
					"name": "stake_index",
					"type": "uint256"
				}
			],
			"name": "withdrawAllStake",
			"outputs": [],
			"stateMutability": "nonpayable",
			"type": "function"
		},
		{
			"inputs": [
				{
					"internalType": "uint256",
					"name": "amount",
					"type": "uint256"
				},
				{
					"internalType": "uint256",
					"name": "stake_index",
					"type": "uint256"
				}
			],
			"name": "withdrawStake",
			"outputs": [],
			"stateMutability": "nonpayable",
			"type": "function"
		},
		{
			"stateMutability": "payable",
			"type": "receive"
		}
	]
}