{
	"data": {
		"bytecode": {
			"linkReferences": {},
			"object": "60806040523480156200001157600080fd5b506001805480820182557fb10e2d527612073b26eecdfd717e6a320cf44b4afac2b0732d9fcbe2b7fa0cf60180546001600160a01b03191633908117909155600090815260056020908152604080832084905560098054909401845592909152815180830190925260088083526754414c415845554d60c01b929091019182526200009f916012916200134d565b50604080518082019091526005808252640a8829882b60db1b6020909201918252620000ce916011916200134d565b506010805460ff191660121790556aadb53acfa41aee12000000600f55601880546001818101835560008390527fb13d2d76d1f4b7be834882e410b3e3a8afaf69f83600ae24db354391d2378d2e91820180546001600160a01b0319908116737537116370d3261e17819347c84fb502ee3de5681790915583548083018555830180548216737b0956ac989a3bf2e29bb884e07a09fcb2f6639417905583549182018455910180548216735cd00c0ef965ab4a1abc225d7fb5379584c79c50179055601980548216735470c8ff25ec05980fc7c2967d076b8012298fe7179055601a805482167375837e79215250c45331b92c35b7be506ed015ac179055601b805482167307a20dc6722563783e44ba8edca08c774621125e179055601c8054821673f09f65dd4d229e991901669ad7c7549f060e30b9179055601d80548216731a2118e056d6af192e233c2c9cfb34e067ded1f8179055601e8054821673126974fa373267d86fab6d6871afe62ccb68e810179055601f80548216732f838cf0df38b2e91e747a01ddae5ebad5558b7a1790556020805482167345094071c4daaf6a9a73b0a0f095a2b138bd8a3a17815560218054831673aeb26fb84d0e2b3b353cd50f0a29fd40c916d2ab17905560228054831673e61e7a7d16db384433e532fb85724e7f3bdaae2f17905560238054831673406605eb24a97a2d61b516d8d850f2aefa6a731a179055602480549092167397620deadc98bc8173303686037ce7b986cf53c317909155815460408051828402810184019091528181526200035e9390929091908301828280156200035257602002820191906000526020600020905b81546001600160a01b0316815260019091019060200180831162000333575b505062000acf92505050565b6a0e7cbbd7aa8310ae400000601355306000908152600b602090815260408083206a2b6d4eb3e906bb8480000090556019546001600160a01b0390811684528184206a22bdd88fed9efc6a00000090819055601a549091168452928190206a05c8d34a23da1650a0000090558051606081019091526032808252620003fe93926200733c90830139600f5462000e8160201b62002309179092919060201c565b600f81905550620004466a05c8d34a23da1650a000006040518060600160405280603281526020016200733c60329139600f5462000e8160201b62002309179092919060201c565b600f819055506200048e6a05c8d34a23da1650a000006040518060600160405280603281526020016200733c60329139600f5462000e8160201b62002309179092919060201c565b600f81905550620004cd6013546040518060600160405280603281526020016200733c60329139600f5462000e8160201b62002309179092919060201c565b600f55601b546040516a05c8d34a23da1650a00000916001600160a01b031690620004f890620013dc565b9182526001600160a01b03166020820152604001604051809103906000f08015801562000529573d6000803e3d6000fd5b50602580546001600160a01b0319166001600160a01b03928316179055601c546040516a0b949d854f34fece0000009291909116906200056990620013dc565b9182526001600160a01b03166020820152604001604051809103906000f0801580156200059a573d6000803e3d6000fd5b50602680546001600160a01b0319166001600160a01b03928316179055601d546040516a0b949d854f34fece000000929190911690620005da90620013dc565b9182526001600160a01b03166020820152604001604051809103906000f0801580156200060b573d6000803e3d6000fd5b50602780546001600160a01b0319166001600160a01b03928316179055601e546040516a0b949d854f34fece0000009291909116906200064b90620013dc565b9182526001600160a01b03166020820152604001604051809103906000f0801580156200067c573d6000803e3d6000fd5b50602880546001600160a01b0319166001600160a01b03928316179055601f546040516a02e5276153cd3fb3800000929190911690620006bc90620013dc565b9182526001600160a01b03166020820152604001604051809103906000f080158015620006ed573d6000803e3d6000fd5b50602980546001600160a01b0319166001600160a01b039283161790556020546040516a02e5276153cd3fb38000009291909116906200072d90620013dc565b9182526001600160a01b03166020820152604001604051809103906000f0801580156200075e573d6000803e3d6000fd5b50602a80546001600160a01b0319166001600160a01b039283161790556021546040516a02e5276153cd3fb38000009291909116906200079e90620013dc565b9182526001600160a01b03166020820152604001604051809103906000f080158015620007cf573d6000803e3d6000fd5b50602b80546001600160a01b0319166001600160a01b039283161790556022546040516a08af7623fb67bf1a8000009291909116906200080f90620013dc565b9182526001600160a01b03166020820152604001604051809103906000f08015801562000840573d6000803e3d6000fd5b50602c80546001600160a01b0319166001600160a01b039283161790556023546040516a08af7623fb67bf1a8000009291909116906200088090620013dc565b9182526001600160a01b03166020820152604001604051809103906000f080158015620008b1573d6000803e3d6000fd5b50602d80546001600160a01b0319166001600160a01b039283161790556024546040516a08af7623fb67bf1a800000929190911690620008f190620013dc565b9182526001600160a01b03166020820152604001604051809103906000f08015801562000922573d6000803e3d6000fd5b50602e60006101000a8154816001600160a01b0302191690836001600160a01b031602179055506200098b6a22bdd88fed9efc6a0000006040518060600160405280603281526020016200733c60329139600f5462000e8160201b62002309179092919060201c565b600f81905550620009d36a08af7623fb67bf1a8000006040518060600160405280603281526020016200733c60329139600f5462000e8160201b62002309179092919060201c565b600f8190555062000a1b6a1a0e626bf2373d4f8000006040518060600160405280603281526020016200733c60329139600f5462000e8160201b62002309179092919060201c565b600f55600e805461ffff19166001179055600d60205260057fb5d828e80c396d3badd29bcf8358cfe154d524805c56b23c27577b2f19d464895560067fae2635022f4ff726246bbb086e3f5a63c5f54504807a8668aeff811a8c8fc3f15560077fa649de24bb786ae7f0e2b3f43c2d9a6aba6eccd959d4742e69795de968dbf8f3556301e1338060005260087f19ba0c7e0e93fec8ea1a23d3c3b239dd59e1afb12ccab7facab51180087de8e55562001747565b60015462000add9062000eb0565b1562000e7e576003546001600160a01b031615801562000b1057600380546001600160a01b031916331790556001546004555b600082511162000b675760405162461bcd60e51b815260206004820152602860248201526000805160206200736e833981519152604482015267697320656d70747960c01b60648201526084015b60405180910390fd5b6101008251111562000be25760405162461bcd60e51b815260206004820152603360248201527f7472616e736665724f776e6572736869703a206f776e65727320636f756e742060448201527f69732067726561746572207468656e2032353600000000000000000000000000606482015260840162000b5e565b60005b60015481101562000c4457600560006001838154811062000c0a5762000c0a62001474565b60009182526020808320909101546001600160a01b031683528201929092526040018120558062000c3b81620014a0565b91505062000be5565b5060005b825181101562000de85760006001600160a01b031683828151811062000c725762000c7262001474565b60200260200101516001600160a01b0316141562000cd85760405162461bcd60e51b815260206004820152602d60248201526000805160206200736e83398151915260448201526c636f6e7461696e73207a65726f60981b606482015260840162000b5e565b6005600084838151811062000cf15762000cf162001474565b60200260200101516001600160a01b03166001600160a01b031681526020019081526020016000205460001462000d805760405162461bcd60e51b815260206004820152603360248201526000805160206200736e83398151915260448201527f636f6e7461696e73206475706c69636174657300000000000000000000000000606482015260840162000b5e565b62000d8d816001620014be565b6005600085848151811062000da65762000da662001474565b60200260200101516001600160a01b03166001600160a01b0316815260200190815260200160002081905550808062000ddf90620014a0565b91505062000c48565b507fe62c04bb3499d4f432a50e07318d42861c4865afb22ee4cfe403d4f94550709060018360405162000e1d929190620014d9565b60405180910390a1815162000e3a906001906020850190620013ea565b5062000e496002600062001442565b60008054908062000e5a83620014a0565b9190505550801562000e7c57600380546001600160a01b031916905560006004555b505b50565b6000818484111562000ea85760405162461bcd60e51b815260040162000b5e919062001572565b505050900390565b6003546000906001600160a01b031633141562000f575760045482111562000f4f5760405162461bcd60e51b8152602060048201526044602482018190527f636865636b486f774d616e794f776e6572733a206e6573746564206f776e6572908201527f73206d6f64696669657220636865636b2072657175697265206d6f7265206f776064820152636e65727360e01b608482015260a40162000b5e565b506001919050565b33600090815260056020526040902054151560011462000fd15760405162461bcd60e51b815260206004820152602e60248201527f636865636b486f774d616e794f776e6572733a206d73672e73656e646572206960448201526d39903737ba1030b71037bbb732b960911b606482015260840162000b5e565b3360009081526005602052604081205462000fef90600190620015ca565b9050600080366000546040516020016200100c93929190620015e4565b604051602081830303815290604052805190602001209050816002620010339190620016f5565b6000828152600760205260409020541615620010b85760405162461bcd60e51b815260206004820152603960248201527f636865636b486f774d616e794f776e6572733a206f776e657220616c7265616460448201527f7920766f74656420666f7220746865206f7065726174696f6e00000000000000606482015260840162000b5e565b620010c5826002620016f5565b600082815260076020908152604080832080549094179093556008905290812054620010f3906001620014be565b6000838152600860205260409020819055905060018114156200119e5760028054600084815260066020908152604080832084905560018085018655949092527f405787fa12a823e0f2b7631cc41b3ba8828b3321ca811111fa75cd3aa3bb5ace909201859055915482518581529182018890528183015233606082015290517f6bab0114f9524353d2d33e64edd3ebbd16e21edd57de2226ba76c310a7ce22659181900360800190a15b60015460408051848152602081018490528082018890526060810192909252336080830152517f8dd9582c6577aea81973b5adeb6c135f6e18565d99578b7ba0c9377437ec02219181900360a00190a1600082815260086020526040902054851415620012645762001210826200126f565b600154604080518481526020810188905280820192909252336060830152517f8a11c8ca99994c292318ce367f65bf6ff61d390bc814b3588496f6fbcc32807a9181900360800190a1506001949350505050565b506000949350505050565b6000818152600660205260409020546002546200128f90600190620015ca565b811015620013245760028054620012a990600190620015ca565b81548110620012bc57620012bc62001474565b906000526020600020015460028281548110620012dd57620012dd62001474565b906000526020600020018190555080600660006002848154811062001306576200130662001474565b90600052602060002001548152602001908152602001600020819055505b506000908152600760209081526040808320839055600882528083208390556006909152812055565b8280546200135b906200170a565b90600052602060002090601f0160209004810192826200137f5760008555620013ca565b82601f106200139a57805160ff1916838001178555620013ca565b82800160010185558215620013ca579182015b82811115620013ca578251825591602001919060010190620013ad565b50620013d89291506200145d565b5090565b6105998062006da383390190565b828054828255906000526020600020908101928215620013ca579160200282015b82811115620013ca57825182546001600160a01b0319166001600160a01b039091161782556020909201916001909101906200140b565b508054600082559060005260206000209081019062000e7e91905b5b80821115620013d857600081556001016200145e565b634e487b7160e01b600052603260045260246000fd5b634e487b7160e01b600052601160045260246000fd5b6000600019821415620014b757620014b76200148a565b5060010190565b60008219821115620014d457620014d46200148a565b500190565b6000604082016040835280855480835260608501915086600052602092508260002060005b82811015620015255781546001600160a01b031684529284019260019182019101620014fe565b5050508381038285015284518082528583019183019060005b81811015620015655783516001600160a01b0316835292840192918401916001016200153e565b5090979650505050505050565b600060208083528351808285015260005b81811015620015a15785810183015185820160400152820162001583565b81811115620015b4576000604083870101525b50601f01601f1916929092016040019392505050565b600082821015620015df57620015df6200148a565b500390565b82848237909101908152602001919050565b600181815b80851115620016375781600019048211156200161b576200161b6200148a565b808516156200162957918102915b93841c9390800290620015fb565b509250929050565b6000826200165057506001620016ef565b816200165f57506000620016ef565b81600181146200167857600281146200168357620016a3565b6001915050620016ef565b60ff8411156200169757620016976200148a565b50506001821b620016ef565b5060208310610133831016604e8410600b8410161715620016c8575081810a620016ef565b620016d48383620015f6565b8060001904821115620016eb57620016eb6200148a565b0290505b92915050565b60006200170383836200163f565b9392505050565b600181811c908216806200171f57607f821691505b602082108114156200174157634e487b7160e01b600052602260045260246000fd5b50919050565b61564c80620017576000396000f3fe6080604052600436106103915760003560e01c8063883d9984116101d7578063b8b18e891161010d578063e39ca658116100a0578063eef756fc1161006f578063eef756fc14610b89578063f1fdf46914610ba9578063f6ddddf214610bc9578063f729b00f14610be957610453565b8063e39ca65814610b07578063e73e14bf14610b27578063ea1a264414610b47578063eb9f4ac714610b7457610453565b8063d4dca69b116100dc578063d4dca69b14610a61578063d94d4ad614610a74578063dd62ed3e14610a94578063ddbad8b814610ada57610453565b8063b8b18e89146109f5578063b948854614610a0a578063bea8e46b14610a1f578063cc047a0414610a3457610453565b806397a08e7111610185578063a9059cbb11610154578063a9059cbb14610972578063ab2e81d614610992578063b09d4b4e146109b2578063b25bb3a7146109df57610453565b806397a08e71146108f9578063a071dcf414610919578063a169c51514610932578063a457c2d71461095257610453565b8063883d9984146108435780638902cd7014610858578063893d20e81461087857806390a4c7091461088d57806390a53085146108a2578063934851ec146108cf57806395d89b41146108e457610453565b806338920102116102c7578063560291371161025a5780638378a875116102295780638378a875146107d957806384f3996d146107ee57806385ba7c021461080357806387e25b791461082357610453565b80635602913714610741578063568b59151461075657806370a08231146107835780637b0472f0146107b957610453565b806341b2974a1161029657806341b2974a146106ce578063431ab233146106ee57806348b151661461070e578063534c96c71461072157610453565b8063389201021461064b578063395093511461066b5780633b124fe71461068b5780633f3ef2dc146106b957610453565b806318160ddd1161033f5780632f54bf6e1161030e5780632f54bf6e146105d157806330d4f3c91461049d578063313ce5671461060957806336a5a4931461062b57610453565b806318160ddd1461056757806318bcd3d01461057c57806322f2f89a1461059c57806323b872dd146105b157610453565b8063025e7c2714610460578063042249bb1461049d57806306fdde03146104bc578063095ea7b3146104de5780630e1b09ed1461050e57806315441bb91461053057806316c127461461054557610453565b366104535760006103a3346003610c09565b6022546001600160a01b03166000908152600b60205260409020549091506103cb9082610c1e565b6022546001600160a01b039081166000908152600b602052604080822093909355602354909116815220546104009082610c1e565b6023546001600160a01b039081166000908152600b602052604080822093909355602454909116815220546104359082610c1e565b6024546001600160a01b03166000908152600b602052604090205550005b60006103a3346003610c09565b34801561046c57600080fd5b5061048061047b366004614e39565b610c2a565b6040516001600160a01b0390911681526020015b60405180910390f35b3480156104a957600080fd5b506013545b604051908152602001610494565b3480156104c857600080fd5b506104d1610c54565b6040516104949190614e52565b3480156104ea57600080fd5b506104fe6104f9366004614ecc565b610ce6565b6040519015158152602001610494565b34801561051a57600080fd5b5061052e610529366004614e39565b610cfc565b005b34801561053c57600080fd5b5061052e610df6565b34801561055157600080fd5b5061055a610f48565b6040516104949190614f3c565b34801561057357600080fd5b50600f546104ae565b34801561058857600080fd5b5061052e610597366004614f65565b610fa9565b3480156105a857600080fd5b506002546104ae565b3480156105bd57600080fd5b506104fe6105cc36600461502a565b611349565b3480156105dd57600080fd5b506104fe6105ec36600461506b565b6001600160a01b0316600090815260056020526040902054151590565b34801561061557600080fd5b5060105460405160ff9091168152602001610494565b34801561063757600080fd5b50602854610480906001600160a01b031681565b34801561065757600080fd5b506104ae61066636600461508f565b6113b2565b34801561067757600080fd5b506104fe610686366004614ecc565b6113f5565b34801561069757600080fd5b50600e546106a69061ffff1681565b60405161ffff9091168152602001610494565b3480156106c557600080fd5b5061052e61142b565b3480156106da57600080fd5b50602754610480906001600160a01b031681565b3480156106fa57600080fd5b506104ae610709366004614e39565b6114ee565b34801561071a57600080fd5b50426104ae565b34801561072d57600080fd5b50602954610480906001600160a01b031681565b34801561074d57600080fd5b5061052e61150f565b34801561076257600080fd5b506104ae610771366004614e39565b60076020526000908152604090205481565b34801561078f57600080fd5b506104ae61079e36600461506b565b6001600160a01b03166000908152600b602052604090205490565b3480156107c557600080fd5b5061052e6107d43660046150bf565b6115d2565b3480156107e557600080fd5b5061052e611717565b3480156107fa57600080fd5b5061052e6117da565b34801561080f57600080fd5b50602d54610480906001600160a01b031681565b34801561082f57600080fd5b50602e54610480906001600160a01b031681565b34801561084f57600080fd5b5061052e61189d565b34801561086457600080fd5b5061052e6108733660046150e1565b611960565b34801561088457600080fd5b5061055a611a05565b34801561089957600080fd5b5061052e611a14565b3480156108ae57600080fd5b506104ae6108bd366004614e39565b60086020526000908152604090205481565b3480156108db57600080fd5b5061052e611ad7565b3480156108f057600080fd5b506104d1611b97565b34801561090557600080fd5b50602b54610480906001600160a01b031681565b34801561092557600080fd5b50600e5461ffff166104ae565b34801561093e57600080fd5b5061052e61094d366004614e39565b611ba6565b34801561095e57600080fd5b506104fe61096d366004614ecc565b611c47565b34801561097e57600080fd5b506104fe61098d366004614ecc565b611c96565b34801561099e57600080fd5b50602654610480906001600160a01b031681565b3480156109be57600080fd5b506109d26109cd36600461506b565b611ca3565b6040516104949190615105565b3480156109eb57600080fd5b506104ae60005481565b348015610a0157600080fd5b5061052e611db3565b348015610a1657600080fd5b506001546104ae565b348015610a2b57600080fd5b506104ae611e76565b348015610a4057600080fd5b506104ae610a4f36600461506b565b60056020526000908152604090205481565b348015610a6d57600080fd5b5030610480565b348015610a8057600080fd5b5061052e610a8f366004614e39565b611ed8565b348015610aa057600080fd5b506104ae610aaf36600461519b565b6001600160a01b039182166000908152600c6020908152604080832093909416825291909152205490565b348015610ae657600080fd5b506104ae610af5366004614e39565b6000908152600d602052604090205490565b348015610b1357600080fd5b50602554610480906001600160a01b031681565b348015610b3357600080fd5b506109d2610b4236600461506b565b611f3d565b348015610b5357600080fd5b506104ae610b62366004614e39565b60066020526000908152604090205481565b348015610b8057600080fd5b5061052e612184565b348015610b9557600080fd5b50602a54610480906001600160a01b031681565b348015610bb557600080fd5b5061052e610bc43660046150bf565b612247565b348015610bd557600080fd5b50602c54610480906001600160a01b031681565b348015610bf557600080fd5b5061052e610c04366004614e39565b6122b1565b6000610c1582846151f5565b90505b92915050565b6000610c158284615217565b60018181548110610c3a57600080fd5b6000918252602090912001546001600160a01b0316905081565b606060128054610c639061522f565b80601f0160208091040260200160405190810160405280929190818152602001828054610c8f9061522f565b8015610cdc5780601f10610cb157610100808354040283529160200191610cdc565b820191906000526020600020905b815481529060010190602001808311610cbf57829003601f168201915b5050505050905090565b6000610cf3338484612335565b50600192915050565b600154610d0890612464565b15610df3576003546001600160a01b0316158015610d3957600380546001600160a01b031916331790556001546004555b6013548210610db55760405162461bcd60e51b815260206004820152603d60248201527f54616c6178546f6b656e3a20416d6f756e74206275726e742063616e6e6f742060448201527f6265206c6172676572207468616e205374616b696e672052657761726400000060648201526084015b60405180910390fd5b601354610dc2908361280e565b601355600f54610dd2908361280e565b600f558015610df157600380546001600160a01b031916905560006004555b505b50565b602a60009054906101000a90046001600160a01b03166001600160a01b03166338af3eed6040518163ffffffff1660e01b8152600401602060405180830381865afa158015610e49573d6000803e3d6000fd5b505050506040513d601f19601f82011682018060405250810190610e6d919061526a565b6001600160a01b0316336001600160a01b031614610e9d5760405162461bcd60e51b8152600401610dac90615287565b602a546000906001600160a01b031663c8100dcc610eb961281a565b6040518263ffffffff1660e01b8152600401610ed591906152d9565b6020604051808303816000875af1158015610ef4573d6000803e3d6000fd5b505050506040513d601f19601f82011682018060405250810190610f18919061530b565b336000908152600b6020526040902054909150610f359082610c1e565b336000908152600b602052604090205550565b60606001805480602002602001604051908101604052809291908181526020018280548015610cdc57602002820191906000526020600020905b81546001600160a01b03168152600190910190602001808311610f82575050505050905090565b600154610fb590612464565b15610df3576003546001600160a01b0316158015610fe657600380546001600160a01b031916331790556001546004555b60008251116110485760405162461bcd60e51b815260206004820152602860248201527f7472616e736665724f776e6572736869703a206f776e65727320617272617920604482015267697320656d70747960c01b6064820152608401610dac565b610100825111156110b75760405162461bcd60e51b815260206004820152603360248201527f7472616e736665724f776e6572736869703a206f776e65727320636f756e742060448201527234b99033b932b0ba32b9103a3432b710191a9b60691b6064820152608401610dac565b60005b6001548110156111125760056000600183815481106110db576110db615324565b60009182526020808320909101546001600160a01b031683528201929092526040018120558061110a8161533a565b9150506110ba565b5060005b82518110156112bb5760006001600160a01b031683828151811061113c5761113c615324565b60200260200101516001600160a01b031614156111b15760405162461bcd60e51b815260206004820152602d60248201527f7472616e736665724f776e6572736869703a206f776e6572732061727261792060448201526c636f6e7461696e73207a65726f60981b6064820152608401610dac565b600560008483815181106111c7576111c7615324565b60200260200101516001600160a01b03166001600160a01b031681526020019081526020016000205460001461125b5760405162461bcd60e51b815260206004820152603360248201527f7472616e736665724f776e6572736869703a206f776e65727320617272617920604482015272636f6e7461696e73206475706c69636174657360681b6064820152608401610dac565b611266816001615217565b6005600085848151811061127c5761127c615324565b60200260200101516001600160a01b03166001600160a01b031681526020019081526020016000208190555080806112b39061533a565b915050611116565b507fe62c04bb3499d4f432a50e07318d42861c4865afb22ee4cfe403d4f9455070906001836040516112ee929190615355565b60405180910390a18151611309906001906020850190614d82565b5061131660026000614de7565b6000805490806113258361533a565b91905055508015610df157600380546001600160a01b031916905560006004555050565b6000611356848484612be3565b6113a884336113a3856040518060600160405280602d8152602001615595602d91396001600160a01b038a166000908152600c602090815260408083203384529091529020549190612309565b612335565b5060019392505050565b6000806113be83611ca3565b9050806020015184815181106113d6576113d6615324565b602002602001015160400151426113ed91906153bd565b949350505050565b336000818152600c602090815260408083206001600160a01b03871684529091528120549091610cf39185906113a39086610c1e565b602e60009054906101000a90046001600160a01b03166001600160a01b03166338af3eed6040518163ffffffff1660e01b8152600401602060405180830381865afa15801561147e573d6000803e3d6000fd5b505050506040513d601f19601f820116820180604052508101906114a2919061526a565b6001600160a01b0316336001600160a01b0316146114d25760405162461bcd60e51b8152600401610dac90615287565b602e546000906001600160a01b031663c8100dcc610eb9612ed2565b600281815481106114fe57600080fd5b600091825260209091200154905081565b602c60009054906101000a90046001600160a01b03166001600160a01b03166338af3eed6040518163ffffffff1660e01b8152600401602060405180830381865afa158015611562573d6000803e3d6000fd5b505050506040513d601f19601f82011682018060405250810190611586919061526a565b6001600160a01b0316336001600160a01b0316146115b65760405162461bcd60e51b8152600401610dac90615287565b602c546000906001600160a01b031663c8100dcc610eb96131cb565b8062278d0014806115e55750806276a700145b806115f257508062ed4e00145b806116005750806301e13380145b6116615760405162461bcd60e51b815260206004820152602c60248201527f54616c6178546f6b656e3a205374616b696e67207061636b616765206f70746960448201526b1bdb881b9bdd08195e1a5cdd60a21b6064820152608401610dac565b336000908152600b602052604090205482106116d25760405162461bcd60e51b815260206004820152602a60248201527f54616c6178546f6b656e3a2043616e6e6f74207374616b65206d6f726520746860448201526930b7103cb7ba9037bbb760b11b6064820152608401610dac565b6000818152600d60205260409020546116ee908390839061346f565b6116f8338361360b565b306000908152600b60205260409020546117129083610c1e565b505050565b602960009054906101000a90046001600160a01b03166001600160a01b03166338af3eed6040518163ffffffff1660e01b8152600401602060405180830381865afa15801561176a573d6000803e3d6000fd5b505050506040513d601f19601f8201168201806040525081019061178e919061526a565b6001600160a01b0316336001600160a01b0316146117be5760405162461bcd60e51b8152600401610dac90615287565b6029546000906001600160a01b031663c8100dcc610eb961281a565b602860009054906101000a90046001600160a01b03166001600160a01b03166338af3eed6040518163ffffffff1660e01b8152600401602060405180830381865afa15801561182d573d6000803e3d6000fd5b505050506040513d601f19601f82011682018060405250810190611851919061526a565b6001600160a01b0316336001600160a01b0316146118815760405162461bcd60e51b8152600401610dac90615287565b6028546000906001600160a01b031663c8100dcc610eb961371c565b602b60009054906101000a90046001600160a01b03166001600160a01b03166338af3eed6040518163ffffffff1660e01b8152600401602060405180830381865afa1580156118f0573d6000803e3d6000fd5b505050506040513d601f19601f82011682018060405250810190611914919061526a565b6001600160a01b0316336001600160a01b0316146119445760405162461bcd60e51b8152600401610dac90615287565b602b546000906001600160a01b031663c8100dcc610eb9613ade565b60015461196c90612464565b15610df3576003546001600160a01b031615801561199d57600380546001600160a01b031916331790556001546004555b600e805461ffff191661ffff841690811790915560405190815233907fdf92943b31fff67e8447ff9fa8b5e226ddcc5fb34d36cfe120c0f2b96eb8d6f79060200160405180910390a28015610df157600380546001600160a01b031916905560006004555050565b6060611a0f610f48565b905090565b602d60009054906101000a90046001600160a01b03166001600160a01b03166338af3eed6040518163ffffffff1660e01b8152600401602060405180830381865afa158015611a67573d6000803e3d6000fd5b505050506040513d601f19601f82011682018060405250810190611a8b919061526a565b6001600160a01b0316336001600160a01b031614611abb5760405162461bcd60e51b8152600401610dac90615287565b602d546000906001600160a01b031663c8100dcc610eb96131cb565b602560009054906101000a90046001600160a01b03166001600160a01b03166338af3eed6040518163ffffffff1660e01b8152600401602060405180830381865afa158015611b2a573d6000803e3d6000fd5b505050506040513d601f19601f82011682018060405250810190611b4e919061526a565b601b546001600160a01b03908116911614611b7b5760405162461bcd60e51b8152600401610dac90615287565b6025546000906001600160a01b031663c8100dcc610eb9613ea0565b606060118054610c639061522f565b600154611bb290612464565b15610df3576003546001600160a01b0316158015611be357600380546001600160a01b031916331790556001546004555b81611c2a5760405162461bcd60e51b81526020600482015260176024820152760416d6f756e74206d696e742063616e6e6f74206265203604c1b6044820152606401610dac565b601354611c379083610c1e565b601355600f54610dd29083610c1e565b6000610cf333846113a3856040518060600160405280602a81526020016155c2602a9139336000908152600c602090815260408083206001600160a01b038d1684529091529020549190612309565b6000610cf3338484612be3565b60408051808201909152600081526060602082015260006040518060400160405280600081526020016009600a6000876001600160a01b03166001600160a01b031681526020019081526020016000205481548110611d0457611d04615324565b9060005260206000209060020201600101805480602002602001604051908101604052809291908181526020016000905b82821015611da65760008481526020908190206040805160c0810182526006860290920180546001600160a01b031683526001808201548486015260028201549284019290925260038101546060840152600481015460808401526005015460a08301529083529092019101611d35565b5050509152509392505050565b602660009054906101000a90046001600160a01b03166001600160a01b03166338af3eed6040518163ffffffff1660e01b8152600401602060405180830381865afa158015611e06573d6000803e3d6000fd5b505050506040513d601f19601f82011682018060405250810190611e2a919061526a565b6001600160a01b0316336001600160a01b031614611e5a5760405162461bcd60e51b8152600401610dac90615287565b6026546000906001600160a01b031663c8100dcc610eb96140e0565b6040516370a0823160e01b815230600482018190526000916370a0823190602401602060405180830381865afa158015611eb4573d6000803e3d6000fd5b505050506040513d601f19601f82011682018060405250810190611a0f919061530b565b600154611ee490612464565b15610df3576003546001600160a01b0316158015611f1557600380546001600160a01b031916331790556001546004555b611f1e826144a2565b8015610df157600380546001600160a01b031916905560006004555050565b6040805180820190915260008152606060208201526000806040518060400160405280600081526020016009600a6000886001600160a01b03166001600160a01b031681526020019081526020016000205481548110611f9f57611f9f615324565b9060005260206000209060020201600101805480602002602001604051908101604052809291908181526020016000905b828210156120415760008481526020908190206040805160c0810182526006860290920180546001600160a01b031683526001808201548486015260028201549284019290925260038101546060840152600481015460808401526005015460a08301529083529092019101611fd0565b5050509152506020810151519091506120b45760405162461bcd60e51b815260206004820152602f60248201527f5374616b61626c653a2054686973206164647265737320646f6573206e6f742060448201526e6861766520616e79207374616b657360881b6064820152608401610dac565b60005b81602001515181101561217a57600061210e836020015183815181106120df576120df615324565b6020026020010151846020015184815181106120fd576120fd615324565b60200260200101516020015161455d565b9050808360200151838151811061212757612127615324565b602002602001015160600181815250508260200151828151811061214d5761214d615324565b602002602001015160200151846121649190615217565b93506121739050600182615217565b90506120b7565b5090815292915050565b602760009054906101000a90046001600160a01b03166001600160a01b03166338af3eed6040518163ffffffff1660e01b8152600401602060405180830381865afa1580156121d7573d6000803e3d6000fd5b505050506040513d601f19601f820116820180604052508101906121fb919061526a565b6001600160a01b0316336001600160a01b03161461222b5760405162461bcd60e51b8152600401610dac90615287565b6027546000906001600160a01b031663c8100dcc610eb96140e0565b60008061225484846145b0565b91509150612261816144a2565b306000908152600b602052604090205461227b908361280e565b50306000908152600b6020526040902054612296908261280e565b506122ab335b6122a68385615217565b61489e565b50505050565b6000806122bd83614984565b915091506122ca816144a2565b306000908152600b60205260409020546122e4908361280e565b50306000908152600b60205260409020546122ff908261280e565b506117123361229c565b6000818484111561232d5760405162461bcd60e51b8152600401610dac9190614e52565b505050900390565b6001600160a01b03831661239d5760405162461bcd60e51b815260206004820152602960248201527f54616c6178546f6b656e3a20617070726f76652066726f6d20746865207a65726044820152686f206164647265737360b81b6064820152608401610dac565b6001600160a01b0382166124035760405162461bcd60e51b815260206004820152602760248201527f54616c6178546f6b656e3a20617070726f766520746f20746865207a65726f206044820152666164647265737360c81b6064820152608401610dac565b6001600160a01b038381166000818152600c602090815260408083209487168084529482529182902085905590518481527f8c5be1e5ebec7d5bd14f71427d1e84f3dd0314c0f7b2291e5b200ac8c7c3b925910160405180910390a3505050565b6003546000906001600160a01b0316331415612508576004548211156125005760405162461bcd60e51b8152602060048201526044602482018190527f636865636b486f774d616e794f776e6572733a206e6573746564206f776e6572908201527f73206d6f64696669657220636865636b2072657175697265206d6f7265206f776064820152636e65727360e01b608482015260a401610dac565b506001919050565b3360009081526005602052604090205415156001146125805760405162461bcd60e51b815260206004820152602e60248201527f636865636b486f774d616e794f776e6572733a206d73672e73656e646572206960448201526d39903737ba1030b71037bbb732b960911b6064820152608401610dac565b3360009081526005602052604081205461259c906001906153bd565b9050600080366000546040516020016125b7939291906153d4565b6040516020818303038152906040528051906020012090508160026125dc91906154ca565b600082815260076020526040902054161561265f5760405162461bcd60e51b815260206004820152603960248201527f636865636b486f774d616e794f776e6572733a206f776e657220616c7265616460448201527f7920766f74656420666f7220746865206f7065726174696f6e000000000000006064820152608401610dac565b61266a8260026154ca565b600082815260076020908152604080832080549094179093556008905290812054612696906001615217565b6000838152600860205260409020819055905060018114156127405760028054600084815260066020908152604080832084905560018085018655949092527f405787fa12a823e0f2b7631cc41b3ba8828b3321ca811111fa75cd3aa3bb5ace909201859055915482518581529182018890528183015233606082015290517f6bab0114f9524353d2d33e64edd3ebbd16e21edd57de2226ba76c310a7ce22659181900360800190a15b60015460408051848152602081018490528082018890526060810192909252336080830152517f8dd9582c6577aea81973b5adeb6c135f6e18565d99578b7ba0c9377437ec02219181900360a00190a1600082815260086020526040902054851415612803576127af82614b66565b600154604080518481526020810188905280820192909252336060830152517f8a11c8ca99994c292318ce367f65bf6ff61d390bc814b3588496f6fbcc32807a9181900360800190a1506001949350505050565b506000949350505050565b6000610c1582846153bd565b612822614e05565b60405180610560016040528061284362051615670de0b6b3a7640000614c36565b815260200160008152602001600081526020016000815260200161287262051615670de0b6b3a7640000614c36565b8152602001600081526020016000815260200161289a62051615670de0b6b3a7640000614c36565b815260200160008152602001600081526020016128c262051615670de0b6b3a7640000614c36565b815260200160008152602001600081526020016128ea62011a1e670de0b6b3a7640000614c36565b815260200161290462011a1e670de0b6b3a7640000614c36565b815260200161291e62011a1e670de0b6b3a7640000614c36565b815260200161293862011a1e670de0b6b3a7640000614c36565b815260200161295262011a1e670de0b6b3a7640000614c36565b815260200161296c62011a1e670de0b6b3a7640000614c36565b815260200161298662011a1e670de0b6b3a7640000614c36565b81526020016129a062011a1e670de0b6b3a7640000614c36565b81526020016129ba62011a1e670de0b6b3a7640000614c36565b81526020016129d462011a1e670de0b6b3a7640000614c36565b81526020016129ee62011a1e670de0b6b3a7640000614c36565b8152602001612a0862011a1e670de0b6b3a7640000614c36565b8152602001612a2262011a1e670de0b6b3a7640000614c36565b8152602001612a3c62011a1e670de0b6b3a7640000614c36565b8152602001612a5662011a1e670de0b6b3a7640000614c36565b8152602001612a7062011a1e670de0b6b3a7640000614c36565b8152602001612a8a62011a1e670de0b6b3a7640000614c36565b8152602001612aa462011a1e670de0b6b3a7640000614c36565b8152602001612abe62011a1e670de0b6b3a7640000614c36565b8152602001612ad862011a1e670de0b6b3a7640000614c36565b8152602001612af262011a1e670de0b6b3a7640000614c36565b8152602001612b0c62011a1e670de0b6b3a7640000614c36565b8152602001612b2662011a1e670de0b6b3a7640000614c36565b8152602001612b4062011a1e670de0b6b3a7640000614c36565b8152602001612b5a62011a1e670de0b6b3a7640000614c36565b8152602001612b7462011a1e670de0b6b3a7640000614c36565b8152602001612b8e62011a1e670de0b6b3a7640000614c36565b8152602001612ba862011a1e670de0b6b3a7640000614c36565b8152602001612bc262011a1e670de0b6b3a7640000614c36565b8152602001612bdc62011a1e670de0b6b3a7640000614c36565b9052919050565b6001600160a01b038316612c4c5760405162461bcd60e51b815260206004820152602a60248201527f54616c6178546f6b656e3a207472616e736665722066726f6d20746865207a65604482015269726f206164647265737360b01b6064820152608401610dac565b6001600160a01b038216612cb35760405162461bcd60e51b815260206004820152602860248201527f54616c6178546f6b656e3a207472616e7366657220746f20746865207a65726f604482015267206164647265737360c01b6064820152608401610dac565b600e54600090612cd390612ccc90849061ffff16614c36565b6064610c09565b90506000612ce1838361280e565b90506000612d04612cfd83612cf86002600a610c09565b614c36565b6003610c09565b90506000612d1883612cf86008600a610c09565b6022546001600160a01b03166000908152600b6020526040902054909150612d409083610c1e565b6022546001600160a01b039081166000908152600b60205260408082209390935560235490911681522054612d759083610c1e565b6023546001600160a01b039081166000908152600b60205260408082209390935560245490911681522054612daa9083610c1e565b6024546001600160a01b03166000908152600b6020526040808220929092553081522054612dd89082610c1e565b600b6000306001600160a01b03166001600160a01b0316815260200190815260200160002081905550612e3e856040518060600160405280602b81526020016155ec602b91396001600160a01b038a166000908152600b60205260409020549190612309565b6001600160a01b038089166000908152600b60205260408082209390935590881681522054612e6d9084610c1e565b6001600160a01b038088166000818152600b602052604090819020939093559151908916907fddf252ad1be2c89b69c2b068fc378daa952ba7f163c4a11628f55a4df523b3ef90612ec19087815260200190565b60405180910390a350505050505050565b612eda614e05565b604051806105600160405280612efb6211cd4a670de0b6b3a7640000614c36565b8152602001600081526020016000815260200160008152602001612f2a62989680670de0b6b3a7640000614c36565b81526020016000815260200160008152602001612f5262989680670de0b6b3a7640000614c36565b81526020016000815260200160008152602001612f7a62989680670de0b6b3a7640000614c36565b81526020016000815260200160008152602001612fa262051616670de0b6b3a7640000614c36565b8152602001612fbc62051616670de0b6b3a7640000614c36565b8152602001612fd662051616670de0b6b3a7640000614c36565b8152602001612ff062051616670de0b6b3a7640000614c36565b815260200161300a62051616670de0b6b3a7640000614c36565b815260200161302462051616670de0b6b3a7640000614c36565b815260200161303e62051616670de0b6b3a7640000614c36565b815260200161305862051616670de0b6b3a7640000614c36565b815260200161307262051616670de0b6b3a7640000614c36565b815260200161308c62051616670de0b6b3a7640000614c36565b81526020016130a662051616670de0b6b3a7640000614c36565b81526020016130c062051616670de0b6b3a7640000614c36565b81526020016130da62051616670de0b6b3a7640000614c36565b81526020016130f462051616670de0b6b3a7640000614c36565b815260200161310e62051616670de0b6b3a7640000614c36565b815260200161312862051616670de0b6b3a7640000614c36565b815260200161314262051616670de0b6b3a7640000614c36565b815260200161315c62051616670de0b6b3a7640000614c36565b815260200161317662051616670de0b6b3a7640000614c36565b8152602001600081526020016000815260200160008152602001600081526020016000815260200160008152602001600081526020016000815260200160008152602001600081526020016000815250905090565b6131d3614e05565b6040518061056001604052806131f46211cd4b670de0b6b3a7640000614c36565b8152602001600081526020016000815260200160008152602001613223620f4240670de0b6b3a7640000614c36565b8152602001600081526020016000815260200161324b620f4240670de0b6b3a7640000614c36565b81526020016000815260200160008152602001613273620f4240670de0b6b3a7640000614c36565b8152602001600081526020016000815260200161329b62051615670de0b6b3a7640000614c36565b81526020016132b562051615670de0b6b3a7640000614c36565b81526020016132cf62051615670de0b6b3a7640000614c36565b81526020016132e962051615670de0b6b3a7640000614c36565b815260200161330362051615670de0b6b3a7640000614c36565b815260200161331d62051615670de0b6b3a7640000614c36565b815260200161333762051615670de0b6b3a7640000614c36565b815260200161335162051615670de0b6b3a7640000614c36565b815260200161336b62051615670de0b6b3a7640000614c36565b815260200161338562051615670de0b6b3a7640000614c36565b815260200161339f62051615670de0b6b3a7640000614c36565b81526020016133b962051615670de0b6b3a7640000614c36565b81526020016133d362051615670de0b6b3a7640000614c36565b81526020016133ed62051615670de0b6b3a7640000614c36565b815260200161340762051615670de0b6b3a7640000614c36565b815260200161342162051615670de0b6b3a7640000614c36565b815260200161343b62051615670de0b6b3a7640000614c36565b815260200161345562051615670de0b6b3a7640000614c36565b815260200161317662051615670de0b6b3a7640000614c36565b600083116134bf5760405162461bcd60e51b815260206004820152601e60248201527f5374616b61626c653a2043616e6e6f74207374616b65206e6f7468696e6700006044820152606401610dac565b336000908152600a602052604090205442816134e1576134de33614c42565b91505b600982815481106134f4576134f4615324565b90600052602060002090600202016001016040518060c00160405280336001600160a01b031681526020018781526020018381526020016000815260200185815260200183876135449190615217565b90528154600180820184556000938452602093849020835160069093020180546001600160a01b0319166001600160a01b03909316929092178255928201519281019290925560408101516002830155606081015160038301556080810151600483015560a00151600590910155337f9cfd25589d1eb8ad71e342a86a8524e83522e3936c0803048c08f6d9ad974f408684846135e1818a615217565b60408051948552602085019390935291830152606082015260800160405180910390a25050505050565b6001600160a01b0382166136705760405162461bcd60e51b815260206004820152602660248201527f54616c6178546f6b656e3a206275726e2066726f6d20746865207a65726f206160448201526564647265737360d01b6064820152608401610dac565b6136ad8160405180606001604052806027815260200161556e602791396001600160a01b0385166000908152600b60205260409020549190612309565b6001600160a01b0383166000908152600b6020526040902055600f546136d3908261280e565b600f556040518181526000906001600160a01b038416907fddf252ad1be2c89b69c2b068fc378daa952ba7f163c4a11628f55a4df523b3ef906020015b60405180910390a35050565b613724614e05565b604051806105600160405280613745620f4240670de0b6b3a7640000614c36565b8152602001600081526020016000815260200160008152602001613774620f4240670de0b6b3a7640000614c36565b8152602001600081526020016000815260200161379c620f4240670de0b6b3a7640000614c36565b815260200160008152602001600081526020016137c4620f4240670de0b6b3a7640000614c36565b815260200160008152602001600081526020016137ec62051616670de0b6b3a7640000614c36565b815260200161380662051616670de0b6b3a7640000614c36565b815260200161382062051616670de0b6b3a7640000614c36565b815260200161383a62051616670de0b6b3a7640000614c36565b815260200161385462051616670de0b6b3a7640000614c36565b815260200161386e62051616670de0b6b3a7640000614c36565b815260200161388862051616670de0b6b3a7640000614c36565b81526020016138a262051616670de0b6b3a7640000614c36565b81526020016138bc62051616670de0b6b3a7640000614c36565b81526020016138d662051616670de0b6b3a7640000614c36565b81526020016138f062051616670de0b6b3a7640000614c36565b815260200161390a62051616670de0b6b3a7640000614c36565b815260200161392462051616670de0b6b3a7640000614c36565b815260200161393e62051616670de0b6b3a7640000614c36565b815260200161395862051616670de0b6b3a7640000614c36565b815260200161397262051616670de0b6b3a7640000614c36565b815260200161398c62051616670de0b6b3a7640000614c36565b81526020016139a662051616670de0b6b3a7640000614c36565b81526020016139c062051616670de0b6b3a7640000614c36565b81526020016139da62051616670de0b6b3a7640000614c36565b81526020016139f462051616670de0b6b3a7640000614c36565b8152602001613a0e62051616670de0b6b3a7640000614c36565b8152602001613a2862051616670de0b6b3a7640000614c36565b8152602001613a4262051616670de0b6b3a7640000614c36565b8152602001613a5c62051616670de0b6b3a7640000614c36565b8152602001613a7662051616670de0b6b3a7640000614c36565b8152602001613a9062051616670de0b6b3a7640000614c36565b8152602001613aaa62051616670de0b6b3a7640000614c36565b8152602001613ac462051616670de0b6b3a7640000614c36565b8152602001612bdc62051616670de0b6b3a7640000614c36565b613ae6614e05565b604051806105600160405280613b0762051616670de0b6b3a7640000614c36565b8152602001600081526020016000815260200160008152602001613b3662051616670de0b6b3a7640000614c36565b81526020016000815260200160008152602001613b5e62051616670de0b6b3a7640000614c36565b81526020016000815260200160008152602001613b8662051616670de0b6b3a7640000614c36565b81526020016000815260200160008152602001613bae62011a1f670de0b6b3a7640000614c36565b8152602001613bc862011a1f670de0b6b3a7640000614c36565b8152602001613be262011a1f670de0b6b3a7640000614c36565b8152602001613bfc62011a1f670de0b6b3a7640000614c36565b8152602001613c1662011a1f670de0b6b3a7640000614c36565b8152602001613c3062011a1f670de0b6b3a7640000614c36565b8152602001613c4a62011a1f670de0b6b3a7640000614c36565b8152602001613c6462011a1f670de0b6b3a7640000614c36565b8152602001613c7e62011a1f670de0b6b3a7640000614c36565b8152602001613c9862011a1f670de0b6b3a7640000614c36565b8152602001613cb262011a1f670de0b6b3a7640000614c36565b8152602001613ccc62011a1f670de0b6b3a7640000614c36565b8152602001613ce662011a1f670de0b6b3a7640000614c36565b8152602001613d0062011a1f670de0b6b3a7640000614c36565b8152602001613d1a62011a1f670de0b6b3a7640000614c36565b8152602001613d3462011a1f670de0b6b3a7640000614c36565b8152602001613d4e62011a1f670de0b6b3a7640000614c36565b8152602001613d6862011a1f670de0b6b3a7640000614c36565b8152602001613d8262011a1f670de0b6b3a7640000614c36565b8152602001613d9c62011a1f670de0b6b3a7640000614c36565b8152602001613db662011a1f670de0b6b3a7640000614c36565b8152602001613dd062011a1f670de0b6b3a7640000614c36565b8152602001613dea62011a1f670de0b6b3a7640000614c36565b8152602001613e0462011a1f670de0b6b3a7640000614c36565b8152602001613e1e62011a1f670de0b6b3a7640000614c36565b8152602001613e3862011a1f670de0b6b3a7640000614c36565b8152602001613e5262011a1f670de0b6b3a7640000614c36565b8152602001613e6c62011a1f670de0b6b3a7640000614c36565b8152602001613e8662011a1f670de0b6b3a7640000614c36565b8152602001612bdc62011a1f670de0b6b3a7640000614c36565b613ea8614e05565b60405180610560016040528060008152602001600081526020016000815260200160008152602001600081526020016000815260200160008152602001613ef9674563918244f40000611b51610c09565b8152602001613f12674563918244f40000611b51610c09565b8152602001613f2b674563918244f40000611b51610c09565b8152602001613f44674563918244f40000611b51610c09565b8152602001613f5d674563918244f40000611b51610c09565b8152602001613f76674563918244f40000611b51610c09565b8152602001613f8f674563918244f40000611b51610c09565b8152602001613fa8674563918244f40000611b51610c09565b8152602001613fc1674563918244f40000611b51610c09565b8152602001613fda674563918244f40000611b51610c09565b8152602001613ff3674563918244f40000611b51610c09565b815260200161400c674563918244f40000611b51610c09565b8152602001614025674563918244f40000611b51610c09565b815260200161403e67446ae0e136ad0000611b51610c09565b81526020016000815260200160008152602001600081526020016000815260200160008152602001600081526020016000815260200160008152602001600081526020016000815260200160008152602001600081526020016000815260200160008152602001600081526020016000815260200160008152602001600081526020016000815260200160008152602001600081526020016000815250905090565b6140e8614e05565b604051806105600160405280614109620f4240670de0b6b3a7640000614c36565b8152602001600081526020016000815260200160008152602001614138620f4240670de0b6b3a7640000614c36565b81526020016000815260200160008152602001614160620f4240670de0b6b3a7640000614c36565b81526020016000815260200160008152602001614188620f4240670de0b6b3a7640000614c36565b815260200160008152602001600081526020016141b062051615670de0b6b3a7640000614c36565b81526020016141ca62051615670de0b6b3a7640000614c36565b81526020016141e462051615670de0b6b3a7640000614c36565b81526020016141fe62051615670de0b6b3a7640000614c36565b815260200161421862051615670de0b6b3a7640000614c36565b815260200161423262051615670de0b6b3a7640000614c36565b815260200161424c62051615670de0b6b3a7640000614c36565b815260200161426662051615670de0b6b3a7640000614c36565b815260200161428062051615670de0b6b3a7640000614c36565b815260200161429a62051615670de0b6b3a7640000614c36565b81526020016142b462051615670de0b6b3a7640000614c36565b81526020016142ce62051615670de0b6b3a7640000614c36565b81526020016142e862051615670de0b6b3a7640000614c36565b815260200161430262051615670de0b6b3a7640000614c36565b815260200161431c62051615670de0b6b3a7640000614c36565b815260200161433662051615670de0b6b3a7640000614c36565b815260200161435062051615670de0b6b3a7640000614c36565b815260200161436a62051615670de0b6b3a7640000614c36565b815260200161438462051615670de0b6b3a7640000614c36565b815260200161439e62051615670de0b6b3a7640000614c36565b81526020016143b862051615670de0b6b3a7640000614c36565b81526020016143d262051615670de0b6b3a7640000614c36565b81526020016143ec62051615670de0b6b3a7640000614c36565b815260200161440662051615670de0b6b3a7640000614c36565b815260200161442062051615670de0b6b3a7640000614c36565b815260200161443a62051615670de0b6b3a7640000614c36565b815260200161445462051615670de0b6b3a7640000614c36565b815260200161446e62051615670de0b6b3a7640000614c36565b815260200161448862051615670de0b6b3a7640000614c36565b8152602001612bdc62051615670de0b6b3a7640000614c36565b6001546144ae90612464565b15610df3576003546001600160a01b03161580156144df57600380546001600160a01b031916331790556001546004555b816145265760405162461bcd60e51b81526020600482015260176024820152760416d6f756e74206d696e742063616e6e6f74206265203604c1b6044820152606401610dac565b306000908152600b60205260409020546145409083610c1e565b306000908152600b6020526040902055600f54610dd29083610c1e565b600082602001516000141561457457506000610c18565b6a52b7d2dcc80cd2e400000061458d8460400151614cb8565b608085015161459c90856154d6565b6145a691906154d6565b610c1591906151f5565b336000908152600a6020526040812054600980548392918391839081106145d9576145d9615324565b906000526020600020906002020160010185815481106145fb576145fb615324565b60009182526020918290206040805160c081018252600690930290910180546001600160a01b03168352600181015493830193909352600283015490820152600382015460608201526004820154608082015260059091015460a0820181905290915042101561467d5760405162461bcd60e51b8152600401610dac906154f5565b85816020015110156146ed5760405162461bcd60e51b815260206004820152603360248201527f5374616b61626c653a2043616e6e6f74207769746864726177206d6f726520746044820152721a185b881e5bdd481a185d99481cdd185ad959606a1b6064820152608401610dac565b60006146f9828861455d565b9050600082604001518360a0015161471191906153bd565b905087836020015161472391906153bd565b602084018190526147a5576009848154811061474157614741615324565b9060005260206000209060020201600101878154811061476357614763615324565b60009182526020822060069091020180546001600160a01b03191681556001810182905560028101829055600381018290556004810182905560050155614893565b8260200151600985815481106147bd576147bd615324565b906000526020600020906002020160010188815481106147df576147df615324565b906000526020600020906006020160010181905550426009858154811061480857614808615324565b9060005260206000209060020201600101888154811061482a5761482a615324565b60009182526020909120600260069092020101556148488142615217565b6009858154811061485b5761485b615324565b9060005260206000209060020201600101888154811061487d5761487d615324565b9060005260206000209060060201600501819055505b509596945050505050565b6001600160a01b0382166149005760405162461bcd60e51b8152602060048201526024808201527f54616c6178546f6b656e3a206d696e7420746f20746865207a65726f206164646044820152637265737360e01b6064820152608401610dac565b600f5461490d9082610c1e565b600f556001600160a01b0382166000908152600b60205260409020546149339082610c1e565b6001600160a01b0383166000818152600b60205260408082209390935591519091907fddf252ad1be2c89b69c2b068fc378daa952ba7f163c4a11628f55a4df523b3ef906137109085815260200190565b336000908152600a6020526040812054600980548392918391839081106149ad576149ad615324565b906000526020600020906002020160010185815481106149cf576149cf615324565b60009182526020918290206040805160c081018252600690930290910180546001600160a01b03168352600181015493830193909352600283015490820152600382015460608201526004820154608082015260059091015460a08201819052909150421115614a515760405162461bcd60e51b8152600401610dac906154f5565b6000816020015111614ad55760405162461bcd60e51b815260206004820152604160248201527f5374616b61626c653a2043616e6e6f742077697468647261772c20796f75206460448201527f6f6e2774206861766520616e79207374616b6520696e207468697320496e64656064820152600f60fb1b608482015260a401610dac565b60208101516000614ae6838361455d565b905060098481548110614afb57614afb615324565b90600052602060002090600202016001018781548110614b1d57614b1d615324565b60009182526020822060069091020180546001600160a01b0319168155600181018290556002810182905560038101829055600481018290556005015590969095509350505050565b600081815260066020526040902054600254614b84906001906153bd565b811015614c0d5760028054614b9b906001906153bd565b81548110614bab57614bab615324565b906000526020600020015460028281548110614bc957614bc9615324565b9060005260206000200181905550806006600060028481548110614bef57614bef615324565b90600052602060002001548152602001908152602001600020819055505b506000908152600760209081526040808320839055600882528083208390556006909152812055565b6000610c1582846154d6565b60098054600190810180835560009283528291614c5e916153bd565b90508260098281548110614c7457614c74615324565b6000918252602080832060029290920290910180546001600160a01b0319166001600160a01b03948516179055949091168152600a90935260409092208290555090565b6000808211614d095760405162461bcd60e51b815260206004820152601b60248201527f5374616b61626c653a204572726f722074696d657374616d70203000000000006044820152606401610dac565b610c18614d1683426153bd565b614d2a9069d3c21bcecceda10000006154d6565b6301e133806040518060600160405280602781526020016155476027913960008183614d695760405162461bcd60e51b8152600401610dac9190614e52565b50828481614d7957614d796151c9565b04949350505050565b828054828255906000526020600020908101928215614dd7579160200282015b82811115614dd757825182546001600160a01b0319166001600160a01b03909116178255602090920191600190910190614da2565b50614de3929150614e24565b5090565b5080546000825590600052602060002090810190610df39190614e24565b604051806105600160405280602b906020820280368337509192915050565b5b80821115614de35760008155600101614e25565b600060208284031215614e4b57600080fd5b5035919050565b600060208083528351808285015260005b81811015614e7f57858101830151858201604001528201614e63565b81811115614e91576000604083870101525b50601f01601f1916929092016040019392505050565b6001600160a01b0381168114610df357600080fd5b8035614ec781614ea7565b919050565b60008060408385031215614edf57600080fd5b8235614eea81614ea7565b946020939093013593505050565b600081518084526020808501945080840160005b83811015614f315781516001600160a01b031687529582019590820190600101614f0c565b509495945050505050565b602081526000610c156020830184614ef8565b634e487b7160e01b600052604160045260246000fd5b60006020808385031215614f7857600080fd5b823567ffffffffffffffff80821115614f9057600080fd5b818501915085601f830112614fa457600080fd5b813581811115614fb657614fb6614f4f565b8060051b604051601f19603f83011681018181108582111715614fdb57614fdb614f4f565b604052918252848201925083810185019188831115614ff957600080fd5b938501935b8285101561501e5761500f85614ebc565b84529385019392850192614ffe565b98975050505050505050565b60008060006060848603121561503f57600080fd5b833561504a81614ea7565b9250602084013561505a81614ea7565b929592945050506040919091013590565b60006020828403121561507d57600080fd5b813561508881614ea7565b9392505050565b600080604083850312156150a257600080fd5b8235915060208301356150b481614ea7565b809150509250929050565b600080604083850312156150d257600080fd5b50508035926020909101359150565b6000602082840312156150f357600080fd5b813561ffff8116811461508857600080fd5b6000602080835260608084018551838601528286015160408081880152828251808552608094508489019150868401935060005b8181101561518c57845180516001600160a01b03168452888101518985015284810151858501528781015188850152868101518785015260a090810151908401529387019360c090920191600101615139565b50909998505050505050505050565b600080604083850312156151ae57600080fd5b82356151b981614ea7565b915060208301356150b481614ea7565b634e487b7160e01b600052601260045260246000fd5b634e487b7160e01b600052601160045260246000fd5b60008261521257634e487b7160e01b600052601260045260246000fd5b500490565b6000821982111561522a5761522a6151df565b500190565b600181811c9082168061524357607f821691505b6020821081141561526457634e487b7160e01b600052602260045260246000fd5b50919050565b60006020828403121561527c57600080fd5b815161508881614ea7565b60208082526032908201527f54616c6178546f6b656e3a204f6e6c7920636c61696d61626c652062792055736040820152716572206f662074686973206164647265737360701b606082015260800190565b6105608101818360005b602b8110156153025781518352602092830192909101906001016152e3565b50505092915050565b60006020828403121561531d57600080fd5b5051919050565b634e487b7160e01b600052603260045260246000fd5b600060001982141561534e5761534e6151df565b5060010190565b6000604082016040835280855480835260608501915086600052602092508260002060005b8281101561539f5781546001600160a01b03168452928401926001918201910161537a565b505050838103828501526153b38186614ef8565b9695505050505050565b6000828210156153cf576153cf6151df565b500390565b82848237909101908152602001919050565b600181815b80851115615421578160001904821115615407576154076151df565b8085161561541457918102915b93841c93908002906153eb565b509250929050565b60008261543857506001610c18565b8161544557506000610c18565b816001811461545b576002811461546557615481565b6001915050610c18565b60ff841115615476576154766151df565b50506001821b610c18565b5060208310610133831016604e8410600b84101617156154a4575081810a610c18565b6154ae83836153e6565b80600019048211156154c2576154c26151df565b029392505050565b6000610c158383615429565b60008160001904831182151516156154f0576154f06151df565b500290565b60208082526031908201527f5374616b61626c653a2043616e6e6f74207769746864726177206265666f7265604082015270207468652072656c656173652074696d6560781b60608201526080019056fe5374616b61626c653a204572726f722063616e6e6f74206469766964652074696d657374616d7054616c6178546f6b656e3a206275726e20616d6f756e7420657863656564732062616c616e636554616c6178546f6b656e3a207472616e7366657220616d6f756e74206578636565647320616c6c6f77616e636554616c6178546f6b656e3a2064656372656173656420616c6c6f77616e63652062656c6f77207a65726f54616c6178546f6b656e3a207472616e7366657220616d6f756e7420657863656564732062616c616e6365a2646970667358221220edcbc243dd461f9c11caa2b1d9f8df6baf88d17978e390ea1cb08fe978964e4964736f6c634300080b003360a060405234801561001057600080fd5b5060405161059938038061059983398101604081905261002f916100b3565b600082116100985760405162461bcd60e51b815260206004820152602c60248201527f546f6b656e54696d654c6f636b3a20416d6f756e74206d75737420677265617460448201526b6572207468616e207a65726f60a01b606482015260840160405180910390fd5b6000919091556001600160a01b0316608052426001556100f0565b600080604083850312156100c657600080fd5b825160208401519092506001600160a01b03811681146100e557600080fd5b809150509250929050565b60805161048f61010a60003960006053015261048f6000f3fe608060405234801561001057600080fd5b50600436106100415760003560e01c806338af3eed14610046578063aa8c217c14610082578063c8100dcc14610094575b600080fd5b6040516001600160a01b037f00000000000000000000000000000000000000000000000000000000000000001681526020015b60405180910390f35b6000545b604051908152602001610079565b6100866100a23660046102a4565b600080600054116100fa5760405162461bcd60e51b815260206004820152601d60248201527f546f6b656e54696d656c6f636b3a206e6f20746f6b656e73206c65667400000060448201526064015b60405180910390fd5b600061010583610191565b9050600081116101635760405162461bcd60e51b815260206004820152602360248201527f546f6b656e54696d656c6f636b3a206e6f20746f6b656e7320746f2072656c6560448201526261736560e81b60648201526084016100f1565b610188600054826040518060600160405280603b815260200161041f603b913961026c565b60005592915050565b60008062278d00600154426101a69190610347565b6101b0919061035e565b6002549091506000905b8281116101f5576101e1828683602b81106101d7576101d7610380565b6020020151610298565b9150806101ed81610396565b9150506101ba565b506102018260016103b1565b600255806102655760405162461bcd60e51b815260206004820152602b60248201527f546f6b656e54696d654c6f636b3a2054686572652773206e6f7468696e67207460448201526a1bc818db185a5b481e595d60aa1b60648201526084016100f1565b9392505050565b600081848411156102905760405162461bcd60e51b81526004016100f191906103c9565b505050900390565b600061026582846103b1565b60006105608083850312156102b857600080fd5b83601f8401126102c757600080fd5b60405181810181811067ffffffffffffffff821117156102f757634e487b7160e01b600052604160045260246000fd5b60405290830190808583111561030c57600080fd5b845b8381101561032657803582526020918201910161030e565b509095945050505050565b634e487b7160e01b600052601160045260246000fd5b60008282101561035957610359610331565b500390565b60008261037b57634e487b7160e01b600052601260045260246000fd5b500490565b634e487b7160e01b600052603260045260246000fd5b60006000198214156103aa576103aa610331565b5060010190565b600082198211156103c4576103c4610331565b500190565b600060208083528351808285015260005b818110156103f6578581018301518582016040015282016103da565b81811115610408576000604083870101525b50601f01601f191692909201604001939250505056fe546f6b656e54696d654c6f636b3a2043616e6e6f742073756273747261637420746f74616c20616d6f756e74207769746820636c61696d61626c65a2646970667358221220cd0ac3259c9329c558c009663df212904f29e39fb350062d9a9ec140a05f6cfb64736f6c634300080b003354616c6178546f6b656e3a2043616e6e6f74207472616e73666572206d6f7265207468616e20746f74616c20737570706c797472616e736665724f776e6572736869703a206f776e65727320617272617920",
			"opcodes": "PUSH1 0x80 PUSH1 0x40 MSTORE CALLVALUE DUP1 ISZERO PUSH3 0x11 JUMPI PUSH1 0x0 DUP1 REVERT JUMPDEST POP PUSH1 0x1 DUP1 SLOAD DUP1 DUP3 ADD DUP3 SSTORE PUSH32 0xB10E2D527612073B26EECDFD717E6A320CF44B4AFAC2B0732D9FCBE2B7FA0CF6 ADD DUP1 SLOAD PUSH1 0x1 PUSH1 0x1 PUSH1 0xA0 SHL SUB NOT AND CALLER SWAP1 DUP2 OR SWAP1 SWAP2 SSTORE PUSH1 0x0 SWAP1 DUP2 MSTORE PUSH1 0x5 PUSH1 0x20 SWAP1 DUP2 MSTORE PUSH1 0x40 DUP1 DUP4 KECCAK256 DUP5 SWAP1 SSTORE PUSH1 0x9 DUP1 SLOAD SWAP1 SWAP5 ADD DUP5 SSTORE SWAP3 SWAP1 SWAP2 MSTORE DUP2 MLOAD DUP1 DUP4 ADD SWAP1 SWAP3 MSTORE PUSH1 0x8 DUP1 DUP4 MSTORE PUSH8 0x54414C415845554D PUSH1 0xC0 SHL SWAP3 SWAP1 SWAP2 ADD SWAP2 DUP3 MSTORE PUSH3 0x9F SWAP2 PUSH1 0x12 SWAP2 PUSH3 0x134D JUMP JUMPDEST POP PUSH1 0x40 DUP1 MLOAD DUP1 DUP3 ADD SWAP1 SWAP2 MSTORE PUSH1 0x5 DUP1 DUP3 MSTORE PUSH5 0xA8829882B PUSH1 0xDB SHL PUSH1 0x20 SWAP1 SWAP3 ADD SWAP2 DUP3 MSTORE PUSH3 0xCE SWAP2 PUSH1 0x11 SWAP2 PUSH3 0x134D JUMP JUMPDEST POP PUSH1 0x10 DUP1 SLOAD PUSH1 0xFF NOT AND PUSH1 0x12 OR SWAP1 SSTORE PUSH11 0xADB53ACFA41AEE12000000 PUSH1 0xF SSTORE PUSH1 0x18 DUP1 SLOAD PUSH1 0x1 DUP2 DUP2 ADD DUP4 SSTORE PUSH1 0x0 DUP4 SWAP1 MSTORE PUSH32 0xB13D2D76D1F4B7BE834882E410B3E3A8AFAF69F83600AE24DB354391D2378D2E SWAP2 DUP3 ADD DUP1 SLOAD PUSH1 0x1 PUSH1 0x1 PUSH1 0xA0 SHL SUB NOT SWAP1 DUP2 AND PUSH20 0x7537116370D3261E17819347C84FB502EE3DE568 OR SWAP1 SWAP2 SSTORE DUP4 SLOAD DUP1 DUP4 ADD DUP6 SSTORE DUP4 ADD DUP1 SLOAD DUP3 AND PUSH20 0x7B0956AC989A3BF2E29BB884E07A09FCB2F66394 OR SWAP1 SSTORE DUP4 SLOAD SWAP2 DUP3 ADD DUP5 SSTORE SWAP2 ADD DUP1 SLOAD DUP3 AND PUSH20 0x5CD00C0EF965AB4A1ABC225D7FB5379584C79C50 OR SWAP1 SSTORE PUSH1 0x19 DUP1 SLOAD DUP3 AND PUSH20 0x5470C8FF25EC05980FC7C2967D076B8012298FE7 OR SWAP1 SSTORE PUSH1 0x1A DUP1 SLOAD DUP3 AND PUSH20 0x75837E79215250C45331B92C35B7BE506ED015AC OR SWAP1 SSTORE PUSH1 0x1B DUP1 SLOAD DUP3 AND PUSH20 0x7A20DC6722563783E44BA8EDCA08C774621125E OR SWAP1 SSTORE PUSH1 0x1C DUP1 SLOAD DUP3 AND PUSH20 0xF09F65DD4D229E991901669AD7C7549F060E30B9 OR SWAP1 SSTORE PUSH1 0x1D DUP1 SLOAD DUP3 AND PUSH20 0x1A2118E056D6AF192E233C2C9CFB34E067DED1F8 OR SWAP1 SSTORE PUSH1 0x1E DUP1 SLOAD DUP3 AND PUSH20 0x126974FA373267D86FAB6D6871AFE62CCB68E810 OR SWAP1 SSTORE PUSH1 0x1F DUP1 SLOAD DUP3 AND PUSH20 0x2F838CF0DF38B2E91E747A01DDAE5EBAD5558B7A OR SWAP1 SSTORE PUSH1 0x20 DUP1 SLOAD DUP3 AND PUSH20 0x45094071C4DAAF6A9A73B0A0F095A2B138BD8A3A OR DUP2 SSTORE PUSH1 0x21 DUP1 SLOAD DUP4 AND PUSH20 0xAEB26FB84D0E2B3B353CD50F0A29FD40C916D2AB OR SWAP1 SSTORE PUSH1 0x22 DUP1 SLOAD DUP4 AND PUSH20 0xE61E7A7D16DB384433E532FB85724E7F3BDAAE2F OR SWAP1 SSTORE PUSH1 0x23 DUP1 SLOAD DUP4 AND PUSH20 0x406605EB24A97A2D61B516D8D850F2AEFA6A731A OR SWAP1 SSTORE PUSH1 0x24 DUP1 SLOAD SWAP1 SWAP3 AND PUSH20 0x97620DEADC98BC8173303686037CE7B986CF53C3 OR SWAP1 SWAP2 SSTORE DUP2 SLOAD PUSH1 0x40 DUP1 MLOAD DUP3 DUP5 MUL DUP2 ADD DUP5 ADD SWAP1 SWAP2 MSTORE DUP2 DUP2 MSTORE PUSH3 0x35E SWAP4 SWAP1 SWAP3 SWAP1 SWAP2 SWAP1 DUP4 ADD DUP3 DUP3 DUP1 ISZERO PUSH3 0x352 JUMPI PUSH1 0x20 MUL DUP3 ADD SWAP2 SWAP1 PUSH1 0x0 MSTORE PUSH1 0x20 PUSH1 0x0 KECCAK256 SWAP1 JUMPDEST DUP2 SLOAD PUSH1 0x1 PUSH1 0x1 PUSH1 0xA0 SHL SUB AND DUP2 MSTORE PUSH1 0x1 SWAP1 SWAP2 ADD SWAP1 PUSH1 0x20 ADD DUP1 DUP4 GT PUSH3 0x333 JUMPI JUMPDEST POP POP PUSH3 0xACF SWAP3 POP POP POP JUMP JUMPDEST PUSH11 0xE7CBBD7AA8310AE400000 PUSH1 0x13 SSTORE ADDRESS PUSH1 0x0 SWAP1 DUP2 MSTORE PUSH1 0xB PUSH1 0x20 SWAP1 DUP2 MSTORE PUSH1 0x40 DUP1 DUP4 KECCAK256 PUSH11 0x2B6D4EB3E906BB84800000 SWAP1 SSTORE PUSH1 0x19 SLOAD PUSH1 0x1 PUSH1 0x1 PUSH1 0xA0 SHL SUB SWAP1 DUP2 AND DUP5 MSTORE DUP2 DUP5 KECCAK256 PUSH11 0x22BDD88FED9EFC6A000000 SWAP1 DUP2 SWAP1 SSTORE PUSH1 0x1A SLOAD SWAP1 SWAP2 AND DUP5 MSTORE SWAP3 DUP2 SWAP1 KECCAK256 PUSH11 0x5C8D34A23DA1650A00000 SWAP1 SSTORE DUP1 MLOAD PUSH1 0x60 DUP2 ADD SWAP1 SWAP2 MSTORE PUSH1 0x32 DUP1 DUP3 MSTORE PUSH3 0x3FE SWAP4 SWAP3 PUSH3 0x733C SWAP1 DUP4 ADD CODECOPY PUSH1 0xF SLOAD PUSH3 0xE81 PUSH1 0x20 SHL PUSH3 0x2309 OR SWAP1 SWAP3 SWAP2 SWAP1 PUSH1 0x20 SHR JUMP JUMPDEST PUSH1 0xF DUP2 SWAP1 SSTORE POP PUSH3 0x446 PUSH11 0x5C8D34A23DA1650A00000 PUSH1 0x40 MLOAD DUP1 PUSH1 0x60 ADD PUSH1 0x40 MSTORE DUP1 PUSH1 0x32 DUP2 MSTORE PUSH1 0x20 ADD PUSH3 0x733C PUSH1 0x32 SWAP2 CODECOPY PUSH1 0xF SLOAD PUSH3 0xE81 PUSH1 0x20 SHL PUSH3 0x2309 OR SWAP1 SWAP3 SWAP2 SWAP1 PUSH1 0x20 SHR JUMP JUMPDEST PUSH1 0xF DUP2 SWAP1 SSTORE POP PUSH3 0x48E PUSH11 0x5C8D34A23DA1650A00000 PUSH1 0x40 MLOAD DUP1 PUSH1 0x60 ADD PUSH1 0x40 MSTORE DUP1 PUSH1 0x32 DUP2 MSTORE PUSH1 0x20 ADD PUSH3 0x733C PUSH1 0x32 SWAP2 CODECOPY PUSH1 0xF SLOAD PUSH3 0xE81 PUSH1 0x20 SHL PUSH3 0x2309 OR SWAP1 SWAP3 SWAP2 SWAP1 PUSH1 0x20 SHR JUMP JUMPDEST PUSH1 0xF DUP2 SWAP1 SSTORE POP PUSH3 0x4CD PUSH1 0x13 SLOAD PUSH1 0x40 MLOAD DUP1 PUSH1 0x60 ADD PUSH1 0x40 MSTORE DUP1 PUSH1 0x32 DUP2 MSTORE PUSH1 0x20 ADD PUSH3 0x733C PUSH1 0x32 SWAP2 CODECOPY PUSH1 0xF SLOAD PUSH3 0xE81 PUSH1 0x20 SHL PUSH3 0x2309 OR SWAP1 SWAP3 SWAP2 SWAP1 PUSH1 0x20 SHR JUMP JUMPDEST PUSH1 0xF SSTORE PUSH1 0x1B SLOAD PUSH1 0x40 MLOAD PUSH11 0x5C8D34A23DA1650A00000 SWAP2 PUSH1 0x1 PUSH1 0x1 PUSH1 0xA0 SHL SUB AND SWAP1 PUSH3 0x4F8 SWAP1 PUSH3 0x13DC JUMP JUMPDEST SWAP2 DUP3 MSTORE PUSH1 0x1 PUSH1 0x1 PUSH1 0xA0 SHL SUB AND PUSH1 0x20 DUP3 ADD MSTORE PUSH1 0x40 ADD PUSH1 0x40 MLOAD DUP1 SWAP2 SUB SWAP1 PUSH1 0x0 CREATE DUP1 ISZERO DUP1 ISZERO PUSH3 0x529 JUMPI RETURNDATASIZE PUSH1 0x0 DUP1 RETURNDATACOPY RETURNDATASIZE PUSH1 0x0 REVERT JUMPDEST POP PUSH1 0x25 DUP1 SLOAD PUSH1 0x1 PUSH1 0x1 PUSH1 0xA0 SHL SUB NOT AND PUSH1 0x1 PUSH1 0x1 PUSH1 0xA0 SHL SUB SWAP3 DUP4 AND OR SWAP1 SSTORE PUSH1 0x1C SLOAD PUSH1 0x40 MLOAD PUSH11 0xB949D854F34FECE000000 SWAP3 SWAP2 SWAP1 SWAP2 AND SWAP1 PUSH3 0x569 SWAP1 PUSH3 0x13DC JUMP JUMPDEST SWAP2 DUP3 MSTORE PUSH1 0x1 PUSH1 0x1 PUSH1 0xA0 SHL SUB AND PUSH1 0x20 DUP3 ADD MSTORE PUSH1 0x40 ADD PUSH1 0x40 MLOAD DUP1 SWAP2 SUB SWAP1 PUSH1 0x0 CREATE DUP1 ISZERO DUP1 ISZERO PUSH3 0x59A JUMPI RETURNDATASIZE PUSH1 0x0 DUP1 RETURNDATACOPY RETURNDATASIZE PUSH1 0x0 REVERT JUMPDEST POP PUSH1 0x26 DUP1 SLOAD PUSH1 0x1 PUSH1 0x1 PUSH1 0xA0 SHL SUB NOT AND PUSH1 0x1 PUSH1 0x1 PUSH1 0xA0 SHL SUB SWAP3 DUP4 AND OR SWAP1 SSTORE PUSH1 0x1D SLOAD PUSH1 0x40 MLOAD PUSH11 0xB949D854F34FECE000000 SWAP3 SWAP2 SWAP1 SWAP2 AND SWAP1 PUSH3 0x5DA SWAP1 PUSH3 0x13DC JUMP JUMPDEST SWAP2 DUP3 MSTORE PUSH1 0x1 PUSH1 0x1 PUSH1 0xA0 SHL SUB AND PUSH1 0x20 DUP3 ADD MSTORE PUSH1 0x40 ADD PUSH1 0x40 MLOAD DUP1 SWAP2 SUB SWAP1 PUSH1 0x0 CREATE DUP1 ISZERO DUP1 ISZERO PUSH3 0x60B JUMPI RETURNDATASIZE PUSH1 0x0 DUP1 RETURNDATACOPY RETURNDATASIZE PUSH1 0x0 REVERT JUMPDEST POP PUSH1 0x27 DUP1 SLOAD PUSH1 0x1 PUSH1 0x1 PUSH1 0xA0 SHL SUB NOT AND PUSH1 0x1 PUSH1 0x1 PUSH1 0xA0 SHL SUB SWAP3 DUP4 AND OR SWAP1 SSTORE PUSH1 0x1E SLOAD PUSH1 0x40 MLOAD PUSH11 0xB949D854F34FECE000000 SWAP3 SWAP2 SWAP1 SWAP2 AND SWAP1 PUSH3 0x64B SWAP1 PUSH3 0x13DC JUMP JUMPDEST SWAP2 DUP3 MSTORE PUSH1 0x1 PUSH1 0x1 PUSH1 0xA0 SHL SUB AND PUSH1 0x20 DUP3 ADD MSTORE PUSH1 0x40 ADD PUSH1 0x40 MLOAD DUP1 SWAP2 SUB SWAP1 PUSH1 0x0 CREATE DUP1 ISZERO DUP1 ISZERO PUSH3 0x67C JUMPI RETURNDATASIZE PUSH1 0x0 DUP1 RETURNDATACOPY RETURNDATASIZE PUSH1 0x0 REVERT JUMPDEST POP PUSH1 0x28 DUP1 SLOAD PUSH1 0x1 PUSH1 0x1 PUSH1 0xA0 SHL SUB NOT AND PUSH1 0x1 PUSH1 0x1 PUSH1 0xA0 SHL SUB SWAP3 DUP4 AND OR SWAP1 SSTORE PUSH1 0x1F SLOAD PUSH1 0x40 MLOAD PUSH11 0x2E5276153CD3FB3800000 SWAP3 SWAP2 SWAP1 SWAP2 AND SWAP1 PUSH3 0x6BC SWAP1 PUSH3 0x13DC JUMP JUMPDEST SWAP2 DUP3 MSTORE PUSH1 0x1 PUSH1 0x1 PUSH1 0xA0 SHL SUB AND PUSH1 0x20 DUP3 ADD MSTORE PUSH1 0x40 ADD PUSH1 0x40 MLOAD DUP1 SWAP2 SUB SWAP1 PUSH1 0x0 CREATE DUP1 ISZERO DUP1 ISZERO PUSH3 0x6ED JUMPI RETURNDATASIZE PUSH1 0x0 DUP1 RETURNDATACOPY RETURNDATASIZE PUSH1 0x0 REVERT JUMPDEST POP PUSH1 0x29 DUP1 SLOAD PUSH1 0x1 PUSH1 0x1 PUSH1 0xA0 SHL SUB NOT AND PUSH1 0x1 PUSH1 0x1 PUSH1 0xA0 SHL SUB SWAP3 DUP4 AND OR SWAP1 SSTORE PUSH1 0x20 SLOAD PUSH1 0x40 MLOAD PUSH11 0x2E5276153CD3FB3800000 SWAP3 SWAP2 SWAP1 SWAP2 AND SWAP1 PUSH3 0x72D SWAP1 PUSH3 0x13DC JUMP JUMPDEST SWAP2 DUP3 MSTORE PUSH1 0x1 PUSH1 0x1 PUSH1 0xA0 SHL SUB AND PUSH1 0x20 DUP3 ADD MSTORE PUSH1 0x40 ADD PUSH1 0x40 MLOAD DUP1 SWAP2 SUB SWAP1 PUSH1 0x0 CREATE DUP1 ISZERO DUP1 ISZERO PUSH3 0x75E JUMPI RETURNDATASIZE PUSH1 0x0 DUP1 RETURNDATACOPY RETURNDATASIZE PUSH1 0x0 REVERT JUMPDEST POP PUSH1 0x2A DUP1 SLOAD PUSH1 0x1 PUSH1 0x1 PUSH1 0xA0 SHL SUB NOT AND PUSH1 0x1 PUSH1 0x1 PUSH1 0xA0 SHL SUB SWAP3 DUP4 AND OR SWAP1 SSTORE PUSH1 0x21 SLOAD PUSH1 0x40 MLOAD PUSH11 0x2E5276153CD3FB3800000 SWAP3 SWAP2 SWAP1 SWAP2 AND SWAP1 PUSH3 0x79E SWAP1 PUSH3 0x13DC JUMP JUMPDEST SWAP2 DUP3 MSTORE PUSH1 0x1 PUSH1 0x1 PUSH1 0xA0 SHL SUB AND PUSH1 0x20 DUP3 ADD MSTORE PUSH1 0x40 ADD PUSH1 0x40 MLOAD DUP1 SWAP2 SUB SWAP1 PUSH1 0x0 CREATE DUP1 ISZERO DUP1 ISZERO PUSH3 0x7CF JUMPI RETURNDATASIZE PUSH1 0x0 DUP1 RETURNDATACOPY RETURNDATASIZE PUSH1 0x0 REVERT JUMPDEST POP PUSH1 0x2B DUP1 SLOAD PUSH1 0x1 PUSH1 0x1 PUSH1 0xA0 SHL SUB NOT AND PUSH1 0x1 PUSH1 0x1 PUSH1 0xA0 SHL SUB SWAP3 DUP4 AND OR SWAP1 SSTORE PUSH1 0x22 SLOAD PUSH1 0x40 MLOAD PUSH11 0x8AF7623FB67BF1A800000 SWAP3 SWAP2 SWAP1 SWAP2 AND SWAP1 PUSH3 0x80F SWAP1 PUSH3 0x13DC JUMP JUMPDEST SWAP2 DUP3 MSTORE PUSH1 0x1 PUSH1 0x1 PUSH1 0xA0 SHL SUB AND PUSH1 0x20 DUP3 ADD MSTORE PUSH1 0x40 ADD PUSH1 0x40 MLOAD DUP1 SWAP2 SUB SWAP1 PUSH1 0x0 CREATE DUP1 ISZERO DUP1 ISZERO PUSH3 0x840 JUMPI RETURNDATASIZE PUSH1 0x0 DUP1 RETURNDATACOPY RETURNDATASIZE PUSH1 0x0 REVERT JUMPDEST POP PUSH1 0x2C DUP1 SLOAD PUSH1 0x1 PUSH1 0x1 PUSH1 0xA0 SHL SUB NOT AND PUSH1 0x1 PUSH1 0x1 PUSH1 0xA0 SHL SUB SWAP3 DUP4 AND OR SWAP1 SSTORE PUSH1 0x23 SLOAD PUSH1 0x40 MLOAD PUSH11 0x8AF7623FB67BF1A800000 SWAP3 SWAP2 SWAP1 SWAP2 AND SWAP1 PUSH3 0x880 SWAP1 PUSH3 0x13DC JUMP JUMPDEST SWAP2 DUP3 MSTORE PUSH1 0x1 PUSH1 0x1 PUSH1 0xA0 SHL SUB AND PUSH1 0x20 DUP3 ADD MSTORE PUSH1 0x40 ADD PUSH1 0x40 MLOAD DUP1 SWAP2 SUB SWAP1 PUSH1 0x0 CREATE DUP1 ISZERO DUP1 ISZERO PUSH3 0x8B1 JUMPI RETURNDATASIZE PUSH1 0x0 DUP1 RETURNDATACOPY RETURNDATASIZE PUSH1 0x0 REVERT JUMPDEST POP PUSH1 0x2D DUP1 SLOAD PUSH1 0x1 PUSH1 0x1 PUSH1 0xA0 SHL SUB NOT AND PUSH1 0x1 PUSH1 0x1 PUSH1 0xA0 SHL SUB SWAP3 DUP4 AND OR SWAP1 SSTORE PUSH1 0x24 SLOAD PUSH1 0x40 MLOAD PUSH11 0x8AF7623FB67BF1A800000 SWAP3 SWAP2 SWAP1 SWAP2 AND SWAP1 PUSH3 0x8F1 SWAP1 PUSH3 0x13DC JUMP JUMPDEST SWAP2 DUP3 MSTORE PUSH1 0x1 PUSH1 0x1 PUSH1 0xA0 SHL SUB AND PUSH1 0x20 DUP3 ADD MSTORE PUSH1 0x40 ADD PUSH1 0x40 MLOAD DUP1 SWAP2 SUB SWAP1 PUSH1 0x0 CREATE DUP1 ISZERO DUP1 ISZERO PUSH3 0x922 JUMPI RETURNDATASIZE PUSH1 0x0 DUP1 RETURNDATACOPY RETURNDATASIZE PUSH1 0x0 REVERT JUMPDEST POP PUSH1 0x2E PUSH1 0x0 PUSH2 0x100 EXP DUP2 SLOAD DUP2 PUSH1 0x1 PUSH1 0x1 PUSH1 0xA0 SHL SUB MUL NOT AND SWAP1 DUP4 PUSH1 0x1 PUSH1 0x1 PUSH1 0xA0 SHL SUB AND MUL OR SWAP1 SSTORE POP PUSH3 0x98B PUSH11 0x22BDD88FED9EFC6A000000 PUSH1 0x40 MLOAD DUP1 PUSH1 0x60 ADD PUSH1 0x40 MSTORE DUP1 PUSH1 0x32 DUP2 MSTORE PUSH1 0x20 ADD PUSH3 0x733C PUSH1 0x32 SWAP2 CODECOPY PUSH1 0xF SLOAD PUSH3 0xE81 PUSH1 0x20 SHL PUSH3 0x2309 OR SWAP1 SWAP3 SWAP2 SWAP1 PUSH1 0x20 SHR JUMP JUMPDEST PUSH1 0xF DUP2 SWAP1 SSTORE POP PUSH3 0x9D3 PUSH11 0x8AF7623FB67BF1A800000 PUSH1 0x40 MLOAD DUP1 PUSH1 0x60 ADD PUSH1 0x40 MSTORE DUP1 PUSH1 0x32 DUP2 MSTORE PUSH1 0x20 ADD PUSH3 0x733C PUSH1 0x32 SWAP2 CODECOPY PUSH1 0xF SLOAD PUSH3 0xE81 PUSH1 0x20 SHL PUSH3 0x2309 OR SWAP1 SWAP3 SWAP2 SWAP1 PUSH1 0x20 SHR JUMP JUMPDEST PUSH1 0xF DUP2 SWAP1 SSTORE POP PUSH3 0xA1B PUSH11 0x1A0E626BF2373D4F800000 PUSH1 0x40 MLOAD DUP1 PUSH1 0x60 ADD PUSH1 0x40 MSTORE DUP1 PUSH1 0x32 DUP2 MSTORE PUSH1 0x20 ADD PUSH3 0x733C PUSH1 0x32 SWAP2 CODECOPY PUSH1 0xF SLOAD PUSH3 0xE81 PUSH1 0x20 SHL PUSH3 0x2309 OR SWAP1 SWAP3 SWAP2 SWAP1 PUSH1 0x20 SHR JUMP JUMPDEST PUSH1 0xF SSTORE PUSH1 0xE DUP1 SLOAD PUSH2 0xFFFF NOT AND PUSH1 0x1 OR SWAP1 SSTORE PUSH1 0xD PUSH1 0x20 MSTORE PUSH1 0x5 PUSH32 0xB5D828E80C396D3BADD29BCF8358CFE154D524805C56B23C27577B2F19D46489 SSTORE PUSH1 0x6 PUSH32 0xAE2635022F4FF726246BBB086E3F5A63C5F54504807A8668AEFF811A8C8FC3F1 SSTORE PUSH1 0x7 PUSH32 0xA649DE24BB786AE7F0E2B3F43C2D9A6ABA6ECCD959D4742E69795DE968DBF8F3 SSTORE PUSH4 0x1E13380 PUSH1 0x0 MSTORE PUSH1 0x8 PUSH32 0x19BA0C7E0E93FEC8EA1A23D3C3B239DD59E1AFB12CCAB7FACAB51180087DE8E5 SSTORE PUSH3 0x1747 JUMP JUMPDEST PUSH1 0x1 SLOAD PUSH3 0xADD SWAP1 PUSH3 0xEB0 JUMP JUMPDEST ISZERO PUSH3 0xE7E JUMPI PUSH1 0x3 SLOAD PUSH1 0x1 PUSH1 0x1 PUSH1 0xA0 SHL SUB AND ISZERO DUP1 ISZERO PUSH3 0xB10 JUMPI PUSH1 0x3 DUP1 SLOAD PUSH1 0x1 PUSH1 0x1 PUSH1 0xA0 SHL SUB NOT AND CALLER OR SWAP1 SSTORE PUSH1 0x1 SLOAD PUSH1 0x4 SSTORE JUMPDEST PUSH1 0x0 DUP3 MLOAD GT PUSH3 0xB67 JUMPI PUSH1 0x40 MLOAD PUSH3 0x461BCD PUSH1 0xE5 SHL DUP2 MSTORE PUSH1 0x20 PUSH1 0x4 DUP3 ADD MSTORE PUSH1 0x28 PUSH1 0x24 DUP3 ADD MSTORE PUSH1 0x0 DUP1 MLOAD PUSH1 0x20 PUSH3 0x736E DUP4 CODECOPY DUP2 MLOAD SWAP2 MSTORE PUSH1 0x44 DUP3 ADD MSTORE PUSH8 0x697320656D707479 PUSH1 0xC0 SHL PUSH1 0x64 DUP3 ADD MSTORE PUSH1 0x84 ADD JUMPDEST PUSH1 0x40 MLOAD DUP1 SWAP2 SUB SWAP1 REVERT JUMPDEST PUSH2 0x100 DUP3 MLOAD GT ISZERO PUSH3 0xBE2 JUMPI PUSH1 0x40 MLOAD PUSH3 0x461BCD PUSH1 0xE5 SHL DUP2 MSTORE PUSH1 0x20 PUSH1 0x4 DUP3 ADD MSTORE PUSH1 0x33 PUSH1 0x24 DUP3 ADD MSTORE PUSH32 0x7472616E736665724F776E6572736869703A206F776E65727320636F756E7420 PUSH1 0x44 DUP3 ADD MSTORE PUSH32 0x69732067726561746572207468656E2032353600000000000000000000000000 PUSH1 0x64 DUP3 ADD MSTORE PUSH1 0x84 ADD PUSH3 0xB5E JUMP JUMPDEST PUSH1 0x0 JUMPDEST PUSH1 0x1 SLOAD DUP2 LT ISZERO PUSH3 0xC44 JUMPI PUSH1 0x5 PUSH1 0x0 PUSH1 0x1 DUP4 DUP2 SLOAD DUP2 LT PUSH3 0xC0A JUMPI PUSH3 0xC0A PUSH3 0x1474 JUMP JUMPDEST PUSH1 0x0 SWAP2 DUP3 MSTORE PUSH1 0x20 DUP1 DUP4 KECCAK256 SWAP1 SWAP2 ADD SLOAD PUSH1 0x1 PUSH1 0x1 PUSH1 0xA0 SHL SUB AND DUP4 MSTORE DUP3 ADD SWAP3 SWAP1 SWAP3 MSTORE PUSH1 0x40 ADD DUP2 KECCAK256 SSTORE DUP1 PUSH3 0xC3B DUP2 PUSH3 0x14A0 JUMP JUMPDEST SWAP2 POP POP PUSH3 0xBE5 JUMP JUMPDEST POP PUSH1 0x0 JUMPDEST DUP3 MLOAD DUP2 LT ISZERO PUSH3 0xDE8 JUMPI PUSH1 0x0 PUSH1 0x1 PUSH1 0x1 PUSH1 0xA0 SHL SUB AND DUP4 DUP3 DUP2 MLOAD DUP2 LT PUSH3 0xC72 JUMPI PUSH3 0xC72 PUSH3 0x1474 JUMP JUMPDEST PUSH1 0x20 MUL PUSH1 0x20 ADD ADD MLOAD PUSH1 0x1 PUSH1 0x1 PUSH1 0xA0 SHL SUB AND EQ ISZERO PUSH3 0xCD8 JUMPI PUSH1 0x40 MLOAD PUSH3 0x461BCD PUSH1 0xE5 SHL DUP2 MSTORE PUSH1 0x20 PUSH1 0x4 DUP3 ADD MSTORE PUSH1 0x2D PUSH1 0x24 DUP3 ADD MSTORE PUSH1 0x0 DUP1 MLOAD PUSH1 0x20 PUSH3 0x736E DUP4 CODECOPY DUP2 MLOAD SWAP2 MSTORE PUSH1 0x44 DUP3 ADD MSTORE PUSH13 0x636F6E7461696E73207A65726F PUSH1 0x98 SHL PUSH1 0x64 DUP3 ADD MSTORE PUSH1 0x84 ADD PUSH3 0xB5E JUMP JUMPDEST PUSH1 0x5 PUSH1 0x0 DUP5 DUP4 DUP2 MLOAD DUP2 LT PUSH3 0xCF1 JUMPI PUSH3 0xCF1 PUSH3 0x1474 JUMP JUMPDEST PUSH1 0x20 MUL PUSH1 0x20 ADD ADD MLOAD PUSH1 0x1 PUSH1 0x1 PUSH1 0xA0 SHL SUB AND PUSH1 0x1 PUSH1 0x1 PUSH1 0xA0 SHL SUB AND DUP2 MSTORE PUSH1 0x20 ADD SWAP1 DUP2 MSTORE PUSH1 0x20 ADD PUSH1 0x0 KECCAK256 SLOAD PUSH1 0x0 EQ PUSH3 0xD80 JUMPI PUSH1 0x40 MLOAD PUSH3 0x461BCD PUSH1 0xE5 SHL DUP2 MSTORE PUSH1 0x20 PUSH1 0x4 DUP3 ADD MSTORE PUSH1 0x33 PUSH1 0x24 DUP3 ADD MSTORE PUSH1 0x0 DUP1 MLOAD PUSH1 0x20 PUSH3 0x736E DUP4 CODECOPY DUP2 MLOAD SWAP2 MSTORE PUSH1 0x44 DUP3 ADD MSTORE PUSH32 0x636F6E7461696E73206475706C69636174657300000000000000000000000000 PUSH1 0x64 DUP3 ADD MSTORE PUSH1 0x84 ADD PUSH3 0xB5E JUMP JUMPDEST PUSH3 0xD8D DUP2 PUSH1 0x1 PUSH3 0x14BE JUMP JUMPDEST PUSH1 0x5 PUSH1 0x0 DUP6 DUP5 DUP2 MLOAD DUP2 LT PUSH3 0xDA6 JUMPI PUSH3 0xDA6 PUSH3 0x1474 JUMP JUMPDEST PUSH1 0x20 MUL PUSH1 0x20 ADD ADD MLOAD PUSH1 0x1 PUSH1 0x1 PUSH1 0xA0 SHL SUB AND PUSH1 0x1 PUSH1 0x1 PUSH1 0xA0 SHL SUB AND DUP2 MSTORE PUSH1 0x20 ADD SWAP1 DUP2 MSTORE PUSH1 0x20 ADD PUSH1 0x0 KECCAK256 DUP2 SWAP1 SSTORE POP DUP1 DUP1 PUSH3 0xDDF SWAP1 PUSH3 0x14A0 JUMP JUMPDEST SWAP2 POP POP PUSH3 0xC48 JUMP JUMPDEST POP PUSH32 0xE62C04BB3499D4F432A50E07318D42861C4865AFB22EE4CFE403D4F945507090 PUSH1 0x1 DUP4 PUSH1 0x40 MLOAD PUSH3 0xE1D SWAP3 SWAP2 SWAP1 PUSH3 0x14D9 JUMP JUMPDEST PUSH1 0x40 MLOAD DUP1 SWAP2 SUB SWAP1 LOG1 DUP2 MLOAD PUSH3 0xE3A SWAP1 PUSH1 0x1 SWAP1 PUSH1 0x20 DUP6 ADD SWAP1 PUSH3 0x13EA JUMP JUMPDEST POP PUSH3 0xE49 PUSH1 0x2 PUSH1 0x0 PUSH3 0x1442 JUMP JUMPDEST PUSH1 0x0 DUP1 SLOAD SWAP1 DUP1 PUSH3 0xE5A DUP4 PUSH3 0x14A0 JUMP JUMPDEST SWAP2 SWAP1 POP SSTORE POP DUP1 ISZERO PUSH3 0xE7C JUMPI PUSH1 0x3 DUP1 SLOAD PUSH1 0x1 PUSH1 0x1 PUSH1 0xA0 SHL SUB NOT AND SWAP1 SSTORE PUSH1 0x0 PUSH1 0x4 SSTORE JUMPDEST POP JUMPDEST POP JUMP JUMPDEST PUSH1 0x0 DUP2 DUP5 DUP5 GT ISZERO PUSH3 0xEA8 JUMPI PUSH1 0x40 MLOAD PUSH3 0x461BCD PUSH1 0xE5 SHL DUP2 MSTORE PUSH1 0x4 ADD PUSH3 0xB5E SWAP2 SWAP1 PUSH3 0x1572 JUMP JUMPDEST POP POP POP SWAP1 SUB SWAP1 JUMP JUMPDEST PUSH1 0x3 SLOAD PUSH1 0x0 SWAP1 PUSH1 0x1 PUSH1 0x1 PUSH1 0xA0 SHL SUB AND CALLER EQ ISZERO PUSH3 0xF57 JUMPI PUSH1 0x4 SLOAD DUP3 GT ISZERO PUSH3 0xF4F JUMPI PUSH1 0x40 MLOAD PUSH3 0x461BCD PUSH1 0xE5 SHL DUP2 MSTORE PUSH1 0x20 PUSH1 0x4 DUP3 ADD MSTORE PUSH1 0x44 PUSH1 0x24 DUP3 ADD DUP2 SWAP1 MSTORE PUSH32 0x636865636B486F774D616E794F776E6572733A206E6573746564206F776E6572 SWAP1 DUP3 ADD MSTORE PUSH32 0x73206D6F64696669657220636865636B2072657175697265206D6F7265206F77 PUSH1 0x64 DUP3 ADD MSTORE PUSH4 0x6E657273 PUSH1 0xE0 SHL PUSH1 0x84 DUP3 ADD MSTORE PUSH1 0xA4 ADD PUSH3 0xB5E JUMP JUMPDEST POP PUSH1 0x1 SWAP2 SWAP1 POP JUMP JUMPDEST CALLER PUSH1 0x0 SWAP1 DUP2 MSTORE PUSH1 0x5 PUSH1 0x20 MSTORE PUSH1 0x40 SWAP1 KECCAK256 SLOAD ISZERO ISZERO PUSH1 0x1 EQ PUSH3 0xFD1 JUMPI PUSH1 0x40 MLOAD PUSH3 0x461BCD PUSH1 0xE5 SHL DUP2 MSTORE PUSH1 0x20 PUSH1 0x4 DUP3 ADD MSTORE PUSH1 0x2E PUSH1 0x24 DUP3 ADD MSTORE PUSH32 0x636865636B486F774D616E794F776E6572733A206D73672E73656E6465722069 PUSH1 0x44 DUP3 ADD MSTORE PUSH14 0x39903737BA1030B71037BBB732B9 PUSH1 0x91 SHL PUSH1 0x64 DUP3 ADD MSTORE PUSH1 0x84 ADD PUSH3 0xB5E JUMP JUMPDEST CALLER PUSH1 0x0 SWAP1 DUP2 MSTORE PUSH1 0x5 PUSH1 0x20 MSTORE PUSH1 0x40 DUP2 KECCAK256 SLOAD PUSH3 0xFEF SWAP1 PUSH1 0x1 SWAP1 PUSH3 0x15CA JUMP JUMPDEST SWAP1 POP PUSH1 0x0 DUP1 CALLDATASIZE PUSH1 0x0 SLOAD PUSH1 0x40 MLOAD PUSH1 0x20 ADD PUSH3 0x100C SWAP4 SWAP3 SWAP2 SWAP1 PUSH3 0x15E4 JUMP JUMPDEST PUSH1 0x40 MLOAD PUSH1 0x20 DUP2 DUP4 SUB SUB DUP2 MSTORE SWAP1 PUSH1 0x40 MSTORE DUP1 MLOAD SWAP1 PUSH1 0x20 ADD KECCAK256 SWAP1 POP DUP2 PUSH1 0x2 PUSH3 0x1033 SWAP2 SWAP1 PUSH3 0x16F5 JUMP JUMPDEST PUSH1 0x0 DUP3 DUP2 MSTORE PUSH1 0x7 PUSH1 0x20 MSTORE PUSH1 0x40 SWAP1 KECCAK256 SLOAD AND ISZERO PUSH3 0x10B8 JUMPI PUSH1 0x40 MLOAD PUSH3 0x461BCD PUSH1 0xE5 SHL DUP2 MSTORE PUSH1 0x20 PUSH1 0x4 DUP3 ADD MSTORE PUSH1 0x39 PUSH1 0x24 DUP3 ADD MSTORE PUSH32 0x636865636B486F774D616E794F776E6572733A206F776E657220616C72656164 PUSH1 0x44 DUP3 ADD MSTORE PUSH32 0x7920766F74656420666F7220746865206F7065726174696F6E00000000000000 PUSH1 0x64 DUP3 ADD MSTORE PUSH1 0x84 ADD PUSH3 0xB5E JUMP JUMPDEST PUSH3 0x10C5 DUP3 PUSH1 0x2 PUSH3 0x16F5 JUMP JUMPDEST PUSH1 0x0 DUP3 DUP2 MSTORE PUSH1 0x7 PUSH1 0x20 SWAP1 DUP2 MSTORE PUSH1 0x40 DUP1 DUP4 KECCAK256 DUP1 SLOAD SWAP1 SWAP5 OR SWAP1 SWAP4 SSTORE PUSH1 0x8 SWAP1 MSTORE SWAP1 DUP2 KECCAK256 SLOAD PUSH3 0x10F3 SWAP1 PUSH1 0x1 PUSH3 0x14BE JUMP JUMPDEST PUSH1 0x0 DUP4 DUP2 MSTORE PUSH1 0x8 PUSH1 0x20 MSTORE PUSH1 0x40 SWAP1 KECCAK256 DUP2 SWAP1 SSTORE SWAP1 POP PUSH1 0x1 DUP2 EQ ISZERO PUSH3 0x119E JUMPI PUSH1 0x2 DUP1 SLOAD PUSH1 0x0 DUP5 DUP2 MSTORE PUSH1 0x6 PUSH1 0x20 SWAP1 DUP2 MSTORE PUSH1 0x40 DUP1 DUP4 KECCAK256 DUP5 SWAP1 SSTORE PUSH1 0x1 DUP1 DUP6 ADD DUP7 SSTORE SWAP5 SWAP1 SWAP3 MSTORE PUSH32 0x405787FA12A823E0F2B7631CC41B3BA8828B3321CA811111FA75CD3AA3BB5ACE SWAP1 SWAP3 ADD DUP6 SWAP1 SSTORE SWAP2 SLOAD DUP3 MLOAD DUP6 DUP2 MSTORE SWAP2 DUP3 ADD DUP9 SWAP1 MSTORE DUP2 DUP4 ADD MSTORE CALLER PUSH1 0x60 DUP3 ADD MSTORE SWAP1 MLOAD PUSH32 0x6BAB0114F9524353D2D33E64EDD3EBBD16E21EDD57DE2226BA76C310A7CE2265 SWAP2 DUP2 SWAP1 SUB PUSH1 0x80 ADD SWAP1 LOG1 JUMPDEST PUSH1 0x1 SLOAD PUSH1 0x40 DUP1 MLOAD DUP5 DUP2 MSTORE PUSH1 0x20 DUP2 ADD DUP5 SWAP1 MSTORE DUP1 DUP3 ADD DUP9 SWAP1 MSTORE PUSH1 0x60 DUP2 ADD SWAP3 SWAP1 SWAP3 MSTORE CALLER PUSH1 0x80 DUP4 ADD MSTORE MLOAD PUSH32 0x8DD9582C6577AEA81973B5ADEB6C135F6E18565D99578B7BA0C9377437EC0221 SWAP2 DUP2 SWAP1 SUB PUSH1 0xA0 ADD SWAP1 LOG1 PUSH1 0x0 DUP3 DUP2 MSTORE PUSH1 0x8 PUSH1 0x20 MSTORE PUSH1 0x40 SWAP1 KECCAK256 SLOAD DUP6 EQ ISZERO PUSH3 0x1264 JUMPI PUSH3 0x1210 DUP3 PUSH3 0x126F JUMP JUMPDEST PUSH1 0x1 SLOAD PUSH1 0x40 DUP1 MLOAD DUP5 DUP2 MSTORE PUSH1 0x20 DUP2 ADD DUP9 SWAP1 MSTORE DUP1 DUP3 ADD SWAP3 SWAP1 SWAP3 MSTORE CALLER PUSH1 0x60 DUP4 ADD MSTORE MLOAD PUSH32 0x8A11C8CA99994C292318CE367F65BF6FF61D390BC814B3588496F6FBCC32807A SWAP2 DUP2 SWAP1 SUB PUSH1 0x80 ADD SWAP1 LOG1 POP PUSH1 0x1 SWAP5 SWAP4 POP POP POP POP JUMP JUMPDEST POP PUSH1 0x0 SWAP5 SWAP4 POP POP POP POP JUMP JUMPDEST PUSH1 0x0 DUP2 DUP2 MSTORE PUSH1 0x6 PUSH1 0x20 MSTORE PUSH1 0x40 SWAP1 KECCAK256 SLOAD PUSH1 0x2 SLOAD PUSH3 0x128F SWAP1 PUSH1 0x1 SWAP1 PUSH3 0x15CA JUMP JUMPDEST DUP2 LT ISZERO PUSH3 0x1324 JUMPI PUSH1 0x2 DUP1 SLOAD PUSH3 0x12A9 SWAP1 PUSH1 0x1 SWAP1 PUSH3 0x15CA JUMP JUMPDEST DUP2 SLOAD DUP2 LT PUSH3 0x12BC JUMPI PUSH3 0x12BC PUSH3 0x1474 JUMP JUMPDEST SWAP1 PUSH1 0x0 MSTORE PUSH1 0x20 PUSH1 0x0 KECCAK256 ADD SLOAD PUSH1 0x2 DUP3 DUP2 SLOAD DUP2 LT PUSH3 0x12DD JUMPI PUSH3 0x12DD PUSH3 0x1474 JUMP JUMPDEST SWAP1 PUSH1 0x0 MSTORE PUSH1 0x20 PUSH1 0x0 KECCAK256 ADD DUP2 SWAP1 SSTORE POP DUP1 PUSH1 0x6 PUSH1 0x0 PUSH1 0x2 DUP5 DUP2 SLOAD DUP2 LT PUSH3 0x1306 JUMPI PUSH3 0x1306 PUSH3 0x1474 JUMP JUMPDEST SWAP1 PUSH1 0x0 MSTORE PUSH1 0x20 PUSH1 0x0 KECCAK256 ADD SLOAD DUP2 MSTORE PUSH1 0x20 ADD SWAP1 DUP2 MSTORE PUSH1 0x20 ADD PUSH1 0x0 KECCAK256 DUP2 SWAP1 SSTORE POP JUMPDEST POP PUSH1 0x0 SWAP1 DUP2 MSTORE PUSH1 0x7 PUSH1 0x20 SWAP1 DUP2 MSTORE PUSH1 0x40 DUP1 DUP4 KECCAK256 DUP4 SWAP1 SSTORE PUSH1 0x8 DUP3 MSTORE DUP1 DUP4 KECCAK256 DUP4 SWAP1 SSTORE PUSH1 0x6 SWAP1 SWAP2 MSTORE DUP2 KECCAK256 SSTORE JUMP JUMPDEST DUP3 DUP1 SLOAD PUSH3 0x135B SWAP1 PUSH3 0x170A JUMP JUMPDEST SWAP1 PUSH1 0x0 MSTORE PUSH1 0x20 PUSH1 0x0 KECCAK256 SWAP1 PUSH1 0x1F ADD PUSH1 0x20 SWAP1 DIV DUP2 ADD SWAP3 DUP3 PUSH3 0x137F JUMPI PUSH1 0x0 DUP6 SSTORE PUSH3 0x13CA JUMP JUMPDEST DUP3 PUSH1 0x1F LT PUSH3 0x139A JUMPI DUP1 MLOAD PUSH1 0xFF NOT AND DUP4 DUP1 ADD OR DUP6 SSTORE PUSH3 0x13CA JUMP JUMPDEST DUP3 DUP1 ADD PUSH1 0x1 ADD DUP6 SSTORE DUP3 ISZERO PUSH3 0x13CA JUMPI SWAP2 DUP3 ADD JUMPDEST DUP3 DUP2 GT ISZERO PUSH3 0x13CA JUMPI DUP3 MLOAD DUP3 SSTORE SWAP2 PUSH1 0x20 ADD SWAP2 SWAP1 PUSH1 0x1 ADD SWAP1 PUSH3 0x13AD JUMP JUMPDEST POP PUSH3 0x13D8 SWAP3 SWAP2 POP PUSH3 0x145D JUMP JUMPDEST POP SWAP1 JUMP JUMPDEST PUSH2 0x599 DUP1 PUSH3 0x6DA3 DUP4 CODECOPY ADD SWAP1 JUMP JUMPDEST DUP3 DUP1 SLOAD DUP3 DUP3 SSTORE SWAP1 PUSH1 0x0 MSTORE PUSH1 0x20 PUSH1 0x0 KECCAK256 SWAP1 DUP2 ADD SWAP3 DUP3 ISZERO PUSH3 0x13CA JUMPI SWAP2 PUSH1 0x20 MUL DUP3 ADD JUMPDEST DUP3 DUP2 GT ISZERO PUSH3 0x13CA JUMPI DUP3 MLOAD DUP3 SLOAD PUSH1 0x1 PUSH1 0x1 PUSH1 0xA0 SHL SUB NOT AND PUSH1 0x1 PUSH1 0x1 PUSH1 0xA0 SHL SUB SWAP1 SWAP2 AND OR DUP3 SSTORE PUSH1 0x20 SWAP1 SWAP3 ADD SWAP2 PUSH1 0x1 SWAP1 SWAP2 ADD SWAP1 PUSH3 0x140B JUMP JUMPDEST POP DUP1 SLOAD PUSH1 0x0 DUP3 SSTORE SWAP1 PUSH1 0x0 MSTORE PUSH1 0x20 PUSH1 0x0 KECCAK256 SWAP1 DUP2 ADD SWAP1 PUSH3 0xE7E SWAP2 SWAP1 JUMPDEST JUMPDEST DUP1 DUP3 GT ISZERO PUSH3 0x13D8 JUMPI PUSH1 0x0 DUP2 SSTORE PUSH1 0x1 ADD PUSH3 0x145E JUMP JUMPDEST PUSH4 0x4E487B71 PUSH1 0xE0 SHL PUSH1 0x0 MSTORE PUSH1 0x32 PUSH1 0x4 MSTORE PUSH1 0x24 PUSH1 0x0 REVERT JUMPDEST PUSH4 0x4E487B71 PUSH1 0xE0 SHL PUSH1 0x0 MSTORE PUSH1 0x11 PUSH1 0x4 MSTORE PUSH1 0x24 PUSH1 0x0 REVERT JUMPDEST PUSH1 0x0 PUSH1 0x0 NOT DUP3 EQ ISZERO PUSH3 0x14B7 JUMPI PUSH3 0x14B7 PUSH3 0x148A JUMP JUMPDEST POP PUSH1 0x1 ADD SWAP1 JUMP JUMPDEST PUSH1 0x0 DUP3 NOT DUP3 GT ISZERO PUSH3 0x14D4 JUMPI PUSH3 0x14D4 PUSH3 0x148A JUMP JUMPDEST POP ADD SWAP1 JUMP JUMPDEST PUSH1 0x0 PUSH1 0x40 DUP3 ADD PUSH1 0x40 DUP4 MSTORE DUP1 DUP6 SLOAD DUP1 DUP4 MSTORE PUSH1 0x60 DUP6 ADD SWAP2 POP DUP7 PUSH1 0x0 MSTORE PUSH1 0x20 SWAP3 POP DUP3 PUSH1 0x0 KECCAK256 PUSH1 0x0 JUMPDEST DUP3 DUP2 LT ISZERO PUSH3 0x1525 JUMPI DUP2 SLOAD PUSH1 0x1 PUSH1 0x1 PUSH1 0xA0 SHL SUB AND DUP5 MSTORE SWAP3 DUP5 ADD SWAP3 PUSH1 0x1 SWAP2 DUP3 ADD SWAP2 ADD PUSH3 0x14FE JUMP JUMPDEST POP POP POP DUP4 DUP2 SUB DUP3 DUP6 ADD MSTORE DUP5 MLOAD DUP1 DUP3 MSTORE DUP6 DUP4 ADD SWAP2 DUP4 ADD SWAP1 PUSH1 0x0 JUMPDEST DUP2 DUP2 LT ISZERO PUSH3 0x1565 JUMPI DUP4 MLOAD PUSH1 0x1 PUSH1 0x1 PUSH1 0xA0 SHL SUB AND DUP4 MSTORE SWAP3 DUP5 ADD SWAP3 SWAP2 DUP5 ADD SWAP2 PUSH1 0x1 ADD PUSH3 0x153E JUMP JUMPDEST POP SWAP1 SWAP8 SWAP7 POP POP POP POP POP POP POP JUMP JUMPDEST PUSH1 0x0 PUSH1 0x20 DUP1 DUP4 MSTORE DUP4 MLOAD DUP1 DUP3 DUP6 ADD MSTORE PUSH1 0x0 JUMPDEST DUP2 DUP2 LT ISZERO PUSH3 0x15A1 JUMPI DUP6 DUP2 ADD DUP4 ADD MLOAD DUP6 DUP3 ADD PUSH1 0x40 ADD MSTORE DUP3 ADD PUSH3 0x1583 JUMP JUMPDEST DUP2 DUP2 GT ISZERO PUSH3 0x15B4 JUMPI PUSH1 0x0 PUSH1 0x40 DUP4 DUP8 ADD ADD MSTORE JUMPDEST POP PUSH1 0x1F ADD PUSH1 0x1F NOT AND SWAP3 SWAP1 SWAP3 ADD PUSH1 0x40 ADD SWAP4 SWAP3 POP POP POP JUMP JUMPDEST PUSH1 0x0 DUP3 DUP3 LT ISZERO PUSH3 0x15DF JUMPI PUSH3 0x15DF PUSH3 0x148A JUMP JUMPDEST POP SUB SWAP1 JUMP JUMPDEST DUP3 DUP5 DUP3 CALLDATACOPY SWAP1 SWAP2 ADD SWAP1 DUP2 MSTORE PUSH1 0x20 ADD SWAP2 SWAP1 POP JUMP JUMPDEST PUSH1 0x1 DUP2 DUP2 JUMPDEST DUP1 DUP6 GT ISZERO PUSH3 0x1637 JUMPI DUP2 PUSH1 0x0 NOT DIV DUP3 GT ISZERO PUSH3 0x161B JUMPI PUSH3 0x161B PUSH3 0x148A JUMP JUMPDEST DUP1 DUP6 AND ISZERO PUSH3 0x1629 JUMPI SWAP2 DUP2 MUL SWAP2 JUMPDEST SWAP4 DUP5 SHR SWAP4 SWAP1 DUP1 MUL SWAP1 PUSH3 0x15FB JUMP JUMPDEST POP SWAP3 POP SWAP3 SWAP1 POP JUMP JUMPDEST PUSH1 0x0 DUP3 PUSH3 0x1650 JUMPI POP PUSH1 0x1 PUSH3 0x16EF JUMP JUMPDEST DUP2 PUSH3 0x165F JUMPI POP PUSH1 0x0 PUSH3 0x16EF JUMP JUMPDEST DUP2 PUSH1 0x1 DUP2 EQ PUSH3 0x1678 JUMPI PUSH1 0x2 DUP2 EQ PUSH3 0x1683 JUMPI PUSH3 0x16A3 JUMP JUMPDEST PUSH1 0x1 SWAP2 POP POP PUSH3 0x16EF JUMP JUMPDEST PUSH1 0xFF DUP5 GT ISZERO PUSH3 0x1697 JUMPI PUSH3 0x1697 PUSH3 0x148A JUMP JUMPDEST POP POP PUSH1 0x1 DUP3 SHL PUSH3 0x16EF JUMP JUMPDEST POP PUSH1 0x20 DUP4 LT PUSH2 0x133 DUP4 LT AND PUSH1 0x4E DUP5 LT PUSH1 0xB DUP5 LT AND OR ISZERO PUSH3 0x16C8 JUMPI POP DUP2 DUP2 EXP PUSH3 0x16EF JUMP JUMPDEST PUSH3 0x16D4 DUP4 DUP4 PUSH3 0x15F6 JUMP JUMPDEST DUP1 PUSH1 0x0 NOT DIV DUP3 GT ISZERO PUSH3 0x16EB JUMPI PUSH3 0x16EB PUSH3 0x148A JUMP JUMPDEST MUL SWAP1 POP JUMPDEST SWAP3 SWAP2 POP POP JUMP JUMPDEST PUSH1 0x0 PUSH3 0x1703 DUP4 DUP4 PUSH3 0x163F JUMP JUMPDEST SWAP4 SWAP3 POP POP POP JUMP JUMPDEST PUSH1 0x1 DUP2 DUP2 SHR SWAP1 DUP3 AND DUP1 PUSH3 0x171F JUMPI PUSH1 0x7F DUP3 AND SWAP2 POP JUMPDEST PUSH1 0x20 DUP3 LT DUP2 EQ ISZERO PUSH3 0x1741 JUMPI PUSH4 0x4E487B71 PUSH1 0xE0 SHL PUSH1 0x0 MSTORE PUSH1 0x22 PUSH1 0x4 MSTORE PUSH1 0x24 PUSH1 0x0 REVERT JUMPDEST POP SWAP2 SWAP1 POP JUMP JUMPDEST PUSH2 0x564C DUP1 PUSH3 0x1757 PUSH1 0x0 CODECOPY PUSH1 0x0 RETURN INVALID PUSH1 0x80 PUSH1 0x40 MSTORE PUSH1 0x4 CALLDATASIZE LT PUSH2 0x391 JUMPI PUSH1 0x0 CALLDATALOAD PUSH1 0xE0 SHR DUP1 PUSH4 0x883D9984 GT PUSH2 0x1D7 JUMPI DUP1 PUSH4 0xB8B18E89 GT PUSH2 0x10D JUMPI DUP1 PUSH4 0xE39CA658 GT PUSH2 0xA0 JUMPI DUP1 PUSH4 0xEEF756FC GT PUSH2 0x6F JUMPI DUP1 PUSH4 0xEEF756FC EQ PUSH2 0xB89 JUMPI DUP1 PUSH4 0xF1FDF469 EQ PUSH2 0xBA9 JUMPI DUP1 PUSH4 0xF6DDDDF2 EQ PUSH2 0xBC9 JUMPI DUP1 PUSH4 0xF729B00F EQ PUSH2 0xBE9 JUMPI PUSH2 0x453 JUMP JUMPDEST DUP1 PUSH4 0xE39CA658 EQ PUSH2 0xB07 JUMPI DUP1 PUSH4 0xE73E14BF EQ PUSH2 0xB27 JUMPI DUP1 PUSH4 0xEA1A2644 EQ PUSH2 0xB47 JUMPI DUP1 PUSH4 0xEB9F4AC7 EQ PUSH2 0xB74 JUMPI PUSH2 0x453 JUMP JUMPDEST DUP1 PUSH4 0xD4DCA69B GT PUSH2 0xDC JUMPI DUP1 PUSH4 0xD4DCA69B EQ PUSH2 0xA61 JUMPI DUP1 PUSH4 0xD94D4AD6 EQ PUSH2 0xA74 JUMPI DUP1 PUSH4 0xDD62ED3E EQ PUSH2 0xA94 JUMPI DUP1 PUSH4 0xDDBAD8B8 EQ PUSH2 0xADA JUMPI PUSH2 0x453 JUMP JUMPDEST DUP1 PUSH4 0xB8B18E89 EQ PUSH2 0x9F5 JUMPI DUP1 PUSH4 0xB9488546 EQ PUSH2 0xA0A JUMPI DUP1 PUSH4 0xBEA8E46B EQ PUSH2 0xA1F JUMPI DUP1 PUSH4 0xCC047A04 EQ PUSH2 0xA34 JUMPI PUSH2 0x453 JUMP JUMPDEST DUP1 PUSH4 0x97A08E71 GT PUSH2 0x185 JUMPI DUP1 PUSH4 0xA9059CBB GT PUSH2 0x154 JUMPI DUP1 PUSH4 0xA9059CBB EQ PUSH2 0x972 JUMPI DUP1 PUSH4 0xAB2E81D6 EQ PUSH2 0x992 JUMPI DUP1 PUSH4 0xB09D4B4E EQ PUSH2 0x9B2 JUMPI DUP1 PUSH4 0xB25BB3A7 EQ PUSH2 0x9DF JUMPI PUSH2 0x453 JUMP JUMPDEST DUP1 PUSH4 0x97A08E71 EQ PUSH2 0x8F9 JUMPI DUP1 PUSH4 0xA071DCF4 EQ PUSH2 0x919 JUMPI DUP1 PUSH4 0xA169C515 EQ PUSH2 0x932 JUMPI DUP1 PUSH4 0xA457C2D7 EQ PUSH2 0x952 JUMPI PUSH2 0x453 JUMP JUMPDEST DUP1 PUSH4 0x883D9984 EQ PUSH2 0x843 JUMPI DUP1 PUSH4 0x8902CD70 EQ PUSH2 0x858 JUMPI DUP1 PUSH4 0x893D20E8 EQ PUSH2 0x878 JUMPI DUP1 PUSH4 0x90A4C709 EQ PUSH2 0x88D JUMPI DUP1 PUSH4 0x90A53085 EQ PUSH2 0x8A2 JUMPI DUP1 PUSH4 0x934851EC EQ PUSH2 0x8CF JUMPI DUP1 PUSH4 0x95D89B41 EQ PUSH2 0x8E4 JUMPI PUSH2 0x453 JUMP JUMPDEST DUP1 PUSH4 0x38920102 GT PUSH2 0x2C7 JUMPI DUP1 PUSH4 0x56029137 GT PUSH2 0x25A JUMPI DUP1 PUSH4 0x8378A875 GT PUSH2 0x229 JUMPI DUP1 PUSH4 0x8378A875 EQ PUSH2 0x7D9 JUMPI DUP1 PUSH4 0x84F3996D EQ PUSH2 0x7EE JUMPI DUP1 PUSH4 0x85BA7C02 EQ PUSH2 0x803 JUMPI DUP1 PUSH4 0x87E25B79 EQ PUSH2 0x823 JUMPI PUSH2 0x453 JUMP JUMPDEST DUP1 PUSH4 0x56029137 EQ PUSH2 0x741 JUMPI DUP1 PUSH4 0x568B5915 EQ PUSH2 0x756 JUMPI DUP1 PUSH4 0x70A08231 EQ PUSH2 0x783 JUMPI DUP1 PUSH4 0x7B0472F0 EQ PUSH2 0x7B9 JUMPI PUSH2 0x453 JUMP JUMPDEST DUP1 PUSH4 0x41B2974A GT PUSH2 0x296 JUMPI DUP1 PUSH4 0x41B2974A EQ PUSH2 0x6CE JUMPI DUP1 PUSH4 0x431AB233 EQ PUSH2 0x6EE JUMPI DUP1 PUSH4 0x48B15166 EQ PUSH2 0x70E JUMPI DUP1 PUSH4 0x534C96C7 EQ PUSH2 0x721 JUMPI PUSH2 0x453 JUMP JUMPDEST DUP1 PUSH4 0x38920102 EQ PUSH2 0x64B JUMPI DUP1 PUSH4 0x39509351 EQ PUSH2 0x66B JUMPI DUP1 PUSH4 0x3B124FE7 EQ PUSH2 0x68B JUMPI DUP1 PUSH4 0x3F3EF2DC EQ PUSH2 0x6B9 JUMPI PUSH2 0x453 JUMP JUMPDEST DUP1 PUSH4 0x18160DDD GT PUSH2 0x33F JUMPI DUP1 PUSH4 0x2F54BF6E GT PUSH2 0x30E JUMPI DUP1 PUSH4 0x2F54BF6E EQ PUSH2 0x5D1 JUMPI DUP1 PUSH4 0x30D4F3C9 EQ PUSH2 0x49D JUMPI DUP1 PUSH4 0x313CE567 EQ PUSH2 0x609 JUMPI DUP1 PUSH4 0x36A5A493 EQ PUSH2 0x62B JUMPI PUSH2 0x453 JUMP JUMPDEST DUP1 PUSH4 0x18160DDD EQ PUSH2 0x567 JUMPI DUP1 PUSH4 0x18BCD3D0 EQ PUSH2 0x57C JUMPI DUP1 PUSH4 0x22F2F89A EQ PUSH2 0x59C JUMPI DUP1 PUSH4 0x23B872DD EQ PUSH2 0x5B1 JUMPI PUSH2 0x453 JUMP JUMPDEST DUP1 PUSH4 0x25E7C27 EQ PUSH2 0x460 JUMPI DUP1 PUSH4 0x42249BB EQ PUSH2 0x49D JUMPI DUP1 PUSH4 0x6FDDE03 EQ PUSH2 0x4BC JUMPI DUP1 PUSH4 0x95EA7B3 EQ PUSH2 0x4DE JUMPI DUP1 PUSH4 0xE1B09ED EQ PUSH2 0x50E JUMPI DUP1 PUSH4 0x15441BB9 EQ PUSH2 0x530 JUMPI DUP1 PUSH4 0x16C12746 EQ PUSH2 0x545 JUMPI PUSH2 0x453 JUMP JUMPDEST CALLDATASIZE PUSH2 0x453 JUMPI PUSH1 0x0 PUSH2 0x3A3 CALLVALUE PUSH1 0x3 PUSH2 0xC09 JUMP JUMPDEST PUSH1 0x22 SLOAD PUSH1 0x1 PUSH1 0x1 PUSH1 0xA0 SHL SUB AND PUSH1 0x0 SWAP1 DUP2 MSTORE PUSH1 0xB PUSH1 0x20 MSTORE PUSH1 0x40 SWAP1 KECCAK256 SLOAD SWAP1 SWAP2 POP PUSH2 0x3CB SWAP1 DUP3 PUSH2 0xC1E JUMP JUMPDEST PUSH1 0x22 SLOAD PUSH1 0x1 PUSH1 0x1 PUSH1 0xA0 SHL SUB SWAP1 DUP2 AND PUSH1 0x0 SWAP1 DUP2 MSTORE PUSH1 0xB PUSH1 0x20 MSTORE PUSH1 0x40 DUP1 DUP3 KECCAK256 SWAP4 SWAP1 SWAP4 SSTORE PUSH1 0x23 SLOAD SWAP1 SWAP2 AND DUP2 MSTORE KECCAK256 SLOAD PUSH2 0x400 SWAP1 DUP3 PUSH2 0xC1E JUMP JUMPDEST PUSH1 0x23 SLOAD PUSH1 0x1 PUSH1 0x1 PUSH1 0xA0 SHL SUB SWAP1 DUP2 AND PUSH1 0x0 SWAP1 DUP2 MSTORE PUSH1 0xB PUSH1 0x20 MSTORE PUSH1 0x40 DUP1 DUP3 KECCAK256 SWAP4 SWAP1 SWAP4 SSTORE PUSH1 0x24 SLOAD SWAP1 SWAP2 AND DUP2 MSTORE KECCAK256 SLOAD PUSH2 0x435 SWAP1 DUP3 PUSH2 0xC1E JUMP JUMPDEST PUSH1 0x24 SLOAD PUSH1 0x1 PUSH1 0x1 PUSH1 0xA0 SHL SUB AND PUSH1 0x0 SWAP1 DUP2 MSTORE PUSH1 0xB PUSH1 0x20 MSTORE PUSH1 0x40 SWAP1 KECCAK256 SSTORE POP STOP JUMPDEST PUSH1 0x0 PUSH2 0x3A3 CALLVALUE PUSH1 0x3 PUSH2 0xC09 JUMP JUMPDEST CALLVALUE DUP1 ISZERO PUSH2 0x46C JUMPI PUSH1 0x0 DUP1 REVERT JUMPDEST POP PUSH2 0x480 PUSH2 0x47B CALLDATASIZE PUSH1 0x4 PUSH2 0x4E39 JUMP JUMPDEST PUSH2 0xC2A JUMP JUMPDEST PUSH1 0x40 MLOAD PUSH1 0x1 PUSH1 0x1 PUSH1 0xA0 SHL SUB SWAP1 SWAP2 AND DUP2 MSTORE PUSH1 0x20 ADD JUMPDEST PUSH1 0x40 MLOAD DUP1 SWAP2 SUB SWAP1 RETURN JUMPDEST CALLVALUE DUP1 ISZERO PUSH2 0x4A9 JUMPI PUSH1 0x0 DUP1 REVERT JUMPDEST POP PUSH1 0x13 SLOAD JUMPDEST PUSH1 0x40 MLOAD SWAP1 DUP2 MSTORE PUSH1 0x20 ADD PUSH2 0x494 JUMP JUMPDEST CALLVALUE DUP1 ISZERO PUSH2 0x4C8 JUMPI PUSH1 0x0 DUP1 REVERT JUMPDEST POP PUSH2 0x4D1 PUSH2 0xC54 JUMP JUMPDEST PUSH1 0x40 MLOAD PUSH2 0x494 SWAP2 SWAP1 PUSH2 0x4E52 JUMP JUMPDEST CALLVALUE DUP1 ISZERO PUSH2 0x4EA JUMPI PUSH1 0x0 DUP1 REVERT JUMPDEST POP PUSH2 0x4FE PUSH2 0x4F9 CALLDATASIZE PUSH1 0x4 PUSH2 0x4ECC JUMP JUMPDEST PUSH2 0xCE6 JUMP JUMPDEST PUSH1 0x40 MLOAD SWAP1 ISZERO ISZERO DUP2 MSTORE PUSH1 0x20 ADD PUSH2 0x494 JUMP JUMPDEST CALLVALUE DUP1 ISZERO PUSH2 0x51A JUMPI PUSH1 0x0 DUP1 REVERT JUMPDEST POP PUSH2 0x52E PUSH2 0x529 CALLDATASIZE PUSH1 0x4 PUSH2 0x4E39 JUMP JUMPDEST PUSH2 0xCFC JUMP JUMPDEST STOP JUMPDEST CALLVALUE DUP1 ISZERO PUSH2 0x53C JUMPI PUSH1 0x0 DUP1 REVERT JUMPDEST POP PUSH2 0x52E PUSH2 0xDF6 JUMP JUMPDEST CALLVALUE DUP1 ISZERO PUSH2 0x551 JUMPI PUSH1 0x0 DUP1 REVERT JUMPDEST POP PUSH2 0x55A PUSH2 0xF48 JUMP JUMPDEST PUSH1 0x40 MLOAD PUSH2 0x494 SWAP2 SWAP1 PUSH2 0x4F3C JUMP JUMPDEST CALLVALUE DUP1 ISZERO PUSH2 0x573 JUMPI PUSH1 0x0 DUP1 REVERT JUMPDEST POP PUSH1 0xF SLOAD PUSH2 0x4AE JUMP JUMPDEST CALLVALUE DUP1 ISZERO PUSH2 0x588 JUMPI PUSH1 0x0 DUP1 REVERT JUMPDEST POP PUSH2 0x52E PUSH2 0x597 CALLDATASIZE PUSH1 0x4 PUSH2 0x4F65 JUMP JUMPDEST PUSH2 0xFA9 JUMP JUMPDEST CALLVALUE DUP1 ISZERO PUSH2 0x5A8 JUMPI PUSH1 0x0 DUP1 REVERT JUMPDEST POP PUSH1 0x2 SLOAD PUSH2 0x4AE JUMP JUMPDEST CALLVALUE DUP1 ISZERO PUSH2 0x5BD JUMPI PUSH1 0x0 DUP1 REVERT JUMPDEST POP PUSH2 0x4FE PUSH2 0x5CC CALLDATASIZE PUSH1 0x4 PUSH2 0x502A JUMP JUMPDEST PUSH2 0x1349 JUMP JUMPDEST CALLVALUE DUP1 ISZERO PUSH2 0x5DD JUMPI PUSH1 0x0 DUP1 REVERT JUMPDEST POP PUSH2 0x4FE PUSH2 0x5EC CALLDATASIZE PUSH1 0x4 PUSH2 0x506B JUMP JUMPDEST PUSH1 0x1 PUSH1 0x1 PUSH1 0xA0 SHL SUB AND PUSH1 0x0 SWAP1 DUP2 MSTORE PUSH1 0x5 PUSH1 0x20 MSTORE PUSH1 0x40 SWAP1 KECCAK256 SLOAD ISZERO ISZERO SWAP1 JUMP JUMPDEST CALLVALUE DUP1 ISZERO PUSH2 0x615 JUMPI PUSH1 0x0 DUP1 REVERT JUMPDEST POP PUSH1 0x10 SLOAD PUSH1 0x40 MLOAD PUSH1 0xFF SWAP1 SWAP2 AND DUP2 MSTORE PUSH1 0x20 ADD PUSH2 0x494 JUMP JUMPDEST CALLVALUE DUP1 ISZERO PUSH2 0x637 JUMPI PUSH1 0x0 DUP1 REVERT JUMPDEST POP PUSH1 0x28 SLOAD PUSH2 0x480 SWAP1 PUSH1 0x1 PUSH1 0x1 PUSH1 0xA0 SHL SUB AND DUP2 JUMP JUMPDEST CALLVALUE DUP1 ISZERO PUSH2 0x657 JUMPI PUSH1 0x0 DUP1 REVERT JUMPDEST POP PUSH2 0x4AE PUSH2 0x666 CALLDATASIZE PUSH1 0x4 PUSH2 0x508F JUMP JUMPDEST PUSH2 0x13B2 JUMP JUMPDEST CALLVALUE DUP1 ISZERO PUSH2 0x677 JUMPI PUSH1 0x0 DUP1 REVERT JUMPDEST POP PUSH2 0x4FE PUSH2 0x686 CALLDATASIZE PUSH1 0x4 PUSH2 0x4ECC JUMP JUMPDEST PUSH2 0x13F5 JUMP JUMPDEST CALLVALUE DUP1 ISZERO PUSH2 0x697 JUMPI PUSH1 0x0 DUP1 REVERT JUMPDEST POP PUSH1 0xE SLOAD PUSH2 0x6A6 SWAP1 PUSH2 0xFFFF AND DUP2 JUMP JUMPDEST PUSH1 0x40 MLOAD PUSH2 0xFFFF SWAP1 SWAP2 AND DUP2 MSTORE PUSH1 0x20 ADD PUSH2 0x494 JUMP JUMPDEST CALLVALUE DUP1 ISZERO PUSH2 0x6C5 JUMPI PUSH1 0x0 DUP1 REVERT JUMPDEST POP PUSH2 0x52E PUSH2 0x142B JUMP JUMPDEST CALLVALUE DUP1 ISZERO PUSH2 0x6DA JUMPI PUSH1 0x0 DUP1 REVERT JUMPDEST POP PUSH1 0x27 SLOAD PUSH2 0x480 SWAP1 PUSH1 0x1 PUSH1 0x1 PUSH1 0xA0 SHL SUB AND DUP2 JUMP JUMPDEST CALLVALUE DUP1 ISZERO PUSH2 0x6FA JUMPI PUSH1 0x0 DUP1 REVERT JUMPDEST POP PUSH2 0x4AE PUSH2 0x709 CALLDATASIZE PUSH1 0x4 PUSH2 0x4E39 JUMP JUMPDEST PUSH2 0x14EE JUMP JUMPDEST CALLVALUE DUP1 ISZERO PUSH2 0x71A JUMPI PUSH1 0x0 DUP1 REVERT JUMPDEST POP TIMESTAMP PUSH2 0x4AE JUMP JUMPDEST CALLVALUE DUP1 ISZERO PUSH2 0x72D JUMPI PUSH1 0x0 DUP1 REVERT JUMPDEST POP PUSH1 0x29 SLOAD PUSH2 0x480 SWAP1 PUSH1 0x1 PUSH1 0x1 PUSH1 0xA0 SHL SUB AND DUP2 JUMP JUMPDEST CALLVALUE DUP1 ISZERO PUSH2 0x74D JUMPI PUSH1 0x0 DUP1 REVERT JUMPDEST POP PUSH2 0x52E PUSH2 0x150F JUMP JUMPDEST CALLVALUE DUP1 ISZERO PUSH2 0x762 JUMPI PUSH1 0x0 DUP1 REVERT JUMPDEST POP PUSH2 0x4AE PUSH2 0x771 CALLDATASIZE PUSH1 0x4 PUSH2 0x4E39 JUMP JUMPDEST PUSH1 0x7 PUSH1 0x20 MSTORE PUSH1 0x0 SWAP1 DUP2 MSTORE PUSH1 0x40 SWAP1 KECCAK256 SLOAD DUP2 JUMP JUMPDEST CALLVALUE DUP1 ISZERO PUSH2 0x78F JUMPI PUSH1 0x0 DUP1 REVERT JUMPDEST POP PUSH2 0x4AE PUSH2 0x79E CALLDATASIZE PUSH1 0x4 PUSH2 0x506B JUMP JUMPDEST PUSH1 0x1 PUSH1 0x1 PUSH1 0xA0 SHL SUB AND PUSH1 0x0 SWAP1 DUP2 MSTORE PUSH1 0xB PUSH1 0x20 MSTORE PUSH1 0x40 SWAP1 KECCAK256 SLOAD SWAP1 JUMP JUMPDEST CALLVALUE DUP1 ISZERO PUSH2 0x7C5 JUMPI PUSH1 0x0 DUP1 REVERT JUMPDEST POP PUSH2 0x52E PUSH2 0x7D4 CALLDATASIZE PUSH1 0x4 PUSH2 0x50BF JUMP JUMPDEST PUSH2 0x15D2 JUMP JUMPDEST CALLVALUE DUP1 ISZERO PUSH2 0x7E5 JUMPI PUSH1 0x0 DUP1 REVERT JUMPDEST POP PUSH2 0x52E PUSH2 0x1717 JUMP JUMPDEST CALLVALUE DUP1 ISZERO PUSH2 0x7FA JUMPI PUSH1 0x0 DUP1 REVERT JUMPDEST POP PUSH2 0x52E PUSH2 0x17DA JUMP JUMPDEST CALLVALUE DUP1 ISZERO PUSH2 0x80F JUMPI PUSH1 0x0 DUP1 REVERT JUMPDEST POP PUSH1 0x2D SLOAD PUSH2 0x480 SWAP1 PUSH1 0x1 PUSH1 0x1 PUSH1 0xA0 SHL SUB AND DUP2 JUMP JUMPDEST CALLVALUE DUP1 ISZERO PUSH2 0x82F JUMPI PUSH1 0x0 DUP1 REVERT JUMPDEST POP PUSH1 0x2E SLOAD PUSH2 0x480 SWAP1 PUSH1 0x1 PUSH1 0x1 PUSH1 0xA0 SHL SUB AND DUP2 JUMP JUMPDEST CALLVALUE DUP1 ISZERO PUSH2 0x84F JUMPI PUSH1 0x0 DUP1 REVERT JUMPDEST POP PUSH2 0x52E PUSH2 0x189D JUMP JUMPDEST CALLVALUE DUP1 ISZERO PUSH2 0x864 JUMPI PUSH1 0x0 DUP1 REVERT JUMPDEST POP PUSH2 0x52E PUSH2 0x873 CALLDATASIZE PUSH1 0x4 PUSH2 0x50E1 JUMP JUMPDEST PUSH2 0x1960 JUMP JUMPDEST CALLVALUE DUP1 ISZERO PUSH2 0x884 JUMPI PUSH1 0x0 DUP1 REVERT JUMPDEST POP PUSH2 0x55A PUSH2 0x1A05 JUMP JUMPDEST CALLVALUE DUP1 ISZERO PUSH2 0x899 JUMPI PUSH1 0x0 DUP1 REVERT JUMPDEST POP PUSH2 0x52E PUSH2 0x1A14 JUMP JUMPDEST CALLVALUE DUP1 ISZERO PUSH2 0x8AE JUMPI PUSH1 0x0 DUP1 REVERT JUMPDEST POP PUSH2 0x4AE PUSH2 0x8BD CALLDATASIZE PUSH1 0x4 PUSH2 0x4E39 JUMP JUMPDEST PUSH1 0x8 PUSH1 0x20 MSTORE PUSH1 0x0 SWAP1 DUP2 MSTORE PUSH1 0x40 SWAP1 KECCAK256 SLOAD DUP2 JUMP JUMPDEST CALLVALUE DUP1 ISZERO PUSH2 0x8DB JUMPI PUSH1 0x0 DUP1 REVERT JUMPDEST POP PUSH2 0x52E PUSH2 0x1AD7 JUMP JUMPDEST CALLVALUE DUP1 ISZERO PUSH2 0x8F0 JUMPI PUSH1 0x0 DUP1 REVERT JUMPDEST POP PUSH2 0x4D1 PUSH2 0x1B97 JUMP JUMPDEST CALLVALUE DUP1 ISZERO PUSH2 0x905 JUMPI PUSH1 0x0 DUP1 REVERT JUMPDEST POP PUSH1 0x2B SLOAD PUSH2 0x480 SWAP1 PUSH1 0x1 PUSH1 0x1 PUSH1 0xA0 SHL SUB AND DUP2 JUMP JUMPDEST CALLVALUE DUP1 ISZERO PUSH2 0x925 JUMPI PUSH1 0x0 DUP1 REVERT JUMPDEST POP PUSH1 0xE SLOAD PUSH2 0xFFFF AND PUSH2 0x4AE JUMP JUMPDEST CALLVALUE DUP1 ISZERO PUSH2 0x93E JUMPI PUSH1 0x0 DUP1 REVERT JUMPDEST POP PUSH2 0x52E PUSH2 0x94D CALLDATASIZE PUSH1 0x4 PUSH2 0x4E39 JUMP JUMPDEST PUSH2 0x1BA6 JUMP JUMPDEST CALLVALUE DUP1 ISZERO PUSH2 0x95E JUMPI PUSH1 0x0 DUP1 REVERT JUMPDEST POP PUSH2 0x4FE PUSH2 0x96D CALLDATASIZE PUSH1 0x4 PUSH2 0x4ECC JUMP JUMPDEST PUSH2 0x1C47 JUMP JUMPDEST CALLVALUE DUP1 ISZERO PUSH2 0x97E JUMPI PUSH1 0x0 DUP1 REVERT JUMPDEST POP PUSH2 0x4FE PUSH2 0x98D CALLDATASIZE PUSH1 0x4 PUSH2 0x4ECC JUMP JUMPDEST PUSH2 0x1C96 JUMP JUMPDEST CALLVALUE DUP1 ISZERO PUSH2 0x99E JUMPI PUSH1 0x0 DUP1 REVERT JUMPDEST POP PUSH1 0x26 SLOAD PUSH2 0x480 SWAP1 PUSH1 0x1 PUSH1 0x1 PUSH1 0xA0 SHL SUB AND DUP2 JUMP JUMPDEST CALLVALUE DUP1 ISZERO PUSH2 0x9BE JUMPI PUSH1 0x0 DUP1 REVERT JUMPDEST POP PUSH2 0x9D2 PUSH2 0x9CD CALLDATASIZE PUSH1 0x4 PUSH2 0x506B JUMP JUMPDEST PUSH2 0x1CA3 JUMP JUMPDEST PUSH1 0x40 MLOAD PUSH2 0x494 SWAP2 SWAP1 PUSH2 0x5105 JUMP JUMPDEST CALLVALUE DUP1 ISZERO PUSH2 0x9EB JUMPI PUSH1 0x0 DUP1 REVERT JUMPDEST POP PUSH2 0x4AE PUSH1 0x0 SLOAD DUP2 JUMP JUMPDEST CALLVALUE DUP1 ISZERO PUSH2 0xA01 JUMPI PUSH1 0x0 DUP1 REVERT JUMPDEST POP PUSH2 0x52E PUSH2 0x1DB3 JUMP JUMPDEST CALLVALUE DUP1 ISZERO PUSH2 0xA16 JUMPI PUSH1 0x0 DUP1 REVERT JUMPDEST POP PUSH1 0x1 SLOAD PUSH2 0x4AE JUMP JUMPDEST CALLVALUE DUP1 ISZERO PUSH2 0xA2B JUMPI PUSH1 0x0 DUP1 REVERT JUMPDEST POP PUSH2 0x4AE PUSH2 0x1E76 JUMP JUMPDEST CALLVALUE DUP1 ISZERO PUSH2 0xA40 JUMPI PUSH1 0x0 DUP1 REVERT JUMPDEST POP PUSH2 0x4AE PUSH2 0xA4F CALLDATASIZE PUSH1 0x4 PUSH2 0x506B JUMP JUMPDEST PUSH1 0x5 PUSH1 0x20 MSTORE PUSH1 0x0 SWAP1 DUP2 MSTORE PUSH1 0x40 SWAP1 KECCAK256 SLOAD DUP2 JUMP JUMPDEST CALLVALUE DUP1 ISZERO PUSH2 0xA6D JUMPI PUSH1 0x0 DUP1 REVERT JUMPDEST POP ADDRESS PUSH2 0x480 JUMP JUMPDEST CALLVALUE DUP1 ISZERO PUSH2 0xA80 JUMPI PUSH1 0x0 DUP1 REVERT JUMPDEST POP PUSH2 0x52E PUSH2 0xA8F CALLDATASIZE PUSH1 0x4 PUSH2 0x4E39 JUMP JUMPDEST PUSH2 0x1ED8 JUMP JUMPDEST CALLVALUE DUP1 ISZERO PUSH2 0xAA0 JUMPI PUSH1 0x0 DUP1 REVERT JUMPDEST POP PUSH2 0x4AE PUSH2 0xAAF CALLDATASIZE PUSH1 0x4 PUSH2 0x519B JUMP JUMPDEST PUSH1 0x1 PUSH1 0x1 PUSH1 0xA0 SHL SUB SWAP2 DUP3 AND PUSH1 0x0 SWAP1 DUP2 MSTORE PUSH1 0xC PUSH1 0x20 SWAP1 DUP2 MSTORE PUSH1 0x40 DUP1 DUP4 KECCAK256 SWAP4 SWAP1 SWAP5 AND DUP3 MSTORE SWAP2 SWAP1 SWAP2 MSTORE KECCAK256 SLOAD SWAP1 JUMP JUMPDEST CALLVALUE DUP1 ISZERO PUSH2 0xAE6 JUMPI PUSH1 0x0 DUP1 REVERT JUMPDEST POP PUSH2 0x4AE PUSH2 0xAF5 CALLDATASIZE PUSH1 0x4 PUSH2 0x4E39 JUMP JUMPDEST PUSH1 0x0 SWAP1 DUP2 MSTORE PUSH1 0xD PUSH1 0x20 MSTORE PUSH1 0x40 SWAP1 KECCAK256 SLOAD SWAP1 JUMP JUMPDEST CALLVALUE DUP1 ISZERO PUSH2 0xB13 JUMPI PUSH1 0x0 DUP1 REVERT JUMPDEST POP PUSH1 0x25 SLOAD PUSH2 0x480 SWAP1 PUSH1 0x1 PUSH1 0x1 PUSH1 0xA0 SHL SUB AND DUP2 JUMP JUMPDEST CALLVALUE DUP1 ISZERO PUSH2 0xB33 JUMPI PUSH1 0x0 DUP1 REVERT JUMPDEST POP PUSH2 0x9D2 PUSH2 0xB42 CALLDATASIZE PUSH1 0x4 PUSH2 0x506B JUMP JUMPDEST PUSH2 0x1F3D JUMP JUMPDEST CALLVALUE DUP1 ISZERO PUSH2 0xB53 JUMPI PUSH1 0x0 DUP1 REVERT JUMPDEST POP PUSH2 0x4AE PUSH2 0xB62 CALLDATASIZE PUSH1 0x4 PUSH2 0x4E39 JUMP JUMPDEST PUSH1 0x6 PUSH1 0x20 MSTORE PUSH1 0x0 SWAP1 DUP2 MSTORE PUSH1 0x40 SWAP1 KECCAK256 SLOAD DUP2 JUMP JUMPDEST CALLVALUE DUP1 ISZERO PUSH2 0xB80 JUMPI PUSH1 0x0 DUP1 REVERT JUMPDEST POP PUSH2 0x52E PUSH2 0x2184 JUMP JUMPDEST CALLVALUE DUP1 ISZERO PUSH2 0xB95 JUMPI PUSH1 0x0 DUP1 REVERT JUMPDEST POP PUSH1 0x2A SLOAD PUSH2 0x480 SWAP1 PUSH1 0x1 PUSH1 0x1 PUSH1 0xA0 SHL SUB AND DUP2 JUMP JUMPDEST CALLVALUE DUP1 ISZERO PUSH2 0xBB5 JUMPI PUSH1 0x0 DUP1 REVERT JUMPDEST POP PUSH2 0x52E PUSH2 0xBC4 CALLDATASIZE PUSH1 0x4 PUSH2 0x50BF JUMP JUMPDEST PUSH2 0x2247 JUMP JUMPDEST CALLVALUE DUP1 ISZERO PUSH2 0xBD5 JUMPI PUSH1 0x0 DUP1 REVERT JUMPDEST POP PUSH1 0x2C SLOAD PUSH2 0x480 SWAP1 PUSH1 0x1 PUSH1 0x1 PUSH1 0xA0 SHL SUB AND DUP2 JUMP JUMPDEST CALLVALUE DUP1 ISZERO PUSH2 0xBF5 JUMPI PUSH1 0x0 DUP1 REVERT JUMPDEST POP PUSH2 0x52E PUSH2 0xC04 CALLDATASIZE PUSH1 0x4 PUSH2 0x4E39 JUMP JUMPDEST PUSH2 0x22B1 JUMP JUMPDEST PUSH1 0x0 PUSH2 0xC15 DUP3 DUP5 PUSH2 0x51F5 JUMP JUMPDEST SWAP1 POP JUMPDEST SWAP3 SWAP2 POP POP JUMP JUMPDEST PUSH1 0x0 PUSH2 0xC15 DUP3 DUP5 PUSH2 0x5217 JUMP JUMPDEST PUSH1 0x1 DUP2 DUP2 SLOAD DUP2 LT PUSH2 0xC3A JUMPI PUSH1 0x0 DUP1 REVERT JUMPDEST PUSH1 0x0 SWAP2 DUP3 MSTORE PUSH1 0x20 SWAP1 SWAP2 KECCAK256 ADD SLOAD PUSH1 0x1 PUSH1 0x1 PUSH1 0xA0 SHL SUB AND SWAP1 POP DUP2 JUMP JUMPDEST PUSH1 0x60 PUSH1 0x12 DUP1 SLOAD PUSH2 0xC63 SWAP1 PUSH2 0x522F JUMP JUMPDEST DUP1 PUSH1 0x1F ADD PUSH1 0x20 DUP1 SWAP2 DIV MUL PUSH1 0x20 ADD PUSH1 0x40 MLOAD SWAP1 DUP2 ADD PUSH1 0x40 MSTORE DUP1 SWAP3 SWAP2 SWAP1 DUP2 DUP2 MSTORE PUSH1 0x20 ADD DUP3 DUP1 SLOAD PUSH2 0xC8F SWAP1 PUSH2 0x522F JUMP JUMPDEST DUP1 ISZERO PUSH2 0xCDC JUMPI DUP1 PUSH1 0x1F LT PUSH2 0xCB1 JUMPI PUSH2 0x100 DUP1 DUP4 SLOAD DIV MUL DUP4 MSTORE SWAP2 PUSH1 0x20 ADD SWAP2 PUSH2 0xCDC JUMP JUMPDEST DUP3 ADD SWAP2 SWAP1 PUSH1 0x0 MSTORE PUSH1 0x20 PUSH1 0x0 KECCAK256 SWAP1 JUMPDEST DUP2 SLOAD DUP2 MSTORE SWAP1 PUSH1 0x1 ADD SWAP1 PUSH1 0x20 ADD DUP1 DUP4 GT PUSH2 0xCBF JUMPI DUP3 SWAP1 SUB PUSH1 0x1F AND DUP3 ADD SWAP2 JUMPDEST POP POP POP POP POP SWAP1 POP SWAP1 JUMP JUMPDEST PUSH1 0x0 PUSH2 0xCF3 CALLER DUP5 DUP5 PUSH2 0x2335 JUMP JUMPDEST POP PUSH1 0x1 SWAP3 SWAP2 POP POP JUMP JUMPDEST PUSH1 0x1 SLOAD PUSH2 0xD08 SWAP1 PUSH2 0x2464 JUMP JUMPDEST ISZERO PUSH2 0xDF3 JUMPI PUSH1 0x3 SLOAD PUSH1 0x1 PUSH1 0x1 PUSH1 0xA0 SHL SUB AND ISZERO DUP1 ISZERO PUSH2 0xD39 JUMPI PUSH1 0x3 DUP1 SLOAD PUSH1 0x1 PUSH1 0x1 PUSH1 0xA0 SHL SUB NOT AND CALLER OR SWAP1 SSTORE PUSH1 0x1 SLOAD PUSH1 0x4 SSTORE JUMPDEST PUSH1 0x13 SLOAD DUP3 LT PUSH2 0xDB5 JUMPI PUSH1 0x40 MLOAD PUSH3 0x461BCD PUSH1 0xE5 SHL DUP2 MSTORE PUSH1 0x20 PUSH1 0x4 DUP3 ADD MSTORE PUSH1 0x3D PUSH1 0x24 DUP3 ADD MSTORE PUSH32 0x54616C6178546F6B656E3A20416D6F756E74206275726E742063616E6E6F7420 PUSH1 0x44 DUP3 ADD MSTORE PUSH32 0x6265206C6172676572207468616E205374616B696E6720526577617264000000 PUSH1 0x64 DUP3 ADD MSTORE PUSH1 0x84 ADD JUMPDEST PUSH1 0x40 MLOAD DUP1 SWAP2 SUB SWAP1 REVERT JUMPDEST PUSH1 0x13 SLOAD PUSH2 0xDC2 SWAP1 DUP4 PUSH2 0x280E JUMP JUMPDEST PUSH1 0x13 SSTORE PUSH1 0xF SLOAD PUSH2 0xDD2 SWAP1 DUP4 PUSH2 0x280E JUMP JUMPDEST PUSH1 0xF SSTORE DUP1 ISZERO PUSH2 0xDF1 JUMPI PUSH1 0x3 DUP1 SLOAD PUSH1 0x1 PUSH1 0x1 PUSH1 0xA0 SHL SUB NOT AND SWAP1 SSTORE PUSH1 0x0 PUSH1 0x4 SSTORE JUMPDEST POP JUMPDEST POP JUMP JUMPDEST PUSH1 0x2A PUSH1 0x0 SWAP1 SLOAD SWAP1 PUSH2 0x100 EXP SWAP1 DIV PUSH1 0x1 PUSH1 0x1 PUSH1 0xA0 SHL SUB AND PUSH1 0x1 PUSH1 0x1 PUSH1 0xA0 SHL SUB AND PUSH4 0x38AF3EED PUSH1 0x40 MLOAD DUP2 PUSH4 0xFFFFFFFF AND PUSH1 0xE0 SHL DUP2 MSTORE PUSH1 0x4 ADD PUSH1 0x20 PUSH1 0x40 MLOAD DUP1 DUP4 SUB DUP2 DUP7 GAS STATICCALL ISZERO DUP1 ISZERO PUSH2 0xE49 JUMPI RETURNDATASIZE PUSH1 0x0 DUP1 RETURNDATACOPY RETURNDATASIZE PUSH1 0x0 REVERT JUMPDEST POP POP POP POP PUSH1 0x40 MLOAD RETURNDATASIZE PUSH1 0x1F NOT PUSH1 0x1F DUP3 ADD AND DUP3 ADD DUP1 PUSH1 0x40 MSTORE POP DUP2 ADD SWAP1 PUSH2 0xE6D SWAP2 SWAP1 PUSH2 0x526A JUMP JUMPDEST PUSH1 0x1 PUSH1 0x1 PUSH1 0xA0 SHL SUB AND CALLER PUSH1 0x1 PUSH1 0x1 PUSH1 0xA0 SHL SUB AND EQ PUSH2 0xE9D JUMPI PUSH1 0x40 MLOAD PUSH3 0x461BCD PUSH1 0xE5 SHL DUP2 MSTORE PUSH1 0x4 ADD PUSH2 0xDAC SWAP1 PUSH2 0x5287 JUMP JUMPDEST PUSH1 0x2A SLOAD PUSH1 0x0 SWAP1 PUSH1 0x1 PUSH1 0x1 PUSH1 0xA0 SHL SUB AND PUSH4 0xC8100DCC PUSH2 0xEB9 PUSH2 0x281A JUMP JUMPDEST PUSH1 0x40 MLOAD DUP3 PUSH4 0xFFFFFFFF AND PUSH1 0xE0 SHL DUP2 MSTORE PUSH1 0x4 ADD PUSH2 0xED5 SWAP2 SWAP1 PUSH2 0x52D9 JUMP JUMPDEST PUSH1 0x20 PUSH1 0x40 MLOAD DUP1 DUP4 SUB DUP2 PUSH1 0x0 DUP8 GAS CALL ISZERO DUP1 ISZERO PUSH2 0xEF4 JUMPI RETURNDATASIZE PUSH1 0x0 DUP1 RETURNDATACOPY RETURNDATASIZE PUSH1 0x0 REVERT JUMPDEST POP POP POP POP PUSH1 0x40 MLOAD RETURNDATASIZE PUSH1 0x1F NOT PUSH1 0x1F DUP3 ADD AND DUP3 ADD DUP1 PUSH1 0x40 MSTORE POP DUP2 ADD SWAP1 PUSH2 0xF18 SWAP2 SWAP1 PUSH2 0x530B JUMP JUMPDEST CALLER PUSH1 0x0 SWAP1 DUP2 MSTORE PUSH1 0xB PUSH1 0x20 MSTORE PUSH1 0x40 SWAP1 KECCAK256 SLOAD SWAP1 SWAP2 POP PUSH2 0xF35 SWAP1 DUP3 PUSH2 0xC1E JUMP JUMPDEST CALLER PUSH1 0x0 SWAP1 DUP2 MSTORE PUSH1 0xB PUSH1 0x20 MSTORE PUSH1 0x40 SWAP1 KECCAK256 SSTORE POP JUMP JUMPDEST PUSH1 0x60 PUSH1 0x1 DUP1 SLOAD DUP1 PUSH1 0x20 MUL PUSH1 0x20 ADD PUSH1 0x40 MLOAD SWAP1 DUP2 ADD PUSH1 0x40 MSTORE DUP1 SWAP3 SWAP2 SWAP1 DUP2 DUP2 MSTORE PUSH1 0x20 ADD DUP3 DUP1 SLOAD DUP1 ISZERO PUSH2 0xCDC JUMPI PUSH1 0x20 MUL DUP3 ADD SWAP2 SWAP1 PUSH1 0x0 MSTORE PUSH1 0x20 PUSH1 0x0 KECCAK256 SWAP1 JUMPDEST DUP2 SLOAD PUSH1 0x1 PUSH1 0x1 PUSH1 0xA0 SHL SUB AND DUP2 MSTORE PUSH1 0x1 SWAP1 SWAP2 ADD SWAP1 PUSH1 0x20 ADD DUP1 DUP4 GT PUSH2 0xF82 JUMPI POP POP POP POP POP SWAP1 POP SWAP1 JUMP JUMPDEST PUSH1 0x1 SLOAD PUSH2 0xFB5 SWAP1 PUSH2 0x2464 JUMP JUMPDEST ISZERO PUSH2 0xDF3 JUMPI PUSH1 0x3 SLOAD PUSH1 0x1 PUSH1 0x1 PUSH1 0xA0 SHL SUB AND ISZERO DUP1 ISZERO PUSH2 0xFE6 JUMPI PUSH1 0x3 DUP1 SLOAD PUSH1 0x1 PUSH1 0x1 PUSH1 0xA0 SHL SUB NOT AND CALLER OR SWAP1 SSTORE PUSH1 0x1 SLOAD PUSH1 0x4 SSTORE JUMPDEST PUSH1 0x0 DUP3 MLOAD GT PUSH2 0x1048 JUMPI PUSH1 0x40 MLOAD PUSH3 0x461BCD PUSH1 0xE5 SHL DUP2 MSTORE PUSH1 0x20 PUSH1 0x4 DUP3 ADD MSTORE PUSH1 0x28 PUSH1 0x24 DUP3 ADD MSTORE PUSH32 0x7472616E736665724F776E6572736869703A206F776E65727320617272617920 PUSH1 0x44 DUP3 ADD MSTORE PUSH8 0x697320656D707479 PUSH1 0xC0 SHL PUSH1 0x64 DUP3 ADD MSTORE PUSH1 0x84 ADD PUSH2 0xDAC JUMP JUMPDEST PUSH2 0x100 DUP3 MLOAD GT ISZERO PUSH2 0x10B7 JUMPI PUSH1 0x40 MLOAD PUSH3 0x461BCD PUSH1 0xE5 SHL DUP2 MSTORE PUSH1 0x20 PUSH1 0x4 DUP3 ADD MSTORE PUSH1 0x33 PUSH1 0x24 DUP3 ADD MSTORE PUSH32 0x7472616E736665724F776E6572736869703A206F776E65727320636F756E7420 PUSH1 0x44 DUP3 ADD MSTORE PUSH19 0x34B99033B932B0BA32B9103A3432B710191A9B PUSH1 0x69 SHL PUSH1 0x64 DUP3 ADD MSTORE PUSH1 0x84 ADD PUSH2 0xDAC JUMP JUMPDEST PUSH1 0x0 JUMPDEST PUSH1 0x1 SLOAD DUP2 LT ISZERO PUSH2 0x1112 JUMPI PUSH1 0x5 PUSH1 0x0 PUSH1 0x1 DUP4 DUP2 SLOAD DUP2 LT PUSH2 0x10DB JUMPI PUSH2 0x10DB PUSH2 0x5324 JUMP JUMPDEST PUSH1 0x0 SWAP2 DUP3 MSTORE PUSH1 0x20 DUP1 DUP4 KECCAK256 SWAP1 SWAP2 ADD SLOAD PUSH1 0x1 PUSH1 0x1 PUSH1 0xA0 SHL SUB AND DUP4 MSTORE DUP3 ADD SWAP3 SWAP1 SWAP3 MSTORE PUSH1 0x40 ADD DUP2 KECCAK256 SSTORE DUP1 PUSH2 0x110A DUP2 PUSH2 0x533A JUMP JUMPDEST SWAP2 POP POP PUSH2 0x10BA JUMP JUMPDEST POP PUSH1 0x0 JUMPDEST DUP3 MLOAD DUP2 LT ISZERO PUSH2 0x12BB JUMPI PUSH1 0x0 PUSH1 0x1 PUSH1 0x1 PUSH1 0xA0 SHL SUB AND DUP4 DUP3 DUP2 MLOAD DUP2 LT PUSH2 0x113C JUMPI PUSH2 0x113C PUSH2 0x5324 JUMP JUMPDEST PUSH1 0x20 MUL PUSH1 0x20 ADD ADD MLOAD PUSH1 0x1 PUSH1 0x1 PUSH1 0xA0 SHL SUB AND EQ ISZERO PUSH2 0x11B1 JUMPI PUSH1 0x40 MLOAD PUSH3 0x461BCD PUSH1 0xE5 SHL DUP2 MSTORE PUSH1 0x20 PUSH1 0x4 DUP3 ADD MSTORE PUSH1 0x2D PUSH1 0x24 DUP3 ADD MSTORE PUSH32 0x7472616E736665724F776E6572736869703A206F776E65727320617272617920 PUSH1 0x44 DUP3 ADD MSTORE PUSH13 0x636F6E7461696E73207A65726F PUSH1 0x98 SHL PUSH1 0x64 DUP3 ADD MSTORE PUSH1 0x84 ADD PUSH2 0xDAC JUMP JUMPDEST PUSH1 0x5 PUSH1 0x0 DUP5 DUP4 DUP2 MLOAD DUP2 LT PUSH2 0x11C7 JUMPI PUSH2 0x11C7 PUSH2 0x5324 JUMP JUMPDEST PUSH1 0x20 MUL PUSH1 0x20 ADD ADD MLOAD PUSH1 0x1 PUSH1 0x1 PUSH1 0xA0 SHL SUB AND PUSH1 0x1 PUSH1 0x1 PUSH1 0xA0 SHL SUB AND DUP2 MSTORE PUSH1 0x20 ADD SWAP1 DUP2 MSTORE PUSH1 0x20 ADD PUSH1 0x0 KECCAK256 SLOAD PUSH1 0x0 EQ PUSH2 0x125B JUMPI PUSH1 0x40 MLOAD PUSH3 0x461BCD PUSH1 0xE5 SHL DUP2 MSTORE PUSH1 0x20 PUSH1 0x4 DUP3 ADD MSTORE PUSH1 0x33 PUSH1 0x24 DUP3 ADD MSTORE PUSH32 0x7472616E736665724F776E6572736869703A206F776E65727320617272617920 PUSH1 0x44 DUP3 ADD MSTORE PUSH19 0x636F6E7461696E73206475706C696361746573 PUSH1 0x68 SHL PUSH1 0x64 DUP3 ADD MSTORE PUSH1 0x84 ADD PUSH2 0xDAC JUMP JUMPDEST PUSH2 0x1266 DUP2 PUSH1 0x1 PUSH2 0x5217 JUMP JUMPDEST PUSH1 0x5 PUSH1 0x0 DUP6 DUP5 DUP2 MLOAD DUP2 LT PUSH2 0x127C JUMPI PUSH2 0x127C PUSH2 0x5324 JUMP JUMPDEST PUSH1 0x20 MUL PUSH1 0x20 ADD ADD MLOAD PUSH1 0x1 PUSH1 0x1 PUSH1 0xA0 SHL SUB AND PUSH1 0x1 PUSH1 0x1 PUSH1 0xA0 SHL SUB AND DUP2 MSTORE PUSH1 0x20 ADD SWAP1 DUP2 MSTORE PUSH1 0x20 ADD PUSH1 0x0 KECCAK256 DUP2 SWAP1 SSTORE POP DUP1 DUP1 PUSH2 0x12B3 SWAP1 PUSH2 0x533A JUMP JUMPDEST SWAP2 POP POP PUSH2 0x1116 JUMP JUMPDEST POP PUSH32 0xE62C04BB3499D4F432A50E07318D42861C4865AFB22EE4CFE403D4F945507090 PUSH1 0x1 DUP4 PUSH1 0x40 MLOAD PUSH2 0x12EE SWAP3 SWAP2 SWAP1 PUSH2 0x5355 JUMP JUMPDEST PUSH1 0x40 MLOAD DUP1 SWAP2 SUB SWAP1 LOG1 DUP2 MLOAD PUSH2 0x1309 SWAP1 PUSH1 0x1 SWAP1 PUSH1 0x20 DUP6 ADD SWAP1 PUSH2 0x4D82 JUMP JUMPDEST POP PUSH2 0x1316 PUSH1 0x2 PUSH1 0x0 PUSH2 0x4DE7 JUMP JUMPDEST PUSH1 0x0 DUP1 SLOAD SWAP1 DUP1 PUSH2 0x1325 DUP4 PUSH2 0x533A JUMP JUMPDEST SWAP2 SWAP1 POP SSTORE POP DUP1 ISZERO PUSH2 0xDF1 JUMPI PUSH1 0x3 DUP1 SLOAD PUSH1 0x1 PUSH1 0x1 PUSH1 0xA0 SHL SUB NOT AND SWAP1 SSTORE PUSH1 0x0 PUSH1 0x4 SSTORE POP POP JUMP JUMPDEST PUSH1 0x0 PUSH2 0x1356 DUP5 DUP5 DUP5 PUSH2 0x2BE3 JUMP JUMPDEST PUSH2 0x13A8 DUP5 CALLER PUSH2 0x13A3 DUP6 PUSH1 0x40 MLOAD DUP1 PUSH1 0x60 ADD PUSH1 0x40 MSTORE DUP1 PUSH1 0x2D DUP2 MSTORE PUSH1 0x20 ADD PUSH2 0x5595 PUSH1 0x2D SWAP2 CODECOPY PUSH1 0x1 PUSH1 0x1 PUSH1 0xA0 SHL SUB DUP11 AND PUSH1 0x0 SWAP1 DUP2 MSTORE PUSH1 0xC PUSH1 0x20 SWAP1 DUP2 MSTORE PUSH1 0x40 DUP1 DUP4 KECCAK256 CALLER DUP5 MSTORE SWAP1 SWAP2 MSTORE SWAP1 KECCAK256 SLOAD SWAP2 SWAP1 PUSH2 0x2309 JUMP JUMPDEST PUSH2 0x2335 JUMP JUMPDEST POP PUSH1 0x1 SWAP4 SWAP3 POP POP POP JUMP JUMPDEST PUSH1 0x0 DUP1 PUSH2 0x13BE DUP4 PUSH2 0x1CA3 JUMP JUMPDEST SWAP1 POP DUP1 PUSH1 0x20 ADD MLOAD DUP5 DUP2 MLOAD DUP2 LT PUSH2 0x13D6 JUMPI PUSH2 0x13D6 PUSH2 0x5324 JUMP JUMPDEST PUSH1 0x20 MUL PUSH1 0x20 ADD ADD MLOAD PUSH1 0x40 ADD MLOAD TIMESTAMP PUSH2 0x13ED SWAP2 SWAP1 PUSH2 0x53BD JUMP JUMPDEST SWAP5 SWAP4 POP POP POP POP JUMP JUMPDEST CALLER PUSH1 0x0 DUP2 DUP2 MSTORE PUSH1 0xC PUSH1 0x20 SWAP1 DUP2 MSTORE PUSH1 0x40 DUP1 DUP4 KECCAK256 PUSH1 0x1 PUSH1 0x1 PUSH1 0xA0 SHL SUB DUP8 AND DUP5 MSTORE SWAP1 SWAP2 MSTORE DUP2 KECCAK256 SLOAD SWAP1 SWAP2 PUSH2 0xCF3 SWAP2 DUP6 SWAP1 PUSH2 0x13A3 SWAP1 DUP7 PUSH2 0xC1E JUMP JUMPDEST PUSH1 0x2E PUSH1 0x0 SWAP1 SLOAD SWAP1 PUSH2 0x100 EXP SWAP1 DIV PUSH1 0x1 PUSH1 0x1 PUSH1 0xA0 SHL SUB AND PUSH1 0x1 PUSH1 0x1 PUSH1 0xA0 SHL SUB AND PUSH4 0x38AF3EED PUSH1 0x40 MLOAD DUP2 PUSH4 0xFFFFFFFF AND PUSH1 0xE0 SHL DUP2 MSTORE PUSH1 0x4 ADD PUSH1 0x20 PUSH1 0x40 MLOAD DUP1 DUP4 SUB DUP2 DUP7 GAS STATICCALL ISZERO DUP1 ISZERO PUSH2 0x147E JUMPI RETURNDATASIZE PUSH1 0x0 DUP1 RETURNDATACOPY RETURNDATASIZE PUSH1 0x0 REVERT JUMPDEST POP POP POP POP PUSH1 0x40 MLOAD RETURNDATASIZE PUSH1 0x1F NOT PUSH1 0x1F DUP3 ADD AND DUP3 ADD DUP1 PUSH1 0x40 MSTORE POP DUP2 ADD SWAP1 PUSH2 0x14A2 SWAP2 SWAP1 PUSH2 0x526A JUMP JUMPDEST PUSH1 0x1 PUSH1 0x1 PUSH1 0xA0 SHL SUB AND CALLER PUSH1 0x1 PUSH1 0x1 PUSH1 0xA0 SHL SUB AND EQ PUSH2 0x14D2 JUMPI PUSH1 0x40 MLOAD PUSH3 0x461BCD PUSH1 0xE5 SHL DUP2 MSTORE PUSH1 0x4 ADD PUSH2 0xDAC SWAP1 PUSH2 0x5287 JUMP JUMPDEST PUSH1 0x2E SLOAD PUSH1 0x0 SWAP1 PUSH1 0x1 PUSH1 0x1 PUSH1 0xA0 SHL SUB AND PUSH4 0xC8100DCC PUSH2 0xEB9 PUSH2 0x2ED2 JUMP JUMPDEST PUSH1 0x2 DUP2 DUP2 SLOAD DUP2 LT PUSH2 0x14FE JUMPI PUSH1 0x0 DUP1 REVERT JUMPDEST PUSH1 0x0 SWAP2 DUP3 MSTORE PUSH1 0x20 SWAP1 SWAP2 KECCAK256 ADD SLOAD SWAP1 POP DUP2 JUMP JUMPDEST PUSH1 0x2C PUSH1 0x0 SWAP1 SLOAD SWAP1 PUSH2 0x100 EXP SWAP1 DIV PUSH1 0x1 PUSH1 0x1 PUSH1 0xA0 SHL SUB AND PUSH1 0x1 PUSH1 0x1 PUSH1 0xA0 SHL SUB AND PUSH4 0x38AF3EED PUSH1 0x40 MLOAD DUP2 PUSH4 0xFFFFFFFF AND PUSH1 0xE0 SHL DUP2 MSTORE PUSH1 0x4 ADD PUSH1 0x20 PUSH1 0x40 MLOAD DUP1 DUP4 SUB DUP2 DUP7 GAS STATICCALL ISZERO DUP1 ISZERO PUSH2 0x1562 JUMPI RETURNDATASIZE PUSH1 0x0 DUP1 RETURNDATACOPY RETURNDATASIZE PUSH1 0x0 REVERT JUMPDEST POP POP POP POP PUSH1 0x40 MLOAD RETURNDATASIZE PUSH1 0x1F NOT PUSH1 0x1F DUP3 ADD AND DUP3 ADD DUP1 PUSH1 0x40 MSTORE POP DUP2 ADD SWAP1 PUSH2 0x1586 SWAP2 SWAP1 PUSH2 0x526A JUMP JUMPDEST PUSH1 0x1 PUSH1 0x1 PUSH1 0xA0 SHL SUB AND CALLER PUSH1 0x1 PUSH1 0x1 PUSH1 0xA0 SHL SUB AND EQ PUSH2 0x15B6 JUMPI PUSH1 0x40 MLOAD PUSH3 0x461BCD PUSH1 0xE5 SHL DUP2 MSTORE PUSH1 0x4 ADD PUSH2 0xDAC SWAP1 PUSH2 0x5287 JUMP JUMPDEST PUSH1 0x2C SLOAD PUSH1 0x0 SWAP1 PUSH1 0x1 PUSH1 0x1 PUSH1 0xA0 SHL SUB AND PUSH4 0xC8100DCC PUSH2 0xEB9 PUSH2 0x31CB JUMP JUMPDEST DUP1 PUSH3 0x278D00 EQ DUP1 PUSH2 0x15E5 JUMPI POP DUP1 PUSH3 0x76A700 EQ JUMPDEST DUP1 PUSH2 0x15F2 JUMPI POP DUP1 PUSH3 0xED4E00 EQ JUMPDEST DUP1 PUSH2 0x1600 JUMPI POP DUP1 PUSH4 0x1E13380 EQ JUMPDEST PUSH2 0x1661 JUMPI PUSH1 0x40 MLOAD PUSH3 0x461BCD PUSH1 0xE5 SHL DUP2 MSTORE PUSH1 0x20 PUSH1 0x4 DUP3 ADD MSTORE PUSH1 0x2C PUSH1 0x24 DUP3 ADD MSTORE PUSH32 0x54616C6178546F6B656E3A205374616B696E67207061636B616765206F707469 PUSH1 0x44 DUP3 ADD MSTORE PUSH12 0x1BDB881B9BDD08195E1A5CDD PUSH1 0xA2 SHL PUSH1 0x64 DUP3 ADD MSTORE PUSH1 0x84 ADD PUSH2 0xDAC JUMP JUMPDEST CALLER PUSH1 0x0 SWAP1 DUP2 MSTORE PUSH1 0xB PUSH1 0x20 MSTORE PUSH1 0x40 SWAP1 KECCAK256 SLOAD DUP3 LT PUSH2 0x16D2 JUMPI PUSH1 0x40 MLOAD PUSH3 0x461BCD PUSH1 0xE5 SHL DUP2 MSTORE PUSH1 0x20 PUSH1 0x4 DUP3 ADD MSTORE PUSH1 0x2A PUSH1 0x24 DUP3 ADD MSTORE PUSH32 0x54616C6178546F6B656E3A2043616E6E6F74207374616B65206D6F7265207468 PUSH1 0x44 DUP3 ADD MSTORE PUSH10 0x30B7103CB7BA9037BBB7 PUSH1 0xB1 SHL PUSH1 0x64 DUP3 ADD MSTORE PUSH1 0x84 ADD PUSH2 0xDAC JUMP JUMPDEST PUSH1 0x0 DUP2 DUP2 MSTORE PUSH1 0xD PUSH1 0x20 MSTORE PUSH1 0x40 SWAP1 KECCAK256 SLOAD PUSH2 0x16EE SWAP1 DUP4 SWAP1 DUP4 SWAP1 PUSH2 0x346F JUMP JUMPDEST PUSH2 0x16F8 CALLER DUP4 PUSH2 0x360B JUMP JUMPDEST ADDRESS PUSH1 0x0 SWAP1 DUP2 MSTORE PUSH1 0xB PUSH1 0x20 MSTORE PUSH1 0x40 SWAP1 KECCAK256 SLOAD PUSH2 0x1712 SWAP1 DUP4 PUSH2 0xC1E JUMP JUMPDEST POP POP POP JUMP JUMPDEST PUSH1 0x29 PUSH1 0x0 SWAP1 SLOAD SWAP1 PUSH2 0x100 EXP SWAP1 DIV PUSH1 0x1 PUSH1 0x1 PUSH1 0xA0 SHL SUB AND PUSH1 0x1 PUSH1 0x1 PUSH1 0xA0 SHL SUB AND PUSH4 0x38AF3EED PUSH1 0x40 MLOAD DUP2 PUSH4 0xFFFFFFFF AND PUSH1 0xE0 SHL DUP2 MSTORE PUSH1 0x4 ADD PUSH1 0x20 PUSH1 0x40 MLOAD DUP1 DUP4 SUB DUP2 DUP7 GAS STATICCALL ISZERO DUP1 ISZERO PUSH2 0x176A JUMPI RETURNDATASIZE PUSH1 0x0 DUP1 RETURNDATACOPY RETURNDATASIZE PUSH1 0x0 REVERT JUMPDEST POP POP POP POP PUSH1 0x40 MLOAD RETURNDATASIZE PUSH1 0x1F NOT PUSH1 0x1F DUP3 ADD AND DUP3 ADD DUP1 PUSH1 0x40 MSTORE POP DUP2 ADD SWAP1 PUSH2 0x178E SWAP2 SWAP1 PUSH2 0x526A JUMP JUMPDEST PUSH1 0x1 PUSH1 0x1 PUSH1 0xA0 SHL SUB AND CALLER PUSH1 0x1 PUSH1 0x1 PUSH1 0xA0 SHL SUB AND EQ PUSH2 0x17BE JUMPI PUSH1 0x40 MLOAD PUSH3 0x461BCD PUSH1 0xE5 SHL DUP2 MSTORE PUSH1 0x4 ADD PUSH2 0xDAC SWAP1 PUSH2 0x5287 JUMP JUMPDEST PUSH1 0x29 SLOAD PUSH1 0x0 SWAP1 PUSH1 0x1 PUSH1 0x1 PUSH1 0xA0 SHL SUB AND PUSH4 0xC8100DCC PUSH2 0xEB9 PUSH2 0x281A JUMP JUMPDEST PUSH1 0x28 PUSH1 0x0 SWAP1 SLOAD SWAP1 PUSH2 0x100 EXP SWAP1 DIV PUSH1 0x1 PUSH1 0x1 PUSH1 0xA0 SHL SUB AND PUSH1 0x1 PUSH1 0x1 PUSH1 0xA0 SHL SUB AND PUSH4 0x38AF3EED PUSH1 0x40 MLOAD DUP2 PUSH4 0xFFFFFFFF AND PUSH1 0xE0 SHL DUP2 MSTORE PUSH1 0x4 ADD PUSH1 0x20 PUSH1 0x40 MLOAD DUP1 DUP4 SUB DUP2 DUP7 GAS STATICCALL ISZERO DUP1 ISZERO PUSH2 0x182D JUMPI RETURNDATASIZE PUSH1 0x0 DUP1 RETURNDATACOPY RETURNDATASIZE PUSH1 0x0 REVERT JUMPDEST POP POP POP POP PUSH1 0x40 MLOAD RETURNDATASIZE PUSH1 0x1F NOT PUSH1 0x1F DUP3 ADD AND DUP3 ADD DUP1 PUSH1 0x40 MSTORE POP DUP2 ADD SWAP1 PUSH2 0x1851 SWAP2 SWAP1 PUSH2 0x526A JUMP JUMPDEST PUSH1 0x1 PUSH1 0x1 PUSH1 0xA0 SHL SUB AND CALLER PUSH1 0x1 PUSH1 0x1 PUSH1 0xA0 SHL SUB AND EQ PUSH2 0x1881 JUMPI PUSH1 0x40 MLOAD PUSH3 0x461BCD PUSH1 0xE5 SHL DUP2 MSTORE PUSH1 0x4 ADD PUSH2 0xDAC SWAP1 PUSH2 0x5287 JUMP JUMPDEST PUSH1 0x28 SLOAD PUSH1 0x0 SWAP1 PUSH1 0x1 PUSH1 0x1 PUSH1 0xA0 SHL SUB AND PUSH4 0xC8100DCC PUSH2 0xEB9 PUSH2 0x371C JUMP JUMPDEST PUSH1 0x2B PUSH1 0x0 SWAP1 SLOAD SWAP1 PUSH2 0x100 EXP SWAP1 DIV PUSH1 0x1 PUSH1 0x1 PUSH1 0xA0 SHL SUB AND PUSH1 0x1 PUSH1 0x1 PUSH1 0xA0 SHL SUB AND PUSH4 0x38AF3EED PUSH1 0x40 MLOAD DUP2 PUSH4 0xFFFFFFFF AND PUSH1 0xE0 SHL DUP2 MSTORE PUSH1 0x4 ADD PUSH1 0x20 PUSH1 0x40 MLOAD DUP1 DUP4 SUB DUP2 DUP7 GAS STATICCALL ISZERO DUP1 ISZERO PUSH2 0x18F0 JUMPI RETURNDATASIZE PUSH1 0x0 DUP1 RETURNDATACOPY RETURNDATASIZE PUSH1 0x0 REVERT JUMPDEST POP POP POP POP PUSH1 0x40 MLOAD RETURNDATASIZE PUSH1 0x1F NOT PUSH1 0x1F DUP3 ADD AND DUP3 ADD DUP1 PUSH1 0x40 MSTORE POP DUP2 ADD SWAP1 PUSH2 0x1914 SWAP2 SWAP1 PUSH2 0x526A JUMP JUMPDEST PUSH1 0x1 PUSH1 0x1 PUSH1 0xA0 SHL SUB AND CALLER PUSH1 0x1 PUSH1 0x1 PUSH1 0xA0 SHL SUB AND EQ PUSH2 0x1944 JUMPI PUSH1 0x40 MLOAD PUSH3 0x461BCD PUSH1 0xE5 SHL DUP2 MSTORE PUSH1 0x4 ADD PUSH2 0xDAC SWAP1 PUSH2 0x5287 JUMP JUMPDEST PUSH1 0x2B SLOAD PUSH1 0x0 SWAP1 PUSH1 0x1 PUSH1 0x1 PUSH1 0xA0 SHL SUB AND PUSH4 0xC8100DCC PUSH2 0xEB9 PUSH2 0x3ADE JUMP JUMPDEST PUSH1 0x1 SLOAD PUSH2 0x196C SWAP1 PUSH2 0x2464 JUMP JUMPDEST ISZERO PUSH2 0xDF3 JUMPI PUSH1 0x3 SLOAD PUSH1 0x1 PUSH1 0x1 PUSH1 0xA0 SHL SUB AND ISZERO DUP1 ISZERO PUSH2 0x199D JUMPI PUSH1 0x3 DUP1 SLOAD PUSH1 0x1 PUSH1 0x1 PUSH1 0xA0 SHL SUB NOT AND CALLER OR SWAP1 SSTORE PUSH1 0x1 SLOAD PUSH1 0x4 SSTORE JUMPDEST PUSH1 0xE DUP1 SLOAD PUSH2 0xFFFF NOT AND PUSH2 0xFFFF DUP5 AND SWAP1 DUP2 OR SWAP1 SWAP2 SSTORE PUSH1 0x40 MLOAD SWAP1 DUP2 MSTORE CALLER SWAP1 PUSH32 0xDF92943B31FFF67E8447FF9FA8B5E226DDCC5FB34D36CFE120C0F2B96EB8D6F7 SWAP1 PUSH1 0x20 ADD PUSH1 0x40 MLOAD DUP1 SWAP2 SUB SWAP1 LOG2 DUP1 ISZERO PUSH2 0xDF1 JUMPI PUSH1 0x3 DUP1 SLOAD PUSH1 0x1 PUSH1 0x1 PUSH1 0xA0 SHL SUB NOT AND SWAP1 SSTORE PUSH1 0x0 PUSH1 0x4 SSTORE POP POP JUMP JUMPDEST PUSH1 0x60 PUSH2 0x1A0F PUSH2 0xF48 JUMP JUMPDEST SWAP1 POP SWAP1 JUMP JUMPDEST PUSH1 0x2D PUSH1 0x0 SWAP1 SLOAD SWAP1 PUSH2 0x100 EXP SWAP1 DIV PUSH1 0x1 PUSH1 0x1 PUSH1 0xA0 SHL SUB AND PUSH1 0x1 PUSH1 0x1 PUSH1 0xA0 SHL SUB AND PUSH4 0x38AF3EED PUSH1 0x40 MLOAD DUP2 PUSH4 0xFFFFFFFF AND PUSH1 0xE0 SHL DUP2 MSTORE PUSH1 0x4 ADD PUSH1 0x20 PUSH1 0x40 MLOAD DUP1 DUP4 SUB DUP2 DUP7 GAS STATICCALL ISZERO DUP1 ISZERO PUSH2 0x1A67 JUMPI RETURNDATASIZE PUSH1 0x0 DUP1 RETURNDATACOPY RETURNDATASIZE PUSH1 0x0 REVERT JUMPDEST POP POP POP POP PUSH1 0x40 MLOAD RETURNDATASIZE PUSH1 0x1F NOT PUSH1 0x1F DUP3 ADD AND DUP3 ADD DUP1 PUSH1 0x40 MSTORE POP DUP2 ADD SWAP1 PUSH2 0x1A8B SWAP2 SWAP1 PUSH2 0x526A JUMP JUMPDEST PUSH1 0x1 PUSH1 0x1 PUSH1 0xA0 SHL SUB AND CALLER PUSH1 0x1 PUSH1 0x1 PUSH1 0xA0 SHL SUB AND EQ PUSH2 0x1ABB JUMPI PUSH1 0x40 MLOAD PUSH3 0x461BCD PUSH1 0xE5 SHL DUP2 MSTORE PUSH1 0x4 ADD PUSH2 0xDAC SWAP1 PUSH2 0x5287 JUMP JUMPDEST PUSH1 0x2D SLOAD PUSH1 0x0 SWAP1 PUSH1 0x1 PUSH1 0x1 PUSH1 0xA0 SHL SUB AND PUSH4 0xC8100DCC PUSH2 0xEB9 PUSH2 0x31CB JUMP JUMPDEST PUSH1 0x25 PUSH1 0x0 SWAP1 SLOAD SWAP1 PUSH2 0x100 EXP SWAP1 DIV PUSH1 0x1 PUSH1 0x1 PUSH1 0xA0 SHL SUB AND PUSH1 0x1 PUSH1 0x1 PUSH1 0xA0 SHL SUB AND PUSH4 0x38AF3EED PUSH1 0x40 MLOAD DUP2 PUSH4 0xFFFFFFFF AND PUSH1 0xE0 SHL DUP2 MSTORE PUSH1 0x4 ADD PUSH1 0x20 PUSH1 0x40 MLOAD DUP1 DUP4 SUB DUP2 DUP7 GAS STATICCALL ISZERO DUP1 ISZERO PUSH2 0x1B2A JUMPI RETURNDATASIZE PUSH1 0x0 DUP1 RETURNDATACOPY RETURNDATASIZE PUSH1 0x0 REVERT JUMPDEST POP POP POP POP PUSH1 0x40 MLOAD RETURNDATASIZE PUSH1 0x1F NOT PUSH1 0x1F DUP3 ADD AND DUP3 ADD DUP1 PUSH1 0x40 MSTORE POP DUP2 ADD SWAP1 PUSH2 0x1B4E SWAP2 SWAP1 PUSH2 0x526A JUMP JUMPDEST PUSH1 0x1B SLOAD PUSH1 0x1 PUSH1 0x1 PUSH1 0xA0 SHL SUB SWAP1 DUP2 AND SWAP2 AND EQ PUSH2 0x1B7B JUMPI PUSH1 0x40 MLOAD PUSH3 0x461BCD PUSH1 0xE5 SHL DUP2 MSTORE PUSH1 0x4 ADD PUSH2 0xDAC SWAP1 PUSH2 0x5287 JUMP JUMPDEST PUSH1 0x25 SLOAD PUSH1 0x0 SWAP1 PUSH1 0x1 PUSH1 0x1 PUSH1 0xA0 SHL SUB AND PUSH4 0xC8100DCC PUSH2 0xEB9 PUSH2 0x3EA0 JUMP JUMPDEST PUSH1 0x60 PUSH1 0x11 DUP1 SLOAD PUSH2 0xC63 SWAP1 PUSH2 0x522F JUMP JUMPDEST PUSH1 0x1 SLOAD PUSH2 0x1BB2 SWAP1 PUSH2 0x2464 JUMP JUMPDEST ISZERO PUSH2 0xDF3 JUMPI PUSH1 0x3 SLOAD PUSH1 0x1 PUSH1 0x1 PUSH1 0xA0 SHL SUB AND ISZERO DUP1 ISZERO PUSH2 0x1BE3 JUMPI PUSH1 0x3 DUP1 SLOAD PUSH1 0x1 PUSH1 0x1 PUSH1 0xA0 SHL SUB NOT AND CALLER OR SWAP1 SSTORE PUSH1 0x1 SLOAD PUSH1 0x4 SSTORE JUMPDEST DUP2 PUSH2 0x1C2A JUMPI PUSH1 0x40 MLOAD PUSH3 0x461BCD PUSH1 0xE5 SHL DUP2 MSTORE PUSH1 0x20 PUSH1 0x4 DUP3 ADD MSTORE PUSH1 0x17 PUSH1 0x24 DUP3 ADD MSTORE PUSH23 0x416D6F756E74206D696E742063616E6E6F74206265203 PUSH1 0x4C SHL PUSH1 0x44 DUP3 ADD MSTORE PUSH1 0x64 ADD PUSH2 0xDAC JUMP JUMPDEST PUSH1 0x13 SLOAD PUSH2 0x1C37 SWAP1 DUP4 PUSH2 0xC1E JUMP JUMPDEST PUSH1 0x13 SSTORE PUSH1 0xF SLOAD PUSH2 0xDD2 SWAP1 DUP4 PUSH2 0xC1E JUMP JUMPDEST PUSH1 0x0 PUSH2 0xCF3 CALLER DUP5 PUSH2 0x13A3 DUP6 PUSH1 0x40 MLOAD DUP1 PUSH1 0x60 ADD PUSH1 0x40 MSTORE DUP1 PUSH1 0x2A DUP2 MSTORE PUSH1 0x20 ADD PUSH2 0x55C2 PUSH1 0x2A SWAP2 CODECOPY CALLER PUSH1 0x0 SWAP1 DUP2 MSTORE PUSH1 0xC PUSH1 0x20 SWAP1 DUP2 MSTORE PUSH1 0x40 DUP1 DUP4 KECCAK256 PUSH1 0x1 PUSH1 0x1 PUSH1 0xA0 SHL SUB DUP14 AND DUP5 MSTORE SWAP1 SWAP2 MSTORE SWAP1 KECCAK256 SLOAD SWAP2 SWAP1 PUSH2 0x2309 JUMP JUMPDEST PUSH1 0x0 PUSH2 0xCF3 CALLER DUP5 DUP5 PUSH2 0x2BE3 JUMP JUMPDEST PUSH1 0x40 DUP1 MLOAD DUP1 DUP3 ADD SWAP1 SWAP2 MSTORE PUSH1 0x0 DUP2 MSTORE PUSH1 0x60 PUSH1 0x20 DUP3 ADD MSTORE PUSH1 0x0 PUSH1 0x40 MLOAD DUP1 PUSH1 0x40 ADD PUSH1 0x40 MSTORE DUP1 PUSH1 0x0 DUP2 MSTORE PUSH1 0x20 ADD PUSH1 0x9 PUSH1 0xA PUSH1 0x0 DUP8 PUSH1 0x1 PUSH1 0x1 PUSH1 0xA0 SHL SUB AND PUSH1 0x1 PUSH1 0x1 PUSH1 0xA0 SHL SUB AND DUP2 MSTORE PUSH1 0x20 ADD SWAP1 DUP2 MSTORE PUSH1 0x20 ADD PUSH1 0x0 KECCAK256 SLOAD DUP2 SLOAD DUP2 LT PUSH2 0x1D04 JUMPI PUSH2 0x1D04 PUSH2 0x5324 JUMP JUMPDEST SWAP1 PUSH1 0x0 MSTORE PUSH1 0x20 PUSH1 0x0 KECCAK256 SWAP1 PUSH1 0x2 MUL ADD PUSH1 0x1 ADD DUP1 SLOAD DUP1 PUSH1 0x20 MUL PUSH1 0x20 ADD PUSH1 0x40 MLOAD SWAP1 DUP2 ADD PUSH1 0x40 MSTORE DUP1 SWAP3 SWAP2 SWAP1 DUP2 DUP2 MSTORE PUSH1 0x20 ADD PUSH1 0x0 SWAP1 JUMPDEST DUP3 DUP3 LT ISZERO PUSH2 0x1DA6 JUMPI PUSH1 0x0 DUP5 DUP2 MSTORE PUSH1 0x20 SWAP1 DUP2 SWAP1 KECCAK256 PUSH1 0x40 DUP1 MLOAD PUSH1 0xC0 DUP2 ADD DUP3 MSTORE PUSH1 0x6 DUP7 MUL SWAP1 SWAP3 ADD DUP1 SLOAD PUSH1 0x1 PUSH1 0x1 PUSH1 0xA0 SHL SUB AND DUP4 MSTORE PUSH1 0x1 DUP1 DUP3 ADD SLOAD DUP5 DUP7 ADD MSTORE PUSH1 0x2 DUP3 ADD SLOAD SWAP3 DUP5 ADD SWAP3 SWAP1 SWAP3 MSTORE PUSH1 0x3 DUP2 ADD SLOAD PUSH1 0x60 DUP5 ADD MSTORE PUSH1 0x4 DUP2 ADD SLOAD PUSH1 0x80 DUP5 ADD MSTORE PUSH1 0x5 ADD SLOAD PUSH1 0xA0 DUP4 ADD MSTORE SWAP1 DUP4 MSTORE SWAP1 SWAP3 ADD SWAP2 ADD PUSH2 0x1D35 JUMP JUMPDEST POP POP POP SWAP2 MSTORE POP SWAP4 SWAP3 POP POP POP JUMP JUMPDEST PUSH1 0x26 PUSH1 0x0 SWAP1 SLOAD SWAP1 PUSH2 0x100 EXP SWAP1 DIV PUSH1 0x1 PUSH1 0x1 PUSH1 0xA0 SHL SUB AND PUSH1 0x1 PUSH1 0x1 PUSH1 0xA0 SHL SUB AND PUSH4 0x38AF3EED PUSH1 0x40 MLOAD DUP2 PUSH4 0xFFFFFFFF AND PUSH1 0xE0 SHL DUP2 MSTORE PUSH1 0x4 ADD PUSH1 0x20 PUSH1 0x40 MLOAD DUP1 DUP4 SUB DUP2 DUP7 GAS STATICCALL ISZERO DUP1 ISZERO PUSH2 0x1E06 JUMPI RETURNDATASIZE PUSH1 0x0 DUP1 RETURNDATACOPY RETURNDATASIZE PUSH1 0x0 REVERT JUMPDEST POP POP POP POP PUSH1 0x40 MLOAD RETURNDATASIZE PUSH1 0x1F NOT PUSH1 0x1F DUP3 ADD AND DUP3 ADD DUP1 PUSH1 0x40 MSTORE POP DUP2 ADD SWAP1 PUSH2 0x1E2A SWAP2 SWAP1 PUSH2 0x526A JUMP JUMPDEST PUSH1 0x1 PUSH1 0x1 PUSH1 0xA0 SHL SUB AND CALLER PUSH1 0x1 PUSH1 0x1 PUSH1 0xA0 SHL SUB AND EQ PUSH2 0x1E5A JUMPI PUSH1 0x40 MLOAD PUSH3 0x461BCD PUSH1 0xE5 SHL DUP2 MSTORE PUSH1 0x4 ADD PUSH2 0xDAC SWAP1 PUSH2 0x5287 JUMP JUMPDEST PUSH1 0x26 SLOAD PUSH1 0x0 SWAP1 PUSH1 0x1 PUSH1 0x1 PUSH1 0xA0 SHL SUB AND PUSH4 0xC8100DCC PUSH2 0xEB9 PUSH2 0x40E0 JUMP JUMPDEST PUSH1 0x40 MLOAD PUSH4 0x70A08231 PUSH1 0xE0 SHL DUP2 MSTORE ADDRESS PUSH1 0x4 DUP3 ADD DUP2 SWAP1 MSTORE PUSH1 0x0 SWAP2 PUSH4 0x70A08231 SWAP1 PUSH1 0x24 ADD PUSH1 0x20 PUSH1 0x40 MLOAD DUP1 DUP4 SUB DUP2 DUP7 GAS STATICCALL ISZERO DUP1 ISZERO PUSH2 0x1EB4 JUMPI RETURNDATASIZE PUSH1 0x0 DUP1 RETURNDATACOPY RETURNDATASIZE PUSH1 0x0 REVERT JUMPDEST POP POP POP POP PUSH1 0x40 MLOAD RETURNDATASIZE PUSH1 0x1F NOT PUSH1 0x1F DUP3 ADD AND DUP3 ADD DUP1 PUSH1 0x40 MSTORE POP DUP2 ADD SWAP1 PUSH2 0x1A0F SWAP2 SWAP1 PUSH2 0x530B JUMP JUMPDEST PUSH1 0x1 SLOAD PUSH2 0x1EE4 SWAP1 PUSH2 0x2464 JUMP JUMPDEST ISZERO PUSH2 0xDF3 JUMPI PUSH1 0x3 SLOAD PUSH1 0x1 PUSH1 0x1 PUSH1 0xA0 SHL SUB AND ISZERO DUP1 ISZERO PUSH2 0x1F15 JUMPI PUSH1 0x3 DUP1 SLOAD PUSH1 0x1 PUSH1 0x1 PUSH1 0xA0 SHL SUB NOT AND CALLER OR SWAP1 SSTORE PUSH1 0x1 SLOAD PUSH1 0x4 SSTORE JUMPDEST PUSH2 0x1F1E DUP3 PUSH2 0x44A2 JUMP JUMPDEST DUP1 ISZERO PUSH2 0xDF1 JUMPI PUSH1 0x3 DUP1 SLOAD PUSH1 0x1 PUSH1 0x1 PUSH1 0xA0 SHL SUB NOT AND SWAP1 SSTORE PUSH1 0x0 PUSH1 0x4 SSTORE POP POP JUMP JUMPDEST PUSH1 0x40 DUP1 MLOAD DUP1 DUP3 ADD SWAP1 SWAP2 MSTORE PUSH1 0x0 DUP2 MSTORE PUSH1 0x60 PUSH1 0x20 DUP3 ADD MSTORE PUSH1 0x0 DUP1 PUSH1 0x40 MLOAD DUP1 PUSH1 0x40 ADD PUSH1 0x40 MSTORE DUP1 PUSH1 0x0 DUP2 MSTORE PUSH1 0x20 ADD PUSH1 0x9 PUSH1 0xA PUSH1 0x0 DUP9 PUSH1 0x1 PUSH1 0x1 PUSH1 0xA0 SHL SUB AND PUSH1 0x1 PUSH1 0x1 PUSH1 0xA0 SHL SUB AND DUP2 MSTORE PUSH1 0x20 ADD SWAP1 DUP2 MSTORE PUSH1 0x20 ADD PUSH1 0x0 KECCAK256 SLOAD DUP2 SLOAD DUP2 LT PUSH2 0x1F9F JUMPI PUSH2 0x1F9F PUSH2 0x5324 JUMP JUMPDEST SWAP1 PUSH1 0x0 MSTORE PUSH1 0x20 PUSH1 0x0 KECCAK256 SWAP1 PUSH1 0x2 MUL ADD PUSH1 0x1 ADD DUP1 SLOAD DUP1 PUSH1 0x20 MUL PUSH1 0x20 ADD PUSH1 0x40 MLOAD SWAP1 DUP2 ADD PUSH1 0x40 MSTORE DUP1 SWAP3 SWAP2 SWAP1 DUP2 DUP2 MSTORE PUSH1 0x20 ADD PUSH1 0x0 SWAP1 JUMPDEST DUP3 DUP3 LT ISZERO PUSH2 0x2041 JUMPI PUSH1 0x0 DUP5 DUP2 MSTORE PUSH1 0x20 SWAP1 DUP2 SWAP1 KECCAK256 PUSH1 0x40 DUP1 MLOAD PUSH1 0xC0 DUP2 ADD DUP3 MSTORE PUSH1 0x6 DUP7 MUL SWAP1 SWAP3 ADD DUP1 SLOAD PUSH1 0x1 PUSH1 0x1 PUSH1 0xA0 SHL SUB AND DUP4 MSTORE PUSH1 0x1 DUP1 DUP3 ADD SLOAD DUP5 DUP7 ADD MSTORE PUSH1 0x2 DUP3 ADD SLOAD SWAP3 DUP5 ADD SWAP3 SWAP1 SWAP3 MSTORE PUSH1 0x3 DUP2 ADD SLOAD PUSH1 0x60 DUP5 ADD MSTORE PUSH1 0x4 DUP2 ADD SLOAD PUSH1 0x80 DUP5 ADD MSTORE PUSH1 0x5 ADD SLOAD PUSH1 0xA0 DUP4 ADD MSTORE SWAP1 DUP4 MSTORE SWAP1 SWAP3 ADD SWAP2 ADD PUSH2 0x1FD0 JUMP JUMPDEST POP POP POP SWAP2 MSTORE POP PUSH1 0x20 DUP2 ADD MLOAD MLOAD SWAP1 SWAP2 POP PUSH2 0x20B4 JUMPI PUSH1 0x40 MLOAD PUSH3 0x461BCD PUSH1 0xE5 SHL DUP2 MSTORE PUSH1 0x20 PUSH1 0x4 DUP3 ADD MSTORE PUSH1 0x2F PUSH1 0x24 DUP3 ADD MSTORE PUSH32 0x5374616B61626C653A2054686973206164647265737320646F6573206E6F7420 PUSH1 0x44 DUP3 ADD MSTORE PUSH15 0x6861766520616E79207374616B6573 PUSH1 0x88 SHL PUSH1 0x64 DUP3 ADD MSTORE PUSH1 0x84 ADD PUSH2 0xDAC JUMP JUMPDEST PUSH1 0x0 JUMPDEST DUP2 PUSH1 0x20 ADD MLOAD MLOAD DUP2 LT ISZERO PUSH2 0x217A JUMPI PUSH1 0x0 PUSH2 0x210E DUP4 PUSH1 0x20 ADD MLOAD DUP4 DUP2 MLOAD DUP2 LT PUSH2 0x20DF JUMPI PUSH2 0x20DF PUSH2 0x5324 JUMP JUMPDEST PUSH1 0x20 MUL PUSH1 0x20 ADD ADD MLOAD DUP5 PUSH1 0x20 ADD MLOAD DUP5 DUP2 MLOAD DUP2 LT PUSH2 0x20FD JUMPI PUSH2 0x20FD PUSH2 0x5324 JUMP JUMPDEST PUSH1 0x20 MUL PUSH1 0x20 ADD ADD MLOAD PUSH1 0x20 ADD MLOAD PUSH2 0x455D JUMP JUMPDEST SWAP1 POP DUP1 DUP4 PUSH1 0x20 ADD MLOAD DUP4 DUP2 MLOAD DUP2 LT PUSH2 0x2127 JUMPI PUSH2 0x2127 PUSH2 0x5324 JUMP JUMPDEST PUSH1 0x20 MUL PUSH1 0x20 ADD ADD MLOAD PUSH1 0x60 ADD DUP2 DUP2 MSTORE POP POP DUP3 PUSH1 0x20 ADD MLOAD DUP3 DUP2 MLOAD DUP2 LT PUSH2 0x214D JUMPI PUSH2 0x214D PUSH2 0x5324 JUMP JUMPDEST PUSH1 0x20 MUL PUSH1 0x20 ADD ADD MLOAD PUSH1 0x20 ADD MLOAD DUP5 PUSH2 0x2164 SWAP2 SWAP1 PUSH2 0x5217 JUMP JUMPDEST SWAP4 POP PUSH2 0x2173 SWAP1 POP PUSH1 0x1 DUP3 PUSH2 0x5217 JUMP JUMPDEST SWAP1 POP PUSH2 0x20B7 JUMP JUMPDEST POP SWAP1 DUP2 MSTORE SWAP3 SWAP2 POP POP JUMP JUMPDEST PUSH1 0x27 PUSH1 0x0 SWAP1 SLOAD SWAP1 PUSH2 0x100 EXP SWAP1 DIV PUSH1 0x1 PUSH1 0x1 PUSH1 0xA0 SHL SUB AND PUSH1 0x1 PUSH1 0x1 PUSH1 0xA0 SHL SUB AND PUSH4 0x38AF3EED PUSH1 0x40 MLOAD DUP2 PUSH4 0xFFFFFFFF AND PUSH1 0xE0 SHL DUP2 MSTORE PUSH1 0x4 ADD PUSH1 0x20 PUSH1 0x40 MLOAD DUP1 DUP4 SUB DUP2 DUP7 GAS STATICCALL ISZERO DUP1 ISZERO PUSH2 0x21D7 JUMPI RETURNDATASIZE PUSH1 0x0 DUP1 RETURNDATACOPY RETURNDATASIZE PUSH1 0x0 REVERT JUMPDEST POP POP POP POP PUSH1 0x40 MLOAD RETURNDATASIZE PUSH1 0x1F NOT PUSH1 0x1F DUP3 ADD AND DUP3 ADD DUP1 PUSH1 0x40 MSTORE POP DUP2 ADD SWAP1 PUSH2 0x21FB SWAP2 SWAP1 PUSH2 0x526A JUMP JUMPDEST PUSH1 0x1 PUSH1 0x1 PUSH1 0xA0 SHL SUB AND CALLER PUSH1 0x1 PUSH1 0x1 PUSH1 0xA0 SHL SUB AND EQ PUSH2 0x222B JUMPI PUSH1 0x40 MLOAD PUSH3 0x461BCD PUSH1 0xE5 SHL DUP2 MSTORE PUSH1 0x4 ADD PUSH2 0xDAC SWAP1 PUSH2 0x5287 JUMP JUMPDEST PUSH1 0x27 SLOAD PUSH1 0x0 SWAP1 PUSH1 0x1 PUSH1 0x1 PUSH1 0xA0 SHL SUB AND PUSH4 0xC8100DCC PUSH2 0xEB9 PUSH2 0x40E0 JUMP JUMPDEST PUSH1 0x0 DUP1 PUSH2 0x2254 DUP5 DUP5 PUSH2 0x45B0 JUMP JUMPDEST SWAP2 POP SWAP2 POP PUSH2 0x2261 DUP2 PUSH2 0x44A2 JUMP JUMPDEST ADDRESS PUSH1 0x0 SWAP1 DUP2 MSTORE PUSH1 0xB PUSH1 0x20 MSTORE PUSH1 0x40 SWAP1 KECCAK256 SLOAD PUSH2 0x227B SWAP1 DUP4 PUSH2 0x280E JUMP JUMPDEST POP ADDRESS PUSH1 0x0 SWAP1 DUP2 MSTORE PUSH1 0xB PUSH1 0x20 MSTORE PUSH1 0x40 SWAP1 KECCAK256 SLOAD PUSH2 0x2296 SWAP1 DUP3 PUSH2 0x280E JUMP JUMPDEST POP PUSH2 0x22AB CALLER JUMPDEST PUSH2 0x22A6 DUP4 DUP6 PUSH2 0x5217 JUMP JUMPDEST PUSH2 0x489E JUMP JUMPDEST POP POP POP POP JUMP JUMPDEST PUSH1 0x0 DUP1 PUSH2 0x22BD DUP4 PUSH2 0x4984 JUMP JUMPDEST SWAP2 POP SWAP2 POP PUSH2 0x22CA DUP2 PUSH2 0x44A2 JUMP JUMPDEST ADDRESS PUSH1 0x0 SWAP1 DUP2 MSTORE PUSH1 0xB PUSH1 0x20 MSTORE PUSH1 0x40 SWAP1 KECCAK256 SLOAD PUSH2 0x22E4 SWAP1 DUP4 PUSH2 0x280E JUMP JUMPDEST POP ADDRESS PUSH1 0x0 SWAP1 DUP2 MSTORE PUSH1 0xB PUSH1 0x20 MSTORE PUSH1 0x40 SWAP1 KECCAK256 SLOAD PUSH2 0x22FF SWAP1 DUP3 PUSH2 0x280E JUMP JUMPDEST POP PUSH2 0x1712 CALLER PUSH2 0x229C JUMP JUMPDEST PUSH1 0x0 DUP2 DUP5 DUP5 GT ISZERO PUSH2 0x232D JUMPI PUSH1 0x40 MLOAD PUSH3 0x461BCD PUSH1 0xE5 SHL DUP2 MSTORE PUSH1 0x4 ADD PUSH2 0xDAC SWAP2 SWAP1 PUSH2 0x4E52 JUMP JUMPDEST POP POP POP SWAP1 SUB SWAP1 JUMP JUMPDEST PUSH1 0x1 PUSH1 0x1 PUSH1 0xA0 SHL SUB DUP4 AND PUSH2 0x239D JUMPI PUSH1 0x40 MLOAD PUSH3 0x461BCD PUSH1 0xE5 SHL DUP2 MSTORE PUSH1 0x20 PUSH1 0x4 DUP3 ADD MSTORE PUSH1 0x29 PUSH1 0x24 DUP3 ADD MSTORE PUSH32 0x54616C6178546F6B656E3A20617070726F76652066726F6D20746865207A6572 PUSH1 0x44 DUP3 ADD MSTORE PUSH9 0x6F2061646472657373 PUSH1 0xB8 SHL PUSH1 0x64 DUP3 ADD MSTORE PUSH1 0x84 ADD PUSH2 0xDAC JUMP JUMPDEST PUSH1 0x1 PUSH1 0x1 PUSH1 0xA0 SHL SUB DUP3 AND PUSH2 0x2403 JUMPI PUSH1 0x40 MLOAD PUSH3 0x461BCD PUSH1 0xE5 SHL DUP2 MSTORE PUSH1 0x20 PUSH1 0x4 DUP3 ADD MSTORE PUSH1 0x27 PUSH1 0x24 DUP3 ADD MSTORE PUSH32 0x54616C6178546F6B656E3A20617070726F766520746F20746865207A65726F20 PUSH1 0x44 DUP3 ADD MSTORE PUSH7 0x61646472657373 PUSH1 0xC8 SHL PUSH1 0x64 DUP3 ADD MSTORE PUSH1 0x84 ADD PUSH2 0xDAC JUMP JUMPDEST PUSH1 0x1 PUSH1 0x1 PUSH1 0xA0 SHL SUB DUP4 DUP2 AND PUSH1 0x0 DUP2 DUP2 MSTORE PUSH1 0xC PUSH1 0x20 SWAP1 DUP2 MSTORE PUSH1 0x40 DUP1 DUP4 KECCAK256 SWAP5 DUP8 AND DUP1 DUP5 MSTORE SWAP5 DUP3 MSTORE SWAP2 DUP3 SWAP1 KECCAK256 DUP6 SWAP1 SSTORE SWAP1 MLOAD DUP5 DUP2 MSTORE PUSH32 0x8C5BE1E5EBEC7D5BD14F71427D1E84F3DD0314C0F7B2291E5B200AC8C7C3B925 SWAP2 ADD PUSH1 0x40 MLOAD DUP1 SWAP2 SUB SWAP1 LOG3 POP POP POP JUMP JUMPDEST PUSH1 0x3 SLOAD PUSH1 0x0 SWAP1 PUSH1 0x1 PUSH1 0x1 PUSH1 0xA0 SHL SUB AND CALLER EQ ISZERO PUSH2 0x2508 JUMPI PUSH1 0x4 SLOAD DUP3 GT ISZERO PUSH2 0x2500 JUMPI PUSH1 0x40 MLOAD PUSH3 0x461BCD PUSH1 0xE5 SHL DUP2 MSTORE PUSH1 0x20 PUSH1 0x4 DUP3 ADD MSTORE PUSH1 0x44 PUSH1 0x24 DUP3 ADD DUP2 SWAP1 MSTORE PUSH32 0x636865636B486F774D616E794F776E6572733A206E6573746564206F776E6572 SWAP1 DUP3 ADD MSTORE PUSH32 0x73206D6F64696669657220636865636B2072657175697265206D6F7265206F77 PUSH1 0x64 DUP3 ADD MSTORE PUSH4 0x6E657273 PUSH1 0xE0 SHL PUSH1 0x84 DUP3 ADD MSTORE PUSH1 0xA4 ADD PUSH2 0xDAC JUMP JUMPDEST POP PUSH1 0x1 SWAP2 SWAP1 POP JUMP JUMPDEST CALLER PUSH1 0x0 SWAP1 DUP2 MSTORE PUSH1 0x5 PUSH1 0x20 MSTORE PUSH1 0x40 SWAP1 KECCAK256 SLOAD ISZERO ISZERO PUSH1 0x1 EQ PUSH2 0x2580 JUMPI PUSH1 0x40 MLOAD PUSH3 0x461BCD PUSH1 0xE5 SHL DUP2 MSTORE PUSH1 0x20 PUSH1 0x4 DUP3 ADD MSTORE PUSH1 0x2E PUSH1 0x24 DUP3 ADD MSTORE PUSH32 0x636865636B486F774D616E794F776E6572733A206D73672E73656E6465722069 PUSH1 0x44 DUP3 ADD MSTORE PUSH14 0x39903737BA1030B71037BBB732B9 PUSH1 0x91 SHL PUSH1 0x64 DUP3 ADD MSTORE PUSH1 0x84 ADD PUSH2 0xDAC JUMP JUMPDEST CALLER PUSH1 0x0 SWAP1 DUP2 MSTORE PUSH1 0x5 PUSH1 0x20 MSTORE PUSH1 0x40 DUP2 KECCAK256 SLOAD PUSH2 0x259C SWAP1 PUSH1 0x1 SWAP1 PUSH2 0x53BD JUMP JUMPDEST SWAP1 POP PUSH1 0x0 DUP1 CALLDATASIZE PUSH1 0x0 SLOAD PUSH1 0x40 MLOAD PUSH1 0x20 ADD PUSH2 0x25B7 SWAP4 SWAP3 SWAP2 SWAP1 PUSH2 0x53D4 JUMP JUMPDEST PUSH1 0x40 MLOAD PUSH1 0x20 DUP2 DUP4 SUB SUB DUP2 MSTORE SWAP1 PUSH1 0x40 MSTORE DUP1 MLOAD SWAP1 PUSH1 0x20 ADD KECCAK256 SWAP1 POP DUP2 PUSH1 0x2 PUSH2 0x25DC SWAP2 SWAP1 PUSH2 0x54CA JUMP JUMPDEST PUSH1 0x0 DUP3 DUP2 MSTORE PUSH1 0x7 PUSH1 0x20 MSTORE PUSH1 0x40 SWAP1 KECCAK256 SLOAD AND ISZERO PUSH2 0x265F JUMPI PUSH1 0x40 MLOAD PUSH3 0x461BCD PUSH1 0xE5 SHL DUP2 MSTORE PUSH1 0x20 PUSH1 0x4 DUP3 ADD MSTORE PUSH1 0x39 PUSH1 0x24 DUP3 ADD MSTORE PUSH32 0x636865636B486F774D616E794F776E6572733A206F776E657220616C72656164 PUSH1 0x44 DUP3 ADD MSTORE PUSH32 0x7920766F74656420666F7220746865206F7065726174696F6E00000000000000 PUSH1 0x64 DUP3 ADD MSTORE PUSH1 0x84 ADD PUSH2 0xDAC JUMP JUMPDEST PUSH2 0x266A DUP3 PUSH1 0x2 PUSH2 0x54CA JUMP JUMPDEST PUSH1 0x0 DUP3 DUP2 MSTORE PUSH1 0x7 PUSH1 0x20 SWAP1 DUP2 MSTORE PUSH1 0x40 DUP1 DUP4 KECCAK256 DUP1 SLOAD SWAP1 SWAP5 OR SWAP1 SWAP4 SSTORE PUSH1 0x8 SWAP1 MSTORE SWAP1 DUP2 KECCAK256 SLOAD PUSH2 0x2696 SWAP1 PUSH1 0x1 PUSH2 0x5217 JUMP JUMPDEST PUSH1 0x0 DUP4 DUP2 MSTORE PUSH1 0x8 PUSH1 0x20 MSTORE PUSH1 0x40 SWAP1 KECCAK256 DUP2 SWAP1 SSTORE SWAP1 POP PUSH1 0x1 DUP2 EQ ISZERO PUSH2 0x2740 JUMPI PUSH1 0x2 DUP1 SLOAD PUSH1 0x0 DUP5 DUP2 MSTORE PUSH1 0x6 PUSH1 0x20 SWAP1 DUP2 MSTORE PUSH1 0x40 DUP1 DUP4 KECCAK256 DUP5 SWAP1 SSTORE PUSH1 0x1 DUP1 DUP6 ADD DUP7 SSTORE SWAP5 SWAP1 SWAP3 MSTORE PUSH32 0x405787FA12A823E0F2B7631CC41B3BA8828B3321CA811111FA75CD3AA3BB5ACE SWAP1 SWAP3 ADD DUP6 SWAP1 SSTORE SWAP2 SLOAD DUP3 MLOAD DUP6 DUP2 MSTORE SWAP2 DUP3 ADD DUP9 SWAP1 MSTORE DUP2 DUP4 ADD MSTORE CALLER PUSH1 0x60 DUP3 ADD MSTORE SWAP1 MLOAD PUSH32 0x6BAB0114F9524353D2D33E64EDD3EBBD16E21EDD57DE2226BA76C310A7CE2265 SWAP2 DUP2 SWAP1 SUB PUSH1 0x80 ADD SWAP1 LOG1 JUMPDEST PUSH1 0x1 SLOAD PUSH1 0x40 DUP1 MLOAD DUP5 DUP2 MSTORE PUSH1 0x20 DUP2 ADD DUP5 SWAP1 MSTORE DUP1 DUP3 ADD DUP9 SWAP1 MSTORE PUSH1 0x60 DUP2 ADD SWAP3 SWAP1 SWAP3 MSTORE CALLER PUSH1 0x80 DUP4 ADD MSTORE MLOAD PUSH32 0x8DD9582C6577AEA81973B5ADEB6C135F6E18565D99578B7BA0C9377437EC0221 SWAP2 DUP2 SWAP1 SUB PUSH1 0xA0 ADD SWAP1 LOG1 PUSH1 0x0 DUP3 DUP2 MSTORE PUSH1 0x8 PUSH1 0x20 MSTORE PUSH1 0x40 SWAP1 KECCAK256 SLOAD DUP6 EQ ISZERO PUSH2 0x2803 JUMPI PUSH2 0x27AF DUP3 PUSH2 0x4B66 JUMP JUMPDEST PUSH1 0x1 SLOAD PUSH1 0x40 DUP1 MLOAD DUP5 DUP2 MSTORE PUSH1 0x20 DUP2 ADD DUP9 SWAP1 MSTORE DUP1 DUP3 ADD SWAP3 SWAP1 SWAP3 MSTORE CALLER PUSH1 0x60 DUP4 ADD MSTORE MLOAD PUSH32 0x8A11C8CA99994C292318CE367F65BF6FF61D390BC814B3588496F6FBCC32807A SWAP2 DUP2 SWAP1 SUB PUSH1 0x80 ADD SWAP1 LOG1 POP PUSH1 0x1 SWAP5 SWAP4 POP POP POP POP JUMP JUMPDEST POP PUSH1 0x0 SWAP5 SWAP4 POP POP POP POP JUMP JUMPDEST PUSH1 0x0 PUSH2 0xC15 DUP3 DUP5 PUSH2 0x53BD JUMP JUMPDEST PUSH2 0x2822 PUSH2 0x4E05 JUMP JUMPDEST PUSH1 0x40 MLOAD DUP1 PUSH2 0x560 ADD PUSH1 0x40 MSTORE DUP1 PUSH2 0x2843 PUSH3 0x51615 PUSH8 0xDE0B6B3A7640000 PUSH2 0x4C36 JUMP JUMPDEST DUP2 MSTORE PUSH1 0x20 ADD PUSH1 0x0 DUP2 MSTORE PUSH1 0x20 ADD PUSH1 0x0 DUP2 MSTORE PUSH1 0x20 ADD PUSH1 0x0 DUP2 MSTORE PUSH1 0x20 ADD PUSH2 0x2872 PUSH3 0x51615 PUSH8 0xDE0B6B3A7640000 PUSH2 0x4C36 JUMP JUMPDEST DUP2 MSTORE PUSH1 0x20 ADD PUSH1 0x0 DUP2 MSTORE PUSH1 0x20 ADD PUSH1 0x0 DUP2 MSTORE PUSH1 0x20 ADD PUSH2 0x289A PUSH3 0x51615 PUSH8 0xDE0B6B3A7640000 PUSH2 0x4C36 JUMP JUMPDEST DUP2 MSTORE PUSH1 0x20 ADD PUSH1 0x0 DUP2 MSTORE PUSH1 0x20 ADD PUSH1 0x0 DUP2 MSTORE PUSH1 0x20 ADD PUSH2 0x28C2 PUSH3 0x51615 PUSH8 0xDE0B6B3A7640000 PUSH2 0x4C36 JUMP JUMPDEST DUP2 MSTORE PUSH1 0x20 ADD PUSH1 0x0 DUP2 MSTORE PUSH1 0x20 ADD PUSH1 0x0 DUP2 MSTORE PUSH1 0x20 ADD PUSH2 0x28EA PUSH3 0x11A1E PUSH8 0xDE0B6B3A7640000 PUSH2 0x4C36 JUMP JUMPDEST DUP2 MSTORE PUSH1 0x20 ADD PUSH2 0x2904 PUSH3 0x11A1E PUSH8 0xDE0B6B3A7640000 PUSH2 0x4C36 JUMP JUMPDEST DUP2 MSTORE PUSH1 0x20 ADD PUSH2 0x291E PUSH3 0x11A1E PUSH8 0xDE0B6B3A7640000 PUSH2 0x4C36 JUMP JUMPDEST DUP2 MSTORE PUSH1 0x20 ADD PUSH2 0x2938 PUSH3 0x11A1E PUSH8 0xDE0B6B3A7640000 PUSH2 0x4C36 JUMP JUMPDEST DUP2 MSTORE PUSH1 0x20 ADD PUSH2 0x2952 PUSH3 0x11A1E PUSH8 0xDE0B6B3A7640000 PUSH2 0x4C36 JUMP JUMPDEST DUP2 MSTORE PUSH1 0x20 ADD PUSH2 0x296C PUSH3 0x11A1E PUSH8 0xDE0B6B3A7640000 PUSH2 0x4C36 JUMP JUMPDEST DUP2 MSTORE PUSH1 0x20 ADD PUSH2 0x2986 PUSH3 0x11A1E PUSH8 0xDE0B6B3A7640000 PUSH2 0x4C36 JUMP JUMPDEST DUP2 MSTORE PUSH1 0x20 ADD PUSH2 0x29A0 PUSH3 0x11A1E PUSH8 0xDE0B6B3A7640000 PUSH2 0x4C36 JUMP JUMPDEST DUP2 MSTORE PUSH1 0x20 ADD PUSH2 0x29BA PUSH3 0x11A1E PUSH8 0xDE0B6B3A7640000 PUSH2 0x4C36 JUMP JUMPDEST DUP2 MSTORE PUSH1 0x20 ADD PUSH2 0x29D4 PUSH3 0x11A1E PUSH8 0xDE0B6B3A7640000 PUSH2 0x4C36 JUMP JUMPDEST DUP2 MSTORE PUSH1 0x20 ADD PUSH2 0x29EE PUSH3 0x11A1E PUSH8 0xDE0B6B3A7640000 PUSH2 0x4C36 JUMP JUMPDEST DUP2 MSTORE PUSH1 0x20 ADD PUSH2 0x2A08 PUSH3 0x11A1E PUSH8 0xDE0B6B3A7640000 PUSH2 0x4C36 JUMP JUMPDEST DUP2 MSTORE PUSH1 0x20 ADD PUSH2 0x2A22 PUSH3 0x11A1E PUSH8 0xDE0B6B3A7640000 PUSH2 0x4C36 JUMP JUMPDEST DUP2 MSTORE PUSH1 0x20 ADD PUSH2 0x2A3C PUSH3 0x11A1E PUSH8 0xDE0B6B3A7640000 PUSH2 0x4C36 JUMP JUMPDEST DUP2 MSTORE PUSH1 0x20 ADD PUSH2 0x2A56 PUSH3 0x11A1E PUSH8 0xDE0B6B3A7640000 PUSH2 0x4C36 JUMP JUMPDEST DUP2 MSTORE PUSH1 0x20 ADD PUSH2 0x2A70 PUSH3 0x11A1E PUSH8 0xDE0B6B3A7640000 PUSH2 0x4C36 JUMP JUMPDEST DUP2 MSTORE PUSH1 0x20 ADD PUSH2 0x2A8A PUSH3 0x11A1E PUSH8 0xDE0B6B3A7640000 PUSH2 0x4C36 JUMP JUMPDEST DUP2 MSTORE PUSH1 0x20 ADD PUSH2 0x2AA4 PUSH3 0x11A1E PUSH8 0xDE0B6B3A7640000 PUSH2 0x4C36 JUMP JUMPDEST DUP2 MSTORE PUSH1 0x20 ADD PUSH2 0x2ABE PUSH3 0x11A1E PUSH8 0xDE0B6B3A7640000 PUSH2 0x4C36 JUMP JUMPDEST DUP2 MSTORE PUSH1 0x20 ADD PUSH2 0x2AD8 PUSH3 0x11A1E PUSH8 0xDE0B6B3A7640000 PUSH2 0x4C36 JUMP JUMPDEST DUP2 MSTORE PUSH1 0x20 ADD PUSH2 0x2AF2 PUSH3 0x11A1E PUSH8 0xDE0B6B3A7640000 PUSH2 0x4C36 JUMP JUMPDEST DUP2 MSTORE PUSH1 0x20 ADD PUSH2 0x2B0C PUSH3 0x11A1E PUSH8 0xDE0B6B3A7640000 PUSH2 0x4C36 JUMP JUMPDEST DUP2 MSTORE PUSH1 0x20 ADD PUSH2 0x2B26 PUSH3 0x11A1E PUSH8 0xDE0B6B3A7640000 PUSH2 0x4C36 JUMP JUMPDEST DUP2 MSTORE PUSH1 0x20 ADD PUSH2 0x2B40 PUSH3 0x11A1E PUSH8 0xDE0B6B3A7640000 PUSH2 0x4C36 JUMP JUMPDEST DUP2 MSTORE PUSH1 0x20 ADD PUSH2 0x2B5A PUSH3 0x11A1E PUSH8 0xDE0B6B3A7640000 PUSH2 0x4C36 JUMP JUMPDEST DUP2 MSTORE PUSH1 0x20 ADD PUSH2 0x2B74 PUSH3 0x11A1E PUSH8 0xDE0B6B3A7640000 PUSH2 0x4C36 JUMP JUMPDEST DUP2 MSTORE PUSH1 0x20 ADD PUSH2 0x2B8E PUSH3 0x11A1E PUSH8 0xDE0B6B3A7640000 PUSH2 0x4C36 JUMP JUMPDEST DUP2 MSTORE PUSH1 0x20 ADD PUSH2 0x2BA8 PUSH3 0x11A1E PUSH8 0xDE0B6B3A7640000 PUSH2 0x4C36 JUMP JUMPDEST DUP2 MSTORE PUSH1 0x20 ADD PUSH2 0x2BC2 PUSH3 0x11A1E PUSH8 0xDE0B6B3A7640000 PUSH2 0x4C36 JUMP JUMPDEST DUP2 MSTORE PUSH1 0x20 ADD PUSH2 0x2BDC PUSH3 0x11A1E PUSH8 0xDE0B6B3A7640000 PUSH2 0x4C36 JUMP JUMPDEST SWAP1 MSTORE SWAP2 SWAP1 POP JUMP JUMPDEST PUSH1 0x1 PUSH1 0x1 PUSH1 0xA0 SHL SUB DUP4 AND PUSH2 0x2C4C JUMPI PUSH1 0x40 MLOAD PUSH3 0x461BCD PUSH1 0xE5 SHL DUP2 MSTORE PUSH1 0x20 PUSH1 0x4 DUP3 ADD MSTORE PUSH1 0x2A PUSH1 0x24 DUP3 ADD MSTORE PUSH32 0x54616C6178546F6B656E3A207472616E736665722066726F6D20746865207A65 PUSH1 0x44 DUP3 ADD MSTORE PUSH10 0x726F2061646472657373 PUSH1 0xB0 SHL PUSH1 0x64 DUP3 ADD MSTORE PUSH1 0x84 ADD PUSH2 0xDAC JUMP JUMPDEST PUSH1 0x1 PUSH1 0x1 PUSH1 0xA0 SHL SUB DUP3 AND PUSH2 0x2CB3 JUMPI PUSH1 0x40 MLOAD PUSH3 0x461BCD PUSH1 0xE5 SHL DUP2 MSTORE PUSH1 0x20 PUSH1 0x4 DUP3 ADD MSTORE PUSH1 0x28 PUSH1 0x24 DUP3 ADD MSTORE PUSH32 0x54616C6178546F6B656E3A207472616E7366657220746F20746865207A65726F PUSH1 0x44 DUP3 ADD MSTORE PUSH8 0x2061646472657373 PUSH1 0xC0 SHL PUSH1 0x64 DUP3 ADD MSTORE PUSH1 0x84 ADD PUSH2 0xDAC JUMP JUMPDEST PUSH1 0xE SLOAD PUSH1 0x0 SWAP1 PUSH2 0x2CD3 SWAP1 PUSH2 0x2CCC SWAP1 DUP5 SWAP1 PUSH2 0xFFFF AND PUSH2 0x4C36 JUMP JUMPDEST PUSH1 0x64 PUSH2 0xC09 JUMP JUMPDEST SWAP1 POP PUSH1 0x0 PUSH2 0x2CE1 DUP4 DUP4 PUSH2 0x280E JUMP JUMPDEST SWAP1 POP PUSH1 0x0 PUSH2 0x2D04 PUSH2 0x2CFD DUP4 PUSH2 0x2CF8 PUSH1 0x2 PUSH1 0xA PUSH2 0xC09 JUMP JUMPDEST PUSH2 0x4C36 JUMP JUMPDEST PUSH1 0x3 PUSH2 0xC09 JUMP JUMPDEST SWAP1 POP PUSH1 0x0 PUSH2 0x2D18 DUP4 PUSH2 0x2CF8 PUSH1 0x8 PUSH1 0xA PUSH2 0xC09 JUMP JUMPDEST PUSH1 0x22 SLOAD PUSH1 0x1 PUSH1 0x1 PUSH1 0xA0 SHL SUB AND PUSH1 0x0 SWAP1 DUP2 MSTORE PUSH1 0xB PUSH1 0x20 MSTORE PUSH1 0x40 SWAP1 KECCAK256 SLOAD SWAP1 SWAP2 POP PUSH2 0x2D40 SWAP1 DUP4 PUSH2 0xC1E JUMP JUMPDEST PUSH1 0x22 SLOAD PUSH1 0x1 PUSH1 0x1 PUSH1 0xA0 SHL SUB SWAP1 DUP2 AND PUSH1 0x0 SWAP1 DUP2 MSTORE PUSH1 0xB PUSH1 0x20 MSTORE PUSH1 0x40 DUP1 DUP3 KECCAK256 SWAP4 SWAP1 SWAP4 SSTORE PUSH1 0x23 SLOAD SWAP1 SWAP2 AND DUP2 MSTORE KECCAK256 SLOAD PUSH2 0x2D75 SWAP1 DUP4 PUSH2 0xC1E JUMP JUMPDEST PUSH1 0x23 SLOAD PUSH1 0x1 PUSH1 0x1 PUSH1 0xA0 SHL SUB SWAP1 DUP2 AND PUSH1 0x0 SWAP1 DUP2 MSTORE PUSH1 0xB PUSH1 0x20 MSTORE PUSH1 0x40 DUP1 DUP3 KECCAK256 SWAP4 SWAP1 SWAP4 SSTORE PUSH1 0x24 SLOAD SWAP1 SWAP2 AND DUP2 MSTORE KECCAK256 SLOAD PUSH2 0x2DAA SWAP1 DUP4 PUSH2 0xC1E JUMP JUMPDEST PUSH1 0x24 SLOAD PUSH1 0x1 PUSH1 0x1 PUSH1 0xA0 SHL SUB AND PUSH1 0x0 SWAP1 DUP2 MSTORE PUSH1 0xB PUSH1 0x20 MSTORE PUSH1 0x40 DUP1 DUP3 KECCAK256 SWAP3 SWAP1 SWAP3 SSTORE ADDRESS DUP2 MSTORE KECCAK256 SLOAD PUSH2 0x2DD8 SWAP1 DUP3 PUSH2 0xC1E JUMP JUMPDEST PUSH1 0xB PUSH1 0x0 ADDRESS PUSH1 0x1 PUSH1 0x1 PUSH1 0xA0 SHL SUB AND PUSH1 0x1 PUSH1 0x1 PUSH1 0xA0 SHL SUB AND DUP2 MSTORE PUSH1 0x20 ADD SWAP1 DUP2 MSTORE PUSH1 0x20 ADD PUSH1 0x0 KECCAK256 DUP2 SWAP1 SSTORE POP PUSH2 0x2E3E DUP6 PUSH1 0x40 MLOAD DUP1 PUSH1 0x60 ADD PUSH1 0x40 MSTORE DUP1 PUSH1 0x2B DUP2 MSTORE PUSH1 0x20 ADD PUSH2 0x55EC PUSH1 0x2B SWAP2 CODECOPY PUSH1 0x1 PUSH1 0x1 PUSH1 0xA0 SHL SUB DUP11 AND PUSH1 0x0 SWAP1 DUP2 MSTORE PUSH1 0xB PUSH1 0x20 MSTORE PUSH1 0x40 SWAP1 KECCAK256 SLOAD SWAP2 SWAP1 PUSH2 0x2309 JUMP JUMPDEST PUSH1 0x1 PUSH1 0x1 PUSH1 0xA0 SHL SUB DUP1 DUP10 AND PUSH1 0x0 SWAP1 DUP2 MSTORE PUSH1 0xB PUSH1 0x20 MSTORE PUSH1 0x40 DUP1 DUP3 KECCAK256 SWAP4 SWAP1 SWAP4 SSTORE SWAP1 DUP9 AND DUP2 MSTORE KECCAK256 SLOAD PUSH2 0x2E6D SWAP1 DUP5 PUSH2 0xC1E JUMP JUMPDEST PUSH1 0x1 PUSH1 0x1 PUSH1 0xA0 SHL SUB DUP1 DUP9 AND PUSH1 0x0 DUP2 DUP2 MSTORE PUSH1 0xB PUSH1 0x20 MSTORE PUSH1 0x40 SWAP1 DUP2 SWAP1 KECCAK256 SWAP4 SWAP1 SWAP4 SSTORE SWAP2 MLOAD SWAP1 DUP10 AND SWAP1 PUSH32 0xDDF252AD1BE2C89B69C2B068FC378DAA952BA7F163C4A11628F55A4DF523B3EF SWAP1 PUSH2 0x2EC1 SWAP1 DUP8 DUP2 MSTORE PUSH1 0x20 ADD SWAP1 JUMP JUMPDEST PUSH1 0x40 MLOAD DUP1 SWAP2 SUB SWAP1 LOG3 POP POP POP POP POP POP POP JUMP JUMPDEST PUSH2 0x2EDA PUSH2 0x4E05 JUMP JUMPDEST PUSH1 0x40 MLOAD DUP1 PUSH2 0x560 ADD PUSH1 0x40 MSTORE DUP1 PUSH2 0x2EFB PUSH3 0x11CD4A PUSH8 0xDE0B6B3A7640000 PUSH2 0x4C36 JUMP JUMPDEST DUP2 MSTORE PUSH1 0x20 ADD PUSH1 0x0 DUP2 MSTORE PUSH1 0x20 ADD PUSH1 0x0 DUP2 MSTORE PUSH1 0x20 ADD PUSH1 0x0 DUP2 MSTORE PUSH1 0x20 ADD PUSH2 0x2F2A PUSH3 0x989680 PUSH8 0xDE0B6B3A7640000 PUSH2 0x4C36 JUMP JUMPDEST DUP2 MSTORE PUSH1 0x20 ADD PUSH1 0x0 DUP2 MSTORE PUSH1 0x20 ADD PUSH1 0x0 DUP2 MSTORE PUSH1 0x20 ADD PUSH2 0x2F52 PUSH3 0x989680 PUSH8 0xDE0B6B3A7640000 PUSH2 0x4C36 JUMP JUMPDEST DUP2 MSTORE PUSH1 0x20 ADD PUSH1 0x0 DUP2 MSTORE PUSH1 0x20 ADD PUSH1 0x0 DUP2 MSTORE PUSH1 0x20 ADD PUSH2 0x2F7A PUSH3 0x989680 PUSH8 0xDE0B6B3A7640000 PUSH2 0x4C36 JUMP JUMPDEST DUP2 MSTORE PUSH1 0x20 ADD PUSH1 0x0 DUP2 MSTORE PUSH1 0x20 ADD PUSH1 0x0 DUP2 MSTORE PUSH1 0x20 ADD PUSH2 0x2FA2 PUSH3 0x51616 PUSH8 0xDE0B6B3A7640000 PUSH2 0x4C36 JUMP JUMPDEST DUP2 MSTORE PUSH1 0x20 ADD PUSH2 0x2FBC PUSH3 0x51616 PUSH8 0xDE0B6B3A7640000 PUSH2 0x4C36 JUMP JUMPDEST DUP2 MSTORE PUSH1 0x20 ADD PUSH2 0x2FD6 PUSH3 0x51616 PUSH8 0xDE0B6B3A7640000 PUSH2 0x4C36 JUMP JUMPDEST DUP2 MSTORE PUSH1 0x20 ADD PUSH2 0x2FF0 PUSH3 0x51616 PUSH8 0xDE0B6B3A7640000 PUSH2 0x4C36 JUMP JUMPDEST DUP2 MSTORE PUSH1 0x20 ADD PUSH2 0x300A PUSH3 0x51616 PUSH8 0xDE0B6B3A7640000 PUSH2 0x4C36 JUMP JUMPDEST DUP2 MSTORE PUSH1 0x20 ADD PUSH2 0x3024 PUSH3 0x51616 PUSH8 0xDE0B6B3A7640000 PUSH2 0x4C36 JUMP JUMPDEST DUP2 MSTORE PUSH1 0x20 ADD PUSH2 0x303E PUSH3 0x51616 PUSH8 0xDE0B6B3A7640000 PUSH2 0x4C36 JUMP JUMPDEST DUP2 MSTORE PUSH1 0x20 ADD PUSH2 0x3058 PUSH3 0x51616 PUSH8 0xDE0B6B3A7640000 PUSH2 0x4C36 JUMP JUMPDEST DUP2 MSTORE PUSH1 0x20 ADD PUSH2 0x3072 PUSH3 0x51616 PUSH8 0xDE0B6B3A7640000 PUSH2 0x4C36 JUMP JUMPDEST DUP2 MSTORE PUSH1 0x20 ADD PUSH2 0x308C PUSH3 0x51616 PUSH8 0xDE0B6B3A7640000 PUSH2 0x4C36 JUMP JUMPDEST DUP2 MSTORE PUSH1 0x20 ADD PUSH2 0x30A6 PUSH3 0x51616 PUSH8 0xDE0B6B3A7640000 PUSH2 0x4C36 JUMP JUMPDEST DUP2 MSTORE PUSH1 0x20 ADD PUSH2 0x30C0 PUSH3 0x51616 PUSH8 0xDE0B6B3A7640000 PUSH2 0x4C36 JUMP JUMPDEST DUP2 MSTORE PUSH1 0x20 ADD PUSH2 0x30DA PUSH3 0x51616 PUSH8 0xDE0B6B3A7640000 PUSH2 0x4C36 JUMP JUMPDEST DUP2 MSTORE PUSH1 0x20 ADD PUSH2 0x30F4 PUSH3 0x51616 PUSH8 0xDE0B6B3A7640000 PUSH2 0x4C36 JUMP JUMPDEST DUP2 MSTORE PUSH1 0x20 ADD PUSH2 0x310E PUSH3 0x51616 PUSH8 0xDE0B6B3A7640000 PUSH2 0x4C36 JUMP JUMPDEST DUP2 MSTORE PUSH1 0x20 ADD PUSH2 0x3128 PUSH3 0x51616 PUSH8 0xDE0B6B3A7640000 PUSH2 0x4C36 JUMP JUMPDEST DUP2 MSTORE PUSH1 0x20 ADD PUSH2 0x3142 PUSH3 0x51616 PUSH8 0xDE0B6B3A7640000 PUSH2 0x4C36 JUMP JUMPDEST DUP2 MSTORE PUSH1 0x20 ADD PUSH2 0x315C PUSH3 0x51616 PUSH8 0xDE0B6B3A7640000 PUSH2 0x4C36 JUMP JUMPDEST DUP2 MSTORE PUSH1 0x20 ADD PUSH2 0x3176 PUSH3 0x51616 PUSH8 0xDE0B6B3A7640000 PUSH2 0x4C36 JUMP JUMPDEST DUP2 MSTORE PUSH1 0x20 ADD PUSH1 0x0 DUP2 MSTORE PUSH1 0x20 ADD PUSH1 0x0 DUP2 MSTORE PUSH1 0x20 ADD PUSH1 0x0 DUP2 MSTORE PUSH1 0x20 ADD PUSH1 0x0 DUP2 MSTORE PUSH1 0x20 ADD PUSH1 0x0 DUP2 MSTORE PUSH1 0x20 ADD PUSH1 0x0 DUP2 MSTORE PUSH1 0x20 ADD PUSH1 0x0 DUP2 MSTORE PUSH1 0x20 ADD PUSH1 0x0 DUP2 MSTORE PUSH1 0x20 ADD PUSH1 0x0 DUP2 MSTORE PUSH1 0x20 ADD PUSH1 0x0 DUP2 MSTORE PUSH1 0x20 ADD PUSH1 0x0 DUP2 MSTORE POP SWAP1 POP SWAP1 JUMP JUMPDEST PUSH2 0x31D3 PUSH2 0x4E05 JUMP JUMPDEST PUSH1 0x40 MLOAD DUP1 PUSH2 0x560 ADD PUSH1 0x40 MSTORE DUP1 PUSH2 0x31F4 PUSH3 0x11CD4B PUSH8 0xDE0B6B3A7640000 PUSH2 0x4C36 JUMP JUMPDEST DUP2 MSTORE PUSH1 0x20 ADD PUSH1 0x0 DUP2 MSTORE PUSH1 0x20 ADD PUSH1 0x0 DUP2 MSTORE PUSH1 0x20 ADD PUSH1 0x0 DUP2 MSTORE PUSH1 0x20 ADD PUSH2 0x3223 PUSH3 0xF4240 PUSH8 0xDE0B6B3A7640000 PUSH2 0x4C36 JUMP JUMPDEST DUP2 MSTORE PUSH1 0x20 ADD PUSH1 0x0 DUP2 MSTORE PUSH1 0x20 ADD PUSH1 0x0 DUP2 MSTORE PUSH1 0x20 ADD PUSH2 0x324B PUSH3 0xF4240 PUSH8 0xDE0B6B3A7640000 PUSH2 0x4C36 JUMP JUMPDEST DUP2 MSTORE PUSH1 0x20 ADD PUSH1 0x0 DUP2 MSTORE PUSH1 0x20 ADD PUSH1 0x0 DUP2 MSTORE PUSH1 0x20 ADD PUSH2 0x3273 PUSH3 0xF4240 PUSH8 0xDE0B6B3A7640000 PUSH2 0x4C36 JUMP JUMPDEST DUP2 MSTORE PUSH1 0x20 ADD PUSH1 0x0 DUP2 MSTORE PUSH1 0x20 ADD PUSH1 0x0 DUP2 MSTORE PUSH1 0x20 ADD PUSH2 0x329B PUSH3 0x51615 PUSH8 0xDE0B6B3A7640000 PUSH2 0x4C36 JUMP JUMPDEST DUP2 MSTORE PUSH1 0x20 ADD PUSH2 0x32B5 PUSH3 0x51615 PUSH8 0xDE0B6B3A7640000 PUSH2 0x4C36 JUMP JUMPDEST DUP2 MSTORE PUSH1 0x20 ADD PUSH2 0x32CF PUSH3 0x51615 PUSH8 0xDE0B6B3A7640000 PUSH2 0x4C36 JUMP JUMPDEST DUP2 MSTORE PUSH1 0x20 ADD PUSH2 0x32E9 PUSH3 0x51615 PUSH8 0xDE0B6B3A7640000 PUSH2 0x4C36 JUMP JUMPDEST DUP2 MSTORE PUSH1 0x20 ADD PUSH2 0x3303 PUSH3 0x51615 PUSH8 0xDE0B6B3A7640000 PUSH2 0x4C36 JUMP JUMPDEST DUP2 MSTORE PUSH1 0x20 ADD PUSH2 0x331D PUSH3 0x51615 PUSH8 0xDE0B6B3A7640000 PUSH2 0x4C36 JUMP JUMPDEST DUP2 MSTORE PUSH1 0x20 ADD PUSH2 0x3337 PUSH3 0x51615 PUSH8 0xDE0B6B3A7640000 PUSH2 0x4C36 JUMP JUMPDEST DUP2 MSTORE PUSH1 0x20 ADD PUSH2 0x3351 PUSH3 0x51615 PUSH8 0xDE0B6B3A7640000 PUSH2 0x4C36 JUMP JUMPDEST DUP2 MSTORE PUSH1 0x20 ADD PUSH2 0x336B PUSH3 0x51615 PUSH8 0xDE0B6B3A7640000 PUSH2 0x4C36 JUMP JUMPDEST DUP2 MSTORE PUSH1 0x20 ADD PUSH2 0x3385 PUSH3 0x51615 PUSH8 0xDE0B6B3A7640000 PUSH2 0x4C36 JUMP JUMPDEST DUP2 MSTORE PUSH1 0x20 ADD PUSH2 0x339F PUSH3 0x51615 PUSH8 0xDE0B6B3A7640000 PUSH2 0x4C36 JUMP JUMPDEST DUP2 MSTORE PUSH1 0x20 ADD PUSH2 0x33B9 PUSH3 0x51615 PUSH8 0xDE0B6B3A7640000 PUSH2 0x4C36 JUMP JUMPDEST DUP2 MSTORE PUSH1 0x20 ADD PUSH2 0x33D3 PUSH3 0x51615 PUSH8 0xDE0B6B3A7640000 PUSH2 0x4C36 JUMP JUMPDEST DUP2 MSTORE PUSH1 0x20 ADD PUSH2 0x33ED PUSH3 0x51615 PUSH8 0xDE0B6B3A7640000 PUSH2 0x4C36 JUMP JUMPDEST DUP2 MSTORE PUSH1 0x20 ADD PUSH2 0x3407 PUSH3 0x51615 PUSH8 0xDE0B6B3A7640000 PUSH2 0x4C36 JUMP JUMPDEST DUP2 MSTORE PUSH1 0x20 ADD PUSH2 0x3421 PUSH3 0x51615 PUSH8 0xDE0B6B3A7640000 PUSH2 0x4C36 JUMP JUMPDEST DUP2 MSTORE PUSH1 0x20 ADD PUSH2 0x343B PUSH3 0x51615 PUSH8 0xDE0B6B3A7640000 PUSH2 0x4C36 JUMP JUMPDEST DUP2 MSTORE PUSH1 0x20 ADD PUSH2 0x3455 PUSH3 0x51615 PUSH8 0xDE0B6B3A7640000 PUSH2 0x4C36 JUMP JUMPDEST DUP2 MSTORE PUSH1 0x20 ADD PUSH2 0x3176 PUSH3 0x51615 PUSH8 0xDE0B6B3A7640000 PUSH2 0x4C36 JUMP JUMPDEST PUSH1 0x0 DUP4 GT PUSH2 0x34BF JUMPI PUSH1 0x40 MLOAD PUSH3 0x461BCD PUSH1 0xE5 SHL DUP2 MSTORE PUSH1 0x20 PUSH1 0x4 DUP3 ADD MSTORE PUSH1 0x1E PUSH1 0x24 DUP3 ADD MSTORE PUSH32 0x5374616B61626C653A2043616E6E6F74207374616B65206E6F7468696E670000 PUSH1 0x44 DUP3 ADD MSTORE PUSH1 0x64 ADD PUSH2 0xDAC JUMP JUMPDEST CALLER PUSH1 0x0 SWAP1 DUP2 MSTORE PUSH1 0xA PUSH1 0x20 MSTORE PUSH1 0x40 SWAP1 KECCAK256 SLOAD TIMESTAMP DUP2 PUSH2 0x34E1 JUMPI PUSH2 0x34DE CALLER PUSH2 0x4C42 JUMP JUMPDEST SWAP2 POP JUMPDEST PUSH1 0x9 DUP3 DUP2 SLOAD DUP2 LT PUSH2 0x34F4 JUMPI PUSH2 0x34F4 PUSH2 0x5324 JUMP JUMPDEST SWAP1 PUSH1 0x0 MSTORE PUSH1 0x20 PUSH1 0x0 KECCAK256 SWAP1 PUSH1 0x2 MUL ADD PUSH1 0x1 ADD PUSH1 0x40 MLOAD DUP1 PUSH1 0xC0 ADD PUSH1 0x40 MSTORE DUP1 CALLER PUSH1 0x1 PUSH1 0x1 PUSH1 0xA0 SHL SUB AND DUP2 MSTORE PUSH1 0x20 ADD DUP8 DUP2 MSTORE PUSH1 0x20 ADD DUP4 DUP2 MSTORE PUSH1 0x20 ADD PUSH1 0x0 DUP2 MSTORE PUSH1 0x20 ADD DUP6 DUP2 MSTORE PUSH1 0x20 ADD DUP4 DUP8 PUSH2 0x3544 SWAP2 SWAP1 PUSH2 0x5217 JUMP JUMPDEST SWAP1 MSTORE DUP2 SLOAD PUSH1 0x1 DUP1 DUP3 ADD DUP5 SSTORE PUSH1 0x0 SWAP4 DUP5 MSTORE PUSH1 0x20 SWAP4 DUP5 SWAP1 KECCAK256 DUP4 MLOAD PUSH1 0x6 SWAP1 SWAP4 MUL ADD DUP1 SLOAD PUSH1 0x1 PUSH1 0x1 PUSH1 0xA0 SHL SUB NOT AND PUSH1 0x1 PUSH1 0x1 PUSH1 0xA0 SHL SUB SWAP1 SWAP4 AND SWAP3 SWAP1 SWAP3 OR DUP3 SSTORE SWAP3 DUP3 ADD MLOAD SWAP3 DUP2 ADD SWAP3 SWAP1 SWAP3 SSTORE PUSH1 0x40 DUP2 ADD MLOAD PUSH1 0x2 DUP4 ADD SSTORE PUSH1 0x60 DUP2 ADD MLOAD PUSH1 0x3 DUP4 ADD SSTORE PUSH1 0x80 DUP2 ADD MLOAD PUSH1 0x4 DUP4 ADD SSTORE PUSH1 0xA0 ADD MLOAD PUSH1 0x5 SWAP1 SWAP2 ADD SSTORE CALLER PUSH32 0x9CFD25589D1EB8AD71E342A86A8524E83522E3936C0803048C08F6D9AD974F40 DUP7 DUP5 DUP5 PUSH2 0x35E1 DUP2 DUP11 PUSH2 0x5217 JUMP JUMPDEST PUSH1 0x40 DUP1 MLOAD SWAP5 DUP6 MSTORE PUSH1 0x20 DUP6 ADD SWAP4 SWAP1 SWAP4 MSTORE SWAP2 DUP4 ADD MSTORE PUSH1 0x60 DUP3 ADD MSTORE PUSH1 0x80 ADD PUSH1 0x40 MLOAD DUP1 SWAP2 SUB SWAP1 LOG2 POP POP POP POP POP JUMP JUMPDEST PUSH1 0x1 PUSH1 0x1 PUSH1 0xA0 SHL SUB DUP3 AND PUSH2 0x3670 JUMPI PUSH1 0x40 MLOAD PUSH3 0x461BCD PUSH1 0xE5 SHL DUP2 MSTORE PUSH1 0x20 PUSH1 0x4 DUP3 ADD MSTORE PUSH1 0x26 PUSH1 0x24 DUP3 ADD MSTORE PUSH32 0x54616C6178546F6B656E3A206275726E2066726F6D20746865207A65726F2061 PUSH1 0x44 DUP3 ADD MSTORE PUSH6 0x646472657373 PUSH1 0xD0 SHL PUSH1 0x64 DUP3 ADD MSTORE PUSH1 0x84 ADD PUSH2 0xDAC JUMP JUMPDEST PUSH2 0x36AD DUP2 PUSH1 0x40 MLOAD DUP1 PUSH1 0x60 ADD PUSH1 0x40 MSTORE DUP1 PUSH1 0x27 DUP2 MSTORE PUSH1 0x20 ADD PUSH2 0x556E PUSH1 0x27 SWAP2 CODECOPY PUSH1 0x1 PUSH1 0x1 PUSH1 0xA0 SHL SUB DUP6 AND PUSH1 0x0 SWAP1 DUP2 MSTORE PUSH1 0xB PUSH1 0x20 MSTORE PUSH1 0x40 SWAP1 KECCAK256 SLOAD SWAP2 SWAP1 PUSH2 0x2309 JUMP JUMPDEST PUSH1 0x1 PUSH1 0x1 PUSH1 0xA0 SHL SUB DUP4 AND PUSH1 0x0 SWAP1 DUP2 MSTORE PUSH1 0xB PUSH1 0x20 MSTORE PUSH1 0x40 SWAP1 KECCAK256 SSTORE PUSH1 0xF SLOAD PUSH2 0x36D3 SWAP1 DUP3 PUSH2 0x280E JUMP JUMPDEST PUSH1 0xF SSTORE PUSH1 0x40 MLOAD DUP2 DUP2 MSTORE PUSH1 0x0 SWAP1 PUSH1 0x1 PUSH1 0x1 PUSH1 0xA0 SHL SUB DUP5 AND SWAP1 PUSH32 0xDDF252AD1BE2C89B69C2B068FC378DAA952BA7F163C4A11628F55A4DF523B3EF SWAP1 PUSH1 0x20 ADD JUMPDEST PUSH1 0x40 MLOAD DUP1 SWAP2 SUB SWAP1 LOG3 POP POP JUMP JUMPDEST PUSH2 0x3724 PUSH2 0x4E05 JUMP JUMPDEST PUSH1 0x40 MLOAD DUP1 PUSH2 0x560 ADD PUSH1 0x40 MSTORE DUP1 PUSH2 0x3745 PUSH3 0xF4240 PUSH8 0xDE0B6B3A7640000 PUSH2 0x4C36 JUMP JUMPDEST DUP2 MSTORE PUSH1 0x20 ADD PUSH1 0x0 DUP2 MSTORE PUSH1 0x20 ADD PUSH1 0x0 DUP2 MSTORE PUSH1 0x20 ADD PUSH1 0x0 DUP2 MSTORE PUSH1 0x20 ADD PUSH2 0x3774 PUSH3 0xF4240 PUSH8 0xDE0B6B3A7640000 PUSH2 0x4C36 JUMP JUMPDEST DUP2 MSTORE PUSH1 0x20 ADD PUSH1 0x0 DUP2 MSTORE PUSH1 0x20 ADD PUSH1 0x0 DUP2 MSTORE PUSH1 0x20 ADD PUSH2 0x379C PUSH3 0xF4240 PUSH8 0xDE0B6B3A7640000 PUSH2 0x4C36 JUMP JUMPDEST DUP2 MSTORE PUSH1 0x20 ADD PUSH1 0x0 DUP2 MSTORE PUSH1 0x20 ADD PUSH1 0x0 DUP2 MSTORE PUSH1 0x20 ADD PUSH2 0x37C4 PUSH3 0xF4240 PUSH8 0xDE0B6B3A7640000 PUSH2 0x4C36 JUMP JUMPDEST DUP2 MSTORE PUSH1 0x20 ADD PUSH1 0x0 DUP2 MSTORE PUSH1 0x20 ADD PUSH1 0x0 DUP2 MSTORE PUSH1 0x20 ADD PUSH2 0x37EC PUSH3 0x51616 PUSH8 0xDE0B6B3A7640000 PUSH2 0x4C36 JUMP JUMPDEST DUP2 MSTORE PUSH1 0x20 ADD PUSH2 0x3806 PUSH3 0x51616 PUSH8 0xDE0B6B3A7640000 PUSH2 0x4C36 JUMP JUMPDEST DUP2 MSTORE PUSH1 0x20 ADD PUSH2 0x3820 PUSH3 0x51616 PUSH8 0xDE0B6B3A7640000 PUSH2 0x4C36 JUMP JUMPDEST DUP2 MSTORE PUSH1 0x20 ADD PUSH2 0x383A PUSH3 0x51616 PUSH8 0xDE0B6B3A7640000 PUSH2 0x4C36 JUMP JUMPDEST DUP2 MSTORE PUSH1 0x20 ADD PUSH2 0x3854 PUSH3 0x51616 PUSH8 0xDE0B6B3A7640000 PUSH2 0x4C36 JUMP JUMPDEST DUP2 MSTORE PUSH1 0x20 ADD PUSH2 0x386E PUSH3 0x51616 PUSH8 0xDE0B6B3A7640000 PUSH2 0x4C36 JUMP JUMPDEST DUP2 MSTORE PUSH1 0x20 ADD PUSH2 0x3888 PUSH3 0x51616 PUSH8 0xDE0B6B3A7640000 PUSH2 0x4C36 JUMP JUMPDEST DUP2 MSTORE PUSH1 0x20 ADD PUSH2 0x38A2 PUSH3 0x51616 PUSH8 0xDE0B6B3A7640000 PUSH2 0x4C36 JUMP JUMPDEST DUP2 MSTORE PUSH1 0x20 ADD PUSH2 0x38BC PUSH3 0x51616 PUSH8 0xDE0B6B3A7640000 PUSH2 0x4C36 JUMP JUMPDEST DUP2 MSTORE PUSH1 0x20 ADD PUSH2 0x38D6 PUSH3 0x51616 PUSH8 0xDE0B6B3A7640000 PUSH2 0x4C36 JUMP JUMPDEST DUP2 MSTORE PUSH1 0x20 ADD PUSH2 0x38F0 PUSH3 0x51616 PUSH8 0xDE0B6B3A7640000 PUSH2 0x4C36 JUMP JUMPDEST DUP2 MSTORE PUSH1 0x20 ADD PUSH2 0x390A PUSH3 0x51616 PUSH8 0xDE0B6B3A7640000 PUSH2 0x4C36 JUMP JUMPDEST DUP2 MSTORE PUSH1 0x20 ADD PUSH2 0x3924 PUSH3 0x51616 PUSH8 0xDE0B6B3A7640000 PUSH2 0x4C36 JUMP JUMPDEST DUP2 MSTORE PUSH1 0x20 ADD PUSH2 0x393E PUSH3 0x51616 PUSH8 0xDE0B6B3A7640000 PUSH2 0x4C36 JUMP JUMPDEST DUP2 MSTORE PUSH1 0x20 ADD PUSH2 0x3958 PUSH3 0x51616 PUSH8 0xDE0B6B3A7640000 PUSH2 0x4C36 JUMP JUMPDEST DUP2 MSTORE PUSH1 0x20 ADD PUSH2 0x3972 PUSH3 0x51616 PUSH8 0xDE0B6B3A7640000 PUSH2 0x4C36 JUMP JUMPDEST DUP2 MSTORE PUSH1 0x20 ADD PUSH2 0x398C PUSH3 0x51616 PUSH8 0xDE0B6B3A7640000 PUSH2 0x4C36 JUMP JUMPDEST DUP2 MSTORE PUSH1 0x20 ADD PUSH2 0x39A6 PUSH3 0x51616 PUSH8 0xDE0B6B3A7640000 PUSH2 0x4C36 JUMP JUMPDEST DUP2 MSTORE PUSH1 0x20 ADD PUSH2 0x39C0 PUSH3 0x51616 PUSH8 0xDE0B6B3A7640000 PUSH2 0x4C36 JUMP JUMPDEST DUP2 MSTORE PUSH1 0x20 ADD PUSH2 0x39DA PUSH3 0x51616 PUSH8 0xDE0B6B3A7640000 PUSH2 0x4C36 JUMP JUMPDEST DUP2 MSTORE PUSH1 0x20 ADD PUSH2 0x39F4 PUSH3 0x51616 PUSH8 0xDE0B6B3A7640000 PUSH2 0x4C36 JUMP JUMPDEST DUP2 MSTORE PUSH1 0x20 ADD PUSH2 0x3A0E PUSH3 0x51616 PUSH8 0xDE0B6B3A7640000 PUSH2 0x4C36 JUMP JUMPDEST DUP2 MSTORE PUSH1 0x20 ADD PUSH2 0x3A28 PUSH3 0x51616 PUSH8 0xDE0B6B3A7640000 PUSH2 0x4C36 JUMP JUMPDEST DUP2 MSTORE PUSH1 0x20 ADD PUSH2 0x3A42 PUSH3 0x51616 PUSH8 0xDE0B6B3A7640000 PUSH2 0x4C36 JUMP JUMPDEST DUP2 MSTORE PUSH1 0x20 ADD PUSH2 0x3A5C PUSH3 0x51616 PUSH8 0xDE0B6B3A7640000 PUSH2 0x4C36 JUMP JUMPDEST DUP2 MSTORE PUSH1 0x20 ADD PUSH2 0x3A76 PUSH3 0x51616 PUSH8 0xDE0B6B3A7640000 PUSH2 0x4C36 JUMP JUMPDEST DUP2 MSTORE PUSH1 0x20 ADD PUSH2 0x3A90 PUSH3 0x51616 PUSH8 0xDE0B6B3A7640000 PUSH2 0x4C36 JUMP JUMPDEST DUP2 MSTORE PUSH1 0x20 ADD PUSH2 0x3AAA PUSH3 0x51616 PUSH8 0xDE0B6B3A7640000 PUSH2 0x4C36 JUMP JUMPDEST DUP2 MSTORE PUSH1 0x20 ADD PUSH2 0x3AC4 PUSH3 0x51616 PUSH8 0xDE0B6B3A7640000 PUSH2 0x4C36 JUMP JUMPDEST DUP2 MSTORE PUSH1 0x20 ADD PUSH2 0x2BDC PUSH3 0x51616 PUSH8 0xDE0B6B3A7640000 PUSH2 0x4C36 JUMP JUMPDEST PUSH2 0x3AE6 PUSH2 0x4E05 JUMP JUMPDEST PUSH1 0x40 MLOAD DUP1 PUSH2 0x560 ADD PUSH1 0x40 MSTORE DUP1 PUSH2 0x3B07 PUSH3 0x51616 PUSH8 0xDE0B6B3A7640000 PUSH2 0x4C36 JUMP JUMPDEST DUP2 MSTORE PUSH1 0x20 ADD PUSH1 0x0 DUP2 MSTORE PUSH1 0x20 ADD PUSH1 0x0 DUP2 MSTORE PUSH1 0x20 ADD PUSH1 0x0 DUP2 MSTORE PUSH1 0x20 ADD PUSH2 0x3B36 PUSH3 0x51616 PUSH8 0xDE0B6B3A7640000 PUSH2 0x4C36 JUMP JUMPDEST DUP2 MSTORE PUSH1 0x20 ADD PUSH1 0x0 DUP2 MSTORE PUSH1 0x20 ADD PUSH1 0x0 DUP2 MSTORE PUSH1 0x20 ADD PUSH2 0x3B5E PUSH3 0x51616 PUSH8 0xDE0B6B3A7640000 PUSH2 0x4C36 JUMP JUMPDEST DUP2 MSTORE PUSH1 0x20 ADD PUSH1 0x0 DUP2 MSTORE PUSH1 0x20 ADD PUSH1 0x0 DUP2 MSTORE PUSH1 0x20 ADD PUSH2 0x3B86 PUSH3 0x51616 PUSH8 0xDE0B6B3A7640000 PUSH2 0x4C36 JUMP JUMPDEST DUP2 MSTORE PUSH1 0x20 ADD PUSH1 0x0 DUP2 MSTORE PUSH1 0x20 ADD PUSH1 0x0 DUP2 MSTORE PUSH1 0x20 ADD PUSH2 0x3BAE PUSH3 0x11A1F PUSH8 0xDE0B6B3A7640000 PUSH2 0x4C36 JUMP JUMPDEST DUP2 MSTORE PUSH1 0x20 ADD PUSH2 0x3BC8 PUSH3 0x11A1F PUSH8 0xDE0B6B3A7640000 PUSH2 0x4C36 JUMP JUMPDEST DUP2 MSTORE PUSH1 0x20 ADD PUSH2 0x3BE2 PUSH3 0x11A1F PUSH8 0xDE0B6B3A7640000 PUSH2 0x4C36 JUMP JUMPDEST DUP2 MSTORE PUSH1 0x20 ADD PUSH2 0x3BFC PUSH3 0x11A1F PUSH8 0xDE0B6B3A7640000 PUSH2 0x4C36 JUMP JUMPDEST DUP2 MSTORE PUSH1 0x20 ADD PUSH2 0x3C16 PUSH3 0x11A1F PUSH8 0xDE0B6B3A7640000 PUSH2 0x4C36 JUMP JUMPDEST DUP2 MSTORE PUSH1 0x20 ADD PUSH2 0x3C30 PUSH3 0x11A1F PUSH8 0xDE0B6B3A7640000 PUSH2 0x4C36 JUMP JUMPDEST DUP2 MSTORE PUSH1 0x20 ADD PUSH2 0x3C4A PUSH3 0x11A1F PUSH8 0xDE0B6B3A7640000 PUSH2 0x4C36 JUMP JUMPDEST DUP2 MSTORE PUSH1 0x20 ADD PUSH2 0x3C64 PUSH3 0x11A1F PUSH8 0xDE0B6B3A7640000 PUSH2 0x4C36 JUMP JUMPDEST DUP2 MSTORE PUSH1 0x20 ADD PUSH2 0x3C7E PUSH3 0x11A1F PUSH8 0xDE0B6B3A7640000 PUSH2 0x4C36 JUMP JUMPDEST DUP2 MSTORE PUSH1 0x20 ADD PUSH2 0x3C98 PUSH3 0x11A1F PUSH8 0xDE0B6B3A7640000 PUSH2 0x4C36 JUMP JUMPDEST DUP2 MSTORE PUSH1 0x20 ADD PUSH2 0x3CB2 PUSH3 0x11A1F PUSH8 0xDE0B6B3A7640000 PUSH2 0x4C36 JUMP JUMPDEST DUP2 MSTORE PUSH1 0x20 ADD PUSH2 0x3CCC PUSH3 0x11A1F PUSH8 0xDE0B6B3A7640000 PUSH2 0x4C36 JUMP JUMPDEST DUP2 MSTORE PUSH1 0x20 ADD PUSH2 0x3CE6 PUSH3 0x11A1F PUSH8 0xDE0B6B3A7640000 PUSH2 0x4C36 JUMP JUMPDEST DUP2 MSTORE PUSH1 0x20 ADD PUSH2 0x3D00 PUSH3 0x11A1F PUSH8 0xDE0B6B3A7640000 PUSH2 0x4C36 JUMP JUMPDEST DUP2 MSTORE PUSH1 0x20 ADD PUSH2 0x3D1A PUSH3 0x11A1F PUSH8 0xDE0B6B3A7640000 PUSH2 0x4C36 JUMP JUMPDEST DUP2 MSTORE PUSH1 0x20 ADD PUSH2 0x3D34 PUSH3 0x11A1F PUSH8 0xDE0B6B3A7640000 PUSH2 0x4C36 JUMP JUMPDEST DUP2 MSTORE PUSH1 0x20 ADD PUSH2 0x3D4E PUSH3 0x11A1F PUSH8 0xDE0B6B3A7640000 PUSH2 0x4C36 JUMP JUMPDEST DUP2 MSTORE PUSH1 0x20 ADD PUSH2 0x3D68 PUSH3 0x11A1F PUSH8 0xDE0B6B3A7640000 PUSH2 0x4C36 JUMP JUMPDEST DUP2 MSTORE PUSH1 0x20 ADD PUSH2 0x3D82 PUSH3 0x11A1F PUSH8 0xDE0B6B3A7640000 PUSH2 0x4C36 JUMP JUMPDEST DUP2 MSTORE PUSH1 0x20 ADD PUSH2 0x3D9C PUSH3 0x11A1F PUSH8 0xDE0B6B3A7640000 PUSH2 0x4C36 JUMP JUMPDEST DUP2 MSTORE PUSH1 0x20 ADD PUSH2 0x3DB6 PUSH3 0x11A1F PUSH8 0xDE0B6B3A7640000 PUSH2 0x4C36 JUMP JUMPDEST DUP2 MSTORE PUSH1 0x20 ADD PUSH2 0x3DD0 PUSH3 0x11A1F PUSH8 0xDE0B6B3A7640000 PUSH2 0x4C36 JUMP JUMPDEST DUP2 MSTORE PUSH1 0x20 ADD PUSH2 0x3DEA PUSH3 0x11A1F PUSH8 0xDE0B6B3A7640000 PUSH2 0x4C36 JUMP JUMPDEST DUP2 MSTORE PUSH1 0x20 ADD PUSH2 0x3E04 PUSH3 0x11A1F PUSH8 0xDE0B6B3A7640000 PUSH2 0x4C36 JUMP JUMPDEST DUP2 MSTORE PUSH1 0x20 ADD PUSH2 0x3E1E PUSH3 0x11A1F PUSH8 0xDE0B6B3A7640000 PUSH2 0x4C36 JUMP JUMPDEST DUP2 MSTORE PUSH1 0x20 ADD PUSH2 0x3E38 PUSH3 0x11A1F PUSH8 0xDE0B6B3A7640000 PUSH2 0x4C36 JUMP JUMPDEST DUP2 MSTORE PUSH1 0x20 ADD PUSH2 0x3E52 PUSH3 0x11A1F PUSH8 0xDE0B6B3A7640000 PUSH2 0x4C36 JUMP JUMPDEST DUP2 MSTORE PUSH1 0x20 ADD PUSH2 0x3E6C PUSH3 0x11A1F PUSH8 0xDE0B6B3A7640000 PUSH2 0x4C36 JUMP JUMPDEST DUP2 MSTORE PUSH1 0x20 ADD PUSH2 0x3E86 PUSH3 0x11A1F PUSH8 0xDE0B6B3A7640000 PUSH2 0x4C36 JUMP JUMPDEST DUP2 MSTORE PUSH1 0x20 ADD PUSH2 0x2BDC PUSH3 0x11A1F PUSH8 0xDE0B6B3A7640000 PUSH2 0x4C36 JUMP JUMPDEST PUSH2 0x3EA8 PUSH2 0x4E05 JUMP JUMPDEST PUSH1 0x40 MLOAD DUP1 PUSH2 0x560 ADD PUSH1 0x40 MSTORE DUP1 PUSH1 0x0 DUP2 MSTORE PUSH1 0x20 ADD PUSH1 0x0 DUP2 MSTORE PUSH1 0x20 ADD PUSH1 0x0 DUP2 MSTORE PUSH1 0x20 ADD PUSH1 0x0 DUP2 MSTORE PUSH1 0x20 ADD PUSH1 0x0 DUP2 MSTORE PUSH1 0x20 ADD PUSH1 0x0 DUP2 MSTORE PUSH1 0x20 ADD PUSH1 0x0 DUP2 MSTORE PUSH1 0x20 ADD PUSH2 0x3EF9 PUSH8 0x4563918244F40000 PUSH2 0x1B51 PUSH2 0xC09 JUMP JUMPDEST DUP2 MSTORE PUSH1 0x20 ADD PUSH2 0x3F12 PUSH8 0x4563918244F40000 PUSH2 0x1B51 PUSH2 0xC09 JUMP JUMPDEST DUP2 MSTORE PUSH1 0x20 ADD PUSH2 0x3F2B PUSH8 0x4563918244F40000 PUSH2 0x1B51 PUSH2 0xC09 JUMP JUMPDEST DUP2 MSTORE PUSH1 0x20 ADD PUSH2 0x3F44 PUSH8 0x4563918244F40000 PUSH2 0x1B51 PUSH2 0xC09 JUMP JUMPDEST DUP2 MSTORE PUSH1 0x20 ADD PUSH2 0x3F5D PUSH8 0x4563918244F40000 PUSH2 0x1B51 PUSH2 0xC09 JUMP JUMPDEST DUP2 MSTORE PUSH1 0x20 ADD PUSH2 0x3F76 PUSH8 0x4563918244F40000 PUSH2 0x1B51 PUSH2 0xC09 JUMP JUMPDEST DUP2 MSTORE PUSH1 0x20 ADD PUSH2 0x3F8F PUSH8 0x4563918244F40000 PUSH2 0x1B51 PUSH2 0xC09 JUMP JUMPDEST DUP2 MSTORE PUSH1 0x20 ADD PUSH2 0x3FA8 PUSH8 0x4563918244F40000 PUSH2 0x1B51 PUSH2 0xC09 JUMP JUMPDEST DUP2 MSTORE PUSH1 0x20 ADD PUSH2 0x3FC1 PUSH8 0x4563918244F40000 PUSH2 0x1B51 PUSH2 0xC09 JUMP JUMPDEST DUP2 MSTORE PUSH1 0x20 ADD PUSH2 0x3FDA PUSH8 0x4563918244F40000 PUSH2 0x1B51 PUSH2 0xC09 JUMP JUMPDEST DUP2 MSTORE PUSH1 0x20 ADD PUSH2 0x3FF3 PUSH8 0x4563918244F40000 PUSH2 0x1B51 PUSH2 0xC09 JUMP JUMPDEST DUP2 MSTORE PUSH1 0x20 ADD PUSH2 0x400C PUSH8 0x4563918244F40000 PUSH2 0x1B51 PUSH2 0xC09 JUMP JUMPDEST DUP2 MSTORE PUSH1 0x20 ADD PUSH2 0x4025 PUSH8 0x4563918244F40000 PUSH2 0x1B51 PUSH2 0xC09 JUMP JUMPDEST DUP2 MSTORE PUSH1 0x20 ADD PUSH2 0x403E PUSH8 0x446AE0E136AD0000 PUSH2 0x1B51 PUSH2 0xC09 JUMP JUMPDEST DUP2 MSTORE PUSH1 0x20 ADD PUSH1 0x0 DUP2 MSTORE PUSH1 0x20 ADD PUSH1 0x0 DUP2 MSTORE PUSH1 0x20 ADD PUSH1 0x0 DUP2 MSTORE PUSH1 0x20 ADD PUSH1 0x0 DUP2 MSTORE PUSH1 0x20 ADD PUSH1 0x0 DUP2 MSTORE PUSH1 0x20 ADD PUSH1 0x0 DUP2 MSTORE PUSH1 0x20 ADD PUSH1 0x0 DUP2 MSTORE PUSH1 0x20 ADD PUSH1 0x0 DUP2 MSTORE PUSH1 0x20 ADD PUSH1 0x0 DUP2 MSTORE PUSH1 0x20 ADD PUSH1 0x0 DUP2 MSTORE PUSH1 0x20 ADD PUSH1 0x0 DUP2 MSTORE PUSH1 0x20 ADD PUSH1 0x0 DUP2 MSTORE PUSH1 0x20 ADD PUSH1 0x0 DUP2 MSTORE PUSH1 0x20 ADD PUSH1 0x0 DUP2 MSTORE PUSH1 0x20 ADD PUSH1 0x0 DUP2 MSTORE PUSH1 0x20 ADD PUSH1 0x0 DUP2 MSTORE PUSH1 0x20 ADD PUSH1 0x0 DUP2 MSTORE PUSH1 0x20 ADD PUSH1 0x0 DUP2 MSTORE PUSH1 0x20 ADD PUSH1 0x0 DUP2 MSTORE PUSH1 0x20 ADD PUSH1 0x0 DUP2 MSTORE PUSH1 0x20 ADD PUSH1 0x0 DUP2 MSTORE PUSH1 0x20 ADD PUSH1 0x0 DUP2 MSTORE POP SWAP1 POP SWAP1 JUMP JUMPDEST PUSH2 0x40E8 PUSH2 0x4E05 JUMP JUMPDEST PUSH1 0x40 MLOAD DUP1 PUSH2 0x560 ADD PUSH1 0x40 MSTORE DUP1 PUSH2 0x4109 PUSH3 0xF4240 PUSH8 0xDE0B6B3A7640000 PUSH2 0x4C36 JUMP JUMPDEST DUP2 MSTORE PUSH1 0x20 ADD PUSH1 0x0 DUP2 MSTORE PUSH1 0x20 ADD PUSH1 0x0 DUP2 MSTORE PUSH1 0x20 ADD PUSH1 0x0 DUP2 MSTORE PUSH1 0x20 ADD PUSH2 0x4138 PUSH3 0xF4240 PUSH8 0xDE0B6B3A7640000 PUSH2 0x4C36 JUMP JUMPDEST DUP2 MSTORE PUSH1 0x20 ADD PUSH1 0x0 DUP2 MSTORE PUSH1 0x20 ADD PUSH1 0x0 DUP2 MSTORE PUSH1 0x20 ADD PUSH2 0x4160 PUSH3 0xF4240 PUSH8 0xDE0B6B3A7640000 PUSH2 0x4C36 JUMP JUMPDEST DUP2 MSTORE PUSH1 0x20 ADD PUSH1 0x0 DUP2 MSTORE PUSH1 0x20 ADD PUSH1 0x0 DUP2 MSTORE PUSH1 0x20 ADD PUSH2 0x4188 PUSH3 0xF4240 PUSH8 0xDE0B6B3A7640000 PUSH2 0x4C36 JUMP JUMPDEST DUP2 MSTORE PUSH1 0x20 ADD PUSH1 0x0 DUP2 MSTORE PUSH1 0x20 ADD PUSH1 0x0 DUP2 MSTORE PUSH1 0x20 ADD PUSH2 0x41B0 PUSH3 0x51615 PUSH8 0xDE0B6B3A7640000 PUSH2 0x4C36 JUMP JUMPDEST DUP2 MSTORE PUSH1 0x20 ADD PUSH2 0x41CA PUSH3 0x51615 PUSH8 0xDE0B6B3A7640000 PUSH2 0x4C36 JUMP JUMPDEST DUP2 MSTORE PUSH1 0x20 ADD PUSH2 0x41E4 PUSH3 0x51615 PUSH8 0xDE0B6B3A7640000 PUSH2 0x4C36 JUMP JUMPDEST DUP2 MSTORE PUSH1 0x20 ADD PUSH2 0x41FE PUSH3 0x51615 PUSH8 0xDE0B6B3A7640000 PUSH2 0x4C36 JUMP JUMPDEST DUP2 MSTORE PUSH1 0x20 ADD PUSH2 0x4218 PUSH3 0x51615 PUSH8 0xDE0B6B3A7640000 PUSH2 0x4C36 JUMP JUMPDEST DUP2 MSTORE PUSH1 0x20 ADD PUSH2 0x4232 PUSH3 0x51615 PUSH8 0xDE0B6B3A7640000 PUSH2 0x4C36 JUMP JUMPDEST DUP2 MSTORE PUSH1 0x20 ADD PUSH2 0x424C PUSH3 0x51615 PUSH8 0xDE0B6B3A7640000 PUSH2 0x4C36 JUMP JUMPDEST DUP2 MSTORE PUSH1 0x20 ADD PUSH2 0x4266 PUSH3 0x51615 PUSH8 0xDE0B6B3A7640000 PUSH2 0x4C36 JUMP JUMPDEST DUP2 MSTORE PUSH1 0x20 ADD PUSH2 0x4280 PUSH3 0x51615 PUSH8 0xDE0B6B3A7640000 PUSH2 0x4C36 JUMP JUMPDEST DUP2 MSTORE PUSH1 0x20 ADD PUSH2 0x429A PUSH3 0x51615 PUSH8 0xDE0B6B3A7640000 PUSH2 0x4C36 JUMP JUMPDEST DUP2 MSTORE PUSH1 0x20 ADD PUSH2 0x42B4 PUSH3 0x51615 PUSH8 0xDE0B6B3A7640000 PUSH2 0x4C36 JUMP JUMPDEST DUP2 MSTORE PUSH1 0x20 ADD PUSH2 0x42CE PUSH3 0x51615 PUSH8 0xDE0B6B3A7640000 PUSH2 0x4C36 JUMP JUMPDEST DUP2 MSTORE PUSH1 0x20 ADD PUSH2 0x42E8 PUSH3 0x51615 PUSH8 0xDE0B6B3A7640000 PUSH2 0x4C36 JUMP JUMPDEST DUP2 MSTORE PUSH1 0x20 ADD PUSH2 0x4302 PUSH3 0x51615 PUSH8 0xDE0B6B3A7640000 PUSH2 0x4C36 JUMP JUMPDEST DUP2 MSTORE PUSH1 0x20 ADD PUSH2 0x431C PUSH3 0x51615 PUSH8 0xDE0B6B3A7640000 PUSH2 0x4C36 JUMP JUMPDEST DUP2 MSTORE PUSH1 0x20 ADD PUSH2 0x4336 PUSH3 0x51615 PUSH8 0xDE0B6B3A7640000 PUSH2 0x4C36 JUMP JUMPDEST DUP2 MSTORE PUSH1 0x20 ADD PUSH2 0x4350 PUSH3 0x51615 PUSH8 0xDE0B6B3A7640000 PUSH2 0x4C36 JUMP JUMPDEST DUP2 MSTORE PUSH1 0x20 ADD PUSH2 0x436A PUSH3 0x51615 PUSH8 0xDE0B6B3A7640000 PUSH2 0x4C36 JUMP JUMPDEST DUP2 MSTORE PUSH1 0x20 ADD PUSH2 0x4384 PUSH3 0x51615 PUSH8 0xDE0B6B3A7640000 PUSH2 0x4C36 JUMP JUMPDEST DUP2 MSTORE PUSH1 0x20 ADD PUSH2 0x439E PUSH3 0x51615 PUSH8 0xDE0B6B3A7640000 PUSH2 0x4C36 JUMP JUMPDEST DUP2 MSTORE PUSH1 0x20 ADD PUSH2 0x43B8 PUSH3 0x51615 PUSH8 0xDE0B6B3A7640000 PUSH2 0x4C36 JUMP JUMPDEST DUP2 MSTORE PUSH1 0x20 ADD PUSH2 0x43D2 PUSH3 0x51615 PUSH8 0xDE0B6B3A7640000 PUSH2 0x4C36 JUMP JUMPDEST DUP2 MSTORE PUSH1 0x20 ADD PUSH2 0x43EC PUSH3 0x51615 PUSH8 0xDE0B6B3A7640000 PUSH2 0x4C36 JUMP JUMPDEST DUP2 MSTORE PUSH1 0x20 ADD PUSH2 0x4406 PUSH3 0x51615 PUSH8 0xDE0B6B3A7640000 PUSH2 0x4C36 JUMP JUMPDEST DUP2 MSTORE PUSH1 0x20 ADD PUSH2 0x4420 PUSH3 0x51615 PUSH8 0xDE0B6B3A7640000 PUSH2 0x4C36 JUMP JUMPDEST DUP2 MSTORE PUSH1 0x20 ADD PUSH2 0x443A PUSH3 0x51615 PUSH8 0xDE0B6B3A7640000 PUSH2 0x4C36 JUMP JUMPDEST DUP2 MSTORE PUSH1 0x20 ADD PUSH2 0x4454 PUSH3 0x51615 PUSH8 0xDE0B6B3A7640000 PUSH2 0x4C36 JUMP JUMPDEST DUP2 MSTORE PUSH1 0x20 ADD PUSH2 0x446E PUSH3 0x51615 PUSH8 0xDE0B6B3A7640000 PUSH2 0x4C36 JUMP JUMPDEST DUP2 MSTORE PUSH1 0x20 ADD PUSH2 0x4488 PUSH3 0x51615 PUSH8 0xDE0B6B3A7640000 PUSH2 0x4C36 JUMP JUMPDEST DUP2 MSTORE PUSH1 0x20 ADD PUSH2 0x2BDC PUSH3 0x51615 PUSH8 0xDE0B6B3A7640000 PUSH2 0x4C36 JUMP JUMPDEST PUSH1 0x1 SLOAD PUSH2 0x44AE SWAP1 PUSH2 0x2464 JUMP JUMPDEST ISZERO PUSH2 0xDF3 JUMPI PUSH1 0x3 SLOAD PUSH1 0x1 PUSH1 0x1 PUSH1 0xA0 SHL SUB AND ISZERO DUP1 ISZERO PUSH2 0x44DF JUMPI PUSH1 0x3 DUP1 SLOAD PUSH1 0x1 PUSH1 0x1 PUSH1 0xA0 SHL SUB NOT AND CALLER OR SWAP1 SSTORE PUSH1 0x1 SLOAD PUSH1 0x4 SSTORE JUMPDEST DUP2 PUSH2 0x4526 JUMPI PUSH1 0x40 MLOAD PUSH3 0x461BCD PUSH1 0xE5 SHL DUP2 MSTORE PUSH1 0x20 PUSH1 0x4 DUP3 ADD MSTORE PUSH1 0x17 PUSH1 0x24 DUP3 ADD MSTORE PUSH23 0x416D6F756E74206D696E742063616E6E6F74206265203 PUSH1 0x4C SHL PUSH1 0x44 DUP3 ADD MSTORE PUSH1 0x64 ADD PUSH2 0xDAC JUMP JUMPDEST ADDRESS PUSH1 0x0 SWAP1 DUP2 MSTORE PUSH1 0xB PUSH1 0x20 MSTORE PUSH1 0x40 SWAP1 KECCAK256 SLOAD PUSH2 0x4540 SWAP1 DUP4 PUSH2 0xC1E JUMP JUMPDEST ADDRESS PUSH1 0x0 SWAP1 DUP2 MSTORE PUSH1 0xB PUSH1 0x20 MSTORE PUSH1 0x40 SWAP1 KECCAK256 SSTORE PUSH1 0xF SLOAD PUSH2 0xDD2 SWAP1 DUP4 PUSH2 0xC1E JUMP JUMPDEST PUSH1 0x0 DUP3 PUSH1 0x20 ADD MLOAD PUSH1 0x0 EQ ISZERO PUSH2 0x4574 JUMPI POP PUSH1 0x0 PUSH2 0xC18 JUMP JUMPDEST PUSH11 0x52B7D2DCC80CD2E4000000 PUSH2 0x458D DUP5 PUSH1 0x40 ADD MLOAD PUSH2 0x4CB8 JUMP JUMPDEST PUSH1 0x80 DUP6 ADD MLOAD PUSH2 0x459C SWAP1 DUP6 PUSH2 0x54D6 JUMP JUMPDEST PUSH2 0x45A6 SWAP2 SWAP1 PUSH2 0x54D6 JUMP JUMPDEST PUSH2 0xC15 SWAP2 SWAP1 PUSH2 0x51F5 JUMP JUMPDEST CALLER PUSH1 0x0 SWAP1 DUP2 MSTORE PUSH1 0xA PUSH1 0x20 MSTORE PUSH1 0x40 DUP2 KECCAK256 SLOAD PUSH1 0x9 DUP1 SLOAD DUP4 SWAP3 SWAP2 DUP4 SWAP2 DUP4 SWAP1 DUP2 LT PUSH2 0x45D9 JUMPI PUSH2 0x45D9 PUSH2 0x5324 JUMP JUMPDEST SWAP1 PUSH1 0x0 MSTORE PUSH1 0x20 PUSH1 0x0 KECCAK256 SWAP1 PUSH1 0x2 MUL ADD PUSH1 0x1 ADD DUP6 DUP2 SLOAD DUP2 LT PUSH2 0x45FB JUMPI PUSH2 0x45FB PUSH2 0x5324 JUMP JUMPDEST PUSH1 0x0 SWAP2 DUP3 MSTORE PUSH1 0x20 SWAP2 DUP3 SWAP1 KECCAK256 PUSH1 0x40 DUP1 MLOAD PUSH1 0xC0 DUP2 ADD DUP3 MSTORE PUSH1 0x6 SWAP1 SWAP4 MUL SWAP1 SWAP2 ADD DUP1 SLOAD PUSH1 0x1 PUSH1 0x1 PUSH1 0xA0 SHL SUB AND DUP4 MSTORE PUSH1 0x1 DUP2 ADD SLOAD SWAP4 DUP4 ADD SWAP4 SWAP1 SWAP4 MSTORE PUSH1 0x2 DUP4 ADD SLOAD SWAP1 DUP3 ADD MSTORE PUSH1 0x3 DUP3 ADD SLOAD PUSH1 0x60 DUP3 ADD MSTORE PUSH1 0x4 DUP3 ADD SLOAD PUSH1 0x80 DUP3 ADD MSTORE PUSH1 0x5 SWAP1 SWAP2 ADD SLOAD PUSH1 0xA0 DUP3 ADD DUP2 SWAP1 MSTORE SWAP1 SWAP2 POP TIMESTAMP LT ISZERO PUSH2 0x467D JUMPI PUSH1 0x40 MLOAD PUSH3 0x461BCD PUSH1 0xE5 SHL DUP2 MSTORE PUSH1 0x4 ADD PUSH2 0xDAC SWAP1 PUSH2 0x54F5 JUMP JUMPDEST DUP6 DUP2 PUSH1 0x20 ADD MLOAD LT ISZERO PUSH2 0x46ED JUMPI PUSH1 0x40 MLOAD PUSH3 0x461BCD PUSH1 0xE5 SHL DUP2 MSTORE PUSH1 0x20 PUSH1 0x4 DUP3 ADD MSTORE PUSH1 0x33 PUSH1 0x24 DUP3 ADD MSTORE PUSH32 0x5374616B61626C653A2043616E6E6F74207769746864726177206D6F72652074 PUSH1 0x44 DUP3 ADD MSTORE PUSH19 0x1A185B881E5BDD481A185D99481CDD185AD959 PUSH1 0x6A SHL PUSH1 0x64 DUP3 ADD MSTORE PUSH1 0x84 ADD PUSH2 0xDAC JUMP JUMPDEST PUSH1 0x0 PUSH2 0x46F9 DUP3 DUP9 PUSH2 0x455D JUMP JUMPDEST SWAP1 POP PUSH1 0x0 DUP3 PUSH1 0x40 ADD MLOAD DUP4 PUSH1 0xA0 ADD MLOAD PUSH2 0x4711 SWAP2 SWAP1 PUSH2 0x53BD JUMP JUMPDEST SWAP1 POP DUP8 DUP4 PUSH1 0x20 ADD MLOAD PUSH2 0x4723 SWAP2 SWAP1 PUSH2 0x53BD JUMP JUMPDEST PUSH1 0x20 DUP5 ADD DUP2 SWAP1 MSTORE PUSH2 0x47A5 JUMPI PUSH1 0x9 DUP5 DUP2 SLOAD DUP2 LT PUSH2 0x4741 JUMPI PUSH2 0x4741 PUSH2 0x5324 JUMP JUMPDEST SWAP1 PUSH1 0x0 MSTORE PUSH1 0x20 PUSH1 0x0 KECCAK256 SWAP1 PUSH1 0x2 MUL ADD PUSH1 0x1 ADD DUP8 DUP2 SLOAD DUP2 LT PUSH2 0x4763 JUMPI PUSH2 0x4763 PUSH2 0x5324 JUMP JUMPDEST PUSH1 0x0 SWAP2 DUP3 MSTORE PUSH1 0x20 DUP3 KECCAK256 PUSH1 0x6 SWAP1 SWAP2 MUL ADD DUP1 SLOAD PUSH1 0x1 PUSH1 0x1 PUSH1 0xA0 SHL SUB NOT AND DUP2 SSTORE PUSH1 0x1 DUP2 ADD DUP3 SWAP1 SSTORE PUSH1 0x2 DUP2 ADD DUP3 SWAP1 SSTORE PUSH1 0x3 DUP2 ADD DUP3 SWAP1 SSTORE PUSH1 0x4 DUP2 ADD DUP3 SWAP1 SSTORE PUSH1 0x5 ADD SSTORE PUSH2 0x4893 JUMP JUMPDEST DUP3 PUSH1 0x20 ADD MLOAD PUSH1 0x9 DUP6 DUP2 SLOAD DUP2 LT PUSH2 0x47BD JUMPI PUSH2 0x47BD PUSH2 0x5324 JUMP JUMPDEST SWAP1 PUSH1 0x0 MSTORE PUSH1 0x20 PUSH1 0x0 KECCAK256 SWAP1 PUSH1 0x2 MUL ADD PUSH1 0x1 ADD DUP9 DUP2 SLOAD DUP2 LT PUSH2 0x47DF JUMPI PUSH2 0x47DF PUSH2 0x5324 JUMP JUMPDEST SWAP1 PUSH1 0x0 MSTORE PUSH1 0x20 PUSH1 0x0 KECCAK256 SWAP1 PUSH1 0x6 MUL ADD PUSH1 0x1 ADD DUP2 SWAP1 SSTORE POP TIMESTAMP PUSH1 0x9 DUP6 DUP2 SLOAD DUP2 LT PUSH2 0x4808 JUMPI PUSH2 0x4808 PUSH2 0x5324 JUMP JUMPDEST SWAP1 PUSH1 0x0 MSTORE PUSH1 0x20 PUSH1 0x0 KECCAK256 SWAP1 PUSH1 0x2 MUL ADD PUSH1 0x1 ADD DUP9 DUP2 SLOAD DUP2 LT PUSH2 0x482A JUMPI PUSH2 0x482A PUSH2 0x5324 JUMP JUMPDEST PUSH1 0x0 SWAP2 DUP3 MSTORE PUSH1 0x20 SWAP1 SWAP2 KECCAK256 PUSH1 0x2 PUSH1 0x6 SWAP1 SWAP3 MUL ADD ADD SSTORE PUSH2 0x4848 DUP2 TIMESTAMP PUSH2 0x5217 JUMP JUMPDEST PUSH1 0x9 DUP6 DUP2 SLOAD DUP2 LT PUSH2 0x485B JUMPI PUSH2 0x485B PUSH2 0x5324 JUMP JUMPDEST SWAP1 PUSH1 0x0 MSTORE PUSH1 0x20 PUSH1 0x0 KECCAK256 SWAP1 PUSH1 0x2 MUL ADD PUSH1 0x1 ADD DUP9 DUP2 SLOAD DUP2 LT PUSH2 0x487D JUMPI PUSH2 0x487D PUSH2 0x5324 JUMP JUMPDEST SWAP1 PUSH1 0x0 MSTORE PUSH1 0x20 PUSH1 0x0 KECCAK256 SWAP1 PUSH1 0x6 MUL ADD PUSH1 0x5 ADD DUP2 SWAP1 SSTORE POP JUMPDEST POP SWAP6 SWAP7 SWAP5 POP POP POP POP POP JUMP JUMPDEST PUSH1 0x1 PUSH1 0x1 PUSH1 0xA0 SHL SUB DUP3 AND PUSH2 0x4900 JUMPI PUSH1 0x40 MLOAD PUSH3 0x461BCD PUSH1 0xE5 SHL DUP2 MSTORE PUSH1 0x20 PUSH1 0x4 DUP3 ADD MSTORE PUSH1 0x24 DUP1 DUP3 ADD MSTORE PUSH32 0x54616C6178546F6B656E3A206D696E7420746F20746865207A65726F20616464 PUSH1 0x44 DUP3 ADD MSTORE PUSH4 0x72657373 PUSH1 0xE0 SHL PUSH1 0x64 DUP3 ADD MSTORE PUSH1 0x84 ADD PUSH2 0xDAC JUMP JUMPDEST PUSH1 0xF SLOAD PUSH2 0x490D SWAP1 DUP3 PUSH2 0xC1E JUMP JUMPDEST PUSH1 0xF SSTORE PUSH1 0x1 PUSH1 0x1 PUSH1 0xA0 SHL SUB DUP3 AND PUSH1 0x0 SWAP1 DUP2 MSTORE PUSH1 0xB PUSH1 0x20 MSTORE PUSH1 0x40 SWAP1 KECCAK256 SLOAD PUSH2 0x4933 SWAP1 DUP3 PUSH2 0xC1E JUMP JUMPDEST PUSH1 0x1 PUSH1 0x1 PUSH1 0xA0 SHL SUB DUP4 AND PUSH1 0x0 DUP2 DUP2 MSTORE PUSH1 0xB PUSH1 0x20 MSTORE PUSH1 0x40 DUP1 DUP3 KECCAK256 SWAP4 SWAP1 SWAP4 SSTORE SWAP2 MLOAD SWAP1 SWAP2 SWAP1 PUSH32 0xDDF252AD1BE2C89B69C2B068FC378DAA952BA7F163C4A11628F55A4DF523B3EF SWAP1 PUSH2 0x3710 SWAP1 DUP6 DUP2 MSTORE PUSH1 0x20 ADD SWAP1 JUMP JUMPDEST CALLER PUSH1 0x0 SWAP1 DUP2 MSTORE PUSH1 0xA PUSH1 0x20 MSTORE PUSH1 0x40 DUP2 KECCAK256 SLOAD PUSH1 0x9 DUP1 SLOAD DUP4 SWAP3 SWAP2 DUP4 SWAP2 DUP4 SWAP1 DUP2 LT PUSH2 0x49AD JUMPI PUSH2 0x49AD PUSH2 0x5324 JUMP JUMPDEST SWAP1 PUSH1 0x0 MSTORE PUSH1 0x20 PUSH1 0x0 KECCAK256 SWAP1 PUSH1 0x2 MUL ADD PUSH1 0x1 ADD DUP6 DUP2 SLOAD DUP2 LT PUSH2 0x49CF JUMPI PUSH2 0x49CF PUSH2 0x5324 JUMP JUMPDEST PUSH1 0x0 SWAP2 DUP3 MSTORE PUSH1 0x20 SWAP2 DUP3 SWAP1 KECCAK256 PUSH1 0x40 DUP1 MLOAD PUSH1 0xC0 DUP2 ADD DUP3 MSTORE PUSH1 0x6 SWAP1 SWAP4 MUL SWAP1 SWAP2 ADD DUP1 SLOAD PUSH1 0x1 PUSH1 0x1 PUSH1 0xA0 SHL SUB AND DUP4 MSTORE PUSH1 0x1 DUP2 ADD SLOAD SWAP4 DUP4 ADD SWAP4 SWAP1 SWAP4 MSTORE PUSH1 0x2 DUP4 ADD SLOAD SWAP1 DUP3 ADD MSTORE PUSH1 0x3 DUP3 ADD SLOAD PUSH1 0x60 DUP3 ADD MSTORE PUSH1 0x4 DUP3 ADD SLOAD PUSH1 0x80 DUP3 ADD MSTORE PUSH1 0x5 SWAP1 SWAP2 ADD SLOAD PUSH1 0xA0 DUP3 ADD DUP2 SWAP1 MSTORE SWAP1 SWAP2 POP TIMESTAMP GT ISZERO PUSH2 0x4A51 JUMPI PUSH1 0x40 MLOAD PUSH3 0x461BCD PUSH1 0xE5 SHL DUP2 MSTORE PUSH1 0x4 ADD PUSH2 0xDAC SWAP1 PUSH2 0x54F5 JUMP JUMPDEST PUSH1 0x0 DUP2 PUSH1 0x20 ADD MLOAD GT PUSH2 0x4AD5 JUMPI PUSH1 0x40 MLOAD PUSH3 0x461BCD PUSH1 0xE5 SHL DUP2 MSTORE PUSH1 0x20 PUSH1 0x4 DUP3 ADD MSTORE PUSH1 0x41 PUSH1 0x24 DUP3 ADD MSTORE PUSH32 0x5374616B61626C653A2043616E6E6F742077697468647261772C20796F752064 PUSH1 0x44 DUP3 ADD MSTORE PUSH32 0x6F6E2774206861766520616E79207374616B6520696E207468697320496E6465 PUSH1 0x64 DUP3 ADD MSTORE PUSH1 0xF PUSH1 0xFB SHL PUSH1 0x84 DUP3 ADD MSTORE PUSH1 0xA4 ADD PUSH2 0xDAC JUMP JUMPDEST PUSH1 0x20 DUP2 ADD MLOAD PUSH1 0x0 PUSH2 0x4AE6 DUP4 DUP4 PUSH2 0x455D JUMP JUMPDEST SWAP1 POP PUSH1 0x9 DUP5 DUP2 SLOAD DUP2 LT PUSH2 0x4AFB JUMPI PUSH2 0x4AFB PUSH2 0x5324 JUMP JUMPDEST SWAP1 PUSH1 0x0 MSTORE PUSH1 0x20 PUSH1 0x0 KECCAK256 SWAP1 PUSH1 0x2 MUL ADD PUSH1 0x1 ADD DUP8 DUP2 SLOAD DUP2 LT PUSH2 0x4B1D JUMPI PUSH2 0x4B1D PUSH2 0x5324 JUMP JUMPDEST PUSH1 0x0 SWAP2 DUP3 MSTORE PUSH1 0x20 DUP3 KECCAK256 PUSH1 0x6 SWAP1 SWAP2 MUL ADD DUP1 SLOAD PUSH1 0x1 PUSH1 0x1 PUSH1 0xA0 SHL SUB NOT AND DUP2 SSTORE PUSH1 0x1 DUP2 ADD DUP3 SWAP1 SSTORE PUSH1 0x2 DUP2 ADD DUP3 SWAP1 SSTORE PUSH1 0x3 DUP2 ADD DUP3 SWAP1 SSTORE PUSH1 0x4 DUP2 ADD DUP3 SWAP1 SSTORE PUSH1 0x5 ADD SSTORE SWAP1 SWAP7 SWAP1 SWAP6 POP SWAP4 POP POP POP POP JUMP JUMPDEST PUSH1 0x0 DUP2 DUP2 MSTORE PUSH1 0x6 PUSH1 0x20 MSTORE PUSH1 0x40 SWAP1 KECCAK256 SLOAD PUSH1 0x2 SLOAD PUSH2 0x4B84 SWAP1 PUSH1 0x1 SWAP1 PUSH2 0x53BD JUMP JUMPDEST DUP2 LT ISZERO PUSH2 0x4C0D JUMPI PUSH1 0x2 DUP1 SLOAD PUSH2 0x4B9B SWAP1 PUSH1 0x1 SWAP1 PUSH2 0x53BD JUMP JUMPDEST DUP2 SLOAD DUP2 LT PUSH2 0x4BAB JUMPI PUSH2 0x4BAB PUSH2 0x5324 JUMP JUMPDEST SWAP1 PUSH1 0x0 MSTORE PUSH1 0x20 PUSH1 0x0 KECCAK256 ADD SLOAD PUSH1 0x2 DUP3 DUP2 SLOAD DUP2 LT PUSH2 0x4BC9 JUMPI PUSH2 0x4BC9 PUSH2 0x5324 JUMP JUMPDEST SWAP1 PUSH1 0x0 MSTORE PUSH1 0x20 PUSH1 0x0 KECCAK256 ADD DUP2 SWAP1 SSTORE POP DUP1 PUSH1 0x6 PUSH1 0x0 PUSH1 0x2 DUP5 DUP2 SLOAD DUP2 LT PUSH2 0x4BEF JUMPI PUSH2 0x4BEF PUSH2 0x5324 JUMP JUMPDEST SWAP1 PUSH1 0x0 MSTORE PUSH1 0x20 PUSH1 0x0 KECCAK256 ADD SLOAD DUP2 MSTORE PUSH1 0x20 ADD SWAP1 DUP2 MSTORE PUSH1 0x20 ADD PUSH1 0x0 KECCAK256 DUP2 SWAP1 SSTORE POP JUMPDEST POP PUSH1 0x0 SWAP1 DUP2 MSTORE PUSH1 0x7 PUSH1 0x20 SWAP1 DUP2 MSTORE PUSH1 0x40 DUP1 DUP4 KECCAK256 DUP4 SWAP1 SSTORE PUSH1 0x8 DUP3 MSTORE DUP1 DUP4 KECCAK256 DUP4 SWAP1 SSTORE PUSH1 0x6 SWAP1 SWAP2 MSTORE DUP2 KECCAK256 SSTORE JUMP JUMPDEST PUSH1 0x0 PUSH2 0xC15 DUP3 DUP5 PUSH2 0x54D6 JUMP JUMPDEST PUSH1 0x9 DUP1 SLOAD PUSH1 0x1 SWAP1 DUP2 ADD DUP1 DUP4 SSTORE PUSH1 0x0 SWAP3 DUP4 MSTORE DUP3 SWAP2 PUSH2 0x4C5E SWAP2 PUSH2 0x53BD JUMP JUMPDEST SWAP1 POP DUP3 PUSH1 0x9 DUP3 DUP2 SLOAD DUP2 LT PUSH2 0x4C74 JUMPI PUSH2 0x4C74 PUSH2 0x5324 JUMP JUMPDEST PUSH1 0x0 SWAP2 DUP3 MSTORE PUSH1 0x20 DUP1 DUP4 KECCAK256 PUSH1 0x2 SWAP3 SWAP1 SWAP3 MUL SWAP1 SWAP2 ADD DUP1 SLOAD PUSH1 0x1 PUSH1 0x1 PUSH1 0xA0 SHL SUB NOT AND PUSH1 0x1 PUSH1 0x1 PUSH1 0xA0 SHL SUB SWAP5 DUP6 AND OR SWAP1 SSTORE SWAP5 SWAP1 SWAP2 AND DUP2 MSTORE PUSH1 0xA SWAP1 SWAP4 MSTORE PUSH1 0x40 SWAP1 SWAP3 KECCAK256 DUP3 SWAP1 SSTORE POP SWAP1 JUMP JUMPDEST PUSH1 0x0 DUP1 DUP3 GT PUSH2 0x4D09 JUMPI PUSH1 0x40 MLOAD PUSH3 0x461BCD PUSH1 0xE5 SHL DUP2 MSTORE PUSH1 0x20 PUSH1 0x4 DUP3 ADD MSTORE PUSH1 0x1B PUSH1 0x24 DUP3 ADD MSTORE PUSH32 0x5374616B61626C653A204572726F722074696D657374616D7020300000000000 PUSH1 0x44 DUP3 ADD MSTORE PUSH1 0x64 ADD PUSH2 0xDAC JUMP JUMPDEST PUSH2 0xC18 PUSH2 0x4D16 DUP4 TIMESTAMP PUSH2 0x53BD JUMP JUMPDEST PUSH2 0x4D2A SWAP1 PUSH10 0xD3C21BCECCEDA1000000 PUSH2 0x54D6 JUMP JUMPDEST PUSH4 0x1E13380 PUSH1 0x40 MLOAD DUP1 PUSH1 0x60 ADD PUSH1 0x40 MSTORE DUP1 PUSH1 0x27 DUP2 MSTORE PUSH1 0x20 ADD PUSH2 0x5547 PUSH1 0x27 SWAP2 CODECOPY PUSH1 0x0 DUP2 DUP4 PUSH2 0x4D69 JUMPI PUSH1 0x40 MLOAD PUSH3 0x461BCD PUSH1 0xE5 SHL DUP2 MSTORE PUSH1 0x4 ADD PUSH2 0xDAC SWAP2 SWAP1 PUSH2 0x4E52 JUMP JUMPDEST POP DUP3 DUP5 DUP2 PUSH2 0x4D79 JUMPI PUSH2 0x4D79 PUSH2 0x51C9 JUMP JUMPDEST DIV SWAP5 SWAP4 POP POP POP POP JUMP JUMPDEST DUP3 DUP1 SLOAD DUP3 DUP3 SSTORE SWAP1 PUSH1 0x0 MSTORE PUSH1 0x20 PUSH1 0x0 KECCAK256 SWAP1 DUP2 ADD SWAP3 DUP3 ISZERO PUSH2 0x4DD7 JUMPI SWAP2 PUSH1 0x20 MUL DUP3 ADD JUMPDEST DUP3 DUP2 GT ISZERO PUSH2 0x4DD7 JUMPI DUP3 MLOAD DUP3 SLOAD PUSH1 0x1 PUSH1 0x1 PUSH1 0xA0 SHL SUB NOT AND PUSH1 0x1 PUSH1 0x1 PUSH1 0xA0 SHL SUB SWAP1 SWAP2 AND OR DUP3 SSTORE PUSH1 0x20 SWAP1 SWAP3 ADD SWAP2 PUSH1 0x1 SWAP1 SWAP2 ADD SWAP1 PUSH2 0x4DA2 JUMP JUMPDEST POP PUSH2 0x4DE3 SWAP3 SWAP2 POP PUSH2 0x4E24 JUMP JUMPDEST POP SWAP1 JUMP JUMPDEST POP DUP1 SLOAD PUSH1 0x0 DUP3 SSTORE SWAP1 PUSH1 0x0 MSTORE PUSH1 0x20 PUSH1 0x0 KECCAK256 SWAP1 DUP2 ADD SWAP1 PUSH2 0xDF3 SWAP2 SWAP1 PUSH2 0x4E24 JUMP JUMPDEST PUSH1 0x40 MLOAD DUP1 PUSH2 0x560 ADD PUSH1 0x40 MSTORE DUP1 PUSH1 0x2B SWAP1 PUSH1 0x20 DUP3 MUL DUP1 CALLDATASIZE DUP4 CALLDATACOPY POP SWAP2 SWAP3 SWAP2 POP POP JUMP JUMPDEST JUMPDEST DUP1 DUP3 GT ISZERO PUSH2 0x4DE3 JUMPI PUSH1 0x0 DUP2 SSTORE PUSH1 0x1 ADD PUSH2 0x4E25 JUMP JUMPDEST PUSH1 0x0 PUSH1 0x20 DUP3 DUP5 SUB SLT ISZERO PUSH2 0x4E4B JUMPI PUSH1 0x0 DUP1 REVERT JUMPDEST POP CALLDATALOAD SWAP2 SWAP1 POP JUMP JUMPDEST PUSH1 0x0 PUSH1 0x20 DUP1 DUP4 MSTORE DUP4 MLOAD DUP1 DUP3 DUP6 ADD MSTORE PUSH1 0x0 JUMPDEST DUP2 DUP2 LT ISZERO PUSH2 0x4E7F JUMPI DUP6 DUP2 ADD DUP4 ADD MLOAD DUP6 DUP3 ADD PUSH1 0x40 ADD MSTORE DUP3 ADD PUSH2 0x4E63 JUMP JUMPDEST DUP2 DUP2 GT ISZERO PUSH2 0x4E91 JUMPI PUSH1 0x0 PUSH1 0x40 DUP4 DUP8 ADD ADD MSTORE JUMPDEST POP PUSH1 0x1F ADD PUSH1 0x1F NOT AND SWAP3 SWAP1 SWAP3 ADD PUSH1 0x40 ADD SWAP4 SWAP3 POP POP POP JUMP JUMPDEST PUSH1 0x1 PUSH1 0x1 PUSH1 0xA0 SHL SUB DUP2 AND DUP2 EQ PUSH2 0xDF3 JUMPI PUSH1 0x0 DUP1 REVERT JUMPDEST DUP1 CALLDATALOAD PUSH2 0x4EC7 DUP2 PUSH2 0x4EA7 JUMP JUMPDEST SWAP2 SWAP1 POP JUMP JUMPDEST PUSH1 0x0 DUP1 PUSH1 0x40 DUP4 DUP6 SUB SLT ISZERO PUSH2 0x4EDF JUMPI PUSH1 0x0 DUP1 REVERT JUMPDEST DUP3 CALLDATALOAD PUSH2 0x4EEA DUP2 PUSH2 0x4EA7 JUMP JUMPDEST SWAP5 PUSH1 0x20 SWAP4 SWAP1 SWAP4 ADD CALLDATALOAD SWAP4 POP POP POP JUMP JUMPDEST PUSH1 0x0 DUP2 MLOAD DUP1 DUP5 MSTORE PUSH1 0x20 DUP1 DUP6 ADD SWAP5 POP DUP1 DUP5 ADD PUSH1 0x0 JUMPDEST DUP4 DUP2 LT ISZERO PUSH2 0x4F31 JUMPI DUP2 MLOAD PUSH1 0x1 PUSH1 0x1 PUSH1 0xA0 SHL SUB AND DUP8 MSTORE SWAP6 DUP3 ADD SWAP6 SWAP1 DUP3 ADD SWAP1 PUSH1 0x1 ADD PUSH2 0x4F0C JUMP JUMPDEST POP SWAP5 SWAP6 SWAP5 POP POP POP POP POP JUMP JUMPDEST PUSH1 0x20 DUP2 MSTORE PUSH1 0x0 PUSH2 0xC15 PUSH1 0x20 DUP4 ADD DUP5 PUSH2 0x4EF8 JUMP JUMPDEST PUSH4 0x4E487B71 PUSH1 0xE0 SHL PUSH1 0x0 MSTORE PUSH1 0x41 PUSH1 0x4 MSTORE PUSH1 0x24 PUSH1 0x0 REVERT JUMPDEST PUSH1 0x0 PUSH1 0x20 DUP1 DUP4 DUP6 SUB SLT ISZERO PUSH2 0x4F78 JUMPI PUSH1 0x0 DUP1 REVERT JUMPDEST DUP3 CALLDATALOAD PUSH8 0xFFFFFFFFFFFFFFFF DUP1 DUP3 GT ISZERO PUSH2 0x4F90 JUMPI PUSH1 0x0 DUP1 REVERT JUMPDEST DUP2 DUP6 ADD SWAP2 POP DUP6 PUSH1 0x1F DUP4 ADD SLT PUSH2 0x4FA4 JUMPI PUSH1 0x0 DUP1 REVERT JUMPDEST DUP2 CALLDATALOAD DUP2 DUP2 GT ISZERO PUSH2 0x4FB6 JUMPI PUSH2 0x4FB6 PUSH2 0x4F4F JUMP JUMPDEST DUP1 PUSH1 0x5 SHL PUSH1 0x40 MLOAD PUSH1 0x1F NOT PUSH1 0x3F DUP4 ADD AND DUP2 ADD DUP2 DUP2 LT DUP6 DUP3 GT OR ISZERO PUSH2 0x4FDB JUMPI PUSH2 0x4FDB PUSH2 0x4F4F JUMP JUMPDEST PUSH1 0x40 MSTORE SWAP2 DUP3 MSTORE DUP5 DUP3 ADD SWAP3 POP DUP4 DUP2 ADD DUP6 ADD SWAP2 DUP9 DUP4 GT ISZERO PUSH2 0x4FF9 JUMPI PUSH1 0x0 DUP1 REVERT JUMPDEST SWAP4 DUP6 ADD SWAP4 JUMPDEST DUP3 DUP6 LT ISZERO PUSH2 0x501E JUMPI PUSH2 0x500F DUP6 PUSH2 0x4EBC JUMP JUMPDEST DUP5 MSTORE SWAP4 DUP6 ADD SWAP4 SWAP3 DUP6 ADD SWAP3 PUSH2 0x4FFE JUMP JUMPDEST SWAP9 SWAP8 POP POP POP POP POP POP POP POP JUMP JUMPDEST PUSH1 0x0 DUP1 PUSH1 0x0 PUSH1 0x60 DUP5 DUP7 SUB SLT ISZERO PUSH2 0x503F JUMPI PUSH1 0x0 DUP1 REVERT JUMPDEST DUP4 CALLDATALOAD PUSH2 0x504A DUP2 PUSH2 0x4EA7 JUMP JUMPDEST SWAP3 POP PUSH1 0x20 DUP5 ADD CALLDATALOAD PUSH2 0x505A DUP2 PUSH2 0x4EA7 JUMP JUMPDEST SWAP3 SWAP6 SWAP3 SWAP5 POP POP POP PUSH1 0x40 SWAP2 SWAP1 SWAP2 ADD CALLDATALOAD SWAP1 JUMP JUMPDEST PUSH1 0x0 PUSH1 0x20 DUP3 DUP5 SUB SLT ISZERO PUSH2 0x507D JUMPI PUSH1 0x0 DUP1 REVERT JUMPDEST DUP2 CALLDATALOAD PUSH2 0x5088 DUP2 PUSH2 0x4EA7 JUMP JUMPDEST SWAP4 SWAP3 POP POP POP JUMP JUMPDEST PUSH1 0x0 DUP1 PUSH1 0x40 DUP4 DUP6 SUB SLT ISZERO PUSH2 0x50A2 JUMPI PUSH1 0x0 DUP1 REVERT JUMPDEST DUP3 CALLDATALOAD SWAP2 POP PUSH1 0x20 DUP4 ADD CALLDATALOAD PUSH2 0x50B4 DUP2 PUSH2 0x4EA7 JUMP JUMPDEST DUP1 SWAP2 POP POP SWAP3 POP SWAP3 SWAP1 POP JUMP JUMPDEST PUSH1 0x0 DUP1 PUSH1 0x40 DUP4 DUP6 SUB SLT ISZERO PUSH2 0x50D2 JUMPI PUSH1 0x0 DUP1 REVERT JUMPDEST POP POP DUP1 CALLDATALOAD SWAP3 PUSH1 0x20 SWAP1 SWAP2 ADD CALLDATALOAD SWAP2 POP JUMP JUMPDEST PUSH1 0x0 PUSH1 0x20 DUP3 DUP5 SUB SLT ISZERO PUSH2 0x50F3 JUMPI PUSH1 0x0 DUP1 REVERT JUMPDEST DUP2 CALLDATALOAD PUSH2 0xFFFF DUP2 AND DUP2 EQ PUSH2 0x5088 JUMPI PUSH1 0x0 DUP1 REVERT JUMPDEST PUSH1 0x0 PUSH1 0x20 DUP1 DUP4 MSTORE PUSH1 0x60 DUP1 DUP5 ADD DUP6 MLOAD DUP4 DUP7 ADD MSTORE DUP3 DUP7 ADD MLOAD PUSH1 0x40 DUP1 DUP2 DUP9 ADD MSTORE DUP3 DUP3 MLOAD DUP1 DUP6 MSTORE PUSH1 0x80 SWAP5 POP DUP5 DUP10 ADD SWAP2 POP DUP7 DUP5 ADD SWAP4 POP PUSH1 0x0 JUMPDEST DUP2 DUP2 LT ISZERO PUSH2 0x518C JUMPI DUP5 MLOAD DUP1 MLOAD PUSH1 0x1 PUSH1 0x1 PUSH1 0xA0 SHL SUB AND DUP5 MSTORE DUP9 DUP2 ADD MLOAD DUP10 DUP6 ADD MSTORE DUP5 DUP2 ADD MLOAD DUP6 DUP6 ADD MSTORE DUP8 DUP2 ADD MLOAD DUP9 DUP6 ADD MSTORE DUP7 DUP2 ADD MLOAD DUP8 DUP6 ADD MSTORE PUSH1 0xA0 SWAP1 DUP2 ADD MLOAD SWAP1 DUP5 ADD MSTORE SWAP4 DUP8 ADD SWAP4 PUSH1 0xC0 SWAP1 SWAP3 ADD SWAP2 PUSH1 0x1 ADD PUSH2 0x5139 JUMP JUMPDEST POP SWAP1 SWAP10 SWAP9 POP POP POP POP POP POP POP POP POP JUMP JUMPDEST PUSH1 0x0 DUP1 PUSH1 0x40 DUP4 DUP6 SUB SLT ISZERO PUSH2 0x51AE JUMPI PUSH1 0x0 DUP1 REVERT JUMPDEST DUP3 CALLDATALOAD PUSH2 0x51B9 DUP2 PUSH2 0x4EA7 JUMP JUMPDEST SWAP2 POP PUSH1 0x20 DUP4 ADD CALLDATALOAD PUSH2 0x50B4 DUP2 PUSH2 0x4EA7 JUMP JUMPDEST PUSH4 0x4E487B71 PUSH1 0xE0 SHL PUSH1 0x0 MSTORE PUSH1 0x12 PUSH1 0x4 MSTORE PUSH1 0x24 PUSH1 0x0 REVERT JUMPDEST PUSH4 0x4E487B71 PUSH1 0xE0 SHL PUSH1 0x0 MSTORE PUSH1 0x11 PUSH1 0x4 MSTORE PUSH1 0x24 PUSH1 0x0 REVERT JUMPDEST PUSH1 0x0 DUP3 PUSH2 0x5212 JUMPI PUSH4 0x4E487B71 PUSH1 0xE0 SHL PUSH1 0x0 MSTORE PUSH1 0x12 PUSH1 0x4 MSTORE PUSH1 0x24 PUSH1 0x0 REVERT JUMPDEST POP DIV SWAP1 JUMP JUMPDEST PUSH1 0x0 DUP3 NOT DUP3 GT ISZERO PUSH2 0x522A JUMPI PUSH2 0x522A PUSH2 0x51DF JUMP JUMPDEST POP ADD SWAP1 JUMP JUMPDEST PUSH1 0x1 DUP2 DUP2 SHR SWAP1 DUP3 AND DUP1 PUSH2 0x5243 JUMPI PUSH1 0x7F DUP3 AND SWAP2 POP JUMPDEST PUSH1 0x20 DUP3 LT DUP2 EQ ISZERO PUSH2 0x5264 JUMPI PUSH4 0x4E487B71 PUSH1 0xE0 SHL PUSH1 0x0 MSTORE PUSH1 0x22 PUSH1 0x4 MSTORE PUSH1 0x24 PUSH1 0x0 REVERT JUMPDEST POP SWAP2 SWAP1 POP JUMP JUMPDEST PUSH1 0x0 PUSH1 0x20 DUP3 DUP5 SUB SLT ISZERO PUSH2 0x527C JUMPI PUSH1 0x0 DUP1 REVERT JUMPDEST DUP2 MLOAD PUSH2 0x5088 DUP2 PUSH2 0x4EA7 JUMP JUMPDEST PUSH1 0x20 DUP1 DUP3 MSTORE PUSH1 0x32 SWAP1 DUP3 ADD MSTORE PUSH32 0x54616C6178546F6B656E3A204F6E6C7920636C61696D61626C65206279205573 PUSH1 0x40 DUP3 ADD MSTORE PUSH18 0x6572206F6620746869732061646472657373 PUSH1 0x70 SHL PUSH1 0x60 DUP3 ADD MSTORE PUSH1 0x80 ADD SWAP1 JUMP JUMPDEST PUSH2 0x560 DUP2 ADD DUP2 DUP4 PUSH1 0x0 JUMPDEST PUSH1 0x2B DUP2 LT ISZERO PUSH2 0x5302 JUMPI DUP2 MLOAD DUP4 MSTORE PUSH1 0x20 SWAP3 DUP4 ADD SWAP3 SWAP1 SWAP2 ADD SWAP1 PUSH1 0x1 ADD PUSH2 0x52E3 JUMP JUMPDEST POP POP POP SWAP3 SWAP2 POP POP JUMP JUMPDEST PUSH1 0x0 PUSH1 0x20 DUP3 DUP5 SUB SLT ISZERO PUSH2 0x531D JUMPI PUSH1 0x0 DUP1 REVERT JUMPDEST POP MLOAD SWAP2 SWAP1 POP JUMP JUMPDEST PUSH4 0x4E487B71 PUSH1 0xE0 SHL PUSH1 0x0 MSTORE PUSH1 0x32 PUSH1 0x4 MSTORE PUSH1 0x24 PUSH1 0x0 REVERT JUMPDEST PUSH1 0x0 PUSH1 0x0 NOT DUP3 EQ ISZERO PUSH2 0x534E JUMPI PUSH2 0x534E PUSH2 0x51DF JUMP JUMPDEST POP PUSH1 0x1 ADD SWAP1 JUMP JUMPDEST PUSH1 0x0 PUSH1 0x40 DUP3 ADD PUSH1 0x40 DUP4 MSTORE DUP1 DUP6 SLOAD DUP1 DUP4 MSTORE PUSH1 0x60 DUP6 ADD SWAP2 POP DUP7 PUSH1 0x0 MSTORE PUSH1 0x20 SWAP3 POP DUP3 PUSH1 0x0 KECCAK256 PUSH1 0x0 JUMPDEST DUP3 DUP2 LT ISZERO PUSH2 0x539F JUMPI DUP2 SLOAD PUSH1 0x1 PUSH1 0x1 PUSH1 0xA0 SHL SUB AND DUP5 MSTORE SWAP3 DUP5 ADD SWAP3 PUSH1 0x1 SWAP2 DUP3 ADD SWAP2 ADD PUSH2 0x537A JUMP JUMPDEST POP POP POP DUP4 DUP2 SUB DUP3 DUP6 ADD MSTORE PUSH2 0x53B3 DUP2 DUP7 PUSH2 0x4EF8 JUMP JUMPDEST SWAP7 SWAP6 POP POP POP POP POP POP JUMP JUMPDEST PUSH1 0x0 DUP3 DUP3 LT ISZERO PUSH2 0x53CF JUMPI PUSH2 0x53CF PUSH2 0x51DF JUMP JUMPDEST POP SUB SWAP1 JUMP JUMPDEST DUP3 DUP5 DUP3 CALLDATACOPY SWAP1 SWAP2 ADD SWAP1 DUP2 MSTORE PUSH1 0x20 ADD SWAP2 SWAP1 POP JUMP JUMPDEST PUSH1 0x1 DUP2 DUP2 JUMPDEST DUP1 DUP6 GT ISZERO PUSH2 0x5421 JUMPI DUP2 PUSH1 0x0 NOT DIV DUP3 GT ISZERO PUSH2 0x5407 JUMPI PUSH2 0x5407 PUSH2 0x51DF JUMP JUMPDEST DUP1 DUP6 AND ISZERO PUSH2 0x5414 JUMPI SWAP2 DUP2 MUL SWAP2 JUMPDEST SWAP4 DUP5 SHR SWAP4 SWAP1 DUP1 MUL SWAP1 PUSH2 0x53EB JUMP JUMPDEST POP SWAP3 POP SWAP3 SWAP1 POP JUMP JUMPDEST PUSH1 0x0 DUP3 PUSH2 0x5438 JUMPI POP PUSH1 0x1 PUSH2 0xC18 JUMP JUMPDEST DUP2 PUSH2 0x5445 JUMPI POP PUSH1 0x0 PUSH2 0xC18 JUMP JUMPDEST DUP2 PUSH1 0x1 DUP2 EQ PUSH2 0x545B JUMPI PUSH1 0x2 DUP2 EQ PUSH2 0x5465 JUMPI PUSH2 0x5481 JUMP JUMPDEST PUSH1 0x1 SWAP2 POP POP PUSH2 0xC18 JUMP JUMPDEST PUSH1 0xFF DUP5 GT ISZERO PUSH2 0x5476 JUMPI PUSH2 0x5476 PUSH2 0x51DF JUMP JUMPDEST POP POP PUSH1 0x1 DUP3 SHL PUSH2 0xC18 JUMP JUMPDEST POP PUSH1 0x20 DUP4 LT PUSH2 0x133 DUP4 LT AND PUSH1 0x4E DUP5 LT PUSH1 0xB DUP5 LT AND OR ISZERO PUSH2 0x54A4 JUMPI POP DUP2 DUP2 EXP PUSH2 0xC18 JUMP JUMPDEST PUSH2 0x54AE DUP4 DUP4 PUSH2 0x53E6 JUMP JUMPDEST DUP1 PUSH1 0x0 NOT DIV DUP3 GT ISZERO PUSH2 0x54C2 JUMPI PUSH2 0x54C2 PUSH2 0x51DF JUMP JUMPDEST MUL SWAP4 SWAP3 POP POP POP JUMP JUMPDEST PUSH1 0x0 PUSH2 0xC15 DUP4 DUP4 PUSH2 0x5429 JUMP JUMPDEST PUSH1 0x0 DUP2 PUSH1 0x0 NOT DIV DUP4 GT DUP3 ISZERO ISZERO AND ISZERO PUSH2 0x54F0 JUMPI PUSH2 0x54F0 PUSH2 0x51DF JUMP JUMPDEST POP MUL SWAP1 JUMP JUMPDEST PUSH1 0x20 DUP1 DUP3 MSTORE PUSH1 0x31 SWAP1 DUP3 ADD MSTORE PUSH32 0x5374616B61626C653A2043616E6E6F74207769746864726177206265666F7265 PUSH1 0x40 DUP3 ADD MSTORE PUSH17 0x207468652072656C656173652074696D65 PUSH1 0x78 SHL PUSH1 0x60 DUP3 ADD MSTORE PUSH1 0x80 ADD SWAP1 JUMP INVALID MSTORE8 PUSH21 0x616B61626C653A204572726F722063616E6E6F7420 PUSH5 0x6976696465 KECCAK256 PUSH21 0x696D657374616D7054616C6178546F6B656E3A2062 PUSH22 0x726E20616D6F756E7420657863656564732062616C61 PUSH15 0x636554616C6178546F6B656E3A2074 PUSH19 0x616E7366657220616D6F756E74206578636565 PUSH5 0x7320616C6C PUSH16 0x77616E636554616C6178546F6B656E3A KECCAK256 PUSH5 0x6563726561 PUSH20 0x656420616C6C6F77616E63652062656C6F77207A PUSH6 0x726F54616C61 PUSH25 0x546F6B656E3A207472616E7366657220616D6F756E74206578 PUSH4 0x65656473 KECCAK256 PUSH3 0x616C61 PUSH15 0x6365A2646970667358221220EDCBC2 NUMBER 0xDD CHAINID 0x1F SWAP13 GT 0xCA LOG2 0xB1 0xD9 0xF8 0xDF PUSH12 0xAF88D17978E390EA1CB08FE9 PUSH25 0x964E4964736F6C634300080B003360A0604052348015610010 JUMPI PUSH1 0x0 DUP1 REVERT JUMPDEST POP PUSH1 0x40 MLOAD PUSH2 0x599 CODESIZE SUB DUP1 PUSH2 0x599 DUP4 CODECOPY DUP2 ADD PUSH1 0x40 DUP2 SWAP1 MSTORE PUSH2 0x2F SWAP2 PUSH2 0xB3 JUMP JUMPDEST PUSH1 0x0 DUP3 GT PUSH2 0x98 JUMPI PUSH1 0x40 MLOAD PUSH3 0x461BCD PUSH1 0xE5 SHL DUP2 MSTORE PUSH1 0x20 PUSH1 0x4 DUP3 ADD MSTORE PUSH1 0x2C PUSH1 0x24 DUP3 ADD MSTORE PUSH32 0x546F6B656E54696D654C6F636B3A20416D6F756E74206D757374206772656174 PUSH1 0x44 DUP3 ADD MSTORE PUSH12 0x6572207468616E207A65726F PUSH1 0xA0 SHL PUSH1 0x64 DUP3 ADD MSTORE PUSH1 0x84 ADD PUSH1 0x40 MLOAD DUP1 SWAP2 SUB SWAP1 REVERT JUMPDEST PUSH1 0x0 SWAP2 SWAP1 SWAP2 SSTORE PUSH1 0x1 PUSH1 0x1 PUSH1 0xA0 SHL SUB AND PUSH1 0x80 MSTORE TIMESTAMP PUSH1 0x1 SSTORE PUSH2 0xF0 JUMP JUMPDEST PUSH1 0x0 DUP1 PUSH1 0x40 DUP4 DUP6 SUB SLT ISZERO PUSH2 0xC6 JUMPI PUSH1 0x0 DUP1 REVERT JUMPDEST DUP3 MLOAD PUSH1 0x20 DUP5 ADD MLOAD SWAP1 SWAP3 POP PUSH1 0x1 PUSH1 0x1 PUSH1 0xA0 SHL SUB DUP2 AND DUP2 EQ PUSH2 0xE5 JUMPI PUSH1 0x0 DUP1 REVERT JUMPDEST DUP1 SWAP2 POP POP SWAP3 POP SWAP3 SWAP1 POP JUMP JUMPDEST PUSH1 0x80 MLOAD PUSH2 0x48F PUSH2 0x10A PUSH1 0x0 CODECOPY PUSH1 0x0 PUSH1 0x53 ADD MSTORE PUSH2 0x48F PUSH1 0x0 RETURN INVALID PUSH1 0x80 PUSH1 0x40 MSTORE CALLVALUE DUP1 ISZERO PUSH2 0x10 JUMPI PUSH1 0x0 DUP1 REVERT JUMPDEST POP PUSH1 0x4 CALLDATASIZE LT PUSH2 0x41 JUMPI PUSH1 0x0 CALLDATALOAD PUSH1 0xE0 SHR DUP1 PUSH4 0x38AF3EED EQ PUSH2 0x46 JUMPI DUP1 PUSH4 0xAA8C217C EQ PUSH2 0x82 JUMPI DUP1 PUSH4 0xC8100DCC EQ PUSH2 0x94 JUMPI JUMPDEST PUSH1 0x0 DUP1 REVERT JUMPDEST PUSH1 0x40 MLOAD PUSH1 0x1 PUSH1 0x1 PUSH1 0xA0 SHL SUB PUSH32 0x0 AND DUP2 MSTORE PUSH1 0x20 ADD JUMPDEST PUSH1 0x40 MLOAD DUP1 SWAP2 SUB SWAP1 RETURN JUMPDEST PUSH1 0x0 SLOAD JUMPDEST PUSH1 0x40 MLOAD SWAP1 DUP2 MSTORE PUSH1 0x20 ADD PUSH2 0x79 JUMP JUMPDEST PUSH2 0x86 PUSH2 0xA2 CALLDATASIZE PUSH1 0x4 PUSH2 0x2A4 JUMP JUMPDEST PUSH1 0x0 DUP1 PUSH1 0x0 SLOAD GT PUSH2 0xFA JUMPI PUSH1 0x40 MLOAD PUSH3 0x461BCD PUSH1 0xE5 SHL DUP2 MSTORE PUSH1 0x20 PUSH1 0x4 DUP3 ADD MSTORE PUSH1 0x1D PUSH1 0x24 DUP3 ADD MSTORE PUSH32 0x546F6B656E54696D656C6F636B3A206E6F20746F6B656E73206C656674000000 PUSH1 0x44 DUP3 ADD MSTORE PUSH1 0x64 ADD JUMPDEST PUSH1 0x40 MLOAD DUP1 SWAP2 SUB SWAP1 REVERT JUMPDEST PUSH1 0x0 PUSH2 0x105 DUP4 PUSH2 0x191 JUMP JUMPDEST SWAP1 POP PUSH1 0x0 DUP2 GT PUSH2 0x163 JUMPI PUSH1 0x40 MLOAD PUSH3 0x461BCD PUSH1 0xE5 SHL DUP2 MSTORE PUSH1 0x20 PUSH1 0x4 DUP3 ADD MSTORE PUSH1 0x23 PUSH1 0x24 DUP3 ADD MSTORE PUSH32 0x546F6B656E54696D656C6F636B3A206E6F20746F6B656E7320746F2072656C65 PUSH1 0x44 DUP3 ADD MSTORE PUSH3 0x617365 PUSH1 0xE8 SHL PUSH1 0x64 DUP3 ADD MSTORE PUSH1 0x84 ADD PUSH2 0xF1 JUMP JUMPDEST PUSH2 0x188 PUSH1 0x0 SLOAD DUP3 PUSH1 0x40 MLOAD DUP1 PUSH1 0x60 ADD PUSH1 0x40 MSTORE DUP1 PUSH1 0x3B DUP2 MSTORE PUSH1 0x20 ADD PUSH2 0x41F PUSH1 0x3B SWAP2 CODECOPY PUSH2 0x26C JUMP JUMPDEST PUSH1 0x0 SSTORE SWAP3 SWAP2 POP POP JUMP JUMPDEST PUSH1 0x0 DUP1 PUSH3 0x278D00 PUSH1 0x1 SLOAD TIMESTAMP PUSH2 0x1A6 SWAP2 SWAP1 PUSH2 0x347 JUMP JUMPDEST PUSH2 0x1B0 SWAP2 SWAP1 PUSH2 0x35E JUMP JUMPDEST PUSH1 0x2 SLOAD SWAP1 SWAP2 POP PUSH1 0x0 SWAP1 JUMPDEST DUP3 DUP2 GT PUSH2 0x1F5 JUMPI PUSH2 0x1E1 DUP3 DUP7 DUP4 PUSH1 0x2B DUP2 LT PUSH2 0x1D7 JUMPI PUSH2 0x1D7 PUSH2 0x380 JUMP JUMPDEST PUSH1 0x20 MUL ADD MLOAD PUSH2 0x298 JUMP JUMPDEST SWAP2 POP DUP1 PUSH2 0x1ED DUP2 PUSH2 0x396 JUMP JUMPDEST SWAP2 POP POP PUSH2 0x1BA JUMP JUMPDEST POP PUSH2 0x201 DUP3 PUSH1 0x1 PUSH2 0x3B1 JUMP JUMPDEST PUSH1 0x2 SSTORE DUP1 PUSH2 0x265 JUMPI PUSH1 0x40 MLOAD PUSH3 0x461BCD PUSH1 0xE5 SHL DUP2 MSTORE PUSH1 0x20 PUSH1 0x4 DUP3 ADD MSTORE PUSH1 0x2B PUSH1 0x24 DUP3 ADD MSTORE PUSH32 0x546F6B656E54696D654C6F636B3A2054686572652773206E6F7468696E672074 PUSH1 0x44 DUP3 ADD MSTORE PUSH11 0x1BC818DB185A5B481E595D PUSH1 0xAA SHL PUSH1 0x64 DUP3 ADD MSTORE PUSH1 0x84 ADD PUSH2 0xF1 JUMP JUMPDEST SWAP4 SWAP3 POP POP POP JUMP JUMPDEST PUSH1 0x0 DUP2 DUP5 DUP5 GT ISZERO PUSH2 0x290 JUMPI PUSH1 0x40 MLOAD PUSH3 0x461BCD PUSH1 0xE5 SHL DUP2 MSTORE PUSH1 0x4 ADD PUSH2 0xF1 SWAP2 SWAP1 PUSH2 0x3C9 JUMP JUMPDEST POP POP POP SWAP1 SUB SWAP1 JUMP JUMPDEST PUSH1 0x0 PUSH2 0x265 DUP3 DUP5 PUSH2 0x3B1 JUMP JUMPDEST PUSH1 0x0 PUSH2 0x560 DUP1 DUP4 DUP6 SUB SLT ISZERO PUSH2 0x2B8 JUMPI PUSH1 0x0 DUP1 REVERT JUMPDEST DUP4 PUSH1 0x1F DUP5 ADD SLT PUSH2 0x2C7 JUMPI PUSH1 0x0 DUP1 REVERT JUMPDEST PUSH1 0x40 MLOAD DUP2 DUP2 ADD DUP2 DUP2 LT PUSH8 0xFFFFFFFFFFFFFFFF DUP3 GT OR ISZERO PUSH2 0x2F7 JUMPI PUSH4 0x4E487B71 PUSH1 0xE0 SHL PUSH1 0x0 MSTORE PUSH1 0x41 PUSH1 0x4 MSTORE PUSH1 0x24 PUSH1 0x0 REVERT JUMPDEST PUSH1 0x40 MSTORE SWAP1 DUP4 ADD SWAP1 DUP1 DUP6 DUP4 GT ISZERO PUSH2 0x30C JUMPI PUSH1 0x0 DUP1 REVERT JUMPDEST DUP5 JUMPDEST DUP4 DUP2 LT ISZERO PUSH2 0x326 JUMPI DUP1 CALLDATALOAD DUP3 MSTORE PUSH1 0x20 SWAP2 DUP3 ADD SWAP2 ADD PUSH2 0x30E JUMP JUMPDEST POP SWAP1 SWAP6 SWAP5 POP POP POP POP POP JUMP JUMPDEST PUSH4 0x4E487B71 PUSH1 0xE0 SHL PUSH1 0x0 MSTORE PUSH1 0x11 PUSH1 0x4 MSTORE PUSH1 0x24 PUSH1 0x0 REVERT JUMPDEST PUSH1 0x0 DUP3 DUP3 LT ISZERO PUSH2 0x359 JUMPI PUSH2 0x359 PUSH2 0x331 JUMP JUMPDEST POP SUB SWAP1 JUMP JUMPDEST PUSH1 0x0 DUP3 PUSH2 0x37B JUMPI PUSH4 0x4E487B71 PUSH1 0xE0 SHL PUSH1 0x0 MSTORE PUSH1 0x12 PUSH1 0x4 MSTORE PUSH1 0x24 PUSH1 0x0 REVERT JUMPDEST POP DIV SWAP1 JUMP JUMPDEST PUSH4 0x4E487B71 PUSH1 0xE0 SHL PUSH1 0x0 MSTORE PUSH1 0x32 PUSH1 0x4 MSTORE PUSH1 0x24 PUSH1 0x0 REVERT JUMPDEST PUSH1 0x0 PUSH1 0x0 NOT DUP3 EQ ISZERO PUSH2 0x3AA JUMPI PUSH2 0x3AA PUSH2 0x331 JUMP JUMPDEST POP PUSH1 0x1 ADD SWAP1 JUMP JUMPDEST PUSH1 0x0 DUP3 NOT DUP3 GT ISZERO PUSH2 0x3C4 JUMPI PUSH2 0x3C4 PUSH2 0x331 JUMP JUMPDEST POP ADD SWAP1 JUMP JUMPDEST PUSH1 0x0 PUSH1 0x20 DUP1 DUP4 MSTORE DUP4 MLOAD DUP1 DUP3 DUP6 ADD MSTORE PUSH1 0x0 JUMPDEST DUP2 DUP2 LT ISZERO PUSH2 0x3F6 JUMPI DUP6 DUP2 ADD DUP4 ADD MLOAD DUP6 DUP3 ADD PUSH1 0x40 ADD MSTORE DUP3 ADD PUSH2 0x3DA JUMP JUMPDEST DUP2 DUP2 GT ISZERO PUSH2 0x408 JUMPI PUSH1 0x0 PUSH1 0x40 DUP4 DUP8 ADD ADD MSTORE JUMPDEST POP PUSH1 0x1F ADD PUSH1 0x1F NOT AND SWAP3 SWAP1 SWAP3 ADD PUSH1 0x40 ADD SWAP4 SWAP3 POP POP POP JUMP INVALID SLOAD PUSH16 0x6B656E54696D654C6F636B3A2043616E PUSH15 0x6F742073756273747261637420746F PUSH21 0x616C20616D6F756E74207769746820636C61696D61 PUSH3 0x6C65A2 PUSH5 0x6970667358 0x22 SLT KECCAK256 0xCD EXP 0xC3 0x25 SWAP13 SWAP4 0x29 0xC5 PC 0xC0 MULMOD PUSH7 0x3DF212904F29E3 SWAP16 0xB3 POP MOD 0x2D SWAP11 SWAP15 0xC1 BLOCKHASH LOG0 0x5F PUSH13 0xFB64736F6C634300080B003354 PUSH2 0x6C61 PUSH25 0x546F6B656E3A2043616E6E6F74207472616E73666572206D6F PUSH19 0x65207468616E20746F74616C20737570706C79 PUSH21 0x72616E736665724F776E6572736869703A206F776E PUSH6 0x727320617272 PUSH2 0x7920 "
		},
		"gasEstimates": {
			"creation": {
				"codeDepositCost": "4418400",
				"executionCost": "infinite",
				"totalCost": "infinite"
			},
			"external": {
				"": "infinite",
				"_taxFee()": "2426",
				"allOperations(uint256)": "4665",
				"allOperationsCount()": "2405",
				"allOperationsIndicies(bytes32)": "2549",
				"allowance(address,address)": "infinite",
				"approve(address,uint256)": "24703",
				"balanceOf(address)": "2643",
				"blockTime()": "303",
				"burnStakingReward(uint256)": "infinite",
				"changeTaxFee(uint16)": "infinite",
				"decimals()": "2401",
				"decreaseAllowance(address,uint256)": "infinite",
				"devPoolLockedWallet_1()": "2415",
				"devPoolLockedWallet_2()": "2394",
				"devPoolLockedWallet_3()": "2460",
				"getAllOwners()": "infinite",
				"getOwner()": "infinite",
				"hasStake(address)": "infinite",
				"increaseAllowance(address,uint256)": "27065",
				"isOwner(address)": "2611",
				"liquidityReserveBalance()": "infinite",
				"mintLiquidityReserve(uint256)": "infinite",
				"mintStakingReward(uint256)": "infinite",
				"name()": "infinite",
				"owners(uint256)": "4650",
				"ownersCount()": "2382",
				"ownersGeneration()": "2428",
				"ownersIndices(address)": "2647",
				"privatePlacementLockedWallet()": "2393",
				"stake(uint256,uint256)": "infinite",
				"stakeSummary(address)": "infinite",
				"stakingPackage(uint256)": "2571",
				"stakingReward()": "2350",
				"stakingRewardAmount()": "2371",
				"strategicPartnerLockedWallet_1()": "2460",
				"strategicPartnerLockedWallet_2()": "2392",
				"strategicPartnerLockedWallet_3()": "2394",
				"symbol()": "infinite",
				"taxFee()": "2388",
				"teamAndProjectCoordinatorLockedWallet_1()": "2436",
				"teamAndProjectCoordinatorLockedWallet_2()": "2437",
				"teamAndProjectCoordinatorLockedWallet_3()": "2459",
				"testCalculateDuration(uint256,address)": "infinite",
				"thisAddress()": "268",
				"totalSupply()": "2361",
				"transfer(address,uint256)": "infinite",
				"transferFrom(address,address,uint256)": "infinite",
				"transferOwnership(address[])": "infinite",
				"unlockDevPoolWallet_1()": "infinite",
				"unlockDevPoolWallet_2()": "infinite",
				"unlockDevPoolWallet_3()": "infinite",
				"unlockPrivatePlacementWallet()": "infinite",
				"unlockStrategicPartnerWallet_1()": "infinite",
				"unlockStrategicPartnerWallet_2()": "infinite",
				"unlockStrategicPartnerWallet_3()": "infinite",
				"unlockTeamAndProjectCoordinatorWallet_1()": "infinite",
				"unlockTeamAndProjectCoordinatorWallet_2()": "infinite",
				"unlockTeamAndProjectCoordinatorWallet_3()": "infinite",
				"votesCountByOperation(bytes32)": "2572",
				"votesMaskByOperation(bytes32)": "2528",
				"withdrawAllStake(uint256)": "infinite",
				"withdrawStake(uint256,uint256)": "infinite"
			},
			"internal": {
				"_approve(address,address,uint256)": "infinite",
				"_burn(address,uint256)": "infinite",
				"_mint(address,uint256)": "infinite",
				"_mintLiquidityReserve(uint256)": "infinite",
				"_transfer(address,address,uint256)": "infinite",
				"devPoolReleaseRate()": "infinite",
				"devPoolReleaseRateAlternate()": "infinite",
				"privatePlacementReleaseRate()": "infinite",
				"strategicPartnerReleaseRate()": "infinite",
				"strategicPartnerReleaseRateAlternate()": "infinite",
				"teamAndProjectCoordinatorReleaseRate()": "infinite",
				"teamAndProjectCoordinatorReleaseRateAlternate()": "infinite"
			}
		},
		"methodIdentifiers": {
			"_taxFee()": "3b124fe7",
			"allOperations(uint256)": "431ab233",
			"allOperationsCount()": "22f2f89a",
			"allOperationsIndicies(bytes32)": "ea1a2644",
			"allowance(address,address)": "dd62ed3e",
			"approve(address,uint256)": "095ea7b3",
			"balanceOf(address)": "70a08231",
			"blockTime()": "48b15166",
			"burnStakingReward(uint256)": "0e1b09ed",
			"changeTaxFee(uint16)": "8902cd70",
			"decimals()": "313ce567",
			"decreaseAllowance(address,uint256)": "a457c2d7",
			"devPoolLockedWallet_1()": "ab2e81d6",
			"devPoolLockedWallet_2()": "41b2974a",
			"devPoolLockedWallet_3()": "36a5a493",
			"getAllOwners()": "16c12746",
			"getOwner()": "893d20e8",
			"hasStake(address)": "e73e14bf",
			"increaseAllowance(address,uint256)": "39509351",
			"isOwner(address)": "2f54bf6e",
			"liquidityReserveBalance()": "bea8e46b",
			"mintLiquidityReserve(uint256)": "d94d4ad6",
			"mintStakingReward(uint256)": "a169c515",
			"name()": "06fdde03",
			"owners(uint256)": "025e7c27",
			"ownersCount()": "b9488546",
			"ownersGeneration()": "b25bb3a7",
			"ownersIndices(address)": "cc047a04",
			"privatePlacementLockedWallet()": "e39ca658",
			"stake(uint256,uint256)": "7b0472f0",
			"stakeSummary(address)": "b09d4b4e",
			"stakingPackage(uint256)": "ddbad8b8",
			"stakingReward()": "042249bb",
			"stakingRewardAmount()": "30d4f3c9",
			"strategicPartnerLockedWallet_1()": "534c96c7",
			"strategicPartnerLockedWallet_2()": "eef756fc",
			"strategicPartnerLockedWallet_3()": "97a08e71",
			"symbol()": "95d89b41",
			"taxFee()": "a071dcf4",
			"teamAndProjectCoordinatorLockedWallet_1()": "f6ddddf2",
			"teamAndProjectCoordinatorLockedWallet_2()": "85ba7c02",
			"teamAndProjectCoordinatorLockedWallet_3()": "87e25b79",
			"testCalculateDuration(uint256,address)": "38920102",
			"thisAddress()": "d4dca69b",
			"totalSupply()": "18160ddd",
			"transfer(address,uint256)": "a9059cbb",
			"transferFrom(address,address,uint256)": "23b872dd",
			"transferOwnership(address[])": "18bcd3d0",
			"unlockDevPoolWallet_1()": "b8b18e89",
			"unlockDevPoolWallet_2()": "eb9f4ac7",
			"unlockDevPoolWallet_3()": "84f3996d",
			"unlockPrivatePlacementWallet()": "934851ec",
			"unlockStrategicPartnerWallet_1()": "8378a875",
			"unlockStrategicPartnerWallet_2()": "15441bb9",
			"unlockStrategicPartnerWallet_3()": "883d9984",
			"unlockTeamAndProjectCoordinatorWallet_1()": "56029137",
			"unlockTeamAndProjectCoordinatorWallet_2()": "90a4c709",
			"unlockTeamAndProjectCoordinatorWallet_3()": "3f3ef2dc",
			"votesCountByOperation(bytes32)": "90a53085",
			"votesMaskByOperation(bytes32)": "568b5915",
			"withdrawAllStake(uint256)": "f729b00f",
			"withdrawStake(uint256,uint256)": "f1fdf469"
		}
	},
	"abi": [
		{
			"inputs": [],
			"stateMutability": "nonpayable",
			"type": "constructor"
		},
		{
			"anonymous": false,
			"inputs": [
				{
					"indexed": true,
					"internalType": "address",
					"name": "from",
					"type": "address"
				},
				{
					"indexed": true,
					"internalType": "address",
					"name": "who",
					"type": "address"
				}
			],
			"name": "AddPrivatePlacement",
			"type": "event"
		},
		{
			"anonymous": false,
			"inputs": [
				{
					"indexed": true,
					"internalType": "address",
					"name": "from",
					"type": "address"
				},
				{
					"indexed": true,
					"internalType": "address",
					"name": "who",
					"type": "address"
				}
			],
			"name": "AddStrategicPartner",
			"type": "event"
		},
		{
			"anonymous": false,
			"inputs": [
				{
					"indexed": true,
					"internalType": "address",
					"name": "owner",
					"type": "address"
				},
				{
					"indexed": true,
					"internalType": "address",
					"name": "spender",
					"type": "address"
				},
				{
					"indexed": false,
					"internalType": "uint256",
					"name": "value",
					"type": "uint256"
				}
			],
			"name": "Approval",
			"type": "event"
		},
		{
			"anonymous": false,
			"inputs": [
				{
					"indexed": true,
					"internalType": "address",
					"name": "who",
					"type": "address"
				},
				{
					"indexed": false,
					"internalType": "uint256",
					"name": "amount",
					"type": "uint256"
				}
			],
			"name": "ChangeTax",
			"type": "event"
		},
		{
			"anonymous": false,
			"inputs": [
				{
					"indexed": true,
					"internalType": "address",
					"name": "from",
					"type": "address"
				},
				{
					"indexed": true,
					"internalType": "address",
					"name": "who",
					"type": "address"
				}
			],
			"name": "DeletePrivatePlacement",
			"type": "event"
		},
		{
			"anonymous": false,
			"inputs": [
				{
					"indexed": true,
					"internalType": "address",
					"name": "from",
					"type": "address"
				},
				{
					"indexed": true,
					"internalType": "address",
					"name": "who",
					"type": "address"
				}
			],
			"name": "DeleteStrategicPartner",
			"type": "event"
		},
		{
			"anonymous": false,
			"inputs": [
				{
					"indexed": false,
					"internalType": "bytes32",
					"name": "operation",
					"type": "bytes32"
				},
				{
					"indexed": false,
					"internalType": "uint256",
					"name": "howMany",
					"type": "uint256"
				},
				{
					"indexed": false,
					"internalType": "uint256",
					"name": "ownersCount",
					"type": "uint256"
				},
				{
					"indexed": false,
					"internalType": "address",
					"name": "proposer",
					"type": "address"
				}
			],
			"name": "OperationCreated",
			"type": "event"
		},
		{
			"anonymous": false,
			"inputs": [
				{
					"indexed": false,
					"internalType": "bytes32",
					"name": "operation",
					"type": "bytes32"
				},
				{
					"indexed": false,
					"internalType": "uint256",
					"name": "howMany",
					"type": "uint256"
				},
				{
					"indexed": false,
					"internalType": "uint256",
					"name": "ownersCount",
					"type": "uint256"
				},
				{
					"indexed": false,
					"internalType": "address",
					"name": "performer",
					"type": "address"
				}
			],
			"name": "OperationPerformed",
			"type": "event"
		},
		{
			"anonymous": false,
			"inputs": [
				{
					"indexed": false,
					"internalType": "bytes32",
					"name": "operation",
					"type": "bytes32"
				},
				{
					"indexed": false,
					"internalType": "uint256",
					"name": "votes",
					"type": "uint256"
				},
				{
					"indexed": false,
					"internalType": "uint256",
					"name": "howMany",
					"type": "uint256"
				},
				{
					"indexed": false,
					"internalType": "uint256",
					"name": "ownersCount",
					"type": "uint256"
				},
				{
					"indexed": false,
					"internalType": "address",
					"name": "upvoter",
					"type": "address"
				}
			],
			"name": "OperationUpvoted",
			"type": "event"
		},
		{
			"anonymous": false,
			"inputs": [
				{
					"indexed": false,
					"internalType": "address[]",
					"name": "previousOwners",
					"type": "address[]"
				},
				{
					"indexed": false,
					"internalType": "address[]",
					"name": "newOwners",
					"type": "address[]"
				}
			],
			"name": "OwnershipTransferred",
			"type": "event"
		},
		{
			"anonymous": false,
			"inputs": [
				{
					"indexed": true,
					"internalType": "address",
					"name": "user",
					"type": "address"
				},
				{
					"indexed": false,
					"internalType": "uint256",
					"name": "amount",
					"type": "uint256"
				},
				{
					"indexed": false,
					"internalType": "uint256",
					"name": "index",
					"type": "uint256"
				},
				{
					"indexed": false,
					"internalType": "uint256",
					"name": "timestamp",
					"type": "uint256"
				},
				{
					"indexed": false,
					"internalType": "uint256",
					"name": "releaseTime",
					"type": "uint256"
				}
			],
			"name": "Staked",
			"type": "event"
		},
		{
			"anonymous": false,
			"inputs": [
				{
					"indexed": true,
					"internalType": "address",
					"name": "from",
					"type": "address"
				},
				{
					"indexed": true,
					"internalType": "address",
					"name": "to",
					"type": "address"
				},
				{
					"indexed": false,
					"internalType": "uint256",
					"name": "value",
					"type": "uint256"
				}
			],
			"name": "Transfer",
			"type": "event"
		},
		{
			"stateMutability": "payable",
			"type": "fallback"
		},
		{
			"inputs": [],
			"name": "_taxFee",
			"outputs": [
				{
					"internalType": "uint16",
					"name": "",
					"type": "uint16"
				}
			],
			"stateMutability": "view",
			"type": "function"
		},
		{
			"inputs": [
				{
					"internalType": "uint256",
					"name": "",
					"type": "uint256"
				}
			],
			"name": "allOperations",
			"outputs": [
				{
					"internalType": "bytes32",
					"name": "",
					"type": "bytes32"
				}
			],
			"stateMutability": "view",
			"type": "function"
		},
		{
			"inputs": [],
			"name": "allOperationsCount",
			"outputs": [
				{
					"internalType": "uint256",
					"name": "",
					"type": "uint256"
				}
			],
			"stateMutability": "view",
			"type": "function"
		},
		{
			"inputs": [
				{
					"internalType": "bytes32",
					"name": "",
					"type": "bytes32"
				}
			],
			"name": "allOperationsIndicies",
			"outputs": [
				{
					"internalType": "uint256",
					"name": "",
					"type": "uint256"
				}
			],
			"stateMutability": "view",
			"type": "function"
		},
		{
			"inputs": [
				{
					"internalType": "address",
					"name": "owner",
					"type": "address"
				},
				{
					"internalType": "address",
					"name": "spender",
					"type": "address"
				}
			],
			"name": "allowance",
			"outputs": [
				{
					"internalType": "uint256",
					"name": "",
					"type": "uint256"
				}
			],
			"stateMutability": "view",
			"type": "function"
		},
		{
			"inputs": [
				{
					"internalType": "address",
					"name": "spender",
					"type": "address"
				},
				{
					"internalType": "uint256",
					"name": "amount",
					"type": "uint256"
				}
			],
			"name": "approve",
			"outputs": [
				{
					"internalType": "bool",
					"name": "",
					"type": "bool"
				}
			],
			"stateMutability": "nonpayable",
			"type": "function"
		},
		{
			"inputs": [
				{
					"internalType": "address",
					"name": "account",
					"type": "address"
				}
			],
			"name": "balanceOf",
			"outputs": [
				{
					"internalType": "uint256",
					"name": "",
					"type": "uint256"
				}
			],
			"stateMutability": "view",
			"type": "function"
		},
		{
			"inputs": [],
			"name": "blockTime",
			"outputs": [
				{
					"internalType": "uint256",
					"name": "",
					"type": "uint256"
				}
			],
			"stateMutability": "view",
			"type": "function"
		},
		{
			"inputs": [
				{
					"internalType": "uint256",
					"name": "amount_",
					"type": "uint256"
				}
			],
			"name": "burnStakingReward",
			"outputs": [],
			"stateMutability": "nonpayable",
			"type": "function"
		},
		{
			"inputs": [
				{
					"internalType": "uint16",
					"name": "taxFee_",
					"type": "uint16"
				}
			],
			"name": "changeTaxFee",
			"outputs": [],
			"stateMutability": "nonpayable",
			"type": "function"
		},
		{
			"inputs": [],
			"name": "decimals",
			"outputs": [
				{
					"internalType": "uint8",
					"name": "",
					"type": "uint8"
				}
			],
			"stateMutability": "view",
			"type": "function"
		},
		{
			"inputs": [
				{
					"internalType": "address",
					"name": "spender",
					"type": "address"
				},
				{
					"internalType": "uint256",
					"name": "subtractedValue",
					"type": "uint256"
				}
			],
			"name": "decreaseAllowance",
			"outputs": [
				{
					"internalType": "bool",
					"name": "",
					"type": "bool"
				}
			],
			"stateMutability": "nonpayable",
			"type": "function"
		},
		{
			"inputs": [],
			"name": "devPoolLockedWallet_1",
			"outputs": [
				{
					"internalType": "contract Lockable",
					"name": "",
					"type": "address"
				}
			],
			"stateMutability": "view",
			"type": "function"
		},
		{
			"inputs": [],
			"name": "devPoolLockedWallet_2",
			"outputs": [
				{
					"internalType": "contract Lockable",
					"name": "",
					"type": "address"
				}
			],
			"stateMutability": "view",
			"type": "function"
		},
		{
			"inputs": [],
			"name": "devPoolLockedWallet_3",
			"outputs": [
				{
					"internalType": "contract Lockable",
					"name": "",
					"type": "address"
				}
			],
			"stateMutability": "view",
			"type": "function"
		},
		{
			"inputs": [],
			"name": "getAllOwners",
			"outputs": [
				{
					"internalType": "address[]",
					"name": "",
					"type": "address[]"
				}
			],
			"stateMutability": "view",
			"type": "function"
		},
		{
			"inputs": [],
			"name": "getOwner",
			"outputs": [
				{
					"internalType": "address[]",
					"name": "",
					"type": "address[]"
				}
			],
			"stateMutability": "view",
			"type": "function"
		},
		{
			"inputs": [
				{
					"internalType": "address",
					"name": "_staker",
					"type": "address"
				}
			],
			"name": "hasStake",
			"outputs": [
				{
					"components": [
						{
							"internalType": "uint256",
							"name": "total_amount",
							"type": "uint256"
						},
						{
							"components": [
								{
									"internalType": "address",
									"name": "user",
									"type": "address"
								},
								{
									"internalType": "uint256",
									"name": "amount",
									"type": "uint256"
								},
								{
									"internalType": "uint256",
									"name": "since",
									"type": "uint256"
								},
								{
									"internalType": "uint256",
									"name": "claimable",
									"type": "uint256"
								},
								{
									"internalType": "uint256",
									"name": "rewardAPY",
									"type": "uint256"
								},
								{
									"internalType": "uint256",
									"name": "releaseTime",
									"type": "uint256"
								}
							],
							"internalType": "struct Stakable.Stake[]",
							"name": "stakes",
							"type": "tuple[]"
						}
					],
					"internalType": "struct Stakable.StakingSummary",
					"name": "",
					"type": "tuple"
				}
			],
			"stateMutability": "view",
			"type": "function"
		},
		{
			"inputs": [
				{
					"internalType": "address",
					"name": "spender",
					"type": "address"
				},
				{
					"internalType": "uint256",
					"name": "addedValue",
					"type": "uint256"
				}
			],
			"name": "increaseAllowance",
			"outputs": [
				{
					"internalType": "bool",
					"name": "",
					"type": "bool"
				}
			],
			"stateMutability": "nonpayable",
			"type": "function"
		},
		{
			"inputs": [
				{
					"internalType": "address",
					"name": "wallet",
					"type": "address"
				}
			],
			"name": "isOwner",
			"outputs": [
				{
					"internalType": "bool",
					"name": "",
					"type": "bool"
				}
			],
			"stateMutability": "view",
			"type": "function"
		},
		{
			"inputs": [],
			"name": "liquidityReserveBalance",
			"outputs": [
				{
					"internalType": "uint256",
					"name": "",
					"type": "uint256"
				}
			],
			"stateMutability": "view",
			"type": "function"
		},
		{
			"inputs": [
				{
					"internalType": "uint256",
					"name": "amount_",
					"type": "uint256"
				}
			],
			"name": "mintLiquidityReserve",
			"outputs": [],
			"stateMutability": "nonpayable",
			"type": "function"
		},
		{
			"inputs": [
				{
					"internalType": "uint256",
					"name": "amount_",
					"type": "uint256"
				}
			],
			"name": "mintStakingReward",
			"outputs": [],
			"stateMutability": "nonpayable",
			"type": "function"
		},
		{
			"inputs": [],
			"name": "name",
			"outputs": [
				{
					"internalType": "string",
					"name": "",
					"type": "string"
				}
			],
			"stateMutability": "view",
			"type": "function"
		},
		{
			"inputs": [
				{
					"internalType": "uint256",
					"name": "",
					"type": "uint256"
				}
			],
			"name": "owners",
			"outputs": [
				{
					"internalType": "address",
					"name": "",
					"type": "address"
				}
			],
			"stateMutability": "view",
			"type": "function"
		},
		{
			"inputs": [],
			"name": "ownersCount",
			"outputs": [
				{
					"internalType": "uint256",
					"name": "",
					"type": "uint256"
				}
			],
			"stateMutability": "view",
			"type": "function"
		},
		{
			"inputs": [],
			"name": "ownersGeneration",
			"outputs": [
				{
					"internalType": "uint256",
					"name": "",
					"type": "uint256"
				}
			],
			"stateMutability": "view",
			"type": "function"
		},
		{
			"inputs": [
				{
					"internalType": "address",
					"name": "",
					"type": "address"
				}
			],
			"name": "ownersIndices",
			"outputs": [
				{
					"internalType": "uint256",
					"name": "",
					"type": "uint256"
				}
			],
			"stateMutability": "view",
			"type": "function"
		},
		{
			"inputs": [],
			"name": "privatePlacementLockedWallet",
			"outputs": [
				{
					"internalType": "contract Lockable",
					"name": "",
					"type": "address"
				}
			],
			"stateMutability": "view",
			"type": "function"
		},
		{
			"inputs": [
				{
					"internalType": "uint256",
					"name": "_amount",
					"type": "uint256"
				},
				{
					"internalType": "uint256",
					"name": "_stakePeriod",
					"type": "uint256"
				}
			],
			"name": "stake",
			"outputs": [],
			"stateMutability": "nonpayable",
			"type": "function"
		},
		{
			"inputs": [
				{
					"internalType": "address",
					"name": "user_",
					"type": "address"
				}
			],
			"name": "stakeSummary",
			"outputs": [
				{
					"components": [
						{
							"internalType": "uint256",
							"name": "total_amount",
							"type": "uint256"
						},
						{
							"components": [
								{
									"internalType": "address",
									"name": "user",
									"type": "address"
								},
								{
									"internalType": "uint256",
									"name": "amount",
									"type": "uint256"
								},
								{
									"internalType": "uint256",
									"name": "since",
									"type": "uint256"
								},
								{
									"internalType": "uint256",
									"name": "claimable",
									"type": "uint256"
								},
								{
									"internalType": "uint256",
									"name": "rewardAPY",
									"type": "uint256"
								},
								{
									"internalType": "uint256",
									"name": "releaseTime",
									"type": "uint256"
								}
							],
							"internalType": "struct Stakable.Stake[]",
							"name": "stakes",
							"type": "tuple[]"
						}
					],
					"internalType": "struct Stakable.StakingSummary",
					"name": "",
					"type": "tuple"
				}
			],
			"stateMutability": "view",
			"type": "function"
		},
		{
			"inputs": [
				{
					"internalType": "uint256",
					"name": "index",
					"type": "uint256"
				}
			],
			"name": "stakingPackage",
			"outputs": [
				{
					"internalType": "uint256",
					"name": "",
					"type": "uint256"
				}
			],
			"stateMutability": "view",
			"type": "function"
		},
		{
			"inputs": [],
			"name": "stakingReward",
			"outputs": [
				{
					"internalType": "uint256",
					"name": "",
					"type": "uint256"
				}
			],
			"stateMutability": "view",
			"type": "function"
		},
		{
			"inputs": [],
			"name": "stakingRewardAmount",
			"outputs": [
				{
					"internalType": "uint256",
					"name": "",
					"type": "uint256"
				}
			],
			"stateMutability": "view",
			"type": "function"
		},
		{
			"inputs": [],
			"name": "strategicPartnerLockedWallet_1",
			"outputs": [
				{
					"internalType": "contract Lockable",
					"name": "",
					"type": "address"
				}
			],
			"stateMutability": "view",
			"type": "function"
		},
		{
			"inputs": [],
			"name": "strategicPartnerLockedWallet_2",
			"outputs": [
				{
					"internalType": "contract Lockable",
					"name": "",
					"type": "address"
				}
			],
			"stateMutability": "view",
			"type": "function"
		},
		{
			"inputs": [],
			"name": "strategicPartnerLockedWallet_3",
			"outputs": [
				{
					"internalType": "contract Lockable",
					"name": "",
					"type": "address"
				}
			],
			"stateMutability": "view",
			"type": "function"
		},
		{
			"inputs": [],
			"name": "symbol",
			"outputs": [
				{
					"internalType": "string",
					"name": "",
					"type": "string"
				}
			],
			"stateMutability": "view",
			"type": "function"
		},
		{
			"inputs": [],
			"name": "taxFee",
			"outputs": [
				{
					"internalType": "uint256",
					"name": "",
					"type": "uint256"
				}
			],
			"stateMutability": "view",
			"type": "function"
		},
		{
			"inputs": [],
			"name": "teamAndProjectCoordinatorLockedWallet_1",
			"outputs": [
				{
					"internalType": "contract Lockable",
					"name": "",
					"type": "address"
				}
			],
			"stateMutability": "view",
			"type": "function"
		},
		{
			"inputs": [],
			"name": "teamAndProjectCoordinatorLockedWallet_2",
			"outputs": [
				{
					"internalType": "contract Lockable",
					"name": "",
					"type": "address"
				}
			],
			"stateMutability": "view",
			"type": "function"
		},
		{
			"inputs": [],
			"name": "teamAndProjectCoordinatorLockedWallet_3",
			"outputs": [
				{
					"internalType": "contract Lockable",
					"name": "",
					"type": "address"
				}
			],
			"stateMutability": "view",
			"type": "function"
		},
		{
			"inputs": [
				{
					"internalType": "uint256",
					"name": "index_",
					"type": "uint256"
				},
				{
					"internalType": "address",
					"name": "user_",
					"type": "address"
				}
			],
			"name": "testCalculateDuration",
			"outputs": [
				{
					"internalType": "uint256",
					"name": "",
					"type": "uint256"
				}
			],
			"stateMutability": "view",
			"type": "function"
		},
		{
			"inputs": [],
			"name": "thisAddress",
			"outputs": [
				{
					"internalType": "address",
					"name": "",
					"type": "address"
				}
			],
			"stateMutability": "view",
			"type": "function"
		},
		{
			"inputs": [],
			"name": "totalSupply",
			"outputs": [
				{
					"internalType": "uint256",
					"name": "",
					"type": "uint256"
				}
			],
			"stateMutability": "view",
			"type": "function"
		},
		{
			"inputs": [
				{
					"internalType": "address",
					"name": "recipient",
					"type": "address"
				},
				{
					"internalType": "uint256",
					"name": "amount",
					"type": "uint256"
				}
			],
			"name": "transfer",
			"outputs": [
				{
					"internalType": "bool",
					"name": "",
					"type": "bool"
				}
			],
			"stateMutability": "nonpayable",
			"type": "function"
		},
		{
			"inputs": [
				{
					"internalType": "address",
					"name": "sender",
					"type": "address"
				},
				{
					"internalType": "address",
					"name": "recipient",
					"type": "address"
				},
				{
					"internalType": "uint256",
					"name": "amount",
					"type": "uint256"
				}
			],
			"name": "transferFrom",
			"outputs": [
				{
					"internalType": "bool",
					"name": "",
					"type": "bool"
				}
			],
			"stateMutability": "nonpayable",
			"type": "function"
		},
		{
			"inputs": [
				{
					"internalType": "address[]",
					"name": "newOwners",
					"type": "address[]"
				}
			],
			"name": "transferOwnership",
			"outputs": [],
			"stateMutability": "nonpayable",
			"type": "function"
		},
		{
			"inputs": [],
			"name": "unlockDevPoolWallet_1",
			"outputs": [],
			"stateMutability": "nonpayable",
			"type": "function"
		},
		{
			"inputs": [],
			"name": "unlockDevPoolWallet_2",
			"outputs": [],
			"stateMutability": "nonpayable",
			"type": "function"
		},
		{
			"inputs": [],
			"name": "unlockDevPoolWallet_3",
			"outputs": [],
			"stateMutability": "nonpayable",
			"type": "function"
		},
		{
			"inputs": [],
			"name": "unlockPrivatePlacementWallet",
			"outputs": [],
			"stateMutability": "nonpayable",
			"type": "function"
		},
		{
			"inputs": [],
			"name": "unlockStrategicPartnerWallet_1",
			"outputs": [],
			"stateMutability": "nonpayable",
			"type": "function"
		},
		{
			"inputs": [],
			"name": "unlockStrategicPartnerWallet_2",
			"outputs": [],
			"stateMutability": "nonpayable",
			"type": "function"
		},
		{
			"inputs": [],
			"name": "unlockStrategicPartnerWallet_3",
			"outputs": [],
			"stateMutability": "nonpayable",
			"type": "function"
		},
		{
			"inputs": [],
			"name": "unlockTeamAndProjectCoordinatorWallet_1",
			"outputs": [],
			"stateMutability": "nonpayable",
			"type": "function"
		},
		{
			"inputs": [],
			"name": "unlockTeamAndProjectCoordinatorWallet_2",
			"outputs": [],
			"stateMutability": "nonpayable",
			"type": "function"
		},
		{
			"inputs": [],
			"name": "unlockTeamAndProjectCoordinatorWallet_3",
			"outputs": [],
			"stateMutability": "nonpayable",
			"type": "function"
		},
		{
			"inputs": [
				{
					"internalType": "bytes32",
					"name": "",
					"type": "bytes32"
				}
			],
			"name": "votesCountByOperation",
			"outputs": [
				{
					"internalType": "uint256",
					"name": "",
					"type": "uint256"
				}
			],
			"stateMutability": "view",
			"type": "function"
		},
		{
			"inputs": [
				{
					"internalType": "bytes32",
					"name": "",
					"type": "bytes32"
				}
			],
			"name": "votesMaskByOperation",
			"outputs": [
				{
					"internalType": "uint256",
					"name": "",
					"type": "uint256"
				}
			],
			"stateMutability": "view",
			"type": "function"
		},
		{
			"inputs": [
				{
					"internalType": "uint256",
					"name": "stake_index",
					"type": "uint256"
				}
			],
			"name": "withdrawAllStake",
			"outputs": [],
			"stateMutability": "nonpayable",
			"type": "function"
		},
		{
			"inputs": [
				{
					"internalType": "uint256",
					"name": "amount",
					"type": "uint256"
				},
				{
					"internalType": "uint256",
					"name": "stake_index",
					"type": "uint256"
				}
			],
			"name": "withdrawStake",
			"outputs": [],
			"stateMutability": "nonpayable",
			"type": "function"
		},
		{
			"stateMutability": "payable",
			"type": "receive"
		}
	]
}