{
	"data": {
		"bytecode": {
			"linkReferences": {},
			"object": "60806040523480156200001157600080fd5b50604080518082018252600881526754414c415845554d60c01b6020808301918252835180850190945260058452640a8829882b60db1b9084015281519192916200005f916003916200089c565b508051620000759060049060208401906200089c565b505050620000926200008c6200080e60201b60201c565b62000812565b600f60065560506007556b04be37ea7317415c458000006010556b43dacaf91c1a84ff080000006015556040805180820190915260088082526754414c415845554d60c01b6020909201918252620000ed916016916200089c565b50604080518082019091526005808252640a8829882b60db1b60209092019182526200011c916017916200089c565b50601b805460ff19166001179081905560067f6e7b3e7a52a447110501b683591c02edbdeee417f58dfb6b7bd7c4d5fac99cf95560077ffa02b14ef9deb43f821d5c4d4df343647569f13a66aa4e6481eeddd408415a435560087f67b1edb0e70c3b1fd9dece63d8d8420ca330b1f92f03281af2c99c6631d0450955601d80546001600160a01b031990811673c8c67a94b0447a2aaccb8e4d22e2cd53d8fcc456178255601e80548216732f838cf0df38b2e91e747a01ddae5ebad5558b7a179055601f805482167345094071c4daaf6a9a73b0a0f095a2b138bd8a3a1790556020805490911673aeb26fb84d0e2b3b353cd50f0a29fd40c916d2ab178155601390526b01484ed81cebeb37b68000007fc04b5662930a6d9d33ae3e671e7857b39736bceb6d3e1a26756e2a89604454d85563010000009091046001600160a01b03908116600090815260408082206b03648a260e3486a65a00000090556b08adb972c10243f4478000006019556b0d92289838d21a9968000000601a8190553383529181902091909155915491516b02427288f60130b77e8000009290911690620002c8906200092b565b9182526001600160a01b03166020820152604001604051809103906000f080158015620002f9573d6000803e3d6000fd5b50602160006101000a8154816001600160a01b0302191690836001600160a01b031602179055506b024306c4097859c43c00000073f09f65dd4d229e991901669ad7c7549f060e30b960405162000350906200092b565b9182526001600160a01b03166020820152604001604051809103906000f08015801562000381573d6000803e3d6000fd5b50602260006101000a8154816001600160a01b0302191690836001600160a01b031602179055506b024306c4097859c43c000000731a2118e056d6af192e233c2c9cfb34e067ded1f8604051620003d8906200092b565b9182526001600160a01b03166020820152604001604051809103906000f08015801562000409573d6000803e3d6000fd5b50602360006101000a8154816001600160a01b0302191690836001600160a01b031602179055506b024306c4097859c43c00000073126974fa373267d86fab6d6871afe62ccb68e81060405162000460906200092b565b9182526001600160a01b03166020820152604001604051809103906000f08015801562000491573d6000803e3d6000fd5b50602480546001600160a01b0319166001600160a01b03928316179055601e546040516b024306c4097859c43c000000929190911690620004d2906200092b565b9182526001600160a01b03166020820152604001604051809103906000f08015801562000503573d6000803e3d6000fd5b50602580546001600160a01b0319166001600160a01b03928316179055601f546040516b024306c4097859c43c00000092919091169062000544906200092b565b9182526001600160a01b03166020820152604001604051809103906000f08015801562000575573d6000803e3d6000fd5b50602680546001600160a01b0319166001600160a01b039283161790556020546040516b024306c4097859c43c000000929190911690620005b6906200092b565b9182526001600160a01b03166020820152604001604051809103906000f080158015620005e7573d6000803e3d6000fd5b50602760006101000a8154816001600160a01b0302191690836001600160a01b031602179055506b024306c4097859c43c00000073e61e7a7d16db384433e532fb85724e7f3bdaae2f6040516200063e906200092b565b9182526001600160a01b03166020820152604001604051809103906000f0801580156200066f573d6000803e3d6000fd5b50602860006101000a8154816001600160a01b0302191690836001600160a01b031602179055506b024306c4097859c43c00000073406605eb24a97a2d61b516d8d850f2aefa6a731a604051620006c6906200092b565b9182526001600160a01b03166020820152604001604051809103906000f080158015620006f7573d6000803e3d6000fd5b50602960006101000a8154816001600160a01b0302191690836001600160a01b031602179055506b024306c4097859c43c0000007397620deadc98bc8173303686037ce7b986cf53c36040516200074e906200092b565b9182526001600160a01b03166020820152604001604051809103906000f0801580156200077f573d6000803e3d6000fd5b50602a60006101000a8154816001600160a01b0302191690836001600160a01b03160217905550620008056b2d9ae8ee22462671588000006040518060400160405280601981526020017f496e73756666696369656e7420546f74616c20537570706c79000000000000008152506015546200086460201b62002f70179092919060201c565b601555620009e5565b3390565b600580546001600160a01b038381166001600160a01b0319831681179093556040519116919082907f8be0079c531659141344cd1fd0a4f28419497f9722a3daafe3b4186f6b6457e090600090a35050565b60008184841115620008945760405162461bcd60e51b81526004016200088b919062000950565b60405180910390fd5b505050900390565b828054620008aa90620009a8565b90600052602060002090601f016020900481019282620008ce576000855562000919565b82601f10620008e957805160ff191683800117855562000919565b8280016001018555821562000919579182015b8281111562000919578251825591602001919060010190620008fc565b506200092792915062000939565b5090565b61050680620063ea83390190565b5b808211156200092757600081556001016200093a565b600060208083528351808285015260005b818110156200097f5785810183015185820160400152820162000961565b8181111562000992576000604083870101525b50601f01601f1916929092016040019392505050565b600181811c90821680620009bd57607f821691505b60208210811415620009df57634e487b7160e01b600052602260045260246000fd5b50919050565b6159f580620009f56000396000f3fe6080604052600436106104845760003560e01c8063883d99841161025e578063a7771ee311610143578063c680111c116100bb578063d94d4ad61161008a578063dd62ed3e1161006f578063dd62ed3e14610cd8578063f2fde38b14610d1e578063f3388e7514610d3e57610494565b8063d94d4ad614610c98578063d9dc2d8d14610cb857610494565b8063c680111c14610c2d578063cb79c2e114610c4d578063cbb3e15214610c63578063d5dbdf1b14610c7857610494565b8063b87da76d11610112578063bad4346c116100f7578063bad4346c14610bed578063bed9d86114610c03578063c4dba83b14610c1857610494565b8063b87da76d14610bb7578063b8dd009914610bcd57610494565b8063a7771ee314610b42578063a837a65e14610b62578063a9059cbb14610b82578063ac67574f14610ba257610494565b806395d89b41116101d6578063a1f780cf116101a5578063a3626dbb1161018a578063a3626dbb14610ad2578063a3ec138d14610af2578063a457c2d714610b2257610494565b8063a1f780cf14610a92578063a25a17a714610ab257610494565b806395d89b4114610a16578063a071dcf414610a2b578063a143a5f214610a45578063a169c51514610a7257610494565b80638c63f97f1161022d5780638da5cb5b116102125780638da5cb5b146109ba57806390a4c709146109ec578063934851ec14610a0157610494565b80638c63f97f1461097a5780638d4a3c851461099a57610494565b8063883d9984146109195780638891cf0d1461092e5780638b2b423a146109445780638b7c64da1461095a57610494565b806340c10f191161038457806363a599a4116102fc57806379cc6790116102cb5780637bb4e320116102b05780637bb4e320146108da5780637c2412f9146108ef5780638378a8751461090457610494565b806379cc67901461089a5780637b0472f0146108ba57610494565b806363a599a41461081a57806370a082311461083a578063715018a61461087057806378dc93151461088557610494565b8063549dee0b116103535780635b88349d116103385780635b88349d146107da5780635f5300ff146107ef578063632a9a521461080557610494565b8063549dee0b146107af57806356029137146107c557610494565b806340c10f191461072f57806342966c681461074f57806345df02381461076f578063471a30a21461078f57610494565b806315441bb9116104175780632cf1a5fb116103e6578063338dbf59116103cb578063338dbf59146106e457806339509351146106fa5780633f3ef2dc1461071a57610494565b80632cf1a5fb146106a3578063313ce567146106c257610494565b806315441bb91461060f57806318160ddd1461062457806319ca147d1461063957806323b872dd1461068357610494565b8063095ea7b311610453578063095ea7b31461051d5780630e1b09ed1461054d5780630ec5aa1a1461056d57806310486b6a1461058257610494565b8063042249bb1461049d57806306fdde03146104c6578063070c8b74146104e8578063078f522f146104fd57610494565b366104945761049234610d5e565b005b61049234610d5e565b3480156104a957600080fd5b506104b360195481565b6040519081526020015b60405180910390f35b3480156104d257600080fd5b506104db610ed0565b6040516104bd91906154f5565b3480156104f457600080fd5b50610492610f62565b34801561050957600080fd5b5061049261051836600461554a565b611071565b34801561052957600080fd5b5061053d6105383660046155d4565b6111d9565b60405190151581526020016104bd565b34801561055957600080fd5b50610492610568366004615600565b6111f1565b34801561057957600080fd5b50610492611295565b34801561058e57600080fd5b506105976113d8565b6040516104bd9190600061012082019050825182526020830151602083015260408301516001600160a01b0381511660408401526020810151606084015260408101516080840152606081015160a0840152608081015160c084015260a081015160e084015260c08101516101008401525092915050565b34801561061b57600080fd5b5061049261153f565b34801561063057600080fd5b506015546104b3565b34801561064557600080fd5b5061064e6115e3565b6040516104bd919081518152602080830151908201526040808301511515908201526060918201519181019190915260800190565b34801561068f57600080fd5b5061053d61069e366004615619565b61165b565b3480156106af57600080fd5b50601b5461053d90610100900460ff1681565b3480156106ce57600080fd5b5060125b60405160ff90911681526020016104bd565b3480156106f057600080fd5b506104b360115481565b34801561070657600080fd5b5061053d6107153660046155d4565b61167f565b34801561072657600080fd5b506104926116be565b34801561073b57600080fd5b5061049261074a3660046155d4565b611762565b34801561075b57600080fd5b5061049261076a366004615600565b6117b8565b34801561077b57600080fd5b5061049261078a36600461565a565b6117c5565b34801561079b57600080fd5b506104926107aa3660046156a5565b611884565b3480156107bb57600080fd5b506104b3600f5481565b3480156107d157600080fd5b5061049261196a565b3480156107e657600080fd5b50610492611a0e565b3480156107fb57600080fd5b506104b3600b5481565b34801561081157600080fd5b50610492611acf565b34801561082657600080fd5b50610492610835366004615600565b611bf2565b34801561084657600080fd5b506104b36108553660046156c8565b6001600160a01b031660009081526013602052604090205490565b34801561087c57600080fd5b50610492611c39565b34801561089157600080fd5b50610492611c8d565b3480156108a657600080fd5b506104926108b53660046155d4565b611d31565b3480156108c657600080fd5b506104926108d53660046156e5565b611d46565b3480156108e657600080fd5b50610492611e0a565b3480156108fb57600080fd5b50610492611eae565b34801561091057600080fd5b50610492611ede565b34801561092557600080fd5b50610492611f82565b34801561093a57600080fd5b506104b360075481565b34801561095057600080fd5b506104b360105481565b34801561096657600080fd5b50610492610975366004615600565b612026565b34801561098657600080fd5b50610492610995366004615600565b6120dd565b3480156109a657600080fd5b506104926109b53660046155d4565b612160565b3480156109c657600080fd5b506005546001600160a01b03165b6040516001600160a01b0390911681526020016104bd565b3480156109f857600080fd5b5061049261225a565b348015610a0d57600080fd5b506104926122fe565b348015610a2257600080fd5b506104db6123a2565b348015610a3757600080fd5b50601b546106d29060ff1681565b348015610a5157600080fd5b506104b3610a60366004615600565b600d6020526000908152604090205481565b348015610a7e57600080fd5b50610492610a8d366004615600565b6123b1565b348015610a9e57600080fd5b50610492610aad366004615707565b612402565b348015610abe57600080fd5b50610492610acd3660046156c8565b61251e565b348015610ade57600080fd5b50601f546109d4906001600160a01b031681565b348015610afe57600080fd5b5061053d610b0d3660046156c8565b600c6020526000908152604090205460ff1681565b348015610b2e57600080fd5b5061053d610b3d3660046155d4565b6125b0565b348015610b4e57600080fd5b5061053d610b5d3660046156c8565b61265a565b348015610b6e57600080fd5b50601d546109d4906001600160a01b031681565b348015610b8e57600080fd5b5061053d610b9d3660046155d4565b6126d1565b348015610bae57600080fd5b506104926126df565b348015610bc357600080fd5b506104b360085481565b348015610bd957600080fd5b50601b5461053d9062010000900460ff1681565b348015610bf957600080fd5b506104b3601a5481565b348015610c0f57600080fd5b50610492612c7c565b348015610c2457600080fd5b50610492612ce6565b348015610c3957600080fd5b50601e546109d4906001600160a01b031681565b348015610c5957600080fd5b506104b360065481565b348015610c6f57600080fd5b506104b3612d36565b348015610c8457600080fd5b50610492610c93366004615600565b612d69565b348015610ca457600080fd5b50610492610cb3366004615600565b612dec565b348015610cc457600080fd5b506020546109d4906001600160a01b031681565b348015610ce457600080fd5b506104b3610cf336600461576a565b6001600160a01b03918216600090815260146020908152604080832093909416825291909152205490565b348015610d2a57600080fd5b50610492610d393660046156c8565b612ea3565b348015610d4a57600080fd5b50601c546109d4906001600160a01b031681565b6000610d6b826003612f9c565b73e61e7a7d16db384433e532fb85724e7f3bdaae2f60005260136020527fac3f991b0bcfbe5a49cb8f28aa381129b92fdf4ed0797bb0b28f2d4f8472e52f54909150610db79082612faf565b60136020527fac3f991b0bcfbe5a49cb8f28aa381129b92fdf4ed0797bb0b28f2d4f8472e52f5573406605eb24a97a2d61b516d8d850f2aefa6a731a6000527f8a2b6c18ed66322c8ecb6f6eef8af1341bab377e298d1a97668035e55c3fb98754610e229082612faf565b60136020527f8a2b6c18ed66322c8ecb6f6eef8af1341bab377e298d1a97668035e55c3fb987557397620deadc98bc8173303686037ce7b986cf53c36000527f192f1ac10b1314d35bbc8fcf3f0d2f253c4710988114baec9c0ab6a710be3ec754610e8d9082612faf565b7397620deadc98bc8173303686037ce7b986cf53c360005260136020527f192f1ac10b1314d35bbc8fcf3f0d2f253c4710988114baec9c0ab6a710be3ec7555050565b606060168054610edf906157a3565b80601f0160208091040260200160405190810160405280929190818152602001828054610f0b906157a3565b8015610f585780601f10610f2d57610100808354040283529160200191610f58565b820191906000526020600020905b815481529060010190602001808311610f3b57829003601f168201915b5050505050905090565b610f6a612fbb565b336000908152600c602052604090205460ff161515600114610fd35760405162461bcd60e51b815260206004820152601360248201527f596f7520617265206e6f74206120766f7465720000000000000000000000000060448201526064015b60405180910390fd5b336000908152600c60209081526040808320600a54845260019081019092529091205460ff161515146110485760405162461bcd60e51b815260206004820152601660248201527f596f752068617665206e6f7420766f74656420796574000000000000000000006044820152606401610fca565b600a546000908152600d6020526040812080546001929061106a9084906157f4565b9091555050565b6005546001600160a01b031633146110b95760405162461bcd60e51b815260206004820181905260248201526000805160206159a08339815191526044820152606401610fca565b6110c161300d565b8061110e5760405162461bcd60e51b815260206004820152600e60248201527f4e6f7468696e6720746f206164640000000000000000000000000000000000006044820152606401610fca565b60005b818110156111915761113d83838381811061112e5761112e61580b565b9050604002016020013561306a565b6111898383838181106111525761115261580b565b61116892602060409092020190810191506156c8565b84848481811061117a5761117a61580b565b905060400201602001356130bf565b600101611111565b50336001600160a01b03167fa3ac771ef05882e507467c1324069747d28d62938523056fd1bdd1168fe6144a83836040516111cd929190615821565b60405180910390a25050565b6000336111e78185856131e6565b5060019392505050565b6005546001600160a01b031633146112395760405162461bcd60e51b815260206004820181905260248201526000805160206159a08339815191526044820152606401610fca565b6019546112469082613336565b6019556015546112569082613336565b60155560405181815260009030907f715128ea18bcb5a472f8187c4fbfdc1ed6d04ecdcff67e3f546fdd075e862665906020015b60405180910390a350565b61129d61300d565b602460009054906101000a90046001600160a01b03166001600160a01b03166338af3eed6040518163ffffffff1660e01b8152600401602060405180830381865afa1580156112f0573d6000803e3d6000fd5b505050506040513d601f19601f82011682018060405250810190611314919061587a565b61131d81613342565b6024546000906001600160a01b0316630a95606e61133961339a565b6040518263ffffffff1660e01b81526004016113559190615897565b6020604051808303816000875af1158015611374573d6000803e3d6000fd5b505050506040513d601f19601f8201168201806040525081019061139891906158c9565b90506113c48160136000335b6001600160a01b0316815260208101919091526040016000205490612faf565b336000908152601360205260409020555050565b6113e061546f565b336000908152600e6020908152604080832081516101408101835281546001600160a01b03908116606080840191825260018501546080850152600285015460a0850152600385015460c0850152600485015460e085015260058501546101008501526006850154610120850152908352600784015490911682860152600890920154818401528251918201835284825281840194909452835191810182905291015161148c906137e5565b600061149b8260400151613835565b9050600042836040015160c0015111156114d8576000806114c485604001516020015185613893565b90925090506114d381836158e2565b925050505b60006114e785604001516138c8565b111561150f5760006115008460400151602001516138e1565b6040850151608001525061151d565b604083015160006080909101525b6040830180516060019290925260208084019190915290510151815292915050565b61154761300d565b602660009054906101000a90046001600160a01b03166001600160a01b03166338af3eed6040518163ffffffff1660e01b8152600401602060405180830381865afa15801561159a573d6000803e3d6000fd5b505050506040513d601f19601f820116820180604052508101906115be919061587a565b6115c781613342565b6026546000906001600160a01b0316630a95606e611339613903565b61161060405180608001604052806000815260200160008152602001600015158152602001600081525090565b5033600090815260126020908152604091829020825160808101845281548152600182015492810192909252600281015460ff16151592820192909252600390910154606082015290565b6000336116698582856139c3565b611674858585613a55565b506001949350505050565b3360008181526014602090815260408083206001600160a01b03871684529091528120549091906111e790829086906116b99087906158e2565b6131e6565b6116c661300d565b602a60009054906101000a90046001600160a01b03166001600160a01b03166338af3eed6040518163ffffffff1660e01b8152600401602060405180830381865afa158015611719573d6000803e3d6000fd5b505050506040513d601f19601f8201168201806040525081019061173d919061587a565b61174681613342565b602a546000906001600160a01b0316630a95606e611339613cb9565b6005546001600160a01b031633146117aa5760405162461bcd60e51b815260206004820181905260248201526000805160206159a08339815191526044820152606401610fca565b6117b48282614111565b5050565b6117c233826141f0565b50565b6005546001600160a01b0316331461180d5760405162461bcd60e51b815260206004820181905260248201526000805160206159a08339815191526044820152606401610fca565b601e80546001600160a01b03199081166001600160a01b03868116918217909355601f8054831686851690811790915560208054909316938516938417835560405133815290927f1b2f4c5680152b0503b3df404995849c1844abfb6fcf502936b60002fe2f4d9c910160405180910390a4505050565b6005546001600160a01b031633146118cc5760405162461bcd60e51b815260206004820181905260248201526000805160206159a08339815191526044820152606401610fca565b60058160ff161061191f5760405162461bcd60e51b815260206004820152601560248201527f54617820466565206d6178696d756d20697320352500000000000000000000006044820152606401610fca565b601b805460ff191660ff831690811790915560405190815233907fdf92943b31fff67e8447ff9fa8b5e226ddcc5fb34d36cfe120c0f2b96eb8d6f7906020015b60405180910390a250565b61197261300d565b602860009054906101000a90046001600160a01b03166001600160a01b03166338af3eed6040518163ffffffff1660e01b8152600401602060405180830381865afa1580156119c5573d6000803e3d6000fd5b505050506040513d601f19601f820116820180604052508101906119e9919061587a565b6119f281613342565b6028546000906001600160a01b0316630a95606e611339613cb9565b611a1661300d565b601b5460ff610100909104161515600114611a735760405162461bcd60e51b815260206004820152601760248201527f41697264726f70206e6f742079657420737461727465640000000000000000006044820152606401610fca565b6000611a7e3361436d565b30600090815260136020526040902054909150611a9b9082613336565b306000908152601360208190526040822092909255611abc918391336113a4565b3360009081526013602052604090205550565b611ad7612fbb565b336000908152600c602052604090205460ff161515600114611b3b5760405162461bcd60e51b815260206004820152601360248201527f596f7520617265206e6f74206120766f746572000000000000000000000000006044820152606401610fca565b336000908152600c60209081526040808320600a54845260010190915290205460ff1615611bab5760405162461bcd60e51b815260206004820152601560248201527f596f75206861766520766f746564206265666f726500000000000000000000006044820152606401610fca565b336000908152600c60209081526040808320600a8054855260019182018452828520805460ff191683179055548452600d909252822080549192909161106a9084906158e2565b33600090815260136020526040902054611c0c9082613336565b33600090815260136020526040812091909155601a8054839290611c319084906158e2565b909155505050565b6005546001600160a01b03163314611c815760405162461bcd60e51b815260206004820181905260248201526000805160206159a08339815191526044820152606401610fca565b611c8b600061447d565b565b611c9561300d565b602260009054906101000a90046001600160a01b03166001600160a01b03166338af3eed6040518163ffffffff1660e01b8152600401602060405180830381865afa158015611ce8573d6000803e3d6000fd5b505050506040513d601f19601f82011682018060405250810190611d0c919061587a565b611d1581613342565b6022546000906001600160a01b0316630a95606e61133961339a565b611d3c8233836139c3565b6117b482826141f0565b806276a7001480611d5957508062ed4e00145b80611d675750806301e13380145b611db35760405162461bcd60e51b815260206004820152601b60248201527f5374616b696e67206f7074696f6e20646f65736e7420657869737400000000006044820152606401610fca565b611dbd33836141f0565b611ddc33838360186000868152602001908152602001600020546144cf565b30600090815260136020526040902054611df69083612faf565b306000908152601360205260409020555050565b611e1261300d565b602360009054906101000a90046001600160a01b03166001600160a01b03166338af3eed6040518163ffffffff1660e01b8152600401602060405180830381865afa158015611e65573d6000803e3d6000fd5b505050506040513d601f19601f82011682018060405250810190611e89919061587a565b611e9281613342565b6023546000906001600160a01b0316630a95606e61133961339a565b611eb661300d565b611ecc611ec2336146c4565b60136000336113a4565b33600090815260136020526040902055565b611ee661300d565b602560009054906101000a90046001600160a01b03166001600160a01b03166338af3eed6040518163ffffffff1660e01b8152600401602060405180830381865afa158015611f39573d6000803e3d6000fd5b505050506040513d601f19601f82011682018060405250810190611f5d919061587a565b611f6681613342565b6025546000906001600160a01b0316630a95606e611339613903565b611f8a61300d565b602760009054906101000a90046001600160a01b03166001600160a01b03166338af3eed6040518163ffffffff1660e01b8152600401602060405180830381865afa158015611fdd573d6000803e3d6000fd5b505050506040513d601f19601f82011682018060405250810190612001919061587a565b61200a81613342565b6027546000906001600160a01b0316630a95606e611339613903565b6005546001600160a01b0316331461206e5760405162461bcd60e51b815260206004820181905260248201526000805160206159a08339815191526044820152606401610fca565b306000908152601360205260409020546120889082613336565b306000908152601360205260409020556015546120a59082613336565b60155560405181815260009030907fddf252ad1be2c89b69c2b068fc378daa952ba7f163c4a11628f55a4df523b3ef9060200161128a565b6005546001600160a01b031633146121255760405162461bcd60e51b815260206004820181905260248201526000805160206159a08339815191526044820152606401610fca565b61212e816147d3565b60405181815233907fe4d1041ab63832a18ae323c0781239637b799ccd1ffa03b0cc4c0916f14834d79060200161195f565b6005546001600160a01b031633146121a85760405162461bcd60e51b815260206004820181905260248201526000805160206159a08339815191526044820152606401610fca565b60006121b2614885565b90506001811515141561220c57601a546121cc9083613336565b601a556001600160a01b0383166000908152601360205260409020546121f29083612faf565b6001600160a01b0384166000908152601360205260409020555b61221461491f565b6040518281526001600160a01b0384169030907fad139bbbe5ed2d442d6797c48156ddf43b2ea733815cb7f8047085763108ee22906020015b60405180910390a3505050565b61226261300d565b602960009054906101000a90046001600160a01b03166001600160a01b03166338af3eed6040518163ffffffff1660e01b8152600401602060405180830381865afa1580156122b5573d6000803e3d6000fd5b505050506040513d601f19601f820116820180604052508101906122d9919061587a565b6122e281613342565b6029546000906001600160a01b0316630a95606e611339613cb9565b61230661300d565b602160009054906101000a90046001600160a01b03166001600160a01b03166338af3eed6040518163ffffffff1660e01b8152600401602060405180830381865afa158015612359573d6000803e3d6000fd5b505050506040513d601f19601f8201168201806040525081019061237d919061587a565b61238681613342565b6021546000906001600160a01b0316630a95606e611339614933565b606060178054610edf906157a3565b6005546001600160a01b031633146123f95760405162461bcd60e51b815260206004820181905260248201526000805160206159a08339815191526044820152606401610fca565b6117c281614ccf565b6005546001600160a01b0316331461244a5760405162461bcd60e51b815260206004820181905260248201526000805160206159a08339815191526044820152606401610fca565b61245261300d565b8061249f5760405162461bcd60e51b815260206004820152601160248201527f4e6f7468696e6720746f2064656c6574650000000000000000000000000000006044820152606401610fca565b60005b818110156124e2576124d98383838181106124bf576124bf61580b565b90506020020160208101906124d491906156c8565b614d24565b506001016124a2565b50336001600160a01b03167f11de4c4bbde444dd104485abdcba99b21a09383732955c686c96b9f3ab11407a83836040516111cd9291906158fa565b6005546001600160a01b031633146125665760405162461bcd60e51b815260206004820181905260248201526000805160206159a08339815191526044820152606401610fca565b601d80546001600160a01b0319166001600160a01b0383169081179091556040517fc35cea67bc4caf96cc47a71099d4192a65d36ab490d26ebf55825c0700815f6190600090a250565b3360008181526014602090815260408083206001600160a01b03871684529091528120549091908381101561264d5760405162461bcd60e51b815260206004820152602560248201527f45524332303a2064656372656173656420616c6c6f77616e63652062656c6f7760448201527f207a65726f0000000000000000000000000000000000000000000000000000006064820152608401610fca565b61167482868684036131e6565b60006001600160a01b0382166126b25760405162461bcd60e51b815260206004820152600f60248201527f496e76616c6964206164647265737300000000000000000000000000000000006044820152606401610fca565b506001600160a01b03166000908152600c602052604090205460ff1690565b6000336111e7818585613a55565b6005546001600160a01b031633146127275760405162461bcd60e51b815260206004820181905260248201526000805160206159a08339815191526044820152606401610fca565b601b5462010000900460ff16156127805760405162461bcd60e51b815260206004820152601560248201527f4e6f7468696e6720746f20696e697469616c697a6500000000000000000000006044820152606401610fca565b601b805462ff0000191662010000179055602154604080517fc8cca41e00000000000000000000000000000000000000000000000000000000815290516001600160a01b039092169163c8cca41e9160048082019260009290919082900301818387803b1580156127f057600080fd5b505af1158015612804573d6000803e3d6000fd5b50505050602260009054906101000a90046001600160a01b03166001600160a01b031663c8cca41e6040518163ffffffff1660e01b8152600401600060405180830381600087803b15801561285857600080fd5b505af115801561286c573d6000803e3d6000fd5b50505050602360009054906101000a90046001600160a01b03166001600160a01b031663c8cca41e6040518163ffffffff1660e01b8152600401600060405180830381600087803b1580156128c057600080fd5b505af11580156128d4573d6000803e3d6000fd5b50505050602460009054906101000a90046001600160a01b03166001600160a01b031663c8cca41e6040518163ffffffff1660e01b8152600401600060405180830381600087803b15801561292857600080fd5b505af115801561293c573d6000803e3d6000fd5b50505050602560009054906101000a90046001600160a01b03166001600160a01b031663c8cca41e6040518163ffffffff1660e01b8152600401600060405180830381600087803b15801561299057600080fd5b505af11580156129a4573d6000803e3d6000fd5b50505050602660009054906101000a90046001600160a01b03166001600160a01b031663c8cca41e6040518163ffffffff1660e01b8152600401600060405180830381600087803b1580156129f857600080fd5b505af1158015612a0c573d6000803e3d6000fd5b50505050602760009054906101000a90046001600160a01b03166001600160a01b031663c8cca41e6040518163ffffffff1660e01b8152600401600060405180830381600087803b158015612a6057600080fd5b505af1158015612a74573d6000803e3d6000fd5b50505050602860009054906101000a90046001600160a01b03166001600160a01b031663c8cca41e6040518163ffffffff1660e01b8152600401600060405180830381600087803b158015612ac857600080fd5b505af1158015612adc573d6000803e3d6000fd5b50505050602960009054906101000a90046001600160a01b03166001600160a01b031663c8cca41e6040518163ffffffff1660e01b8152600401600060405180830381600087803b158015612b3057600080fd5b505af1158015612b44573d6000803e3d6000fd5b50505050602a60009054906101000a90046001600160a01b03166001600160a01b031663c8cca41e6040518163ffffffff1660e01b8152600401600060405180830381600087803b158015612b9857600080fd5b505af1158015612bac573d6000803e3d6000fd5b50505050612bb73390565b6001600160a01b03167f72e04afc383d9ab428814e808cd65abb27c66b5fa85cc230b4cda3e36b436c9860405160405180910390a2612bf542601155565b60405133907f166f0287f5e28d35ec474da4c920a3e6f47f0d7c8833b963dd8367f68dd377cd90600090a2601b805461ff001916610100179055612c3842600855565b601b5460405161010090910460ff161515815233907fe596a4fd4ba2e7f54093d98b96267c6b0dbae1e317bed8123d9fbc868c0283779060200160405180910390a2565b600080612c8833614e15565b91509150612c9581614ccf565b3060009081526013602052604081208054849290612cb49084906157f4565b9091555050601954612cc69082613336565b601955601554612cd69083612faf565b6015556113c4611ec282846158e2565b6005546001600160a01b03163314612d2e5760405162461bcd60e51b815260206004820181905260248201526000805160206159a08339815191526044820152606401610fca565b611c8b614faa565b6000600854600014612d635762093a8060085442612d5491906157f4565b612d5e919061595e565b905090565b50600090565b6005546001600160a01b03163314612db15760405162461bcd60e51b815260206004820181905260248201526000805160206159a08339815191526044820152606401610fca565b612dba8161501f565b60405181815233907f31bbdc307cb7afab9b265ee4c47f5feb19d8a8702a67c0b695df02e0d4c55b5f9060200161195f565b6005546001600160a01b03163314612e345760405162461bcd60e51b815260206004820181905260248201526000805160206159a08339815191526044820152606401610fca565b30600090815260136020526040902054612e4e9082612faf565b30600090815260136020526040902055601554612e6b9082612faf565b60155560405181815230906000907fddf252ad1be2c89b69c2b068fc378daa952ba7f163c4a11628f55a4df523b3ef9060200161128a565b6005546001600160a01b03163314612eeb5760405162461bcd60e51b815260206004820181905260248201526000805160206159a08339815191526044820152606401610fca565b6001600160a01b038116612f675760405162461bcd60e51b815260206004820152602660248201527f4f776e61626c653a206e6577206f776e657220697320746865207a65726f206160448201527f64647265737300000000000000000000000000000000000000000000000000006064820152608401610fca565b6117c28161447d565b60008184841115612f945760405162461bcd60e51b8152600401610fca91906154f5565b505050900390565b6000612fa8828461595e565b9392505050565b6000612fa882846158e2565b60095460ff16611c8b5760405162461bcd60e51b815260206004820152601760248201527f566f74696e67206973206e6f7420617661696c61626c650000000000000000006044820152606401610fca565b601b5462010000900460ff161515600114611c8b5760405162461bcd60e51b815260206004820152600f60248201527f4e6f7420796574207374617274656400000000000000000000000000000000006044820152606401610fca565b61307261300d565b806117c25760405162461bcd60e51b815260206004820152601560248201527f416d6f756e742063616e6e6f74206265207a65726f00000000000000000000006044820152606401610fca565b6010548111156131115760405162461bcd60e51b815260206004820152601a60248201527f496e73756666696369656e7420546f74616c2042616c616e63650000000000006044820152606401610fca565b6001600160a01b0382166000908152601260205260409020600101541561317a5760405162461bcd60e51b815260206004820152601a60248201527f43616e6e6f7420616464205265676973746572656420557365720000000000006044820152606401610fca565b6001600160a01b0382166000908152601260205260408120828155600180820184905560028201805460ff191690556003909101819055600f8054919290916131c49084906158e2565b9250508190555080601060008282546131dd91906157f4565b90915550505050565b6001600160a01b0383166132615760405162461bcd60e51b8152602060048201526024808201527f45524332303a20617070726f76652066726f6d20746865207a65726f2061646460448201527f72657373000000000000000000000000000000000000000000000000000000006064820152608401610fca565b6001600160a01b0382166132dd5760405162461bcd60e51b815260206004820152602260248201527f45524332303a20617070726f766520746f20746865207a65726f20616464726560448201527f73730000000000000000000000000000000000000000000000000000000000006064820152608401610fca565b6001600160a01b0383811660008181526014602090815260408083209487168084529482529182902085905590518481527f8c5be1e5ebec7d5bd14f71427d1e84f3dd0314c0f7b2291e5b200ac8c7c3b925910161224d565b6000612fa882846157f4565b336001600160a01b038216146117c25760405162461bcd60e51b815260206004820152601160248201527f57616c6c6574206f776e6572206f6e6c790000000000000000000000000000006044820152606401610fca565b6133a26154d6565b6040518061066001604052806133c46301908b10670de0b6b3a76400006150cb565b81526020016000815260200160008152602001600081526020016000815260200160008152602001600081526020016000815260200160008152602001600081526020016000815260200160008152602001600081526020016000815260200160008152602001600081526020016134486301b1ebfc670de0b6b3a76400006150cb565b81526020016134636301b1ebfc670de0b6b3a76400006150cb565b815260200161347e6301b1ebfc670de0b6b3a76400006150cb565b81526020016134996301b1ebfc670de0b6b3a76400006150cb565b81526020016134b46301b1ebfc670de0b6b3a76400006150cb565b81526020016134cf6301b1ebfc670de0b6b3a76400006150cb565b81526020016134ea6301b1ebfc670de0b6b3a76400006150cb565b81526020016135056301b1ebfc670de0b6b3a76400006150cb565b81526020016135206301b1ebfc670de0b6b3a76400006150cb565b815260200161353b6301b1ebfc670de0b6b3a76400006150cb565b81526020016135566301b1ebfc670de0b6b3a76400006150cb565b81526020016135716301b1ebfc670de0b6b3a76400006150cb565b815260200161358c6301b1ebfc670de0b6b3a76400006150cb565b81526020016135a76301b1ebfc670de0b6b3a76400006150cb565b81526020016135c26301b1ebfc670de0b6b3a76400006150cb565b81526020016135dd6301b1ebfc670de0b6b3a76400006150cb565b81526020016135f86301b1ebfc670de0b6b3a76400006150cb565b81526020016136136301b1ebfc670de0b6b3a76400006150cb565b815260200161362e6301b1ebfc670de0b6b3a76400006150cb565b81526020016136496301b1ebfc670de0b6b3a76400006150cb565b81526020016136646301b1ebfc670de0b6b3a76400006150cb565b815260200161367f6301b1ebfc670de0b6b3a76400006150cb565b815260200161369a6301b1ebfc670de0b6b3a76400006150cb565b81526020016136b56301b1ebfc670de0b6b3a76400006150cb565b81526020016136d06301b1ebfc670de0b6b3a76400006150cb565b81526020016136eb6301b1ebfc670de0b6b3a76400006150cb565b81526020016137066301b1ebfc670de0b6b3a76400006150cb565b81526020016137216301b1ebfc670de0b6b3a76400006150cb565b815260200161373c6301b1ebfc670de0b6b3a76400006150cb565b81526020016137576301b1ebfc670de0b6b3a76400006150cb565b81526020016137726301b1ebfc670de0b6b3a76400006150cb565b815260200161378d6301b1ebfc670de0b6b3a76400006150cb565b81526020016137a86301b1ebfc670de0b6b3a76400006150cb565b81526020016137c36301b1ebfc670de0b6b3a76400006150cb565b81526020016137de6301b1ebfc670de0b6b3a76400006150cb565b9052919050565b600081116117c25760405162461bcd60e51b815260206004820152600e60248201527f4e6f205374616b6520466f756e640000000000000000000000000000000000006044820152606401610fca565b600081602001516000141561384c57506000919050565b6a52b7d2dcc80cd2e400000061386583604001516150d7565b8360a0015184602001516138799190615980565b6138839190615980565b61388d919061595e565b92915050565b6000806138ad6138a5856006546150cb565b6103e8612f9c565b6138bc6138a5856006546150cb565b915091505b9250929050565b600061388d62093a806138db84426157f4565b90612f9c565b60006301dfe2006103e8600754846138f99190615980565b613883919061595e565b61390b6154d6565b60405180610660016040528061392c62c84588670de0b6b3a76400006150cb565b81526020016000815260200160008152602001600081526020016000815260200160008152602001600081526020016000815260200161397762c84588670de0b6b3a76400006150cb565b8152602001600081526020016000815260200160008152602001600081526020016000815260200160008152602001600081526020016134486301b1ebfc670de0b6b3a76400006150cb565b6001600160a01b038381166000908152601460209081526040808320938616835292905220546000198114613a4f5781811015613a425760405162461bcd60e51b815260206004820152601d60248201527f45524332303a20696e73756666696369656e7420616c6c6f77616e63650000006044820152606401610fca565b613a4f84848484036131e6565b50505050565b6001600160a01b038316613aab5760405162461bcd60e51b815260206004820152601a60248201527f5472616e736665722066726f6d207a65726f20616464726573730000000000006044820152606401610fca565b6001600160a01b038216613b015760405162461bcd60e51b815260206004820152601860248201527f5472616e7366657220746f207a65726f206164647265737300000000000000006044820152606401610fca565b6001600160a01b03831660009081526013602052604090205481811015613b905760405162461bcd60e51b815260206004820152602660248201527f45524332303a207472616e7366657220616d6f756e742065786365656473206260448201527f616c616e636500000000000000000000000000000000000000000000000000006064820152608401610fca565b6001600160a01b03841660009081526013602052604081208383039055601b54613bc990613bc290859060ff166150cb565b6064612f9c565b90506000613bd78483613336565b90506000613bf0613be98360026150cb565b600a612f9c565b90506000613c02613be98460086150cb565b9050613c0d82610d5e565b30600090815260136020526040902054613c279082612faf565b30600090815260136020526040808220929092556001600160a01b03891681522054613c539084612faf565b6001600160a01b0380891660008181526013602052604090819020939093559151908a16907fddf252ad1be2c89b69c2b068fc378daa952ba7f163c4a11628f55a4df523b3ef90613ca79087815260200190565b60405180910390a35050505050505050565b613cc16154d6565b604051806106600160405280613ce36301406f40670de0b6b3a76400006150cb565b815260200160008152602001600081526020016000815260200160008152602001600081526020016000815260200160008152602001613d2f6301406f40670de0b6b3a76400006150cb565b815260200160008152602001600081526020016000815260200160008152602001600081526020016000815260200160008152602001613d7b6303684b4b670de0b6b3a76400006150cb565b8152602001613d966303684b4b670de0b6b3a76400006150cb565b8152602001613db16303684b4b670de0b6b3a76400006150cb565b8152602001613dcc6303684b4b670de0b6b3a76400006150cb565b8152602001613de76303684b4b670de0b6b3a76400006150cb565b8152602001613e026303684b4b670de0b6b3a76400006150cb565b8152602001613e1d6303684b4b670de0b6b3a76400006150cb565b8152602001613e386303684b4b670de0b6b3a76400006150cb565b8152602001613e536303684b4b670de0b6b3a76400006150cb565b8152602001613e6e6303684b4b670de0b6b3a76400006150cb565b8152602001613e896303684b4b670de0b6b3a76400006150cb565b8152602001613ea46303684b4b670de0b6b3a76400006150cb565b8152602001613ebf6303684b4b670de0b6b3a76400006150cb565b8152602001613eda6303684b4b670de0b6b3a76400006150cb565b8152602001613ef56303684b4b670de0b6b3a76400006150cb565b8152602001613f106303684b4b670de0b6b3a76400006150cb565b8152602001613f2b6303684b4b670de0b6b3a76400006150cb565b8152602001613f466303684b4b670de0b6b3a76400006150cb565b8152602001613f616303684b4b670de0b6b3a76400006150cb565b8152602001613f7c6303684b4b670de0b6b3a76400006150cb565b8152602001613f976303684b4b670de0b6b3a76400006150cb565b8152602001613fb26303684b4b670de0b6b3a76400006150cb565b8152602001613fcd6303684b4b670de0b6b3a76400006150cb565b8152602001613fe86303684b4b670de0b6b3a76400006150cb565b81526020016140036303684b4b670de0b6b3a76400006150cb565b815260200161401e6303684b4b670de0b6b3a76400006150cb565b81526020016140396303684b4b670de0b6b3a76400006150cb565b81526020016140546303684b4b670de0b6b3a76400006150cb565b815260200161406f6303684b4b670de0b6b3a76400006150cb565b815260200161408a6303684b4b670de0b6b3a76400006150cb565b81526020016140a56303684b4b670de0b6b3a76400006150cb565b81526020016140c06303684b4b670de0b6b3a76400006150cb565b81526020016140db6303684b4b670de0b6b3a76400006150cb565b81526020016140f66303684b4b670de0b6b3a76400006150cb565b81526020016137de6303684b4b670de0b6b3a76400006150cb565b6001600160a01b0382166141675760405162461bcd60e51b815260206004820152601f60248201527f45524332303a206d696e7420746f20746865207a65726f2061646472657373006044820152606401610fca565b806002600082825461417991906158e2565b90915550506001600160a01b038216600090815260208190526040812080548392906141a69084906158e2565b90915550506040518181526001600160a01b038316906000907fddf252ad1be2c89b69c2b068fc378daa952ba7f163c4a11628f55a4df523b3ef9060200160405180910390a35050565b6001600160a01b03821661426c5760405162461bcd60e51b815260206004820152602160248201527f45524332303a206275726e2066726f6d20746865207a65726f2061646472657360448201527f73000000000000000000000000000000000000000000000000000000000000006064820152608401610fca565b6001600160a01b038216600090815260136020526040902054818110156142fb5760405162461bcd60e51b815260206004820152602260248201527f45524332303a206275726e20616d6f756e7420657863656564732062616c616e60448201527f63650000000000000000000000000000000000000000000000000000000000006064820152608401610fca565b6001600160a01b038316600090815260136020526040812083830390556015805484929061432a9084906157f4565b90915550506040518281526000906001600160a01b038516907fddf252ad1be2c89b69c2b068fc378daa952ba7f163c4a11628f55a4df523b3ef9060200161224d565b6001600160a01b038082166000908152600e602090815260408083208151610140810183528154861660608201908152600183015460808301819052600284015460a0840152600384015460c0840152600484015460e08401526005840154610100840152600684015461012084015290825260078301549096169381019390935260080154908201529091614402906137e5565b600061441182604001516138c8565b1161445e5760405162461bcd60e51b815260206004820152601560248201527f436c61696d61626c65206f6e63652061207765656b00000000000000000000006044820152606401610fca565b80516000608090910152426040820152805160200151612fa8906138e1565b600580546001600160a01b038381166001600160a01b0319831681179093556040519116919082907f8be0079c531659141344cd1fd0a4f28419497f9722a3daafe3b4186f6b6457e090600090a35050565b6000831161451f5760405162461bcd60e51b815260206004820152601460248201527f43616e6e6f74207374616b65206e6f7468696e670000000000000000000000006044820152606401610fca565b6001600160a01b0384166000908152600e6020526040902060010154156145885760405162461bcd60e51b815260206004820152601060248201527f557365722069732061207374616b6572000000000000000000000000000000006044820152606401610fca565b6001600b600082825461459b91906158e2565b90915550506001600160a01b0384166000818152600c60209081526040808320805460ff19166001179055805160e0810182529384529083018690524290830181905260608301829052608083019190915260a082018390529060c0810161460383866158e2565b90526001600160a01b038681166000818152600e6020908152604091829020855181546001600160a01b031916951694909417845584015160018401558301516002830155606083015160038301556080830151600483015560a0830151600583015560c0909201516006909101557fb4caaf29adda3eefee3ad552a8e85058589bf834c7466cae4ee58787f70589ed858361469f81886158e2565b6040805193845260208401929092529082015260600160405180910390a25050505050565b6001600160a01b03811660009081526012602052604081206001015461472c5760405162461bcd60e51b815260206004820152600e60248201527f4e6f20546f6b656e73204c6566740000000000000000000000000000000000006044820152606401610fca565b600061473783615189565b9050600081116147895760405162461bcd60e51b815260206004820152601c60248201527f4e6f20546f6b656e7320746f2052656c6561736520666f72204e6f77000000006044820152606401610fca565b6001600160a01b0383166000908152601260205260409020600101546147af9082613336565b6001600160a01b039093166000908152601260205260409020600101929092555090565b601e8111156148495760405162461bcd60e51b8152602060048201526024808201527f50656e616c7479206665652063616e6e6f74206578636565642033207065726360448201527f656e742e000000000000000000000000000000000000000000000000000000006064820152608401610fca565b60068190556040518181527fcfa4f4cf1cd64d13a167a8e75605e0c0c9d6700e903d17c5dc11f593254a04a9906020015b60405180910390a150565b600061488f612fbb565b6001600b54116148e15760405162461bcd60e51b815260206004820152601160248201527f4e6f7420656e6f75676820766f746572730000000000000000000000000000006044820152606401610fca565b60006148f3613be9600b5460056150cb565b600a546000908152600d602052604090205490915081101561491757600191505090565b600091505090565b614927612fbb565b6009805460ff19169055565b61493b6154d6565b60405180610660016040528061495c6242b0c1670de0b6b3a76400006150cb565b81526020016149766242b0c1670de0b6b3a76400006150cb565b81526020016149906242b0c1670de0b6b3a76400006150cb565b81526020016149aa6242b0c1670de0b6b3a76400006150cb565b81526020016149c46242b0c1670de0b6b3a76400006150cb565b81526020016149de6242b0c1670de0b6b3a76400006150cb565b81526020016149f86242b0c1670de0b6b3a76400006150cb565b8152602001614a126242b0c1670de0b6b3a76400006150cb565b8152602001614a2c6242b0c1670de0b6b3a76400006150cb565b8152602001614a466242b0c1670de0b6b3a76400006150cb565b8152602001614a606242b0c1670de0b6b3a76400006150cb565b8152602001614a7a6242b0c1670de0b6b3a76400006150cb565b8152602001614a946242b0c1670de0b6b3a76400006150cb565b8152602001614aae6242b0c1670de0b6b3a76400006150cb565b8152602001614ac86242b0c1670de0b6b3a76400006150cb565b8152602001614ae26242b0c1670de0b6b3a76400006150cb565b8152602001614afd630320490c670de0b6b3a76400006150cb565b8152602001614b18630320490c670de0b6b3a76400006150cb565b8152602001614b33630320490c670de0b6b3a76400006150cb565b8152602001614b4e630320490c670de0b6b3a76400006150cb565b8152602001614b69630320490c670de0b6b3a76400006150cb565b8152602001614b84630320490c670de0b6b3a76400006150cb565b8152602001614b9f630320490c670de0b6b3a76400006150cb565b8152602001614bba630320490c670de0b6b3a76400006150cb565b8152602001614bd5630320490c670de0b6b3a76400006150cb565b8152602001614bf0630320490c670de0b6b3a76400006150cb565b8152602001614c0b630320490c670de0b6b3a76400006150cb565b8152602001614c26630320490c670de0b6b3a76400006150cb565b8152602001600081526020016000815260200160008152602001600081526020016000815260200160008152602001600081526020016000815260200160008152602001600081526020016000815260200160008152602001600081526020016000815260200160008152602001600081526020016000815260200160008152602001600081526020016000815260200160008152602001600081526020016000815250905090565b601954614cdc9082612faf565b601955601554614cec9082612faf565b60155560405181815230906000907f715128ea18bcb5a472f8187c4fbfdc1ed6d04ecdcff67e3f546fdd075e8626659060200161128a565b6001600160a01b038116600090815260126020526040812060010154614d8c5760405162461bcd60e51b815260206004820152601360248201527f55736572206e6f742052656769737465726564000000000000000000000000006044820152606401610fca565b6001600f6000828254614d9f91906157f4565b90915550506001600160a01b0382166000908152601260205260408120600101546010805491929091614dd39084906158e2565b9091555050506001600160a01b031660009081526012602052604081206001810180548383559083905560028201805460ff1916905560039091019190915590565b6001600160a01b038082166000908152600e60209081526040808320815160e081018352815490951685526001810154928501929092526002820154908401526003810154606084015260048101546080840152600581015460a08401526006015460c083015290819081614e8982613835565b6001600160a01b0386166000908152600e6020526040812080546001600160a01b0319908116825560018201839055600282018390556003820183905560048201839055600582018390556006820183905560078201805490911690556008015560c0830151909150421015614f59576001600b6000828254614f0c91906157f4565b90915550506001600160a01b0385166000908152600c60209081526040808320600a5484526001018252909120805460ff19169055820151614f4e90826153f0565b935093505050915091565b6001600b6000828254614f6c91906157f4565b90915550506001600160a01b039094166000908152600c60209081526040808320600a5484526001018252909120805460ff19169055015193915050565b60095460ff1615614ffd5760405162461bcd60e51b815260206004820152601960248201527f566f74696e6720697320616c72656164792072756e6e696e67000000000000006044820152606401610fca565b6009805460ff19166001908117909155600a805460009061106a9084906158e2565b60c88111156150965760405162461bcd60e51b815260206004820152602c60248201527f41697264726f702050657263656e746167652063616e6e6f742065786365656460448201527f2032302070657263656e742e00000000000000000000000000000000000000006064820152608401610fca565b60078190556040518181527fcc672f1026b958c0cfbfdd89ebe8ddcbc127f16ec24da6c2c7a4de26a8b1857e9060200161487a565b6000612fa88284615980565b60008082116151285760405162461bcd60e51b815260206004820152601160248201527f4572726f722074696d657374616d7020300000000000000000000000000000006044820152606401610fca565b61388d61513583426157f4565b6151499069d3c21bcecceda1000000615980565b6301e133806040518060400160405280601d81526020017f4572726f722063616e6e6f74206469766964652074696d657374616d70000000815250615435565b600080600062015180601154426151a091906157f4565b6151aa919061595e565b90506101e081101561526e576001600160a01b03841660009081526012602052604090206002015460ff16615248576001600160a01b03841660009081526012602052604090205461521f9061521890615210906a3cb5feec27901169e00000906150cb565b601054612f9c565b8390612faf565b6001600160a01b0385166000908152601260205260409020600201805460ff1916600117905591505b6001600160a01b03841660009081526012602052604090206101c260039091015561539c565b6101e08110158015615281575061034881105b1561539c576001600160a01b03841660009081526012602052604090206002015460ff16615309576001600160a01b0384166000908152601260205260409020546152e09061521890615210906a3cb5feec27901169e00000906150cb565b6001600160a01b0385166000908152601260205260409020600201805460ff1916600117905591505b6001600160a01b03841660009081526012602052604081206003015461532f90836157f4565b6001600160a01b0386166000908152601260205260409020549091506153709061536990615210906a03290914be1afb75080000906150cb565b8490612faf565b61537a9082615980565b6001600160a01b03861660009081526012602052604090206003018390559250505b816153e95760405162461bcd60e51b815260206004820152601460248201527f4e6f7468696e6720746f20636c61696d207965740000000000000000000000006044820152606401610fca565b5092915050565b60008083615403575060009050806138c1565b6000806154108686613893565b9150915061541e8683613336565b6154288683613336565b9350935050509250929050565b600081836154565760405162461bcd60e51b8152600401610fca91906154f5565b5082848161546657615466615948565b04949350505050565b604051806060016040528060008152602001600081526020016154d16040518060e0016040528060006001600160a01b031681526020016000815260200160008152602001600081526020016000815260200160008152602001600081525090565b905290565b6040518061066001604052806033906020820280368337509192915050565b600060208083528351808285015260005b8181101561552257858101830151858201604001528201615506565b81811115615534576000604083870101525b50601f01601f1916929092016040019392505050565b6000806020838503121561555d57600080fd5b823567ffffffffffffffff8082111561557557600080fd5b818501915085601f83011261558957600080fd5b81358181111561559857600080fd5b8660208260061b85010111156155ad57600080fd5b60209290920196919550909350505050565b6001600160a01b03811681146117c257600080fd5b600080604083850312156155e757600080fd5b82356155f2816155bf565b946020939093013593505050565b60006020828403121561561257600080fd5b5035919050565b60008060006060848603121561562e57600080fd5b8335615639816155bf565b92506020840135615649816155bf565b929592945050506040919091013590565b60008060006060848603121561566f57600080fd5b833561567a816155bf565b9250602084013561568a816155bf565b9150604084013561569a816155bf565b809150509250925092565b6000602082840312156156b757600080fd5b813560ff81168114612fa857600080fd5b6000602082840312156156da57600080fd5b8135612fa8816155bf565b600080604083850312156156f857600080fd5b50508035926020909101359150565b6000806020838503121561571a57600080fd5b823567ffffffffffffffff8082111561573257600080fd5b818501915085601f83011261574657600080fd5b81358181111561575557600080fd5b8660208260051b85010111156155ad57600080fd5b6000806040838503121561577d57600080fd5b8235615788816155bf565b91506020830135615798816155bf565b809150509250929050565b600181811c908216806157b757607f821691505b602082108114156157d857634e487b7160e01b600052602260045260246000fd5b50919050565b634e487b7160e01b600052601160045260246000fd5b600082821015615806576158066157de565b500390565b634e487b7160e01b600052603260045260246000fd5b6020808252818101839052600090604080840186845b8781101561586d57813561584a816155bf565b6001600160a01b0316835281850135858401529183019190830190600101615837565b5090979650505050505050565b60006020828403121561588c57600080fd5b8151612fa8816155bf565b6106608101818360005b60338110156158c05781518352602092830192909101906001016158a1565b50505092915050565b6000602082840312156158db57600080fd5b5051919050565b600082198211156158f5576158f56157de565b500190565b60208082528181018390526000908460408401835b8681101561593d578235615922816155bf565b6001600160a01b03168252918301919083019060010161590f565b509695505050505050565b634e487b7160e01b600052601260045260246000fd5b60008261597b57634e487b7160e01b600052601260045260246000fd5b500490565b600081600019048311821515161561599a5761599a6157de565b50029056fe4f776e61626c653a2063616c6c6572206973206e6f7420746865206f776e6572a26469706673582212209d12055a4f63416e563b4d0111d7e3e94ef7602f1abbd562ac0e45478f79fbf664736f6c634300080b003360a060405234801561001057600080fd5b5060405161050638038061050683398101604081905261002f91610058565b6000919091556001600160a01b0316608052600180546001600160a01b03191633179055610095565b6000806040838503121561006b57600080fd5b825160208401519092506001600160a01b038116811461008a57600080fd5b809150509250929050565b6080516104576100af6000396000607c01526104576000f3fe608060405234801561001057600080fd5b506004361061004c5760003560e01c80630a95606e1461005157806338af3eed14610077578063b580aa9e146100c3578063c8cca41e146100cc575b600080fd5b61006461005f36600461028c565b6100d6565b6040519081526020015b60405180910390f35b61009e7f000000000000000000000000000000000000000000000000000000000000000081565b60405173ffffffffffffffffffffffffffffffffffffffff909116815260200161006e565b61006460025481565b6100d461011b565b005b60006100e0610129565b60006100eb83610197565b9050610112600054826040518060600160405280603681526020016103ec60369139610260565b60005592915050565b610123610129565b42600255565b60015473ffffffffffffffffffffffffffffffffffffffff1633146101955760405162461bcd60e51b815260206004820152600a60248201527f4e6f74205f6f776e65720000000000000000000000000000000000000000000060448201526064015b60405180910390fd5b565b60008062278d00600254426101ac919061032f565b6101b69190610346565b6003549091506000905b8281116101fd576033600354116101f5578481603381106101e3576101e3610368565b60200201516101f2908361037e565b91505b6001016101c0565b5061020982600161037e565b600355806102595760405162461bcd60e51b815260206004820152601460248201527f4e6f7468696e6720746f20636c61696d20796574000000000000000000000000604482015260640161018c565b9392505050565b600081848411156102845760405162461bcd60e51b815260040161018c9190610396565b505050900390565b60006106608083850312156102a057600080fd5b83601f8401126102af57600080fd5b60405181810181811067ffffffffffffffff821117156102df57634e487b7160e01b600052604160045260246000fd5b6040529083019080858311156102f457600080fd5b845b8381101561030e5780358252602091820191016102f6565b509095945050505050565b634e487b7160e01b600052601160045260246000fd5b60008282101561034157610341610319565b500390565b60008261036357634e487b7160e01b600052601260045260246000fd5b500490565b634e487b7160e01b600052603260045260246000fd5b6000821982111561039157610391610319565b500190565b600060208083528351808285015260005b818110156103c3578581018301518582016040015282016103a7565b818111156103d5576000604083870101525b50601f01601f191692909201604001939250505056fe4c6f636b61626c653a2043616e6e6f742073756273747261637420746f74616c20616d6f756e74207769746820636c61696d61626c65a2646970667358221220dc348427478508a51e1a003f6e3a2112a2d3c08ae53913005d2ccf82e92156b164736f6c634300080b0033",
			"opcodes": "PUSH1 0x80 PUSH1 0x40 MSTORE CALLVALUE DUP1 ISZERO PUSH3 0x11 JUMPI PUSH1 0x0 DUP1 REVERT JUMPDEST POP PUSH1 0x40 DUP1 MLOAD DUP1 DUP3 ADD DUP3 MSTORE PUSH1 0x8 DUP2 MSTORE PUSH8 0x54414C415845554D PUSH1 0xC0 SHL PUSH1 0x20 DUP1 DUP4 ADD SWAP2 DUP3 MSTORE DUP4 MLOAD DUP1 DUP6 ADD SWAP1 SWAP5 MSTORE PUSH1 0x5 DUP5 MSTORE PUSH5 0xA8829882B PUSH1 0xDB SHL SWAP1 DUP5 ADD MSTORE DUP2 MLOAD SWAP2 SWAP3 SWAP2 PUSH3 0x5F SWAP2 PUSH1 0x3 SWAP2 PUSH3 0x89C JUMP JUMPDEST POP DUP1 MLOAD PUSH3 0x75 SWAP1 PUSH1 0x4 SWAP1 PUSH1 0x20 DUP5 ADD SWAP1 PUSH3 0x89C JUMP JUMPDEST POP POP POP PUSH3 0x92 PUSH3 0x8C PUSH3 0x80E PUSH1 0x20 SHL PUSH1 0x20 SHR JUMP JUMPDEST PUSH3 0x812 JUMP JUMPDEST PUSH1 0xF PUSH1 0x6 SSTORE PUSH1 0x50 PUSH1 0x7 SSTORE PUSH12 0x4BE37EA7317415C45800000 PUSH1 0x10 SSTORE PUSH12 0x43DACAF91C1A84FF08000000 PUSH1 0x15 SSTORE PUSH1 0x40 DUP1 MLOAD DUP1 DUP3 ADD SWAP1 SWAP2 MSTORE PUSH1 0x8 DUP1 DUP3 MSTORE PUSH8 0x54414C415845554D PUSH1 0xC0 SHL PUSH1 0x20 SWAP1 SWAP3 ADD SWAP2 DUP3 MSTORE PUSH3 0xED SWAP2 PUSH1 0x16 SWAP2 PUSH3 0x89C JUMP JUMPDEST POP PUSH1 0x40 DUP1 MLOAD DUP1 DUP3 ADD SWAP1 SWAP2 MSTORE PUSH1 0x5 DUP1 DUP3 MSTORE PUSH5 0xA8829882B PUSH1 0xDB SHL PUSH1 0x20 SWAP1 SWAP3 ADD SWAP2 DUP3 MSTORE PUSH3 0x11C SWAP2 PUSH1 0x17 SWAP2 PUSH3 0x89C JUMP JUMPDEST POP PUSH1 0x1B DUP1 SLOAD PUSH1 0xFF NOT AND PUSH1 0x1 OR SWAP1 DUP2 SWAP1 SSTORE PUSH1 0x6 PUSH32 0x6E7B3E7A52A447110501B683591C02EDBDEEE417F58DFB6B7BD7C4D5FAC99CF9 SSTORE PUSH1 0x7 PUSH32 0xFA02B14EF9DEB43F821D5C4D4DF343647569F13A66AA4E6481EEDDD408415A43 SSTORE PUSH1 0x8 PUSH32 0x67B1EDB0E70C3B1FD9DECE63D8D8420CA330B1F92F03281AF2C99C6631D04509 SSTORE PUSH1 0x1D DUP1 SLOAD PUSH1 0x1 PUSH1 0x1 PUSH1 0xA0 SHL SUB NOT SWAP1 DUP2 AND PUSH20 0xC8C67A94B0447A2AACCB8E4D22E2CD53D8FCC456 OR DUP3 SSTORE PUSH1 0x1E DUP1 SLOAD DUP3 AND PUSH20 0x2F838CF0DF38B2E91E747A01DDAE5EBAD5558B7A OR SWAP1 SSTORE PUSH1 0x1F DUP1 SLOAD DUP3 AND PUSH20 0x45094071C4DAAF6A9A73B0A0F095A2B138BD8A3A OR SWAP1 SSTORE PUSH1 0x20 DUP1 SLOAD SWAP1 SWAP2 AND PUSH20 0xAEB26FB84D0E2B3B353CD50F0A29FD40C916D2AB OR DUP2 SSTORE PUSH1 0x13 SWAP1 MSTORE PUSH12 0x1484ED81CEBEB37B6800000 PUSH32 0xC04B5662930A6D9D33AE3E671E7857B39736BCEB6D3E1A26756E2A89604454D8 SSTORE PUSH4 0x1000000 SWAP1 SWAP2 DIV PUSH1 0x1 PUSH1 0x1 PUSH1 0xA0 SHL SUB SWAP1 DUP2 AND PUSH1 0x0 SWAP1 DUP2 MSTORE PUSH1 0x40 DUP1 DUP3 KECCAK256 PUSH12 0x3648A260E3486A65A000000 SWAP1 SSTORE PUSH12 0x8ADB972C10243F447800000 PUSH1 0x19 SSTORE PUSH12 0xD92289838D21A9968000000 PUSH1 0x1A DUP2 SWAP1 SSTORE CALLER DUP4 MSTORE SWAP2 DUP2 SWAP1 KECCAK256 SWAP2 SWAP1 SWAP2 SSTORE SWAP2 SLOAD SWAP2 MLOAD PUSH12 0x2427288F60130B77E800000 SWAP3 SWAP1 SWAP2 AND SWAP1 PUSH3 0x2C8 SWAP1 PUSH3 0x92B JUMP JUMPDEST SWAP2 DUP3 MSTORE PUSH1 0x1 PUSH1 0x1 PUSH1 0xA0 SHL SUB AND PUSH1 0x20 DUP3 ADD MSTORE PUSH1 0x40 ADD PUSH1 0x40 MLOAD DUP1 SWAP2 SUB SWAP1 PUSH1 0x0 CREATE DUP1 ISZERO DUP1 ISZERO PUSH3 0x2F9 JUMPI RETURNDATASIZE PUSH1 0x0 DUP1 RETURNDATACOPY RETURNDATASIZE PUSH1 0x0 REVERT JUMPDEST POP PUSH1 0x21 PUSH1 0x0 PUSH2 0x100 EXP DUP2 SLOAD DUP2 PUSH1 0x1 PUSH1 0x1 PUSH1 0xA0 SHL SUB MUL NOT AND SWAP1 DUP4 PUSH1 0x1 PUSH1 0x1 PUSH1 0xA0 SHL SUB AND MUL OR SWAP1 SSTORE POP PUSH12 0x24306C4097859C43C000000 PUSH20 0xF09F65DD4D229E991901669AD7C7549F060E30B9 PUSH1 0x40 MLOAD PUSH3 0x350 SWAP1 PUSH3 0x92B JUMP JUMPDEST SWAP2 DUP3 MSTORE PUSH1 0x1 PUSH1 0x1 PUSH1 0xA0 SHL SUB AND PUSH1 0x20 DUP3 ADD MSTORE PUSH1 0x40 ADD PUSH1 0x40 MLOAD DUP1 SWAP2 SUB SWAP1 PUSH1 0x0 CREATE DUP1 ISZERO DUP1 ISZERO PUSH3 0x381 JUMPI RETURNDATASIZE PUSH1 0x0 DUP1 RETURNDATACOPY RETURNDATASIZE PUSH1 0x0 REVERT JUMPDEST POP PUSH1 0x22 PUSH1 0x0 PUSH2 0x100 EXP DUP2 SLOAD DUP2 PUSH1 0x1 PUSH1 0x1 PUSH1 0xA0 SHL SUB MUL NOT AND SWAP1 DUP4 PUSH1 0x1 PUSH1 0x1 PUSH1 0xA0 SHL SUB AND MUL OR SWAP1 SSTORE POP PUSH12 0x24306C4097859C43C000000 PUSH20 0x1A2118E056D6AF192E233C2C9CFB34E067DED1F8 PUSH1 0x40 MLOAD PUSH3 0x3D8 SWAP1 PUSH3 0x92B JUMP JUMPDEST SWAP2 DUP3 MSTORE PUSH1 0x1 PUSH1 0x1 PUSH1 0xA0 SHL SUB AND PUSH1 0x20 DUP3 ADD MSTORE PUSH1 0x40 ADD PUSH1 0x40 MLOAD DUP1 SWAP2 SUB SWAP1 PUSH1 0x0 CREATE DUP1 ISZERO DUP1 ISZERO PUSH3 0x409 JUMPI RETURNDATASIZE PUSH1 0x0 DUP1 RETURNDATACOPY RETURNDATASIZE PUSH1 0x0 REVERT JUMPDEST POP PUSH1 0x23 PUSH1 0x0 PUSH2 0x100 EXP DUP2 SLOAD DUP2 PUSH1 0x1 PUSH1 0x1 PUSH1 0xA0 SHL SUB MUL NOT AND SWAP1 DUP4 PUSH1 0x1 PUSH1 0x1 PUSH1 0xA0 SHL SUB AND MUL OR SWAP1 SSTORE POP PUSH12 0x24306C4097859C43C000000 PUSH20 0x126974FA373267D86FAB6D6871AFE62CCB68E810 PUSH1 0x40 MLOAD PUSH3 0x460 SWAP1 PUSH3 0x92B JUMP JUMPDEST SWAP2 DUP3 MSTORE PUSH1 0x1 PUSH1 0x1 PUSH1 0xA0 SHL SUB AND PUSH1 0x20 DUP3 ADD MSTORE PUSH1 0x40 ADD PUSH1 0x40 MLOAD DUP1 SWAP2 SUB SWAP1 PUSH1 0x0 CREATE DUP1 ISZERO DUP1 ISZERO PUSH3 0x491 JUMPI RETURNDATASIZE PUSH1 0x0 DUP1 RETURNDATACOPY RETURNDATASIZE PUSH1 0x0 REVERT JUMPDEST POP PUSH1 0x24 DUP1 SLOAD PUSH1 0x1 PUSH1 0x1 PUSH1 0xA0 SHL SUB NOT AND PUSH1 0x1 PUSH1 0x1 PUSH1 0xA0 SHL SUB SWAP3 DUP4 AND OR SWAP1 SSTORE PUSH1 0x1E SLOAD PUSH1 0x40 MLOAD PUSH12 0x24306C4097859C43C000000 SWAP3 SWAP2 SWAP1 SWAP2 AND SWAP1 PUSH3 0x4D2 SWAP1 PUSH3 0x92B JUMP JUMPDEST SWAP2 DUP3 MSTORE PUSH1 0x1 PUSH1 0x1 PUSH1 0xA0 SHL SUB AND PUSH1 0x20 DUP3 ADD MSTORE PUSH1 0x40 ADD PUSH1 0x40 MLOAD DUP1 SWAP2 SUB SWAP1 PUSH1 0x0 CREATE DUP1 ISZERO DUP1 ISZERO PUSH3 0x503 JUMPI RETURNDATASIZE PUSH1 0x0 DUP1 RETURNDATACOPY RETURNDATASIZE PUSH1 0x0 REVERT JUMPDEST POP PUSH1 0x25 DUP1 SLOAD PUSH1 0x1 PUSH1 0x1 PUSH1 0xA0 SHL SUB NOT AND PUSH1 0x1 PUSH1 0x1 PUSH1 0xA0 SHL SUB SWAP3 DUP4 AND OR SWAP1 SSTORE PUSH1 0x1F SLOAD PUSH1 0x40 MLOAD PUSH12 0x24306C4097859C43C000000 SWAP3 SWAP2 SWAP1 SWAP2 AND SWAP1 PUSH3 0x544 SWAP1 PUSH3 0x92B JUMP JUMPDEST SWAP2 DUP3 MSTORE PUSH1 0x1 PUSH1 0x1 PUSH1 0xA0 SHL SUB AND PUSH1 0x20 DUP3 ADD MSTORE PUSH1 0x40 ADD PUSH1 0x40 MLOAD DUP1 SWAP2 SUB SWAP1 PUSH1 0x0 CREATE DUP1 ISZERO DUP1 ISZERO PUSH3 0x575 JUMPI RETURNDATASIZE PUSH1 0x0 DUP1 RETURNDATACOPY RETURNDATASIZE PUSH1 0x0 REVERT JUMPDEST POP PUSH1 0x26 DUP1 SLOAD PUSH1 0x1 PUSH1 0x1 PUSH1 0xA0 SHL SUB NOT AND PUSH1 0x1 PUSH1 0x1 PUSH1 0xA0 SHL SUB SWAP3 DUP4 AND OR SWAP1 SSTORE PUSH1 0x20 SLOAD PUSH1 0x40 MLOAD PUSH12 0x24306C4097859C43C000000 SWAP3 SWAP2 SWAP1 SWAP2 AND SWAP1 PUSH3 0x5B6 SWAP1 PUSH3 0x92B JUMP JUMPDEST SWAP2 DUP3 MSTORE PUSH1 0x1 PUSH1 0x1 PUSH1 0xA0 SHL SUB AND PUSH1 0x20 DUP3 ADD MSTORE PUSH1 0x40 ADD PUSH1 0x40 MLOAD DUP1 SWAP2 SUB SWAP1 PUSH1 0x0 CREATE DUP1 ISZERO DUP1 ISZERO PUSH3 0x5E7 JUMPI RETURNDATASIZE PUSH1 0x0 DUP1 RETURNDATACOPY RETURNDATASIZE PUSH1 0x0 REVERT JUMPDEST POP PUSH1 0x27 PUSH1 0x0 PUSH2 0x100 EXP DUP2 SLOAD DUP2 PUSH1 0x1 PUSH1 0x1 PUSH1 0xA0 SHL SUB MUL NOT AND SWAP1 DUP4 PUSH1 0x1 PUSH1 0x1 PUSH1 0xA0 SHL SUB AND MUL OR SWAP1 SSTORE POP PUSH12 0x24306C4097859C43C000000 PUSH20 0xE61E7A7D16DB384433E532FB85724E7F3BDAAE2F PUSH1 0x40 MLOAD PUSH3 0x63E SWAP1 PUSH3 0x92B JUMP JUMPDEST SWAP2 DUP3 MSTORE PUSH1 0x1 PUSH1 0x1 PUSH1 0xA0 SHL SUB AND PUSH1 0x20 DUP3 ADD MSTORE PUSH1 0x40 ADD PUSH1 0x40 MLOAD DUP1 SWAP2 SUB SWAP1 PUSH1 0x0 CREATE DUP1 ISZERO DUP1 ISZERO PUSH3 0x66F JUMPI RETURNDATASIZE PUSH1 0x0 DUP1 RETURNDATACOPY RETURNDATASIZE PUSH1 0x0 REVERT JUMPDEST POP PUSH1 0x28 PUSH1 0x0 PUSH2 0x100 EXP DUP2 SLOAD DUP2 PUSH1 0x1 PUSH1 0x1 PUSH1 0xA0 SHL SUB MUL NOT AND SWAP1 DUP4 PUSH1 0x1 PUSH1 0x1 PUSH1 0xA0 SHL SUB AND MUL OR SWAP1 SSTORE POP PUSH12 0x24306C4097859C43C000000 PUSH20 0x406605EB24A97A2D61B516D8D850F2AEFA6A731A PUSH1 0x40 MLOAD PUSH3 0x6C6 SWAP1 PUSH3 0x92B JUMP JUMPDEST SWAP2 DUP3 MSTORE PUSH1 0x1 PUSH1 0x1 PUSH1 0xA0 SHL SUB AND PUSH1 0x20 DUP3 ADD MSTORE PUSH1 0x40 ADD PUSH1 0x40 MLOAD DUP1 SWAP2 SUB SWAP1 PUSH1 0x0 CREATE DUP1 ISZERO DUP1 ISZERO PUSH3 0x6F7 JUMPI RETURNDATASIZE PUSH1 0x0 DUP1 RETURNDATACOPY RETURNDATASIZE PUSH1 0x0 REVERT JUMPDEST POP PUSH1 0x29 PUSH1 0x0 PUSH2 0x100 EXP DUP2 SLOAD DUP2 PUSH1 0x1 PUSH1 0x1 PUSH1 0xA0 SHL SUB MUL NOT AND SWAP1 DUP4 PUSH1 0x1 PUSH1 0x1 PUSH1 0xA0 SHL SUB AND MUL OR SWAP1 SSTORE POP PUSH12 0x24306C4097859C43C000000 PUSH20 0x97620DEADC98BC8173303686037CE7B986CF53C3 PUSH1 0x40 MLOAD PUSH3 0x74E SWAP1 PUSH3 0x92B JUMP JUMPDEST SWAP2 DUP3 MSTORE PUSH1 0x1 PUSH1 0x1 PUSH1 0xA0 SHL SUB AND PUSH1 0x20 DUP3 ADD MSTORE PUSH1 0x40 ADD PUSH1 0x40 MLOAD DUP1 SWAP2 SUB SWAP1 PUSH1 0x0 CREATE DUP1 ISZERO DUP1 ISZERO PUSH3 0x77F JUMPI RETURNDATASIZE PUSH1 0x0 DUP1 RETURNDATACOPY RETURNDATASIZE PUSH1 0x0 REVERT JUMPDEST POP PUSH1 0x2A PUSH1 0x0 PUSH2 0x100 EXP DUP2 SLOAD DUP2 PUSH1 0x1 PUSH1 0x1 PUSH1 0xA0 SHL SUB MUL NOT AND SWAP1 DUP4 PUSH1 0x1 PUSH1 0x1 PUSH1 0xA0 SHL SUB AND MUL OR SWAP1 SSTORE POP PUSH3 0x805 PUSH12 0x2D9AE8EE2246267158800000 PUSH1 0x40 MLOAD DUP1 PUSH1 0x40 ADD PUSH1 0x40 MSTORE DUP1 PUSH1 0x19 DUP2 MSTORE PUSH1 0x20 ADD PUSH32 0x496E73756666696369656E7420546F74616C20537570706C7900000000000000 DUP2 MSTORE POP PUSH1 0x15 SLOAD PUSH3 0x864 PUSH1 0x20 SHL PUSH3 0x2F70 OR SWAP1 SWAP3 SWAP2 SWAP1 PUSH1 0x20 SHR JUMP JUMPDEST PUSH1 0x15 SSTORE PUSH3 0x9E5 JUMP JUMPDEST CALLER SWAP1 JUMP JUMPDEST PUSH1 0x5 DUP1 SLOAD PUSH1 0x1 PUSH1 0x1 PUSH1 0xA0 SHL SUB DUP4 DUP2 AND PUSH1 0x1 PUSH1 0x1 PUSH1 0xA0 SHL SUB NOT DUP4 AND DUP2 OR SWAP1 SWAP4 SSTORE PUSH1 0x40 MLOAD SWAP2 AND SWAP2 SWAP1 DUP3 SWAP1 PUSH32 0x8BE0079C531659141344CD1FD0A4F28419497F9722A3DAAFE3B4186F6B6457E0 SWAP1 PUSH1 0x0 SWAP1 LOG3 POP POP JUMP JUMPDEST PUSH1 0x0 DUP2 DUP5 DUP5 GT ISZERO PUSH3 0x894 JUMPI PUSH1 0x40 MLOAD PUSH3 0x461BCD PUSH1 0xE5 SHL DUP2 MSTORE PUSH1 0x4 ADD PUSH3 0x88B SWAP2 SWAP1 PUSH3 0x950 JUMP JUMPDEST PUSH1 0x40 MLOAD DUP1 SWAP2 SUB SWAP1 REVERT JUMPDEST POP POP POP SWAP1 SUB SWAP1 JUMP JUMPDEST DUP3 DUP1 SLOAD PUSH3 0x8AA SWAP1 PUSH3 0x9A8 JUMP JUMPDEST SWAP1 PUSH1 0x0 MSTORE PUSH1 0x20 PUSH1 0x0 KECCAK256 SWAP1 PUSH1 0x1F ADD PUSH1 0x20 SWAP1 DIV DUP2 ADD SWAP3 DUP3 PUSH3 0x8CE JUMPI PUSH1 0x0 DUP6 SSTORE PUSH3 0x919 JUMP JUMPDEST DUP3 PUSH1 0x1F LT PUSH3 0x8E9 JUMPI DUP1 MLOAD PUSH1 0xFF NOT AND DUP4 DUP1 ADD OR DUP6 SSTORE PUSH3 0x919 JUMP JUMPDEST DUP3 DUP1 ADD PUSH1 0x1 ADD DUP6 SSTORE DUP3 ISZERO PUSH3 0x919 JUMPI SWAP2 DUP3 ADD JUMPDEST DUP3 DUP2 GT ISZERO PUSH3 0x919 JUMPI DUP3 MLOAD DUP3 SSTORE SWAP2 PUSH1 0x20 ADD SWAP2 SWAP1 PUSH1 0x1 ADD SWAP1 PUSH3 0x8FC JUMP JUMPDEST POP PUSH3 0x927 SWAP3 SWAP2 POP PUSH3 0x939 JUMP JUMPDEST POP SWAP1 JUMP JUMPDEST PUSH2 0x506 DUP1 PUSH3 0x63EA DUP4 CODECOPY ADD SWAP1 JUMP JUMPDEST JUMPDEST DUP1 DUP3 GT ISZERO PUSH3 0x927 JUMPI PUSH1 0x0 DUP2 SSTORE PUSH1 0x1 ADD PUSH3 0x93A JUMP JUMPDEST PUSH1 0x0 PUSH1 0x20 DUP1 DUP4 MSTORE DUP4 MLOAD DUP1 DUP3 DUP6 ADD MSTORE PUSH1 0x0 JUMPDEST DUP2 DUP2 LT ISZERO PUSH3 0x97F JUMPI DUP6 DUP2 ADD DUP4 ADD MLOAD DUP6 DUP3 ADD PUSH1 0x40 ADD MSTORE DUP3 ADD PUSH3 0x961 JUMP JUMPDEST DUP2 DUP2 GT ISZERO PUSH3 0x992 JUMPI PUSH1 0x0 PUSH1 0x40 DUP4 DUP8 ADD ADD MSTORE JUMPDEST POP PUSH1 0x1F ADD PUSH1 0x1F NOT AND SWAP3 SWAP1 SWAP3 ADD PUSH1 0x40 ADD SWAP4 SWAP3 POP POP POP JUMP JUMPDEST PUSH1 0x1 DUP2 DUP2 SHR SWAP1 DUP3 AND DUP1 PUSH3 0x9BD JUMPI PUSH1 0x7F DUP3 AND SWAP2 POP JUMPDEST PUSH1 0x20 DUP3 LT DUP2 EQ ISZERO PUSH3 0x9DF JUMPI PUSH4 0x4E487B71 PUSH1 0xE0 SHL PUSH1 0x0 MSTORE PUSH1 0x22 PUSH1 0x4 MSTORE PUSH1 0x24 PUSH1 0x0 REVERT JUMPDEST POP SWAP2 SWAP1 POP JUMP JUMPDEST PUSH2 0x59F5 DUP1 PUSH3 0x9F5 PUSH1 0x0 CODECOPY PUSH1 0x0 RETURN INVALID PUSH1 0x80 PUSH1 0x40 MSTORE PUSH1 0x4 CALLDATASIZE LT PUSH2 0x484 JUMPI PUSH1 0x0 CALLDATALOAD PUSH1 0xE0 SHR DUP1 PUSH4 0x883D9984 GT PUSH2 0x25E JUMPI DUP1 PUSH4 0xA7771EE3 GT PUSH2 0x143 JUMPI DUP1 PUSH4 0xC680111C GT PUSH2 0xBB JUMPI DUP1 PUSH4 0xD94D4AD6 GT PUSH2 0x8A JUMPI DUP1 PUSH4 0xDD62ED3E GT PUSH2 0x6F JUMPI DUP1 PUSH4 0xDD62ED3E EQ PUSH2 0xCD8 JUMPI DUP1 PUSH4 0xF2FDE38B EQ PUSH2 0xD1E JUMPI DUP1 PUSH4 0xF3388E75 EQ PUSH2 0xD3E JUMPI PUSH2 0x494 JUMP JUMPDEST DUP1 PUSH4 0xD94D4AD6 EQ PUSH2 0xC98 JUMPI DUP1 PUSH4 0xD9DC2D8D EQ PUSH2 0xCB8 JUMPI PUSH2 0x494 JUMP JUMPDEST DUP1 PUSH4 0xC680111C EQ PUSH2 0xC2D JUMPI DUP1 PUSH4 0xCB79C2E1 EQ PUSH2 0xC4D JUMPI DUP1 PUSH4 0xCBB3E152 EQ PUSH2 0xC63 JUMPI DUP1 PUSH4 0xD5DBDF1B EQ PUSH2 0xC78 JUMPI PUSH2 0x494 JUMP JUMPDEST DUP1 PUSH4 0xB87DA76D GT PUSH2 0x112 JUMPI DUP1 PUSH4 0xBAD4346C GT PUSH2 0xF7 JUMPI DUP1 PUSH4 0xBAD4346C EQ PUSH2 0xBED JUMPI DUP1 PUSH4 0xBED9D861 EQ PUSH2 0xC03 JUMPI DUP1 PUSH4 0xC4DBA83B EQ PUSH2 0xC18 JUMPI PUSH2 0x494 JUMP JUMPDEST DUP1 PUSH4 0xB87DA76D EQ PUSH2 0xBB7 JUMPI DUP1 PUSH4 0xB8DD0099 EQ PUSH2 0xBCD JUMPI PUSH2 0x494 JUMP JUMPDEST DUP1 PUSH4 0xA7771EE3 EQ PUSH2 0xB42 JUMPI DUP1 PUSH4 0xA837A65E EQ PUSH2 0xB62 JUMPI DUP1 PUSH4 0xA9059CBB EQ PUSH2 0xB82 JUMPI DUP1 PUSH4 0xAC67574F EQ PUSH2 0xBA2 JUMPI PUSH2 0x494 JUMP JUMPDEST DUP1 PUSH4 0x95D89B41 GT PUSH2 0x1D6 JUMPI DUP1 PUSH4 0xA1F780CF GT PUSH2 0x1A5 JUMPI DUP1 PUSH4 0xA3626DBB GT PUSH2 0x18A JUMPI DUP1 PUSH4 0xA3626DBB EQ PUSH2 0xAD2 JUMPI DUP1 PUSH4 0xA3EC138D EQ PUSH2 0xAF2 JUMPI DUP1 PUSH4 0xA457C2D7 EQ PUSH2 0xB22 JUMPI PUSH2 0x494 JUMP JUMPDEST DUP1 PUSH4 0xA1F780CF EQ PUSH2 0xA92 JUMPI DUP1 PUSH4 0xA25A17A7 EQ PUSH2 0xAB2 JUMPI PUSH2 0x494 JUMP JUMPDEST DUP1 PUSH4 0x95D89B41 EQ PUSH2 0xA16 JUMPI DUP1 PUSH4 0xA071DCF4 EQ PUSH2 0xA2B JUMPI DUP1 PUSH4 0xA143A5F2 EQ PUSH2 0xA45 JUMPI DUP1 PUSH4 0xA169C515 EQ PUSH2 0xA72 JUMPI PUSH2 0x494 JUMP JUMPDEST DUP1 PUSH4 0x8C63F97F GT PUSH2 0x22D JUMPI DUP1 PUSH4 0x8DA5CB5B GT PUSH2 0x212 JUMPI DUP1 PUSH4 0x8DA5CB5B EQ PUSH2 0x9BA JUMPI DUP1 PUSH4 0x90A4C709 EQ PUSH2 0x9EC JUMPI DUP1 PUSH4 0x934851EC EQ PUSH2 0xA01 JUMPI PUSH2 0x494 JUMP JUMPDEST DUP1 PUSH4 0x8C63F97F EQ PUSH2 0x97A JUMPI DUP1 PUSH4 0x8D4A3C85 EQ PUSH2 0x99A JUMPI PUSH2 0x494 JUMP JUMPDEST DUP1 PUSH4 0x883D9984 EQ PUSH2 0x919 JUMPI DUP1 PUSH4 0x8891CF0D EQ PUSH2 0x92E JUMPI DUP1 PUSH4 0x8B2B423A EQ PUSH2 0x944 JUMPI DUP1 PUSH4 0x8B7C64DA EQ PUSH2 0x95A JUMPI PUSH2 0x494 JUMP JUMPDEST DUP1 PUSH4 0x40C10F19 GT PUSH2 0x384 JUMPI DUP1 PUSH4 0x63A599A4 GT PUSH2 0x2FC JUMPI DUP1 PUSH4 0x79CC6790 GT PUSH2 0x2CB JUMPI DUP1 PUSH4 0x7BB4E320 GT PUSH2 0x2B0 JUMPI DUP1 PUSH4 0x7BB4E320 EQ PUSH2 0x8DA JUMPI DUP1 PUSH4 0x7C2412F9 EQ PUSH2 0x8EF JUMPI DUP1 PUSH4 0x8378A875 EQ PUSH2 0x904 JUMPI PUSH2 0x494 JUMP JUMPDEST DUP1 PUSH4 0x79CC6790 EQ PUSH2 0x89A JUMPI DUP1 PUSH4 0x7B0472F0 EQ PUSH2 0x8BA JUMPI PUSH2 0x494 JUMP JUMPDEST DUP1 PUSH4 0x63A599A4 EQ PUSH2 0x81A JUMPI DUP1 PUSH4 0x70A08231 EQ PUSH2 0x83A JUMPI DUP1 PUSH4 0x715018A6 EQ PUSH2 0x870 JUMPI DUP1 PUSH4 0x78DC9315 EQ PUSH2 0x885 JUMPI PUSH2 0x494 JUMP JUMPDEST DUP1 PUSH4 0x549DEE0B GT PUSH2 0x353 JUMPI DUP1 PUSH4 0x5B88349D GT PUSH2 0x338 JUMPI DUP1 PUSH4 0x5B88349D EQ PUSH2 0x7DA JUMPI DUP1 PUSH4 0x5F5300FF EQ PUSH2 0x7EF JUMPI DUP1 PUSH4 0x632A9A52 EQ PUSH2 0x805 JUMPI PUSH2 0x494 JUMP JUMPDEST DUP1 PUSH4 0x549DEE0B EQ PUSH2 0x7AF JUMPI DUP1 PUSH4 0x56029137 EQ PUSH2 0x7C5 JUMPI PUSH2 0x494 JUMP JUMPDEST DUP1 PUSH4 0x40C10F19 EQ PUSH2 0x72F JUMPI DUP1 PUSH4 0x42966C68 EQ PUSH2 0x74F JUMPI DUP1 PUSH4 0x45DF0238 EQ PUSH2 0x76F JUMPI DUP1 PUSH4 0x471A30A2 EQ PUSH2 0x78F JUMPI PUSH2 0x494 JUMP JUMPDEST DUP1 PUSH4 0x15441BB9 GT PUSH2 0x417 JUMPI DUP1 PUSH4 0x2CF1A5FB GT PUSH2 0x3E6 JUMPI DUP1 PUSH4 0x338DBF59 GT PUSH2 0x3CB JUMPI DUP1 PUSH4 0x338DBF59 EQ PUSH2 0x6E4 JUMPI DUP1 PUSH4 0x39509351 EQ PUSH2 0x6FA JUMPI DUP1 PUSH4 0x3F3EF2DC EQ PUSH2 0x71A JUMPI PUSH2 0x494 JUMP JUMPDEST DUP1 PUSH4 0x2CF1A5FB EQ PUSH2 0x6A3 JUMPI DUP1 PUSH4 0x313CE567 EQ PUSH2 0x6C2 JUMPI PUSH2 0x494 JUMP JUMPDEST DUP1 PUSH4 0x15441BB9 EQ PUSH2 0x60F JUMPI DUP1 PUSH4 0x18160DDD EQ PUSH2 0x624 JUMPI DUP1 PUSH4 0x19CA147D EQ PUSH2 0x639 JUMPI DUP1 PUSH4 0x23B872DD EQ PUSH2 0x683 JUMPI PUSH2 0x494 JUMP JUMPDEST DUP1 PUSH4 0x95EA7B3 GT PUSH2 0x453 JUMPI DUP1 PUSH4 0x95EA7B3 EQ PUSH2 0x51D JUMPI DUP1 PUSH4 0xE1B09ED EQ PUSH2 0x54D JUMPI DUP1 PUSH4 0xEC5AA1A EQ PUSH2 0x56D JUMPI DUP1 PUSH4 0x10486B6A EQ PUSH2 0x582 JUMPI PUSH2 0x494 JUMP JUMPDEST DUP1 PUSH4 0x42249BB EQ PUSH2 0x49D JUMPI DUP1 PUSH4 0x6FDDE03 EQ PUSH2 0x4C6 JUMPI DUP1 PUSH4 0x70C8B74 EQ PUSH2 0x4E8 JUMPI DUP1 PUSH4 0x78F522F EQ PUSH2 0x4FD JUMPI PUSH2 0x494 JUMP JUMPDEST CALLDATASIZE PUSH2 0x494 JUMPI PUSH2 0x492 CALLVALUE PUSH2 0xD5E JUMP JUMPDEST STOP JUMPDEST PUSH2 0x492 CALLVALUE PUSH2 0xD5E JUMP JUMPDEST CALLVALUE DUP1 ISZERO PUSH2 0x4A9 JUMPI PUSH1 0x0 DUP1 REVERT JUMPDEST POP PUSH2 0x4B3 PUSH1 0x19 SLOAD DUP2 JUMP JUMPDEST PUSH1 0x40 MLOAD SWAP1 DUP2 MSTORE PUSH1 0x20 ADD JUMPDEST PUSH1 0x40 MLOAD DUP1 SWAP2 SUB SWAP1 RETURN JUMPDEST CALLVALUE DUP1 ISZERO PUSH2 0x4D2 JUMPI PUSH1 0x0 DUP1 REVERT JUMPDEST POP PUSH2 0x4DB PUSH2 0xED0 JUMP JUMPDEST PUSH1 0x40 MLOAD PUSH2 0x4BD SWAP2 SWAP1 PUSH2 0x54F5 JUMP JUMPDEST CALLVALUE DUP1 ISZERO PUSH2 0x4F4 JUMPI PUSH1 0x0 DUP1 REVERT JUMPDEST POP PUSH2 0x492 PUSH2 0xF62 JUMP JUMPDEST CALLVALUE DUP1 ISZERO PUSH2 0x509 JUMPI PUSH1 0x0 DUP1 REVERT JUMPDEST POP PUSH2 0x492 PUSH2 0x518 CALLDATASIZE PUSH1 0x4 PUSH2 0x554A JUMP JUMPDEST PUSH2 0x1071 JUMP JUMPDEST CALLVALUE DUP1 ISZERO PUSH2 0x529 JUMPI PUSH1 0x0 DUP1 REVERT JUMPDEST POP PUSH2 0x53D PUSH2 0x538 CALLDATASIZE PUSH1 0x4 PUSH2 0x55D4 JUMP JUMPDEST PUSH2 0x11D9 JUMP JUMPDEST PUSH1 0x40 MLOAD SWAP1 ISZERO ISZERO DUP2 MSTORE PUSH1 0x20 ADD PUSH2 0x4BD JUMP JUMPDEST CALLVALUE DUP1 ISZERO PUSH2 0x559 JUMPI PUSH1 0x0 DUP1 REVERT JUMPDEST POP PUSH2 0x492 PUSH2 0x568 CALLDATASIZE PUSH1 0x4 PUSH2 0x5600 JUMP JUMPDEST PUSH2 0x11F1 JUMP JUMPDEST CALLVALUE DUP1 ISZERO PUSH2 0x579 JUMPI PUSH1 0x0 DUP1 REVERT JUMPDEST POP PUSH2 0x492 PUSH2 0x1295 JUMP JUMPDEST CALLVALUE DUP1 ISZERO PUSH2 0x58E JUMPI PUSH1 0x0 DUP1 REVERT JUMPDEST POP PUSH2 0x597 PUSH2 0x13D8 JUMP JUMPDEST PUSH1 0x40 MLOAD PUSH2 0x4BD SWAP2 SWAP1 PUSH1 0x0 PUSH2 0x120 DUP3 ADD SWAP1 POP DUP3 MLOAD DUP3 MSTORE PUSH1 0x20 DUP4 ADD MLOAD PUSH1 0x20 DUP4 ADD MSTORE PUSH1 0x40 DUP4 ADD MLOAD PUSH1 0x1 PUSH1 0x1 PUSH1 0xA0 SHL SUB DUP2 MLOAD AND PUSH1 0x40 DUP5 ADD MSTORE PUSH1 0x20 DUP2 ADD MLOAD PUSH1 0x60 DUP5 ADD MSTORE PUSH1 0x40 DUP2 ADD MLOAD PUSH1 0x80 DUP5 ADD MSTORE PUSH1 0x60 DUP2 ADD MLOAD PUSH1 0xA0 DUP5 ADD MSTORE PUSH1 0x80 DUP2 ADD MLOAD PUSH1 0xC0 DUP5 ADD MSTORE PUSH1 0xA0 DUP2 ADD MLOAD PUSH1 0xE0 DUP5 ADD MSTORE PUSH1 0xC0 DUP2 ADD MLOAD PUSH2 0x100 DUP5 ADD MSTORE POP SWAP3 SWAP2 POP POP JUMP JUMPDEST CALLVALUE DUP1 ISZERO PUSH2 0x61B JUMPI PUSH1 0x0 DUP1 REVERT JUMPDEST POP PUSH2 0x492 PUSH2 0x153F JUMP JUMPDEST CALLVALUE DUP1 ISZERO PUSH2 0x630 JUMPI PUSH1 0x0 DUP1 REVERT JUMPDEST POP PUSH1 0x15 SLOAD PUSH2 0x4B3 JUMP JUMPDEST CALLVALUE DUP1 ISZERO PUSH2 0x645 JUMPI PUSH1 0x0 DUP1 REVERT JUMPDEST POP PUSH2 0x64E PUSH2 0x15E3 JUMP JUMPDEST PUSH1 0x40 MLOAD PUSH2 0x4BD SWAP2 SWAP1 DUP2 MLOAD DUP2 MSTORE PUSH1 0x20 DUP1 DUP4 ADD MLOAD SWAP1 DUP3 ADD MSTORE PUSH1 0x40 DUP1 DUP4 ADD MLOAD ISZERO ISZERO SWAP1 DUP3 ADD MSTORE PUSH1 0x60 SWAP2 DUP3 ADD MLOAD SWAP2 DUP2 ADD SWAP2 SWAP1 SWAP2 MSTORE PUSH1 0x80 ADD SWAP1 JUMP JUMPDEST CALLVALUE DUP1 ISZERO PUSH2 0x68F JUMPI PUSH1 0x0 DUP1 REVERT JUMPDEST POP PUSH2 0x53D PUSH2 0x69E CALLDATASIZE PUSH1 0x4 PUSH2 0x5619 JUMP JUMPDEST PUSH2 0x165B JUMP JUMPDEST CALLVALUE DUP1 ISZERO PUSH2 0x6AF JUMPI PUSH1 0x0 DUP1 REVERT JUMPDEST POP PUSH1 0x1B SLOAD PUSH2 0x53D SWAP1 PUSH2 0x100 SWAP1 DIV PUSH1 0xFF AND DUP2 JUMP JUMPDEST CALLVALUE DUP1 ISZERO PUSH2 0x6CE JUMPI PUSH1 0x0 DUP1 REVERT JUMPDEST POP PUSH1 0x12 JUMPDEST PUSH1 0x40 MLOAD PUSH1 0xFF SWAP1 SWAP2 AND DUP2 MSTORE PUSH1 0x20 ADD PUSH2 0x4BD JUMP JUMPDEST CALLVALUE DUP1 ISZERO PUSH2 0x6F0 JUMPI PUSH1 0x0 DUP1 REVERT JUMPDEST POP PUSH2 0x4B3 PUSH1 0x11 SLOAD DUP2 JUMP JUMPDEST CALLVALUE DUP1 ISZERO PUSH2 0x706 JUMPI PUSH1 0x0 DUP1 REVERT JUMPDEST POP PUSH2 0x53D PUSH2 0x715 CALLDATASIZE PUSH1 0x4 PUSH2 0x55D4 JUMP JUMPDEST PUSH2 0x167F JUMP JUMPDEST CALLVALUE DUP1 ISZERO PUSH2 0x726 JUMPI PUSH1 0x0 DUP1 REVERT JUMPDEST POP PUSH2 0x492 PUSH2 0x16BE JUMP JUMPDEST CALLVALUE DUP1 ISZERO PUSH2 0x73B JUMPI PUSH1 0x0 DUP1 REVERT JUMPDEST POP PUSH2 0x492 PUSH2 0x74A CALLDATASIZE PUSH1 0x4 PUSH2 0x55D4 JUMP JUMPDEST PUSH2 0x1762 JUMP JUMPDEST CALLVALUE DUP1 ISZERO PUSH2 0x75B JUMPI PUSH1 0x0 DUP1 REVERT JUMPDEST POP PUSH2 0x492 PUSH2 0x76A CALLDATASIZE PUSH1 0x4 PUSH2 0x5600 JUMP JUMPDEST PUSH2 0x17B8 JUMP JUMPDEST CALLVALUE DUP1 ISZERO PUSH2 0x77B JUMPI PUSH1 0x0 DUP1 REVERT JUMPDEST POP PUSH2 0x492 PUSH2 0x78A CALLDATASIZE PUSH1 0x4 PUSH2 0x565A JUMP JUMPDEST PUSH2 0x17C5 JUMP JUMPDEST CALLVALUE DUP1 ISZERO PUSH2 0x79B JUMPI PUSH1 0x0 DUP1 REVERT JUMPDEST POP PUSH2 0x492 PUSH2 0x7AA CALLDATASIZE PUSH1 0x4 PUSH2 0x56A5 JUMP JUMPDEST PUSH2 0x1884 JUMP JUMPDEST CALLVALUE DUP1 ISZERO PUSH2 0x7BB JUMPI PUSH1 0x0 DUP1 REVERT JUMPDEST POP PUSH2 0x4B3 PUSH1 0xF SLOAD DUP2 JUMP JUMPDEST CALLVALUE DUP1 ISZERO PUSH2 0x7D1 JUMPI PUSH1 0x0 DUP1 REVERT JUMPDEST POP PUSH2 0x492 PUSH2 0x196A JUMP JUMPDEST CALLVALUE DUP1 ISZERO PUSH2 0x7E6 JUMPI PUSH1 0x0 DUP1 REVERT JUMPDEST POP PUSH2 0x492 PUSH2 0x1A0E JUMP JUMPDEST CALLVALUE DUP1 ISZERO PUSH2 0x7FB JUMPI PUSH1 0x0 DUP1 REVERT JUMPDEST POP PUSH2 0x4B3 PUSH1 0xB SLOAD DUP2 JUMP JUMPDEST CALLVALUE DUP1 ISZERO PUSH2 0x811 JUMPI PUSH1 0x0 DUP1 REVERT JUMPDEST POP PUSH2 0x492 PUSH2 0x1ACF JUMP JUMPDEST CALLVALUE DUP1 ISZERO PUSH2 0x826 JUMPI PUSH1 0x0 DUP1 REVERT JUMPDEST POP PUSH2 0x492 PUSH2 0x835 CALLDATASIZE PUSH1 0x4 PUSH2 0x5600 JUMP JUMPDEST PUSH2 0x1BF2 JUMP JUMPDEST CALLVALUE DUP1 ISZERO PUSH2 0x846 JUMPI PUSH1 0x0 DUP1 REVERT JUMPDEST POP PUSH2 0x4B3 PUSH2 0x855 CALLDATASIZE PUSH1 0x4 PUSH2 0x56C8 JUMP JUMPDEST PUSH1 0x1 PUSH1 0x1 PUSH1 0xA0 SHL SUB AND PUSH1 0x0 SWAP1 DUP2 MSTORE PUSH1 0x13 PUSH1 0x20 MSTORE PUSH1 0x40 SWAP1 KECCAK256 SLOAD SWAP1 JUMP JUMPDEST CALLVALUE DUP1 ISZERO PUSH2 0x87C JUMPI PUSH1 0x0 DUP1 REVERT JUMPDEST POP PUSH2 0x492 PUSH2 0x1C39 JUMP JUMPDEST CALLVALUE DUP1 ISZERO PUSH2 0x891 JUMPI PUSH1 0x0 DUP1 REVERT JUMPDEST POP PUSH2 0x492 PUSH2 0x1C8D JUMP JUMPDEST CALLVALUE DUP1 ISZERO PUSH2 0x8A6 JUMPI PUSH1 0x0 DUP1 REVERT JUMPDEST POP PUSH2 0x492 PUSH2 0x8B5 CALLDATASIZE PUSH1 0x4 PUSH2 0x55D4 JUMP JUMPDEST PUSH2 0x1D31 JUMP JUMPDEST CALLVALUE DUP1 ISZERO PUSH2 0x8C6 JUMPI PUSH1 0x0 DUP1 REVERT JUMPDEST POP PUSH2 0x492 PUSH2 0x8D5 CALLDATASIZE PUSH1 0x4 PUSH2 0x56E5 JUMP JUMPDEST PUSH2 0x1D46 JUMP JUMPDEST CALLVALUE DUP1 ISZERO PUSH2 0x8E6 JUMPI PUSH1 0x0 DUP1 REVERT JUMPDEST POP PUSH2 0x492 PUSH2 0x1E0A JUMP JUMPDEST CALLVALUE DUP1 ISZERO PUSH2 0x8FB JUMPI PUSH1 0x0 DUP1 REVERT JUMPDEST POP PUSH2 0x492 PUSH2 0x1EAE JUMP JUMPDEST CALLVALUE DUP1 ISZERO PUSH2 0x910 JUMPI PUSH1 0x0 DUP1 REVERT JUMPDEST POP PUSH2 0x492 PUSH2 0x1EDE JUMP JUMPDEST CALLVALUE DUP1 ISZERO PUSH2 0x925 JUMPI PUSH1 0x0 DUP1 REVERT JUMPDEST POP PUSH2 0x492 PUSH2 0x1F82 JUMP JUMPDEST CALLVALUE DUP1 ISZERO PUSH2 0x93A JUMPI PUSH1 0x0 DUP1 REVERT JUMPDEST POP PUSH2 0x4B3 PUSH1 0x7 SLOAD DUP2 JUMP JUMPDEST CALLVALUE DUP1 ISZERO PUSH2 0x950 JUMPI PUSH1 0x0 DUP1 REVERT JUMPDEST POP PUSH2 0x4B3 PUSH1 0x10 SLOAD DUP2 JUMP JUMPDEST CALLVALUE DUP1 ISZERO PUSH2 0x966 JUMPI PUSH1 0x0 DUP1 REVERT JUMPDEST POP PUSH2 0x492 PUSH2 0x975 CALLDATASIZE PUSH1 0x4 PUSH2 0x5600 JUMP JUMPDEST PUSH2 0x2026 JUMP JUMPDEST CALLVALUE DUP1 ISZERO PUSH2 0x986 JUMPI PUSH1 0x0 DUP1 REVERT JUMPDEST POP PUSH2 0x492 PUSH2 0x995 CALLDATASIZE PUSH1 0x4 PUSH2 0x5600 JUMP JUMPDEST PUSH2 0x20DD JUMP JUMPDEST CALLVALUE DUP1 ISZERO PUSH2 0x9A6 JUMPI PUSH1 0x0 DUP1 REVERT JUMPDEST POP PUSH2 0x492 PUSH2 0x9B5 CALLDATASIZE PUSH1 0x4 PUSH2 0x55D4 JUMP JUMPDEST PUSH2 0x2160 JUMP JUMPDEST CALLVALUE DUP1 ISZERO PUSH2 0x9C6 JUMPI PUSH1 0x0 DUP1 REVERT JUMPDEST POP PUSH1 0x5 SLOAD PUSH1 0x1 PUSH1 0x1 PUSH1 0xA0 SHL SUB AND JUMPDEST PUSH1 0x40 MLOAD PUSH1 0x1 PUSH1 0x1 PUSH1 0xA0 SHL SUB SWAP1 SWAP2 AND DUP2 MSTORE PUSH1 0x20 ADD PUSH2 0x4BD JUMP JUMPDEST CALLVALUE DUP1 ISZERO PUSH2 0x9F8 JUMPI PUSH1 0x0 DUP1 REVERT JUMPDEST POP PUSH2 0x492 PUSH2 0x225A JUMP JUMPDEST CALLVALUE DUP1 ISZERO PUSH2 0xA0D JUMPI PUSH1 0x0 DUP1 REVERT JUMPDEST POP PUSH2 0x492 PUSH2 0x22FE JUMP JUMPDEST CALLVALUE DUP1 ISZERO PUSH2 0xA22 JUMPI PUSH1 0x0 DUP1 REVERT JUMPDEST POP PUSH2 0x4DB PUSH2 0x23A2 JUMP JUMPDEST CALLVALUE DUP1 ISZERO PUSH2 0xA37 JUMPI PUSH1 0x0 DUP1 REVERT JUMPDEST POP PUSH1 0x1B SLOAD PUSH2 0x6D2 SWAP1 PUSH1 0xFF AND DUP2 JUMP JUMPDEST CALLVALUE DUP1 ISZERO PUSH2 0xA51 JUMPI PUSH1 0x0 DUP1 REVERT JUMPDEST POP PUSH2 0x4B3 PUSH2 0xA60 CALLDATASIZE PUSH1 0x4 PUSH2 0x5600 JUMP JUMPDEST PUSH1 0xD PUSH1 0x20 MSTORE PUSH1 0x0 SWAP1 DUP2 MSTORE PUSH1 0x40 SWAP1 KECCAK256 SLOAD DUP2 JUMP JUMPDEST CALLVALUE DUP1 ISZERO PUSH2 0xA7E JUMPI PUSH1 0x0 DUP1 REVERT JUMPDEST POP PUSH2 0x492 PUSH2 0xA8D CALLDATASIZE PUSH1 0x4 PUSH2 0x5600 JUMP JUMPDEST PUSH2 0x23B1 JUMP JUMPDEST CALLVALUE DUP1 ISZERO PUSH2 0xA9E JUMPI PUSH1 0x0 DUP1 REVERT JUMPDEST POP PUSH2 0x492 PUSH2 0xAAD CALLDATASIZE PUSH1 0x4 PUSH2 0x5707 JUMP JUMPDEST PUSH2 0x2402 JUMP JUMPDEST CALLVALUE DUP1 ISZERO PUSH2 0xABE JUMPI PUSH1 0x0 DUP1 REVERT JUMPDEST POP PUSH2 0x492 PUSH2 0xACD CALLDATASIZE PUSH1 0x4 PUSH2 0x56C8 JUMP JUMPDEST PUSH2 0x251E JUMP JUMPDEST CALLVALUE DUP1 ISZERO PUSH2 0xADE JUMPI PUSH1 0x0 DUP1 REVERT JUMPDEST POP PUSH1 0x1F SLOAD PUSH2 0x9D4 SWAP1 PUSH1 0x1 PUSH1 0x1 PUSH1 0xA0 SHL SUB AND DUP2 JUMP JUMPDEST CALLVALUE DUP1 ISZERO PUSH2 0xAFE JUMPI PUSH1 0x0 DUP1 REVERT JUMPDEST POP PUSH2 0x53D PUSH2 0xB0D CALLDATASIZE PUSH1 0x4 PUSH2 0x56C8 JUMP JUMPDEST PUSH1 0xC PUSH1 0x20 MSTORE PUSH1 0x0 SWAP1 DUP2 MSTORE PUSH1 0x40 SWAP1 KECCAK256 SLOAD PUSH1 0xFF AND DUP2 JUMP JUMPDEST CALLVALUE DUP1 ISZERO PUSH2 0xB2E JUMPI PUSH1 0x0 DUP1 REVERT JUMPDEST POP PUSH2 0x53D PUSH2 0xB3D CALLDATASIZE PUSH1 0x4 PUSH2 0x55D4 JUMP JUMPDEST PUSH2 0x25B0 JUMP JUMPDEST CALLVALUE DUP1 ISZERO PUSH2 0xB4E JUMPI PUSH1 0x0 DUP1 REVERT JUMPDEST POP PUSH2 0x53D PUSH2 0xB5D CALLDATASIZE PUSH1 0x4 PUSH2 0x56C8 JUMP JUMPDEST PUSH2 0x265A JUMP JUMPDEST CALLVALUE DUP1 ISZERO PUSH2 0xB6E JUMPI PUSH1 0x0 DUP1 REVERT JUMPDEST POP PUSH1 0x1D SLOAD PUSH2 0x9D4 SWAP1 PUSH1 0x1 PUSH1 0x1 PUSH1 0xA0 SHL SUB AND DUP2 JUMP JUMPDEST CALLVALUE DUP1 ISZERO PUSH2 0xB8E JUMPI PUSH1 0x0 DUP1 REVERT JUMPDEST POP PUSH2 0x53D PUSH2 0xB9D CALLDATASIZE PUSH1 0x4 PUSH2 0x55D4 JUMP JUMPDEST PUSH2 0x26D1 JUMP JUMPDEST CALLVALUE DUP1 ISZERO PUSH2 0xBAE JUMPI PUSH1 0x0 DUP1 REVERT JUMPDEST POP PUSH2 0x492 PUSH2 0x26DF JUMP JUMPDEST CALLVALUE DUP1 ISZERO PUSH2 0xBC3 JUMPI PUSH1 0x0 DUP1 REVERT JUMPDEST POP PUSH2 0x4B3 PUSH1 0x8 SLOAD DUP2 JUMP JUMPDEST CALLVALUE DUP1 ISZERO PUSH2 0xBD9 JUMPI PUSH1 0x0 DUP1 REVERT JUMPDEST POP PUSH1 0x1B SLOAD PUSH2 0x53D SWAP1 PUSH3 0x10000 SWAP1 DIV PUSH1 0xFF AND DUP2 JUMP JUMPDEST CALLVALUE DUP1 ISZERO PUSH2 0xBF9 JUMPI PUSH1 0x0 DUP1 REVERT JUMPDEST POP PUSH2 0x4B3 PUSH1 0x1A SLOAD DUP2 JUMP JUMPDEST CALLVALUE DUP1 ISZERO PUSH2 0xC0F JUMPI PUSH1 0x0 DUP1 REVERT JUMPDEST POP PUSH2 0x492 PUSH2 0x2C7C JUMP JUMPDEST CALLVALUE DUP1 ISZERO PUSH2 0xC24 JUMPI PUSH1 0x0 DUP1 REVERT JUMPDEST POP PUSH2 0x492 PUSH2 0x2CE6 JUMP JUMPDEST CALLVALUE DUP1 ISZERO PUSH2 0xC39 JUMPI PUSH1 0x0 DUP1 REVERT JUMPDEST POP PUSH1 0x1E SLOAD PUSH2 0x9D4 SWAP1 PUSH1 0x1 PUSH1 0x1 PUSH1 0xA0 SHL SUB AND DUP2 JUMP JUMPDEST CALLVALUE DUP1 ISZERO PUSH2 0xC59 JUMPI PUSH1 0x0 DUP1 REVERT JUMPDEST POP PUSH2 0x4B3 PUSH1 0x6 SLOAD DUP2 JUMP JUMPDEST CALLVALUE DUP1 ISZERO PUSH2 0xC6F JUMPI PUSH1 0x0 DUP1 REVERT JUMPDEST POP PUSH2 0x4B3 PUSH2 0x2D36 JUMP JUMPDEST CALLVALUE DUP1 ISZERO PUSH2 0xC84 JUMPI PUSH1 0x0 DUP1 REVERT JUMPDEST POP PUSH2 0x492 PUSH2 0xC93 CALLDATASIZE PUSH1 0x4 PUSH2 0x5600 JUMP JUMPDEST PUSH2 0x2D69 JUMP JUMPDEST CALLVALUE DUP1 ISZERO PUSH2 0xCA4 JUMPI PUSH1 0x0 DUP1 REVERT JUMPDEST POP PUSH2 0x492 PUSH2 0xCB3 CALLDATASIZE PUSH1 0x4 PUSH2 0x5600 JUMP JUMPDEST PUSH2 0x2DEC JUMP JUMPDEST CALLVALUE DUP1 ISZERO PUSH2 0xCC4 JUMPI PUSH1 0x0 DUP1 REVERT JUMPDEST POP PUSH1 0x20 SLOAD PUSH2 0x9D4 SWAP1 PUSH1 0x1 PUSH1 0x1 PUSH1 0xA0 SHL SUB AND DUP2 JUMP JUMPDEST CALLVALUE DUP1 ISZERO PUSH2 0xCE4 JUMPI PUSH1 0x0 DUP1 REVERT JUMPDEST POP PUSH2 0x4B3 PUSH2 0xCF3 CALLDATASIZE PUSH1 0x4 PUSH2 0x576A JUMP JUMPDEST PUSH1 0x1 PUSH1 0x1 PUSH1 0xA0 SHL SUB SWAP2 DUP3 AND PUSH1 0x0 SWAP1 DUP2 MSTORE PUSH1 0x14 PUSH1 0x20 SWAP1 DUP2 MSTORE PUSH1 0x40 DUP1 DUP4 KECCAK256 SWAP4 SWAP1 SWAP5 AND DUP3 MSTORE SWAP2 SWAP1 SWAP2 MSTORE KECCAK256 SLOAD SWAP1 JUMP JUMPDEST CALLVALUE DUP1 ISZERO PUSH2 0xD2A JUMPI PUSH1 0x0 DUP1 REVERT JUMPDEST POP PUSH2 0x492 PUSH2 0xD39 CALLDATASIZE PUSH1 0x4 PUSH2 0x56C8 JUMP JUMPDEST PUSH2 0x2EA3 JUMP JUMPDEST CALLVALUE DUP1 ISZERO PUSH2 0xD4A JUMPI PUSH1 0x0 DUP1 REVERT JUMPDEST POP PUSH1 0x1C SLOAD PUSH2 0x9D4 SWAP1 PUSH1 0x1 PUSH1 0x1 PUSH1 0xA0 SHL SUB AND DUP2 JUMP JUMPDEST PUSH1 0x0 PUSH2 0xD6B DUP3 PUSH1 0x3 PUSH2 0x2F9C JUMP JUMPDEST PUSH20 0xE61E7A7D16DB384433E532FB85724E7F3BDAAE2F PUSH1 0x0 MSTORE PUSH1 0x13 PUSH1 0x20 MSTORE PUSH32 0xAC3F991B0BCFBE5A49CB8F28AA381129B92FDF4ED0797BB0B28F2D4F8472E52F SLOAD SWAP1 SWAP2 POP PUSH2 0xDB7 SWAP1 DUP3 PUSH2 0x2FAF JUMP JUMPDEST PUSH1 0x13 PUSH1 0x20 MSTORE PUSH32 0xAC3F991B0BCFBE5A49CB8F28AA381129B92FDF4ED0797BB0B28F2D4F8472E52F SSTORE PUSH20 0x406605EB24A97A2D61B516D8D850F2AEFA6A731A PUSH1 0x0 MSTORE PUSH32 0x8A2B6C18ED66322C8ECB6F6EEF8AF1341BAB377E298D1A97668035E55C3FB987 SLOAD PUSH2 0xE22 SWAP1 DUP3 PUSH2 0x2FAF JUMP JUMPDEST PUSH1 0x13 PUSH1 0x20 MSTORE PUSH32 0x8A2B6C18ED66322C8ECB6F6EEF8AF1341BAB377E298D1A97668035E55C3FB987 SSTORE PUSH20 0x97620DEADC98BC8173303686037CE7B986CF53C3 PUSH1 0x0 MSTORE PUSH32 0x192F1AC10B1314D35BBC8FCF3F0D2F253C4710988114BAEC9C0AB6A710BE3EC7 SLOAD PUSH2 0xE8D SWAP1 DUP3 PUSH2 0x2FAF JUMP JUMPDEST PUSH20 0x97620DEADC98BC8173303686037CE7B986CF53C3 PUSH1 0x0 MSTORE PUSH1 0x13 PUSH1 0x20 MSTORE PUSH32 0x192F1AC10B1314D35BBC8FCF3F0D2F253C4710988114BAEC9C0AB6A710BE3EC7 SSTORE POP POP JUMP JUMPDEST PUSH1 0x60 PUSH1 0x16 DUP1 SLOAD PUSH2 0xEDF SWAP1 PUSH2 0x57A3 JUMP JUMPDEST DUP1 PUSH1 0x1F ADD PUSH1 0x20 DUP1 SWAP2 DIV MUL PUSH1 0x20 ADD PUSH1 0x40 MLOAD SWAP1 DUP2 ADD PUSH1 0x40 MSTORE DUP1 SWAP3 SWAP2 SWAP1 DUP2 DUP2 MSTORE PUSH1 0x20 ADD DUP3 DUP1 SLOAD PUSH2 0xF0B SWAP1 PUSH2 0x57A3 JUMP JUMPDEST DUP1 ISZERO PUSH2 0xF58 JUMPI DUP1 PUSH1 0x1F LT PUSH2 0xF2D JUMPI PUSH2 0x100 DUP1 DUP4 SLOAD DIV MUL DUP4 MSTORE SWAP2 PUSH1 0x20 ADD SWAP2 PUSH2 0xF58 JUMP JUMPDEST DUP3 ADD SWAP2 SWAP1 PUSH1 0x0 MSTORE PUSH1 0x20 PUSH1 0x0 KECCAK256 SWAP1 JUMPDEST DUP2 SLOAD DUP2 MSTORE SWAP1 PUSH1 0x1 ADD SWAP1 PUSH1 0x20 ADD DUP1 DUP4 GT PUSH2 0xF3B JUMPI DUP3 SWAP1 SUB PUSH1 0x1F AND DUP3 ADD SWAP2 JUMPDEST POP POP POP POP POP SWAP1 POP SWAP1 JUMP JUMPDEST PUSH2 0xF6A PUSH2 0x2FBB JUMP JUMPDEST CALLER PUSH1 0x0 SWAP1 DUP2 MSTORE PUSH1 0xC PUSH1 0x20 MSTORE PUSH1 0x40 SWAP1 KECCAK256 SLOAD PUSH1 0xFF AND ISZERO ISZERO PUSH1 0x1 EQ PUSH2 0xFD3 JUMPI PUSH1 0x40 MLOAD PUSH3 0x461BCD PUSH1 0xE5 SHL DUP2 MSTORE PUSH1 0x20 PUSH1 0x4 DUP3 ADD MSTORE PUSH1 0x13 PUSH1 0x24 DUP3 ADD MSTORE PUSH32 0x596F7520617265206E6F74206120766F74657200000000000000000000000000 PUSH1 0x44 DUP3 ADD MSTORE PUSH1 0x64 ADD JUMPDEST PUSH1 0x40 MLOAD DUP1 SWAP2 SUB SWAP1 REVERT JUMPDEST CALLER PUSH1 0x0 SWAP1 DUP2 MSTORE PUSH1 0xC PUSH1 0x20 SWAP1 DUP2 MSTORE PUSH1 0x40 DUP1 DUP4 KECCAK256 PUSH1 0xA SLOAD DUP5 MSTORE PUSH1 0x1 SWAP1 DUP2 ADD SWAP1 SWAP3 MSTORE SWAP1 SWAP2 KECCAK256 SLOAD PUSH1 0xFF AND ISZERO ISZERO EQ PUSH2 0x1048 JUMPI PUSH1 0x40 MLOAD PUSH3 0x461BCD PUSH1 0xE5 SHL DUP2 MSTORE PUSH1 0x20 PUSH1 0x4 DUP3 ADD MSTORE PUSH1 0x16 PUSH1 0x24 DUP3 ADD MSTORE PUSH32 0x596F752068617665206E6F7420766F7465642079657400000000000000000000 PUSH1 0x44 DUP3 ADD MSTORE PUSH1 0x64 ADD PUSH2 0xFCA JUMP JUMPDEST PUSH1 0xA SLOAD PUSH1 0x0 SWAP1 DUP2 MSTORE PUSH1 0xD PUSH1 0x20 MSTORE PUSH1 0x40 DUP2 KECCAK256 DUP1 SLOAD PUSH1 0x1 SWAP3 SWAP1 PUSH2 0x106A SWAP1 DUP5 SWAP1 PUSH2 0x57F4 JUMP JUMPDEST SWAP1 SWAP2 SSTORE POP POP JUMP JUMPDEST PUSH1 0x5 SLOAD PUSH1 0x1 PUSH1 0x1 PUSH1 0xA0 SHL SUB AND CALLER EQ PUSH2 0x10B9 JUMPI PUSH1 0x40 MLOAD PUSH3 0x461BCD PUSH1 0xE5 SHL DUP2 MSTORE PUSH1 0x20 PUSH1 0x4 DUP3 ADD DUP2 SWAP1 MSTORE PUSH1 0x24 DUP3 ADD MSTORE PUSH1 0x0 DUP1 MLOAD PUSH1 0x20 PUSH2 0x59A0 DUP4 CODECOPY DUP2 MLOAD SWAP2 MSTORE PUSH1 0x44 DUP3 ADD MSTORE PUSH1 0x64 ADD PUSH2 0xFCA JUMP JUMPDEST PUSH2 0x10C1 PUSH2 0x300D JUMP JUMPDEST DUP1 PUSH2 0x110E JUMPI PUSH1 0x40 MLOAD PUSH3 0x461BCD PUSH1 0xE5 SHL DUP2 MSTORE PUSH1 0x20 PUSH1 0x4 DUP3 ADD MSTORE PUSH1 0xE PUSH1 0x24 DUP3 ADD MSTORE PUSH32 0x4E6F7468696E6720746F20616464000000000000000000000000000000000000 PUSH1 0x44 DUP3 ADD MSTORE PUSH1 0x64 ADD PUSH2 0xFCA JUMP JUMPDEST PUSH1 0x0 JUMPDEST DUP2 DUP2 LT ISZERO PUSH2 0x1191 JUMPI PUSH2 0x113D DUP4 DUP4 DUP4 DUP2 DUP2 LT PUSH2 0x112E JUMPI PUSH2 0x112E PUSH2 0x580B JUMP JUMPDEST SWAP1 POP PUSH1 0x40 MUL ADD PUSH1 0x20 ADD CALLDATALOAD PUSH2 0x306A JUMP JUMPDEST PUSH2 0x1189 DUP4 DUP4 DUP4 DUP2 DUP2 LT PUSH2 0x1152 JUMPI PUSH2 0x1152 PUSH2 0x580B JUMP JUMPDEST PUSH2 0x1168 SWAP3 PUSH1 0x20 PUSH1 0x40 SWAP1 SWAP3 MUL ADD SWAP1 DUP2 ADD SWAP2 POP PUSH2 0x56C8 JUMP JUMPDEST DUP5 DUP5 DUP5 DUP2 DUP2 LT PUSH2 0x117A JUMPI PUSH2 0x117A PUSH2 0x580B JUMP JUMPDEST SWAP1 POP PUSH1 0x40 MUL ADD PUSH1 0x20 ADD CALLDATALOAD PUSH2 0x30BF JUMP JUMPDEST PUSH1 0x1 ADD PUSH2 0x1111 JUMP JUMPDEST POP CALLER PUSH1 0x1 PUSH1 0x1 PUSH1 0xA0 SHL SUB AND PUSH32 0xA3AC771EF05882E507467C1324069747D28D62938523056FD1BDD1168FE6144A DUP4 DUP4 PUSH1 0x40 MLOAD PUSH2 0x11CD SWAP3 SWAP2 SWAP1 PUSH2 0x5821 JUMP JUMPDEST PUSH1 0x40 MLOAD DUP1 SWAP2 SUB SWAP1 LOG2 POP POP JUMP JUMPDEST PUSH1 0x0 CALLER PUSH2 0x11E7 DUP2 DUP6 DUP6 PUSH2 0x31E6 JUMP JUMPDEST POP PUSH1 0x1 SWAP4 SWAP3 POP POP POP JUMP JUMPDEST PUSH1 0x5 SLOAD PUSH1 0x1 PUSH1 0x1 PUSH1 0xA0 SHL SUB AND CALLER EQ PUSH2 0x1239 JUMPI PUSH1 0x40 MLOAD PUSH3 0x461BCD PUSH1 0xE5 SHL DUP2 MSTORE PUSH1 0x20 PUSH1 0x4 DUP3 ADD DUP2 SWAP1 MSTORE PUSH1 0x24 DUP3 ADD MSTORE PUSH1 0x0 DUP1 MLOAD PUSH1 0x20 PUSH2 0x59A0 DUP4 CODECOPY DUP2 MLOAD SWAP2 MSTORE PUSH1 0x44 DUP3 ADD MSTORE PUSH1 0x64 ADD PUSH2 0xFCA JUMP JUMPDEST PUSH1 0x19 SLOAD PUSH2 0x1246 SWAP1 DUP3 PUSH2 0x3336 JUMP JUMPDEST PUSH1 0x19 SSTORE PUSH1 0x15 SLOAD PUSH2 0x1256 SWAP1 DUP3 PUSH2 0x3336 JUMP JUMPDEST PUSH1 0x15 SSTORE PUSH1 0x40 MLOAD DUP2 DUP2 MSTORE PUSH1 0x0 SWAP1 ADDRESS SWAP1 PUSH32 0x715128EA18BCB5A472F8187C4FBFDC1ED6D04ECDCFF67E3F546FDD075E862665 SWAP1 PUSH1 0x20 ADD JUMPDEST PUSH1 0x40 MLOAD DUP1 SWAP2 SUB SWAP1 LOG3 POP JUMP JUMPDEST PUSH2 0x129D PUSH2 0x300D JUMP JUMPDEST PUSH1 0x24 PUSH1 0x0 SWAP1 SLOAD SWAP1 PUSH2 0x100 EXP SWAP1 DIV PUSH1 0x1 PUSH1 0x1 PUSH1 0xA0 SHL SUB AND PUSH1 0x1 PUSH1 0x1 PUSH1 0xA0 SHL SUB AND PUSH4 0x38AF3EED PUSH1 0x40 MLOAD DUP2 PUSH4 0xFFFFFFFF AND PUSH1 0xE0 SHL DUP2 MSTORE PUSH1 0x4 ADD PUSH1 0x20 PUSH1 0x40 MLOAD DUP1 DUP4 SUB DUP2 DUP7 GAS STATICCALL ISZERO DUP1 ISZERO PUSH2 0x12F0 JUMPI RETURNDATASIZE PUSH1 0x0 DUP1 RETURNDATACOPY RETURNDATASIZE PUSH1 0x0 REVERT JUMPDEST POP POP POP POP PUSH1 0x40 MLOAD RETURNDATASIZE PUSH1 0x1F NOT PUSH1 0x1F DUP3 ADD AND DUP3 ADD DUP1 PUSH1 0x40 MSTORE POP DUP2 ADD SWAP1 PUSH2 0x1314 SWAP2 SWAP1 PUSH2 0x587A JUMP JUMPDEST PUSH2 0x131D DUP2 PUSH2 0x3342 JUMP JUMPDEST PUSH1 0x24 SLOAD PUSH1 0x0 SWAP1 PUSH1 0x1 PUSH1 0x1 PUSH1 0xA0 SHL SUB AND PUSH4 0xA95606E PUSH2 0x1339 PUSH2 0x339A JUMP JUMPDEST PUSH1 0x40 MLOAD DUP3 PUSH4 0xFFFFFFFF AND PUSH1 0xE0 SHL DUP2 MSTORE PUSH1 0x4 ADD PUSH2 0x1355 SWAP2 SWAP1 PUSH2 0x5897 JUMP JUMPDEST PUSH1 0x20 PUSH1 0x40 MLOAD DUP1 DUP4 SUB DUP2 PUSH1 0x0 DUP8 GAS CALL ISZERO DUP1 ISZERO PUSH2 0x1374 JUMPI RETURNDATASIZE PUSH1 0x0 DUP1 RETURNDATACOPY RETURNDATASIZE PUSH1 0x0 REVERT JUMPDEST POP POP POP POP PUSH1 0x40 MLOAD RETURNDATASIZE PUSH1 0x1F NOT PUSH1 0x1F DUP3 ADD AND DUP3 ADD DUP1 PUSH1 0x40 MSTORE POP DUP2 ADD SWAP1 PUSH2 0x1398 SWAP2 SWAP1 PUSH2 0x58C9 JUMP JUMPDEST SWAP1 POP PUSH2 0x13C4 DUP2 PUSH1 0x13 PUSH1 0x0 CALLER JUMPDEST PUSH1 0x1 PUSH1 0x1 PUSH1 0xA0 SHL SUB AND DUP2 MSTORE PUSH1 0x20 DUP2 ADD SWAP2 SWAP1 SWAP2 MSTORE PUSH1 0x40 ADD PUSH1 0x0 KECCAK256 SLOAD SWAP1 PUSH2 0x2FAF JUMP JUMPDEST CALLER PUSH1 0x0 SWAP1 DUP2 MSTORE PUSH1 0x13 PUSH1 0x20 MSTORE PUSH1 0x40 SWAP1 KECCAK256 SSTORE POP POP JUMP JUMPDEST PUSH2 0x13E0 PUSH2 0x546F JUMP JUMPDEST CALLER PUSH1 0x0 SWAP1 DUP2 MSTORE PUSH1 0xE PUSH1 0x20 SWAP1 DUP2 MSTORE PUSH1 0x40 DUP1 DUP4 KECCAK256 DUP2 MLOAD PUSH2 0x140 DUP2 ADD DUP4 MSTORE DUP2 SLOAD PUSH1 0x1 PUSH1 0x1 PUSH1 0xA0 SHL SUB SWAP1 DUP2 AND PUSH1 0x60 DUP1 DUP5 ADD SWAP2 DUP3 MSTORE PUSH1 0x1 DUP6 ADD SLOAD PUSH1 0x80 DUP6 ADD MSTORE PUSH1 0x2 DUP6 ADD SLOAD PUSH1 0xA0 DUP6 ADD MSTORE PUSH1 0x3 DUP6 ADD SLOAD PUSH1 0xC0 DUP6 ADD MSTORE PUSH1 0x4 DUP6 ADD SLOAD PUSH1 0xE0 DUP6 ADD MSTORE PUSH1 0x5 DUP6 ADD SLOAD PUSH2 0x100 DUP6 ADD MSTORE PUSH1 0x6 DUP6 ADD SLOAD PUSH2 0x120 DUP6 ADD MSTORE SWAP1 DUP4 MSTORE PUSH1 0x7 DUP5 ADD SLOAD SWAP1 SWAP2 AND DUP3 DUP7 ADD MSTORE PUSH1 0x8 SWAP1 SWAP3 ADD SLOAD DUP2 DUP5 ADD MSTORE DUP3 MLOAD SWAP2 DUP3 ADD DUP4 MSTORE DUP5 DUP3 MSTORE DUP2 DUP5 ADD SWAP5 SWAP1 SWAP5 MSTORE DUP4 MLOAD SWAP2 DUP2 ADD DUP3 SWAP1 MSTORE SWAP2 ADD MLOAD PUSH2 0x148C SWAP1 PUSH2 0x37E5 JUMP JUMPDEST PUSH1 0x0 PUSH2 0x149B DUP3 PUSH1 0x40 ADD MLOAD PUSH2 0x3835 JUMP JUMPDEST SWAP1 POP PUSH1 0x0 TIMESTAMP DUP4 PUSH1 0x40 ADD MLOAD PUSH1 0xC0 ADD MLOAD GT ISZERO PUSH2 0x14D8 JUMPI PUSH1 0x0 DUP1 PUSH2 0x14C4 DUP6 PUSH1 0x40 ADD MLOAD PUSH1 0x20 ADD MLOAD DUP6 PUSH2 0x3893 JUMP JUMPDEST SWAP1 SWAP3 POP SWAP1 POP PUSH2 0x14D3 DUP2 DUP4 PUSH2 0x58E2 JUMP JUMPDEST SWAP3 POP POP POP JUMPDEST PUSH1 0x0 PUSH2 0x14E7 DUP6 PUSH1 0x40 ADD MLOAD PUSH2 0x38C8 JUMP JUMPDEST GT ISZERO PUSH2 0x150F JUMPI PUSH1 0x0 PUSH2 0x1500 DUP5 PUSH1 0x40 ADD MLOAD PUSH1 0x20 ADD MLOAD PUSH2 0x38E1 JUMP JUMPDEST PUSH1 0x40 DUP6 ADD MLOAD PUSH1 0x80 ADD MSTORE POP PUSH2 0x151D JUMP JUMPDEST PUSH1 0x40 DUP4 ADD MLOAD PUSH1 0x0 PUSH1 0x80 SWAP1 SWAP2 ADD MSTORE JUMPDEST PUSH1 0x40 DUP4 ADD DUP1 MLOAD PUSH1 0x60 ADD SWAP3 SWAP1 SWAP3 MSTORE PUSH1 0x20 DUP1 DUP5 ADD SWAP2 SWAP1 SWAP2 MSTORE SWAP1 MLOAD ADD MLOAD DUP2 MSTORE SWAP3 SWAP2 POP POP JUMP JUMPDEST PUSH2 0x1547 PUSH2 0x300D JUMP JUMPDEST PUSH1 0x26 PUSH1 0x0 SWAP1 SLOAD SWAP1 PUSH2 0x100 EXP SWAP1 DIV PUSH1 0x1 PUSH1 0x1 PUSH1 0xA0 SHL SUB AND PUSH1 0x1 PUSH1 0x1 PUSH1 0xA0 SHL SUB AND PUSH4 0x38AF3EED PUSH1 0x40 MLOAD DUP2 PUSH4 0xFFFFFFFF AND PUSH1 0xE0 SHL DUP2 MSTORE PUSH1 0x4 ADD PUSH1 0x20 PUSH1 0x40 MLOAD DUP1 DUP4 SUB DUP2 DUP7 GAS STATICCALL ISZERO DUP1 ISZERO PUSH2 0x159A JUMPI RETURNDATASIZE PUSH1 0x0 DUP1 RETURNDATACOPY RETURNDATASIZE PUSH1 0x0 REVERT JUMPDEST POP POP POP POP PUSH1 0x40 MLOAD RETURNDATASIZE PUSH1 0x1F NOT PUSH1 0x1F DUP3 ADD AND DUP3 ADD DUP1 PUSH1 0x40 MSTORE POP DUP2 ADD SWAP1 PUSH2 0x15BE SWAP2 SWAP1 PUSH2 0x587A JUMP JUMPDEST PUSH2 0x15C7 DUP2 PUSH2 0x3342 JUMP JUMPDEST PUSH1 0x26 SLOAD PUSH1 0x0 SWAP1 PUSH1 0x1 PUSH1 0x1 PUSH1 0xA0 SHL SUB AND PUSH4 0xA95606E PUSH2 0x1339 PUSH2 0x3903 JUMP JUMPDEST PUSH2 0x1610 PUSH1 0x40 MLOAD DUP1 PUSH1 0x80 ADD PUSH1 0x40 MSTORE DUP1 PUSH1 0x0 DUP2 MSTORE PUSH1 0x20 ADD PUSH1 0x0 DUP2 MSTORE PUSH1 0x20 ADD PUSH1 0x0 ISZERO ISZERO DUP2 MSTORE PUSH1 0x20 ADD PUSH1 0x0 DUP2 MSTORE POP SWAP1 JUMP JUMPDEST POP CALLER PUSH1 0x0 SWAP1 DUP2 MSTORE PUSH1 0x12 PUSH1 0x20 SWAP1 DUP2 MSTORE PUSH1 0x40 SWAP2 DUP3 SWAP1 KECCAK256 DUP3 MLOAD PUSH1 0x80 DUP2 ADD DUP5 MSTORE DUP2 SLOAD DUP2 MSTORE PUSH1 0x1 DUP3 ADD SLOAD SWAP3 DUP2 ADD SWAP3 SWAP1 SWAP3 MSTORE PUSH1 0x2 DUP2 ADD SLOAD PUSH1 0xFF AND ISZERO ISZERO SWAP3 DUP3 ADD SWAP3 SWAP1 SWAP3 MSTORE PUSH1 0x3 SWAP1 SWAP2 ADD SLOAD PUSH1 0x60 DUP3 ADD MSTORE SWAP1 JUMP JUMPDEST PUSH1 0x0 CALLER PUSH2 0x1669 DUP6 DUP3 DUP6 PUSH2 0x39C3 JUMP JUMPDEST PUSH2 0x1674 DUP6 DUP6 DUP6 PUSH2 0x3A55 JUMP JUMPDEST POP PUSH1 0x1 SWAP5 SWAP4 POP POP POP POP JUMP JUMPDEST CALLER PUSH1 0x0 DUP2 DUP2 MSTORE PUSH1 0x14 PUSH1 0x20 SWAP1 DUP2 MSTORE PUSH1 0x40 DUP1 DUP4 KECCAK256 PUSH1 0x1 PUSH1 0x1 PUSH1 0xA0 SHL SUB DUP8 AND DUP5 MSTORE SWAP1 SWAP2 MSTORE DUP2 KECCAK256 SLOAD SWAP1 SWAP2 SWAP1 PUSH2 0x11E7 SWAP1 DUP3 SWAP1 DUP7 SWAP1 PUSH2 0x16B9 SWAP1 DUP8 SWAP1 PUSH2 0x58E2 JUMP JUMPDEST PUSH2 0x31E6 JUMP JUMPDEST PUSH2 0x16C6 PUSH2 0x300D JUMP JUMPDEST PUSH1 0x2A PUSH1 0x0 SWAP1 SLOAD SWAP1 PUSH2 0x100 EXP SWAP1 DIV PUSH1 0x1 PUSH1 0x1 PUSH1 0xA0 SHL SUB AND PUSH1 0x1 PUSH1 0x1 PUSH1 0xA0 SHL SUB AND PUSH4 0x38AF3EED PUSH1 0x40 MLOAD DUP2 PUSH4 0xFFFFFFFF AND PUSH1 0xE0 SHL DUP2 MSTORE PUSH1 0x4 ADD PUSH1 0x20 PUSH1 0x40 MLOAD DUP1 DUP4 SUB DUP2 DUP7 GAS STATICCALL ISZERO DUP1 ISZERO PUSH2 0x1719 JUMPI RETURNDATASIZE PUSH1 0x0 DUP1 RETURNDATACOPY RETURNDATASIZE PUSH1 0x0 REVERT JUMPDEST POP POP POP POP PUSH1 0x40 MLOAD RETURNDATASIZE PUSH1 0x1F NOT PUSH1 0x1F DUP3 ADD AND DUP3 ADD DUP1 PUSH1 0x40 MSTORE POP DUP2 ADD SWAP1 PUSH2 0x173D SWAP2 SWAP1 PUSH2 0x587A JUMP JUMPDEST PUSH2 0x1746 DUP2 PUSH2 0x3342 JUMP JUMPDEST PUSH1 0x2A SLOAD PUSH1 0x0 SWAP1 PUSH1 0x1 PUSH1 0x1 PUSH1 0xA0 SHL SUB AND PUSH4 0xA95606E PUSH2 0x1339 PUSH2 0x3CB9 JUMP JUMPDEST PUSH1 0x5 SLOAD PUSH1 0x1 PUSH1 0x1 PUSH1 0xA0 SHL SUB AND CALLER EQ PUSH2 0x17AA JUMPI PUSH1 0x40 MLOAD PUSH3 0x461BCD PUSH1 0xE5 SHL DUP2 MSTORE PUSH1 0x20 PUSH1 0x4 DUP3 ADD DUP2 SWAP1 MSTORE PUSH1 0x24 DUP3 ADD MSTORE PUSH1 0x0 DUP1 MLOAD PUSH1 0x20 PUSH2 0x59A0 DUP4 CODECOPY DUP2 MLOAD SWAP2 MSTORE PUSH1 0x44 DUP3 ADD MSTORE PUSH1 0x64 ADD PUSH2 0xFCA JUMP JUMPDEST PUSH2 0x17B4 DUP3 DUP3 PUSH2 0x4111 JUMP JUMPDEST POP POP JUMP JUMPDEST PUSH2 0x17C2 CALLER DUP3 PUSH2 0x41F0 JUMP JUMPDEST POP JUMP JUMPDEST PUSH1 0x5 SLOAD PUSH1 0x1 PUSH1 0x1 PUSH1 0xA0 SHL SUB AND CALLER EQ PUSH2 0x180D JUMPI PUSH1 0x40 MLOAD PUSH3 0x461BCD PUSH1 0xE5 SHL DUP2 MSTORE PUSH1 0x20 PUSH1 0x4 DUP3 ADD DUP2 SWAP1 MSTORE PUSH1 0x24 DUP3 ADD MSTORE PUSH1 0x0 DUP1 MLOAD PUSH1 0x20 PUSH2 0x59A0 DUP4 CODECOPY DUP2 MLOAD SWAP2 MSTORE PUSH1 0x44 DUP3 ADD MSTORE PUSH1 0x64 ADD PUSH2 0xFCA JUMP JUMPDEST PUSH1 0x1E DUP1 SLOAD PUSH1 0x1 PUSH1 0x1 PUSH1 0xA0 SHL SUB NOT SWAP1 DUP2 AND PUSH1 0x1 PUSH1 0x1 PUSH1 0xA0 SHL SUB DUP7 DUP2 AND SWAP2 DUP3 OR SWAP1 SWAP4 SSTORE PUSH1 0x1F DUP1 SLOAD DUP4 AND DUP7 DUP6 AND SWAP1 DUP2 OR SWAP1 SWAP2 SSTORE PUSH1 0x20 DUP1 SLOAD SWAP1 SWAP4 AND SWAP4 DUP6 AND SWAP4 DUP5 OR DUP4 SSTORE PUSH1 0x40 MLOAD CALLER DUP2 MSTORE SWAP1 SWAP3 PUSH32 0x1B2F4C5680152B0503B3DF404995849C1844ABFB6FCF502936B60002FE2F4D9C SWAP2 ADD PUSH1 0x40 MLOAD DUP1 SWAP2 SUB SWAP1 LOG4 POP POP POP JUMP JUMPDEST PUSH1 0x5 SLOAD PUSH1 0x1 PUSH1 0x1 PUSH1 0xA0 SHL SUB AND CALLER EQ PUSH2 0x18CC JUMPI PUSH1 0x40 MLOAD PUSH3 0x461BCD PUSH1 0xE5 SHL DUP2 MSTORE PUSH1 0x20 PUSH1 0x4 DUP3 ADD DUP2 SWAP1 MSTORE PUSH1 0x24 DUP3 ADD MSTORE PUSH1 0x0 DUP1 MLOAD PUSH1 0x20 PUSH2 0x59A0 DUP4 CODECOPY DUP2 MLOAD SWAP2 MSTORE PUSH1 0x44 DUP3 ADD MSTORE PUSH1 0x64 ADD PUSH2 0xFCA JUMP JUMPDEST PUSH1 0x5 DUP2 PUSH1 0xFF AND LT PUSH2 0x191F JUMPI PUSH1 0x40 MLOAD PUSH3 0x461BCD PUSH1 0xE5 SHL DUP2 MSTORE PUSH1 0x20 PUSH1 0x4 DUP3 ADD MSTORE PUSH1 0x15 PUSH1 0x24 DUP3 ADD MSTORE PUSH32 0x54617820466565206D6178696D756D2069732035250000000000000000000000 PUSH1 0x44 DUP3 ADD MSTORE PUSH1 0x64 ADD PUSH2 0xFCA JUMP JUMPDEST PUSH1 0x1B DUP1 SLOAD PUSH1 0xFF NOT AND PUSH1 0xFF DUP4 AND SWAP1 DUP2 OR SWAP1 SWAP2 SSTORE PUSH1 0x40 MLOAD SWAP1 DUP2 MSTORE CALLER SWAP1 PUSH32 0xDF92943B31FFF67E8447FF9FA8B5E226DDCC5FB34D36CFE120C0F2B96EB8D6F7 SWAP1 PUSH1 0x20 ADD JUMPDEST PUSH1 0x40 MLOAD DUP1 SWAP2 SUB SWAP1 LOG2 POP JUMP JUMPDEST PUSH2 0x1972 PUSH2 0x300D JUMP JUMPDEST PUSH1 0x28 PUSH1 0x0 SWAP1 SLOAD SWAP1 PUSH2 0x100 EXP SWAP1 DIV PUSH1 0x1 PUSH1 0x1 PUSH1 0xA0 SHL SUB AND PUSH1 0x1 PUSH1 0x1 PUSH1 0xA0 SHL SUB AND PUSH4 0x38AF3EED PUSH1 0x40 MLOAD DUP2 PUSH4 0xFFFFFFFF AND PUSH1 0xE0 SHL DUP2 MSTORE PUSH1 0x4 ADD PUSH1 0x20 PUSH1 0x40 MLOAD DUP1 DUP4 SUB DUP2 DUP7 GAS STATICCALL ISZERO DUP1 ISZERO PUSH2 0x19C5 JUMPI RETURNDATASIZE PUSH1 0x0 DUP1 RETURNDATACOPY RETURNDATASIZE PUSH1 0x0 REVERT JUMPDEST POP POP POP POP PUSH1 0x40 MLOAD RETURNDATASIZE PUSH1 0x1F NOT PUSH1 0x1F DUP3 ADD AND DUP3 ADD DUP1 PUSH1 0x40 MSTORE POP DUP2 ADD SWAP1 PUSH2 0x19E9 SWAP2 SWAP1 PUSH2 0x587A JUMP JUMPDEST PUSH2 0x19F2 DUP2 PUSH2 0x3342 JUMP JUMPDEST PUSH1 0x28 SLOAD PUSH1 0x0 SWAP1 PUSH1 0x1 PUSH1 0x1 PUSH1 0xA0 SHL SUB AND PUSH4 0xA95606E PUSH2 0x1339 PUSH2 0x3CB9 JUMP JUMPDEST PUSH2 0x1A16 PUSH2 0x300D JUMP JUMPDEST PUSH1 0x1B SLOAD PUSH1 0xFF PUSH2 0x100 SWAP1 SWAP2 DIV AND ISZERO ISZERO PUSH1 0x1 EQ PUSH2 0x1A73 JUMPI PUSH1 0x40 MLOAD PUSH3 0x461BCD PUSH1 0xE5 SHL DUP2 MSTORE PUSH1 0x20 PUSH1 0x4 DUP3 ADD MSTORE PUSH1 0x17 PUSH1 0x24 DUP3 ADD MSTORE PUSH32 0x41697264726F70206E6F74207965742073746172746564000000000000000000 PUSH1 0x44 DUP3 ADD MSTORE PUSH1 0x64 ADD PUSH2 0xFCA JUMP JUMPDEST PUSH1 0x0 PUSH2 0x1A7E CALLER PUSH2 0x436D JUMP JUMPDEST ADDRESS PUSH1 0x0 SWAP1 DUP2 MSTORE PUSH1 0x13 PUSH1 0x20 MSTORE PUSH1 0x40 SWAP1 KECCAK256 SLOAD SWAP1 SWAP2 POP PUSH2 0x1A9B SWAP1 DUP3 PUSH2 0x3336 JUMP JUMPDEST ADDRESS PUSH1 0x0 SWAP1 DUP2 MSTORE PUSH1 0x13 PUSH1 0x20 DUP2 SWAP1 MSTORE PUSH1 0x40 DUP3 KECCAK256 SWAP3 SWAP1 SWAP3 SSTORE PUSH2 0x1ABC SWAP2 DUP4 SWAP2 CALLER PUSH2 0x13A4 JUMP JUMPDEST CALLER PUSH1 0x0 SWAP1 DUP2 MSTORE PUSH1 0x13 PUSH1 0x20 MSTORE PUSH1 0x40 SWAP1 KECCAK256 SSTORE POP JUMP JUMPDEST PUSH2 0x1AD7 PUSH2 0x2FBB JUMP JUMPDEST CALLER PUSH1 0x0 SWAP1 DUP2 MSTORE PUSH1 0xC PUSH1 0x20 MSTORE PUSH1 0x40 SWAP1 KECCAK256 SLOAD PUSH1 0xFF AND ISZERO ISZERO PUSH1 0x1 EQ PUSH2 0x1B3B JUMPI PUSH1 0x40 MLOAD PUSH3 0x461BCD PUSH1 0xE5 SHL DUP2 MSTORE PUSH1 0x20 PUSH1 0x4 DUP3 ADD MSTORE PUSH1 0x13 PUSH1 0x24 DUP3 ADD MSTORE PUSH32 0x596F7520617265206E6F74206120766F74657200000000000000000000000000 PUSH1 0x44 DUP3 ADD MSTORE PUSH1 0x64 ADD PUSH2 0xFCA JUMP JUMPDEST CALLER PUSH1 0x0 SWAP1 DUP2 MSTORE PUSH1 0xC PUSH1 0x20 SWAP1 DUP2 MSTORE PUSH1 0x40 DUP1 DUP4 KECCAK256 PUSH1 0xA SLOAD DUP5 MSTORE PUSH1 0x1 ADD SWAP1 SWAP2 MSTORE SWAP1 KECCAK256 SLOAD PUSH1 0xFF AND ISZERO PUSH2 0x1BAB JUMPI PUSH1 0x40 MLOAD PUSH3 0x461BCD PUSH1 0xE5 SHL DUP2 MSTORE PUSH1 0x20 PUSH1 0x4 DUP3 ADD MSTORE PUSH1 0x15 PUSH1 0x24 DUP3 ADD MSTORE PUSH32 0x596F75206861766520766F746564206265666F72650000000000000000000000 PUSH1 0x44 DUP3 ADD MSTORE PUSH1 0x64 ADD PUSH2 0xFCA JUMP JUMPDEST CALLER PUSH1 0x0 SWAP1 DUP2 MSTORE PUSH1 0xC PUSH1 0x20 SWAP1 DUP2 MSTORE PUSH1 0x40 DUP1 DUP4 KECCAK256 PUSH1 0xA DUP1 SLOAD DUP6 MSTORE PUSH1 0x1 SWAP2 DUP3 ADD DUP5 MSTORE DUP3 DUP6 KECCAK256 DUP1 SLOAD PUSH1 0xFF NOT AND DUP4 OR SWAP1 SSTORE SLOAD DUP5 MSTORE PUSH1 0xD SWAP1 SWAP3 MSTORE DUP3 KECCAK256 DUP1 SLOAD SWAP2 SWAP3 SWAP1 SWAP2 PUSH2 0x106A SWAP1 DUP5 SWAP1 PUSH2 0x58E2 JUMP JUMPDEST CALLER PUSH1 0x0 SWAP1 DUP2 MSTORE PUSH1 0x13 PUSH1 0x20 MSTORE PUSH1 0x40 SWAP1 KECCAK256 SLOAD PUSH2 0x1C0C SWAP1 DUP3 PUSH2 0x3336 JUMP JUMPDEST CALLER PUSH1 0x0 SWAP1 DUP2 MSTORE PUSH1 0x13 PUSH1 0x20 MSTORE PUSH1 0x40 DUP2 KECCAK256 SWAP2 SWAP1 SWAP2 SSTORE PUSH1 0x1A DUP1 SLOAD DUP4 SWAP3 SWAP1 PUSH2 0x1C31 SWAP1 DUP5 SWAP1 PUSH2 0x58E2 JUMP JUMPDEST SWAP1 SWAP2 SSTORE POP POP POP JUMP JUMPDEST PUSH1 0x5 SLOAD PUSH1 0x1 PUSH1 0x1 PUSH1 0xA0 SHL SUB AND CALLER EQ PUSH2 0x1C81 JUMPI PUSH1 0x40 MLOAD PUSH3 0x461BCD PUSH1 0xE5 SHL DUP2 MSTORE PUSH1 0x20 PUSH1 0x4 DUP3 ADD DUP2 SWAP1 MSTORE PUSH1 0x24 DUP3 ADD MSTORE PUSH1 0x0 DUP1 MLOAD PUSH1 0x20 PUSH2 0x59A0 DUP4 CODECOPY DUP2 MLOAD SWAP2 MSTORE PUSH1 0x44 DUP3 ADD MSTORE PUSH1 0x64 ADD PUSH2 0xFCA JUMP JUMPDEST PUSH2 0x1C8B PUSH1 0x0 PUSH2 0x447D JUMP JUMPDEST JUMP JUMPDEST PUSH2 0x1C95 PUSH2 0x300D JUMP JUMPDEST PUSH1 0x22 PUSH1 0x0 SWAP1 SLOAD SWAP1 PUSH2 0x100 EXP SWAP1 DIV PUSH1 0x1 PUSH1 0x1 PUSH1 0xA0 SHL SUB AND PUSH1 0x1 PUSH1 0x1 PUSH1 0xA0 SHL SUB AND PUSH4 0x38AF3EED PUSH1 0x40 MLOAD DUP2 PUSH4 0xFFFFFFFF AND PUSH1 0xE0 SHL DUP2 MSTORE PUSH1 0x4 ADD PUSH1 0x20 PUSH1 0x40 MLOAD DUP1 DUP4 SUB DUP2 DUP7 GAS STATICCALL ISZERO DUP1 ISZERO PUSH2 0x1CE8 JUMPI RETURNDATASIZE PUSH1 0x0 DUP1 RETURNDATACOPY RETURNDATASIZE PUSH1 0x0 REVERT JUMPDEST POP POP POP POP PUSH1 0x40 MLOAD RETURNDATASIZE PUSH1 0x1F NOT PUSH1 0x1F DUP3 ADD AND DUP3 ADD DUP1 PUSH1 0x40 MSTORE POP DUP2 ADD SWAP1 PUSH2 0x1D0C SWAP2 SWAP1 PUSH2 0x587A JUMP JUMPDEST PUSH2 0x1D15 DUP2 PUSH2 0x3342 JUMP JUMPDEST PUSH1 0x22 SLOAD PUSH1 0x0 SWAP1 PUSH1 0x1 PUSH1 0x1 PUSH1 0xA0 SHL SUB AND PUSH4 0xA95606E PUSH2 0x1339 PUSH2 0x339A JUMP JUMPDEST PUSH2 0x1D3C DUP3 CALLER DUP4 PUSH2 0x39C3 JUMP JUMPDEST PUSH2 0x17B4 DUP3 DUP3 PUSH2 0x41F0 JUMP JUMPDEST DUP1 PUSH3 0x76A700 EQ DUP1 PUSH2 0x1D59 JUMPI POP DUP1 PUSH3 0xED4E00 EQ JUMPDEST DUP1 PUSH2 0x1D67 JUMPI POP DUP1 PUSH4 0x1E13380 EQ JUMPDEST PUSH2 0x1DB3 JUMPI PUSH1 0x40 MLOAD PUSH3 0x461BCD PUSH1 0xE5 SHL DUP2 MSTORE PUSH1 0x20 PUSH1 0x4 DUP3 ADD MSTORE PUSH1 0x1B PUSH1 0x24 DUP3 ADD MSTORE PUSH32 0x5374616B696E67206F7074696F6E20646F65736E742065786973740000000000 PUSH1 0x44 DUP3 ADD MSTORE PUSH1 0x64 ADD PUSH2 0xFCA JUMP JUMPDEST PUSH2 0x1DBD CALLER DUP4 PUSH2 0x41F0 JUMP JUMPDEST PUSH2 0x1DDC CALLER DUP4 DUP4 PUSH1 0x18 PUSH1 0x0 DUP7 DUP2 MSTORE PUSH1 0x20 ADD SWAP1 DUP2 MSTORE PUSH1 0x20 ADD PUSH1 0x0 KECCAK256 SLOAD PUSH2 0x44CF JUMP JUMPDEST ADDRESS PUSH1 0x0 SWAP1 DUP2 MSTORE PUSH1 0x13 PUSH1 0x20 MSTORE PUSH1 0x40 SWAP1 KECCAK256 SLOAD PUSH2 0x1DF6 SWAP1 DUP4 PUSH2 0x2FAF JUMP JUMPDEST ADDRESS PUSH1 0x0 SWAP1 DUP2 MSTORE PUSH1 0x13 PUSH1 0x20 MSTORE PUSH1 0x40 SWAP1 KECCAK256 SSTORE POP POP JUMP JUMPDEST PUSH2 0x1E12 PUSH2 0x300D JUMP JUMPDEST PUSH1 0x23 PUSH1 0x0 SWAP1 SLOAD SWAP1 PUSH2 0x100 EXP SWAP1 DIV PUSH1 0x1 PUSH1 0x1 PUSH1 0xA0 SHL SUB AND PUSH1 0x1 PUSH1 0x1 PUSH1 0xA0 SHL SUB AND PUSH4 0x38AF3EED PUSH1 0x40 MLOAD DUP2 PUSH4 0xFFFFFFFF AND PUSH1 0xE0 SHL DUP2 MSTORE PUSH1 0x4 ADD PUSH1 0x20 PUSH1 0x40 MLOAD DUP1 DUP4 SUB DUP2 DUP7 GAS STATICCALL ISZERO DUP1 ISZERO PUSH2 0x1E65 JUMPI RETURNDATASIZE PUSH1 0x0 DUP1 RETURNDATACOPY RETURNDATASIZE PUSH1 0x0 REVERT JUMPDEST POP POP POP POP PUSH1 0x40 MLOAD RETURNDATASIZE PUSH1 0x1F NOT PUSH1 0x1F DUP3 ADD AND DUP3 ADD DUP1 PUSH1 0x40 MSTORE POP DUP2 ADD SWAP1 PUSH2 0x1E89 SWAP2 SWAP1 PUSH2 0x587A JUMP JUMPDEST PUSH2 0x1E92 DUP2 PUSH2 0x3342 JUMP JUMPDEST PUSH1 0x23 SLOAD PUSH1 0x0 SWAP1 PUSH1 0x1 PUSH1 0x1 PUSH1 0xA0 SHL SUB AND PUSH4 0xA95606E PUSH2 0x1339 PUSH2 0x339A JUMP JUMPDEST PUSH2 0x1EB6 PUSH2 0x300D JUMP JUMPDEST PUSH2 0x1ECC PUSH2 0x1EC2 CALLER PUSH2 0x46C4 JUMP JUMPDEST PUSH1 0x13 PUSH1 0x0 CALLER PUSH2 0x13A4 JUMP JUMPDEST CALLER PUSH1 0x0 SWAP1 DUP2 MSTORE PUSH1 0x13 PUSH1 0x20 MSTORE PUSH1 0x40 SWAP1 KECCAK256 SSTORE JUMP JUMPDEST PUSH2 0x1EE6 PUSH2 0x300D JUMP JUMPDEST PUSH1 0x25 PUSH1 0x0 SWAP1 SLOAD SWAP1 PUSH2 0x100 EXP SWAP1 DIV PUSH1 0x1 PUSH1 0x1 PUSH1 0xA0 SHL SUB AND PUSH1 0x1 PUSH1 0x1 PUSH1 0xA0 SHL SUB AND PUSH4 0x38AF3EED PUSH1 0x40 MLOAD DUP2 PUSH4 0xFFFFFFFF AND PUSH1 0xE0 SHL DUP2 MSTORE PUSH1 0x4 ADD PUSH1 0x20 PUSH1 0x40 MLOAD DUP1 DUP4 SUB DUP2 DUP7 GAS STATICCALL ISZERO DUP1 ISZERO PUSH2 0x1F39 JUMPI RETURNDATASIZE PUSH1 0x0 DUP1 RETURNDATACOPY RETURNDATASIZE PUSH1 0x0 REVERT JUMPDEST POP POP POP POP PUSH1 0x40 MLOAD RETURNDATASIZE PUSH1 0x1F NOT PUSH1 0x1F DUP3 ADD AND DUP3 ADD DUP1 PUSH1 0x40 MSTORE POP DUP2 ADD SWAP1 PUSH2 0x1F5D SWAP2 SWAP1 PUSH2 0x587A JUMP JUMPDEST PUSH2 0x1F66 DUP2 PUSH2 0x3342 JUMP JUMPDEST PUSH1 0x25 SLOAD PUSH1 0x0 SWAP1 PUSH1 0x1 PUSH1 0x1 PUSH1 0xA0 SHL SUB AND PUSH4 0xA95606E PUSH2 0x1339 PUSH2 0x3903 JUMP JUMPDEST PUSH2 0x1F8A PUSH2 0x300D JUMP JUMPDEST PUSH1 0x27 PUSH1 0x0 SWAP1 SLOAD SWAP1 PUSH2 0x100 EXP SWAP1 DIV PUSH1 0x1 PUSH1 0x1 PUSH1 0xA0 SHL SUB AND PUSH1 0x1 PUSH1 0x1 PUSH1 0xA0 SHL SUB AND PUSH4 0x38AF3EED PUSH1 0x40 MLOAD DUP2 PUSH4 0xFFFFFFFF AND PUSH1 0xE0 SHL DUP2 MSTORE PUSH1 0x4 ADD PUSH1 0x20 PUSH1 0x40 MLOAD DUP1 DUP4 SUB DUP2 DUP7 GAS STATICCALL ISZERO DUP1 ISZERO PUSH2 0x1FDD JUMPI RETURNDATASIZE PUSH1 0x0 DUP1 RETURNDATACOPY RETURNDATASIZE PUSH1 0x0 REVERT JUMPDEST POP POP POP POP PUSH1 0x40 MLOAD RETURNDATASIZE PUSH1 0x1F NOT PUSH1 0x1F DUP3 ADD AND DUP3 ADD DUP1 PUSH1 0x40 MSTORE POP DUP2 ADD SWAP1 PUSH2 0x2001 SWAP2 SWAP1 PUSH2 0x587A JUMP JUMPDEST PUSH2 0x200A DUP2 PUSH2 0x3342 JUMP JUMPDEST PUSH1 0x27 SLOAD PUSH1 0x0 SWAP1 PUSH1 0x1 PUSH1 0x1 PUSH1 0xA0 SHL SUB AND PUSH4 0xA95606E PUSH2 0x1339 PUSH2 0x3903 JUMP JUMPDEST PUSH1 0x5 SLOAD PUSH1 0x1 PUSH1 0x1 PUSH1 0xA0 SHL SUB AND CALLER EQ PUSH2 0x206E JUMPI PUSH1 0x40 MLOAD PUSH3 0x461BCD PUSH1 0xE5 SHL DUP2 MSTORE PUSH1 0x20 PUSH1 0x4 DUP3 ADD DUP2 SWAP1 MSTORE PUSH1 0x24 DUP3 ADD MSTORE PUSH1 0x0 DUP1 MLOAD PUSH1 0x20 PUSH2 0x59A0 DUP4 CODECOPY DUP2 MLOAD SWAP2 MSTORE PUSH1 0x44 DUP3 ADD MSTORE PUSH1 0x64 ADD PUSH2 0xFCA JUMP JUMPDEST ADDRESS PUSH1 0x0 SWAP1 DUP2 MSTORE PUSH1 0x13 PUSH1 0x20 MSTORE PUSH1 0x40 SWAP1 KECCAK256 SLOAD PUSH2 0x2088 SWAP1 DUP3 PUSH2 0x3336 JUMP JUMPDEST ADDRESS PUSH1 0x0 SWAP1 DUP2 MSTORE PUSH1 0x13 PUSH1 0x20 MSTORE PUSH1 0x40 SWAP1 KECCAK256 SSTORE PUSH1 0x15 SLOAD PUSH2 0x20A5 SWAP1 DUP3 PUSH2 0x3336 JUMP JUMPDEST PUSH1 0x15 SSTORE PUSH1 0x40 MLOAD DUP2 DUP2 MSTORE PUSH1 0x0 SWAP1 ADDRESS SWAP1 PUSH32 0xDDF252AD1BE2C89B69C2B068FC378DAA952BA7F163C4A11628F55A4DF523B3EF SWAP1 PUSH1 0x20 ADD PUSH2 0x128A JUMP JUMPDEST PUSH1 0x5 SLOAD PUSH1 0x1 PUSH1 0x1 PUSH1 0xA0 SHL SUB AND CALLER EQ PUSH2 0x2125 JUMPI PUSH1 0x40 MLOAD PUSH3 0x461BCD PUSH1 0xE5 SHL DUP2 MSTORE PUSH1 0x20 PUSH1 0x4 DUP3 ADD DUP2 SWAP1 MSTORE PUSH1 0x24 DUP3 ADD MSTORE PUSH1 0x0 DUP1 MLOAD PUSH1 0x20 PUSH2 0x59A0 DUP4 CODECOPY DUP2 MLOAD SWAP2 MSTORE PUSH1 0x44 DUP3 ADD MSTORE PUSH1 0x64 ADD PUSH2 0xFCA JUMP JUMPDEST PUSH2 0x212E DUP2 PUSH2 0x47D3 JUMP JUMPDEST PUSH1 0x40 MLOAD DUP2 DUP2 MSTORE CALLER SWAP1 PUSH32 0xE4D1041AB63832A18AE323C0781239637B799CCD1FFA03B0CC4C0916F14834D7 SWAP1 PUSH1 0x20 ADD PUSH2 0x195F JUMP JUMPDEST PUSH1 0x5 SLOAD PUSH1 0x1 PUSH1 0x1 PUSH1 0xA0 SHL SUB AND CALLER EQ PUSH2 0x21A8 JUMPI PUSH1 0x40 MLOAD PUSH3 0x461BCD PUSH1 0xE5 SHL DUP2 MSTORE PUSH1 0x20 PUSH1 0x4 DUP3 ADD DUP2 SWAP1 MSTORE PUSH1 0x24 DUP3 ADD MSTORE PUSH1 0x0 DUP1 MLOAD PUSH1 0x20 PUSH2 0x59A0 DUP4 CODECOPY DUP2 MLOAD SWAP2 MSTORE PUSH1 0x44 DUP3 ADD MSTORE PUSH1 0x64 ADD PUSH2 0xFCA JUMP JUMPDEST PUSH1 0x0 PUSH2 0x21B2 PUSH2 0x4885 JUMP JUMPDEST SWAP1 POP PUSH1 0x1 DUP2 ISZERO ISZERO EQ ISZERO PUSH2 0x220C JUMPI PUSH1 0x1A SLOAD PUSH2 0x21CC SWAP1 DUP4 PUSH2 0x3336 JUMP JUMPDEST PUSH1 0x1A SSTORE PUSH1 0x1 PUSH1 0x1 PUSH1 0xA0 SHL SUB DUP4 AND PUSH1 0x0 SWAP1 DUP2 MSTORE PUSH1 0x13 PUSH1 0x20 MSTORE PUSH1 0x40 SWAP1 KECCAK256 SLOAD PUSH2 0x21F2 SWAP1 DUP4 PUSH2 0x2FAF JUMP JUMPDEST PUSH1 0x1 PUSH1 0x1 PUSH1 0xA0 SHL SUB DUP5 AND PUSH1 0x0 SWAP1 DUP2 MSTORE PUSH1 0x13 PUSH1 0x20 MSTORE PUSH1 0x40 SWAP1 KECCAK256 SSTORE JUMPDEST PUSH2 0x2214 PUSH2 0x491F JUMP JUMPDEST PUSH1 0x40 MLOAD DUP3 DUP2 MSTORE PUSH1 0x1 PUSH1 0x1 PUSH1 0xA0 SHL SUB DUP5 AND SWAP1 ADDRESS SWAP1 PUSH32 0xAD139BBBE5ED2D442D6797C48156DDF43B2EA733815CB7F8047085763108EE22 SWAP1 PUSH1 0x20 ADD JUMPDEST PUSH1 0x40 MLOAD DUP1 SWAP2 SUB SWAP1 LOG3 POP POP POP JUMP JUMPDEST PUSH2 0x2262 PUSH2 0x300D JUMP JUMPDEST PUSH1 0x29 PUSH1 0x0 SWAP1 SLOAD SWAP1 PUSH2 0x100 EXP SWAP1 DIV PUSH1 0x1 PUSH1 0x1 PUSH1 0xA0 SHL SUB AND PUSH1 0x1 PUSH1 0x1 PUSH1 0xA0 SHL SUB AND PUSH4 0x38AF3EED PUSH1 0x40 MLOAD DUP2 PUSH4 0xFFFFFFFF AND PUSH1 0xE0 SHL DUP2 MSTORE PUSH1 0x4 ADD PUSH1 0x20 PUSH1 0x40 MLOAD DUP1 DUP4 SUB DUP2 DUP7 GAS STATICCALL ISZERO DUP1 ISZERO PUSH2 0x22B5 JUMPI RETURNDATASIZE PUSH1 0x0 DUP1 RETURNDATACOPY RETURNDATASIZE PUSH1 0x0 REVERT JUMPDEST POP POP POP POP PUSH1 0x40 MLOAD RETURNDATASIZE PUSH1 0x1F NOT PUSH1 0x1F DUP3 ADD AND DUP3 ADD DUP1 PUSH1 0x40 MSTORE POP DUP2 ADD SWAP1 PUSH2 0x22D9 SWAP2 SWAP1 PUSH2 0x587A JUMP JUMPDEST PUSH2 0x22E2 DUP2 PUSH2 0x3342 JUMP JUMPDEST PUSH1 0x29 SLOAD PUSH1 0x0 SWAP1 PUSH1 0x1 PUSH1 0x1 PUSH1 0xA0 SHL SUB AND PUSH4 0xA95606E PUSH2 0x1339 PUSH2 0x3CB9 JUMP JUMPDEST PUSH2 0x2306 PUSH2 0x300D JUMP JUMPDEST PUSH1 0x21 PUSH1 0x0 SWAP1 SLOAD SWAP1 PUSH2 0x100 EXP SWAP1 DIV PUSH1 0x1 PUSH1 0x1 PUSH1 0xA0 SHL SUB AND PUSH1 0x1 PUSH1 0x1 PUSH1 0xA0 SHL SUB AND PUSH4 0x38AF3EED PUSH1 0x40 MLOAD DUP2 PUSH4 0xFFFFFFFF AND PUSH1 0xE0 SHL DUP2 MSTORE PUSH1 0x4 ADD PUSH1 0x20 PUSH1 0x40 MLOAD DUP1 DUP4 SUB DUP2 DUP7 GAS STATICCALL ISZERO DUP1 ISZERO PUSH2 0x2359 JUMPI RETURNDATASIZE PUSH1 0x0 DUP1 RETURNDATACOPY RETURNDATASIZE PUSH1 0x0 REVERT JUMPDEST POP POP POP POP PUSH1 0x40 MLOAD RETURNDATASIZE PUSH1 0x1F NOT PUSH1 0x1F DUP3 ADD AND DUP3 ADD DUP1 PUSH1 0x40 MSTORE POP DUP2 ADD SWAP1 PUSH2 0x237D SWAP2 SWAP1 PUSH2 0x587A JUMP JUMPDEST PUSH2 0x2386 DUP2 PUSH2 0x3342 JUMP JUMPDEST PUSH1 0x21 SLOAD PUSH1 0x0 SWAP1 PUSH1 0x1 PUSH1 0x1 PUSH1 0xA0 SHL SUB AND PUSH4 0xA95606E PUSH2 0x1339 PUSH2 0x4933 JUMP JUMPDEST PUSH1 0x60 PUSH1 0x17 DUP1 SLOAD PUSH2 0xEDF SWAP1 PUSH2 0x57A3 JUMP JUMPDEST PUSH1 0x5 SLOAD PUSH1 0x1 PUSH1 0x1 PUSH1 0xA0 SHL SUB AND CALLER EQ PUSH2 0x23F9 JUMPI PUSH1 0x40 MLOAD PUSH3 0x461BCD PUSH1 0xE5 SHL DUP2 MSTORE PUSH1 0x20 PUSH1 0x4 DUP3 ADD DUP2 SWAP1 MSTORE PUSH1 0x24 DUP3 ADD MSTORE PUSH1 0x0 DUP1 MLOAD PUSH1 0x20 PUSH2 0x59A0 DUP4 CODECOPY DUP2 MLOAD SWAP2 MSTORE PUSH1 0x44 DUP3 ADD MSTORE PUSH1 0x64 ADD PUSH2 0xFCA JUMP JUMPDEST PUSH2 0x17C2 DUP2 PUSH2 0x4CCF JUMP JUMPDEST PUSH1 0x5 SLOAD PUSH1 0x1 PUSH1 0x1 PUSH1 0xA0 SHL SUB AND CALLER EQ PUSH2 0x244A JUMPI PUSH1 0x40 MLOAD PUSH3 0x461BCD PUSH1 0xE5 SHL DUP2 MSTORE PUSH1 0x20 PUSH1 0x4 DUP3 ADD DUP2 SWAP1 MSTORE PUSH1 0x24 DUP3 ADD MSTORE PUSH1 0x0 DUP1 MLOAD PUSH1 0x20 PUSH2 0x59A0 DUP4 CODECOPY DUP2 MLOAD SWAP2 MSTORE PUSH1 0x44 DUP3 ADD MSTORE PUSH1 0x64 ADD PUSH2 0xFCA JUMP JUMPDEST PUSH2 0x2452 PUSH2 0x300D JUMP JUMPDEST DUP1 PUSH2 0x249F JUMPI PUSH1 0x40 MLOAD PUSH3 0x461BCD PUSH1 0xE5 SHL DUP2 MSTORE PUSH1 0x20 PUSH1 0x4 DUP3 ADD MSTORE PUSH1 0x11 PUSH1 0x24 DUP3 ADD MSTORE PUSH32 0x4E6F7468696E6720746F2064656C657465000000000000000000000000000000 PUSH1 0x44 DUP3 ADD MSTORE PUSH1 0x64 ADD PUSH2 0xFCA JUMP JUMPDEST PUSH1 0x0 JUMPDEST DUP2 DUP2 LT ISZERO PUSH2 0x24E2 JUMPI PUSH2 0x24D9 DUP4 DUP4 DUP4 DUP2 DUP2 LT PUSH2 0x24BF JUMPI PUSH2 0x24BF PUSH2 0x580B JUMP JUMPDEST SWAP1 POP PUSH1 0x20 MUL ADD PUSH1 0x20 DUP2 ADD SWAP1 PUSH2 0x24D4 SWAP2 SWAP1 PUSH2 0x56C8 JUMP JUMPDEST PUSH2 0x4D24 JUMP JUMPDEST POP PUSH1 0x1 ADD PUSH2 0x24A2 JUMP JUMPDEST POP CALLER PUSH1 0x1 PUSH1 0x1 PUSH1 0xA0 SHL SUB AND PUSH32 0x11DE4C4BBDE444DD104485ABDCBA99B21A09383732955C686C96B9F3AB11407A DUP4 DUP4 PUSH1 0x40 MLOAD PUSH2 0x11CD SWAP3 SWAP2 SWAP1 PUSH2 0x58FA JUMP JUMPDEST PUSH1 0x5 SLOAD PUSH1 0x1 PUSH1 0x1 PUSH1 0xA0 SHL SUB AND CALLER EQ PUSH2 0x2566 JUMPI PUSH1 0x40 MLOAD PUSH3 0x461BCD PUSH1 0xE5 SHL DUP2 MSTORE PUSH1 0x20 PUSH1 0x4 DUP3 ADD DUP2 SWAP1 MSTORE PUSH1 0x24 DUP3 ADD MSTORE PUSH1 0x0 DUP1 MLOAD PUSH1 0x20 PUSH2 0x59A0 DUP4 CODECOPY DUP2 MLOAD SWAP2 MSTORE PUSH1 0x44 DUP3 ADD MSTORE PUSH1 0x64 ADD PUSH2 0xFCA JUMP JUMPDEST PUSH1 0x1D DUP1 SLOAD PUSH1 0x1 PUSH1 0x1 PUSH1 0xA0 SHL SUB NOT AND PUSH1 0x1 PUSH1 0x1 PUSH1 0xA0 SHL SUB DUP4 AND SWAP1 DUP2 OR SWAP1 SWAP2 SSTORE PUSH1 0x40 MLOAD PUSH32 0xC35CEA67BC4CAF96CC47A71099D4192A65D36AB490D26EBF55825C0700815F61 SWAP1 PUSH1 0x0 SWAP1 LOG2 POP JUMP JUMPDEST CALLER PUSH1 0x0 DUP2 DUP2 MSTORE PUSH1 0x14 PUSH1 0x20 SWAP1 DUP2 MSTORE PUSH1 0x40 DUP1 DUP4 KECCAK256 PUSH1 0x1 PUSH1 0x1 PUSH1 0xA0 SHL SUB DUP8 AND DUP5 MSTORE SWAP1 SWAP2 MSTORE DUP2 KECCAK256 SLOAD SWAP1 SWAP2 SWAP1 DUP4 DUP2 LT ISZERO PUSH2 0x264D JUMPI PUSH1 0x40 MLOAD PUSH3 0x461BCD PUSH1 0xE5 SHL DUP2 MSTORE PUSH1 0x20 PUSH1 0x4 DUP3 ADD MSTORE PUSH1 0x25 PUSH1 0x24 DUP3 ADD MSTORE PUSH32 0x45524332303A2064656372656173656420616C6C6F77616E63652062656C6F77 PUSH1 0x44 DUP3 ADD MSTORE PUSH32 0x207A65726F000000000000000000000000000000000000000000000000000000 PUSH1 0x64 DUP3 ADD MSTORE PUSH1 0x84 ADD PUSH2 0xFCA JUMP JUMPDEST PUSH2 0x1674 DUP3 DUP7 DUP7 DUP5 SUB PUSH2 0x31E6 JUMP JUMPDEST PUSH1 0x0 PUSH1 0x1 PUSH1 0x1 PUSH1 0xA0 SHL SUB DUP3 AND PUSH2 0x26B2 JUMPI PUSH1 0x40 MLOAD PUSH3 0x461BCD PUSH1 0xE5 SHL DUP2 MSTORE PUSH1 0x20 PUSH1 0x4 DUP3 ADD MSTORE PUSH1 0xF PUSH1 0x24 DUP3 ADD MSTORE PUSH32 0x496E76616C696420616464726573730000000000000000000000000000000000 PUSH1 0x44 DUP3 ADD MSTORE PUSH1 0x64 ADD PUSH2 0xFCA JUMP JUMPDEST POP PUSH1 0x1 PUSH1 0x1 PUSH1 0xA0 SHL SUB AND PUSH1 0x0 SWAP1 DUP2 MSTORE PUSH1 0xC PUSH1 0x20 MSTORE PUSH1 0x40 SWAP1 KECCAK256 SLOAD PUSH1 0xFF AND SWAP1 JUMP JUMPDEST PUSH1 0x0 CALLER PUSH2 0x11E7 DUP2 DUP6 DUP6 PUSH2 0x3A55 JUMP JUMPDEST PUSH1 0x5 SLOAD PUSH1 0x1 PUSH1 0x1 PUSH1 0xA0 SHL SUB AND CALLER EQ PUSH2 0x2727 JUMPI PUSH1 0x40 MLOAD PUSH3 0x461BCD PUSH1 0xE5 SHL DUP2 MSTORE PUSH1 0x20 PUSH1 0x4 DUP3 ADD DUP2 SWAP1 MSTORE PUSH1 0x24 DUP3 ADD MSTORE PUSH1 0x0 DUP1 MLOAD PUSH1 0x20 PUSH2 0x59A0 DUP4 CODECOPY DUP2 MLOAD SWAP2 MSTORE PUSH1 0x44 DUP3 ADD MSTORE PUSH1 0x64 ADD PUSH2 0xFCA JUMP JUMPDEST PUSH1 0x1B SLOAD PUSH3 0x10000 SWAP1 DIV PUSH1 0xFF AND ISZERO PUSH2 0x2780 JUMPI PUSH1 0x40 MLOAD PUSH3 0x461BCD PUSH1 0xE5 SHL DUP2 MSTORE PUSH1 0x20 PUSH1 0x4 DUP3 ADD MSTORE PUSH1 0x15 PUSH1 0x24 DUP3 ADD MSTORE PUSH32 0x4E6F7468696E6720746F20696E697469616C697A650000000000000000000000 PUSH1 0x44 DUP3 ADD MSTORE PUSH1 0x64 ADD PUSH2 0xFCA JUMP JUMPDEST PUSH1 0x1B DUP1 SLOAD PUSH3 0xFF0000 NOT AND PUSH3 0x10000 OR SWAP1 SSTORE PUSH1 0x21 SLOAD PUSH1 0x40 DUP1 MLOAD PUSH32 0xC8CCA41E00000000000000000000000000000000000000000000000000000000 DUP2 MSTORE SWAP1 MLOAD PUSH1 0x1 PUSH1 0x1 PUSH1 0xA0 SHL SUB SWAP1 SWAP3 AND SWAP2 PUSH4 0xC8CCA41E SWAP2 PUSH1 0x4 DUP1 DUP3 ADD SWAP3 PUSH1 0x0 SWAP3 SWAP1 SWAP2 SWAP1 DUP3 SWAP1 SUB ADD DUP2 DUP4 DUP8 DUP1 EXTCODESIZE ISZERO DUP1 ISZERO PUSH2 0x27F0 JUMPI PUSH1 0x0 DUP1 REVERT JUMPDEST POP GAS CALL ISZERO DUP1 ISZERO PUSH2 0x2804 JUMPI RETURNDATASIZE PUSH1 0x0 DUP1 RETURNDATACOPY RETURNDATASIZE PUSH1 0x0 REVERT JUMPDEST POP POP POP POP PUSH1 0x22 PUSH1 0x0 SWAP1 SLOAD SWAP1 PUSH2 0x100 EXP SWAP1 DIV PUSH1 0x1 PUSH1 0x1 PUSH1 0xA0 SHL SUB AND PUSH1 0x1 PUSH1 0x1 PUSH1 0xA0 SHL SUB AND PUSH4 0xC8CCA41E PUSH1 0x40 MLOAD DUP2 PUSH4 0xFFFFFFFF AND PUSH1 0xE0 SHL DUP2 MSTORE PUSH1 0x4 ADD PUSH1 0x0 PUSH1 0x40 MLOAD DUP1 DUP4 SUB DUP2 PUSH1 0x0 DUP8 DUP1 EXTCODESIZE ISZERO DUP1 ISZERO PUSH2 0x2858 JUMPI PUSH1 0x0 DUP1 REVERT JUMPDEST POP GAS CALL ISZERO DUP1 ISZERO PUSH2 0x286C JUMPI RETURNDATASIZE PUSH1 0x0 DUP1 RETURNDATACOPY RETURNDATASIZE PUSH1 0x0 REVERT JUMPDEST POP POP POP POP PUSH1 0x23 PUSH1 0x0 SWAP1 SLOAD SWAP1 PUSH2 0x100 EXP SWAP1 DIV PUSH1 0x1 PUSH1 0x1 PUSH1 0xA0 SHL SUB AND PUSH1 0x1 PUSH1 0x1 PUSH1 0xA0 SHL SUB AND PUSH4 0xC8CCA41E PUSH1 0x40 MLOAD DUP2 PUSH4 0xFFFFFFFF AND PUSH1 0xE0 SHL DUP2 MSTORE PUSH1 0x4 ADD PUSH1 0x0 PUSH1 0x40 MLOAD DUP1 DUP4 SUB DUP2 PUSH1 0x0 DUP8 DUP1 EXTCODESIZE ISZERO DUP1 ISZERO PUSH2 0x28C0 JUMPI PUSH1 0x0 DUP1 REVERT JUMPDEST POP GAS CALL ISZERO DUP1 ISZERO PUSH2 0x28D4 JUMPI RETURNDATASIZE PUSH1 0x0 DUP1 RETURNDATACOPY RETURNDATASIZE PUSH1 0x0 REVERT JUMPDEST POP POP POP POP PUSH1 0x24 PUSH1 0x0 SWAP1 SLOAD SWAP1 PUSH2 0x100 EXP SWAP1 DIV PUSH1 0x1 PUSH1 0x1 PUSH1 0xA0 SHL SUB AND PUSH1 0x1 PUSH1 0x1 PUSH1 0xA0 SHL SUB AND PUSH4 0xC8CCA41E PUSH1 0x40 MLOAD DUP2 PUSH4 0xFFFFFFFF AND PUSH1 0xE0 SHL DUP2 MSTORE PUSH1 0x4 ADD PUSH1 0x0 PUSH1 0x40 MLOAD DUP1 DUP4 SUB DUP2 PUSH1 0x0 DUP8 DUP1 EXTCODESIZE ISZERO DUP1 ISZERO PUSH2 0x2928 JUMPI PUSH1 0x0 DUP1 REVERT JUMPDEST POP GAS CALL ISZERO DUP1 ISZERO PUSH2 0x293C JUMPI RETURNDATASIZE PUSH1 0x0 DUP1 RETURNDATACOPY RETURNDATASIZE PUSH1 0x0 REVERT JUMPDEST POP POP POP POP PUSH1 0x25 PUSH1 0x0 SWAP1 SLOAD SWAP1 PUSH2 0x100 EXP SWAP1 DIV PUSH1 0x1 PUSH1 0x1 PUSH1 0xA0 SHL SUB AND PUSH1 0x1 PUSH1 0x1 PUSH1 0xA0 SHL SUB AND PUSH4 0xC8CCA41E PUSH1 0x40 MLOAD DUP2 PUSH4 0xFFFFFFFF AND PUSH1 0xE0 SHL DUP2 MSTORE PUSH1 0x4 ADD PUSH1 0x0 PUSH1 0x40 MLOAD DUP1 DUP4 SUB DUP2 PUSH1 0x0 DUP8 DUP1 EXTCODESIZE ISZERO DUP1 ISZERO PUSH2 0x2990 JUMPI PUSH1 0x0 DUP1 REVERT JUMPDEST POP GAS CALL ISZERO DUP1 ISZERO PUSH2 0x29A4 JUMPI RETURNDATASIZE PUSH1 0x0 DUP1 RETURNDATACOPY RETURNDATASIZE PUSH1 0x0 REVERT JUMPDEST POP POP POP POP PUSH1 0x26 PUSH1 0x0 SWAP1 SLOAD SWAP1 PUSH2 0x100 EXP SWAP1 DIV PUSH1 0x1 PUSH1 0x1 PUSH1 0xA0 SHL SUB AND PUSH1 0x1 PUSH1 0x1 PUSH1 0xA0 SHL SUB AND PUSH4 0xC8CCA41E PUSH1 0x40 MLOAD DUP2 PUSH4 0xFFFFFFFF AND PUSH1 0xE0 SHL DUP2 MSTORE PUSH1 0x4 ADD PUSH1 0x0 PUSH1 0x40 MLOAD DUP1 DUP4 SUB DUP2 PUSH1 0x0 DUP8 DUP1 EXTCODESIZE ISZERO DUP1 ISZERO PUSH2 0x29F8 JUMPI PUSH1 0x0 DUP1 REVERT JUMPDEST POP GAS CALL ISZERO DUP1 ISZERO PUSH2 0x2A0C JUMPI RETURNDATASIZE PUSH1 0x0 DUP1 RETURNDATACOPY RETURNDATASIZE PUSH1 0x0 REVERT JUMPDEST POP POP POP POP PUSH1 0x27 PUSH1 0x0 SWAP1 SLOAD SWAP1 PUSH2 0x100 EXP SWAP1 DIV PUSH1 0x1 PUSH1 0x1 PUSH1 0xA0 SHL SUB AND PUSH1 0x1 PUSH1 0x1 PUSH1 0xA0 SHL SUB AND PUSH4 0xC8CCA41E PUSH1 0x40 MLOAD DUP2 PUSH4 0xFFFFFFFF AND PUSH1 0xE0 SHL DUP2 MSTORE PUSH1 0x4 ADD PUSH1 0x0 PUSH1 0x40 MLOAD DUP1 DUP4 SUB DUP2 PUSH1 0x0 DUP8 DUP1 EXTCODESIZE ISZERO DUP1 ISZERO PUSH2 0x2A60 JUMPI PUSH1 0x0 DUP1 REVERT JUMPDEST POP GAS CALL ISZERO DUP1 ISZERO PUSH2 0x2A74 JUMPI RETURNDATASIZE PUSH1 0x0 DUP1 RETURNDATACOPY RETURNDATASIZE PUSH1 0x0 REVERT JUMPDEST POP POP POP POP PUSH1 0x28 PUSH1 0x0 SWAP1 SLOAD SWAP1 PUSH2 0x100 EXP SWAP1 DIV PUSH1 0x1 PUSH1 0x1 PUSH1 0xA0 SHL SUB AND PUSH1 0x1 PUSH1 0x1 PUSH1 0xA0 SHL SUB AND PUSH4 0xC8CCA41E PUSH1 0x40 MLOAD DUP2 PUSH4 0xFFFFFFFF AND PUSH1 0xE0 SHL DUP2 MSTORE PUSH1 0x4 ADD PUSH1 0x0 PUSH1 0x40 MLOAD DUP1 DUP4 SUB DUP2 PUSH1 0x0 DUP8 DUP1 EXTCODESIZE ISZERO DUP1 ISZERO PUSH2 0x2AC8 JUMPI PUSH1 0x0 DUP1 REVERT JUMPDEST POP GAS CALL ISZERO DUP1 ISZERO PUSH2 0x2ADC JUMPI RETURNDATASIZE PUSH1 0x0 DUP1 RETURNDATACOPY RETURNDATASIZE PUSH1 0x0 REVERT JUMPDEST POP POP POP POP PUSH1 0x29 PUSH1 0x0 SWAP1 SLOAD SWAP1 PUSH2 0x100 EXP SWAP1 DIV PUSH1 0x1 PUSH1 0x1 PUSH1 0xA0 SHL SUB AND PUSH1 0x1 PUSH1 0x1 PUSH1 0xA0 SHL SUB AND PUSH4 0xC8CCA41E PUSH1 0x40 MLOAD DUP2 PUSH4 0xFFFFFFFF AND PUSH1 0xE0 SHL DUP2 MSTORE PUSH1 0x4 ADD PUSH1 0x0 PUSH1 0x40 MLOAD DUP1 DUP4 SUB DUP2 PUSH1 0x0 DUP8 DUP1 EXTCODESIZE ISZERO DUP1 ISZERO PUSH2 0x2B30 JUMPI PUSH1 0x0 DUP1 REVERT JUMPDEST POP GAS CALL ISZERO DUP1 ISZERO PUSH2 0x2B44 JUMPI RETURNDATASIZE PUSH1 0x0 DUP1 RETURNDATACOPY RETURNDATASIZE PUSH1 0x0 REVERT JUMPDEST POP POP POP POP PUSH1 0x2A PUSH1 0x0 SWAP1 SLOAD SWAP1 PUSH2 0x100 EXP SWAP1 DIV PUSH1 0x1 PUSH1 0x1 PUSH1 0xA0 SHL SUB AND PUSH1 0x1 PUSH1 0x1 PUSH1 0xA0 SHL SUB AND PUSH4 0xC8CCA41E PUSH1 0x40 MLOAD DUP2 PUSH4 0xFFFFFFFF AND PUSH1 0xE0 SHL DUP2 MSTORE PUSH1 0x4 ADD PUSH1 0x0 PUSH1 0x40 MLOAD DUP1 DUP4 SUB DUP2 PUSH1 0x0 DUP8 DUP1 EXTCODESIZE ISZERO DUP1 ISZERO PUSH2 0x2B98 JUMPI PUSH1 0x0 DUP1 REVERT JUMPDEST POP GAS CALL ISZERO DUP1 ISZERO PUSH2 0x2BAC JUMPI RETURNDATASIZE PUSH1 0x0 DUP1 RETURNDATACOPY RETURNDATASIZE PUSH1 0x0 REVERT JUMPDEST POP POP POP POP PUSH2 0x2BB7 CALLER SWAP1 JUMP JUMPDEST PUSH1 0x1 PUSH1 0x1 PUSH1 0xA0 SHL SUB AND PUSH32 0x72E04AFC383D9AB428814E808CD65ABB27C66B5FA85CC230B4CDA3E36B436C98 PUSH1 0x40 MLOAD PUSH1 0x40 MLOAD DUP1 SWAP2 SUB SWAP1 LOG2 PUSH2 0x2BF5 TIMESTAMP PUSH1 0x11 SSTORE JUMP JUMPDEST PUSH1 0x40 MLOAD CALLER SWAP1 PUSH32 0x166F0287F5E28D35EC474DA4C920A3E6F47F0D7C8833B963DD8367F68DD377CD SWAP1 PUSH1 0x0 SWAP1 LOG2 PUSH1 0x1B DUP1 SLOAD PUSH2 0xFF00 NOT AND PUSH2 0x100 OR SWAP1 SSTORE PUSH2 0x2C38 TIMESTAMP PUSH1 0x8 SSTORE JUMP JUMPDEST PUSH1 0x1B SLOAD PUSH1 0x40 MLOAD PUSH2 0x100 SWAP1 SWAP2 DIV PUSH1 0xFF AND ISZERO ISZERO DUP2 MSTORE CALLER SWAP1 PUSH32 0xE596A4FD4BA2E7F54093D98B96267C6B0DBAE1E317BED8123D9FBC868C028377 SWAP1 PUSH1 0x20 ADD PUSH1 0x40 MLOAD DUP1 SWAP2 SUB SWAP1 LOG2 JUMP JUMPDEST PUSH1 0x0 DUP1 PUSH2 0x2C88 CALLER PUSH2 0x4E15 JUMP JUMPDEST SWAP2 POP SWAP2 POP PUSH2 0x2C95 DUP2 PUSH2 0x4CCF JUMP JUMPDEST ADDRESS PUSH1 0x0 SWAP1 DUP2 MSTORE PUSH1 0x13 PUSH1 0x20 MSTORE PUSH1 0x40 DUP2 KECCAK256 DUP1 SLOAD DUP5 SWAP3 SWAP1 PUSH2 0x2CB4 SWAP1 DUP5 SWAP1 PUSH2 0x57F4 JUMP JUMPDEST SWAP1 SWAP2 SSTORE POP POP PUSH1 0x19 SLOAD PUSH2 0x2CC6 SWAP1 DUP3 PUSH2 0x3336 JUMP JUMPDEST PUSH1 0x19 SSTORE PUSH1 0x15 SLOAD PUSH2 0x2CD6 SWAP1 DUP4 PUSH2 0x2FAF JUMP JUMPDEST PUSH1 0x15 SSTORE PUSH2 0x13C4 PUSH2 0x1EC2 DUP3 DUP5 PUSH2 0x58E2 JUMP JUMPDEST PUSH1 0x5 SLOAD PUSH1 0x1 PUSH1 0x1 PUSH1 0xA0 SHL SUB AND CALLER EQ PUSH2 0x2D2E JUMPI PUSH1 0x40 MLOAD PUSH3 0x461BCD PUSH1 0xE5 SHL DUP2 MSTORE PUSH1 0x20 PUSH1 0x4 DUP3 ADD DUP2 SWAP1 MSTORE PUSH1 0x24 DUP3 ADD MSTORE PUSH1 0x0 DUP1 MLOAD PUSH1 0x20 PUSH2 0x59A0 DUP4 CODECOPY DUP2 MLOAD SWAP2 MSTORE PUSH1 0x44 DUP3 ADD MSTORE PUSH1 0x64 ADD PUSH2 0xFCA JUMP JUMPDEST PUSH2 0x1C8B PUSH2 0x4FAA JUMP JUMPDEST PUSH1 0x0 PUSH1 0x8 SLOAD PUSH1 0x0 EQ PUSH2 0x2D63 JUMPI PUSH3 0x93A80 PUSH1 0x8 SLOAD TIMESTAMP PUSH2 0x2D54 SWAP2 SWAP1 PUSH2 0x57F4 JUMP JUMPDEST PUSH2 0x2D5E SWAP2 SWAP1 PUSH2 0x595E JUMP JUMPDEST SWAP1 POP SWAP1 JUMP JUMPDEST POP PUSH1 0x0 SWAP1 JUMP JUMPDEST PUSH1 0x5 SLOAD PUSH1 0x1 PUSH1 0x1 PUSH1 0xA0 SHL SUB AND CALLER EQ PUSH2 0x2DB1 JUMPI PUSH1 0x40 MLOAD PUSH3 0x461BCD PUSH1 0xE5 SHL DUP2 MSTORE PUSH1 0x20 PUSH1 0x4 DUP3 ADD DUP2 SWAP1 MSTORE PUSH1 0x24 DUP3 ADD MSTORE PUSH1 0x0 DUP1 MLOAD PUSH1 0x20 PUSH2 0x59A0 DUP4 CODECOPY DUP2 MLOAD SWAP2 MSTORE PUSH1 0x44 DUP3 ADD MSTORE PUSH1 0x64 ADD PUSH2 0xFCA JUMP JUMPDEST PUSH2 0x2DBA DUP2 PUSH2 0x501F JUMP JUMPDEST PUSH1 0x40 MLOAD DUP2 DUP2 MSTORE CALLER SWAP1 PUSH32 0x31BBDC307CB7AFAB9B265EE4C47F5FEB19D8A8702A67C0B695DF02E0D4C55B5F SWAP1 PUSH1 0x20 ADD PUSH2 0x195F JUMP JUMPDEST PUSH1 0x5 SLOAD PUSH1 0x1 PUSH1 0x1 PUSH1 0xA0 SHL SUB AND CALLER EQ PUSH2 0x2E34 JUMPI PUSH1 0x40 MLOAD PUSH3 0x461BCD PUSH1 0xE5 SHL DUP2 MSTORE PUSH1 0x20 PUSH1 0x4 DUP3 ADD DUP2 SWAP1 MSTORE PUSH1 0x24 DUP3 ADD MSTORE PUSH1 0x0 DUP1 MLOAD PUSH1 0x20 PUSH2 0x59A0 DUP4 CODECOPY DUP2 MLOAD SWAP2 MSTORE PUSH1 0x44 DUP3 ADD MSTORE PUSH1 0x64 ADD PUSH2 0xFCA JUMP JUMPDEST ADDRESS PUSH1 0x0 SWAP1 DUP2 MSTORE PUSH1 0x13 PUSH1 0x20 MSTORE PUSH1 0x40 SWAP1 KECCAK256 SLOAD PUSH2 0x2E4E SWAP1 DUP3 PUSH2 0x2FAF JUMP JUMPDEST ADDRESS PUSH1 0x0 SWAP1 DUP2 MSTORE PUSH1 0x13 PUSH1 0x20 MSTORE PUSH1 0x40 SWAP1 KECCAK256 SSTORE PUSH1 0x15 SLOAD PUSH2 0x2E6B SWAP1 DUP3 PUSH2 0x2FAF JUMP JUMPDEST PUSH1 0x15 SSTORE PUSH1 0x40 MLOAD DUP2 DUP2 MSTORE ADDRESS SWAP1 PUSH1 0x0 SWAP1 PUSH32 0xDDF252AD1BE2C89B69C2B068FC378DAA952BA7F163C4A11628F55A4DF523B3EF SWAP1 PUSH1 0x20 ADD PUSH2 0x128A JUMP JUMPDEST PUSH1 0x5 SLOAD PUSH1 0x1 PUSH1 0x1 PUSH1 0xA0 SHL SUB AND CALLER EQ PUSH2 0x2EEB JUMPI PUSH1 0x40 MLOAD PUSH3 0x461BCD PUSH1 0xE5 SHL DUP2 MSTORE PUSH1 0x20 PUSH1 0x4 DUP3 ADD DUP2 SWAP1 MSTORE PUSH1 0x24 DUP3 ADD MSTORE PUSH1 0x0 DUP1 MLOAD PUSH1 0x20 PUSH2 0x59A0 DUP4 CODECOPY DUP2 MLOAD SWAP2 MSTORE PUSH1 0x44 DUP3 ADD MSTORE PUSH1 0x64 ADD PUSH2 0xFCA JUMP JUMPDEST PUSH1 0x1 PUSH1 0x1 PUSH1 0xA0 SHL SUB DUP2 AND PUSH2 0x2F67 JUMPI PUSH1 0x40 MLOAD PUSH3 0x461BCD PUSH1 0xE5 SHL DUP2 MSTORE PUSH1 0x20 PUSH1 0x4 DUP3 ADD MSTORE PUSH1 0x26 PUSH1 0x24 DUP3 ADD MSTORE PUSH32 0x4F776E61626C653A206E6577206F776E657220697320746865207A65726F2061 PUSH1 0x44 DUP3 ADD MSTORE PUSH32 0x6464726573730000000000000000000000000000000000000000000000000000 PUSH1 0x64 DUP3 ADD MSTORE PUSH1 0x84 ADD PUSH2 0xFCA JUMP JUMPDEST PUSH2 0x17C2 DUP2 PUSH2 0x447D JUMP JUMPDEST PUSH1 0x0 DUP2 DUP5 DUP5 GT ISZERO PUSH2 0x2F94 JUMPI PUSH1 0x40 MLOAD PUSH3 0x461BCD PUSH1 0xE5 SHL DUP2 MSTORE PUSH1 0x4 ADD PUSH2 0xFCA SWAP2 SWAP1 PUSH2 0x54F5 JUMP JUMPDEST POP POP POP SWAP1 SUB SWAP1 JUMP JUMPDEST PUSH1 0x0 PUSH2 0x2FA8 DUP3 DUP5 PUSH2 0x595E JUMP JUMPDEST SWAP4 SWAP3 POP POP POP JUMP JUMPDEST PUSH1 0x0 PUSH2 0x2FA8 DUP3 DUP5 PUSH2 0x58E2 JUMP JUMPDEST PUSH1 0x9 SLOAD PUSH1 0xFF AND PUSH2 0x1C8B JUMPI PUSH1 0x40 MLOAD PUSH3 0x461BCD PUSH1 0xE5 SHL DUP2 MSTORE PUSH1 0x20 PUSH1 0x4 DUP3 ADD MSTORE PUSH1 0x17 PUSH1 0x24 DUP3 ADD MSTORE PUSH32 0x566F74696E67206973206E6F7420617661696C61626C65000000000000000000 PUSH1 0x44 DUP3 ADD MSTORE PUSH1 0x64 ADD PUSH2 0xFCA JUMP JUMPDEST PUSH1 0x1B SLOAD PUSH3 0x10000 SWAP1 DIV PUSH1 0xFF AND ISZERO ISZERO PUSH1 0x1 EQ PUSH2 0x1C8B JUMPI PUSH1 0x40 MLOAD PUSH3 0x461BCD PUSH1 0xE5 SHL DUP2 MSTORE PUSH1 0x20 PUSH1 0x4 DUP3 ADD MSTORE PUSH1 0xF PUSH1 0x24 DUP3 ADD MSTORE PUSH32 0x4E6F742079657420737461727465640000000000000000000000000000000000 PUSH1 0x44 DUP3 ADD MSTORE PUSH1 0x64 ADD PUSH2 0xFCA JUMP JUMPDEST PUSH2 0x3072 PUSH2 0x300D JUMP JUMPDEST DUP1 PUSH2 0x17C2 JUMPI PUSH1 0x40 MLOAD PUSH3 0x461BCD PUSH1 0xE5 SHL DUP2 MSTORE PUSH1 0x20 PUSH1 0x4 DUP3 ADD MSTORE PUSH1 0x15 PUSH1 0x24 DUP3 ADD MSTORE PUSH32 0x416D6F756E742063616E6E6F74206265207A65726F0000000000000000000000 PUSH1 0x44 DUP3 ADD MSTORE PUSH1 0x64 ADD PUSH2 0xFCA JUMP JUMPDEST PUSH1 0x10 SLOAD DUP2 GT ISZERO PUSH2 0x3111 JUMPI PUSH1 0x40 MLOAD PUSH3 0x461BCD PUSH1 0xE5 SHL DUP2 MSTORE PUSH1 0x20 PUSH1 0x4 DUP3 ADD MSTORE PUSH1 0x1A PUSH1 0x24 DUP3 ADD MSTORE PUSH32 0x496E73756666696369656E7420546F74616C2042616C616E6365000000000000 PUSH1 0x44 DUP3 ADD MSTORE PUSH1 0x64 ADD PUSH2 0xFCA JUMP JUMPDEST PUSH1 0x1 PUSH1 0x1 PUSH1 0xA0 SHL SUB DUP3 AND PUSH1 0x0 SWAP1 DUP2 MSTORE PUSH1 0x12 PUSH1 0x20 MSTORE PUSH1 0x40 SWAP1 KECCAK256 PUSH1 0x1 ADD SLOAD ISZERO PUSH2 0x317A JUMPI PUSH1 0x40 MLOAD PUSH3 0x461BCD PUSH1 0xE5 SHL DUP2 MSTORE PUSH1 0x20 PUSH1 0x4 DUP3 ADD MSTORE PUSH1 0x1A PUSH1 0x24 DUP3 ADD MSTORE PUSH32 0x43616E6E6F742061646420526567697374657265642055736572000000000000 PUSH1 0x44 DUP3 ADD MSTORE PUSH1 0x64 ADD PUSH2 0xFCA JUMP JUMPDEST PUSH1 0x1 PUSH1 0x1 PUSH1 0xA0 SHL SUB DUP3 AND PUSH1 0x0 SWAP1 DUP2 MSTORE PUSH1 0x12 PUSH1 0x20 MSTORE PUSH1 0x40 DUP2 KECCAK256 DUP3 DUP2 SSTORE PUSH1 0x1 DUP1 DUP3 ADD DUP5 SWAP1 SSTORE PUSH1 0x2 DUP3 ADD DUP1 SLOAD PUSH1 0xFF NOT AND SWAP1 SSTORE PUSH1 0x3 SWAP1 SWAP2 ADD DUP2 SWAP1 SSTORE PUSH1 0xF DUP1 SLOAD SWAP2 SWAP3 SWAP1 SWAP2 PUSH2 0x31C4 SWAP1 DUP5 SWAP1 PUSH2 0x58E2 JUMP JUMPDEST SWAP3 POP POP DUP2 SWAP1 SSTORE POP DUP1 PUSH1 0x10 PUSH1 0x0 DUP3 DUP3 SLOAD PUSH2 0x31DD SWAP2 SWAP1 PUSH2 0x57F4 JUMP JUMPDEST SWAP1 SWAP2 SSTORE POP POP POP POP JUMP JUMPDEST PUSH1 0x1 PUSH1 0x1 PUSH1 0xA0 SHL SUB DUP4 AND PUSH2 0x3261 JUMPI PUSH1 0x40 MLOAD PUSH3 0x461BCD PUSH1 0xE5 SHL DUP2 MSTORE PUSH1 0x20 PUSH1 0x4 DUP3 ADD MSTORE PUSH1 0x24 DUP1 DUP3 ADD MSTORE PUSH32 0x45524332303A20617070726F76652066726F6D20746865207A65726F20616464 PUSH1 0x44 DUP3 ADD MSTORE PUSH32 0x7265737300000000000000000000000000000000000000000000000000000000 PUSH1 0x64 DUP3 ADD MSTORE PUSH1 0x84 ADD PUSH2 0xFCA JUMP JUMPDEST PUSH1 0x1 PUSH1 0x1 PUSH1 0xA0 SHL SUB DUP3 AND PUSH2 0x32DD JUMPI PUSH1 0x40 MLOAD PUSH3 0x461BCD PUSH1 0xE5 SHL DUP2 MSTORE PUSH1 0x20 PUSH1 0x4 DUP3 ADD MSTORE PUSH1 0x22 PUSH1 0x24 DUP3 ADD MSTORE PUSH32 0x45524332303A20617070726F766520746F20746865207A65726F206164647265 PUSH1 0x44 DUP3 ADD MSTORE PUSH32 0x7373000000000000000000000000000000000000000000000000000000000000 PUSH1 0x64 DUP3 ADD MSTORE PUSH1 0x84 ADD PUSH2 0xFCA JUMP JUMPDEST PUSH1 0x1 PUSH1 0x1 PUSH1 0xA0 SHL SUB DUP4 DUP2 AND PUSH1 0x0 DUP2 DUP2 MSTORE PUSH1 0x14 PUSH1 0x20 SWAP1 DUP2 MSTORE PUSH1 0x40 DUP1 DUP4 KECCAK256 SWAP5 DUP8 AND DUP1 DUP5 MSTORE SWAP5 DUP3 MSTORE SWAP2 DUP3 SWAP1 KECCAK256 DUP6 SWAP1 SSTORE SWAP1 MLOAD DUP5 DUP2 MSTORE PUSH32 0x8C5BE1E5EBEC7D5BD14F71427D1E84F3DD0314C0F7B2291E5B200AC8C7C3B925 SWAP2 ADD PUSH2 0x224D JUMP JUMPDEST PUSH1 0x0 PUSH2 0x2FA8 DUP3 DUP5 PUSH2 0x57F4 JUMP JUMPDEST CALLER PUSH1 0x1 PUSH1 0x1 PUSH1 0xA0 SHL SUB DUP3 AND EQ PUSH2 0x17C2 JUMPI PUSH1 0x40 MLOAD PUSH3 0x461BCD PUSH1 0xE5 SHL DUP2 MSTORE PUSH1 0x20 PUSH1 0x4 DUP3 ADD MSTORE PUSH1 0x11 PUSH1 0x24 DUP3 ADD MSTORE PUSH32 0x57616C6C6574206F776E6572206F6E6C79000000000000000000000000000000 PUSH1 0x44 DUP3 ADD MSTORE PUSH1 0x64 ADD PUSH2 0xFCA JUMP JUMPDEST PUSH2 0x33A2 PUSH2 0x54D6 JUMP JUMPDEST PUSH1 0x40 MLOAD DUP1 PUSH2 0x660 ADD PUSH1 0x40 MSTORE DUP1 PUSH2 0x33C4 PUSH4 0x1908B10 PUSH8 0xDE0B6B3A7640000 PUSH2 0x50CB JUMP JUMPDEST DUP2 MSTORE PUSH1 0x20 ADD PUSH1 0x0 DUP2 MSTORE PUSH1 0x20 ADD PUSH1 0x0 DUP2 MSTORE PUSH1 0x20 ADD PUSH1 0x0 DUP2 MSTORE PUSH1 0x20 ADD PUSH1 0x0 DUP2 MSTORE PUSH1 0x20 ADD PUSH1 0x0 DUP2 MSTORE PUSH1 0x20 ADD PUSH1 0x0 DUP2 MSTORE PUSH1 0x20 ADD PUSH1 0x0 DUP2 MSTORE PUSH1 0x20 ADD PUSH1 0x0 DUP2 MSTORE PUSH1 0x20 ADD PUSH1 0x0 DUP2 MSTORE PUSH1 0x20 ADD PUSH1 0x0 DUP2 MSTORE PUSH1 0x20 ADD PUSH1 0x0 DUP2 MSTORE PUSH1 0x20 ADD PUSH1 0x0 DUP2 MSTORE PUSH1 0x20 ADD PUSH1 0x0 DUP2 MSTORE PUSH1 0x20 ADD PUSH1 0x0 DUP2 MSTORE PUSH1 0x20 ADD PUSH1 0x0 DUP2 MSTORE PUSH1 0x20 ADD PUSH2 0x3448 PUSH4 0x1B1EBFC PUSH8 0xDE0B6B3A7640000 PUSH2 0x50CB JUMP JUMPDEST DUP2 MSTORE PUSH1 0x20 ADD PUSH2 0x3463 PUSH4 0x1B1EBFC PUSH8 0xDE0B6B3A7640000 PUSH2 0x50CB JUMP JUMPDEST DUP2 MSTORE PUSH1 0x20 ADD PUSH2 0x347E PUSH4 0x1B1EBFC PUSH8 0xDE0B6B3A7640000 PUSH2 0x50CB JUMP JUMPDEST DUP2 MSTORE PUSH1 0x20 ADD PUSH2 0x3499 PUSH4 0x1B1EBFC PUSH8 0xDE0B6B3A7640000 PUSH2 0x50CB JUMP JUMPDEST DUP2 MSTORE PUSH1 0x20 ADD PUSH2 0x34B4 PUSH4 0x1B1EBFC PUSH8 0xDE0B6B3A7640000 PUSH2 0x50CB JUMP JUMPDEST DUP2 MSTORE PUSH1 0x20 ADD PUSH2 0x34CF PUSH4 0x1B1EBFC PUSH8 0xDE0B6B3A7640000 PUSH2 0x50CB JUMP JUMPDEST DUP2 MSTORE PUSH1 0x20 ADD PUSH2 0x34EA PUSH4 0x1B1EBFC PUSH8 0xDE0B6B3A7640000 PUSH2 0x50CB JUMP JUMPDEST DUP2 MSTORE PUSH1 0x20 ADD PUSH2 0x3505 PUSH4 0x1B1EBFC PUSH8 0xDE0B6B3A7640000 PUSH2 0x50CB JUMP JUMPDEST DUP2 MSTORE PUSH1 0x20 ADD PUSH2 0x3520 PUSH4 0x1B1EBFC PUSH8 0xDE0B6B3A7640000 PUSH2 0x50CB JUMP JUMPDEST DUP2 MSTORE PUSH1 0x20 ADD PUSH2 0x353B PUSH4 0x1B1EBFC PUSH8 0xDE0B6B3A7640000 PUSH2 0x50CB JUMP JUMPDEST DUP2 MSTORE PUSH1 0x20 ADD PUSH2 0x3556 PUSH4 0x1B1EBFC PUSH8 0xDE0B6B3A7640000 PUSH2 0x50CB JUMP JUMPDEST DUP2 MSTORE PUSH1 0x20 ADD PUSH2 0x3571 PUSH4 0x1B1EBFC PUSH8 0xDE0B6B3A7640000 PUSH2 0x50CB JUMP JUMPDEST DUP2 MSTORE PUSH1 0x20 ADD PUSH2 0x358C PUSH4 0x1B1EBFC PUSH8 0xDE0B6B3A7640000 PUSH2 0x50CB JUMP JUMPDEST DUP2 MSTORE PUSH1 0x20 ADD PUSH2 0x35A7 PUSH4 0x1B1EBFC PUSH8 0xDE0B6B3A7640000 PUSH2 0x50CB JUMP JUMPDEST DUP2 MSTORE PUSH1 0x20 ADD PUSH2 0x35C2 PUSH4 0x1B1EBFC PUSH8 0xDE0B6B3A7640000 PUSH2 0x50CB JUMP JUMPDEST DUP2 MSTORE PUSH1 0x20 ADD PUSH2 0x35DD PUSH4 0x1B1EBFC PUSH8 0xDE0B6B3A7640000 PUSH2 0x50CB JUMP JUMPDEST DUP2 MSTORE PUSH1 0x20 ADD PUSH2 0x35F8 PUSH4 0x1B1EBFC PUSH8 0xDE0B6B3A7640000 PUSH2 0x50CB JUMP JUMPDEST DUP2 MSTORE PUSH1 0x20 ADD PUSH2 0x3613 PUSH4 0x1B1EBFC PUSH8 0xDE0B6B3A7640000 PUSH2 0x50CB JUMP JUMPDEST DUP2 MSTORE PUSH1 0x20 ADD PUSH2 0x362E PUSH4 0x1B1EBFC PUSH8 0xDE0B6B3A7640000 PUSH2 0x50CB JUMP JUMPDEST DUP2 MSTORE PUSH1 0x20 ADD PUSH2 0x3649 PUSH4 0x1B1EBFC PUSH8 0xDE0B6B3A7640000 PUSH2 0x50CB JUMP JUMPDEST DUP2 MSTORE PUSH1 0x20 ADD PUSH2 0x3664 PUSH4 0x1B1EBFC PUSH8 0xDE0B6B3A7640000 PUSH2 0x50CB JUMP JUMPDEST DUP2 MSTORE PUSH1 0x20 ADD PUSH2 0x367F PUSH4 0x1B1EBFC PUSH8 0xDE0B6B3A7640000 PUSH2 0x50CB JUMP JUMPDEST DUP2 MSTORE PUSH1 0x20 ADD PUSH2 0x369A PUSH4 0x1B1EBFC PUSH8 0xDE0B6B3A7640000 PUSH2 0x50CB JUMP JUMPDEST DUP2 MSTORE PUSH1 0x20 ADD PUSH2 0x36B5 PUSH4 0x1B1EBFC PUSH8 0xDE0B6B3A7640000 PUSH2 0x50CB JUMP JUMPDEST DUP2 MSTORE PUSH1 0x20 ADD PUSH2 0x36D0 PUSH4 0x1B1EBFC PUSH8 0xDE0B6B3A7640000 PUSH2 0x50CB JUMP JUMPDEST DUP2 MSTORE PUSH1 0x20 ADD PUSH2 0x36EB PUSH4 0x1B1EBFC PUSH8 0xDE0B6B3A7640000 PUSH2 0x50CB JUMP JUMPDEST DUP2 MSTORE PUSH1 0x20 ADD PUSH2 0x3706 PUSH4 0x1B1EBFC PUSH8 0xDE0B6B3A7640000 PUSH2 0x50CB JUMP JUMPDEST DUP2 MSTORE PUSH1 0x20 ADD PUSH2 0x3721 PUSH4 0x1B1EBFC PUSH8 0xDE0B6B3A7640000 PUSH2 0x50CB JUMP JUMPDEST DUP2 MSTORE PUSH1 0x20 ADD PUSH2 0x373C PUSH4 0x1B1EBFC PUSH8 0xDE0B6B3A7640000 PUSH2 0x50CB JUMP JUMPDEST DUP2 MSTORE PUSH1 0x20 ADD PUSH2 0x3757 PUSH4 0x1B1EBFC PUSH8 0xDE0B6B3A7640000 PUSH2 0x50CB JUMP JUMPDEST DUP2 MSTORE PUSH1 0x20 ADD PUSH2 0x3772 PUSH4 0x1B1EBFC PUSH8 0xDE0B6B3A7640000 PUSH2 0x50CB JUMP JUMPDEST DUP2 MSTORE PUSH1 0x20 ADD PUSH2 0x378D PUSH4 0x1B1EBFC PUSH8 0xDE0B6B3A7640000 PUSH2 0x50CB JUMP JUMPDEST DUP2 MSTORE PUSH1 0x20 ADD PUSH2 0x37A8 PUSH4 0x1B1EBFC PUSH8 0xDE0B6B3A7640000 PUSH2 0x50CB JUMP JUMPDEST DUP2 MSTORE PUSH1 0x20 ADD PUSH2 0x37C3 PUSH4 0x1B1EBFC PUSH8 0xDE0B6B3A7640000 PUSH2 0x50CB JUMP JUMPDEST DUP2 MSTORE PUSH1 0x20 ADD PUSH2 0x37DE PUSH4 0x1B1EBFC PUSH8 0xDE0B6B3A7640000 PUSH2 0x50CB JUMP JUMPDEST SWAP1 MSTORE SWAP2 SWAP1 POP JUMP JUMPDEST PUSH1 0x0 DUP2 GT PUSH2 0x17C2 JUMPI PUSH1 0x40 MLOAD PUSH3 0x461BCD PUSH1 0xE5 SHL DUP2 MSTORE PUSH1 0x20 PUSH1 0x4 DUP3 ADD MSTORE PUSH1 0xE PUSH1 0x24 DUP3 ADD MSTORE PUSH32 0x4E6F205374616B6520466F756E64000000000000000000000000000000000000 PUSH1 0x44 DUP3 ADD MSTORE PUSH1 0x64 ADD PUSH2 0xFCA JUMP JUMPDEST PUSH1 0x0 DUP2 PUSH1 0x20 ADD MLOAD PUSH1 0x0 EQ ISZERO PUSH2 0x384C JUMPI POP PUSH1 0x0 SWAP2 SWAP1 POP JUMP JUMPDEST PUSH11 0x52B7D2DCC80CD2E4000000 PUSH2 0x3865 DUP4 PUSH1 0x40 ADD MLOAD PUSH2 0x50D7 JUMP JUMPDEST DUP4 PUSH1 0xA0 ADD MLOAD DUP5 PUSH1 0x20 ADD MLOAD PUSH2 0x3879 SWAP2 SWAP1 PUSH2 0x5980 JUMP JUMPDEST PUSH2 0x3883 SWAP2 SWAP1 PUSH2 0x5980 JUMP JUMPDEST PUSH2 0x388D SWAP2 SWAP1 PUSH2 0x595E JUMP JUMPDEST SWAP3 SWAP2 POP POP JUMP JUMPDEST PUSH1 0x0 DUP1 PUSH2 0x38AD PUSH2 0x38A5 DUP6 PUSH1 0x6 SLOAD PUSH2 0x50CB JUMP JUMPDEST PUSH2 0x3E8 PUSH2 0x2F9C JUMP JUMPDEST PUSH2 0x38BC PUSH2 0x38A5 DUP6 PUSH1 0x6 SLOAD PUSH2 0x50CB JUMP JUMPDEST SWAP2 POP SWAP2 POP JUMPDEST SWAP3 POP SWAP3 SWAP1 POP JUMP JUMPDEST PUSH1 0x0 PUSH2 0x388D PUSH3 0x93A80 PUSH2 0x38DB DUP5 TIMESTAMP PUSH2 0x57F4 JUMP JUMPDEST SWAP1 PUSH2 0x2F9C JUMP JUMPDEST PUSH1 0x0 PUSH4 0x1DFE200 PUSH2 0x3E8 PUSH1 0x7 SLOAD DUP5 PUSH2 0x38F9 SWAP2 SWAP1 PUSH2 0x5980 JUMP JUMPDEST PUSH2 0x3883 SWAP2 SWAP1 PUSH2 0x595E JUMP JUMPDEST PUSH2 0x390B PUSH2 0x54D6 JUMP JUMPDEST PUSH1 0x40 MLOAD DUP1 PUSH2 0x660 ADD PUSH1 0x40 MSTORE DUP1 PUSH2 0x392C PUSH3 0xC84588 PUSH8 0xDE0B6B3A7640000 PUSH2 0x50CB JUMP JUMPDEST DUP2 MSTORE PUSH1 0x20 ADD PUSH1 0x0 DUP2 MSTORE PUSH1 0x20 ADD PUSH1 0x0 DUP2 MSTORE PUSH1 0x20 ADD PUSH1 0x0 DUP2 MSTORE PUSH1 0x20 ADD PUSH1 0x0 DUP2 MSTORE PUSH1 0x20 ADD PUSH1 0x0 DUP2 MSTORE PUSH1 0x20 ADD PUSH1 0x0 DUP2 MSTORE PUSH1 0x20 ADD PUSH1 0x0 DUP2 MSTORE PUSH1 0x20 ADD PUSH2 0x3977 PUSH3 0xC84588 PUSH8 0xDE0B6B3A7640000 PUSH2 0x50CB JUMP JUMPDEST DUP2 MSTORE PUSH1 0x20 ADD PUSH1 0x0 DUP2 MSTORE PUSH1 0x20 ADD PUSH1 0x0 DUP2 MSTORE PUSH1 0x20 ADD PUSH1 0x0 DUP2 MSTORE PUSH1 0x20 ADD PUSH1 0x0 DUP2 MSTORE PUSH1 0x20 ADD PUSH1 0x0 DUP2 MSTORE PUSH1 0x20 ADD PUSH1 0x0 DUP2 MSTORE PUSH1 0x20 ADD PUSH1 0x0 DUP2 MSTORE PUSH1 0x20 ADD PUSH2 0x3448 PUSH4 0x1B1EBFC PUSH8 0xDE0B6B3A7640000 PUSH2 0x50CB JUMP JUMPDEST PUSH1 0x1 PUSH1 0x1 PUSH1 0xA0 SHL SUB DUP4 DUP2 AND PUSH1 0x0 SWAP1 DUP2 MSTORE PUSH1 0x14 PUSH1 0x20 SWAP1 DUP2 MSTORE PUSH1 0x40 DUP1 DUP4 KECCAK256 SWAP4 DUP7 AND DUP4 MSTORE SWAP3 SWAP1 MSTORE KECCAK256 SLOAD PUSH1 0x0 NOT DUP2 EQ PUSH2 0x3A4F JUMPI DUP2 DUP2 LT ISZERO PUSH2 0x3A42 JUMPI PUSH1 0x40 MLOAD PUSH3 0x461BCD PUSH1 0xE5 SHL DUP2 MSTORE PUSH1 0x20 PUSH1 0x4 DUP3 ADD MSTORE PUSH1 0x1D PUSH1 0x24 DUP3 ADD MSTORE PUSH32 0x45524332303A20696E73756666696369656E7420616C6C6F77616E6365000000 PUSH1 0x44 DUP3 ADD MSTORE PUSH1 0x64 ADD PUSH2 0xFCA JUMP JUMPDEST PUSH2 0x3A4F DUP5 DUP5 DUP5 DUP5 SUB PUSH2 0x31E6 JUMP JUMPDEST POP POP POP POP JUMP JUMPDEST PUSH1 0x1 PUSH1 0x1 PUSH1 0xA0 SHL SUB DUP4 AND PUSH2 0x3AAB JUMPI PUSH1 0x40 MLOAD PUSH3 0x461BCD PUSH1 0xE5 SHL DUP2 MSTORE PUSH1 0x20 PUSH1 0x4 DUP3 ADD MSTORE PUSH1 0x1A PUSH1 0x24 DUP3 ADD MSTORE PUSH32 0x5472616E736665722066726F6D207A65726F2061646472657373000000000000 PUSH1 0x44 DUP3 ADD MSTORE PUSH1 0x64 ADD PUSH2 0xFCA JUMP JUMPDEST PUSH1 0x1 PUSH1 0x1 PUSH1 0xA0 SHL SUB DUP3 AND PUSH2 0x3B01 JUMPI PUSH1 0x40 MLOAD PUSH3 0x461BCD PUSH1 0xE5 SHL DUP2 MSTORE PUSH1 0x20 PUSH1 0x4 DUP3 ADD MSTORE PUSH1 0x18 PUSH1 0x24 DUP3 ADD MSTORE PUSH32 0x5472616E7366657220746F207A65726F20616464726573730000000000000000 PUSH1 0x44 DUP3 ADD MSTORE PUSH1 0x64 ADD PUSH2 0xFCA JUMP JUMPDEST PUSH1 0x1 PUSH1 0x1 PUSH1 0xA0 SHL SUB DUP4 AND PUSH1 0x0 SWAP1 DUP2 MSTORE PUSH1 0x13 PUSH1 0x20 MSTORE PUSH1 0x40 SWAP1 KECCAK256 SLOAD DUP2 DUP2 LT ISZERO PUSH2 0x3B90 JUMPI PUSH1 0x40 MLOAD PUSH3 0x461BCD PUSH1 0xE5 SHL DUP2 MSTORE PUSH1 0x20 PUSH1 0x4 DUP3 ADD MSTORE PUSH1 0x26 PUSH1 0x24 DUP3 ADD MSTORE PUSH32 0x45524332303A207472616E7366657220616D6F756E7420657863656564732062 PUSH1 0x44 DUP3 ADD MSTORE PUSH32 0x616C616E63650000000000000000000000000000000000000000000000000000 PUSH1 0x64 DUP3 ADD MSTORE PUSH1 0x84 ADD PUSH2 0xFCA JUMP JUMPDEST PUSH1 0x1 PUSH1 0x1 PUSH1 0xA0 SHL SUB DUP5 AND PUSH1 0x0 SWAP1 DUP2 MSTORE PUSH1 0x13 PUSH1 0x20 MSTORE PUSH1 0x40 DUP2 KECCAK256 DUP4 DUP4 SUB SWAP1 SSTORE PUSH1 0x1B SLOAD PUSH2 0x3BC9 SWAP1 PUSH2 0x3BC2 SWAP1 DUP6 SWAP1 PUSH1 0xFF AND PUSH2 0x50CB JUMP JUMPDEST PUSH1 0x64 PUSH2 0x2F9C JUMP JUMPDEST SWAP1 POP PUSH1 0x0 PUSH2 0x3BD7 DUP5 DUP4 PUSH2 0x3336 JUMP JUMPDEST SWAP1 POP PUSH1 0x0 PUSH2 0x3BF0 PUSH2 0x3BE9 DUP4 PUSH1 0x2 PUSH2 0x50CB JUMP JUMPDEST PUSH1 0xA PUSH2 0x2F9C JUMP JUMPDEST SWAP1 POP PUSH1 0x0 PUSH2 0x3C02 PUSH2 0x3BE9 DUP5 PUSH1 0x8 PUSH2 0x50CB JUMP JUMPDEST SWAP1 POP PUSH2 0x3C0D DUP3 PUSH2 0xD5E JUMP JUMPDEST ADDRESS PUSH1 0x0 SWAP1 DUP2 MSTORE PUSH1 0x13 PUSH1 0x20 MSTORE PUSH1 0x40 SWAP1 KECCAK256 SLOAD PUSH2 0x3C27 SWAP1 DUP3 PUSH2 0x2FAF JUMP JUMPDEST ADDRESS PUSH1 0x0 SWAP1 DUP2 MSTORE PUSH1 0x13 PUSH1 0x20 MSTORE PUSH1 0x40 DUP1 DUP3 KECCAK256 SWAP3 SWAP1 SWAP3 SSTORE PUSH1 0x1 PUSH1 0x1 PUSH1 0xA0 SHL SUB DUP10 AND DUP2 MSTORE KECCAK256 SLOAD PUSH2 0x3C53 SWAP1 DUP5 PUSH2 0x2FAF JUMP JUMPDEST PUSH1 0x1 PUSH1 0x1 PUSH1 0xA0 SHL SUB DUP1 DUP10 AND PUSH1 0x0 DUP2 DUP2 MSTORE PUSH1 0x13 PUSH1 0x20 MSTORE PUSH1 0x40 SWAP1 DUP2 SWAP1 KECCAK256 SWAP4 SWAP1 SWAP4 SSTORE SWAP2 MLOAD SWAP1 DUP11 AND SWAP1 PUSH32 0xDDF252AD1BE2C89B69C2B068FC378DAA952BA7F163C4A11628F55A4DF523B3EF SWAP1 PUSH2 0x3CA7 SWAP1 DUP8 DUP2 MSTORE PUSH1 0x20 ADD SWAP1 JUMP JUMPDEST PUSH1 0x40 MLOAD DUP1 SWAP2 SUB SWAP1 LOG3 POP POP POP POP POP POP POP POP JUMP JUMPDEST PUSH2 0x3CC1 PUSH2 0x54D6 JUMP JUMPDEST PUSH1 0x40 MLOAD DUP1 PUSH2 0x660 ADD PUSH1 0x40 MSTORE DUP1 PUSH2 0x3CE3 PUSH4 0x1406F40 PUSH8 0xDE0B6B3A7640000 PUSH2 0x50CB JUMP JUMPDEST DUP2 MSTORE PUSH1 0x20 ADD PUSH1 0x0 DUP2 MSTORE PUSH1 0x20 ADD PUSH1 0x0 DUP2 MSTORE PUSH1 0x20 ADD PUSH1 0x0 DUP2 MSTORE PUSH1 0x20 ADD PUSH1 0x0 DUP2 MSTORE PUSH1 0x20 ADD PUSH1 0x0 DUP2 MSTORE PUSH1 0x20 ADD PUSH1 0x0 DUP2 MSTORE PUSH1 0x20 ADD PUSH1 0x0 DUP2 MSTORE PUSH1 0x20 ADD PUSH2 0x3D2F PUSH4 0x1406F40 PUSH8 0xDE0B6B3A7640000 PUSH2 0x50CB JUMP JUMPDEST DUP2 MSTORE PUSH1 0x20 ADD PUSH1 0x0 DUP2 MSTORE PUSH1 0x20 ADD PUSH1 0x0 DUP2 MSTORE PUSH1 0x20 ADD PUSH1 0x0 DUP2 MSTORE PUSH1 0x20 ADD PUSH1 0x0 DUP2 MSTORE PUSH1 0x20 ADD PUSH1 0x0 DUP2 MSTORE PUSH1 0x20 ADD PUSH1 0x0 DUP2 MSTORE PUSH1 0x20 ADD PUSH1 0x0 DUP2 MSTORE PUSH1 0x20 ADD PUSH2 0x3D7B PUSH4 0x3684B4B PUSH8 0xDE0B6B3A7640000 PUSH2 0x50CB JUMP JUMPDEST DUP2 MSTORE PUSH1 0x20 ADD PUSH2 0x3D96 PUSH4 0x3684B4B PUSH8 0xDE0B6B3A7640000 PUSH2 0x50CB JUMP JUMPDEST DUP2 MSTORE PUSH1 0x20 ADD PUSH2 0x3DB1 PUSH4 0x3684B4B PUSH8 0xDE0B6B3A7640000 PUSH2 0x50CB JUMP JUMPDEST DUP2 MSTORE PUSH1 0x20 ADD PUSH2 0x3DCC PUSH4 0x3684B4B PUSH8 0xDE0B6B3A7640000 PUSH2 0x50CB JUMP JUMPDEST DUP2 MSTORE PUSH1 0x20 ADD PUSH2 0x3DE7 PUSH4 0x3684B4B PUSH8 0xDE0B6B3A7640000 PUSH2 0x50CB JUMP JUMPDEST DUP2 MSTORE PUSH1 0x20 ADD PUSH2 0x3E02 PUSH4 0x3684B4B PUSH8 0xDE0B6B3A7640000 PUSH2 0x50CB JUMP JUMPDEST DUP2 MSTORE PUSH1 0x20 ADD PUSH2 0x3E1D PUSH4 0x3684B4B PUSH8 0xDE0B6B3A7640000 PUSH2 0x50CB JUMP JUMPDEST DUP2 MSTORE PUSH1 0x20 ADD PUSH2 0x3E38 PUSH4 0x3684B4B PUSH8 0xDE0B6B3A7640000 PUSH2 0x50CB JUMP JUMPDEST DUP2 MSTORE PUSH1 0x20 ADD PUSH2 0x3E53 PUSH4 0x3684B4B PUSH8 0xDE0B6B3A7640000 PUSH2 0x50CB JUMP JUMPDEST DUP2 MSTORE PUSH1 0x20 ADD PUSH2 0x3E6E PUSH4 0x3684B4B PUSH8 0xDE0B6B3A7640000 PUSH2 0x50CB JUMP JUMPDEST DUP2 MSTORE PUSH1 0x20 ADD PUSH2 0x3E89 PUSH4 0x3684B4B PUSH8 0xDE0B6B3A7640000 PUSH2 0x50CB JUMP JUMPDEST DUP2 MSTORE PUSH1 0x20 ADD PUSH2 0x3EA4 PUSH4 0x3684B4B PUSH8 0xDE0B6B3A7640000 PUSH2 0x50CB JUMP JUMPDEST DUP2 MSTORE PUSH1 0x20 ADD PUSH2 0x3EBF PUSH4 0x3684B4B PUSH8 0xDE0B6B3A7640000 PUSH2 0x50CB JUMP JUMPDEST DUP2 MSTORE PUSH1 0x20 ADD PUSH2 0x3EDA PUSH4 0x3684B4B PUSH8 0xDE0B6B3A7640000 PUSH2 0x50CB JUMP JUMPDEST DUP2 MSTORE PUSH1 0x20 ADD PUSH2 0x3EF5 PUSH4 0x3684B4B PUSH8 0xDE0B6B3A7640000 PUSH2 0x50CB JUMP JUMPDEST DUP2 MSTORE PUSH1 0x20 ADD PUSH2 0x3F10 PUSH4 0x3684B4B PUSH8 0xDE0B6B3A7640000 PUSH2 0x50CB JUMP JUMPDEST DUP2 MSTORE PUSH1 0x20 ADD PUSH2 0x3F2B PUSH4 0x3684B4B PUSH8 0xDE0B6B3A7640000 PUSH2 0x50CB JUMP JUMPDEST DUP2 MSTORE PUSH1 0x20 ADD PUSH2 0x3F46 PUSH4 0x3684B4B PUSH8 0xDE0B6B3A7640000 PUSH2 0x50CB JUMP JUMPDEST DUP2 MSTORE PUSH1 0x20 ADD PUSH2 0x3F61 PUSH4 0x3684B4B PUSH8 0xDE0B6B3A7640000 PUSH2 0x50CB JUMP JUMPDEST DUP2 MSTORE PUSH1 0x20 ADD PUSH2 0x3F7C PUSH4 0x3684B4B PUSH8 0xDE0B6B3A7640000 PUSH2 0x50CB JUMP JUMPDEST DUP2 MSTORE PUSH1 0x20 ADD PUSH2 0x3F97 PUSH4 0x3684B4B PUSH8 0xDE0B6B3A7640000 PUSH2 0x50CB JUMP JUMPDEST DUP2 MSTORE PUSH1 0x20 ADD PUSH2 0x3FB2 PUSH4 0x3684B4B PUSH8 0xDE0B6B3A7640000 PUSH2 0x50CB JUMP JUMPDEST DUP2 MSTORE PUSH1 0x20 ADD PUSH2 0x3FCD PUSH4 0x3684B4B PUSH8 0xDE0B6B3A7640000 PUSH2 0x50CB JUMP JUMPDEST DUP2 MSTORE PUSH1 0x20 ADD PUSH2 0x3FE8 PUSH4 0x3684B4B PUSH8 0xDE0B6B3A7640000 PUSH2 0x50CB JUMP JUMPDEST DUP2 MSTORE PUSH1 0x20 ADD PUSH2 0x4003 PUSH4 0x3684B4B PUSH8 0xDE0B6B3A7640000 PUSH2 0x50CB JUMP JUMPDEST DUP2 MSTORE PUSH1 0x20 ADD PUSH2 0x401E PUSH4 0x3684B4B PUSH8 0xDE0B6B3A7640000 PUSH2 0x50CB JUMP JUMPDEST DUP2 MSTORE PUSH1 0x20 ADD PUSH2 0x4039 PUSH4 0x3684B4B PUSH8 0xDE0B6B3A7640000 PUSH2 0x50CB JUMP JUMPDEST DUP2 MSTORE PUSH1 0x20 ADD PUSH2 0x4054 PUSH4 0x3684B4B PUSH8 0xDE0B6B3A7640000 PUSH2 0x50CB JUMP JUMPDEST DUP2 MSTORE PUSH1 0x20 ADD PUSH2 0x406F PUSH4 0x3684B4B PUSH8 0xDE0B6B3A7640000 PUSH2 0x50CB JUMP JUMPDEST DUP2 MSTORE PUSH1 0x20 ADD PUSH2 0x408A PUSH4 0x3684B4B PUSH8 0xDE0B6B3A7640000 PUSH2 0x50CB JUMP JUMPDEST DUP2 MSTORE PUSH1 0x20 ADD PUSH2 0x40A5 PUSH4 0x3684B4B PUSH8 0xDE0B6B3A7640000 PUSH2 0x50CB JUMP JUMPDEST DUP2 MSTORE PUSH1 0x20 ADD PUSH2 0x40C0 PUSH4 0x3684B4B PUSH8 0xDE0B6B3A7640000 PUSH2 0x50CB JUMP JUMPDEST DUP2 MSTORE PUSH1 0x20 ADD PUSH2 0x40DB PUSH4 0x3684B4B PUSH8 0xDE0B6B3A7640000 PUSH2 0x50CB JUMP JUMPDEST DUP2 MSTORE PUSH1 0x20 ADD PUSH2 0x40F6 PUSH4 0x3684B4B PUSH8 0xDE0B6B3A7640000 PUSH2 0x50CB JUMP JUMPDEST DUP2 MSTORE PUSH1 0x20 ADD PUSH2 0x37DE PUSH4 0x3684B4B PUSH8 0xDE0B6B3A7640000 PUSH2 0x50CB JUMP JUMPDEST PUSH1 0x1 PUSH1 0x1 PUSH1 0xA0 SHL SUB DUP3 AND PUSH2 0x4167 JUMPI PUSH1 0x40 MLOAD PUSH3 0x461BCD PUSH1 0xE5 SHL DUP2 MSTORE PUSH1 0x20 PUSH1 0x4 DUP3 ADD MSTORE PUSH1 0x1F PUSH1 0x24 DUP3 ADD MSTORE PUSH32 0x45524332303A206D696E7420746F20746865207A65726F206164647265737300 PUSH1 0x44 DUP3 ADD MSTORE PUSH1 0x64 ADD PUSH2 0xFCA JUMP JUMPDEST DUP1 PUSH1 0x2 PUSH1 0x0 DUP3 DUP3 SLOAD PUSH2 0x4179 SWAP2 SWAP1 PUSH2 0x58E2 JUMP JUMPDEST SWAP1 SWAP2 SSTORE POP POP PUSH1 0x1 PUSH1 0x1 PUSH1 0xA0 SHL SUB DUP3 AND PUSH1 0x0 SWAP1 DUP2 MSTORE PUSH1 0x20 DUP2 SWAP1 MSTORE PUSH1 0x40 DUP2 KECCAK256 DUP1 SLOAD DUP4 SWAP3 SWAP1 PUSH2 0x41A6 SWAP1 DUP5 SWAP1 PUSH2 0x58E2 JUMP JUMPDEST SWAP1 SWAP2 SSTORE POP POP PUSH1 0x40 MLOAD DUP2 DUP2 MSTORE PUSH1 0x1 PUSH1 0x1 PUSH1 0xA0 SHL SUB DUP4 AND SWAP1 PUSH1 0x0 SWAP1 PUSH32 0xDDF252AD1BE2C89B69C2B068FC378DAA952BA7F163C4A11628F55A4DF523B3EF SWAP1 PUSH1 0x20 ADD PUSH1 0x40 MLOAD DUP1 SWAP2 SUB SWAP1 LOG3 POP POP JUMP JUMPDEST PUSH1 0x1 PUSH1 0x1 PUSH1 0xA0 SHL SUB DUP3 AND PUSH2 0x426C JUMPI PUSH1 0x40 MLOAD PUSH3 0x461BCD PUSH1 0xE5 SHL DUP2 MSTORE PUSH1 0x20 PUSH1 0x4 DUP3 ADD MSTORE PUSH1 0x21 PUSH1 0x24 DUP3 ADD MSTORE PUSH32 0x45524332303A206275726E2066726F6D20746865207A65726F20616464726573 PUSH1 0x44 DUP3 ADD MSTORE PUSH32 0x7300000000000000000000000000000000000000000000000000000000000000 PUSH1 0x64 DUP3 ADD MSTORE PUSH1 0x84 ADD PUSH2 0xFCA JUMP JUMPDEST PUSH1 0x1 PUSH1 0x1 PUSH1 0xA0 SHL SUB DUP3 AND PUSH1 0x0 SWAP1 DUP2 MSTORE PUSH1 0x13 PUSH1 0x20 MSTORE PUSH1 0x40 SWAP1 KECCAK256 SLOAD DUP2 DUP2 LT ISZERO PUSH2 0x42FB JUMPI PUSH1 0x40 MLOAD PUSH3 0x461BCD PUSH1 0xE5 SHL DUP2 MSTORE PUSH1 0x20 PUSH1 0x4 DUP3 ADD MSTORE PUSH1 0x22 PUSH1 0x24 DUP3 ADD MSTORE PUSH32 0x45524332303A206275726E20616D6F756E7420657863656564732062616C616E PUSH1 0x44 DUP3 ADD MSTORE PUSH32 0x6365000000000000000000000000000000000000000000000000000000000000 PUSH1 0x64 DUP3 ADD MSTORE PUSH1 0x84 ADD PUSH2 0xFCA JUMP JUMPDEST PUSH1 0x1 PUSH1 0x1 PUSH1 0xA0 SHL SUB DUP4 AND PUSH1 0x0 SWAP1 DUP2 MSTORE PUSH1 0x13 PUSH1 0x20 MSTORE PUSH1 0x40 DUP2 KECCAK256 DUP4 DUP4 SUB SWAP1 SSTORE PUSH1 0x15 DUP1 SLOAD DUP5 SWAP3 SWAP1 PUSH2 0x432A SWAP1 DUP5 SWAP1 PUSH2 0x57F4 JUMP JUMPDEST SWAP1 SWAP2 SSTORE POP POP PUSH1 0x40 MLOAD DUP3 DUP2 MSTORE PUSH1 0x0 SWAP1 PUSH1 0x1 PUSH1 0x1 PUSH1 0xA0 SHL SUB DUP6 AND SWAP1 PUSH32 0xDDF252AD1BE2C89B69C2B068FC378DAA952BA7F163C4A11628F55A4DF523B3EF SWAP1 PUSH1 0x20 ADD PUSH2 0x224D JUMP JUMPDEST PUSH1 0x1 PUSH1 0x1 PUSH1 0xA0 SHL SUB DUP1 DUP3 AND PUSH1 0x0 SWAP1 DUP2 MSTORE PUSH1 0xE PUSH1 0x20 SWAP1 DUP2 MSTORE PUSH1 0x40 DUP1 DUP4 KECCAK256 DUP2 MLOAD PUSH2 0x140 DUP2 ADD DUP4 MSTORE DUP2 SLOAD DUP7 AND PUSH1 0x60 DUP3 ADD SWAP1 DUP2 MSTORE PUSH1 0x1 DUP4 ADD SLOAD PUSH1 0x80 DUP4 ADD DUP2 SWAP1 MSTORE PUSH1 0x2 DUP5 ADD SLOAD PUSH1 0xA0 DUP5 ADD MSTORE PUSH1 0x3 DUP5 ADD SLOAD PUSH1 0xC0 DUP5 ADD MSTORE PUSH1 0x4 DUP5 ADD SLOAD PUSH1 0xE0 DUP5 ADD MSTORE PUSH1 0x5 DUP5 ADD SLOAD PUSH2 0x100 DUP5 ADD MSTORE PUSH1 0x6 DUP5 ADD SLOAD PUSH2 0x120 DUP5 ADD MSTORE SWAP1 DUP3 MSTORE PUSH1 0x7 DUP4 ADD SLOAD SWAP1 SWAP7 AND SWAP4 DUP2 ADD SWAP4 SWAP1 SWAP4 MSTORE PUSH1 0x8 ADD SLOAD SWAP1 DUP3 ADD MSTORE SWAP1 SWAP2 PUSH2 0x4402 SWAP1 PUSH2 0x37E5 JUMP JUMPDEST PUSH1 0x0 PUSH2 0x4411 DUP3 PUSH1 0x40 ADD MLOAD PUSH2 0x38C8 JUMP JUMPDEST GT PUSH2 0x445E JUMPI PUSH1 0x40 MLOAD PUSH3 0x461BCD PUSH1 0xE5 SHL DUP2 MSTORE PUSH1 0x20 PUSH1 0x4 DUP3 ADD MSTORE PUSH1 0x15 PUSH1 0x24 DUP3 ADD MSTORE PUSH32 0x436C61696D61626C65206F6E63652061207765656B0000000000000000000000 PUSH1 0x44 DUP3 ADD MSTORE PUSH1 0x64 ADD PUSH2 0xFCA JUMP JUMPDEST DUP1 MLOAD PUSH1 0x0 PUSH1 0x80 SWAP1 SWAP2 ADD MSTORE TIMESTAMP PUSH1 0x40 DUP3 ADD MSTORE DUP1 MLOAD PUSH1 0x20 ADD MLOAD PUSH2 0x2FA8 SWAP1 PUSH2 0x38E1 JUMP JUMPDEST PUSH1 0x5 DUP1 SLOAD PUSH1 0x1 PUSH1 0x1 PUSH1 0xA0 SHL SUB DUP4 DUP2 AND PUSH1 0x1 PUSH1 0x1 PUSH1 0xA0 SHL SUB NOT DUP4 AND DUP2 OR SWAP1 SWAP4 SSTORE PUSH1 0x40 MLOAD SWAP2 AND SWAP2 SWAP1 DUP3 SWAP1 PUSH32 0x8BE0079C531659141344CD1FD0A4F28419497F9722A3DAAFE3B4186F6B6457E0 SWAP1 PUSH1 0x0 SWAP1 LOG3 POP POP JUMP JUMPDEST PUSH1 0x0 DUP4 GT PUSH2 0x451F JUMPI PUSH1 0x40 MLOAD PUSH3 0x461BCD PUSH1 0xE5 SHL DUP2 MSTORE PUSH1 0x20 PUSH1 0x4 DUP3 ADD MSTORE PUSH1 0x14 PUSH1 0x24 DUP3 ADD MSTORE PUSH32 0x43616E6E6F74207374616B65206E6F7468696E67000000000000000000000000 PUSH1 0x44 DUP3 ADD MSTORE PUSH1 0x64 ADD PUSH2 0xFCA JUMP JUMPDEST PUSH1 0x1 PUSH1 0x1 PUSH1 0xA0 SHL SUB DUP5 AND PUSH1 0x0 SWAP1 DUP2 MSTORE PUSH1 0xE PUSH1 0x20 MSTORE PUSH1 0x40 SWAP1 KECCAK256 PUSH1 0x1 ADD SLOAD ISZERO PUSH2 0x4588 JUMPI PUSH1 0x40 MLOAD PUSH3 0x461BCD PUSH1 0xE5 SHL DUP2 MSTORE PUSH1 0x20 PUSH1 0x4 DUP3 ADD MSTORE PUSH1 0x10 PUSH1 0x24 DUP3 ADD MSTORE PUSH32 0x557365722069732061207374616B657200000000000000000000000000000000 PUSH1 0x44 DUP3 ADD MSTORE PUSH1 0x64 ADD PUSH2 0xFCA JUMP JUMPDEST PUSH1 0x1 PUSH1 0xB PUSH1 0x0 DUP3 DUP3 SLOAD PUSH2 0x459B SWAP2 SWAP1 PUSH2 0x58E2 JUMP JUMPDEST SWAP1 SWAP2 SSTORE POP POP PUSH1 0x1 PUSH1 0x1 PUSH1 0xA0 SHL SUB DUP5 AND PUSH1 0x0 DUP2 DUP2 MSTORE PUSH1 0xC PUSH1 0x20 SWAP1 DUP2 MSTORE PUSH1 0x40 DUP1 DUP4 KECCAK256 DUP1 SLOAD PUSH1 0xFF NOT AND PUSH1 0x1 OR SWAP1 SSTORE DUP1 MLOAD PUSH1 0xE0 DUP2 ADD DUP3 MSTORE SWAP4 DUP5 MSTORE SWAP1 DUP4 ADD DUP7 SWAP1 MSTORE TIMESTAMP SWAP1 DUP4 ADD DUP2 SWAP1 MSTORE PUSH1 0x60 DUP4 ADD DUP3 SWAP1 MSTORE PUSH1 0x80 DUP4 ADD SWAP2 SWAP1 SWAP2 MSTORE PUSH1 0xA0 DUP3 ADD DUP4 SWAP1 MSTORE SWAP1 PUSH1 0xC0 DUP2 ADD PUSH2 0x4603 DUP4 DUP7 PUSH2 0x58E2 JUMP JUMPDEST SWAP1 MSTORE PUSH1 0x1 PUSH1 0x1 PUSH1 0xA0 SHL SUB DUP7 DUP2 AND PUSH1 0x0 DUP2 DUP2 MSTORE PUSH1 0xE PUSH1 0x20 SWAP1 DUP2 MSTORE PUSH1 0x40 SWAP2 DUP3 SWAP1 KECCAK256 DUP6 MLOAD DUP2 SLOAD PUSH1 0x1 PUSH1 0x1 PUSH1 0xA0 SHL SUB NOT AND SWAP6 AND SWAP5 SWAP1 SWAP5 OR DUP5 SSTORE DUP5 ADD MLOAD PUSH1 0x1 DUP5 ADD SSTORE DUP4 ADD MLOAD PUSH1 0x2 DUP4 ADD SSTORE PUSH1 0x60 DUP4 ADD MLOAD PUSH1 0x3 DUP4 ADD SSTORE PUSH1 0x80 DUP4 ADD MLOAD PUSH1 0x4 DUP4 ADD SSTORE PUSH1 0xA0 DUP4 ADD MLOAD PUSH1 0x5 DUP4 ADD SSTORE PUSH1 0xC0 SWAP1 SWAP3 ADD MLOAD PUSH1 0x6 SWAP1 SWAP2 ADD SSTORE PUSH32 0xB4CAAF29ADDA3EEFEE3AD552A8E85058589BF834C7466CAE4EE58787F70589ED DUP6 DUP4 PUSH2 0x469F DUP2 DUP9 PUSH2 0x58E2 JUMP JUMPDEST PUSH1 0x40 DUP1 MLOAD SWAP4 DUP5 MSTORE PUSH1 0x20 DUP5 ADD SWAP3 SWAP1 SWAP3 MSTORE SWAP1 DUP3 ADD MSTORE PUSH1 0x60 ADD PUSH1 0x40 MLOAD DUP1 SWAP2 SUB SWAP1 LOG2 POP POP POP POP POP JUMP JUMPDEST PUSH1 0x1 PUSH1 0x1 PUSH1 0xA0 SHL SUB DUP2 AND PUSH1 0x0 SWAP1 DUP2 MSTORE PUSH1 0x12 PUSH1 0x20 MSTORE PUSH1 0x40 DUP2 KECCAK256 PUSH1 0x1 ADD SLOAD PUSH2 0x472C JUMPI PUSH1 0x40 MLOAD PUSH3 0x461BCD PUSH1 0xE5 SHL DUP2 MSTORE PUSH1 0x20 PUSH1 0x4 DUP3 ADD MSTORE PUSH1 0xE PUSH1 0x24 DUP3 ADD MSTORE PUSH32 0x4E6F20546F6B656E73204C656674000000000000000000000000000000000000 PUSH1 0x44 DUP3 ADD MSTORE PUSH1 0x64 ADD PUSH2 0xFCA JUMP JUMPDEST PUSH1 0x0 PUSH2 0x4737 DUP4 PUSH2 0x5189 JUMP JUMPDEST SWAP1 POP PUSH1 0x0 DUP2 GT PUSH2 0x4789 JUMPI PUSH1 0x40 MLOAD PUSH3 0x461BCD PUSH1 0xE5 SHL DUP2 MSTORE PUSH1 0x20 PUSH1 0x4 DUP3 ADD MSTORE PUSH1 0x1C PUSH1 0x24 DUP3 ADD MSTORE PUSH32 0x4E6F20546F6B656E7320746F2052656C6561736520666F72204E6F7700000000 PUSH1 0x44 DUP3 ADD MSTORE PUSH1 0x64 ADD PUSH2 0xFCA JUMP JUMPDEST PUSH1 0x1 PUSH1 0x1 PUSH1 0xA0 SHL SUB DUP4 AND PUSH1 0x0 SWAP1 DUP2 MSTORE PUSH1 0x12 PUSH1 0x20 MSTORE PUSH1 0x40 SWAP1 KECCAK256 PUSH1 0x1 ADD SLOAD PUSH2 0x47AF SWAP1 DUP3 PUSH2 0x3336 JUMP JUMPDEST PUSH1 0x1 PUSH1 0x1 PUSH1 0xA0 SHL SUB SWAP1 SWAP4 AND PUSH1 0x0 SWAP1 DUP2 MSTORE PUSH1 0x12 PUSH1 0x20 MSTORE PUSH1 0x40 SWAP1 KECCAK256 PUSH1 0x1 ADD SWAP3 SWAP1 SWAP3 SSTORE POP SWAP1 JUMP JUMPDEST PUSH1 0x1E DUP2 GT ISZERO PUSH2 0x4849 JUMPI PUSH1 0x40 MLOAD PUSH3 0x461BCD PUSH1 0xE5 SHL DUP2 MSTORE PUSH1 0x20 PUSH1 0x4 DUP3 ADD MSTORE PUSH1 0x24 DUP1 DUP3 ADD MSTORE PUSH32 0x50656E616C7479206665652063616E6E6F742065786365656420332070657263 PUSH1 0x44 DUP3 ADD MSTORE PUSH32 0x656E742E00000000000000000000000000000000000000000000000000000000 PUSH1 0x64 DUP3 ADD MSTORE PUSH1 0x84 ADD PUSH2 0xFCA JUMP JUMPDEST PUSH1 0x6 DUP2 SWAP1 SSTORE PUSH1 0x40 MLOAD DUP2 DUP2 MSTORE PUSH32 0xCFA4F4CF1CD64D13A167A8E75605E0C0C9D6700E903D17C5DC11F593254A04A9 SWAP1 PUSH1 0x20 ADD JUMPDEST PUSH1 0x40 MLOAD DUP1 SWAP2 SUB SWAP1 LOG1 POP JUMP JUMPDEST PUSH1 0x0 PUSH2 0x488F PUSH2 0x2FBB JUMP JUMPDEST PUSH1 0x1 PUSH1 0xB SLOAD GT PUSH2 0x48E1 JUMPI PUSH1 0x40 MLOAD PUSH3 0x461BCD PUSH1 0xE5 SHL DUP2 MSTORE PUSH1 0x20 PUSH1 0x4 DUP3 ADD MSTORE PUSH1 0x11 PUSH1 0x24 DUP3 ADD MSTORE PUSH32 0x4E6F7420656E6F75676820766F74657273000000000000000000000000000000 PUSH1 0x44 DUP3 ADD MSTORE PUSH1 0x64 ADD PUSH2 0xFCA JUMP JUMPDEST PUSH1 0x0 PUSH2 0x48F3 PUSH2 0x3BE9 PUSH1 0xB SLOAD PUSH1 0x5 PUSH2 0x50CB JUMP JUMPDEST PUSH1 0xA SLOAD PUSH1 0x0 SWAP1 DUP2 MSTORE PUSH1 0xD PUSH1 0x20 MSTORE PUSH1 0x40 SWAP1 KECCAK256 SLOAD SWAP1 SWAP2 POP DUP2 LT ISZERO PUSH2 0x4917 JUMPI PUSH1 0x1 SWAP2 POP POP SWAP1 JUMP JUMPDEST PUSH1 0x0 SWAP2 POP POP SWAP1 JUMP JUMPDEST PUSH2 0x4927 PUSH2 0x2FBB JUMP JUMPDEST PUSH1 0x9 DUP1 SLOAD PUSH1 0xFF NOT AND SWAP1 SSTORE JUMP JUMPDEST PUSH2 0x493B PUSH2 0x54D6 JUMP JUMPDEST PUSH1 0x40 MLOAD DUP1 PUSH2 0x660 ADD PUSH1 0x40 MSTORE DUP1 PUSH2 0x495C PUSH3 0x42B0C1 PUSH8 0xDE0B6B3A7640000 PUSH2 0x50CB JUMP JUMPDEST DUP2 MSTORE PUSH1 0x20 ADD PUSH2 0x4976 PUSH3 0x42B0C1 PUSH8 0xDE0B6B3A7640000 PUSH2 0x50CB JUMP JUMPDEST DUP2 MSTORE PUSH1 0x20 ADD PUSH2 0x4990 PUSH3 0x42B0C1 PUSH8 0xDE0B6B3A7640000 PUSH2 0x50CB JUMP JUMPDEST DUP2 MSTORE PUSH1 0x20 ADD PUSH2 0x49AA PUSH3 0x42B0C1 PUSH8 0xDE0B6B3A7640000 PUSH2 0x50CB JUMP JUMPDEST DUP2 MSTORE PUSH1 0x20 ADD PUSH2 0x49C4 PUSH3 0x42B0C1 PUSH8 0xDE0B6B3A7640000 PUSH2 0x50CB JUMP JUMPDEST DUP2 MSTORE PUSH1 0x20 ADD PUSH2 0x49DE PUSH3 0x42B0C1 PUSH8 0xDE0B6B3A7640000 PUSH2 0x50CB JUMP JUMPDEST DUP2 MSTORE PUSH1 0x20 ADD PUSH2 0x49F8 PUSH3 0x42B0C1 PUSH8 0xDE0B6B3A7640000 PUSH2 0x50CB JUMP JUMPDEST DUP2 MSTORE PUSH1 0x20 ADD PUSH2 0x4A12 PUSH3 0x42B0C1 PUSH8 0xDE0B6B3A7640000 PUSH2 0x50CB JUMP JUMPDEST DUP2 MSTORE PUSH1 0x20 ADD PUSH2 0x4A2C PUSH3 0x42B0C1 PUSH8 0xDE0B6B3A7640000 PUSH2 0x50CB JUMP JUMPDEST DUP2 MSTORE PUSH1 0x20 ADD PUSH2 0x4A46 PUSH3 0x42B0C1 PUSH8 0xDE0B6B3A7640000 PUSH2 0x50CB JUMP JUMPDEST DUP2 MSTORE PUSH1 0x20 ADD PUSH2 0x4A60 PUSH3 0x42B0C1 PUSH8 0xDE0B6B3A7640000 PUSH2 0x50CB JUMP JUMPDEST DUP2 MSTORE PUSH1 0x20 ADD PUSH2 0x4A7A PUSH3 0x42B0C1 PUSH8 0xDE0B6B3A7640000 PUSH2 0x50CB JUMP JUMPDEST DUP2 MSTORE PUSH1 0x20 ADD PUSH2 0x4A94 PUSH3 0x42B0C1 PUSH8 0xDE0B6B3A7640000 PUSH2 0x50CB JUMP JUMPDEST DUP2 MSTORE PUSH1 0x20 ADD PUSH2 0x4AAE PUSH3 0x42B0C1 PUSH8 0xDE0B6B3A7640000 PUSH2 0x50CB JUMP JUMPDEST DUP2 MSTORE PUSH1 0x20 ADD PUSH2 0x4AC8 PUSH3 0x42B0C1 PUSH8 0xDE0B6B3A7640000 PUSH2 0x50CB JUMP JUMPDEST DUP2 MSTORE PUSH1 0x20 ADD PUSH2 0x4AE2 PUSH3 0x42B0C1 PUSH8 0xDE0B6B3A7640000 PUSH2 0x50CB JUMP JUMPDEST DUP2 MSTORE PUSH1 0x20 ADD PUSH2 0x4AFD PUSH4 0x320490C PUSH8 0xDE0B6B3A7640000 PUSH2 0x50CB JUMP JUMPDEST DUP2 MSTORE PUSH1 0x20 ADD PUSH2 0x4B18 PUSH4 0x320490C PUSH8 0xDE0B6B3A7640000 PUSH2 0x50CB JUMP JUMPDEST DUP2 MSTORE PUSH1 0x20 ADD PUSH2 0x4B33 PUSH4 0x320490C PUSH8 0xDE0B6B3A7640000 PUSH2 0x50CB JUMP JUMPDEST DUP2 MSTORE PUSH1 0x20 ADD PUSH2 0x4B4E PUSH4 0x320490C PUSH8 0xDE0B6B3A7640000 PUSH2 0x50CB JUMP JUMPDEST DUP2 MSTORE PUSH1 0x20 ADD PUSH2 0x4B69 PUSH4 0x320490C PUSH8 0xDE0B6B3A7640000 PUSH2 0x50CB JUMP JUMPDEST DUP2 MSTORE PUSH1 0x20 ADD PUSH2 0x4B84 PUSH4 0x320490C PUSH8 0xDE0B6B3A7640000 PUSH2 0x50CB JUMP JUMPDEST DUP2 MSTORE PUSH1 0x20 ADD PUSH2 0x4B9F PUSH4 0x320490C PUSH8 0xDE0B6B3A7640000 PUSH2 0x50CB JUMP JUMPDEST DUP2 MSTORE PUSH1 0x20 ADD PUSH2 0x4BBA PUSH4 0x320490C PUSH8 0xDE0B6B3A7640000 PUSH2 0x50CB JUMP JUMPDEST DUP2 MSTORE PUSH1 0x20 ADD PUSH2 0x4BD5 PUSH4 0x320490C PUSH8 0xDE0B6B3A7640000 PUSH2 0x50CB JUMP JUMPDEST DUP2 MSTORE PUSH1 0x20 ADD PUSH2 0x4BF0 PUSH4 0x320490C PUSH8 0xDE0B6B3A7640000 PUSH2 0x50CB JUMP JUMPDEST DUP2 MSTORE PUSH1 0x20 ADD PUSH2 0x4C0B PUSH4 0x320490C PUSH8 0xDE0B6B3A7640000 PUSH2 0x50CB JUMP JUMPDEST DUP2 MSTORE PUSH1 0x20 ADD PUSH2 0x4C26 PUSH4 0x320490C PUSH8 0xDE0B6B3A7640000 PUSH2 0x50CB JUMP JUMPDEST DUP2 MSTORE PUSH1 0x20 ADD PUSH1 0x0 DUP2 MSTORE PUSH1 0x20 ADD PUSH1 0x0 DUP2 MSTORE PUSH1 0x20 ADD PUSH1 0x0 DUP2 MSTORE PUSH1 0x20 ADD PUSH1 0x0 DUP2 MSTORE PUSH1 0x20 ADD PUSH1 0x0 DUP2 MSTORE PUSH1 0x20 ADD PUSH1 0x0 DUP2 MSTORE PUSH1 0x20 ADD PUSH1 0x0 DUP2 MSTORE PUSH1 0x20 ADD PUSH1 0x0 DUP2 MSTORE PUSH1 0x20 ADD PUSH1 0x0 DUP2 MSTORE PUSH1 0x20 ADD PUSH1 0x0 DUP2 MSTORE PUSH1 0x20 ADD PUSH1 0x0 DUP2 MSTORE PUSH1 0x20 ADD PUSH1 0x0 DUP2 MSTORE PUSH1 0x20 ADD PUSH1 0x0 DUP2 MSTORE PUSH1 0x20 ADD PUSH1 0x0 DUP2 MSTORE PUSH1 0x20 ADD PUSH1 0x0 DUP2 MSTORE PUSH1 0x20 ADD PUSH1 0x0 DUP2 MSTORE PUSH1 0x20 ADD PUSH1 0x0 DUP2 MSTORE PUSH1 0x20 ADD PUSH1 0x0 DUP2 MSTORE PUSH1 0x20 ADD PUSH1 0x0 DUP2 MSTORE PUSH1 0x20 ADD PUSH1 0x0 DUP2 MSTORE PUSH1 0x20 ADD PUSH1 0x0 DUP2 MSTORE PUSH1 0x20 ADD PUSH1 0x0 DUP2 MSTORE PUSH1 0x20 ADD PUSH1 0x0 DUP2 MSTORE POP SWAP1 POP SWAP1 JUMP JUMPDEST PUSH1 0x19 SLOAD PUSH2 0x4CDC SWAP1 DUP3 PUSH2 0x2FAF JUMP JUMPDEST PUSH1 0x19 SSTORE PUSH1 0x15 SLOAD PUSH2 0x4CEC SWAP1 DUP3 PUSH2 0x2FAF JUMP JUMPDEST PUSH1 0x15 SSTORE PUSH1 0x40 MLOAD DUP2 DUP2 MSTORE ADDRESS SWAP1 PUSH1 0x0 SWAP1 PUSH32 0x715128EA18BCB5A472F8187C4FBFDC1ED6D04ECDCFF67E3F546FDD075E862665 SWAP1 PUSH1 0x20 ADD PUSH2 0x128A JUMP JUMPDEST PUSH1 0x1 PUSH1 0x1 PUSH1 0xA0 SHL SUB DUP2 AND PUSH1 0x0 SWAP1 DUP2 MSTORE PUSH1 0x12 PUSH1 0x20 MSTORE PUSH1 0x40 DUP2 KECCAK256 PUSH1 0x1 ADD SLOAD PUSH2 0x4D8C JUMPI PUSH1 0x40 MLOAD PUSH3 0x461BCD PUSH1 0xE5 SHL DUP2 MSTORE PUSH1 0x20 PUSH1 0x4 DUP3 ADD MSTORE PUSH1 0x13 PUSH1 0x24 DUP3 ADD MSTORE PUSH32 0x55736572206E6F74205265676973746572656400000000000000000000000000 PUSH1 0x44 DUP3 ADD MSTORE PUSH1 0x64 ADD PUSH2 0xFCA JUMP JUMPDEST PUSH1 0x1 PUSH1 0xF PUSH1 0x0 DUP3 DUP3 SLOAD PUSH2 0x4D9F SWAP2 SWAP1 PUSH2 0x57F4 JUMP JUMPDEST SWAP1 SWAP2 SSTORE POP POP PUSH1 0x1 PUSH1 0x1 PUSH1 0xA0 SHL SUB DUP3 AND PUSH1 0x0 SWAP1 DUP2 MSTORE PUSH1 0x12 PUSH1 0x20 MSTORE PUSH1 0x40 DUP2 KECCAK256 PUSH1 0x1 ADD SLOAD PUSH1 0x10 DUP1 SLOAD SWAP2 SWAP3 SWAP1 SWAP2 PUSH2 0x4DD3 SWAP1 DUP5 SWAP1 PUSH2 0x58E2 JUMP JUMPDEST SWAP1 SWAP2 SSTORE POP POP POP PUSH1 0x1 PUSH1 0x1 PUSH1 0xA0 SHL SUB AND PUSH1 0x0 SWAP1 DUP2 MSTORE PUSH1 0x12 PUSH1 0x20 MSTORE PUSH1 0x40 DUP2 KECCAK256 PUSH1 0x1 DUP2 ADD DUP1 SLOAD DUP4 DUP4 SSTORE SWAP1 DUP4 SWAP1 SSTORE PUSH1 0x2 DUP3 ADD DUP1 SLOAD PUSH1 0xFF NOT AND SWAP1 SSTORE PUSH1 0x3 SWAP1 SWAP2 ADD SWAP2 SWAP1 SWAP2 SSTORE SWAP1 JUMP JUMPDEST PUSH1 0x1 PUSH1 0x1 PUSH1 0xA0 SHL SUB DUP1 DUP3 AND PUSH1 0x0 SWAP1 DUP2 MSTORE PUSH1 0xE PUSH1 0x20 SWAP1 DUP2 MSTORE PUSH1 0x40 DUP1 DUP4 KECCAK256 DUP2 MLOAD PUSH1 0xE0 DUP2 ADD DUP4 MSTORE DUP2 SLOAD SWAP1 SWAP6 AND DUP6 MSTORE PUSH1 0x1 DUP2 ADD SLOAD SWAP3 DUP6 ADD SWAP3 SWAP1 SWAP3 MSTORE PUSH1 0x2 DUP3 ADD SLOAD SWAP1 DUP5 ADD MSTORE PUSH1 0x3 DUP2 ADD SLOAD PUSH1 0x60 DUP5 ADD MSTORE PUSH1 0x4 DUP2 ADD SLOAD PUSH1 0x80 DUP5 ADD MSTORE PUSH1 0x5 DUP2 ADD SLOAD PUSH1 0xA0 DUP5 ADD MSTORE PUSH1 0x6 ADD SLOAD PUSH1 0xC0 DUP4 ADD MSTORE SWAP1 DUP2 SWAP1 DUP2 PUSH2 0x4E89 DUP3 PUSH2 0x3835 JUMP JUMPDEST PUSH1 0x1 PUSH1 0x1 PUSH1 0xA0 SHL SUB DUP7 AND PUSH1 0x0 SWAP1 DUP2 MSTORE PUSH1 0xE PUSH1 0x20 MSTORE PUSH1 0x40 DUP2 KECCAK256 DUP1 SLOAD PUSH1 0x1 PUSH1 0x1 PUSH1 0xA0 SHL SUB NOT SWAP1 DUP2 AND DUP3 SSTORE PUSH1 0x1 DUP3 ADD DUP4 SWAP1 SSTORE PUSH1 0x2 DUP3 ADD DUP4 SWAP1 SSTORE PUSH1 0x3 DUP3 ADD DUP4 SWAP1 SSTORE PUSH1 0x4 DUP3 ADD DUP4 SWAP1 SSTORE PUSH1 0x5 DUP3 ADD DUP4 SWAP1 SSTORE PUSH1 0x6 DUP3 ADD DUP4 SWAP1 SSTORE PUSH1 0x7 DUP3 ADD DUP1 SLOAD SWAP1 SWAP2 AND SWAP1 SSTORE PUSH1 0x8 ADD SSTORE PUSH1 0xC0 DUP4 ADD MLOAD SWAP1 SWAP2 POP TIMESTAMP LT ISZERO PUSH2 0x4F59 JUMPI PUSH1 0x1 PUSH1 0xB PUSH1 0x0 DUP3 DUP3 SLOAD PUSH2 0x4F0C SWAP2 SWAP1 PUSH2 0x57F4 JUMP JUMPDEST SWAP1 SWAP2 SSTORE POP POP PUSH1 0x1 PUSH1 0x1 PUSH1 0xA0 SHL SUB DUP6 AND PUSH1 0x0 SWAP1 DUP2 MSTORE PUSH1 0xC PUSH1 0x20 SWAP1 DUP2 MSTORE PUSH1 0x40 DUP1 DUP4 KECCAK256 PUSH1 0xA SLOAD DUP5 MSTORE PUSH1 0x1 ADD DUP3 MSTORE SWAP1 SWAP2 KECCAK256 DUP1 SLOAD PUSH1 0xFF NOT AND SWAP1 SSTORE DUP3 ADD MLOAD PUSH2 0x4F4E SWAP1 DUP3 PUSH2 0x53F0 JUMP JUMPDEST SWAP4 POP SWAP4 POP POP POP SWAP2 POP SWAP2 JUMP JUMPDEST PUSH1 0x1 PUSH1 0xB PUSH1 0x0 DUP3 DUP3 SLOAD PUSH2 0x4F6C SWAP2 SWAP1 PUSH2 0x57F4 JUMP JUMPDEST SWAP1 SWAP2 SSTORE POP POP PUSH1 0x1 PUSH1 0x1 PUSH1 0xA0 SHL SUB SWAP1 SWAP5 AND PUSH1 0x0 SWAP1 DUP2 MSTORE PUSH1 0xC PUSH1 0x20 SWAP1 DUP2 MSTORE PUSH1 0x40 DUP1 DUP4 KECCAK256 PUSH1 0xA SLOAD DUP5 MSTORE PUSH1 0x1 ADD DUP3 MSTORE SWAP1 SWAP2 KECCAK256 DUP1 SLOAD PUSH1 0xFF NOT AND SWAP1 SSTORE ADD MLOAD SWAP4 SWAP2 POP POP JUMP JUMPDEST PUSH1 0x9 SLOAD PUSH1 0xFF AND ISZERO PUSH2 0x4FFD JUMPI PUSH1 0x40 MLOAD PUSH3 0x461BCD PUSH1 0xE5 SHL DUP2 MSTORE PUSH1 0x20 PUSH1 0x4 DUP3 ADD MSTORE PUSH1 0x19 PUSH1 0x24 DUP3 ADD MSTORE PUSH32 0x566F74696E6720697320616C72656164792072756E6E696E6700000000000000 PUSH1 0x44 DUP3 ADD MSTORE PUSH1 0x64 ADD PUSH2 0xFCA JUMP JUMPDEST PUSH1 0x9 DUP1 SLOAD PUSH1 0xFF NOT AND PUSH1 0x1 SWAP1 DUP2 OR SWAP1 SWAP2 SSTORE PUSH1 0xA DUP1 SLOAD PUSH1 0x0 SWAP1 PUSH2 0x106A SWAP1 DUP5 SWAP1 PUSH2 0x58E2 JUMP JUMPDEST PUSH1 0xC8 DUP2 GT ISZERO PUSH2 0x5096 JUMPI PUSH1 0x40 MLOAD PUSH3 0x461BCD PUSH1 0xE5 SHL DUP2 MSTORE PUSH1 0x20 PUSH1 0x4 DUP3 ADD MSTORE PUSH1 0x2C PUSH1 0x24 DUP3 ADD MSTORE PUSH32 0x41697264726F702050657263656E746167652063616E6E6F7420657863656564 PUSH1 0x44 DUP3 ADD MSTORE PUSH32 0x2032302070657263656E742E0000000000000000000000000000000000000000 PUSH1 0x64 DUP3 ADD MSTORE PUSH1 0x84 ADD PUSH2 0xFCA JUMP JUMPDEST PUSH1 0x7 DUP2 SWAP1 SSTORE PUSH1 0x40 MLOAD DUP2 DUP2 MSTORE PUSH32 0xCC672F1026B958C0CFBFDD89EBE8DDCBC127F16EC24DA6C2C7A4DE26A8B1857E SWAP1 PUSH1 0x20 ADD PUSH2 0x487A JUMP JUMPDEST PUSH1 0x0 PUSH2 0x2FA8 DUP3 DUP5 PUSH2 0x5980 JUMP JUMPDEST PUSH1 0x0 DUP1 DUP3 GT PUSH2 0x5128 JUMPI PUSH1 0x40 MLOAD PUSH3 0x461BCD PUSH1 0xE5 SHL DUP2 MSTORE PUSH1 0x20 PUSH1 0x4 DUP3 ADD MSTORE PUSH1 0x11 PUSH1 0x24 DUP3 ADD MSTORE PUSH32 0x4572726F722074696D657374616D702030000000000000000000000000000000 PUSH1 0x44 DUP3 ADD MSTORE PUSH1 0x64 ADD PUSH2 0xFCA JUMP JUMPDEST PUSH2 0x388D PUSH2 0x5135 DUP4 TIMESTAMP PUSH2 0x57F4 JUMP JUMPDEST PUSH2 0x5149 SWAP1 PUSH10 0xD3C21BCECCEDA1000000 PUSH2 0x5980 JUMP JUMPDEST PUSH4 0x1E13380 PUSH1 0x40 MLOAD DUP1 PUSH1 0x40 ADD PUSH1 0x40 MSTORE DUP1 PUSH1 0x1D DUP2 MSTORE PUSH1 0x20 ADD PUSH32 0x4572726F722063616E6E6F74206469766964652074696D657374616D70000000 DUP2 MSTORE POP PUSH2 0x5435 JUMP JUMPDEST PUSH1 0x0 DUP1 PUSH1 0x0 PUSH3 0x15180 PUSH1 0x11 SLOAD TIMESTAMP PUSH2 0x51A0 SWAP2 SWAP1 PUSH2 0x57F4 JUMP JUMPDEST PUSH2 0x51AA SWAP2 SWAP1 PUSH2 0x595E JUMP JUMPDEST SWAP1 POP PUSH2 0x1E0 DUP2 LT ISZERO PUSH2 0x526E JUMPI PUSH1 0x1 PUSH1 0x1 PUSH1 0xA0 SHL SUB DUP5 AND PUSH1 0x0 SWAP1 DUP2 MSTORE PUSH1 0x12 PUSH1 0x20 MSTORE PUSH1 0x40 SWAP1 KECCAK256 PUSH1 0x2 ADD SLOAD PUSH1 0xFF AND PUSH2 0x5248 JUMPI PUSH1 0x1 PUSH1 0x1 PUSH1 0xA0 SHL SUB DUP5 AND PUSH1 0x0 SWAP1 DUP2 MSTORE PUSH1 0x12 PUSH1 0x20 MSTORE PUSH1 0x40 SWAP1 KECCAK256 SLOAD PUSH2 0x521F SWAP1 PUSH2 0x5218 SWAP1 PUSH2 0x5210 SWAP1 PUSH11 0x3CB5FEEC27901169E00000 SWAP1 PUSH2 0x50CB JUMP JUMPDEST PUSH1 0x10 SLOAD PUSH2 0x2F9C JUMP JUMPDEST DUP4 SWAP1 PUSH2 0x2FAF JUMP JUMPDEST PUSH1 0x1 PUSH1 0x1 PUSH1 0xA0 SHL SUB DUP6 AND PUSH1 0x0 SWAP1 DUP2 MSTORE PUSH1 0x12 PUSH1 0x20 MSTORE PUSH1 0x40 SWAP1 KECCAK256 PUSH1 0x2 ADD DUP1 SLOAD PUSH1 0xFF NOT AND PUSH1 0x1 OR SWAP1 SSTORE SWAP2 POP JUMPDEST PUSH1 0x1 PUSH1 0x1 PUSH1 0xA0 SHL SUB DUP5 AND PUSH1 0x0 SWAP1 DUP2 MSTORE PUSH1 0x12 PUSH1 0x20 MSTORE PUSH1 0x40 SWAP1 KECCAK256 PUSH2 0x1C2 PUSH1 0x3 SWAP1 SWAP2 ADD SSTORE PUSH2 0x539C JUMP JUMPDEST PUSH2 0x1E0 DUP2 LT ISZERO DUP1 ISZERO PUSH2 0x5281 JUMPI POP PUSH2 0x348 DUP2 LT JUMPDEST ISZERO PUSH2 0x539C JUMPI PUSH1 0x1 PUSH1 0x1 PUSH1 0xA0 SHL SUB DUP5 AND PUSH1 0x0 SWAP1 DUP2 MSTORE PUSH1 0x12 PUSH1 0x20 MSTORE PUSH1 0x40 SWAP1 KECCAK256 PUSH1 0x2 ADD SLOAD PUSH1 0xFF AND PUSH2 0x5309 JUMPI PUSH1 0x1 PUSH1 0x1 PUSH1 0xA0 SHL SUB DUP5 AND PUSH1 0x0 SWAP1 DUP2 MSTORE PUSH1 0x12 PUSH1 0x20 MSTORE PUSH1 0x40 SWAP1 KECCAK256 SLOAD PUSH2 0x52E0 SWAP1 PUSH2 0x5218 SWAP1 PUSH2 0x5210 SWAP1 PUSH11 0x3CB5FEEC27901169E00000 SWAP1 PUSH2 0x50CB JUMP JUMPDEST PUSH1 0x1 PUSH1 0x1 PUSH1 0xA0 SHL SUB DUP6 AND PUSH1 0x0 SWAP1 DUP2 MSTORE PUSH1 0x12 PUSH1 0x20 MSTORE PUSH1 0x40 SWAP1 KECCAK256 PUSH1 0x2 ADD DUP1 SLOAD PUSH1 0xFF NOT AND PUSH1 0x1 OR SWAP1 SSTORE SWAP2 POP JUMPDEST PUSH1 0x1 PUSH1 0x1 PUSH1 0xA0 SHL SUB DUP5 AND PUSH1 0x0 SWAP1 DUP2 MSTORE PUSH1 0x12 PUSH1 0x20 MSTORE PUSH1 0x40 DUP2 KECCAK256 PUSH1 0x3 ADD SLOAD PUSH2 0x532F SWAP1 DUP4 PUSH2 0x57F4 JUMP JUMPDEST PUSH1 0x1 PUSH1 0x1 PUSH1 0xA0 SHL SUB DUP7 AND PUSH1 0x0 SWAP1 DUP2 MSTORE PUSH1 0x12 PUSH1 0x20 MSTORE PUSH1 0x40 SWAP1 KECCAK256 SLOAD SWAP1 SWAP2 POP PUSH2 0x5370 SWAP1 PUSH2 0x5369 SWAP1 PUSH2 0x5210 SWAP1 PUSH11 0x3290914BE1AFB75080000 SWAP1 PUSH2 0x50CB JUMP JUMPDEST DUP5 SWAP1 PUSH2 0x2FAF JUMP JUMPDEST PUSH2 0x537A SWAP1 DUP3 PUSH2 0x5980 JUMP JUMPDEST PUSH1 0x1 PUSH1 0x1 PUSH1 0xA0 SHL SUB DUP7 AND PUSH1 0x0 SWAP1 DUP2 MSTORE PUSH1 0x12 PUSH1 0x20 MSTORE PUSH1 0x40 SWAP1 KECCAK256 PUSH1 0x3 ADD DUP4 SWAP1 SSTORE SWAP3 POP POP JUMPDEST DUP2 PUSH2 0x53E9 JUMPI PUSH1 0x40 MLOAD PUSH3 0x461BCD PUSH1 0xE5 SHL DUP2 MSTORE PUSH1 0x20 PUSH1 0x4 DUP3 ADD MSTORE PUSH1 0x14 PUSH1 0x24 DUP3 ADD MSTORE PUSH32 0x4E6F7468696E6720746F20636C61696D20796574000000000000000000000000 PUSH1 0x44 DUP3 ADD MSTORE PUSH1 0x64 ADD PUSH2 0xFCA JUMP JUMPDEST POP SWAP3 SWAP2 POP POP JUMP JUMPDEST PUSH1 0x0 DUP1 DUP4 PUSH2 0x5403 JUMPI POP PUSH1 0x0 SWAP1 POP DUP1 PUSH2 0x38C1 JUMP JUMPDEST PUSH1 0x0 DUP1 PUSH2 0x5410 DUP7 DUP7 PUSH2 0x3893 JUMP JUMPDEST SWAP2 POP SWAP2 POP PUSH2 0x541E DUP7 DUP4 PUSH2 0x3336 JUMP JUMPDEST PUSH2 0x5428 DUP7 DUP4 PUSH2 0x3336 JUMP JUMPDEST SWAP4 POP SWAP4 POP POP POP SWAP3 POP SWAP3 SWAP1 POP JUMP JUMPDEST PUSH1 0x0 DUP2 DUP4 PUSH2 0x5456 JUMPI PUSH1 0x40 MLOAD PUSH3 0x461BCD PUSH1 0xE5 SHL DUP2 MSTORE PUSH1 0x4 ADD PUSH2 0xFCA SWAP2 SWAP1 PUSH2 0x54F5 JUMP JUMPDEST POP DUP3 DUP5 DUP2 PUSH2 0x5466 JUMPI PUSH2 0x5466 PUSH2 0x5948 JUMP JUMPDEST DIV SWAP5 SWAP4 POP POP POP POP JUMP JUMPDEST PUSH1 0x40 MLOAD DUP1 PUSH1 0x60 ADD PUSH1 0x40 MSTORE DUP1 PUSH1 0x0 DUP2 MSTORE PUSH1 0x20 ADD PUSH1 0x0 DUP2 MSTORE PUSH1 0x20 ADD PUSH2 0x54D1 PUSH1 0x40 MLOAD DUP1 PUSH1 0xE0 ADD PUSH1 0x40 MSTORE DUP1 PUSH1 0x0 PUSH1 0x1 PUSH1 0x1 PUSH1 0xA0 SHL SUB AND DUP2 MSTORE PUSH1 0x20 ADD PUSH1 0x0 DUP2 MSTORE PUSH1 0x20 ADD PUSH1 0x0 DUP2 MSTORE PUSH1 0x20 ADD PUSH1 0x0 DUP2 MSTORE PUSH1 0x20 ADD PUSH1 0x0 DUP2 MSTORE PUSH1 0x20 ADD PUSH1 0x0 DUP2 MSTORE PUSH1 0x20 ADD PUSH1 0x0 DUP2 MSTORE POP SWAP1 JUMP JUMPDEST SWAP1 MSTORE SWAP1 JUMP JUMPDEST PUSH1 0x40 MLOAD DUP1 PUSH2 0x660 ADD PUSH1 0x40 MSTORE DUP1 PUSH1 0x33 SWAP1 PUSH1 0x20 DUP3 MUL DUP1 CALLDATASIZE DUP4 CALLDATACOPY POP SWAP2 SWAP3 SWAP2 POP POP JUMP JUMPDEST PUSH1 0x0 PUSH1 0x20 DUP1 DUP4 MSTORE DUP4 MLOAD DUP1 DUP3 DUP6 ADD MSTORE PUSH1 0x0 JUMPDEST DUP2 DUP2 LT ISZERO PUSH2 0x5522 JUMPI DUP6 DUP2 ADD DUP4 ADD MLOAD DUP6 DUP3 ADD PUSH1 0x40 ADD MSTORE DUP3 ADD PUSH2 0x5506 JUMP JUMPDEST DUP2 DUP2 GT ISZERO PUSH2 0x5534 JUMPI PUSH1 0x0 PUSH1 0x40 DUP4 DUP8 ADD ADD MSTORE JUMPDEST POP PUSH1 0x1F ADD PUSH1 0x1F NOT AND SWAP3 SWAP1 SWAP3 ADD PUSH1 0x40 ADD SWAP4 SWAP3 POP POP POP JUMP JUMPDEST PUSH1 0x0 DUP1 PUSH1 0x20 DUP4 DUP6 SUB SLT ISZERO PUSH2 0x555D JUMPI PUSH1 0x0 DUP1 REVERT JUMPDEST DUP3 CALLDATALOAD PUSH8 0xFFFFFFFFFFFFFFFF DUP1 DUP3 GT ISZERO PUSH2 0x5575 JUMPI PUSH1 0x0 DUP1 REVERT JUMPDEST DUP2 DUP6 ADD SWAP2 POP DUP6 PUSH1 0x1F DUP4 ADD SLT PUSH2 0x5589 JUMPI PUSH1 0x0 DUP1 REVERT JUMPDEST DUP2 CALLDATALOAD DUP2 DUP2 GT ISZERO PUSH2 0x5598 JUMPI PUSH1 0x0 DUP1 REVERT JUMPDEST DUP7 PUSH1 0x20 DUP3 PUSH1 0x6 SHL DUP6 ADD ADD GT ISZERO PUSH2 0x55AD JUMPI PUSH1 0x0 DUP1 REVERT JUMPDEST PUSH1 0x20 SWAP3 SWAP1 SWAP3 ADD SWAP7 SWAP2 SWAP6 POP SWAP1 SWAP4 POP POP POP POP JUMP JUMPDEST PUSH1 0x1 PUSH1 0x1 PUSH1 0xA0 SHL SUB DUP2 AND DUP2 EQ PUSH2 0x17C2 JUMPI PUSH1 0x0 DUP1 REVERT JUMPDEST PUSH1 0x0 DUP1 PUSH1 0x40 DUP4 DUP6 SUB SLT ISZERO PUSH2 0x55E7 JUMPI PUSH1 0x0 DUP1 REVERT JUMPDEST DUP3 CALLDATALOAD PUSH2 0x55F2 DUP2 PUSH2 0x55BF JUMP JUMPDEST SWAP5 PUSH1 0x20 SWAP4 SWAP1 SWAP4 ADD CALLDATALOAD SWAP4 POP POP POP JUMP JUMPDEST PUSH1 0x0 PUSH1 0x20 DUP3 DUP5 SUB SLT ISZERO PUSH2 0x5612 JUMPI PUSH1 0x0 DUP1 REVERT JUMPDEST POP CALLDATALOAD SWAP2 SWAP1 POP JUMP JUMPDEST PUSH1 0x0 DUP1 PUSH1 0x0 PUSH1 0x60 DUP5 DUP7 SUB SLT ISZERO PUSH2 0x562E JUMPI PUSH1 0x0 DUP1 REVERT JUMPDEST DUP4 CALLDATALOAD PUSH2 0x5639 DUP2 PUSH2 0x55BF JUMP JUMPDEST SWAP3 POP PUSH1 0x20 DUP5 ADD CALLDATALOAD PUSH2 0x5649 DUP2 PUSH2 0x55BF JUMP JUMPDEST SWAP3 SWAP6 SWAP3 SWAP5 POP POP POP PUSH1 0x40 SWAP2 SWAP1 SWAP2 ADD CALLDATALOAD SWAP1 JUMP JUMPDEST PUSH1 0x0 DUP1 PUSH1 0x0 PUSH1 0x60 DUP5 DUP7 SUB SLT ISZERO PUSH2 0x566F JUMPI PUSH1 0x0 DUP1 REVERT JUMPDEST DUP4 CALLDATALOAD PUSH2 0x567A DUP2 PUSH2 0x55BF JUMP JUMPDEST SWAP3 POP PUSH1 0x20 DUP5 ADD CALLDATALOAD PUSH2 0x568A DUP2 PUSH2 0x55BF JUMP JUMPDEST SWAP2 POP PUSH1 0x40 DUP5 ADD CALLDATALOAD PUSH2 0x569A DUP2 PUSH2 0x55BF JUMP JUMPDEST DUP1 SWAP2 POP POP SWAP3 POP SWAP3 POP SWAP3 JUMP JUMPDEST PUSH1 0x0 PUSH1 0x20 DUP3 DUP5 SUB SLT ISZERO PUSH2 0x56B7 JUMPI PUSH1 0x0 DUP1 REVERT JUMPDEST DUP2 CALLDATALOAD PUSH1 0xFF DUP2 AND DUP2 EQ PUSH2 0x2FA8 JUMPI PUSH1 0x0 DUP1 REVERT JUMPDEST PUSH1 0x0 PUSH1 0x20 DUP3 DUP5 SUB SLT ISZERO PUSH2 0x56DA JUMPI PUSH1 0x0 DUP1 REVERT JUMPDEST DUP2 CALLDATALOAD PUSH2 0x2FA8 DUP2 PUSH2 0x55BF JUMP JUMPDEST PUSH1 0x0 DUP1 PUSH1 0x40 DUP4 DUP6 SUB SLT ISZERO PUSH2 0x56F8 JUMPI PUSH1 0x0 DUP1 REVERT JUMPDEST POP POP DUP1 CALLDATALOAD SWAP3 PUSH1 0x20 SWAP1 SWAP2 ADD CALLDATALOAD SWAP2 POP JUMP JUMPDEST PUSH1 0x0 DUP1 PUSH1 0x20 DUP4 DUP6 SUB SLT ISZERO PUSH2 0x571A JUMPI PUSH1 0x0 DUP1 REVERT JUMPDEST DUP3 CALLDATALOAD PUSH8 0xFFFFFFFFFFFFFFFF DUP1 DUP3 GT ISZERO PUSH2 0x5732 JUMPI PUSH1 0x0 DUP1 REVERT JUMPDEST DUP2 DUP6 ADD SWAP2 POP DUP6 PUSH1 0x1F DUP4 ADD SLT PUSH2 0x5746 JUMPI PUSH1 0x0 DUP1 REVERT JUMPDEST DUP2 CALLDATALOAD DUP2 DUP2 GT ISZERO PUSH2 0x5755 JUMPI PUSH1 0x0 DUP1 REVERT JUMPDEST DUP7 PUSH1 0x20 DUP3 PUSH1 0x5 SHL DUP6 ADD ADD GT ISZERO PUSH2 0x55AD JUMPI PUSH1 0x0 DUP1 REVERT JUMPDEST PUSH1 0x0 DUP1 PUSH1 0x40 DUP4 DUP6 SUB SLT ISZERO PUSH2 0x577D JUMPI PUSH1 0x0 DUP1 REVERT JUMPDEST DUP3 CALLDATALOAD PUSH2 0x5788 DUP2 PUSH2 0x55BF JUMP JUMPDEST SWAP2 POP PUSH1 0x20 DUP4 ADD CALLDATALOAD PUSH2 0x5798 DUP2 PUSH2 0x55BF JUMP JUMPDEST DUP1 SWAP2 POP POP SWAP3 POP SWAP3 SWAP1 POP JUMP JUMPDEST PUSH1 0x1 DUP2 DUP2 SHR SWAP1 DUP3 AND DUP1 PUSH2 0x57B7 JUMPI PUSH1 0x7F DUP3 AND SWAP2 POP JUMPDEST PUSH1 0x20 DUP3 LT DUP2 EQ ISZERO PUSH2 0x57D8 JUMPI PUSH4 0x4E487B71 PUSH1 0xE0 SHL PUSH1 0x0 MSTORE PUSH1 0x22 PUSH1 0x4 MSTORE PUSH1 0x24 PUSH1 0x0 REVERT JUMPDEST POP SWAP2 SWAP1 POP JUMP JUMPDEST PUSH4 0x4E487B71 PUSH1 0xE0 SHL PUSH1 0x0 MSTORE PUSH1 0x11 PUSH1 0x4 MSTORE PUSH1 0x24 PUSH1 0x0 REVERT JUMPDEST PUSH1 0x0 DUP3 DUP3 LT ISZERO PUSH2 0x5806 JUMPI PUSH2 0x5806 PUSH2 0x57DE JUMP JUMPDEST POP SUB SWAP1 JUMP JUMPDEST PUSH4 0x4E487B71 PUSH1 0xE0 SHL PUSH1 0x0 MSTORE PUSH1 0x32 PUSH1 0x4 MSTORE PUSH1 0x24 PUSH1 0x0 REVERT JUMPDEST PUSH1 0x20 DUP1 DUP3 MSTORE DUP2 DUP2 ADD DUP4 SWAP1 MSTORE PUSH1 0x0 SWAP1 PUSH1 0x40 DUP1 DUP5 ADD DUP7 DUP5 JUMPDEST DUP8 DUP2 LT ISZERO PUSH2 0x586D JUMPI DUP2 CALLDATALOAD PUSH2 0x584A DUP2 PUSH2 0x55BF JUMP JUMPDEST PUSH1 0x1 PUSH1 0x1 PUSH1 0xA0 SHL SUB AND DUP4 MSTORE DUP2 DUP6 ADD CALLDATALOAD DUP6 DUP5 ADD MSTORE SWAP2 DUP4 ADD SWAP2 SWAP1 DUP4 ADD SWAP1 PUSH1 0x1 ADD PUSH2 0x5837 JUMP JUMPDEST POP SWAP1 SWAP8 SWAP7 POP POP POP POP POP POP POP JUMP JUMPDEST PUSH1 0x0 PUSH1 0x20 DUP3 DUP5 SUB SLT ISZERO PUSH2 0x588C JUMPI PUSH1 0x0 DUP1 REVERT JUMPDEST DUP2 MLOAD PUSH2 0x2FA8 DUP2 PUSH2 0x55BF JUMP JUMPDEST PUSH2 0x660 DUP2 ADD DUP2 DUP4 PUSH1 0x0 JUMPDEST PUSH1 0x33 DUP2 LT ISZERO PUSH2 0x58C0 JUMPI DUP2 MLOAD DUP4 MSTORE PUSH1 0x20 SWAP3 DUP4 ADD SWAP3 SWAP1 SWAP2 ADD SWAP1 PUSH1 0x1 ADD PUSH2 0x58A1 JUMP JUMPDEST POP POP POP SWAP3 SWAP2 POP POP JUMP JUMPDEST PUSH1 0x0 PUSH1 0x20 DUP3 DUP5 SUB SLT ISZERO PUSH2 0x58DB JUMPI PUSH1 0x0 DUP1 REVERT JUMPDEST POP MLOAD SWAP2 SWAP1 POP JUMP JUMPDEST PUSH1 0x0 DUP3 NOT DUP3 GT ISZERO PUSH2 0x58F5 JUMPI PUSH2 0x58F5 PUSH2 0x57DE JUMP JUMPDEST POP ADD SWAP1 JUMP JUMPDEST PUSH1 0x20 DUP1 DUP3 MSTORE DUP2 DUP2 ADD DUP4 SWAP1 MSTORE PUSH1 0x0 SWAP1 DUP5 PUSH1 0x40 DUP5 ADD DUP4 JUMPDEST DUP7 DUP2 LT ISZERO PUSH2 0x593D JUMPI DUP3 CALLDATALOAD PUSH2 0x5922 DUP2 PUSH2 0x55BF JUMP JUMPDEST PUSH1 0x1 PUSH1 0x1 PUSH1 0xA0 SHL SUB AND DUP3 MSTORE SWAP2 DUP4 ADD SWAP2 SWAP1 DUP4 ADD SWAP1 PUSH1 0x1 ADD PUSH2 0x590F JUMP JUMPDEST POP SWAP7 SWAP6 POP POP POP POP POP POP JUMP JUMPDEST PUSH4 0x4E487B71 PUSH1 0xE0 SHL PUSH1 0x0 MSTORE PUSH1 0x12 PUSH1 0x4 MSTORE PUSH1 0x24 PUSH1 0x0 REVERT JUMPDEST PUSH1 0x0 DUP3 PUSH2 0x597B JUMPI PUSH4 0x4E487B71 PUSH1 0xE0 SHL PUSH1 0x0 MSTORE PUSH1 0x12 PUSH1 0x4 MSTORE PUSH1 0x24 PUSH1 0x0 REVERT JUMPDEST POP DIV SWAP1 JUMP JUMPDEST PUSH1 0x0 DUP2 PUSH1 0x0 NOT DIV DUP4 GT DUP3 ISZERO ISZERO AND ISZERO PUSH2 0x599A JUMPI PUSH2 0x599A PUSH2 0x57DE JUMP JUMPDEST POP MUL SWAP1 JUMP INVALID 0x4F PUSH24 0x6E61626C653A2063616C6C6572206973206E6F7420746865 KECCAK256 PUSH16 0x776E6572A26469706673582212209D12 SDIV GAS 0x4F PUSH4 0x416E563B 0x4D ADD GT 0xD7 0xE3 0xE9 0x4E 0xF7 PUSH1 0x2F BYTE 0xBB 0xD5 PUSH3 0xAC0E45 SELFBALANCE DUP16 PUSH26 0xFBF664736F6C634300080B003360A06040523480156100105760 STOP DUP1 REVERT JUMPDEST POP PUSH1 0x40 MLOAD PUSH2 0x506 CODESIZE SUB DUP1 PUSH2 0x506 DUP4 CODECOPY DUP2 ADD PUSH1 0x40 DUP2 SWAP1 MSTORE PUSH2 0x2F SWAP2 PUSH2 0x58 JUMP JUMPDEST PUSH1 0x0 SWAP2 SWAP1 SWAP2 SSTORE PUSH1 0x1 PUSH1 0x1 PUSH1 0xA0 SHL SUB AND PUSH1 0x80 MSTORE PUSH1 0x1 DUP1 SLOAD PUSH1 0x1 PUSH1 0x1 PUSH1 0xA0 SHL SUB NOT AND CALLER OR SWAP1 SSTORE PUSH2 0x95 JUMP JUMPDEST PUSH1 0x0 DUP1 PUSH1 0x40 DUP4 DUP6 SUB SLT ISZERO PUSH2 0x6B JUMPI PUSH1 0x0 DUP1 REVERT JUMPDEST DUP3 MLOAD PUSH1 0x20 DUP5 ADD MLOAD SWAP1 SWAP3 POP PUSH1 0x1 PUSH1 0x1 PUSH1 0xA0 SHL SUB DUP2 AND DUP2 EQ PUSH2 0x8A JUMPI PUSH1 0x0 DUP1 REVERT JUMPDEST DUP1 SWAP2 POP POP SWAP3 POP SWAP3 SWAP1 POP JUMP JUMPDEST PUSH1 0x80 MLOAD PUSH2 0x457 PUSH2 0xAF PUSH1 0x0 CODECOPY PUSH1 0x0 PUSH1 0x7C ADD MSTORE PUSH2 0x457 PUSH1 0x0 RETURN INVALID PUSH1 0x80 PUSH1 0x40 MSTORE CALLVALUE DUP1 ISZERO PUSH2 0x10 JUMPI PUSH1 0x0 DUP1 REVERT JUMPDEST POP PUSH1 0x4 CALLDATASIZE LT PUSH2 0x4C JUMPI PUSH1 0x0 CALLDATALOAD PUSH1 0xE0 SHR DUP1 PUSH4 0xA95606E EQ PUSH2 0x51 JUMPI DUP1 PUSH4 0x38AF3EED EQ PUSH2 0x77 JUMPI DUP1 PUSH4 0xB580AA9E EQ PUSH2 0xC3 JUMPI DUP1 PUSH4 0xC8CCA41E EQ PUSH2 0xCC JUMPI JUMPDEST PUSH1 0x0 DUP1 REVERT JUMPDEST PUSH2 0x64 PUSH2 0x5F CALLDATASIZE PUSH1 0x4 PUSH2 0x28C JUMP JUMPDEST PUSH2 0xD6 JUMP JUMPDEST PUSH1 0x40 MLOAD SWAP1 DUP2 MSTORE PUSH1 0x20 ADD JUMPDEST PUSH1 0x40 MLOAD DUP1 SWAP2 SUB SWAP1 RETURN JUMPDEST PUSH2 0x9E PUSH32 0x0 DUP2 JUMP JUMPDEST PUSH1 0x40 MLOAD PUSH20 0xFFFFFFFFFFFFFFFFFFFFFFFFFFFFFFFFFFFFFFFF SWAP1 SWAP2 AND DUP2 MSTORE PUSH1 0x20 ADD PUSH2 0x6E JUMP JUMPDEST PUSH2 0x64 PUSH1 0x2 SLOAD DUP2 JUMP JUMPDEST PUSH2 0xD4 PUSH2 0x11B JUMP JUMPDEST STOP JUMPDEST PUSH1 0x0 PUSH2 0xE0 PUSH2 0x129 JUMP JUMPDEST PUSH1 0x0 PUSH2 0xEB DUP4 PUSH2 0x197 JUMP JUMPDEST SWAP1 POP PUSH2 0x112 PUSH1 0x0 SLOAD DUP3 PUSH1 0x40 MLOAD DUP1 PUSH1 0x60 ADD PUSH1 0x40 MSTORE DUP1 PUSH1 0x36 DUP2 MSTORE PUSH1 0x20 ADD PUSH2 0x3EC PUSH1 0x36 SWAP2 CODECOPY PUSH2 0x260 JUMP JUMPDEST PUSH1 0x0 SSTORE SWAP3 SWAP2 POP POP JUMP JUMPDEST PUSH2 0x123 PUSH2 0x129 JUMP JUMPDEST TIMESTAMP PUSH1 0x2 SSTORE JUMP JUMPDEST PUSH1 0x1 SLOAD PUSH20 0xFFFFFFFFFFFFFFFFFFFFFFFFFFFFFFFFFFFFFFFF AND CALLER EQ PUSH2 0x195 JUMPI PUSH1 0x40 MLOAD PUSH3 0x461BCD PUSH1 0xE5 SHL DUP2 MSTORE PUSH1 0x20 PUSH1 0x4 DUP3 ADD MSTORE PUSH1 0xA PUSH1 0x24 DUP3 ADD MSTORE PUSH32 0x4E6F74205F6F776E657200000000000000000000000000000000000000000000 PUSH1 0x44 DUP3 ADD MSTORE PUSH1 0x64 ADD JUMPDEST PUSH1 0x40 MLOAD DUP1 SWAP2 SUB SWAP1 REVERT JUMPDEST JUMP JUMPDEST PUSH1 0x0 DUP1 PUSH3 0x278D00 PUSH1 0x2 SLOAD TIMESTAMP PUSH2 0x1AC SWAP2 SWAP1 PUSH2 0x32F JUMP JUMPDEST PUSH2 0x1B6 SWAP2 SWAP1 PUSH2 0x346 JUMP JUMPDEST PUSH1 0x3 SLOAD SWAP1 SWAP2 POP PUSH1 0x0 SWAP1 JUMPDEST DUP3 DUP2 GT PUSH2 0x1FD JUMPI PUSH1 0x33 PUSH1 0x3 SLOAD GT PUSH2 0x1F5 JUMPI DUP5 DUP2 PUSH1 0x33 DUP2 LT PUSH2 0x1E3 JUMPI PUSH2 0x1E3 PUSH2 0x368 JUMP JUMPDEST PUSH1 0x20 MUL ADD MLOAD PUSH2 0x1F2 SWAP1 DUP4 PUSH2 0x37E JUMP JUMPDEST SWAP2 POP JUMPDEST PUSH1 0x1 ADD PUSH2 0x1C0 JUMP JUMPDEST POP PUSH2 0x209 DUP3 PUSH1 0x1 PUSH2 0x37E JUMP JUMPDEST PUSH1 0x3 SSTORE DUP1 PUSH2 0x259 JUMPI PUSH1 0x40 MLOAD PUSH3 0x461BCD PUSH1 0xE5 SHL DUP2 MSTORE PUSH1 0x20 PUSH1 0x4 DUP3 ADD MSTORE PUSH1 0x14 PUSH1 0x24 DUP3 ADD MSTORE PUSH32 0x4E6F7468696E6720746F20636C61696D20796574000000000000000000000000 PUSH1 0x44 DUP3 ADD MSTORE PUSH1 0x64 ADD PUSH2 0x18C JUMP JUMPDEST SWAP4 SWAP3 POP POP POP JUMP JUMPDEST PUSH1 0x0 DUP2 DUP5 DUP5 GT ISZERO PUSH2 0x284 JUMPI PUSH1 0x40 MLOAD PUSH3 0x461BCD PUSH1 0xE5 SHL DUP2 MSTORE PUSH1 0x4 ADD PUSH2 0x18C SWAP2 SWAP1 PUSH2 0x396 JUMP JUMPDEST POP POP POP SWAP1 SUB SWAP1 JUMP JUMPDEST PUSH1 0x0 PUSH2 0x660 DUP1 DUP4 DUP6 SUB SLT ISZERO PUSH2 0x2A0 JUMPI PUSH1 0x0 DUP1 REVERT JUMPDEST DUP4 PUSH1 0x1F DUP5 ADD SLT PUSH2 0x2AF JUMPI PUSH1 0x0 DUP1 REVERT JUMPDEST PUSH1 0x40 MLOAD DUP2 DUP2 ADD DUP2 DUP2 LT PUSH8 0xFFFFFFFFFFFFFFFF DUP3 GT OR ISZERO PUSH2 0x2DF JUMPI PUSH4 0x4E487B71 PUSH1 0xE0 SHL PUSH1 0x0 MSTORE PUSH1 0x41 PUSH1 0x4 MSTORE PUSH1 0x24 PUSH1 0x0 REVERT JUMPDEST PUSH1 0x40 MSTORE SWAP1 DUP4 ADD SWAP1 DUP1 DUP6 DUP4 GT ISZERO PUSH2 0x2F4 JUMPI PUSH1 0x0 DUP1 REVERT JUMPDEST DUP5 JUMPDEST DUP4 DUP2 LT ISZERO PUSH2 0x30E JUMPI DUP1 CALLDATALOAD DUP3 MSTORE PUSH1 0x20 SWAP2 DUP3 ADD SWAP2 ADD PUSH2 0x2F6 JUMP JUMPDEST POP SWAP1 SWAP6 SWAP5 POP POP POP POP POP JUMP JUMPDEST PUSH4 0x4E487B71 PUSH1 0xE0 SHL PUSH1 0x0 MSTORE PUSH1 0x11 PUSH1 0x4 MSTORE PUSH1 0x24 PUSH1 0x0 REVERT JUMPDEST PUSH1 0x0 DUP3 DUP3 LT ISZERO PUSH2 0x341 JUMPI PUSH2 0x341 PUSH2 0x319 JUMP JUMPDEST POP SUB SWAP1 JUMP JUMPDEST PUSH1 0x0 DUP3 PUSH2 0x363 JUMPI PUSH4 0x4E487B71 PUSH1 0xE0 SHL PUSH1 0x0 MSTORE PUSH1 0x12 PUSH1 0x4 MSTORE PUSH1 0x24 PUSH1 0x0 REVERT JUMPDEST POP DIV SWAP1 JUMP JUMPDEST PUSH4 0x4E487B71 PUSH1 0xE0 SHL PUSH1 0x0 MSTORE PUSH1 0x32 PUSH1 0x4 MSTORE PUSH1 0x24 PUSH1 0x0 REVERT JUMPDEST PUSH1 0x0 DUP3 NOT DUP3 GT ISZERO PUSH2 0x391 JUMPI PUSH2 0x391 PUSH2 0x319 JUMP JUMPDEST POP ADD SWAP1 JUMP JUMPDEST PUSH1 0x0 PUSH1 0x20 DUP1 DUP4 MSTORE DUP4 MLOAD DUP1 DUP3 DUP6 ADD MSTORE PUSH1 0x0 JUMPDEST DUP2 DUP2 LT ISZERO PUSH2 0x3C3 JUMPI DUP6 DUP2 ADD DUP4 ADD MLOAD DUP6 DUP3 ADD PUSH1 0x40 ADD MSTORE DUP3 ADD PUSH2 0x3A7 JUMP JUMPDEST DUP2 DUP2 GT ISZERO PUSH2 0x3D5 JUMPI PUSH1 0x0 PUSH1 0x40 DUP4 DUP8 ADD ADD MSTORE JUMPDEST POP PUSH1 0x1F ADD PUSH1 0x1F NOT AND SWAP3 SWAP1 SWAP3 ADD PUSH1 0x40 ADD SWAP4 SWAP3 POP POP POP JUMP INVALID 0x4C PUSH16 0x636B61626C653A2043616E6E6F742073 PUSH22 0x6273747261637420746F74616C20616D6F756E742077 PUSH10 0x746820636C61696D6162 PUSH13 0x65A2646970667358221220DC34 DUP5 0x27 SELFBALANCE DUP6 ADDMOD 0xA5 0x1E BYTE STOP EXTCODEHASH PUSH15 0x3A2112A2D3C08AE53913005D2CCF82 0xE9 0x21 JUMP 0xB1 PUSH5 0x736F6C6343 STOP ADDMOD SIGNEXTEND STOP CALLER "
		},
		"gasEstimates": {
			"creation": {
				"codeDepositCost": "4605800",
				"executionCost": "infinite",
				"totalCost": "infinite"
			},
			"external": {
				"": "infinite",
				"addMultipleBeneficiary((address,uint256)[])": "infinite",
				"airdropRate()": "2375",
				"airdropSince()": "2374",
				"airdropStatus()": "2412",
				"airdropWeek()": "4669",
				"allowance(address,address)": "infinite",
				"approve(address,uint256)": "24676",
				"balanceOf(address)": "2610",
				"burn(uint256)": "50946",
				"burnFrom(address,uint256)": "infinite",
				"burnLiquidityReserve(uint256)": "infinite",
				"burnStakingReward(uint256)": "infinite",
				"changeAirdropPercentage(uint256)": "27172",
				"changePenaltyFee(uint256)": "27119",
				"changePrivatePlacementAddress(address)": "infinite",
				"changeStrategicPartnerAddress(address,address,address)": "infinite",
				"changeTaxFee(uint8)": "infinite",
				"claimAirdrop()": "infinite",
				"claimPrivateSale()": "infinite",
				"daoProjectPool()": "2373",
				"decimals()": "303",
				"decreaseAllowance(address,uint256)": "27039",
				"deleteMultipleBeneficiary(address[])": "infinite",
				"hasMultilockable()": "9170",
				"hasStake()": "infinite",
				"increaseAllowance(address,uint256)": "27063",
				"initializationStatus()": "2433",
				"initiateLockedWallet_PrivateSale_Airdrop()": "infinite",
				"isVoter(address)": "2663",
				"mint(address,uint256)": "infinite",
				"mintLiquidityReserve(uint256)": "infinite",
				"mintStakingReward(uint256)": "infinite",
				"name()": "infinite",
				"owner()": "2410",
				"privateSaleAmount()": "2397",
				"privateSaleUsers()": "2375",
				"private_placement_address()": "2427",
				"renounceOwnership()": "infinite",
				"retractVote()": "35459",
				"stake(uint256,uint256)": "infinite",
				"stakingPenaltyRate()": "2373",
				"stakingReward()": "2354",
				"startPrivateSale()": "2374",
				"startTransferDAOVoting()": "53095",
				"strategic_partner_address_1()": "2404",
				"strategic_partner_address_2()": "2426",
				"strategic_partner_address_3()": "2448",
				"symbol()": "infinite",
				"taxFee()": "2403",
				"timelockController()": "2469",
				"totalSupply()": "2372",
				"totalVoters()": "2396",
				"transfer(address,uint256)": "infinite",
				"transferDAOPool(address,uint256)": "infinite",
				"transferFrom(address,address,uint256)": "infinite",
				"transferOwnership(address)": "infinite",
				"transferToDAOPool(uint256)": "49052",
				"unlockMarketingWallet_1()": "infinite",
				"unlockMarketingWallet_2()": "infinite",
				"unlockMarketingWallet_3()": "infinite",
				"unlockPrivatePlacementWallet()": "infinite",
				"unlockStrategicPartnerWallet_1()": "infinite",
				"unlockStrategicPartnerWallet_2()": "infinite",
				"unlockStrategicPartnerWallet_3()": "infinite",
				"unlockTeamAndProjectCoordinatorWallet_1()": "infinite",
				"unlockTeamAndProjectCoordinatorWallet_2()": "infinite",
				"unlockTeamAndProjectCoordinatorWallet_3()": "infinite",
				"vote()": "61940",
				"votedUsers(uint256)": "2539",
				"voters(address)": "2636",
				"withdrawStake()": "infinite"
			},
			"internal": {
				"_addThirdOfValue(uint256)": "infinite",
				"_approve(address,address,uint256)": "infinite",
				"_burn(address,uint256)": "infinite",
				"_checkBeneficiaryAmount(uint256)": "infinite",
				"_isInitializationStarted()": "infinite",
				"_mintStakingReward(uint256)": "infinite",
				"_onlyWalletOwner(address)": "infinite",
				"_spendAllowance(address,address,uint256)": "infinite",
				"_transfer(address,address,uint256)": "infinite",
				"unsafeInc(uint256)": "infinite"
			}
		},
		"methodIdentifiers": {
			"addMultipleBeneficiary((address,uint256)[])": "078f522f",
			"airdropRate()": "8891cf0d",
			"airdropSince()": "b87da76d",
			"airdropStatus()": "2cf1a5fb",
			"airdropWeek()": "cbb3e152",
			"allowance(address,address)": "dd62ed3e",
			"approve(address,uint256)": "095ea7b3",
			"balanceOf(address)": "70a08231",
			"burn(uint256)": "42966c68",
			"burnFrom(address,uint256)": "79cc6790",
			"burnLiquidityReserve(uint256)": "8b7c64da",
			"burnStakingReward(uint256)": "0e1b09ed",
			"changeAirdropPercentage(uint256)": "d5dbdf1b",
			"changePenaltyFee(uint256)": "8c63f97f",
			"changePrivatePlacementAddress(address)": "a25a17a7",
			"changeStrategicPartnerAddress(address,address,address)": "45df0238",
			"changeTaxFee(uint8)": "471a30a2",
			"claimAirdrop()": "5b88349d",
			"claimPrivateSale()": "7c2412f9",
			"daoProjectPool()": "bad4346c",
			"decimals()": "313ce567",
			"decreaseAllowance(address,uint256)": "a457c2d7",
			"deleteMultipleBeneficiary(address[])": "a1f780cf",
			"hasMultilockable()": "19ca147d",
			"hasStake()": "10486b6a",
			"increaseAllowance(address,uint256)": "39509351",
			"initializationStatus()": "b8dd0099",
			"initiateLockedWallet_PrivateSale_Airdrop()": "ac67574f",
			"isVoter(address)": "a7771ee3",
			"mint(address,uint256)": "40c10f19",
			"mintLiquidityReserve(uint256)": "d94d4ad6",
			"mintStakingReward(uint256)": "a169c515",
			"name()": "06fdde03",
			"owner()": "8da5cb5b",
			"privateSaleAmount()": "8b2b423a",
			"privateSaleUsers()": "549dee0b",
			"private_placement_address()": "a837a65e",
			"renounceOwnership()": "715018a6",
			"retractVote()": "070c8b74",
			"stake(uint256,uint256)": "7b0472f0",
			"stakingPenaltyRate()": "cb79c2e1",
			"stakingReward()": "042249bb",
			"startPrivateSale()": "338dbf59",
			"startTransferDAOVoting()": "c4dba83b",
			"strategic_partner_address_1()": "c680111c",
			"strategic_partner_address_2()": "a3626dbb",
			"strategic_partner_address_3()": "d9dc2d8d",
			"symbol()": "95d89b41",
			"taxFee()": "a071dcf4",
			"timelockController()": "f3388e75",
			"totalSupply()": "18160ddd",
			"totalVoters()": "5f5300ff",
			"transfer(address,uint256)": "a9059cbb",
			"transferDAOPool(address,uint256)": "8d4a3c85",
			"transferFrom(address,address,uint256)": "23b872dd",
			"transferOwnership(address)": "f2fde38b",
			"transferToDAOPool(uint256)": "63a599a4",
			"unlockMarketingWallet_1()": "78dc9315",
			"unlockMarketingWallet_2()": "7bb4e320",
			"unlockMarketingWallet_3()": "0ec5aa1a",
			"unlockPrivatePlacementWallet()": "934851ec",
			"unlockStrategicPartnerWallet_1()": "8378a875",
			"unlockStrategicPartnerWallet_2()": "15441bb9",
			"unlockStrategicPartnerWallet_3()": "883d9984",
			"unlockTeamAndProjectCoordinatorWallet_1()": "56029137",
			"unlockTeamAndProjectCoordinatorWallet_2()": "90a4c709",
			"unlockTeamAndProjectCoordinatorWallet_3()": "3f3ef2dc",
			"vote()": "632a9a52",
			"votedUsers(uint256)": "a143a5f2",
			"voters(address)": "a3ec138d",
			"withdrawStake()": "bed9d861"
		}
	},
	"abi": [
		{
			"inputs": [],
			"stateMutability": "nonpayable",
			"type": "constructor"
		},
		{
			"anonymous": false,
			"inputs": [
				{
					"indexed": true,
					"internalType": "address",
					"name": "from",
					"type": "address"
				},
				{
					"components": [
						{
							"internalType": "address",
							"name": "user",
							"type": "address"
						},
						{
							"internalType": "uint256",
							"name": "amount",
							"type": "uint256"
						}
					],
					"indexed": false,
					"internalType": "struct TalaxToken.Beneficiary[]",
					"name": "beneficiary",
					"type": "tuple[]"
				}
			],
			"name": "AddPrivateSale",
			"type": "event"
		},
		{
			"anonymous": false,
			"inputs": [
				{
					"indexed": false,
					"internalType": "uint256",
					"name": "amount",
					"type": "uint256"
				}
			],
			"name": "AirdropChanged",
			"type": "event"
		},
		{
			"anonymous": false,
			"inputs": [
				{
					"indexed": true,
					"internalType": "address",
					"name": "owner",
					"type": "address"
				},
				{
					"indexed": true,
					"internalType": "address",
					"name": "spender",
					"type": "address"
				},
				{
					"indexed": false,
					"internalType": "uint256",
					"name": "value",
					"type": "uint256"
				}
			],
			"name": "Approval",
			"type": "event"
		},
		{
			"anonymous": false,
			"inputs": [
				{
					"indexed": true,
					"internalType": "address",
					"name": "from",
					"type": "address"
				},
				{
					"indexed": false,
					"internalType": "uint256",
					"name": "amount",
					"type": "uint256"
				}
			],
			"name": "ChangeAirdropPercentage",
			"type": "event"
		},
		{
			"anonymous": false,
			"inputs": [
				{
					"indexed": true,
					"internalType": "address",
					"name": "who",
					"type": "address"
				},
				{
					"indexed": false,
					"internalType": "bool",
					"name": "status",
					"type": "bool"
				}
			],
			"name": "ChangeAirdropStatus",
			"type": "event"
		},
		{
			"anonymous": false,
			"inputs": [
				{
					"indexed": true,
					"internalType": "address",
					"name": "from",
					"type": "address"
				},
				{
					"indexed": false,
					"internalType": "uint256",
					"name": "amount",
					"type": "uint256"
				}
			],
			"name": "ChangePenaltyFee",
			"type": "event"
		},
		{
			"anonymous": false,
			"inputs": [
				{
					"indexed": true,
					"internalType": "address",
					"name": "to",
					"type": "address"
				}
			],
			"name": "ChangePrivatePlacementAddress",
			"type": "event"
		},
		{
			"anonymous": false,
			"inputs": [
				{
					"indexed": false,
					"internalType": "address",
					"name": "from",
					"type": "address"
				},
				{
					"indexed": true,
					"internalType": "address",
					"name": "to1",
					"type": "address"
				},
				{
					"indexed": true,
					"internalType": "address",
					"name": "to2",
					"type": "address"
				},
				{
					"indexed": true,
					"internalType": "address",
					"name": "to3",
					"type": "address"
				}
			],
			"name": "ChangeStrategicPartnerAddress",
			"type": "event"
		},
		{
			"anonymous": false,
			"inputs": [
				{
					"indexed": true,
					"internalType": "address",
					"name": "who",
					"type": "address"
				},
				{
					"indexed": false,
					"internalType": "uint256",
					"name": "amount",
					"type": "uint256"
				}
			],
			"name": "ChangeTax",
			"type": "event"
		},
		{
			"anonymous": false,
			"inputs": [
				{
					"indexed": true,
					"internalType": "address",
					"name": "from",
					"type": "address"
				},
				{
					"indexed": false,
					"internalType": "address[]",
					"name": "beneficiary",
					"type": "address[]"
				}
			],
			"name": "DeletePrivateSale",
			"type": "event"
		},
		{
			"anonymous": false,
			"inputs": [
				{
					"indexed": true,
					"internalType": "address",
					"name": "from",
					"type": "address"
				}
			],
			"name": "InitiateLockedWallet",
			"type": "event"
		},
		{
			"anonymous": false,
			"inputs": [
				{
					"indexed": true,
					"internalType": "address",
					"name": "from",
					"type": "address"
				}
			],
			"name": "InitiatePrivateSale",
			"type": "event"
		},
		{
			"anonymous": false,
			"inputs": [
				{
					"indexed": true,
					"internalType": "address",
					"name": "previousOwner",
					"type": "address"
				},
				{
					"indexed": true,
					"internalType": "address",
					"name": "newOwner",
					"type": "address"
				}
			],
			"name": "OwnershipTransferred",
			"type": "event"
		},
		{
			"anonymous": false,
			"inputs": [
				{
					"indexed": false,
					"internalType": "uint256",
					"name": "amount",
					"type": "uint256"
				}
			],
			"name": "PenaltyChanged",
			"type": "event"
		},
		{
			"anonymous": false,
			"inputs": [
				{
					"indexed": true,
					"internalType": "address",
					"name": "user",
					"type": "address"
				},
				{
					"indexed": false,
					"internalType": "uint256",
					"name": "amount",
					"type": "uint256"
				},
				{
					"indexed": false,
					"internalType": "uint256",
					"name": "timestamp",
					"type": "uint256"
				},
				{
					"indexed": false,
					"internalType": "uint256",
					"name": "releaseTime",
					"type": "uint256"
				}
			],
			"name": "Staked",
			"type": "event"
		},
		{
			"anonymous": false,
			"inputs": [
				{
					"indexed": true,
					"internalType": "address",
					"name": "from",
					"type": "address"
				},
				{
					"indexed": true,
					"internalType": "address",
					"name": "to",
					"type": "address"
				},
				{
					"indexed": false,
					"internalType": "uint256",
					"name": "value",
					"type": "uint256"
				}
			],
			"name": "Transfer",
			"type": "event"
		},
		{
			"anonymous": false,
			"inputs": [
				{
					"indexed": true,
					"internalType": "address",
					"name": "from",
					"type": "address"
				},
				{
					"indexed": true,
					"internalType": "address",
					"name": "to",
					"type": "address"
				},
				{
					"indexed": false,
					"internalType": "uint256",
					"name": "amount",
					"type": "uint256"
				}
			],
			"name": "TransferDAOPool",
			"type": "event"
		},
		{
			"anonymous": false,
			"inputs": [
				{
					"indexed": true,
					"internalType": "address",
					"name": "from",
					"type": "address"
				},
				{
					"indexed": true,
					"internalType": "address",
					"name": "to",
					"type": "address"
				},
				{
					"indexed": false,
					"internalType": "uint256",
					"name": "amount",
					"type": "uint256"
				}
			],
			"name": "TransferStakingReward",
			"type": "event"
		},
		{
			"stateMutability": "payable",
			"type": "fallback"
		},
		{
			"inputs": [
				{
					"components": [
						{
							"internalType": "address",
							"name": "user",
							"type": "address"
						},
						{
							"internalType": "uint256",
							"name": "amount",
							"type": "uint256"
						}
					],
					"internalType": "struct TalaxToken.Beneficiary[]",
					"name": "benefs",
					"type": "tuple[]"
				}
			],
			"name": "addMultipleBeneficiary",
			"outputs": [],
			"stateMutability": "nonpayable",
			"type": "function"
		},
		{
			"inputs": [],
			"name": "airdropRate",
			"outputs": [
				{
					"internalType": "uint256",
					"name": "",
					"type": "uint256"
				}
			],
			"stateMutability": "view",
			"type": "function"
		},
		{
			"inputs": [],
			"name": "airdropSince",
			"outputs": [
				{
					"internalType": "uint256",
					"name": "",
					"type": "uint256"
				}
			],
			"stateMutability": "view",
			"type": "function"
		},
		{
			"inputs": [],
			"name": "airdropStatus",
			"outputs": [
				{
					"internalType": "bool",
					"name": "",
					"type": "bool"
				}
			],
			"stateMutability": "view",
			"type": "function"
		},
		{
			"inputs": [],
			"name": "airdropWeek",
			"outputs": [
				{
					"internalType": "uint256",
					"name": "",
					"type": "uint256"
				}
			],
			"stateMutability": "view",
			"type": "function"
		},
		{
			"inputs": [
				{
					"internalType": "address",
					"name": "owner",
					"type": "address"
				},
				{
					"internalType": "address",
					"name": "spender",
					"type": "address"
				}
			],
			"name": "allowance",
			"outputs": [
				{
					"internalType": "uint256",
					"name": "",
					"type": "uint256"
				}
			],
			"stateMutability": "view",
			"type": "function"
		},
		{
			"inputs": [
				{
					"internalType": "address",
					"name": "spender",
					"type": "address"
				},
				{
					"internalType": "uint256",
					"name": "amount",
					"type": "uint256"
				}
			],
			"name": "approve",
			"outputs": [
				{
					"internalType": "bool",
					"name": "",
					"type": "bool"
				}
			],
			"stateMutability": "nonpayable",
			"type": "function"
		},
		{
			"inputs": [
				{
					"internalType": "address",
					"name": "account",
					"type": "address"
				}
			],
			"name": "balanceOf",
			"outputs": [
				{
					"internalType": "uint256",
					"name": "",
					"type": "uint256"
				}
			],
			"stateMutability": "view",
			"type": "function"
		},
		{
			"inputs": [
				{
					"internalType": "uint256",
					"name": "amount",
					"type": "uint256"
				}
			],
			"name": "burn",
			"outputs": [],
			"stateMutability": "nonpayable",
			"type": "function"
		},
		{
			"inputs": [
				{
					"internalType": "address",
					"name": "account",
					"type": "address"
				},
				{
					"internalType": "uint256",
					"name": "amount",
					"type": "uint256"
				}
			],
			"name": "burnFrom",
			"outputs": [],
			"stateMutability": "nonpayable",
			"type": "function"
		},
		{
			"inputs": [
				{
					"internalType": "uint256",
					"name": "amount_",
					"type": "uint256"
				}
			],
			"name": "burnLiquidityReserve",
			"outputs": [],
			"stateMutability": "nonpayable",
			"type": "function"
		},
		{
			"inputs": [
				{
					"internalType": "uint256",
					"name": "amount_",
					"type": "uint256"
				}
			],
			"name": "burnStakingReward",
			"outputs": [],
			"stateMutability": "nonpayable",
			"type": "function"
		},
		{
			"inputs": [
				{
					"internalType": "uint256",
					"name": "airdrop_",
					"type": "uint256"
				}
			],
			"name": "changeAirdropPercentage",
			"outputs": [],
			"stateMutability": "nonpayable",
			"type": "function"
		},
		{
			"inputs": [
				{
					"internalType": "uint256",
					"name": "penaltyFee_",
					"type": "uint256"
				}
			],
			"name": "changePenaltyFee",
			"outputs": [],
			"stateMutability": "nonpayable",
			"type": "function"
		},
		{
			"inputs": [
				{
					"internalType": "address",
					"name": "_input",
					"type": "address"
				}
			],
			"name": "changePrivatePlacementAddress",
			"outputs": [],
			"stateMutability": "nonpayable",
			"type": "function"
		},
		{
			"inputs": [
				{
					"internalType": "address",
					"name": "address1",
					"type": "address"
				},
				{
					"internalType": "address",
					"name": "address2",
					"type": "address"
				},
				{
					"internalType": "address",
					"name": "address3",
					"type": "address"
				}
			],
			"name": "changeStrategicPartnerAddress",
			"outputs": [],
			"stateMutability": "nonpayable",
			"type": "function"
		},
		{
			"inputs": [
				{
					"internalType": "uint8",
					"name": "taxFee_",
					"type": "uint8"
				}
			],
			"name": "changeTaxFee",
			"outputs": [],
			"stateMutability": "nonpayable",
			"type": "function"
		},
		{
			"inputs": [],
			"name": "claimAirdrop",
			"outputs": [],
			"stateMutability": "nonpayable",
			"type": "function"
		},
		{
			"inputs": [],
			"name": "claimPrivateSale",
			"outputs": [],
			"stateMutability": "nonpayable",
			"type": "function"
		},
		{
			"inputs": [],
			"name": "daoProjectPool",
			"outputs": [
				{
					"internalType": "uint256",
					"name": "",
					"type": "uint256"
				}
			],
			"stateMutability": "view",
			"type": "function"
		},
		{
			"inputs": [],
			"name": "decimals",
			"outputs": [
				{
					"internalType": "uint8",
					"name": "",
					"type": "uint8"
				}
			],
			"stateMutability": "view",
			"type": "function"
		},
		{
			"inputs": [
				{
					"internalType": "address",
					"name": "spender",
					"type": "address"
				},
				{
					"internalType": "uint256",
					"name": "subtractedValue",
					"type": "uint256"
				}
			],
			"name": "decreaseAllowance",
			"outputs": [
				{
					"internalType": "bool",
					"name": "",
					"type": "bool"
				}
			],
			"stateMutability": "nonpayable",
			"type": "function"
		},
		{
			"inputs": [
				{
					"internalType": "address[]",
					"name": "benefs",
					"type": "address[]"
				}
			],
			"name": "deleteMultipleBeneficiary",
			"outputs": [],
			"stateMutability": "nonpayable",
			"type": "function"
		},
		{
			"inputs": [],
			"name": "hasMultilockable",
			"outputs": [
				{
					"components": [
						{
							"internalType": "uint256",
							"name": "lockedAmount",
							"type": "uint256"
						},
						{
							"internalType": "uint256",
							"name": "amount",
							"type": "uint256"
						},
						{
							"internalType": "bool",
							"name": "isPhase1Claimed",
							"type": "bool"
						},
						{
							"internalType": "uint256",
							"name": "latestClaimDay",
							"type": "uint256"
						}
					],
					"internalType": "struct Multilockable.Multilock",
					"name": "",
					"type": "tuple"
				}
			],
			"stateMutability": "view",
			"type": "function"
		},
		{
			"inputs": [],
			"name": "hasStake",
			"outputs": [
				{
					"components": [
						{
							"internalType": "uint256",
							"name": "total_amount",
							"type": "uint256"
						},
						{
							"internalType": "uint256",
							"name": "penalty",
							"type": "uint256"
						},
						{
							"components": [
								{
									"internalType": "address",
									"name": "user",
									"type": "address"
								},
								{
									"internalType": "uint256",
									"name": "amount",
									"type": "uint256"
								},
								{
									"internalType": "uint256",
									"name": "since",
									"type": "uint256"
								},
								{
									"internalType": "uint256",
									"name": "claimable",
									"type": "uint256"
								},
								{
									"internalType": "uint256",
									"name": "claimable_airdrop",
									"type": "uint256"
								},
								{
									"internalType": "uint256",
									"name": "rewardAPY",
									"type": "uint256"
								},
								{
									"internalType": "uint256",
									"name": "releaseTime",
									"type": "uint256"
								}
							],
							"internalType": "struct Stakable.Stake",
							"name": "stake",
							"type": "tuple"
						}
					],
					"internalType": "struct Stakable.StakingSummary",
					"name": "",
					"type": "tuple"
				}
			],
			"stateMutability": "view",
			"type": "function"
		},
		{
			"inputs": [
				{
					"internalType": "address",
					"name": "spender",
					"type": "address"
				},
				{
					"internalType": "uint256",
					"name": "addedValue",
					"type": "uint256"
				}
			],
			"name": "increaseAllowance",
			"outputs": [
				{
					"internalType": "bool",
					"name": "",
					"type": "bool"
				}
			],
			"stateMutability": "nonpayable",
			"type": "function"
		},
		{
			"inputs": [],
			"name": "initializationStatus",
			"outputs": [
				{
					"internalType": "bool",
					"name": "",
					"type": "bool"
				}
			],
			"stateMutability": "view",
			"type": "function"
		},
		{
			"inputs": [],
			"name": "initiateLockedWallet_PrivateSale_Airdrop",
			"outputs": [],
			"stateMutability": "nonpayable",
			"type": "function"
		},
		{
			"inputs": [
				{
					"internalType": "address",
					"name": "_staker",
					"type": "address"
				}
			],
			"name": "isVoter",
			"outputs": [
				{
					"internalType": "bool",
					"name": "",
					"type": "bool"
				}
			],
			"stateMutability": "view",
			"type": "function"
		},
		{
			"inputs": [
				{
					"internalType": "address",
					"name": "to",
					"type": "address"
				},
				{
					"internalType": "uint256",
					"name": "amount",
					"type": "uint256"
				}
			],
			"name": "mint",
			"outputs": [],
			"stateMutability": "nonpayable",
			"type": "function"
		},
		{
			"inputs": [
				{
					"internalType": "uint256",
					"name": "amount_",
					"type": "uint256"
				}
			],
			"name": "mintLiquidityReserve",
			"outputs": [],
			"stateMutability": "nonpayable",
			"type": "function"
		},
		{
			"inputs": [
				{
					"internalType": "uint256",
					"name": "amount_",
					"type": "uint256"
				}
			],
			"name": "mintStakingReward",
			"outputs": [],
			"stateMutability": "nonpayable",
			"type": "function"
		},
		{
			"inputs": [],
			"name": "name",
			"outputs": [
				{
					"internalType": "string",
					"name": "",
					"type": "string"
				}
			],
			"stateMutability": "view",
			"type": "function"
		},
		{
			"inputs": [],
			"name": "owner",
			"outputs": [
				{
					"internalType": "address",
					"name": "",
					"type": "address"
				}
			],
			"stateMutability": "view",
			"type": "function"
		},
		{
			"inputs": [],
			"name": "privateSaleAmount",
			"outputs": [
				{
					"internalType": "uint256",
					"name": "",
					"type": "uint256"
				}
			],
			"stateMutability": "view",
			"type": "function"
		},
		{
			"inputs": [],
			"name": "privateSaleUsers",
			"outputs": [
				{
					"internalType": "uint256",
					"name": "",
					"type": "uint256"
				}
			],
			"stateMutability": "view",
			"type": "function"
		},
		{
			"inputs": [],
			"name": "private_placement_address",
			"outputs": [
				{
					"internalType": "address",
					"name": "",
					"type": "address"
				}
			],
			"stateMutability": "view",
			"type": "function"
		},
		{
			"inputs": [],
			"name": "renounceOwnership",
			"outputs": [],
			"stateMutability": "nonpayable",
			"type": "function"
		},
		{
			"inputs": [],
			"name": "retractVote",
			"outputs": [],
			"stateMutability": "nonpayable",
			"type": "function"
		},
		{
			"inputs": [
				{
					"internalType": "uint256",
					"name": "_amount",
					"type": "uint256"
				},
				{
					"internalType": "uint256",
					"name": "_stakePeriod",
					"type": "uint256"
				}
			],
			"name": "stake",
			"outputs": [],
			"stateMutability": "nonpayable",
			"type": "function"
		},
		{
			"inputs": [],
			"name": "stakingPenaltyRate",
			"outputs": [
				{
					"internalType": "uint256",
					"name": "",
					"type": "uint256"
				}
			],
			"stateMutability": "view",
			"type": "function"
		},
		{
			"inputs": [],
			"name": "stakingReward",
			"outputs": [
				{
					"internalType": "uint256",
					"name": "",
					"type": "uint256"
				}
			],
			"stateMutability": "view",
			"type": "function"
		},
		{
			"inputs": [],
			"name": "startPrivateSale",
			"outputs": [
				{
					"internalType": "uint256",
					"name": "",
					"type": "uint256"
				}
			],
			"stateMutability": "view",
			"type": "function"
		},
		{
			"inputs": [],
			"name": "startTransferDAOVoting",
			"outputs": [],
			"stateMutability": "nonpayable",
			"type": "function"
		},
		{
			"inputs": [],
			"name": "strategic_partner_address_1",
			"outputs": [
				{
					"internalType": "address",
					"name": "",
					"type": "address"
				}
			],
			"stateMutability": "view",
			"type": "function"
		},
		{
			"inputs": [],
			"name": "strategic_partner_address_2",
			"outputs": [
				{
					"internalType": "address",
					"name": "",
					"type": "address"
				}
			],
			"stateMutability": "view",
			"type": "function"
		},
		{
			"inputs": [],
			"name": "strategic_partner_address_3",
			"outputs": [
				{
					"internalType": "address",
					"name": "",
					"type": "address"
				}
			],
			"stateMutability": "view",
			"type": "function"
		},
		{
			"inputs": [],
			"name": "symbol",
			"outputs": [
				{
					"internalType": "string",
					"name": "",
					"type": "string"
				}
			],
			"stateMutability": "view",
			"type": "function"
		},
		{
			"inputs": [],
			"name": "taxFee",
			"outputs": [
				{
					"internalType": "uint8",
					"name": "",
					"type": "uint8"
				}
			],
			"stateMutability": "view",
			"type": "function"
		},
		{
			"inputs": [],
			"name": "timelockController",
			"outputs": [
				{
					"internalType": "address",
					"name": "",
					"type": "address"
				}
			],
			"stateMutability": "view",
			"type": "function"
		},
		{
			"inputs": [],
			"name": "totalSupply",
			"outputs": [
				{
					"internalType": "uint256",
					"name": "",
					"type": "uint256"
				}
			],
			"stateMutability": "view",
			"type": "function"
		},
		{
			"inputs": [],
			"name": "totalVoters",
			"outputs": [
				{
					"internalType": "uint256",
					"name": "",
					"type": "uint256"
				}
			],
			"stateMutability": "view",
			"type": "function"
		},
		{
			"inputs": [
				{
					"internalType": "address",
					"name": "to",
					"type": "address"
				},
				{
					"internalType": "uint256",
					"name": "amount",
					"type": "uint256"
				}
			],
			"name": "transfer",
			"outputs": [
				{
					"internalType": "bool",
					"name": "",
					"type": "bool"
				}
			],
			"stateMutability": "nonpayable",
			"type": "function"
		},
		{
			"inputs": [
				{
					"internalType": "address",
					"name": "to_",
					"type": "address"
				},
				{
					"internalType": "uint256",
					"name": "amount_",
					"type": "uint256"
				}
			],
			"name": "transferDAOPool",
			"outputs": [],
			"stateMutability": "nonpayable",
			"type": "function"
		},
		{
			"inputs": [
				{
					"internalType": "address",
					"name": "from",
					"type": "address"
				},
				{
					"internalType": "address",
					"name": "to",
					"type": "address"
				},
				{
					"internalType": "uint256",
					"name": "amount",
					"type": "uint256"
				}
			],
			"name": "transferFrom",
			"outputs": [
				{
					"internalType": "bool",
					"name": "",
					"type": "bool"
				}
			],
			"stateMutability": "nonpayable",
			"type": "function"
		},
		{
			"inputs": [
				{
					"internalType": "address",
					"name": "newOwner",
					"type": "address"
				}
			],
			"name": "transferOwnership",
			"outputs": [],
			"stateMutability": "nonpayable",
			"type": "function"
		},
		{
			"inputs": [
				{
					"internalType": "uint256",
					"name": "amount_",
					"type": "uint256"
				}
			],
			"name": "transferToDAOPool",
			"outputs": [],
			"stateMutability": "nonpayable",
			"type": "function"
		},
		{
			"inputs": [],
			"name": "unlockMarketingWallet_1",
			"outputs": [],
			"stateMutability": "nonpayable",
			"type": "function"
		},
		{
			"inputs": [],
			"name": "unlockMarketingWallet_2",
			"outputs": [],
			"stateMutability": "nonpayable",
			"type": "function"
		},
		{
			"inputs": [],
			"name": "unlockMarketingWallet_3",
			"outputs": [],
			"stateMutability": "nonpayable",
			"type": "function"
		},
		{
			"inputs": [],
			"name": "unlockPrivatePlacementWallet",
			"outputs": [],
			"stateMutability": "nonpayable",
			"type": "function"
		},
		{
			"inputs": [],
			"name": "unlockStrategicPartnerWallet_1",
			"outputs": [],
			"stateMutability": "nonpayable",
			"type": "function"
		},
		{
			"inputs": [],
			"name": "unlockStrategicPartnerWallet_2",
			"outputs": [],
			"stateMutability": "nonpayable",
			"type": "function"
		},
		{
			"inputs": [],
			"name": "unlockStrategicPartnerWallet_3",
			"outputs": [],
			"stateMutability": "nonpayable",
			"type": "function"
		},
		{
			"inputs": [],
			"name": "unlockTeamAndProjectCoordinatorWallet_1",
			"outputs": [],
			"stateMutability": "nonpayable",
			"type": "function"
		},
		{
			"inputs": [],
			"name": "unlockTeamAndProjectCoordinatorWallet_2",
			"outputs": [],
			"stateMutability": "nonpayable",
			"type": "function"
		},
		{
			"inputs": [],
			"name": "unlockTeamAndProjectCoordinatorWallet_3",
			"outputs": [],
			"stateMutability": "nonpayable",
			"type": "function"
		},
		{
			"inputs": [],
			"name": "vote",
			"outputs": [],
			"stateMutability": "nonpayable",
			"type": "function"
		},
		{
			"inputs": [
				{
					"internalType": "uint256",
					"name": "",
					"type": "uint256"
				}
			],
			"name": "votedUsers",
			"outputs": [
				{
					"internalType": "uint256",
					"name": "",
					"type": "uint256"
				}
			],
			"stateMutability": "view",
			"type": "function"
		},
		{
			"inputs": [
				{
					"internalType": "address",
					"name": "",
					"type": "address"
				}
			],
			"name": "voters",
			"outputs": [
				{
					"internalType": "bool",
					"name": "votingRight",
					"type": "bool"
				}
			],
			"stateMutability": "view",
			"type": "function"
		},
		{
			"inputs": [],
			"name": "withdrawStake",
			"outputs": [],
			"stateMutability": "nonpayable",
			"type": "function"
		},
		{
			"stateMutability": "payable",
			"type": "receive"
		}
	]
}