{
	"data": {
		"bytecode": {
			"linkReferences": {},
			"object": "60806040526b04be37ea7317415c45800000601055601e80546001600160a01b03199081167307a20dc6722563783e44ba8edca08c774621125e17909155601f80548216732f838cf0df38b2e91e747a01ddae5ebad5558b7a1790556020805482167345094071c4daaf6a9a73b0a0f095a2b138bd8a3a1790556021805490911673aeb26fb84d0e2b3b353cd50f0a29fd40c916d2ab179055348015620000a557600080fd5b50604080518082018252600881526754414c415845554d60c01b6020808301918252835180850190945260058452640a8829882b60db1b908401528151919291620000f391600391620008aa565b50805162000109906004906020840190620008aa565b50505062000126620001206200081c60201b60201c565b62000820565b600f60065560506007556b43dacaf91c1a84ff080000006015556040805180820190915260088082526754414c415845554d60c01b60209092019182526200017191601691620008aa565b50604080518082019091526005808252640a8829882b60db1b6020909201918252620001a091601791620008aa565b50601c805461ffff1916600117905560067f6e7b3e7a52a447110501b683591c02edbdeee417f58dfb6b7bd7c4d5fac99cf95560077ffa02b14ef9deb43f821d5c4d4df343647569f13a66aa4e6481eeddd408415a435560087f67b1edb0e70c3b1fd9dece63d8d8420ca330b1f92f03281af2c99c6631d045095560136020526b01484ed81cebeb37b68000007fc04b5662930a6d9d33ae3e671e7857b39736bceb6d3e1a26756e2a89604454d855601d546001600160a01b03908116600090815260408082206b03648a260e3486a65a00000090556b04be37ea7317415c45800000601a556b08adb972c10243f4478000006019556b0d92289838d21a9968000000601b8190553083529181902091909155601e5490516b02427288f60130b77e800000929190911690620002d69062000939565b9182526001600160a01b03166020820152604001604051809103906000f08015801562000307573d6000803e3d6000fd5b50602260006101000a8154816001600160a01b0302191690836001600160a01b031602179055506b024306c4097859c43c00000073f09f65dd4d229e991901669ad7c7549f060e30b96040516200035e9062000939565b9182526001600160a01b03166020820152604001604051809103906000f0801580156200038f573d6000803e3d6000fd5b50602360006101000a8154816001600160a01b0302191690836001600160a01b031602179055506b024306c4097859c43c000000731a2118e056d6af192e233c2c9cfb34e067ded1f8604051620003e69062000939565b9182526001600160a01b03166020820152604001604051809103906000f08015801562000417573d6000803e3d6000fd5b50602460006101000a8154816001600160a01b0302191690836001600160a01b031602179055506b024306c4097859c43c00000073126974fa373267d86fab6d6871afe62ccb68e8106040516200046e9062000939565b9182526001600160a01b03166020820152604001604051809103906000f0801580156200049f573d6000803e3d6000fd5b50602580546001600160a01b0319166001600160a01b03928316179055601f546040516b024306c4097859c43c000000929190911690620004e09062000939565b9182526001600160a01b03166020820152604001604051809103906000f08015801562000511573d6000803e3d6000fd5b50602680546001600160a01b0319166001600160a01b039283161790556020546040516b024306c4097859c43c000000929190911690620005529062000939565b9182526001600160a01b03166020820152604001604051809103906000f08015801562000583573d6000803e3d6000fd5b50602780546001600160a01b0319166001600160a01b039283161790556021546040516b024306c4097859c43c000000929190911690620005c49062000939565b9182526001600160a01b03166020820152604001604051809103906000f080158015620005f5573d6000803e3d6000fd5b50602860006101000a8154816001600160a01b0302191690836001600160a01b031602179055506b024306c4097859c43c00000073e61e7a7d16db384433e532fb85724e7f3bdaae2f6040516200064c9062000939565b9182526001600160a01b03166020820152604001604051809103906000f0801580156200067d573d6000803e3d6000fd5b50602960006101000a8154816001600160a01b0302191690836001600160a01b031602179055506b024306c4097859c43c00000073406605eb24a97a2d61b516d8d850f2aefa6a731a604051620006d49062000939565b9182526001600160a01b03166020820152604001604051809103906000f08015801562000705573d6000803e3d6000fd5b50602a60006101000a8154816001600160a01b0302191690836001600160a01b031602179055506b024306c4097859c43c0000007397620deadc98bc8173303686037ce7b986cf53c36040516200075c9062000939565b9182526001600160a01b03166020820152604001604051809103906000f0801580156200078d573d6000803e3d6000fd5b50602b60006101000a8154816001600160a01b0302191690836001600160a01b03160217905550620008136b2d9ae8ee22462671588000006040518060400160405280601981526020017f496e73756666696369656e7420546f74616c20537570706c79000000000000008152506015546200087260201b62003079179092919060201c565b601555620009f3565b3390565b600580546001600160a01b038381166001600160a01b0319831681179093556040519116919082907f8be0079c531659141344cd1fd0a4f28419497f9722a3daafe3b4186f6b6457e090600090a35050565b60008184841115620008a25760405162461bcd60e51b81526004016200089991906200095e565b60405180910390fd5b505050900390565b828054620008b890620009b6565b90600052602060002090601f016020900481019282620008dc576000855562000927565b82601f10620008f757805160ff191683800117855562000927565b8280016001018555821562000927579182015b82811115620009275782518255916020019190600101906200090a565b506200093592915062000947565b5090565b6105b2806200650b83390190565b5b8082111562000935576000815560010162000948565b600060208083528351808285015260005b818110156200098d578581018301518582016040015282016200096f565b81811115620009a0576000604083870101525b50601f01601f1916929092016040019392505050565b600181811c90821680620009cb57607f821691505b60208210811415620009ed57634e487b7160e01b600052602260045260246000fd5b50919050565b615b088062000a036000396000f3fe6080604052600436106104185760003560e01c80638378a87511610228578063a3ec138d11610128578063cb79c2e1116100bb578063dd62ed3e1161008a578063e88c326f1161006f578063e88c326f14610c15578063f0413bd414610c35578063f2fde38b14610c5557610428565b8063dd62ed3e14610b37578063e73e14bf14610b7d57610428565b8063cb79c2e114610acc578063cbb3e15214610ae2578063d5dbdf1b14610af7578063d94d4ad614610b1757610428565b8063b87da76d116100f7578063b87da76d14610a75578063ba1f879f14610a8b578063bad4346c14610aa1578063bed9d86114610ab757610428565b8063a3ec138d146109e5578063a457c2d714610a15578063a7771ee314610a35578063a9059cbb14610a5557610428565b806390a4c709116101bb578063a071dcf41161018a578063a169c5151161016f578063a169c51514610985578063a1f780cf146109a5578063a25a17a7146109c557610428565b8063a071dcf41461093e578063a143a5f21461095857610428565b806390a4c709146108ea578063934851ec146108ff57806395d89b411461091457806396bc06871461092957610428565b80638b7c64da116101f75780638b7c64da146108625780638c63f97f146108825780638d4a3c85146108a25780638da5cb5b146108c257610428565b80638378a8751461080c578063883d9984146108215780638891cf0d146108365780638b2b423a1461084c57610428565b80633f3ef2dc11610333578063632a9a52116102c657806378dc9315116102955780637b0472f01161027a5780637b0472f0146107c25780637bb4e320146107e25780637c2412f9146107f757610428565b806378dc93151461078d57806379cc6790146107a257610428565b8063632a9a521461070d57806363a599a41461072257806370a0823114610742578063715018a61461077857610428565b8063549dee0b11610302578063549dee0b146106b757806356029137146106cd5780635b88349d146106e25780635f5300ff146106f757610428565b80633f3ef2dc1461064257806340c10f191461065757806342966c6814610677578063471a30a21461069757610428565b806318160ddd116103ab578063313ce5671161037a578063313ce567146105c9578063338dbf59146105eb578063376d441c14610601578063395093511461062257610428565b806318160ddd1461052b57806319ca147d1461054057806323b872dd1461058a5780632cf1a5fb146105aa57610428565b8063095ea7b3116103e7578063095ea7b3146104b15780630e1b09ed146104e15780630ec5aa1a1461050157806315441bb91461051657610428565b8063042249bb1461043157806306fdde031461045a578063070c8b741461047c578063078f522f1461049157610428565b366104285761042634610c75565b005b61042634610c75565b34801561043d57600080fd5b5061044760195481565b6040519081526020015b60405180910390f35b34801561046657600080fd5b5061046f610de7565b604051610451919061565b565b34801561048857600080fd5b50610426610e79565b34801561049d57600080fd5b506104266104ac3660046156b0565b610f88565b3480156104bd57600080fd5b506104d16104cc36600461573a565b6111d0565b6040519015158152602001610451565b3480156104ed57600080fd5b506104266104fc366004615766565b6111e8565b34801561050d57600080fd5b5061042661128c565b34801561052257600080fd5b506104266113cf565b34801561053757600080fd5b50601554610447565b34801561054c57600080fd5b50610555611473565b604051610451919081518152602080830151908201526040808301511515908201526060918201519181019190915260800190565b34801561059657600080fd5b506104d16105a536600461577f565b611570565b3480156105b657600080fd5b50601c546104d190610100900460ff1681565b3480156105d557600080fd5b5060125b60405160ff9091168152602001610451565b3480156105f757600080fd5b5061044760115481565b34801561060d57600080fd5b50601c546104d1906301000000900460ff1681565b34801561062e57600080fd5b506104d161063d36600461573a565b611594565b34801561064e57600080fd5b506104266115d3565b34801561066357600080fd5b5061042661067236600461573a565b611677565b34801561068357600080fd5b50610426610692366004615766565b6116cd565b3480156106a357600080fd5b506104266106b23660046157c0565b6116da565b3480156106c357600080fd5b50610447600f5481565b3480156106d957600080fd5b506104266117c0565b3480156106ee57600080fd5b50610426611864565b34801561070357600080fd5b50610447600b5481565b34801561071957600080fd5b5061042661191d565b34801561072e57600080fd5b5061042661073d366004615766565b611a40565b34801561074e57600080fd5b5061044761075d3660046157e3565b6001600160a01b031660009081526013602052604090205490565b34801561078457600080fd5b50610426611a87565b34801561079957600080fd5b50610426611adb565b3480156107ae57600080fd5b506104266107bd36600461573a565b611b7f565b3480156107ce57600080fd5b506104266107dd366004615800565b611b94565b3480156107ee57600080fd5b50610426611c65565b34801561080357600080fd5b50610426611d09565b34801561081857600080fd5b50610426611d31565b34801561082d57600080fd5b50610426611dd5565b34801561084257600080fd5b5061044760075481565b34801561085857600080fd5b5061044760105481565b34801561086e57600080fd5b5061042661087d366004615766565b611e79565b34801561088e57600080fd5b5061042661089d366004615766565b611f30565b3480156108ae57600080fd5b506104266108bd36600461573a565b611fb3565b3480156108ce57600080fd5b506005546040516001600160a01b039091168152602001610451565b3480156108f657600080fd5b5061042661206c565b34801561090b57600080fd5b50610426612110565b34801561092057600080fd5b5061046f6121b4565b34801561093557600080fd5b506104266121c3565b34801561094a57600080fd5b50601c546105d99060ff1681565b34801561096457600080fd5b50610447610973366004615766565b600d6020526000908152604090205481565b34801561099157600080fd5b506104266109a0366004615766565b612789565b3480156109b157600080fd5b506104266109c0366004615822565b6127da565b3480156109d157600080fd5b506104266109e03660046157e3565b6129a1565b3480156109f157600080fd5b506104d1610a003660046157e3565b600c6020526000908152604090205460ff1681565b348015610a2157600080fd5b506104d1610a3036600461573a565b612a33565b348015610a4157600080fd5b506104d1610a503660046157e3565b612add565b348015610a6157600080fd5b506104d1610a7036600461573a565b612b54565b348015610a8157600080fd5b5061044760085481565b348015610a9757600080fd5b50610447601a5481565b348015610aad57600080fd5b50610447601b5481565b348015610ac357600080fd5b50610426612b62565b348015610ad857600080fd5b5061044760065481565b348015610aee57600080fd5b50610447612bdb565b348015610b0357600080fd5b50610426610b12366004615766565b612c0e565b348015610b2357600080fd5b50610426610b32366004615766565b612c91565b348015610b4357600080fd5b50610447610b52366004615885565b6001600160a01b03918216600090815260146020908152604080832093909416825291909152205490565b348015610b8957600080fd5b50610b9d610b983660046157e3565b612d48565b6040516104519190600061012082019050825182526020830151602083015260408301516001600160a01b0381511660408401526020810151606084015260408101516080840152606081015160a0840152608081015160c084015260a081015160e084015260c08101516101008401525092915050565b348015610c2157600080fd5b50601c546104d19062010000900460ff1681565b348015610c4157600080fd5b50610426610c503660046158be565b612ef6565b348015610c6157600080fd5b50610426610c703660046157e3565b612fac565b6000610c828260036130a5565b73e61e7a7d16db384433e532fb85724e7f3bdaae2f60005260136020527fac3f991b0bcfbe5a49cb8f28aa381129b92fdf4ed0797bb0b28f2d4f8472e52f54909150610cce90826130b8565b60136020527fac3f991b0bcfbe5a49cb8f28aa381129b92fdf4ed0797bb0b28f2d4f8472e52f5573406605eb24a97a2d61b516d8d850f2aefa6a731a6000527f8a2b6c18ed66322c8ecb6f6eef8af1341bab377e298d1a97668035e55c3fb98754610d3990826130b8565b60136020527f8a2b6c18ed66322c8ecb6f6eef8af1341bab377e298d1a97668035e55c3fb987557397620deadc98bc8173303686037ce7b986cf53c36000527f192f1ac10b1314d35bbc8fcf3f0d2f253c4710988114baec9c0ab6a710be3ec754610da490826130b8565b7397620deadc98bc8173303686037ce7b986cf53c360005260136020527f192f1ac10b1314d35bbc8fcf3f0d2f253c4710988114baec9c0ab6a710be3ec7555050565b606060168054610df690615909565b80601f0160208091040260200160405190810160405280929190818152602001828054610e2290615909565b8015610e6f5780601f10610e4457610100808354040283529160200191610e6f565b820191906000526020600020905b815481529060010190602001808311610e5257829003601f168201915b5050505050905090565b610e816130c4565b336000908152600c602052604090205460ff161515600114610eea5760405162461bcd60e51b815260206004820152601360248201527f596f7520617265206e6f74206120766f7465720000000000000000000000000060448201526064015b60405180910390fd5b336000908152600c60209081526040808320600a54845260019081019092529091205460ff16151514610f5f5760405162461bcd60e51b815260206004820152601660248201527f596f752068617665206e6f7420766f74656420796574000000000000000000006044820152606401610ee1565b600a546000908152600d60205260408120805460019290610f8190849061595a565b9091555050565b6005546001600160a01b03163314610fd05760405162461bcd60e51b81526020600482018190526024820152600080516020615a7a8339815191526044820152606401610ee1565b601c546000906301000000900460ff1615156001146110315760405162461bcd60e51b815260206004820152601c60248201527f507269766174652053616c65206e6f74207965742073746172746564000000006044820152606401610ee1565b8161107e5760405162461bcd60e51b815260206004820152600e60248201527f4e6f7468696e6720746f206164640000000000000000000000000000000000006044820152606401610ee1565b60005b828110156111ba576110ad84848381811061109e5761109e615971565b90506040020160200135613116565b8383828181106110bf576110bf615971565b90506040020160200135826110d49190615987565b91506111228484838181106110eb576110eb615971565b61110192602060409092020190810191506157e3565b85858481811061111357611113615971565b90506040020160200135613163565b83838281811061113457611134615971565b61114a92602060409092020190810191506157e3565b6001600160a01b0316337f045b7246d64fe59430ba3159fd11dc7352501c1d80f8a6535cf48f68965e274586868581811061118757611187615971565b905060400201602001356040516111a091815260200190565b60405180910390a3806111b28161599f565b915050611081565b50601a546111c890826132d6565b601a55505050565b6000336111de8185856132e2565b5060019392505050565b6005546001600160a01b031633146112305760405162461bcd60e51b81526020600482018190526024820152600080516020615a7a8339815191526044820152606401610ee1565b60195461123d90826132d6565b60195560155461124d90826132d6565b60155560405181815260009030907f715128ea18bcb5a472f8187c4fbfdc1ed6d04ecdcff67e3f546fdd075e862665906020015b60405180910390a350565b61129461343b565b602560009054906101000a90046001600160a01b03166001600160a01b03166338af3eed6040518163ffffffff1660e01b8152600401602060405180830381865afa1580156112e7573d6000803e3d6000fd5b505050506040513d601f19601f8201168201806040525081019061130b91906159ba565b61131481613498565b6025546000906001600160a01b0316630a95606e6113306134f0565b6040518263ffffffff1660e01b815260040161134c91906159d7565b6020604051808303816000875af115801561136b573d6000803e3d6000fd5b505050506040513d601f19601f8201168201806040525081019061138f9190615a09565b90506113bb8160136000335b6001600160a01b03168152602081019190915260400160002054906130b8565b336000908152601360205260409020555050565b6113d761343b565b602760009054906101000a90046001600160a01b03166001600160a01b03166338af3eed6040518163ffffffff1660e01b8152600401602060405180830381865afa15801561142a573d6000803e3d6000fd5b505050506040513d601f19601f8201168201806040525081019061144e91906159ba565b61145781613498565b6027546000906001600160a01b0316630a95606e61133061393b565b6114a060405180608001604052806000815260200160008152602001600015158152602001600081525090565b336000908152601260205260409020600101546115255760405162461bcd60e51b815260206004820152603860248201527f5072697661746553616c653a20596f7520646f6e2774206861766520616e792060448201527f62616c616e636520666f7220707269766174652073616c6500000000000000006064820152608401610ee1565b5033600090815260126020908152604091829020825160808101845281548152600182015492810192909252600281015460ff16151592820192909252600390910154606082015290565b60003361157e8582856139fb565b611589858585613a8d565b506001949350505050565b3360008181526014602090815260408083206001600160a01b03871684529091528120549091906111de90829086906115ce908790615987565b6132e2565b6115db61343b565b602b60009054906101000a90046001600160a01b03166001600160a01b03166338af3eed6040518163ffffffff1660e01b8152600401602060405180830381865afa15801561162e573d6000803e3d6000fd5b505050506040513d601f19601f8201168201806040525081019061165291906159ba565b61165b81613498565b602b546000906001600160a01b0316630a95606e611330613cf1565b6005546001600160a01b031633146116bf5760405162461bcd60e51b81526020600482018190526024820152600080516020615a7a8339815191526044820152606401610ee1565b6116c98282614149565b5050565b6116d73382614228565b50565b6005546001600160a01b031633146117225760405162461bcd60e51b81526020600482018190526024820152600080516020615a7a8339815191526044820152606401610ee1565b60058160ff16106117755760405162461bcd60e51b815260206004820152601560248201527f54617820466565206d6178696d756d20697320352500000000000000000000006044820152606401610ee1565b601c805460ff191660ff831690811790915560405190815233907fdf92943b31fff67e8447ff9fa8b5e226ddcc5fb34d36cfe120c0f2b96eb8d6f7906020015b60405180910390a250565b6117c861343b565b602960009054906101000a90046001600160a01b03166001600160a01b03166338af3eed6040518163ffffffff1660e01b8152600401602060405180830381865afa15801561181b573d6000803e3d6000fd5b505050506040513d601f19601f8201168201806040525081019061183f91906159ba565b61184881613498565b6029546000906001600160a01b0316630a95606e611330613cf1565b601c5460ff6101009091041615156001146118c15760405162461bcd60e51b815260206004820152601760248201527f41697264726f70206e6f742079657420737461727465640000000000000000006044820152606401610ee1565b60006118cc336143a5565b306000908152601360205260409020549091506118e990826132d6565b30600090815260136020819052604082209290925561190a9183913361139b565b3360009081526013602052604090205550565b6119256130c4565b336000908152600c602052604090205460ff1615156001146119895760405162461bcd60e51b815260206004820152601360248201527f596f7520617265206e6f74206120766f746572000000000000000000000000006044820152606401610ee1565b336000908152600c60209081526040808320600a54845260010190915290205460ff16156119f95760405162461bcd60e51b815260206004820152601560248201527f596f75206861766520766f746564206265666f726500000000000000000000006044820152606401610ee1565b336000908152600c60209081526040808320600a8054855260019182018452828520805460ff191683179055548452600d9092528220805491929091610f81908490615987565b33600090815260136020526040902054611a5a90826132d6565b33600090815260136020526040812091909155601b8054839290611a7f908490615987565b909155505050565b6005546001600160a01b03163314611acf5760405162461bcd60e51b81526020600482018190526024820152600080516020615a7a8339815191526044820152606401610ee1565b611ad960006144f8565b565b611ae361343b565b602360009054906101000a90046001600160a01b03166001600160a01b03166338af3eed6040518163ffffffff1660e01b8152600401602060405180830381865afa158015611b36573d6000803e3d6000fd5b505050506040513d601f19601f82011682018060405250810190611b5a91906159ba565b611b6381613498565b6023546000906001600160a01b0316630a95606e6113306134f0565b611b8a8233836139fb565b6116c98282614228565b8062278d001480611ba75750806276a700145b80611bb457508062ed4e00145b80611bc25750806301e13380145b611c0e5760405162461bcd60e51b815260206004820152601b60248201527f5374616b696e67206f7074696f6e20646f65736e7420657869737400000000006044820152606401610ee1565b611c183383614228565b611c37338383601860008681526020019081526020016000205461454a565b30600090815260136020526040902054611c5190836130b8565b306000908152601360205260409020555050565b611c6d61343b565b602460009054906101000a90046001600160a01b03166001600160a01b03166338af3eed6040518163ffffffff1660e01b8152600401602060405180830381865afa158015611cc0573d6000803e3d6000fd5b505050506040513d601f19601f82011682018060405250810190611ce491906159ba565b611ced81613498565b6024546000906001600160a01b0316630a95606e6113306134f0565b611d1f611d153361473f565b601360003361139b565b33600090815260136020526040902055565b611d3961343b565b602660009054906101000a90046001600160a01b03166001600160a01b03166338af3eed6040518163ffffffff1660e01b8152600401602060405180830381865afa158015611d8c573d6000803e3d6000fd5b505050506040513d601f19601f82011682018060405250810190611db091906159ba565b611db981613498565b6026546000906001600160a01b0316630a95606e61133061393b565b611ddd61343b565b602860009054906101000a90046001600160a01b03166001600160a01b03166338af3eed6040518163ffffffff1660e01b8152600401602060405180830381865afa158015611e30573d6000803e3d6000fd5b505050506040513d601f19601f82011682018060405250810190611e5491906159ba565b611e5d81613498565b6028546000906001600160a01b0316630a95606e61133061393b565b6005546001600160a01b03163314611ec15760405162461bcd60e51b81526020600482018190526024820152600080516020615a7a8339815191526044820152606401610ee1565b30600090815260136020526040902054611edb90826132d6565b30600090815260136020526040902055601554611ef890826132d6565b60155560405181815260009030907fddf252ad1be2c89b69c2b068fc378daa952ba7f163c4a11628f55a4df523b3ef90602001611281565b6005546001600160a01b03163314611f785760405162461bcd60e51b81526020600482018190526024820152600080516020615a7a8339815191526044820152606401610ee1565b611f8181614899565b60405181815233907fe4d1041ab63832a18ae323c0781239637b799ccd1ffa03b0cc4c0916f14834d7906020016117b5565b6005546001600160a01b03163314611ffb5760405162461bcd60e51b81526020600482018190526024820152600080516020615a7a8339815191526044820152606401610ee1565b600061200561494b565b90506001811515141561205f57601b5461201f90836132d6565b601b556001600160a01b03831660009081526013602052604090205461204590836130b8565b6001600160a01b0384166000908152601360205260409020555b6120676149e5565b505050565b61207461343b565b602a60009054906101000a90046001600160a01b03166001600160a01b03166338af3eed6040518163ffffffff1660e01b8152600401602060405180830381865afa1580156120c7573d6000803e3d6000fd5b505050506040513d601f19601f820116820180604052508101906120eb91906159ba565b6120f481613498565b602a546000906001600160a01b0316630a95606e611330613cf1565b61211861343b565b602260009054906101000a90046001600160a01b03166001600160a01b03166338af3eed6040518163ffffffff1660e01b8152600401602060405180830381865afa15801561216b573d6000803e3d6000fd5b505050506040513d601f19601f8201168201806040525081019061218f91906159ba565b61219881613498565b6022546000906001600160a01b0316630a95606e6113306149f9565b606060178054610df690615909565b6005546001600160a01b0316331461220b5760405162461bcd60e51b81526020600482018190526024820152600080516020615a7a8339815191526044820152606401610ee1565b601c5462010000900460ff1615801561222e5750601c546301000000900460ff16155b61227a5760405162461bcd60e51b815260206004820152601560248201527f4e6f7468696e6720746f20696e697469616c697a6500000000000000000000006044820152606401610ee1565b601c805462ff0000191662010000179055602254604080517fc8cca41e00000000000000000000000000000000000000000000000000000000815290516001600160a01b039092169163c8cca41e9160048082019260009290919082900301818387803b1580156122ea57600080fd5b505af11580156122fe573d6000803e3d6000fd5b50505050602360009054906101000a90046001600160a01b03166001600160a01b031663c8cca41e6040518163ffffffff1660e01b8152600401600060405180830381600087803b15801561235257600080fd5b505af1158015612366573d6000803e3d6000fd5b50505050602460009054906101000a90046001600160a01b03166001600160a01b031663c8cca41e6040518163ffffffff1660e01b8152600401600060405180830381600087803b1580156123ba57600080fd5b505af11580156123ce573d6000803e3d6000fd5b50505050602560009054906101000a90046001600160a01b03166001600160a01b031663c8cca41e6040518163ffffffff1660e01b8152600401600060405180830381600087803b15801561242257600080fd5b505af1158015612436573d6000803e3d6000fd5b50505050602660009054906101000a90046001600160a01b03166001600160a01b031663c8cca41e6040518163ffffffff1660e01b8152600401600060405180830381600087803b15801561248a57600080fd5b505af115801561249e573d6000803e3d6000fd5b50505050602760009054906101000a90046001600160a01b03166001600160a01b031663c8cca41e6040518163ffffffff1660e01b8152600401600060405180830381600087803b1580156124f257600080fd5b505af1158015612506573d6000803e3d6000fd5b50505050602860009054906101000a90046001600160a01b03166001600160a01b031663c8cca41e6040518163ffffffff1660e01b8152600401600060405180830381600087803b15801561255a57600080fd5b505af115801561256e573d6000803e3d6000fd5b50505050602960009054906101000a90046001600160a01b03166001600160a01b031663c8cca41e6040518163ffffffff1660e01b8152600401600060405180830381600087803b1580156125c257600080fd5b505af11580156125d6573d6000803e3d6000fd5b50505050602a60009054906101000a90046001600160a01b03166001600160a01b031663c8cca41e6040518163ffffffff1660e01b8152600401600060405180830381600087803b15801561262a57600080fd5b505af115801561263e573d6000803e3d6000fd5b50505050602b60009054906101000a90046001600160a01b03166001600160a01b031663c8cca41e6040518163ffffffff1660e01b8152600401600060405180830381600087803b15801561269257600080fd5b505af11580156126a6573d6000803e3d6000fd5b505050506126b13390565b6001600160a01b03167f72e04afc383d9ab428814e808cd65abb27c66b5fa85cc230b4cda3e36b436c9860405160405180910390a2601c805463ff0000001916630100000017905561270242601155565b60405133907f166f0287f5e28d35ec474da4c920a3e6f47f0d7c8833b963dd8367f68dd377cd90600090a2601c805461ff00191661010017905561274542600855565b601c5460405161010090910460ff161515815233907fe596a4fd4ba2e7f54093d98b96267c6b0dbae1e317bed8123d9fbc868c0283779060200160405180910390a2565b6005546001600160a01b031633146127d15760405162461bcd60e51b81526020600482018190526024820152600080516020615a7a8339815191526044820152606401610ee1565b6116d781614d95565b6005546001600160a01b031633146128225760405162461bcd60e51b81526020600482018190526024820152600080516020615a7a8339815191526044820152606401610ee1565b601c546000906301000000900460ff1615156001146128835760405162461bcd60e51b815260206004820152601c60248201527f507269766174652053616c65206e6f74207965742073746172746564000000006044820152606401610ee1565b816128d05760405162461bcd60e51b815260206004820152601160248201527f4e6f7468696e6720746f2064656c6574650000000000000000000000000000006044820152606401610ee1565b60005b8281101561299357600061290c8585848181106128f2576128f2615971565b905060200201602081019061290791906157e3565b614dea565b90506129188184615987565b925084848381811061292c5761292c615971565b905060200201602081019061294191906157e3565b6001600160a01b0316336001600160a01b03167f946ed2f29c189bb6f4744c09f637bda38011cabc8d1433bb26ddad258b9e82d660405160405180910390a3508061298b8161599f565b9150506128d3565b50601a546111c890826130b8565b6005546001600160a01b031633146129e95760405162461bcd60e51b81526020600482018190526024820152600080516020615a7a8339815191526044820152606401610ee1565b601e80546001600160a01b0319166001600160a01b0383169081179091556040517fc35cea67bc4caf96cc47a71099d4192a65d36ab490d26ebf55825c0700815f6190600090a250565b3360008181526014602090815260408083206001600160a01b038716845290915281205490919083811015612ad05760405162461bcd60e51b815260206004820152602560248201527f45524332303a2064656372656173656420616c6c6f77616e63652062656c6f7760448201527f207a65726f0000000000000000000000000000000000000000000000000000006064820152608401610ee1565b61158982868684036132e2565b60006001600160a01b038216612b355760405162461bcd60e51b815260206004820152600f60248201527f496e76616c6964206164647265737300000000000000000000000000000000006044820152606401610ee1565b506001600160a01b03166000908152600c602052604090205460ff1690565b6000336111de818585613a8d565b600080612b6e33614f01565b91509150612b7b81612789565b30600090815260136020526040902054612b9590836132d6565b30600090815260136020526040902055601954612bb290826132d6565b601955612bcb612bc28284615987565b601554906130b8565b6015556113bb611d158284615987565b6000600854600014612c085762093a8060085442612bf9919061595a565b612c039190615a38565b905090565b50600090565b6005546001600160a01b03163314612c565760405162461bcd60e51b81526020600482018190526024820152600080516020615a7a8339815191526044820152606401610ee1565b612c5f81615096565b60405181815233907f31bbdc307cb7afab9b265ee4c47f5feb19d8a8702a67c0b695df02e0d4c55b5f906020016117b5565b6005546001600160a01b03163314612cd95760405162461bcd60e51b81526020600482018190526024820152600080516020615a7a8339815191526044820152606401610ee1565b30600090815260136020526040902054612cf390826130b8565b30600090815260136020526040902055601554612d1090826130b8565b60155560405181815230906000907fddf252ad1be2c89b69c2b068fc378daa952ba7f163c4a11628f55a4df523b3ef90602001611281565b612d506155d5565b6001600160a01b038083166000908152600e6020908152604080832081516101408101835281548616606080830191825260018401546080840152600284015460a0840152600384015460c0840152600484015460e08401526005840154610100840152600684015461012084015290825260078301549096168185015260089091015481830152815194850182528385528483019390935282519084018190520151909190612e425760405162461bcd60e51b815260206004820152600e60248201527f4e6f207374616b6520666f756e640000000000000000000000000000000000006044820152606401610ee1565b6000612e518260400151615142565b9050600042836040015160c001511115612e8e57600080612e7a856040015160200151856151a0565b9092509050612e898183615987565b925050505b6000612e9d85604001516151d5565b1115612ec5576000612eb68460400151602001516151ee565b60408501516080015250612ed3565b604083015160006080909101525b604083018051606001929092526020808401919091529051015181529392505050565b6005546001600160a01b03163314612f3e5760405162461bcd60e51b81526020600482018190526024820152600080516020615a7a8339815191526044820152606401610ee1565b601f80546001600160a01b03199081166001600160a01b03868116918217909355602080548316868516908117909155602180549093169385169384179092556040517f6c2b82da20e0f724acb9c915394d71b33d74c77790c60004585726c2414879a390600090a4505050565b6005546001600160a01b03163314612ff45760405162461bcd60e51b81526020600482018190526024820152600080516020615a7a8339815191526044820152606401610ee1565b6001600160a01b0381166130705760405162461bcd60e51b815260206004820152602660248201527f4f776e61626c653a206e6577206f776e657220697320746865207a65726f206160448201527f64647265737300000000000000000000000000000000000000000000000000006064820152608401610ee1565b6116d7816144f8565b6000818484111561309d5760405162461bcd60e51b8152600401610ee1919061565b565b505050900390565b60006130b18284615a38565b9392505050565b60006130b18284615987565b60095460ff16611ad95760405162461bcd60e51b815260206004820152601760248201527f566f74696e67206973206e6f7420617661696c61626c650000000000000000006044820152606401610ee1565b806116d75760405162461bcd60e51b815260206004820152601560248201527f416d6f756e742063616e6e6f74206265207a65726f00000000000000000000006044820152606401610ee1565b6010548111156131db5760405162461bcd60e51b815260206004820152603160248201527f5072697661746553616c653a206e6f7420656e6f7567682062616c616e63652060448201527f746f206164642061206e657720757365720000000000000000000000000000006064820152608401610ee1565b6001600160a01b0382166000908152601260205260409020600101541561326a5760405162461bcd60e51b815260206004820152602960248201527f5072697661746553616c653a2054686973207573657220616c7265616479207260448201527f65676973746572656400000000000000000000000000000000000000000000006064820152608401610ee1565b6001600160a01b0382166000908152601260205260408120828155600180820184905560028201805460ff191690556003909101819055600f8054919290916132b4908490615987565b9250508190555080601060008282546132cd919061595a565b90915550505050565b60006130b1828461595a565b6001600160a01b03831661335d5760405162461bcd60e51b8152602060048201526024808201527f45524332303a20617070726f76652066726f6d20746865207a65726f2061646460448201527f72657373000000000000000000000000000000000000000000000000000000006064820152608401610ee1565b6001600160a01b0382166133d95760405162461bcd60e51b815260206004820152602260248201527f45524332303a20617070726f766520746f20746865207a65726f20616464726560448201527f73730000000000000000000000000000000000000000000000000000000000006064820152608401610ee1565b6001600160a01b0383811660008181526014602090815260408083209487168084529482529182902085905590518481527f8c5be1e5ebec7d5bd14f71427d1e84f3dd0314c0f7b2291e5b200ac8c7c3b92591015b60405180910390a3505050565b601c5462010000900460ff161515600114611ad95760405162461bcd60e51b815260206004820152601d60248201527f4c6f636b65642057616c6c6574206e6f742079657420737461727465640000006044820152606401610ee1565b336001600160a01b038216146116d75760405162461bcd60e51b815260206004820152601160248201527f57616c6c6574206f776e6572206f6e6c790000000000000000000000000000006044820152606401610ee1565b6134f861563c565b60405180610660016040528061351a6301908b10670de0b6b3a7640000615210565b815260200160008152602001600081526020016000815260200160008152602001600081526020016000815260200160008152602001600081526020016000815260200160008152602001600081526020016000815260200160008152602001600081526020016000815260200161359e6301b1ebfc670de0b6b3a7640000615210565b81526020016135b96301b1ebfc670de0b6b3a7640000615210565b81526020016135d46301b1ebfc670de0b6b3a7640000615210565b81526020016135ef6301b1ebfc670de0b6b3a7640000615210565b815260200161360a6301b1ebfc670de0b6b3a7640000615210565b81526020016136256301b1ebfc670de0b6b3a7640000615210565b81526020016136406301b1ebfc670de0b6b3a7640000615210565b815260200161365b6301b1ebfc670de0b6b3a7640000615210565b81526020016136766301b1ebfc670de0b6b3a7640000615210565b81526020016136916301b1ebfc670de0b6b3a7640000615210565b81526020016136ac6301b1ebfc670de0b6b3a7640000615210565b81526020016136c76301b1ebfc670de0b6b3a7640000615210565b81526020016136e26301b1ebfc670de0b6b3a7640000615210565b81526020016136fd6301b1ebfc670de0b6b3a7640000615210565b81526020016137186301b1ebfc670de0b6b3a7640000615210565b81526020016137336301b1ebfc670de0b6b3a7640000615210565b815260200161374e6301b1ebfc670de0b6b3a7640000615210565b81526020016137696301b1ebfc670de0b6b3a7640000615210565b81526020016137846301b1ebfc670de0b6b3a7640000615210565b815260200161379f6301b1ebfc670de0b6b3a7640000615210565b81526020016137ba6301b1ebfc670de0b6b3a7640000615210565b81526020016137d56301b1ebfc670de0b6b3a7640000615210565b81526020016137f06301b1ebfc670de0b6b3a7640000615210565b815260200161380b6301b1ebfc670de0b6b3a7640000615210565b81526020016138266301b1ebfc670de0b6b3a7640000615210565b81526020016138416301b1ebfc670de0b6b3a7640000615210565b815260200161385c6301b1ebfc670de0b6b3a7640000615210565b81526020016138776301b1ebfc670de0b6b3a7640000615210565b81526020016138926301b1ebfc670de0b6b3a7640000615210565b81526020016138ad6301b1ebfc670de0b6b3a7640000615210565b81526020016138c86301b1ebfc670de0b6b3a7640000615210565b81526020016138e36301b1ebfc670de0b6b3a7640000615210565b81526020016138fe6301b1ebfc670de0b6b3a7640000615210565b81526020016139196301b1ebfc670de0b6b3a7640000615210565b81526020016139346301b1ebfc670de0b6b3a7640000615210565b9052919050565b61394361563c565b60405180610660016040528061396462c84588670de0b6b3a7640000615210565b8152602001600081526020016000815260200160008152602001600081526020016000815260200160008152602001600081526020016139af62c84588670de0b6b3a7640000615210565b81526020016000815260200160008152602001600081526020016000815260200160008152602001600081526020016000815260200161359e6301b1ebfc670de0b6b3a7640000615210565b6001600160a01b038381166000908152601460209081526040808320938616835292905220546000198114613a875781811015613a7a5760405162461bcd60e51b815260206004820152601d60248201527f45524332303a20696e73756666696369656e7420616c6c6f77616e63650000006044820152606401610ee1565b613a8784848484036132e2565b50505050565b6001600160a01b038316613ae35760405162461bcd60e51b815260206004820152601a60248201527f5472616e736665722066726f6d207a65726f20616464726573730000000000006044820152606401610ee1565b6001600160a01b038216613b395760405162461bcd60e51b815260206004820152601860248201527f5472616e7366657220746f207a65726f206164647265737300000000000000006044820152606401610ee1565b6001600160a01b03831660009081526013602052604090205481811015613bc85760405162461bcd60e51b815260206004820152602660248201527f45524332303a207472616e7366657220616d6f756e742065786365656473206260448201527f616c616e636500000000000000000000000000000000000000000000000000006064820152608401610ee1565b6001600160a01b03841660009081526013602052604081208383039055601c54613c0190613bfa90859060ff16615210565b60646130a5565b90506000613c0f84836132d6565b90506000613c28613c21836002615210565b600a6130a5565b90506000613c3a613c21846008615210565b9050613c4582610c75565b30600090815260136020526040902054613c5f90826130b8565b30600090815260136020526040808220929092556001600160a01b03891681522054613c8b90846130b8565b6001600160a01b0380891660008181526013602052604090819020939093559151908a16907fddf252ad1be2c89b69c2b068fc378daa952ba7f163c4a11628f55a4df523b3ef90613cdf9087815260200190565b60405180910390a35050505050505050565b613cf961563c565b604051806106600160405280613d1b6301406f40670de0b6b3a7640000615210565b815260200160008152602001600081526020016000815260200160008152602001600081526020016000815260200160008152602001613d676301406f40670de0b6b3a7640000615210565b815260200160008152602001600081526020016000815260200160008152602001600081526020016000815260200160008152602001613db36303684b4b670de0b6b3a7640000615210565b8152602001613dce6303684b4b670de0b6b3a7640000615210565b8152602001613de96303684b4b670de0b6b3a7640000615210565b8152602001613e046303684b4b670de0b6b3a7640000615210565b8152602001613e1f6303684b4b670de0b6b3a7640000615210565b8152602001613e3a6303684b4b670de0b6b3a7640000615210565b8152602001613e556303684b4b670de0b6b3a7640000615210565b8152602001613e706303684b4b670de0b6b3a7640000615210565b8152602001613e8b6303684b4b670de0b6b3a7640000615210565b8152602001613ea66303684b4b670de0b6b3a7640000615210565b8152602001613ec16303684b4b670de0b6b3a7640000615210565b8152602001613edc6303684b4b670de0b6b3a7640000615210565b8152602001613ef76303684b4b670de0b6b3a7640000615210565b8152602001613f126303684b4b670de0b6b3a7640000615210565b8152602001613f2d6303684b4b670de0b6b3a7640000615210565b8152602001613f486303684b4b670de0b6b3a7640000615210565b8152602001613f636303684b4b670de0b6b3a7640000615210565b8152602001613f7e6303684b4b670de0b6b3a7640000615210565b8152602001613f996303684b4b670de0b6b3a7640000615210565b8152602001613fb46303684b4b670de0b6b3a7640000615210565b8152602001613fcf6303684b4b670de0b6b3a7640000615210565b8152602001613fea6303684b4b670de0b6b3a7640000615210565b81526020016140056303684b4b670de0b6b3a7640000615210565b81526020016140206303684b4b670de0b6b3a7640000615210565b815260200161403b6303684b4b670de0b6b3a7640000615210565b81526020016140566303684b4b670de0b6b3a7640000615210565b81526020016140716303684b4b670de0b6b3a7640000615210565b815260200161408c6303684b4b670de0b6b3a7640000615210565b81526020016140a76303684b4b670de0b6b3a7640000615210565b81526020016140c26303684b4b670de0b6b3a7640000615210565b81526020016140dd6303684b4b670de0b6b3a7640000615210565b81526020016140f86303684b4b670de0b6b3a7640000615210565b81526020016141136303684b4b670de0b6b3a7640000615210565b815260200161412e6303684b4b670de0b6b3a7640000615210565b81526020016139346303684b4b670de0b6b3a7640000615210565b6001600160a01b03821661419f5760405162461bcd60e51b815260206004820152601f60248201527f45524332303a206d696e7420746f20746865207a65726f2061646472657373006044820152606401610ee1565b80600260008282546141b19190615987565b90915550506001600160a01b038216600090815260208190526040812080548392906141de908490615987565b90915550506040518181526001600160a01b038316906000907fddf252ad1be2c89b69c2b068fc378daa952ba7f163c4a11628f55a4df523b3ef9060200160405180910390a35050565b6001600160a01b0382166142a45760405162461bcd60e51b815260206004820152602160248201527f45524332303a206275726e2066726f6d20746865207a65726f2061646472657360448201527f73000000000000000000000000000000000000000000000000000000000000006064820152608401610ee1565b6001600160a01b038216600090815260136020526040902054818110156143335760405162461bcd60e51b815260206004820152602260248201527f45524332303a206275726e20616d6f756e7420657863656564732062616c616e60448201527f63650000000000000000000000000000000000000000000000000000000000006064820152608401610ee1565b6001600160a01b038316600090815260136020526040812083830390556015805484929061436290849061595a565b90915550506040518281526000906001600160a01b038516907fddf252ad1be2c89b69c2b068fc378daa952ba7f163c4a11628f55a4df523b3ef9060200161342e565b6001600160a01b038082166000908152600e602090815260408083208151610140810183528154861660608201908152600183015460808301819052600284015460a0840152600384015460c0840152600484015460e0840152600584015461010084015260068401546101208401529082526007830154909616938101939093526008015490820152909161447d5760405162461bcd60e51b815260206004820152600e60248201527f4e6f207374616b6520666f756e640000000000000000000000000000000000006044820152606401610ee1565b600061448c82604001516151d5565b116144d95760405162461bcd60e51b815260206004820152601560248201527f436c61696d61626c65206f6e63652061207765656b00000000000000000000006044820152606401610ee1565b805160006080909101524260408201528051602001516130b1906151ee565b600580546001600160a01b038381166001600160a01b0319831681179093556040519116919082907f8be0079c531659141344cd1fd0a4f28419497f9722a3daafe3b4186f6b6457e090600090a35050565b6000831161459a5760405162461bcd60e51b815260206004820152601460248201527f43616e6e6f74207374616b65206e6f7468696e670000000000000000000000006044820152606401610ee1565b6001600160a01b0384166000908152600e6020526040902060010154156146035760405162461bcd60e51b815260206004820152601060248201527f557365722069732061207374616b6572000000000000000000000000000000006044820152606401610ee1565b6001600b60008282546146169190615987565b90915550506001600160a01b0384166000818152600c60209081526040808320805460ff19166001179055805160e0810182529384529083018690524290830181905260608301829052608083019190915260a082018390529060c0810161467e8386615987565b90526001600160a01b038681166000818152600e6020908152604091829020855181546001600160a01b031916951694909417845584015160018401558301516002830155606083015160038301556080830151600483015560a0830151600583015560c0909201516006909101557fb4caaf29adda3eefee3ad552a8e85058589bf834c7466cae4ee58787f70589ed858361471a8188615987565b6040805193845260208401929092529082015260600160405180910390a25050505050565b6001600160a01b0381166000908152601260205260408120600101546147a75760405162461bcd60e51b815260206004820152601b60248201527f5072697661746553616c653a206e6f20746f6b656e73206c65667400000000006044820152606401610ee1565b60006147b28361521c565b90506000811161482a5760405162461bcd60e51b815260206004820152602160248201527f5072697661746553616c653a206e6f20746f6b656e7320746f2072656c65617360448201527f65000000000000000000000000000000000000000000000000000000000000006064820152608401610ee1565b61487560126000856001600160a01b03166001600160a01b031681526020019081526020016000206001015482604051806060016040528060398152602001615a9a60399139613079565b6001600160a01b039093166000908152601260205260409020600101929092555090565b601e81111561490f5760405162461bcd60e51b8152602060048201526024808201527f50656e616c7479206665652063616e6e6f74206578636565642033207065726360448201527f656e742e000000000000000000000000000000000000000000000000000000006064820152608401610ee1565b60068190556040518181527fcfa4f4cf1cd64d13a167a8e75605e0c0c9d6700e903d17c5dc11f593254a04a9906020015b60405180910390a150565b60006149556130c4565b6001600b54116149a75760405162461bcd60e51b815260206004820152601160248201527f4e6f7420656e6f75676820766f746572730000000000000000000000000000006044820152606401610ee1565b60006149b9613c21600b546005615210565b600a546000908152600d60205260409020549091508110156149dd57600191505090565b600091505090565b6149ed6130c4565b6009805460ff19169055565b614a0161563c565b604051806106600160405280614a226242b0c1670de0b6b3a7640000615210565b8152602001614a3c6242b0c1670de0b6b3a7640000615210565b8152602001614a566242b0c1670de0b6b3a7640000615210565b8152602001614a706242b0c1670de0b6b3a7640000615210565b8152602001614a8a6242b0c1670de0b6b3a7640000615210565b8152602001614aa46242b0c1670de0b6b3a7640000615210565b8152602001614abe6242b0c1670de0b6b3a7640000615210565b8152602001614ad86242b0c1670de0b6b3a7640000615210565b8152602001614af26242b0c1670de0b6b3a7640000615210565b8152602001614b0c6242b0c1670de0b6b3a7640000615210565b8152602001614b266242b0c1670de0b6b3a7640000615210565b8152602001614b406242b0c1670de0b6b3a7640000615210565b8152602001614b5a6242b0c1670de0b6b3a7640000615210565b8152602001614b746242b0c1670de0b6b3a7640000615210565b8152602001614b8e6242b0c1670de0b6b3a7640000615210565b8152602001614ba86242b0c1670de0b6b3a7640000615210565b8152602001614bc3630320490c670de0b6b3a7640000615210565b8152602001614bde630320490c670de0b6b3a7640000615210565b8152602001614bf9630320490c670de0b6b3a7640000615210565b8152602001614c14630320490c670de0b6b3a7640000615210565b8152602001614c2f630320490c670de0b6b3a7640000615210565b8152602001614c4a630320490c670de0b6b3a7640000615210565b8152602001614c65630320490c670de0b6b3a7640000615210565b8152602001614c80630320490c670de0b6b3a7640000615210565b8152602001614c9b630320490c670de0b6b3a7640000615210565b8152602001614cb6630320490c670de0b6b3a7640000615210565b8152602001614cd1630320490c670de0b6b3a7640000615210565b8152602001614cec630320490c670de0b6b3a7640000615210565b8152602001600081526020016000815260200160008152602001600081526020016000815260200160008152602001600081526020016000815260200160008152602001600081526020016000815260200160008152602001600081526020016000815260200160008152602001600081526020016000815260200160008152602001600081526020016000815260200160008152602001600081526020016000815250905090565b601954614da290826130b8565b601955601554614db290826130b8565b60155560405181815230906000907f715128ea18bcb5a472f8187c4fbfdc1ed6d04ecdcff67e3f546fdd075e86266590602001611281565b6001600160a01b038116600090815260126020526040812060010154614e785760405162461bcd60e51b815260206004820152602360248201527f5072697661746553616c653a2054686973207573657220646f65736e7420657860448201527f69737400000000000000000000000000000000000000000000000000000000006064820152608401610ee1565b6001600f6000828254614e8b919061595a565b90915550506001600160a01b0382166000908152601260205260408120600101546010805491929091614ebf908490615987565b9091555050506001600160a01b031660009081526012602052604081206001810180548383559083905560028201805460ff1916905560039091019190915590565b6001600160a01b038082166000908152600e60209081526040808320815160e081018352815490951685526001810154928501929092526002820154908401526003810154606084015260048101546080840152600581015460a08401526006015460c083015290819081614f7582615142565b6001600160a01b0386166000908152600e6020526040812080546001600160a01b0319908116825560018201839055600282018390556003820183905560048201839055600582018390556006820183905560078201805490911690556008015560c0830151909150421015615045576001600b6000828254614ff8919061595a565b90915550506001600160a01b0385166000908152600c60209081526040808320600a5484526001018252909120805460ff1916905582015161503a90826154a9565b935093505050915091565b6001600b6000828254615058919061595a565b90915550506001600160a01b039094166000908152600c60209081526040808320600a5484526001018252909120805460ff19169055015193915050565b60c881111561510d5760405162461bcd60e51b815260206004820152602c60248201527f41697264726f702050657263656e746167652063616e6e6f742065786365656460448201527f2032302070657263656e742e00000000000000000000000000000000000000006064820152608401610ee1565b60078190556040518181527fcc672f1026b958c0cfbfdd89ebe8ddcbc127f16ec24da6c2c7a4de26a8b1857e90602001614940565b600081602001516000141561515957506000919050565b6a52b7d2dcc80cd2e400000061517283604001516154ee565b8360a0015184602001516151869190615a5a565b6151909190615a5a565b61519a9190615a38565b92915050565b6000806151ba6151b285600654615210565b6103e86130a5565b6151c96151b285600654615210565b915091505b9250929050565b600061519a62093a806151e8844261595a565b906130a5565b60006301dfe2006103e8600754846152069190615a5a565b6151909190615a38565b60006130b18284615a5a565b60008060006201518060115442615233919061595a565b61523d9190615a38565b90506101e0811015615301576001600160a01b03841660009081526012602052604090206002015460ff166152db576001600160a01b0384166000908152601260205260409020546152b2906152ab906152a3906a3cb5feec27901169e0000090615210565b6010546130a5565b83906130b8565b6001600160a01b0385166000908152601260205260409020600201805460ff1916600117905591505b6001600160a01b03841660009081526012602052604090206101c260039091015561542f565b6101e08110158015615314575061034881105b1561542f576001600160a01b03841660009081526012602052604090206002015460ff1661539c576001600160a01b038416600090815260126020526040902054615373906152ab906152a3906a3cb5feec27901169e0000090615210565b6001600160a01b0385166000908152601260205260409020600201805460ff1916600117905591505b6001600160a01b0384166000908152601260205260408120600301546153c2908361595a565b6001600160a01b038616600090815260126020526040902054909150615403906153fc906152a3906a03290914be1afb7508000090615210565b84906130b8565b61540d9082615a5a565b6001600160a01b03861660009081526012602052604090206003018390559250505b816154a25760405162461bcd60e51b815260206004820152602960248201527f5072697661746553616c653a2054686572652773206e6f7468696e6720746f2060448201527f636c61696d2079657400000000000000000000000000000000000000000000006064820152608401610ee1565b5092915050565b600080836154bc575060009050806151ce565b6000806154c986866151a0565b915091506154d786836132d6565b6154e186836132d6565b9350935050509250929050565b600080821161553f5760405162461bcd60e51b815260206004820152601160248201527f4572726f722074696d657374616d7020300000000000000000000000000000006044820152606401610ee1565b61519a61554c834261595a565b6155609069d3c21bcecceda1000000615a5a565b6301e133806040518060400160405280601d81526020017f4572726f722063616e6e6f74206469766964652074696d657374616d70000000815250600081836155bc5760405162461bcd60e51b8152600401610ee1919061565b565b508284816155cc576155cc615a22565b04949350505050565b604051806060016040528060008152602001600081526020016156376040518060e0016040528060006001600160a01b031681526020016000815260200160008152602001600081526020016000815260200160008152602001600081525090565b905290565b6040518061066001604052806033906020820280368337509192915050565b600060208083528351808285015260005b818110156156885785810183015185820160400152820161566c565b8181111561569a576000604083870101525b50601f01601f1916929092016040019392505050565b600080602083850312156156c357600080fd5b823567ffffffffffffffff808211156156db57600080fd5b818501915085601f8301126156ef57600080fd5b8135818111156156fe57600080fd5b8660208260061b850101111561571357600080fd5b60209290920196919550909350505050565b6001600160a01b03811681146116d757600080fd5b6000806040838503121561574d57600080fd5b823561575881615725565b946020939093013593505050565b60006020828403121561577857600080fd5b5035919050565b60008060006060848603121561579457600080fd5b833561579f81615725565b925060208401356157af81615725565b929592945050506040919091013590565b6000602082840312156157d257600080fd5b813560ff811681146130b157600080fd5b6000602082840312156157f557600080fd5b81356130b181615725565b6000806040838503121561581357600080fd5b50508035926020909101359150565b6000806020838503121561583557600080fd5b823567ffffffffffffffff8082111561584d57600080fd5b818501915085601f83011261586157600080fd5b81358181111561587057600080fd5b8660208260051b850101111561571357600080fd5b6000806040838503121561589857600080fd5b82356158a381615725565b915060208301356158b381615725565b809150509250929050565b6000806000606084860312156158d357600080fd5b83356158de81615725565b925060208401356158ee81615725565b915060408401356158fe81615725565b809150509250925092565b600181811c9082168061591d57607f821691505b6020821081141561593e57634e487b7160e01b600052602260045260246000fd5b50919050565b634e487b7160e01b600052601160045260246000fd5b60008282101561596c5761596c615944565b500390565b634e487b7160e01b600052603260045260246000fd5b6000821982111561599a5761599a615944565b500190565b60006000198214156159b3576159b3615944565b5060010190565b6000602082840312156159cc57600080fd5b81516130b181615725565b6106608101818360005b6033811015615a005781518352602092830192909101906001016159e1565b50505092915050565b600060208284031215615a1b57600080fd5b5051919050565b634e487b7160e01b600052601260045260246000fd5b600082615a5557634e487b7160e01b600052601260045260246000fd5b500490565b6000816000190483118215151615615a7457615a74615944565b50029056fe4f776e61626c653a2063616c6c6572206973206e6f7420746865206f776e65725072697661746553616c653a2043616e6e6f742073756273747261637420746f74616c20616d6f756e74207769746820636c61696d61626c65a2646970667358221220bcb3116fe3dffeb56c8ebc527c30f1e0d9c91fbdc9a51deb8121d1bcf52d899b64736f6c634300080b003360a060405234801561001057600080fd5b506040516105b23803806105b283398101604081905261002f9161005c565b6000919091556001600160a01b031660805242600255600180546001600160a01b03191633179055610099565b6000806040838503121561006f57600080fd5b825160208401519092506001600160a01b038116811461008e57600080fd5b809150509250929050565b6080516104ff6100b36000396000607101526104ff6000f3fe608060405234801561001057600080fd5b50600436106100415760003560e01c80630a95606e1461004657806338af3eed1461006c578063c8cca41e146100b8575b600080fd5b610059610054366004610319565b6100c2565b6040519081526020015b60405180910390f35b6100937f000000000000000000000000000000000000000000000000000000000000000081565b60405173ffffffffffffffffffffffffffffffffffffffff9091168152602001610063565b6100c06101ad565b005b60006100cc6101bb565b60008054116101225760405162461bcd60e51b815260206004820152601860248201527f4c6f636b61626c653a206e6f20746f6b656e73206c656674000000000000000060448201526064015b60405180910390fd5b600061012d83610224565b90506000811161017f5760405162461bcd60e51b815260206004820152601e60248201527f4c6f636b61626c653a206e6f20746f6b656e7320746f2072656c6561736500006044820152606401610119565b6101a460005482604051806060016040528060368152602001610494603691396102ed565b60005592915050565b6101b56101bb565b42600255565b60015473ffffffffffffffffffffffffffffffffffffffff1633146102225760405162461bcd60e51b815260206004820152600960248201527f4e6f74206f776e657200000000000000000000000000000000000000000000006044820152606401610119565b565b60008062278d006002544261023991906103bc565b61024391906103d3565b6003549091506000905b6037811161028a57848160338110610267576102676103f5565b6020020151610276908361040b565b91508061028281610423565b91505061024d565b5061029682600161040b565b600355806102e65760405162461bcd60e51b815260206004820152601460248201527f4e6f7468696e6720746f20636c61696d207965740000000000000000000000006044820152606401610119565b9392505050565b600081848411156103115760405162461bcd60e51b8152600401610119919061043e565b505050900390565b600061066080838503121561032d57600080fd5b83601f84011261033c57600080fd5b60405181810181811067ffffffffffffffff8211171561036c57634e487b7160e01b600052604160045260246000fd5b60405290830190808583111561038157600080fd5b845b8381101561039b578035825260209182019101610383565b509095945050505050565b634e487b7160e01b600052601160045260246000fd5b6000828210156103ce576103ce6103a6565b500390565b6000826103f057634e487b7160e01b600052601260045260246000fd5b500490565b634e487b7160e01b600052603260045260246000fd5b6000821982111561041e5761041e6103a6565b500190565b6000600019821415610437576104376103a6565b5060010190565b600060208083528351808285015260005b8181101561046b5785810183015185820160400152820161044f565b8181111561047d576000604083870101525b50601f01601f191692909201604001939250505056fe4c6f636b61626c653a2043616e6e6f742073756273747261637420746f74616c20616d6f756e74207769746820636c61696d61626c65a2646970667358221220ee09c5456bdd69a3d556a9be26d7747af49db147d22c25fa8ae78f6218a1463264736f6c634300080b0033",
			"opcodes": "PUSH1 0x80 PUSH1 0x40 MSTORE PUSH12 0x4BE37EA7317415C45800000 PUSH1 0x10 SSTORE PUSH1 0x1E DUP1 SLOAD PUSH1 0x1 PUSH1 0x1 PUSH1 0xA0 SHL SUB NOT SWAP1 DUP2 AND PUSH20 0x7A20DC6722563783E44BA8EDCA08C774621125E OR SWAP1 SWAP2 SSTORE PUSH1 0x1F DUP1 SLOAD DUP3 AND PUSH20 0x2F838CF0DF38B2E91E747A01DDAE5EBAD5558B7A OR SWAP1 SSTORE PUSH1 0x20 DUP1 SLOAD DUP3 AND PUSH20 0x45094071C4DAAF6A9A73B0A0F095A2B138BD8A3A OR SWAP1 SSTORE PUSH1 0x21 DUP1 SLOAD SWAP1 SWAP2 AND PUSH20 0xAEB26FB84D0E2B3B353CD50F0A29FD40C916D2AB OR SWAP1 SSTORE CALLVALUE DUP1 ISZERO PUSH3 0xA5 JUMPI PUSH1 0x0 DUP1 REVERT JUMPDEST POP PUSH1 0x40 DUP1 MLOAD DUP1 DUP3 ADD DUP3 MSTORE PUSH1 0x8 DUP2 MSTORE PUSH8 0x54414C415845554D PUSH1 0xC0 SHL PUSH1 0x20 DUP1 DUP4 ADD SWAP2 DUP3 MSTORE DUP4 MLOAD DUP1 DUP6 ADD SWAP1 SWAP5 MSTORE PUSH1 0x5 DUP5 MSTORE PUSH5 0xA8829882B PUSH1 0xDB SHL SWAP1 DUP5 ADD MSTORE DUP2 MLOAD SWAP2 SWAP3 SWAP2 PUSH3 0xF3 SWAP2 PUSH1 0x3 SWAP2 PUSH3 0x8AA JUMP JUMPDEST POP DUP1 MLOAD PUSH3 0x109 SWAP1 PUSH1 0x4 SWAP1 PUSH1 0x20 DUP5 ADD SWAP1 PUSH3 0x8AA JUMP JUMPDEST POP POP POP PUSH3 0x126 PUSH3 0x120 PUSH3 0x81C PUSH1 0x20 SHL PUSH1 0x20 SHR JUMP JUMPDEST PUSH3 0x820 JUMP JUMPDEST PUSH1 0xF PUSH1 0x6 SSTORE PUSH1 0x50 PUSH1 0x7 SSTORE PUSH12 0x43DACAF91C1A84FF08000000 PUSH1 0x15 SSTORE PUSH1 0x40 DUP1 MLOAD DUP1 DUP3 ADD SWAP1 SWAP2 MSTORE PUSH1 0x8 DUP1 DUP3 MSTORE PUSH8 0x54414C415845554D PUSH1 0xC0 SHL PUSH1 0x20 SWAP1 SWAP3 ADD SWAP2 DUP3 MSTORE PUSH3 0x171 SWAP2 PUSH1 0x16 SWAP2 PUSH3 0x8AA JUMP JUMPDEST POP PUSH1 0x40 DUP1 MLOAD DUP1 DUP3 ADD SWAP1 SWAP2 MSTORE PUSH1 0x5 DUP1 DUP3 MSTORE PUSH5 0xA8829882B PUSH1 0xDB SHL PUSH1 0x20 SWAP1 SWAP3 ADD SWAP2 DUP3 MSTORE PUSH3 0x1A0 SWAP2 PUSH1 0x17 SWAP2 PUSH3 0x8AA JUMP JUMPDEST POP PUSH1 0x1C DUP1 SLOAD PUSH2 0xFFFF NOT AND PUSH1 0x1 OR SWAP1 SSTORE PUSH1 0x6 PUSH32 0x6E7B3E7A52A447110501B683591C02EDBDEEE417F58DFB6B7BD7C4D5FAC99CF9 SSTORE PUSH1 0x7 PUSH32 0xFA02B14EF9DEB43F821D5C4D4DF343647569F13A66AA4E6481EEDDD408415A43 SSTORE PUSH1 0x8 PUSH32 0x67B1EDB0E70C3B1FD9DECE63D8D8420CA330B1F92F03281AF2C99C6631D04509 SSTORE PUSH1 0x13 PUSH1 0x20 MSTORE PUSH12 0x1484ED81CEBEB37B6800000 PUSH32 0xC04B5662930A6D9D33AE3E671E7857B39736BCEB6D3E1A26756E2A89604454D8 SSTORE PUSH1 0x1D SLOAD PUSH1 0x1 PUSH1 0x1 PUSH1 0xA0 SHL SUB SWAP1 DUP2 AND PUSH1 0x0 SWAP1 DUP2 MSTORE PUSH1 0x40 DUP1 DUP3 KECCAK256 PUSH12 0x3648A260E3486A65A000000 SWAP1 SSTORE PUSH12 0x4BE37EA7317415C45800000 PUSH1 0x1A SSTORE PUSH12 0x8ADB972C10243F447800000 PUSH1 0x19 SSTORE PUSH12 0xD92289838D21A9968000000 PUSH1 0x1B DUP2 SWAP1 SSTORE ADDRESS DUP4 MSTORE SWAP2 DUP2 SWAP1 KECCAK256 SWAP2 SWAP1 SWAP2 SSTORE PUSH1 0x1E SLOAD SWAP1 MLOAD PUSH12 0x2427288F60130B77E800000 SWAP3 SWAP2 SWAP1 SWAP2 AND SWAP1 PUSH3 0x2D6 SWAP1 PUSH3 0x939 JUMP JUMPDEST SWAP2 DUP3 MSTORE PUSH1 0x1 PUSH1 0x1 PUSH1 0xA0 SHL SUB AND PUSH1 0x20 DUP3 ADD MSTORE PUSH1 0x40 ADD PUSH1 0x40 MLOAD DUP1 SWAP2 SUB SWAP1 PUSH1 0x0 CREATE DUP1 ISZERO DUP1 ISZERO PUSH3 0x307 JUMPI RETURNDATASIZE PUSH1 0x0 DUP1 RETURNDATACOPY RETURNDATASIZE PUSH1 0x0 REVERT JUMPDEST POP PUSH1 0x22 PUSH1 0x0 PUSH2 0x100 EXP DUP2 SLOAD DUP2 PUSH1 0x1 PUSH1 0x1 PUSH1 0xA0 SHL SUB MUL NOT AND SWAP1 DUP4 PUSH1 0x1 PUSH1 0x1 PUSH1 0xA0 SHL SUB AND MUL OR SWAP1 SSTORE POP PUSH12 0x24306C4097859C43C000000 PUSH20 0xF09F65DD4D229E991901669AD7C7549F060E30B9 PUSH1 0x40 MLOAD PUSH3 0x35E SWAP1 PUSH3 0x939 JUMP JUMPDEST SWAP2 DUP3 MSTORE PUSH1 0x1 PUSH1 0x1 PUSH1 0xA0 SHL SUB AND PUSH1 0x20 DUP3 ADD MSTORE PUSH1 0x40 ADD PUSH1 0x40 MLOAD DUP1 SWAP2 SUB SWAP1 PUSH1 0x0 CREATE DUP1 ISZERO DUP1 ISZERO PUSH3 0x38F JUMPI RETURNDATASIZE PUSH1 0x0 DUP1 RETURNDATACOPY RETURNDATASIZE PUSH1 0x0 REVERT JUMPDEST POP PUSH1 0x23 PUSH1 0x0 PUSH2 0x100 EXP DUP2 SLOAD DUP2 PUSH1 0x1 PUSH1 0x1 PUSH1 0xA0 SHL SUB MUL NOT AND SWAP1 DUP4 PUSH1 0x1 PUSH1 0x1 PUSH1 0xA0 SHL SUB AND MUL OR SWAP1 SSTORE POP PUSH12 0x24306C4097859C43C000000 PUSH20 0x1A2118E056D6AF192E233C2C9CFB34E067DED1F8 PUSH1 0x40 MLOAD PUSH3 0x3E6 SWAP1 PUSH3 0x939 JUMP JUMPDEST SWAP2 DUP3 MSTORE PUSH1 0x1 PUSH1 0x1 PUSH1 0xA0 SHL SUB AND PUSH1 0x20 DUP3 ADD MSTORE PUSH1 0x40 ADD PUSH1 0x40 MLOAD DUP1 SWAP2 SUB SWAP1 PUSH1 0x0 CREATE DUP1 ISZERO DUP1 ISZERO PUSH3 0x417 JUMPI RETURNDATASIZE PUSH1 0x0 DUP1 RETURNDATACOPY RETURNDATASIZE PUSH1 0x0 REVERT JUMPDEST POP PUSH1 0x24 PUSH1 0x0 PUSH2 0x100 EXP DUP2 SLOAD DUP2 PUSH1 0x1 PUSH1 0x1 PUSH1 0xA0 SHL SUB MUL NOT AND SWAP1 DUP4 PUSH1 0x1 PUSH1 0x1 PUSH1 0xA0 SHL SUB AND MUL OR SWAP1 SSTORE POP PUSH12 0x24306C4097859C43C000000 PUSH20 0x126974FA373267D86FAB6D6871AFE62CCB68E810 PUSH1 0x40 MLOAD PUSH3 0x46E SWAP1 PUSH3 0x939 JUMP JUMPDEST SWAP2 DUP3 MSTORE PUSH1 0x1 PUSH1 0x1 PUSH1 0xA0 SHL SUB AND PUSH1 0x20 DUP3 ADD MSTORE PUSH1 0x40 ADD PUSH1 0x40 MLOAD DUP1 SWAP2 SUB SWAP1 PUSH1 0x0 CREATE DUP1 ISZERO DUP1 ISZERO PUSH3 0x49F JUMPI RETURNDATASIZE PUSH1 0x0 DUP1 RETURNDATACOPY RETURNDATASIZE PUSH1 0x0 REVERT JUMPDEST POP PUSH1 0x25 DUP1 SLOAD PUSH1 0x1 PUSH1 0x1 PUSH1 0xA0 SHL SUB NOT AND PUSH1 0x1 PUSH1 0x1 PUSH1 0xA0 SHL SUB SWAP3 DUP4 AND OR SWAP1 SSTORE PUSH1 0x1F SLOAD PUSH1 0x40 MLOAD PUSH12 0x24306C4097859C43C000000 SWAP3 SWAP2 SWAP1 SWAP2 AND SWAP1 PUSH3 0x4E0 SWAP1 PUSH3 0x939 JUMP JUMPDEST SWAP2 DUP3 MSTORE PUSH1 0x1 PUSH1 0x1 PUSH1 0xA0 SHL SUB AND PUSH1 0x20 DUP3 ADD MSTORE PUSH1 0x40 ADD PUSH1 0x40 MLOAD DUP1 SWAP2 SUB SWAP1 PUSH1 0x0 CREATE DUP1 ISZERO DUP1 ISZERO PUSH3 0x511 JUMPI RETURNDATASIZE PUSH1 0x0 DUP1 RETURNDATACOPY RETURNDATASIZE PUSH1 0x0 REVERT JUMPDEST POP PUSH1 0x26 DUP1 SLOAD PUSH1 0x1 PUSH1 0x1 PUSH1 0xA0 SHL SUB NOT AND PUSH1 0x1 PUSH1 0x1 PUSH1 0xA0 SHL SUB SWAP3 DUP4 AND OR SWAP1 SSTORE PUSH1 0x20 SLOAD PUSH1 0x40 MLOAD PUSH12 0x24306C4097859C43C000000 SWAP3 SWAP2 SWAP1 SWAP2 AND SWAP1 PUSH3 0x552 SWAP1 PUSH3 0x939 JUMP JUMPDEST SWAP2 DUP3 MSTORE PUSH1 0x1 PUSH1 0x1 PUSH1 0xA0 SHL SUB AND PUSH1 0x20 DUP3 ADD MSTORE PUSH1 0x40 ADD PUSH1 0x40 MLOAD DUP1 SWAP2 SUB SWAP1 PUSH1 0x0 CREATE DUP1 ISZERO DUP1 ISZERO PUSH3 0x583 JUMPI RETURNDATASIZE PUSH1 0x0 DUP1 RETURNDATACOPY RETURNDATASIZE PUSH1 0x0 REVERT JUMPDEST POP PUSH1 0x27 DUP1 SLOAD PUSH1 0x1 PUSH1 0x1 PUSH1 0xA0 SHL SUB NOT AND PUSH1 0x1 PUSH1 0x1 PUSH1 0xA0 SHL SUB SWAP3 DUP4 AND OR SWAP1 SSTORE PUSH1 0x21 SLOAD PUSH1 0x40 MLOAD PUSH12 0x24306C4097859C43C000000 SWAP3 SWAP2 SWAP1 SWAP2 AND SWAP1 PUSH3 0x5C4 SWAP1 PUSH3 0x939 JUMP JUMPDEST SWAP2 DUP3 MSTORE PUSH1 0x1 PUSH1 0x1 PUSH1 0xA0 SHL SUB AND PUSH1 0x20 DUP3 ADD MSTORE PUSH1 0x40 ADD PUSH1 0x40 MLOAD DUP1 SWAP2 SUB SWAP1 PUSH1 0x0 CREATE DUP1 ISZERO DUP1 ISZERO PUSH3 0x5F5 JUMPI RETURNDATASIZE PUSH1 0x0 DUP1 RETURNDATACOPY RETURNDATASIZE PUSH1 0x0 REVERT JUMPDEST POP PUSH1 0x28 PUSH1 0x0 PUSH2 0x100 EXP DUP2 SLOAD DUP2 PUSH1 0x1 PUSH1 0x1 PUSH1 0xA0 SHL SUB MUL NOT AND SWAP1 DUP4 PUSH1 0x1 PUSH1 0x1 PUSH1 0xA0 SHL SUB AND MUL OR SWAP1 SSTORE POP PUSH12 0x24306C4097859C43C000000 PUSH20 0xE61E7A7D16DB384433E532FB85724E7F3BDAAE2F PUSH1 0x40 MLOAD PUSH3 0x64C SWAP1 PUSH3 0x939 JUMP JUMPDEST SWAP2 DUP3 MSTORE PUSH1 0x1 PUSH1 0x1 PUSH1 0xA0 SHL SUB AND PUSH1 0x20 DUP3 ADD MSTORE PUSH1 0x40 ADD PUSH1 0x40 MLOAD DUP1 SWAP2 SUB SWAP1 PUSH1 0x0 CREATE DUP1 ISZERO DUP1 ISZERO PUSH3 0x67D JUMPI RETURNDATASIZE PUSH1 0x0 DUP1 RETURNDATACOPY RETURNDATASIZE PUSH1 0x0 REVERT JUMPDEST POP PUSH1 0x29 PUSH1 0x0 PUSH2 0x100 EXP DUP2 SLOAD DUP2 PUSH1 0x1 PUSH1 0x1 PUSH1 0xA0 SHL SUB MUL NOT AND SWAP1 DUP4 PUSH1 0x1 PUSH1 0x1 PUSH1 0xA0 SHL SUB AND MUL OR SWAP1 SSTORE POP PUSH12 0x24306C4097859C43C000000 PUSH20 0x406605EB24A97A2D61B516D8D850F2AEFA6A731A PUSH1 0x40 MLOAD PUSH3 0x6D4 SWAP1 PUSH3 0x939 JUMP JUMPDEST SWAP2 DUP3 MSTORE PUSH1 0x1 PUSH1 0x1 PUSH1 0xA0 SHL SUB AND PUSH1 0x20 DUP3 ADD MSTORE PUSH1 0x40 ADD PUSH1 0x40 MLOAD DUP1 SWAP2 SUB SWAP1 PUSH1 0x0 CREATE DUP1 ISZERO DUP1 ISZERO PUSH3 0x705 JUMPI RETURNDATASIZE PUSH1 0x0 DUP1 RETURNDATACOPY RETURNDATASIZE PUSH1 0x0 REVERT JUMPDEST POP PUSH1 0x2A PUSH1 0x0 PUSH2 0x100 EXP DUP2 SLOAD DUP2 PUSH1 0x1 PUSH1 0x1 PUSH1 0xA0 SHL SUB MUL NOT AND SWAP1 DUP4 PUSH1 0x1 PUSH1 0x1 PUSH1 0xA0 SHL SUB AND MUL OR SWAP1 SSTORE POP PUSH12 0x24306C4097859C43C000000 PUSH20 0x97620DEADC98BC8173303686037CE7B986CF53C3 PUSH1 0x40 MLOAD PUSH3 0x75C SWAP1 PUSH3 0x939 JUMP JUMPDEST SWAP2 DUP3 MSTORE PUSH1 0x1 PUSH1 0x1 PUSH1 0xA0 SHL SUB AND PUSH1 0x20 DUP3 ADD MSTORE PUSH1 0x40 ADD PUSH1 0x40 MLOAD DUP1 SWAP2 SUB SWAP1 PUSH1 0x0 CREATE DUP1 ISZERO DUP1 ISZERO PUSH3 0x78D JUMPI RETURNDATASIZE PUSH1 0x0 DUP1 RETURNDATACOPY RETURNDATASIZE PUSH1 0x0 REVERT JUMPDEST POP PUSH1 0x2B PUSH1 0x0 PUSH2 0x100 EXP DUP2 SLOAD DUP2 PUSH1 0x1 PUSH1 0x1 PUSH1 0xA0 SHL SUB MUL NOT AND SWAP1 DUP4 PUSH1 0x1 PUSH1 0x1 PUSH1 0xA0 SHL SUB AND MUL OR SWAP1 SSTORE POP PUSH3 0x813 PUSH12 0x2D9AE8EE2246267158800000 PUSH1 0x40 MLOAD DUP1 PUSH1 0x40 ADD PUSH1 0x40 MSTORE DUP1 PUSH1 0x19 DUP2 MSTORE PUSH1 0x20 ADD PUSH32 0x496E73756666696369656E7420546F74616C20537570706C7900000000000000 DUP2 MSTORE POP PUSH1 0x15 SLOAD PUSH3 0x872 PUSH1 0x20 SHL PUSH3 0x3079 OR SWAP1 SWAP3 SWAP2 SWAP1 PUSH1 0x20 SHR JUMP JUMPDEST PUSH1 0x15 SSTORE PUSH3 0x9F3 JUMP JUMPDEST CALLER SWAP1 JUMP JUMPDEST PUSH1 0x5 DUP1 SLOAD PUSH1 0x1 PUSH1 0x1 PUSH1 0xA0 SHL SUB DUP4 DUP2 AND PUSH1 0x1 PUSH1 0x1 PUSH1 0xA0 SHL SUB NOT DUP4 AND DUP2 OR SWAP1 SWAP4 SSTORE PUSH1 0x40 MLOAD SWAP2 AND SWAP2 SWAP1 DUP3 SWAP1 PUSH32 0x8BE0079C531659141344CD1FD0A4F28419497F9722A3DAAFE3B4186F6B6457E0 SWAP1 PUSH1 0x0 SWAP1 LOG3 POP POP JUMP JUMPDEST PUSH1 0x0 DUP2 DUP5 DUP5 GT ISZERO PUSH3 0x8A2 JUMPI PUSH1 0x40 MLOAD PUSH3 0x461BCD PUSH1 0xE5 SHL DUP2 MSTORE PUSH1 0x4 ADD PUSH3 0x899 SWAP2 SWAP1 PUSH3 0x95E JUMP JUMPDEST PUSH1 0x40 MLOAD DUP1 SWAP2 SUB SWAP1 REVERT JUMPDEST POP POP POP SWAP1 SUB SWAP1 JUMP JUMPDEST DUP3 DUP1 SLOAD PUSH3 0x8B8 SWAP1 PUSH3 0x9B6 JUMP JUMPDEST SWAP1 PUSH1 0x0 MSTORE PUSH1 0x20 PUSH1 0x0 KECCAK256 SWAP1 PUSH1 0x1F ADD PUSH1 0x20 SWAP1 DIV DUP2 ADD SWAP3 DUP3 PUSH3 0x8DC JUMPI PUSH1 0x0 DUP6 SSTORE PUSH3 0x927 JUMP JUMPDEST DUP3 PUSH1 0x1F LT PUSH3 0x8F7 JUMPI DUP1 MLOAD PUSH1 0xFF NOT AND DUP4 DUP1 ADD OR DUP6 SSTORE PUSH3 0x927 JUMP JUMPDEST DUP3 DUP1 ADD PUSH1 0x1 ADD DUP6 SSTORE DUP3 ISZERO PUSH3 0x927 JUMPI SWAP2 DUP3 ADD JUMPDEST DUP3 DUP2 GT ISZERO PUSH3 0x927 JUMPI DUP3 MLOAD DUP3 SSTORE SWAP2 PUSH1 0x20 ADD SWAP2 SWAP1 PUSH1 0x1 ADD SWAP1 PUSH3 0x90A JUMP JUMPDEST POP PUSH3 0x935 SWAP3 SWAP2 POP PUSH3 0x947 JUMP JUMPDEST POP SWAP1 JUMP JUMPDEST PUSH2 0x5B2 DUP1 PUSH3 0x650B DUP4 CODECOPY ADD SWAP1 JUMP JUMPDEST JUMPDEST DUP1 DUP3 GT ISZERO PUSH3 0x935 JUMPI PUSH1 0x0 DUP2 SSTORE PUSH1 0x1 ADD PUSH3 0x948 JUMP JUMPDEST PUSH1 0x0 PUSH1 0x20 DUP1 DUP4 MSTORE DUP4 MLOAD DUP1 DUP3 DUP6 ADD MSTORE PUSH1 0x0 JUMPDEST DUP2 DUP2 LT ISZERO PUSH3 0x98D JUMPI DUP6 DUP2 ADD DUP4 ADD MLOAD DUP6 DUP3 ADD PUSH1 0x40 ADD MSTORE DUP3 ADD PUSH3 0x96F JUMP JUMPDEST DUP2 DUP2 GT ISZERO PUSH3 0x9A0 JUMPI PUSH1 0x0 PUSH1 0x40 DUP4 DUP8 ADD ADD MSTORE JUMPDEST POP PUSH1 0x1F ADD PUSH1 0x1F NOT AND SWAP3 SWAP1 SWAP3 ADD PUSH1 0x40 ADD SWAP4 SWAP3 POP POP POP JUMP JUMPDEST PUSH1 0x1 DUP2 DUP2 SHR SWAP1 DUP3 AND DUP1 PUSH3 0x9CB JUMPI PUSH1 0x7F DUP3 AND SWAP2 POP JUMPDEST PUSH1 0x20 DUP3 LT DUP2 EQ ISZERO PUSH3 0x9ED JUMPI PUSH4 0x4E487B71 PUSH1 0xE0 SHL PUSH1 0x0 MSTORE PUSH1 0x22 PUSH1 0x4 MSTORE PUSH1 0x24 PUSH1 0x0 REVERT JUMPDEST POP SWAP2 SWAP1 POP JUMP JUMPDEST PUSH2 0x5B08 DUP1 PUSH3 0xA03 PUSH1 0x0 CODECOPY PUSH1 0x0 RETURN INVALID PUSH1 0x80 PUSH1 0x40 MSTORE PUSH1 0x4 CALLDATASIZE LT PUSH2 0x418 JUMPI PUSH1 0x0 CALLDATALOAD PUSH1 0xE0 SHR DUP1 PUSH4 0x8378A875 GT PUSH2 0x228 JUMPI DUP1 PUSH4 0xA3EC138D GT PUSH2 0x128 JUMPI DUP1 PUSH4 0xCB79C2E1 GT PUSH2 0xBB JUMPI DUP1 PUSH4 0xDD62ED3E GT PUSH2 0x8A JUMPI DUP1 PUSH4 0xE88C326F GT PUSH2 0x6F JUMPI DUP1 PUSH4 0xE88C326F EQ PUSH2 0xC15 JUMPI DUP1 PUSH4 0xF0413BD4 EQ PUSH2 0xC35 JUMPI DUP1 PUSH4 0xF2FDE38B EQ PUSH2 0xC55 JUMPI PUSH2 0x428 JUMP JUMPDEST DUP1 PUSH4 0xDD62ED3E EQ PUSH2 0xB37 JUMPI DUP1 PUSH4 0xE73E14BF EQ PUSH2 0xB7D JUMPI PUSH2 0x428 JUMP JUMPDEST DUP1 PUSH4 0xCB79C2E1 EQ PUSH2 0xACC JUMPI DUP1 PUSH4 0xCBB3E152 EQ PUSH2 0xAE2 JUMPI DUP1 PUSH4 0xD5DBDF1B EQ PUSH2 0xAF7 JUMPI DUP1 PUSH4 0xD94D4AD6 EQ PUSH2 0xB17 JUMPI PUSH2 0x428 JUMP JUMPDEST DUP1 PUSH4 0xB87DA76D GT PUSH2 0xF7 JUMPI DUP1 PUSH4 0xB87DA76D EQ PUSH2 0xA75 JUMPI DUP1 PUSH4 0xBA1F879F EQ PUSH2 0xA8B JUMPI DUP1 PUSH4 0xBAD4346C EQ PUSH2 0xAA1 JUMPI DUP1 PUSH4 0xBED9D861 EQ PUSH2 0xAB7 JUMPI PUSH2 0x428 JUMP JUMPDEST DUP1 PUSH4 0xA3EC138D EQ PUSH2 0x9E5 JUMPI DUP1 PUSH4 0xA457C2D7 EQ PUSH2 0xA15 JUMPI DUP1 PUSH4 0xA7771EE3 EQ PUSH2 0xA35 JUMPI DUP1 PUSH4 0xA9059CBB EQ PUSH2 0xA55 JUMPI PUSH2 0x428 JUMP JUMPDEST DUP1 PUSH4 0x90A4C709 GT PUSH2 0x1BB JUMPI DUP1 PUSH4 0xA071DCF4 GT PUSH2 0x18A JUMPI DUP1 PUSH4 0xA169C515 GT PUSH2 0x16F JUMPI DUP1 PUSH4 0xA169C515 EQ PUSH2 0x985 JUMPI DUP1 PUSH4 0xA1F780CF EQ PUSH2 0x9A5 JUMPI DUP1 PUSH4 0xA25A17A7 EQ PUSH2 0x9C5 JUMPI PUSH2 0x428 JUMP JUMPDEST DUP1 PUSH4 0xA071DCF4 EQ PUSH2 0x93E JUMPI DUP1 PUSH4 0xA143A5F2 EQ PUSH2 0x958 JUMPI PUSH2 0x428 JUMP JUMPDEST DUP1 PUSH4 0x90A4C709 EQ PUSH2 0x8EA JUMPI DUP1 PUSH4 0x934851EC EQ PUSH2 0x8FF JUMPI DUP1 PUSH4 0x95D89B41 EQ PUSH2 0x914 JUMPI DUP1 PUSH4 0x96BC0687 EQ PUSH2 0x929 JUMPI PUSH2 0x428 JUMP JUMPDEST DUP1 PUSH4 0x8B7C64DA GT PUSH2 0x1F7 JUMPI DUP1 PUSH4 0x8B7C64DA EQ PUSH2 0x862 JUMPI DUP1 PUSH4 0x8C63F97F EQ PUSH2 0x882 JUMPI DUP1 PUSH4 0x8D4A3C85 EQ PUSH2 0x8A2 JUMPI DUP1 PUSH4 0x8DA5CB5B EQ PUSH2 0x8C2 JUMPI PUSH2 0x428 JUMP JUMPDEST DUP1 PUSH4 0x8378A875 EQ PUSH2 0x80C JUMPI DUP1 PUSH4 0x883D9984 EQ PUSH2 0x821 JUMPI DUP1 PUSH4 0x8891CF0D EQ PUSH2 0x836 JUMPI DUP1 PUSH4 0x8B2B423A EQ PUSH2 0x84C JUMPI PUSH2 0x428 JUMP JUMPDEST DUP1 PUSH4 0x3F3EF2DC GT PUSH2 0x333 JUMPI DUP1 PUSH4 0x632A9A52 GT PUSH2 0x2C6 JUMPI DUP1 PUSH4 0x78DC9315 GT PUSH2 0x295 JUMPI DUP1 PUSH4 0x7B0472F0 GT PUSH2 0x27A JUMPI DUP1 PUSH4 0x7B0472F0 EQ PUSH2 0x7C2 JUMPI DUP1 PUSH4 0x7BB4E320 EQ PUSH2 0x7E2 JUMPI DUP1 PUSH4 0x7C2412F9 EQ PUSH2 0x7F7 JUMPI PUSH2 0x428 JUMP JUMPDEST DUP1 PUSH4 0x78DC9315 EQ PUSH2 0x78D JUMPI DUP1 PUSH4 0x79CC6790 EQ PUSH2 0x7A2 JUMPI PUSH2 0x428 JUMP JUMPDEST DUP1 PUSH4 0x632A9A52 EQ PUSH2 0x70D JUMPI DUP1 PUSH4 0x63A599A4 EQ PUSH2 0x722 JUMPI DUP1 PUSH4 0x70A08231 EQ PUSH2 0x742 JUMPI DUP1 PUSH4 0x715018A6 EQ PUSH2 0x778 JUMPI PUSH2 0x428 JUMP JUMPDEST DUP1 PUSH4 0x549DEE0B GT PUSH2 0x302 JUMPI DUP1 PUSH4 0x549DEE0B EQ PUSH2 0x6B7 JUMPI DUP1 PUSH4 0x56029137 EQ PUSH2 0x6CD JUMPI DUP1 PUSH4 0x5B88349D EQ PUSH2 0x6E2 JUMPI DUP1 PUSH4 0x5F5300FF EQ PUSH2 0x6F7 JUMPI PUSH2 0x428 JUMP JUMPDEST DUP1 PUSH4 0x3F3EF2DC EQ PUSH2 0x642 JUMPI DUP1 PUSH4 0x40C10F19 EQ PUSH2 0x657 JUMPI DUP1 PUSH4 0x42966C68 EQ PUSH2 0x677 JUMPI DUP1 PUSH4 0x471A30A2 EQ PUSH2 0x697 JUMPI PUSH2 0x428 JUMP JUMPDEST DUP1 PUSH4 0x18160DDD GT PUSH2 0x3AB JUMPI DUP1 PUSH4 0x313CE567 GT PUSH2 0x37A JUMPI DUP1 PUSH4 0x313CE567 EQ PUSH2 0x5C9 JUMPI DUP1 PUSH4 0x338DBF59 EQ PUSH2 0x5EB JUMPI DUP1 PUSH4 0x376D441C EQ PUSH2 0x601 JUMPI DUP1 PUSH4 0x39509351 EQ PUSH2 0x622 JUMPI PUSH2 0x428 JUMP JUMPDEST DUP1 PUSH4 0x18160DDD EQ PUSH2 0x52B JUMPI DUP1 PUSH4 0x19CA147D EQ PUSH2 0x540 JUMPI DUP1 PUSH4 0x23B872DD EQ PUSH2 0x58A JUMPI DUP1 PUSH4 0x2CF1A5FB EQ PUSH2 0x5AA JUMPI PUSH2 0x428 JUMP JUMPDEST DUP1 PUSH4 0x95EA7B3 GT PUSH2 0x3E7 JUMPI DUP1 PUSH4 0x95EA7B3 EQ PUSH2 0x4B1 JUMPI DUP1 PUSH4 0xE1B09ED EQ PUSH2 0x4E1 JUMPI DUP1 PUSH4 0xEC5AA1A EQ PUSH2 0x501 JUMPI DUP1 PUSH4 0x15441BB9 EQ PUSH2 0x516 JUMPI PUSH2 0x428 JUMP JUMPDEST DUP1 PUSH4 0x42249BB EQ PUSH2 0x431 JUMPI DUP1 PUSH4 0x6FDDE03 EQ PUSH2 0x45A JUMPI DUP1 PUSH4 0x70C8B74 EQ PUSH2 0x47C JUMPI DUP1 PUSH4 0x78F522F EQ PUSH2 0x491 JUMPI PUSH2 0x428 JUMP JUMPDEST CALLDATASIZE PUSH2 0x428 JUMPI PUSH2 0x426 CALLVALUE PUSH2 0xC75 JUMP JUMPDEST STOP JUMPDEST PUSH2 0x426 CALLVALUE PUSH2 0xC75 JUMP JUMPDEST CALLVALUE DUP1 ISZERO PUSH2 0x43D JUMPI PUSH1 0x0 DUP1 REVERT JUMPDEST POP PUSH2 0x447 PUSH1 0x19 SLOAD DUP2 JUMP JUMPDEST PUSH1 0x40 MLOAD SWAP1 DUP2 MSTORE PUSH1 0x20 ADD JUMPDEST PUSH1 0x40 MLOAD DUP1 SWAP2 SUB SWAP1 RETURN JUMPDEST CALLVALUE DUP1 ISZERO PUSH2 0x466 JUMPI PUSH1 0x0 DUP1 REVERT JUMPDEST POP PUSH2 0x46F PUSH2 0xDE7 JUMP JUMPDEST PUSH1 0x40 MLOAD PUSH2 0x451 SWAP2 SWAP1 PUSH2 0x565B JUMP JUMPDEST CALLVALUE DUP1 ISZERO PUSH2 0x488 JUMPI PUSH1 0x0 DUP1 REVERT JUMPDEST POP PUSH2 0x426 PUSH2 0xE79 JUMP JUMPDEST CALLVALUE DUP1 ISZERO PUSH2 0x49D JUMPI PUSH1 0x0 DUP1 REVERT JUMPDEST POP PUSH2 0x426 PUSH2 0x4AC CALLDATASIZE PUSH1 0x4 PUSH2 0x56B0 JUMP JUMPDEST PUSH2 0xF88 JUMP JUMPDEST CALLVALUE DUP1 ISZERO PUSH2 0x4BD JUMPI PUSH1 0x0 DUP1 REVERT JUMPDEST POP PUSH2 0x4D1 PUSH2 0x4CC CALLDATASIZE PUSH1 0x4 PUSH2 0x573A JUMP JUMPDEST PUSH2 0x11D0 JUMP JUMPDEST PUSH1 0x40 MLOAD SWAP1 ISZERO ISZERO DUP2 MSTORE PUSH1 0x20 ADD PUSH2 0x451 JUMP JUMPDEST CALLVALUE DUP1 ISZERO PUSH2 0x4ED JUMPI PUSH1 0x0 DUP1 REVERT JUMPDEST POP PUSH2 0x426 PUSH2 0x4FC CALLDATASIZE PUSH1 0x4 PUSH2 0x5766 JUMP JUMPDEST PUSH2 0x11E8 JUMP JUMPDEST CALLVALUE DUP1 ISZERO PUSH2 0x50D JUMPI PUSH1 0x0 DUP1 REVERT JUMPDEST POP PUSH2 0x426 PUSH2 0x128C JUMP JUMPDEST CALLVALUE DUP1 ISZERO PUSH2 0x522 JUMPI PUSH1 0x0 DUP1 REVERT JUMPDEST POP PUSH2 0x426 PUSH2 0x13CF JUMP JUMPDEST CALLVALUE DUP1 ISZERO PUSH2 0x537 JUMPI PUSH1 0x0 DUP1 REVERT JUMPDEST POP PUSH1 0x15 SLOAD PUSH2 0x447 JUMP JUMPDEST CALLVALUE DUP1 ISZERO PUSH2 0x54C JUMPI PUSH1 0x0 DUP1 REVERT JUMPDEST POP PUSH2 0x555 PUSH2 0x1473 JUMP JUMPDEST PUSH1 0x40 MLOAD PUSH2 0x451 SWAP2 SWAP1 DUP2 MLOAD DUP2 MSTORE PUSH1 0x20 DUP1 DUP4 ADD MLOAD SWAP1 DUP3 ADD MSTORE PUSH1 0x40 DUP1 DUP4 ADD MLOAD ISZERO ISZERO SWAP1 DUP3 ADD MSTORE PUSH1 0x60 SWAP2 DUP3 ADD MLOAD SWAP2 DUP2 ADD SWAP2 SWAP1 SWAP2 MSTORE PUSH1 0x80 ADD SWAP1 JUMP JUMPDEST CALLVALUE DUP1 ISZERO PUSH2 0x596 JUMPI PUSH1 0x0 DUP1 REVERT JUMPDEST POP PUSH2 0x4D1 PUSH2 0x5A5 CALLDATASIZE PUSH1 0x4 PUSH2 0x577F JUMP JUMPDEST PUSH2 0x1570 JUMP JUMPDEST CALLVALUE DUP1 ISZERO PUSH2 0x5B6 JUMPI PUSH1 0x0 DUP1 REVERT JUMPDEST POP PUSH1 0x1C SLOAD PUSH2 0x4D1 SWAP1 PUSH2 0x100 SWAP1 DIV PUSH1 0xFF AND DUP2 JUMP JUMPDEST CALLVALUE DUP1 ISZERO PUSH2 0x5D5 JUMPI PUSH1 0x0 DUP1 REVERT JUMPDEST POP PUSH1 0x12 JUMPDEST PUSH1 0x40 MLOAD PUSH1 0xFF SWAP1 SWAP2 AND DUP2 MSTORE PUSH1 0x20 ADD PUSH2 0x451 JUMP JUMPDEST CALLVALUE DUP1 ISZERO PUSH2 0x5F7 JUMPI PUSH1 0x0 DUP1 REVERT JUMPDEST POP PUSH2 0x447 PUSH1 0x11 SLOAD DUP2 JUMP JUMPDEST CALLVALUE DUP1 ISZERO PUSH2 0x60D JUMPI PUSH1 0x0 DUP1 REVERT JUMPDEST POP PUSH1 0x1C SLOAD PUSH2 0x4D1 SWAP1 PUSH4 0x1000000 SWAP1 DIV PUSH1 0xFF AND DUP2 JUMP JUMPDEST CALLVALUE DUP1 ISZERO PUSH2 0x62E JUMPI PUSH1 0x0 DUP1 REVERT JUMPDEST POP PUSH2 0x4D1 PUSH2 0x63D CALLDATASIZE PUSH1 0x4 PUSH2 0x573A JUMP JUMPDEST PUSH2 0x1594 JUMP JUMPDEST CALLVALUE DUP1 ISZERO PUSH2 0x64E JUMPI PUSH1 0x0 DUP1 REVERT JUMPDEST POP PUSH2 0x426 PUSH2 0x15D3 JUMP JUMPDEST CALLVALUE DUP1 ISZERO PUSH2 0x663 JUMPI PUSH1 0x0 DUP1 REVERT JUMPDEST POP PUSH2 0x426 PUSH2 0x672 CALLDATASIZE PUSH1 0x4 PUSH2 0x573A JUMP JUMPDEST PUSH2 0x1677 JUMP JUMPDEST CALLVALUE DUP1 ISZERO PUSH2 0x683 JUMPI PUSH1 0x0 DUP1 REVERT JUMPDEST POP PUSH2 0x426 PUSH2 0x692 CALLDATASIZE PUSH1 0x4 PUSH2 0x5766 JUMP JUMPDEST PUSH2 0x16CD JUMP JUMPDEST CALLVALUE DUP1 ISZERO PUSH2 0x6A3 JUMPI PUSH1 0x0 DUP1 REVERT JUMPDEST POP PUSH2 0x426 PUSH2 0x6B2 CALLDATASIZE PUSH1 0x4 PUSH2 0x57C0 JUMP JUMPDEST PUSH2 0x16DA JUMP JUMPDEST CALLVALUE DUP1 ISZERO PUSH2 0x6C3 JUMPI PUSH1 0x0 DUP1 REVERT JUMPDEST POP PUSH2 0x447 PUSH1 0xF SLOAD DUP2 JUMP JUMPDEST CALLVALUE DUP1 ISZERO PUSH2 0x6D9 JUMPI PUSH1 0x0 DUP1 REVERT JUMPDEST POP PUSH2 0x426 PUSH2 0x17C0 JUMP JUMPDEST CALLVALUE DUP1 ISZERO PUSH2 0x6EE JUMPI PUSH1 0x0 DUP1 REVERT JUMPDEST POP PUSH2 0x426 PUSH2 0x1864 JUMP JUMPDEST CALLVALUE DUP1 ISZERO PUSH2 0x703 JUMPI PUSH1 0x0 DUP1 REVERT JUMPDEST POP PUSH2 0x447 PUSH1 0xB SLOAD DUP2 JUMP JUMPDEST CALLVALUE DUP1 ISZERO PUSH2 0x719 JUMPI PUSH1 0x0 DUP1 REVERT JUMPDEST POP PUSH2 0x426 PUSH2 0x191D JUMP JUMPDEST CALLVALUE DUP1 ISZERO PUSH2 0x72E JUMPI PUSH1 0x0 DUP1 REVERT JUMPDEST POP PUSH2 0x426 PUSH2 0x73D CALLDATASIZE PUSH1 0x4 PUSH2 0x5766 JUMP JUMPDEST PUSH2 0x1A40 JUMP JUMPDEST CALLVALUE DUP1 ISZERO PUSH2 0x74E JUMPI PUSH1 0x0 DUP1 REVERT JUMPDEST POP PUSH2 0x447 PUSH2 0x75D CALLDATASIZE PUSH1 0x4 PUSH2 0x57E3 JUMP JUMPDEST PUSH1 0x1 PUSH1 0x1 PUSH1 0xA0 SHL SUB AND PUSH1 0x0 SWAP1 DUP2 MSTORE PUSH1 0x13 PUSH1 0x20 MSTORE PUSH1 0x40 SWAP1 KECCAK256 SLOAD SWAP1 JUMP JUMPDEST CALLVALUE DUP1 ISZERO PUSH2 0x784 JUMPI PUSH1 0x0 DUP1 REVERT JUMPDEST POP PUSH2 0x426 PUSH2 0x1A87 JUMP JUMPDEST CALLVALUE DUP1 ISZERO PUSH2 0x799 JUMPI PUSH1 0x0 DUP1 REVERT JUMPDEST POP PUSH2 0x426 PUSH2 0x1ADB JUMP JUMPDEST CALLVALUE DUP1 ISZERO PUSH2 0x7AE JUMPI PUSH1 0x0 DUP1 REVERT JUMPDEST POP PUSH2 0x426 PUSH2 0x7BD CALLDATASIZE PUSH1 0x4 PUSH2 0x573A JUMP JUMPDEST PUSH2 0x1B7F JUMP JUMPDEST CALLVALUE DUP1 ISZERO PUSH2 0x7CE JUMPI PUSH1 0x0 DUP1 REVERT JUMPDEST POP PUSH2 0x426 PUSH2 0x7DD CALLDATASIZE PUSH1 0x4 PUSH2 0x5800 JUMP JUMPDEST PUSH2 0x1B94 JUMP JUMPDEST CALLVALUE DUP1 ISZERO PUSH2 0x7EE JUMPI PUSH1 0x0 DUP1 REVERT JUMPDEST POP PUSH2 0x426 PUSH2 0x1C65 JUMP JUMPDEST CALLVALUE DUP1 ISZERO PUSH2 0x803 JUMPI PUSH1 0x0 DUP1 REVERT JUMPDEST POP PUSH2 0x426 PUSH2 0x1D09 JUMP JUMPDEST CALLVALUE DUP1 ISZERO PUSH2 0x818 JUMPI PUSH1 0x0 DUP1 REVERT JUMPDEST POP PUSH2 0x426 PUSH2 0x1D31 JUMP JUMPDEST CALLVALUE DUP1 ISZERO PUSH2 0x82D JUMPI PUSH1 0x0 DUP1 REVERT JUMPDEST POP PUSH2 0x426 PUSH2 0x1DD5 JUMP JUMPDEST CALLVALUE DUP1 ISZERO PUSH2 0x842 JUMPI PUSH1 0x0 DUP1 REVERT JUMPDEST POP PUSH2 0x447 PUSH1 0x7 SLOAD DUP2 JUMP JUMPDEST CALLVALUE DUP1 ISZERO PUSH2 0x858 JUMPI PUSH1 0x0 DUP1 REVERT JUMPDEST POP PUSH2 0x447 PUSH1 0x10 SLOAD DUP2 JUMP JUMPDEST CALLVALUE DUP1 ISZERO PUSH2 0x86E JUMPI PUSH1 0x0 DUP1 REVERT JUMPDEST POP PUSH2 0x426 PUSH2 0x87D CALLDATASIZE PUSH1 0x4 PUSH2 0x5766 JUMP JUMPDEST PUSH2 0x1E79 JUMP JUMPDEST CALLVALUE DUP1 ISZERO PUSH2 0x88E JUMPI PUSH1 0x0 DUP1 REVERT JUMPDEST POP PUSH2 0x426 PUSH2 0x89D CALLDATASIZE PUSH1 0x4 PUSH2 0x5766 JUMP JUMPDEST PUSH2 0x1F30 JUMP JUMPDEST CALLVALUE DUP1 ISZERO PUSH2 0x8AE JUMPI PUSH1 0x0 DUP1 REVERT JUMPDEST POP PUSH2 0x426 PUSH2 0x8BD CALLDATASIZE PUSH1 0x4 PUSH2 0x573A JUMP JUMPDEST PUSH2 0x1FB3 JUMP JUMPDEST CALLVALUE DUP1 ISZERO PUSH2 0x8CE JUMPI PUSH1 0x0 DUP1 REVERT JUMPDEST POP PUSH1 0x5 SLOAD PUSH1 0x40 MLOAD PUSH1 0x1 PUSH1 0x1 PUSH1 0xA0 SHL SUB SWAP1 SWAP2 AND DUP2 MSTORE PUSH1 0x20 ADD PUSH2 0x451 JUMP JUMPDEST CALLVALUE DUP1 ISZERO PUSH2 0x8F6 JUMPI PUSH1 0x0 DUP1 REVERT JUMPDEST POP PUSH2 0x426 PUSH2 0x206C JUMP JUMPDEST CALLVALUE DUP1 ISZERO PUSH2 0x90B JUMPI PUSH1 0x0 DUP1 REVERT JUMPDEST POP PUSH2 0x426 PUSH2 0x2110 JUMP JUMPDEST CALLVALUE DUP1 ISZERO PUSH2 0x920 JUMPI PUSH1 0x0 DUP1 REVERT JUMPDEST POP PUSH2 0x46F PUSH2 0x21B4 JUMP JUMPDEST CALLVALUE DUP1 ISZERO PUSH2 0x935 JUMPI PUSH1 0x0 DUP1 REVERT JUMPDEST POP PUSH2 0x426 PUSH2 0x21C3 JUMP JUMPDEST CALLVALUE DUP1 ISZERO PUSH2 0x94A JUMPI PUSH1 0x0 DUP1 REVERT JUMPDEST POP PUSH1 0x1C SLOAD PUSH2 0x5D9 SWAP1 PUSH1 0xFF AND DUP2 JUMP JUMPDEST CALLVALUE DUP1 ISZERO PUSH2 0x964 JUMPI PUSH1 0x0 DUP1 REVERT JUMPDEST POP PUSH2 0x447 PUSH2 0x973 CALLDATASIZE PUSH1 0x4 PUSH2 0x5766 JUMP JUMPDEST PUSH1 0xD PUSH1 0x20 MSTORE PUSH1 0x0 SWAP1 DUP2 MSTORE PUSH1 0x40 SWAP1 KECCAK256 SLOAD DUP2 JUMP JUMPDEST CALLVALUE DUP1 ISZERO PUSH2 0x991 JUMPI PUSH1 0x0 DUP1 REVERT JUMPDEST POP PUSH2 0x426 PUSH2 0x9A0 CALLDATASIZE PUSH1 0x4 PUSH2 0x5766 JUMP JUMPDEST PUSH2 0x2789 JUMP JUMPDEST CALLVALUE DUP1 ISZERO PUSH2 0x9B1 JUMPI PUSH1 0x0 DUP1 REVERT JUMPDEST POP PUSH2 0x426 PUSH2 0x9C0 CALLDATASIZE PUSH1 0x4 PUSH2 0x5822 JUMP JUMPDEST PUSH2 0x27DA JUMP JUMPDEST CALLVALUE DUP1 ISZERO PUSH2 0x9D1 JUMPI PUSH1 0x0 DUP1 REVERT JUMPDEST POP PUSH2 0x426 PUSH2 0x9E0 CALLDATASIZE PUSH1 0x4 PUSH2 0x57E3 JUMP JUMPDEST PUSH2 0x29A1 JUMP JUMPDEST CALLVALUE DUP1 ISZERO PUSH2 0x9F1 JUMPI PUSH1 0x0 DUP1 REVERT JUMPDEST POP PUSH2 0x4D1 PUSH2 0xA00 CALLDATASIZE PUSH1 0x4 PUSH2 0x57E3 JUMP JUMPDEST PUSH1 0xC PUSH1 0x20 MSTORE PUSH1 0x0 SWAP1 DUP2 MSTORE PUSH1 0x40 SWAP1 KECCAK256 SLOAD PUSH1 0xFF AND DUP2 JUMP JUMPDEST CALLVALUE DUP1 ISZERO PUSH2 0xA21 JUMPI PUSH1 0x0 DUP1 REVERT JUMPDEST POP PUSH2 0x4D1 PUSH2 0xA30 CALLDATASIZE PUSH1 0x4 PUSH2 0x573A JUMP JUMPDEST PUSH2 0x2A33 JUMP JUMPDEST CALLVALUE DUP1 ISZERO PUSH2 0xA41 JUMPI PUSH1 0x0 DUP1 REVERT JUMPDEST POP PUSH2 0x4D1 PUSH2 0xA50 CALLDATASIZE PUSH1 0x4 PUSH2 0x57E3 JUMP JUMPDEST PUSH2 0x2ADD JUMP JUMPDEST CALLVALUE DUP1 ISZERO PUSH2 0xA61 JUMPI PUSH1 0x0 DUP1 REVERT JUMPDEST POP PUSH2 0x4D1 PUSH2 0xA70 CALLDATASIZE PUSH1 0x4 PUSH2 0x573A JUMP JUMPDEST PUSH2 0x2B54 JUMP JUMPDEST CALLVALUE DUP1 ISZERO PUSH2 0xA81 JUMPI PUSH1 0x0 DUP1 REVERT JUMPDEST POP PUSH2 0x447 PUSH1 0x8 SLOAD DUP2 JUMP JUMPDEST CALLVALUE DUP1 ISZERO PUSH2 0xA97 JUMPI PUSH1 0x0 DUP1 REVERT JUMPDEST POP PUSH2 0x447 PUSH1 0x1A SLOAD DUP2 JUMP JUMPDEST CALLVALUE DUP1 ISZERO PUSH2 0xAAD JUMPI PUSH1 0x0 DUP1 REVERT JUMPDEST POP PUSH2 0x447 PUSH1 0x1B SLOAD DUP2 JUMP JUMPDEST CALLVALUE DUP1 ISZERO PUSH2 0xAC3 JUMPI PUSH1 0x0 DUP1 REVERT JUMPDEST POP PUSH2 0x426 PUSH2 0x2B62 JUMP JUMPDEST CALLVALUE DUP1 ISZERO PUSH2 0xAD8 JUMPI PUSH1 0x0 DUP1 REVERT JUMPDEST POP PUSH2 0x447 PUSH1 0x6 SLOAD DUP2 JUMP JUMPDEST CALLVALUE DUP1 ISZERO PUSH2 0xAEE JUMPI PUSH1 0x0 DUP1 REVERT JUMPDEST POP PUSH2 0x447 PUSH2 0x2BDB JUMP JUMPDEST CALLVALUE DUP1 ISZERO PUSH2 0xB03 JUMPI PUSH1 0x0 DUP1 REVERT JUMPDEST POP PUSH2 0x426 PUSH2 0xB12 CALLDATASIZE PUSH1 0x4 PUSH2 0x5766 JUMP JUMPDEST PUSH2 0x2C0E JUMP JUMPDEST CALLVALUE DUP1 ISZERO PUSH2 0xB23 JUMPI PUSH1 0x0 DUP1 REVERT JUMPDEST POP PUSH2 0x426 PUSH2 0xB32 CALLDATASIZE PUSH1 0x4 PUSH2 0x5766 JUMP JUMPDEST PUSH2 0x2C91 JUMP JUMPDEST CALLVALUE DUP1 ISZERO PUSH2 0xB43 JUMPI PUSH1 0x0 DUP1 REVERT JUMPDEST POP PUSH2 0x447 PUSH2 0xB52 CALLDATASIZE PUSH1 0x4 PUSH2 0x5885 JUMP JUMPDEST PUSH1 0x1 PUSH1 0x1 PUSH1 0xA0 SHL SUB SWAP2 DUP3 AND PUSH1 0x0 SWAP1 DUP2 MSTORE PUSH1 0x14 PUSH1 0x20 SWAP1 DUP2 MSTORE PUSH1 0x40 DUP1 DUP4 KECCAK256 SWAP4 SWAP1 SWAP5 AND DUP3 MSTORE SWAP2 SWAP1 SWAP2 MSTORE KECCAK256 SLOAD SWAP1 JUMP JUMPDEST CALLVALUE DUP1 ISZERO PUSH2 0xB89 JUMPI PUSH1 0x0 DUP1 REVERT JUMPDEST POP PUSH2 0xB9D PUSH2 0xB98 CALLDATASIZE PUSH1 0x4 PUSH2 0x57E3 JUMP JUMPDEST PUSH2 0x2D48 JUMP JUMPDEST PUSH1 0x40 MLOAD PUSH2 0x451 SWAP2 SWAP1 PUSH1 0x0 PUSH2 0x120 DUP3 ADD SWAP1 POP DUP3 MLOAD DUP3 MSTORE PUSH1 0x20 DUP4 ADD MLOAD PUSH1 0x20 DUP4 ADD MSTORE PUSH1 0x40 DUP4 ADD MLOAD PUSH1 0x1 PUSH1 0x1 PUSH1 0xA0 SHL SUB DUP2 MLOAD AND PUSH1 0x40 DUP5 ADD MSTORE PUSH1 0x20 DUP2 ADD MLOAD PUSH1 0x60 DUP5 ADD MSTORE PUSH1 0x40 DUP2 ADD MLOAD PUSH1 0x80 DUP5 ADD MSTORE PUSH1 0x60 DUP2 ADD MLOAD PUSH1 0xA0 DUP5 ADD MSTORE PUSH1 0x80 DUP2 ADD MLOAD PUSH1 0xC0 DUP5 ADD MSTORE PUSH1 0xA0 DUP2 ADD MLOAD PUSH1 0xE0 DUP5 ADD MSTORE PUSH1 0xC0 DUP2 ADD MLOAD PUSH2 0x100 DUP5 ADD MSTORE POP SWAP3 SWAP2 POP POP JUMP JUMPDEST CALLVALUE DUP1 ISZERO PUSH2 0xC21 JUMPI PUSH1 0x0 DUP1 REVERT JUMPDEST POP PUSH1 0x1C SLOAD PUSH2 0x4D1 SWAP1 PUSH3 0x10000 SWAP1 DIV PUSH1 0xFF AND DUP2 JUMP JUMPDEST CALLVALUE DUP1 ISZERO PUSH2 0xC41 JUMPI PUSH1 0x0 DUP1 REVERT JUMPDEST POP PUSH2 0x426 PUSH2 0xC50 CALLDATASIZE PUSH1 0x4 PUSH2 0x58BE JUMP JUMPDEST PUSH2 0x2EF6 JUMP JUMPDEST CALLVALUE DUP1 ISZERO PUSH2 0xC61 JUMPI PUSH1 0x0 DUP1 REVERT JUMPDEST POP PUSH2 0x426 PUSH2 0xC70 CALLDATASIZE PUSH1 0x4 PUSH2 0x57E3 JUMP JUMPDEST PUSH2 0x2FAC JUMP JUMPDEST PUSH1 0x0 PUSH2 0xC82 DUP3 PUSH1 0x3 PUSH2 0x30A5 JUMP JUMPDEST PUSH20 0xE61E7A7D16DB384433E532FB85724E7F3BDAAE2F PUSH1 0x0 MSTORE PUSH1 0x13 PUSH1 0x20 MSTORE PUSH32 0xAC3F991B0BCFBE5A49CB8F28AA381129B92FDF4ED0797BB0B28F2D4F8472E52F SLOAD SWAP1 SWAP2 POP PUSH2 0xCCE SWAP1 DUP3 PUSH2 0x30B8 JUMP JUMPDEST PUSH1 0x13 PUSH1 0x20 MSTORE PUSH32 0xAC3F991B0BCFBE5A49CB8F28AA381129B92FDF4ED0797BB0B28F2D4F8472E52F SSTORE PUSH20 0x406605EB24A97A2D61B516D8D850F2AEFA6A731A PUSH1 0x0 MSTORE PUSH32 0x8A2B6C18ED66322C8ECB6F6EEF8AF1341BAB377E298D1A97668035E55C3FB987 SLOAD PUSH2 0xD39 SWAP1 DUP3 PUSH2 0x30B8 JUMP JUMPDEST PUSH1 0x13 PUSH1 0x20 MSTORE PUSH32 0x8A2B6C18ED66322C8ECB6F6EEF8AF1341BAB377E298D1A97668035E55C3FB987 SSTORE PUSH20 0x97620DEADC98BC8173303686037CE7B986CF53C3 PUSH1 0x0 MSTORE PUSH32 0x192F1AC10B1314D35BBC8FCF3F0D2F253C4710988114BAEC9C0AB6A710BE3EC7 SLOAD PUSH2 0xDA4 SWAP1 DUP3 PUSH2 0x30B8 JUMP JUMPDEST PUSH20 0x97620DEADC98BC8173303686037CE7B986CF53C3 PUSH1 0x0 MSTORE PUSH1 0x13 PUSH1 0x20 MSTORE PUSH32 0x192F1AC10B1314D35BBC8FCF3F0D2F253C4710988114BAEC9C0AB6A710BE3EC7 SSTORE POP POP JUMP JUMPDEST PUSH1 0x60 PUSH1 0x16 DUP1 SLOAD PUSH2 0xDF6 SWAP1 PUSH2 0x5909 JUMP JUMPDEST DUP1 PUSH1 0x1F ADD PUSH1 0x20 DUP1 SWAP2 DIV MUL PUSH1 0x20 ADD PUSH1 0x40 MLOAD SWAP1 DUP2 ADD PUSH1 0x40 MSTORE DUP1 SWAP3 SWAP2 SWAP1 DUP2 DUP2 MSTORE PUSH1 0x20 ADD DUP3 DUP1 SLOAD PUSH2 0xE22 SWAP1 PUSH2 0x5909 JUMP JUMPDEST DUP1 ISZERO PUSH2 0xE6F JUMPI DUP1 PUSH1 0x1F LT PUSH2 0xE44 JUMPI PUSH2 0x100 DUP1 DUP4 SLOAD DIV MUL DUP4 MSTORE SWAP2 PUSH1 0x20 ADD SWAP2 PUSH2 0xE6F JUMP JUMPDEST DUP3 ADD SWAP2 SWAP1 PUSH1 0x0 MSTORE PUSH1 0x20 PUSH1 0x0 KECCAK256 SWAP1 JUMPDEST DUP2 SLOAD DUP2 MSTORE SWAP1 PUSH1 0x1 ADD SWAP1 PUSH1 0x20 ADD DUP1 DUP4 GT PUSH2 0xE52 JUMPI DUP3 SWAP1 SUB PUSH1 0x1F AND DUP3 ADD SWAP2 JUMPDEST POP POP POP POP POP SWAP1 POP SWAP1 JUMP JUMPDEST PUSH2 0xE81 PUSH2 0x30C4 JUMP JUMPDEST CALLER PUSH1 0x0 SWAP1 DUP2 MSTORE PUSH1 0xC PUSH1 0x20 MSTORE PUSH1 0x40 SWAP1 KECCAK256 SLOAD PUSH1 0xFF AND ISZERO ISZERO PUSH1 0x1 EQ PUSH2 0xEEA JUMPI PUSH1 0x40 MLOAD PUSH3 0x461BCD PUSH1 0xE5 SHL DUP2 MSTORE PUSH1 0x20 PUSH1 0x4 DUP3 ADD MSTORE PUSH1 0x13 PUSH1 0x24 DUP3 ADD MSTORE PUSH32 0x596F7520617265206E6F74206120766F74657200000000000000000000000000 PUSH1 0x44 DUP3 ADD MSTORE PUSH1 0x64 ADD JUMPDEST PUSH1 0x40 MLOAD DUP1 SWAP2 SUB SWAP1 REVERT JUMPDEST CALLER PUSH1 0x0 SWAP1 DUP2 MSTORE PUSH1 0xC PUSH1 0x20 SWAP1 DUP2 MSTORE PUSH1 0x40 DUP1 DUP4 KECCAK256 PUSH1 0xA SLOAD DUP5 MSTORE PUSH1 0x1 SWAP1 DUP2 ADD SWAP1 SWAP3 MSTORE SWAP1 SWAP2 KECCAK256 SLOAD PUSH1 0xFF AND ISZERO ISZERO EQ PUSH2 0xF5F JUMPI PUSH1 0x40 MLOAD PUSH3 0x461BCD PUSH1 0xE5 SHL DUP2 MSTORE PUSH1 0x20 PUSH1 0x4 DUP3 ADD MSTORE PUSH1 0x16 PUSH1 0x24 DUP3 ADD MSTORE PUSH32 0x596F752068617665206E6F7420766F7465642079657400000000000000000000 PUSH1 0x44 DUP3 ADD MSTORE PUSH1 0x64 ADD PUSH2 0xEE1 JUMP JUMPDEST PUSH1 0xA SLOAD PUSH1 0x0 SWAP1 DUP2 MSTORE PUSH1 0xD PUSH1 0x20 MSTORE PUSH1 0x40 DUP2 KECCAK256 DUP1 SLOAD PUSH1 0x1 SWAP3 SWAP1 PUSH2 0xF81 SWAP1 DUP5 SWAP1 PUSH2 0x595A JUMP JUMPDEST SWAP1 SWAP2 SSTORE POP POP JUMP JUMPDEST PUSH1 0x5 SLOAD PUSH1 0x1 PUSH1 0x1 PUSH1 0xA0 SHL SUB AND CALLER EQ PUSH2 0xFD0 JUMPI PUSH1 0x40 MLOAD PUSH3 0x461BCD PUSH1 0xE5 SHL DUP2 MSTORE PUSH1 0x20 PUSH1 0x4 DUP3 ADD DUP2 SWAP1 MSTORE PUSH1 0x24 DUP3 ADD MSTORE PUSH1 0x0 DUP1 MLOAD PUSH1 0x20 PUSH2 0x5A7A DUP4 CODECOPY DUP2 MLOAD SWAP2 MSTORE PUSH1 0x44 DUP3 ADD MSTORE PUSH1 0x64 ADD PUSH2 0xEE1 JUMP JUMPDEST PUSH1 0x1C SLOAD PUSH1 0x0 SWAP1 PUSH4 0x1000000 SWAP1 DIV PUSH1 0xFF AND ISZERO ISZERO PUSH1 0x1 EQ PUSH2 0x1031 JUMPI PUSH1 0x40 MLOAD PUSH3 0x461BCD PUSH1 0xE5 SHL DUP2 MSTORE PUSH1 0x20 PUSH1 0x4 DUP3 ADD MSTORE PUSH1 0x1C PUSH1 0x24 DUP3 ADD MSTORE PUSH32 0x507269766174652053616C65206E6F7420796574207374617274656400000000 PUSH1 0x44 DUP3 ADD MSTORE PUSH1 0x64 ADD PUSH2 0xEE1 JUMP JUMPDEST DUP2 PUSH2 0x107E JUMPI PUSH1 0x40 MLOAD PUSH3 0x461BCD PUSH1 0xE5 SHL DUP2 MSTORE PUSH1 0x20 PUSH1 0x4 DUP3 ADD MSTORE PUSH1 0xE PUSH1 0x24 DUP3 ADD MSTORE PUSH32 0x4E6F7468696E6720746F20616464000000000000000000000000000000000000 PUSH1 0x44 DUP3 ADD MSTORE PUSH1 0x64 ADD PUSH2 0xEE1 JUMP JUMPDEST PUSH1 0x0 JUMPDEST DUP3 DUP2 LT ISZERO PUSH2 0x11BA JUMPI PUSH2 0x10AD DUP5 DUP5 DUP4 DUP2 DUP2 LT PUSH2 0x109E JUMPI PUSH2 0x109E PUSH2 0x5971 JUMP JUMPDEST SWAP1 POP PUSH1 0x40 MUL ADD PUSH1 0x20 ADD CALLDATALOAD PUSH2 0x3116 JUMP JUMPDEST DUP4 DUP4 DUP3 DUP2 DUP2 LT PUSH2 0x10BF JUMPI PUSH2 0x10BF PUSH2 0x5971 JUMP JUMPDEST SWAP1 POP PUSH1 0x40 MUL ADD PUSH1 0x20 ADD CALLDATALOAD DUP3 PUSH2 0x10D4 SWAP2 SWAP1 PUSH2 0x5987 JUMP JUMPDEST SWAP2 POP PUSH2 0x1122 DUP5 DUP5 DUP4 DUP2 DUP2 LT PUSH2 0x10EB JUMPI PUSH2 0x10EB PUSH2 0x5971 JUMP JUMPDEST PUSH2 0x1101 SWAP3 PUSH1 0x20 PUSH1 0x40 SWAP1 SWAP3 MUL ADD SWAP1 DUP2 ADD SWAP2 POP PUSH2 0x57E3 JUMP JUMPDEST DUP6 DUP6 DUP5 DUP2 DUP2 LT PUSH2 0x1113 JUMPI PUSH2 0x1113 PUSH2 0x5971 JUMP JUMPDEST SWAP1 POP PUSH1 0x40 MUL ADD PUSH1 0x20 ADD CALLDATALOAD PUSH2 0x3163 JUMP JUMPDEST DUP4 DUP4 DUP3 DUP2 DUP2 LT PUSH2 0x1134 JUMPI PUSH2 0x1134 PUSH2 0x5971 JUMP JUMPDEST PUSH2 0x114A SWAP3 PUSH1 0x20 PUSH1 0x40 SWAP1 SWAP3 MUL ADD SWAP1 DUP2 ADD SWAP2 POP PUSH2 0x57E3 JUMP JUMPDEST PUSH1 0x1 PUSH1 0x1 PUSH1 0xA0 SHL SUB AND CALLER PUSH32 0x45B7246D64FE59430BA3159FD11DC7352501C1D80F8A6535CF48F68965E2745 DUP7 DUP7 DUP6 DUP2 DUP2 LT PUSH2 0x1187 JUMPI PUSH2 0x1187 PUSH2 0x5971 JUMP JUMPDEST SWAP1 POP PUSH1 0x40 MUL ADD PUSH1 0x20 ADD CALLDATALOAD PUSH1 0x40 MLOAD PUSH2 0x11A0 SWAP2 DUP2 MSTORE PUSH1 0x20 ADD SWAP1 JUMP JUMPDEST PUSH1 0x40 MLOAD DUP1 SWAP2 SUB SWAP1 LOG3 DUP1 PUSH2 0x11B2 DUP2 PUSH2 0x599F JUMP JUMPDEST SWAP2 POP POP PUSH2 0x1081 JUMP JUMPDEST POP PUSH1 0x1A SLOAD PUSH2 0x11C8 SWAP1 DUP3 PUSH2 0x32D6 JUMP JUMPDEST PUSH1 0x1A SSTORE POP POP POP JUMP JUMPDEST PUSH1 0x0 CALLER PUSH2 0x11DE DUP2 DUP6 DUP6 PUSH2 0x32E2 JUMP JUMPDEST POP PUSH1 0x1 SWAP4 SWAP3 POP POP POP JUMP JUMPDEST PUSH1 0x5 SLOAD PUSH1 0x1 PUSH1 0x1 PUSH1 0xA0 SHL SUB AND CALLER EQ PUSH2 0x1230 JUMPI PUSH1 0x40 MLOAD PUSH3 0x461BCD PUSH1 0xE5 SHL DUP2 MSTORE PUSH1 0x20 PUSH1 0x4 DUP3 ADD DUP2 SWAP1 MSTORE PUSH1 0x24 DUP3 ADD MSTORE PUSH1 0x0 DUP1 MLOAD PUSH1 0x20 PUSH2 0x5A7A DUP4 CODECOPY DUP2 MLOAD SWAP2 MSTORE PUSH1 0x44 DUP3 ADD MSTORE PUSH1 0x64 ADD PUSH2 0xEE1 JUMP JUMPDEST PUSH1 0x19 SLOAD PUSH2 0x123D SWAP1 DUP3 PUSH2 0x32D6 JUMP JUMPDEST PUSH1 0x19 SSTORE PUSH1 0x15 SLOAD PUSH2 0x124D SWAP1 DUP3 PUSH2 0x32D6 JUMP JUMPDEST PUSH1 0x15 SSTORE PUSH1 0x40 MLOAD DUP2 DUP2 MSTORE PUSH1 0x0 SWAP1 ADDRESS SWAP1 PUSH32 0x715128EA18BCB5A472F8187C4FBFDC1ED6D04ECDCFF67E3F546FDD075E862665 SWAP1 PUSH1 0x20 ADD JUMPDEST PUSH1 0x40 MLOAD DUP1 SWAP2 SUB SWAP1 LOG3 POP JUMP JUMPDEST PUSH2 0x1294 PUSH2 0x343B JUMP JUMPDEST PUSH1 0x25 PUSH1 0x0 SWAP1 SLOAD SWAP1 PUSH2 0x100 EXP SWAP1 DIV PUSH1 0x1 PUSH1 0x1 PUSH1 0xA0 SHL SUB AND PUSH1 0x1 PUSH1 0x1 PUSH1 0xA0 SHL SUB AND PUSH4 0x38AF3EED PUSH1 0x40 MLOAD DUP2 PUSH4 0xFFFFFFFF AND PUSH1 0xE0 SHL DUP2 MSTORE PUSH1 0x4 ADD PUSH1 0x20 PUSH1 0x40 MLOAD DUP1 DUP4 SUB DUP2 DUP7 GAS STATICCALL ISZERO DUP1 ISZERO PUSH2 0x12E7 JUMPI RETURNDATASIZE PUSH1 0x0 DUP1 RETURNDATACOPY RETURNDATASIZE PUSH1 0x0 REVERT JUMPDEST POP POP POP POP PUSH1 0x40 MLOAD RETURNDATASIZE PUSH1 0x1F NOT PUSH1 0x1F DUP3 ADD AND DUP3 ADD DUP1 PUSH1 0x40 MSTORE POP DUP2 ADD SWAP1 PUSH2 0x130B SWAP2 SWAP1 PUSH2 0x59BA JUMP JUMPDEST PUSH2 0x1314 DUP2 PUSH2 0x3498 JUMP JUMPDEST PUSH1 0x25 SLOAD PUSH1 0x0 SWAP1 PUSH1 0x1 PUSH1 0x1 PUSH1 0xA0 SHL SUB AND PUSH4 0xA95606E PUSH2 0x1330 PUSH2 0x34F0 JUMP JUMPDEST PUSH1 0x40 MLOAD DUP3 PUSH4 0xFFFFFFFF AND PUSH1 0xE0 SHL DUP2 MSTORE PUSH1 0x4 ADD PUSH2 0x134C SWAP2 SWAP1 PUSH2 0x59D7 JUMP JUMPDEST PUSH1 0x20 PUSH1 0x40 MLOAD DUP1 DUP4 SUB DUP2 PUSH1 0x0 DUP8 GAS CALL ISZERO DUP1 ISZERO PUSH2 0x136B JUMPI RETURNDATASIZE PUSH1 0x0 DUP1 RETURNDATACOPY RETURNDATASIZE PUSH1 0x0 REVERT JUMPDEST POP POP POP POP PUSH1 0x40 MLOAD RETURNDATASIZE PUSH1 0x1F NOT PUSH1 0x1F DUP3 ADD AND DUP3 ADD DUP1 PUSH1 0x40 MSTORE POP DUP2 ADD SWAP1 PUSH2 0x138F SWAP2 SWAP1 PUSH2 0x5A09 JUMP JUMPDEST SWAP1 POP PUSH2 0x13BB DUP2 PUSH1 0x13 PUSH1 0x0 CALLER JUMPDEST PUSH1 0x1 PUSH1 0x1 PUSH1 0xA0 SHL SUB AND DUP2 MSTORE PUSH1 0x20 DUP2 ADD SWAP2 SWAP1 SWAP2 MSTORE PUSH1 0x40 ADD PUSH1 0x0 KECCAK256 SLOAD SWAP1 PUSH2 0x30B8 JUMP JUMPDEST CALLER PUSH1 0x0 SWAP1 DUP2 MSTORE PUSH1 0x13 PUSH1 0x20 MSTORE PUSH1 0x40 SWAP1 KECCAK256 SSTORE POP POP JUMP JUMPDEST PUSH2 0x13D7 PUSH2 0x343B JUMP JUMPDEST PUSH1 0x27 PUSH1 0x0 SWAP1 SLOAD SWAP1 PUSH2 0x100 EXP SWAP1 DIV PUSH1 0x1 PUSH1 0x1 PUSH1 0xA0 SHL SUB AND PUSH1 0x1 PUSH1 0x1 PUSH1 0xA0 SHL SUB AND PUSH4 0x38AF3EED PUSH1 0x40 MLOAD DUP2 PUSH4 0xFFFFFFFF AND PUSH1 0xE0 SHL DUP2 MSTORE PUSH1 0x4 ADD PUSH1 0x20 PUSH1 0x40 MLOAD DUP1 DUP4 SUB DUP2 DUP7 GAS STATICCALL ISZERO DUP1 ISZERO PUSH2 0x142A JUMPI RETURNDATASIZE PUSH1 0x0 DUP1 RETURNDATACOPY RETURNDATASIZE PUSH1 0x0 REVERT JUMPDEST POP POP POP POP PUSH1 0x40 MLOAD RETURNDATASIZE PUSH1 0x1F NOT PUSH1 0x1F DUP3 ADD AND DUP3 ADD DUP1 PUSH1 0x40 MSTORE POP DUP2 ADD SWAP1 PUSH2 0x144E SWAP2 SWAP1 PUSH2 0x59BA JUMP JUMPDEST PUSH2 0x1457 DUP2 PUSH2 0x3498 JUMP JUMPDEST PUSH1 0x27 SLOAD PUSH1 0x0 SWAP1 PUSH1 0x1 PUSH1 0x1 PUSH1 0xA0 SHL SUB AND PUSH4 0xA95606E PUSH2 0x1330 PUSH2 0x393B JUMP JUMPDEST PUSH2 0x14A0 PUSH1 0x40 MLOAD DUP1 PUSH1 0x80 ADD PUSH1 0x40 MSTORE DUP1 PUSH1 0x0 DUP2 MSTORE PUSH1 0x20 ADD PUSH1 0x0 DUP2 MSTORE PUSH1 0x20 ADD PUSH1 0x0 ISZERO ISZERO DUP2 MSTORE PUSH1 0x20 ADD PUSH1 0x0 DUP2 MSTORE POP SWAP1 JUMP JUMPDEST CALLER PUSH1 0x0 SWAP1 DUP2 MSTORE PUSH1 0x12 PUSH1 0x20 MSTORE PUSH1 0x40 SWAP1 KECCAK256 PUSH1 0x1 ADD SLOAD PUSH2 0x1525 JUMPI PUSH1 0x40 MLOAD PUSH3 0x461BCD PUSH1 0xE5 SHL DUP2 MSTORE PUSH1 0x20 PUSH1 0x4 DUP3 ADD MSTORE PUSH1 0x38 PUSH1 0x24 DUP3 ADD MSTORE PUSH32 0x5072697661746553616C653A20596F7520646F6E2774206861766520616E7920 PUSH1 0x44 DUP3 ADD MSTORE PUSH32 0x62616C616E636520666F7220707269766174652073616C650000000000000000 PUSH1 0x64 DUP3 ADD MSTORE PUSH1 0x84 ADD PUSH2 0xEE1 JUMP JUMPDEST POP CALLER PUSH1 0x0 SWAP1 DUP2 MSTORE PUSH1 0x12 PUSH1 0x20 SWAP1 DUP2 MSTORE PUSH1 0x40 SWAP2 DUP3 SWAP1 KECCAK256 DUP3 MLOAD PUSH1 0x80 DUP2 ADD DUP5 MSTORE DUP2 SLOAD DUP2 MSTORE PUSH1 0x1 DUP3 ADD SLOAD SWAP3 DUP2 ADD SWAP3 SWAP1 SWAP3 MSTORE PUSH1 0x2 DUP2 ADD SLOAD PUSH1 0xFF AND ISZERO ISZERO SWAP3 DUP3 ADD SWAP3 SWAP1 SWAP3 MSTORE PUSH1 0x3 SWAP1 SWAP2 ADD SLOAD PUSH1 0x60 DUP3 ADD MSTORE SWAP1 JUMP JUMPDEST PUSH1 0x0 CALLER PUSH2 0x157E DUP6 DUP3 DUP6 PUSH2 0x39FB JUMP JUMPDEST PUSH2 0x1589 DUP6 DUP6 DUP6 PUSH2 0x3A8D JUMP JUMPDEST POP PUSH1 0x1 SWAP5 SWAP4 POP POP POP POP JUMP JUMPDEST CALLER PUSH1 0x0 DUP2 DUP2 MSTORE PUSH1 0x14 PUSH1 0x20 SWAP1 DUP2 MSTORE PUSH1 0x40 DUP1 DUP4 KECCAK256 PUSH1 0x1 PUSH1 0x1 PUSH1 0xA0 SHL SUB DUP8 AND DUP5 MSTORE SWAP1 SWAP2 MSTORE DUP2 KECCAK256 SLOAD SWAP1 SWAP2 SWAP1 PUSH2 0x11DE SWAP1 DUP3 SWAP1 DUP7 SWAP1 PUSH2 0x15CE SWAP1 DUP8 SWAP1 PUSH2 0x5987 JUMP JUMPDEST PUSH2 0x32E2 JUMP JUMPDEST PUSH2 0x15DB PUSH2 0x343B JUMP JUMPDEST PUSH1 0x2B PUSH1 0x0 SWAP1 SLOAD SWAP1 PUSH2 0x100 EXP SWAP1 DIV PUSH1 0x1 PUSH1 0x1 PUSH1 0xA0 SHL SUB AND PUSH1 0x1 PUSH1 0x1 PUSH1 0xA0 SHL SUB AND PUSH4 0x38AF3EED PUSH1 0x40 MLOAD DUP2 PUSH4 0xFFFFFFFF AND PUSH1 0xE0 SHL DUP2 MSTORE PUSH1 0x4 ADD PUSH1 0x20 PUSH1 0x40 MLOAD DUP1 DUP4 SUB DUP2 DUP7 GAS STATICCALL ISZERO DUP1 ISZERO PUSH2 0x162E JUMPI RETURNDATASIZE PUSH1 0x0 DUP1 RETURNDATACOPY RETURNDATASIZE PUSH1 0x0 REVERT JUMPDEST POP POP POP POP PUSH1 0x40 MLOAD RETURNDATASIZE PUSH1 0x1F NOT PUSH1 0x1F DUP3 ADD AND DUP3 ADD DUP1 PUSH1 0x40 MSTORE POP DUP2 ADD SWAP1 PUSH2 0x1652 SWAP2 SWAP1 PUSH2 0x59BA JUMP JUMPDEST PUSH2 0x165B DUP2 PUSH2 0x3498 JUMP JUMPDEST PUSH1 0x2B SLOAD PUSH1 0x0 SWAP1 PUSH1 0x1 PUSH1 0x1 PUSH1 0xA0 SHL SUB AND PUSH4 0xA95606E PUSH2 0x1330 PUSH2 0x3CF1 JUMP JUMPDEST PUSH1 0x5 SLOAD PUSH1 0x1 PUSH1 0x1 PUSH1 0xA0 SHL SUB AND CALLER EQ PUSH2 0x16BF JUMPI PUSH1 0x40 MLOAD PUSH3 0x461BCD PUSH1 0xE5 SHL DUP2 MSTORE PUSH1 0x20 PUSH1 0x4 DUP3 ADD DUP2 SWAP1 MSTORE PUSH1 0x24 DUP3 ADD MSTORE PUSH1 0x0 DUP1 MLOAD PUSH1 0x20 PUSH2 0x5A7A DUP4 CODECOPY DUP2 MLOAD SWAP2 MSTORE PUSH1 0x44 DUP3 ADD MSTORE PUSH1 0x64 ADD PUSH2 0xEE1 JUMP JUMPDEST PUSH2 0x16C9 DUP3 DUP3 PUSH2 0x4149 JUMP JUMPDEST POP POP JUMP JUMPDEST PUSH2 0x16D7 CALLER DUP3 PUSH2 0x4228 JUMP JUMPDEST POP JUMP JUMPDEST PUSH1 0x5 SLOAD PUSH1 0x1 PUSH1 0x1 PUSH1 0xA0 SHL SUB AND CALLER EQ PUSH2 0x1722 JUMPI PUSH1 0x40 MLOAD PUSH3 0x461BCD PUSH1 0xE5 SHL DUP2 MSTORE PUSH1 0x20 PUSH1 0x4 DUP3 ADD DUP2 SWAP1 MSTORE PUSH1 0x24 DUP3 ADD MSTORE PUSH1 0x0 DUP1 MLOAD PUSH1 0x20 PUSH2 0x5A7A DUP4 CODECOPY DUP2 MLOAD SWAP2 MSTORE PUSH1 0x44 DUP3 ADD MSTORE PUSH1 0x64 ADD PUSH2 0xEE1 JUMP JUMPDEST PUSH1 0x5 DUP2 PUSH1 0xFF AND LT PUSH2 0x1775 JUMPI PUSH1 0x40 MLOAD PUSH3 0x461BCD PUSH1 0xE5 SHL DUP2 MSTORE PUSH1 0x20 PUSH1 0x4 DUP3 ADD MSTORE PUSH1 0x15 PUSH1 0x24 DUP3 ADD MSTORE PUSH32 0x54617820466565206D6178696D756D2069732035250000000000000000000000 PUSH1 0x44 DUP3 ADD MSTORE PUSH1 0x64 ADD PUSH2 0xEE1 JUMP JUMPDEST PUSH1 0x1C DUP1 SLOAD PUSH1 0xFF NOT AND PUSH1 0xFF DUP4 AND SWAP1 DUP2 OR SWAP1 SWAP2 SSTORE PUSH1 0x40 MLOAD SWAP1 DUP2 MSTORE CALLER SWAP1 PUSH32 0xDF92943B31FFF67E8447FF9FA8B5E226DDCC5FB34D36CFE120C0F2B96EB8D6F7 SWAP1 PUSH1 0x20 ADD JUMPDEST PUSH1 0x40 MLOAD DUP1 SWAP2 SUB SWAP1 LOG2 POP JUMP JUMPDEST PUSH2 0x17C8 PUSH2 0x343B JUMP JUMPDEST PUSH1 0x29 PUSH1 0x0 SWAP1 SLOAD SWAP1 PUSH2 0x100 EXP SWAP1 DIV PUSH1 0x1 PUSH1 0x1 PUSH1 0xA0 SHL SUB AND PUSH1 0x1 PUSH1 0x1 PUSH1 0xA0 SHL SUB AND PUSH4 0x38AF3EED PUSH1 0x40 MLOAD DUP2 PUSH4 0xFFFFFFFF AND PUSH1 0xE0 SHL DUP2 MSTORE PUSH1 0x4 ADD PUSH1 0x20 PUSH1 0x40 MLOAD DUP1 DUP4 SUB DUP2 DUP7 GAS STATICCALL ISZERO DUP1 ISZERO PUSH2 0x181B JUMPI RETURNDATASIZE PUSH1 0x0 DUP1 RETURNDATACOPY RETURNDATASIZE PUSH1 0x0 REVERT JUMPDEST POP POP POP POP PUSH1 0x40 MLOAD RETURNDATASIZE PUSH1 0x1F NOT PUSH1 0x1F DUP3 ADD AND DUP3 ADD DUP1 PUSH1 0x40 MSTORE POP DUP2 ADD SWAP1 PUSH2 0x183F SWAP2 SWAP1 PUSH2 0x59BA JUMP JUMPDEST PUSH2 0x1848 DUP2 PUSH2 0x3498 JUMP JUMPDEST PUSH1 0x29 SLOAD PUSH1 0x0 SWAP1 PUSH1 0x1 PUSH1 0x1 PUSH1 0xA0 SHL SUB AND PUSH4 0xA95606E PUSH2 0x1330 PUSH2 0x3CF1 JUMP JUMPDEST PUSH1 0x1C SLOAD PUSH1 0xFF PUSH2 0x100 SWAP1 SWAP2 DIV AND ISZERO ISZERO PUSH1 0x1 EQ PUSH2 0x18C1 JUMPI PUSH1 0x40 MLOAD PUSH3 0x461BCD PUSH1 0xE5 SHL DUP2 MSTORE PUSH1 0x20 PUSH1 0x4 DUP3 ADD MSTORE PUSH1 0x17 PUSH1 0x24 DUP3 ADD MSTORE PUSH32 0x41697264726F70206E6F74207965742073746172746564000000000000000000 PUSH1 0x44 DUP3 ADD MSTORE PUSH1 0x64 ADD PUSH2 0xEE1 JUMP JUMPDEST PUSH1 0x0 PUSH2 0x18CC CALLER PUSH2 0x43A5 JUMP JUMPDEST ADDRESS PUSH1 0x0 SWAP1 DUP2 MSTORE PUSH1 0x13 PUSH1 0x20 MSTORE PUSH1 0x40 SWAP1 KECCAK256 SLOAD SWAP1 SWAP2 POP PUSH2 0x18E9 SWAP1 DUP3 PUSH2 0x32D6 JUMP JUMPDEST ADDRESS PUSH1 0x0 SWAP1 DUP2 MSTORE PUSH1 0x13 PUSH1 0x20 DUP2 SWAP1 MSTORE PUSH1 0x40 DUP3 KECCAK256 SWAP3 SWAP1 SWAP3 SSTORE PUSH2 0x190A SWAP2 DUP4 SWAP2 CALLER PUSH2 0x139B JUMP JUMPDEST CALLER PUSH1 0x0 SWAP1 DUP2 MSTORE PUSH1 0x13 PUSH1 0x20 MSTORE PUSH1 0x40 SWAP1 KECCAK256 SSTORE POP JUMP JUMPDEST PUSH2 0x1925 PUSH2 0x30C4 JUMP JUMPDEST CALLER PUSH1 0x0 SWAP1 DUP2 MSTORE PUSH1 0xC PUSH1 0x20 MSTORE PUSH1 0x40 SWAP1 KECCAK256 SLOAD PUSH1 0xFF AND ISZERO ISZERO PUSH1 0x1 EQ PUSH2 0x1989 JUMPI PUSH1 0x40 MLOAD PUSH3 0x461BCD PUSH1 0xE5 SHL DUP2 MSTORE PUSH1 0x20 PUSH1 0x4 DUP3 ADD MSTORE PUSH1 0x13 PUSH1 0x24 DUP3 ADD MSTORE PUSH32 0x596F7520617265206E6F74206120766F74657200000000000000000000000000 PUSH1 0x44 DUP3 ADD MSTORE PUSH1 0x64 ADD PUSH2 0xEE1 JUMP JUMPDEST CALLER PUSH1 0x0 SWAP1 DUP2 MSTORE PUSH1 0xC PUSH1 0x20 SWAP1 DUP2 MSTORE PUSH1 0x40 DUP1 DUP4 KECCAK256 PUSH1 0xA SLOAD DUP5 MSTORE PUSH1 0x1 ADD SWAP1 SWAP2 MSTORE SWAP1 KECCAK256 SLOAD PUSH1 0xFF AND ISZERO PUSH2 0x19F9 JUMPI PUSH1 0x40 MLOAD PUSH3 0x461BCD PUSH1 0xE5 SHL DUP2 MSTORE PUSH1 0x20 PUSH1 0x4 DUP3 ADD MSTORE PUSH1 0x15 PUSH1 0x24 DUP3 ADD MSTORE PUSH32 0x596F75206861766520766F746564206265666F72650000000000000000000000 PUSH1 0x44 DUP3 ADD MSTORE PUSH1 0x64 ADD PUSH2 0xEE1 JUMP JUMPDEST CALLER PUSH1 0x0 SWAP1 DUP2 MSTORE PUSH1 0xC PUSH1 0x20 SWAP1 DUP2 MSTORE PUSH1 0x40 DUP1 DUP4 KECCAK256 PUSH1 0xA DUP1 SLOAD DUP6 MSTORE PUSH1 0x1 SWAP2 DUP3 ADD DUP5 MSTORE DUP3 DUP6 KECCAK256 DUP1 SLOAD PUSH1 0xFF NOT AND DUP4 OR SWAP1 SSTORE SLOAD DUP5 MSTORE PUSH1 0xD SWAP1 SWAP3 MSTORE DUP3 KECCAK256 DUP1 SLOAD SWAP2 SWAP3 SWAP1 SWAP2 PUSH2 0xF81 SWAP1 DUP5 SWAP1 PUSH2 0x5987 JUMP JUMPDEST CALLER PUSH1 0x0 SWAP1 DUP2 MSTORE PUSH1 0x13 PUSH1 0x20 MSTORE PUSH1 0x40 SWAP1 KECCAK256 SLOAD PUSH2 0x1A5A SWAP1 DUP3 PUSH2 0x32D6 JUMP JUMPDEST CALLER PUSH1 0x0 SWAP1 DUP2 MSTORE PUSH1 0x13 PUSH1 0x20 MSTORE PUSH1 0x40 DUP2 KECCAK256 SWAP2 SWAP1 SWAP2 SSTORE PUSH1 0x1B DUP1 SLOAD DUP4 SWAP3 SWAP1 PUSH2 0x1A7F SWAP1 DUP5 SWAP1 PUSH2 0x5987 JUMP JUMPDEST SWAP1 SWAP2 SSTORE POP POP POP JUMP JUMPDEST PUSH1 0x5 SLOAD PUSH1 0x1 PUSH1 0x1 PUSH1 0xA0 SHL SUB AND CALLER EQ PUSH2 0x1ACF JUMPI PUSH1 0x40 MLOAD PUSH3 0x461BCD PUSH1 0xE5 SHL DUP2 MSTORE PUSH1 0x20 PUSH1 0x4 DUP3 ADD DUP2 SWAP1 MSTORE PUSH1 0x24 DUP3 ADD MSTORE PUSH1 0x0 DUP1 MLOAD PUSH1 0x20 PUSH2 0x5A7A DUP4 CODECOPY DUP2 MLOAD SWAP2 MSTORE PUSH1 0x44 DUP3 ADD MSTORE PUSH1 0x64 ADD PUSH2 0xEE1 JUMP JUMPDEST PUSH2 0x1AD9 PUSH1 0x0 PUSH2 0x44F8 JUMP JUMPDEST JUMP JUMPDEST PUSH2 0x1AE3 PUSH2 0x343B JUMP JUMPDEST PUSH1 0x23 PUSH1 0x0 SWAP1 SLOAD SWAP1 PUSH2 0x100 EXP SWAP1 DIV PUSH1 0x1 PUSH1 0x1 PUSH1 0xA0 SHL SUB AND PUSH1 0x1 PUSH1 0x1 PUSH1 0xA0 SHL SUB AND PUSH4 0x38AF3EED PUSH1 0x40 MLOAD DUP2 PUSH4 0xFFFFFFFF AND PUSH1 0xE0 SHL DUP2 MSTORE PUSH1 0x4 ADD PUSH1 0x20 PUSH1 0x40 MLOAD DUP1 DUP4 SUB DUP2 DUP7 GAS STATICCALL ISZERO DUP1 ISZERO PUSH2 0x1B36 JUMPI RETURNDATASIZE PUSH1 0x0 DUP1 RETURNDATACOPY RETURNDATASIZE PUSH1 0x0 REVERT JUMPDEST POP POP POP POP PUSH1 0x40 MLOAD RETURNDATASIZE PUSH1 0x1F NOT PUSH1 0x1F DUP3 ADD AND DUP3 ADD DUP1 PUSH1 0x40 MSTORE POP DUP2 ADD SWAP1 PUSH2 0x1B5A SWAP2 SWAP1 PUSH2 0x59BA JUMP JUMPDEST PUSH2 0x1B63 DUP2 PUSH2 0x3498 JUMP JUMPDEST PUSH1 0x23 SLOAD PUSH1 0x0 SWAP1 PUSH1 0x1 PUSH1 0x1 PUSH1 0xA0 SHL SUB AND PUSH4 0xA95606E PUSH2 0x1330 PUSH2 0x34F0 JUMP JUMPDEST PUSH2 0x1B8A DUP3 CALLER DUP4 PUSH2 0x39FB JUMP JUMPDEST PUSH2 0x16C9 DUP3 DUP3 PUSH2 0x4228 JUMP JUMPDEST DUP1 PUSH3 0x278D00 EQ DUP1 PUSH2 0x1BA7 JUMPI POP DUP1 PUSH3 0x76A700 EQ JUMPDEST DUP1 PUSH2 0x1BB4 JUMPI POP DUP1 PUSH3 0xED4E00 EQ JUMPDEST DUP1 PUSH2 0x1BC2 JUMPI POP DUP1 PUSH4 0x1E13380 EQ JUMPDEST PUSH2 0x1C0E JUMPI PUSH1 0x40 MLOAD PUSH3 0x461BCD PUSH1 0xE5 SHL DUP2 MSTORE PUSH1 0x20 PUSH1 0x4 DUP3 ADD MSTORE PUSH1 0x1B PUSH1 0x24 DUP3 ADD MSTORE PUSH32 0x5374616B696E67206F7074696F6E20646F65736E742065786973740000000000 PUSH1 0x44 DUP3 ADD MSTORE PUSH1 0x64 ADD PUSH2 0xEE1 JUMP JUMPDEST PUSH2 0x1C18 CALLER DUP4 PUSH2 0x4228 JUMP JUMPDEST PUSH2 0x1C37 CALLER DUP4 DUP4 PUSH1 0x18 PUSH1 0x0 DUP7 DUP2 MSTORE PUSH1 0x20 ADD SWAP1 DUP2 MSTORE PUSH1 0x20 ADD PUSH1 0x0 KECCAK256 SLOAD PUSH2 0x454A JUMP JUMPDEST ADDRESS PUSH1 0x0 SWAP1 DUP2 MSTORE PUSH1 0x13 PUSH1 0x20 MSTORE PUSH1 0x40 SWAP1 KECCAK256 SLOAD PUSH2 0x1C51 SWAP1 DUP4 PUSH2 0x30B8 JUMP JUMPDEST ADDRESS PUSH1 0x0 SWAP1 DUP2 MSTORE PUSH1 0x13 PUSH1 0x20 MSTORE PUSH1 0x40 SWAP1 KECCAK256 SSTORE POP POP JUMP JUMPDEST PUSH2 0x1C6D PUSH2 0x343B JUMP JUMPDEST PUSH1 0x24 PUSH1 0x0 SWAP1 SLOAD SWAP1 PUSH2 0x100 EXP SWAP1 DIV PUSH1 0x1 PUSH1 0x1 PUSH1 0xA0 SHL SUB AND PUSH1 0x1 PUSH1 0x1 PUSH1 0xA0 SHL SUB AND PUSH4 0x38AF3EED PUSH1 0x40 MLOAD DUP2 PUSH4 0xFFFFFFFF AND PUSH1 0xE0 SHL DUP2 MSTORE PUSH1 0x4 ADD PUSH1 0x20 PUSH1 0x40 MLOAD DUP1 DUP4 SUB DUP2 DUP7 GAS STATICCALL ISZERO DUP1 ISZERO PUSH2 0x1CC0 JUMPI RETURNDATASIZE PUSH1 0x0 DUP1 RETURNDATACOPY RETURNDATASIZE PUSH1 0x0 REVERT JUMPDEST POP POP POP POP PUSH1 0x40 MLOAD RETURNDATASIZE PUSH1 0x1F NOT PUSH1 0x1F DUP3 ADD AND DUP3 ADD DUP1 PUSH1 0x40 MSTORE POP DUP2 ADD SWAP1 PUSH2 0x1CE4 SWAP2 SWAP1 PUSH2 0x59BA JUMP JUMPDEST PUSH2 0x1CED DUP2 PUSH2 0x3498 JUMP JUMPDEST PUSH1 0x24 SLOAD PUSH1 0x0 SWAP1 PUSH1 0x1 PUSH1 0x1 PUSH1 0xA0 SHL SUB AND PUSH4 0xA95606E PUSH2 0x1330 PUSH2 0x34F0 JUMP JUMPDEST PUSH2 0x1D1F PUSH2 0x1D15 CALLER PUSH2 0x473F JUMP JUMPDEST PUSH1 0x13 PUSH1 0x0 CALLER PUSH2 0x139B JUMP JUMPDEST CALLER PUSH1 0x0 SWAP1 DUP2 MSTORE PUSH1 0x13 PUSH1 0x20 MSTORE PUSH1 0x40 SWAP1 KECCAK256 SSTORE JUMP JUMPDEST PUSH2 0x1D39 PUSH2 0x343B JUMP JUMPDEST PUSH1 0x26 PUSH1 0x0 SWAP1 SLOAD SWAP1 PUSH2 0x100 EXP SWAP1 DIV PUSH1 0x1 PUSH1 0x1 PUSH1 0xA0 SHL SUB AND PUSH1 0x1 PUSH1 0x1 PUSH1 0xA0 SHL SUB AND PUSH4 0x38AF3EED PUSH1 0x40 MLOAD DUP2 PUSH4 0xFFFFFFFF AND PUSH1 0xE0 SHL DUP2 MSTORE PUSH1 0x4 ADD PUSH1 0x20 PUSH1 0x40 MLOAD DUP1 DUP4 SUB DUP2 DUP7 GAS STATICCALL ISZERO DUP1 ISZERO PUSH2 0x1D8C JUMPI RETURNDATASIZE PUSH1 0x0 DUP1 RETURNDATACOPY RETURNDATASIZE PUSH1 0x0 REVERT JUMPDEST POP POP POP POP PUSH1 0x40 MLOAD RETURNDATASIZE PUSH1 0x1F NOT PUSH1 0x1F DUP3 ADD AND DUP3 ADD DUP1 PUSH1 0x40 MSTORE POP DUP2 ADD SWAP1 PUSH2 0x1DB0 SWAP2 SWAP1 PUSH2 0x59BA JUMP JUMPDEST PUSH2 0x1DB9 DUP2 PUSH2 0x3498 JUMP JUMPDEST PUSH1 0x26 SLOAD PUSH1 0x0 SWAP1 PUSH1 0x1 PUSH1 0x1 PUSH1 0xA0 SHL SUB AND PUSH4 0xA95606E PUSH2 0x1330 PUSH2 0x393B JUMP JUMPDEST PUSH2 0x1DDD PUSH2 0x343B JUMP JUMPDEST PUSH1 0x28 PUSH1 0x0 SWAP1 SLOAD SWAP1 PUSH2 0x100 EXP SWAP1 DIV PUSH1 0x1 PUSH1 0x1 PUSH1 0xA0 SHL SUB AND PUSH1 0x1 PUSH1 0x1 PUSH1 0xA0 SHL SUB AND PUSH4 0x38AF3EED PUSH1 0x40 MLOAD DUP2 PUSH4 0xFFFFFFFF AND PUSH1 0xE0 SHL DUP2 MSTORE PUSH1 0x4 ADD PUSH1 0x20 PUSH1 0x40 MLOAD DUP1 DUP4 SUB DUP2 DUP7 GAS STATICCALL ISZERO DUP1 ISZERO PUSH2 0x1E30 JUMPI RETURNDATASIZE PUSH1 0x0 DUP1 RETURNDATACOPY RETURNDATASIZE PUSH1 0x0 REVERT JUMPDEST POP POP POP POP PUSH1 0x40 MLOAD RETURNDATASIZE PUSH1 0x1F NOT PUSH1 0x1F DUP3 ADD AND DUP3 ADD DUP1 PUSH1 0x40 MSTORE POP DUP2 ADD SWAP1 PUSH2 0x1E54 SWAP2 SWAP1 PUSH2 0x59BA JUMP JUMPDEST PUSH2 0x1E5D DUP2 PUSH2 0x3498 JUMP JUMPDEST PUSH1 0x28 SLOAD PUSH1 0x0 SWAP1 PUSH1 0x1 PUSH1 0x1 PUSH1 0xA0 SHL SUB AND PUSH4 0xA95606E PUSH2 0x1330 PUSH2 0x393B JUMP JUMPDEST PUSH1 0x5 SLOAD PUSH1 0x1 PUSH1 0x1 PUSH1 0xA0 SHL SUB AND CALLER EQ PUSH2 0x1EC1 JUMPI PUSH1 0x40 MLOAD PUSH3 0x461BCD PUSH1 0xE5 SHL DUP2 MSTORE PUSH1 0x20 PUSH1 0x4 DUP3 ADD DUP2 SWAP1 MSTORE PUSH1 0x24 DUP3 ADD MSTORE PUSH1 0x0 DUP1 MLOAD PUSH1 0x20 PUSH2 0x5A7A DUP4 CODECOPY DUP2 MLOAD SWAP2 MSTORE PUSH1 0x44 DUP3 ADD MSTORE PUSH1 0x64 ADD PUSH2 0xEE1 JUMP JUMPDEST ADDRESS PUSH1 0x0 SWAP1 DUP2 MSTORE PUSH1 0x13 PUSH1 0x20 MSTORE PUSH1 0x40 SWAP1 KECCAK256 SLOAD PUSH2 0x1EDB SWAP1 DUP3 PUSH2 0x32D6 JUMP JUMPDEST ADDRESS PUSH1 0x0 SWAP1 DUP2 MSTORE PUSH1 0x13 PUSH1 0x20 MSTORE PUSH1 0x40 SWAP1 KECCAK256 SSTORE PUSH1 0x15 SLOAD PUSH2 0x1EF8 SWAP1 DUP3 PUSH2 0x32D6 JUMP JUMPDEST PUSH1 0x15 SSTORE PUSH1 0x40 MLOAD DUP2 DUP2 MSTORE PUSH1 0x0 SWAP1 ADDRESS SWAP1 PUSH32 0xDDF252AD1BE2C89B69C2B068FC378DAA952BA7F163C4A11628F55A4DF523B3EF SWAP1 PUSH1 0x20 ADD PUSH2 0x1281 JUMP JUMPDEST PUSH1 0x5 SLOAD PUSH1 0x1 PUSH1 0x1 PUSH1 0xA0 SHL SUB AND CALLER EQ PUSH2 0x1F78 JUMPI PUSH1 0x40 MLOAD PUSH3 0x461BCD PUSH1 0xE5 SHL DUP2 MSTORE PUSH1 0x20 PUSH1 0x4 DUP3 ADD DUP2 SWAP1 MSTORE PUSH1 0x24 DUP3 ADD MSTORE PUSH1 0x0 DUP1 MLOAD PUSH1 0x20 PUSH2 0x5A7A DUP4 CODECOPY DUP2 MLOAD SWAP2 MSTORE PUSH1 0x44 DUP3 ADD MSTORE PUSH1 0x64 ADD PUSH2 0xEE1 JUMP JUMPDEST PUSH2 0x1F81 DUP2 PUSH2 0x4899 JUMP JUMPDEST PUSH1 0x40 MLOAD DUP2 DUP2 MSTORE CALLER SWAP1 PUSH32 0xE4D1041AB63832A18AE323C0781239637B799CCD1FFA03B0CC4C0916F14834D7 SWAP1 PUSH1 0x20 ADD PUSH2 0x17B5 JUMP JUMPDEST PUSH1 0x5 SLOAD PUSH1 0x1 PUSH1 0x1 PUSH1 0xA0 SHL SUB AND CALLER EQ PUSH2 0x1FFB JUMPI PUSH1 0x40 MLOAD PUSH3 0x461BCD PUSH1 0xE5 SHL DUP2 MSTORE PUSH1 0x20 PUSH1 0x4 DUP3 ADD DUP2 SWAP1 MSTORE PUSH1 0x24 DUP3 ADD MSTORE PUSH1 0x0 DUP1 MLOAD PUSH1 0x20 PUSH2 0x5A7A DUP4 CODECOPY DUP2 MLOAD SWAP2 MSTORE PUSH1 0x44 DUP3 ADD MSTORE PUSH1 0x64 ADD PUSH2 0xEE1 JUMP JUMPDEST PUSH1 0x0 PUSH2 0x2005 PUSH2 0x494B JUMP JUMPDEST SWAP1 POP PUSH1 0x1 DUP2 ISZERO ISZERO EQ ISZERO PUSH2 0x205F JUMPI PUSH1 0x1B SLOAD PUSH2 0x201F SWAP1 DUP4 PUSH2 0x32D6 JUMP JUMPDEST PUSH1 0x1B SSTORE PUSH1 0x1 PUSH1 0x1 PUSH1 0xA0 SHL SUB DUP4 AND PUSH1 0x0 SWAP1 DUP2 MSTORE PUSH1 0x13 PUSH1 0x20 MSTORE PUSH1 0x40 SWAP1 KECCAK256 SLOAD PUSH2 0x2045 SWAP1 DUP4 PUSH2 0x30B8 JUMP JUMPDEST PUSH1 0x1 PUSH1 0x1 PUSH1 0xA0 SHL SUB DUP5 AND PUSH1 0x0 SWAP1 DUP2 MSTORE PUSH1 0x13 PUSH1 0x20 MSTORE PUSH1 0x40 SWAP1 KECCAK256 SSTORE JUMPDEST PUSH2 0x2067 PUSH2 0x49E5 JUMP JUMPDEST POP POP POP JUMP JUMPDEST PUSH2 0x2074 PUSH2 0x343B JUMP JUMPDEST PUSH1 0x2A PUSH1 0x0 SWAP1 SLOAD SWAP1 PUSH2 0x100 EXP SWAP1 DIV PUSH1 0x1 PUSH1 0x1 PUSH1 0xA0 SHL SUB AND PUSH1 0x1 PUSH1 0x1 PUSH1 0xA0 SHL SUB AND PUSH4 0x38AF3EED PUSH1 0x40 MLOAD DUP2 PUSH4 0xFFFFFFFF AND PUSH1 0xE0 SHL DUP2 MSTORE PUSH1 0x4 ADD PUSH1 0x20 PUSH1 0x40 MLOAD DUP1 DUP4 SUB DUP2 DUP7 GAS STATICCALL ISZERO DUP1 ISZERO PUSH2 0x20C7 JUMPI RETURNDATASIZE PUSH1 0x0 DUP1 RETURNDATACOPY RETURNDATASIZE PUSH1 0x0 REVERT JUMPDEST POP POP POP POP PUSH1 0x40 MLOAD RETURNDATASIZE PUSH1 0x1F NOT PUSH1 0x1F DUP3 ADD AND DUP3 ADD DUP1 PUSH1 0x40 MSTORE POP DUP2 ADD SWAP1 PUSH2 0x20EB SWAP2 SWAP1 PUSH2 0x59BA JUMP JUMPDEST PUSH2 0x20F4 DUP2 PUSH2 0x3498 JUMP JUMPDEST PUSH1 0x2A SLOAD PUSH1 0x0 SWAP1 PUSH1 0x1 PUSH1 0x1 PUSH1 0xA0 SHL SUB AND PUSH4 0xA95606E PUSH2 0x1330 PUSH2 0x3CF1 JUMP JUMPDEST PUSH2 0x2118 PUSH2 0x343B JUMP JUMPDEST PUSH1 0x22 PUSH1 0x0 SWAP1 SLOAD SWAP1 PUSH2 0x100 EXP SWAP1 DIV PUSH1 0x1 PUSH1 0x1 PUSH1 0xA0 SHL SUB AND PUSH1 0x1 PUSH1 0x1 PUSH1 0xA0 SHL SUB AND PUSH4 0x38AF3EED PUSH1 0x40 MLOAD DUP2 PUSH4 0xFFFFFFFF AND PUSH1 0xE0 SHL DUP2 MSTORE PUSH1 0x4 ADD PUSH1 0x20 PUSH1 0x40 MLOAD DUP1 DUP4 SUB DUP2 DUP7 GAS STATICCALL ISZERO DUP1 ISZERO PUSH2 0x216B JUMPI RETURNDATASIZE PUSH1 0x0 DUP1 RETURNDATACOPY RETURNDATASIZE PUSH1 0x0 REVERT JUMPDEST POP POP POP POP PUSH1 0x40 MLOAD RETURNDATASIZE PUSH1 0x1F NOT PUSH1 0x1F DUP3 ADD AND DUP3 ADD DUP1 PUSH1 0x40 MSTORE POP DUP2 ADD SWAP1 PUSH2 0x218F SWAP2 SWAP1 PUSH2 0x59BA JUMP JUMPDEST PUSH2 0x2198 DUP2 PUSH2 0x3498 JUMP JUMPDEST PUSH1 0x22 SLOAD PUSH1 0x0 SWAP1 PUSH1 0x1 PUSH1 0x1 PUSH1 0xA0 SHL SUB AND PUSH4 0xA95606E PUSH2 0x1330 PUSH2 0x49F9 JUMP JUMPDEST PUSH1 0x60 PUSH1 0x17 DUP1 SLOAD PUSH2 0xDF6 SWAP1 PUSH2 0x5909 JUMP JUMPDEST PUSH1 0x5 SLOAD PUSH1 0x1 PUSH1 0x1 PUSH1 0xA0 SHL SUB AND CALLER EQ PUSH2 0x220B JUMPI PUSH1 0x40 MLOAD PUSH3 0x461BCD PUSH1 0xE5 SHL DUP2 MSTORE PUSH1 0x20 PUSH1 0x4 DUP3 ADD DUP2 SWAP1 MSTORE PUSH1 0x24 DUP3 ADD MSTORE PUSH1 0x0 DUP1 MLOAD PUSH1 0x20 PUSH2 0x5A7A DUP4 CODECOPY DUP2 MLOAD SWAP2 MSTORE PUSH1 0x44 DUP3 ADD MSTORE PUSH1 0x64 ADD PUSH2 0xEE1 JUMP JUMPDEST PUSH1 0x1C SLOAD PUSH3 0x10000 SWAP1 DIV PUSH1 0xFF AND ISZERO DUP1 ISZERO PUSH2 0x222E JUMPI POP PUSH1 0x1C SLOAD PUSH4 0x1000000 SWAP1 DIV PUSH1 0xFF AND ISZERO JUMPDEST PUSH2 0x227A JUMPI PUSH1 0x40 MLOAD PUSH3 0x461BCD PUSH1 0xE5 SHL DUP2 MSTORE PUSH1 0x20 PUSH1 0x4 DUP3 ADD MSTORE PUSH1 0x15 PUSH1 0x24 DUP3 ADD MSTORE PUSH32 0x4E6F7468696E6720746F20696E697469616C697A650000000000000000000000 PUSH1 0x44 DUP3 ADD MSTORE PUSH1 0x64 ADD PUSH2 0xEE1 JUMP JUMPDEST PUSH1 0x1C DUP1 SLOAD PUSH3 0xFF0000 NOT AND PUSH3 0x10000 OR SWAP1 SSTORE PUSH1 0x22 SLOAD PUSH1 0x40 DUP1 MLOAD PUSH32 0xC8CCA41E00000000000000000000000000000000000000000000000000000000 DUP2 MSTORE SWAP1 MLOAD PUSH1 0x1 PUSH1 0x1 PUSH1 0xA0 SHL SUB SWAP1 SWAP3 AND SWAP2 PUSH4 0xC8CCA41E SWAP2 PUSH1 0x4 DUP1 DUP3 ADD SWAP3 PUSH1 0x0 SWAP3 SWAP1 SWAP2 SWAP1 DUP3 SWAP1 SUB ADD DUP2 DUP4 DUP8 DUP1 EXTCODESIZE ISZERO DUP1 ISZERO PUSH2 0x22EA JUMPI PUSH1 0x0 DUP1 REVERT JUMPDEST POP GAS CALL ISZERO DUP1 ISZERO PUSH2 0x22FE JUMPI RETURNDATASIZE PUSH1 0x0 DUP1 RETURNDATACOPY RETURNDATASIZE PUSH1 0x0 REVERT JUMPDEST POP POP POP POP PUSH1 0x23 PUSH1 0x0 SWAP1 SLOAD SWAP1 PUSH2 0x100 EXP SWAP1 DIV PUSH1 0x1 PUSH1 0x1 PUSH1 0xA0 SHL SUB AND PUSH1 0x1 PUSH1 0x1 PUSH1 0xA0 SHL SUB AND PUSH4 0xC8CCA41E PUSH1 0x40 MLOAD DUP2 PUSH4 0xFFFFFFFF AND PUSH1 0xE0 SHL DUP2 MSTORE PUSH1 0x4 ADD PUSH1 0x0 PUSH1 0x40 MLOAD DUP1 DUP4 SUB DUP2 PUSH1 0x0 DUP8 DUP1 EXTCODESIZE ISZERO DUP1 ISZERO PUSH2 0x2352 JUMPI PUSH1 0x0 DUP1 REVERT JUMPDEST POP GAS CALL ISZERO DUP1 ISZERO PUSH2 0x2366 JUMPI RETURNDATASIZE PUSH1 0x0 DUP1 RETURNDATACOPY RETURNDATASIZE PUSH1 0x0 REVERT JUMPDEST POP POP POP POP PUSH1 0x24 PUSH1 0x0 SWAP1 SLOAD SWAP1 PUSH2 0x100 EXP SWAP1 DIV PUSH1 0x1 PUSH1 0x1 PUSH1 0xA0 SHL SUB AND PUSH1 0x1 PUSH1 0x1 PUSH1 0xA0 SHL SUB AND PUSH4 0xC8CCA41E PUSH1 0x40 MLOAD DUP2 PUSH4 0xFFFFFFFF AND PUSH1 0xE0 SHL DUP2 MSTORE PUSH1 0x4 ADD PUSH1 0x0 PUSH1 0x40 MLOAD DUP1 DUP4 SUB DUP2 PUSH1 0x0 DUP8 DUP1 EXTCODESIZE ISZERO DUP1 ISZERO PUSH2 0x23BA JUMPI PUSH1 0x0 DUP1 REVERT JUMPDEST POP GAS CALL ISZERO DUP1 ISZERO PUSH2 0x23CE JUMPI RETURNDATASIZE PUSH1 0x0 DUP1 RETURNDATACOPY RETURNDATASIZE PUSH1 0x0 REVERT JUMPDEST POP POP POP POP PUSH1 0x25 PUSH1 0x0 SWAP1 SLOAD SWAP1 PUSH2 0x100 EXP SWAP1 DIV PUSH1 0x1 PUSH1 0x1 PUSH1 0xA0 SHL SUB AND PUSH1 0x1 PUSH1 0x1 PUSH1 0xA0 SHL SUB AND PUSH4 0xC8CCA41E PUSH1 0x40 MLOAD DUP2 PUSH4 0xFFFFFFFF AND PUSH1 0xE0 SHL DUP2 MSTORE PUSH1 0x4 ADD PUSH1 0x0 PUSH1 0x40 MLOAD DUP1 DUP4 SUB DUP2 PUSH1 0x0 DUP8 DUP1 EXTCODESIZE ISZERO DUP1 ISZERO PUSH2 0x2422 JUMPI PUSH1 0x0 DUP1 REVERT JUMPDEST POP GAS CALL ISZERO DUP1 ISZERO PUSH2 0x2436 JUMPI RETURNDATASIZE PUSH1 0x0 DUP1 RETURNDATACOPY RETURNDATASIZE PUSH1 0x0 REVERT JUMPDEST POP POP POP POP PUSH1 0x26 PUSH1 0x0 SWAP1 SLOAD SWAP1 PUSH2 0x100 EXP SWAP1 DIV PUSH1 0x1 PUSH1 0x1 PUSH1 0xA0 SHL SUB AND PUSH1 0x1 PUSH1 0x1 PUSH1 0xA0 SHL SUB AND PUSH4 0xC8CCA41E PUSH1 0x40 MLOAD DUP2 PUSH4 0xFFFFFFFF AND PUSH1 0xE0 SHL DUP2 MSTORE PUSH1 0x4 ADD PUSH1 0x0 PUSH1 0x40 MLOAD DUP1 DUP4 SUB DUP2 PUSH1 0x0 DUP8 DUP1 EXTCODESIZE ISZERO DUP1 ISZERO PUSH2 0x248A JUMPI PUSH1 0x0 DUP1 REVERT JUMPDEST POP GAS CALL ISZERO DUP1 ISZERO PUSH2 0x249E JUMPI RETURNDATASIZE PUSH1 0x0 DUP1 RETURNDATACOPY RETURNDATASIZE PUSH1 0x0 REVERT JUMPDEST POP POP POP POP PUSH1 0x27 PUSH1 0x0 SWAP1 SLOAD SWAP1 PUSH2 0x100 EXP SWAP1 DIV PUSH1 0x1 PUSH1 0x1 PUSH1 0xA0 SHL SUB AND PUSH1 0x1 PUSH1 0x1 PUSH1 0xA0 SHL SUB AND PUSH4 0xC8CCA41E PUSH1 0x40 MLOAD DUP2 PUSH4 0xFFFFFFFF AND PUSH1 0xE0 SHL DUP2 MSTORE PUSH1 0x4 ADD PUSH1 0x0 PUSH1 0x40 MLOAD DUP1 DUP4 SUB DUP2 PUSH1 0x0 DUP8 DUP1 EXTCODESIZE ISZERO DUP1 ISZERO PUSH2 0x24F2 JUMPI PUSH1 0x0 DUP1 REVERT JUMPDEST POP GAS CALL ISZERO DUP1 ISZERO PUSH2 0x2506 JUMPI RETURNDATASIZE PUSH1 0x0 DUP1 RETURNDATACOPY RETURNDATASIZE PUSH1 0x0 REVERT JUMPDEST POP POP POP POP PUSH1 0x28 PUSH1 0x0 SWAP1 SLOAD SWAP1 PUSH2 0x100 EXP SWAP1 DIV PUSH1 0x1 PUSH1 0x1 PUSH1 0xA0 SHL SUB AND PUSH1 0x1 PUSH1 0x1 PUSH1 0xA0 SHL SUB AND PUSH4 0xC8CCA41E PUSH1 0x40 MLOAD DUP2 PUSH4 0xFFFFFFFF AND PUSH1 0xE0 SHL DUP2 MSTORE PUSH1 0x4 ADD PUSH1 0x0 PUSH1 0x40 MLOAD DUP1 DUP4 SUB DUP2 PUSH1 0x0 DUP8 DUP1 EXTCODESIZE ISZERO DUP1 ISZERO PUSH2 0x255A JUMPI PUSH1 0x0 DUP1 REVERT JUMPDEST POP GAS CALL ISZERO DUP1 ISZERO PUSH2 0x256E JUMPI RETURNDATASIZE PUSH1 0x0 DUP1 RETURNDATACOPY RETURNDATASIZE PUSH1 0x0 REVERT JUMPDEST POP POP POP POP PUSH1 0x29 PUSH1 0x0 SWAP1 SLOAD SWAP1 PUSH2 0x100 EXP SWAP1 DIV PUSH1 0x1 PUSH1 0x1 PUSH1 0xA0 SHL SUB AND PUSH1 0x1 PUSH1 0x1 PUSH1 0xA0 SHL SUB AND PUSH4 0xC8CCA41E PUSH1 0x40 MLOAD DUP2 PUSH4 0xFFFFFFFF AND PUSH1 0xE0 SHL DUP2 MSTORE PUSH1 0x4 ADD PUSH1 0x0 PUSH1 0x40 MLOAD DUP1 DUP4 SUB DUP2 PUSH1 0x0 DUP8 DUP1 EXTCODESIZE ISZERO DUP1 ISZERO PUSH2 0x25C2 JUMPI PUSH1 0x0 DUP1 REVERT JUMPDEST POP GAS CALL ISZERO DUP1 ISZERO PUSH2 0x25D6 JUMPI RETURNDATASIZE PUSH1 0x0 DUP1 RETURNDATACOPY RETURNDATASIZE PUSH1 0x0 REVERT JUMPDEST POP POP POP POP PUSH1 0x2A PUSH1 0x0 SWAP1 SLOAD SWAP1 PUSH2 0x100 EXP SWAP1 DIV PUSH1 0x1 PUSH1 0x1 PUSH1 0xA0 SHL SUB AND PUSH1 0x1 PUSH1 0x1 PUSH1 0xA0 SHL SUB AND PUSH4 0xC8CCA41E PUSH1 0x40 MLOAD DUP2 PUSH4 0xFFFFFFFF AND PUSH1 0xE0 SHL DUP2 MSTORE PUSH1 0x4 ADD PUSH1 0x0 PUSH1 0x40 MLOAD DUP1 DUP4 SUB DUP2 PUSH1 0x0 DUP8 DUP1 EXTCODESIZE ISZERO DUP1 ISZERO PUSH2 0x262A JUMPI PUSH1 0x0 DUP1 REVERT JUMPDEST POP GAS CALL ISZERO DUP1 ISZERO PUSH2 0x263E JUMPI RETURNDATASIZE PUSH1 0x0 DUP1 RETURNDATACOPY RETURNDATASIZE PUSH1 0x0 REVERT JUMPDEST POP POP POP POP PUSH1 0x2B PUSH1 0x0 SWAP1 SLOAD SWAP1 PUSH2 0x100 EXP SWAP1 DIV PUSH1 0x1 PUSH1 0x1 PUSH1 0xA0 SHL SUB AND PUSH1 0x1 PUSH1 0x1 PUSH1 0xA0 SHL SUB AND PUSH4 0xC8CCA41E PUSH1 0x40 MLOAD DUP2 PUSH4 0xFFFFFFFF AND PUSH1 0xE0 SHL DUP2 MSTORE PUSH1 0x4 ADD PUSH1 0x0 PUSH1 0x40 MLOAD DUP1 DUP4 SUB DUP2 PUSH1 0x0 DUP8 DUP1 EXTCODESIZE ISZERO DUP1 ISZERO PUSH2 0x2692 JUMPI PUSH1 0x0 DUP1 REVERT JUMPDEST POP GAS CALL ISZERO DUP1 ISZERO PUSH2 0x26A6 JUMPI RETURNDATASIZE PUSH1 0x0 DUP1 RETURNDATACOPY RETURNDATASIZE PUSH1 0x0 REVERT JUMPDEST POP POP POP POP PUSH2 0x26B1 CALLER SWAP1 JUMP JUMPDEST PUSH1 0x1 PUSH1 0x1 PUSH1 0xA0 SHL SUB AND PUSH32 0x72E04AFC383D9AB428814E808CD65ABB27C66B5FA85CC230B4CDA3E36B436C98 PUSH1 0x40 MLOAD PUSH1 0x40 MLOAD DUP1 SWAP2 SUB SWAP1 LOG2 PUSH1 0x1C DUP1 SLOAD PUSH4 0xFF000000 NOT AND PUSH4 0x1000000 OR SWAP1 SSTORE PUSH2 0x2702 TIMESTAMP PUSH1 0x11 SSTORE JUMP JUMPDEST PUSH1 0x40 MLOAD CALLER SWAP1 PUSH32 0x166F0287F5E28D35EC474DA4C920A3E6F47F0D7C8833B963DD8367F68DD377CD SWAP1 PUSH1 0x0 SWAP1 LOG2 PUSH1 0x1C DUP1 SLOAD PUSH2 0xFF00 NOT AND PUSH2 0x100 OR SWAP1 SSTORE PUSH2 0x2745 TIMESTAMP PUSH1 0x8 SSTORE JUMP JUMPDEST PUSH1 0x1C SLOAD PUSH1 0x40 MLOAD PUSH2 0x100 SWAP1 SWAP2 DIV PUSH1 0xFF AND ISZERO ISZERO DUP2 MSTORE CALLER SWAP1 PUSH32 0xE596A4FD4BA2E7F54093D98B96267C6B0DBAE1E317BED8123D9FBC868C028377 SWAP1 PUSH1 0x20 ADD PUSH1 0x40 MLOAD DUP1 SWAP2 SUB SWAP1 LOG2 JUMP JUMPDEST PUSH1 0x5 SLOAD PUSH1 0x1 PUSH1 0x1 PUSH1 0xA0 SHL SUB AND CALLER EQ PUSH2 0x27D1 JUMPI PUSH1 0x40 MLOAD PUSH3 0x461BCD PUSH1 0xE5 SHL DUP2 MSTORE PUSH1 0x20 PUSH1 0x4 DUP3 ADD DUP2 SWAP1 MSTORE PUSH1 0x24 DUP3 ADD MSTORE PUSH1 0x0 DUP1 MLOAD PUSH1 0x20 PUSH2 0x5A7A DUP4 CODECOPY DUP2 MLOAD SWAP2 MSTORE PUSH1 0x44 DUP3 ADD MSTORE PUSH1 0x64 ADD PUSH2 0xEE1 JUMP JUMPDEST PUSH2 0x16D7 DUP2 PUSH2 0x4D95 JUMP JUMPDEST PUSH1 0x5 SLOAD PUSH1 0x1 PUSH1 0x1 PUSH1 0xA0 SHL SUB AND CALLER EQ PUSH2 0x2822 JUMPI PUSH1 0x40 MLOAD PUSH3 0x461BCD PUSH1 0xE5 SHL DUP2 MSTORE PUSH1 0x20 PUSH1 0x4 DUP3 ADD DUP2 SWAP1 MSTORE PUSH1 0x24 DUP3 ADD MSTORE PUSH1 0x0 DUP1 MLOAD PUSH1 0x20 PUSH2 0x5A7A DUP4 CODECOPY DUP2 MLOAD SWAP2 MSTORE PUSH1 0x44 DUP3 ADD MSTORE PUSH1 0x64 ADD PUSH2 0xEE1 JUMP JUMPDEST PUSH1 0x1C SLOAD PUSH1 0x0 SWAP1 PUSH4 0x1000000 SWAP1 DIV PUSH1 0xFF AND ISZERO ISZERO PUSH1 0x1 EQ PUSH2 0x2883 JUMPI PUSH1 0x40 MLOAD PUSH3 0x461BCD PUSH1 0xE5 SHL DUP2 MSTORE PUSH1 0x20 PUSH1 0x4 DUP3 ADD MSTORE PUSH1 0x1C PUSH1 0x24 DUP3 ADD MSTORE PUSH32 0x507269766174652053616C65206E6F7420796574207374617274656400000000 PUSH1 0x44 DUP3 ADD MSTORE PUSH1 0x64 ADD PUSH2 0xEE1 JUMP JUMPDEST DUP2 PUSH2 0x28D0 JUMPI PUSH1 0x40 MLOAD PUSH3 0x461BCD PUSH1 0xE5 SHL DUP2 MSTORE PUSH1 0x20 PUSH1 0x4 DUP3 ADD MSTORE PUSH1 0x11 PUSH1 0x24 DUP3 ADD MSTORE PUSH32 0x4E6F7468696E6720746F2064656C657465000000000000000000000000000000 PUSH1 0x44 DUP3 ADD MSTORE PUSH1 0x64 ADD PUSH2 0xEE1 JUMP JUMPDEST PUSH1 0x0 JUMPDEST DUP3 DUP2 LT ISZERO PUSH2 0x2993 JUMPI PUSH1 0x0 PUSH2 0x290C DUP6 DUP6 DUP5 DUP2 DUP2 LT PUSH2 0x28F2 JUMPI PUSH2 0x28F2 PUSH2 0x5971 JUMP JUMPDEST SWAP1 POP PUSH1 0x20 MUL ADD PUSH1 0x20 DUP2 ADD SWAP1 PUSH2 0x2907 SWAP2 SWAP1 PUSH2 0x57E3 JUMP JUMPDEST PUSH2 0x4DEA JUMP JUMPDEST SWAP1 POP PUSH2 0x2918 DUP2 DUP5 PUSH2 0x5987 JUMP JUMPDEST SWAP3 POP DUP5 DUP5 DUP4 DUP2 DUP2 LT PUSH2 0x292C JUMPI PUSH2 0x292C PUSH2 0x5971 JUMP JUMPDEST SWAP1 POP PUSH1 0x20 MUL ADD PUSH1 0x20 DUP2 ADD SWAP1 PUSH2 0x2941 SWAP2 SWAP1 PUSH2 0x57E3 JUMP JUMPDEST PUSH1 0x1 PUSH1 0x1 PUSH1 0xA0 SHL SUB AND CALLER PUSH1 0x1 PUSH1 0x1 PUSH1 0xA0 SHL SUB AND PUSH32 0x946ED2F29C189BB6F4744C09F637BDA38011CABC8D1433BB26DDAD258B9E82D6 PUSH1 0x40 MLOAD PUSH1 0x40 MLOAD DUP1 SWAP2 SUB SWAP1 LOG3 POP DUP1 PUSH2 0x298B DUP2 PUSH2 0x599F JUMP JUMPDEST SWAP2 POP POP PUSH2 0x28D3 JUMP JUMPDEST POP PUSH1 0x1A SLOAD PUSH2 0x11C8 SWAP1 DUP3 PUSH2 0x30B8 JUMP JUMPDEST PUSH1 0x5 SLOAD PUSH1 0x1 PUSH1 0x1 PUSH1 0xA0 SHL SUB AND CALLER EQ PUSH2 0x29E9 JUMPI PUSH1 0x40 MLOAD PUSH3 0x461BCD PUSH1 0xE5 SHL DUP2 MSTORE PUSH1 0x20 PUSH1 0x4 DUP3 ADD DUP2 SWAP1 MSTORE PUSH1 0x24 DUP3 ADD MSTORE PUSH1 0x0 DUP1 MLOAD PUSH1 0x20 PUSH2 0x5A7A DUP4 CODECOPY DUP2 MLOAD SWAP2 MSTORE PUSH1 0x44 DUP3 ADD MSTORE PUSH1 0x64 ADD PUSH2 0xEE1 JUMP JUMPDEST PUSH1 0x1E DUP1 SLOAD PUSH1 0x1 PUSH1 0x1 PUSH1 0xA0 SHL SUB NOT AND PUSH1 0x1 PUSH1 0x1 PUSH1 0xA0 SHL SUB DUP4 AND SWAP1 DUP2 OR SWAP1 SWAP2 SSTORE PUSH1 0x40 MLOAD PUSH32 0xC35CEA67BC4CAF96CC47A71099D4192A65D36AB490D26EBF55825C0700815F61 SWAP1 PUSH1 0x0 SWAP1 LOG2 POP JUMP JUMPDEST CALLER PUSH1 0x0 DUP2 DUP2 MSTORE PUSH1 0x14 PUSH1 0x20 SWAP1 DUP2 MSTORE PUSH1 0x40 DUP1 DUP4 KECCAK256 PUSH1 0x1 PUSH1 0x1 PUSH1 0xA0 SHL SUB DUP8 AND DUP5 MSTORE SWAP1 SWAP2 MSTORE DUP2 KECCAK256 SLOAD SWAP1 SWAP2 SWAP1 DUP4 DUP2 LT ISZERO PUSH2 0x2AD0 JUMPI PUSH1 0x40 MLOAD PUSH3 0x461BCD PUSH1 0xE5 SHL DUP2 MSTORE PUSH1 0x20 PUSH1 0x4 DUP3 ADD MSTORE PUSH1 0x25 PUSH1 0x24 DUP3 ADD MSTORE PUSH32 0x45524332303A2064656372656173656420616C6C6F77616E63652062656C6F77 PUSH1 0x44 DUP3 ADD MSTORE PUSH32 0x207A65726F000000000000000000000000000000000000000000000000000000 PUSH1 0x64 DUP3 ADD MSTORE PUSH1 0x84 ADD PUSH2 0xEE1 JUMP JUMPDEST PUSH2 0x1589 DUP3 DUP7 DUP7 DUP5 SUB PUSH2 0x32E2 JUMP JUMPDEST PUSH1 0x0 PUSH1 0x1 PUSH1 0x1 PUSH1 0xA0 SHL SUB DUP3 AND PUSH2 0x2B35 JUMPI PUSH1 0x40 MLOAD PUSH3 0x461BCD PUSH1 0xE5 SHL DUP2 MSTORE PUSH1 0x20 PUSH1 0x4 DUP3 ADD MSTORE PUSH1 0xF PUSH1 0x24 DUP3 ADD MSTORE PUSH32 0x496E76616C696420616464726573730000000000000000000000000000000000 PUSH1 0x44 DUP3 ADD MSTORE PUSH1 0x64 ADD PUSH2 0xEE1 JUMP JUMPDEST POP PUSH1 0x1 PUSH1 0x1 PUSH1 0xA0 SHL SUB AND PUSH1 0x0 SWAP1 DUP2 MSTORE PUSH1 0xC PUSH1 0x20 MSTORE PUSH1 0x40 SWAP1 KECCAK256 SLOAD PUSH1 0xFF AND SWAP1 JUMP JUMPDEST PUSH1 0x0 CALLER PUSH2 0x11DE DUP2 DUP6 DUP6 PUSH2 0x3A8D JUMP JUMPDEST PUSH1 0x0 DUP1 PUSH2 0x2B6E CALLER PUSH2 0x4F01 JUMP JUMPDEST SWAP2 POP SWAP2 POP PUSH2 0x2B7B DUP2 PUSH2 0x2789 JUMP JUMPDEST ADDRESS PUSH1 0x0 SWAP1 DUP2 MSTORE PUSH1 0x13 PUSH1 0x20 MSTORE PUSH1 0x40 SWAP1 KECCAK256 SLOAD PUSH2 0x2B95 SWAP1 DUP4 PUSH2 0x32D6 JUMP JUMPDEST ADDRESS PUSH1 0x0 SWAP1 DUP2 MSTORE PUSH1 0x13 PUSH1 0x20 MSTORE PUSH1 0x40 SWAP1 KECCAK256 SSTORE PUSH1 0x19 SLOAD PUSH2 0x2BB2 SWAP1 DUP3 PUSH2 0x32D6 JUMP JUMPDEST PUSH1 0x19 SSTORE PUSH2 0x2BCB PUSH2 0x2BC2 DUP3 DUP5 PUSH2 0x5987 JUMP JUMPDEST PUSH1 0x15 SLOAD SWAP1 PUSH2 0x30B8 JUMP JUMPDEST PUSH1 0x15 SSTORE PUSH2 0x13BB PUSH2 0x1D15 DUP3 DUP5 PUSH2 0x5987 JUMP JUMPDEST PUSH1 0x0 PUSH1 0x8 SLOAD PUSH1 0x0 EQ PUSH2 0x2C08 JUMPI PUSH3 0x93A80 PUSH1 0x8 SLOAD TIMESTAMP PUSH2 0x2BF9 SWAP2 SWAP1 PUSH2 0x595A JUMP JUMPDEST PUSH2 0x2C03 SWAP2 SWAP1 PUSH2 0x5A38 JUMP JUMPDEST SWAP1 POP SWAP1 JUMP JUMPDEST POP PUSH1 0x0 SWAP1 JUMP JUMPDEST PUSH1 0x5 SLOAD PUSH1 0x1 PUSH1 0x1 PUSH1 0xA0 SHL SUB AND CALLER EQ PUSH2 0x2C56 JUMPI PUSH1 0x40 MLOAD PUSH3 0x461BCD PUSH1 0xE5 SHL DUP2 MSTORE PUSH1 0x20 PUSH1 0x4 DUP3 ADD DUP2 SWAP1 MSTORE PUSH1 0x24 DUP3 ADD MSTORE PUSH1 0x0 DUP1 MLOAD PUSH1 0x20 PUSH2 0x5A7A DUP4 CODECOPY DUP2 MLOAD SWAP2 MSTORE PUSH1 0x44 DUP3 ADD MSTORE PUSH1 0x64 ADD PUSH2 0xEE1 JUMP JUMPDEST PUSH2 0x2C5F DUP2 PUSH2 0x5096 JUMP JUMPDEST PUSH1 0x40 MLOAD DUP2 DUP2 MSTORE CALLER SWAP1 PUSH32 0x31BBDC307CB7AFAB9B265EE4C47F5FEB19D8A8702A67C0B695DF02E0D4C55B5F SWAP1 PUSH1 0x20 ADD PUSH2 0x17B5 JUMP JUMPDEST PUSH1 0x5 SLOAD PUSH1 0x1 PUSH1 0x1 PUSH1 0xA0 SHL SUB AND CALLER EQ PUSH2 0x2CD9 JUMPI PUSH1 0x40 MLOAD PUSH3 0x461BCD PUSH1 0xE5 SHL DUP2 MSTORE PUSH1 0x20 PUSH1 0x4 DUP3 ADD DUP2 SWAP1 MSTORE PUSH1 0x24 DUP3 ADD MSTORE PUSH1 0x0 DUP1 MLOAD PUSH1 0x20 PUSH2 0x5A7A DUP4 CODECOPY DUP2 MLOAD SWAP2 MSTORE PUSH1 0x44 DUP3 ADD MSTORE PUSH1 0x64 ADD PUSH2 0xEE1 JUMP JUMPDEST ADDRESS PUSH1 0x0 SWAP1 DUP2 MSTORE PUSH1 0x13 PUSH1 0x20 MSTORE PUSH1 0x40 SWAP1 KECCAK256 SLOAD PUSH2 0x2CF3 SWAP1 DUP3 PUSH2 0x30B8 JUMP JUMPDEST ADDRESS PUSH1 0x0 SWAP1 DUP2 MSTORE PUSH1 0x13 PUSH1 0x20 MSTORE PUSH1 0x40 SWAP1 KECCAK256 SSTORE PUSH1 0x15 SLOAD PUSH2 0x2D10 SWAP1 DUP3 PUSH2 0x30B8 JUMP JUMPDEST PUSH1 0x15 SSTORE PUSH1 0x40 MLOAD DUP2 DUP2 MSTORE ADDRESS SWAP1 PUSH1 0x0 SWAP1 PUSH32 0xDDF252AD1BE2C89B69C2B068FC378DAA952BA7F163C4A11628F55A4DF523B3EF SWAP1 PUSH1 0x20 ADD PUSH2 0x1281 JUMP JUMPDEST PUSH2 0x2D50 PUSH2 0x55D5 JUMP JUMPDEST PUSH1 0x1 PUSH1 0x1 PUSH1 0xA0 SHL SUB DUP1 DUP4 AND PUSH1 0x0 SWAP1 DUP2 MSTORE PUSH1 0xE PUSH1 0x20 SWAP1 DUP2 MSTORE PUSH1 0x40 DUP1 DUP4 KECCAK256 DUP2 MLOAD PUSH2 0x140 DUP2 ADD DUP4 MSTORE DUP2 SLOAD DUP7 AND PUSH1 0x60 DUP1 DUP4 ADD SWAP2 DUP3 MSTORE PUSH1 0x1 DUP5 ADD SLOAD PUSH1 0x80 DUP5 ADD MSTORE PUSH1 0x2 DUP5 ADD SLOAD PUSH1 0xA0 DUP5 ADD MSTORE PUSH1 0x3 DUP5 ADD SLOAD PUSH1 0xC0 DUP5 ADD MSTORE PUSH1 0x4 DUP5 ADD SLOAD PUSH1 0xE0 DUP5 ADD MSTORE PUSH1 0x5 DUP5 ADD SLOAD PUSH2 0x100 DUP5 ADD MSTORE PUSH1 0x6 DUP5 ADD SLOAD PUSH2 0x120 DUP5 ADD MSTORE SWAP1 DUP3 MSTORE PUSH1 0x7 DUP4 ADD SLOAD SWAP1 SWAP7 AND DUP2 DUP6 ADD MSTORE PUSH1 0x8 SWAP1 SWAP2 ADD SLOAD DUP2 DUP4 ADD MSTORE DUP2 MLOAD SWAP5 DUP6 ADD DUP3 MSTORE DUP4 DUP6 MSTORE DUP5 DUP4 ADD SWAP4 SWAP1 SWAP4 MSTORE DUP3 MLOAD SWAP1 DUP5 ADD DUP2 SWAP1 MSTORE ADD MLOAD SWAP1 SWAP2 SWAP1 PUSH2 0x2E42 JUMPI PUSH1 0x40 MLOAD PUSH3 0x461BCD PUSH1 0xE5 SHL DUP2 MSTORE PUSH1 0x20 PUSH1 0x4 DUP3 ADD MSTORE PUSH1 0xE PUSH1 0x24 DUP3 ADD MSTORE PUSH32 0x4E6F207374616B6520666F756E64000000000000000000000000000000000000 PUSH1 0x44 DUP3 ADD MSTORE PUSH1 0x64 ADD PUSH2 0xEE1 JUMP JUMPDEST PUSH1 0x0 PUSH2 0x2E51 DUP3 PUSH1 0x40 ADD MLOAD PUSH2 0x5142 JUMP JUMPDEST SWAP1 POP PUSH1 0x0 TIMESTAMP DUP4 PUSH1 0x40 ADD MLOAD PUSH1 0xC0 ADD MLOAD GT ISZERO PUSH2 0x2E8E JUMPI PUSH1 0x0 DUP1 PUSH2 0x2E7A DUP6 PUSH1 0x40 ADD MLOAD PUSH1 0x20 ADD MLOAD DUP6 PUSH2 0x51A0 JUMP JUMPDEST SWAP1 SWAP3 POP SWAP1 POP PUSH2 0x2E89 DUP2 DUP4 PUSH2 0x5987 JUMP JUMPDEST SWAP3 POP POP POP JUMPDEST PUSH1 0x0 PUSH2 0x2E9D DUP6 PUSH1 0x40 ADD MLOAD PUSH2 0x51D5 JUMP JUMPDEST GT ISZERO PUSH2 0x2EC5 JUMPI PUSH1 0x0 PUSH2 0x2EB6 DUP5 PUSH1 0x40 ADD MLOAD PUSH1 0x20 ADD MLOAD PUSH2 0x51EE JUMP JUMPDEST PUSH1 0x40 DUP6 ADD MLOAD PUSH1 0x80 ADD MSTORE POP PUSH2 0x2ED3 JUMP JUMPDEST PUSH1 0x40 DUP4 ADD MLOAD PUSH1 0x0 PUSH1 0x80 SWAP1 SWAP2 ADD MSTORE JUMPDEST PUSH1 0x40 DUP4 ADD DUP1 MLOAD PUSH1 0x60 ADD SWAP3 SWAP1 SWAP3 MSTORE PUSH1 0x20 DUP1 DUP5 ADD SWAP2 SWAP1 SWAP2 MSTORE SWAP1 MLOAD ADD MLOAD DUP2 MSTORE SWAP4 SWAP3 POP POP POP JUMP JUMPDEST PUSH1 0x5 SLOAD PUSH1 0x1 PUSH1 0x1 PUSH1 0xA0 SHL SUB AND CALLER EQ PUSH2 0x2F3E JUMPI PUSH1 0x40 MLOAD PUSH3 0x461BCD PUSH1 0xE5 SHL DUP2 MSTORE PUSH1 0x20 PUSH1 0x4 DUP3 ADD DUP2 SWAP1 MSTORE PUSH1 0x24 DUP3 ADD MSTORE PUSH1 0x0 DUP1 MLOAD PUSH1 0x20 PUSH2 0x5A7A DUP4 CODECOPY DUP2 MLOAD SWAP2 MSTORE PUSH1 0x44 DUP3 ADD MSTORE PUSH1 0x64 ADD PUSH2 0xEE1 JUMP JUMPDEST PUSH1 0x1F DUP1 SLOAD PUSH1 0x1 PUSH1 0x1 PUSH1 0xA0 SHL SUB NOT SWAP1 DUP2 AND PUSH1 0x1 PUSH1 0x1 PUSH1 0xA0 SHL SUB DUP7 DUP2 AND SWAP2 DUP3 OR SWAP1 SWAP4 SSTORE PUSH1 0x20 DUP1 SLOAD DUP4 AND DUP7 DUP6 AND SWAP1 DUP2 OR SWAP1 SWAP2 SSTORE PUSH1 0x21 DUP1 SLOAD SWAP1 SWAP4 AND SWAP4 DUP6 AND SWAP4 DUP5 OR SWAP1 SWAP3 SSTORE PUSH1 0x40 MLOAD PUSH32 0x6C2B82DA20E0F724ACB9C915394D71B33D74C77790C60004585726C2414879A3 SWAP1 PUSH1 0x0 SWAP1 LOG4 POP POP POP JUMP JUMPDEST PUSH1 0x5 SLOAD PUSH1 0x1 PUSH1 0x1 PUSH1 0xA0 SHL SUB AND CALLER EQ PUSH2 0x2FF4 JUMPI PUSH1 0x40 MLOAD PUSH3 0x461BCD PUSH1 0xE5 SHL DUP2 MSTORE PUSH1 0x20 PUSH1 0x4 DUP3 ADD DUP2 SWAP1 MSTORE PUSH1 0x24 DUP3 ADD MSTORE PUSH1 0x0 DUP1 MLOAD PUSH1 0x20 PUSH2 0x5A7A DUP4 CODECOPY DUP2 MLOAD SWAP2 MSTORE PUSH1 0x44 DUP3 ADD MSTORE PUSH1 0x64 ADD PUSH2 0xEE1 JUMP JUMPDEST PUSH1 0x1 PUSH1 0x1 PUSH1 0xA0 SHL SUB DUP2 AND PUSH2 0x3070 JUMPI PUSH1 0x40 MLOAD PUSH3 0x461BCD PUSH1 0xE5 SHL DUP2 MSTORE PUSH1 0x20 PUSH1 0x4 DUP3 ADD MSTORE PUSH1 0x26 PUSH1 0x24 DUP3 ADD MSTORE PUSH32 0x4F776E61626C653A206E6577206F776E657220697320746865207A65726F2061 PUSH1 0x44 DUP3 ADD MSTORE PUSH32 0x6464726573730000000000000000000000000000000000000000000000000000 PUSH1 0x64 DUP3 ADD MSTORE PUSH1 0x84 ADD PUSH2 0xEE1 JUMP JUMPDEST PUSH2 0x16D7 DUP2 PUSH2 0x44F8 JUMP JUMPDEST PUSH1 0x0 DUP2 DUP5 DUP5 GT ISZERO PUSH2 0x309D JUMPI PUSH1 0x40 MLOAD PUSH3 0x461BCD PUSH1 0xE5 SHL DUP2 MSTORE PUSH1 0x4 ADD PUSH2 0xEE1 SWAP2 SWAP1 PUSH2 0x565B JUMP JUMPDEST POP POP POP SWAP1 SUB SWAP1 JUMP JUMPDEST PUSH1 0x0 PUSH2 0x30B1 DUP3 DUP5 PUSH2 0x5A38 JUMP JUMPDEST SWAP4 SWAP3 POP POP POP JUMP JUMPDEST PUSH1 0x0 PUSH2 0x30B1 DUP3 DUP5 PUSH2 0x5987 JUMP JUMPDEST PUSH1 0x9 SLOAD PUSH1 0xFF AND PUSH2 0x1AD9 JUMPI PUSH1 0x40 MLOAD PUSH3 0x461BCD PUSH1 0xE5 SHL DUP2 MSTORE PUSH1 0x20 PUSH1 0x4 DUP3 ADD MSTORE PUSH1 0x17 PUSH1 0x24 DUP3 ADD MSTORE PUSH32 0x566F74696E67206973206E6F7420617661696C61626C65000000000000000000 PUSH1 0x44 DUP3 ADD MSTORE PUSH1 0x64 ADD PUSH2 0xEE1 JUMP JUMPDEST DUP1 PUSH2 0x16D7 JUMPI PUSH1 0x40 MLOAD PUSH3 0x461BCD PUSH1 0xE5 SHL DUP2 MSTORE PUSH1 0x20 PUSH1 0x4 DUP3 ADD MSTORE PUSH1 0x15 PUSH1 0x24 DUP3 ADD MSTORE PUSH32 0x416D6F756E742063616E6E6F74206265207A65726F0000000000000000000000 PUSH1 0x44 DUP3 ADD MSTORE PUSH1 0x64 ADD PUSH2 0xEE1 JUMP JUMPDEST PUSH1 0x10 SLOAD DUP2 GT ISZERO PUSH2 0x31DB JUMPI PUSH1 0x40 MLOAD PUSH3 0x461BCD PUSH1 0xE5 SHL DUP2 MSTORE PUSH1 0x20 PUSH1 0x4 DUP3 ADD MSTORE PUSH1 0x31 PUSH1 0x24 DUP3 ADD MSTORE PUSH32 0x5072697661746553616C653A206E6F7420656E6F7567682062616C616E636520 PUSH1 0x44 DUP3 ADD MSTORE PUSH32 0x746F206164642061206E65772075736572000000000000000000000000000000 PUSH1 0x64 DUP3 ADD MSTORE PUSH1 0x84 ADD PUSH2 0xEE1 JUMP JUMPDEST PUSH1 0x1 PUSH1 0x1 PUSH1 0xA0 SHL SUB DUP3 AND PUSH1 0x0 SWAP1 DUP2 MSTORE PUSH1 0x12 PUSH1 0x20 MSTORE PUSH1 0x40 SWAP1 KECCAK256 PUSH1 0x1 ADD SLOAD ISZERO PUSH2 0x326A JUMPI PUSH1 0x40 MLOAD PUSH3 0x461BCD PUSH1 0xE5 SHL DUP2 MSTORE PUSH1 0x20 PUSH1 0x4 DUP3 ADD MSTORE PUSH1 0x29 PUSH1 0x24 DUP3 ADD MSTORE PUSH32 0x5072697661746553616C653A2054686973207573657220616C72656164792072 PUSH1 0x44 DUP3 ADD MSTORE PUSH32 0x6567697374657265640000000000000000000000000000000000000000000000 PUSH1 0x64 DUP3 ADD MSTORE PUSH1 0x84 ADD PUSH2 0xEE1 JUMP JUMPDEST PUSH1 0x1 PUSH1 0x1 PUSH1 0xA0 SHL SUB DUP3 AND PUSH1 0x0 SWAP1 DUP2 MSTORE PUSH1 0x12 PUSH1 0x20 MSTORE PUSH1 0x40 DUP2 KECCAK256 DUP3 DUP2 SSTORE PUSH1 0x1 DUP1 DUP3 ADD DUP5 SWAP1 SSTORE PUSH1 0x2 DUP3 ADD DUP1 SLOAD PUSH1 0xFF NOT AND SWAP1 SSTORE PUSH1 0x3 SWAP1 SWAP2 ADD DUP2 SWAP1 SSTORE PUSH1 0xF DUP1 SLOAD SWAP2 SWAP3 SWAP1 SWAP2 PUSH2 0x32B4 SWAP1 DUP5 SWAP1 PUSH2 0x5987 JUMP JUMPDEST SWAP3 POP POP DUP2 SWAP1 SSTORE POP DUP1 PUSH1 0x10 PUSH1 0x0 DUP3 DUP3 SLOAD PUSH2 0x32CD SWAP2 SWAP1 PUSH2 0x595A JUMP JUMPDEST SWAP1 SWAP2 SSTORE POP POP POP POP JUMP JUMPDEST PUSH1 0x0 PUSH2 0x30B1 DUP3 DUP5 PUSH2 0x595A JUMP JUMPDEST PUSH1 0x1 PUSH1 0x1 PUSH1 0xA0 SHL SUB DUP4 AND PUSH2 0x335D JUMPI PUSH1 0x40 MLOAD PUSH3 0x461BCD PUSH1 0xE5 SHL DUP2 MSTORE PUSH1 0x20 PUSH1 0x4 DUP3 ADD MSTORE PUSH1 0x24 DUP1 DUP3 ADD MSTORE PUSH32 0x45524332303A20617070726F76652066726F6D20746865207A65726F20616464 PUSH1 0x44 DUP3 ADD MSTORE PUSH32 0x7265737300000000000000000000000000000000000000000000000000000000 PUSH1 0x64 DUP3 ADD MSTORE PUSH1 0x84 ADD PUSH2 0xEE1 JUMP JUMPDEST PUSH1 0x1 PUSH1 0x1 PUSH1 0xA0 SHL SUB DUP3 AND PUSH2 0x33D9 JUMPI PUSH1 0x40 MLOAD PUSH3 0x461BCD PUSH1 0xE5 SHL DUP2 MSTORE PUSH1 0x20 PUSH1 0x4 DUP3 ADD MSTORE PUSH1 0x22 PUSH1 0x24 DUP3 ADD MSTORE PUSH32 0x45524332303A20617070726F766520746F20746865207A65726F206164647265 PUSH1 0x44 DUP3 ADD MSTORE PUSH32 0x7373000000000000000000000000000000000000000000000000000000000000 PUSH1 0x64 DUP3 ADD MSTORE PUSH1 0x84 ADD PUSH2 0xEE1 JUMP JUMPDEST PUSH1 0x1 PUSH1 0x1 PUSH1 0xA0 SHL SUB DUP4 DUP2 AND PUSH1 0x0 DUP2 DUP2 MSTORE PUSH1 0x14 PUSH1 0x20 SWAP1 DUP2 MSTORE PUSH1 0x40 DUP1 DUP4 KECCAK256 SWAP5 DUP8 AND DUP1 DUP5 MSTORE SWAP5 DUP3 MSTORE SWAP2 DUP3 SWAP1 KECCAK256 DUP6 SWAP1 SSTORE SWAP1 MLOAD DUP5 DUP2 MSTORE PUSH32 0x8C5BE1E5EBEC7D5BD14F71427D1E84F3DD0314C0F7B2291E5B200AC8C7C3B925 SWAP2 ADD JUMPDEST PUSH1 0x40 MLOAD DUP1 SWAP2 SUB SWAP1 LOG3 POP POP POP JUMP JUMPDEST PUSH1 0x1C SLOAD PUSH3 0x10000 SWAP1 DIV PUSH1 0xFF AND ISZERO ISZERO PUSH1 0x1 EQ PUSH2 0x1AD9 JUMPI PUSH1 0x40 MLOAD PUSH3 0x461BCD PUSH1 0xE5 SHL DUP2 MSTORE PUSH1 0x20 PUSH1 0x4 DUP3 ADD MSTORE PUSH1 0x1D PUSH1 0x24 DUP3 ADD MSTORE PUSH32 0x4C6F636B65642057616C6C6574206E6F74207965742073746172746564000000 PUSH1 0x44 DUP3 ADD MSTORE PUSH1 0x64 ADD PUSH2 0xEE1 JUMP JUMPDEST CALLER PUSH1 0x1 PUSH1 0x1 PUSH1 0xA0 SHL SUB DUP3 AND EQ PUSH2 0x16D7 JUMPI PUSH1 0x40 MLOAD PUSH3 0x461BCD PUSH1 0xE5 SHL DUP2 MSTORE PUSH1 0x20 PUSH1 0x4 DUP3 ADD MSTORE PUSH1 0x11 PUSH1 0x24 DUP3 ADD MSTORE PUSH32 0x57616C6C6574206F776E6572206F6E6C79000000000000000000000000000000 PUSH1 0x44 DUP3 ADD MSTORE PUSH1 0x64 ADD PUSH2 0xEE1 JUMP JUMPDEST PUSH2 0x34F8 PUSH2 0x563C JUMP JUMPDEST PUSH1 0x40 MLOAD DUP1 PUSH2 0x660 ADD PUSH1 0x40 MSTORE DUP1 PUSH2 0x351A PUSH4 0x1908B10 PUSH8 0xDE0B6B3A7640000 PUSH2 0x5210 JUMP JUMPDEST DUP2 MSTORE PUSH1 0x20 ADD PUSH1 0x0 DUP2 MSTORE PUSH1 0x20 ADD PUSH1 0x0 DUP2 MSTORE PUSH1 0x20 ADD PUSH1 0x0 DUP2 MSTORE PUSH1 0x20 ADD PUSH1 0x0 DUP2 MSTORE PUSH1 0x20 ADD PUSH1 0x0 DUP2 MSTORE PUSH1 0x20 ADD PUSH1 0x0 DUP2 MSTORE PUSH1 0x20 ADD PUSH1 0x0 DUP2 MSTORE PUSH1 0x20 ADD PUSH1 0x0 DUP2 MSTORE PUSH1 0x20 ADD PUSH1 0x0 DUP2 MSTORE PUSH1 0x20 ADD PUSH1 0x0 DUP2 MSTORE PUSH1 0x20 ADD PUSH1 0x0 DUP2 MSTORE PUSH1 0x20 ADD PUSH1 0x0 DUP2 MSTORE PUSH1 0x20 ADD PUSH1 0x0 DUP2 MSTORE PUSH1 0x20 ADD PUSH1 0x0 DUP2 MSTORE PUSH1 0x20 ADD PUSH1 0x0 DUP2 MSTORE PUSH1 0x20 ADD PUSH2 0x359E PUSH4 0x1B1EBFC PUSH8 0xDE0B6B3A7640000 PUSH2 0x5210 JUMP JUMPDEST DUP2 MSTORE PUSH1 0x20 ADD PUSH2 0x35B9 PUSH4 0x1B1EBFC PUSH8 0xDE0B6B3A7640000 PUSH2 0x5210 JUMP JUMPDEST DUP2 MSTORE PUSH1 0x20 ADD PUSH2 0x35D4 PUSH4 0x1B1EBFC PUSH8 0xDE0B6B3A7640000 PUSH2 0x5210 JUMP JUMPDEST DUP2 MSTORE PUSH1 0x20 ADD PUSH2 0x35EF PUSH4 0x1B1EBFC PUSH8 0xDE0B6B3A7640000 PUSH2 0x5210 JUMP JUMPDEST DUP2 MSTORE PUSH1 0x20 ADD PUSH2 0x360A PUSH4 0x1B1EBFC PUSH8 0xDE0B6B3A7640000 PUSH2 0x5210 JUMP JUMPDEST DUP2 MSTORE PUSH1 0x20 ADD PUSH2 0x3625 PUSH4 0x1B1EBFC PUSH8 0xDE0B6B3A7640000 PUSH2 0x5210 JUMP JUMPDEST DUP2 MSTORE PUSH1 0x20 ADD PUSH2 0x3640 PUSH4 0x1B1EBFC PUSH8 0xDE0B6B3A7640000 PUSH2 0x5210 JUMP JUMPDEST DUP2 MSTORE PUSH1 0x20 ADD PUSH2 0x365B PUSH4 0x1B1EBFC PUSH8 0xDE0B6B3A7640000 PUSH2 0x5210 JUMP JUMPDEST DUP2 MSTORE PUSH1 0x20 ADD PUSH2 0x3676 PUSH4 0x1B1EBFC PUSH8 0xDE0B6B3A7640000 PUSH2 0x5210 JUMP JUMPDEST DUP2 MSTORE PUSH1 0x20 ADD PUSH2 0x3691 PUSH4 0x1B1EBFC PUSH8 0xDE0B6B3A7640000 PUSH2 0x5210 JUMP JUMPDEST DUP2 MSTORE PUSH1 0x20 ADD PUSH2 0x36AC PUSH4 0x1B1EBFC PUSH8 0xDE0B6B3A7640000 PUSH2 0x5210 JUMP JUMPDEST DUP2 MSTORE PUSH1 0x20 ADD PUSH2 0x36C7 PUSH4 0x1B1EBFC PUSH8 0xDE0B6B3A7640000 PUSH2 0x5210 JUMP JUMPDEST DUP2 MSTORE PUSH1 0x20 ADD PUSH2 0x36E2 PUSH4 0x1B1EBFC PUSH8 0xDE0B6B3A7640000 PUSH2 0x5210 JUMP JUMPDEST DUP2 MSTORE PUSH1 0x20 ADD PUSH2 0x36FD PUSH4 0x1B1EBFC PUSH8 0xDE0B6B3A7640000 PUSH2 0x5210 JUMP JUMPDEST DUP2 MSTORE PUSH1 0x20 ADD PUSH2 0x3718 PUSH4 0x1B1EBFC PUSH8 0xDE0B6B3A7640000 PUSH2 0x5210 JUMP JUMPDEST DUP2 MSTORE PUSH1 0x20 ADD PUSH2 0x3733 PUSH4 0x1B1EBFC PUSH8 0xDE0B6B3A7640000 PUSH2 0x5210 JUMP JUMPDEST DUP2 MSTORE PUSH1 0x20 ADD PUSH2 0x374E PUSH4 0x1B1EBFC PUSH8 0xDE0B6B3A7640000 PUSH2 0x5210 JUMP JUMPDEST DUP2 MSTORE PUSH1 0x20 ADD PUSH2 0x3769 PUSH4 0x1B1EBFC PUSH8 0xDE0B6B3A7640000 PUSH2 0x5210 JUMP JUMPDEST DUP2 MSTORE PUSH1 0x20 ADD PUSH2 0x3784 PUSH4 0x1B1EBFC PUSH8 0xDE0B6B3A7640000 PUSH2 0x5210 JUMP JUMPDEST DUP2 MSTORE PUSH1 0x20 ADD PUSH2 0x379F PUSH4 0x1B1EBFC PUSH8 0xDE0B6B3A7640000 PUSH2 0x5210 JUMP JUMPDEST DUP2 MSTORE PUSH1 0x20 ADD PUSH2 0x37BA PUSH4 0x1B1EBFC PUSH8 0xDE0B6B3A7640000 PUSH2 0x5210 JUMP JUMPDEST DUP2 MSTORE PUSH1 0x20 ADD PUSH2 0x37D5 PUSH4 0x1B1EBFC PUSH8 0xDE0B6B3A7640000 PUSH2 0x5210 JUMP JUMPDEST DUP2 MSTORE PUSH1 0x20 ADD PUSH2 0x37F0 PUSH4 0x1B1EBFC PUSH8 0xDE0B6B3A7640000 PUSH2 0x5210 JUMP JUMPDEST DUP2 MSTORE PUSH1 0x20 ADD PUSH2 0x380B PUSH4 0x1B1EBFC PUSH8 0xDE0B6B3A7640000 PUSH2 0x5210 JUMP JUMPDEST DUP2 MSTORE PUSH1 0x20 ADD PUSH2 0x3826 PUSH4 0x1B1EBFC PUSH8 0xDE0B6B3A7640000 PUSH2 0x5210 JUMP JUMPDEST DUP2 MSTORE PUSH1 0x20 ADD PUSH2 0x3841 PUSH4 0x1B1EBFC PUSH8 0xDE0B6B3A7640000 PUSH2 0x5210 JUMP JUMPDEST DUP2 MSTORE PUSH1 0x20 ADD PUSH2 0x385C PUSH4 0x1B1EBFC PUSH8 0xDE0B6B3A7640000 PUSH2 0x5210 JUMP JUMPDEST DUP2 MSTORE PUSH1 0x20 ADD PUSH2 0x3877 PUSH4 0x1B1EBFC PUSH8 0xDE0B6B3A7640000 PUSH2 0x5210 JUMP JUMPDEST DUP2 MSTORE PUSH1 0x20 ADD PUSH2 0x3892 PUSH4 0x1B1EBFC PUSH8 0xDE0B6B3A7640000 PUSH2 0x5210 JUMP JUMPDEST DUP2 MSTORE PUSH1 0x20 ADD PUSH2 0x38AD PUSH4 0x1B1EBFC PUSH8 0xDE0B6B3A7640000 PUSH2 0x5210 JUMP JUMPDEST DUP2 MSTORE PUSH1 0x20 ADD PUSH2 0x38C8 PUSH4 0x1B1EBFC PUSH8 0xDE0B6B3A7640000 PUSH2 0x5210 JUMP JUMPDEST DUP2 MSTORE PUSH1 0x20 ADD PUSH2 0x38E3 PUSH4 0x1B1EBFC PUSH8 0xDE0B6B3A7640000 PUSH2 0x5210 JUMP JUMPDEST DUP2 MSTORE PUSH1 0x20 ADD PUSH2 0x38FE PUSH4 0x1B1EBFC PUSH8 0xDE0B6B3A7640000 PUSH2 0x5210 JUMP JUMPDEST DUP2 MSTORE PUSH1 0x20 ADD PUSH2 0x3919 PUSH4 0x1B1EBFC PUSH8 0xDE0B6B3A7640000 PUSH2 0x5210 JUMP JUMPDEST DUP2 MSTORE PUSH1 0x20 ADD PUSH2 0x3934 PUSH4 0x1B1EBFC PUSH8 0xDE0B6B3A7640000 PUSH2 0x5210 JUMP JUMPDEST SWAP1 MSTORE SWAP2 SWAP1 POP JUMP JUMPDEST PUSH2 0x3943 PUSH2 0x563C JUMP JUMPDEST PUSH1 0x40 MLOAD DUP1 PUSH2 0x660 ADD PUSH1 0x40 MSTORE DUP1 PUSH2 0x3964 PUSH3 0xC84588 PUSH8 0xDE0B6B3A7640000 PUSH2 0x5210 JUMP JUMPDEST DUP2 MSTORE PUSH1 0x20 ADD PUSH1 0x0 DUP2 MSTORE PUSH1 0x20 ADD PUSH1 0x0 DUP2 MSTORE PUSH1 0x20 ADD PUSH1 0x0 DUP2 MSTORE PUSH1 0x20 ADD PUSH1 0x0 DUP2 MSTORE PUSH1 0x20 ADD PUSH1 0x0 DUP2 MSTORE PUSH1 0x20 ADD PUSH1 0x0 DUP2 MSTORE PUSH1 0x20 ADD PUSH1 0x0 DUP2 MSTORE PUSH1 0x20 ADD PUSH2 0x39AF PUSH3 0xC84588 PUSH8 0xDE0B6B3A7640000 PUSH2 0x5210 JUMP JUMPDEST DUP2 MSTORE PUSH1 0x20 ADD PUSH1 0x0 DUP2 MSTORE PUSH1 0x20 ADD PUSH1 0x0 DUP2 MSTORE PUSH1 0x20 ADD PUSH1 0x0 DUP2 MSTORE PUSH1 0x20 ADD PUSH1 0x0 DUP2 MSTORE PUSH1 0x20 ADD PUSH1 0x0 DUP2 MSTORE PUSH1 0x20 ADD PUSH1 0x0 DUP2 MSTORE PUSH1 0x20 ADD PUSH1 0x0 DUP2 MSTORE PUSH1 0x20 ADD PUSH2 0x359E PUSH4 0x1B1EBFC PUSH8 0xDE0B6B3A7640000 PUSH2 0x5210 JUMP JUMPDEST PUSH1 0x1 PUSH1 0x1 PUSH1 0xA0 SHL SUB DUP4 DUP2 AND PUSH1 0x0 SWAP1 DUP2 MSTORE PUSH1 0x14 PUSH1 0x20 SWAP1 DUP2 MSTORE PUSH1 0x40 DUP1 DUP4 KECCAK256 SWAP4 DUP7 AND DUP4 MSTORE SWAP3 SWAP1 MSTORE KECCAK256 SLOAD PUSH1 0x0 NOT DUP2 EQ PUSH2 0x3A87 JUMPI DUP2 DUP2 LT ISZERO PUSH2 0x3A7A JUMPI PUSH1 0x40 MLOAD PUSH3 0x461BCD PUSH1 0xE5 SHL DUP2 MSTORE PUSH1 0x20 PUSH1 0x4 DUP3 ADD MSTORE PUSH1 0x1D PUSH1 0x24 DUP3 ADD MSTORE PUSH32 0x45524332303A20696E73756666696369656E7420616C6C6F77616E6365000000 PUSH1 0x44 DUP3 ADD MSTORE PUSH1 0x64 ADD PUSH2 0xEE1 JUMP JUMPDEST PUSH2 0x3A87 DUP5 DUP5 DUP5 DUP5 SUB PUSH2 0x32E2 JUMP JUMPDEST POP POP POP POP JUMP JUMPDEST PUSH1 0x1 PUSH1 0x1 PUSH1 0xA0 SHL SUB DUP4 AND PUSH2 0x3AE3 JUMPI PUSH1 0x40 MLOAD PUSH3 0x461BCD PUSH1 0xE5 SHL DUP2 MSTORE PUSH1 0x20 PUSH1 0x4 DUP3 ADD MSTORE PUSH1 0x1A PUSH1 0x24 DUP3 ADD MSTORE PUSH32 0x5472616E736665722066726F6D207A65726F2061646472657373000000000000 PUSH1 0x44 DUP3 ADD MSTORE PUSH1 0x64 ADD PUSH2 0xEE1 JUMP JUMPDEST PUSH1 0x1 PUSH1 0x1 PUSH1 0xA0 SHL SUB DUP3 AND PUSH2 0x3B39 JUMPI PUSH1 0x40 MLOAD PUSH3 0x461BCD PUSH1 0xE5 SHL DUP2 MSTORE PUSH1 0x20 PUSH1 0x4 DUP3 ADD MSTORE PUSH1 0x18 PUSH1 0x24 DUP3 ADD MSTORE PUSH32 0x5472616E7366657220746F207A65726F20616464726573730000000000000000 PUSH1 0x44 DUP3 ADD MSTORE PUSH1 0x64 ADD PUSH2 0xEE1 JUMP JUMPDEST PUSH1 0x1 PUSH1 0x1 PUSH1 0xA0 SHL SUB DUP4 AND PUSH1 0x0 SWAP1 DUP2 MSTORE PUSH1 0x13 PUSH1 0x20 MSTORE PUSH1 0x40 SWAP1 KECCAK256 SLOAD DUP2 DUP2 LT ISZERO PUSH2 0x3BC8 JUMPI PUSH1 0x40 MLOAD PUSH3 0x461BCD PUSH1 0xE5 SHL DUP2 MSTORE PUSH1 0x20 PUSH1 0x4 DUP3 ADD MSTORE PUSH1 0x26 PUSH1 0x24 DUP3 ADD MSTORE PUSH32 0x45524332303A207472616E7366657220616D6F756E7420657863656564732062 PUSH1 0x44 DUP3 ADD MSTORE PUSH32 0x616C616E63650000000000000000000000000000000000000000000000000000 PUSH1 0x64 DUP3 ADD MSTORE PUSH1 0x84 ADD PUSH2 0xEE1 JUMP JUMPDEST PUSH1 0x1 PUSH1 0x1 PUSH1 0xA0 SHL SUB DUP5 AND PUSH1 0x0 SWAP1 DUP2 MSTORE PUSH1 0x13 PUSH1 0x20 MSTORE PUSH1 0x40 DUP2 KECCAK256 DUP4 DUP4 SUB SWAP1 SSTORE PUSH1 0x1C SLOAD PUSH2 0x3C01 SWAP1 PUSH2 0x3BFA SWAP1 DUP6 SWAP1 PUSH1 0xFF AND PUSH2 0x5210 JUMP JUMPDEST PUSH1 0x64 PUSH2 0x30A5 JUMP JUMPDEST SWAP1 POP PUSH1 0x0 PUSH2 0x3C0F DUP5 DUP4 PUSH2 0x32D6 JUMP JUMPDEST SWAP1 POP PUSH1 0x0 PUSH2 0x3C28 PUSH2 0x3C21 DUP4 PUSH1 0x2 PUSH2 0x5210 JUMP JUMPDEST PUSH1 0xA PUSH2 0x30A5 JUMP JUMPDEST SWAP1 POP PUSH1 0x0 PUSH2 0x3C3A PUSH2 0x3C21 DUP5 PUSH1 0x8 PUSH2 0x5210 JUMP JUMPDEST SWAP1 POP PUSH2 0x3C45 DUP3 PUSH2 0xC75 JUMP JUMPDEST ADDRESS PUSH1 0x0 SWAP1 DUP2 MSTORE PUSH1 0x13 PUSH1 0x20 MSTORE PUSH1 0x40 SWAP1 KECCAK256 SLOAD PUSH2 0x3C5F SWAP1 DUP3 PUSH2 0x30B8 JUMP JUMPDEST ADDRESS PUSH1 0x0 SWAP1 DUP2 MSTORE PUSH1 0x13 PUSH1 0x20 MSTORE PUSH1 0x40 DUP1 DUP3 KECCAK256 SWAP3 SWAP1 SWAP3 SSTORE PUSH1 0x1 PUSH1 0x1 PUSH1 0xA0 SHL SUB DUP10 AND DUP2 MSTORE KECCAK256 SLOAD PUSH2 0x3C8B SWAP1 DUP5 PUSH2 0x30B8 JUMP JUMPDEST PUSH1 0x1 PUSH1 0x1 PUSH1 0xA0 SHL SUB DUP1 DUP10 AND PUSH1 0x0 DUP2 DUP2 MSTORE PUSH1 0x13 PUSH1 0x20 MSTORE PUSH1 0x40 SWAP1 DUP2 SWAP1 KECCAK256 SWAP4 SWAP1 SWAP4 SSTORE SWAP2 MLOAD SWAP1 DUP11 AND SWAP1 PUSH32 0xDDF252AD1BE2C89B69C2B068FC378DAA952BA7F163C4A11628F55A4DF523B3EF SWAP1 PUSH2 0x3CDF SWAP1 DUP8 DUP2 MSTORE PUSH1 0x20 ADD SWAP1 JUMP JUMPDEST PUSH1 0x40 MLOAD DUP1 SWAP2 SUB SWAP1 LOG3 POP POP POP POP POP POP POP POP JUMP JUMPDEST PUSH2 0x3CF9 PUSH2 0x563C JUMP JUMPDEST PUSH1 0x40 MLOAD DUP1 PUSH2 0x660 ADD PUSH1 0x40 MSTORE DUP1 PUSH2 0x3D1B PUSH4 0x1406F40 PUSH8 0xDE0B6B3A7640000 PUSH2 0x5210 JUMP JUMPDEST DUP2 MSTORE PUSH1 0x20 ADD PUSH1 0x0 DUP2 MSTORE PUSH1 0x20 ADD PUSH1 0x0 DUP2 MSTORE PUSH1 0x20 ADD PUSH1 0x0 DUP2 MSTORE PUSH1 0x20 ADD PUSH1 0x0 DUP2 MSTORE PUSH1 0x20 ADD PUSH1 0x0 DUP2 MSTORE PUSH1 0x20 ADD PUSH1 0x0 DUP2 MSTORE PUSH1 0x20 ADD PUSH1 0x0 DUP2 MSTORE PUSH1 0x20 ADD PUSH2 0x3D67 PUSH4 0x1406F40 PUSH8 0xDE0B6B3A7640000 PUSH2 0x5210 JUMP JUMPDEST DUP2 MSTORE PUSH1 0x20 ADD PUSH1 0x0 DUP2 MSTORE PUSH1 0x20 ADD PUSH1 0x0 DUP2 MSTORE PUSH1 0x20 ADD PUSH1 0x0 DUP2 MSTORE PUSH1 0x20 ADD PUSH1 0x0 DUP2 MSTORE PUSH1 0x20 ADD PUSH1 0x0 DUP2 MSTORE PUSH1 0x20 ADD PUSH1 0x0 DUP2 MSTORE PUSH1 0x20 ADD PUSH1 0x0 DUP2 MSTORE PUSH1 0x20 ADD PUSH2 0x3DB3 PUSH4 0x3684B4B PUSH8 0xDE0B6B3A7640000 PUSH2 0x5210 JUMP JUMPDEST DUP2 MSTORE PUSH1 0x20 ADD PUSH2 0x3DCE PUSH4 0x3684B4B PUSH8 0xDE0B6B3A7640000 PUSH2 0x5210 JUMP JUMPDEST DUP2 MSTORE PUSH1 0x20 ADD PUSH2 0x3DE9 PUSH4 0x3684B4B PUSH8 0xDE0B6B3A7640000 PUSH2 0x5210 JUMP JUMPDEST DUP2 MSTORE PUSH1 0x20 ADD PUSH2 0x3E04 PUSH4 0x3684B4B PUSH8 0xDE0B6B3A7640000 PUSH2 0x5210 JUMP JUMPDEST DUP2 MSTORE PUSH1 0x20 ADD PUSH2 0x3E1F PUSH4 0x3684B4B PUSH8 0xDE0B6B3A7640000 PUSH2 0x5210 JUMP JUMPDEST DUP2 MSTORE PUSH1 0x20 ADD PUSH2 0x3E3A PUSH4 0x3684B4B PUSH8 0xDE0B6B3A7640000 PUSH2 0x5210 JUMP JUMPDEST DUP2 MSTORE PUSH1 0x20 ADD PUSH2 0x3E55 PUSH4 0x3684B4B PUSH8 0xDE0B6B3A7640000 PUSH2 0x5210 JUMP JUMPDEST DUP2 MSTORE PUSH1 0x20 ADD PUSH2 0x3E70 PUSH4 0x3684B4B PUSH8 0xDE0B6B3A7640000 PUSH2 0x5210 JUMP JUMPDEST DUP2 MSTORE PUSH1 0x20 ADD PUSH2 0x3E8B PUSH4 0x3684B4B PUSH8 0xDE0B6B3A7640000 PUSH2 0x5210 JUMP JUMPDEST DUP2 MSTORE PUSH1 0x20 ADD PUSH2 0x3EA6 PUSH4 0x3684B4B PUSH8 0xDE0B6B3A7640000 PUSH2 0x5210 JUMP JUMPDEST DUP2 MSTORE PUSH1 0x20 ADD PUSH2 0x3EC1 PUSH4 0x3684B4B PUSH8 0xDE0B6B3A7640000 PUSH2 0x5210 JUMP JUMPDEST DUP2 MSTORE PUSH1 0x20 ADD PUSH2 0x3EDC PUSH4 0x3684B4B PUSH8 0xDE0B6B3A7640000 PUSH2 0x5210 JUMP JUMPDEST DUP2 MSTORE PUSH1 0x20 ADD PUSH2 0x3EF7 PUSH4 0x3684B4B PUSH8 0xDE0B6B3A7640000 PUSH2 0x5210 JUMP JUMPDEST DUP2 MSTORE PUSH1 0x20 ADD PUSH2 0x3F12 PUSH4 0x3684B4B PUSH8 0xDE0B6B3A7640000 PUSH2 0x5210 JUMP JUMPDEST DUP2 MSTORE PUSH1 0x20 ADD PUSH2 0x3F2D PUSH4 0x3684B4B PUSH8 0xDE0B6B3A7640000 PUSH2 0x5210 JUMP JUMPDEST DUP2 MSTORE PUSH1 0x20 ADD PUSH2 0x3F48 PUSH4 0x3684B4B PUSH8 0xDE0B6B3A7640000 PUSH2 0x5210 JUMP JUMPDEST DUP2 MSTORE PUSH1 0x20 ADD PUSH2 0x3F63 PUSH4 0x3684B4B PUSH8 0xDE0B6B3A7640000 PUSH2 0x5210 JUMP JUMPDEST DUP2 MSTORE PUSH1 0x20 ADD PUSH2 0x3F7E PUSH4 0x3684B4B PUSH8 0xDE0B6B3A7640000 PUSH2 0x5210 JUMP JUMPDEST DUP2 MSTORE PUSH1 0x20 ADD PUSH2 0x3F99 PUSH4 0x3684B4B PUSH8 0xDE0B6B3A7640000 PUSH2 0x5210 JUMP JUMPDEST DUP2 MSTORE PUSH1 0x20 ADD PUSH2 0x3FB4 PUSH4 0x3684B4B PUSH8 0xDE0B6B3A7640000 PUSH2 0x5210 JUMP JUMPDEST DUP2 MSTORE PUSH1 0x20 ADD PUSH2 0x3FCF PUSH4 0x3684B4B PUSH8 0xDE0B6B3A7640000 PUSH2 0x5210 JUMP JUMPDEST DUP2 MSTORE PUSH1 0x20 ADD PUSH2 0x3FEA PUSH4 0x3684B4B PUSH8 0xDE0B6B3A7640000 PUSH2 0x5210 JUMP JUMPDEST DUP2 MSTORE PUSH1 0x20 ADD PUSH2 0x4005 PUSH4 0x3684B4B PUSH8 0xDE0B6B3A7640000 PUSH2 0x5210 JUMP JUMPDEST DUP2 MSTORE PUSH1 0x20 ADD PUSH2 0x4020 PUSH4 0x3684B4B PUSH8 0xDE0B6B3A7640000 PUSH2 0x5210 JUMP JUMPDEST DUP2 MSTORE PUSH1 0x20 ADD PUSH2 0x403B PUSH4 0x3684B4B PUSH8 0xDE0B6B3A7640000 PUSH2 0x5210 JUMP JUMPDEST DUP2 MSTORE PUSH1 0x20 ADD PUSH2 0x4056 PUSH4 0x3684B4B PUSH8 0xDE0B6B3A7640000 PUSH2 0x5210 JUMP JUMPDEST DUP2 MSTORE PUSH1 0x20 ADD PUSH2 0x4071 PUSH4 0x3684B4B PUSH8 0xDE0B6B3A7640000 PUSH2 0x5210 JUMP JUMPDEST DUP2 MSTORE PUSH1 0x20 ADD PUSH2 0x408C PUSH4 0x3684B4B PUSH8 0xDE0B6B3A7640000 PUSH2 0x5210 JUMP JUMPDEST DUP2 MSTORE PUSH1 0x20 ADD PUSH2 0x40A7 PUSH4 0x3684B4B PUSH8 0xDE0B6B3A7640000 PUSH2 0x5210 JUMP JUMPDEST DUP2 MSTORE PUSH1 0x20 ADD PUSH2 0x40C2 PUSH4 0x3684B4B PUSH8 0xDE0B6B3A7640000 PUSH2 0x5210 JUMP JUMPDEST DUP2 MSTORE PUSH1 0x20 ADD PUSH2 0x40DD PUSH4 0x3684B4B PUSH8 0xDE0B6B3A7640000 PUSH2 0x5210 JUMP JUMPDEST DUP2 MSTORE PUSH1 0x20 ADD PUSH2 0x40F8 PUSH4 0x3684B4B PUSH8 0xDE0B6B3A7640000 PUSH2 0x5210 JUMP JUMPDEST DUP2 MSTORE PUSH1 0x20 ADD PUSH2 0x4113 PUSH4 0x3684B4B PUSH8 0xDE0B6B3A7640000 PUSH2 0x5210 JUMP JUMPDEST DUP2 MSTORE PUSH1 0x20 ADD PUSH2 0x412E PUSH4 0x3684B4B PUSH8 0xDE0B6B3A7640000 PUSH2 0x5210 JUMP JUMPDEST DUP2 MSTORE PUSH1 0x20 ADD PUSH2 0x3934 PUSH4 0x3684B4B PUSH8 0xDE0B6B3A7640000 PUSH2 0x5210 JUMP JUMPDEST PUSH1 0x1 PUSH1 0x1 PUSH1 0xA0 SHL SUB DUP3 AND PUSH2 0x419F JUMPI PUSH1 0x40 MLOAD PUSH3 0x461BCD PUSH1 0xE5 SHL DUP2 MSTORE PUSH1 0x20 PUSH1 0x4 DUP3 ADD MSTORE PUSH1 0x1F PUSH1 0x24 DUP3 ADD MSTORE PUSH32 0x45524332303A206D696E7420746F20746865207A65726F206164647265737300 PUSH1 0x44 DUP3 ADD MSTORE PUSH1 0x64 ADD PUSH2 0xEE1 JUMP JUMPDEST DUP1 PUSH1 0x2 PUSH1 0x0 DUP3 DUP3 SLOAD PUSH2 0x41B1 SWAP2 SWAP1 PUSH2 0x5987 JUMP JUMPDEST SWAP1 SWAP2 SSTORE POP POP PUSH1 0x1 PUSH1 0x1 PUSH1 0xA0 SHL SUB DUP3 AND PUSH1 0x0 SWAP1 DUP2 MSTORE PUSH1 0x20 DUP2 SWAP1 MSTORE PUSH1 0x40 DUP2 KECCAK256 DUP1 SLOAD DUP4 SWAP3 SWAP1 PUSH2 0x41DE SWAP1 DUP5 SWAP1 PUSH2 0x5987 JUMP JUMPDEST SWAP1 SWAP2 SSTORE POP POP PUSH1 0x40 MLOAD DUP2 DUP2 MSTORE PUSH1 0x1 PUSH1 0x1 PUSH1 0xA0 SHL SUB DUP4 AND SWAP1 PUSH1 0x0 SWAP1 PUSH32 0xDDF252AD1BE2C89B69C2B068FC378DAA952BA7F163C4A11628F55A4DF523B3EF SWAP1 PUSH1 0x20 ADD PUSH1 0x40 MLOAD DUP1 SWAP2 SUB SWAP1 LOG3 POP POP JUMP JUMPDEST PUSH1 0x1 PUSH1 0x1 PUSH1 0xA0 SHL SUB DUP3 AND PUSH2 0x42A4 JUMPI PUSH1 0x40 MLOAD PUSH3 0x461BCD PUSH1 0xE5 SHL DUP2 MSTORE PUSH1 0x20 PUSH1 0x4 DUP3 ADD MSTORE PUSH1 0x21 PUSH1 0x24 DUP3 ADD MSTORE PUSH32 0x45524332303A206275726E2066726F6D20746865207A65726F20616464726573 PUSH1 0x44 DUP3 ADD MSTORE PUSH32 0x7300000000000000000000000000000000000000000000000000000000000000 PUSH1 0x64 DUP3 ADD MSTORE PUSH1 0x84 ADD PUSH2 0xEE1 JUMP JUMPDEST PUSH1 0x1 PUSH1 0x1 PUSH1 0xA0 SHL SUB DUP3 AND PUSH1 0x0 SWAP1 DUP2 MSTORE PUSH1 0x13 PUSH1 0x20 MSTORE PUSH1 0x40 SWAP1 KECCAK256 SLOAD DUP2 DUP2 LT ISZERO PUSH2 0x4333 JUMPI PUSH1 0x40 MLOAD PUSH3 0x461BCD PUSH1 0xE5 SHL DUP2 MSTORE PUSH1 0x20 PUSH1 0x4 DUP3 ADD MSTORE PUSH1 0x22 PUSH1 0x24 DUP3 ADD MSTORE PUSH32 0x45524332303A206275726E20616D6F756E7420657863656564732062616C616E PUSH1 0x44 DUP3 ADD MSTORE PUSH32 0x6365000000000000000000000000000000000000000000000000000000000000 PUSH1 0x64 DUP3 ADD MSTORE PUSH1 0x84 ADD PUSH2 0xEE1 JUMP JUMPDEST PUSH1 0x1 PUSH1 0x1 PUSH1 0xA0 SHL SUB DUP4 AND PUSH1 0x0 SWAP1 DUP2 MSTORE PUSH1 0x13 PUSH1 0x20 MSTORE PUSH1 0x40 DUP2 KECCAK256 DUP4 DUP4 SUB SWAP1 SSTORE PUSH1 0x15 DUP1 SLOAD DUP5 SWAP3 SWAP1 PUSH2 0x4362 SWAP1 DUP5 SWAP1 PUSH2 0x595A JUMP JUMPDEST SWAP1 SWAP2 SSTORE POP POP PUSH1 0x40 MLOAD DUP3 DUP2 MSTORE PUSH1 0x0 SWAP1 PUSH1 0x1 PUSH1 0x1 PUSH1 0xA0 SHL SUB DUP6 AND SWAP1 PUSH32 0xDDF252AD1BE2C89B69C2B068FC378DAA952BA7F163C4A11628F55A4DF523B3EF SWAP1 PUSH1 0x20 ADD PUSH2 0x342E JUMP JUMPDEST PUSH1 0x1 PUSH1 0x1 PUSH1 0xA0 SHL SUB DUP1 DUP3 AND PUSH1 0x0 SWAP1 DUP2 MSTORE PUSH1 0xE PUSH1 0x20 SWAP1 DUP2 MSTORE PUSH1 0x40 DUP1 DUP4 KECCAK256 DUP2 MLOAD PUSH2 0x140 DUP2 ADD DUP4 MSTORE DUP2 SLOAD DUP7 AND PUSH1 0x60 DUP3 ADD SWAP1 DUP2 MSTORE PUSH1 0x1 DUP4 ADD SLOAD PUSH1 0x80 DUP4 ADD DUP2 SWAP1 MSTORE PUSH1 0x2 DUP5 ADD SLOAD PUSH1 0xA0 DUP5 ADD MSTORE PUSH1 0x3 DUP5 ADD SLOAD PUSH1 0xC0 DUP5 ADD MSTORE PUSH1 0x4 DUP5 ADD SLOAD PUSH1 0xE0 DUP5 ADD MSTORE PUSH1 0x5 DUP5 ADD SLOAD PUSH2 0x100 DUP5 ADD MSTORE PUSH1 0x6 DUP5 ADD SLOAD PUSH2 0x120 DUP5 ADD MSTORE SWAP1 DUP3 MSTORE PUSH1 0x7 DUP4 ADD SLOAD SWAP1 SWAP7 AND SWAP4 DUP2 ADD SWAP4 SWAP1 SWAP4 MSTORE PUSH1 0x8 ADD SLOAD SWAP1 DUP3 ADD MSTORE SWAP1 SWAP2 PUSH2 0x447D JUMPI PUSH1 0x40 MLOAD PUSH3 0x461BCD PUSH1 0xE5 SHL DUP2 MSTORE PUSH1 0x20 PUSH1 0x4 DUP3 ADD MSTORE PUSH1 0xE PUSH1 0x24 DUP3 ADD MSTORE PUSH32 0x4E6F207374616B6520666F756E64000000000000000000000000000000000000 PUSH1 0x44 DUP3 ADD MSTORE PUSH1 0x64 ADD PUSH2 0xEE1 JUMP JUMPDEST PUSH1 0x0 PUSH2 0x448C DUP3 PUSH1 0x40 ADD MLOAD PUSH2 0x51D5 JUMP JUMPDEST GT PUSH2 0x44D9 JUMPI PUSH1 0x40 MLOAD PUSH3 0x461BCD PUSH1 0xE5 SHL DUP2 MSTORE PUSH1 0x20 PUSH1 0x4 DUP3 ADD MSTORE PUSH1 0x15 PUSH1 0x24 DUP3 ADD MSTORE PUSH32 0x436C61696D61626C65206F6E63652061207765656B0000000000000000000000 PUSH1 0x44 DUP3 ADD MSTORE PUSH1 0x64 ADD PUSH2 0xEE1 JUMP JUMPDEST DUP1 MLOAD PUSH1 0x0 PUSH1 0x80 SWAP1 SWAP2 ADD MSTORE TIMESTAMP PUSH1 0x40 DUP3 ADD MSTORE DUP1 MLOAD PUSH1 0x20 ADD MLOAD PUSH2 0x30B1 SWAP1 PUSH2 0x51EE JUMP JUMPDEST PUSH1 0x5 DUP1 SLOAD PUSH1 0x1 PUSH1 0x1 PUSH1 0xA0 SHL SUB DUP4 DUP2 AND PUSH1 0x1 PUSH1 0x1 PUSH1 0xA0 SHL SUB NOT DUP4 AND DUP2 OR SWAP1 SWAP4 SSTORE PUSH1 0x40 MLOAD SWAP2 AND SWAP2 SWAP1 DUP3 SWAP1 PUSH32 0x8BE0079C531659141344CD1FD0A4F28419497F9722A3DAAFE3B4186F6B6457E0 SWAP1 PUSH1 0x0 SWAP1 LOG3 POP POP JUMP JUMPDEST PUSH1 0x0 DUP4 GT PUSH2 0x459A JUMPI PUSH1 0x40 MLOAD PUSH3 0x461BCD PUSH1 0xE5 SHL DUP2 MSTORE PUSH1 0x20 PUSH1 0x4 DUP3 ADD MSTORE PUSH1 0x14 PUSH1 0x24 DUP3 ADD MSTORE PUSH32 0x43616E6E6F74207374616B65206E6F7468696E67000000000000000000000000 PUSH1 0x44 DUP3 ADD MSTORE PUSH1 0x64 ADD PUSH2 0xEE1 JUMP JUMPDEST PUSH1 0x1 PUSH1 0x1 PUSH1 0xA0 SHL SUB DUP5 AND PUSH1 0x0 SWAP1 DUP2 MSTORE PUSH1 0xE PUSH1 0x20 MSTORE PUSH1 0x40 SWAP1 KECCAK256 PUSH1 0x1 ADD SLOAD ISZERO PUSH2 0x4603 JUMPI PUSH1 0x40 MLOAD PUSH3 0x461BCD PUSH1 0xE5 SHL DUP2 MSTORE PUSH1 0x20 PUSH1 0x4 DUP3 ADD MSTORE PUSH1 0x10 PUSH1 0x24 DUP3 ADD MSTORE PUSH32 0x557365722069732061207374616B657200000000000000000000000000000000 PUSH1 0x44 DUP3 ADD MSTORE PUSH1 0x64 ADD PUSH2 0xEE1 JUMP JUMPDEST PUSH1 0x1 PUSH1 0xB PUSH1 0x0 DUP3 DUP3 SLOAD PUSH2 0x4616 SWAP2 SWAP1 PUSH2 0x5987 JUMP JUMPDEST SWAP1 SWAP2 SSTORE POP POP PUSH1 0x1 PUSH1 0x1 PUSH1 0xA0 SHL SUB DUP5 AND PUSH1 0x0 DUP2 DUP2 MSTORE PUSH1 0xC PUSH1 0x20 SWAP1 DUP2 MSTORE PUSH1 0x40 DUP1 DUP4 KECCAK256 DUP1 SLOAD PUSH1 0xFF NOT AND PUSH1 0x1 OR SWAP1 SSTORE DUP1 MLOAD PUSH1 0xE0 DUP2 ADD DUP3 MSTORE SWAP4 DUP5 MSTORE SWAP1 DUP4 ADD DUP7 SWAP1 MSTORE TIMESTAMP SWAP1 DUP4 ADD DUP2 SWAP1 MSTORE PUSH1 0x60 DUP4 ADD DUP3 SWAP1 MSTORE PUSH1 0x80 DUP4 ADD SWAP2 SWAP1 SWAP2 MSTORE PUSH1 0xA0 DUP3 ADD DUP4 SWAP1 MSTORE SWAP1 PUSH1 0xC0 DUP2 ADD PUSH2 0x467E DUP4 DUP7 PUSH2 0x5987 JUMP JUMPDEST SWAP1 MSTORE PUSH1 0x1 PUSH1 0x1 PUSH1 0xA0 SHL SUB DUP7 DUP2 AND PUSH1 0x0 DUP2 DUP2 MSTORE PUSH1 0xE PUSH1 0x20 SWAP1 DUP2 MSTORE PUSH1 0x40 SWAP2 DUP3 SWAP1 KECCAK256 DUP6 MLOAD DUP2 SLOAD PUSH1 0x1 PUSH1 0x1 PUSH1 0xA0 SHL SUB NOT AND SWAP6 AND SWAP5 SWAP1 SWAP5 OR DUP5 SSTORE DUP5 ADD MLOAD PUSH1 0x1 DUP5 ADD SSTORE DUP4 ADD MLOAD PUSH1 0x2 DUP4 ADD SSTORE PUSH1 0x60 DUP4 ADD MLOAD PUSH1 0x3 DUP4 ADD SSTORE PUSH1 0x80 DUP4 ADD MLOAD PUSH1 0x4 DUP4 ADD SSTORE PUSH1 0xA0 DUP4 ADD MLOAD PUSH1 0x5 DUP4 ADD SSTORE PUSH1 0xC0 SWAP1 SWAP3 ADD MLOAD PUSH1 0x6 SWAP1 SWAP2 ADD SSTORE PUSH32 0xB4CAAF29ADDA3EEFEE3AD552A8E85058589BF834C7466CAE4EE58787F70589ED DUP6 DUP4 PUSH2 0x471A DUP2 DUP9 PUSH2 0x5987 JUMP JUMPDEST PUSH1 0x40 DUP1 MLOAD SWAP4 DUP5 MSTORE PUSH1 0x20 DUP5 ADD SWAP3 SWAP1 SWAP3 MSTORE SWAP1 DUP3 ADD MSTORE PUSH1 0x60 ADD PUSH1 0x40 MLOAD DUP1 SWAP2 SUB SWAP1 LOG2 POP POP POP POP POP JUMP JUMPDEST PUSH1 0x1 PUSH1 0x1 PUSH1 0xA0 SHL SUB DUP2 AND PUSH1 0x0 SWAP1 DUP2 MSTORE PUSH1 0x12 PUSH1 0x20 MSTORE PUSH1 0x40 DUP2 KECCAK256 PUSH1 0x1 ADD SLOAD PUSH2 0x47A7 JUMPI PUSH1 0x40 MLOAD PUSH3 0x461BCD PUSH1 0xE5 SHL DUP2 MSTORE PUSH1 0x20 PUSH1 0x4 DUP3 ADD MSTORE PUSH1 0x1B PUSH1 0x24 DUP3 ADD MSTORE PUSH32 0x5072697661746553616C653A206E6F20746F6B656E73206C6566740000000000 PUSH1 0x44 DUP3 ADD MSTORE PUSH1 0x64 ADD PUSH2 0xEE1 JUMP JUMPDEST PUSH1 0x0 PUSH2 0x47B2 DUP4 PUSH2 0x521C JUMP JUMPDEST SWAP1 POP PUSH1 0x0 DUP2 GT PUSH2 0x482A JUMPI PUSH1 0x40 MLOAD PUSH3 0x461BCD PUSH1 0xE5 SHL DUP2 MSTORE PUSH1 0x20 PUSH1 0x4 DUP3 ADD MSTORE PUSH1 0x21 PUSH1 0x24 DUP3 ADD MSTORE PUSH32 0x5072697661746553616C653A206E6F20746F6B656E7320746F2072656C656173 PUSH1 0x44 DUP3 ADD MSTORE PUSH32 0x6500000000000000000000000000000000000000000000000000000000000000 PUSH1 0x64 DUP3 ADD MSTORE PUSH1 0x84 ADD PUSH2 0xEE1 JUMP JUMPDEST PUSH2 0x4875 PUSH1 0x12 PUSH1 0x0 DUP6 PUSH1 0x1 PUSH1 0x1 PUSH1 0xA0 SHL SUB AND PUSH1 0x1 PUSH1 0x1 PUSH1 0xA0 SHL SUB AND DUP2 MSTORE PUSH1 0x20 ADD SWAP1 DUP2 MSTORE PUSH1 0x20 ADD PUSH1 0x0 KECCAK256 PUSH1 0x1 ADD SLOAD DUP3 PUSH1 0x40 MLOAD DUP1 PUSH1 0x60 ADD PUSH1 0x40 MSTORE DUP1 PUSH1 0x39 DUP2 MSTORE PUSH1 0x20 ADD PUSH2 0x5A9A PUSH1 0x39 SWAP2 CODECOPY PUSH2 0x3079 JUMP JUMPDEST PUSH1 0x1 PUSH1 0x1 PUSH1 0xA0 SHL SUB SWAP1 SWAP4 AND PUSH1 0x0 SWAP1 DUP2 MSTORE PUSH1 0x12 PUSH1 0x20 MSTORE PUSH1 0x40 SWAP1 KECCAK256 PUSH1 0x1 ADD SWAP3 SWAP1 SWAP3 SSTORE POP SWAP1 JUMP JUMPDEST PUSH1 0x1E DUP2 GT ISZERO PUSH2 0x490F JUMPI PUSH1 0x40 MLOAD PUSH3 0x461BCD PUSH1 0xE5 SHL DUP2 MSTORE PUSH1 0x20 PUSH1 0x4 DUP3 ADD MSTORE PUSH1 0x24 DUP1 DUP3 ADD MSTORE PUSH32 0x50656E616C7479206665652063616E6E6F742065786365656420332070657263 PUSH1 0x44 DUP3 ADD MSTORE PUSH32 0x656E742E00000000000000000000000000000000000000000000000000000000 PUSH1 0x64 DUP3 ADD MSTORE PUSH1 0x84 ADD PUSH2 0xEE1 JUMP JUMPDEST PUSH1 0x6 DUP2 SWAP1 SSTORE PUSH1 0x40 MLOAD DUP2 DUP2 MSTORE PUSH32 0xCFA4F4CF1CD64D13A167A8E75605E0C0C9D6700E903D17C5DC11F593254A04A9 SWAP1 PUSH1 0x20 ADD JUMPDEST PUSH1 0x40 MLOAD DUP1 SWAP2 SUB SWAP1 LOG1 POP JUMP JUMPDEST PUSH1 0x0 PUSH2 0x4955 PUSH2 0x30C4 JUMP JUMPDEST PUSH1 0x1 PUSH1 0xB SLOAD GT PUSH2 0x49A7 JUMPI PUSH1 0x40 MLOAD PUSH3 0x461BCD PUSH1 0xE5 SHL DUP2 MSTORE PUSH1 0x20 PUSH1 0x4 DUP3 ADD MSTORE PUSH1 0x11 PUSH1 0x24 DUP3 ADD MSTORE PUSH32 0x4E6F7420656E6F75676820766F74657273000000000000000000000000000000 PUSH1 0x44 DUP3 ADD MSTORE PUSH1 0x64 ADD PUSH2 0xEE1 JUMP JUMPDEST PUSH1 0x0 PUSH2 0x49B9 PUSH2 0x3C21 PUSH1 0xB SLOAD PUSH1 0x5 PUSH2 0x5210 JUMP JUMPDEST PUSH1 0xA SLOAD PUSH1 0x0 SWAP1 DUP2 MSTORE PUSH1 0xD PUSH1 0x20 MSTORE PUSH1 0x40 SWAP1 KECCAK256 SLOAD SWAP1 SWAP2 POP DUP2 LT ISZERO PUSH2 0x49DD JUMPI PUSH1 0x1 SWAP2 POP POP SWAP1 JUMP JUMPDEST PUSH1 0x0 SWAP2 POP POP SWAP1 JUMP JUMPDEST PUSH2 0x49ED PUSH2 0x30C4 JUMP JUMPDEST PUSH1 0x9 DUP1 SLOAD PUSH1 0xFF NOT AND SWAP1 SSTORE JUMP JUMPDEST PUSH2 0x4A01 PUSH2 0x563C JUMP JUMPDEST PUSH1 0x40 MLOAD DUP1 PUSH2 0x660 ADD PUSH1 0x40 MSTORE DUP1 PUSH2 0x4A22 PUSH3 0x42B0C1 PUSH8 0xDE0B6B3A7640000 PUSH2 0x5210 JUMP JUMPDEST DUP2 MSTORE PUSH1 0x20 ADD PUSH2 0x4A3C PUSH3 0x42B0C1 PUSH8 0xDE0B6B3A7640000 PUSH2 0x5210 JUMP JUMPDEST DUP2 MSTORE PUSH1 0x20 ADD PUSH2 0x4A56 PUSH3 0x42B0C1 PUSH8 0xDE0B6B3A7640000 PUSH2 0x5210 JUMP JUMPDEST DUP2 MSTORE PUSH1 0x20 ADD PUSH2 0x4A70 PUSH3 0x42B0C1 PUSH8 0xDE0B6B3A7640000 PUSH2 0x5210 JUMP JUMPDEST DUP2 MSTORE PUSH1 0x20 ADD PUSH2 0x4A8A PUSH3 0x42B0C1 PUSH8 0xDE0B6B3A7640000 PUSH2 0x5210 JUMP JUMPDEST DUP2 MSTORE PUSH1 0x20 ADD PUSH2 0x4AA4 PUSH3 0x42B0C1 PUSH8 0xDE0B6B3A7640000 PUSH2 0x5210 JUMP JUMPDEST DUP2 MSTORE PUSH1 0x20 ADD PUSH2 0x4ABE PUSH3 0x42B0C1 PUSH8 0xDE0B6B3A7640000 PUSH2 0x5210 JUMP JUMPDEST DUP2 MSTORE PUSH1 0x20 ADD PUSH2 0x4AD8 PUSH3 0x42B0C1 PUSH8 0xDE0B6B3A7640000 PUSH2 0x5210 JUMP JUMPDEST DUP2 MSTORE PUSH1 0x20 ADD PUSH2 0x4AF2 PUSH3 0x42B0C1 PUSH8 0xDE0B6B3A7640000 PUSH2 0x5210 JUMP JUMPDEST DUP2 MSTORE PUSH1 0x20 ADD PUSH2 0x4B0C PUSH3 0x42B0C1 PUSH8 0xDE0B6B3A7640000 PUSH2 0x5210 JUMP JUMPDEST DUP2 MSTORE PUSH1 0x20 ADD PUSH2 0x4B26 PUSH3 0x42B0C1 PUSH8 0xDE0B6B3A7640000 PUSH2 0x5210 JUMP JUMPDEST DUP2 MSTORE PUSH1 0x20 ADD PUSH2 0x4B40 PUSH3 0x42B0C1 PUSH8 0xDE0B6B3A7640000 PUSH2 0x5210 JUMP JUMPDEST DUP2 MSTORE PUSH1 0x20 ADD PUSH2 0x4B5A PUSH3 0x42B0C1 PUSH8 0xDE0B6B3A7640000 PUSH2 0x5210 JUMP JUMPDEST DUP2 MSTORE PUSH1 0x20 ADD PUSH2 0x4B74 PUSH3 0x42B0C1 PUSH8 0xDE0B6B3A7640000 PUSH2 0x5210 JUMP JUMPDEST DUP2 MSTORE PUSH1 0x20 ADD PUSH2 0x4B8E PUSH3 0x42B0C1 PUSH8 0xDE0B6B3A7640000 PUSH2 0x5210 JUMP JUMPDEST DUP2 MSTORE PUSH1 0x20 ADD PUSH2 0x4BA8 PUSH3 0x42B0C1 PUSH8 0xDE0B6B3A7640000 PUSH2 0x5210 JUMP JUMPDEST DUP2 MSTORE PUSH1 0x20 ADD PUSH2 0x4BC3 PUSH4 0x320490C PUSH8 0xDE0B6B3A7640000 PUSH2 0x5210 JUMP JUMPDEST DUP2 MSTORE PUSH1 0x20 ADD PUSH2 0x4BDE PUSH4 0x320490C PUSH8 0xDE0B6B3A7640000 PUSH2 0x5210 JUMP JUMPDEST DUP2 MSTORE PUSH1 0x20 ADD PUSH2 0x4BF9 PUSH4 0x320490C PUSH8 0xDE0B6B3A7640000 PUSH2 0x5210 JUMP JUMPDEST DUP2 MSTORE PUSH1 0x20 ADD PUSH2 0x4C14 PUSH4 0x320490C PUSH8 0xDE0B6B3A7640000 PUSH2 0x5210 JUMP JUMPDEST DUP2 MSTORE PUSH1 0x20 ADD PUSH2 0x4C2F PUSH4 0x320490C PUSH8 0xDE0B6B3A7640000 PUSH2 0x5210 JUMP JUMPDEST DUP2 MSTORE PUSH1 0x20 ADD PUSH2 0x4C4A PUSH4 0x320490C PUSH8 0xDE0B6B3A7640000 PUSH2 0x5210 JUMP JUMPDEST DUP2 MSTORE PUSH1 0x20 ADD PUSH2 0x4C65 PUSH4 0x320490C PUSH8 0xDE0B6B3A7640000 PUSH2 0x5210 JUMP JUMPDEST DUP2 MSTORE PUSH1 0x20 ADD PUSH2 0x4C80 PUSH4 0x320490C PUSH8 0xDE0B6B3A7640000 PUSH2 0x5210 JUMP JUMPDEST DUP2 MSTORE PUSH1 0x20 ADD PUSH2 0x4C9B PUSH4 0x320490C PUSH8 0xDE0B6B3A7640000 PUSH2 0x5210 JUMP JUMPDEST DUP2 MSTORE PUSH1 0x20 ADD PUSH2 0x4CB6 PUSH4 0x320490C PUSH8 0xDE0B6B3A7640000 PUSH2 0x5210 JUMP JUMPDEST DUP2 MSTORE PUSH1 0x20 ADD PUSH2 0x4CD1 PUSH4 0x320490C PUSH8 0xDE0B6B3A7640000 PUSH2 0x5210 JUMP JUMPDEST DUP2 MSTORE PUSH1 0x20 ADD PUSH2 0x4CEC PUSH4 0x320490C PUSH8 0xDE0B6B3A7640000 PUSH2 0x5210 JUMP JUMPDEST DUP2 MSTORE PUSH1 0x20 ADD PUSH1 0x0 DUP2 MSTORE PUSH1 0x20 ADD PUSH1 0x0 DUP2 MSTORE PUSH1 0x20 ADD PUSH1 0x0 DUP2 MSTORE PUSH1 0x20 ADD PUSH1 0x0 DUP2 MSTORE PUSH1 0x20 ADD PUSH1 0x0 DUP2 MSTORE PUSH1 0x20 ADD PUSH1 0x0 DUP2 MSTORE PUSH1 0x20 ADD PUSH1 0x0 DUP2 MSTORE PUSH1 0x20 ADD PUSH1 0x0 DUP2 MSTORE PUSH1 0x20 ADD PUSH1 0x0 DUP2 MSTORE PUSH1 0x20 ADD PUSH1 0x0 DUP2 MSTORE PUSH1 0x20 ADD PUSH1 0x0 DUP2 MSTORE PUSH1 0x20 ADD PUSH1 0x0 DUP2 MSTORE PUSH1 0x20 ADD PUSH1 0x0 DUP2 MSTORE PUSH1 0x20 ADD PUSH1 0x0 DUP2 MSTORE PUSH1 0x20 ADD PUSH1 0x0 DUP2 MSTORE PUSH1 0x20 ADD PUSH1 0x0 DUP2 MSTORE PUSH1 0x20 ADD PUSH1 0x0 DUP2 MSTORE PUSH1 0x20 ADD PUSH1 0x0 DUP2 MSTORE PUSH1 0x20 ADD PUSH1 0x0 DUP2 MSTORE PUSH1 0x20 ADD PUSH1 0x0 DUP2 MSTORE PUSH1 0x20 ADD PUSH1 0x0 DUP2 MSTORE PUSH1 0x20 ADD PUSH1 0x0 DUP2 MSTORE PUSH1 0x20 ADD PUSH1 0x0 DUP2 MSTORE POP SWAP1 POP SWAP1 JUMP JUMPDEST PUSH1 0x19 SLOAD PUSH2 0x4DA2 SWAP1 DUP3 PUSH2 0x30B8 JUMP JUMPDEST PUSH1 0x19 SSTORE PUSH1 0x15 SLOAD PUSH2 0x4DB2 SWAP1 DUP3 PUSH2 0x30B8 JUMP JUMPDEST PUSH1 0x15 SSTORE PUSH1 0x40 MLOAD DUP2 DUP2 MSTORE ADDRESS SWAP1 PUSH1 0x0 SWAP1 PUSH32 0x715128EA18BCB5A472F8187C4FBFDC1ED6D04ECDCFF67E3F546FDD075E862665 SWAP1 PUSH1 0x20 ADD PUSH2 0x1281 JUMP JUMPDEST PUSH1 0x1 PUSH1 0x1 PUSH1 0xA0 SHL SUB DUP2 AND PUSH1 0x0 SWAP1 DUP2 MSTORE PUSH1 0x12 PUSH1 0x20 MSTORE PUSH1 0x40 DUP2 KECCAK256 PUSH1 0x1 ADD SLOAD PUSH2 0x4E78 JUMPI PUSH1 0x40 MLOAD PUSH3 0x461BCD PUSH1 0xE5 SHL DUP2 MSTORE PUSH1 0x20 PUSH1 0x4 DUP3 ADD MSTORE PUSH1 0x23 PUSH1 0x24 DUP3 ADD MSTORE PUSH32 0x5072697661746553616C653A2054686973207573657220646F65736E74206578 PUSH1 0x44 DUP3 ADD MSTORE PUSH32 0x6973740000000000000000000000000000000000000000000000000000000000 PUSH1 0x64 DUP3 ADD MSTORE PUSH1 0x84 ADD PUSH2 0xEE1 JUMP JUMPDEST PUSH1 0x1 PUSH1 0xF PUSH1 0x0 DUP3 DUP3 SLOAD PUSH2 0x4E8B SWAP2 SWAP1 PUSH2 0x595A JUMP JUMPDEST SWAP1 SWAP2 SSTORE POP POP PUSH1 0x1 PUSH1 0x1 PUSH1 0xA0 SHL SUB DUP3 AND PUSH1 0x0 SWAP1 DUP2 MSTORE PUSH1 0x12 PUSH1 0x20 MSTORE PUSH1 0x40 DUP2 KECCAK256 PUSH1 0x1 ADD SLOAD PUSH1 0x10 DUP1 SLOAD SWAP2 SWAP3 SWAP1 SWAP2 PUSH2 0x4EBF SWAP1 DUP5 SWAP1 PUSH2 0x5987 JUMP JUMPDEST SWAP1 SWAP2 SSTORE POP POP POP PUSH1 0x1 PUSH1 0x1 PUSH1 0xA0 SHL SUB AND PUSH1 0x0 SWAP1 DUP2 MSTORE PUSH1 0x12 PUSH1 0x20 MSTORE PUSH1 0x40 DUP2 KECCAK256 PUSH1 0x1 DUP2 ADD DUP1 SLOAD DUP4 DUP4 SSTORE SWAP1 DUP4 SWAP1 SSTORE PUSH1 0x2 DUP3 ADD DUP1 SLOAD PUSH1 0xFF NOT AND SWAP1 SSTORE PUSH1 0x3 SWAP1 SWAP2 ADD SWAP2 SWAP1 SWAP2 SSTORE SWAP1 JUMP JUMPDEST PUSH1 0x1 PUSH1 0x1 PUSH1 0xA0 SHL SUB DUP1 DUP3 AND PUSH1 0x0 SWAP1 DUP2 MSTORE PUSH1 0xE PUSH1 0x20 SWAP1 DUP2 MSTORE PUSH1 0x40 DUP1 DUP4 KECCAK256 DUP2 MLOAD PUSH1 0xE0 DUP2 ADD DUP4 MSTORE DUP2 SLOAD SWAP1 SWAP6 AND DUP6 MSTORE PUSH1 0x1 DUP2 ADD SLOAD SWAP3 DUP6 ADD SWAP3 SWAP1 SWAP3 MSTORE PUSH1 0x2 DUP3 ADD SLOAD SWAP1 DUP5 ADD MSTORE PUSH1 0x3 DUP2 ADD SLOAD PUSH1 0x60 DUP5 ADD MSTORE PUSH1 0x4 DUP2 ADD SLOAD PUSH1 0x80 DUP5 ADD MSTORE PUSH1 0x5 DUP2 ADD SLOAD PUSH1 0xA0 DUP5 ADD MSTORE PUSH1 0x6 ADD SLOAD PUSH1 0xC0 DUP4 ADD MSTORE SWAP1 DUP2 SWAP1 DUP2 PUSH2 0x4F75 DUP3 PUSH2 0x5142 JUMP JUMPDEST PUSH1 0x1 PUSH1 0x1 PUSH1 0xA0 SHL SUB DUP7 AND PUSH1 0x0 SWAP1 DUP2 MSTORE PUSH1 0xE PUSH1 0x20 MSTORE PUSH1 0x40 DUP2 KECCAK256 DUP1 SLOAD PUSH1 0x1 PUSH1 0x1 PUSH1 0xA0 SHL SUB NOT SWAP1 DUP2 AND DUP3 SSTORE PUSH1 0x1 DUP3 ADD DUP4 SWAP1 SSTORE PUSH1 0x2 DUP3 ADD DUP4 SWAP1 SSTORE PUSH1 0x3 DUP3 ADD DUP4 SWAP1 SSTORE PUSH1 0x4 DUP3 ADD DUP4 SWAP1 SSTORE PUSH1 0x5 DUP3 ADD DUP4 SWAP1 SSTORE PUSH1 0x6 DUP3 ADD DUP4 SWAP1 SSTORE PUSH1 0x7 DUP3 ADD DUP1 SLOAD SWAP1 SWAP2 AND SWAP1 SSTORE PUSH1 0x8 ADD SSTORE PUSH1 0xC0 DUP4 ADD MLOAD SWAP1 SWAP2 POP TIMESTAMP LT ISZERO PUSH2 0x5045 JUMPI PUSH1 0x1 PUSH1 0xB PUSH1 0x0 DUP3 DUP3 SLOAD PUSH2 0x4FF8 SWAP2 SWAP1 PUSH2 0x595A JUMP JUMPDEST SWAP1 SWAP2 SSTORE POP POP PUSH1 0x1 PUSH1 0x1 PUSH1 0xA0 SHL SUB DUP6 AND PUSH1 0x0 SWAP1 DUP2 MSTORE PUSH1 0xC PUSH1 0x20 SWAP1 DUP2 MSTORE PUSH1 0x40 DUP1 DUP4 KECCAK256 PUSH1 0xA SLOAD DUP5 MSTORE PUSH1 0x1 ADD DUP3 MSTORE SWAP1 SWAP2 KECCAK256 DUP1 SLOAD PUSH1 0xFF NOT AND SWAP1 SSTORE DUP3 ADD MLOAD PUSH2 0x503A SWAP1 DUP3 PUSH2 0x54A9 JUMP JUMPDEST SWAP4 POP SWAP4 POP POP POP SWAP2 POP SWAP2 JUMP JUMPDEST PUSH1 0x1 PUSH1 0xB PUSH1 0x0 DUP3 DUP3 SLOAD PUSH2 0x5058 SWAP2 SWAP1 PUSH2 0x595A JUMP JUMPDEST SWAP1 SWAP2 SSTORE POP POP PUSH1 0x1 PUSH1 0x1 PUSH1 0xA0 SHL SUB SWAP1 SWAP5 AND PUSH1 0x0 SWAP1 DUP2 MSTORE PUSH1 0xC PUSH1 0x20 SWAP1 DUP2 MSTORE PUSH1 0x40 DUP1 DUP4 KECCAK256 PUSH1 0xA SLOAD DUP5 MSTORE PUSH1 0x1 ADD DUP3 MSTORE SWAP1 SWAP2 KECCAK256 DUP1 SLOAD PUSH1 0xFF NOT AND SWAP1 SSTORE ADD MLOAD SWAP4 SWAP2 POP POP JUMP JUMPDEST PUSH1 0xC8 DUP2 GT ISZERO PUSH2 0x510D JUMPI PUSH1 0x40 MLOAD PUSH3 0x461BCD PUSH1 0xE5 SHL DUP2 MSTORE PUSH1 0x20 PUSH1 0x4 DUP3 ADD MSTORE PUSH1 0x2C PUSH1 0x24 DUP3 ADD MSTORE PUSH32 0x41697264726F702050657263656E746167652063616E6E6F7420657863656564 PUSH1 0x44 DUP3 ADD MSTORE PUSH32 0x2032302070657263656E742E0000000000000000000000000000000000000000 PUSH1 0x64 DUP3 ADD MSTORE PUSH1 0x84 ADD PUSH2 0xEE1 JUMP JUMPDEST PUSH1 0x7 DUP2 SWAP1 SSTORE PUSH1 0x40 MLOAD DUP2 DUP2 MSTORE PUSH32 0xCC672F1026B958C0CFBFDD89EBE8DDCBC127F16EC24DA6C2C7A4DE26A8B1857E SWAP1 PUSH1 0x20 ADD PUSH2 0x4940 JUMP JUMPDEST PUSH1 0x0 DUP2 PUSH1 0x20 ADD MLOAD PUSH1 0x0 EQ ISZERO PUSH2 0x5159 JUMPI POP PUSH1 0x0 SWAP2 SWAP1 POP JUMP JUMPDEST PUSH11 0x52B7D2DCC80CD2E4000000 PUSH2 0x5172 DUP4 PUSH1 0x40 ADD MLOAD PUSH2 0x54EE JUMP JUMPDEST DUP4 PUSH1 0xA0 ADD MLOAD DUP5 PUSH1 0x20 ADD MLOAD PUSH2 0x5186 SWAP2 SWAP1 PUSH2 0x5A5A JUMP JUMPDEST PUSH2 0x5190 SWAP2 SWAP1 PUSH2 0x5A5A JUMP JUMPDEST PUSH2 0x519A SWAP2 SWAP1 PUSH2 0x5A38 JUMP JUMPDEST SWAP3 SWAP2 POP POP JUMP JUMPDEST PUSH1 0x0 DUP1 PUSH2 0x51BA PUSH2 0x51B2 DUP6 PUSH1 0x6 SLOAD PUSH2 0x5210 JUMP JUMPDEST PUSH2 0x3E8 PUSH2 0x30A5 JUMP JUMPDEST PUSH2 0x51C9 PUSH2 0x51B2 DUP6 PUSH1 0x6 SLOAD PUSH2 0x5210 JUMP JUMPDEST SWAP2 POP SWAP2 POP JUMPDEST SWAP3 POP SWAP3 SWAP1 POP JUMP JUMPDEST PUSH1 0x0 PUSH2 0x519A PUSH3 0x93A80 PUSH2 0x51E8 DUP5 TIMESTAMP PUSH2 0x595A JUMP JUMPDEST SWAP1 PUSH2 0x30A5 JUMP JUMPDEST PUSH1 0x0 PUSH4 0x1DFE200 PUSH2 0x3E8 PUSH1 0x7 SLOAD DUP5 PUSH2 0x5206 SWAP2 SWAP1 PUSH2 0x5A5A JUMP JUMPDEST PUSH2 0x5190 SWAP2 SWAP1 PUSH2 0x5A38 JUMP JUMPDEST PUSH1 0x0 PUSH2 0x30B1 DUP3 DUP5 PUSH2 0x5A5A JUMP JUMPDEST PUSH1 0x0 DUP1 PUSH1 0x0 PUSH3 0x15180 PUSH1 0x11 SLOAD TIMESTAMP PUSH2 0x5233 SWAP2 SWAP1 PUSH2 0x595A JUMP JUMPDEST PUSH2 0x523D SWAP2 SWAP1 PUSH2 0x5A38 JUMP JUMPDEST SWAP1 POP PUSH2 0x1E0 DUP2 LT ISZERO PUSH2 0x5301 JUMPI PUSH1 0x1 PUSH1 0x1 PUSH1 0xA0 SHL SUB DUP5 AND PUSH1 0x0 SWAP1 DUP2 MSTORE PUSH1 0x12 PUSH1 0x20 MSTORE PUSH1 0x40 SWAP1 KECCAK256 PUSH1 0x2 ADD SLOAD PUSH1 0xFF AND PUSH2 0x52DB JUMPI PUSH1 0x1 PUSH1 0x1 PUSH1 0xA0 SHL SUB DUP5 AND PUSH1 0x0 SWAP1 DUP2 MSTORE PUSH1 0x12 PUSH1 0x20 MSTORE PUSH1 0x40 SWAP1 KECCAK256 SLOAD PUSH2 0x52B2 SWAP1 PUSH2 0x52AB SWAP1 PUSH2 0x52A3 SWAP1 PUSH11 0x3CB5FEEC27901169E00000 SWAP1 PUSH2 0x5210 JUMP JUMPDEST PUSH1 0x10 SLOAD PUSH2 0x30A5 JUMP JUMPDEST DUP4 SWAP1 PUSH2 0x30B8 JUMP JUMPDEST PUSH1 0x1 PUSH1 0x1 PUSH1 0xA0 SHL SUB DUP6 AND PUSH1 0x0 SWAP1 DUP2 MSTORE PUSH1 0x12 PUSH1 0x20 MSTORE PUSH1 0x40 SWAP1 KECCAK256 PUSH1 0x2 ADD DUP1 SLOAD PUSH1 0xFF NOT AND PUSH1 0x1 OR SWAP1 SSTORE SWAP2 POP JUMPDEST PUSH1 0x1 PUSH1 0x1 PUSH1 0xA0 SHL SUB DUP5 AND PUSH1 0x0 SWAP1 DUP2 MSTORE PUSH1 0x12 PUSH1 0x20 MSTORE PUSH1 0x40 SWAP1 KECCAK256 PUSH2 0x1C2 PUSH1 0x3 SWAP1 SWAP2 ADD SSTORE PUSH2 0x542F JUMP JUMPDEST PUSH2 0x1E0 DUP2 LT ISZERO DUP1 ISZERO PUSH2 0x5314 JUMPI POP PUSH2 0x348 DUP2 LT JUMPDEST ISZERO PUSH2 0x542F JUMPI PUSH1 0x1 PUSH1 0x1 PUSH1 0xA0 SHL SUB DUP5 AND PUSH1 0x0 SWAP1 DUP2 MSTORE PUSH1 0x12 PUSH1 0x20 MSTORE PUSH1 0x40 SWAP1 KECCAK256 PUSH1 0x2 ADD SLOAD PUSH1 0xFF AND PUSH2 0x539C JUMPI PUSH1 0x1 PUSH1 0x1 PUSH1 0xA0 SHL SUB DUP5 AND PUSH1 0x0 SWAP1 DUP2 MSTORE PUSH1 0x12 PUSH1 0x20 MSTORE PUSH1 0x40 SWAP1 KECCAK256 SLOAD PUSH2 0x5373 SWAP1 PUSH2 0x52AB SWAP1 PUSH2 0x52A3 SWAP1 PUSH11 0x3CB5FEEC27901169E00000 SWAP1 PUSH2 0x5210 JUMP JUMPDEST PUSH1 0x1 PUSH1 0x1 PUSH1 0xA0 SHL SUB DUP6 AND PUSH1 0x0 SWAP1 DUP2 MSTORE PUSH1 0x12 PUSH1 0x20 MSTORE PUSH1 0x40 SWAP1 KECCAK256 PUSH1 0x2 ADD DUP1 SLOAD PUSH1 0xFF NOT AND PUSH1 0x1 OR SWAP1 SSTORE SWAP2 POP JUMPDEST PUSH1 0x1 PUSH1 0x1 PUSH1 0xA0 SHL SUB DUP5 AND PUSH1 0x0 SWAP1 DUP2 MSTORE PUSH1 0x12 PUSH1 0x20 MSTORE PUSH1 0x40 DUP2 KECCAK256 PUSH1 0x3 ADD SLOAD PUSH2 0x53C2 SWAP1 DUP4 PUSH2 0x595A JUMP JUMPDEST PUSH1 0x1 PUSH1 0x1 PUSH1 0xA0 SHL SUB DUP7 AND PUSH1 0x0 SWAP1 DUP2 MSTORE PUSH1 0x12 PUSH1 0x20 MSTORE PUSH1 0x40 SWAP1 KECCAK256 SLOAD SWAP1 SWAP2 POP PUSH2 0x5403 SWAP1 PUSH2 0x53FC SWAP1 PUSH2 0x52A3 SWAP1 PUSH11 0x3290914BE1AFB75080000 SWAP1 PUSH2 0x5210 JUMP JUMPDEST DUP5 SWAP1 PUSH2 0x30B8 JUMP JUMPDEST PUSH2 0x540D SWAP1 DUP3 PUSH2 0x5A5A JUMP JUMPDEST PUSH1 0x1 PUSH1 0x1 PUSH1 0xA0 SHL SUB DUP7 AND PUSH1 0x0 SWAP1 DUP2 MSTORE PUSH1 0x12 PUSH1 0x20 MSTORE PUSH1 0x40 SWAP1 KECCAK256 PUSH1 0x3 ADD DUP4 SWAP1 SSTORE SWAP3 POP POP JUMPDEST DUP2 PUSH2 0x54A2 JUMPI PUSH1 0x40 MLOAD PUSH3 0x461BCD PUSH1 0xE5 SHL DUP2 MSTORE PUSH1 0x20 PUSH1 0x4 DUP3 ADD MSTORE PUSH1 0x29 PUSH1 0x24 DUP3 ADD MSTORE PUSH32 0x5072697661746553616C653A2054686572652773206E6F7468696E6720746F20 PUSH1 0x44 DUP3 ADD MSTORE PUSH32 0x636C61696D207965740000000000000000000000000000000000000000000000 PUSH1 0x64 DUP3 ADD MSTORE PUSH1 0x84 ADD PUSH2 0xEE1 JUMP JUMPDEST POP SWAP3 SWAP2 POP POP JUMP JUMPDEST PUSH1 0x0 DUP1 DUP4 PUSH2 0x54BC JUMPI POP PUSH1 0x0 SWAP1 POP DUP1 PUSH2 0x51CE JUMP JUMPDEST PUSH1 0x0 DUP1 PUSH2 0x54C9 DUP7 DUP7 PUSH2 0x51A0 JUMP JUMPDEST SWAP2 POP SWAP2 POP PUSH2 0x54D7 DUP7 DUP4 PUSH2 0x32D6 JUMP JUMPDEST PUSH2 0x54E1 DUP7 DUP4 PUSH2 0x32D6 JUMP JUMPDEST SWAP4 POP SWAP4 POP POP POP SWAP3 POP SWAP3 SWAP1 POP JUMP JUMPDEST PUSH1 0x0 DUP1 DUP3 GT PUSH2 0x553F JUMPI PUSH1 0x40 MLOAD PUSH3 0x461BCD PUSH1 0xE5 SHL DUP2 MSTORE PUSH1 0x20 PUSH1 0x4 DUP3 ADD MSTORE PUSH1 0x11 PUSH1 0x24 DUP3 ADD MSTORE PUSH32 0x4572726F722074696D657374616D702030000000000000000000000000000000 PUSH1 0x44 DUP3 ADD MSTORE PUSH1 0x64 ADD PUSH2 0xEE1 JUMP JUMPDEST PUSH2 0x519A PUSH2 0x554C DUP4 TIMESTAMP PUSH2 0x595A JUMP JUMPDEST PUSH2 0x5560 SWAP1 PUSH10 0xD3C21BCECCEDA1000000 PUSH2 0x5A5A JUMP JUMPDEST PUSH4 0x1E13380 PUSH1 0x40 MLOAD DUP1 PUSH1 0x40 ADD PUSH1 0x40 MSTORE DUP1 PUSH1 0x1D DUP2 MSTORE PUSH1 0x20 ADD PUSH32 0x4572726F722063616E6E6F74206469766964652074696D657374616D70000000 DUP2 MSTORE POP PUSH1 0x0 DUP2 DUP4 PUSH2 0x55BC JUMPI PUSH1 0x40 MLOAD PUSH3 0x461BCD PUSH1 0xE5 SHL DUP2 MSTORE PUSH1 0x4 ADD PUSH2 0xEE1 SWAP2 SWAP1 PUSH2 0x565B JUMP JUMPDEST POP DUP3 DUP5 DUP2 PUSH2 0x55CC JUMPI PUSH2 0x55CC PUSH2 0x5A22 JUMP JUMPDEST DIV SWAP5 SWAP4 POP POP POP POP JUMP JUMPDEST PUSH1 0x40 MLOAD DUP1 PUSH1 0x60 ADD PUSH1 0x40 MSTORE DUP1 PUSH1 0x0 DUP2 MSTORE PUSH1 0x20 ADD PUSH1 0x0 DUP2 MSTORE PUSH1 0x20 ADD PUSH2 0x5637 PUSH1 0x40 MLOAD DUP1 PUSH1 0xE0 ADD PUSH1 0x40 MSTORE DUP1 PUSH1 0x0 PUSH1 0x1 PUSH1 0x1 PUSH1 0xA0 SHL SUB AND DUP2 MSTORE PUSH1 0x20 ADD PUSH1 0x0 DUP2 MSTORE PUSH1 0x20 ADD PUSH1 0x0 DUP2 MSTORE PUSH1 0x20 ADD PUSH1 0x0 DUP2 MSTORE PUSH1 0x20 ADD PUSH1 0x0 DUP2 MSTORE PUSH1 0x20 ADD PUSH1 0x0 DUP2 MSTORE PUSH1 0x20 ADD PUSH1 0x0 DUP2 MSTORE POP SWAP1 JUMP JUMPDEST SWAP1 MSTORE SWAP1 JUMP JUMPDEST PUSH1 0x40 MLOAD DUP1 PUSH2 0x660 ADD PUSH1 0x40 MSTORE DUP1 PUSH1 0x33 SWAP1 PUSH1 0x20 DUP3 MUL DUP1 CALLDATASIZE DUP4 CALLDATACOPY POP SWAP2 SWAP3 SWAP2 POP POP JUMP JUMPDEST PUSH1 0x0 PUSH1 0x20 DUP1 DUP4 MSTORE DUP4 MLOAD DUP1 DUP3 DUP6 ADD MSTORE PUSH1 0x0 JUMPDEST DUP2 DUP2 LT ISZERO PUSH2 0x5688 JUMPI DUP6 DUP2 ADD DUP4 ADD MLOAD DUP6 DUP3 ADD PUSH1 0x40 ADD MSTORE DUP3 ADD PUSH2 0x566C JUMP JUMPDEST DUP2 DUP2 GT ISZERO PUSH2 0x569A JUMPI PUSH1 0x0 PUSH1 0x40 DUP4 DUP8 ADD ADD MSTORE JUMPDEST POP PUSH1 0x1F ADD PUSH1 0x1F NOT AND SWAP3 SWAP1 SWAP3 ADD PUSH1 0x40 ADD SWAP4 SWAP3 POP POP POP JUMP JUMPDEST PUSH1 0x0 DUP1 PUSH1 0x20 DUP4 DUP6 SUB SLT ISZERO PUSH2 0x56C3 JUMPI PUSH1 0x0 DUP1 REVERT JUMPDEST DUP3 CALLDATALOAD PUSH8 0xFFFFFFFFFFFFFFFF DUP1 DUP3 GT ISZERO PUSH2 0x56DB JUMPI PUSH1 0x0 DUP1 REVERT JUMPDEST DUP2 DUP6 ADD SWAP2 POP DUP6 PUSH1 0x1F DUP4 ADD SLT PUSH2 0x56EF JUMPI PUSH1 0x0 DUP1 REVERT JUMPDEST DUP2 CALLDATALOAD DUP2 DUP2 GT ISZERO PUSH2 0x56FE JUMPI PUSH1 0x0 DUP1 REVERT JUMPDEST DUP7 PUSH1 0x20 DUP3 PUSH1 0x6 SHL DUP6 ADD ADD GT ISZERO PUSH2 0x5713 JUMPI PUSH1 0x0 DUP1 REVERT JUMPDEST PUSH1 0x20 SWAP3 SWAP1 SWAP3 ADD SWAP7 SWAP2 SWAP6 POP SWAP1 SWAP4 POP POP POP POP JUMP JUMPDEST PUSH1 0x1 PUSH1 0x1 PUSH1 0xA0 SHL SUB DUP2 AND DUP2 EQ PUSH2 0x16D7 JUMPI PUSH1 0x0 DUP1 REVERT JUMPDEST PUSH1 0x0 DUP1 PUSH1 0x40 DUP4 DUP6 SUB SLT ISZERO PUSH2 0x574D JUMPI PUSH1 0x0 DUP1 REVERT JUMPDEST DUP3 CALLDATALOAD PUSH2 0x5758 DUP2 PUSH2 0x5725 JUMP JUMPDEST SWAP5 PUSH1 0x20 SWAP4 SWAP1 SWAP4 ADD CALLDATALOAD SWAP4 POP POP POP JUMP JUMPDEST PUSH1 0x0 PUSH1 0x20 DUP3 DUP5 SUB SLT ISZERO PUSH2 0x5778 JUMPI PUSH1 0x0 DUP1 REVERT JUMPDEST POP CALLDATALOAD SWAP2 SWAP1 POP JUMP JUMPDEST PUSH1 0x0 DUP1 PUSH1 0x0 PUSH1 0x60 DUP5 DUP7 SUB SLT ISZERO PUSH2 0x5794 JUMPI PUSH1 0x0 DUP1 REVERT JUMPDEST DUP4 CALLDATALOAD PUSH2 0x579F DUP2 PUSH2 0x5725 JUMP JUMPDEST SWAP3 POP PUSH1 0x20 DUP5 ADD CALLDATALOAD PUSH2 0x57AF DUP2 PUSH2 0x5725 JUMP JUMPDEST SWAP3 SWAP6 SWAP3 SWAP5 POP POP POP PUSH1 0x40 SWAP2 SWAP1 SWAP2 ADD CALLDATALOAD SWAP1 JUMP JUMPDEST PUSH1 0x0 PUSH1 0x20 DUP3 DUP5 SUB SLT ISZERO PUSH2 0x57D2 JUMPI PUSH1 0x0 DUP1 REVERT JUMPDEST DUP2 CALLDATALOAD PUSH1 0xFF DUP2 AND DUP2 EQ PUSH2 0x30B1 JUMPI PUSH1 0x0 DUP1 REVERT JUMPDEST PUSH1 0x0 PUSH1 0x20 DUP3 DUP5 SUB SLT ISZERO PUSH2 0x57F5 JUMPI PUSH1 0x0 DUP1 REVERT JUMPDEST DUP2 CALLDATALOAD PUSH2 0x30B1 DUP2 PUSH2 0x5725 JUMP JUMPDEST PUSH1 0x0 DUP1 PUSH1 0x40 DUP4 DUP6 SUB SLT ISZERO PUSH2 0x5813 JUMPI PUSH1 0x0 DUP1 REVERT JUMPDEST POP POP DUP1 CALLDATALOAD SWAP3 PUSH1 0x20 SWAP1 SWAP2 ADD CALLDATALOAD SWAP2 POP JUMP JUMPDEST PUSH1 0x0 DUP1 PUSH1 0x20 DUP4 DUP6 SUB SLT ISZERO PUSH2 0x5835 JUMPI PUSH1 0x0 DUP1 REVERT JUMPDEST DUP3 CALLDATALOAD PUSH8 0xFFFFFFFFFFFFFFFF DUP1 DUP3 GT ISZERO PUSH2 0x584D JUMPI PUSH1 0x0 DUP1 REVERT JUMPDEST DUP2 DUP6 ADD SWAP2 POP DUP6 PUSH1 0x1F DUP4 ADD SLT PUSH2 0x5861 JUMPI PUSH1 0x0 DUP1 REVERT JUMPDEST DUP2 CALLDATALOAD DUP2 DUP2 GT ISZERO PUSH2 0x5870 JUMPI PUSH1 0x0 DUP1 REVERT JUMPDEST DUP7 PUSH1 0x20 DUP3 PUSH1 0x5 SHL DUP6 ADD ADD GT ISZERO PUSH2 0x5713 JUMPI PUSH1 0x0 DUP1 REVERT JUMPDEST PUSH1 0x0 DUP1 PUSH1 0x40 DUP4 DUP6 SUB SLT ISZERO PUSH2 0x5898 JUMPI PUSH1 0x0 DUP1 REVERT JUMPDEST DUP3 CALLDATALOAD PUSH2 0x58A3 DUP2 PUSH2 0x5725 JUMP JUMPDEST SWAP2 POP PUSH1 0x20 DUP4 ADD CALLDATALOAD PUSH2 0x58B3 DUP2 PUSH2 0x5725 JUMP JUMPDEST DUP1 SWAP2 POP POP SWAP3 POP SWAP3 SWAP1 POP JUMP JUMPDEST PUSH1 0x0 DUP1 PUSH1 0x0 PUSH1 0x60 DUP5 DUP7 SUB SLT ISZERO PUSH2 0x58D3 JUMPI PUSH1 0x0 DUP1 REVERT JUMPDEST DUP4 CALLDATALOAD PUSH2 0x58DE DUP2 PUSH2 0x5725 JUMP JUMPDEST SWAP3 POP PUSH1 0x20 DUP5 ADD CALLDATALOAD PUSH2 0x58EE DUP2 PUSH2 0x5725 JUMP JUMPDEST SWAP2 POP PUSH1 0x40 DUP5 ADD CALLDATALOAD PUSH2 0x58FE DUP2 PUSH2 0x5725 JUMP JUMPDEST DUP1 SWAP2 POP POP SWAP3 POP SWAP3 POP SWAP3 JUMP JUMPDEST PUSH1 0x1 DUP2 DUP2 SHR SWAP1 DUP3 AND DUP1 PUSH2 0x591D JUMPI PUSH1 0x7F DUP3 AND SWAP2 POP JUMPDEST PUSH1 0x20 DUP3 LT DUP2 EQ ISZERO PUSH2 0x593E JUMPI PUSH4 0x4E487B71 PUSH1 0xE0 SHL PUSH1 0x0 MSTORE PUSH1 0x22 PUSH1 0x4 MSTORE PUSH1 0x24 PUSH1 0x0 REVERT JUMPDEST POP SWAP2 SWAP1 POP JUMP JUMPDEST PUSH4 0x4E487B71 PUSH1 0xE0 SHL PUSH1 0x0 MSTORE PUSH1 0x11 PUSH1 0x4 MSTORE PUSH1 0x24 PUSH1 0x0 REVERT JUMPDEST PUSH1 0x0 DUP3 DUP3 LT ISZERO PUSH2 0x596C JUMPI PUSH2 0x596C PUSH2 0x5944 JUMP JUMPDEST POP SUB SWAP1 JUMP JUMPDEST PUSH4 0x4E487B71 PUSH1 0xE0 SHL PUSH1 0x0 MSTORE PUSH1 0x32 PUSH1 0x4 MSTORE PUSH1 0x24 PUSH1 0x0 REVERT JUMPDEST PUSH1 0x0 DUP3 NOT DUP3 GT ISZERO PUSH2 0x599A JUMPI PUSH2 0x599A PUSH2 0x5944 JUMP JUMPDEST POP ADD SWAP1 JUMP JUMPDEST PUSH1 0x0 PUSH1 0x0 NOT DUP3 EQ ISZERO PUSH2 0x59B3 JUMPI PUSH2 0x59B3 PUSH2 0x5944 JUMP JUMPDEST POP PUSH1 0x1 ADD SWAP1 JUMP JUMPDEST PUSH1 0x0 PUSH1 0x20 DUP3 DUP5 SUB SLT ISZERO PUSH2 0x59CC JUMPI PUSH1 0x0 DUP1 REVERT JUMPDEST DUP2 MLOAD PUSH2 0x30B1 DUP2 PUSH2 0x5725 JUMP JUMPDEST PUSH2 0x660 DUP2 ADD DUP2 DUP4 PUSH1 0x0 JUMPDEST PUSH1 0x33 DUP2 LT ISZERO PUSH2 0x5A00 JUMPI DUP2 MLOAD DUP4 MSTORE PUSH1 0x20 SWAP3 DUP4 ADD SWAP3 SWAP1 SWAP2 ADD SWAP1 PUSH1 0x1 ADD PUSH2 0x59E1 JUMP JUMPDEST POP POP POP SWAP3 SWAP2 POP POP JUMP JUMPDEST PUSH1 0x0 PUSH1 0x20 DUP3 DUP5 SUB SLT ISZERO PUSH2 0x5A1B JUMPI PUSH1 0x0 DUP1 REVERT JUMPDEST POP MLOAD SWAP2 SWAP1 POP JUMP JUMPDEST PUSH4 0x4E487B71 PUSH1 0xE0 SHL PUSH1 0x0 MSTORE PUSH1 0x12 PUSH1 0x4 MSTORE PUSH1 0x24 PUSH1 0x0 REVERT JUMPDEST PUSH1 0x0 DUP3 PUSH2 0x5A55 JUMPI PUSH4 0x4E487B71 PUSH1 0xE0 SHL PUSH1 0x0 MSTORE PUSH1 0x12 PUSH1 0x4 MSTORE PUSH1 0x24 PUSH1 0x0 REVERT JUMPDEST POP DIV SWAP1 JUMP JUMPDEST PUSH1 0x0 DUP2 PUSH1 0x0 NOT DIV DUP4 GT DUP3 ISZERO ISZERO AND ISZERO PUSH2 0x5A74 JUMPI PUSH2 0x5A74 PUSH2 0x5944 JUMP JUMPDEST POP MUL SWAP1 JUMP INVALID 0x4F PUSH24 0x6E61626C653A2063616C6C6572206973206E6F7420746865 KECCAK256 PUSH16 0x776E65725072697661746553616C653A KECCAK256 NUMBER PUSH2 0x6E6E PUSH16 0x742073756273747261637420746F7461 PUSH13 0x20616D6F756E74207769746820 PUSH4 0x6C61696D PUSH2 0x626C PUSH6 0xA26469706673 PC 0x22 SLT KECCAK256 0xBC 0xB3 GT PUSH16 0xE3DFFEB56C8EBC527C30F1E0D9C91FBD 0xC9 0xA5 SAR 0xEB DUP2 0x21 0xD1 0xBC CREATE2 0x2D DUP10 SWAP12 PUSH5 0x736F6C6343 STOP ADDMOD SIGNEXTEND STOP CALLER PUSH1 0xA0 PUSH1 0x40 MSTORE CALLVALUE DUP1 ISZERO PUSH2 0x10 JUMPI PUSH1 0x0 DUP1 REVERT JUMPDEST POP PUSH1 0x40 MLOAD PUSH2 0x5B2 CODESIZE SUB DUP1 PUSH2 0x5B2 DUP4 CODECOPY DUP2 ADD PUSH1 0x40 DUP2 SWAP1 MSTORE PUSH2 0x2F SWAP2 PUSH2 0x5C JUMP JUMPDEST PUSH1 0x0 SWAP2 SWAP1 SWAP2 SSTORE PUSH1 0x1 PUSH1 0x1 PUSH1 0xA0 SHL SUB AND PUSH1 0x80 MSTORE TIMESTAMP PUSH1 0x2 SSTORE PUSH1 0x1 DUP1 SLOAD PUSH1 0x1 PUSH1 0x1 PUSH1 0xA0 SHL SUB NOT AND CALLER OR SWAP1 SSTORE PUSH2 0x99 JUMP JUMPDEST PUSH1 0x0 DUP1 PUSH1 0x40 DUP4 DUP6 SUB SLT ISZERO PUSH2 0x6F JUMPI PUSH1 0x0 DUP1 REVERT JUMPDEST DUP3 MLOAD PUSH1 0x20 DUP5 ADD MLOAD SWAP1 SWAP3 POP PUSH1 0x1 PUSH1 0x1 PUSH1 0xA0 SHL SUB DUP2 AND DUP2 EQ PUSH2 0x8E JUMPI PUSH1 0x0 DUP1 REVERT JUMPDEST DUP1 SWAP2 POP POP SWAP3 POP SWAP3 SWAP1 POP JUMP JUMPDEST PUSH1 0x80 MLOAD PUSH2 0x4FF PUSH2 0xB3 PUSH1 0x0 CODECOPY PUSH1 0x0 PUSH1 0x71 ADD MSTORE PUSH2 0x4FF PUSH1 0x0 RETURN INVALID PUSH1 0x80 PUSH1 0x40 MSTORE CALLVALUE DUP1 ISZERO PUSH2 0x10 JUMPI PUSH1 0x0 DUP1 REVERT JUMPDEST POP PUSH1 0x4 CALLDATASIZE LT PUSH2 0x41 JUMPI PUSH1 0x0 CALLDATALOAD PUSH1 0xE0 SHR DUP1 PUSH4 0xA95606E EQ PUSH2 0x46 JUMPI DUP1 PUSH4 0x38AF3EED EQ PUSH2 0x6C JUMPI DUP1 PUSH4 0xC8CCA41E EQ PUSH2 0xB8 JUMPI JUMPDEST PUSH1 0x0 DUP1 REVERT JUMPDEST PUSH2 0x59 PUSH2 0x54 CALLDATASIZE PUSH1 0x4 PUSH2 0x319 JUMP JUMPDEST PUSH2 0xC2 JUMP JUMPDEST PUSH1 0x40 MLOAD SWAP1 DUP2 MSTORE PUSH1 0x20 ADD JUMPDEST PUSH1 0x40 MLOAD DUP1 SWAP2 SUB SWAP1 RETURN JUMPDEST PUSH2 0x93 PUSH32 0x0 DUP2 JUMP JUMPDEST PUSH1 0x40 MLOAD PUSH20 0xFFFFFFFFFFFFFFFFFFFFFFFFFFFFFFFFFFFFFFFF SWAP1 SWAP2 AND DUP2 MSTORE PUSH1 0x20 ADD PUSH2 0x63 JUMP JUMPDEST PUSH2 0xC0 PUSH2 0x1AD JUMP JUMPDEST STOP JUMPDEST PUSH1 0x0 PUSH2 0xCC PUSH2 0x1BB JUMP JUMPDEST PUSH1 0x0 DUP1 SLOAD GT PUSH2 0x122 JUMPI PUSH1 0x40 MLOAD PUSH3 0x461BCD PUSH1 0xE5 SHL DUP2 MSTORE PUSH1 0x20 PUSH1 0x4 DUP3 ADD MSTORE PUSH1 0x18 PUSH1 0x24 DUP3 ADD MSTORE PUSH32 0x4C6F636B61626C653A206E6F20746F6B656E73206C6566740000000000000000 PUSH1 0x44 DUP3 ADD MSTORE PUSH1 0x64 ADD JUMPDEST PUSH1 0x40 MLOAD DUP1 SWAP2 SUB SWAP1 REVERT JUMPDEST PUSH1 0x0 PUSH2 0x12D DUP4 PUSH2 0x224 JUMP JUMPDEST SWAP1 POP PUSH1 0x0 DUP2 GT PUSH2 0x17F JUMPI PUSH1 0x40 MLOAD PUSH3 0x461BCD PUSH1 0xE5 SHL DUP2 MSTORE PUSH1 0x20 PUSH1 0x4 DUP3 ADD MSTORE PUSH1 0x1E PUSH1 0x24 DUP3 ADD MSTORE PUSH32 0x4C6F636B61626C653A206E6F20746F6B656E7320746F2072656C656173650000 PUSH1 0x44 DUP3 ADD MSTORE PUSH1 0x64 ADD PUSH2 0x119 JUMP JUMPDEST PUSH2 0x1A4 PUSH1 0x0 SLOAD DUP3 PUSH1 0x40 MLOAD DUP1 PUSH1 0x60 ADD PUSH1 0x40 MSTORE DUP1 PUSH1 0x36 DUP2 MSTORE PUSH1 0x20 ADD PUSH2 0x494 PUSH1 0x36 SWAP2 CODECOPY PUSH2 0x2ED JUMP JUMPDEST PUSH1 0x0 SSTORE SWAP3 SWAP2 POP POP JUMP JUMPDEST PUSH2 0x1B5 PUSH2 0x1BB JUMP JUMPDEST TIMESTAMP PUSH1 0x2 SSTORE JUMP JUMPDEST PUSH1 0x1 SLOAD PUSH20 0xFFFFFFFFFFFFFFFFFFFFFFFFFFFFFFFFFFFFFFFF AND CALLER EQ PUSH2 0x222 JUMPI PUSH1 0x40 MLOAD PUSH3 0x461BCD PUSH1 0xE5 SHL DUP2 MSTORE PUSH1 0x20 PUSH1 0x4 DUP3 ADD MSTORE PUSH1 0x9 PUSH1 0x24 DUP3 ADD MSTORE PUSH32 0x4E6F74206F776E65720000000000000000000000000000000000000000000000 PUSH1 0x44 DUP3 ADD MSTORE PUSH1 0x64 ADD PUSH2 0x119 JUMP JUMPDEST JUMP JUMPDEST PUSH1 0x0 DUP1 PUSH3 0x278D00 PUSH1 0x2 SLOAD TIMESTAMP PUSH2 0x239 SWAP2 SWAP1 PUSH2 0x3BC JUMP JUMPDEST PUSH2 0x243 SWAP2 SWAP1 PUSH2 0x3D3 JUMP JUMPDEST PUSH1 0x3 SLOAD SWAP1 SWAP2 POP PUSH1 0x0 SWAP1 JUMPDEST PUSH1 0x37 DUP2 GT PUSH2 0x28A JUMPI DUP5 DUP2 PUSH1 0x33 DUP2 LT PUSH2 0x267 JUMPI PUSH2 0x267 PUSH2 0x3F5 JUMP JUMPDEST PUSH1 0x20 MUL ADD MLOAD PUSH2 0x276 SWAP1 DUP4 PUSH2 0x40B JUMP JUMPDEST SWAP2 POP DUP1 PUSH2 0x282 DUP2 PUSH2 0x423 JUMP JUMPDEST SWAP2 POP POP PUSH2 0x24D JUMP JUMPDEST POP PUSH2 0x296 DUP3 PUSH1 0x1 PUSH2 0x40B JUMP JUMPDEST PUSH1 0x3 SSTORE DUP1 PUSH2 0x2E6 JUMPI PUSH1 0x40 MLOAD PUSH3 0x461BCD PUSH1 0xE5 SHL DUP2 MSTORE PUSH1 0x20 PUSH1 0x4 DUP3 ADD MSTORE PUSH1 0x14 PUSH1 0x24 DUP3 ADD MSTORE PUSH32 0x4E6F7468696E6720746F20636C61696D20796574000000000000000000000000 PUSH1 0x44 DUP3 ADD MSTORE PUSH1 0x64 ADD PUSH2 0x119 JUMP JUMPDEST SWAP4 SWAP3 POP POP POP JUMP JUMPDEST PUSH1 0x0 DUP2 DUP5 DUP5 GT ISZERO PUSH2 0x311 JUMPI PUSH1 0x40 MLOAD PUSH3 0x461BCD PUSH1 0xE5 SHL DUP2 MSTORE PUSH1 0x4 ADD PUSH2 0x119 SWAP2 SWAP1 PUSH2 0x43E JUMP JUMPDEST POP POP POP SWAP1 SUB SWAP1 JUMP JUMPDEST PUSH1 0x0 PUSH2 0x660 DUP1 DUP4 DUP6 SUB SLT ISZERO PUSH2 0x32D JUMPI PUSH1 0x0 DUP1 REVERT JUMPDEST DUP4 PUSH1 0x1F DUP5 ADD SLT PUSH2 0x33C JUMPI PUSH1 0x0 DUP1 REVERT JUMPDEST PUSH1 0x40 MLOAD DUP2 DUP2 ADD DUP2 DUP2 LT PUSH8 0xFFFFFFFFFFFFFFFF DUP3 GT OR ISZERO PUSH2 0x36C JUMPI PUSH4 0x4E487B71 PUSH1 0xE0 SHL PUSH1 0x0 MSTORE PUSH1 0x41 PUSH1 0x4 MSTORE PUSH1 0x24 PUSH1 0x0 REVERT JUMPDEST PUSH1 0x40 MSTORE SWAP1 DUP4 ADD SWAP1 DUP1 DUP6 DUP4 GT ISZERO PUSH2 0x381 JUMPI PUSH1 0x0 DUP1 REVERT JUMPDEST DUP5 JUMPDEST DUP4 DUP2 LT ISZERO PUSH2 0x39B JUMPI DUP1 CALLDATALOAD DUP3 MSTORE PUSH1 0x20 SWAP2 DUP3 ADD SWAP2 ADD PUSH2 0x383 JUMP JUMPDEST POP SWAP1 SWAP6 SWAP5 POP POP POP POP POP JUMP JUMPDEST PUSH4 0x4E487B71 PUSH1 0xE0 SHL PUSH1 0x0 MSTORE PUSH1 0x11 PUSH1 0x4 MSTORE PUSH1 0x24 PUSH1 0x0 REVERT JUMPDEST PUSH1 0x0 DUP3 DUP3 LT ISZERO PUSH2 0x3CE JUMPI PUSH2 0x3CE PUSH2 0x3A6 JUMP JUMPDEST POP SUB SWAP1 JUMP JUMPDEST PUSH1 0x0 DUP3 PUSH2 0x3F0 JUMPI PUSH4 0x4E487B71 PUSH1 0xE0 SHL PUSH1 0x0 MSTORE PUSH1 0x12 PUSH1 0x4 MSTORE PUSH1 0x24 PUSH1 0x0 REVERT JUMPDEST POP DIV SWAP1 JUMP JUMPDEST PUSH4 0x4E487B71 PUSH1 0xE0 SHL PUSH1 0x0 MSTORE PUSH1 0x32 PUSH1 0x4 MSTORE PUSH1 0x24 PUSH1 0x0 REVERT JUMPDEST PUSH1 0x0 DUP3 NOT DUP3 GT ISZERO PUSH2 0x41E JUMPI PUSH2 0x41E PUSH2 0x3A6 JUMP JUMPDEST POP ADD SWAP1 JUMP JUMPDEST PUSH1 0x0 PUSH1 0x0 NOT DUP3 EQ ISZERO PUSH2 0x437 JUMPI PUSH2 0x437 PUSH2 0x3A6 JUMP JUMPDEST POP PUSH1 0x1 ADD SWAP1 JUMP JUMPDEST PUSH1 0x0 PUSH1 0x20 DUP1 DUP4 MSTORE DUP4 MLOAD DUP1 DUP3 DUP6 ADD MSTORE PUSH1 0x0 JUMPDEST DUP2 DUP2 LT ISZERO PUSH2 0x46B JUMPI DUP6 DUP2 ADD DUP4 ADD MLOAD DUP6 DUP3 ADD PUSH1 0x40 ADD MSTORE DUP3 ADD PUSH2 0x44F JUMP JUMPDEST DUP2 DUP2 GT ISZERO PUSH2 0x47D JUMPI PUSH1 0x0 PUSH1 0x40 DUP4 DUP8 ADD ADD MSTORE JUMPDEST POP PUSH1 0x1F ADD PUSH1 0x1F NOT AND SWAP3 SWAP1 SWAP3 ADD PUSH1 0x40 ADD SWAP4 SWAP3 POP POP POP JUMP INVALID 0x4C PUSH16 0x636B61626C653A2043616E6E6F742073 PUSH22 0x6273747261637420746F74616C20616D6F756E742077 PUSH10 0x746820636C61696D6162 PUSH13 0x65A2646970667358221220EE09 0xC5 GASLIMIT PUSH12 0xDD69A3D556A9BE26D7747AF4 SWAP14 0xB1 SELFBALANCE 0xD2 0x2C 0x25 STATICCALL DUP11 0xE7 DUP16 PUSH3 0x18A146 ORIGIN PUSH5 0x736F6C6343 STOP ADDMOD SIGNEXTEND STOP CALLER "
		},
		"gasEstimates": {
			"creation": {
				"codeDepositCost": "4660800",
				"executionCost": "infinite",
				"totalCost": "infinite"
			},
			"external": {
				"": "infinite",
				"addMultipleBeneficiary((address,uint256)[])": "infinite",
				"airdropRate()": "2397",
				"airdropSince()": "2351",
				"airdropStatus()": "2456",
				"airdropWeek()": "4647",
				"allowance(address,address)": "infinite",
				"approve(address,uint256)": "24665",
				"balanceOf(address)": "2632",
				"burn(uint256)": "50968",
				"burnFrom(address,uint256)": "infinite",
				"burnLiquidityReserve(uint256)": "infinite",
				"burnStakingReward(uint256)": "infinite",
				"changeAirdropPercentage(uint256)": "27150",
				"changePenaltyFee(uint256)": "27118",
				"changePrivatePlacementAddress(address)": "infinite",
				"changeStrategicPartnerAddress1(address,address,address)": "infinite",
				"changeTaxFee(uint8)": "infinite",
				"claimAirdrop()": "infinite",
				"claimPrivateSale()": "infinite",
				"daoProjectPool()": "2395",
				"decimals()": "258",
				"decreaseAllowance(address,uint256)": "26985",
				"deleteMultipleBeneficiary(address[])": "29184",
				"hasMultilockable()": "11339",
				"hasStake(address)": "infinite",
				"increaseAllowance(address,uint256)": "27074",
				"initiateLockedWalletprivateSale_Airdrop()": "infinite",
				"isVoter(address)": "2707",
				"lockedWalletStatus()": "2409",
				"mint(address,uint256)": "infinite",
				"mintLiquidityReserve(uint256)": "infinite",
				"mintStakingReward(uint256)": "infinite",
				"name()": "infinite",
				"owner()": "2435",
				"privateSale()": "2373",
				"privateSaleAmount()": "2419",
				"privateSaleStatus()": "2433",
				"privateSaleUsers()": "2352",
				"renounceOwnership()": "infinite",
				"retractVote()": "35459",
				"stake(uint256,uint256)": "infinite",
				"stakingPenaltyRate()": "2351",
				"stakingReward()": "2354",
				"startPrivateSale()": "2374",
				"symbol()": "infinite",
				"taxFee()": "2403",
				"totalSupply()": "2350",
				"totalVoters()": "2418",
				"transfer(address,uint256)": "infinite",
				"transferDAOPool(address,uint256)": "infinite",
				"transferFrom(address,address,uint256)": "infinite",
				"transferOwnership(address)": "infinite",
				"transferToDAOPool(uint256)": "49074",
				"unlockMarketingWallet_1()": "infinite",
				"unlockMarketingWallet_2()": "infinite",
				"unlockMarketingWallet_3()": "infinite",
				"unlockPrivatePlacementWallet()": "infinite",
				"unlockStrategicPartnerWallet_1()": "infinite",
				"unlockStrategicPartnerWallet_2()": "infinite",
				"unlockStrategicPartnerWallet_3()": "infinite",
				"unlockTeamAndProjectCoordinatorWallet_1()": "infinite",
				"unlockTeamAndProjectCoordinatorWallet_2()": "infinite",
				"unlockTeamAndProjectCoordinatorWallet_3()": "infinite",
				"vote()": "61874",
				"votedUsers(uint256)": "2539",
				"voters(address)": "2593",
				"withdrawStake()": "infinite"
			},
			"internal": {
				"_addThirdOfValue(uint256)": "infinite",
				"_approve(address,address,uint256)": "infinite",
				"_burn(address,uint256)": "infinite",
				"_checkBeneficiaryAmount(uint256)": "infinite",
				"_isLockedWalletInitiated()": "infinite",
				"_mintStakingReward(uint256)": "infinite",
				"_onlyWalletOwner(address)": "infinite",
				"_spendAllowance(address,address,uint256)": "infinite",
				"_transfer(address,address,uint256)": "infinite"
			}
		},
		"methodIdentifiers": {
			"addMultipleBeneficiary((address,uint256)[])": "078f522f",
			"airdropRate()": "8891cf0d",
			"airdropSince()": "b87da76d",
			"airdropStatus()": "2cf1a5fb",
			"airdropWeek()": "cbb3e152",
			"allowance(address,address)": "dd62ed3e",
			"approve(address,uint256)": "095ea7b3",
			"balanceOf(address)": "70a08231",
			"burn(uint256)": "42966c68",
			"burnFrom(address,uint256)": "79cc6790",
			"burnLiquidityReserve(uint256)": "8b7c64da",
			"burnStakingReward(uint256)": "0e1b09ed",
			"changeAirdropPercentage(uint256)": "d5dbdf1b",
			"changePenaltyFee(uint256)": "8c63f97f",
			"changePrivatePlacementAddress(address)": "a25a17a7",
			"changeStrategicPartnerAddress1(address,address,address)": "f0413bd4",
			"changeTaxFee(uint8)": "471a30a2",
			"claimAirdrop()": "5b88349d",
			"claimPrivateSale()": "7c2412f9",
			"daoProjectPool()": "bad4346c",
			"decimals()": "313ce567",
			"decreaseAllowance(address,uint256)": "a457c2d7",
			"deleteMultipleBeneficiary(address[])": "a1f780cf",
			"hasMultilockable()": "19ca147d",
			"hasStake(address)": "e73e14bf",
			"increaseAllowance(address,uint256)": "39509351",
			"initiateLockedWalletprivateSale_Airdrop()": "96bc0687",
			"isVoter(address)": "a7771ee3",
			"lockedWalletStatus()": "e88c326f",
			"mint(address,uint256)": "40c10f19",
			"mintLiquidityReserve(uint256)": "d94d4ad6",
			"mintStakingReward(uint256)": "a169c515",
			"name()": "06fdde03",
			"owner()": "8da5cb5b",
			"privateSale()": "ba1f879f",
			"privateSaleAmount()": "8b2b423a",
			"privateSaleStatus()": "376d441c",
			"privateSaleUsers()": "549dee0b",
			"renounceOwnership()": "715018a6",
			"retractVote()": "070c8b74",
			"stake(uint256,uint256)": "7b0472f0",
			"stakingPenaltyRate()": "cb79c2e1",
			"stakingReward()": "042249bb",
			"startPrivateSale()": "338dbf59",
			"symbol()": "95d89b41",
			"taxFee()": "a071dcf4",
			"totalSupply()": "18160ddd",
			"totalVoters()": "5f5300ff",
			"transfer(address,uint256)": "a9059cbb",
			"transferDAOPool(address,uint256)": "8d4a3c85",
			"transferFrom(address,address,uint256)": "23b872dd",
			"transferOwnership(address)": "f2fde38b",
			"transferToDAOPool(uint256)": "63a599a4",
			"unlockMarketingWallet_1()": "78dc9315",
			"unlockMarketingWallet_2()": "7bb4e320",
			"unlockMarketingWallet_3()": "0ec5aa1a",
			"unlockPrivatePlacementWallet()": "934851ec",
			"unlockStrategicPartnerWallet_1()": "8378a875",
			"unlockStrategicPartnerWallet_2()": "15441bb9",
			"unlockStrategicPartnerWallet_3()": "883d9984",
			"unlockTeamAndProjectCoordinatorWallet_1()": "56029137",
			"unlockTeamAndProjectCoordinatorWallet_2()": "90a4c709",
			"unlockTeamAndProjectCoordinatorWallet_3()": "3f3ef2dc",
			"vote()": "632a9a52",
			"votedUsers(uint256)": "a143a5f2",
			"voters(address)": "a3ec138d",
			"withdrawStake()": "bed9d861"
		}
	},
	"abi": [
		{
			"inputs": [],
			"stateMutability": "nonpayable",
			"type": "constructor"
		},
		{
			"anonymous": false,
			"inputs": [
				{
					"indexed": true,
					"internalType": "address",
					"name": "from",
					"type": "address"
				},
				{
					"indexed": true,
					"internalType": "address",
					"name": "who",
					"type": "address"
				},
				{
					"indexed": false,
					"internalType": "uint256",
					"name": "amount",
					"type": "uint256"
				}
			],
			"name": "AddPrivateSale",
			"type": "event"
		},
		{
			"anonymous": false,
			"inputs": [
				{
					"indexed": false,
					"internalType": "uint256",
					"name": "amount",
					"type": "uint256"
				}
			],
			"name": "AirdropChanged",
			"type": "event"
		},
		{
			"anonymous": false,
			"inputs": [
				{
					"indexed": true,
					"internalType": "address",
					"name": "owner",
					"type": "address"
				},
				{
					"indexed": true,
					"internalType": "address",
					"name": "spender",
					"type": "address"
				},
				{
					"indexed": false,
					"internalType": "uint256",
					"name": "value",
					"type": "uint256"
				}
			],
			"name": "Approval",
			"type": "event"
		},
		{
			"anonymous": false,
			"inputs": [
				{
					"indexed": true,
					"internalType": "address",
					"name": "from",
					"type": "address"
				},
				{
					"indexed": false,
					"internalType": "uint256",
					"name": "amount",
					"type": "uint256"
				}
			],
			"name": "ChangeAirdropPercentage",
			"type": "event"
		},
		{
			"anonymous": false,
			"inputs": [
				{
					"indexed": true,
					"internalType": "address",
					"name": "who",
					"type": "address"
				},
				{
					"indexed": false,
					"internalType": "bool",
					"name": "status",
					"type": "bool"
				}
			],
			"name": "ChangeAirdropStatus",
			"type": "event"
		},
		{
			"anonymous": false,
			"inputs": [
				{
					"indexed": true,
					"internalType": "address",
					"name": "from",
					"type": "address"
				},
				{
					"indexed": false,
					"internalType": "uint256",
					"name": "amount",
					"type": "uint256"
				}
			],
			"name": "ChangePenaltyFee",
			"type": "event"
		},
		{
			"anonymous": false,
			"inputs": [
				{
					"indexed": true,
					"internalType": "address",
					"name": "to",
					"type": "address"
				}
			],
			"name": "ChangePrivatePlacementAddress",
			"type": "event"
		},
		{
			"anonymous": false,
			"inputs": [
				{
					"indexed": true,
					"internalType": "address",
					"name": "to1",
					"type": "address"
				},
				{
					"indexed": true,
					"internalType": "address",
					"name": "to2",
					"type": "address"
				},
				{
					"indexed": true,
					"internalType": "address",
					"name": "to3",
					"type": "address"
				}
			],
			"name": "ChangeStrategicPartnerAddress",
			"type": "event"
		},
		{
			"anonymous": false,
			"inputs": [
				{
					"indexed": true,
					"internalType": "address",
					"name": "who",
					"type": "address"
				},
				{
					"indexed": false,
					"internalType": "uint256",
					"name": "amount",
					"type": "uint256"
				}
			],
			"name": "ChangeTax",
			"type": "event"
		},
		{
			"anonymous": false,
			"inputs": [
				{
					"indexed": true,
					"internalType": "address",
					"name": "from",
					"type": "address"
				},
				{
					"indexed": true,
					"internalType": "address",
					"name": "who",
					"type": "address"
				}
			],
			"name": "DeletePrivateSale",
			"type": "event"
		},
		{
			"anonymous": false,
			"inputs": [
				{
					"indexed": true,
					"internalType": "address",
					"name": "from",
					"type": "address"
				}
			],
			"name": "InitiateLockedWallet",
			"type": "event"
		},
		{
			"anonymous": false,
			"inputs": [
				{
					"indexed": true,
					"internalType": "address",
					"name": "from",
					"type": "address"
				}
			],
			"name": "InitiatePrivateSale",
			"type": "event"
		},
		{
			"anonymous": false,
			"inputs": [
				{
					"indexed": true,
					"internalType": "address",
					"name": "previousOwner",
					"type": "address"
				},
				{
					"indexed": true,
					"internalType": "address",
					"name": "newOwner",
					"type": "address"
				}
			],
			"name": "OwnershipTransferred",
			"type": "event"
		},
		{
			"anonymous": false,
			"inputs": [
				{
					"indexed": false,
					"internalType": "uint256",
					"name": "amount",
					"type": "uint256"
				}
			],
			"name": "PenaltyChanged",
			"type": "event"
		},
		{
			"anonymous": false,
			"inputs": [
				{
					"indexed": true,
					"internalType": "address",
					"name": "user",
					"type": "address"
				},
				{
					"indexed": false,
					"internalType": "uint256",
					"name": "amount",
					"type": "uint256"
				},
				{
					"indexed": false,
					"internalType": "uint256",
					"name": "timestamp",
					"type": "uint256"
				},
				{
					"indexed": false,
					"internalType": "uint256",
					"name": "releaseTime",
					"type": "uint256"
				}
			],
			"name": "Staked",
			"type": "event"
		},
		{
			"anonymous": false,
			"inputs": [
				{
					"indexed": true,
					"internalType": "address",
					"name": "from",
					"type": "address"
				},
				{
					"indexed": true,
					"internalType": "address",
					"name": "to",
					"type": "address"
				},
				{
					"indexed": false,
					"internalType": "uint256",
					"name": "value",
					"type": "uint256"
				}
			],
			"name": "Transfer",
			"type": "event"
		},
		{
			"anonymous": false,
			"inputs": [
				{
					"indexed": true,
					"internalType": "address",
					"name": "from",
					"type": "address"
				},
				{
					"indexed": true,
					"internalType": "address",
					"name": "to",
					"type": "address"
				},
				{
					"indexed": false,
					"internalType": "uint256",
					"name": "amount",
					"type": "uint256"
				}
			],
			"name": "TransferStakingReward",
			"type": "event"
		},
		{
			"stateMutability": "payable",
			"type": "fallback"
		},
		{
			"inputs": [
				{
					"components": [
						{
							"internalType": "address",
							"name": "user",
							"type": "address"
						},
						{
							"internalType": "uint256",
							"name": "amount",
							"type": "uint256"
						}
					],
					"internalType": "struct TalaxToken.Beneficiary[]",
					"name": "benefs",
					"type": "tuple[]"
				}
			],
			"name": "addMultipleBeneficiary",
			"outputs": [],
			"stateMutability": "nonpayable",
			"type": "function"
		},
		{
			"inputs": [],
			"name": "airdropRate",
			"outputs": [
				{
					"internalType": "uint256",
					"name": "",
					"type": "uint256"
				}
			],
			"stateMutability": "view",
			"type": "function"
		},
		{
			"inputs": [],
			"name": "airdropSince",
			"outputs": [
				{
					"internalType": "uint256",
					"name": "",
					"type": "uint256"
				}
			],
			"stateMutability": "view",
			"type": "function"
		},
		{
			"inputs": [],
			"name": "airdropStatus",
			"outputs": [
				{
					"internalType": "bool",
					"name": "",
					"type": "bool"
				}
			],
			"stateMutability": "view",
			"type": "function"
		},
		{
			"inputs": [],
			"name": "airdropWeek",
			"outputs": [
				{
					"internalType": "uint256",
					"name": "",
					"type": "uint256"
				}
			],
			"stateMutability": "view",
			"type": "function"
		},
		{
			"inputs": [
				{
					"internalType": "address",
					"name": "owner",
					"type": "address"
				},
				{
					"internalType": "address",
					"name": "spender",
					"type": "address"
				}
			],
			"name": "allowance",
			"outputs": [
				{
					"internalType": "uint256",
					"name": "",
					"type": "uint256"
				}
			],
			"stateMutability": "view",
			"type": "function"
		},
		{
			"inputs": [
				{
					"internalType": "address",
					"name": "spender",
					"type": "address"
				},
				{
					"internalType": "uint256",
					"name": "amount",
					"type": "uint256"
				}
			],
			"name": "approve",
			"outputs": [
				{
					"internalType": "bool",
					"name": "",
					"type": "bool"
				}
			],
			"stateMutability": "nonpayable",
			"type": "function"
		},
		{
			"inputs": [
				{
					"internalType": "address",
					"name": "account",
					"type": "address"
				}
			],
			"name": "balanceOf",
			"outputs": [
				{
					"internalType": "uint256",
					"name": "",
					"type": "uint256"
				}
			],
			"stateMutability": "view",
			"type": "function"
		},
		{
			"inputs": [
				{
					"internalType": "uint256",
					"name": "amount",
					"type": "uint256"
				}
			],
			"name": "burn",
			"outputs": [],
			"stateMutability": "nonpayable",
			"type": "function"
		},
		{
			"inputs": [
				{
					"internalType": "address",
					"name": "account",
					"type": "address"
				},
				{
					"internalType": "uint256",
					"name": "amount",
					"type": "uint256"
				}
			],
			"name": "burnFrom",
			"outputs": [],
			"stateMutability": "nonpayable",
			"type": "function"
		},
		{
			"inputs": [
				{
					"internalType": "uint256",
					"name": "amount_",
					"type": "uint256"
				}
			],
			"name": "burnLiquidityReserve",
			"outputs": [],
			"stateMutability": "nonpayable",
			"type": "function"
		},
		{
			"inputs": [
				{
					"internalType": "uint256",
					"name": "amount_",
					"type": "uint256"
				}
			],
			"name": "burnStakingReward",
			"outputs": [],
			"stateMutability": "nonpayable",
			"type": "function"
		},
		{
			"inputs": [
				{
					"internalType": "uint256",
					"name": "airdrop_",
					"type": "uint256"
				}
			],
			"name": "changeAirdropPercentage",
			"outputs": [],
			"stateMutability": "nonpayable",
			"type": "function"
		},
		{
			"inputs": [
				{
					"internalType": "uint256",
					"name": "penaltyFee_",
					"type": "uint256"
				}
			],
			"name": "changePenaltyFee",
			"outputs": [],
			"stateMutability": "nonpayable",
			"type": "function"
		},
		{
			"inputs": [
				{
					"internalType": "address",
					"name": "_input",
					"type": "address"
				}
			],
			"name": "changePrivatePlacementAddress",
			"outputs": [],
			"stateMutability": "nonpayable",
			"type": "function"
		},
		{
			"inputs": [
				{
					"internalType": "address",
					"name": "address1",
					"type": "address"
				},
				{
					"internalType": "address",
					"name": "address2",
					"type": "address"
				},
				{
					"internalType": "address",
					"name": "address3",
					"type": "address"
				}
			],
			"name": "changeStrategicPartnerAddress1",
			"outputs": [],
			"stateMutability": "nonpayable",
			"type": "function"
		},
		{
			"inputs": [
				{
					"internalType": "uint8",
					"name": "taxFee_",
					"type": "uint8"
				}
			],
			"name": "changeTaxFee",
			"outputs": [],
			"stateMutability": "nonpayable",
			"type": "function"
		},
		{
			"inputs": [],
			"name": "claimAirdrop",
			"outputs": [],
			"stateMutability": "nonpayable",
			"type": "function"
		},
		{
			"inputs": [],
			"name": "claimPrivateSale",
			"outputs": [],
			"stateMutability": "nonpayable",
			"type": "function"
		},
		{
			"inputs": [],
			"name": "daoProjectPool",
			"outputs": [
				{
					"internalType": "uint256",
					"name": "",
					"type": "uint256"
				}
			],
			"stateMutability": "view",
			"type": "function"
		},
		{
			"inputs": [],
			"name": "decimals",
			"outputs": [
				{
					"internalType": "uint8",
					"name": "",
					"type": "uint8"
				}
			],
			"stateMutability": "view",
			"type": "function"
		},
		{
			"inputs": [
				{
					"internalType": "address",
					"name": "spender",
					"type": "address"
				},
				{
					"internalType": "uint256",
					"name": "subtractedValue",
					"type": "uint256"
				}
			],
			"name": "decreaseAllowance",
			"outputs": [
				{
					"internalType": "bool",
					"name": "",
					"type": "bool"
				}
			],
			"stateMutability": "nonpayable",
			"type": "function"
		},
		{
			"inputs": [
				{
					"internalType": "address[]",
					"name": "benefs",
					"type": "address[]"
				}
			],
			"name": "deleteMultipleBeneficiary",
			"outputs": [],
			"stateMutability": "nonpayable",
			"type": "function"
		},
		{
			"inputs": [],
			"name": "hasMultilockable",
			"outputs": [
				{
					"components": [
						{
							"internalType": "uint256",
							"name": "lockedAmount",
							"type": "uint256"
						},
						{
							"internalType": "uint256",
							"name": "amount",
							"type": "uint256"
						},
						{
							"internalType": "bool",
							"name": "phase_1_claimed",
							"type": "bool"
						},
						{
							"internalType": "uint256",
							"name": "latestClaimDay",
							"type": "uint256"
						}
					],
					"internalType": "struct Multilockable.Multilock",
					"name": "",
					"type": "tuple"
				}
			],
			"stateMutability": "view",
			"type": "function"
		},
		{
			"inputs": [
				{
					"internalType": "address",
					"name": "_staker",
					"type": "address"
				}
			],
			"name": "hasStake",
			"outputs": [
				{
					"components": [
						{
							"internalType": "uint256",
							"name": "total_amount",
							"type": "uint256"
						},
						{
							"internalType": "uint256",
							"name": "penalty",
							"type": "uint256"
						},
						{
							"components": [
								{
									"internalType": "address",
									"name": "user",
									"type": "address"
								},
								{
									"internalType": "uint256",
									"name": "amount",
									"type": "uint256"
								},
								{
									"internalType": "uint256",
									"name": "since",
									"type": "uint256"
								},
								{
									"internalType": "uint256",
									"name": "claimable",
									"type": "uint256"
								},
								{
									"internalType": "uint256",
									"name": "claimable_airdrop",
									"type": "uint256"
								},
								{
									"internalType": "uint256",
									"name": "rewardAPY",
									"type": "uint256"
								},
								{
									"internalType": "uint256",
									"name": "releaseTime",
									"type": "uint256"
								}
							],
							"internalType": "struct Stakable.Stake",
							"name": "stake",
							"type": "tuple"
						}
					],
					"internalType": "struct Stakable.StakingSummary",
					"name": "",
					"type": "tuple"
				}
			],
			"stateMutability": "view",
			"type": "function"
		},
		{
			"inputs": [
				{
					"internalType": "address",
					"name": "spender",
					"type": "address"
				},
				{
					"internalType": "uint256",
					"name": "addedValue",
					"type": "uint256"
				}
			],
			"name": "increaseAllowance",
			"outputs": [
				{
					"internalType": "bool",
					"name": "",
					"type": "bool"
				}
			],
			"stateMutability": "nonpayable",
			"type": "function"
		},
		{
			"inputs": [],
			"name": "initiateLockedWalletprivateSale_Airdrop",
			"outputs": [],
			"stateMutability": "nonpayable",
			"type": "function"
		},
		{
			"inputs": [
				{
					"internalType": "address",
					"name": "_staker",
					"type": "address"
				}
			],
			"name": "isVoter",
			"outputs": [
				{
					"internalType": "bool",
					"name": "",
					"type": "bool"
				}
			],
			"stateMutability": "view",
			"type": "function"
		},
		{
			"inputs": [],
			"name": "lockedWalletStatus",
			"outputs": [
				{
					"internalType": "bool",
					"name": "",
					"type": "bool"
				}
			],
			"stateMutability": "view",
			"type": "function"
		},
		{
			"inputs": [
				{
					"internalType": "address",
					"name": "to",
					"type": "address"
				},
				{
					"internalType": "uint256",
					"name": "amount",
					"type": "uint256"
				}
			],
			"name": "mint",
			"outputs": [],
			"stateMutability": "nonpayable",
			"type": "function"
		},
		{
			"inputs": [
				{
					"internalType": "uint256",
					"name": "amount_",
					"type": "uint256"
				}
			],
			"name": "mintLiquidityReserve",
			"outputs": [],
			"stateMutability": "nonpayable",
			"type": "function"
		},
		{
			"inputs": [
				{
					"internalType": "uint256",
					"name": "amount_",
					"type": "uint256"
				}
			],
			"name": "mintStakingReward",
			"outputs": [],
			"stateMutability": "nonpayable",
			"type": "function"
		},
		{
			"inputs": [],
			"name": "name",
			"outputs": [
				{
					"internalType": "string",
					"name": "",
					"type": "string"
				}
			],
			"stateMutability": "view",
			"type": "function"
		},
		{
			"inputs": [],
			"name": "owner",
			"outputs": [
				{
					"internalType": "address",
					"name": "",
					"type": "address"
				}
			],
			"stateMutability": "view",
			"type": "function"
		},
		{
			"inputs": [],
			"name": "privateSale",
			"outputs": [
				{
					"internalType": "uint256",
					"name": "",
					"type": "uint256"
				}
			],
			"stateMutability": "view",
			"type": "function"
		},
		{
			"inputs": [],
			"name": "privateSaleAmount",
			"outputs": [
				{
					"internalType": "uint256",
					"name": "",
					"type": "uint256"
				}
			],
			"stateMutability": "view",
			"type": "function"
		},
		{
			"inputs": [],
			"name": "privateSaleStatus",
			"outputs": [
				{
					"internalType": "bool",
					"name": "",
					"type": "bool"
				}
			],
			"stateMutability": "view",
			"type": "function"
		},
		{
			"inputs": [],
			"name": "privateSaleUsers",
			"outputs": [
				{
					"internalType": "uint256",
					"name": "",
					"type": "uint256"
				}
			],
			"stateMutability": "view",
			"type": "function"
		},
		{
			"inputs": [],
			"name": "renounceOwnership",
			"outputs": [],
			"stateMutability": "nonpayable",
			"type": "function"
		},
		{
			"inputs": [],
			"name": "retractVote",
			"outputs": [],
			"stateMutability": "nonpayable",
			"type": "function"
		},
		{
			"inputs": [
				{
					"internalType": "uint256",
					"name": "_amount",
					"type": "uint256"
				},
				{
					"internalType": "uint256",
					"name": "_stakePeriod",
					"type": "uint256"
				}
			],
			"name": "stake",
			"outputs": [],
			"stateMutability": "nonpayable",
			"type": "function"
		},
		{
			"inputs": [],
			"name": "stakingPenaltyRate",
			"outputs": [
				{
					"internalType": "uint256",
					"name": "",
					"type": "uint256"
				}
			],
			"stateMutability": "view",
			"type": "function"
		},
		{
			"inputs": [],
			"name": "stakingReward",
			"outputs": [
				{
					"internalType": "uint256",
					"name": "",
					"type": "uint256"
				}
			],
			"stateMutability": "view",
			"type": "function"
		},
		{
			"inputs": [],
			"name": "startPrivateSale",
			"outputs": [
				{
					"internalType": "uint256",
					"name": "",
					"type": "uint256"
				}
			],
			"stateMutability": "view",
			"type": "function"
		},
		{
			"inputs": [],
			"name": "symbol",
			"outputs": [
				{
					"internalType": "string",
					"name": "",
					"type": "string"
				}
			],
			"stateMutability": "view",
			"type": "function"
		},
		{
			"inputs": [],
			"name": "taxFee",
			"outputs": [
				{
					"internalType": "uint8",
					"name": "",
					"type": "uint8"
				}
			],
			"stateMutability": "view",
			"type": "function"
		},
		{
			"inputs": [],
			"name": "totalSupply",
			"outputs": [
				{
					"internalType": "uint256",
					"name": "",
					"type": "uint256"
				}
			],
			"stateMutability": "view",
			"type": "function"
		},
		{
			"inputs": [],
			"name": "totalVoters",
			"outputs": [
				{
					"internalType": "uint256",
					"name": "",
					"type": "uint256"
				}
			],
			"stateMutability": "view",
			"type": "function"
		},
		{
			"inputs": [
				{
					"internalType": "address",
					"name": "to",
					"type": "address"
				},
				{
					"internalType": "uint256",
					"name": "amount",
					"type": "uint256"
				}
			],
			"name": "transfer",
			"outputs": [
				{
					"internalType": "bool",
					"name": "",
					"type": "bool"
				}
			],
			"stateMutability": "nonpayable",
			"type": "function"
		},
		{
			"inputs": [
				{
					"internalType": "address",
					"name": "to_",
					"type": "address"
				},
				{
					"internalType": "uint256",
					"name": "amount_",
					"type": "uint256"
				}
			],
			"name": "transferDAOPool",
			"outputs": [],
			"stateMutability": "nonpayable",
			"type": "function"
		},
		{
			"inputs": [
				{
					"internalType": "address",
					"name": "from",
					"type": "address"
				},
				{
					"internalType": "address",
					"name": "to",
					"type": "address"
				},
				{
					"internalType": "uint256",
					"name": "amount",
					"type": "uint256"
				}
			],
			"name": "transferFrom",
			"outputs": [
				{
					"internalType": "bool",
					"name": "",
					"type": "bool"
				}
			],
			"stateMutability": "nonpayable",
			"type": "function"
		},
		{
			"inputs": [
				{
					"internalType": "address",
					"name": "newOwner",
					"type": "address"
				}
			],
			"name": "transferOwnership",
			"outputs": [],
			"stateMutability": "nonpayable",
			"type": "function"
		},
		{
			"inputs": [
				{
					"internalType": "uint256",
					"name": "amount_",
					"type": "uint256"
				}
			],
			"name": "transferToDAOPool",
			"outputs": [],
			"stateMutability": "nonpayable",
			"type": "function"
		},
		{
			"inputs": [],
			"name": "unlockMarketingWallet_1",
			"outputs": [],
			"stateMutability": "nonpayable",
			"type": "function"
		},
		{
			"inputs": [],
			"name": "unlockMarketingWallet_2",
			"outputs": [],
			"stateMutability": "nonpayable",
			"type": "function"
		},
		{
			"inputs": [],
			"name": "unlockMarketingWallet_3",
			"outputs": [],
			"stateMutability": "nonpayable",
			"type": "function"
		},
		{
			"inputs": [],
			"name": "unlockPrivatePlacementWallet",
			"outputs": [],
			"stateMutability": "nonpayable",
			"type": "function"
		},
		{
			"inputs": [],
			"name": "unlockStrategicPartnerWallet_1",
			"outputs": [],
			"stateMutability": "nonpayable",
			"type": "function"
		},
		{
			"inputs": [],
			"name": "unlockStrategicPartnerWallet_2",
			"outputs": [],
			"stateMutability": "nonpayable",
			"type": "function"
		},
		{
			"inputs": [],
			"name": "unlockStrategicPartnerWallet_3",
			"outputs": [],
			"stateMutability": "nonpayable",
			"type": "function"
		},
		{
			"inputs": [],
			"name": "unlockTeamAndProjectCoordinatorWallet_1",
			"outputs": [],
			"stateMutability": "nonpayable",
			"type": "function"
		},
		{
			"inputs": [],
			"name": "unlockTeamAndProjectCoordinatorWallet_2",
			"outputs": [],
			"stateMutability": "nonpayable",
			"type": "function"
		},
		{
			"inputs": [],
			"name": "unlockTeamAndProjectCoordinatorWallet_3",
			"outputs": [],
			"stateMutability": "nonpayable",
			"type": "function"
		},
		{
			"inputs": [],
			"name": "vote",
			"outputs": [],
			"stateMutability": "nonpayable",
			"type": "function"
		},
		{
			"inputs": [
				{
					"internalType": "uint256",
					"name": "",
					"type": "uint256"
				}
			],
			"name": "votedUsers",
			"outputs": [
				{
					"internalType": "uint256",
					"name": "",
					"type": "uint256"
				}
			],
			"stateMutability": "view",
			"type": "function"
		},
		{
			"inputs": [
				{
					"internalType": "address",
					"name": "",
					"type": "address"
				}
			],
			"name": "voters",
			"outputs": [
				{
					"internalType": "bool",
					"name": "votingRight",
					"type": "bool"
				}
			],
			"stateMutability": "view",
			"type": "function"
		},
		{
			"inputs": [],
			"name": "withdrawStake",
			"outputs": [],
			"stateMutability": "nonpayable",
			"type": "function"
		},
		{
			"stateMutability": "payable",
			"type": "receive"
		}
	]
}