{
	"data": {
		"bytecode": {
			"linkReferences": {},
			"object": "610100604052604051620016e4380380620016e483398181016040528101906200002a91906200020d565b600073ffffffffffffffffffffffffffffffffffffffff168473ffffffffffffffffffffffffffffffffffffffff1614156200009d576040517f08c379a0000000000000000000000000000000000000000000000000000000008152600401620000949062000306565b60405180910390fd5b8373ffffffffffffffffffffffffffffffffffffffff1660808173ffffffffffffffffffffffffffffffffffffffff168152505062278d0082620000e2919062000357565b67ffffffffffffffff1660e08167ffffffffffffffff168152505062278d00816200010e919062000357565b67ffffffffffffffff1660c08167ffffffffffffffff168152505060c05183620001399190620003a0565b67ffffffffffffffff1660a08167ffffffffffffffff168152505050505050620003e5565b600080fd5b600073ffffffffffffffffffffffffffffffffffffffff82169050919050565b6000620001908262000163565b9050919050565b620001a28162000183565b8114620001ae57600080fd5b50565b600081519050620001c28162000197565b92915050565b600067ffffffffffffffff82169050919050565b620001e781620001c8565b8114620001f357600080fd5b50565b6000815190506200020781620001dc565b92915050565b600080600080608085870312156200022a57620002296200015e565b5b60006200023a87828801620001b1565b94505060206200024d87828801620001f6565b93505060406200026087828801620001f6565b92505060606200027387828801620001f6565b91505092959194509250565b600082825260208201905092915050565b7f56657374696e6757616c6c65743a2062656e6566696369617279206973207a6560008201527f726f206164647265737300000000000000000000000000000000000000000000602082015250565b6000620002ee602a836200027f565b9150620002fb8262000290565b604082019050919050565b600060208201905081810360008301526200032181620002df565b9050919050565b7f4e487b7100000000000000000000000000000000000000000000000000000000600052601160045260246000fd5b60006200036482620001c8565b91506200037183620001c8565b92508167ffffffffffffffff048311821515161562000395576200039462000328565b5b828202905092915050565b6000620003ad82620001c8565b9150620003ba83620001c8565b92508267ffffffffffffffff03821115620003da57620003d962000328565b5b828201905092915050565b60805160a05160c05160e0516112c86200041c60003960006102e001526000505060006105a8015260006103f901526112c86000f3fe6080604052600436106100a05760003560e01c806386d1a69f1161006457806386d1a69f146101a557806396132521146101bc5780639852595c146101e7578063a3f8eace14610224578063be9a655514610261578063fbccedae1461028c576100a7565b80630a17b06b146100ac5780630fb5a6b4146100e9578063191655871461011457806338af3eed1461013d578063810ec23b14610168576100a7565b366100a757005b600080fd5b3480156100b857600080fd5b506100d360048036038101906100ce9190610b00565b6102b7565b6040516100e09190610b46565b60405180910390f35b3480156100f557600080fd5b506100fe6102dc565b60405161010b9190610b46565b60405180910390f35b34801561012057600080fd5b5061013b60048036038101906101369190610bbf565b61030e565b005b34801561014957600080fd5b506101526103f5565b60405161015f9190610bfb565b60405180910390f35b34801561017457600080fd5b5061018f600480360381019061018a9190610c16565b61041d565b60405161019c9190610b46565b60405180910390f35b3480156101b157600080fd5b506101ba6104bd565b005b3480156101c857600080fd5b506101d161052c565b6040516101de9190610b46565b60405180910390f35b3480156101f357600080fd5b5061020e60048036038101906102099190610bbf565b610535565b60405161021b9190610b46565b60405180910390f35b34801561023057600080fd5b5061024b60048036038101906102469190610bbf565b61057e565b6040516102589190610b46565b60405180910390f35b34801561026d57600080fd5b506102766105a4565b6040516102839190610b46565b60405180910390f35b34801561029857600080fd5b506102a16105d6565b6040516102ae9190610b46565b60405180910390f35b60006102d56102c461052c565b476102cf9190610c85565b836105f8565b9050919050565b60007f000000000000000000000000000000000000000000000000000000000000000067ffffffffffffffff16905090565b60006103198261057e565b9050600254610326610692565b11156103f157610334610692565b60028190555080600160008473ffffffffffffffffffffffffffffffffffffffff1673ffffffffffffffffffffffffffffffffffffffff16815260200190815260200160002060008282546103899190610c85565b925050819055508173ffffffffffffffffffffffffffffffffffffffff167fc0e523490dd523c33b1878c9eb14ff46991e3f5b2cd33710918618f2a39cba1b826040516103d69190610b46565b60405180910390a26103f0826103ea6103f5565b836106c4565b5b5050565b60007f0000000000000000000000000000000000000000000000000000000000000000905090565b60006104b561042b84610535565b8473ffffffffffffffffffffffffffffffffffffffff166370a08231306040518263ffffffff1660e01b81526004016104649190610bfb565b602060405180830381865afa158015610481573d6000803e3d6000fd5b505050506040513d601f19601f820116820180604052508101906104a59190610d07565b6104af9190610c85565b836105f8565b905092915050565b60006104c76105d6565b9050806000808282546104da9190610c85565b925050819055507fda9d4e5f101b8b9b1c5b76d0c5a9f7923571acfc02376aa076b75a8c080c956b816040516105109190610b46565b60405180910390a16105296105236103f5565b8261074a565b50565b60008054905090565b6000600160008373ffffffffffffffffffffffffffffffffffffffff1673ffffffffffffffffffffffffffffffffffffffff168152602001908152602001600020549050919050565b600061058982610535565b610593834261041d565b61059d9190610d34565b9050919050565b60007f000000000000000000000000000000000000000000000000000000000000000067ffffffffffffffff16905090565b60006105e061052c565b6105e9426102b7565b6105f39190610d34565b905090565b60006106026105a4565b8267ffffffffffffffff16101561061c576000905061068c565b6106246102dc565b61062c6105a4565b6106369190610c85565b8267ffffffffffffffff16111561064f5782905061068c565b6106576102dc565b61065f6105a4565b8367ffffffffffffffff166106749190610d34565b8461067f9190610d68565b6106899190610df1565b90505b92915050565b600062278d006106a06105a4565b4267ffffffffffffffff166106b59190610d34565b6106bf9190610df1565b905090565b6107458363a9059cbb60e01b84846040516024016106e3929190610e22565b604051602081830303815290604052907bffffffffffffffffffffffffffffffffffffffffffffffffffffffff19166020820180517bffffffffffffffffffffffffffffffffffffffffffffffffffffffff838183161783525050505061083e565b505050565b8047101561078d576040517f08c379a000000000000000000000000000000000000000000000000000000000815260040161078490610ea8565b60405180910390fd5b60008273ffffffffffffffffffffffffffffffffffffffff16826040516107b390610ef9565b60006040518083038185875af1925050503d80600081146107f0576040519150601f19603f3d011682016040523d82523d6000602084013e6107f5565b606091505b5050905080610839576040517f08c379a000000000000000000000000000000000000000000000000000000000815260040161083090610f80565b60405180910390fd5b505050565b60006108a0826040518060400160405280602081526020017f5361666545524332303a206c6f772d6c6576656c2063616c6c206661696c65648152508573ffffffffffffffffffffffffffffffffffffffff166109059092919063ffffffff16565b905060008151111561090057808060200190518101906108c09190610fd8565b6108ff576040517f08c379a00000000000000000000000000000000000000000000000000000000081526004016108f690611077565b60405180910390fd5b5b505050565b6060610914848460008561091d565b90509392505050565b606082471015610962576040517f08c379a000000000000000000000000000000000000000000000000000000000815260040161095990611109565b60405180910390fd5b61096b85610a31565b6109aa576040517f08c379a00000000000000000000000000000000000000000000000000000000081526004016109a190611175565b60405180910390fd5b6000808673ffffffffffffffffffffffffffffffffffffffff1685876040516109d39190611204565b60006040518083038185875af1925050503d8060008114610a10576040519150601f19603f3d011682016040523d82523d6000602084013e610a15565b606091505b5091509150610a25828286610a54565b92505050949350505050565b6000808273ffffffffffffffffffffffffffffffffffffffff163b119050919050565b60608315610a6457829050610ab4565b600083511115610a775782518084602001fd5b816040517f08c379a0000000000000000000000000000000000000000000000000000000008152600401610aab9190611270565b60405180910390fd5b9392505050565b600080fd5b600067ffffffffffffffff82169050919050565b610add81610ac0565b8114610ae857600080fd5b50565b600081359050610afa81610ad4565b92915050565b600060208284031215610b1657610b15610abb565b5b6000610b2484828501610aeb565b91505092915050565b6000819050919050565b610b4081610b2d565b82525050565b6000602082019050610b5b6000830184610b37565b92915050565b600073ffffffffffffffffffffffffffffffffffffffff82169050919050565b6000610b8c82610b61565b9050919050565b610b9c81610b81565b8114610ba757600080fd5b50565b600081359050610bb981610b93565b92915050565b600060208284031215610bd557610bd4610abb565b5b6000610be384828501610baa565b91505092915050565b610bf581610b81565b82525050565b6000602082019050610c106000830184610bec565b92915050565b60008060408385031215610c2d57610c2c610abb565b5b6000610c3b85828601610baa565b9250506020610c4c85828601610aeb565b9150509250929050565b7f4e487b7100000000000000000000000000000000000000000000000000000000600052601160045260246000fd5b6000610c9082610b2d565b9150610c9b83610b2d565b9250827fffffffffffffffffffffffffffffffffffffffffffffffffffffffffffffffff03821115610cd057610ccf610c56565b5b828201905092915050565b610ce481610b2d565b8114610cef57600080fd5b50565b600081519050610d0181610cdb565b92915050565b600060208284031215610d1d57610d1c610abb565b5b6000610d2b84828501610cf2565b91505092915050565b6000610d3f82610b2d565b9150610d4a83610b2d565b925082821015610d5d57610d5c610c56565b5b828203905092915050565b6000610d7382610b2d565b9150610d7e83610b2d565b9250817fffffffffffffffffffffffffffffffffffffffffffffffffffffffffffffffff0483118215151615610db757610db6610c56565b5b828202905092915050565b7f4e487b7100000000000000000000000000000000000000000000000000000000600052601260045260246000fd5b6000610dfc82610b2d565b9150610e0783610b2d565b925082610e1757610e16610dc2565b5b828204905092915050565b6000604082019050610e376000830185610bec565b610e446020830184610b37565b9392505050565b600082825260208201905092915050565b7f416464726573733a20696e73756666696369656e742062616c616e6365000000600082015250565b6000610e92601d83610e4b565b9150610e9d82610e5c565b602082019050919050565b60006020820190508181036000830152610ec181610e85565b9050919050565b600081905092915050565b50565b6000610ee3600083610ec8565b9150610eee82610ed3565b600082019050919050565b6000610f0482610ed6565b9150819050919050565b7f416464726573733a20756e61626c6520746f2073656e642076616c75652c207260008201527f6563697069656e74206d61792068617665207265766572746564000000000000602082015250565b6000610f6a603a83610e4b565b9150610f7582610f0e565b604082019050919050565b60006020820190508181036000830152610f9981610f5d565b9050919050565b60008115159050919050565b610fb581610fa0565b8114610fc057600080fd5b50565b600081519050610fd281610fac565b92915050565b600060208284031215610fee57610fed610abb565b5b6000610ffc84828501610fc3565b91505092915050565b7f5361666545524332303a204552433230206f7065726174696f6e20646964206e60008201527f6f74207375636365656400000000000000000000000000000000000000000000602082015250565b6000611061602a83610e4b565b915061106c82611005565b604082019050919050565b6000602082019050818103600083015261109081611054565b9050919050565b7f416464726573733a20696e73756666696369656e742062616c616e636520666f60008201527f722063616c6c0000000000000000000000000000000000000000000000000000602082015250565b60006110f3602683610e4b565b91506110fe82611097565b604082019050919050565b60006020820190508181036000830152611122816110e6565b9050919050565b7f416464726573733a2063616c6c20746f206e6f6e2d636f6e7472616374000000600082015250565b600061115f601d83610e4b565b915061116a82611129565b602082019050919050565b6000602082019050818103600083015261118e81611152565b9050919050565b600081519050919050565b60005b838110156111be5780820151818401526020810190506111a3565b838111156111cd576000848401525b50505050565b60006111de82611195565b6111e88185610ec8565b93506111f88185602086016111a0565b80840191505092915050565b600061121082846111d3565b915081905092915050565b600081519050919050565b6000601f19601f8301169050919050565b60006112428261121b565b61124c8185610e4b565b935061125c8185602086016111a0565b61126581611226565b840191505092915050565b6000602082019050818103600083015261128a8184611237565b90509291505056fea2646970667358221220fe7fddb0b032195a19d86aee618eab27f1ecc7fd5c70ddf62c3e1494a242ffd264736f6c634300080b0033",
			"opcodes": "PUSH2 0x100 PUSH1 0x40 MSTORE PUSH1 0x40 MLOAD PUSH3 0x16E4 CODESIZE SUB DUP1 PUSH3 0x16E4 DUP4 CODECOPY DUP2 DUP2 ADD PUSH1 0x40 MSTORE DUP2 ADD SWAP1 PUSH3 0x2A SWAP2 SWAP1 PUSH3 0x20D JUMP JUMPDEST PUSH1 0x0 PUSH20 0xFFFFFFFFFFFFFFFFFFFFFFFFFFFFFFFFFFFFFFFF AND DUP5 PUSH20 0xFFFFFFFFFFFFFFFFFFFFFFFFFFFFFFFFFFFFFFFF AND EQ ISZERO PUSH3 0x9D JUMPI PUSH1 0x40 MLOAD PUSH32 0x8C379A000000000000000000000000000000000000000000000000000000000 DUP2 MSTORE PUSH1 0x4 ADD PUSH3 0x94 SWAP1 PUSH3 0x306 JUMP JUMPDEST PUSH1 0x40 MLOAD DUP1 SWAP2 SUB SWAP1 REVERT JUMPDEST DUP4 PUSH20 0xFFFFFFFFFFFFFFFFFFFFFFFFFFFFFFFFFFFFFFFF AND PUSH1 0x80 DUP2 PUSH20 0xFFFFFFFFFFFFFFFFFFFFFFFFFFFFFFFFFFFFFFFF AND DUP2 MSTORE POP POP PUSH3 0x278D00 DUP3 PUSH3 0xE2 SWAP2 SWAP1 PUSH3 0x357 JUMP JUMPDEST PUSH8 0xFFFFFFFFFFFFFFFF AND PUSH1 0xE0 DUP2 PUSH8 0xFFFFFFFFFFFFFFFF AND DUP2 MSTORE POP POP PUSH3 0x278D00 DUP2 PUSH3 0x10E SWAP2 SWAP1 PUSH3 0x357 JUMP JUMPDEST PUSH8 0xFFFFFFFFFFFFFFFF AND PUSH1 0xC0 DUP2 PUSH8 0xFFFFFFFFFFFFFFFF AND DUP2 MSTORE POP POP PUSH1 0xC0 MLOAD DUP4 PUSH3 0x139 SWAP2 SWAP1 PUSH3 0x3A0 JUMP JUMPDEST PUSH8 0xFFFFFFFFFFFFFFFF AND PUSH1 0xA0 DUP2 PUSH8 0xFFFFFFFFFFFFFFFF AND DUP2 MSTORE POP POP POP POP POP POP PUSH3 0x3E5 JUMP JUMPDEST PUSH1 0x0 DUP1 REVERT JUMPDEST PUSH1 0x0 PUSH20 0xFFFFFFFFFFFFFFFFFFFFFFFFFFFFFFFFFFFFFFFF DUP3 AND SWAP1 POP SWAP2 SWAP1 POP JUMP JUMPDEST PUSH1 0x0 PUSH3 0x190 DUP3 PUSH3 0x163 JUMP JUMPDEST SWAP1 POP SWAP2 SWAP1 POP JUMP JUMPDEST PUSH3 0x1A2 DUP2 PUSH3 0x183 JUMP JUMPDEST DUP2 EQ PUSH3 0x1AE JUMPI PUSH1 0x0 DUP1 REVERT JUMPDEST POP JUMP JUMPDEST PUSH1 0x0 DUP2 MLOAD SWAP1 POP PUSH3 0x1C2 DUP2 PUSH3 0x197 JUMP JUMPDEST SWAP3 SWAP2 POP POP JUMP JUMPDEST PUSH1 0x0 PUSH8 0xFFFFFFFFFFFFFFFF DUP3 AND SWAP1 POP SWAP2 SWAP1 POP JUMP JUMPDEST PUSH3 0x1E7 DUP2 PUSH3 0x1C8 JUMP JUMPDEST DUP2 EQ PUSH3 0x1F3 JUMPI PUSH1 0x0 DUP1 REVERT JUMPDEST POP JUMP JUMPDEST PUSH1 0x0 DUP2 MLOAD SWAP1 POP PUSH3 0x207 DUP2 PUSH3 0x1DC JUMP JUMPDEST SWAP3 SWAP2 POP POP JUMP JUMPDEST PUSH1 0x0 DUP1 PUSH1 0x0 DUP1 PUSH1 0x80 DUP6 DUP8 SUB SLT ISZERO PUSH3 0x22A JUMPI PUSH3 0x229 PUSH3 0x15E JUMP JUMPDEST JUMPDEST PUSH1 0x0 PUSH3 0x23A DUP8 DUP3 DUP9 ADD PUSH3 0x1B1 JUMP JUMPDEST SWAP5 POP POP PUSH1 0x20 PUSH3 0x24D DUP8 DUP3 DUP9 ADD PUSH3 0x1F6 JUMP JUMPDEST SWAP4 POP POP PUSH1 0x40 PUSH3 0x260 DUP8 DUP3 DUP9 ADD PUSH3 0x1F6 JUMP JUMPDEST SWAP3 POP POP PUSH1 0x60 PUSH3 0x273 DUP8 DUP3 DUP9 ADD PUSH3 0x1F6 JUMP JUMPDEST SWAP2 POP POP SWAP3 SWAP6 SWAP2 SWAP5 POP SWAP3 POP JUMP JUMPDEST PUSH1 0x0 DUP3 DUP3 MSTORE PUSH1 0x20 DUP3 ADD SWAP1 POP SWAP3 SWAP2 POP POP JUMP JUMPDEST PUSH32 0x56657374696E6757616C6C65743A2062656E6566696369617279206973207A65 PUSH1 0x0 DUP3 ADD MSTORE PUSH32 0x726F206164647265737300000000000000000000000000000000000000000000 PUSH1 0x20 DUP3 ADD MSTORE POP JUMP JUMPDEST PUSH1 0x0 PUSH3 0x2EE PUSH1 0x2A DUP4 PUSH3 0x27F JUMP JUMPDEST SWAP2 POP PUSH3 0x2FB DUP3 PUSH3 0x290 JUMP JUMPDEST PUSH1 0x40 DUP3 ADD SWAP1 POP SWAP2 SWAP1 POP JUMP JUMPDEST PUSH1 0x0 PUSH1 0x20 DUP3 ADD SWAP1 POP DUP2 DUP2 SUB PUSH1 0x0 DUP4 ADD MSTORE PUSH3 0x321 DUP2 PUSH3 0x2DF JUMP JUMPDEST SWAP1 POP SWAP2 SWAP1 POP JUMP JUMPDEST PUSH32 0x4E487B7100000000000000000000000000000000000000000000000000000000 PUSH1 0x0 MSTORE PUSH1 0x11 PUSH1 0x4 MSTORE PUSH1 0x24 PUSH1 0x0 REVERT JUMPDEST PUSH1 0x0 PUSH3 0x364 DUP3 PUSH3 0x1C8 JUMP JUMPDEST SWAP2 POP PUSH3 0x371 DUP4 PUSH3 0x1C8 JUMP JUMPDEST SWAP3 POP DUP2 PUSH8 0xFFFFFFFFFFFFFFFF DIV DUP4 GT DUP3 ISZERO ISZERO AND ISZERO PUSH3 0x395 JUMPI PUSH3 0x394 PUSH3 0x328 JUMP JUMPDEST JUMPDEST DUP3 DUP3 MUL SWAP1 POP SWAP3 SWAP2 POP POP JUMP JUMPDEST PUSH1 0x0 PUSH3 0x3AD DUP3 PUSH3 0x1C8 JUMP JUMPDEST SWAP2 POP PUSH3 0x3BA DUP4 PUSH3 0x1C8 JUMP JUMPDEST SWAP3 POP DUP3 PUSH8 0xFFFFFFFFFFFFFFFF SUB DUP3 GT ISZERO PUSH3 0x3DA JUMPI PUSH3 0x3D9 PUSH3 0x328 JUMP JUMPDEST JUMPDEST DUP3 DUP3 ADD SWAP1 POP SWAP3 SWAP2 POP POP JUMP JUMPDEST PUSH1 0x80 MLOAD PUSH1 0xA0 MLOAD PUSH1 0xC0 MLOAD PUSH1 0xE0 MLOAD PUSH2 0x12C8 PUSH3 0x41C PUSH1 0x0 CODECOPY PUSH1 0x0 PUSH2 0x2E0 ADD MSTORE PUSH1 0x0 POP POP PUSH1 0x0 PUSH2 0x5A8 ADD MSTORE PUSH1 0x0 PUSH2 0x3F9 ADD MSTORE PUSH2 0x12C8 PUSH1 0x0 RETURN INVALID PUSH1 0x80 PUSH1 0x40 MSTORE PUSH1 0x4 CALLDATASIZE LT PUSH2 0xA0 JUMPI PUSH1 0x0 CALLDATALOAD PUSH1 0xE0 SHR DUP1 PUSH4 0x86D1A69F GT PUSH2 0x64 JUMPI DUP1 PUSH4 0x86D1A69F EQ PUSH2 0x1A5 JUMPI DUP1 PUSH4 0x96132521 EQ PUSH2 0x1BC JUMPI DUP1 PUSH4 0x9852595C EQ PUSH2 0x1E7 JUMPI DUP1 PUSH4 0xA3F8EACE EQ PUSH2 0x224 JUMPI DUP1 PUSH4 0xBE9A6555 EQ PUSH2 0x261 JUMPI DUP1 PUSH4 0xFBCCEDAE EQ PUSH2 0x28C JUMPI PUSH2 0xA7 JUMP JUMPDEST DUP1 PUSH4 0xA17B06B EQ PUSH2 0xAC JUMPI DUP1 PUSH4 0xFB5A6B4 EQ PUSH2 0xE9 JUMPI DUP1 PUSH4 0x19165587 EQ PUSH2 0x114 JUMPI DUP1 PUSH4 0x38AF3EED EQ PUSH2 0x13D JUMPI DUP1 PUSH4 0x810EC23B EQ PUSH2 0x168 JUMPI PUSH2 0xA7 JUMP JUMPDEST CALLDATASIZE PUSH2 0xA7 JUMPI STOP JUMPDEST PUSH1 0x0 DUP1 REVERT JUMPDEST CALLVALUE DUP1 ISZERO PUSH2 0xB8 JUMPI PUSH1 0x0 DUP1 REVERT JUMPDEST POP PUSH2 0xD3 PUSH1 0x4 DUP1 CALLDATASIZE SUB DUP2 ADD SWAP1 PUSH2 0xCE SWAP2 SWAP1 PUSH2 0xB00 JUMP JUMPDEST PUSH2 0x2B7 JUMP JUMPDEST PUSH1 0x40 MLOAD PUSH2 0xE0 SWAP2 SWAP1 PUSH2 0xB46 JUMP JUMPDEST PUSH1 0x40 MLOAD DUP1 SWAP2 SUB SWAP1 RETURN JUMPDEST CALLVALUE DUP1 ISZERO PUSH2 0xF5 JUMPI PUSH1 0x0 DUP1 REVERT JUMPDEST POP PUSH2 0xFE PUSH2 0x2DC JUMP JUMPDEST PUSH1 0x40 MLOAD PUSH2 0x10B SWAP2 SWAP1 PUSH2 0xB46 JUMP JUMPDEST PUSH1 0x40 MLOAD DUP1 SWAP2 SUB SWAP1 RETURN JUMPDEST CALLVALUE DUP1 ISZERO PUSH2 0x120 JUMPI PUSH1 0x0 DUP1 REVERT JUMPDEST POP PUSH2 0x13B PUSH1 0x4 DUP1 CALLDATASIZE SUB DUP2 ADD SWAP1 PUSH2 0x136 SWAP2 SWAP1 PUSH2 0xBBF JUMP JUMPDEST PUSH2 0x30E JUMP JUMPDEST STOP JUMPDEST CALLVALUE DUP1 ISZERO PUSH2 0x149 JUMPI PUSH1 0x0 DUP1 REVERT JUMPDEST POP PUSH2 0x152 PUSH2 0x3F5 JUMP JUMPDEST PUSH1 0x40 MLOAD PUSH2 0x15F SWAP2 SWAP1 PUSH2 0xBFB JUMP JUMPDEST PUSH1 0x40 MLOAD DUP1 SWAP2 SUB SWAP1 RETURN JUMPDEST CALLVALUE DUP1 ISZERO PUSH2 0x174 JUMPI PUSH1 0x0 DUP1 REVERT JUMPDEST POP PUSH2 0x18F PUSH1 0x4 DUP1 CALLDATASIZE SUB DUP2 ADD SWAP1 PUSH2 0x18A SWAP2 SWAP1 PUSH2 0xC16 JUMP JUMPDEST PUSH2 0x41D JUMP JUMPDEST PUSH1 0x40 MLOAD PUSH2 0x19C SWAP2 SWAP1 PUSH2 0xB46 JUMP JUMPDEST PUSH1 0x40 MLOAD DUP1 SWAP2 SUB SWAP1 RETURN JUMPDEST CALLVALUE DUP1 ISZERO PUSH2 0x1B1 JUMPI PUSH1 0x0 DUP1 REVERT JUMPDEST POP PUSH2 0x1BA PUSH2 0x4BD JUMP JUMPDEST STOP JUMPDEST CALLVALUE DUP1 ISZERO PUSH2 0x1C8 JUMPI PUSH1 0x0 DUP1 REVERT JUMPDEST POP PUSH2 0x1D1 PUSH2 0x52C JUMP JUMPDEST PUSH1 0x40 MLOAD PUSH2 0x1DE SWAP2 SWAP1 PUSH2 0xB46 JUMP JUMPDEST PUSH1 0x40 MLOAD DUP1 SWAP2 SUB SWAP1 RETURN JUMPDEST CALLVALUE DUP1 ISZERO PUSH2 0x1F3 JUMPI PUSH1 0x0 DUP1 REVERT JUMPDEST POP PUSH2 0x20E PUSH1 0x4 DUP1 CALLDATASIZE SUB DUP2 ADD SWAP1 PUSH2 0x209 SWAP2 SWAP1 PUSH2 0xBBF JUMP JUMPDEST PUSH2 0x535 JUMP JUMPDEST PUSH1 0x40 MLOAD PUSH2 0x21B SWAP2 SWAP1 PUSH2 0xB46 JUMP JUMPDEST PUSH1 0x40 MLOAD DUP1 SWAP2 SUB SWAP1 RETURN JUMPDEST CALLVALUE DUP1 ISZERO PUSH2 0x230 JUMPI PUSH1 0x0 DUP1 REVERT JUMPDEST POP PUSH2 0x24B PUSH1 0x4 DUP1 CALLDATASIZE SUB DUP2 ADD SWAP1 PUSH2 0x246 SWAP2 SWAP1 PUSH2 0xBBF JUMP JUMPDEST PUSH2 0x57E JUMP JUMPDEST PUSH1 0x40 MLOAD PUSH2 0x258 SWAP2 SWAP1 PUSH2 0xB46 JUMP JUMPDEST PUSH1 0x40 MLOAD DUP1 SWAP2 SUB SWAP1 RETURN JUMPDEST CALLVALUE DUP1 ISZERO PUSH2 0x26D JUMPI PUSH1 0x0 DUP1 REVERT JUMPDEST POP PUSH2 0x276 PUSH2 0x5A4 JUMP JUMPDEST PUSH1 0x40 MLOAD PUSH2 0x283 SWAP2 SWAP1 PUSH2 0xB46 JUMP JUMPDEST PUSH1 0x40 MLOAD DUP1 SWAP2 SUB SWAP1 RETURN JUMPDEST CALLVALUE DUP1 ISZERO PUSH2 0x298 JUMPI PUSH1 0x0 DUP1 REVERT JUMPDEST POP PUSH2 0x2A1 PUSH2 0x5D6 JUMP JUMPDEST PUSH1 0x40 MLOAD PUSH2 0x2AE SWAP2 SWAP1 PUSH2 0xB46 JUMP JUMPDEST PUSH1 0x40 MLOAD DUP1 SWAP2 SUB SWAP1 RETURN JUMPDEST PUSH1 0x0 PUSH2 0x2D5 PUSH2 0x2C4 PUSH2 0x52C JUMP JUMPDEST SELFBALANCE PUSH2 0x2CF SWAP2 SWAP1 PUSH2 0xC85 JUMP JUMPDEST DUP4 PUSH2 0x5F8 JUMP JUMPDEST SWAP1 POP SWAP2 SWAP1 POP JUMP JUMPDEST PUSH1 0x0 PUSH32 0x0 PUSH8 0xFFFFFFFFFFFFFFFF AND SWAP1 POP SWAP1 JUMP JUMPDEST PUSH1 0x0 PUSH2 0x319 DUP3 PUSH2 0x57E JUMP JUMPDEST SWAP1 POP PUSH1 0x2 SLOAD PUSH2 0x326 PUSH2 0x692 JUMP JUMPDEST GT ISZERO PUSH2 0x3F1 JUMPI PUSH2 0x334 PUSH2 0x692 JUMP JUMPDEST PUSH1 0x2 DUP2 SWAP1 SSTORE POP DUP1 PUSH1 0x1 PUSH1 0x0 DUP5 PUSH20 0xFFFFFFFFFFFFFFFFFFFFFFFFFFFFFFFFFFFFFFFF AND PUSH20 0xFFFFFFFFFFFFFFFFFFFFFFFFFFFFFFFFFFFFFFFF AND DUP2 MSTORE PUSH1 0x20 ADD SWAP1 DUP2 MSTORE PUSH1 0x20 ADD PUSH1 0x0 KECCAK256 PUSH1 0x0 DUP3 DUP3 SLOAD PUSH2 0x389 SWAP2 SWAP1 PUSH2 0xC85 JUMP JUMPDEST SWAP3 POP POP DUP2 SWAP1 SSTORE POP DUP2 PUSH20 0xFFFFFFFFFFFFFFFFFFFFFFFFFFFFFFFFFFFFFFFF AND PUSH32 0xC0E523490DD523C33B1878C9EB14FF46991E3F5B2CD33710918618F2A39CBA1B DUP3 PUSH1 0x40 MLOAD PUSH2 0x3D6 SWAP2 SWAP1 PUSH2 0xB46 JUMP JUMPDEST PUSH1 0x40 MLOAD DUP1 SWAP2 SUB SWAP1 LOG2 PUSH2 0x3F0 DUP3 PUSH2 0x3EA PUSH2 0x3F5 JUMP JUMPDEST DUP4 PUSH2 0x6C4 JUMP JUMPDEST JUMPDEST POP POP JUMP JUMPDEST PUSH1 0x0 PUSH32 0x0 SWAP1 POP SWAP1 JUMP JUMPDEST PUSH1 0x0 PUSH2 0x4B5 PUSH2 0x42B DUP5 PUSH2 0x535 JUMP JUMPDEST DUP5 PUSH20 0xFFFFFFFFFFFFFFFFFFFFFFFFFFFFFFFFFFFFFFFF AND PUSH4 0x70A08231 ADDRESS PUSH1 0x40 MLOAD DUP3 PUSH4 0xFFFFFFFF AND PUSH1 0xE0 SHL DUP2 MSTORE PUSH1 0x4 ADD PUSH2 0x464 SWAP2 SWAP1 PUSH2 0xBFB JUMP JUMPDEST PUSH1 0x20 PUSH1 0x40 MLOAD DUP1 DUP4 SUB DUP2 DUP7 GAS STATICCALL ISZERO DUP1 ISZERO PUSH2 0x481 JUMPI RETURNDATASIZE PUSH1 0x0 DUP1 RETURNDATACOPY RETURNDATASIZE PUSH1 0x0 REVERT JUMPDEST POP POP POP POP PUSH1 0x40 MLOAD RETURNDATASIZE PUSH1 0x1F NOT PUSH1 0x1F DUP3 ADD AND DUP3 ADD DUP1 PUSH1 0x40 MSTORE POP DUP2 ADD SWAP1 PUSH2 0x4A5 SWAP2 SWAP1 PUSH2 0xD07 JUMP JUMPDEST PUSH2 0x4AF SWAP2 SWAP1 PUSH2 0xC85 JUMP JUMPDEST DUP4 PUSH2 0x5F8 JUMP JUMPDEST SWAP1 POP SWAP3 SWAP2 POP POP JUMP JUMPDEST PUSH1 0x0 PUSH2 0x4C7 PUSH2 0x5D6 JUMP JUMPDEST SWAP1 POP DUP1 PUSH1 0x0 DUP1 DUP3 DUP3 SLOAD PUSH2 0x4DA SWAP2 SWAP1 PUSH2 0xC85 JUMP JUMPDEST SWAP3 POP POP DUP2 SWAP1 SSTORE POP PUSH32 0xDA9D4E5F101B8B9B1C5B76D0C5A9F7923571ACFC02376AA076B75A8C080C956B DUP2 PUSH1 0x40 MLOAD PUSH2 0x510 SWAP2 SWAP1 PUSH2 0xB46 JUMP JUMPDEST PUSH1 0x40 MLOAD DUP1 SWAP2 SUB SWAP1 LOG1 PUSH2 0x529 PUSH2 0x523 PUSH2 0x3F5 JUMP JUMPDEST DUP3 PUSH2 0x74A JUMP JUMPDEST POP JUMP JUMPDEST PUSH1 0x0 DUP1 SLOAD SWAP1 POP SWAP1 JUMP JUMPDEST PUSH1 0x0 PUSH1 0x1 PUSH1 0x0 DUP4 PUSH20 0xFFFFFFFFFFFFFFFFFFFFFFFFFFFFFFFFFFFFFFFF AND PUSH20 0xFFFFFFFFFFFFFFFFFFFFFFFFFFFFFFFFFFFFFFFF AND DUP2 MSTORE PUSH1 0x20 ADD SWAP1 DUP2 MSTORE PUSH1 0x20 ADD PUSH1 0x0 KECCAK256 SLOAD SWAP1 POP SWAP2 SWAP1 POP JUMP JUMPDEST PUSH1 0x0 PUSH2 0x589 DUP3 PUSH2 0x535 JUMP JUMPDEST PUSH2 0x593 DUP4 TIMESTAMP PUSH2 0x41D JUMP JUMPDEST PUSH2 0x59D SWAP2 SWAP1 PUSH2 0xD34 JUMP JUMPDEST SWAP1 POP SWAP2 SWAP1 POP JUMP JUMPDEST PUSH1 0x0 PUSH32 0x0 PUSH8 0xFFFFFFFFFFFFFFFF AND SWAP1 POP SWAP1 JUMP JUMPDEST PUSH1 0x0 PUSH2 0x5E0 PUSH2 0x52C JUMP JUMPDEST PUSH2 0x5E9 TIMESTAMP PUSH2 0x2B7 JUMP JUMPDEST PUSH2 0x5F3 SWAP2 SWAP1 PUSH2 0xD34 JUMP JUMPDEST SWAP1 POP SWAP1 JUMP JUMPDEST PUSH1 0x0 PUSH2 0x602 PUSH2 0x5A4 JUMP JUMPDEST DUP3 PUSH8 0xFFFFFFFFFFFFFFFF AND LT ISZERO PUSH2 0x61C JUMPI PUSH1 0x0 SWAP1 POP PUSH2 0x68C JUMP JUMPDEST PUSH2 0x624 PUSH2 0x2DC JUMP JUMPDEST PUSH2 0x62C PUSH2 0x5A4 JUMP JUMPDEST PUSH2 0x636 SWAP2 SWAP1 PUSH2 0xC85 JUMP JUMPDEST DUP3 PUSH8 0xFFFFFFFFFFFFFFFF AND GT ISZERO PUSH2 0x64F JUMPI DUP3 SWAP1 POP PUSH2 0x68C JUMP JUMPDEST PUSH2 0x657 PUSH2 0x2DC JUMP JUMPDEST PUSH2 0x65F PUSH2 0x5A4 JUMP JUMPDEST DUP4 PUSH8 0xFFFFFFFFFFFFFFFF AND PUSH2 0x674 SWAP2 SWAP1 PUSH2 0xD34 JUMP JUMPDEST DUP5 PUSH2 0x67F SWAP2 SWAP1 PUSH2 0xD68 JUMP JUMPDEST PUSH2 0x689 SWAP2 SWAP1 PUSH2 0xDF1 JUMP JUMPDEST SWAP1 POP JUMPDEST SWAP3 SWAP2 POP POP JUMP JUMPDEST PUSH1 0x0 PUSH3 0x278D00 PUSH2 0x6A0 PUSH2 0x5A4 JUMP JUMPDEST TIMESTAMP PUSH8 0xFFFFFFFFFFFFFFFF AND PUSH2 0x6B5 SWAP2 SWAP1 PUSH2 0xD34 JUMP JUMPDEST PUSH2 0x6BF SWAP2 SWAP1 PUSH2 0xDF1 JUMP JUMPDEST SWAP1 POP SWAP1 JUMP JUMPDEST PUSH2 0x745 DUP4 PUSH4 0xA9059CBB PUSH1 0xE0 SHL DUP5 DUP5 PUSH1 0x40 MLOAD PUSH1 0x24 ADD PUSH2 0x6E3 SWAP3 SWAP2 SWAP1 PUSH2 0xE22 JUMP JUMPDEST PUSH1 0x40 MLOAD PUSH1 0x20 DUP2 DUP4 SUB SUB DUP2 MSTORE SWAP1 PUSH1 0x40 MSTORE SWAP1 PUSH28 0xFFFFFFFFFFFFFFFFFFFFFFFFFFFFFFFFFFFFFFFFFFFFFFFFFFFFFFFF NOT AND PUSH1 0x20 DUP3 ADD DUP1 MLOAD PUSH28 0xFFFFFFFFFFFFFFFFFFFFFFFFFFFFFFFFFFFFFFFFFFFFFFFFFFFFFFFF DUP4 DUP2 DUP4 AND OR DUP4 MSTORE POP POP POP POP PUSH2 0x83E JUMP JUMPDEST POP POP POP JUMP JUMPDEST DUP1 SELFBALANCE LT ISZERO PUSH2 0x78D JUMPI PUSH1 0x40 MLOAD PUSH32 0x8C379A000000000000000000000000000000000000000000000000000000000 DUP2 MSTORE PUSH1 0x4 ADD PUSH2 0x784 SWAP1 PUSH2 0xEA8 JUMP JUMPDEST PUSH1 0x40 MLOAD DUP1 SWAP2 SUB SWAP1 REVERT JUMPDEST PUSH1 0x0 DUP3 PUSH20 0xFFFFFFFFFFFFFFFFFFFFFFFFFFFFFFFFFFFFFFFF AND DUP3 PUSH1 0x40 MLOAD PUSH2 0x7B3 SWAP1 PUSH2 0xEF9 JUMP JUMPDEST PUSH1 0x0 PUSH1 0x40 MLOAD DUP1 DUP4 SUB DUP2 DUP6 DUP8 GAS CALL SWAP3 POP POP POP RETURNDATASIZE DUP1 PUSH1 0x0 DUP2 EQ PUSH2 0x7F0 JUMPI PUSH1 0x40 MLOAD SWAP2 POP PUSH1 0x1F NOT PUSH1 0x3F RETURNDATASIZE ADD AND DUP3 ADD PUSH1 0x40 MSTORE RETURNDATASIZE DUP3 MSTORE RETURNDATASIZE PUSH1 0x0 PUSH1 0x20 DUP5 ADD RETURNDATACOPY PUSH2 0x7F5 JUMP JUMPDEST PUSH1 0x60 SWAP2 POP JUMPDEST POP POP SWAP1 POP DUP1 PUSH2 0x839 JUMPI PUSH1 0x40 MLOAD PUSH32 0x8C379A000000000000000000000000000000000000000000000000000000000 DUP2 MSTORE PUSH1 0x4 ADD PUSH2 0x830 SWAP1 PUSH2 0xF80 JUMP JUMPDEST PUSH1 0x40 MLOAD DUP1 SWAP2 SUB SWAP1 REVERT JUMPDEST POP POP POP JUMP JUMPDEST PUSH1 0x0 PUSH2 0x8A0 DUP3 PUSH1 0x40 MLOAD DUP1 PUSH1 0x40 ADD PUSH1 0x40 MSTORE DUP1 PUSH1 0x20 DUP2 MSTORE PUSH1 0x20 ADD PUSH32 0x5361666545524332303A206C6F772D6C6576656C2063616C6C206661696C6564 DUP2 MSTORE POP DUP6 PUSH20 0xFFFFFFFFFFFFFFFFFFFFFFFFFFFFFFFFFFFFFFFF AND PUSH2 0x905 SWAP1 SWAP3 SWAP2 SWAP1 PUSH4 0xFFFFFFFF AND JUMP JUMPDEST SWAP1 POP PUSH1 0x0 DUP2 MLOAD GT ISZERO PUSH2 0x900 JUMPI DUP1 DUP1 PUSH1 0x20 ADD SWAP1 MLOAD DUP2 ADD SWAP1 PUSH2 0x8C0 SWAP2 SWAP1 PUSH2 0xFD8 JUMP JUMPDEST PUSH2 0x8FF JUMPI PUSH1 0x40 MLOAD PUSH32 0x8C379A000000000000000000000000000000000000000000000000000000000 DUP2 MSTORE PUSH1 0x4 ADD PUSH2 0x8F6 SWAP1 PUSH2 0x1077 JUMP JUMPDEST PUSH1 0x40 MLOAD DUP1 SWAP2 SUB SWAP1 REVERT JUMPDEST JUMPDEST POP POP POP JUMP JUMPDEST PUSH1 0x60 PUSH2 0x914 DUP5 DUP5 PUSH1 0x0 DUP6 PUSH2 0x91D JUMP JUMPDEST SWAP1 POP SWAP4 SWAP3 POP POP POP JUMP JUMPDEST PUSH1 0x60 DUP3 SELFBALANCE LT ISZERO PUSH2 0x962 JUMPI PUSH1 0x40 MLOAD PUSH32 0x8C379A000000000000000000000000000000000000000000000000000000000 DUP2 MSTORE PUSH1 0x4 ADD PUSH2 0x959 SWAP1 PUSH2 0x1109 JUMP JUMPDEST PUSH1 0x40 MLOAD DUP1 SWAP2 SUB SWAP1 REVERT JUMPDEST PUSH2 0x96B DUP6 PUSH2 0xA31 JUMP JUMPDEST PUSH2 0x9AA JUMPI PUSH1 0x40 MLOAD PUSH32 0x8C379A000000000000000000000000000000000000000000000000000000000 DUP2 MSTORE PUSH1 0x4 ADD PUSH2 0x9A1 SWAP1 PUSH2 0x1175 JUMP JUMPDEST PUSH1 0x40 MLOAD DUP1 SWAP2 SUB SWAP1 REVERT JUMPDEST PUSH1 0x0 DUP1 DUP7 PUSH20 0xFFFFFFFFFFFFFFFFFFFFFFFFFFFFFFFFFFFFFFFF AND DUP6 DUP8 PUSH1 0x40 MLOAD PUSH2 0x9D3 SWAP2 SWAP1 PUSH2 0x1204 JUMP JUMPDEST PUSH1 0x0 PUSH1 0x40 MLOAD DUP1 DUP4 SUB DUP2 DUP6 DUP8 GAS CALL SWAP3 POP POP POP RETURNDATASIZE DUP1 PUSH1 0x0 DUP2 EQ PUSH2 0xA10 JUMPI PUSH1 0x40 MLOAD SWAP2 POP PUSH1 0x1F NOT PUSH1 0x3F RETURNDATASIZE ADD AND DUP3 ADD PUSH1 0x40 MSTORE RETURNDATASIZE DUP3 MSTORE RETURNDATASIZE PUSH1 0x0 PUSH1 0x20 DUP5 ADD RETURNDATACOPY PUSH2 0xA15 JUMP JUMPDEST PUSH1 0x60 SWAP2 POP JUMPDEST POP SWAP2 POP SWAP2 POP PUSH2 0xA25 DUP3 DUP3 DUP7 PUSH2 0xA54 JUMP JUMPDEST SWAP3 POP POP POP SWAP5 SWAP4 POP POP POP POP JUMP JUMPDEST PUSH1 0x0 DUP1 DUP3 PUSH20 0xFFFFFFFFFFFFFFFFFFFFFFFFFFFFFFFFFFFFFFFF AND EXTCODESIZE GT SWAP1 POP SWAP2 SWAP1 POP JUMP JUMPDEST PUSH1 0x60 DUP4 ISZERO PUSH2 0xA64 JUMPI DUP3 SWAP1 POP PUSH2 0xAB4 JUMP JUMPDEST PUSH1 0x0 DUP4 MLOAD GT ISZERO PUSH2 0xA77 JUMPI DUP3 MLOAD DUP1 DUP5 PUSH1 0x20 ADD REVERT JUMPDEST DUP2 PUSH1 0x40 MLOAD PUSH32 0x8C379A000000000000000000000000000000000000000000000000000000000 DUP2 MSTORE PUSH1 0x4 ADD PUSH2 0xAAB SWAP2 SWAP1 PUSH2 0x1270 JUMP JUMPDEST PUSH1 0x40 MLOAD DUP1 SWAP2 SUB SWAP1 REVERT JUMPDEST SWAP4 SWAP3 POP POP POP JUMP JUMPDEST PUSH1 0x0 DUP1 REVERT JUMPDEST PUSH1 0x0 PUSH8 0xFFFFFFFFFFFFFFFF DUP3 AND SWAP1 POP SWAP2 SWAP1 POP JUMP JUMPDEST PUSH2 0xADD DUP2 PUSH2 0xAC0 JUMP JUMPDEST DUP2 EQ PUSH2 0xAE8 JUMPI PUSH1 0x0 DUP1 REVERT JUMPDEST POP JUMP JUMPDEST PUSH1 0x0 DUP2 CALLDATALOAD SWAP1 POP PUSH2 0xAFA DUP2 PUSH2 0xAD4 JUMP JUMPDEST SWAP3 SWAP2 POP POP JUMP JUMPDEST PUSH1 0x0 PUSH1 0x20 DUP3 DUP5 SUB SLT ISZERO PUSH2 0xB16 JUMPI PUSH2 0xB15 PUSH2 0xABB JUMP JUMPDEST JUMPDEST PUSH1 0x0 PUSH2 0xB24 DUP5 DUP3 DUP6 ADD PUSH2 0xAEB JUMP JUMPDEST SWAP2 POP POP SWAP3 SWAP2 POP POP JUMP JUMPDEST PUSH1 0x0 DUP2 SWAP1 POP SWAP2 SWAP1 POP JUMP JUMPDEST PUSH2 0xB40 DUP2 PUSH2 0xB2D JUMP JUMPDEST DUP3 MSTORE POP POP JUMP JUMPDEST PUSH1 0x0 PUSH1 0x20 DUP3 ADD SWAP1 POP PUSH2 0xB5B PUSH1 0x0 DUP4 ADD DUP5 PUSH2 0xB37 JUMP JUMPDEST SWAP3 SWAP2 POP POP JUMP JUMPDEST PUSH1 0x0 PUSH20 0xFFFFFFFFFFFFFFFFFFFFFFFFFFFFFFFFFFFFFFFF DUP3 AND SWAP1 POP SWAP2 SWAP1 POP JUMP JUMPDEST PUSH1 0x0 PUSH2 0xB8C DUP3 PUSH2 0xB61 JUMP JUMPDEST SWAP1 POP SWAP2 SWAP1 POP JUMP JUMPDEST PUSH2 0xB9C DUP2 PUSH2 0xB81 JUMP JUMPDEST DUP2 EQ PUSH2 0xBA7 JUMPI PUSH1 0x0 DUP1 REVERT JUMPDEST POP JUMP JUMPDEST PUSH1 0x0 DUP2 CALLDATALOAD SWAP1 POP PUSH2 0xBB9 DUP2 PUSH2 0xB93 JUMP JUMPDEST SWAP3 SWAP2 POP POP JUMP JUMPDEST PUSH1 0x0 PUSH1 0x20 DUP3 DUP5 SUB SLT ISZERO PUSH2 0xBD5 JUMPI PUSH2 0xBD4 PUSH2 0xABB JUMP JUMPDEST JUMPDEST PUSH1 0x0 PUSH2 0xBE3 DUP5 DUP3 DUP6 ADD PUSH2 0xBAA JUMP JUMPDEST SWAP2 POP POP SWAP3 SWAP2 POP POP JUMP JUMPDEST PUSH2 0xBF5 DUP2 PUSH2 0xB81 JUMP JUMPDEST DUP3 MSTORE POP POP JUMP JUMPDEST PUSH1 0x0 PUSH1 0x20 DUP3 ADD SWAP1 POP PUSH2 0xC10 PUSH1 0x0 DUP4 ADD DUP5 PUSH2 0xBEC JUMP JUMPDEST SWAP3 SWAP2 POP POP JUMP JUMPDEST PUSH1 0x0 DUP1 PUSH1 0x40 DUP4 DUP6 SUB SLT ISZERO PUSH2 0xC2D JUMPI PUSH2 0xC2C PUSH2 0xABB JUMP JUMPDEST JUMPDEST PUSH1 0x0 PUSH2 0xC3B DUP6 DUP3 DUP7 ADD PUSH2 0xBAA JUMP JUMPDEST SWAP3 POP POP PUSH1 0x20 PUSH2 0xC4C DUP6 DUP3 DUP7 ADD PUSH2 0xAEB JUMP JUMPDEST SWAP2 POP POP SWAP3 POP SWAP3 SWAP1 POP JUMP JUMPDEST PUSH32 0x4E487B7100000000000000000000000000000000000000000000000000000000 PUSH1 0x0 MSTORE PUSH1 0x11 PUSH1 0x4 MSTORE PUSH1 0x24 PUSH1 0x0 REVERT JUMPDEST PUSH1 0x0 PUSH2 0xC90 DUP3 PUSH2 0xB2D JUMP JUMPDEST SWAP2 POP PUSH2 0xC9B DUP4 PUSH2 0xB2D JUMP JUMPDEST SWAP3 POP DUP3 PUSH32 0xFFFFFFFFFFFFFFFFFFFFFFFFFFFFFFFFFFFFFFFFFFFFFFFFFFFFFFFFFFFFFFFF SUB DUP3 GT ISZERO PUSH2 0xCD0 JUMPI PUSH2 0xCCF PUSH2 0xC56 JUMP JUMPDEST JUMPDEST DUP3 DUP3 ADD SWAP1 POP SWAP3 SWAP2 POP POP JUMP JUMPDEST PUSH2 0xCE4 DUP2 PUSH2 0xB2D JUMP JUMPDEST DUP2 EQ PUSH2 0xCEF JUMPI PUSH1 0x0 DUP1 REVERT JUMPDEST POP JUMP JUMPDEST PUSH1 0x0 DUP2 MLOAD SWAP1 POP PUSH2 0xD01 DUP2 PUSH2 0xCDB JUMP JUMPDEST SWAP3 SWAP2 POP POP JUMP JUMPDEST PUSH1 0x0 PUSH1 0x20 DUP3 DUP5 SUB SLT ISZERO PUSH2 0xD1D JUMPI PUSH2 0xD1C PUSH2 0xABB JUMP JUMPDEST JUMPDEST PUSH1 0x0 PUSH2 0xD2B DUP5 DUP3 DUP6 ADD PUSH2 0xCF2 JUMP JUMPDEST SWAP2 POP POP SWAP3 SWAP2 POP POP JUMP JUMPDEST PUSH1 0x0 PUSH2 0xD3F DUP3 PUSH2 0xB2D JUMP JUMPDEST SWAP2 POP PUSH2 0xD4A DUP4 PUSH2 0xB2D JUMP JUMPDEST SWAP3 POP DUP3 DUP3 LT ISZERO PUSH2 0xD5D JUMPI PUSH2 0xD5C PUSH2 0xC56 JUMP JUMPDEST JUMPDEST DUP3 DUP3 SUB SWAP1 POP SWAP3 SWAP2 POP POP JUMP JUMPDEST PUSH1 0x0 PUSH2 0xD73 DUP3 PUSH2 0xB2D JUMP JUMPDEST SWAP2 POP PUSH2 0xD7E DUP4 PUSH2 0xB2D JUMP JUMPDEST SWAP3 POP DUP2 PUSH32 0xFFFFFFFFFFFFFFFFFFFFFFFFFFFFFFFFFFFFFFFFFFFFFFFFFFFFFFFFFFFFFFFF DIV DUP4 GT DUP3 ISZERO ISZERO AND ISZERO PUSH2 0xDB7 JUMPI PUSH2 0xDB6 PUSH2 0xC56 JUMP JUMPDEST JUMPDEST DUP3 DUP3 MUL SWAP1 POP SWAP3 SWAP2 POP POP JUMP JUMPDEST PUSH32 0x4E487B7100000000000000000000000000000000000000000000000000000000 PUSH1 0x0 MSTORE PUSH1 0x12 PUSH1 0x4 MSTORE PUSH1 0x24 PUSH1 0x0 REVERT JUMPDEST PUSH1 0x0 PUSH2 0xDFC DUP3 PUSH2 0xB2D JUMP JUMPDEST SWAP2 POP PUSH2 0xE07 DUP4 PUSH2 0xB2D JUMP JUMPDEST SWAP3 POP DUP3 PUSH2 0xE17 JUMPI PUSH2 0xE16 PUSH2 0xDC2 JUMP JUMPDEST JUMPDEST DUP3 DUP3 DIV SWAP1 POP SWAP3 SWAP2 POP POP JUMP JUMPDEST PUSH1 0x0 PUSH1 0x40 DUP3 ADD SWAP1 POP PUSH2 0xE37 PUSH1 0x0 DUP4 ADD DUP6 PUSH2 0xBEC JUMP JUMPDEST PUSH2 0xE44 PUSH1 0x20 DUP4 ADD DUP5 PUSH2 0xB37 JUMP JUMPDEST SWAP4 SWAP3 POP POP POP JUMP JUMPDEST PUSH1 0x0 DUP3 DUP3 MSTORE PUSH1 0x20 DUP3 ADD SWAP1 POP SWAP3 SWAP2 POP POP JUMP JUMPDEST PUSH32 0x416464726573733A20696E73756666696369656E742062616C616E6365000000 PUSH1 0x0 DUP3 ADD MSTORE POP JUMP JUMPDEST PUSH1 0x0 PUSH2 0xE92 PUSH1 0x1D DUP4 PUSH2 0xE4B JUMP JUMPDEST SWAP2 POP PUSH2 0xE9D DUP3 PUSH2 0xE5C JUMP JUMPDEST PUSH1 0x20 DUP3 ADD SWAP1 POP SWAP2 SWAP1 POP JUMP JUMPDEST PUSH1 0x0 PUSH1 0x20 DUP3 ADD SWAP1 POP DUP2 DUP2 SUB PUSH1 0x0 DUP4 ADD MSTORE PUSH2 0xEC1 DUP2 PUSH2 0xE85 JUMP JUMPDEST SWAP1 POP SWAP2 SWAP1 POP JUMP JUMPDEST PUSH1 0x0 DUP2 SWAP1 POP SWAP3 SWAP2 POP POP JUMP JUMPDEST POP JUMP JUMPDEST PUSH1 0x0 PUSH2 0xEE3 PUSH1 0x0 DUP4 PUSH2 0xEC8 JUMP JUMPDEST SWAP2 POP PUSH2 0xEEE DUP3 PUSH2 0xED3 JUMP JUMPDEST PUSH1 0x0 DUP3 ADD SWAP1 POP SWAP2 SWAP1 POP JUMP JUMPDEST PUSH1 0x0 PUSH2 0xF04 DUP3 PUSH2 0xED6 JUMP JUMPDEST SWAP2 POP DUP2 SWAP1 POP SWAP2 SWAP1 POP JUMP JUMPDEST PUSH32 0x416464726573733A20756E61626C6520746F2073656E642076616C75652C2072 PUSH1 0x0 DUP3 ADD MSTORE PUSH32 0x6563697069656E74206D61792068617665207265766572746564000000000000 PUSH1 0x20 DUP3 ADD MSTORE POP JUMP JUMPDEST PUSH1 0x0 PUSH2 0xF6A PUSH1 0x3A DUP4 PUSH2 0xE4B JUMP JUMPDEST SWAP2 POP PUSH2 0xF75 DUP3 PUSH2 0xF0E JUMP JUMPDEST PUSH1 0x40 DUP3 ADD SWAP1 POP SWAP2 SWAP1 POP JUMP JUMPDEST PUSH1 0x0 PUSH1 0x20 DUP3 ADD SWAP1 POP DUP2 DUP2 SUB PUSH1 0x0 DUP4 ADD MSTORE PUSH2 0xF99 DUP2 PUSH2 0xF5D JUMP JUMPDEST SWAP1 POP SWAP2 SWAP1 POP JUMP JUMPDEST PUSH1 0x0 DUP2 ISZERO ISZERO SWAP1 POP SWAP2 SWAP1 POP JUMP JUMPDEST PUSH2 0xFB5 DUP2 PUSH2 0xFA0 JUMP JUMPDEST DUP2 EQ PUSH2 0xFC0 JUMPI PUSH1 0x0 DUP1 REVERT JUMPDEST POP JUMP JUMPDEST PUSH1 0x0 DUP2 MLOAD SWAP1 POP PUSH2 0xFD2 DUP2 PUSH2 0xFAC JUMP JUMPDEST SWAP3 SWAP2 POP POP JUMP JUMPDEST PUSH1 0x0 PUSH1 0x20 DUP3 DUP5 SUB SLT ISZERO PUSH2 0xFEE JUMPI PUSH2 0xFED PUSH2 0xABB JUMP JUMPDEST JUMPDEST PUSH1 0x0 PUSH2 0xFFC DUP5 DUP3 DUP6 ADD PUSH2 0xFC3 JUMP JUMPDEST SWAP2 POP POP SWAP3 SWAP2 POP POP JUMP JUMPDEST PUSH32 0x5361666545524332303A204552433230206F7065726174696F6E20646964206E PUSH1 0x0 DUP3 ADD MSTORE PUSH32 0x6F74207375636365656400000000000000000000000000000000000000000000 PUSH1 0x20 DUP3 ADD MSTORE POP JUMP JUMPDEST PUSH1 0x0 PUSH2 0x1061 PUSH1 0x2A DUP4 PUSH2 0xE4B JUMP JUMPDEST SWAP2 POP PUSH2 0x106C DUP3 PUSH2 0x1005 JUMP JUMPDEST PUSH1 0x40 DUP3 ADD SWAP1 POP SWAP2 SWAP1 POP JUMP JUMPDEST PUSH1 0x0 PUSH1 0x20 DUP3 ADD SWAP1 POP DUP2 DUP2 SUB PUSH1 0x0 DUP4 ADD MSTORE PUSH2 0x1090 DUP2 PUSH2 0x1054 JUMP JUMPDEST SWAP1 POP SWAP2 SWAP1 POP JUMP JUMPDEST PUSH32 0x416464726573733A20696E73756666696369656E742062616C616E636520666F PUSH1 0x0 DUP3 ADD MSTORE PUSH32 0x722063616C6C0000000000000000000000000000000000000000000000000000 PUSH1 0x20 DUP3 ADD MSTORE POP JUMP JUMPDEST PUSH1 0x0 PUSH2 0x10F3 PUSH1 0x26 DUP4 PUSH2 0xE4B JUMP JUMPDEST SWAP2 POP PUSH2 0x10FE DUP3 PUSH2 0x1097 JUMP JUMPDEST PUSH1 0x40 DUP3 ADD SWAP1 POP SWAP2 SWAP1 POP JUMP JUMPDEST PUSH1 0x0 PUSH1 0x20 DUP3 ADD SWAP1 POP DUP2 DUP2 SUB PUSH1 0x0 DUP4 ADD MSTORE PUSH2 0x1122 DUP2 PUSH2 0x10E6 JUMP JUMPDEST SWAP1 POP SWAP2 SWAP1 POP JUMP JUMPDEST PUSH32 0x416464726573733A2063616C6C20746F206E6F6E2D636F6E7472616374000000 PUSH1 0x0 DUP3 ADD MSTORE POP JUMP JUMPDEST PUSH1 0x0 PUSH2 0x115F PUSH1 0x1D DUP4 PUSH2 0xE4B JUMP JUMPDEST SWAP2 POP PUSH2 0x116A DUP3 PUSH2 0x1129 JUMP JUMPDEST PUSH1 0x20 DUP3 ADD SWAP1 POP SWAP2 SWAP1 POP JUMP JUMPDEST PUSH1 0x0 PUSH1 0x20 DUP3 ADD SWAP1 POP DUP2 DUP2 SUB PUSH1 0x0 DUP4 ADD MSTORE PUSH2 0x118E DUP2 PUSH2 0x1152 JUMP JUMPDEST SWAP1 POP SWAP2 SWAP1 POP JUMP JUMPDEST PUSH1 0x0 DUP2 MLOAD SWAP1 POP SWAP2 SWAP1 POP JUMP JUMPDEST PUSH1 0x0 JUMPDEST DUP4 DUP2 LT ISZERO PUSH2 0x11BE JUMPI DUP1 DUP3 ADD MLOAD DUP2 DUP5 ADD MSTORE PUSH1 0x20 DUP2 ADD SWAP1 POP PUSH2 0x11A3 JUMP JUMPDEST DUP4 DUP2 GT ISZERO PUSH2 0x11CD JUMPI PUSH1 0x0 DUP5 DUP5 ADD MSTORE JUMPDEST POP POP POP POP JUMP JUMPDEST PUSH1 0x0 PUSH2 0x11DE DUP3 PUSH2 0x1195 JUMP JUMPDEST PUSH2 0x11E8 DUP2 DUP6 PUSH2 0xEC8 JUMP JUMPDEST SWAP4 POP PUSH2 0x11F8 DUP2 DUP6 PUSH1 0x20 DUP7 ADD PUSH2 0x11A0 JUMP JUMPDEST DUP1 DUP5 ADD SWAP2 POP POP SWAP3 SWAP2 POP POP JUMP JUMPDEST PUSH1 0x0 PUSH2 0x1210 DUP3 DUP5 PUSH2 0x11D3 JUMP JUMPDEST SWAP2 POP DUP2 SWAP1 POP SWAP3 SWAP2 POP POP JUMP JUMPDEST PUSH1 0x0 DUP2 MLOAD SWAP1 POP SWAP2 SWAP1 POP JUMP JUMPDEST PUSH1 0x0 PUSH1 0x1F NOT PUSH1 0x1F DUP4 ADD AND SWAP1 POP SWAP2 SWAP1 POP JUMP JUMPDEST PUSH1 0x0 PUSH2 0x1242 DUP3 PUSH2 0x121B JUMP JUMPDEST PUSH2 0x124C DUP2 DUP6 PUSH2 0xE4B JUMP JUMPDEST SWAP4 POP PUSH2 0x125C DUP2 DUP6 PUSH1 0x20 DUP7 ADD PUSH2 0x11A0 JUMP JUMPDEST PUSH2 0x1265 DUP2 PUSH2 0x1226 JUMP JUMPDEST DUP5 ADD SWAP2 POP POP SWAP3 SWAP2 POP POP JUMP JUMPDEST PUSH1 0x0 PUSH1 0x20 DUP3 ADD SWAP1 POP DUP2 DUP2 SUB PUSH1 0x0 DUP4 ADD MSTORE PUSH2 0x128A DUP2 DUP5 PUSH2 0x1237 JUMP JUMPDEST SWAP1 POP SWAP3 SWAP2 POP POP JUMP INVALID LOG2 PUSH5 0x6970667358 0x22 SLT KECCAK256 INVALID PUSH32 0xDDB0B032195A19D86AEE618EAB27F1ECC7FD5C70DDF62C3E1494A242FFD26473 PUSH16 0x6C634300080B00330000000000000000 "
		},
		"gasEstimates": {
			"creation": {
				"codeDepositCost": "961600",
				"executionCost": "infinite",
				"totalCost": "infinite"
			},
			"external": {
				"beneficiary()": "infinite",
				"duration()": "infinite",
				"releasable()": "infinite",
				"releasable(address)": "infinite",
				"release()": "infinite",
				"release(address)": "infinite",
				"released()": "2459",
				"released(address)": "2885",
				"start()": "infinite",
				"vestedAmount(address,uint64)": "infinite",
				"vestedAmount(uint64)": "infinite"
			},
			"internal": {
				"_currentMonth()": "infinite",
				"_vestingSchedule(uint256,uint64)": "infinite"
			}
		},
		"methodIdentifiers": {
			"beneficiary()": "38af3eed",
			"duration()": "0fb5a6b4",
			"releasable()": "fbccedae",
			"releasable(address)": "a3f8eace",
			"release()": "86d1a69f",
			"release(address)": "19165587",
			"released()": "96132521",
			"released(address)": "9852595c",
			"start()": "be9a6555",
			"vestedAmount(address,uint64)": "810ec23b",
			"vestedAmount(uint64)": "0a17b06b"
		}
	},
	"abi": [
		{
			"inputs": [
				{
					"internalType": "address",
					"name": "beneficiaryAddress",
					"type": "address"
				},
				{
					"internalType": "uint64",
					"name": "startTimestamp",
					"type": "uint64"
				},
				{
					"internalType": "uint64",
					"name": "durationMonths",
					"type": "uint64"
				},
				{
					"internalType": "uint64",
					"name": "cliffs",
					"type": "uint64"
				}
			],
			"stateMutability": "payable",
			"type": "constructor"
		},
		{
			"anonymous": false,
			"inputs": [
				{
					"indexed": true,
					"internalType": "address",
					"name": "token",
					"type": "address"
				},
				{
					"indexed": false,
					"internalType": "uint256",
					"name": "amount",
					"type": "uint256"
				}
			],
			"name": "ERC20Released",
			"type": "event"
		},
		{
			"anonymous": false,
			"inputs": [
				{
					"indexed": false,
					"internalType": "uint256",
					"name": "amount",
					"type": "uint256"
				}
			],
			"name": "EtherReleased",
			"type": "event"
		},
		{
			"inputs": [],
			"name": "beneficiary",
			"outputs": [
				{
					"internalType": "address",
					"name": "",
					"type": "address"
				}
			],
			"stateMutability": "view",
			"type": "function"
		},
		{
			"inputs": [],
			"name": "duration",
			"outputs": [
				{
					"internalType": "uint256",
					"name": "",
					"type": "uint256"
				}
			],
			"stateMutability": "view",
			"type": "function"
		},
		{
			"inputs": [
				{
					"internalType": "address",
					"name": "token",
					"type": "address"
				}
			],
			"name": "releasable",
			"outputs": [
				{
					"internalType": "uint256",
					"name": "",
					"type": "uint256"
				}
			],
			"stateMutability": "view",
			"type": "function"
		},
		{
			"inputs": [],
			"name": "releasable",
			"outputs": [
				{
					"internalType": "uint256",
					"name": "",
					"type": "uint256"
				}
			],
			"stateMutability": "view",
			"type": "function"
		},
		{
			"inputs": [
				{
					"internalType": "address",
					"name": "token",
					"type": "address"
				}
			],
			"name": "release",
			"outputs": [],
			"stateMutability": "nonpayable",
			"type": "function"
		},
		{
			"inputs": [],
			"name": "release",
			"outputs": [],
			"stateMutability": "nonpayable",
			"type": "function"
		},
		{
			"inputs": [],
			"name": "released",
			"outputs": [
				{
					"internalType": "uint256",
					"name": "",
					"type": "uint256"
				}
			],
			"stateMutability": "view",
			"type": "function"
		},
		{
			"inputs": [
				{
					"internalType": "address",
					"name": "token",
					"type": "address"
				}
			],
			"name": "released",
			"outputs": [
				{
					"internalType": "uint256",
					"name": "",
					"type": "uint256"
				}
			],
			"stateMutability": "view",
			"type": "function"
		},
		{
			"inputs": [],
			"name": "start",
			"outputs": [
				{
					"internalType": "uint256",
					"name": "",
					"type": "uint256"
				}
			],
			"stateMutability": "view",
			"type": "function"
		},
		{
			"inputs": [
				{
					"internalType": "uint64",
					"name": "timestamp",
					"type": "uint64"
				}
			],
			"name": "vestedAmount",
			"outputs": [
				{
					"internalType": "uint256",
					"name": "",
					"type": "uint256"
				}
			],
			"stateMutability": "view",
			"type": "function"
		},
		{
			"inputs": [
				{
					"internalType": "address",
					"name": "token",
					"type": "address"
				},
				{
					"internalType": "uint64",
					"name": "timestamp",
					"type": "uint64"
				}
			],
			"name": "vestedAmount",
			"outputs": [
				{
					"internalType": "uint256",
					"name": "",
					"type": "uint256"
				}
			],
			"stateMutability": "view",
			"type": "function"
		},
		{
			"stateMutability": "payable",
			"type": "receive"
		}
	]
}