{
	"data": {
		"bytecode": {
			"linkReferences": {},
			"object": "608060405234801561001057600080fd5b506b04be37ea7317415c4580000060015560048054336001600160a01b03199182168117909255600580549091169091179055610821806100526000396000f3fe608060405234801561001057600080fd5b50600436106100b35760003560e01c8063810085681161007157806381008568146101435780638b2b423a146101ce5780638cdb7e8b146101d757806396074e701461021f578063b2bdfa7b14610232578063efdd87961461024557600080fd5b80625171f4146100b85780631d77b00b146100de578063338dbf59146100f3578063549dee0b146100fc5780635f348b4e146101055780637d3bca7614610130575b600080fd5b6100cb6100c6366004610719565b61024d565b6040519081526020015b60405180910390f35b6100f16100ec366004610719565b6102e7565b005b6100cb60025481565b6100cb60005481565b600454610118906001600160a01b031681565b6040516001600160a01b0390911681526020016100d5565b6100cb61013e366004610719565b610311565b6101a8610151366004610719565b6001600160a01b0316600090815260036020818152604092839020835160808101855281548082526001830154938201849052600283015460ff161515958201869052919093015460609093018390529390929190565b6040805194855260208501939093529015159183019190915260608201526080016100d5565b6100cb60015481565b6101ea6101e5366004610719565b6103c2565b6040516100d5919081518152602080830151908201526040808301511515908201526060918201519181019190915260800190565b6100f161022d36600461073b565b61043f565b600554610118906001600160a01b031681565b6100f16104db565b60006102576104e9565b6001600160a01b038216600090815260036020526040902060010154156102de57600061028383610516565b905080156102d5576001600160a01b0383166000908152600360205260409020600101546102b290829061077b565b6001600160a01b0384166000908152600360205260409020600101559050919050565b50600092915050565b5060005b919050565b6102ef6104e9565b600480546001600160a01b0319166001600160a01b0392909216919091179055565b600061031b6104e9565b6001600160a01b038216600090815260036020526040902060010154156102de57600160008082825461034e919061077b565b90915550506001600160a01b03821660009081526003602052604081206001908101548154909290610381908490610792565b9091555050506001600160a01b0316600090815260036020819052604082206001810180548483559084905560028201805460ff1916905591019190915590565b6103ef60405180608001604052806000815260200160008152602001600015158152602001600081525090565b506001600160a01b0316600090815260036020818152604092839020835160808101855281548152600182015492810192909252600281015460ff16151593820193909352910154606082015290565b6104476104e9565b60015481111561046a57604051630653d03760e21b815260040160405180910390fd5b80156104d7576001600160a01b03821660009081526003602081905260408220838155600180820185905560028201805460ff191690559101819055815490919081906104b8908490610792565b9250508190555080600160008282546104d1919061077b565b90915550505b5050565b6104e36104e9565b42600255565b6004546001600160a01b03163314610514576040516315a678a960e11b815260040160405180910390fd5b565b6000806000620151806002544261052d919061077b565b61053791906107aa565b90506101e08110156105d2576001600160a01b03841660009081526003602052604090206002015460ff166105cd576001600160a01b038416600090815260036020819052604090912060028101805460ff191660019081179091556101c292820192909255905490546105b6906a3cb5feec27901169e000006107cc565b6105c091906107aa565b6105ca9083610792565b91505b6106fb565b6101e081101580156105e5575061034881105b156106f1576001600160a01b03841660009081526003602052604090206002015460ff16610666576001600160a01b038416600090815260036020526040902060028101805460ff1916600190811790915554905461064f906a3cb5feec27901169e000006107cc565b61065991906107aa565b6106639083610792565b91505b6001600160a01b03841660009081526003602081905260408220015461068c908361077b565b6001600160a01b03861660009081526003602081905260409091209081018490556001549054919250906106cb906a03290914be1afb750800006107cc565b6106d591906107aa565b6106df9084610792565b6106e990826107cc565b9250506106fb565b5060009392505050565b5092915050565b80356001600160a01b03811681146102e257600080fd5b60006020828403121561072b57600080fd5b61073482610702565b9392505050565b6000806040838503121561074e57600080fd5b61075783610702565b946020939093013593505050565b634e487b7160e01b600052601160045260246000fd5b60008282101561078d5761078d610765565b500390565b600082198211156107a5576107a5610765565b500190565b6000826107c757634e487b7160e01b600052601260045260246000fd5b500490565b60008160001904831182151516156107e6576107e6610765565b50029056fea26469706673582212209611dee5a704e629b698c71b24378fe00d78d1c6bb96d38387724e7737e9f1f464736f6c634300080b0033",
			"opcodes": "PUSH1 0x80 PUSH1 0x40 MSTORE CALLVALUE DUP1 ISZERO PUSH2 0x10 JUMPI PUSH1 0x0 DUP1 REVERT JUMPDEST POP PUSH12 0x4BE37EA7317415C45800000 PUSH1 0x1 SSTORE PUSH1 0x4 DUP1 SLOAD CALLER PUSH1 0x1 PUSH1 0x1 PUSH1 0xA0 SHL SUB NOT SWAP2 DUP3 AND DUP2 OR SWAP1 SWAP3 SSTORE PUSH1 0x5 DUP1 SLOAD SWAP1 SWAP2 AND SWAP1 SWAP2 OR SWAP1 SSTORE PUSH2 0x821 DUP1 PUSH2 0x52 PUSH1 0x0 CODECOPY PUSH1 0x0 RETURN INVALID PUSH1 0x80 PUSH1 0x40 MSTORE CALLVALUE DUP1 ISZERO PUSH2 0x10 JUMPI PUSH1 0x0 DUP1 REVERT JUMPDEST POP PUSH1 0x4 CALLDATASIZE LT PUSH2 0xB3 JUMPI PUSH1 0x0 CALLDATALOAD PUSH1 0xE0 SHR DUP1 PUSH4 0x81008568 GT PUSH2 0x71 JUMPI DUP1 PUSH4 0x81008568 EQ PUSH2 0x143 JUMPI DUP1 PUSH4 0x8B2B423A EQ PUSH2 0x1CE JUMPI DUP1 PUSH4 0x8CDB7E8B EQ PUSH2 0x1D7 JUMPI DUP1 PUSH4 0x96074E70 EQ PUSH2 0x21F JUMPI DUP1 PUSH4 0xB2BDFA7B EQ PUSH2 0x232 JUMPI DUP1 PUSH4 0xEFDD8796 EQ PUSH2 0x245 JUMPI PUSH1 0x0 DUP1 REVERT JUMPDEST DUP1 PUSH3 0x5171F4 EQ PUSH2 0xB8 JUMPI DUP1 PUSH4 0x1D77B00B EQ PUSH2 0xDE JUMPI DUP1 PUSH4 0x338DBF59 EQ PUSH2 0xF3 JUMPI DUP1 PUSH4 0x549DEE0B EQ PUSH2 0xFC JUMPI DUP1 PUSH4 0x5F348B4E EQ PUSH2 0x105 JUMPI DUP1 PUSH4 0x7D3BCA76 EQ PUSH2 0x130 JUMPI JUMPDEST PUSH1 0x0 DUP1 REVERT JUMPDEST PUSH2 0xCB PUSH2 0xC6 CALLDATASIZE PUSH1 0x4 PUSH2 0x719 JUMP JUMPDEST PUSH2 0x24D JUMP JUMPDEST PUSH1 0x40 MLOAD SWAP1 DUP2 MSTORE PUSH1 0x20 ADD JUMPDEST PUSH1 0x40 MLOAD DUP1 SWAP2 SUB SWAP1 RETURN JUMPDEST PUSH2 0xF1 PUSH2 0xEC CALLDATASIZE PUSH1 0x4 PUSH2 0x719 JUMP JUMPDEST PUSH2 0x2E7 JUMP JUMPDEST STOP JUMPDEST PUSH2 0xCB PUSH1 0x2 SLOAD DUP2 JUMP JUMPDEST PUSH2 0xCB PUSH1 0x0 SLOAD DUP2 JUMP JUMPDEST PUSH1 0x4 SLOAD PUSH2 0x118 SWAP1 PUSH1 0x1 PUSH1 0x1 PUSH1 0xA0 SHL SUB AND DUP2 JUMP JUMPDEST PUSH1 0x40 MLOAD PUSH1 0x1 PUSH1 0x1 PUSH1 0xA0 SHL SUB SWAP1 SWAP2 AND DUP2 MSTORE PUSH1 0x20 ADD PUSH2 0xD5 JUMP JUMPDEST PUSH2 0xCB PUSH2 0x13E CALLDATASIZE PUSH1 0x4 PUSH2 0x719 JUMP JUMPDEST PUSH2 0x311 JUMP JUMPDEST PUSH2 0x1A8 PUSH2 0x151 CALLDATASIZE PUSH1 0x4 PUSH2 0x719 JUMP JUMPDEST PUSH1 0x1 PUSH1 0x1 PUSH1 0xA0 SHL SUB AND PUSH1 0x0 SWAP1 DUP2 MSTORE PUSH1 0x3 PUSH1 0x20 DUP2 DUP2 MSTORE PUSH1 0x40 SWAP3 DUP4 SWAP1 KECCAK256 DUP4 MLOAD PUSH1 0x80 DUP2 ADD DUP6 MSTORE DUP2 SLOAD DUP1 DUP3 MSTORE PUSH1 0x1 DUP4 ADD SLOAD SWAP4 DUP3 ADD DUP5 SWAP1 MSTORE PUSH1 0x2 DUP4 ADD SLOAD PUSH1 0xFF AND ISZERO ISZERO SWAP6 DUP3 ADD DUP7 SWAP1 MSTORE SWAP2 SWAP1 SWAP4 ADD SLOAD PUSH1 0x60 SWAP1 SWAP4 ADD DUP4 SWAP1 MSTORE SWAP4 SWAP1 SWAP3 SWAP2 SWAP1 JUMP JUMPDEST PUSH1 0x40 DUP1 MLOAD SWAP5 DUP6 MSTORE PUSH1 0x20 DUP6 ADD SWAP4 SWAP1 SWAP4 MSTORE SWAP1 ISZERO ISZERO SWAP2 DUP4 ADD SWAP2 SWAP1 SWAP2 MSTORE PUSH1 0x60 DUP3 ADD MSTORE PUSH1 0x80 ADD PUSH2 0xD5 JUMP JUMPDEST PUSH2 0xCB PUSH1 0x1 SLOAD DUP2 JUMP JUMPDEST PUSH2 0x1EA PUSH2 0x1E5 CALLDATASIZE PUSH1 0x4 PUSH2 0x719 JUMP JUMPDEST PUSH2 0x3C2 JUMP JUMPDEST PUSH1 0x40 MLOAD PUSH2 0xD5 SWAP2 SWAP1 DUP2 MLOAD DUP2 MSTORE PUSH1 0x20 DUP1 DUP4 ADD MLOAD SWAP1 DUP3 ADD MSTORE PUSH1 0x40 DUP1 DUP4 ADD MLOAD ISZERO ISZERO SWAP1 DUP3 ADD MSTORE PUSH1 0x60 SWAP2 DUP3 ADD MLOAD SWAP2 DUP2 ADD SWAP2 SWAP1 SWAP2 MSTORE PUSH1 0x80 ADD SWAP1 JUMP JUMPDEST PUSH2 0xF1 PUSH2 0x22D CALLDATASIZE PUSH1 0x4 PUSH2 0x73B JUMP JUMPDEST PUSH2 0x43F JUMP JUMPDEST PUSH1 0x5 SLOAD PUSH2 0x118 SWAP1 PUSH1 0x1 PUSH1 0x1 PUSH1 0xA0 SHL SUB AND DUP2 JUMP JUMPDEST PUSH2 0xF1 PUSH2 0x4DB JUMP JUMPDEST PUSH1 0x0 PUSH2 0x257 PUSH2 0x4E9 JUMP JUMPDEST PUSH1 0x1 PUSH1 0x1 PUSH1 0xA0 SHL SUB DUP3 AND PUSH1 0x0 SWAP1 DUP2 MSTORE PUSH1 0x3 PUSH1 0x20 MSTORE PUSH1 0x40 SWAP1 KECCAK256 PUSH1 0x1 ADD SLOAD ISZERO PUSH2 0x2DE JUMPI PUSH1 0x0 PUSH2 0x283 DUP4 PUSH2 0x516 JUMP JUMPDEST SWAP1 POP DUP1 ISZERO PUSH2 0x2D5 JUMPI PUSH1 0x1 PUSH1 0x1 PUSH1 0xA0 SHL SUB DUP4 AND PUSH1 0x0 SWAP1 DUP2 MSTORE PUSH1 0x3 PUSH1 0x20 MSTORE PUSH1 0x40 SWAP1 KECCAK256 PUSH1 0x1 ADD SLOAD PUSH2 0x2B2 SWAP1 DUP3 SWAP1 PUSH2 0x77B JUMP JUMPDEST PUSH1 0x1 PUSH1 0x1 PUSH1 0xA0 SHL SUB DUP5 AND PUSH1 0x0 SWAP1 DUP2 MSTORE PUSH1 0x3 PUSH1 0x20 MSTORE PUSH1 0x40 SWAP1 KECCAK256 PUSH1 0x1 ADD SSTORE SWAP1 POP SWAP2 SWAP1 POP JUMP JUMPDEST POP PUSH1 0x0 SWAP3 SWAP2 POP POP JUMP JUMPDEST POP PUSH1 0x0 JUMPDEST SWAP2 SWAP1 POP JUMP JUMPDEST PUSH2 0x2EF PUSH2 0x4E9 JUMP JUMPDEST PUSH1 0x4 DUP1 SLOAD PUSH1 0x1 PUSH1 0x1 PUSH1 0xA0 SHL SUB NOT AND PUSH1 0x1 PUSH1 0x1 PUSH1 0xA0 SHL SUB SWAP3 SWAP1 SWAP3 AND SWAP2 SWAP1 SWAP2 OR SWAP1 SSTORE JUMP JUMPDEST PUSH1 0x0 PUSH2 0x31B PUSH2 0x4E9 JUMP JUMPDEST PUSH1 0x1 PUSH1 0x1 PUSH1 0xA0 SHL SUB DUP3 AND PUSH1 0x0 SWAP1 DUP2 MSTORE PUSH1 0x3 PUSH1 0x20 MSTORE PUSH1 0x40 SWAP1 KECCAK256 PUSH1 0x1 ADD SLOAD ISZERO PUSH2 0x2DE JUMPI PUSH1 0x1 PUSH1 0x0 DUP1 DUP3 DUP3 SLOAD PUSH2 0x34E SWAP2 SWAP1 PUSH2 0x77B JUMP JUMPDEST SWAP1 SWAP2 SSTORE POP POP PUSH1 0x1 PUSH1 0x1 PUSH1 0xA0 SHL SUB DUP3 AND PUSH1 0x0 SWAP1 DUP2 MSTORE PUSH1 0x3 PUSH1 0x20 MSTORE PUSH1 0x40 DUP2 KECCAK256 PUSH1 0x1 SWAP1 DUP2 ADD SLOAD DUP2 SLOAD SWAP1 SWAP3 SWAP1 PUSH2 0x381 SWAP1 DUP5 SWAP1 PUSH2 0x792 JUMP JUMPDEST SWAP1 SWAP2 SSTORE POP POP POP PUSH1 0x1 PUSH1 0x1 PUSH1 0xA0 SHL SUB AND PUSH1 0x0 SWAP1 DUP2 MSTORE PUSH1 0x3 PUSH1 0x20 DUP2 SWAP1 MSTORE PUSH1 0x40 DUP3 KECCAK256 PUSH1 0x1 DUP2 ADD DUP1 SLOAD DUP5 DUP4 SSTORE SWAP1 DUP5 SWAP1 SSTORE PUSH1 0x2 DUP3 ADD DUP1 SLOAD PUSH1 0xFF NOT AND SWAP1 SSTORE SWAP2 ADD SWAP2 SWAP1 SWAP2 SSTORE SWAP1 JUMP JUMPDEST PUSH2 0x3EF PUSH1 0x40 MLOAD DUP1 PUSH1 0x80 ADD PUSH1 0x40 MSTORE DUP1 PUSH1 0x0 DUP2 MSTORE PUSH1 0x20 ADD PUSH1 0x0 DUP2 MSTORE PUSH1 0x20 ADD PUSH1 0x0 ISZERO ISZERO DUP2 MSTORE PUSH1 0x20 ADD PUSH1 0x0 DUP2 MSTORE POP SWAP1 JUMP JUMPDEST POP PUSH1 0x1 PUSH1 0x1 PUSH1 0xA0 SHL SUB AND PUSH1 0x0 SWAP1 DUP2 MSTORE PUSH1 0x3 PUSH1 0x20 DUP2 DUP2 MSTORE PUSH1 0x40 SWAP3 DUP4 SWAP1 KECCAK256 DUP4 MLOAD PUSH1 0x80 DUP2 ADD DUP6 MSTORE DUP2 SLOAD DUP2 MSTORE PUSH1 0x1 DUP3 ADD SLOAD SWAP3 DUP2 ADD SWAP3 SWAP1 SWAP3 MSTORE PUSH1 0x2 DUP2 ADD SLOAD PUSH1 0xFF AND ISZERO ISZERO SWAP4 DUP3 ADD SWAP4 SWAP1 SWAP4 MSTORE SWAP2 ADD SLOAD PUSH1 0x60 DUP3 ADD MSTORE SWAP1 JUMP JUMPDEST PUSH2 0x447 PUSH2 0x4E9 JUMP JUMPDEST PUSH1 0x1 SLOAD DUP2 GT ISZERO PUSH2 0x46A JUMPI PUSH1 0x40 MLOAD PUSH4 0x653D037 PUSH1 0xE2 SHL DUP2 MSTORE PUSH1 0x4 ADD PUSH1 0x40 MLOAD DUP1 SWAP2 SUB SWAP1 REVERT JUMPDEST DUP1 ISZERO PUSH2 0x4D7 JUMPI PUSH1 0x1 PUSH1 0x1 PUSH1 0xA0 SHL SUB DUP3 AND PUSH1 0x0 SWAP1 DUP2 MSTORE PUSH1 0x3 PUSH1 0x20 DUP2 SWAP1 MSTORE PUSH1 0x40 DUP3 KECCAK256 DUP4 DUP2 SSTORE PUSH1 0x1 DUP1 DUP3 ADD DUP6 SWAP1 SSTORE PUSH1 0x2 DUP3 ADD DUP1 SLOAD PUSH1 0xFF NOT AND SWAP1 SSTORE SWAP2 ADD DUP2 SWAP1 SSTORE DUP2 SLOAD SWAP1 SWAP2 SWAP1 DUP2 SWAP1 PUSH2 0x4B8 SWAP1 DUP5 SWAP1 PUSH2 0x792 JUMP JUMPDEST SWAP3 POP POP DUP2 SWAP1 SSTORE POP DUP1 PUSH1 0x1 PUSH1 0x0 DUP3 DUP3 SLOAD PUSH2 0x4D1 SWAP2 SWAP1 PUSH2 0x77B JUMP JUMPDEST SWAP1 SWAP2 SSTORE POP POP JUMPDEST POP POP JUMP JUMPDEST PUSH2 0x4E3 PUSH2 0x4E9 JUMP JUMPDEST TIMESTAMP PUSH1 0x2 SSTORE JUMP JUMPDEST PUSH1 0x4 SLOAD PUSH1 0x1 PUSH1 0x1 PUSH1 0xA0 SHL SUB AND CALLER EQ PUSH2 0x514 JUMPI PUSH1 0x40 MLOAD PUSH4 0x15A678A9 PUSH1 0xE1 SHL DUP2 MSTORE PUSH1 0x4 ADD PUSH1 0x40 MLOAD DUP1 SWAP2 SUB SWAP1 REVERT JUMPDEST JUMP JUMPDEST PUSH1 0x0 DUP1 PUSH1 0x0 PUSH3 0x15180 PUSH1 0x2 SLOAD TIMESTAMP PUSH2 0x52D SWAP2 SWAP1 PUSH2 0x77B JUMP JUMPDEST PUSH2 0x537 SWAP2 SWAP1 PUSH2 0x7AA JUMP JUMPDEST SWAP1 POP PUSH2 0x1E0 DUP2 LT ISZERO PUSH2 0x5D2 JUMPI PUSH1 0x1 PUSH1 0x1 PUSH1 0xA0 SHL SUB DUP5 AND PUSH1 0x0 SWAP1 DUP2 MSTORE PUSH1 0x3 PUSH1 0x20 MSTORE PUSH1 0x40 SWAP1 KECCAK256 PUSH1 0x2 ADD SLOAD PUSH1 0xFF AND PUSH2 0x5CD JUMPI PUSH1 0x1 PUSH1 0x1 PUSH1 0xA0 SHL SUB DUP5 AND PUSH1 0x0 SWAP1 DUP2 MSTORE PUSH1 0x3 PUSH1 0x20 DUP2 SWAP1 MSTORE PUSH1 0x40 SWAP1 SWAP2 KECCAK256 PUSH1 0x2 DUP2 ADD DUP1 SLOAD PUSH1 0xFF NOT AND PUSH1 0x1 SWAP1 DUP2 OR SWAP1 SWAP2 SSTORE PUSH2 0x1C2 SWAP3 DUP3 ADD SWAP3 SWAP1 SWAP3 SSTORE SWAP1 SLOAD SWAP1 SLOAD PUSH2 0x5B6 SWAP1 PUSH11 0x3CB5FEEC27901169E00000 PUSH2 0x7CC JUMP JUMPDEST PUSH2 0x5C0 SWAP2 SWAP1 PUSH2 0x7AA JUMP JUMPDEST PUSH2 0x5CA SWAP1 DUP4 PUSH2 0x792 JUMP JUMPDEST SWAP2 POP JUMPDEST PUSH2 0x6FB JUMP JUMPDEST PUSH2 0x1E0 DUP2 LT ISZERO DUP1 ISZERO PUSH2 0x5E5 JUMPI POP PUSH2 0x348 DUP2 LT JUMPDEST ISZERO PUSH2 0x6F1 JUMPI PUSH1 0x1 PUSH1 0x1 PUSH1 0xA0 SHL SUB DUP5 AND PUSH1 0x0 SWAP1 DUP2 MSTORE PUSH1 0x3 PUSH1 0x20 MSTORE PUSH1 0x40 SWAP1 KECCAK256 PUSH1 0x2 ADD SLOAD PUSH1 0xFF AND PUSH2 0x666 JUMPI PUSH1 0x1 PUSH1 0x1 PUSH1 0xA0 SHL SUB DUP5 AND PUSH1 0x0 SWAP1 DUP2 MSTORE PUSH1 0x3 PUSH1 0x20 MSTORE PUSH1 0x40 SWAP1 KECCAK256 PUSH1 0x2 DUP2 ADD DUP1 SLOAD PUSH1 0xFF NOT AND PUSH1 0x1 SWAP1 DUP2 OR SWAP1 SWAP2 SSTORE SLOAD SWAP1 SLOAD PUSH2 0x64F SWAP1 PUSH11 0x3CB5FEEC27901169E00000 PUSH2 0x7CC JUMP JUMPDEST PUSH2 0x659 SWAP2 SWAP1 PUSH2 0x7AA JUMP JUMPDEST PUSH2 0x663 SWAP1 DUP4 PUSH2 0x792 JUMP JUMPDEST SWAP2 POP JUMPDEST PUSH1 0x1 PUSH1 0x1 PUSH1 0xA0 SHL SUB DUP5 AND PUSH1 0x0 SWAP1 DUP2 MSTORE PUSH1 0x3 PUSH1 0x20 DUP2 SWAP1 MSTORE PUSH1 0x40 DUP3 KECCAK256 ADD SLOAD PUSH2 0x68C SWAP1 DUP4 PUSH2 0x77B JUMP JUMPDEST PUSH1 0x1 PUSH1 0x1 PUSH1 0xA0 SHL SUB DUP7 AND PUSH1 0x0 SWAP1 DUP2 MSTORE PUSH1 0x3 PUSH1 0x20 DUP2 SWAP1 MSTORE PUSH1 0x40 SWAP1 SWAP2 KECCAK256 SWAP1 DUP2 ADD DUP5 SWAP1 SSTORE PUSH1 0x1 SLOAD SWAP1 SLOAD SWAP2 SWAP3 POP SWAP1 PUSH2 0x6CB SWAP1 PUSH11 0x3290914BE1AFB75080000 PUSH2 0x7CC JUMP JUMPDEST PUSH2 0x6D5 SWAP2 SWAP1 PUSH2 0x7AA JUMP JUMPDEST PUSH2 0x6DF SWAP1 DUP5 PUSH2 0x792 JUMP JUMPDEST PUSH2 0x6E9 SWAP1 DUP3 PUSH2 0x7CC JUMP JUMPDEST SWAP3 POP POP PUSH2 0x6FB JUMP JUMPDEST POP PUSH1 0x0 SWAP4 SWAP3 POP POP POP JUMP JUMPDEST POP SWAP3 SWAP2 POP POP JUMP JUMPDEST DUP1 CALLDATALOAD PUSH1 0x1 PUSH1 0x1 PUSH1 0xA0 SHL SUB DUP2 AND DUP2 EQ PUSH2 0x2E2 JUMPI PUSH1 0x0 DUP1 REVERT JUMPDEST PUSH1 0x0 PUSH1 0x20 DUP3 DUP5 SUB SLT ISZERO PUSH2 0x72B JUMPI PUSH1 0x0 DUP1 REVERT JUMPDEST PUSH2 0x734 DUP3 PUSH2 0x702 JUMP JUMPDEST SWAP4 SWAP3 POP POP POP JUMP JUMPDEST PUSH1 0x0 DUP1 PUSH1 0x40 DUP4 DUP6 SUB SLT ISZERO PUSH2 0x74E JUMPI PUSH1 0x0 DUP1 REVERT JUMPDEST PUSH2 0x757 DUP4 PUSH2 0x702 JUMP JUMPDEST SWAP5 PUSH1 0x20 SWAP4 SWAP1 SWAP4 ADD CALLDATALOAD SWAP4 POP POP POP JUMP JUMPDEST PUSH4 0x4E487B71 PUSH1 0xE0 SHL PUSH1 0x0 MSTORE PUSH1 0x11 PUSH1 0x4 MSTORE PUSH1 0x24 PUSH1 0x0 REVERT JUMPDEST PUSH1 0x0 DUP3 DUP3 LT ISZERO PUSH2 0x78D JUMPI PUSH2 0x78D PUSH2 0x765 JUMP JUMPDEST POP SUB SWAP1 JUMP JUMPDEST PUSH1 0x0 DUP3 NOT DUP3 GT ISZERO PUSH2 0x7A5 JUMPI PUSH2 0x7A5 PUSH2 0x765 JUMP JUMPDEST POP ADD SWAP1 JUMP JUMPDEST PUSH1 0x0 DUP3 PUSH2 0x7C7 JUMPI PUSH4 0x4E487B71 PUSH1 0xE0 SHL PUSH1 0x0 MSTORE PUSH1 0x12 PUSH1 0x4 MSTORE PUSH1 0x24 PUSH1 0x0 REVERT JUMPDEST POP DIV SWAP1 JUMP JUMPDEST PUSH1 0x0 DUP2 PUSH1 0x0 NOT DIV DUP4 GT DUP3 ISZERO ISZERO AND ISZERO PUSH2 0x7E6 JUMPI PUSH2 0x7E6 PUSH2 0x765 JUMP JUMPDEST POP MUL SWAP1 JUMP INVALID LOG2 PUSH5 0x6970667358 0x22 SLT KECCAK256 SWAP7 GT 0xDE 0xE5 0xA7 DIV 0xE6 0x29 0xB6 SWAP9 0xC7 SHL 0x24 CALLDATACOPY DUP16 0xE0 0xD PUSH25 0xD1C6BB96D38387724E7737E9F1F464736F6C634300080B0033 "
		},
		"gasEstimates": {
			"creation": {
				"codeDepositCost": "416200",
				"executionCost": "71035",
				"totalCost": "487235"
			},
			"external": {
				"_owner()": "2425",
				"_talax()": "2426",
				"addBeneficiary(address,uint256)": "143957",
				"beneficiary(address)": "9080",
				"changeTalaxAddress(address)": "26758",
				"deleteBeneficiary(address)": "infinite",
				"hasWhitelist(address)": "9269",
				"initiateWhitelist()": "24523",
				"privateSaleAmount()": "2306",
				"privateSaleUsers()": "2351",
				"releaseClaimable(address)": "infinite",
				"startPrivateSale()": "2329"
			},
			"internal": {
				"_calculateClaimableAmount(address)": "infinite",
				"_onlyTalax()": "infinite"
			}
		},
		"methodIdentifiers": {
			"_owner()": "b2bdfa7b",
			"_talax()": "5f348b4e",
			"addBeneficiary(address,uint256)": "96074e70",
			"beneficiary(address)": "81008568",
			"changeTalaxAddress(address)": "1d77b00b",
			"deleteBeneficiary(address)": "7d3bca76",
			"hasWhitelist(address)": "8cdb7e8b",
			"initiateWhitelist()": "efdd8796",
			"privateSaleAmount()": "8b2b423a",
			"privateSaleUsers()": "549dee0b",
			"releaseClaimable(address)": "005171f4",
			"startPrivateSale()": "338dbf59"
		}
	},
	"abi": [
		{
			"inputs": [],
			"stateMutability": "nonpayable",
			"type": "constructor"
		},
		{
			"inputs": [],
			"name": "Function__notAuthorized",
			"type": "error"
		},
		{
			"inputs": [],
			"name": "MainFunction__insufficientBalance",
			"type": "error"
		},
		{
			"inputs": [],
			"name": "_owner",
			"outputs": [
				{
					"internalType": "address",
					"name": "",
					"type": "address"
				}
			],
			"stateMutability": "view",
			"type": "function"
		},
		{
			"inputs": [],
			"name": "_talax",
			"outputs": [
				{
					"internalType": "address",
					"name": "",
					"type": "address"
				}
			],
			"stateMutability": "view",
			"type": "function"
		},
		{
			"inputs": [
				{
					"internalType": "address",
					"name": "user",
					"type": "address"
				},
				{
					"internalType": "uint256",
					"name": "amount",
					"type": "uint256"
				}
			],
			"name": "addBeneficiary",
			"outputs": [],
			"stateMutability": "nonpayable",
			"type": "function"
		},
		{
			"inputs": [
				{
					"internalType": "address",
					"name": "user",
					"type": "address"
				}
			],
			"name": "beneficiary",
			"outputs": [
				{
					"internalType": "uint256",
					"name": "",
					"type": "uint256"
				},
				{
					"internalType": "uint256",
					"name": "",
					"type": "uint256"
				},
				{
					"internalType": "bool",
					"name": "",
					"type": "bool"
				},
				{
					"internalType": "uint256",
					"name": "",
					"type": "uint256"
				}
			],
			"stateMutability": "view",
			"type": "function"
		},
		{
			"inputs": [
				{
					"internalType": "address",
					"name": "talax",
					"type": "address"
				}
			],
			"name": "changeTalaxAddress",
			"outputs": [],
			"stateMutability": "nonpayable",
			"type": "function"
		},
		{
			"inputs": [
				{
					"internalType": "address",
					"name": "user",
					"type": "address"
				}
			],
			"name": "deleteBeneficiary",
			"outputs": [
				{
					"internalType": "uint256",
					"name": "",
					"type": "uint256"
				}
			],
			"stateMutability": "nonpayable",
			"type": "function"
		},
		{
			"inputs": [
				{
					"internalType": "address",
					"name": "user",
					"type": "address"
				}
			],
			"name": "hasWhitelist",
			"outputs": [
				{
					"components": [
						{
							"internalType": "uint256",
							"name": "lockedAmount",
							"type": "uint256"
						},
						{
							"internalType": "uint256",
							"name": "amount",
							"type": "uint256"
						},
						{
							"internalType": "bool",
							"name": "isPhase1Claimed",
							"type": "bool"
						},
						{
							"internalType": "uint256",
							"name": "latestClaimDay",
							"type": "uint256"
						}
					],
					"internalType": "struct WhitelistStruct",
					"name": "",
					"type": "tuple"
				}
			],
			"stateMutability": "view",
			"type": "function"
		},
		{
			"inputs": [],
			"name": "initiateWhitelist",
			"outputs": [],
			"stateMutability": "nonpayable",
			"type": "function"
		},
		{
			"inputs": [],
			"name": "privateSaleAmount",
			"outputs": [
				{
					"internalType": "uint256",
					"name": "",
					"type": "uint256"
				}
			],
			"stateMutability": "view",
			"type": "function"
		},
		{
			"inputs": [],
			"name": "privateSaleUsers",
			"outputs": [
				{
					"internalType": "uint256",
					"name": "",
					"type": "uint256"
				}
			],
			"stateMutability": "view",
			"type": "function"
		},
		{
			"inputs": [
				{
					"internalType": "address",
					"name": "user",
					"type": "address"
				}
			],
			"name": "releaseClaimable",
			"outputs": [
				{
					"internalType": "uint256",
					"name": "",
					"type": "uint256"
				}
			],
			"stateMutability": "nonpayable",
			"type": "function"
		},
		{
			"inputs": [],
			"name": "startPrivateSale",
			"outputs": [
				{
					"internalType": "uint256",
					"name": "",
					"type": "uint256"
				}
			],
			"stateMutability": "view",
			"type": "function"
		}
	]
}