{
  "_format": "hh-sol-artifact-1",
  "contractName": "VestingWallet",
  "sourceName": "contracts/Vesting.sol",
  "abi": [
    {
      "anonymous": false,
      "inputs": [
        {
          "indexed": true,
          "internalType": "address",
          "name": "token",
          "type": "address"
        },
        {
          "indexed": false,
          "internalType": "uint256",
          "name": "amount",
          "type": "uint256"
        }
      ],
      "name": "ERC20Released",
      "type": "event"
    },
    {
      "inputs": [],
      "name": "beneficiary",
      "outputs": [
        {
          "internalType": "address",
          "name": "",
          "type": "address"
        }
      ],
      "stateMutability": "view",
      "type": "function"
    },
    {
      "inputs": [],
      "name": "duration",
      "outputs": [
        {
          "internalType": "uint256",
          "name": "",
          "type": "uint256"
        }
      ],
      "stateMutability": "view",
      "type": "function"
    },
    {
      "inputs": [
        {
          "internalType": "address",
          "name": "token",
          "type": "address"
        },
        {
          "internalType": "address",
          "name": "beneficiaryAddress",
          "type": "address"
        },
        {
          "internalType": "uint64",
          "name": "startTimestamp",
          "type": "uint64"
        },
        {
          "internalType": "uint64",
          "name": "durationSeconds",
          "type": "uint64"
        },
        {
          "internalType": "uint64",
          "name": "cliff",
          "type": "uint64"
        }
      ],
      "name": "init",
      "outputs": [],
      "stateMutability": "nonpayable",
      "type": "function"
    },
    {
      "inputs": [],
      "name": "releasable",
      "outputs": [
        {
          "internalType": "uint256",
          "name": "",
          "type": "uint256"
        }
      ],
      "stateMutability": "view",
      "type": "function"
    },
    {
      "inputs": [],
      "name": "release",
      "outputs": [],
      "stateMutability": "nonpayable",
      "type": "function"
    },
    {
      "inputs": [],
      "name": "released",
      "outputs": [
        {
          "internalType": "uint256",
          "name": "",
          "type": "uint256"
        }
      ],
      "stateMutability": "view",
      "type": "function"
    },
    {
      "inputs": [],
      "name": "start",
      "outputs": [
        {
          "internalType": "uint256",
          "name": "",
          "type": "uint256"
        }
      ],
      "stateMutability": "view",
      "type": "function"
    },
    {
      "inputs": [
        {
          "internalType": "uint64",
          "name": "timestamp",
          "type": "uint64"
        }
      ],
      "name": "vestedAmount",
      "outputs": [
        {
          "internalType": "uint256",
          "name": "",
          "type": "uint256"
        }
      ],
      "stateMutability": "view",
      "type": "function"
    }
  ],
  "bytecode": "0x608060405234801561001057600080fd5b50611255806100206000396000f3fe608060405234801561001057600080fd5b50600436106100885760003560e01c806386d1a69f1161005b57806386d1a69f14610115578063961325211461011f578063be9a65551461013d578063fbccedae1461015b57610088565b80630a17b06b1461008d5780630fb5a6b4146100bd5780631ae46f66146100db57806338af3eed146100f7575b600080fd5b6100a760048036038101906100a29190610a7c565b610179565b6040516100b49190610ac2565b60405180910390f35b6100c5610239565b6040516100d29190610ac2565b60405180910390f35b6100f560048036038101906100f09190610b3b565b610261565b005b6100ff610428565b60405161010c9190610bc5565b60405180910390f35b61011d610452565b005b61012761059d565b6040516101349190610ac2565b60405180910390f35b610145610606565b6040516101529190610ac2565b60405180910390f35b61016361062e565b6040516101709190610ac2565b60405180910390f35b600061023261018661059d565b600260009054906101000a900473ffffffffffffffffffffffffffffffffffffffff1673ffffffffffffffffffffffffffffffffffffffff166370a08231306040518263ffffffff1660e01b81526004016101e19190610bc5565b602060405180830381865afa1580156101fe573d6000803e3d6000fd5b505050506040513d601f19601f820116820180604052508101906102229190610c0c565b61022c9190610c68565b83610650565b9050919050565b6000600460009054906101000a900467ffffffffffffffff1667ffffffffffffffff16905090565b600073ffffffffffffffffffffffffffffffffffffffff168473ffffffffffffffffffffffffffffffffffffffff1614156102d1576040517f08c379a00000000000000000000000000000000000000000000000000000000081526004016102c890610d41565b60405180910390fd5b60001515600660009054906101000a900460ff16151514610327576040517f08c379a000000000000000000000000000000000000000000000000000000000815260040161031e90610dad565b60405180910390fd5b6001600660006101000a81548160ff02191690831515021790555084600260006101000a81548173ffffffffffffffffffffffffffffffffffffffff021916908373ffffffffffffffffffffffffffffffffffffffff16021790555083600360006101000a81548173ffffffffffffffffffffffffffffffffffffffff021916908373ffffffffffffffffffffffffffffffffffffffff16021790555080836103d09190610dcd565b600360146101000a81548167ffffffffffffffff021916908367ffffffffffffffff16021790555081600460006101000a81548167ffffffffffffffff021916908367ffffffffffffffff1602179055505050505050565b6000600360009054906101000a900473ffffffffffffffffffffffffffffffffffffffff16905090565b600061045c61062e565b90506005546104696106ea565b111561059a576104776106ea565b6005819055508060016000600260009054906101000a900473ffffffffffffffffffffffffffffffffffffffff1673ffffffffffffffffffffffffffffffffffffffff1673ffffffffffffffffffffffffffffffffffffffff16815260200190815260200160002060008282546104ee9190610c68565b92505081905550600260009054906101000a900473ffffffffffffffffffffffffffffffffffffffff1673ffffffffffffffffffffffffffffffffffffffff167fc0e523490dd523c33b1878c9eb14ff46991e3f5b2cd33710918618f2a39cba1b8260405161055d9190610ac2565b60405180910390a2610599600260009054906101000a900473ffffffffffffffffffffffffffffffffffffffff16610593610428565b8361071c565b5b50565b600060016000600260009054906101000a900473ffffffffffffffffffffffffffffffffffffffff1673ffffffffffffffffffffffffffffffffffffffff1673ffffffffffffffffffffffffffffffffffffffff16815260200190815260200160002054905090565b6000600360149054906101000a900467ffffffffffffffff1667ffffffffffffffff16905090565b600061063861059d565b61064142610179565b61064b9190610e0b565b905090565b600061065a610606565b8267ffffffffffffffff16101561067457600090506106e4565b61067c610239565b610684610606565b61068e9190610c68565b8267ffffffffffffffff1611156106a7578290506106e4565b6106af610239565b6106b7610606565b8367ffffffffffffffff166106cc9190610e0b565b846106d79190610e3f565b6106e19190610ec8565b90505b92915050565b600062278d006106f8610606565b4267ffffffffffffffff1661070d9190610e0b565b6107179190610ec8565b905090565b61079d8363a9059cbb60e01b848460405160240161073b929190610ef9565b604051602081830303815290604052907bffffffffffffffffffffffffffffffffffffffffffffffffffffffff19166020820180517bffffffffffffffffffffffffffffffffffffffffffffffffffffffff83818316178352505050506107a2565b505050565b6000610804826040518060400160405280602081526020017f5361666545524332303a206c6f772d6c6576656c2063616c6c206661696c65648152508573ffffffffffffffffffffffffffffffffffffffff166108699092919063ffffffff16565b905060008151111561086457808060200190518101906108249190610f5a565b610863576040517f08c379a000000000000000000000000000000000000000000000000000000000815260040161085a90610ff9565b60405180910390fd5b5b505050565b60606108788484600085610881565b90509392505050565b6060824710156108c6576040517f08c379a00000000000000000000000000000000000000000000000000000000081526004016108bd9061108b565b60405180910390fd5b6000808673ffffffffffffffffffffffffffffffffffffffff1685876040516108ef9190611125565b60006040518083038185875af1925050503d806000811461092c576040519150601f19603f3d011682016040523d82523d6000602084013e610931565b606091505b50915091506109428783838761094e565b92505050949350505050565b606083156109b1576000835114156109a957610969856109c4565b6109a8576040517f08c379a000000000000000000000000000000000000000000000000000000000815260040161099f90611188565b60405180910390fd5b5b8290506109bc565b6109bb83836109e7565b5b949350505050565b6000808273ffffffffffffffffffffffffffffffffffffffff163b119050919050565b6000825111156109fa5781518083602001fd5b806040517f08c379a0000000000000000000000000000000000000000000000000000000008152600401610a2e91906111fd565b60405180910390fd5b600080fd5b600067ffffffffffffffff82169050919050565b610a5981610a3c565b8114610a6457600080fd5b50565b600081359050610a7681610a50565b92915050565b600060208284031215610a9257610a91610a37565b5b6000610aa084828501610a67565b91505092915050565b6000819050919050565b610abc81610aa9565b82525050565b6000602082019050610ad76000830184610ab3565b92915050565b600073ffffffffffffffffffffffffffffffffffffffff82169050919050565b6000610b0882610add565b9050919050565b610b1881610afd565b8114610b2357600080fd5b50565b600081359050610b3581610b0f565b92915050565b600080600080600060a08688031215610b5757610b56610a37565b5b6000610b6588828901610b26565b9550506020610b7688828901610b26565b9450506040610b8788828901610a67565b9350506060610b9888828901610a67565b9250506080610ba988828901610a67565b9150509295509295909350565b610bbf81610afd565b82525050565b6000602082019050610bda6000830184610bb6565b92915050565b610be981610aa9565b8114610bf457600080fd5b50565b600081519050610c0681610be0565b92915050565b600060208284031215610c2257610c21610a37565b5b6000610c3084828501610bf7565b91505092915050565b7f4e487b7100000000000000000000000000000000000000000000000000000000600052601160045260246000fd5b6000610c7382610aa9565b9150610c7e83610aa9565b9250827fffffffffffffffffffffffffffffffffffffffffffffffffffffffffffffffff03821115610cb357610cb2610c39565b5b828201905092915050565b600082825260208201905092915050565b7f56657374696e6757616c6c65743a2062656e6566696369617279206973207a6560008201527f726f206164647265737300000000000000000000000000000000000000000000602082015250565b6000610d2b602a83610cbe565b9150610d3682610ccf565b604082019050919050565b60006020820190508181036000830152610d5a81610d1e565b9050919050565b7f496e697469617465640000000000000000000000000000000000000000000000600082015250565b6000610d97600983610cbe565b9150610da282610d61565b602082019050919050565b60006020820190508181036000830152610dc681610d8a565b9050919050565b6000610dd882610a3c565b9150610de383610a3c565b92508267ffffffffffffffff03821115610e0057610dff610c39565b5b828201905092915050565b6000610e1682610aa9565b9150610e2183610aa9565b925082821015610e3457610e33610c39565b5b828203905092915050565b6000610e4a82610aa9565b9150610e5583610aa9565b9250817fffffffffffffffffffffffffffffffffffffffffffffffffffffffffffffffff0483118215151615610e8e57610e8d610c39565b5b828202905092915050565b7f4e487b7100000000000000000000000000000000000000000000000000000000600052601260045260246000fd5b6000610ed382610aa9565b9150610ede83610aa9565b925082610eee57610eed610e99565b5b828204905092915050565b6000604082019050610f0e6000830185610bb6565b610f1b6020830184610ab3565b9392505050565b60008115159050919050565b610f3781610f22565b8114610f4257600080fd5b50565b600081519050610f5481610f2e565b92915050565b600060208284031215610f7057610f6f610a37565b5b6000610f7e84828501610f45565b91505092915050565b7f5361666545524332303a204552433230206f7065726174696f6e20646964206e60008201527f6f74207375636365656400000000000000000000000000000000000000000000602082015250565b6000610fe3602a83610cbe565b9150610fee82610f87565b604082019050919050565b6000602082019050818103600083015261101281610fd6565b9050919050565b7f416464726573733a20696e73756666696369656e742062616c616e636520666f60008201527f722063616c6c0000000000000000000000000000000000000000000000000000602082015250565b6000611075602683610cbe565b915061108082611019565b604082019050919050565b600060208201905081810360008301526110a481611068565b9050919050565b600081519050919050565b600081905092915050565b60005b838110156110df5780820151818401526020810190506110c4565b838111156110ee576000848401525b50505050565b60006110ff826110ab565b61110981856110b6565b93506111198185602086016110c1565b80840191505092915050565b600061113182846110f4565b915081905092915050565b7f416464726573733a2063616c6c20746f206e6f6e2d636f6e7472616374000000600082015250565b6000611172601d83610cbe565b915061117d8261113c565b602082019050919050565b600060208201905081810360008301526111a181611165565b9050919050565b600081519050919050565b6000601f19601f8301169050919050565b60006111cf826111a8565b6111d98185610cbe565b93506111e98185602086016110c1565b6111f2816111b3565b840191505092915050565b6000602082019050818103600083015261121781846111c4565b90509291505056fea264697066735822122005c67270c2434b7c487601074b35c04cde58b97869717a70ab7b659c517d7a1964736f6c634300080b0033",
  "linkReferences": {},
  "deployedLinkReferences": {}
}