{
  "_format": "hh-sol-artifact-1",
  "contractName": "Staking",
  "sourceName": "contracts/ERC20/Staking.sol",
  "abi": [
    {
      "inputs": [
        {
          "internalType": "address",
          "name": "token",
          "type": "address"
        }
      ],
      "stateMutability": "nonpayable",
      "type": "constructor"
    },
    {
      "anonymous": false,
      "inputs": [
        {
          "indexed": false,
          "internalType": "uint256",
          "name": "amount",
          "type": "uint256"
        }
      ],
      "name": "AirdropChanged",
      "type": "event"
    },
    {
      "anonymous": false,
      "inputs": [
        {
          "indexed": true,
          "internalType": "address",
          "name": "previousOwner",
          "type": "address"
        },
        {
          "indexed": true,
          "internalType": "address",
          "name": "newOwner",
          "type": "address"
        }
      ],
      "name": "OwnershipTransferred",
      "type": "event"
    },
    {
      "anonymous": false,
      "inputs": [
        {
          "indexed": false,
          "internalType": "uint256",
          "name": "amount",
          "type": "uint256"
        }
      ],
      "name": "PenaltyChanged",
      "type": "event"
    },
    {
      "anonymous": false,
      "inputs": [
        {
          "indexed": true,
          "internalType": "address",
          "name": "user",
          "type": "address"
        },
        {
          "indexed": false,
          "internalType": "uint256",
          "name": "claimed",
          "type": "uint256"
        },
        {
          "indexed": false,
          "internalType": "uint256",
          "name": "timestamp",
          "type": "uint256"
        }
      ],
      "name": "StakeClaimed",
      "type": "event"
    },
    {
      "anonymous": false,
      "inputs": [
        {
          "indexed": true,
          "internalType": "address",
          "name": "user",
          "type": "address"
        },
        {
          "indexed": false,
          "internalType": "uint256",
          "name": "amount",
          "type": "uint256"
        },
        {
          "indexed": false,
          "internalType": "uint256",
          "name": "timestamp",
          "type": "uint256"
        },
        {
          "indexed": false,
          "internalType": "uint256",
          "name": "releaseTime",
          "type": "uint256"
        }
      ],
      "name": "Staked",
      "type": "event"
    },
    {
      "inputs": [],
      "name": "airdropRate",
      "outputs": [
        {
          "internalType": "uint256",
          "name": "",
          "type": "uint256"
        }
      ],
      "stateMutability": "view",
      "type": "function"
    },
    {
      "inputs": [],
      "name": "airdropSince",
      "outputs": [
        {
          "internalType": "uint256",
          "name": "",
          "type": "uint256"
        }
      ],
      "stateMutability": "view",
      "type": "function"
    },
    {
      "inputs": [],
      "name": "airdropStatus",
      "outputs": [
        {
          "internalType": "bool",
          "name": "",
          "type": "bool"
        }
      ],
      "stateMutability": "view",
      "type": "function"
    },
    {
      "inputs": [
        {
          "internalType": "uint256",
          "name": "timestamp",
          "type": "uint256"
        }
      ],
      "name": "calculateWeek",
      "outputs": [
        {
          "internalType": "uint256",
          "name": "",
          "type": "uint256"
        }
      ],
      "stateMutability": "view",
      "type": "function"
    },
    {
      "inputs": [
        {
          "internalType": "uint256",
          "name": "amount",
          "type": "uint256"
        }
      ],
      "name": "changeAirdropPercentage",
      "outputs": [],
      "stateMutability": "nonpayable",
      "type": "function"
    },
    {
      "inputs": [
        {
          "internalType": "uint256",
          "name": "amount",
          "type": "uint256"
        }
      ],
      "name": "changePenaltyFee",
      "outputs": [],
      "stateMutability": "nonpayable",
      "type": "function"
    },
    {
      "inputs": [],
      "name": "claimAirdrop",
      "outputs": [],
      "stateMutability": "nonpayable",
      "type": "function"
    },
    {
      "inputs": [
        {
          "internalType": "address",
          "name": "_user",
          "type": "address"
        }
      ],
      "name": "getStake",
      "outputs": [
        {
          "components": [
            {
              "internalType": "uint256",
              "name": "total_amount",
              "type": "uint256"
            },
            {
              "internalType": "uint256",
              "name": "penalty",
              "type": "uint256"
            },
            {
              "components": [
                {
                  "internalType": "uint256",
                  "name": "amount",
                  "type": "uint256"
                },
                {
                  "internalType": "uint256",
                  "name": "since",
                  "type": "uint256"
                },
                {
                  "internalType": "uint256",
                  "name": "rewardAPY",
                  "type": "uint256"
                },
                {
                  "internalType": "uint256",
                  "name": "releaseTime",
                  "type": "uint256"
                },
                {
                  "internalType": "uint256",
                  "name": "claimable",
                  "type": "uint256"
                },
                {
                  "internalType": "uint256",
                  "name": "claimableAirdrop",
                  "type": "uint256"
                },
                {
                  "internalType": "uint256",
                  "name": "latestClaimDrop",
                  "type": "uint256"
                }
              ],
              "internalType": "struct Staking.Stake",
              "name": "stake",
              "type": "tuple"
            }
          ],
          "internalType": "struct Staking.StakingSummary",
          "name": "",
          "type": "tuple"
        }
      ],
      "stateMutability": "view",
      "type": "function"
    },
    {
      "inputs": [
        {
          "internalType": "address",
          "name": "_user",
          "type": "address"
        }
      ],
      "name": "hasStake",
      "outputs": [
        {
          "internalType": "bool",
          "name": "",
          "type": "bool"
        }
      ],
      "stateMutability": "view",
      "type": "function"
    },
    {
      "inputs": [],
      "name": "owner",
      "outputs": [
        {
          "internalType": "address",
          "name": "",
          "type": "address"
        }
      ],
      "stateMutability": "view",
      "type": "function"
    },
    {
      "inputs": [
        {
          "internalType": "uint256",
          "name": "amount",
          "type": "uint256"
        },
        {
          "internalType": "uint256",
          "name": "stakePeriod",
          "type": "uint256"
        }
      ],
      "name": "stake",
      "outputs": [],
      "stateMutability": "nonpayable",
      "type": "function"
    },
    {
      "inputs": [],
      "name": "stakingPenaltyRate",
      "outputs": [
        {
          "internalType": "uint256",
          "name": "",
          "type": "uint256"
        }
      ],
      "stateMutability": "view",
      "type": "function"
    },
    {
      "inputs": [],
      "name": "startAirdrop",
      "outputs": [],
      "stateMutability": "nonpayable",
      "type": "function"
    },
    {
      "inputs": [],
      "name": "token_address",
      "outputs": [
        {
          "internalType": "address",
          "name": "",
          "type": "address"
        }
      ],
      "stateMutability": "view",
      "type": "function"
    },
    {
      "inputs": [
        {
          "internalType": "address",
          "name": "newOwner",
          "type": "address"
        }
      ],
      "name": "transferOwnership",
      "outputs": [],
      "stateMutability": "nonpayable",
      "type": "function"
    },
    {
      "inputs": [],
      "name": "withdrawStake",
      "outputs": [],
      "stateMutability": "nonpayable",
      "type": "function"
    }
  ],
  "bytecode": "0x608060405234801561001057600080fd5b506040516114b43803806114b483398101604081905261002f9161013b565b600160005561003d336100e9565b60966004556103206005819055600380546001600160a01b0319166001600160a01b03939093169290921790915560086020526102587f73ed51d9a9ae97efc03e2e9403323ea0baee0445620c27462d3b489d9656f377556102bc7f710833b5bb2eb79d0cd361965d2373a9a6d8e081b6ab1b16a33ecda4c017c4ef556301e133806000527f7419977860bd72ee6fb6c7156575c0535d165a0c8d9033e3b322dd975f5d44f95561016b565b600180546001600160a01b038381166001600160a01b0319831681179093556040519116919082907f8be0079c531659141344cd1fd0a4f28419497f9722a3daafe3b4186f6b6457e090600090a35050565b60006020828403121561014d57600080fd5b81516001600160a01b038116811461016457600080fd5b9392505050565b61133a8061017a6000396000f3fe608060405234801561001057600080fd5b50600436106101005760003560e01c8063b5d9df8311610097578063d2a569c311610066578063d2a569c314610259578063d5dbdf1b14610261578063e73e14bf14610274578063f2fde38b1461028757600080fd5b8063b5d9df831461022c578063b87da76d1461023f578063bed9d86114610248578063cb79c2e11461025057600080fd5b80638891cf0d116100d35780638891cf0d146101c65780638c63f97f146101dd5780638c8e8fee146101f05780638da5cb5b1461021b57600080fd5b80632cf1a5fb146101055780635b88349d146101275780637a766460146101315780637b0472f0146101b3575b600080fd5b6007546101129060ff1681565b60405190151581526020015b60405180910390f35b61012f61029a565b005b61014461013f366004611196565b6103e2565b60405161011e919060006101208201905082518252602083015160208301526040830151805160408401526020810151606084015260408101516080840152606081015160a0840152608081015160c084015260a081015160e084015260c08101516101008401525092915050565b61012f6101c13660046111bf565b610531565b6101cf60055481565b60405190815260200161011e565b61012f6101eb3660046111e1565b61077a565b600354610203906001600160a01b031681565b6040516001600160a01b03909116815260200161011e565b6001546001600160a01b0316610203565b6101cf61023a3660046111e1565b610810565b6101cf60065481565b61012f610830565b6101cf60045481565b61012f610a0c565b61012f61026f3660046111e1565b610a27565b610112610282366004611196565b610ab6565b61012f610295366004611196565b610b33565b60075460ff166102f15760405162461bcd60e51b815260206004820152600f60248201527f4e6f7420496e697469616c697a6564000000000000000000000000000000000060448201526064015b60405180910390fd5b33600090815260026020526040812080549091036103455760405162461bcd60e51b815260206004820152601160248201527014dd185ada5b99c81b9bdd08199bdd5b99607a1b60448201526064016102e8565b60006103548260060154610810565b8254909150156103de57806000036103ae5760405162461bcd60e51b815260206004820152601560248201527f436c61696d61626c65206f6e63652061207765656b000000000000000000000060448201526064016102e8565b6000600583015542600683015560035482546103de916001600160a01b03169033906103d990610bc3565b610be5565b5050565b6103ea611138565b6001600160a01b0382166000908152600260208181526040808420815160e081018352815480825260018301549482019490945293810154918401919091526003810154606084015260048101546080840152600581015460a08401526006015460c08301529091036104935760405162461bcd60e51b815260206004820152601160248201527014dd185ada5b99c81b9bdd08199bdd5b99607a1b60448201526064016102e8565b60408051606081018252600080825260208201819052918101839052906104b983610c93565b90504282604001516060015111156104dd5782516104d79082610cca565b60208301525b60006104ec8460c00151610810565b11156105105760006105018460000151610bc3565b604084015160a001525061051e565b6040820151600060a0909101525b6040820151608001529051815292915050565b610539610d13565b600082116105895760405162461bcd60e51b815260206004820152601460248201527f43616e6e6f74207374616b65206e6f7468696e6700000000000000000000000060448201526064016102e8565b33600090815260026020526040902054156105e65760405162461bcd60e51b815260206004820152601060248201527f557365722069732061205374616b65720000000000000000000000000000000060448201526064016102e8565b60008181526008602052604081205490036106435760405162461bcd60e51b815260206004820152601160248201527f5061636b616765206e6f7420466f756e6400000000000000000000000000000060448201526064016102e8565b6040805160e0810182528381524260208083018290526000858152600890915283902054928201929092526060810161067c8385611210565b81526020016000815260200160008152602001600081525060026000336001600160a01b03166001600160a01b03168152602001908152602001600020600082015181600001556020820151816001015560408201518160020155606082015181600301556080820151816004015560a0820151816005015560c08201518160060155905050610723600360009054906101000a90046001600160a01b0316333086610d6c565b337fb4caaf29adda3eefee3ad552a8e85058589bf834c7466cae4ee58787f70589ed84836107518187611210565b6040805193845260208401929092529082015260600160405180910390a2506103de6001600055565b610782610dc3565b61012c8111156107d45760405162461bcd60e51b815260206004820152600e60248201527f50656e616c7479206d617820332500000000000000000000000000000000000060448201526064016102e8565b60048190556040518181527fcfa4f4cf1cd64d13a167a8e75605e0c0c9d6700e903d17c5dc11f593254a04a9906020015b60405180910390a150565b600062093a806108208342611223565b61082a9190611236565b92915050565b610838610d13565b336000908152600260208181526040808420815160e081018352815480825260018301549482019490945293810154918401919091526003810154606084015260048101546080840152600581015460a08401526006015460c08301529091036108d85760405162461bcd60e51b815260206004820152601160248201527014dd185ada5b99c81b9bdd08199bdd5b99607a1b60448201526064016102e8565b60006108e382610c93565b33600090815260026020819052604082208281556001810183905590810182905560038101829055600481018290556005810182905560060155606083015190915042101561099657600354825161094b916001600160a01b03169033906103d99085610cca565b815133907fd8cc75b8a0ba011aba2385703af6a0e5593ceae53e9951a7358f657ddf3f8dac9061097b9084610cca565b604080519182524260208301520160405180910390a26109fe565b60035482516109b6916001600160a01b03169033906103d9908590611210565b815133907fd8cc75b8a0ba011aba2385703af6a0e5593ceae53e9951a7358f657ddf3f8dac906109e7908490611210565b604080519182524260208301520160405180910390a25b5050610a0a6001600055565b565b610a14610dc3565b426006556007805460ff19166001179055565b610a2f610dc3565b6107d0811115610a815760405162461bcd60e51b815260206004820152600f60248201527f41697264726f70206d617820323025000000000000000000000000000000000060448201526064016102e8565b60058190556040518181527fcc672f1026b958c0cfbfdd89ebe8ddcbc127f16ec24da6c2c7a4de26a8b1857e90602001610805565b6001600160a01b0381166000908152600260208181526040808420815160e081018352815480825260018301549482019490945293810154918401919091526003810154606084015260048101546080840152600581015460a08401526006015460c083015215610b2a5750600192915050565b50600092915050565b610b3b610dc3565b6001600160a01b038116610bb75760405162461bcd60e51b815260206004820152602660248201527f4f776e61626c653a206e6577206f776e657220697320746865207a65726f206160448201527f646472657373000000000000000000000000000000000000000000000000000060648201526084016102e8565b610bc081610e1d565b50565b60006301dfe20061271060055484610bdb9190611258565b6108209190611236565b6040516001600160a01b038316602482015260448101829052610c8e9084907fa9059cbb00000000000000000000000000000000000000000000000000000000906064015b60408051601f198184030181529190526020810180517bffffffffffffffffffffffffffffffffffffffffffffffffffffffff167fffffffff0000000000000000000000000000000000000000000000000000000090931692909217909152610e87565b505050565b60006b204fce5e3e25026110000000610caf8360200151610f6c565b60408401518451610cc09190611258565b6108209190611258565b600061271060045483610cdd9190611258565b610ce79190611236565b61271060045485610cf89190611258565b610d029190611236565b610d0c9190611210565b9392505050565b600260005403610d655760405162461bcd60e51b815260206004820152601f60248201527f5265656e7472616e637947756172643a207265656e7472616e742063616c6c0060448201526064016102e8565b6002600055565b6040516001600160a01b0380851660248301528316604482015260648101829052610dbd9085907f23b872dd0000000000000000000000000000000000000000000000000000000090608401610c2a565b50505050565b6001546001600160a01b03163314610a0a5760405162461bcd60e51b815260206004820181905260248201527f4f776e61626c653a2063616c6c6572206973206e6f7420746865206f776e657260448201526064016102e8565b600180546001600160a01b038381167fffffffffffffffffffffffff0000000000000000000000000000000000000000831681179093556040519116919082907f8be0079c531659141344cd1fd0a4f28419497f9722a3daafe3b4186f6b6457e090600090a35050565b6000610edc826040518060400160405280602081526020017f5361666545524332303a206c6f772d6c6576656c2063616c6c206661696c6564815250856001600160a01b0316610f919092919063ffffffff16565b805190915015610c8e5780806020019051810190610efa919061126f565b610c8e5760405162461bcd60e51b815260206004820152602a60248201527f5361666545524332303a204552433230206f7065726174696f6e20646964206e60448201527f6f7420737563636565640000000000000000000000000000000000000000000060648201526084016102e8565b60006301e13380610f7d8342611223565b6108209069d3c21bcecceda1000000611258565b6060610fa08484600085610fa8565b949350505050565b6060824710156110205760405162461bcd60e51b815260206004820152602660248201527f416464726573733a20696e73756666696369656e742062616c616e636520666f60448201527f722063616c6c000000000000000000000000000000000000000000000000000060648201526084016102e8565b600080866001600160a01b0316858760405161103c91906112b5565b60006040518083038185875af1925050503d8060008114611079576040519150601f19603f3d011682016040523d82523d6000602084013e61107e565b606091505b509150915061108f8783838761109a565b979650505050505050565b60608315611109578251600003611102576001600160a01b0385163b6111025760405162461bcd60e51b815260206004820152601d60248201527f416464726573733a2063616c6c20746f206e6f6e2d636f6e747261637400000060448201526064016102e8565b5081610fa0565b610fa0838381511561111e5781518083602001fd5b8060405162461bcd60e51b81526004016102e891906112d1565b604051806060016040528060008152602001600081526020016111916040518060e00160405280600081526020016000815260200160008152602001600081526020016000815260200160008152602001600081525090565b905290565b6000602082840312156111a857600080fd5b81356001600160a01b0381168114610d0c57600080fd5b600080604083850312156111d257600080fd5b50508035926020909101359150565b6000602082840312156111f357600080fd5b5035919050565b634e487b7160e01b600052601160045260246000fd5b8082018082111561082a5761082a6111fa565b8181038181111561082a5761082a6111fa565b60008261125357634e487b7160e01b600052601260045260246000fd5b500490565b808202811582820484141761082a5761082a6111fa565b60006020828403121561128157600080fd5b81518015158114610d0c57600080fd5b60005b838110156112ac578181015183820152602001611294565b50506000910152565b600082516112c7818460208701611291565b9190910192915050565b60208152600082518060208401526112f0816040850160208701611291565b601f01601f1916919091016040019291505056fea26469706673582212207a549a2038f2b0999b8af67798fe1b28461ecfb648239b0c54bdc8097bbe73e464736f6c63430008110033",
  "linkReferences": {},
  "deployedLinkReferences": {}
}