{
  "_format": "hh-sol-artifact-1",
  "contractName": "Staking",
  "sourceName": "contracts/ERC20/Staking.sol",
  "abi": [
    {
      "inputs": [
        {
          "internalType": "address",
          "name": "token",
          "type": "address"
        }
      ],
      "stateMutability": "nonpayable",
      "type": "constructor"
    },
    {
      "anonymous": false,
      "inputs": [
        {
          "indexed": false,
          "internalType": "uint256",
          "name": "amount",
          "type": "uint256"
        }
      ],
      "name": "AirdropChanged",
      "type": "event"
    },
    {
      "anonymous": false,
      "inputs": [
        {
          "indexed": true,
          "internalType": "address",
          "name": "previousOwner",
          "type": "address"
        },
        {
          "indexed": true,
          "internalType": "address",
          "name": "newOwner",
          "type": "address"
        }
      ],
      "name": "OwnershipTransferred",
      "type": "event"
    },
    {
      "anonymous": false,
      "inputs": [
        {
          "indexed": false,
          "internalType": "uint256",
          "name": "amount",
          "type": "uint256"
        }
      ],
      "name": "PenaltyChanged",
      "type": "event"
    },
    {
      "anonymous": false,
      "inputs": [
        {
          "indexed": true,
          "internalType": "address",
          "name": "user",
          "type": "address"
        },
        {
          "indexed": false,
          "internalType": "uint256",
          "name": "claimed",
          "type": "uint256"
        },
        {
          "indexed": false,
          "internalType": "uint256",
          "name": "timestamp",
          "type": "uint256"
        }
      ],
      "name": "StakeClaimed",
      "type": "event"
    },
    {
      "anonymous": false,
      "inputs": [
        {
          "indexed": true,
          "internalType": "address",
          "name": "user",
          "type": "address"
        },
        {
          "indexed": false,
          "internalType": "uint256",
          "name": "amount",
          "type": "uint256"
        },
        {
          "indexed": false,
          "internalType": "uint256",
          "name": "timestamp",
          "type": "uint256"
        },
        {
          "indexed": false,
          "internalType": "uint256",
          "name": "releaseTime",
          "type": "uint256"
        }
      ],
      "name": "Staked",
      "type": "event"
    },
    {
      "inputs": [],
      "name": "airdropRate",
      "outputs": [
        {
          "internalType": "uint256",
          "name": "",
          "type": "uint256"
        }
      ],
      "stateMutability": "view",
      "type": "function"
    },
    {
      "inputs": [],
      "name": "airdropSince",
      "outputs": [
        {
          "internalType": "uint256",
          "name": "",
          "type": "uint256"
        }
      ],
      "stateMutability": "view",
      "type": "function"
    },
    {
      "inputs": [],
      "name": "airdropStatus",
      "outputs": [
        {
          "internalType": "bool",
          "name": "",
          "type": "bool"
        }
      ],
      "stateMutability": "view",
      "type": "function"
    },
    {
      "inputs": [
        {
          "internalType": "uint256",
          "name": "timestamp",
          "type": "uint256"
        }
      ],
      "name": "calculateWeek",
      "outputs": [
        {
          "internalType": "uint256",
          "name": "",
          "type": "uint256"
        }
      ],
      "stateMutability": "view",
      "type": "function"
    },
    {
      "inputs": [
        {
          "internalType": "uint256",
          "name": "amount",
          "type": "uint256"
        }
      ],
      "name": "changeAirdropPercentage",
      "outputs": [],
      "stateMutability": "nonpayable",
      "type": "function"
    },
    {
      "inputs": [
        {
          "internalType": "uint256",
          "name": "amount",
          "type": "uint256"
        }
      ],
      "name": "changePenaltyFee",
      "outputs": [],
      "stateMutability": "nonpayable",
      "type": "function"
    },
    {
      "inputs": [],
      "name": "claimAirdrop",
      "outputs": [],
      "stateMutability": "nonpayable",
      "type": "function"
    },
    {
      "inputs": [
        {
          "internalType": "address",
          "name": "_user",
          "type": "address"
        }
      ],
      "name": "getStake",
      "outputs": [
        {
          "components": [
            {
              "internalType": "uint256",
              "name": "total_amount",
              "type": "uint256"
            },
            {
              "internalType": "uint256",
              "name": "penalty",
              "type": "uint256"
            },
            {
              "components": [
                {
                  "internalType": "uint256",
                  "name": "amount",
                  "type": "uint256"
                },
                {
                  "internalType": "uint256",
                  "name": "since",
                  "type": "uint256"
                },
                {
                  "internalType": "uint256",
                  "name": "rewardAPY",
                  "type": "uint256"
                },
                {
                  "internalType": "uint256",
                  "name": "releaseTime",
                  "type": "uint256"
                },
                {
                  "internalType": "uint256",
                  "name": "claimable",
                  "type": "uint256"
                },
                {
                  "internalType": "uint256",
                  "name": "claimableAirdrop",
                  "type": "uint256"
                },
                {
                  "internalType": "uint256",
                  "name": "latestClaimDrop",
                  "type": "uint256"
                }
              ],
              "internalType": "struct Staking.Stake",
              "name": "stake",
              "type": "tuple"
            }
          ],
          "internalType": "struct Staking.StakingSummary",
          "name": "",
          "type": "tuple"
        }
      ],
      "stateMutability": "view",
      "type": "function"
    },
    {
      "inputs": [
        {
          "internalType": "address",
          "name": "_user",
          "type": "address"
        }
      ],
      "name": "hasStake",
      "outputs": [
        {
          "internalType": "bool",
          "name": "",
          "type": "bool"
        }
      ],
      "stateMutability": "view",
      "type": "function"
    },
    {
      "inputs": [],
      "name": "owner",
      "outputs": [
        {
          "internalType": "address",
          "name": "",
          "type": "address"
        }
      ],
      "stateMutability": "view",
      "type": "function"
    },
    {
      "inputs": [],
      "name": "renounceOwnership",
      "outputs": [],
      "stateMutability": "nonpayable",
      "type": "function"
    },
    {
      "inputs": [
        {
          "internalType": "uint256",
          "name": "amount",
          "type": "uint256"
        },
        {
          "internalType": "uint256",
          "name": "stakePeriod",
          "type": "uint256"
        }
      ],
      "name": "stake",
      "outputs": [],
      "stateMutability": "nonpayable",
      "type": "function"
    },
    {
      "inputs": [],
      "name": "stakingPenaltyRate",
      "outputs": [
        {
          "internalType": "uint256",
          "name": "",
          "type": "uint256"
        }
      ],
      "stateMutability": "view",
      "type": "function"
    },
    {
      "inputs": [],
      "name": "startAirdrop",
      "outputs": [],
      "stateMutability": "nonpayable",
      "type": "function"
    },
    {
      "inputs": [],
      "name": "token_address",
      "outputs": [
        {
          "internalType": "address",
          "name": "",
          "type": "address"
        }
      ],
      "stateMutability": "view",
      "type": "function"
    },
    {
      "inputs": [
        {
          "internalType": "address",
          "name": "newOwner",
          "type": "address"
        }
      ],
      "name": "transferOwnership",
      "outputs": [],
      "stateMutability": "nonpayable",
      "type": "function"
    },
    {
      "inputs": [],
      "name": "withdrawStake",
      "outputs": [],
      "stateMutability": "nonpayable",
      "type": "function"
    }
  ],
  "bytecode": "0x608060405234801561001057600080fd5b506040516114e93803806114e983398101604081905261002f9161013b565b600160005561003d336100e9565b60966004556103206005819055600380546001600160a01b0319166001600160a01b03939093169290921790915560086020526102587f73ed51d9a9ae97efc03e2e9403323ea0baee0445620c27462d3b489d9656f377556102bc7f710833b5bb2eb79d0cd361965d2373a9a6d8e081b6ab1b16a33ecda4c017c4ef556301e133806000527f7419977860bd72ee6fb6c7156575c0535d165a0c8d9033e3b322dd975f5d44f95561016b565b600180546001600160a01b038381166001600160a01b0319831681179093556040519116919082907f8be0079c531659141344cd1fd0a4f28419497f9722a3daafe3b4186f6b6457e090600090a35050565b60006020828403121561014d57600080fd5b81516001600160a01b038116811461016457600080fd5b9392505050565b61136f8061017a6000396000f3fe608060405234801561001057600080fd5b506004361061011b5760003560e01c80638da5cb5b116100b2578063cb79c2e111610081578063d5dbdf1b11610066578063d5dbdf1b14610284578063e73e14bf14610297578063f2fde38b146102aa57600080fd5b8063cb79c2e114610273578063d2a569c31461027c57600080fd5b80638da5cb5b1461023e578063b5d9df831461024f578063b87da76d14610262578063bed9d8611461026b57600080fd5b80637b0472f0116100ee5780637b0472f0146101d65780638891cf0d146101e95780638c63f97f146102005780638c8e8fee1461021357600080fd5b80632cf1a5fb146101205780635b88349d14610142578063715018a61461014c5780637a76646014610154575b600080fd5b60075461012d9060ff1681565b60405190151581526020015b60405180910390f35b61014a6102bd565b005b61014a610405565b6101676101623660046111cb565b610419565b604051610139919060006101208201905082518252602083015160208301526040830151805160408401526020810151606084015260408101516080840152606081015160a0840152608081015160c084015260a081015160e084015260c08101516101008401525092915050565b61014a6101e43660046111f4565b610568565b6101f260055481565b604051908152602001610139565b61014a61020e366004611216565b6107b1565b600354610226906001600160a01b031681565b6040516001600160a01b039091168152602001610139565b6001546001600160a01b0316610226565b6101f261025d366004611216565b610847565b6101f260065481565b61014a610867565b6101f260045481565b61014a610a41565b61014a610292366004611216565b610a5c565b61012d6102a53660046111cb565b610aeb565b61014a6102b83660046111cb565b610b68565b60075460ff166103145760405162461bcd60e51b815260206004820152600f60248201527f4e6f7420496e697469616c697a6564000000000000000000000000000000000060448201526064015b60405180910390fd5b33600090815260026020526040812080549091036103685760405162461bcd60e51b815260206004820152601160248201527014dd185ada5b99c81b9bdd08199bdd5b99607a1b604482015260640161030b565b60006103778260060154610847565b82549091501561040157806000036103d15760405162461bcd60e51b815260206004820152601560248201527f436c61696d61626c65206f6e63652061207765656b0000000000000000000000604482015260640161030b565b600060058301554260068301556003548254610401916001600160a01b03169033906103fc90610bf8565b610c1a565b5050565b61040d610cc8565b6104176000610d22565b565b61042161116d565b6001600160a01b0382166000908152600260208181526040808420815160e081018352815480825260018301549482019490945293810154918401919091526003810154606084015260048101546080840152600581015460a08401526006015460c08301529091036104ca5760405162461bcd60e51b815260206004820152601160248201527014dd185ada5b99c81b9bdd08199bdd5b99607a1b604482015260640161030b565b60408051606081018252600080825260208201819052918101839052906104f083610d8c565b905042826040015160600151111561051457825161050e9082610dc3565b60208301525b60006105238460c00151610847565b11156105475760006105388460000151610bf8565b604084015160a0015250610555565b6040820151600060a0909101525b6040820151608001529051815292915050565b610570610e0c565b600082116105c05760405162461bcd60e51b815260206004820152601460248201527f43616e6e6f74207374616b65206e6f7468696e67000000000000000000000000604482015260640161030b565b336000908152600260205260409020541561061d5760405162461bcd60e51b815260206004820152601060248201527f557365722069732061205374616b657200000000000000000000000000000000604482015260640161030b565b600081815260086020526040812054900361067a5760405162461bcd60e51b815260206004820152601160248201527f5061636b616765206e6f7420466f756e64000000000000000000000000000000604482015260640161030b565b6040805160e081018252838152426020808301829052600085815260089091528390205492820192909252606081016106b38385611245565b81526020016000815260200160008152602001600081525060026000336001600160a01b03166001600160a01b03168152602001908152602001600020600082015181600001556020820151816001015560408201518160020155606082015181600301556080820151816004015560a0820151816005015560c0820151816006015590505061075a600360009054906101000a90046001600160a01b0316333086610e65565b337fb4caaf29adda3eefee3ad552a8e85058589bf834c7466cae4ee58787f70589ed84836107888187611245565b6040805193845260208401929092529082015260600160405180910390a2506104016001600055565b6107b9610cc8565b61012c81111561080b5760405162461bcd60e51b815260206004820152600e60248201527f50656e616c7479206d6178203325000000000000000000000000000000000000604482015260640161030b565b60048190556040518181527fcfa4f4cf1cd64d13a167a8e75605e0c0c9d6700e903d17c5dc11f593254a04a9906020015b60405180910390a150565b600062093a806108578342611258565b610861919061126b565b92915050565b61086f610e0c565b336000908152600260208181526040808420815160e081018352815480825260018301549482019490945293810154918401919091526003810154606084015260048101546080840152600581015460a08401526006015460c083015290910361090f5760405162461bcd60e51b815260206004820152601160248201527014dd185ada5b99c81b9bdd08199bdd5b99607a1b604482015260640161030b565b600061091a82610d8c565b3360009081526002602081905260408220828155600181018390559081018290556003810182905560048101829055600581018290556006015560608301519091504210156109cd576003548251610982916001600160a01b03169033906103fc9085610dc3565b815133907fd8cc75b8a0ba011aba2385703af6a0e5593ceae53e9951a7358f657ddf3f8dac906109b29084610dc3565b604080519182524260208301520160405180910390a2610a35565b60035482516109ed916001600160a01b03169033906103fc908590611245565b815133907fd8cc75b8a0ba011aba2385703af6a0e5593ceae53e9951a7358f657ddf3f8dac90610a1e908490611245565b604080519182524260208301520160405180910390a25b50506104176001600055565b610a49610cc8565b426006556007805460ff19166001179055565b610a64610cc8565b6107d0811115610ab65760405162461bcd60e51b815260206004820152600f60248201527f41697264726f70206d6178203230250000000000000000000000000000000000604482015260640161030b565b60058190556040518181527fcc672f1026b958c0cfbfdd89ebe8ddcbc127f16ec24da6c2c7a4de26a8b1857e9060200161083c565b6001600160a01b0381166000908152600260208181526040808420815160e081018352815480825260018301549482019490945293810154918401919091526003810154606084015260048101546080840152600581015460a08401526006015460c083015215610b5f5750600192915050565b50600092915050565b610b70610cc8565b6001600160a01b038116610bec5760405162461bcd60e51b815260206004820152602660248201527f4f776e61626c653a206e6577206f776e657220697320746865207a65726f206160448201527f6464726573730000000000000000000000000000000000000000000000000000606482015260840161030b565b610bf581610d22565b50565b60006301dfe20061271060055484610c10919061128d565b610857919061126b565b6040516001600160a01b038316602482015260448101829052610cc39084907fa9059cbb00000000000000000000000000000000000000000000000000000000906064015b60408051601f198184030181529190526020810180517bffffffffffffffffffffffffffffffffffffffffffffffffffffffff167fffffffff0000000000000000000000000000000000000000000000000000000090931692909217909152610ebc565b505050565b6001546001600160a01b031633146104175760405162461bcd60e51b815260206004820181905260248201527f4f776e61626c653a2063616c6c6572206973206e6f7420746865206f776e6572604482015260640161030b565b600180546001600160a01b038381167fffffffffffffffffffffffff0000000000000000000000000000000000000000831681179093556040519116919082907f8be0079c531659141344cd1fd0a4f28419497f9722a3daafe3b4186f6b6457e090600090a35050565b60006b204fce5e3e25026110000000610da88360200151610fa1565b60408401518451610db9919061128d565b610857919061128d565b600061271060045483610dd6919061128d565b610de0919061126b565b61271060045485610df1919061128d565b610dfb919061126b565b610e059190611245565b9392505050565b600260005403610e5e5760405162461bcd60e51b815260206004820152601f60248201527f5265656e7472616e637947756172643a207265656e7472616e742063616c6c00604482015260640161030b565b6002600055565b6040516001600160a01b0380851660248301528316604482015260648101829052610eb69085907f23b872dd0000000000000000000000000000000000000000000000000000000090608401610c5f565b50505050565b6000610f11826040518060400160405280602081526020017f5361666545524332303a206c6f772d6c6576656c2063616c6c206661696c6564815250856001600160a01b0316610fc69092919063ffffffff16565b805190915015610cc35780806020019051810190610f2f91906112a4565b610cc35760405162461bcd60e51b815260206004820152602a60248201527f5361666545524332303a204552433230206f7065726174696f6e20646964206e60448201527f6f74207375636365656400000000000000000000000000000000000000000000606482015260840161030b565b60006301e13380610fb28342611258565b6108579069d3c21bcecceda100000061128d565b6060610fd58484600085610fdd565b949350505050565b6060824710156110555760405162461bcd60e51b815260206004820152602660248201527f416464726573733a20696e73756666696369656e742062616c616e636520666f60448201527f722063616c6c0000000000000000000000000000000000000000000000000000606482015260840161030b565b600080866001600160a01b0316858760405161107191906112ea565b60006040518083038185875af1925050503d80600081146110ae576040519150601f19603f3d011682016040523d82523d6000602084013e6110b3565b606091505b50915091506110c4878383876110cf565b979650505050505050565b6060831561113e578251600003611137576001600160a01b0385163b6111375760405162461bcd60e51b815260206004820152601d60248201527f416464726573733a2063616c6c20746f206e6f6e2d636f6e7472616374000000604482015260640161030b565b5081610fd5565b610fd583838151156111535781518083602001fd5b8060405162461bcd60e51b815260040161030b9190611306565b604051806060016040528060008152602001600081526020016111c66040518060e00160405280600081526020016000815260200160008152602001600081526020016000815260200160008152602001600081525090565b905290565b6000602082840312156111dd57600080fd5b81356001600160a01b0381168114610e0557600080fd5b6000806040838503121561120757600080fd5b50508035926020909101359150565b60006020828403121561122857600080fd5b5035919050565b634e487b7160e01b600052601160045260246000fd5b808201808211156108615761086161122f565b818103818111156108615761086161122f565b60008261128857634e487b7160e01b600052601260045260246000fd5b500490565b80820281158282048414176108615761086161122f565b6000602082840312156112b657600080fd5b81518015158114610e0557600080fd5b60005b838110156112e15781810151838201526020016112c9565b50506000910152565b600082516112fc8184602087016112c6565b9190910192915050565b60208152600082518060208401526113258160408501602087016112c6565b601f01601f1916919091016040019291505056fea2646970667358221220f4e14cc79087a1a9fd44a21fea296590900eaf980ce88a65d794de08ab126c2c64736f6c63430008110033",
  "linkReferences": {},
  "deployedLinkReferences": {}
}