{
  "_format": "hh-sol-artifact-1",
  "contractName": "Staking",
  "sourceName": "contracts/ERC20/Staking.sol",
  "abi": [
    {
      "inputs": [
        {
          "internalType": "address",
          "name": "token",
          "type": "address"
        }
      ],
      "stateMutability": "nonpayable",
      "type": "constructor"
    },
    {
      "anonymous": false,
      "inputs": [
        {
          "indexed": false,
          "internalType": "uint256",
          "name": "amount",
          "type": "uint256"
        }
      ],
      "name": "AirdropChanged",
      "type": "event"
    },
    {
      "anonymous": false,
      "inputs": [
        {
          "indexed": true,
          "internalType": "address",
          "name": "previousOwner",
          "type": "address"
        },
        {
          "indexed": true,
          "internalType": "address",
          "name": "newOwner",
          "type": "address"
        }
      ],
      "name": "OwnershipTransferred",
      "type": "event"
    },
    {
      "anonymous": false,
      "inputs": [
        {
          "indexed": false,
          "internalType": "uint256",
          "name": "amount",
          "type": "uint256"
        }
      ],
      "name": "PenaltyChanged",
      "type": "event"
    },
    {
      "anonymous": false,
      "inputs": [
        {
          "indexed": true,
          "internalType": "address",
          "name": "user",
          "type": "address"
        },
        {
          "indexed": false,
          "internalType": "uint256",
          "name": "claimed",
          "type": "uint256"
        },
        {
          "indexed": false,
          "internalType": "uint256",
          "name": "timestamp",
          "type": "uint256"
        }
      ],
      "name": "StakeClaimed",
      "type": "event"
    },
    {
      "anonymous": false,
      "inputs": [
        {
          "indexed": true,
          "internalType": "address",
          "name": "user",
          "type": "address"
        },
        {
          "indexed": false,
          "internalType": "uint256",
          "name": "amount",
          "type": "uint256"
        },
        {
          "indexed": false,
          "internalType": "uint256",
          "name": "timestamp",
          "type": "uint256"
        },
        {
          "indexed": false,
          "internalType": "uint256",
          "name": "releaseTime",
          "type": "uint256"
        }
      ],
      "name": "Staked",
      "type": "event"
    },
    {
      "inputs": [],
      "name": "airdropRate",
      "outputs": [
        {
          "internalType": "uint256",
          "name": "",
          "type": "uint256"
        }
      ],
      "stateMutability": "view",
      "type": "function"
    },
    {
      "inputs": [],
      "name": "airdropSince",
      "outputs": [
        {
          "internalType": "uint256",
          "name": "",
          "type": "uint256"
        }
      ],
      "stateMutability": "view",
      "type": "function"
    },
    {
      "inputs": [],
      "name": "airdropStatus",
      "outputs": [
        {
          "internalType": "bool",
          "name": "",
          "type": "bool"
        }
      ],
      "stateMutability": "view",
      "type": "function"
    },
    {
      "inputs": [
        {
          "internalType": "uint256",
          "name": "timestamp",
          "type": "uint256"
        }
      ],
      "name": "calculateWeek",
      "outputs": [
        {
          "internalType": "uint256",
          "name": "",
          "type": "uint256"
        }
      ],
      "stateMutability": "view",
      "type": "function"
    },
    {
      "inputs": [
        {
          "internalType": "uint256",
          "name": "amount",
          "type": "uint256"
        }
      ],
      "name": "changeAirdropPercentage",
      "outputs": [],
      "stateMutability": "nonpayable",
      "type": "function"
    },
    {
      "inputs": [
        {
          "internalType": "uint256",
          "name": "amount",
          "type": "uint256"
        }
      ],
      "name": "changePenaltyFee",
      "outputs": [],
      "stateMutability": "nonpayable",
      "type": "function"
    },
    {
      "inputs": [],
      "name": "claimAirdrop",
      "outputs": [],
      "stateMutability": "nonpayable",
      "type": "function"
    },
    {
      "inputs": [],
      "name": "hasStake",
      "outputs": [
        {
          "components": [
            {
              "internalType": "uint256",
              "name": "total_amount",
              "type": "uint256"
            },
            {
              "internalType": "uint256",
              "name": "penalty",
              "type": "uint256"
            },
            {
              "components": [
                {
                  "internalType": "uint256",
                  "name": "amount",
                  "type": "uint256"
                },
                {
                  "internalType": "uint256",
                  "name": "since",
                  "type": "uint256"
                },
                {
                  "internalType": "uint256",
                  "name": "rewardAPY",
                  "type": "uint256"
                },
                {
                  "internalType": "uint256",
                  "name": "releaseTime",
                  "type": "uint256"
                },
                {
                  "internalType": "uint256",
                  "name": "claimable",
                  "type": "uint256"
                },
                {
                  "internalType": "uint256",
                  "name": "claimableAirdrop",
                  "type": "uint256"
                },
                {
                  "internalType": "uint256",
                  "name": "latestClaimDrop",
                  "type": "uint256"
                }
              ],
              "internalType": "struct Staking.Stake",
              "name": "stake",
              "type": "tuple"
            }
          ],
          "internalType": "struct Staking.StakingSummary",
          "name": "",
          "type": "tuple"
        }
      ],
      "stateMutability": "view",
      "type": "function"
    },
    {
      "inputs": [],
      "name": "owner",
      "outputs": [
        {
          "internalType": "address",
          "name": "",
          "type": "address"
        }
      ],
      "stateMutability": "view",
      "type": "function"
    },
    {
      "inputs": [
        {
          "internalType": "uint256",
          "name": "amount",
          "type": "uint256"
        },
        {
          "internalType": "uint256",
          "name": "stakePeriod",
          "type": "uint256"
        }
      ],
      "name": "stake",
      "outputs": [],
      "stateMutability": "nonpayable",
      "type": "function"
    },
    {
      "inputs": [],
      "name": "stakingPenaltyRate",
      "outputs": [
        {
          "internalType": "uint256",
          "name": "",
          "type": "uint256"
        }
      ],
      "stateMutability": "view",
      "type": "function"
    },
    {
      "inputs": [],
      "name": "startAirdrop",
      "outputs": [],
      "stateMutability": "nonpayable",
      "type": "function"
    },
    {
      "inputs": [],
      "name": "token_address",
      "outputs": [
        {
          "internalType": "address",
          "name": "",
          "type": "address"
        }
      ],
      "stateMutability": "view",
      "type": "function"
    },
    {
      "inputs": [
        {
          "internalType": "address",
          "name": "newOwner",
          "type": "address"
        }
      ],
      "name": "transferOwnership",
      "outputs": [],
      "stateMutability": "nonpayable",
      "type": "function"
    },
    {
      "inputs": [],
      "name": "withdrawStake",
      "outputs": [],
      "stateMutability": "nonpayable",
      "type": "function"
    }
  ],
  "bytecode": "0x608060405234801561001057600080fd5b5060405161138438038061138483398101604081905261002f9161013b565b600160005561003d336100e9565b60966004556103206005819055600380546001600160a01b0319166001600160a01b03939093169290921790915560086020526102587f73ed51d9a9ae97efc03e2e9403323ea0baee0445620c27462d3b489d9656f377556102bc7f710833b5bb2eb79d0cd361965d2373a9a6d8e081b6ab1b16a33ecda4c017c4ef556301e133806000527f7419977860bd72ee6fb6c7156575c0535d165a0c8d9033e3b322dd975f5d44f95561016b565b600180546001600160a01b038381166001600160a01b0319831681179093556040519116919082907f8be0079c531659141344cd1fd0a4f28419497f9722a3daafe3b4186f6b6457e090600090a35050565b60006020828403121561014d57600080fd5b81516001600160a01b038116811461016457600080fd5b9392505050565b61120a8061017a6000396000f3fe608060405234801561001057600080fd5b50600436106100f55760003560e01c80638da5cb5b11610097578063cb79c2e111610066578063cb79c2e11461023e578063d2a569c314610247578063d5dbdf1b1461024f578063f2fde38b1461026257600080fd5b80638da5cb5b14610209578063b5d9df831461021a578063b87da76d1461022d578063bed9d8611461023657600080fd5b80637b0472f0116100d35780637b0472f0146101a15780638891cf0d146101b45780638c63f97f146101cb5780638c8e8fee146101de57600080fd5b806310486b6a146100fa5780632cf1a5fb1461017a5780635b88349d14610197575b600080fd5b610102610275565b604051610171919060006101208201905082518252602083015160208301526040830151805160408401526020810151606084015260408101516080840152606081015160a0840152608081015160c084015260a081015160e084015260c08101516101008401525092915050565b60405180910390f35b6007546101879060ff1681565b6040519015158152602001610171565b61019f6103a0565b005b61019f6101af366004611009565b6104a3565b6101bd60055481565b604051908152602001610171565b61019f6101d936600461102b565b610764565b6003546101f1906001600160a01b031681565b6040516001600160a01b039091168152602001610171565b6001546001600160a01b03166101f1565b6101bd61022836600461102b565b6107eb565b6101bd60065481565b61019f61080b565b6101bd60045481565b61019f6109c4565b61019f61025d36600461102b565b6109df565b61019f610270366004611044565b610a60565b61027d610fab565b33600090815260026020818152604092839020835160e081018552815480825260018301549382019390935292810154938301939093526003830154606083015260048301546080830152600583015460a083015260069092015460c0820152906103035760405162461bcd60e51b81526004016102fa9061106d565b60405180910390fd5b604080516060810182526000808252602082018190529181018390529061032983610ad9565b905042826040015160600151111561034d5782516103479082610b10565b60208301525b600061035c8460c001516107eb565b11156103805760006103718460000151610b59565b604084015160a001525061038e565b6040820151600060a0909101525b60408201516080015290518152919050565b60075460ff166103e45760405162461bcd60e51b815260206004820152600f60248201526e139bdd08125b9a5d1a585b1a5e9959608a1b60448201526064016102fa565b33600090815260026020526040902080546104115760405162461bcd60e51b81526004016102fa9061106d565b600061042082600601546107eb565b82549091501561049f578061046f5760405162461bcd60e51b8152602060048201526015602482015274436c61696d61626c65206f6e63652061207765656b60581b60448201526064016102fa565b60006005830155426006830155600354825461049f916001600160a01b031690339061049a90610b59565b610b7b565b5050565b6104ab610be3565b600082116104f25760405162461bcd60e51b815260206004820152601460248201527343616e6e6f74207374616b65206e6f7468696e6760601b60448201526064016102fa565b33600090815260026020526040902054156105425760405162461bcd60e51b815260206004820152601060248201526f2ab9b2b91034b990309029ba30b5b2b960811b60448201526064016102fa565b6000818152600860205260409020546105915760405162461bcd60e51b8152602060048201526011602482015270141858dad859d9481b9bdd08119bdd5b99607a1b60448201526064016102fa565b6003546040805163771a3a1d60e01b8152905142926000926127109287926001600160a01b03169163771a3a1d916004808301926020929190829003018189875af11580156105e4573d6000803e3d6000fd5b505050506040513d601f19601f820116820180604052508101906106089190611098565b6106139060646110c7565b61061d91906110de565b61062791906110fd565b90506040518060e00160405280828152602001838152602001600860008681526020019081526020016000205481526020018385610665919061111f565b81526020016000815260200160008152602001600081525060026000336001600160a01b03166001600160a01b03168152602001908152602001600020600082015181600001556020820151816001015560408201518160020155606082015181600301556080820151816004015560a0820151816005015560c0820151816006015590505061070c600360009054906101000a90046001600160a01b0316333087610c3d565b337fb4caaf29adda3eefee3ad552a8e85058589bf834c7466cae4ee58787f70589ed828461073a818861111f565b6040805193845260208401929092529082015260600160405180910390a2505061049f6001600055565b61076c610c7b565b61012c8111156107af5760405162461bcd60e51b815260206004820152600e60248201526d50656e616c7479206d617820332560901b60448201526064016102fa565b60048190556040518181527fcfa4f4cf1cd64d13a167a8e75605e0c0c9d6700e903d17c5dc11f593254a04a9906020015b60405180910390a150565b600062093a806107fb83426110c7565b61080591906110fd565b92915050565b610813610be3565b33600090815260026020818152604092839020835160e081018552815480825260018301549382019390935292810154938301939093526003830154606083015260048301546080830152600583015460a083015260069092015460c0820152906108905760405162461bcd60e51b81526004016102fa9061106d565b600061089b82610ad9565b33600090815260026020819052604082208281556001810183905590810182905560038101829055600481018290556005810182905560060155606083015190915042101561094e576003548251610903916001600160a01b031690339061049a9085610b10565b815133907fd8cc75b8a0ba011aba2385703af6a0e5593ceae53e9951a7358f657ddf3f8dac906109339084610b10565b604080519182524260208301520160405180910390a26109b6565b600354825161096e916001600160a01b031690339061049a90859061111f565b815133907fd8cc75b8a0ba011aba2385703af6a0e5593ceae53e9951a7358f657ddf3f8dac9061099f90849061111f565b604080519182524260208301520160405180910390a25b50506109c26001600055565b565b6109cc610c7b565b426006556007805460ff19166001179055565b6109e7610c7b565b6107d0811115610a2b5760405162461bcd60e51b815260206004820152600f60248201526e41697264726f70206d61782032302560881b60448201526064016102fa565b60058190556040518181527fcc672f1026b958c0cfbfdd89ebe8ddcbc127f16ec24da6c2c7a4de26a8b1857e906020016107e0565b610a68610c7b565b6001600160a01b038116610acd5760405162461bcd60e51b815260206004820152602660248201527f4f776e61626c653a206e6577206f776e657220697320746865207a65726f206160448201526564647265737360d01b60648201526084016102fa565b610ad681610cd5565b50565b60006b204fce5e3e25026110000000610af58360200151610d27565b60408401518451610b0691906110de565b6107fb91906110de565b600061271060045483610b2391906110de565b610b2d91906110fd565b61271060045485610b3e91906110de565b610b4891906110fd565b610b52919061111f565b9392505050565b60006301dfe20061271060055484610b7191906110de565b6107fb91906110fd565b6040516001600160a01b038316602482015260448101829052610bde90849063a9059cbb60e01b906064015b60408051601f198184030181529190526020810180516001600160e01b03166001600160e01b031990931692909217909152610d4c565b505050565b60026000541415610c365760405162461bcd60e51b815260206004820152601f60248201527f5265656e7472616e637947756172643a207265656e7472616e742063616c6c0060448201526064016102fa565b6002600055565b6040516001600160a01b0380851660248301528316604482015260648101829052610c759085906323b872dd60e01b90608401610ba7565b50505050565b6001546001600160a01b031633146109c25760405162461bcd60e51b815260206004820181905260248201527f4f776e61626c653a2063616c6c6572206973206e6f7420746865206f776e657260448201526064016102fa565b600180546001600160a01b038381166001600160a01b0319831681179093556040519116919082907f8be0079c531659141344cd1fd0a4f28419497f9722a3daafe3b4186f6b6457e090600090a35050565b60006301e13380610d3883426110c7565b6107fb9069d3c21bcecceda10000006110de565b6000610da1826040518060400160405280602081526020017f5361666545524332303a206c6f772d6c6576656c2063616c6c206661696c6564815250856001600160a01b0316610e1e9092919063ffffffff16565b805190915015610bde5780806020019051810190610dbf9190611137565b610bde5760405162461bcd60e51b815260206004820152602a60248201527f5361666545524332303a204552433230206f7065726174696f6e20646964206e6044820152691bdd081cdd58d8d9595960b21b60648201526084016102fa565b6060610e2d8484600085610e35565b949350505050565b606082471015610e965760405162461bcd60e51b815260206004820152602660248201527f416464726573733a20696e73756666696369656e742062616c616e636520666f6044820152651c8818d85b1b60d21b60648201526084016102fa565b600080866001600160a01b03168587604051610eb29190611185565b60006040518083038185875af1925050503d8060008114610eef576040519150601f19603f3d011682016040523d82523d6000602084013e610ef4565b606091505b5091509150610f0587838387610f10565b979650505050505050565b60608315610f7c578251610f75576001600160a01b0385163b610f755760405162461bcd60e51b815260206004820152601d60248201527f416464726573733a2063616c6c20746f206e6f6e2d636f6e747261637400000060448201526064016102fa565b5081610e2d565b610e2d8383815115610f915781518083602001fd5b8060405162461bcd60e51b81526004016102fa91906111a1565b604051806060016040528060008152602001600081526020016110046040518060e00160405280600081526020016000815260200160008152602001600081526020016000815260200160008152602001600081525090565b905290565b6000806040838503121561101c57600080fd5b50508035926020909101359150565b60006020828403121561103d57600080fd5b5035919050565b60006020828403121561105657600080fd5b81356001600160a01b0381168114610b5257600080fd5b60208082526011908201527014dd185ada5b99c81b9bdd08199bdd5b99607a1b604082015260600190565b6000602082840312156110aa57600080fd5b5051919050565b634e487b7160e01b600052601160045260246000fd5b6000828210156110d9576110d96110b1565b500390565b60008160001904831182151516156110f8576110f86110b1565b500290565b60008261111a57634e487b7160e01b600052601260045260246000fd5b500490565b60008219821115611132576111326110b1565b500190565b60006020828403121561114957600080fd5b81518015158114610b5257600080fd5b60005b8381101561117457818101518382015260200161115c565b83811115610c755750506000910152565b60008251611197818460208701611159565b9190910192915050565b60208152600082518060208401526111c0816040850160208701611159565b601f01601f1916919091016040019291505056fea2646970667358221220ae3d2208fa72d7f232da55946a85975c92eed7a8bf5985d0dd910784857454cd64736f6c634300080b0033",
  "linkReferences": {},
  "deployedLinkReferences": {}
}