{
  "_format": "hh-sol-artifact-1",
  "contractName": "Staking",
  "sourceName": "contracts/Staking.sol",
  "abi": [
    {
      "inputs": [
        {
          "internalType": "address",
          "name": "token",
          "type": "address"
        }
      ],
      "stateMutability": "nonpayable",
      "type": "constructor"
    },
    {
      "anonymous": false,
      "inputs": [
        {
          "indexed": false,
          "internalType": "uint256",
          "name": "amount",
          "type": "uint256"
        }
      ],
      "name": "AirdropChanged",
      "type": "event"
    },
    {
      "anonymous": false,
      "inputs": [
        {
          "indexed": true,
          "internalType": "address",
          "name": "previousOwner",
          "type": "address"
        },
        {
          "indexed": true,
          "internalType": "address",
          "name": "newOwner",
          "type": "address"
        }
      ],
      "name": "OwnershipTransferred",
      "type": "event"
    },
    {
      "anonymous": false,
      "inputs": [
        {
          "indexed": false,
          "internalType": "uint256",
          "name": "amount",
          "type": "uint256"
        }
      ],
      "name": "PenaltyChanged",
      "type": "event"
    },
    {
      "anonymous": false,
      "inputs": [
        {
          "indexed": true,
          "internalType": "address",
          "name": "user",
          "type": "address"
        },
        {
          "indexed": false,
          "internalType": "uint256",
          "name": "amount",
          "type": "uint256"
        },
        {
          "indexed": false,
          "internalType": "uint256",
          "name": "timestamp",
          "type": "uint256"
        },
        {
          "indexed": false,
          "internalType": "uint256",
          "name": "releaseTime",
          "type": "uint256"
        }
      ],
      "name": "Staked",
      "type": "event"
    },
    {
      "inputs": [],
      "name": "airdropRate",
      "outputs": [
        {
          "internalType": "uint256",
          "name": "",
          "type": "uint256"
        }
      ],
      "stateMutability": "view",
      "type": "function"
    },
    {
      "inputs": [],
      "name": "airdropSince",
      "outputs": [
        {
          "internalType": "uint256",
          "name": "",
          "type": "uint256"
        }
      ],
      "stateMutability": "view",
      "type": "function"
    },
    {
      "inputs": [],
      "name": "airdropStatus",
      "outputs": [
        {
          "internalType": "bool",
          "name": "",
          "type": "bool"
        }
      ],
      "stateMutability": "view",
      "type": "function"
    },
    {
      "inputs": [],
      "name": "blockTimestamp",
      "outputs": [
        {
          "internalType": "uint256",
          "name": "",
          "type": "uint256"
        }
      ],
      "stateMutability": "view",
      "type": "function"
    },
    {
      "inputs": [
        {
          "internalType": "uint256",
          "name": "timestamp",
          "type": "uint256"
        }
      ],
      "name": "calculateWeek",
      "outputs": [
        {
          "internalType": "uint256",
          "name": "",
          "type": "uint256"
        }
      ],
      "stateMutability": "view",
      "type": "function"
    },
    {
      "inputs": [
        {
          "internalType": "uint256",
          "name": "amount",
          "type": "uint256"
        }
      ],
      "name": "changeAirdropPercentage",
      "outputs": [],
      "stateMutability": "nonpayable",
      "type": "function"
    },
    {
      "inputs": [
        {
          "internalType": "uint256",
          "name": "amount",
          "type": "uint256"
        }
      ],
      "name": "changePenaltyFee",
      "outputs": [],
      "stateMutability": "nonpayable",
      "type": "function"
    },
    {
      "inputs": [],
      "name": "claimAirdrop",
      "outputs": [],
      "stateMutability": "nonpayable",
      "type": "function"
    },
    {
      "inputs": [],
      "name": "hasStake",
      "outputs": [
        {
          "components": [
            {
              "internalType": "uint256",
              "name": "total_amount",
              "type": "uint256"
            },
            {
              "internalType": "uint256",
              "name": "penalty",
              "type": "uint256"
            },
            {
              "components": [
                {
                  "internalType": "uint256",
                  "name": "amount",
                  "type": "uint256"
                },
                {
                  "internalType": "uint256",
                  "name": "since",
                  "type": "uint256"
                },
                {
                  "internalType": "uint256",
                  "name": "rewardAPY",
                  "type": "uint256"
                },
                {
                  "internalType": "uint256",
                  "name": "releaseTime",
                  "type": "uint256"
                },
                {
                  "internalType": "uint256",
                  "name": "claimable",
                  "type": "uint256"
                },
                {
                  "internalType": "uint256",
                  "name": "claimableAirdrop",
                  "type": "uint256"
                },
                {
                  "internalType": "uint256",
                  "name": "latestClaimDrop",
                  "type": "uint256"
                }
              ],
              "internalType": "struct Staking.Stake",
              "name": "stake",
              "type": "tuple"
            }
          ],
          "internalType": "struct Staking.StakingSummary",
          "name": "",
          "type": "tuple"
        }
      ],
      "stateMutability": "view",
      "type": "function"
    },
    {
      "inputs": [],
      "name": "owner",
      "outputs": [
        {
          "internalType": "address",
          "name": "",
          "type": "address"
        }
      ],
      "stateMutability": "view",
      "type": "function"
    },
    {
      "inputs": [],
      "name": "renounceOwnership",
      "outputs": [],
      "stateMutability": "nonpayable",
      "type": "function"
    },
    {
      "inputs": [
        {
          "internalType": "uint256",
          "name": "amount",
          "type": "uint256"
        },
        {
          "internalType": "uint256",
          "name": "stakePeriod",
          "type": "uint256"
        }
      ],
      "name": "stake",
      "outputs": [],
      "stateMutability": "nonpayable",
      "type": "function"
    },
    {
      "inputs": [],
      "name": "stakingPenaltyRate",
      "outputs": [
        {
          "internalType": "uint256",
          "name": "",
          "type": "uint256"
        }
      ],
      "stateMutability": "view",
      "type": "function"
    },
    {
      "inputs": [],
      "name": "startAirdrop",
      "outputs": [],
      "stateMutability": "nonpayable",
      "type": "function"
    },
    {
      "inputs": [],
      "name": "token_address",
      "outputs": [
        {
          "internalType": "address",
          "name": "",
          "type": "address"
        }
      ],
      "stateMutability": "view",
      "type": "function"
    },
    {
      "inputs": [
        {
          "internalType": "address",
          "name": "newOwner",
          "type": "address"
        }
      ],
      "name": "transferOwnership",
      "outputs": [],
      "stateMutability": "nonpayable",
      "type": "function"
    },
    {
      "inputs": [],
      "name": "withdrawStake",
      "outputs": [],
      "stateMutability": "nonpayable",
      "type": "function"
    }
  ],
  "bytecode": "0x60806040523480156200001157600080fd5b50604051620022eb380380620022eb833981810160405281019062000037919062000244565b60016000819055506200005f620000536200010c60201b60201c565b6200011460201b60201c565b600f600381905550605060048190555080600660016101000a81548173ffffffffffffffffffffffffffffffffffffffff021916908373ffffffffffffffffffffffffffffffffffffffff1602179055506006600260006276a70081526020019081526020016000208190555060076002600062ed4e008152602001908152602001600020819055506008600260006301e133808152602001908152602001600020819055505062000276565b600033905090565b6000600160009054906101000a900473ffffffffffffffffffffffffffffffffffffffff16905081600160006101000a81548173ffffffffffffffffffffffffffffffffffffffff021916908373ffffffffffffffffffffffffffffffffffffffff1602179055508173ffffffffffffffffffffffffffffffffffffffff168173ffffffffffffffffffffffffffffffffffffffff167f8be0079c531659141344cd1fd0a4f28419497f9722a3daafe3b4186f6b6457e060405160405180910390a35050565b600080fd5b600073ffffffffffffffffffffffffffffffffffffffff82169050919050565b60006200020c82620001df565b9050919050565b6200021e81620001ff565b81146200022a57600080fd5b50565b6000815190506200023e8162000213565b92915050565b6000602082840312156200025d576200025c620001da565b5b60006200026d848285016200022d565b91505092915050565b61206580620002866000396000f3fe608060405234801561001057600080fd5b506004361061010b5760003560e01c80638da5cb5b116100a2578063bed9d86111610071578063bed9d8611461025e578063cb79c2e114610268578063d2a569c314610286578063d5dbdf1b14610290578063f2fde38b146102ac5761010b565b80638da5cb5b146101d4578063adb61832146101f2578063b5d9df8314610210578063b87da76d146102405761010b565b80637b0472f0116100de5780637b0472f0146101605780638891cf0d1461017c5780638c63f97f1461019a5780638c8e8fee146101b65761010b565b806310486b6a146101105780632cf1a5fb1461012e5780635b88349d1461014c578063715018a614610156575b600080fd5b6101186102c8565b60405161012591906114f6565b60405180910390f35b6101366104a7565b604051610143919061152d565b60405180910390f35b6101546104ba565b005b61015e610600565b005b61017a60048036038101906101759190611579565b610614565b005b6101846108b7565b60405161019191906115c8565b60405180910390f35b6101b460048036038101906101af91906115e3565b6108bd565b005b6101be61094a565b6040516101cb9190611651565b60405180910390f35b6101dc610970565b6040516101e99190611651565b60405180910390f35b6101fa61099a565b60405161020791906115c8565b60405180910390f35b61022a600480360381019061022591906115e3565b6109a2565b60405161023791906115c8565b60405180910390f35b6102486109c5565b60405161025591906115c8565b60405180910390f35b6102666109cb565b005b610270610c25565b60405161027d91906115c8565b60405180910390f35b61028e610c2b565b005b6102aa60048036038101906102a591906115e3565b610c57565b005b6102c660048036038101906102c19190611698565b610ce4565b005b6102d06113a8565b6000600760003373ffffffffffffffffffffffffffffffffffffffff1673ffffffffffffffffffffffffffffffffffffffff1681526020019081526020016000206040518060e001604052908160008201548152602001600182015481526020016002820154815260200160038201548152602001600482015481526020016005820154815260200160068201548152505090506000816000015114156103ac576040517f08c379a00000000000000000000000000000000000000000000000000000000081526004016103a390611722565b60405180910390fd5b60006040518060600160405280600081526020016000815260200183815250905060006103d883610d68565b9050428260400151606001511115610438576103e8600354826103fb9190611771565b61040591906117fa565b6103e8600354856000015161041a9190611771565b61042491906117fa565b61042e919061182b565b8260200181815250505b60006104478460c001516109a2565b111561047257600061045c8460000151610db2565b905080836040015160a001818152505050610482565b6000826040015160a00181815250505b8082604001516080018181525050826000015182600001818152505081935050505090565b600660009054906101000a900460ff1681565b6104c2610de5565b6000600760003373ffffffffffffffffffffffffffffffffffffffff1673ffffffffffffffffffffffffffffffffffffffff168152602001908152602001600020905060008160000154141561054d576040517f08c379a000000000000000000000000000000000000000000000000000000000815260040161054490611722565b60405180910390fd5b600061055c82600601546109a2565b90506000826000015411156105fc5760008114156105af576040517f08c379a00000000000000000000000000000000000000000000000000000000081526004016105a6906118cd565b60405180910390fd5b600082600501819055504282600601819055506105fb600660019054906101000a900473ffffffffffffffffffffffffffffffffffffffff16336105f68560000154610db2565b610e3d565b5b5050565b610608610ec3565b6106126000610f41565b565b6002600054141561065a576040517f08c379a000000000000000000000000000000000000000000000000000000000815260040161065190611939565b60405180910390fd5b60026000819055506000600760003373ffffffffffffffffffffffffffffffffffffffff1673ffffffffffffffffffffffffffffffffffffffff16815260200190815260200160002060000154146106e7576040517f08c379a00000000000000000000000000000000000000000000000000000000081526004016106de906119a5565b60405180910390fd5b60006002600083815260200190815260200160002054141561073e576040517f08c379a000000000000000000000000000000000000000000000000000000000815260040161073590611a11565b60405180910390fd5b60004290506040518060e0016040528084815260200182815260200160026000858152602001908152602001600020548152602001828461077f919061182b565b815260200160008152602001600081526020016000815250600760003373ffffffffffffffffffffffffffffffffffffffff1673ffffffffffffffffffffffffffffffffffffffff168152602001908152602001600020600082015181600001556020820151816001015560408201518160020155606082015181600301556080820151816004015560a0820151816005015560c0820151816006015590505061084d600660019054906101000a900473ffffffffffffffffffffffffffffffffffffffff16333086611007565b3373ffffffffffffffffffffffffffffffffffffffff167fb4caaf29adda3eefee3ad552a8e85058589bf834c7466cae4ee58787f70589ed84838486610893919061182b565b6040516108a293929190611a31565b60405180910390a25060016000819055505050565b60045481565b6108c5610ec3565b601e811115610909576040517f08c379a000000000000000000000000000000000000000000000000000000000815260040161090090611ab4565b60405180910390fd5b806003819055507fcfa4f4cf1cd64d13a167a8e75605e0c0c9d6700e903d17c5dc11f593254a04a98160405161093f91906115c8565b60405180910390a150565b600660019054906101000a900473ffffffffffffffffffffffffffffffffffffffff1681565b6000600160009054906101000a900473ffffffffffffffffffffffffffffffffffffffff16905090565b600042905090565b600062093a8082426109b49190611ad4565b6109be91906117fa565b9050919050565b60055481565b60026000541415610a11576040517f08c379a0000000000000000000000000000000000000000000000000000000008152600401610a0890611939565b60405180910390fd5b60026000819055506000600760003373ffffffffffffffffffffffffffffffffffffffff1673ffffffffffffffffffffffffffffffffffffffff1681526020019081526020016000206040518060e00160405290816000820154815260200160018201548152602001600282015481526020016003820154815260200160048201548152602001600582015481526020016006820154815250509050600081600001511415610af5576040517f08c379a0000000000000000000000000000000000000000000000000000000008152600401610aec90611722565b60405180910390fd5b6000610b0082610d68565b9050600760003373ffffffffffffffffffffffffffffffffffffffff1673ffffffffffffffffffffffffffffffffffffffff16815260200190815260200160002060008082016000905560018201600090556002820160009055600382016000905560048201600090556005820160009055600682016000905550504282606001511115610bdc57600080610b99846000015184611090565b91509150610bd5600660019054906101000a900473ffffffffffffffffffffffffffffffffffffffff16338385610bd0919061182b565b610e3d565b5050610c19565b610c18600660019054906101000a900473ffffffffffffffffffffffffffffffffffffffff1633838560000151610c13919061182b565b610e3d565b5b50506001600081905550565b60035481565b610c33610ec3565b426005819055506001600660006101000a81548160ff021916908315150217905550565b610c5f610ec3565b60c8811115610ca3576040517f08c379a0000000000000000000000000000000000000000000000000000000008152600401610c9a90611b54565b60405180910390fd5b806004819055507fcc672f1026b958c0cfbfdd89ebe8ddcbc127f16ec24da6c2c7a4de26a8b1857e81604051610cd991906115c8565b60405180910390a150565b610cec610ec3565b600073ffffffffffffffffffffffffffffffffffffffff168173ffffffffffffffffffffffffffffffffffffffff161415610d5c576040517f08c379a0000000000000000000000000000000000000000000000000000000008152600401610d5390611be6565b60405180910390fd5b610d6581610f41565b50565b60006a52b7d2dcc80cd2e4000000610d8383602001516110ea565b83604001518460000151610d979190611771565b610da19190611771565b610dab91906117fa565b9050919050565b60006301dfe2006103e860045484610dca9190611771565b610dd491906117fa565b610dde91906117fa565b9050919050565b60011515600660009054906101000a900460ff16151514610e3b576040517f08c379a0000000000000000000000000000000000000000000000000000000008152600401610e3290611c52565b60405180910390fd5b565b610ebe8363a9059cbb60e01b8484604051602401610e5c929190611c72565b604051602081830303815290604052907bffffffffffffffffffffffffffffffffffffffffffffffffffffffff19166020820180517bffffffffffffffffffffffffffffffffffffffffffffffffffffffff8381831617835250505050611123565b505050565b610ecb6111ea565b73ffffffffffffffffffffffffffffffffffffffff16610ee9610970565b73ffffffffffffffffffffffffffffffffffffffff1614610f3f576040517f08c379a0000000000000000000000000000000000000000000000000000000008152600401610f3690611ce7565b60405180910390fd5b565b6000600160009054906101000a900473ffffffffffffffffffffffffffffffffffffffff16905081600160006101000a81548173ffffffffffffffffffffffffffffffffffffffff021916908373ffffffffffffffffffffffffffffffffffffffff1602179055508173ffffffffffffffffffffffffffffffffffffffff168173ffffffffffffffffffffffffffffffffffffffff167f8be0079c531659141344cd1fd0a4f28419497f9722a3daafe3b4186f6b6457e060405160405180910390a35050565b61108a846323b872dd60e01b85858560405160240161102893929190611d07565b604051602081830303815290604052907bffffffffffffffffffffffffffffffffffffffffffffffffffffffff19166020820180517bffffffffffffffffffffffffffffffffffffffffffffffffffffffff8381831617835250505050611123565b50505050565b6000806103e8600354856110a49190611771565b6110ae91906117fa565b846110b99190611ad4565b6103e8600354856110ca9190611771565b6110d491906117fa565b846110df9190611ad4565b915091509250929050565b60006301e1338069d3c21bcecceda100000083426111089190611ad4565b6111129190611771565b61111c91906117fa565b9050919050565b6000611185826040518060400160405280602081526020017f5361666545524332303a206c6f772d6c6576656c2063616c6c206661696c65648152508573ffffffffffffffffffffffffffffffffffffffff166111f29092919063ffffffff16565b90506000815111156111e557808060200190518101906111a59190611d6a565b6111e4576040517f08c379a00000000000000000000000000000000000000000000000000000000081526004016111db90611e09565b60405180910390fd5b5b505050565b600033905090565b6060611201848460008561120a565b90509392505050565b60608247101561124f576040517f08c379a000000000000000000000000000000000000000000000000000000000815260040161124690611e9b565b60405180910390fd5b6112588561131e565b611297576040517f08c379a000000000000000000000000000000000000000000000000000000000815260040161128e90611f07565b60405180910390fd5b6000808673ffffffffffffffffffffffffffffffffffffffff1685876040516112c09190611fa1565b60006040518083038185875af1925050503d80600081146112fd576040519150601f19603f3d011682016040523d82523d6000602084013e611302565b606091505b5091509150611312828286611341565b92505050949350505050565b6000808273ffffffffffffffffffffffffffffffffffffffff163b119050919050565b60608315611351578290506113a1565b6000835111156113645782518084602001fd5b816040517f08c379a0000000000000000000000000000000000000000000000000000000008152600401611398919061200d565b60405180910390fd5b9392505050565b604051806060016040528060008152602001600081526020016113c96113cf565b81525090565b6040518060e00160405280600081526020016000815260200160008152602001600081526020016000815260200160008152602001600081525090565b6000819050919050565b61141f8161140c565b82525050565b60e08201600082015161143b6000850182611416565b50602082015161144e6020850182611416565b5060408201516114616040850182611416565b5060608201516114746060850182611416565b5060808201516114876080850182611416565b5060a082015161149a60a0850182611416565b5060c08201516114ad60c0850182611416565b50505050565b610120820160008201516114ca6000850182611416565b5060208201516114dd6020850182611416565b5060408201516114f06040850182611425565b50505050565b60006101208201905061150c60008301846114b3565b92915050565b60008115159050919050565b61152781611512565b82525050565b6000602082019050611542600083018461151e565b92915050565b600080fd5b6115568161140c565b811461156157600080fd5b50565b6000813590506115738161154d565b92915050565b600080604083850312156115905761158f611548565b5b600061159e85828601611564565b92505060206115af85828601611564565b9150509250929050565b6115c28161140c565b82525050565b60006020820190506115dd60008301846115b9565b92915050565b6000602082840312156115f9576115f8611548565b5b600061160784828501611564565b91505092915050565b600073ffffffffffffffffffffffffffffffffffffffff82169050919050565b600061163b82611610565b9050919050565b61164b81611630565b82525050565b60006020820190506116666000830184611642565b92915050565b61167581611630565b811461168057600080fd5b50565b6000813590506116928161166c565b92915050565b6000602082840312156116ae576116ad611548565b5b60006116bc84828501611683565b91505092915050565b600082825260208201905092915050565b7f5374616b696e67206e6f7420666f756e64000000000000000000000000000000600082015250565b600061170c6011836116c5565b9150611717826116d6565b602082019050919050565b6000602082019050818103600083015261173b816116ff565b9050919050565b7f4e487b7100000000000000000000000000000000000000000000000000000000600052601160045260246000fd5b600061177c8261140c565b91506117878361140c565b9250817fffffffffffffffffffffffffffffffffffffffffffffffffffffffffffffffff04831182151516156117c0576117bf611742565b5b828202905092915050565b7f4e487b7100000000000000000000000000000000000000000000000000000000600052601260045260246000fd5b60006118058261140c565b91506118108361140c565b9250826118205761181f6117cb565b5b828204905092915050565b60006118368261140c565b91506118418361140c565b9250827fffffffffffffffffffffffffffffffffffffffffffffffffffffffffffffffff0382111561187657611875611742565b5b828201905092915050565b7f436c61696d61626c65206f6e63652061207765656b0000000000000000000000600082015250565b60006118b76015836116c5565b91506118c282611881565b602082019050919050565b600060208201905081810360008301526118e6816118aa565b9050919050565b7f5265656e7472616e637947756172643a207265656e7472616e742063616c6c00600082015250565b6000611923601f836116c5565b915061192e826118ed565b602082019050919050565b6000602082019050818103600083015261195281611916565b9050919050565b7f557365722069732061205374616b657200000000000000000000000000000000600082015250565b600061198f6010836116c5565b915061199a82611959565b602082019050919050565b600060208201905081810360008301526119be81611982565b9050919050565b7f5061636b616765206e6f7420466f756e64000000000000000000000000000000600082015250565b60006119fb6011836116c5565b9150611a06826119c5565b602082019050919050565b60006020820190508181036000830152611a2a816119ee565b9050919050565b6000606082019050611a4660008301866115b9565b611a5360208301856115b9565b611a6060408301846115b9565b949350505050565b7f50656e616c7479206d6178203330250000000000000000000000000000000000600082015250565b6000611a9e600f836116c5565b9150611aa982611a68565b602082019050919050565b60006020820190508181036000830152611acd81611a91565b9050919050565b6000611adf8261140c565b9150611aea8361140c565b925082821015611afd57611afc611742565b5b828203905092915050565b7f41697264726f70206d6178203230250000000000000000000000000000000000600082015250565b6000611b3e600f836116c5565b9150611b4982611b08565b602082019050919050565b60006020820190508181036000830152611b6d81611b31565b9050919050565b7f4f776e61626c653a206e6577206f776e657220697320746865207a65726f206160008201527f6464726573730000000000000000000000000000000000000000000000000000602082015250565b6000611bd06026836116c5565b9150611bdb82611b74565b604082019050919050565b60006020820190508181036000830152611bff81611bc3565b9050919050565b7f41697264726f70206e6f74207374617274656400000000000000000000000000600082015250565b6000611c3c6013836116c5565b9150611c4782611c06565b602082019050919050565b60006020820190508181036000830152611c6b81611c2f565b9050919050565b6000604082019050611c876000830185611642565b611c9460208301846115b9565b9392505050565b7f4f776e61626c653a2063616c6c6572206973206e6f7420746865206f776e6572600082015250565b6000611cd16020836116c5565b9150611cdc82611c9b565b602082019050919050565b60006020820190508181036000830152611d0081611cc4565b9050919050565b6000606082019050611d1c6000830186611642565b611d296020830185611642565b611d3660408301846115b9565b949350505050565b611d4781611512565b8114611d5257600080fd5b50565b600081519050611d6481611d3e565b92915050565b600060208284031215611d8057611d7f611548565b5b6000611d8e84828501611d55565b91505092915050565b7f5361666545524332303a204552433230206f7065726174696f6e20646964206e60008201527f6f74207375636365656400000000000000000000000000000000000000000000602082015250565b6000611df3602a836116c5565b9150611dfe82611d97565b604082019050919050565b60006020820190508181036000830152611e2281611de6565b9050919050565b7f416464726573733a20696e73756666696369656e742062616c616e636520666f60008201527f722063616c6c0000000000000000000000000000000000000000000000000000602082015250565b6000611e856026836116c5565b9150611e9082611e29565b604082019050919050565b60006020820190508181036000830152611eb481611e78565b9050919050565b7f416464726573733a2063616c6c20746f206e6f6e2d636f6e7472616374000000600082015250565b6000611ef1601d836116c5565b9150611efc82611ebb565b602082019050919050565b60006020820190508181036000830152611f2081611ee4565b9050919050565b600081519050919050565b600081905092915050565b60005b83811015611f5b578082015181840152602081019050611f40565b83811115611f6a576000848401525b50505050565b6000611f7b82611f27565b611f858185611f32565b9350611f95818560208601611f3d565b80840191505092915050565b6000611fad8284611f70565b915081905092915050565b600081519050919050565b6000601f19601f8301169050919050565b6000611fdf82611fb8565b611fe981856116c5565b9350611ff9818560208601611f3d565b61200281611fc3565b840191505092915050565b600060208201905081810360008301526120278184611fd4565b90509291505056fea2646970667358221220dd46c87800c77b20f54d80347db4b5f0d8d5d691bbe2dd5c6d353434d3f4dbc064736f6c634300080b0033",
  "linkReferences": {},
  "deployedLinkReferences": {}
}