{
  "_format": "hh-sol-artifact-1",
  "contractName": "EscrowFactory",
  "sourceName": "contracts/Factory/EscrowFactory.sol",
  "abi": [
    {
      "inputs": [],
      "stateMutability": "nonpayable",
      "type": "constructor"
    },
    {
      "anonymous": false,
      "inputs": [
        {
          "indexed": true,
          "internalType": "address",
          "name": "previousOwner",
          "type": "address"
        },
        {
          "indexed": true,
          "internalType": "address",
          "name": "newOwner",
          "type": "address"
        }
      ],
      "name": "OwnershipTransferred",
      "type": "event"
    },
    {
      "inputs": [
        {
          "internalType": "address",
          "name": "tokenAddress",
          "type": "address"
        }
      ],
      "name": "createProject",
      "outputs": [
        {
          "internalType": "address",
          "name": "",
          "type": "address"
        }
      ],
      "stateMutability": "nonpayable",
      "type": "function"
    },
    {
      "inputs": [],
      "name": "getCurrentCounter",
      "outputs": [
        {
          "internalType": "uint256",
          "name": "",
          "type": "uint256"
        }
      ],
      "stateMutability": "view",
      "type": "function"
    },
    {
      "inputs": [
        {
          "internalType": "uint256",
          "name": "counterIdx",
          "type": "uint256"
        }
      ],
      "name": "getProject",
      "outputs": [
        {
          "internalType": "address",
          "name": "",
          "type": "address"
        }
      ],
      "stateMutability": "view",
      "type": "function"
    },
    {
      "inputs": [],
      "name": "owner",
      "outputs": [
        {
          "internalType": "address",
          "name": "",
          "type": "address"
        }
      ],
      "stateMutability": "view",
      "type": "function"
    },
    {
      "inputs": [
        {
          "internalType": "uint256",
          "name": "",
          "type": "uint256"
        }
      ],
      "name": "projects",
      "outputs": [
        {
          "internalType": "address",
          "name": "",
          "type": "address"
        }
      ],
      "stateMutability": "view",
      "type": "function"
    },
    {
      "inputs": [],
      "name": "renounceOwnership",
      "outputs": [],
      "stateMutability": "nonpayable",
      "type": "function"
    },
    {
      "inputs": [
        {
          "internalType": "address",
          "name": "newOwner",
          "type": "address"
        }
      ],
      "name": "transferOwnership",
      "outputs": [],
      "stateMutability": "nonpayable",
      "type": "function"
    }
  ],
  "bytecode": "0x60a060405234801561001057600080fd5b5061002d61002261008e60201b60201c565b61009660201b60201c565b6040516100399061015a565b604051809103906000f080158015610055573d6000803e3d6000fd5b5073ffffffffffffffffffffffffffffffffffffffff1660808173ffffffffffffffffffffffffffffffffffffffff1681525050610167565b600033905090565b60008060009054906101000a900473ffffffffffffffffffffffffffffffffffffffff169050816000806101000a81548173ffffffffffffffffffffffffffffffffffffffff021916908373ffffffffffffffffffffffffffffffffffffffff1602179055508173ffffffffffffffffffffffffffffffffffffffff168173ffffffffffffffffffffffffffffffffffffffff167f8be0079c531659141344cd1fd0a4f28419497f9722a3daafe3b4186f6b6457e060405160405180910390a35050565b611bfd80610a6983390190565b6080516108e761018260003960006101b801526108e76000f3fe608060405234801561001057600080fd5b506004361061007d5760003560e01c806373448c461161005b57806373448c46146100ec5780638da5cb5b1461010a578063f0f3f2c814610128578063f2fde38b146101585761007d565b8063107046bd14610082578063224d5dd2146100b2578063715018a6146100e2575b600080fd5b61009c6004803603810190610097919061062a565b610174565b6040516100a99190610698565b60405180910390f35b6100cc60048036038101906100c791906106df565b6101a7565b6040516100d99190610698565b60405180910390f35b6100ea6102b7565b005b6100f46102cb565b604051610101919061071b565b60405180910390f35b6101126102dc565b60405161011f9190610698565b60405180910390f35b610142600480360381019061013d919061062a565b610305565b60405161014f9190610698565b60405180910390f35b610172600480360381019061016d91906106df565b610342565b005b60026020528060005260406000206000915054906101000a900473ffffffffffffffffffffffffffffffffffffffff1681565b60006101b16103c6565b60006101dc7f0000000000000000000000000000000000000000000000000000000000000000610444565b90508073ffffffffffffffffffffffffffffffffffffffff166319ab453c846040518263ffffffff1660e01b81526004016102179190610698565b600060405180830381600087803b15801561023157600080fd5b505af1158015610245573d6000803e3d6000fd5b50505050806002600061025860016104ff565b815260200190815260200160002060006101000a81548173ffffffffffffffffffffffffffffffffffffffff021916908373ffffffffffffffffffffffffffffffffffffffff1602179055506102ae600161050d565b80915050919050565b6102bf6103c6565b6102c96000610523565b565b60006102d760016104ff565b905090565b60008060009054906101000a900473ffffffffffffffffffffffffffffffffffffffff16905090565b60006002600083815260200190815260200160002060009054906101000a900473ffffffffffffffffffffffffffffffffffffffff169050919050565b61034a6103c6565b600073ffffffffffffffffffffffffffffffffffffffff168173ffffffffffffffffffffffffffffffffffffffff1614156103ba576040517f08c379a00000000000000000000000000000000000000000000000000000000081526004016103b1906107b9565b60405180910390fd5b6103c381610523565b50565b6103ce6105e7565b73ffffffffffffffffffffffffffffffffffffffff166103ec6102dc565b73ffffffffffffffffffffffffffffffffffffffff1614610442576040517f08c379a000000000000000000000000000000000000000000000000000000000815260040161043990610825565b60405180910390fd5b565b6000763d602d80600a3d3981f3363d3d373d3d3d363d730000008260601b60e81c176000526e5af43d82803e903d91602b57fd5bf38260781b17602052603760096000f09050600073ffffffffffffffffffffffffffffffffffffffff168173ffffffffffffffffffffffffffffffffffffffff1614156104fa576040517f08c379a00000000000000000000000000000000000000000000000000000000081526004016104f190610891565b60405180910390fd5b919050565b600081600001549050919050565b6001816000016000828254019250508190555050565b60008060009054906101000a900473ffffffffffffffffffffffffffffffffffffffff169050816000806101000a81548173ffffffffffffffffffffffffffffffffffffffff021916908373ffffffffffffffffffffffffffffffffffffffff1602179055508173ffffffffffffffffffffffffffffffffffffffff168173ffffffffffffffffffffffffffffffffffffffff167f8be0079c531659141344cd1fd0a4f28419497f9722a3daafe3b4186f6b6457e060405160405180910390a35050565b600033905090565b600080fd5b6000819050919050565b610607816105f4565b811461061257600080fd5b50565b600081359050610624816105fe565b92915050565b6000602082840312156106405761063f6105ef565b5b600061064e84828501610615565b91505092915050565b600073ffffffffffffffffffffffffffffffffffffffff82169050919050565b600061068282610657565b9050919050565b61069281610677565b82525050565b60006020820190506106ad6000830184610689565b92915050565b6106bc81610677565b81146106c757600080fd5b50565b6000813590506106d9816106b3565b92915050565b6000602082840312156106f5576106f46105ef565b5b6000610703848285016106ca565b91505092915050565b610715816105f4565b82525050565b6000602082019050610730600083018461070c565b92915050565b600082825260208201905092915050565b7f4f776e61626c653a206e6577206f776e657220697320746865207a65726f206160008201527f6464726573730000000000000000000000000000000000000000000000000000602082015250565b60006107a3602683610736565b91506107ae82610747565b604082019050919050565b600060208201905081810360008301526107d281610796565b9050919050565b7f4f776e61626c653a2063616c6c6572206973206e6f7420746865206f776e6572600082015250565b600061080f602083610736565b915061081a826107d9565b602082019050919050565b6000602082019050818103600083015261083e81610802565b9050919050565b7f455243313136373a20637265617465206661696c656400000000000000000000600082015250565b600061087b601683610736565b915061088682610845565b602082019050919050565b600060208201905081810360008301526108aa8161086e565b905091905056fea2646970667358221220acbc6cc76cf52d31b55f1dedc6e5a89c030b822cc67ec6c20f0f0e0213cd7bf864736f6c634300080b0033608060405234801561001057600080fd5b5061002d61002261003260201b60201c565b61003a60201b60201c565b6100fe565b600033905090565b60008060009054906101000a900473ffffffffffffffffffffffffffffffffffffffff169050816000806101000a81548173ffffffffffffffffffffffffffffffffffffffff021916908373ffffffffffffffffffffffffffffffffffffffff1602179055508173ffffffffffffffffffffffffffffffffffffffff168173ffffffffffffffffffffffffffffffffffffffff167f8be0079c531659141344cd1fd0a4f28419497f9722a3daafe3b4186f6b6457e060405160405180910390a35050565b611af08061010d6000396000f3fe60806040526004361061011f5760003560e01c8063906a26e0116100a0578063d888f31d11610064578063d888f31d1461035c578063e21fe75f14610387578063e6d825da146103b2578063f2fde38b146103dd578063fb86a404146104065761011f565b8063906a26e014610294578063a1d19361146102bf578063a6183f15146102ea578063b6b55f2514610315578063cc2ebf83146103315761011f565b80633ccfd60b116100e75780633ccfd60b146101f9578063715018a6146102105780637c0a9254146102275780638a4068dd146102525780638da5cb5b146102695761011f565b806319ab453c14610124578063250621461461014d57806329dcb0cf146101785780632b26c96e146101a357806335fb337c146101ce575b600080fd5b34801561013057600080fd5b5061014b60048036038101906101469190611377565b610431565b005b34801561015957600080fd5b50610162610506565b60405161016f91906113bf565b60405180910390f35b34801561018457600080fd5b5061018d610519565b60405161019a91906113f3565b60405180910390f35b3480156101af57600080fd5b506101b861051f565b6040516101c591906113f3565b60405180910390f35b3480156101da57600080fd5b506101e3610525565b6040516101f091906113f3565b60405180910390f35b34801561020557600080fd5b5061020e61052b565b005b34801561021c57600080fd5b506102256108ce565b005b34801561023357600080fd5b5061023c6108e2565b60405161024991906113f3565b60405180910390f35b34801561025e57600080fd5b506102676108e8565b005b34801561027557600080fd5b5061027e6108ea565b60405161028b919061141d565b60405180910390f35b3480156102a057600080fd5b506102a9610913565b6040516102b691906113f3565b60405180910390f35b3480156102cb57600080fd5b506102d4610919565b6040516102e191906113bf565b60405180910390f35b3480156102f657600080fd5b506102ff610936565b60405161030c91906113bf565b60405180910390f35b61032f600480360381019061032a9190611464565b610949565b005b34801561033d57600080fd5b50610346610d6a565b60405161035391906113bf565b60405180910390f35b34801561036857600080fd5b50610371610d7d565b60405161037e91906113f3565b60405180910390f35b34801561039357600080fd5b5061039c610d83565b6040516103a991906113bf565b60405180910390f35b3480156103be57600080fd5b506103c7610d96565b6040516103d491906113f3565b60405180910390f35b3480156103e957600080fd5b5061040460048036038101906103ff9190611377565b610d9c565b005b34801561041257600080fd5b5061041b610e20565b60405161042891906113f3565b60405180910390f35b600073ffffffffffffffffffffffffffffffffffffffff16600e60009054906101000a900473ffffffffffffffffffffffffffffffffffffffff1673ffffffffffffffffffffffffffffffffffffffff16146104c2576040517f08c379a00000000000000000000000000000000000000000000000000000000081526004016104b9906114ee565b60405180910390fd5b80600e60006101000a81548173ffffffffffffffffffffffffffffffffffffffff021916908373ffffffffffffffffffffffffffffffffffffffff16021790555050565b600860009054906101000a900460ff1681565b60095481565b60025481565b60045481565b610533610919565b610572576040517f08c379a00000000000000000000000000000000000000000000000000000000081526004016105699061155a565b60405180910390fd5b600860029054906101000a900460ff161561058c576108cc565b600860019054906101000a900460ff16156106a9576000600d60003373ffffffffffffffffffffffffffffffffffffffff1673ffffffffffffffffffffffffffffffffffffffff168152602001908152602001600020549050600d60003373ffffffffffffffffffffffffffffffffffffffff1673ffffffffffffffffffffffffffffffffffffffff16815260200190815260200160002060009055610655600e60009054906101000a900473ffffffffffffffffffffffffffffffffffffffff163383610e26565b3373ffffffffffffffffffffffffffffffffffffffff167f7084f5476618d8e60b11ef0d7d3f06914655adb8793e28ff7f018d4c76d505d58260405161069b91906113f3565b60405180910390a2506108cb565b600860009054906101000a900460ff16156107c6576000600c60003373ffffffffffffffffffffffffffffffffffffffff1673ffffffffffffffffffffffffffffffffffffffff168152602001908152602001600020549050600c60003373ffffffffffffffffffffffffffffffffffffffff1673ffffffffffffffffffffffffffffffffffffffff16815260200190815260200160002060009055610772600e60009054906101000a900473ffffffffffffffffffffffffffffffffffffffff163383610e26565b3373ffffffffffffffffffffffffffffffffffffffff167f7084f5476618d8e60b11ef0d7d3f06914655adb8793e28ff7f018d4c76d505d5826040516107b891906113f3565b60405180910390a2506108ca565b6000600b60003373ffffffffffffffffffffffffffffffffffffffff1673ffffffffffffffffffffffffffffffffffffffff168152602001908152602001600020549050600b60003373ffffffffffffffffffffffffffffffffffffffff1673ffffffffffffffffffffffffffffffffffffffff1681526020019081526020016000206000905561087a600e60009054906101000a900473ffffffffffffffffffffffffffffffffffffffff163383610e26565b3373ffffffffffffffffffffffffffffffffffffffff167f7084f5476618d8e60b11ef0d7d3f06914655adb8793e28ff7f018d4c76d505d5826040516108c091906113f3565b60405180910390a2505b5b5b565b6108d6610eac565b6108e06000610f2a565b565b60075481565b565b60008060009054906101000a900473ffffffffffffffffffffffffffffffffffffffff16905090565b60015481565b600042600954101561092e5760019050610933565b600090505b90565b600860029054906101000a900460ff1681565b610951610eac565b600860029054906101000a900460ff16156109a1576040517f08c379a0000000000000000000000000000000000000000000000000000000008152600401610998906115c6565b60405180910390fd5b600860009054906101000a900460ff16610ad5576109e3600e60009054906101000a900473ffffffffffffffffffffffffffffffffffffffff16333084610fee565b80600560008282546109f59190611615565b9250508190555080600b60003373ffffffffffffffffffffffffffffffffffffffff1673ffffffffffffffffffffffffffffffffffffffff1681526020019081526020016000206000828254610a4b9190611615565b925050819055503373ffffffffffffffffffffffffffffffffffffffff167f2da466a7b24304f47e87fa2e1e5a81b9831ce54fec19055ce277ca2f39ba42c482604051610a9891906113f3565b60405180910390a260015460055410610ad0576001600860006101000a81548160ff0219169083151502179055506001546004819055505b610d67565b600860019054906101000a900460ff16610c1657610b17600e60009054906101000a900473ffffffffffffffffffffffffffffffffffffffff16333084610fee565b8060066000828254610b299190611615565b9250508190555080600c60003373ffffffffffffffffffffffffffffffffffffffff1673ffffffffffffffffffffffffffffffffffffffff1681526020019081526020016000206000828254610b7f9190611615565b925050819055503373ffffffffffffffffffffffffffffffffffffffff167f2da466a7b24304f47e87fa2e1e5a81b9831ce54fec19055ce277ca2f39ba42c482604051610bcc91906113f3565b60405180910390a2600154600254610be49190611615565b60065410610c11576001600860016101000a81548160ff0219169083151502179055506002546004819055505b610d66565b600860029054906101000a900460ff16610d6457610c58600e60009054906101000a900473ffffffffffffffffffffffffffffffffffffffff16333084610fee565b8060076000828254610c6a9190611615565b9250508190555080600d60003373ffffffffffffffffffffffffffffffffffffffff1673ffffffffffffffffffffffffffffffffffffffff1681526020019081526020016000206000828254610cc09190611615565b925050819055503373ffffffffffffffffffffffffffffffffffffffff167f2da466a7b24304f47e87fa2e1e5a81b9831ce54fec19055ce277ca2f39ba42c482604051610d0d91906113f3565b60405180910390a2600154600254600354610d289190611615565b610d329190611615565b60075410610d5f576001600860026101000a81548160ff0219169083151502179055506003546004819055505b610d65565b5b5b5b50565b600a60009054906101000a900460ff1681565b60055481565b600860019054906101000a900460ff1681565b60065481565b610da4610eac565b600073ffffffffffffffffffffffffffffffffffffffff168173ffffffffffffffffffffffffffffffffffffffff161415610e14576040517f08c379a0000000000000000000000000000000000000000000000000000000008152600401610e0b906116dd565b60405180910390fd5b610e1d81610f2a565b50565b60035481565b610ea78363a9059cbb60e01b8484604051602401610e459291906116fd565b604051602081830303815290604052907bffffffffffffffffffffffffffffffffffffffffffffffffffffffff19166020820180517bffffffffffffffffffffffffffffffffffffffffffffffffffffffff8381831617835250505050611077565b505050565b610eb461113e565b73ffffffffffffffffffffffffffffffffffffffff16610ed26108ea565b73ffffffffffffffffffffffffffffffffffffffff1614610f28576040517f08c379a0000000000000000000000000000000000000000000000000000000008152600401610f1f90611772565b60405180910390fd5b565b60008060009054906101000a900473ffffffffffffffffffffffffffffffffffffffff169050816000806101000a81548173ffffffffffffffffffffffffffffffffffffffff021916908373ffffffffffffffffffffffffffffffffffffffff1602179055508173ffffffffffffffffffffffffffffffffffffffff168173ffffffffffffffffffffffffffffffffffffffff167f8be0079c531659141344cd1fd0a4f28419497f9722a3daafe3b4186f6b6457e060405160405180910390a35050565b611071846323b872dd60e01b85858560405160240161100f93929190611792565b604051602081830303815290604052907bffffffffffffffffffffffffffffffffffffffffffffffffffffffff19166020820180517bffffffffffffffffffffffffffffffffffffffffffffffffffffffff8381831617835250505050611077565b50505050565b60006110d9826040518060400160405280602081526020017f5361666545524332303a206c6f772d6c6576656c2063616c6c206661696c65648152508573ffffffffffffffffffffffffffffffffffffffff166111469092919063ffffffff16565b905060008151111561113957808060200190518101906110f991906117f5565b611138576040517f08c379a000000000000000000000000000000000000000000000000000000000815260040161112f90611894565b60405180910390fd5b5b505050565b600033905090565b6060611155848460008561115e565b90509392505050565b6060824710156111a3576040517f08c379a000000000000000000000000000000000000000000000000000000000815260040161119a90611926565b60405180910390fd5b6000808673ffffffffffffffffffffffffffffffffffffffff1685876040516111cc91906119c0565b60006040518083038185875af1925050503d8060008114611209576040519150601f19603f3d011682016040523d82523d6000602084013e61120e565b606091505b509150915061121f8783838761122b565b92505050949350505050565b6060831561128e5760008351141561128657611246856112a1565b611285576040517f08c379a000000000000000000000000000000000000000000000000000000000815260040161127c90611a23565b60405180910390fd5b5b829050611299565b61129883836112c4565b5b949350505050565b6000808273ffffffffffffffffffffffffffffffffffffffff163b119050919050565b6000825111156112d75781518083602001fd5b806040517f08c379a000000000000000000000000000000000000000000000000000000000815260040161130b9190611a98565b60405180910390fd5b600080fd5b600073ffffffffffffffffffffffffffffffffffffffff82169050919050565b600061134482611319565b9050919050565b61135481611339565b811461135f57600080fd5b50565b6000813590506113718161134b565b92915050565b60006020828403121561138d5761138c611314565b5b600061139b84828501611362565b91505092915050565b60008115159050919050565b6113b9816113a4565b82525050565b60006020820190506113d460008301846113b0565b92915050565b6000819050919050565b6113ed816113da565b82525050565b600060208201905061140860008301846113e4565b92915050565b61141781611339565b82525050565b6000602082019050611432600083018461140e565b92915050565b611441816113da565b811461144c57600080fd5b50565b60008135905061145e81611438565b92915050565b60006020828403121561147a57611479611314565b5b60006114888482850161144f565b91505092915050565b600082825260208201905092915050565b7f496e697469617465640000000000000000000000000000000000000000000000600082015250565b60006114d8600983611491565b91506114e3826114a2565b602082019050919050565b60006020820190508181036000830152611507816114cb565b9050919050565b7f43726f776466756e64696e672069732072756e6e696e67000000000000000000600082015250565b6000611544601783611491565b915061154f8261150e565b602082019050919050565b6000602082019050818103600083015261157381611537565b9050919050565b7f50726f6a6563742066756c6c7920737570706f72746564000000000000000000600082015250565b60006115b0601783611491565b91506115bb8261157a565b602082019050919050565b600060208201905081810360008301526115df816115a3565b9050919050565b7f4e487b7100000000000000000000000000000000000000000000000000000000600052601160045260246000fd5b6000611620826113da565b915061162b836113da565b9250827fffffffffffffffffffffffffffffffffffffffffffffffffffffffffffffffff038211156116605761165f6115e6565b5b828201905092915050565b7f4f776e61626c653a206e6577206f776e657220697320746865207a65726f206160008201527f6464726573730000000000000000000000000000000000000000000000000000602082015250565b60006116c7602683611491565b91506116d28261166b565b604082019050919050565b600060208201905081810360008301526116f6816116ba565b9050919050565b6000604082019050611712600083018561140e565b61171f60208301846113e4565b9392505050565b7f4f776e61626c653a2063616c6c6572206973206e6f7420746865206f776e6572600082015250565b600061175c602083611491565b915061176782611726565b602082019050919050565b6000602082019050818103600083015261178b8161174f565b9050919050565b60006060820190506117a7600083018661140e565b6117b4602083018561140e565b6117c160408301846113e4565b949350505050565b6117d2816113a4565b81146117dd57600080fd5b50565b6000815190506117ef816117c9565b92915050565b60006020828403121561180b5761180a611314565b5b6000611819848285016117e0565b91505092915050565b7f5361666545524332303a204552433230206f7065726174696f6e20646964206e60008201527f6f74207375636365656400000000000000000000000000000000000000000000602082015250565b600061187e602a83611491565b915061188982611822565b604082019050919050565b600060208201905081810360008301526118ad81611871565b9050919050565b7f416464726573733a20696e73756666696369656e742062616c616e636520666f60008201527f722063616c6c0000000000000000000000000000000000000000000000000000602082015250565b6000611910602683611491565b915061191b826118b4565b604082019050919050565b6000602082019050818103600083015261193f81611903565b9050919050565b600081519050919050565b600081905092915050565b60005b8381101561197a57808201518184015260208101905061195f565b83811115611989576000848401525b50505050565b600061199a82611946565b6119a48185611951565b93506119b481856020860161195c565b80840191505092915050565b60006119cc828461198f565b915081905092915050565b7f416464726573733a2063616c6c20746f206e6f6e2d636f6e7472616374000000600082015250565b6000611a0d601d83611491565b9150611a18826119d7565b602082019050919050565b60006020820190508181036000830152611a3c81611a00565b9050919050565b600081519050919050565b6000601f19601f8301169050919050565b6000611a6a82611a43565b611a748185611491565b9350611a8481856020860161195c565b611a8d81611a4e565b840191505092915050565b60006020820190508181036000830152611ab28184611a5f565b90509291505056fea2646970667358221220e8ba06458ac6faf6dc69bbdcb7e80421669031c3bc88790c975d54ca8183fd8364736f6c634300080b0033",
  "linkReferences": {},
  "deployedLinkReferences": {}
}