{
  "_format": "hh-sol-artifact-1",
  "contractName": "Whitelist",
  "sourceName": "contracts/Whitelist.sol",
  "abi": [
    {
      "anonymous": false,
      "inputs": [
        {
          "indexed": true,
          "internalType": "address",
          "name": "token",
          "type": "address"
        },
        {
          "indexed": true,
          "internalType": "address",
          "name": "user",
          "type": "address"
        },
        {
          "indexed": false,
          "internalType": "uint256",
          "name": "amount",
          "type": "uint256"
        }
      ],
      "name": "ERC20Released",
      "type": "event"
    },
    {
      "anonymous": false,
      "inputs": [
        {
          "indexed": true,
          "internalType": "address",
          "name": "previousOwner",
          "type": "address"
        },
        {
          "indexed": true,
          "internalType": "address",
          "name": "newOwner",
          "type": "address"
        }
      ],
      "name": "OwnershipTransferred",
      "type": "event"
    },
    {
      "inputs": [
        {
          "components": [
            {
              "internalType": "address",
              "name": "user",
              "type": "address"
            },
            {
              "internalType": "uint256",
              "name": "amount",
              "type": "uint256"
            }
          ],
          "internalType": "struct Whitelist.Beneficiary[]",
          "name": "users",
          "type": "tuple[]"
        }
      ],
      "name": "addMultiVesting",
      "outputs": [],
      "stateMutability": "nonpayable",
      "type": "function"
    },
    {
      "inputs": [
        {
          "components": [
            {
              "internalType": "address",
              "name": "user",
              "type": "address"
            },
            {
              "internalType": "uint256",
              "name": "amount",
              "type": "uint256"
            }
          ],
          "internalType": "struct Whitelist.Beneficiary[]",
          "name": "users",
          "type": "tuple[]"
        }
      ],
      "name": "deleteMultiVesting",
      "outputs": [],
      "stateMutability": "nonpayable",
      "type": "function"
    },
    {
      "inputs": [],
      "name": "duration",
      "outputs": [
        {
          "internalType": "uint256",
          "name": "",
          "type": "uint256"
        }
      ],
      "stateMutability": "view",
      "type": "function"
    },
    {
      "inputs": [
        {
          "internalType": "address",
          "name": "token",
          "type": "address"
        },
        {
          "internalType": "uint64",
          "name": "startTimestamp",
          "type": "uint64"
        },
        {
          "internalType": "uint64",
          "name": "durationSeconds",
          "type": "uint64"
        },
        {
          "internalType": "uint64",
          "name": "cliff",
          "type": "uint64"
        }
      ],
      "name": "init",
      "outputs": [],
      "stateMutability": "nonpayable",
      "type": "function"
    },
    {
      "inputs": [],
      "name": "owner",
      "outputs": [
        {
          "internalType": "address",
          "name": "",
          "type": "address"
        }
      ],
      "stateMutability": "view",
      "type": "function"
    },
    {
      "inputs": [],
      "name": "releasable",
      "outputs": [
        {
          "internalType": "uint256",
          "name": "",
          "type": "uint256"
        }
      ],
      "stateMutability": "view",
      "type": "function"
    },
    {
      "inputs": [],
      "name": "release",
      "outputs": [],
      "stateMutability": "nonpayable",
      "type": "function"
    },
    {
      "inputs": [],
      "name": "released",
      "outputs": [
        {
          "internalType": "uint256",
          "name": "",
          "type": "uint256"
        }
      ],
      "stateMutability": "view",
      "type": "function"
    },
    {
      "inputs": [],
      "name": "renounceOwnership",
      "outputs": [],
      "stateMutability": "nonpayable",
      "type": "function"
    },
    {
      "inputs": [],
      "name": "start",
      "outputs": [
        {
          "internalType": "uint256",
          "name": "",
          "type": "uint256"
        }
      ],
      "stateMutability": "view",
      "type": "function"
    },
    {
      "inputs": [
        {
          "internalType": "address",
          "name": "newOwner",
          "type": "address"
        }
      ],
      "name": "transferOwnership",
      "outputs": [],
      "stateMutability": "nonpayable",
      "type": "function"
    },
    {
      "inputs": [
        {
          "internalType": "uint64",
          "name": "timestamp",
          "type": "uint64"
        }
      ],
      "name": "vestedAmount",
      "outputs": [
        {
          "internalType": "uint256",
          "name": "",
          "type": "uint256"
        }
      ],
      "stateMutability": "view",
      "type": "function"
    }
  ],
  "bytecode": "0x608060405234801561001057600080fd5b5061002d61002261003260201b60201c565b61003a60201b60201c565b6100fe565b600033905090565b60008060009054906101000a900473ffffffffffffffffffffffffffffffffffffffff169050816000806101000a81548173ffffffffffffffffffffffffffffffffffffffff021916908373ffffffffffffffffffffffffffffffffffffffff1602179055508173ffffffffffffffffffffffffffffffffffffffff168173ffffffffffffffffffffffffffffffffffffffff167f8be0079c531659141344cd1fd0a4f28419497f9722a3daafe3b4186f6b6457e060405160405180910390a35050565b61178c8061010d6000396000f3fe608060405234801561001057600080fd5b50600436106100b45760003560e01c80638da5cb5b116100715780638da5cb5b146101535780639613252114610171578063be9a65551461018f578063de809847146101ad578063f2fde38b146101c9578063fbccedae146101e5576100b4565b80630a17b06b146100b95780630fb5a6b4146100e9578063231815da1461010757806327c2e72214610123578063715018a61461013f57806386d1a69f14610149575b600080fd5b6100d360048036038101906100ce9190610ea6565b610203565b6040516100e09190610eec565b60405180910390f35b6100f1610267565b6040516100fe9190610eec565b60405180910390f35b610121600480360381019061011c9190610f65565b61028f565b005b61013d60048036038101906101389190611031565b6103a4565b005b61014761041f565b005b610151610433565b005b61015b61069b565b604051610168919061108d565b60405180910390f35b6101796106c4565b6040516101869190610eec565b60405180910390f35b61019761076a565b6040516101a49190610eec565b60405180910390f35b6101c760048036038101906101c29190611031565b610792565b005b6101e360048036038101906101de91906110a8565b6107f0565b005b6101ed610874565b6040516101fa9190610eec565b60405180910390f35b60006102606102106106c4565b600360003373ffffffffffffffffffffffffffffffffffffffff1673ffffffffffffffffffffffffffffffffffffffff1681526020019081526020016000205461025a9190611104565b83610896565b9050919050565b6000600460089054906101000a900467ffffffffffffffff1667ffffffffffffffff16905090565b60001515600660009054906101000a900460ff161515146102e5576040517f08c379a00000000000000000000000000000000000000000000000000000000081526004016102dc906111b7565b60405180910390fd5b6001600660006101000a81548160ff02191690831515021790555083600160006101000a81548173ffffffffffffffffffffffffffffffffffffffff021916908373ffffffffffffffffffffffffffffffffffffffff160217905550808361034d91906111d7565b600460006101000a81548167ffffffffffffffff021916908367ffffffffffffffff16021790555081600460086101000a81548167ffffffffffffffff021916908367ffffffffffffffff16021790555050505050565b6103ac610930565b60005b8282905081101561041a5761040a8383838181106103d0576103cf611215565b5b90506040020160000160208101906103e891906110a8565b8484848181106103fb576103fa611215565b5b905060400201602001356109ae565b61041381610a08565b90506103af565b505050565b610427610930565b6104316000610a15565b565b600061043d610874565b9050600560003373ffffffffffffffffffffffffffffffffffffffff1673ffffffffffffffffffffffffffffffffffffffff16815260200190815260200160002054610487610ad9565b111561069857610495610ad9565b600560003373ffffffffffffffffffffffffffffffffffffffff1673ffffffffffffffffffffffffffffffffffffffff1681526020019081526020016000208190555080600360003373ffffffffffffffffffffffffffffffffffffffff1673ffffffffffffffffffffffffffffffffffffffff16815260200190815260200160002060008282546105279190611244565b925050819055508060026000600160009054906101000a900473ffffffffffffffffffffffffffffffffffffffff1673ffffffffffffffffffffffffffffffffffffffff1673ffffffffffffffffffffffffffffffffffffffff16815260200190815260200160002060003373ffffffffffffffffffffffffffffffffffffffff1673ffffffffffffffffffffffffffffffffffffffff16815260200190815260200160002060008282546105dc9190611104565b925050819055503373ffffffffffffffffffffffffffffffffffffffff16600160009054906101000a900473ffffffffffffffffffffffffffffffffffffffff1673ffffffffffffffffffffffffffffffffffffffff167f1998e30db89daf293a52c4fc4c4470cd506aafc3f9683e8e5daddad80cd6f4a4836040516106629190610eec565b60405180910390a3610697600160009054906101000a900473ffffffffffffffffffffffffffffffffffffffff163383610b0b565b5b50565b60008060009054906101000a900473ffffffffffffffffffffffffffffffffffffffff16905090565b600060026000600160009054906101000a900473ffffffffffffffffffffffffffffffffffffffff1673ffffffffffffffffffffffffffffffffffffffff1673ffffffffffffffffffffffffffffffffffffffff16815260200190815260200160002060003373ffffffffffffffffffffffffffffffffffffffff1673ffffffffffffffffffffffffffffffffffffffff16815260200190815260200160002054905090565b6000600460009054906101000a900467ffffffffffffffff1667ffffffffffffffff16905090565b61079a610930565b60005b828290508110156107eb576107db8383838181106107be576107bd611215565b5b90506040020160000160208101906107d691906110a8565b610b91565b6107e481610a08565b905061079d565b505050565b6107f8610930565b600073ffffffffffffffffffffffffffffffffffffffff168173ffffffffffffffffffffffffffffffffffffffff161415610868576040517f08c379a000000000000000000000000000000000000000000000000000000000815260040161085f906112ea565b60405180910390fd5b61087181610a15565b50565b600061087e6106c4565b61088742610203565b6108919190611244565b905090565b60006108a061076a565b8267ffffffffffffffff1610156108ba576000905061092a565b6108c2610267565b6108ca61076a565b6108d49190611104565b8267ffffffffffffffff1611156108ed5782905061092a565b6108f5610267565b6108fd61076a565b8367ffffffffffffffff166109129190611244565b8461091d919061130a565b6109279190611393565b90505b92915050565b610938610bd7565b73ffffffffffffffffffffffffffffffffffffffff1661095661069b565b73ffffffffffffffffffffffffffffffffffffffff16146109ac576040517f08c379a00000000000000000000000000000000000000000000000000000000081526004016109a390611410565b60405180910390fd5b565b80600360008473ffffffffffffffffffffffffffffffffffffffff1673ffffffffffffffffffffffffffffffffffffffff16815260200190815260200160002060008282546109fd9190611104565b925050819055505050565b6000600182019050919050565b60008060009054906101000a900473ffffffffffffffffffffffffffffffffffffffff169050816000806101000a81548173ffffffffffffffffffffffffffffffffffffffff021916908373ffffffffffffffffffffffffffffffffffffffff1602179055508173ffffffffffffffffffffffffffffffffffffffff168173ffffffffffffffffffffffffffffffffffffffff167f8be0079c531659141344cd1fd0a4f28419497f9722a3daafe3b4186f6b6457e060405160405180910390a35050565b600062278d00610ae761076a565b4267ffffffffffffffff16610afc9190611244565b610b069190611393565b905090565b610b8c8363a9059cbb60e01b8484604051602401610b2a929190611430565b604051602081830303815290604052907bffffffffffffffffffffffffffffffffffffffffffffffffffffffff19166020820180517bffffffffffffffffffffffffffffffffffffffffffffffffffffffff8381831617835250505050610bdf565b505050565b600360008273ffffffffffffffffffffffffffffffffffffffff1673ffffffffffffffffffffffffffffffffffffffff1681526020019081526020016000206000905550565b600033905090565b6000610c41826040518060400160405280602081526020017f5361666545524332303a206c6f772d6c6576656c2063616c6c206661696c65648152508573ffffffffffffffffffffffffffffffffffffffff16610ca69092919063ffffffff16565b9050600081511115610ca15780806020019051810190610c619190611491565b610ca0576040517f08c379a0000000000000000000000000000000000000000000000000000000008152600401610c9790611530565b60405180910390fd5b5b505050565b6060610cb58484600085610cbe565b90509392505050565b606082471015610d03576040517f08c379a0000000000000000000000000000000000000000000000000000000008152600401610cfa906115c2565b60405180910390fd5b610d0c85610dd2565b610d4b576040517f08c379a0000000000000000000000000000000000000000000000000000000008152600401610d429061162e565b60405180910390fd5b6000808673ffffffffffffffffffffffffffffffffffffffff168587604051610d7491906116c8565b60006040518083038185875af1925050503d8060008114610db1576040519150601f19603f3d011682016040523d82523d6000602084013e610db6565b606091505b5091509150610dc6828286610df5565b92505050949350505050565b6000808273ffffffffffffffffffffffffffffffffffffffff163b119050919050565b60608315610e0557829050610e55565b600083511115610e185782518084602001fd5b816040517f08c379a0000000000000000000000000000000000000000000000000000000008152600401610e4c9190611734565b60405180910390fd5b9392505050565b600080fd5b600080fd5b600067ffffffffffffffff82169050919050565b610e8381610e66565b8114610e8e57600080fd5b50565b600081359050610ea081610e7a565b92915050565b600060208284031215610ebc57610ebb610e5c565b5b6000610eca84828501610e91565b91505092915050565b6000819050919050565b610ee681610ed3565b82525050565b6000602082019050610f016000830184610edd565b92915050565b600073ffffffffffffffffffffffffffffffffffffffff82169050919050565b6000610f3282610f07565b9050919050565b610f4281610f27565b8114610f4d57600080fd5b50565b600081359050610f5f81610f39565b92915050565b60008060008060808587031215610f7f57610f7e610e5c565b5b6000610f8d87828801610f50565b9450506020610f9e87828801610e91565b9350506040610faf87828801610e91565b9250506060610fc087828801610e91565b91505092959194509250565b600080fd5b600080fd5b600080fd5b60008083601f840112610ff157610ff0610fcc565b5b8235905067ffffffffffffffff81111561100e5761100d610fd1565b5b60208301915083604082028301111561102a57611029610fd6565b5b9250929050565b6000806020838503121561104857611047610e5c565b5b600083013567ffffffffffffffff81111561106657611065610e61565b5b61107285828601610fdb565b92509250509250929050565b61108781610f27565b82525050565b60006020820190506110a2600083018461107e565b92915050565b6000602082840312156110be576110bd610e5c565b5b60006110cc84828501610f50565b91505092915050565b7f4e487b7100000000000000000000000000000000000000000000000000000000600052601160045260246000fd5b600061110f82610ed3565b915061111a83610ed3565b9250827fffffffffffffffffffffffffffffffffffffffffffffffffffffffffffffffff0382111561114f5761114e6110d5565b5b828201905092915050565b600082825260208201905092915050565b7f496e697469617465640000000000000000000000000000000000000000000000600082015250565b60006111a160098361115a565b91506111ac8261116b565b602082019050919050565b600060208201905081810360008301526111d081611194565b9050919050565b60006111e282610e66565b91506111ed83610e66565b92508267ffffffffffffffff0382111561120a576112096110d5565b5b828201905092915050565b7f4e487b7100000000000000000000000000000000000000000000000000000000600052603260045260246000fd5b600061124f82610ed3565b915061125a83610ed3565b92508282101561126d5761126c6110d5565b5b828203905092915050565b7f4f776e61626c653a206e6577206f776e657220697320746865207a65726f206160008201527f6464726573730000000000000000000000000000000000000000000000000000602082015250565b60006112d460268361115a565b91506112df82611278565b604082019050919050565b60006020820190508181036000830152611303816112c7565b9050919050565b600061131582610ed3565b915061132083610ed3565b9250817fffffffffffffffffffffffffffffffffffffffffffffffffffffffffffffffff0483118215151615611359576113586110d5565b5b828202905092915050565b7f4e487b7100000000000000000000000000000000000000000000000000000000600052601260045260246000fd5b600061139e82610ed3565b91506113a983610ed3565b9250826113b9576113b8611364565b5b828204905092915050565b7f4f776e61626c653a2063616c6c6572206973206e6f7420746865206f776e6572600082015250565b60006113fa60208361115a565b9150611405826113c4565b602082019050919050565b60006020820190508181036000830152611429816113ed565b9050919050565b6000604082019050611445600083018561107e565b6114526020830184610edd565b9392505050565b60008115159050919050565b61146e81611459565b811461147957600080fd5b50565b60008151905061148b81611465565b92915050565b6000602082840312156114a7576114a6610e5c565b5b60006114b58482850161147c565b91505092915050565b7f5361666545524332303a204552433230206f7065726174696f6e20646964206e60008201527f6f74207375636365656400000000000000000000000000000000000000000000602082015250565b600061151a602a8361115a565b9150611525826114be565b604082019050919050565b600060208201905081810360008301526115498161150d565b9050919050565b7f416464726573733a20696e73756666696369656e742062616c616e636520666f60008201527f722063616c6c0000000000000000000000000000000000000000000000000000602082015250565b60006115ac60268361115a565b91506115b782611550565b604082019050919050565b600060208201905081810360008301526115db8161159f565b9050919050565b7f416464726573733a2063616c6c20746f206e6f6e2d636f6e7472616374000000600082015250565b6000611618601d8361115a565b9150611623826115e2565b602082019050919050565b600060208201905081810360008301526116478161160b565b9050919050565b600081519050919050565b600081905092915050565b60005b83811015611682578082015181840152602081019050611667565b83811115611691576000848401525b50505050565b60006116a28261164e565b6116ac8185611659565b93506116bc818560208601611664565b80840191505092915050565b60006116d48284611697565b915081905092915050565b600081519050919050565b6000601f19601f8301169050919050565b6000611706826116df565b611710818561115a565b9350611720818560208601611664565b611729816116ea565b840191505092915050565b6000602082019050818103600083015261174e81846116fb565b90509291505056fea26469706673582212203c0891b1765b78b6b49674a6731191b9d5a5ffec82f93e17e50fa413649afa4964736f6c634300080b0033",
  "linkReferences": {},
  "deployedLinkReferences": {}
}