{
  "_format": "hh-sol-artifact-1",
  "contractName": "NFTFactory",
  "sourceName": "contracts/Factory/NFTFactory.sol",
  "abi": [
    {
      "inputs": [],
      "stateMutability": "nonpayable",
      "type": "constructor"
    },
    {
      "anonymous": false,
      "inputs": [
        {
          "indexed": true,
          "internalType": "address",
          "name": "previousOwner",
          "type": "address"
        },
        {
          "indexed": true,
          "internalType": "address",
          "name": "newOwner",
          "type": "address"
        }
      ],
      "name": "OwnershipTransferred",
      "type": "event"
    },
    {
      "inputs": [
        {
          "internalType": "address payable",
          "name": "minter",
          "type": "address"
        },
        {
          "internalType": "address",
          "name": "tokenAddress",
          "type": "address"
        },
        {
          "internalType": "address",
          "name": "escrowAddress",
          "type": "address"
        },
        {
          "internalType": "uint96",
          "name": "royaltyPercentage",
          "type": "uint96"
        }
      ],
      "name": "createProject",
      "outputs": [
        {
          "internalType": "address",
          "name": "",
          "type": "address"
        }
      ],
      "stateMutability": "nonpayable",
      "type": "function"
    },
    {
      "inputs": [],
      "name": "getCurrentCounter",
      "outputs": [
        {
          "internalType": "uint256",
          "name": "",
          "type": "uint256"
        }
      ],
      "stateMutability": "view",
      "type": "function"
    },
    {
      "inputs": [
        {
          "internalType": "uint256",
          "name": "counterIdx",
          "type": "uint256"
        }
      ],
      "name": "getProject",
      "outputs": [
        {
          "internalType": "address",
          "name": "",
          "type": "address"
        }
      ],
      "stateMutability": "view",
      "type": "function"
    },
    {
      "inputs": [],
      "name": "owner",
      "outputs": [
        {
          "internalType": "address",
          "name": "",
          "type": "address"
        }
      ],
      "stateMutability": "view",
      "type": "function"
    },
    {
      "inputs": [
        {
          "internalType": "uint256",
          "name": "",
          "type": "uint256"
        }
      ],
      "name": "projects",
      "outputs": [
        {
          "internalType": "address",
          "name": "",
          "type": "address"
        }
      ],
      "stateMutability": "view",
      "type": "function"
    },
    {
      "inputs": [],
      "name": "renounceOwnership",
      "outputs": [],
      "stateMutability": "nonpayable",
      "type": "function"
    },
    {
      "inputs": [
        {
          "internalType": "address",
          "name": "newOwner",
          "type": "address"
        }
      ],
      "name": "transferOwnership",
      "outputs": [],
      "stateMutability": "nonpayable",
      "type": "function"
    }
  ],
  "bytecode": "0x60a060405234801561001057600080fd5b5061002d61002261008e60201b60201c565b61009660201b60201c565b6040516100399061015a565b604051809103906000f080158015610055573d6000803e3d6000fd5b5073ffffffffffffffffffffffffffffffffffffffff1660808173ffffffffffffffffffffffffffffffffffffffff1681525050610167565b600033905090565b60008060009054906101000a900473ffffffffffffffffffffffffffffffffffffffff169050816000806101000a81548173ffffffffffffffffffffffffffffffffffffffff021916908373ffffffffffffffffffffffffffffffffffffffff1602179055508173ffffffffffffffffffffffffffffffffffffffff168173ffffffffffffffffffffffffffffffffffffffff167f8be0079c531659141344cd1fd0a4f28419497f9722a3daafe3b4186f6b6457e060405160405180910390a35050565b6146b580610c0e83390190565b608051610a8c61018260003960006102060152610a8c6000f3fe608060405234801561001057600080fd5b506004361061007d5760003560e01c80638da5cb5b1161005b5780638da5cb5b146100da578063a344dc2e146100f8578063f0f3f2c814610128578063f2fde38b146101585761007d565b8063107046bd14610082578063715018a6146100b257806373448c46146100bc575b600080fd5b61009c60048036038101906100979190610633565b610174565b6040516100a991906106a1565b60405180910390f35b6100ba6101a7565b005b6100c46101bb565b6040516100d191906106cb565b60405180910390f35b6100e26101cc565b6040516100ef91906106a1565b60405180910390f35b610112600480360381019061010d9190610794565b6101f5565b60405161011f91906106a1565b60405180910390f35b610142600480360381019061013d9190610633565b61030e565b60405161014f91906106a1565b60405180910390f35b610172600480360381019061016d91906107fb565b61034b565b005b60026020528060005260406000206000915054906101000a900473ffffffffffffffffffffffffffffffffffffffff1681565b6101af6103cf565b6101b9600061044d565b565b60006101c76001610511565b905090565b60008060009054906101000a900473ffffffffffffffffffffffffffffffffffffffff16905090565b60006101ff6103cf565b600061022a7f000000000000000000000000000000000000000000000000000000000000000061051f565b90508073ffffffffffffffffffffffffffffffffffffffff1663b7f670e1878787876040518563ffffffff1660e01b815260040161026b9493929190610896565b600060405180830381600087803b15801561028557600080fd5b505af1158015610299573d6000803e3d6000fd5b5050505080600260006102ac6001610511565b815260200190815260200160002060006101000a81548173ffffffffffffffffffffffffffffffffffffffff021916908373ffffffffffffffffffffffffffffffffffffffff16021790555061030260016105da565b80915050949350505050565b60006002600083815260200190815260200160002060009054906101000a900473ffffffffffffffffffffffffffffffffffffffff169050919050565b6103536103cf565b600073ffffffffffffffffffffffffffffffffffffffff168173ffffffffffffffffffffffffffffffffffffffff1614156103c3576040517f08c379a00000000000000000000000000000000000000000000000000000000081526004016103ba9061095e565b60405180910390fd5b6103cc8161044d565b50565b6103d76105f0565b73ffffffffffffffffffffffffffffffffffffffff166103f56101cc565b73ffffffffffffffffffffffffffffffffffffffff161461044b576040517f08c379a0000000000000000000000000000000000000000000000000000000008152600401610442906109ca565b60405180910390fd5b565b60008060009054906101000a900473ffffffffffffffffffffffffffffffffffffffff169050816000806101000a81548173ffffffffffffffffffffffffffffffffffffffff021916908373ffffffffffffffffffffffffffffffffffffffff1602179055508173ffffffffffffffffffffffffffffffffffffffff168173ffffffffffffffffffffffffffffffffffffffff167f8be0079c531659141344cd1fd0a4f28419497f9722a3daafe3b4186f6b6457e060405160405180910390a35050565b600081600001549050919050565b6000763d602d80600a3d3981f3363d3d373d3d3d363d730000008260601b60e81c176000526e5af43d82803e903d91602b57fd5bf38260781b17602052603760096000f09050600073ffffffffffffffffffffffffffffffffffffffff168173ffffffffffffffffffffffffffffffffffffffff1614156105d5576040517f08c379a00000000000000000000000000000000000000000000000000000000081526004016105cc90610a36565b60405180910390fd5b919050565b6001816000016000828254019250508190555050565b600033905090565b600080fd5b6000819050919050565b610610816105fd565b811461061b57600080fd5b50565b60008135905061062d81610607565b92915050565b600060208284031215610649576106486105f8565b5b60006106578482850161061e565b91505092915050565b600073ffffffffffffffffffffffffffffffffffffffff82169050919050565b600061068b82610660565b9050919050565b61069b81610680565b82525050565b60006020820190506106b66000830184610692565b92915050565b6106c5816105fd565b82525050565b60006020820190506106e060008301846106bc565b92915050565b60006106f182610660565b9050919050565b610701816106e6565b811461070c57600080fd5b50565b60008135905061071e816106f8565b92915050565b61072d81610680565b811461073857600080fd5b50565b60008135905061074a81610724565b92915050565b60006bffffffffffffffffffffffff82169050919050565b61077181610750565b811461077c57600080fd5b50565b60008135905061078e81610768565b92915050565b600080600080608085870312156107ae576107ad6105f8565b5b60006107bc8782880161070f565b94505060206107cd8782880161073b565b93505060406107de8782880161073b565b92505060606107ef8782880161077f565b91505092959194509250565b600060208284031215610811576108106105f8565b5b600061081f8482850161073b565b91505092915050565b6000819050919050565b600061084d61084861084384610660565b610828565b610660565b9050919050565b600061085f82610832565b9050919050565b600061087182610854565b9050919050565b61088181610866565b82525050565b61089081610750565b82525050565b60006080820190506108ab6000830187610878565b6108b86020830186610692565b6108c56040830185610692565b6108d26060830184610887565b95945050505050565b600082825260208201905092915050565b7f4f776e61626c653a206e6577206f776e657220697320746865207a65726f206160008201527f6464726573730000000000000000000000000000000000000000000000000000602082015250565b60006109486026836108db565b9150610953826108ec565b604082019050919050565b600060208201905081810360008301526109778161093b565b9050919050565b7f4f776e61626c653a2063616c6c6572206973206e6f7420746865206f776e6572600082015250565b60006109b46020836108db565b91506109bf8261097e565b602082019050919050565b600060208201905081810360008301526109e3816109a7565b9050919050565b7f455243313136373a20637265617465206661696c656400000000000000000000600082015250565b6000610a206016836108db565b9150610a2b826109ea565b602082019050919050565b60006020820190508181036000830152610a4f81610a13565b905091905056fea26469706673582212202a1b064c5db9f1721794fdeea16fc3b5b67ee79e37f1133107b5214b6852d2fe64736f6c634300080b003360806040523480156200001157600080fd5b506040518060400160405280600481526020017f4e414d45000000000000000000000000000000000000000000000000000000008152506040518060400160405280600681526020017f53594d424f4c0000000000000000000000000000000000000000000000000000815250816000908051906020019062000096929190620001a6565b508060019080519060200190620000af929190620001a6565b505050620000d2620000c6620000d860201b60201c565b620000e060201b60201c565b620002bb565b600033905090565b6000600960009054906101000a900473ffffffffffffffffffffffffffffffffffffffff16905081600960006101000a81548173ffffffffffffffffffffffffffffffffffffffff021916908373ffffffffffffffffffffffffffffffffffffffff1602179055508173ffffffffffffffffffffffffffffffffffffffff168173ffffffffffffffffffffffffffffffffffffffff167f8be0079c531659141344cd1fd0a4f28419497f9722a3daafe3b4186f6b6457e060405160405180910390a35050565b828054620001b49062000285565b90600052602060002090601f016020900481019282620001d8576000855562000224565b82601f10620001f357805160ff191683800117855562000224565b8280016001018555821562000224579182015b828111156200022357825182559160200191906001019062000206565b5b50905062000233919062000237565b5090565b5b808211156200025257600081600090555060010162000238565b5090565b7f4e487b7100000000000000000000000000000000000000000000000000000000600052602260045260246000fd5b600060028204905060018216806200029e57607f821691505b60208210811415620002b557620002b462000256565b5b50919050565b6143ea80620002cb6000396000f3fe608060405234801561001057600080fd5b506004361061014d5760003560e01c8063715018a6116100c3578063b7f670e11161007c578063b7f670e11461039d578063b88d4fde146103b9578063c457fb37146103d5578063c87b56dd14610405578063e985e9c514610435578063f2fde38b146104655761014d565b8063715018a6146103015780638a71bb2d1461030b5780638da5cb5b1461032957806395d89b4114610347578063a22cb46514610365578063ae169a50146103815761014d565b80632890e0d7116101155780632890e0d7146102085780632a55205a146102245780633f06c9591461025557806342842e0e146102855780636352211e146102a157806370a08231146102d15761014d565b806301ffc9a71461015257806306fdde0314610182578063081812fc146101a0578063095ea7b3146101d057806323b872dd146101ec575b600080fd5b61016c60048036038101906101679190612ccb565b610481565b6040516101799190612d13565b60405180910390f35b61018a610493565b6040516101979190612dc7565b60405180910390f35b6101ba60048036038101906101b59190612e1f565b610525565b6040516101c79190612e8d565b60405180910390f35b6101ea60048036038101906101e59190612ed4565b61056b565b005b61020660048036038101906102019190612f14565b610683565b005b610222600480360381019061021d9190612e1f565b6106e3565b005b61023e60048036038101906102399190612f67565b6106f7565b60405161024c929190612fb6565b60405180910390f35b61026f600480360381019061026a9190613114565b6108e2565b60405161027c9190613183565b60405180910390f35b61029f600480360381019061029a9190612f14565b61092a565b005b6102bb60048036038101906102b69190612e1f565b61094a565b6040516102c89190612e8d565b60405180910390f35b6102eb60048036038101906102e6919061319e565b6109d1565b6040516102f89190613183565b60405180910390f35b610309610a89565b005b610313610a9d565b60405161032091906131f2565b60405180910390f35b610331610abb565b60405161033e9190612e8d565b60405180910390f35b61034f610ae5565b60405161035c9190612dc7565b60405180910390f35b61037f600480360381019061037a9190613239565b610b77565b005b61039b60048036038101906103969190612e1f565b610b8d565b005b6103b760048036038101906103b291906132a5565b610da0565b005b6103d360048036038101906103ce91906133ad565b610efc565b005b6103ef60048036038101906103ea9190612e1f565b610f5e565b6040516103fc9190613183565b60405180910390f35b61041f600480360381019061041a9190612e1f565b610fbe565b60405161042c9190612dc7565b60405180910390f35b61044f600480360381019061044a9190613430565b6110d1565b60405161045c9190612d13565b60405180910390f35b61047f600480360381019061047a919061319e565b611165565b005b600061048c826111e9565b9050919050565b6060600080546104a29061349f565b80601f01602080910402602001604051908101604052809291908181526020018280546104ce9061349f565b801561051b5780601f106104f05761010080835404028352916020019161051b565b820191906000526020600020905b8154815290600101906020018083116104fe57829003601f168201915b5050505050905090565b600061053082611263565b6004600083815260200190815260200160002060009054906101000a900473ffffffffffffffffffffffffffffffffffffffff169050919050565b60006105768261094a565b90508073ffffffffffffffffffffffffffffffffffffffff168373ffffffffffffffffffffffffffffffffffffffff1614156105e7576040517f08c379a00000000000000000000000000000000000000000000000000000000081526004016105de90613543565b60405180910390fd5b8073ffffffffffffffffffffffffffffffffffffffff166106066112ae565b73ffffffffffffffffffffffffffffffffffffffff16148061063557506106348161062f6112ae565b6110d1565b5b610674576040517f08c379a000000000000000000000000000000000000000000000000000000000815260040161066b906135d5565b60405180910390fd5b61067e83836112b6565b505050565b61069461068e6112ae565b8261136f565b6106d3576040517f08c379a00000000000000000000000000000000000000000000000000000000081526004016106ca90613667565b60405180910390fd5b6106de838383611404565b505050565b6106eb6116fe565b6106f48161177c565b50565b6000806000600860008681526020019081526020016000206040518060400160405290816000820160009054906101000a900473ffffffffffffffffffffffffffffffffffffffff1673ffffffffffffffffffffffffffffffffffffffff1673ffffffffffffffffffffffffffffffffffffffff1681526020016000820160149054906101000a90046bffffffffffffffffffffffff166bffffffffffffffffffffffff166bffffffffffffffffffffffff16815250509050600073ffffffffffffffffffffffffffffffffffffffff16816000015173ffffffffffffffffffffffffffffffffffffffff16141561088d5760076040518060400160405290816000820160009054906101000a900473ffffffffffffffffffffffffffffffffffffffff1673ffffffffffffffffffffffffffffffffffffffff1673ffffffffffffffffffffffffffffffffffffffff1681526020016000820160149054906101000a90046bffffffffffffffffffffffff166bffffffffffffffffffffffff166bffffffffffffffffffffffff168152505090505b6000610897611791565b6bffffffffffffffffffffffff1682602001516bffffffffffffffffffffffff16866108c391906136b6565b6108cd919061373f565b90508160000151819350935050509250929050565b60006108ec6116fe565b60006108f8858561179b565b905061091f8184600c60009054906101000a90046bffffffffffffffffffffffff166117d3565b809150509392505050565b61094583838360405180602001604052806000815250610efc565b505050565b6000806109568361197b565b9050600073ffffffffffffffffffffffffffffffffffffffff168173ffffffffffffffffffffffffffffffffffffffff1614156109c8576040517f08c379a00000000000000000000000000000000000000000000000000000000081526004016109bf906137bc565b60405180910390fd5b80915050919050565b60008073ffffffffffffffffffffffffffffffffffffffff168273ffffffffffffffffffffffffffffffffffffffff161415610a42576040517f08c379a0000000000000000000000000000000000000000000000000000000008152600401610a399061384e565b60405180910390fd5b600360008373ffffffffffffffffffffffffffffffffffffffff1673ffffffffffffffffffffffffffffffffffffffff168152602001908152602001600020549050919050565b610a916116fe565b610a9b60006119b8565b565b600c60009054906101000a90046bffffffffffffffffffffffff1681565b6000600960009054906101000a900473ffffffffffffffffffffffffffffffffffffffff16905090565b606060018054610af49061349f565b80601f0160208091040260200160405190810160405280929190818152602001828054610b209061349f565b8015610b6d5780601f10610b4257610100808354040283529160200191610b6d565b820191906000526020600020905b815481529060010190602001808311610b5057829003601f168201915b5050505050905090565b610b89610b826112ae565b8383611a7e565b5050565b3373ffffffffffffffffffffffffffffffffffffffff16610bad8261094a565b73ffffffffffffffffffffffffffffffffffffffff1614610c03576040517f08c379a0000000000000000000000000000000000000000000000000000000008152600401610bfa906138ba565b60405180910390fd5b6000600c8054906101000a900473ffffffffffffffffffffffffffffffffffffffff1673ffffffffffffffffffffffffffffffffffffffff166370a08231306040518263ffffffff1660e01b8152600401610c5e9190612e8d565b602060405180830381865afa158015610c7b573d6000803e3d6000fd5b505050506040513d601f19601f82011682018060405250810190610c9f91906138ef565b90506000600d60009054906101000a900473ffffffffffffffffffffffffffffffffffffffff1673ffffffffffffffffffffffffffffffffffffffff166395adab01306040518263ffffffff1660e01b8152600401610cfe9190612e8d565b602060405180830381865afa158015610d1b573d6000803e3d6000fd5b505050506040513d601f19601f82011682018060405250810190610d3f91906138ef565b905060008183600b600087815260200190815260200160002054610d6391906136b6565b610d6d919061373f565b9050610d9a600c8054906101000a900473ffffffffffffffffffffffffffffffffffffffff163383611beb565b50505050565b600073ffffffffffffffffffffffffffffffffffffffff16600c8054906101000a900473ffffffffffffffffffffffffffffffffffffffff1673ffffffffffffffffffffffffffffffffffffffff1614610e2f576040517f08c379a0000000000000000000000000000000000000000000000000000000008152600401610e2690613968565b60405180910390fd5b82600c806101000a81548173ffffffffffffffffffffffffffffffffffffffff021916908373ffffffffffffffffffffffffffffffffffffffff16021790555081600d60006101000a81548173ffffffffffffffffffffffffffffffffffffffff021916908373ffffffffffffffffffffffffffffffffffffffff160217905550606481610ebd9190613988565b600c60006101000a8154816bffffffffffffffffffffffff02191690836bffffffffffffffffffffffff160217905550610ef684611165565b50505050565b610f0d610f076112ae565b8361136f565b610f4c576040517f08c379a0000000000000000000000000000000000000000000000000000000008152600401610f4390613667565b60405180910390fd5b610f5884848484611c71565b50505050565b600080821415610fa3576040517f08c379a0000000000000000000000000000000000000000000000000000000008152600401610f9a90613a1a565b60405180910390fd5b600b6000838152602001908152602001600020549050919050565b6060610fc982611263565b6000600660008481526020019081526020016000208054610fe99061349f565b80601f01602080910402602001604051908101604052809291908181526020018280546110159061349f565b80156110625780601f1061103757610100808354040283529160200191611062565b820191906000526020600020905b81548152906001019060200180831161104557829003601f168201915b505050505090506000611073611ccd565b90506000815114156110895781925050506110cc565b6000825111156110be5780826040516020016110a6929190613a76565b604051602081830303815290604052925050506110cc565b6110c784611ce4565b925050505b919050565b6000600560008473ffffffffffffffffffffffffffffffffffffffff1673ffffffffffffffffffffffffffffffffffffffff16815260200190815260200160002060008373ffffffffffffffffffffffffffffffffffffffff1673ffffffffffffffffffffffffffffffffffffffff16815260200190815260200160002060009054906101000a900460ff16905092915050565b61116d6116fe565b600073ffffffffffffffffffffffffffffffffffffffff168173ffffffffffffffffffffffffffffffffffffffff1614156111dd576040517f08c379a00000000000000000000000000000000000000000000000000000000081526004016111d490613b0c565b60405180910390fd5b6111e6816119b8565b50565b60007f2a55205a000000000000000000000000000000000000000000000000000000007bffffffffffffffffffffffffffffffffffffffffffffffffffffffff1916827bffffffffffffffffffffffffffffffffffffffffffffffffffffffff1916148061125c575061125b82611d4c565b5b9050919050565b61126c81611e2e565b6112ab576040517f08c379a00000000000000000000000000000000000000000000000000000000081526004016112a2906137bc565b60405180910390fd5b50565b600033905090565b816004600083815260200190815260200160002060006101000a81548173ffffffffffffffffffffffffffffffffffffffff021916908373ffffffffffffffffffffffffffffffffffffffff160217905550808273ffffffffffffffffffffffffffffffffffffffff166113298361094a565b73ffffffffffffffffffffffffffffffffffffffff167f8c5be1e5ebec7d5bd14f71427d1e84f3dd0314c0f7b2291e5b200ac8c7c3b92560405160405180910390a45050565b60008061137b8361094a565b90508073ffffffffffffffffffffffffffffffffffffffff168473ffffffffffffffffffffffffffffffffffffffff1614806113bd57506113bc81856110d1565b5b806113fb57508373ffffffffffffffffffffffffffffffffffffffff166113e384610525565b73ffffffffffffffffffffffffffffffffffffffff16145b91505092915050565b8273ffffffffffffffffffffffffffffffffffffffff166114248261094a565b73ffffffffffffffffffffffffffffffffffffffff161461147a576040517f08c379a000000000000000000000000000000000000000000000000000000000815260040161147190613b9e565b60405180910390fd5b600073ffffffffffffffffffffffffffffffffffffffff168273ffffffffffffffffffffffffffffffffffffffff1614156114ea576040517f08c379a00000000000000000000000000000000000000000000000000000000081526004016114e190613c30565b60405180910390fd5b6114f78383836001611e6f565b8273ffffffffffffffffffffffffffffffffffffffff166115178261094a565b73ffffffffffffffffffffffffffffffffffffffff161461156d576040517f08c379a000000000000000000000000000000000000000000000000000000000815260040161156490613b9e565b60405180910390fd5b6004600082815260200190815260200160002060006101000a81549073ffffffffffffffffffffffffffffffffffffffff02191690556001600360008573ffffffffffffffffffffffffffffffffffffffff1673ffffffffffffffffffffffffffffffffffffffff168152602001908152602001600020600082825403925050819055506001600360008473ffffffffffffffffffffffffffffffffffffffff1673ffffffffffffffffffffffffffffffffffffffff16815260200190815260200160002060008282540192505081905550816002600083815260200190815260200160002060006101000a81548173ffffffffffffffffffffffffffffffffffffffff021916908373ffffffffffffffffffffffffffffffffffffffff160217905550808273ffffffffffffffffffffffffffffffffffffffff168473ffffffffffffffffffffffffffffffffffffffff167fddf252ad1be2c89b69c2b068fc378daa952ba7f163c4a11628f55a4df523b3ef60405160405180910390a46116f98383836001611f95565b505050565b6117066112ae565b73ffffffffffffffffffffffffffffffffffffffff16611724610abb565b73ffffffffffffffffffffffffffffffffffffffff161461177a576040517f08c379a000000000000000000000000000000000000000000000000000000000815260040161177190613c9c565b60405180910390fd5b565b61178581611f9b565b61178e81611fee565b50565b6000612710905090565b60006117a7600a61204d565b60006117b3600a612063565b90506117bf8482612071565b6117c9818461208f565b8091505092915050565b6117db611791565b6bffffffffffffffffffffffff16816bffffffffffffffffffffffff161115611839576040517f08c379a000000000000000000000000000000000000000000000000000000000815260040161183090613d2e565b60405180910390fd5b600073ffffffffffffffffffffffffffffffffffffffff168273ffffffffffffffffffffffffffffffffffffffff1614156118a9576040517f08c379a00000000000000000000000000000000000000000000000000000000081526004016118a090613d9a565b60405180910390fd5b60405180604001604052808373ffffffffffffffffffffffffffffffffffffffff168152602001826bffffffffffffffffffffffff168152506008600085815260200190815260200160002060008201518160000160006101000a81548173ffffffffffffffffffffffffffffffffffffffff021916908373ffffffffffffffffffffffffffffffffffffffff16021790555060208201518160000160146101000a8154816bffffffffffffffffffffffff02191690836bffffffffffffffffffffffff160217905550905050505050565b60006002600083815260200190815260200160002060009054906101000a900473ffffffffffffffffffffffffffffffffffffffff169050919050565b6000600960009054906101000a900473ffffffffffffffffffffffffffffffffffffffff16905081600960006101000a81548173ffffffffffffffffffffffffffffffffffffffff021916908373ffffffffffffffffffffffffffffffffffffffff1602179055508173ffffffffffffffffffffffffffffffffffffffff168173ffffffffffffffffffffffffffffffffffffffff167f8be0079c531659141344cd1fd0a4f28419497f9722a3daafe3b4186f6b6457e060405160405180910390a35050565b8173ffffffffffffffffffffffffffffffffffffffff168373ffffffffffffffffffffffffffffffffffffffff161415611aed576040517f08c379a0000000000000000000000000000000000000000000000000000000008152600401611ae490613e06565b60405180910390fd5b80600560008573ffffffffffffffffffffffffffffffffffffffff1673ffffffffffffffffffffffffffffffffffffffff16815260200190815260200160002060008473ffffffffffffffffffffffffffffffffffffffff1673ffffffffffffffffffffffffffffffffffffffff16815260200190815260200160002060006101000a81548160ff0219169083151502179055508173ffffffffffffffffffffffffffffffffffffffff168373ffffffffffffffffffffffffffffffffffffffff167f17307eab39ab6107e8899845ad3d59bd9653f200f220920489ca2b5937696c3183604051611bde9190612d13565b60405180910390a3505050565b611c6c8363a9059cbb60e01b8484604051602401611c0a929190612fb6565b604051602081830303815290604052907bffffffffffffffffffffffffffffffffffffffffffffffffffffffff19166020820180517bffffffffffffffffffffffffffffffffffffffffffffffffffffffff8381831617835250505050612103565b505050565b611c7c848484611404565b611c88848484846121ca565b611cc7576040517f08c379a0000000000000000000000000000000000000000000000000000000008152600401611cbe90613e98565b60405180910390fd5b50505050565b606060405180602001604052806000815250905090565b6060611cef82611263565b6000611cf9611ccd565b90506000815111611d195760405180602001604052806000815250611d44565b80611d2384612352565b604051602001611d34929190613a76565b6040516020818303038152906040525b915050919050565b60007f80ac58cd000000000000000000000000000000000000000000000000000000007bffffffffffffffffffffffffffffffffffffffffffffffffffffffff1916827bffffffffffffffffffffffffffffffffffffffffffffffffffffffff19161480611e1757507f5b5e139f000000000000000000000000000000000000000000000000000000007bffffffffffffffffffffffffffffffffffffffffffffffffffffffff1916827bffffffffffffffffffffffffffffffffffffffffffffffffffffffff1916145b80611e275750611e268261242a565b5b9050919050565b60008073ffffffffffffffffffffffffffffffffffffffff16611e508361197b565b73ffffffffffffffffffffffffffffffffffffffff1614159050919050565b6001811115611f8f57600073ffffffffffffffffffffffffffffffffffffffff168473ffffffffffffffffffffffffffffffffffffffff1614611f035780600360008673ffffffffffffffffffffffffffffffffffffffff1673ffffffffffffffffffffffffffffffffffffffff1681526020019081526020016000206000828254611efb9190613eb8565b925050819055505b600073ffffffffffffffffffffffffffffffffffffffff168373ffffffffffffffffffffffffffffffffffffffff1614611f8e5780600360008573ffffffffffffffffffffffffffffffffffffffff1673ffffffffffffffffffffffffffffffffffffffff1681526020019081526020016000206000828254611f869190613eec565b925050819055505b5b50505050565b50505050565b611fa481612494565b6000600660008381526020019081526020016000208054611fc49061349f565b905014611feb57600660008281526020019081526020016000206000611fea9190612b7c565b5b50565b60086000828152602001908152602001600020600080820160006101000a81549073ffffffffffffffffffffffffffffffffffffffff02191690556000820160146101000a8154906bffffffffffffffffffffffff0219169055505050565b6001816000016000828254019250508190555050565b600081600001549050919050565b61208b8282604051806020016040528060008152506125e2565b5050565b61209882611e2e565b6120d7576040517f08c379a00000000000000000000000000000000000000000000000000000000081526004016120ce90613fb4565b60405180910390fd5b806006600084815260200190815260200160002090805190602001906120fe929190612bbc565b505050565b6000612165826040518060400160405280602081526020017f5361666545524332303a206c6f772d6c6576656c2063616c6c206661696c65648152508573ffffffffffffffffffffffffffffffffffffffff1661263d9092919063ffffffff16565b90506000815111156121c557808060200190518101906121859190613fe9565b6121c4576040517f08c379a00000000000000000000000000000000000000000000000000000000081526004016121bb90614088565b60405180910390fd5b5b505050565b60006121eb8473ffffffffffffffffffffffffffffffffffffffff16612655565b15612345578373ffffffffffffffffffffffffffffffffffffffff1663150b7a026122146112ae565b8786866040518563ffffffff1660e01b815260040161223694939291906140fd565b6020604051808303816000875af192505050801561227257506040513d601f19601f8201168201806040525081019061226f919061415e565b60015b6122f5573d80600081146122a2576040519150601f19603f3d011682016040523d82523d6000602084013e6122a7565b606091505b506000815114156122ed576040517f08c379a00000000000000000000000000000000000000000000000000000000081526004016122e490613e98565b60405180910390fd5b805181602001fd5b63150b7a0260e01b7bffffffffffffffffffffffffffffffffffffffffffffffffffffffff1916817bffffffffffffffffffffffffffffffffffffffffffffffffffffffff19161491505061234a565b600190505b949350505050565b60606000600161236184612678565b01905060008167ffffffffffffffff8111156123805761237f612fe9565b5b6040519080825280601f01601f1916602001820160405280156123b25781602001600182028036833780820191505090505b509050600082602001820190505b60011561241f578080600190039150507f3031323334353637383961626364656600000000000000000000000000000000600a86061a8153600a858161240957612408613710565b5b049450600085141561241a5761241f565b6123c0565b819350505050919050565b60007f01ffc9a7000000000000000000000000000000000000000000000000000000007bffffffffffffffffffffffffffffffffffffffffffffffffffffffff1916827bffffffffffffffffffffffffffffffffffffffffffffffffffffffff1916149050919050565b600061249f8261094a565b90506124af816000846001611e6f565b6124b88261094a565b90506004600083815260200190815260200160002060006101000a81549073ffffffffffffffffffffffffffffffffffffffff02191690556001600360008373ffffffffffffffffffffffffffffffffffffffff1673ffffffffffffffffffffffffffffffffffffffff168152602001908152602001600020600082825403925050819055506002600083815260200190815260200160002060006101000a81549073ffffffffffffffffffffffffffffffffffffffff021916905581600073ffffffffffffffffffffffffffffffffffffffff168273ffffffffffffffffffffffffffffffffffffffff167fddf252ad1be2c89b69c2b068fc378daa952ba7f163c4a11628f55a4df523b3ef60405160405180910390a46125de816000846001611f95565b5050565b6125ec83836127cb565b6125f960008484846121ca565b612638576040517f08c379a000000000000000000000000000000000000000000000000000000000815260040161262f90613e98565b60405180910390fd5b505050565b606061264c84846000856129e9565b90509392505050565b6000808273ffffffffffffffffffffffffffffffffffffffff163b119050919050565b600080600090507a184f03e93ff9f4daa797ed6e38ed64bf6a1f01000000000000000083106126d6577a184f03e93ff9f4daa797ed6e38ed64bf6a1f01000000000000000083816126cc576126cb613710565b5b0492506040810190505b6d04ee2d6d415b85acef81000000008310612713576d04ee2d6d415b85acef8100000000838161270957612708613710565b5b0492506020810190505b662386f26fc10000831061274257662386f26fc10000838161273857612737613710565b5b0492506010810190505b6305f5e100831061276b576305f5e100838161276157612760613710565b5b0492506008810190505b612710831061279057612710838161278657612785613710565b5b0492506004810190505b606483106127b357606483816127a9576127a8613710565b5b0492506002810190505b600a83106127c2576001810190505b80915050919050565b600073ffffffffffffffffffffffffffffffffffffffff168273ffffffffffffffffffffffffffffffffffffffff16141561283b576040517f08c379a0000000000000000000000000000000000000000000000000000000008152600401612832906141d7565b60405180910390fd5b61284481611e2e565b15612884576040517f08c379a000000000000000000000000000000000000000000000000000000000815260040161287b90614243565b60405180910390fd5b612892600083836001611e6f565b61289b81611e2e565b156128db576040517f08c379a00000000000000000000000000000000000000000000000000000000081526004016128d290614243565b60405180910390fd5b6001600360008473ffffffffffffffffffffffffffffffffffffffff1673ffffffffffffffffffffffffffffffffffffffff16815260200190815260200160002060008282540192505081905550816002600083815260200190815260200160002060006101000a81548173ffffffffffffffffffffffffffffffffffffffff021916908373ffffffffffffffffffffffffffffffffffffffff160217905550808273ffffffffffffffffffffffffffffffffffffffff16600073ffffffffffffffffffffffffffffffffffffffff167fddf252ad1be2c89b69c2b068fc378daa952ba7f163c4a11628f55a4df523b3ef60405160405180910390a46129e5600083836001611f95565b5050565b606082471015612a2e576040517f08c379a0000000000000000000000000000000000000000000000000000000008152600401612a25906142d5565b60405180910390fd5b6000808673ffffffffffffffffffffffffffffffffffffffff168587604051612a579190614331565b60006040518083038185875af1925050503d8060008114612a94576040519150601f19603f3d011682016040523d82523d6000602084013e612a99565b606091505b5091509150612aaa87838387612ab6565b92505050949350505050565b60608315612b1957600083511415612b1157612ad185612655565b612b10576040517f08c379a0000000000000000000000000000000000000000000000000000000008152600401612b0790614394565b60405180910390fd5b5b829050612b24565b612b238383612b2c565b5b949350505050565b600082511115612b3f5781518083602001fd5b806040517f08c379a0000000000000000000000000000000000000000000000000000000008152600401612b739190612dc7565b60405180910390fd5b508054612b889061349f565b6000825580601f10612b9a5750612bb9565b601f016020900490600052602060002090810190612bb89190612c42565b5b50565b828054612bc89061349f565b90600052602060002090601f016020900481019282612bea5760008555612c31565b82601f10612c0357805160ff1916838001178555612c31565b82800160010185558215612c31579182015b82811115612c30578251825591602001919060010190612c15565b5b509050612c3e9190612c42565b5090565b5b80821115612c5b576000816000905550600101612c43565b5090565b6000604051905090565b600080fd5b600080fd5b60007fffffffff0000000000000000000000000000000000000000000000000000000082169050919050565b612ca881612c73565b8114612cb357600080fd5b50565b600081359050612cc581612c9f565b92915050565b600060208284031215612ce157612ce0612c69565b5b6000612cef84828501612cb6565b91505092915050565b60008115159050919050565b612d0d81612cf8565b82525050565b6000602082019050612d286000830184612d04565b92915050565b600081519050919050565b600082825260208201905092915050565b60005b83811015612d68578082015181840152602081019050612d4d565b83811115612d77576000848401525b50505050565b6000601f19601f8301169050919050565b6000612d9982612d2e565b612da38185612d39565b9350612db3818560208601612d4a565b612dbc81612d7d565b840191505092915050565b60006020820190508181036000830152612de18184612d8e565b905092915050565b6000819050919050565b612dfc81612de9565b8114612e0757600080fd5b50565b600081359050612e1981612df3565b92915050565b600060208284031215612e3557612e34612c69565b5b6000612e4384828501612e0a565b91505092915050565b600073ffffffffffffffffffffffffffffffffffffffff82169050919050565b6000612e7782612e4c565b9050919050565b612e8781612e6c565b82525050565b6000602082019050612ea26000830184612e7e565b92915050565b612eb181612e6c565b8114612ebc57600080fd5b50565b600081359050612ece81612ea8565b92915050565b60008060408385031215612eeb57612eea612c69565b5b6000612ef985828601612ebf565b9250506020612f0a85828601612e0a565b9150509250929050565b600080600060608486031215612f2d57612f2c612c69565b5b6000612f3b86828701612ebf565b9350506020612f4c86828701612ebf565b9250506040612f5d86828701612e0a565b9150509250925092565b60008060408385031215612f7e57612f7d612c69565b5b6000612f8c85828601612e0a565b9250506020612f9d85828601612e0a565b9150509250929050565b612fb081612de9565b82525050565b6000604082019050612fcb6000830185612e7e565b612fd86020830184612fa7565b9392505050565b600080fd5b600080fd5b7f4e487b7100000000000000000000000000000000000000000000000000000000600052604160045260246000fd5b61302182612d7d565b810181811067ffffffffffffffff821117156130405761303f612fe9565b5b80604052505050565b6000613053612c5f565b905061305f8282613018565b919050565b600067ffffffffffffffff82111561307f5761307e612fe9565b5b61308882612d7d565b9050602081019050919050565b82818337600083830152505050565b60006130b76130b284613064565b613049565b9050828152602081018484840111156130d3576130d2612fe4565b5b6130de848285613095565b509392505050565b600082601f8301126130fb576130fa612fdf565b5b813561310b8482602086016130a4565b91505092915050565b60008060006060848603121561312d5761312c612c69565b5b600061313b86828701612ebf565b935050602084013567ffffffffffffffff81111561315c5761315b612c6e565b5b613168868287016130e6565b925050604061317986828701612ebf565b9150509250925092565b60006020820190506131986000830184612fa7565b92915050565b6000602082840312156131b4576131b3612c69565b5b60006131c284828501612ebf565b91505092915050565b60006bffffffffffffffffffffffff82169050919050565b6131ec816131cb565b82525050565b600060208201905061320760008301846131e3565b92915050565b61321681612cf8565b811461322157600080fd5b50565b6000813590506132338161320d565b92915050565b600080604083850312156132505761324f612c69565b5b600061325e85828601612ebf565b925050602061326f85828601613224565b9150509250929050565b613282816131cb565b811461328d57600080fd5b50565b60008135905061329f81613279565b92915050565b600080600080608085870312156132bf576132be612c69565b5b60006132cd87828801612ebf565b94505060206132de87828801612ebf565b93505060406132ef87828801612ebf565b925050606061330087828801613290565b91505092959194509250565b600067ffffffffffffffff82111561332757613326612fe9565b5b61333082612d7d565b9050602081019050919050565b600061335061334b8461330c565b613049565b90508281526020810184848401111561336c5761336b612fe4565b5b613377848285613095565b509392505050565b600082601f83011261339457613393612fdf565b5b81356133a484826020860161333d565b91505092915050565b600080600080608085870312156133c7576133c6612c69565b5b60006133d587828801612ebf565b94505060206133e687828801612ebf565b93505060406133f787828801612e0a565b925050606085013567ffffffffffffffff81111561341857613417612c6e565b5b6134248782880161337f565b91505092959194509250565b6000806040838503121561344757613446612c69565b5b600061345585828601612ebf565b925050602061346685828601612ebf565b9150509250929050565b7f4e487b7100000000000000000000000000000000000000000000000000000000600052602260045260246000fd5b600060028204905060018216806134b757607f821691505b602082108114156134cb576134ca613470565b5b50919050565b7f4552433732313a20617070726f76616c20746f2063757272656e74206f776e6560008201527f7200000000000000000000000000000000000000000000000000000000000000602082015250565b600061352d602183612d39565b9150613538826134d1565b604082019050919050565b6000602082019050818103600083015261355c81613520565b9050919050565b7f4552433732313a20617070726f76652063616c6c6572206973206e6f7420746f60008201527f6b656e206f776e6572206f7220617070726f76656420666f7220616c6c000000602082015250565b60006135bf603d83612d39565b91506135ca82613563565b604082019050919050565b600060208201905081810360008301526135ee816135b2565b9050919050565b7f4552433732313a2063616c6c6572206973206e6f7420746f6b656e206f776e6560008201527f72206f7220617070726f76656400000000000000000000000000000000000000602082015250565b6000613651602d83612d39565b915061365c826135f5565b604082019050919050565b6000602082019050818103600083015261368081613644565b9050919050565b7f4e487b7100000000000000000000000000000000000000000000000000000000600052601160045260246000fd5b60006136c182612de9565b91506136cc83612de9565b9250817fffffffffffffffffffffffffffffffffffffffffffffffffffffffffffffffff048311821515161561370557613704613687565b5b828202905092915050565b7f4e487b7100000000000000000000000000000000000000000000000000000000600052601260045260246000fd5b600061374a82612de9565b915061375583612de9565b92508261376557613764613710565b5b828204905092915050565b7f4552433732313a20696e76616c696420746f6b656e2049440000000000000000600082015250565b60006137a6601883612d39565b91506137b182613770565b602082019050919050565b600060208201905081810360008301526137d581613799565b9050919050565b7f4552433732313a2061646472657373207a65726f206973206e6f74206120766160008201527f6c6964206f776e65720000000000000000000000000000000000000000000000602082015250565b6000613838602983612d39565b9150613843826137dc565b604082019050919050565b600060208201905081810360008301526138678161382b565b9050919050565b7f4e6f7420656c696769626c6520746f20636c61696d2072657761726400000000600082015250565b60006138a4601c83612d39565b91506138af8261386e565b602082019050919050565b600060208201905081810360008301526138d381613897565b9050919050565b6000815190506138e981612df3565b92915050565b60006020828403121561390557613904612c69565b5b6000613913848285016138da565b91505092915050565b7f496e697469617465640000000000000000000000000000000000000000000000600082015250565b6000613952600983612d39565b915061395d8261391c565b602082019050919050565b6000602082019050818103600083015261398181613945565b9050919050565b6000613993826131cb565b915061399e836131cb565b9250816bffffffffffffffffffffffff04831182151516156139c3576139c2613687565b5b828202905092915050565b7f496e76616c696420496400000000000000000000000000000000000000000000600082015250565b6000613a04600a83612d39565b9150613a0f826139ce565b602082019050919050565b60006020820190508181036000830152613a33816139f7565b9050919050565b600081905092915050565b6000613a5082612d2e565b613a5a8185613a3a565b9350613a6a818560208601612d4a565b80840191505092915050565b6000613a828285613a45565b9150613a8e8284613a45565b91508190509392505050565b7f4f776e61626c653a206e6577206f776e657220697320746865207a65726f206160008201527f6464726573730000000000000000000000000000000000000000000000000000602082015250565b6000613af6602683612d39565b9150613b0182613a9a565b604082019050919050565b60006020820190508181036000830152613b2581613ae9565b9050919050565b7f4552433732313a207472616e736665722066726f6d20696e636f72726563742060008201527f6f776e6572000000000000000000000000000000000000000000000000000000602082015250565b6000613b88602583612d39565b9150613b9382613b2c565b604082019050919050565b60006020820190508181036000830152613bb781613b7b565b9050919050565b7f4552433732313a207472616e7366657220746f20746865207a65726f2061646460008201527f7265737300000000000000000000000000000000000000000000000000000000602082015250565b6000613c1a602483612d39565b9150613c2582613bbe565b604082019050919050565b60006020820190508181036000830152613c4981613c0d565b9050919050565b7f4f776e61626c653a2063616c6c6572206973206e6f7420746865206f776e6572600082015250565b6000613c86602083612d39565b9150613c9182613c50565b602082019050919050565b60006020820190508181036000830152613cb581613c79565b9050919050565b7f455243323938313a20726f79616c7479206665652077696c6c2065786365656460008201527f2073616c65507269636500000000000000000000000000000000000000000000602082015250565b6000613d18602a83612d39565b9150613d2382613cbc565b604082019050919050565b60006020820190508181036000830152613d4781613d0b565b9050919050565b7f455243323938313a20496e76616c696420706172616d65746572730000000000600082015250565b6000613d84601b83612d39565b9150613d8f82613d4e565b602082019050919050565b60006020820190508181036000830152613db381613d77565b9050919050565b7f4552433732313a20617070726f766520746f2063616c6c657200000000000000600082015250565b6000613df0601983612d39565b9150613dfb82613dba565b602082019050919050565b60006020820190508181036000830152613e1f81613de3565b9050919050565b7f4552433732313a207472616e7366657220746f206e6f6e20455243373231526560008201527f63656976657220696d706c656d656e7465720000000000000000000000000000602082015250565b6000613e82603283612d39565b9150613e8d82613e26565b604082019050919050565b60006020820190508181036000830152613eb181613e75565b9050919050565b6000613ec382612de9565b9150613ece83612de9565b925082821015613ee157613ee0613687565b5b828203905092915050565b6000613ef782612de9565b9150613f0283612de9565b9250827fffffffffffffffffffffffffffffffffffffffffffffffffffffffffffffffff03821115613f3757613f36613687565b5b828201905092915050565b7f45524337323155524953746f726167653a2055524920736574206f66206e6f6e60008201527f6578697374656e7420746f6b656e000000000000000000000000000000000000602082015250565b6000613f9e602e83612d39565b9150613fa982613f42565b604082019050919050565b60006020820190508181036000830152613fcd81613f91565b9050919050565b600081519050613fe38161320d565b92915050565b600060208284031215613fff57613ffe612c69565b5b600061400d84828501613fd4565b91505092915050565b7f5361666545524332303a204552433230206f7065726174696f6e20646964206e60008201527f6f74207375636365656400000000000000000000000000000000000000000000602082015250565b6000614072602a83612d39565b915061407d82614016565b604082019050919050565b600060208201905081810360008301526140a181614065565b9050919050565b600081519050919050565b600082825260208201905092915050565b60006140cf826140a8565b6140d981856140b3565b93506140e9818560208601612d4a565b6140f281612d7d565b840191505092915050565b60006080820190506141126000830187612e7e565b61411f6020830186612e7e565b61412c6040830185612fa7565b818103606083015261413e81846140c4565b905095945050505050565b60008151905061415881612c9f565b92915050565b60006020828403121561417457614173612c69565b5b600061418284828501614149565b91505092915050565b7f4552433732313a206d696e7420746f20746865207a65726f2061646472657373600082015250565b60006141c1602083612d39565b91506141cc8261418b565b602082019050919050565b600060208201905081810360008301526141f0816141b4565b9050919050565b7f4552433732313a20746f6b656e20616c7265616479206d696e74656400000000600082015250565b600061422d601c83612d39565b9150614238826141f7565b602082019050919050565b6000602082019050818103600083015261425c81614220565b9050919050565b7f416464726573733a20696e73756666696369656e742062616c616e636520666f60008201527f722063616c6c0000000000000000000000000000000000000000000000000000602082015250565b60006142bf602683612d39565b91506142ca82614263565b604082019050919050565b600060208201905081810360008301526142ee816142b2565b9050919050565b600081905092915050565b600061430b826140a8565b61431581856142f5565b9350614325818560208601612d4a565b80840191505092915050565b600061433d8284614300565b915081905092915050565b7f416464726573733a2063616c6c20746f206e6f6e2d636f6e7472616374000000600082015250565b600061437e601d83612d39565b915061438982614348565b602082019050919050565b600060208201905081810360008301526143ad81614371565b905091905056fea2646970667358221220f3337bdbcf3a5b232020949c6c57ba149062f0566fdf7e6bd5a013086154673d64736f6c634300080b0033",
  "linkReferences": {},
  "deployedLinkReferences": {}
}