{
  "_format": "hh-sol-artifact-1",
  "contractName": "NFT",
  "sourceName": "contracts/ERC721/NFT.sol",
  "abi": [
    {
      "inputs": [
        {
          "internalType": "address",
          "name": "_artist",
          "type": "address"
        },
        {
          "internalType": "address",
          "name": "_token",
          "type": "address"
        },
        {
          "internalType": "uint96",
          "name": "_royaltyPercentage",
          "type": "uint96"
        },
        {
          "internalType": "uint256",
          "name": "_tokenPrice",
          "type": "uint256"
        }
      ],
      "stateMutability": "nonpayable",
      "type": "constructor"
    },
    {
      "anonymous": false,
      "inputs": [
        {
          "indexed": true,
          "internalType": "address",
          "name": "owner",
          "type": "address"
        },
        {
          "indexed": true,
          "internalType": "address",
          "name": "approved",
          "type": "address"
        },
        {
          "indexed": true,
          "internalType": "uint256",
          "name": "tokenId",
          "type": "uint256"
        }
      ],
      "name": "Approval",
      "type": "event"
    },
    {
      "anonymous": false,
      "inputs": [
        {
          "indexed": true,
          "internalType": "address",
          "name": "owner",
          "type": "address"
        },
        {
          "indexed": true,
          "internalType": "address",
          "name": "operator",
          "type": "address"
        },
        {
          "indexed": false,
          "internalType": "bool",
          "name": "approved",
          "type": "bool"
        }
      ],
      "name": "ApprovalForAll",
      "type": "event"
    },
    {
      "anonymous": false,
      "inputs": [
        {
          "indexed": true,
          "internalType": "address",
          "name": "previousOwner",
          "type": "address"
        },
        {
          "indexed": true,
          "internalType": "address",
          "name": "newOwner",
          "type": "address"
        }
      ],
      "name": "OwnershipTransferred",
      "type": "event"
    },
    {
      "anonymous": false,
      "inputs": [
        {
          "indexed": true,
          "internalType": "address",
          "name": "from",
          "type": "address"
        },
        {
          "indexed": true,
          "internalType": "address",
          "name": "to",
          "type": "address"
        },
        {
          "indexed": true,
          "internalType": "uint256",
          "name": "tokenId",
          "type": "uint256"
        }
      ],
      "name": "Transfer",
      "type": "event"
    },
    {
      "inputs": [
        {
          "internalType": "address",
          "name": "to",
          "type": "address"
        },
        {
          "internalType": "uint256",
          "name": "tokenId",
          "type": "uint256"
        }
      ],
      "name": "approve",
      "outputs": [],
      "stateMutability": "nonpayable",
      "type": "function"
    },
    {
      "inputs": [
        {
          "internalType": "address",
          "name": "owner",
          "type": "address"
        }
      ],
      "name": "balanceOf",
      "outputs": [
        {
          "internalType": "uint256",
          "name": "",
          "type": "uint256"
        }
      ],
      "stateMutability": "view",
      "type": "function"
    },
    {
      "inputs": [
        {
          "internalType": "uint256",
          "name": "tokenId",
          "type": "uint256"
        }
      ],
      "name": "burn",
      "outputs": [],
      "stateMutability": "nonpayable",
      "type": "function"
    },
    {
      "inputs": [
        {
          "internalType": "uint256",
          "name": "tokenId",
          "type": "uint256"
        }
      ],
      "name": "getApproved",
      "outputs": [
        {
          "internalType": "address",
          "name": "",
          "type": "address"
        }
      ],
      "stateMutability": "view",
      "type": "function"
    },
    {
      "inputs": [
        {
          "internalType": "address",
          "name": "owner",
          "type": "address"
        },
        {
          "internalType": "address",
          "name": "operator",
          "type": "address"
        }
      ],
      "name": "isApprovedForAll",
      "outputs": [
        {
          "internalType": "bool",
          "name": "",
          "type": "bool"
        }
      ],
      "stateMutability": "view",
      "type": "function"
    },
    {
      "inputs": [],
      "name": "name",
      "outputs": [
        {
          "internalType": "string",
          "name": "",
          "type": "string"
        }
      ],
      "stateMutability": "view",
      "type": "function"
    },
    {
      "inputs": [],
      "name": "owner",
      "outputs": [
        {
          "internalType": "address",
          "name": "",
          "type": "address"
        }
      ],
      "stateMutability": "view",
      "type": "function"
    },
    {
      "inputs": [
        {
          "internalType": "uint256",
          "name": "tokenId",
          "type": "uint256"
        }
      ],
      "name": "ownerOf",
      "outputs": [
        {
          "internalType": "address",
          "name": "",
          "type": "address"
        }
      ],
      "stateMutability": "view",
      "type": "function"
    },
    {
      "inputs": [
        {
          "internalType": "uint256",
          "name": "_tokenId",
          "type": "uint256"
        },
        {
          "internalType": "uint256",
          "name": "_salePrice",
          "type": "uint256"
        }
      ],
      "name": "royaltyInfo",
      "outputs": [
        {
          "internalType": "address",
          "name": "",
          "type": "address"
        },
        {
          "internalType": "uint256",
          "name": "",
          "type": "uint256"
        }
      ],
      "stateMutability": "view",
      "type": "function"
    },
    {
      "inputs": [
        {
          "internalType": "address",
          "name": "to",
          "type": "address"
        },
        {
          "internalType": "string",
          "name": "uri",
          "type": "string"
        }
      ],
      "name": "safeMint",
      "outputs": [],
      "stateMutability": "nonpayable",
      "type": "function"
    },
    {
      "inputs": [
        {
          "internalType": "address",
          "name": "from",
          "type": "address"
        },
        {
          "internalType": "address",
          "name": "to",
          "type": "address"
        },
        {
          "internalType": "uint256",
          "name": "tokenId",
          "type": "uint256"
        }
      ],
      "name": "safeTransferFrom",
      "outputs": [],
      "stateMutability": "nonpayable",
      "type": "function"
    },
    {
      "inputs": [
        {
          "internalType": "address",
          "name": "from",
          "type": "address"
        },
        {
          "internalType": "address",
          "name": "to",
          "type": "address"
        },
        {
          "internalType": "uint256",
          "name": "tokenId",
          "type": "uint256"
        },
        {
          "internalType": "bytes",
          "name": "data",
          "type": "bytes"
        }
      ],
      "name": "safeTransferFrom",
      "outputs": [],
      "stateMutability": "nonpayable",
      "type": "function"
    },
    {
      "inputs": [
        {
          "internalType": "address",
          "name": "operator",
          "type": "address"
        },
        {
          "internalType": "bool",
          "name": "approved",
          "type": "bool"
        }
      ],
      "name": "setApprovalForAll",
      "outputs": [],
      "stateMutability": "nonpayable",
      "type": "function"
    },
    {
      "inputs": [
        {
          "internalType": "bytes4",
          "name": "interfaceId",
          "type": "bytes4"
        }
      ],
      "name": "supportsInterface",
      "outputs": [
        {
          "internalType": "bool",
          "name": "",
          "type": "bool"
        }
      ],
      "stateMutability": "view",
      "type": "function"
    },
    {
      "inputs": [],
      "name": "symbol",
      "outputs": [
        {
          "internalType": "string",
          "name": "",
          "type": "string"
        }
      ],
      "stateMutability": "view",
      "type": "function"
    },
    {
      "inputs": [],
      "name": "tokenPrice",
      "outputs": [
        {
          "internalType": "uint256",
          "name": "",
          "type": "uint256"
        }
      ],
      "stateMutability": "view",
      "type": "function"
    },
    {
      "inputs": [
        {
          "internalType": "uint256",
          "name": "tokenId",
          "type": "uint256"
        }
      ],
      "name": "tokenURI",
      "outputs": [
        {
          "internalType": "string",
          "name": "",
          "type": "string"
        }
      ],
      "stateMutability": "view",
      "type": "function"
    },
    {
      "inputs": [
        {
          "internalType": "address",
          "name": "from",
          "type": "address"
        },
        {
          "internalType": "address",
          "name": "to",
          "type": "address"
        },
        {
          "internalType": "uint256",
          "name": "tokenId",
          "type": "uint256"
        }
      ],
      "name": "transferFrom",
      "outputs": [],
      "stateMutability": "nonpayable",
      "type": "function"
    },
    {
      "inputs": [
        {
          "internalType": "address",
          "name": "newOwner",
          "type": "address"
        }
      ],
      "name": "transferOwnership",
      "outputs": [],
      "stateMutability": "nonpayable",
      "type": "function"
    }
  ],
  "bytecode": "0x60806040523480156200001157600080fd5b50604051620023b4380380620023b483398101604081905262000034916200038c565b60405180604001604052806009815260200168546f6b656e4e616d6560b81b815250604051806040016040528060038152602001622a25a760e91b815250816000908162000083919062000491565b50600162000092828262000491565b505050620000af620000a96200013b60201b60201c565b6200013f565b600c546001600160a01b031615620000fa5760405162461bcd60e51b8152602060048201526009602482015268125b9a5d1a585d195960ba1b60448201526064015b60405180910390fd5b600c80546001600160a01b0319166001600160a01b038516179055600b81905562000126848362000191565b620001318462000292565b505050506200055d565b3390565b600780546001600160a01b038381166001600160a01b0319831681179093556040519116919082907f8be0079c531659141344cd1fd0a4f28419497f9722a3daafe3b4186f6b6457e090600090a35050565b6127106001600160601b0382161115620002015760405162461bcd60e51b815260206004820152602a60248201527f455243323938313a20726f79616c7479206665652077696c6c206578636565646044820152692073616c65507269636560b01b6064820152608401620000f1565b6001600160a01b038216620002595760405162461bcd60e51b815260206004820152601960248201527f455243323938313a20696e76616c6964207265636569766572000000000000006044820152606401620000f1565b604080518082019091526001600160a01b039092168083526001600160601b039091166020909201829052600160a01b90910217600855565b6200029c62000311565b6001600160a01b038116620003035760405162461bcd60e51b815260206004820152602660248201527f4f776e61626c653a206e6577206f776e657220697320746865207a65726f206160448201526564647265737360d01b6064820152608401620000f1565b6200030e816200013f565b50565b6007546001600160a01b031633146200036d5760405162461bcd60e51b815260206004820181905260248201527f4f776e61626c653a2063616c6c6572206973206e6f7420746865206f776e65726044820152606401620000f1565b565b80516001600160a01b03811681146200038757600080fd5b919050565b60008060008060808587031215620003a357600080fd5b620003ae856200036f565b9350620003be602086016200036f565b60408601519093506001600160601b0381168114620003dc57600080fd5b6060959095015193969295505050565b634e487b7160e01b600052604160045260246000fd5b600181811c908216806200041757607f821691505b6020821081036200043857634e487b7160e01b600052602260045260246000fd5b50919050565b601f8211156200048c57600081815260208120601f850160051c81016020861015620004675750805b601f850160051c820191505b81811015620004885782815560010162000473565b5050505b505050565b81516001600160401b03811115620004ad57620004ad620003ec565b620004c581620004be845462000402565b846200043e565b602080601f831160018114620004fd5760008415620004e45750858301515b600019600386901b1c1916600185901b17855562000488565b600085815260208120601f198616915b828110156200052e578886015182559484019460019091019084016200050d565b50858210156200054d5787850151600019600388901b60f8161c191681555b5050505050600190811b01905550565b611e47806200056d6000396000f3fe608060405234801561001057600080fd5b50600436106101515760003560e01c806370a08231116100cd578063b88d4fde11610081578063d204c45e11610066578063d204c45e146102cd578063e985e9c5146102e0578063f2fde38b1461031c57600080fd5b8063b88d4fde146102a7578063c87b56dd146102ba57600080fd5b80638da5cb5b116100b25780638da5cb5b1461027b57806395d89b411461028c578063a22cb4651461029457600080fd5b806370a08231146102515780637ff9b5961461027257600080fd5b806323b872dd1161012457806342842e0e1161010957806342842e0e1461021857806342966c681461022b5780636352211e1461023e57600080fd5b806323b872dd146101d35780632a55205a146101e657600080fd5b806301ffc9a71461015657806306fdde031461017e578063081812fc14610193578063095ea7b3146101be575b600080fd5b61016961016436600461189b565b61032f565b60405190151581526020015b60405180910390f35b610186610340565b6040516101759190611908565b6101a66101a136600461191b565b6103d2565b6040516001600160a01b039091168152602001610175565b6101d16101cc366004611950565b6103f9565b005b6101d16101e136600461197a565b61054d565b6101f96101f43660046119b6565b6105c5565b604080516001600160a01b039093168352602083019190915201610175565b6101d161022636600461197a565b610680565b6101d161023936600461191b565b61069b565b6101a661024c36600461191b565b610712565b61026461025f3660046119d8565b610777565b604051908152602001610175565b610264600b5481565b6007546001600160a01b03166101a6565b610186610811565b6101d16102a23660046119f3565b610820565b6101d16102b5366004611abb565b61082f565b6101866102c836600461191b565b6108ad565b6101d16102db366004611b37565b6108b8565b6101696102ee366004611b99565b6001600160a01b03918216600090815260056020908152604080832093909416825291909152205460ff1690565b6101d161032a3660046119d8565b6108ef565b600061033a8261097c565b92915050565b60606000805461034f90611bcc565b80601f016020809104026020016040519081016040528092919081815260200182805461037b90611bcc565b80156103c85780601f1061039d576101008083540402835291602001916103c8565b820191906000526020600020905b8154815290600101906020018083116103ab57829003601f168201915b5050505050905090565b60006103dd826109ba565b506000908152600460205260409020546001600160a01b031690565b600061040482610712565b9050806001600160a01b0316836001600160a01b0316036104925760405162461bcd60e51b815260206004820152602160248201527f4552433732313a20617070726f76616c20746f2063757272656e74206f776e6560448201527f720000000000000000000000000000000000000000000000000000000000000060648201526084015b60405180910390fd5b336001600160a01b03821614806104cc57506001600160a01b038116600090815260056020908152604080832033845290915290205460ff165b61053e5760405162461bcd60e51b815260206004820152603d60248201527f4552433732313a20617070726f76652063616c6c6572206973206e6f7420746f60448201527f6b656e206f776e6572206f7220617070726f76656420666f7220616c6c0000006064820152608401610489565b6105488383610a1e565b505050565b610558335b82610a8c565b6105ba5760405162461bcd60e51b815260206004820152602d60248201527f4552433732313a2063616c6c6572206973206e6f7420746f6b656e206f776e6560448201526c1c881bdc88185c1c1c9bdd9959609a1b6064820152608401610489565b610548838383610b0b565b60008281526009602090815260408083208151808301909252546001600160a01b038116808352600160a01b9091046bffffffffffffffffffffffff169282019290925282916106445750604080518082019091526008546001600160a01b0381168252600160a01b90046bffffffffffffffffffffffff1660208201525b602081015160009061271090610668906bffffffffffffffffffffffff1687611c1c565b6106729190611c33565b915196919550909350505050565b6105488383836040518060200160405280600081525061082f565b6106a433610552565b6107065760405162461bcd60e51b815260206004820152602d60248201527f4552433732313a2063616c6c6572206973206e6f7420746f6b656e206f776e6560448201526c1c881bdc88185c1c1c9bdd9959609a1b6064820152608401610489565b61070f81610d11565b50565b6000818152600260205260408120546001600160a01b03168061033a5760405162461bcd60e51b815260206004820152601860248201527f4552433732313a20696e76616c696420746f6b656e20494400000000000000006044820152606401610489565b60006001600160a01b0382166107f55760405162461bcd60e51b815260206004820152602960248201527f4552433732313a2061646472657373207a65726f206973206e6f74206120766160448201527f6c6964206f776e657200000000000000000000000000000000000000000000006064820152608401610489565b506001600160a01b031660009081526003602052604090205490565b60606001805461034f90611bcc565b61082b338383610d1a565b5050565b6108393383610a8c565b61089b5760405162461bcd60e51b815260206004820152602d60248201527f4552433732313a2063616c6c6572206973206e6f7420746f6b656e206f776e6560448201526c1c881bdc88185c1c1c9bdd9959609a1b6064820152608401610489565b6108a784848484610de8565b50505050565b606061033a82610e66565b6108c0610f6e565b6108ce600a80546001019055565b60006108d9600a5490565b90506108e58382610fca565b6105488183610fe4565b6108f7610f6e565b6001600160a01b0381166109735760405162461bcd60e51b815260206004820152602660248201527f4f776e61626c653a206e6577206f776e657220697320746865207a65726f206160448201527f64647265737300000000000000000000000000000000000000000000000000006064820152608401610489565b61070f81611086565b60006001600160e01b031982167f2a55205a00000000000000000000000000000000000000000000000000000000148061033a575061033a826110d8565b6000818152600260205260409020546001600160a01b031661070f5760405162461bcd60e51b815260206004820152601860248201527f4552433732313a20696e76616c696420746f6b656e20494400000000000000006044820152606401610489565b600081815260046020526040902080546001600160a01b0319166001600160a01b0384169081179091558190610a5382610712565b6001600160a01b03167f8c5be1e5ebec7d5bd14f71427d1e84f3dd0314c0f7b2291e5b200ac8c7c3b92560405160405180910390a45050565b600080610a9883610712565b9050806001600160a01b0316846001600160a01b03161480610adf57506001600160a01b0380821660009081526005602090815260408083209388168352929052205460ff165b80610b035750836001600160a01b0316610af8846103d2565b6001600160a01b0316145b949350505050565b826001600160a01b0316610b1e82610712565b6001600160a01b031614610b825760405162461bcd60e51b815260206004820152602560248201527f4552433732313a207472616e736665722066726f6d20696e636f72726563742060448201526437bbb732b960d91b6064820152608401610489565b6001600160a01b038216610bfd5760405162461bcd60e51b8152602060048201526024808201527f4552433732313a207472616e7366657220746f20746865207a65726f2061646460448201527f72657373000000000000000000000000000000000000000000000000000000006064820152608401610489565b610c0a8383836001611173565b826001600160a01b0316610c1d82610712565b6001600160a01b031614610c815760405162461bcd60e51b815260206004820152602560248201527f4552433732313a207472616e736665722066726f6d20696e636f72726563742060448201526437bbb732b960d91b6064820152608401610489565b600081815260046020908152604080832080546001600160a01b03199081169091556001600160a01b0387811680865260038552838620805460001901905590871680865283862080546001019055868652600290945282852080549092168417909155905184937fddf252ad1be2c89b69c2b068fc378daa952ba7f163c4a11628f55a4df523b3ef91a4505050565b61070f816111fb565b816001600160a01b0316836001600160a01b031603610d7b5760405162461bcd60e51b815260206004820152601960248201527f4552433732313a20617070726f766520746f2063616c6c6572000000000000006044820152606401610489565b6001600160a01b03838116600081815260056020908152604080832094871680845294825291829020805460ff191686151590811790915591519182527f17307eab39ab6107e8899845ad3d59bd9653f200f220920489ca2b5937696c31910160405180910390a3505050565b610df3848484610b0b565b610dff8484848461123b565b6108a75760405162461bcd60e51b815260206004820152603260248201527f4552433732313a207472616e7366657220746f206e6f6e20455243373231526560448201527131b2b4bb32b91034b6b83632b6b2b73a32b960711b6064820152608401610489565b6060610e71826109ba565b60008281526006602052604081208054610e8a90611bcc565b80601f0160208091040260200160405190810160405280929190818152602001828054610eb690611bcc565b8015610f035780601f10610ed857610100808354040283529160200191610f03565b820191906000526020600020905b815481529060010190602001808311610ee657829003601f168201915b505050505090506000610f2160408051602081019091526000815290565b90508051600003610f33575092915050565b815115610f65578082604051602001610f4d929190611c55565b60405160208183030381529060405292505050919050565b610b0384611387565b6007546001600160a01b03163314610fc85760405162461bcd60e51b815260206004820181905260248201527f4f776e61626c653a2063616c6c6572206973206e6f7420746865206f776e65726044820152606401610489565b565b61082b8282604051806020016040528060008152506113fb565b6000828152600260205260409020546001600160a01b031661106e5760405162461bcd60e51b815260206004820152602e60248201527f45524337323155524953746f726167653a2055524920736574206f66206e6f6e60448201527f6578697374656e7420746f6b656e0000000000000000000000000000000000006064820152608401610489565b60008281526006602052604090206105488282611cd2565b600780546001600160a01b038381166001600160a01b0319831681179093556040519116919082907f8be0079c531659141344cd1fd0a4f28419497f9722a3daafe3b4186f6b6457e090600090a35050565b60006001600160e01b031982167f80ac58cd00000000000000000000000000000000000000000000000000000000148061113b57506001600160e01b031982167f5b5e139f00000000000000000000000000000000000000000000000000000000145b8061033a57507f01ffc9a7000000000000000000000000000000000000000000000000000000006001600160e01b031983161461033a565b60018111156108a7576001600160a01b038416156111b9576001600160a01b038416600090815260036020526040812080548392906111b3908490611d92565b90915550505b6001600160a01b038316156108a7576001600160a01b038316600090815260036020526040812080548392906111f0908490611da5565b909155505050505050565b61120481611479565b6000818152600660205260409020805461121d90611bcc565b15905061070f57600081815260066020526040812061070f91611837565b60006001600160a01b0384163b1561137c57604051630a85bd0160e11b81526001600160a01b0385169063150b7a029061127f903390899088908890600401611db8565b6020604051808303816000875af19250505080156112ba575060408051601f3d908101601f191682019092526112b791810190611df4565b60015b611362573d8080156112e8576040519150601f19603f3d011682016040523d82523d6000602084013e6112ed565b606091505b50805160000361135a5760405162461bcd60e51b815260206004820152603260248201527f4552433732313a207472616e7366657220746f206e6f6e20455243373231526560448201527131b2b4bb32b91034b6b83632b6b2b73a32b960711b6064820152608401610489565b805181602001fd5b6001600160e01b031916630a85bd0160e11b149050610b03565b506001949350505050565b6060611392826109ba565b60006113a960408051602081019091526000815290565b905060008151116113c957604051806020016040528060008152506113f4565b806113d38461151c565b6040516020016113e4929190611c55565b6040516020818303038152906040525b9392505050565b61140583836115bc565b611412600084848461123b565b6105485760405162461bcd60e51b815260206004820152603260248201527f4552433732313a207472616e7366657220746f206e6f6e20455243373231526560448201527131b2b4bb32b91034b6b83632b6b2b73a32b960711b6064820152608401610489565b600061148482610712565b9050611494816000846001611173565b61149d82610712565b600083815260046020908152604080832080546001600160a01b03199081169091556001600160a01b0385168085526003845282852080546000190190558785526002909352818420805490911690555192935084927fddf252ad1be2c89b69c2b068fc378daa952ba7f163c4a11628f55a4df523b3ef908390a45050565b6060600061152983611755565b600101905060008167ffffffffffffffff81111561154957611549611a2f565b6040519080825280601f01601f191660200182016040528015611573576020820181803683370190505b5090508181016020015b600019017f3031323334353637383961626364656600000000000000000000000000000000600a86061a8153600a850494508461157d57509392505050565b6001600160a01b0382166116125760405162461bcd60e51b815260206004820181905260248201527f4552433732313a206d696e7420746f20746865207a65726f20616464726573736044820152606401610489565b6000818152600260205260409020546001600160a01b0316156116775760405162461bcd60e51b815260206004820152601c60248201527f4552433732313a20746f6b656e20616c7265616479206d696e746564000000006044820152606401610489565b611685600083836001611173565b6000818152600260205260409020546001600160a01b0316156116ea5760405162461bcd60e51b815260206004820152601c60248201527f4552433732313a20746f6b656e20616c7265616479206d696e746564000000006044820152606401610489565b6001600160a01b038216600081815260036020908152604080832080546001019055848352600290915280822080546001600160a01b0319168417905551839291907fddf252ad1be2c89b69c2b068fc378daa952ba7f163c4a11628f55a4df523b3ef908290a45050565b6000807a184f03e93ff9f4daa797ed6e38ed64bf6a1f010000000000000000831061179e577a184f03e93ff9f4daa797ed6e38ed64bf6a1f010000000000000000830492506040015b6d04ee2d6d415b85acef810000000083106117ca576d04ee2d6d415b85acef8100000000830492506020015b662386f26fc1000083106117e857662386f26fc10000830492506010015b6305f5e1008310611800576305f5e100830492506008015b612710831061181457612710830492506004015b60648310611826576064830492506002015b600a831061033a5760010192915050565b50805461184390611bcc565b6000825580601f10611853575050565b601f01602090049060005260206000209081019061070f91905b80821115611881576000815560010161186d565b5090565b6001600160e01b03198116811461070f57600080fd5b6000602082840312156118ad57600080fd5b81356113f481611885565b60005b838110156118d35781810151838201526020016118bb565b50506000910152565b600081518084526118f48160208601602086016118b8565b601f01601f19169290920160200192915050565b6020815260006113f460208301846118dc565b60006020828403121561192d57600080fd5b5035919050565b80356001600160a01b038116811461194b57600080fd5b919050565b6000806040838503121561196357600080fd5b61196c83611934565b946020939093013593505050565b60008060006060848603121561198f57600080fd5b61199884611934565b92506119a660208501611934565b9150604084013590509250925092565b600080604083850312156119c957600080fd5b50508035926020909101359150565b6000602082840312156119ea57600080fd5b6113f482611934565b60008060408385031215611a0657600080fd5b611a0f83611934565b915060208301358015158114611a2457600080fd5b809150509250929050565b634e487b7160e01b600052604160045260246000fd5b600067ffffffffffffffff80841115611a6057611a60611a2f565b604051601f8501601f19908116603f01168101908282118183101715611a8857611a88611a2f565b81604052809350858152868686011115611aa157600080fd5b858560208301376000602087830101525050509392505050565b60008060008060808587031215611ad157600080fd5b611ada85611934565b9350611ae860208601611934565b925060408501359150606085013567ffffffffffffffff811115611b0b57600080fd5b8501601f81018713611b1c57600080fd5b611b2b87823560208401611a45565b91505092959194509250565b60008060408385031215611b4a57600080fd5b611b5383611934565b9150602083013567ffffffffffffffff811115611b6f57600080fd5b8301601f81018513611b8057600080fd5b611b8f85823560208401611a45565b9150509250929050565b60008060408385031215611bac57600080fd5b611bb583611934565b9150611bc360208401611934565b90509250929050565b600181811c90821680611be057607f821691505b602082108103611c0057634e487b7160e01b600052602260045260246000fd5b50919050565b634e487b7160e01b600052601160045260246000fd5b808202811582820484141761033a5761033a611c06565b600082611c5057634e487b7160e01b600052601260045260246000fd5b500490565b60008351611c678184602088016118b8565b835190830190611c7b8183602088016118b8565b01949350505050565b601f82111561054857600081815260208120601f850160051c81016020861015611cab5750805b601f850160051c820191505b81811015611cca57828155600101611cb7565b505050505050565b815167ffffffffffffffff811115611cec57611cec611a2f565b611d0081611cfa8454611bcc565b84611c84565b602080601f831160018114611d355760008415611d1d5750858301515b600019600386901b1c1916600185901b178555611cca565b600085815260208120601f198616915b82811015611d6457888601518255948401946001909101908401611d45565b5085821015611d825787850151600019600388901b60f8161c191681555b5050505050600190811b01905550565b8181038181111561033a5761033a611c06565b8082018082111561033a5761033a611c06565b60006001600160a01b03808716835280861660208401525083604083015260806060830152611dea60808301846118dc565b9695505050505050565b600060208284031215611e0657600080fd5b81516113f48161188556fea2646970667358221220305a679bc01a107e79c5c3f35d2edebd45e83503e931e8709e3b50aa872d3def64736f6c63430008110033",
  "linkReferences": {},
  "deployedLinkReferences": {}
}