{
  "_format": "hh-sol-artifact-1",
  "contractName": "NFT",
  "sourceName": "contracts/ERC721/NFT.sol",
  "abi": [
    {
      "inputs": [],
      "stateMutability": "nonpayable",
      "type": "constructor"
    },
    {
      "anonymous": false,
      "inputs": [
        {
          "indexed": true,
          "internalType": "address",
          "name": "owner",
          "type": "address"
        },
        {
          "indexed": true,
          "internalType": "address",
          "name": "approved",
          "type": "address"
        },
        {
          "indexed": true,
          "internalType": "uint256",
          "name": "tokenId",
          "type": "uint256"
        }
      ],
      "name": "Approval",
      "type": "event"
    },
    {
      "anonymous": false,
      "inputs": [
        {
          "indexed": true,
          "internalType": "address",
          "name": "owner",
          "type": "address"
        },
        {
          "indexed": true,
          "internalType": "address",
          "name": "operator",
          "type": "address"
        },
        {
          "indexed": false,
          "internalType": "bool",
          "name": "approved",
          "type": "bool"
        }
      ],
      "name": "ApprovalForAll",
      "type": "event"
    },
    {
      "anonymous": false,
      "inputs": [
        {
          "indexed": true,
          "internalType": "address",
          "name": "previousOwner",
          "type": "address"
        },
        {
          "indexed": true,
          "internalType": "address",
          "name": "newOwner",
          "type": "address"
        }
      ],
      "name": "OwnershipTransferred",
      "type": "event"
    },
    {
      "anonymous": false,
      "inputs": [
        {
          "indexed": true,
          "internalType": "address",
          "name": "from",
          "type": "address"
        },
        {
          "indexed": true,
          "internalType": "address",
          "name": "to",
          "type": "address"
        },
        {
          "indexed": true,
          "internalType": "uint256",
          "name": "tokenId",
          "type": "uint256"
        }
      ],
      "name": "Transfer",
      "type": "event"
    },
    {
      "inputs": [
        {
          "internalType": "address",
          "name": "to",
          "type": "address"
        },
        {
          "internalType": "uint256",
          "name": "tokenId",
          "type": "uint256"
        }
      ],
      "name": "approve",
      "outputs": [],
      "stateMutability": "nonpayable",
      "type": "function"
    },
    {
      "inputs": [],
      "name": "artist",
      "outputs": [
        {
          "internalType": "address",
          "name": "",
          "type": "address"
        }
      ],
      "stateMutability": "view",
      "type": "function"
    },
    {
      "inputs": [
        {
          "internalType": "address",
          "name": "owner",
          "type": "address"
        }
      ],
      "name": "balanceOf",
      "outputs": [
        {
          "internalType": "uint256",
          "name": "",
          "type": "uint256"
        }
      ],
      "stateMutability": "view",
      "type": "function"
    },
    {
      "inputs": [
        {
          "internalType": "uint256",
          "name": "tokenId",
          "type": "uint256"
        }
      ],
      "name": "burn",
      "outputs": [],
      "stateMutability": "nonpayable",
      "type": "function"
    },
    {
      "inputs": [
        {
          "internalType": "uint256",
          "name": "tokenId",
          "type": "uint256"
        }
      ],
      "name": "getApproved",
      "outputs": [
        {
          "internalType": "address",
          "name": "",
          "type": "address"
        }
      ],
      "stateMutability": "view",
      "type": "function"
    },
    {
      "inputs": [
        {
          "internalType": "address",
          "name": "_artist",
          "type": "address"
        },
        {
          "internalType": "address",
          "name": "_token",
          "type": "address"
        },
        {
          "internalType": "address",
          "name": "_escrowAddress",
          "type": "address"
        },
        {
          "internalType": "uint96",
          "name": "_royaltyPercentage",
          "type": "uint96"
        },
        {
          "internalType": "uint256",
          "name": "_tokenPrice",
          "type": "uint256"
        }
      ],
      "name": "init",
      "outputs": [],
      "stateMutability": "nonpayable",
      "type": "function"
    },
    {
      "inputs": [
        {
          "internalType": "address",
          "name": "owner",
          "type": "address"
        },
        {
          "internalType": "address",
          "name": "operator",
          "type": "address"
        }
      ],
      "name": "isApprovedForAll",
      "outputs": [
        {
          "internalType": "bool",
          "name": "",
          "type": "bool"
        }
      ],
      "stateMutability": "view",
      "type": "function"
    },
    {
      "inputs": [
        {
          "internalType": "address",
          "name": "recipient",
          "type": "address"
        },
        {
          "internalType": "string",
          "name": "_tokenURI",
          "type": "string"
        }
      ],
      "name": "mintNFTWithRoyalty",
      "outputs": [
        {
          "internalType": "uint256",
          "name": "",
          "type": "uint256"
        }
      ],
      "stateMutability": "nonpayable",
      "type": "function"
    },
    {
      "inputs": [],
      "name": "name",
      "outputs": [
        {
          "internalType": "string",
          "name": "",
          "type": "string"
        }
      ],
      "stateMutability": "view",
      "type": "function"
    },
    {
      "inputs": [],
      "name": "owner",
      "outputs": [
        {
          "internalType": "address",
          "name": "",
          "type": "address"
        }
      ],
      "stateMutability": "view",
      "type": "function"
    },
    {
      "inputs": [
        {
          "internalType": "uint256",
          "name": "tokenId",
          "type": "uint256"
        }
      ],
      "name": "ownerOf",
      "outputs": [
        {
          "internalType": "address",
          "name": "",
          "type": "address"
        }
      ],
      "stateMutability": "view",
      "type": "function"
    },
    {
      "inputs": [],
      "name": "renounceOwnership",
      "outputs": [],
      "stateMutability": "nonpayable",
      "type": "function"
    },
    {
      "inputs": [
        {
          "internalType": "uint256",
          "name": "_tokenId",
          "type": "uint256"
        },
        {
          "internalType": "uint256",
          "name": "_salePrice",
          "type": "uint256"
        }
      ],
      "name": "royaltyInfo",
      "outputs": [
        {
          "internalType": "address",
          "name": "",
          "type": "address"
        },
        {
          "internalType": "uint256",
          "name": "",
          "type": "uint256"
        }
      ],
      "stateMutability": "view",
      "type": "function"
    },
    {
      "inputs": [],
      "name": "royaltyPercentage",
      "outputs": [
        {
          "internalType": "uint96",
          "name": "",
          "type": "uint96"
        }
      ],
      "stateMutability": "view",
      "type": "function"
    },
    {
      "inputs": [
        {
          "internalType": "address",
          "name": "to",
          "type": "address"
        },
        {
          "internalType": "uint256",
          "name": "tokenId",
          "type": "uint256"
        },
        {
          "internalType": "string",
          "name": "uri",
          "type": "string"
        }
      ],
      "name": "safeMint",
      "outputs": [],
      "stateMutability": "nonpayable",
      "type": "function"
    },
    {
      "inputs": [
        {
          "internalType": "address",
          "name": "from",
          "type": "address"
        },
        {
          "internalType": "address",
          "name": "to",
          "type": "address"
        },
        {
          "internalType": "uint256",
          "name": "tokenId",
          "type": "uint256"
        }
      ],
      "name": "safeTransferFrom",
      "outputs": [],
      "stateMutability": "nonpayable",
      "type": "function"
    },
    {
      "inputs": [
        {
          "internalType": "address",
          "name": "from",
          "type": "address"
        },
        {
          "internalType": "address",
          "name": "to",
          "type": "address"
        },
        {
          "internalType": "uint256",
          "name": "tokenId",
          "type": "uint256"
        },
        {
          "internalType": "bytes",
          "name": "data",
          "type": "bytes"
        }
      ],
      "name": "safeTransferFrom",
      "outputs": [],
      "stateMutability": "nonpayable",
      "type": "function"
    },
    {
      "inputs": [
        {
          "internalType": "address",
          "name": "operator",
          "type": "address"
        },
        {
          "internalType": "bool",
          "name": "approved",
          "type": "bool"
        }
      ],
      "name": "setApprovalForAll",
      "outputs": [],
      "stateMutability": "nonpayable",
      "type": "function"
    },
    {
      "inputs": [
        {
          "internalType": "bytes4",
          "name": "interfaceId",
          "type": "bytes4"
        }
      ],
      "name": "supportsInterface",
      "outputs": [
        {
          "internalType": "bool",
          "name": "",
          "type": "bool"
        }
      ],
      "stateMutability": "view",
      "type": "function"
    },
    {
      "inputs": [],
      "name": "symbol",
      "outputs": [
        {
          "internalType": "string",
          "name": "",
          "type": "string"
        }
      ],
      "stateMutability": "view",
      "type": "function"
    },
    {
      "inputs": [
        {
          "internalType": "uint256",
          "name": "tokenId",
          "type": "uint256"
        }
      ],
      "name": "tokenURI",
      "outputs": [
        {
          "internalType": "string",
          "name": "",
          "type": "string"
        }
      ],
      "stateMutability": "view",
      "type": "function"
    },
    {
      "inputs": [
        {
          "internalType": "address",
          "name": "from",
          "type": "address"
        },
        {
          "internalType": "address",
          "name": "to",
          "type": "address"
        },
        {
          "internalType": "uint256",
          "name": "tokenId",
          "type": "uint256"
        }
      ],
      "name": "transferFrom",
      "outputs": [],
      "stateMutability": "nonpayable",
      "type": "function"
    },
    {
      "inputs": [
        {
          "internalType": "address",
          "name": "newOwner",
          "type": "address"
        }
      ],
      "name": "transferOwnership",
      "outputs": [],
      "stateMutability": "nonpayable",
      "type": "function"
    }
  ],
  "bytecode": "0x60806040523480156200001157600080fd5b506040518060400160405280600981526020017f546f6b656e4e616d6500000000000000000000000000000000000000000000008152506040518060400160405280600381526020017f544b4e0000000000000000000000000000000000000000000000000000000000815250816000908051906020019062000096929190620001a6565b508060019080519060200190620000af929190620001a6565b505050620000d2620000c6620000d860201b60201c565b620000e060201b60201c565b620002bb565b600033905090565b6000600760009054906101000a900473ffffffffffffffffffffffffffffffffffffffff16905081600760006101000a81548173ffffffffffffffffffffffffffffffffffffffff021916908373ffffffffffffffffffffffffffffffffffffffff1602179055508173ffffffffffffffffffffffffffffffffffffffff168173ffffffffffffffffffffffffffffffffffffffff167f8be0079c531659141344cd1fd0a4f28419497f9722a3daafe3b4186f6b6457e060405160405180910390a35050565b828054620001b49062000285565b90600052602060002090601f016020900481019282620001d8576000855562000224565b82601f10620001f357805160ff191683800117855562000224565b8280016001018555821562000224579182015b828111156200022357825182559160200191906001019062000206565b5b50905062000233919062000237565b5090565b5b808211156200025257600081600090555060010162000238565b5090565b7f4e487b7100000000000000000000000000000000000000000000000000000000600052602260045260246000fd5b600060028204905060018216806200029e57607f821691505b60208210811415620002b557620002b462000256565b5b50919050565b613c4480620002cb6000396000f3fe608060405234801561001057600080fd5b506004361061014d5760003560e01c806370a08231116100c3578063b88d4fde1161007c578063b88d4fde1461038b578063c87b56dd146103a7578063cd279c7c146103d7578063e985e9c5146103f3578063f2fde38b14610423578063f84e34c51461043f5761014d565b806370a08231146102db578063715018a61461030b5780638a71bb2d146103155780638da5cb5b1461033357806395d89b4114610351578063a22cb4651461036f5761014d565b80632a55205a116101155780632a55205a1461020857806342842e0e1461023957806342966c681461025557806343bc1612146102715780634eeb12ea1461028f5780636352211e146102ab5761014d565b806301ffc9a71461015257806306fdde0314610182578063081812fc146101a0578063095ea7b3146101d057806323b872dd146101ec575b600080fd5b61016c600480360381019061016791906127f4565b61046f565b604051610179919061283c565b60405180910390f35b61018a610481565b60405161019791906128f0565b60405180910390f35b6101ba60048036038101906101b59190612948565b610513565b6040516101c791906129b6565b60405180910390f35b6101ea60048036038101906101e591906129fd565b610559565b005b61020660048036038101906102019190612a3d565b610671565b005b610222600480360381019061021d9190612a90565b6106d1565b604051610230929190612adf565b60405180910390f35b610253600480360381019061024e9190612a3d565b6108bc565b005b61026f600480360381019061026a9190612948565b6108dc565b005b610279610938565b60405161028691906129b6565b60405180910390f35b6102a960048036038101906102a49190612b4c565b61095e565b005b6102c560048036038101906102c09190612948565b610b06565b6040516102d291906129b6565b60405180910390f35b6102f560048036038101906102f09190612bc7565b610b8d565b6040516103029190612bf4565b60405180910390f35b610313610c45565b005b61031d610c59565b60405161032a9190612c1e565b60405180910390f35b61033b610c77565b60405161034891906129b6565b60405180910390f35b610359610ca1565b60405161036691906128f0565b60405180910390f35b61038960048036038101906103849190612c65565b610d33565b005b6103a560048036038101906103a09190612dda565b610d49565b005b6103c160048036038101906103bc9190612948565b610dab565b6040516103ce91906128f0565b60405180910390f35b6103f160048036038101906103ec9190612efe565b610dbd565b005b61040d60048036038101906104089190612f6d565b610dde565b60405161041a919061283c565b60405180910390f35b61043d60048036038101906104389190612bc7565b610e72565b005b61045960048036038101906104549190612fad565b610ef6565b6040516104669190612bf4565b60405180910390f35b600061047a82610f5f565b9050919050565b60606000805461049090613038565b80601f01602080910402602001604051908101604052809291908181526020018280546104bc90613038565b80156105095780601f106104de57610100808354040283529160200191610509565b820191906000526020600020905b8154815290600101906020018083116104ec57829003601f168201915b5050505050905090565b600061051e82610fd9565b6004600083815260200190815260200160002060009054906101000a900473ffffffffffffffffffffffffffffffffffffffff169050919050565b600061056482610b06565b90508073ffffffffffffffffffffffffffffffffffffffff168373ffffffffffffffffffffffffffffffffffffffff1614156105d5576040517f08c379a00000000000000000000000000000000000000000000000000000000081526004016105cc906130dc565b60405180910390fd5b8073ffffffffffffffffffffffffffffffffffffffff166105f4611024565b73ffffffffffffffffffffffffffffffffffffffff16148061062357506106228161061d611024565b610dde565b5b610662576040517f08c379a00000000000000000000000000000000000000000000000000000000081526004016106599061316e565b60405180910390fd5b61066c838361102c565b505050565b61068261067c611024565b826110e5565b6106c1576040517f08c379a00000000000000000000000000000000000000000000000000000000081526004016106b890613200565b60405180910390fd5b6106cc83838361117a565b505050565b6000806000600960008681526020019081526020016000206040518060400160405290816000820160009054906101000a900473ffffffffffffffffffffffffffffffffffffffff1673ffffffffffffffffffffffffffffffffffffffff1673ffffffffffffffffffffffffffffffffffffffff1681526020016000820160149054906101000a90046bffffffffffffffffffffffff166bffffffffffffffffffffffff166bffffffffffffffffffffffff16815250509050600073ffffffffffffffffffffffffffffffffffffffff16816000015173ffffffffffffffffffffffffffffffffffffffff1614156108675760086040518060400160405290816000820160009054906101000a900473ffffffffffffffffffffffffffffffffffffffff1673ffffffffffffffffffffffffffffffffffffffff1673ffffffffffffffffffffffffffffffffffffffff1681526020016000820160149054906101000a90046bffffffffffffffffffffffff166bffffffffffffffffffffffff166bffffffffffffffffffffffff168152505090505b6000610871611474565b6bffffffffffffffffffffffff1682602001516bffffffffffffffffffffffff168661089d919061324f565b6108a791906132d8565b90508160000151819350935050509250929050565b6108d783838360405180602001604052806000815250610d49565b505050565b6108ed6108e7611024565b826110e5565b61092c576040517f08c379a000000000000000000000000000000000000000000000000000000000815260040161092390613200565b60405180910390fd5b6109358161147e565b50565b600b60009054906101000a900473ffffffffffffffffffffffffffffffffffffffff1681565b600073ffffffffffffffffffffffffffffffffffffffff16600d600c9054906101000a900473ffffffffffffffffffffffffffffffffffffffff1673ffffffffffffffffffffffffffffffffffffffff16146109ef576040517f08c379a00000000000000000000000000000000000000000000000000000000081526004016109e690613355565b60405180910390fd5b84600b60006101000a81548173ffffffffffffffffffffffffffffffffffffffff021916908373ffffffffffffffffffffffffffffffffffffffff16021790555083600d600c6101000a81548173ffffffffffffffffffffffffffffffffffffffff021916908373ffffffffffffffffffffffffffffffffffffffff16021790555082600e60006101000a81548173ffffffffffffffffffffffffffffffffffffffff021916908373ffffffffffffffffffffffffffffffffffffffff160217905550606482610abf9190613375565b600d60006101000a8154816bffffffffffffffffffffffff02191690836bffffffffffffffffffffffff16021790555080600c81905550610aff85610e72565b5050505050565b600080610b128361148a565b9050600073ffffffffffffffffffffffffffffffffffffffff168173ffffffffffffffffffffffffffffffffffffffff161415610b84576040517f08c379a0000000000000000000000000000000000000000000000000000000008152600401610b7b90613407565b60405180910390fd5b80915050919050565b60008073ffffffffffffffffffffffffffffffffffffffff168273ffffffffffffffffffffffffffffffffffffffff161415610bfe576040517f08c379a0000000000000000000000000000000000000000000000000000000008152600401610bf590613499565b60405180910390fd5b600360008373ffffffffffffffffffffffffffffffffffffffff1673ffffffffffffffffffffffffffffffffffffffff168152602001908152602001600020549050919050565b610c4d6114c7565b610c576000611545565b565b600d60009054906101000a90046bffffffffffffffffffffffff1681565b6000600760009054906101000a900473ffffffffffffffffffffffffffffffffffffffff16905090565b606060018054610cb090613038565b80601f0160208091040260200160405190810160405280929190818152602001828054610cdc90613038565b8015610d295780601f10610cfe57610100808354040283529160200191610d29565b820191906000526020600020905b815481529060010190602001808311610d0c57829003601f168201915b5050505050905090565b610d45610d3e611024565b838361160b565b5050565b610d5a610d54611024565b836110e5565b610d99576040517f08c379a0000000000000000000000000000000000000000000000000000000008152600401610d9090613200565b60405180910390fd5b610da584848484611778565b50505050565b6060610db6826117d4565b9050919050565b610dc56114c7565b610dcf83836118e7565b610dd98282611905565b505050565b6000600560008473ffffffffffffffffffffffffffffffffffffffff1673ffffffffffffffffffffffffffffffffffffffff16815260200190815260200160002060008373ffffffffffffffffffffffffffffffffffffffff1673ffffffffffffffffffffffffffffffffffffffff16815260200190815260200160002060009054906101000a900460ff16905092915050565b610e7a6114c7565b600073ffffffffffffffffffffffffffffffffffffffff168173ffffffffffffffffffffffffffffffffffffffff161415610eea576040517f08c379a0000000000000000000000000000000000000000000000000000000008152600401610ee19061352b565b60405180910390fd5b610ef381611545565b50565b6000610f006114c7565b6000610f0c8484611979565b9050610f5581600b60009054906101000a900473ffffffffffffffffffffffffffffffffffffffff16600d60009054906101000a90046bffffffffffffffffffffffff166119b1565b8091505092915050565b60007f2a55205a000000000000000000000000000000000000000000000000000000007bffffffffffffffffffffffffffffffffffffffffffffffffffffffff1916827bffffffffffffffffffffffffffffffffffffffffffffffffffffffff19161480610fd25750610fd182611b59565b5b9050919050565b610fe281611c3b565b611021576040517f08c379a000000000000000000000000000000000000000000000000000000000815260040161101890613407565b60405180910390fd5b50565b600033905090565b816004600083815260200190815260200160002060006101000a81548173ffffffffffffffffffffffffffffffffffffffff021916908373ffffffffffffffffffffffffffffffffffffffff160217905550808273ffffffffffffffffffffffffffffffffffffffff1661109f83610b06565b73ffffffffffffffffffffffffffffffffffffffff167f8c5be1e5ebec7d5bd14f71427d1e84f3dd0314c0f7b2291e5b200ac8c7c3b92560405160405180910390a45050565b6000806110f183610b06565b90508073ffffffffffffffffffffffffffffffffffffffff168473ffffffffffffffffffffffffffffffffffffffff16148061113357506111328185610dde565b5b8061117157508373ffffffffffffffffffffffffffffffffffffffff1661115984610513565b73ffffffffffffffffffffffffffffffffffffffff16145b91505092915050565b8273ffffffffffffffffffffffffffffffffffffffff1661119a82610b06565b73ffffffffffffffffffffffffffffffffffffffff16146111f0576040517f08c379a00000000000000000000000000000000000000000000000000000000081526004016111e7906135bd565b60405180910390fd5b600073ffffffffffffffffffffffffffffffffffffffff168273ffffffffffffffffffffffffffffffffffffffff161415611260576040517f08c379a00000000000000000000000000000000000000000000000000000000081526004016112579061364f565b60405180910390fd5b61126d8383836001611c7c565b8273ffffffffffffffffffffffffffffffffffffffff1661128d82610b06565b73ffffffffffffffffffffffffffffffffffffffff16146112e3576040517f08c379a00000000000000000000000000000000000000000000000000000000081526004016112da906135bd565b60405180910390fd5b6004600082815260200190815260200160002060006101000a81549073ffffffffffffffffffffffffffffffffffffffff02191690556001600360008573ffffffffffffffffffffffffffffffffffffffff1673ffffffffffffffffffffffffffffffffffffffff168152602001908152602001600020600082825403925050819055506001600360008473ffffffffffffffffffffffffffffffffffffffff1673ffffffffffffffffffffffffffffffffffffffff16815260200190815260200160002060008282540192505081905550816002600083815260200190815260200160002060006101000a81548173ffffffffffffffffffffffffffffffffffffffff021916908373ffffffffffffffffffffffffffffffffffffffff160217905550808273ffffffffffffffffffffffffffffffffffffffff168473ffffffffffffffffffffffffffffffffffffffff167fddf252ad1be2c89b69c2b068fc378daa952ba7f163c4a11628f55a4df523b3ef60405160405180910390a461146f8383836001611da2565b505050565b6000612710905090565b61148781611da8565b50565b60006002600083815260200190815260200160002060009054906101000a900473ffffffffffffffffffffffffffffffffffffffff169050919050565b6114cf611024565b73ffffffffffffffffffffffffffffffffffffffff166114ed610c77565b73ffffffffffffffffffffffffffffffffffffffff1614611543576040517f08c379a000000000000000000000000000000000000000000000000000000000815260040161153a906136bb565b60405180910390fd5b565b6000600760009054906101000a900473ffffffffffffffffffffffffffffffffffffffff16905081600760006101000a81548173ffffffffffffffffffffffffffffffffffffffff021916908373ffffffffffffffffffffffffffffffffffffffff1602179055508173ffffffffffffffffffffffffffffffffffffffff168173ffffffffffffffffffffffffffffffffffffffff167f8be0079c531659141344cd1fd0a4f28419497f9722a3daafe3b4186f6b6457e060405160405180910390a35050565b8173ffffffffffffffffffffffffffffffffffffffff168373ffffffffffffffffffffffffffffffffffffffff16141561167a576040517f08c379a000000000000000000000000000000000000000000000000000000000815260040161167190613727565b60405180910390fd5b80600560008573ffffffffffffffffffffffffffffffffffffffff1673ffffffffffffffffffffffffffffffffffffffff16815260200190815260200160002060008473ffffffffffffffffffffffffffffffffffffffff1673ffffffffffffffffffffffffffffffffffffffff16815260200190815260200160002060006101000a81548160ff0219169083151502179055508173ffffffffffffffffffffffffffffffffffffffff168373ffffffffffffffffffffffffffffffffffffffff167f17307eab39ab6107e8899845ad3d59bd9653f200f220920489ca2b5937696c318360405161176b919061283c565b60405180910390a3505050565b61178384848461117a565b61178f84848484611dfb565b6117ce576040517f08c379a00000000000000000000000000000000000000000000000000000000081526004016117c5906137b9565b60405180910390fd5b50505050565b60606117df82610fd9565b60006006600084815260200190815260200160002080546117ff90613038565b80601f016020809104026020016040519081016040528092919081815260200182805461182b90613038565b80156118785780601f1061184d57610100808354040283529160200191611878565b820191906000526020600020905b81548152906001019060200180831161185b57829003601f168201915b505050505090506000611889611f83565b905060008151141561189f5781925050506118e2565b6000825111156118d45780826040516020016118bc929190613815565b604051602081830303815290604052925050506118e2565b6118dd84611f9a565b925050505b919050565b611901828260405180602001604052806000815250612002565b5050565b61190e82611c3b565b61194d576040517f08c379a0000000000000000000000000000000000000000000000000000000008152600401611944906138ab565b60405180910390fd5b806006600084815260200190815260200160002090805190602001906119749291906126a5565b505050565b6000611985600a61205d565b6000611991600a612073565b905061199d84826118e7565b6119a78184611905565b8091505092915050565b6119b9611474565b6bffffffffffffffffffffffff16816bffffffffffffffffffffffff161115611a17576040517f08c379a0000000000000000000000000000000000000000000000000000000008152600401611a0e9061393d565b60405180910390fd5b600073ffffffffffffffffffffffffffffffffffffffff168273ffffffffffffffffffffffffffffffffffffffff161415611a87576040517f08c379a0000000000000000000000000000000000000000000000000000000008152600401611a7e906139a9565b60405180910390fd5b60405180604001604052808373ffffffffffffffffffffffffffffffffffffffff168152602001826bffffffffffffffffffffffff168152506009600085815260200190815260200160002060008201518160000160006101000a81548173ffffffffffffffffffffffffffffffffffffffff021916908373ffffffffffffffffffffffffffffffffffffffff16021790555060208201518160000160146101000a8154816bffffffffffffffffffffffff02191690836bffffffffffffffffffffffff160217905550905050505050565b60007f80ac58cd000000000000000000000000000000000000000000000000000000007bffffffffffffffffffffffffffffffffffffffffffffffffffffffff1916827bffffffffffffffffffffffffffffffffffffffffffffffffffffffff19161480611c2457507f5b5e139f000000000000000000000000000000000000000000000000000000007bffffffffffffffffffffffffffffffffffffffffffffffffffffffff1916827bffffffffffffffffffffffffffffffffffffffffffffffffffffffff1916145b80611c345750611c3382612081565b5b9050919050565b60008073ffffffffffffffffffffffffffffffffffffffff16611c5d8361148a565b73ffffffffffffffffffffffffffffffffffffffff1614159050919050565b6001811115611d9c57600073ffffffffffffffffffffffffffffffffffffffff168473ffffffffffffffffffffffffffffffffffffffff1614611d105780600360008673ffffffffffffffffffffffffffffffffffffffff1673ffffffffffffffffffffffffffffffffffffffff1681526020019081526020016000206000828254611d0891906139c9565b925050819055505b600073ffffffffffffffffffffffffffffffffffffffff168373ffffffffffffffffffffffffffffffffffffffff1614611d9b5780600360008573ffffffffffffffffffffffffffffffffffffffff1673ffffffffffffffffffffffffffffffffffffffff1681526020019081526020016000206000828254611d9391906139fd565b925050819055505b5b50505050565b50505050565b611db1816120eb565b6000600660008381526020019081526020016000208054611dd190613038565b905014611df857600660008281526020019081526020016000206000611df7919061272b565b5b50565b6000611e1c8473ffffffffffffffffffffffffffffffffffffffff16612239565b15611f76578373ffffffffffffffffffffffffffffffffffffffff1663150b7a02611e45611024565b8786866040518563ffffffff1660e01b8152600401611e679493929190613aa8565b6020604051808303816000875af1925050508015611ea357506040513d601f19601f82011682018060405250810190611ea09190613b09565b60015b611f26573d8060008114611ed3576040519150601f19603f3d011682016040523d82523d6000602084013e611ed8565b606091505b50600081511415611f1e576040517f08c379a0000000000000000000000000000000000000000000000000000000008152600401611f15906137b9565b60405180910390fd5b805181602001fd5b63150b7a0260e01b7bffffffffffffffffffffffffffffffffffffffffffffffffffffffff1916817bffffffffffffffffffffffffffffffffffffffffffffffffffffffff191614915050611f7b565b600190505b949350505050565b606060405180602001604052806000815250905090565b6060611fa582610fd9565b6000611faf611f83565b90506000815111611fcf5760405180602001604052806000815250611ffa565b80611fd98461225c565b604051602001611fea929190613815565b6040516020818303038152906040525b915050919050565b61200c8383612334565b6120196000848484611dfb565b612058576040517f08c379a000000000000000000000000000000000000000000000000000000000815260040161204f906137b9565b60405180910390fd5b505050565b6001816000016000828254019250508190555050565b600081600001549050919050565b60007f01ffc9a7000000000000000000000000000000000000000000000000000000007bffffffffffffffffffffffffffffffffffffffffffffffffffffffff1916827bffffffffffffffffffffffffffffffffffffffffffffffffffffffff1916149050919050565b60006120f682610b06565b9050612106816000846001611c7c565b61210f82610b06565b90506004600083815260200190815260200160002060006101000a81549073ffffffffffffffffffffffffffffffffffffffff02191690556001600360008373ffffffffffffffffffffffffffffffffffffffff1673ffffffffffffffffffffffffffffffffffffffff168152602001908152602001600020600082825403925050819055506002600083815260200190815260200160002060006101000a81549073ffffffffffffffffffffffffffffffffffffffff021916905581600073ffffffffffffffffffffffffffffffffffffffff168273ffffffffffffffffffffffffffffffffffffffff167fddf252ad1be2c89b69c2b068fc378daa952ba7f163c4a11628f55a4df523b3ef60405160405180910390a4612235816000846001611da2565b5050565b6000808273ffffffffffffffffffffffffffffffffffffffff163b119050919050565b60606000600161226b84612552565b01905060008167ffffffffffffffff81111561228a57612289612caf565b5b6040519080825280601f01601f1916602001820160405280156122bc5781602001600182028036833780820191505090505b509050600082602001820190505b600115612329578080600190039150507f3031323334353637383961626364656600000000000000000000000000000000600a86061a8153600a8581612313576123126132a9565b5b049450600085141561232457612329565b6122ca565b819350505050919050565b600073ffffffffffffffffffffffffffffffffffffffff168273ffffffffffffffffffffffffffffffffffffffff1614156123a4576040517f08c379a000000000000000000000000000000000000000000000000000000000815260040161239b90613b82565b60405180910390fd5b6123ad81611c3b565b156123ed576040517f08c379a00000000000000000000000000000000000000000000000000000000081526004016123e490613bee565b60405180910390fd5b6123fb600083836001611c7c565b61240481611c3b565b15612444576040517f08c379a000000000000000000000000000000000000000000000000000000000815260040161243b90613bee565b60405180910390fd5b6001600360008473ffffffffffffffffffffffffffffffffffffffff1673ffffffffffffffffffffffffffffffffffffffff16815260200190815260200160002060008282540192505081905550816002600083815260200190815260200160002060006101000a81548173ffffffffffffffffffffffffffffffffffffffff021916908373ffffffffffffffffffffffffffffffffffffffff160217905550808273ffffffffffffffffffffffffffffffffffffffff16600073ffffffffffffffffffffffffffffffffffffffff167fddf252ad1be2c89b69c2b068fc378daa952ba7f163c4a11628f55a4df523b3ef60405160405180910390a461254e600083836001611da2565b5050565b600080600090507a184f03e93ff9f4daa797ed6e38ed64bf6a1f01000000000000000083106125b0577a184f03e93ff9f4daa797ed6e38ed64bf6a1f01000000000000000083816125a6576125a56132a9565b5b0492506040810190505b6d04ee2d6d415b85acef810000000083106125ed576d04ee2d6d415b85acef810000000083816125e3576125e26132a9565b5b0492506020810190505b662386f26fc10000831061261c57662386f26fc100008381612612576126116132a9565b5b0492506010810190505b6305f5e1008310612645576305f5e100838161263b5761263a6132a9565b5b0492506008810190505b612710831061266a5761271083816126605761265f6132a9565b5b0492506004810190505b6064831061268d5760648381612683576126826132a9565b5b0492506002810190505b600a831061269c576001810190505b80915050919050565b8280546126b190613038565b90600052602060002090601f0160209004810192826126d3576000855561271a565b82601f106126ec57805160ff191683800117855561271a565b8280016001018555821561271a579182015b828111156127195782518255916020019190600101906126fe565b5b509050612727919061276b565b5090565b50805461273790613038565b6000825580601f106127495750612768565b601f016020900490600052602060002090810190612767919061276b565b5b50565b5b8082111561278457600081600090555060010161276c565b5090565b6000604051905090565b600080fd5b600080fd5b60007fffffffff0000000000000000000000000000000000000000000000000000000082169050919050565b6127d18161279c565b81146127dc57600080fd5b50565b6000813590506127ee816127c8565b92915050565b60006020828403121561280a57612809612792565b5b6000612818848285016127df565b91505092915050565b60008115159050919050565b61283681612821565b82525050565b6000602082019050612851600083018461282d565b92915050565b600081519050919050565b600082825260208201905092915050565b60005b83811015612891578082015181840152602081019050612876565b838111156128a0576000848401525b50505050565b6000601f19601f8301169050919050565b60006128c282612857565b6128cc8185612862565b93506128dc818560208601612873565b6128e5816128a6565b840191505092915050565b6000602082019050818103600083015261290a81846128b7565b905092915050565b6000819050919050565b61292581612912565b811461293057600080fd5b50565b6000813590506129428161291c565b92915050565b60006020828403121561295e5761295d612792565b5b600061296c84828501612933565b91505092915050565b600073ffffffffffffffffffffffffffffffffffffffff82169050919050565b60006129a082612975565b9050919050565b6129b081612995565b82525050565b60006020820190506129cb60008301846129a7565b92915050565b6129da81612995565b81146129e557600080fd5b50565b6000813590506129f7816129d1565b92915050565b60008060408385031215612a1457612a13612792565b5b6000612a22858286016129e8565b9250506020612a3385828601612933565b9150509250929050565b600080600060608486031215612a5657612a55612792565b5b6000612a64868287016129e8565b9350506020612a75868287016129e8565b9250506040612a8686828701612933565b9150509250925092565b60008060408385031215612aa757612aa6612792565b5b6000612ab585828601612933565b9250506020612ac685828601612933565b9150509250929050565b612ad981612912565b82525050565b6000604082019050612af460008301856129a7565b612b016020830184612ad0565b9392505050565b60006bffffffffffffffffffffffff82169050919050565b612b2981612b08565b8114612b3457600080fd5b50565b600081359050612b4681612b20565b92915050565b600080600080600060a08688031215612b6857612b67612792565b5b6000612b76888289016129e8565b9550506020612b87888289016129e8565b9450506040612b98888289016129e8565b9350506060612ba988828901612b37565b9250506080612bba88828901612933565b9150509295509295909350565b600060208284031215612bdd57612bdc612792565b5b6000612beb848285016129e8565b91505092915050565b6000602082019050612c096000830184612ad0565b92915050565b612c1881612b08565b82525050565b6000602082019050612c336000830184612c0f565b92915050565b612c4281612821565b8114612c4d57600080fd5b50565b600081359050612c5f81612c39565b92915050565b60008060408385031215612c7c57612c7b612792565b5b6000612c8a858286016129e8565b9250506020612c9b85828601612c50565b9150509250929050565b600080fd5b600080fd5b7f4e487b7100000000000000000000000000000000000000000000000000000000600052604160045260246000fd5b612ce7826128a6565b810181811067ffffffffffffffff82111715612d0657612d05612caf565b5b80604052505050565b6000612d19612788565b9050612d258282612cde565b919050565b600067ffffffffffffffff821115612d4557612d44612caf565b5b612d4e826128a6565b9050602081019050919050565b82818337600083830152505050565b6000612d7d612d7884612d2a565b612d0f565b905082815260208101848484011115612d9957612d98612caa565b5b612da4848285612d5b565b509392505050565b600082601f830112612dc157612dc0612ca5565b5b8135612dd1848260208601612d6a565b91505092915050565b60008060008060808587031215612df457612df3612792565b5b6000612e02878288016129e8565b9450506020612e13878288016129e8565b9350506040612e2487828801612933565b925050606085013567ffffffffffffffff811115612e4557612e44612797565b5b612e5187828801612dac565b91505092959194509250565b600067ffffffffffffffff821115612e7857612e77612caf565b5b612e81826128a6565b9050602081019050919050565b6000612ea1612e9c84612e5d565b612d0f565b905082815260208101848484011115612ebd57612ebc612caa565b5b612ec8848285612d5b565b509392505050565b600082601f830112612ee557612ee4612ca5565b5b8135612ef5848260208601612e8e565b91505092915050565b600080600060608486031215612f1757612f16612792565b5b6000612f25868287016129e8565b9350506020612f3686828701612933565b925050604084013567ffffffffffffffff811115612f5757612f56612797565b5b612f6386828701612ed0565b9150509250925092565b60008060408385031215612f8457612f83612792565b5b6000612f92858286016129e8565b9250506020612fa3858286016129e8565b9150509250929050565b60008060408385031215612fc457612fc3612792565b5b6000612fd2858286016129e8565b925050602083013567ffffffffffffffff811115612ff357612ff2612797565b5b612fff85828601612ed0565b9150509250929050565b7f4e487b7100000000000000000000000000000000000000000000000000000000600052602260045260246000fd5b6000600282049050600182168061305057607f821691505b6020821081141561306457613063613009565b5b50919050565b7f4552433732313a20617070726f76616c20746f2063757272656e74206f776e6560008201527f7200000000000000000000000000000000000000000000000000000000000000602082015250565b60006130c6602183612862565b91506130d18261306a565b604082019050919050565b600060208201905081810360008301526130f5816130b9565b9050919050565b7f4552433732313a20617070726f76652063616c6c6572206973206e6f7420746f60008201527f6b656e206f776e6572206f7220617070726f76656420666f7220616c6c000000602082015250565b6000613158603d83612862565b9150613163826130fc565b604082019050919050565b600060208201905081810360008301526131878161314b565b9050919050565b7f4552433732313a2063616c6c6572206973206e6f7420746f6b656e206f776e6560008201527f72206f7220617070726f76656400000000000000000000000000000000000000602082015250565b60006131ea602d83612862565b91506131f58261318e565b604082019050919050565b60006020820190508181036000830152613219816131dd565b9050919050565b7f4e487b7100000000000000000000000000000000000000000000000000000000600052601160045260246000fd5b600061325a82612912565b915061326583612912565b9250817fffffffffffffffffffffffffffffffffffffffffffffffffffffffffffffffff048311821515161561329e5761329d613220565b5b828202905092915050565b7f4e487b7100000000000000000000000000000000000000000000000000000000600052601260045260246000fd5b60006132e382612912565b91506132ee83612912565b9250826132fe576132fd6132a9565b5b828204905092915050565b7f496e697469617465640000000000000000000000000000000000000000000000600082015250565b600061333f600983612862565b915061334a82613309565b602082019050919050565b6000602082019050818103600083015261336e81613332565b9050919050565b600061338082612b08565b915061338b83612b08565b9250816bffffffffffffffffffffffff04831182151516156133b0576133af613220565b5b828202905092915050565b7f4552433732313a20696e76616c696420746f6b656e2049440000000000000000600082015250565b60006133f1601883612862565b91506133fc826133bb565b602082019050919050565b60006020820190508181036000830152613420816133e4565b9050919050565b7f4552433732313a2061646472657373207a65726f206973206e6f74206120766160008201527f6c6964206f776e65720000000000000000000000000000000000000000000000602082015250565b6000613483602983612862565b915061348e82613427565b604082019050919050565b600060208201905081810360008301526134b281613476565b9050919050565b7f4f776e61626c653a206e6577206f776e657220697320746865207a65726f206160008201527f6464726573730000000000000000000000000000000000000000000000000000602082015250565b6000613515602683612862565b9150613520826134b9565b604082019050919050565b6000602082019050818103600083015261354481613508565b9050919050565b7f4552433732313a207472616e736665722066726f6d20696e636f72726563742060008201527f6f776e6572000000000000000000000000000000000000000000000000000000602082015250565b60006135a7602583612862565b91506135b28261354b565b604082019050919050565b600060208201905081810360008301526135d68161359a565b9050919050565b7f4552433732313a207472616e7366657220746f20746865207a65726f2061646460008201527f7265737300000000000000000000000000000000000000000000000000000000602082015250565b6000613639602483612862565b9150613644826135dd565b604082019050919050565b600060208201905081810360008301526136688161362c565b9050919050565b7f4f776e61626c653a2063616c6c6572206973206e6f7420746865206f776e6572600082015250565b60006136a5602083612862565b91506136b08261366f565b602082019050919050565b600060208201905081810360008301526136d481613698565b9050919050565b7f4552433732313a20617070726f766520746f2063616c6c657200000000000000600082015250565b6000613711601983612862565b915061371c826136db565b602082019050919050565b6000602082019050818103600083015261374081613704565b9050919050565b7f4552433732313a207472616e7366657220746f206e6f6e20455243373231526560008201527f63656976657220696d706c656d656e7465720000000000000000000000000000602082015250565b60006137a3603283612862565b91506137ae82613747565b604082019050919050565b600060208201905081810360008301526137d281613796565b9050919050565b600081905092915050565b60006137ef82612857565b6137f981856137d9565b9350613809818560208601612873565b80840191505092915050565b600061382182856137e4565b915061382d82846137e4565b91508190509392505050565b7f45524337323155524953746f726167653a2055524920736574206f66206e6f6e60008201527f6578697374656e7420746f6b656e000000000000000000000000000000000000602082015250565b6000613895602e83612862565b91506138a082613839565b604082019050919050565b600060208201905081810360008301526138c481613888565b9050919050565b7f455243323938313a20726f79616c7479206665652077696c6c2065786365656460008201527f2073616c65507269636500000000000000000000000000000000000000000000602082015250565b6000613927602a83612862565b9150613932826138cb565b604082019050919050565b600060208201905081810360008301526139568161391a565b9050919050565b7f455243323938313a20496e76616c696420706172616d65746572730000000000600082015250565b6000613993601b83612862565b915061399e8261395d565b602082019050919050565b600060208201905081810360008301526139c281613986565b9050919050565b60006139d482612912565b91506139df83612912565b9250828210156139f2576139f1613220565b5b828203905092915050565b6000613a0882612912565b9150613a1383612912565b9250827fffffffffffffffffffffffffffffffffffffffffffffffffffffffffffffffff03821115613a4857613a47613220565b5b828201905092915050565b600081519050919050565b600082825260208201905092915050565b6000613a7a82613a53565b613a848185613a5e565b9350613a94818560208601612873565b613a9d816128a6565b840191505092915050565b6000608082019050613abd60008301876129a7565b613aca60208301866129a7565b613ad76040830185612ad0565b8181036060830152613ae98184613a6f565b905095945050505050565b600081519050613b03816127c8565b92915050565b600060208284031215613b1f57613b1e612792565b5b6000613b2d84828501613af4565b91505092915050565b7f4552433732313a206d696e7420746f20746865207a65726f2061646472657373600082015250565b6000613b6c602083612862565b9150613b7782613b36565b602082019050919050565b60006020820190508181036000830152613b9b81613b5f565b9050919050565b7f4552433732313a20746f6b656e20616c7265616479206d696e74656400000000600082015250565b6000613bd8601c83612862565b9150613be382613ba2565b602082019050919050565b60006020820190508181036000830152613c0781613bcb565b905091905056fea26469706673582212203670c3daf46863c7db4f7b97a2b61b9844c8b82a5aa806fa1f0b2022a0bad8dd64736f6c634300080b0033",
  "linkReferences": {},
  "deployedLinkReferences": {}
}