{
  "_format": "hh-sol-artifact-1",
  "contractName": "NFT",
  "sourceName": "contracts/ERC721/NFT.sol",
  "abi": [
    {
      "inputs": [
        {
          "internalType": "address",
          "name": "_artist",
          "type": "address"
        },
        {
          "internalType": "address",
          "name": "_token",
          "type": "address"
        },
        {
          "internalType": "uint96",
          "name": "_royaltyPercentage",
          "type": "uint96"
        },
        {
          "internalType": "uint256",
          "name": "_tokenPrice",
          "type": "uint256"
        }
      ],
      "stateMutability": "nonpayable",
      "type": "constructor"
    },
    {
      "anonymous": false,
      "inputs": [
        {
          "indexed": true,
          "internalType": "address",
          "name": "owner",
          "type": "address"
        },
        {
          "indexed": true,
          "internalType": "address",
          "name": "approved",
          "type": "address"
        },
        {
          "indexed": true,
          "internalType": "uint256",
          "name": "tokenId",
          "type": "uint256"
        }
      ],
      "name": "Approval",
      "type": "event"
    },
    {
      "anonymous": false,
      "inputs": [
        {
          "indexed": true,
          "internalType": "address",
          "name": "owner",
          "type": "address"
        },
        {
          "indexed": true,
          "internalType": "address",
          "name": "operator",
          "type": "address"
        },
        {
          "indexed": false,
          "internalType": "bool",
          "name": "approved",
          "type": "bool"
        }
      ],
      "name": "ApprovalForAll",
      "type": "event"
    },
    {
      "anonymous": false,
      "inputs": [
        {
          "indexed": true,
          "internalType": "address",
          "name": "previousOwner",
          "type": "address"
        },
        {
          "indexed": true,
          "internalType": "address",
          "name": "newOwner",
          "type": "address"
        }
      ],
      "name": "OwnershipTransferred",
      "type": "event"
    },
    {
      "anonymous": false,
      "inputs": [
        {
          "indexed": true,
          "internalType": "address",
          "name": "from",
          "type": "address"
        },
        {
          "indexed": true,
          "internalType": "address",
          "name": "to",
          "type": "address"
        },
        {
          "indexed": true,
          "internalType": "uint256",
          "name": "tokenId",
          "type": "uint256"
        }
      ],
      "name": "Transfer",
      "type": "event"
    },
    {
      "inputs": [
        {
          "internalType": "address",
          "name": "to",
          "type": "address"
        },
        {
          "internalType": "uint256",
          "name": "tokenId",
          "type": "uint256"
        }
      ],
      "name": "approve",
      "outputs": [],
      "stateMutability": "nonpayable",
      "type": "function"
    },
    {
      "inputs": [
        {
          "internalType": "address",
          "name": "owner",
          "type": "address"
        }
      ],
      "name": "balanceOf",
      "outputs": [
        {
          "internalType": "uint256",
          "name": "",
          "type": "uint256"
        }
      ],
      "stateMutability": "view",
      "type": "function"
    },
    {
      "inputs": [
        {
          "internalType": "uint256",
          "name": "tokenId",
          "type": "uint256"
        }
      ],
      "name": "burn",
      "outputs": [],
      "stateMutability": "nonpayable",
      "type": "function"
    },
    {
      "inputs": [
        {
          "internalType": "uint256",
          "name": "tokenId",
          "type": "uint256"
        }
      ],
      "name": "getApproved",
      "outputs": [
        {
          "internalType": "address",
          "name": "",
          "type": "address"
        }
      ],
      "stateMutability": "view",
      "type": "function"
    },
    {
      "inputs": [
        {
          "internalType": "address",
          "name": "owner",
          "type": "address"
        },
        {
          "internalType": "address",
          "name": "operator",
          "type": "address"
        }
      ],
      "name": "isApprovedForAll",
      "outputs": [
        {
          "internalType": "bool",
          "name": "",
          "type": "bool"
        }
      ],
      "stateMutability": "view",
      "type": "function"
    },
    {
      "inputs": [],
      "name": "name",
      "outputs": [
        {
          "internalType": "string",
          "name": "",
          "type": "string"
        }
      ],
      "stateMutability": "view",
      "type": "function"
    },
    {
      "inputs": [],
      "name": "owner",
      "outputs": [
        {
          "internalType": "address",
          "name": "",
          "type": "address"
        }
      ],
      "stateMutability": "view",
      "type": "function"
    },
    {
      "inputs": [
        {
          "internalType": "uint256",
          "name": "tokenId",
          "type": "uint256"
        }
      ],
      "name": "ownerOf",
      "outputs": [
        {
          "internalType": "address",
          "name": "",
          "type": "address"
        }
      ],
      "stateMutability": "view",
      "type": "function"
    },
    {
      "inputs": [
        {
          "internalType": "uint256",
          "name": "_tokenId",
          "type": "uint256"
        },
        {
          "internalType": "uint256",
          "name": "_salePrice",
          "type": "uint256"
        }
      ],
      "name": "royaltyInfo",
      "outputs": [
        {
          "internalType": "address",
          "name": "",
          "type": "address"
        },
        {
          "internalType": "uint256",
          "name": "",
          "type": "uint256"
        }
      ],
      "stateMutability": "view",
      "type": "function"
    },
    {
      "inputs": [],
      "name": "royaltyPercentage",
      "outputs": [
        {
          "internalType": "uint96",
          "name": "",
          "type": "uint96"
        }
      ],
      "stateMutability": "view",
      "type": "function"
    },
    {
      "inputs": [
        {
          "internalType": "address",
          "name": "to",
          "type": "address"
        },
        {
          "internalType": "string",
          "name": "uri",
          "type": "string"
        }
      ],
      "name": "safeMint",
      "outputs": [],
      "stateMutability": "nonpayable",
      "type": "function"
    },
    {
      "inputs": [
        {
          "internalType": "address",
          "name": "from",
          "type": "address"
        },
        {
          "internalType": "address",
          "name": "to",
          "type": "address"
        },
        {
          "internalType": "uint256",
          "name": "tokenId",
          "type": "uint256"
        }
      ],
      "name": "safeTransferFrom",
      "outputs": [],
      "stateMutability": "nonpayable",
      "type": "function"
    },
    {
      "inputs": [
        {
          "internalType": "address",
          "name": "from",
          "type": "address"
        },
        {
          "internalType": "address",
          "name": "to",
          "type": "address"
        },
        {
          "internalType": "uint256",
          "name": "tokenId",
          "type": "uint256"
        },
        {
          "internalType": "bytes",
          "name": "data",
          "type": "bytes"
        }
      ],
      "name": "safeTransferFrom",
      "outputs": [],
      "stateMutability": "nonpayable",
      "type": "function"
    },
    {
      "inputs": [
        {
          "internalType": "address",
          "name": "operator",
          "type": "address"
        },
        {
          "internalType": "bool",
          "name": "approved",
          "type": "bool"
        }
      ],
      "name": "setApprovalForAll",
      "outputs": [],
      "stateMutability": "nonpayable",
      "type": "function"
    },
    {
      "inputs": [
        {
          "internalType": "bytes4",
          "name": "interfaceId",
          "type": "bytes4"
        }
      ],
      "name": "supportsInterface",
      "outputs": [
        {
          "internalType": "bool",
          "name": "",
          "type": "bool"
        }
      ],
      "stateMutability": "view",
      "type": "function"
    },
    {
      "inputs": [],
      "name": "symbol",
      "outputs": [
        {
          "internalType": "string",
          "name": "",
          "type": "string"
        }
      ],
      "stateMutability": "view",
      "type": "function"
    },
    {
      "inputs": [],
      "name": "tokenPrice",
      "outputs": [
        {
          "internalType": "uint256",
          "name": "",
          "type": "uint256"
        }
      ],
      "stateMutability": "view",
      "type": "function"
    },
    {
      "inputs": [
        {
          "internalType": "uint256",
          "name": "tokenId",
          "type": "uint256"
        }
      ],
      "name": "tokenURI",
      "outputs": [
        {
          "internalType": "string",
          "name": "",
          "type": "string"
        }
      ],
      "stateMutability": "view",
      "type": "function"
    },
    {
      "inputs": [
        {
          "internalType": "address",
          "name": "from",
          "type": "address"
        },
        {
          "internalType": "address",
          "name": "to",
          "type": "address"
        },
        {
          "internalType": "uint256",
          "name": "tokenId",
          "type": "uint256"
        }
      ],
      "name": "transferFrom",
      "outputs": [],
      "stateMutability": "nonpayable",
      "type": "function"
    },
    {
      "inputs": [
        {
          "internalType": "address",
          "name": "newOwner",
          "type": "address"
        }
      ],
      "name": "transferOwnership",
      "outputs": [],
      "stateMutability": "nonpayable",
      "type": "function"
    }
  ],
  "bytecode": "0x60806040523480156200001157600080fd5b506040516200231838038062002318833981016040819052620000349162000454565b6040805180820182526009815268546f6b656e4e616d6560b81b6020808301918252835180850190945260038452622a25a760e91b908401528151919291620000809160009162000391565b5080516200009690600190602084019062000391565b505050620000b3620000ad6200015d60201b60201c565b62000161565b600c546c0100000000000000000000000090046001600160a01b0316156200010e5760405162461bcd60e51b8152602060048201526009602482015268125b9a5d1a585d195960ba1b60448201526064015b60405180910390fd5b600c80546001600160601b03166c010000000000000000000000006001600160a01b03861602179055600b819055620001488483620001b3565b6200015384620002b4565b50505050620004f1565b3390565b600780546001600160a01b038381166001600160a01b0319831681179093556040519116919082907f8be0079c531659141344cd1fd0a4f28419497f9722a3daafe3b4186f6b6457e090600090a35050565b6127106001600160601b0382161115620002235760405162461bcd60e51b815260206004820152602a60248201527f455243323938313a20726f79616c7479206665652077696c6c206578636565646044820152692073616c65507269636560b01b606482015260840162000105565b6001600160a01b0382166200027b5760405162461bcd60e51b815260206004820152601960248201527f455243323938313a20696e76616c696420726563656976657200000000000000604482015260640162000105565b604080518082019091526001600160a01b039092168083526001600160601b039091166020909201829052600160a01b90910217600855565b620002be62000333565b6001600160a01b038116620003255760405162461bcd60e51b815260206004820152602660248201527f4f776e61626c653a206e6577206f776e657220697320746865207a65726f206160448201526564647265737360d01b606482015260840162000105565b620003308162000161565b50565b6007546001600160a01b031633146200038f5760405162461bcd60e51b815260206004820181905260248201527f4f776e61626c653a2063616c6c6572206973206e6f7420746865206f776e6572604482015260640162000105565b565b8280546200039f90620004b4565b90600052602060002090601f016020900481019282620003c357600085556200040e565b82601f10620003de57805160ff19168380011785556200040e565b828001600101855582156200040e579182015b828111156200040e578251825591602001919060010190620003f1565b506200041c92915062000420565b5090565b5b808211156200041c576000815560010162000421565b80516001600160a01b03811681146200044f57600080fd5b919050565b600080600080608085870312156200046b57600080fd5b620004768562000437565b9350620004866020860162000437565b60408601519093506001600160601b0381168114620004a457600080fd5b6060959095015193969295505050565b600181811c90821680620004c957607f821691505b60208210811415620004eb57634e487b7160e01b600052602260045260246000fd5b50919050565b611e1780620005016000396000f3fe608060405234801561001057600080fd5b506004361061016c5760003560e01c80637ff9b596116100cd578063b88d4fde11610081578063d204c45e11610066578063d204c45e1461031d578063e985e9c514610330578063f2fde38b1461036c57600080fd5b8063b88d4fde146102f7578063c87b56dd1461030a57600080fd5b80638da5cb5b116100b25780638da5cb5b146102cb57806395d89b41146102dc578063a22cb465146102e457600080fd5b80637ff9b5961461028d5780638a71bb2d1461029657600080fd5b80632a55205a1161012457806342966c681161010957806342966c68146102465780636352211e1461025957806370a082311461026c57600080fd5b80632a55205a1461020157806342842e0e1461023357600080fd5b8063081812fc11610155578063081812fc146101ae578063095ea7b3146101d957806323b872dd146101ee57600080fd5b806301ffc9a71461017157806306fdde0314610199575b600080fd5b61018461017f36600461195f565b61037f565b60405190151581526020015b60405180910390f35b6101a1610390565b60405161019091906119d4565b6101c16101bc3660046119e7565b610422565b6040516001600160a01b039091168152602001610190565b6101ec6101e7366004611a1c565b610449565b005b6101ec6101fc366004611a46565b610580565b61021461020f366004611a82565b6105f8565b604080516001600160a01b039093168352602083019190915201610190565b6101ec610241366004611a46565b6106b3565b6101ec6102543660046119e7565b6106ce565b6101c16102673660046119e7565b610745565b61027f61027a366004611aa4565b6107aa565b604051908152602001610190565b61027f600b5481565b600c546102ae906bffffffffffffffffffffffff1681565b6040516bffffffffffffffffffffffff9091168152602001610190565b6007546001600160a01b03166101c1565b6101a1610844565b6101ec6102f2366004611abf565b610853565b6101ec610305366004611b87565b610862565b6101a16103183660046119e7565b6108e0565b6101ec61032b366004611c03565b6108eb565b61018461033e366004611c65565b6001600160a01b03918216600090815260056020908152604080832093909416825291909152205460ff1690565b6101ec61037a366004611aa4565b610922565b600061038a826109af565b92915050565b60606000805461039f90611c98565b80601f01602080910402602001604051908101604052809291908181526020018280546103cb90611c98565b80156104185780601f106103ed57610100808354040283529160200191610418565b820191906000526020600020905b8154815290600101906020018083116103fb57829003601f168201915b5050505050905090565b600061042d826109ed565b506000908152600460205260409020546001600160a01b031690565b600061045482610745565b9050806001600160a01b0316836001600160a01b031614156104e35760405162461bcd60e51b815260206004820152602160248201527f4552433732313a20617070726f76616c20746f2063757272656e74206f776e6560448201527f720000000000000000000000000000000000000000000000000000000000000060648201526084015b60405180910390fd5b336001600160a01b03821614806104ff57506104ff813361033e565b6105715760405162461bcd60e51b815260206004820152603d60248201527f4552433732313a20617070726f76652063616c6c6572206973206e6f7420746f60448201527f6b656e206f776e6572206f7220617070726f76656420666f7220616c6c00000060648201526084016104da565b61057b8383610a51565b505050565b61058b335b82610abf565b6105ed5760405162461bcd60e51b815260206004820152602d60248201527f4552433732313a2063616c6c6572206973206e6f7420746f6b656e206f776e6560448201526c1c881bdc88185c1c1c9bdd9959609a1b60648201526084016104da565b61057b838383610b3e565b60008281526009602090815260408083208151808301909252546001600160a01b038116808352600160a01b9091046bffffffffffffffffffffffff169282019290925282916106775750604080518082019091526008546001600160a01b0381168252600160a01b90046bffffffffffffffffffffffff1660208201525b60208101516000906127109061069b906bffffffffffffffffffffffff1687611ce9565b6106a59190611d08565b915196919550909350505050565b61057b83838360405180602001604052806000815250610862565b6106d733610585565b6107395760405162461bcd60e51b815260206004820152602d60248201527f4552433732313a2063616c6c6572206973206e6f7420746f6b656e206f776e6560448201526c1c881bdc88185c1c1c9bdd9959609a1b60648201526084016104da565b61074281610d44565b50565b6000818152600260205260408120546001600160a01b03168061038a5760405162461bcd60e51b815260206004820152601860248201527f4552433732313a20696e76616c696420746f6b656e204944000000000000000060448201526064016104da565b60006001600160a01b0382166108285760405162461bcd60e51b815260206004820152602960248201527f4552433732313a2061646472657373207a65726f206973206e6f74206120766160448201527f6c6964206f776e6572000000000000000000000000000000000000000000000060648201526084016104da565b506001600160a01b031660009081526003602052604090205490565b60606001805461039f90611c98565b61085e338383610d4d565b5050565b61086c3383610abf565b6108ce5760405162461bcd60e51b815260206004820152602d60248201527f4552433732313a2063616c6c6572206973206e6f7420746f6b656e206f776e6560448201526c1c881bdc88185c1c1c9bdd9959609a1b60648201526084016104da565b6108da84848484610e1c565b50505050565b606061038a82610e9a565b6108f3610fa3565b610901600a80546001019055565b600061090c600a5490565b90506109188382610fff565b61057b8183611019565b61092a610fa3565b6001600160a01b0381166109a65760405162461bcd60e51b815260206004820152602660248201527f4f776e61626c653a206e6577206f776e657220697320746865207a65726f206160448201527f646472657373000000000000000000000000000000000000000000000000000060648201526084016104da565b610742816110c2565b60006001600160e01b031982167f2a55205a00000000000000000000000000000000000000000000000000000000148061038a575061038a82611114565b6000818152600260205260409020546001600160a01b03166107425760405162461bcd60e51b815260206004820152601860248201527f4552433732313a20696e76616c696420746f6b656e204944000000000000000060448201526064016104da565b600081815260046020526040902080546001600160a01b0319166001600160a01b0384169081179091558190610a8682610745565b6001600160a01b03167f8c5be1e5ebec7d5bd14f71427d1e84f3dd0314c0f7b2291e5b200ac8c7c3b92560405160405180910390a45050565b600080610acb83610745565b9050806001600160a01b0316846001600160a01b03161480610b1257506001600160a01b0380821660009081526005602090815260408083209388168352929052205460ff165b80610b365750836001600160a01b0316610b2b84610422565b6001600160a01b0316145b949350505050565b826001600160a01b0316610b5182610745565b6001600160a01b031614610bb55760405162461bcd60e51b815260206004820152602560248201527f4552433732313a207472616e736665722066726f6d20696e636f72726563742060448201526437bbb732b960d91b60648201526084016104da565b6001600160a01b038216610c305760405162461bcd60e51b8152602060048201526024808201527f4552433732313a207472616e7366657220746f20746865207a65726f2061646460448201527f726573730000000000000000000000000000000000000000000000000000000060648201526084016104da565b610c3d83838360016111af565b826001600160a01b0316610c5082610745565b6001600160a01b031614610cb45760405162461bcd60e51b815260206004820152602560248201527f4552433732313a207472616e736665722066726f6d20696e636f72726563742060448201526437bbb732b960d91b60648201526084016104da565b600081815260046020908152604080832080546001600160a01b03199081169091556001600160a01b0387811680865260038552838620805460001901905590871680865283862080546001019055868652600290945282852080549092168417909155905184937fddf252ad1be2c89b69c2b068fc378daa952ba7f163c4a11628f55a4df523b3ef91a4505050565b61074281611237565b816001600160a01b0316836001600160a01b03161415610daf5760405162461bcd60e51b815260206004820152601960248201527f4552433732313a20617070726f766520746f2063616c6c65720000000000000060448201526064016104da565b6001600160a01b03838116600081815260056020908152604080832094871680845294825291829020805460ff191686151590811790915591519182527f17307eab39ab6107e8899845ad3d59bd9653f200f220920489ca2b5937696c31910160405180910390a3505050565b610e27848484610b3e565b610e3384848484611277565b6108da5760405162461bcd60e51b815260206004820152603260248201527f4552433732313a207472616e7366657220746f206e6f6e20455243373231526560448201527131b2b4bb32b91034b6b83632b6b2b73a32b960711b60648201526084016104da565b6060610ea5826109ed565b60008281526006602052604081208054610ebe90611c98565b80601f0160208091040260200160405190810160405280929190818152602001828054610eea90611c98565b8015610f375780601f10610f0c57610100808354040283529160200191610f37565b820191906000526020600020905b815481529060010190602001808311610f1a57829003601f168201915b505050505090506000610f5560408051602081019091526000815290565b9050805160001415610f68575092915050565b815115610f9a578082604051602001610f82929190611d2a565b60405160208183030381529060405292505050919050565b610b36846113c0565b6007546001600160a01b03163314610ffd5760405162461bcd60e51b815260206004820181905260248201527f4f776e61626c653a2063616c6c6572206973206e6f7420746865206f776e657260448201526064016104da565b565b61085e828260405180602001604052806000815250611434565b6000828152600260205260409020546001600160a01b03166110a35760405162461bcd60e51b815260206004820152602e60248201527f45524337323155524953746f726167653a2055524920736574206f66206e6f6e60448201527f6578697374656e7420746f6b656e00000000000000000000000000000000000060648201526084016104da565b6000828152600660209081526040909120825161057b9284019061187a565b600780546001600160a01b038381166001600160a01b0319831681179093556040519116919082907f8be0079c531659141344cd1fd0a4f28419497f9722a3daafe3b4186f6b6457e090600090a35050565b60006001600160e01b031982167f80ac58cd00000000000000000000000000000000000000000000000000000000148061117757506001600160e01b031982167f5b5e139f00000000000000000000000000000000000000000000000000000000145b8061038a57507f01ffc9a7000000000000000000000000000000000000000000000000000000006001600160e01b031983161461038a565b60018111156108da576001600160a01b038416156111f5576001600160a01b038416600090815260036020526040812080548392906111ef908490611d59565b90915550505b6001600160a01b038316156108da576001600160a01b0383166000908152600360205260408120805483929061122c908490611d70565b909155505050505050565b611240816114b2565b6000818152600660205260409020805461125990611c98565b159050610742576000818152600660205260408120610742916118fe565b60006001600160a01b0384163b156113b557604051630a85bd0160e11b81526001600160a01b0385169063150b7a02906112bb903390899088908890600401611d88565b6020604051808303816000875af19250505080156112f6575060408051601f3d908101601f191682019092526112f391810190611dc4565b60015b61139b573d808015611324576040519150601f19603f3d011682016040523d82523d6000602084013e611329565b606091505b5080516113935760405162461bcd60e51b815260206004820152603260248201527f4552433732313a207472616e7366657220746f206e6f6e20455243373231526560448201527131b2b4bb32b91034b6b83632b6b2b73a32b960711b60648201526084016104da565b805181602001fd5b6001600160e01b031916630a85bd0160e11b149050610b36565b506001949350505050565b60606113cb826109ed565b60006113e260408051602081019091526000815290565b90506000815111611402576040518060200160405280600081525061142d565b8061140c84611555565b60405160200161141d929190611d2a565b6040516020818303038152906040525b9392505050565b61143e83836115ff565b61144b6000848484611277565b61057b5760405162461bcd60e51b815260206004820152603260248201527f4552433732313a207472616e7366657220746f206e6f6e20455243373231526560448201527131b2b4bb32b91034b6b83632b6b2b73a32b960711b60648201526084016104da565b60006114bd82610745565b90506114cd8160008460016111af565b6114d682610745565b600083815260046020908152604080832080546001600160a01b03199081169091556001600160a01b0385168085526003845282852080546000190190558785526002909352818420805490911690555192935084927fddf252ad1be2c89b69c2b068fc378daa952ba7f163c4a11628f55a4df523b3ef908390a45050565b6060600061156283611798565b600101905060008167ffffffffffffffff81111561158257611582611afb565b6040519080825280601f01601f1916602001820160405280156115ac576020820181803683370190505b5090508181016020015b600019017f3031323334353637383961626364656600000000000000000000000000000000600a86061a8153600a85049450846115f2576115f7565b6115b6565b509392505050565b6001600160a01b0382166116555760405162461bcd60e51b815260206004820181905260248201527f4552433732313a206d696e7420746f20746865207a65726f206164647265737360448201526064016104da565b6000818152600260205260409020546001600160a01b0316156116ba5760405162461bcd60e51b815260206004820152601c60248201527f4552433732313a20746f6b656e20616c7265616479206d696e7465640000000060448201526064016104da565b6116c86000838360016111af565b6000818152600260205260409020546001600160a01b03161561172d5760405162461bcd60e51b815260206004820152601c60248201527f4552433732313a20746f6b656e20616c7265616479206d696e7465640000000060448201526064016104da565b6001600160a01b038216600081815260036020908152604080832080546001019055848352600290915280822080546001600160a01b0319168417905551839291907fddf252ad1be2c89b69c2b068fc378daa952ba7f163c4a11628f55a4df523b3ef908290a45050565b6000807a184f03e93ff9f4daa797ed6e38ed64bf6a1f01000000000000000083106117e1577a184f03e93ff9f4daa797ed6e38ed64bf6a1f010000000000000000830492506040015b6d04ee2d6d415b85acef8100000000831061180d576d04ee2d6d415b85acef8100000000830492506020015b662386f26fc10000831061182b57662386f26fc10000830492506010015b6305f5e1008310611843576305f5e100830492506008015b612710831061185757612710830492506004015b60648310611869576064830492506002015b600a831061038a5760010192915050565b82805461188690611c98565b90600052602060002090601f0160209004810192826118a857600085556118ee565b82601f106118c157805160ff19168380011785556118ee565b828001600101855582156118ee579182015b828111156118ee5782518255916020019190600101906118d3565b506118fa929150611934565b5090565b50805461190a90611c98565b6000825580601f1061191a575050565b601f01602090049060005260206000209081019061074291905b5b808211156118fa5760008155600101611935565b6001600160e01b03198116811461074257600080fd5b60006020828403121561197157600080fd5b813561142d81611949565b60005b8381101561199757818101518382015260200161197f565b838111156108da5750506000910152565b600081518084526119c081602086016020860161197c565b601f01601f19169290920160200192915050565b60208152600061142d60208301846119a8565b6000602082840312156119f957600080fd5b5035919050565b80356001600160a01b0381168114611a1757600080fd5b919050565b60008060408385031215611a2f57600080fd5b611a3883611a00565b946020939093013593505050565b600080600060608486031215611a5b57600080fd5b611a6484611a00565b9250611a7260208501611a00565b9150604084013590509250925092565b60008060408385031215611a9557600080fd5b50508035926020909101359150565b600060208284031215611ab657600080fd5b61142d82611a00565b60008060408385031215611ad257600080fd5b611adb83611a00565b915060208301358015158114611af057600080fd5b809150509250929050565b634e487b7160e01b600052604160045260246000fd5b600067ffffffffffffffff80841115611b2c57611b2c611afb565b604051601f8501601f19908116603f01168101908282118183101715611b5457611b54611afb565b81604052809350858152868686011115611b6d57600080fd5b858560208301376000602087830101525050509392505050565b60008060008060808587031215611b9d57600080fd5b611ba685611a00565b9350611bb460208601611a00565b925060408501359150606085013567ffffffffffffffff811115611bd757600080fd5b8501601f81018713611be857600080fd5b611bf787823560208401611b11565b91505092959194509250565b60008060408385031215611c1657600080fd5b611c1f83611a00565b9150602083013567ffffffffffffffff811115611c3b57600080fd5b8301601f81018513611c4c57600080fd5b611c5b85823560208401611b11565b9150509250929050565b60008060408385031215611c7857600080fd5b611c8183611a00565b9150611c8f60208401611a00565b90509250929050565b600181811c90821680611cac57607f821691505b60208210811415611ccd57634e487b7160e01b600052602260045260246000fd5b50919050565b634e487b7160e01b600052601160045260246000fd5b6000816000190483118215151615611d0357611d03611cd3565b500290565b600082611d2557634e487b7160e01b600052601260045260246000fd5b500490565b60008351611d3c81846020880161197c565b835190830190611d5081836020880161197c565b01949350505050565b600082821015611d6b57611d6b611cd3565b500390565b60008219821115611d8357611d83611cd3565b500190565b60006001600160a01b03808716835280861660208401525083604083015260806060830152611dba60808301846119a8565b9695505050505050565b600060208284031215611dd657600080fd5b815161142d8161194956fea26469706673582212206eb378f2900a24f10847c94764401492889288fb649afdf1fd29a62e8df82e3964736f6c634300080b0033",
  "linkReferences": {},
  "deployedLinkReferences": {}
}