{
  "_format": "hh-sol-artifact-1",
  "contractName": "NFT",
  "sourceName": "contracts/ERC721/NFT.sol",
  "abi": [
    {
      "inputs": [],
      "stateMutability": "nonpayable",
      "type": "constructor"
    },
    {
      "anonymous": false,
      "inputs": [
        {
          "indexed": true,
          "internalType": "address",
          "name": "owner",
          "type": "address"
        },
        {
          "indexed": true,
          "internalType": "address",
          "name": "approved",
          "type": "address"
        },
        {
          "indexed": true,
          "internalType": "uint256",
          "name": "tokenId",
          "type": "uint256"
        }
      ],
      "name": "Approval",
      "type": "event"
    },
    {
      "anonymous": false,
      "inputs": [
        {
          "indexed": true,
          "internalType": "address",
          "name": "owner",
          "type": "address"
        },
        {
          "indexed": true,
          "internalType": "address",
          "name": "operator",
          "type": "address"
        },
        {
          "indexed": false,
          "internalType": "bool",
          "name": "approved",
          "type": "bool"
        }
      ],
      "name": "ApprovalForAll",
      "type": "event"
    },
    {
      "anonymous": false,
      "inputs": [
        {
          "indexed": true,
          "internalType": "address",
          "name": "previousOwner",
          "type": "address"
        },
        {
          "indexed": true,
          "internalType": "address",
          "name": "newOwner",
          "type": "address"
        }
      ],
      "name": "OwnershipTransferred",
      "type": "event"
    },
    {
      "anonymous": false,
      "inputs": [
        {
          "indexed": true,
          "internalType": "address",
          "name": "from",
          "type": "address"
        },
        {
          "indexed": true,
          "internalType": "address",
          "name": "to",
          "type": "address"
        },
        {
          "indexed": true,
          "internalType": "uint256",
          "name": "tokenId",
          "type": "uint256"
        }
      ],
      "name": "Transfer",
      "type": "event"
    },
    {
      "inputs": [
        {
          "internalType": "address",
          "name": "to",
          "type": "address"
        },
        {
          "internalType": "uint256",
          "name": "tokenId",
          "type": "uint256"
        }
      ],
      "name": "approve",
      "outputs": [],
      "stateMutability": "nonpayable",
      "type": "function"
    },
    {
      "inputs": [],
      "name": "artist",
      "outputs": [
        {
          "internalType": "address",
          "name": "",
          "type": "address"
        }
      ],
      "stateMutability": "view",
      "type": "function"
    },
    {
      "inputs": [
        {
          "internalType": "address",
          "name": "owner",
          "type": "address"
        }
      ],
      "name": "balanceOf",
      "outputs": [
        {
          "internalType": "uint256",
          "name": "",
          "type": "uint256"
        }
      ],
      "stateMutability": "view",
      "type": "function"
    },
    {
      "inputs": [
        {
          "internalType": "uint256",
          "name": "tokenId",
          "type": "uint256"
        }
      ],
      "name": "burn",
      "outputs": [],
      "stateMutability": "nonpayable",
      "type": "function"
    },
    {
      "inputs": [
        {
          "internalType": "uint256",
          "name": "tokenId",
          "type": "uint256"
        }
      ],
      "name": "getApproved",
      "outputs": [
        {
          "internalType": "address",
          "name": "",
          "type": "address"
        }
      ],
      "stateMutability": "view",
      "type": "function"
    },
    {
      "inputs": [
        {
          "internalType": "address",
          "name": "_artist",
          "type": "address"
        },
        {
          "internalType": "address",
          "name": "_token",
          "type": "address"
        },
        {
          "internalType": "uint96",
          "name": "_royaltyPercentage",
          "type": "uint96"
        },
        {
          "internalType": "uint256",
          "name": "_tokenPrice",
          "type": "uint256"
        }
      ],
      "name": "init",
      "outputs": [],
      "stateMutability": "nonpayable",
      "type": "function"
    },
    {
      "inputs": [
        {
          "internalType": "address",
          "name": "owner",
          "type": "address"
        },
        {
          "internalType": "address",
          "name": "operator",
          "type": "address"
        }
      ],
      "name": "isApprovedForAll",
      "outputs": [
        {
          "internalType": "bool",
          "name": "",
          "type": "bool"
        }
      ],
      "stateMutability": "view",
      "type": "function"
    },
    {
      "inputs": [],
      "name": "name",
      "outputs": [
        {
          "internalType": "string",
          "name": "",
          "type": "string"
        }
      ],
      "stateMutability": "view",
      "type": "function"
    },
    {
      "inputs": [],
      "name": "owner",
      "outputs": [
        {
          "internalType": "address",
          "name": "",
          "type": "address"
        }
      ],
      "stateMutability": "view",
      "type": "function"
    },
    {
      "inputs": [
        {
          "internalType": "uint256",
          "name": "tokenId",
          "type": "uint256"
        }
      ],
      "name": "ownerOf",
      "outputs": [
        {
          "internalType": "address",
          "name": "",
          "type": "address"
        }
      ],
      "stateMutability": "view",
      "type": "function"
    },
    {
      "inputs": [
        {
          "internalType": "uint256",
          "name": "_tokenId",
          "type": "uint256"
        },
        {
          "internalType": "uint256",
          "name": "_salePrice",
          "type": "uint256"
        }
      ],
      "name": "royaltyInfo",
      "outputs": [
        {
          "internalType": "address",
          "name": "",
          "type": "address"
        },
        {
          "internalType": "uint256",
          "name": "",
          "type": "uint256"
        }
      ],
      "stateMutability": "view",
      "type": "function"
    },
    {
      "inputs": [],
      "name": "royaltyPercentage",
      "outputs": [
        {
          "internalType": "uint96",
          "name": "",
          "type": "uint96"
        }
      ],
      "stateMutability": "view",
      "type": "function"
    },
    {
      "inputs": [
        {
          "internalType": "address",
          "name": "to",
          "type": "address"
        },
        {
          "internalType": "string",
          "name": "uri",
          "type": "string"
        }
      ],
      "name": "safeMint",
      "outputs": [],
      "stateMutability": "nonpayable",
      "type": "function"
    },
    {
      "inputs": [
        {
          "internalType": "address",
          "name": "from",
          "type": "address"
        },
        {
          "internalType": "address",
          "name": "to",
          "type": "address"
        },
        {
          "internalType": "uint256",
          "name": "tokenId",
          "type": "uint256"
        }
      ],
      "name": "safeTransferFrom",
      "outputs": [],
      "stateMutability": "nonpayable",
      "type": "function"
    },
    {
      "inputs": [
        {
          "internalType": "address",
          "name": "from",
          "type": "address"
        },
        {
          "internalType": "address",
          "name": "to",
          "type": "address"
        },
        {
          "internalType": "uint256",
          "name": "tokenId",
          "type": "uint256"
        },
        {
          "internalType": "bytes",
          "name": "data",
          "type": "bytes"
        }
      ],
      "name": "safeTransferFrom",
      "outputs": [],
      "stateMutability": "nonpayable",
      "type": "function"
    },
    {
      "inputs": [
        {
          "internalType": "address",
          "name": "operator",
          "type": "address"
        },
        {
          "internalType": "bool",
          "name": "approved",
          "type": "bool"
        }
      ],
      "name": "setApprovalForAll",
      "outputs": [],
      "stateMutability": "nonpayable",
      "type": "function"
    },
    {
      "inputs": [
        {
          "internalType": "bytes4",
          "name": "interfaceId",
          "type": "bytes4"
        }
      ],
      "name": "supportsInterface",
      "outputs": [
        {
          "internalType": "bool",
          "name": "",
          "type": "bool"
        }
      ],
      "stateMutability": "view",
      "type": "function"
    },
    {
      "inputs": [],
      "name": "symbol",
      "outputs": [
        {
          "internalType": "string",
          "name": "",
          "type": "string"
        }
      ],
      "stateMutability": "view",
      "type": "function"
    },
    {
      "inputs": [],
      "name": "tokenPrice",
      "outputs": [
        {
          "internalType": "uint256",
          "name": "",
          "type": "uint256"
        }
      ],
      "stateMutability": "view",
      "type": "function"
    },
    {
      "inputs": [
        {
          "internalType": "uint256",
          "name": "tokenId",
          "type": "uint256"
        }
      ],
      "name": "tokenURI",
      "outputs": [
        {
          "internalType": "string",
          "name": "",
          "type": "string"
        }
      ],
      "stateMutability": "view",
      "type": "function"
    },
    {
      "inputs": [
        {
          "internalType": "address",
          "name": "from",
          "type": "address"
        },
        {
          "internalType": "address",
          "name": "to",
          "type": "address"
        },
        {
          "internalType": "uint256",
          "name": "tokenId",
          "type": "uint256"
        }
      ],
      "name": "transferFrom",
      "outputs": [],
      "stateMutability": "nonpayable",
      "type": "function"
    },
    {
      "inputs": [
        {
          "internalType": "address",
          "name": "newOwner",
          "type": "address"
        }
      ],
      "name": "transferOwnership",
      "outputs": [],
      "stateMutability": "nonpayable",
      "type": "function"
    }
  ],
  "bytecode": "0x60806040523480156200001157600080fd5b506040805180820182526009815268546f6b656e4e616d6560b81b6020808301918252835180850190945260038452622a25a760e91b9084015281519192916200005e91600091620000ed565b50805162000074906001906020840190620000ed565b505050620000916200008b6200009760201b60201c565b6200009b565b620001d0565b3390565b600780546001600160a01b038381166001600160a01b0319831681179093556040519116919082907f8be0079c531659141344cd1fd0a4f28419497f9722a3daafe3b4186f6b6457e090600090a35050565b828054620000fb9062000193565b90600052602060002090601f0160209004810192826200011f57600085556200016a565b82601f106200013a57805160ff19168380011785556200016a565b828001600101855582156200016a579182015b828111156200016a5782518255916020019190600101906200014d565b50620001789291506200017c565b5090565b5b808211156200017857600081556001016200017d565b600181811c90821680620001a857607f821691505b60208210811415620001ca57634e487b7160e01b600052602260045260246000fd5b50919050565b611db580620001e06000396000f3fe608060405234801561001057600080fd5b50600436106101425760003560e01c8063752eab26116100b8578063a22cb4651161007c578063a22cb465146102d6578063b88d4fde146102e9578063c87b56dd146102fc578063d204c45e1461030f578063e985e9c514610322578063f2fde38b1461035e57600080fd5b8063752eab26146102765780637ff9b596146102895780638a71bb2d146102925780638da5cb5b146102bd57806395d89b41146102ce57600080fd5b80632a55205a1161010a5780632a55205a146101d757806342842e0e1461020957806342966c681461021c57806343bc16121461022f5780636352211e1461024257806370a082311461025557600080fd5b806301ffc9a71461014757806306fdde031461016f578063081812fc14610184578063095ea7b3146101af57806323b872dd146101c4575b600080fd5b61015a6101553660046117bf565b610371565b60405190151581526020015b60405180910390f35b610177610382565b6040516101669190611834565b610197610192366004611847565b610414565b6040516001600160a01b039091168152602001610166565b6101c26101bd36600461187c565b61043b565b005b6101c26101d23660046118a6565b610556565b6101ea6101e53660046118e2565b610588565b604080516001600160a01b039093168352602083019190915201610166565b6101c26102173660046118a6565b610634565b6101c261022a366004611847565b61064f565b600b54610197906001600160a01b031681565b610197610250366004611847565b610680565b610268610263366004611904565b6106e0565b604051908152602001610166565b6101c261028436600461191f565b610766565b610268600c5481565b600d546102a5906001600160601b031681565b6040516001600160601b039091168152602001610166565b6007546001600160a01b0316610197565b61017761080f565b6101c26102e4366004611978565b61081e565b6101c26102f7366004611a40565b61082d565b61017761030a366004611847565b61085f565b6101c261031d366004611abc565b61086a565b61015a610330366004611b1e565b6001600160a01b03918216600090815260056020908152604080832093909416825291909152205460ff1690565b6101c261036c366004611904565b6108a1565b600061037c82610917565b92915050565b60606000805461039190611b51565b80601f01602080910402602001604051908101604052809291908181526020018280546103bd90611b51565b801561040a5780601f106103df5761010080835404028352916020019161040a565b820191906000526020600020905b8154815290600101906020018083116103ed57829003601f168201915b5050505050905090565b600061041f8261093c565b506000908152600460205260409020546001600160a01b031690565b600061044682610680565b9050806001600160a01b0316836001600160a01b031614156104b95760405162461bcd60e51b815260206004820152602160248201527f4552433732313a20617070726f76616c20746f2063757272656e74206f776e656044820152603960f91b60648201526084015b60405180910390fd5b336001600160a01b03821614806104d557506104d58133610330565b6105475760405162461bcd60e51b815260206004820152603d60248201527f4552433732313a20617070726f76652063616c6c6572206973206e6f7420746f60448201527f6b656e206f776e6572206f7220617070726f76656420666f7220616c6c00000060648201526084016104b0565b610551838361099b565b505050565b610561335b82610a09565b61057d5760405162461bcd60e51b81526004016104b090611b8c565b610551838383610a88565b60008281526009602090815260408083208151808301909252546001600160a01b038116808352600160a01b9091046001600160601b03169282019290925282916105fd5750604080518082019091526008546001600160a01b0381168252600160a01b90046001600160601b031660208201525b60208101516000906127109061061c906001600160601b031687611bef565b6106269190611c0e565b915196919550909350505050565b6105518383836040518060200160405280600081525061082d565b6106583361055b565b6106745760405162461bcd60e51b81526004016104b090611b8c565b61067d81610bf9565b50565b6000818152600260205260408120546001600160a01b03168061037c5760405162461bcd60e51b8152602060048201526018602482015277115490cdcc8c4e881a5b9d985b1a59081d1bdad95b88125160421b60448201526064016104b0565b60006001600160a01b03821661074a5760405162461bcd60e51b815260206004820152602960248201527f4552433732313a2061646472657373207a65726f206973206e6f7420612076616044820152683634b21037bbb732b960b91b60648201526084016104b0565b506001600160a01b031660009081526003602052604090205490565b600d54600160601b90046001600160a01b0316156107b25760405162461bcd60e51b8152602060048201526009602482015268125b9a5d1a585d195960ba1b60448201526064016104b0565b600b80546001600160a01b0319166001600160a01b0386811691909117909155600d80546001600160601b0316600160601b92861692909202919091179055600c8190556108008483610c02565b610809846108a1565b50505050565b60606001805461039190611b51565b610829338383610cff565b5050565b6108373383610a09565b6108535760405162461bcd60e51b81526004016104b090611b8c565b61080984848484610dce565b606061037c82610e01565b610872610f0a565b600061087d600a5490565b905061088d600a80546001019055565b6108978382610f66565b6105518183610f80565b6108a9610f0a565b6001600160a01b03811661090e5760405162461bcd60e51b815260206004820152602660248201527f4f776e61626c653a206e6577206f776e657220697320746865207a65726f206160448201526564647265737360d01b60648201526084016104b0565b61067d8161101a565b60006001600160e01b0319821663152a902d60e11b148061037c575061037c8261106c565b6000818152600260205260409020546001600160a01b031661067d5760405162461bcd60e51b8152602060048201526018602482015277115490cdcc8c4e881a5b9d985b1a59081d1bdad95b88125160421b60448201526064016104b0565b600081815260046020526040902080546001600160a01b0319166001600160a01b03841690811790915581906109d082610680565b6001600160a01b03167f8c5be1e5ebec7d5bd14f71427d1e84f3dd0314c0f7b2291e5b200ac8c7c3b92560405160405180910390a45050565b600080610a1583610680565b9050806001600160a01b0316846001600160a01b03161480610a5c57506001600160a01b0380821660009081526005602090815260408083209388168352929052205460ff165b80610a805750836001600160a01b0316610a7584610414565b6001600160a01b0316145b949350505050565b826001600160a01b0316610a9b82610680565b6001600160a01b031614610ac15760405162461bcd60e51b81526004016104b090611c30565b6001600160a01b038216610b235760405162461bcd60e51b8152602060048201526024808201527f4552433732313a207472616e7366657220746f20746865207a65726f206164646044820152637265737360e01b60648201526084016104b0565b610b3083838360016110bc565b826001600160a01b0316610b4382610680565b6001600160a01b031614610b695760405162461bcd60e51b81526004016104b090611c30565b600081815260046020908152604080832080546001600160a01b03199081169091556001600160a01b0387811680865260038552838620805460001901905590871680865283862080546001019055868652600290945282852080549092168417909155905184937fddf252ad1be2c89b69c2b068fc378daa952ba7f163c4a11628f55a4df523b3ef91a4505050565b61067d81611144565b6127106001600160601b0382161115610c705760405162461bcd60e51b815260206004820152602a60248201527f455243323938313a20726f79616c7479206665652077696c6c206578636565646044820152692073616c65507269636560b01b60648201526084016104b0565b6001600160a01b038216610cc65760405162461bcd60e51b815260206004820152601960248201527f455243323938313a20696e76616c69642072656365697665720000000000000060448201526064016104b0565b604080518082019091526001600160a01b039092168083526001600160601b039091166020909201829052600160a01b90910217600855565b816001600160a01b0316836001600160a01b03161415610d615760405162461bcd60e51b815260206004820152601960248201527f4552433732313a20617070726f766520746f2063616c6c65720000000000000060448201526064016104b0565b6001600160a01b03838116600081815260056020908152604080832094871680845294825291829020805460ff191686151590811790915591519182527f17307eab39ab6107e8899845ad3d59bd9653f200f220920489ca2b5937696c31910160405180910390a3505050565b610dd9848484610a88565b610de584848484611184565b6108095760405162461bcd60e51b81526004016104b090611c75565b6060610e0c8261093c565b60008281526006602052604081208054610e2590611b51565b80601f0160208091040260200160405190810160405280929190818152602001828054610e5190611b51565b8015610e9e5780601f10610e7357610100808354040283529160200191610e9e565b820191906000526020600020905b815481529060010190602001808311610e8157829003601f168201915b505050505090506000610ebc60408051602081019091526000815290565b9050805160001415610ecf575092915050565b815115610f01578082604051602001610ee9929190611cc7565b60405160208183030381529060405292505050919050565b610a8084611282565b6007546001600160a01b03163314610f645760405162461bcd60e51b815260206004820181905260248201527f4f776e61626c653a2063616c6c6572206973206e6f7420746865206f776e657260448201526064016104b0565b565b6108298282604051806020016040528060008152506112f6565b6000828152600260205260409020546001600160a01b0316610ffb5760405162461bcd60e51b815260206004820152602e60248201527f45524337323155524953746f726167653a2055524920736574206f66206e6f6e60448201526d32bc34b9ba32b73a103a37b5b2b760911b60648201526084016104b0565b60008281526006602090815260409091208251610551928401906116da565b600780546001600160a01b038381166001600160a01b0319831681179093556040519116919082907f8be0079c531659141344cd1fd0a4f28419497f9722a3daafe3b4186f6b6457e090600090a35050565b60006001600160e01b031982166380ac58cd60e01b148061109d57506001600160e01b03198216635b5e139f60e01b145b8061037c57506301ffc9a760e01b6001600160e01b031983161461037c565b6001811115610809576001600160a01b03841615611102576001600160a01b038416600090815260036020526040812080548392906110fc908490611cf6565b90915550505b6001600160a01b03831615610809576001600160a01b03831660009081526003602052604081208054839290611139908490611d0d565b909155505050505050565b61114d81611329565b6000818152600660205260409020805461116690611b51565b15905061067d57600081815260066020526040812061067d9161175e565b60006001600160a01b0384163b1561127757604051630a85bd0160e11b81526001600160a01b0385169063150b7a02906111c8903390899088908890600401611d25565b6020604051808303816000875af1925050508015611203575060408051601f3d908101601f1916820190925261120091810190611d62565b60015b61125d573d808015611231576040519150601f19603f3d011682016040523d82523d6000602084013e611236565b606091505b5080516112555760405162461bcd60e51b81526004016104b090611c75565b805181602001fd5b6001600160e01b031916630a85bd0160e11b149050610a80565b506001949350505050565b606061128d8261093c565b60006112a460408051602081019091526000815290565b905060008151116112c457604051806020016040528060008152506112ef565b806112ce846113cc565b6040516020016112df929190611cc7565b6040516020818303038152906040525b9392505050565b6113008383611469565b61130d6000848484611184565b6105515760405162461bcd60e51b81526004016104b090611c75565b600061133482610680565b90506113448160008460016110bc565b61134d82610680565b600083815260046020908152604080832080546001600160a01b03199081169091556001600160a01b0385168085526003845282852080546000190190558785526002909352818420805490911690555192935084927fddf252ad1be2c89b69c2b068fc378daa952ba7f163c4a11628f55a4df523b3ef908390a45050565b606060006113d983611602565b600101905060008167ffffffffffffffff8111156113f9576113f96119b4565b6040519080825280601f01601f191660200182016040528015611423576020820181803683370190505b5090508181016020015b600019016f181899199a1a9b1b9c1cb0b131b232b360811b600a86061a8153600a850494508461145c57611461565b61142d565b509392505050565b6001600160a01b0382166114bf5760405162461bcd60e51b815260206004820181905260248201527f4552433732313a206d696e7420746f20746865207a65726f206164647265737360448201526064016104b0565b6000818152600260205260409020546001600160a01b0316156115245760405162461bcd60e51b815260206004820152601c60248201527f4552433732313a20746f6b656e20616c7265616479206d696e7465640000000060448201526064016104b0565b6115326000838360016110bc565b6000818152600260205260409020546001600160a01b0316156115975760405162461bcd60e51b815260206004820152601c60248201527f4552433732313a20746f6b656e20616c7265616479206d696e7465640000000060448201526064016104b0565b6001600160a01b038216600081815260036020908152604080832080546001019055848352600290915280822080546001600160a01b0319168417905551839291907fddf252ad1be2c89b69c2b068fc378daa952ba7f163c4a11628f55a4df523b3ef908290a45050565b60008072184f03e93ff9f4daa797ed6e38ed64bf6a1f0160401b83106116415772184f03e93ff9f4daa797ed6e38ed64bf6a1f0160401b830492506040015b6d04ee2d6d415b85acef8100000000831061166d576d04ee2d6d415b85acef8100000000830492506020015b662386f26fc10000831061168b57662386f26fc10000830492506010015b6305f5e10083106116a3576305f5e100830492506008015b61271083106116b757612710830492506004015b606483106116c9576064830492506002015b600a831061037c5760010192915050565b8280546116e690611b51565b90600052602060002090601f016020900481019282611708576000855561174e565b82601f1061172157805160ff191683800117855561174e565b8280016001018555821561174e579182015b8281111561174e578251825591602001919060010190611733565b5061175a929150611794565b5090565b50805461176a90611b51565b6000825580601f1061177a575050565b601f01602090049060005260206000209081019061067d91905b5b8082111561175a5760008155600101611795565b6001600160e01b03198116811461067d57600080fd5b6000602082840312156117d157600080fd5b81356112ef816117a9565b60005b838110156117f75781810151838201526020016117df565b838111156108095750506000910152565b600081518084526118208160208601602086016117dc565b601f01601f19169290920160200192915050565b6020815260006112ef6020830184611808565b60006020828403121561185957600080fd5b5035919050565b80356001600160a01b038116811461187757600080fd5b919050565b6000806040838503121561188f57600080fd5b61189883611860565b946020939093013593505050565b6000806000606084860312156118bb57600080fd5b6118c484611860565b92506118d260208501611860565b9150604084013590509250925092565b600080604083850312156118f557600080fd5b50508035926020909101359150565b60006020828403121561191657600080fd5b6112ef82611860565b6000806000806080858703121561193557600080fd5b61193e85611860565b935061194c60208601611860565b925060408501356001600160601b038116811461196857600080fd5b9396929550929360600135925050565b6000806040838503121561198b57600080fd5b61199483611860565b9150602083013580151581146119a957600080fd5b809150509250929050565b634e487b7160e01b600052604160045260246000fd5b600067ffffffffffffffff808411156119e5576119e56119b4565b604051601f8501601f19908116603f01168101908282118183101715611a0d57611a0d6119b4565b81604052809350858152868686011115611a2657600080fd5b858560208301376000602087830101525050509392505050565b60008060008060808587031215611a5657600080fd5b611a5f85611860565b9350611a6d60208601611860565b925060408501359150606085013567ffffffffffffffff811115611a9057600080fd5b8501601f81018713611aa157600080fd5b611ab0878235602084016119ca565b91505092959194509250565b60008060408385031215611acf57600080fd5b611ad883611860565b9150602083013567ffffffffffffffff811115611af457600080fd5b8301601f81018513611b0557600080fd5b611b14858235602084016119ca565b9150509250929050565b60008060408385031215611b3157600080fd5b611b3a83611860565b9150611b4860208401611860565b90509250929050565b600181811c90821680611b6557607f821691505b60208210811415611b8657634e487b7160e01b600052602260045260246000fd5b50919050565b6020808252602d908201527f4552433732313a2063616c6c6572206973206e6f7420746f6b656e206f776e6560408201526c1c881bdc88185c1c1c9bdd9959609a1b606082015260800190565b634e487b7160e01b600052601160045260246000fd5b6000816000190483118215151615611c0957611c09611bd9565b500290565b600082611c2b57634e487b7160e01b600052601260045260246000fd5b500490565b60208082526025908201527f4552433732313a207472616e736665722066726f6d20696e636f72726563742060408201526437bbb732b960d91b606082015260800190565b60208082526032908201527f4552433732313a207472616e7366657220746f206e6f6e20455243373231526560408201527131b2b4bb32b91034b6b83632b6b2b73a32b960711b606082015260800190565b60008351611cd98184602088016117dc565b835190830190611ced8183602088016117dc565b01949350505050565b600082821015611d0857611d08611bd9565b500390565b60008219821115611d2057611d20611bd9565b500190565b6001600160a01b0385811682528416602082015260408101839052608060608201819052600090611d5890830184611808565b9695505050505050565b600060208284031215611d7457600080fd5b81516112ef816117a956fea2646970667358221220a0ff3f035168bf5b885695f29ba8fdf4603df6b992efee7f889f1c803f1a0cbe64736f6c634300080b0033",
  "linkReferences": {},
  "deployedLinkReferences": {}
}