{
  "_format": "hh-sol-artifact-1",
  "contractName": "NFT",
  "sourceName": "contracts/ERC721/NFT.sol",
  "abi": [
    {
      "inputs": [],
      "stateMutability": "nonpayable",
      "type": "constructor"
    },
    {
      "anonymous": false,
      "inputs": [
        {
          "indexed": true,
          "internalType": "address",
          "name": "owner",
          "type": "address"
        },
        {
          "indexed": true,
          "internalType": "address",
          "name": "approved",
          "type": "address"
        },
        {
          "indexed": true,
          "internalType": "uint256",
          "name": "tokenId",
          "type": "uint256"
        }
      ],
      "name": "Approval",
      "type": "event"
    },
    {
      "anonymous": false,
      "inputs": [
        {
          "indexed": true,
          "internalType": "address",
          "name": "owner",
          "type": "address"
        },
        {
          "indexed": true,
          "internalType": "address",
          "name": "operator",
          "type": "address"
        },
        {
          "indexed": false,
          "internalType": "bool",
          "name": "approved",
          "type": "bool"
        }
      ],
      "name": "ApprovalForAll",
      "type": "event"
    },
    {
      "anonymous": false,
      "inputs": [
        {
          "indexed": true,
          "internalType": "address",
          "name": "previousOwner",
          "type": "address"
        },
        {
          "indexed": true,
          "internalType": "address",
          "name": "newOwner",
          "type": "address"
        }
      ],
      "name": "OwnershipTransferred",
      "type": "event"
    },
    {
      "anonymous": false,
      "inputs": [
        {
          "indexed": true,
          "internalType": "address",
          "name": "from",
          "type": "address"
        },
        {
          "indexed": true,
          "internalType": "address",
          "name": "to",
          "type": "address"
        },
        {
          "indexed": true,
          "internalType": "uint256",
          "name": "tokenId",
          "type": "uint256"
        }
      ],
      "name": "Transfer",
      "type": "event"
    },
    {
      "inputs": [
        {
          "internalType": "address",
          "name": "to",
          "type": "address"
        },
        {
          "internalType": "uint256",
          "name": "tokenId",
          "type": "uint256"
        }
      ],
      "name": "approve",
      "outputs": [],
      "stateMutability": "nonpayable",
      "type": "function"
    },
    {
      "inputs": [],
      "name": "artist",
      "outputs": [
        {
          "internalType": "address",
          "name": "",
          "type": "address"
        }
      ],
      "stateMutability": "view",
      "type": "function"
    },
    {
      "inputs": [
        {
          "internalType": "address",
          "name": "owner",
          "type": "address"
        }
      ],
      "name": "balanceOf",
      "outputs": [
        {
          "internalType": "uint256",
          "name": "",
          "type": "uint256"
        }
      ],
      "stateMutability": "view",
      "type": "function"
    },
    {
      "inputs": [
        {
          "internalType": "uint256",
          "name": "tokenId",
          "type": "uint256"
        }
      ],
      "name": "burn",
      "outputs": [],
      "stateMutability": "nonpayable",
      "type": "function"
    },
    {
      "inputs": [
        {
          "internalType": "uint256",
          "name": "tokenId",
          "type": "uint256"
        }
      ],
      "name": "getApproved",
      "outputs": [
        {
          "internalType": "address",
          "name": "",
          "type": "address"
        }
      ],
      "stateMutability": "view",
      "type": "function"
    },
    {
      "inputs": [
        {
          "internalType": "address",
          "name": "_artist",
          "type": "address"
        },
        {
          "internalType": "address",
          "name": "_token",
          "type": "address"
        },
        {
          "internalType": "uint96",
          "name": "_royaltyPercentage",
          "type": "uint96"
        },
        {
          "internalType": "uint256",
          "name": "_tokenPrice",
          "type": "uint256"
        }
      ],
      "name": "init",
      "outputs": [],
      "stateMutability": "nonpayable",
      "type": "function"
    },
    {
      "inputs": [
        {
          "internalType": "address",
          "name": "owner",
          "type": "address"
        },
        {
          "internalType": "address",
          "name": "operator",
          "type": "address"
        }
      ],
      "name": "isApprovedForAll",
      "outputs": [
        {
          "internalType": "bool",
          "name": "",
          "type": "bool"
        }
      ],
      "stateMutability": "view",
      "type": "function"
    },
    {
      "inputs": [],
      "name": "name",
      "outputs": [
        {
          "internalType": "string",
          "name": "",
          "type": "string"
        }
      ],
      "stateMutability": "view",
      "type": "function"
    },
    {
      "inputs": [],
      "name": "owner",
      "outputs": [
        {
          "internalType": "address",
          "name": "",
          "type": "address"
        }
      ],
      "stateMutability": "view",
      "type": "function"
    },
    {
      "inputs": [
        {
          "internalType": "uint256",
          "name": "tokenId",
          "type": "uint256"
        }
      ],
      "name": "ownerOf",
      "outputs": [
        {
          "internalType": "address",
          "name": "",
          "type": "address"
        }
      ],
      "stateMutability": "view",
      "type": "function"
    },
    {
      "inputs": [],
      "name": "renounceOwnership",
      "outputs": [],
      "stateMutability": "nonpayable",
      "type": "function"
    },
    {
      "inputs": [
        {
          "internalType": "uint256",
          "name": "_tokenId",
          "type": "uint256"
        },
        {
          "internalType": "uint256",
          "name": "_salePrice",
          "type": "uint256"
        }
      ],
      "name": "royaltyInfo",
      "outputs": [
        {
          "internalType": "address",
          "name": "",
          "type": "address"
        },
        {
          "internalType": "uint256",
          "name": "",
          "type": "uint256"
        }
      ],
      "stateMutability": "view",
      "type": "function"
    },
    {
      "inputs": [],
      "name": "royaltyPercentage",
      "outputs": [
        {
          "internalType": "uint96",
          "name": "",
          "type": "uint96"
        }
      ],
      "stateMutability": "view",
      "type": "function"
    },
    {
      "inputs": [
        {
          "internalType": "address",
          "name": "to",
          "type": "address"
        },
        {
          "internalType": "string",
          "name": "uri",
          "type": "string"
        }
      ],
      "name": "safeMint",
      "outputs": [],
      "stateMutability": "nonpayable",
      "type": "function"
    },
    {
      "inputs": [
        {
          "internalType": "address",
          "name": "from",
          "type": "address"
        },
        {
          "internalType": "address",
          "name": "to",
          "type": "address"
        },
        {
          "internalType": "uint256",
          "name": "tokenId",
          "type": "uint256"
        }
      ],
      "name": "safeTransferFrom",
      "outputs": [],
      "stateMutability": "nonpayable",
      "type": "function"
    },
    {
      "inputs": [
        {
          "internalType": "address",
          "name": "from",
          "type": "address"
        },
        {
          "internalType": "address",
          "name": "to",
          "type": "address"
        },
        {
          "internalType": "uint256",
          "name": "tokenId",
          "type": "uint256"
        },
        {
          "internalType": "bytes",
          "name": "data",
          "type": "bytes"
        }
      ],
      "name": "safeTransferFrom",
      "outputs": [],
      "stateMutability": "nonpayable",
      "type": "function"
    },
    {
      "inputs": [
        {
          "internalType": "address",
          "name": "operator",
          "type": "address"
        },
        {
          "internalType": "bool",
          "name": "approved",
          "type": "bool"
        }
      ],
      "name": "setApprovalForAll",
      "outputs": [],
      "stateMutability": "nonpayable",
      "type": "function"
    },
    {
      "inputs": [
        {
          "internalType": "bytes4",
          "name": "interfaceId",
          "type": "bytes4"
        }
      ],
      "name": "supportsInterface",
      "outputs": [
        {
          "internalType": "bool",
          "name": "",
          "type": "bool"
        }
      ],
      "stateMutability": "view",
      "type": "function"
    },
    {
      "inputs": [],
      "name": "symbol",
      "outputs": [
        {
          "internalType": "string",
          "name": "",
          "type": "string"
        }
      ],
      "stateMutability": "view",
      "type": "function"
    },
    {
      "inputs": [],
      "name": "tokenPrice",
      "outputs": [
        {
          "internalType": "uint256",
          "name": "",
          "type": "uint256"
        }
      ],
      "stateMutability": "view",
      "type": "function"
    },
    {
      "inputs": [
        {
          "internalType": "uint256",
          "name": "tokenId",
          "type": "uint256"
        }
      ],
      "name": "tokenURI",
      "outputs": [
        {
          "internalType": "string",
          "name": "",
          "type": "string"
        }
      ],
      "stateMutability": "view",
      "type": "function"
    },
    {
      "inputs": [
        {
          "internalType": "address",
          "name": "from",
          "type": "address"
        },
        {
          "internalType": "address",
          "name": "to",
          "type": "address"
        },
        {
          "internalType": "uint256",
          "name": "tokenId",
          "type": "uint256"
        }
      ],
      "name": "transferFrom",
      "outputs": [],
      "stateMutability": "nonpayable",
      "type": "function"
    },
    {
      "inputs": [
        {
          "internalType": "address",
          "name": "newOwner",
          "type": "address"
        }
      ],
      "name": "transferOwnership",
      "outputs": [],
      "stateMutability": "nonpayable",
      "type": "function"
    }
  ],
  "bytecode": "0x60806040523480156200001157600080fd5b506040805180820182526009815268546f6b656e4e616d6560b81b6020808301918252835180850190945260038452622a25a760e91b9084015281519192916200005e91600091620000ed565b50805162000074906001906020840190620000ed565b505050620000916200008b6200009760201b60201c565b6200009b565b620001d0565b3390565b600780546001600160a01b038381166001600160a01b0319831681179093556040519116919082907f8be0079c531659141344cd1fd0a4f28419497f9722a3daafe3b4186f6b6457e090600090a35050565b828054620000fb9062000193565b90600052602060002090601f0160209004810192826200011f57600085556200016a565b82601f106200013a57805160ff19168380011785556200016a565b828001600101855582156200016a579182015b828111156200016a5782518255916020019190600101906200014d565b50620001789291506200017c565b5090565b5b808211156200017857600081556001016200017d565b600181811c90821680620001a857607f821691505b60208210811415620001ca57634e487b7160e01b600052602260045260246000fd5b50919050565b611dda80620001e06000396000f3fe608060405234801561001057600080fd5b506004361061014d5760003560e01c8063715018a6116100c3578063a22cb4651161007c578063a22cb465146102e9578063b88d4fde146102fc578063c87b56dd1461030f578063d204c45e14610322578063e985e9c514610335578063f2fde38b1461037157600080fd5b8063715018a614610281578063752eab26146102895780637ff9b5961461029c5780638a71bb2d146102a55780638da5cb5b146102d057806395d89b41146102e157600080fd5b80632a55205a116101155780632a55205a146101e257806342842e0e1461021457806342966c681461022757806343bc16121461023a5780636352211e1461024d57806370a082311461026057600080fd5b806301ffc9a71461015257806306fdde031461017a578063081812fc1461018f578063095ea7b3146101ba57806323b872dd146101cf575b600080fd5b6101656101603660046117e4565b610384565b60405190151581526020015b60405180910390f35b610182610395565b6040516101719190611859565b6101a261019d36600461186c565b610427565b6040516001600160a01b039091168152602001610171565b6101cd6101c83660046118a1565b61044e565b005b6101cd6101dd3660046118cb565b610569565b6101f56101f0366004611907565b61059b565b604080516001600160a01b039093168352602083019190915201610171565b6101cd6102223660046118cb565b610647565b6101cd61023536600461186c565b610662565b600b546101a2906001600160a01b031681565b6101a261025b36600461186c565b610693565b61027361026e366004611929565b6106f3565b604051908152602001610171565b6101cd610779565b6101cd610297366004611944565b61078d565b610273600c5481565b600d546102b8906001600160601b031681565b6040516001600160601b039091168152602001610171565b6007546001600160a01b03166101a2565b610182610836565b6101cd6102f736600461199d565b610845565b6101cd61030a366004611a65565b610854565b61018261031d36600461186c565b610886565b6101cd610330366004611ae1565b610891565b610165610343366004611b43565b6001600160a01b03918216600090815260056020908152604080832093909416825291909152205460ff1690565b6101cd61037f366004611929565b6108c8565b600061038f8261093e565b92915050565b6060600080546103a490611b76565b80601f01602080910402602001604051908101604052809291908181526020018280546103d090611b76565b801561041d5780601f106103f25761010080835404028352916020019161041d565b820191906000526020600020905b81548152906001019060200180831161040057829003601f168201915b5050505050905090565b600061043282610963565b506000908152600460205260409020546001600160a01b031690565b600061045982610693565b9050806001600160a01b0316836001600160a01b031614156104cc5760405162461bcd60e51b815260206004820152602160248201527f4552433732313a20617070726f76616c20746f2063757272656e74206f776e656044820152603960f91b60648201526084015b60405180910390fd5b336001600160a01b03821614806104e857506104e88133610343565b61055a5760405162461bcd60e51b815260206004820152603d60248201527f4552433732313a20617070726f76652063616c6c6572206973206e6f7420746f60448201527f6b656e206f776e6572206f7220617070726f76656420666f7220616c6c00000060648201526084016104c3565b61056483836109c2565b505050565b610574335b82610a30565b6105905760405162461bcd60e51b81526004016104c390611bb1565b610564838383610aaf565b60008281526009602090815260408083208151808301909252546001600160a01b038116808352600160a01b9091046001600160601b03169282019290925282916106105750604080518082019091526008546001600160a01b0381168252600160a01b90046001600160601b031660208201525b60208101516000906127109061062f906001600160601b031687611c14565b6106399190611c33565b915196919550909350505050565b61056483838360405180602001604052806000815250610854565b61066b3361056e565b6106875760405162461bcd60e51b81526004016104c390611bb1565b61069081610c20565b50565b6000818152600260205260408120546001600160a01b03168061038f5760405162461bcd60e51b8152602060048201526018602482015277115490cdcc8c4e881a5b9d985b1a59081d1bdad95b88125160421b60448201526064016104c3565b60006001600160a01b03821661075d5760405162461bcd60e51b815260206004820152602960248201527f4552433732313a2061646472657373207a65726f206973206e6f7420612076616044820152683634b21037bbb732b960b91b60648201526084016104c3565b506001600160a01b031660009081526003602052604090205490565b610781610c29565b61078b6000610c83565b565b600d54600160601b90046001600160a01b0316156107d95760405162461bcd60e51b8152602060048201526009602482015268125b9a5d1a585d195960ba1b60448201526064016104c3565b600b80546001600160a01b0319166001600160a01b0386811691909117909155600d80546001600160601b0316600160601b92861692909202919091179055600c8190556108278483610cd5565b610830846108c8565b50505050565b6060600180546103a490611b76565b610850338383610dd2565b5050565b61085e3383610a30565b61087a5760405162461bcd60e51b81526004016104c390611bb1565b61083084848484610ea1565b606061038f82610ed4565b610899610c29565b60006108a4600a5490565b90506108b4600a80546001019055565b6108be8382610fdd565b6105648183610ff7565b6108d0610c29565b6001600160a01b0381166109355760405162461bcd60e51b815260206004820152602660248201527f4f776e61626c653a206e6577206f776e657220697320746865207a65726f206160448201526564647265737360d01b60648201526084016104c3565b61069081610c83565b60006001600160e01b0319821663152a902d60e11b148061038f575061038f82611091565b6000818152600260205260409020546001600160a01b03166106905760405162461bcd60e51b8152602060048201526018602482015277115490cdcc8c4e881a5b9d985b1a59081d1bdad95b88125160421b60448201526064016104c3565b600081815260046020526040902080546001600160a01b0319166001600160a01b03841690811790915581906109f782610693565b6001600160a01b03167f8c5be1e5ebec7d5bd14f71427d1e84f3dd0314c0f7b2291e5b200ac8c7c3b92560405160405180910390a45050565b600080610a3c83610693565b9050806001600160a01b0316846001600160a01b03161480610a8357506001600160a01b0380821660009081526005602090815260408083209388168352929052205460ff165b80610aa75750836001600160a01b0316610a9c84610427565b6001600160a01b0316145b949350505050565b826001600160a01b0316610ac282610693565b6001600160a01b031614610ae85760405162461bcd60e51b81526004016104c390611c55565b6001600160a01b038216610b4a5760405162461bcd60e51b8152602060048201526024808201527f4552433732313a207472616e7366657220746f20746865207a65726f206164646044820152637265737360e01b60648201526084016104c3565b610b5783838360016110e1565b826001600160a01b0316610b6a82610693565b6001600160a01b031614610b905760405162461bcd60e51b81526004016104c390611c55565b600081815260046020908152604080832080546001600160a01b03199081169091556001600160a01b0387811680865260038552838620805460001901905590871680865283862080546001019055868652600290945282852080549092168417909155905184937fddf252ad1be2c89b69c2b068fc378daa952ba7f163c4a11628f55a4df523b3ef91a4505050565b61069081611169565b6007546001600160a01b0316331461078b5760405162461bcd60e51b815260206004820181905260248201527f4f776e61626c653a2063616c6c6572206973206e6f7420746865206f776e657260448201526064016104c3565b600780546001600160a01b038381166001600160a01b0319831681179093556040519116919082907f8be0079c531659141344cd1fd0a4f28419497f9722a3daafe3b4186f6b6457e090600090a35050565b6127106001600160601b0382161115610d435760405162461bcd60e51b815260206004820152602a60248201527f455243323938313a20726f79616c7479206665652077696c6c206578636565646044820152692073616c65507269636560b01b60648201526084016104c3565b6001600160a01b038216610d995760405162461bcd60e51b815260206004820152601960248201527f455243323938313a20696e76616c69642072656365697665720000000000000060448201526064016104c3565b604080518082019091526001600160a01b039092168083526001600160601b039091166020909201829052600160a01b90910217600855565b816001600160a01b0316836001600160a01b03161415610e345760405162461bcd60e51b815260206004820152601960248201527f4552433732313a20617070726f766520746f2063616c6c65720000000000000060448201526064016104c3565b6001600160a01b03838116600081815260056020908152604080832094871680845294825291829020805460ff191686151590811790915591519182527f17307eab39ab6107e8899845ad3d59bd9653f200f220920489ca2b5937696c31910160405180910390a3505050565b610eac848484610aaf565b610eb8848484846111a9565b6108305760405162461bcd60e51b81526004016104c390611c9a565b6060610edf82610963565b60008281526006602052604081208054610ef890611b76565b80601f0160208091040260200160405190810160405280929190818152602001828054610f2490611b76565b8015610f715780601f10610f4657610100808354040283529160200191610f71565b820191906000526020600020905b815481529060010190602001808311610f5457829003601f168201915b505050505090506000610f8f60408051602081019091526000815290565b9050805160001415610fa2575092915050565b815115610fd4578082604051602001610fbc929190611cec565b60405160208183030381529060405292505050919050565b610aa7846112a7565b61085082826040518060200160405280600081525061131b565b6000828152600260205260409020546001600160a01b03166110725760405162461bcd60e51b815260206004820152602e60248201527f45524337323155524953746f726167653a2055524920736574206f66206e6f6e60448201526d32bc34b9ba32b73a103a37b5b2b760911b60648201526084016104c3565b60008281526006602090815260409091208251610564928401906116ff565b60006001600160e01b031982166380ac58cd60e01b14806110c257506001600160e01b03198216635b5e139f60e01b145b8061038f57506301ffc9a760e01b6001600160e01b031983161461038f565b6001811115610830576001600160a01b03841615611127576001600160a01b03841660009081526003602052604081208054839290611121908490611d1b565b90915550505b6001600160a01b03831615610830576001600160a01b0383166000908152600360205260408120805483929061115e908490611d32565b909155505050505050565b6111728161134e565b6000818152600660205260409020805461118b90611b76565b15905061069057600081815260066020526040812061069091611783565b60006001600160a01b0384163b1561129c57604051630a85bd0160e11b81526001600160a01b0385169063150b7a02906111ed903390899088908890600401611d4a565b6020604051808303816000875af1925050508015611228575060408051601f3d908101601f1916820190925261122591810190611d87565b60015b611282573d808015611256576040519150601f19603f3d011682016040523d82523d6000602084013e61125b565b606091505b50805161127a5760405162461bcd60e51b81526004016104c390611c9a565b805181602001fd5b6001600160e01b031916630a85bd0160e11b149050610aa7565b506001949350505050565b60606112b282610963565b60006112c960408051602081019091526000815290565b905060008151116112e95760405180602001604052806000815250611314565b806112f3846113f1565b604051602001611304929190611cec565b6040516020818303038152906040525b9392505050565b611325838361148e565b61133260008484846111a9565b6105645760405162461bcd60e51b81526004016104c390611c9a565b600061135982610693565b90506113698160008460016110e1565b61137282610693565b600083815260046020908152604080832080546001600160a01b03199081169091556001600160a01b0385168085526003845282852080546000190190558785526002909352818420805490911690555192935084927fddf252ad1be2c89b69c2b068fc378daa952ba7f163c4a11628f55a4df523b3ef908390a45050565b606060006113fe83611627565b600101905060008167ffffffffffffffff81111561141e5761141e6119d9565b6040519080825280601f01601f191660200182016040528015611448576020820181803683370190505b5090508181016020015b600019016f181899199a1a9b1b9c1cb0b131b232b360811b600a86061a8153600a850494508461148157611486565b611452565b509392505050565b6001600160a01b0382166114e45760405162461bcd60e51b815260206004820181905260248201527f4552433732313a206d696e7420746f20746865207a65726f206164647265737360448201526064016104c3565b6000818152600260205260409020546001600160a01b0316156115495760405162461bcd60e51b815260206004820152601c60248201527f4552433732313a20746f6b656e20616c7265616479206d696e7465640000000060448201526064016104c3565b6115576000838360016110e1565b6000818152600260205260409020546001600160a01b0316156115bc5760405162461bcd60e51b815260206004820152601c60248201527f4552433732313a20746f6b656e20616c7265616479206d696e7465640000000060448201526064016104c3565b6001600160a01b038216600081815260036020908152604080832080546001019055848352600290915280822080546001600160a01b0319168417905551839291907fddf252ad1be2c89b69c2b068fc378daa952ba7f163c4a11628f55a4df523b3ef908290a45050565b60008072184f03e93ff9f4daa797ed6e38ed64bf6a1f0160401b83106116665772184f03e93ff9f4daa797ed6e38ed64bf6a1f0160401b830492506040015b6d04ee2d6d415b85acef81000000008310611692576d04ee2d6d415b85acef8100000000830492506020015b662386f26fc1000083106116b057662386f26fc10000830492506010015b6305f5e10083106116c8576305f5e100830492506008015b61271083106116dc57612710830492506004015b606483106116ee576064830492506002015b600a831061038f5760010192915050565b82805461170b90611b76565b90600052602060002090601f01602090048101928261172d5760008555611773565b82601f1061174657805160ff1916838001178555611773565b82800160010185558215611773579182015b82811115611773578251825591602001919060010190611758565b5061177f9291506117b9565b5090565b50805461178f90611b76565b6000825580601f1061179f575050565b601f01602090049060005260206000209081019061069091905b5b8082111561177f57600081556001016117ba565b6001600160e01b03198116811461069057600080fd5b6000602082840312156117f657600080fd5b8135611314816117ce565b60005b8381101561181c578181015183820152602001611804565b838111156108305750506000910152565b60008151808452611845816020860160208601611801565b601f01601f19169290920160200192915050565b602081526000611314602083018461182d565b60006020828403121561187e57600080fd5b5035919050565b80356001600160a01b038116811461189c57600080fd5b919050565b600080604083850312156118b457600080fd5b6118bd83611885565b946020939093013593505050565b6000806000606084860312156118e057600080fd5b6118e984611885565b92506118f760208501611885565b9150604084013590509250925092565b6000806040838503121561191a57600080fd5b50508035926020909101359150565b60006020828403121561193b57600080fd5b61131482611885565b6000806000806080858703121561195a57600080fd5b61196385611885565b935061197160208601611885565b925060408501356001600160601b038116811461198d57600080fd5b9396929550929360600135925050565b600080604083850312156119b057600080fd5b6119b983611885565b9150602083013580151581146119ce57600080fd5b809150509250929050565b634e487b7160e01b600052604160045260246000fd5b600067ffffffffffffffff80841115611a0a57611a0a6119d9565b604051601f8501601f19908116603f01168101908282118183101715611a3257611a326119d9565b81604052809350858152868686011115611a4b57600080fd5b858560208301376000602087830101525050509392505050565b60008060008060808587031215611a7b57600080fd5b611a8485611885565b9350611a9260208601611885565b925060408501359150606085013567ffffffffffffffff811115611ab557600080fd5b8501601f81018713611ac657600080fd5b611ad5878235602084016119ef565b91505092959194509250565b60008060408385031215611af457600080fd5b611afd83611885565b9150602083013567ffffffffffffffff811115611b1957600080fd5b8301601f81018513611b2a57600080fd5b611b39858235602084016119ef565b9150509250929050565b60008060408385031215611b5657600080fd5b611b5f83611885565b9150611b6d60208401611885565b90509250929050565b600181811c90821680611b8a57607f821691505b60208210811415611bab57634e487b7160e01b600052602260045260246000fd5b50919050565b6020808252602d908201527f4552433732313a2063616c6c6572206973206e6f7420746f6b656e206f776e6560408201526c1c881bdc88185c1c1c9bdd9959609a1b606082015260800190565b634e487b7160e01b600052601160045260246000fd5b6000816000190483118215151615611c2e57611c2e611bfe565b500290565b600082611c5057634e487b7160e01b600052601260045260246000fd5b500490565b60208082526025908201527f4552433732313a207472616e736665722066726f6d20696e636f72726563742060408201526437bbb732b960d91b606082015260800190565b60208082526032908201527f4552433732313a207472616e7366657220746f206e6f6e20455243373231526560408201527131b2b4bb32b91034b6b83632b6b2b73a32b960711b606082015260800190565b60008351611cfe818460208801611801565b835190830190611d12818360208801611801565b01949350505050565b600082821015611d2d57611d2d611bfe565b500390565b60008219821115611d4557611d45611bfe565b500190565b6001600160a01b0385811682528416602082015260408101839052608060608201819052600090611d7d9083018461182d565b9695505050505050565b600060208284031215611d9957600080fd5b8151611314816117ce56fea26469706673582212202bbe752b481e17ec143b321b15cc8ca2d2bed2aa8fa3eb4ddf8b827f5d02edca64736f6c634300080b0033",
  "linkReferences": {},
  "deployedLinkReferences": {}
}