{
  "_format": "hh-sol-artifact-1",
  "contractName": "NFT",
  "sourceName": "contracts/ERC721/NFT.sol",
  "abi": [
    {
      "inputs": [
        {
          "internalType": "address",
          "name": "_artist",
          "type": "address"
        },
        {
          "internalType": "uint96",
          "name": "_royaltyPercentage",
          "type": "uint96"
        },
        {
          "internalType": "uint256",
          "name": "_tokenPrice",
          "type": "uint256"
        }
      ],
      "stateMutability": "nonpayable",
      "type": "constructor"
    },
    {
      "anonymous": false,
      "inputs": [
        {
          "indexed": true,
          "internalType": "address",
          "name": "owner",
          "type": "address"
        },
        {
          "indexed": true,
          "internalType": "address",
          "name": "approved",
          "type": "address"
        },
        {
          "indexed": true,
          "internalType": "uint256",
          "name": "tokenId",
          "type": "uint256"
        }
      ],
      "name": "Approval",
      "type": "event"
    },
    {
      "anonymous": false,
      "inputs": [
        {
          "indexed": true,
          "internalType": "address",
          "name": "owner",
          "type": "address"
        },
        {
          "indexed": true,
          "internalType": "address",
          "name": "operator",
          "type": "address"
        },
        {
          "indexed": false,
          "internalType": "bool",
          "name": "approved",
          "type": "bool"
        }
      ],
      "name": "ApprovalForAll",
      "type": "event"
    },
    {
      "anonymous": false,
      "inputs": [
        {
          "indexed": true,
          "internalType": "address",
          "name": "previousOwner",
          "type": "address"
        },
        {
          "indexed": true,
          "internalType": "address",
          "name": "newOwner",
          "type": "address"
        }
      ],
      "name": "OwnershipTransferred",
      "type": "event"
    },
    {
      "anonymous": false,
      "inputs": [
        {
          "indexed": true,
          "internalType": "address",
          "name": "from",
          "type": "address"
        },
        {
          "indexed": true,
          "internalType": "address",
          "name": "to",
          "type": "address"
        },
        {
          "indexed": true,
          "internalType": "uint256",
          "name": "tokenId",
          "type": "uint256"
        }
      ],
      "name": "Transfer",
      "type": "event"
    },
    {
      "inputs": [
        {
          "internalType": "address",
          "name": "to",
          "type": "address"
        },
        {
          "internalType": "uint256",
          "name": "tokenId",
          "type": "uint256"
        }
      ],
      "name": "approve",
      "outputs": [],
      "stateMutability": "nonpayable",
      "type": "function"
    },
    {
      "inputs": [
        {
          "internalType": "address",
          "name": "owner",
          "type": "address"
        }
      ],
      "name": "balanceOf",
      "outputs": [
        {
          "internalType": "uint256",
          "name": "",
          "type": "uint256"
        }
      ],
      "stateMutability": "view",
      "type": "function"
    },
    {
      "inputs": [
        {
          "internalType": "uint256",
          "name": "tokenId",
          "type": "uint256"
        }
      ],
      "name": "burn",
      "outputs": [],
      "stateMutability": "nonpayable",
      "type": "function"
    },
    {
      "inputs": [
        {
          "internalType": "uint256",
          "name": "tokenId",
          "type": "uint256"
        }
      ],
      "name": "getApproved",
      "outputs": [
        {
          "internalType": "address",
          "name": "",
          "type": "address"
        }
      ],
      "stateMutability": "view",
      "type": "function"
    },
    {
      "inputs": [
        {
          "internalType": "address",
          "name": "owner",
          "type": "address"
        },
        {
          "internalType": "address",
          "name": "operator",
          "type": "address"
        }
      ],
      "name": "isApprovedForAll",
      "outputs": [
        {
          "internalType": "bool",
          "name": "",
          "type": "bool"
        }
      ],
      "stateMutability": "view",
      "type": "function"
    },
    {
      "inputs": [],
      "name": "name",
      "outputs": [
        {
          "internalType": "string",
          "name": "",
          "type": "string"
        }
      ],
      "stateMutability": "view",
      "type": "function"
    },
    {
      "inputs": [],
      "name": "owner",
      "outputs": [
        {
          "internalType": "address",
          "name": "",
          "type": "address"
        }
      ],
      "stateMutability": "view",
      "type": "function"
    },
    {
      "inputs": [
        {
          "internalType": "uint256",
          "name": "tokenId",
          "type": "uint256"
        }
      ],
      "name": "ownerOf",
      "outputs": [
        {
          "internalType": "address",
          "name": "",
          "type": "address"
        }
      ],
      "stateMutability": "view",
      "type": "function"
    },
    {
      "inputs": [],
      "name": "renounceOwnership",
      "outputs": [],
      "stateMutability": "nonpayable",
      "type": "function"
    },
    {
      "inputs": [
        {
          "internalType": "uint256",
          "name": "_tokenId",
          "type": "uint256"
        },
        {
          "internalType": "uint256",
          "name": "_salePrice",
          "type": "uint256"
        }
      ],
      "name": "royaltyInfo",
      "outputs": [
        {
          "internalType": "address",
          "name": "",
          "type": "address"
        },
        {
          "internalType": "uint256",
          "name": "",
          "type": "uint256"
        }
      ],
      "stateMutability": "view",
      "type": "function"
    },
    {
      "inputs": [
        {
          "internalType": "address",
          "name": "to",
          "type": "address"
        },
        {
          "internalType": "string",
          "name": "uri",
          "type": "string"
        }
      ],
      "name": "safeMint",
      "outputs": [],
      "stateMutability": "nonpayable",
      "type": "function"
    },
    {
      "inputs": [
        {
          "internalType": "address",
          "name": "from",
          "type": "address"
        },
        {
          "internalType": "address",
          "name": "to",
          "type": "address"
        },
        {
          "internalType": "uint256",
          "name": "tokenId",
          "type": "uint256"
        }
      ],
      "name": "safeTransferFrom",
      "outputs": [],
      "stateMutability": "nonpayable",
      "type": "function"
    },
    {
      "inputs": [
        {
          "internalType": "address",
          "name": "from",
          "type": "address"
        },
        {
          "internalType": "address",
          "name": "to",
          "type": "address"
        },
        {
          "internalType": "uint256",
          "name": "tokenId",
          "type": "uint256"
        },
        {
          "internalType": "bytes",
          "name": "data",
          "type": "bytes"
        }
      ],
      "name": "safeTransferFrom",
      "outputs": [],
      "stateMutability": "nonpayable",
      "type": "function"
    },
    {
      "inputs": [
        {
          "internalType": "address",
          "name": "operator",
          "type": "address"
        },
        {
          "internalType": "bool",
          "name": "approved",
          "type": "bool"
        }
      ],
      "name": "setApprovalForAll",
      "outputs": [],
      "stateMutability": "nonpayable",
      "type": "function"
    },
    {
      "inputs": [
        {
          "internalType": "bytes4",
          "name": "interfaceId",
          "type": "bytes4"
        }
      ],
      "name": "supportsInterface",
      "outputs": [
        {
          "internalType": "bool",
          "name": "",
          "type": "bool"
        }
      ],
      "stateMutability": "view",
      "type": "function"
    },
    {
      "inputs": [],
      "name": "symbol",
      "outputs": [
        {
          "internalType": "string",
          "name": "",
          "type": "string"
        }
      ],
      "stateMutability": "view",
      "type": "function"
    },
    {
      "inputs": [],
      "name": "tokenPrice",
      "outputs": [
        {
          "internalType": "uint256",
          "name": "",
          "type": "uint256"
        }
      ],
      "stateMutability": "view",
      "type": "function"
    },
    {
      "inputs": [
        {
          "internalType": "uint256",
          "name": "tokenId",
          "type": "uint256"
        }
      ],
      "name": "tokenURI",
      "outputs": [
        {
          "internalType": "string",
          "name": "",
          "type": "string"
        }
      ],
      "stateMutability": "view",
      "type": "function"
    },
    {
      "inputs": [
        {
          "internalType": "address",
          "name": "from",
          "type": "address"
        },
        {
          "internalType": "address",
          "name": "to",
          "type": "address"
        },
        {
          "internalType": "uint256",
          "name": "tokenId",
          "type": "uint256"
        }
      ],
      "name": "transferFrom",
      "outputs": [],
      "stateMutability": "nonpayable",
      "type": "function"
    },
    {
      "inputs": [
        {
          "internalType": "address",
          "name": "newOwner",
          "type": "address"
        }
      ],
      "name": "transferOwnership",
      "outputs": [],
      "stateMutability": "nonpayable",
      "type": "function"
    }
  ],
  "bytecode": "0x60806040523480156200001157600080fd5b50604051620023673803806200236783398101604081905262000034916200030c565b60405180604001604052806009815260200168546f6b656e4e616d6560b81b815250604051806040016040528060038152602001622a25a760e91b81525081600090816200008391906200040f565b5060016200009282826200040f565b505050620000af620000a9620000d460201b60201c565b620000d8565b600b819055620000c083836200012a565b620000cb836200022f565b505050620004db565b3390565b600780546001600160a01b038381166001600160a01b0319831681179093556040519116919082907f8be0079c531659141344cd1fd0a4f28419497f9722a3daafe3b4186f6b6457e090600090a35050565b6127106001600160601b03821611156200019e5760405162461bcd60e51b815260206004820152602a60248201527f455243323938313a20726f79616c7479206665652077696c6c206578636565646044820152692073616c65507269636560b01b60648201526084015b60405180910390fd5b6001600160a01b038216620001f65760405162461bcd60e51b815260206004820152601960248201527f455243323938313a20696e76616c696420726563656976657200000000000000604482015260640162000195565b604080518082019091526001600160a01b039092168083526001600160601b039091166020909201829052600160a01b90910217600855565b62000239620002ae565b6001600160a01b038116620002a05760405162461bcd60e51b815260206004820152602660248201527f4f776e61626c653a206e6577206f776e657220697320746865207a65726f206160448201526564647265737360d01b606482015260840162000195565b620002ab81620000d8565b50565b6007546001600160a01b031633146200030a5760405162461bcd60e51b815260206004820181905260248201527f4f776e61626c653a2063616c6c6572206973206e6f7420746865206f776e6572604482015260640162000195565b565b6000806000606084860312156200032257600080fd5b83516001600160a01b03811681146200033a57600080fd5b60208501519093506001600160601b03811681146200035857600080fd5b80925050604084015190509250925092565b634e487b7160e01b600052604160045260246000fd5b600181811c908216806200039557607f821691505b602082108103620003b657634e487b7160e01b600052602260045260246000fd5b50919050565b601f8211156200040a57600081815260208120601f850160051c81016020861015620003e55750805b601f850160051c820191505b818110156200040657828155600101620003f1565b5050505b505050565b81516001600160401b038111156200042b576200042b6200036a565b62000443816200043c845462000380565b84620003bc565b602080601f8311600181146200047b5760008415620004625750858301515b600019600386901b1c1916600185901b17855562000406565b600085815260208120601f198616915b82811015620004ac578886015182559484019460019091019084016200048b565b5085821015620004cb5787850151600019600388901b60f8161c191681555b5050505050600190811b01905550565b611e7c80620004eb6000396000f3fe608060405234801561001057600080fd5b506004361061016c5760003560e01c8063715018a6116100cd578063b88d4fde11610081578063d204c45e11610066578063d204c45e146102f0578063e985e9c514610303578063f2fde38b1461033f57600080fd5b8063b88d4fde146102ca578063c87b56dd146102dd57600080fd5b80638da5cb5b116100b25780638da5cb5b1461029e57806395d89b41146102af578063a22cb465146102b757600080fd5b8063715018a61461028d5780637ff9b5961461029557600080fd5b80632a55205a1161012457806342966c681161010957806342966c68146102465780636352211e1461025957806370a082311461026c57600080fd5b80632a55205a1461020157806342842e0e1461023357600080fd5b8063081812fc11610155578063081812fc146101ae578063095ea7b3146101d957806323b872dd146101ee57600080fd5b806301ffc9a71461017157806306fdde0314610199575b600080fd5b61018461017f3660046118d0565b610352565b60405190151581526020015b60405180910390f35b6101a1610363565b604051610190919061193d565b6101c16101bc366004611950565b6103f5565b6040516001600160a01b039091168152602001610190565b6101ec6101e7366004611985565b61041c565b005b6101ec6101fc3660046119af565b610570565b61021461020f3660046119eb565b6105e8565b604080516001600160a01b039093168352602083019190915201610190565b6101ec6102413660046119af565b6106a3565b6101ec610254366004611950565b6106be565b6101c1610267366004611950565b610735565b61027f61027a366004611a0d565b61079a565b604051908152602001610190565b6101ec610834565b61027f600b5481565b6007546001600160a01b03166101c1565b6101a1610848565b6101ec6102c5366004611a28565b610857565b6101ec6102d8366004611af0565b610866565b6101a16102eb366004611950565b6108e4565b6101ec6102fe366004611b6c565b6108ef565b610184610311366004611bce565b6001600160a01b03918216600090815260056020908152604080832093909416825291909152205460ff1690565b6101ec61034d366004611a0d565b610926565b600061035d826109b3565b92915050565b60606000805461037290611c01565b80601f016020809104026020016040519081016040528092919081815260200182805461039e90611c01565b80156103eb5780601f106103c0576101008083540402835291602001916103eb565b820191906000526020600020905b8154815290600101906020018083116103ce57829003601f168201915b5050505050905090565b6000610400826109f1565b506000908152600460205260409020546001600160a01b031690565b600061042782610735565b9050806001600160a01b0316836001600160a01b0316036104b55760405162461bcd60e51b815260206004820152602160248201527f4552433732313a20617070726f76616c20746f2063757272656e74206f776e6560448201527f720000000000000000000000000000000000000000000000000000000000000060648201526084015b60405180910390fd5b336001600160a01b03821614806104ef57506001600160a01b038116600090815260056020908152604080832033845290915290205460ff165b6105615760405162461bcd60e51b815260206004820152603d60248201527f4552433732313a20617070726f76652063616c6c6572206973206e6f7420746f60448201527f6b656e206f776e6572206f7220617070726f76656420666f7220616c6c00000060648201526084016104ac565b61056b8383610a55565b505050565b61057b335b82610ac3565b6105dd5760405162461bcd60e51b815260206004820152602d60248201527f4552433732313a2063616c6c6572206973206e6f7420746f6b656e206f776e6560448201526c1c881bdc88185c1c1c9bdd9959609a1b60648201526084016104ac565b61056b838383610b42565b60008281526009602090815260408083208151808301909252546001600160a01b038116808352600160a01b9091046bffffffffffffffffffffffff169282019290925282916106675750604080518082019091526008546001600160a01b0381168252600160a01b90046bffffffffffffffffffffffff1660208201525b60208101516000906127109061068b906bffffffffffffffffffffffff1687611c51565b6106959190611c68565b915196919550909350505050565b61056b83838360405180602001604052806000815250610866565b6106c733610575565b6107295760405162461bcd60e51b815260206004820152602d60248201527f4552433732313a2063616c6c6572206973206e6f7420746f6b656e206f776e6560448201526c1c881bdc88185c1c1c9bdd9959609a1b60648201526084016104ac565b61073281610d48565b50565b6000818152600260205260408120546001600160a01b03168061035d5760405162461bcd60e51b815260206004820152601860248201527f4552433732313a20696e76616c696420746f6b656e204944000000000000000060448201526064016104ac565b60006001600160a01b0382166108185760405162461bcd60e51b815260206004820152602960248201527f4552433732313a2061646472657373207a65726f206973206e6f74206120766160448201527f6c6964206f776e6572000000000000000000000000000000000000000000000060648201526084016104ac565b506001600160a01b031660009081526003602052604090205490565b61083c610d51565b6108466000610dab565b565b60606001805461037290611c01565b610862338383610dfd565b5050565b6108703383610ac3565b6108d25760405162461bcd60e51b815260206004820152602d60248201527f4552433732313a2063616c6c6572206973206e6f7420746f6b656e206f776e6560448201526c1c881bdc88185c1c1c9bdd9959609a1b60648201526084016104ac565b6108de84848484610ecb565b50505050565b606061035d82610f49565b6108f7610d51565b610905600a80546001019055565b6000610910600a5490565b905061091c8382611051565b61056b818361106b565b61092e610d51565b6001600160a01b0381166109aa5760405162461bcd60e51b815260206004820152602660248201527f4f776e61626c653a206e6577206f776e657220697320746865207a65726f206160448201527f646472657373000000000000000000000000000000000000000000000000000060648201526084016104ac565b61073281610dab565b60006001600160e01b031982167f2a55205a00000000000000000000000000000000000000000000000000000000148061035d575061035d8261110d565b6000818152600260205260409020546001600160a01b03166107325760405162461bcd60e51b815260206004820152601860248201527f4552433732313a20696e76616c696420746f6b656e204944000000000000000060448201526064016104ac565b600081815260046020526040902080546001600160a01b0319166001600160a01b0384169081179091558190610a8a82610735565b6001600160a01b03167f8c5be1e5ebec7d5bd14f71427d1e84f3dd0314c0f7b2291e5b200ac8c7c3b92560405160405180910390a45050565b600080610acf83610735565b9050806001600160a01b0316846001600160a01b03161480610b1657506001600160a01b0380821660009081526005602090815260408083209388168352929052205460ff165b80610b3a5750836001600160a01b0316610b2f846103f5565b6001600160a01b0316145b949350505050565b826001600160a01b0316610b5582610735565b6001600160a01b031614610bb95760405162461bcd60e51b815260206004820152602560248201527f4552433732313a207472616e736665722066726f6d20696e636f72726563742060448201526437bbb732b960d91b60648201526084016104ac565b6001600160a01b038216610c345760405162461bcd60e51b8152602060048201526024808201527f4552433732313a207472616e7366657220746f20746865207a65726f2061646460448201527f726573730000000000000000000000000000000000000000000000000000000060648201526084016104ac565b610c4183838360016111a8565b826001600160a01b0316610c5482610735565b6001600160a01b031614610cb85760405162461bcd60e51b815260206004820152602560248201527f4552433732313a207472616e736665722066726f6d20696e636f72726563742060448201526437bbb732b960d91b60648201526084016104ac565b600081815260046020908152604080832080546001600160a01b03199081169091556001600160a01b0387811680865260038552838620805460001901905590871680865283862080546001019055868652600290945282852080549092168417909155905184937fddf252ad1be2c89b69c2b068fc378daa952ba7f163c4a11628f55a4df523b3ef91a4505050565b61073281611230565b6007546001600160a01b031633146108465760405162461bcd60e51b815260206004820181905260248201527f4f776e61626c653a2063616c6c6572206973206e6f7420746865206f776e657260448201526064016104ac565b600780546001600160a01b038381166001600160a01b0319831681179093556040519116919082907f8be0079c531659141344cd1fd0a4f28419497f9722a3daafe3b4186f6b6457e090600090a35050565b816001600160a01b0316836001600160a01b031603610e5e5760405162461bcd60e51b815260206004820152601960248201527f4552433732313a20617070726f766520746f2063616c6c65720000000000000060448201526064016104ac565b6001600160a01b03838116600081815260056020908152604080832094871680845294825291829020805460ff191686151590811790915591519182527f17307eab39ab6107e8899845ad3d59bd9653f200f220920489ca2b5937696c31910160405180910390a3505050565b610ed6848484610b42565b610ee284848484611270565b6108de5760405162461bcd60e51b815260206004820152603260248201527f4552433732313a207472616e7366657220746f206e6f6e20455243373231526560448201527131b2b4bb32b91034b6b83632b6b2b73a32b960711b60648201526084016104ac565b6060610f54826109f1565b60008281526006602052604081208054610f6d90611c01565b80601f0160208091040260200160405190810160405280929190818152602001828054610f9990611c01565b8015610fe65780601f10610fbb57610100808354040283529160200191610fe6565b820191906000526020600020905b815481529060010190602001808311610fc957829003601f168201915b50505050509050600061100460408051602081019091526000815290565b90508051600003611016575092915050565b815115611048578082604051602001611030929190611c8a565b60405160208183030381529060405292505050919050565b610b3a846113bc565b610862828260405180602001604052806000815250611430565b6000828152600260205260409020546001600160a01b03166110f55760405162461bcd60e51b815260206004820152602e60248201527f45524337323155524953746f726167653a2055524920736574206f66206e6f6e60448201527f6578697374656e7420746f6b656e00000000000000000000000000000000000060648201526084016104ac565b600082815260066020526040902061056b8282611d07565b60006001600160e01b031982167f80ac58cd00000000000000000000000000000000000000000000000000000000148061117057506001600160e01b031982167f5b5e139f00000000000000000000000000000000000000000000000000000000145b8061035d57507f01ffc9a7000000000000000000000000000000000000000000000000000000006001600160e01b031983161461035d565b60018111156108de576001600160a01b038416156111ee576001600160a01b038416600090815260036020526040812080548392906111e8908490611dc7565b90915550505b6001600160a01b038316156108de576001600160a01b03831660009081526003602052604081208054839290611225908490611dda565b909155505050505050565b611239816114ae565b6000818152600660205260409020805461125290611c01565b1590506107325760008181526006602052604081206107329161186c565b60006001600160a01b0384163b156113b157604051630a85bd0160e11b81526001600160a01b0385169063150b7a02906112b4903390899088908890600401611ded565b6020604051808303816000875af19250505080156112ef575060408051601f3d908101601f191682019092526112ec91810190611e29565b60015b611397573d80801561131d576040519150601f19603f3d011682016040523d82523d6000602084013e611322565b606091505b50805160000361138f5760405162461bcd60e51b815260206004820152603260248201527f4552433732313a207472616e7366657220746f206e6f6e20455243373231526560448201527131b2b4bb32b91034b6b83632b6b2b73a32b960711b60648201526084016104ac565b805181602001fd5b6001600160e01b031916630a85bd0160e11b149050610b3a565b506001949350505050565b60606113c7826109f1565b60006113de60408051602081019091526000815290565b905060008151116113fe5760405180602001604052806000815250611429565b8061140884611551565b604051602001611419929190611c8a565b6040516020818303038152906040525b9392505050565b61143a83836115f1565b6114476000848484611270565b61056b5760405162461bcd60e51b815260206004820152603260248201527f4552433732313a207472616e7366657220746f206e6f6e20455243373231526560448201527131b2b4bb32b91034b6b83632b6b2b73a32b960711b60648201526084016104ac565b60006114b982610735565b90506114c98160008460016111a8565b6114d282610735565b600083815260046020908152604080832080546001600160a01b03199081169091556001600160a01b0385168085526003845282852080546000190190558785526002909352818420805490911690555192935084927fddf252ad1be2c89b69c2b068fc378daa952ba7f163c4a11628f55a4df523b3ef908390a45050565b6060600061155e8361178a565b600101905060008167ffffffffffffffff81111561157e5761157e611a64565b6040519080825280601f01601f1916602001820160405280156115a8576020820181803683370190505b5090508181016020015b600019017f3031323334353637383961626364656600000000000000000000000000000000600a86061a8153600a85049450846115b257509392505050565b6001600160a01b0382166116475760405162461bcd60e51b815260206004820181905260248201527f4552433732313a206d696e7420746f20746865207a65726f206164647265737360448201526064016104ac565b6000818152600260205260409020546001600160a01b0316156116ac5760405162461bcd60e51b815260206004820152601c60248201527f4552433732313a20746f6b656e20616c7265616479206d696e7465640000000060448201526064016104ac565b6116ba6000838360016111a8565b6000818152600260205260409020546001600160a01b03161561171f5760405162461bcd60e51b815260206004820152601c60248201527f4552433732313a20746f6b656e20616c7265616479206d696e7465640000000060448201526064016104ac565b6001600160a01b038216600081815260036020908152604080832080546001019055848352600290915280822080546001600160a01b0319168417905551839291907fddf252ad1be2c89b69c2b068fc378daa952ba7f163c4a11628f55a4df523b3ef908290a45050565b6000807a184f03e93ff9f4daa797ed6e38ed64bf6a1f01000000000000000083106117d3577a184f03e93ff9f4daa797ed6e38ed64bf6a1f010000000000000000830492506040015b6d04ee2d6d415b85acef810000000083106117ff576d04ee2d6d415b85acef8100000000830492506020015b662386f26fc10000831061181d57662386f26fc10000830492506010015b6305f5e1008310611835576305f5e100830492506008015b612710831061184957612710830492506004015b6064831061185b576064830492506002015b600a831061035d5760010192915050565b50805461187890611c01565b6000825580601f10611888575050565b601f01602090049060005260206000209081019061073291905b808211156118b657600081556001016118a2565b5090565b6001600160e01b03198116811461073257600080fd5b6000602082840312156118e257600080fd5b8135611429816118ba565b60005b838110156119085781810151838201526020016118f0565b50506000910152565b600081518084526119298160208601602086016118ed565b601f01601f19169290920160200192915050565b6020815260006114296020830184611911565b60006020828403121561196257600080fd5b5035919050565b80356001600160a01b038116811461198057600080fd5b919050565b6000806040838503121561199857600080fd5b6119a183611969565b946020939093013593505050565b6000806000606084860312156119c457600080fd5b6119cd84611969565b92506119db60208501611969565b9150604084013590509250925092565b600080604083850312156119fe57600080fd5b50508035926020909101359150565b600060208284031215611a1f57600080fd5b61142982611969565b60008060408385031215611a3b57600080fd5b611a4483611969565b915060208301358015158114611a5957600080fd5b809150509250929050565b634e487b7160e01b600052604160045260246000fd5b600067ffffffffffffffff80841115611a9557611a95611a64565b604051601f8501601f19908116603f01168101908282118183101715611abd57611abd611a64565b81604052809350858152868686011115611ad657600080fd5b858560208301376000602087830101525050509392505050565b60008060008060808587031215611b0657600080fd5b611b0f85611969565b9350611b1d60208601611969565b925060408501359150606085013567ffffffffffffffff811115611b4057600080fd5b8501601f81018713611b5157600080fd5b611b6087823560208401611a7a565b91505092959194509250565b60008060408385031215611b7f57600080fd5b611b8883611969565b9150602083013567ffffffffffffffff811115611ba457600080fd5b8301601f81018513611bb557600080fd5b611bc485823560208401611a7a565b9150509250929050565b60008060408385031215611be157600080fd5b611bea83611969565b9150611bf860208401611969565b90509250929050565b600181811c90821680611c1557607f821691505b602082108103611c3557634e487b7160e01b600052602260045260246000fd5b50919050565b634e487b7160e01b600052601160045260246000fd5b808202811582820484141761035d5761035d611c3b565b600082611c8557634e487b7160e01b600052601260045260246000fd5b500490565b60008351611c9c8184602088016118ed565b835190830190611cb08183602088016118ed565b01949350505050565b601f82111561056b57600081815260208120601f850160051c81016020861015611ce05750805b601f850160051c820191505b81811015611cff57828155600101611cec565b505050505050565b815167ffffffffffffffff811115611d2157611d21611a64565b611d3581611d2f8454611c01565b84611cb9565b602080601f831160018114611d6a5760008415611d525750858301515b600019600386901b1c1916600185901b178555611cff565b600085815260208120601f198616915b82811015611d9957888601518255948401946001909101908401611d7a565b5085821015611db75787850151600019600388901b60f8161c191681555b5050505050600190811b01905550565b8181038181111561035d5761035d611c3b565b8082018082111561035d5761035d611c3b565b60006001600160a01b03808716835280861660208401525083604083015260806060830152611e1f6080830184611911565b9695505050505050565b600060208284031215611e3b57600080fd5b8151611429816118ba56fea2646970667358221220f47906b542c29b4498c2f207e80d816707f16b71018b322c8ff37f71bd64c81b64736f6c63430008110033",
  "linkReferences": {},
  "deployedLinkReferences": {}
}