{
  "_format": "hh-sol-artifact-1",
  "contractName": "NFT",
  "sourceName": "contracts/ERC721/NFT.sol",
  "abi": [
    {
      "inputs": [
        {
          "internalType": "address",
          "name": "_artist",
          "type": "address"
        },
        {
          "internalType": "address",
          "name": "_token",
          "type": "address"
        },
        {
          "internalType": "uint96",
          "name": "_royaltyPercentage",
          "type": "uint96"
        },
        {
          "internalType": "uint256",
          "name": "_tokenPrice",
          "type": "uint256"
        }
      ],
      "stateMutability": "nonpayable",
      "type": "constructor"
    },
    {
      "anonymous": false,
      "inputs": [
        {
          "indexed": true,
          "internalType": "address",
          "name": "owner",
          "type": "address"
        },
        {
          "indexed": true,
          "internalType": "address",
          "name": "approved",
          "type": "address"
        },
        {
          "indexed": true,
          "internalType": "uint256",
          "name": "tokenId",
          "type": "uint256"
        }
      ],
      "name": "Approval",
      "type": "event"
    },
    {
      "anonymous": false,
      "inputs": [
        {
          "indexed": true,
          "internalType": "address",
          "name": "owner",
          "type": "address"
        },
        {
          "indexed": true,
          "internalType": "address",
          "name": "operator",
          "type": "address"
        },
        {
          "indexed": false,
          "internalType": "bool",
          "name": "approved",
          "type": "bool"
        }
      ],
      "name": "ApprovalForAll",
      "type": "event"
    },
    {
      "anonymous": false,
      "inputs": [
        {
          "indexed": true,
          "internalType": "address",
          "name": "previousOwner",
          "type": "address"
        },
        {
          "indexed": true,
          "internalType": "address",
          "name": "newOwner",
          "type": "address"
        }
      ],
      "name": "OwnershipTransferred",
      "type": "event"
    },
    {
      "anonymous": false,
      "inputs": [
        {
          "indexed": true,
          "internalType": "address",
          "name": "from",
          "type": "address"
        },
        {
          "indexed": true,
          "internalType": "address",
          "name": "to",
          "type": "address"
        },
        {
          "indexed": true,
          "internalType": "uint256",
          "name": "tokenId",
          "type": "uint256"
        }
      ],
      "name": "Transfer",
      "type": "event"
    },
    {
      "inputs": [
        {
          "internalType": "address",
          "name": "to",
          "type": "address"
        },
        {
          "internalType": "uint256",
          "name": "tokenId",
          "type": "uint256"
        }
      ],
      "name": "approve",
      "outputs": [],
      "stateMutability": "nonpayable",
      "type": "function"
    },
    {
      "inputs": [
        {
          "internalType": "address",
          "name": "owner",
          "type": "address"
        }
      ],
      "name": "balanceOf",
      "outputs": [
        {
          "internalType": "uint256",
          "name": "",
          "type": "uint256"
        }
      ],
      "stateMutability": "view",
      "type": "function"
    },
    {
      "inputs": [
        {
          "internalType": "uint256",
          "name": "tokenId",
          "type": "uint256"
        }
      ],
      "name": "burn",
      "outputs": [],
      "stateMutability": "nonpayable",
      "type": "function"
    },
    {
      "inputs": [
        {
          "internalType": "uint256",
          "name": "tokenId",
          "type": "uint256"
        }
      ],
      "name": "getApproved",
      "outputs": [
        {
          "internalType": "address",
          "name": "",
          "type": "address"
        }
      ],
      "stateMutability": "view",
      "type": "function"
    },
    {
      "inputs": [
        {
          "internalType": "address",
          "name": "owner",
          "type": "address"
        },
        {
          "internalType": "address",
          "name": "operator",
          "type": "address"
        }
      ],
      "name": "isApprovedForAll",
      "outputs": [
        {
          "internalType": "bool",
          "name": "",
          "type": "bool"
        }
      ],
      "stateMutability": "view",
      "type": "function"
    },
    {
      "inputs": [],
      "name": "name",
      "outputs": [
        {
          "internalType": "string",
          "name": "",
          "type": "string"
        }
      ],
      "stateMutability": "view",
      "type": "function"
    },
    {
      "inputs": [],
      "name": "owner",
      "outputs": [
        {
          "internalType": "address",
          "name": "",
          "type": "address"
        }
      ],
      "stateMutability": "view",
      "type": "function"
    },
    {
      "inputs": [
        {
          "internalType": "uint256",
          "name": "tokenId",
          "type": "uint256"
        }
      ],
      "name": "ownerOf",
      "outputs": [
        {
          "internalType": "address",
          "name": "",
          "type": "address"
        }
      ],
      "stateMutability": "view",
      "type": "function"
    },
    {
      "inputs": [],
      "name": "renounceOwnership",
      "outputs": [],
      "stateMutability": "nonpayable",
      "type": "function"
    },
    {
      "inputs": [
        {
          "internalType": "uint256",
          "name": "_tokenId",
          "type": "uint256"
        },
        {
          "internalType": "uint256",
          "name": "_salePrice",
          "type": "uint256"
        }
      ],
      "name": "royaltyInfo",
      "outputs": [
        {
          "internalType": "address",
          "name": "",
          "type": "address"
        },
        {
          "internalType": "uint256",
          "name": "",
          "type": "uint256"
        }
      ],
      "stateMutability": "view",
      "type": "function"
    },
    {
      "inputs": [],
      "name": "royaltyPercentage",
      "outputs": [
        {
          "internalType": "uint96",
          "name": "",
          "type": "uint96"
        }
      ],
      "stateMutability": "view",
      "type": "function"
    },
    {
      "inputs": [
        {
          "internalType": "address",
          "name": "to",
          "type": "address"
        },
        {
          "internalType": "string",
          "name": "uri",
          "type": "string"
        }
      ],
      "name": "safeMint",
      "outputs": [],
      "stateMutability": "nonpayable",
      "type": "function"
    },
    {
      "inputs": [
        {
          "internalType": "address",
          "name": "from",
          "type": "address"
        },
        {
          "internalType": "address",
          "name": "to",
          "type": "address"
        },
        {
          "internalType": "uint256",
          "name": "tokenId",
          "type": "uint256"
        }
      ],
      "name": "safeTransferFrom",
      "outputs": [],
      "stateMutability": "nonpayable",
      "type": "function"
    },
    {
      "inputs": [
        {
          "internalType": "address",
          "name": "from",
          "type": "address"
        },
        {
          "internalType": "address",
          "name": "to",
          "type": "address"
        },
        {
          "internalType": "uint256",
          "name": "tokenId",
          "type": "uint256"
        },
        {
          "internalType": "bytes",
          "name": "data",
          "type": "bytes"
        }
      ],
      "name": "safeTransferFrom",
      "outputs": [],
      "stateMutability": "nonpayable",
      "type": "function"
    },
    {
      "inputs": [
        {
          "internalType": "address",
          "name": "operator",
          "type": "address"
        },
        {
          "internalType": "bool",
          "name": "approved",
          "type": "bool"
        }
      ],
      "name": "setApprovalForAll",
      "outputs": [],
      "stateMutability": "nonpayable",
      "type": "function"
    },
    {
      "inputs": [
        {
          "internalType": "bytes4",
          "name": "interfaceId",
          "type": "bytes4"
        }
      ],
      "name": "supportsInterface",
      "outputs": [
        {
          "internalType": "bool",
          "name": "",
          "type": "bool"
        }
      ],
      "stateMutability": "view",
      "type": "function"
    },
    {
      "inputs": [],
      "name": "symbol",
      "outputs": [
        {
          "internalType": "string",
          "name": "",
          "type": "string"
        }
      ],
      "stateMutability": "view",
      "type": "function"
    },
    {
      "inputs": [],
      "name": "tokenPrice",
      "outputs": [
        {
          "internalType": "uint256",
          "name": "",
          "type": "uint256"
        }
      ],
      "stateMutability": "view",
      "type": "function"
    },
    {
      "inputs": [
        {
          "internalType": "uint256",
          "name": "tokenId",
          "type": "uint256"
        }
      ],
      "name": "tokenURI",
      "outputs": [
        {
          "internalType": "string",
          "name": "",
          "type": "string"
        }
      ],
      "stateMutability": "view",
      "type": "function"
    },
    {
      "inputs": [
        {
          "internalType": "address",
          "name": "from",
          "type": "address"
        },
        {
          "internalType": "address",
          "name": "to",
          "type": "address"
        },
        {
          "internalType": "uint256",
          "name": "tokenId",
          "type": "uint256"
        }
      ],
      "name": "transferFrom",
      "outputs": [],
      "stateMutability": "nonpayable",
      "type": "function"
    },
    {
      "inputs": [
        {
          "internalType": "address",
          "name": "newOwner",
          "type": "address"
        }
      ],
      "name": "transferOwnership",
      "outputs": [],
      "stateMutability": "nonpayable",
      "type": "function"
    }
  ],
  "bytecode": "0x60806040523480156200001157600080fd5b5060405162002447380380620024478339810160408190526200003491620003aa565b60405180604001604052806009815260200168546f6b656e4e616d6560b81b815250604051806040016040528060038152602001622a25a760e91b8152508160009081620000839190620004af565b506001620000928282620004af565b505050620000af620000a96200015960201b60201c565b6200015d565b600c546c0100000000000000000000000090046001600160a01b0316156200010a5760405162461bcd60e51b8152602060048201526009602482015268125b9a5d1a585d195960ba1b60448201526064015b60405180910390fd5b600c80546001600160601b03166c010000000000000000000000006001600160a01b03861602179055600b819055620001448483620001af565b6200014f84620002b0565b505050506200057b565b3390565b600780546001600160a01b038381166001600160a01b0319831681179093556040519116919082907f8be0079c531659141344cd1fd0a4f28419497f9722a3daafe3b4186f6b6457e090600090a35050565b6127106001600160601b03821611156200021f5760405162461bcd60e51b815260206004820152602a60248201527f455243323938313a20726f79616c7479206665652077696c6c206578636565646044820152692073616c65507269636560b01b606482015260840162000101565b6001600160a01b038216620002775760405162461bcd60e51b815260206004820152601960248201527f455243323938313a20696e76616c696420726563656976657200000000000000604482015260640162000101565b604080518082019091526001600160a01b039092168083526001600160601b039091166020909201829052600160a01b90910217600855565b620002ba6200032f565b6001600160a01b038116620003215760405162461bcd60e51b815260206004820152602660248201527f4f776e61626c653a206e6577206f776e657220697320746865207a65726f206160448201526564647265737360d01b606482015260840162000101565b6200032c816200015d565b50565b6007546001600160a01b031633146200038b5760405162461bcd60e51b815260206004820181905260248201527f4f776e61626c653a2063616c6c6572206973206e6f7420746865206f776e6572604482015260640162000101565b565b80516001600160a01b0381168114620003a557600080fd5b919050565b60008060008060808587031215620003c157600080fd5b620003cc856200038d565b9350620003dc602086016200038d565b60408601519093506001600160601b0381168114620003fa57600080fd5b6060959095015193969295505050565b634e487b7160e01b600052604160045260246000fd5b600181811c908216806200043557607f821691505b6020821081036200045657634e487b7160e01b600052602260045260246000fd5b50919050565b601f821115620004aa57600081815260208120601f850160051c81016020861015620004855750805b601f850160051c820191505b81811015620004a65782815560010162000491565b5050505b505050565b81516001600160401b03811115620004cb57620004cb6200040a565b620004e381620004dc845462000420565b846200045c565b602080601f8311600181146200051b5760008415620005025750858301515b600019600386901b1c1916600185901b178555620004a6565b600085815260208120601f198616915b828110156200054c578886015182559484019460019091019084016200052b565b50858210156200056b5787850151600019600388901b60f8161c191681555b5050505050600190811b01905550565b611ebc806200058b6000396000f3fe608060405234801561001057600080fd5b50600436106101775760003560e01c8063715018a6116100d8578063a22cb4651161008c578063d204c45e11610066578063d204c45e14610330578063e985e9c514610343578063f2fde38b1461037f57600080fd5b8063a22cb465146102f7578063b88d4fde1461030a578063c87b56dd1461031d57600080fd5b80638a71bb2d116100bd5780638a71bb2d146102a95780638da5cb5b146102de57806395d89b41146102ef57600080fd5b8063715018a6146102985780637ff9b596146102a057600080fd5b80632a55205a1161012f57806342966c681161011457806342966c68146102515780636352211e1461026457806370a082311461027757600080fd5b80632a55205a1461020c57806342842e0e1461023e57600080fd5b8063081812fc11610160578063081812fc146101b9578063095ea7b3146101e457806323b872dd146101f957600080fd5b806301ffc9a71461017c57806306fdde03146101a4575b600080fd5b61018f61018a366004611910565b610392565b60405190151581526020015b60405180910390f35b6101ac6103a3565b60405161019b919061197d565b6101cc6101c7366004611990565b610435565b6040516001600160a01b03909116815260200161019b565b6101f76101f23660046119c5565b61045c565b005b6101f76102073660046119ef565b6105b0565b61021f61021a366004611a2b565b610628565b604080516001600160a01b03909316835260208301919091520161019b565b6101f761024c3660046119ef565b6106e3565b6101f761025f366004611990565b6106fe565b6101cc610272366004611990565b610775565b61028a610285366004611a4d565b6107da565b60405190815260200161019b565b6101f7610874565b61028a600b5481565b600c546102c1906bffffffffffffffffffffffff1681565b6040516bffffffffffffffffffffffff909116815260200161019b565b6007546001600160a01b03166101cc565b6101ac610888565b6101f7610305366004611a68565b610897565b6101f7610318366004611b30565b6108a6565b6101ac61032b366004611990565b610924565b6101f761033e366004611bac565b61092f565b61018f610351366004611c0e565b6001600160a01b03918216600090815260056020908152604080832093909416825291909152205460ff1690565b6101f761038d366004611a4d565b610966565b600061039d826109f3565b92915050565b6060600080546103b290611c41565b80601f01602080910402602001604051908101604052809291908181526020018280546103de90611c41565b801561042b5780601f106104005761010080835404028352916020019161042b565b820191906000526020600020905b81548152906001019060200180831161040e57829003601f168201915b5050505050905090565b600061044082610a31565b506000908152600460205260409020546001600160a01b031690565b600061046782610775565b9050806001600160a01b0316836001600160a01b0316036104f55760405162461bcd60e51b815260206004820152602160248201527f4552433732313a20617070726f76616c20746f2063757272656e74206f776e6560448201527f720000000000000000000000000000000000000000000000000000000000000060648201526084015b60405180910390fd5b336001600160a01b038216148061052f57506001600160a01b038116600090815260056020908152604080832033845290915290205460ff165b6105a15760405162461bcd60e51b815260206004820152603d60248201527f4552433732313a20617070726f76652063616c6c6572206973206e6f7420746f60448201527f6b656e206f776e6572206f7220617070726f76656420666f7220616c6c00000060648201526084016104ec565b6105ab8383610a95565b505050565b6105bb335b82610b03565b61061d5760405162461bcd60e51b815260206004820152602d60248201527f4552433732313a2063616c6c6572206973206e6f7420746f6b656e206f776e6560448201526c1c881bdc88185c1c1c9bdd9959609a1b60648201526084016104ec565b6105ab838383610b82565b60008281526009602090815260408083208151808301909252546001600160a01b038116808352600160a01b9091046bffffffffffffffffffffffff169282019290925282916106a75750604080518082019091526008546001600160a01b0381168252600160a01b90046bffffffffffffffffffffffff1660208201525b6020810151600090612710906106cb906bffffffffffffffffffffffff1687611c91565b6106d59190611ca8565b915196919550909350505050565b6105ab838383604051806020016040528060008152506108a6565b610707336105b5565b6107695760405162461bcd60e51b815260206004820152602d60248201527f4552433732313a2063616c6c6572206973206e6f7420746f6b656e206f776e6560448201526c1c881bdc88185c1c1c9bdd9959609a1b60648201526084016104ec565b61077281610d88565b50565b6000818152600260205260408120546001600160a01b03168061039d5760405162461bcd60e51b815260206004820152601860248201527f4552433732313a20696e76616c696420746f6b656e204944000000000000000060448201526064016104ec565b60006001600160a01b0382166108585760405162461bcd60e51b815260206004820152602960248201527f4552433732313a2061646472657373207a65726f206973206e6f74206120766160448201527f6c6964206f776e6572000000000000000000000000000000000000000000000060648201526084016104ec565b506001600160a01b031660009081526003602052604090205490565b61087c610d91565b6108866000610deb565b565b6060600180546103b290611c41565b6108a2338383610e3d565b5050565b6108b03383610b03565b6109125760405162461bcd60e51b815260206004820152602d60248201527f4552433732313a2063616c6c6572206973206e6f7420746f6b656e206f776e6560448201526c1c881bdc88185c1c1c9bdd9959609a1b60648201526084016104ec565b61091e84848484610f0b565b50505050565b606061039d82610f89565b610937610d91565b610945600a80546001019055565b6000610950600a5490565b905061095c8382611091565b6105ab81836110ab565b61096e610d91565b6001600160a01b0381166109ea5760405162461bcd60e51b815260206004820152602660248201527f4f776e61626c653a206e6577206f776e657220697320746865207a65726f206160448201527f646472657373000000000000000000000000000000000000000000000000000060648201526084016104ec565b61077281610deb565b60006001600160e01b031982167f2a55205a00000000000000000000000000000000000000000000000000000000148061039d575061039d8261114d565b6000818152600260205260409020546001600160a01b03166107725760405162461bcd60e51b815260206004820152601860248201527f4552433732313a20696e76616c696420746f6b656e204944000000000000000060448201526064016104ec565b600081815260046020526040902080546001600160a01b0319166001600160a01b0384169081179091558190610aca82610775565b6001600160a01b03167f8c5be1e5ebec7d5bd14f71427d1e84f3dd0314c0f7b2291e5b200ac8c7c3b92560405160405180910390a45050565b600080610b0f83610775565b9050806001600160a01b0316846001600160a01b03161480610b5657506001600160a01b0380821660009081526005602090815260408083209388168352929052205460ff165b80610b7a5750836001600160a01b0316610b6f84610435565b6001600160a01b0316145b949350505050565b826001600160a01b0316610b9582610775565b6001600160a01b031614610bf95760405162461bcd60e51b815260206004820152602560248201527f4552433732313a207472616e736665722066726f6d20696e636f72726563742060448201526437bbb732b960d91b60648201526084016104ec565b6001600160a01b038216610c745760405162461bcd60e51b8152602060048201526024808201527f4552433732313a207472616e7366657220746f20746865207a65726f2061646460448201527f726573730000000000000000000000000000000000000000000000000000000060648201526084016104ec565b610c8183838360016111e8565b826001600160a01b0316610c9482610775565b6001600160a01b031614610cf85760405162461bcd60e51b815260206004820152602560248201527f4552433732313a207472616e736665722066726f6d20696e636f72726563742060448201526437bbb732b960d91b60648201526084016104ec565b600081815260046020908152604080832080546001600160a01b03199081169091556001600160a01b0387811680865260038552838620805460001901905590871680865283862080546001019055868652600290945282852080549092168417909155905184937fddf252ad1be2c89b69c2b068fc378daa952ba7f163c4a11628f55a4df523b3ef91a4505050565b61077281611270565b6007546001600160a01b031633146108865760405162461bcd60e51b815260206004820181905260248201527f4f776e61626c653a2063616c6c6572206973206e6f7420746865206f776e657260448201526064016104ec565b600780546001600160a01b038381166001600160a01b0319831681179093556040519116919082907f8be0079c531659141344cd1fd0a4f28419497f9722a3daafe3b4186f6b6457e090600090a35050565b816001600160a01b0316836001600160a01b031603610e9e5760405162461bcd60e51b815260206004820152601960248201527f4552433732313a20617070726f766520746f2063616c6c65720000000000000060448201526064016104ec565b6001600160a01b03838116600081815260056020908152604080832094871680845294825291829020805460ff191686151590811790915591519182527f17307eab39ab6107e8899845ad3d59bd9653f200f220920489ca2b5937696c31910160405180910390a3505050565b610f16848484610b82565b610f22848484846112b0565b61091e5760405162461bcd60e51b815260206004820152603260248201527f4552433732313a207472616e7366657220746f206e6f6e20455243373231526560448201527131b2b4bb32b91034b6b83632b6b2b73a32b960711b60648201526084016104ec565b6060610f9482610a31565b60008281526006602052604081208054610fad90611c41565b80601f0160208091040260200160405190810160405280929190818152602001828054610fd990611c41565b80156110265780601f10610ffb57610100808354040283529160200191611026565b820191906000526020600020905b81548152906001019060200180831161100957829003601f168201915b50505050509050600061104460408051602081019091526000815290565b90508051600003611056575092915050565b815115611088578082604051602001611070929190611cca565b60405160208183030381529060405292505050919050565b610b7a846113fc565b6108a2828260405180602001604052806000815250611470565b6000828152600260205260409020546001600160a01b03166111355760405162461bcd60e51b815260206004820152602e60248201527f45524337323155524953746f726167653a2055524920736574206f66206e6f6e60448201527f6578697374656e7420746f6b656e00000000000000000000000000000000000060648201526084016104ec565b60008281526006602052604090206105ab8282611d47565b60006001600160e01b031982167f80ac58cd0000000000000000000000000000000000000000000000000000000014806111b057506001600160e01b031982167f5b5e139f00000000000000000000000000000000000000000000000000000000145b8061039d57507f01ffc9a7000000000000000000000000000000000000000000000000000000006001600160e01b031983161461039d565b600181111561091e576001600160a01b0384161561122e576001600160a01b03841660009081526003602052604081208054839290611228908490611e07565b90915550505b6001600160a01b0383161561091e576001600160a01b03831660009081526003602052604081208054839290611265908490611e1a565b909155505050505050565b611279816114ee565b6000818152600660205260409020805461129290611c41565b159050610772576000818152600660205260408120610772916118ac565b60006001600160a01b0384163b156113f157604051630a85bd0160e11b81526001600160a01b0385169063150b7a02906112f4903390899088908890600401611e2d565b6020604051808303816000875af192505050801561132f575060408051601f3d908101601f1916820190925261132c91810190611e69565b60015b6113d7573d80801561135d576040519150601f19603f3d011682016040523d82523d6000602084013e611362565b606091505b5080516000036113cf5760405162461bcd60e51b815260206004820152603260248201527f4552433732313a207472616e7366657220746f206e6f6e20455243373231526560448201527131b2b4bb32b91034b6b83632b6b2b73a32b960711b60648201526084016104ec565b805181602001fd5b6001600160e01b031916630a85bd0160e11b149050610b7a565b506001949350505050565b606061140782610a31565b600061141e60408051602081019091526000815290565b9050600081511161143e5760405180602001604052806000815250611469565b8061144884611591565b604051602001611459929190611cca565b6040516020818303038152906040525b9392505050565b61147a8383611631565b61148760008484846112b0565b6105ab5760405162461bcd60e51b815260206004820152603260248201527f4552433732313a207472616e7366657220746f206e6f6e20455243373231526560448201527131b2b4bb32b91034b6b83632b6b2b73a32b960711b60648201526084016104ec565b60006114f982610775565b90506115098160008460016111e8565b61151282610775565b600083815260046020908152604080832080546001600160a01b03199081169091556001600160a01b0385168085526003845282852080546000190190558785526002909352818420805490911690555192935084927fddf252ad1be2c89b69c2b068fc378daa952ba7f163c4a11628f55a4df523b3ef908390a45050565b6060600061159e836117ca565b600101905060008167ffffffffffffffff8111156115be576115be611aa4565b6040519080825280601f01601f1916602001820160405280156115e8576020820181803683370190505b5090508181016020015b600019017f3031323334353637383961626364656600000000000000000000000000000000600a86061a8153600a85049450846115f257509392505050565b6001600160a01b0382166116875760405162461bcd60e51b815260206004820181905260248201527f4552433732313a206d696e7420746f20746865207a65726f206164647265737360448201526064016104ec565b6000818152600260205260409020546001600160a01b0316156116ec5760405162461bcd60e51b815260206004820152601c60248201527f4552433732313a20746f6b656e20616c7265616479206d696e7465640000000060448201526064016104ec565b6116fa6000838360016111e8565b6000818152600260205260409020546001600160a01b03161561175f5760405162461bcd60e51b815260206004820152601c60248201527f4552433732313a20746f6b656e20616c7265616479206d696e7465640000000060448201526064016104ec565b6001600160a01b038216600081815260036020908152604080832080546001019055848352600290915280822080546001600160a01b0319168417905551839291907fddf252ad1be2c89b69c2b068fc378daa952ba7f163c4a11628f55a4df523b3ef908290a45050565b6000807a184f03e93ff9f4daa797ed6e38ed64bf6a1f0100000000000000008310611813577a184f03e93ff9f4daa797ed6e38ed64bf6a1f010000000000000000830492506040015b6d04ee2d6d415b85acef8100000000831061183f576d04ee2d6d415b85acef8100000000830492506020015b662386f26fc10000831061185d57662386f26fc10000830492506010015b6305f5e1008310611875576305f5e100830492506008015b612710831061188957612710830492506004015b6064831061189b576064830492506002015b600a831061039d5760010192915050565b5080546118b890611c41565b6000825580601f106118c8575050565b601f01602090049060005260206000209081019061077291905b808211156118f657600081556001016118e2565b5090565b6001600160e01b03198116811461077257600080fd5b60006020828403121561192257600080fd5b8135611469816118fa565b60005b83811015611948578181015183820152602001611930565b50506000910152565b6000815180845261196981602086016020860161192d565b601f01601f19169290920160200192915050565b6020815260006114696020830184611951565b6000602082840312156119a257600080fd5b5035919050565b80356001600160a01b03811681146119c057600080fd5b919050565b600080604083850312156119d857600080fd5b6119e1836119a9565b946020939093013593505050565b600080600060608486031215611a0457600080fd5b611a0d846119a9565b9250611a1b602085016119a9565b9150604084013590509250925092565b60008060408385031215611a3e57600080fd5b50508035926020909101359150565b600060208284031215611a5f57600080fd5b611469826119a9565b60008060408385031215611a7b57600080fd5b611a84836119a9565b915060208301358015158114611a9957600080fd5b809150509250929050565b634e487b7160e01b600052604160045260246000fd5b600067ffffffffffffffff80841115611ad557611ad5611aa4565b604051601f8501601f19908116603f01168101908282118183101715611afd57611afd611aa4565b81604052809350858152868686011115611b1657600080fd5b858560208301376000602087830101525050509392505050565b60008060008060808587031215611b4657600080fd5b611b4f856119a9565b9350611b5d602086016119a9565b925060408501359150606085013567ffffffffffffffff811115611b8057600080fd5b8501601f81018713611b9157600080fd5b611ba087823560208401611aba565b91505092959194509250565b60008060408385031215611bbf57600080fd5b611bc8836119a9565b9150602083013567ffffffffffffffff811115611be457600080fd5b8301601f81018513611bf557600080fd5b611c0485823560208401611aba565b9150509250929050565b60008060408385031215611c2157600080fd5b611c2a836119a9565b9150611c38602084016119a9565b90509250929050565b600181811c90821680611c5557607f821691505b602082108103611c7557634e487b7160e01b600052602260045260246000fd5b50919050565b634e487b7160e01b600052601160045260246000fd5b808202811582820484141761039d5761039d611c7b565b600082611cc557634e487b7160e01b600052601260045260246000fd5b500490565b60008351611cdc81846020880161192d565b835190830190611cf081836020880161192d565b01949350505050565b601f8211156105ab57600081815260208120601f850160051c81016020861015611d205750805b601f850160051c820191505b81811015611d3f57828155600101611d2c565b505050505050565b815167ffffffffffffffff811115611d6157611d61611aa4565b611d7581611d6f8454611c41565b84611cf9565b602080601f831160018114611daa5760008415611d925750858301515b600019600386901b1c1916600185901b178555611d3f565b600085815260208120601f198616915b82811015611dd957888601518255948401946001909101908401611dba565b5085821015611df75787850151600019600388901b60f8161c191681555b5050505050600190811b01905550565b8181038181111561039d5761039d611c7b565b8082018082111561039d5761039d611c7b565b60006001600160a01b03808716835280861660208401525083604083015260806060830152611e5f6080830184611951565b9695505050505050565b600060208284031215611e7b57600080fd5b8151611469816118fa56fea264697066735822122048711ce85d663706efa0e521eecc2282e208fffbf0baf32dcb023feb791308d064736f6c63430008110033",
  "linkReferences": {},
  "deployedLinkReferences": {}
}