{
  "_format": "hh-sol-artifact-1",
  "contractName": "Talaxeum",
  "sourceName": "contracts/TalaxToken.sol",
  "abi": [
    {
      "inputs": [],
      "stateMutability": "nonpayable",
      "type": "constructor"
    },
    {
      "anonymous": false,
      "inputs": [
        {
          "indexed": true,
          "internalType": "address",
          "name": "owner",
          "type": "address"
        },
        {
          "indexed": true,
          "internalType": "address",
          "name": "spender",
          "type": "address"
        },
        {
          "indexed": false,
          "internalType": "uint256",
          "name": "value",
          "type": "uint256"
        }
      ],
      "name": "Approval",
      "type": "event"
    },
    {
      "anonymous": false,
      "inputs": [
        {
          "indexed": false,
          "internalType": "uint256",
          "name": "tax",
          "type": "uint256"
        }
      ],
      "name": "ChangeTaxPercentage",
      "type": "event"
    },
    {
      "anonymous": false,
      "inputs": [
        {
          "indexed": true,
          "internalType": "address",
          "name": "previousOwner",
          "type": "address"
        },
        {
          "indexed": true,
          "internalType": "address",
          "name": "newOwner",
          "type": "address"
        }
      ],
      "name": "OwnershipTransferred",
      "type": "event"
    },
    {
      "anonymous": false,
      "inputs": [
        {
          "indexed": true,
          "internalType": "address",
          "name": "from",
          "type": "address"
        },
        {
          "indexed": true,
          "internalType": "address",
          "name": "to",
          "type": "address"
        },
        {
          "indexed": false,
          "internalType": "uint256",
          "name": "value",
          "type": "uint256"
        }
      ],
      "name": "Transfer",
      "type": "event"
    },
    {
      "stateMutability": "payable",
      "type": "fallback"
    },
    {
      "inputs": [
        {
          "internalType": "address",
          "name": "owner",
          "type": "address"
        },
        {
          "internalType": "address",
          "name": "spender",
          "type": "address"
        }
      ],
      "name": "allowance",
      "outputs": [
        {
          "internalType": "uint256",
          "name": "",
          "type": "uint256"
        }
      ],
      "stateMutability": "view",
      "type": "function"
    },
    {
      "inputs": [
        {
          "internalType": "address",
          "name": "spender",
          "type": "address"
        },
        {
          "internalType": "uint256",
          "name": "amount",
          "type": "uint256"
        }
      ],
      "name": "approve",
      "outputs": [
        {
          "internalType": "bool",
          "name": "",
          "type": "bool"
        }
      ],
      "stateMutability": "nonpayable",
      "type": "function"
    },
    {
      "inputs": [
        {
          "internalType": "address",
          "name": "account",
          "type": "address"
        }
      ],
      "name": "balanceOf",
      "outputs": [
        {
          "internalType": "uint256",
          "name": "",
          "type": "uint256"
        }
      ],
      "stateMutability": "view",
      "type": "function"
    },
    {
      "inputs": [
        {
          "internalType": "uint256",
          "name": "amount",
          "type": "uint256"
        }
      ],
      "name": "burn",
      "outputs": [],
      "stateMutability": "nonpayable",
      "type": "function"
    },
    {
      "inputs": [
        {
          "internalType": "address",
          "name": "account",
          "type": "address"
        },
        {
          "internalType": "uint256",
          "name": "amount",
          "type": "uint256"
        }
      ],
      "name": "burnFrom",
      "outputs": [],
      "stateMutability": "nonpayable",
      "type": "function"
    },
    {
      "inputs": [
        {
          "internalType": "uint256",
          "name": "tax",
          "type": "uint256"
        }
      ],
      "name": "changeTax",
      "outputs": [],
      "stateMutability": "nonpayable",
      "type": "function"
    },
    {
      "inputs": [],
      "name": "decimals",
      "outputs": [
        {
          "internalType": "uint8",
          "name": "",
          "type": "uint8"
        }
      ],
      "stateMutability": "view",
      "type": "function"
    },
    {
      "inputs": [
        {
          "internalType": "address",
          "name": "spender",
          "type": "address"
        },
        {
          "internalType": "uint256",
          "name": "subtractedValue",
          "type": "uint256"
        }
      ],
      "name": "decreaseAllowance",
      "outputs": [
        {
          "internalType": "bool",
          "name": "",
          "type": "bool"
        }
      ],
      "stateMutability": "nonpayable",
      "type": "function"
    },
    {
      "inputs": [],
      "name": "getBalance",
      "outputs": [
        {
          "internalType": "uint256",
          "name": "",
          "type": "uint256"
        }
      ],
      "stateMutability": "view",
      "type": "function"
    },
    {
      "inputs": [
        {
          "internalType": "address",
          "name": "spender",
          "type": "address"
        },
        {
          "internalType": "uint256",
          "name": "addedValue",
          "type": "uint256"
        }
      ],
      "name": "increaseAllowance",
      "outputs": [
        {
          "internalType": "bool",
          "name": "",
          "type": "bool"
        }
      ],
      "stateMutability": "nonpayable",
      "type": "function"
    },
    {
      "inputs": [
        {
          "internalType": "address",
          "name": "to",
          "type": "address"
        },
        {
          "internalType": "uint256",
          "name": "amount",
          "type": "uint256"
        }
      ],
      "name": "mint",
      "outputs": [],
      "stateMutability": "nonpayable",
      "type": "function"
    },
    {
      "inputs": [],
      "name": "name",
      "outputs": [
        {
          "internalType": "string",
          "name": "",
          "type": "string"
        }
      ],
      "stateMutability": "view",
      "type": "function"
    },
    {
      "inputs": [],
      "name": "owner",
      "outputs": [
        {
          "internalType": "address",
          "name": "",
          "type": "address"
        }
      ],
      "stateMutability": "view",
      "type": "function"
    },
    {
      "inputs": [],
      "name": "renounceOwnership",
      "outputs": [],
      "stateMutability": "nonpayable",
      "type": "function"
    },
    {
      "inputs": [],
      "name": "symbol",
      "outputs": [
        {
          "internalType": "string",
          "name": "",
          "type": "string"
        }
      ],
      "stateMutability": "view",
      "type": "function"
    },
    {
      "inputs": [],
      "name": "totalSupply",
      "outputs": [
        {
          "internalType": "uint256",
          "name": "",
          "type": "uint256"
        }
      ],
      "stateMutability": "view",
      "type": "function"
    },
    {
      "inputs": [
        {
          "internalType": "address",
          "name": "to",
          "type": "address"
        },
        {
          "internalType": "uint256",
          "name": "amount",
          "type": "uint256"
        }
      ],
      "name": "transfer",
      "outputs": [
        {
          "internalType": "bool",
          "name": "",
          "type": "bool"
        }
      ],
      "stateMutability": "nonpayable",
      "type": "function"
    },
    {
      "inputs": [
        {
          "internalType": "address",
          "name": "from",
          "type": "address"
        },
        {
          "internalType": "address",
          "name": "to",
          "type": "address"
        },
        {
          "internalType": "uint256",
          "name": "amount",
          "type": "uint256"
        }
      ],
      "name": "transferFrom",
      "outputs": [
        {
          "internalType": "bool",
          "name": "",
          "type": "bool"
        }
      ],
      "stateMutability": "nonpayable",
      "type": "function"
    },
    {
      "inputs": [
        {
          "internalType": "address",
          "name": "newOwner",
          "type": "address"
        }
      ],
      "name": "transferOwnership",
      "outputs": [],
      "stateMutability": "nonpayable",
      "type": "function"
    },
    {
      "inputs": [],
      "name": "withdrawFunds",
      "outputs": [],
      "stateMutability": "nonpayable",
      "type": "function"
    },
    {
      "inputs": [
        {
          "internalType": "address",
          "name": "token",
          "type": "address"
        }
      ],
      "name": "withdrawFunds",
      "outputs": [],
      "stateMutability": "nonpayable",
      "type": "function"
    },
    {
      "stateMutability": "payable",
      "type": "receive"
    }
  ],
  "bytecode": "0x608060405260016006553480156200001657600080fd5b506040518060400160405280600881526020017f54616c617865756d0000000000000000000000000000000000000000000000008152506040518060400160405280600581526020017f54414c415800000000000000000000000000000000000000000000000000000081525081600390805190602001906200009b929190620003bf565b508060049080519060200190620000b4929190620003bf565b505050620000d7620000cb6200012d60201b60201c565b6200013560201b60201c565b62000127620000eb6200012d60201b60201c565b620000fb620001fb60201b60201c565b600a62000109919062000609565b6404e3b292006200011b91906200065a565b6200020460201b60201c565b6200082e565b600033905090565b6000600560009054906101000a900473ffffffffffffffffffffffffffffffffffffffff16905081600560006101000a81548173ffffffffffffffffffffffffffffffffffffffff021916908373ffffffffffffffffffffffffffffffffffffffff1602179055508173ffffffffffffffffffffffffffffffffffffffff168173ffffffffffffffffffffffffffffffffffffffff167f8be0079c531659141344cd1fd0a4f28419497f9722a3daafe3b4186f6b6457e060405160405180910390a35050565b60006012905090565b6200021b82826200021f60201b62000baf1760201c565b5050565b600073ffffffffffffffffffffffffffffffffffffffff168273ffffffffffffffffffffffffffffffffffffffff16141562000292576040517f08c379a000000000000000000000000000000000000000000000000000000000815260040162000289906200071c565b60405180910390fd5b620002a6600083836200039860201b60201c565b8060026000828254620002ba91906200073e565b92505081905550806000808473ffffffffffffffffffffffffffffffffffffffff1673ffffffffffffffffffffffffffffffffffffffff16815260200190815260200160002060008282546200031191906200073e565b925050819055508173ffffffffffffffffffffffffffffffffffffffff16600073ffffffffffffffffffffffffffffffffffffffff167fddf252ad1be2c89b69c2b068fc378daa952ba7f163c4a11628f55a4df523b3ef83604051620003789190620007ac565b60405180910390a362000394600083836200039d60201b60201c565b5050565b505050565b620003b5838383620003ba60201b62000d0f1760201c565b505050565b505050565b828054620003cd90620007f8565b90600052602060002090601f016020900481019282620003f157600085556200043d565b82601f106200040c57805160ff19168380011785556200043d565b828001600101855582156200043d579182015b828111156200043c5782518255916020019190600101906200041f565b5b5090506200044c919062000450565b5090565b5b808211156200046b57600081600090555060010162000451565b5090565b7f4e487b7100000000000000000000000000000000000000000000000000000000600052601160045260246000fd5b60008160011c9050919050565b6000808291508390505b6001851115620004fd57808604811115620004d557620004d46200046f565b5b6001851615620004e55780820291505b8081029050620004f5856200049e565b9450620004b5565b94509492505050565b600082620005185760019050620005eb565b81620005285760009050620005eb565b81600181146200054157600281146200054c5762000582565b6001915050620005eb565b60ff8411156200056157620005606200046f565b5b8360020a9150848211156200057b576200057a6200046f565b5b50620005eb565b5060208310610133831016604e8410600b8410161715620005bc5782820a905083811115620005b657620005b56200046f565b5b620005eb565b620005cb8484846001620004ab565b92509050818404811115620005e557620005e46200046f565b5b81810290505b9392505050565b6000819050919050565b600060ff82169050919050565b60006200061682620005f2565b91506200062383620005fc565b9250620006527fffffffffffffffffffffffffffffffffffffffffffffffffffffffffffffffff848462000506565b905092915050565b60006200066782620005f2565b91506200067483620005f2565b9250817fffffffffffffffffffffffffffffffffffffffffffffffffffffffffffffffff0483118215151615620006b057620006af6200046f565b5b828202905092915050565b600082825260208201905092915050565b7f45524332303a206d696e7420746f20746865207a65726f206164647265737300600082015250565b600062000704601f83620006bb565b91506200071182620006cc565b602082019050919050565b600060208201905081810360008301526200073781620006f5565b9050919050565b60006200074b82620005f2565b91506200075883620005f2565b9250827fffffffffffffffffffffffffffffffffffffffffffffffffffffffffffffffff0382111562000790576200078f6200046f565b5b828201905092915050565b620007a681620005f2565b82525050565b6000602082019050620007c360008301846200079b565b92915050565b7f4e487b7100000000000000000000000000000000000000000000000000000000600052602260045260246000fd5b600060028204905060018216806200081157607f821691505b60208210811415620008285762000827620007c9565b5b50919050565b61275e806200083e6000396000f3fe60806040526004361061012e5760003560e01c806342966c68116100ab5780638da5cb5b1161006f5780638da5cb5b146103d257806395d89b41146103fd578063a457c2d714610428578063a9059cbb14610465578063dd62ed3e146104a2578063f2fde38b146104df57610135565b806342966c681461030357806368742da61461032c57806370a0823114610355578063715018a61461039257806379cc6790146103a957610135565b806324600fc3116100f257806324600fc314610232578063313ce5671461024957806339509351146102745780633e45c8af146102b157806340c10f19146102da57610135565b806306fdde0314610137578063095ea7b31461016257806312065fe01461019f57806318160ddd146101ca57806323b872dd146101f557610135565b3661013557005b005b34801561014357600080fd5b5061014c610508565b60405161015991906118ec565b60405180910390f35b34801561016e57600080fd5b50610189600480360381019061018491906119a7565b61059a565b6040516101969190611a02565b60405180910390f35b3480156101ab57600080fd5b506101b46105bd565b6040516101c19190611a2c565b60405180910390f35b3480156101d657600080fd5b506101df6105c5565b6040516101ec9190611a2c565b60405180910390f35b34801561020157600080fd5b5061021c60048036038101906102179190611a47565b6105cf565b6040516102299190611a02565b60405180910390f35b34801561023e57600080fd5b506102476105fe565b005b34801561025557600080fd5b5061025e6106da565b60405161026b9190611ab6565b60405180910390f35b34801561028057600080fd5b5061029b600480360381019061029691906119a7565b6106e3565b6040516102a89190611a02565b60405180910390f35b3480156102bd57600080fd5b506102d860048036038101906102d39190611ad1565b61071a565b005b3480156102e657600080fd5b5061030160048036038101906102fc91906119a7565b610763565b005b34801561030f57600080fd5b5061032a60048036038101906103259190611ad1565b610779565b005b34801561033857600080fd5b50610353600480360381019061034e9190611afe565b61078d565b005b34801561036157600080fd5b5061037c60048036038101906103779190611afe565b610828565b6040516103899190611a2c565b60405180910390f35b34801561039e57600080fd5b506103a7610870565b005b3480156103b557600080fd5b506103d060048036038101906103cb91906119a7565b610884565b005b3480156103de57600080fd5b506103e76108a4565b6040516103f49190611b3a565b60405180910390f35b34801561040957600080fd5b506104126108ce565b60405161041f91906118ec565b60405180910390f35b34801561043457600080fd5b5061044f600480360381019061044a91906119a7565b610960565b60405161045c9190611a02565b60405180910390f35b34801561047157600080fd5b5061048c600480360381019061048791906119a7565b6109d7565b6040516104999190611a02565b60405180910390f35b3480156104ae57600080fd5b506104c960048036038101906104c49190611b55565b610aa4565b6040516104d69190611a2c565b60405180910390f35b3480156104eb57600080fd5b5061050660048036038101906105019190611afe565b610b2b565b005b60606003805461051790611bc4565b80601f016020809104026020016040519081016040528092919081815260200182805461054390611bc4565b80156105905780601f1061056557610100808354040283529160200191610590565b820191906000526020600020905b81548152906001019060200180831161057357829003601f168201915b5050505050905090565b6000806105a5610d14565b90506105b2818585610d1c565b600191505092915050565b600047905090565b6000600254905090565b6000806105da610d14565b90506105e7858285610ee7565b6105f2858585610f73565b60019150509392505050565b600060034761060d9190611c54565b905060007345094071c4daaf6a9a73b0a0f095a2b138bd8a3a73ffffffffffffffffffffffffffffffffffffffff168260405161064990611cb6565b60006040518083038185875af1925050503d8060008114610686576040519150601f19603f3d011682016040523d82523d6000602084013e61068b565b606091505b5050905060011515811515146106d6576040517f08c379a00000000000000000000000000000000000000000000000000000000081526004016106cd90611d17565b60405180910390fd5b5050565b60006012905090565b6000806106ee610d14565b905061070f8185856107008589610aa4565b61070a9190611d37565b610d1c565b600191505092915050565b610722610f83565b806006819055507fb2442d3ff243b2c486384ca93de99597291265a56cc11d3f99c27ab2a96c1f24816040516107589190611a2c565b60405180910390a150565b61076b610f83565b6107758282611001565b5050565b61078a610784610d14565b8261100f565b50565b610825817345094071c4daaf6a9a73b0a0f095a2b138bd8a3a8373ffffffffffffffffffffffffffffffffffffffff166370a08231306040518263ffffffff1660e01b81526004016107df9190611b3a565b602060405180830381865afa1580156107fc573d6000803e3d6000fd5b505050506040513d601f19601f820116820180604052508101906108209190611da2565b61101d565b50565b60008060008373ffffffffffffffffffffffffffffffffffffffff1673ffffffffffffffffffffffffffffffffffffffff168152602001908152602001600020549050919050565b610878610f83565b61088260006110a3565b565b61089682610890610d14565b83610ee7565b6108a0828261100f565b5050565b6000600560009054906101000a900473ffffffffffffffffffffffffffffffffffffffff16905090565b6060600480546108dd90611bc4565b80601f016020809104026020016040519081016040528092919081815260200182805461090990611bc4565b80156109565780601f1061092b57610100808354040283529160200191610956565b820191906000526020600020905b81548152906001019060200180831161093957829003601f168201915b5050505050905090565b60008061096b610d14565b905060006109798286610aa4565b9050838110156109be576040517f08c379a00000000000000000000000000000000000000000000000000000000081526004016109b590611e41565b60405180910390fd5b6109cb8286868403610d1c565b60019250505092915050565b6000806109e2610d14565b905060006064600654856109f69190611e61565b610a009190611c54565b905060008185610a109190611ebb565b90506000600a600284610a239190611e61565b610a2d9190611c54565b90506000600a600885610a409190611e61565b610a4a9190611c54565b9050610a6b857345094071c4daaf6a9a73b0a0f095a2b138bd8a3a84610f73565b610a8a85731a2118e056d6af192e233c2c9cfb34e067ded1f883610f73565b610a95858985610f73565b60019550505050505092915050565b6000600160008473ffffffffffffffffffffffffffffffffffffffff1673ffffffffffffffffffffffffffffffffffffffff16815260200190815260200160002060008373ffffffffffffffffffffffffffffffffffffffff1673ffffffffffffffffffffffffffffffffffffffff16815260200190815260200160002054905092915050565b610b33610f83565b600073ffffffffffffffffffffffffffffffffffffffff168173ffffffffffffffffffffffffffffffffffffffff161415610ba3576040517f08c379a0000000000000000000000000000000000000000000000000000000008152600401610b9a90611f61565b60405180910390fd5b610bac816110a3565b50565b600073ffffffffffffffffffffffffffffffffffffffff168273ffffffffffffffffffffffffffffffffffffffff161415610c1f576040517f08c379a0000000000000000000000000000000000000000000000000000000008152600401610c1690611fcd565b60405180910390fd5b610c2b60008383611169565b8060026000828254610c3d9190611d37565b92505081905550806000808473ffffffffffffffffffffffffffffffffffffffff1673ffffffffffffffffffffffffffffffffffffffff1681526020019081526020016000206000828254610c929190611d37565b925050819055508173ffffffffffffffffffffffffffffffffffffffff16600073ffffffffffffffffffffffffffffffffffffffff167fddf252ad1be2c89b69c2b068fc378daa952ba7f163c4a11628f55a4df523b3ef83604051610cf79190611a2c565b60405180910390a3610d0b6000838361116e565b5050565b505050565b600033905090565b600073ffffffffffffffffffffffffffffffffffffffff168373ffffffffffffffffffffffffffffffffffffffff161415610d8c576040517f08c379a0000000000000000000000000000000000000000000000000000000008152600401610d839061205f565b60405180910390fd5b600073ffffffffffffffffffffffffffffffffffffffff168273ffffffffffffffffffffffffffffffffffffffff161415610dfc576040517f08c379a0000000000000000000000000000000000000000000000000000000008152600401610df3906120f1565b60405180910390fd5b80600160008573ffffffffffffffffffffffffffffffffffffffff1673ffffffffffffffffffffffffffffffffffffffff16815260200190815260200160002060008473ffffffffffffffffffffffffffffffffffffffff1673ffffffffffffffffffffffffffffffffffffffff168152602001908152602001600020819055508173ffffffffffffffffffffffffffffffffffffffff168373ffffffffffffffffffffffffffffffffffffffff167f8c5be1e5ebec7d5bd14f71427d1e84f3dd0314c0f7b2291e5b200ac8c7c3b92583604051610eda9190611a2c565b60405180910390a3505050565b6000610ef38484610aa4565b90507fffffffffffffffffffffffffffffffffffffffffffffffffffffffffffffffff8114610f6d5781811015610f5f576040517f08c379a0000000000000000000000000000000000000000000000000000000008152600401610f569061215d565b60405180910390fd5b610f6c8484848403610d1c565b5b50505050565b610f7e83838361117e565b505050565b610f8b610d14565b73ffffffffffffffffffffffffffffffffffffffff16610fa96108a4565b73ffffffffffffffffffffffffffffffffffffffff1614610fff576040517f08c379a0000000000000000000000000000000000000000000000000000000008152600401610ff6906121c9565b60405180910390fd5b565b61100b8282610baf565b5050565b61101982826113ff565b5050565b61109e8363a9059cbb60e01b848460405160240161103c9291906121e9565b604051602081830303815290604052907bffffffffffffffffffffffffffffffffffffffffffffffffffffffff19166020820180517bffffffffffffffffffffffffffffffffffffffffffffffffffffffff83818316178352505050506115d6565b505050565b6000600560009054906101000a900473ffffffffffffffffffffffffffffffffffffffff16905081600560006101000a81548173ffffffffffffffffffffffffffffffffffffffff021916908373ffffffffffffffffffffffffffffffffffffffff1602179055508173ffffffffffffffffffffffffffffffffffffffff168173ffffffffffffffffffffffffffffffffffffffff167f8be0079c531659141344cd1fd0a4f28419497f9722a3daafe3b4186f6b6457e060405160405180910390a35050565b505050565b611179838383610d0f565b505050565b600073ffffffffffffffffffffffffffffffffffffffff168373ffffffffffffffffffffffffffffffffffffffff1614156111ee576040517f08c379a00000000000000000000000000000000000000000000000000000000081526004016111e590612284565b60405180910390fd5b600073ffffffffffffffffffffffffffffffffffffffff168273ffffffffffffffffffffffffffffffffffffffff16141561125e576040517f08c379a000000000000000000000000000000000000000000000000000000000815260040161125590612316565b60405180910390fd5b611269838383611169565b60008060008573ffffffffffffffffffffffffffffffffffffffff1673ffffffffffffffffffffffffffffffffffffffff168152602001908152602001600020549050818110156112ef576040517f08c379a00000000000000000000000000000000000000000000000000000000081526004016112e6906123a8565b60405180910390fd5b8181036000808673ffffffffffffffffffffffffffffffffffffffff1673ffffffffffffffffffffffffffffffffffffffff16815260200190815260200160002081905550816000808573ffffffffffffffffffffffffffffffffffffffff1673ffffffffffffffffffffffffffffffffffffffff16815260200190815260200160002060008282546113829190611d37565b925050819055508273ffffffffffffffffffffffffffffffffffffffff168473ffffffffffffffffffffffffffffffffffffffff167fddf252ad1be2c89b69c2b068fc378daa952ba7f163c4a11628f55a4df523b3ef846040516113e69190611a2c565b60405180910390a36113f984848461116e565b50505050565b600073ffffffffffffffffffffffffffffffffffffffff168273ffffffffffffffffffffffffffffffffffffffff16141561146f576040517f08c379a00000000000000000000000000000000000000000000000000000000081526004016114669061243a565b60405180910390fd5b61147b82600083611169565b60008060008473ffffffffffffffffffffffffffffffffffffffff1673ffffffffffffffffffffffffffffffffffffffff16815260200190815260200160002054905081811015611501576040517f08c379a00000000000000000000000000000000000000000000000000000000081526004016114f8906124cc565b60405180910390fd5b8181036000808573ffffffffffffffffffffffffffffffffffffffff1673ffffffffffffffffffffffffffffffffffffffff1681526020019081526020016000208190555081600260008282546115589190611ebb565b92505081905550600073ffffffffffffffffffffffffffffffffffffffff168373ffffffffffffffffffffffffffffffffffffffff167fddf252ad1be2c89b69c2b068fc378daa952ba7f163c4a11628f55a4df523b3ef846040516115bd9190611a2c565b60405180910390a36115d18360008461116e565b505050565b6000611638826040518060400160405280602081526020017f5361666545524332303a206c6f772d6c6576656c2063616c6c206661696c65648152508573ffffffffffffffffffffffffffffffffffffffff1661169d9092919063ffffffff16565b905060008151111561169857808060200190518101906116589190612518565b611697576040517f08c379a000000000000000000000000000000000000000000000000000000000815260040161168e906125b7565b60405180910390fd5b5b505050565b60606116ac84846000856116b5565b90509392505050565b6060824710156116fa576040517f08c379a00000000000000000000000000000000000000000000000000000000081526004016116f190612649565b60405180910390fd5b611703856117c9565b611742576040517f08c379a0000000000000000000000000000000000000000000000000000000008152600401611739906126b5565b60405180910390fd5b6000808673ffffffffffffffffffffffffffffffffffffffff16858760405161176b9190612711565b60006040518083038185875af1925050503d80600081146117a8576040519150601f19603f3d011682016040523d82523d6000602084013e6117ad565b606091505b50915091506117bd8282866117ec565b92505050949350505050565b6000808273ffffffffffffffffffffffffffffffffffffffff163b119050919050565b606083156117fc5782905061184c565b60008351111561180f5782518084602001fd5b816040517f08c379a000000000000000000000000000000000000000000000000000000000815260040161184391906118ec565b60405180910390fd5b9392505050565b600081519050919050565b600082825260208201905092915050565b60005b8381101561188d578082015181840152602081019050611872565b8381111561189c576000848401525b50505050565b6000601f19601f8301169050919050565b60006118be82611853565b6118c8818561185e565b93506118d881856020860161186f565b6118e1816118a2565b840191505092915050565b6000602082019050818103600083015261190681846118b3565b905092915050565b600080fd5b600073ffffffffffffffffffffffffffffffffffffffff82169050919050565b600061193e82611913565b9050919050565b61194e81611933565b811461195957600080fd5b50565b60008135905061196b81611945565b92915050565b6000819050919050565b61198481611971565b811461198f57600080fd5b50565b6000813590506119a18161197b565b92915050565b600080604083850312156119be576119bd61190e565b5b60006119cc8582860161195c565b92505060206119dd85828601611992565b9150509250929050565b60008115159050919050565b6119fc816119e7565b82525050565b6000602082019050611a1760008301846119f3565b92915050565b611a2681611971565b82525050565b6000602082019050611a416000830184611a1d565b92915050565b600080600060608486031215611a6057611a5f61190e565b5b6000611a6e8682870161195c565b9350506020611a7f8682870161195c565b9250506040611a9086828701611992565b9150509250925092565b600060ff82169050919050565b611ab081611a9a565b82525050565b6000602082019050611acb6000830184611aa7565b92915050565b600060208284031215611ae757611ae661190e565b5b6000611af584828501611992565b91505092915050565b600060208284031215611b1457611b1361190e565b5b6000611b228482850161195c565b91505092915050565b611b3481611933565b82525050565b6000602082019050611b4f6000830184611b2b565b92915050565b60008060408385031215611b6c57611b6b61190e565b5b6000611b7a8582860161195c565b9250506020611b8b8582860161195c565b9150509250929050565b7f4e487b7100000000000000000000000000000000000000000000000000000000600052602260045260246000fd5b60006002820490506001821680611bdc57607f821691505b60208210811415611bf057611bef611b95565b5b50919050565b7f4e487b7100000000000000000000000000000000000000000000000000000000600052601260045260246000fd5b7f4e487b7100000000000000000000000000000000000000000000000000000000600052601160045260246000fd5b6000611c5f82611971565b9150611c6a83611971565b925082611c7a57611c79611bf6565b5b828204905092915050565b600081905092915050565b50565b6000611ca0600083611c85565b9150611cab82611c90565b600082019050919050565b6000611cc182611c93565b9150819050919050565b7f4661696c656420746f2073656e64204574686572000000000000000000000000600082015250565b6000611d0160148361185e565b9150611d0c82611ccb565b602082019050919050565b60006020820190508181036000830152611d3081611cf4565b9050919050565b6000611d4282611971565b9150611d4d83611971565b9250827fffffffffffffffffffffffffffffffffffffffffffffffffffffffffffffffff03821115611d8257611d81611c25565b5b828201905092915050565b600081519050611d9c8161197b565b92915050565b600060208284031215611db857611db761190e565b5b6000611dc684828501611d8d565b91505092915050565b7f45524332303a2064656372656173656420616c6c6f77616e63652062656c6f7760008201527f207a65726f000000000000000000000000000000000000000000000000000000602082015250565b6000611e2b60258361185e565b9150611e3682611dcf565b604082019050919050565b60006020820190508181036000830152611e5a81611e1e565b9050919050565b6000611e6c82611971565b9150611e7783611971565b9250817fffffffffffffffffffffffffffffffffffffffffffffffffffffffffffffffff0483118215151615611eb057611eaf611c25565b5b828202905092915050565b6000611ec682611971565b9150611ed183611971565b925082821015611ee457611ee3611c25565b5b828203905092915050565b7f4f776e61626c653a206e6577206f776e657220697320746865207a65726f206160008201527f6464726573730000000000000000000000000000000000000000000000000000602082015250565b6000611f4b60268361185e565b9150611f5682611eef565b604082019050919050565b60006020820190508181036000830152611f7a81611f3e565b9050919050565b7f45524332303a206d696e7420746f20746865207a65726f206164647265737300600082015250565b6000611fb7601f8361185e565b9150611fc282611f81565b602082019050919050565b60006020820190508181036000830152611fe681611faa565b9050919050565b7f45524332303a20617070726f76652066726f6d20746865207a65726f2061646460008201527f7265737300000000000000000000000000000000000000000000000000000000602082015250565b600061204960248361185e565b915061205482611fed565b604082019050919050565b600060208201905081810360008301526120788161203c565b9050919050565b7f45524332303a20617070726f766520746f20746865207a65726f20616464726560008201527f7373000000000000000000000000000000000000000000000000000000000000602082015250565b60006120db60228361185e565b91506120e68261207f565b604082019050919050565b6000602082019050818103600083015261210a816120ce565b9050919050565b7f45524332303a20696e73756666696369656e7420616c6c6f77616e6365000000600082015250565b6000612147601d8361185e565b915061215282612111565b602082019050919050565b600060208201905081810360008301526121768161213a565b9050919050565b7f4f776e61626c653a2063616c6c6572206973206e6f7420746865206f776e6572600082015250565b60006121b360208361185e565b91506121be8261217d565b602082019050919050565b600060208201905081810360008301526121e2816121a6565b9050919050565b60006040820190506121fe6000830185611b2b565b61220b6020830184611a1d565b9392505050565b7f45524332303a207472616e736665722066726f6d20746865207a65726f20616460008201527f6472657373000000000000000000000000000000000000000000000000000000602082015250565b600061226e60258361185e565b915061227982612212565b604082019050919050565b6000602082019050818103600083015261229d81612261565b9050919050565b7f45524332303a207472616e7366657220746f20746865207a65726f206164647260008201527f6573730000000000000000000000000000000000000000000000000000000000602082015250565b600061230060238361185e565b915061230b826122a4565b604082019050919050565b6000602082019050818103600083015261232f816122f3565b9050919050565b7f45524332303a207472616e7366657220616d6f756e742065786365656473206260008201527f616c616e63650000000000000000000000000000000000000000000000000000602082015250565b600061239260268361185e565b915061239d82612336565b604082019050919050565b600060208201905081810360008301526123c181612385565b9050919050565b7f45524332303a206275726e2066726f6d20746865207a65726f2061646472657360008201527f7300000000000000000000000000000000000000000000000000000000000000602082015250565b600061242460218361185e565b915061242f826123c8565b604082019050919050565b6000602082019050818103600083015261245381612417565b9050919050565b7f45524332303a206275726e20616d6f756e7420657863656564732062616c616e60008201527f6365000000000000000000000000000000000000000000000000000000000000602082015250565b60006124b660228361185e565b91506124c18261245a565b604082019050919050565b600060208201905081810360008301526124e5816124a9565b9050919050565b6124f5816119e7565b811461250057600080fd5b50565b600081519050612512816124ec565b92915050565b60006020828403121561252e5761252d61190e565b5b600061253c84828501612503565b91505092915050565b7f5361666545524332303a204552433230206f7065726174696f6e20646964206e60008201527f6f74207375636365656400000000000000000000000000000000000000000000602082015250565b60006125a1602a8361185e565b91506125ac82612545565b604082019050919050565b600060208201905081810360008301526125d081612594565b9050919050565b7f416464726573733a20696e73756666696369656e742062616c616e636520666f60008201527f722063616c6c0000000000000000000000000000000000000000000000000000602082015250565b600061263360268361185e565b915061263e826125d7565b604082019050919050565b6000602082019050818103600083015261266281612626565b9050919050565b7f416464726573733a2063616c6c20746f206e6f6e2d636f6e7472616374000000600082015250565b600061269f601d8361185e565b91506126aa82612669565b602082019050919050565b600060208201905081810360008301526126ce81612692565b9050919050565b600081519050919050565b60006126eb826126d5565b6126f58185611c85565b935061270581856020860161186f565b80840191505092915050565b600061271d82846126e0565b91508190509291505056fea2646970667358221220417438242a2775d5e4a484333709296d626305bc74099ea8ae6533253e7cfe8564736f6c634300080b0033",
  "linkReferences": {},
  "deployedLinkReferences": {}
}