{
  "_format": "hh-sol-artifact-1",
  "contractName": "TalaxToken",
  "sourceName": "contracts/TalaxToken.sol",
  "abi": [
    {
      "inputs": [],
      "stateMutability": "nonpayable",
      "type": "constructor"
    },
    {
      "anonymous": false,
      "inputs": [
        {
          "indexed": true,
          "internalType": "address",
          "name": "from",
          "type": "address"
        },
        {
          "indexed": true,
          "internalType": "address",
          "name": "who",
          "type": "address"
        },
        {
          "indexed": false,
          "internalType": "uint256",
          "name": "amount",
          "type": "uint256"
        }
      ],
      "name": "AddPrivateSale",
      "type": "event"
    },
    {
      "anonymous": false,
      "inputs": [
        {
          "indexed": false,
          "internalType": "uint256",
          "name": "amount",
          "type": "uint256"
        }
      ],
      "name": "AirdropChanged",
      "type": "event"
    },
    {
      "anonymous": false,
      "inputs": [
        {
          "indexed": true,
          "internalType": "address",
          "name": "owner",
          "type": "address"
        },
        {
          "indexed": true,
          "internalType": "address",
          "name": "spender",
          "type": "address"
        },
        {
          "indexed": false,
          "internalType": "uint256",
          "name": "value",
          "type": "uint256"
        }
      ],
      "name": "Approval",
      "type": "event"
    },
    {
      "anonymous": false,
      "inputs": [
        {
          "indexed": true,
          "internalType": "address",
          "name": "from",
          "type": "address"
        },
        {
          "indexed": false,
          "internalType": "uint256",
          "name": "amount",
          "type": "uint256"
        }
      ],
      "name": "ChangeAirdropPercentage",
      "type": "event"
    },
    {
      "anonymous": false,
      "inputs": [
        {
          "indexed": true,
          "internalType": "address",
          "name": "who",
          "type": "address"
        },
        {
          "indexed": false,
          "internalType": "bool",
          "name": "status",
          "type": "bool"
        }
      ],
      "name": "ChangeAirdropStatus",
      "type": "event"
    },
    {
      "anonymous": false,
      "inputs": [
        {
          "indexed": true,
          "internalType": "address",
          "name": "from",
          "type": "address"
        },
        {
          "indexed": false,
          "internalType": "uint256",
          "name": "amount",
          "type": "uint256"
        }
      ],
      "name": "ChangePenaltyFee",
      "type": "event"
    },
    {
      "anonymous": false,
      "inputs": [
        {
          "indexed": true,
          "internalType": "address",
          "name": "who",
          "type": "address"
        },
        {
          "indexed": false,
          "internalType": "uint256",
          "name": "amount",
          "type": "uint256"
        }
      ],
      "name": "ChangeTax",
      "type": "event"
    },
    {
      "anonymous": false,
      "inputs": [
        {
          "indexed": true,
          "internalType": "address",
          "name": "from",
          "type": "address"
        },
        {
          "indexed": true,
          "internalType": "address",
          "name": "who",
          "type": "address"
        }
      ],
      "name": "DeletePrivateSale",
      "type": "event"
    },
    {
      "anonymous": false,
      "inputs": [
        {
          "indexed": true,
          "internalType": "address",
          "name": "from",
          "type": "address"
        }
      ],
      "name": "InitiateLockedWallet",
      "type": "event"
    },
    {
      "anonymous": false,
      "inputs": [
        {
          "indexed": true,
          "internalType": "address",
          "name": "from",
          "type": "address"
        }
      ],
      "name": "InitiatePrivateSale",
      "type": "event"
    },
    {
      "anonymous": false,
      "inputs": [
        {
          "indexed": true,
          "internalType": "address",
          "name": "previousOwner",
          "type": "address"
        },
        {
          "indexed": true,
          "internalType": "address",
          "name": "newOwner",
          "type": "address"
        }
      ],
      "name": "OwnershipTransferred",
      "type": "event"
    },
    {
      "anonymous": false,
      "inputs": [
        {
          "indexed": false,
          "internalType": "uint256",
          "name": "amount",
          "type": "uint256"
        }
      ],
      "name": "PenaltyChanged",
      "type": "event"
    },
    {
      "anonymous": false,
      "inputs": [
        {
          "indexed": true,
          "internalType": "address",
          "name": "user",
          "type": "address"
        },
        {
          "indexed": false,
          "internalType": "uint256",
          "name": "amount",
          "type": "uint256"
        },
        {
          "indexed": false,
          "internalType": "uint256",
          "name": "index",
          "type": "uint256"
        },
        {
          "indexed": false,
          "internalType": "uint256",
          "name": "timestamp",
          "type": "uint256"
        },
        {
          "indexed": false,
          "internalType": "uint256",
          "name": "releaseTime",
          "type": "uint256"
        }
      ],
      "name": "Staked",
      "type": "event"
    },
    {
      "anonymous": false,
      "inputs": [
        {
          "indexed": true,
          "internalType": "address",
          "name": "from",
          "type": "address"
        },
        {
          "indexed": true,
          "internalType": "address",
          "name": "to",
          "type": "address"
        },
        {
          "indexed": false,
          "internalType": "uint256",
          "name": "value",
          "type": "uint256"
        }
      ],
      "name": "Transfer",
      "type": "event"
    },
    {
      "stateMutability": "payable",
      "type": "fallback"
    },
    {
      "inputs": [],
      "name": "_airdropStatus",
      "outputs": [
        {
          "internalType": "bool",
          "name": "",
          "type": "bool"
        }
      ],
      "stateMutability": "view",
      "type": "function"
    },
    {
      "inputs": [],
      "name": "_devPool",
      "outputs": [
        {
          "internalType": "uint256",
          "name": "",
          "type": "uint256"
        }
      ],
      "stateMutability": "view",
      "type": "function"
    },
    {
      "inputs": [],
      "name": "_privateSale",
      "outputs": [
        {
          "internalType": "uint256",
          "name": "",
          "type": "uint256"
        }
      ],
      "stateMutability": "view",
      "type": "function"
    },
    {
      "inputs": [],
      "name": "_stakingReward",
      "outputs": [
        {
          "internalType": "uint256",
          "name": "",
          "type": "uint256"
        }
      ],
      "stateMutability": "view",
      "type": "function"
    },
    {
      "inputs": [],
      "name": "_startPrivateSale",
      "outputs": [
        {
          "internalType": "uint256",
          "name": "",
          "type": "uint256"
        }
      ],
      "stateMutability": "view",
      "type": "function"
    },
    {
      "inputs": [],
      "name": "_taxFee",
      "outputs": [
        {
          "internalType": "uint16",
          "name": "",
          "type": "uint16"
        }
      ],
      "stateMutability": "view",
      "type": "function"
    },
    {
      "inputs": [
        {
          "internalType": "address",
          "name": "user",
          "type": "address"
        },
        {
          "internalType": "uint256",
          "name": "amount",
          "type": "uint256"
        }
      ],
      "name": "addBeneficiary",
      "outputs": [],
      "stateMutability": "nonpayable",
      "type": "function"
    },
    {
      "inputs": [
        {
          "components": [
            {
              "internalType": "address",
              "name": "user",
              "type": "address"
            },
            {
              "internalType": "uint256",
              "name": "amount",
              "type": "uint256"
            }
          ],
          "internalType": "struct TalaxToken.Beneficiary[]",
          "name": "benefs",
          "type": "tuple[]"
        }
      ],
      "name": "addMultipleBeneficiary",
      "outputs": [],
      "stateMutability": "nonpayable",
      "type": "function"
    },
    {
      "inputs": [
        {
          "internalType": "address",
          "name": "owner",
          "type": "address"
        },
        {
          "internalType": "address",
          "name": "spender",
          "type": "address"
        }
      ],
      "name": "allowance",
      "outputs": [
        {
          "internalType": "uint256",
          "name": "",
          "type": "uint256"
        }
      ],
      "stateMutability": "view",
      "type": "function"
    },
    {
      "inputs": [
        {
          "internalType": "address",
          "name": "spender",
          "type": "address"
        },
        {
          "internalType": "uint256",
          "name": "amount",
          "type": "uint256"
        }
      ],
      "name": "approve",
      "outputs": [
        {
          "internalType": "bool",
          "name": "",
          "type": "bool"
        }
      ],
      "stateMutability": "nonpayable",
      "type": "function"
    },
    {
      "inputs": [
        {
          "internalType": "address",
          "name": "account",
          "type": "address"
        }
      ],
      "name": "balanceOf",
      "outputs": [
        {
          "internalType": "uint256",
          "name": "",
          "type": "uint256"
        }
      ],
      "stateMutability": "view",
      "type": "function"
    },
    {
      "inputs": [
        {
          "internalType": "uint256",
          "name": "amount_",
          "type": "uint256"
        }
      ],
      "name": "burnLiquidityReserve",
      "outputs": [],
      "stateMutability": "nonpayable",
      "type": "function"
    },
    {
      "inputs": [
        {
          "internalType": "uint256",
          "name": "amount_",
          "type": "uint256"
        }
      ],
      "name": "burnStakingReward",
      "outputs": [],
      "stateMutability": "nonpayable",
      "type": "function"
    },
    {
      "inputs": [
        {
          "internalType": "uint256",
          "name": "airdrop_",
          "type": "uint256"
        }
      ],
      "name": "changeAirdropPercentage",
      "outputs": [],
      "stateMutability": "nonpayable",
      "type": "function"
    },
    {
      "inputs": [
        {
          "internalType": "bool",
          "name": "status_",
          "type": "bool"
        }
      ],
      "name": "changeAirdropStatus",
      "outputs": [],
      "stateMutability": "nonpayable",
      "type": "function"
    },
    {
      "inputs": [
        {
          "internalType": "uint256",
          "name": "penaltyFee_",
          "type": "uint256"
        }
      ],
      "name": "changePenaltyFee",
      "outputs": [],
      "stateMutability": "nonpayable",
      "type": "function"
    },
    {
      "inputs": [
        {
          "internalType": "uint16",
          "name": "taxFee_",
          "type": "uint16"
        }
      ],
      "name": "changeTaxFee",
      "outputs": [],
      "stateMutability": "nonpayable",
      "type": "function"
    },
    {
      "inputs": [],
      "name": "claimAirdrop",
      "outputs": [],
      "stateMutability": "nonpayable",
      "type": "function"
    },
    {
      "inputs": [],
      "name": "claimPrivateSale",
      "outputs": [],
      "stateMutability": "nonpayable",
      "type": "function"
    },
    {
      "inputs": [],
      "name": "decimals",
      "outputs": [
        {
          "internalType": "uint8",
          "name": "",
          "type": "uint8"
        }
      ],
      "stateMutability": "view",
      "type": "function"
    },
    {
      "inputs": [
        {
          "internalType": "address",
          "name": "spender",
          "type": "address"
        },
        {
          "internalType": "uint256",
          "name": "subtractedValue",
          "type": "uint256"
        }
      ],
      "name": "decreaseAllowance",
      "outputs": [
        {
          "internalType": "bool",
          "name": "",
          "type": "bool"
        }
      ],
      "stateMutability": "nonpayable",
      "type": "function"
    },
    {
      "inputs": [
        {
          "internalType": "address",
          "name": "user",
          "type": "address"
        }
      ],
      "name": "deleteBeneficiary",
      "outputs": [],
      "stateMutability": "nonpayable",
      "type": "function"
    },
    {
      "inputs": [
        {
          "internalType": "address[]",
          "name": "benefs",
          "type": "address[]"
        }
      ],
      "name": "deleteMultipleBeneficiary",
      "outputs": [],
      "stateMutability": "nonpayable",
      "type": "function"
    },
    {
      "inputs": [],
      "name": "dev_pool_address_1",
      "outputs": [
        {
          "internalType": "address",
          "name": "",
          "type": "address"
        }
      ],
      "stateMutability": "view",
      "type": "function"
    },
    {
      "inputs": [],
      "name": "dev_pool_address_2",
      "outputs": [
        {
          "internalType": "address",
          "name": "",
          "type": "address"
        }
      ],
      "stateMutability": "view",
      "type": "function"
    },
    {
      "inputs": [],
      "name": "dev_pool_address_3",
      "outputs": [
        {
          "internalType": "address",
          "name": "",
          "type": "address"
        }
      ],
      "stateMutability": "view",
      "type": "function"
    },
    {
      "inputs": [],
      "name": "getOwner",
      "outputs": [
        {
          "internalType": "address",
          "name": "",
          "type": "address"
        }
      ],
      "stateMutability": "view",
      "type": "function"
    },
    {
      "inputs": [],
      "name": "hasMultilockable",
      "outputs": [
        {
          "components": [
            {
              "internalType": "uint256",
              "name": "lockedAmount",
              "type": "uint256"
            },
            {
              "internalType": "uint256",
              "name": "amount",
              "type": "uint256"
            },
            {
              "internalType": "bool",
              "name": "phase_1_claimed",
              "type": "bool"
            },
            {
              "internalType": "uint256",
              "name": "latestClaimDay",
              "type": "uint256"
            }
          ],
          "internalType": "struct Multilockable.Multilock",
          "name": "",
          "type": "tuple"
        }
      ],
      "stateMutability": "view",
      "type": "function"
    },
    {
      "inputs": [
        {
          "internalType": "address",
          "name": "_staker",
          "type": "address"
        }
      ],
      "name": "hasStake",
      "outputs": [
        {
          "components": [
            {
              "internalType": "uint256",
              "name": "total_amount",
              "type": "uint256"
            },
            {
              "components": [
                {
                  "internalType": "address",
                  "name": "user",
                  "type": "address"
                },
                {
                  "internalType": "uint256",
                  "name": "amount",
                  "type": "uint256"
                },
                {
                  "internalType": "uint256",
                  "name": "since",
                  "type": "uint256"
                },
                {
                  "internalType": "uint256",
                  "name": "claimable",
                  "type": "uint256"
                },
                {
                  "internalType": "uint256",
                  "name": "claimable_airdrop",
                  "type": "uint256"
                },
                {
                  "internalType": "uint256",
                  "name": "rewardAPY",
                  "type": "uint256"
                },
                {
                  "internalType": "uint256",
                  "name": "releaseTime",
                  "type": "uint256"
                }
              ],
              "internalType": "struct Stakable.Stake[]",
              "name": "stakes",
              "type": "tuple[]"
            }
          ],
          "internalType": "struct Stakable.StakingSummary",
          "name": "",
          "type": "tuple"
        }
      ],
      "stateMutability": "view",
      "type": "function"
    },
    {
      "inputs": [
        {
          "internalType": "address",
          "name": "spender",
          "type": "address"
        },
        {
          "internalType": "uint256",
          "name": "addedValue",
          "type": "uint256"
        }
      ],
      "name": "increaseAllowance",
      "outputs": [
        {
          "internalType": "bool",
          "name": "",
          "type": "bool"
        }
      ],
      "stateMutability": "nonpayable",
      "type": "function"
    },
    {
      "inputs": [],
      "name": "initiateLockedWallet_PrivateSale",
      "outputs": [],
      "stateMutability": "nonpayable",
      "type": "function"
    },
    {
      "inputs": [],
      "name": "lockedWalletStatus",
      "outputs": [
        {
          "internalType": "bool",
          "name": "",
          "type": "bool"
        }
      ],
      "stateMutability": "view",
      "type": "function"
    },
    {
      "inputs": [
        {
          "internalType": "uint256",
          "name": "amount",
          "type": "uint256"
        }
      ],
      "name": "mint",
      "outputs": [
        {
          "internalType": "bool",
          "name": "",
          "type": "bool"
        }
      ],
      "stateMutability": "nonpayable",
      "type": "function"
    },
    {
      "inputs": [
        {
          "internalType": "uint256",
          "name": "amount_",
          "type": "uint256"
        }
      ],
      "name": "mintLiquidityReserve",
      "outputs": [],
      "stateMutability": "nonpayable",
      "type": "function"
    },
    {
      "inputs": [
        {
          "internalType": "uint256",
          "name": "amount_",
          "type": "uint256"
        }
      ],
      "name": "mintStakingReward",
      "outputs": [],
      "stateMutability": "nonpayable",
      "type": "function"
    },
    {
      "inputs": [],
      "name": "name",
      "outputs": [
        {
          "internalType": "string",
          "name": "",
          "type": "string"
        }
      ],
      "stateMutability": "view",
      "type": "function"
    },
    {
      "inputs": [],
      "name": "owner",
      "outputs": [
        {
          "internalType": "address",
          "name": "",
          "type": "address"
        }
      ],
      "stateMutability": "view",
      "type": "function"
    },
    {
      "inputs": [],
      "name": "penaltyFee",
      "outputs": [
        {
          "internalType": "uint256",
          "name": "",
          "type": "uint256"
        }
      ],
      "stateMutability": "view",
      "type": "function"
    },
    {
      "inputs": [],
      "name": "phase_1_total",
      "outputs": [
        {
          "internalType": "uint256",
          "name": "",
          "type": "uint256"
        }
      ],
      "stateMutability": "view",
      "type": "function"
    },
    {
      "inputs": [],
      "name": "phase_2_total",
      "outputs": [
        {
          "internalType": "uint256",
          "name": "",
          "type": "uint256"
        }
      ],
      "stateMutability": "view",
      "type": "function"
    },
    {
      "inputs": [],
      "name": "privateSaleStatus",
      "outputs": [
        {
          "internalType": "bool",
          "name": "",
          "type": "bool"
        }
      ],
      "stateMutability": "view",
      "type": "function"
    },
    {
      "inputs": [],
      "name": "private_placement_address",
      "outputs": [
        {
          "internalType": "address",
          "name": "",
          "type": "address"
        }
      ],
      "stateMutability": "view",
      "type": "function"
    },
    {
      "inputs": [],
      "name": "public_sale_address",
      "outputs": [
        {
          "internalType": "address",
          "name": "",
          "type": "address"
        }
      ],
      "stateMutability": "view",
      "type": "function"
    },
    {
      "inputs": [],
      "name": "renounceOwnership",
      "outputs": [],
      "stateMutability": "nonpayable",
      "type": "function"
    },
    {
      "inputs": [
        {
          "internalType": "uint256",
          "name": "_amount",
          "type": "uint256"
        },
        {
          "internalType": "uint256",
          "name": "_stakePeriod",
          "type": "uint256"
        }
      ],
      "name": "stake",
      "outputs": [],
      "stateMutability": "nonpayable",
      "type": "function"
    },
    {
      "inputs": [],
      "name": "strategic_partner_address_1",
      "outputs": [
        {
          "internalType": "address",
          "name": "",
          "type": "address"
        }
      ],
      "stateMutability": "view",
      "type": "function"
    },
    {
      "inputs": [],
      "name": "strategic_partner_address_2",
      "outputs": [
        {
          "internalType": "address",
          "name": "",
          "type": "address"
        }
      ],
      "stateMutability": "view",
      "type": "function"
    },
    {
      "inputs": [],
      "name": "strategic_partner_address_3",
      "outputs": [
        {
          "internalType": "address",
          "name": "",
          "type": "address"
        }
      ],
      "stateMutability": "view",
      "type": "function"
    },
    {
      "inputs": [],
      "name": "symbol",
      "outputs": [
        {
          "internalType": "string",
          "name": "",
          "type": "string"
        }
      ],
      "stateMutability": "view",
      "type": "function"
    },
    {
      "inputs": [],
      "name": "team_and_project_coordinator_address_1",
      "outputs": [
        {
          "internalType": "address",
          "name": "",
          "type": "address"
        }
      ],
      "stateMutability": "view",
      "type": "function"
    },
    {
      "inputs": [],
      "name": "team_and_project_coordinator_address_2",
      "outputs": [
        {
          "internalType": "address",
          "name": "",
          "type": "address"
        }
      ],
      "stateMutability": "view",
      "type": "function"
    },
    {
      "inputs": [],
      "name": "team_and_project_coordinator_address_3",
      "outputs": [
        {
          "internalType": "address",
          "name": "",
          "type": "address"
        }
      ],
      "stateMutability": "view",
      "type": "function"
    },
    {
      "inputs": [],
      "name": "thisAddress",
      "outputs": [
        {
          "internalType": "address",
          "name": "",
          "type": "address"
        }
      ],
      "stateMutability": "view",
      "type": "function"
    },
    {
      "inputs": [],
      "name": "totalAmount",
      "outputs": [
        {
          "internalType": "uint256",
          "name": "",
          "type": "uint256"
        }
      ],
      "stateMutability": "view",
      "type": "function"
    },
    {
      "inputs": [],
      "name": "totalSupply",
      "outputs": [
        {
          "internalType": "uint256",
          "name": "",
          "type": "uint256"
        }
      ],
      "stateMutability": "view",
      "type": "function"
    },
    {
      "inputs": [],
      "name": "totalUser",
      "outputs": [
        {
          "internalType": "uint256",
          "name": "",
          "type": "uint256"
        }
      ],
      "stateMutability": "view",
      "type": "function"
    },
    {
      "inputs": [
        {
          "internalType": "address",
          "name": "recipient",
          "type": "address"
        },
        {
          "internalType": "uint256",
          "name": "amount",
          "type": "uint256"
        }
      ],
      "name": "transfer",
      "outputs": [
        {
          "internalType": "bool",
          "name": "",
          "type": "bool"
        }
      ],
      "stateMutability": "nonpayable",
      "type": "function"
    },
    {
      "inputs": [
        {
          "internalType": "address",
          "name": "to_",
          "type": "address"
        },
        {
          "internalType": "uint256",
          "name": "amount_",
          "type": "uint256"
        }
      ],
      "name": "transferDevPool",
      "outputs": [],
      "stateMutability": "nonpayable",
      "type": "function"
    },
    {
      "inputs": [
        {
          "internalType": "address",
          "name": "sender",
          "type": "address"
        },
        {
          "internalType": "address",
          "name": "recipient",
          "type": "address"
        },
        {
          "internalType": "uint256",
          "name": "amount",
          "type": "uint256"
        }
      ],
      "name": "transferFrom",
      "outputs": [
        {
          "internalType": "bool",
          "name": "",
          "type": "bool"
        }
      ],
      "stateMutability": "nonpayable",
      "type": "function"
    },
    {
      "inputs": [
        {
          "internalType": "address",
          "name": "newOwner",
          "type": "address"
        }
      ],
      "name": "transferOwnership",
      "outputs": [],
      "stateMutability": "nonpayable",
      "type": "function"
    },
    {
      "inputs": [],
      "name": "unlockPrivatePlacementWallet",
      "outputs": [],
      "stateMutability": "nonpayable",
      "type": "function"
    },
    {
      "inputs": [],
      "name": "unlockStrategicPartnerWallet_1",
      "outputs": [],
      "stateMutability": "nonpayable",
      "type": "function"
    },
    {
      "inputs": [],
      "name": "unlockStrategicPartnerWallet_2",
      "outputs": [],
      "stateMutability": "nonpayable",
      "type": "function"
    },
    {
      "inputs": [],
      "name": "unlockStrategicPartnerWallet_3",
      "outputs": [],
      "stateMutability": "nonpayable",
      "type": "function"
    },
    {
      "inputs": [],
      "name": "unlockTeamAndProjectCoordinatorWallet_1",
      "outputs": [],
      "stateMutability": "nonpayable",
      "type": "function"
    },
    {
      "inputs": [],
      "name": "unlockTeamAndProjectCoordinatorWallet_2",
      "outputs": [],
      "stateMutability": "nonpayable",
      "type": "function"
    },
    {
      "inputs": [],
      "name": "unlockTeamAndProjectCoordinatorWallet_3",
      "outputs": [],
      "stateMutability": "nonpayable",
      "type": "function"
    },
    {
      "inputs": [
        {
          "internalType": "uint256",
          "name": "stake_index",
          "type": "uint256"
        }
      ],
      "name": "withdrawAllStake",
      "outputs": [],
      "stateMutability": "nonpayable",
      "type": "function"
    },
    {
      "inputs": [
        {
          "internalType": "uint256",
          "name": "amount",
          "type": "uint256"
        },
        {
          "internalType": "uint256",
          "name": "stake_index",
          "type": "uint256"
        }
      ],
      "name": "withdrawStake",
      "outputs": [],
      "stateMutability": "nonpayable",
      "type": "function"
    },
    {
      "stateMutability": "payable",
      "type": "receive"
    }
  ],
  "bytecode": "0x60806040526a0c24662f3b1cd0486000006006553480156200002057600080fd5b506000620000336200087d60201b60201c565b9050806000806101000a81548173ffffffffffffffffffffffffffffffffffffffff021916908373ffffffffffffffffffffffffffffffffffffffff1602179055508073ffffffffffffffffffffffffffffffffffffffff16600073ffffffffffffffffffffffffffffffffffffffff167f8be0079c531659141344cd1fd0a4f28419497f9722a3daafe3b4186f6b6457e060405160405180910390a350600360018160018154018082558091505003906000526020600020905050600f60018190555060506002819055506040518060400160405280600881526020017f54414c415845554d000000000000000000000000000000000000000000000000815250600d90805190602001906200014c92919062000951565b506040518060400160405280600581526020017f54414c4158000000000000000000000000000000000000000000000000000000815250600e90805190602001906200019a92919062000951565b506012600c60006101000a81548160ff021916908360ff1602179055506aadb53acfa41aee12000000600b8190555062000224600b54600960003373ffffffffffffffffffffffffffffffffffffffff1673ffffffffffffffffffffffffffffffffffffffff168152602001908152602001600020546200088560201b620055fd1790919060201c565b600960003373ffffffffffffffffffffffffffffffffffffffff1673ffffffffffffffffffffffffffffffffffffffff168152602001908152602001600020819055506001601360036101000a81548161ffff021916908361ffff1602179055506000601360006101000a81548160ff0219169083151502179055506006600f60006276a7008152602001908152602001600020819055506007600f600062ed4e008152602001908152602001600020819055506008600f60006301da9c008152602001908152602001600020819055506a2b6d4eb3e906bb84800000600960003073ffffffffffffffffffffffffffffffffffffffff1673ffffffffffffffffffffffffffffffffffffffff168152602001908152602001600020819055506a0e7cbbd7aa8310ae4000006010819055506a3d36f4e0edf3c8048000006011819055506a01e92959d60776d7c0000060096000735470c8ff25ec05980fc7c2967d076b8012298fe773ffffffffffffffffffffffffffffffffffffffff1673ffffffffffffffffffffffffffffffffffffffff168152602001908152602001600020819055506a0c24662f3b1cd0486000006012819055506a05c8d34a23da1650a000007307a20dc6722563783e44ba8edca08c774621125e6040516200040c90620009e2565b6200041992919062000b15565b604051809103906000f08015801562000436573d6000803e3d6000fd5b50601360056101000a81548173ffffffffffffffffffffffffffffffffffffffff021916908373ffffffffffffffffffffffffffffffffffffffff1602179055506a02e5276153cd3fb3800000732f838cf0df38b2e91e747a01ddae5ebad5558b7a604051620004a690620009e2565b620004b392919062000ae8565b604051809103906000f080158015620004d0573d6000803e3d6000fd5b50601460006101000a81548173ffffffffffffffffffffffffffffffffffffffff021916908373ffffffffffffffffffffffffffffffffffffffff1602179055506a02e5276153cd3fb38000007345094071c4daaf6a9a73b0a0f095a2b138bd8a3a6040516200054090620009e2565b6200054d92919062000ae8565b604051809103906000f0801580156200056a573d6000803e3d6000fd5b50601560006101000a81548173ffffffffffffffffffffffffffffffffffffffff021916908373ffffffffffffffffffffffffffffffffffffffff1602179055506a02e5276153cd3fb380000073aeb26fb84d0e2b3b353cd50f0a29fd40c916d2ab604051620005da90620009e2565b620005e792919062000ae8565b604051809103906000f08015801562000604573d6000803e3d6000fd5b50601660006101000a81548173ffffffffffffffffffffffffffffffffffffffff021916908373ffffffffffffffffffffffffffffffffffffffff1602179055506a08af7623fb67bf1a80000073e61e7a7d16db384433e532fb85724e7f3bdaae2f6040516200067490620009e2565b6200068192919062000abb565b604051809103906000f0801580156200069e573d6000803e3d6000fd5b50601760006101000a81548173ffffffffffffffffffffffffffffffffffffffff021916908373ffffffffffffffffffffffffffffffffffffffff1602179055506a08af7623fb67bf1a80000073406605eb24a97a2d61b516d8d850f2aefa6a731a6040516200070e90620009e2565b6200071b92919062000abb565b604051809103906000f08015801562000738573d6000803e3d6000fd5b50601860006101000a81548173ffffffffffffffffffffffffffffffffffffffff021916908373ffffffffffffffffffffffffffffffffffffffff1602179055506a08af7623fb67bf1a8000007397620deadc98bc8173303686037ce7b986cf53c3604051620007a890620009e2565b620007b592919062000abb565b604051809103906000f080158015620007d2573d6000803e3d6000fd5b50601960006101000a81548173ffffffffffffffffffffffffffffffffffffffff021916908373ffffffffffffffffffffffffffffffffffffffff160217905550620008716a8247ec1bbb14328d8000006040518060400160405280601981526020017f496e73756666696369656e7420546f74616c20537570706c7900000000000000815250600b54620008e860201b6200565b179092919060201c565b600b8190555062000dba565b600033905090565b600080828462000896919062000ba4565b905083811015620008de576040517f08c379a0000000000000000000000000000000000000000000000000000000008152600401620008d59062000b66565b60405180910390fd5b8091505092915050565b600083831115829062000933576040517f08c379a00000000000000000000000000000000000000000000000000000000081526004016200092a919062000b42565b60405180910390fd5b506000838562000944919062000c01565b9050809150509392505050565b8280546200095f9062000cec565b90600052602060002090601f016020900481019282620009835760008555620009cf565b82601f106200099e57805160ff1916838001178555620009cf565b82800160010185558215620009cf579182015b82811115620009ce578251825591602001919060010190620009b1565b5b509050620009de9190620009f0565b5090565b610e4d806200c13f83390190565b5b8082111562000a0b576000816000905550600101620009f1565b5090565b62000a1a8162000c3c565b82525050565b62000a2b8162000c7a565b82525050565b62000a3c8162000c8e565b82525050565b62000a4d8162000ca2565b82525050565b600062000a608262000b88565b62000a6c818562000b93565b935062000a7e81856020860162000cb6565b62000a898162000d80565b840191505092915050565b600062000aa3601b8362000b93565b915062000ab08262000d91565b602082019050919050565b600060408201905062000ad2600083018562000a20565b62000ae1602083018462000a0f565b9392505050565b600060408201905062000aff600083018562000a31565b62000b0e602083018462000a0f565b9392505050565b600060408201905062000b2c600083018562000a42565b62000b3b602083018462000a0f565b9392505050565b6000602082019050818103600083015262000b5e818462000a53565b905092915050565b6000602082019050818103600083015262000b818162000a94565b9050919050565b600081519050919050565b600082825260208201905092915050565b600062000bb18262000c70565b915062000bbe8362000c70565b9250827fffffffffffffffffffffffffffffffffffffffffffffffffffffffffffffffff0382111562000bf65762000bf562000d22565b5b828201905092915050565b600062000c0e8262000c70565b915062000c1b8362000c70565b92508282101562000c315762000c3062000d22565b5b828203905092915050565b600062000c498262000c50565b9050919050565b600073ffffffffffffffffffffffffffffffffffffffff82169050919050565b6000819050919050565b600062000c878262000c70565b9050919050565b600062000c9b8262000c70565b9050919050565b600062000caf8262000c70565b9050919050565b60005b8381101562000cd657808201518184015260208101905062000cb9565b8381111562000ce6576000848401525b50505050565b6000600282049050600182168062000d0557607f821691505b6020821081141562000d1c5762000d1b62000d51565b5b50919050565b7f4e487b7100000000000000000000000000000000000000000000000000000000600052601160045260246000fd5b7f4e487b7100000000000000000000000000000000000000000000000000000000600052602260045260246000fd5b6000601f19601f8301169050919050565b7f536166654d6174683a206164646974696f6e206f766572666c6f770000000000600082015250565b61b3758062000dca6000396000f3fe6080604052600436106103fe5760003560e01c80638abb1d1711610213578063adf3364c11610123578063e1604b70116100ab578063f1fdf4691161007a578063f1fdf46914610e83578063f2fde38b14610eac578063f5ad7c3d14610ed5578063f729b00f14610f00578063fe6c9cc014610f295761040e565b8063e1604b7014610dd9578063e3473d6014610e04578063e73e14bf14610e1b578063e88c326f14610e585761040e565b8063d5dbdf1b116100f2578063d5dbdf1b14610cf4578063d632f63914610d1d578063d94d4ad614610d48578063d9dc2d8d14610d71578063dd62ed3e14610d9c5761040e565b8063adf3364c14610c4a578063be47279414610c73578063c680111c14610c9e578063d4dca69b14610cc95761040e565b806396074e70116101a6578063a1f780cf11610175578063a1f780cf14610b51578063a3626dbb14610b7a578063a457c2d714610ba5578063a837a65e14610be2578063a9059cbb14610c0d5761040e565b806396074e7014610a975780639f42a98b14610ac0578063a0712d6814610aeb578063a169c51514610b285761040e565b8063908e0d1e116101e2578063908e0d1e14610a1357806390a4c70914610a3e578063934851ec14610a5557806395d89b4114610a6c5761040e565b80638abb1d171461096b5780638b7c64da146109965780638c63f97f146109bf5780638da5cb5b146109e85761040e565b806350549c7d1161030e5780637a76d62e116102a15780637d3bca76116102705780637d3bca76146108c05780638378a875146108e9578063883d9984146109005780638902cd7014610917578063893d20e8146109405761040e565b80637a76d62e1461082a5780637b0472f0146108555780637c2412f91461087e5780637cb85214146108955761040e565b806370a08231116102dd57806370a0823114610780578063715018a6146107bd57806372fe1e63146107d4578063760edffd146107ff5761040e565b806350549c7d146106fe57806356029137146107295780635b88349d146107405780636f12d9f8146107575761040e565b80631a39d8ef11610391578063376d441c11610360578063376d441c1461062957806339509351146106545780633b124fe7146106915780633dc10ad4146106bc5780633f3ef2dc146106e75761040e565b80631a39d8ef1461056b57806321aeac1b1461059657806323b872dd146105c1578063313ce567146105fe5761040e565b80630e1b09ed116103cd5780630e1b09ed146104d557806315441bb9146104fe57806318160ddd1461051557806319ca147d146105405761040e565b806306f200bd1461041957806306fdde0314610444578063078f522f1461046f578063095ea7b3146104985761040e565b3661040e5761040c34610f54565b005b61041734610f54565b005b34801561042557600080fd5b5061042e61119e565b60405161043b919061a48f565b60405180910390f35b34801561045057600080fd5b506104596111a4565b6040516104669190619eba565b60405180910390f35b34801561047b57600080fd5b506104966004803603810190610491919061946e565b611236565b005b3480156104a457600080fd5b506104bf60048036038101906104ba91906193ed565b61157b565b6040516104cc9190619e9f565b60405180910390f35b3480156104e157600080fd5b506104fc60048036038101906104f7919061952e565b611599565b005b34801561050a57600080fd5b50610513611711565b005b34801561052157600080fd5b5061052a6119d9565b604051610537919061a48f565b60405180910390f35b34801561054c57600080fd5b506105556119e3565b604051610562919061a41c565b60405180910390f35b34801561057757600080fd5b50610580611af9565b60405161058d919061a48f565b60405180910390f35b3480156105a257600080fd5b506105ab611aff565b6040516105b89190619e3f565b60405180910390f35b3480156105cd57600080fd5b506105e860048036038101906105e3919061939e565b611b17565b6040516105f59190619e9f565b60405180910390f35b34801561060a57600080fd5b50610613611bf0565b604051610620919061a4ef565b60405180910390f35b34801561063557600080fd5b5061063e611c07565b60405161064b9190619e9f565b60405180910390f35b34801561066057600080fd5b5061067b600480360381019061067691906193ed565b611c1a565b6040516106889190619e9f565b60405180910390f35b34801561069d57600080fd5b506106a6611ccd565b6040516106b3919061a459565b60405180910390f35b3480156106c857600080fd5b506106d1611ce1565b6040516106de919061a48f565b60405180910390f35b3480156106f357600080fd5b506106fc611ceb565b005b34801561070a57600080fd5b50610713611fb3565b6040516107209190619e3f565b60405180910390f35b34801561073557600080fd5b5061073e611fcb565b005b34801561074c57600080fd5b50610755612293565b005b34801561076357600080fd5b5061077e600480360381019061077991906193ed565b612438565b005b34801561078c57600080fd5b506107a760048036038101906107a29190619310565b61261f565b6040516107b4919061a48f565b60405180910390f35b3480156107c957600080fd5b506107d2612668565b005b3480156107e057600080fd5b506107e96127bb565b6040516107f6919061a48f565b60405180910390f35b34801561080b57600080fd5b506108146127c1565b604051610821919061a48f565b60405180910390f35b34801561083657600080fd5b5061083f6127d0565b60405161084c919061a48f565b60405180910390f35b34801561086157600080fd5b5061087c60048036038101906108779190619580565b6127d6565b005b34801561088a57600080fd5b50610893612993565b005b3480156108a157600080fd5b506108aa612a4d565b6040516108b79190619e9f565b60405180910390f35b3480156108cc57600080fd5b506108e760048036038101906108e29190619310565b612a60565b005b3480156108f557600080fd5b506108fe612bcf565b005b34801561090c57600080fd5b50610915612e97565b005b34801561092357600080fd5b5061093e60048036038101906109399190619505565b61315f565b005b34801561094c57600080fd5b506109556132b0565b6040516109629190619e3f565b60405180910390f35b34801561097757600080fd5b506109806132bf565b60405161098d9190619e3f565b60405180910390f35b3480156109a257600080fd5b506109bd60048036038101906109b8919061952e565b6132d7565b005b3480156109cb57600080fd5b506109e660048036038101906109e1919061952e565b613506565b005b3480156109f457600080fd5b506109fd6135fc565b604051610a0a9190619e3f565b60405180910390f35b348015610a1f57600080fd5b50610a28613625565b604051610a359190619e3f565b60405180910390f35b348015610a4a57600080fd5b50610a5361363d565b005b348015610a6157600080fd5b50610a6a613905565b005b348015610a7857600080fd5b50610a81613bcd565b604051610a8e9190619eba565b60405180910390f35b348015610aa357600080fd5b50610abe6004803603810190610ab991906193ed565b613c5f565b005b348015610acc57600080fd5b50610ad5613e19565b604051610ae29190619e3f565b60405180910390f35b348015610af757600080fd5b50610b126004803603810190610b0d919061952e565b613e31565b604051610b1f9190619e9f565b60405180910390f35b348015610b3457600080fd5b50610b4f6004803603810190610b4a919061952e565b613ee2565b005b348015610b5d57600080fd5b50610b786004803603810190610b739190619429565b61405a565b005b348015610b8657600080fd5b50610b8f6142cc565b604051610b9c9190619e3f565b60405180910390f35b348015610bb157600080fd5b50610bcc6004803603810190610bc791906193ed565b6142e4565b604051610bd99190619e9f565b60405180910390f35b348015610bee57600080fd5b50610bf76143b1565b604051610c049190619e3f565b60405180910390f35b348015610c1957600080fd5b50610c346004803603810190610c2f91906193ed565b6143c9565b604051610c419190619e9f565b60405180910390f35b348015610c5657600080fd5b50610c716004803603810190610c6c91906194b3565b6143e7565b005b348015610c7f57600080fd5b50610c886144ee565b604051610c959190619e3f565b60405180910390f35b348015610caa57600080fd5b50610cb3614506565b604051610cc09190619e3f565b60405180910390f35b348015610cd557600080fd5b50610cde61451e565b604051610ceb9190619e3f565b60405180910390f35b348015610d0057600080fd5b50610d1b6004803603810190610d16919061952e565b614526565b005b348015610d2957600080fd5b50610d3261461c565b604051610d3f919061a48f565b60405180910390f35b348015610d5457600080fd5b50610d6f6004803603810190610d6a919061952e565b614622565b005b348015610d7d57600080fd5b50610d86614813565b604051610d939190619e3f565b60405180910390f35b348015610da857600080fd5b50610dc36004803603810190610dbe9190619362565b61482b565b604051610dd0919061a48f565b60405180910390f35b348015610de557600080fd5b50610dee6148b2565b604051610dfb919061a48f565b60405180910390f35b348015610e1057600080fd5b50610e196148b8565b005b348015610e2757600080fd5b50610e426004803603810190610e3d9190619310565b614e24565b604051610e4f919061a437565b60405180910390f35b348015610e6457600080fd5b50610e6d615179565b604051610e7a9190619e9f565b60405180910390f35b348015610e8f57600080fd5b50610eaa6004803603810190610ea59190619580565b61518c565b005b348015610eb857600080fd5b50610ed36004803603810190610ece9190619310565b615362565b005b348015610ee157600080fd5b50610eea615403565b604051610ef79190619e3f565b60405180910390f35b348015610f0c57600080fd5b50610f276004803603810190610f22919061952e565b61541b565b005b348015610f3557600080fd5b50610f3e6155ef565b604051610f4b919061a48f565b60405180910390f35b6000610f618260036156bf565b9050610fc9816009600073e61e7a7d16db384433e532fb85724e7f3bdaae2f73ffffffffffffffffffffffffffffffffffffffff1673ffffffffffffffffffffffffffffffffffffffff168152602001908152602001600020546155fd90919063ffffffff16565b6009600073e61e7a7d16db384433e532fb85724e7f3bdaae2f73ffffffffffffffffffffffffffffffffffffffff1673ffffffffffffffffffffffffffffffffffffffff16815260200190815260200160002081905550611086816009600073406605eb24a97a2d61b516d8d850f2aefa6a731a73ffffffffffffffffffffffffffffffffffffffff1673ffffffffffffffffffffffffffffffffffffffff168152602001908152602001600020546155fd90919063ffffffff16565b6009600073406605eb24a97a2d61b516d8d850f2aefa6a731a73ffffffffffffffffffffffffffffffffffffffff1673ffffffffffffffffffffffffffffffffffffffff1681526020019081526020016000208190555061114381600960007397620deadc98bc8173303686037ce7b986cf53c373ffffffffffffffffffffffffffffffffffffffff1673ffffffffffffffffffffffffffffffffffffffff168152602001908152602001600020546155fd90919063ffffffff16565b600960007397620deadc98bc8173303686037ce7b986cf53c373ffffffffffffffffffffffffffffffffffffffff1673ffffffffffffffffffffffffffffffffffffffff168152602001908152602001600020819055505050565b60105481565b6060600d80546111b39061a749565b80601f01602080910402602001604051908101604052809291908181526020018280546111df9061a749565b801561122c5780601f106112015761010080835404028352916020019161122c565b820191906000526020600020905b81548152906001019060200180831161120f57829003601f168201915b5050505050905090565b61123e615709565b73ffffffffffffffffffffffffffffffffffffffff1660008054906101000a900473ffffffffffffffffffffffffffffffffffffffff1673ffffffffffffffffffffffffffffffffffffffff16146112cb576040517f08c379a00000000000000000000000000000000000000000000000000000000081526004016112c29061a21c565b60405180910390fd5b60011515601360029054906101000a900460ff16151514611321576040517f08c379a00000000000000000000000000000000000000000000000000000000081526004016113189061a2fc565b60405180910390fd5b60008282905011611367576040517f08c379a000000000000000000000000000000000000000000000000000000000815260040161135e9061a31c565b60405180910390fd5b60005b82829050811015611576578282828181106113ae577f4e487b7100000000000000000000000000000000000000000000000000000000600052603260045260246000fd5b90506040020160200135601260008282546113c9919061a66d565b9250508190555061146c83838381811061140c577f4e487b7100000000000000000000000000000000000000000000000000000000600052603260045260246000fd5b90506040020160000160208101906114249190619310565b84848481811061145d577f4e487b7100000000000000000000000000000000000000000000000000000000600052603260045260246000fd5b90506040020160200135615711565b8282828181106114a5577f4e487b7100000000000000000000000000000000000000000000000000000000600052603260045260246000fd5b90506040020160000160208101906114bd9190619310565b73ffffffffffffffffffffffffffffffffffffffff163373ffffffffffffffffffffffffffffffffffffffff167f045b7246d64fe59430ba3159fd11dc7352501c1d80f8a6535cf48f68965e2745858585818110611544577f4e487b7100000000000000000000000000000000000000000000000000000000600052603260045260246000fd5b9050604002016020013560405161155b919061a48f565b60405180910390a3808061156e9061a77b565b91505061136a565b505050565b600061158f611588615709565b8484615943565b6001905092915050565b6115a1615709565b73ffffffffffffffffffffffffffffffffffffffff1660008054906101000a900473ffffffffffffffffffffffffffffffffffffffff1673ffffffffffffffffffffffffffffffffffffffff161461162e576040517f08c379a00000000000000000000000000000000000000000000000000000000081526004016116259061a21c565b60405180910390fd5b6010548110611672576040517f08c379a00000000000000000000000000000000000000000000000000000000081526004016116699061a01c565b60405180910390fd5b61168781601054615b0e90919063ffffffff16565b6010819055506116a281600b54615b0e90919063ffffffff16565b600b81905550600073ffffffffffffffffffffffffffffffffffffffff163073ffffffffffffffffffffffffffffffffffffffff167fddf252ad1be2c89b69c2b068fc378daa952ba7f163c4a11628f55a4df523b3ef83604051611706919061a48f565b60405180910390a350565b60011515601360019054906101000a900460ff16151514611767576040517f08c379a000000000000000000000000000000000000000000000000000000000815260040161175e9061a13c565b60405180910390fd5b601560009054906101000a900473ffffffffffffffffffffffffffffffffffffffff1673ffffffffffffffffffffffffffffffffffffffff166338af3eed6040518163ffffffff1660e01b815260040160206040518083038186803b1580156117cf57600080fd5b505afa1580156117e3573d6000803e3d6000fd5b505050506040513d601f19601f820116820180604052508101906118079190619339565b73ffffffffffffffffffffffffffffffffffffffff16611825615709565b73ffffffffffffffffffffffffffffffffffffffff161461187b576040517f08c379a00000000000000000000000000000000000000000000000000000000081526004016118729061a09c565b60405180910390fd5b6000601560009054906101000a900473ffffffffffffffffffffffffffffffffffffffff1673ffffffffffffffffffffffffffffffffffffffff1663e7d88c426118c3615b58565b6040518263ffffffff1660e01b81526004016118df9190619e83565b602060405180830381600087803b1580156118f957600080fd5b505af115801561190d573d6000803e3d6000fd5b505050506040513d601f19601f820116820180604052508101906119319190619557565b905061198c8160096000611943615709565b73ffffffffffffffffffffffffffffffffffffffff1673ffffffffffffffffffffffffffffffffffffffff168152602001908152602001600020546155fd90919063ffffffff16565b60096000611998615709565b73ffffffffffffffffffffffffffffffffffffffff1673ffffffffffffffffffffffffffffffffffffffff1681526020019081526020016000208190555050565b6000600b54905090565b6119eb619182565b6000600860003373ffffffffffffffffffffffffffffffffffffffff1673ffffffffffffffffffffffffffffffffffffffff168152602001908152602001600020600101541415611a71576040517f08c379a0000000000000000000000000000000000000000000000000000000008152600401611a689061a2dc565b60405180910390fd5b600860003373ffffffffffffffffffffffffffffffffffffffff1673ffffffffffffffffffffffffffffffffffffffff16815260200190815260200160002060405180608001604052908160008201548152602001600182015481526020016002820160009054906101000a900460ff16151515158152602001600382015481525050905090565b60065481565b73406605eb24a97a2d61b516d8d850f2aefa6a731a81565b6000611b248484846160a9565b611be584611b30615709565b611be08560405180606001604052806028815260200161b29860289139600a60008b73ffffffffffffffffffffffffffffffffffffffff1673ffffffffffffffffffffffffffffffffffffffff1681526020019081526020016000206000611b96615709565b73ffffffffffffffffffffffffffffffffffffffff1673ffffffffffffffffffffffffffffffffffffffff1681526020019081526020016000205461565b9092919063ffffffff16565b615943565b600190509392505050565b6000600c60009054906101000a900460ff16905090565b601360029054906101000a900460ff1681565b6000611cc3611c27615709565b84611cbe85600a6000611c38615709565b73ffffffffffffffffffffffffffffffffffffffff1673ffffffffffffffffffffffffffffffffffffffff16815260200190815260200160002060008973ffffffffffffffffffffffffffffffffffffffff1673ffffffffffffffffffffffffffffffffffffffff168152602001908152602001600020546155fd90919063ffffffff16565b615943565b6001905092915050565b601360039054906101000a900461ffff1681565b6000600154905090565b60011515601360019054906101000a900460ff16151514611d41576040517f08c379a0000000000000000000000000000000000000000000000000000000008152600401611d389061a13c565b60405180910390fd5b601960009054906101000a900473ffffffffffffffffffffffffffffffffffffffff1673ffffffffffffffffffffffffffffffffffffffff166338af3eed6040518163ffffffff1660e01b815260040160206040518083038186803b158015611da957600080fd5b505afa158015611dbd573d6000803e3d6000fd5b505050506040513d601f19601f82011682018060405250810190611de19190619339565b73ffffffffffffffffffffffffffffffffffffffff16611dff615709565b73ffffffffffffffffffffffffffffffffffffffff1614611e55576040517f08c379a0000000000000000000000000000000000000000000000000000000008152600401611e4c9061a09c565b60405180910390fd5b6000601960009054906101000a900473ffffffffffffffffffffffffffffffffffffffff1673ffffffffffffffffffffffffffffffffffffffff1663e7d88c42611e9d616722565b6040518263ffffffff1660e01b8152600401611eb99190619e83565b602060405180830381600087803b158015611ed357600080fd5b505af1158015611ee7573d6000803e3d6000fd5b505050506040513d601f19601f82011682018060405250810190611f0b9190619557565b9050611f668160096000611f1d615709565b73ffffffffffffffffffffffffffffffffffffffff1673ffffffffffffffffffffffffffffffffffffffff168152602001908152602001600020546155fd90919063ffffffff16565b60096000611f72615709565b73ffffffffffffffffffffffffffffffffffffffff1673ffffffffffffffffffffffffffffffffffffffff1681526020019081526020016000208190555050565b735470c8ff25ec05980fc7c2967d076b8012298fe781565b60011515601360019054906101000a900460ff16151514612021576040517f08c379a00000000000000000000000000000000000000000000000000000000081526004016120189061a13c565b60405180910390fd5b601760009054906101000a900473ffffffffffffffffffffffffffffffffffffffff1673ffffffffffffffffffffffffffffffffffffffff166338af3eed6040518163ffffffff1660e01b815260040160206040518083038186803b15801561208957600080fd5b505afa15801561209d573d6000803e3d6000fd5b505050506040513d601f19601f820116820180604052508101906120c19190619339565b73ffffffffffffffffffffffffffffffffffffffff166120df615709565b73ffffffffffffffffffffffffffffffffffffffff1614612135576040517f08c379a000000000000000000000000000000000000000000000000000000000815260040161212c9061a09c565b60405180910390fd5b6000601760009054906101000a900473ffffffffffffffffffffffffffffffffffffffff1673ffffffffffffffffffffffffffffffffffffffff1663e7d88c4261217d616722565b6040518263ffffffff1660e01b81526004016121999190619e83565b602060405180830381600087803b1580156121b357600080fd5b505af11580156121c7573d6000803e3d6000fd5b505050506040513d601f19601f820116820180604052508101906121eb9190619557565b905061224681600960006121fd615709565b73ffffffffffffffffffffffffffffffffffffffff1673ffffffffffffffffffffffffffffffffffffffff168152602001908152602001600020546155fd90919063ffffffff16565b60096000612252615709565b73ffffffffffffffffffffffffffffffffffffffff1673ffffffffffffffffffffffffffffffffffffffff1681526020019081526020016000208190555050565b60011515601360009054906101000a900460ff161515146122e9576040517f08c379a00000000000000000000000000000000000000000000000000000000081526004016122e090619f1c565b60405180910390fd5b60006122fb6122f6615709565b616b9f565b905061234f81600960003073ffffffffffffffffffffffffffffffffffffffff1673ffffffffffffffffffffffffffffffffffffffff16815260200190815260200160002054615b0e90919063ffffffff16565b600960003073ffffffffffffffffffffffffffffffffffffffff1673ffffffffffffffffffffffffffffffffffffffff168152602001908152602001600020819055506123eb81600960006123a2615709565b73ffffffffffffffffffffffffffffffffffffffff1673ffffffffffffffffffffffffffffffffffffffff168152602001908152602001600020546155fd90919063ffffffff16565b600960006123f7615709565b73ffffffffffffffffffffffffffffffffffffffff1673ffffffffffffffffffffffffffffffffffffffff1681526020019081526020016000208190555050565b612440615709565b73ffffffffffffffffffffffffffffffffffffffff1660008054906101000a900473ffffffffffffffffffffffffffffffffffffffff1673ffffffffffffffffffffffffffffffffffffffff16146124cd576040517f08c379a00000000000000000000000000000000000000000000000000000000081526004016124c49061a21c565b60405180910390fd5b6000811415612511576040517f08c379a000000000000000000000000000000000000000000000000000000000815260040161250890619fbc565b60405180910390fd5b6011548110612555576040517f08c379a000000000000000000000000000000000000000000000000000000000815260040161254c9061a1fc565b60405180910390fd5b600073ffffffffffffffffffffffffffffffffffffffff168273ffffffffffffffffffffffffffffffffffffffff1614156125c5576040517f08c379a00000000000000000000000000000000000000000000000000000000081526004016125bc90619f5c565b60405180910390fd5b80600960008473ffffffffffffffffffffffffffffffffffffffff1673ffffffffffffffffffffffffffffffffffffffff1681526020019081526020016000206000828254612614919061a58c565b925050819055505050565b6000600960008373ffffffffffffffffffffffffffffffffffffffff1673ffffffffffffffffffffffffffffffffffffffff168152602001908152602001600020549050919050565b612670615709565b73ffffffffffffffffffffffffffffffffffffffff1660008054906101000a900473ffffffffffffffffffffffffffffffffffffffff1673ffffffffffffffffffffffffffffffffffffffff16146126fd576040517f08c379a00000000000000000000000000000000000000000000000000000000081526004016126f49061a21c565b60405180910390fd5b600073ffffffffffffffffffffffffffffffffffffffff1660008054906101000a900473ffffffffffffffffffffffffffffffffffffffff1673ffffffffffffffffffffffffffffffffffffffff167f8be0079c531659141344cd1fd0a4f28419497f9722a3daafe3b4186f6b6457e060405160405180910390a360008060006101000a81548173ffffffffffffffffffffffffffffffffffffffff021916908373ffffffffffffffffffffffffffffffffffffffff160217905550565b60075481565b6a0136d704b91c7b3a70000081565b60115481565b62278d008114806127e957506276a70081145b806127f6575062ed4e0081145b8061280457506301e1338081145b612843576040517f08c379a000000000000000000000000000000000000000000000000000000000815260040161283a9061a3dc565b60405180910390fd5b6009600061284f615709565b73ffffffffffffffffffffffffffffffffffffffff1673ffffffffffffffffffffffffffffffffffffffff1681526020019081526020016000205482106128cb576040517f08c379a00000000000000000000000000000000000000000000000000000000081526004016128c29061a27c565b60405180910390fd5b6128e98282600f600085815260200190815260200160002054616e45565b6128fa6128f4615709565b83617151565b61294c82600960003073ffffffffffffffffffffffffffffffffffffffff1673ffffffffffffffffffffffffffffffffffffffff168152602001908152602001600020546155fd90919063ffffffff16565b600960003073ffffffffffffffffffffffffffffffffffffffff1673ffffffffffffffffffffffffffffffffffffffff168152602001908152602001600020819055505050565b60006129a56129a0615709565b6172f5565b9050612a0081600960006129b7615709565b73ffffffffffffffffffffffffffffffffffffffff1673ffffffffffffffffffffffffffffffffffffffff168152602001908152602001600020546155fd90919063ffffffff16565b60096000612a0c615709565b73ffffffffffffffffffffffffffffffffffffffff1673ffffffffffffffffffffffffffffffffffffffff1681526020019081526020016000208190555050565b601360009054906101000a900460ff1681565b612a68615709565b73ffffffffffffffffffffffffffffffffffffffff1660008054906101000a900473ffffffffffffffffffffffffffffffffffffffff1673ffffffffffffffffffffffffffffffffffffffff1614612af5576040517f08c379a0000000000000000000000000000000000000000000000000000000008152600401612aec9061a21c565b60405180910390fd5b60011515601360029054906101000a900460ff16151514612b4b576040517f08c379a0000000000000000000000000000000000000000000000000000000008152600401612b429061a2fc565b60405180910390fd5b6000612b568261747f565b90508060126000828254612b6a919061a58c565b925050819055508173ffffffffffffffffffffffffffffffffffffffff163373ffffffffffffffffffffffffffffffffffffffff167f946ed2f29c189bb6f4744c09f637bda38011cabc8d1433bb26ddad258b9e82d660405160405180910390a35050565b60011515601360019054906101000a900460ff16151514612c25576040517f08c379a0000000000000000000000000000000000000000000000000000000008152600401612c1c9061a13c565b60405180910390fd5b601460009054906101000a900473ffffffffffffffffffffffffffffffffffffffff1673ffffffffffffffffffffffffffffffffffffffff166338af3eed6040518163ffffffff1660e01b815260040160206040518083038186803b158015612c8d57600080fd5b505afa158015612ca1573d6000803e3d6000fd5b505050506040513d601f19601f82011682018060405250810190612cc59190619339565b73ffffffffffffffffffffffffffffffffffffffff16612ce3615709565b73ffffffffffffffffffffffffffffffffffffffff1614612d39576040517f08c379a0000000000000000000000000000000000000000000000000000000008152600401612d309061a09c565b60405180910390fd5b6000601460009054906101000a900473ffffffffffffffffffffffffffffffffffffffff1673ffffffffffffffffffffffffffffffffffffffff1663e7d88c42612d81615b58565b6040518263ffffffff1660e01b8152600401612d9d9190619e83565b602060405180830381600087803b158015612db757600080fd5b505af1158015612dcb573d6000803e3d6000fd5b505050506040513d601f19601f82011682018060405250810190612def9190619557565b9050612e4a8160096000612e01615709565b73ffffffffffffffffffffffffffffffffffffffff1673ffffffffffffffffffffffffffffffffffffffff168152602001908152602001600020546155fd90919063ffffffff16565b60096000612e56615709565b73ffffffffffffffffffffffffffffffffffffffff1673ffffffffffffffffffffffffffffffffffffffff1681526020019081526020016000208190555050565b60011515601360019054906101000a900460ff16151514612eed576040517f08c379a0000000000000000000000000000000000000000000000000000000008152600401612ee49061a13c565b60405180910390fd5b601660009054906101000a900473ffffffffffffffffffffffffffffffffffffffff1673ffffffffffffffffffffffffffffffffffffffff166338af3eed6040518163ffffffff1660e01b815260040160206040518083038186803b158015612f5557600080fd5b505afa158015612f69573d6000803e3d6000fd5b505050506040513d601f19601f82011682018060405250810190612f8d9190619339565b73ffffffffffffffffffffffffffffffffffffffff16612fab615709565b73ffffffffffffffffffffffffffffffffffffffff1614613001576040517f08c379a0000000000000000000000000000000000000000000000000000000008152600401612ff89061a09c565b60405180910390fd5b6000601660009054906101000a900473ffffffffffffffffffffffffffffffffffffffff1673ffffffffffffffffffffffffffffffffffffffff1663e7d88c42613049615b58565b6040518263ffffffff1660e01b81526004016130659190619e83565b602060405180830381600087803b15801561307f57600080fd5b505af1158015613093573d6000803e3d6000fd5b505050506040513d601f19601f820116820180604052508101906130b79190619557565b905061311281600960006130c9615709565b73ffffffffffffffffffffffffffffffffffffffff1673ffffffffffffffffffffffffffffffffffffffff168152602001908152602001600020546155fd90919063ffffffff16565b6009600061311e615709565b73ffffffffffffffffffffffffffffffffffffffff1673ffffffffffffffffffffffffffffffffffffffff1681526020019081526020016000208190555050565b613167615709565b73ffffffffffffffffffffffffffffffffffffffff1660008054906101000a900473ffffffffffffffffffffffffffffffffffffffff1673ffffffffffffffffffffffffffffffffffffffff16146131f4576040517f08c379a00000000000000000000000000000000000000000000000000000000081526004016131eb9061a21c565b60405180910390fd5b60058161ffff161061323b576040517f08c379a00000000000000000000000000000000000000000000000000000000081526004016132329061a0fc565b60405180910390fd5b80601360036101000a81548161ffff021916908361ffff160217905550613260615709565b73ffffffffffffffffffffffffffffffffffffffff167fdf92943b31fff67e8447ff9fa8b5e226ddcc5fb34d36cfe120c0f2b96eb8d6f7826040516132a5919061a474565b60405180910390a250565b60006132ba6135fc565b905090565b73f09f65dd4d229e991901669ad7c7549f060e30b981565b6132df615709565b73ffffffffffffffffffffffffffffffffffffffff1660008054906101000a900473ffffffffffffffffffffffffffffffffffffffff1673ffffffffffffffffffffffffffffffffffffffff161461336c576040517f08c379a00000000000000000000000000000000000000000000000000000000081526004016133639061a21c565b60405180910390fd5b600960003073ffffffffffffffffffffffffffffffffffffffff1673ffffffffffffffffffffffffffffffffffffffff1681526020019081526020016000205481106133ed576040517f08c379a00000000000000000000000000000000000000000000000000000000081526004016133e49061a1bc565b60405180910390fd5b61343f81600960003073ffffffffffffffffffffffffffffffffffffffff1673ffffffffffffffffffffffffffffffffffffffff16815260200190815260200160002054615b0e90919063ffffffff16565b600960003073ffffffffffffffffffffffffffffffffffffffff1673ffffffffffffffffffffffffffffffffffffffff1681526020019081526020016000208190555061349781600b54615b0e90919063ffffffff16565b600b81905550600073ffffffffffffffffffffffffffffffffffffffff163073ffffffffffffffffffffffffffffffffffffffff167fddf252ad1be2c89b69c2b068fc378daa952ba7f163c4a11628f55a4df523b3ef836040516134fb919061a48f565b60405180910390a350565b61350e615709565b73ffffffffffffffffffffffffffffffffffffffff1660008054906101000a900473ffffffffffffffffffffffffffffffffffffffff1673ffffffffffffffffffffffffffffffffffffffff161461359b576040517f08c379a00000000000000000000000000000000000000000000000000000000081526004016135929061a21c565b60405180910390fd5b6135a481617639565b6135ac615709565b73ffffffffffffffffffffffffffffffffffffffff167fe4d1041ab63832a18ae323c0781239637b799ccd1ffa03b0cc4c0916f14834d7826040516135f1919061a48f565b60405180910390a250565b60008060009054906101000a900473ffffffffffffffffffffffffffffffffffffffff16905090565b73e61e7a7d16db384433e532fb85724e7f3bdaae2f81565b60011515601360019054906101000a900460ff16151514613693576040517f08c379a000000000000000000000000000000000000000000000000000000000815260040161368a9061a13c565b60405180910390fd5b601860009054906101000a900473ffffffffffffffffffffffffffffffffffffffff1673ffffffffffffffffffffffffffffffffffffffff166338af3eed6040518163ffffffff1660e01b815260040160206040518083038186803b1580156136fb57600080fd5b505afa15801561370f573d6000803e3d6000fd5b505050506040513d601f19601f820116820180604052508101906137339190619339565b73ffffffffffffffffffffffffffffffffffffffff16613751615709565b73ffffffffffffffffffffffffffffffffffffffff16146137a7576040517f08c379a000000000000000000000000000000000000000000000000000000000815260040161379e9061a09c565b60405180910390fd5b6000601860009054906101000a900473ffffffffffffffffffffffffffffffffffffffff1673ffffffffffffffffffffffffffffffffffffffff1663e7d88c426137ef616722565b6040518263ffffffff1660e01b815260040161380b9190619e83565b602060405180830381600087803b15801561382557600080fd5b505af1158015613839573d6000803e3d6000fd5b505050506040513d601f19601f8201168201806040525081019061385d9190619557565b90506138b8816009600061386f615709565b73ffffffffffffffffffffffffffffffffffffffff1673ffffffffffffffffffffffffffffffffffffffff168152602001908152602001600020546155fd90919063ffffffff16565b600960006138c4615709565b73ffffffffffffffffffffffffffffffffffffffff1673ffffffffffffffffffffffffffffffffffffffff1681526020019081526020016000208190555050565b60011515601360019054906101000a900460ff1615151461395b576040517f08c379a00000000000000000000000000000000000000000000000000000000081526004016139529061a13c565b60405180910390fd5b601360059054906101000a900473ffffffffffffffffffffffffffffffffffffffff1673ffffffffffffffffffffffffffffffffffffffff166338af3eed6040518163ffffffff1660e01b815260040160206040518083038186803b1580156139c357600080fd5b505afa1580156139d7573d6000803e3d6000fd5b505050506040513d601f19601f820116820180604052508101906139fb9190619339565b73ffffffffffffffffffffffffffffffffffffffff16613a19615709565b73ffffffffffffffffffffffffffffffffffffffff1614613a6f576040517f08c379a0000000000000000000000000000000000000000000000000000000008152600401613a669061a09c565b60405180910390fd5b6000601360059054906101000a900473ffffffffffffffffffffffffffffffffffffffff1673ffffffffffffffffffffffffffffffffffffffff1663e7d88c42613ab76176be565b6040518263ffffffff1660e01b8152600401613ad39190619e83565b602060405180830381600087803b158015613aed57600080fd5b505af1158015613b01573d6000803e3d6000fd5b505050506040513d601f19601f82011682018060405250810190613b259190619557565b9050613b808160096000613b37615709565b73ffffffffffffffffffffffffffffffffffffffff1673ffffffffffffffffffffffffffffffffffffffff168152602001908152602001600020546155fd90919063ffffffff16565b60096000613b8c615709565b73ffffffffffffffffffffffffffffffffffffffff1673ffffffffffffffffffffffffffffffffffffffff1681526020019081526020016000208190555050565b6060600e8054613bdc9061a749565b80601f0160208091040260200160405190810160405280929190818152602001828054613c089061a749565b8015613c555780601f10613c2a57610100808354040283529160200191613c55565b820191906000526020600020905b815481529060010190602001808311613c3857829003601f168201915b5050505050905090565b613c67615709565b73ffffffffffffffffffffffffffffffffffffffff1660008054906101000a900473ffffffffffffffffffffffffffffffffffffffff1673ffffffffffffffffffffffffffffffffffffffff1614613cf4576040517f08c379a0000000000000000000000000000000000000000000000000000000008152600401613ceb9061a21c565b60405180910390fd5b60011515601360029054906101000a900460ff16151514613d4a576040517f08c379a0000000000000000000000000000000000000000000000000000000008152600401613d419061a2fc565b60405180910390fd5b60008111613d8d576040517f08c379a0000000000000000000000000000000000000000000000000000000008152600401613d849061a35c565b60405180910390fd5b8060126000828254613d9f919061a66d565b92505081905550613db08282615711565b8173ffffffffffffffffffffffffffffffffffffffff163373ffffffffffffffffffffffffffffffffffffffff167f045b7246d64fe59430ba3159fd11dc7352501c1d80f8a6535cf48f68965e274583604051613e0d919061a48f565b60405180910390a35050565b73126974fa373267d86fab6d6871afe62ccb68e81081565b6000613e3b615709565b73ffffffffffffffffffffffffffffffffffffffff1660008054906101000a900473ffffffffffffffffffffffffffffffffffffffff1673ffffffffffffffffffffffffffffffffffffffff1614613ec8576040517f08c379a0000000000000000000000000000000000000000000000000000000008152600401613ebf9061a21c565b60405180910390fd5b613ed9613ed3615709565b83617a5a565b60019050919050565b613eea615709565b73ffffffffffffffffffffffffffffffffffffffff1660008054906101000a900473ffffffffffffffffffffffffffffffffffffffff1673ffffffffffffffffffffffffffffffffffffffff1614613f77576040517f08c379a0000000000000000000000000000000000000000000000000000000008152600401613f6e9061a21c565b60405180910390fd5b6000811415613fbb576040517f08c379a0000000000000000000000000000000000000000000000000000000008152600401613fb29061a07c565b60405180910390fd5b613fd0816010546155fd90919063ffffffff16565b601081905550613feb81600b546155fd90919063ffffffff16565b600b819055503073ffffffffffffffffffffffffffffffffffffffff16600073ffffffffffffffffffffffffffffffffffffffff167fddf252ad1be2c89b69c2b068fc378daa952ba7f163c4a11628f55a4df523b3ef8360405161404f919061a48f565b60405180910390a350565b614062615709565b73ffffffffffffffffffffffffffffffffffffffff1660008054906101000a900473ffffffffffffffffffffffffffffffffffffffff1673ffffffffffffffffffffffffffffffffffffffff16146140ef576040517f08c379a00000000000000000000000000000000000000000000000000000000081526004016140e69061a21c565b60405180910390fd5b60011515601360029054906101000a900460ff16151514614145576040517f08c379a000000000000000000000000000000000000000000000000000000000815260040161413c9061a2fc565b60405180910390fd5b6000828290501161418b576040517f08c379a00000000000000000000000000000000000000000000000000000000081526004016141829061a15c565b60405180910390fd5b60005b828290508110156142c75760006141f18484848181106141d7577f4e487b7100000000000000000000000000000000000000000000000000000000600052603260045260246000fd5b90506020020160208101906141ec9190619310565b61747f565b90508060126000828254614205919061a58c565b92505081905550838383818110614245577f4e487b7100000000000000000000000000000000000000000000000000000000600052603260045260246000fd5b905060200201602081019061425a9190619310565b73ffffffffffffffffffffffffffffffffffffffff163373ffffffffffffffffffffffffffffffffffffffff167f946ed2f29c189bb6f4744c09f637bda38011cabc8d1433bb26ddad258b9e82d660405160405180910390a35080806142bf9061a77b565b91505061418e565b505050565b7345094071c4daaf6a9a73b0a0f095a2b138bd8a3a81565b60006143a76142f1615709565b846143a28560405180606001604052806025815260200161b2f960259139600a600061431b615709565b73ffffffffffffffffffffffffffffffffffffffff1673ffffffffffffffffffffffffffffffffffffffff16815260200190815260200160002060008a73ffffffffffffffffffffffffffffffffffffffff1673ffffffffffffffffffffffffffffffffffffffff1681526020019081526020016000205461565b9092919063ffffffff16565b615943565b6001905092915050565b7307a20dc6722563783e44ba8edca08c774621125e81565b60006143dd6143d6615709565b84846160a9565b6001905092915050565b6143ef615709565b73ffffffffffffffffffffffffffffffffffffffff1660008054906101000a900473ffffffffffffffffffffffffffffffffffffffff1673ffffffffffffffffffffffffffffffffffffffff161461447c576040517f08c379a00000000000000000000000000000000000000000000000000000000081526004016144739061a21c565b60405180910390fd5b80601360006101000a81548160ff02191690831515021790555061449e615709565b73ffffffffffffffffffffffffffffffffffffffff167fe596a4fd4ba2e7f54093d98b96267c6b0dbae1e317bed8123d9fbc868c028377826040516144e39190619e9f565b60405180910390a250565b731a2118e056d6af192e233c2c9cfb34e067ded1f881565b732f838cf0df38b2e91e747a01ddae5ebad5558b7a81565b600030905090565b61452e615709565b73ffffffffffffffffffffffffffffffffffffffff1660008054906101000a900473ffffffffffffffffffffffffffffffffffffffff1673ffffffffffffffffffffffffffffffffffffffff16146145bb576040517f08c379a00000000000000000000000000000000000000000000000000000000081526004016145b29061a21c565b60405180910390fd5b6145c481617be4565b6145cc615709565b73ffffffffffffffffffffffffffffffffffffffff167f31bbdc307cb7afab9b265ee4c47f5feb19d8a8702a67c0b695df02e0d4c55b5f82604051614611919061a48f565b60405180910390a250565b60125481565b61462a615709565b73ffffffffffffffffffffffffffffffffffffffff1660008054906101000a900473ffffffffffffffffffffffffffffffffffffffff1673ffffffffffffffffffffffffffffffffffffffff16146146b7576040517f08c379a00000000000000000000000000000000000000000000000000000000081526004016146ae9061a21c565b60405180910390fd5b600081116146fa576040517f08c379a00000000000000000000000000000000000000000000000000000000081526004016146f19061a07c565b60405180910390fd5b61474c81600960003073ffffffffffffffffffffffffffffffffffffffff1673ffffffffffffffffffffffffffffffffffffffff168152602001908152602001600020546155fd90919063ffffffff16565b600960003073ffffffffffffffffffffffffffffffffffffffff1673ffffffffffffffffffffffffffffffffffffffff168152602001908152602001600020819055506147a481600b546155fd90919063ffffffff16565b600b819055503073ffffffffffffffffffffffffffffffffffffffff16600073ffffffffffffffffffffffffffffffffffffffff167fddf252ad1be2c89b69c2b068fc378daa952ba7f163c4a11628f55a4df523b3ef83604051614808919061a48f565b60405180910390a350565b73aeb26fb84d0e2b3b353cd50f0a29fd40c916d2ab81565b6000600a60008473ffffffffffffffffffffffffffffffffffffffff1673ffffffffffffffffffffffffffffffffffffffff16815260200190815260200160002060008373ffffffffffffffffffffffffffffffffffffffff1673ffffffffffffffffffffffffffffffffffffffff16815260200190815260200160002054905092915050565b60055481565b6148c0615709565b73ffffffffffffffffffffffffffffffffffffffff1660008054906101000a900473ffffffffffffffffffffffffffffffffffffffff1673ffffffffffffffffffffffffffffffffffffffff161461494d576040517f08c379a00000000000000000000000000000000000000000000000000000000081526004016149449061a21c565b60405180910390fd5b60001515601360019054906101000a900460ff161515148015614983575060001515601360029054906101000a900460ff161515145b6149c2576040517f08c379a00000000000000000000000000000000000000000000000000000000081526004016149b99061a0dc565b60405180910390fd5b6001601360016101000a81548160ff021916908315150217905550601360059054906101000a900473ffffffffffffffffffffffffffffffffffffffff1673ffffffffffffffffffffffffffffffffffffffff1663c8cca41e6040518163ffffffff1660e01b8152600401600060405180830381600087803b158015614a4757600080fd5b505af1158015614a5b573d6000803e3d6000fd5b50505050601460009054906101000a900473ffffffffffffffffffffffffffffffffffffffff1673ffffffffffffffffffffffffffffffffffffffff1663c8cca41e6040518163ffffffff1660e01b8152600401600060405180830381600087803b158015614ac957600080fd5b505af1158015614add573d6000803e3d6000fd5b50505050601560009054906101000a900473ffffffffffffffffffffffffffffffffffffffff1673ffffffffffffffffffffffffffffffffffffffff1663c8cca41e6040518163ffffffff1660e01b8152600401600060405180830381600087803b158015614b4b57600080fd5b505af1158015614b5f573d6000803e3d6000fd5b50505050601660009054906101000a900473ffffffffffffffffffffffffffffffffffffffff1673ffffffffffffffffffffffffffffffffffffffff1663c8cca41e6040518163ffffffff1660e01b8152600401600060405180830381600087803b158015614bcd57600080fd5b505af1158015614be1573d6000803e3d6000fd5b50505050601760009054906101000a900473ffffffffffffffffffffffffffffffffffffffff1673ffffffffffffffffffffffffffffffffffffffff1663c8cca41e6040518163ffffffff1660e01b8152600401600060405180830381600087803b158015614c4f57600080fd5b505af1158015614c63573d6000803e3d6000fd5b50505050601860009054906101000a900473ffffffffffffffffffffffffffffffffffffffff1673ffffffffffffffffffffffffffffffffffffffff1663c8cca41e6040518163ffffffff1660e01b8152600401600060405180830381600087803b158015614cd157600080fd5b505af1158015614ce5573d6000803e3d6000fd5b50505050601960009054906101000a900473ffffffffffffffffffffffffffffffffffffffff1673ffffffffffffffffffffffffffffffffffffffff1663c8cca41e6040518163ffffffff1660e01b8152600401600060405180830381600087803b158015614d5357600080fd5b505af1158015614d67573d6000803e3d6000fd5b50505050614d73615709565b73ffffffffffffffffffffffffffffffffffffffff167f72e04afc383d9ab428814e808cd65abb27c66b5fa85cc230b4cda3e36b436c9860405160405180910390a26001601360026101000a81548160ff021916908315150217905550614dd8617c69565b614de0615709565b73ffffffffffffffffffffffffffffffffffffffff167f166f0287f5e28d35ec474da4c920a3e6f47f0d7c8833b963dd8367f68dd377cd60405160405180910390a2565b614e2c6191ac565b6000806040518060400160405280600081526020016003600460008873ffffffffffffffffffffffffffffffffffffffff1673ffffffffffffffffffffffffffffffffffffffff1681526020019081526020016000205481548110614eba577f4e487b7100000000000000000000000000000000000000000000000000000000600052603260045260246000fd5b9060005260206000209060030201600201805480602002602001604051908101604052809291908181526020016000905b82821015614faf57838290600052602060002090600702016040518060e00160405290816000820160009054906101000a900473ffffffffffffffffffffffffffffffffffffffff1673ffffffffffffffffffffffffffffffffffffffff1673ffffffffffffffffffffffffffffffffffffffff168152602001600182015481526020016002820154815260200160038201548152602001600482015481526020016005820154815260200160068201548152505081526020019060010190614eeb565b50505050815250905060008160200151511415615001576040517f08c379a0000000000000000000000000000000000000000000000000000000008152600401614ff89061a05c565b60405180910390fd5b60005b8160200151518110156151645760006150a983602001518381518110615053577f4e487b7100000000000000000000000000000000000000000000000000000000600052603260045260246000fd5b602002602001015184602001518481518110615098577f4e487b7100000000000000000000000000000000000000000000000000000000600052603260045260246000fd5b602002602001015160200151617c72565b905080836020015183815181106150e9577f4e487b7100000000000000000000000000000000000000000000000000000000600052603260045260246000fd5b6020026020010151606001818152505082602001518281518110615136577f4e487b7100000000000000000000000000000000000000000000000000000000600052603260045260246000fd5b6020026020010151602001518461514d919061a58c565b93505060018161515d919061a58c565b9050615004565b50818160000181815250508092505050919050565b601360019054906101000a900460ff1681565b6000806151998484617ccf565b915091506151a681614622565b6151f882600960003073ffffffffffffffffffffffffffffffffffffffff1673ffffffffffffffffffffffffffffffffffffffff16815260200190815260200160002054615b0e90919063ffffffff16565b600960003073ffffffffffffffffffffffffffffffffffffffff1673ffffffffffffffffffffffffffffffffffffffff1681526020019081526020016000208190555061528d81600960003073ffffffffffffffffffffffffffffffffffffffff1673ffffffffffffffffffffffffffffffffffffffff16815260200190815260200160002054615b0e90919063ffffffff16565b600960003073ffffffffffffffffffffffffffffffffffffffff1673ffffffffffffffffffffffffffffffffffffffff1681526020019081526020016000208190555080826152dc919061a58c565b600b60008282546152ed919061a58c565b925050819055508082615300919061a58c565b6009600061530c615709565b73ffffffffffffffffffffffffffffffffffffffff1673ffffffffffffffffffffffffffffffffffffffff1681526020019081526020016000206000828254615355919061a58c565b9250508190555050505050565b61536a615709565b73ffffffffffffffffffffffffffffffffffffffff1660008054906101000a900473ffffffffffffffffffffffffffffffffffffffff1673ffffffffffffffffffffffffffffffffffffffff16146153f7576040517f08c379a00000000000000000000000000000000000000000000000000000000081526004016153ee9061a21c565b60405180910390fd5b615400816184d0565b50565b7397620deadc98bc8173303686037ce7b986cf53c381565b600080615427836185fd565b9150915061543481614622565b61548682600960003073ffffffffffffffffffffffffffffffffffffffff1673ffffffffffffffffffffffffffffffffffffffff16815260200190815260200160002054615b0e90919063ffffffff16565b600960003073ffffffffffffffffffffffffffffffffffffffff1673ffffffffffffffffffffffffffffffffffffffff1681526020019081526020016000208190555061551b81600960003073ffffffffffffffffffffffffffffffffffffffff1673ffffffffffffffffffffffffffffffffffffffff16815260200190815260200160002054615b0e90919063ffffffff16565b600960003073ffffffffffffffffffffffffffffffffffffffff1673ffffffffffffffffffffffffffffffffffffffff16815260200190815260200160002081905550808261556a919061a58c565b600b600082825461557b919061a58c565b92505081905550808261558e919061a58c565b6009600061559a615709565b73ffffffffffffffffffffffffffffffffffffffff1673ffffffffffffffffffffffffffffffffffffffff16815260200190815260200160002060008282546155e3919061a58c565b92505081905550505050565b6907aa22879aabcfac000081565b600080828461560c919061a58c565b905083811015615651576040517f08c379a000000000000000000000000000000000000000000000000000000000815260040161564890619fdc565b60405180910390fd5b8091505092915050565b60008383111582906156a3576040517f08c379a000000000000000000000000000000000000000000000000000000000815260040161569a9190619eba565b60405180910390fd5b50600083856156b2919061a66d565b9050809150509392505050565b600061570183836040518060400160405280601a81526020017f536166654d6174683a206469766973696f6e206279207a65726f0000000000008152506189f8565b905092915050565b600033905090565b600654811115615756576040517f08c379a000000000000000000000000000000000000000000000000000000000815260040161574d90619f9c565b60405180910390fd5b6000600860008473ffffffffffffffffffffffffffffffffffffffff1673ffffffffffffffffffffffffffffffffffffffff16815260200190815260200160002060010154146157db576040517f08c379a00000000000000000000000000000000000000000000000000000000081526004016157d29061a37c565b60405180910390fd5b80600860008473ffffffffffffffffffffffffffffffffffffffff1673ffffffffffffffffffffffffffffffffffffffff1681526020019081526020016000206000018190555080600860008473ffffffffffffffffffffffffffffffffffffffff1673ffffffffffffffffffffffffffffffffffffffff168152602001908152602001600020600101819055506000600860008473ffffffffffffffffffffffffffffffffffffffff1673ffffffffffffffffffffffffffffffffffffffff16815260200190815260200160002060020160006101000a81548160ff0219169083151502179055506001600860008473ffffffffffffffffffffffffffffffffffffffff1673ffffffffffffffffffffffffffffffffffffffff1681526020019081526020016000206003018190555060016005600082825461591f919061a58c565b925050819055508060066000828254615938919061a66d565b925050819055505050565b600073ffffffffffffffffffffffffffffffffffffffff168373ffffffffffffffffffffffffffffffffffffffff1614156159b3576040517f08c379a00000000000000000000000000000000000000000000000000000000081526004016159aa90619f3c565b60405180910390fd5b600073ffffffffffffffffffffffffffffffffffffffff168273ffffffffffffffffffffffffffffffffffffffff161415615a23576040517f08c379a0000000000000000000000000000000000000000000000000000000008152600401615a1a9061a3fc565b60405180910390fd5b80600a60008573ffffffffffffffffffffffffffffffffffffffff1673ffffffffffffffffffffffffffffffffffffffff16815260200190815260200160002060008473ffffffffffffffffffffffffffffffffffffffff1673ffffffffffffffffffffffffffffffffffffffff168152602001908152602001600020819055508173ffffffffffffffffffffffffffffffffffffffff168373ffffffffffffffffffffffffffffffffffffffff167f8c5be1e5ebec7d5bd14f71427d1e84f3dd0314c0f7b2291e5b200ac8c7c3b92583604051615b01919061a48f565b60405180910390a3505050565b6000615b5083836040518060400160405280601e81526020017f536166654d6174683a207375627472616374696f6e206f766572666c6f77000081525061565b565b905092915050565b615b606191c6565b604051806106e00160405280615b80615573670de0b6b3a7640000618a5b565b8152602001615b99615573670de0b6b3a7640000618a5b565b8152602001615bb2615573670de0b6b3a7640000618a5b565b8152602001615bcb615573670de0b6b3a7640000618a5b565b8152602001615be4615573670de0b6b3a7640000618a5b565b8152602001615bfd615573670de0b6b3a7640000618a5b565b8152602001615c16615573670de0b6b3a7640000618a5b565b8152602001615c2f615573670de0b6b3a7640000618a5b565b8152602001615c48615573670de0b6b3a7640000618a5b565b8152602001615c61615573670de0b6b3a7640000618a5b565b8152602001615c7a615573670de0b6b3a7640000618a5b565b8152602001615c93615573670de0b6b3a7640000618a5b565b8152602001615cac615573670de0b6b3a7640000618a5b565b8152602001615cc5615573670de0b6b3a7640000618a5b565b8152602001615cde615573670de0b6b3a7640000618a5b565b8152602001615cf7615573670de0b6b3a7640000618a5b565b8152602001615d11620155cc670de0b6b3a7640000618a5b565b8152602001615d2b620155cc670de0b6b3a7640000618a5b565b8152602001615d45620155cc670de0b6b3a7640000618a5b565b8152602001615d5f620155cc670de0b6b3a7640000618a5b565b8152602001615d79620155cc670de0b6b3a7640000618a5b565b8152602001615d93620155cc670de0b6b3a7640000618a5b565b8152602001615dad620155cc670de0b6b3a7640000618a5b565b8152602001615dc7620155cc670de0b6b3a7640000618a5b565b8152602001615de1620155cc670de0b6b3a7640000618a5b565b8152602001615dfb620155cc670de0b6b3a7640000618a5b565b8152602001615e15620155cc670de0b6b3a7640000618a5b565b8152602001615e2f620155cc670de0b6b3a7640000618a5b565b8152602001615e49620155cc670de0b6b3a7640000618a5b565b8152602001615e63620155cc670de0b6b3a7640000618a5b565b8152602001615e7d620155cc670de0b6b3a7640000618a5b565b8152602001615e97620155cc670de0b6b3a7640000618a5b565b8152602001615eb1620155cc670de0b6b3a7640000618a5b565b8152602001615ecb620155cc670de0b6b3a7640000618a5b565b8152602001615ee5620155cc670de0b6b3a7640000618a5b565b8152602001615eff620155cc670de0b6b3a7640000618a5b565b8152602001615f19620155cc670de0b6b3a7640000618a5b565b8152602001615f33620155cc670de0b6b3a7640000618a5b565b8152602001615f4d620155cc670de0b6b3a7640000618a5b565b8152602001615f67620155cc670de0b6b3a7640000618a5b565b8152602001615f81620155cc670de0b6b3a7640000618a5b565b8152602001615f9b620155cc670de0b6b3a7640000618a5b565b8152602001615fb5620155cc670de0b6b3a7640000618a5b565b8152602001615fcf620155cc670de0b6b3a7640000618a5b565b8152602001615fe9620155cc670de0b6b3a7640000618a5b565b8152602001616003620155cc670de0b6b3a7640000618a5b565b815260200161601d620155cc670de0b6b3a7640000618a5b565b8152602001616037620155cc670de0b6b3a7640000618a5b565b8152602001616051620155cc670de0b6b3a7640000618a5b565b815260200161606b620155cc670de0b6b3a7640000618a5b565b8152602001616085620155cc670de0b6b3a7640000618a5b565b81526020016000815260200160008152602001600081526020016000815250905090565b600073ffffffffffffffffffffffffffffffffffffffff168373ffffffffffffffffffffffffffffffffffffffff161415616119576040517f08c379a00000000000000000000000000000000000000000000000000000000081526004016161109061a19c565b60405180910390fd5b600073ffffffffffffffffffffffffffffffffffffffff168273ffffffffffffffffffffffffffffffffffffffff161415616189576040517f08c379a00000000000000000000000000000000000000000000000000000000081526004016161809061a33c565b60405180910390fd5b6000600960008573ffffffffffffffffffffffffffffffffffffffff1673ffffffffffffffffffffffffffffffffffffffff16815260200190815260200160002054905081811015616210576040517f08c379a00000000000000000000000000000000000000000000000000000000081526004016162079061a27c565b60405180910390fd5b600061623a61623384601360039054906101000a900461ffff1661ffff16618a5b565b60646156bf565b905060006162488483615b0e565b9050600061626b61626461625d846002618a5b565b600a6156bf565b60036156bf565b9050600061628461627d846008618a5b565b600a6156bf565b90506162ec826009600073e61e7a7d16db384433e532fb85724e7f3bdaae2f73ffffffffffffffffffffffffffffffffffffffff1673ffffffffffffffffffffffffffffffffffffffff168152602001908152602001600020546155fd90919063ffffffff16565b6009600073e61e7a7d16db384433e532fb85724e7f3bdaae2f73ffffffffffffffffffffffffffffffffffffffff1673ffffffffffffffffffffffffffffffffffffffff168152602001908152602001600020819055506163a9826009600073406605eb24a97a2d61b516d8d850f2aefa6a731a73ffffffffffffffffffffffffffffffffffffffff1673ffffffffffffffffffffffffffffffffffffffff168152602001908152602001600020546155fd90919063ffffffff16565b6009600073406605eb24a97a2d61b516d8d850f2aefa6a731a73ffffffffffffffffffffffffffffffffffffffff1673ffffffffffffffffffffffffffffffffffffffff1681526020019081526020016000208190555061646682600960007397620deadc98bc8173303686037ce7b986cf53c373ffffffffffffffffffffffffffffffffffffffff1673ffffffffffffffffffffffffffffffffffffffff168152602001908152602001600020546155fd90919063ffffffff16565b600960007397620deadc98bc8173303686037ce7b986cf53c373ffffffffffffffffffffffffffffffffffffffff1673ffffffffffffffffffffffffffffffffffffffff1681526020019081526020016000208190555061650f81600960003073ffffffffffffffffffffffffffffffffffffffff1673ffffffffffffffffffffffffffffffffffffffff168152602001908152602001600020546155fd90919063ffffffff16565b600960003073ffffffffffffffffffffffffffffffffffffffff1673ffffffffffffffffffffffffffffffffffffffff168152602001908152602001600020819055506165db866040518060400160405280601481526020017f496e73756666696369656e742042616c616e6365000000000000000000000000815250600960008c73ffffffffffffffffffffffffffffffffffffffff1673ffffffffffffffffffffffffffffffffffffffff1681526020019081526020016000205461565b9092919063ffffffff16565b600960008a73ffffffffffffffffffffffffffffffffffffffff1673ffffffffffffffffffffffffffffffffffffffff1681526020019081526020016000208190555061667083600960008a73ffffffffffffffffffffffffffffffffffffffff1673ffffffffffffffffffffffffffffffffffffffff168152602001908152602001600020546155fd90919063ffffffff16565b600960008973ffffffffffffffffffffffffffffffffffffffff1673ffffffffffffffffffffffffffffffffffffffff168152602001908152602001600020819055508673ffffffffffffffffffffffffffffffffffffffff168873ffffffffffffffffffffffffffffffffffffffff167fddf252ad1be2c89b69c2b068fc378daa952ba7f163c4a11628f55a4df523b3ef85604051616710919061a48f565b60405180910390a35050505050505050565b61672a6191c6565b604051806106e0016040528061674b62019a28670de0b6b3a7640000618a5b565b815260200160008152602001600081526020016000815260200161677a6204ce78670de0b6b3a7640000618a5b565b81526020016000815260200160008152602001600081526020016167a96204ce78670de0b6b3a7640000618a5b565b81526020016000815260200160008152602001600081526020016167d86204ce78670de0b6b3a7640000618a5b565b815260200160008152602001600081526020016000815260200161680762040164670de0b6b3a7640000618a5b565b815260200161682162040164670de0b6b3a7640000618a5b565b815260200161683b62040164670de0b6b3a7640000618a5b565b815260200161685562040164670de0b6b3a7640000618a5b565b815260200161686f62040164670de0b6b3a7640000618a5b565b815260200161688962040164670de0b6b3a7640000618a5b565b81526020016168a362040164670de0b6b3a7640000618a5b565b81526020016168bd62040164670de0b6b3a7640000618a5b565b81526020016168d762040164670de0b6b3a7640000618a5b565b81526020016168f162040164670de0b6b3a7640000618a5b565b815260200161690b62040164670de0b6b3a7640000618a5b565b815260200161692562040164670de0b6b3a7640000618a5b565b815260200161693f62040164670de0b6b3a7640000618a5b565b815260200161695962040164670de0b6b3a7640000618a5b565b815260200161697362040164670de0b6b3a7640000618a5b565b815260200161698d62040164670de0b6b3a7640000618a5b565b81526020016169a762040164670de0b6b3a7640000618a5b565b81526020016169c162040164670de0b6b3a7640000618a5b565b81526020016169db62040164670de0b6b3a7640000618a5b565b81526020016169f562040164670de0b6b3a7640000618a5b565b8152602001616a0f62040164670de0b6b3a7640000618a5b565b8152602001616a2962040164670de0b6b3a7640000618a5b565b8152602001616a4362040164670de0b6b3a7640000618a5b565b8152602001616a5d62040164670de0b6b3a7640000618a5b565b8152602001616a7762040164670de0b6b3a7640000618a5b565b8152602001616a9162040164670de0b6b3a7640000618a5b565b8152602001616aab62040164670de0b6b3a7640000618a5b565b8152602001616ac562040164670de0b6b3a7640000618a5b565b8152602001616adf62040164670de0b6b3a7640000618a5b565b8152602001616af962040164670de0b6b3a7640000618a5b565b8152602001616b1362040164670de0b6b3a7640000618a5b565b8152602001616b2d62040164670de0b6b3a7640000618a5b565b8152602001616b4762040164670de0b6b3a7640000618a5b565b8152602001616b6162040164670de0b6b3a7640000618a5b565b8152602001616b7b62040164670de0b6b3a7640000618a5b565b81526020016000815260200160008152602001600081526020016000815250905090565b60008060006003600460008673ffffffffffffffffffffffffffffffffffffffff1673ffffffffffffffffffffffffffffffffffffffff1681526020019081526020016000205481548110616c1d577f4e487b7100000000000000000000000000000000000000000000000000000000600052603260045260246000fd5b906000526020600020906003020190506000616c5462093a80836001015442616c46919061a66d565b6156bf90919063ffffffff16565b90506001811015616c9a576040517f08c379a0000000000000000000000000000000000000000000000000000000008152600401616c919061a11c565b60405180910390fd5b6000826002018054905011616ce4576040517f08c379a0000000000000000000000000000000000000000000000000000000008152600401616cdb9061a05c565b60405180910390fd5b60005b8260020180549050811015616e30576000836002018281548110616d34577f4e487b7100000000000000000000000000000000000000000000000000000000600052603260045260246000fd5b90600052602060002090600702016001015411616d5057616e1d565b60006064600254856002018481548110616d93577f4e487b7100000000000000000000000000000000000000000000000000000000600052603260045260246000fd5b906000526020600020906007020160010154616daf919061a613565b616db9919061a5e2565b90508085616dc7919061a58c565b945080846002018381548110616e06577f4e487b7100000000000000000000000000000000000000000000000000000000600052603260045260246000fd5b906000526020600020906007020160040181905550505b8080616e289061a77b565b915050616ce7565b50428260010181905550829350505050919050565b60008311616e88576040517f08c379a0000000000000000000000000000000000000000000000000000000008152600401616e7f90619ffc565b60405180910390fd5b7387d8547d824dd105c84d6018420585016f4caacf73ffffffffffffffffffffffffffffffffffffffff1663a9059cbb7387d8547d824dd105c84d6018420585016f4caacf856040518363ffffffff1660e01b8152600401616eeb929190619e5a565b602060405180830381600087803b158015616f0557600080fd5b505af1158015616f19573d6000803e3d6000fd5b505050506040513d601f19601f82011682018060405250810190616f3d91906194dc565b506000600460003373ffffffffffffffffffffffffffffffffffffffff1673ffffffffffffffffffffffffffffffffffffffff16815260200190815260200160002054905060004290506000821415616f9c57616f9933618ad6565b91505b60038281548110616fd6577f4e487b7100000000000000000000000000000000000000000000000000000000600052603260045260246000fd5b90600052602060002090600302016002016040518060e001604052803373ffffffffffffffffffffffffffffffffffffffff1681526020018781526020018381526020016000815260200160008152602001858152602001838761703a919061a58c565b815250908060018154018082558091505060019003906000526020600020906007020160009091909190915060008201518160000160006101000a81548173ffffffffffffffffffffffffffffffffffffffff021916908373ffffffffffffffffffffffffffffffffffffffff1602179055506020820151816001015560408201518160020155606082015181600301556080820151816004015560a0820151816005015560c0820151816006015550503373ffffffffffffffffffffffffffffffffffffffff167f9cfd25589d1eb8ad71e342a86a8524e83522e3936c0803048c08f6d9ad974f408684848589617132919061a58c565b604051617142949392919061a4aa565b60405180910390a25050505050565b600073ffffffffffffffffffffffffffffffffffffffff168273ffffffffffffffffffffffffffffffffffffffff1614156171c1576040517f08c379a00000000000000000000000000000000000000000000000000000000081526004016171b89061a29c565b60405180910390fd5b61722d8160405180606001604052806022815260200161b31e60229139600960008673ffffffffffffffffffffffffffffffffffffffff1673ffffffffffffffffffffffffffffffffffffffff1681526020019081526020016000205461565b9092919063ffffffff16565b600960008473ffffffffffffffffffffffffffffffffffffffff1673ffffffffffffffffffffffffffffffffffffffff1681526020019081526020016000208190555061728581600b54615b0e90919063ffffffff16565b600b81905550600073ffffffffffffffffffffffffffffffffffffffff168273ffffffffffffffffffffffffffffffffffffffff167fddf252ad1be2c89b69c2b068fc378daa952ba7f163c4a11628f55a4df523b3ef836040516172e9919061a48f565b60405180910390a35050565b600080600860008473ffffffffffffffffffffffffffffffffffffffff1673ffffffffffffffffffffffffffffffffffffffff168152602001908152602001600020600101541161737b576040517f08c379a00000000000000000000000000000000000000000000000000000000081526004016173729061a39c565b60405180910390fd5b600061738683618c33565b9050600081116173cb576040517f08c379a00000000000000000000000000000000000000000000000000000000081526004016173c29061a25c565b60405180910390fd5b617430600860008573ffffffffffffffffffffffffffffffffffffffff1673ffffffffffffffffffffffffffffffffffffffff168152602001908152602001600020600101548260405180606001604052806039815260200161b2c06039913961565b565b600860008573ffffffffffffffffffffffffffffffffffffffff1673ffffffffffffffffffffffffffffffffffffffff1681526020019081526020016000206001018190555080915050919050565b600080600860008473ffffffffffffffffffffffffffffffffffffffff1673ffffffffffffffffffffffffffffffffffffffff168152602001908152602001600020600101541415617506576040517f08c379a00000000000000000000000000000000000000000000000000000000081526004016174fd90619efc565b60405180910390fd5b600160056000828254617519919061a66d565b92505081905550600860008373ffffffffffffffffffffffffffffffffffffffff1673ffffffffffffffffffffffffffffffffffffffff1681526020019081526020016000206001015460066000828254617574919061a58c565b925050819055506000600860008473ffffffffffffffffffffffffffffffffffffffff1673ffffffffffffffffffffffffffffffffffffffff168152602001908152602001600020600101549050600860008473ffffffffffffffffffffffffffffffffffffffff1673ffffffffffffffffffffffffffffffffffffffff16815260200190815260200160002060008082016000905560018201600090556002820160006101000a81549060ff02191690556003820160009055505080915050919050565b601e81111561767d576040517f08c379a00000000000000000000000000000000000000000000000000000000081526004016176749061a03c565b60405180910390fd5b806001819055507fcfa4f4cf1cd64d13a167a8e75605e0c0c9d6700e903d17c5dc11f593254a04a9816040516176b3919061a48f565b60405180910390a150565b6176c66191c6565b604051806106e001604052806176e661aaba670de0b6b3a7640000618a5b565b81526020016176ff61aaba670de0b6b3a7640000618a5b565b815260200161771861aaba670de0b6b3a7640000618a5b565b815260200161773161aaba670de0b6b3a7640000618a5b565b815260200161774a61aaba670de0b6b3a7640000618a5b565b815260200161776361aaba670de0b6b3a7640000618a5b565b815260200161777c61aaba670de0b6b3a7640000618a5b565b815260200161779561aaba670de0b6b3a7640000618a5b565b81526020016177ae61aaba670de0b6b3a7640000618a5b565b81526020016177c761aaba670de0b6b3a7640000618a5b565b81526020016177e061aaba670de0b6b3a7640000618a5b565b81526020016177f961aaba670de0b6b3a7640000618a5b565b815260200161781261aaba670de0b6b3a7640000618a5b565b815260200161782b61aaba670de0b6b3a7640000618a5b565b815260200161784461aaba670de0b6b3a7640000618a5b565b815260200161785d61aaba670de0b6b3a7640000618a5b565b8152602001617877620800bb670de0b6b3a7640000618a5b565b8152602001617891620800bb670de0b6b3a7640000618a5b565b81526020016178ab620800bb670de0b6b3a7640000618a5b565b81526020016178c5620800bb670de0b6b3a7640000618a5b565b81526020016178df620800bb670de0b6b3a7640000618a5b565b81526020016178f9620800bb670de0b6b3a7640000618a5b565b8152602001617913620800bb670de0b6b3a7640000618a5b565b815260200161792d620800bb670de0b6b3a7640000618a5b565b8152602001617947620800bb670de0b6b3a7640000618a5b565b8152602001617961620800bb670de0b6b3a7640000618a5b565b815260200161797b620800bb670de0b6b3a7640000618a5b565b8152602001617995620800bb670de0b6b3a7640000618a5b565b815260200160008152602001600081526020016000815260200160008152602001600081526020016000815260200160008152602001600081526020016000815260200160008152602001600081526020016000815260200160008152602001600081526020016000815260200160008152602001600081526020016000815260200160008152602001600081526020016000815260200160008152602001600081526020016000815260200160008152602001600081526020016000815250905090565b600073ffffffffffffffffffffffffffffffffffffffff168273ffffffffffffffffffffffffffffffffffffffff161415617aca576040517f08c379a0000000000000000000000000000000000000000000000000000000008152600401617ac19061a1dc565b60405180910390fd5b617adf81600b546155fd90919063ffffffff16565b600b81905550617b3781600960008573ffffffffffffffffffffffffffffffffffffffff1673ffffffffffffffffffffffffffffffffffffffff168152602001908152602001600020546155fd90919063ffffffff16565b600960008473ffffffffffffffffffffffffffffffffffffffff1673ffffffffffffffffffffffffffffffffffffffff168152602001908152602001600020819055508173ffffffffffffffffffffffffffffffffffffffff16600073ffffffffffffffffffffffffffffffffffffffff167fddf252ad1be2c89b69c2b068fc378daa952ba7f163c4a11628f55a4df523b3ef83604051617bd8919061a48f565b60405180910390a35050565b60c8811115617c28576040517f08c379a0000000000000000000000000000000000000000000000000000000008152600401617c1f90619edc565b60405180910390fd5b806002819055507fcc672f1026b958c0cfbfdd89ebe8ddcbc127f16ec24da6c2c7a4de26a8b1857e81604051617c5e919061a48f565b60405180910390a150565b42600781905550565b60008083602001511415617c895760009050617cc9565b6a52b7d2dcc80cd2e4000000617ca2846040015161908c565b8460a0015184617cb2919061a613565b617cbc919061a613565b617cc6919061a5e2565b90505b92915050565b6000806000600460003373ffffffffffffffffffffffffffffffffffffffff1673ffffffffffffffffffffffffffffffffffffffff168152602001908152602001600020549050600060038281548110617d52577f4e487b7100000000000000000000000000000000000000000000000000000000600052603260045260246000fd5b90600052602060002090600302016002018581548110617d9b577f4e487b7100000000000000000000000000000000000000000000000000000000600052603260045260246000fd5b906000526020600020906007020190508581600101541015617df2576040517f08c379a0000000000000000000000000000000000000000000000000000000008152600401617de99061a2bc565b60405180910390fd5b6000617e9b826040518060e00160405290816000820160009054906101000a900473ffffffffffffffffffffffffffffffffffffffff1673ffffffffffffffffffffffffffffffffffffffff1673ffffffffffffffffffffffffffffffffffffffff168152602001600182015481526020016002820154815260200160038201548152602001600482015481526020016005820154815260200160068201548152505088617c72565b9050600082600201548360060154617eb3919061a66d565b905042836006015411156181cb5787836001016000828254617ed5919061a66d565b92505081905550600083600101541415617fd95760038481548110617f23577f4e487b7100000000000000000000000000000000000000000000000000000000600052603260045260246000fd5b90600052602060002090600302016002018781548110617f6c577f4e487b7100000000000000000000000000000000000000000000000000000000600052603260045260246000fd5b9060005260206000209060070201600080820160006101000a81549073ffffffffffffffffffffffffffffffffffffffff021916905560018201600090556002820160009055600382016000905560048201600090556005820160009055600682016000905550506181b4565b826001015460038581548110618018577f4e487b7100000000000000000000000000000000000000000000000000000000600052603260045260246000fd5b90600052602060002090600302016002018881548110618061577f4e487b7100000000000000000000000000000000000000000000000000000000600052603260045260246000fd5b90600052602060002090600702016001018190555042600385815481106180b1577f4e487b7100000000000000000000000000000000000000000000000000000000600052603260045260246000fd5b906000526020600020906003020160020188815481106180fa577f4e487b7100000000000000000000000000000000000000000000000000000000600052603260045260246000fd5b906000526020600020906007020160020181905550804261811b919061a58c565b60038581548110618155577f4e487b7100000000000000000000000000000000000000000000000000000000600052603260045260246000fd5b9060005260206000209060030201600201888154811061819e577f4e487b7100000000000000000000000000000000000000000000000000000000600052603260045260246000fd5b9060005260206000209060070201600601819055505b6181be888361911e565b95509550505050506184c9565b878360010160008282546181df919061a66d565b925050819055506000836001015414156182e3576003848154811061822d577f4e487b7100000000000000000000000000000000000000000000000000000000600052603260045260246000fd5b90600052602060002090600302016002018781548110618276577f4e487b7100000000000000000000000000000000000000000000000000000000600052603260045260246000fd5b9060005260206000209060070201600080820160006101000a81549073ffffffffffffffffffffffffffffffffffffffff021916905560018201600090556002820160009055600382016000905560048201600090556005820160009055600682016000905550506184be565b826001015460038581548110618322577f4e487b7100000000000000000000000000000000000000000000000000000000600052603260045260246000fd5b9060005260206000209060030201600201888154811061836b577f4e487b7100000000000000000000000000000000000000000000000000000000600052603260045260246000fd5b90600052602060002090600702016001018190555042600385815481106183bb577f4e487b7100000000000000000000000000000000000000000000000000000000600052603260045260246000fd5b90600052602060002090600302016002018881548110618404577f4e487b7100000000000000000000000000000000000000000000000000000000600052603260045260246000fd5b9060005260206000209060070201600201819055508042618425919061a58c565b6003858154811061845f577f4e487b7100000000000000000000000000000000000000000000000000000000600052603260045260246000fd5b906000526020600020906003020160020188815481106184a8577f4e487b7100000000000000000000000000000000000000000000000000000000600052603260045260246000fd5b9060005260206000209060070201600601819055505b878295509550505050505b9250929050565b600073ffffffffffffffffffffffffffffffffffffffff168173ffffffffffffffffffffffffffffffffffffffff161415618540576040517f08c379a000000000000000000000000000000000000000000000000000000000815260040161853790619f7c565b60405180910390fd5b8073ffffffffffffffffffffffffffffffffffffffff1660008054906101000a900473ffffffffffffffffffffffffffffffffffffffff1673ffffffffffffffffffffffffffffffffffffffff167f8be0079c531659141344cd1fd0a4f28419497f9722a3daafe3b4186f6b6457e060405160405180910390a3806000806101000a81548173ffffffffffffffffffffffffffffffffffffffff021916908373ffffffffffffffffffffffffffffffffffffffff16021790555050565b6000806000600460003373ffffffffffffffffffffffffffffffffffffffff1673ffffffffffffffffffffffffffffffffffffffff168152602001908152602001600020549050600060038281548110618680577f4e487b7100000000000000000000000000000000000000000000000000000000600052603260045260246000fd5b906000526020600020906003020160020185815481106186c9577f4e487b7100000000000000000000000000000000000000000000000000000000600052603260045260246000fd5b906000526020600020906007020190506000816001015411618720576040517f08c379a00000000000000000000000000000000000000000000000000000000081526004016187179061a23c565b60405180910390fd5b60008160010154905060006187d2836040518060e00160405290816000820160009054906101000a900473ffffffffffffffffffffffffffffffffffffffff1673ffffffffffffffffffffffffffffffffffffffff1673ffffffffffffffffffffffffffffffffffffffff168152602001600182015481526020016002820154815260200160038201548152602001600482015481526020016005820154815260200160068201548152505083617c72565b905042836006015411156188fd57818360010160008282546187f4919061a66d565b9250508190555060038481548110618835577f4e487b7100000000000000000000000000000000000000000000000000000000600052603260045260246000fd5b9060005260206000209060030201600201878154811061887e577f4e487b7100000000000000000000000000000000000000000000000000000000600052603260045260246000fd5b9060005260206000209060070201600080820160006101000a81549073ffffffffffffffffffffffffffffffffffffffff021916905560018201600090556002820160009055600382016000905560048201600090556005820160009055600682016000905550506188f0828261911e565b95509550505050506189f3565b60038481548110618937577f4e487b7100000000000000000000000000000000000000000000000000000000600052603260045260246000fd5b90600052602060002090600302016002018781548110618980577f4e487b7100000000000000000000000000000000000000000000000000000000600052603260045260246000fd5b9060005260206000209060070201600080820160006101000a81549073ffffffffffffffffffffffffffffffffffffffff02191690556001820160009055600282016000905560038201600090556004820160009055600582016000905560068201600090555050818195509550505050505b915091565b60008083118290618a3f576040517f08c379a0000000000000000000000000000000000000000000000000000000008152600401618a369190619eba565b60405180910390fd5b5060008385618a4e919061a5e2565b9050809150509392505050565b600080831415618a6e5760009050618ad0565b60008284618a7c919061a613565b9050828482618a8b919061a5e2565b14618acb576040517f08c379a0000000000000000000000000000000000000000000000000000000008152600401618ac29061a17c565b60405180910390fd5b809150505b92915050565b600060036001816001815401808255809150500390600052602060002090505060006001600380549050618b0a919061a66d565b90508260038281548110618b47577f4e487b7100000000000000000000000000000000000000000000000000000000600052603260045260246000fd5b906000526020600020906003020160000160006101000a81548173ffffffffffffffffffffffffffffffffffffffff021916908373ffffffffffffffffffffffffffffffffffffffff1602179055504260038281548110618bd1577f4e487b7100000000000000000000000000000000000000000000000000000000600052603260045260246000fd5b90600052602060002090600302016001018190555080600460008573ffffffffffffffffffffffffffffffffffffffff1673ffffffffffffffffffffffffffffffffffffffff1681526020019081526020016000208190555080915050919050565b60008060006201518060075442618c4a919061a66d565b618c54919061a5e2565b90506101e0811015618ddc5760001515600860008673ffffffffffffffffffffffffffffffffffffffff1673ffffffffffffffffffffffffffffffffffffffff16815260200190815260200160002060020160009054906101000a900460ff1615151415618d8e57618d30618d21618d196a0136d704b91c7b3a700000600860008973ffffffffffffffffffffffffffffffffffffffff1673ffffffffffffffffffffffffffffffffffffffff16815260200190815260200160002060000154618a5b565b6006546156bf565b836155fd90919063ffffffff16565b91506001600860008673ffffffffffffffffffffffffffffffffffffffff1673ffffffffffffffffffffffffffffffffffffffff16815260200190815260200160002060020160006101000a81548160ff0219169083151502179055505b6101c2600860008673ffffffffffffffffffffffffffffffffffffffff1673ffffffffffffffffffffffffffffffffffffffff1681526020019081526020016000206003018190555061903e565b6101e08110158015618def575061034881105b1561903d5760001515600860008673ffffffffffffffffffffffffffffffffffffffff1673ffffffffffffffffffffffffffffffffffffffff16815260200190815260200160002060020160009054906101000a900460ff1615151415618f2257618ec4618eb5618ead6a0136d704b91c7b3a700000600860008973ffffffffffffffffffffffffffffffffffffffff1673ffffffffffffffffffffffffffffffffffffffff16815260200190815260200160002060000154618a5b565b6006546156bf565b836155fd90919063ffffffff16565b91506001600860008673ffffffffffffffffffffffffffffffffffffffff1673ffffffffffffffffffffffffffffffffffffffff16815260200190815260200160002060020160006101000a81548160ff0219169083151502179055505b6000600860008673ffffffffffffffffffffffffffffffffffffffff1673ffffffffffffffffffffffffffffffffffffffff1681526020019081526020016000206003015482618f72919061a66d565b9050618fe7618fd8618fd06907aa22879aabcfac0000600860008a73ffffffffffffffffffffffffffffffffffffffff1673ffffffffffffffffffffffffffffffffffffffff16815260200190815260200160002060000154618a5b565b6006546156bf565b846155fd90919063ffffffff16565b81618ff2919061a613565b925081600860008773ffffffffffffffffffffffffffffffffffffffff1673ffffffffffffffffffffffffffffffffffffffff16815260200190815260200160002060030181905550505b5b6000821415619082576040517f08c379a00000000000000000000000000000000000000000000000000000000081526004016190799061a0bc565b60405180910390fd5b8192505050919050565b60008082116190d0576040517f08c379a00000000000000000000000000000000000000000000000000000000081526004016190c79061a3bc565b60405180910390fd5b61911769d3c21bcecceda100000083426190ea919061a66d565b6190f4919061a613565b6301e1338060405180606001604052806027815260200161b271602791396189f8565b9050919050565b6000806000841415619136576000809150915061917b565b6191568461915161914987600154618a5b565b6103e86156bf565b615b0e565b6191768461917161916987600154618a5b565b6103e86156bf565b615b0e565b915091505b9250929050565b60405180608001604052806000815260200160008152602001600015158152602001600081525090565b604051806040016040528060008152602001606081525090565b604051806106e00160405280603790602082028036833780820191505090505090565b6000813590506191f88161b214565b92915050565b60008151905061920d8161b214565b92915050565b60008083601f84011261922557600080fd5b8235905067ffffffffffffffff81111561923e57600080fd5b60208301915083602082028301111561925657600080fd5b9250929050565b60008083601f84011261926f57600080fd5b8235905067ffffffffffffffff81111561928857600080fd5b6020830191508360408202830111156192a057600080fd5b9250929050565b6000813590506192b68161b22b565b92915050565b6000815190506192cb8161b22b565b92915050565b6000813590506192e08161b242565b92915050565b6000813590506192f58161b259565b92915050565b60008151905061930a8161b259565b92915050565b60006020828403121561932257600080fd5b6000619330848285016191e9565b91505092915050565b60006020828403121561934b57600080fd5b6000619359848285016191fe565b91505092915050565b6000806040838503121561937557600080fd5b6000619383858286016191e9565b9250506020619394858286016191e9565b9150509250929050565b6000806000606084860312156193b357600080fd5b60006193c1868287016191e9565b93505060206193d2868287016191e9565b92505060406193e3868287016192e6565b9150509250925092565b6000806040838503121561940057600080fd5b600061940e858286016191e9565b925050602061941f858286016192e6565b9150509250929050565b6000806020838503121561943c57600080fd5b600083013567ffffffffffffffff81111561945657600080fd5b61946285828601619213565b92509250509250929050565b6000806020838503121561948157600080fd5b600083013567ffffffffffffffff81111561949b57600080fd5b6194a78582860161925d565b92509250509250929050565b6000602082840312156194c557600080fd5b60006194d3848285016192a7565b91505092915050565b6000602082840312156194ee57600080fd5b60006194fc848285016192bc565b91505092915050565b60006020828403121561951757600080fd5b6000619525848285016192d1565b91505092915050565b60006020828403121561954057600080fd5b600061954e848285016192e6565b91505092915050565b60006020828403121561956957600080fd5b6000619577848285016192fb565b91505092915050565b6000806040838503121561959357600080fd5b60006195a1858286016192e6565b92505060206195b2858286016192e6565b9150509250929050565b60006195c88383619d29565b60e08301905092915050565b60006195e08383619e12565b60208301905092915050565b6195f58161a6a1565b82525050565b6196048161a6a1565b82525050565b60006196158261a524565b61961f818561a55f565b935061962a8361a50a565b8060005b8381101561965b57815161964288826195bc565b975061964d8361a545565b92505060018101905061962e565b5085935050505092915050565b6196718161a52f565b61967b818461a570565b92506196868261a51a565b8060005b838110156196b757815161969e87826195d4565b96506196a98361a552565b92505060018101905061968a565b505050505050565b6196c88161a6b3565b82525050565b6196d78161a6b3565b82525050565b60006196e88261a53a565b6196f2818561a57b565b935061970281856020860161a716565b61970b8161a851565b840191505092915050565b600061972360368361a57b565b915061972e8261a862565b604082019050919050565b600061974660238361a57b565b91506197518261a8b1565b604082019050919050565b600061976960178361a57b565b91506197748261a900565b602082019050919050565b600061978c60248361a57b565b91506197978261a929565b604082019050919050565b60006197af600f8361a57b565b91506197ba8261a978565b602082019050919050565b60006197d260268361a57b565b91506197dd8261a9a1565b604082019050919050565b60006197f560318361a57b565b91506198008261a9f0565b604082019050919050565b6000619818600e8361a57b565b91506198238261aa3f565b602082019050919050565b600061983b601b8361a57b565b91506198468261aa68565b602082019050919050565b600061985e601e8361a57b565b91506198698261aa91565b602082019050919050565b600061988160278361a57b565b915061988c8261aaba565b604082019050919050565b60006198a4602e8361a57b565b91506198af8261ab09565b604082019050919050565b60006198c7602f8361a57b565b91506198d28261ab58565b604082019050919050565b60006198ea60178361a57b565b91506198f58261aba7565b602082019050919050565b600061990d60118361a57b565b91506199188261abd0565b602082019050919050565b600061993060298361a57b565b915061993b8261abf9565b604082019050919050565b600061995360158361a57b565b915061995e8261ac48565b602082019050919050565b600061997660158361a57b565b91506199818261ac71565b602082019050919050565b600061999960398361a57b565b91506199a48261ac9a565b604082019050919050565b60006199bc601d8361a57b565b91506199c78261ace9565b602082019050919050565b60006199df60118361a57b565b91506199ea8261ad12565b602082019050919050565b6000619a0260218361a57b565b9150619a0d8261ad3b565b604082019050919050565b6000619a25601a8361a57b565b9150619a308261ad8a565b602082019050919050565b6000619a4860208361a57b565b9150619a538261adb3565b602082019050919050565b6000619a6b601f8361a57b565b9150619a768261addc565b602082019050919050565b6000619a8e60138361a57b565b9150619a998261ae05565b602082019050919050565b6000619ab160208361a57b565b9150619abc8261ae2e565b602082019050919050565b6000619ad460418361a57b565b9150619adf8261ae57565b606082019050919050565b6000619af760218361a57b565b9150619b028261aecc565b604082019050919050565b6000619b1a60148361a57b565b9150619b258261af1b565b602082019050919050565b6000619b3d60218361a57b565b9150619b488261af44565b604082019050919050565b6000619b6060338361a57b565b9150619b6b8261af93565b604082019050919050565b6000619b8360388361a57b565b9150619b8e8261afe2565b604082019050919050565b6000619ba6601c8361a57b565b9150619bb18261b031565b602082019050919050565b6000619bc9600e8361a57b565b9150619bd48261b05a565b602082019050919050565b6000619bec60188361a57b565b9150619bf78261b083565b602082019050919050565b6000619c0f60248361a57b565b9150619c1a8261b0ac565b604082019050919050565b6000619c3260298361a57b565b9150619c3d8261b0fb565b604082019050919050565b6000619c55601b8361a57b565b9150619c608261b14a565b602082019050919050565b6000619c78601b8361a57b565b9150619c838261b173565b602082019050919050565b6000619c9b601b8361a57b565b9150619ca68261b19c565b602082019050919050565b6000619cbe60228361a57b565b9150619cc98261b1c5565b604082019050919050565b608082016000820151619cea6000850182619e12565b506020820151619cfd6020850182619e12565b506040820151619d1060408501826196bf565b506060820151619d236060850182619e12565b50505050565b60e082016000820151619d3f60008501826195ec565b506020820151619d526020850182619e12565b506040820151619d656040850182619e12565b506060820151619d786060850182619e12565b506080820151619d8b6080850182619e12565b5060a0820151619d9e60a0850182619e12565b5060c0820151619db160c0850182619e12565b50505050565b6000604083016000830151619dcf6000860182619e12565b5060208301518482036020860152619de7828261960a565b9150508091505092915050565b619dfd8161a6bf565b82525050565b619e0c8161a704565b82525050565b619e1b8161a6ed565b82525050565b619e2a8161a6ed565b82525050565b619e398161a6f7565b82525050565b6000602082019050619e5460008301846195fb565b92915050565b6000604082019050619e6f60008301856195fb565b619e7c6020830184619e21565b9392505050565b60006106e082019050619e996000830184619668565b92915050565b6000602082019050619eb460008301846196ce565b92915050565b60006020820190508181036000830152619ed481846196dd565b905092915050565b60006020820190508181036000830152619ef581619716565b9050919050565b60006020820190508181036000830152619f1581619739565b9050919050565b60006020820190508181036000830152619f358161975c565b9050919050565b60006020820190508181036000830152619f558161977f565b9050919050565b60006020820190508181036000830152619f75816197a2565b9050919050565b60006020820190508181036000830152619f95816197c5565b9050919050565b60006020820190508181036000830152619fb5816197e8565b9050919050565b60006020820190508181036000830152619fd58161980b565b9050919050565b60006020820190508181036000830152619ff58161982e565b9050919050565b6000602082019050818103600083015261a01581619851565b9050919050565b6000602082019050818103600083015261a03581619874565b9050919050565b6000602082019050818103600083015261a05581619897565b9050919050565b6000602082019050818103600083015261a075816198ba565b9050919050565b6000602082019050818103600083015261a095816198dd565b9050919050565b6000602082019050818103600083015261a0b581619900565b9050919050565b6000602082019050818103600083015261a0d581619923565b9050919050565b6000602082019050818103600083015261a0f581619946565b9050919050565b6000602082019050818103600083015261a11581619969565b9050919050565b6000602082019050818103600083015261a1358161998c565b9050919050565b6000602082019050818103600083015261a155816199af565b9050919050565b6000602082019050818103600083015261a175816199d2565b9050919050565b6000602082019050818103600083015261a195816199f5565b9050919050565b6000602082019050818103600083015261a1b581619a18565b9050919050565b6000602082019050818103600083015261a1d581619a3b565b9050919050565b6000602082019050818103600083015261a1f581619a5e565b9050919050565b6000602082019050818103600083015261a21581619a81565b9050919050565b6000602082019050818103600083015261a23581619aa4565b9050919050565b6000602082019050818103600083015261a25581619ac7565b9050919050565b6000602082019050818103600083015261a27581619aea565b9050919050565b6000602082019050818103600083015261a29581619b0d565b9050919050565b6000602082019050818103600083015261a2b581619b30565b9050919050565b6000602082019050818103600083015261a2d581619b53565b9050919050565b6000602082019050818103600083015261a2f581619b76565b9050919050565b6000602082019050818103600083015261a31581619b99565b9050919050565b6000602082019050818103600083015261a33581619bbc565b9050919050565b6000602082019050818103600083015261a35581619bdf565b9050919050565b6000602082019050818103600083015261a37581619c02565b9050919050565b6000602082019050818103600083015261a39581619c25565b9050919050565b6000602082019050818103600083015261a3b581619c48565b9050919050565b6000602082019050818103600083015261a3d581619c6b565b9050919050565b6000602082019050818103600083015261a3f581619c8e565b9050919050565b6000602082019050818103600083015261a41581619cb1565b9050919050565b600060808201905061a4316000830184619cd4565b92915050565b6000602082019050818103600083015261a4518184619db7565b905092915050565b600060208201905061a46e6000830184619df4565b92915050565b600060208201905061a4896000830184619e03565b92915050565b600060208201905061a4a46000830184619e21565b92915050565b600060808201905061a4bf6000830187619e21565b61a4cc6020830186619e21565b61a4d96040830185619e21565b61a4e66060830184619e21565b95945050505050565b600060208201905061a5046000830184619e30565b92915050565b6000819050602082019050919050565b6000819050919050565b600081519050919050565b600060379050919050565b600081519050919050565b6000602082019050919050565b6000602082019050919050565b600082825260208201905092915050565b600081905092915050565b600082825260208201905092915050565b600061a5978261a6ed565b915061a5a28361a6ed565b9250827fffffffffffffffffffffffffffffffffffffffffffffffffffffffffffffffff0382111561a5d75761a5d661a7c4565b5b828201905092915050565b600061a5ed8261a6ed565b915061a5f88361a6ed565b92508261a6085761a60761a7f3565b5b828204905092915050565b600061a61e8261a6ed565b915061a6298361a6ed565b9250817fffffffffffffffffffffffffffffffffffffffffffffffffffffffffffffffff048311821515161561a6625761a66161a7c4565b5b828202905092915050565b600061a6788261a6ed565b915061a6838361a6ed565b92508282101561a6965761a69561a7c4565b5b828203905092915050565b600061a6ac8261a6cd565b9050919050565b60008115159050919050565b600061ffff82169050919050565b600073ffffffffffffffffffffffffffffffffffffffff82169050919050565b6000819050919050565b600060ff82169050919050565b600061a70f8261a6bf565b9050919050565b60005b8381101561a73457808201518184015260208101905061a719565b8381111561a743576000848401525b50505050565b6000600282049050600182168061a76157607f821691505b6020821081141561a7755761a77461a822565b5b50919050565b600061a7868261a6ed565b91507fffffffffffffffffffffffffffffffffffffffffffffffffffffffffffffffff82141561a7b95761a7b861a7c4565b5b600182019050919050565b7f4e487b7100000000000000000000000000000000000000000000000000000000600052601160045260246000fd5b7f4e487b7100000000000000000000000000000000000000000000000000000000600052601260045260246000fd5b7f4e487b7100000000000000000000000000000000000000000000000000000000600052602260045260246000fd5b6000601f19601f8301169050919050565b7f5374616b61626c653a2041697264726f702050657263656e746167652063616e60008201527f6e6f74206578636565642032302070657263656e742e00000000000000000000602082015250565b7f5072697661746553616c653a2054686973207573657220646f65736e7420657860008201527f6973740000000000000000000000000000000000000000000000000000000000602082015250565b7f41697264726f70206e6f74207965742073746172746564000000000000000000600082015250565b7f42455032303a20617070726f76652066726f6d20746865207a65726f2061646460008201527f7265737300000000000000000000000000000000000000000000000000000000602082015250565b7f496e76616c696420616464726573730000000000000000000000000000000000600082015250565b7f4f776e61626c653a206e6577206f776e657220697320746865207a65726f206160008201527f6464726573730000000000000000000000000000000000000000000000000000602082015250565b7f5072697661746553616c653a206e6f7420656e6f7567682062616c616e63652060008201527f746f206164642061206e65772075736572000000000000000000000000000000602082015250565b7f496e76616c696420616d6f756e74000000000000000000000000000000000000600082015250565b7f536166654d6174683a206164646974696f6e206f766572666c6f770000000000600082015250565b7f5374616b61626c653a2043616e6e6f74207374616b65206e6f7468696e670000600082015250565b7f416d6f756e74206275726e74206c6172676572207468616e205374616b696e6760008201527f2052657761726400000000000000000000000000000000000000000000000000602082015250565b7f5374616b61626c653a2050656e616c7479206665652063616e6e6f742065786360008201527f65656420332070657263656e742e000000000000000000000000000000000000602082015250565b7f5374616b61626c653a2054686973206164647265737320646f6573206e6f742060008201527f6861766520616e79207374616b65730000000000000000000000000000000000602082015250565b7f416d6f756e74206d696e742063616e6e6f742062652030000000000000000000600082015250565b7f57616c6c6574206f776e6572206f6e6c79000000000000000000000000000000600082015250565b7f5072697661746553616c653a2054686572652773206e6f7468696e6720746f2060008201527f636c61696d207965740000000000000000000000000000000000000000000000602082015250565b7f4e6f7468696e6720746f20696e697469616c697a650000000000000000000000600082015250565b7f54617820466565206d6178696d756d2069732035250000000000000000000000600082015250565b7f5374616b61626c653a2041697264726f702063616e206f6e6c7920626520636c60008201527f61696d656420696e2061206d6f6e74682074696d657370616e00000000000000602082015250565b7f4c6f636b65642057616c6c6574206e6f74207965742073746172746564000000600082015250565b7f4e6f7468696e6720746f2064656c657465000000000000000000000000000000600082015250565b7f536166654d6174683a206d756c7469706c69636174696f6e206f766572666c6f60008201527f7700000000000000000000000000000000000000000000000000000000000000602082015250565b7f5472616e736665722066726f6d207a65726f2061646472657373000000000000600082015250565b7f416d6f756e74206275726e74206c6172676572207468616e2062616c616e6365600082015250565b7f42455032303a206d696e7420746f20746865207a65726f206164647265737300600082015250565b7f496e73756666696369656e7420737570706c7900000000000000000000000000600082015250565b7f4f776e61626c653a2063616c6c6572206973206e6f7420746865206f776e6572600082015250565b7f5374616b61626c653a2043616e6e6f742077697468647261772c20796f75206460008201527f6f6e2774206861766520616e79207374616b6520696e207468697320496e646560208201527f7800000000000000000000000000000000000000000000000000000000000000604082015250565b7f5072697661746553616c653a206e6f20746f6b656e7320746f2072656c65617360008201527f6500000000000000000000000000000000000000000000000000000000000000602082015250565b7f496e73756666696369656e742042616c616e6365000000000000000000000000600082015250565b7f42455032303a206275726e2066726f6d20746865207a65726f2061646472657360008201527f7300000000000000000000000000000000000000000000000000000000000000602082015250565b7f5374616b61626c653a2043616e6e6f74207769746864726177206d6f7265207460008201527f68616e20796f752068617665207374616b656400000000000000000000000000602082015250565b7f5072697661746553616c653a20596f7520646f6e2774206861766520616e792060008201527f62616c616e636520666f7220707269766174652073616c650000000000000000602082015250565b7f507269766174652053616c65206e6f7420796574207374617274656400000000600082015250565b7f4e6f7468696e6720746f20616464000000000000000000000000000000000000600082015250565b7f5472616e7366657220746f207a65726f20616464726573730000000000000000600082015250565b7f43616e6e6f74206164642062656e65666963696172792077697468203020616d60008201527f6f756e7400000000000000000000000000000000000000000000000000000000602082015250565b7f5072697661746553616c653a2054686973207573657220616c7265616479207260008201527f6567697374657265640000000000000000000000000000000000000000000000602082015250565b7f5072697661746553616c653a206e6f20746f6b656e73206c6566740000000000600082015250565b7f5374616b61626c653a204572726f722074696d657374616d7020300000000000600082015250565b7f5374616b696e67206f7074696f6e20646f65736e742065786973740000000000600082015250565b7f42455032303a20617070726f766520746f20746865207a65726f20616464726560008201527f7373000000000000000000000000000000000000000000000000000000000000602082015250565b61b21d8161a6a1565b811461b22857600080fd5b50565b61b2348161a6b3565b811461b23f57600080fd5b50565b61b24b8161a6bf565b811461b25657600080fd5b50565b61b2628161a6ed565b811461b26d57600080fd5b5056fe5374616b61626c653a204572726f722063616e6e6f74206469766964652074696d657374616d7042455032303a207472616e7366657220616d6f756e74206578636565647320616c6c6f77616e63655072697661746553616c653a2043616e6e6f742073756273747261637420746f74616c20616d6f756e74207769746820636c61696d61626c6542455032303a2064656372656173656420616c6c6f77616e63652062656c6f77207a65726f42455032303a206275726e20616d6f756e7420657863656564732062616c616e6365a264697066735822122089be17fe6d4ecbaa27821ef245aae194f313e86dc518927a5fd4cc82d5a83d5f64736f6c6343000804003360a06040523480156200001157600080fd5b5060405162000e4d38038062000e4d833981810160405281019062000037919062000139565b600082116200007d576040517f08c379a00000000000000000000000000000000000000000000000000000000081526004016200007490620001a1565b60405180910390fd5b816000819055508073ffffffffffffffffffffffffffffffffffffffff1660808173ffffffffffffffffffffffffffffffffffffffff1660601b815250504260028190555033600160006101000a81548173ffffffffffffffffffffffffffffffffffffffff021916908373ffffffffffffffffffffffffffffffffffffffff160217905550505062000295565b6000815190506200011c8162000261565b92915050565b60008151905062000133816200027b565b92915050565b600080604083850312156200014d57600080fd5b60006200015d8582860162000122565b925050602062000170858286016200010b565b9150509250929050565b600062000189602783620001c3565b9150620001968262000212565b604082019050919050565b60006020820190508181036000830152620001bc816200017a565b9050919050565b600082825260208201905092915050565b6000620001e182620001e8565b9050919050565b600073ffffffffffffffffffffffffffffffffffffffff82169050919050565b6000819050919050565b7f4c6f636b61626c653a20416d6f756e74206d757374206772656174657220746860008201527f616e207a65726f00000000000000000000000000000000000000000000000000602082015250565b6200026c81620001d4565b81146200027857600080fd5b50565b620002868162000208565b81146200029257600080fd5b50565b60805160601c610b99620002b4600039600061011d0152610b996000f3fe608060405234801561001057600080fd5b50600436106100625760003560e01c806338af3eed1461006757806367e404ce146100855780638da5cb5b146100a3578063aa8c217c146100c1578063c8cca41e146100df578063e7d88c42146100e9575b600080fd5b61006f610119565b60405161007c919061065c565b60405180910390f35b61008d610141565b60405161009a919061065c565b60405180910390f35b6100ab610149565b6040516100b8919061065c565b60405180910390f35b6100c961016f565b6040516100d69190610739565b60405180910390f35b6100e7610178565b005b61010360048036038101906100fe919061052c565b610181565b6040516101109190610739565b60405180910390f35b60007f0000000000000000000000000000000000000000000000000000000000000000905090565b600033905090565b600160009054906101000a900473ffffffffffffffffffffffffffffffffffffffff1681565b60008054905090565b42600281905550565b6000600160009054906101000a900473ffffffffffffffffffffffffffffffffffffffff1673ffffffffffffffffffffffffffffffffffffffff163373ffffffffffffffffffffffffffffffffffffffff1614610213576040517f08c379a000000000000000000000000000000000000000000000000000000000815260040161020a906106d9565b60405180910390fd5b6000805411610257576040517f08c379a000000000000000000000000000000000000000000000000000000000815260040161024e906106b9565b60405180910390fd5b6000610262836102db565b9050600081116102a7576040517f08c379a000000000000000000000000000000000000000000000000000000000815260040161029e906106f9565b60405180910390fd5b6102cc60005482604051806060016040528060368152602001610b2e603691396103cb565b60008190555080915050919050565b60008062278d00600254426102f09190610842565b6102fa9190610811565b905060008060035490505b60378111610369576103548286836037811061034a577f4e487b7100000000000000000000000000000000000000000000000000000000600052603260045260246000fd5b602002015161042f565b9150808061036190610916565b915050610305565b5060018261037791906107bb565b60038190555060008114156103c1576040517f08c379a00000000000000000000000000000000000000000000000000000000081526004016103b890610719565b60405180910390fd5b8092505050919050565b6000838311158290610413576040517f08c379a000000000000000000000000000000000000000000000000000000000815260040161040a9190610677565b60405180910390fd5b50600083856104229190610842565b9050809150509392505050565b600080828461043e91906107bb565b905083811015610483576040517f08c379a000000000000000000000000000000000000000000000000000000000815260040161047a90610699565b60405180910390fd5b8091505092915050565b60006104a061049b84610779565b610754565b905080828560208602820111156104b657600080fd5b60005b858110156104e657816104cc8882610517565b8452602084019350602083019250506001810190506104b9565b5050509392505050565b600082601f83011261050157600080fd5b603761050e84828561048d565b91505092915050565b60008135905061052681610b16565b92915050565b60006106e0828403121561053f57600080fd5b600061054d848285016104f0565b91505092915050565b61055f81610876565b82525050565b60006105708261079f565b61057a81856107aa565b935061058a8185602086016108b2565b610593816109ec565b840191505092915050565b60006105ab601b836107aa565b91506105b6826109fd565b602082019050919050565b60006105ce6018836107aa565b91506105d982610a26565b602082019050919050565b60006105f16035836107aa565b91506105fc82610a4f565b604082019050919050565b6000610614601e836107aa565b915061061f82610a9e565b602082019050919050565b60006106376026836107aa565b915061064282610ac7565b604082019050919050565b610656816108a8565b82525050565b60006020820190506106716000830184610556565b92915050565b600060208201905081810360008301526106918184610565565b905092915050565b600060208201905081810360008301526106b28161059e565b9050919050565b600060208201905081810360008301526106d2816105c1565b9050919050565b600060208201905081810360008301526106f2816105e4565b9050919050565b6000602082019050818103600083015261071281610607565b9050919050565b600060208201905081810360008301526107328161062a565b9050919050565b600060208201905061074e600083018461064d565b92915050565b600061075e61076f565b905061076a82826108e5565b919050565b6000604051905090565b600067ffffffffffffffff821115610794576107936109bd565b5b602082029050919050565b600081519050919050565b600082825260208201905092915050565b60006107c6826108a8565b91506107d1836108a8565b9250827fffffffffffffffffffffffffffffffffffffffffffffffffffffffffffffffff038211156108065761080561095f565b5b828201905092915050565b600061081c826108a8565b9150610827836108a8565b9250826108375761083661098e565b5b828204905092915050565b600061084d826108a8565b9150610858836108a8565b92508282101561086b5761086a61095f565b5b828203905092915050565b600061088182610888565b9050919050565b600073ffffffffffffffffffffffffffffffffffffffff82169050919050565b6000819050919050565b60005b838110156108d05780820151818401526020810190506108b5565b838111156108df576000848401525b50505050565b6108ee826109ec565b810181811067ffffffffffffffff8211171561090d5761090c6109bd565b5b80604052505050565b6000610921826108a8565b91507fffffffffffffffffffffffffffffffffffffffffffffffffffffffffffffffff8214156109545761095361095f565b5b600182019050919050565b7f4e487b7100000000000000000000000000000000000000000000000000000000600052601160045260246000fd5b7f4e487b7100000000000000000000000000000000000000000000000000000000600052601260045260246000fd5b7f4e487b7100000000000000000000000000000000000000000000000000000000600052604160045260246000fd5b6000601f19601f8301169050919050565b7f536166654d6174683a206164646974696f6e206f766572666c6f770000000000600082015250565b7f4c6f636b61626c653a206e6f20746f6b656e73206c6566740000000000000000600082015250565b7f4c6f636b61626c653a2063616c6c6572206861766520746f2062652054616c6160008201527f78546f6b656e20536d61727420436f6e74726163740000000000000000000000602082015250565b7f4c6f636b61626c653a206e6f20746f6b656e7320746f2072656c656173650000600082015250565b7f4c6f636b61626c653a2054686572652773206e6f7468696e6720746f20636c6160008201527f696d207965740000000000000000000000000000000000000000000000000000602082015250565b610b1f816108a8565b8114610b2a57600080fd5b5056fe4c6f636b61626c653a2043616e6e6f742073756273747261637420746f74616c20616d6f756e74207769746820636c61696d61626c65a2646970667358221220c0bdc7c7b8c61d37b93cb9907793f564124716c548aeb03f72ab67e4231393f364736f6c63430008040033",
  "linkReferences": {},
  "deployedLinkReferences": {}
}