{
  "contractName": "Multilockable",
  "abi": [
    {
      "inputs": [],
      "stateMutability": "nonpayable",
      "type": "constructor"
    },
    {
      "inputs": [],
      "name": "_startPrivateSale",
      "outputs": [
        {
          "internalType": "uint256",
          "name": "",
          "type": "uint256"
        }
      ],
      "stateMutability": "view",
      "type": "function"
    },
    {
      "inputs": [],
      "name": "phase_1_total",
      "outputs": [
        {
          "internalType": "uint256",
          "name": "",
          "type": "uint256"
        }
      ],
      "stateMutability": "view",
      "type": "function"
    },
    {
      "inputs": [],
      "name": "phase_2_total",
      "outputs": [
        {
          "internalType": "uint256",
          "name": "",
          "type": "uint256"
        }
      ],
      "stateMutability": "view",
      "type": "function"
    },
    {
      "inputs": [],
      "name": "totalAmount",
      "outputs": [
        {
          "internalType": "uint256",
          "name": "",
          "type": "uint256"
        }
      ],
      "stateMutability": "view",
      "type": "function"
    },
    {
      "inputs": [],
      "name": "totalUser",
      "outputs": [
        {
          "internalType": "uint256",
          "name": "",
          "type": "uint256"
        }
      ],
      "stateMutability": "view",
      "type": "function"
    },
    {
      "inputs": [],
      "name": "hasMultilockable",
      "outputs": [
        {
          "components": [
            {
              "internalType": "uint256",
              "name": "lockedAmount",
              "type": "uint256"
            },
            {
              "internalType": "uint256",
              "name": "amount",
              "type": "uint256"
            },
            {
              "internalType": "bool",
              "name": "phase_1_claimed",
              "type": "bool"
            },
            {
              "internalType": "uint256",
              "name": "latestClaimDay",
              "type": "uint256"
            }
          ],
          "internalType": "struct Multilockable.Multilock",
          "name": "",
          "type": "tuple"
        }
      ],
      "stateMutability": "view",
      "type": "function"
    }
  ],
  "bytecode": "0x60806040526a0c24662f3b1cd04860000060015534801561001f57600080fd5b5061022d8061002f6000396000f3fe608060405234801561001057600080fd5b50600436106100625760003560e01c806319ca147d146100675780631a39d8ef146100ad57806372fe1e63146100c4578063760edffd146100cd578063e1604b70146100df578063fe6c9cc0146100e8575b600080fd5b61006f6100f9565b6040516100a4919081518152602080830151908201526040808301511515908201526060918201519181019190915260800190565b60405180910390f35b6100b660015481565b6040519081526020016100a4565b6100b660025481565b6100b66a0136d704b91c7b3a70000081565b6100b660005481565b6100b66907aa22879aabcfac000081565b61012660405180608001604052806000815260200160008152602001600015158152602001600081525090565b336000908152600360205260409020600101546101af5760405162461bcd60e51b815260206004820152603860248201527f5072697661746553616c653a20596f7520646f6e2774206861766520616e792060448201527f62616c616e636520666f7220707269766174652073616c650000000000000000606482015260840160405180910390fd5b5033600090815260036020818152604092839020835160808101855281548152600182015492810192909252600281015460ff1615159382019390935291015460608201529056fea26469706673582212203e2259fbb22fc3ec3e9acaebe059547147a8a2e2c84a618d8695bdfcec7c153a64736f6c634300080b0033",
  "immutableReferences": {},
  "source": "// SPDX-License-Identifier: UNLICENSED\r\npragma solidity 0.8.11;\r\n\r\nimport \"@openzeppelin/contracts/utils/math/SafeMath.sol\";\r\n\r\ncontract Multilockable {\r\n    using SafeMath for uint256;\r\n    uint256 public totalUser;\r\n\r\n    uint256 public totalAmount = 14679 * 1e3 * 1e18;\r\n    uint256 public constant phase_1_total = 1467900 * 1e18;\r\n    uint256 public constant phase_2_total = 36195 * 1e18;\r\n\r\n    uint256 public _startPrivateSale;\r\n\r\n    struct Multilock {\r\n        uint256 lockedAmount;\r\n        uint256 amount;\r\n        bool phase_1_claimed;\r\n        uint256 latestClaimDay;\r\n    }\r\n\r\n    // beneficiary of tokens after they are released\r\n    mapping(address => Multilock) private beneficiary;\r\n\r\n    constructor() {}\r\n\r\n    function _initiatePrivateSale() internal {\r\n        _startPrivateSale = block.timestamp;\r\n    }\r\n\r\n    function hasMultilockable() external view returns (Multilock memory) {\r\n        require(\r\n            beneficiary[msg.sender].amount != 0,\r\n            \"PrivateSale: You don't have any balance for private sale\"\r\n        );\r\n        return beneficiary[msg.sender];\r\n    }\r\n\r\n    /**\r\n     *  @dev \t\tMain Functions\r\n     *  @return \tClaimable amount from Locked Wallet\r\n     */\r\n    function _calculateClaimableAmount(address user)\r\n        internal\r\n        returns (uint256)\r\n    {\r\n        uint256 claimable;\r\n\r\n        uint256 lockDuration = (block.timestamp - _startPrivateSale) / 1 days;\r\n\r\n        //Phase 1 of locked wallet release - monthly\r\n        if (lockDuration < 16 * 30) {\r\n            if (beneficiary[user].phase_1_claimed == false) {\r\n                claimable = claimable.add(\r\n                    SafeMath.div(\r\n                        SafeMath.mul(\r\n                            phase_1_total,\r\n                            beneficiary[user].lockedAmount\r\n                        ),\r\n                        totalAmount\r\n                    )\r\n                );\r\n                beneficiary[user].phase_1_claimed = true;\r\n            }\r\n            beneficiary[user].latestClaimDay = 15 * 30;\r\n        }\r\n        //Phase 2 of locked wallet release - daily\r\n        else if (lockDuration >= 16 * 30 && lockDuration < 28 * 30) {\r\n            if (beneficiary[user].phase_1_claimed == false) {\r\n                claimable = claimable.add(\r\n                    SafeMath.div(\r\n                        SafeMath.mul(\r\n                            phase_1_total,\r\n                            beneficiary[user].lockedAmount\r\n                        ),\r\n                        totalAmount\r\n                    )\r\n                );\r\n                beneficiary[user].phase_1_claimed = true;\r\n            }\r\n\r\n            uint256 sinceLatestClaim = lockDuration -\r\n                beneficiary[user].latestClaimDay;\r\n            claimable =\r\n                sinceLatestClaim *\r\n                claimable.add(\r\n                    SafeMath.div(\r\n                        SafeMath.mul(\r\n                            phase_2_total,\r\n                            beneficiary[user].lockedAmount\r\n                        ),\r\n                        totalAmount\r\n                    )\r\n                );\r\n            beneficiary[user].latestClaimDay = lockDuration;\r\n        }\r\n\r\n        require(claimable != 0, \"PrivateSale: There's nothing to claim yet\");\r\n        return claimable;\r\n    }\r\n\r\n    function _addBeneficiary(address user_, uint256 amount_) internal {\r\n        require(\r\n            amount_ <= totalAmount,\r\n            \"PrivateSale: not enough balance to add a new user\"\r\n        );\r\n        require(\r\n            beneficiary[user_].amount == 0,\r\n            \"PrivateSale: This user already registered\"\r\n        );\r\n        beneficiary[user_].lockedAmount = amount_;\r\n        beneficiary[user_].amount = amount_;\r\n        beneficiary[user_].phase_1_claimed = false;\r\n        beneficiary[user_].latestClaimDay = 1;\r\n\r\n        totalUser += 1;\r\n        totalAmount -= amount_;\r\n    }\r\n\r\n    function _deleteBeneficiary(address user_) internal returns (uint256) {\r\n        require(\r\n            beneficiary[user_].amount != 0,\r\n            \"PrivateSale: This user doesnt exist\"\r\n        );\r\n        totalUser -= 1;\r\n        totalAmount += beneficiary[user_].amount;\r\n        uint256 ex_amount = beneficiary[user_].amount;\r\n\r\n        delete beneficiary[user_];\r\n        return ex_amount;\r\n    }\r\n\r\n    /**\r\n     * @notice Transfers tokens held by timelock to beneficiary.\r\n     */\r\n    function _releaseClaimable(address user_) internal returns (uint256) {\r\n        require(beneficiary[user_].amount > 0, \"PrivateSale: no tokens left\");\r\n\r\n        uint256 claimableLockedAmount = _calculateClaimableAmount(user_);\r\n\r\n        require(claimableLockedAmount > 0, \"PrivateSale: no tokens to release\");\r\n\r\n        beneficiary[user_].amount = SafeMath.sub(\r\n            beneficiary[user_].amount,\r\n            claimableLockedAmount,\r\n            \"PrivateSale: Cannot substract total amount with claimable\"\r\n        );\r\n\r\n        return claimableLockedAmount;\r\n    }\r\n}\r\n",
  "sourcePath": "D:\\Work\\Projects\\Blockchain\\TalaxToken\\contracts\\Multilockable.sol",
  "compiler": {
    "name": "solc",
    "version": "0.8.11+commit.d7f03943.Emscripten.clang"
  },
  "schemaVersion": "3.4.5",
  "updatedAt": "2022-06-06T08:48:43.585Z",
  "devdoc": {
    "kind": "dev",
    "methods": {},
    "version": 1
  },
  "userdoc": {
    "kind": "user",
    "methods": {},
    "version": 1
  }
}