{
  "contractName": "Stakable",
  "abi": [
    {
      "inputs": [],
      "stateMutability": "nonpayable",
      "type": "constructor"
    },
    {
      "anonymous": false,
      "inputs": [
        {
          "indexed": false,
          "internalType": "uint256",
          "name": "amount",
          "type": "uint256"
        }
      ],
      "name": "AirdropChanged",
      "type": "event"
    },
    {
      "anonymous": false,
      "inputs": [
        {
          "indexed": false,
          "internalType": "uint256",
          "name": "amount",
          "type": "uint256"
        }
      ],
      "name": "PenaltyChanged",
      "type": "event"
    },
    {
      "anonymous": false,
      "inputs": [
        {
          "indexed": true,
          "internalType": "address",
          "name": "user",
          "type": "address"
        },
        {
          "indexed": false,
          "internalType": "uint256",
          "name": "amount",
          "type": "uint256"
        },
        {
          "indexed": false,
          "internalType": "uint256",
          "name": "index",
          "type": "uint256"
        },
        {
          "indexed": false,
          "internalType": "uint256",
          "name": "timestamp",
          "type": "uint256"
        },
        {
          "indexed": false,
          "internalType": "uint256",
          "name": "releaseTime",
          "type": "uint256"
        }
      ],
      "name": "Staked",
      "type": "event"
    },
    {
      "inputs": [],
      "name": "penaltyFee",
      "outputs": [
        {
          "internalType": "uint256",
          "name": "",
          "type": "uint256"
        }
      ],
      "stateMutability": "view",
      "type": "function"
    },
    {
      "inputs": [
        {
          "internalType": "address",
          "name": "_staker",
          "type": "address"
        }
      ],
      "name": "hasStake",
      "outputs": [
        {
          "components": [
            {
              "internalType": "uint256",
              "name": "total_amount",
              "type": "uint256"
            },
            {
              "components": [
                {
                  "internalType": "address",
                  "name": "user",
                  "type": "address"
                },
                {
                  "internalType": "uint256",
                  "name": "amount",
                  "type": "uint256"
                },
                {
                  "internalType": "uint256",
                  "name": "since",
                  "type": "uint256"
                },
                {
                  "internalType": "uint256",
                  "name": "claimable",
                  "type": "uint256"
                },
                {
                  "internalType": "uint256",
                  "name": "claimable_airdrop",
                  "type": "uint256"
                },
                {
                  "internalType": "uint256",
                  "name": "rewardAPY",
                  "type": "uint256"
                },
                {
                  "internalType": "uint256",
                  "name": "releaseTime",
                  "type": "uint256"
                }
              ],
              "internalType": "struct Stakable.Stake[]",
              "name": "stakes",
              "type": "tuple[]"
            }
          ],
          "internalType": "struct Stakable.StakingSummary",
          "name": "",
          "type": "tuple"
        }
      ],
      "stateMutability": "view",
      "type": "function"
    }
  ],
  "bytecode": "0x608060405234801561001057600080fd5b5060028054600190810182556000918252600f90915560509055610621806100396000396000f3fe608060405234801561001057600080fd5b50600436106100365760003560e01c80633dc10ad41461003b578063e73e14bf14610051575b600080fd5b6000546040519081526020015b60405180910390f35b61006461005f3660046103ed565b610071565b604051610048919061041d565b604080518082019091526000815260606020820152600080604051806040016040528060008152602001600260036000886001600160a01b03166001600160a01b0316815260200190815260200160002054815481106100d3576100d36104bd565b9060005260206000209060030201600201805480602002602001604051908101604052809291908181526020016000905b8282101561017f5760008481526020908190206040805160e0810182526007860290920180546001600160a01b03168352600180820154848601526002820154928401929092526003810154606084015260048101546080840152600581015460a08401526006015460c08301529083529092019101610104565b5050509152506020810151519091506101f75760405162461bcd60e51b815260206004820152602f60248201527f5374616b61626c653a2054686973206164647265737320646f6573206e6f742060448201526e6861766520616e79207374616b657360881b60648201526084015b60405180910390fd5b60005b8160200151518110156102bd57600061025183602001518381518110610222576102226104bd565b602002602001015184602001518481518110610240576102406104bd565b6020026020010151602001516102c7565b9050808360200151838151811061026a5761026a6104bd565b6020026020010151606001818152505082602001518281518110610290576102906104bd565b602002602001015160200151846102a791906104e9565b93506102b690506001826104e9565b90506101fa565b5090815292915050565b60008260200151600014156102de5750600061031d565b6a52b7d2dcc80cd2e40000006102f78460400151610323565b60a08501516103069085610501565b6103109190610501565b61031a9190610536565b90505b92915050565b60008082116103745760405162461bcd60e51b815260206004820152601b60248201527f5374616b61626c653a204572726f722074696d657374616d702030000000000060448201526064016101ee565b61031d6103818342610558565b6103959069d3c21bcecceda1000000610501565b6301e133806040518060600160405280602781526020016105c560279139600081836103d45760405162461bcd60e51b81526004016101ee919061056f565b508284816103e4576103e4610520565b04949350505050565b6000602082840312156103ff57600080fd5b81356001600160a01b038116811461041657600080fd5b9392505050565b6000602080835260608084018551838601528286015160408081880152828251808552608094508489019150868401935060005b818110156104ae57845180516001600160a01b03168452888101518985015284810151858501528781015188850152868101518785015260a0808201519085015260c090810151908401529387019360e090920191600101610451565b50909998505050505050505050565b634e487b7160e01b600052603260045260246000fd5b634e487b7160e01b600052601160045260246000fd5b600082198211156104fc576104fc6104d3565b500190565b600081600019048311821515161561051b5761051b6104d3565b500290565b634e487b7160e01b600052601260045260246000fd5b60008261055357634e487b7160e01b600052601260045260246000fd5b500490565b60008282101561056a5761056a6104d3565b500390565b600060208083528351808285015260005b8181101561059c57858101830151858201604001528201610580565b818111156105ae576000604083870101525b50601f01601f191692909201604001939250505056fe5374616b61626c653a204572726f722063616e6e6f74206469766964652074696d657374616d70a264697066735822122017e8ad185d936d24fb128c299a456c782eca6aeec3c629b7ce09579bb1bc883f64736f6c634300080b0033",
  "immutableReferences": {},
  "source": "// SPDX-License-Identifier: UNLICENSED\r\npragma solidity 0.8.11;\r\n\r\nimport \"@openzeppelin/contracts/utils/math/SafeMath.sol\";\r\n\r\ncontract Stakable {\r\n    using SafeMath for uint256;\r\n    /**\r\n     * @notice Constructor since this contract is not ment to be used without inheritance\r\n     * push once to stakeholders for it to work proplerly\r\n     */\r\n\r\n    uint256 private _stakingPenalty;\r\n    uint256 private _airdrop;\r\n\r\n    constructor() {\r\n        // This push is needed so we avoid index 0 causing bug of index-1\r\n        stakeholders.push();\r\n\r\n        //Staking penalty and Airdrop in 0.1 times percentage\r\n        _stakingPenalty = 15;\r\n        _airdrop = 80;\r\n    }\r\n\r\n    /**\r\n     * @notice\r\n     * A stake struct is used to represent the way we store stakes,\r\n     * A Stake will contain the users address, the amount staked and a timestamp,\r\n     * Since which is when the stake was made\r\n     */\r\n    struct Stake {\r\n        address user;\r\n        uint256 amount;\r\n        uint256 since;\r\n        // This claimable field is new and used to tell how big of a reward is currently available\r\n        uint256 claimable;\r\n        uint256 claimable_airdrop;\r\n        uint256 rewardAPY;\r\n        uint256 releaseTime;\r\n    }\r\n    /**\r\n     * @notice Stakeholder is a staker that has active stakes\r\n     */\r\n    struct Stakeholder {\r\n        address user;\r\n        uint256 latestClaimDrop;\r\n        Stake[] address_stakes;\r\n    }\r\n\r\n    /**\r\n     * @notice\r\n     * StakingSummary is a struct that is used to contain all stakes performed by a certain account\r\n     */\r\n    struct StakingSummary {\r\n        uint256 total_amount;\r\n        Stake[] stakes;\r\n    }\r\n\r\n    /**\r\n     * @notice\r\n     *   This is a array where we store all Stakes that are performed on the Contract\r\n     *   The stakes for each address are stored at a certain index, the index can be found using the stakes mapping\r\n     */\r\n    Stakeholder[] internal stakeholders;\r\n    /**\r\n     * @notice\r\n     * stakes is used to keep track of the INDEX for the stakers in the stakes array\r\n     */\r\n    mapping(address => uint256) internal stakes;\r\n\r\n    /**\r\n     * @notice Staked event is triggered whenever a user stakes tokens, address is indexed to make it filterable\r\n     */\r\n    event Staked(\r\n        address indexed user,\r\n        uint256 amount,\r\n        uint256 index,\r\n        uint256 timestamp,\r\n        uint256 releaseTime\r\n    );\r\n\r\n    event PenaltyChanged(uint256 amount);\r\n    event AirdropChanged(uint256 amount);\r\n\r\n    /**\r\n     * @notice _addStakeholder takes care of adding a stakeholder to the stakeholders array\r\n     */\r\n    function _addStakeholder(address staker) internal returns (uint256) {\r\n        // Push a empty item to the Array to make space for our new stakeholder\r\n        stakeholders.push();\r\n        // Calculate the index of the last item in the array by Len-1\r\n        uint256 userIndex = stakeholders.length - 1;\r\n        // Assign the address to the new index\r\n        stakeholders[userIndex].user = staker;\r\n        // Assign current timestamp to latestCLaimDrop\r\n        stakeholders[userIndex].latestClaimDrop = block.timestamp;\r\n        // Add index to the stakeHolders\r\n        stakes[staker] = userIndex;\r\n        return userIndex;\r\n    }\r\n\r\n    /**\r\n     * @notice\r\n     * _Stake is used to make a stake for an sender. It will remove the amount staked from the stakers account and place those tokens inside a stake container\r\n     * StakeID\r\n     */\r\n    function _stake(\r\n        uint256 _amount,\r\n        uint256 _stakePeriod,\r\n        uint256 _rewardRate\r\n    ) internal {\r\n        // Simple check so that user does not stake 0\r\n        require(_amount > 0, \"Stakable: Cannot stake nothing\");\r\n        // require(_amount > 1e18, \"Minimum stake is 1 TALAX\");\r\n\r\n        // Mappings in solidity creates all values, but empty, so we can just check the address\r\n        uint256 index = stakes[msg.sender];\r\n        // block.timestamp = timestamp of the current block in seconds since the epoch\r\n        uint256 timestamp = block.timestamp;\r\n        // See if the staker already has a staked index or if its the first time\r\n        if (index == 0) {\r\n            // This stakeholder stakes for the first time\r\n            // We need to add him to the stakeHolders and also map it into the Index of the stakes\r\n            // The index returned will be the index of the stakeholder in the stakeholders array\r\n            index = _addStakeholder(msg.sender);\r\n        }\r\n\r\n        // Use the index to push a new Stake\r\n        // push a newly created Stake with the current block timestamp.\r\n        stakeholders[index].address_stakes.push(\r\n            Stake(\r\n                msg.sender,\r\n                _amount,\r\n                timestamp,\r\n                0,\r\n                0,\r\n                _rewardRate,\r\n                (_stakePeriod + timestamp)\r\n            )\r\n        );\r\n        // Emit an event that the stake has occured\r\n        emit Staked(\r\n            msg.sender,\r\n            _amount,\r\n            index,\r\n            timestamp,\r\n            (_stakePeriod + timestamp)\r\n        );\r\n    }\r\n\r\n    function _changePenaltyFee(uint256 amount_) internal {\r\n        require(\r\n            amount_ <= 30,\r\n            \"Stakable: Penalty fee cannot exceed 3 percent.\"\r\n        );\r\n        _stakingPenalty = amount_;\r\n        emit PenaltyChanged(amount_);\r\n    }\r\n\r\n    function _changeAirdropPercentage(uint256 amount_) internal {\r\n        require(\r\n            amount_ <= 200,\r\n            \"Stakable: Airdrop Percentage cannot exceed 20 percent.\"\r\n        );\r\n        _airdrop = amount_;\r\n        emit AirdropChanged(amount_);\r\n    }\r\n\r\n    function penaltyFee() public view returns (uint256) {\r\n        return _stakingPenalty;\r\n    }\r\n\r\n    function calculateStakingDuration(uint256 since_)\r\n        internal\r\n        view\r\n        returns (uint256)\r\n    {\r\n        require(since_ > 0, \"Stakable: Error timestamp 0\");\r\n        return\r\n            SafeMath.div(\r\n                (block.timestamp - since_) * 1e24,\r\n                365 days,\r\n                \"Stakable: Error cannot divide timestamp\"\r\n            );\r\n    }\r\n\r\n    function calculateStakeReward(Stake memory _current_stake, uint256 _amount)\r\n        internal\r\n        view\r\n        returns (uint256)\r\n    {\r\n        if (_current_stake.amount == 0) {\r\n            return 0;\r\n        }\r\n\r\n        return\r\n            (_amount *\r\n                _current_stake.rewardAPY *\r\n                calculateStakingDuration(_current_stake.since)) / 1e26;\r\n    }\r\n\r\n    function calculateStakingWithPenalty(uint256 amount, uint256 reward)\r\n        internal\r\n        view\r\n        returns (uint256, uint256)\r\n    {\r\n        if (amount == 0) {\r\n            return (0, 0);\r\n        }\r\n\r\n        return (\r\n            SafeMath.sub(\r\n                amount,\r\n                SafeMath.div(SafeMath.mul(amount, _stakingPenalty), 1000)\r\n            ),\r\n            SafeMath.sub(\r\n                reward,\r\n                SafeMath.div(SafeMath.mul(reward, _stakingPenalty), 1000)\r\n            )\r\n        );\r\n    }\r\n\r\n    /**\r\n     * @notice\r\n     * withdrawStake takes in an amount and a index of the stake and will remove tokens from that stake\r\n     * Notice index of the stake is the users stake counter, starting at 0 for the first stake\r\n     * Will return the amount to MINT onto the acount\r\n     * Will also calculateStakeReward and reset timer\r\n     */\r\n    function _withdrawStake(uint256 amount, uint256 index)\r\n        internal\r\n        returns (uint256, uint256)\r\n    {\r\n        // Grab user_index which is the index to use to grab the Stake[]\r\n        uint256 user_index = stakes[msg.sender];\r\n        Stake storage current_stake = stakeholders[user_index].address_stakes[\r\n            index\r\n        ];\r\n\r\n        require(\r\n            current_stake.amount >= amount,\r\n            \"Stakable: Cannot withdraw more than you have staked\"\r\n        );\r\n\r\n        // Calculate available Reward first before we start modifying data\r\n        uint256 reward = calculateStakeReward(current_stake, amount);\r\n        uint256 stakeDuration = current_stake.releaseTime - current_stake.since;\r\n\r\n        /**\r\n         * @notice This is penalty given for early withdrawal before the designated time\r\n         */\r\n\r\n        if (current_stake.releaseTime > block.timestamp) {\r\n            current_stake.amount -= amount;\r\n\r\n            if (current_stake.amount == 0) {\r\n                delete stakeholders[user_index].address_stakes[index];\r\n            } else {\r\n                stakeholders[user_index]\r\n                    .address_stakes[index]\r\n                    .amount = current_stake.amount;\r\n                // Reset timer of stake\r\n                stakeholders[user_index].address_stakes[index].since = block\r\n                    .timestamp;\r\n                stakeholders[user_index].address_stakes[index].releaseTime =\r\n                    block.timestamp +\r\n                    stakeDuration;\r\n            }\r\n\r\n            return calculateStakingWithPenalty(amount, reward);\r\n        }\r\n\r\n        // Remove by subtracting the money unstaked\r\n        current_stake.amount -= amount;\r\n        // If stake is empty, 0, then remove it from the array of stakes\r\n        if (current_stake.amount == 0) {\r\n            delete stakeholders[user_index].address_stakes[index];\r\n        } else {\r\n            stakeholders[user_index]\r\n                .address_stakes[index]\r\n                .amount = current_stake.amount;\r\n            // Reset timer of stake\r\n            stakeholders[user_index].address_stakes[index].since = block\r\n                .timestamp;\r\n            stakeholders[user_index].address_stakes[index].releaseTime =\r\n                block.timestamp +\r\n                stakeDuration;\r\n        }\r\n\r\n        return (amount, reward);\r\n    }\r\n\r\n    function _withdrawAllStake(uint256 index)\r\n        internal\r\n        returns (uint256, uint256)\r\n    {\r\n        // Grab user_index which is the index to use to grab the Stake[]\r\n        uint256 user_index = stakes[msg.sender];\r\n        Stake storage current_stake = stakeholders[user_index].address_stakes[\r\n            index\r\n        ];\r\n\r\n        require(\r\n            current_stake.amount > 0,\r\n            \"Stakable: Cannot withdraw, you don't have any stake in this Index\"\r\n        );\r\n\r\n        // Calculate available Reward first before we start modifying data\r\n        uint256 amount = current_stake.amount;\r\n        uint256 reward = calculateStakeReward(current_stake, amount);\r\n\r\n        /**\r\n         * @notice This is penalty given for early withdrawal before the designated time\r\n         */\r\n\r\n        if (current_stake.releaseTime > block.timestamp) {\r\n            current_stake.amount -= amount;\r\n            delete stakeholders[user_index].address_stakes[index];\r\n            return calculateStakingWithPenalty(amount, reward);\r\n        }\r\n\r\n        delete stakeholders[user_index].address_stakes[index];\r\n\r\n        return (amount, reward);\r\n    }\r\n\r\n    function hasStake(address _staker)\r\n        public\r\n        view\r\n        returns (StakingSummary memory)\r\n    {\r\n        uint256 totalStakeAmount;\r\n\r\n        StakingSummary memory summary = StakingSummary(\r\n            0,\r\n            stakeholders[stakes[_staker]].address_stakes\r\n        );\r\n        require(\r\n            summary.stakes.length != 0,\r\n            \"Stakable: This address does not have any stakes\"\r\n        );\r\n\r\n        for (uint256 s = 0; s < summary.stakes.length; s += 1) {\r\n            uint256 availableReward = calculateStakeReward(\r\n                summary.stakes[s],\r\n                summary.stakes[s].amount\r\n            );\r\n            summary.stakes[s].claimable = availableReward;\r\n            totalStakeAmount += summary.stakes[s].amount;\r\n        }\r\n\r\n        summary.total_amount = totalStakeAmount;\r\n        return summary;\r\n    }\r\n\r\n    function _claimAirdrop(address _staker) internal returns (uint256) {\r\n        uint256 totalAirdrop;\r\n\r\n        Stakeholder storage stakeholder = stakeholders[stakes[_staker]];\r\n        uint256 monthAirdrop = (block.timestamp - stakeholder.latestClaimDrop)\r\n            .div(7 days);\r\n\r\n        require(\r\n            monthAirdrop >= 1,\r\n            \"Stakable: Airdrop can only be claimed in a month timespan\"\r\n        );\r\n\r\n        require(\r\n            stakeholder.address_stakes.length > 0,\r\n            \"Stakable: This address does not have any stakes\"\r\n        );\r\n\r\n        for (uint256 i = 0; i < stakeholder.address_stakes.length; i++) {\r\n            if (stakeholder.address_stakes[i].amount <= 0) {\r\n                continue;\r\n            }\r\n            uint256 value = (stakeholder.address_stakes[i].amount * _airdrop) /\r\n                100;\r\n            totalAirdrop += value;\r\n            stakeholder.address_stakes[i].claimable_airdrop = value;\r\n        }\r\n\r\n        stakeholder.latestClaimDrop = block.timestamp;\r\n\r\n        return totalAirdrop;\r\n    }\r\n}\r\n",
  "sourcePath": "D:\\Work\\Projects\\Blockchain\\TalaxToken\\contracts\\Stakable.sol",
  "compiler": {
    "name": "solc",
    "version": "0.8.11+commit.d7f03943.Emscripten.clang"
  },
  "schemaVersion": "3.4.5",
  "updatedAt": "2022-06-06T08:48:43.599Z",
  "devdoc": {
    "kind": "dev",
    "methods": {},
    "version": 1
  },
  "userdoc": {
    "events": {
      "Staked(address,uint256,uint256,uint256,uint256)": {
        "notice": "Staked event is triggered whenever a user stakes tokens, address is indexed to make it filterable"
      }
    },
    "kind": "user",
    "methods": {},
    "version": 1
  }
}